# 17162806 - Lehko Habhoka

## Common Data

| Field            | Value                        |
|------------------|------------------------------|
| Zone             | Windurst Waters [S] (ID: 94) |
| Block Size       | 2656 bytes                   |
| Total Events     | 94                           |
| References Count | 194                          |

## List of Events

| Event ID                   | Entrypoint   |   Size |   Instructions |
|----------------------------|--------------|--------|----------------|
| [65535](#event-65535)      | 0x0000       |      1 |              1 |
| [65535.1](#event-655351)   | 0x0001       |      1 |              1 |
| [65535.2](#event-655352)   | 0x0002       |     18 |              4 |
| [65535.3](#event-655353)   | 0x0014       |     10 |              2 |
| [65535.4](#event-655354)   | 0x001E       |      9 |              3 |
| [65535.5](#event-655355)   | 0x0027       |      9 |              3 |
| [65535.6](#event-655356)   | 0x0030       |     10 |              2 |
| [65535.7](#event-655357)   | 0x003A       |     10 |              2 |
| [232](#event-232)          | 0x0044       |      1 |              1 |
| [233](#event-233)          | 0x0045       |      1 |              1 |
| [178](#event-178)          | 0x0046       |      1 |              1 |
| [179](#event-179)          | 0x0047       |      1 |              1 |
| [65535.8](#event-655358)   | 0x0048       |     15 |              5 |
| [65535.9](#event-655359)   | 0x0057       |     20 |              6 |
| [65535.10](#event-6553510) | 0x006B       |      3 |              2 |
| [65535.11](#event-6553511) | 0x006E       |      3 |              2 |
| [158](#event-158)          | 0x0071       |      1 |              1 |
| [165](#event-165)          | 0x0072       |      1 |              1 |
| [168](#event-168)          | 0x0073       |      1 |              1 |
| [65535.12](#event-6553512) | 0x0074       |     35 |              9 |
| [65535.13](#event-6553513) | 0x0097       |     24 |              6 |
| [65535.14](#event-6553514) | 0x00AF       |     15 |              5 |
| [65535.15](#event-6553515) | 0x00BE       |     15 |              5 |
| [65535.16](#event-6553516) | 0x00CD       |     24 |              6 |
| [182](#event-182)          | 0x00E5       |      1 |              1 |
| [65535.17](#event-6553517) | 0x00E6       |     19 |              5 |
| [184](#event-184)          | 0x00F9       |      1 |              1 |
| [234](#event-234)          | 0x00FA       |      1 |              1 |
| [235](#event-235)          | 0x00FB       |      1 |              1 |
| [187](#event-187)          | 0x00FC       |      1 |              1 |
| [65535.18](#event-6553518) | 0x00FD       |     12 |              4 |
| [65535.19](#event-6553519) | 0x0109       |     11 |              3 |
| [65535.20](#event-6553520) | 0x0114       |     11 |              3 |
| [65535.21](#event-6553521) | 0x011F       |     21 |              5 |
| [65535.22](#event-6553522) | 0x0134       |     11 |              3 |
| [65535.23](#event-6553523) | 0x013F       |     21 |              5 |
| [65535.24](#event-6553524) | 0x0154       |     21 |              5 |
| [65535.25](#event-6553525) | 0x0169       |     11 |              3 |
| [65535.26](#event-6553526) | 0x0174       |     14 |              5 |
| [65535.27](#event-6553527) | 0x0182       |     11 |              3 |
| [65535.28](#event-6553528) | 0x018D       |     21 |              5 |
| [65535.29](#event-6553529) | 0x01A2       |     11 |              3 |
| [65535.30](#event-6553530) | 0x01AD       |     11 |              3 |
| [65535.31](#event-6553531) | 0x01B8       |     11 |              3 |
| [65535.32](#event-6553532) | 0x01C3       |     11 |              3 |
| [65535.33](#event-6553533) | 0x01CE       |     11 |              3 |
| [185](#event-185)          | 0x01D9       |      1 |              1 |
| [186](#event-186)          | 0x01DA       |      1 |              1 |
| [65535.34](#event-6553534) | 0x01DB       |     11 |              3 |
| [65535.35](#event-6553535) | 0x01E6       |     21 |              5 |
| [65535.36](#event-6553536) | 0x01FB       |     21 |              5 |
| [65535.37](#event-6553537) | 0x0210       |     12 |              4 |
| [65535.38](#event-6553538) | 0x021C       |     20 |              6 |
| [65535.39](#event-6553539) | 0x0230       |     21 |              5 |
| [21](#event-21)            | 0x0245       |      1 |              1 |
| [22](#event-22)            | 0x0246       |      1 |              1 |
| [65535.40](#event-6553540) | 0x0247       |     40 |              6 |
| [65535.41](#event-6553541) | 0x026F       |     44 |              4 |
| [65535.42](#event-6553542) | 0x029B       |     20 |              5 |
| [65535.43](#event-6553543) | 0x02AF       |     27 |              7 |
| [65535.44](#event-6553544) | 0x02CA       |     28 |              8 |
| [65535.45](#event-6553545) | 0x02E6       |     27 |              5 |
| [65535.46](#event-6553546) | 0x0301       |     37 |              7 |
| [65535.47](#event-6553547) | 0x0326       |    130 |             28 |
| [65535.48](#event-6553548) | 0x03A8       |     14 |              2 |
| [65535.49](#event-6553549) | 0x03B6       |     68 |             14 |
| [65535.50](#event-6553550) | 0x03FA       |     13 |              3 |
| [65535.51](#event-6553551) | 0x0407       |     10 |              2 |
| [65535.52](#event-6553552) | 0x0411       |      5 |              2 |
| [65535.53](#event-6553553) | 0x0416       |      5 |              2 |
| [65535.54](#event-6553554) | 0x041B       |     21 |              2 |
| [65535.55](#event-6553555) | 0x0430       |     42 |              7 |
| [65535.56](#event-6553556) | 0x045A       |     36 |              8 |
| [65535.57](#event-6553557) | 0x047E       |     67 |              7 |
| [65535.58](#event-6553558) | 0x04C1       |     34 |              7 |
| [65535.59](#event-6553559) | 0x04E3       |     11 |              3 |
| [65535.60](#event-6553560) | 0x04EE       |     47 |              5 |
| [23](#event-23)            | 0x051D       |      1 |              1 |
| [25](#event-25)            | 0x051E       |      1 |              1 |
| [65535.61](#event-6553561) | 0x051F       |     11 |              3 |
| [65535.62](#event-6553562) | 0x052A       |     11 |              3 |
| [65535.63](#event-6553563) | 0x0535       |     11 |              3 |
| [65535.64](#event-6553564) | 0x0540       |     11 |              3 |
| [65535.65](#event-6553565) | 0x054B       |     21 |              5 |
| [65535.66](#event-6553566) | 0x0560       |     22 |              6 |
| [65535.67](#event-6553567) | 0x0576       |      4 |              2 |
| [65535.68](#event-6553568) | 0x057A       |      2 |              2 |
| [65535.69](#event-6553569) | 0x057C       |     14 |              4 |
| [65535.70](#event-6553570) | 0x058A       |     18 |              6 |
| [65535.71](#event-6553571) | 0x059C       |     14 |              4 |
| [65535.72](#event-6553572) | 0x05AA       |     10 |              2 |
| [65535.73](#event-6553573) | 0x05B4       |     10 |              2 |
| [65535.74](#event-6553574) | 0x05BE       |     14 |              4 |
| [65535.75](#event-6553575) | 0x05CC       |      4 |              2 |

## DAT References (imed_data)

|   Index | Hex Value   |   Dec Value |
|---------|-------------|-------------|
|       0 | 0x0000      |           0 |
|       1 | 0x0001      |           1 |
|       2 | 0x0080      |         128 |
|       3 | 0x000D      |          13 |
|       4 | 0xFFFF242F  |  4294911023 |
|       5 | 0x14FE6     |       85990 |
|       6 | 0xFFFFEC79  |  4294962297 |
|       7 | 0xFFFEE012  |  4294893586 |
|       8 | 0x15219     |       86553 |
|       9 | 0x0028      |          40 |
|      10 | 0xFFFFA51F  |  4294944031 |
|      11 | 0x95E0      |       38368 |
|      12 | 0xFFFFF254  |  4294963796 |
|      13 | 0xFFFFB46C  |  4294947948 |
|      14 | 0x974B      |       38731 |
|      15 | 0xFFFFF736  |  4294965046 |
|      16 | 0xFFFFEB70  |  4294962032 |
|      17 | 0x9218      |       37400 |
|      18 | 0xFFFFFC18  |  4294966296 |
|      19 | 0xFFFFEE39  |  4294962745 |
|      20 | 0xA701      |       42753 |
|      21 | 0x0BD2      |        3026 |
|      22 | 0xFFFFF9FD  |  4294965757 |
|      23 | 0xEBCF      |       60367 |
|      24 | 0xFFFF6255  |  4294926933 |
|      25 | 0x35630     |      218672 |
|      26 | 0xFFFF62F0  |  4294927088 |
|      27 | 0x3347C     |      210044 |
|      28 | 0xFFFFEC44  |  4294962244 |
|      29 | 0xFFFFF5CB  |  4294964683 |
|      30 | 0xB1A1      |       45473 |
|      31 | 0xFFFFF330  |  4294964016 |
|      32 | 0x13A91     |       80529 |
|      33 | 0xFFFFF15B  |  4294963547 |
|      34 | 0xFFFFC4B1  |  4294952113 |
|      35 | 0xFFFFFBFD  |  4294966269 |
|      36 | 0xFFFF9A70  |  4294941296 |
|      37 | 0x0004      |           4 |
|      38 | 0xFFFF5DAF  |  4294925743 |
|      39 | 0x36EED     |      225005 |
|      40 | 0xFFFFECD8  |  4294962392 |
|      41 | 0xFFFF5FB5  |  4294926261 |
|      42 | 0x30C8E     |      199822 |
|      43 | 0xFFFFEB35  |  4294961973 |
|      44 | 0x00B1      |         177 |
|      45 | 0x2DF8      |       11768 |
|      46 | 0xFFFF4869  |  4294920297 |
|      47 | 0xFFFFFC46  |  4294966342 |
|      48 | 0x8155      |       33109 |
|      49 | 0xFFFF4099  |  4294918297 |
|      50 | 0x00BF      |         191 |
|      51 | 0xF6FB      |       63227 |
|      52 | 0xFFFF1394  |  4294906772 |
|      53 | 0x0405      |        1029 |
|      54 | 0xBC43      |       48195 |
|      55 | 0xFFFF11A3  |  4294906275 |
|      56 | 0x23A1      |        9121 |
|      57 | 0x10F52     |       69458 |
|      58 | 0xFFFF0FC4  |  4294905796 |
|      59 | 0x39C2      |       14786 |
|      60 | 0x10C57     |       68695 |
|      61 | 0xFFFF0FC5  |  4294905797 |
|      62 | 0x6CAC      |       27820 |
|      63 | 0x10C84     |       68740 |
|      64 | 0x2BF1C     |      179996 |
|      65 | 0x47C9      |       18377 |
|      66 | 0x2134      |        8500 |
|      67 | 0x2C35C     |      181084 |
|      68 | 0xFFFFC585  |  4294952325 |
|      69 | 0x270F      |        9999 |
|      70 | 0x27F67     |      163687 |
|      71 | 0xFFFFB9B4  |  4294949300 |
|      72 | 0x2568A     |      153226 |
|      73 | 0xFFFFB8BE  |  4294949054 |
|      74 | 0x24117     |      147735 |
|      75 | 0xFFFFBBD9  |  4294949849 |
|      76 | 0x22E8C     |      142988 |
|      77 | 0xFFFFBB0E  |  4294949646 |
|      78 | 0x32C7      |       12999 |
|      79 | 0x22D7A     |      142714 |
|      80 | 0xFFFFA48A  |  4294943882 |
|      81 | 0x19C7      |        6599 |
|      82 | 0xFFFFE264  |  4294959716 |
|      83 | 0x0249      |         585 |
|      84 | 0xFFFFF0E9  |  4294963433 |
|      85 | 0x1DB8      |        7608 |
|      86 | 0xFFFF9C65  |  4294941797 |
|      87 | 0x0DA0      |        3488 |
|      88 | 0x3095      |       12437 |
|      89 | 0xFFFF9B5D  |  4294941533 |
|      90 | 0x0067      |         103 |
|      91 | 0xFFFFC8B1  |  4294953137 |
|      92 | 0x02ED      |         749 |
|      93 | 0x21546     |      136518 |
|      94 | 0xE8EE      |       59630 |
|      95 | 0xFFFFF810  |  4294965264 |
|      96 | 0x211E5     |      135653 |
|      97 | 0xE748      |       59208 |
|      98 | 0xFFFFF824  |  4294965284 |
|      99 | 0x05A3      |        1443 |
|     100 | 0x0078      |         120 |
|     101 | 0x0996      |        2454 |
|     102 | 0x0D7B      |        3451 |
|     103 | 0x2151      |        8529 |
|     104 | 0x1402      |        5122 |
|     105 | 0x2670      |        9840 |
|     106 | 0x079D      |        1949 |
|     107 | 0x3378      |       13176 |
|     108 | 0x0462      |        1122 |
|     109 | 0x3B9F      |       15263 |
|     110 | 0x05B6      |        1462 |
|     111 | 0x391E      |       14622 |
|     112 | 0x000B      |          11 |
|     113 | 0xFFFFFD9B  |  4294966683 |
|     114 | 0x75DC      |       30172 |
|     115 | 0x01F3      |         499 |
|     116 | 0x040A      |        1034 |
|     117 | 0xFFFFEEDB  |  4294962907 |
|     118 | 0xFFFF8D15  |  4294937877 |
|     119 | 0xFFFFC46F  |  4294952047 |
|     120 | 0x0886      |        2182 |
|     121 | 0xFFFF8B77  |  4294937463 |
|     122 | 0xFFFFBE93  |  4294950547 |
|     123 | 0x1D89      |        7561 |
|     124 | 0xFFFF8F02  |  4294938370 |
|     125 | 0xFFFFBAAA  |  4294949546 |
|     126 | 0x0005      |           5 |
|     127 | 0x5329      |       21289 |
|     128 | 0xFFFFAE58  |  4294946392 |
|     129 | 0xFFFFACFF  |  4294946047 |
|     130 | 0x0D74      |        3444 |
|     131 | 0x63C2      |       25538 |
|     132 | 0xFFFFC36A  |  4294951786 |
|     133 | 0xFFFFA723  |  4294944547 |
|     134 | 0x6B77      |       27511 |
|     135 | 0xFFFFD41A  |  4294956058 |
|     136 | 0xFFFFA33B  |  4294943547 |
|     137 | 0x70F8      |       28920 |
|     138 | 0xFFFFE5ED  |  4294960621 |
|     139 | 0xFFFF9F53  |  4294942547 |
|     140 | 0x73FB      |       29691 |
|     141 | 0xFFFFF7AB  |  4294965163 |
|     142 | 0xFFFF9B6B  |  4294941547 |
|     143 | 0x73FF      |       29695 |
|     144 | 0x04B6      |        1206 |
|     145 | 0xFFFF9A71  |  4294941297 |
|     146 | 0x003C      |          60 |
|     147 | 0x00B4      |         180 |
|     148 | 0x092A      |        2346 |
|     149 | 0x08CA      |        2250 |
|     150 | 0x0007      |           7 |
|     151 | 0x0002      |           2 |
|     152 | 0x00A4      |         164 |
|     153 | 0x003E      |          62 |
|     154 | 0x00D8      |         216 |
|     155 | 0x000A      |          10 |
|     156 | 0x4675      |       18037 |
|     157 | 0x3635      |       13877 |
|     158 | 0xFFFF9976  |  4294941046 |
|     159 | 0x49BE      |       18878 |
|     160 | 0x3231      |       12849 |
|     161 | 0xFFFF9977  |  4294941047 |
|     162 | 0x05A2      |        1442 |
|     163 | 0x30B3      |       12467 |
|     164 | 0x3CCB      |       15563 |
|     165 | 0x301D      |       12317 |
|     166 | 0x3C5C      |       15452 |
|     167 | 0xFFFF6124  |  4294926628 |
|     168 | 0x36661     |      222817 |
|     169 | 0xFFFFEC72  |  4294962290 |
|     170 | 0xFFFF62D6  |  4294927062 |
|     171 | 0x34F96     |      216982 |
|     172 | 0xFFFFEC75  |  4294962293 |
|     173 | 0xFFFF54FC  |  4294923516 |
|     174 | 0x30170     |      196976 |
|     175 | 0xFFFFEA97  |  4294961815 |
|     176 | 0x7645      |       30277 |
|     177 | 0xFFFFF525  |  4294964517 |
|     178 | 0x0A49      |        2633 |
|     179 | 0xFFFFE7E7  |  4294961127 |
|     180 | 0x063C      |        1596 |
|     181 | 0x0DB1      |        3505 |
|     182 | 0xFFFF6501  |  4294927617 |
|     183 | 0x15C11     |       89105 |
|     184 | 0xFFFFA504  |  4294944004 |
|     185 | 0x16E78     |       93816 |
|     186 | 0xFFFFD603  |  4294956547 |
|     187 | 0x0014      |          20 |
|     188 | 0x9A09      |       39433 |
|     189 | 0xBF78      |       49016 |
|     190 | 0xFFFFF830  |  4294965296 |
|     191 | 0x000C      |          12 |
|     192 | 0xFFFFA543  |  4294944067 |
|     193 | 0x16916     |       92438 |

## Events

### Event 65535

#### Metadata

| Field        | Value   |
|--------------|---------|
| Entrypoint   | 0x0000  |
| Data Size    | 1 bytes |
| Instructions | 1       |

```
      00 01 02 03 04 05 06 07  08 09 0A 0B 0C 0D 0E 0F
      -- -- -- -- -- -- -- --  -- -- -- -- -- -- -- --
0000: 00                                                .               
```

#### Opcodes

```
  0: 0x0000 [0x00] END_REQSTACK()
```

### Event 65535.1

#### Metadata

| Field        | Value   |
|--------------|---------|
| Entrypoint   | 0x0001  |
| Data Size    | 1 bytes |
| Instructions | 1       |

```
      00 01 02 03 04 05 06 07  08 09 0A 0B 0C 0D 0E 0F
      -- -- -- -- -- -- -- --  -- -- -- -- -- -- -- --
0000:    00                                              .              
```

#### Opcodes

```
  0: 0x0001 [0x00] END_REQSTACK()
```

### Event 65535.2

#### Metadata

| Field        | Value    |
|--------------|----------|
| Entrypoint   | 0x0002   |
| Data Size    | 18 bytes |
| Instructions | 4        |

```
      00 01 02 03 04 05 06 07  08 09 0A 0B 0C 0D 0E 0F
      -- -- -- -- -- -- -- --  -- -- -- -- -- -- -- --
0000:       22 00 2F 00 F8 FF  FF 7F 6C F8 FF FF 7F 00    "./.....l.....
0010: 80 01 80 00                                       ....            
```

#### Opcodes

```
  0: 0x0002 [0x22] ENTITY_HIDE_FLAG(enabled=0x00)
  1: 0x0004 [0x2F] EventEntity->Render.Flags0 &= ~0x80000 // Bit 19
  2: 0x000A [0x6C] FADE_ENTITY_COLOR(entity_id=EventEntity, end_alpha=0*, fade_time=1*)
  3: 0x0013 [0x00] END_REQSTACK()
```

### Event 65535.3

#### Metadata

| Field        | Value    |
|--------------|----------|
| Entrypoint   | 0x0014   |
| Data Size    | 10 bytes |
| Instructions | 2        |

```
      00 01 02 03 04 05 06 07  08 09 0A 0B 0C 0D 0E 0F
      -- -- -- -- -- -- -- --  -- -- -- -- -- -- -- --
0010:             6C F8 FF FF  7F 02 80 01 80 00            l.........  
```

#### Opcodes

```
  0: 0x0014 [0x6C] FADE_ENTITY_COLOR(entity_id=EventEntity, end_alpha=128*, fade_time=1*)
  1: 0x001D [0x00] END_REQSTACK()
```

### Event 65535.4

#### Metadata

| Field        | Value   |
|--------------|---------|
| Entrypoint   | 0x001E  |
| Data Size    | 9 bytes |
| Instructions | 3       |

```
      00 01 02 03 04 05 06 07  08 09 0A 0B 0C 0D 0E 0F
      -- -- -- -- -- -- -- --  -- -- -- -- -- -- -- --
0010:                                            22 00                ".
0020: 2F 00 F8 FF FF 7F 00                              /......         
```

#### Opcodes

```
  0: 0x001E [0x22] ENTITY_HIDE_FLAG(enabled=0x00)
  1: 0x0020 [0x2F] EventEntity->Render.Flags0 &= ~0x80000 // Bit 19
  2: 0x0026 [0x00] END_REQSTACK()
```

### Event 65535.5

#### Metadata

| Field        | Value   |
|--------------|---------|
| Entrypoint   | 0x0027  |
| Data Size    | 9 bytes |
| Instructions | 3       |

```
      00 01 02 03 04 05 06 07  08 09 0A 0B 0C 0D 0E 0F
      -- -- -- -- -- -- -- --  -- -- -- -- -- -- -- --
0020:                      22  01 2F 01 F8 FF FF 7F 00         "./......
```

#### Opcodes

```
  0: 0x0027 [0x22] ENTITY_HIDE_FLAG(enabled=0x01)
  1: 0x0029 [0x2F] EventEntity->Render.Flags0 |= 0x80000 // Bit 19
  2: 0x002F [0x00] END_REQSTACK()
```

### Event 65535.6

#### Metadata

| Field        | Value    |
|--------------|----------|
| Entrypoint   | 0x0030   |
| Data Size    | 10 bytes |
| Instructions | 2        |

```
      00 01 02 03 04 05 06 07  08 09 0A 0B 0C 0D 0E 0F
      -- -- -- -- -- -- -- --  -- -- -- -- -- -- -- --
0030: 6C F8 FF FF 7F 00 80 01  80 00                    l.........      
```

#### Opcodes

```
  0: 0x0030 [0x6C] FADE_ENTITY_COLOR(entity_id=EventEntity, end_alpha=0*, fade_time=1*)
  1: 0x0039 [0x00] END_REQSTACK()
```

### Event 65535.7

#### Metadata

| Field        | Value    |
|--------------|----------|
| Entrypoint   | 0x003A   |
| Data Size    | 10 bytes |
| Instructions | 2        |

```
      00 01 02 03 04 05 06 07  08 09 0A 0B 0C 0D 0E 0F
      -- -- -- -- -- -- -- --  -- -- -- -- -- -- -- --
0030:                                6C F8 FF FF 7F 02            l.....
0040: 80 01 80 00                                       ....            
```

#### Opcodes

```
  0: 0x003A [0x6C] FADE_ENTITY_COLOR(entity_id=EventEntity, end_alpha=128*, fade_time=1*)
  1: 0x0043 [0x00] END_REQSTACK()
```

### Event 232

#### Metadata

| Field        | Value   |
|--------------|---------|
| Entrypoint   | 0x0044  |
| Data Size    | 1 bytes |
| Instructions | 1       |

```
      00 01 02 03 04 05 06 07  08 09 0A 0B 0C 0D 0E 0F
      -- -- -- -- -- -- -- --  -- -- -- -- -- -- -- --
0040:             00                                        .           
```

#### Opcodes

```
  0: 0x0044 [0x00] END_REQSTACK()
```

### Event 233

#### Metadata

| Field        | Value   |
|--------------|---------|
| Entrypoint   | 0x0045  |
| Data Size    | 1 bytes |
| Instructions | 1       |

```
      00 01 02 03 04 05 06 07  08 09 0A 0B 0C 0D 0E 0F
      -- -- -- -- -- -- -- --  -- -- -- -- -- -- -- --
0040:                00                                      .          
```

#### Opcodes

```
  0: 0x0045 [0x00] END_REQSTACK()
```

### Event 178

#### Metadata

| Field        | Value   |
|--------------|---------|
| Entrypoint   | 0x0046  |
| Data Size    | 1 bytes |
| Instructions | 1       |

```
      00 01 02 03 04 05 06 07  08 09 0A 0B 0C 0D 0E 0F
      -- -- -- -- -- -- -- --  -- -- -- -- -- -- -- --
0040:                   00                                    .         
```

#### Opcodes

```
  0: 0x0046 [0x00] END_REQSTACK()
```

### Event 179

#### Metadata

| Field        | Value   |
|--------------|---------|
| Entrypoint   | 0x0047  |
| Data Size    | 1 bytes |
| Instructions | 1       |

```
      00 01 02 03 04 05 06 07  08 09 0A 0B 0C 0D 0E 0F
      -- -- -- -- -- -- -- --  -- -- -- -- -- -- -- --
0040:                      00                                  .        
```

#### Opcodes

```
  0: 0x0047 [0x00] END_REQSTACK()
```

### Event 65535.8

#### Metadata

| Field        | Value    |
|--------------|----------|
| Entrypoint   | 0x0048   |
| Data Size    | 15 bytes |
| Instructions | 5        |

```
      00 01 02 03 04 05 06 07  08 09 0A 0B 0C 0D 0E 0F
      -- -- -- -- -- -- -- --  -- -- -- -- -- -- -- --
0040:                          32 03 80 1F 00 04 80 05          2.......
0050: 80 06 80 1F 01 6F 00                              .....o.         
```

#### Opcodes

```
  0: 0x0048 [0x32] ExtData[1]->MainSpeed = 13* * 0.1
  1: 0x004B [0x1F] MOVE_ENTITY: EventEntity moves to X=-56.273*, Z=85.990*, Y=-4.999*
  2: 0x0053 [0x1F] MOVE_ENTITY: Update entity position (mode=1)
  3: 0x0055 [0x6F] WAIT_FRAME_DELAY: Yield until WaitTime reaches zero
  4: 0x0056 [0x00] END_REQSTACK()
```

### Event 65535.9

#### Metadata

| Field        | Value    |
|--------------|----------|
| Entrypoint   | 0x0057   |
| Data Size    | 20 bytes |
| Instructions | 6        |

```
      00 01 02 03 04 05 06 07  08 09 0A 0B 0C 0D 0E 0F
      -- -- -- -- -- -- -- --  -- -- -- -- -- -- -- --
0050:                      32  03 80 1F 00 07 80 08 80         2........
0060: 06 80 1F 01 6F 1E F0 FF  FF 7F 00                 ....o......     
```

#### Opcodes

```
  0: 0x0057 [0x32] ExtData[1]->MainSpeed = 13* * 0.1
  1: 0x005A [0x1F] MOVE_ENTITY: EventEntity moves to X=-73.710*, Z=86.553*, Y=-4.999*
  2: 0x0062 [0x1F] MOVE_ENTITY: Update entity position (mode=1)
  3: 0x0064 [0x6F] WAIT_FRAME_DELAY: Yield until WaitTime reaches zero
  4: 0x0065 [0x1E] EventEntity looks at LocalPlayer and starts talking
  5: 0x006A [0x00] END_REQSTACK()
```

### Event 65535.10

#### Metadata

| Field        | Value   |
|--------------|---------|
| Entrypoint   | 0x006B  |
| Data Size    | 3 bytes |
| Instructions | 2       |

```
      00 01 02 03 04 05 06 07  08 09 0A 0B 0C 0D 0E 0F
      -- -- -- -- -- -- -- --  -- -- -- -- -- -- -- --
0060:                                   A4 01 00                   ...  
```

#### Opcodes

```
  0: 0x006B [0xA4] EventEntity->Flags3.unknown_3_2 = 1
  1: 0x006D [0x00] END_REQSTACK()
```

### Event 65535.11

#### Metadata

| Field        | Value   |
|--------------|---------|
| Entrypoint   | 0x006E  |
| Data Size    | 3 bytes |
| Instructions | 2       |

```
      00 01 02 03 04 05 06 07  08 09 0A 0B 0C 0D 0E 0F
      -- -- -- -- -- -- -- --  -- -- -- -- -- -- -- --
0060:                                            A4 00                ..
0070: 00                                                .               
```

#### Opcodes

```
  0: 0x006E [0xA4] EventEntity->Flags3.unknown_3_2 = 0
  1: 0x0070 [0x00] END_REQSTACK()
```

### Event 158

#### Metadata

| Field        | Value   |
|--------------|---------|
| Entrypoint   | 0x0071  |
| Data Size    | 1 bytes |
| Instructions | 1       |

```
      00 01 02 03 04 05 06 07  08 09 0A 0B 0C 0D 0E 0F
      -- -- -- -- -- -- -- --  -- -- -- -- -- -- -- --
0070:    00                                              .              
```

#### Opcodes

```
  0: 0x0071 [0x00] END_REQSTACK()
```

### Event 165

#### Metadata

| Field        | Value   |
|--------------|---------|
| Entrypoint   | 0x0072  |
| Data Size    | 1 bytes |
| Instructions | 1       |

```
      00 01 02 03 04 05 06 07  08 09 0A 0B 0C 0D 0E 0F
      -- -- -- -- -- -- -- --  -- -- -- -- -- -- -- --
0070:       00                                            .             
```

#### Opcodes

```
  0: 0x0072 [0x00] END_REQSTACK()
```

### Event 168

#### Metadata

| Field        | Value   |
|--------------|---------|
| Entrypoint   | 0x0073  |
| Data Size    | 1 bytes |
| Instructions | 1       |

```
      00 01 02 03 04 05 06 07  08 09 0A 0B 0C 0D 0E 0F
      -- -- -- -- -- -- -- --  -- -- -- -- -- -- -- --
0070:          00                                          .            
```

#### Opcodes

```
  0: 0x0073 [0x00] END_REQSTACK()
```

### Event 65535.12

#### Metadata

| Field        | Value    |
|--------------|----------|
| Entrypoint   | 0x0074   |
| Data Size    | 35 bytes |
| Instructions | 9        |

```
      00 01 02 03 04 05 06 07  08 09 0A 0B 0C 0D 0E 0F
      -- -- -- -- -- -- -- --  -- -- -- -- -- -- -- --
0070:             32 09 80 1F  00 0A 80 0B 80 0C 80 1F      2...........
0080: 01 1F 00 0D 80 0E 80 0F  80 1F 01 1F 00 10 80 11  ................
0090: 80 12 80 1F 01 6F 00                              .....o.         
```

#### Opcodes

```
  0: 0x0074 [0x32] ExtData[1]->MainSpeed = 40* * 0.1
  1: 0x0077 [0x1F] MOVE_ENTITY: EventEntity moves to X=-23.265*, Z=38.368*, Y=-3.500*
  2: 0x007F [0x1F] MOVE_ENTITY: Update entity position (mode=1)
  3: 0x0081 [0x1F] MOVE_ENTITY: EventEntity moves to X=-19.348*, Z=38.731*, Y=-2.250*
  4: 0x0089 [0x1F] MOVE_ENTITY: Update entity position (mode=1)
  5: 0x008B [0x1F] MOVE_ENTITY: EventEntity moves to X=-5.264*, Z=37.400*, Y=-1.000*
  6: 0x0093 [0x1F] MOVE_ENTITY: Update entity position (mode=1)
  7: 0x0095 [0x6F] WAIT_FRAME_DELAY: Yield until WaitTime reaches zero
  8: 0x0096 [0x00] END_REQSTACK()
```

### Event 65535.13

#### Metadata

| Field        | Value    |
|--------------|----------|
| Entrypoint   | 0x0097   |
| Data Size    | 24 bytes |
| Instructions | 6        |

```
      00 01 02 03 04 05 06 07  08 09 0A 0B 0C 0D 0E 0F
      -- -- -- -- -- -- -- --  -- -- -- -- -- -- -- --
0090:                      37  13 80 14 80 12 80 15 80         7........
00A0: 32 09 80 1F 00 16 80 17  80 12 80 1F 01 6F 00     2............o. 
```

#### Opcodes

```
  0: 0x0097 [0x37] UPDATE_EVENT_POSITION_AND_DIR: x=-4.551*, z=42.753*, y=-1.000*, direction=265.9°*
  1: 0x00A0 [0x32] ExtData[1]->MainSpeed = 40* * 0.1
  2: 0x00A3 [0x1F] MOVE_ENTITY: EventEntity moves to X=-1.539*, Z=60.367*, Y=-1.000*
  3: 0x00AB [0x1F] MOVE_ENTITY: Update entity position (mode=1)
  4: 0x00AD [0x6F] WAIT_FRAME_DELAY: Yield until WaitTime reaches zero
  5: 0x00AE [0x00] END_REQSTACK()
```

### Event 65535.14

#### Metadata

| Field        | Value    |
|--------------|----------|
| Entrypoint   | 0x00AF   |
| Data Size    | 15 bytes |
| Instructions | 5        |

```
      00 01 02 03 04 05 06 07  08 09 0A 0B 0C 0D 0E 0F
      -- -- -- -- -- -- -- --  -- -- -- -- -- -- -- --
00A0:                                               32                 2
00B0: 03 80 1F 00 18 80 19 80  06 80 1F 01 6F 00        ............o.  
```

#### Opcodes

```
  0: 0x00AF [0x32] ExtData[1]->MainSpeed = 13* * 0.1
  1: 0x00B2 [0x1F] MOVE_ENTITY: EventEntity moves to X=-40.363*, Z=218.672*, Y=-4.999*
  2: 0x00BA [0x1F] MOVE_ENTITY: Update entity position (mode=1)
  3: 0x00BC [0x6F] WAIT_FRAME_DELAY: Yield until WaitTime reaches zero
  4: 0x00BD [0x00] END_REQSTACK()
```

### Event 65535.15

#### Metadata

| Field        | Value    |
|--------------|----------|
| Entrypoint   | 0x00BE   |
| Data Size    | 15 bytes |
| Instructions | 5        |

```
      00 01 02 03 04 05 06 07  08 09 0A 0B 0C 0D 0E 0F
      -- -- -- -- -- -- -- --  -- -- -- -- -- -- -- --
00B0:                                            32 03                2.
00C0: 80 1F 00 1A 80 1B 80 1C  80 1F 01 6F 00           ...........o.   
```

#### Opcodes

```
  0: 0x00BE [0x32] ExtData[1]->MainSpeed = 13* * 0.1
  1: 0x00C1 [0x1F] MOVE_ENTITY: EventEntity moves to X=-40.208*, Z=210.044*, Y=-5.052*
  2: 0x00C9 [0x1F] MOVE_ENTITY: Update entity position (mode=1)
  3: 0x00CB [0x6F] WAIT_FRAME_DELAY: Yield until WaitTime reaches zero
  4: 0x00CC [0x00] END_REQSTACK()
```

### Event 65535.16

#### Metadata

| Field        | Value    |
|--------------|----------|
| Entrypoint   | 0x00CD   |
| Data Size    | 24 bytes |
| Instructions | 6        |

```
      00 01 02 03 04 05 06 07  08 09 0A 0B 0C 0D 0E 0F
      -- -- -- -- -- -- -- --  -- -- -- -- -- -- -- --
00C0:                                         37 1D 80               7..
00D0: 1E 80 12 80 15 80 32 09  80 1F 00 1F 80 20 80 21  ......2...... .!
00E0: 80 1F 01 6F 00                                    ...o.           
```

#### Opcodes

```
  0: 0x00CD [0x37] UPDATE_EVENT_POSITION_AND_DIR: x=-2.613*, z=45.473*, y=-1.000*, direction=265.9°*
  1: 0x00D6 [0x32] ExtData[1]->MainSpeed = 40* * 0.1
  2: 0x00D9 [0x1F] MOVE_ENTITY: EventEntity moves to X=-3.280*, Z=80.529*, Y=-3.749*
  3: 0x00E1 [0x1F] MOVE_ENTITY: Update entity position (mode=1)
  4: 0x00E3 [0x6F] WAIT_FRAME_DELAY: Yield until WaitTime reaches zero
  5: 0x00E4 [0x00] END_REQSTACK()
```

### Event 182

#### Metadata

| Field        | Value   |
|--------------|---------|
| Entrypoint   | 0x00E5  |
| Data Size    | 1 bytes |
| Instructions | 1       |

```
      00 01 02 03 04 05 06 07  08 09 0A 0B 0C 0D 0E 0F
      -- -- -- -- -- -- -- --  -- -- -- -- -- -- -- --
00E0:                00                                      .          
```

#### Opcodes

```
  0: 0x00E5 [0x00] END_REQSTACK()
```

### Event 65535.17

#### Metadata

| Field        | Value    |
|--------------|----------|
| Entrypoint   | 0x00E6   |
| Data Size    | 19 bytes |
| Instructions | 5        |

```
      00 01 02 03 04 05 06 07  08 09 0A 0B 0C 0D 0E 0F
      -- -- -- -- -- -- -- --  -- -- -- -- -- -- -- --
00E0:                   1F 00  22 80 23 80 24 80 1F 01        ..".#.$...
00F0: 6F 4B 36 E2 05 01 25 80  00                       oK6...%..       
```

#### Opcodes

```
  0: 0x00E6 [0x1F] MOVE_ENTITY: EventEntity moves to X=-15.183*, Z=-1.027*, Y=-26.000*
  1: 0x00EE [0x1F] MOVE_ENTITY: Update entity position (mode=1)
  2: 0x00F0 [0x6F] WAIT_FRAME_DELAY: Yield until WaitTime reaches zero
  3: 0x00F1 [0x4B] UPDATE_ENTITY_YAW(entity=Lehko Habhoka (ID: 17162806/0x0105E236), yaw=0.0°*)
  4: 0x00F8 [0x00] END_REQSTACK()
```

### Event 184

#### Metadata

| Field        | Value   |
|--------------|---------|
| Entrypoint   | 0x00F9  |
| Data Size    | 1 bytes |
| Instructions | 1       |

```
      00 01 02 03 04 05 06 07  08 09 0A 0B 0C 0D 0E 0F
      -- -- -- -- -- -- -- --  -- -- -- -- -- -- -- --
00F0:                             00                             .      
```

#### Opcodes

```
  0: 0x00F9 [0x00] END_REQSTACK()
```

### Event 234

#### Metadata

| Field        | Value   |
|--------------|---------|
| Entrypoint   | 0x00FA  |
| Data Size    | 1 bytes |
| Instructions | 1       |

```
      00 01 02 03 04 05 06 07  08 09 0A 0B 0C 0D 0E 0F
      -- -- -- -- -- -- -- --  -- -- -- -- -- -- -- --
00F0:                                00                           .     
```

#### Opcodes

```
  0: 0x00FA [0x00] END_REQSTACK()
```

### Event 235

#### Metadata

| Field        | Value   |
|--------------|---------|
| Entrypoint   | 0x00FB  |
| Data Size    | 1 bytes |
| Instructions | 1       |

```
      00 01 02 03 04 05 06 07  08 09 0A 0B 0C 0D 0E 0F
      -- -- -- -- -- -- -- --  -- -- -- -- -- -- -- --
00F0:                                   00                         .    
```

#### Opcodes

```
  0: 0x00FB [0x00] END_REQSTACK()
```

### Event 187

#### Metadata

| Field        | Value   |
|--------------|---------|
| Entrypoint   | 0x00FC  |
| Data Size    | 1 bytes |
| Instructions | 1       |

```
      00 01 02 03 04 05 06 07  08 09 0A 0B 0C 0D 0E 0F
      -- -- -- -- -- -- -- --  -- -- -- -- -- -- -- --
00F0:                                      00                       .   
```

#### Opcodes

```
  0: 0x00FC [0x00] END_REQSTACK()
```

### Event 65535.18

#### Metadata

| Field        | Value    |
|--------------|----------|
| Entrypoint   | 0x00FD   |
| Data Size    | 12 bytes |
| Instructions | 4        |

```
      00 01 02 03 04 05 06 07  08 09 0A 0B 0C 0D 0E 0F
      -- -- -- -- -- -- -- --  -- -- -- -- -- -- -- --
00F0:                                         1F 00 26               ..&
0100: 80 27 80 28 80 1F 01 6F  00                       .'.(...o.       
```

#### Opcodes

```
  0: 0x00FD [0x1F] MOVE_ENTITY: EventEntity moves to X=-41.553*, Z=225.005*, Y=-4.904*
  1: 0x0105 [0x1F] MOVE_ENTITY: Update entity position (mode=1)
  2: 0x0107 [0x6F] WAIT_FRAME_DELAY: Yield until WaitTime reaches zero
  3: 0x0108 [0x00] END_REQSTACK()
```

### Event 65535.19

#### Metadata

| Field        | Value    |
|--------------|----------|
| Entrypoint   | 0x0109   |
| Data Size    | 11 bytes |
| Instructions | 3        |

```
      00 01 02 03 04 05 06 07  08 09 0A 0B 0C 0D 0E 0F
      -- -- -- -- -- -- -- --  -- -- -- -- -- -- -- --
0100:                             1F 00 29 80 2A 80 2B           ..).*.+
0110: 80 1F 01 00                                       ....            
```

#### Opcodes

```
  0: 0x0109 [0x1F] MOVE_ENTITY: EventEntity moves to X=-41.035*, Z=199.822*, Y=-5.323*
  1: 0x0111 [0x1F] MOVE_ENTITY: Update entity position (mode=1)
  2: 0x0113 [0x00] END_REQSTACK()
```

### Event 65535.20

#### Metadata

| Field        | Value    |
|--------------|----------|
| Entrypoint   | 0x0114   |
| Data Size    | 11 bytes |
| Instructions | 3        |

```
      00 01 02 03 04 05 06 07  08 09 0A 0B 0C 0D 0E 0F
      -- -- -- -- -- -- -- --  -- -- -- -- -- -- -- --
0110:             1F 00 2C 80  2D 80 2E 80 1F 01 00         ..,.-...... 
```

#### Opcodes

```
  0: 0x0114 [0x1F] MOVE_ENTITY: EventEntity moves to X=0.177*, Z=11.768*, Y=-46.999*
  1: 0x011C [0x1F] MOVE_ENTITY: Update entity position (mode=1)
  2: 0x011E [0x00] END_REQSTACK()
```

### Event 65535.21

#### Metadata

| Field        | Value    |
|--------------|----------|
| Entrypoint   | 0x011F   |
| Data Size    | 21 bytes |
| Instructions | 5        |

```
      00 01 02 03 04 05 06 07  08 09 0A 0B 0C 0D 0E 0F
      -- -- -- -- -- -- -- --  -- -- -- -- -- -- -- --
0110:                                               1F                 .
0120: 00 2F 80 30 80 31 80 1F  01 6F 4A 36 E2 05 01 31  ./.0.1...oJ6...1
0130: E2 05 01 00                                       ....            
```

#### Opcodes

```
  0: 0x011F [0x1F] MOVE_ENTITY: EventEntity moves to X=-0.954*, Z=33.109*, Y=-48.999*
  1: 0x0127 [0x1F] MOVE_ENTITY: Update entity position (mode=1)
  2: 0x0129 [0x6F] WAIT_FRAME_DELAY: Yield until WaitTime reaches zero
  3: 0x012A [0x4A] Lehko Habhoka (ID: 17162806/0x0105E236) looks at Zubaba (ID: 17162801/0x0105E231)
  4: 0x0133 [0x00] END_REQSTACK()
```

### Event 65535.22

#### Metadata

| Field        | Value    |
|--------------|----------|
| Entrypoint   | 0x0134   |
| Data Size    | 11 bytes |
| Instructions | 3        |

```
      00 01 02 03 04 05 06 07  08 09 0A 0B 0C 0D 0E 0F
      -- -- -- -- -- -- -- --  -- -- -- -- -- -- -- --
0130:             1F 00 32 80  33 80 34 80 1F 01 00         ..2.3.4.... 
```

#### Opcodes

```
  0: 0x0134 [0x1F] MOVE_ENTITY: EventEntity moves to X=0.191*, Z=63.227*, Y=-60.524*
  1: 0x013C [0x1F] MOVE_ENTITY: Update entity position (mode=1)
  2: 0x013E [0x00] END_REQSTACK()
```

### Event 65535.23

#### Metadata

| Field        | Value    |
|--------------|----------|
| Entrypoint   | 0x013F   |
| Data Size    | 21 bytes |
| Instructions | 5        |

```
      00 01 02 03 04 05 06 07  08 09 0A 0B 0C 0D 0E 0F
      -- -- -- -- -- -- -- --  -- -- -- -- -- -- -- --
0130:                                               1F                 .
0140: 00 35 80 36 80 37 80 1F  01 6F 4A 36 E2 05 01 1A  .5.6.7...oJ6....
0150: E2 05 01 00                                       ....            
```

#### Opcodes

```
  0: 0x013F [0x1F] MOVE_ENTITY: EventEntity moves to X=1.029*, Z=48.195*, Y=-61.021*
  1: 0x0147 [0x1F] MOVE_ENTITY: Update entity position (mode=1)
  2: 0x0149 [0x6F] WAIT_FRAME_DELAY: Yield until WaitTime reaches zero
  3: 0x014A [0x4A] Lehko Habhoka (ID: 17162806/0x0105E236) looks at Star Sibyl (ID: 17162778/0x0105E21A)
  4: 0x0153 [0x00] END_REQSTACK()
```

### Event 65535.24

#### Metadata

| Field        | Value    |
|--------------|----------|
| Entrypoint   | 0x0154   |
| Data Size    | 21 bytes |
| Instructions | 5        |

```
      00 01 02 03 04 05 06 07  08 09 0A 0B 0C 0D 0E 0F
      -- -- -- -- -- -- -- --  -- -- -- -- -- -- -- --
0150:             1F 00 38 80  39 80 3A 80 1F 01 6F 4A      ..8.9.:...oJ
0160: 36 E2 05 01 9F E2 05 01  00                       6........       
```

#### Opcodes

```
  0: 0x0154 [0x1F] MOVE_ENTITY: EventEntity moves to X=9.121*, Z=69.458*, Y=-61.500*
  1: 0x015C [0x1F] MOVE_ENTITY: Update entity position (mode=1)
  2: 0x015E [0x6F] WAIT_FRAME_DELAY: Yield until WaitTime reaches zero
  3: 0x015F [0x4A] Lehko Habhoka (ID: 17162806/0x0105E236) looks at Door_3 (ID: 17162911/0x0105E29F)
  4: 0x0168 [0x00] END_REQSTACK()
```

### Event 65535.25

#### Metadata

| Field        | Value    |
|--------------|----------|
| Entrypoint   | 0x0169   |
| Data Size    | 11 bytes |
| Instructions | 3        |

```
      00 01 02 03 04 05 06 07  08 09 0A 0B 0C 0D 0E 0F
      -- -- -- -- -- -- -- --  -- -- -- -- -- -- -- --
0160:                             1F 00 3B 80 3C 80 3D           ..;.<.=
0170: 80 1F 01 00                                       ....            
```

#### Opcodes

```
  0: 0x0169 [0x1F] MOVE_ENTITY: EventEntity moves to X=14.786*, Z=68.695*, Y=-61.499*
  1: 0x0171 [0x1F] MOVE_ENTITY: Update entity position (mode=1)
  2: 0x0173 [0x00] END_REQSTACK()
```

### Event 65535.26

#### Metadata

| Field        | Value    |
|--------------|----------|
| Entrypoint   | 0x0174   |
| Data Size    | 14 bytes |
| Instructions | 5        |

```
      00 01 02 03 04 05 06 07  08 09 0A 0B 0C 0D 0E 0F
      -- -- -- -- -- -- -- --  -- -- -- -- -- -- -- --
0170:             33 01 1F 00  3E 80 3F 80 3A 80 1F 01      3...>.?.:...
0180: 6F 00                                             o.              
```

#### Opcodes

```
  0: 0x0174 [0x33] EventEntity->Render.Flags0 |= 0x200000 // Bit 21 (flag=0x01)
  1: 0x0176 [0x1F] MOVE_ENTITY: EventEntity moves to X=27.820*, Z=68.740*, Y=-61.500*
  2: 0x017E [0x1F] MOVE_ENTITY: Update entity position (mode=1)
  3: 0x0180 [0x6F] WAIT_FRAME_DELAY: Yield until WaitTime reaches zero
  4: 0x0181 [0x00] END_REQSTACK()
```

### Event 65535.27

#### Metadata

| Field        | Value    |
|--------------|----------|
| Entrypoint   | 0x0182   |
| Data Size    | 11 bytes |
| Instructions | 3        |

```
      00 01 02 03 04 05 06 07  08 09 0A 0B 0C 0D 0E 0F
      -- -- -- -- -- -- -- --  -- -- -- -- -- -- -- --
0180:       1F 00 40 80 41 80  42 80 1F 01 00             ..@.A.B....   
```

#### Opcodes

```
  0: 0x0182 [0x1F] MOVE_ENTITY: EventEntity moves to X=179.996*, Z=18.377*, Y=8.500*
  1: 0x018A [0x1F] MOVE_ENTITY: Update entity position (mode=1)
  2: 0x018C [0x00] END_REQSTACK()
```

### Event 65535.28

#### Metadata

| Field        | Value    |
|--------------|----------|
| Entrypoint   | 0x018D   |
| Data Size    | 21 bytes |
| Instructions | 5        |

```
      00 01 02 03 04 05 06 07  08 09 0A 0B 0C 0D 0E 0F
      -- -- -- -- -- -- -- --  -- -- -- -- -- -- -- --
0180:                                         1F 00 43               ..C
0190: 80 44 80 45 80 1F 01 6F  4A 36 E2 05 01 1A E2 05  .D.E...oJ6......
01A0: 01 00                                             ..              
```

#### Opcodes

```
  0: 0x018D [0x1F] MOVE_ENTITY: EventEntity moves to X=181.084*, Z=-14.971*, Y=9.999*
  1: 0x0195 [0x1F] MOVE_ENTITY: Update entity position (mode=1)
  2: 0x0197 [0x6F] WAIT_FRAME_DELAY: Yield until WaitTime reaches zero
  3: 0x0198 [0x4A] Lehko Habhoka (ID: 17162806/0x0105E236) looks at Star Sibyl (ID: 17162778/0x0105E21A)
  4: 0x01A1 [0x00] END_REQSTACK()
```

### Event 65535.29

#### Metadata

| Field        | Value    |
|--------------|----------|
| Entrypoint   | 0x01A2   |
| Data Size    | 11 bytes |
| Instructions | 3        |

```
      00 01 02 03 04 05 06 07  08 09 0A 0B 0C 0D 0E 0F
      -- -- -- -- -- -- -- --  -- -- -- -- -- -- -- --
01A0:       1F 00 46 80 47 80  45 80 1F 01 00             ..F.G.E....   
```

#### Opcodes

```
  0: 0x01A2 [0x1F] MOVE_ENTITY: EventEntity moves to X=163.687*, Z=-17.996*, Y=9.999*
  1: 0x01AA [0x1F] MOVE_ENTITY: Update entity position (mode=1)
  2: 0x01AC [0x00] END_REQSTACK()
```

### Event 65535.30

#### Metadata

| Field        | Value    |
|--------------|----------|
| Entrypoint   | 0x01AD   |
| Data Size    | 11 bytes |
| Instructions | 3        |

```
      00 01 02 03 04 05 06 07  08 09 0A 0B 0C 0D 0E 0F
      -- -- -- -- -- -- -- --  -- -- -- -- -- -- -- --
01A0:                                         1F 00 48               ..H
01B0: 80 49 80 45 80 1F 01 00                           .I.E....        
```

#### Opcodes

```
  0: 0x01AD [0x1F] MOVE_ENTITY: EventEntity moves to X=153.226*, Z=-18.242*, Y=9.999*
  1: 0x01B5 [0x1F] MOVE_ENTITY: Update entity position (mode=1)
  2: 0x01B7 [0x00] END_REQSTACK()
```

### Event 65535.31

#### Metadata

| Field        | Value    |
|--------------|----------|
| Entrypoint   | 0x01B8   |
| Data Size    | 11 bytes |
| Instructions | 3        |

```
      00 01 02 03 04 05 06 07  08 09 0A 0B 0C 0D 0E 0F
      -- -- -- -- -- -- -- --  -- -- -- -- -- -- -- --
01B0:                          1F 00 4A 80 4B 80 45 80          ..J.K.E.
01C0: 1F 01 00                                          ...             
```

#### Opcodes

```
  0: 0x01B8 [0x1F] MOVE_ENTITY: EventEntity moves to X=147.735*, Z=-17.447*, Y=9.999*
  1: 0x01C0 [0x1F] MOVE_ENTITY: Update entity position (mode=1)
  2: 0x01C2 [0x00] END_REQSTACK()
```

### Event 65535.32

#### Metadata

| Field        | Value    |
|--------------|----------|
| Entrypoint   | 0x01C3   |
| Data Size    | 11 bytes |
| Instructions | 3        |

```
      00 01 02 03 04 05 06 07  08 09 0A 0B 0C 0D 0E 0F
      -- -- -- -- -- -- -- --  -- -- -- -- -- -- -- --
01C0:          1F 00 4C 80 4D  80 4E 80 1F 01 00           ..L.M.N....  
```

#### Opcodes

```
  0: 0x01C3 [0x1F] MOVE_ENTITY: EventEntity moves to X=142.988*, Z=-17.650*, Y=12.999*
  1: 0x01CB [0x1F] MOVE_ENTITY: Update entity position (mode=1)
  2: 0x01CD [0x00] END_REQSTACK()
```

### Event 65535.33

#### Metadata

| Field        | Value    |
|--------------|----------|
| Entrypoint   | 0x01CE   |
| Data Size    | 11 bytes |
| Instructions | 3        |

```
      00 01 02 03 04 05 06 07  08 09 0A 0B 0C 0D 0E 0F
      -- -- -- -- -- -- -- --  -- -- -- -- -- -- -- --
01C0:                                            1F 00                ..
01D0: 4F 80 50 80 4E 80 1F 01  00                       O.P.N....       
```

#### Opcodes

```
  0: 0x01CE [0x1F] MOVE_ENTITY: EventEntity moves to X=142.714*, Z=-23.414*, Y=12.999*
  1: 0x01D6 [0x1F] MOVE_ENTITY: Update entity position (mode=1)
  2: 0x01D8 [0x00] END_REQSTACK()
```

### Event 185

#### Metadata

| Field        | Value   |
|--------------|---------|
| Entrypoint   | 0x01D9  |
| Data Size    | 1 bytes |
| Instructions | 1       |

```
      00 01 02 03 04 05 06 07  08 09 0A 0B 0C 0D 0E 0F
      -- -- -- -- -- -- -- --  -- -- -- -- -- -- -- --
01D0:                             00                             .      
```

#### Opcodes

```
  0: 0x01D9 [0x00] END_REQSTACK()
```

### Event 186

#### Metadata

| Field        | Value   |
|--------------|---------|
| Entrypoint   | 0x01DA  |
| Data Size    | 1 bytes |
| Instructions | 1       |

```
      00 01 02 03 04 05 06 07  08 09 0A 0B 0C 0D 0E 0F
      -- -- -- -- -- -- -- --  -- -- -- -- -- -- -- --
01D0:                                00                           .     
```

#### Opcodes

```
  0: 0x01DA [0x00] END_REQSTACK()
```

### Event 65535.34

#### Metadata

| Field        | Value    |
|--------------|----------|
| Entrypoint   | 0x01DB   |
| Data Size    | 11 bytes |
| Instructions | 3        |

```
      00 01 02 03 04 05 06 07  08 09 0A 0B 0C 0D 0E 0F
      -- -- -- -- -- -- -- --  -- -- -- -- -- -- -- --
01D0:                                   1F 00 51 80 52             ..Q.R
01E0: 80 53 80 1F 01 00                                 .S....          
```

#### Opcodes

```
  0: 0x01DB [0x1F] MOVE_ENTITY: EventEntity moves to X=6.599*, Z=-7.580*, Y=0.585*
  1: 0x01E3 [0x1F] MOVE_ENTITY: Update entity position (mode=1)
  2: 0x01E5 [0x00] END_REQSTACK()
```

### Event 65535.35

#### Metadata

| Field        | Value    |
|--------------|----------|
| Entrypoint   | 0x01E6   |
| Data Size    | 21 bytes |
| Instructions | 5        |

```
      00 01 02 03 04 05 06 07  08 09 0A 0B 0C 0D 0E 0F
      -- -- -- -- -- -- -- --  -- -- -- -- -- -- -- --
01E0:                   1F 00  54 80 55 80 56 80 1F 01        ..T.U.V...
01F0: 6F 4A 36 E2 05 01 9D E2  05 01 00                 oJ6........     
```

#### Opcodes

```
  0: 0x01E6 [0x1F] MOVE_ENTITY: EventEntity moves to X=-3.863*, Z=7.608*, Y=-25.499*
  1: 0x01EE [0x1F] MOVE_ENTITY: Update entity position (mode=1)
  2: 0x01F0 [0x6F] WAIT_FRAME_DELAY: Yield until WaitTime reaches zero
  3: 0x01F1 [0x4A] Lehko Habhoka (ID: 17162806/0x0105E236) looks at Karaha-Baruha (ID: 17162909/0x0105E29D)
  4: 0x01FA [0x00] END_REQSTACK()
```

### Event 65535.36

#### Metadata

| Field        | Value    |
|--------------|----------|
| Entrypoint   | 0x01FB   |
| Data Size    | 21 bytes |
| Instructions | 5        |

```
      00 01 02 03 04 05 06 07  08 09 0A 0B 0C 0D 0E 0F
      -- -- -- -- -- -- -- --  -- -- -- -- -- -- -- --
01F0:                                   1F 00 57 80 58             ..W.X
0200: 80 59 80 1F 01 6F 4A 36  E2 05 01 9D E2 05 01 00  .Y...oJ6........
```

#### Opcodes

```
  0: 0x01FB [0x1F] MOVE_ENTITY: EventEntity moves to X=3.488*, Z=12.437*, Y=-25.763*
  1: 0x0203 [0x1F] MOVE_ENTITY: Update entity position (mode=1)
  2: 0x0205 [0x6F] WAIT_FRAME_DELAY: Yield until WaitTime reaches zero
  3: 0x0206 [0x4A] Lehko Habhoka (ID: 17162806/0x0105E236) looks at Karaha-Baruha (ID: 17162909/0x0105E29D)
  4: 0x020F [0x00] END_REQSTACK()
```

### Event 65535.37

#### Metadata

| Field        | Value    |
|--------------|----------|
| Entrypoint   | 0x0210   |
| Data Size    | 12 bytes |
| Instructions | 4        |

```
      00 01 02 03 04 05 06 07  08 09 0A 0B 0C 0D 0E 0F
      -- -- -- -- -- -- -- --  -- -- -- -- -- -- -- --
0210: 1F 00 5A 80 5B 80 5C 80  1F 01 6F 00              ..Z.[.\...o.    
```

#### Opcodes

```
  0: 0x0210 [0x1F] MOVE_ENTITY: EventEntity moves to X=0.103*, Z=-14.159*, Y=0.749*
  1: 0x0218 [0x1F] MOVE_ENTITY: Update entity position (mode=1)
  2: 0x021A [0x6F] WAIT_FRAME_DELAY: Yield until WaitTime reaches zero
  3: 0x021B [0x00] END_REQSTACK()
```

### Event 65535.38

#### Metadata

| Field        | Value    |
|--------------|----------|
| Entrypoint   | 0x021C   |
| Data Size    | 20 bytes |
| Instructions | 6        |

```
      00 01 02 03 04 05 06 07  08 09 0A 0B 0C 0D 0E 0F
      -- -- -- -- -- -- -- --  -- -- -- -- -- -- -- --
0210:                                      32 03 80 1F              2...
0220: 00 5D 80 5E 80 5F 80 1F  01 6F 1E F0 FF FF 7F 00  .].^._...o......
```

#### Opcodes

```
  0: 0x021C [0x32] ExtData[1]->MainSpeed = 13* * 0.1
  1: 0x021F [0x1F] MOVE_ENTITY: EventEntity moves to X=136.518*, Z=59.630*, Y=-2.032*
  2: 0x0227 [0x1F] MOVE_ENTITY: Update entity position (mode=1)
  3: 0x0229 [0x6F] WAIT_FRAME_DELAY: Yield until WaitTime reaches zero
  4: 0x022A [0x1E] EventEntity looks at LocalPlayer and starts talking
  5: 0x022F [0x00] END_REQSTACK()
```

### Event 65535.39

#### Metadata

| Field        | Value    |
|--------------|----------|
| Entrypoint   | 0x0230   |
| Data Size    | 21 bytes |
| Instructions | 5        |

```
      00 01 02 03 04 05 06 07  08 09 0A 0B 0C 0D 0E 0F
      -- -- -- -- -- -- -- --  -- -- -- -- -- -- -- --
0230: 1F 00 60 80 61 80 62 80  1F 01 6F 4A 36 E2 05 01  ..`.a.b...oJ6...
0240: F0 FF FF 7F 00                                    .....           
```

#### Opcodes

```
  0: 0x0230 [0x1F] MOVE_ENTITY: EventEntity moves to X=135.653*, Z=59.208*, Y=-2.012*
  1: 0x0238 [0x1F] MOVE_ENTITY: Update entity position (mode=1)
  2: 0x023A [0x6F] WAIT_FRAME_DELAY: Yield until WaitTime reaches zero
  3: 0x023B [0x4A] Lehko Habhoka (ID: 17162806/0x0105E236) looks at LocalPlayer
  4: 0x0244 [0x00] END_REQSTACK()
```

### Event 21

#### Metadata

| Field        | Value   |
|--------------|---------|
| Entrypoint   | 0x0245  |
| Data Size    | 1 bytes |
| Instructions | 1       |

```
      00 01 02 03 04 05 06 07  08 09 0A 0B 0C 0D 0E 0F
      -- -- -- -- -- -- -- --  -- -- -- -- -- -- -- --
0240:                00                                      .          
```

#### Opcodes

```
  0: 0x0245 [0x00] END_REQSTACK()
```

### Event 22

#### Metadata

| Field        | Value   |
|--------------|---------|
| Entrypoint   | 0x0246  |
| Data Size    | 1 bytes |
| Instructions | 1       |

```
      00 01 02 03 04 05 06 07  08 09 0A 0B 0C 0D 0E 0F
      -- -- -- -- -- -- -- --  -- -- -- -- -- -- -- --
0240:                   00                                    .         
```

#### Opcodes

```
  0: 0x0246 [0x00] END_REQSTACK()
```

### Event 65535.40

#### Metadata

| Field        | Value    |
|--------------|----------|
| Entrypoint   | 0x0247   |
| Data Size    | 40 bytes |
| Instructions | 6        |

```
      00 01 02 03 04 05 06 07  08 09 0A 0B 0C 0D 0E 0F
      -- -- -- -- -- -- -- --  -- -- -- -- -- -- -- --
0240:                      06  09 10 5B 63 80 36 E2 05         ...[c.6..
0250: 01 36 E2 05 01 74 68 61  30 1C 64 80 5B 63 80 36  .6...tha0.d.[c.6
0260: E2 05 01 36 E2 05 01 74  68 61 31 05 09 10 00     ...6...tha1.... 
```

#### Opcodes

```
  0: 0x0247 [0x06] Work_Zone[9] = 0
  1: 0x024A [0x5B] LOAD_EXT_SCHEDULER: Load scheduler "tha0" with entities [Lehko Habhoka (ID: 17162806/0x0105E236), Lehko Habhoka (ID: 17162806/0x0105E236)], work=1443*
  2: 0x0259 [0x1C] WAIT(120* ticks)
  3: 0x025C [0x5B] LOAD_EXT_SCHEDULER: Load scheduler "tha1" with entities [Lehko Habhoka (ID: 17162806/0x0105E236), Lehko Habhoka (ID: 17162806/0x0105E236)], work=1443*
  4: 0x026B [0x05] Work_Zone[9] = 1
  5: 0x026E [0x00] END_REQSTACK()
```

### Event 65535.41

#### Metadata

| Field        | Value    |
|--------------|----------|
| Entrypoint   | 0x026F   |
| Data Size    | 44 bytes |
| Instructions | 4        |

```
      00 01 02 03 04 05 06 07  08 09 0A 0B 0C 0D 0E 0F
      -- -- -- -- -- -- -- --  -- -- -- -- -- -- -- --
0260:                                               5B                 [
0270: 65 80 36 E2 05 01 36 E2  05 01 73 68 61 30 53 36  e.6...6...sha0S6
0280: E2 05 01 36 E2 05 01 73  68 61 30 5B 63 80 36 E2  ...6...sha0[c.6.
0290: 05 01 36 E2 05 01 73 68  61 6C 00                 ..6...shal.     
```

#### Opcodes

```
  0: 0x026F [0x5B] LOAD_EXT_SCHEDULER: Load scheduler "sha0" with entities [Lehko Habhoka (ID: 17162806/0x0105E236), Lehko Habhoka (ID: 17162806/0x0105E236)], work=2454*
  1: 0x027E [0x53] WAIT_SCHEDULER_TASK: Wait for scheduler "sha0" with entities [Lehko Habhoka (ID: 17162806/0x0105E236), Lehko Habhoka (ID: 17162806/0x0105E236)]
  2: 0x028B [0x5B] LOAD_EXT_SCHEDULER: Load scheduler "shal" with entities [Lehko Habhoka (ID: 17162806/0x0105E236), Lehko Habhoka (ID: 17162806/0x0105E236)], work=1443*
  3: 0x029A [0x00] END_REQSTACK()
```

### Event 65535.42

#### Metadata

| Field        | Value    |
|--------------|----------|
| Entrypoint   | 0x029B   |
| Data Size    | 20 bytes |
| Instructions | 5        |

```
      00 01 02 03 04 05 06 07  08 09 0A 0B 0C 0D 0E 0F
      -- -- -- -- -- -- -- --  -- -- -- -- -- -- -- --
0290:                                   59 04 F8 FF FF             Y....
02A0: 7F 03 80 1F 00 66 80 67  80 5C 80 1F 01 6F 00     .....f.g.\...o. 
```

#### Opcodes

```
  0: 0x029B [0x59] UPDATE_ENTITY_DATA: Set EventEntity main speed = 13* * 0.1
  1: 0x02A3 [0x1F] MOVE_ENTITY: EventEntity moves to X=3.451*, Z=8.529*, Y=0.749*
  2: 0x02AB [0x1F] MOVE_ENTITY: Update entity position (mode=1)
  3: 0x02AD [0x6F] WAIT_FRAME_DELAY: Yield until WaitTime reaches zero
  4: 0x02AE [0x00] END_REQSTACK()
```

### Event 65535.43

#### Metadata

| Field        | Value    |
|--------------|----------|
| Entrypoint   | 0x02AF   |
| Data Size    | 27 bytes |
| Instructions | 7        |

```
      00 01 02 03 04 05 06 07  08 09 0A 0B 0C 0D 0E 0F
      -- -- -- -- -- -- -- --  -- -- -- -- -- -- -- --
02A0:                                               06                 .
02B0: 09 10 1F 00 68 80 69 80  5C 80 1F 01 6F 4A 36 E2  ....h.i.\...oJ6.
02C0: 05 01 F0 FF FF 7F 05 09  10 00                    ..........      
```

#### Opcodes

```
  0: 0x02AF [0x06] Work_Zone[9] = 0
  1: 0x02B2 [0x1F] MOVE_ENTITY: EventEntity moves to X=5.122*, Z=9.840*, Y=0.749*
  2: 0x02BA [0x1F] MOVE_ENTITY: Update entity position (mode=1)
  3: 0x02BC [0x6F] WAIT_FRAME_DELAY: Yield until WaitTime reaches zero
  4: 0x02BD [0x4A] Lehko Habhoka (ID: 17162806/0x0105E236) looks at LocalPlayer
  5: 0x02C6 [0x05] Work_Zone[9] = 1
  6: 0x02C9 [0x00] END_REQSTACK()
```

### Event 65535.44

#### Metadata

| Field        | Value    |
|--------------|----------|
| Entrypoint   | 0x02CA   |
| Data Size    | 28 bytes |
| Instructions | 8        |

```
      00 01 02 03 04 05 06 07  08 09 0A 0B 0C 0D 0E 0F
      -- -- -- -- -- -- -- --  -- -- -- -- -- -- -- --
02C0:                                06 09 10 1F 00 6A            .....j
02D0: 80 6B 80 5C 80 1F 01 1F  00 6C 80 6D 80 5C 80 1F  .k.\.....l.m.\..
02E0: 01 6F 05 09 10 00                                 .o....          
```

#### Opcodes

```
  0: 0x02CA [0x06] Work_Zone[9] = 0
  1: 0x02CD [0x1F] MOVE_ENTITY: EventEntity moves to X=1.949*, Z=13.176*, Y=0.749*
  2: 0x02D5 [0x1F] MOVE_ENTITY: Update entity position (mode=1)
  3: 0x02D7 [0x1F] MOVE_ENTITY: EventEntity moves to X=1.122*, Z=15.263*, Y=0.749*
  4: 0x02DF [0x1F] MOVE_ENTITY: Update entity position (mode=1)
  5: 0x02E1 [0x6F] WAIT_FRAME_DELAY: Yield until WaitTime reaches zero
  6: 0x02E2 [0x05] Work_Zone[9] = 1
  7: 0x02E5 [0x00] END_REQSTACK()
```

### Event 65535.45

#### Metadata

| Field        | Value    |
|--------------|----------|
| Entrypoint   | 0x02E6   |
| Data Size    | 27 bytes |
| Instructions | 5        |

```
      00 01 02 03 04 05 06 07  08 09 0A 0B 0C 0D 0E 0F
      -- -- -- -- -- -- -- --  -- -- -- -- -- -- -- --
02E0:                   1F 00  6E 80 6F 80 5C 80 1F 01        ..n.o.\...
02F0: 6F 5B 63 80 36 E2 05 01  36 E2 05 01 74 6C 61 30  o[c.6...6...tla0
0300: 00                                                .               
```

#### Opcodes

```
  0: 0x02E6 [0x1F] MOVE_ENTITY: EventEntity moves to X=1.462*, Z=14.622*, Y=0.749*
  1: 0x02EE [0x1F] MOVE_ENTITY: Update entity position (mode=1)
  2: 0x02F0 [0x6F] WAIT_FRAME_DELAY: Yield until WaitTime reaches zero
  3: 0x02F1 [0x5B] LOAD_EXT_SCHEDULER: Load scheduler "tla0" with entities [Lehko Habhoka (ID: 17162806/0x0105E236), Lehko Habhoka (ID: 17162806/0x0105E236)], work=1443*
  4: 0x0300 [0x00] END_REQSTACK()
```

### Event 65535.46

#### Metadata

| Field        | Value    |
|--------------|----------|
| Entrypoint   | 0x0301   |
| Data Size    | 37 bytes |
| Instructions | 7        |

```
      00 01 02 03 04 05 06 07  08 09 0A 0B 0C 0D 0E 0F
      -- -- -- -- -- -- -- --  -- -- -- -- -- -- -- --
0300:    59 04 F8 FF FF 7F 70  80 1F 00 71 80 72 80 73   Y.....p...q.r.s
0310: 80 1F 01 6F 4B F8 FF FF  7F 74 80 79 00 36 E2 05  ...oK....t.y.6..
0320: 01 02 E3 05 01 00                                 ......          
```

#### Opcodes

```
  0: 0x0301 [0x59] UPDATE_ENTITY_DATA: Set EventEntity main speed = 11* * 0.1
  1: 0x0309 [0x1F] MOVE_ENTITY: EventEntity moves to X=-0.613*, Z=30.172*, Y=0.499*
  2: 0x0311 [0x1F] MOVE_ENTITY: Update entity position (mode=1)
  3: 0x0313 [0x6F] WAIT_FRAME_DELAY: Yield until WaitTime reaches zero
  4: 0x0314 [0x4B] UPDATE_ENTITY_YAW(entity=EventEntity, yaw=5.7°*)
  5: 0x031B [0x79] Lehko Habhoka (ID: 17162806/0x0105E236) looks at Nhev Befrathi (ID: 17163010/0x0105E302) (Basic look)
  6: 0x0325 [0x00] END_REQSTACK()
```

### Event 65535.47

#### Metadata

| Field        | Value     |
|--------------|-----------|
| Entrypoint   | 0x0326    |
| Data Size    | 130 bytes |
| Instructions | 28        |

```
      00 01 02 03 04 05 06 07  08 09 0A 0B 0C 0D 0E 0F
      -- -- -- -- -- -- -- --  -- -- -- -- -- -- -- --
0320:                   06 09  10 59 04 F8 FF FF 7F 03        ...Y......
0330: 80 1F 00 75 80 76 80 77  80 1F 01 1F 00 78 80 79  ...u.v.w.....x.y
0340: 80 7A 80 1F 01 1F 00 7B  80 7C 80 7D 80 1F 01 6F  .z.....{.|.}...o
0350: 05 09 10 02 08 10 00 80  00 61 03 1C 01 80 01 53  .........a.....S
0360: 03 1C 7E 80 BA F8 FF FF  7F 7F 80 80 80 81 80 82  ..~.............
0370: 80 1C 7E 80 1F 00 83 80  84 80 85 80 1F 01 1F 00  ..~.............
0380: 86 80 87 80 88 80 1F 01  1F 00 89 80 8A 80 8B 80  ................
0390: 1F 01 1F 00 8C 80 8D 80  8E 80 1F 01 1F 00 8F 80  ................
03A0: 90 80 91 80 1F 01 6F 00                           ......o.        
```

#### Opcodes

```
  0: 0x0326 [0x06] Work_Zone[9] = 0
  1: 0x0329 [0x59] UPDATE_ENTITY_DATA: Set EventEntity main speed = 13* * 0.1
  2: 0x0331 [0x1F] MOVE_ENTITY: EventEntity moves to X=-4.389*, Z=-29.419*, Y=-15.249*
  3: 0x0339 [0x1F] MOVE_ENTITY: Update entity position (mode=1)
  4: 0x033B [0x1F] MOVE_ENTITY: EventEntity moves to X=2.182*, Z=-29.833*, Y=-16.749*
  5: 0x0343 [0x1F] MOVE_ENTITY: Update entity position (mode=1)
  6: 0x0345 [0x1F] MOVE_ENTITY: EventEntity moves to X=7.561*, Z=-28.926*, Y=-17.750*
  7: 0x034D [0x1F] MOVE_ENTITY: Update entity position (mode=1)
  8: 0x034F [0x6F] WAIT_FRAME_DELAY: Yield until WaitTime reaches zero
  9: 0x0350 [0x05] Work_Zone[9] = 1
 10: 0x0353 [0x02] IF !(Work_Zone[8] == 0*) GOTO 0x0361
 11: 0x035B [0x1C] WAIT(1* ticks)
 12: 0x035E [0x01] GOTO 0x0353
 13: 0x0361 [0x1C] WAIT(5* ticks)
 14: 0x0364 [0xBA] SET_ENTITY_POSITION(entity_id=EventEntity, pos_x=21.289*, pos_z=-20.904*, pos_y=-21.249*, direction=302.7°*)
 15: 0x0371 [0x1C] WAIT(5* ticks)
 16: 0x0374 [0x1F] MOVE_ENTITY: EventEntity moves to X=25.538*, Z=-15.510*, Y=-22.749*
 17: 0x037C [0x1F] MOVE_ENTITY: Update entity position (mode=1)
 18: 0x037E [0x1F] MOVE_ENTITY: EventEntity moves to X=27.511*, Z=-11.238*, Y=-23.749*
 19: 0x0386 [0x1F] MOVE_ENTITY: Update entity position (mode=1)
 20: 0x0388 [0x1F] MOVE_ENTITY: EventEntity moves to X=28.920*, Z=-6.675*, Y=-24.749*
 21: 0x0390 [0x1F] MOVE_ENTITY: Update entity position (mode=1)
 22: 0x0392 [0x1F] MOVE_ENTITY: EventEntity moves to X=29.691*, Z=-2.133*, Y=-25.749*
 23: 0x039A [0x1F] MOVE_ENTITY: Update entity position (mode=1)
 24: 0x039C [0x1F] MOVE_ENTITY: EventEntity moves to X=29.695*, Z=1.206*, Y=-25.999*
 25: 0x03A4 [0x1F] MOVE_ENTITY: Update entity position (mode=1)
 26: 0x03A6 [0x6F] WAIT_FRAME_DELAY: Yield until WaitTime reaches zero
 27: 0x03A7 [0x00] END_REQSTACK()
```

### Event 65535.48

#### Metadata

| Field        | Value    |
|--------------|----------|
| Entrypoint   | 0x03A8   |
| Data Size    | 14 bytes |
| Instructions | 2        |

```
      00 01 02 03 04 05 06 07  08 09 0A 0B 0C 0D 0E 0F
      -- -- -- -- -- -- -- --  -- -- -- -- -- -- -- --
03A0:                          BA F8 FF FF 7F 7F 80 80          ........
03B0: 80 81 80 82 80 00                                 ......          
```

#### Opcodes

```
  0: 0x03A8 [0xBA] SET_ENTITY_POSITION(entity_id=EventEntity, pos_x=21.289*, pos_z=-20.904*, pos_y=-21.249*, direction=302.7°*)
  1: 0x03B5 [0x00] END_REQSTACK()
```

### Event 65535.49

#### Metadata

| Field        | Value    |
|--------------|----------|
| Entrypoint   | 0x03B6   |
| Data Size    | 68 bytes |
| Instructions | 14       |

```
      00 01 02 03 04 05 06 07  08 09 0A 0B 0C 0D 0E 0F
      -- -- -- -- -- -- -- --  -- -- -- -- -- -- -- --
03B0:                   BA F8  FF FF 7F 7F 80 80 80 81        ..........
03C0: 80 82 80 1C 7E 80 1F 00  83 80 84 80 85 80 1F 01  ....~...........
03D0: 1F 00 86 80 87 80 88 80  1F 01 1F 00 89 80 8A 80  ................
03E0: 8B 80 1F 01 1F 00 8C 80  8D 80 8E 80 1F 01 1F 00  ................
03F0: 8F 80 90 80 91 80 1F 01  6F 00                    ........o.      
```

#### Opcodes

```
  0: 0x03B6 [0xBA] SET_ENTITY_POSITION(entity_id=EventEntity, pos_x=21.289*, pos_z=-20.904*, pos_y=-21.249*, direction=302.7°*)
  1: 0x03C3 [0x1C] WAIT(5* ticks)
  2: 0x03C6 [0x1F] MOVE_ENTITY: EventEntity moves to X=25.538*, Z=-15.510*, Y=-22.749*
  3: 0x03CE [0x1F] MOVE_ENTITY: Update entity position (mode=1)
  4: 0x03D0 [0x1F] MOVE_ENTITY: EventEntity moves to X=27.511*, Z=-11.238*, Y=-23.749*
  5: 0x03D8 [0x1F] MOVE_ENTITY: Update entity position (mode=1)
  6: 0x03DA [0x1F] MOVE_ENTITY: EventEntity moves to X=28.920*, Z=-6.675*, Y=-24.749*
  7: 0x03E2 [0x1F] MOVE_ENTITY: Update entity position (mode=1)
  8: 0x03E4 [0x1F] MOVE_ENTITY: EventEntity moves to X=29.691*, Z=-2.133*, Y=-25.749*
  9: 0x03EC [0x1F] MOVE_ENTITY: Update entity position (mode=1)
 10: 0x03EE [0x1F] MOVE_ENTITY: EventEntity moves to X=29.695*, Z=1.206*, Y=-25.999*
 11: 0x03F6 [0x1F] MOVE_ENTITY: Update entity position (mode=1)
 12: 0x03F8 [0x6F] WAIT_FRAME_DELAY: Yield until WaitTime reaches zero
 13: 0x03F9 [0x00] END_REQSTACK()
```

### Event 65535.50

#### Metadata

| Field        | Value    |
|--------------|----------|
| Entrypoint   | 0x03FA   |
| Data Size    | 13 bytes |
| Instructions | 3        |

```
      00 01 02 03 04 05 06 07  08 09 0A 0B 0C 0D 0E 0F
      -- -- -- -- -- -- -- --  -- -- -- -- -- -- -- --
03F0:                                1C 92 80 6C F8 FF            ...l..
0400: FF 7F 00 80 93 80 00                              .......         
```

#### Opcodes

```
  0: 0x03FA [0x1C] WAIT(60* ticks)
  1: 0x03FD [0x6C] FADE_ENTITY_COLOR(entity_id=EventEntity, end_alpha=0*, fade_time=180*)
  2: 0x0406 [0x00] END_REQSTACK()
```

### Event 65535.51

#### Metadata

| Field        | Value    |
|--------------|----------|
| Entrypoint   | 0x0407   |
| Data Size    | 10 bytes |
| Instructions | 2        |

```
      00 01 02 03 04 05 06 07  08 09 0A 0B 0C 0D 0E 0F
      -- -- -- -- -- -- -- --  -- -- -- -- -- -- -- --
0400:                      6C  F8 FF FF 7F 02 80 92 80         l........
0410: 00                                                .               
```

#### Opcodes

```
  0: 0x0407 [0x6C] FADE_ENTITY_COLOR(entity_id=EventEntity, end_alpha=128*, fade_time=60*)
  1: 0x0410 [0x00] END_REQSTACK()
```

### Event 65535.52

#### Metadata

| Field        | Value   |
|--------------|---------|
| Entrypoint   | 0x0411  |
| Data Size    | 5 bytes |
| Instructions | 2       |

```
      00 01 02 03 04 05 06 07  08 09 0A 0B 0C 0D 0E 0F
      -- -- -- -- -- -- -- --  -- -- -- -- -- -- -- --
0410:    B6 00 94 80 00                                  .....          
```

#### Opcodes

```
  0: 0x0411 [0xB6] ENTITY_APPEARANCE_HANDLER(case=Hair style, value=2346*)
  1: 0x0415 [0x00] END_REQSTACK()
```

### Event 65535.53

#### Metadata

| Field        | Value   |
|--------------|---------|
| Entrypoint   | 0x0416  |
| Data Size    | 5 bytes |
| Instructions | 2       |

```
      00 01 02 03 04 05 06 07  08 09 0A 0B 0C 0D 0E 0F
      -- -- -- -- -- -- -- --  -- -- -- -- -- -- -- --
0410:                   B6 00  95 80 00                       .....     
```

#### Opcodes

```
  0: 0x0416 [0xB6] ENTITY_APPEARANCE_HANDLER(case=Hair style, value=2250*)
  1: 0x041A [0x00] END_REQSTACK()
```

### Event 65535.54

#### Metadata

| Field        | Value    |
|--------------|----------|
| Entrypoint   | 0x041B   |
| Data Size    | 21 bytes |
| Instructions | 2        |

```
      00 01 02 03 04 05 06 07  08 09 0A 0B 0C 0D 0E 0F
      -- -- -- -- -- -- -- --  -- -- -- -- -- -- -- --
0410:                                   B6 0B 96 80 97             .....
0420: 80 98 80 99 80 92 80 98  80 99 80 9A 80 00 80 00  ................
```

#### Opcodes

```
  0: 0x041B [0xB6] ENTITY_APPEARANCE_HANDLER(case=Full entity look, race=7*, hair=2*, head=164*, body=62*, hands=60*, legs=164*, feet=62*, main=216*, sub=0*)
  1: 0x042F [0x00] END_REQSTACK()
```

### Event 65535.55

#### Metadata

| Field        | Value    |
|--------------|----------|
| Entrypoint   | 0x0430   |
| Data Size    | 42 bytes |
| Instructions | 7        |

```
      00 01 02 03 04 05 06 07  08 09 0A 0B 0C 0D 0E 0F
      -- -- -- -- -- -- -- --  -- -- -- -- -- -- -- --
0430: 59 04 F8 FF FF 7F 9B 80  53 36 E2 05 01 36 E2 05  Y.......S6...6..
0440: 01 74 68 61 31 1F 00 9C  80 9D 80 9E 80 1F 01 6F  .tha1..........o
0450: 4A 36 E2 05 01 F0 FF FF  7F 00                    J6........      
```

#### Opcodes

```
  0: 0x0430 [0x59] UPDATE_ENTITY_DATA: Set EventEntity main speed = 10* * 0.1
  1: 0x0438 [0x53] WAIT_SCHEDULER_TASK: Wait for scheduler "tha1" with entities [Lehko Habhoka (ID: 17162806/0x0105E236), Lehko Habhoka (ID: 17162806/0x0105E236)]
  2: 0x0445 [0x1F] MOVE_ENTITY: EventEntity moves to X=18.037*, Z=13.877*, Y=-26.250*
  3: 0x044D [0x1F] MOVE_ENTITY: Update entity position (mode=1)
  4: 0x044F [0x6F] WAIT_FRAME_DELAY: Yield until WaitTime reaches zero
  5: 0x0450 [0x4A] Lehko Habhoka (ID: 17162806/0x0105E236) looks at LocalPlayer
  6: 0x0459 [0x00] END_REQSTACK()
```

### Event 65535.56

#### Metadata

| Field        | Value    |
|--------------|----------|
| Entrypoint   | 0x045A   |
| Data Size    | 36 bytes |
| Instructions | 8        |

```
      00 01 02 03 04 05 06 07  08 09 0A 0B 0C 0D 0E 0F
      -- -- -- -- -- -- -- --  -- -- -- -- -- -- -- --
0450:                                06 09 10 59 04 F8            ...Y..
0460: FF FF 7F 9B 80 79 00 36  E2 05 01 AB E2 05 01 1F  .....y.6........
0470: 00 9F 80 A0 80 A1 80 1F  01 6F 05 09 10 00        .........o....  
```

#### Opcodes

```
  0: 0x045A [0x06] Work_Zone[9] = 0
  1: 0x045D [0x59] UPDATE_ENTITY_DATA: Set EventEntity main speed = 10* * 0.1
  2: 0x0465 [0x79] Lehko Habhoka (ID: 17162806/0x0105E236) looks at Unnamed NPC (ID: 17162923/0x0105E2AB) (Basic look)
  3: 0x046F [0x1F] MOVE_ENTITY: EventEntity moves to X=18.878*, Z=12.849*, Y=-26.249*
  4: 0x0477 [0x1F] MOVE_ENTITY: Update entity position (mode=1)
  5: 0x0479 [0x6F] WAIT_FRAME_DELAY: Yield until WaitTime reaches zero
  6: 0x047A [0x05] Work_Zone[9] = 1
  7: 0x047D [0x00] END_REQSTACK()
```

### Event 65535.57

#### Metadata

| Field        | Value    |
|--------------|----------|
| Entrypoint   | 0x047E   |
| Data Size    | 67 bytes |
| Instructions | 7        |

```
      00 01 02 03 04 05 06 07  08 09 0A 0B 0C 0D 0E 0F
      -- -- -- -- -- -- -- --  -- -- -- -- -- -- -- --
0470:                                            5B 63                [c
0480: 80 36 E2 05 01 36 E2 05  01 74 6C 62 30 1C 64 80  .6...6...tlb0.d.
0490: 5B 63 80 36 E2 05 01 36  E2 05 01 74 6C 62 31 5B  [c.6...6...tlb1[
04A0: A2 80 36 E2 05 01 36 E2  05 01 66 63 30 31 1C 93  ..6...6...fc01..
04B0: 80 5B A2 80 36 E2 05 01  36 E2 05 01 66 63 30 30  .[..6...6...fc00
04C0: 00                                                .               
```

#### Opcodes

```
  0: 0x047E [0x5B] LOAD_EXT_SCHEDULER: Load scheduler "tlb0" with entities [Lehko Habhoka (ID: 17162806/0x0105E236), Lehko Habhoka (ID: 17162806/0x0105E236)], work=1443*
  1: 0x048D [0x1C] WAIT(120* ticks)
  2: 0x0490 [0x5B] LOAD_EXT_SCHEDULER: Load scheduler "tlb1" with entities [Lehko Habhoka (ID: 17162806/0x0105E236), Lehko Habhoka (ID: 17162806/0x0105E236)], work=1443*
  3: 0x049F [0x5B] LOAD_EXT_SCHEDULER: Load scheduler "fc01" with entities [Lehko Habhoka (ID: 17162806/0x0105E236), Lehko Habhoka (ID: 17162806/0x0105E236)], work=1442*
  4: 0x04AE [0x1C] WAIT(180* ticks)
  5: 0x04B1 [0x5B] LOAD_EXT_SCHEDULER: Load scheduler "fc00" with entities [Lehko Habhoka (ID: 17162806/0x0105E236), Lehko Habhoka (ID: 17162806/0x0105E236)], work=1442*
  6: 0x04C0 [0x00] END_REQSTACK()
```

### Event 65535.58

#### Metadata

| Field        | Value    |
|--------------|----------|
| Entrypoint   | 0x04C1   |
| Data Size    | 34 bytes |
| Instructions | 7        |

```
      00 01 02 03 04 05 06 07  08 09 0A 0B 0C 0D 0E 0F
      -- -- -- -- -- -- -- --  -- -- -- -- -- -- -- --
04C0:    1C 92 80 79 00 F8 FF  FF 7F 02 E3 05 01 1F 00   ...y...........
04D0: A3 80 A4 80 A1 80 1F 01  6F 4A F8 FF FF 7F 02 E3  ........oJ......
04E0: 05 01 00                                          ...             
```

#### Opcodes

```
  0: 0x04C1 [0x1C] WAIT(60* ticks)
  1: 0x04C4 [0x79] EventEntity looks at Nhev Befrathi (ID: 17163010/0x0105E302) (Basic look)
  2: 0x04CE [0x1F] MOVE_ENTITY: EventEntity moves to X=12.467*, Z=15.563*, Y=-26.249*
  3: 0x04D6 [0x1F] MOVE_ENTITY: Update entity position (mode=1)
  4: 0x04D8 [0x6F] WAIT_FRAME_DELAY: Yield until WaitTime reaches zero
  5: 0x04D9 [0x4A] EventEntity looks at Nhev Befrathi (ID: 17163010/0x0105E302)
  6: 0x04E2 [0x00] END_REQSTACK()
```

### Event 65535.59

#### Metadata

| Field        | Value    |
|--------------|----------|
| Entrypoint   | 0x04E3   |
| Data Size    | 11 bytes |
| Instructions | 3        |

```
      00 01 02 03 04 05 06 07  08 09 0A 0B 0C 0D 0E 0F
      -- -- -- -- -- -- -- --  -- -- -- -- -- -- -- --
04E0:          1F 00 A5 80 A6  80 A1 80 1F 01 00           ...........  
```

#### Opcodes

```
  0: 0x04E3 [0x1F] MOVE_ENTITY: EventEntity moves to X=12.317*, Z=15.452*, Y=-26.249*
  1: 0x04EB [0x1F] MOVE_ENTITY: Update entity position (mode=1)
  2: 0x04ED [0x00] END_REQSTACK()
```

### Event 65535.60

#### Metadata

| Field        | Value    |
|--------------|----------|
| Entrypoint   | 0x04EE   |
| Data Size    | 47 bytes |
| Instructions | 5        |

```
      00 01 02 03 04 05 06 07  08 09 0A 0B 0C 0D 0E 0F
      -- -- -- -- -- -- -- --  -- -- -- -- -- -- -- --
04E0:                                            5B 63                [c
04F0: 80 36 E2 05 01 36 E2 05  01 74 6C 61 30 1C 64 80  .6...6...tla0.d.
0500: 5B 63 80 36 E2 05 01 36  E2 05 01 74 6C 61 31 53  [c.6...6...tla1S
0510: 36 E2 05 01 36 E2 05 01  74 6C 61 31 00           6...6...tla1.   
```

#### Opcodes

```
  0: 0x04EE [0x5B] LOAD_EXT_SCHEDULER: Load scheduler "tla0" with entities [Lehko Habhoka (ID: 17162806/0x0105E236), Lehko Habhoka (ID: 17162806/0x0105E236)], work=1443*
  1: 0x04FD [0x1C] WAIT(120* ticks)
  2: 0x0500 [0x5B] LOAD_EXT_SCHEDULER: Load scheduler "tla1" with entities [Lehko Habhoka (ID: 17162806/0x0105E236), Lehko Habhoka (ID: 17162806/0x0105E236)], work=1443*
  3: 0x050F [0x53] WAIT_SCHEDULER_TASK: Wait for scheduler "tla1" with entities [Lehko Habhoka (ID: 17162806/0x0105E236), Lehko Habhoka (ID: 17162806/0x0105E236)]
  4: 0x051C [0x00] END_REQSTACK()
```

### Event 23

#### Metadata

| Field        | Value   |
|--------------|---------|
| Entrypoint   | 0x051D  |
| Data Size    | 1 bytes |
| Instructions | 1       |

```
      00 01 02 03 04 05 06 07  08 09 0A 0B 0C 0D 0E 0F
      -- -- -- -- -- -- -- --  -- -- -- -- -- -- -- --
0510:                                         00                     .  
```

#### Opcodes

```
  0: 0x051D [0x00] END_REQSTACK()
```

### Event 25

#### Metadata

| Field        | Value   |
|--------------|---------|
| Entrypoint   | 0x051E  |
| Data Size    | 1 bytes |
| Instructions | 1       |

```
      00 01 02 03 04 05 06 07  08 09 0A 0B 0C 0D 0E 0F
      -- -- -- -- -- -- -- --  -- -- -- -- -- -- -- --
0510:                                            00                   . 
```

#### Opcodes

```
  0: 0x051E [0x00] END_REQSTACK()
```

### Event 65535.61

#### Metadata

| Field        | Value    |
|--------------|----------|
| Entrypoint   | 0x051F   |
| Data Size    | 11 bytes |
| Instructions | 3        |

```
      00 01 02 03 04 05 06 07  08 09 0A 0B 0C 0D 0E 0F
      -- -- -- -- -- -- -- --  -- -- -- -- -- -- -- --
0510:                                               1F                 .
0520: 00 A7 80 A8 80 A9 80 1F  01 00                    ..........      
```

#### Opcodes

```
  0: 0x051F [0x1F] MOVE_ENTITY: EventEntity moves to X=-40.668*, Z=222.817*, Y=-5.006*
  1: 0x0527 [0x1F] MOVE_ENTITY: Update entity position (mode=1)
  2: 0x0529 [0x00] END_REQSTACK()
```

### Event 65535.62

#### Metadata

| Field        | Value    |
|--------------|----------|
| Entrypoint   | 0x052A   |
| Data Size    | 11 bytes |
| Instructions | 3        |

```
      00 01 02 03 04 05 06 07  08 09 0A 0B 0C 0D 0E 0F
      -- -- -- -- -- -- -- --  -- -- -- -- -- -- -- --
0520:                                1F 00 AA 80 AB 80            ......
0530: AC 80 1F 01 00                                    .....           
```

#### Opcodes

```
  0: 0x052A [0x1F] MOVE_ENTITY: EventEntity moves to X=-40.234*, Z=216.982*, Y=-5.003*
  1: 0x0532 [0x1F] MOVE_ENTITY: Update entity position (mode=1)
  2: 0x0534 [0x00] END_REQSTACK()
```

### Event 65535.63

#### Metadata

| Field        | Value    |
|--------------|----------|
| Entrypoint   | 0x0535   |
| Data Size    | 11 bytes |
| Instructions | 3        |

```
      00 01 02 03 04 05 06 07  08 09 0A 0B 0C 0D 0E 0F
      -- -- -- -- -- -- -- --  -- -- -- -- -- -- -- --
0530:                1F 00 AD  80 AE 80 AF 80 1F 01 00       ...........
```

#### Opcodes

```
  0: 0x0535 [0x1F] MOVE_ENTITY: EventEntity moves to X=-43.780*, Z=196.976*, Y=-5.481*
  1: 0x053D [0x1F] MOVE_ENTITY: Update entity position (mode=1)
  2: 0x053F [0x00] END_REQSTACK()
```

### Event 65535.64

#### Metadata

| Field        | Value    |
|--------------|----------|
| Entrypoint   | 0x0540   |
| Data Size    | 11 bytes |
| Instructions | 3        |

```
      00 01 02 03 04 05 06 07  08 09 0A 0B 0C 0D 0E 0F
      -- -- -- -- -- -- -- --  -- -- -- -- -- -- -- --
0540: 1F 00 B0 80 6E 80 91 80  1F 01 00                 ....n......     
```

#### Opcodes

```
  0: 0x0540 [0x1F] MOVE_ENTITY: EventEntity moves to X=30.277*, Z=1.462*, Y=-25.999*
  1: 0x0548 [0x1F] MOVE_ENTITY: Update entity position (mode=1)
  2: 0x054A [0x00] END_REQSTACK()
```

### Event 65535.65

#### Metadata

| Field        | Value    |
|--------------|----------|
| Entrypoint   | 0x054B   |
| Data Size    | 21 bytes |
| Instructions | 5        |

```
      00 01 02 03 04 05 06 07  08 09 0A 0B 0C 0D 0E 0F
      -- -- -- -- -- -- -- --  -- -- -- -- -- -- -- --
0540:                                   1F 00 B1 80 B2             .....
0550: 80 56 80 1F 01 6F 4A 36  E2 05 01 18 E2 05 01 00  .V...oJ6........
```

#### Opcodes

```
  0: 0x054B [0x1F] MOVE_ENTITY: EventEntity moves to X=-2.779*, Z=2.633*, Y=-25.499*
  1: 0x0553 [0x1F] MOVE_ENTITY: Update entity position (mode=1)
  2: 0x0555 [0x6F] WAIT_FRAME_DELAY: Yield until WaitTime reaches zero
  3: 0x0556 [0x4A] Lehko Habhoka (ID: 17162806/0x0105E236) looks at Robel-Akbel (ID: 17162776/0x0105E218)
  4: 0x055F [0x00] END_REQSTACK()
```

### Event 65535.66

#### Metadata

| Field        | Value    |
|--------------|----------|
| Entrypoint   | 0x0560   |
| Data Size    | 22 bytes |
| Instructions | 6        |

```
      00 01 02 03 04 05 06 07  08 09 0A 0B 0C 0D 0E 0F
      -- -- -- -- -- -- -- --  -- -- -- -- -- -- -- --
0560: 1F 00 B3 80 B4 80 56 80  1F 01 6F 1C 01 80 4B 36  ......V...o...K6
0570: E2 05 01 B5 80 00                                 ......          
```

#### Opcodes

```
  0: 0x0560 [0x1F] MOVE_ENTITY: EventEntity moves to X=-6.169*, Z=1.596*, Y=-25.499*
  1: 0x0568 [0x1F] MOVE_ENTITY: Update entity position (mode=1)
  2: 0x056A [0x6F] WAIT_FRAME_DELAY: Yield until WaitTime reaches zero
  3: 0x056B [0x1C] WAIT(1* ticks)
  4: 0x056E [0x4B] UPDATE_ENTITY_YAW(entity=Lehko Habhoka (ID: 17162806/0x0105E236), yaw=19.3°*)
  5: 0x0575 [0x00] END_REQSTACK()
```

### Event 65535.67

#### Metadata

| Field        | Value   |
|--------------|---------|
| Entrypoint   | 0x0576  |
| Data Size    | 4 bytes |
| Instructions | 2       |

```
      00 01 02 03 04 05 06 07  08 09 0A 0B 0C 0D 0E 0F
      -- -- -- -- -- -- -- --  -- -- -- -- -- -- -- --
0570:                   95 97  80 00                          ....      
```

#### Opcodes

```
  0: 0x0576 [0x95] SETUP_EVENT_NPC: Prepare NPC for event (Render.Flags3 = 2*)
  1: 0x0579 [0x00] END_REQSTACK()
```

### Event 65535.68

#### Metadata

| Field        | Value   |
|--------------|---------|
| Entrypoint   | 0x057A  |
| Data Size    | 2 bytes |
| Instructions | 2       |

```
      00 01 02 03 04 05 06 07  08 09 0A 0B 0C 0D 0E 0F
      -- -- -- -- -- -- -- --  -- -- -- -- -- -- -- --
0570:                                96 00                        ..    
```

#### Opcodes

```
  0: 0x057A [0x96] UNSET_EVENT_NPC: Restore NPC after event (removes event NPC status)
  1: 0x057B [0x00] END_REQSTACK()
```

### Event 65535.69

#### Metadata

| Field        | Value    |
|--------------|----------|
| Entrypoint   | 0x057C   |
| Data Size    | 14 bytes |
| Instructions | 4        |

```
      00 01 02 03 04 05 06 07  08 09 0A 0B 0C 0D 0E 0F
      -- -- -- -- -- -- -- --  -- -- -- -- -- -- -- --
0570:                                      32 09 80 1F              2...
0580: 00 B6 80 B7 80 06 80 1F  01 00                    ..........      
```

#### Opcodes

```
  0: 0x057C [0x32] ExtData[1]->MainSpeed = 40* * 0.1
  1: 0x057F [0x1F] MOVE_ENTITY: EventEntity moves to X=-39.679*, Z=89.105*, Y=-4.999*
  2: 0x0587 [0x1F] MOVE_ENTITY: Update entity position (mode=1)
  3: 0x0589 [0x00] END_REQSTACK()
```

### Event 65535.70

#### Metadata

| Field        | Value    |
|--------------|----------|
| Entrypoint   | 0x058A   |
| Data Size    | 18 bytes |
| Instructions | 6        |

```
      00 01 02 03 04 05 06 07  08 09 0A 0B 0C 0D 0E 0F
      -- -- -- -- -- -- -- --  -- -- -- -- -- -- -- --
0580:                                32 03 80 1F 00 B8            2.....
0590: 80 B9 80 BA 80 1F 01 6F  1C BB 80 00              .......o....    
```

#### Opcodes

```
  0: 0x058A [0x32] ExtData[1]->MainSpeed = 13* * 0.1
  1: 0x058D [0x1F] MOVE_ENTITY: EventEntity moves to X=-23.292*, Z=93.816*, Y=-10.749*
  2: 0x0595 [0x1F] MOVE_ENTITY: Update entity position (mode=1)
  3: 0x0597 [0x6F] WAIT_FRAME_DELAY: Yield until WaitTime reaches zero
  4: 0x0598 [0x1C] WAIT(20* ticks)
  5: 0x059B [0x00] END_REQSTACK()
```

### Event 65535.71

#### Metadata

| Field        | Value    |
|--------------|----------|
| Entrypoint   | 0x059C   |
| Data Size    | 14 bytes |
| Instructions | 4        |

```
      00 01 02 03 04 05 06 07  08 09 0A 0B 0C 0D 0E 0F
      -- -- -- -- -- -- -- --  -- -- -- -- -- -- -- --
0590:                                      32 09 80 1F              2...
05A0: 00 BC 80 BD 80 BE 80 1F  01 00                    ..........      
```

#### Opcodes

```
  0: 0x059C [0x32] ExtData[1]->MainSpeed = 40* * 0.1
  1: 0x059F [0x1F] MOVE_ENTITY: EventEntity moves to X=39.433*, Z=49.016*, Y=-2.000*
  2: 0x05A7 [0x1F] MOVE_ENTITY: Update entity position (mode=1)
  3: 0x05A9 [0x00] END_REQSTACK()
```

### Event 65535.72

#### Metadata

| Field        | Value    |
|--------------|----------|
| Entrypoint   | 0x05AA   |
| Data Size    | 10 bytes |
| Instructions | 2        |

```
      00 01 02 03 04 05 06 07  08 09 0A 0B 0C 0D 0E 0F
      -- -- -- -- -- -- -- --  -- -- -- -- -- -- -- --
05A0:                                6C F8 FF FF 7F 00            l.....
05B0: 80 01 80 00                                       ....            
```

#### Opcodes

```
  0: 0x05AA [0x6C] FADE_ENTITY_COLOR(entity_id=EventEntity, end_alpha=0*, fade_time=1*)
  1: 0x05B3 [0x00] END_REQSTACK()
```

### Event 65535.73

#### Metadata

| Field        | Value    |
|--------------|----------|
| Entrypoint   | 0x05B4   |
| Data Size    | 10 bytes |
| Instructions | 2        |

```
      00 01 02 03 04 05 06 07  08 09 0A 0B 0C 0D 0E 0F
      -- -- -- -- -- -- -- --  -- -- -- -- -- -- -- --
05B0:             6C F8 FF FF  7F 02 80 01 80 00            l.........  
```

#### Opcodes

```
  0: 0x05B4 [0x6C] FADE_ENTITY_COLOR(entity_id=EventEntity, end_alpha=128*, fade_time=1*)
  1: 0x05BD [0x00] END_REQSTACK()
```

### Event 65535.74

#### Metadata

| Field        | Value    |
|--------------|----------|
| Entrypoint   | 0x05BE   |
| Data Size    | 14 bytes |
| Instructions | 4        |

```
      00 01 02 03 04 05 06 07  08 09 0A 0B 0C 0D 0E 0F
      -- -- -- -- -- -- -- --  -- -- -- -- -- -- -- --
05B0:                                            32 BF                2.
05C0: 80 1F 00 C0 80 C1 80 BA  80 1F 01 00              ............    
```

#### Opcodes

```
  0: 0x05BE [0x32] ExtData[1]->MainSpeed = 12* * 0.1
  1: 0x05C1 [0x1F] MOVE_ENTITY: EventEntity moves to X=-23.229*, Z=92.438*, Y=-10.749*
  2: 0x05C9 [0x1F] MOVE_ENTITY: Update entity position (mode=1)
  3: 0x05CB [0x00] END_REQSTACK()
```

### Event 65535.75

#### Metadata

| Field        | Value   |
|--------------|---------|
| Entrypoint   | 0x05CC  |
| Data Size    | 4 bytes |
| Instructions | 2       |

```
      00 01 02 03 04 05 06 07  08 09 0A 0B 0C 0D 0E 0F
      -- -- -- -- -- -- -- --  -- -- -- -- -- -- -- --
05C0:                                      39 03 10 00              9...
```

#### Opcodes

```
  0: 0x05CC [0x39] SET_ENTITY_DIRECTION(direction=Work_Zone[3])
  1: 0x05CF [0x00] END_REQSTACK()
```
