# 17162965 - 02

## Common Data

| Field            | Value                        |
|------------------|------------------------------|
| Zone             | Windurst Waters [S] (ID: 94) |
| Block Size       | 124 bytes                    |
| Total Events     | 3                            |
| References Count | 12                           |

## List of Events

| Event ID                 | Entrypoint   |   Size |   Instructions |
|--------------------------|--------------|--------|----------------|
| [65535](#event-65535)    | 0x0000       |      1 |              1 |
| [23](#event-23)          | 0x0001       |      1 |              1 |
| [65535.1](#event-655351) | 0x0002       |     44 |             10 |

## DAT References (imed_data)

|   Index | Hex Value   |   Dec Value |
|---------|-------------|-------------|
|       0 | 0x0028      |          40 |
|       1 | 0xFFFFE96F  |  4294961519 |
|       2 | 0x1DF54     |      122708 |
|       3 | 0xFFFFC180  |  4294951296 |
|       4 | 0xFFFFF784  |  4294965124 |
|       5 | 0x1EB4B     |      125771 |
|       6 | 0xFFFFBF8D  |  4294950797 |
|       7 | 0xFFFFFF45  |  4294967109 |
|       8 | 0x1FFEC     |      131052 |
|       9 | 0xFFFFBE93  |  4294950547 |
|      10 | 0xFFFFFC41  |  4294966337 |
|      11 | 0x2401F     |      147487 |

## Events

### Event 65535

#### Metadata

| Field        | Value   |
|--------------|---------|
| Entrypoint   | 0x0000  |
| Data Size    | 1 bytes |
| Instructions | 1       |

```
      00 01 02 03 04 05 06 07  08 09 0A 0B 0C 0D 0E 0F
      -- -- -- -- -- -- -- --  -- -- -- -- -- -- -- --
0000: 00                                                .               
```

#### Opcodes

```
  0: 0x0000 [0x00] END_REQSTACK()
```

### Event 23

#### Metadata

| Field        | Value   |
|--------------|---------|
| Entrypoint   | 0x0001  |
| Data Size    | 1 bytes |
| Instructions | 1       |

```
      00 01 02 03 04 05 06 07  08 09 0A 0B 0C 0D 0E 0F
      -- -- -- -- -- -- -- --  -- -- -- -- -- -- -- --
0000:    00                                              .              
```

#### Opcodes

```
  0: 0x0001 [0x00] END_REQSTACK()
```

### Event 65535.1

#### Metadata

| Field        | Value    |
|--------------|----------|
| Entrypoint   | 0x0002   |
| Data Size    | 44 bytes |
| Instructions | 10       |

```
      00 01 02 03 04 05 06 07  08 09 0A 0B 0C 0D 0E 0F
      -- -- -- -- -- -- -- --  -- -- -- -- -- -- -- --
0000:       32 00 80 1F 00 01  80 02 80 03 80 1F 01 1F    2.............
0010: 00 04 80 05 80 06 80 1F  01 1F 00 07 80 08 80 09  ................
0020: 80 1F 01 1F 00 0A 80 0B  80 09 80 1F 01 00        ..............  
```

#### Opcodes

```
  0: 0x0002 [0x32] ExtData[1]->MainSpeed = 40* * 0.1
  1: 0x0005 [0x1F] MOVE_ENTITY: EventEntity moves to X=-5.777*, Z=122.708*, Y=-16.000*
  2: 0x000D [0x1F] MOVE_ENTITY: Update entity position (mode=1)
  3: 0x000F [0x1F] MOVE_ENTITY: EventEntity moves to X=-2.172*, Z=125.771*, Y=-16.499*
  4: 0x0017 [0x1F] MOVE_ENTITY: Update entity position (mode=1)
  5: 0x0019 [0x1F] MOVE_ENTITY: EventEntity moves to X=-0.187*, Z=131.052*, Y=-16.749*
  6: 0x0021 [0x1F] MOVE_ENTITY: Update entity position (mode=1)
  7: 0x0023 [0x1F] MOVE_ENTITY: EventEntity moves to X=-0.959*, Z=147.487*, Y=-16.749*
  8: 0x002B [0x1F] MOVE_ENTITY: Update entity position (mode=1)
  9: 0x002D [0x00] END_REQSTACK()
```
