# 17162766 - Mikhe Aryohcha

## Common Data

| Field            | Value                        |
|------------------|------------------------------|
| Zone             | Windurst Waters [S] (ID: 94) |
| Block Size       | 660 bytes                    |
| Total Events     | 26                           |
| References Count | 48                           |

## List of Events

| Event ID                   | Entrypoint   |   Size |   Instructions |
|----------------------------|--------------|--------|----------------|
| [65535](#event-65535)      | 0x0000       |      1 |              1 |
| [158](#event-158)          | 0x0001       |      1 |              1 |
| [165](#event-165)          | 0x0002       |      1 |              1 |
| [168](#event-168)          | 0x0003       |      1 |              1 |
| [65535.1](#event-655351)   | 0x0004       |     26 |              8 |
| [65535.2](#event-655352)   | 0x001E       |     18 |              6 |
| [65535.3](#event-655353)   | 0x0030       |     20 |              6 |
| [65535.4](#event-655354)   | 0x0044       |     20 |              6 |
| [65535.5](#event-655355)   | 0x0058       |     42 |              8 |
| [182](#event-182)          | 0x0082       |      1 |              1 |
| [23](#event-23)            | 0x0083       |      1 |              1 |
| [65535.6](#event-655356)   | 0x0084       |     24 |              6 |
| [33](#event-33)            | 0x009C       |      1 |              1 |
| [65535.7](#event-655357)   | 0x009D       |     25 |              5 |
| [65535.8](#event-655358)   | 0x00B6       |     16 |              2 |
| [65535.9](#event-655359)   | 0x00C6       |     16 |              4 |
| [65535.10](#event-6553510) | 0x00D6       |     24 |              6 |
| [65535.11](#event-6553511) | 0x00EE       |     21 |              2 |
| [65535.12](#event-6553512) | 0x0103       |     21 |              2 |
| [65535.13](#event-6553513) | 0x0118       |      1 |              1 |
| [65535.14](#event-6553514) | 0x0119       |     18 |              4 |
| [65535.15](#event-6553515) | 0x012B       |     10 |              2 |
| [65535.16](#event-6553516) | 0x0135       |      9 |              3 |
| [65535.17](#event-6553517) | 0x013E       |      9 |              3 |
| [65535.18](#event-6553518) | 0x0147       |     10 |              2 |
| [65535.19](#event-6553519) | 0x0151       |     10 |              2 |

## DAT References (imed_data)

|   Index | Hex Value   |   Dec Value |
|---------|-------------|-------------|
|       0 | 0x0028      |          40 |
|       1 | 0xFFFFA216  |  4294943254 |
|       2 | 0x98AA      |       39082 |
|       3 | 0xFFFFF255  |  4294963797 |
|       4 | 0xFFFFC2C4  |  4294951620 |
|       5 | 0x97BC      |       38844 |
|       6 | 0xFFFFFB7C  |  4294966140 |
|       7 | 0xFFFFF216  |  4294963734 |
|       8 | 0x8E15      |       36373 |
|       9 | 0xFFFFFC18  |  4294966296 |
|      10 | 0x0BFB      |        3067 |
|      11 | 0x000D      |          13 |
|      12 | 0xFFFFEC06  |  4294962182 |
|      13 | 0x81D9      |       33241 |
|      14 | 0xFFFFFC19  |  4294966297 |
|      15 | 0xFFFFEB84  |  4294962052 |
|      16 | 0x8E25      |       36389 |
|      17 | 0xFFFF6270  |  4294926960 |
|      18 | 0x34859     |      215129 |
|      19 | 0xFFFFEC78  |  4294962296 |
|      20 | 0x080A      |        2058 |
|      21 | 0x0023      |          35 |
|      22 | 0x02BF      |         703 |
|      23 | 0xFFFFF6D1  |  4294964945 |
|      24 | 0xFFFF9C65  |  4294941797 |
|      25 | 0x7189      |       29065 |
|      26 | 0x09DC      |        2524 |
|      27 | 0xFFFF9A71  |  4294941297 |
|      28 | 0x000A      |          10 |
|      29 | 0x052F      |        1327 |
|      30 | 0x003C      |          60 |
|      31 | 0x001A      |          26 |
|      32 | 0xFFFCE84D  |  4294764621 |
|      33 | 0xFFFCAF78  |  4294750072 |
|      34 | 0xFFFEF759  |  4294899545 |
|      35 | 0xFFFCF0DC  |  4294766812 |
|      36 | 0xFFFCE187  |  4294762887 |
|      37 | 0xFFFEF65B  |  4294899291 |
|      38 | 0x0007      |           7 |
|      39 | 0x0001      |           1 |
|      40 | 0x0000      |           0 |
|      41 | 0x000B      |          11 |
|      42 | 0x00A2      |         162 |
|      43 | 0x0002      |           2 |
|      44 | 0x0091      |         145 |
|      45 | 0x00DB      |         219 |
|      46 | 0x008C      |         140 |
|      47 | 0x0080      |         128 |

## Events

### Event 65535

#### Metadata

| Field        | Value   |
|--------------|---------|
| Entrypoint   | 0x0000  |
| Data Size    | 1 bytes |
| Instructions | 1       |

```
      00 01 02 03 04 05 06 07  08 09 0A 0B 0C 0D 0E 0F
      -- -- -- -- -- -- -- --  -- -- -- -- -- -- -- --
0000: 00                                                .               
```

#### Opcodes

```
  0: 0x0000 [0x00] END_REQSTACK()
```

### Event 158

#### Metadata

| Field        | Value   |
|--------------|---------|
| Entrypoint   | 0x0001  |
| Data Size    | 1 bytes |
| Instructions | 1       |

```
      00 01 02 03 04 05 06 07  08 09 0A 0B 0C 0D 0E 0F
      -- -- -- -- -- -- -- --  -- -- -- -- -- -- -- --
0000:    00                                              .              
```

#### Opcodes

```
  0: 0x0001 [0x00] END_REQSTACK()
```

### Event 165

#### Metadata

| Field        | Value   |
|--------------|---------|
| Entrypoint   | 0x0002  |
| Data Size    | 1 bytes |
| Instructions | 1       |

```
      00 01 02 03 04 05 06 07  08 09 0A 0B 0C 0D 0E 0F
      -- -- -- -- -- -- -- --  -- -- -- -- -- -- -- --
0000:       00                                            .             
```

#### Opcodes

```
  0: 0x0002 [0x00] END_REQSTACK()
```

### Event 168

#### Metadata

| Field        | Value   |
|--------------|---------|
| Entrypoint   | 0x0003  |
| Data Size    | 1 bytes |
| Instructions | 1       |

```
      00 01 02 03 04 05 06 07  08 09 0A 0B 0C 0D 0E 0F
      -- -- -- -- -- -- -- --  -- -- -- -- -- -- -- --
0000:          00                                          .            
```

#### Opcodes

```
  0: 0x0003 [0x00] END_REQSTACK()
```

### Event 65535.1

#### Metadata

| Field        | Value    |
|--------------|----------|
| Entrypoint   | 0x0004   |
| Data Size    | 26 bytes |
| Instructions | 8        |

```
      00 01 02 03 04 05 06 07  08 09 0A 0B 0C 0D 0E 0F
      -- -- -- -- -- -- -- --  -- -- -- -- -- -- -- --
0000:             32 00 80 1F  00 01 80 02 80 03 80 1F      2...........
0010: 01 6F 1F 00 04 80 05 80  06 80 1F 01 6F 00        .o..........o.  
```

#### Opcodes

```
  0: 0x0004 [0x32] ExtData[1]->MainSpeed = 40* * 0.1
  1: 0x0007 [0x1F] MOVE_ENTITY: EventEntity moves to X=-24.042*, Z=39.082*, Y=-3.499*
  2: 0x000F [0x1F] MOVE_ENTITY: Update entity position (mode=1)
  3: 0x0011 [0x6F] WAIT_FRAME_DELAY: Yield until WaitTime reaches zero
  4: 0x0012 [0x1F] MOVE_ENTITY: EventEntity moves to X=-15.676*, Z=38.844*, Y=-1.156*
  5: 0x001A [0x1F] MOVE_ENTITY: Update entity position (mode=1)
  6: 0x001C [0x6F] WAIT_FRAME_DELAY: Yield until WaitTime reaches zero
  7: 0x001D [0x00] END_REQSTACK()
```

### Event 65535.2

#### Metadata

| Field        | Value    |
|--------------|----------|
| Entrypoint   | 0x001E   |
| Data Size    | 18 bytes |
| Instructions | 6        |

```
      00 01 02 03 04 05 06 07  08 09 0A 0B 0C 0D 0E 0F
      -- -- -- -- -- -- -- --  -- -- -- -- -- -- -- --
0010:                                            32 00                2.
0020: 80 1F 00 07 80 08 80 09  80 1F 01 6F 39 0A 80 00  ...........o9...
```

#### Opcodes

```
  0: 0x001E [0x32] ExtData[1]->MainSpeed = 40* * 0.1
  1: 0x0021 [0x1F] MOVE_ENTITY: EventEntity moves to X=-3.562*, Z=36.373*, Y=-1.000*
  2: 0x0029 [0x1F] MOVE_ENTITY: Update entity position (mode=1)
  3: 0x002B [0x6F] WAIT_FRAME_DELAY: Yield until WaitTime reaches zero
  4: 0x002C [0x39] SET_ENTITY_DIRECTION(direction=16.8°*)
  5: 0x002F [0x00] END_REQSTACK()
```

### Event 65535.3

#### Metadata

| Field        | Value    |
|--------------|----------|
| Entrypoint   | 0x0030   |
| Data Size    | 20 bytes |
| Instructions | 6        |

```
      00 01 02 03 04 05 06 07  08 09 0A 0B 0C 0D 0E 0F
      -- -- -- -- -- -- -- --  -- -- -- -- -- -- -- --
0030: 32 0B 80 1F 00 0C 80 0D  80 0E 80 1F 01 6F 1E F0  2............o..
0040: FF FF 7F 00                                       ....            
```

#### Opcodes

```
  0: 0x0030 [0x32] ExtData[1]->MainSpeed = 13* * 0.1
  1: 0x0033 [0x1F] MOVE_ENTITY: EventEntity moves to X=-5.114*, Z=33.241*, Y=-0.999*
  2: 0x003B [0x1F] MOVE_ENTITY: Update entity position (mode=1)
  3: 0x003D [0x6F] WAIT_FRAME_DELAY: Yield until WaitTime reaches zero
  4: 0x003E [0x1E] EventEntity looks at LocalPlayer and starts talking
  5: 0x0043 [0x00] END_REQSTACK()
```

### Event 65535.4

#### Metadata

| Field        | Value    |
|--------------|----------|
| Entrypoint   | 0x0044   |
| Data Size    | 20 bytes |
| Instructions | 6        |

```
      00 01 02 03 04 05 06 07  08 09 0A 0B 0C 0D 0E 0F
      -- -- -- -- -- -- -- --  -- -- -- -- -- -- -- --
0040:             32 00 80 1F  00 0F 80 10 80 09 80 1F      2...........
0050: 01 6F 1E 36 E2 05 01 00                           .o.6....        
```

#### Opcodes

```
  0: 0x0044 [0x32] ExtData[1]->MainSpeed = 40* * 0.1
  1: 0x0047 [0x1F] MOVE_ENTITY: EventEntity moves to X=-5.244*, Z=36.389*, Y=-1.000*
  2: 0x004F [0x1F] MOVE_ENTITY: Update entity position (mode=1)
  3: 0x0051 [0x6F] WAIT_FRAME_DELAY: Yield until WaitTime reaches zero
  4: 0x0052 [0x1E] EventEntity looks at Lehko Habhoka (ID: 17162806/0x0105E236) and starts talking
  5: 0x0057 [0x00] END_REQSTACK()
```

### Event 65535.5

#### Metadata

| Field        | Value    |
|--------------|----------|
| Entrypoint   | 0x0058   |
| Data Size    | 42 bytes |
| Instructions | 8        |

```
      00 01 02 03 04 05 06 07  08 09 0A 0B 0C 0D 0E 0F
      -- -- -- -- -- -- -- --  -- -- -- -- -- -- -- --
0050:                          1F 00 11 80 12 80 13 80          ........
0060: 1F 01 6F 4A 0E E2 05 01  08 E2 05 01 6F 76 0E E2  ..oJ........ov..
0070: 05 01 5B 14 80 0E E2 05  01 0E E2 05 01 6D 6B 61  ..[..........mka
0080: 30 00                                             0.              
```

#### Opcodes

```
  0: 0x0058 [0x1F] MOVE_ENTITY: EventEntity moves to X=-40.336*, Z=215.129*, Y=-5.000*
  1: 0x0060 [0x1F] MOVE_ENTITY: Update entity position (mode=1)
  2: 0x0062 [0x6F] WAIT_FRAME_DELAY: Yield until WaitTime reaches zero
  3: 0x0063 [0x4A] Mikhe Aryohcha (ID: 17162766/0x0105E20E) looks at Romaa Mihgo (ID: 17162760/0x0105E208)
  4: 0x006C [0x6F] WAIT_FRAME_DELAY: Yield until WaitTime reaches zero
  5: 0x006D [0x76] CHECK_ENTITY_RENDER_FLAGS: Wait until Mikhe Aryohcha (ID: 17162766/0x0105E20E) Render.Flags0 and Render.Flags3 conditions are met
  6: 0x0072 [0x5B] LOAD_EXT_SCHEDULER: Load scheduler "mka0" with entities [Mikhe Aryohcha (ID: 17162766/0x0105E20E), Mikhe Aryohcha (ID: 17162766/0x0105E20E)], work=2058*
  7: 0x0081 [0x00] END_REQSTACK()
```

### Event 182

#### Metadata

| Field        | Value   |
|--------------|---------|
| Entrypoint   | 0x0082  |
| Data Size    | 1 bytes |
| Instructions | 1       |

```
      00 01 02 03 04 05 06 07  08 09 0A 0B 0C 0D 0E 0F
      -- -- -- -- -- -- -- --  -- -- -- -- -- -- -- --
0080:       00                                            .             
```

#### Opcodes

```
  0: 0x0082 [0x00] END_REQSTACK()
```

### Event 23

#### Metadata

| Field        | Value   |
|--------------|---------|
| Entrypoint   | 0x0083  |
| Data Size    | 1 bytes |
| Instructions | 1       |

```
      00 01 02 03 04 05 06 07  08 09 0A 0B 0C 0D 0E 0F
      -- -- -- -- -- -- -- --  -- -- -- -- -- -- -- --
0080:          00                                          .            
```

#### Opcodes

```
  0: 0x0083 [0x00] END_REQSTACK()
```

### Event 65535.6

#### Metadata

| Field        | Value    |
|--------------|----------|
| Entrypoint   | 0x0084   |
| Data Size    | 24 bytes |
| Instructions | 6        |

```
      00 01 02 03 04 05 06 07  08 09 0A 0B 0C 0D 0E 0F
      -- -- -- -- -- -- -- --  -- -- -- -- -- -- -- --
0080:             32 15 80 1F  00 16 80 17 80 18 80 1F      2...........
0090: 01 1F 00 19 80 1A 80 1B  80 1F 01 00              ............    
```

#### Opcodes

```
  0: 0x0084 [0x32] ExtData[1]->MainSpeed = 35* * 0.1
  1: 0x0087 [0x1F] MOVE_ENTITY: EventEntity moves to X=0.703*, Z=-2.351*, Y=-25.499*
  2: 0x008F [0x1F] MOVE_ENTITY: Update entity position (mode=1)
  3: 0x0091 [0x1F] MOVE_ENTITY: EventEntity moves to X=29.065*, Z=2.524*, Y=-25.999*
  4: 0x0099 [0x1F] MOVE_ENTITY: Update entity position (mode=1)
  5: 0x009B [0x00] END_REQSTACK()
```

### Event 33

#### Metadata

| Field        | Value   |
|--------------|---------|
| Entrypoint   | 0x009C  |
| Data Size    | 1 bytes |
| Instructions | 1       |

```
      00 01 02 03 04 05 06 07  08 09 0A 0B 0C 0D 0E 0F
      -- -- -- -- -- -- -- --  -- -- -- -- -- -- -- --
0090:                                      00                       .   
```

#### Opcodes

```
  0: 0x009C [0x00] END_REQSTACK()
```

### Event 65535.7

#### Metadata

| Field        | Value    |
|--------------|----------|
| Entrypoint   | 0x009D   |
| Data Size    | 25 bytes |
| Instructions | 5        |

```
      00 01 02 03 04 05 06 07  08 09 0A 0B 0C 0D 0E 0F
      -- -- -- -- -- -- -- --  -- -- -- -- -- -- -- --
0090:                                         6E F8 FF               n..
00A0: FF 7F 1C 80 99 F8 FF FF  7F 6E F8 FF FF 7F 0B 80  .........n......
00B0: 99 F8 FF FF 7F 00                                 ......          
```

#### Opcodes

```
  0: 0x009D [0x6E] EventEntity uses emote 10*
  1: 0x00A4 [0x99] Wait for EventEntity animation to complete
  2: 0x00A9 [0x6E] EventEntity uses emote 13*
  3: 0x00B0 [0x99] Wait for EventEntity animation to complete
  4: 0x00B5 [0x00] END_REQSTACK()
```

### Event 65535.8

#### Metadata

| Field        | Value    |
|--------------|----------|
| Entrypoint   | 0x00B6   |
| Data Size    | 16 bytes |
| Instructions | 2        |

```
      00 01 02 03 04 05 06 07  08 09 0A 0B 0C 0D 0E 0F
      -- -- -- -- -- -- -- --  -- -- -- -- -- -- -- --
00B0:                   5B 1D  80 F8 FF FF 7F F8 FF FF        [.........
00C0: 7F 73 74 61 30 00                                 .sta0.          
```

#### Opcodes

```
  0: 0x00B6 [0x5B] LOAD_EXT_SCHEDULER: Load scheduler "sta0" with entities [EventEntity, EventEntity], work=1327*
  1: 0x00C5 [0x00] END_REQSTACK()
```

### Event 65535.9

#### Metadata

| Field        | Value    |
|--------------|----------|
| Entrypoint   | 0x00C6   |
| Data Size    | 16 bytes |
| Instructions | 4        |

```
      00 01 02 03 04 05 06 07  08 09 0A 0B 0C 0D 0E 0F
      -- -- -- -- -- -- -- --  -- -- -- -- -- -- -- --
00C0:                   1C 1E  80 6E F8 FF FF 7F 1F 80        ...n......
00D0: 99 F8 FF FF 7F 00                                 ......          
```

#### Opcodes

```
  0: 0x00C6 [0x1C] WAIT(60* ticks)
  1: 0x00C9 [0x6E] EventEntity uses emote 26*
  2: 0x00D0 [0x99] Wait for EventEntity animation to complete
  3: 0x00D5 [0x00] END_REQSTACK()
```

### Event 65535.10

#### Metadata

| Field        | Value    |
|--------------|----------|
| Entrypoint   | 0x00D6   |
| Data Size    | 24 bytes |
| Instructions | 6        |

```
      00 01 02 03 04 05 06 07  08 09 0A 0B 0C 0D 0E 0F
      -- -- -- -- -- -- -- --  -- -- -- -- -- -- -- --
00D0:                   32 0B  80 1F 00 20 80 21 80 22        2.... .!."
00E0: 80 1F 01 1F 00 23 80 24  80 25 80 1F 01 00        .....#.$.%....  
```

#### Opcodes

```
  0: 0x00D6 [0x32] ExtData[1]->MainSpeed = 13* * 0.1
  1: 0x00D9 [0x1F] MOVE_ENTITY: EventEntity moves to X=-202.675*, Z=-217.224*, Y=-67.751*
  2: 0x00E1 [0x1F] MOVE_ENTITY: Update entity position (mode=1)
  3: 0x00E3 [0x1F] MOVE_ENTITY: EventEntity moves to X=-200.484*, Z=-204.409*, Y=-68.005*
  4: 0x00EB [0x1F] MOVE_ENTITY: Update entity position (mode=1)
  5: 0x00ED [0x00] END_REQSTACK()
```

### Event 65535.11

#### Metadata

| Field        | Value    |
|--------------|----------|
| Entrypoint   | 0x00EE   |
| Data Size    | 21 bytes |
| Instructions | 2        |

```
      00 01 02 03 04 05 06 07  08 09 0A 0B 0C 0D 0E 0F
      -- -- -- -- -- -- -- --  -- -- -- -- -- -- -- --
00E0:                                            B6 0B                ..
00F0: 26 80 27 80 28 80 29 80  29 80 2A 80 2A 80 28 80  &.'.(.).).*.*.(.
0100: 28 80 00                                          (..             
```

#### Opcodes

```
  0: 0x00EE [0xB6] ENTITY_APPEARANCE_HANDLER(case=Full entity look, race=7*, hair=1*, head=0*, body=11*, hands=11*, legs=162*, feet=162*, main=0*, sub=0*)
  1: 0x0102 [0x00] END_REQSTACK()
```

### Event 65535.12

#### Metadata

| Field        | Value    |
|--------------|----------|
| Entrypoint   | 0x0103   |
| Data Size    | 21 bytes |
| Instructions | 2        |

```
      00 01 02 03 04 05 06 07  08 09 0A 0B 0C 0D 0E 0F
      -- -- -- -- -- -- -- --  -- -- -- -- -- -- -- --
0100:          B6 0B 26 80 2B  80 2C 80 2D 80 2D 80 2D     ..&.+.,.-.-.-
0110: 80 2D 80 2E 80 2E 80 00                           .-......        
```

#### Opcodes

```
  0: 0x0103 [0xB6] ENTITY_APPEARANCE_HANDLER(case=Full entity look, race=7*, hair=2*, head=145*, body=219*, hands=219*, legs=219*, feet=219*, main=140*, sub=140*)
  1: 0x0117 [0x00] END_REQSTACK()
```

### Event 65535.13

#### Metadata

| Field        | Value   |
|--------------|---------|
| Entrypoint   | 0x0118  |
| Data Size    | 1 bytes |
| Instructions | 1       |

```
      00 01 02 03 04 05 06 07  08 09 0A 0B 0C 0D 0E 0F
      -- -- -- -- -- -- -- --  -- -- -- -- -- -- -- --
0110:                          00                               .       
```

#### Opcodes

```
  0: 0x0118 [0x00] END_REQSTACK()
```

### Event 65535.14

#### Metadata

| Field        | Value    |
|--------------|----------|
| Entrypoint   | 0x0119   |
| Data Size    | 18 bytes |
| Instructions | 4        |

```
      00 01 02 03 04 05 06 07  08 09 0A 0B 0C 0D 0E 0F
      -- -- -- -- -- -- -- --  -- -- -- -- -- -- -- --
0110:                             22 00 2F 00 F8 FF FF           "./....
0120: 7F 6C F8 FF FF 7F 28 80  27 80 00                 .l....(.'..     
```

#### Opcodes

```
  0: 0x0119 [0x22] ENTITY_HIDE_FLAG(enabled=0x00)
  1: 0x011B [0x2F] EventEntity->Render.Flags0 &= ~0x80000 // Bit 19
  2: 0x0121 [0x6C] FADE_ENTITY_COLOR(entity_id=EventEntity, end_alpha=0*, fade_time=1*)
  3: 0x012A [0x00] END_REQSTACK()
```

### Event 65535.15

#### Metadata

| Field        | Value    |
|--------------|----------|
| Entrypoint   | 0x012B   |
| Data Size    | 10 bytes |
| Instructions | 2        |

```
      00 01 02 03 04 05 06 07  08 09 0A 0B 0C 0D 0E 0F
      -- -- -- -- -- -- -- --  -- -- -- -- -- -- -- --
0120:                                   6C F8 FF FF 7F             l....
0130: 2F 80 27 80 00                                    /.'..           
```

#### Opcodes

```
  0: 0x012B [0x6C] FADE_ENTITY_COLOR(entity_id=EventEntity, end_alpha=128*, fade_time=1*)
  1: 0x0134 [0x00] END_REQSTACK()
```

### Event 65535.16

#### Metadata

| Field        | Value   |
|--------------|---------|
| Entrypoint   | 0x0135  |
| Data Size    | 9 bytes |
| Instructions | 3       |

```
      00 01 02 03 04 05 06 07  08 09 0A 0B 0C 0D 0E 0F
      -- -- -- -- -- -- -- --  -- -- -- -- -- -- -- --
0130:                22 00 2F  00 F8 FF FF 7F 00             "./......  
```

#### Opcodes

```
  0: 0x0135 [0x22] ENTITY_HIDE_FLAG(enabled=0x00)
  1: 0x0137 [0x2F] EventEntity->Render.Flags0 &= ~0x80000 // Bit 19
  2: 0x013D [0x00] END_REQSTACK()
```

### Event 65535.17

#### Metadata

| Field        | Value   |
|--------------|---------|
| Entrypoint   | 0x013E  |
| Data Size    | 9 bytes |
| Instructions | 3       |

```
      00 01 02 03 04 05 06 07  08 09 0A 0B 0C 0D 0E 0F
      -- -- -- -- -- -- -- --  -- -- -- -- -- -- -- --
0130:                                            22 01                ".
0140: 2F 01 F8 FF FF 7F 00                              /......         
```

#### Opcodes

```
  0: 0x013E [0x22] ENTITY_HIDE_FLAG(enabled=0x01)
  1: 0x0140 [0x2F] EventEntity->Render.Flags0 |= 0x80000 // Bit 19
  2: 0x0146 [0x00] END_REQSTACK()
```

### Event 65535.18

#### Metadata

| Field        | Value    |
|--------------|----------|
| Entrypoint   | 0x0147   |
| Data Size    | 10 bytes |
| Instructions | 2        |

```
      00 01 02 03 04 05 06 07  08 09 0A 0B 0C 0D 0E 0F
      -- -- -- -- -- -- -- --  -- -- -- -- -- -- -- --
0140:                      6C  F8 FF FF 7F 28 80 27 80         l....(.'.
0150: 00                                                .               
```

#### Opcodes

```
  0: 0x0147 [0x6C] FADE_ENTITY_COLOR(entity_id=EventEntity, end_alpha=0*, fade_time=1*)
  1: 0x0150 [0x00] END_REQSTACK()
```

### Event 65535.19

#### Metadata

| Field        | Value    |
|--------------|----------|
| Entrypoint   | 0x0151   |
| Data Size    | 10 bytes |
| Instructions | 2        |

```
      00 01 02 03 04 05 06 07  08 09 0A 0B 0C 0D 0E 0F
      -- -- -- -- -- -- -- --  -- -- -- -- -- -- -- --
0150:    6C F8 FF FF 7F 2F 80  27 80 00                  l..../.'..     
```

#### Opcodes

```
  0: 0x0151 [0x6C] FADE_ENTITY_COLOR(entity_id=EventEntity, end_alpha=128*, fade_time=1*)
  1: 0x015A [0x00] END_REQSTACK()
```
