# 17162972 - 09

## Common Data

| Field            | Value                        |
|------------------|------------------------------|
| Zone             | Windurst Waters [S] (ID: 94) |
| Block Size       | 140 bytes                    |
| Total Events     | 4                            |
| References Count | 12                           |

## List of Events

| Event ID                 | Entrypoint   |   Size |   Instructions |
|--------------------------|--------------|--------|----------------|
| [65535](#event-65535)    | 0x0000       |      1 |              1 |
| [23](#event-23)          | 0x0001       |      1 |              1 |
| [65535.1](#event-655351) | 0x0002       |     19 |              5 |
| [65535.2](#event-655352) | 0x0015       |     37 |              9 |

## DAT References (imed_data)

|   Index | Hex Value   |   Dec Value |
|---------|-------------|-------------|
|       0 | 0x0096      |         150 |
|       1 | 0x0014      |          20 |
|       2 | 0x003C      |          60 |
|       3 | 0x0023      |          35 |
|       4 | 0xFFFFF075  |  4294963317 |
|       5 | 0x1DF38     |      122680 |
|       6 | 0xFFFFC181  |  4294951297 |
|       7 | 0x02DC      |         732 |
|       8 | 0x1EFC4     |      126916 |
|       9 | 0xFFFFBE93  |  4294950547 |
|      10 | 0x0C15      |        3093 |
|      11 | 0x23B8E     |      146318 |

## Events

### Event 65535

#### Metadata

| Field        | Value   |
|--------------|---------|
| Entrypoint   | 0x0000  |
| Data Size    | 1 bytes |
| Instructions | 1       |

```
      00 01 02 03 04 05 06 07  08 09 0A 0B 0C 0D 0E 0F
      -- -- -- -- -- -- -- --  -- -- -- -- -- -- -- --
0000: 00                                                .               
```

#### Opcodes

```
  0: 0x0000 [0x00] END_REQSTACK()
```

### Event 23

#### Metadata

| Field        | Value   |
|--------------|---------|
| Entrypoint   | 0x0001  |
| Data Size    | 1 bytes |
| Instructions | 1       |

```
      00 01 02 03 04 05 06 07  08 09 0A 0B 0C 0D 0E 0F
      -- -- -- -- -- -- -- --  -- -- -- -- -- -- -- --
0000:    00                                              .              
```

#### Opcodes

```
  0: 0x0001 [0x00] END_REQSTACK()
```

### Event 65535.1

#### Metadata

| Field        | Value    |
|--------------|----------|
| Entrypoint   | 0x0002   |
| Data Size    | 19 bytes |
| Instructions | 4        |

```
      00 01 02 03 04 05 06 07  08 09 0A 0B 0C 0D 0E 0F
      -- -- -- -- -- -- -- --  -- -- -- -- -- -- -- --
0000:       1C 00 80 6E DC E2  05 01 01 80 99 DC E2 05    ...n..........
0010: 01 01 02 00 00                                    .....           
```

#### Opcodes

```
  0: 0x0002 [0x1C] WAIT(150* ticks)
  1: 0x0005 [0x6E] 09 (ID: 17162972/0x0105E2DC) uses emote 20*
  2: 0x000C [0x99] Wait for 09 (ID: 17162972/0x0105E2DC) animation to complete
  3: 0x0011 [0x01] GOTO 0x0002
```

#### Data or dead code:

```
# Dead code (unreachable instructions):
     0x0014 [0x00] END_REQSTACK()
```

### Event 65535.2

#### Metadata

| Field        | Value    |
|--------------|----------|
| Entrypoint   | 0x0015   |
| Data Size    | 37 bytes |
| Instructions | 9        |

```
      00 01 02 03 04 05 06 07  08 09 0A 0B 0C 0D 0E 0F
      -- -- -- -- -- -- -- --  -- -- -- -- -- -- -- --
0010:                1C 02 80  32 03 80 1F 00 04 80 05       ...2.......
0020: 80 06 80 1F 01 1F 00 07  80 08 80 09 80 1F 01 1F  ................
0030: 00 0A 80 0B 80 09 80 1F  01 00                    ..........      
```

#### Opcodes

```
  0: 0x0015 [0x1C] WAIT(60* ticks)
  1: 0x0018 [0x32] ExtData[1]->MainSpeed = 35* * 0.1
  2: 0x001B [0x1F] MOVE_ENTITY: EventEntity moves to X=-3.979*, Z=122.680*, Y=-15.999*
  3: 0x0023 [0x1F] MOVE_ENTITY: Update entity position (mode=1)
  4: 0x0025 [0x1F] MOVE_ENTITY: EventEntity moves to X=0.732*, Z=126.916*, Y=-16.749*
  5: 0x002D [0x1F] MOVE_ENTITY: Update entity position (mode=1)
  6: 0x002F [0x1F] MOVE_ENTITY: EventEntity moves to X=3.093*, Z=146.318*, Y=-16.749*
  7: 0x0037 [0x1F] MOVE_ENTITY: Update entity position (mode=1)
  8: 0x0039 [0x00] END_REQSTACK()
```
