# 17162790

## Common Data

| Field            | Value                        |
|------------------|------------------------------|
| Zone             | Windurst Waters [S] (ID: 94) |
| Block Size       | 3932 bytes                   |
| Total Events     | 64                           |
| References Count | 230                          |

## List of Events

| Event ID                   | Entrypoint   |   Size |   Instructions |
|----------------------------|--------------|--------|----------------|
| [65535](#event-65535)      | 0x0000       |      1 |              1 |
| [130](#event-130)          | 0x0001       |      1 |              1 |
| [65535.1](#event-655351)   | 0x0002       |     25 |              3 |
| [65535.2](#event-655352)   | 0x001B       |     15 |              5 |
| [65535.3](#event-655353)   | 0x002A       |      1 |              1 |
| [65535.4](#event-655354)   | 0x002B       |     18 |              4 |
| [65535.5](#event-655355)   | 0x003D       |     10 |              2 |
| [65535.6](#event-655356)   | 0x0047       |      9 |              3 |
| [65535.7](#event-655357)   | 0x0050       |      9 |              3 |
| [65535.8](#event-655358)   | 0x0059       |     10 |              2 |
| [65535.9](#event-655359)   | 0x0063       |     10 |              2 |
| [65535.10](#event-6553510) | 0x006D       |     22 |              2 |
| [65535.11](#event-6553511) | 0x0083       |    167 |             35 |
| [65535.12](#event-6553512) | 0x012A       |    186 |             38 |
| [65535.13](#event-6553513) | 0x01E4       |     83 |             18 |
| [65535.14](#event-6553514) | 0x0237       |    154 |             32 |
| [65535.15](#event-6553515) | 0x02D1       |    167 |             35 |
| [65535.16](#event-6553516) | 0x0378       |     69 |             15 |
| [65535.17](#event-6553517) | 0x03BD       |     38 |              9 |
| [65535.18](#event-6553518) | 0x03E3       |     38 |              9 |
| [65535.19](#event-6553519) | 0x0409       |     48 |             11 |
| [65535.20](#event-6553520) | 0x0439       |     19 |              4 |
| [65535.21](#event-6553521) | 0x044C       |     22 |              5 |
| [65535.22](#event-6553522) | 0x0462       |     22 |              5 |
| [65535.23](#event-6553523) | 0x0478       |     13 |              5 |
| [65535.24](#event-6553524) | 0x0485       |    221 |             26 |
| [65535.25](#event-6553525) | 0x0562       |     76 |              8 |
| [65535.26](#event-6553526) | 0x05AE       |     49 |              5 |
| [65535.27](#event-6553527) | 0x05DF       |     29 |              6 |
| [65535.28](#event-6553528) | 0x05FC       |     49 |              7 |
| [65535.29](#event-6553529) | 0x062D       |     20 |              5 |
| [65535.30](#event-6553530) | 0x0641       |     47 |              6 |
| [65535.31](#event-6553531) | 0x0670       |     21 |              3 |
| [65535.32](#event-6553532) | 0x0685       |    161 |             17 |
| [65535.33](#event-6553533) | 0x0726       |     20 |              5 |
| [20](#event-20)            | 0x073A       |      1 |              1 |
| [65535.34](#event-6553534) | 0x073B       |     30 |              7 |
| [65535.35](#event-6553535) | 0x0759       |     22 |              2 |
| [65535.36](#event-6553536) | 0x076F       |      9 |              5 |
| [65535.37](#event-6553537) | 0x0778       |     13 |              3 |
| [65535.38](#event-6553538) | 0x0785       |     10 |              2 |
| [65535.39](#event-6553539) | 0x078F       |      5 |              2 |
| [65535.40](#event-6553540) | 0x0794       |      5 |              2 |
| [65535.41](#event-6553541) | 0x0799       |     21 |              2 |
| [65535.42](#event-6553542) | 0x07AE       |     30 |              6 |
| [65535.43](#event-6553543) | 0x07CC       |     54 |             10 |
| [65535.44](#event-6553544) | 0x0802       |     22 |              2 |
| [65535.45](#event-6553545) | 0x0818       |     59 |             12 |
| [65535.46](#event-6553546) | 0x0853       |    165 |             34 |
| [65535.47](#event-6553547) | 0x08F8       |     12 |              4 |
| [65535.48](#event-6553548) | 0x0904       |     38 |              7 |
| [65535.49](#event-6553549) | 0x092A       |     29 |              6 |
| [65535.50](#event-6553550) | 0x0947       |     44 |              7 |
| [65535.51](#event-6553551) | 0x0973       |     40 |              5 |
| [65535.52](#event-6553552) | 0x099B       |     30 |              7 |
| [65535.53](#event-6553553) | 0x09B9       |     22 |              5 |
| [65535.54](#event-6553554) | 0x09CF       |     12 |              4 |
| [65535.55](#event-6553555) | 0x09DB       |     60 |             13 |
| [65535.56](#event-6553556) | 0x0A17       |     21 |              5 |
| [65535.57](#event-6553557) | 0x0A2C       |     87 |             13 |
| [65535.58](#event-6553558) | 0x0A83       |     22 |              2 |
| [65535.59](#event-6553559) | 0x0A99       |     22 |              2 |
| [22](#event-22)            | 0x0AAF       |      1 |              1 |
| [23](#event-23)            | 0x0AB0       |      1 |              1 |

## DAT References (imed_data)

|   Index | Hex Value   |   Dec Value |
|---------|-------------|-------------|
|       0 | 0x0004      |           4 |
|       1 | 0x0000      |           0 |
|       2 | 0x0001      |           1 |
|       3 | 0x001E      |          30 |
|       4 | 0xFFFF5FEE  |  4294926318 |
|       5 | 0x3AB15     |      240405 |
|       6 | 0xFFFFEC79  |  4294962297 |
|       7 | 0x0080      |         128 |
|       8 | 0x0050      |          80 |
|       9 | 0x01CB      |         459 |
|      10 | 0xC01D      |       49181 |
|      11 | 0xFFFFFC18  |  4294966296 |
|      12 | 0xFFFFF61D  |  4294964765 |
|      13 | 0xB4CD      |       46285 |
|      14 | 0xFFFFE4A1  |  4294960289 |
|      15 | 0xA1E9      |       41449 |
|      16 | 0xFFFFCB4E  |  4294953806 |
|      17 | 0x99E9      |       39401 |
|      18 | 0xFFFF383B  |  4294916155 |
|      19 | 0x975A      |       38746 |
|      20 | 0xFFFFF255  |  4294963797 |
|      21 | 0xFFFF0950  |  4294904144 |
|      22 | 0xA6EB      |       42731 |
|      23 | 0xFFFEE28D  |  4294894221 |
|      24 | 0xCA5B      |       51803 |
|      25 | 0xFFFECCEB  |  4294888683 |
|      26 | 0xE7E4      |       59364 |
|      27 | 0xFFFED4DC  |  4294890716 |
|      28 | 0x12692     |       75410 |
|      29 | 0xFFFF05FC  |  4294903292 |
|      30 | 0x13DD1     |       81361 |
|      31 | 0xFFFFEC78  |  4294962296 |
|      32 | 0xFFFF3FE9  |  4294918121 |
|      33 | 0x14635     |       83509 |
|      34 | 0xFFFF58F1  |  4294924529 |
|      35 | 0x156CB     |       87755 |
|      36 | 0xFFFF5F95  |  4294926229 |
|      37 | 0x16818     |       92184 |
|      38 | 0xFFFF633B  |  4294927163 |
|      39 | 0x28E9B     |      167579 |
|      40 | 0xFFFFEC61  |  4294962273 |
|      41 | 0x0096      |         150 |
|      42 | 0x004F      |          79 |
|      43 | 0xFFFFFD21  |  4294966561 |
|      44 | 0xCD5B      |       52571 |
|      45 | 0xFFFFF472  |  4294964338 |
|      46 | 0xC585      |       50565 |
|      47 | 0xFFFFE64E  |  4294960718 |
|      48 | 0xAABD      |       43709 |
|      49 | 0xFFFFD9CC  |  4294957516 |
|      50 | 0x9B38      |       39736 |
|      51 | 0xFFFFCCF6  |  4294954230 |
|      52 | 0x9802      |       38914 |
|      53 | 0xFFFF64E4  |  4294927588 |
|      54 | 0x15EE3     |       89827 |
|      55 | 0xFFFF68EB  |  4294928619 |
|      56 | 0x16CEC     |       93420 |
|      57 | 0xFFFF6A76  |  4294929014 |
|      58 | 0x1835B     |       99163 |
|      59 | 0x0019      |          25 |
|      60 | 0xFFFF9D93  |  4294942099 |
|      61 | 0x153C3     |       86979 |
|      62 | 0x004E      |          78 |
|      63 | 0xFFFF7F27  |  4294934311 |
|      64 | 0x170BF     |       94399 |
|      65 | 0xFFFF6EA5  |  4294930085 |
|      66 | 0x181BB     |       98747 |
|      67 | 0xFFFF6986  |  4294928774 |
|      68 | 0x1A277     |      107127 |
|      69 | 0xFFFFE83A  |  4294961210 |
|      70 | 0x79A0      |       31136 |
|      71 | 0xFFFFFC19  |  4294966297 |
|      72 | 0xFFFFE0B0  |  4294959280 |
|      73 | 0x893B      |       35131 |
|      74 | 0xFFFFD29F  |  4294955679 |
|      75 | 0x9856      |       38998 |
|      76 | 0x00B4      |         180 |
|      77 | 0xFFFFF934  |  4294965556 |
|      78 | 0x7B9B      |       31643 |
|      79 | 0xFFFFEFB1  |  4294963121 |
|      80 | 0x9085      |       36997 |
|      81 | 0xFFFFDE20  |  4294958624 |
|      82 | 0xA00A      |       40970 |
|      83 | 0x0168      |         360 |
|      84 | 0x000F      |          15 |
|      85 | 0xFFFF96A6  |  4294940326 |
|      86 | 0xF877      |       63607 |
|      87 | 0xFFFFF254  |  4294963796 |
|      88 | 0xFFFF9B5E  |  4294941534 |
|      89 | 0xF61A      |       63002 |
|      90 | 0x0028      |          40 |
|      91 | 0xFFFF46D2  |  4294919890 |
|      92 | 0xE60E      |       58894 |
|      93 | 0xFFFF2186  |  4294910342 |
|      94 | 0xD0D7      |       53463 |
|      95 | 0x001B      |          27 |
|      96 | 0xFFFF8952  |  4294936914 |
|      97 | 0x12369     |       74601 |
|      98 | 0xFFFFF20A  |  4294963722 |
|      99 | 0xFFFF2B43  |  4294912835 |
|     100 | 0x10F50     |       69456 |
|     101 | 0xFFFF8D73  |  4294937971 |
|     102 | 0x1266B     |       75371 |
|     103 | 0xFFFFF237  |  4294963767 |
|     104 | 0xFFFF3027  |  4294914087 |
|     105 | 0x113AF     |       70575 |
|     106 | 0xFFFF938A  |  4294939530 |
|     107 | 0x11F80     |       73600 |
|     108 | 0xFFFFF2AA  |  4294963882 |
|     109 | 0xFFFF3332  |  4294914866 |
|     110 | 0x11FA6     |       73638 |
|     111 | 0xFFFF2C4F  |  4294913103 |
|     112 | 0x1196C     |       72044 |
|     113 | 0x002A      |          42 |
|     114 | 0xFFFFA76A  |  4294944618 |
|     115 | 0x13DC9     |       81353 |
|     116 | 0x003C      |          60 |
|     117 | 0x0078      |         120 |
|     118 | 0x0258      |         600 |
|     119 | 0x0005      |           5 |
|     120 | 0x0215      |         533 |
|     121 | 0x012C      |         300 |
|     122 | 0xFFFF11C3  |  4294906307 |
|     123 | 0x1126E     |       70254 |
|     124 | 0x0FFD      |        4093 |
|     125 | 0x0031      |          49 |
|     126 | 0x0508      |        1288 |
|     127 | 0xFFFFEB50  |  4294962000 |
|     128 | 0x3028      |       12328 |
|     129 | 0x00A0      |         160 |
|     130 | 0x0055      |          85 |
|     131 | 0x0007      |           7 |
|     132 | 0xFFFFFECD  |  4294966989 |
|     133 | 0x33C0      |       13248 |
|     134 | 0x0023      |          35 |
|     135 | 0xFFFFFC12  |  4294966290 |
|     136 | 0x3F62      |       16226 |
|     137 | 0x004B      |          75 |
|     138 | 0x00C9      |         201 |
|     139 | 0xFFFFFBDE  |  4294966238 |
|     140 | 0x4419      |       17433 |
|     141 | 0x0408      |        1032 |
|     142 | 0x3D40      |       15680 |
|     143 | 0x09C7      |        2503 |
|     144 | 0x0506      |        1286 |
|     145 | 0x00B5      |         181 |
|     146 | 0x0056      |          86 |
|     147 | 0x0189      |         393 |
|     148 | 0x0BD5      |        3029 |
|     149 | 0x0024      |          36 |
|     150 | 0xFFFFE1FB  |  4294959611 |
|     151 | 0x1E8B      |        7819 |
|     152 | 0xFFFFFBFE  |  4294966270 |
|     153 | 0x0026      |          38 |
|     154 | 0xFFFF5CCD  |  4294925517 |
|     155 | 0x1132D     |       70445 |
|     156 | 0xFFFF68F3  |  4294928627 |
|     157 | 0x11188     |       70024 |
|     158 | 0x092A      |        2346 |
|     159 | 0x08CA      |        2250 |
|     160 | 0x0002      |           2 |
|     161 | 0x00A4      |         164 |
|     162 | 0x003E      |          62 |
|     163 | 0x00D8      |         216 |
|     164 | 0x000D      |          13 |
|     165 | 0x0689      |        1673 |
|     166 | 0xB9BA      |       47546 |
|     167 | 0x00FA      |         250 |
|     168 | 0x000B      |          11 |
|     169 | 0x4AB1A     |      305946 |
|     170 | 0x9933      |       39219 |
|     171 | 0x4A911     |      305425 |
|     172 | 0x9FBD      |       40893 |
|     173 | 0x4AE48     |      306760 |
|     174 | 0xA770      |       42864 |
|     175 | 0x4AD21     |      306465 |
|     176 | 0xA9C8      |       43464 |
|     177 | 0x0010      |          16 |
|     178 | 0x4B096     |      307350 |
|     179 | 0xA512      |       42258 |
|     180 | 0x4B2E7     |      307943 |
|     181 | 0xA039      |       41017 |
|     182 | 0xFFFFF20D  |  4294963725 |
|     183 | 0x4B418     |      308248 |
|     184 | 0x9ABB      |       39611 |
|     185 | 0xFFFFF170  |  4294963568 |
|     186 | 0x4B440     |      308288 |
|     187 | 0x9503      |       38147 |
|     188 | 0xFFFFF158  |  4294963544 |
|     189 | 0x4B2E5     |      307941 |
|     190 | 0x93F6      |       37878 |
|     191 | 0xFFFFF204  |  4294963716 |
|     192 | 0x4AECE     |      306894 |
|     193 | 0x92EB      |       37611 |
|     194 | 0x4AAB3     |      305843 |
|     195 | 0x8F5E      |       36702 |
|     196 | 0x00F0      |         240 |
|     197 | 0x4AE37     |      306743 |
|     198 | 0x89D4      |       35284 |
|     199 | 0xFFFFF1F5  |  4294963701 |
|     200 | 0x005A      |          90 |
|     201 | 0x000A      |          10 |
|     202 | 0xFFFFC2DF  |  4294951647 |
|     203 | 0x14DAE     |       85422 |
|     204 | 0xFFFFCA5B  |  4294953563 |
|     205 | 0x14A8F     |       84623 |
|     206 | 0x052F      |        1327 |
|     207 | 0x096F      |        2415 |
|     208 | 0x002D      |          45 |
|     209 | 0xFFFF9259  |  4294939225 |
|     210 | 0x151CA     |       86474 |
|     211 | 0xFFFFEC77  |  4294962295 |
|     212 | 0xFFFF913B  |  4294938939 |
|     213 | 0x15243     |       86595 |
|     214 | 0xFFFFEC72  |  4294962290 |
|     215 | 0xFFFF9223  |  4294939171 |
|     216 | 0x15152     |       86354 |
|     217 | 0xFFFFEC76  |  4294962294 |
|     218 | 0xFFFF779F  |  4294932383 |
|     219 | 0x17B11     |       97041 |
|     220 | 0xFFFF7015  |  4294930453 |
|     221 | 0x188AE     |      100526 |
|     222 | 0xFFFF69F3  |  4294928883 |
|     223 | 0x19936     |      104758 |
|     224 | 0xFFFF676A  |  4294928234 |
|     225 | 0x1A3DB     |      107483 |
|     226 | 0xFFFFC497  |  4294952087 |
|     227 | 0x14A26     |       84518 |
|     228 | 0x00D2      |         210 |
|     229 | 0x0571      |        1393 |

## Events

### Event 65535

#### Metadata

| Field        | Value   |
|--------------|---------|
| Entrypoint   | 0x0000  |
| Data Size    | 1 bytes |
| Instructions | 1       |

```
      00 01 02 03 04 05 06 07  08 09 0A 0B 0C 0D 0E 0F
      -- -- -- -- -- -- -- --  -- -- -- -- -- -- -- --
0000: 00                                                .               
```

#### Opcodes

```
  0: 0x0000 [0x00] END_REQSTACK()
```

### Event 130

#### Metadata

| Field        | Value   |
|--------------|---------|
| Entrypoint   | 0x0001  |
| Data Size    | 1 bytes |
| Instructions | 1       |

```
      00 01 02 03 04 05 06 07  08 09 0A 0B 0C 0D 0E 0F
      -- -- -- -- -- -- -- --  -- -- -- -- -- -- -- --
0000:    00                                              .              
```

#### Opcodes

```
  0: 0x0001 [0x00] END_REQSTACK()
```

### Event 65535.1

#### Metadata

| Field        | Value    |
|--------------|----------|
| Entrypoint   | 0x0002   |
| Data Size    | 25 bytes |
| Instructions | 3        |

```
      00 01 02 03 04 05 06 07  08 09 0A 0B 0C 0D 0E 0F
      -- -- -- -- -- -- -- --  -- -- -- -- -- -- -- --
0000:       7E 06 26 E2 05 01  00 80 01 80 02 80 02 80    ~.&...........
0010: 02 80 02 80 7E 04 26 E2  05 01 00                 ....~.&....     
```

#### Opcodes

```
  0: 0x0002 [0x7E] CHOCOBO_MOUNT: Mode 6 (custom mount) on Unnamed NPC (ID: 17162790/0x0105E226)
  1: 0x0014 [0x7E] CHOCOBO_MOUNT: Mode 4 on Unnamed NPC (ID: 17162790/0x0105E226)
  2: 0x001A [0x00] END_REQSTACK()
```

### Event 65535.2

#### Metadata

| Field        | Value    |
|--------------|----------|
| Entrypoint   | 0x001B   |
| Data Size    | 15 bytes |
| Instructions | 5        |

```
      00 01 02 03 04 05 06 07  08 09 0A 0B 0C 0D 0E 0F
      -- -- -- -- -- -- -- --  -- -- -- -- -- -- -- --
0010:                                   32 03 80 1F 00             2....
0020: 04 80 05 80 06 80 1F 01  6F 00                    ........o.      
```

#### Opcodes

```
  0: 0x001B [0x32] ExtData[1]->MainSpeed = 30* * 0.1
  1: 0x001E [0x1F] MOVE_ENTITY: EventEntity moves to X=-40.978*, Z=240.405*, Y=-4.999*
  2: 0x0026 [0x1F] MOVE_ENTITY: Update entity position (mode=1)
  3: 0x0028 [0x6F] WAIT_FRAME_DELAY: Yield until WaitTime reaches zero
  4: 0x0029 [0x00] END_REQSTACK()
```

### Event 65535.3

#### Metadata

| Field        | Value   |
|--------------|---------|
| Entrypoint   | 0x002A  |
| Data Size    | 1 bytes |
| Instructions | 1       |

```
      00 01 02 03 04 05 06 07  08 09 0A 0B 0C 0D 0E 0F
      -- -- -- -- -- -- -- --  -- -- -- -- -- -- -- --
0020:                                00                           .     
```

#### Opcodes

```
  0: 0x002A [0x00] END_REQSTACK()
```

### Event 65535.4

#### Metadata

| Field        | Value    |
|--------------|----------|
| Entrypoint   | 0x002B   |
| Data Size    | 18 bytes |
| Instructions | 4        |

```
      00 01 02 03 04 05 06 07  08 09 0A 0B 0C 0D 0E 0F
      -- -- -- -- -- -- -- --  -- -- -- -- -- -- -- --
0020:                                   22 00 2F 00 F8             "./..
0030: FF FF 7F 6C F8 FF FF 7F  01 80 02 80 00           ...l.........   
```

#### Opcodes

```
  0: 0x002B [0x22] ENTITY_HIDE_FLAG(enabled=0x00)
  1: 0x002D [0x2F] EventEntity->Render.Flags0 &= ~0x80000 // Bit 19
  2: 0x0033 [0x6C] FADE_ENTITY_COLOR(entity_id=EventEntity, end_alpha=0*, fade_time=1*)
  3: 0x003C [0x00] END_REQSTACK()
```

### Event 65535.5

#### Metadata

| Field        | Value    |
|--------------|----------|
| Entrypoint   | 0x003D   |
| Data Size    | 10 bytes |
| Instructions | 2        |

```
      00 01 02 03 04 05 06 07  08 09 0A 0B 0C 0D 0E 0F
      -- -- -- -- -- -- -- --  -- -- -- -- -- -- -- --
0030:                                         6C F8 FF               l..
0040: FF 7F 07 80 02 80 00                              .......         
```

#### Opcodes

```
  0: 0x003D [0x6C] FADE_ENTITY_COLOR(entity_id=EventEntity, end_alpha=128*, fade_time=1*)
  1: 0x0046 [0x00] END_REQSTACK()
```

### Event 65535.6

#### Metadata

| Field        | Value   |
|--------------|---------|
| Entrypoint   | 0x0047  |
| Data Size    | 9 bytes |
| Instructions | 3       |

```
      00 01 02 03 04 05 06 07  08 09 0A 0B 0C 0D 0E 0F
      -- -- -- -- -- -- -- --  -- -- -- -- -- -- -- --
0040:                      22  00 2F 00 F8 FF FF 7F 00         "./......
```

#### Opcodes

```
  0: 0x0047 [0x22] ENTITY_HIDE_FLAG(enabled=0x00)
  1: 0x0049 [0x2F] EventEntity->Render.Flags0 &= ~0x80000 // Bit 19
  2: 0x004F [0x00] END_REQSTACK()
```

### Event 65535.7

#### Metadata

| Field        | Value   |
|--------------|---------|
| Entrypoint   | 0x0050  |
| Data Size    | 9 bytes |
| Instructions | 3       |

```
      00 01 02 03 04 05 06 07  08 09 0A 0B 0C 0D 0E 0F
      -- -- -- -- -- -- -- --  -- -- -- -- -- -- -- --
0050: 22 01 2F 01 F8 FF FF 7F  00                       "./......       
```

#### Opcodes

```
  0: 0x0050 [0x22] ENTITY_HIDE_FLAG(enabled=0x01)
  1: 0x0052 [0x2F] EventEntity->Render.Flags0 |= 0x80000 // Bit 19
  2: 0x0058 [0x00] END_REQSTACK()
```

### Event 65535.8

#### Metadata

| Field        | Value    |
|--------------|----------|
| Entrypoint   | 0x0059   |
| Data Size    | 10 bytes |
| Instructions | 2        |

```
      00 01 02 03 04 05 06 07  08 09 0A 0B 0C 0D 0E 0F
      -- -- -- -- -- -- -- --  -- -- -- -- -- -- -- --
0050:                             6C F8 FF FF 7F 01 80           l......
0060: 02 80 00                                          ...             
```

#### Opcodes

```
  0: 0x0059 [0x6C] FADE_ENTITY_COLOR(entity_id=EventEntity, end_alpha=0*, fade_time=1*)
  1: 0x0062 [0x00] END_REQSTACK()
```

### Event 65535.9

#### Metadata

| Field        | Value    |
|--------------|----------|
| Entrypoint   | 0x0063   |
| Data Size    | 10 bytes |
| Instructions | 2        |

```
      00 01 02 03 04 05 06 07  08 09 0A 0B 0C 0D 0E 0F
      -- -- -- -- -- -- -- --  -- -- -- -- -- -- -- --
0060:          6C F8 FF FF 7F  07 80 02 80 00              l.........   
```

#### Opcodes

```
  0: 0x0063 [0x6C] FADE_ENTITY_COLOR(entity_id=EventEntity, end_alpha=128*, fade_time=1*)
  1: 0x006C [0x00] END_REQSTACK()
```

### Event 65535.10

#### Metadata

| Field        | Value    |
|--------------|----------|
| Entrypoint   | 0x006D   |
| Data Size    | 22 bytes |
| Instructions | 2        |

```
      00 01 02 03 04 05 06 07  08 09 0A 0B 0C 0D 0E 0F
      -- -- -- -- -- -- -- --  -- -- -- -- -- -- -- --
0060:                                         B6 0E 01               ...
0070: 80 00 80 02 80 01 80 01  80 01 80 02 80 80 F8 FF  ................
0080: FF 7F 00                                          ...             
```

#### Opcodes

```
  0: 0x006D [0xB6] ENTITY_APPEARANCE_HANDLER(case=Look with Render flags, race=0*, face=4*, head=1*, body=0*, hands=0*, render_flags=0x8001)
  1: 0x007B [0x02] IF !(12328* UNKNOWN_COND_15 0xFFF8) GOTO 0x007F
```

### Event 65535.11

#### Metadata

| Field        | Value     |
|--------------|-----------|
| Entrypoint   | 0x0083    |
| Data Size    | 167 bytes |
| Instructions | 35        |

```
      00 01 02 03 04 05 06 07  08 09 0A 0B 0C 0D 0E 0F
      -- -- -- -- -- -- -- --  -- -- -- -- -- -- -- --
0080:          1C 03 80 59 04  1D E2 05 01 08 80 1F 00     ...Y.........
0090: 09 80 0A 80 0B 80 1F 01  1F 00 0C 80 0D 80 0B 80  ................
00A0: 1F 01 1F 00 0E 80 0F 80  0B 80 1F 01 1F 00 10 80  ................
00B0: 11 80 0B 80 1F 01 1F 00  12 80 13 80 14 80 1F 01  ................
00C0: 1F 00 15 80 16 80 14 80  1F 01 1F 00 17 80 18 80  ................
00D0: 14 80 1F 01 1F 00 19 80  1A 80 14 80 1F 01 1F 00  ................
00E0: 1B 80 1C 80 14 80 1F 01  1F 00 1D 80 1E 80 1F 80  ................
00F0: 1F 01 1F 00 20 80 21 80  06 80 1F 01 1F 00 22 80  .... .!.......".
0100: 23 80 06 80 1F 01 1F 00  24 80 25 80 06 80 1F 01  #.......$.%.....
0110: 1F 00 26 80 27 80 28 80  1F 01 6F 7E 05 1D E2 05  ..&.'.(...o~....
0120: 01 22 01 2F 01 F8 FF FF  7F 00                    ."./......      
```

#### Opcodes

```
  0: 0x0083 [0x1C] WAIT(30* ticks)
  1: 0x0086 [0x59] UPDATE_ENTITY_DATA: Set 01 (ID: 17162781/0x0105E21D) main speed = 80* * 0.1
  2: 0x008E [0x1F] MOVE_ENTITY: EventEntity moves to X=0.459*, Z=49.181*, Y=-1.000*
  3: 0x0096 [0x1F] MOVE_ENTITY: Update entity position (mode=1)
  4: 0x0098 [0x1F] MOVE_ENTITY: EventEntity moves to X=-2.531*, Z=46.285*, Y=-1.000*
  5: 0x00A0 [0x1F] MOVE_ENTITY: Update entity position (mode=1)
  6: 0x00A2 [0x1F] MOVE_ENTITY: EventEntity moves to X=-7.007*, Z=41.449*, Y=-1.000*
  7: 0x00AA [0x1F] MOVE_ENTITY: Update entity position (mode=1)
  8: 0x00AC [0x1F] MOVE_ENTITY: EventEntity moves to X=-13.490*, Z=39.401*, Y=-1.000*
  9: 0x00B4 [0x1F] MOVE_ENTITY: Update entity position (mode=1)
 10: 0x00B6 [0x1F] MOVE_ENTITY: EventEntity moves to X=-51.141*, Z=38.746*, Y=-3.499*
 11: 0x00BE [0x1F] MOVE_ENTITY: Update entity position (mode=1)
 12: 0x00C0 [0x1F] MOVE_ENTITY: EventEntity moves to X=-63.152*, Z=42.731*, Y=-3.499*
 13: 0x00C8 [0x1F] MOVE_ENTITY: Update entity position (mode=1)
 14: 0x00CA [0x1F] MOVE_ENTITY: EventEntity moves to X=-73.075*, Z=51.803*, Y=-3.499*
 15: 0x00D2 [0x1F] MOVE_ENTITY: Update entity position (mode=1)
 16: 0x00D4 [0x1F] MOVE_ENTITY: EventEntity moves to X=-78.613*, Z=59.364*, Y=-3.499*
 17: 0x00DC [0x1F] MOVE_ENTITY: Update entity position (mode=1)
 18: 0x00DE [0x1F] MOVE_ENTITY: EventEntity moves to X=-76.580*, Z=75.410*, Y=-3.499*
 19: 0x00E6 [0x1F] MOVE_ENTITY: Update entity position (mode=1)
 20: 0x00E8 [0x1F] MOVE_ENTITY: EventEntity moves to X=-64.004*, Z=81.361*, Y=-5.000*
 21: 0x00F0 [0x1F] MOVE_ENTITY: Update entity position (mode=1)
 22: 0x00F2 [0x1F] MOVE_ENTITY: EventEntity moves to X=-49.175*, Z=83.509*, Y=-4.999*
 23: 0x00FA [0x1F] MOVE_ENTITY: Update entity position (mode=1)
 24: 0x00FC [0x1F] MOVE_ENTITY: EventEntity moves to X=-42.767*, Z=87.755*, Y=-4.999*
 25: 0x0104 [0x1F] MOVE_ENTITY: Update entity position (mode=1)
 26: 0x0106 [0x1F] MOVE_ENTITY: EventEntity moves to X=-41.067*, Z=92.184*, Y=-4.999*
 27: 0x010E [0x1F] MOVE_ENTITY: Update entity position (mode=1)
 28: 0x0110 [0x1F] MOVE_ENTITY: EventEntity moves to X=-40.133*, Z=167.579*, Y=-5.023*
 29: 0x0118 [0x1F] MOVE_ENTITY: Update entity position (mode=1)
 30: 0x011A [0x6F] WAIT_FRAME_DELAY: Yield until WaitTime reaches zero
 31: 0x011B [0x7E] CHOCOBO_MOUNT: Dismount 01 (ID: 17162781/0x0105E21D) (status = 0)
 32: 0x0121 [0x22] ENTITY_HIDE_FLAG(enabled=0x01)
 33: 0x0123 [0x2F] EventEntity->Render.Flags0 |= 0x80000 // Bit 19
 34: 0x0129 [0x00] END_REQSTACK()
```

### Event 65535.12

#### Metadata

| Field        | Value     |
|--------------|-----------|
| Entrypoint   | 0x012A    |
| Data Size    | 186 bytes |
| Instructions | 38        |

```
      00 01 02 03 04 05 06 07  08 09 0A 0B 0C 0D 0E 0F
      -- -- -- -- -- -- -- --  -- -- -- -- -- -- -- --
0120:                                1C 29 80 59 04 1E            .).Y..
0130: E2 05 01 2A 80 1F 00 2B  80 2C 80 0B 80 1F 01 1F  ...*...+.,......
0140: 00 2D 80 2E 80 0B 80 1F  01 1F 00 2F 80 30 80 0B  .-........./.0..
0150: 80 1F 01 1F 00 31 80 32  80 0B 80 1F 01 1F 00 33  .....1.2.......3
0160: 80 34 80 0B 80 1F 01 1F  00 12 80 13 80 14 80 1F  .4..............
0170: 01 1F 00 15 80 16 80 14  80 1F 01 1F 00 17 80 18  ................
0180: 80 14 80 1F 01 1F 00 19  80 1A 80 14 80 1F 01 1F  ................
0190: 00 1B 80 1C 80 14 80 1F  01 1F 00 1D 80 1E 80 1F  ................
01A0: 80 1F 01 1F 00 20 80 21  80 06 80 1F 01 1F 00 35  ..... .!.......5
01B0: 80 36 80 06 80 1F 01 1F  00 37 80 38 80 06 80 1F  .6.......7.8....
01C0: 01 1F 00 39 80 3A 80 06  80 1F 01 1F 00 26 80 27  ...9.:.......&.'
01D0: 80 28 80 1F 01 7E 05 1E  E2 05 01 22 01 2F 01 F8  .(...~....."./..
01E0: FF FF 7F 00                                       ....            
```

#### Opcodes

```
  0: 0x012A [0x1C] WAIT(150* ticks)
  1: 0x012D [0x59] UPDATE_ENTITY_DATA: Set 02 (ID: 17162782/0x0105E21E) main speed = 79* * 0.1
  2: 0x0135 [0x1F] MOVE_ENTITY: EventEntity moves to X=-0.735*, Z=52.571*, Y=-1.000*
  3: 0x013D [0x1F] MOVE_ENTITY: Update entity position (mode=1)
  4: 0x013F [0x1F] MOVE_ENTITY: EventEntity moves to X=-2.958*, Z=50.565*, Y=-1.000*
  5: 0x0147 [0x1F] MOVE_ENTITY: Update entity position (mode=1)
  6: 0x0149 [0x1F] MOVE_ENTITY: EventEntity moves to X=-6.578*, Z=43.709*, Y=-1.000*
  7: 0x0151 [0x1F] MOVE_ENTITY: Update entity position (mode=1)
  8: 0x0153 [0x1F] MOVE_ENTITY: EventEntity moves to X=-9.780*, Z=39.736*, Y=-1.000*
  9: 0x015B [0x1F] MOVE_ENTITY: Update entity position (mode=1)
 10: 0x015D [0x1F] MOVE_ENTITY: EventEntity moves to X=-13.066*, Z=38.914*, Y=-1.000*
 11: 0x0165 [0x1F] MOVE_ENTITY: Update entity position (mode=1)
 12: 0x0167 [0x1F] MOVE_ENTITY: EventEntity moves to X=-51.141*, Z=38.746*, Y=-3.499*
 13: 0x016F [0x1F] MOVE_ENTITY: Update entity position (mode=1)
 14: 0x0171 [0x1F] MOVE_ENTITY: EventEntity moves to X=-63.152*, Z=42.731*, Y=-3.499*
 15: 0x0179 [0x1F] MOVE_ENTITY: Update entity position (mode=1)
 16: 0x017B [0x1F] MOVE_ENTITY: EventEntity moves to X=-73.075*, Z=51.803*, Y=-3.499*
 17: 0x0183 [0x1F] MOVE_ENTITY: Update entity position (mode=1)
 18: 0x0185 [0x1F] MOVE_ENTITY: EventEntity moves to X=-78.613*, Z=59.364*, Y=-3.499*
 19: 0x018D [0x1F] MOVE_ENTITY: Update entity position (mode=1)
 20: 0x018F [0x1F] MOVE_ENTITY: EventEntity moves to X=-76.580*, Z=75.410*, Y=-3.499*
 21: 0x0197 [0x1F] MOVE_ENTITY: Update entity position (mode=1)
 22: 0x0199 [0x1F] MOVE_ENTITY: EventEntity moves to X=-64.004*, Z=81.361*, Y=-5.000*
 23: 0x01A1 [0x1F] MOVE_ENTITY: Update entity position (mode=1)
 24: 0x01A3 [0x1F] MOVE_ENTITY: EventEntity moves to X=-49.175*, Z=83.509*, Y=-4.999*
 25: 0x01AB [0x1F] MOVE_ENTITY: Update entity position (mode=1)
 26: 0x01AD [0x1F] MOVE_ENTITY: EventEntity moves to X=-39.708*, Z=89.827*, Y=-4.999*
 27: 0x01B5 [0x1F] MOVE_ENTITY: Update entity position (mode=1)
 28: 0x01B7 [0x1F] MOVE_ENTITY: EventEntity moves to X=-38.677*, Z=93.420*, Y=-4.999*
 29: 0x01BF [0x1F] MOVE_ENTITY: Update entity position (mode=1)
 30: 0x01C1 [0x1F] MOVE_ENTITY: EventEntity moves to X=-38.282*, Z=99.163*, Y=-4.999*
 31: 0x01C9 [0x1F] MOVE_ENTITY: Update entity position (mode=1)
 32: 0x01CB [0x1F] MOVE_ENTITY: EventEntity moves to X=-40.133*, Z=167.579*, Y=-5.023*
 33: 0x01D3 [0x1F] MOVE_ENTITY: Update entity position (mode=1)
 34: 0x01D5 [0x7E] CHOCOBO_MOUNT: Dismount 02 (ID: 17162782/0x0105E21E) (status = 0)
 35: 0x01DB [0x22] ENTITY_HIDE_FLAG(enabled=0x01)
 36: 0x01DD [0x2F] EventEntity->Render.Flags0 |= 0x80000 // Bit 19
 37: 0x01E3 [0x00] END_REQSTACK()
```

### Event 65535.13

#### Metadata

| Field        | Value    |
|--------------|----------|
| Entrypoint   | 0x01E4   |
| Data Size    | 83 bytes |
| Instructions | 18       |

```
      00 01 02 03 04 05 06 07  08 09 0A 0B 0C 0D 0E 0F
      -- -- -- -- -- -- -- --  -- -- -- -- -- -- -- --
01E0:             59 04 25 E2  05 01 3B 80 1F 00 3C 80      Y.%...;...<.
01F0: 3D 80 06 80 1F 01 6F 59  04 F8 FF FF 7F 3E 80 1F  =.....oY.....>..
0200: 00 3F 80 40 80 06 80 1F  01 1F 00 41 80 42 80 06  .?.@.......A.B..
0210: 80 1F 01 1F 00 43 80 44  80 06 80 1F 01 1F 00 26  .....C.D.......&
0220: 80 27 80 28 80 1F 01 6F  7E 05 25 E2 05 01 22 01  .'.(...o~.%...".
0230: 2F 01 F8 FF FF 7F 00                              /......         
```

#### Opcodes

```
  0: 0x01E4 [0x59] UPDATE_ENTITY_DATA: Set Unnamed NPC (ID: 17162789/0x0105E225) main speed = 25* * 0.1
  1: 0x01EC [0x1F] MOVE_ENTITY: EventEntity moves to X=-25.197*, Z=86.979*, Y=-4.999*
  2: 0x01F4 [0x1F] MOVE_ENTITY: Update entity position (mode=1)
  3: 0x01F6 [0x6F] WAIT_FRAME_DELAY: Yield until WaitTime reaches zero
  4: 0x01F7 [0x59] UPDATE_ENTITY_DATA: Set EventEntity main speed = 78* * 0.1
  5: 0x01FF [0x1F] MOVE_ENTITY: EventEntity moves to X=-32.985*, Z=94.399*, Y=-4.999*
  6: 0x0207 [0x1F] MOVE_ENTITY: Update entity position (mode=1)
  7: 0x0209 [0x1F] MOVE_ENTITY: EventEntity moves to X=-37.211*, Z=98.747*, Y=-4.999*
  8: 0x0211 [0x1F] MOVE_ENTITY: Update entity position (mode=1)
  9: 0x0213 [0x1F] MOVE_ENTITY: EventEntity moves to X=-38.522*, Z=107.127*, Y=-4.999*
 10: 0x021B [0x1F] MOVE_ENTITY: Update entity position (mode=1)
 11: 0x021D [0x1F] MOVE_ENTITY: EventEntity moves to X=-40.133*, Z=167.579*, Y=-5.023*
 12: 0x0225 [0x1F] MOVE_ENTITY: Update entity position (mode=1)
 13: 0x0227 [0x6F] WAIT_FRAME_DELAY: Yield until WaitTime reaches zero
 14: 0x0228 [0x7E] CHOCOBO_MOUNT: Dismount Unnamed NPC (ID: 17162789/0x0105E225) (status = 0)
 15: 0x022E [0x22] ENTITY_HIDE_FLAG(enabled=0x01)
 16: 0x0230 [0x2F] EventEntity->Render.Flags0 |= 0x80000 // Bit 19
 17: 0x0236 [0x00] END_REQSTACK()
```

### Event 65535.14

#### Metadata

| Field        | Value     |
|--------------|-----------|
| Entrypoint   | 0x0237    |
| Data Size    | 154 bytes |
| Instructions | 32        |

```
      00 01 02 03 04 05 06 07  08 09 0A 0B 0C 0D 0E 0F
      -- -- -- -- -- -- -- --  -- -- -- -- -- -- -- --
0230:                      59  04 26 E2 05 01 08 80 1F         Y.&......
0240: 00 45 80 46 80 47 80 1F  01 1F 00 48 80 49 80 47  .E.F.G.....H.I.G
0250: 80 1F 01 1F 00 4A 80 4B  80 47 80 1F 01 1F 00 12  .....J.K.G......
0260: 80 13 80 14 80 1F 01 1F  00 15 80 16 80 14 80 1F  ................
0270: 01 1F 00 17 80 18 80 14  80 1F 01 1F 00 19 80 1A  ................
0280: 80 14 80 1F 01 1F 00 1B  80 1C 80 14 80 1F 01 1F  ................
0290: 00 1D 80 1E 80 1F 80 1F  01 1F 00 20 80 21 80 06  ........... .!..
02A0: 80 1F 01 1F 00 22 80 23  80 06 80 1F 01 1F 00 24  .....".#.......$
02B0: 80 25 80 06 80 1F 01 1F  00 26 80 27 80 28 80 1F  .%.......&.'.(..
02C0: 01 6F 7E 05 26 E2 05 01  22 01 2F 01 F8 FF FF 7F  .o~.&..."./.....
02D0: 00                                                .               
```

#### Opcodes

```
  0: 0x0237 [0x59] UPDATE_ENTITY_DATA: Set Unnamed NPC (ID: 17162790/0x0105E226) main speed = 80* * 0.1
  1: 0x023F [0x1F] MOVE_ENTITY: EventEntity moves to X=-6.086*, Z=31.136*, Y=-0.999*
  2: 0x0247 [0x1F] MOVE_ENTITY: Update entity position (mode=1)
  3: 0x0249 [0x1F] MOVE_ENTITY: EventEntity moves to X=-8.016*, Z=35.131*, Y=-0.999*
  4: 0x0251 [0x1F] MOVE_ENTITY: Update entity position (mode=1)
  5: 0x0253 [0x1F] MOVE_ENTITY: EventEntity moves to X=-11.617*, Z=38.998*, Y=-0.999*
  6: 0x025B [0x1F] MOVE_ENTITY: Update entity position (mode=1)
  7: 0x025D [0x1F] MOVE_ENTITY: EventEntity moves to X=-51.141*, Z=38.746*, Y=-3.499*
  8: 0x0265 [0x1F] MOVE_ENTITY: Update entity position (mode=1)
  9: 0x0267 [0x1F] MOVE_ENTITY: EventEntity moves to X=-63.152*, Z=42.731*, Y=-3.499*
 10: 0x026F [0x1F] MOVE_ENTITY: Update entity position (mode=1)
 11: 0x0271 [0x1F] MOVE_ENTITY: EventEntity moves to X=-73.075*, Z=51.803*, Y=-3.499*
 12: 0x0279 [0x1F] MOVE_ENTITY: Update entity position (mode=1)
 13: 0x027B [0x1F] MOVE_ENTITY: EventEntity moves to X=-78.613*, Z=59.364*, Y=-3.499*
 14: 0x0283 [0x1F] MOVE_ENTITY: Update entity position (mode=1)
 15: 0x0285 [0x1F] MOVE_ENTITY: EventEntity moves to X=-76.580*, Z=75.410*, Y=-3.499*
 16: 0x028D [0x1F] MOVE_ENTITY: Update entity position (mode=1)
 17: 0x028F [0x1F] MOVE_ENTITY: EventEntity moves to X=-64.004*, Z=81.361*, Y=-5.000*
 18: 0x0297 [0x1F] MOVE_ENTITY: Update entity position (mode=1)
 19: 0x0299 [0x1F] MOVE_ENTITY: EventEntity moves to X=-49.175*, Z=83.509*, Y=-4.999*
 20: 0x02A1 [0x1F] MOVE_ENTITY: Update entity position (mode=1)
 21: 0x02A3 [0x1F] MOVE_ENTITY: EventEntity moves to X=-42.767*, Z=87.755*, Y=-4.999*
 22: 0x02AB [0x1F] MOVE_ENTITY: Update entity position (mode=1)
 23: 0x02AD [0x1F] MOVE_ENTITY: EventEntity moves to X=-41.067*, Z=92.184*, Y=-4.999*
 24: 0x02B5 [0x1F] MOVE_ENTITY: Update entity position (mode=1)
 25: 0x02B7 [0x1F] MOVE_ENTITY: EventEntity moves to X=-40.133*, Z=167.579*, Y=-5.023*
 26: 0x02BF [0x1F] MOVE_ENTITY: Update entity position (mode=1)
 27: 0x02C1 [0x6F] WAIT_FRAME_DELAY: Yield until WaitTime reaches zero
 28: 0x02C2 [0x7E] CHOCOBO_MOUNT: Dismount Unnamed NPC (ID: 17162790/0x0105E226) (status = 0)
 29: 0x02C8 [0x22] ENTITY_HIDE_FLAG(enabled=0x01)
 30: 0x02CA [0x2F] EventEntity->Render.Flags0 |= 0x80000 // Bit 19
 31: 0x02D0 [0x00] END_REQSTACK()
```

### Event 65535.15

#### Metadata

| Field        | Value     |
|--------------|-----------|
| Entrypoint   | 0x02D1    |
| Data Size    | 167 bytes |
| Instructions | 35        |

```
      00 01 02 03 04 05 06 07  08 09 0A 0B 0C 0D 0E 0F
      -- -- -- -- -- -- -- --  -- -- -- -- -- -- -- --
02D0:    1C 4C 80 59 04 27 E2  05 01 3E 80 1F 00 4D 80   .L.Y.'...>...M.
02E0: 4E 80 47 80 1F 01 1F 00  4F 80 50 80 47 80 1F 01  N.G.....O.P.G...
02F0: 1F 00 51 80 52 80 47 80  1F 01 1F 00 12 80 13 80  ..Q.R.G.........
0300: 14 80 1F 01 1F 00 15 80  16 80 14 80 1F 01 1F 00  ................
0310: 17 80 18 80 14 80 1F 01  1F 00 19 80 1A 80 14 80  ................
0320: 1F 01 1F 00 1B 80 1C 80  14 80 1F 01 1F 00 1D 80  ................
0330: 1E 80 1F 80 1F 01 1F 00  20 80 21 80 06 80 1F 01  ........ .!.....
0340: 1F 00 35 80 36 80 06 80  1F 01 1F 00 37 80 38 80  ..5.6.......7.8.
0350: 06 80 1F 01 1F 00 39 80  3A 80 06 80 1F 01 1F 00  ......9.:.......
0360: 26 80 27 80 28 80 1F 01  6F 7E 05 27 E2 05 01 22  &.'.(...o~.'..."
0370: 01 2F 01 F8 FF FF 7F 00                           ./......        
```

#### Opcodes

```
  0: 0x02D1 [0x1C] WAIT(180* ticks)
  1: 0x02D4 [0x59] UPDATE_ENTITY_DATA: Set Unnamed NPC (ID: 17162791/0x0105E227) main speed = 78* * 0.1
  2: 0x02DC [0x1F] MOVE_ENTITY: EventEntity moves to X=-1.740*, Z=31.643*, Y=-0.999*
  3: 0x02E4 [0x1F] MOVE_ENTITY: Update entity position (mode=1)
  4: 0x02E6 [0x1F] MOVE_ENTITY: EventEntity moves to X=-4.175*, Z=36.997*, Y=-0.999*
  5: 0x02EE [0x1F] MOVE_ENTITY: Update entity position (mode=1)
  6: 0x02F0 [0x1F] MOVE_ENTITY: EventEntity moves to X=-8.672*, Z=40.970*, Y=-0.999*
  7: 0x02F8 [0x1F] MOVE_ENTITY: Update entity position (mode=1)
  8: 0x02FA [0x1F] MOVE_ENTITY: EventEntity moves to X=-51.141*, Z=38.746*, Y=-3.499*
  9: 0x0302 [0x1F] MOVE_ENTITY: Update entity position (mode=1)
 10: 0x0304 [0x1F] MOVE_ENTITY: EventEntity moves to X=-63.152*, Z=42.731*, Y=-3.499*
 11: 0x030C [0x1F] MOVE_ENTITY: Update entity position (mode=1)
 12: 0x030E [0x1F] MOVE_ENTITY: EventEntity moves to X=-73.075*, Z=51.803*, Y=-3.499*
 13: 0x0316 [0x1F] MOVE_ENTITY: Update entity position (mode=1)
 14: 0x0318 [0x1F] MOVE_ENTITY: EventEntity moves to X=-78.613*, Z=59.364*, Y=-3.499*
 15: 0x0320 [0x1F] MOVE_ENTITY: Update entity position (mode=1)
 16: 0x0322 [0x1F] MOVE_ENTITY: EventEntity moves to X=-76.580*, Z=75.410*, Y=-3.499*
 17: 0x032A [0x1F] MOVE_ENTITY: Update entity position (mode=1)
 18: 0x032C [0x1F] MOVE_ENTITY: EventEntity moves to X=-64.004*, Z=81.361*, Y=-5.000*
 19: 0x0334 [0x1F] MOVE_ENTITY: Update entity position (mode=1)
 20: 0x0336 [0x1F] MOVE_ENTITY: EventEntity moves to X=-49.175*, Z=83.509*, Y=-4.999*
 21: 0x033E [0x1F] MOVE_ENTITY: Update entity position (mode=1)
 22: 0x0340 [0x1F] MOVE_ENTITY: EventEntity moves to X=-39.708*, Z=89.827*, Y=-4.999*
 23: 0x0348 [0x1F] MOVE_ENTITY: Update entity position (mode=1)
 24: 0x034A [0x1F] MOVE_ENTITY: EventEntity moves to X=-38.677*, Z=93.420*, Y=-4.999*
 25: 0x0352 [0x1F] MOVE_ENTITY: Update entity position (mode=1)
 26: 0x0354 [0x1F] MOVE_ENTITY: EventEntity moves to X=-38.282*, Z=99.163*, Y=-4.999*
 27: 0x035C [0x1F] MOVE_ENTITY: Update entity position (mode=1)
 28: 0x035E [0x1F] MOVE_ENTITY: EventEntity moves to X=-40.133*, Z=167.579*, Y=-5.023*
 29: 0x0366 [0x1F] MOVE_ENTITY: Update entity position (mode=1)
 30: 0x0368 [0x6F] WAIT_FRAME_DELAY: Yield until WaitTime reaches zero
 31: 0x0369 [0x7E] CHOCOBO_MOUNT: Dismount Unnamed NPC (ID: 17162791/0x0105E227) (status = 0)
 32: 0x036F [0x22] ENTITY_HIDE_FLAG(enabled=0x01)
 33: 0x0371 [0x2F] EventEntity->Render.Flags0 |= 0x80000 // Bit 19
 34: 0x0377 [0x00] END_REQSTACK()
```

### Event 65535.16

#### Metadata

| Field        | Value    |
|--------------|----------|
| Entrypoint   | 0x0378   |
| Data Size    | 69 bytes |
| Instructions | 15       |

```
      00 01 02 03 04 05 06 07  08 09 0A 0B 0C 0D 0E 0F
      -- -- -- -- -- -- -- --  -- -- -- -- -- -- -- --
0370:                          1C 53 80 59 04 94 E2 05          .S.Y....
0380: 01 54 80 1F 00 55 80 56  80 57 80 1F 01 1F 00 58  .T...U.V.W.....X
0390: 80 59 80 57 80 1F 01 59  04 F8 FF FF 7F 5A 80 1F  .Y.W...Y.....Z..
03A0: 00 5B 80 5C 80 57 80 1F  01 1F 00 5D 80 5E 80 14  .[.\.W.....].^..
03B0: 80 1F 01 6F 22 01 2F 01  F8 FF FF 7F 00           ...o"./......   
```

#### Opcodes

```
  0: 0x0378 [0x1C] WAIT(360* ticks)
  1: 0x037B [0x59] UPDATE_ENTITY_DATA: Set 02 (ID: 17162900/0x0105E294) main speed = 15* * 0.1
  2: 0x0383 [0x1F] MOVE_ENTITY: EventEntity moves to X=-26.970*, Z=63.607*, Y=-3.500*
  3: 0x038B [0x1F] MOVE_ENTITY: Update entity position (mode=1)
  4: 0x038D [0x1F] MOVE_ENTITY: EventEntity moves to X=-25.762*, Z=63.002*, Y=-3.500*
  5: 0x0395 [0x1F] MOVE_ENTITY: Update entity position (mode=1)
  6: 0x0397 [0x59] UPDATE_ENTITY_DATA: Set EventEntity main speed = 40* * 0.1
  7: 0x039F [0x1F] MOVE_ENTITY: EventEntity moves to X=-47.406*, Z=58.894*, Y=-3.500*
  8: 0x03A7 [0x1F] MOVE_ENTITY: Update entity position (mode=1)
  9: 0x03A9 [0x1F] MOVE_ENTITY: EventEntity moves to X=-56.954*, Z=53.463*, Y=-3.499*
 10: 0x03B1 [0x1F] MOVE_ENTITY: Update entity position (mode=1)
 11: 0x03B3 [0x6F] WAIT_FRAME_DELAY: Yield until WaitTime reaches zero
 12: 0x03B4 [0x22] ENTITY_HIDE_FLAG(enabled=0x01)
 13: 0x03B6 [0x2F] EventEntity->Render.Flags0 |= 0x80000 // Bit 19
 14: 0x03BC [0x00] END_REQSTACK()
```

### Event 65535.17

#### Metadata

| Field        | Value    |
|--------------|----------|
| Entrypoint   | 0x03BD   |
| Data Size    | 38 bytes |
| Instructions | 9        |

```
      00 01 02 03 04 05 06 07  08 09 0A 0B 0C 0D 0E 0F
      -- -- -- -- -- -- -- --  -- -- -- -- -- -- -- --
03B0:                                         59 04 F8               Y..
03C0: FF FF 7F 5F 80 1F 00 60  80 61 80 62 80 1F 01 1F  ..._...`.a.b....
03D0: 00 63 80 64 80 57 80 1F  01 6F 22 01 2F 01 F8 FF  .c.d.W...o"./...
03E0: FF 7F 00                                          ...             
```

#### Opcodes

```
  0: 0x03BD [0x59] UPDATE_ENTITY_DATA: Set EventEntity main speed = 27* * 0.1
  1: 0x03C5 [0x1F] MOVE_ENTITY: EventEntity moves to X=-30.382*, Z=74.601*, Y=-3.574*
  2: 0x03CD [0x1F] MOVE_ENTITY: Update entity position (mode=1)
  3: 0x03CF [0x1F] MOVE_ENTITY: EventEntity moves to X=-54.461*, Z=69.456*, Y=-3.500*
  4: 0x03D7 [0x1F] MOVE_ENTITY: Update entity position (mode=1)
  5: 0x03D9 [0x6F] WAIT_FRAME_DELAY: Yield until WaitTime reaches zero
  6: 0x03DA [0x22] ENTITY_HIDE_FLAG(enabled=0x01)
  7: 0x03DC [0x2F] EventEntity->Render.Flags0 |= 0x80000 // Bit 19
  8: 0x03E2 [0x00] END_REQSTACK()
```

### Event 65535.18

#### Metadata

| Field        | Value    |
|--------------|----------|
| Entrypoint   | 0x03E3   |
| Data Size    | 38 bytes |
| Instructions | 9        |

```
      00 01 02 03 04 05 06 07  08 09 0A 0B 0C 0D 0E 0F
      -- -- -- -- -- -- -- --  -- -- -- -- -- -- -- --
03E0:          59 04 F8 FF FF  7F 5F 80 1F 00 65 80 66     Y....._...e.f
03F0: 80 67 80 1F 01 1F 00 68  80 69 80 57 80 1F 01 6F  .g.....h.i.W...o
0400: 22 01 2F 01 F8 FF FF 7F  00                       "./......       
```

#### Opcodes

```
  0: 0x03E3 [0x59] UPDATE_ENTITY_DATA: Set EventEntity main speed = 27* * 0.1
  1: 0x03EB [0x1F] MOVE_ENTITY: EventEntity moves to X=-29.325*, Z=75.371*, Y=-3.529*
  2: 0x03F3 [0x1F] MOVE_ENTITY: Update entity position (mode=1)
  3: 0x03F5 [0x1F] MOVE_ENTITY: EventEntity moves to X=-53.209*, Z=70.575*, Y=-3.500*
  4: 0x03FD [0x1F] MOVE_ENTITY: Update entity position (mode=1)
  5: 0x03FF [0x6F] WAIT_FRAME_DELAY: Yield until WaitTime reaches zero
  6: 0x0400 [0x22] ENTITY_HIDE_FLAG(enabled=0x01)
  7: 0x0402 [0x2F] EventEntity->Render.Flags0 |= 0x80000 // Bit 19
  8: 0x0408 [0x00] END_REQSTACK()
```

### Event 65535.19

#### Metadata

| Field        | Value    |
|--------------|----------|
| Entrypoint   | 0x0409   |
| Data Size    | 48 bytes |
| Instructions | 11       |

```
      00 01 02 03 04 05 06 07  08 09 0A 0B 0C 0D 0E 0F
      -- -- -- -- -- -- -- --  -- -- -- -- -- -- -- --
0400:                             59 04 F8 FF FF 7F 5F           Y....._
0410: 80 1F 00 6A 80 6B 80 6C  80 1F 01 1F 00 6D 80 6E  ...j.k.l.....m.n
0420: 80 57 80 1F 01 1F 00 6F  80 70 80 57 80 1F 01 6F  .W.....o.p.W...o
0430: 22 01 2F 01 F8 FF FF 7F  00                       "./......       
```

#### Opcodes

```
  0: 0x0409 [0x59] UPDATE_ENTITY_DATA: Set EventEntity main speed = 27* * 0.1
  1: 0x0411 [0x1F] MOVE_ENTITY: EventEntity moves to X=-27.766*, Z=73.600*, Y=-3.414*
  2: 0x0419 [0x1F] MOVE_ENTITY: Update entity position (mode=1)
  3: 0x041B [0x1F] MOVE_ENTITY: EventEntity moves to X=-52.430*, Z=73.638*, Y=-3.500*
  4: 0x0423 [0x1F] MOVE_ENTITY: Update entity position (mode=1)
  5: 0x0425 [0x1F] MOVE_ENTITY: EventEntity moves to X=-54.193*, Z=72.044*, Y=-3.500*
  6: 0x042D [0x1F] MOVE_ENTITY: Update entity position (mode=1)
  7: 0x042F [0x6F] WAIT_FRAME_DELAY: Yield until WaitTime reaches zero
  8: 0x0430 [0x22] ENTITY_HIDE_FLAG(enabled=0x01)
  9: 0x0432 [0x2F] EventEntity->Render.Flags0 |= 0x80000 // Bit 19
 10: 0x0438 [0x00] END_REQSTACK()
```

### Event 65535.20

#### Metadata

| Field        | Value    |
|--------------|----------|
| Entrypoint   | 0x0439   |
| Data Size    | 19 bytes |
| Instructions | 4        |

```
      00 01 02 03 04 05 06 07  08 09 0A 0B 0C 0D 0E 0F
      -- -- -- -- -- -- -- --  -- -- -- -- -- -- -- --
0430:                             59 04 F8 FF FF 7F 71           Y.....q
0440: 80 1F 00 72 80 73 80 1F  80 1F 01 00              ...r.s......    
```

#### Opcodes

```
  0: 0x0439 [0x59] UPDATE_ENTITY_DATA: Set EventEntity main speed = 42* * 0.1
  1: 0x0441 [0x1F] MOVE_ENTITY: EventEntity moves to X=-22.678*, Z=81.353*, Y=-5.000*
  2: 0x0449 [0x1F] MOVE_ENTITY: Update entity position (mode=1)
  3: 0x044B [0x00] END_REQSTACK()
```

### Event 65535.21

#### Metadata

| Field        | Value    |
|--------------|----------|
| Entrypoint   | 0x044C   |
| Data Size    | 22 bytes |
| Instructions | 5        |

```
      00 01 02 03 04 05 06 07  08 09 0A 0B 0C 0D 0E 0F
      -- -- -- -- -- -- -- --  -- -- -- -- -- -- -- --
0440:                                      59 04 F8 FF              Y...
0450: FF 7F 71 80 1C 74 80 1F  00 72 80 73 80 1F 80 1F  ..q..t...r.s....
0460: 01 00                                             ..              
```

#### Opcodes

```
  0: 0x044C [0x59] UPDATE_ENTITY_DATA: Set EventEntity main speed = 42* * 0.1
  1: 0x0454 [0x1C] WAIT(60* ticks)
  2: 0x0457 [0x1F] MOVE_ENTITY: EventEntity moves to X=-22.678*, Z=81.353*, Y=-5.000*
  3: 0x045F [0x1F] MOVE_ENTITY: Update entity position (mode=1)
  4: 0x0461 [0x00] END_REQSTACK()
```

### Event 65535.22

#### Metadata

| Field        | Value    |
|--------------|----------|
| Entrypoint   | 0x0462   |
| Data Size    | 22 bytes |
| Instructions | 5        |

```
      00 01 02 03 04 05 06 07  08 09 0A 0B 0C 0D 0E 0F
      -- -- -- -- -- -- -- --  -- -- -- -- -- -- -- --
0460:       59 04 F8 FF FF 7F  71 80 1C 75 80 1F 00 72    Y.....q..u...r
0470: 80 73 80 1F 80 1F 01 00                           .s......        
```

#### Opcodes

```
  0: 0x0462 [0x59] UPDATE_ENTITY_DATA: Set EventEntity main speed = 42* * 0.1
  1: 0x046A [0x1C] WAIT(120* ticks)
  2: 0x046D [0x1F] MOVE_ENTITY: EventEntity moves to X=-22.678*, Z=81.353*, Y=-5.000*
  3: 0x0475 [0x1F] MOVE_ENTITY: Update entity position (mode=1)
  4: 0x0477 [0x00] END_REQSTACK()
```

### Event 65535.23

#### Metadata

| Field        | Value    |
|--------------|----------|
| Entrypoint   | 0x0478   |
| Data Size    | 13 bytes |
| Instructions | 5        |

```
      00 01 02 03 04 05 06 07  08 09 0A 0B 0C 0D 0E 0F
      -- -- -- -- -- -- -- --  -- -- -- -- -- -- -- --
0470:                          06 08 10 1C 76 80 1C 77          ....v..w
0480: 80 05 08 10 00                                    .....           
```

#### Opcodes

```
  0: 0x0478 [0x06] Work_Zone[8] = 0
  1: 0x047B [0x1C] WAIT(600* ticks)
  2: 0x047E [0x1C] WAIT(5* ticks)
  3: 0x0481 [0x05] Work_Zone[8] = 1
  4: 0x0484 [0x00] END_REQSTACK()
```

### Event 65535.24

#### Metadata

| Field        | Value     |
|--------------|-----------|
| Entrypoint   | 0x0485    |
| Data Size    | 221 bytes |
| Instructions | 26        |

```
      00 01 02 03 04 05 06 07  08 09 0A 0B 0C 0D 0E 0F
      -- -- -- -- -- -- -- --  -- -- -- -- -- -- -- --
0480:                06 09 10  1C 29 80 52 78 80 F0 FF       ....).Rx...
0490: FF 7F F0 FF FF 7F 79 30  34 32 45 78 80 1E E2 05  ......y042Ex....
04A0: 01 1E E2 05 01 79 30 34  35 01 80 1C 79 80 52 78  .....y045...y.Rx
04B0: 80 1E E2 05 01 1E E2 05  01 79 30 34 35 45 78 80  .........y045Ex.
04C0: F0 FF FF 7F F0 FF FF 7F  79 30 35 32 01 80 27 10  ........y052..'.
04D0: 93 E2 05 01 0C 27 10 95  E2 05 01 0C BA 44 E2 05  .....'.......D..
04E0: 01 7A 80 7B 80 14 80 7C  80 BA 45 E2 05 01 7A 80  .z.{...|..E...z.
04F0: 7B 80 14 80 7C 80 BA 46  E2 05 01 7A 80 7B 80 14  {...|..F...z.{..
0500: 80 7C 80 29 10 23 E2 05  01 02 29 10 24 E2 05 01  .|.).#....).$...
0510: 02 79 00 28 E2 05 01 20  E2 05 01 66 7D 80 28 E2  .y.(... ...f}.(.
0520: 05 01 28 E2 05 01 74 6C  6B 30 27 10 FE E2 05 01  ..(...tlk0'.....
0530: 0F 27 10 FF E2 05 01 10  27 10 00 E3 05 01 11 1C  .'......'.......
0540: 77 80 27 10 44 E2 05 01  13 27 10 45 E2 05 01 15  w.'.D....'.E....
0550: 27 10 46 E2 05 01 16 27  10 11 E3 05 01 12 05 09  '.F....'........
0560: 10 00                                             ..              
```

#### Opcodes

```
  0: 0x0485 [0x06] Work_Zone[9] = 0
  1: 0x0488 [0x1C] WAIT(150* ticks)
  2: 0x048B [0x52] END_LOAD_SCHEDULER: End scheduler "y042" with entities [LocalPlayer, LocalPlayer], work=533*
  3: 0x049A [0x45] LOAD_SCHEDULED_TASK: Load scheduler "y045" with entities [02 (ID: 17162782/0x0105E21E), 02 (ID: 17162782/0x0105E21E)], work=[533*, 0*]
  4: 0x04AB [0x1C] WAIT(300* ticks)
  5: 0x04AE [0x52] END_LOAD_SCHEDULER: End scheduler "y045" with entities [02 (ID: 17162782/0x0105E21E), 02 (ID: 17162782/0x0105E21E)], work=533*
  6: 0x04BD [0x45] LOAD_SCHEDULED_TASK: Load scheduler "y052" with entities [LocalPlayer, LocalPlayer], work=[533*, 0*]
  7: 0x04CE [0x27] REQ_SET(priority=0x10, entity_id=01 (ID: 17162899/0x0105E293), tag_num=0x0C)
  8: 0x04D5 [0x27] REQ_SET(priority=0x10, entity_id=02 (ID: 17162901/0x0105E295), tag_num=0x0C)
  9: 0x04DC [0xBA] SET_ENTITY_POSITION(entity_id=02 (ID: 17162820/0x0105E244), pos_x=-60.989*, pos_z=70.254*, pos_y=-3.499*, direction=359.7°*)
 10: 0x04E9 [0xBA] SET_ENTITY_POSITION(entity_id=03 (ID: 17162821/0x0105E245), pos_x=-60.989*, pos_z=70.254*, pos_y=-3.499*, direction=359.7°*)
 11: 0x04F6 [0xBA] SET_ENTITY_POSITION(entity_id=04 (ID: 17162822/0x0105E246), pos_x=-60.989*, pos_z=70.254*, pos_y=-3.499*, direction=359.7°*)
 12: 0x0503 [0x29] REQ_SET_WAIT(priority=0x10, entity_id=07 (ID: 17162787/0x0105E223), tag_num=0x02)
 13: 0x050A [0x29] REQ_SET_WAIT(priority=0x10, entity_id=Unnamed NPC (ID: 17162788/0x0105E224), tag_num=0x02)
 14: 0x0511 [0x79] Unnamed NPC (ID: 17162792/0x0105E228) looks at 04 (ID: 17162784/0x0105E220) (Basic look)
 15: 0x051B [0x66] LOAD_EXT_SCHEDULER_MAIN: Load scheduler "tlk0" with entities [Unnamed NPC (ID: 17162792/0x0105E228), Unnamed NPC (ID: 17162792/0x0105E228)], work=49*
 16: 0x052A [0x27] REQ_SET(priority=0x10, entity_id=01 (ID: 17163006/0x0105E2FE), tag_num=0x0F)
 17: 0x0531 [0x27] REQ_SET(priority=0x10, entity_id=02 (ID: 17163007/0x0105E2FF), tag_num=0x10)
 18: 0x0538 [0x27] REQ_SET(priority=0x10, entity_id=03 (ID: 17163008/0x0105E300), tag_num=0x11)
 19: 0x053F [0x1C] WAIT(5* ticks)
 20: 0x0542 [0x27] REQ_SET(priority=0x10, entity_id=02 (ID: 17162820/0x0105E244), tag_num=0x13)
 21: 0x0549 [0x27] REQ_SET(priority=0x10, entity_id=03 (ID: 17162821/0x0105E245), tag_num=0x15)
 22: 0x0550 [0x27] REQ_SET(priority=0x10, entity_id=04 (ID: 17162822/0x0105E246), tag_num=0x16)
 23: 0x0557 [0x27] REQ_SET(priority=0x10, entity_id=Unnamed NPC (ID: 17163025/0x0105E311), tag_num=0x12)
 24: 0x055E [0x05] Work_Zone[9] = 1
 25: 0x0561 [0x00] END_REQSTACK()
```

### Event 65535.25

#### Metadata

| Field        | Value    |
|--------------|----------|
| Entrypoint   | 0x0562   |
| Data Size    | 76 bytes |
| Instructions | 8        |

```
      00 01 02 03 04 05 06 07  08 09 0A 0B 0C 0D 0E 0F
      -- -- -- -- -- -- -- --  -- -- -- -- -- -- -- --
0560:       06 08 10 55 78 80  F0 FF FF 7F F0 FF FF 7F    ...Ux.........
0570: 79 30 35 32 52 78 80 F0  FF FF 7F F0 FF FF 7F 79  y052Rx.........y
0580: 30 35 32 27 10 1F E2 05  01 09 45 78 80 F0 FF FF  052'......Ex....
0590: 7F F0 FF FF 7F 79 30 35  34 01 80 05 08 10 55 78  .....y054.....Ux
05A0: 80 F0 FF FF 7F F0 FF FF  7F 79 30 35 34 00        .........y054.  
```

#### Opcodes

```
  0: 0x0562 [0x06] Work_Zone[8] = 0
  1: 0x0565 [0x55] WAIT_LOAD_SCHEDULER: Wait for scheduler "y052" with entities [LocalPlayer, LocalPlayer], work=533*
  2: 0x0574 [0x52] END_LOAD_SCHEDULER: End scheduler "y052" with entities [LocalPlayer, LocalPlayer], work=533*
  3: 0x0583 [0x27] REQ_SET(priority=0x10, entity_id=03 (ID: 17162783/0x0105E21F), tag_num=0x09)
  4: 0x058A [0x45] LOAD_SCHEDULED_TASK: Load scheduler "y054" with entities [LocalPlayer, LocalPlayer], work=[533*, 0*]
  5: 0x059B [0x05] Work_Zone[8] = 1
  6: 0x059E [0x55] WAIT_LOAD_SCHEDULER: Wait for scheduler "y054" with entities [LocalPlayer, LocalPlayer], work=533*
  7: 0x05AD [0x00] END_REQSTACK()
```

### Event 65535.26

#### Metadata

| Field        | Value    |
|--------------|----------|
| Entrypoint   | 0x05AE   |
| Data Size    | 49 bytes |
| Instructions | 5        |

```
      00 01 02 03 04 05 06 07  08 09 0A 0B 0C 0D 0E 0F
      -- -- -- -- -- -- -- --  -- -- -- -- -- -- -- --
05A0:                                            7B 06                {.
05B0: E2 05 01 5B 7E 80 06 E2  05 01 06 E2 05 01 6B 75  ...[~.........ku
05C0: 69 30 53 06 E2 05 01 06  E2 05 01 6B 75 69 30 5B  i0S........kui0[
05D0: 7E 80 06 E2 05 01 06 E2  05 01 65 68 6E 30 00     ~.........ehn0. 
```

#### Opcodes

```
  0: 0x05AE [0x7B] Ajido-Marujido (ID: 17162758/0x0105E206) stops talking
  1: 0x05B3 [0x5B] LOAD_EXT_SCHEDULER: Load scheduler "kui0" with entities [Ajido-Marujido (ID: 17162758/0x0105E206), Ajido-Marujido (ID: 17162758/0x0105E206)], work=1288*
  2: 0x05C2 [0x53] WAIT_SCHEDULER_TASK: Wait for scheduler "kui0" with entities [Ajido-Marujido (ID: 17162758/0x0105E206), Ajido-Marujido (ID: 17162758/0x0105E206)]
  3: 0x05CF [0x5B] LOAD_EXT_SCHEDULER: Load scheduler "ehn0" with entities [Ajido-Marujido (ID: 17162758/0x0105E206), Ajido-Marujido (ID: 17162758/0x0105E206)], work=1288*
  4: 0x05DE [0x00] END_REQSTACK()
```

### Event 65535.27

#### Metadata

| Field        | Value    |
|--------------|----------|
| Entrypoint   | 0x05DF   |
| Data Size    | 29 bytes |
| Instructions | 6        |

```
      00 01 02 03 04 05 06 07  08 09 0A 0B 0C 0D 0E 0F
      -- -- -- -- -- -- -- --  -- -- -- -- -- -- -- --
05D0:                                               59                 Y
05E0: 04 F8 FF FF 7F 5A 80 1F  00 7F 80 80 80 0B 80 1F  .....Z..........
05F0: 01 6F 4A 43 E2 05 01 06  E2 05 01 00              .oJC........    
```

#### Opcodes

```
  0: 0x05DF [0x59] UPDATE_ENTITY_DATA: Set EventEntity main speed = 40* * 0.1
  1: 0x05E7 [0x1F] MOVE_ENTITY: EventEntity moves to X=-5.296*, Z=12.328*, Y=-1.000*
  2: 0x05EF [0x1F] MOVE_ENTITY: Update entity position (mode=1)
  3: 0x05F1 [0x6F] WAIT_FRAME_DELAY: Yield until WaitTime reaches zero
  4: 0x05F2 [0x4A] 01 (ID: 17162819/0x0105E243) looks at Ajido-Marujido (ID: 17162758/0x0105E206)
  5: 0x05FB [0x00] END_REQSTACK()
```

### Event 65535.28

#### Metadata

| Field        | Value    |
|--------------|----------|
| Entrypoint   | 0x05FC   |
| Data Size    | 49 bytes |
| Instructions | 7        |

```
      00 01 02 03 04 05 06 07  08 09 0A 0B 0C 0D 0E 0F
      -- -- -- -- -- -- -- --  -- -- -- -- -- -- -- --
05F0:                                      1C 81 80 5B              ...[
0600: 7E 80 06 E2 05 01 06 E2  05 01 65 68 6E 31 4A 06  ~.........ehn1J.
0610: E2 05 01 43 E2 05 01 6F  76 06 E2 05 01 5B 82 80  ...C...ov....[..
0620: 06 E2 05 01 06 E2 05 01  73 75 72 30 00           ........sur0.   
```

#### Opcodes

```
  0: 0x05FC [0x1C] WAIT(160* ticks)
  1: 0x05FF [0x5B] LOAD_EXT_SCHEDULER: Load scheduler "ehn1" with entities [Ajido-Marujido (ID: 17162758/0x0105E206), Ajido-Marujido (ID: 17162758/0x0105E206)], work=1288*
  2: 0x060E [0x4A] Ajido-Marujido (ID: 17162758/0x0105E206) looks at 01 (ID: 17162819/0x0105E243)
  3: 0x0617 [0x6F] WAIT_FRAME_DELAY: Yield until WaitTime reaches zero
  4: 0x0618 [0x76] CHECK_ENTITY_RENDER_FLAGS: Wait until Ajido-Marujido (ID: 17162758/0x0105E206) Render.Flags0 and Render.Flags3 conditions are met
  5: 0x061D [0x5B] LOAD_EXT_SCHEDULER: Load scheduler "sur0" with entities [Ajido-Marujido (ID: 17162758/0x0105E206), Ajido-Marujido (ID: 17162758/0x0105E206)], work=85*
  6: 0x062C [0x00] END_REQSTACK()
```

### Event 65535.29

#### Metadata

| Field        | Value    |
|--------------|----------|
| Entrypoint   | 0x062D   |
| Data Size    | 20 bytes |
| Instructions | 5        |

```
      00 01 02 03 04 05 06 07  08 09 0A 0B 0C 0D 0E 0F
      -- -- -- -- -- -- -- --  -- -- -- -- -- -- -- --
0620:                                         59 04 F8               Y..
0630: FF FF 7F 83 80 1F 00 84  80 85 80 0B 80 1F 01 6F  ...............o
0640: 00                                                .               
```

#### Opcodes

```
  0: 0x062D [0x59] UPDATE_ENTITY_DATA: Set EventEntity main speed = 7* * 0.1
  1: 0x0635 [0x1F] MOVE_ENTITY: EventEntity moves to X=-0.307*, Z=13.248*, Y=-1.000*
  2: 0x063D [0x1F] MOVE_ENTITY: Update entity position (mode=1)
  3: 0x063F [0x6F] WAIT_FRAME_DELAY: Yield until WaitTime reaches zero
  4: 0x0640 [0x00] END_REQSTACK()
```

### Event 65535.30

#### Metadata

| Field        | Value    |
|--------------|----------|
| Entrypoint   | 0x0641   |
| Data Size    | 47 bytes |
| Instructions | 6        |

```
      00 01 02 03 04 05 06 07  08 09 0A 0B 0C 0D 0E 0F
      -- -- -- -- -- -- -- --  -- -- -- -- -- -- -- --
0640:    5B 82 80 06 E2 05 01  06 E2 05 01 73 75 72 30   [..........sur0
0650: 53 06 E2 05 01 06 E2 05  01 73 75 72 30 59 04 F8  S........sur0Y..
0660: FF FF 7F 86 80 1F 00 87  80 88 80 47 80 1F 01 00  ...........G....
```

#### Opcodes

```
  0: 0x0641 [0x5B] LOAD_EXT_SCHEDULER: Load scheduler "sur0" with entities [Ajido-Marujido (ID: 17162758/0x0105E206), Ajido-Marujido (ID: 17162758/0x0105E206)], work=85*
  1: 0x0650 [0x53] WAIT_SCHEDULER_TASK: Wait for scheduler "sur0" with entities [Ajido-Marujido (ID: 17162758/0x0105E206), Ajido-Marujido (ID: 17162758/0x0105E206)]
  2: 0x065D [0x59] UPDATE_ENTITY_DATA: Set EventEntity main speed = 35* * 0.1
  3: 0x0665 [0x1F] MOVE_ENTITY: EventEntity moves to X=-1.006*, Z=16.226*, Y=-0.999*
  4: 0x066D [0x1F] MOVE_ENTITY: Update entity position (mode=1)
  5: 0x066F [0x00] END_REQSTACK()
```

### Event 65535.31

#### Metadata

| Field        | Value    |
|--------------|----------|
| Entrypoint   | 0x0670   |
| Data Size    | 21 bytes |
| Instructions | 3        |

```
      00 01 02 03 04 05 06 07  08 09 0A 0B 0C 0D 0E 0F
      -- -- -- -- -- -- -- --  -- -- -- -- -- -- -- --
0670: 1C 89 80 45 8A 80 F0 FF  FF 7F F0 FF FF 7F 62 6C  ...E..........bl
0680: 6F 6E 01 80 00                                    on...           
```

#### Opcodes

```
  0: 0x0670 [0x1C] WAIT(75* ticks)
  1: 0x0673 [0x45] LOAD_SCHEDULED_TASK: Load scheduler "blon" with entities [LocalPlayer, LocalPlayer], work=[201*, 0*]
  2: 0x0684 [0x00] END_REQSTACK()
```

### Event 65535.32

#### Metadata

| Field        | Value     |
|--------------|-----------|
| Entrypoint   | 0x0685    |
| Data Size    | 161 bytes |
| Instructions | 17        |

```
      00 01 02 03 04 05 06 07  08 09 0A 0B 0C 0D 0E 0F
      -- -- -- -- -- -- -- --  -- -- -- -- -- -- -- --
0680:                59 04 F8  FF FF 7F 86 80 1F 00 8B       Y..........
0690: 80 8C 80 0B 80 1F 01 6F  BA F0 FF FF 7F 8D 80 8E  .......o........
06A0: 80 47 80 8F 80 1C 77 80  5B 90 80 06 E2 05 01 06  .G....w.[.......
06B0: E2 05 01 61 75 70 30 53  06 E2 05 01 06 E2 05 01  ...aup0S........
06C0: 61 75 70 30 50 06 E2 05  01 06 E2 05 01 61 75 70  aup0P........aup
06D0: 30 5B 91 80 43 E2 05 01  43 E2 05 01 6A 74 30 30  0[..C...C...jt00
06E0: 5B 92 80 06 E2 05 01 06  E2 05 01 6A 74 30 30 55  [..........jt00U
06F0: 93 80 F0 FF FF 7F F0 FF  FF 7F 79 31 32 31 27 10  ..........y121'.
0700: 43 E2 05 01 03 BA 06 E2  05 01 8B 80 8C 80 0B 80  C...............
0710: 94 80 4A FF E1 05 01 06  E2 05 01 79 00 FF E1 05  ..J........y....
0720: 01 06 E2 05 01 00                                 ......          
```

#### Opcodes

```
  0: 0x0685 [0x59] UPDATE_ENTITY_DATA: Set EventEntity main speed = 35* * 0.1
  1: 0x068D [0x1F] MOVE_ENTITY: EventEntity moves to X=-1.058*, Z=17.433*, Y=-1.000*
  2: 0x0695 [0x1F] MOVE_ENTITY: Update entity position (mode=1)
  3: 0x0697 [0x6F] WAIT_FRAME_DELAY: Yield until WaitTime reaches zero
  4: 0x0698 [0xBA] SET_ENTITY_POSITION(entity_id=LocalPlayer, pos_x=1.032*, pos_z=15.680*, pos_y=-0.999*, direction=220.0°*)
  5: 0x06A5 [0x1C] WAIT(5* ticks)
  6: 0x06A8 [0x5B] LOAD_EXT_SCHEDULER: Load scheduler "aup0" with entities [Ajido-Marujido (ID: 17162758/0x0105E206), Ajido-Marujido (ID: 17162758/0x0105E206)], work=1286*
  7: 0x06B7 [0x53] WAIT_SCHEDULER_TASK: Wait for scheduler "aup0" with entities [Ajido-Marujido (ID: 17162758/0x0105E206), Ajido-Marujido (ID: 17162758/0x0105E206)]
  8: 0x06C4 [0x50] END_SCHEDULER_TASK: End scheduler "au" with entities [0xE206, 0xE206], work=[261, 261]
  9: 0x06D1 [0x5B] LOAD_EXT_SCHEDULER: Load scheduler "jt00" with entities [01 (ID: 17162819/0x0105E243), 01 (ID: 17162819/0x0105E243)], work=181*
 10: 0x06E0 [0x5B] LOAD_EXT_SCHEDULER: Load scheduler "jt00" with entities [Ajido-Marujido (ID: 17162758/0x0105E206), Ajido-Marujido (ID: 17162758/0x0105E206)], work=86*
 11: 0x06EF [0x55] WAIT_LOAD_SCHEDULER: Wait for scheduler "y121" with entities [LocalPlayer, LocalPlayer], work=393*
 12: 0x06FE [0x27] REQ_SET(priority=0x10, entity_id=01 (ID: 17162819/0x0105E243), tag_num=0x03)
 13: 0x0705 [0xBA] SET_ENTITY_POSITION(entity_id=Ajido-Marujido (ID: 17162758/0x0105E206), pos_x=-1.058*, pos_z=17.433*, pos_y=-1.000*, direction=266.2°*)
 14: 0x0712 [0x4A] Dhea Prandoleh (ID: 17162751/0x0105E1FF) looks at Ajido-Marujido (ID: 17162758/0x0105E206)
 15: 0x071B [0x79] Dhea Prandoleh (ID: 17162751/0x0105E1FF) looks at Ajido-Marujido (ID: 17162758/0x0105E206) (Basic look)
 16: 0x0725 [0x00] END_REQSTACK()
```

### Event 65535.33

#### Metadata

| Field        | Value    |
|--------------|----------|
| Entrypoint   | 0x0726   |
| Data Size    | 20 bytes |
| Instructions | 5        |

```
      00 01 02 03 04 05 06 07  08 09 0A 0B 0C 0D 0E 0F
      -- -- -- -- -- -- -- --  -- -- -- -- -- -- -- --
0720:                   59 04  F8 FF FF 7F 95 80 1F 00        Y.........
0730: 96 80 97 80 98 80 1F 01  6F 00                    ........o.      
```

#### Opcodes

```
  0: 0x0726 [0x59] UPDATE_ENTITY_DATA: Set EventEntity main speed = 36* * 0.1
  1: 0x072E [0x1F] MOVE_ENTITY: EventEntity moves to X=-7.685*, Z=7.819*, Y=-1.026*
  2: 0x0736 [0x1F] MOVE_ENTITY: Update entity position (mode=1)
  3: 0x0738 [0x6F] WAIT_FRAME_DELAY: Yield until WaitTime reaches zero
  4: 0x0739 [0x00] END_REQSTACK()
```

### Event 20

#### Metadata

| Field        | Value   |
|--------------|---------|
| Entrypoint   | 0x073A  |
| Data Size    | 1 bytes |
| Instructions | 1       |

```
      00 01 02 03 04 05 06 07  08 09 0A 0B 0C 0D 0E 0F
      -- -- -- -- -- -- -- --  -- -- -- -- -- -- -- --
0730:                                00                           .     
```

#### Opcodes

```
  0: 0x073A [0x00] END_REQSTACK()
```

### Event 65535.34

#### Metadata

| Field        | Value    |
|--------------|----------|
| Entrypoint   | 0x073B   |
| Data Size    | 30 bytes |
| Instructions | 7        |

```
      00 01 02 03 04 05 06 07  08 09 0A 0B 0C 0D 0E 0F
      -- -- -- -- -- -- -- --  -- -- -- -- -- -- -- --
0730:                                   59 04 27 E2 05             Y.'..
0740: 01 99 80 1F 00 9A 80 9B  80 57 80 1F 01 1F 00 9C  .........W......
0750: 80 9D 80 57 80 1F 01 6F  00                       ...W...o.       
```

#### Opcodes

```
  0: 0x073B [0x59] UPDATE_ENTITY_DATA: Set Unnamed NPC (ID: 17162791/0x0105E227) main speed = 38* * 0.1
  1: 0x0743 [0x1F] MOVE_ENTITY: EventEntity moves to X=-41.779*, Z=70.445*, Y=-3.500*
  2: 0x074B [0x1F] MOVE_ENTITY: Update entity position (mode=1)
  3: 0x074D [0x1F] MOVE_ENTITY: EventEntity moves to X=-38.669*, Z=70.024*, Y=-3.500*
  4: 0x0755 [0x1F] MOVE_ENTITY: Update entity position (mode=1)
  5: 0x0757 [0x6F] WAIT_FRAME_DELAY: Yield until WaitTime reaches zero
  6: 0x0758 [0x00] END_REQSTACK()
```

### Event 65535.35

#### Metadata

| Field        | Value    |
|--------------|----------|
| Entrypoint   | 0x0759   |
| Data Size    | 22 bytes |
| Instructions | 2        |

```
      00 01 02 03 04 05 06 07  08 09 0A 0B 0C 0D 0E 0F
      -- -- -- -- -- -- -- --  -- -- -- -- -- -- -- --
0750:                             B6 0E 01 80 00 80 02           .......
0760: 80 01 80 01 80 01 80 02  80 80 F8 FF FF 7F 00     ............... 
```

#### Opcodes

```
  0: 0x0759 [0xB6] ENTITY_APPEARANCE_HANDLER(case=Look with Render flags, race=0*, face=4*, head=1*, body=0*, hands=0*, render_flags=0x8001)
  1: 0x0767 [0x02] IF !(12328* UNKNOWN_COND_15 0xFFF8) GOTO 0x007F
```

### Event 65535.36

#### Metadata

| Field        | Value   |
|--------------|---------|
| Entrypoint   | 0x076F  |
| Data Size    | 9 bytes |
| Instructions | 5       |

```
      00 01 02 03 04 05 06 07  08 09 0A 0B 0C 0D 0E 0F
      -- -- -- -- -- -- -- --  -- -- -- -- -- -- -- --
0760:                                               4C                 L
0770: 1C 53 80 4D 1C 08 80 00                           .S.M....        
```

#### Opcodes

```
  0: 0x076F [0x4C] EventEntity->StatusEvent = 8 // Open door
  1: 0x0770 [0x1C] WAIT(360* ticks)
  2: 0x0773 [0x4D] EventEntity->StatusEvent = 9 // Close door
  3: 0x0774 [0x1C] WAIT(80* ticks)
  4: 0x0777 [0x00] END_REQSTACK()
```

### Event 65535.37

#### Metadata

| Field        | Value    |
|--------------|----------|
| Entrypoint   | 0x0778   |
| Data Size    | 13 bytes |
| Instructions | 3        |

```
      00 01 02 03 04 05 06 07  08 09 0A 0B 0C 0D 0E 0F
      -- -- -- -- -- -- -- --  -- -- -- -- -- -- -- --
0770:                          1C 74 80 6C F8 FF FF 7F          .t.l....
0780: 01 80 4C 80 00                                    ..L..           
```

#### Opcodes

```
  0: 0x0778 [0x1C] WAIT(60* ticks)
  1: 0x077B [0x6C] FADE_ENTITY_COLOR(entity_id=EventEntity, end_alpha=0*, fade_time=180*)
  2: 0x0784 [0x00] END_REQSTACK()
```

### Event 65535.38

#### Metadata

| Field        | Value    |
|--------------|----------|
| Entrypoint   | 0x0785   |
| Data Size    | 10 bytes |
| Instructions | 2        |

```
      00 01 02 03 04 05 06 07  08 09 0A 0B 0C 0D 0E 0F
      -- -- -- -- -- -- -- --  -- -- -- -- -- -- -- --
0780:                6C F8 FF  FF 7F 07 80 74 80 00          l......t.. 
```

#### Opcodes

```
  0: 0x0785 [0x6C] FADE_ENTITY_COLOR(entity_id=EventEntity, end_alpha=128*, fade_time=60*)
  1: 0x078E [0x00] END_REQSTACK()
```

### Event 65535.39

#### Metadata

| Field        | Value   |
|--------------|---------|
| Entrypoint   | 0x078F  |
| Data Size    | 5 bytes |
| Instructions | 2       |

```
      00 01 02 03 04 05 06 07  08 09 0A 0B 0C 0D 0E 0F
      -- -- -- -- -- -- -- --  -- -- -- -- -- -- -- --
0780:                                               B6                 .
0790: 00 9E 80 00                                       ....            
```

#### Opcodes

```
  0: 0x078F [0xB6] ENTITY_APPEARANCE_HANDLER(case=Hair style, value=2346*)
  1: 0x0793 [0x00] END_REQSTACK()
```

### Event 65535.40

#### Metadata

| Field        | Value   |
|--------------|---------|
| Entrypoint   | 0x0794  |
| Data Size    | 5 bytes |
| Instructions | 2       |

```
      00 01 02 03 04 05 06 07  08 09 0A 0B 0C 0D 0E 0F
      -- -- -- -- -- -- -- --  -- -- -- -- -- -- -- --
0790:             B6 00 9F 80  00                           .....       
```

#### Opcodes

```
  0: 0x0794 [0xB6] ENTITY_APPEARANCE_HANDLER(case=Hair style, value=2250*)
  1: 0x0798 [0x00] END_REQSTACK()
```

### Event 65535.41

#### Metadata

| Field        | Value    |
|--------------|----------|
| Entrypoint   | 0x0799   |
| Data Size    | 21 bytes |
| Instructions | 2        |

```
      00 01 02 03 04 05 06 07  08 09 0A 0B 0C 0D 0E 0F
      -- -- -- -- -- -- -- --  -- -- -- -- -- -- -- --
0790:                             B6 0B 83 80 A0 80 A1           .......
07A0: 80 A2 80 74 80 A1 80 A2  80 A3 80 01 80 00        ...t..........  
```

#### Opcodes

```
  0: 0x0799 [0xB6] ENTITY_APPEARANCE_HANDLER(case=Full entity look, race=7*, hair=2*, head=164*, body=62*, hands=60*, legs=164*, feet=62*, main=216*, sub=0*)
  1: 0x07AD [0x00] END_REQSTACK()
```

### Event 65535.42

#### Metadata

| Field        | Value    |
|--------------|----------|
| Entrypoint   | 0x07AE   |
| Data Size    | 30 bytes |
| Instructions | 6        |

```
      00 01 02 03 04 05 06 07  08 09 0A 0B 0C 0D 0E 0F
      -- -- -- -- -- -- -- --  -- -- -- -- -- -- -- --
07A0:                                            59 04                Y.
07B0: F8 FF FF 7F A4 80 1F 00  A5 80 A6 80 0B 80 1F 01  ................
07C0: 6F 79 00 F8 FF FF 7F F0  FF FF 7F 00              oy..........    
```

#### Opcodes

```
  0: 0x07AE [0x59] UPDATE_ENTITY_DATA: Set EventEntity main speed = 13* * 0.1
  1: 0x07B6 [0x1F] MOVE_ENTITY: EventEntity moves to X=1.673*, Z=47.546*, Y=-1.000*
  2: 0x07BE [0x1F] MOVE_ENTITY: Update entity position (mode=1)
  3: 0x07C0 [0x6F] WAIT_FRAME_DELAY: Yield until WaitTime reaches zero
  4: 0x07C1 [0x79] EventEntity looks at LocalPlayer (Basic look)
  5: 0x07CB [0x00] END_REQSTACK()
```

### Event 65535.43

#### Metadata

| Field        | Value    |
|--------------|----------|
| Entrypoint   | 0x07CC   |
| Data Size    | 54 bytes |
| Instructions | 10       |

```
      00 01 02 03 04 05 06 07  08 09 0A 0B 0C 0D 0E 0F
      -- -- -- -- -- -- -- --  -- -- -- -- -- -- -- --
07C0:                                      06 09 10 1C              ....
07D0: 79 80 79 00 08 E2 05 01  F0 FF FF 7F 79 00 07 E2  y.y.........y...
07E0: 05 01 F0 FF FF 7F 1C 74  80 79 00 F0 FF FF 7F 08  .......t.y......
07F0: E2 05 01 1C 75 80 59 03  F0 FF FF 7F A7 80 05 09  ....u.Y.........
0800: 10 00                                             ..              
```

#### Opcodes

```
  0: 0x07CC [0x06] Work_Zone[9] = 0
  1: 0x07CF [0x1C] WAIT(300* ticks)
  2: 0x07D2 [0x79] Romaa Mihgo (ID: 17162760/0x0105E208) looks at LocalPlayer (Basic look)
  3: 0x07DC [0x79] Perih Vashai (ID: 17162759/0x0105E207) looks at LocalPlayer (Basic look)
  4: 0x07E6 [0x1C] WAIT(60* ticks)
  5: 0x07E9 [0x79] LocalPlayer looks at Romaa Mihgo (ID: 17162760/0x0105E208) (Basic look)
  6: 0x07F3 [0x1C] WAIT(120* ticks)
  7: 0x07F6 [0x59] UPDATE_ENTITY_DATA: Set LocalPlayer turn speed head = 250*
  8: 0x07FE [0x05] Work_Zone[9] = 1
  9: 0x0801 [0x00] END_REQSTACK()
```

### Event 65535.44

#### Metadata

| Field        | Value    |
|--------------|----------|
| Entrypoint   | 0x0802   |
| Data Size    | 22 bytes |
| Instructions | 2        |

```
      00 01 02 03 04 05 06 07  08 09 0A 0B 0C 0D 0E 0F
      -- -- -- -- -- -- -- --  -- -- -- -- -- -- -- --
0800:       B6 0E 01 80 01 80  01 80 01 80 01 80 01 80    ..............
0810: 02 80 80 F8 FF FF 7F 00                           ........        
```

#### Opcodes

```
  0: 0x0802 [0xB6] ENTITY_APPEARANCE_HANDLER(case=Look with Render flags, race=0*, face=0*, head=0*, body=0*, hands=0*, render_flags=0x8001)
  1: 0x0810 [0x02] IF !(12328* UNKNOWN_COND_15 0xFFF8) GOTO 0x007F
```

### Event 65535.45

#### Metadata

| Field        | Value    |
|--------------|----------|
| Entrypoint   | 0x0818   |
| Data Size    | 59 bytes |
| Instructions | 12       |

```
      00 01 02 03 04 05 06 07  08 09 0A 0B 0C 0D 0E 0F
      -- -- -- -- -- -- -- --  -- -- -- -- -- -- -- --
0810:                          59 04 F8 FF FF 7F A8 80          Y.......
0820: 1F 00 A9 80 AA 80 57 80  1F 01 1F 00 AB 80 AC 80  ......W.........
0830: 57 80 1F 01 1F 00 AD 80  AE 80 57 80 1F 01 1F 00  W.........W.....
0840: AF 80 B0 80 57 80 1F 01  6F 4A F8 FF FF 7F 00 E3  ....W...oJ......
0850: 05 01 00                                          ...             
```

#### Opcodes

```
  0: 0x0818 [0x59] UPDATE_ENTITY_DATA: Set EventEntity main speed = 11* * 0.1
  1: 0x0820 [0x1F] MOVE_ENTITY: EventEntity moves to X=305.946*, Z=39.219*, Y=-3.500*
  2: 0x0828 [0x1F] MOVE_ENTITY: Update entity position (mode=1)
  3: 0x082A [0x1F] MOVE_ENTITY: EventEntity moves to X=305.425*, Z=40.893*, Y=-3.500*
  4: 0x0832 [0x1F] MOVE_ENTITY: Update entity position (mode=1)
  5: 0x0834 [0x1F] MOVE_ENTITY: EventEntity moves to X=306.760*, Z=42.864*, Y=-3.500*
  6: 0x083C [0x1F] MOVE_ENTITY: Update entity position (mode=1)
  7: 0x083E [0x1F] MOVE_ENTITY: EventEntity moves to X=306.465*, Z=43.464*, Y=-3.500*
  8: 0x0846 [0x1F] MOVE_ENTITY: Update entity position (mode=1)
  9: 0x0848 [0x6F] WAIT_FRAME_DELAY: Yield until WaitTime reaches zero
 10: 0x0849 [0x4A] EventEntity looks at 03 (ID: 17163008/0x0105E300)
 11: 0x0852 [0x00] END_REQSTACK()
```

### Event 65535.46

#### Metadata

| Field        | Value     |
|--------------|-----------|
| Entrypoint   | 0x0853    |
| Data Size    | 165 bytes |
| Instructions | 34        |

```
      00 01 02 03 04 05 06 07  08 09 0A 0B 0C 0D 0E 0F
      -- -- -- -- -- -- -- --  -- -- -- -- -- -- -- --
0850:          59 04 F8 FF FF  7F B1 80 1F 00 B2 80 B3     Y............
0860: 80 57 80 1F 01 1F 00 B4  80 B5 80 B6 80 1F 01 1F  .W..............
0870: 00 B7 80 B8 80 B9 80 1F  01 1F 00 BA 80 BB 80 BC  ................
0880: 80 1F 01 1F 00 BD 80 BE  80 BF 80 1F 01 1F 00 C0  ................
0890: 80 C1 80 57 80 1F 01 1F  00 C2 80 C3 80 57 80 1F  ...W.........W..
08A0: 01 6F 4A F8 FF FF 7F 01  E3 05 01 1C 75 80 4A F8  .oJ.........u.J.
08B0: FF FF 7F 04 E3 05 01 1C  C4 80 1F 00 C0 80 C1 80  ................
08C0: 57 80 1F 01 1F 00 BD 80  BE 80 BF 80 1F 01 1F 00  W...............
08D0: BA 80 BB 80 BC 80 1F 01  1F 00 B7 80 B8 80 B9 80  ................
08E0: 1F 01 1F 00 B4 80 B5 80  B6 80 1F 01 1F 00 B2 80  ................
08F0: B3 80 57 80 1F 01 6F 00                           ..W...o.        
```

#### Opcodes

```
  0: 0x0853 [0x59] UPDATE_ENTITY_DATA: Set EventEntity main speed = 16* * 0.1
  1: 0x085B [0x1F] MOVE_ENTITY: EventEntity moves to X=307.350*, Z=42.258*, Y=-3.500*
  2: 0x0863 [0x1F] MOVE_ENTITY: Update entity position (mode=1)
  3: 0x0865 [0x1F] MOVE_ENTITY: EventEntity moves to X=307.943*, Z=41.017*, Y=-3.571*
  4: 0x086D [0x1F] MOVE_ENTITY: Update entity position (mode=1)
  5: 0x086F [0x1F] MOVE_ENTITY: EventEntity moves to X=308.248*, Z=39.611*, Y=-3.728*
  6: 0x0877 [0x1F] MOVE_ENTITY: Update entity position (mode=1)
  7: 0x0879 [0x1F] MOVE_ENTITY: EventEntity moves to X=308.288*, Z=38.147*, Y=-3.752*
  8: 0x0881 [0x1F] MOVE_ENTITY: Update entity position (mode=1)
  9: 0x0883 [0x1F] MOVE_ENTITY: EventEntity moves to X=307.941*, Z=37.878*, Y=-3.580*
 10: 0x088B [0x1F] MOVE_ENTITY: Update entity position (mode=1)
 11: 0x088D [0x1F] MOVE_ENTITY: EventEntity moves to X=306.894*, Z=37.611*, Y=-3.500*
 12: 0x0895 [0x1F] MOVE_ENTITY: Update entity position (mode=1)
 13: 0x0897 [0x1F] MOVE_ENTITY: EventEntity moves to X=305.843*, Z=36.702*, Y=-3.500*
 14: 0x089F [0x1F] MOVE_ENTITY: Update entity position (mode=1)
 15: 0x08A1 [0x6F] WAIT_FRAME_DELAY: Yield until WaitTime reaches zero
 16: 0x08A2 [0x4A] EventEntity looks at 04 (ID: 17163009/0x0105E301)
 17: 0x08AB [0x1C] WAIT(120* ticks)
 18: 0x08AE [0x4A] EventEntity looks at Koh Lenbalalako (ID: 17163012/0x0105E304)
 19: 0x08B7 [0x1C] WAIT(240* ticks)
 20: 0x08BA [0x1F] MOVE_ENTITY: EventEntity moves to X=306.894*, Z=37.611*, Y=-3.500*
 21: 0x08C2 [0x1F] MOVE_ENTITY: Update entity position (mode=1)
 22: 0x08C4 [0x1F] MOVE_ENTITY: EventEntity moves to X=307.941*, Z=37.878*, Y=-3.580*
 23: 0x08CC [0x1F] MOVE_ENTITY: Update entity position (mode=1)
 24: 0x08CE [0x1F] MOVE_ENTITY: EventEntity moves to X=308.288*, Z=38.147*, Y=-3.752*
 25: 0x08D6 [0x1F] MOVE_ENTITY: Update entity position (mode=1)
 26: 0x08D8 [0x1F] MOVE_ENTITY: EventEntity moves to X=308.248*, Z=39.611*, Y=-3.728*
 27: 0x08E0 [0x1F] MOVE_ENTITY: Update entity position (mode=1)
 28: 0x08E2 [0x1F] MOVE_ENTITY: EventEntity moves to X=307.943*, Z=41.017*, Y=-3.571*
 29: 0x08EA [0x1F] MOVE_ENTITY: Update entity position (mode=1)
 30: 0x08EC [0x1F] MOVE_ENTITY: EventEntity moves to X=307.350*, Z=42.258*, Y=-3.500*
 31: 0x08F4 [0x1F] MOVE_ENTITY: Update entity position (mode=1)
 32: 0x08F6 [0x6F] WAIT_FRAME_DELAY: Yield until WaitTime reaches zero
 33: 0x08F7 [0x00] END_REQSTACK()
```

### Event 65535.47

#### Metadata

| Field        | Value    |
|--------------|----------|
| Entrypoint   | 0x08F8   |
| Data Size    | 12 bytes |
| Instructions | 4        |

```
      00 01 02 03 04 05 06 07  08 09 0A 0B 0C 0D 0E 0F
      -- -- -- -- -- -- -- --  -- -- -- -- -- -- -- --
08F0:                          1F 00 C5 80 C6 80 C7 80          ........
0900: 1F 01 6F 00                                       ..o.            
```

#### Opcodes

```
  0: 0x08F8 [0x1F] MOVE_ENTITY: EventEntity moves to X=306.743*, Z=35.284*, Y=-3.595*
  1: 0x0900 [0x1F] MOVE_ENTITY: Update entity position (mode=1)
  2: 0x0902 [0x6F] WAIT_FRAME_DELAY: Yield until WaitTime reaches zero
  3: 0x0903 [0x00] END_REQSTACK()
```

### Event 65535.48

#### Metadata

| Field        | Value    |
|--------------|----------|
| Entrypoint   | 0x0904   |
| Data Size    | 38 bytes |
| Instructions | 7        |

```
      00 01 02 03 04 05 06 07  08 09 0A 0B 0C 0D 0E 0F
      -- -- -- -- -- -- -- --  -- -- -- -- -- -- -- --
0900:             6E 04 E3 05  01 83 80 99 04 E3 05 01      n...........
0910: 1C C8 80 79 00 04 E3 05  01 03 E3 05 01 6E 04 E3  ...y.........n..
0920: 05 01 C9 80 99 04 E3 05  01 00                    ..........      
```

#### Opcodes

```
  0: 0x0904 [0x6E] Koh Lenbalalako (ID: 17163012/0x0105E304) uses emote 7*
  1: 0x090B [0x99] Wait for Koh Lenbalalako (ID: 17163012/0x0105E304) animation to complete
  2: 0x0910 [0x1C] WAIT(90* ticks)
  3: 0x0913 [0x79] Koh Lenbalalako (ID: 17163012/0x0105E304) looks at Syu Befrathi (ID: 17163011/0x0105E303) (Basic look)
  4: 0x091D [0x6E] Koh Lenbalalako (ID: 17163012/0x0105E304) uses emote 10*
  5: 0x0924 [0x99] Wait for Koh Lenbalalako (ID: 17163012/0x0105E304) animation to complete
  6: 0x0929 [0x00] END_REQSTACK()
```

### Event 65535.49

#### Metadata

| Field        | Value    |
|--------------|----------|
| Entrypoint   | 0x092A   |
| Data Size    | 29 bytes |
| Instructions | 6        |

```
      00 01 02 03 04 05 06 07  08 09 0A 0B 0C 0D 0E 0F
      -- -- -- -- -- -- -- --  -- -- -- -- -- -- -- --
0920:                                59 04 F8 FF FF 7F            Y.....
0930: A4 80 1F 00 CA 80 CB 80  06 80 1F 01 6F 4A F8 FF  ............oJ..
0940: FF 7F 4E E2 05 01 00                              ..N....         
```

#### Opcodes

```
  0: 0x092A [0x59] UPDATE_ENTITY_DATA: Set EventEntity main speed = 13* * 0.1
  1: 0x0932 [0x1F] MOVE_ENTITY: EventEntity moves to X=-15.649*, Z=85.422*, Y=-4.999*
  2: 0x093A [0x1F] MOVE_ENTITY: Update entity position (mode=1)
  3: 0x093C [0x6F] WAIT_FRAME_DELAY: Yield until WaitTime reaches zero
  4: 0x093D [0x4A] EventEntity looks at Shikaree G (ID: 17162830/0x0105E24E)
  5: 0x0946 [0x00] END_REQSTACK()
```

### Event 65535.50

#### Metadata

| Field        | Value    |
|--------------|----------|
| Entrypoint   | 0x0947   |
| Data Size    | 44 bytes |
| Instructions | 7        |

```
      00 01 02 03 04 05 06 07  08 09 0A 0B 0C 0D 0E 0F
      -- -- -- -- -- -- -- --  -- -- -- -- -- -- -- --
0940:                      59  04 F8 FF FF 7F A4 80 1F         Y........
0950: 00 CC 80 CD 80 06 80 1F  01 6F 4A F8 FF FF 7F 4E  .........oJ....N
0960: E2 05 01 5B CE 80 08 E2  05 01 08 E2 05 01 73 74  ...[..........st
0970: 61 30 00                                          a0.             
```

#### Opcodes

```
  0: 0x0947 [0x59] UPDATE_ENTITY_DATA: Set EventEntity main speed = 13* * 0.1
  1: 0x094F [0x1F] MOVE_ENTITY: EventEntity moves to X=-13.733*, Z=84.623*, Y=-4.999*
  2: 0x0957 [0x1F] MOVE_ENTITY: Update entity position (mode=1)
  3: 0x0959 [0x6F] WAIT_FRAME_DELAY: Yield until WaitTime reaches zero
  4: 0x095A [0x4A] EventEntity looks at Shikaree G (ID: 17162830/0x0105E24E)
  5: 0x0963 [0x5B] LOAD_EXT_SCHEDULER: Load scheduler "sta0" with entities [Romaa Mihgo (ID: 17162760/0x0105E208), Romaa Mihgo (ID: 17162760/0x0105E208)], work=1327*
  6: 0x0972 [0x00] END_REQSTACK()
```

### Event 65535.51

#### Metadata

| Field        | Value    |
|--------------|----------|
| Entrypoint   | 0x0973   |
| Data Size    | 40 bytes |
| Instructions | 5        |

```
      00 01 02 03 04 05 06 07  08 09 0A 0B 0C 0D 0E 0F
      -- -- -- -- -- -- -- --  -- -- -- -- -- -- -- --
0970:          5B CF 80 08 E2  05 01 08 E2 05 01 64 6B     [..........dk
0980: 69 30 1C D0 80 7C 00 F8  FF FF 7F 5B CF 80 08 E2  i0...|.....[....
0990: 05 01 08 E2 05 01 64 6B  69 31 00                 ......dki1.     
```

#### Opcodes

```
  0: 0x0973 [0x5B] LOAD_EXT_SCHEDULER: Load scheduler "dki0" with entities [Romaa Mihgo (ID: 17162760/0x0105E208), Romaa Mihgo (ID: 17162760/0x0105E208)], work=2415*
  1: 0x0982 [0x1C] WAIT(45* ticks)
  2: 0x0985 [0x7C] EventEntity->Render.Flags2 |= 0x00
  3: 0x098B [0x5B] LOAD_EXT_SCHEDULER: Load scheduler "dki1" with entities [Romaa Mihgo (ID: 17162760/0x0105E208), Romaa Mihgo (ID: 17162760/0x0105E208)], work=2415*
  4: 0x099A [0x00] END_REQSTACK()
```

### Event 65535.52

#### Metadata

| Field        | Value    |
|--------------|----------|
| Entrypoint   | 0x099B   |
| Data Size    | 30 bytes |
| Instructions | 7        |

```
      00 01 02 03 04 05 06 07  08 09 0A 0B 0C 0D 0E 0F
      -- -- -- -- -- -- -- --  -- -- -- -- -- -- -- --
0990:                                   59 04 F8 FF FF             Y....
09A0: 7F C9 80 1F 00 D1 80 D2  80 D3 80 1F 01 1F 00 D4  ................
09B0: 80 D5 80 D6 80 1F 01 6F  00                       .......o.       
```

#### Opcodes

```
  0: 0x099B [0x59] UPDATE_ENTITY_DATA: Set EventEntity main speed = 10* * 0.1
  1: 0x09A3 [0x1F] MOVE_ENTITY: EventEntity moves to X=-28.071*, Z=86.474*, Y=-5.001*
  2: 0x09AB [0x1F] MOVE_ENTITY: Update entity position (mode=1)
  3: 0x09AD [0x1F] MOVE_ENTITY: EventEntity moves to X=-28.357*, Z=86.595*, Y=-5.006*
  4: 0x09B5 [0x1F] MOVE_ENTITY: Update entity position (mode=1)
  5: 0x09B7 [0x6F] WAIT_FRAME_DELAY: Yield until WaitTime reaches zero
  6: 0x09B8 [0x00] END_REQSTACK()
```

### Event 65535.53

#### Metadata

| Field        | Value    |
|--------------|----------|
| Entrypoint   | 0x09B9   |
| Data Size    | 22 bytes |
| Instructions | 5        |

```
      00 01 02 03 04 05 06 07  08 09 0A 0B 0C 0D 0E 0F
      -- -- -- -- -- -- -- --  -- -- -- -- -- -- -- --
09B0:                             1F 00 D7 80 D8 80 D9           .......
09C0: 80 1F 01 6F 79 00 4E E2  05 01 07 E2 05 01 00     ...oy.N........ 
```

#### Opcodes

```
  0: 0x09B9 [0x1F] MOVE_ENTITY: EventEntity moves to X=-28.125*, Z=86.354*, Y=-5.002*
  1: 0x09C1 [0x1F] MOVE_ENTITY: Update entity position (mode=1)
  2: 0x09C3 [0x6F] WAIT_FRAME_DELAY: Yield until WaitTime reaches zero
  3: 0x09C4 [0x79] Shikaree G (ID: 17162830/0x0105E24E) looks at Perih Vashai (ID: 17162759/0x0105E207) (Basic look)
  4: 0x09CE [0x00] END_REQSTACK()
```

### Event 65535.54

#### Metadata

| Field        | Value    |
|--------------|----------|
| Entrypoint   | 0x09CF   |
| Data Size    | 12 bytes |
| Instructions | 4        |

```
      00 01 02 03 04 05 06 07  08 09 0A 0B 0C 0D 0E 0F
      -- -- -- -- -- -- -- --  -- -- -- -- -- -- -- --
09C0:                                               1F                 .
09D0: 00 D4 80 D5 80 D6 80 1F  01 6F 00                 .........o.     
```

#### Opcodes

```
  0: 0x09CF [0x1F] MOVE_ENTITY: EventEntity moves to X=-28.357*, Z=86.595*, Y=-5.006*
  1: 0x09D7 [0x1F] MOVE_ENTITY: Update entity position (mode=1)
  2: 0x09D9 [0x6F] WAIT_FRAME_DELAY: Yield until WaitTime reaches zero
  3: 0x09DA [0x00] END_REQSTACK()
```

### Event 65535.55

#### Metadata

| Field        | Value    |
|--------------|----------|
| Entrypoint   | 0x09DB   |
| Data Size    | 60 bytes |
| Instructions | 13       |

```
      00 01 02 03 04 05 06 07  08 09 0A 0B 0C 0D 0E 0F
      -- -- -- -- -- -- -- --  -- -- -- -- -- -- -- --
09D0:                                   59 04 F8 FF FF             Y....
09E0: 7F A4 80 1F 00 DA 80 DB  80 1F 80 1F 01 1F 00 DC  ................
09F0: 80 DD 80 1F 80 1F 01 1F  00 DE 80 DF 80 1F 80 1F  ................
0A00: 01 1F 00 E0 80 E1 80 1F  80 1F 01 1F 00 26 80 27  .............&.'
0A10: 80 28 80 1F 01 6F 00                              .(...o.         
```

#### Opcodes

```
  0: 0x09DB [0x59] UPDATE_ENTITY_DATA: Set EventEntity main speed = 13* * 0.1
  1: 0x09E3 [0x1F] MOVE_ENTITY: EventEntity moves to X=-34.913*, Z=97.041*, Y=-5.000*
  2: 0x09EB [0x1F] MOVE_ENTITY: Update entity position (mode=1)
  3: 0x09ED [0x1F] MOVE_ENTITY: EventEntity moves to X=-36.843*, Z=100.526*, Y=-5.000*
  4: 0x09F5 [0x1F] MOVE_ENTITY: Update entity position (mode=1)
  5: 0x09F7 [0x1F] MOVE_ENTITY: EventEntity moves to X=-38.413*, Z=104.758*, Y=-5.000*
  6: 0x09FF [0x1F] MOVE_ENTITY: Update entity position (mode=1)
  7: 0x0A01 [0x1F] MOVE_ENTITY: EventEntity moves to X=-39.062*, Z=107.483*, Y=-5.000*
  8: 0x0A09 [0x1F] MOVE_ENTITY: Update entity position (mode=1)
  9: 0x0A0B [0x1F] MOVE_ENTITY: EventEntity moves to X=-40.133*, Z=167.579*, Y=-5.023*
 10: 0x0A13 [0x1F] MOVE_ENTITY: Update entity position (mode=1)
 11: 0x0A15 [0x6F] WAIT_FRAME_DELAY: Yield until WaitTime reaches zero
 12: 0x0A16 [0x00] END_REQSTACK()
```

### Event 65535.56

#### Metadata

| Field        | Value    |
|--------------|----------|
| Entrypoint   | 0x0A17   |
| Data Size    | 21 bytes |
| Instructions | 5        |

```
      00 01 02 03 04 05 06 07  08 09 0A 0B 0C 0D 0E 0F
      -- -- -- -- -- -- -- --  -- -- -- -- -- -- -- --
0A10:                      1F  00 E2 80 E3 80 06 80 1F         .........
0A20: 01 6F 4A 08 E2 05 01 07  E2 05 01 00              .oJ.........    
```

#### Opcodes

```
  0: 0x0A17 [0x1F] MOVE_ENTITY: EventEntity moves to X=-15.209*, Z=84.518*, Y=-4.999*
  1: 0x0A1F [0x1F] MOVE_ENTITY: Update entity position (mode=1)
  2: 0x0A21 [0x6F] WAIT_FRAME_DELAY: Yield until WaitTime reaches zero
  3: 0x0A22 [0x4A] Romaa Mihgo (ID: 17162760/0x0105E208) looks at Perih Vashai (ID: 17162759/0x0105E207)
  4: 0x0A2B [0x00] END_REQSTACK()
```

### Event 65535.57

#### Metadata

| Field        | Value    |
|--------------|----------|
| Entrypoint   | 0x0A2C   |
| Data Size    | 87 bytes |
| Instructions | 13       |

```
      00 01 02 03 04 05 06 07  08 09 0A 0B 0C 0D 0E 0F
      -- -- -- -- -- -- -- --  -- -- -- -- -- -- -- --
0A20:                                      03 09 10 E4              ....
0A30: 80 14 09 10 A8 80 3A F8  FF FF 7F 08 10 07 08 10  ......:.........
0A40: 09 10 4B F8 FF FF 7F 08  10 6F 76 F8 FF FF 7F 7B  ..K......ov....{
0A50: 07 E2 05 01 1C 03 80 5B  E5 80 07 E2 05 01 07 E2  .......[........
0A60: 05 01 70 75 70 30 53 07  E2 05 01 07 E2 05 01 70  ..pup0S........p
0A70: 75 70 30 5B E5 80 07 E2  05 01 07 E2 05 01 70 75  up0[..........pu
0A80: 70 6C 00                                          pl.             
```

#### Opcodes

```
  0: 0x0A2C [0x03] Work_Zone[9] = 210*
  1: 0x0A31 [0x14] Work_Zone[9] *= 11*
  2: 0x0A36 [0x3A] CONVERT_YAW_TO_BYTE(entity=EventEntity, result_destination=Work_Zone[8])
  3: 0x0A3D [0x07] Work_Zone[8] += Work_Zone[9]
  4: 0x0A42 [0x4B] UPDATE_ENTITY_YAW(entity=EventEntity, yaw=Work_Zone[8])
  5: 0x0A49 [0x6F] WAIT_FRAME_DELAY: Yield until WaitTime reaches zero
  6: 0x0A4A [0x76] CHECK_ENTITY_RENDER_FLAGS: Wait until EventEntity Render.Flags0 and Render.Flags3 conditions are met
  7: 0x0A4F [0x7B] Perih Vashai (ID: 17162759/0x0105E207) stops talking
  8: 0x0A54 [0x1C] WAIT(30* ticks)
  9: 0x0A57 [0x5B] LOAD_EXT_SCHEDULER: Load scheduler "pup0" with entities [Perih Vashai (ID: 17162759/0x0105E207), Perih Vashai (ID: 17162759/0x0105E207)], work=1393*
 10: 0x0A66 [0x53] WAIT_SCHEDULER_TASK: Wait for scheduler "pup0" with entities [Perih Vashai (ID: 17162759/0x0105E207), Perih Vashai (ID: 17162759/0x0105E207)]
 11: 0x0A73 [0x5B] LOAD_EXT_SCHEDULER: Load scheduler "pupl" with entities [Perih Vashai (ID: 17162759/0x0105E207), Perih Vashai (ID: 17162759/0x0105E207)], work=1393*
 12: 0x0A82 [0x00] END_REQSTACK()
```

### Event 65535.58

#### Metadata

| Field        | Value    |
|--------------|----------|
| Entrypoint   | 0x0A83   |
| Data Size    | 22 bytes |
| Instructions | 2        |

```
      00 01 02 03 04 05 06 07  08 09 0A 0B 0C 0D 0E 0F
      -- -- -- -- -- -- -- --  -- -- -- -- -- -- -- --
0A80:          B6 0E 01 80 01  80 01 80 02 80 02 80 02     .............
0A90: 80 02 80 80 F8 FF FF 7F  00                       .........       
```

#### Opcodes

```
  0: 0x0A83 [0xB6] ENTITY_APPEARANCE_HANDLER(case=Look with Render flags, race=0*, face=0*, head=0*, body=1*, hands=1*, render_flags=0x8002)
  1: 0x0A91 [0x02] IF !(12328* UNKNOWN_COND_15 0xFFF8) GOTO 0x007F
```

### Event 65535.59

#### Metadata

| Field        | Value    |
|--------------|----------|
| Entrypoint   | 0x0A99   |
| Data Size    | 22 bytes |
| Instructions | 2        |

```
      00 01 02 03 04 05 06 07  08 09 0A 0B 0C 0D 0E 0F
      -- -- -- -- -- -- -- --  -- -- -- -- -- -- -- --
0A90:                             B6 0E 01 80 00 80 01           .......
0AA0: 80 02 80 02 80 02 80 02  80 80 F8 FF FF 7F 00     ............... 
```

#### Opcodes

```
  0: 0x0A99 [0xB6] ENTITY_APPEARANCE_HANDLER(case=Look with Render flags, race=0*, face=4*, head=0*, body=1*, hands=1*, render_flags=0x8002)
  1: 0x0AA7 [0x02] IF !(12328* UNKNOWN_COND_15 0xFFF8) GOTO 0x007F
```

### Event 22

#### Metadata

| Field        | Value   |
|--------------|---------|
| Entrypoint   | 0x0AAF  |
| Data Size    | 1 bytes |
| Instructions | 1       |

```
      00 01 02 03 04 05 06 07  08 09 0A 0B 0C 0D 0E 0F
      -- -- -- -- -- -- -- --  -- -- -- -- -- -- -- --
0AA0:                                               00                 .
```

#### Opcodes

```
  0: 0x0AAF [0x00] END_REQSTACK()
```

### Event 23

#### Metadata

| Field        | Value   |
|--------------|---------|
| Entrypoint   | 0x0AB0  |
| Data Size    | 1 bytes |
| Instructions | 1       |

```
      00 01 02 03 04 05 06 07  08 09 0A 0B 0C 0D 0E 0F
      -- -- -- -- -- -- -- --  -- -- -- -- -- -- -- --
0AB0: 00                                                .               
```

#### Opcodes

```
  0: 0x0AB0 [0x00] END_REQSTACK()
```
