# 17162886

## Common Data

| Field            | Value                        |
|------------------|------------------------------|
| Zone             | Windurst Waters [S] (ID: 94) |
| Block Size       | 45564 bytes                  |
| Total Events     | 11                           |
| References Count | 1017                         |

## List of Events

| Event ID              | Entrypoint   |   Size |   Instructions |
|-----------------------|--------------|--------|----------------|
| [65535](#event-65535) | 0x0000       |      1 |              1 |
| [168](#event-168)     | 0x0001       |   5059 |            603 |
| [165](#event-165)     | 0x13C4       |   9985 |           1136 |
| [236](#event-236)     | 0x3AC5       |     43 |             11 |
| [182](#event-182)     | 0x3AF0       |   6598 |            778 |
| [184](#event-184)     | 0x54B6       |   3506 |            395 |
| [234](#event-234)     | 0x6268       |   6474 |            709 |
| [235](#event-235)     | 0x7BB2       |   2515 |            273 |
| [187](#event-187)     | 0x8585       |   1160 |            136 |
| [185](#event-185)     | 0x8A0D       |   1712 |            203 |
| [186](#event-186)     | 0x90BD       |   4382 |            478 |

## DAT References (imed_data)

|   Index | Hex Value   |   Dec Value |
|---------|-------------|-------------|
|       0 | 0x0013      |          19 |
|       1 | 0x02B7      |         695 |
|       2 | 0x3C96      |       15510 |
|       3 | 0xFFFFFC18  |  4294966296 |
|       4 | 0x000C      |          12 |
|       5 | 0xFFFFE361  |  4294959969 |
|       6 | 0xFFFFAD2B  |  4294946091 |
|       7 | 0xFFFFF830  |  4294965296 |
|       8 | 0x07AB      |        1963 |
|       9 | 0xFFFFDEF2  |  4294958834 |
|      10 | 0xFFFFACD3  |  4294946003 |
|      11 | 0x000B      |          11 |
|      12 | 0xFFFFE0F2  |  4294959346 |
|      13 | 0xFFFFA8E0  |  4294944992 |
|      14 | 0x0D2D      |        3373 |
|      15 | 0x003C      |          60 |
|      16 | 0x01B4      |         436 |
|      17 | 0x0000      |           0 |
|      18 | 0x003B      |          59 |
|      19 | 0x3355      |       13141 |
|      20 | 0x000D      |          13 |
|      21 | 0x3356      |       13142 |
|      22 | 0xFFFFDE32  |  4294958642 |
|      23 | 0xFFFFC9F8  |  4294953464 |
|      24 | 0x000F      |          15 |
|      25 | 0x0028      |          40 |
|      26 | 0x0012      |          18 |
|      27 | 0x00BE      |         190 |
|      28 | 0xFFFFF569  |  4294964585 |
|      29 | 0x32D0      |       13008 |
|      30 | 0xFFFFFC19  |  4294966297 |
|      31 | 0x0E1E      |        3614 |
|      32 | 0xFFFFEEAF  |  4294962863 |
|      33 | 0x3142      |       12610 |
|      34 | 0xFFFFF24F  |  4294963791 |
|      35 | 0x2DE4      |       11748 |
|      36 | 0x0011      |          17 |
|      37 | 0x0016      |          22 |
|      38 | 0x0078      |         120 |
|      39 | 0x052F      |        1327 |
|      40 | 0x3357      |       13143 |
|      41 | 0x3358      |       13144 |
|      42 | 0x0001      |           1 |
|      43 | 0x0002      |           2 |
|      44 | 0x0003      |           3 |
|      45 | 0x0004      |           4 |
|      46 | 0x0005      |           5 |
|      47 | 0x0006      |           6 |
|      48 | 0x0007      |           7 |
|      49 | 0x0008      |           8 |
|      50 | 0x0020      |          32 |
|      51 | 0x3359      |       13145 |
|      52 | 0x0563      |        1379 |
|      53 | 0x335A      |       13146 |
|      54 | 0x335B      |       13147 |
|      55 | 0xFFFFFCBC  |  4294966460 |
|      56 | 0x5D55      |       23893 |
|      57 | 0x03D7      |         983 |
|      58 | 0xFFFFF76B  |  4294965099 |
|      59 | 0x6239      |       25145 |
|      60 | 0x0390      |         912 |
|      61 | 0x00C8      |         200 |
|      62 | 0x335C      |       13148 |
|      63 | 0x335D      |       13149 |
|      64 | 0x001E      |          30 |
|      65 | 0x096E      |        2414 |
|      66 | 0x335E      |       13150 |
|      67 | 0x0015      |          21 |
|      68 | 0x335F      |       13151 |
|      69 | 0x0010      |          16 |
|      70 | 0x001D      |          29 |
|      71 | 0x000A      |          10 |
|      72 | 0xFFFFF927  |  4294965543 |
|      73 | 0x3863      |       14435 |
|      74 | 0x09C4      |        2500 |
|      75 | 0xFFFFF38F  |  4294964111 |
|      76 | 0x38E4      |       14564 |
|      77 | 0x0D42      |        3394 |
|      78 | 0xFFFFF775  |  4294965109 |
|      79 | 0x359D      |       13725 |
|      80 | 0x09F8      |        2552 |
|      81 | 0x002D      |          45 |
|      82 | 0x0024      |          36 |
|      83 | 0x0064      |         100 |
|      84 | 0x0050      |          80 |
|      85 | 0x0014      |          20 |
|      86 | 0x001A      |          26 |
|      87 | 0x006E      |         110 |
|      88 | 0x3360      |       13152 |
|      89 | 0xFFFFF587  |  4294964615 |
|      90 | 0x3909      |       14601 |
|      91 | 0x0EE6      |        3814 |
|      92 | 0xFFFFF751  |  4294965073 |
|      93 | 0x34FC      |       13564 |
|      94 | 0x007F      |         127 |
|      95 | 0x3361      |       13153 |
|      96 | 0x0096      |         150 |
|      97 | 0x00F2      |         242 |
|      98 | 0x01AB      |         427 |
|      99 | 0x05B2      |        1458 |
|     100 | 0x05A1      |        1441 |
|     101 | 0x423D      |       16957 |
|     102 | 0x3FA7      |       16295 |
|     103 | 0xFFFF9977  |  4294941047 |
|     104 | 0x0667      |        1639 |
|     105 | 0x4C26      |       19494 |
|     106 | 0x4339      |       17209 |
|     107 | 0xFFFF9976  |  4294941046 |
|     108 | 0x055D      |        1373 |
|     109 | 0x00B4      |         180 |
|     110 | 0x3364      |       13156 |
|     111 | 0x3365      |       13157 |
|     112 | 0x3366      |       13158 |
|     113 | 0x3367      |       13159 |
|     114 | 0x3368      |       13160 |
|     115 | 0x3369      |       13161 |
|     116 | 0x336A      |       13162 |
|     117 | 0x336B      |       13163 |
|     118 | 0x336C      |       13164 |
|     119 | 0x336D      |       13165 |
|     120 | 0x336E      |       13166 |
|     121 | 0x0062      |          98 |
|     122 | 0x33E9F     |      212639 |
|     123 | 0x3E967     |      256359 |
|     124 | 0x8725      |       34597 |
|     125 | 0x0A2C      |        2604 |
|     126 | 0x33AF4     |      211700 |
|     127 | 0x3EDAA     |      257450 |
|     128 | 0x86AD      |       34477 |
|     129 | 0x011D      |         285 |
|     130 | 0x3541F     |      218143 |
|     131 | 0x3D162     |      250210 |
|     132 | 0x8955      |       35157 |
|     133 | 0x0B38      |        2872 |
|     134 | 0x353A8     |      218024 |
|     135 | 0x3B441     |      242753 |
|     136 | 0x84EE      |       34030 |
|     137 | 0x0CD4      |        3284 |
|     138 | 0x35756     |      218966 |
|     139 | 0x39FD6     |      237526 |
|     140 | 0x8524      |       34084 |
|     141 | 0x0841      |        2113 |
|     142 | 0x371B4     |      225716 |
|     143 | 0x3C0D8     |      245976 |
|     144 | 0x8039      |       32825 |
|     145 | 0x0EBF      |        3775 |
|     146 | 0x3AEF7     |      241399 |
|     147 | 0x393C7     |      234439 |
|     148 | 0x7CFF      |       31999 |
|     149 | 0x0631      |        1585 |
|     150 | 0x36569     |      222569 |
|     151 | 0x3B707     |      243463 |
|     152 | 0x83F6      |       33782 |
|     153 | 0x089D      |        2205 |
|     154 | 0x37C9E     |      228510 |
|     155 | 0x3A62A     |      239146 |
|     156 | 0x7EAE      |       32430 |
|     157 | 0x0635      |        1589 |
|     158 | 0x37E45     |      228933 |
|     159 | 0x36534     |      222516 |
|     160 | 0x86A9      |       34473 |
|     161 | 0x0621      |        1569 |
|     162 | 0x39B45     |      236357 |
|     163 | 0x303E0     |      197600 |
|     164 | 0x7D00      |       32000 |
|     165 | 0x0BF7      |        3063 |
|     166 | 0x36275     |      221813 |
|     167 | 0x38059     |      229465 |
|     168 | 0x8962      |       35170 |
|     169 | 0x0534      |        1332 |
|     170 | 0x37D88     |      228744 |
|     171 | 0x3BAAE     |      244398 |
|     172 | 0x7F55      |       32597 |
|     173 | 0x0535      |        1333 |
|     174 | 0x04FA      |        1274 |
|     175 | 0x0045      |          69 |
|     176 | 0x00A1      |         161 |
|     177 | 0x015E      |         350 |
|     178 | 0x336F      |       13167 |
|     179 | 0x3370      |       13168 |
|     180 | 0x3371      |       13169 |
|     181 | 0x3372      |       13170 |
|     182 | 0x00F0      |         240 |
|     183 | 0x3373      |       13171 |
|     184 | 0x3374      |       13172 |
|     185 | 0x012C      |         300 |
|     186 | 0x005E      |          94 |
|     187 | 0x00B6      |         182 |
|     188 | 0x00C9      |         201 |
|     189 | 0xFFFF66BE  |  4294928062 |
|     190 | 0x38170     |      229744 |
|     191 | 0xFFFFEC78  |  4294962296 |
|     192 | 0x0485      |        1157 |
|     193 | 0xFFFF621E  |  4294926878 |
|     194 | 0x374E0     |      226528 |
|     195 | 0xFFFFEC91  |  4294962321 |
|     196 | 0x0405      |        1029 |
|     197 | 0xFFFF58F7  |  4294924535 |
|     198 | 0x35E51     |      220753 |
|     199 | 0x0DCF      |        3535 |
|     200 | 0xFFFF52E7  |  4294922983 |
|     201 | 0x353A5     |      218021 |
|     202 | 0x0D98      |        3480 |
|     203 | 0xFFFF5742  |  4294924098 |
|     204 | 0x34CF1     |      216305 |
|     205 | 0x0D87      |        3463 |
|     206 | 0xFFFF54AA  |  4294923434 |
|     207 | 0x35009     |      217097 |
|     208 | 0x0D53      |        3411 |
|     209 | 0xFFFF5726  |  4294924070 |
|     210 | 0x347E8     |      215016 |
|     211 | 0x0E43      |        3651 |
|     212 | 0xFFFF510A  |  4294922506 |
|     213 | 0x348B3     |      215219 |
|     214 | 0xFFFFEC0F  |  4294962191 |
|     215 | 0x0E60      |        3680 |
|     216 | 0x0046      |          70 |
|     217 | 0x0032      |          50 |
|     218 | 0x32FE      |       13054 |
|     219 | 0x05A3      |        1443 |
|     220 | 0x32FF      |       13055 |
|     221 | 0xFFFF60E7  |  4294926567 |
|     222 | 0x36FA7     |      225191 |
|     223 | 0xFFFFECA5  |  4294962341 |
|     224 | 0x0457      |        1111 |
|     225 | 0x3300      |       13056 |
|     226 | 0x05FC      |        1532 |
|     227 | 0x0530      |        1328 |
|     228 | 0x080A      |        2058 |
|     229 | 0x080C      |        2060 |
|     230 | 0x3301      |       13057 |
|     231 | 0x3302      |       13058 |
|     232 | 0x3303      |       13059 |
|     233 | 0x05A2      |        1442 |
|     234 | 0x0906      |        2310 |
|     235 | 0x3304      |       13060 |
|     236 | 0x3305      |       13061 |
|     237 | 0x05A6      |        1446 |
|     238 | 0x3306      |       13062 |
|     239 | 0x3307      |       13063 |
|     240 | 0xFFFF59A9  |  4294924713 |
|     241 | 0x36189     |      221577 |
|     242 | 0x0E12      |        3602 |
|     243 | 0xFFFF539C  |  4294923164 |
|     244 | 0x3497D     |      215421 |
|     245 | 0xFFFFEC41  |  4294962241 |
|     246 | 0x0D31      |        3377 |
|     247 | 0xFFFF533A  |  4294923066 |
|     248 | 0x352D1     |      217809 |
|     249 | 0x0D55      |        3413 |
|     250 | 0x005A      |          90 |
|     251 | 0x3308      |       13064 |
|     252 | 0x3309      |       13065 |
|     253 | 0x330A      |       13066 |
|     254 | 0x75D0      |       30160 |
|     255 | 0xFFFFEA11  |  4294961681 |
|     256 | 0xFFFF9E58  |  4294942296 |
|     257 | 0x068D      |        1677 |
|     258 | 0xFFFFE868  |  4294961256 |
|     259 | 0x180F      |        6159 |
|     260 | 0xFFFF9C64  |  4294941796 |
|     261 | 0x0203      |         515 |
|     262 | 0x75C0      |       30144 |
|     263 | 0xFFFFF2E9  |  4294963945 |
|     264 | 0x077A      |        1914 |
|     265 | 0x7B42      |       31554 |
|     266 | 0xFFFFEF5B  |  4294963035 |
|     267 | 0xFFFF9D5E  |  4294942046 |
|     268 | 0x4322      |       17186 |
|     269 | 0x32DC      |       13020 |
|     270 | 0x0CA1      |        3233 |
|     271 | 0x4721      |       18209 |
|     272 | 0x3080      |       12416 |
|     273 | 0x0C70      |        3184 |
|     274 | 0x00A2      |         162 |
|     275 | 0x0082      |         130 |
|     276 | 0x05A8      |        1448 |
|     277 | 0x1064      |        4196 |
|     278 | 0x068E      |        1678 |
|     279 | 0x04F9      |        1273 |
|     280 | 0x14B0      |        5296 |
|     281 | 0xFFFF9C65  |  4294941797 |
|     282 | 0x0DE1      |        3553 |
|     283 | 0x19A7      |        6567 |
|     284 | 0x330B      |       13067 |
|     285 | 0x330C      |       13068 |
|     286 | 0x330D      |       13069 |
|     287 | 0x330E      |       13070 |
|     288 | 0x330F      |       13071 |
|     289 | 0x3310      |       13072 |
|     290 | 0xFFFFC453  |  4294952019 |
|     291 | 0x07ED      |        2029 |
|     292 | 0xFFFF9A70  |  4294941296 |
|     293 | 0x091B      |        2331 |
|     294 | 0x3311      |       13073 |
|     295 | 0x3312      |       13074 |
|     296 | 0x3313      |       13075 |
|     297 | 0x3314      |       13076 |
|     298 | 0x3315      |       13077 |
|     299 | 0x3316      |       13078 |
|     300 | 0x00F7      |         247 |
|     301 | 0x3317      |       13079 |
|     302 | 0x303B      |       12347 |
|     303 | 0x339F      |       13215 |
|     304 | 0x31C1      |       12737 |
|     305 | 0x3892      |       14482 |
|     306 | 0x091C      |        2332 |
|     307 | 0x0019      |          25 |
|     308 | 0x001B      |          27 |
|     309 | 0x00FA      |         250 |
|     310 | 0xFFFFE9D5  |  4294961621 |
|     311 | 0x1FCC      |        8140 |
|     312 | 0xFFFFE94D  |  4294961485 |
|     313 | 0x261B      |        9755 |
|     314 | 0xFFFFEDFE  |  4294962686 |
|     315 | 0x2BB3      |       11187 |
|     316 | 0xFFFF9C2A  |  4294941738 |
|     317 | 0xFFFFEDE5  |  4294962661 |
|     318 | 0x2F67      |       12135 |
|     319 | 0xFFFF9B4D  |  4294941517 |
|     320 | 0x0922      |        2338 |
|     321 | 0x2D39      |       11577 |
|     322 | 0xFFFF9C31  |  4294941745 |
|     323 | 0x3318      |       13080 |
|     324 | 0x3319      |       13081 |
|     325 | 0x331A      |       13082 |
|     326 | 0x096D      |        2413 |
|     327 | 0x331B      |       13083 |
|     328 | 0x05F9      |        1529 |
|     329 | 0x331C      |       13084 |
|     330 | 0x331D      |       13085 |
|     331 | 0x080D      |        2061 |
|     332 | 0x331E      |       13086 |
|     333 | 0x331F      |       13087 |
|     334 | 0x3320      |       13088 |
|     335 | 0x3321      |       13089 |
|     336 | 0x00D8      |         216 |
|     337 | 0xFFFFE40F  |  4294960143 |
|     338 | 0x0D7B      |        3451 |
|     339 | 0x01E0      |         480 |
|     340 | 0xFFFFF083  |  4294963331 |
|     341 | 0x072E      |        1838 |
|     342 | 0x105E208   |    17162760 |
|     343 | 0x3322      |       13090 |
|     344 | 0x3323      |       13091 |
|     345 | 0x3324      |       13092 |
|     346 | 0x3325      |       13093 |
|     347 | 0x3326      |       13094 |
|     348 | 0x3327      |       13095 |
|     349 | 0x3328      |       13096 |
|     350 | 0x3329      |       13097 |
|     351 | 0x332A      |       13098 |
|     352 | 0x332B      |       13099 |
|     353 | 0x332C      |       13100 |
|     354 | 0x332D      |       13101 |
|     355 | 0x332E      |       13102 |
|     356 | 0x332F      |       13103 |
|     357 | 0x3330      |       13104 |
|     358 | 0x3331      |       13105 |
|     359 | 0x3332      |       13106 |
|     360 | 0x0E52      |        3666 |
|     361 | 0x3333      |       13107 |
|     362 | 0x3334      |       13108 |
|     363 | 0x3335      |       13109 |
|     364 | 0x3336      |       13110 |
|     365 | 0x3337      |       13111 |
|     366 | 0x3338      |       13112 |
|     367 | 0x3339      |       13113 |
|     368 | 0x333A      |       13114 |
|     369 | 0x333B      |       13115 |
|     370 | 0x333C      |       13116 |
|     371 | 0x333D      |       13117 |
|     372 | 0x333E      |       13118 |
|     373 | 0x333F      |       13119 |
|     374 | 0x2BC2      |       11202 |
|     375 | 0x13C7      |        5063 |
|     376 | 0x02ED      |         749 |
|     377 | 0x0075      |         117 |
|     378 | 0x2994      |       10644 |
|     379 | 0x0D0D      |        3341 |
|     380 | 0x0076      |         118 |
|     381 | 0x249B      |        9371 |
|     382 | 0x178D      |        6029 |
|     383 | 0x26F4      |        9972 |
|     384 | 0x1C8B      |        7307 |
|     385 | 0x1FBF      |        8127 |
|     386 | 0x1CDE      |        7390 |
|     387 | 0x0251      |         593 |
|     388 | 0x0074      |         116 |
|     389 | 0x20F3      |        8435 |
|     390 | 0x2238      |        8760 |
|     391 | 0x020C      |         524 |
|     392 | 0x1B9D      |        7069 |
|     393 | 0x2303      |        8963 |
|     394 | 0x3340      |       13120 |
|     395 | 0x3341      |       13121 |
|     396 | 0x3342      |       13122 |
|     397 | 0x3343      |       13123 |
|     398 | 0x0021      |          33 |
|     399 | 0x218B      |        8587 |
|     400 | 0xFFFFE161  |  4294959457 |
|     401 | 0x0224      |         548 |
|     402 | 0x0590      |        1424 |
|     403 | 0x261A      |        9754 |
|     404 | 0xFFFFE231  |  4294959665 |
|     405 | 0x2AAC      |       10924 |
|     406 | 0xFFFFE758  |  4294960984 |
|     407 | 0x0257      |         599 |
|     408 | 0x24B9      |        9401 |
|     409 | 0xFFFFEB58  |  4294962008 |
|     410 | 0x2A14      |       10772 |
|     411 | 0xFFFFEA82  |  4294961794 |
|     412 | 0x3C0B      |       15371 |
|     413 | 0x3A34      |       14900 |
|     414 | 0x3344      |       13124 |
|     415 | 0x10C1      |        4289 |
|     416 | 0x1194      |        4500 |
|     417 | 0x1170      |        4464 |
|     418 | 0x1492      |        5266 |
|     419 | 0x3345      |       13125 |
|     420 | 0x3346      |       13126 |
|     421 | 0x3347      |       13127 |
|     422 | 0x3348      |       13128 |
|     423 | 0x3349      |       13129 |
|     424 | 0x334A      |       13130 |
|     425 | 0x334B      |       13131 |
|     426 | 0x334C      |       13132 |
|     427 | 0x334D      |       13133 |
|     428 | 0x334E      |       13134 |
|     429 | 0x334F      |       13135 |
|     430 | 0x3350      |       13136 |
|     431 | 0x0312      |         786 |
|     432 | 0x3679      |       13945 |
|     433 | 0xFFFF67EF  |  4294928367 |
|     434 | 0x32F5C     |      208732 |
|     435 | 0xFFFFEBFA  |  4294962170 |
|     436 | 0x0760      |        1888 |
|     437 | 0xFFFF600B  |  4294926347 |
|     438 | 0x32DA1     |      208289 |
|     439 | 0xFFFFEBB1  |  4294962097 |
|     440 | 0x0F7B      |        3963 |
|     441 | 0x01C6      |         454 |
|     442 | 0x3375      |       13173 |
|     443 | 0xFFFF6A95  |  4294929045 |
|     444 | 0x351CD     |      217549 |
|     445 | 0xFFFFEC95  |  4294962325 |
|     446 | 0x0BD9      |        3033 |
|     447 | 0xFFFF66D2  |  4294928082 |
|     448 | 0x34832     |      215090 |
|     449 | 0xFFFFEC86  |  4294962310 |
|     450 | 0x0C85      |        3205 |
|     451 | 0x3376      |       13174 |
|     452 | 0x3377      |       13175 |
|     453 | 0x3378      |       13176 |
|     454 | 0x0026      |          38 |
|     455 | 0x3379      |       13177 |
|     456 | 0x337A      |       13178 |
|     457 | 0x337B      |       13179 |
|     458 | 0x337C      |       13180 |
|     459 | 0x00FF      |         255 |
|     460 | 0xFFFFEE1B  |  4294962715 |
|     461 | 0x07C1      |        1985 |
|     462 | 0x0767      |        1895 |
|     463 | 0xFFFFC64A  |  4294952522 |
|     464 | 0x09FE      |        2558 |
|     465 | 0xFFFF9A71  |  4294941297 |
|     466 | 0x03D3      |         979 |
|     467 | 0xFFFFC43B  |  4294951995 |
|     468 | 0x0EE4      |        3812 |
|     469 | 0x0492      |        1170 |
|     470 | 0xFFFFC5BF  |  4294952383 |
|     471 | 0x1499      |        5273 |
|     472 | 0x046E      |        1134 |
|     473 | 0xFFFFDDF3  |  4294958579 |
|     474 | 0x0C55      |        3157 |
|     475 | 0x079D      |        1949 |
|     476 | 0xFFFFDC40  |  4294958144 |
|     477 | 0x067E      |        1662 |
|     478 | 0xFFFFDBC2  |  4294958018 |
|     479 | 0xFFFFFF8A  |  4294967178 |
|     480 | 0xFFFFDE94  |  4294958740 |
|     481 | 0xFFFFFA23  |  4294965795 |
|     482 | 0xFFFFDC39  |  4294958137 |
|     483 | 0xFFFFF5EA  |  4294964714 |
|     484 | 0xFFFFE3CF  |  4294960079 |
|     485 | 0x0A7E      |        2686 |
|     486 | 0x0799      |        1945 |
|     487 | 0xFFFFE446  |  4294960198 |
|     488 | 0x0469      |        1129 |
|     489 | 0xFFFFE609  |  4294960649 |
|     490 | 0xFFFFFD63  |  4294966627 |
|     491 | 0xFFFFE47A  |  4294960250 |
|     492 | 0xFFFFF686  |  4294964870 |
|     493 | 0xFFFFEDC2  |  4294962626 |
|     494 | 0xFFFFFFE8  |  4294967272 |
|     495 | 0xFFFFEBFB  |  4294962171 |
|     496 | 0xFFFFF93D  |  4294965565 |
|     497 | 0x0018      |          24 |
|     498 | 0x0022      |          34 |
|     499 | 0x337D      |       13181 |
|     500 | 0x337E      |       13182 |
|     501 | 0x337F      |       13183 |
|     502 | 0x3380      |       13184 |
|     503 | 0x3381      |       13185 |
|     504 | 0x3382      |       13186 |
|     505 | 0x3383      |       13187 |
|     506 | 0x3384      |       13188 |
|     507 | 0x008C      |         140 |
|     508 | 0x0902      |        2306 |
|     509 | 0x3385      |       13189 |
|     510 | 0x05FA      |        1530 |
|     511 | 0x0570      |        1392 |
|     512 | 0x3386      |       13190 |
|     513 | 0x3387      |       13191 |
|     514 | 0x3388      |       13192 |
|     515 | 0x3389      |       13193 |
|     516 | 0x338A      |       13194 |
|     517 | 0x338B      |       13195 |
|     518 | 0x338C      |       13196 |
|     519 | 0x338D      |       13197 |
|     520 | 0x338E      |       13198 |
|     521 | 0x338F      |       13199 |
|     522 | 0x3390      |       13200 |
|     523 | 0x3391      |       13201 |
|     524 | 0x3392      |       13202 |
|     525 | 0x448E      |       17550 |
|     526 | 0x3E67      |       15975 |
|     527 | 0x0DE9      |        3561 |
|     528 | 0x409B      |       16539 |
|     529 | 0x4AF1      |       19185 |
|     530 | 0x0220      |         544 |
|     531 | 0x0031      |          49 |
|     532 | 0x3393      |       13203 |
|     533 | 0x3394      |       13204 |
|     534 | 0x3395      |       13205 |
|     535 | 0x3396      |       13206 |
|     536 | 0x3397      |       13207 |
|     537 | 0x3398      |       13208 |
|     538 | 0xFFFF642B  |  4294927403 |
|     539 | 0x35606     |      218630 |
|     540 | 0xFFFFEC79  |  4294962297 |
|     541 | 0x0BA2      |        2978 |
|     542 | 0xFFFF636F  |  4294927215 |
|     543 | 0x373CF     |      226255 |
|     544 | 0xFFFFEC72  |  4294962290 |
|     545 | 0x0449      |        1097 |
|     546 | 0xFFFF5EA6  |  4294925990 |
|     547 | 0x35D9E     |      220574 |
|     548 | 0x0D39      |        3385 |
|     549 | 0xFFFF6943  |  4294928707 |
|     550 | 0x35EF4     |      220916 |
|     551 | 0xFFFFECCF  |  4294962383 |
|     552 | 0x097C      |        2428 |
|     553 | 0xFFFF5E11  |  4294925841 |
|     554 | 0x34B62     |      215906 |
|     555 | 0x0C18      |        3096 |
|     556 | 0xFFFF66D0  |  4294928080 |
|     557 | 0x349F6     |      215542 |
|     558 | 0xFFFF5D6F  |  4294925679 |
|     559 | 0x346F0     |      214768 |
|     560 | 0xFFFF5D10  |  4294925584 |
|     561 | 0x342CA     |      213706 |
|     562 | 0x0C1A      |        3098 |
|     563 | 0xFFFF6689  |  4294928009 |
|     564 | 0x34664     |      214628 |
|     565 | 0xFFFFEC85  |  4294962309 |
|     566 | 0xFFFF6624  |  4294927908 |
|     567 | 0x341FB     |      213499 |
|     568 | 0xFFFFEC83  |  4294962307 |
|     569 | 0x3399      |       13209 |
|     570 | 0x339A      |       13210 |
|     571 | 0x339B      |       13211 |
|     572 | 0x339C      |       13212 |
|     573 | 0x339D      |       13213 |
|     574 | 0x339E      |       13214 |
|     575 | 0x33A0      |       13216 |
|     576 | 0x33A1      |       13217 |
|     577 | 0x33A2      |       13218 |
|     578 | 0x33A3      |       13219 |
|     579 | 0x33A4      |       13220 |
|     580 | 0x33A5      |       13221 |
|     581 | 0xFFFF6441  |  4294927425 |
|     582 | 0x38CA0     |      232608 |
|     583 | 0xFFFF4CD0  |  4294921424 |
|     584 | 0x36321     |      221985 |
|     585 | 0xFFFFECF3  |  4294962419 |
|     586 | 0x0C2D      |        3117 |
|     587 | 0x33A8      |       13224 |
|     588 | 0xFFFF593A  |  4294924602 |
|     589 | 0x36331     |      222001 |
|     590 | 0xFFFFECA1  |  4294962337 |
|     591 | 0x061C      |        1564 |
|     592 | 0x33A9      |       13225 |
|     593 | 0x33AA      |       13226 |
|     594 | 0x33AB      |       13227 |
|     595 | 0x00E4      |         228 |
|     596 | 0xFFFFEA29  |  4294961705 |
|     597 | 0xFFFF4869  |  4294920297 |
|     598 | 0x0B4E      |        2894 |
|     599 | 0xFFFFF3BF  |  4294964159 |
|     600 | 0xFFFFFFCD  |  4294967245 |
|     601 | 0xAEB0      |       44720 |
|     602 | 0xFFFF0FAF  |  4294905775 |
|     603 | 0x0BFE      |        3070 |
|     604 | 0xFFFFFAD2  |  4294965970 |
|     605 | 0xFFFF4868  |  4294920296 |
|     606 | 0x0B24      |        2852 |
|     607 | 0x04A6      |        1190 |
|     608 | 0x6B1E      |       27422 |
|     609 | 0xFFFF4099  |  4294918297 |
|     610 | 0x0B4F      |        2895 |
|     611 | 0xFFFFFBBD  |  4294966205 |
|     612 | 0x6A6E      |       27246 |
|     613 | 0x0B20      |        2848 |
|     614 | 0xFFFFFFF2  |  4294967282 |
|     615 | 0x7A7C      |       31356 |
|     616 | 0x0B1F      |        2847 |
|     617 | 0x00A0      |         160 |
|     618 | 0x33AC      |       13228 |
|     619 | 0x00D2      |         210 |
|     620 | 0xCB69      |       52073 |
|     621 | 0xFFFF2ADC  |  4294912732 |
|     622 | 0x0BD3      |        3027 |
|     623 | 0xFFFFFFC6  |  4294967238 |
|     624 | 0xD9C8      |       55752 |
|     625 | 0xFFFF2123  |  4294910243 |
|     626 | 0x0BD1      |        3025 |
|     627 | 0x01AC      |         428 |
|     628 | 0xFFFFEC0D  |  4294962189 |
|     629 | 0xC4D1      |       50385 |
|     630 | 0xFFFF11B8  |  4294906296 |
|     631 | 0xFFFFF210  |  4294963728 |
|     632 | 0xC1CE      |       49614 |
|     633 | 0xFFFF11B9  |  4294906297 |
|     634 | 0x0118      |         280 |
|     635 | 0x00AA      |         170 |
|     636 | 0x33AD      |       13229 |
|     637 | 0x33AE      |       13230 |
|     638 | 0x0942      |        2370 |
|     639 | 0x33AF      |       13231 |
|     640 | 0x33B0      |       13232 |
|     641 | 0x33B1      |       13233 |
|     642 | 0x33B2      |       13234 |
|     643 | 0x33B3      |       13235 |
|     644 | 0x33B4      |       13236 |
|     645 | 0x33B5      |       13237 |
|     646 | 0x15A2      |        5538 |
|     647 | 0xC35A      |       50010 |
|     648 | 0x032A      |         810 |
|     649 | 0x16FF      |        5887 |
|     650 | 0xCA3E      |       51774 |
|     651 | 0x034E      |         846 |
|     652 | 0x1A1B      |        6683 |
|     653 | 0xCFDC      |       53212 |
|     654 | 0x2D25      |       11557 |
|     655 | 0x10775     |       67445 |
|     656 | 0xFFFF0FC4  |  4294905796 |
|     657 | 0x2229      |        8745 |
|     658 | 0x106CE     |       67278 |
|     659 | 0xFFFF0FC5  |  4294905797 |
|     660 | 0x00D9      |         217 |
|     661 | 0x25E9      |        9705 |
|     662 | 0x10E95     |       69269 |
|     663 | 0x3E2D      |       15917 |
|     664 | 0x1041A     |       66586 |
|     665 | 0x0CF3      |        3315 |
|     666 | 0x40FE      |       16638 |
|     667 | 0x10F32     |       69426 |
|     668 | 0x0F77      |        3959 |
|     669 | 0x46D2      |       18130 |
|     670 | 0x10E2A     |       69162 |
|     671 | 0x0F74      |        3956 |
|     672 | 0x00A9      |         169 |
|     673 | 0x2B826     |      178214 |
|     674 | 0x5632      |       22066 |
|     675 | 0x2134      |        8500 |
|     676 | 0x03B5      |         949 |
|     677 | 0x2C4BE     |      181438 |
|     678 | 0x57A1      |       22433 |
|     679 | 0x2BECA     |      179914 |
|     680 | 0x4E36      |       20022 |
|     681 | 0x03DD      |         989 |
|     682 | 0x226C7     |      140999 |
|     683 | 0xFFFFC404  |  4294951940 |
|     684 | 0x32C7      |       12999 |
|     685 | 0x0840      |        2112 |
|     686 | 0x227CC     |      141260 |
|     687 | 0xFFFFC435  |  4294951989 |
|     688 | 0x019D      |         413 |
|     689 | 0x00FC      |         252 |
|     690 | 0x0080      |         128 |
|     691 | 0x2BA6E     |      178798 |
|     692 | 0xFFFFF038  |  4294963256 |
|     693 | 0x2729      |       10025 |
|     694 | 0x042D      |        1069 |
|     695 | 0x2C3FC     |      181244 |
|     696 | 0xFFFFEE23  |  4294962723 |
|     697 | 0x2728      |       10024 |
|     698 | 0x042B      |        1067 |
|     699 | 0x2BF75     |      180085 |
|     700 | 0xFFFFE1BA  |  4294959546 |
|     701 | 0x2715      |       10005 |
|     702 | 0x33B6      |       13238 |
|     703 | 0x33B7      |       13239 |
|     704 | 0x33B8      |       13240 |
|     705 | 0x2C687     |      181895 |
|     706 | 0xFFFFC0E1  |  4294951137 |
|     707 | 0x270F      |        9999 |
|     708 | 0x2C11E     |      180510 |
|     709 | 0xFFFFB5CC  |  4294948300 |
|     710 | 0x2742      |       10050 |
|     711 | 0x33B9      |       13241 |
|     712 | 0x33BA      |       13242 |
|     713 | 0x33BB      |       13243 |
|     714 | 0x2679D     |      157597 |
|     715 | 0xFFFFC12B  |  4294951211 |
|     716 | 0x0819      |        2073 |
|     717 | 0x2694C     |      158028 |
|     718 | 0xFFFFBAC6  |  4294949574 |
|     719 | 0x262B5     |      156341 |
|     720 | 0xFFFFBDA7  |  4294950311 |
|     721 | 0x0785      |        1925 |
|     722 | 0x33BC      |       13244 |
|     723 | 0x33BD      |       13245 |
|     724 | 0x233D3     |      144339 |
|     725 | 0xFFFFC4E8  |  4294952168 |
|     726 | 0x0759      |        1881 |
|     727 | 0x22C74     |      142452 |
|     728 | 0xFFFFB973  |  4294949235 |
|     729 | 0x07DA      |        2010 |
|     730 | 0x2311A     |      143642 |
|     731 | 0xFFFFBD87  |  4294950279 |
|     732 | 0x33BE      |       13246 |
|     733 | 0x33BF      |       13247 |
|     734 | 0x0151      |         337 |
|     735 | 0x33C0      |       13248 |
|     736 | 0x33C1      |       13249 |
|     737 | 0x33C2      |       13250 |
|     738 | 0x33C3      |       13251 |
|     739 | 0x33C4      |       13252 |
|     740 | 0x33C5      |       13253 |
|     741 | 0x33C6      |       13254 |
|     742 | 0x33C7      |       13255 |
|     743 | 0x33C8      |       13256 |
|     744 | 0x33C9      |       13257 |
|     745 | 0x33CA      |       13258 |
|     746 | 0x33CB      |       13259 |
|     747 | 0x33CC      |       13260 |
|     748 | 0x33CD      |       13261 |
|     749 | 0x33CE      |       13262 |
|     750 | 0x0145      |         325 |
|     751 | 0x33CF      |       13263 |
|     752 | 0x33D0      |       13264 |
|     753 | 0x33D1      |       13265 |
|     754 | 0x33D2      |       13266 |
|     755 | 0x33D3      |       13267 |
|     756 | 0x00AC      |         172 |
|     757 | 0x33D4      |       13268 |
|     758 | 0x0802      |        2050 |
|     759 | 0x22A68     |      141928 |
|     760 | 0xFFFFC333  |  4294951731 |
|     761 | 0x33D5      |       13269 |
|     762 | 0x00A5      |         165 |
|     763 | 0x2292F     |      141615 |
|     764 | 0xFFFFC042  |  4294950978 |
|     765 | 0x0381      |         897 |
|     766 | 0x33D6      |       13270 |
|     767 | 0x33D7      |       13271 |
|     768 | 0x33D8      |       13272 |
|     769 | 0x33D9      |       13273 |
|     770 | 0x33DA      |       13274 |
|     771 | 0x33DB      |       13275 |
|     772 | 0x33DC      |       13276 |
|     773 | 0x33DD      |       13277 |
|     774 | 0x33DE      |       13278 |
|     775 | 0x33DF      |       13279 |
|     776 | 0x33E0      |       13280 |
|     777 | 0x33E1      |       13281 |
|     778 | 0x33E2      |       13282 |
|     779 | 0x0439      |        1081 |
|     780 | 0x33E3      |       13283 |
|     781 | 0x33E4      |       13284 |
|     782 | 0x00EF      |         239 |
|     783 | 0x33E5      |       13285 |
|     784 | 0x33E6      |       13286 |
|     785 | 0x005F      |          95 |
|     786 | 0x33E7      |       13287 |
|     787 | 0x33E8      |       13288 |
|     788 | 0x33E9      |       13289 |
|     789 | 0x33EA      |       13290 |
|     790 | 0x33EB      |       13291 |
|     791 | 0x33EC      |       13292 |
|     792 | 0x33ED      |       13293 |
|     793 | 0x33EE      |       13294 |
|     794 | 0x33EF      |       13295 |
|     795 | 0x33F0      |       13296 |
|     796 | 0x33F1      |       13297 |
|     797 | 0x33F2      |       13298 |
|     798 | 0x33F3      |       13299 |
|     799 | 0x33F4      |       13300 |
|     800 | 0x33F5      |       13301 |
|     801 | 0x33F6      |       13302 |
|     802 | 0x33F7      |       13303 |
|     803 | 0x1EBBB     |      125883 |
|     804 | 0xC747      |       51015 |
|     805 | 0xFFFFF837  |  4294965303 |
|     806 | 0x0557      |        1367 |
|     807 | 0x21D87     |      138631 |
|     808 | 0xF0DA      |       61658 |
|     809 | 0xFFFFF7C0  |  4294965184 |
|     810 | 0x0793      |        1939 |
|     811 | 0x1E516     |      124182 |
|     812 | 0xCCDF      |       52447 |
|     813 | 0xFFFFF905  |  4294965509 |
|     814 | 0x20D0F     |      134415 |
|     815 | 0x8DF0      |       36336 |
|     816 | 0xFFFFF683  |  4294964867 |
|     817 | 0x09C9      |        2505 |
|     818 | 0x1DB46     |      121670 |
|     819 | 0xC396      |       50070 |
|     820 | 0xFFFFF8FE  |  4294965502 |
|     821 | 0x0ED2      |        3794 |
|     822 | 0x33F8      |       13304 |
|     823 | 0x0638      |        1592 |
|     824 | 0x0198      |         408 |
|     825 | 0x0E26      |        3622 |
|     826 | 0x33F9      |       13305 |
|     827 | 0x33FA      |       13306 |
|     828 | 0x33FB      |       13307 |
|     829 | 0x33FC      |       13308 |
|     830 | 0x33FD      |       13309 |
|     831 | 0x33FE      |       13310 |
|     832 | 0x33FF      |       13311 |
|     833 | 0x3400      |       13312 |
|     834 | 0x3401      |       13313 |
|     835 | 0x3402      |       13314 |
|     836 | 0x3403      |       13315 |
|     837 | 0x3404      |       13316 |
|     838 | 0x3405      |       13317 |
|     839 | 0x3406      |       13318 |
|     840 | 0x3407      |       13319 |
|     841 | 0x3408      |       13320 |
|     842 | 0x3409      |       13321 |
|     843 | 0x340A      |       13322 |
|     844 | 0x340B      |       13323 |
|     845 | 0x340C      |       13324 |
|     846 | 0x340D      |       13325 |
|     847 | 0x340E      |       13326 |
|     848 | 0x340F      |       13327 |
|     849 | 0x3410      |       13328 |
|     850 | 0x3411      |       13329 |
|     851 | 0x3412      |       13330 |
|     852 | 0x3413      |       13331 |
|     853 | 0x212AD     |      135853 |
|     854 | 0xF2FD      |       62205 |
|     855 | 0xFFFFF78E  |  4294965134 |
|     856 | 0x0363      |         867 |
|     857 | 0x21D84     |      138628 |
|     858 | 0xE09D      |       57501 |
|     859 | 0xFFFFF7AF  |  4294965167 |
|     860 | 0x063A      |        1594 |
|     861 | 0x21044     |      135236 |
|     862 | 0xE750      |       59216 |
|     863 | 0xFFFFF842  |  4294965314 |
|     864 | 0x02D8      |         728 |
|     865 | 0x0131      |         305 |
|     866 | 0x3414      |       13332 |
|     867 | 0x3415      |       13333 |
|     868 | 0x3416      |       13334 |
|     869 | 0x20638     |      132664 |
|     870 | 0xE70C      |       59148 |
|     871 | 0xFFFFF8EA  |  4294965482 |
|     872 | 0x0FC5      |        4037 |
|     873 | 0x21C94     |      138388 |
|     874 | 0xE8D2      |       59602 |
|     875 | 0xFFFFF803  |  4294965251 |
|     876 | 0x0FF3      |        4083 |
|     877 | 0x22014     |      139284 |
|     878 | 0xE442      |       58434 |
|     879 | 0xFFFFF7CF  |  4294965199 |
|     880 | 0x043A      |        1082 |
|     881 | 0x043B      |        1083 |
|     882 | 0x043C      |        1084 |
|     883 | 0x346C      |       13420 |
|     884 | 0x01C7      |         455 |
|     885 | 0x3417      |       13335 |
|     886 | 0x3418      |       13336 |
|     887 | 0x3419      |       13337 |
|     888 | 0x341A      |       13338 |
|     889 | 0x341B      |       13339 |
|     890 | 0x341C      |       13340 |
|     891 | 0x341D      |       13341 |
|     892 | 0x341E      |       13342 |
|     893 | 0x341F      |       13343 |
|     894 | 0x3420      |       13344 |
|     895 | 0x3421      |       13345 |
|     896 | 0x3422      |       13346 |
|     897 | 0x3423      |       13347 |
|     898 | 0x3424      |       13348 |
|     899 | 0x3425      |       13349 |
|     900 | 0x3426      |       13350 |
|     901 | 0x3427      |       13351 |
|     902 | 0x3428      |       13352 |
|     903 | 0x3429      |       13353 |
|     904 | 0x342A      |       13354 |
|     905 | 0x342B      |       13355 |
|     906 | 0x342C      |       13356 |
|     907 | 0x342D      |       13357 |
|     908 | 0x342E      |       13358 |
|     909 | 0x342F      |       13359 |
|     910 | 0x3430      |       13360 |
|     911 | 0x3431      |       13361 |
|     912 | 0x3432      |       13362 |
|     913 | 0x3433      |       13363 |
|     914 | 0x3434      |       13364 |
|     915 | 0x20FFC     |      135164 |
|     916 | 0xED12      |       60690 |
|     917 | 0xFFFFF833  |  4294965299 |
|     918 | 0x3436      |       13366 |
|     919 | 0x3437      |       13367 |
|     920 | 0xFFFFFF4E  |  4294967118 |
|     921 | 0xFFFF8F3E  |  4294938430 |
|     922 | 0x0BE1      |        3041 |
|     923 | 0x26EC      |        9964 |
|     924 | 0x3B48      |       15176 |
|     925 | 0x0BCD      |        3021 |
|     926 | 0xFFFFFFB2  |  4294967218 |
|     927 | 0xFFFFCA84  |  4294953604 |
|     928 | 0xFFFFE72B  |  4294960939 |
|     929 | 0x18A1      |        6305 |
|     930 | 0x0E24      |        3620 |
|     931 | 0x3438      |       13368 |
|     932 | 0x3439      |       13369 |
|     933 | 0x04B9      |        1209 |
|     934 | 0x2A20      |       10784 |
|     935 | 0x0740      |        1856 |
|     936 | 0xFFFFFE1B  |  4294966811 |
|     937 | 0x216E      |        8558 |
|     938 | 0x343A      |       13370 |
|     939 | 0x343B      |       13371 |
|     940 | 0x343C      |       13372 |
|     941 | 0xFFFFDD49  |  4294958409 |
|     942 | 0x29E8      |       10728 |
|     943 | 0xFFFF9A60  |  4294941280 |
|     944 | 0x0510      |        1296 |
|     945 | 0x343D      |       13373 |
|     946 | 0x343E      |       13374 |
|     947 | 0x343F      |       13375 |
|     948 | 0x3440      |       13376 |
|     949 | 0x3441      |       13377 |
|     950 | 0x3442      |       13378 |
|     951 | 0x3443      |       13379 |
|     952 | 0x3444      |       13380 |
|     953 | 0x3445      |       13381 |
|     954 | 0xFFFFF5AA  |  4294964650 |
|     955 | 0xFFFF9AE4  |  4294941412 |
|     956 | 0x012F      |         303 |
|     957 | 0x0137      |         311 |
|     958 | 0x3717      |       14103 |
|     959 | 0xFFFF9A39  |  4294941241 |
|     960 | 0x0134      |         308 |
|     961 | 0xFFFFFB03  |  4294966019 |
|     962 | 0x32A2      |       12962 |
|     963 | 0xFFFF9B40  |  4294941504 |
|     964 | 0x012E      |         302 |
|     965 | 0xFFFFFEEC  |  4294967020 |
|     966 | 0x3D53      |       15699 |
|     967 | 0x3446      |       13382 |
|     968 | 0x3447      |       13383 |
|     969 | 0x0077      |         119 |
|     970 | 0x3448      |       13384 |
|     971 | 0x3449      |       13385 |
|     972 | 0x344A      |       13386 |
|     973 | 0x344B      |       13387 |
|     974 | 0x344C      |       13388 |
|     975 | 0x344D      |       13389 |
|     976 | 0x344E      |       13390 |
|     977 | 0x344F      |       13391 |
|     978 | 0x3450      |       13392 |
|     979 | 0x3451      |       13393 |
|     980 | 0x3452      |       13394 |
|     981 | 0x009F      |         159 |
|     982 | 0x3453      |       13395 |
|     983 | 0x3454      |       13396 |
|     984 | 0x3455      |       13397 |
|     985 | 0x3456      |       13398 |
|     986 | 0x3457      |       13399 |
|     987 | 0x3458      |       13400 |
|     988 | 0x3459      |       13401 |
|     989 | 0x345A      |       13402 |
|     990 | 0x345B      |       13403 |
|     991 | 0x345C      |       13404 |
|     992 | 0x345D      |       13405 |
|     993 | 0x345E      |       13406 |
|     994 | 0x345F      |       13407 |
|     995 | 0x3460      |       13408 |
|     996 | 0x3461      |       13409 |
|     997 | 0x3462      |       13410 |
|     998 | 0x3463      |       13411 |
|     999 | 0x3464      |       13412 |
|    1000 | 0x0D4C      |        3404 |
|    1001 | 0xFFFFB6A4  |  4294948516 |
|    1002 | 0x01F3      |         499 |
|    1003 | 0x070C      |        1804 |
|    1004 | 0x182E      |        6190 |
|    1005 | 0xFFFFD549  |  4294956361 |
|    1006 | 0x0404      |        1028 |
|    1007 | 0x0E81      |        3713 |
|    1008 | 0xFFFFD0AD  |  4294955181 |
|    1009 | 0x01AA      |         426 |
|    1010 | 0x3465      |       13413 |
|    1011 | 0x3466      |       13414 |
|    1012 | 0x3467      |       13415 |
|    1013 | 0x3468      |       13416 |
|    1014 | 0x3469      |       13417 |
|    1015 | 0x346A      |       13418 |
|    1016 | 0x346B      |       13419 |

## String References

- **13311**: What will you ask about? [The small./The winged./The eight-chambered abode./Nothing at the moment.]
- **13420**: Which scene will you view? [Random scene./Recovered the $3./Recovered the $3./Recovered the $3.]

## Events

### Event 65535

#### Metadata

| Field        | Value   |
|--------------|---------|
| Entrypoint   | 0x0000  |
| Data Size    | 1 bytes |
| Instructions | 1       |

```
      00 01 02 03 04 05 06 07  08 09 0A 0B 0C 0D 0E 0F
      -- -- -- -- -- -- -- --  -- -- -- -- -- -- -- --
0000: 00                                                .               
```

#### Opcodes

```
  0: 0x0000 [0x00] END_REQSTACK()
```

### Event 168

#### Metadata

| Field        | Value      |
|--------------|------------|
| Entrypoint   | 0x0001     |
| Data Size    | 5059 bytes |
| Instructions | 603        |

```
      00 01 02 03 04 05 06 07  08 09 0A 0B 0C 0D 0E 0F
      -- -- -- -- -- -- -- --  -- -- -- -- -- -- -- --
0000:    42 1A 78 A1 46 01 38  00 80 20 01 4E 00 2A E2   B.x.F.8.. .N.*.
0010: 05 01 4E 00 2B E2 05 01  4E 00 08 E2 05 01 4E 00  ..N.+...N.....N.
0020: FF E1 05 01 94 01 F0 FF  FF 7F 94 01 2A E2 05 01  ............*...
0030: 94 01 2B E2 05 01 94 01  08 E2 05 01 94 01 FF E1  ..+.............
0040: 05 01 80 F0 FF FF 7F 80  2A E2 05 01 80 2B E2 05  ........*....+..
0050: 01 80 08 E2 05 01 80 FF  E1 05 01 BA F0 FF FF 7F  ................
0060: 01 80 02 80 03 80 04 80  BA 08 E2 05 01 05 80 06  ................
0070: 80 07 80 08 80 BA 2A E2  05 01 09 80 0A 80 07 80  ......*.........
0080: 0B 80 BA 2B E2 05 01 0C  80 0D 80 07 80 0E 80 7B  ...+...........{
0090: F0 FF FF 7F 7B 08 E2 05  01 7B 2A E2 05 01 7B 2B  ....{....{*...{+
00A0: E2 05 01 7B FF E1 05 01  79 00 F0 FF FF 7F F0 FF  ...{....y.......
00B0: FF 7F 92 01 2A E2 05 01  92 01 2B E2 05 01 92 01  ....*.....+.....
00C0: 08 E2 05 01 92 01 FF E1  05 01 4E 00 11 E2 05 01  ..........N.....
00D0: 94 01 11 E2 05 01 80 11  E2 05 01 92 01 11 E2 05  ................
00E0: 01 1C 0F 80 45 10 80 F0  FF FF 7F F0 FF FF 7F 73  ....E..........s
00F0: 30 30 30 11 80 1A 57 A1  66 12 80 FF E1 05 01 FF  000...W.f.......
0100: E1 05 01 74 6C 6B 30 2B  FF E1 05 01 13 80 23 66  ...tlk0+......#f
0110: 12 80 FF E1 05 01 FF E1  05 01 74 6C 6B 31 52 10  ..........tlk1R.
0120: 80 F0 FF FF 7F F0 FF FF  7F 73 30 30 30 45 10 80  .........s000E..
0130: F0 FF FF 7F F0 FF FF 7F  73 30 32 38 11 80 79 00  ........s028..y.
0140: FF E1 05 01 08 E2 05 01  6E FF E1 05 01 14 80 99  ........n.......
0150: FF E1 05 01 1C 0F 80 2B  FF E1 05 01 15 80 23 79  .......+......#y
0160: 00 08 E2 05 01 F0 FF FF  7F 52 10 80 F0 FF FF 7F  .........R......
0170: F0 FF FF 7F 73 30 32 38  BA 11 E2 05 01 16 80 17  ....s028........
0180: 80 07 80 04 80 45 10 80  F0 FF FF 7F F0 FF FF 7F  .....E..........
0190: 73 30 33 38 11 80 1C 18  80 59 04 08 E2 05 01 14  s038.....Y......
01A0: 80 59 04 2A E2 05 01 14  80 59 04 2B E2 05 01 14  .Y.*.....Y.+....
01B0: 80 27 10 08 E2 05 01 33  1C 19 80 27 10 2A E2 05  .'.....3...'.*..
01C0: 01 1A 1C 1A 80 27 10 2B  E2 05 01 1E 1C 1B 80 7A  .....'.+.......z
01D0: 00 08 E2 05 01 7A 00 2A  E2 05 01 7A 00 2B E2 05  .....z.*...z.+..
01E0: 01 4E 01 11 E2 05 01 BA  08 E2 05 01 1C 80 1D 80  .N..............
01F0: 1E 80 1F 80 BA 2A E2 05  01 20 80 21 80 1E 80 1F  .....*... .!....
0200: 80 BA 2B E2 05 01 22 80  23 80 1E 80 1F 80 52 10  ..+...".#.....R.
0210: 80 F0 FF FF 7F F0 FF FF  7F 73 30 33 38 45 10 80  .........s038E..
0220: F0 FF FF 7F F0 FF FF 7F  73 30 30 31 11 80 7B FF  ........s001..{.
0230: E1 05 01 27 10 08 E2 05  01 32 1C 24 80 27 10 2A  ...'.....2.$.'.*
0240: E2 05 01 19 1C 25 80 29  10 2B E2 05 01 1D 4A F0  .....%.).+....J.
0250: FF FF 7F 08 E2 05 01 1C  26 80 52 10 80 F0 FF FF  ........&.R.....
0260: 7F F0 FF FF 7F 73 30 30  31 45 10 80 F0 FF FF 7F  .....s001E......
0270: F0 FF FF 7F 73 30 33 39  11 80 2A 10 08 E2 05 01  ....s039..*.....
0280: 5B 27 80 08 E2 05 01 08  E2 05 01 73 74 61 30 79  ['.........sta0y
0290: 00 2A E2 05 01 08 E2 05  01 2B 08 E2 05 01 28 80  .*.......+....(.
02A0: 23 52 10 80 F0 FF FF 7F  F0 FF FF 7F 73 30 33 39  #R..........s039
02B0: 45 10 80 F0 FF FF 7F F0  FF FF 7F 73 30 31 36 11  E..........s016.
02C0: 80 5B 27 80 08 E2 05 01  08 E2 05 01 73 74 61 31  .['.........sta1
02D0: 27 10 2A E2 05 01 1B 2B  2A E2 05 01 29 80 23 1C  '.*....+*...).#.
02E0: 18 80 52 10 80 F0 FF FF  7F F0 FF FF 7F 73 30 31  ..R..........s01
02F0: 36 45 10 80 F0 FF FF 7F  F0 FF FF 7F 73 30 33 32  6E..........s032
0300: 11 80 27 10 2B E2 05 01  1F 1C 0F 80 29 10 F0 FF  ..'.+.......)...
0310: FF 7F 0A 02 02 10 2A 80  80 3E 03 52 10 80 F0 FF  ......*..>.R....
0320: FF 7F F0 FF FF 7F 73 30  33 32 45 10 80 F0 FF FF  ......s032E.....
0330: 7F F0 FF FF 7F 77 68 6D  32 11 80 01 6B 04 02 02  .....whm2...k...
0340: 10 2B 80 80 69 03 52 10  80 F0 FF FF 7F F0 FF FF  .+..i.R.........
0350: 7F 73 30 33 32 45 10 80  F0 FF FF 7F F0 FF FF 7F  .s032E..........
0360: 77 68 6D 32 11 80 01 6B  04 02 02 10 2C 80 80 94  whm2...k....,...
0370: 03 52 10 80 F0 FF FF 7F  F0 FF FF 7F 73 30 33 32  .R..........s032
0380: 45 10 80 F0 FF FF 7F F0  FF FF 7F 77 65 6D 32 11  E..........wem2.
0390: 80 01 6B 04 02 02 10 2D  80 80 BF 03 52 10 80 F0  ..k....-....R...
03A0: FF FF 7F F0 FF FF 7F 73  30 33 32 45 10 80 F0 FF  .......s032E....
03B0: FF 7F F0 FF FF 7F 77 65  6D 32 11 80 01 6B 04 02  ......wem2...k..
03C0: 02 10 2E 80 80 EA 03 52  10 80 F0 FF FF 7F F0 FF  .......R........
03D0: FF 7F 73 30 33 32 45 10  80 F0 FF FF 7F F0 FF FF  ..s032E.........
03E0: 7F 77 74 72 32 11 80 01  6B 04 02 02 10 2F 80 80  .wtr2...k..../..
03F0: 15 04 52 10 80 F0 FF FF  7F F0 FF FF 7F 73 30 33  ..R..........s03
0400: 32 45 10 80 F0 FF FF 7F  F0 FF FF 7F 77 74 72 32  2E..........wtr2
0410: 11 80 01 6B 04 02 02 10  30 80 80 40 04 52 10 80  ...k....0..@.R..
0420: F0 FF FF 7F F0 FF FF 7F  73 30 33 32 45 10 80 F0  ........s032E...
0430: FF FF 7F F0 FF FF 7F 77  6D 74 32 11 80 01 6B 04  .......wmt2...k.
0440: 02 02 10 31 80 80 6B 04  52 10 80 F0 FF FF 7F F0  ...1..k.R.......
0450: FF FF 7F 73 30 33 32 45  10 80 F0 FF FF 7F F0 FF  ...s032E........
0460: FF 7F 77 67 6C 32 11 80  01 6B 04 4A F0 FF FF 7F  ..wgl2...k.J....
0470: 2B E2 05 01 6F 76 F0 FF  FF 7F 6E 2B E2 05 01 32  +...ov....n+...2
0480: 80 99 2B E2 05 01 2B 2B  E2 05 01 33 80 23 1C 0F  ..+...++...3.#..
0490: 80 52 10 80 F0 FF FF 7F  F0 FF FF 7F 77 68 6D 32  .R..........whm2
04A0: 52 10 80 F0 FF FF 7F F0  FF FF 7F 77 68 66 32 52  R..........whf2R
04B0: 10 80 F0 FF FF 7F F0 FF  FF 7F 77 65 6D 32 52 10  ..........wem2R.
04C0: 80 F0 FF FF 7F F0 FF FF  7F 77 65 66 32 52 10 80  .........wef2R..
04D0: F0 FF FF 7F F0 FF FF 7F  77 74 72 32 52 10 80 F0  ........wtr2R...
04E0: FF FF 7F F0 FF FF 7F 77  6D 74 32 52 10 80 F0 FF  .......wmt2R....
04F0: FF 7F F0 FF FF 7F 77 67  6C 32 45 10 80 F0 FF FF  ......wgl2E.....
0500: 7F F0 FF FF 7F 73 30 30  32 11 80 5B 34 80 08 E2  .....s002..[4...
0510: 05 01 08 E2 05 01 72 6D  6C 30 4A F0 FF FF 7F 08  ......rml0J.....
0520: E2 05 01 1C 18 80 27 10  2B E2 05 01 20 2B 08 E2  ......'.+... +..
0530: 05 01 35 80 23 53 08 E2  05 01 08 E2 05 01 72 6D  ..5.#S........rm
0540: 6C 30 52 10 80 F0 FF FF  7F F0 FF FF 7F 73 30 30  l0R..........s00
0550: 32 45 10 80 F0 FF FF 7F  F0 FF FF 7F 73 30 33 30  2E..........s030
0560: 11 80 66 12 80 08 E2 05  01 08 E2 05 01 74 6C 6B  ..f..........tlk
0570: 30 1C 18 80 2B 08 E2 05  01 36 80 23 66 12 80 08  0...+....6.#f...
0580: E2 05 01 08 E2 05 01 74  6C 6B 31 4E 00 11 E2 05  .......tlk1N....
0590: 01 4E 00 12 E2 05 01 4E  00 93 E2 05 01 4E 00 94  .N.....N.....N..
05A0: E2 05 01 4E 00 95 E2 05  01 94 01 11 E2 05 01 94  ...N............
05B0: 01 12 E2 05 01 94 01 93  E2 05 01 94 01 94 E2 05  ................
05C0: 01 94 01 95 E2 05 01 80  11 E2 05 01 80 12 E2 05  ................
05D0: 01 80 93 E2 05 01 80 94  E2 05 01 80 95 E2 05 01  ................
05E0: 92 01 11 E2 05 01 92 01  12 E2 05 01 92 01 93 E2  ................
05F0: 05 01 92 01 94 E2 05 01  92 01 95 E2 05 01 BA 11  ................
0600: E2 05 01 37 80 38 80 03  80 39 80 BA 12 E2 05 01  ...7.8...9......
0610: 3A 80 3B 80 03 80 3C 80  BA 93 E2 05 01 37 80 38  :.;...<......7.8
0620: 80 03 80 39 80 BA 94 E2  05 01 3A 80 3B 80 03 80  ...9......:.;...
0630: 3C 80 BA 95 E2 05 01 3A  80 3B 80 03 80 3C 80 59  <......:.;...<.Y
0640: 04 11 E2 05 01 14 80 59  04 12 E2 05 01 14 80 59  .......Y.......Y
0650: 04 93 E2 05 01 14 80 59  04 94 E2 05 01 14 80 59  .......Y.......Y
0660: 04 95 E2 05 01 14 80 27  10 01 E2 05 01 16 52 10  .......'......R.
0670: 80 F0 FF FF 7F F0 FF FF  7F 73 30 33 30 45 10 80  .........s030E..
0680: F0 FF FF 7F F0 FF FF 7F  73 30 30 33 11 80 1C 3D  ........s003...=
0690: 80 52 10 80 F0 FF FF 7F  F0 FF FF 7F 73 30 30 33  .R..........s003
06A0: 45 10 80 F0 FF FF 7F F0  FF FF 7F 73 30 33 33 11  E..........s033.
06B0: 80 79 00 2B E2 05 01 11  E2 05 01 2B 2B E2 05 01  .y.+.......++...
06C0: 3E 80 23 4A 2A E2 05 01  11 E2 05 01 4A F0 FF FF  >.#J*.......J...
06D0: 7F 11 E2 05 01 1C 0F 80  52 10 80 F0 FF FF 7F F0  ........R.......
06E0: FF FF 7F 73 30 33 33 7B  2B E2 05 01 45 10 80 F0  ...s033{+...E...
06F0: FF FF 7F F0 FF FF 7F 73  30 30 34 11 80 79 00 08  .......s004..y..
0700: E2 05 01 11 E2 05 01 4A  2A E2 05 01 11 E2 05 01  .......J*.......
0710: 4A 2B E2 05 01 11 E2 05  01 7C 00 11 E2 05 01 7C  J+.......|.....|
0720: 01 11 E2 05 01 27 10 08  E2 05 01 3E 2B 08 E2 05  .....'.....>+...
0730: 01 3F 80 23 2A 10 08 E2  05 01 52 10 80 F0 FF FF  .?.#*.....R.....
0740: 7F F0 FF FF 7F 73 30 30  34 45 10 80 F0 FF FF 7F  .....s004E......
0750: F0 FF FF 7F 79 73 30 30  11 80 1C 40 80 7B 08 E2  ....ys00...@.{..
0760: 05 01 1C 40 80 29 10 08  E2 05 01 3F 6F 76 08 E2  ...@.).....?ov..
0770: 05 01 1C 2C 80 5B 41 80  08 E2 05 01 08 E2 05 01  ...,.[A.........
0780: 65 68 6E 30 1C 2E 80 52  10 80 F0 FF FF 7F F0 FF  ehn0...R........
0790: FF 7F 79 73 30 30 45 10  80 F0 FF FF 7F F0 FF FF  ..ys00E.........
07A0: 7F 73 30 31 38 11 80 79  00 2B E2 05 01 08 E2 05  .s018..y.+......
07B0: 01 2B 08 E2 05 01 42 80  23 53 08 E2 05 01 08 E2  .+....B.#S......
07C0: 05 01 65 68 6E 30 52 10  80 F0 FF FF 7F F0 FF FF  ..ehn0R.........
07D0: 7F 73 30 31 38 45 10 80  F0 FF FF 7F F0 FF FF 7F  .s018E..........
07E0: 73 30 31 39 11 80 1C 18  80 4A 08 E2 05 01 11 E2  s019.....J......
07F0: 05 01 6B 69 64 6C 30 08  E2 05 01 79 00 12 E2 05  ..kidl0....y....
0800: 01 11 E2 05 01 6E 93 E2  05 01 43 80 99 93 E2 05  .....n....C.....
0810: 01 2B 11 E2 05 01 44 80  23 59 04 11 E2 05 01 45  .+....D.#Y.....E
0820: 80 27 10 11 E2 05 01 08  1C 18 80 6E 12 E2 05 01  .'.........n....
0830: 46 80 99 12 E2 05 01 1C  2E 80 6E 94 E2 05 01 43  F.........n....C
0840: 80 99 94 E2 05 01 1C 47  80 6E 95 E2 05 01 1A 80  .......G.n......
0850: 99 95 E2 05 01 BA 08 E2  05 01 48 80 49 80 1E 80  ..........H.I...
0860: 4A 80 BA 2A E2 05 01 4B  80 4C 80 1E 80 4D 80 BA  J..*...K.L...M..
0870: 2B E2 05 01 4E 80 4F 80  03 80 50 80 1C 51 80 52  +...N.O...P..Q.R
0880: 10 80 F0 FF FF 7F F0 FF  FF 7F 73 30 31 39 45 10  ..........s019E.
0890: 80 F0 FF FF 7F F0 FF FF  7F 73 30 30 35 11 80 7B  .........s005..{
08A0: 12 E2 05 01 7B 94 E2 05  01 7B 95 E2 05 01 59 04  ....{....{....Y.
08B0: 12 E2 05 01 52 80 59 04  93 E2 05 01 52 80 59 04  ....R.Y.....R.Y.
08C0: 94 E2 05 01 52 80 59 04  95 E2 05 01 52 80 27 10  ....R.Y.....R.'.
08D0: 12 E2 05 01 09 1C 31 80  27 10 93 E2 05 01 09 1C  ......1.'.......
08E0: 47 80 27 10 94 E2 05 01  09 1C 31 80 27 10 95 E2  G.'.......1.'...
08F0: 05 01 09 1C 53 80 4A F0  FF FF 7F 11 E2 05 01 27  ....S.J........'
0900: 10 2B E2 05 01 21 27 10  2A E2 05 01 1D 27 10 08  .+...!'.*....'..
0910: E2 05 01 3D 7B 08 E2 05  01 7B 2A E2 05 01 7B 2B  ...={....{*...{+
0920: E2 05 01 1C 54 80 52 10  80 F0 FF FF 7F F0 FF FF  ....T.R.........
0930: 7F 73 30 30 35 45 10 80  F0 FF FF 7F F0 FF FF 7F  .s005E..........
0940: 73 30 33 34 11 80 7B 12  E2 05 01 59 04 12 E2 05  s034..{....Y....
0950: 01 19 80 27 10 12 E2 05  01 09 1C 55 80 29 10 2B  ...'.......U.).+
0960: E2 05 01 22 27 10 2A E2  05 01 1E 6E 2B E2 05 01  ..."'.*....n+...
0970: 25 80 99 2B E2 05 01 1C  18 80 1C 40 80 6E 2A E2  %..+.......@.n*.
0980: 05 01 56 80 99 2A E2 05  01 5B 34 80 08 E2 05 01  ..V..*...[4.....
0990: 08 E2 05 01 72 6D 6C 30  1C 57 80 4E 01 11 E2 05  ....rml0.W.N....
09A0: 01 4E 01 12 E2 05 01 4E  01 93 E2 05 01 4E 01 94  .N.....N.....N..
09B0: E2 05 01 4E 01 95 E2 05  01 52 10 80 F0 FF FF 7F  ...N.....R......
09C0: F0 FF FF 7F 73 30 33 34  45 10 80 F0 FF FF 7F F0  ....s034E.......
09D0: FF FF 7F 73 30 30 36 11  80 4A 08 E2 05 01 F0 FF  ...s006..J......
09E0: FF 7F 1C 53 80 4A 2B E2  05 01 F0 FF FF 7F 1C 55  ...S.J+........U
09F0: 80 4A 2A E2 05 01 F0 FF  FF 7F 2B 08 E2 05 01 58  .J*.......+....X
0A00: 80 23 4A F0 FF FF 7F 08  E2 05 01 1C 40 80 52 10  .#J.........@.R.
0A10: 80 F0 FF FF 7F F0 FF FF  7F 73 30 30 36 BA 2A E2  .........s006.*.
0A20: 05 01 59 80 5A 80 1E 80  5B 80 BA 2B E2 05 01 5C  ..Y.Z...[..+...\
0A30: 80 5D 80 1E 80 5B 80 45  10 80 F0 FF FF 7F F0 FF  .]...[.E........
0A40: FF 7F 73 30 33 31 11 80  66 5E 80 08 E2 05 01 08  ..s031..f^......
0A50: E2 05 01 70 61 73 30 1C  40 80 6E 2B E2 05 01 04  ...pas0.@.n+....
0A60: 80 99 2B E2 05 01 6E 2A  E2 05 01 14 80 99 2A E2  ..+...n*......*.
0A70: 05 01 2B 08 E2 05 01 5F  80 23 53 08 E2 05 01 08  ..+...._.#S.....
0A80: E2 05 01 70 61 73 30 1C  40 80 5D 11 80 60 80 45  ...pas0.@.]..`.E
0A90: 3D 80 F0 FF FF 7F F0 FF  FF 7F 66 64 6F 32 11 80  =.........fdo2..
0AA0: 55 3D 80 F0 FF FF 7F F0  FF FF 7F 66 64 6F 32 1C  U=.........fdo2.
0AB0: 0F 80 52 10 80 F0 FF FF  7F F0 FF FF 7F 73 30 33  ..R..........s03
0AC0: 31 34 61 80 77 11 80 2A  80 AB 09 1C 18 80 75 00  14a.w..*......u.
0AD0: 62 80 75 01 5B 63 80 87  E2 05 01 87 E2 05 01 00  b.u.[c..........
0AE0: FE FE FE 5B 64 80 36 E2  05 01 36 E2 05 01 00 FE  ...[d.6...6.....
0AF0: FE FE 4E 00 18 E2 05 01  4E 00 36 E2 05 01 4E 00  ..N.....N.6...N.
0B00: 87 E2 05 01 BA 18 E2 05  01 65 80 66 80 67 80 68  .........e.f.g.h
0B10: 80 BA 36 E2 05 01 69 80  6A 80 6B 80 68 80 BA 87  ..6...i.j.k.h...
0B20: E2 05 01 69 80 6A 80 6B  80 68 80 92 01 18 E2 05  ...i.j.k.h......
0B30: 01 92 01 36 E2 05 01 92  01 87 E2 05 01 94 01 18  ...6............
0B40: E2 05 01 94 01 36 E2 05  01 94 01 87 E2 05 01 80  .....6..........
0B50: 18 E2 05 01 80 36 E2 05  01 80 87 E2 05 01 5B 63  .....6........[c
0B60: 80 87 E2 05 01 87 E2 05  01 63 68 65 73 5B 64 80  .........ches[d.
0B70: 36 E2 05 01 36 E2 05 01  63 68 65 73 5C 00 5E 80  6...6...ches\.^.
0B80: 5C 01 5E 80 9A 45 10 80  F0 FF FF 7F F0 FF FF 7F  \.^..E..........
0B90: 73 30 32 30 11 80 5B 6C  80 18 E2 05 01 18 E2 05  s020..[l........
0BA0: 01 67 75 64 30 45 3D 80  F0 FF FF 7F F0 FF FF 7F  .gud0E=.........
0BB0: 66 64 69 32 11 80 55 3D  80 F0 FF FF 7F F0 FF FF  fdi2..U=........
0BC0: 7F 66 64 69 32 1C 6D 80  52 10 80 F0 FF FF 7F F0  .fdi2.m.R.......
0BD0: FF FF 7F 73 30 32 30 45  10 80 F0 FF FF 7F F0 FF  ...s020E........
0BE0: FF 7F 73 30 30 37 11 80  1C 6D 80 52 10 80 F0 FF  ..s007...m.R....
0BF0: FF 7F F0 FF FF 7F 73 30  30 37 45 10 80 F0 FF FF  ......s007E.....
0C00: 7F F0 FF FF 7F 73 30 30  38 11 80 2B 18 E2 05 01  .....s008..+....
0C10: 6E 80 23 52 10 80 F0 FF  FF 7F F0 FF FF 7F 73 30  n.#R..........s0
0C20: 30 38 45 10 80 F0 FF FF  7F F0 FF FF 7F 73 30 32  08E..........s02
0C30: 31 11 80 2B 36 E2 05 01  6F 80 23 52 10 80 F0 FF  1..+6...o.#R....
0C40: FF 7F F0 FF FF 7F 73 30  32 31 45 10 80 F0 FF FF  ......s021E.....
0C50: 7F F0 FF FF 7F 73 30 32  32 11 80 5B 6C 80 18 E2  .....s022..[l...
0C60: 05 01 18 E2 05 01 67 75  64 6C 1C 51 80 2B 18 E2  ......gudl.Q.+..
0C70: 05 01 70 80 23 52 10 80  F0 FF FF 7F F0 FF FF 7F  ..p.#R..........
0C80: 73 30 32 32 45 10 80 F0  FF FF 7F F0 FF FF 7F 73  s022E..........s
0C90: 30 30 39 11 80 1C 0F 80  2B 36 E2 05 01 71 80 23  009.....+6...q.#
0CA0: 52 10 80 F0 FF FF 7F F0  FF FF 7F 73 30 30 39 45  R..........s009E
0CB0: 10 80 F0 FF FF 7F F0 FF  FF 7F 73 30 31 30 11 80  ..........s010..
0CC0: 7C 00 18 E2 05 01 2B 18  E2 05 01 72 80 23 7C 01  |.....+....r.#|.
0CD0: 18 E2 05 01 52 10 80 F0  FF FF 7F F0 FF FF 7F 73  ....R..........s
0CE0: 30 31 30 45 10 80 F0 FF  FF 7F F0 FF FF 7F 73 30  010E..........s0
0CF0: 32 33 11 80 2B 18 E2 05  01 73 80 23 52 10 80 F0  23..+....s.#R...
0D00: FF FF 7F F0 FF FF 7F 73  30 32 33 45 10 80 F0 FF  .......s023E....
0D10: FF 7F F0 FF FF 7F 73 30  31 31 11 80 5B 6C 80 18  ......s011..[l..
0D20: E2 05 01 18 E2 05 01 67  75 64 30 5B 63 80 87 E2  .......gud0[c...
0D30: 05 01 87 E2 05 01 63 68  62 31 5B 64 80 36 E2 05  ......chb1[d.6..
0D40: 01 36 E2 05 01 63 68 62  31 2B 36 E2 05 01 74 80  .6...chb1+6...t.
0D50: 23 52 10 80 F0 FF FF 7F  F0 FF FF 7F 73 30 31 31  #R..........s011
0D60: 45 10 80 F0 FF FF 7F F0  FF FF 7F 73 30 32 39 11  E..........s029.
0D70: 80 2B 18 E2 05 01 75 80  23 52 10 80 F0 FF FF 7F  .+....u.#R......
0D80: F0 FF FF 7F 73 30 32 39  45 10 80 F0 FF FF 7F F0  ....s029E.......
0D90: FF FF 7F 73 30 31 32 11  80 2B 18 E2 05 01 76 80  ...s012..+....v.
0DA0: 23 5B 6C 80 18 E2 05 01  18 E2 05 01 67 75 64 31  #[l.........gud1
0DB0: 1C 0F 80 59 04 18 E2 05  01 14 80 27 10 18 E2 05  ...Y.......'....
0DC0: 01 20 1C 26 80 1A 78 A1  1C 0F 80 52 10 80 F0 FF  . .&..x....R....
0DD0: FF 7F F0 FF FF 7F 73 30  31 32 4E 01 18 E2 05 01  ......s012N.....
0DE0: 45 10 80 F0 FF FF 7F F0  FF FF 7F 73 30 33 36 11  E..........s036.
0DF0: 80 1A 57 A1 2B 36 E2 05  01 77 80 23 52 10 80 F0  ..W.+6...w.#R...
0E00: FF FF 7F F0 FF FF 7F 73  30 33 36 45 10 80 F0 FF  .......s036E....
0E10: FF 7F F0 FF FF 7F 73 30  32 34 11 80 2B 36 E2 05  ......s024..+6..
0E20: 01 78 80 23 52 10 80 F0  FF FF 7F F0 FF FF 7F 73  .x.#R..........s
0E30: 30 32 34 45 10 80 F0 FF  FF 7F F0 FF FF 7F 73 30  024E..........s0
0E40: 32 35 11 80 5B 63 80 87  E2 05 01 87 E2 05 01 63  25..[c.........c
0E50: 68 62 32 5B 64 80 36 E2  05 01 36 E2 05 01 63 68  hb2[d.6...6...ch
0E60: 62 32 1C 6D 80 5D 11 80  60 80 45 3D 80 F0 FF FF  b2.m.]..`.E=....
0E70: 7F F0 FF FF 7F 66 64 6F  32 11 80 55 3D 80 F0 FF  .....fdo2..U=...
0E80: FF 7F F0 FF FF 7F 66 64  6F 32 52 10 80 F0 FF FF  ......fdo2R.....
0E90: 7F F0 FF FF 7F 73 30 32  35 35 79 80 78 1C 2C 80  .....s0255y.x.,.
0EA0: 22 00 4E 00 4E E2 05 01  4E 00 88 E2 05 01 4E 00  ".N.N...N.....N.
0EB0: 89 E2 05 01 4E 00 8A E2  05 01 4E 00 8B E2 05 01  ....N.....N.....
0EC0: 4E 00 8C E2 05 01 4E 00  8D E2 05 01 4E 00 8E E2  N.....N.....N...
0ED0: 05 01 4E 00 8F E2 05 01  4E 00 90 E2 05 01 4E 00  ..N.....N.....N.
0EE0: 92 E2 05 01 4E 00 5F E2  05 01 4E 00 01 E2 05 01  ....N._...N.....
0EF0: BA 4E E2 05 01 7A 80 7B  80 7C 80 7D 80 BA 88 E2  .N...z.{.|.}....
0F00: 05 01 7E 80 7F 80 80 80  81 80 BA 89 E2 05 01 82  ..~.............
0F10: 80 83 80 84 80 85 80 BA  8A E2 05 01 86 80 87 80  ................
0F20: 88 80 89 80 BA 8B E2 05  01 8A 80 8B 80 8C 80 8D  ................
0F30: 80 BA 8C E2 05 01 8E 80  8F 80 90 80 91 80 BA 8D  ................
0F40: E2 05 01 92 80 93 80 94  80 95 80 BA 8E E2 05 01  ................
0F50: 96 80 97 80 98 80 99 80  BA 8F E2 05 01 9A 80 9B  ................
0F60: 80 9C 80 9D 80 BA 90 E2  05 01 9E 80 9F 80 A0 80  ................
0F70: A1 80 BA 92 E2 05 01 A2  80 A3 80 A4 80 A5 80 BA  ................
0F80: 5F E2 05 01 A6 80 A7 80  A8 80 A9 80 BA 01 E2 05  _...............
0F90: 01 AA 80 AB 80 AC 80 AD  80 92 01 4E E2 05 01 92  ...........N....
0FA0: 01 88 E2 05 01 92 01 89  E2 05 01 92 01 8A E2 05  ................
0FB0: 01 92 01 8B E2 05 01 92  01 8C E2 05 01 92 01 8D  ................
0FC0: E2 05 01 92 01 8E E2 05  01 92 01 8F E2 05 01 92  ................
0FD0: 01 90 E2 05 01 92 01 92  E2 05 01 80 4E E2 05 01  ............N...
0FE0: 80 88 E2 05 01 80 89 E2  05 01 80 8A E2 05 01 80  ................
0FF0: 8B E2 05 01 80 8C E2 05  01 80 8D E2 05 01 80 8E  ................
1000: E2 05 01 80 8F E2 05 01  80 90 E2 05 01 80 92 E2  ................
1010: 05 01 80 5F E2 05 01 80  01 E2 05 01 66 12 80 4E  ..._........f..N
1020: E2 05 01 4E E2 05 01 73  68 61 30 5B AE 80 88 E2  ...N...sha0[....
1030: 05 01 88 E2 05 01 70 76  30 31 2C 89 E2 05 01 89  ......pv01,.....
1040: E2 05 01 63 6F 72 70 2C  8A E2 05 01 8A E2 05 01  ...corp,........
1050: 63 6F 72 70 2C 8B E2 05  01 8B E2 05 01 63 6F 72  corp,........cor
1060: 70 2C 8C E2 05 01 8C E2  05 01 63 6F 72 70 2C 8D  p,........corp,.
1070: E2 05 01 8D E2 05 01 63  6F 72 70 2C 8E E2 05 01  .......corp,....
1080: 8E E2 05 01 63 6F 72 70  2C 8F E2 05 01 8F E2 05  ....corp,.......
1090: 01 63 6F 72 70 2C 90 E2  05 01 90 E2 05 01 63 6F  .corp,........co
10A0: 72 70 2C 92 E2 05 01 92  E2 05 01 63 6F 72 70 BB  rp,........corp.
10B0: AF 80 5F E2 05 01 5F E2  05 01 6D 61 69 6E 11 80  .._..._...main..
10C0: BB AF 80 01 E2 05 01 01  E2 05 01 6D 61 69 6E 11  ...........main.
10D0: 80 1C 0F 80 5C 00 B0 80  5C 01 B0 80 45 10 80 F0  ....\...\...E...
10E0: FF FF 7F F0 FF FF 7F 73  30 34 30 11 80 45 3D 80  .......s040..E=.
10F0: F0 FF FF 7F F0 FF FF 7F  66 64 69 32 11 80 1C B1  ........fdi2....
1100: 80 45 3D 80 F0 FF FF 7F  F0 FF FF 7F 66 64 6F 32  .E=.........fdo2
1110: 11 80 55 3D 80 F0 FF FF  7F F0 FF FF 7F 66 64 6F  ..U=.........fdo
1120: 32 52 10 80 F0 FF FF 7F  F0 FF FF 7F 73 30 34 30  2R..........s040
1130: 1C 0F 80 2B 4E E2 05 01  B2 80 23 2B 4E E2 05 01  ...+N.....#+N...
1140: B3 80 23 66 12 80 4E E2  05 01 4E E2 05 01 73 68  ..#f..N...N...sh
1150: 61 31 45 10 80 F0 FF FF  7F F0 FF FF 7F 73 30 32  a1E..........s02
1160: 36 11 80 45 3D 80 F0 FF  FF 7F F0 FF FF 7F 66 64  6..E=.........fd
1170: 69 32 11 80 55 3D 80 F0  FF FF 7F F0 FF FF 7F 66  i2..U=.........f
1180: 64 69 32 52 10 80 F0 FF  FF 7F F0 FF FF 7F 73 30  di2R..........s0
1190: 32 36 1C 40 80 45 10 80  F0 FF FF 7F F0 FF FF 7F  26.@.E..........
11A0: 73 30 31 34 11 80 1C 3D  80 2B 4E E2 05 01 B4 80  s014...=.+N.....
11B0: 23 2B 4E E2 05 01 B5 80  23 52 10 80 F0 FF FF 7F  #+N.....#R......
11C0: F0 FF FF 7F 73 30 31 34  45 10 80 F0 FF FF 7F F0  ....s014E.......
11D0: FF FF 7F 73 30 33 37 11  80 1C B6 80 5D 11 80 60  ...s037.....]..`
11E0: 80 45 3D 80 F0 FF FF 7F  F0 FF FF 7F 66 64 6F 32  .E=.........fdo2
11F0: 11 80 55 3D 80 F0 FF FF  7F F0 FF FF 7F 66 64 6F  ..U=.........fdo
1200: 32 52 10 80 F0 FF FF 7F  F0 FF FF 7F 73 30 33 37  2R..........s037
1210: 34 61 80 77 11 80 2A 80  AB 09 1C 18 80 75 00 62  4a.w..*......u.b
1220: 80 75 01 4E 00 36 E2 05  01 4E 00 87 E2 05 01 BA  .u.N.6...N......
1230: 36 E2 05 01 69 80 6A 80  6B 80 68 80 BA 87 E2 05  6...i.j.k.h.....
1240: 01 69 80 6A 80 6B 80 68  80 92 01 36 E2 05 01 92  .i.j.k.h...6....
1250: 01 87 E2 05 01 94 01 36  E2 05 01 94 01 87 E2 05  .......6........
1260: 01 80 36 E2 05 01 80 87  E2 05 01 5B 63 80 87 E2  ..6........[c...
1270: 05 01 87 E2 05 01 00 FE  FE FE 5B 64 80 36 E2 05  ..........[d.6..
1280: 01 36 E2 05 01 00 FE FE  FE 5C 00 11 80 5C 01 11  .6.......\...\..
1290: 80 9A 5B 63 80 87 E2 05  01 87 E2 05 01 63 68 65  ..[c.........che
12A0: 73 5B 64 80 36 E2 05 01  36 E2 05 01 63 68 65 73  s[d.6...6...ches
12B0: 1C 18 80 53 87 E2 05 01  87 E2 05 01 63 68 65 73  ...S........ches
12C0: 53 36 E2 05 01 36 E2 05  01 63 68 65 73 1C 18 80  S6...6...ches...
12D0: 5C 00 5E 80 5C 01 5E 80  9A 45 10 80 F0 FF FF 7F  \.^.\.^..E......
12E0: F0 FF FF 7F 73 30 31 33  11 80 45 3D 80 F0 FF FF  ....s013..E=....
12F0: 7F F0 FF FF 7F 66 64 69  32 11 80 55 3D 80 F0 FF  .....fdi2..U=...
1300: FF 7F F0 FF FF 7F 66 64  69 32 55 10 80 F0 FF FF  ......fdi2U.....
1310: 7F F0 FF FF 7F 73 30 31  33 1C 60 80 2B 36 E2 05  .....s013.`.+6..
1320: 01 B7 80 23 52 10 80 F0  FF FF 7F F0 FF FF 7F 73  ...#R..........s
1330: 30 31 33 45 10 80 F0 FF  FF 7F F0 FF FF 7F 73 30  013E..........s0
1340: 31 35 11 80 1C 0F 80 2B  36 E2 05 01 B8 80 23 52  15.....+6.....#R
1350: 10 80 F0 FF FF 7F F0 FF  FF 7F 73 30 31 35 45 10  ..........s015E.
1360: 80 F0 FF FF 7F F0 FF FF  7F 73 30 32 37 11 80 1C  .........s027...
1370: B9 80 5D 11 80 6D 80 1A  78 A1 52 10 80 F0 FF FF  ..]..m..x.R.....
1380: 7F F0 FF FF 7F 73 30 32  37 35 BA 80 78 1C 2C 80  .....s0275..x.,.
1390: 22 00 1C 40 80 5C 00 BB  80 5C 01 BB 80 9A 46 00  "..@.\...\....F.
13A0: 45 BC 80 F8 FF FF 7F F8  FF FF 7F 71 73 74 63 11  E..........qstc.
13B0: 80 45 3D 80 F0 FF FF 7F  F0 FF FF 7F 66 64 69 32  .E=.........fdi2
13C0: 11 80 21 00                                       ..!.            
```

#### Opcodes

```
  0: 0x0001 [0x42] SET_CLI_EVENT_CANCEL_DATA()
  1: 0x0002 [0x1A] CALL_SUBROUTINE(address=0xA178)
  2: 0x0005 [0x46] CAMERA_CONTROL: Disable user control
  3: 0x0007 [0x38] SET_CLIENT_EVENT_MODE(mode=19*)
  4: 0x000A [0x20] SET_CLI_EVENT_UC_FLAG: Lock player control
  5: 0x000C [0x4E] SET_ENTITY_HIDE_FLAG: Show Tihl Midurhi (ID: 17162794/0x0105E22A)
  6: 0x0012 [0x4E] SET_ENTITY_HIDE_FLAG: Show Mihl Pakorhma (ID: 17162795/0x0105E22B)
  7: 0x0018 [0x4E] SET_ENTITY_HIDE_FLAG: Show Romaa Mihgo (ID: 17162760/0x0105E208)
  8: 0x001E [0x4E] SET_ENTITY_HIDE_FLAG: Show Dhea Prandoleh (ID: 17162751/0x0105E1FF)
  9: 0x0024 [0x94] LocalPlayer->Render.Flags3 ^= 0x01
 10: 0x002A [0x94] Tihl Midurhi (ID: 17162794/0x0105E22A)->Render.Flags3 ^= 0x01
 11: 0x0030 [0x94] Mihl Pakorhma (ID: 17162795/0x0105E22B)->Render.Flags3 ^= 0x01
 12: 0x0036 [0x94] Romaa Mihgo (ID: 17162760/0x0105E208)->Render.Flags3 ^= 0x01
 13: 0x003C [0x94] Dhea Prandoleh (ID: 17162751/0x0105E1FF)->Render.Flags3 ^= 0x01
 14: 0x0042 [0x80] LOAD_WAIT(entity=LocalPlayer)
 15: 0x0047 [0x80] LOAD_WAIT(entity=Tihl Midurhi (ID: 17162794/0x0105E22A))
 16: 0x004C [0x80] LOAD_WAIT(entity=Mihl Pakorhma (ID: 17162795/0x0105E22B))
 17: 0x0051 [0x80] LOAD_WAIT(entity=Romaa Mihgo (ID: 17162760/0x0105E208))
 18: 0x0056 [0x80] LOAD_WAIT(entity=Dhea Prandoleh (ID: 17162751/0x0105E1FF))
 19: 0x005B [0xBA] SET_ENTITY_POSITION(entity_id=LocalPlayer, pos_x=0.695*, pos_z=15.510*, pos_y=-1.000*, direction=1.1*)
 20: 0x0068 [0xBA] SET_ENTITY_POSITION(entity_id=Romaa Mihgo (ID: 17162760/0x0105E208), pos_x=-7.327*, pos_z=-21.205*, pos_y=-2.000*, direction=172.5*)
 21: 0x0075 [0xBA] SET_ENTITY_POSITION(entity_id=Tihl Midurhi (ID: 17162794/0x0105E22A), pos_x=-8.462*, pos_z=-21.293*, pos_y=-2.000*, direction=1.0*)
 22: 0x0082 [0xBA] SET_ENTITY_POSITION(entity_id=Mihl Pakorhma (ID: 17162795/0x0105E22B), pos_x=-7.950*, pos_z=-22.304*, pos_y=-2.000*, direction=296.4*)
 23: 0x008F [0x7B] LocalPlayer stops talking
 24: 0x0094 [0x7B] Romaa Mihgo (ID: 17162760/0x0105E208) stops talking
 25: 0x0099 [0x7B] Tihl Midurhi (ID: 17162794/0x0105E22A) stops talking
 26: 0x009E [0x7B] Mihl Pakorhma (ID: 17162795/0x0105E22B) stops talking
 27: 0x00A3 [0x7B] Dhea Prandoleh (ID: 17162751/0x0105E1FF) stops talking
 28: 0x00A8 [0x79] LocalPlayer looks at LocalPlayer (Basic look)
 29: 0x00B2 [0x92] Tihl Midurhi (ID: 17162794/0x0105E22A)->Render.Flags3 ^= 0x01
 30: 0x00B8 [0x92] Mihl Pakorhma (ID: 17162795/0x0105E22B)->Render.Flags3 ^= 0x01
 31: 0x00BE [0x92] Romaa Mihgo (ID: 17162760/0x0105E208)->Render.Flags3 ^= 0x01
 32: 0x00C4 [0x92] Dhea Prandoleh (ID: 17162751/0x0105E1FF)->Render.Flags3 ^= 0x01
 33: 0x00CA [0x4E] SET_ENTITY_HIDE_FLAG: Show Naho Gwanboh (ID: 17162769/0x0105E211)
 34: 0x00D0 [0x94] Naho Gwanboh (ID: 17162769/0x0105E211)->Render.Flags3 ^= 0x01
 35: 0x00D6 [0x80] LOAD_WAIT(entity=Naho Gwanboh (ID: 17162769/0x0105E211))
 36: 0x00DB [0x92] Naho Gwanboh (ID: 17162769/0x0105E211)->Render.Flags3 ^= 0x01
 37: 0x00E1 [0x1C] WAIT(60* ticks)
 38: 0x00E4 [0x45] LOAD_SCHEDULED_TASK: Load scheduler "s000" with entities [LocalPlayer, LocalPlayer], work=[436*, 0*]
 39: 0x00F5 [0x1A] CALL_SUBROUTINE(address=0xA157)
 40: 0x00F8 [0x66] LOAD_EXT_SCHEDULER_MAIN: Load scheduler "tlk0" with entities [Dhea Prandoleh (ID: 17162751/0x0105E1FF), Dhea Prandoleh (ID: 17162751/0x0105E1FF)], work=59*
 41: 0x0107 [0x2B] Dhea Prandoleh (ID: 17162751/0x0105E1FF) [13141*]:
     "<Player>! It's grrreat to have ya back!"
 42: 0x010E [0x23] WAIT_FOR_DIALOG_INTERACTION
 43: 0x010F [0x66] LOAD_EXT_SCHEDULER_MAIN: Load scheduler "tlk1" with entities [Dhea Prandoleh (ID: 17162751/0x0105E1FF), Dhea Prandoleh (ID: 17162751/0x0105E1FF)], work=59*
 44: 0x011E [0x52] END_LOAD_SCHEDULER: End scheduler "s000" with entities [LocalPlayer, LocalPlayer], work=436*
 45: 0x012D [0x45] LOAD_SCHEDULED_TASK: Load scheduler "s028" with entities [LocalPlayer, LocalPlayer], work=[436*, 0*]
 46: 0x013E [0x79] Dhea Prandoleh (ID: 17162751/0x0105E1FF) looks at Romaa Mihgo (ID: 17162760/0x0105E208) (Basic look)
 47: 0x0148 [0x6E] Dhea Prandoleh (ID: 17162751/0x0105E1FF) uses emote 13*
 48: 0x014F [0x99] Wait for Dhea Prandoleh (ID: 17162751/0x0105E1FF) animation to complete
 49: 0x0154 [0x1C] WAIT(60* ticks)
 50: 0x0157 [0x2B] Dhea Prandoleh (ID: 17162751/0x0105E1FF) [13142*]:
     "Hey, boss! Look who's here!"
 51: 0x015E [0x23] WAIT_FOR_DIALOG_INTERACTION
 52: 0x015F [0x79] Romaa Mihgo (ID: 17162760/0x0105E208) looks at LocalPlayer (Basic look)
 53: 0x0169 [0x52] END_LOAD_SCHEDULER: End scheduler "s028" with entities [LocalPlayer, LocalPlayer], work=436*
 54: 0x0178 [0xBA] SET_ENTITY_POSITION(entity_id=Naho Gwanboh (ID: 17162769/0x0105E211), pos_x=-8.654*, pos_z=-13.832*, pos_y=-2.000*, direction=1.1*)
 55: 0x0185 [0x45] LOAD_SCHEDULED_TASK: Load scheduler "s038" with entities [LocalPlayer, LocalPlayer], work=[436*, 0*]
 56: 0x0196 [0x1C] WAIT(15* ticks)
 57: 0x0199 [0x59] UPDATE_ENTITY_DATA: Set Romaa Mihgo (ID: 17162760/0x0105E208) main speed = 13* * 0.1
 58: 0x01A1 [0x59] UPDATE_ENTITY_DATA: Set Tihl Midurhi (ID: 17162794/0x0105E22A) main speed = 13* * 0.1
 59: 0x01A9 [0x59] UPDATE_ENTITY_DATA: Set Mihl Pakorhma (ID: 17162795/0x0105E22B) main speed = 13* * 0.1
 60: 0x01B1 [0x27] REQ_SET(priority=0x10, entity_id=Romaa Mihgo (ID: 17162760/0x0105E208), tag_num=0x33)
 61: 0x01B8 [0x1C] WAIT(40* ticks)
 62: 0x01BB [0x27] REQ_SET(priority=0x10, entity_id=Tihl Midurhi (ID: 17162794/0x0105E22A), tag_num=0x1A)
 63: 0x01C2 [0x1C] WAIT(18* ticks)
 64: 0x01C5 [0x27] REQ_SET(priority=0x10, entity_id=Mihl Pakorhma (ID: 17162795/0x0105E22B), tag_num=0x1E)
 65: 0x01CC [0x1C] WAIT(190* ticks)
 66: 0x01CF [0x7A] VM_CONTROL: Reset VM for Romaa Mihgo (ID: 17162760/0x0105E208)
 67: 0x01D5 [0x7A] VM_CONTROL: Reset VM for Tihl Midurhi (ID: 17162794/0x0105E22A)
 68: 0x01DB [0x7A] VM_CONTROL: Reset VM for Mihl Pakorhma (ID: 17162795/0x0105E22B)
 69: 0x01E1 [0x4E] SET_ENTITY_HIDE_FLAG: Hide Naho Gwanboh (ID: 17162769/0x0105E211)
 70: 0x01E7 [0xBA] SET_ENTITY_POSITION(entity_id=Romaa Mihgo (ID: 17162760/0x0105E208), pos_x=-2.711*, pos_z=13.008*, pos_y=-0.999*, direction=317.6*)
 71: 0x01F4 [0xBA] SET_ENTITY_POSITION(entity_id=Tihl Midurhi (ID: 17162794/0x0105E22A), pos_x=-4.433*, pos_z=12.610*, pos_y=-0.999*, direction=317.6*)
 72: 0x0201 [0xBA] SET_ENTITY_POSITION(entity_id=Mihl Pakorhma (ID: 17162795/0x0105E22B), pos_x=-3.505*, pos_z=11.748*, pos_y=-0.999*, direction=317.6*)
 73: 0x020E [0x52] END_LOAD_SCHEDULER: End scheduler "s038" with entities [LocalPlayer, LocalPlayer], work=436*
 74: 0x021D [0x45] LOAD_SCHEDULED_TASK: Load scheduler "s001" with entities [LocalPlayer, LocalPlayer], work=[436*, 0*]
 75: 0x022E [0x7B] Dhea Prandoleh (ID: 17162751/0x0105E1FF) stops talking
 76: 0x0233 [0x27] REQ_SET(priority=0x10, entity_id=Romaa Mihgo (ID: 17162760/0x0105E208), tag_num=0x32)
 77: 0x023A [0x1C] WAIT(17* ticks)
 78: 0x023D [0x27] REQ_SET(priority=0x10, entity_id=Tihl Midurhi (ID: 17162794/0x0105E22A), tag_num=0x19)
 79: 0x0244 [0x1C] WAIT(22* ticks)
 80: 0x0247 [0x29] REQ_SET_WAIT(priority=0x10, entity_id=Mihl Pakorhma (ID: 17162795/0x0105E22B), tag_num=0x1D)
 81: 0x024E [0x4A] LocalPlayer looks at Romaa Mihgo (ID: 17162760/0x0105E208)
 82: 0x0257 [0x1C] WAIT(120* ticks)
 83: 0x025A [0x52] END_LOAD_SCHEDULER: End scheduler "s001" with entities [LocalPlayer, LocalPlayer], work=436*
 84: 0x0269 [0x45] LOAD_SCHEDULED_TASK: Load scheduler "s039" with entities [LocalPlayer, LocalPlayer], work=[436*, 0*]
 85: 0x027A [0x2A] GET_REQ_LEVEL(level=16, entity_id=Romaa Mihgo (ID: 17162760/0x0105E208))
 86: 0x0280 [0x5B] LOAD_EXT_SCHEDULER: Load scheduler "sta0" with entities [Romaa Mihgo (ID: 17162760/0x0105E208), Romaa Mihgo (ID: 17162760/0x0105E208)], work=1327*
 87: 0x028F [0x79] Tihl Midurhi (ID: 17162794/0x0105E22A) looks at Romaa Mihgo (ID: 17162760/0x0105E208) (Basic look)
 88: 0x0299 [0x2B] Romaa Mihgo (ID: 17162760/0x0105E208) [13143*]:
     "So our globetrotting prrrodigal [hero/heroine] has finally decided to show [his/her] face..."
 89: 0x02A0 [0x23] WAIT_FOR_DIALOG_INTERACTION
 90: 0x02A1 [0x52] END_LOAD_SCHEDULER: End scheduler "s039" with entities [LocalPlayer, LocalPlayer], work=436*
 91: 0x02B0 [0x45] LOAD_SCHEDULED_TASK: Load scheduler "s016" with entities [LocalPlayer, LocalPlayer], work=[436*, 0*]
 92: 0x02C1 [0x5B] LOAD_EXT_SCHEDULER: Load scheduler "sta1" with entities [Romaa Mihgo (ID: 17162760/0x0105E208), Romaa Mihgo (ID: 17162760/0x0105E208)], work=1327*
 93: 0x02D0 [0x27] REQ_SET(priority=0x10, entity_id=Tihl Midurhi (ID: 17162794/0x0105E22A), tag_num=0x1B)
 94: 0x02D7 [0x2B] Tihl Midurhi (ID: 17162794/0x0105E22A) [13144*]:
     "Aw, was that sarrrcastic tone of voice necessary, boss? Welcome back, <Player>!"
 95: 0x02DE [0x23] WAIT_FOR_DIALOG_INTERACTION
 96: 0x02DF [0x1C] WAIT(15* ticks)
 97: 0x02E2 [0x52] END_LOAD_SCHEDULER: End scheduler "s016" with entities [LocalPlayer, LocalPlayer], work=436*
 98: 0x02F1 [0x45] LOAD_SCHEDULED_TASK: Load scheduler "s032" with entities [LocalPlayer, LocalPlayer], work=[436*, 0*]
 99: 0x0302 [0x27] REQ_SET(priority=0x10, entity_id=Mihl Pakorhma (ID: 17162795/0x0105E22B), tag_num=0x1F)
100: 0x0309 [0x1C] WAIT(60* ticks)
101: 0x030C [0x29] REQ_SET_WAIT(priority=0x10, entity_id=LocalPlayer, tag_num=0x0A)
102: 0x0313 [0x02] IF !(Work_Zone[2] == 1*) GOTO 0x033E
103: 0x031B [0x52] END_LOAD_SCHEDULER: End scheduler "s032" with entities [LocalPlayer, LocalPlayer], work=436*
104: 0x032A [0x45] LOAD_SCHEDULED_TASK: Load scheduler "whm2" with entities [LocalPlayer, LocalPlayer], work=[436*, 0*]
105: 0x033B [0x01] GOTO 0x046B
106: 0x033E [0x02] IF !(Work_Zone[2] == 2*) GOTO 0x0369
107: 0x0346 [0x52] END_LOAD_SCHEDULER: End scheduler "s032" with entities [LocalPlayer, LocalPlayer], work=436*
108: 0x0355 [0x45] LOAD_SCHEDULED_TASK: Load scheduler "whm2" with entities [LocalPlayer, LocalPlayer], work=[436*, 0*]
109: 0x0366 [0x01] GOTO 0x046B
110: 0x0369 [0x02] IF !(Work_Zone[2] == 3*) GOTO 0x0394
111: 0x0371 [0x52] END_LOAD_SCHEDULER: End scheduler "s032" with entities [LocalPlayer, LocalPlayer], work=436*
112: 0x0380 [0x45] LOAD_SCHEDULED_TASK: Load scheduler "wem2" with entities [LocalPlayer, LocalPlayer], work=[436*, 0*]
113: 0x0391 [0x01] GOTO 0x046B
114: 0x0394 [0x02] IF !(Work_Zone[2] == 4*) GOTO 0x03BF
115: 0x039C [0x52] END_LOAD_SCHEDULER: End scheduler "s032" with entities [LocalPlayer, LocalPlayer], work=436*
116: 0x03AB [0x45] LOAD_SCHEDULED_TASK: Load scheduler "wem2" with entities [LocalPlayer, LocalPlayer], work=[436*, 0*]
117: 0x03BC [0x01] GOTO 0x046B
118: 0x03BF [0x02] IF !(Work_Zone[2] == 5*) GOTO 0x03EA
119: 0x03C7 [0x52] END_LOAD_SCHEDULER: End scheduler "s032" with entities [LocalPlayer, LocalPlayer], work=436*
120: 0x03D6 [0x45] LOAD_SCHEDULED_TASK: Load scheduler "wtr2" with entities [LocalPlayer, LocalPlayer], work=[436*, 0*]
121: 0x03E7 [0x01] GOTO 0x046B
122: 0x03EA [0x02] IF !(Work_Zone[2] == 6*) GOTO 0x0415
123: 0x03F2 [0x52] END_LOAD_SCHEDULER: End scheduler "s032" with entities [LocalPlayer, LocalPlayer], work=436*
124: 0x0401 [0x45] LOAD_SCHEDULED_TASK: Load scheduler "wtr2" with entities [LocalPlayer, LocalPlayer], work=[436*, 0*]
125: 0x0412 [0x01] GOTO 0x046B
126: 0x0415 [0x02] IF !(Work_Zone[2] == 7*) GOTO 0x0440
127: 0x041D [0x52] END_LOAD_SCHEDULER: End scheduler "s032" with entities [LocalPlayer, LocalPlayer], work=436*
128: 0x042C [0x45] LOAD_SCHEDULED_TASK: Load scheduler "wmt2" with entities [LocalPlayer, LocalPlayer], work=[436*, 0*]
129: 0x043D [0x01] GOTO 0x046B
130: 0x0440 [0x02] IF !(Work_Zone[2] == 8*) GOTO 0x046B
131: 0x0448 [0x52] END_LOAD_SCHEDULER: End scheduler "s032" with entities [LocalPlayer, LocalPlayer], work=436*
132: 0x0457 [0x45] LOAD_SCHEDULED_TASK: Load scheduler "wgl2" with entities [LocalPlayer, LocalPlayer], work=[436*, 0*]
133: 0x0468 [0x01] GOTO 0x046B

SUBROUTINE_046B:
134: 0x046B [0x4A] LocalPlayer looks at Mihl Pakorhma (ID: 17162795/0x0105E22B)
135: 0x0474 [0x6F] WAIT_FRAME_DELAY: Yield until WaitTime reaches zero
136: 0x0475 [0x76] CHECK_ENTITY_RENDER_FLAGS: Wait until LocalPlayer Render.Flags0 and Render.Flags3 conditions are met
137: 0x047A [0x6E] Mihl Pakorhma (ID: 17162795/0x0105E22B) uses emote 32*
138: 0x0481 [0x99] Wait for Mihl Pakorhma (ID: 17162795/0x0105E22B) animation to complete
139: 0x0486 [0x2B] Mihl Pakorhma (ID: 17162795/0x0105E22B) [13145*]:
     "(The boss may seem unfrrriendly right now, but she's actually been in great spirits. Thanks to you, of course!)"
140: 0x048D [0x23] WAIT_FOR_DIALOG_INTERACTION
141: 0x048E [0x1C] WAIT(60* ticks)
142: 0x0491 [0x52] END_LOAD_SCHEDULER: End scheduler "whm2" with entities [LocalPlayer, LocalPlayer], work=436*
143: 0x04A0 [0x52] END_LOAD_SCHEDULER: End scheduler "whf2" with entities [LocalPlayer, LocalPlayer], work=436*
144: 0x04AF [0x52] END_LOAD_SCHEDULER: End scheduler "wem2" with entities [LocalPlayer, LocalPlayer], work=436*
145: 0x04BE [0x52] END_LOAD_SCHEDULER: End scheduler "wef2" with entities [LocalPlayer, LocalPlayer], work=436*
146: 0x04CD [0x52] END_LOAD_SCHEDULER: End scheduler "wtr2" with entities [LocalPlayer, LocalPlayer], work=436*
147: 0x04DC [0x52] END_LOAD_SCHEDULER: End scheduler "wmt2" with entities [LocalPlayer, LocalPlayer], work=436*
148: 0x04EB [0x52] END_LOAD_SCHEDULER: End scheduler "wgl2" with entities [LocalPlayer, LocalPlayer], work=436*
149: 0x04FA [0x45] LOAD_SCHEDULED_TASK: Load scheduler "s002" with entities [LocalPlayer, LocalPlayer], work=[436*, 0*]
150: 0x050B [0x5B] LOAD_EXT_SCHEDULER: Load scheduler "rml0" with entities [Romaa Mihgo (ID: 17162760/0x0105E208), Romaa Mihgo (ID: 17162760/0x0105E208)], work=1379*
151: 0x051A [0x4A] LocalPlayer looks at Romaa Mihgo (ID: 17162760/0x0105E208)
152: 0x0523 [0x1C] WAIT(15* ticks)
153: 0x0526 [0x27] REQ_SET(priority=0x10, entity_id=Mihl Pakorhma (ID: 17162795/0x0105E22B), tag_num=0x20)
154: 0x052D [0x2B] Romaa Mihgo (ID: 17162760/0x0105E208) [13146*]:
     "Hey, I was just teasing! Even I'm allowed to engage in light-hearrrted joshing from time to time, you know."
155: 0x0534 [0x23] WAIT_FOR_DIALOG_INTERACTION
156: 0x0535 [0x53] WAIT_SCHEDULER_TASK: Wait for scheduler "rml0" with entities [Romaa Mihgo (ID: 17162760/0x0105E208), Romaa Mihgo (ID: 17162760/0x0105E208)]
157: 0x0542 [0x52] END_LOAD_SCHEDULER: End scheduler "s002" with entities [LocalPlayer, LocalPlayer], work=436*
158: 0x0551 [0x45] LOAD_SCHEDULED_TASK: Load scheduler "s030" with entities [LocalPlayer, LocalPlayer], work=[436*, 0*]
159: 0x0562 [0x66] LOAD_EXT_SCHEDULER_MAIN: Load scheduler "tlk0" with entities [Romaa Mihgo (ID: 17162760/0x0105E208), Romaa Mihgo (ID: 17162760/0x0105E208)], work=59*
160: 0x0571 [0x1C] WAIT(15* ticks)
161: 0x0574 [0x2B] Romaa Mihgo (ID: 17162760/0x0105E208) [13147*]:
     "Thanks to your contrrribution, our operation to secure safe passage to Jeuno for the Cancerian and Geminian War Warlocks was a success."
162: 0x057B [0x23] WAIT_FOR_DIALOG_INTERACTION
163: 0x057C [0x66] LOAD_EXT_SCHEDULER_MAIN: Load scheduler "tlk1" with entities [Romaa Mihgo (ID: 17162760/0x0105E208), Romaa Mihgo (ID: 17162760/0x0105E208)], work=59*
164: 0x058B [0x4E] SET_ENTITY_HIDE_FLAG: Show Naho Gwanboh (ID: 17162769/0x0105E211)
165: 0x0591 [0x4E] SET_ENTITY_HIDE_FLAG: Show Nzha Abaleenah (ID: 17162770/0x0105E212)
166: 0x0597 [0x4E] SET_ENTITY_HIDE_FLAG: Show 01 (ID: 17162899/0x0105E293)
167: 0x059D [0x4E] SET_ENTITY_HIDE_FLAG: Show 02 (ID: 17162900/0x0105E294)
168: 0x05A3 [0x4E] SET_ENTITY_HIDE_FLAG: Show 02 (ID: 17162901/0x0105E295)
169: 0x05A9 [0x94] Naho Gwanboh (ID: 17162769/0x0105E211)->Render.Flags3 ^= 0x01
170: 0x05AF [0x94] Nzha Abaleenah (ID: 17162770/0x0105E212)->Render.Flags3 ^= 0x01
171: 0x05B5 [0x94] 01 (ID: 17162899/0x0105E293)->Render.Flags3 ^= 0x01
172: 0x05BB [0x94] 02 (ID: 17162900/0x0105E294)->Render.Flags3 ^= 0x01
173: 0x05C1 [0x94] 02 (ID: 17162901/0x0105E295)->Render.Flags3 ^= 0x01
174: 0x05C7 [0x80] LOAD_WAIT(entity=Naho Gwanboh (ID: 17162769/0x0105E211))
175: 0x05CC [0x80] LOAD_WAIT(entity=Nzha Abaleenah (ID: 17162770/0x0105E212))
176: 0x05D1 [0x80] LOAD_WAIT(entity=01 (ID: 17162899/0x0105E293))
177: 0x05D6 [0x80] LOAD_WAIT(entity=02 (ID: 17162900/0x0105E294))
178: 0x05DB [0x80] LOAD_WAIT(entity=02 (ID: 17162901/0x0105E295))
179: 0x05E0 [0x92] Naho Gwanboh (ID: 17162769/0x0105E211)->Render.Flags3 ^= 0x01
180: 0x05E6 [0x92] Nzha Abaleenah (ID: 17162770/0x0105E212)->Render.Flags3 ^= 0x01
181: 0x05EC [0x92] 01 (ID: 17162899/0x0105E293)->Render.Flags3 ^= 0x01
182: 0x05F2 [0x92] 02 (ID: 17162900/0x0105E294)->Render.Flags3 ^= 0x01
183: 0x05F8 [0x92] 02 (ID: 17162901/0x0105E295)->Render.Flags3 ^= 0x01
184: 0x05FE [0xBA] SET_ENTITY_POSITION(entity_id=Naho Gwanboh (ID: 17162769/0x0105E211), pos_x=-0.836*, pos_z=23.893*, pos_y=-1.000*, direction=86.4*)
185: 0x060B [0xBA] SET_ENTITY_POSITION(entity_id=Nzha Abaleenah (ID: 17162770/0x0105E212), pos_x=-2.197*, pos_z=25.145*, pos_y=-1.000*, direction=80.2*)
186: 0x0618 [0xBA] SET_ENTITY_POSITION(entity_id=01 (ID: 17162899/0x0105E293), pos_x=-0.836*, pos_z=23.893*, pos_y=-1.000*, direction=86.4*)
187: 0x0625 [0xBA] SET_ENTITY_POSITION(entity_id=02 (ID: 17162900/0x0105E294), pos_x=-2.197*, pos_z=25.145*, pos_y=-1.000*, direction=80.2*)
188: 0x0632 [0xBA] SET_ENTITY_POSITION(entity_id=02 (ID: 17162901/0x0105E295), pos_x=-2.197*, pos_z=25.145*, pos_y=-1.000*, direction=80.2*)
189: 0x063F [0x59] UPDATE_ENTITY_DATA: Set Naho Gwanboh (ID: 17162769/0x0105E211) main speed = 13* * 0.1
190: 0x0647 [0x59] UPDATE_ENTITY_DATA: Set Nzha Abaleenah (ID: 17162770/0x0105E212) main speed = 13* * 0.1
191: 0x064F [0x59] UPDATE_ENTITY_DATA: Set 01 (ID: 17162899/0x0105E293) main speed = 13* * 0.1
192: 0x0657 [0x59] UPDATE_ENTITY_DATA: Set 02 (ID: 17162900/0x0105E294) main speed = 13* * 0.1
193: 0x065F [0x59] UPDATE_ENTITY_DATA: Set 02 (ID: 17162901/0x0105E295) main speed = 13* * 0.1
194: 0x0667 [0x27] REQ_SET(priority=0x10, entity_id=??? (ID: 17162753/0x0105E201), tag_num=0x16)
195: 0x066E [0x52] END_LOAD_SCHEDULER: End scheduler "s030" with entities [LocalPlayer, LocalPlayer], work=436*
196: 0x067D [0x45] LOAD_SCHEDULED_TASK: Load scheduler "s003" with entities [LocalPlayer, LocalPlayer], work=[436*, 0*]
197: 0x068E [0x1C] WAIT(200* ticks)
198: 0x0691 [0x52] END_LOAD_SCHEDULER: End scheduler "s003" with entities [LocalPlayer, LocalPlayer], work=436*
199: 0x06A0 [0x45] LOAD_SCHEDULED_TASK: Load scheduler "s033" with entities [LocalPlayer, LocalPlayer], work=[436*, 0*]
200: 0x06B1 [0x79] Mihl Pakorhma (ID: 17162795/0x0105E22B) looks at Naho Gwanboh (ID: 17162769/0x0105E211) (Basic look)
201: 0x06BB [0x2B] Mihl Pakorhma (ID: 17162795/0x0105E22B) [13148*]:
     "Hey, look! The Cheetah Volunteers are here, too!"
202: 0x06C2 [0x23] WAIT_FOR_DIALOG_INTERACTION
203: 0x06C3 [0x4A] Tihl Midurhi (ID: 17162794/0x0105E22A) looks at Naho Gwanboh (ID: 17162769/0x0105E211)
204: 0x06CC [0x4A] LocalPlayer looks at Naho Gwanboh (ID: 17162769/0x0105E211)
205: 0x06D5 [0x1C] WAIT(60* ticks)
206: 0x06D8 [0x52] END_LOAD_SCHEDULER: End scheduler "s033" with entities [LocalPlayer, LocalPlayer], work=436*
207: 0x06E7 [0x7B] Mihl Pakorhma (ID: 17162795/0x0105E22B) stops talking
208: 0x06EC [0x45] LOAD_SCHEDULED_TASK: Load scheduler "s004" with entities [LocalPlayer, LocalPlayer], work=[436*, 0*]
209: 0x06FD [0x79] Romaa Mihgo (ID: 17162760/0x0105E208) looks at Naho Gwanboh (ID: 17162769/0x0105E211) (Basic look)
210: 0x0707 [0x4A] Tihl Midurhi (ID: 17162794/0x0105E22A) looks at Naho Gwanboh (ID: 17162769/0x0105E211)
211: 0x0710 [0x4A] Mihl Pakorhma (ID: 17162795/0x0105E22B) looks at Naho Gwanboh (ID: 17162769/0x0105E211)
212: 0x0719 [0x7C] Naho Gwanboh (ID: 17162769/0x0105E211)->Render.Flags2 |= 0x00
213: 0x071F [0x7C] Naho Gwanboh (ID: 17162769/0x0105E211)->Render.Flags2 |= 0x01
214: 0x0725 [0x27] REQ_SET(priority=0x10, entity_id=Romaa Mihgo (ID: 17162760/0x0105E208), tag_num=0x3E)
215: 0x072C [0x2B] Romaa Mihgo (ID: 17162760/0x0105E208) [13149*]:
     "Naho, the Cheetahs perrrformed most gallantly."
216: 0x0733 [0x23] WAIT_FOR_DIALOG_INTERACTION
217: 0x0734 [0x2A] GET_REQ_LEVEL(level=16, entity_id=Romaa Mihgo (ID: 17162760/0x0105E208))
218: 0x073A [0x52] END_LOAD_SCHEDULER: End scheduler "s004" with entities [LocalPlayer, LocalPlayer], work=436*
219: 0x0749 [0x45] LOAD_SCHEDULED_TASK: Load scheduler "ys00" with entities [LocalPlayer, LocalPlayer], work=[436*, 0*]
220: 0x075A [0x1C] WAIT(30* ticks)
221: 0x075D [0x7B] Romaa Mihgo (ID: 17162760/0x0105E208) stops talking
222: 0x0762 [0x1C] WAIT(30* ticks)
223: 0x0765 [0x29] REQ_SET_WAIT(priority=0x10, entity_id=Romaa Mihgo (ID: 17162760/0x0105E208), tag_num=0x3F)
224: 0x076C [0x6F] WAIT_FRAME_DELAY: Yield until WaitTime reaches zero
225: 0x076D [0x76] CHECK_ENTITY_RENDER_FLAGS: Wait until Romaa Mihgo (ID: 17162760/0x0105E208) Render.Flags0 and Render.Flags3 conditions are met
226: 0x0772 [0x1C] WAIT(3* ticks)
227: 0x0775 [0x5B] LOAD_EXT_SCHEDULER: Load scheduler "ehn0" with entities [Romaa Mihgo (ID: 17162760/0x0105E208), Romaa Mihgo (ID: 17162760/0x0105E208)], work=2414*
228: 0x0784 [0x1C] WAIT(5* ticks)
229: 0x0787 [0x52] END_LOAD_SCHEDULER: End scheduler "ys00" with entities [LocalPlayer, LocalPlayer], work=436*
230: 0x0796 [0x45] LOAD_SCHEDULED_TASK: Load scheduler "s018" with entities [LocalPlayer, LocalPlayer], work=[436*, 0*]
231: 0x07A7 [0x79] Mihl Pakorhma (ID: 17162795/0x0105E22B) looks at Romaa Mihgo (ID: 17162760/0x0105E208) (Basic look)
232: 0x07B1 [0x2B] Romaa Mihgo (ID: 17162760/0x0105E208) [13150*]:
     "Lehko's mentioned his intent to have our two units continue working cooperrratively. I'm very much looking forward to our next mission togetherrr."
233: 0x07B8 [0x23] WAIT_FOR_DIALOG_INTERACTION
234: 0x07B9 [0x53] WAIT_SCHEDULER_TASK: Wait for scheduler "ehn0" with entities [Romaa Mihgo (ID: 17162760/0x0105E208), Romaa Mihgo (ID: 17162760/0x0105E208)]
235: 0x07C6 [0x52] END_LOAD_SCHEDULER: End scheduler "s018" with entities [LocalPlayer, LocalPlayer], work=436*
236: 0x07D5 [0x45] LOAD_SCHEDULED_TASK: Load scheduler "s019" with entities [LocalPlayer, LocalPlayer], work=[436*, 0*]
237: 0x07E6 [0x1C] WAIT(15* ticks)
238: 0x07E9 [0x4A] Romaa Mihgo (ID: 17162760/0x0105E208) looks at Naho Gwanboh (ID: 17162769/0x0105E211)
239: 0x07F2 [0x6B] STOP_AND_IDLE: Romaa Mihgo (ID: 17162760/0x0105E208) stops current action and resets to idle (animation="idl0")
240: 0x07FB [0x79] Nzha Abaleenah (ID: 17162770/0x0105E212) looks at Naho Gwanboh (ID: 17162769/0x0105E211) (Basic look)
241: 0x0805 [0x6E] 01 (ID: 17162899/0x0105E293) uses emote 21*
242: 0x080C [0x99] Wait for 01 (ID: 17162899/0x0105E293) animation to complete
243: 0x0811 [0x2B] Naho Gwanboh (ID: 17162769/0x0105E211) [13151*]:
     "Don't rrremind me! I've had more than a gutful!"
244: 0x0818 [0x23] WAIT_FOR_DIALOG_INTERACTION
245: 0x0819 [0x59] UPDATE_ENTITY_DATA: Set Naho Gwanboh (ID: 17162769/0x0105E211) main speed = 16* * 0.1
246: 0x0821 [0x27] REQ_SET(priority=0x10, entity_id=Naho Gwanboh (ID: 17162769/0x0105E211), tag_num=0x08)
247: 0x0828 [0x1C] WAIT(15* ticks)
248: 0x082B [0x6E] Nzha Abaleenah (ID: 17162770/0x0105E212) uses emote 29*
249: 0x0832 [0x99] Wait for Nzha Abaleenah (ID: 17162770/0x0105E212) animation to complete
250: 0x0837 [0x1C] WAIT(5* ticks)
251: 0x083A [0x6E] 02 (ID: 17162900/0x0105E294) uses emote 21*
252: 0x0841 [0x99] Wait for 02 (ID: 17162900/0x0105E294) animation to complete
253: 0x0846 [0x1C] WAIT(10* ticks)
254: 0x0849 [0x6E] 02 (ID: 17162901/0x0105E295) uses emote 18*
255: 0x0850 [0x99] Wait for 02 (ID: 17162901/0x0105E295) animation to complete
256: 0x0855 [0xBA] SET_ENTITY_POSITION(entity_id=Romaa Mihgo (ID: 17162760/0x0105E208), pos_x=-1.753*, pos_z=14.435*, pos_y=-0.999*, direction=219.7*)
257: 0x0862 [0xBA] SET_ENTITY_POSITION(entity_id=Tihl Midurhi (ID: 17162794/0x0105E22A), pos_x=-3.185*, pos_z=14.564*, pos_y=-0.999*, direction=298.3*)
258: 0x086F [0xBA] SET_ENTITY_POSITION(entity_id=Mihl Pakorhma (ID: 17162795/0x0105E22B), pos_x=-2.187*, pos_z=13.725*, pos_y=-1.000*, direction=224.3*)
259: 0x087C [0x1C] WAIT(45* ticks)
260: 0x087F [0x52] END_LOAD_SCHEDULER: End scheduler "s019" with entities [LocalPlayer, LocalPlayer], work=436*
261: 0x088E [0x45] LOAD_SCHEDULED_TASK: Load scheduler "s005" with entities [LocalPlayer, LocalPlayer], work=[436*, 0*]
262: 0x089F [0x7B] Nzha Abaleenah (ID: 17162770/0x0105E212) stops talking
263: 0x08A4 [0x7B] 02 (ID: 17162900/0x0105E294) stops talking
264: 0x08A9 [0x7B] 02 (ID: 17162901/0x0105E295) stops talking
265: 0x08AE [0x59] UPDATE_ENTITY_DATA: Set Nzha Abaleenah (ID: 17162770/0x0105E212) main speed = 36* * 0.1
266: 0x08B6 [0x59] UPDATE_ENTITY_DATA: Set 01 (ID: 17162899/0x0105E293) main speed = 36* * 0.1
267: 0x08BE [0x59] UPDATE_ENTITY_DATA: Set 02 (ID: 17162900/0x0105E294) main speed = 36* * 0.1
268: 0x08C6 [0x59] UPDATE_ENTITY_DATA: Set 02 (ID: 17162901/0x0105E295) main speed = 36* * 0.1
269: 0x08CE [0x27] REQ_SET(priority=0x10, entity_id=Nzha Abaleenah (ID: 17162770/0x0105E212), tag_num=0x09)
270: 0x08D5 [0x1C] WAIT(8* ticks)
271: 0x08D8 [0x27] REQ_SET(priority=0x10, entity_id=01 (ID: 17162899/0x0105E293), tag_num=0x09)
272: 0x08DF [0x1C] WAIT(10* ticks)
273: 0x08E2 [0x27] REQ_SET(priority=0x10, entity_id=02 (ID: 17162900/0x0105E294), tag_num=0x09)
274: 0x08E9 [0x1C] WAIT(8* ticks)
275: 0x08EC [0x27] REQ_SET(priority=0x10, entity_id=02 (ID: 17162901/0x0105E295), tag_num=0x09)
276: 0x08F3 [0x1C] WAIT(100* ticks)
277: 0x08F6 [0x4A] LocalPlayer looks at Naho Gwanboh (ID: 17162769/0x0105E211)
278: 0x08FF [0x27] REQ_SET(priority=0x10, entity_id=Mihl Pakorhma (ID: 17162795/0x0105E22B), tag_num=0x21)
279: 0x0906 [0x27] REQ_SET(priority=0x10, entity_id=Tihl Midurhi (ID: 17162794/0x0105E22A), tag_num=0x1D)
280: 0x090D [0x27] REQ_SET(priority=0x10, entity_id=Romaa Mihgo (ID: 17162760/0x0105E208), tag_num=0x3D)
281: 0x0914 [0x7B] Romaa Mihgo (ID: 17162760/0x0105E208) stops talking
282: 0x0919 [0x7B] Tihl Midurhi (ID: 17162794/0x0105E22A) stops talking
283: 0x091E [0x7B] Mihl Pakorhma (ID: 17162795/0x0105E22B) stops talking
284: 0x0923 [0x1C] WAIT(80* ticks)
285: 0x0926 [0x52] END_LOAD_SCHEDULER: End scheduler "s005" with entities [LocalPlayer, LocalPlayer], work=436*
286: 0x0935 [0x45] LOAD_SCHEDULED_TASK: Load scheduler "s034" with entities [LocalPlayer, LocalPlayer], work=[436*, 0*]
287: 0x0946 [0x7B] Nzha Abaleenah (ID: 17162770/0x0105E212) stops talking
288: 0x094B [0x59] UPDATE_ENTITY_DATA: Set Nzha Abaleenah (ID: 17162770/0x0105E212) main speed = 40* * 0.1
289: 0x0953 [0x27] REQ_SET(priority=0x10, entity_id=Nzha Abaleenah (ID: 17162770/0x0105E212), tag_num=0x09)
290: 0x095A [0x1C] WAIT(20* ticks)
291: 0x095D [0x29] REQ_SET_WAIT(priority=0x10, entity_id=Mihl Pakorhma (ID: 17162795/0x0105E22B), tag_num=0x22)
292: 0x0964 [0x27] REQ_SET(priority=0x10, entity_id=Tihl Midurhi (ID: 17162794/0x0105E22A), tag_num=0x1E)
293: 0x096B [0x6E] Mihl Pakorhma (ID: 17162795/0x0105E22B) uses emote 22*
294: 0x0972 [0x99] Wait for Mihl Pakorhma (ID: 17162795/0x0105E22B) animation to complete
295: 0x0977 [0x1C] WAIT(15* ticks)
296: 0x097A [0x1C] WAIT(30* ticks)
297: 0x097D [0x6E] Tihl Midurhi (ID: 17162794/0x0105E22A) uses emote 26*
298: 0x0984 [0x99] Wait for Tihl Midurhi (ID: 17162794/0x0105E22A) animation to complete
299: 0x0989 [0x5B] LOAD_EXT_SCHEDULER: Load scheduler "rml0" with entities [Romaa Mihgo (ID: 17162760/0x0105E208), Romaa Mihgo (ID: 17162760/0x0105E208)], work=1379*
300: 0x0998 [0x1C] WAIT(110* ticks)
301: 0x099B [0x4E] SET_ENTITY_HIDE_FLAG: Hide Naho Gwanboh (ID: 17162769/0x0105E211)
302: 0x09A1 [0x4E] SET_ENTITY_HIDE_FLAG: Hide Nzha Abaleenah (ID: 17162770/0x0105E212)
303: 0x09A7 [0x4E] SET_ENTITY_HIDE_FLAG: Hide 01 (ID: 17162899/0x0105E293)
304: 0x09AD [0x4E] SET_ENTITY_HIDE_FLAG: Hide 02 (ID: 17162900/0x0105E294)
305: 0x09B3 [0x4E] SET_ENTITY_HIDE_FLAG: Hide 02 (ID: 17162901/0x0105E295)
306: 0x09B9 [0x52] END_LOAD_SCHEDULER: End scheduler "s034" with entities [LocalPlayer, LocalPlayer], work=436*
307: 0x09C8 [0x45] LOAD_SCHEDULED_TASK: Load scheduler "s006" with entities [LocalPlayer, LocalPlayer], work=[436*, 0*]
308: 0x09D9 [0x4A] Romaa Mihgo (ID: 17162760/0x0105E208) looks at LocalPlayer
309: 0x09E2 [0x1C] WAIT(100* ticks)
310: 0x09E5 [0x4A] Mihl Pakorhma (ID: 17162795/0x0105E22B) looks at LocalPlayer
311: 0x09EE [0x1C] WAIT(20* ticks)
312: 0x09F1 [0x4A] Tihl Midurhi (ID: 17162794/0x0105E22A) looks at LocalPlayer
313: 0x09FA [0x2B] Romaa Mihgo (ID: 17162760/0x0105E208) [13152*]:
     "Oh, and <Player>. This is for you."
314: 0x0A01 [0x23] WAIT_FOR_DIALOG_INTERACTION
315: 0x0A02 [0x4A] LocalPlayer looks at Romaa Mihgo (ID: 17162760/0x0105E208)
316: 0x0A0B [0x1C] WAIT(30* ticks)
317: 0x0A0E [0x52] END_LOAD_SCHEDULER: End scheduler "s006" with entities [LocalPlayer, LocalPlayer], work=436*
318: 0x0A1D [0xBA] SET_ENTITY_POSITION(entity_id=Tihl Midurhi (ID: 17162794/0x0105E22A), pos_x=-2.681*, pos_z=14.601*, pos_y=-0.999*, direction=335.2*)
319: 0x0A2A [0xBA] SET_ENTITY_POSITION(entity_id=Mihl Pakorhma (ID: 17162795/0x0105E22B), pos_x=-2.223*, pos_z=13.564*, pos_y=-0.999*, direction=335.2*)
320: 0x0A37 [0x45] LOAD_SCHEDULED_TASK: Load scheduler "s031" with entities [LocalPlayer, LocalPlayer], work=[436*, 0*]
321: 0x0A48 [0x66] LOAD_EXT_SCHEDULER_MAIN: Load scheduler "pas0" with entities [Romaa Mihgo (ID: 17162760/0x0105E208), Romaa Mihgo (ID: 17162760/0x0105E208)], work=127*
322: 0x0A57 [0x1C] WAIT(30* ticks)
323: 0x0A5A [0x6E] Mihl Pakorhma (ID: 17162795/0x0105E22B) uses emote 12*
324: 0x0A61 [0x99] Wait for Mihl Pakorhma (ID: 17162795/0x0105E22B) animation to complete
325: 0x0A66 [0x6E] Tihl Midurhi (ID: 17162794/0x0105E22A) uses emote 13*
326: 0x0A6D [0x99] Wait for Tihl Midurhi (ID: 17162794/0x0105E22A) animation to complete
327: 0x0A72 [0x2B] Romaa Mihgo (ID: 17162760/0x0105E208) [13153*]:
     "It's your hard-earned rewarrrd for your part in the operation, compliments of the Warlock Warlord himself! He's cerrrtainly taken a liking to you, <Player>."
328: 0x0A79 [0x23] WAIT_FOR_DIALOG_INTERACTION
329: 0x0A7A [0x53] WAIT_SCHEDULER_TASK: Wait for scheduler "pas0" with entities [Romaa Mihgo (ID: 17162760/0x0105E208), Romaa Mihgo (ID: 17162760/0x0105E208)]
330: 0x0A87 [0x1C] WAIT(30* ticks)
331: 0x0A8A [0x5D] SET_MUSIC_VOLUME(volume=0*, fade_time=150*)
332: 0x0A8F [0x45] LOAD_SCHEDULED_TASK: Load scheduler "fdo2" with entities [LocalPlayer, LocalPlayer], work=[200*, 0*]
333: 0x0AA0 [0x55] WAIT_LOAD_SCHEDULER: Wait for scheduler "fdo2" with entities [LocalPlayer, LocalPlayer], work=200*
334: 0x0AAF [0x1C] WAIT(60* ticks)
335: 0x0AB2 [0x52] END_LOAD_SCHEDULER: End scheduler "s031" with entities [LocalPlayer, LocalPlayer], work=436*
336: 0x0AC1 [0x34] LOAD_UNLOAD_ZONE(zone_id=242*)
337: 0x0AC4 [0x77] SET_EVENT_TIME_WEATHER(hour=0*, weather=1*)
338: 0x0AC9 [0xAB] EventEntity->UnknownFlag = 1 // Enable unknown flag
339: 0x0ACB [0x1C] WAIT(15* ticks)
340: 0x0ACE [0x75] LOAD_ROOM(Load indoor room, room=427*)
341: 0x0AD2 [0x75] LOAD_ROOM(No action)
342: 0x0AD4 [0x5B] LOAD_EXT_SCHEDULER: Load scheduler 0xFEFEFE00 with entities [Unnamed NPC (ID: 17162887/0x0105E287), Unnamed NPC (ID: 17162887/0x0105E287)], work=1458*
343: 0x0AE3 [0x5B] LOAD_EXT_SCHEDULER: Load scheduler 0xFEFEFE00 with entities [Lehko Habhoka (ID: 17162806/0x0105E236), Lehko Habhoka (ID: 17162806/0x0105E236)], work=1441*
344: 0x0AF2 [0x4E] SET_ENTITY_HIDE_FLAG: Show Robel-Akbel (ID: 17162776/0x0105E218)
345: 0x0AF8 [0x4E] SET_ENTITY_HIDE_FLAG: Show Lehko Habhoka (ID: 17162806/0x0105E236)
346: 0x0AFE [0x4E] SET_ENTITY_HIDE_FLAG: Show Unnamed NPC (ID: 17162887/0x0105E287)
347: 0x0B04 [0xBA] SET_ENTITY_POSITION(entity_id=Robel-Akbel (ID: 17162776/0x0105E218), pos_x=16.957*, pos_z=16.295*, pos_y=-26.249*, direction=144.0*)
348: 0x0B11 [0xBA] SET_ENTITY_POSITION(entity_id=Lehko Habhoka (ID: 17162806/0x0105E236), pos_x=19.494*, pos_z=17.209*, pos_y=-26.250*, direction=144.0*)
349: 0x0B1E [0xBA] SET_ENTITY_POSITION(entity_id=Unnamed NPC (ID: 17162887/0x0105E287), pos_x=19.494*, pos_z=17.209*, pos_y=-26.250*, direction=144.0*)
350: 0x0B2B [0x92] Robel-Akbel (ID: 17162776/0x0105E218)->Render.Flags3 ^= 0x01
351: 0x0B31 [0x92] Lehko Habhoka (ID: 17162806/0x0105E236)->Render.Flags3 ^= 0x01
352: 0x0B37 [0x92] Unnamed NPC (ID: 17162887/0x0105E287)->Render.Flags3 ^= 0x01
353: 0x0B3D [0x94] Robel-Akbel (ID: 17162776/0x0105E218)->Render.Flags3 ^= 0x01
354: 0x0B43 [0x94] Lehko Habhoka (ID: 17162806/0x0105E236)->Render.Flags3 ^= 0x01
355: 0x0B49 [0x94] Unnamed NPC (ID: 17162887/0x0105E287)->Render.Flags3 ^= 0x01
356: 0x0B4F [0x80] LOAD_WAIT(entity=Robel-Akbel (ID: 17162776/0x0105E218))
357: 0x0B54 [0x80] LOAD_WAIT(entity=Lehko Habhoka (ID: 17162806/0x0105E236))
358: 0x0B59 [0x80] LOAD_WAIT(entity=Unnamed NPC (ID: 17162887/0x0105E287))
359: 0x0B5E [0x5B] LOAD_EXT_SCHEDULER: Load scheduler "ches" with entities [Unnamed NPC (ID: 17162887/0x0105E287), Unnamed NPC (ID: 17162887/0x0105E287)], work=1458*
360: 0x0B6D [0x5B] LOAD_EXT_SCHEDULER: Load scheduler "ches" with entities [Lehko Habhoka (ID: 17162806/0x0105E236), Lehko Habhoka (ID: 17162806/0x0105E236)], work=1441*
361: 0x0B7C [0x5C] MUSIC_CONTROL: Set Idle (Day) music to song 127*
362: 0x0B80 [0x5C] MUSIC_CONTROL: Set Idle (Night) music to song 127*
363: 0x0B84 [0x9A] WAIT_MUSIC_SERVER()
364: 0x0B85 [0x45] LOAD_SCHEDULED_TASK: Load scheduler "s020" with entities [LocalPlayer, LocalPlayer], work=[436*, 0*]
365: 0x0B96 [0x5B] LOAD_EXT_SCHEDULER: Load scheduler "gud0" with entities [Robel-Akbel (ID: 17162776/0x0105E218), Robel-Akbel (ID: 17162776/0x0105E218)], work=1373*
366: 0x0BA5 [0x45] LOAD_SCHEDULED_TASK: Load scheduler "fdi2" with entities [LocalPlayer, LocalPlayer], work=[200*, 0*]
367: 0x0BB6 [0x55] WAIT_LOAD_SCHEDULER: Wait for scheduler "fdi2" with entities [LocalPlayer, LocalPlayer], work=200*
368: 0x0BC5 [0x1C] WAIT(180* ticks)
369: 0x0BC8 [0x52] END_LOAD_SCHEDULER: End scheduler "s020" with entities [LocalPlayer, LocalPlayer], work=436*
