# 0x7FFFFFF0 - Zone Events

## Common Data

| Field            | Value                        |
|------------------|------------------------------|
| Zone             | Windurst Waters [S] (ID: 94) |
| Block Size       | 5524 bytes                   |
| Total Events     | 125                          |
| References Count | 359                          |

## List of Events

| Event ID                     | Entrypoint   |   Size |   Instructions |
|------------------------------|--------------|--------|----------------|
| [65535](#event-65535)        | 0x0000       |      1 |              1 |
| [65535.1](#event-655351)     | 0x0001       |     10 |              2 |
| [65534](#event-65534)        | 0x000B       |      1 |              1 |
| [65535.2](#event-655352)     | 0x000C       |     37 |              5 |
| [65535.3](#event-655353)     | 0x0031       |     37 |              5 |
| [65535.4](#event-655354)     | 0x0056       |     37 |              5 |
| [65535.5](#event-655355)     | 0x007B       |     37 |              5 |
| [65535.6](#event-655356)     | 0x00A0       |     13 |              3 |
| [65535.7](#event-655357)     | 0x00AD       |     14 |              4 |
| [512](#event-512)            | 0x00BB       |    503 |            109 |
| [65535.8](#event-655358)     | 0x02B2       |      6 |              2 |
| [65535.9](#event-655359)     | 0x02B8       |      6 |              2 |
| [65535.10](#event-6553510)   | 0x02BE       |     11 |              3 |
| [65535.11](#event-6553511)   | 0x02C9       |     15 |              5 |
| [65535.12](#event-6553512)   | 0x02D8       |     20 |              6 |
| [65535.13](#event-6553513)   | 0x02EC       |     15 |              5 |
| [65535.14](#event-6553514)   | 0x02FB       |     20 |              6 |
| [65535.15](#event-6553515)   | 0x030F       |     20 |              6 |
| [65535.16](#event-6553516)   | 0x0323       |     15 |              5 |
| [65535.17](#event-6553517)   | 0x0332       |     37 |             11 |
| [65535.18](#event-6553518)   | 0x0357       |     29 |              9 |
| [65535.19](#event-6553519)   | 0x0374       |     15 |              5 |
| [65535.20](#event-6553520)   | 0x0383       |     15 |              5 |
| [65535.21](#event-6553521)   | 0x0392       |     20 |              6 |
| [65535.22](#event-6553522)   | 0x03A6       |      7 |              3 |
| [65535.23](#event-6553523)   | 0x03AD       |      7 |              3 |
| [65535.24](#event-6553524)   | 0x03B4       |     15 |              5 |
| [65535.25](#event-6553525)   | 0x03C3       |     15 |              5 |
| [65535.26](#event-6553526)   | 0x03D2       |     29 |              7 |
| [65535.27](#event-6553527)   | 0x03EF       |     20 |              6 |
| [65535.28](#event-6553528)   | 0x0403       |     11 |              3 |
| [65535.29](#event-6553529)   | 0x040E       |     11 |              3 |
| [65535.30](#event-6553530)   | 0x0419       |     17 |              5 |
| [65535.31](#event-6553531)   | 0x042A       |     11 |              3 |
| [65535.32](#event-6553532)   | 0x0435       |     21 |              5 |
| [65535.33](#event-6553533)   | 0x044A       |     11 |              3 |
| [65535.34](#event-6553534)   | 0x0455       |     11 |              3 |
| [65535.35](#event-6553535)   | 0x0460       |     34 |              8 |
| [65535.36](#event-6553536)   | 0x0482       |     24 |              4 |
| [65535.37](#event-6553537)   | 0x049A       |     24 |              4 |
| [65535.38](#event-6553538)   | 0x04B2       |     38 |              5 |
| [65535.39](#event-6553539)   | 0x04D8       |     38 |              5 |
| [65535.40](#event-6553540)   | 0x04FE       |     38 |              5 |
| [65535.41](#event-6553541)   | 0x0524       |     12 |              3 |
| [65535.42](#event-6553542)   | 0x0530       |    160 |             35 |
| [65535.43](#event-6553543)   | 0x05D0       |     11 |              3 |
| [65535.44](#event-6553544)   | 0x05DB       |     21 |              5 |
| [65535.45](#event-6553545)   | 0x05F0       |     21 |              5 |
| [65535.46](#event-6553546)   | 0x0605       |     11 |              3 |
| [65535.47](#event-6553547)   | 0x0610       |     11 |              3 |
| [65535.48](#event-6553548)   | 0x061B       |     11 |              3 |
| [65535.49](#event-6553549)   | 0x0626       |     11 |              3 |
| [65535.50](#event-6553550)   | 0x0631       |     11 |              3 |
| [65535.51](#event-6553551)   | 0x063C       |     11 |              3 |
| [65535.52](#event-6553552)   | 0x0647       |     21 |              5 |
| [65535.53](#event-6553553)   | 0x065C       |     11 |              3 |
| [65535.54](#event-6553554)   | 0x0667       |     21 |              5 |
| [65535.55](#event-6553555)   | 0x067C       |     21 |              5 |
| [65535.56](#event-6553556)   | 0x0691       |     11 |              3 |
| [65535.57](#event-6553557)   | 0x069C       |     14 |              5 |
| [65535.58](#event-6553558)   | 0x06AA       |     11 |              3 |
| [65535.59](#event-6553559)   | 0x06B5       |     21 |              5 |
| [65535.60](#event-6553560)   | 0x06CA       |     11 |              3 |
| [65535.61](#event-6553561)   | 0x06D5       |     11 |              3 |
| [65535.62](#event-6553562)   | 0x06E0       |     11 |              3 |
| [65535.63](#event-6553563)   | 0x06EB       |     11 |              3 |
| [65535.64](#event-6553564)   | 0x06F6       |     11 |              3 |
| [65535.65](#event-6553565)   | 0x0701       |     11 |              3 |
| [65535.66](#event-6553566)   | 0x070C       |     21 |              5 |
| [65535.67](#event-6553567)   | 0x0721       |     21 |              5 |
| [65535.68](#event-6553568)   | 0x0736       |     21 |              5 |
| [65535.69](#event-6553569)   | 0x074B       |     21 |              2 |
| [65535.70](#event-6553570)   | 0x0760       |     15 |              5 |
| [65535.71](#event-6553571)   | 0x076F       |     10 |              2 |
| [65535.72](#event-6553572)   | 0x0779       |     14 |              4 |
| [65535.73](#event-6553573)   | 0x0787       |     16 |              3 |
| [65535.74](#event-6553574)   | 0x0797       |     16 |              3 |
| [65535.75](#event-6553575)   | 0x07A7       |     15 |              5 |
| [65535.76](#event-6553576)   | 0x07B6       |     23 |              5 |
| [65535.77](#event-6553577)   | 0x07CD       |     20 |              6 |
| [65535.78](#event-6553578)   | 0x07E1       |     14 |              4 |
| [65535.79](#event-6553579)   | 0x07EF       |     50 |             12 |
| [65535.80](#event-6553580)   | 0x0821       |     15 |              5 |
| [65535.81](#event-6553581)   | 0x0830       |     26 |              8 |
| [65535.82](#event-6553582)   | 0x084A       |      4 |              2 |
| [65535.83](#event-6553583)   | 0x084E       |     38 |              4 |
| [65535.84](#event-6553584)   | 0x0874       |     75 |             15 |
| [65535.85](#event-6553585)   | 0x08BF       |    103 |             15 |
| [65535.86](#event-6553586)   | 0x0926       |     49 |             10 |
| [65535.87](#event-6553587)   | 0x0957       |     61 |             14 |
| [65535.88](#event-6553588)   | 0x0994       |     30 |              7 |
| [65535.89](#event-6553589)   | 0x09B2       |     22 |              5 |
| [65535.90](#event-6553590)   | 0x09C8       |     40 |              9 |
| [65535.91](#event-6553591)   | 0x09F0       |    105 |             22 |
| [65535.92](#event-6553592)   | 0x0A59       |    101 |             21 |
| [65535.93](#event-6553593)   | 0x0ABE       |      8 |              2 |
| [65535.94](#event-6553594)   | 0x0AC6       |     14 |              2 |
| [65535.95](#event-6553595)   | 0x0AD4       |     48 |             10 |
| [65535.96](#event-6553596)   | 0x0B04       |     43 |              9 |
| [65535.97](#event-6553597)   | 0x0B2F       |     41 |              8 |
| [65535.98](#event-6553598)   | 0x0B58       |     30 |              7 |
| [65535.99](#event-6553599)   | 0x0B76       |     41 |             10 |
| [65535.100](#event-65535100) | 0x0B9F       |     54 |             10 |
| [65535.101](#event-65535101) | 0x0BD5       |     29 |              6 |
| [65535.102](#event-65535102) | 0x0BF2       |     25 |              6 |
| [65535.103](#event-65535103) | 0x0C0B       |     10 |              2 |
| [65535.104](#event-65535104) | 0x0C15       |     10 |              2 |
| [65535.105](#event-65535105) | 0x0C1F       |     37 |              5 |
| [65535.106](#event-65535106) | 0x0C44       |     37 |              5 |
| [65535.107](#event-65535107) | 0x0C69       |     19 |              4 |
| [65535.108](#event-65535108) | 0x0C7C       |     20 |              5 |
| [65535.109](#event-65535109) | 0x0C90       |     20 |              5 |
| [65535.110](#event-65535110) | 0x0CA4       |     14 |              4 |
| [65535.111](#event-65535111) | 0x0CB2       |     14 |              4 |
| [65535.112](#event-65535112) | 0x0CC0       |     41 |              9 |
| [65535.113](#event-65535113) | 0x0CE9       |     20 |              6 |
| [65535.114](#event-65535114) | 0x0CFD       |     34 |              7 |
| [65535.115](#event-65535115) | 0x0D1F       |     42 |              9 |
| [65535.116](#event-65535116) | 0x0D49       |     14 |              4 |
| [65535.117](#event-65535117) | 0x0D57       |     38 |              5 |
| [65535.118](#event-65535118) | 0x0D7D       |     38 |              5 |
| [65535.119](#event-65535119) | 0x0DA3       |     38 |              5 |
| [65535.120](#event-65535120) | 0x0DC9       |     16 |              3 |
| [65535.121](#event-65535121) | 0x0DD9       |     16 |              3 |
| [65535.122](#event-65535122) | 0x0DE9       |     10 |              2 |

## DAT References (imed_data)

|   Index | Hex Value   |   Dec Value |
|---------|-------------|-------------|
|       0 | 0x009A      |         154 |
|       1 | 0xFFFFF98B  |  4294965643 |
|       2 | 0x0000      |           0 |
|       3 | 0x0B83      |        2947 |
|       4 | 0xFFFF63BB  |  4294927291 |
|       5 | 0x3A95A     |      239962 |
|       6 | 0xFFFFEC78  |  4294962296 |
|       7 | 0x0C00      |        3072 |
|       8 | 0x000D      |          13 |
|       9 | 0x3C4DD     |      247005 |
|      10 | 0x0001      |           1 |
|      11 | 0x2E21      |       11809 |
|      12 | 0x2E22      |       11810 |
|      13 | 0x0002      |           2 |
|      14 | 0x0003      |           3 |
|      15 | 0x2E24      |       11812 |
|      16 | 0x2E23      |       11811 |
|      17 | 0x43F5      |       17397 |
|      18 | 0x2E25      |       11813 |
|      19 | 0x2E26      |       11814 |
|      20 | 0x2E27      |       11815 |
|      21 | 0x4269      |       17001 |
|      22 | 0x2E28      |       11816 |
|      23 | 0x2E29      |       11817 |
|      24 | 0x1D3EB     |      119787 |
|      25 | 0xAD0F      |       44303 |
|      26 | 0xFFFFF831  |  4294965297 |
|      27 | 0x1641      |        5697 |
|      28 | 0xFFFD8392  |  4294804370 |
|      29 | 0xFFFFEF66  |  4294963046 |
|      30 | 0x2354      |        9044 |
|      31 | 0xFFFD8213  |  4294803987 |
|      32 | 0xFFFFEF67  |  4294963047 |
|      33 | 0x0992      |        2450 |
|      34 | 0x0BDA      |        3034 |
|      35 | 0xFFFFFFF5  |  4294967285 |
|      36 | 0x06B3      |        1715 |
|      37 | 0x40CA      |       16586 |
|      38 | 0xFFFFFC19  |  4294966297 |
|      39 | 0xFFFF0D26  |  4294905126 |
|      40 | 0x18E00     |      101888 |
|      41 | 0xFFFFEB7E  |  4294962046 |
|      42 | 0x041B      |        1051 |
|      43 | 0xFFFFF631  |  4294964785 |
|      44 | 0x0024      |          36 |
|      45 | 0xFFFF84D8  |  4294935768 |
|      46 | 0x130D      |        4877 |
|      47 | 0xFFFF85DC  |  4294936028 |
|      48 | 0xFFFFDE8E  |  4294958734 |
|      49 | 0xFFFFE0C0  |  4294959296 |
|      50 | 0xFFFF96C2  |  4294940354 |
|      51 | 0xFFFFB7EF  |  4294948847 |
|      52 | 0xFFFFD8F1  |  4294957297 |
|      53 | 0x73ED      |       29677 |
|      54 | 0xFFFFDF6A  |  4294958954 |
|      55 | 0xFFFFA04C  |  4294942796 |
|      56 | 0x738C      |       29580 |
|      57 | 0xFFFFEEF8  |  4294962936 |
|      58 | 0xFFFF9D5E  |  4294942046 |
|      59 | 0x0960      |        2400 |
|      60 | 0x1EF8F     |      126863 |
|      61 | 0xD07B      |       53371 |
|      62 | 0xFFFFF8CA  |  4294965450 |
|      63 | 0x0028      |          40 |
|      64 | 0x1DC6D     |      121965 |
|      65 | 0xC844      |       51268 |
|      66 | 0xFFFFF91B  |  4294965531 |
|      67 | 0xFFFF6835  |  4294928437 |
|      68 | 0x3707A     |      225402 |
|      69 | 0xFFFFECBE  |  4294962366 |
|      70 | 0xFFFF6679  |  4294927993 |
|      71 | 0x35EA7     |      220839 |
|      72 | 0xFFFFECA2  |  4294962338 |
|      73 | 0xFFFF6632  |  4294927922 |
|      74 | 0x3376A     |      210794 |
|      75 | 0xFFFFEC27  |  4294962215 |
|      76 | 0xFFFFF2FE  |  4294963966 |
|      77 | 0x64C4      |       25796 |
|      78 | 0x0FAE      |        4014 |
|      79 | 0xFFFFF1FF  |  4294963711 |
|      80 | 0x731B      |       29467 |
|      81 | 0xFFFFEFA2  |  4294963106 |
|      82 | 0x7971      |       31089 |
|      83 | 0xFFFF63C6  |  4294927302 |
|      84 | 0x36B54     |      224084 |
|      85 | 0xFFFFEC77  |  4294962295 |
|      86 | 0xFFFF54FC  |  4294923516 |
|      87 | 0x30170     |      196976 |
|      88 | 0xFFFFEA97  |  4294961815 |
|      89 | 0xFFFF6725  |  4294928165 |
|      90 | 0x3562E     |      218670 |
|      91 | 0xFFFFEC87  |  4294962311 |
|      92 | 0x7648      |       30280 |
|      93 | 0x01B1      |         433 |
|      94 | 0xFFFF9A71  |  4294941297 |
|      95 | 0xFFFFFA35  |  4294965813 |
|      96 | 0x0FCE      |        4046 |
|      97 | 0xFFFF9C64  |  4294941796 |
|      98 | 0x063B      |        1595 |
|      99 | 0x0D98      |        3480 |
|     100 | 0xFFFF9C65  |  4294941797 |
|     101 | 0x36E0      |       14048 |
|     102 | 0xFFFFF4DB  |  4294964443 |
|     103 | 0x02ED      |         749 |
|     104 | 0x002D      |          45 |
|     105 | 0x0026      |          38 |
|     106 | 0x0008      |           8 |
|     107 | 0x0007      |           7 |
|     108 | 0x0091      |         145 |
|     109 | 0x004F      |          79 |
|     110 | 0x004C      |          76 |
|     111 | 0x00C9      |         201 |
|     112 | 0x0018      |          24 |
|     113 | 0x0020      |          32 |
|     114 | 0x0004      |           4 |
|     115 | 0x0030      |          48 |
|     116 | 0x0006      |           6 |
|     117 | 0x0040      |          64 |
|     118 | 0xFFFF6E8B  |  4294930059 |
|     119 | 0x13743     |       79683 |
|     120 | 0xFFFFEE91  |  4294962833 |
|     121 | 0x0312      |         786 |
|     122 | 0xFFFF8291  |  4294935185 |
|     123 | 0xFB84      |       64388 |
|     124 | 0xFFFFF255  |  4294963797 |
|     125 | 0x07F8      |        2040 |
|     126 | 0x0005      |           5 |
|     127 | 0x000A      |          10 |
|     128 | 0x0009      |           9 |
|     129 | 0x0046      |          70 |
|     130 | 0x008C      |         140 |
|     131 | 0x00D2      |         210 |
|     132 | 0xFFFF6437  |  4294927415 |
|     133 | 0x36B21     |      224033 |
|     134 | 0xFFFFEC6F  |  4294962287 |
|     135 | 0x7E5F      |       32351 |
|     136 | 0x0640      |        1600 |
|     137 | 0xFFFFFB4D  |  4294966093 |
|     138 | 0x0D1B      |        3355 |
|     139 | 0x0CF9      |        3321 |
|     140 | 0x1C3E      |        7230 |
|     141 | 0xFFFF6390  |  4294927248 |
|     142 | 0x364CE     |      222414 |
|     143 | 0xFFFFEC74  |  4294962292 |
|     144 | 0xFFFF5FB5  |  4294926261 |
|     145 | 0x30C8E     |      199822 |
|     146 | 0xFFFFEB35  |  4294961973 |
|     147 | 0xFFFF62E6  |  4294927078 |
|     148 | 0x37674     |      226932 |
|     149 | 0xFFFFEC69  |  4294962281 |
|     150 | 0x00B1      |         177 |
|     151 | 0x2DF8      |       11768 |
|     152 | 0xFFFF4869  |  4294920297 |
|     153 | 0x0559      |        1369 |
|     154 | 0x810C      |       33036 |
|     155 | 0xFFFF4099  |  4294918297 |
|     156 | 0x00BF      |         191 |
|     157 | 0xF6FB      |       63227 |
|     158 | 0xFFFF1394  |  4294906772 |
|     159 | 0xFFFFFB0F  |  4294966031 |
|     160 | 0xBCB8      |       48312 |
|     161 | 0xFFFF11A3  |  4294906275 |
|     162 | 0x238D      |        9101 |
|     163 | 0x10751     |       67409 |
|     164 | 0xFFFF0FC4  |  4294905796 |
|     165 | 0x39C2      |       14786 |
|     166 | 0x10C57     |       68695 |
|     167 | 0xFFFF0FC5  |  4294905797 |
|     168 | 0x6CAC      |       27820 |
|     169 | 0x10C84     |       68740 |
|     170 | 0x2BF1C     |      179996 |
|     171 | 0x47C9      |       18377 |
|     172 | 0x2134      |        8500 |
|     173 | 0x2BA22     |      178722 |
|     174 | 0xFFFFC5A8  |  4294952360 |
|     175 | 0x2742      |       10050 |
|     176 | 0x27DDC     |      163292 |
|     177 | 0xFFFFC1D6  |  4294951382 |
|     178 | 0x270F      |        9999 |
|     179 | 0x255FC     |      153084 |
|     180 | 0xFFFFC2E8  |  4294951656 |
|     181 | 0x246DE     |      149214 |
|     182 | 0xFFFFBF15  |  4294950677 |
|     183 | 0x22B34     |      142132 |
|     184 | 0xFFFFA460  |  4294943840 |
|     185 | 0x32C7      |       12999 |
|     186 | 0x0064      |         100 |
|     187 | 0xFFFFBA33  |  4294949427 |
|     188 | 0x01F3      |         499 |
|     189 | 0x19C7      |        6599 |
|     190 | 0xFFFFE264  |  4294959716 |
|     191 | 0x0249      |         585 |
|     192 | 0xFFFFEA89  |  4294961801 |
|     193 | 0x257B      |        9595 |
|     194 | 0x0477      |        1143 |
|     195 | 0x33B2      |       13234 |
|     196 | 0xFFFF9AFF  |  4294941439 |
|     197 | 0x0C87      |        3207 |
|     198 | 0xFFFFCD70  |  4294954352 |
|     199 | 0xFFFF6331  |  4294927153 |
|     200 | 0x36165     |      221541 |
|     201 | 0xFFFFEC6E  |  4294962286 |
|     202 | 0x0056      |          86 |
|     203 | 0xFFFF64D9  |  4294927577 |
|     204 | 0x152EC     |       86764 |
|     205 | 0xFFFFEC72  |  4294962290 |
|     206 | 0x0080      |         128 |
|     207 | 0xFFFFA5A4  |  4294944164 |
|     208 | 0x17AE5     |       96997 |
|     209 | 0xFFFFD603  |  4294956547 |
|     210 | 0xFFFF9B3C  |  4294941500 |
|     211 | 0x14DB5     |       85429 |
|     212 | 0xFFFF6837  |  4294928439 |
|     213 | 0x36CFD     |      224509 |
|     214 | 0xFFFF6694  |  4294928020 |
|     215 | 0x356DB     |      218843 |
|     216 | 0xFFFFFFCC  |  4294967244 |
|     217 | 0x0820      |        2080 |
|     218 | 0xFFFFF5FF  |  4294964735 |
|     219 | 0x06BE      |        1726 |
|     220 | 0xFFFFEF7B  |  4294963067 |
|     221 | 0x0198      |         408 |
|     222 | 0xFFFFE2EC  |  4294959852 |
|     223 | 0x0014      |          20 |
|     224 | 0xFFFFD5EA  |  4294956522 |
|     225 | 0xFFFFFFFC  |  4294967292 |
|     226 | 0x003C      |          60 |
|     227 | 0x007F      |         127 |
|     228 | 0x000F      |          15 |
|     229 | 0x0581      |        1409 |
|     230 | 0xFFFFC064  |  4294951012 |
|     231 | 0x02B6      |         694 |
|     232 | 0x09C0      |        2496 |
|     233 | 0xFFFFCB3F  |  4294953791 |
|     234 | 0x0FD1      |        4049 |
|     235 | 0xFFFFD1E1  |  4294955489 |
|     236 | 0x17D4      |        6100 |
|     237 | 0xFFFFDE0F  |  4294958607 |
|     238 | 0x0096      |         150 |
|     239 | 0xFFFFFFF6  |  4294967286 |
|     240 | 0xFFFFFC18  |  4294966296 |
|     241 | 0x012C      |         300 |
|     242 | 0x0384      |         900 |
|     243 | 0x0050      |          80 |
|     244 | 0x21F8      |        8696 |
|     245 | 0xFFFFE9DE  |  4294961630 |
|     246 | 0x25E9      |        9705 |
|     247 | 0xFFFFF32A  |  4294964010 |
|     248 | 0x23A3      |        9123 |
|     249 | 0xFFFFF8CF  |  4294965455 |
|     250 | 0x27B6      |       10166 |
|     251 | 0x175D      |        5981 |
|     252 | 0x1CD8      |        7384 |
|     253 | 0x1DC7      |        7623 |
|     254 | 0x0212      |         530 |
|     255 | 0x144D      |        5197 |
|     256 | 0x2336      |        9014 |
|     257 | 0xFFFF6270  |  4294926960 |
|     258 | 0x16966     |       92518 |
|     259 | 0xFFFFEC79  |  4294962297 |
|     260 | 0xFFFF5D0C  |  4294925580 |
|     261 | 0x15A26     |       88614 |
|     262 | 0xFFFF5CA6  |  4294925478 |
|     263 | 0x15A23     |       88611 |
|     264 | 0x03E2      |         994 |
|     265 | 0xFFFFC7F2  |  4294952946 |
|     266 | 0x0788      |        1928 |
|     267 | 0xFFFFCF37  |  4294954807 |
|     268 | 0x17BE      |        6078 |
|     269 | 0xFFFFE018  |  4294959128 |
|     270 | 0xFFFFFFE0  |  4294967264 |
|     271 | 0x5B74      |       23412 |
|     272 | 0xFFFFFF07  |  4294967047 |
|     273 | 0x03D6      |         982 |
|     274 | 0x6506      |       25862 |
|     275 | 0x03E8      |        1000 |
|     276 | 0x6557      |       25943 |
|     277 | 0x04CE      |        1230 |
|     278 | 0x6999      |       27033 |
|     279 | 0x0818      |        2072 |
|     280 | 0x6EC7      |       28359 |
|     281 | 0x07BC      |        1980 |
|     282 | 0x001E      |          30 |
|     283 | 0x000B      |          11 |
|     284 | 0xFFFFE00C  |  4294959116 |
|     285 | 0xFFFF8E1E  |  4294938142 |
|     286 | 0xFFFFC75C  |  4294952796 |
|     287 | 0xFFFFFCA6  |  4294966438 |
|     288 | 0xFFFF89A0  |  4294936992 |
|     289 | 0xFFFFC181  |  4294951297 |
|     290 | 0x1625      |        5669 |
|     291 | 0xFFFF8B72  |  4294937458 |
|     292 | 0xFFFFBBC3  |  4294949827 |
|     293 | 0x51D2      |       20946 |
|     294 | 0xFFFFA9FF  |  4294945279 |
|     295 | 0xFFFFADF9  |  4294946297 |
|     296 | 0x0E3D      |        3645 |
|     297 | 0x6070      |       24688 |
|     298 | 0xFFFFBBC2  |  4294949826 |
|     299 | 0xFFFFA917  |  4294945047 |
|     300 | 0x6B2B      |       27435 |
|     301 | 0xFFFFCFF3  |  4294954995 |
|     302 | 0xFFFFA435  |  4294943797 |
|     303 | 0x7602      |       30210 |
|     304 | 0xFFFFFD2D  |  4294966573 |
|     305 | 0x2933      |       10547 |
|     306 | 0x3A0B      |       14859 |
|     307 | 0xFFFF9977  |  4294941047 |
|     308 | 0x28D4      |       10452 |
|     309 | 0x38D1      |       14545 |
|     310 | 0x0078      |         120 |
|     311 | 0x29A9      |       10665 |
|     312 | 0x2C78      |       11384 |
|     313 | 0x2BF7      |       11255 |
|     314 | 0x3257      |       12887 |
|     315 | 0x2D29      |       11561 |
|     316 | 0x3866      |       14438 |
|     317 | 0x0B02      |        2818 |
|     318 | 0xC386      |       50054 |
|     319 | 0x00FA      |         250 |
|     320 | 0xFFFFCDCC  |  4294954444 |
|     321 | 0x151B9     |       86457 |
|     322 | 0xFFFFC6D8  |  4294952664 |
|     323 | 0x150FE     |       86270 |
|     324 | 0x063D      |        1597 |
|     325 | 0x3EEF      |       16111 |
|     326 | 0x0514      |        1300 |
|     327 | 0x3FC7      |       16327 |
|     328 | 0x0621      |        1569 |
|     329 | 0x41F5      |       16885 |
|     330 | 0xFFFF639C  |  4294927260 |
|     331 | 0x36A20     |      223776 |
|     332 | 0xFFFFEC6A  |  4294962282 |
|     333 | 0xFFFF641C  |  4294927388 |
|     334 | 0x3313E     |      209214 |
|     335 | 0x7C40      |       31808 |
|     336 | 0x00A2      |         162 |
|     337 | 0x7189      |       29065 |
|     338 | 0x09DC      |        2524 |
|     339 | 0x49F7      |       18935 |
|     340 | 0xFFFFFF98  |  4294967192 |
|     341 | 0x2BCF      |       11215 |
|     342 | 0xFFFFF5D0  |  4294964688 |
|     343 | 0xFFFFFB73  |  4294966131 |
|     344 | 0xFFFFF4BF  |  4294964415 |
|     345 | 0x2B1F      |       11039 |
|     346 | 0x31F5      |       12789 |
|     347 | 0x3AC5      |       15045 |
|     348 | 0x3473      |       13427 |
|     349 | 0x1E78      |        7800 |
|     350 | 0x002B      |          43 |
|     351 | 0x005A      |          90 |
|     352 | 0x0202      |         514 |
|     353 | 0x00F0      |         240 |
|     354 | 0x437B      |       17275 |
|     355 | 0xFFFFEFAE  |  4294963118 |
|     356 | 0xFFFF9A03  |  4294941187 |
|     357 | 0xFFFFF830  |  4294965296 |
|     358 | 0x0FBB      |        4027 |

## Events

### Event 65535

#### Metadata

| Field        | Value   |
|--------------|---------|
| Entrypoint   | 0x0000  |
| Data Size    | 1 bytes |
| Instructions | 1       |

```
      00 01 02 03 04 05 06 07  08 09 0A 0B 0C 0D 0E 0F
      -- -- -- -- -- -- -- --  -- -- -- -- -- -- -- --
0000: 00                                                .               
```

#### Opcodes

```
  0: 0x0000 [0x00] END_REQSTACK()
```

### Event 65535.1

#### Metadata

| Field        | Value    |
|--------------|----------|
| Entrypoint   | 0x0001   |
| Data Size    | 10 bytes |
| Instructions | 2        |

```
      00 01 02 03 04 05 06 07  08 09 0A 0B 0C 0D 0E 0F
      -- -- -- -- -- -- -- --  -- -- -- -- -- -- -- --
0000:    37 00 80 01 80 02 80  03 80 00                  7.........     
```

#### Opcodes

```
  0: 0x0001 [0x37] UPDATE_EVENT_POSITION_AND_DIR: x=0.154*, z=-1.653*, y=0.000*, direction=259.0°*
  1: 0x000A [0x00] END_REQSTACK()
```

### Event 65534

#### Metadata

| Field        | Value   |
|--------------|---------|
| Entrypoint   | 0x000B  |
| Data Size    | 1 bytes |
| Instructions | 1       |

```
      00 01 02 03 04 05 06 07  08 09 0A 0B 0C 0D 0E 0F
      -- -- -- -- -- -- -- --  -- -- -- -- -- -- -- --
0000:                                   00                         .    
```

#### Opcodes

```
  0: 0x000B [0x00] END_REQSTACK()
```

### Event 65535.2

#### Metadata

| Field        | Value    |
|--------------|----------|
| Entrypoint   | 0x000C   |
| Data Size    | 37 bytes |
| Instructions | 5        |

```
      00 01 02 03 04 05 06 07  08 09 0A 0B 0C 0D 0E 0F
      -- -- -- -- -- -- -- --  -- -- -- -- -- -- -- --
0000:                                      03 05 00 07              ....
0010: 7F 1A 3C 05 66 06 00 F8  FF FF 7F F8 FF FF 7F 73  ..<.f..........s
0020: 68 61 30 53 F8 FF FF 7F  F8 FF FF 7F 73 68 61 30  ha0S........sha0
0030: 00                                                .               
```

#### Opcodes

```
  0: 0x000C [0x03] ExtData[1]->WorkLocal[5] = Entity->Race
  1: 0x0011 [0x1A] CALL_SUBROUTINE(address=0x053C)
  2: 0x0014 [0x66] LOAD_EXT_SCHEDULER_MAIN: Load scheduler "sha0" with entities [EventEntity, EventEntity], work=ExtData[1]->WorkLocal[6]
  3: 0x0023 [0x53] WAIT_SCHEDULER_TASK: Wait for scheduler "sha0" with entities [EventEntity, EventEntity]
  4: 0x0030 [0x00] END_REQSTACK()
```

### Event 65535.3

#### Metadata

| Field        | Value    |
|--------------|----------|
| Entrypoint   | 0x0031   |
| Data Size    | 37 bytes |
| Instructions | 5        |

```
      00 01 02 03 04 05 06 07  08 09 0A 0B 0C 0D 0E 0F
      -- -- -- -- -- -- -- --  -- -- -- -- -- -- -- --
0030:    03 05 00 07 7F 1A 3C  05 66 06 00 F8 FF FF 7F   ......<.f......
0040: F8 FF FF 7F 73 68 61 31  53 F8 FF FF 7F F8 FF FF  ....sha1S.......
0050: 7F 73 68 61 31 00                                 .sha1.          
```

#### Opcodes

```
  0: 0x0031 [0x03] ExtData[1]->WorkLocal[5] = Entity->Race
  1: 0x0036 [0x1A] CALL_SUBROUTINE(address=0x053C)
  2: 0x0039 [0x66] LOAD_EXT_SCHEDULER_MAIN: Load scheduler "sha1" with entities [EventEntity, EventEntity], work=ExtData[1]->WorkLocal[6]
  3: 0x0048 [0x53] WAIT_SCHEDULER_TASK: Wait for scheduler "sha1" with entities [EventEntity, EventEntity]
  4: 0x0055 [0x00] END_REQSTACK()
```

### Event 65535.4

#### Metadata

| Field        | Value    |
|--------------|----------|
| Entrypoint   | 0x0056   |
| Data Size    | 37 bytes |
| Instructions | 5        |

```
      00 01 02 03 04 05 06 07  08 09 0A 0B 0C 0D 0E 0F
      -- -- -- -- -- -- -- --  -- -- -- -- -- -- -- --
0050:                   03 05  00 07 7F 1A 3C 05 66 06        ......<.f.
0060: 00 F8 FF FF 7F F8 FF FF  7F 74 6C 6B 30 53 F8 FF  .........tlk0S..
0070: FF 7F F8 FF FF 7F 74 6C  6B 30 00                 ......tlk0.     
```

#### Opcodes

```
  0: 0x0056 [0x03] ExtData[1]->WorkLocal[5] = Entity->Race
  1: 0x005B [0x1A] CALL_SUBROUTINE(address=0x053C)
  2: 0x005E [0x66] LOAD_EXT_SCHEDULER_MAIN: Load scheduler "tlk0" with entities [EventEntity, EventEntity], work=ExtData[1]->WorkLocal[6]
  3: 0x006D [0x53] WAIT_SCHEDULER_TASK: Wait for scheduler "tlk0" with entities [EventEntity, EventEntity]
  4: 0x007A [0x00] END_REQSTACK()
```

### Event 65535.5

#### Metadata

| Field        | Value    |
|--------------|----------|
| Entrypoint   | 0x007B   |
| Data Size    | 37 bytes |
| Instructions | 5        |

```
      00 01 02 03 04 05 06 07  08 09 0A 0B 0C 0D 0E 0F
      -- -- -- -- -- -- -- --  -- -- -- -- -- -- -- --
0070:                                   03 05 00 07 7F             .....
0080: 1A 3C 05 66 06 00 F8 FF  FF 7F F8 FF FF 7F 74 6C  .<.f..........tl
0090: 6B 31 53 F8 FF FF 7F F8  FF FF 7F 74 6C 6B 31 00  k1S........tlk1.
```

#### Opcodes

```
  0: 0x007B [0x03] ExtData[1]->WorkLocal[5] = Entity->Race
  1: 0x0080 [0x1A] CALL_SUBROUTINE(address=0x053C)
  2: 0x0083 [0x66] LOAD_EXT_SCHEDULER_MAIN: Load scheduler "tlk1" with entities [EventEntity, EventEntity], work=ExtData[1]->WorkLocal[6]
  3: 0x0092 [0x53] WAIT_SCHEDULER_TASK: Wait for scheduler "tlk1" with entities [EventEntity, EventEntity]
  4: 0x009F [0x00] END_REQSTACK()
```

### Event 65535.6

#### Metadata

| Field        | Value    |
|--------------|----------|
| Entrypoint   | 0x00A0   |
| Data Size    | 13 bytes |
| Instructions | 3        |

```
      00 01 02 03 04 05 06 07  08 09 0A 0B 0C 0D 0E 0F
      -- -- -- -- -- -- -- --  -- -- -- -- -- -- -- --
00A0: 47 00 04 80 05 80 06 80  07 80 47 01 00           G.........G..   
```

#### Opcodes

```
  0: 0x00A0 [0x47] UPDATE_PLAYER_POS(-40.005*, 239.962*, -5.000*, yaw=270.0°*)
  1: 0x00AA [0x47] WAIT_PLAYER_POS_UPDATE
  2: 0x00AC [0x00] END_REQSTACK()
```

### Event 65535.7

#### Metadata

| Field        | Value    |
|--------------|----------|
| Entrypoint   | 0x00AD   |
| Data Size    | 14 bytes |
| Instructions | 4        |

```
      00 01 02 03 04 05 06 07  08 09 0A 0B 0C 0D 0E 0F
      -- -- -- -- -- -- -- --  -- -- -- -- -- -- -- --
00A0:                                         32 08 80               2..
00B0: 1F 00 04 80 09 80 06 80  1F 01 00                 ...........     
```

#### Opcodes

```
  0: 0x00AD [0x32] ExtData[1]->MainSpeed = 13* * 0.1
  1: 0x00B0 [0x1F] MOVE_ENTITY: EventEntity moves to X=-40.005*, Z=247.005*, Y=-5.000*
  2: 0x00B8 [0x1F] MOVE_ENTITY: Update entity position (mode=1)
  3: 0x00BA [0x00] END_REQSTACK()
```

### Event 512

#### Metadata

| Field        | Value     |
|--------------|-----------|
| Entrypoint   | 0x00BB    |
| Data Size    | 503 bytes |
| Instructions | 109       |

```
      00 01 02 03 04 05 06 07  08 09 0A 0B 0C 0D 0E 0F
      -- -- -- -- -- -- -- --  -- -- -- -- -- -- -- --
00B0:                                   20 01 42 03 00              .B..
00C0: 00 02 10 03 01 00 03 10  03 02 00 04 10 03 03 00  ................
00D0: 05 10 03 04 00 06 10 02  00 00 0A 80 00 EA 00 2B  ...............+
00E0: 7E E1 05 01 0B 80 23 01  AE 02 02 04 00 02 80 80  ~.....#.........
00F0: 46 02 02 03 00 02 80 80  05 01 2B 7E E1 05 01 0B  F.........+~....
0100: 80 23 01 43 02 02 03 00  0A 80 80 A4 01 02 01 00  .#.C............
0110: 02 80 80 20 01 2B 7E E1  05 01 0B 80 23 01 A1 01  ... .+~.....#...
0120: 02 01 00 0A 80 80 4B 01  02 02 00 0A 80 00 40 01  ......K.......@.
0130: 03 02 10 02 80 2B 7E E1  05 01 0C 80 23 01 48 01  .....+~.....#.H.
0140: 2B 7E E1 05 01 0B 80 23  01 A1 01 02 01 00 0D 80  +~.....#........
0150: 80 76 01 02 02 00 0D 80  00 6B 01 03 02 10 0A 80  .v.......k......
0160: 2B 7E E1 05 01 0C 80 23  01 73 01 2B 7E E1 05 01  +~.....#.s.+~...
0170: 0B 80 23 01 A1 01 02 01  00 0E 80 80 A1 01 02 02  ..#.............
0180: 00 0E 80 00 96 01 03 02  10 0D 80 2B 7E E1 05 01  ...........+~...
0190: 0C 80 23 01 9E 01 2B 7E  E1 05 01 0B 80 23 01 A1  ..#...+~.....#..
01A0: 01 01 43 02 02 03 00 0D  80 80 43 02 02 01 00 02  ..C.......C.....
01B0: 80 80 BF 01 2B 7E E1 05  01 0B 80 23 01 40 02 02  ....+~.....#.@..
01C0: 01 00 0A 80 80 EA 01 03  02 10 02 80 02 02 00 0A  ................
01D0: 80 00 DF 01 2B 7E E1 05  01 0F 80 23 01 E7 01 2B  ....+~.....#...+
01E0: 7E E1 05 01 10 80 23 01  40 02 02 01 00 0D 80 80  ~.....#.@.......
01F0: 15 02 03 02 10 0A 80 02  02 00 0D 80 00 0A 02 2B  ...............+
0200: 7E E1 05 01 0F 80 23 01  12 02 2B 7E E1 05 01 10  ~.....#...+~....
0210: 80 23 01 40 02 02 01 00  0E 80 80 40 02 03 02 10  .#.@.......@....
0220: 0D 80 02 02 00 0E 80 00  35 02 2B 7E E1 05 01 0F  ........5.+~....
0230: 80 23 01 3D 02 2B 7E E1  05 01 10 80 23 01 40 02  .#.=.+~.....#.@.
0240: 01 43 02 01 AE 02 02 04  00 0A 80 80 6E 02 03 02  .C..........n...
0250: 10 11 80 2B 7E E1 05 01  12 80 23 2B 7E E1 05 01  ...+~.....#+~...
0260: 13 80 23 2B 7E E1 05 01  14 80 23 01 AE 02 02 04  ..#+~.....#.....
0270: 00 0D 80 80 8E 02 03 02  10 11 80 2B 7E E1 05 01  ...........+~...
0280: 12 80 23 2B 7E E1 05 01  13 80 23 01 AE 02 02 04  ..#+~.....#.....
0290: 00 0E 80 80 AE 02 03 02  10 15 80 2B 7E E1 05 01  ...........+~...
02A0: 16 80 23 2B 7E E1 05 01  17 80 23 01 AE 02 20 00  ..#+~.....#... .
02B0: 21 00                                             !.              
```

#### Opcodes

```
  0: 0x00BB [0x20] SET_CLI_EVENT_UC_FLAG: Lock player control
  1: 0x00BD [0x42] SET_CLI_EVENT_CANCEL_DATA()
  2: 0x00BE [0x03] ExtData[1]->WorkLocal[0] = Work_Zone[2]
  3: 0x00C3 [0x03] ExtData[1]->WorkLocal[1] = Work_Zone[3]
  4: 0x00C8 [0x03] ExtData[1]->WorkLocal[2] = Work_Zone[4]
  5: 0x00CD [0x03] ExtData[1]->WorkLocal[3] = Work_Zone[5]
  6: 0x00D2 [0x03] ExtData[1]->WorkLocal[4] = Work_Zone[6]
  7: 0x00D7 [0x02] IF !(ExtData[1]->WorkLocal[0] == 1*) GOTO 0x00EA
  8: 0x00DF [0x2B] Areuhat (ID: 17162622/0x0105E17E) [11809*]:
    → "So this is one of these "cities" I've heard so much of, is it? Hmph. Seems to be nothing more than a mass of people crowded into a noisy, confined space."
  9: 0x00E6 [0x23] WAIT_FOR_DIALOG_INTERACTION
 10: 0x00E7 [0x01] GOTO 0x02AE
 11: 0x00EA [0x02] IF !(ExtData[1]->WorkLocal[4] == 0*) GOTO 0x0246
 12: 0x00F2 [0x02] IF !(ExtData[1]->WorkLocal[3] == 0*) GOTO 0x0105
 13: 0x00FA [0x2B] Areuhat (ID: 17162622/0x0105E17E) [11809*]:
    → "So this is one of these "cities" I've heard so much of, is it? Hmph. Seems to be nothing more than a mass of people crowded into a noisy, confined space."
 14: 0x0101 [0x23] WAIT_FOR_DIALOG_INTERACTION
 15: 0x0102 [0x01] GOTO 0x0243
 16: 0x0105 [0x02] IF !(ExtData[1]->WorkLocal[3] == 1*) GOTO 0x01A4
 17: 0x010D [0x02] IF !(ExtData[1]->WorkLocal[1] == 0*) GOTO 0x0120
 18: 0x0115 [0x2B] Areuhat (ID: 17162622/0x0105E17E) [11809*]:
    → "So this is one of these "cities" I've heard so much of, is it? Hmph. Seems to be nothing more than a mass of people crowded into a noisy, confined space."
 19: 0x011C [0x23] WAIT_FOR_DIALOG_INTERACTION
 20: 0x011D [0x01] GOTO 0x01A1
 21: 0x0120 [0x02] IF !(ExtData[1]->WorkLocal[1] == 1*) GOTO 0x014B
 22: 0x0128 [0x02] IF !(ExtData[1]->WorkLocal[2] == 1*) GOTO 0x0140
 23: 0x0130 [0x03] Work_Zone[2] = 0*
 24: 0x0135 [0x2B] Areuhat (ID: 17162622/0x0105E17E) [11810*]:
    → "I have entrusted the care of my mountain home to you, children of Altana."
 25: 0x013C [0x23] WAIT_FOR_DIALOG_INTERACTION
 26: 0x013D [0x01] GOTO 0x0148
 27: 0x0140 [0x2B] Areuhat (ID: 17162622/0x0105E17E) [11809*]:
    → "So this is one of these "cities" I've heard so much of, is it? Hmph. Seems to be nothing more than a mass of people crowded into a noisy, confined space."
 28: 0x0147 [0x23] WAIT_FOR_DIALOG_INTERACTION

SUBROUTINE_0148:
 29: 0x0148 [0x01] GOTO 0x01A1
 30: 0x014B [0x02] IF !(ExtData[1]->WorkLocal[1] == 2*) GOTO 0x0176
 31: 0x0153 [0x02] IF !(ExtData[1]->WorkLocal[2] == 2*) GOTO 0x016B
 32: 0x015B [0x03] Work_Zone[2] = 1*
 33: 0x0160 [0x2B] Areuhat (ID: 17162622/0x0105E17E) [11810*]:
    → "I have entrusted the care of my mountain home to you, children of Altana."
 34: 0x0167 [0x23] WAIT_FOR_DIALOG_INTERACTION
 35: 0x0168 [0x01] GOTO 0x0173
 36: 0x016B [0x2B] Areuhat (ID: 17162622/0x0105E17E) [11809*]:
    → "So this is one of these "cities" I've heard so much of, is it? Hmph. Seems to be nothing more than a mass of people crowded into a noisy, confined space."
 37: 0x0172 [0x23] WAIT_FOR_DIALOG_INTERACTION

SUBROUTINE_0173:
 38: 0x0173 [0x01] GOTO 0x01A1
 39: 0x0176 [0x02] IF !(ExtData[1]->WorkLocal[1] == 3*) GOTO 0x01A1
 40: 0x017E [0x02] IF !(ExtData[1]->WorkLocal[2] == 3*) GOTO 0x0196
 41: 0x0186 [0x03] Work_Zone[2] = 2*
 42: 0x018B [0x2B] Areuhat (ID: 17162622/0x0105E17E) [11810*]:
    → "I have entrusted the care of my mountain home to you, children of Altana."
 43: 0x0192 [0x23] WAIT_FOR_DIALOG_INTERACTION
 44: 0x0193 [0x01] GOTO 0x019E
 45: 0x0196 [0x2B] Areuhat (ID: 17162622/0x0105E17E) [11809*]:
    → "So this is one of these "cities" I've heard so much of, is it? Hmph. Seems to be nothing more than a mass of people crowded into a noisy, confined space."
 46: 0x019D [0x23] WAIT_FOR_DIALOG_INTERACTION

SUBROUTINE_019E:
 47: 0x019E [0x01] GOTO 0x01A1

SUBROUTINE_01A1:
 48: 0x01A1 [0x01] GOTO 0x0243
 49: 0x01A4 [0x02] IF !(ExtData[1]->WorkLocal[3] == 2*) GOTO 0x0243
 50: 0x01AC [0x02] IF !(ExtData[1]->WorkLocal[1] == 0*) GOTO 0x01BF
 51: 0x01B4 [0x2B] Areuhat (ID: 17162622/0x0105E17E) [11809*]:
    → "So this is one of these "cities" I've heard so much of, is it? Hmph. Seems to be nothing more than a mass of people crowded into a noisy, confined space."
 52: 0x01BB [0x23] WAIT_FOR_DIALOG_INTERACTION
 53: 0x01BC [0x01] GOTO 0x0240
 54: 0x01BF [0x02] IF !(ExtData[1]->WorkLocal[1] == 1*) GOTO 0x01EA
 55: 0x01C7 [0x03] Work_Zone[2] = 0*
 56: 0x01CC [0x02] IF !(ExtData[1]->WorkLocal[2] == 1*) GOTO 0x01DF
 57: 0x01D4 [0x2B] Areuhat (ID: 17162622/0x0105E17E) [11812*]:
    → "It has been ages since the races of Vana'diel began to worship the line of the wyrms. But you seem to be...different, somehow. Know this, adventurer. That those who pay proper homage to the wyrms will not go unrewarded."
 58: 0x01DB [0x23] WAIT_FOR_DIALOG_INTERACTION
 59: 0x01DC [0x01] GOTO 0x01E7
 60: 0x01DF [0x2B] Areuhat (ID: 17162622/0x0105E17E) [11811*]:
    → "And what is this? "medicine," you say? Hmph, most novel. I suppose you creatures do have their redeeming qualities."
 61: 0x01E6 [0x23] WAIT_FOR_DIALOG_INTERACTION

SUBROUTINE_01E7:
 62: 0x01E7 [0x01] GOTO 0x0240
 63: 0x01EA [0x02] IF !(ExtData[1]->WorkLocal[1] == 2*) GOTO 0x0215
 64: 0x01F2 [0x03] Work_Zone[2] = 1*
 65: 0x01F7 [0x02] IF !(ExtData[1]->WorkLocal[2] == 2*) GOTO 0x020A
 66: 0x01FF [0x2B] Areuhat (ID: 17162622/0x0105E17E) [11812*]:
    → "It has been ages since the races of Vana'diel began to worship the line of the wyrms. But you seem to be...different, somehow. Know this, adventurer. That those who pay proper homage to the wyrms will not go unrewarded."
 67: 0x0206 [0x23] WAIT_FOR_DIALOG_INTERACTION
 68: 0x0207 [0x01] GOTO 0x0212
 69: 0x020A [0x2B] Areuhat (ID: 17162622/0x0105E17E) [11811*]:
    → "And what is this? "medicine," you say? Hmph, most novel. I suppose you creatures do have their redeeming qualities."
 70: 0x0211 [0x23] WAIT_FOR_DIALOG_INTERACTION

SUBROUTINE_0212:
 71: 0x0212 [0x01] GOTO 0x0240
 72: 0x0215 [0x02] IF !(ExtData[1]->WorkLocal[1] == 3*) GOTO 0x0240
 73: 0x021D [0x03] Work_Zone[2] = 2*
 74: 0x0222 [0x02] IF !(ExtData[1]->WorkLocal[2] == 3*) GOTO 0x0235
 75: 0x022A [0x2B] Areuhat (ID: 17162622/0x0105E17E) [11812*]:
    → "It has been ages since the races of Vana'diel began to worship the line of the wyrms. But you seem to be...different, somehow. Know this, adventurer. That those who pay proper homage to the wyrms will not go unrewarded."
 76: 0x0231 [0x23] WAIT_FOR_DIALOG_INTERACTION
 77: 0x0232 [0x01] GOTO 0x023D
 78: 0x0235 [0x2B] Areuhat (ID: 17162622/0x0105E17E) [11811*]:
    → "And what is this? "medicine," you say? Hmph, most novel. I suppose you creatures do have their redeeming qualities."
 79: 0x023C [0x23] WAIT_FOR_DIALOG_INTERACTION

SUBROUTINE_023D:
 80: 0x023D [0x01] GOTO 0x0240

SUBROUTINE_0240:
 81: 0x0240 [0x01] GOTO 0x0243

SUBROUTINE_0243:
 82: 0x0243 [0x01] GOTO 0x02AE
 83: 0x0246 [0x02] IF !(ExtData[1]->WorkLocal[4] == 1*) GOTO 0x026E
 84: 0x024E [0x03] Work_Zone[2] = 17397*
 85: 0x0253 [0x2B] Areuhat (ID: 17162622/0x0105E17E) [11813*]:
    → "Is this... Could it be... $0!? For me!?"
 86: 0x025A [0x23] WAIT_FOR_DIALOG_INTERACTION
 87: 0x025B [0x2B] Areuhat (ID: 17162622/0x0105E17E) [11814*]:
    → "It would seem these lands may still hold some allure yet. Very well, I accept your offering."
 88: 0x0262 [0x23] WAIT_FOR_DIALOG_INTERACTION
 89: 0x0263 [0x2B] Areuhat (ID: 17162622/0x0105E17E) [11815*]:
    → "You are a truly righteous soul, <Player>. That you are willing to continue to show such devoutness even now, when not called for... It moves me, deeply. You have earned my respect, and my hand. And you shall have them both!"
 90: 0x026A [0x23] WAIT_FOR_DIALOG_INTERACTION
 91: 0x026B [0x01] GOTO 0x02AE
 92: 0x026E [0x02] IF !(ExtData[1]->WorkLocal[4] == 2*) GOTO 0x028E
 93: 0x0276 [0x03] Work_Zone[2] = 17397*
 94: 0x027B [0x2B] Areuhat (ID: 17162622/0x0105E17E) [11813*]:
    → "Is this... Could it be... $0!? For me!?"
 95: 0x0282 [0x23] WAIT_FOR_DIALOG_INTERACTION
 96: 0x0283 [0x2B] Areuhat (ID: 17162622/0x0105E17E) [11814*]:
    → "It would seem these lands may still hold some allure yet. Very well, I accept your offering."
 97: 0x028A [0x23] WAIT_FOR_DIALOG_INTERACTION
 98: 0x028B [0x01] GOTO 0x02AE
 99: 0x028E [0x02] IF !(ExtData[1]->WorkLocal[4] == 3*) GOTO 0x02AE
100: 0x0296 [0x03] Work_Zone[2] = 17001*
101: 0x029B [0x2B] Areuhat (ID: 17162622/0x0105E17E) [11816*]:
    → "Hm, what is this? You come bearing $0? Hmph, I should have expected as much."
102: 0x02A2 [0x23] WAIT_FOR_DIALOG_INTERACTION
103: 0x02A3 [0x2B] Areuhat (ID: 17162622/0x0105E17E) [11817*]:
    → "Hear me well, mortal, for so easily are your kind distracted by such superficialities. Know this, that larger does not always equate with better. And that sometimes, the best of things come in the smallest of sizes."
104: 0x02AA [0x23] WAIT_FOR_DIALOG_INTERACTION
105: 0x02AB [0x01] GOTO 0x02AE

SUBROUTINE_02AE:
106: 0x02AE [0x20] SET_CLI_EVENT_UC_FLAG: Unlock player control
107: 0x02B0 [0x21] END_EVENT
108: 0x02B1 [0x00] END_REQSTACK()
```

### Event 65535.8

#### Metadata

| Field        | Value   |
|--------------|---------|
| Entrypoint   | 0x02B2  |
| Data Size    | 6 bytes |
| Instructions | 2       |

```
      00 01 02 03 04 05 06 07  08 09 0A 0B 0C 0D 0E 0F
      -- -- -- -- -- -- -- --  -- -- -- -- -- -- -- --
02B0:       03 02 10 07 7F 00                             ......        
```

#### Opcodes

```
  0: 0x02B2 [0x03] Work_Zone[2] = Entity->Race
  1: 0x02B7 [0x00] END_REQSTACK()
```

### Event 65535.9

#### Metadata

| Field        | Value   |
|--------------|---------|
| Entrypoint   | 0x02B8  |
| Data Size    | 6 bytes |
| Instructions | 2       |

```
      00 01 02 03 04 05 06 07  08 09 0A 0B 0C 0D 0E 0F
      -- -- -- -- -- -- -- --  -- -- -- -- -- -- -- --
02B0:                          03 02 10 0B 7F 00                ......  
```

#### Opcodes

```
  0: 0x02B8 [0x03] Work_Zone[2] = (Entity->Render.Flags01 >> 25) & 1
  1: 0x02BD [0x00] END_REQSTACK()
```

### Event 65535.10

#### Metadata

| Field        | Value    |
|--------------|----------|
| Entrypoint   | 0x02BE   |
| Data Size    | 11 bytes |
| Instructions | 3        |

```
      00 01 02 03 04 05 06 07  08 09 0A 0B 0C 0D 0E 0F
      -- -- -- -- -- -- -- --  -- -- -- -- -- -- -- --
02B0:                                            1F 00                ..
02C0: 18 80 19 80 1A 80 1F 01  00                       .........       
```

#### Opcodes

```
  0: 0x02BE [0x1F] MOVE_ENTITY: EventEntity moves to X=119.787*, Z=44.303*, Y=-1.999*
  1: 0x02C6 [0x1F] MOVE_ENTITY: Update entity position (mode=1)
  2: 0x02C8 [0x00] END_REQSTACK()
```

### Event 65535.11

#### Metadata

| Field        | Value    |
|--------------|----------|
| Entrypoint   | 0x02C9   |
| Data Size    | 15 bytes |
| Instructions | 5        |

```
      00 01 02 03 04 05 06 07  08 09 0A 0B 0C 0D 0E 0F
      -- -- -- -- -- -- -- --  -- -- -- -- -- -- -- --
02C0:                             32 08 80 1F 00 1B 80           2......
02D0: 1C 80 1D 80 1F 01 6F 00                           ......o.        
```

#### Opcodes

```
  0: 0x02C9 [0x32] ExtData[1]->MainSpeed = 13* * 0.1
  1: 0x02CC [0x1F] MOVE_ENTITY: EventEntity moves to X=5.697*, Z=-162.926*, Y=-4.250*
  2: 0x02D4 [0x1F] MOVE_ENTITY: Update entity position (mode=1)
  3: 0x02D6 [0x6F] WAIT_FRAME_DELAY: Yield until WaitTime reaches zero
  4: 0x02D7 [0x00] END_REQSTACK()
```

### Event 65535.12

#### Metadata

| Field        | Value    |
|--------------|----------|
| Entrypoint   | 0x02D8   |
| Data Size    | 20 bytes |
| Instructions | 6        |

```
      00 01 02 03 04 05 06 07  08 09 0A 0B 0C 0D 0E 0F
      -- -- -- -- -- -- -- --  -- -- -- -- -- -- -- --
02D0:                          32 08 80 1F 00 1E 80 1F          2.......
02E0: 80 20 80 1F 01 6F 1E 05  E2 05 01 00              . ...o......    
```

#### Opcodes

```
  0: 0x02D8 [0x32] ExtData[1]->MainSpeed = 13* * 0.1
  1: 0x02DB [0x1F] MOVE_ENTITY: EventEntity moves to X=9.044*, Z=-163.309*, Y=-4.249*
  2: 0x02E3 [0x1F] MOVE_ENTITY: Update entity position (mode=1)
  3: 0x02E5 [0x6F] WAIT_FRAME_DELAY: Yield until WaitTime reaches zero
  4: 0x02E6 [0x1E] EventEntity looks at Dantie-Corantie (ID: 17162757/0x0105E205) and starts talking
  5: 0x02EB [0x00] END_REQSTACK()
```

### Event 65535.13

#### Metadata

| Field        | Value    |
|--------------|----------|
| Entrypoint   | 0x02EC   |
| Data Size    | 15 bytes |
| Instructions | 5        |

```
      00 01 02 03 04 05 06 07  08 09 0A 0B 0C 0D 0E 0F
      -- -- -- -- -- -- -- --  -- -- -- -- -- -- -- --
02E0:                                      32 08 80 1F              2...
02F0: 00 21 80 22 80 23 80 1F  01 6F 00                 .!.".#...o.     
```

#### Opcodes

```
  0: 0x02EC [0x32] ExtData[1]->MainSpeed = 13* * 0.1
  1: 0x02EF [0x1F] MOVE_ENTITY: EventEntity moves to X=2.450*, Z=3.034*, Y=-0.011*
  2: 0x02F7 [0x1F] MOVE_ENTITY: Update entity position (mode=1)
  3: 0x02F9 [0x6F] WAIT_FRAME_DELAY: Yield until WaitTime reaches zero
  4: 0x02FA [0x00] END_REQSTACK()
```

### Event 65535.14

#### Metadata

| Field        | Value    |
|--------------|----------|
| Entrypoint   | 0x02FB   |
| Data Size    | 20 bytes |
| Instructions | 6        |

```
      00 01 02 03 04 05 06 07  08 09 0A 0B 0C 0D 0E 0F
      -- -- -- -- -- -- -- --  -- -- -- -- -- -- -- --
02F0:                                   32 08 80 1F 00             2....
0300: 24 80 25 80 26 80 1F 01  6F 1E 06 E2 05 01 00     $.%.&...o...... 
```

#### Opcodes

```
  0: 0x02FB [0x32] ExtData[1]->MainSpeed = 13* * 0.1
  1: 0x02FE [0x1F] MOVE_ENTITY: EventEntity moves to X=1.715*, Z=16.586*, Y=-0.999*
  2: 0x0306 [0x1F] MOVE_ENTITY: Update entity position (mode=1)
  3: 0x0308 [0x6F] WAIT_FRAME_DELAY: Yield until WaitTime reaches zero
  4: 0x0309 [0x1E] EventEntity looks at Ajido-Marujido (ID: 17162758/0x0105E206) and starts talking
  5: 0x030E [0x00] END_REQSTACK()
```

### Event 65535.15

#### Metadata

| Field        | Value    |
|--------------|----------|
| Entrypoint   | 0x030F   |
| Data Size    | 20 bytes |
| Instructions | 6        |

```
      00 01 02 03 04 05 06 07  08 09 0A 0B 0C 0D 0E 0F
      -- -- -- -- -- -- -- --  -- -- -- -- -- -- -- --
0300:                                               32                 2
0310: 08 80 1F 00 27 80 28 80  29 80 1F 01 6F 1E 06 E2  ....'.(.)...o...
0320: 05 01 00                                          ...             
```

#### Opcodes

```
  0: 0x030F [0x32] ExtData[1]->MainSpeed = 13* * 0.1
  1: 0x0312 [0x1F] MOVE_ENTITY: EventEntity moves to X=-62.170*, Z=101.888*, Y=-5.250*
  2: 0x031A [0x1F] MOVE_ENTITY: Update entity position (mode=1)
  3: 0x031C [0x6F] WAIT_FRAME_DELAY: Yield until WaitTime reaches zero
  4: 0x031D [0x1E] EventEntity looks at Ajido-Marujido (ID: 17162758/0x0105E206) and starts talking
  5: 0x0322 [0x00] END_REQSTACK()
```

### Event 65535.16

#### Metadata

| Field        | Value    |
|--------------|----------|
| Entrypoint   | 0x0323   |
| Data Size    | 15 bytes |
| Instructions | 5        |

```
      00 01 02 03 04 05 06 07  08 09 0A 0B 0C 0D 0E 0F
      -- -- -- -- -- -- -- --  -- -- -- -- -- -- -- --
0320:          32 08 80 1F 00  2A 80 2B 80 23 80 1F 01     2....*.+.#...
0330: 6F 00                                             o.              
```

#### Opcodes

```
  0: 0x0323 [0x32] ExtData[1]->MainSpeed = 13* * 0.1
  1: 0x0326 [0x1F] MOVE_ENTITY: EventEntity moves to X=1.051*, Z=-2.511*, Y=-0.011*
  2: 0x032E [0x1F] MOVE_ENTITY: Update entity position (mode=1)
  3: 0x0330 [0x6F] WAIT_FRAME_DELAY: Yield until WaitTime reaches zero
  4: 0x0331 [0x00] END_REQSTACK()
```

### Event 65535.17

#### Metadata

| Field        | Value    |
|--------------|----------|
| Entrypoint   | 0x0332   |
| Data Size    | 37 bytes |
| Instructions | 11       |

```
      00 01 02 03 04 05 06 07  08 09 0A 0B 0C 0D 0E 0F
      -- -- -- -- -- -- -- --  -- -- -- -- -- -- -- --
0330:       32 2C 80 1F 00 2D  80 2E 80 29 80 1F 01 6F    2,...-...)...o
0340: 1F 00 2F 80 30 80 31 80  1F 01 6F 1F 00 32 80 33  ../.0.1...o..2.3
0350: 80 34 80 1F 01 6F 00                              .4...o.         
```

#### Opcodes

```
  0: 0x0332 [0x32] ExtData[1]->MainSpeed = 36* * 0.1
  1: 0x0335 [0x1F] MOVE_ENTITY: EventEntity moves to X=-31.528*, Z=4.877*, Y=-5.250*
  2: 0x033D [0x1F] MOVE_ENTITY: Update entity position (mode=1)
  3: 0x033F [0x6F] WAIT_FRAME_DELAY: Yield until WaitTime reaches zero
  4: 0x0340 [0x1F] MOVE_ENTITY: EventEntity moves to X=-31.268*, Z=-8.562*, Y=-8.000*
  5: 0x0348 [0x1F] MOVE_ENTITY: Update entity position (mode=1)
  6: 0x034A [0x6F] WAIT_FRAME_DELAY: Yield until WaitTime reaches zero
  7: 0x034B [0x1F] MOVE_ENTITY: EventEntity moves to X=-26.942*, Z=-18.449*, Y=-9.999*
  8: 0x0353 [0x1F] MOVE_ENTITY: Update entity position (mode=1)
  9: 0x0355 [0x6F] WAIT_FRAME_DELAY: Yield until WaitTime reaches zero
 10: 0x0356 [0x00] END_REQSTACK()
```

### Event 65535.18

#### Metadata

| Field        | Value    |
|--------------|----------|
| Entrypoint   | 0x0357   |
| Data Size    | 29 bytes |
| Instructions | 9        |

```
      00 01 02 03 04 05 06 07  08 09 0A 0B 0C 0D 0E 0F
      -- -- -- -- -- -- -- --  -- -- -- -- -- -- -- --
0350:                      32  08 80 1F 00 35 80 36 80         2....5.6.
0360: 37 80 1F 01 6F 1F 00 38  80 39 80 3A 80 1F 01 6F  7...o..8.9.:...o
0370: 39 3B 80 00                                       9;..            
```

#### Opcodes

```
  0: 0x0357 [0x32] ExtData[1]->MainSpeed = 13* * 0.1
  1: 0x035A [0x1F] MOVE_ENTITY: EventEntity moves to X=29.677*, Z=-8.342*, Y=-24.500*
  2: 0x0362 [0x1F] MOVE_ENTITY: Update entity position (mode=1)
  3: 0x0364 [0x6F] WAIT_FRAME_DELAY: Yield until WaitTime reaches zero
  4: 0x0365 [0x1F] MOVE_ENTITY: EventEntity moves to X=29.580*, Z=-4.360*, Y=-25.250*
  5: 0x036D [0x1F] MOVE_ENTITY: Update entity position (mode=1)
  6: 0x036F [0x6F] WAIT_FRAME_DELAY: Yield until WaitTime reaches zero
  7: 0x0370 [0x39] SET_ENTITY_DIRECTION(direction=13.2°*)
  8: 0x0373 [0x00] END_REQSTACK()
```

### Event 65535.19

#### Metadata

| Field        | Value    |
|--------------|----------|
| Entrypoint   | 0x0374   |
| Data Size    | 15 bytes |
| Instructions | 5        |

```
      00 01 02 03 04 05 06 07  08 09 0A 0B 0C 0D 0E 0F
      -- -- -- -- -- -- -- --  -- -- -- -- -- -- -- --
0370:             32 08 80 1F  00 3C 80 3D 80 3E 80 1F      2....<.=.>..
0380: 01 6F 00                                          .o.             
```

#### Opcodes

```
  0: 0x0374 [0x32] ExtData[1]->MainSpeed = 13* * 0.1
  1: 0x0377 [0x1F] MOVE_ENTITY: EventEntity moves to X=126.863*, Z=53.371*, Y=-1.846*
  2: 0x037F [0x1F] MOVE_ENTITY: Update entity position (mode=1)
  3: 0x0381 [0x6F] WAIT_FRAME_DELAY: Yield until WaitTime reaches zero
  4: 0x0382 [0x00] END_REQSTACK()
```

### Event 65535.20

#### Metadata

| Field        | Value    |
|--------------|----------|
| Entrypoint   | 0x0383   |
| Data Size    | 15 bytes |
| Instructions | 5        |

```
      00 01 02 03 04 05 06 07  08 09 0A 0B 0C 0D 0E 0F
      -- -- -- -- -- -- -- --  -- -- -- -- -- -- -- --
0380:          32 3F 80 1F 00  40 80 41 80 42 80 1F 01     2?...@.A.B...
0390: 6F 00                                             o.              
```

#### Opcodes

```
  0: 0x0383 [0x32] ExtData[1]->MainSpeed = 40* * 0.1
  1: 0x0386 [0x1F] MOVE_ENTITY: EventEntity moves to X=121.965*, Z=51.268*, Y=-1.765*
  2: 0x038E [0x1F] MOVE_ENTITY: Update entity position (mode=1)
  3: 0x0390 [0x6F] WAIT_FRAME_DELAY: Yield until WaitTime reaches zero
  4: 0x0391 [0x00] END_REQSTACK()
```

### Event 65535.21

#### Metadata

| Field        | Value    |
|--------------|----------|
| Entrypoint   | 0x0392   |
| Data Size    | 20 bytes |
| Instructions | 6        |

```
      00 01 02 03 04 05 06 07  08 09 0A 0B 0C 0D 0E 0F
      -- -- -- -- -- -- -- --  -- -- -- -- -- -- -- --
0390:       32 3F 80 1F 00 43  80 44 80 45 80 1F 01 6F    2?...C.D.E...o
03A0: 1E 09 E2 05 01 00                                 ......          
```

#### Opcodes

```
  0: 0x0392 [0x32] ExtData[1]->MainSpeed = 40* * 0.1
  1: 0x0395 [0x1F] MOVE_ENTITY: EventEntity moves to X=-38.859*, Z=225.402*, Y=-4.930*
  2: 0x039D [0x1F] MOVE_ENTITY: Update entity position (mode=1)
  3: 0x039F [0x6F] WAIT_FRAME_DELAY: Yield until WaitTime reaches zero
  4: 0x03A0 [0x1E] EventEntity looks at Koru-Moru (ID: 17162761/0x0105E209) and starts talking
  5: 0x03A5 [0x00] END_REQSTACK()
```

### Event 65535.22

#### Metadata

| Field        | Value   |
|--------------|---------|
| Entrypoint   | 0x03A6  |
| Data Size    | 7 bytes |
| Instructions | 3       |

```
      00 01 02 03 04 05 06 07  08 09 0A 0B 0C 0D 0E 0F
      -- -- -- -- -- -- -- --  -- -- -- -- -- -- -- --
03A0:                   AB 03  AC 01 0A 80 00                 .......   
```

#### Opcodes

```
  0: 0x03A6 [0xAB] EventEntity->Render.Flags0 ^= 0x20000 // Toggle bit 17
  1: 0x03A8 [0xAC] EventEntity->StatusEvent = 1*
  2: 0x03AC [0x00] END_REQSTACK()
```

### Event 65535.23

#### Metadata

| Field        | Value   |
|--------------|---------|
| Entrypoint   | 0x03AD  |
| Data Size    | 7 bytes |
| Instructions | 3       |

```
      00 01 02 03 04 05 06 07  08 09 0A 0B 0C 0D 0E 0F
      -- -- -- -- -- -- -- --  -- -- -- -- -- -- -- --
03A0:                                         AC 01 02               ...
03B0: 80 AB 04 00                                       ....            
```

#### Opcodes

```
  0: 0x03AD [0xAC] EventEntity->StatusEvent = 0*
  1: 0x03B1 [0xAB] EventEntity->Render.Flags0 |= 0x40000 // Set bit 18
  2: 0x03B3 [0x00] END_REQSTACK()
```

### Event 65535.24

#### Metadata

| Field        | Value    |
|--------------|----------|
| Entrypoint   | 0x03B4   |
| Data Size    | 15 bytes |
| Instructions | 5        |

```
      00 01 02 03 04 05 06 07  08 09 0A 0B 0C 0D 0E 0F
      -- -- -- -- -- -- -- --  -- -- -- -- -- -- -- --
03B0:             32 08 80 1F  00 46 80 47 80 48 80 1F      2....F.G.H..
03C0: 01 6F 00                                          .o.             
```

#### Opcodes

```
  0: 0x03B4 [0x32] ExtData[1]->MainSpeed = 13* * 0.1
  1: 0x03B7 [0x1F] MOVE_ENTITY: EventEntity moves to X=-39.303*, Z=220.839*, Y=-4.958*
  2: 0x03BF [0x1F] MOVE_ENTITY: Update entity position (mode=1)
  3: 0x03C1 [0x6F] WAIT_FRAME_DELAY: Yield until WaitTime reaches zero
  4: 0x03C2 [0x00] END_REQSTACK()
```

### Event 65535.25

#### Metadata

| Field        | Value    |
|--------------|----------|
| Entrypoint   | 0x03C3   |
| Data Size    | 15 bytes |
| Instructions | 5        |

```
      00 01 02 03 04 05 06 07  08 09 0A 0B 0C 0D 0E 0F
      -- -- -- -- -- -- -- --  -- -- -- -- -- -- -- --
03C0:          32 08 80 1F 00  49 80 4A 80 4B 80 1F 01     2....I.J.K...
03D0: 6F 00                                             o.              
```

#### Opcodes

```
  0: 0x03C3 [0x32] ExtData[1]->MainSpeed = 13* * 0.1
  1: 0x03C6 [0x1F] MOVE_ENTITY: EventEntity moves to X=-39.374*, Z=210.794*, Y=-5.081*
  2: 0x03CE [0x1F] MOVE_ENTITY: Update entity position (mode=1)
  3: 0x03D0 [0x6F] WAIT_FRAME_DELAY: Yield until WaitTime reaches zero
  4: 0x03D1 [0x00] END_REQSTACK()
```

### Event 65535.26

#### Metadata

| Field        | Value    |
|--------------|----------|
| Entrypoint   | 0x03D2   |
| Data Size    | 29 bytes |
| Instructions | 7        |

```
      00 01 02 03 04 05 06 07  08 09 0A 0B 0C 0D 0E 0F
      -- -- -- -- -- -- -- --  -- -- -- -- -- -- -- --
03D0:       37 4C 80 4D 80 26  80 4E 80 32 08 80 1F 00    7L.M.&.N.2....
03E0: 4F 80 50 80 26 80 1F 01  6F 1E 0C E2 05 01 00     O.P.&...o...... 
```

#### Opcodes

```
  0: 0x03D2 [0x37] UPDATE_EVENT_POSITION_AND_DIR: x=-3.330*, z=25.796*, y=-0.999*, direction=352.8°*
  1: 0x03DB [0x32] ExtData[1]->MainSpeed = 13* * 0.1
  2: 0x03DE [0x1F] MOVE_ENTITY: EventEntity moves to X=-3.585*, Z=29.467*, Y=-0.999*
  3: 0x03E6 [0x1F] MOVE_ENTITY: Update entity position (mode=1)
  4: 0x03E8 [0x6F] WAIT_FRAME_DELAY: Yield until WaitTime reaches zero
  5: 0x03E9 [0x1E] EventEntity looks at Haja Zhwan (ID: 17162764/0x0105E20C) and starts talking
  6: 0x03EE [0x00] END_REQSTACK()
```

### Event 65535.27

#### Metadata

| Field        | Value    |
|--------------|----------|
| Entrypoint   | 0x03EF   |
| Data Size    | 20 bytes |
| Instructions | 6        |

```
      00 01 02 03 04 05 06 07  08 09 0A 0B 0C 0D 0E 0F
      -- -- -- -- -- -- -- --  -- -- -- -- -- -- -- --
03E0:                                               32                 2
03F0: 08 80 1F 00 51 80 52 80  26 80 1F 01 6F 1E 0C E2  ....Q.R.&...o...
0400: 05 01 00                                          ...             
```

#### Opcodes

```
  0: 0x03EF [0x32] ExtData[1]->MainSpeed = 13* * 0.1
  1: 0x03F2 [0x1F] MOVE_ENTITY: EventEntity moves to X=-4.190*, Z=31.089*, Y=-0.999*
  2: 0x03FA [0x1F] MOVE_ENTITY: Update entity position (mode=1)
  3: 0x03FC [0x6F] WAIT_FRAME_DELAY: Yield until WaitTime reaches zero
  4: 0x03FD [0x1E] EventEntity looks at Haja Zhwan (ID: 17162764/0x0105E20C) and starts talking
  5: 0x0402 [0x00] END_REQSTACK()
```

### Event 65535.28

#### Metadata

| Field        | Value    |
|--------------|----------|
| Entrypoint   | 0x0403   |
| Data Size    | 11 bytes |
| Instructions | 3        |

```
      00 01 02 03 04 05 06 07  08 09 0A 0B 0C 0D 0E 0F
      -- -- -- -- -- -- -- --  -- -- -- -- -- -- -- --
0400:          1F 00 53 80 54  80 55 80 1F 01 00           ..S.T.U....  
```

#### Opcodes

```
  0: 0x0403 [0x1F] MOVE_ENTITY: EventEntity moves to X=-39.994*, Z=224.084*, Y=-5.001*
  1: 0x040B [0x1F] MOVE_ENTITY: Update entity position (mode=1)
  2: 0x040D [0x00] END_REQSTACK()
```

### Event 65535.29

#### Metadata

| Field        | Value    |
|--------------|----------|
| Entrypoint   | 0x040E   |
| Data Size    | 11 bytes |
| Instructions | 3        |

```
      00 01 02 03 04 05 06 07  08 09 0A 0B 0C 0D 0E 0F
      -- -- -- -- -- -- -- --  -- -- -- -- -- -- -- --
0400:                                            1F 00                ..
0410: 56 80 57 80 58 80 1F 01  00                       V.W.X....       
```

#### Opcodes

```
  0: 0x040E [0x1F] MOVE_ENTITY: EventEntity moves to X=-43.780*, Z=196.976*, Y=-5.481*
  1: 0x0416 [0x1F] MOVE_ENTITY: Update entity position (mode=1)
  2: 0x0418 [0x00] END_REQSTACK()
```

### Event 65535.30

#### Metadata

| Field        | Value    |
|--------------|----------|
| Entrypoint   | 0x0419   |
| Data Size    | 17 bytes |
| Instructions | 5        |

```
      00 01 02 03 04 05 06 07  08 09 0A 0B 0C 0D 0E 0F
      -- -- -- -- -- -- -- --  -- -- -- -- -- -- -- --
0410:                             1F 00 59 80 5A 80 5B           ..Y.Z.[
0420: 80 1F 01 6F 1E 08 E2 05  01 00                    ...o......      
```

#### Opcodes

```
  0: 0x0419 [0x1F] MOVE_ENTITY: EventEntity moves to X=-39.131*, Z=218.670*, Y=-4.985*
  1: 0x0421 [0x1F] MOVE_ENTITY: Update entity position (mode=1)
  2: 0x0423 [0x6F] WAIT_FRAME_DELAY: Yield until WaitTime reaches zero
  3: 0x0424 [0x1E] EventEntity looks at Romaa Mihgo (ID: 17162760/0x0105E208) and starts talking
  4: 0x0429 [0x00] END_REQSTACK()
```

### Event 65535.31

#### Metadata

| Field        | Value    |
|--------------|----------|
| Entrypoint   | 0x042A   |
| Data Size    | 11 bytes |
| Instructions | 3        |

```
      00 01 02 03 04 05 06 07  08 09 0A 0B 0C 0D 0E 0F
      -- -- -- -- -- -- -- --  -- -- -- -- -- -- -- --
0420:                                1F 00 5C 80 5D 80            ..\.].
0430: 5E 80 1F 01 00                                    ^....           
```

#### Opcodes

```
  0: 0x042A [0x1F] MOVE_ENTITY: EventEntity moves to X=30.280*, Z=0.433*, Y=-25.999*
  1: 0x0432 [0x1F] MOVE_ENTITY: Update entity position (mode=1)
  2: 0x0434 [0x00] END_REQSTACK()
```

### Event 65535.32

#### Metadata

| Field        | Value    |
|--------------|----------|
| Entrypoint   | 0x0435   |
| Data Size    | 21 bytes |
| Instructions | 5        |

```
      00 01 02 03 04 05 06 07  08 09 0A 0B 0C 0D 0E 0F
      -- -- -- -- -- -- -- --  -- -- -- -- -- -- -- --
0430:                1F 00 5F  80 60 80 61 80 1F 01 6F       .._.`.a...o
0440: 4A F0 FF FF 7F 18 E2 05  01 00                    J.........      
```

#### Opcodes

```
  0: 0x0435 [0x1F] MOVE_ENTITY: EventEntity moves to X=-1.483*, Z=4.046*, Y=-25.500*
  1: 0x043D [0x1F] MOVE_ENTITY: Update entity position (mode=1)
  2: 0x043F [0x6F] WAIT_FRAME_DELAY: Yield until WaitTime reaches zero
  3: 0x0440 [0x4A] LocalPlayer looks at Robel-Akbel (ID: 17162776/0x0105E218)
  4: 0x0449 [0x00] END_REQSTACK()
```

### Event 65535.33

#### Metadata

| Field        | Value    |
|--------------|----------|
| Entrypoint   | 0x044A   |
| Data Size    | 11 bytes |
| Instructions | 3        |

```
      00 01 02 03 04 05 06 07  08 09 0A 0B 0C 0D 0E 0F
      -- -- -- -- -- -- -- --  -- -- -- -- -- -- -- --
0440:                                1F 00 62 80 63 80            ..b.c.
0450: 64 80 1F 01 00                                    d....           
```

#### Opcodes

```
  0: 0x044A [0x1F] MOVE_ENTITY: EventEntity moves to X=1.595*, Z=3.480*, Y=-25.499*
  1: 0x0452 [0x1F] MOVE_ENTITY: Update entity position (mode=1)
  2: 0x0454 [0x00] END_REQSTACK()
```

### Event 65535.34

#### Metadata

| Field        | Value    |
|--------------|----------|
| Entrypoint   | 0x0455   |
| Data Size    | 11 bytes |
| Instructions | 3        |

```
      00 01 02 03 04 05 06 07  08 09 0A 0B 0C 0D 0E 0F
      -- -- -- -- -- -- -- --  -- -- -- -- -- -- -- --
0450:                1F 00 65  80 66 80 67 80 1F 01 00       ..e.f.g....
```

#### Opcodes

```
  0: 0x0455 [0x1F] MOVE_ENTITY: EventEntity moves to X=14.048*, Z=-2.853*, Y=0.749*
  1: 0x045D [0x1F] MOVE_ENTITY: Update entity position (mode=1)
  2: 0x045F [0x00] END_REQSTACK()
```

### Event 65535.35

#### Metadata

| Field        | Value    |
|--------------|----------|
| Entrypoint   | 0x0460   |
| Data Size    | 34 bytes |
| Instructions | 8        |

```
      00 01 02 03 04 05 06 07  08 09 0A 0B 0C 0D 0E 0F
      -- -- -- -- -- -- -- --  -- -- -- -- -- -- -- --
0460: 1C 68 80 4A F0 FF FF 7F  2B E2 05 01 6F 76 F0 FF  .h.J....+...ov..
0470: FF 7F 1C 0A 80 6E F0 FF  FF 7F 69 80 99 F0 FF FF  .....n....i.....
0480: 7F 00                                             ..              
```

#### Opcodes

```
  0: 0x0460 [0x1C] WAIT(45* ticks)
  1: 0x0463 [0x4A] LocalPlayer looks at Mihl Pakorhma (ID: 17162795/0x0105E22B)
  2: 0x046C [0x6F] WAIT_FRAME_DELAY: Yield until WaitTime reaches zero
  3: 0x046D [0x76] CHECK_ENTITY_RENDER_FLAGS: Wait until LocalPlayer Render.Flags0 and Render.Flags3 conditions are met
  4: 0x0472 [0x1C] WAIT(1* ticks)
  5: 0x0475 [0x6E] LocalPlayer uses emote 38*
  6: 0x047C [0x99] Wait for LocalPlayer animation to complete
  7: 0x0481 [0x00] END_REQSTACK()
```

### Event 65535.36

#### Metadata

| Field        | Value    |
|--------------|----------|
| Entrypoint   | 0x0482   |
| Data Size    | 24 bytes |
| Instructions | 4        |

```
      00 01 02 03 04 05 06 07  08 09 0A 0B 0C 0D 0E 0F
      -- -- -- -- -- -- -- --  -- -- -- -- -- -- -- --
0480:       03 05 00 07 7F 1A  3C 05 66 06 00 F8 FF FF    ......<.f.....
0490: 7F F8 FF FF 7F 74 6C 6B  30 00                    .....tlk0.      
```

#### Opcodes

```
  0: 0x0482 [0x03] ExtData[1]->WorkLocal[5] = Entity->Race
  1: 0x0487 [0x1A] CALL_SUBROUTINE(address=0x053C)
  2: 0x048A [0x66] LOAD_EXT_SCHEDULER_MAIN: Load scheduler "tlk0" with entities [EventEntity, EventEntity], work=ExtData[1]->WorkLocal[6]
  3: 0x0499 [0x00] END_REQSTACK()
```

### Event 65535.37

#### Metadata

| Field        | Value    |
|--------------|----------|
| Entrypoint   | 0x049A   |
| Data Size    | 24 bytes |
| Instructions | 4        |

```
      00 01 02 03 04 05 06 07  08 09 0A 0B 0C 0D 0E 0F
      -- -- -- -- -- -- -- --  -- -- -- -- -- -- -- --
0490:                                03 05 00 07 7F 1A            ......
04A0: 3C 05 66 06 00 F8 FF FF  7F F8 FF FF 7F 74 6C 6B  <.f..........tlk
04B0: 31 00                                             1.              
```

#### Opcodes

```
  0: 0x049A [0x03] ExtData[1]->WorkLocal[5] = Entity->Race
  1: 0x049F [0x1A] CALL_SUBROUTINE(address=0x053C)
  2: 0x04A2 [0x66] LOAD_EXT_SCHEDULER_MAIN: Load scheduler "tlk1" with entities [EventEntity, EventEntity], work=ExtData[1]->WorkLocal[6]
  3: 0x04B1 [0x00] END_REQSTACK()
```

### Event 65535.38

#### Metadata

| Field        | Value    |
|--------------|----------|
| Entrypoint   | 0x04B2   |
| Data Size    | 38 bytes |
| Instructions | 5        |

```
      00 01 02 03 04 05 06 07  08 09 0A 0B 0C 0D 0E 0F
      -- -- -- -- -- -- -- --  -- -- -- -- -- -- -- --
04B0:       22 00 2F 00 F8 FF  FF 7F B6 0B 6A 80 6B 80    "./.......j.k.
04C0: 6C 80 6D 80 6E 80 6E 80  6E 80 6F 80 70 80 6C F8  l.m.n.n.n.o.p.l.
04D0: FF FF 7F 71 80 0A 80 00                           ...q....        
```

#### Opcodes

```
  0: 0x04B2 [0x22] ENTITY_HIDE_FLAG(enabled=0x00)
  1: 0x04B4 [0x2F] EventEntity->Render.Flags0 &= ~0x80000 // Bit 19
  2: 0x04BA [0xB6] ENTITY_APPEARANCE_HANDLER(case=Full entity look, race=8*, hair=7*, head=145*, body=79*, hands=76*, legs=76*, feet=76*, main=201*, sub=24*)
  3: 0x04CE [0x6C] FADE_ENTITY_COLOR(entity_id=EventEntity, end_alpha=32*, fade_time=1*)
  4: 0x04D7 [0x00] END_REQSTACK()
```

### Event 65535.39

#### Metadata

| Field        | Value    |
|--------------|----------|
| Entrypoint   | 0x04D8   |
| Data Size    | 38 bytes |
| Instructions | 5        |

```
      00 01 02 03 04 05 06 07  08 09 0A 0B 0C 0D 0E 0F
      -- -- -- -- -- -- -- --  -- -- -- -- -- -- -- --
04D0:                          22 00 2F 00 F8 FF FF 7F          "./.....
04E0: B6 0B 72 80 6B 80 6C 80  6D 80 6E 80 6E 80 6E 80  ..r.k.l.m.n.n.n.
04F0: 6F 80 70 80 6C F8 FF FF  7F 73 80 0A 80 00        o.p.l....s....  
```

#### Opcodes

```
  0: 0x04D8 [0x22] ENTITY_HIDE_FLAG(enabled=0x00)
  1: 0x04DA [0x2F] EventEntity->Render.Flags0 &= ~0x80000 // Bit 19
  2: 0x04E0 [0xB6] ENTITY_APPEARANCE_HANDLER(case=Full entity look, race=4*, hair=7*, head=145*, body=79*, hands=76*, legs=76*, feet=76*, main=201*, sub=24*)
  3: 0x04F4 [0x6C] FADE_ENTITY_COLOR(entity_id=EventEntity, end_alpha=48*, fade_time=1*)
  4: 0x04FD [0x00] END_REQSTACK()
```

### Event 65535.40

#### Metadata

| Field        | Value    |
|--------------|----------|
| Entrypoint   | 0x04FE   |
| Data Size    | 38 bytes |
| Instructions | 5        |

```
      00 01 02 03 04 05 06 07  08 09 0A 0B 0C 0D 0E 0F
      -- -- -- -- -- -- -- --  -- -- -- -- -- -- -- --
04F0:                                            22 00                ".
0500: 2F 00 F8 FF FF 7F B6 0B  74 80 6B 80 6C 80 6D 80  /.......t.k.l.m.
0510: 6E 80 6E 80 6E 80 6F 80  70 80 6C F8 FF FF 7F 75  n.n.n.o.p.l....u
0520: 80 0A 80 00                                       ....            
```

#### Opcodes

```
  0: 0x04FE [0x22] ENTITY_HIDE_FLAG(enabled=0x00)
  1: 0x0500 [0x2F] EventEntity->Render.Flags0 &= ~0x80000 // Bit 19
  2: 0x0506 [0xB6] ENTITY_APPEARANCE_HANDLER(case=Full entity look, race=6*, hair=7*, head=145*, body=79*, hands=76*, legs=76*, feet=76*, main=201*, sub=24*)
  3: 0x051A [0x6C] FADE_ENTITY_COLOR(entity_id=EventEntity, end_alpha=64*, fade_time=1*)
  4: 0x0523 [0x00] END_REQSTACK()
```

### Event 65535.41

#### Metadata

| Field        | Value    |
|--------------|----------|
| Entrypoint   | 0x0524   |
| Data Size    | 12 bytes |
| Instructions | 3        |

```
      00 01 02 03 04 05 06 07  08 09 0A 0B 0C 0D 0E 0F
      -- -- -- -- -- -- -- --  -- -- -- -- -- -- -- --
0520:             33 01 37 76  80 77 80 78 80 79 80 00      3.7v.w.x.y..
```

#### Opcodes

```
  0: 0x0524 [0x33] EventEntity->Render.Flags0 |= 0x200000 // Bit 21 (flag=0x01)
  1: 0x0526 [0x37] UPDATE_EVENT_POSITION_AND_DIR: x=-37.237*, z=79.683*, y=-4.463*, direction=69.1°*
  2: 0x052F [0x00] END_REQSTACK()
```

### Event 65535.42

#### Metadata

| Field        | Value     |
|--------------|-----------|
| Entrypoint   | 0x0530    |
| Data Size    | 160 bytes |
| Instructions | 3         |

```
      00 01 02 03 04 05 06 07  08 09 0A 0B 0C 0D 0E 0F
      -- -- -- -- -- -- -- --  -- -- -- -- -- -- -- --
0530: 33 00 37 7A 80 7B 80 7C  80 7D 80 00 03 06 00 05  3.7z.{.|.}......
0540: 00 02 06 00 7E 80 05 51  05 08 06 00 0A 80 01 56  ....~..Q.......V
0550: 05 08 06 00 0D 80 14 06  00 7F 80 07 06 00 80 80  ................
0560: 1B 03 06 00 05 00 02 06  00 7E 80 05 76 05 08 06  .........~..v...
0570: 00 0A 80 01 7B 05 08 06  00 0D 80 14 06 00 7F 80  ....{...........
0580: 07 06 00 81 80 1B 03 06  00 05 00 02 06 00 7E 80  ..............~.
0590: 05 9B 05 08 06 00 0A 80  01 A0 05 08 06 00 0D 80  ................
05A0: 14 06 00 7F 80 07 06 00  82 80 1B 03 06 00 05 00  ................
05B0: 02 06 00 7E 80 05 C0 05  08 06 00 0A 80 01 C5 05  ...~............
05C0: 08 06 00 0D 80 14 06 00  7F 80 07 06 00 83 80 1B  ................
```

#### Opcodes

```
  0: 0x0530 [0x33] EventEntity->Render.Flags0 &= ~ 0x200000 // Bit 21 (flag=0x00)
  1: 0x0532 [0x37] UPDATE_EVENT_POSITION_AND_DIR: x=-32.111*, z=64.388*, y=-3.499*, direction=179.3°*
  2: 0x053B [0x00] END_REQSTACK()
```

#### Data or dead code:

```
# Dead code (unreachable instructions):
     0x053C [0x03] ExtData[1]->WorkLocal[6] = ExtData[1]->WorkLocal[5]
     0x0541 [0x02] IF !(ExtData[1]->WorkLocal[6] > 5*) GOTO 0x0551
     0x0549 [0x08] ExtData[1]->WorkLocal[6] -= 1*
     0x054E [0x01] GOTO 0x0556
     0x0551 [0x08] ExtData[1]->WorkLocal[6] -= 2*
     0x0556 [0x14] ExtData[1]->WorkLocal[6] *= 10*
     0x055B [0x07] ExtData[1]->WorkLocal[6] += 9*
     0x0560 [0x1B] RETURN
     0x0561 [0x03] ExtData[1]->WorkLocal[6] = ExtData[1]->WorkLocal[5]
     0x0566 [0x02] IF !(ExtData[1]->WorkLocal[6] > 5*) GOTO 0x0576
     0x056E [0x08] ExtData[1]->WorkLocal[6] -= 1*
     0x0573 [0x01] GOTO 0x057B
     0x0576 [0x08] ExtData[1]->WorkLocal[6] -= 2*
     0x057B [0x14] ExtData[1]->WorkLocal[6] *= 10*
     0x0580 [0x07] ExtData[1]->WorkLocal[6] += 70*
     0x0585 [0x1B] RETURN
     0x0586 [0x03] ExtData[1]->WorkLocal[6] = ExtData[1]->WorkLocal[5]
     0x058B [0x02] IF !(ExtData[1]->WorkLocal[6] > 5*) GOTO 0x059B
     0x0593 [0x08] ExtData[1]->WorkLocal[6] -= 1*
     0x0598 [0x01] GOTO 0x05A0
     0x059B [0x08] ExtData[1]->WorkLocal[6] -= 2*
     0x05A0 [0x14] ExtData[1]->WorkLocal[6] *= 10*
     0x05A5 [0x07] ExtData[1]->WorkLocal[6] += 140*
     0x05AA [0x1B] RETURN
     0x05AB [0x03] ExtData[1]->WorkLocal[6] = ExtData[1]->WorkLocal[5]
     0x05B0 [0x02] IF !(ExtData[1]->WorkLocal[6] > 5*) GOTO 0x05C0
     0x05B8 [0x08] ExtData[1]->WorkLocal[6] -= 1*
     0x05BD [0x01] GOTO 0x05C5
     0x05C0 [0x08] ExtData[1]->WorkLocal[6] -= 2*
     0x05C5 [0x14] ExtData[1]->WorkLocal[6] *= 10*
     0x05CA [0x07] ExtData[1]->WorkLocal[6] += 210*
     0x05CF [0x1B] RETURN
```

### Event 65535.43

#### Metadata

| Field        | Value    |
|--------------|----------|
| Entrypoint   | 0x05D0   |
| Data Size    | 11 bytes |
| Instructions | 3        |

```
      00 01 02 03 04 05 06 07  08 09 0A 0B 0C 0D 0E 0F
      -- -- -- -- -- -- -- --  -- -- -- -- -- -- -- --
05D0: 1F 00 84 80 85 80 86 80  1F 01 00                 ...........     
```

#### Opcodes

```
  0: 0x05D0 [0x1F] MOVE_ENTITY: EventEntity moves to X=-39.881*, Z=224.033*, Y=-5.009*
  1: 0x05D8 [0x1F] MOVE_ENTITY: Update entity position (mode=1)
  2: 0x05DA [0x00] END_REQSTACK()
```

### Event 65535.44

#### Metadata

| Field        | Value    |
|--------------|----------|
| Entrypoint   | 0x05DB   |
| Data Size    | 21 bytes |
| Instructions | 5        |

```
      00 01 02 03 04 05 06 07  08 09 0A 0B 0C 0D 0E 0F
      -- -- -- -- -- -- -- --  -- -- -- -- -- -- -- --
05D0:                                   1F 00 87 80 88             .....
05E0: 80 5E 80 1F 01 6F 4A F0  FF FF 7F A2 E2 05 01 00  .^...oJ.........
```

#### Opcodes

```
  0: 0x05DB [0x1F] MOVE_ENTITY: EventEntity moves to X=32.351*, Z=1.600*, Y=-25.999*
  1: 0x05E3 [0x1F] MOVE_ENTITY: Update entity position (mode=1)
  2: 0x05E5 [0x6F] WAIT_FRAME_DELAY: Yield until WaitTime reaches zero
  3: 0x05E6 [0x4A] LocalPlayer looks at Velda-Galda (ID: 17162914/0x0105E2A2)
  4: 0x05EF [0x00] END_REQSTACK()
```

### Event 65535.45

#### Metadata

| Field        | Value    |
|--------------|----------|
| Entrypoint   | 0x05F0   |
| Data Size    | 21 bytes |
| Instructions | 5        |

```
      00 01 02 03 04 05 06 07  08 09 0A 0B 0C 0D 0E 0F
      -- -- -- -- -- -- -- --  -- -- -- -- -- -- -- --
05F0: 1F 00 89 80 8A 80 61 80  1F 01 6F 4A F0 FF FF 7F  ......a...oJ....
0600: 18 E2 05 01 00                                    .....           
```

#### Opcodes

```
  0: 0x05F0 [0x1F] MOVE_ENTITY: EventEntity moves to X=-1.203*, Z=3.355*, Y=-25.500*
  1: 0x05F8 [0x1F] MOVE_ENTITY: Update entity position (mode=1)
  2: 0x05FA [0x6F] WAIT_FRAME_DELAY: Yield until WaitTime reaches zero
  3: 0x05FB [0x4A] LocalPlayer looks at Robel-Akbel (ID: 17162776/0x0105E218)
  4: 0x0604 [0x00] END_REQSTACK()
```

### Event 65535.46

#### Metadata

| Field        | Value    |
|--------------|----------|
| Entrypoint   | 0x0605   |
| Data Size    | 11 bytes |
| Instructions | 3        |

```
      00 01 02 03 04 05 06 07  08 09 0A 0B 0C 0D 0E 0F
      -- -- -- -- -- -- -- --  -- -- -- -- -- -- -- --
0600:                1F 00 8B  80 8C 80 64 80 1F 01 00       ......d....
```

#### Opcodes

```
  0: 0x0605 [0x1F] MOVE_ENTITY: EventEntity moves to X=3.321*, Z=7.230*, Y=-25.499*
  1: 0x060D [0x1F] MOVE_ENTITY: Update entity position (mode=1)
  2: 0x060F [0x00] END_REQSTACK()
```

### Event 65535.47

#### Metadata

| Field        | Value    |
|--------------|----------|
| Entrypoint   | 0x0610   |
| Data Size    | 11 bytes |
| Instructions | 3        |

```
      00 01 02 03 04 05 06 07  08 09 0A 0B 0C 0D 0E 0F
      -- -- -- -- -- -- -- --  -- -- -- -- -- -- -- --
0610: 1F 00 8D 80 8E 80 8F 80  1F 01 00                 ...........     
```

#### Opcodes

```
  0: 0x0610 [0x1F] MOVE_ENTITY: EventEntity moves to X=-40.048*, Z=222.414*, Y=-5.004*
  1: 0x0618 [0x1F] MOVE_ENTITY: Update entity position (mode=1)
  2: 0x061A [0x00] END_REQSTACK()
```

### Event 65535.48

#### Metadata

| Field        | Value    |
|--------------|----------|
| Entrypoint   | 0x061B   |
| Data Size    | 11 bytes |
| Instructions | 3        |

```
      00 01 02 03 04 05 06 07  08 09 0A 0B 0C 0D 0E 0F
      -- -- -- -- -- -- -- --  -- -- -- -- -- -- -- --
0610:                                   1F 00 90 80 91             .....
0620: 80 92 80 1F 01 00                                 ......          
```

#### Opcodes

```
  0: 0x061B [0x1F] MOVE_ENTITY: EventEntity moves to X=-41.035*, Z=199.822*, Y=-5.323*
  1: 0x0623 [0x1F] MOVE_ENTITY: Update entity position (mode=1)
  2: 0x0625 [0x00] END_REQSTACK()
```

### Event 65535.49

#### Metadata

| Field        | Value    |
|--------------|----------|
| Entrypoint   | 0x0626   |
| Data Size    | 11 bytes |
| Instructions | 3        |

```
      00 01 02 03 04 05 06 07  08 09 0A 0B 0C 0D 0E 0F
      -- -- -- -- -- -- -- --  -- -- -- -- -- -- -- --
0620:                   1F 00  93 80 94 80 95 80 1F 01        ..........
0630: 00                                                .               
```

#### Opcodes

```
  0: 0x0626 [0x1F] MOVE_ENTITY: EventEntity moves to X=-40.218*, Z=226.932*, Y=-5.015*
  1: 0x062E [0x1F] MOVE_ENTITY: Update entity position (mode=1)
  2: 0x0630 [0x00] END_REQSTACK()
```

### Event 65535.50

#### Metadata

| Field        | Value    |
|--------------|----------|
| Entrypoint   | 0x0631   |
| Data Size    | 11 bytes |
| Instructions | 3        |

```
      00 01 02 03 04 05 06 07  08 09 0A 0B 0C 0D 0E 0F
      -- -- -- -- -- -- -- --  -- -- -- -- -- -- -- --
0630:    1F 00 90 80 91 80 92  80 1F 01 00               ...........    
```

#### Opcodes

```
  0: 0x0631 [0x1F] MOVE_ENTITY: EventEntity moves to X=-41.035*, Z=199.822*, Y=-5.323*
  1: 0x0639 [0x1F] MOVE_ENTITY: Update entity position (mode=1)
  2: 0x063B [0x00] END_REQSTACK()
```

### Event 65535.51

#### Metadata

| Field        | Value    |
|--------------|----------|
| Entrypoint   | 0x063C   |
| Data Size    | 11 bytes |
| Instructions | 3        |

```
      00 01 02 03 04 05 06 07  08 09 0A 0B 0C 0D 0E 0F
      -- -- -- -- -- -- -- --  -- -- -- -- -- -- -- --
0630:                                      1F 00 96 80              ....
0640: 97 80 98 80 1F 01 00                              .......         
```

#### Opcodes

```
  0: 0x063C [0x1F] MOVE_ENTITY: EventEntity moves to X=0.177*, Z=11.768*, Y=-46.999*
  1: 0x0644 [0x1F] MOVE_ENTITY: Update entity position (mode=1)
  2: 0x0646 [0x00] END_REQSTACK()
```

### Event 65535.52

#### Metadata

| Field        | Value    |
|--------------|----------|
| Entrypoint   | 0x0647   |
| Data Size    | 21 bytes |
| Instructions | 5        |

```
      00 01 02 03 04 05 06 07  08 09 0A 0B 0C 0D 0E 0F
      -- -- -- -- -- -- -- --  -- -- -- -- -- -- -- --
0640:                      1F  00 99 80 9A 80 9B 80 1F         .........
0650: 01 6F 4A F0 FF FF 7F 31  E2 05 01 00              .oJ....1....    
```

#### Opcodes

```
  0: 0x0647 [0x1F] MOVE_ENTITY: EventEntity moves to X=1.369*, Z=33.036*, Y=-48.999*
  1: 0x064F [0x1F] MOVE_ENTITY: Update entity position (mode=1)
  2: 0x0651 [0x6F] WAIT_FRAME_DELAY: Yield until WaitTime reaches zero
  3: 0x0652 [0x4A] LocalPlayer looks at Zubaba (ID: 17162801/0x0105E231)
  4: 0x065B [0x00] END_REQSTACK()
```

### Event 65535.53

#### Metadata

| Field        | Value    |
|--------------|----------|
| Entrypoint   | 0x065C   |
| Data Size    | 11 bytes |
| Instructions | 3        |

```
      00 01 02 03 04 05 06 07  08 09 0A 0B 0C 0D 0E 0F
      -- -- -- -- -- -- -- --  -- -- -- -- -- -- -- --
0650:                                      1F 00 9C 80              ....
0660: 9D 80 9E 80 1F 01 00                              .......         
```

#### Opcodes

```
  0: 0x065C [0x1F] MOVE_ENTITY: EventEntity moves to X=0.191*, Z=63.227*, Y=-60.524*
  1: 0x0664 [0x1F] MOVE_ENTITY: Update entity position (mode=1)
  2: 0x0666 [0x00] END_REQSTACK()
```

### Event 65535.54

#### Metadata

| Field        | Value    |
|--------------|----------|
| Entrypoint   | 0x0667   |
| Data Size    | 21 bytes |
| Instructions | 5        |

```
      00 01 02 03 04 05 06 07  08 09 0A 0B 0C 0D 0E 0F
      -- -- -- -- -- -- -- --  -- -- -- -- -- -- -- --
0660:                      1F  00 9F 80 A0 80 A1 80 1F         .........
0670: 01 6F 4A F0 FF FF 7F 1A  E2 05 01 00              .oJ.........    
```

#### Opcodes

```
  0: 0x0667 [0x1F] MOVE_ENTITY: EventEntity moves to X=-1.265*, Z=48.312*, Y=-61.021*
  1: 0x066F [0x1F] MOVE_ENTITY: Update entity position (mode=1)
  2: 0x0671 [0x6F] WAIT_FRAME_DELAY: Yield until WaitTime reaches zero
  3: 0x0672 [0x4A] LocalPlayer looks at Star Sibyl (ID: 17162778/0x0105E21A)
  4: 0x067B [0x00] END_REQSTACK()
```

### Event 65535.55

#### Metadata

| Field        | Value    |
|--------------|----------|
| Entrypoint   | 0x067C   |
| Data Size    | 21 bytes |
| Instructions | 5        |

```
      00 01 02 03 04 05 06 07  08 09 0A 0B 0C 0D 0E 0F
      -- -- -- -- -- -- -- --  -- -- -- -- -- -- -- --
0670:                                      1F 00 A2 80              ....
0680: A3 80 A4 80 1F 01 6F 4A  F0 FF FF 7F 9F E2 05 01  ......oJ........
0690: 00                                                .               
```

#### Opcodes

```
  0: 0x067C [0x1F] MOVE_ENTITY: EventEntity moves to X=9.101*, Z=67.409*, Y=-61.500*
  1: 0x0684 [0x1F] MOVE_ENTITY: Update entity position (mode=1)
  2: 0x0686 [0x6F] WAIT_FRAME_DELAY: Yield until WaitTime reaches zero
  3: 0x0687 [0x4A] LocalPlayer looks at Door_3 (ID: 17162911/0x0105E29F)
  4: 0x0690 [0x00] END_REQSTACK()
```

### Event 65535.56

#### Metadata

| Field        | Value    |
|--------------|----------|
| Entrypoint   | 0x0691   |
| Data Size    | 11 bytes |
| Instructions | 3        |

```
      00 01 02 03 04 05 06 07  08 09 0A 0B 0C 0D 0E 0F
      -- -- -- -- -- -- -- --  -- -- -- -- -- -- -- --
0690:    1F 00 A5 80 A6 80 A7  80 1F 01 00               ...........    
```

#### Opcodes

```
  0: 0x0691 [0x1F] MOVE_ENTITY: EventEntity moves to X=14.786*, Z=68.695*, Y=-61.499*
  1: 0x0699 [0x1F] MOVE_ENTITY: Update entity position (mode=1)
  2: 0x069B [0x00] END_REQSTACK()
```

### Event 65535.57

#### Metadata

| Field        | Value    |
|--------------|----------|
| Entrypoint   | 0x069C   |
| Data Size    | 14 bytes |
| Instructions | 5        |

```
      00 01 02 03 04 05 06 07  08 09 0A 0B 0C 0D 0E 0F
      -- -- -- -- -- -- -- --  -- -- -- -- -- -- -- --
0690:                                      33 01 1F 00              3...
06A0: A8 80 A9 80 A4 80 1F 01  6F 00                    ........o.      
```

#### Opcodes

```
  0: 0x069C [0x33] EventEntity->Render.Flags0 |= 0x200000 // Bit 21 (flag=0x01)
  1: 0x069E [0x1F] MOVE_ENTITY: EventEntity moves to X=27.820*, Z=68.740*, Y=-61.500*
  2: 0x06A6 [0x1F] MOVE_ENTITY: Update entity position (mode=1)
  3: 0x06A8 [0x6F] WAIT_FRAME_DELAY: Yield until WaitTime reaches zero
  4: 0x06A9 [0x00] END_REQSTACK()
```

### Event 65535.58

#### Metadata

| Field        | Value    |
|--------------|----------|
| Entrypoint   | 0x06AA   |
| Data Size    | 11 bytes |
| Instructions | 3        |

```
      00 01 02 03 04 05 06 07  08 09 0A 0B 0C 0D 0E 0F
      -- -- -- -- -- -- -- --  -- -- -- -- -- -- -- --
06A0:                                1F 00 AA 80 AB 80            ......
06B0: AC 80 1F 01 00                                    .....           
```

#### Opcodes

```
  0: 0x06AA [0x1F] MOVE_ENTITY: EventEntity moves to X=179.996*, Z=18.377*, Y=8.500*
  1: 0x06B2 [0x1F] MOVE_ENTITY: Update entity position (mode=1)
  2: 0x06B4 [0x00] END_REQSTACK()
```

### Event 65535.59

#### Metadata

| Field        | Value    |
|--------------|----------|
| Entrypoint   | 0x06B5   |
| Data Size    | 21 bytes |
| Instructions | 5        |

```
      00 01 02 03 04 05 06 07  08 09 0A 0B 0C 0D 0E 0F
      -- -- -- -- -- -- -- --  -- -- -- -- -- -- -- --
06B0:                1F 00 AD  80 AE 80 AF 80 1F 01 6F       ..........o
06C0: 4A F0 FF FF 7F 1A E2 05  01 00                    J.........      
```

#### Opcodes

```
  0: 0x06B5 [0x1F] MOVE_ENTITY: EventEntity moves to X=178.722*, Z=-14.936*, Y=10.050*
  1: 0x06BD [0x1F] MOVE_ENTITY: Update entity position (mode=1)
  2: 0x06BF [0x6F] WAIT_FRAME_DELAY: Yield until WaitTime reaches zero
  3: 0x06C0 [0x4A] LocalPlayer looks at Star Sibyl (ID: 17162778/0x0105E21A)
  4: 0x06C9 [0x00] END_REQSTACK()
```

### Event 65535.60

#### Metadata

| Field        | Value    |
|--------------|----------|
| Entrypoint   | 0x06CA   |
| Data Size    | 11 bytes |
| Instructions | 3        |

```
      00 01 02 03 04 05 06 07  08 09 0A 0B 0C 0D 0E 0F
      -- -- -- -- -- -- -- --  -- -- -- -- -- -- -- --
06C0:                                1F 00 B0 80 B1 80            ......
06D0: B2 80 1F 01 00                                    .....           
```

#### Opcodes

```
  0: 0x06CA [0x1F] MOVE_ENTITY: EventEntity moves to X=163.292*, Z=-15.914*, Y=9.999*
  1: 0x06D2 [0x1F] MOVE_ENTITY: Update entity position (mode=1)
  2: 0x06D4 [0x00] END_REQSTACK()
```

### Event 65535.61

#### Metadata

| Field        | Value    |
|--------------|----------|
| Entrypoint   | 0x06D5   |
| Data Size    | 11 bytes |
| Instructions | 3        |

```
      00 01 02 03 04 05 06 07  08 09 0A 0B 0C 0D 0E 0F
      -- -- -- -- -- -- -- --  -- -- -- -- -- -- -- --
06D0:                1F 00 B3  80 B4 80 B2 80 1F 01 00       ...........
```

#### Opcodes

```
  0: 0x06D5 [0x1F] MOVE_ENTITY: EventEntity moves to X=153.084*, Z=-15.640*, Y=9.999*
  1: 0x06DD [0x1F] MOVE_ENTITY: Update entity position (mode=1)
  2: 0x06DF [0x00] END_REQSTACK()
```

### Event 65535.62

#### Metadata

| Field        | Value    |
|--------------|----------|
| Entrypoint   | 0x06E0   |
| Data Size    | 11 bytes |
| Instructions | 3        |

```
      00 01 02 03 04 05 06 07  08 09 0A 0B 0C 0D 0E 0F
      -- -- -- -- -- -- -- --  -- -- -- -- -- -- -- --
06E0: 1F 00 B5 80 B6 80 B2 80  1F 01 00                 ...........     
```

#### Opcodes

```
  0: 0x06E0 [0x1F] MOVE_ENTITY: EventEntity moves to X=149.214*, Z=-16.619*, Y=9.999*
  1: 0x06E8 [0x1F] MOVE_ENTITY: Update entity position (mode=1)
  2: 0x06EA [0x00] END_REQSTACK()
```

### Event 65535.63

#### Metadata

| Field        | Value    |
|--------------|----------|
| Entrypoint   | 0x06EB   |
| Data Size    | 11 bytes |
| Instructions | 3        |

```
      00 01 02 03 04 05 06 07  08 09 0A 0B 0C 0D 0E 0F
      -- -- -- -- -- -- -- --  -- -- -- -- -- -- -- --
06E0:                                   1F 00 B7 80 B8             .....
06F0: 80 B9 80 1F 01 00                                 ......          
```

#### Opcodes

```
  0: 0x06EB [0x1F] MOVE_ENTITY: EventEntity moves to X=142.132*, Z=-23.456*, Y=12.999*
  1: 0x06F3 [0x1F] MOVE_ENTITY: Update entity position (mode=1)
  2: 0x06F5 [0x00] END_REQSTACK()
```

### Event 65535.64

#### Metadata

| Field        | Value    |
|--------------|----------|
| Entrypoint   | 0x06F6   |
| Data Size    | 11 bytes |
| Instructions | 3        |

```
      00 01 02 03 04 05 06 07  08 09 0A 0B 0C 0D 0E 0F
      -- -- -- -- -- -- -- --  -- -- -- -- -- -- -- --
06F0:                   1F 00  BA 80 BB 80 BC 80 1F 01        ..........
0700: 00                                                .               
```

#### Opcodes

```
  0: 0x06F6 [0x1F] MOVE_ENTITY: EventEntity moves to X=0.100*, Z=-17.869*, Y=0.499*
  1: 0x06FE [0x1F] MOVE_ENTITY: Update entity position (mode=1)
  2: 0x0700 [0x00] END_REQSTACK()
```

### Event 65535.65

#### Metadata

| Field        | Value    |
|--------------|----------|
| Entrypoint   | 0x0701   |
| Data Size    | 11 bytes |
| Instructions | 3        |

```
      00 01 02 03 04 05 06 07  08 09 0A 0B 0C 0D 0E 0F
      -- -- -- -- -- -- -- --  -- -- -- -- -- -- -- --
0700:    1F 00 BD 80 BE 80 BF  80 1F 01 00               ...........    
```

#### Opcodes

```
  0: 0x0701 [0x1F] MOVE_ENTITY: EventEntity moves to X=6.599*, Z=-7.580*, Y=0.585*
  1: 0x0709 [0x1F] MOVE_ENTITY: Update entity position (mode=1)
  2: 0x070B [0x00] END_REQSTACK()
```

### Event 65535.66

#### Metadata

| Field        | Value    |
|--------------|----------|
| Entrypoint   | 0x070C   |
| Data Size    | 21 bytes |
| Instructions | 5        |

```
      00 01 02 03 04 05 06 07  08 09 0A 0B 0C 0D 0E 0F
      -- -- -- -- -- -- -- --  -- -- -- -- -- -- -- --
0700:                                      1F 00 C0 80              ....
0710: C1 80 64 80 1F 01 6F 4A  F0 FF FF 7F 9D E2 05 01  ..d...oJ........
0720: 00                                                .               
```

#### Opcodes

```
  0: 0x070C [0x1F] MOVE_ENTITY: EventEntity moves to X=-5.495*, Z=9.595*, Y=-25.499*
  1: 0x0714 [0x1F] MOVE_ENTITY: Update entity position (mode=1)
  2: 0x0716 [0x6F] WAIT_FRAME_DELAY: Yield until WaitTime reaches zero
  3: 0x0717 [0x4A] LocalPlayer looks at Karaha-Baruha (ID: 17162909/0x0105E29D)
  4: 0x0720 [0x00] END_REQSTACK()
```

### Event 65535.67

#### Metadata

| Field        | Value    |
|--------------|----------|
| Entrypoint   | 0x0721   |
| Data Size    | 21 bytes |
| Instructions | 5        |

```
      00 01 02 03 04 05 06 07  08 09 0A 0B 0C 0D 0E 0F
      -- -- -- -- -- -- -- --  -- -- -- -- -- -- -- --
0720:    1F 00 C2 80 C3 80 C4  80 1F 01 6F 4A F0 FF FF   ..........oJ...
0730: 7F 9D E2 05 01 00                                 ......          
```

#### Opcodes

```
  0: 0x0721 [0x1F] MOVE_ENTITY: EventEntity moves to X=1.143*, Z=13.234*, Y=-25.857*
  1: 0x0729 [0x1F] MOVE_ENTITY: Update entity position (mode=1)
  2: 0x072B [0x6F] WAIT_FRAME_DELAY: Yield until WaitTime reaches zero
  3: 0x072C [0x4A] LocalPlayer looks at Karaha-Baruha (ID: 17162909/0x0105E29D)
  4: 0x0735 [0x00] END_REQSTACK()
```

### Event 65535.68

#### Metadata

| Field        | Value    |
|--------------|----------|
| Entrypoint   | 0x0736   |
| Data Size    | 21 bytes |
| Instructions | 5        |

```
      00 01 02 03 04 05 06 07  08 09 0A 0B 0C 0D 0E 0F
      -- -- -- -- -- -- -- --  -- -- -- -- -- -- -- --
0730:                   1F 00  C5 80 C6 80 67 80 1F 01        ......g...
0740: 6F 4A F0 FF FF 7F 36 E2  05 01 00                 oJ....6....     
```

#### Opcodes

```
  0: 0x0736 [0x1F] MOVE_ENTITY: EventEntity moves to X=3.207*, Z=-12.944*, Y=0.749*
  1: 0x073E [0x1F] MOVE_ENTITY: Update entity position (mode=1)
  2: 0x0740 [0x6F] WAIT_FRAME_DELAY: Yield until WaitTime reaches zero
  3: 0x0741 [0x4A] LocalPlayer looks at Lehko Habhoka (ID: 17162806/0x0105E236)
  4: 0x074A [0x00] END_REQSTACK()
```

### Event 65535.69

#### Metadata

| Field        | Value    |
|--------------|----------|
| Entrypoint   | 0x074B   |
| Data Size    | 21 bytes |
| Instructions | 2        |

```
      00 01 02 03 04 05 06 07  08 09 0A 0B 0C 0D 0E 0F
      -- -- -- -- -- -- -- --  -- -- -- -- -- -- -- --
0740:                                   B6 0B 02 10 6B             ....k
0750: 80 6C 80 6D 80 6E 80 6E  80 6E 80 6F 80 70 80 00  .l.m.n.n.n.o.p..
```

#### Opcodes

```
  0: 0x074B [0xB6] ENTITY_APPEARANCE_HANDLER(case=Full entity look, race=Work_Zone[2], hair=7*, head=145*, body=79*, hands=76*, legs=76*, feet=76*, main=201*, sub=24*)
  1: 0x075F [0x00] END_REQSTACK()
```

### Event 65535.70

#### Metadata

| Field        | Value    |
|--------------|----------|
| Entrypoint   | 0x0760   |
| Data Size    | 15 bytes |
| Instructions | 5        |

```
      00 01 02 03 04 05 06 07  08 09 0A 0B 0C 0D 0E 0F
      -- -- -- -- -- -- -- --  -- -- -- -- -- -- -- --
0760: 32 08 80 1F 00 C7 80 C8  80 C9 80 1F 01 6F 00     2............o. 
```

#### Opcodes

```
  0: 0x0760 [0x32] ExtData[1]->MainSpeed = 13* * 0.1
  1: 0x0763 [0x1F] MOVE_ENTITY: EventEntity moves to X=-40.143*, Z=221.541*, Y=-5.010*
  2: 0x076B [0x1F] MOVE_ENTITY: Update entity position (mode=1)
  3: 0x076D [0x6F] WAIT_FRAME_DELAY: Yield until WaitTime reaches zero
  4: 0x076E [0x00] END_REQSTACK()
```

### Event 65535.71

#### Metadata

| Field        | Value    |
|--------------|----------|
| Entrypoint   | 0x076F   |
| Data Size    | 10 bytes |
| Instructions | 2        |

```
      00 01 02 03 04 05 06 07  08 09 0A 0B 0C 0D 0E 0F
      -- -- -- -- -- -- -- --  -- -- -- -- -- -- -- --
0760:                                               6C                 l
0770: F8 FF FF 7F CA 80 0A 80  00                       .........       
```

#### Opcodes

```
  0: 0x076F [0x6C] FADE_ENTITY_COLOR(entity_id=EventEntity, end_alpha=86*, fade_time=1*)
  1: 0x0778 [0x00] END_REQSTACK()
```

### Event 65535.72

#### Metadata

| Field        | Value    |
|--------------|----------|
| Entrypoint   | 0x0779   |
| Data Size    | 14 bytes |
| Instructions | 4        |

```
      00 01 02 03 04 05 06 07  08 09 0A 0B 0C 0D 0E 0F
      -- -- -- -- -- -- -- --  -- -- -- -- -- -- -- --
0770:                             32 3F 80 1F 00 CB 80           2?.....
0780: CC 80 CD 80 1F 01 00                              .......         
```

#### Opcodes

```
  0: 0x0779 [0x32] ExtData[1]->MainSpeed = 40* * 0.1
  1: 0x077C [0x1F] MOVE_ENTITY: EventEntity moves to X=-39.719*, Z=86.764*, Y=-5.006*
  2: 0x0784 [0x1F] MOVE_ENTITY: Update entity position (mode=1)
  3: 0x0786 [0x00] END_REQSTACK()
```

### Event 65535.73

#### Metadata

| Field        | Value    |
|--------------|----------|
| Entrypoint   | 0x0787   |
| Data Size    | 16 bytes |
| Instructions | 3        |

```
      00 01 02 03 04 05 06 07  08 09 0A 0B 0C 0D 0E 0F
      -- -- -- -- -- -- -- --  -- -- -- -- -- -- -- --
0780:                      92  01 F8 FF FF 7F 6C F8 FF         ......l..
0790: FF 7F 02 80 0A 80 00                              .......         
```

#### Opcodes

```
  0: 0x0787 [0x92] EventEntity->Render.Flags3 ^= 0x01
  1: 0x078D [0x6C] FADE_ENTITY_COLOR(entity_id=EventEntity, end_alpha=0*, fade_time=1*)
  2: 0x0796 [0x00] END_REQSTACK()
```

### Event 65535.74

#### Metadata

| Field        | Value    |
|--------------|----------|
| Entrypoint   | 0x0797   |
| Data Size    | 16 bytes |
| Instructions | 3        |

```
      00 01 02 03 04 05 06 07  08 09 0A 0B 0C 0D 0E 0F
      -- -- -- -- -- -- -- --  -- -- -- -- -- -- -- --
0790:                      92  00 F8 FF FF 7F 6C F8 FF         ......l..
07A0: FF 7F CE 80 0A 80 00                              .......         
```

#### Opcodes

```
  0: 0x0797 [0x92] EventEntity->Render.Flags3 = Flags3  // No change (flag=0)
  1: 0x079D [0x6C] FADE_ENTITY_COLOR(entity_id=EventEntity, end_alpha=128*, fade_time=1*)
  2: 0x07A6 [0x00] END_REQSTACK()
```

### Event 65535.75

#### Metadata

| Field        | Value    |
|--------------|----------|
| Entrypoint   | 0x07A7   |
| Data Size    | 15 bytes |
| Instructions | 5        |

```
      00 01 02 03 04 05 06 07  08 09 0A 0B 0C 0D 0E 0F
      -- -- -- -- -- -- -- --  -- -- -- -- -- -- -- --
07A0:                      32  08 80 1F 00 CF 80 D0 80         2........
07B0: D1 80 1F 01 6F 00                                 ....o.          
```

#### Opcodes

```
  0: 0x07A7 [0x32] ExtData[1]->MainSpeed = 13* * 0.1
  1: 0x07AA [0x1F] MOVE_ENTITY: EventEntity moves to X=-23.132*, Z=96.997*, Y=-10.749*
  2: 0x07B2 [0x1F] MOVE_ENTITY: Update entity position (mode=1)
  3: 0x07B4 [0x6F] WAIT_FRAME_DELAY: Yield until WaitTime reaches zero
  4: 0x07B5 [0x00] END_REQSTACK()
```

### Event 65535.76

#### Metadata

| Field        | Value    |
|--------------|----------|
| Entrypoint   | 0x07B6   |
| Data Size    | 23 bytes |
| Instructions | 5        |

```
      00 01 02 03 04 05 06 07  08 09 0A 0B 0C 0D 0E 0F
      -- -- -- -- -- -- -- --  -- -- -- -- -- -- -- --
07B0:                   32 08  80 1F 00 D2 80 D3 80 06        2.........
07C0: 80 1F 01 4A F8 FF FF 7F  36 E2 05 01 00           ...J....6....   
```

#### Opcodes

```
  0: 0x07B6 [0x32] ExtData[1]->MainSpeed = 13* * 0.1
  1: 0x07B9 [0x1F] MOVE_ENTITY: EventEntity moves to X=-25.796*, Z=85.429*, Y=-5.000*
  2: 0x07C1 [0x1F] MOVE_ENTITY: Update entity position (mode=1)
  3: 0x07C3 [0x4A] EventEntity looks at Lehko Habhoka (ID: 17162806/0x0105E236)
  4: 0x07CC [0x00] END_REQSTACK()
```

### Event 65535.77

#### Metadata

| Field        | Value    |
|--------------|----------|
| Entrypoint   | 0x07CD   |
| Data Size    | 20 bytes |
| Instructions | 6        |

```
      00 01 02 03 04 05 06 07  08 09 0A 0B 0C 0D 0E 0F
      -- -- -- -- -- -- -- --  -- -- -- -- -- -- -- --
07C0:                                         32 08 80               2..
07D0: 1F 00 D4 80 D5 80 45 80  1F 01 6F 1E 2B E2 05 01  ......E...o.+...
07E0: 00                                                .               
```

#### Opcodes

```
  0: 0x07CD [0x32] ExtData[1]->MainSpeed = 13* * 0.1
  1: 0x07D0 [0x1F] MOVE_ENTITY: EventEntity moves to X=-38.857*, Z=224.509*, Y=-4.930*
  2: 0x07D8 [0x1F] MOVE_ENTITY: Update entity position (mode=1)
  3: 0x07DA [0x6F] WAIT_FRAME_DELAY: Yield until WaitTime reaches zero
  4: 0x07DB [0x1E] EventEntity looks at Mihl Pakorhma (ID: 17162795/0x0105E22B) and starts talking
  5: 0x07E0 [0x00] END_REQSTACK()
```

### Event 65535.78

#### Metadata

| Field        | Value    |
|--------------|----------|
| Entrypoint   | 0x07E1   |
| Data Size    | 14 bytes |
| Instructions | 4        |

```
      00 01 02 03 04 05 06 07  08 09 0A 0B 0C 0D 0E 0F
      -- -- -- -- -- -- -- --  -- -- -- -- -- -- -- --
07E0:    32 08 80 1F 00 D6 80  D7 80 CD 80 1F 01 00      2............. 
```

#### Opcodes

```
  0: 0x07E1 [0x32] ExtData[1]->MainSpeed = 13* * 0.1
  1: 0x07E4 [0x1F] MOVE_ENTITY: EventEntity moves to X=-39.276*, Z=218.843*, Y=-5.006*
  2: 0x07EC [0x1F] MOVE_ENTITY: Update entity position (mode=1)
  3: 0x07EE [0x00] END_REQSTACK()
```

### Event 65535.79

#### Metadata

| Field        | Value    |
|--------------|----------|
| Entrypoint   | 0x07EF   |
| Data Size    | 50 bytes |
| Instructions | 12       |

```
      00 01 02 03 04 05 06 07  08 09 0A 0B 0C 0D 0E 0F
      -- -- -- -- -- -- -- --  -- -- -- -- -- -- -- --
07E0:                                               32                 2
07F0: 08 80 1F 00 D8 80 D9 80  64 80 1F 01 1F 00 DA 80  ........d.......
0800: DB 80 64 80 1F 01 1F 00  DC 80 DD 80 64 80 1F 01  ..d.........d...
0810: 1F 00 DE 80 DF 80 64 80  1F 01 6F 1E 1A E2 05 01  ......d...o.....
0820: 00                                                .               
```

#### Opcodes

```
  0: 0x07EF [0x32] ExtData[1]->MainSpeed = 13* * 0.1
  1: 0x07F2 [0x1F] MOVE_ENTITY: EventEntity moves to X=-0.052*, Z=2.080*, Y=-25.499*
  2: 0x07FA [0x1F] MOVE_ENTITY: Update entity position (mode=1)
  3: 0x07FC [0x1F] MOVE_ENTITY: EventEntity moves to X=-2.561*, Z=1.726*, Y=-25.499*
  4: 0x0804 [0x1F] MOVE_ENTITY: Update entity position (mode=1)
  5: 0x0806 [0x1F] MOVE_ENTITY: EventEntity moves to X=-4.229*, Z=0.408*, Y=-25.499*
  6: 0x080E [0x1F] MOVE_ENTITY: Update entity position (mode=1)
  7: 0x0810 [0x1F] MOVE_ENTITY: EventEntity moves to X=-7.444*, Z=0.020*, Y=-25.499*
  8: 0x0818 [0x1F] MOVE_ENTITY: Update entity position (mode=1)
  9: 0x081A [0x6F] WAIT_FRAME_DELAY: Yield until WaitTime reaches zero
 10: 0x081B [0x1E] EventEntity looks at Star Sibyl (ID: 17162778/0x0105E21A) and starts talking
 11: 0x0820 [0x00] END_REQSTACK()
```

### Event 65535.80

#### Metadata

| Field        | Value    |
|--------------|----------|
| Entrypoint   | 0x0821   |
| Data Size    | 15 bytes |
| Instructions | 5        |

```
      00 01 02 03 04 05 06 07  08 09 0A 0B 0C 0D 0E 0F
      -- -- -- -- -- -- -- --  -- -- -- -- -- -- -- --
0820:    32 08 80 1F 00 E0 80  E1 80 64 80 1F 01 6F 00   2........d...o.
```

#### Opcodes

```
  0: 0x0821 [0x32] ExtData[1]->MainSpeed = 13* * 0.1
  1: 0x0824 [0x1F] MOVE_ENTITY: EventEntity moves to X=-10.774*, Z=-0.004*, Y=-25.499*
  2: 0x082C [0x1F] MOVE_ENTITY: Update entity position (mode=1)
  3: 0x082E [0x6F] WAIT_FRAME_DELAY: Yield until WaitTime reaches zero
  4: 0x082F [0x00] END_REQSTACK()
```

### Event 65535.81

#### Metadata

| Field        | Value    |
|--------------|----------|
| Entrypoint   | 0x0830   |
| Data Size    | 26 bytes |
| Instructions | 8        |

```
      00 01 02 03 04 05 06 07  08 09 0A 0B 0C 0D 0E 0F
      -- -- -- -- -- -- -- --  -- -- -- -- -- -- -- --
0830: 32 08 80 1F 00 DE 80 DF  80 64 80 1F 01 6F 1C 0A  2........d...o..
0840: 80 1E 1A E2 05 01 1C E2  80 00                    ..........      
```

#### Opcodes

```
  0: 0x0830 [0x32] ExtData[1]->MainSpeed = 13* * 0.1
  1: 0x0833 [0x1F] MOVE_ENTITY: EventEntity moves to X=-7.444*, Z=0.020*, Y=-25.499*
