# Event 528

## Metadata

| Field           | Value    |
|-----------------|----------|
| Event Index     | 45/93    |
| Offset          | 0x0BAD   |
| Data Size       | 17 bytes |
| Calculated Size | 17 bytes |
| Instructions    | 8        |

```
      00 01 02 03 04 05 06 07  08 09 0A 0B 0C 0D 0E 0F
      -- -- -- -- -- -- -- --  -- -- -- -- -- -- -- --
0BA0:                                         7B 76 10               {v.
0BB0: 0F 01 1D 42 80 23 1D 43  80 23 20 00 21 00        ...B.#.C.# .!.  
```

## Opcodes

```
  0: 0x0BAD [0x7B] Perih Vashai (ID: 17764470/0x010F1076) stops talking
  1: 0x0BB2 [0x1D] PRINT_EVENT_MESSAGE(message_id=8951*)
    → "\u0008.\u0007You see us in troubled times. On occasion, even the Mithra fight amongst themselves.\u007F1\u0000\u0007"
  2: 0x0BB5 [0x23] WAIT_FOR_DIALOG_INTERACTION
  3: 0x0BB6 [0x1D] PRINT_EVENT_MESSAGE(message_id=8952*)
    → "I feel that your talents will become necessary before this struggle comes to an end. Will you promise to lend us your strrrength in our time of need?\u007F1\u0000\u0007"
  4: 0x0BB9 [0x23] WAIT_FOR_DIALOG_INTERACTION
  5: 0x0BBA [0x20] SET_CLI_EVENT_UC_FLAG: Unlock player control
  6: 0x0BBC [0x21] END_EVENT
  7: 0x0BBD [0x00] END_REQSTACK()
```
