# Event 536

## Metadata

| Field           | Value    |
|-----------------|----------|
| Event Index     | 57/93    |
| Offset          | 0x1089   |
| Data Size       | 21 bytes |
| Calculated Size | 21 bytes |
| Instructions    | 10       |

```
      00 01 02 03 04 05 06 07  08 09 0A 0B 0C 0D 0E 0F
      -- -- -- -- -- -- -- --  -- -- -- -- -- -- -- --
1080:                             1D 52 80 23 1D 53 80           .R.#.S.
1090: 23 1D 54 80 23 7B 76 10  0F 01 20 00 21 00        #.T.#{v... .!.  
```

## Opcodes

```
  0: 0x1089 [0x1D] PRINT_EVENT_MESSAGE(message_id=9320*)
    → "In the time of the Great War, the warriors held in Oztroja were forced to fight with Yagudo in a hall on the castle's highest floor.\u007F1\u0000\u0007"
  1: 0x108C [0x23] WAIT_FOR_DIALOG_INTERACTION
  2: 0x108D [0x1D] PRINT_EVENT_MESSAGE(message_id=9321*)
    → "The fallen warriors were then thrrrown into a large pond on the upper levels.\u007F1\u0000\u0007"
  3: 0x1090 [0x23] WAIT_FOR_DIALOG_INTERACTION
  4: 0x1091 [0x1D] PRINT_EVENT_MESSAGE(message_id=9322*)
    → "I believe the \u0001\u0005#\u0002\u0002\u0000\u0000 that fits with the \u0001\u0005#\u0002\u0001\u0000\u0000 of Syu Befrathi can be found there... However, the talents of a ranger will be needed to discover it.\u007F1\u0000\u0007"
  5: 0x1094 [0x23] WAIT_FOR_DIALOG_INTERACTION
  6: 0x1095 [0x7B] Perih Vashai (ID: 17764470/0x010F1076) stops talking
  7: 0x109A [0x20] SET_CLI_EVENT_UC_FLAG: Unlock player control
  8: 0x109C [0x21] END_EVENT
  9: 0x109D [0x00] END_REQSTACK()
```
