# Event 538

## Metadata

| Field           | Value    |
|-----------------|----------|
| Event Index     | 61/93    |
| Offset          | 0x14DE   |
| Data Size       | 17 bytes |
| Calculated Size | 17 bytes |
| Instructions    | 8        |

```
      00 01 02 03 04 05 06 07  08 09 0A 0B 0C 0D 0E 0F
      -- -- -- -- -- -- -- --  -- -- -- -- -- -- -- --
14D0:                                            1D 5A                .Z
14E0: 80 23 1D 5B 80 23 7B 76  10 0F 01 20 00 21 00     .#.[.#{v... .!. 
```

## Opcodes

```
  0: 0x14DE [0x1D] PRINT_EVENT_MESSAGE(message_id=9334*)
    → "...The Bow of Light.\u0007Thirty years have passed since its creation. And all it has brought us is death and misfortune.\u007F1\u0000\u0007"
  1: 0x14E1 [0x23] WAIT_FOR_DIALOG_INTERACTION
  2: 0x14E2 [0x1D] PRINT_EVENT_MESSAGE(message_id=9335*)
    → "This all started when we came to this continent. The elders called this place the Forbidden Land, and were opposed to the crossing. It all started here...\u007F1\u0000\u0007"
  3: 0x14E5 [0x23] WAIT_FOR_DIALOG_INTERACTION
  4: 0x14E6 [0x7B] Perih Vashai (ID: 17764470/0x010F1076) stops talking
  5: 0x14EB [0x20] SET_CLI_EVENT_UC_FLAG: Unlock player control
  6: 0x14ED [0x21] END_EVENT
  7: 0x14EE [0x00] END_REQSTACK()
```
