# Event 545

## Metadata

| Field           | Value    |
|-----------------|----------|
| Event Index     | 69/93    |
| Offset          | 0x17D8   |
| Data Size       | 17 bytes |
| Calculated Size | 17 bytes |
| Instructions    | 8        |

```
      00 01 02 03 04 05 06 07  08 09 0A 0B 0C 0D 0E 0F
      -- -- -- -- -- -- -- --  -- -- -- -- -- -- -- --
17D0:                          1D 65 80 23 1D 66 80 23          .e.#.f.#
17E0: 7B 76 10 0F 01 20 00 21  00                       {v... .!.       
```

## Opcodes

```
  0: 0x17D8 [0x1D] PRINT_EVENT_MESSAGE(message_id=9361*)
    → "So, you will follow Semih and trrravel to the Northland?\u007F1\u0000\u0007"
  1: 0x17DB [0x23] WAIT_FOR_DIALOG_INTERACTION
  2: 0x17DC [0x1D] PRINT_EVENT_MESSAGE(message_id=9362*)
    → "The Northlands are a place of death that we Mithra avoid above all others. It is a land that rrrobs us of the blessing and grace of nature. May the winds watch over you.\u007F1\u0000\u0007"
  3: 0x17DF [0x23] WAIT_FOR_DIALOG_INTERACTION
  4: 0x17E0 [0x7B] Perih Vashai (ID: 17764470/0x010F1076) stops talking
  5: 0x17E5 [0x20] SET_CLI_EVENT_UC_FLAG: Unlock player control
  6: 0x17E7 [0x21] END_EVENT
  7: 0x17E8 [0x00] END_REQSTACK()
```
