# Event 638

## Metadata

| Field           | Value    |
|-----------------|----------|
| Event Index     | 82/93    |
| Offset          | 0x1F29   |
| Data Size       | 25 bytes |
| Calculated Size | 25 bytes |
| Instructions    | 12       |

```
      00 01 02 03 04 05 06 07  08 09 0A 0B 0C 0D 0E 0F
      -- -- -- -- -- -- -- --  -- -- -- -- -- -- -- --
1F20:                             1D 79 80 23 1D 7A 80           .y.#.z.
1F30: 23 1D 7B 80 23 7B 76 10  0F 01 1D 7C 80 23 20 00  #.{.#{v....|.# .
1F40: 21 00                                             !.              
```

## Opcodes

```
  0: 0x1F29 [0x1D] PRINT_EVENT_MESSAGE(message_id=9677*)
    → "...I have heard from Semih Lafihna that a time of rrreckoning has come to this land.\u007F1\u0000\u0007"
  1: 0x1F2C [0x23] WAIT_FOR_DIALOG_INTERACTION
  2: 0x1F2D [0x1D] PRINT_EVENT_MESSAGE(message_id=9678*)
    → "We Mithra have always known that the world is but a sharrrd of a greater power.\u007F1\u0000\u0007"
  3: 0x1F30 [0x23] WAIT_FOR_DIALOG_INTERACTION
  4: 0x1F31 [0x1D] PRINT_EVENT_MESSAGE(message_id=9679*)
    → "The abundant life and light born from that sharrrd, that single destiny...\u007F1\u0000\u0007"
  5: 0x1F34 [0x23] WAIT_FOR_DIALOG_INTERACTION
  6: 0x1F35 [0x7B] Perih Vashai (ID: 17764470/0x010F1076) stops talking
  7: 0x1F3A [0x1D] PRINT_EVENT_MESSAGE(message_id=9680*)
    → "...Leave the Yagudo to us. We will not fall against the tides of evil. You, too, must make your stand.\u007F1\u0000\u0007"
  8: 0x1F3D [0x23] WAIT_FOR_DIALOG_INTERACTION
  9: 0x1F3E [0x20] SET_CLI_EVENT_UC_FLAG: Unlock player control
 10: 0x1F40 [0x21] END_EVENT
 11: 0x1F41 [0x00] END_REQSTACK()
```
