# Event 65535

## Metadata

| Field           | Value    |
|-----------------|----------|
| Event Index     | 27/93    |
| Offset          | 0x0399   |
| Data Size       | 37 bytes |
| Calculated Size | 37 bytes |
| Instructions    | 9        |

```
      00 01 02 03 04 05 06 07  08 09 0A 0B 0C 0D 0E 0F
      -- -- -- -- -- -- -- --  -- -- -- -- -- -- -- --
0390:                             29 08 76 10 0F 01 05           ).v....
03A0: 1D 18 80 23 1D 19 80 23  29 08 76 10 0F 01 06 29  ...#...#).v....)
03B0: 08 76 10 0F 01 07 29 08  76 10 0F 01 08 00        .v....).v.....  
```

## Opcodes

```
  0: 0x0399 [0x29] REQ_SET_WAIT(priority=0x08, entity_id=Perih Vashai (ID: 17764470/0x010F1076), tag_num=0x05)
  1: 0x03A0 [0x1D] PRINT_EVENT_MESSAGE(message_id=8292*)
    → "For the hunterrr, the fangs are not just a tool vital for existence, but also a witness to its death. If the fanged one loses its fangs, it can no longerrr live. Yet when the fanged one dies, only its fangs rrremain.\u007F1\u0000\u0007"
  2: 0x03A3 [0x23] WAIT_FOR_DIALOG_INTERACTION
  3: 0x03A4 [0x1D] PRINT_EVENT_MESSAGE(message_id=8293*)
    → "To hunt like the fanged one, you must live by the fang and die leaving only the fang behind.\u007F1\u0000\u0007"
  4: 0x03A7 [0x23] WAIT_FOR_DIALOG_INTERACTION
  5: 0x03A8 [0x29] REQ_SET_WAIT(priority=0x08, entity_id=Perih Vashai (ID: 17764470/0x010F1076), tag_num=0x06)
  6: 0x03AF [0x29] REQ_SET_WAIT(priority=0x08, entity_id=Perih Vashai (ID: 17764470/0x010F1076), tag_num=0x07)
  7: 0x03B6 [0x29] REQ_SET_WAIT(priority=0x08, entity_id=Perih Vashai (ID: 17764470/0x010F1076), tag_num=0x08)
  8: 0x03BD [0x00] END_REQSTACK()
```
