# Event 65535

## Metadata

| Field           | Value    |
|-----------------|----------|
| Event Index     | 22/93    |
| Offset          | 0x0242   |
| Data Size       | 37 bytes |
| Calculated Size | 37 bytes |
| Instructions    | 9        |

```
      00 01 02 03 04 05 06 07  08 09 0A 0B 0C 0D 0E 0F
      -- -- -- -- -- -- -- --  -- -- -- -- -- -- -- --
0240:       29 08 76 10 0F 01  05 1D 10 80 23 1D 11 80    ).v.......#...
0250: 23 29 08 76 10 0F 01 06  29 08 76 10 0F 01 07 29  #).v....).v....)
0260: 08 76 10 0F 01 08 00                              .v.....         
```

## Opcodes

```
  0: 0x0242 [0x29] REQ_SET_WAIT(priority=0x08, entity_id=Perih Vashai (ID: 17764470/0x010F1076), tag_num=0x05)
  1: 0x0249 [0x1D] PRINT_EVENT_MESSAGE(message_id=8278*)
    → "Have you, my child, trod on many a land, drunk from many a rrrainfall, fought many a fine battle, and lived to see many a dawn?\u007F1\u0000\u0007"
  2: 0x024C [0x23] WAIT_FOR_DIALOG_INTERACTION
  3: 0x024D [0x1D] PRINT_EVENT_MESSAGE(message_id=8279*)
    → "Then truly I say unto you, unless you are apprrroved by the earth and the sky, how is it that you can say you are accepted by Mother Nature?\u007F1\u0000\u0007"
  4: 0x0250 [0x23] WAIT_FOR_DIALOG_INTERACTION
  5: 0x0251 [0x29] REQ_SET_WAIT(priority=0x08, entity_id=Perih Vashai (ID: 17764470/0x010F1076), tag_num=0x06)
  6: 0x0258 [0x29] REQ_SET_WAIT(priority=0x08, entity_id=Perih Vashai (ID: 17764470/0x010F1076), tag_num=0x07)
  7: 0x025F [0x29] REQ_SET_WAIT(priority=0x08, entity_id=Perih Vashai (ID: 17764470/0x010F1076), tag_num=0x08)
  8: 0x0266 [0x00] END_REQSTACK()
```
