# Event 65535

## Metadata

| Field           | Value    |
|-----------------|----------|
| Event Index     | 11/12    |
| Offset          | 0x0054   |
| Data Size       | 36 bytes |
| Calculated Size | 36 bytes |
| Instructions    | 7        |

```
      00 01 02 03 04 05 06 07  08 09 0A 0B 0C 0D 0E 0F
      -- -- -- -- -- -- -- --  -- -- -- -- -- -- -- --
0050:             32 07 80 1F  00 08 80 09 80 0A 80 1F      2...........
0060: 01 6F 7C 01 32 53 05 01  5B 0B 80 32 53 05 01 32  .o|.2S..[..2S..2
0070: 53 05 01 74 68 62 30 00                           S..thb0.        
```

## Opcodes

```
  0: 0x0054 [0x32] ExtData[1]->MainSpeed = 12* * 0.1
  1: 0x0057 [0x1F] MOVE_ENTITY: EventEntity moves to X=288.862*, Z=-239.602*, Y=3.999*
  2: 0x005F [0x1F] MOVE_ENTITY: Update entity position (mode=1)
  3: 0x0061 [0x6F] WAIT_FRAME_DELAY: Yield until WaitTime reaches zero
  4: 0x0062 [0x7C] Lehko Habhoka (ID: 17126194/0x01055332)->Render.Flags2 |= 0x01
  5: 0x0068 [0x5B] LOAD_EXT_SCHEDULER(work_offset=1446*, entity1=Lehko Habhoka (ID: 17126194/0x01055332), entity2=Lehko Habhoka (ID: 17126194/0x01055332), action="thb0")
  6: 0x0077 [0x00] END_REQSTACK()
```
