# 17510744 - Jyujin02

## Common Data

| Field            | Value                     |
|------------------|---------------------------|
| Zone             | Stellar Fulcrum (ID: 179) |
| Block Size       | 532 bytes                 |
| Total Events     | 27                        |
| References Count | 15                        |

## List of Events

| Event ID                   | Entrypoint   |   Size |   Instructions |
|----------------------------|--------------|--------|----------------|
| [65535](#event-65535)      | 0x0000       |      1 |              1 |
| [13](#event-13)            | 0x0001       |      7 |              2 |
| [65535.1](#event-655351)   | 0x0008       |      7 |              2 |
| [65535.2](#event-655352)   | 0x000F       |      8 |              3 |
| [65535.3](#event-655353)   | 0x0017       |      8 |              3 |
| [65535.4](#event-655354)   | 0x001F       |      8 |              3 |
| [65535.5](#event-655355)   | 0x0027       |      8 |              3 |
| [65535.6](#event-655356)   | 0x002F       |      8 |              3 |
| [65535.7](#event-655357)   | 0x0037       |      8 |              3 |
| [65535.8](#event-655358)   | 0x003F       |     16 |              2 |
| [65535.9](#event-655359)   | 0x004F       |     16 |              2 |
| [65535.10](#event-6553510) | 0x005F       |      8 |              3 |
| [65535.11](#event-6553511) | 0x0067       |     16 |              2 |
| [65535.12](#event-6553512) | 0x0077       |      8 |              3 |
| [65535.13](#event-6553513) | 0x007F       |     16 |              2 |
| [65535.14](#event-6553514) | 0x008F       |      8 |              3 |
| [65535.15](#event-6553515) | 0x0097       |     16 |              2 |
| [65535.16](#event-6553516) | 0x00A7       |     18 |              2 |
| [65535.17](#event-6553517) | 0x00B9       |     18 |              2 |
| [65535.18](#event-6553518) | 0x00CB       |     18 |              2 |
| [65535.19](#event-6553519) | 0x00DD       |     18 |              2 |
| [65535.20](#event-6553520) | 0x00EF       |     18 |              2 |
| [65535.21](#event-6553521) | 0x0101       |     18 |              2 |
| [65535.22](#event-6553522) | 0x0113       |     18 |              2 |
| [65535.23](#event-6553523) | 0x0125       |     18 |              2 |
| [65535.24](#event-6553524) | 0x0137       |     18 |              2 |
| [65535.25](#event-6553525) | 0x0149       |     18 |              2 |

## DAT References (imed_data)

|   Index | Hex Value   |   Dec Value |
|---------|-------------|-------------|
|       0 | 0x01F9      |         505 |
|       1 | 0x0001      |           1 |
|       2 | 0x0270      |         624 |
|       3 | 0x028B      |         651 |
|       4 | 0x0248      |         584 |
|       5 | 0x08DA      |        2266 |
|       6 | 0x0A44      |        2628 |
|       7 | 0x00B6      |         182 |
|       8 | 0x0A42      |        2626 |
|       9 | 0x03BA      |         954 |
|      10 | 0x0A3B      |        2619 |
|      11 | 0x007E      |         126 |
|      12 | 0x0A40      |        2624 |
|      13 | 0x005B      |          91 |
|      14 | 0x0000      |           0 |

## Events

### Event 65535

#### Metadata

| Field        | Value   |
|--------------|---------|
| Entrypoint   | 0x0000  |
| Data Size    | 1 bytes |
| Instructions | 1       |

```
      00 01 02 03 04 05 06 07  08 09 0A 0B 0C 0D 0E 0F
      -- -- -- -- -- -- -- --  -- -- -- -- -- -- -- --
0000: 00                                                .               
```

#### Opcodes

```
  0: 0x0000 [0x00] END_REQSTACK()
```

### Event 13

#### Metadata

| Field        | Value   |
|--------------|---------|
| Entrypoint   | 0x0001  |
| Data Size    | 7 bytes |
| Instructions | 2       |

```
      00 01 02 03 04 05 06 07  08 09 0A 0B 0C 0D 0E 0F
      -- -- -- -- -- -- -- --  -- -- -- -- -- -- -- --
0000:    92 01 F8 FF FF 7F 00                            .......        
```

#### Opcodes

```
  0: 0x0001 [0x92] EventEntity->Render.Flags3 ^= 0x01
  1: 0x0007 [0x00] END_REQSTACK()
```

### Event 65535.1

#### Metadata

| Field        | Value   |
|--------------|---------|
| Entrypoint   | 0x0008  |
| Data Size    | 7 bytes |
| Instructions | 2       |

```
      00 01 02 03 04 05 06 07  08 09 0A 0B 0C 0D 0E 0F
      -- -- -- -- -- -- -- --  -- -- -- -- -- -- -- --
0000:                          4E 00 58 31 0B 01 00             N.X1... 
```

#### Opcodes

```
  0: 0x0008 [0x4E] SET_ENTITY_HIDE_FLAG: Show Jyujin02 (ID: 17510744/0x010B3158)
  1: 0x000E [0x00] END_REQSTACK()
```

### Event 65535.2

#### Metadata

| Field        | Value   |
|--------------|---------|
| Entrypoint   | 0x000F  |
| Data Size    | 8 bytes |
| Instructions | 3       |

```
      00 01 02 03 04 05 06 07  08 09 0A 0B 0C 0D 0E 0F
      -- -- -- -- -- -- -- --  -- -- -- -- -- -- -- --
0000:                                               B6                 .
0010: 00 00 80 C0 01 80 00                              .......         
```

#### Opcodes

```
  0: 0x000F [0xB6] ENTITY_APPEARANCE_HANDLER(case=Hair style, value=505*)
  1: 0x0013 [0xC0] EventEntity->Render.Flags3 |= 0x1000 // Set bit 12 (from 1*)
  2: 0x0016 [0x00] END_REQSTACK()
```

### Event 65535.3

#### Metadata

| Field        | Value   |
|--------------|---------|
| Entrypoint   | 0x0017  |
| Data Size    | 8 bytes |
| Instructions | 3       |

```
      00 01 02 03 04 05 06 07  08 09 0A 0B 0C 0D 0E 0F
      -- -- -- -- -- -- -- --  -- -- -- -- -- -- -- --
0010:                      B6  00 02 80 C0 01 80 00            ........ 
```

#### Opcodes

```
  0: 0x0017 [0xB6] ENTITY_APPEARANCE_HANDLER(case=Hair style, value=624*)
  1: 0x001B [0xC0] EventEntity->Render.Flags3 |= 0x1000 // Set bit 12 (from 1*)
  2: 0x001E [0x00] END_REQSTACK()
```

### Event 65535.4

#### Metadata

| Field        | Value   |
|--------------|---------|
| Entrypoint   | 0x001F  |
| Data Size    | 8 bytes |
| Instructions | 3       |

```
      00 01 02 03 04 05 06 07  08 09 0A 0B 0C 0D 0E 0F
      -- -- -- -- -- -- -- --  -- -- -- -- -- -- -- --
0010:                                               B6                 .
0020: 00 02 80 C0 01 80 00                              .......         
```

#### Opcodes

```
  0: 0x001F [0xB6] ENTITY_APPEARANCE_HANDLER(case=Hair style, value=624*)
  1: 0x0023 [0xC0] EventEntity->Render.Flags3 |= 0x1000 // Set bit 12 (from 1*)
  2: 0x0026 [0x00] END_REQSTACK()
```

### Event 65535.5

#### Metadata

| Field        | Value   |
|--------------|---------|
| Entrypoint   | 0x0027  |
| Data Size    | 8 bytes |
| Instructions | 3       |

```
      00 01 02 03 04 05 06 07  08 09 0A 0B 0C 0D 0E 0F
      -- -- -- -- -- -- -- --  -- -- -- -- -- -- -- --
0020:                      B6  00 03 80 C0 01 80 00            ........ 
```

#### Opcodes

```
  0: 0x0027 [0xB6] ENTITY_APPEARANCE_HANDLER(case=Hair style, value=651*)
  1: 0x002B [0xC0] EventEntity->Render.Flags3 |= 0x1000 // Set bit 12 (from 1*)
  2: 0x002E [0x00] END_REQSTACK()
```

### Event 65535.6

#### Metadata

| Field        | Value   |
|--------------|---------|
| Entrypoint   | 0x002F  |
| Data Size    | 8 bytes |
| Instructions | 3       |

```
      00 01 02 03 04 05 06 07  08 09 0A 0B 0C 0D 0E 0F
      -- -- -- -- -- -- -- --  -- -- -- -- -- -- -- --
0020:                                               B6                 .
0030: 00 04 80 C0 01 80 00                              .......         
```

#### Opcodes

```
  0: 0x002F [0xB6] ENTITY_APPEARANCE_HANDLER(case=Hair style, value=584*)
  1: 0x0033 [0xC0] EventEntity->Render.Flags3 |= 0x1000 // Set bit 12 (from 1*)
  2: 0x0036 [0x00] END_REQSTACK()
```

### Event 65535.7

#### Metadata

| Field        | Value   |
|--------------|---------|
| Entrypoint   | 0x0037  |
| Data Size    | 8 bytes |
| Instructions | 3       |

```
      00 01 02 03 04 05 06 07  08 09 0A 0B 0C 0D 0E 0F
      -- -- -- -- -- -- -- --  -- -- -- -- -- -- -- --
0030:                      B6  00 05 80 C0 01 80 00            ........ 
```

#### Opcodes

```
  0: 0x0037 [0xB6] ENTITY_APPEARANCE_HANDLER(case=Hair style, value=2266*)
  1: 0x003B [0xC0] EventEntity->Render.Flags3 |= 0x1000 // Set bit 12 (from 1*)
  2: 0x003E [0x00] END_REQSTACK()
```

### Event 65535.8

#### Metadata

| Field        | Value    |
|--------------|----------|
| Entrypoint   | 0x003F   |
| Data Size    | 16 bytes |
| Instructions | 2        |

```
      00 01 02 03 04 05 06 07  08 09 0A 0B 0C 0D 0E 0F
      -- -- -- -- -- -- -- --  -- -- -- -- -- -- -- --
0030:                                               5B                 [
0040: 06 80 58 31 0B 01 58 31  0B 01 66 69 73 30 00     ..X1..X1..fis0. 
```

#### Opcodes

```
  0: 0x003F [0x5B] LOAD_EXT_SCHEDULER: Load scheduler "fis0" with entities [Jyujin02 (ID: 17510744/0x010B3158), Jyujin02 (ID: 17510744/0x010B3158)], work=2628*
  1: 0x004E [0x00] END_REQSTACK()
```

### Event 65535.9

#### Metadata

| Field        | Value    |
|--------------|----------|
| Entrypoint   | 0x004F   |
| Data Size    | 16 bytes |
| Instructions | 2        |

```
      00 01 02 03 04 05 06 07  08 09 0A 0B 0C 0D 0E 0F
      -- -- -- -- -- -- -- --  -- -- -- -- -- -- -- --
0040:                                               5B                 [
0050: 06 80 58 31 0B 01 58 31  0B 01 66 69 73 31 00     ..X1..X1..fis1. 
```

#### Opcodes

```
  0: 0x004F [0x5B] LOAD_EXT_SCHEDULER: Load scheduler "fis1" with entities [Jyujin02 (ID: 17510744/0x010B3158), Jyujin02 (ID: 17510744/0x010B3158)], work=2628*
  1: 0x005E [0x00] END_REQSTACK()
```

### Event 65535.10

#### Metadata

| Field        | Value   |
|--------------|---------|
| Entrypoint   | 0x005F  |
| Data Size    | 8 bytes |
| Instructions | 3       |

```
      00 01 02 03 04 05 06 07  08 09 0A 0B 0C 0D 0E 0F
      -- -- -- -- -- -- -- --  -- -- -- -- -- -- -- --
0050:                                               B6                 .
0060: 00 07 80 C0 01 80 00                              .......         
```

#### Opcodes

```
  0: 0x005F [0xB6] ENTITY_APPEARANCE_HANDLER(case=Hair style, value=182*)
  1: 0x0063 [0xC0] EventEntity->Render.Flags3 |= 0x1000 // Set bit 12 (from 1*)
  2: 0x0066 [0x00] END_REQSTACK()
```

### Event 65535.11

#### Metadata

| Field        | Value    |
|--------------|----------|
| Entrypoint   | 0x0067   |
| Data Size    | 16 bytes |
| Instructions | 2        |

```
      00 01 02 03 04 05 06 07  08 09 0A 0B 0C 0D 0E 0F
      -- -- -- -- -- -- -- --  -- -- -- -- -- -- -- --
0060:                      5B  08 80 58 31 0B 01 58 31         [..X1..X1
0070: 0B 01 65 64 30 30 00                              ..ed00.         
```

#### Opcodes

```
  0: 0x0067 [0x5B] LOAD_EXT_SCHEDULER: Load scheduler "ed00" with entities [Jyujin02 (ID: 17510744/0x010B3158), Jyujin02 (ID: 17510744/0x010B3158)], work=2626*
  1: 0x0076 [0x00] END_REQSTACK()
```

### Event 65535.12

#### Metadata

| Field        | Value   |
|--------------|---------|
| Entrypoint   | 0x0077  |
| Data Size    | 8 bytes |
| Instructions | 3       |

```
      00 01 02 03 04 05 06 07  08 09 0A 0B 0C 0D 0E 0F
      -- -- -- -- -- -- -- --  -- -- -- -- -- -- -- --
0070:                      B6  00 09 80 C0 01 80 00            ........ 
```

#### Opcodes

```
  0: 0x0077 [0xB6] ENTITY_APPEARANCE_HANDLER(case=Hair style, value=954*)
  1: 0x007B [0xC0] EventEntity->Render.Flags3 |= 0x1000 // Set bit 12 (from 1*)
  2: 0x007E [0x00] END_REQSTACK()
```

### Event 65535.13

#### Metadata

| Field        | Value    |
|--------------|----------|
| Entrypoint   | 0x007F   |
| Data Size    | 16 bytes |
| Instructions | 2        |

```
      00 01 02 03 04 05 06 07  08 09 0A 0B 0C 0D 0E 0F
      -- -- -- -- -- -- -- --  -- -- -- -- -- -- -- --
0070:                                               5B                 [
0080: 0A 80 58 31 0B 01 58 31  0B 01 65 64 30 30 00     ..X1..X1..ed00. 
```

#### Opcodes

```
  0: 0x007F [0x5B] LOAD_EXT_SCHEDULER: Load scheduler "ed00" with entities [Jyujin02 (ID: 17510744/0x010B3158), Jyujin02 (ID: 17510744/0x010B3158)], work=2619*
  1: 0x008E [0x00] END_REQSTACK()
```

### Event 65535.14

#### Metadata

| Field        | Value   |
|--------------|---------|
| Entrypoint   | 0x008F  |
| Data Size    | 8 bytes |
| Instructions | 3       |

```
      00 01 02 03 04 05 06 07  08 09 0A 0B 0C 0D 0E 0F
      -- -- -- -- -- -- -- --  -- -- -- -- -- -- -- --
0080:                                               B6                 .
0090: 00 0B 80 C0 01 80 00                              .......         
```

#### Opcodes

```
  0: 0x008F [0xB6] ENTITY_APPEARANCE_HANDLER(case=Hair style, value=126*)
  1: 0x0093 [0xC0] EventEntity->Render.Flags3 |= 0x1000 // Set bit 12 (from 1*)
  2: 0x0096 [0x00] END_REQSTACK()
```

### Event 65535.15

#### Metadata

| Field        | Value    |
|--------------|----------|
| Entrypoint   | 0x0097   |
| Data Size    | 16 bytes |
| Instructions | 2        |

```
      00 01 02 03 04 05 06 07  08 09 0A 0B 0C 0D 0E 0F
      -- -- -- -- -- -- -- --  -- -- -- -- -- -- -- --
0090:                      5B  0C 80 58 31 0B 01 58 31         [..X1..X1
00A0: 0B 01 65 6D 74 30 00                              ..emt0.         
```

#### Opcodes

```
  0: 0x0097 [0x5B] LOAD_EXT_SCHEDULER: Load scheduler "emt0" with entities [Jyujin02 (ID: 17510744/0x010B3158), Jyujin02 (ID: 17510744/0x010B3158)], work=2624*
  1: 0x00A6 [0x00] END_REQSTACK()
```

### Event 65535.16

#### Metadata

| Field        | Value    |
|--------------|----------|
| Entrypoint   | 0x00A7   |
| Data Size    | 18 bytes |
| Instructions | 2        |

```
      00 01 02 03 04 05 06 07  08 09 0A 0B 0C 0D 0E 0F
      -- -- -- -- -- -- -- --  -- -- -- -- -- -- -- --
00A0:                      C5  0D 80 58 31 0B 01 58 31         ...X1..X1
00B0: 0B 01 73 30 30 30 0E 80  00                       ..s000...       
```

#### Opcodes

```
  0: 0x00A7 [0xC5] LOAD_SCHEDULED_TASK_ALT3: Load scheduler 0x800E3030 for entities [Jyujin02 (ID: 17510744/0x010B3158), Jyujin02 (ID: 17510744/0x010B3158)], work=91*, param=12403
  1: 0x00B8 [0x00] END_REQSTACK()
```

### Event 65535.17

#### Metadata

| Field        | Value    |
|--------------|----------|
| Entrypoint   | 0x00B9   |
| Data Size    | 18 bytes |
| Instructions | 2        |

```
      00 01 02 03 04 05 06 07  08 09 0A 0B 0C 0D 0E 0F
      -- -- -- -- -- -- -- --  -- -- -- -- -- -- -- --
00B0:                             C5 0D 80 58 31 0B 01           ...X1..
00C0: 58 31 0B 01 73 30 30 31  0E 80 00                 X1..s001...     
```

#### Opcodes

```
  0: 0x00B9 [0xC5] LOAD_SCHEDULED_TASK_ALT3: Load scheduler 0x800E3130 for entities [Jyujin02 (ID: 17510744/0x010B3158), Jyujin02 (ID: 17510744/0x010B3158)], work=91*, param=12403
  1: 0x00CA [0x00] END_REQSTACK()
```

### Event 65535.18

#### Metadata

| Field        | Value    |
|--------------|----------|
| Entrypoint   | 0x00CB   |
| Data Size    | 18 bytes |
| Instructions | 2        |

```
      00 01 02 03 04 05 06 07  08 09 0A 0B 0C 0D 0E 0F
      -- -- -- -- -- -- -- --  -- -- -- -- -- -- -- --
00C0:                                   C5 0D 80 58 31             ...X1
00D0: 0B 01 58 31 0B 01 73 30  30 32 0E 80 00           ..X1..s002...   
```

#### Opcodes

```
  0: 0x00CB [0xC5] LOAD_SCHEDULED_TASK_ALT3: Load scheduler 0x800E3230 for entities [Jyujin02 (ID: 17510744/0x010B3158), Jyujin02 (ID: 17510744/0x010B3158)], work=91*, param=12403
  1: 0x00DC [0x00] END_REQSTACK()
```

### Event 65535.19

#### Metadata

| Field        | Value    |
|--------------|----------|
| Entrypoint   | 0x00DD   |
| Data Size    | 18 bytes |
| Instructions | 2        |

```
      00 01 02 03 04 05 06 07  08 09 0A 0B 0C 0D 0E 0F
      -- -- -- -- -- -- -- --  -- -- -- -- -- -- -- --
00D0:                                         C5 0D 80               ...
00E0: 58 31 0B 01 58 31 0B 01  73 30 30 33 0E 80 00     X1..X1..s003... 
```

#### Opcodes

```
  0: 0x00DD [0xC5] LOAD_SCHEDULED_TASK_ALT3: Load scheduler 0x800E3330 for entities [Jyujin02 (ID: 17510744/0x010B3158), Jyujin02 (ID: 17510744/0x010B3158)], work=91*, param=12403
  1: 0x00EE [0x00] END_REQSTACK()
```

### Event 65535.20

#### Metadata

| Field        | Value    |
|--------------|----------|
| Entrypoint   | 0x00EF   |
| Data Size    | 18 bytes |
| Instructions | 2        |

```
      00 01 02 03 04 05 06 07  08 09 0A 0B 0C 0D 0E 0F
      -- -- -- -- -- -- -- --  -- -- -- -- -- -- -- --
00E0:                                               C5                 .
00F0: 0D 80 58 31 0B 01 58 31  0B 01 73 74 70 30 0E 80  ..X1..X1..stp0..
0100: 00                                                .               
```

#### Opcodes

```
  0: 0x00EF [0xC5] LOAD_SCHEDULED_TASK_ALT3: Load scheduler 0x800E3070 for entities [Jyujin02 (ID: 17510744/0x010B3158), Jyujin02 (ID: 17510744/0x010B3158)], work=91*, param=29811
  1: 0x0100 [0x00] END_REQSTACK()
```

### Event 65535.21

#### Metadata

| Field        | Value    |
|--------------|----------|
| Entrypoint   | 0x0101   |
| Data Size    | 18 bytes |
| Instructions | 2        |

```
      00 01 02 03 04 05 06 07  08 09 0A 0B 0C 0D 0E 0F
      -- -- -- -- -- -- -- --  -- -- -- -- -- -- -- --
0100:    C5 0D 80 58 31 0B 01  58 31 0B 01 73 74 70 32   ...X1..X1..stp2
0110: 0E 80 00                                          ...             
```

#### Opcodes

```
  0: 0x0101 [0xC5] LOAD_SCHEDULED_TASK_ALT3: Load scheduler 0x800E3270 for entities [Jyujin02 (ID: 17510744/0x010B3158), Jyujin02 (ID: 17510744/0x010B3158)], work=91*, param=29811
  1: 0x0112 [0x00] END_REQSTACK()
```

### Event 65535.22

#### Metadata

| Field        | Value    |
|--------------|----------|
| Entrypoint   | 0x0113   |
| Data Size    | 18 bytes |
| Instructions | 2        |

```
      00 01 02 03 04 05 06 07  08 09 0A 0B 0C 0D 0E 0F
      -- -- -- -- -- -- -- --  -- -- -- -- -- -- -- --
0110:          C5 0D 80 58 31  0B 01 58 31 0B 01 73 74     ...X1..X1..st
0120: 70 33 0E 80 00                                    p3...           
```

#### Opcodes

```
  0: 0x0113 [0xC5] LOAD_SCHEDULED_TASK_ALT3: Load scheduler 0x800E3370 for entities [Jyujin02 (ID: 17510744/0x010B3158), Jyujin02 (ID: 17510744/0x010B3158)], work=91*, param=29811
  1: 0x0124 [0x00] END_REQSTACK()
```

### Event 65535.23

#### Metadata

| Field        | Value    |
|--------------|----------|
| Entrypoint   | 0x0125   |
| Data Size    | 18 bytes |
| Instructions | 2        |

```
      00 01 02 03 04 05 06 07  08 09 0A 0B 0C 0D 0E 0F
      -- -- -- -- -- -- -- --  -- -- -- -- -- -- -- --
0120:                C5 0D 80  58 31 0B 01 58 31 0B 01       ...X1..X1..
0130: 6B 69 6C 30 0E 80 00                              kil0...         
```

#### Opcodes

```
  0: 0x0125 [0xC5] LOAD_SCHEDULED_TASK_ALT3: Load scheduler 0x800E306C for entities [Jyujin02 (ID: 17510744/0x010B3158), Jyujin02 (ID: 17510744/0x010B3158)], work=91*, param=26987
  1: 0x0136 [0x00] END_REQSTACK()
```

### Event 65535.24

#### Metadata

| Field        | Value    |
|--------------|----------|
| Entrypoint   | 0x0137   |
| Data Size    | 18 bytes |
| Instructions | 2        |

```
      00 01 02 03 04 05 06 07  08 09 0A 0B 0C 0D 0E 0F
      -- -- -- -- -- -- -- --  -- -- -- -- -- -- -- --
0130:                      C5  0D 80 58 31 0B 01 58 31         ...X1..X1
0140: 0B 01 6B 69 6C 32 0E 80  00                       ..kil2...       
```

#### Opcodes

```
  0: 0x0137 [0xC5] LOAD_SCHEDULED_TASK_ALT3: Load scheduler 0x800E326C for entities [Jyujin02 (ID: 17510744/0x010B3158), Jyujin02 (ID: 17510744/0x010B3158)], work=91*, param=26987
  1: 0x0148 [0x00] END_REQSTACK()
```

### Event 65535.25

#### Metadata

| Field        | Value    |
|--------------|----------|
| Entrypoint   | 0x0149   |
| Data Size    | 18 bytes |
| Instructions | 2        |

```
      00 01 02 03 04 05 06 07  08 09 0A 0B 0C 0D 0E 0F
      -- -- -- -- -- -- -- --  -- -- -- -- -- -- -- --
0140:                             C5 0D 80 58 31 0B 01           ...X1..
0150: 58 31 0B 01 6B 69 6C 33  0E 80 00                 X1..kil3...     
```

#### Opcodes

```
  0: 0x0149 [0xC5] LOAD_SCHEDULED_TASK_ALT3: Load scheduler 0x800E336C for entities [Jyujin02 (ID: 17510744/0x010B3158), Jyujin02 (ID: 17510744/0x010B3158)], work=91*, param=26987
  1: 0x015A [0x00] END_REQSTACK()
```
