# 17510692 - Lion

## Common Data

| Field            | Value                     |
|------------------|---------------------------|
| Zone             | Stellar Fulcrum (ID: 179) |
| Block Size       | 820 bytes                 |
| Total Events     | 21                        |
| References Count | 36                        |

## List of Events

| Event ID                   | Entrypoint   |   Size |   Instructions |
|----------------------------|--------------|--------|----------------|
| [65535](#event-65535)      | 0x0000       |      7 |              2 |
| [0](#event-0)              | 0x0007       |     25 |              3 |
| [6](#event-6)              | 0x0020       |     10 |              2 |
| [17](#event-17)            | 0x002A       |     25 |              3 |
| [65535.1](#event-655351)   | 0x0043       |     34 |              5 |
| [65535.2](#event-655352)   | 0x0065       |     38 |              4 |
| [65535.3](#event-655353)   | 0x008B       |     29 |              3 |
| [65535.4](#event-655354)   | 0x00A8       |     29 |              3 |
| [65535.5](#event-655355)   | 0x00C5       |     29 |              3 |
| [65535.6](#event-655356)   | 0x00E2       |     66 |              6 |
| [65535.7](#event-655357)   | 0x0124       |     29 |              3 |
| [65535.8](#event-655358)   | 0x0141       |     29 |              3 |
| [65535.9](#event-655359)   | 0x015E       |     15 |              3 |
| [65535.10](#event-6553510) | 0x016D       |     15 |              3 |
| [65535.11](#event-6553511) | 0x017C       |     29 |              3 |
| [65535.12](#event-6553512) | 0x0199       |     29 |              3 |
| [65535.13](#event-6553513) | 0x01B6       |     49 |              5 |
| [65535.14](#event-6553514) | 0x01E7       |     48 |              5 |
| [65535.15](#event-6553515) | 0x0217       |     10 |              2 |
| [65535.16](#event-6553516) | 0x0221       |     30 |              8 |

## DAT References (imed_data)

|   Index | Hex Value   |   Dec Value |
|---------|-------------|-------------|
|       0 | 0xFFFFA9DB  |  4294945243 |
|       1 | 0xC15C      |       49500 |
|       2 | 0xFFFFFA24  |  4294965796 |
|       3 | 0x000A      |          10 |
|       4 | 0x0218      |         536 |
|       5 | 0x0001      |           1 |
|       6 | 0xFFFFE33C  |  4294959932 |
|       7 | 0xD5A1      |       54689 |
|       8 | 0xFFFFEE6C  |  4294962796 |
|       9 | 0x0ED1      |        3793 |
|      10 | 0x005A      |          90 |
|      11 | 0x00C8      |         200 |
|      12 | 0x0000      |           0 |
|      13 | 0xFFFFC8B0  |  4294953136 |
|      14 | 0xF7D4      |       63444 |
|      15 | 0x03E7      |         999 |
|      16 | 0x0071      |         113 |
|      17 | 0xFFFFCAA1  |  4294953633 |
|      18 | 0xE4EF      |       58607 |
|      19 | 0x03E8      |        1000 |
|      20 | 0x0FDF      |        4063 |
|      21 | 0x0032      |          50 |
|      22 | 0x004F      |          79 |
|      23 | 0xFFFFF7FC  |  4294965244 |
|      24 | 0xA3E2      |       41954 |
|      25 | 0x09C3      |        2499 |
|      26 | 0x004A      |          74 |
|      27 | 0xFFFFD241  |  4294955585 |
|      28 | 0xB47E      |       46206 |
|      29 | 0x0B52      |        2898 |
|      30 | 0x01CE      |         462 |
|      31 | 0x0028      |          40 |
|      32 | 0xFFFFF0BB  |  4294963387 |
|      33 | 0xA1BD      |       41405 |
|      34 | 0xFFFFF2C0  |  4294963904 |
|      35 | 0xA17D      |       41341 |

## Events

### Event 65535

#### Metadata

| Field        | Value   |
|--------------|---------|
| Entrypoint   | 0x0000  |
| Data Size    | 7 bytes |
| Instructions | 2       |

```
      00 01 02 03 04 05 06 07  08 09 0A 0B 0C 0D 0E 0F
      -- -- -- -- -- -- -- --  -- -- -- -- -- -- -- --
0000: 94 01 F8 FF FF 7F 00                              .......         
```

#### Opcodes

```
  0: 0x0000 [0x94] EventEntity->Render.Flags3 ^= 0x01
  1: 0x0006 [0x00] END_REQSTACK()
```

### Event 0

#### Metadata

| Field        | Value    |
|--------------|----------|
| Entrypoint   | 0x0007   |
| Data Size    | 25 bytes |
| Instructions | 3        |

```
      00 01 02 03 04 05 06 07  08 09 0A 0B 0C 0D 0E 0F
      -- -- -- -- -- -- -- --  -- -- -- -- -- -- -- --
0000:                      37  00 80 01 80 02 80 03 80         7........
0010: 5B 04 80 F0 FF FF 7F F0  FF FF 7F 00 FE FE FE 00  [...............
```

#### Opcodes

```
  0: 0x0007 [0x37] UPDATE_EVENT_POSITION_AND_DIR: x=-22.053*, z=49.500*, y=-1.500*, direction=0.9°*
  1: 0x0010 [0x5B] LOAD_EXT_SCHEDULER: Load scheduler 0xFEFEFE00 with entities [LocalPlayer, LocalPlayer], work=536*
  2: 0x001F [0x00] END_REQSTACK()
```

### Event 6

#### Metadata

| Field        | Value    |
|--------------|----------|
| Entrypoint   | 0x0020   |
| Data Size    | 10 bytes |
| Instructions | 2        |

```
      00 01 02 03 04 05 06 07  08 09 0A 0B 0C 0D 0E 0F
      -- -- -- -- -- -- -- --  -- -- -- -- -- -- -- --
0020: 37 00 80 01 80 02 80 03  80 00                    7.........      
```

#### Opcodes

```
  0: 0x0020 [0x37] UPDATE_EVENT_POSITION_AND_DIR: x=-22.053*, z=49.500*, y=-1.500*, direction=0.9°*
  1: 0x0029 [0x00] END_REQSTACK()
```

### Event 17

#### Metadata

| Field        | Value    |
|--------------|----------|
| Entrypoint   | 0x002A   |
| Data Size    | 25 bytes |
| Instructions | 3        |

```
      00 01 02 03 04 05 06 07  08 09 0A 0B 0C 0D 0E 0F
      -- -- -- -- -- -- -- --  -- -- -- -- -- -- -- --
0020:                                37 00 80 01 80 02            7.....
0030: 80 03 80 5B 04 80 F0 FF  FF 7F F0 FF FF 7F 00 FE  ...[............
0040: FE FE 00                                          ...             
```

#### Opcodes

```
  0: 0x002A [0x37] UPDATE_EVENT_POSITION_AND_DIR: x=-22.053*, z=49.500*, y=-1.500*, direction=0.9°*
  1: 0x0033 [0x5B] LOAD_EXT_SCHEDULER: Load scheduler 0xFEFEFE00 with entities [LocalPlayer, LocalPlayer], work=536*
  2: 0x0042 [0x00] END_REQSTACK()
```

### Event 65535.1

#### Metadata

| Field        | Value    |
|--------------|----------|
| Entrypoint   | 0x0043   |
| Data Size    | 34 bytes |
| Instructions | 5        |

```
      00 01 02 03 04 05 06 07  08 09 0A 0B 0C 0D 0E 0F
      -- -- -- -- -- -- -- --  -- -- -- -- -- -- -- --
0040:          5B 04 80 F8 FF  FF 7F F8 FF FF 7F 64 6C     [..........dl
0050: 30 30 1C 05 80 22 00 53  F8 FF FF 7F F8 FF FF 7F  00...".S........
0060: 64 6C 30 30 00                                    dl00.           
```

#### Opcodes

```
  0: 0x0043 [0x5B] LOAD_EXT_SCHEDULER: Load scheduler "dl00" with entities [EventEntity, EventEntity], work=536*
  1: 0x0052 [0x1C] WAIT(1* ticks)
  2: 0x0055 [0x22] ENTITY_HIDE_FLAG(enabled=0x00)
  3: 0x0057 [0x53] WAIT_SCHEDULER_TASK: Wait for scheduler "dl00" with entities [EventEntity, EventEntity]
  4: 0x0064 [0x00] END_REQSTACK()
```

### Event 65535.2

#### Metadata

| Field        | Value    |
|--------------|----------|
| Entrypoint   | 0x0065   |
| Data Size    | 38 bytes |
| Instructions | 4        |

```
      00 01 02 03 04 05 06 07  08 09 0A 0B 0C 0D 0E 0F
      -- -- -- -- -- -- -- --  -- -- -- -- -- -- -- --
0060:                37 06 80  07 80 08 80 09 80 5B 04       7........[.
0070: 80 F8 FF FF 7F F8 FF FF  7F 64 6C 30 31 53 F8 FF  .........dl01S..
0080: FF 7F F8 FF FF 7F 64 6C  30 31 00                 ......dl01.     
```

#### Opcodes

```
  0: 0x0065 [0x37] UPDATE_EVENT_POSITION_AND_DIR: x=-7.364*, z=54.689*, y=-4.500*, direction=333.4°*
  1: 0x006E [0x5B] LOAD_EXT_SCHEDULER: Load scheduler "dl01" with entities [EventEntity, EventEntity], work=536*
  2: 0x007D [0x53] WAIT_SCHEDULER_TASK: Wait for scheduler "dl01" with entities [EventEntity, EventEntity]
  3: 0x008A [0x00] END_REQSTACK()
```

### Event 65535.3

#### Metadata

| Field        | Value    |
|--------------|----------|
| Entrypoint   | 0x008B   |
| Data Size    | 29 bytes |
| Instructions | 3        |

```
      00 01 02 03 04 05 06 07  08 09 0A 0B 0C 0D 0E 0F
      -- -- -- -- -- -- -- --  -- -- -- -- -- -- -- --
0080:                                   5B 04 80 F8 FF             [....
0090: FF 7F F8 FF FF 7F 64 6C  30 32 53 F8 FF FF 7F F8  ......dl02S.....
00A0: FF FF 7F 64 6C 30 32 00                           ...dl02.        
```

#### Opcodes

```
  0: 0x008B [0x5B] LOAD_EXT_SCHEDULER: Load scheduler "dl02" with entities [EventEntity, EventEntity], work=536*
  1: 0x009A [0x53] WAIT_SCHEDULER_TASK: Wait for scheduler "dl02" with entities [EventEntity, EventEntity]
  2: 0x00A7 [0x00] END_REQSTACK()
```

### Event 65535.4

#### Metadata

| Field        | Value    |
|--------------|----------|
| Entrypoint   | 0x00A8   |
| Data Size    | 29 bytes |
| Instructions | 3        |

```
      00 01 02 03 04 05 06 07  08 09 0A 0B 0C 0D 0E 0F
      -- -- -- -- -- -- -- --  -- -- -- -- -- -- -- --
00A0:                          5B 04 80 F8 FF FF 7F F8          [.......
00B0: FF FF 7F 64 6C 30 33 53  F8 FF FF 7F F8 FF FF 7F  ...dl03S........
00C0: 64 6C 30 33 00                                    dl03.           
```

#### Opcodes

```
  0: 0x00A8 [0x5B] LOAD_EXT_SCHEDULER: Load scheduler "dl03" with entities [EventEntity, EventEntity], work=536*
  1: 0x00B7 [0x53] WAIT_SCHEDULER_TASK: Wait for scheduler "dl03" with entities [EventEntity, EventEntity]
  2: 0x00C4 [0x00] END_REQSTACK()
```

### Event 65535.5

#### Metadata

| Field        | Value    |
|--------------|----------|
| Entrypoint   | 0x00C5   |
| Data Size    | 29 bytes |
| Instructions | 3        |

```
      00 01 02 03 04 05 06 07  08 09 0A 0B 0C 0D 0E 0F
      -- -- -- -- -- -- -- --  -- -- -- -- -- -- -- --
00C0:                5B 04 80  F8 FF FF 7F F8 FF FF 7F       [..........
00D0: 64 6C 30 34 53 F8 FF FF  7F F8 FF FF 7F 64 6C 30  dl04S........dl0
00E0: 34 00                                             4.              
```

#### Opcodes

```
  0: 0x00C5 [0x5B] LOAD_EXT_SCHEDULER: Load scheduler "dl04" with entities [EventEntity, EventEntity], work=536*
  1: 0x00D4 [0x53] WAIT_SCHEDULER_TASK: Wait for scheduler "dl04" with entities [EventEntity, EventEntity]
  2: 0x00E1 [0x00] END_REQSTACK()
```

### Event 65535.6

#### Metadata

| Field        | Value    |
|--------------|----------|
| Entrypoint   | 0x00E2   |
| Data Size    | 66 bytes |
| Instructions | 6        |

```
      00 01 02 03 04 05 06 07  08 09 0A 0B 0C 0D 0E 0F
      -- -- -- -- -- -- -- --  -- -- -- -- -- -- -- --
00E0:       5B 04 80 F8 FF FF  7F F8 FF FF 7F 64 6C 30    [..........dl0
00F0: 35 1C 0A 80 45 0B 80 F0  FF FF 7F F0 FF FF 7F 62  5...E..........b
0100: 6C 6F 6E 0C 80 53 F8 FF  FF 7F F8 FF FF 7F 64 6C  lon..S........dl
0110: 30 35 45 0B 80 F0 FF FF  7F F0 FF FF 7F 62 6C 6F  05E..........blo
0120: 66 0C 80 00                                       f...            
```

#### Opcodes

```
  0: 0x00E2 [0x5B] LOAD_EXT_SCHEDULER: Load scheduler "dl05" with entities [EventEntity, EventEntity], work=536*
  1: 0x00F1 [0x1C] WAIT(90* ticks)
  2: 0x00F4 [0x45] LOAD_SCHEDULED_TASK: Load scheduler "blon" with entities [LocalPlayer, LocalPlayer], work=[200*, 0*]
  3: 0x0105 [0x53] WAIT_SCHEDULER_TASK: Wait for scheduler "dl05" with entities [EventEntity, EventEntity]
  4: 0x0112 [0x45] LOAD_SCHEDULED_TASK: Load scheduler "blof" with entities [LocalPlayer, LocalPlayer], work=[200*, 0*]
  5: 0x0123 [0x00] END_REQSTACK()
```

### Event 65535.7

#### Metadata

| Field        | Value    |
|--------------|----------|
| Entrypoint   | 0x0124   |
| Data Size    | 29 bytes |
| Instructions | 3        |

```
      00 01 02 03 04 05 06 07  08 09 0A 0B 0C 0D 0E 0F
      -- -- -- -- -- -- -- --  -- -- -- -- -- -- -- --
0120:             5B 04 80 F8  FF FF 7F F8 FF FF 7F 64      [..........d
0130: 75 6D 30 53 F8 FF FF 7F  F8 FF FF 7F 64 75 6D 30  um0S........dum0
0140: 00                                                .               
```

#### Opcodes

```
  0: 0x0124 [0x5B] LOAD_EXT_SCHEDULER: Load scheduler "dum0" with entities [EventEntity, EventEntity], work=536*
  1: 0x0133 [0x53] WAIT_SCHEDULER_TASK: Wait for scheduler "dum0" with entities [EventEntity, EventEntity]
  2: 0x0140 [0x00] END_REQSTACK()
```

### Event 65535.8

#### Metadata

| Field        | Value    |
|--------------|----------|
| Entrypoint   | 0x0141   |
| Data Size    | 29 bytes |
| Instructions | 3        |

```
      00 01 02 03 04 05 06 07  08 09 0A 0B 0C 0D 0E 0F
      -- -- -- -- -- -- -- --  -- -- -- -- -- -- -- --
0140:    5B 04 80 F8 FF FF 7F  F8 FF FF 7F 64 6C 30 36   [..........dl06
0150: 53 F8 FF FF 7F F8 FF FF  7F 64 6C 30 36 00        S........dl06.  
```

#### Opcodes

```
  0: 0x0141 [0x5B] LOAD_EXT_SCHEDULER: Load scheduler "dl06" with entities [EventEntity, EventEntity], work=536*
  1: 0x0150 [0x53] WAIT_SCHEDULER_TASK: Wait for scheduler "dl06" with entities [EventEntity, EventEntity]
  2: 0x015D [0x00] END_REQSTACK()
```

### Event 65535.9

#### Metadata

| Field        | Value    |
|--------------|----------|
| Entrypoint   | 0x015E   |
| Data Size    | 15 bytes |
| Instructions | 3        |

```
      00 01 02 03 04 05 06 07  08 09 0A 0B 0C 0D 0E 0F
      -- -- -- -- -- -- -- --  -- -- -- -- -- -- -- --
0150:                                            37 0D                7.
0160: 80 0E 80 0F 80 10 80 80  F8 FF FF 7F 00           .............   
```

#### Opcodes

```
  0: 0x015E [0x37] UPDATE_EVENT_POSITION_AND_DIR: x=-14.160*, z=63.444*, y=0.999*, direction=9.9°*
  1: 0x0167 [0x80] LOAD_WAIT(entity=EventEntity)
  2: 0x016C [0x00] END_REQSTACK()
```

### Event 65535.10

#### Metadata

| Field        | Value    |
|--------------|----------|
| Entrypoint   | 0x016D   |
| Data Size    | 15 bytes |
| Instructions | 3        |

```
      00 01 02 03 04 05 06 07  08 09 0A 0B 0C 0D 0E 0F
      -- -- -- -- -- -- -- --  -- -- -- -- -- -- -- --
0160:                                         37 11 80               7..
0170: 12 80 13 80 14 80 80 F8  FF FF 7F 00              ............    
```

#### Opcodes

```
  0: 0x016D [0x37] UPDATE_EVENT_POSITION_AND_DIR: x=-13.663*, z=58.607*, y=1.000*, direction=357.1°*
  1: 0x0176 [0x80] LOAD_WAIT(entity=EventEntity)
  2: 0x017B [0x00] END_REQSTACK()
```

### Event 65535.11

#### Metadata

| Field        | Value    |
|--------------|----------|
| Entrypoint   | 0x017C   |
| Data Size    | 29 bytes |
| Instructions | 3        |

```
      00 01 02 03 04 05 06 07  08 09 0A 0B 0C 0D 0E 0F
      -- -- -- -- -- -- -- --  -- -- -- -- -- -- -- --
0170:                                      5B 04 80 F8              [...
0180: FF FF 7F F8 FF FF 7F 64  6C 30 37 53 F8 FF FF 7F  .......dl07S....
0190: F8 FF FF 7F 64 6C 30 37  00                       ....dl07.       
```

#### Opcodes

```
  0: 0x017C [0x5B] LOAD_EXT_SCHEDULER: Load scheduler "dl07" with entities [EventEntity, EventEntity], work=536*
  1: 0x018B [0x53] WAIT_SCHEDULER_TASK: Wait for scheduler "dl07" with entities [EventEntity, EventEntity]
  2: 0x0198 [0x00] END_REQSTACK()
```

### Event 65535.12

#### Metadata

| Field        | Value    |
|--------------|----------|
| Entrypoint   | 0x0199   |
| Data Size    | 29 bytes |
| Instructions | 3        |

```
      00 01 02 03 04 05 06 07  08 09 0A 0B 0C 0D 0E 0F
      -- -- -- -- -- -- -- --  -- -- -- -- -- -- -- --
0190:                             5B 04 80 F8 FF FF 7F           [......
01A0: F8 FF FF 7F 64 6C 30 38  53 F8 FF FF 7F F8 FF FF  ....dl08S.......
01B0: 7F 64 6C 30 38 00                                 .dl08.          
```

#### Opcodes

```
  0: 0x0199 [0x5B] LOAD_EXT_SCHEDULER: Load scheduler "dl08" with entities [EventEntity, EventEntity], work=536*
  1: 0x01A8 [0x53] WAIT_SCHEDULER_TASK: Wait for scheduler "dl08" with entities [EventEntity, EventEntity]
  2: 0x01B5 [0x00] END_REQSTACK()
```

### Event 65535.13

#### Metadata

| Field        | Value    |
|--------------|----------|
| Entrypoint   | 0x01B6   |
| Data Size    | 49 bytes |
| Instructions | 5        |

```
      00 01 02 03 04 05 06 07  08 09 0A 0B 0C 0D 0E 0F
      -- -- -- -- -- -- -- --  -- -- -- -- -- -- -- --
01B0:                   5B 04  80 F8 FF FF 7F F8 FF FF        [.........
01C0: 7F 64 6C 30 38 1C 15 80  45 16 80 F0 FF FF 7F F0  .dl08...E.......
01D0: FF FF 7F 72 30 31 30 0C  80 53 F8 FF FF 7F F8 FF  ...r010..S......
01E0: FF 7F 64 6C 30 38 00                              ..dl08.         
```

#### Opcodes

```
  0: 0x01B6 [0x5B] LOAD_EXT_SCHEDULER: Load scheduler "dl08" with entities [EventEntity, EventEntity], work=536*
  1: 0x01C5 [0x1C] WAIT(50* ticks)
  2: 0x01C8 [0x45] LOAD_SCHEDULED_TASK: Load scheduler "r010" with entities [LocalPlayer, LocalPlayer], work=[79*, 0*]
  3: 0x01D9 [0x53] WAIT_SCHEDULER_TASK: Wait for scheduler "dl08" with entities [EventEntity, EventEntity]
  4: 0x01E6 [0x00] END_REQSTACK()
```

### Event 65535.14

#### Metadata

| Field        | Value    |
|--------------|----------|
| Entrypoint   | 0x01E7   |
| Data Size    | 48 bytes |
| Instructions | 5        |

```
      00 01 02 03 04 05 06 07  08 09 0A 0B 0C 0D 0E 0F
      -- -- -- -- -- -- -- --  -- -- -- -- -- -- -- --
01E0:                      37  17 80 18 80 19 80 1A 80         7........
01F0: 79 00 F8 FF FF 7F 25 31  0B 01 5B 04 80 F8 FF FF  y.....%1..[.....
0200: 7F F8 FF FF 7F 64 6C 30  39 53 F8 FF FF 7F F8 FF  .....dl09S......
0210: FF 7F 64 6C 30 39 00                              ..dl09.         
```

#### Opcodes

```
  0: 0x01E7 [0x37] UPDATE_EVENT_POSITION_AND_DIR: x=-2.052*, z=41.954*, y=2.499*, direction=6.5°*
  1: 0x01F0 [0x79] EventEntity looks at Zeid (ID: 17510693/0x010B3125) (Basic look)
  2: 0x01FA [0x5B] LOAD_EXT_SCHEDULER: Load scheduler "dl09" with entities [EventEntity, EventEntity], work=536*
  3: 0x0209 [0x53] WAIT_SCHEDULER_TASK: Wait for scheduler "dl09" with entities [EventEntity, EventEntity]
  4: 0x0216 [0x00] END_REQSTACK()
```

### Event 65535.15

#### Metadata

| Field        | Value    |
|--------------|----------|
| Entrypoint   | 0x0217   |
| Data Size    | 10 bytes |
| Instructions | 2        |

```
      00 01 02 03 04 05 06 07  08 09 0A 0B 0C 0D 0E 0F
      -- -- -- -- -- -- -- --  -- -- -- -- -- -- -- --
0210:                      37  1B 80 1C 80 1D 80 1E 80         7........
0220: 00                                                .               
```

#### Opcodes

```
  0: 0x0217 [0x37] UPDATE_EVENT_POSITION_AND_DIR: x=-11.711*, z=46.206*, y=2.898*, direction=40.6°*
  1: 0x0220 [0x00] END_REQSTACK()
```

### Event 65535.16

#### Metadata

| Field        | Value    |
|--------------|----------|
| Entrypoint   | 0x0221   |
| Data Size    | 30 bytes |
| Instructions | 8        |

```
      00 01 02 03 04 05 06 07  08 09 0A 0B 0C 0D 0E 0F
      -- -- -- -- -- -- -- --  -- -- -- -- -- -- -- --
0220:    32 1F 80 1F 00 20 80  21 80 19 80 1F 01 1F 00   2.... .!.......
0230: 22 80 23 80 19 80 1F 01  6F 1E F0 FF FF 7F 00     ".#.....o...... 
```

#### Opcodes

```
  0: 0x0221 [0x32] ExtData[1]->MainSpeed = 40* * 0.1
  1: 0x0224 [0x1F] MOVE_ENTITY: EventEntity moves to X=-3.909*, Z=41.405*, Y=2.499*
  2: 0x022C [0x1F] MOVE_ENTITY: Update entity position (mode=1)
  3: 0x022E [0x1F] MOVE_ENTITY: EventEntity moves to X=-3.392*, Z=41.341*, Y=2.499*
  4: 0x0236 [0x1F] MOVE_ENTITY: Update entity position (mode=1)
  5: 0x0238 [0x6F] WAIT_FRAME_DELAY: Yield until WaitTime reaches zero
  6: 0x0239 [0x1E] EventEntity looks at LocalPlayer and starts talking
  7: 0x023E [0x00] END_REQSTACK()
```
