# 17510746 - Jyujin04

## Common Data

| Field            | Value                     |
|------------------|---------------------------|
| Zone             | Stellar Fulcrum (ID: 179) |
| Block Size       | 420 bytes                 |
| Total Events     | 21                        |
| References Count | 12                        |

## List of Events

| Event ID                   | Entrypoint   |   Size |   Instructions |
|----------------------------|--------------|--------|----------------|
| [65535](#event-65535)      | 0x0000       |      1 |              1 |
| [13](#event-13)            | 0x0001       |      7 |              2 |
| [65535.1](#event-655351)   | 0x0008       |      7 |              2 |
| [65535.2](#event-655352)   | 0x000F       |      8 |              3 |
| [65535.3](#event-655353)   | 0x0017       |      8 |              3 |
| [65535.4](#event-655354)   | 0x001F       |      8 |              3 |
| [65535.5](#event-655355)   | 0x0027       |      8 |              3 |
| [65535.6](#event-655356)   | 0x002F       |      8 |              3 |
| [65535.7](#event-655357)   | 0x0037       |     12 |              4 |
| [65535.8](#event-655358)   | 0x0043       |     16 |              2 |
| [65535.9](#event-655359)   | 0x0053       |     18 |              2 |
| [65535.10](#event-6553510) | 0x0065       |     18 |              2 |
| [65535.11](#event-6553511) | 0x0077       |     18 |              2 |
| [65535.12](#event-6553512) | 0x0089       |     18 |              2 |
| [65535.13](#event-6553513) | 0x009B       |     18 |              2 |
| [65535.14](#event-6553514) | 0x00AD       |     18 |              2 |
| [65535.15](#event-6553515) | 0x00BF       |     18 |              2 |
| [65535.16](#event-6553516) | 0x00D1       |     18 |              2 |
| [65535.17](#event-6553517) | 0x00E3       |     18 |              2 |
| [65535.18](#event-6553518) | 0x00F5       |     18 |              2 |
| [65535.19](#event-6553519) | 0x0107       |      8 |              3 |

## DAT References (imed_data)

|   Index | Hex Value   |   Dec Value |
|---------|-------------|-------------|
|       0 | 0x01ED      |         493 |
|       1 | 0x0001      |           1 |
|       2 | 0x0270      |         624 |
|       3 | 0x0154      |         340 |
|       4 | 0x0148      |         328 |
|       5 | 0x012C      |         300 |
|       6 | 0x00AC      |         172 |
|       7 | 0x004B      |          75 |
|       8 | 0x0A47      |        2631 |
|       9 | 0x005B      |          91 |
|      10 | 0x0000      |           0 |
|      11 | 0x0061      |          97 |

## Events

### Event 65535

#### Metadata

| Field        | Value   |
|--------------|---------|
| Entrypoint   | 0x0000  |
| Data Size    | 1 bytes |
| Instructions | 1       |

```
      00 01 02 03 04 05 06 07  08 09 0A 0B 0C 0D 0E 0F
      -- -- -- -- -- -- -- --  -- -- -- -- -- -- -- --
0000: 00                                                .               
```

#### Opcodes

```
  0: 0x0000 [0x00] END_REQSTACK()
```

### Event 13

#### Metadata

| Field        | Value   |
|--------------|---------|
| Entrypoint   | 0x0001  |
| Data Size    | 7 bytes |
| Instructions | 2       |

```
      00 01 02 03 04 05 06 07  08 09 0A 0B 0C 0D 0E 0F
      -- -- -- -- -- -- -- --  -- -- -- -- -- -- -- --
0000:    92 01 F8 FF FF 7F 00                            .......        
```

#### Opcodes

```
  0: 0x0001 [0x92] EventEntity->Render.Flags3 ^= 0x01
  1: 0x0007 [0x00] END_REQSTACK()
```

### Event 65535.1

#### Metadata

| Field        | Value   |
|--------------|---------|
| Entrypoint   | 0x0008  |
| Data Size    | 7 bytes |
| Instructions | 2       |

```
      00 01 02 03 04 05 06 07  08 09 0A 0B 0C 0D 0E 0F
      -- -- -- -- -- -- -- --  -- -- -- -- -- -- -- --
0000:                          4E 00 5A 31 0B 01 00             N.Z1... 
```

#### Opcodes

```
  0: 0x0008 [0x4E] SET_ENTITY_HIDE_FLAG: Show Jyujin04 (ID: 17510746/0x010B315A)
  1: 0x000E [0x00] END_REQSTACK()
```

### Event 65535.2

#### Metadata

| Field        | Value   |
|--------------|---------|
| Entrypoint   | 0x000F  |
| Data Size    | 8 bytes |
| Instructions | 3       |

```
      00 01 02 03 04 05 06 07  08 09 0A 0B 0C 0D 0E 0F
      -- -- -- -- -- -- -- --  -- -- -- -- -- -- -- --
0000:                                               B6                 .
0010: 00 00 80 C0 01 80 00                              .......         
```

#### Opcodes

```
  0: 0x000F [0xB6] ENTITY_APPEARANCE_HANDLER(case=Hair style, value=493*)
  1: 0x0013 [0xC0] EventEntity->Render.Flags3 |= 0x1000 // Set bit 12 (from 1*)
  2: 0x0016 [0x00] END_REQSTACK()
```

### Event 65535.3

#### Metadata

| Field        | Value   |
|--------------|---------|
| Entrypoint   | 0x0017  |
| Data Size    | 8 bytes |
| Instructions | 3       |

```
      00 01 02 03 04 05 06 07  08 09 0A 0B 0C 0D 0E 0F
      -- -- -- -- -- -- -- --  -- -- -- -- -- -- -- --
0010:                      B6  00 02 80 C0 01 80 00            ........ 
```

#### Opcodes

```
  0: 0x0017 [0xB6] ENTITY_APPEARANCE_HANDLER(case=Hair style, value=624*)
  1: 0x001B [0xC0] EventEntity->Render.Flags3 |= 0x1000 // Set bit 12 (from 1*)
  2: 0x001E [0x00] END_REQSTACK()
```

### Event 65535.4

#### Metadata

| Field        | Value   |
|--------------|---------|
| Entrypoint   | 0x001F  |
| Data Size    | 8 bytes |
| Instructions | 3       |

```
      00 01 02 03 04 05 06 07  08 09 0A 0B 0C 0D 0E 0F
      -- -- -- -- -- -- -- --  -- -- -- -- -- -- -- --
0010:                                               B6                 .
0020: 00 03 80 C0 01 80 00                              .......         
```

#### Opcodes

```
  0: 0x001F [0xB6] ENTITY_APPEARANCE_HANDLER(case=Hair style, value=340*)
  1: 0x0023 [0xC0] EventEntity->Render.Flags3 |= 0x1000 // Set bit 12 (from 1*)
  2: 0x0026 [0x00] END_REQSTACK()
```

### Event 65535.5

#### Metadata

| Field        | Value   |
|--------------|---------|
| Entrypoint   | 0x0027  |
| Data Size    | 8 bytes |
| Instructions | 3       |

```
      00 01 02 03 04 05 06 07  08 09 0A 0B 0C 0D 0E 0F
      -- -- -- -- -- -- -- --  -- -- -- -- -- -- -- --
0020:                      B6  00 04 80 C0 01 80 00            ........ 
```

#### Opcodes

```
  0: 0x0027 [0xB6] ENTITY_APPEARANCE_HANDLER(case=Hair style, value=328*)
  1: 0x002B [0xC0] EventEntity->Render.Flags3 |= 0x1000 // Set bit 12 (from 1*)
  2: 0x002E [0x00] END_REQSTACK()
```

### Event 65535.6

#### Metadata

| Field        | Value   |
|--------------|---------|
| Entrypoint   | 0x002F  |
| Data Size    | 8 bytes |
| Instructions | 3       |

```
      00 01 02 03 04 05 06 07  08 09 0A 0B 0C 0D 0E 0F
      -- -- -- -- -- -- -- --  -- -- -- -- -- -- -- --
0020:                                               B6                 .
0030: 00 05 80 C0 01 80 00                              .......         
```

#### Opcodes

```
  0: 0x002F [0xB6] ENTITY_APPEARANCE_HANDLER(case=Hair style, value=300*)
  1: 0x0033 [0xC0] EventEntity->Render.Flags3 |= 0x1000 // Set bit 12 (from 1*)
  2: 0x0036 [0x00] END_REQSTACK()
```

### Event 65535.7

#### Metadata

| Field        | Value    |
|--------------|----------|
| Entrypoint   | 0x0037   |
| Data Size    | 12 bytes |
| Instructions | 4        |

```
      00 01 02 03 04 05 06 07  08 09 0A 0B 0C 0D 0E 0F
      -- -- -- -- -- -- -- --  -- -- -- -- -- -- -- --
0030:                      B6  00 06 80 B6 0F 07 80 C0         .........
0040: 01 80 00                                          ...             
```

#### Opcodes

```
  0: 0x0037 [0xB6] ENTITY_APPEARANCE_HANDLER(case=Hair style, value=172*)
  1: 0x003B [0xB6] ENTITY_APPEARANCE_HANDLER(case=Model size, value=75*)
  2: 0x003F [0xC0] EventEntity->Render.Flags3 |= 0x1000 // Set bit 12 (from 1*)
  3: 0x0042 [0x00] END_REQSTACK()
```

### Event 65535.8

#### Metadata

| Field        | Value    |
|--------------|----------|
| Entrypoint   | 0x0043   |
| Data Size    | 16 bytes |
| Instructions | 2        |

```
      00 01 02 03 04 05 06 07  08 09 0A 0B 0C 0D 0E 0F
      -- -- -- -- -- -- -- --  -- -- -- -- -- -- -- --
0040:          5B 08 80 5A 31  0B 01 5A 31 0B 01 65 64     [..Z1..Z1..ed
0050: 66 30 00                                          f0.             
```

#### Opcodes

```
  0: 0x0043 [0x5B] LOAD_EXT_SCHEDULER: Load scheduler "edf0" with entities [Jyujin04 (ID: 17510746/0x010B315A), Jyujin04 (ID: 17510746/0x010B315A)], work=2631*
  1: 0x0052 [0x00] END_REQSTACK()
```

### Event 65535.9

#### Metadata

| Field        | Value    |
|--------------|----------|
| Entrypoint   | 0x0053   |
| Data Size    | 18 bytes |
| Instructions | 2        |

```
      00 01 02 03 04 05 06 07  08 09 0A 0B 0C 0D 0E 0F
      -- -- -- -- -- -- -- --  -- -- -- -- -- -- -- --
0050:          C5 09 80 5A 31  0B 01 5A 31 0B 01 73 30     ...Z1..Z1..s0
0060: 30 30 0A 80 00                                    00...           
```

#### Opcodes

```
  0: 0x0053 [0xC5] LOAD_SCHEDULED_TASK_ALT3: Load scheduler 0x800A3030 for entities [Jyujin04 (ID: 17510746/0x010B315A), Jyujin04 (ID: 17510746/0x010B315A)], work=91*, param=12403
  1: 0x0064 [0x00] END_REQSTACK()
```

### Event 65535.10

#### Metadata

| Field        | Value    |
|--------------|----------|
| Entrypoint   | 0x0065   |
| Data Size    | 18 bytes |
| Instructions | 2        |

```
      00 01 02 03 04 05 06 07  08 09 0A 0B 0C 0D 0E 0F
      -- -- -- -- -- -- -- --  -- -- -- -- -- -- -- --
0060:                C5 09 80  5A 31 0B 01 5A 31 0B 01       ...Z1..Z1..
0070: 73 30 30 31 0A 80 00                              s001...         
```

#### Opcodes

```
  0: 0x0065 [0xC5] LOAD_SCHEDULED_TASK_ALT3: Load scheduler 0x800A3130 for entities [Jyujin04 (ID: 17510746/0x010B315A), Jyujin04 (ID: 17510746/0x010B315A)], work=91*, param=12403
  1: 0x0076 [0x00] END_REQSTACK()
```

### Event 65535.11

#### Metadata

| Field        | Value    |
|--------------|----------|
| Entrypoint   | 0x0077   |
| Data Size    | 18 bytes |
| Instructions | 2        |

```
      00 01 02 03 04 05 06 07  08 09 0A 0B 0C 0D 0E 0F
      -- -- -- -- -- -- -- --  -- -- -- -- -- -- -- --
0070:                      C5  09 80 5A 31 0B 01 5A 31         ...Z1..Z1
0080: 0B 01 73 30 30 32 0A 80  00                       ..s002...       
```

#### Opcodes

```
  0: 0x0077 [0xC5] LOAD_SCHEDULED_TASK_ALT3: Load scheduler 0x800A3230 for entities [Jyujin04 (ID: 17510746/0x010B315A), Jyujin04 (ID: 17510746/0x010B315A)], work=91*, param=12403
  1: 0x0088 [0x00] END_REQSTACK()
```

### Event 65535.12

#### Metadata

| Field        | Value    |
|--------------|----------|
| Entrypoint   | 0x0089   |
| Data Size    | 18 bytes |
| Instructions | 2        |

```
      00 01 02 03 04 05 06 07  08 09 0A 0B 0C 0D 0E 0F
      -- -- -- -- -- -- -- --  -- -- -- -- -- -- -- --
0080:                             C5 09 80 5A 31 0B 01           ...Z1..
0090: 5A 31 0B 01 73 30 30 33  0A 80 00                 Z1..s003...     
```

#### Opcodes

```
  0: 0x0089 [0xC5] LOAD_SCHEDULED_TASK_ALT3: Load scheduler 0x800A3330 for entities [Jyujin04 (ID: 17510746/0x010B315A), Jyujin04 (ID: 17510746/0x010B315A)], work=91*, param=12403
  1: 0x009A [0x00] END_REQSTACK()
```

### Event 65535.13

#### Metadata

| Field        | Value    |
|--------------|----------|
| Entrypoint   | 0x009B   |
| Data Size    | 18 bytes |
| Instructions | 2        |

```
      00 01 02 03 04 05 06 07  08 09 0A 0B 0C 0D 0E 0F
      -- -- -- -- -- -- -- --  -- -- -- -- -- -- -- --
0090:                                   C5 09 80 5A 31             ...Z1
00A0: 0B 01 5A 31 0B 01 73 74  70 30 0A 80 00           ..Z1..stp0...   
```

#### Opcodes

```
  0: 0x009B [0xC5] LOAD_SCHEDULED_TASK_ALT3: Load scheduler 0x800A3070 for entities [Jyujin04 (ID: 17510746/0x010B315A), Jyujin04 (ID: 17510746/0x010B315A)], work=91*, param=29811
  1: 0x00AC [0x00] END_REQSTACK()
```

### Event 65535.14

#### Metadata

| Field        | Value    |
|--------------|----------|
| Entrypoint   | 0x00AD   |
| Data Size    | 18 bytes |
| Instructions | 2        |

```
      00 01 02 03 04 05 06 07  08 09 0A 0B 0C 0D 0E 0F
      -- -- -- -- -- -- -- --  -- -- -- -- -- -- -- --
00A0:                                         C5 09 80               ...
00B0: 5A 31 0B 01 5A 31 0B 01  73 74 70 32 0A 80 00     Z1..Z1..stp2... 
```

#### Opcodes

```
  0: 0x00AD [0xC5] LOAD_SCHEDULED_TASK_ALT3: Load scheduler 0x800A3270 for entities [Jyujin04 (ID: 17510746/0x010B315A), Jyujin04 (ID: 17510746/0x010B315A)], work=91*, param=29811
  1: 0x00BE [0x00] END_REQSTACK()
```

### Event 65535.15

#### Metadata

| Field        | Value    |
|--------------|----------|
| Entrypoint   | 0x00BF   |
| Data Size    | 18 bytes |
| Instructions | 2        |

```
      00 01 02 03 04 05 06 07  08 09 0A 0B 0C 0D 0E 0F
      -- -- -- -- -- -- -- --  -- -- -- -- -- -- -- --
00B0:                                               C5                 .
00C0: 09 80 5A 31 0B 01 5A 31  0B 01 73 74 70 33 0A 80  ..Z1..Z1..stp3..
00D0: 00                                                .               
```

#### Opcodes

```
  0: 0x00BF [0xC5] LOAD_SCHEDULED_TASK_ALT3: Load scheduler 0x800A3370 for entities [Jyujin04 (ID: 17510746/0x010B315A), Jyujin04 (ID: 17510746/0x010B315A)], work=91*, param=29811
  1: 0x00D0 [0x00] END_REQSTACK()
```

### Event 65535.16

#### Metadata

| Field        | Value    |
|--------------|----------|
| Entrypoint   | 0x00D1   |
| Data Size    | 18 bytes |
| Instructions | 2        |

```
      00 01 02 03 04 05 06 07  08 09 0A 0B 0C 0D 0E 0F
      -- -- -- -- -- -- -- --  -- -- -- -- -- -- -- --
00D0:    C5 09 80 5A 31 0B 01  5A 31 0B 01 6B 69 6C 30   ...Z1..Z1..kil0
00E0: 0A 80 00                                          ...             
```

#### Opcodes

```
  0: 0x00D1 [0xC5] LOAD_SCHEDULED_TASK_ALT3: Load scheduler 0x800A306C for entities [Jyujin04 (ID: 17510746/0x010B315A), Jyujin04 (ID: 17510746/0x010B315A)], work=91*, param=26987
  1: 0x00E2 [0x00] END_REQSTACK()
```

### Event 65535.17

#### Metadata

| Field        | Value    |
|--------------|----------|
| Entrypoint   | 0x00E3   |
| Data Size    | 18 bytes |
| Instructions | 2        |

```
      00 01 02 03 04 05 06 07  08 09 0A 0B 0C 0D 0E 0F
      -- -- -- -- -- -- -- --  -- -- -- -- -- -- -- --
00E0:          C5 09 80 5A 31  0B 01 5A 31 0B 01 6B 69     ...Z1..Z1..ki
00F0: 6C 32 0A 80 00                                    l2...           
```

#### Opcodes

```
  0: 0x00E3 [0xC5] LOAD_SCHEDULED_TASK_ALT3: Load scheduler 0x800A326C for entities [Jyujin04 (ID: 17510746/0x010B315A), Jyujin04 (ID: 17510746/0x010B315A)], work=91*, param=26987
  1: 0x00F4 [0x00] END_REQSTACK()
```

### Event 65535.18

#### Metadata

| Field        | Value    |
|--------------|----------|
| Entrypoint   | 0x00F5   |
| Data Size    | 18 bytes |
| Instructions | 2        |

```
      00 01 02 03 04 05 06 07  08 09 0A 0B 0C 0D 0E 0F
      -- -- -- -- -- -- -- --  -- -- -- -- -- -- -- --
00F0:                C5 09 80  5A 31 0B 01 5A 31 0B 01       ...Z1..Z1..
0100: 6B 69 6C 33 0A 80 00                              kil3...         
```

#### Opcodes

```
  0: 0x00F5 [0xC5] LOAD_SCHEDULED_TASK_ALT3: Load scheduler 0x800A336C for entities [Jyujin04 (ID: 17510746/0x010B315A), Jyujin04 (ID: 17510746/0x010B315A)], work=91*, param=26987
  1: 0x0106 [0x00] END_REQSTACK()
```

### Event 65535.19

#### Metadata

| Field        | Value   |
|--------------|---------|
| Entrypoint   | 0x0107  |
| Data Size    | 8 bytes |
| Instructions | 3       |

```
      00 01 02 03 04 05 06 07  08 09 0A 0B 0C 0D 0E 0F
      -- -- -- -- -- -- -- --  -- -- -- -- -- -- -- --
0100:                      B6  00 0B 80 C0 01 80 00            ........ 
```

#### Opcodes

```
  0: 0x0107 [0xB6] ENTITY_APPEARANCE_HANDLER(case=Hair style, value=97*)
  1: 0x010B [0xC0] EventEntity->Render.Flags3 |= 0x1000 // Set bit 12 (from 1*)
  2: 0x010E [0x00] END_REQSTACK()
```
