# 17510731 - Mathilde

## Common Data

| Field            | Value                     |
|------------------|---------------------------|
| Zone             | Stellar Fulcrum (ID: 179) |
| Block Size       | 920 bytes                 |
| Total Events     | 48                        |
| References Count | 16                        |

## List of Events

| Event ID                   | Entrypoint   |   Size |   Instructions |
|----------------------------|--------------|--------|----------------|
| [65535](#event-65535)      | 0x0000       |      1 |              1 |
| [12](#event-12)            | 0x0001       |      1 |              1 |
| [32000](#event-32000)      | 0x0002       |      1 |              1 |
| [13](#event-13)            | 0x0003       |      1 |              1 |
| [14](#event-14)            | 0x0004       |      1 |              1 |
| [65535.1](#event-655351)   | 0x0005       |     22 |              5 |
| [65535.2](#event-655352)   | 0x001B       |      3 |              2 |
| [65535.3](#event-655353)   | 0x001E       |      3 |              2 |
| [65535.4](#event-655354)   | 0x0021       |     16 |              2 |
| [65535.5](#event-655355)   | 0x0031       |     16 |              2 |
| [65535.6](#event-655356)   | 0x0041       |     16 |              2 |
| [65535.7](#event-655357)   | 0x0051       |     16 |              2 |
| [65535.8](#event-655358)   | 0x0061       |     16 |              2 |
| [65535.9](#event-655359)   | 0x0071       |     12 |              4 |
| [65535.10](#event-6553510) | 0x007D       |     16 |              2 |
| [65535.11](#event-6553511) | 0x008D       |     16 |              2 |
| [65535.12](#event-6553512) | 0x009D       |     16 |              2 |
| [65535.13](#event-6553513) | 0x00AD       |     16 |              2 |
| [65535.14](#event-6553514) | 0x00BD       |     10 |              2 |
| [65535.15](#event-6553515) | 0x00C7       |     16 |              2 |
| [65535.16](#event-6553516) | 0x00D7       |     16 |              2 |
| [65535.17](#event-6553517) | 0x00E7       |     16 |              2 |
| [65535.18](#event-6553518) | 0x00F7       |     16 |              2 |
| [65535.19](#event-6553519) | 0x0107       |     16 |              2 |
| [65535.20](#event-6553520) | 0x0117       |     16 |              2 |
| [65535.21](#event-6553521) | 0x0127       |     11 |              2 |
| [65535.22](#event-6553522) | 0x0132       |     16 |              2 |
| [65535.23](#event-6553523) | 0x0142       |     16 |              2 |
| [65535.24](#event-6553524) | 0x0152       |     16 |              2 |
| [65535.25](#event-6553525) | 0x0162       |     16 |              2 |
| [65535.26](#event-6553526) | 0x0172       |     16 |              2 |
| [65535.27](#event-6553527) | 0x0182       |     16 |              2 |
| [65535.28](#event-6553528) | 0x0192       |     16 |              2 |
| [65535.29](#event-6553529) | 0x01A2       |     16 |              2 |
| [65535.30](#event-6553530) | 0x01B2       |     16 |              2 |
| [65535.31](#event-6553531) | 0x01C2       |     16 |              2 |
| [65535.32](#event-6553532) | 0x01D2       |     16 |              2 |
| [65535.33](#event-6553533) | 0x01E2       |     16 |              2 |
| [65535.34](#event-6553534) | 0x01F2       |     16 |              2 |
| [65535.35](#event-6553535) | 0x0202       |     16 |              2 |
| [65535.36](#event-6553536) | 0x0212       |     16 |              2 |
| [65535.37](#event-6553537) | 0x0222       |     16 |              2 |
| [65535.38](#event-6553538) | 0x0232       |     16 |              2 |
| [65535.39](#event-6553539) | 0x0242       |     16 |              2 |
| [65535.40](#event-6553540) | 0x0252       |     16 |              2 |
| [65535.41](#event-6553541) | 0x0262       |     16 |              2 |
| [65535.42](#event-6553542) | 0x0272       |     16 |              2 |
| [65535.43](#event-6553543) | 0x0282       |      4 |              2 |

## DAT References (imed_data)

|   Index | Hex Value   |   Dec Value |
|---------|-------------|-------------|
|       0 | 0x0001      |           1 |
|       1 | 0x000B      |          11 |
|       2 | 0xFFFFFD9F  |  4294966687 |
|       3 | 0x8088      |       32904 |
|       4 | 0x09C3      |        2499 |
|       5 | 0x0013      |          19 |
|       6 | 0x0000      |           0 |
|       7 | 0x0168      |         360 |
|       8 | 0x0A15      |        2581 |
|       9 | 0x000A      |          10 |
|      10 | 0x0190      |         400 |
|      11 | 0x0258      |         600 |
|      12 | 0x0A19      |        2585 |
|      13 | 0x0A2B      |        2603 |
|      14 | 0x0A2C      |        2604 |
|      15 | 0x0A41      |        2625 |

## Events

### Event 65535

#### Metadata

| Field        | Value   |
|--------------|---------|
| Entrypoint   | 0x0000  |
| Data Size    | 1 bytes |
| Instructions | 1       |

```
      00 01 02 03 04 05 06 07  08 09 0A 0B 0C 0D 0E 0F
      -- -- -- -- -- -- -- --  -- -- -- -- -- -- -- --
0000: 00                                                .               
```

#### Opcodes

```
  0: 0x0000 [0x00] END_REQSTACK()
```

### Event 12

#### Metadata

| Field        | Value   |
|--------------|---------|
| Entrypoint   | 0x0001  |
| Data Size    | 1 bytes |
| Instructions | 1       |

```
      00 01 02 03 04 05 06 07  08 09 0A 0B 0C 0D 0E 0F
      -- -- -- -- -- -- -- --  -- -- -- -- -- -- -- --
0000:    00                                              .              
```

#### Opcodes

```
  0: 0x0001 [0x00] END_REQSTACK()
```

### Event 32000

#### Metadata

| Field        | Value   |
|--------------|---------|
| Entrypoint   | 0x0002  |
| Data Size    | 1 bytes |
| Instructions | 1       |

```
      00 01 02 03 04 05 06 07  08 09 0A 0B 0C 0D 0E 0F
      -- -- -- -- -- -- -- --  -- -- -- -- -- -- -- --
0000:       00                                            .             
```

#### Opcodes

```
  0: 0x0002 [0x00] END_REQSTACK()
```

### Event 13

#### Metadata

| Field        | Value   |
|--------------|---------|
| Entrypoint   | 0x0003  |
| Data Size    | 1 bytes |
| Instructions | 1       |

```
      00 01 02 03 04 05 06 07  08 09 0A 0B 0C 0D 0E 0F
      -- -- -- -- -- -- -- --  -- -- -- -- -- -- -- --
0000:          00                                          .            
```

#### Opcodes

```
  0: 0x0003 [0x00] END_REQSTACK()
```

### Event 14

#### Metadata

| Field        | Value   |
|--------------|---------|
| Entrypoint   | 0x0004  |
| Data Size    | 1 bytes |
| Instructions | 1       |

```
      00 01 02 03 04 05 06 07  08 09 0A 0B 0C 0D 0E 0F
      -- -- -- -- -- -- -- --  -- -- -- -- -- -- -- --
0000:             00                                        .           
```

#### Opcodes

```
  0: 0x0004 [0x00] END_REQSTACK()
```

### Event 65535.1

#### Metadata

| Field        | Value    |
|--------------|----------|
| Entrypoint   | 0x0005   |
| Data Size    | 22 bytes |
| Instructions | 5        |

```
      00 01 02 03 04 05 06 07  08 09 0A 0B 0C 0D 0E 0F
      -- -- -- -- -- -- -- --  -- -- -- -- -- -- -- --
0000:                4E 00 4B  31 0B 01 92 01 4B 31 0B       N.K1....K1.
0010: 01 94 01 4B 31 0B 01 C0  00 80 00                 ...K1......     
```

#### Opcodes

```
  0: 0x0005 [0x4E] SET_ENTITY_HIDE_FLAG: Show Mathilde (ID: 17510731/0x010B314B)
  1: 0x000B [0x92] Mathilde (ID: 17510731/0x010B314B)->Render.Flags3 ^= 0x01
  2: 0x0011 [0x94] Mathilde (ID: 17510731/0x010B314B)->Render.Flags3 ^= 0x01
  3: 0x0017 [0xC0] EventEntity->Render.Flags3 |= 0x1000 // Set bit 12 (from 1*)
  4: 0x001A [0x00] END_REQSTACK()
```

### Event 65535.2

#### Metadata

| Field        | Value   |
|--------------|---------|
| Entrypoint   | 0x001B  |
| Data Size    | 3 bytes |
| Instructions | 2       |

```
      00 01 02 03 04 05 06 07  08 09 0A 0B 0C 0D 0E 0F
      -- -- -- -- -- -- -- --  -- -- -- -- -- -- -- --
0010:                                   A4 01 00                   ...  
```

#### Opcodes

```
  0: 0x001B [0xA4] EventEntity->Flags3.unknown_3_2 = 1
  1: 0x001D [0x00] END_REQSTACK()
```

### Event 65535.3

#### Metadata

| Field        | Value   |
|--------------|---------|
| Entrypoint   | 0x001E  |
| Data Size    | 3 bytes |
| Instructions | 2       |

```
      00 01 02 03 04 05 06 07  08 09 0A 0B 0C 0D 0E 0F
      -- -- -- -- -- -- -- --  -- -- -- -- -- -- -- --
0010:                                            A4 00                ..
0020: 00                                                .               
```

#### Opcodes

```
  0: 0x001E [0xA4] EventEntity->Flags3.unknown_3_2 = 0
  1: 0x0020 [0x00] END_REQSTACK()
```

### Event 65535.4

#### Metadata

| Field        | Value    |
|--------------|----------|
| Entrypoint   | 0x0021   |
| Data Size    | 16 bytes |
| Instructions | 2        |

```
      00 01 02 03 04 05 06 07  08 09 0A 0B 0C 0D 0E 0F
      -- -- -- -- -- -- -- --  -- -- -- -- -- -- -- --
0020:    66 01 80 4B 31 0B 01  4B 31 0B 01 75 74 6C 30   f..K1..K1..utl0
0030: 00                                                .               
```

#### Opcodes

```
  0: 0x0021 [0x66] LOAD_EXT_SCHEDULER_MAIN: Load scheduler "utl0" with entities [Mathilde (ID: 17510731/0x010B314B), Mathilde (ID: 17510731/0x010B314B)], work=11*
  1: 0x0030 [0x00] END_REQSTACK()
```

### Event 65535.5

#### Metadata

| Field        | Value    |
|--------------|----------|
| Entrypoint   | 0x0031   |
| Data Size    | 16 bytes |
| Instructions | 2        |

```
      00 01 02 03 04 05 06 07  08 09 0A 0B 0C 0D 0E 0F
      -- -- -- -- -- -- -- --  -- -- -- -- -- -- -- --
0030:    66 01 80 4B 31 0B 01  4B 31 0B 01 6E 74 6C 30   f..K1..K1..ntl0
0040: 00                                                .               
```

#### Opcodes

```
  0: 0x0031 [0x66] LOAD_EXT_SCHEDULER_MAIN: Load scheduler "ntl0" with entities [Mathilde (ID: 17510731/0x010B314B), Mathilde (ID: 17510731/0x010B314B)], work=11*
  1: 0x0040 [0x00] END_REQSTACK()
```

### Event 65535.6

#### Metadata

| Field        | Value    |
|--------------|----------|
| Entrypoint   | 0x0041   |
| Data Size    | 16 bytes |
| Instructions | 2        |

```
      00 01 02 03 04 05 06 07  08 09 0A 0B 0C 0D 0E 0F
      -- -- -- -- -- -- -- --  -- -- -- -- -- -- -- --
0040:    66 01 80 4B 31 0B 01  4B 31 0B 01 6E 74 6C 31   f..K1..K1..ntl1
0050: 00                                                .               
```

#### Opcodes

```
  0: 0x0041 [0x66] LOAD_EXT_SCHEDULER_MAIN: Load scheduler "ntl1" with entities [Mathilde (ID: 17510731/0x010B314B), Mathilde (ID: 17510731/0x010B314B)], work=11*
  1: 0x0050 [0x00] END_REQSTACK()
```

### Event 65535.7

#### Metadata

| Field        | Value    |
|--------------|----------|
| Entrypoint   | 0x0051   |
| Data Size    | 16 bytes |
| Instructions | 2        |

```
      00 01 02 03 04 05 06 07  08 09 0A 0B 0C 0D 0E 0F
      -- -- -- -- -- -- -- --  -- -- -- -- -- -- -- --
0050:    66 01 80 4B 31 0B 01  4B 31 0B 01 6E 67 74 30   f..K1..K1..ngt0
0060: 00                                                .               
```

#### Opcodes

```
  0: 0x0051 [0x66] LOAD_EXT_SCHEDULER_MAIN: Load scheduler "ngt0" with entities [Mathilde (ID: 17510731/0x010B314B), Mathilde (ID: 17510731/0x010B314B)], work=11*
  1: 0x0060 [0x00] END_REQSTACK()
```

### Event 65535.8

#### Metadata

| Field        | Value    |
|--------------|----------|
| Entrypoint   | 0x0061   |
| Data Size    | 16 bytes |
| Instructions | 2        |

```
      00 01 02 03 04 05 06 07  08 09 0A 0B 0C 0D 0E 0F
      -- -- -- -- -- -- -- --  -- -- -- -- -- -- -- --
0060:    66 01 80 4B 31 0B 01  4B 31 0B 01 6E 67 74 31   f..K1..K1..ngt1
0070: 00                                                .               
```

#### Opcodes

```
  0: 0x0061 [0x66] LOAD_EXT_SCHEDULER_MAIN: Load scheduler "ngt1" with entities [Mathilde (ID: 17510731/0x010B314B), Mathilde (ID: 17510731/0x010B314B)], work=11*
  1: 0x0070 [0x00] END_REQSTACK()
```

### Event 65535.9

#### Metadata

| Field        | Value    |
|--------------|----------|
| Entrypoint   | 0x0071   |
| Data Size    | 12 bytes |
| Instructions | 4        |

```
      00 01 02 03 04 05 06 07  08 09 0A 0B 0C 0D 0E 0F
      -- -- -- -- -- -- -- --  -- -- -- -- -- -- -- --
0070:    1F 00 02 80 03 80 04  80 1F 01 6F 00            ..........o.   
```

#### Opcodes

```
  0: 0x0071 [0x1F] MOVE_ENTITY: EventEntity moves to X=-0.609*, Z=32.904*, Y=2.499*
  1: 0x0079 [0x1F] MOVE_ENTITY: Update entity position (mode=1)
  2: 0x007B [0x6F] WAIT_FRAME_DELAY: Yield until WaitTime reaches zero
  3: 0x007C [0x00] END_REQSTACK()
```

### Event 65535.10

#### Metadata

| Field        | Value    |
|--------------|----------|
| Entrypoint   | 0x007D   |
| Data Size    | 16 bytes |
| Instructions | 2        |

```
      00 01 02 03 04 05 06 07  08 09 0A 0B 0C 0D 0E 0F
      -- -- -- -- -- -- -- --  -- -- -- -- -- -- -- --
0070:                                         66 05 80               f..
0080: 4B 31 0B 01 4B 31 0B 01  73 68 61 30 00           K1..K1..sha0.   
```

#### Opcodes

```
  0: 0x007D [0x66] LOAD_EXT_SCHEDULER_MAIN: Load scheduler "sha0" with entities [Mathilde (ID: 17510731/0x010B314B), Mathilde (ID: 17510731/0x010B314B)], work=19*
  1: 0x008C [0x00] END_REQSTACK()
```

### Event 65535.11

#### Metadata

| Field        | Value    |
|--------------|----------|
| Entrypoint   | 0x008D   |
| Data Size    | 16 bytes |
| Instructions | 2        |

```
      00 01 02 03 04 05 06 07  08 09 0A 0B 0C 0D 0E 0F
      -- -- -- -- -- -- -- --  -- -- -- -- -- -- -- --
0080:                                         66 05 80               f..
0090: 4B 31 0B 01 4B 31 0B 01  73 69 72 30 00           K1..K1..sir0.   
```

#### Opcodes

```
  0: 0x008D [0x66] LOAD_EXT_SCHEDULER_MAIN: Load scheduler "sir0" with entities [Mathilde (ID: 17510731/0x010B314B), Mathilde (ID: 17510731/0x010B314B)], work=19*
  1: 0x009C [0x00] END_REQSTACK()
```

### Event 65535.12

#### Metadata

| Field        | Value    |
|--------------|----------|
| Entrypoint   | 0x009D   |
| Data Size    | 16 bytes |
| Instructions | 2        |

```
      00 01 02 03 04 05 06 07  08 09 0A 0B 0C 0D 0E 0F
      -- -- -- -- -- -- -- --  -- -- -- -- -- -- -- --
0090:                                         66 05 80               f..
00A0: 4B 31 0B 01 4B 31 0B 01  73 68 61 31 00           K1..K1..sha1.   
```

#### Opcodes

```
  0: 0x009D [0x66] LOAD_EXT_SCHEDULER_MAIN: Load scheduler "sha1" with entities [Mathilde (ID: 17510731/0x010B314B), Mathilde (ID: 17510731/0x010B314B)], work=19*
  1: 0x00AC [0x00] END_REQSTACK()
```

### Event 65535.13

#### Metadata

| Field        | Value    |
|--------------|----------|
| Entrypoint   | 0x00AD   |
| Data Size    | 16 bytes |
| Instructions | 2        |

```
      00 01 02 03 04 05 06 07  08 09 0A 0B 0C 0D 0E 0F
      -- -- -- -- -- -- -- --  -- -- -- -- -- -- -- --
00A0:                                         66 01 80               f..
00B0: 4B 31 0B 01 4B 31 0B 01  62 74 6C 30 00           K1..K1..btl0.   
```

#### Opcodes

```
  0: 0x00AD [0x66] LOAD_EXT_SCHEDULER_MAIN: Load scheduler "btl0" with entities [Mathilde (ID: 17510731/0x010B314B), Mathilde (ID: 17510731/0x010B314B)], work=11*
  1: 0x00BC [0x00] END_REQSTACK()
```

### Event 65535.14

#### Metadata

| Field        | Value    |
|--------------|----------|
| Entrypoint   | 0x00BD   |
| Data Size    | 10 bytes |
| Instructions | 2        |

```
      00 01 02 03 04 05 06 07  08 09 0A 0B 0C 0D 0E 0F
      -- -- -- -- -- -- -- --  -- -- -- -- -- -- -- --
00B0:                                         6C 4B 31               lK1
00C0: 0B 01 06 80 07 80 00                              .......         
```

#### Opcodes

```
  0: 0x00BD [0x6C] FADE_ENTITY_COLOR(entity_id=Mathilde (ID: 17510731/0x010B314B), end_alpha=0*, fade_time=360*)
  1: 0x00C6 [0x00] END_REQSTACK()
```

### Event 65535.15

#### Metadata

| Field        | Value    |
|--------------|----------|
| Entrypoint   | 0x00C7   |
| Data Size    | 16 bytes |
| Instructions | 2        |

```
      00 01 02 03 04 05 06 07  08 09 0A 0B 0C 0D 0E 0F
      -- -- -- -- -- -- -- --  -- -- -- -- -- -- -- --
00C0:                      5B  08 80 4B 31 0B 01 4B 31         [..K1..K1
00D0: 0B 01 75 74 61 31 00                              ..uta1.         
```

#### Opcodes

```
  0: 0x00C7 [0x5B] LOAD_EXT_SCHEDULER: Load scheduler "uta1" with entities [Mathilde (ID: 17510731/0x010B314B), Mathilde (ID: 17510731/0x010B314B)], work=2581*
  1: 0x00D6 [0x00] END_REQSTACK()
```

### Event 65535.16

#### Metadata

| Field        | Value    |
|--------------|----------|
| Entrypoint   | 0x00D7   |
| Data Size    | 16 bytes |
| Instructions | 2        |

```
      00 01 02 03 04 05 06 07  08 09 0A 0B 0C 0D 0E 0F
      -- -- -- -- -- -- -- --  -- -- -- -- -- -- -- --
00D0:                      5B  09 80 4B 31 0B 01 4B 31         [..K1..K1
00E0: 0B 01 74 6C 6B 31 00                              ..tlk1.         
```

#### Opcodes

```
  0: 0x00D7 [0x5B] LOAD_EXT_SCHEDULER: Load scheduler "tlk1" with entities [Mathilde (ID: 17510731/0x010B314B), Mathilde (ID: 17510731/0x010B314B)], work=10*
  1: 0x00E6 [0x00] END_REQSTACK()
```

### Event 65535.17

#### Metadata

| Field        | Value    |
|--------------|----------|
| Entrypoint   | 0x00E7   |
| Data Size    | 16 bytes |
| Instructions | 2        |

```
      00 01 02 03 04 05 06 07  08 09 0A 0B 0C 0D 0E 0F
      -- -- -- -- -- -- -- --  -- -- -- -- -- -- -- --
00E0:                      5B  08 80 4B 31 0B 01 4B 31         [..K1..K1
00F0: 0B 01 75 74 61 32 00                              ..uta2.         
```

#### Opcodes

```
  0: 0x00E7 [0x5B] LOAD_EXT_SCHEDULER: Load scheduler "uta2" with entities [Mathilde (ID: 17510731/0x010B314B), Mathilde (ID: 17510731/0x010B314B)], work=2581*
  1: 0x00F6 [0x00] END_REQSTACK()
```

### Event 65535.18

#### Metadata

| Field        | Value    |
|--------------|----------|
| Entrypoint   | 0x00F7   |
| Data Size    | 16 bytes |
| Instructions | 2        |

```
      00 01 02 03 04 05 06 07  08 09 0A 0B 0C 0D 0E 0F
      -- -- -- -- -- -- -- --  -- -- -- -- -- -- -- --
00F0:                      5B  08 80 4B 31 0B 01 4B 31         [..K1..K1
0100: 0B 01 75 74 61 33 00                              ..uta3.         
```

#### Opcodes

```
  0: 0x00F7 [0x5B] LOAD_EXT_SCHEDULER: Load scheduler "uta3" with entities [Mathilde (ID: 17510731/0x010B314B), Mathilde (ID: 17510731/0x010B314B)], work=2581*
  1: 0x0106 [0x00] END_REQSTACK()
```

### Event 65535.19

#### Metadata

| Field        | Value    |
|--------------|----------|
| Entrypoint   | 0x0107   |
| Data Size    | 16 bytes |
| Instructions | 2        |

```
      00 01 02 03 04 05 06 07  08 09 0A 0B 0C 0D 0E 0F
      -- -- -- -- -- -- -- --  -- -- -- -- -- -- -- --
0100:                      66  09 80 4B 31 0B 01 4B 31         f..K1..K1
0110: 0B 01 74 6C 6B 30 00                              ..tlk0.         
```

#### Opcodes

```
  0: 0x0107 [0x66] LOAD_EXT_SCHEDULER_MAIN: Load scheduler "tlk0" with entities [Mathilde (ID: 17510731/0x010B314B), Mathilde (ID: 17510731/0x010B314B)], work=10*
  1: 0x0116 [0x00] END_REQSTACK()
```

### Event 65535.20

#### Metadata

| Field        | Value    |
|--------------|----------|
| Entrypoint   | 0x0117   |
| Data Size    | 16 bytes |
| Instructions | 2        |

```
      00 01 02 03 04 05 06 07  08 09 0A 0B 0C 0D 0E 0F
      -- -- -- -- -- -- -- --  -- -- -- -- -- -- -- --
0110:                      66  09 80 4B 31 0B 01 4B 31         f..K1..K1
0120: 0B 01 74 6C 6B 31 00                              ..tlk1.         
```

#### Opcodes

```
  0: 0x0117 [0x66] LOAD_EXT_SCHEDULER_MAIN: Load scheduler "tlk1" with entities [Mathilde (ID: 17510731/0x010B314B), Mathilde (ID: 17510731/0x010B314B)], work=10*
  1: 0x0126 [0x00] END_REQSTACK()
```

### Event 65535.21

#### Metadata

| Field        | Value    |
|--------------|----------|
| Entrypoint   | 0x0127   |
| Data Size    | 11 bytes |
| Instructions | 2        |

```
      00 01 02 03 04 05 06 07  08 09 0A 0B 0C 0D 0E 0F
      -- -- -- -- -- -- -- --  -- -- -- -- -- -- -- --
0120:                      79  02 4B 31 0B 01 0A 80 0B         y.K1.....
0130: 80 00                                             ..              
```

#### Opcodes

```
  0: 0x0127 [0x79] Mathilde (ID: 17510731/0x010B314B) looks at Unknown NPC (ID: 2148237322/0x800B800A) (Direct axis set)
  1: 0x0131 [0x00] END_REQSTACK()
```

### Event 65535.22

#### Metadata

| Field        | Value    |
|--------------|----------|
| Entrypoint   | 0x0132   |
| Data Size    | 16 bytes |
| Instructions | 2        |

```
      00 01 02 03 04 05 06 07  08 09 0A 0B 0C 0D 0E 0F
      -- -- -- -- -- -- -- --  -- -- -- -- -- -- -- --
0130:       5B 0C 80 4B 31 0B  01 4B 31 0B 01 62 73 61    [..K1..K1..bsa
0140: 6C 00                                             l.              
```

#### Opcodes

```
  0: 0x0132 [0x5B] LOAD_EXT_SCHEDULER: Load scheduler "bsal" with entities [Mathilde (ID: 17510731/0x010B314B), Mathilde (ID: 17510731/0x010B314B)], work=2585*
  1: 0x0141 [0x00] END_REQSTACK()
```

### Event 65535.23

#### Metadata

| Field        | Value    |
|--------------|----------|
| Entrypoint   | 0x0142   |
| Data Size    | 16 bytes |
| Instructions | 2        |

```
      00 01 02 03 04 05 06 07  08 09 0A 0B 0C 0D 0E 0F
      -- -- -- -- -- -- -- --  -- -- -- -- -- -- -- --
0140:       5B 0C 80 4B 31 0B  01 4B 31 0B 01 62 73 61    [..K1..K1..bsa
0150: 30 00                                             0.              
```

#### Opcodes

```
  0: 0x0142 [0x5B] LOAD_EXT_SCHEDULER: Load scheduler "bsa0" with entities [Mathilde (ID: 17510731/0x010B314B), Mathilde (ID: 17510731/0x010B314B)], work=2585*
  1: 0x0151 [0x00] END_REQSTACK()
```

### Event 65535.24

#### Metadata

| Field        | Value    |
|--------------|----------|
| Entrypoint   | 0x0152   |
| Data Size    | 16 bytes |
| Instructions | 2        |

```
      00 01 02 03 04 05 06 07  08 09 0A 0B 0C 0D 0E 0F
      -- -- -- -- -- -- -- --  -- -- -- -- -- -- -- --
0150:       5B 0C 80 4B 31 0B  01 4B 31 0B 01 62 73 61    [..K1..K1..bsa
0160: 31 00                                             1.              
```

#### Opcodes

```
  0: 0x0152 [0x5B] LOAD_EXT_SCHEDULER: Load scheduler "bsa1" with entities [Mathilde (ID: 17510731/0x010B314B), Mathilde (ID: 17510731/0x010B314B)], work=2585*
  1: 0x0161 [0x00] END_REQSTACK()
```

### Event 65535.25

#### Metadata

| Field        | Value    |
|--------------|----------|
| Entrypoint   | 0x0162   |
| Data Size    | 16 bytes |
| Instructions | 2        |

```
      00 01 02 03 04 05 06 07  08 09 0A 0B 0C 0D 0E 0F
      -- -- -- -- -- -- -- --  -- -- -- -- -- -- -- --
0160:       5B 0D 80 4B 31 0B  01 4B 31 0B 01 64 66 61    [..K1..K1..dfa
0170: 30 00                                             0.              
```

#### Opcodes

```
  0: 0x0162 [0x5B] LOAD_EXT_SCHEDULER: Load scheduler "dfa0" with entities [Mathilde (ID: 17510731/0x010B314B), Mathilde (ID: 17510731/0x010B314B)], work=2603*
  1: 0x0171 [0x00] END_REQSTACK()
```

### Event 65535.26

#### Metadata

| Field        | Value    |
|--------------|----------|
| Entrypoint   | 0x0172   |
| Data Size    | 16 bytes |
| Instructions | 2        |

```
      00 01 02 03 04 05 06 07  08 09 0A 0B 0C 0D 0E 0F
      -- -- -- -- -- -- -- --  -- -- -- -- -- -- -- --
0170:       5B 0D 80 4B 31 0B  01 4B 31 0B 01 64 66 61    [..K1..K1..dfa
0180: 31 00                                             1.              
```

#### Opcodes

```
  0: 0x0172 [0x5B] LOAD_EXT_SCHEDULER: Load scheduler "dfa1" with entities [Mathilde (ID: 17510731/0x010B314B), Mathilde (ID: 17510731/0x010B314B)], work=2603*
  1: 0x0181 [0x00] END_REQSTACK()
```

### Event 65535.27

#### Metadata

| Field        | Value    |
|--------------|----------|
| Entrypoint   | 0x0182   |
| Data Size    | 16 bytes |
| Instructions | 2        |

```
      00 01 02 03 04 05 06 07  08 09 0A 0B 0C 0D 0E 0F
      -- -- -- -- -- -- -- --  -- -- -- -- -- -- -- --
0180:       5B 0D 80 4B 31 0B  01 4B 31 0B 01 64 66 61    [..K1..K1..dfa
0190: 32 00                                             2.              
```

#### Opcodes

```
  0: 0x0182 [0x5B] LOAD_EXT_SCHEDULER: Load scheduler "dfa2" with entities [Mathilde (ID: 17510731/0x010B314B), Mathilde (ID: 17510731/0x010B314B)], work=2603*
  1: 0x0191 [0x00] END_REQSTACK()
```

### Event 65535.28

#### Metadata

| Field        | Value    |
|--------------|----------|
| Entrypoint   | 0x0192   |
| Data Size    | 16 bytes |
| Instructions | 2        |

```
      00 01 02 03 04 05 06 07  08 09 0A 0B 0C 0D 0E 0F
      -- -- -- -- -- -- -- --  -- -- -- -- -- -- -- --
0190:       5B 0D 80 4B 31 0B  01 4B 31 0B 01 64 66 6C    [..K1..K1..dfl
01A0: 32 00                                             2.              
```

#### Opcodes

```
  0: 0x0192 [0x5B] LOAD_EXT_SCHEDULER: Load scheduler "dfl2" with entities [Mathilde (ID: 17510731/0x010B314B), Mathilde (ID: 17510731/0x010B314B)], work=2603*
  1: 0x01A1 [0x00] END_REQSTACK()
```

### Event 65535.29

#### Metadata

| Field        | Value    |
|--------------|----------|
| Entrypoint   | 0x01A2   |
| Data Size    | 16 bytes |
| Instructions | 2        |

```
      00 01 02 03 04 05 06 07  08 09 0A 0B 0C 0D 0E 0F
      -- -- -- -- -- -- -- --  -- -- -- -- -- -- -- --
01A0:       5B 0D 80 4B 31 0B  01 4B 31 0B 01 64 66 62    [..K1..K1..dfb
01B0: 30 00                                             0.              
```

#### Opcodes

```
  0: 0x01A2 [0x5B] LOAD_EXT_SCHEDULER: Load scheduler "dfb0" with entities [Mathilde (ID: 17510731/0x010B314B), Mathilde (ID: 17510731/0x010B314B)], work=2603*
  1: 0x01B1 [0x00] END_REQSTACK()
```

### Event 65535.30

#### Metadata

| Field        | Value    |
|--------------|----------|
| Entrypoint   | 0x01B2   |
| Data Size    | 16 bytes |
| Instructions | 2        |

```
      00 01 02 03 04 05 06 07  08 09 0A 0B 0C 0D 0E 0F
      -- -- -- -- -- -- -- --  -- -- -- -- -- -- -- --
01B0:       5B 0D 80 4B 31 0B  01 4B 31 0B 01 64 66 62    [..K1..K1..dfb
01C0: 31 00                                             1.              
```

#### Opcodes

```
  0: 0x01B2 [0x5B] LOAD_EXT_SCHEDULER: Load scheduler "dfb1" with entities [Mathilde (ID: 17510731/0x010B314B), Mathilde (ID: 17510731/0x010B314B)], work=2603*
  1: 0x01C1 [0x00] END_REQSTACK()
```

### Event 65535.31

#### Metadata

| Field        | Value    |
|--------------|----------|
| Entrypoint   | 0x01C2   |
| Data Size    | 16 bytes |
| Instructions | 2        |

```
      00 01 02 03 04 05 06 07  08 09 0A 0B 0C 0D 0E 0F
      -- -- -- -- -- -- -- --  -- -- -- -- -- -- -- --
01C0:       5B 0E 80 4B 31 0B  01 4B 31 0B 01 64 66 62    [..K1..K1..dfb
01D0: 32 00                                             2.              
```

#### Opcodes

```
  0: 0x01C2 [0x5B] LOAD_EXT_SCHEDULER: Load scheduler "dfb2" with entities [Mathilde (ID: 17510731/0x010B314B), Mathilde (ID: 17510731/0x010B314B)], work=2604*
  1: 0x01D1 [0x00] END_REQSTACK()
```

### Event 65535.32

#### Metadata

| Field        | Value    |
|--------------|----------|
| Entrypoint   | 0x01D2   |
| Data Size    | 16 bytes |
| Instructions | 2        |

```
      00 01 02 03 04 05 06 07  08 09 0A 0B 0C 0D 0E 0F
      -- -- -- -- -- -- -- --  -- -- -- -- -- -- -- --
01D0:       5B 0E 80 4B 31 0B  01 4B 31 0B 01 64 66 62    [..K1..K1..dfb
01E0: 33 00                                             3.              
```

#### Opcodes

```
  0: 0x01D2 [0x5B] LOAD_EXT_SCHEDULER: Load scheduler "dfb3" with entities [Mathilde (ID: 17510731/0x010B314B), Mathilde (ID: 17510731/0x010B314B)], work=2604*
  1: 0x01E1 [0x00] END_REQSTACK()
```

### Event 65535.33

#### Metadata

| Field        | Value    |
|--------------|----------|
| Entrypoint   | 0x01E2   |
| Data Size    | 16 bytes |
| Instructions | 2        |

```
      00 01 02 03 04 05 06 07  08 09 0A 0B 0C 0D 0E 0F
      -- -- -- -- -- -- -- --  -- -- -- -- -- -- -- --
01E0:       5B 0E 80 4B 31 0B  01 4B 31 0B 01 64 66 62    [..K1..K1..dfb
01F0: 34 00                                             4.              
```

#### Opcodes

```
  0: 0x01E2 [0x5B] LOAD_EXT_SCHEDULER: Load scheduler "dfb4" with entities [Mathilde (ID: 17510731/0x010B314B), Mathilde (ID: 17510731/0x010B314B)], work=2604*
  1: 0x01F1 [0x00] END_REQSTACK()
```

### Event 65535.34

#### Metadata

| Field        | Value    |
|--------------|----------|
| Entrypoint   | 0x01F2   |
| Data Size    | 16 bytes |
| Instructions | 2        |

```
      00 01 02 03 04 05 06 07  08 09 0A 0B 0C 0D 0E 0F
      -- -- -- -- -- -- -- --  -- -- -- -- -- -- -- --
01F0:       5B 0E 80 4B 31 0B  01 4B 31 0B 01 64 66 62    [..K1..K1..dfb
0200: 35 00                                             5.              
```

#### Opcodes

```
  0: 0x01F2 [0x5B] LOAD_EXT_SCHEDULER: Load scheduler "dfb5" with entities [Mathilde (ID: 17510731/0x010B314B), Mathilde (ID: 17510731/0x010B314B)], work=2604*
  1: 0x0201 [0x00] END_REQSTACK()
```

### Event 65535.35

#### Metadata

| Field        | Value    |
|--------------|----------|
| Entrypoint   | 0x0202   |
| Data Size    | 16 bytes |
| Instructions | 2        |

```
      00 01 02 03 04 05 06 07  08 09 0A 0B 0C 0D 0E 0F
      -- -- -- -- -- -- -- --  -- -- -- -- -- -- -- --
0200:       5B 0E 80 4B 31 0B  01 4B 31 0B 01 64 66 62    [..K1..K1..dfb
0210: 36 00                                             6.              
```

#### Opcodes

```
  0: 0x0202 [0x5B] LOAD_EXT_SCHEDULER: Load scheduler "dfb6" with entities [Mathilde (ID: 17510731/0x010B314B), Mathilde (ID: 17510731/0x010B314B)], work=2604*
  1: 0x0211 [0x00] END_REQSTACK()
```

### Event 65535.36

#### Metadata

| Field        | Value    |
|--------------|----------|
| Entrypoint   | 0x0212   |
| Data Size    | 16 bytes |
| Instructions | 2        |

```
      00 01 02 03 04 05 06 07  08 09 0A 0B 0C 0D 0E 0F
      -- -- -- -- -- -- -- --  -- -- -- -- -- -- -- --
0210:       5B 0F 80 4B 31 0B  01 4B 31 0B 01 65 64 30    [..K1..K1..ed0
0220: 30 00                                             0.              
```

#### Opcodes

```
  0: 0x0212 [0x5B] LOAD_EXT_SCHEDULER: Load scheduler "ed00" with entities [Mathilde (ID: 17510731/0x010B314B), Mathilde (ID: 17510731/0x010B314B)], work=2625*
  1: 0x0221 [0x00] END_REQSTACK()
```

### Event 65535.37

#### Metadata

| Field        | Value    |
|--------------|----------|
| Entrypoint   | 0x0222   |
| Data Size    | 16 bytes |
| Instructions | 2        |

```
      00 01 02 03 04 05 06 07  08 09 0A 0B 0C 0D 0E 0F
      -- -- -- -- -- -- -- --  -- -- -- -- -- -- -- --
0220:       5B 0F 80 4B 31 0B  01 4B 31 0B 01 65 64 30    [..K1..K1..ed0
0230: 31 00                                             1.              
```

#### Opcodes

```
  0: 0x0222 [0x5B] LOAD_EXT_SCHEDULER: Load scheduler "ed01" with entities [Mathilde (ID: 17510731/0x010B314B), Mathilde (ID: 17510731/0x010B314B)], work=2625*
  1: 0x0231 [0x00] END_REQSTACK()
```

### Event 65535.38

#### Metadata

| Field        | Value    |
|--------------|----------|
| Entrypoint   | 0x0232   |
| Data Size    | 16 bytes |
| Instructions | 2        |

```
      00 01 02 03 04 05 06 07  08 09 0A 0B 0C 0D 0E 0F
      -- -- -- -- -- -- -- --  -- -- -- -- -- -- -- --
0230:       5B 0F 80 4B 31 0B  01 4B 31 0B 01 65 64 30    [..K1..K1..ed0
0240: 32 00                                             2.              
```

#### Opcodes

```
  0: 0x0232 [0x5B] LOAD_EXT_SCHEDULER: Load scheduler "ed02" with entities [Mathilde (ID: 17510731/0x010B314B), Mathilde (ID: 17510731/0x010B314B)], work=2625*
  1: 0x0241 [0x00] END_REQSTACK()
```

### Event 65535.39

#### Metadata

| Field        | Value    |
|--------------|----------|
| Entrypoint   | 0x0242   |
| Data Size    | 16 bytes |
| Instructions | 2        |

```
      00 01 02 03 04 05 06 07  08 09 0A 0B 0C 0D 0E 0F
      -- -- -- -- -- -- -- --  -- -- -- -- -- -- -- --
0240:       5B 0F 80 4B 31 0B  01 4B 31 0B 01 65 64 30    [..K1..K1..ed0
0250: 33 00                                             3.              
```

#### Opcodes

```
  0: 0x0242 [0x5B] LOAD_EXT_SCHEDULER: Load scheduler "ed03" with entities [Mathilde (ID: 17510731/0x010B314B), Mathilde (ID: 17510731/0x010B314B)], work=2625*
  1: 0x0251 [0x00] END_REQSTACK()
```

### Event 65535.40

#### Metadata

| Field        | Value    |
|--------------|----------|
| Entrypoint   | 0x0252   |
| Data Size    | 16 bytes |
| Instructions | 2        |

```
      00 01 02 03 04 05 06 07  08 09 0A 0B 0C 0D 0E 0F
      -- -- -- -- -- -- -- --  -- -- -- -- -- -- -- --
0250:       5B 0F 80 4B 31 0B  01 4B 31 0B 01 65 64 30    [..K1..K1..ed0
0260: 34 00                                             4.              
```

#### Opcodes

```
  0: 0x0252 [0x5B] LOAD_EXT_SCHEDULER: Load scheduler "ed04" with entities [Mathilde (ID: 17510731/0x010B314B), Mathilde (ID: 17510731/0x010B314B)], work=2625*
  1: 0x0261 [0x00] END_REQSTACK()
```

### Event 65535.41

#### Metadata

| Field        | Value    |
|--------------|----------|
| Entrypoint   | 0x0262   |
| Data Size    | 16 bytes |
| Instructions | 2        |

```
      00 01 02 03 04 05 06 07  08 09 0A 0B 0C 0D 0E 0F
      -- -- -- -- -- -- -- --  -- -- -- -- -- -- -- --
0260:       5B 0F 80 4B 31 0B  01 4B 31 0B 01 65 64 73    [..K1..K1..eds
0270: 30 00                                             0.              
```

#### Opcodes

```
  0: 0x0262 [0x5B] LOAD_EXT_SCHEDULER: Load scheduler "eds0" with entities [Mathilde (ID: 17510731/0x010B314B), Mathilde (ID: 17510731/0x010B314B)], work=2625*
  1: 0x0271 [0x00] END_REQSTACK()
```

### Event 65535.42

#### Metadata

| Field        | Value    |
|--------------|----------|
| Entrypoint   | 0x0272   |
| Data Size    | 16 bytes |
| Instructions | 2        |

```
      00 01 02 03 04 05 06 07  08 09 0A 0B 0C 0D 0E 0F
      -- -- -- -- -- -- -- --  -- -- -- -- -- -- -- --
0270:       5B 0F 80 4B 31 0B  01 4B 31 0B 01 65 64 73    [..K1..K1..eds
0280: 31 00                                             1.              
```

#### Opcodes

```
  0: 0x0272 [0x5B] LOAD_EXT_SCHEDULER: Load scheduler "eds1" with entities [Mathilde (ID: 17510731/0x010B314B), Mathilde (ID: 17510731/0x010B314B)], work=2625*
  1: 0x0281 [0x00] END_REQSTACK()
```

### Event 65535.43

#### Metadata

| Field        | Value   |
|--------------|---------|
| Entrypoint   | 0x0282  |
| Data Size    | 4 bytes |
| Instructions | 2       |

```
      00 01 02 03 04 05 06 07  08 09 0A 0B 0C 0D 0E 0F
      -- -- -- -- -- -- -- --  -- -- -- -- -- -- -- --
0280:       C0 00 80 00                                   ....          
```

#### Opcodes

```
  0: 0x0282 [0xC0] EventEntity->Render.Flags3 |= 0x1000 // Set bit 12 (from 1*)
  1: 0x0285 [0x00] END_REQSTACK()
```
