# 17510747 - Jyujin05

## Common Data

| Field            | Value                     |
|------------------|---------------------------|
| Zone             | Stellar Fulcrum (ID: 179) |
| Block Size       | 392 bytes                 |
| Total Events     | 19                        |
| References Count | 12                        |

## List of Events

| Event ID                   | Entrypoint   |   Size |   Instructions |
|----------------------------|--------------|--------|----------------|
| [65535](#event-65535)      | 0x0000       |      1 |              1 |
| [13](#event-13)            | 0x0001       |      7 |              2 |
| [65535.1](#event-655351)   | 0x0008       |      7 |              2 |
| [65535.2](#event-655352)   | 0x000F       |      8 |              3 |
| [65535.3](#event-655353)   | 0x0017       |      8 |              3 |
| [65535.4](#event-655354)   | 0x001F       |      8 |              3 |
| [65535.5](#event-655355)   | 0x0027       |     15 |              5 |
| [65535.6](#event-655356)   | 0x0036       |      8 |              3 |
| [65535.7](#event-655357)   | 0x003E       |      8 |              3 |
| [65535.8](#event-655358)   | 0x0046       |     18 |              2 |
| [65535.9](#event-655359)   | 0x0058       |     18 |              2 |
| [65535.10](#event-6553510) | 0x006A       |     18 |              2 |
| [65535.11](#event-6553511) | 0x007C       |     18 |              2 |
| [65535.12](#event-6553512) | 0x008E       |     18 |              2 |
| [65535.13](#event-6553513) | 0x00A0       |     18 |              2 |
| [65535.14](#event-6553514) | 0x00B2       |     18 |              2 |
| [65535.15](#event-6553515) | 0x00C4       |     18 |              2 |
| [65535.16](#event-6553516) | 0x00D6       |     18 |              2 |
| [65535.17](#event-6553517) | 0x00E8       |     18 |              2 |

## DAT References (imed_data)

|   Index | Hex Value   |   Dec Value |
|---------|-------------|-------------|
|       0 | 0x026D      |         621 |
|       1 | 0x0001      |           1 |
|       2 | 0x01E4      |         484 |
|       3 | 0x0148      |         328 |
|       4 | 0x000D      |          13 |
|       5 | 0xFFFBBB8A  |  4294687626 |
|       6 | 0xFFFA2586  |  4294583686 |
|       7 | 0x4E22      |       20002 |
|       8 | 0x012C      |         300 |
|       9 | 0x01F9      |         505 |
|      10 | 0x005B      |          91 |
|      11 | 0x0000      |           0 |

## Events

### Event 65535

#### Metadata

| Field        | Value   |
|--------------|---------|
| Entrypoint   | 0x0000  |
| Data Size    | 1 bytes |
| Instructions | 1       |

```
      00 01 02 03 04 05 06 07  08 09 0A 0B 0C 0D 0E 0F
      -- -- -- -- -- -- -- --  -- -- -- -- -- -- -- --
0000: 00                                                .               
```

#### Opcodes

```
  0: 0x0000 [0x00] END_REQSTACK()
```

### Event 13

#### Metadata

| Field        | Value   |
|--------------|---------|
| Entrypoint   | 0x0001  |
| Data Size    | 7 bytes |
| Instructions | 2       |

```
      00 01 02 03 04 05 06 07  08 09 0A 0B 0C 0D 0E 0F
      -- -- -- -- -- -- -- --  -- -- -- -- -- -- -- --
0000:    92 01 F8 FF FF 7F 00                            .......        
```

#### Opcodes

```
  0: 0x0001 [0x92] EventEntity->Render.Flags3 ^= 0x01
  1: 0x0007 [0x00] END_REQSTACK()
```

### Event 65535.1

#### Metadata

| Field        | Value   |
|--------------|---------|
| Entrypoint   | 0x0008  |
| Data Size    | 7 bytes |
| Instructions | 2       |

```
      00 01 02 03 04 05 06 07  08 09 0A 0B 0C 0D 0E 0F
      -- -- -- -- -- -- -- --  -- -- -- -- -- -- -- --
0000:                          4E 00 5B 31 0B 01 00             N.[1... 
```

#### Opcodes

```
  0: 0x0008 [0x4E] SET_ENTITY_HIDE_FLAG: Show Jyujin05 (ID: 17510747/0x010B315B)
  1: 0x000E [0x00] END_REQSTACK()
```

### Event 65535.2

#### Metadata

| Field        | Value   |
|--------------|---------|
| Entrypoint   | 0x000F  |
| Data Size    | 8 bytes |
| Instructions | 3       |

```
      00 01 02 03 04 05 06 07  08 09 0A 0B 0C 0D 0E 0F
      -- -- -- -- -- -- -- --  -- -- -- -- -- -- -- --
0000:                                               B6                 .
0010: 00 00 80 C0 01 80 00                              .......         
```

#### Opcodes

```
  0: 0x000F [0xB6] ENTITY_APPEARANCE_HANDLER(case=Hair style, value=621*)
  1: 0x0013 [0xC0] EventEntity->Render.Flags3 |= 0x1000 // Set bit 12 (from 1*)
  2: 0x0016 [0x00] END_REQSTACK()
```

### Event 65535.3

#### Metadata

| Field        | Value   |
|--------------|---------|
| Entrypoint   | 0x0017  |
| Data Size    | 8 bytes |
| Instructions | 3       |

```
      00 01 02 03 04 05 06 07  08 09 0A 0B 0C 0D 0E 0F
      -- -- -- -- -- -- -- --  -- -- -- -- -- -- -- --
0010:                      B6  00 02 80 C0 01 80 00            ........ 
```

#### Opcodes

```
  0: 0x0017 [0xB6] ENTITY_APPEARANCE_HANDLER(case=Hair style, value=484*)
  1: 0x001B [0xC0] EventEntity->Render.Flags3 |= 0x1000 // Set bit 12 (from 1*)
  2: 0x001E [0x00] END_REQSTACK()
```

### Event 65535.4

#### Metadata

| Field        | Value   |
|--------------|---------|
| Entrypoint   | 0x001F  |
| Data Size    | 8 bytes |
| Instructions | 3       |

```
      00 01 02 03 04 05 06 07  08 09 0A 0B 0C 0D 0E 0F
      -- -- -- -- -- -- -- --  -- -- -- -- -- -- -- --
0010:                                               B6                 .
0020: 00 03 80 C0 01 80 00                              .......         
```

#### Opcodes

```
  0: 0x001F [0xB6] ENTITY_APPEARANCE_HANDLER(case=Hair style, value=328*)
  1: 0x0023 [0xC0] EventEntity->Render.Flags3 |= 0x1000 // Set bit 12 (from 1*)
  2: 0x0026 [0x00] END_REQSTACK()
```

### Event 65535.5

#### Metadata

| Field        | Value    |
|--------------|----------|
| Entrypoint   | 0x0027   |
| Data Size    | 15 bytes |
| Instructions | 5        |

```
      00 01 02 03 04 05 06 07  08 09 0A 0B 0C 0D 0E 0F
      -- -- -- -- -- -- -- --  -- -- -- -- -- -- -- --
0020:                      32  04 80 1F 00 05 80 06 80         2........
0030: 07 80 1F 01 6F 00                                 ....o.          
```

#### Opcodes

```
  0: 0x0027 [0x32] ExtData[1]->MainSpeed = 13* * 0.1
  1: 0x002A [0x1F] MOVE_ENTITY: EventEntity moves to X=-279.670*, Z=-383.610*, Y=20.002*
  2: 0x0032 [0x1F] MOVE_ENTITY: Update entity position (mode=1)
  3: 0x0034 [0x6F] WAIT_FRAME_DELAY: Yield until WaitTime reaches zero
  4: 0x0035 [0x00] END_REQSTACK()
```

### Event 65535.6

#### Metadata

| Field        | Value   |
|--------------|---------|
| Entrypoint   | 0x0036  |
| Data Size    | 8 bytes |
| Instructions | 3       |

```
      00 01 02 03 04 05 06 07  08 09 0A 0B 0C 0D 0E 0F
      -- -- -- -- -- -- -- --  -- -- -- -- -- -- -- --
0030:                   B6 00  08 80 C0 01 80 00              ........  
```

#### Opcodes

```
  0: 0x0036 [0xB6] ENTITY_APPEARANCE_HANDLER(case=Hair style, value=300*)
  1: 0x003A [0xC0] EventEntity->Render.Flags3 |= 0x1000 // Set bit 12 (from 1*)
  2: 0x003D [0x00] END_REQSTACK()
```

### Event 65535.7

#### Metadata

| Field        | Value   |
|--------------|---------|
| Entrypoint   | 0x003E  |
| Data Size    | 8 bytes |
| Instructions | 3       |

```
      00 01 02 03 04 05 06 07  08 09 0A 0B 0C 0D 0E 0F
      -- -- -- -- -- -- -- --  -- -- -- -- -- -- -- --
0030:                                            B6 00                ..
0040: 09 80 C0 01 80 00                                 ......          
```

#### Opcodes

```
  0: 0x003E [0xB6] ENTITY_APPEARANCE_HANDLER(case=Hair style, value=505*)
  1: 0x0042 [0xC0] EventEntity->Render.Flags3 |= 0x1000 // Set bit 12 (from 1*)
  2: 0x0045 [0x00] END_REQSTACK()
```

### Event 65535.8

#### Metadata

| Field        | Value    |
|--------------|----------|
| Entrypoint   | 0x0046   |
| Data Size    | 18 bytes |
| Instructions | 2        |

```
      00 01 02 03 04 05 06 07  08 09 0A 0B 0C 0D 0E 0F
      -- -- -- -- -- -- -- --  -- -- -- -- -- -- -- --
0040:                   C5 0A  80 5B 31 0B 01 5B 31 0B        ...[1..[1.
0050: 01 73 30 30 30 0B 80 00                           .s000...        
```

#### Opcodes

```
  0: 0x0046 [0xC5] LOAD_SCHEDULED_TASK_ALT3: Load scheduler 0x800B3030 for entities [Jyujin05 (ID: 17510747/0x010B315B), Jyujin05 (ID: 17510747/0x010B315B)], work=91*, param=12403
  1: 0x0057 [0x00] END_REQSTACK()
```

### Event 65535.9

#### Metadata

| Field        | Value    |
|--------------|----------|
| Entrypoint   | 0x0058   |
| Data Size    | 18 bytes |
| Instructions | 2        |

```
      00 01 02 03 04 05 06 07  08 09 0A 0B 0C 0D 0E 0F
      -- -- -- -- -- -- -- --  -- -- -- -- -- -- -- --
0050:                          C5 0A 80 5B 31 0B 01 5B          ...[1..[
0060: 31 0B 01 73 30 30 31 0B  80 00                    1..s001...      
```

#### Opcodes

```
  0: 0x0058 [0xC5] LOAD_SCHEDULED_TASK_ALT3: Load scheduler 0x800B3130 for entities [Jyujin05 (ID: 17510747/0x010B315B), Jyujin05 (ID: 17510747/0x010B315B)], work=91*, param=12403
  1: 0x0069 [0x00] END_REQSTACK()
```

### Event 65535.10

#### Metadata

| Field        | Value    |
|--------------|----------|
| Entrypoint   | 0x006A   |
| Data Size    | 18 bytes |
| Instructions | 2        |

```
      00 01 02 03 04 05 06 07  08 09 0A 0B 0C 0D 0E 0F
      -- -- -- -- -- -- -- --  -- -- -- -- -- -- -- --
0060:                                C5 0A 80 5B 31 0B            ...[1.
0070: 01 5B 31 0B 01 73 30 30  32 0B 80 00              .[1..s002...    
```

#### Opcodes

```
  0: 0x006A [0xC5] LOAD_SCHEDULED_TASK_ALT3: Load scheduler 0x800B3230 for entities [Jyujin05 (ID: 17510747/0x010B315B), Jyujin05 (ID: 17510747/0x010B315B)], work=91*, param=12403
  1: 0x007B [0x00] END_REQSTACK()
```

### Event 65535.11

#### Metadata

| Field        | Value    |
|--------------|----------|
| Entrypoint   | 0x007C   |
| Data Size    | 18 bytes |
| Instructions | 2        |

```
      00 01 02 03 04 05 06 07  08 09 0A 0B 0C 0D 0E 0F
      -- -- -- -- -- -- -- --  -- -- -- -- -- -- -- --
0070:                                      C5 0A 80 5B              ...[
0080: 31 0B 01 5B 31 0B 01 73  30 30 33 0B 80 00        1..[1..s003...  
```

#### Opcodes

```
  0: 0x007C [0xC5] LOAD_SCHEDULED_TASK_ALT3: Load scheduler 0x800B3330 for entities [Jyujin05 (ID: 17510747/0x010B315B), Jyujin05 (ID: 17510747/0x010B315B)], work=91*, param=12403
  1: 0x008D [0x00] END_REQSTACK()
```

### Event 65535.12

#### Metadata

| Field        | Value    |
|--------------|----------|
| Entrypoint   | 0x008E   |
| Data Size    | 18 bytes |
| Instructions | 2        |

```
      00 01 02 03 04 05 06 07  08 09 0A 0B 0C 0D 0E 0F
      -- -- -- -- -- -- -- --  -- -- -- -- -- -- -- --
0080:                                            C5 0A                ..
0090: 80 5B 31 0B 01 5B 31 0B  01 73 74 70 30 0B 80 00  .[1..[1..stp0...
```

#### Opcodes

```
  0: 0x008E [0xC5] LOAD_SCHEDULED_TASK_ALT3: Load scheduler 0x800B3070 for entities [Jyujin05 (ID: 17510747/0x010B315B), Jyujin05 (ID: 17510747/0x010B315B)], work=91*, param=29811
  1: 0x009F [0x00] END_REQSTACK()
```

### Event 65535.13

#### Metadata

| Field        | Value    |
|--------------|----------|
| Entrypoint   | 0x00A0   |
| Data Size    | 18 bytes |
| Instructions | 2        |

```
      00 01 02 03 04 05 06 07  08 09 0A 0B 0C 0D 0E 0F
      -- -- -- -- -- -- -- --  -- -- -- -- -- -- -- --
00A0: C5 0A 80 5B 31 0B 01 5B  31 0B 01 73 74 70 32 0B  ...[1..[1..stp2.
00B0: 80 00                                             ..              
```

#### Opcodes

```
  0: 0x00A0 [0xC5] LOAD_SCHEDULED_TASK_ALT3: Load scheduler 0x800B3270 for entities [Jyujin05 (ID: 17510747/0x010B315B), Jyujin05 (ID: 17510747/0x010B315B)], work=91*, param=29811
  1: 0x00B1 [0x00] END_REQSTACK()
```

### Event 65535.14

#### Metadata

| Field        | Value    |
|--------------|----------|
| Entrypoint   | 0x00B2   |
| Data Size    | 18 bytes |
| Instructions | 2        |

```
      00 01 02 03 04 05 06 07  08 09 0A 0B 0C 0D 0E 0F
      -- -- -- -- -- -- -- --  -- -- -- -- -- -- -- --
00B0:       C5 0A 80 5B 31 0B  01 5B 31 0B 01 73 74 70    ...[1..[1..stp
00C0: 33 0B 80 00                                       3...            
```

#### Opcodes

```
  0: 0x00B2 [0xC5] LOAD_SCHEDULED_TASK_ALT3: Load scheduler 0x800B3370 for entities [Jyujin05 (ID: 17510747/0x010B315B), Jyujin05 (ID: 17510747/0x010B315B)], work=91*, param=29811
  1: 0x00C3 [0x00] END_REQSTACK()
```

### Event 65535.15

#### Metadata

| Field        | Value    |
|--------------|----------|
| Entrypoint   | 0x00C4   |
| Data Size    | 18 bytes |
| Instructions | 2        |

```
      00 01 02 03 04 05 06 07  08 09 0A 0B 0C 0D 0E 0F
      -- -- -- -- -- -- -- --  -- -- -- -- -- -- -- --
00C0:             C5 0A 80 5B  31 0B 01 5B 31 0B 01 6B      ...[1..[1..k
00D0: 69 6C 30 0B 80 00                                 il0...          
```

#### Opcodes

```
  0: 0x00C4 [0xC5] LOAD_SCHEDULED_TASK_ALT3: Load scheduler 0x800B306C for entities [Jyujin05 (ID: 17510747/0x010B315B), Jyujin05 (ID: 17510747/0x010B315B)], work=91*, param=26987
  1: 0x00D5 [0x00] END_REQSTACK()
```

### Event 65535.16

#### Metadata

| Field        | Value    |
|--------------|----------|
| Entrypoint   | 0x00D6   |
| Data Size    | 18 bytes |
| Instructions | 2        |

```
      00 01 02 03 04 05 06 07  08 09 0A 0B 0C 0D 0E 0F
      -- -- -- -- -- -- -- --  -- -- -- -- -- -- -- --
00D0:                   C5 0A  80 5B 31 0B 01 5B 31 0B        ...[1..[1.
00E0: 01 6B 69 6C 32 0B 80 00                           .kil2...        
```

#### Opcodes

```
  0: 0x00D6 [0xC5] LOAD_SCHEDULED_TASK_ALT3: Load scheduler 0x800B326C for entities [Jyujin05 (ID: 17510747/0x010B315B), Jyujin05 (ID: 17510747/0x010B315B)], work=91*, param=26987
  1: 0x00E7 [0x00] END_REQSTACK()
```

### Event 65535.17

#### Metadata

| Field        | Value    |
|--------------|----------|
| Entrypoint   | 0x00E8   |
| Data Size    | 18 bytes |
| Instructions | 2        |

```
      00 01 02 03 04 05 06 07  08 09 0A 0B 0C 0D 0E 0F
      -- -- -- -- -- -- -- --  -- -- -- -- -- -- -- --
00E0:                          C5 0A 80 5B 31 0B 01 5B          ...[1..[
00F0: 31 0B 01 6B 69 6C 33 0B  80 00                    1..kil3...      
```

#### Opcodes

```
  0: 0x00E8 [0xC5] LOAD_SCHEDULED_TASK_ALT3: Load scheduler 0x800B336C for entities [Jyujin05 (ID: 17510747/0x010B315B), Jyujin05 (ID: 17510747/0x010B315B)], work=91*, param=26987
  1: 0x00F9 [0x00] END_REQSTACK()
```
