# 17510732 - Aldo

## Common Data

| Field            | Value                     |
|------------------|---------------------------|
| Zone             | Stellar Fulcrum (ID: 179) |
| Block Size       | 868 bytes                 |
| Total Events     | 46                        |
| References Count | 12                        |

## List of Events

| Event ID                   | Entrypoint   |   Size |   Instructions |
|----------------------------|--------------|--------|----------------|
| [65535](#event-65535)      | 0x0000       |      1 |              1 |
| [12](#event-12)            | 0x0001       |      1 |              1 |
| [32000](#event-32000)      | 0x0002       |      1 |              1 |
| [13](#event-13)            | 0x0003       |      1 |              1 |
| [14](#event-14)            | 0x0004       |      1 |              1 |
| [65535.1](#event-655351)   | 0x0005       |     26 |              6 |
| [65535.2](#event-655352)   | 0x001F       |      8 |              3 |
| [65535.3](#event-655353)   | 0x0027       |      3 |              2 |
| [65535.4](#event-655354)   | 0x002A       |      3 |              2 |
| [65535.5](#event-655355)   | 0x002D       |     16 |              2 |
| [65535.6](#event-655356)   | 0x003D       |     16 |              2 |
| [65535.7](#event-655357)   | 0x004D       |     16 |              2 |
| [65535.8](#event-655358)   | 0x005D       |     16 |              2 |
| [65535.9](#event-655359)   | 0x006D       |     16 |              2 |
| [65535.10](#event-6553510) | 0x007D       |     16 |              2 |
| [65535.11](#event-6553511) | 0x008D       |     16 |              2 |
| [65535.12](#event-6553512) | 0x009D       |     16 |              2 |
| [65535.13](#event-6553513) | 0x00AD       |     16 |              2 |
| [65535.14](#event-6553514) | 0x00BD       |     16 |              2 |
| [65535.15](#event-6553515) | 0x00CD       |     16 |              2 |
| [65535.16](#event-6553516) | 0x00DD       |     16 |              2 |
| [65535.17](#event-6553517) | 0x00ED       |     16 |              2 |
| [65535.18](#event-6553518) | 0x00FD       |     16 |              2 |
| [65535.19](#event-6553519) | 0x010D       |     16 |              2 |
| [65535.20](#event-6553520) | 0x011D       |     16 |              2 |
| [65535.21](#event-6553521) | 0x012D       |     16 |              2 |
| [65535.22](#event-6553522) | 0x013D       |     16 |              2 |
| [65535.23](#event-6553523) | 0x014D       |     16 |              2 |
| [65535.24](#event-6553524) | 0x015D       |     16 |              2 |
| [65535.25](#event-6553525) | 0x016D       |     16 |              2 |
| [65535.26](#event-6553526) | 0x017D       |     16 |              2 |
| [65535.27](#event-6553527) | 0x018D       |     16 |              2 |
| [65535.28](#event-6553528) | 0x019D       |     16 |              2 |
| [65535.29](#event-6553529) | 0x01AD       |     16 |              2 |
| [65535.30](#event-6553530) | 0x01BD       |     16 |              2 |
| [65535.31](#event-6553531) | 0x01CD       |     16 |              2 |
| [65535.32](#event-6553532) | 0x01DD       |     16 |              2 |
| [65535.33](#event-6553533) | 0x01ED       |     16 |              2 |
| [65535.34](#event-6553534) | 0x01FD       |     16 |              2 |
| [65535.35](#event-6553535) | 0x020D       |     16 |              2 |
| [65535.36](#event-6553536) | 0x021D       |     16 |              2 |
| [65535.37](#event-6553537) | 0x022D       |     16 |              2 |
| [65535.38](#event-6553538) | 0x023D       |     16 |              2 |
| [65535.39](#event-6553539) | 0x024D       |     16 |              2 |
| [65535.40](#event-6553540) | 0x025D       |     11 |              2 |
| [65535.41](#event-6553541) | 0x0268       |      4 |              2 |

## DAT References (imed_data)

|   Index | Hex Value   |   Dec Value |
|---------|-------------|-------------|
|       0 | 0x004E      |          78 |
|       1 | 0x0001      |           1 |
|       2 | 0x0A2F      |        2607 |
|       3 | 0x0A2D      |        2605 |
|       4 | 0x0A2E      |        2606 |
|       5 | 0x0A3E      |        2622 |
|       6 | 0x0A3F      |        2623 |
|       7 | 0x00B9      |         185 |
|       8 | 0x021D      |         541 |
|       9 | 0x021E      |         542 |
|      10 | 0x0190      |         400 |
|      11 | 0x0258      |         600 |

## Events

### Event 65535

#### Metadata

| Field        | Value   |
|--------------|---------|
| Entrypoint   | 0x0000  |
| Data Size    | 1 bytes |
| Instructions | 1       |

```
      00 01 02 03 04 05 06 07  08 09 0A 0B 0C 0D 0E 0F
      -- -- -- -- -- -- -- --  -- -- -- -- -- -- -- --
0000: 00                                                .               
```

#### Opcodes

```
  0: 0x0000 [0x00] END_REQSTACK()
```

### Event 12

#### Metadata

| Field        | Value   |
|--------------|---------|
| Entrypoint   | 0x0001  |
| Data Size    | 1 bytes |
| Instructions | 1       |

```
      00 01 02 03 04 05 06 07  08 09 0A 0B 0C 0D 0E 0F
      -- -- -- -- -- -- -- --  -- -- -- -- -- -- -- --
0000:    00                                              .              
```

#### Opcodes

```
  0: 0x0001 [0x00] END_REQSTACK()
```

### Event 32000

#### Metadata

| Field        | Value   |
|--------------|---------|
| Entrypoint   | 0x0002  |
| Data Size    | 1 bytes |
| Instructions | 1       |

```
      00 01 02 03 04 05 06 07  08 09 0A 0B 0C 0D 0E 0F
      -- -- -- -- -- -- -- --  -- -- -- -- -- -- -- --
0000:       00                                            .             
```

#### Opcodes

```
  0: 0x0002 [0x00] END_REQSTACK()
```

### Event 13

#### Metadata

| Field        | Value   |
|--------------|---------|
| Entrypoint   | 0x0003  |
| Data Size    | 1 bytes |
| Instructions | 1       |

```
      00 01 02 03 04 05 06 07  08 09 0A 0B 0C 0D 0E 0F
      -- -- -- -- -- -- -- --  -- -- -- -- -- -- -- --
0000:          00                                          .            
```

#### Opcodes

```
  0: 0x0003 [0x00] END_REQSTACK()
```

### Event 14

#### Metadata

| Field        | Value   |
|--------------|---------|
| Entrypoint   | 0x0004  |
| Data Size    | 1 bytes |
| Instructions | 1       |

```
      00 01 02 03 04 05 06 07  08 09 0A 0B 0C 0D 0E 0F
      -- -- -- -- -- -- -- --  -- -- -- -- -- -- -- --
0000:             00                                        .           
```

#### Opcodes

```
  0: 0x0004 [0x00] END_REQSTACK()
```

### Event 65535.1

#### Metadata

| Field        | Value    |
|--------------|----------|
| Entrypoint   | 0x0005   |
| Data Size    | 26 bytes |
| Instructions | 6        |

```
      00 01 02 03 04 05 06 07  08 09 0A 0B 0C 0D 0E 0F
      -- -- -- -- -- -- -- --  -- -- -- -- -- -- -- --
0000:                4E 00 4C  31 0B 01 B6 00 00 80 92       N.L1.......
0010: 01 4C 31 0B 01 94 01 4C  31 0B 01 C0 01 80 00     .L1....L1...... 
```

#### Opcodes

```
  0: 0x0005 [0x4E] SET_ENTITY_HIDE_FLAG: Show Aldo (ID: 17510732/0x010B314C)
  1: 0x000B [0xB6] ENTITY_APPEARANCE_HANDLER(case=Hair style, value=78*)
  2: 0x000F [0x92] Aldo (ID: 17510732/0x010B314C)->Render.Flags3 ^= 0x01
  3: 0x0015 [0x94] Aldo (ID: 17510732/0x010B314C)->Render.Flags3 ^= 0x01
  4: 0x001B [0xC0] EventEntity->Render.Flags3 |= 0x1000 // Set bit 12 (from 1*)
  5: 0x001E [0x00] END_REQSTACK()
```

### Event 65535.2

#### Metadata

| Field        | Value   |
|--------------|---------|
| Entrypoint   | 0x001F  |
| Data Size    | 8 bytes |
| Instructions | 3       |

```
      00 01 02 03 04 05 06 07  08 09 0A 0B 0C 0D 0E 0F
      -- -- -- -- -- -- -- --  -- -- -- -- -- -- -- --
0010:                                               B6                 .
0020: 00 00 80 C0 01 80 00                              .......         
```

#### Opcodes

```
  0: 0x001F [0xB6] ENTITY_APPEARANCE_HANDLER(case=Hair style, value=78*)
  1: 0x0023 [0xC0] EventEntity->Render.Flags3 |= 0x1000 // Set bit 12 (from 1*)
  2: 0x0026 [0x00] END_REQSTACK()
```

### Event 65535.3

#### Metadata

| Field        | Value   |
|--------------|---------|
| Entrypoint   | 0x0027  |
| Data Size    | 3 bytes |
| Instructions | 2       |

```
      00 01 02 03 04 05 06 07  08 09 0A 0B 0C 0D 0E 0F
      -- -- -- -- -- -- -- --  -- -- -- -- -- -- -- --
0020:                      A4  01 00                           ...      
```

#### Opcodes

```
  0: 0x0027 [0xA4] EventEntity->Flags3.unknown_3_2 = 1
  1: 0x0029 [0x00] END_REQSTACK()
```

### Event 65535.4

#### Metadata

| Field        | Value   |
|--------------|---------|
| Entrypoint   | 0x002A  |
| Data Size    | 3 bytes |
| Instructions | 2       |

```
      00 01 02 03 04 05 06 07  08 09 0A 0B 0C 0D 0E 0F
      -- -- -- -- -- -- -- --  -- -- -- -- -- -- -- --
0020:                                A4 00 00                     ...   
```

#### Opcodes

```
  0: 0x002A [0xA4] EventEntity->Flags3.unknown_3_2 = 0
  1: 0x002C [0x00] END_REQSTACK()
```

### Event 65535.5

#### Metadata

| Field        | Value    |
|--------------|----------|
| Entrypoint   | 0x002D   |
| Data Size    | 16 bytes |
| Instructions | 2        |

```
      00 01 02 03 04 05 06 07  08 09 0A 0B 0C 0D 0E 0F
      -- -- -- -- -- -- -- --  -- -- -- -- -- -- -- --
0020:                                         5B 02 80               [..
0030: 4C 31 0B 01 4C 31 0B 01  64 73 68 30 00           L1..L1..dsh0.   
```

#### Opcodes

```
  0: 0x002D [0x5B] LOAD_EXT_SCHEDULER: Load scheduler "dsh0" with entities [Aldo (ID: 17510732/0x010B314C), Aldo (ID: 17510732/0x010B314C)], work=2607*
  1: 0x003C [0x00] END_REQSTACK()
```

### Event 65535.6

#### Metadata

| Field        | Value    |
|--------------|----------|
| Entrypoint   | 0x003D   |
| Data Size    | 16 bytes |
| Instructions | 2        |

```
      00 01 02 03 04 05 06 07  08 09 0A 0B 0C 0D 0E 0F
      -- -- -- -- -- -- -- --  -- -- -- -- -- -- -- --
0030:                                         5B 02 80               [..
0040: 4C 31 0B 01 4C 31 0B 01  64 6C 30 30 00           L1..L1..dl00.   
```

#### Opcodes

```
  0: 0x003D [0x5B] LOAD_EXT_SCHEDULER: Load scheduler "dl00" with entities [Aldo (ID: 17510732/0x010B314C), Aldo (ID: 17510732/0x010B314C)], work=2607*
  1: 0x004C [0x00] END_REQSTACK()
```

### Event 65535.7

#### Metadata

| Field        | Value    |
|--------------|----------|
| Entrypoint   | 0x004D   |
| Data Size    | 16 bytes |
| Instructions | 2        |

```
      00 01 02 03 04 05 06 07  08 09 0A 0B 0C 0D 0E 0F
      -- -- -- -- -- -- -- --  -- -- -- -- -- -- -- --
0040:                                         5B 02 80               [..
0050: 4C 31 0B 01 4C 31 0B 01  64 6C 30 31 00           L1..L1..dl01.   
```

#### Opcodes

```
  0: 0x004D [0x5B] LOAD_EXT_SCHEDULER: Load scheduler "dl01" with entities [Aldo (ID: 17510732/0x010B314C), Aldo (ID: 17510732/0x010B314C)], work=2607*
  1: 0x005C [0x00] END_REQSTACK()
```

### Event 65535.8

#### Metadata

| Field        | Value    |
|--------------|----------|
| Entrypoint   | 0x005D   |
| Data Size    | 16 bytes |
| Instructions | 2        |

```
      00 01 02 03 04 05 06 07  08 09 0A 0B 0C 0D 0E 0F
      -- -- -- -- -- -- -- --  -- -- -- -- -- -- -- --
0050:                                         5B 02 80               [..
0060: 4C 31 0B 01 4C 31 0B 01  64 6C 30 32 00           L1..L1..dl02.   
```

#### Opcodes

```
  0: 0x005D [0x5B] LOAD_EXT_SCHEDULER: Load scheduler "dl02" with entities [Aldo (ID: 17510732/0x010B314C), Aldo (ID: 17510732/0x010B314C)], work=2607*
  1: 0x006C [0x00] END_REQSTACK()
```

### Event 65535.9

#### Metadata

| Field        | Value    |
|--------------|----------|
| Entrypoint   | 0x006D   |
| Data Size    | 16 bytes |
| Instructions | 2        |

```
      00 01 02 03 04 05 06 07  08 09 0A 0B 0C 0D 0E 0F
      -- -- -- -- -- -- -- --  -- -- -- -- -- -- -- --
0060:                                         5B 03 80               [..
0070: 4C 31 0B 01 4C 31 0B 01  64 66 61 30 00           L1..L1..dfa0.   
```

#### Opcodes

```
  0: 0x006D [0x5B] LOAD_EXT_SCHEDULER: Load scheduler "dfa0" with entities [Aldo (ID: 17510732/0x010B314C), Aldo (ID: 17510732/0x010B314C)], work=2605*
  1: 0x007C [0x00] END_REQSTACK()
```

### Event 65535.10

#### Metadata

| Field        | Value    |
|--------------|----------|
| Entrypoint   | 0x007D   |
| Data Size    | 16 bytes |
| Instructions | 2        |

```
      00 01 02 03 04 05 06 07  08 09 0A 0B 0C 0D 0E 0F
      -- -- -- -- -- -- -- --  -- -- -- -- -- -- -- --
0070:                                         5B 03 80               [..
0080: 4C 31 0B 01 4C 31 0B 01  64 66 61 31 00           L1..L1..dfa1.   
```

#### Opcodes

```
  0: 0x007D [0x5B] LOAD_EXT_SCHEDULER: Load scheduler "dfa1" with entities [Aldo (ID: 17510732/0x010B314C), Aldo (ID: 17510732/0x010B314C)], work=2605*
  1: 0x008C [0x00] END_REQSTACK()
```

### Event 65535.11

#### Metadata

| Field        | Value    |
|--------------|----------|
| Entrypoint   | 0x008D   |
| Data Size    | 16 bytes |
| Instructions | 2        |

```
      00 01 02 03 04 05 06 07  08 09 0A 0B 0C 0D 0E 0F
      -- -- -- -- -- -- -- --  -- -- -- -- -- -- -- --
0080:                                         5B 03 80               [..
0090: 4C 31 0B 01 4C 31 0B 01  64 66 61 32 00           L1..L1..dfa2.   
```

#### Opcodes

```
  0: 0x008D [0x5B] LOAD_EXT_SCHEDULER: Load scheduler "dfa2" with entities [Aldo (ID: 17510732/0x010B314C), Aldo (ID: 17510732/0x010B314C)], work=2605*
  1: 0x009C [0x00] END_REQSTACK()
```

### Event 65535.12

#### Metadata

| Field        | Value    |
|--------------|----------|
| Entrypoint   | 0x009D   |
| Data Size    | 16 bytes |
| Instructions | 2        |

```
      00 01 02 03 04 05 06 07  08 09 0A 0B 0C 0D 0E 0F
      -- -- -- -- -- -- -- --  -- -- -- -- -- -- -- --
0090:                                         5B 03 80               [..
00A0: 4C 31 0B 01 4C 31 0B 01  64 66 6C 32 00           L1..L1..dfl2.   
```

#### Opcodes

```
  0: 0x009D [0x5B] LOAD_EXT_SCHEDULER: Load scheduler "dfl2" with entities [Aldo (ID: 17510732/0x010B314C), Aldo (ID: 17510732/0x010B314C)], work=2605*
  1: 0x00AC [0x00] END_REQSTACK()
```

### Event 65535.13

#### Metadata

| Field        | Value    |
|--------------|----------|
| Entrypoint   | 0x00AD   |
| Data Size    | 16 bytes |
| Instructions | 2        |

```
      00 01 02 03 04 05 06 07  08 09 0A 0B 0C 0D 0E 0F
      -- -- -- -- -- -- -- --  -- -- -- -- -- -- -- --
00A0:                                         5B 03 80               [..
00B0: 4C 31 0B 01 4C 31 0B 01  64 66 62 30 00           L1..L1..dfb0.   
```

#### Opcodes

```
  0: 0x00AD [0x5B] LOAD_EXT_SCHEDULER: Load scheduler "dfb0" with entities [Aldo (ID: 17510732/0x010B314C), Aldo (ID: 17510732/0x010B314C)], work=2605*
  1: 0x00BC [0x00] END_REQSTACK()
```

### Event 65535.14

#### Metadata

| Field        | Value    |
|--------------|----------|
| Entrypoint   | 0x00BD   |
| Data Size    | 16 bytes |
| Instructions | 2        |

```
      00 01 02 03 04 05 06 07  08 09 0A 0B 0C 0D 0E 0F
      -- -- -- -- -- -- -- --  -- -- -- -- -- -- -- --
00B0:                                         5B 03 80               [..
00C0: 4C 31 0B 01 4C 31 0B 01  64 66 62 31 00           L1..L1..dfb1.   
```

#### Opcodes

```
  0: 0x00BD [0x5B] LOAD_EXT_SCHEDULER: Load scheduler "dfb1" with entities [Aldo (ID: 17510732/0x010B314C), Aldo (ID: 17510732/0x010B314C)], work=2605*
  1: 0x00CC [0x00] END_REQSTACK()
```

### Event 65535.15

#### Metadata

| Field        | Value    |
|--------------|----------|
| Entrypoint   | 0x00CD   |
| Data Size    | 16 bytes |
| Instructions | 2        |

```
      00 01 02 03 04 05 06 07  08 09 0A 0B 0C 0D 0E 0F
      -- -- -- -- -- -- -- --  -- -- -- -- -- -- -- --
00C0:                                         5B 04 80               [..
00D0: 4C 31 0B 01 4C 31 0B 01  64 66 62 32 00           L1..L1..dfb2.   
```

#### Opcodes

```
  0: 0x00CD [0x5B] LOAD_EXT_SCHEDULER: Load scheduler "dfb2" with entities [Aldo (ID: 17510732/0x010B314C), Aldo (ID: 17510732/0x010B314C)], work=2606*
  1: 0x00DC [0x00] END_REQSTACK()
```

### Event 65535.16

#### Metadata

| Field        | Value    |
|--------------|----------|
| Entrypoint   | 0x00DD   |
| Data Size    | 16 bytes |
| Instructions | 2        |

```
      00 01 02 03 04 05 06 07  08 09 0A 0B 0C 0D 0E 0F
      -- -- -- -- -- -- -- --  -- -- -- -- -- -- -- --
00D0:                                         5B 04 80               [..
00E0: 4C 31 0B 01 4C 31 0B 01  64 66 62 33 00           L1..L1..dfb3.   
```

#### Opcodes

```
  0: 0x00DD [0x5B] LOAD_EXT_SCHEDULER: Load scheduler "dfb3" with entities [Aldo (ID: 17510732/0x010B314C), Aldo (ID: 17510732/0x010B314C)], work=2606*
  1: 0x00EC [0x00] END_REQSTACK()
```

### Event 65535.17

#### Metadata

| Field        | Value    |
|--------------|----------|
| Entrypoint   | 0x00ED   |
| Data Size    | 16 bytes |
| Instructions | 2        |

```
      00 01 02 03 04 05 06 07  08 09 0A 0B 0C 0D 0E 0F
      -- -- -- -- -- -- -- --  -- -- -- -- -- -- -- --
00E0:                                         5B 04 80               [..
00F0: 4C 31 0B 01 4C 31 0B 01  64 66 62 34 00           L1..L1..dfb4.   
```

#### Opcodes

```
  0: 0x00ED [0x5B] LOAD_EXT_SCHEDULER: Load scheduler "dfb4" with entities [Aldo (ID: 17510732/0x010B314C), Aldo (ID: 17510732/0x010B314C)], work=2606*
  1: 0x00FC [0x00] END_REQSTACK()
```

### Event 65535.18

#### Metadata

| Field        | Value    |
|--------------|----------|
| Entrypoint   | 0x00FD   |
| Data Size    | 16 bytes |
| Instructions | 2        |

```
      00 01 02 03 04 05 06 07  08 09 0A 0B 0C 0D 0E 0F
      -- -- -- -- -- -- -- --  -- -- -- -- -- -- -- --
00F0:                                         5B 04 80               [..
0100: 4C 31 0B 01 4C 31 0B 01  64 66 62 35 00           L1..L1..dfb5.   
```

#### Opcodes

```
  0: 0x00FD [0x5B] LOAD_EXT_SCHEDULER: Load scheduler "dfb5" with entities [Aldo (ID: 17510732/0x010B314C), Aldo (ID: 17510732/0x010B314C)], work=2606*
  1: 0x010C [0x00] END_REQSTACK()
```

### Event 65535.19

#### Metadata

| Field        | Value    |
|--------------|----------|
| Entrypoint   | 0x010D   |
| Data Size    | 16 bytes |
| Instructions | 2        |

```
      00 01 02 03 04 05 06 07  08 09 0A 0B 0C 0D 0E 0F
      -- -- -- -- -- -- -- --  -- -- -- -- -- -- -- --
0100:                                         5B 05 80               [..
0110: 4C 31 0B 01 4C 31 0B 01  65 64 30 30 00           L1..L1..ed00.   
```

#### Opcodes

```
  0: 0x010D [0x5B] LOAD_EXT_SCHEDULER: Load scheduler "ed00" with entities [Aldo (ID: 17510732/0x010B314C), Aldo (ID: 17510732/0x010B314C)], work=2622*
  1: 0x011C [0x00] END_REQSTACK()
```

### Event 65535.20

#### Metadata

| Field        | Value    |
|--------------|----------|
| Entrypoint   | 0x011D   |
| Data Size    | 16 bytes |
| Instructions | 2        |

```
      00 01 02 03 04 05 06 07  08 09 0A 0B 0C 0D 0E 0F
      -- -- -- -- -- -- -- --  -- -- -- -- -- -- -- --
0110:                                         5B 05 80               [..
0120: 4C 31 0B 01 4C 31 0B 01  65 64 30 31 00           L1..L1..ed01.   
```

#### Opcodes

```
  0: 0x011D [0x5B] LOAD_EXT_SCHEDULER: Load scheduler "ed01" with entities [Aldo (ID: 17510732/0x010B314C), Aldo (ID: 17510732/0x010B314C)], work=2622*
  1: 0x012C [0x00] END_REQSTACK()
```

### Event 65535.21

#### Metadata

| Field        | Value    |
|--------------|----------|
| Entrypoint   | 0x012D   |
| Data Size    | 16 bytes |
| Instructions | 2        |

```
      00 01 02 03 04 05 06 07  08 09 0A 0B 0C 0D 0E 0F
      -- -- -- -- -- -- -- --  -- -- -- -- -- -- -- --
0120:                                         5B 05 80               [..
0130: 4C 31 0B 01 4C 31 0B 01  65 64 30 32 00           L1..L1..ed02.   
```

#### Opcodes

```
  0: 0x012D [0x5B] LOAD_EXT_SCHEDULER: Load scheduler "ed02" with entities [Aldo (ID: 17510732/0x010B314C), Aldo (ID: 17510732/0x010B314C)], work=2622*
  1: 0x013C [0x00] END_REQSTACK()
```

### Event 65535.22

#### Metadata

| Field        | Value    |
|--------------|----------|
| Entrypoint   | 0x013D   |
| Data Size    | 16 bytes |
| Instructions | 2        |

```
      00 01 02 03 04 05 06 07  08 09 0A 0B 0C 0D 0E 0F
      -- -- -- -- -- -- -- --  -- -- -- -- -- -- -- --
0130:                                         5B 05 80               [..
0140: 4C 31 0B 01 4C 31 0B 01  65 64 30 33 00           L1..L1..ed03.   
```

#### Opcodes

```
  0: 0x013D [0x5B] LOAD_EXT_SCHEDULER: Load scheduler "ed03" with entities [Aldo (ID: 17510732/0x010B314C), Aldo (ID: 17510732/0x010B314C)], work=2622*
  1: 0x014C [0x00] END_REQSTACK()
```

### Event 65535.23

#### Metadata

| Field        | Value    |
|--------------|----------|
| Entrypoint   | 0x014D   |
| Data Size    | 16 bytes |
| Instructions | 2        |

```
      00 01 02 03 04 05 06 07  08 09 0A 0B 0C 0D 0E 0F
      -- -- -- -- -- -- -- --  -- -- -- -- -- -- -- --
0140:                                         5B 05 80               [..
0150: 4C 31 0B 01 4C 31 0B 01  65 64 30 34 00           L1..L1..ed04.   
```

#### Opcodes

```
  0: 0x014D [0x5B] LOAD_EXT_SCHEDULER: Load scheduler "ed04" with entities [Aldo (ID: 17510732/0x010B314C), Aldo (ID: 17510732/0x010B314C)], work=2622*
  1: 0x015C [0x00] END_REQSTACK()
```

### Event 65535.24

#### Metadata

| Field        | Value    |
|--------------|----------|
| Entrypoint   | 0x015D   |
| Data Size    | 16 bytes |
| Instructions | 2        |

```
      00 01 02 03 04 05 06 07  08 09 0A 0B 0C 0D 0E 0F
      -- -- -- -- -- -- -- --  -- -- -- -- -- -- -- --
0150:                                         5B 06 80               [..
0160: 4C 31 0B 01 4C 31 0B 01  65 64 73 30 00           L1..L1..eds0.   
```

#### Opcodes

```
  0: 0x015D [0x5B] LOAD_EXT_SCHEDULER: Load scheduler "eds0" with entities [Aldo (ID: 17510732/0x010B314C), Aldo (ID: 17510732/0x010B314C)], work=2623*
  1: 0x016C [0x00] END_REQSTACK()
```

### Event 65535.25

#### Metadata

| Field        | Value    |
|--------------|----------|
| Entrypoint   | 0x016D   |
| Data Size    | 16 bytes |
| Instructions | 2        |

```
      00 01 02 03 04 05 06 07  08 09 0A 0B 0C 0D 0E 0F
      -- -- -- -- -- -- -- --  -- -- -- -- -- -- -- --
0160:                                         5B 06 80               [..
0170: 4C 31 0B 01 4C 31 0B 01  65 64 73 31 00           L1..L1..eds1.   
```

#### Opcodes

```
  0: 0x016D [0x5B] LOAD_EXT_SCHEDULER: Load scheduler "eds1" with entities [Aldo (ID: 17510732/0x010B314C), Aldo (ID: 17510732/0x010B314C)], work=2623*
  1: 0x017C [0x00] END_REQSTACK()
```

### Event 65535.26

#### Metadata

| Field        | Value    |
|--------------|----------|
| Entrypoint   | 0x017D   |
| Data Size    | 16 bytes |
| Instructions | 2        |

```
      00 01 02 03 04 05 06 07  08 09 0A 0B 0C 0D 0E 0F
      -- -- -- -- -- -- -- --  -- -- -- -- -- -- -- --
0170:                                         5B 07 80               [..
0180: 4C 31 0B 01 4C 31 0B 01  74 6C 6B 30 00           L1..L1..tlk0.   
```

#### Opcodes

```
  0: 0x017D [0x5B] LOAD_EXT_SCHEDULER: Load scheduler "tlk0" with entities [Aldo (ID: 17510732/0x010B314C), Aldo (ID: 17510732/0x010B314C)], work=185*
  1: 0x018C [0x00] END_REQSTACK()
```

### Event 65535.27

#### Metadata

| Field        | Value    |
|--------------|----------|
| Entrypoint   | 0x018D   |
| Data Size    | 16 bytes |
| Instructions | 2        |

```
      00 01 02 03 04 05 06 07  08 09 0A 0B 0C 0D 0E 0F
      -- -- -- -- -- -- -- --  -- -- -- -- -- -- -- --
0180:                                         5B 07 80               [..
0190: 4C 31 0B 01 4C 31 0B 01  74 6C 6B 31 00           L1..L1..tlk1.   
```

#### Opcodes

```
  0: 0x018D [0x5B] LOAD_EXT_SCHEDULER: Load scheduler "tlk1" with entities [Aldo (ID: 17510732/0x010B314C), Aldo (ID: 17510732/0x010B314C)], work=185*
  1: 0x019C [0x00] END_REQSTACK()
```

### Event 65535.28

#### Metadata

| Field        | Value    |
|--------------|----------|
| Entrypoint   | 0x019D   |
| Data Size    | 16 bytes |
| Instructions | 2        |

```
      00 01 02 03 04 05 06 07  08 09 0A 0B 0C 0D 0E 0F
      -- -- -- -- -- -- -- --  -- -- -- -- -- -- -- --
0190:                                         5B 08 80               [..
01A0: 4C 31 0B 01 4C 31 0B 01  64 6C 30 30 00           L1..L1..dl00.   
```

#### Opcodes

```
  0: 0x019D [0x5B] LOAD_EXT_SCHEDULER: Load scheduler "dl00" with entities [Aldo (ID: 17510732/0x010B314C), Aldo (ID: 17510732/0x010B314C)], work=541*
  1: 0x01AC [0x00] END_REQSTACK()
```

### Event 65535.29

#### Metadata

| Field        | Value    |
|--------------|----------|
| Entrypoint   | 0x01AD   |
| Data Size    | 16 bytes |
| Instructions | 2        |

```
      00 01 02 03 04 05 06 07  08 09 0A 0B 0C 0D 0E 0F
      -- -- -- -- -- -- -- --  -- -- -- -- -- -- -- --
01A0:                                         5B 08 80               [..
01B0: 4C 31 0B 01 4C 31 0B 01  64 6C 30 31 00           L1..L1..dl01.   
```

#### Opcodes

```
  0: 0x01AD [0x5B] LOAD_EXT_SCHEDULER: Load scheduler "dl01" with entities [Aldo (ID: 17510732/0x010B314C), Aldo (ID: 17510732/0x010B314C)], work=541*
  1: 0x01BC [0x00] END_REQSTACK()
```

### Event 65535.30

#### Metadata

| Field        | Value    |
|--------------|----------|
| Entrypoint   | 0x01BD   |
| Data Size    | 16 bytes |
| Instructions | 2        |

```
      00 01 02 03 04 05 06 07  08 09 0A 0B 0C 0D 0E 0F
      -- -- -- -- -- -- -- --  -- -- -- -- -- -- -- --
01B0:                                         5B 08 80               [..
01C0: 4C 31 0B 01 4C 31 0B 01  64 6C 30 32 00           L1..L1..dl02.   
```

#### Opcodes

```
  0: 0x01BD [0x5B] LOAD_EXT_SCHEDULER: Load scheduler "dl02" with entities [Aldo (ID: 17510732/0x010B314C), Aldo (ID: 17510732/0x010B314C)], work=541*
  1: 0x01CC [0x00] END_REQSTACK()
```

### Event 65535.31

#### Metadata

| Field        | Value    |
|--------------|----------|
| Entrypoint   | 0x01CD   |
| Data Size    | 16 bytes |
| Instructions | 2        |

```
      00 01 02 03 04 05 06 07  08 09 0A 0B 0C 0D 0E 0F
      -- -- -- -- -- -- -- --  -- -- -- -- -- -- -- --
01C0:                                         5B 08 80               [..
01D0: 4C 31 0B 01 4C 31 0B 01  64 6C 30 61 00           L1..L1..dl0a.   
```

#### Opcodes

```
  0: 0x01CD [0x5B] LOAD_EXT_SCHEDULER: Load scheduler "dl0a" with entities [Aldo (ID: 17510732/0x010B314C), Aldo (ID: 17510732/0x010B314C)], work=541*
  1: 0x01DC [0x00] END_REQSTACK()
```

### Event 65535.32

#### Metadata

| Field        | Value    |
|--------------|----------|
| Entrypoint   | 0x01DD   |
| Data Size    | 16 bytes |
| Instructions | 2        |

```
      00 01 02 03 04 05 06 07  08 09 0A 0B 0C 0D 0E 0F
      -- -- -- -- -- -- -- --  -- -- -- -- -- -- -- --
01D0:                                         5B 08 80               [..
01E0: 4C 31 0B 01 4C 31 0B 01  64 6C 30 34 00           L1..L1..dl04.   
```

#### Opcodes

```
  0: 0x01DD [0x5B] LOAD_EXT_SCHEDULER: Load scheduler "dl04" with entities [Aldo (ID: 17510732/0x010B314C), Aldo (ID: 17510732/0x010B314C)], work=541*
  1: 0x01EC [0x00] END_REQSTACK()
```

### Event 65535.33

#### Metadata

| Field        | Value    |
|--------------|----------|
| Entrypoint   | 0x01ED   |
| Data Size    | 16 bytes |
| Instructions | 2        |

```
      00 01 02 03 04 05 06 07  08 09 0A 0B 0C 0D 0E 0F
      -- -- -- -- -- -- -- --  -- -- -- -- -- -- -- --
01E0:                                         5B 08 80               [..
01F0: 4C 31 0B 01 4C 31 0B 01  64 6C 30 35 00           L1..L1..dl05.   
```

#### Opcodes

```
  0: 0x01ED [0x5B] LOAD_EXT_SCHEDULER: Load scheduler "dl05" with entities [Aldo (ID: 17510732/0x010B314C), Aldo (ID: 17510732/0x010B314C)], work=541*
  1: 0x01FC [0x00] END_REQSTACK()
```

### Event 65535.34

#### Metadata

| Field        | Value    |
|--------------|----------|
| Entrypoint   | 0x01FD   |
| Data Size    | 16 bytes |
| Instructions | 2        |

```
      00 01 02 03 04 05 06 07  08 09 0A 0B 0C 0D 0E 0F
      -- -- -- -- -- -- -- --  -- -- -- -- -- -- -- --
01F0:                                         5B 09 80               [..
0200: 4C 31 0B 01 4C 31 0B 01  64 6C 30 38 00           L1..L1..dl08.   
```

#### Opcodes

```
  0: 0x01FD [0x5B] LOAD_EXT_SCHEDULER: Load scheduler "dl08" with entities [Aldo (ID: 17510732/0x010B314C), Aldo (ID: 17510732/0x010B314C)], work=542*
  1: 0x020C [0x00] END_REQSTACK()
```

### Event 65535.35

#### Metadata

| Field        | Value    |
|--------------|----------|
| Entrypoint   | 0x020D   |
| Data Size    | 16 bytes |
| Instructions | 2        |

```
      00 01 02 03 04 05 06 07  08 09 0A 0B 0C 0D 0E 0F
      -- -- -- -- -- -- -- --  -- -- -- -- -- -- -- --
0200:                                         5B 09 80               [..
0210: 4C 31 0B 01 4C 31 0B 01  64 6C 31 32 00           L1..L1..dl12.   
```

#### Opcodes

```
  0: 0x020D [0x5B] LOAD_EXT_SCHEDULER: Load scheduler "dl12" with entities [Aldo (ID: 17510732/0x010B314C), Aldo (ID: 17510732/0x010B314C)], work=542*
  1: 0x021C [0x00] END_REQSTACK()
```

### Event 65535.36

#### Metadata

| Field        | Value    |
|--------------|----------|
| Entrypoint   | 0x021D   |
| Data Size    | 16 bytes |
| Instructions | 2        |

```
      00 01 02 03 04 05 06 07  08 09 0A 0B 0C 0D 0E 0F
      -- -- -- -- -- -- -- --  -- -- -- -- -- -- -- --
0210:                                         5B 07 80               [..
0220: 4C 31 0B 01 4C 31 0B 01  74 68 6B 32 00           L1..L1..thk2.   
```

#### Opcodes

```
  0: 0x021D [0x5B] LOAD_EXT_SCHEDULER: Load scheduler "thk2" with entities [Aldo (ID: 17510732/0x010B314C), Aldo (ID: 17510732/0x010B314C)], work=185*
  1: 0x022C [0x00] END_REQSTACK()
```

### Event 65535.37

#### Metadata

| Field        | Value    |
|--------------|----------|
| Entrypoint   | 0x022D   |
| Data Size    | 16 bytes |
| Instructions | 2        |

```
      00 01 02 03 04 05 06 07  08 09 0A 0B 0C 0D 0E 0F
      -- -- -- -- -- -- -- --  -- -- -- -- -- -- -- --
0220:                                         5B 07 80               [..
0230: 4C 31 0B 01 4C 31 0B 01  74 6C 6B 30 00           L1..L1..tlk0.   
```

#### Opcodes

```
  0: 0x022D [0x5B] LOAD_EXT_SCHEDULER: Load scheduler "tlk0" with entities [Aldo (ID: 17510732/0x010B314C), Aldo (ID: 17510732/0x010B314C)], work=185*
  1: 0x023C [0x00] END_REQSTACK()
```

### Event 65535.38

#### Metadata

| Field        | Value    |
|--------------|----------|
| Entrypoint   | 0x023D   |
| Data Size    | 16 bytes |
| Instructions | 2        |

```
      00 01 02 03 04 05 06 07  08 09 0A 0B 0C 0D 0E 0F
      -- -- -- -- -- -- -- --  -- -- -- -- -- -- -- --
0230:                                         5B 07 80               [..
0240: 4C 31 0B 01 4C 31 0B 01  74 6C 6B 31 00           L1..L1..tlk1.   
```

#### Opcodes

```
  0: 0x023D [0x5B] LOAD_EXT_SCHEDULER: Load scheduler "tlk1" with entities [Aldo (ID: 17510732/0x010B314C), Aldo (ID: 17510732/0x010B314C)], work=185*
  1: 0x024C [0x00] END_REQSTACK()
```

### Event 65535.39

#### Metadata

| Field        | Value    |
|--------------|----------|
| Entrypoint   | 0x024D   |
| Data Size    | 16 bytes |
| Instructions | 2        |

```
      00 01 02 03 04 05 06 07  08 09 0A 0B 0C 0D 0E 0F
      -- -- -- -- -- -- -- --  -- -- -- -- -- -- -- --
0240:                                         5B 08 80               [..
0250: 4C 31 0B 01 4C 31 0B 01  64 6C 30 37 00           L1..L1..dl07.   
```

#### Opcodes

```
  0: 0x024D [0x5B] LOAD_EXT_SCHEDULER: Load scheduler "dl07" with entities [Aldo (ID: 17510732/0x010B314C), Aldo (ID: 17510732/0x010B314C)], work=541*
  1: 0x025C [0x00] END_REQSTACK()
```

### Event 65535.40

#### Metadata

| Field        | Value    |
|--------------|----------|
| Entrypoint   | 0x025D   |
| Data Size    | 11 bytes |
| Instructions | 2        |

```
      00 01 02 03 04 05 06 07  08 09 0A 0B 0C 0D 0E 0F
      -- -- -- -- -- -- -- --  -- -- -- -- -- -- -- --
0250:                                         79 02 4C               y.L
0260: 31 0B 01 0A 80 0B 80 00                           1.......        
```

#### Opcodes

```
  0: 0x025D [0x79] Aldo (ID: 17510732/0x010B314C) looks at Unknown NPC (ID: 2148237322/0x800B800A) (Direct axis set)
  1: 0x0267 [0x00] END_REQSTACK()
```

### Event 65535.41

#### Metadata

| Field        | Value   |
|--------------|---------|
| Entrypoint   | 0x0268  |
| Data Size    | 4 bytes |
| Instructions | 2       |

```
      00 01 02 03 04 05 06 07  08 09 0A 0B 0C 0D 0E 0F
      -- -- -- -- -- -- -- --  -- -- -- -- -- -- -- --
0260:                          C0 01 80 00                      ....    
```

#### Opcodes

```
  0: 0x0268 [0xC0] EventEntity->Render.Flags3 |= 0x1000 // Set bit 12 (from 1*)
  1: 0x026B [0x00] END_REQSTACK()
```
