# 17510733 - Young Aldo

## Common Data

| Field            | Value                     |
|------------------|---------------------------|
| Zone             | Stellar Fulcrum (ID: 179) |
| Block Size       | 976 bytes                 |
| Total Events     | 49                        |
| References Count | 20                        |

## List of Events

| Event ID                   | Entrypoint   |   Size |   Instructions |
|----------------------------|--------------|--------|----------------|
| [65535](#event-65535)      | 0x0000       |      1 |              1 |
| [12](#event-12)            | 0x0001       |      1 |              1 |
| [32000](#event-32000)      | 0x0002       |      1 |              1 |
| [13](#event-13)            | 0x0003       |      1 |              1 |
| [14](#event-14)            | 0x0004       |      1 |              1 |
| [65535.1](#event-655351)   | 0x0005       |     26 |              6 |
| [65535.2](#event-655352)   | 0x001F       |      8 |              3 |
| [65535.3](#event-655353)   | 0x0027       |      3 |              2 |
| [65535.4](#event-655354)   | 0x002A       |      3 |              2 |
| [65535.5](#event-655355)   | 0x002D       |     16 |              2 |
| [65535.6](#event-655356)   | 0x003D       |     16 |              2 |
| [65535.7](#event-655357)   | 0x004D       |     16 |              2 |
| [65535.8](#event-655358)   | 0x005D       |     16 |              2 |
| [65535.9](#event-655359)   | 0x006D       |     16 |              2 |
| [65535.10](#event-6553510) | 0x007D       |     16 |              2 |
| [65535.11](#event-6553511) | 0x008D       |     16 |              2 |
| [65535.12](#event-6553512) | 0x009D       |     16 |              2 |
| [65535.13](#event-6553513) | 0x00AD       |     16 |              2 |
| [65535.14](#event-6553514) | 0x00BD       |     16 |              2 |
| [65535.15](#event-6553515) | 0x00CD       |     16 |              2 |
| [65535.16](#event-6553516) | 0x00DD       |     16 |              2 |
| [65535.17](#event-6553517) | 0x00ED       |     16 |              2 |
| [65535.18](#event-6553518) | 0x00FD       |     16 |              2 |
| [65535.19](#event-6553519) | 0x010D       |     16 |              2 |
| [65535.20](#event-6553520) | 0x011D       |     16 |              2 |
| [65535.21](#event-6553521) | 0x012D       |     16 |              2 |
| [65535.22](#event-6553522) | 0x013D       |     16 |              2 |
| [65535.23](#event-6553523) | 0x014D       |     16 |              2 |
| [65535.24](#event-6553524) | 0x015D       |     16 |              2 |
| [65535.25](#event-6553525) | 0x016D       |     16 |              2 |
| [65535.26](#event-6553526) | 0x017D       |     16 |              2 |
| [65535.27](#event-6553527) | 0x018D       |     16 |              2 |
| [65535.28](#event-6553528) | 0x019D       |     16 |              2 |
| [65535.29](#event-6553529) | 0x01AD       |     18 |              2 |
| [65535.30](#event-6553530) | 0x01BF       |     18 |              2 |
| [65535.31](#event-6553531) | 0x01D1       |     18 |              2 |
| [65535.32](#event-6553532) | 0x01E3       |     12 |              4 |
| [65535.33](#event-6553533) | 0x01EF       |     12 |              4 |
| [65535.34](#event-6553534) | 0x01FB       |     16 |              2 |
| [65535.35](#event-6553535) | 0x020B       |     16 |              2 |
| [65535.36](#event-6553536) | 0x021B       |     16 |              2 |
| [65535.37](#event-6553537) | 0x022B       |     16 |              2 |
| [65535.38](#event-6553538) | 0x023B       |     16 |              2 |
| [65535.39](#event-6553539) | 0x024B       |     16 |              2 |
| [65535.40](#event-6553540) | 0x025B       |     16 |              2 |
| [65535.41](#event-6553541) | 0x026B       |     11 |              2 |
| [65535.42](#event-6553542) | 0x0276       |     10 |              2 |
| [65535.43](#event-6553543) | 0x0280       |     40 |              9 |
| [65535.44](#event-6553544) | 0x02A8       |      4 |              2 |

## DAT References (imed_data)

|   Index | Hex Value   |   Dec Value |
|---------|-------------|-------------|
|       0 | 0x092E      |        2350 |
|       1 | 0x0001      |           1 |
|       2 | 0x0A09      |        2569 |
|       3 | 0x0A0A      |        2570 |
|       4 | 0x0A0B      |        2571 |
|       5 | 0x0A0E      |        2574 |
|       6 | 0x005C      |          92 |
|       7 | 0x0000      |           0 |
|       8 | 0xFFFFDAFD  |  4294957821 |
|       9 | 0x95F7      |       38391 |
|      10 | 0x0B52      |        2898 |
|      11 | 0xFFFFE00F  |  4294959119 |
|      12 | 0x8EA2      |       36514 |
|      13 | 0x0A10      |        2576 |
|      14 | 0x0A0C      |        2572 |
|      15 | 0x01C2      |         450 |
|      16 | 0x0190      |         400 |
|      17 | 0x0168      |         360 |
|      18 | 0x07D0      |        2000 |
|      19 | 0x0014      |          20 |

## Events

### Event 65535

#### Metadata

| Field        | Value   |
|--------------|---------|
| Entrypoint   | 0x0000  |
| Data Size    | 1 bytes |
| Instructions | 1       |

```
      00 01 02 03 04 05 06 07  08 09 0A 0B 0C 0D 0E 0F
      -- -- -- -- -- -- -- --  -- -- -- -- -- -- -- --
0000: 00                                                .               
```

#### Opcodes

```
  0: 0x0000 [0x00] END_REQSTACK()
```

### Event 12

#### Metadata

| Field        | Value   |
|--------------|---------|
| Entrypoint   | 0x0001  |
| Data Size    | 1 bytes |
| Instructions | 1       |

```
      00 01 02 03 04 05 06 07  08 09 0A 0B 0C 0D 0E 0F
      -- -- -- -- -- -- -- --  -- -- -- -- -- -- -- --
0000:    00                                              .              
```

#### Opcodes

```
  0: 0x0001 [0x00] END_REQSTACK()
```

### Event 32000

#### Metadata

| Field        | Value   |
|--------------|---------|
| Entrypoint   | 0x0002  |
| Data Size    | 1 bytes |
| Instructions | 1       |

```
      00 01 02 03 04 05 06 07  08 09 0A 0B 0C 0D 0E 0F
      -- -- -- -- -- -- -- --  -- -- -- -- -- -- -- --
0000:       00                                            .             
```

#### Opcodes

```
  0: 0x0002 [0x00] END_REQSTACK()
```

### Event 13

#### Metadata

| Field        | Value   |
|--------------|---------|
| Entrypoint   | 0x0003  |
| Data Size    | 1 bytes |
| Instructions | 1       |

```
      00 01 02 03 04 05 06 07  08 09 0A 0B 0C 0D 0E 0F
      -- -- -- -- -- -- -- --  -- -- -- -- -- -- -- --
0000:          00                                          .            
```

#### Opcodes

```
  0: 0x0003 [0x00] END_REQSTACK()
```

### Event 14

#### Metadata

| Field        | Value   |
|--------------|---------|
| Entrypoint   | 0x0004  |
| Data Size    | 1 bytes |
| Instructions | 1       |

```
      00 01 02 03 04 05 06 07  08 09 0A 0B 0C 0D 0E 0F
      -- -- -- -- -- -- -- --  -- -- -- -- -- -- -- --
0000:             00                                        .           
```

#### Opcodes

```
  0: 0x0004 [0x00] END_REQSTACK()
```

### Event 65535.1

#### Metadata

| Field        | Value    |
|--------------|----------|
| Entrypoint   | 0x0005   |
| Data Size    | 26 bytes |
| Instructions | 6        |

```
      00 01 02 03 04 05 06 07  08 09 0A 0B 0C 0D 0E 0F
      -- -- -- -- -- -- -- --  -- -- -- -- -- -- -- --
0000:                4E 00 4D  31 0B 01 B6 00 00 80 92       N.M1.......
0010: 01 4D 31 0B 01 94 01 4D  31 0B 01 C0 01 80 00     .M1....M1...... 
```

#### Opcodes

```
  0: 0x0005 [0x4E] SET_ENTITY_HIDE_FLAG: Show Young Aldo (ID: 17510733/0x010B314D)
  1: 0x000B [0xB6] ENTITY_APPEARANCE_HANDLER(case=Hair style, value=2350*)
  2: 0x000F [0x92] Young Aldo (ID: 17510733/0x010B314D)->Render.Flags3 ^= 0x01
  3: 0x0015 [0x94] Young Aldo (ID: 17510733/0x010B314D)->Render.Flags3 ^= 0x01
  4: 0x001B [0xC0] EventEntity->Render.Flags3 |= 0x1000 // Set bit 12 (from 1*)
  5: 0x001E [0x00] END_REQSTACK()
```

### Event 65535.2

#### Metadata

| Field        | Value   |
|--------------|---------|
| Entrypoint   | 0x001F  |
| Data Size    | 8 bytes |
| Instructions | 3       |

```
      00 01 02 03 04 05 06 07  08 09 0A 0B 0C 0D 0E 0F
      -- -- -- -- -- -- -- --  -- -- -- -- -- -- -- --
0010:                                               B6                 .
0020: 00 00 80 C0 01 80 00                              .......         
```

#### Opcodes

```
  0: 0x001F [0xB6] ENTITY_APPEARANCE_HANDLER(case=Hair style, value=2350*)
  1: 0x0023 [0xC0] EventEntity->Render.Flags3 |= 0x1000 // Set bit 12 (from 1*)
  2: 0x0026 [0x00] END_REQSTACK()
```

### Event 65535.3

#### Metadata

| Field        | Value   |
|--------------|---------|
| Entrypoint   | 0x0027  |
| Data Size    | 3 bytes |
| Instructions | 2       |

```
      00 01 02 03 04 05 06 07  08 09 0A 0B 0C 0D 0E 0F
      -- -- -- -- -- -- -- --  -- -- -- -- -- -- -- --
0020:                      A4  01 00                           ...      
```

#### Opcodes

```
  0: 0x0027 [0xA4] EventEntity->Flags3.unknown_3_2 = 1
  1: 0x0029 [0x00] END_REQSTACK()
```

### Event 65535.4

#### Metadata

| Field        | Value   |
|--------------|---------|
| Entrypoint   | 0x002A  |
| Data Size    | 3 bytes |
| Instructions | 2       |

```
      00 01 02 03 04 05 06 07  08 09 0A 0B 0C 0D 0E 0F
      -- -- -- -- -- -- -- --  -- -- -- -- -- -- -- --
0020:                                A4 00 00                     ...   
```

#### Opcodes

```
  0: 0x002A [0xA4] EventEntity->Flags3.unknown_3_2 = 0
  1: 0x002C [0x00] END_REQSTACK()
```

### Event 65535.5

#### Metadata

| Field        | Value    |
|--------------|----------|
| Entrypoint   | 0x002D   |
| Data Size    | 16 bytes |
| Instructions | 2        |

```
      00 01 02 03 04 05 06 07  08 09 0A 0B 0C 0D 0E 0F
      -- -- -- -- -- -- -- --  -- -- -- -- -- -- -- --
0020:                                         5B 02 80               [..
0030: 4D 31 0B 01 4D 31 0B 01  74 6C 61 30 00           M1..M1..tla0.   
```

#### Opcodes

```
  0: 0x002D [0x5B] LOAD_EXT_SCHEDULER: Load scheduler "tla0" with entities [Young Aldo (ID: 17510733/0x010B314D), Young Aldo (ID: 17510733/0x010B314D)], work=2569*
  1: 0x003C [0x00] END_REQSTACK()
```

### Event 65535.6

#### Metadata

| Field        | Value    |
|--------------|----------|
| Entrypoint   | 0x003D   |
| Data Size    | 16 bytes |
| Instructions | 2        |

```
      00 01 02 03 04 05 06 07  08 09 0A 0B 0C 0D 0E 0F
      -- -- -- -- -- -- -- --  -- -- -- -- -- -- -- --
0030:                                         5B 02 80               [..
0040: 4D 31 0B 01 4D 31 0B 01  74 6C 61 31 00           M1..M1..tla1.   
```

#### Opcodes

```
  0: 0x003D [0x5B] LOAD_EXT_SCHEDULER: Load scheduler "tla1" with entities [Young Aldo (ID: 17510733/0x010B314D), Young Aldo (ID: 17510733/0x010B314D)], work=2569*
  1: 0x004C [0x00] END_REQSTACK()
```

### Event 65535.7

#### Metadata

| Field        | Value    |
|--------------|----------|
| Entrypoint   | 0x004D   |
| Data Size    | 16 bytes |
| Instructions | 2        |

```
      00 01 02 03 04 05 06 07  08 09 0A 0B 0C 0D 0E 0F
      -- -- -- -- -- -- -- --  -- -- -- -- -- -- -- --
0040:                                         5B 02 80               [..
0050: 4D 31 0B 01 4D 31 0B 01  74 6C 62 30 00           M1..M1..tlb0.   
```

#### Opcodes

```
  0: 0x004D [0x5B] LOAD_EXT_SCHEDULER: Load scheduler "tlb0" with entities [Young Aldo (ID: 17510733/0x010B314D), Young Aldo (ID: 17510733/0x010B314D)], work=2569*
  1: 0x005C [0x00] END_REQSTACK()
```

### Event 65535.8

#### Metadata

| Field        | Value    |
|--------------|----------|
| Entrypoint   | 0x005D   |
| Data Size    | 16 bytes |
| Instructions | 2        |

```
      00 01 02 03 04 05 06 07  08 09 0A 0B 0C 0D 0E 0F
      -- -- -- -- -- -- -- --  -- -- -- -- -- -- -- --
0050:                                         5B 02 80               [..
0060: 4D 31 0B 01 4D 31 0B 01  74 6C 62 31 00           M1..M1..tlb1.   
```

#### Opcodes

```
  0: 0x005D [0x5B] LOAD_EXT_SCHEDULER: Load scheduler "tlb1" with entities [Young Aldo (ID: 17510733/0x010B314D), Young Aldo (ID: 17510733/0x010B314D)], work=2569*
  1: 0x006C [0x00] END_REQSTACK()
```

### Event 65535.9

#### Metadata

| Field        | Value    |
|--------------|----------|
| Entrypoint   | 0x006D   |
| Data Size    | 16 bytes |
| Instructions | 2        |

```
      00 01 02 03 04 05 06 07  08 09 0A 0B 0C 0D 0E 0F
      -- -- -- -- -- -- -- --  -- -- -- -- -- -- -- --
0060:                                         5B 02 80               [..
0070: 4D 31 0B 01 4D 31 0B 01  77 61 76 30 00           M1..M1..wav0.   
```

#### Opcodes

```
  0: 0x006D [0x5B] LOAD_EXT_SCHEDULER: Load scheduler "wav0" with entities [Young Aldo (ID: 17510733/0x010B314D), Young Aldo (ID: 17510733/0x010B314D)], work=2569*
  1: 0x007C [0x00] END_REQSTACK()
```

### Event 65535.10

#### Metadata

| Field        | Value    |
|--------------|----------|
| Entrypoint   | 0x007D   |
| Data Size    | 16 bytes |
| Instructions | 2        |

```
      00 01 02 03 04 05 06 07  08 09 0A 0B 0C 0D 0E 0F
      -- -- -- -- -- -- -- --  -- -- -- -- -- -- -- --
0070:                                         5B 02 80               [..
0080: 4D 31 0B 01 4D 31 0B 01  6C 61 75 30 00           M1..M1..lau0.   
```

#### Opcodes

```
  0: 0x007D [0x5B] LOAD_EXT_SCHEDULER: Load scheduler "lau0" with entities [Young Aldo (ID: 17510733/0x010B314D), Young Aldo (ID: 17510733/0x010B314D)], work=2569*
  1: 0x008C [0x00] END_REQSTACK()
```

### Event 65535.11

#### Metadata

| Field        | Value    |
|--------------|----------|
| Entrypoint   | 0x008D   |
| Data Size    | 16 bytes |
| Instructions | 2        |

```
      00 01 02 03 04 05 06 07  08 09 0A 0B 0C 0D 0E 0F
      -- -- -- -- -- -- -- --  -- -- -- -- -- -- -- --
0080:                                         5B 03 80               [..
0090: 4D 31 0B 01 4D 31 0B 01  74 6C 63 30 00           M1..M1..tlc0.   
```

#### Opcodes

```
  0: 0x008D [0x5B] LOAD_EXT_SCHEDULER: Load scheduler "tlc0" with entities [Young Aldo (ID: 17510733/0x010B314D), Young Aldo (ID: 17510733/0x010B314D)], work=2570*
  1: 0x009C [0x00] END_REQSTACK()
```

### Event 65535.12

#### Metadata

| Field        | Value    |
|--------------|----------|
| Entrypoint   | 0x009D   |
| Data Size    | 16 bytes |
| Instructions | 2        |

```
      00 01 02 03 04 05 06 07  08 09 0A 0B 0C 0D 0E 0F
      -- -- -- -- -- -- -- --  -- -- -- -- -- -- -- --
0090:                                         5B 03 80               [..
00A0: 4D 31 0B 01 4D 31 0B 01  74 6C 63 31 00           M1..M1..tlc1.   
```

#### Opcodes

```
  0: 0x009D [0x5B] LOAD_EXT_SCHEDULER: Load scheduler "tlc1" with entities [Young Aldo (ID: 17510733/0x010B314D), Young Aldo (ID: 17510733/0x010B314D)], work=2570*
  1: 0x00AC [0x00] END_REQSTACK()
```

### Event 65535.13

#### Metadata

| Field        | Value    |
|--------------|----------|
| Entrypoint   | 0x00AD   |
| Data Size    | 16 bytes |
| Instructions | 2        |

```
      00 01 02 03 04 05 06 07  08 09 0A 0B 0C 0D 0E 0F
      -- -- -- -- -- -- -- --  -- -- -- -- -- -- -- --
00A0:                                         5B 03 80               [..
00B0: 4D 31 0B 01 4D 31 0B 01  74 6C 63 32 00           M1..M1..tlc2.   
```

#### Opcodes

```
  0: 0x00AD [0x5B] LOAD_EXT_SCHEDULER: Load scheduler "tlc2" with entities [Young Aldo (ID: 17510733/0x010B314D), Young Aldo (ID: 17510733/0x010B314D)], work=2570*
  1: 0x00BC [0x00] END_REQSTACK()
```

### Event 65535.14

#### Metadata

| Field        | Value    |
|--------------|----------|
| Entrypoint   | 0x00BD   |
| Data Size    | 16 bytes |
| Instructions | 2        |

```
      00 01 02 03 04 05 06 07  08 09 0A 0B 0C 0D 0E 0F
      -- -- -- -- -- -- -- --  -- -- -- -- -- -- -- --
00B0:                                         5B 03 80               [..
00C0: 4D 31 0B 01 4D 31 0B 01  74 6C 63 33 00           M1..M1..tlc3.   
```

#### Opcodes

```
  0: 0x00BD [0x5B] LOAD_EXT_SCHEDULER: Load scheduler "tlc3" with entities [Young Aldo (ID: 17510733/0x010B314D), Young Aldo (ID: 17510733/0x010B314D)], work=2570*
  1: 0x00CC [0x00] END_REQSTACK()
```

### Event 65535.15

#### Metadata

| Field        | Value    |
|--------------|----------|
| Entrypoint   | 0x00CD   |
| Data Size    | 16 bytes |
| Instructions | 2        |

```
      00 01 02 03 04 05 06 07  08 09 0A 0B 0C 0D 0E 0F
      -- -- -- -- -- -- -- --  -- -- -- -- -- -- -- --
00C0:                                         5B 03 80               [..
00D0: 4D 31 0B 01 4D 31 0B 01  75 64 61 30 00           M1..M1..uda0.   
```

#### Opcodes

```
  0: 0x00CD [0x5B] LOAD_EXT_SCHEDULER: Load scheduler "uda0" with entities [Young Aldo (ID: 17510733/0x010B314D), Young Aldo (ID: 17510733/0x010B314D)], work=2570*
  1: 0x00DC [0x00] END_REQSTACK()
```

### Event 65535.16

#### Metadata

| Field        | Value    |
|--------------|----------|
| Entrypoint   | 0x00DD   |
| Data Size    | 16 bytes |
| Instructions | 2        |

```
      00 01 02 03 04 05 06 07  08 09 0A 0B 0C 0D 0E 0F
      -- -- -- -- -- -- -- --  -- -- -- -- -- -- -- --
00D0:                                         5B 03 80               [..
00E0: 4D 31 0B 01 4D 31 0B 01  75 64 61 31 00           M1..M1..uda1.   
```

#### Opcodes

```
  0: 0x00DD [0x5B] LOAD_EXT_SCHEDULER: Load scheduler "uda1" with entities [Young Aldo (ID: 17510733/0x010B314D), Young Aldo (ID: 17510733/0x010B314D)], work=2570*
  1: 0x00EC [0x00] END_REQSTACK()
```

### Event 65535.17

#### Metadata

| Field        | Value    |
|--------------|----------|
| Entrypoint   | 0x00ED   |
| Data Size    | 16 bytes |
| Instructions | 2        |

```
      00 01 02 03 04 05 06 07  08 09 0A 0B 0C 0D 0E 0F
      -- -- -- -- -- -- -- --  -- -- -- -- -- -- -- --
00E0:                                         5B 03 80               [..
00F0: 4D 31 0B 01 4D 31 0B 01  75 64 62 30 00           M1..M1..udb0.   
```

#### Opcodes

```
  0: 0x00ED [0x5B] LOAD_EXT_SCHEDULER: Load scheduler "udb0" with entities [Young Aldo (ID: 17510733/0x010B314D), Young Aldo (ID: 17510733/0x010B314D)], work=2570*
  1: 0x00FC [0x00] END_REQSTACK()
```

### Event 65535.18

#### Metadata

| Field        | Value    |
|--------------|----------|
| Entrypoint   | 0x00FD   |
| Data Size    | 16 bytes |
| Instructions | 2        |

```
      00 01 02 03 04 05 06 07  08 09 0A 0B 0C 0D 0E 0F
      -- -- -- -- -- -- -- --  -- -- -- -- -- -- -- --
00F0:                                         5B 03 80               [..
0100: 4D 31 0B 01 4D 31 0B 01  75 64 62 31 00           M1..M1..udb1.   
```

#### Opcodes

```
  0: 0x00FD [0x5B] LOAD_EXT_SCHEDULER: Load scheduler "udb1" with entities [Young Aldo (ID: 17510733/0x010B314D), Young Aldo (ID: 17510733/0x010B314D)], work=2570*
  1: 0x010C [0x00] END_REQSTACK()
```

### Event 65535.19

#### Metadata

| Field        | Value    |
|--------------|----------|
| Entrypoint   | 0x010D   |
| Data Size    | 16 bytes |
| Instructions | 2        |

```
      00 01 02 03 04 05 06 07  08 09 0A 0B 0C 0D 0E 0F
      -- -- -- -- -- -- -- --  -- -- -- -- -- -- -- --
0100:                                         5B 04 80               [..
0110: 4D 31 0B 01 4D 31 0B 01  6D 65 69 30 00           M1..M1..mei0.   
```

#### Opcodes

```
  0: 0x010D [0x5B] LOAD_EXT_SCHEDULER: Load scheduler "mei0" with entities [Young Aldo (ID: 17510733/0x010B314D), Young Aldo (ID: 17510733/0x010B314D)], work=2571*
  1: 0x011C [0x00] END_REQSTACK()
```

### Event 65535.20

#### Metadata

| Field        | Value    |
|--------------|----------|
| Entrypoint   | 0x011D   |
| Data Size    | 16 bytes |
| Instructions | 2        |

```
      00 01 02 03 04 05 06 07  08 09 0A 0B 0C 0D 0E 0F
      -- -- -- -- -- -- -- --  -- -- -- -- -- -- -- --
0110:                                         5B 04 80               [..
0120: 4D 31 0B 01 4D 31 0B 01  6D 65 69 31 00           M1..M1..mei1.   
```

#### Opcodes

```
  0: 0x011D [0x5B] LOAD_EXT_SCHEDULER: Load scheduler "mei1" with entities [Young Aldo (ID: 17510733/0x010B314D), Young Aldo (ID: 17510733/0x010B314D)], work=2571*
  1: 0x012C [0x00] END_REQSTACK()
```

### Event 65535.21

#### Metadata

| Field        | Value    |
|--------------|----------|
| Entrypoint   | 0x012D   |
| Data Size    | 16 bytes |
| Instructions | 2        |

```
      00 01 02 03 04 05 06 07  08 09 0A 0B 0C 0D 0E 0F
      -- -- -- -- -- -- -- --  -- -- -- -- -- -- -- --
0120:                                         5B 04 80               [..
0130: 4D 31 0B 01 4D 31 0B 01  73 68 61 30 00           M1..M1..sha0.   
```

#### Opcodes

```
  0: 0x012D [0x5B] LOAD_EXT_SCHEDULER: Load scheduler "sha0" with entities [Young Aldo (ID: 17510733/0x010B314D), Young Aldo (ID: 17510733/0x010B314D)], work=2571*
  1: 0x013C [0x00] END_REQSTACK()
```

### Event 65535.22

#### Metadata

| Field        | Value    |
|--------------|----------|
| Entrypoint   | 0x013D   |
| Data Size    | 16 bytes |
| Instructions | 2        |

```
      00 01 02 03 04 05 06 07  08 09 0A 0B 0C 0D 0E 0F
      -- -- -- -- -- -- -- --  -- -- -- -- -- -- -- --
0130:                                         5B 04 80               [..
0140: 4D 31 0B 01 4D 31 0B 01  73 68 61 31 00           M1..M1..sha1.   
```

#### Opcodes

```
  0: 0x013D [0x5B] LOAD_EXT_SCHEDULER: Load scheduler "sha1" with entities [Young Aldo (ID: 17510733/0x010B314D), Young Aldo (ID: 17510733/0x010B314D)], work=2571*
  1: 0x014C [0x00] END_REQSTACK()
```

### Event 65535.23

#### Metadata

| Field        | Value    |
|--------------|----------|
| Entrypoint   | 0x014D   |
| Data Size    | 16 bytes |
| Instructions | 2        |

```
      00 01 02 03 04 05 06 07  08 09 0A 0B 0C 0D 0E 0F
      -- -- -- -- -- -- -- --  -- -- -- -- -- -- -- --
0140:                                         5B 04 80               [..
0150: 4D 31 0B 01 4D 31 0B 01  79 62 69 30 00           M1..M1..ybi0.   
```

#### Opcodes

```
  0: 0x014D [0x5B] LOAD_EXT_SCHEDULER: Load scheduler "ybi0" with entities [Young Aldo (ID: 17510733/0x010B314D), Young Aldo (ID: 17510733/0x010B314D)], work=2571*
  1: 0x015C [0x00] END_REQSTACK()
```

### Event 65535.24

#### Metadata

| Field        | Value    |
|--------------|----------|
| Entrypoint   | 0x015D   |
| Data Size    | 16 bytes |
| Instructions | 2        |

```
      00 01 02 03 04 05 06 07  08 09 0A 0B 0C 0D 0E 0F
      -- -- -- -- -- -- -- --  -- -- -- -- -- -- -- --
0150:                                         5B 04 80               [..
0160: 4D 31 0B 01 4D 31 0B 01  79 62 69 31 00           M1..M1..ybi1.   
```

#### Opcodes

```
  0: 0x015D [0x5B] LOAD_EXT_SCHEDULER: Load scheduler "ybi1" with entities [Young Aldo (ID: 17510733/0x010B314D), Young Aldo (ID: 17510733/0x010B314D)], work=2571*
  1: 0x016C [0x00] END_REQSTACK()
```

### Event 65535.25

#### Metadata

| Field        | Value    |
|--------------|----------|
| Entrypoint   | 0x016D   |
| Data Size    | 16 bytes |
| Instructions | 2        |

```
      00 01 02 03 04 05 06 07  08 09 0A 0B 0C 0D 0E 0F
      -- -- -- -- -- -- -- --  -- -- -- -- -- -- -- --
0160:                                         5B 05 80               [..
0170: 4D 31 0B 01 4D 31 0B 01  68 79 6F 30 00           M1..M1..hyo0.   
```

#### Opcodes

```
  0: 0x016D [0x5B] LOAD_EXT_SCHEDULER: Load scheduler "hyo0" with entities [Young Aldo (ID: 17510733/0x010B314D), Young Aldo (ID: 17510733/0x010B314D)], work=2574*
  1: 0x017C [0x00] END_REQSTACK()
```

### Event 65535.26

#### Metadata

| Field        | Value    |
|--------------|----------|
| Entrypoint   | 0x017D   |
| Data Size    | 16 bytes |
| Instructions | 2        |

```
      00 01 02 03 04 05 06 07  08 09 0A 0B 0C 0D 0E 0F
      -- -- -- -- -- -- -- --  -- -- -- -- -- -- -- --
0170:                                         5B 05 80               [..
0180: 4D 31 0B 01 4D 31 0B 01  68 79 6F 31 00           M1..M1..hyo1.   
```

#### Opcodes

```
  0: 0x017D [0x5B] LOAD_EXT_SCHEDULER: Load scheduler "hyo1" with entities [Young Aldo (ID: 17510733/0x010B314D), Young Aldo (ID: 17510733/0x010B314D)], work=2574*
  1: 0x018C [0x00] END_REQSTACK()
```

### Event 65535.27

#### Metadata

| Field        | Value    |
|--------------|----------|
| Entrypoint   | 0x018D   |
| Data Size    | 16 bytes |
| Instructions | 2        |

```
      00 01 02 03 04 05 06 07  08 09 0A 0B 0C 0D 0E 0F
      -- -- -- -- -- -- -- --  -- -- -- -- -- -- -- --
0180:                                         5B 05 80               [..
0190: 4D 31 0B 01 4D 31 0B 01  68 79 6F 32 00           M1..M1..hyo2.   
```

#### Opcodes

```
  0: 0x018D [0x5B] LOAD_EXT_SCHEDULER: Load scheduler "hyo2" with entities [Young Aldo (ID: 17510733/0x010B314D), Young Aldo (ID: 17510733/0x010B314D)], work=2574*
  1: 0x019C [0x00] END_REQSTACK()
```

### Event 65535.28

#### Metadata

| Field        | Value    |
|--------------|----------|
| Entrypoint   | 0x019D   |
| Data Size    | 16 bytes |
| Instructions | 2        |

```
      00 01 02 03 04 05 06 07  08 09 0A 0B 0C 0D 0E 0F
      -- -- -- -- -- -- -- --  -- -- -- -- -- -- -- --
0190:                                         5B 05 80               [..
01A0: 4D 31 0B 01 4D 31 0B 01  68 79 6C 32 00           M1..M1..hyl2.   
```

#### Opcodes

```
  0: 0x019D [0x5B] LOAD_EXT_SCHEDULER: Load scheduler "hyl2" with entities [Young Aldo (ID: 17510733/0x010B314D), Young Aldo (ID: 17510733/0x010B314D)], work=2574*
  1: 0x01AC [0x00] END_REQSTACK()
```

### Event 65535.29

#### Metadata

| Field        | Value    |
|--------------|----------|
| Entrypoint   | 0x01AD   |
| Data Size    | 18 bytes |
| Instructions | 2        |

```
      00 01 02 03 04 05 06 07  08 09 0A 0B 0C 0D 0E 0F
      -- -- -- -- -- -- -- --  -- -- -- -- -- -- -- --
01A0:                                         C5 06 80               ...
01B0: 4D 31 0B 01 4D 31 0B 01  73 30 30 30 07 80 00     M1..M1..s000... 
```

#### Opcodes

```
  0: 0x01AD [0xC5] LOAD_SCHEDULED_TASK_ALT3: Load scheduler 0x80073030 for entities [Young Aldo (ID: 17510733/0x010B314D), Young Aldo (ID: 17510733/0x010B314D)], work=92*, param=12403
  1: 0x01BE [0x00] END_REQSTACK()
```

### Event 65535.30

#### Metadata

| Field        | Value    |
|--------------|----------|
| Entrypoint   | 0x01BF   |
| Data Size    | 18 bytes |
| Instructions | 2        |

```
      00 01 02 03 04 05 06 07  08 09 0A 0B 0C 0D 0E 0F
      -- -- -- -- -- -- -- --  -- -- -- -- -- -- -- --
01B0:                                               C5                 .
01C0: 06 80 4D 31 0B 01 4D 31  0B 01 73 30 30 31 07 80  ..M1..M1..s001..
01D0: 00                                                .               
```

#### Opcodes

```
  0: 0x01BF [0xC5] LOAD_SCHEDULED_TASK_ALT3: Load scheduler 0x80073130 for entities [Young Aldo (ID: 17510733/0x010B314D), Young Aldo (ID: 17510733/0x010B314D)], work=92*, param=12403
  1: 0x01D0 [0x00] END_REQSTACK()
```

### Event 65535.31

#### Metadata

| Field        | Value    |
|--------------|----------|
| Entrypoint   | 0x01D1   |
| Data Size    | 18 bytes |
| Instructions | 2        |

```
      00 01 02 03 04 05 06 07  08 09 0A 0B 0C 0D 0E 0F
      -- -- -- -- -- -- -- --  -- -- -- -- -- -- -- --
01D0:    C5 06 80 4D 31 0B 01  4D 31 0B 01 73 30 30 32   ...M1..M1..s002
01E0: 07 80 00                                          ...             
```

#### Opcodes

```
  0: 0x01D1 [0xC5] LOAD_SCHEDULED_TASK_ALT3: Load scheduler 0x80073230 for entities [Young Aldo (ID: 17510733/0x010B314D), Young Aldo (ID: 17510733/0x010B314D)], work=92*, param=12403
  1: 0x01E2 [0x00] END_REQSTACK()
```

### Event 65535.32

#### Metadata

| Field        | Value    |
|--------------|----------|
| Entrypoint   | 0x01E3   |
| Data Size    | 12 bytes |
| Instructions | 4        |

```
      00 01 02 03 04 05 06 07  08 09 0A 0B 0C 0D 0E 0F
      -- -- -- -- -- -- -- --  -- -- -- -- -- -- -- --
01E0:          1F 00 08 80 09  80 0A 80 1F 01 6F 00        ..........o. 
```

#### Opcodes

```
  0: 0x01E3 [0x1F] MOVE_ENTITY: EventEntity moves to X=-9.475*, Z=38.391*, Y=2.898*
  1: 0x01EB [0x1F] MOVE_ENTITY: Update entity position (mode=1)
  2: 0x01ED [0x6F] WAIT_FRAME_DELAY: Yield until WaitTime reaches zero
  3: 0x01EE [0x00] END_REQSTACK()
```

### Event 65535.33

#### Metadata

| Field        | Value    |
|--------------|----------|
| Entrypoint   | 0x01EF   |
| Data Size    | 12 bytes |
| Instructions | 4        |

```
      00 01 02 03 04 05 06 07  08 09 0A 0B 0C 0D 0E 0F
      -- -- -- -- -- -- -- --  -- -- -- -- -- -- -- --
01E0:                                               1F                 .
01F0: 00 0B 80 0C 80 0A 80 1F  01 6F 00                 .........o.     
```

#### Opcodes

```
  0: 0x01EF [0x1F] MOVE_ENTITY: EventEntity moves to X=-8.177*, Z=36.514*, Y=2.898*
  1: 0x01F7 [0x1F] MOVE_ENTITY: Update entity position (mode=1)
  2: 0x01F9 [0x6F] WAIT_FRAME_DELAY: Yield until WaitTime reaches zero
  3: 0x01FA [0x00] END_REQSTACK()
```

### Event 65535.34

#### Metadata

| Field        | Value    |
|--------------|----------|
| Entrypoint   | 0x01FB   |
| Data Size    | 16 bytes |
| Instructions | 2        |

```
      00 01 02 03 04 05 06 07  08 09 0A 0B 0C 0D 0E 0F
      -- -- -- -- -- -- -- --  -- -- -- -- -- -- -- --
01F0:                                   5B 0D 80 4D 31             [..M1
0200: 0B 01 4D 31 0B 01 65 64  30 30 00                 ..M1..ed00.     
```

#### Opcodes

```
  0: 0x01FB [0x5B] LOAD_EXT_SCHEDULER: Load scheduler "ed00" with entities [Young Aldo (ID: 17510733/0x010B314D), Young Aldo (ID: 17510733/0x010B314D)], work=2576*
  1: 0x020A [0x00] END_REQSTACK()
```

### Event 65535.35

#### Metadata

| Field        | Value    |
|--------------|----------|
| Entrypoint   | 0x020B   |
| Data Size    | 16 bytes |
| Instructions | 2        |

```
      00 01 02 03 04 05 06 07  08 09 0A 0B 0C 0D 0E 0F
      -- -- -- -- -- -- -- --  -- -- -- -- -- -- -- --
0200:                                   5B 0D 80 4D 31             [..M1
0210: 0B 01 4D 31 0B 01 65 64  30 31 00                 ..M1..ed01.     
```

#### Opcodes

```
  0: 0x020B [0x5B] LOAD_EXT_SCHEDULER: Load scheduler "ed01" with entities [Young Aldo (ID: 17510733/0x010B314D), Young Aldo (ID: 17510733/0x010B314D)], work=2576*
  1: 0x021A [0x00] END_REQSTACK()
```

### Event 65535.36

#### Metadata

| Field        | Value    |
|--------------|----------|
| Entrypoint   | 0x021B   |
| Data Size    | 16 bytes |
| Instructions | 2        |

```
      00 01 02 03 04 05 06 07  08 09 0A 0B 0C 0D 0E 0F
      -- -- -- -- -- -- -- --  -- -- -- -- -- -- -- --
0210:                                   5B 0D 80 4D 31             [..M1
0220: 0B 01 4D 31 0B 01 65 64  30 32 00                 ..M1..ed02.     
```

#### Opcodes

```
  0: 0x021B [0x5B] LOAD_EXT_SCHEDULER: Load scheduler "ed02" with entities [Young Aldo (ID: 17510733/0x010B314D), Young Aldo (ID: 17510733/0x010B314D)], work=2576*
  1: 0x022A [0x00] END_REQSTACK()
```

### Event 65535.37

#### Metadata

| Field        | Value    |
|--------------|----------|
| Entrypoint   | 0x022B   |
| Data Size    | 16 bytes |
| Instructions | 2        |

```
      00 01 02 03 04 05 06 07  08 09 0A 0B 0C 0D 0E 0F
      -- -- -- -- -- -- -- --  -- -- -- -- -- -- -- --
0220:                                   5B 0D 80 4D 31             [..M1
0230: 0B 01 4D 31 0B 01 65 64  30 33 00                 ..M1..ed03.     
```

#### Opcodes

```
  0: 0x022B [0x5B] LOAD_EXT_SCHEDULER: Load scheduler "ed03" with entities [Young Aldo (ID: 17510733/0x010B314D), Young Aldo (ID: 17510733/0x010B314D)], work=2576*
  1: 0x023A [0x00] END_REQSTACK()
```

### Event 65535.38

#### Metadata

| Field        | Value    |
|--------------|----------|
| Entrypoint   | 0x023B   |
| Data Size    | 16 bytes |
| Instructions | 2        |

```
      00 01 02 03 04 05 06 07  08 09 0A 0B 0C 0D 0E 0F
      -- -- -- -- -- -- -- --  -- -- -- -- -- -- -- --
0230:                                   5B 0D 80 4D 31             [..M1
0240: 0B 01 4D 31 0B 01 65 64  31 30 00                 ..M1..ed10.     
```

#### Opcodes

```
  0: 0x023B [0x5B] LOAD_EXT_SCHEDULER: Load scheduler "ed10" with entities [Young Aldo (ID: 17510733/0x010B314D), Young Aldo (ID: 17510733/0x010B314D)], work=2576*
  1: 0x024A [0x00] END_REQSTACK()
```

### Event 65535.39

#### Metadata

| Field        | Value    |
|--------------|----------|
| Entrypoint   | 0x024B   |
| Data Size    | 16 bytes |
| Instructions | 2        |

```
      00 01 02 03 04 05 06 07  08 09 0A 0B 0C 0D 0E 0F
      -- -- -- -- -- -- -- --  -- -- -- -- -- -- -- --
0240:                                   5B 0D 80 4D 31             [..M1
0250: 0B 01 4D 31 0B 01 65 64  31 31 00                 ..M1..ed11.     
```

#### Opcodes

```
  0: 0x024B [0x5B] LOAD_EXT_SCHEDULER: Load scheduler "ed11" with entities [Young Aldo (ID: 17510733/0x010B314D), Young Aldo (ID: 17510733/0x010B314D)], work=2576*
  1: 0x025A [0x00] END_REQSTACK()
```

### Event 65535.40

#### Metadata

| Field        | Value    |
|--------------|----------|
| Entrypoint   | 0x025B   |
| Data Size    | 16 bytes |
| Instructions | 2        |

```
      00 01 02 03 04 05 06 07  08 09 0A 0B 0C 0D 0E 0F
      -- -- -- -- -- -- -- --  -- -- -- -- -- -- -- --
0250:                                   5B 0E 80 4D 31             [..M1
0260: 0B 01 4D 31 0B 01 68 6E  64 30 00                 ..M1..hnd0.     
```

#### Opcodes

```
  0: 0x025B [0x5B] LOAD_EXT_SCHEDULER: Load scheduler "hnd0" with entities [Young Aldo (ID: 17510733/0x010B314D), Young Aldo (ID: 17510733/0x010B314D)], work=2572*
  1: 0x026A [0x00] END_REQSTACK()
```

### Event 65535.41

#### Metadata

| Field        | Value    |
|--------------|----------|
| Entrypoint   | 0x026B   |
| Data Size    | 11 bytes |
| Instructions | 2        |

```
      00 01 02 03 04 05 06 07  08 09 0A 0B 0C 0D 0E 0F
      -- -- -- -- -- -- -- --  -- -- -- -- -- -- -- --
0260:                                   79 02 4D 31 0B             y.M1.
0270: 01 0F 80 10 80 00                                 ......          
```

#### Opcodes

```
  0: 0x026B [0x79] Young Aldo (ID: 17510733/0x010B314D) looks at Unknown NPC (ID: 2148565007/0x8010800F) (Direct axis set)
  1: 0x0275 [0x00] END_REQSTACK()
```

### Event 65535.42

#### Metadata

| Field        | Value    |
|--------------|----------|
| Entrypoint   | 0x0276   |
| Data Size    | 10 bytes |
| Instructions | 2        |

```
      00 01 02 03 04 05 06 07  08 09 0A 0B 0C 0D 0E 0F
      -- -- -- -- -- -- -- --  -- -- -- -- -- -- -- --
0270:                   6C 4D  31 0B 01 07 80 11 80 00        lM1.......
```

#### Opcodes

```
  0: 0x0276 [0x6C] FADE_ENTITY_COLOR(entity_id=Young Aldo (ID: 17510733/0x010B314D), end_alpha=0*, fade_time=360*)
  1: 0x027F [0x00] END_REQSTACK()
```

### Event 65535.43

#### Metadata

| Field        | Value    |
|--------------|----------|
| Entrypoint   | 0x0280   |
| Data Size    | 40 bytes |
| Instructions | 9        |

```
      00 01 02 03 04 05 06 07  08 09 0A 0B 0C 0D 0E 0F
      -- -- -- -- -- -- -- --  -- -- -- -- -- -- -- --
0280: 3A F8 FF FF 7F 01 00 03  00 00 07 80 02 00 00 12  :...............
0290: 80 01 A7 02 07 00 00 13  80 08 01 00 13 80 39 01  ..............9.
02A0: 00 1C 01 80 01 8C 02 00                           ........        
```

#### Opcodes

```
  0: 0x0280 [0x3A] CONVERT_YAW_TO_BYTE(entity=EventEntity, result_destination=ExtData[1]->WorkLocal[1])
  1: 0x0287 [0x03] ExtData[1]->WorkLocal[0] = 0*
  2: 0x028C [0x02] IF !(ExtData[1]->WorkLocal[0] == 2000*) GOTO 0x02A7
  3: 0x0294 [0x07] ExtData[1]->WorkLocal[0] += 20*
  4: 0x0299 [0x08] ExtData[1]->WorkLocal[1] -= 20*
  5: 0x029E [0x39] SET_ENTITY_DIRECTION(direction=ExtData[1]->WorkLocal[1])
  6: 0x02A1 [0x1C] WAIT(1* ticks)
  7: 0x02A4 [0x01] GOTO 0x028C
  8: 0x02A7 [0x00] END_REQSTACK()
```

### Event 65535.44

#### Metadata

| Field        | Value   |
|--------------|---------|
| Entrypoint   | 0x02A8  |
| Data Size    | 4 bytes |
| Instructions | 2       |

```
      00 01 02 03 04 05 06 07  08 09 0A 0B 0C 0D 0E 0F
      -- -- -- -- -- -- -- --  -- -- -- -- -- -- -- --
02A0:                          C0 01 80 00                      ....    
```

#### Opcodes

```
  0: 0x02A8 [0xC0] EventEntity->Render.Flags3 |= 0x1000 // Set bit 12 (from 1*)
  1: 0x02AB [0x00] END_REQSTACK()
```
