# 17510773 - mob24

## Common Data

| Field            | Value                     |
|------------------|---------------------------|
| Zone             | Stellar Fulcrum (ID: 179) |
| Block Size       | 84 bytes                  |
| Total Events     | 3                         |
| References Count | 6                         |

## List of Events

| Event ID                 | Entrypoint   |   Size |   Instructions |
|--------------------------|--------------|--------|----------------|
| [65535](#event-65535)    | 0x0000       |      1 |              1 |
| [14](#event-14)          | 0x0001       |      1 |              1 |
| [65535.1](#event-655351) | 0x0002       |     30 |              6 |

## DAT References (imed_data)

|   Index | Hex Value   |   Dec Value |
|---------|-------------|-------------|
|       0 | 0x000D      |          13 |
|       1 | 0xFFFB334C  |  4294652748 |
|       2 | 0x58250     |      361040 |
|       3 | 0x1F87      |        8071 |
|       4 | 0x0190      |         400 |
|       5 | 0x0258      |         600 |

## Events

### Event 65535

#### Metadata

| Field        | Value   |
|--------------|---------|
| Entrypoint   | 0x0000  |
| Data Size    | 1 bytes |
| Instructions | 1       |

```
      00 01 02 03 04 05 06 07  08 09 0A 0B 0C 0D 0E 0F
      -- -- -- -- -- -- -- --  -- -- -- -- -- -- -- --
0000: 00                                                .               
```

#### Opcodes

```
  0: 0x0000 [0x00] END_REQSTACK()
```

### Event 14

#### Metadata

| Field        | Value   |
|--------------|---------|
| Entrypoint   | 0x0001  |
| Data Size    | 1 bytes |
| Instructions | 1       |

```
      00 01 02 03 04 05 06 07  08 09 0A 0B 0C 0D 0E 0F
      -- -- -- -- -- -- -- --  -- -- -- -- -- -- -- --
0000:    00                                              .              
```

#### Opcodes

```
  0: 0x0001 [0x00] END_REQSTACK()
```

### Event 65535.1

#### Metadata

| Field        | Value    |
|--------------|----------|
| Entrypoint   | 0x0002   |
| Data Size    | 30 bytes |
| Instructions | 6        |

```
      00 01 02 03 04 05 06 07  08 09 0A 0B 0C 0D 0E 0F
      -- -- -- -- -- -- -- --  -- -- -- -- -- -- -- --
0000:       59 04 75 31 0B 01  00 80 1F 00 01 80 02 80    Y.u1..........
0010: 03 80 1F 01 6F 79 02 75  31 0B 01 04 80 05 80 00  ....oy.u1.......
```

#### Opcodes

```
  0: 0x0002 [0x59] UPDATE_ENTITY_DATA: Set mob24 (ID: 17510773/0x010B3175) main speed = 13* * 0.1
  1: 0x000A [0x1F] MOVE_ENTITY: EventEntity moves to X=-314.548*, Z=361.040*, Y=8.071*
  2: 0x0012 [0x1F] MOVE_ENTITY: Update entity position (mode=1)
  3: 0x0014 [0x6F] WAIT_FRAME_DELAY: Yield until WaitTime reaches zero
  4: 0x0015 [0x79] mob24 (ID: 17510773/0x010B3175) looks at Unknown NPC (ID: 2147844100/0x80058004) (Direct axis set)
  5: 0x001F [0x00] END_REQSTACK()
```
