# 17510738 - NPC01

## Common Data

| Field            | Value                     |
|------------------|---------------------------|
| Zone             | Stellar Fulcrum (ID: 179) |
| Block Size       | 184 bytes                 |
| Total Events     | 8                         |
| References Count | 10                        |

## List of Events

| Event ID                 | Entrypoint   |   Size |   Instructions |
|--------------------------|--------------|--------|----------------|
| [65535](#event-65535)    | 0x0000       |      1 |              1 |
| [13](#event-13)          | 0x0001       |      7 |              2 |
| [65535.1](#event-655351) | 0x0008       |     10 |              4 |
| [65535.2](#event-655352) | 0x0012       |     16 |              2 |
| [65535.3](#event-655353) | 0x0022       |     10 |              4 |
| [65535.4](#event-655354) | 0x002C       |     10 |              4 |
| [65535.5](#event-655355) | 0x0036       |     16 |              2 |
| [65535.6](#event-655356) | 0x0046       |     25 |              6 |

## DAT References (imed_data)

|   Index | Hex Value   |   Dec Value |
|---------|-------------|-------------|
|       0 | 0x0040      |          64 |
|       1 | 0x0001      |           1 |
|       2 | 0x0A1E      |        2590 |
|       3 | 0x0047      |          71 |
|       4 | 0x00F9      |         249 |
|       5 | 0x0175      |         373 |
|       6 | 0x000D      |          13 |
|       7 | 0xFFFF8436  |  4294935606 |
|       8 | 0x21604     |      136708 |
|       9 | 0xFFFFC181  |  4294951297 |

## Events

### Event 65535

#### Metadata

| Field        | Value   |
|--------------|---------|
| Entrypoint   | 0x0000  |
| Data Size    | 1 bytes |
| Instructions | 1       |

```
      00 01 02 03 04 05 06 07  08 09 0A 0B 0C 0D 0E 0F
      -- -- -- -- -- -- -- --  -- -- -- -- -- -- -- --
0000: 00                                                .               
```

#### Opcodes

```
  0: 0x0000 [0x00] END_REQSTACK()
```

### Event 13

#### Metadata

| Field        | Value   |
|--------------|---------|
| Entrypoint   | 0x0001  |
| Data Size    | 7 bytes |
| Instructions | 2       |

```
      00 01 02 03 04 05 06 07  08 09 0A 0B 0C 0D 0E 0F
      -- -- -- -- -- -- -- --  -- -- -- -- -- -- -- --
0000:    92 01 F8 FF FF 7F 00                            .......        
```

#### Opcodes

```
  0: 0x0001 [0x92] EventEntity->Render.Flags3 ^= 0x01
  1: 0x0007 [0x00] END_REQSTACK()
```

### Event 65535.1

#### Metadata

| Field        | Value    |
|--------------|----------|
| Entrypoint   | 0x0008   |
| Data Size    | 10 bytes |
| Instructions | 4        |

```
      00 01 02 03 04 05 06 07  08 09 0A 0B 0C 0D 0E 0F
      -- -- -- -- -- -- -- --  -- -- -- -- -- -- -- --
0000:                          22 00 B6 00 00 80 C0 01          ".......
0010: 80 00                                             ..              
```

#### Opcodes

```
  0: 0x0008 [0x22] ENTITY_HIDE_FLAG(enabled=0x00)
  1: 0x000A [0xB6] ENTITY_APPEARANCE_HANDLER(case=Hair style, value=64*)
  2: 0x000E [0xC0] EventEntity->Render.Flags3 |= 0x1000 // Set bit 12 (from 1*)
  3: 0x0011 [0x00] END_REQSTACK()
```

### Event 65535.2

#### Metadata

| Field        | Value    |
|--------------|----------|
| Entrypoint   | 0x0012   |
| Data Size    | 16 bytes |
| Instructions | 2        |

```
      00 01 02 03 04 05 06 07  08 09 0A 0B 0C 0D 0E 0F
      -- -- -- -- -- -- -- --  -- -- -- -- -- -- -- --
0010:       5B 02 80 F8 FF FF  7F F8 FF FF 7F 6F 70 30    [..........op0
0020: 30 00                                             0.              
```

#### Opcodes

```
  0: 0x0012 [0x5B] LOAD_EXT_SCHEDULER: Load scheduler "op00" with entities [EventEntity, EventEntity], work=2590*
  1: 0x0021 [0x00] END_REQSTACK()
```

### Event 65535.3

#### Metadata

| Field        | Value    |
|--------------|----------|
| Entrypoint   | 0x0022   |
| Data Size    | 10 bytes |
| Instructions | 4        |

```
      00 01 02 03 04 05 06 07  08 09 0A 0B 0C 0D 0E 0F
      -- -- -- -- -- -- -- --  -- -- -- -- -- -- -- --
0020:       22 00 B6 00 03 80  C0 01 80 00                ".........    
```

#### Opcodes

```
  0: 0x0022 [0x22] ENTITY_HIDE_FLAG(enabled=0x00)
  1: 0x0024 [0xB6] ENTITY_APPEARANCE_HANDLER(case=Hair style, value=71*)
  2: 0x0028 [0xC0] EventEntity->Render.Flags3 |= 0x1000 // Set bit 12 (from 1*)
  3: 0x002B [0x00] END_REQSTACK()
```

### Event 65535.4

#### Metadata

| Field        | Value    |
|--------------|----------|
| Entrypoint   | 0x002C   |
| Data Size    | 10 bytes |
| Instructions | 4        |

```
      00 01 02 03 04 05 06 07  08 09 0A 0B 0C 0D 0E 0F
      -- -- -- -- -- -- -- --  -- -- -- -- -- -- -- --
0020:                                      22 00 B6 00              "...
0030: 04 80 C0 01 80 00                                 ......          
```

#### Opcodes

```
  0: 0x002C [0x22] ENTITY_HIDE_FLAG(enabled=0x00)
  1: 0x002E [0xB6] ENTITY_APPEARANCE_HANDLER(case=Hair style, value=249*)
  2: 0x0032 [0xC0] EventEntity->Render.Flags3 |= 0x1000 // Set bit 12 (from 1*)
  3: 0x0035 [0x00] END_REQSTACK()
```

### Event 65535.5

#### Metadata

| Field        | Value    |
|--------------|----------|
| Entrypoint   | 0x0036   |
| Data Size    | 16 bytes |
| Instructions | 2        |

```
      00 01 02 03 04 05 06 07  08 09 0A 0B 0C 0D 0E 0F
      -- -- -- -- -- -- -- --  -- -- -- -- -- -- -- --
0030:                   5B 05  80 F8 FF FF 7F F8 FF FF        [.........
0040: 7F 74 6C 6B 30 00                                 .tlk0.          
```

#### Opcodes

```
  0: 0x0036 [0x5B] LOAD_EXT_SCHEDULER: Load scheduler "tlk0" with entities [EventEntity, EventEntity], work=373*
  1: 0x0045 [0x00] END_REQSTACK()
```

### Event 65535.6

#### Metadata

| Field        | Value    |
|--------------|----------|
| Entrypoint   | 0x0046   |
| Data Size    | 25 bytes |
| Instructions | 6        |

```
      00 01 02 03 04 05 06 07  08 09 0A 0B 0C 0D 0E 0F
      -- -- -- -- -- -- -- --  -- -- -- -- -- -- -- --
0040:                   79 00  F8 FF FF 7F 4E 31 0B 01        y.....N1..
0050: 32 06 80 1F 00 07 80 08  80 09 80 1F 01 6F 00     2............o. 
```

#### Opcodes

```
  0: 0x0046 [0x79] EventEntity looks at Seed Crystal (ID: 17510734/0x010B314E) (Basic look)
  1: 0x0050 [0x32] ExtData[1]->MainSpeed = 13* * 0.1
  2: 0x0053 [0x1F] MOVE_ENTITY: EventEntity moves to X=-31.690*, Z=136.708*, Y=-15.999*
  3: 0x005B [0x1F] MOVE_ENTITY: Update entity position (mode=1)
  4: 0x005D [0x6F] WAIT_FRAME_DELAY: Yield until WaitTime reaches zero
  5: 0x005E [0x00] END_REQSTACK()
```
