# 17510736

## Common Data

| Field            | Value                     |
|------------------|---------------------------|
| Zone             | Stellar Fulcrum (ID: 179) |
| Block Size       | 304 bytes                 |
| Total Events     | 14                        |
| References Count | 3                         |

## List of Events

| Event ID                   | Entrypoint   |   Size |   Instructions |
|----------------------------|--------------|--------|----------------|
| [65535](#event-65535)      | 0x0000       |      1 |              1 |
| [12](#event-12)            | 0x0001       |      7 |              2 |
| [13](#event-13)            | 0x0008       |      7 |              2 |
| [65535.1](#event-655351)   | 0x000F       |     23 |              5 |
| [65535.2](#event-655352)   | 0x0026       |     18 |              2 |
| [65535.3](#event-655353)   | 0x0038       |     18 |              2 |
| [65535.4](#event-655354)   | 0x004A       |     18 |              2 |
| [65535.5](#event-655355)   | 0x005C       |     18 |              2 |
| [65535.6](#event-655356)   | 0x006E       |     18 |              2 |
| [65535.7](#event-655357)   | 0x0080       |     18 |              2 |
| [65535.8](#event-655358)   | 0x0092       |     18 |              2 |
| [65535.9](#event-655359)   | 0x00A4       |     18 |              2 |
| [65535.10](#event-6553510) | 0x00B6       |     18 |              2 |
| [65535.11](#event-6553511) | 0x00C8       |     18 |              2 |

## DAT References (imed_data)

|   Index | Hex Value   |   Dec Value |
|---------|-------------|-------------|
|       0 | 0x0001      |           1 |
|       1 | 0x005B      |          91 |
|       2 | 0x0000      |           0 |

## Events

### Event 65535

#### Metadata

| Field        | Value   |
|--------------|---------|
| Entrypoint   | 0x0000  |
| Data Size    | 1 bytes |
| Instructions | 1       |

```
      00 01 02 03 04 05 06 07  08 09 0A 0B 0C 0D 0E 0F
      -- -- -- -- -- -- -- --  -- -- -- -- -- -- -- --
0000: 00                                                .               
```

#### Opcodes

```
  0: 0x0000 [0x00] END_REQSTACK()
```

### Event 12

#### Metadata

| Field        | Value   |
|--------------|---------|
| Entrypoint   | 0x0001  |
| Data Size    | 7 bytes |
| Instructions | 2       |

```
      00 01 02 03 04 05 06 07  08 09 0A 0B 0C 0D 0E 0F
      -- -- -- -- -- -- -- --  -- -- -- -- -- -- -- --
0000:    92 01 F8 FF FF 7F 00                            .......        
```

#### Opcodes

```
  0: 0x0001 [0x92] EventEntity->Render.Flags3 ^= 0x01
  1: 0x0007 [0x00] END_REQSTACK()
```

### Event 13

#### Metadata

| Field        | Value   |
|--------------|---------|
| Entrypoint   | 0x0008  |
| Data Size    | 7 bytes |
| Instructions | 2       |

```
      00 01 02 03 04 05 06 07  08 09 0A 0B 0C 0D 0E 0F
      -- -- -- -- -- -- -- --  -- -- -- -- -- -- -- --
0000:                          92 01 F8 FF FF 7F 00             ....... 
```

#### Opcodes

```
  0: 0x0008 [0x92] EventEntity->Render.Flags3 ^= 0x01
  1: 0x000E [0x00] END_REQSTACK()
```

### Event 65535.1

#### Metadata

| Field        | Value    |
|--------------|----------|
| Entrypoint   | 0x000F   |
| Data Size    | 23 bytes |
| Instructions | 5        |

```
      00 01 02 03 04 05 06 07  08 09 0A 0B 0C 0D 0E 0F
      -- -- -- -- -- -- -- --  -- -- -- -- -- -- -- --
0000:                                               4E                 N
0010: 00 50 31 0B 01 94 01 50  31 0B 01 59 05 50 31 0B  .P1....P1..Y.P1.
0020: 01 01 C0 00 80 00                                 ......          
```

#### Opcodes

```
  0: 0x000F [0x4E] SET_ENTITY_HIDE_FLAG: Show Unnamed NPC (ID: 17510736/0x010B3150)
  1: 0x0015 [0x94] Unnamed NPC (ID: 17510736/0x010B3150)->Render.Flags3 ^= 0x01
  2: 0x001B [0x59] UPDATE_ENTITY_DATA: Unnamed NPC (ID: 17510736/0x010B3150)->Render.Flags0 |= 0x200000
  3: 0x0022 [0xC0] EventEntity->Render.Flags3 |= 0x1000 // Set bit 12 (from 1*)
  4: 0x0025 [0x00] END_REQSTACK()
```

### Event 65535.2

#### Metadata

| Field        | Value    |
|--------------|----------|
| Entrypoint   | 0x0026   |
| Data Size    | 18 bytes |
| Instructions | 2        |

```
      00 01 02 03 04 05 06 07  08 09 0A 0B 0C 0D 0E 0F
      -- -- -- -- -- -- -- --  -- -- -- -- -- -- -- --
0020:                   C5 01  80 50 31 0B 01 50 31 0B        ...P1..P1.
0030: 01 73 30 30 30 02 80 00                           .s000...        
```

#### Opcodes

```
  0: 0x0026 [0xC5] LOAD_SCHEDULED_TASK_ALT3: Load scheduler 0x80023030 for entities [Unnamed NPC (ID: 17510736/0x010B3150), Unnamed NPC (ID: 17510736/0x010B3150)], work=91*, param=12403
  1: 0x0037 [0x00] END_REQSTACK()
```

### Event 65535.3

#### Metadata

| Field        | Value    |
|--------------|----------|
| Entrypoint   | 0x0038   |
| Data Size    | 18 bytes |
| Instructions | 2        |

```
      00 01 02 03 04 05 06 07  08 09 0A 0B 0C 0D 0E 0F
      -- -- -- -- -- -- -- --  -- -- -- -- -- -- -- --
0030:                          C5 01 80 50 31 0B 01 50          ...P1..P
0040: 31 0B 01 73 30 30 31 02  80 00                    1..s001...      
```

#### Opcodes

```
  0: 0x0038 [0xC5] LOAD_SCHEDULED_TASK_ALT3: Load scheduler 0x80023130 for entities [Unnamed NPC (ID: 17510736/0x010B3150), Unnamed NPC (ID: 17510736/0x010B3150)], work=91*, param=12403
  1: 0x0049 [0x00] END_REQSTACK()
```

### Event 65535.4

#### Metadata

| Field        | Value    |
|--------------|----------|
| Entrypoint   | 0x004A   |
| Data Size    | 18 bytes |
| Instructions | 2        |

```
      00 01 02 03 04 05 06 07  08 09 0A 0B 0C 0D 0E 0F
      -- -- -- -- -- -- -- --  -- -- -- -- -- -- -- --
0040:                                C5 01 80 50 31 0B            ...P1.
0050: 01 50 31 0B 01 73 30 30  32 02 80 00              .P1..s002...    
```

#### Opcodes

```
  0: 0x004A [0xC5] LOAD_SCHEDULED_TASK_ALT3: Load scheduler 0x80023230 for entities [Unnamed NPC (ID: 17510736/0x010B3150), Unnamed NPC (ID: 17510736/0x010B3150)], work=91*, param=12403
  1: 0x005B [0x00] END_REQSTACK()
```

### Event 65535.5

#### Metadata

| Field        | Value    |
|--------------|----------|
| Entrypoint   | 0x005C   |
| Data Size    | 18 bytes |
| Instructions | 2        |

```
      00 01 02 03 04 05 06 07  08 09 0A 0B 0C 0D 0E 0F
      -- -- -- -- -- -- -- --  -- -- -- -- -- -- -- --
0050:                                      C5 01 80 50              ...P
0060: 31 0B 01 50 31 0B 01 73  30 30 33 02 80 00        1..P1..s003...  
```

#### Opcodes

```
  0: 0x005C [0xC5] LOAD_SCHEDULED_TASK_ALT3: Load scheduler 0x80023330 for entities [Unnamed NPC (ID: 17510736/0x010B3150), Unnamed NPC (ID: 17510736/0x010B3150)], work=91*, param=12403
  1: 0x006D [0x00] END_REQSTACK()
```

### Event 65535.6

#### Metadata

| Field        | Value    |
|--------------|----------|
| Entrypoint   | 0x006E   |
| Data Size    | 18 bytes |
| Instructions | 2        |

```
      00 01 02 03 04 05 06 07  08 09 0A 0B 0C 0D 0E 0F
      -- -- -- -- -- -- -- --  -- -- -- -- -- -- -- --
0060:                                            C5 01                ..
0070: 80 50 31 0B 01 50 31 0B  01 73 74 70 30 02 80 00  .P1..P1..stp0...
```

#### Opcodes

```
  0: 0x006E [0xC5] LOAD_SCHEDULED_TASK_ALT3: Load scheduler 0x80023070 for entities [Unnamed NPC (ID: 17510736/0x010B3150), Unnamed NPC (ID: 17510736/0x010B3150)], work=91*, param=29811
  1: 0x007F [0x00] END_REQSTACK()
```

### Event 65535.7

#### Metadata

| Field        | Value    |
|--------------|----------|
| Entrypoint   | 0x0080   |
| Data Size    | 18 bytes |
| Instructions | 2        |

```
      00 01 02 03 04 05 06 07  08 09 0A 0B 0C 0D 0E 0F
      -- -- -- -- -- -- -- --  -- -- -- -- -- -- -- --
0080: C5 01 80 50 31 0B 01 50  31 0B 01 73 74 70 32 02  ...P1..P1..stp2.
0090: 80 00                                             ..              
```

#### Opcodes

```
  0: 0x0080 [0xC5] LOAD_SCHEDULED_TASK_ALT3: Load scheduler 0x80023270 for entities [Unnamed NPC (ID: 17510736/0x010B3150), Unnamed NPC (ID: 17510736/0x010B3150)], work=91*, param=29811
  1: 0x0091 [0x00] END_REQSTACK()
```

### Event 65535.8

#### Metadata

| Field        | Value    |
|--------------|----------|
| Entrypoint   | 0x0092   |
| Data Size    | 18 bytes |
| Instructions | 2        |

```
      00 01 02 03 04 05 06 07  08 09 0A 0B 0C 0D 0E 0F
      -- -- -- -- -- -- -- --  -- -- -- -- -- -- -- --
0090:       C5 01 80 50 31 0B  01 50 31 0B 01 73 74 70    ...P1..P1..stp
00A0: 33 02 80 00                                       3...            
```

#### Opcodes

```
  0: 0x0092 [0xC5] LOAD_SCHEDULED_TASK_ALT3: Load scheduler 0x80023370 for entities [Unnamed NPC (ID: 17510736/0x010B3150), Unnamed NPC (ID: 17510736/0x010B3150)], work=91*, param=29811
  1: 0x00A3 [0x00] END_REQSTACK()
```

### Event 65535.9

#### Metadata

| Field        | Value    |
|--------------|----------|
| Entrypoint   | 0x00A4   |
| Data Size    | 18 bytes |
| Instructions | 2        |

```
      00 01 02 03 04 05 06 07  08 09 0A 0B 0C 0D 0E 0F
      -- -- -- -- -- -- -- --  -- -- -- -- -- -- -- --
00A0:             C5 01 80 50  31 0B 01 50 31 0B 01 6B      ...P1..P1..k
00B0: 69 6C 30 02 80 00                                 il0...          
```

#### Opcodes

```
  0: 0x00A4 [0xC5] LOAD_SCHEDULED_TASK_ALT3: Load scheduler 0x8002306C for entities [Unnamed NPC (ID: 17510736/0x010B3150), Unnamed NPC (ID: 17510736/0x010B3150)], work=91*, param=26987
  1: 0x00B5 [0x00] END_REQSTACK()
```

### Event 65535.10

#### Metadata

| Field        | Value    |
|--------------|----------|
| Entrypoint   | 0x00B6   |
| Data Size    | 18 bytes |
| Instructions | 2        |

```
      00 01 02 03 04 05 06 07  08 09 0A 0B 0C 0D 0E 0F
      -- -- -- -- -- -- -- --  -- -- -- -- -- -- -- --
00B0:                   C5 01  80 50 31 0B 01 50 31 0B        ...P1..P1.
00C0: 01 6B 69 6C 32 02 80 00                           .kil2...        
```

#### Opcodes

```
  0: 0x00B6 [0xC5] LOAD_SCHEDULED_TASK_ALT3: Load scheduler 0x8002326C for entities [Unnamed NPC (ID: 17510736/0x010B3150), Unnamed NPC (ID: 17510736/0x010B3150)], work=91*, param=26987
  1: 0x00C7 [0x00] END_REQSTACK()
```

### Event 65535.11

#### Metadata

| Field        | Value    |
|--------------|----------|
| Entrypoint   | 0x00C8   |
| Data Size    | 18 bytes |
| Instructions | 2        |

```
      00 01 02 03 04 05 06 07  08 09 0A 0B 0C 0D 0E 0F
      -- -- -- -- -- -- -- --  -- -- -- -- -- -- -- --
00C0:                          C5 01 80 50 31 0B 01 50          ...P1..P
00D0: 31 0B 01 6B 69 6C 33 02  80 00                    1..kil3...      
```

#### Opcodes

```
  0: 0x00C8 [0xC5] LOAD_SCHEDULED_TASK_ALT3: Load scheduler 0x8002336C for entities [Unnamed NPC (ID: 17510736/0x010B3150), Unnamed NPC (ID: 17510736/0x010B3150)], work=91*, param=26987
  1: 0x00D9 [0x00] END_REQSTACK()
```
