# 17510696 - Verena

## Common Data

| Field            | Value                     |
|------------------|---------------------------|
| Zone             | Stellar Fulcrum (ID: 179) |
| Block Size       | 632 bytes                 |
| Total Events     | 15                        |
| References Count | 32                        |

## List of Events

| Event ID                   | Entrypoint   |   Size |   Instructions |
|----------------------------|--------------|--------|----------------|
| [65535](#event-65535)      | 0x0000       |     13 |              3 |
| [17](#event-17)            | 0x000D       |     30 |              5 |
| [65535.1](#event-655351)   | 0x002B       |     28 |              4 |
| [65535.2](#event-655352)   | 0x0047       |     10 |              2 |
| [65535.3](#event-655353)   | 0x0051       |     49 |              6 |
| [65535.4](#event-655354)   | 0x0082       |     10 |              2 |
| [65535.5](#event-655355)   | 0x008C       |     25 |              6 |
| [65535.6](#event-655356)   | 0x00A5       |     49 |             15 |
| [65535.7](#event-655357)   | 0x00D6       |     10 |              2 |
| [65535.8](#event-655358)   | 0x00E0       |     34 |              4 |
| [65535.9](#event-655359)   | 0x0102       |     33 |              3 |
| [65535.10](#event-6553510) | 0x0123       |     29 |              3 |
| [65535.11](#event-6553511) | 0x0140       |     38 |              4 |
| [65535.12](#event-6553512) | 0x0166       |     38 |              4 |
| [65535.13](#event-6553513) | 0x018C       |     29 |              3 |

## DAT References (imed_data)

|   Index | Hex Value   |   Dec Value |
|---------|-------------|-------------|
|       0 | 0x0008      |           8 |
|       1 | 0x0000      |           0 |
|       2 | 0x11FF7     |       73719 |
|       3 | 0xFFFFDECC  |  4294958796 |
|       4 | 0x0400      |        1024 |
|       5 | 0x0222      |         546 |
|       6 | 0x0546      |        1350 |
|       7 | 0x0080      |         128 |
|       8 | 0x001E      |          30 |
|       9 | 0x0060      |          96 |
|      10 | 0x12FC6     |       77766 |
|      11 | 0xFFFFDECD  |  4294958797 |
|      12 | 0x1235F     |       74591 |
|      13 | 0x01C2      |         450 |
|      14 | 0x10134     |       65844 |
|      15 | 0xFFFFEE6C  |  4294962796 |
|      16 | 0xF9C1      |       63937 |
|      17 | 0xF120      |       61728 |
|      18 | 0xFFFFEC0B  |  4294962187 |
|      19 | 0xE918      |       59672 |
|      20 | 0xFFFFEC75  |  4294962293 |
|      21 | 0x00F0      |         240 |
|      22 | 0x004C      |          76 |
|      23 | 0x0223      |         547 |
|      24 | 0xFFFFEACE  |  4294961870 |
|      25 | 0xF29C      |       62108 |
|      26 | 0xFFFFEE6D  |  4294962797 |
|      27 | 0x0146      |         326 |
|      28 | 0xFFFFE926  |  4294961446 |
|      29 | 0x11B98     |       72600 |
|      30 | 0x03E8      |        1000 |
|      31 | 0x0642      |        1602 |

## Events

### Event 65535

#### Metadata

| Field        | Value    |
|--------------|----------|
| Entrypoint   | 0x0000   |
| Data Size    | 13 bytes |
| Instructions | 3        |

```
      00 01 02 03 04 05 06 07  08 09 0A 0B 0C 0D 0E 0F
      -- -- -- -- -- -- -- --  -- -- -- -- -- -- -- --
0000: 94 01 F8 FF FF 7F 81 00  F8 FF FF 7F 00           .............   
```

#### Opcodes

```
  0: 0x0000 [0x94] EventEntity->Render.Flags3 ^= 0x01
  1: 0x0006 [0x81] SET_ENTITY_BLINKING(blink_flag=0x00, entity=EventEntity)
  2: 0x000C [0x00] END_REQSTACK()
```

### Event 17

#### Metadata

| Field        | Value    |
|--------------|----------|
| Entrypoint   | 0x000D   |
| Data Size    | 30 bytes |
| Instructions | 5        |

```
      00 01 02 03 04 05 06 07  08 09 0A 0B 0C 0D 0E 0F
      -- -- -- -- -- -- -- --  -- -- -- -- -- -- -- --
0000:                                         22 01 32               ".2
0010: 00 80 37 01 80 02 80 03  80 04 80 5B 05 80 F0 FF  ..7........[....
0020: FF 7F F0 FF FF 7F 00 FE  FE FE 00                 ...........     
```

#### Opcodes

```
  0: 0x000D [0x22] ENTITY_HIDE_FLAG(enabled=0x01)
  1: 0x000F [0x32] ExtData[1]->MainSpeed = 8* * 0.1
  2: 0x0012 [0x37] UPDATE_EVENT_POSITION_AND_DIR: x=0.000*, z=73.719*, y=-8.500*, direction=90.0°*
  3: 0x001B [0x5B] LOAD_EXT_SCHEDULER: Load scheduler 0xFEFEFE00 with entities [LocalPlayer, LocalPlayer], work=546*
  4: 0x002A [0x00] END_REQSTACK()
```

### Event 65535.1

#### Metadata

| Field        | Value    |
|--------------|----------|
| Entrypoint   | 0x002B   |
| Data Size    | 28 bytes |
| Instructions | 4        |

```
      00 01 02 03 04 05 06 07  08 09 0A 0B 0C 0D 0E 0F
      -- -- -- -- -- -- -- --  -- -- -- -- -- -- -- --
0020:                                   3B F8 FF FF 7F             ;....
0030: 00 00 01 00 02 00 3A F8  FF FF 7F 03 00 37 06 80  ......:......7..
0040: 02 80 03 80 04 80 00                              .......         
```

#### Opcodes

```
  0: 0x002B [0x3B] GET_ENTITY_POSITION(entity=EventEntity, x_destination=ExtData[1]->WorkLocal[0], y_destination=ExtData[1]->WorkLocal[1], z_destination=ExtData[1]->WorkLocal[2])
  1: 0x0036 [0x3A] CONVERT_YAW_TO_BYTE(entity=EventEntity, result_destination=ExtData[1]->WorkLocal[3])
  2: 0x003D [0x37] UPDATE_EVENT_POSITION_AND_DIR: x=1.350*, z=73.719*, y=-8.500*, direction=90.0°*
  3: 0x0046 [0x00] END_REQSTACK()
```

### Event 65535.2

#### Metadata

| Field        | Value    |
|--------------|----------|
| Entrypoint   | 0x0047   |
| Data Size    | 10 bytes |
| Instructions | 2        |

```
      00 01 02 03 04 05 06 07  08 09 0A 0B 0C 0D 0E 0F
      -- -- -- -- -- -- -- --  -- -- -- -- -- -- -- --
0040:                      37  00 00 01 00 02 00 03 00         7........
0050: 00                                                .               
```

#### Opcodes

```
  0: 0x0047 [0x37] UPDATE_EVENT_POSITION_AND_DIR: x=ExtData[1]->WorkLocal[0], z=ExtData[1]->WorkLocal[1], y=ExtData[1]->WorkLocal[2], direction=ExtData[1]->WorkLocal[3]
  1: 0x0050 [0x00] END_REQSTACK()
```

### Event 65535.3

#### Metadata

| Field        | Value    |
|--------------|----------|
| Entrypoint   | 0x0051   |
| Data Size    | 49 bytes |
| Instructions | 6        |

```
      00 01 02 03 04 05 06 07  08 09 0A 0B 0C 0D 0E 0F
      -- -- -- -- -- -- -- --  -- -- -- -- -- -- -- --
0050:    6C F8 FF FF 7F 01 80  01 80 22 00 5B 05 80 F8   l........".[...
0060: FF FF 7F F8 FF FF 7F 64  6C 30 30 6C F8 FF FF 7F  .......dl00l....
0070: 07 80 08 80 53 F8 FF FF  7F F8 FF FF 7F 64 6C 30  ....S........dl0
0080: 30 00                                             0.              
```

#### Opcodes

```
  0: 0x0051 [0x6C] FADE_ENTITY_COLOR(entity_id=EventEntity, end_alpha=0*, fade_time=0*)
  1: 0x005A [0x22] ENTITY_HIDE_FLAG(enabled=0x00)
  2: 0x005C [0x5B] LOAD_EXT_SCHEDULER: Load scheduler "dl00" with entities [EventEntity, EventEntity], work=546*
  3: 0x006B [0x6C] FADE_ENTITY_COLOR(entity_id=EventEntity, end_alpha=128*, fade_time=30*)
  4: 0x0074 [0x53] WAIT_SCHEDULER_TASK: Wait for scheduler "dl00" with entities [EventEntity, EventEntity]
  5: 0x0081 [0x00] END_REQSTACK()
```

### Event 65535.4

#### Metadata

| Field        | Value    |
|--------------|----------|
| Entrypoint   | 0x0082   |
| Data Size    | 10 bytes |
| Instructions | 2        |

```
      00 01 02 03 04 05 06 07  08 09 0A 0B 0C 0D 0E 0F
      -- -- -- -- -- -- -- --  -- -- -- -- -- -- -- --
0080:       37 09 80 0A 80 0B  80 04 80 00                7.........    
```

#### Opcodes

```
  0: 0x0082 [0x37] UPDATE_EVENT_POSITION_AND_DIR: x=0.096*, z=77.766*, y=-8.499*, direction=90.0°*
  1: 0x008B [0x00] END_REQSTACK()
```

### Event 65535.5

#### Metadata

| Field        | Value    |
|--------------|----------|
| Entrypoint   | 0x008C   |
| Data Size    | 25 bytes |
| Instructions | 6        |

```
      00 01 02 03 04 05 06 07  08 09 0A 0B 0C 0D 0E 0F
      -- -- -- -- -- -- -- --  -- -- -- -- -- -- -- --
0080:                                      1F 00 01 80              ....
0090: 0C 80 0B 80 1F 01 1C 0D  80 22 01 37 01 80 0E 80  .........".7....
00A0: 0F 80 04 80 00                                    .....           
```

#### Opcodes

```
  0: 0x008C [0x1F] MOVE_ENTITY: EventEntity moves to X=0.000*, Z=74.591*, Y=-8.499*
  1: 0x0094 [0x1F] MOVE_ENTITY: Update entity position (mode=1)
  2: 0x0096 [0x1C] WAIT(450* ticks)
  3: 0x0099 [0x22] ENTITY_HIDE_FLAG(enabled=0x01)
  4: 0x009B [0x37] UPDATE_EVENT_POSITION_AND_DIR: x=0.000*, z=65.844*, y=-4.500*, direction=90.0°*
  5: 0x00A4 [0x00] END_REQSTACK()
```

### Event 65535.6

#### Metadata

| Field        | Value    |
|--------------|----------|
| Entrypoint   | 0x00A5   |
| Data Size    | 49 bytes |
| Instructions | 15       |

```
      00 01 02 03 04 05 06 07  08 09 0A 0B 0C 0D 0E 0F
      -- -- -- -- -- -- -- --  -- -- -- -- -- -- -- --
00A0:                1F 00 01  80 10 80 0F 80 1F 01 6F       ..........o
00B0: 33 01 5A 00 01 80 11 80  12 80 5A 01 33 00 1F 00  3.Z.......Z.3...
00C0: 01 80 13 80 14 80 1F 01  6F 1E 29 31 0B 01 6F 70  ........o.)1..op
00D0: 7B F8 FF FF 7F 00                                 {.....          
```

#### Opcodes

```
  0: 0x00A5 [0x1F] MOVE_ENTITY: EventEntity moves to X=0.000*, Z=63.937*, Y=-4.500*
  1: 0x00AD [0x1F] MOVE_ENTITY: Update entity position (mode=1)
  2: 0x00AF [0x6F] WAIT_FRAME_DELAY: Yield until WaitTime reaches zero
  3: 0x00B0 [0x33] EventEntity->Render.Flags0 |= 0x200000 // Bit 21 (flag=0x01)
  4: 0x00B2 [0x5A] UPDATE_EVENT_POSITION: Set EventEntity MovePosition to X=0.000*, Z=61.728*, Y=-5.109*
  5: 0x00BA [0x5A] UPDATE_EVENT_POSITION: Move EventEntity incrementally towards MovePosition
  6: 0x00BC [0x33] EventEntity->Render.Flags0 &= ~ 0x200000 // Bit 21 (flag=0x00)
  7: 0x00BE [0x1F] MOVE_ENTITY: EventEntity moves to X=0.000*, Z=59.672*, Y=-5.003*
  8: 0x00C6 [0x1F] MOVE_ENTITY: Update entity position (mode=1)
  9: 0x00C8 [0x6F] WAIT_FRAME_DELAY: Yield until WaitTime reaches zero
 10: 0x00C9 [0x1E] EventEntity looks at ShadowLord (ID: 17510697/0x010B3129) and starts talking
 11: 0x00CE [0x6F] WAIT_FRAME_DELAY: Yield until WaitTime reaches zero
 12: 0x00CF [0x70] WAIT_ENTITY_RENDER_FLAG: Wait while EventEntity->Render.Flags3 bit 2 is set (cancel turn if not)
 13: 0x00D0 [0x7B] EventEntity stops talking
 14: 0x00D5 [0x00] END_REQSTACK()
```

### Event 65535.7

#### Metadata

| Field        | Value    |
|--------------|----------|
| Entrypoint   | 0x00D6   |
| Data Size    | 10 bytes |
| Instructions | 2        |

```
      00 01 02 03 04 05 06 07  08 09 0A 0B 0C 0D 0E 0F
      -- -- -- -- -- -- -- --  -- -- -- -- -- -- -- --
00D0:                   37 01  80 13 80 14 80 04 80 00        7.........
```

#### Opcodes

```
  0: 0x00D6 [0x37] UPDATE_EVENT_POSITION_AND_DIR: x=0.000*, z=59.672*, y=-5.003*, direction=90.0°*
  1: 0x00DF [0x00] END_REQSTACK()
```

### Event 65535.8

#### Metadata

| Field        | Value    |
|--------------|----------|
| Entrypoint   | 0x00E0   |
| Data Size    | 34 bytes |
| Instructions | 4        |

```
      00 01 02 03 04 05 06 07  08 09 0A 0B 0C 0D 0E 0F
      -- -- -- -- -- -- -- --  -- -- -- -- -- -- -- --
00E0: 5B 05 80 F8 FF FF 7F F8  FF FF 7F 00 FE FE FE 1C  [...............
00F0: 15 80 5B 05 80 F8 FF FF  7F F8 FF FF 7F 73 6E 67  ..[..........sng
0100: 30 00                                             0.              
```

#### Opcodes

```
  0: 0x00E0 [0x5B] LOAD_EXT_SCHEDULER: Load scheduler 0xFEFEFE00 with entities [EventEntity, EventEntity], work=546*
  1: 0x00EF [0x1C] WAIT(240* ticks)
  2: 0x00F2 [0x5B] LOAD_EXT_SCHEDULER: Load scheduler "sng0" with entities [EventEntity, EventEntity], work=546*
  3: 0x0101 [0x00] END_REQSTACK()
```

### Event 65535.9

#### Metadata

| Field        | Value    |
|--------------|----------|
| Entrypoint   | 0x0102   |
| Data Size    | 33 bytes |
| Instructions | 3        |

```
      00 01 02 03 04 05 06 07  08 09 0A 0B 0C 0D 0E 0F
      -- -- -- -- -- -- -- --  -- -- -- -- -- -- -- --
0100:       62 16 80 F8 FF FF  7F F8 FF FF 7F 73 65 6E    b..........sen
0110: 64 01 80 5B 05 80 F8 FF  FF 7F F8 FF FF 7F 73 6E  d..[..........sn
0120: 67 31 00                                          g1.             
```

#### Opcodes

```
  0: 0x0102 [0x62] LOAD_EVENT_SCHEDULER: Load scheduler "send" with entities [EventEntity, EventEntity], work=[76*, 0*]
  1: 0x0113 [0x5B] LOAD_EXT_SCHEDULER: Load scheduler "sng1" with entities [EventEntity, EventEntity], work=546*
  2: 0x0122 [0x00] END_REQSTACK()
```

### Event 65535.10

#### Metadata

| Field        | Value    |
|--------------|----------|
| Entrypoint   | 0x0123   |
| Data Size    | 29 bytes |
| Instructions | 3        |

```
      00 01 02 03 04 05 06 07  08 09 0A 0B 0C 0D 0E 0F
      -- -- -- -- -- -- -- --  -- -- -- -- -- -- -- --
0120:          5B 17 80 F8 FF  FF 7F F8 FF FF 7F 64 72     [..........dr
0130: 70 30 53 F8 FF FF 7F F8  FF FF 7F 64 72 70 30 00  p0S........drp0.
```

#### Opcodes

```
  0: 0x0123 [0x5B] LOAD_EXT_SCHEDULER: Load scheduler "drp0" with entities [EventEntity, EventEntity], work=547*
  1: 0x0132 [0x53] WAIT_SCHEDULER_TASK: Wait for scheduler "drp0" with entities [EventEntity, EventEntity]
  2: 0x013F [0x00] END_REQSTACK()
```

### Event 65535.11

#### Metadata

| Field        | Value    |
|--------------|----------|
| Entrypoint   | 0x0140   |
| Data Size    | 38 bytes |
| Instructions | 4        |

```
      00 01 02 03 04 05 06 07  08 09 0A 0B 0C 0D 0E 0F
      -- -- -- -- -- -- -- --  -- -- -- -- -- -- -- --
0140: 37 18 80 19 80 1A 80 1B  80 5B 17 80 F8 FF FF 7F  7........[......
0150: F8 FF FF 7F 64 72 70 31  53 F8 FF FF 7F F8 FF FF  ....drp1S.......
0160: 7F 64 72 70 31 00                                 .drp1.          
```

#### Opcodes

```
  0: 0x0140 [0x37] UPDATE_EVENT_POSITION_AND_DIR: x=-5.426*, z=62.108*, y=-4.499*, direction=28.7°*
  1: 0x0149 [0x5B] LOAD_EXT_SCHEDULER: Load scheduler "drp1" with entities [EventEntity, EventEntity], work=547*
  2: 0x0158 [0x53] WAIT_SCHEDULER_TASK: Wait for scheduler "drp1" with entities [EventEntity, EventEntity]
  3: 0x0165 [0x00] END_REQSTACK()
```

### Event 65535.12

#### Metadata

| Field        | Value    |
|--------------|----------|
| Entrypoint   | 0x0166   |
| Data Size    | 38 bytes |
| Instructions | 4        |

```
      00 01 02 03 04 05 06 07  08 09 0A 0B 0C 0D 0E 0F
      -- -- -- -- -- -- -- --  -- -- -- -- -- -- -- --
0160:                   37 1C  80 1D 80 1E 80 1F 80 5B        7........[
0170: 17 80 F8 FF FF 7F F8 FF  FF 7F 64 77 6E 30 53 F8  ..........dwn0S.
0180: FF FF 7F F8 FF FF 7F 64  77 6E 30 00              .......dwn0.    
```

#### Opcodes

```
  0: 0x0166 [0x37] UPDATE_EVENT_POSITION_AND_DIR: x=-5.850*, z=72.600*, y=1.000*, direction=140.8°*
  1: 0x016F [0x5B] LOAD_EXT_SCHEDULER: Load scheduler "dwn0" with entities [EventEntity, EventEntity], work=547*
  2: 0x017E [0x53] WAIT_SCHEDULER_TASK: Wait for scheduler "dwn0" with entities [EventEntity, EventEntity]
  3: 0x018B [0x00] END_REQSTACK()
```

### Event 65535.13

#### Metadata

| Field        | Value    |
|--------------|----------|
| Entrypoint   | 0x018C   |
| Data Size    | 29 bytes |
| Instructions | 3        |

```
      00 01 02 03 04 05 06 07  08 09 0A 0B 0C 0D 0E 0F
      -- -- -- -- -- -- -- --  -- -- -- -- -- -- -- --
0180:                                      5B 17 80 F8              [...
0190: FF FF 7F F8 FF FF 7F 64  77 6E 31 53 F8 FF FF 7F  .......dwn1S....
01A0: F8 FF FF 7F 64 77 6E 31  00                       ....dwn1.       
```

#### Opcodes

```
  0: 0x018C [0x5B] LOAD_EXT_SCHEDULER: Load scheduler "dwn1" with entities [EventEntity, EventEntity], work=547*
  1: 0x019B [0x53] WAIT_SCHEDULER_TASK: Wait for scheduler "dwn1" with entities [EventEntity, EventEntity]
  2: 0x01A8 [0x00] END_REQSTACK()
```
