# 17510735

## Common Data

| Field            | Value                     |
|------------------|---------------------------|
| Zone             | Stellar Fulcrum (ID: 179) |
| Block Size       | 288 bytes                 |
| Total Events     | 14                        |
| References Count | 2                         |

## List of Events

| Event ID                   | Entrypoint   |   Size |   Instructions |
|----------------------------|--------------|--------|----------------|
| [65535](#event-65535)      | 0x0000       |      1 |              1 |
| [12](#event-12)            | 0x0001       |      7 |              2 |
| [13](#event-13)            | 0x0008       |      7 |              2 |
| [65535.1](#event-655351)   | 0x000F       |     13 |              3 |
| [65535.2](#event-655352)   | 0x001C       |     18 |              2 |
| [65535.3](#event-655353)   | 0x002E       |     18 |              2 |
| [65535.4](#event-655354)   | 0x0040       |     18 |              2 |
| [65535.5](#event-655355)   | 0x0052       |     18 |              2 |
| [65535.6](#event-655356)   | 0x0064       |     18 |              2 |
| [65535.7](#event-655357)   | 0x0076       |     18 |              2 |
| [65535.8](#event-655358)   | 0x0088       |     18 |              2 |
| [65535.9](#event-655359)   | 0x009A       |     18 |              2 |
| [65535.10](#event-6553510) | 0x00AC       |     18 |              2 |
| [65535.11](#event-6553511) | 0x00BE       |     18 |              2 |

## DAT References (imed_data)

|   Index | Hex Value   |   Dec Value |
|---------|-------------|-------------|
|       0 | 0x005B      |          91 |
|       1 | 0x0000      |           0 |

## Events

### Event 65535

#### Metadata

| Field        | Value   |
|--------------|---------|
| Entrypoint   | 0x0000  |
| Data Size    | 1 bytes |
| Instructions | 1       |

```
      00 01 02 03 04 05 06 07  08 09 0A 0B 0C 0D 0E 0F
      -- -- -- -- -- -- -- --  -- -- -- -- -- -- -- --
0000: 00                                                .               
```

#### Opcodes

```
  0: 0x0000 [0x00] END_REQSTACK()
```

### Event 12

#### Metadata

| Field        | Value   |
|--------------|---------|
| Entrypoint   | 0x0001  |
| Data Size    | 7 bytes |
| Instructions | 2       |

```
      00 01 02 03 04 05 06 07  08 09 0A 0B 0C 0D 0E 0F
      -- -- -- -- -- -- -- --  -- -- -- -- -- -- -- --
0000:    92 01 F8 FF FF 7F 00                            .......        
```

#### Opcodes

```
  0: 0x0001 [0x92] EventEntity->Render.Flags3 ^= 0x01
  1: 0x0007 [0x00] END_REQSTACK()
```

### Event 13

#### Metadata

| Field        | Value   |
|--------------|---------|
| Entrypoint   | 0x0008  |
| Data Size    | 7 bytes |
| Instructions | 2       |

```
      00 01 02 03 04 05 06 07  08 09 0A 0B 0C 0D 0E 0F
      -- -- -- -- -- -- -- --  -- -- -- -- -- -- -- --
0000:                          92 01 F8 FF FF 7F 00             ....... 
```

#### Opcodes

```
  0: 0x0008 [0x92] EventEntity->Render.Flags3 ^= 0x01
  1: 0x000E [0x00] END_REQSTACK()
```

### Event 65535.1

#### Metadata

| Field        | Value    |
|--------------|----------|
| Entrypoint   | 0x000F   |
| Data Size    | 13 bytes |
| Instructions | 3        |

```
      00 01 02 03 04 05 06 07  08 09 0A 0B 0C 0D 0E 0F
      -- -- -- -- -- -- -- --  -- -- -- -- -- -- -- --
0000:                                               4E                 N
0010: 00 4F 31 0B 01 94 01 4F  31 0B 01 00              .O1....O1...    
```

#### Opcodes

```
  0: 0x000F [0x4E] SET_ENTITY_HIDE_FLAG: Show ??? (ID: 17510735/0x010B314F)
  1: 0x0015 [0x94] ??? (ID: 17510735/0x010B314F)->Render.Flags3 ^= 0x01
  2: 0x001B [0x00] END_REQSTACK()
```

### Event 65535.2

#### Metadata

| Field        | Value    |
|--------------|----------|
| Entrypoint   | 0x001C   |
| Data Size    | 18 bytes |
| Instructions | 2        |

```
      00 01 02 03 04 05 06 07  08 09 0A 0B 0C 0D 0E 0F
      -- -- -- -- -- -- -- --  -- -- -- -- -- -- -- --
0010:                                      C5 00 80 4F              ...O
0020: 31 0B 01 4F 31 0B 01 73  30 30 30 01 80 00        1..O1..s000...  
```

#### Opcodes

```
  0: 0x001C [0xC5] LOAD_SCHEDULED_TASK_ALT3: Load scheduler 0x80013030 for entities [??? (ID: 17510735/0x010B314F), ??? (ID: 17510735/0x010B314F)], work=91*, param=12403
  1: 0x002D [0x00] END_REQSTACK()
```

### Event 65535.3

#### Metadata

| Field        | Value    |
|--------------|----------|
| Entrypoint   | 0x002E   |
| Data Size    | 18 bytes |
| Instructions | 2        |

```
      00 01 02 03 04 05 06 07  08 09 0A 0B 0C 0D 0E 0F
      -- -- -- -- -- -- -- --  -- -- -- -- -- -- -- --
0020:                                            C5 00                ..
0030: 80 4F 31 0B 01 4F 31 0B  01 73 30 30 31 01 80 00  .O1..O1..s001...
```

#### Opcodes

```
  0: 0x002E [0xC5] LOAD_SCHEDULED_TASK_ALT3: Load scheduler 0x80013130 for entities [??? (ID: 17510735/0x010B314F), ??? (ID: 17510735/0x010B314F)], work=91*, param=12403
  1: 0x003F [0x00] END_REQSTACK()
```

### Event 65535.4

#### Metadata

| Field        | Value    |
|--------------|----------|
| Entrypoint   | 0x0040   |
| Data Size    | 18 bytes |
| Instructions | 2        |

```
      00 01 02 03 04 05 06 07  08 09 0A 0B 0C 0D 0E 0F
      -- -- -- -- -- -- -- --  -- -- -- -- -- -- -- --
0040: C5 00 80 4F 31 0B 01 4F  31 0B 01 73 30 30 32 01  ...O1..O1..s002.
0050: 80 00                                             ..              
```

#### Opcodes

```
  0: 0x0040 [0xC5] LOAD_SCHEDULED_TASK_ALT3: Load scheduler 0x80013230 for entities [??? (ID: 17510735/0x010B314F), ??? (ID: 17510735/0x010B314F)], work=91*, param=12403
  1: 0x0051 [0x00] END_REQSTACK()
```

### Event 65535.5

#### Metadata

| Field        | Value    |
|--------------|----------|
| Entrypoint   | 0x0052   |
| Data Size    | 18 bytes |
| Instructions | 2        |

```
      00 01 02 03 04 05 06 07  08 09 0A 0B 0C 0D 0E 0F
      -- -- -- -- -- -- -- --  -- -- -- -- -- -- -- --
0050:       C5 00 80 4F 31 0B  01 4F 31 0B 01 73 30 30    ...O1..O1..s00
0060: 33 01 80 00                                       3...            
```

#### Opcodes

```
  0: 0x0052 [0xC5] LOAD_SCHEDULED_TASK_ALT3: Load scheduler 0x80013330 for entities [??? (ID: 17510735/0x010B314F), ??? (ID: 17510735/0x010B314F)], work=91*, param=12403
  1: 0x0063 [0x00] END_REQSTACK()
```

### Event 65535.6

#### Metadata

| Field        | Value    |
|--------------|----------|
| Entrypoint   | 0x0064   |
| Data Size    | 18 bytes |
| Instructions | 2        |

```
      00 01 02 03 04 05 06 07  08 09 0A 0B 0C 0D 0E 0F
      -- -- -- -- -- -- -- --  -- -- -- -- -- -- -- --
0060:             C5 00 80 4F  31 0B 01 4F 31 0B 01 73      ...O1..O1..s
0070: 74 70 30 01 80 00                                 tp0...          
```

#### Opcodes

```
  0: 0x0064 [0xC5] LOAD_SCHEDULED_TASK_ALT3: Load scheduler 0x80013070 for entities [??? (ID: 17510735/0x010B314F), ??? (ID: 17510735/0x010B314F)], work=91*, param=29811
  1: 0x0075 [0x00] END_REQSTACK()
```

### Event 65535.7

#### Metadata

| Field        | Value    |
|--------------|----------|
| Entrypoint   | 0x0076   |
| Data Size    | 18 bytes |
| Instructions | 2        |

```
      00 01 02 03 04 05 06 07  08 09 0A 0B 0C 0D 0E 0F
      -- -- -- -- -- -- -- --  -- -- -- -- -- -- -- --
0070:                   C5 00  80 4F 31 0B 01 4F 31 0B        ...O1..O1.
0080: 01 73 74 70 32 01 80 00                           .stp2...        
```

#### Opcodes

```
  0: 0x0076 [0xC5] LOAD_SCHEDULED_TASK_ALT3: Load scheduler 0x80013270 for entities [??? (ID: 17510735/0x010B314F), ??? (ID: 17510735/0x010B314F)], work=91*, param=29811
  1: 0x0087 [0x00] END_REQSTACK()
```

### Event 65535.8

#### Metadata

| Field        | Value    |
|--------------|----------|
| Entrypoint   | 0x0088   |
| Data Size    | 18 bytes |
| Instructions | 2        |

```
      00 01 02 03 04 05 06 07  08 09 0A 0B 0C 0D 0E 0F
      -- -- -- -- -- -- -- --  -- -- -- -- -- -- -- --
0080:                          C5 00 80 4F 31 0B 01 4F          ...O1..O
0090: 31 0B 01 73 74 70 33 01  80 00                    1..stp3...      
```

#### Opcodes

```
  0: 0x0088 [0xC5] LOAD_SCHEDULED_TASK_ALT3: Load scheduler 0x80013370 for entities [??? (ID: 17510735/0x010B314F), ??? (ID: 17510735/0x010B314F)], work=91*, param=29811
  1: 0x0099 [0x00] END_REQSTACK()
```

### Event 65535.9

#### Metadata

| Field        | Value    |
|--------------|----------|
| Entrypoint   | 0x009A   |
| Data Size    | 18 bytes |
| Instructions | 2        |

```
      00 01 02 03 04 05 06 07  08 09 0A 0B 0C 0D 0E 0F
      -- -- -- -- -- -- -- --  -- -- -- -- -- -- -- --
0090:                                C5 00 80 4F 31 0B            ...O1.
00A0: 01 4F 31 0B 01 6B 69 6C  30 01 80 00              .O1..kil0...    
```

#### Opcodes

```
  0: 0x009A [0xC5] LOAD_SCHEDULED_TASK_ALT3: Load scheduler 0x8001306C for entities [??? (ID: 17510735/0x010B314F), ??? (ID: 17510735/0x010B314F)], work=91*, param=26987
  1: 0x00AB [0x00] END_REQSTACK()
```

### Event 65535.10

#### Metadata

| Field        | Value    |
|--------------|----------|
| Entrypoint   | 0x00AC   |
| Data Size    | 18 bytes |
| Instructions | 2        |

```
      00 01 02 03 04 05 06 07  08 09 0A 0B 0C 0D 0E 0F
      -- -- -- -- -- -- -- --  -- -- -- -- -- -- -- --
00A0:                                      C5 00 80 4F              ...O
00B0: 31 0B 01 4F 31 0B 01 6B  69 6C 32 01 80 00        1..O1..kil2...  
```

#### Opcodes

```
  0: 0x00AC [0xC5] LOAD_SCHEDULED_TASK_ALT3: Load scheduler 0x8001326C for entities [??? (ID: 17510735/0x010B314F), ??? (ID: 17510735/0x010B314F)], work=91*, param=26987
  1: 0x00BD [0x00] END_REQSTACK()
```

### Event 65535.11

#### Metadata

| Field        | Value    |
|--------------|----------|
| Entrypoint   | 0x00BE   |
| Data Size    | 18 bytes |
| Instructions | 2        |

```
      00 01 02 03 04 05 06 07  08 09 0A 0B 0C 0D 0E 0F
      -- -- -- -- -- -- -- --  -- -- -- -- -- -- -- --
00B0:                                            C5 00                ..
00C0: 80 4F 31 0B 01 4F 31 0B  01 6B 69 6C 33 01 80 00  .O1..O1..kil3...
```

#### Opcodes

```
  0: 0x00BE [0xC5] LOAD_SCHEDULED_TASK_ALT3: Load scheduler 0x8001336C for entities [??? (ID: 17510735/0x010B314F), ??? (ID: 17510735/0x010B314F)], work=91*, param=26987
  1: 0x00CF [0x00] END_REQSTACK()
```
