# 17510771 - mob22

## Common Data

| Field            | Value                     |
|------------------|---------------------------|
| Zone             | Stellar Fulcrum (ID: 179) |
| Block Size       | 92 bytes                  |
| Total Events     | 3                         |
| References Count | 7                         |

## List of Events

| Event ID                 | Entrypoint   |   Size |   Instructions |
|--------------------------|--------------|--------|----------------|
| [65535](#event-65535)    | 0x0000       |      1 |              1 |
| [14](#event-14)          | 0x0001       |      1 |              1 |
| [65535.1](#event-655351) | 0x0002       |     33 |              7 |

## DAT References (imed_data)

|   Index | Hex Value   |   Dec Value |
|---------|-------------|-------------|
|       0 | 0x003C      |          60 |
|       1 | 0x000D      |          13 |
|       2 | 0xFFFB3617  |  4294653463 |
|       3 | 0x58774     |      362356 |
|       4 | 0x1F92      |        8082 |
|       5 | 0x0190      |         400 |
|       6 | 0x0258      |         600 |

## Events

### Event 65535

#### Metadata

| Field        | Value   |
|--------------|---------|
| Entrypoint   | 0x0000  |
| Data Size    | 1 bytes |
| Instructions | 1       |

```
      00 01 02 03 04 05 06 07  08 09 0A 0B 0C 0D 0E 0F
      -- -- -- -- -- -- -- --  -- -- -- -- -- -- -- --
0000: 00                                                .               
```

#### Opcodes

```
  0: 0x0000 [0x00] END_REQSTACK()
```

### Event 14

#### Metadata

| Field        | Value   |
|--------------|---------|
| Entrypoint   | 0x0001  |
| Data Size    | 1 bytes |
| Instructions | 1       |

```
      00 01 02 03 04 05 06 07  08 09 0A 0B 0C 0D 0E 0F
      -- -- -- -- -- -- -- --  -- -- -- -- -- -- -- --
0000:    00                                              .              
```

#### Opcodes

```
  0: 0x0001 [0x00] END_REQSTACK()
```

### Event 65535.1

#### Metadata

| Field        | Value    |
|--------------|----------|
| Entrypoint   | 0x0002   |
| Data Size    | 33 bytes |
| Instructions | 7        |

```
      00 01 02 03 04 05 06 07  08 09 0A 0B 0C 0D 0E 0F
      -- -- -- -- -- -- -- --  -- -- -- -- -- -- -- --
0000:       1C 00 80 59 04 73  31 0B 01 01 80 1F 00 02    ...Y.s1.......
0010: 80 03 80 04 80 1F 01 6F  79 02 73 31 0B 01 05 80  .......oy.s1....
0020: 06 80 00                                          ...             
```

#### Opcodes

```
  0: 0x0002 [0x1C] WAIT(60* ticks)
  1: 0x0005 [0x59] UPDATE_ENTITY_DATA: Set mob22 (ID: 17510771/0x010B3173) main speed = 13* * 0.1
  2: 0x000D [0x1F] MOVE_ENTITY: EventEntity moves to X=-313.833*, Z=362.356*, Y=8.082*
  3: 0x0015 [0x1F] MOVE_ENTITY: Update entity position (mode=1)
  4: 0x0017 [0x6F] WAIT_FRAME_DELAY: Yield until WaitTime reaches zero
  5: 0x0018 [0x79] mob22 (ID: 17510771/0x010B3173) looks at Unknown NPC (ID: 2147909637/0x80068005) (Direct axis set)
  6: 0x0022 [0x00] END_REQSTACK()
```
