# 17510693 - Zeid

## Common Data

| Field            | Value                     |
|------------------|---------------------------|
| Zone             | Stellar Fulcrum (ID: 179) |
| Block Size       | 676 bytes                 |
| Total Events     | 17                        |
| References Count | 25                        |

## List of Events

| Event ID                   | Entrypoint   |   Size |   Instructions |
|----------------------------|--------------|--------|----------------|
| [65535](#event-65535)      | 0x0000       |      7 |              2 |
| [0](#event-0)              | 0x0007       |     25 |              3 |
| [6](#event-6)              | 0x0020       |     10 |              2 |
| [17](#event-17)            | 0x002A       |     25 |              3 |
| [65535.1](#event-655351)   | 0x0043       |     57 |              5 |
| [65535.2](#event-655352)   | 0x007C       |     29 |              3 |
| [65535.3](#event-655353)   | 0x0099       |     73 |              7 |
| [65535.4](#event-655354)   | 0x00E2       |     49 |              5 |
| [65535.5](#event-655355)   | 0x0113       |     29 |              3 |
| [65535.6](#event-655356)   | 0x0130       |     32 |              4 |
| [65535.7](#event-655357)   | 0x0150       |     29 |              3 |
| [65535.8](#event-655358)   | 0x016D       |     29 |              3 |
| [65535.9](#event-655359)   | 0x018A       |     10 |              2 |
| [65535.10](#event-6553510) | 0x0194       |     48 |              5 |
| [65535.11](#event-6553511) | 0x01C4       |     10 |              2 |
| [65535.12](#event-6553512) | 0x01CE       |     30 |              8 |

## DAT References (imed_data)

|   Index | Hex Value   |   Dec Value |
|---------|-------------|-------------|
|       0 | 0x2812      |       10258 |
|       1 | 0xCF4F      |       53071 |
|       2 | 0xFFFFF23B  |  4294963771 |
|       3 | 0x0956      |        2390 |
|       4 | 0x0209      |         521 |
|       5 | 0x004F      |          79 |
|       6 | 0x0000      |           0 |
|       7 | 0x003C      |          60 |
|       8 | 0x0078      |         120 |
|       9 | 0x364F      |       13903 |
|      10 | 0xE4BD      |       58557 |
|      11 | 0x03E7      |         999 |
|      12 | 0x07D4      |        2004 |
|      13 | 0x0CF1      |        3313 |
|      14 | 0xA3D0      |       41936 |
|      15 | 0x09C3      |        2499 |
|      16 | 0x077D      |        1917 |
|      17 | 0x2B38      |       11064 |
|      18 | 0xB0A3      |       45219 |
|      19 | 0x0B52      |        2898 |
|      20 | 0x06DF      |        1759 |
|      21 | 0x0028      |          40 |
|      22 | 0x12C8      |        4808 |
|      23 | 0xA36D      |       41837 |
|      24 | 0x0951      |        2385 |

## Events

### Event 65535

#### Metadata

| Field        | Value   |
|--------------|---------|
| Entrypoint   | 0x0000  |
| Data Size    | 7 bytes |
| Instructions | 2       |

```
      00 01 02 03 04 05 06 07  08 09 0A 0B 0C 0D 0E 0F
      -- -- -- -- -- -- -- --  -- -- -- -- -- -- -- --
0000: 94 01 F8 FF FF 7F 00                              .......         
```

#### Opcodes

```
  0: 0x0000 [0x94] EventEntity->Render.Flags3 ^= 0x01
  1: 0x0006 [0x00] END_REQSTACK()
```

### Event 0

#### Metadata

| Field        | Value    |
|--------------|----------|
| Entrypoint   | 0x0007   |
| Data Size    | 25 bytes |
| Instructions | 3        |

```
      00 01 02 03 04 05 06 07  08 09 0A 0B 0C 0D 0E 0F
      -- -- -- -- -- -- -- --  -- -- -- -- -- -- -- --
0000:                      37  00 80 01 80 02 80 03 80         7........
0010: 5B 04 80 F0 FF FF 7F F0  FF FF 7F 00 FE FE FE 00  [...............
```

#### Opcodes

```
  0: 0x0007 [0x37] UPDATE_EVENT_POSITION_AND_DIR: x=10.258*, z=53.071*, y=-3.525*, direction=210.1°*
  1: 0x0010 [0x5B] LOAD_EXT_SCHEDULER: Load scheduler 0xFEFEFE00 with entities [LocalPlayer, LocalPlayer], work=521*
  2: 0x001F [0x00] END_REQSTACK()
```

### Event 6

#### Metadata

| Field        | Value    |
|--------------|----------|
| Entrypoint   | 0x0020   |
| Data Size    | 10 bytes |
| Instructions | 2        |

```
      00 01 02 03 04 05 06 07  08 09 0A 0B 0C 0D 0E 0F
      -- -- -- -- -- -- -- --  -- -- -- -- -- -- -- --
0020: 37 00 80 01 80 02 80 03  80 00                    7.........      
```

#### Opcodes

```
  0: 0x0020 [0x37] UPDATE_EVENT_POSITION_AND_DIR: x=10.258*, z=53.071*, y=-3.525*, direction=210.1°*
  1: 0x0029 [0x00] END_REQSTACK()
```

### Event 17

#### Metadata

| Field        | Value    |
|--------------|----------|
| Entrypoint   | 0x002A   |
| Data Size    | 25 bytes |
| Instructions | 3        |

```
      00 01 02 03 04 05 06 07  08 09 0A 0B 0C 0D 0E 0F
      -- -- -- -- -- -- -- --  -- -- -- -- -- -- -- --
0020:                                37 00 80 01 80 02            7.....
0030: 80 03 80 5B 04 80 F0 FF  FF 7F F0 FF FF 7F 00 FE  ...[............
0040: FE FE 00                                          ...             
```

#### Opcodes

```
  0: 0x002A [0x37] UPDATE_EVENT_POSITION_AND_DIR: x=10.258*, z=53.071*, y=-3.525*, direction=210.1°*
  1: 0x0033 [0x5B] LOAD_EXT_SCHEDULER: Load scheduler 0xFEFEFE00 with entities [LocalPlayer, LocalPlayer], work=521*
  2: 0x0042 [0x00] END_REQSTACK()
```

### Event 65535.1

#### Metadata

| Field        | Value    |
|--------------|----------|
| Entrypoint   | 0x0043   |
| Data Size    | 57 bytes |
| Instructions | 5        |

```
      00 01 02 03 04 05 06 07  08 09 0A 0B 0C 0D 0E 0F
      -- -- -- -- -- -- -- --  -- -- -- -- -- -- -- --
0040:          5B 04 80 F8 FF  FF 7F F8 FF FF 7F 64 6C     [..........dl
0050: 30 30 53 F8 FF FF 7F F8  FF FF 7F 64 6C 30 30 5B  00S........dl00[
0060: 04 80 F8 FF FF 7F F8 FF  FF 7F 64 6C 30 31 53 F8  ..........dl01S.
0070: FF FF 7F F8 FF FF 7F 64  6C 30 31 00              .......dl01.    
```

#### Opcodes

```
  0: 0x0043 [0x5B] LOAD_EXT_SCHEDULER: Load scheduler "dl00" with entities [EventEntity, EventEntity], work=521*
  1: 0x0052 [0x53] WAIT_SCHEDULER_TASK: Wait for scheduler "dl00" with entities [EventEntity, EventEntity]
  2: 0x005F [0x5B] LOAD_EXT_SCHEDULER: Load scheduler "dl01" with entities [EventEntity, EventEntity], work=521*
  3: 0x006E [0x53] WAIT_SCHEDULER_TASK: Wait for scheduler "dl01" with entities [EventEntity, EventEntity]
  4: 0x007B [0x00] END_REQSTACK()
```

### Event 65535.2

#### Metadata

| Field        | Value    |
|--------------|----------|
| Entrypoint   | 0x007C   |
| Data Size    | 29 bytes |
| Instructions | 3        |

```
      00 01 02 03 04 05 06 07  08 09 0A 0B 0C 0D 0E 0F
      -- -- -- -- -- -- -- --  -- -- -- -- -- -- -- --
0070:                                      5B 04 80 F8              [...
0080: FF FF 7F F8 FF FF 7F 64  6C 30 31 53 F8 FF FF 7F  .......dl01S....
0090: F8 FF FF 7F 64 6C 30 31  00                       ....dl01.       
```

#### Opcodes

```
  0: 0x007C [0x5B] LOAD_EXT_SCHEDULER: Load scheduler "dl01" with entities [EventEntity, EventEntity], work=521*
  1: 0x008B [0x53] WAIT_SCHEDULER_TASK: Wait for scheduler "dl01" with entities [EventEntity, EventEntity]
  2: 0x0098 [0x00] END_REQSTACK()
```

### Event 65535.3

#### Metadata

| Field        | Value    |
|--------------|----------|
| Entrypoint   | 0x0099   |
| Data Size    | 73 bytes |
| Instructions | 7        |

```
      00 01 02 03 04 05 06 07  08 09 0A 0B 0C 0D 0E 0F
      -- -- -- -- -- -- -- --  -- -- -- -- -- -- -- --
0090:                             29 03 2F 31 0B 01 0B           )./1...
00A0: 45 05 80 2F 31 0B 01 2F  31 0B 01 00 FE FE FE 06  E../1../1.......
00B0: 80 5B 04 80 F8 FF FF 7F  F8 FF FF 7F 64 6C 30 32  .[..........dl02
00C0: 1C 07 80 45 05 80 2F 31  0B 01 2F 31 0B 01 7A 73  ...E../1../1..zs
00D0: 65 33 06 80 53 F8 FF FF  7F F8 FF FF 7F 64 6C 30  e3..S........dl0
00E0: 32 00                                             2.              
```

#### Opcodes

```
  0: 0x0099 [0x29] REQ_SET_WAIT(priority=0x03, entity_id=Qe'Iov Gate (ID: 17510703/0x010B312F), tag_num=0x0B)
  1: 0x00A0 [0x45] LOAD_SCHEDULED_TASK: Load scheduler 0xFEFEFE00 with entities [Qe'Iov Gate (ID: 17510703/0x010B312F), Qe'Iov Gate (ID: 17510703/0x010B312F)], work=[79*, 0*]
  2: 0x00B1 [0x5B] LOAD_EXT_SCHEDULER: Load scheduler "dl02" with entities [EventEntity, EventEntity], work=521*
  3: 0x00C0 [0x1C] WAIT(60* ticks)
  4: 0x00C3 [0x45] LOAD_SCHEDULED_TASK: Load scheduler "zse3" with entities [Qe'Iov Gate (ID: 17510703/0x010B312F), Qe'Iov Gate (ID: 17510703/0x010B312F)], work=[79*, 0*]
  5: 0x00D4 [0x53] WAIT_SCHEDULER_TASK: Wait for scheduler "dl02" with entities [EventEntity, EventEntity]
  6: 0x00E1 [0x00] END_REQSTACK()
```

### Event 65535.4

#### Metadata

| Field        | Value    |
|--------------|----------|
| Entrypoint   | 0x00E2   |
| Data Size    | 49 bytes |
| Instructions | 5        |

```
      00 01 02 03 04 05 06 07  08 09 0A 0B 0C 0D 0E 0F
      -- -- -- -- -- -- -- --  -- -- -- -- -- -- -- --
00E0:       5B 04 80 F8 FF FF  7F F8 FF FF 7F 64 6C 30    [..........dl0
00F0: 32 1C 07 80 45 05 80 F8  FF FF 7F F8 FF FF 7F 7A  2...E..........z
0100: 73 65 34 06 80 53 F8 FF  FF 7F F8 FF FF 7F 64 6C  se4..S........dl
0110: 30 32 00                                          02.             
```

#### Opcodes

```
  0: 0x00E2 [0x5B] LOAD_EXT_SCHEDULER: Load scheduler "dl02" with entities [EventEntity, EventEntity], work=521*
  1: 0x00F1 [0x1C] WAIT(60* ticks)
  2: 0x00F4 [0x45] LOAD_SCHEDULED_TASK: Load scheduler "zse4" with entities [EventEntity, EventEntity], work=[79*, 0*]
  3: 0x0105 [0x53] WAIT_SCHEDULER_TASK: Wait for scheduler "dl02" with entities [EventEntity, EventEntity]
  4: 0x0112 [0x00] END_REQSTACK()
```

### Event 65535.5

#### Metadata

| Field        | Value    |
|--------------|----------|
| Entrypoint   | 0x0113   |
| Data Size    | 29 bytes |
| Instructions | 3        |

```
      00 01 02 03 04 05 06 07  08 09 0A 0B 0C 0D 0E 0F
      -- -- -- -- -- -- -- --  -- -- -- -- -- -- -- --
0110:          5B 04 80 F8 FF  FF 7F F8 FF FF 7F 64 6C     [..........dl
0120: 30 33 53 F8 FF FF 7F F8  FF FF 7F 64 6C 30 33 00  03S........dl03.
```

#### Opcodes

```
  0: 0x0113 [0x5B] LOAD_EXT_SCHEDULER: Load scheduler "dl03" with entities [EventEntity, EventEntity], work=521*
  1: 0x0122 [0x53] WAIT_SCHEDULER_TASK: Wait for scheduler "dl03" with entities [EventEntity, EventEntity]
  2: 0x012F [0x00] END_REQSTACK()
```

### Event 65535.6

#### Metadata

| Field        | Value    |
|--------------|----------|
| Entrypoint   | 0x0130   |
| Data Size    | 32 bytes |
| Instructions | 4        |

```
      00 01 02 03 04 05 06 07  08 09 0A 0B 0C 0D 0E 0F
      -- -- -- -- -- -- -- --  -- -- -- -- -- -- -- --
0130: 5B 04 80 F8 FF FF 7F F8  FF FF 7F 64 6C 30 34 1C  [..........dl04.
0140: 08 80 53 F8 FF FF 7F F8  FF FF 7F 64 6C 30 34 00  ..S........dl04.
```

#### Opcodes

```
  0: 0x0130 [0x5B] LOAD_EXT_SCHEDULER: Load scheduler "dl04" with entities [EventEntity, EventEntity], work=521*
  1: 0x013F [0x1C] WAIT(120* ticks)
  2: 0x0142 [0x53] WAIT_SCHEDULER_TASK: Wait for scheduler "dl04" with entities [EventEntity, EventEntity]
  3: 0x014F [0x00] END_REQSTACK()
```

### Event 65535.7

#### Metadata

| Field        | Value    |
|--------------|----------|
| Entrypoint   | 0x0150   |
| Data Size    | 29 bytes |
| Instructions | 3        |

```
      00 01 02 03 04 05 06 07  08 09 0A 0B 0C 0D 0E 0F
      -- -- -- -- -- -- -- --  -- -- -- -- -- -- -- --
0150: 5B 04 80 F8 FF FF 7F F8  FF FF 7F 64 6C 30 35 53  [..........dl05S
0160: F8 FF FF 7F F8 FF FF 7F  64 6C 30 35 00           ........dl05.   
```

#### Opcodes

```
  0: 0x0150 [0x5B] LOAD_EXT_SCHEDULER: Load scheduler "dl05" with entities [EventEntity, EventEntity], work=521*
  1: 0x015F [0x53] WAIT_SCHEDULER_TASK: Wait for scheduler "dl05" with entities [EventEntity, EventEntity]
  2: 0x016C [0x00] END_REQSTACK()
```

### Event 65535.8

#### Metadata

| Field        | Value    |
|--------------|----------|
| Entrypoint   | 0x016D   |
| Data Size    | 29 bytes |
| Instructions | 3        |

```
      00 01 02 03 04 05 06 07  08 09 0A 0B 0C 0D 0E 0F
      -- -- -- -- -- -- -- --  -- -- -- -- -- -- -- --
0160:                                         5B 04 80               [..
0170: F8 FF FF 7F F8 FF FF 7F  64 6C 30 36 53 F8 FF FF  ........dl06S...
0180: 7F F8 FF FF 7F 64 6C 30  36 00                    .....dl06.      
```

#### Opcodes

```
  0: 0x016D [0x5B] LOAD_EXT_SCHEDULER: Load scheduler "dl06" with entities [EventEntity, EventEntity], work=521*
  1: 0x017C [0x53] WAIT_SCHEDULER_TASK: Wait for scheduler "dl06" with entities [EventEntity, EventEntity]
  2: 0x0189 [0x00] END_REQSTACK()
```

### Event 65535.9

#### Metadata

| Field        | Value    |
|--------------|----------|
| Entrypoint   | 0x018A   |
| Data Size    | 10 bytes |
| Instructions | 2        |

```
      00 01 02 03 04 05 06 07  08 09 0A 0B 0C 0D 0E 0F
      -- -- -- -- -- -- -- --  -- -- -- -- -- -- -- --
0180:                                37 09 80 0A 80 0B            7.....
0190: 80 0C 80 00                                       ....            
```

#### Opcodes

```
  0: 0x018A [0x37] UPDATE_EVENT_POSITION_AND_DIR: x=13.903*, z=58.557*, y=0.999*, direction=176.1°*
  1: 0x0193 [0x00] END_REQSTACK()
```

### Event 65535.10

#### Metadata

| Field        | Value    |
|--------------|----------|
| Entrypoint   | 0x0194   |
| Data Size    | 48 bytes |
| Instructions | 5        |

```
      00 01 02 03 04 05 06 07  08 09 0A 0B 0C 0D 0E 0F
      -- -- -- -- -- -- -- --  -- -- -- -- -- -- -- --
0190:             37 0D 80 0E  80 0F 80 10 80 79 00 F8      7........y..
01A0: FF FF 7F F0 FF FF 7F 5B  04 80 F8 FF FF 7F F8 FF  .......[........
01B0: FF 7F 64 6C 30 37 53 F8  FF FF 7F F8 FF FF 7F 64  ..dl07S........d
01C0: 6C 30 37 00                                       l07.            
```

#### Opcodes

```
  0: 0x0194 [0x37] UPDATE_EVENT_POSITION_AND_DIR: x=3.313*, z=41.936*, y=2.499*, direction=168.5°*
  1: 0x019D [0x79] EventEntity looks at LocalPlayer (Basic look)
  2: 0x01A7 [0x5B] LOAD_EXT_SCHEDULER: Load scheduler "dl07" with entities [EventEntity, EventEntity], work=521*
  3: 0x01B6 [0x53] WAIT_SCHEDULER_TASK: Wait for scheduler "dl07" with entities [EventEntity, EventEntity]
  4: 0x01C3 [0x00] END_REQSTACK()
```

### Event 65535.11

#### Metadata

| Field        | Value    |
|--------------|----------|
| Entrypoint   | 0x01C4   |
| Data Size    | 10 bytes |
| Instructions | 2        |

```
      00 01 02 03 04 05 06 07  08 09 0A 0B 0C 0D 0E 0F
      -- -- -- -- -- -- -- --  -- -- -- -- -- -- -- --
01C0:             37 11 80 12  80 13 80 14 80 00            7.........  
```

#### Opcodes

```
  0: 0x01C4 [0x37] UPDATE_EVENT_POSITION_AND_DIR: x=11.064*, z=45.219*, y=2.898*, direction=154.6°*
  1: 0x01CD [0x00] END_REQSTACK()
```

### Event 65535.12

#### Metadata

| Field        | Value    |
|--------------|----------|
| Entrypoint   | 0x01CE   |
| Data Size    | 30 bytes |
| Instructions | 8        |

```
      00 01 02 03 04 05 06 07  08 09 0A 0B 0C 0D 0E 0F
      -- -- -- -- -- -- -- --  -- -- -- -- -- -- -- --
01C0:                                            32 15                2.
01D0: 80 1F 00 16 80 17 80 18  80 1F 01 1F 00 0D 80 0E  ................
01E0: 80 0F 80 1F 01 6F 1E F0  FF FF 7F 00              .....o......    
```

#### Opcodes

```
  0: 0x01CE [0x32] ExtData[1]->MainSpeed = 40* * 0.1
  1: 0x01D1 [0x1F] MOVE_ENTITY: EventEntity moves to X=4.808*, Z=41.837*, Y=2.385*
  2: 0x01D9 [0x1F] MOVE_ENTITY: Update entity position (mode=1)
  3: 0x01DB [0x1F] MOVE_ENTITY: EventEntity moves to X=3.313*, Z=41.936*, Y=2.499*
  4: 0x01E3 [0x1F] MOVE_ENTITY: Update entity position (mode=1)
  5: 0x01E5 [0x6F] WAIT_FRAME_DELAY: Yield until WaitTime reaches zero
  6: 0x01E6 [0x1E] EventEntity looks at LocalPlayer and starts talking
  7: 0x01EB [0x00] END_REQSTACK()
```
