# 17510741 - NPC04

## Common Data

| Field            | Value                     |
|------------------|---------------------------|
| Zone             | Stellar Fulcrum (ID: 179) |
| Block Size       | 648 bytes                 |
| Total Events     | 17                        |
| References Count | 23                        |

## List of Events

| Event ID                   | Entrypoint   |   Size |   Instructions |
|----------------------------|--------------|--------|----------------|
| [65535](#event-65535)      | 0x0000       |      1 |              1 |
| [13](#event-13)            | 0x0001       |      7 |              2 |
| [65535.1](#event-655351)   | 0x0008       |     26 |              4 |
| [65535.2](#event-655352)   | 0x0022       |     26 |              4 |
| [65535.3](#event-655353)   | 0x003C       |     16 |              2 |
| [65535.4](#event-655354)   | 0x004C       |     24 |              3 |
| [65535.5](#event-655355)   | 0x0064       |     24 |              3 |
| [65535.6](#event-655356)   | 0x007C       |     16 |              2 |
| [65535.7](#event-655357)   | 0x008C       |     16 |              2 |
| [65535.8](#event-655358)   | 0x009C       |     16 |              2 |
| [65535.9](#event-655359)   | 0x00AC       |     24 |              3 |
| [65535.10](#event-6553510) | 0x00C4       |      7 |              3 |
| [65535.11](#event-6553511) | 0x00CB       |      7 |              3 |
| [65535.12](#event-6553512) | 0x00D2       |     24 |              3 |
| [65535.13](#event-6553513) | 0x00EA       |     16 |              2 |
| [65535.14](#event-6553514) | 0x00FA       |     37 |              5 |
| [65535.15](#event-6553515) | 0x011F       |    185 |             37 |

## DAT References (imed_data)

|   Index | Hex Value   |   Dec Value |
|---------|-------------|-------------|
|       0 | 0x0001      |           1 |
|       1 | 0x0005      |           5 |
|       2 | 0x0000      |           0 |
|       3 | 0x001B      |          27 |
|       4 | 0x000C      |          12 |
|       5 | 0x0018      |          24 |
|       6 | 0x0006      |           6 |
|       7 | 0x0013      |          19 |
|       8 | 0x0028      |          40 |
|       9 | 0x0003      |           3 |
|      10 | 0x0002      |           2 |
|      11 | 0x00FB      |         251 |
|      12 | 0x0019      |          25 |
|      13 | 0x0A3A      |        2618 |
|      14 | 0x0009      |           9 |
|      15 | 0x002B      |          43 |
|      16 | 0x0008      |           8 |
|      17 | 0x000A      |          10 |
|      18 | 0x001F      |          31 |
|      19 | 0x0A3D      |        2621 |
|      20 | 0x0046      |          70 |
|      21 | 0x008C      |         140 |
|      22 | 0x00D2      |         210 |

## Events

### Event 65535

#### Metadata

| Field        | Value   |
|--------------|---------|
| Entrypoint   | 0x0000  |
| Data Size    | 1 bytes |
| Instructions | 1       |

```
      00 01 02 03 04 05 06 07  08 09 0A 0B 0C 0D 0E 0F
      -- -- -- -- -- -- -- --  -- -- -- -- -- -- -- --
0000: 00                                                .               
```

#### Opcodes

```
  0: 0x0000 [0x00] END_REQSTACK()
```

### Event 13

#### Metadata

| Field        | Value   |
|--------------|---------|
| Entrypoint   | 0x0001  |
| Data Size    | 7 bytes |
| Instructions | 2       |

```
      00 01 02 03 04 05 06 07  08 09 0A 0B 0C 0D 0E 0F
      -- -- -- -- -- -- -- --  -- -- -- -- -- -- -- --
0000:    92 01 F8 FF FF 7F 00                            .......        
```

#### Opcodes

```
  0: 0x0001 [0x92] EventEntity->Render.Flags3 ^= 0x01
  1: 0x0007 [0x00] END_REQSTACK()
```

### Event 65535.1

#### Metadata

| Field        | Value    |
|--------------|----------|
| Entrypoint   | 0x0008   |
| Data Size    | 26 bytes |
| Instructions | 4        |

```
      00 01 02 03 04 05 06 07  08 09 0A 0B 0C 0D 0E 0F
      -- -- -- -- -- -- -- --  -- -- -- -- -- -- -- --
0000:                          22 00 B6 0B 00 80 01 80          ".......
0010: 02 80 03 80 02 80 04 80  05 80 02 80 02 80 C0 00  ................
0020: 80 00                                             ..              
```

#### Opcodes

```
  0: 0x0008 [0x22] ENTITY_HIDE_FLAG(enabled=0x00)
  1: 0x000A [0xB6] ENTITY_APPEARANCE_HANDLER(case=Full entity look, race=1*, hair=5*, head=0*, body=27*, hands=0*, legs=12*, feet=24*, main=0*, sub=0*)
  2: 0x001E [0xC0] EventEntity->Render.Flags3 |= 0x1000 // Set bit 12 (from 1*)
  3: 0x0021 [0x00] END_REQSTACK()
```

### Event 65535.2

#### Metadata

| Field        | Value    |
|--------------|----------|
| Entrypoint   | 0x0022   |
| Data Size    | 26 bytes |
| Instructions | 4        |

```
      00 01 02 03 04 05 06 07  08 09 0A 0B 0C 0D 0E 0F
      -- -- -- -- -- -- -- --  -- -- -- -- -- -- -- --
0020:       22 00 B6 0B 06 80  06 80 02 80 07 80 07 80    ".............
0030: 07 80 07 80 02 80 02 80  C0 00 80 00              ............    
```

#### Opcodes

```
  0: 0x0022 [0x22] ENTITY_HIDE_FLAG(enabled=0x00)
  1: 0x0024 [0xB6] ENTITY_APPEARANCE_HANDLER(case=Full entity look, race=6*, hair=6*, head=0*, body=19*, hands=19*, legs=19*, feet=19*, main=0*, sub=0*)
  2: 0x0038 [0xC0] EventEntity->Render.Flags3 |= 0x1000 // Set bit 12 (from 1*)
  3: 0x003B [0x00] END_REQSTACK()
```

### Event 65535.3

#### Metadata

| Field        | Value    |
|--------------|----------|
| Entrypoint   | 0x003C   |
| Data Size    | 16 bytes |
| Instructions | 2        |

```
      00 01 02 03 04 05 06 07  08 09 0A 0B 0C 0D 0E 0F
      -- -- -- -- -- -- -- --  -- -- -- -- -- -- -- --
0030:                                      66 08 80 F8              f...
0040: FF FF 7F F8 FF FF 7F 74  68 6B 31 00              .......thk1.    
```

#### Opcodes

```
  0: 0x003C [0x66] LOAD_EXT_SCHEDULER_MAIN: Load scheduler "thk1" with entities [EventEntity, EventEntity], work=40*
  1: 0x004B [0x00] END_REQSTACK()
```

### Event 65535.4

#### Metadata

| Field        | Value    |
|--------------|----------|
| Entrypoint   | 0x004C   |
| Data Size    | 24 bytes |
| Instructions | 3        |

```
      00 01 02 03 04 05 06 07  08 09 0A 0B 0C 0D 0E 0F
      -- -- -- -- -- -- -- --  -- -- -- -- -- -- -- --
0040:                                      B6 0B 09 80              ....
0050: 0A 80 04 80 04 80 04 80  04 80 04 80 0B 80 0C 80  ................
0060: C0 00 80 00                                       ....            
```

#### Opcodes

```
  0: 0x004C [0xB6] ENTITY_APPEARANCE_HANDLER(case=Full entity look, race=3*, hair=2*, head=12*, body=12*, hands=12*, legs=12*, feet=12*, main=251*, sub=25*)
  1: 0x0060 [0xC0] EventEntity->Render.Flags3 |= 0x1000 // Set bit 12 (from 1*)
  2: 0x0063 [0x00] END_REQSTACK()
```

### Event 65535.5

#### Metadata

| Field        | Value    |
|--------------|----------|
| Entrypoint   | 0x0064   |
| Data Size    | 24 bytes |
| Instructions | 3        |

```
      00 01 02 03 04 05 06 07  08 09 0A 0B 0C 0D 0E 0F
      -- -- -- -- -- -- -- --  -- -- -- -- -- -- -- --
0060:             B6 0B 02 80  02 80 02 80 02 80 02 80      ............
0070: 02 80 02 80 02 80 02 80  C0 00 80 00              ............    
```

#### Opcodes

```
  0: 0x0064 [0xB6] ENTITY_APPEARANCE_HANDLER(case=Full entity look, race=0*, hair=0*, head=0*, body=0*, hands=0*, legs=0*, feet=0*, main=0*, sub=0*)
  1: 0x0078 [0xC0] EventEntity->Render.Flags3 |= 0x1000 // Set bit 12 (from 1*)
  2: 0x007B [0x00] END_REQSTACK()
```

### Event 65535.6

#### Metadata

| Field        | Value    |
|--------------|----------|
| Entrypoint   | 0x007C   |
| Data Size    | 16 bytes |
| Instructions | 2        |

```
      00 01 02 03 04 05 06 07  08 09 0A 0B 0C 0D 0E 0F
      -- -- -- -- -- -- -- --  -- -- -- -- -- -- -- --
0070:                                      5B 0D 80 F8              [...
0080: FF FF 7F F8 FF FF 7F 65  64 30 6C 00              .......ed0l.    
```

#### Opcodes

```
  0: 0x007C [0x5B] LOAD_EXT_SCHEDULER: Load scheduler "ed0l" with entities [EventEntity, EventEntity], work=2618*
  1: 0x008B [0x00] END_REQSTACK()
```

### Event 65535.7

#### Metadata

| Field        | Value    |
|--------------|----------|
| Entrypoint   | 0x008C   |
| Data Size    | 16 bytes |
| Instructions | 2        |

```
      00 01 02 03 04 05 06 07  08 09 0A 0B 0C 0D 0E 0F
      -- -- -- -- -- -- -- --  -- -- -- -- -- -- -- --
0080:                                      5B 0D 80 F8              [...
0090: FF FF 7F F8 FF FF 7F 65  64 30 30 00              .......ed00.    
```

#### Opcodes

```
  0: 0x008C [0x5B] LOAD_EXT_SCHEDULER: Load scheduler "ed00" with entities [EventEntity, EventEntity], work=2618*
  1: 0x009B [0x00] END_REQSTACK()
```

### Event 65535.8

#### Metadata

| Field        | Value    |
|--------------|----------|
| Entrypoint   | 0x009C   |
| Data Size    | 16 bytes |
| Instructions | 2        |

```
      00 01 02 03 04 05 06 07  08 09 0A 0B 0C 0D 0E 0F
      -- -- -- -- -- -- -- --  -- -- -- -- -- -- -- --
0090:                                      5B 0D 80 F8              [...
00A0: FF FF 7F F8 FF FF 7F 65  64 30 31 00              .......ed01.    
```

#### Opcodes

```
  0: 0x009C [0x5B] LOAD_EXT_SCHEDULER: Load scheduler "ed01" with entities [EventEntity, EventEntity], work=2618*
  1: 0x00AB [0x00] END_REQSTACK()
```

### Event 65535.9

#### Metadata

| Field        | Value    |
|--------------|----------|
| Entrypoint   | 0x00AC   |
| Data Size    | 24 bytes |
| Instructions | 3        |

```
      00 01 02 03 04 05 06 07  08 09 0A 0B 0C 0D 0E 0F
      -- -- -- -- -- -- -- --  -- -- -- -- -- -- -- --
00A0:                                      B6 0B 09 80              ....
00B0: 0E 80 02 80 06 80 06 80  06 80 06 80 02 80 02 80  ................
00C0: C0 00 80 00                                       ....            
```

#### Opcodes

```
  0: 0x00AC [0xB6] ENTITY_APPEARANCE_HANDLER(case=Full entity look, race=3*, hair=9*, head=0*, body=6*, hands=6*, legs=6*, feet=6*, main=0*, sub=0*)
  1: 0x00C0 [0xC0] EventEntity->Render.Flags3 |= 0x1000 // Set bit 12 (from 1*)
  2: 0x00C3 [0x00] END_REQSTACK()
```

### Event 65535.10

#### Metadata

| Field        | Value   |
|--------------|---------|
| Entrypoint   | 0x00C4  |
| Data Size    | 7 bytes |
| Instructions | 3       |

```
      00 01 02 03 04 05 06 07  08 09 0A 0B 0C 0D 0E 0F
      -- -- -- -- -- -- -- --  -- -- -- -- -- -- -- --
00C0:             AB 03 AC 01  06 80 00                     .......     
```

#### Opcodes

```
  0: 0x00C4 [0xAB] EventEntity->Render.Flags0 ^= 0x20000 // Toggle bit 17
  1: 0x00C6 [0xAC] EventEntity->StatusEvent = 6*
  2: 0x00CA [0x00] END_REQSTACK()
```

### Event 65535.11

#### Metadata

| Field        | Value   |
|--------------|---------|
| Entrypoint   | 0x00CB  |
| Data Size    | 7 bytes |
| Instructions | 3       |

```
      00 01 02 03 04 05 06 07  08 09 0A 0B 0C 0D 0E 0F
      -- -- -- -- -- -- -- --  -- -- -- -- -- -- -- --
00C0:                                   AC 01 0F 80 AB             .....
00D0: 04 00                                             ..              
```

#### Opcodes

```
  0: 0x00CB [0xAC] EventEntity->StatusEvent = 43*
  1: 0x00CF [0xAB] EventEntity->Render.Flags0 |= 0x40000 // Set bit 18
  2: 0x00D1 [0x00] END_REQSTACK()
```

### Event 65535.12

#### Metadata

| Field        | Value    |
|--------------|----------|
| Entrypoint   | 0x00D2   |
| Data Size    | 24 bytes |
| Instructions | 3        |

```
      00 01 02 03 04 05 06 07  08 09 0A 0B 0C 0D 0E 0F
      -- -- -- -- -- -- -- --  -- -- -- -- -- -- -- --
00D0:       B6 0B 10 80 11 80  02 80 12 80 12 80 12 80    ..............
00E0: 12 80 02 80 02 80 C0 00  80 00                    ..........      
```

#### Opcodes

```
  0: 0x00D2 [0xB6] ENTITY_APPEARANCE_HANDLER(case=Full entity look, race=8*, hair=10*, head=0*, body=31*, hands=31*, legs=31*, feet=31*, main=0*, sub=0*)
  1: 0x00E6 [0xC0] EventEntity->Render.Flags3 |= 0x1000 // Set bit 12 (from 1*)
  2: 0x00E9 [0x00] END_REQSTACK()
```

### Event 65535.13

#### Metadata

| Field        | Value    |
|--------------|----------|
| Entrypoint   | 0x00EA   |
| Data Size    | 16 bytes |
| Instructions | 2        |

```
      00 01 02 03 04 05 06 07  08 09 0A 0B 0C 0D 0E 0F
      -- -- -- -- -- -- -- --  -- -- -- -- -- -- -- --
00E0:                                5B 13 80 F8 FF FF            [.....
00F0: 7F F8 FF FF 7F 65 64 30  30 00                    .....ed00.      
```

#### Opcodes

```
  0: 0x00EA [0x5B] LOAD_EXT_SCHEDULER: Load scheduler "ed00" with entities [EventEntity, EventEntity], work=2621*
  1: 0x00F9 [0x00] END_REQSTACK()
```

### Event 65535.14

#### Metadata

| Field        | Value    |
|--------------|----------|
| Entrypoint   | 0x00FA   |
| Data Size    | 37 bytes |
| Instructions | 5        |

```
      00 01 02 03 04 05 06 07  08 09 0A 0B 0C 0D 0E 0F
      -- -- -- -- -- -- -- --  -- -- -- -- -- -- -- --
00F0:                                03 00 00 07 7F 1A            ......
0100: 44 01 66 01 00 F8 FF FF  7F F8 FF FF 7F 73 69 74  D.f..........sit
0110: 30 53 F8 FF FF 7F F8 FF  FF 7F 73 69 74 30 00     0S........sit0. 
```

#### Opcodes

```
  0: 0x00FA [0x03] ExtData[1]->WorkLocal[0] = Entity->Race
  1: 0x00FF [0x1A] CALL_SUBROUTINE(address=0x0144)
  2: 0x0102 [0x66] LOAD_EXT_SCHEDULER_MAIN: Load scheduler "sit0" with entities [EventEntity, EventEntity], work=ExtData[1]->WorkLocal[1]
  3: 0x0111 [0x53] WAIT_SCHEDULER_TASK: Wait for scheduler "sit0" with entities [EventEntity, EventEntity]
  4: 0x011E [0x00] END_REQSTACK()
```

### Event 65535.15

#### Metadata

| Field        | Value     |
|--------------|-----------|
| Entrypoint   | 0x011F    |
| Data Size    | 185 bytes |
| Instructions | 13        |

```
      00 01 02 03 04 05 06 07  08 09 0A 0B 0C 0D 0E 0F
      -- -- -- -- -- -- -- --  -- -- -- -- -- -- -- --
0110:                                               03                 .
0120: 00 00 07 7F 1A 44 01 66  01 00 F8 FF FF 7F F8 FF  .....D.f........
0130: FF 7F 73 69 74 31 53 F8  FF FF 7F F8 FF FF 7F 73  ..sit1S........s
0140: 69 74 31 00 03 01 00 00  00 02 01 00 01 80 05 59  it1............Y
0150: 01 08 01 00 00 80 01 5E  01 08 01 00 0A 80 14 01  .......^........
0160: 00 11 80 07 01 00 0E 80  1B 03 01 00 00 00 02 01  ................
0170: 00 01 80 05 7E 01 08 01  00 00 80 01 83 01 08 01  ....~...........
0180: 00 0A 80 14 01 00 11 80  07 01 00 14 80 1B 03 01  ................
0190: 00 00 00 02 01 00 01 80  05 A3 01 08 01 00 00 80  ................
01A0: 01 A8 01 08 01 00 0A 80  14 01 00 11 80 07 01 00  ................
01B0: 15 80 1B 03 01 00 00 00  02 01 00 01 80 05 C8 01  ................
01C0: 08 01 00 00 80 01 CD 01  08 01 00 0A 80 14 01 00  ................
01D0: 11 80 07 01 00 16 80 1B                           ........        
```

#### Opcodes

```
  0: 0x011F [0x03] ExtData[1]->WorkLocal[0] = Entity->Race
  1: 0x0124 [0x1A] CALL_SUBROUTINE(address=0x0144)
  2: 0x0127 [0x66] LOAD_EXT_SCHEDULER_MAIN: Load scheduler "sit1" with entities [EventEntity, EventEntity], work=ExtData[1]->WorkLocal[1]
  3: 0x0136 [0x53] WAIT_SCHEDULER_TASK: Wait for scheduler "sit1" with entities [EventEntity, EventEntity]
  4: 0x0143 [0x00] END_REQSTACK()

SUBROUTINE_0144:
  5: 0x0144 [0x03] ExtData[1]->WorkLocal[1] = ExtData[1]->WorkLocal[0]
  6: 0x0149 [0x02] IF !(ExtData[1]->WorkLocal[1] > 5*) GOTO 0x0159
  7: 0x0151 [0x08] ExtData[1]->WorkLocal[1] -= 1*
  8: 0x0156 [0x01] GOTO 0x015E
  9: 0x0159 [0x08] ExtData[1]->WorkLocal[1] -= 2*

SUBROUTINE_015E:
 10: 0x015E [0x14] ExtData[1]->WorkLocal[1] *= 10*
 11: 0x0163 [0x07] ExtData[1]->WorkLocal[1] += 9*
 12: 0x0168 [0x1B] RETURN
```

#### Data or dead code:

```
# Dead code (unreachable instructions):
     0x0169 [0x03] ExtData[1]->WorkLocal[1] = ExtData[1]->WorkLocal[0]
     0x016E [0x02] IF !(ExtData[1]->WorkLocal[1] > 5*) GOTO 0x017E
     0x0176 [0x08] ExtData[1]->WorkLocal[1] -= 1*
     0x017B [0x01] GOTO 0x0183
     0x017E [0x08] ExtData[1]->WorkLocal[1] -= 2*
     0x0183 [0x14] ExtData[1]->WorkLocal[1] *= 10*
     0x0188 [0x07] ExtData[1]->WorkLocal[1] += 70*
     0x018D [0x1B] RETURN
     0x018E [0x03] ExtData[1]->WorkLocal[1] = ExtData[1]->WorkLocal[0]
     0x0193 [0x02] IF !(ExtData[1]->WorkLocal[1] > 5*) GOTO 0x01A3
     0x019B [0x08] ExtData[1]->WorkLocal[1] -= 1*
     0x01A0 [0x01] GOTO 0x01A8
     0x01A3 [0x08] ExtData[1]->WorkLocal[1] -= 2*
     0x01A8 [0x14] ExtData[1]->WorkLocal[1] *= 10*
     0x01AD [0x07] ExtData[1]->WorkLocal[1] += 140*
     0x01B2 [0x1B] RETURN
     0x01B3 [0x03] ExtData[1]->WorkLocal[1] = ExtData[1]->WorkLocal[0]
     0x01B8 [0x02] IF !(ExtData[1]->WorkLocal[1] > 5*) GOTO 0x01C8
     0x01C0 [0x08] ExtData[1]->WorkLocal[1] -= 1*
     0x01C5 [0x01] GOTO 0x01CD
     0x01C8 [0x08] ExtData[1]->WorkLocal[1] -= 2*
     0x01CD [0x14] ExtData[1]->WorkLocal[1] *= 10*
     0x01D2 [0x07] ExtData[1]->WorkLocal[1] += 210*
     0x01D7 [0x1B] RETURN
```
