# 17510745 - Jyujin03

## Common Data

| Field            | Value                     |
|------------------|---------------------------|
| Zone             | Stellar Fulcrum (ID: 179) |
| Block Size       | 456 bytes                 |
| Total Events     | 22                        |
| References Count | 16                        |

## List of Events

| Event ID                   | Entrypoint   |   Size |   Instructions |
|----------------------------|--------------|--------|----------------|
| [65535](#event-65535)      | 0x0000       |      1 |              1 |
| [13](#event-13)            | 0x0001       |      7 |              2 |
| [65535.1](#event-655351)   | 0x0008       |      7 |              2 |
| [65535.2](#event-655352)   | 0x000F       |      8 |              3 |
| [65535.3](#event-655353)   | 0x0017       |      8 |              3 |
| [65535.4](#event-655354)   | 0x001F       |      8 |              3 |
| [65535.5](#event-655355)   | 0x0027       |      8 |              3 |
| [65535.6](#event-655356)   | 0x002F       |     15 |              5 |
| [65535.7](#event-655357)   | 0x003E       |      8 |              3 |
| [65535.8](#event-655358)   | 0x0046       |     12 |              4 |
| [65535.9](#event-655359)   | 0x0052       |     16 |              2 |
| [65535.10](#event-6553510) | 0x0062       |     18 |              2 |
| [65535.11](#event-6553511) | 0x0074       |     18 |              2 |
| [65535.12](#event-6553512) | 0x0086       |     18 |              2 |
| [65535.13](#event-6553513) | 0x0098       |     18 |              2 |
| [65535.14](#event-6553514) | 0x00AA       |     18 |              2 |
| [65535.15](#event-6553515) | 0x00BC       |     18 |              2 |
| [65535.16](#event-6553516) | 0x00CE       |     18 |              2 |
| [65535.17](#event-6553517) | 0x00E0       |     18 |              2 |
| [65535.18](#event-6553518) | 0x00F2       |     18 |              2 |
| [65535.19](#event-6553519) | 0x0104       |     18 |              2 |
| [65535.20](#event-6553520) | 0x0116       |      8 |              3 |

## DAT References (imed_data)

|   Index | Hex Value   |   Dec Value |
|---------|-------------|-------------|
|       0 | 0x01F9      |         505 |
|       1 | 0x0001      |           1 |
|       2 | 0x0266      |         614 |
|       3 | 0x027F      |         639 |
|       4 | 0x0295      |         661 |
|       5 | 0x0028      |          40 |
|       6 | 0x287A9     |      165801 |
|       7 | 0x3D0E5     |      250085 |
|       8 | 0xFFFFFEB0  |  4294966960 |
|       9 | 0x0257      |         599 |
|      10 | 0x00A6      |         166 |
|      11 | 0x004B      |          75 |
|      12 | 0x0A47      |        2631 |
|      13 | 0x005B      |          91 |
|      14 | 0x0000      |           0 |
|      15 | 0x0351      |         849 |

## Events

### Event 65535

#### Metadata

| Field        | Value   |
|--------------|---------|
| Entrypoint   | 0x0000  |
| Data Size    | 1 bytes |
| Instructions | 1       |

```
      00 01 02 03 04 05 06 07  08 09 0A 0B 0C 0D 0E 0F
      -- -- -- -- -- -- -- --  -- -- -- -- -- -- -- --
0000: 00                                                .               
```

#### Opcodes

```
  0: 0x0000 [0x00] END_REQSTACK()
```

### Event 13

#### Metadata

| Field        | Value   |
|--------------|---------|
| Entrypoint   | 0x0001  |
| Data Size    | 7 bytes |
| Instructions | 2       |

```
      00 01 02 03 04 05 06 07  08 09 0A 0B 0C 0D 0E 0F
      -- -- -- -- -- -- -- --  -- -- -- -- -- -- -- --
0000:    92 01 F8 FF FF 7F 00                            .......        
```

#### Opcodes

```
  0: 0x0001 [0x92] EventEntity->Render.Flags3 ^= 0x01
  1: 0x0007 [0x00] END_REQSTACK()
```

### Event 65535.1

#### Metadata

| Field        | Value   |
|--------------|---------|
| Entrypoint   | 0x0008  |
| Data Size    | 7 bytes |
| Instructions | 2       |

```
      00 01 02 03 04 05 06 07  08 09 0A 0B 0C 0D 0E 0F
      -- -- -- -- -- -- -- --  -- -- -- -- -- -- -- --
0000:                          4E 00 59 31 0B 01 00             N.Y1... 
```

#### Opcodes

```
  0: 0x0008 [0x4E] SET_ENTITY_HIDE_FLAG: Show Jyujin03 (ID: 17510745/0x010B3159)
  1: 0x000E [0x00] END_REQSTACK()
```

### Event 65535.2

#### Metadata

| Field        | Value   |
|--------------|---------|
| Entrypoint   | 0x000F  |
| Data Size    | 8 bytes |
| Instructions | 3       |

```
      00 01 02 03 04 05 06 07  08 09 0A 0B 0C 0D 0E 0F
      -- -- -- -- -- -- -- --  -- -- -- -- -- -- -- --
0000:                                               B6                 .
0010: 00 00 80 C0 01 80 00                              .......         
```

#### Opcodes

```
  0: 0x000F [0xB6] ENTITY_APPEARANCE_HANDLER(case=Hair style, value=505*)
  1: 0x0013 [0xC0] EventEntity->Render.Flags3 |= 0x1000 // Set bit 12 (from 1*)
  2: 0x0016 [0x00] END_REQSTACK()
```

### Event 65535.3

#### Metadata

| Field        | Value   |
|--------------|---------|
| Entrypoint   | 0x0017  |
| Data Size    | 8 bytes |
| Instructions | 3       |

```
      00 01 02 03 04 05 06 07  08 09 0A 0B 0C 0D 0E 0F
      -- -- -- -- -- -- -- --  -- -- -- -- -- -- -- --
0010:                      B6  00 02 80 C0 01 80 00            ........ 
```

#### Opcodes

```
  0: 0x0017 [0xB6] ENTITY_APPEARANCE_HANDLER(case=Hair style, value=614*)
  1: 0x001B [0xC0] EventEntity->Render.Flags3 |= 0x1000 // Set bit 12 (from 1*)
  2: 0x001E [0x00] END_REQSTACK()
```

### Event 65535.4

#### Metadata

| Field        | Value   |
|--------------|---------|
| Entrypoint   | 0x001F  |
| Data Size    | 8 bytes |
| Instructions | 3       |

```
      00 01 02 03 04 05 06 07  08 09 0A 0B 0C 0D 0E 0F
      -- -- -- -- -- -- -- --  -- -- -- -- -- -- -- --
0010:                                               B6                 .
0020: 00 03 80 C0 01 80 00                              .......         
```

#### Opcodes

```
  0: 0x001F [0xB6] ENTITY_APPEARANCE_HANDLER(case=Hair style, value=639*)
  1: 0x0023 [0xC0] EventEntity->Render.Flags3 |= 0x1000 // Set bit 12 (from 1*)
  2: 0x0026 [0x00] END_REQSTACK()
```

### Event 65535.5

#### Metadata

| Field        | Value   |
|--------------|---------|
| Entrypoint   | 0x0027  |
| Data Size    | 8 bytes |
| Instructions | 3       |

```
      00 01 02 03 04 05 06 07  08 09 0A 0B 0C 0D 0E 0F
      -- -- -- -- -- -- -- --  -- -- -- -- -- -- -- --
0020:                      B6  00 04 80 C0 01 80 00            ........ 
```

#### Opcodes

```
  0: 0x0027 [0xB6] ENTITY_APPEARANCE_HANDLER(case=Hair style, value=661*)
  1: 0x002B [0xC0] EventEntity->Render.Flags3 |= 0x1000 // Set bit 12 (from 1*)
  2: 0x002E [0x00] END_REQSTACK()
```

### Event 65535.6

#### Metadata

| Field        | Value    |
|--------------|----------|
| Entrypoint   | 0x002F   |
| Data Size    | 15 bytes |
| Instructions | 5        |

```
      00 01 02 03 04 05 06 07  08 09 0A 0B 0C 0D 0E 0F
      -- -- -- -- -- -- -- --  -- -- -- -- -- -- -- --
0020:                                               32                 2
0030: 05 80 1F 00 06 80 07 80  08 80 1F 01 6F 00        ............o.  
```

#### Opcodes

```
  0: 0x002F [0x32] ExtData[1]->MainSpeed = 40* * 0.1
  1: 0x0032 [0x1F] MOVE_ENTITY: EventEntity moves to X=165.801*, Z=250.085*, Y=-0.336*
  2: 0x003A [0x1F] MOVE_ENTITY: Update entity position (mode=1)
  3: 0x003C [0x6F] WAIT_FRAME_DELAY: Yield until WaitTime reaches zero
  4: 0x003D [0x00] END_REQSTACK()
```

### Event 65535.7

#### Metadata

| Field        | Value   |
|--------------|---------|
| Entrypoint   | 0x003E  |
| Data Size    | 8 bytes |
| Instructions | 3       |

```
      00 01 02 03 04 05 06 07  08 09 0A 0B 0C 0D 0E 0F
      -- -- -- -- -- -- -- --  -- -- -- -- -- -- -- --
0030:                                            B6 00                ..
0040: 09 80 C0 01 80 00                                 ......          
```

#### Opcodes

```
  0: 0x003E [0xB6] ENTITY_APPEARANCE_HANDLER(case=Hair style, value=599*)
  1: 0x0042 [0xC0] EventEntity->Render.Flags3 |= 0x1000 // Set bit 12 (from 1*)
  2: 0x0045 [0x00] END_REQSTACK()
```

### Event 65535.8

#### Metadata

| Field        | Value    |
|--------------|----------|
| Entrypoint   | 0x0046   |
| Data Size    | 12 bytes |
| Instructions | 4        |

```
      00 01 02 03 04 05 06 07  08 09 0A 0B 0C 0D 0E 0F
      -- -- -- -- -- -- -- --  -- -- -- -- -- -- -- --
0040:                   B6 00  0A 80 B6 0F 0B 80 C0 01        ..........
0050: 80 00                                             ..              
```

#### Opcodes

```
  0: 0x0046 [0xB6] ENTITY_APPEARANCE_HANDLER(case=Hair style, value=166*)
  1: 0x004A [0xB6] ENTITY_APPEARANCE_HANDLER(case=Model size, value=75*)
  2: 0x004E [0xC0] EventEntity->Render.Flags3 |= 0x1000 // Set bit 12 (from 1*)
  3: 0x0051 [0x00] END_REQSTACK()
```

### Event 65535.9

#### Metadata

| Field        | Value    |
|--------------|----------|
| Entrypoint   | 0x0052   |
| Data Size    | 16 bytes |
| Instructions | 2        |

```
      00 01 02 03 04 05 06 07  08 09 0A 0B 0C 0D 0E 0F
      -- -- -- -- -- -- -- --  -- -- -- -- -- -- -- --
0050:       5B 0C 80 59 31 0B  01 59 31 0B 01 65 64 6D    [..Y1..Y1..edm
0060: 30 00                                             0.              
```

#### Opcodes

```
  0: 0x0052 [0x5B] LOAD_EXT_SCHEDULER: Load scheduler "edm0" with entities [Jyujin03 (ID: 17510745/0x010B3159), Jyujin03 (ID: 17510745/0x010B3159)], work=2631*
  1: 0x0061 [0x00] END_REQSTACK()
```

### Event 65535.10

#### Metadata

| Field        | Value    |
|--------------|----------|
| Entrypoint   | 0x0062   |
| Data Size    | 18 bytes |
| Instructions | 2        |

```
      00 01 02 03 04 05 06 07  08 09 0A 0B 0C 0D 0E 0F
      -- -- -- -- -- -- -- --  -- -- -- -- -- -- -- --
0060:       C5 0D 80 59 31 0B  01 59 31 0B 01 73 30 30    ...Y1..Y1..s00
0070: 30 0E 80 00                                       0...            
```

#### Opcodes

```
  0: 0x0062 [0xC5] LOAD_SCHEDULED_TASK_ALT3: Load scheduler 0x800E3030 for entities [Jyujin03 (ID: 17510745/0x010B3159), Jyujin03 (ID: 17510745/0x010B3159)], work=91*, param=12403
  1: 0x0073 [0x00] END_REQSTACK()
```

### Event 65535.11

#### Metadata

| Field        | Value    |
|--------------|----------|
| Entrypoint   | 0x0074   |
| Data Size    | 18 bytes |
| Instructions | 2        |

```
      00 01 02 03 04 05 06 07  08 09 0A 0B 0C 0D 0E 0F
      -- -- -- -- -- -- -- --  -- -- -- -- -- -- -- --
0070:             C5 0D 80 59  31 0B 01 59 31 0B 01 73      ...Y1..Y1..s
0080: 30 30 31 0E 80 00                                 001...          
```

#### Opcodes

```
  0: 0x0074 [0xC5] LOAD_SCHEDULED_TASK_ALT3: Load scheduler 0x800E3130 for entities [Jyujin03 (ID: 17510745/0x010B3159), Jyujin03 (ID: 17510745/0x010B3159)], work=91*, param=12403
  1: 0x0085 [0x00] END_REQSTACK()
```

### Event 65535.12

#### Metadata

| Field        | Value    |
|--------------|----------|
| Entrypoint   | 0x0086   |
| Data Size    | 18 bytes |
| Instructions | 2        |

```
      00 01 02 03 04 05 06 07  08 09 0A 0B 0C 0D 0E 0F
      -- -- -- -- -- -- -- --  -- -- -- -- -- -- -- --
0080:                   C5 0D  80 59 31 0B 01 59 31 0B        ...Y1..Y1.
0090: 01 73 30 30 32 0E 80 00                           .s002...        
```

#### Opcodes

```
  0: 0x0086 [0xC5] LOAD_SCHEDULED_TASK_ALT3: Load scheduler 0x800E3230 for entities [Jyujin03 (ID: 17510745/0x010B3159), Jyujin03 (ID: 17510745/0x010B3159)], work=91*, param=12403
  1: 0x0097 [0x00] END_REQSTACK()
```

### Event 65535.13

#### Metadata

| Field        | Value    |
|--------------|----------|
| Entrypoint   | 0x0098   |
| Data Size    | 18 bytes |
| Instructions | 2        |

```
      00 01 02 03 04 05 06 07  08 09 0A 0B 0C 0D 0E 0F
      -- -- -- -- -- -- -- --  -- -- -- -- -- -- -- --
0090:                          C5 0D 80 59 31 0B 01 59          ...Y1..Y
00A0: 31 0B 01 73 30 30 33 0E  80 00                    1..s003...      
```

#### Opcodes

```
  0: 0x0098 [0xC5] LOAD_SCHEDULED_TASK_ALT3: Load scheduler 0x800E3330 for entities [Jyujin03 (ID: 17510745/0x010B3159), Jyujin03 (ID: 17510745/0x010B3159)], work=91*, param=12403
  1: 0x00A9 [0x00] END_REQSTACK()
```

### Event 65535.14

#### Metadata

| Field        | Value    |
|--------------|----------|
| Entrypoint   | 0x00AA   |
| Data Size    | 18 bytes |
| Instructions | 2        |

```
      00 01 02 03 04 05 06 07  08 09 0A 0B 0C 0D 0E 0F
      -- -- -- -- -- -- -- --  -- -- -- -- -- -- -- --
00A0:                                C5 0D 80 59 31 0B            ...Y1.
00B0: 01 59 31 0B 01 73 74 70  30 0E 80 00              .Y1..stp0...    
```

#### Opcodes

```
  0: 0x00AA [0xC5] LOAD_SCHEDULED_TASK_ALT3: Load scheduler 0x800E3070 for entities [Jyujin03 (ID: 17510745/0x010B3159), Jyujin03 (ID: 17510745/0x010B3159)], work=91*, param=29811
  1: 0x00BB [0x00] END_REQSTACK()
```

### Event 65535.15

#### Metadata

| Field        | Value    |
|--------------|----------|
| Entrypoint   | 0x00BC   |
| Data Size    | 18 bytes |
| Instructions | 2        |

```
      00 01 02 03 04 05 06 07  08 09 0A 0B 0C 0D 0E 0F
      -- -- -- -- -- -- -- --  -- -- -- -- -- -- -- --
00B0:                                      C5 0D 80 59              ...Y
00C0: 31 0B 01 59 31 0B 01 73  74 70 32 0E 80 00        1..Y1..stp2...  
```

#### Opcodes

```
  0: 0x00BC [0xC5] LOAD_SCHEDULED_TASK_ALT3: Load scheduler 0x800E3270 for entities [Jyujin03 (ID: 17510745/0x010B3159), Jyujin03 (ID: 17510745/0x010B3159)], work=91*, param=29811
  1: 0x00CD [0x00] END_REQSTACK()
```

### Event 65535.16

#### Metadata

| Field        | Value    |
|--------------|----------|
| Entrypoint   | 0x00CE   |
| Data Size    | 18 bytes |
| Instructions | 2        |

```
      00 01 02 03 04 05 06 07  08 09 0A 0B 0C 0D 0E 0F
      -- -- -- -- -- -- -- --  -- -- -- -- -- -- -- --
00C0:                                            C5 0D                ..
00D0: 80 59 31 0B 01 59 31 0B  01 73 74 70 33 0E 80 00  .Y1..Y1..stp3...
```

#### Opcodes

```
  0: 0x00CE [0xC5] LOAD_SCHEDULED_TASK_ALT3: Load scheduler 0x800E3370 for entities [Jyujin03 (ID: 17510745/0x010B3159), Jyujin03 (ID: 17510745/0x010B3159)], work=91*, param=29811
  1: 0x00DF [0x00] END_REQSTACK()
```

### Event 65535.17

#### Metadata

| Field        | Value    |
|--------------|----------|
| Entrypoint   | 0x00E0   |
| Data Size    | 18 bytes |
| Instructions | 2        |

```
      00 01 02 03 04 05 06 07  08 09 0A 0B 0C 0D 0E 0F
      -- -- -- -- -- -- -- --  -- -- -- -- -- -- -- --
00E0: C5 0D 80 59 31 0B 01 59  31 0B 01 6B 69 6C 30 0E  ...Y1..Y1..kil0.
00F0: 80 00                                             ..              
```

#### Opcodes

```
  0: 0x00E0 [0xC5] LOAD_SCHEDULED_TASK_ALT3: Load scheduler 0x800E306C for entities [Jyujin03 (ID: 17510745/0x010B3159), Jyujin03 (ID: 17510745/0x010B3159)], work=91*, param=26987
  1: 0x00F1 [0x00] END_REQSTACK()
```

### Event 65535.18

#### Metadata

| Field        | Value    |
|--------------|----------|
| Entrypoint   | 0x00F2   |
| Data Size    | 18 bytes |
| Instructions | 2        |

```
      00 01 02 03 04 05 06 07  08 09 0A 0B 0C 0D 0E 0F
      -- -- -- -- -- -- -- --  -- -- -- -- -- -- -- --
00F0:       C5 0D 80 59 31 0B  01 59 31 0B 01 6B 69 6C    ...Y1..Y1..kil
0100: 32 0E 80 00                                       2...            
```

#### Opcodes

```
  0: 0x00F2 [0xC5] LOAD_SCHEDULED_TASK_ALT3: Load scheduler 0x800E326C for entities [Jyujin03 (ID: 17510745/0x010B3159), Jyujin03 (ID: 17510745/0x010B3159)], work=91*, param=26987
  1: 0x0103 [0x00] END_REQSTACK()
```

### Event 65535.19

#### Metadata

| Field        | Value    |
|--------------|----------|
| Entrypoint   | 0x0104   |
| Data Size    | 18 bytes |
| Instructions | 2        |

```
      00 01 02 03 04 05 06 07  08 09 0A 0B 0C 0D 0E 0F
      -- -- -- -- -- -- -- --  -- -- -- -- -- -- -- --
0100:             C5 0D 80 59  31 0B 01 59 31 0B 01 6B      ...Y1..Y1..k
0110: 69 6C 33 0E 80 00                                 il3...          
```

#### Opcodes

```
  0: 0x0104 [0xC5] LOAD_SCHEDULED_TASK_ALT3: Load scheduler 0x800E336C for entities [Jyujin03 (ID: 17510745/0x010B3159), Jyujin03 (ID: 17510745/0x010B3159)], work=91*, param=26987
  1: 0x0115 [0x00] END_REQSTACK()
```

### Event 65535.20

#### Metadata

| Field        | Value   |
|--------------|---------|
| Entrypoint   | 0x0116  |
| Data Size    | 8 bytes |
| Instructions | 3       |

```
      00 01 02 03 04 05 06 07  08 09 0A 0B 0C 0D 0E 0F
      -- -- -- -- -- -- -- --  -- -- -- -- -- -- -- --
0110:                   B6 00  0F 80 C0 01 80 00              ........  
```

#### Opcodes

```
  0: 0x0116 [0xB6] ENTITY_APPEARANCE_HANDLER(case=Hair style, value=849*)
  1: 0x011A [0xC0] EventEntity->Render.Flags3 |= 0x1000 // Set bit 12 (from 1*)
  2: 0x011D [0x00] END_REQSTACK()
```
