# 17510743 - Jyujin01

## Common Data

| Field            | Value                     |
|------------------|---------------------------|
| Zone             | Stellar Fulcrum (ID: 179) |
| Block Size       | 780 bytes                 |
| Total Events     | 34                        |
| References Count | 26                        |

## List of Events

| Event ID                   | Entrypoint   |   Size |   Instructions |
|----------------------------|--------------|--------|----------------|
| [65535](#event-65535)      | 0x0000       |      1 |              1 |
| [13](#event-13)            | 0x0001       |      7 |              2 |
| [65535.1](#event-655351)   | 0x0008       |      7 |              2 |
| [65535.2](#event-655352)   | 0x000F       |     26 |              5 |
| [65535.3](#event-655353)   | 0x0029       |     20 |              5 |
| [65535.4](#event-655354)   | 0x003D       |     26 |              5 |
| [65535.5](#event-655355)   | 0x0057       |     26 |              5 |
| [65535.6](#event-655356)   | 0x0071       |      8 |              3 |
| [65535.7](#event-655357)   | 0x0079       |     16 |              2 |
| [65535.8](#event-655358)   | 0x0089       |     16 |              2 |
| [65535.9](#event-655359)   | 0x0099       |     16 |              2 |
| [65535.10](#event-6553510) | 0x00A9       |     12 |              4 |
| [65535.11](#event-6553511) | 0x00B5       |     16 |              2 |
| [65535.12](#event-6553512) | 0x00C5       |     16 |              2 |
| [65535.13](#event-6553513) | 0x00D5       |      8 |              3 |
| [65535.14](#event-6553514) | 0x00DD       |     16 |              2 |
| [65535.15](#event-6553515) | 0x00ED       |      8 |              3 |
| [65535.16](#event-6553516) | 0x00F5       |     16 |              2 |
| [65535.17](#event-6553517) | 0x0105       |     16 |              2 |
| [65535.18](#event-6553518) | 0x0115       |     16 |              2 |
| [65535.19](#event-6553519) | 0x0125       |      8 |              3 |
| [65535.20](#event-6553520) | 0x012D       |     16 |              2 |
| [65535.21](#event-6553521) | 0x013D       |      8 |              3 |
| [65535.22](#event-6553522) | 0x0145       |     16 |              2 |
| [65535.23](#event-6553523) | 0x0155       |     18 |              2 |
| [65535.24](#event-6553524) | 0x0167       |     18 |              2 |
| [65535.25](#event-6553525) | 0x0179       |     18 |              2 |
| [65535.26](#event-6553526) | 0x018B       |     18 |              2 |
| [65535.27](#event-6553527) | 0x019D       |     18 |              2 |
| [65535.28](#event-6553528) | 0x01AF       |     18 |              2 |
| [65535.29](#event-6553529) | 0x01C1       |     18 |              2 |
| [65535.30](#event-6553530) | 0x01D3       |     18 |              2 |
| [65535.31](#event-6553531) | 0x01E5       |     18 |              2 |
| [65535.32](#event-6553532) | 0x01F7       |     18 |              2 |

## DAT References (imed_data)

|   Index | Hex Value   |   Dec Value |
|---------|-------------|-------------|
|       0 | 0x026D      |         621 |
|       1 | 0x003C      |          60 |
|       2 | 0x0A34      |        2612 |
|       3 | 0x0001      |           1 |
|       4 | 0x0028      |          40 |
|       5 | 0x27F66     |      163686 |
|       6 | 0x3DD0C     |      253196 |
|       7 | 0xFFFFFFF0  |  4294967280 |
|       8 | 0x0289      |         649 |
|       9 | 0x0A35      |        2613 |
|      10 | 0x0244      |         580 |
|      11 | 0x0A36      |        2614 |
|      12 | 0x0266      |         614 |
|      13 | 0x009A      |         154 |
|      14 | 0x0064      |         100 |
|      15 | 0x0A43      |        2627 |
|      16 | 0x00FA      |         250 |
|      17 | 0x0A45      |        2629 |
|      18 | 0x01E8      |         488 |
|      19 | 0x0A1B      |        2587 |
|      20 | 0x0048      |          72 |
|      21 | 0x0A3C      |        2620 |
|      22 | 0x03D5      |         981 |
|      23 | 0x0A46      |        2630 |
|      24 | 0x005B      |          91 |
|      25 | 0x0000      |           0 |

## Events

### Event 65535

#### Metadata

| Field        | Value   |
|--------------|---------|
| Entrypoint   | 0x0000  |
| Data Size    | 1 bytes |
| Instructions | 1       |

```
      00 01 02 03 04 05 06 07  08 09 0A 0B 0C 0D 0E 0F
      -- -- -- -- -- -- -- --  -- -- -- -- -- -- -- --
0000: 00                                                .               
```

#### Opcodes

```
  0: 0x0000 [0x00] END_REQSTACK()
```

### Event 13

#### Metadata

| Field        | Value   |
|--------------|---------|
| Entrypoint   | 0x0001  |
| Data Size    | 7 bytes |
| Instructions | 2       |

```
      00 01 02 03 04 05 06 07  08 09 0A 0B 0C 0D 0E 0F
      -- -- -- -- -- -- -- --  -- -- -- -- -- -- -- --
0000:    92 01 F8 FF FF 7F 00                            .......        
```

#### Opcodes

```
  0: 0x0001 [0x92] EventEntity->Render.Flags3 ^= 0x01
  1: 0x0007 [0x00] END_REQSTACK()
```

### Event 65535.1

#### Metadata

| Field        | Value   |
|--------------|---------|
| Entrypoint   | 0x0008  |
| Data Size    | 7 bytes |
| Instructions | 2       |

```
      00 01 02 03 04 05 06 07  08 09 0A 0B 0C 0D 0E 0F
      -- -- -- -- -- -- -- --  -- -- -- -- -- -- -- --
0000:                          4E 00 57 31 0B 01 00             N.W1... 
```

#### Opcodes

```
  0: 0x0008 [0x4E] SET_ENTITY_HIDE_FLAG: Show Jyujin01 (ID: 17510743/0x010B3157)
  1: 0x000E [0x00] END_REQSTACK()
```

### Event 65535.2

#### Metadata

| Field        | Value    |
|--------------|----------|
| Entrypoint   | 0x000F   |
| Data Size    | 26 bytes |
| Instructions | 5        |

```
      00 01 02 03 04 05 06 07  08 09 0A 0B 0C 0D 0E 0F
      -- -- -- -- -- -- -- --  -- -- -- -- -- -- -- --
0000:                                               B6                 .
0010: 00 00 80 1C 01 80 5B 02  80 57 31 0B 01 57 31 0B  ......[..W1..W1.
0020: 01 65 64 30 30 C0 03 80  00                       .ed00....       
```

#### Opcodes

```
  0: 0x000F [0xB6] ENTITY_APPEARANCE_HANDLER(case=Hair style, value=621*)
  1: 0x0013 [0x1C] WAIT(60* ticks)
  2: 0x0016 [0x5B] LOAD_EXT_SCHEDULER: Load scheduler "ed00" with entities [Jyujin01 (ID: 17510743/0x010B3157), Jyujin01 (ID: 17510743/0x010B3157)], work=2612*
  3: 0x0025 [0xC0] EventEntity->Render.Flags3 |= 0x1000 // Set bit 12 (from 1*)
  4: 0x0028 [0x00] END_REQSTACK()
```

### Event 65535.3

#### Metadata

| Field        | Value    |
|--------------|----------|
| Entrypoint   | 0x0029   |
| Data Size    | 20 bytes |
| Instructions | 5        |

```
      00 01 02 03 04 05 06 07  08 09 0A 0B 0C 0D 0E 0F
      -- -- -- -- -- -- -- --  -- -- -- -- -- -- -- --
0020:                             59 04 57 31 0B 01 04           Y.W1...
0030: 80 1F 00 05 80 06 80 07  80 1F 01 6F 00           ...........o.   
```

#### Opcodes

```
  0: 0x0029 [0x59] UPDATE_ENTITY_DATA: Set Jyujin01 (ID: 17510743/0x010B3157) main speed = 40* * 0.1
  1: 0x0031 [0x1F] MOVE_ENTITY: EventEntity moves to X=163.686*, Z=253.196*, Y=-0.016*
  2: 0x0039 [0x1F] MOVE_ENTITY: Update entity position (mode=1)
  3: 0x003B [0x6F] WAIT_FRAME_DELAY: Yield until WaitTime reaches zero
  4: 0x003C [0x00] END_REQSTACK()
```

### Event 65535.4

#### Metadata

| Field        | Value    |
|--------------|----------|
| Entrypoint   | 0x003D   |
| Data Size    | 26 bytes |
| Instructions | 5        |

```
      00 01 02 03 04 05 06 07  08 09 0A 0B 0C 0D 0E 0F
      -- -- -- -- -- -- -- --  -- -- -- -- -- -- -- --
0030:                                         B6 00 08               ...
0040: 80 1C 01 80 5B 09 80 57  31 0B 01 57 31 0B 01 65  ....[..W1..W1..e
0050: 64 30 30 C0 03 80 00                              d00....         
```

#### Opcodes

```
  0: 0x003D [0xB6] ENTITY_APPEARANCE_HANDLER(case=Hair style, value=649*)
  1: 0x0041 [0x1C] WAIT(60* ticks)
  2: 0x0044 [0x5B] LOAD_EXT_SCHEDULER: Load scheduler "ed00" with entities [Jyujin01 (ID: 17510743/0x010B3157), Jyujin01 (ID: 17510743/0x010B3157)], work=2613*
  3: 0x0053 [0xC0] EventEntity->Render.Flags3 |= 0x1000 // Set bit 12 (from 1*)
  4: 0x0056 [0x00] END_REQSTACK()
```

### Event 65535.5

#### Metadata

| Field        | Value    |
|--------------|----------|
| Entrypoint   | 0x0057   |
| Data Size    | 26 bytes |
| Instructions | 5        |

```
      00 01 02 03 04 05 06 07  08 09 0A 0B 0C 0D 0E 0F
      -- -- -- -- -- -- -- --  -- -- -- -- -- -- -- --
0050:                      B6  00 0A 80 1C 01 80 5B 0B         .......[.
0060: 80 57 31 0B 01 57 31 0B  01 65 64 30 30 C0 03 80  .W1..W1..ed00...
0070: 00                                                .               
```

#### Opcodes

```
  0: 0x0057 [0xB6] ENTITY_APPEARANCE_HANDLER(case=Hair style, value=580*)
  1: 0x005B [0x1C] WAIT(60* ticks)
  2: 0x005E [0x5B] LOAD_EXT_SCHEDULER: Load scheduler "ed00" with entities [Jyujin01 (ID: 17510743/0x010B3157), Jyujin01 (ID: 17510743/0x010B3157)], work=2614*
  3: 0x006D [0xC0] EventEntity->Render.Flags3 |= 0x1000 // Set bit 12 (from 1*)
  4: 0x0070 [0x00] END_REQSTACK()
```

### Event 65535.6

#### Metadata

| Field        | Value   |
|--------------|---------|
| Entrypoint   | 0x0071  |
| Data Size    | 8 bytes |
| Instructions | 3       |

```
      00 01 02 03 04 05 06 07  08 09 0A 0B 0C 0D 0E 0F
      -- -- -- -- -- -- -- --  -- -- -- -- -- -- -- --
0070:    B6 00 0C 80 C0 03 80  00                        ........       
```

#### Opcodes

```
  0: 0x0071 [0xB6] ENTITY_APPEARANCE_HANDLER(case=Hair style, value=614*)
  1: 0x0075 [0xC0] EventEntity->Render.Flags3 |= 0x1000 // Set bit 12 (from 1*)
  2: 0x0078 [0x00] END_REQSTACK()
```

### Event 65535.7

#### Metadata

| Field        | Value    |
|--------------|----------|
| Entrypoint   | 0x0079   |
| Data Size    | 16 bytes |
| Instructions | 2        |

```
      00 01 02 03 04 05 06 07  08 09 0A 0B 0C 0D 0E 0F
      -- -- -- -- -- -- -- --  -- -- -- -- -- -- -- --
0070:                             5B 02 80 57 31 0B 01           [..W1..
0080: 57 31 0B 01 65 64 61 6C  00                       W1..edal.       
```

#### Opcodes

```
  0: 0x0079 [0x5B] LOAD_EXT_SCHEDULER: Load scheduler "edal" with entities [Jyujin01 (ID: 17510743/0x010B3157), Jyujin01 (ID: 17510743/0x010B3157)], work=2612*
  1: 0x0088 [0x00] END_REQSTACK()
```

### Event 65535.8

#### Metadata

| Field        | Value    |
|--------------|----------|
| Entrypoint   | 0x0089   |
| Data Size    | 16 bytes |
| Instructions | 2        |

```
      00 01 02 03 04 05 06 07  08 09 0A 0B 0C 0D 0E 0F
      -- -- -- -- -- -- -- --  -- -- -- -- -- -- -- --
0080:                             5B 02 80 57 31 0B 01           [..W1..
0090: 57 31 0B 01 65 64 61 30  00                       W1..eda0.       
```

#### Opcodes

```
  0: 0x0089 [0x5B] LOAD_EXT_SCHEDULER: Load scheduler "eda0" with entities [Jyujin01 (ID: 17510743/0x010B3157), Jyujin01 (ID: 17510743/0x010B3157)], work=2612*
  1: 0x0098 [0x00] END_REQSTACK()
```

### Event 65535.9

#### Metadata

| Field        | Value    |
|--------------|----------|
| Entrypoint   | 0x0099   |
| Data Size    | 16 bytes |
| Instructions | 2        |

```
      00 01 02 03 04 05 06 07  08 09 0A 0B 0C 0D 0E 0F
      -- -- -- -- -- -- -- --  -- -- -- -- -- -- -- --
0090:                             5B 02 80 57 31 0B 01           [..W1..
00A0: 57 31 0B 01 65 64 61 31  00                       W1..eda1.       
```

#### Opcodes

```
  0: 0x0099 [0x5B] LOAD_EXT_SCHEDULER: Load scheduler "eda1" with entities [Jyujin01 (ID: 17510743/0x010B3157), Jyujin01 (ID: 17510743/0x010B3157)], work=2612*
  1: 0x00A8 [0x00] END_REQSTACK()
```

### Event 65535.10

#### Metadata

| Field        | Value    |
|--------------|----------|
| Entrypoint   | 0x00A9   |
| Data Size    | 12 bytes |
| Instructions | 4        |

```
      00 01 02 03 04 05 06 07  08 09 0A 0B 0C 0D 0E 0F
      -- -- -- -- -- -- -- --  -- -- -- -- -- -- -- --
00A0:                             B6 00 0D 80 B6 0F 0E           .......
00B0: 80 C0 03 80 00                                    .....           
```

#### Opcodes

```
  0: 0x00A9 [0xB6] ENTITY_APPEARANCE_HANDLER(case=Hair style, value=154*)
  1: 0x00AD [0xB6] ENTITY_APPEARANCE_HANDLER(case=Model size, value=100*)
  2: 0x00B1 [0xC0] EventEntity->Render.Flags3 |= 0x1000 // Set bit 12 (from 1*)
  3: 0x00B4 [0x00] END_REQSTACK()
```

### Event 65535.11

#### Metadata

| Field        | Value    |
|--------------|----------|
| Entrypoint   | 0x00B5   |
| Data Size    | 16 bytes |
| Instructions | 2        |

```
      00 01 02 03 04 05 06 07  08 09 0A 0B 0C 0D 0E 0F
      -- -- -- -- -- -- -- --  -- -- -- -- -- -- -- --
00B0:                5B 0F 80  57 31 0B 01 57 31 0B 01       [..W1..W1..
00C0: 66 69 73 30 00                                    fis0.           
```

#### Opcodes

```
  0: 0x00B5 [0x5B] LOAD_EXT_SCHEDULER: Load scheduler "fis0" with entities [Jyujin01 (ID: 17510743/0x010B3157), Jyujin01 (ID: 17510743/0x010B3157)], work=2627*
  1: 0x00C4 [0x00] END_REQSTACK()
```

### Event 65535.12

#### Metadata

| Field        | Value    |
|--------------|----------|
| Entrypoint   | 0x00C5   |
| Data Size    | 16 bytes |
| Instructions | 2        |

```
      00 01 02 03 04 05 06 07  08 09 0A 0B 0C 0D 0E 0F
      -- -- -- -- -- -- -- --  -- -- -- -- -- -- -- --
00C0:                5B 0F 80  57 31 0B 01 57 31 0B 01       [..W1..W1..
00D0: 66 69 73 31 00                                    fis1.           
```

#### Opcodes

```
  0: 0x00C5 [0x5B] LOAD_EXT_SCHEDULER: Load scheduler "fis1" with entities [Jyujin01 (ID: 17510743/0x010B3157), Jyujin01 (ID: 17510743/0x010B3157)], work=2627*
  1: 0x00D4 [0x00] END_REQSTACK()
```

### Event 65535.13

#### Metadata

| Field        | Value   |
|--------------|---------|
| Entrypoint   | 0x00D5  |
| Data Size    | 8 bytes |
| Instructions | 3       |

```
      00 01 02 03 04 05 06 07  08 09 0A 0B 0C 0D 0E 0F
      -- -- -- -- -- -- -- --  -- -- -- -- -- -- -- --
00D0:                B6 00 10  80 C0 03 80 00                ........   
```

#### Opcodes

```
  0: 0x00D5 [0xB6] ENTITY_APPEARANCE_HANDLER(case=Hair style, value=250*)
  1: 0x00D9 [0xC0] EventEntity->Render.Flags3 |= 0x1000 // Set bit 12 (from 1*)
  2: 0x00DC [0x00] END_REQSTACK()
```

### Event 65535.14

#### Metadata

| Field        | Value    |
|--------------|----------|
| Entrypoint   | 0x00DD   |
| Data Size    | 16 bytes |
| Instructions | 2        |

```
      00 01 02 03 04 05 06 07  08 09 0A 0B 0C 0D 0E 0F
      -- -- -- -- -- -- -- --  -- -- -- -- -- -- -- --
00D0:                                         5B 11 80               [..
00E0: 57 31 0B 01 57 31 0B 01  65 64 30 30 00           W1..W1..ed00.   
```

#### Opcodes

```
  0: 0x00DD [0x5B] LOAD_EXT_SCHEDULER: Load scheduler "ed00" with entities [Jyujin01 (ID: 17510743/0x010B3157), Jyujin01 (ID: 17510743/0x010B3157)], work=2629*
  1: 0x00EC [0x00] END_REQSTACK()
```

### Event 65535.15

#### Metadata

| Field        | Value   |
|--------------|---------|
| Entrypoint   | 0x00ED  |
| Data Size    | 8 bytes |
| Instructions | 3       |

```
      00 01 02 03 04 05 06 07  08 09 0A 0B 0C 0D 0E 0F
      -- -- -- -- -- -- -- --  -- -- -- -- -- -- -- --
00E0:                                         B6 00 12               ...
00F0: 80 C0 03 80 00                                    .....           
```

#### Opcodes

```
  0: 0x00ED [0xB6] ENTITY_APPEARANCE_HANDLER(case=Hair style, value=488*)
  1: 0x00F1 [0xC0] EventEntity->Render.Flags3 |= 0x1000 // Set bit 12 (from 1*)
  2: 0x00F4 [0x00] END_REQSTACK()
```

### Event 65535.16

#### Metadata

| Field        | Value    |
|--------------|----------|
| Entrypoint   | 0x00F5   |
| Data Size    | 16 bytes |
| Instructions | 2        |

```
      00 01 02 03 04 05 06 07  08 09 0A 0B 0C 0D 0E 0F
      -- -- -- -- -- -- -- --  -- -- -- -- -- -- -- --
00F0:                5B 13 80  57 31 0B 01 57 31 0B 01       [..W1..W1..
0100: 65 64 61 30 00                                    eda0.           
```

#### Opcodes

```
  0: 0x00F5 [0x5B] LOAD_EXT_SCHEDULER: Load scheduler "eda0" with entities [Jyujin01 (ID: 17510743/0x010B3157), Jyujin01 (ID: 17510743/0x010B3157)], work=2587*
  1: 0x0104 [0x00] END_REQSTACK()
```

### Event 65535.17

#### Metadata

| Field        | Value    |
|--------------|----------|
| Entrypoint   | 0x0105   |
| Data Size    | 16 bytes |
| Instructions | 2        |

```
      00 01 02 03 04 05 06 07  08 09 0A 0B 0C 0D 0E 0F
      -- -- -- -- -- -- -- --  -- -- -- -- -- -- -- --
0100:                5B 13 80  57 31 0B 01 57 31 0B 01       [..W1..W1..
0110: 65 64 62 30 00                                    edb0.           
```

#### Opcodes

```
  0: 0x0105 [0x5B] LOAD_EXT_SCHEDULER: Load scheduler "edb0" with entities [Jyujin01 (ID: 17510743/0x010B3157), Jyujin01 (ID: 17510743/0x010B3157)], work=2587*
  1: 0x0114 [0x00] END_REQSTACK()
```

### Event 65535.18

#### Metadata

| Field        | Value    |
|--------------|----------|
| Entrypoint   | 0x0115   |
| Data Size    | 16 bytes |
| Instructions | 2        |

```
      00 01 02 03 04 05 06 07  08 09 0A 0B 0C 0D 0E 0F
      -- -- -- -- -- -- -- --  -- -- -- -- -- -- -- --
0110:                5B 13 80  57 31 0B 01 57 31 0B 01       [..W1..W1..
0120: 65 64 62 31 00                                    edb1.           
```

#### Opcodes

```
  0: 0x0115 [0x5B] LOAD_EXT_SCHEDULER: Load scheduler "edb1" with entities [Jyujin01 (ID: 17510743/0x010B3157), Jyujin01 (ID: 17510743/0x010B3157)], work=2587*
  1: 0x0124 [0x00] END_REQSTACK()
```

### Event 65535.19

#### Metadata

| Field        | Value   |
|--------------|---------|
| Entrypoint   | 0x0125  |
| Data Size    | 8 bytes |
| Instructions | 3       |

```
      00 01 02 03 04 05 06 07  08 09 0A 0B 0C 0D 0E 0F
      -- -- -- -- -- -- -- --  -- -- -- -- -- -- -- --
0120:                B6 00 14  80 C0 03 80 00                ........   
```

#### Opcodes

```
  0: 0x0125 [0xB6] ENTITY_APPEARANCE_HANDLER(case=Hair style, value=72*)
  1: 0x0129 [0xC0] EventEntity->Render.Flags3 |= 0x1000 // Set bit 12 (from 1*)
  2: 0x012C [0x00] END_REQSTACK()
```

### Event 65535.20

#### Metadata

| Field        | Value    |
|--------------|----------|
| Entrypoint   | 0x012D   |
| Data Size    | 16 bytes |
| Instructions | 2        |

```
      00 01 02 03 04 05 06 07  08 09 0A 0B 0C 0D 0E 0F
      -- -- -- -- -- -- -- --  -- -- -- -- -- -- -- --
0120:                                         5B 15 80               [..
0130: 57 31 0B 01 57 31 0B 01  65 64 30 30 00           W1..W1..ed00.   
```

#### Opcodes

```
  0: 0x012D [0x5B] LOAD_EXT_SCHEDULER: Load scheduler "ed00" with entities [Jyujin01 (ID: 17510743/0x010B3157), Jyujin01 (ID: 17510743/0x010B3157)], work=2620*
  1: 0x013C [0x00] END_REQSTACK()
```

### Event 65535.21

#### Metadata

| Field        | Value   |
|--------------|---------|
| Entrypoint   | 0x013D  |
| Data Size    | 8 bytes |
| Instructions | 3       |

```
      00 01 02 03 04 05 06 07  08 09 0A 0B 0C 0D 0E 0F
      -- -- -- -- -- -- -- --  -- -- -- -- -- -- -- --
0130:                                         B6 00 16               ...
0140: 80 C0 03 80 00                                    .....           
```

#### Opcodes

```
  0: 0x013D [0xB6] ENTITY_APPEARANCE_HANDLER(case=Hair style, value=981*)
  1: 0x0141 [0xC0] EventEntity->Render.Flags3 |= 0x1000 // Set bit 12 (from 1*)
  2: 0x0144 [0x00] END_REQSTACK()
```

### Event 65535.22

#### Metadata

| Field        | Value    |
|--------------|----------|
| Entrypoint   | 0x0145   |
| Data Size    | 16 bytes |
| Instructions | 2        |

```
      00 01 02 03 04 05 06 07  08 09 0A 0B 0C 0D 0E 0F
      -- -- -- -- -- -- -- --  -- -- -- -- -- -- -- --
0140:                5B 17 80  57 31 0B 01 57 31 0B 01       [..W1..W1..
0150: 65 64 30 30 00                                    ed00.           
```

#### Opcodes

```
  0: 0x0145 [0x5B] LOAD_EXT_SCHEDULER: Load scheduler "ed00" with entities [Jyujin01 (ID: 17510743/0x010B3157), Jyujin01 (ID: 17510743/0x010B3157)], work=2630*
  1: 0x0154 [0x00] END_REQSTACK()
```

### Event 65535.23

#### Metadata

| Field        | Value    |
|--------------|----------|
| Entrypoint   | 0x0155   |
| Data Size    | 18 bytes |
| Instructions | 2        |

```
      00 01 02 03 04 05 06 07  08 09 0A 0B 0C 0D 0E 0F
      -- -- -- -- -- -- -- --  -- -- -- -- -- -- -- --
0150:                C5 18 80  57 31 0B 01 57 31 0B 01       ...W1..W1..
0160: 73 30 30 30 19 80 00                              s000...         
```

#### Opcodes

```
  0: 0x0155 [0xC5] LOAD_SCHEDULED_TASK_ALT3: Load scheduler 0x80193030 for entities [Jyujin01 (ID: 17510743/0x010B3157), Jyujin01 (ID: 17510743/0x010B3157)], work=91*, param=12403
  1: 0x0166 [0x00] END_REQSTACK()
```

### Event 65535.24

#### Metadata

| Field        | Value    |
|--------------|----------|
| Entrypoint   | 0x0167   |
| Data Size    | 18 bytes |
| Instructions | 2        |

```
      00 01 02 03 04 05 06 07  08 09 0A 0B 0C 0D 0E 0F
      -- -- -- -- -- -- -- --  -- -- -- -- -- -- -- --
0160:                      C5  18 80 57 31 0B 01 57 31         ...W1..W1
0170: 0B 01 73 30 30 31 19 80  00                       ..s001...       
```

#### Opcodes

```
  0: 0x0167 [0xC5] LOAD_SCHEDULED_TASK_ALT3: Load scheduler 0x80193130 for entities [Jyujin01 (ID: 17510743/0x010B3157), Jyujin01 (ID: 17510743/0x010B3157)], work=91*, param=12403
  1: 0x0178 [0x00] END_REQSTACK()
```

### Event 65535.25

#### Metadata

| Field        | Value    |
|--------------|----------|
| Entrypoint   | 0x0179   |
| Data Size    | 18 bytes |
| Instructions | 2        |

```
      00 01 02 03 04 05 06 07  08 09 0A 0B 0C 0D 0E 0F
      -- -- -- -- -- -- -- --  -- -- -- -- -- -- -- --
0170:                             C5 18 80 57 31 0B 01           ...W1..
0180: 57 31 0B 01 73 30 30 32  19 80 00                 W1..s002...     
```

#### Opcodes

```
  0: 0x0179 [0xC5] LOAD_SCHEDULED_TASK_ALT3: Load scheduler 0x80193230 for entities [Jyujin01 (ID: 17510743/0x010B3157), Jyujin01 (ID: 17510743/0x010B3157)], work=91*, param=12403
  1: 0x018A [0x00] END_REQSTACK()
```

### Event 65535.26

#### Metadata

| Field        | Value    |
|--------------|----------|
| Entrypoint   | 0x018B   |
| Data Size    | 18 bytes |
| Instructions | 2        |

```
      00 01 02 03 04 05 06 07  08 09 0A 0B 0C 0D 0E 0F
      -- -- -- -- -- -- -- --  -- -- -- -- -- -- -- --
0180:                                   C5 18 80 57 31             ...W1
0190: 0B 01 57 31 0B 01 73 30  30 33 19 80 00           ..W1..s003...   
```

#### Opcodes

```
  0: 0x018B [0xC5] LOAD_SCHEDULED_TASK_ALT3: Load scheduler 0x80193330 for entities [Jyujin01 (ID: 17510743/0x010B3157), Jyujin01 (ID: 17510743/0x010B3157)], work=91*, param=12403
  1: 0x019C [0x00] END_REQSTACK()
```

### Event 65535.27

#### Metadata

| Field        | Value    |
|--------------|----------|
| Entrypoint   | 0x019D   |
| Data Size    | 18 bytes |
| Instructions | 2        |

```
      00 01 02 03 04 05 06 07  08 09 0A 0B 0C 0D 0E 0F
      -- -- -- -- -- -- -- --  -- -- -- -- -- -- -- --
0190:                                         C5 18 80               ...
01A0: 57 31 0B 01 57 31 0B 01  73 74 70 30 19 80 00     W1..W1..stp0... 
```

#### Opcodes

```
  0: 0x019D [0xC5] LOAD_SCHEDULED_TASK_ALT3: Load scheduler 0x80193070 for entities [Jyujin01 (ID: 17510743/0x010B3157), Jyujin01 (ID: 17510743/0x010B3157)], work=91*, param=29811
  1: 0x01AE [0x00] END_REQSTACK()
```

### Event 65535.28

#### Metadata

| Field        | Value    |
|--------------|----------|
| Entrypoint   | 0x01AF   |
| Data Size    | 18 bytes |
| Instructions | 2        |

```
      00 01 02 03 04 05 06 07  08 09 0A 0B 0C 0D 0E 0F
      -- -- -- -- -- -- -- --  -- -- -- -- -- -- -- --
01A0:                                               C5                 .
01B0: 18 80 57 31 0B 01 57 31  0B 01 73 74 70 32 19 80  ..W1..W1..stp2..
01C0: 00                                                .               
```

#### Opcodes

```
  0: 0x01AF [0xC5] LOAD_SCHEDULED_TASK_ALT3: Load scheduler 0x80193270 for entities [Jyujin01 (ID: 17510743/0x010B3157), Jyujin01 (ID: 17510743/0x010B3157)], work=91*, param=29811
  1: 0x01C0 [0x00] END_REQSTACK()
```

### Event 65535.29

#### Metadata

| Field        | Value    |
|--------------|----------|
| Entrypoint   | 0x01C1   |
| Data Size    | 18 bytes |
| Instructions | 2        |

```
      00 01 02 03 04 05 06 07  08 09 0A 0B 0C 0D 0E 0F
      -- -- -- -- -- -- -- --  -- -- -- -- -- -- -- --
01C0:    C5 18 80 57 31 0B 01  57 31 0B 01 73 74 70 33   ...W1..W1..stp3
01D0: 19 80 00                                          ...             
```

#### Opcodes

```
  0: 0x01C1 [0xC5] LOAD_SCHEDULED_TASK_ALT3: Load scheduler 0x80193370 for entities [Jyujin01 (ID: 17510743/0x010B3157), Jyujin01 (ID: 17510743/0x010B3157)], work=91*, param=29811
  1: 0x01D2 [0x00] END_REQSTACK()
```

### Event 65535.30

#### Metadata

| Field        | Value    |
|--------------|----------|
| Entrypoint   | 0x01D3   |
| Data Size    | 18 bytes |
| Instructions | 2        |

```
      00 01 02 03 04 05 06 07  08 09 0A 0B 0C 0D 0E 0F
      -- -- -- -- -- -- -- --  -- -- -- -- -- -- -- --
01D0:          C5 18 80 57 31  0B 01 57 31 0B 01 6B 69     ...W1..W1..ki
01E0: 6C 30 19 80 00                                    l0...           
```

#### Opcodes

```
  0: 0x01D3 [0xC5] LOAD_SCHEDULED_TASK_ALT3: Load scheduler 0x8019306C for entities [Jyujin01 (ID: 17510743/0x010B3157), Jyujin01 (ID: 17510743/0x010B3157)], work=91*, param=26987
  1: 0x01E4 [0x00] END_REQSTACK()
```

### Event 65535.31

#### Metadata

| Field        | Value    |
|--------------|----------|
| Entrypoint   | 0x01E5   |
| Data Size    | 18 bytes |
| Instructions | 2        |

```
      00 01 02 03 04 05 06 07  08 09 0A 0B 0C 0D 0E 0F
      -- -- -- -- -- -- -- --  -- -- -- -- -- -- -- --
01E0:                C5 18 80  57 31 0B 01 57 31 0B 01       ...W1..W1..
01F0: 6B 69 6C 32 19 80 00                              kil2...         
```

#### Opcodes

```
  0: 0x01E5 [0xC5] LOAD_SCHEDULED_TASK_ALT3: Load scheduler 0x8019326C for entities [Jyujin01 (ID: 17510743/0x010B3157), Jyujin01 (ID: 17510743/0x010B3157)], work=91*, param=26987
  1: 0x01F6 [0x00] END_REQSTACK()
```

### Event 65535.32

#### Metadata

| Field        | Value    |
|--------------|----------|
| Entrypoint   | 0x01F7   |
| Data Size    | 18 bytes |
| Instructions | 2        |

```
      00 01 02 03 04 05 06 07  08 09 0A 0B 0C 0D 0E 0F
      -- -- -- -- -- -- -- --  -- -- -- -- -- -- -- --
01F0:                      C5  18 80 57 31 0B 01 57 31         ...W1..W1
0200: 0B 01 6B 69 6C 33 19 80  00                       ..kil3...       
```

#### Opcodes

```
  0: 0x01F7 [0xC5] LOAD_SCHEDULED_TASK_ALT3: Load scheduler 0x8019336C for entities [Jyujin01 (ID: 17510743/0x010B3157), Jyujin01 (ID: 17510743/0x010B3157)], work=91*, param=26987
  1: 0x0208 [0x00] END_REQSTACK()
```
