# 17510724 - Serpent Generals

## Common Data

| Field            | Value                     |
|------------------|---------------------------|
| Zone             | Stellar Fulcrum (ID: 179) |
| Block Size       | 8728 bytes                |
| Total Events     | 5                         |
| References Count | 167                       |

## List of Events

| Event ID              | Entrypoint   |   Size |   Instructions |
|-----------------------|--------------|--------|----------------|
| [65535](#event-65535) | 0x0000       |      1 |              1 |
| [32000](#event-32000) | 0x0001       |      1 |              1 |
| [32001](#event-32001) | 0x0002       |      1 |              1 |
| [11](#event-11)       | 0x0003       |   1057 |            126 |
| [17](#event-17)       | 0x0424       |   6961 |            759 |

## DAT References (imed_data)

|   Index | Hex Value   |   Dec Value |
|---------|-------------|-------------|
|       0 | 0x0013      |          19 |
|       1 | 0x0000      |           0 |
|       2 | 0xFFFA85A8  |  4294608296 |
|       3 | 0x31703     |      202499 |
|       4 | 0x0400      |        1024 |
|       5 | 0xFFFFFC18  |  4294966296 |
|       6 | 0xFFFA879C  |  4294608796 |
|       7 | 0x03E8      |        1000 |
|       8 | 0x07D0      |        2000 |
|       9 | 0xFFFA8B84  |  4294609796 |
|      10 | 0xFFFFF830  |  4294965296 |
|      11 | 0x001C      |          28 |
|      12 | 0xFFFA8DB5  |  4294610357 |
|      13 | 0x000F      |          15 |
|      14 | 0x0378      |         888 |
|      15 | 0x0379      |         889 |
|      16 | 0x037F      |         895 |
|      17 | 0x0380      |         896 |
|      18 | 0x03C6      |         966 |
|      19 | 0x00C4      |         196 |
|      20 | 0x0142      |         322 |
|      21 | 0x1E94      |        7828 |
|      22 | 0x1E95      |        7829 |
|      23 | 0x1E97      |        7831 |
|      24 | 0x1E98      |        7832 |
|      25 | 0x1E96      |        7830 |
|      26 | 0x1E9A      |        7834 |
|      27 | 0x0008      |           8 |
|      28 | 0x0014      |          20 |
|      29 | 0x005A      |          90 |
|      30 | 0x1E93      |        7827 |
|      31 | 0x0187      |         391 |
|      32 | 0xFFFA84F0  |  4294608112 |
|      33 | 0x0417      |        1047 |
|      34 | 0x04DC      |        1244 |
|      35 | 0xFFFA7E1C  |  4294606364 |
|      36 | 0x0442      |        1090 |
|      37 | 0x07AD      |        1965 |
|      38 | 0xFFFA7F8C  |  4294606732 |
|      39 | 0x049A      |        1178 |
|      40 | 0x0945      |        2373 |
|      41 | 0xFFFA82AE  |  4294607534 |
|      42 | 0x047C      |        1148 |
|      43 | 0x033B      |         827 |
|      44 | 0xFFFA817E  |  4294607230 |
|      45 | 0x0459      |        1113 |
|      46 | 0xFFFFFA91  |  4294965905 |
|      47 | 0xFFFA7A8E  |  4294605454 |
|      48 | 0x03C0      |         960 |
|      49 | 0xFFFFFDAF  |  4294966703 |
|      50 | 0xFFFA7EEA  |  4294606570 |
|      51 | 0xFFFFF6CB  |  4294964939 |
|      52 | 0xFFFA7F5F  |  4294606687 |
|      53 | 0xFFFFF956  |  4294965590 |
|      54 | 0xFFFA869B  |  4294608539 |
|      55 | 0xFFFFFDFF  |  4294966783 |
|      56 | 0xFFFA8727  |  4294608679 |
|      57 | 0xFFFFF4BC  |  4294964412 |
|      58 | 0xFFFA8599  |  4294608281 |
|      59 | 0x0381      |         897 |
|      60 | 0x001E      |          30 |
|      61 | 0x00C8      |         200 |
|      62 | 0x0001      |           1 |
|      63 | 0x009D      |         157 |
|      64 | 0x6AF0      |       27376 |
|      65 | 0x09C3      |        2499 |
|      66 | 0x0BE6      |        3046 |
|      67 | 0x004F      |          79 |
|      68 | 0x1DD1      |        7633 |
|      69 | 0x00B4      |         180 |
|      70 | 0x0205      |         517 |
|      71 | 0x1DD2      |        7634 |
|      72 | 0x1DD3      |        7635 |
|      73 | 0x1DD4      |        7636 |
|      74 | 0x1DD5      |        7637 |
|      75 | 0x1DD6      |        7638 |
|      76 | 0x1DD7      |        7639 |
|      77 | 0x1DD8      |        7640 |
|      78 | 0x1DD9      |        7641 |
|      79 | 0x025B      |         603 |
|      80 | 0x0259      |         601 |
|      81 | 0x0258      |         600 |
|      82 | 0x0218      |         536 |
|      83 | 0x0209      |         521 |
|      84 | 0x021D      |         541 |
|      85 | 0x003C      |          60 |
|      86 | 0x000A      |          10 |
|      87 | 0x1DDA      |        7642 |
|      88 | 0x0032      |          50 |
|      89 | 0x0046      |          70 |
|      90 | 0x1DDB      |        7643 |
|      91 | 0x002B      |          43 |
|      92 | 0x00C9      |         201 |
|      93 | 0x0078      |         120 |
|      94 | 0x0007      |           7 |
|      95 | 0x00F0      |         240 |
|      96 | 0x0122      |         290 |
|      97 | 0x007F      |         127 |
|      98 | 0x1DDC      |        7644 |
|      99 | 0x1DDD      |        7645 |
|     100 | 0x1DDE      |        7646 |
|     101 | 0x1DDF      |        7647 |
|     102 | 0x1DE0      |        7648 |
|     103 | 0x1DE1      |        7649 |
|     104 | 0x1DE2      |        7650 |
|     105 | 0x1DE3      |        7651 |
|     106 | 0x1DE4      |        7652 |
|     107 | 0x1DE5      |        7653 |
|     108 | 0x1DE6      |        7654 |
|     109 | 0x1DE7      |        7655 |
|     110 | 0x1DE8      |        7656 |
|     111 | 0x1DE9      |        7657 |
|     112 | 0x021E      |         542 |
|     113 | 0x1DEA      |        7658 |
|     114 | 0x1DEB      |        7659 |
|     115 | 0x1DEC      |        7660 |
|     116 | 0x1DED      |        7661 |
|     117 | 0x0080      |         128 |
|     118 | 0x1DEE      |        7662 |
|     119 | 0x0064      |         100 |
|     120 | 0x1DF2      |        7666 |
|     121 | 0x1DF3      |        7667 |
|     122 | 0x00C5      |         197 |
|     123 | 0x004C      |          76 |
|     124 | 0x008C      |         140 |
|     125 | 0x0096      |         150 |
|     126 | 0x0118      |         280 |
|     127 | 0x017C      |         380 |
|     128 | 0x0010      |          16 |
|     129 | 0x0091      |         145 |
|     130 | 0x01FE      |         510 |
|     131 | 0x023A      |         570 |
|     132 | 0xA335      |       41781 |
|     133 | 0x0C00      |        3072 |
|     134 | 0x1DF4      |        7668 |
|     135 | 0x1DF5      |        7669 |
|     136 | 0x1DF6      |        7670 |
|     137 | 0x012C      |         300 |
|     138 | 0x1DF7      |        7671 |
|     139 | 0x1DF8      |        7672 |
|     140 | 0x0082      |         130 |
|     141 | 0x004B      |          75 |
|     142 | 0x1DF9      |        7673 |
|     143 | 0x00C2      |         194 |
|     144 | 0x1DFA      |        7674 |
|     145 | 0x1DFB      |        7675 |
|     146 | 0x0003      |           3 |
|     147 | 0x0004      |           4 |
|     148 | 0x0005      |           5 |
|     149 | 0x0006      |           6 |
|     150 | 0x1DFC      |        7676 |
|     151 | 0x1DFD      |        7677 |
|     152 | 0x1DFE      |        7678 |
|     153 | 0x1DFF      |        7679 |
|     154 | 0x1E00      |        7680 |
|     155 | 0x1E01      |        7681 |
|     156 | 0x1E02      |        7682 |
|     157 | 0x0028      |          40 |
|     158 | 0x1E03      |        7683 |
|     159 | 0x1E04      |        7684 |
|     160 | 0x1E05      |        7685 |
|     161 | 0x1E06      |        7686 |
|     162 | 0x1E07      |        7687 |
|     163 | 0x1E08      |        7688 |
|     164 | 0x002D      |          45 |
|     165 | 0x0002      |           2 |
|     166 | 0x00D7      |         215 |

## String References

- **7827**: Press a button to continue.

## Events

### Event 65535

#### Metadata

| Field        | Value   |
|--------------|---------|
| Entrypoint   | 0x0000  |
| Data Size    | 1 bytes |
| Instructions | 1       |

```
      00 01 02 03 04 05 06 07  08 09 0A 0B 0C 0D 0E 0F
      -- -- -- -- -- -- -- --  -- -- -- -- -- -- -- --
0000: 00                                                .               
```

#### Opcodes

```
  0: 0x0000 [0x00] END_REQSTACK()
```

### Event 32000

#### Metadata

| Field        | Value   |
|--------------|---------|
| Entrypoint   | 0x0001  |
| Data Size    | 1 bytes |
| Instructions | 1       |

```
      00 01 02 03 04 05 06 07  08 09 0A 0B 0C 0D 0E 0F
      -- -- -- -- -- -- -- --  -- -- -- -- -- -- -- --
0000:    00                                              .              
```

#### Opcodes

```
  0: 0x0001 [0x00] END_REQSTACK()
```

### Event 32001

#### Metadata

| Field        | Value   |
|--------------|---------|
| Entrypoint   | 0x0002  |
| Data Size    | 1 bytes |
| Instructions | 1       |

```
      00 01 02 03 04 05 06 07  08 09 0A 0B 0C 0D 0E 0F
      -- -- -- -- -- -- -- --  -- -- -- -- -- -- -- --
0000:       00                                            .             
```

#### Opcodes

```
  0: 0x0002 [0x00] END_REQSTACK()
```

### Event 11

#### Metadata

| Field        | Value      |
|--------------|------------|
| Entrypoint   | 0x0003     |
| Data Size    | 1057 bytes |
| Instructions | 126        |

```
      00 01 02 03 04 05 06 07  08 09 0A 0B 0C 0D 0E 0F
      -- -- -- -- -- -- -- --  -- -- -- -- -- -- -- --
0000:          42 1A 27 1D 46  01 38 00 80 79 00 F0 FF     B.'.F.8..y...
0010: FF 7F F0 FF FF 7F 27 10  45 31 0B 01 04 27 10 46  ......'.E1...'.F
0020: 31 0B 01 04 27 10 47 31  0B 01 04 27 10 48 31 0B  1...'.G1...'.H1.
0030: 01 04 27 10 49 31 0B 01  04 4E 00 43 31 0B 01 92  ..'.I1...N.C1...
0040: 01 F0 FF FF 7F 92 01 F1  FF FF 7F 92 01 F2 FF FF  ................
0050: 7F 92 01 F3 FF FF 7F 92  01 F4 FF FF 7F 92 01 F5  ................
0060: FF FF 7F 92 01 45 31 0B  01 92 01 46 31 0B 01 92  .....E1....F1...
0070: 01 47 31 0B 01 92 01 48  31 0B 01 92 01 49 31 0B  .G1....H1....I1.
0080: 01 94 01 F0 FF FF 7F 94  01 45 31 0B 01 94 01 46  .........E1....F
0090: 31 0B 01 94 01 47 31 0B  01 94 01 48 31 0B 01 94  1....G1....H1...
00A0: 01 49 31 0B 01 94 01 43  31 0B 01 94 01 F1 FF FF  .I1....C1.......
00B0: 7F 94 01 F2 FF FF 7F 94  01 F3 FF FF 7F 94 01 F4  ................
00C0: FF FF 7F 94 01 F5 FF FF  7F BA 45 31 0B 01 01 80  ..........E1....
00D0: 02 80 03 80 04 80 BA 46  31 0B 01 05 80 06 80 03  .......F1.......
00E0: 80 04 80 BA 47 31 0B 01  07 80 06 80 03 80 04 80  ....G1..........
00F0: BA 48 31 0B 01 08 80 09  80 03 80 04 80 BA 49 31  .H1...........I1
0100: 0B 01 0A 80 09 80 03 80  04 80 BA 43 31 0B 01 0B  ...........C1...
0110: 80 0C 80 03 80 04 80 80  F0 FF FF 7F 80 45 31 0B  .............E1.
0120: 01 80 46 31 0B 01 80 47  31 0B 01 80 48 31 0B 01  ..F1...G1...H1..
0130: 80 49 31 0B 01 80 F1 FF  FF 7F 80 F2 FF FF 7F 80  .I1.............
0140: F3 FF FF 7F 80 F4 FF FF  7F 80 F5 FF FF 7F 1C 0D  ................
0150: 80 5B 0E 80 45 31 0B 01  45 31 0B 01 77 61 72 30  .[..E1..E1..war0
0160: 5B 0F 80 46 31 0B 01 46  31 0B 01 77 61 72 30 5B  [..F1..F1..war0[
0170: 10 80 48 31 0B 01 48 31  0B 01 77 61 72 30 5B 11  ..H1..H1..war0[.
0180: 80 47 31 0B 01 47 31 0B  01 77 61 72 30 5B 12 80  .G1..G1..war0[..
0190: 49 31 0B 01 49 31 0B 01  6E 6A 30 30 5C 00 13 80  I1..I1..nj00\...
01A0: 5C 01 13 80 9A 45 14 80  F0 FF FF 7F F0 FF FF 7F  \....E..........
01B0: 67 6C 30 30 01 80 1A 06  1D 2B 45 31 0B 01 15 80  gl00.....+E1....
01C0: 23 52 14 80 F0 FF FF 7F  F0 FF FF 7F 67 6C 30 30  #R..........gl00
01D0: 45 14 80 F0 FF FF 7F F0  FF FF 7F 67 67 30 30 01  E..........gg00.
01E0: 80 2B 46 31 0B 01 16 80  23 52 14 80 F0 FF FF 7F  .+F1....#R......
01F0: F0 FF FF 7F 67 67 30 30  45 14 80 F0 FF FF 7F F0  ....gg00E.......
0200: FF FF 7F 67 7A 30 30 01  80 2B 48 31 0B 01 17 80  ...gz00..+H1....
0210: 23 52 14 80 F0 FF FF 7F  F0 FF FF 7F 67 7A 30 30  #R..........gz00
0220: 45 14 80 F0 FF FF 7F F0  FF FF 7F 67 6D 30 30 01  E..........gm00.
0230: 80 2B 47 31 0B 01 18 80  23 52 14 80 F0 FF FF 7F  .+G1....#R......
0240: F0 FF FF 7F 67 6D 30 30  45 14 80 F0 FF FF 7F F0  ....gm00E.......
0250: FF FF 7F 67 6E 30 30 01  80 2B 49 31 0B 01 19 80  ...gn00..+I1....
0260: 23 52 14 80 F0 FF FF 7F  F0 FF FF 7F 67 6E 30 30  #R..........gn00
0270: 45 14 80 F0 FF FF 7F F0  FF FF 7F 67 61 30 30 01  E..........ga00.
0280: 80 2B F8 FF FF 7F 1A 80  BB 1B 80 43 31 0B 01 43  .+.........C1..C
0290: 31 0B 01 6D 61 69 6E 01  80 1C 1C 80 45 14 80 43  1..main.....E..C
02A0: 31 0B 01 43 31 0B 01 30  73 62 6B 01 80 1C 1D 80  1..C1..0sbk.....
02B0: 1A 69 1D 48 1E 80 23 45  14 80 F0 FF FF 7F F0 FF  .i.H..#E........
02C0: FF 7F 6B 73 62 6B 01 80  BB 1B 80 43 31 0B 01 43  ..ksbk.....C1..C
02D0: 31 0B 01 73 74 6F 70 01  80 BA 45 31 0B 01 1F 80  1..stop...E1....
02E0: 20 80 03 80 21 80 BA 46  31 0B 01 22 80 23 80 03   ...!..F1..".#..
02F0: 80 24 80 BA 47 31 0B 01  25 80 26 80 03 80 27 80  .$..G1..%.&...'.
0300: BA 48 31 0B 01 28 80 29  80 03 80 2A 80 BA 49 31  .H1..(.)...*..I1
0310: 0B 01 2B 80 2C 80 03 80  2D 80 BA F0 FF FF 7F 2E  ..+.,...-.......
0320: 80 2F 80 03 80 30 80 BA  F1 FF FF 7F 31 80 32 80  ./...0......1.2.
0330: 03 80 30 80 BA F2 FF FF  7F 33 80 34 80 03 80 30  ..0......3.4...0
0340: 80 BA F3 FF FF 7F 35 80  36 80 03 80 30 80 BA F4  ......5.6...0...
0350: FF FF 7F 37 80 38 80 03  80 30 80 BA F5 FF FF 7F  ...7.8...0......
0360: 39 80 3A 80 03 80 30 80  5B 0E 80 45 31 0B 01 45  9.:...0.[..E1..E
0370: 31 0B 01 73 70 6C 62 5B  0F 80 46 31 0B 01 46 31  1..splb[..F1..F1
0380: 0B 01 73 70 6C 62 5B 11  80 47 31 0B 01 47 31 0B  ..splb[..G1..G1.
0390: 01 73 70 6C 61 5B 3B 80  49 31 0B 01 49 31 0B 01  .spla[;.I1..I1..
03A0: 73 70 6C 62 27 10 F0 FF  FF 7F 0C 27 10 F1 FF FF  splb'......'....
03B0: 7F 03 27 10 F2 FF FF 7F  03 52 14 80 F0 FF FF 7F  ..'......R......
03C0: F0 FF FF 7F 67 61 30 30  45 14 80 F0 FF FF 7F F0  ....ga00E.......
03D0: FF FF 7F 30 62 6C 66 01  80 45 14 80 F0 FF FF 7F  ...0blf..E......
03E0: F0 FF FF 7F 31 67 6F 6A  01 80 1A 48 1D 48 1E 80  ....1goj...H.H..
03F0: 23 1A 27 1D 1C 3C 80 52  14 80 F0 FF FF 7F F0 FF  #.'..<.R........
0400: FF 7F 30 67 6F 6A 5C 00  01 80 5C 01 01 80 9A 46  ..0goj\...\....F
0410: 00 45 3D 80 F0 FF FF 7F  F0 FF FF 7F 66 64 69 32  .E=.........fdi2
0420: 01 80 21 00                                       ..!.            
```

#### Opcodes

```
  0: 0x0003 [0x42] SET_CLI_EVENT_CANCEL_DATA()
  1: 0x0004 [0x1A] CALL_SUBROUTINE(address=0x1D27)
  2: 0x0007 [0x46] CAMERA_CONTROL: Disable user control
  3: 0x0009 [0x38] SET_CLIENT_EVENT_MODE(mode=19*)
  4: 0x000C [0x79] LocalPlayer looks at LocalPlayer (Basic look)
  5: 0x0016 [0x27] REQ_SET(priority=0x10, entity_id=Rughadjeen (ID: 17510725/0x010B3145), tag_num=0x04)
  6: 0x001D [0x27] REQ_SET(priority=0x10, entity_id=Gadalar (ID: 17510726/0x010B3146), tag_num=0x04)
  7: 0x0024 [0x27] REQ_SET(priority=0x10, entity_id=Mihli Aliapoh (ID: 17510727/0x010B3147), tag_num=0x04)
  8: 0x002B [0x27] REQ_SET(priority=0x10, entity_id=Zazarg (ID: 17510728/0x010B3148), tag_num=0x04)
  9: 0x0032 [0x27] REQ_SET(priority=0x10, entity_id=Najelith (ID: 17510729/0x010B3149), tag_num=0x04)
 10: 0x0039 [0x4E] SET_ENTITY_HIDE_FLAG: Show Unnamed NPC (ID: 17510723/0x010B3143)
 11: 0x003F [0x92] LocalPlayer->Render.Flags3 ^= 0x01
 12: 0x0045 [0x92] Unknown NPC (ID: 2147483633/0x7FFFFFF1)->Render.Flags3 ^= 0x01
 13: 0x004B [0x92] Unknown NPC (ID: 2147483634/0x7FFFFFF2)->Render.Flags3 ^= 0x01
 14: 0x0051 [0x92] Unknown NPC (ID: 2147483635/0x7FFFFFF3)->Render.Flags3 ^= 0x01
 15: 0x0057 [0x92] Unknown NPC (ID: 2147483636/0x7FFFFFF4)->Render.Flags3 ^= 0x01
 16: 0x005D [0x92] Unknown NPC (ID: 2147483637/0x7FFFFFF5)->Render.Flags3 ^= 0x01
 17: 0x0063 [0x92] Rughadjeen (ID: 17510725/0x010B3145)->Render.Flags3 ^= 0x01
 18: 0x0069 [0x92] Gadalar (ID: 17510726/0x010B3146)->Render.Flags3 ^= 0x01
 19: 0x006F [0x92] Mihli Aliapoh (ID: 17510727/0x010B3147)->Render.Flags3 ^= 0x01
 20: 0x0075 [0x92] Zazarg (ID: 17510728/0x010B3148)->Render.Flags3 ^= 0x01
 21: 0x007B [0x92] Najelith (ID: 17510729/0x010B3149)->Render.Flags3 ^= 0x01
 22: 0x0081 [0x94] LocalPlayer->Render.Flags3 ^= 0x01
 23: 0x0087 [0x94] Rughadjeen (ID: 17510725/0x010B3145)->Render.Flags3 ^= 0x01
 24: 0x008D [0x94] Gadalar (ID: 17510726/0x010B3146)->Render.Flags3 ^= 0x01
 25: 0x0093 [0x94] Mihli Aliapoh (ID: 17510727/0x010B3147)->Render.Flags3 ^= 0x01
 26: 0x0099 [0x94] Zazarg (ID: 17510728/0x010B3148)->Render.Flags3 ^= 0x01
 27: 0x009F [0x94] Najelith (ID: 17510729/0x010B3149)->Render.Flags3 ^= 0x01
 28: 0x00A5 [0x94] Unnamed NPC (ID: 17510723/0x010B3143)->Render.Flags3 ^= 0x01
 29: 0x00AB [0x94] Unknown NPC (ID: 2147483633/0x7FFFFFF1)->Render.Flags3 ^= 0x01
 30: 0x00B1 [0x94] Unknown NPC (ID: 2147483634/0x7FFFFFF2)->Render.Flags3 ^= 0x01
 31: 0x00B7 [0x94] Unknown NPC (ID: 2147483635/0x7FFFFFF3)->Render.Flags3 ^= 0x01
 32: 0x00BD [0x94] Unknown NPC (ID: 2147483636/0x7FFFFFF4)->Render.Flags3 ^= 0x01
 33: 0x00C3 [0x94] Unknown NPC (ID: 2147483637/0x7FFFFFF5)->Render.Flags3 ^= 0x01
 34: 0x00C9 [0xBA] SET_ENTITY_POSITION(entity_id=Rughadjeen (ID: 17510725/0x010B3145), pos_x=0.000*, pos_z=-359.000*, pos_y=202.499*, direction=90.0°*)
 35: 0x00D6 [0xBA] SET_ENTITY_POSITION(entity_id=Gadalar (ID: 17510726/0x010B3146), pos_x=-1.000*, pos_z=-358.500*, pos_y=202.499*, direction=90.0°*)
 36: 0x00E3 [0xBA] SET_ENTITY_POSITION(entity_id=Mihli Aliapoh (ID: 17510727/0x010B3147), pos_x=1.000*, pos_z=-358.500*, pos_y=202.499*, direction=90.0°*)
 37: 0x00F0 [0xBA] SET_ENTITY_POSITION(entity_id=Zazarg (ID: 17510728/0x010B3148), pos_x=2.000*, pos_z=-357.500*, pos_y=202.499*, direction=90.0°*)
 38: 0x00FD [0xBA] SET_ENTITY_POSITION(entity_id=Najelith (ID: 17510729/0x010B3149), pos_x=-2.000*, pos_z=-357.500*, pos_y=202.499*, direction=90.0°*)
 39: 0x010A [0xBA] SET_ENTITY_POSITION(entity_id=Unnamed NPC (ID: 17510723/0x010B3143), pos_x=0.028*, pos_z=-356.939*, pos_y=202.499*, direction=90.0°*)
 40: 0x0117 [0x80] LOAD_WAIT(entity=LocalPlayer)
 41: 0x011C [0x80] LOAD_WAIT(entity=Rughadjeen (ID: 17510725/0x010B3145))
 42: 0x0121 [0x80] LOAD_WAIT(entity=Gadalar (ID: 17510726/0x010B3146))
 43: 0x0126 [0x80] LOAD_WAIT(entity=Mihli Aliapoh (ID: 17510727/0x010B3147))
 44: 0x012B [0x80] LOAD_WAIT(entity=Zazarg (ID: 17510728/0x010B3148))
 45: 0x0130 [0x80] LOAD_WAIT(entity=Najelith (ID: 17510729/0x010B3149))
 46: 0x0135 [0x80] LOAD_WAIT(entity=Unknown NPC (ID: 2147483633/0x7FFFFFF1))
 47: 0x013A [0x80] LOAD_WAIT(entity=Unknown NPC (ID: 2147483634/0x7FFFFFF2))
 48: 0x013F [0x80] LOAD_WAIT(entity=Unknown NPC (ID: 2147483635/0x7FFFFFF3))
 49: 0x0144 [0x80] LOAD_WAIT(entity=Unknown NPC (ID: 2147483636/0x7FFFFFF4))
 50: 0x0149 [0x80] LOAD_WAIT(entity=Unknown NPC (ID: 2147483637/0x7FFFFFF5))
 51: 0x014E [0x1C] WAIT(15* ticks)
 52: 0x0151 [0x5B] LOAD_EXT_SCHEDULER: Load scheduler "war0" with entities [Rughadjeen (ID: 17510725/0x010B3145), Rughadjeen (ID: 17510725/0x010B3145)], work=888*
 53: 0x0160 [0x5B] LOAD_EXT_SCHEDULER: Load scheduler "war0" with entities [Gadalar (ID: 17510726/0x010B3146), Gadalar (ID: 17510726/0x010B3146)], work=889*
 54: 0x016F [0x5B] LOAD_EXT_SCHEDULER: Load scheduler "war0" with entities [Zazarg (ID: 17510728/0x010B3148), Zazarg (ID: 17510728/0x010B3148)], work=895*
 55: 0x017E [0x5B] LOAD_EXT_SCHEDULER: Load scheduler "war0" with entities [Mihli Aliapoh (ID: 17510727/0x010B3147), Mihli Aliapoh (ID: 17510727/0x010B3147)], work=896*
 56: 0x018D [0x5B] LOAD_EXT_SCHEDULER: Load scheduler "nj00" with entities [Najelith (ID: 17510729/0x010B3149), Najelith (ID: 17510729/0x010B3149)], work=966*
 57: 0x019C [0x5C] MUSIC_CONTROL: Set Idle (Day) music to song 196*
 58: 0x01A0 [0x5C] MUSIC_CONTROL: Set Idle (Night) music to song 196*
 59: 0x01A4 [0x9A] WAIT_MUSIC_SERVER()
 60: 0x01A5 [0x45] LOAD_SCHEDULED_TASK: Load scheduler "gl00" with entities [LocalPlayer, LocalPlayer], work=[322*, 0*]
 61: 0x01B6 [0x1A] CALL_SUBROUTINE(address=0x1D06)
 62: 0x01B9 [0x2B] Rughadjeen (ID: 17510725/0x010B3145) [7828*]:
    → "Greetings, and welcome to the Serpent Camp for Mercenaries. I'll be your head instructor, Counselor Rughadjeen."
 63: 0x01C0 [0x23] WAIT_FOR_DIALOG_INTERACTION
 64: 0x01C1 [0x52] END_LOAD_SCHEDULER: End scheduler "gl00" with entities [LocalPlayer, LocalPlayer], work=322*
 65: 0x01D0 [0x45] LOAD_SCHEDULED_TASK: Load scheduler "gg00" with entities [LocalPlayer, LocalPlayer], work=[322*, 0*]
 66: 0x01E1 [0x2B] Gadalar (ID: 17510726/0x010B3146) [7829*]:
    → "Hm? What's with the shocked silence? You know what you're here for, don't you?"
 67: 0x01E8 [0x23] WAIT_FOR_DIALOG_INTERACTION
 68: 0x01E9 [0x52] END_LOAD_SCHEDULER: End scheduler "gg00" with entities [LocalPlayer, LocalPlayer], work=322*
 69: 0x01F8 [0x45] LOAD_SCHEDULED_TASK: Load scheduler "gz00" with entities [LocalPlayer, LocalPlayer], work=[322*, 0*]
 70: 0x0209 [0x2B] Zazarg (ID: 17510728/0x010B3148) [7831*]:
    → "Bah, you're too soft on 'em. You won't have that luxury on the battlefield!"
 71: 0x0210 [0x23] WAIT_FOR_DIALOG_INTERACTION
 72: 0x0211 [0x52] END_LOAD_SCHEDULER: End scheduler "gz00" with entities [LocalPlayer, LocalPlayer], work=322*
 73: 0x0220 [0x45] LOAD_SCHEDULED_TASK: Load scheduler "gm00" with entities [LocalPlayer, LocalPlayer], work=[322*, 0*]
 74: 0x0231 [0x2B] Mihli Aliapoh (ID: 17510727/0x010B3147) [7832*]:
    → "They won't be around for long anyway. Not against the five of us!"
 75: 0x0238 [0x23] WAIT_FOR_DIALOG_INTERACTION
 76: 0x0239 [0x52] END_LOAD_SCHEDULER: End scheduler "gm00" with entities [LocalPlayer, LocalPlayer], work=322*
 77: 0x0248 [0x45] LOAD_SCHEDULED_TASK: Load scheduler "gn00" with entities [LocalPlayer, LocalPlayer], work=[322*, 0*]
 78: 0x0259 [0x2B] Najelith (ID: 17510729/0x010B3149) [7830*]:
    → "Well, of course they don't! No one ever takes the time to explain anything, they just issue orders! I'm Counselor Najelith, and I'll be assisting with your combat training."
 79: 0x0260 [0x23] WAIT_FOR_DIALOG_INTERACTION
 80: 0x0261 [0x52] END_LOAD_SCHEDULER: End scheduler "gn00" with entities [LocalPlayer, LocalPlayer], work=322*
 81: 0x0270 [0x45] LOAD_SCHEDULED_TASK: Load scheduler "ga00" with entities [LocalPlayer, LocalPlayer], work=[322*, 0*]
 82: 0x0281 [0x2B] EventEntity [7834*]:
    → "The Serpent Camp Counselors!"
 83: 0x0288 [0xBB] LOAD_EVENT_SCHEDULER_ALT: Load scheduler "main" with entities [Unnamed NPC (ID: 17510723/0x010B3143), Unnamed NPC (ID: 17510723/0x010B3143)], work=[8*, 0*]
 84: 0x0299 [0x1C] WAIT(20* ticks)
 85: 0x029C [0x45] LOAD_SCHEDULED_TASK: Load scheduler "0sbk" with entities [Unnamed NPC (ID: 17510723/0x010B3143), Unnamed NPC (ID: 17510723/0x010B3143)], work=[322*, 0*]
 86: 0x02AD [0x1C] WAIT(90* ticks)
 87: 0x02B0 [0x1A] CALL_SUBROUTINE(address=0x1D69)
 88: 0x02B3 [0x48] [System] [7827*]:
    → "Press a button to continue."
 89: 0x02B6 [0x23] WAIT_FOR_DIALOG_INTERACTION
 90: 0x02B7 [0x45] LOAD_SCHEDULED_TASK: Load scheduler "ksbk" with entities [LocalPlayer, LocalPlayer], work=[322*, 0*]
 91: 0x02C8 [0xBB] LOAD_EVENT_SCHEDULER_ALT: Load scheduler "stop" with entities [Unnamed NPC (ID: 17510723/0x010B3143), Unnamed NPC (ID: 17510723/0x010B3143)], work=[8*, 0*]
 92: 0x02D9 [0xBA] SET_ENTITY_POSITION(entity_id=Rughadjeen (ID: 17510725/0x010B3145), pos_x=0.391*, pos_z=-359.184*, pos_y=202.499*, direction=92.0°*)
 93: 0x02E6 [0xBA] SET_ENTITY_POSITION(entity_id=Gadalar (ID: 17510726/0x010B3146), pos_x=1.244*, pos_z=-360.932*, pos_y=202.499*, direction=95.8°*)
 94: 0x02F3 [0xBA] SET_ENTITY_POSITION(entity_id=Mihli Aliapoh (ID: 17510727/0x010B3147), pos_x=1.965*, pos_z=-360.564*, pos_y=202.499*, direction=103.5°*)
 95: 0x0300 [0xBA] SET_ENTITY_POSITION(entity_id=Zazarg (ID: 17510728/0x010B3148), pos_x=2.373*, pos_z=-359.762*, pos_y=202.499*, direction=100.9°*)
 96: 0x030D [0xBA] SET_ENTITY_POSITION(entity_id=Najelith (ID: 17510729/0x010B3149), pos_x=0.827*, pos_z=-360.066*, pos_y=202.499*, direction=97.8°*)
 97: 0x031A [0xBA] SET_ENTITY_POSITION(entity_id=LocalPlayer, pos_x=-1.391*, pos_z=-361.842*, pos_y=202.499*, direction=84.4°*)
 98: 0x0327 [0xBA] SET_ENTITY_POSITION(entity_id=Unknown NPC (ID: 2147483633/0x7FFFFFF1), pos_x=-0.593*, pos_z=-360.726*, pos_y=202.499*, direction=84.4°*)
 99: 0x0334 [0xBA] SET_ENTITY_POSITION(entity_id=Unknown NPC (ID: 2147483634/0x7FFFFFF2), pos_x=-2.357*, pos_z=-360.609*, pos_y=202.499*, direction=84.4°*)
100: 0x0341 [0xBA] SET_ENTITY_POSITION(entity_id=Unknown NPC (ID: 2147483635/0x7FFFFFF3), pos_x=-1.706*, pos_z=-358.757*, pos_y=202.499*, direction=84.4°*)
101: 0x034E [0xBA] SET_ENTITY_POSITION(entity_id=Unknown NPC (ID: 2147483636/0x7FFFFFF4), pos_x=-0.513*, pos_z=-358.617*, pos_y=202.499*, direction=84.4°*)
102: 0x035B [0xBA] SET_ENTITY_POSITION(entity_id=Unknown NPC (ID: 2147483637/0x7FFFFFF5), pos_x=-2.884*, pos_z=-359.015*, pos_y=202.499*, direction=84.4°*)
103: 0x0368 [0x5B] LOAD_EXT_SCHEDULER: Load scheduler "splb" with entities [Rughadjeen (ID: 17510725/0x010B3145), Rughadjeen (ID: 17510725/0x010B3145)], work=888*
104: 0x0377 [0x5B] LOAD_EXT_SCHEDULER: Load scheduler "splb" with entities [Gadalar (ID: 17510726/0x010B3146), Gadalar (ID: 17510726/0x010B3146)], work=889*
105: 0x0386 [0x5B] LOAD_EXT_SCHEDULER: Load scheduler "spla" with entities [Mihli Aliapoh (ID: 17510727/0x010B3147), Mihli Aliapoh (ID: 17510727/0x010B3147)], work=896*
106: 0x0395 [0x5B] LOAD_EXT_SCHEDULER: Load scheduler "splb" with entities [Najelith (ID: 17510729/0x010B3149), Najelith (ID: 17510729/0x010B3149)], work=897*
107: 0x03A4 [0x27] REQ_SET(priority=0x10, entity_id=LocalPlayer, tag_num=0x0C)
108: 0x03AB [0x27] REQ_SET(priority=0x10, entity_id=Unknown NPC (ID: 2147483633/0x7FFFFFF1), tag_num=0x03)
109: 0x03B2 [0x27] REQ_SET(priority=0x10, entity_id=Unknown NPC (ID: 2147483634/0x7FFFFFF2), tag_num=0x03)
110: 0x03B9 [0x52] END_LOAD_SCHEDULER: End scheduler "ga00" with entities [LocalPlayer, LocalPlayer], work=322*
111: 0x03C8 [0x45] LOAD_SCHEDULED_TASK: Load scheduler "0blf" with entities [LocalPlayer, LocalPlayer], work=[322*, 0*]
112: 0x03D9 [0x45] LOAD_SCHEDULED_TASK: Load scheduler "1goj" with entities [LocalPlayer, LocalPlayer], work=[322*, 0*]
113: 0x03EA [0x1A] CALL_SUBROUTINE(address=0x1D48)
114: 0x03ED [0x48] [System] [7827*]:
    → "Press a button to continue."
115: 0x03F0 [0x23] WAIT_FOR_DIALOG_INTERACTION
116: 0x03F1 [0x1A] CALL_SUBROUTINE(address=0x1D27)
117: 0x03F4 [0x1C] WAIT(30* ticks)
118: 0x03F7 [0x52] END_LOAD_SCHEDULER: End scheduler "0goj" with entities [LocalPlayer, LocalPlayer], work=322*
119: 0x0406 [0x5C] MUSIC_CONTROL: Set Idle (Day) music to song 0*
120: 0x040A [0x5C] MUSIC_CONTROL: Set Idle (Night) music to song 0*
121: 0x040E [0x9A] WAIT_MUSIC_SERVER()
122: 0x040F [0x46] CAMERA_CONTROL: Restore default settings
123: 0x0411 [0x45] LOAD_SCHEDULED_TASK: Load scheduler "fdi2" with entities [LocalPlayer, LocalPlayer], work=[200*, 0*]
124: 0x0422 [0x21] END_EVENT
125: 0x0423 [0x00] END_REQSTACK()
```

### Event 17

#### Metadata

| Field        | Value      |
|--------------|------------|
| Entrypoint   | 0x0424     |
| Data Size    | 6961 bytes |
| Instructions | 698        |

```
      00 01 02 03 04 05 06 07  08 09 0A 0B 0C 0D 0E 0F
      -- -- -- -- -- -- -- --  -- -- -- -- -- -- -- --
0420:             97 01 80 3E  80 20 01 46 01 42 38 00      ...>. .F.B8.
0430: 80 4E 00 F0 FF FF 7F 2F  00 22 31 0B 01 2F 00 27  .N...../."1../.'
0440: 31 0B 01 2F 00 26 31 0B  01 2F 00 24 31 0B 01 2F  1../.&1../.$1../
0450: 00 25 31 0B 01 2F 00 2A  31 0B 01 2F 00 2B 31 0B  .%1../.*1../.+1.
0460: 01 2F 00 2C 31 0B 01 2F  00 2D 31 0B 01 2F 00 2E  ./.,1../.-1../..
0470: 31 0B 01 4E 00 26 31 0B  01 4E 00 24 31 0B 01 4E  1..N.&1..N.$1..N
0480: 00 25 31 0B 01 4E 00 23  31 0B 01 4E 00 22 31 0B  .%1..N.#1..N."1.
0490: 01 4E 00 2A 31 0B 01 4E  00 2B 31 0B 01 4E 00 2C  .N.*1..N.+1..N.,
04A0: 31 0B 01 4E 00 2D 31 0B  01 4E 00 2E 31 0B 01 94  1..N.-1..N..1...
04B0: 01 22 31 0B 01 94 01 27  31 0B 01 94 01 26 31 0B  ."1....'1....&1.
04C0: 01 94 01 24 31 0B 01 94  01 25 31 0B 01 94 01 2A  ...$1....%1....*
04D0: 31 0B 01 94 01 2B 31 0B  01 94 01 2C 31 0B 01 94  1....+1....,1...
04E0: 01 2D 31 0B 01 94 01 2E  31 0B 01 92 01 22 31 0B  .-1.....1...."1.
04F0: 01 92 01 23 31 0B 01 92  01 27 31 0B 01 92 01 26  ...#1....'1....&
0500: 31 0B 01 92 01 24 31 0B  01 92 01 25 31 0B 01 92  1....$1....%1...
0510: 01 28 31 0B 01 5C 00 3F  80 5C 01 3F 80 45 3D 80  .(1..\.?.\.?.E=.
0520: F0 FF FF 7F F0 FF FF 7F  66 64 6F 31 01 80 55 3D  ........fdo1..U=
0530: 80 F0 FF FF 7F F0 FF FF  7F 66 64 6F 31 79 00 F0  .........fdo1y..
0540: FF FF 7F 22 31 0B 01 BA  F0 FF FF 7F 01 80 40 80  ..."1.........@.
0550: 41 80 42 80 29 03 22 31  0B 01 19 29 03 23 31 0B  A.B.)."1...).#1.
0560: 01 04 2C 23 31 0B 01 23  31 0B 01 6B 69 6C 6C 27  ..,#1..#1..kill'
0570: 03 24 31 0B 01 06 27 03  25 31 0B 01 05 27 03 26  .$1...'.%1...'.&
0580: 31 0B 01 06 45 43 80 F0  FF FF 7F F0 FF FF 7F 78  1...EC.........x
0590: 30 30 30 01 80 55 43 80  F0 FF FF 7F F0 FF FF 7F  000..UC.........
05A0: 78 30 30 30 45 3D 80 F0  FF FF 7F F0 FF FF 7F 66  x000E=.........f
05B0: 64 69 31 01 80 27 03 23  31 0B 01 05 27 03 22 31  di1..'.#1...'."1
05C0: 0B 01 18 45 43 80 F0 FF  FF 7F F0 FF FF 7F 78 30  ...EC.........x0
05D0: 30 31 01 80 27 10 F0 FF  FF 7F 14 27 04 22 31 0B  01..'......'."1.
05E0: 01 1A 55 43 80 F0 FF FF  7F F0 FF FF 7F 78 30 30  ..UC.........x00
05F0: 33 2B 22 31 0B 01 44 80  23 5D 01 80 45 80 2A 04  3+"1..D.#]..E.*.
0600: 22 31 0B 01 5B 46 80 F0  FF FF 7F F0 FF FF 7F 00  "1..[F..........
0610: FE FE FE 27 03 22 31 0B  01 1B 1C 3C 80 4E 00 27  ...'."1....<.N.'
0620: 31 0B 01 80 27 31 0B 01  45 43 80 F0 FF FF 7F F0  1...'1..EC......
0630: FF FF 7F 78 30 30 34 01  80 27 03 27 31 0B 01 02  ...x004..'.'1...
0640: 2B 22 31 0B 01 47 80 23  55 43 80 F0 FF FF 7F F0  +"1..G.#UC......
0650: FF FF 7F 78 30 30 34 2B  27 31 0B 01 48 80 23 2A  ...x004+'1..H.#*
0660: 03 27 31 0B 01 27 02 22  31 0B 01 1C 45 43 80 F0  .'1..'."1...EC..
0670: FF FF 7F F0 FF FF 7F 78  30 30 35 01 80 1C 3C 80  .......x005...<.
0680: 2B 22 31 0B 01 49 80 23  2A 03 27 31 0B 01 55 43  +"1..I.#*.'1..UC
0690: 80 F0 FF FF 7F F0 FF FF  7F 78 30 30 35 45 43 80  .........x005EC.
06A0: F0 FF FF 7F F0 FF FF 7F  78 30 30 36 01 80 55 43  ........x006..UC
06B0: 80 F0 FF FF 7F F0 FF FF  7F 78 30 30 36 2B 27 31  .........x006+'1
06C0: 0B 01 4A 80 23 45 43 80  F0 FF FF 7F F0 FF FF 7F  ..J.#EC.........
06D0: 78 30 30 37 01 80 2B 22  31 0B 01 4B 80 23 2A 03  x007..+"1..K.#*.
06E0: 22 31 0B 01 27 03 22 31  0B 01 1D 1C 0D 80 2B 22  "1..'."1......+"
06F0: 31 0B 01 4C 80 23 52 43  80 F0 FF FF 7F F0 FF FF  1..L.#RC........
0700: 7F 78 30 30 37 1C 0D 80  45 43 80 F0 FF FF 7F F0  .x007...EC......
0710: FF FF 7F 78 30 30 38 01  80 55 43 80 F0 FF FF 7F  ...x008..UC.....
0720: F0 FF FF 7F 78 30 30 38  45 43 80 F0 FF FF 7F F0  ....x008EC......
0730: FF FF 7F 78 30 30 62 01  80 2B 27 31 0B 01 4D 80  ...x00b..+'1..M.
0740: 23 2B 27 31 0B 01 4E 80  23 5B 4F 80 2E 31 0B 01  #+'1..N.#[O..1..
0750: 2E 31 0B 01 00 FE FE FE  5B 50 80 2A 31 0B 01 2A  .1......[P.*1..*
0760: 31 0B 01 00 FE FE FE 5B  51 80 2B 31 0B 01 2B 31  1......[Q.+1..+1
0770: 0B 01 00 FE FE FE 5B 52  80 24 31 0B 01 24 31 0B  ......[R.$1..$1.
0780: 01 00 FE FE FE 5B 53 80  25 31 0B 01 25 31 0B 01  .....[S.%1..%1..
0790: 00 FE FE FE 5B 54 80 26  31 0B 01 26 31 0B 01 00  ....[T.&1..&1...
07A0: FE FE FE 52 43 80 F0 FF  FF 7F F0 FF FF 7F 78 30  ...RC.........x0
07B0: 30 62 45 43 80 F0 FF FF  7F F0 FF FF 7F 71 30 30  0bEC.........q00
07C0: 30 01 80 27 03 27 31 0B  01 0C 1C 55 80 2A 03 27  0..'.'1....U.*.'
07D0: 31 0B 01 55 43 80 F0 FF  FF 7F F0 FF FF 7F 71 30  1..UC.........q0
07E0: 30 30 27 03 27 31 0B 01  0D 1C 1C 80 45 43 80 24  00'.'1......EC.$
07F0: 31 0B 01 24 31 0B 01 00  FE FE FE 01 80 27 03 25  1..$1........'.%
0800: 31 0B 01 0A 1C 56 80 27  03 2E 31 0B 01 07 1C 3C  1....V.'..1....<
0810: 80 45 43 80 F0 FF FF 7F  F0 FF FF 7F 71 30 30 31  .EC.........q001
0820: 01 80 55 43 80 F0 FF FF  7F F0 FF FF 7F 71 30 30  ..UC.........q00
0830: 31 45 43 80 F0 FF FF 7F  F0 FF FF 7F 71 30 30 32  1EC.........q002
0840: 01 80 1C 56 80 45 3D 80  2F 31 0B 01 2F 31 0B 01  ...V.E=./1../1..
0850: 62 6C 6F 6E 01 80 2A 03  25 31 0B 01 45 43 80 24  blon..*.%1..EC.$
0860: 31 0B 01 24 31 0B 01 7A  73 65 32 01 80 52 43 80  1..$1..zse2..RC.
0870: F0 FF FF 7F F0 FF FF 7F  71 30 30 32 45 3D 80 2F  ........q002E=./
0880: 31 0B 01 2F 31 0B 01 62  6C 6F 66 01 80 45 43 80  1../1..blof..EC.
0890: F0 FF FF 7F F0 FF FF 7F  71 30 30 33 01 80 55 43  ........q003..UC
08A0: 80 F0 FF FF 7F F0 FF FF  7F 71 30 30 33 45 43 80  .........q003EC.
08B0: F0 FF FF 7F F0 FF FF 7F  71 30 30 34 01 80 27 03  ........q004..'.
08C0: 2B 31 0B 01 07 27 03 26  31 0B 01 0C 45 43 80 F0  +1...'.&1...EC..
08D0: FF FF 7F F0 FF FF 7F 71  30 30 33 01 80 2B 25 31  .......q003..+%1
08E0: 0B 01 57 80 23 1C 58 80  45 43 80 F0 FF FF 7F F0  ..W.#.X.EC......
08F0: FF FF 7F 7A 73 65 37 01  80 1C 1C 80 1C 59 80 2A  ...zse7......Y.*
0900: 03 26 31 0B 01 45 43 80  F0 FF FF 7F F0 FF FF 7F  .&1..EC.........
0910: 7A 73 65 30 01 80 52 43  80 F0 FF FF 7F F0 FF FF  zse0..RC........
0920: 7F 71 30 30 62 45 3D 80  2F 31 0B 01 2F 31 0B 01  .q00bE=./1../1..
0930: 62 6C 6F 66 01 80 27 03  24 31 0B 01 0A 1C 56 80  blof..'.$1....V.
0940: 45 43 80 F0 FF FF 7F F0  FF FF 7F 71 30 30 35 01  EC.........q005.
0950: 80 55 43 80 F0 FF FF 7F  F0 FF FF 7F 71 30 30 35  .UC.........q005
0960: 45 43 80 F0 FF FF 7F F0  FF FF 7F 71 30 30 36 01  EC.........q006.
0970: 80 27 03 2A 31 0B 01 07  1C 55 80 45 43 80 F0 FF  .'.*1....U.EC...
0980: FF 7F F0 FF FF 7F 7A 73  65 38 01 80 2B 24 31 0B  ......zse8..+$1.
0990: 01 5A 80 23 1C 56 80 2A  03 24 31 0B 01 45 43 80  .Z.#.V.*.$1..EC.
09A0: F0 FF FF 7F F0 FF FF 7F  7A 73 65 31 01 80 52 43  ........zse1..RC
09B0: 80 F0 FF FF 7F F0 FF FF  7F 71 30 30 61 1C 56 80  .........q00a.V.
09C0: 27 03 26 31 0B 01 05 27  03 24 31 0B 01 0D 27 03  '.&1...'.$1...'.
09D0: 25 31 0B 01 0D 27 04 26  31 0B 01 0E 27 04 24 31  %1...'.&1...'.$1
09E0: 0B 01 0C 27 04 25 31 0B  01 0B 7B 27 31 0B 01 45  ...'.%1...{'1..E
09F0: 3D 80 25 31 0B 01 25 31  0B 01 6F 76 6C 31 01 80  =.%1..%1..ovl1..
0A00: 45 43 80 F0 FF FF 7F F0  FF FF 7F 71 30 30 37 01  EC.........q007.
0A10: 80 45 3D 80 2F 31 0B 01  2F 31 0B 01 62 6C 6F 66  .E=./1../1..blof
0A20: 01 80 27 03 27 31 0B 01  04 62 5B 80 2E 31 0B 01  ..'.'1...b[..1..
0A30: 2E 31 0B 01 00 FE FE FE  01 80 62 5B 80 2A 31 0B  .1........b[.*1.
0A40: 01 2A 31 0B 01 00 FE FE  FE 01 80 62 5B 80 2B 31  .*1........b[.+1
0A50: 0B 01 2B 31 0B 01 00 FE  FE FE 01 80 62 5B 80 2C  ..+1........b[.,
0A60: 31 0B 01 2C 31 0B 01 00  FE FE FE 01 80 62 5B 80  1..,1........b[.
0A70: 2D 31 0B 01 2D 31 0B 01  00 FE FE FE 01 80 45 5C  -1..-1........E\
0A80: 80 2F 31 0B 01 2F 31 0B  01 00 FE FE FE 01 80 1C  ./1../1.........
0A90: 1D 80 27 03 2A 31 0B 01  06 27 03 2E 31 0B 01 06  ..'.*1...'..1...
0AA0: 1C 56 80 27 03 2C 31 0B  01 06 27 03 2D 31 0B 01  .V.'.,1...'.-1..
0AB0: 06 1C 56 80 27 03 2B 31  0B 01 06 1C 55 80 45 5C  ..V.'.+1....U.E\
0AC0: 80 2F 31 0B 01 2F 31 0B  01 77 68 6F 31 01 80 55  ./1../1..who1..U
0AD0: 5C 80 2F 31 0B 01 2F 31  0B 01 77 68 6F 31 55 43  \./1../1..who1UC
0AE0: 80 F0 FF FF 7F F0 FF FF  7F 71 30 30 37 2A 03 27  .........q007*.'
0AF0: 31 0B 01 45 43 80 F0 FF  FF 7F F0 FF FF 7F 78 30  1..EC.........x0
0B00: 30 39 01 80 55 43 80 F0  FF FF 7F F0 FF FF 7F 78  09..UC.........x
0B10: 30 30 39 1C 5D 80 45 5C  80 2F 31 0B 01 2F 31 0B  009.].E\./1../1.
0B20: 01 77 68 69 31 01 80 1C  3C 80 27 03 27 31 0B 01  .whi1...<.'.'1..
0B30: 05 1C 1D 80 69 01 5E 80  45 43 80 F0 FF FF 7F F0  ....i.^.EC......
0B40: FF FF 7F 78 30 31 30 01  80 27 03 28 31 0B 01 04  ...x010..'.(1...
0B50: 27 03 26 31 0B 01 0A 5D  01 80 5F 80 1C 60 80 52  '.&1...].._..`.R
0B60: 43 80 F0 FF FF 7F F0 FF  FF 7F 78 30 31 30 45 43  C.........x010EC
0B70: 80 F0 FF FF 7F F0 FF FF  7F 78 30 31 31 01 80 55  .........x011..U
0B80: 43 80 F0 FF FF 7F F0 FF  FF 7F 78 30 31 31 29 03  C.........x011).
0B90: 27 31 0B 01 06 29 03 24  31 0B 01 0E 69 00 5E 80  '1...).$1...i.^.
0BA0: 5C 00 61 80 5C 01 61 80  45 43 80 F0 FF FF 7F F0  \.a.\.a.EC......
0BB0: FF FF 7F 78 30 31 61 01  80 55 43 80 F0 FF FF 7F  ...x01a..UC.....
0BC0: F0 FF FF 7F 78 30 31 61  1C 56 80 45 43 80 F0 FF  ....x01a.V.EC...
0BD0: FF 7F F0 FF FF 7F 78 30  31 32 01 80 1C 55 80 27  ......x012...U.'
0BE0: 03 26 31 0B 01 0B 1C 55  80 2B 26 31 0B 01 62 80  .&1....U.+&1..b.
0BF0: 23 55 43 80 F0 FF FF 7F  F0 FF FF 7F 78 30 31 32  #UC.........x012
0C00: 27 03 27 31 0B 01 07 2A  03 26 31 0B 01 45 43 80  '.'1...*.&1..EC.
0C10: F0 FF FF 7F F0 FF FF 7F  78 30 31 33 01 80 55 43  ........x013..UC
0C20: 80 F0 FF FF 7F F0 FF FF  7F 78 30 31 33 1C 5D 80  .........x013.].
0C30: 2B 27 31 0B 01 63 80 23  2A 03 27 31 0B 01 27 03  +'1..c.#*.'1..'.
0C40: 27 31 0B 01 08 1C 3C 80  45 43 80 F0 FF FF 7F F0  '1....<.EC......
0C50: FF FF 7F 78 30 31 34 01  80 2B 27 31 0B 01 64 80  ...x014..+'1..d.
0C60: 23 55 43 80 F0 FF FF 7F  F0 FF FF 7F 78 30 31 34  #UC.........x014
0C70: 27 03 26 31 0B 01 0A 27  03 22 31 0B 01 1E 1C 3C  '.&1...'."1....<
0C80: 80 45 43 80 F0 FF FF 7F  F0 FF FF 7F 78 30 31 35  .EC.........x015
0C90: 01 80 29 04 27 31 0B 01  09 2B 22 31 0B 01 65 80  ..).'1...+"1..e.
0CA0: 23 2A 03 22 31 0B 01 55  43 80 F0 FF FF 7F F0 FF  #*."1..UC.......
0CB0: FF 7F 78 30 31 35 45 43  80 F0 FF FF 7F F0 FF FF  ..x015EC........
0CC0: 7F 70 30 30 30 01 80 55  43 80 F0 FF FF 7F F0 FF  .p000..UC.......
0CD0: FF 7F 70 30 30 30 27 03  27 31 0B 01 0A 1C 1D 80  ..p000'.'1......
0CE0: 45 43 80 F0 FF FF 7F F0  FF FF 7F 70 30 30 31 01  EC.........p001.
0CF0: 80 1C 1D 80 2B 27 31 0B  01 66 80 23 55 43 80 F0  ....+'1..f.#UC..
0D00: FF FF 7F F0 FF FF 7F 70  30 30 31 2A 03 27 31 0B  .......p001*.'1.
0D10: 01 29 03 27 31 0B 01 0B  27 03 22 31 0B 01 1F 27  .).'1...'."1...'
0D20: 03 24 31 0B 01 0E 27 04  24 31 0B 01 0F 27 04 26  .$1...'.$1...'.&
0D30: 31 0B 01 0A 27 04 25 31  0B 01 0C 27 03 28 31 0B  1...'.%1...'.(1.
0D40: 01 05 1C 3C 80 2B 22 31  0B 01 67 80 23 2A 03 22  ...<.+"1..g.#*."
0D50: 31 0B 01 2A 04 24 31 0B  01 2A 04 25 31 0B 01 5D  1..*.$1..*.%1..]
0D60: 61 80 5F 80 45 43 80 F0  FF FF 7F F0 FF FF 7F 77  a._.EC.........w
0D70: 30 30 30 01 80 27 04 27  31 0B 01 0F 1C 55 80 2B  000..'.'1....U.+
0D80: 24 31 0B 01 68 80 23 2A  04 27 31 0B 01 55 43 80  $1..h.#*.'1..UC.
0D90: F0 FF FF 7F F0 FF FF 7F  77 30 30 30 27 04 27 31  ........w000'.'1
0DA0: 0B 01 10 1C 0D 80 45 43  80 F0 FF FF 7F F0 FF FF  ......EC........
0DB0: 7F 77 30 30 32 01 80 2B  27 31 0B 01 69 80 23 2B  .w002..+'1..i.#+
0DC0: 27 31 0B 01 6A 80 23 27  05 27 31 0B 01 11 52 43  '1..j.#'.'1...RC
0DD0: 80 F0 FF FF 7F F0 FF FF  7F 77 30 30 32 45 43 80  .........w002EC.
0DE0: F0 FF FF 7F F0 FF FF 7F  77 30 30 31 01 80 55 43  ........w001..UC
0DF0: 80 F0 FF FF 7F F0 FF FF  7F 77 30 30 31 79 00 24  .........w001y.$
0E00: 31 0B 01 27 31 0B 01 1C  1C 80 2B 24 31 0B 01 6B  1..'1.....+$1..k
0E10: 80 23 7B 24 31 0B 01 45  3D 80 F8 FF FF 7F F8 FF  .#{$1..E=.......
0E20: FF 7F 6F 76 6C 31 01 80  45 43 80 F0 FF FF 7F F0  ..ovl1..EC......
0E30: FF FF 7F 77 30 30 61 01  80 2B 27 31 0B 01 6C 80  ...w00a..+'1..l.
0E40: 23 2A 05 27 31 0B 01 2B  27 31 0B 01 6D 80 23 27  #*.'1..+'1..m.#'
0E50: 02 27 31 0B 01 15 2B 27  31 0B 01 6E 80 23 2A 02  .'1...+'1..n.#*.
0E60: 27 31 0B 01 27 03 27 31  0B 01 16 52 43 80 F0 FF  '1..'.'1...RC...
0E70: FF 7F F0 FF FF 7F 77 30  30 61 45 3D 80 F8 FF FF  ......w00aE=....
0E80: 7F F8 FF FF 7F 6F 76 6C  31 01 80 45 3D 80 F0 FF  .....ovl1..E=...
0E90: FF 7F F0 FF FF 7F 6F 76  6C 31 01 80 45 43 80 F0  ......ovl1..EC..
0EA0: FF FF 7F F0 FF FF 7F 77  30 30 37 01 80 2A 03 27  .......w007..*.'
0EB0: 31 0B 01 55 43 80 F0 FF  FF 7F F0 FF FF 7F 77 30  1..UC.........w0
0EC0: 30 37 2B 25 31 0B 01 6F  80 23 5B 70 80 26 31 0B  07+%1..o.#[p.&1.
0ED0: 01 26 31 0B 01 00 FE FE  FE 45 43 80 F0 FF FF 7F  .&1......EC.....
0EE0: F0 FF FF 7F 77 30 30 36  01 80 55 43 80 F0 FF FF  ....w006..UC....
0EF0: 7F F0 FF FF 7F 77 30 30  36 2B 27 31 0B 01 71 80  .....w006+'1..q.
0F00: 23 27 03 27 31 0B 01 17  2B 27 31 0B 01 72 80 23  #'.'1...+'1..r.#
0F10: 27 03 26 31 0B 01 10 1C  55 80 45 43 80 F0 FF FF  '.&1....U.EC....
0F20: 7F F0 FF FF 7F 77 30 30  38 01 80 55 43 80 F0 FF  .....w008..UC...
0F30: FF 7F F0 FF FF 7F 77 30  30 38 2B 26 31 0B 01 73  ......w008+&1..s
0F40: 80 23 2A 03 26 31 0B 01  2A 03 27 31 0B 01 27 03  .#*.&1..*.'1..'.
0F50: 27 31 0B 01 08 1C 56 80  45 43 80 F0 FF FF 7F F0  '1....V.EC......
0F60: FF FF 7F 77 30 30 39 01  80 55 43 80 F0 FF FF 7F  ...w009..UC.....
0F70: F0 FF FF 7F 77 30 30 39  2B 27 31 0B 01 74 80 23  ....w009+'1..t.#
0F80: 45 43 80 F0 FF FF 7F F0  FF FF 7F 77 30 31 31 01  EC.........w011.
0F90: 80 55 43 80 F0 FF FF 7F  F0 FF FF 7F 77 30 31 31  .UC.........w011
0FA0: 6C 29 31 0B 01 01 80 01  80 4E 00 29 31 0B 01 62  l)1......N.)1..b
0FB0: 43 80 29 31 0B 01 29 31  0B 01 00 FE FE FE 01 80  C.)1..)1........
0FC0: 45 43 80 F0 FF FF 7F F0  FF FF 7F 77 30 30 62 01  EC.........w00b.
0FD0: 80 6C 29 31 0B 01 75 80  5D 80 62 43 80 29 31 0B  .l)1..u.].bC.)1.
0FE0: 01 29 31 0B 01 6D 61 69  6E 01 80 2B 27 31 0B 01  .)1..main..+'1..
0FF0: 76 80 23 55 43 80 F0 FF  FF 7F F0 FF FF 7F 77 30  v.#UC.........w0
1000: 30 62 27 03 29 31 0B 01  02 27 03 28 31 0B 01 06  0b'.)1...'.(1...
1010: 1C 58 80 27 03 2D 31 0B  01 07 1C 77 80 79 00 27  .X.'.-1....w.y.'
1020: 31 0B 01 28 31 0B 01 45  43 80 F0 FF FF 7F F0 FF  1..(1..EC.......
1030: FF 7F 77 30 31 30 01 80  27 03 27 31 0B 01 20 4E  ..w010..'.'1.. N
1040: 01 29 31 0B 01 4E 01 28  31 0B 01 2A 03 2D 31 0B  .)1..N.(1..*.-1.
1050: 01 55 43 80 F0 FF FF 7F  F0 FF FF 7F 77 30 31 30  .UC.........w010
1060: 4E 00 28 31 0B 01 4E 00  29 31 0B 01 62 43 80 29  N.(1..N.)1..bC.)
1070: 31 0B 01 29 31 0B 01 6D  61 69 6E 01 80 5D 01 80  1..)1..main..]..
1080: 5F 80 2B 27 31 0B 01 78  80 23 27 03 26 31 0B 01  _.+'1..x.#'.&1..
1090: 0F 1C 55 80 2B 26 31 0B  01 79 80 23 45 43 80 F0  ..U.+&1..y.#EC..
10A0: FF FF 7F F0 FF FF 7F 77  30 31 33 01 80 27 03 26  .......w013..'.&
10B0: 31 0B 01 0A 27 03 27 31  0B 01 21 62 43 80 29 31  1...'.'1..!bC.)1
10C0: 0B 01 29 31 0B 01 6D 61  69 6E 01 80 27 03 28 31  ..)1..main..'.(1
10D0: 0B 01 07 29 03 29 31 0B  01 03 55 43 80 F0 FF FF  ...).)1...UC....
10E0: 7F F0 FF FF 7F 77 30 31  33 29 04 29 31 0B 01 04  .....w013).)1...
10F0: 69 01 5E 80 45 3D 80 F0  FF FF 7F F0 FF FF 7F 62  i.^.E=.........b
1100: 6C 6F 6E 01 80 45 43 80  F0 FF FF 7F F0 FF FF 7F  lon..EC.........
1110: 77 30 31 34 01 80 27 05  29 31 0B 01 05 55 43 80  w014..'.)1...UC.
1120: F0 FF FF 7F F0 FF FF 7F  77 30 31 34 2A 05 29 31  ........w014*.)1
1130: 0B 01 27 03 27 31 0B 01  18 45 3D 80 2F 31 0B 01  ..'.'1...E=./1..
1140: 2F 31 0B 01 6F 76 6C 31  01 80 45 43 80 F0 FF FF  /1..ovl1..EC....
1150: 7F F0 FF FF 7F 77 30 31  35 01 80 27 03 28 31 0B  .....w015..'.(1.
1160: 01 09 5C 00 7A 80 5C 01  7A 80 9A 62 7B 80 28 31  ..\.z.\.z..b{.(1
1170: 0B 01 28 31 0B 01 6D 61  69 6E 01 80 55 43 80 F0  ..(1..main..UC..
1180: FF FF 7F F0 FF FF 7F 77  30 31 35 1C 7C 80 45 3D  .......w015.|.E=
1190: 80 F0 FF FF 7F F0 FF FF  7F 62 6C 6F 66 01 80 45  .........blof..E
11A0: 43 80 F0 FF FF 7F F0 FF  FF 7F 77 30 31 36 01 80  C.........w016..
11B0: 55 43 80 F0 FF FF 7F F0  FF FF 7F 77 30 31 36 1C  UC.........w016.
11C0: 3D 80 69 00 5E 80 45 43  80 F0 FF FF 7F F0 FF FF  =.i.^.EC........
11D0: 7F 77 30 32 33 01 80 1C  3D 80 2D F0 FF FF 7F F0  .w023...=.-.....
11E0: FF FF 7F 73 69 73 73 79  00 27 31 0B 01 28 31 0B  ...sissy.'1..(1.
11F0: 01 1C 7D 80 27 03 27 31  0B 01 04 1C 7D 80 2D F0  ..}.'.'1....}.-.
1200: FF FF 7F F0 FF FF 7F 70  6C 6B 73 55 43 80 F0 FF  .......plksUC...
1210: FF 7F F0 FF FF 7F 77 30  32 33 7B 27 31 0B 01 45  ......w023{'1..E
1220: 5C 80 2F 31 0B 01 2F 31  0B 01 00 FE FE FE 01 80  \./1../1........
1230: 45 43 80 F0 FF FF 7F F0  FF FF 7F 77 30 31 38 01  EC.........w018.
1240: 80 1C 7E 80 52 43 80 F0  FF FF 7F F0 FF FF 7F 77  ..~.RC.........w
1250: 30 31 38 45 43 80 F0 FF  FF 7F F0 FF FF 7F 77 30  018EC.........w0
1260: 32 30 01 80 55 43 80 F0  FF FF 7F F0 FF FF 7F 77  20..UC.........w
1270: 30 32 30 45 43 80 F0 FF  FF 7F F0 FF FF 7F 77 30  020EC.........w0
1280: 32 31 01 80 55 43 80 F0  FF FF 7F F0 FF FF 7F 77  21..UC.........w
1290: 30 32 31 1C 3C 80 45 43  80 F0 FF FF 7F F0 FF FF  021.<.EC........
12A0: 7F 77 30 31 39 01 80 1C  7F 80 52 43 80 F0 FF FF  .w019.....RC....
12B0: 7F F0 FF FF 7F 77 30 31  39 45 43 80 F0 FF FF 7F  .....w019EC.....
12C0: F0 FF FF 7F 77 30 32 32  01 80 55 43 80 F0 FF FF  ....w022..UC....
12D0: 7F F0 FF FF 7F 77 30 32  32 1C 0D 80 45 5C 80 2F  .....w022...E\./
12E0: 31 0B 01 2F 31 0B 01 77  68 6F 31 01 80 55 5C 80  1../1..who1..U\.
12F0: 2F 31 0B 01 2F 31 0B 01  77 68 6F 31 27 04 27 31  /1../1..who1'.'1
1300: 0B 01 05 6B 69 64 6C 30  29 31 0B 01 1C 5D 80 77  ...kidl0)1...].w
1310: 1B 80 80 80 45 43 80 F0  FF FF 7F F0 FF FF 7F 76  ....EC.........v
1320: 30 30 31 01 80 55 43 80  F0 FF FF 7F F0 FF FF 7F  001..UC.........
1330: 76 30 30 31 2D F0 FF FF  7F F0 FF FF 7F 65 76 6E  v001-........evn
1340: 74 45 5C 80 F0 FF FF 7F  F0 FF FF 7F 77 68 69 31  tE\.........whi1
1350: 01 80 1C 55 80 45 43 80  F0 FF FF 7F F0 FF FF 7F  ...U.EC.........
1360: 76 30 30 32 01 80 55 43  80 F0 FF FF 7F F0 FF FF  v002..UC........
1370: 7F 76 30 30 32 45 43 80  F0 FF FF 7F F0 FF FF 7F  .v002EC.........
1380: 76 30 30 33 01 80 1C 81  80 52 43 80 F0 FF FF 7F  v003.....RC.....
1390: F0 FF FF 7F 76 30 30 33  45 43 80 F0 FF FF 7F F0  ....v003EC......
13A0: FF FF 7F 76 30 30 30 01  80 1C 3C 80 52 43 80 F0  ...v000...<.RC..
13B0: FF FF 7F F0 FF FF 7F 76  30 30 30 45 43 80 F0 FF  .......v000EC...
13C0: FF 7F F0 FF FF 7F 76 30  30 35 01 80 1C 82 80 45  ......v005.....E
13D0: 43 80 F0 FF FF 7F F0 FF  FF 7F 76 30 30 34 01 80  C.........v004..
13E0: 1C 83 80 2D F0 FF FF 7F  F0 FF FF 7F 73 74 61 31  ...-........sta1
13F0: 52 43 80 F0 FF FF 7F F0  FF FF 7F 76 30 30 34 45  RC.........v004E
1400: 3D 80 F0 FF FF 7F F0 FF  FF 7F 6F 76 6C 31 01 80  =.........ovl1..
1410: 45 43 80 F0 FF FF 7F F0  FF FF 7F 72 30 30 30 01  EC.........r000.
1420: 80 78 77 1B 80 3E 80 2D  F0 FF FF 7F F0 FF FF 7F  .xw..>.-........
1430: 73 74 6F 70 45 5C 80 22  31 0B 01 22 31 0B 01 00  stopE\."1.."1...
1440: FE FE FE 01 80 38 00 80  4E 00 28 31 0B 01 92 01  .....8..N.(1....
1450: 28 31 0B 01 27 04 28 31  0B 01 0A BA F0 FF FF 7F  (1..'.(1........
1460: 01 80 84 80 41 80 85 80  2B 25 31 0B 01 86 80 23  ....A...+%1....#
1470: 55 43 80 F0 FF FF 7F F0  FF FF 7F 72 30 30 30 1C  UC.........r000.
1480: 56 80 45 43 80 F0 FF FF  7F F0 FF FF 7F 72 30 30  V.EC.........r00
1490: 31 01 80 27 03 27 31 0B  01 1F 1C 55 80 2B 27 31  1..'.'1....U.+'1
14A0: 0B 01 87 80 23 55 43 80  F0 FF FF 7F F0 FF FF 7F  ....#UC.........
14B0: 72 30 30 31 1C 56 80 45  43 80 F0 FF FF 7F F0 FF  r001.V.EC.......
14C0: FF 7F 72 30 30 32 01 80  2B 24 31 0B 01 88 80 23  ..r002..+$1....#
14D0: 6B 69 64 6C 30 27 31 0B  01 55 43 80 F0 FF FF 7F  kidl0'1..UC.....
14E0: F0 FF FF 7F 72 30 30 32  1C 56 80 45 43 80 F0 FF  ....r002.V.EC...
14F0: FF 7F F0 FF FF 7F 72 30  30 33 01 80 2D F0 FF FF  ......r003..-...
1500: 7F F0 FF FF 7F 65 6E 64  31 2D F0 FF FF 7F F0 FF  .....end1-......
1510: FF 7F 73 69 73 74 1C 89  80 2D F0 FF FF 7F F0 FF  ..sist...-......
1520: FF 7F 70 6C 74 6B 54 F0  FF FF 7F F0 FF FF 7F 73  ..pltkT........s
1530: 69 73 74 55 43 80 F0 FF  FF 7F F0 FF FF 7F 72 30  istUC.........r0
1540: 30 33 1C 3C 80 4E 01 25  31 0B 01 27 03 26 31 0B  03.<.N.%1..'.&1.
1550: 01 0F 1C 58 80 45 43 80  F0 FF FF 7F F0 FF FF 7F  ...X.EC.........
1560: 72 30 30 61 01 80 2B 26  31 0B 01 8A 80 23 55 43  r00a..+&1....#UC
1570: 80 F0 FF FF 7F F0 FF FF  7F 72 30 30 61 45 43 80  .........r00aEC.
1580: F0 FF FF 7F F0 FF FF 7F  72 30 30 62 01 80 55 43  ........r00b..UC
1590: 80 F0 FF FF 7F F0 FF FF  7F 72 30 30 62 79 00 27  .........r00by.'
15A0: 31 0B 01 F0 FF FF 7F 1C  3C 80 2B 27 31 0B 01 8B  1.......<.+'1...
15B0: 80 23 7B 27 31 0B 01 1C  3C 80 27 03 27 31 0B 01  .#{'1...<.'.'1..
15C0: 0C 1C 3C 80 27 03 28 31  0B 01 0B 1C 56 80 55 43  ..<.'.(1....V.UC
15D0: 80 F0 FF FF 7F F0 FF FF  7F 72 30 30 62 45 43 80  .........r00bEC.
15E0: F0 FF FF 7F F0 FF FF 7F  72 30 30 63 01 80 55 43  ........r00c..UC
15F0: 80 F0 FF FF 7F F0 FF FF  7F 72 30 30 63 1C 56 80  .........r00c.V.
1600: 45 43 80 F0 FF FF 7F F0  FF FF 7F 72 30 30 64 01  EC.........r00d.
1610: 80 1C 8C 80 52 43 80 F0  FF FF 7F F0 FF FF 7F 72  ....RC.........r
1620: 30 30 64 45 43 80 F0 FF  FF 7F F0 FF FF 7F 72 30  00dEC.........r0
1630: 30 65 01 80 55 43 80 F0  FF FF 7F F0 FF FF 7F 72  0e..UC.........r
1640: 30 30 65 2A 03 28 31 0B  01 27 03 28 31 0B 01 0C  00e*.(1..'.(1...
1650: 1C 3C 80 4E 00 28 31 0B  01 27 03 26 31 0B 01 13  .<.N.(1..'.&1...
1660: 45 43 80 F0 FF FF 7F F0  FF FF 7F 72 30 30 66 01  EC.........r00f.
1670: 80 1C 3C 80 45 3D 80 F0  FF FF 7F F0 FF FF 7F 62  ..<.E=.........b
1680: 6C 6F 6E 01 80 1C 8D 80  27 04 26 31 0B 01 14 1C  lon.....'.&1....
1690: 56 80 52 43 80 F0 FF FF  7F F0 FF FF 7F 72 30 30  V.RC.........r00
16A0: 66 45 43 80 F0 FF FF 7F  F0 FF FF 7F 72 30 30 67  fEC.........r00g
16B0: 01 80 2B 26 31 0B 01 8E  80 23 1C 58 80 45 5C 80  ..+&1....#.X.E\.
16C0: 22 31 0B 01 22 31 0B 01  77 68 6F 31 01 80 55 5C  "1.."1..who1..U\
16D0: 80 22 31 0B 01 22 31 0B  01 77 68 6F 31 52 43 80  ."1.."1..who1RC.
16E0: F0 FF FF 7F F0 FF FF 7F  72 30 30 67 45 3D 80 F0  ........r00gE=..
16F0: FF FF 7F F0 FF FF 7F 62  6C 6F 66 01 80 2A 04 26  .......blof..*.&
1700: 31 0B 01 45 43 80 F0 FF  FF 7F F0 FF FF 7F 7A 73  1..EC.........zs
1710: 65 62 01 80 27 03 28 31  0B 01 0D 29 04 26 31 0B  eb..'.(1...).&1.
1720: 01 15 5C 00 8F 80 5C 01  8F 80 9A 45 43 80 F0 FF  ..\...\....EC...
1730: FF 7F F0 FF FF 7F 72 30  31 33 01 80 55 43 80 F0  ......r013..UC..
1740: FF FF 7F F0 FF FF 7F 72  30 31 33 45 5C 80 F0 FF  .......r013E\...
1750: FF 7F F0 FF FF 7F 77 68  69 31 01 80 55 5C 80 F0  ......whi1..U\..
1760: FF FF 7F F0 FF FF 7F 77  68 69 31 1C 55 80 45 43  .......whi1.U.EC
1770: 80 F0 FF FF 7F F0 FF FF  7F 72 30 31 39 01 80 2B  .........r019..+
1780: 26 31 0B 01 90 80 23 55  43 80 F0 FF FF 7F F0 FF  &1....#UC.......
1790: FF 7F 72 30 31 39 4E 00  25 31 0B 01 79 00 F0 FF  ..r019N.%1..y...
17A0: FF 7F 27 31 0B 01 27 03  27 31 0B 01 1A 1C 3C 80  ..'1..'.'1....<.
17B0: 45 3D 80 F0 FF FF 7F F0  FF FF 7F 6F 76 6C 31 01  E=.........ovl1.
17C0: 80 45 43 80 F0 FF FF 7F  F0 FF FF 7F 72 30 30 34  .EC.........r004
17D0: 01 80 55 43 80 F0 FF FF  7F F0 FF FF 7F 72 30 30  ..UC.........r00
17E0: 34 4E 01 29 31 0B 01 62  43 80 29 31 0B 01 29 31  4N.)1..bC.)1..)1
17F0: 0B 01 73 65 6E 64 01 80  1C 1D 80 2B 27 31 0B 01  ..send.....+'1..
1800: 91 80 23 2A 03 27 31 0B  01 02 07 7F 92 80 80 25  ..#*.'1........%
1810: 18 45 43 80 F0 FF FF 7F  F0 FF FF 7F 72 30 32 32  .EC.........r022
1820: 01 80 01 C2 18 02 07 7F  93 80 80 41 18 45 43 80  ...........A.EC.
1830: F0 FF FF 7F F0 FF FF 7F  72 30 32 32 01 80 01 C2  ........r022....
1840: 18 02 07 7F 94 80 80 5D  18 45 43 80 F0 FF FF 7F  .......].EC.....
1850: F0 FF FF 7F 72 30 32 30  01 80 01 C2 18 02 07 7F  ....r020........
1860: 95 80 80 79 18 45 43 80  F0 FF FF 7F F0 FF FF 7F  ...y.EC.........
1870: 72 30 32 30 01 80 01 C2  18 02 07 7F 5E 80 80 95  r020........^...
1880: 18 45 43 80 F0 FF FF 7F  F0 FF FF 7F 72 30 32 33  .EC.........r023
1890: 01 80 01 C2 18 02 07 7F  1B 80 80 B1 18 45 43 80  .............EC.
18A0: F0 FF FF 7F F0 FF FF 7F  72 30 32 31 01 80 01 C2  ........r021....
18B0: 18 45 43 80 F0 FF FF 7F  F0 FF FF 7F 72 30 30 35  .EC.........r005
18C0: 01 80 1C 55 80 2B 27 31  0B 01 96 80 23 55 43 80  ...U.+'1....#UC.
18D0: F0 FF FF 7F F0 FF FF 7F  72 30 30 35 55 43 80 F0  ........r005UC..
18E0: FF FF 7F F0 FF FF 7F 72  30 32 30 55 43 80 F0 FF  .......r020UC...
18F0: FF 7F F0 FF FF 7F 72 30  32 31 55 43 80 F0 FF FF  ......r021UC....
1900: 7F F0 FF FF 7F 72 30 32  32 55 43 80 F0 FF FF 7F  .....r022UC.....
1910: F0 FF FF 7F 72 30 32 33  2A 03 27 31 0B 01 45 43  ....r023*.'1..EC
1920: 80 F0 FF FF 7F F0 FF FF  7F 72 30 30 37 01 80 2B  .........r007..+
1930: 27 31 0B 01 97 80 23 55  43 80 F0 FF FF 7F F0 FF  '1....#UC.......
1940: FF 7F 72 30 30 37 45 43  80 F0 FF FF 7F F0 FF FF  ..r007EC........
1950: 7F 72 30 30 38 01 80 2B  27 31 0B 01 98 80 23 55  .r008..+'1....#U
1960: 43 80 F0 FF FF 7F F0 FF  FF 7F 72 30 30 38 45 43  C.........r008EC
1970: 80 F0 FF FF 7F F0 FF FF  7F 72 30 30 39 01 80 55  .........r009..U
1980: 43 80 F0 FF FF 7F F0 FF  FF 7F 72 30 30 39 29 03  C.........r009).
1990: 27 31 0B 01 1B 79 00 24  31 0B 01 27 31 0B 01 27  '1...y.$1..'1..'
19A0: 03 24 31 0B 01 11 1C 3C  80 2B 24 31 0B 01 99 80  .$1....<.+$1....
19B0: 23 2A 03 24 31 0B 01 55  43 80 F0 FF FF 7F F0 FF  #*.$1..UC.......
19C0: FF 7F 72 30 31 30 7B 24  31 0B 01 2B 27 31 0B 01  ..r010{$1..+'1..
19D0: 9A 80 23 45 43 80 F0 FF  FF 7F F0 FF FF 7F 72 30  ..#EC.........r0
19E0: 31 31 01 80 27 04 24 31  0B 01 0F 2B 27 31 0B 01  11..'.$1...+'1..
19F0: 9B 80 23 29 04 27 31 0B  01 1C 27 04 27 31 0B 01  ..#).'1...'.'1..
1A00: 1D 2B 27 31 0B 01 9C 80  23 52 43 80 F0 FF FF 7F  .+'1....#RC.....
1A10: F0 FF FF 7F 72 30 31 31  45 43 80 F0 FF FF 7F F0  ....r011EC......
1A20: FF FF 7F 72 30 31 32 01  80 1C 9D 80 2B 25 31 0B  ...r012.....+%1.
1A30: 01 9E 80 23 55 43 80 F0  FF FF 7F F0 FF FF 7F 72  ...#UC.........r
1A40: 30 31 32 27 03 26 31 0B  01 12 27 03 28 31 0B 01  012'.&1...'.(1..
1A50: 0E 45 43 80 F0 FF FF 7F  F0 FF FF 7F 72 30 30 68  .EC.........r00h
1A60: 01 80 55 43 80 F0 FF FF  7F F0 FF FF 7F 72 30 30  ..UC.........r00
1A70: 68 1C 56 80 45 43 80 F0  FF FF 7F F0 FF FF 7F 72  h.V.EC.........r
1A80: 30 30 6A 01 80 1C 9D 80  2B 26 31 0B 01 9F 80 23  00j.....+&1....#
1A90: 55 43 80 F0 FF FF 7F F0  FF FF 7F 72 30 30 6A 7B  UC.........r00j{
1AA0: 26 31 0B 01 27 04 26 31  0B 01 15 27 03 24 31 0B  &1..'.&1...'.$1.
1AB0: 01 10 45 43 80 F0 FF FF  7F F0 FF FF 7F 72 30 30  ..EC.........r00
1AC0: 69 01 80 55 43 80 F0 FF  FF 7F F0 FF FF 7F 72 30  i..UC.........r0
1AD0: 30 69 2B 24 31 0B 01 A0  80 45 43 80 F0 FF FF 7F  0i+$1....EC.....
1AE0: F0 FF FF 7F 72 30 30 6B  01 80 55 43 80 F0 FF FF  ....r00k..UC....
1AF0: 7F F0 FF FF 7F 72 30 30  6B 23 62 5B 80 22 31 0B  .....r00k#b[."1.
1B00: 01 22 31 0B 01 00 FE FE  FE 01 80 45 5C 80 F0 FF  ."1........E\...
1B10: FF 7F F0 FF FF 7F 00 FE  FE FE 01 80 29 03 22 31  ............)."1
1B20: 0B 01 20 45 43 80 F0 FF  FF 7F F0 FF FF 7F 72 30  .. EC.........r0
1B30: 30 6D 01 80 55 43 80 F0  FF FF 7F F0 FF FF 7F 72  0m..UC.........r
1B40: 30 30 6D 45 43 80 F0 FF  FF 7F F0 FF FF 7F 72 30  00mEC.........r0
1B50: 31 35 01 80 1C 77 80 27  03 27 31 0B 01 1F 1C 77  15...w.'.'1....w
1B60: 80 2B 27 31 0B 01 A1 80  23 1C 55 80 27 04 27 31  .+'1....#.U.'.'1
1B70: 0B 01 1E 62 5B 80 22 31  0B 01 22 31 0B 01 6D 61  ...b[."1.."1..ma
1B80: 69 6E 01 80 1C 5D 80 45  5C 80 F0 FF FF 7F F0 FF  in...].E\.......
1B90: FF 7F 77 68 6F 31 01 80  55 43 80 F0 FF FF 7F F0  ..who1..UC......
1BA0: FF FF 7F 72 30 31 35 2A  04 27 31 0B 01 55 5C 80  ...r015*.'1..U\.
1BB0: F0 FF FF 7F F0 FF FF 7F  77 68 6F 31 45 43 80 F0  ........who1EC..
1BC0: FF FF 7F F0 FF FF 7F 72  30 31 36 01 80 55 43 80  .......r016..UC.
1BD0: F0 FF FF 7F F0 FF FF 7F  72 30 31 36 27 03 24 31  ........r016'.$1
1BE0: 0B 01 12 29 03 25 31 0B  01 0E 4A F0 FF FF 7F 25  ...).%1...J....%
1BF0: 31 0B 01 1C 45 80 45 5C  80 F0 FF FF 7F F0 FF FF  1...E.E\........
1C00: 7F 77 68 69 31 01 80 55  5C 80 F0 FF FF 7F F0 FF  .whi1..U\.......
1C10: FF 7F 77 68 69 31 2B 25  31 0B 01 A2 80 23 2A 03  ..whi1+%1....#*.
1C20: 24 31 0B 01 45 43 80 F0  FF FF 7F F0 FF FF 7F 72  $1..EC.........r
1C30: 30 31 37 01 80 55 43 80  F0 FF FF 7F F0 FF FF 7F  017..UC.........
1C40: 72 30 31 37 4A F0 FF FF  7F 24 31 0B 01 2B 24 31  r017J....$1..+$1
1C50: 0B 01 A3 80 23 45 43 80  F0 FF FF 7F F0 FF FF 7F  ....#EC.........
1C60: 72 30 31 38 01 80 29 03  22 31 0B 01 21 1C 51 80  r018..)."1..!.Q.
1C70: 62 5B 80 22 31 0B 01 22  31 0B 01 6D 61 69 6E 01  b[."1.."1..main.
1C80: 80 45 3D 80 F0 FF FF 7F  F0 FF FF 7F 66 64 6F 32  .E=.........fdo2
1C90: 01 80 55 3D 80 F0 FF FF  7F F0 FF FF 7F 66 64 6F  ..U=.........fdo
1CA0: 32 78 1C 5D 80 1C 0D 80  AB 11 01 80 1C 3E 80 46  2x.].........>.F
1CB0: 00 45 3D 80 F0 FF FF 7F  F0 FF FF 7F 66 64 69 32  .E=.........fdi2
1CC0: 01 80 21 00 45 3D 80 F0  FF FF 7F F0 FF FF 7F 66  ..!.E=.........f
1CD0: 64 69 30 01 80 55 3D 80  F0 FF FF 7F F0 FF FF 7F  di0..U=.........
1CE0: 66 64 69 30 1B 45 3D 80  F0 FF FF 7F F0 FF FF 7F  fdi0.E=.........
1CF0: 66 64 6F 30 01 80 55 3D  80 F0 FF FF 7F F0 FF FF  fdo0..U=........
1D00: 7F 66 64 6F 30 1B 45 3D  80 F0 FF FF 7F F0 FF FF  .fdo0.E=........
1D10: 7F 66 64 69 31 01 80 55  3D 80 F0 FF FF 7F F0 FF  .fdi1..U=.......
1D20: FF 7F 66 64 69 31 1B 45  3D 80 F0 FF FF 7F F0 FF  ..fdi1.E=.......
1D30: FF 7F 66 64 6F 31 01 80  55 3D 80 F0 FF FF 7F F0  ..fdo1..U=......
1D40: FF FF 7F 66 64 6F 31 1B  45 5C 80 F0 FF FF 7F F0  ...fdo1.E\......
1D50: FF FF 7F 77 68 69 31 01  80 55 5C 80 F0 FF FF 7F  ...whi1..U\.....
1D60: F0 FF FF 7F 77 68 69 31  1B 45 5C 80 F0 FF FF 7F  ....whi1.E\.....
1D70: F0 FF FF 7F 77 68 6F 31  01 80 55 5C 80 F0 FF FF  ....who1..U\....
1D80: 7F F0 FF FF 7F 77 68 6F  31 1B 45 5C 80 F0 FF FF  .....who1.E\....
1D90: 7F F0 FF FF 7F 77 68 6F  32 01 80 55 5C 80 F0 FF  .....who2..U\...
1DA0: FF 7F F0 FF FF 7F 77 68  6F 32 1B 45 5C 80 F0 FF  ......who2.E\...
1DB0: FF 7F F0 FF FF 7F 77 68  6F 33 01 80 55 5C 80 F0  ......who3..U\..
1DC0: FF FF 7F F0 FF FF 7F 77  68 6F 33 1B 62 3E 80 F0  .......who3.b>..
1DD0: FF FF 7F F0 FF FF 7F 6D  61 69 6E 01 80 1C A4 80  .......main.....
1DE0: 45 3D 80 F0 FF FF 7F F0  FF FF 7F 66 64 6F 31 01  E=.........fdo1.
1DF0: 80 55 3D 80 F0 FF FF 7F  F0 FF FF 7F 66 64 6F 31  .U=.........fdo1
1E00: 1B 45 3D 80 F0 FF FF 7F  F0 FF FF 7F 66 64 69 31  .E=.........fdi1
1E10: 01 80 62 A5 80 F0 FF FF  7F F0 FF FF 7F 6D 61 69  ..b..........mai
1E20: 6E 01 80 1C 3C 80 55 3D  80 F0 FF FF 7F F0 FF FF  n...<.U=........
1E30: 7F 66 64 69 31 1B 45 3D  80 F0 FF FF 7F F0 FF FF  .fdi1.E=........
1E40: 7F 62 6C 6F 6E 01 80 45  5C 80 F0 FF FF 7F F0 FF  .blon..E\.......
1E50: FF 7F 62 6C 6F 6E 01 80  1B 45 5C 80 F0 FF FF 7F  ..blon...E\.....
1E60: F0 FF FF 7F 77 68 69 30  01 80 55 5C 80 F0 FF FF  ....whi0..U\....
1E70: 7F F0 FF FF 7F 77 68 69  30 1B 45 5C 80 F0 FF FF  .....whi0.E\....
1E80: 7F F0 FF FF 7F 77 68 6F  30 01 80 55 5C 80 F0 FF  .....who0..U\...
1E90: FF 7F F0 FF FF 7F 77 68  6F 30 1B 45 A6 80 F0 FF  ......who0.E....
1EA0: FF 7F F0 FF FF 7F 65 66  6F 6E 01 80 55 A6 80 F0  ......efon..U...
1EB0: FF FF 7F F0 FF FF 7F 65  66 6F 6E 1B 45 3D 80 F0  .......efon.E=..
1EC0: FF FF 7F F0 FF FF 7F 66  64 69 73 01 80 1B 45 3D  .......fdis...E=
1ED0: 80 F0 FF FF 7F F0 FF FF  7F 66 64 6F 73 01 80 55  .........fdos..U
1EE0: 3D 80 F0 FF FF 7F F0 FF  FF 7F 66 64 6F 73 1B 45  =.........fdos.E
1EF0: 3D 80 F0 FF FF 7F F0 FF  FF 7F 66 64 69 66 01 80  =.........fdif..
1F00: 1B 45 3D 80 F0 FF FF 7F  F0 FF FF 7F 66 64 6F 66  .E=.........fdof
1F10: 01 80 55 3D 80 F0 FF FF  7F F0 FF FF 7F 66 64 6F  ..U=.........fdo
1F20: 66 1B 45 3D 80 F0 FF FF  7F F0 FF FF 7F 66 64 69  f.E=.........fdi
1F30: 70 01 80 1B 45 3D 80 F0  FF FF 7F F0 FF FF 7F 66  p...E=.........f
1F40: 64 6F 70 01 80 55 3D 80  F0 FF FF 7F F0 FF FF 7F  dop..U=.........
1F50: 66 64 6F 70 1B                                    fdop.           
```

#### Opcodes

```
  0: 0x0424 [0x97] SAVE_SET_WIND_VALUES(wind_base=0x8001, wind_width=0x803E)
  1: 0x0429 [0x20] SET_CLI_EVENT_UC_FLAG: Lock player control
  2: 0x042B [0x46] CAMERA_CONTROL: Disable user control
  3: 0x042D [0x42] SET_CLI_EVENT_CANCEL_DATA()
  4: 0x042E [0x38] SET_CLIENT_EVENT_MODE(mode=19*)
  5: 0x0431 [0x4E] SET_ENTITY_HIDE_FLAG: Show LocalPlayer
  6: 0x0437 [0x2F] Kam'lanaut (ID: 17510690/0x010B3122)->Render.Flags0 &= ~0x80000 // Bit 19
  7: 0x043D [0x2F] Eald'narche (ID: 17510695/0x010B3127)->Render.Flags0 &= ~0x80000 // Bit 19
  8: 0x0443 [0x2F] Aldo (ID: 17510694/0x010B3126)->Render.Flags0 &= ~0x80000 // Bit 19
  9: 0x0449 [0x2F] Lion (ID: 17510692/0x010B3124)->Render.Flags0 &= ~0x80000 // Bit 19
 10: 0x044F [0x2F] Zeid (ID: 17510693/0x010B3125)->Render.Flags0 &= ~0x80000 // Bit 19
 11: 0x0455 [0x2F] CrystalKnight (ID: 17510698/0x010B312A)->Render.Flags0 &= ~0x80000 // Bit 19
 12: 0x045B [0x2F] CrystalKnight (ID: 17510699/0x010B312B)->Render.Flags0 &= ~0x80000 // Bit 19
 13: 0x0461 [0x2F] CrystalKnight (ID: 17510700/0x010B312C)->Render.Flags0 &= ~0x80000 // Bit 19
 14: 0x0467 [0x2F] CrystalKnight (ID: 17510701/0x010B312D)->Render.Flags0 &= ~0x80000 // Bit 19
 15: 0x046D [0x2F] CrystalKnight (ID: 17510702/0x010B312E)->Render.Flags0 &= ~0x80000 // Bit 19
 16: 0x0473 [0x4E] SET_ENTITY_HIDE_FLAG: Show Aldo (ID: 17510694/0x010B3126)
 17: 0x0479 [0x4E] SET_ENTITY_HIDE_FLAG: Show Lion (ID: 17510692/0x010B3124)
 18: 0x047F [0x4E] SET_ENTITY_HIDE_FLAG: Show Zeid (ID: 17510693/0x010B3125)
 19: 0x0485 [0x4E] SET_ENTITY_HIDE_FLAG: Show Kam'lanaut (ID: 17510691/0x010B3123)
 20: 0x048B [0x4E] SET_ENTITY_HIDE_FLAG: Show Kam'lanaut (ID: 17510690/0x010B3122)
 21: 0x0491 [0x4E] SET_ENTITY_HIDE_FLAG: Show CrystalKnight (ID: 17510698/0x010B312A)
 22: 0x0497 [0x4E] SET_ENTITY_HIDE_FLAG: Show CrystalKnight (ID: 17510699/0x010B312B)
 23: 0x049D [0x4E] SET_ENTITY_HIDE_FLAG: Show CrystalKnight (ID: 17510700/0x010B312C)
 24: 0x04A3 [0x4E] SET_ENTITY_HIDE_FLAG: Show CrystalKnight (ID: 17510701/0x010B312D)
 25: 0x04A9 [0x4E] SET_ENTITY_HIDE_FLAG: Show CrystalKnight (ID: 17510702/0x010B312E)
 26: 0x04AF [0x94] Kam'lanaut (ID: 17510690/0x010B3122)->Render.Flags3 ^= 0x01
 27: 0x04B5 [0x94] Eald'narche (ID: 17510695/0x010B3127)->Render.Flags3 ^= 0x01
 28: 0x04BB [0x94] Aldo (ID: 17510694/0x010B3126)->Render.Flags3 ^= 0x01
 29: 0x04C1 [0x94] Lion (ID: 17510692/0x010B3124)->Render.Flags3 ^= 0x01
 30: 0x04C7 [0x94] Zeid (ID: 17510693/0x010B3125)->Render.Flags3 ^= 0x01
 31: 0x04CD [0x94] CrystalKnight (ID: 17510698/0x010B312A)->Render.Flags3 ^= 0x01
 32: 0x04D3 [0x94] CrystalKnight (ID: 17510699/0x010B312B)->Render.Flags3 ^= 0x01
 33: 0x04D9 [0x94] CrystalKnight (ID: 17510700/0x010B312C)->Render.Flags3 ^= 0x01
 34: 0x04DF [0x94] CrystalKnight (ID: 17510701/0x010B312D)->Render.Flags3 ^= 0x01
 35: 0x04E5 [0x94] CrystalKnight (ID: 17510702/0x010B312E)->Render.Flags3 ^= 0x01
 36: 0x04EB [0x92] Kam'lanaut (ID: 17510690/0x010B3122)->Render.Flags3 ^= 0x01
 37: 0x04F1 [0x92] Kam'lanaut (ID: 17510691/0x010B3123)->Render.Flags3 ^= 0x01
 38: 0x04F7 [0x92] Eald'narche (ID: 17510695/0x010B3127)->Render.Flags3 ^= 0x01
 39: 0x04FD [0x92] Aldo (ID: 17510694/0x010B3126)->Render.Flags3 ^= 0x01
 40: 0x0503 [0x92] Lion (ID: 17510692/0x010B3124)->Render.Flags3 ^= 0x01
 41: 0x0509 [0x92] Zeid (ID: 17510693/0x010B3125)->Render.Flags3 ^= 0x01
 42: 0x050F [0x92] Verena (ID: 17510696/0x010B3128)->Render.Flags3 ^= 0x01
 43: 0x0515 [0x5C] MUSIC_CONTROL: Set Idle (Day) music to song 157*
 44: 0x0519 [0x5C] MUSIC_CONTROL: Set Idle (Night) music to song 157*
 45: 0x051D [0x45] LOAD_SCHEDULED_TASK: Load scheduler "fdo1" with entities [LocalPlayer, LocalPlayer], work=[200*, 0*]
 46: 0x052E [0x55] WAIT_LOAD_SCHEDULER: Wait for scheduler "fdo1" with entities [LocalPlayer, LocalPlayer], work=200*
 47: 0x053D [0x79] LocalPlayer looks at Kam'lanaut (ID: 17510690/0x010B3122) (Basic look)
 48: 0x0547 [0xBA] SET_ENTITY_POSITION(entity_id=LocalPlayer, pos_x=0.000*, pos_z=27.376*, pos_y=2.499*, direction=267.7°*)
 49: 0x0554 [0x29] REQ_SET_WAIT(priority=0x03, entity_id=Kam'lanaut (ID: 17510690/0x010B3122), tag_num=0x19)
 50: 0x055B [0x29] REQ_SET_WAIT(priority=0x03, entity_id=Kam'lanaut (ID: 17510691/0x010B3123), tag_num=0x04)
 51: 0x0562 [0x2C] CREATE_SCHEDULER_TASK: Create scheduler "kill" with entities [Kam'lanaut (ID: 17510691/0x010B3123), Kam'lanaut (ID: 17510691/0x010B3123)]
 52: 0x056F [0x27] REQ_SET(priority=0x03, entity_id=Lion (ID: 17510692/0x010B3124), tag_num=0x06)
 53: 0x0576 [0x27] REQ_SET(priority=0x03, entity_id=Zeid (ID: 17510693/0x010B3125), tag_num=0x05)
 54: 0x057D [0x27] REQ_SET(priority=0x03, entity_id=Aldo (ID: 17510694/0x010B3126), tag_num=0x06)
 55: 0x0584 [0x45] LOAD_SCHEDULED_TASK: Load scheduler "x000" with entities [LocalPlayer, LocalPlayer], work=[79*, 0*]
 56: 0x0595 [0x55] WAIT_LOAD_SCHEDULER: Wait for scheduler "x000" with entities [LocalPlayer, LocalPlayer], work=79*
 57: 0x05A4 [0x45] LOAD_SCHEDULED_TASK: Load scheduler "fdi1" with entities [LocalPlayer, LocalPlayer], work=[200*, 0*]
 58: 0x05B5 [0x27] REQ_SET(priority=0x03, entity_id=Kam'lanaut (ID: 17510691/0x010B3123), tag_num=0x05)
 59: 0x05BC [0x27] REQ_SET(priority=0x03, entity_id=Kam'lanaut (ID: 17510690/0x010B3122), tag_num=0x18)
 60: 0x05C3 [0x45] LOAD_SCHEDULED_TASK: Load scheduler "x001" with entities [LocalPlayer, LocalPlayer], work=[79*, 0*]
 61: 0x05D4 [0x27] REQ_SET(priority=0x10, entity_id=LocalPlayer, tag_num=0x14)
 62: 0x05DB [0x27] REQ_SET(priority=0x04, entity_id=Kam'lanaut (ID: 17510690/0x010B3122), tag_num=0x1A)
 63: 0x05E2 [0x55] WAIT_LOAD_SCHEDULER: Wait for scheduler "x003" with entities [LocalPlayer, LocalPlayer], work=79*
 64: 0x05F1 [0x2B] Kam'lanaut (ID: 17510690/0x010B3122) [7633*]:
    → "Wh-why? I am the will...of the crystal... How could I be defeated by mere mortals?"
 65: 0x05F8 [0x23] WAIT_FOR_DIALOG_INTERACTION
 66: 0x05F9 [0x5D] SET_MUSIC_VOLUME(volume=0*, fade_time=180*)
 67: 0x05FE [0x2A] GET_REQ_LEVEL(level=4, entity_id=Kam'lanaut (ID: 17510690/0x010B3122))
 68: 0x0604 [0x5B] LOAD_EXT_SCHEDULER: Load scheduler 0xFEFEFE00 with entities [LocalPlayer, LocalPlayer], work=517*
 69: 0x0613 [0x27] REQ_SET(priority=0x03, entity_id=Kam'lanaut (ID: 17510690/0x010B3122), tag_num=0x1B)
 70: 0x061A [0x1C] WAIT(30* ticks)
 71: 0x061D [0x4E] SET_ENTITY_HIDE_FLAG: Show Eald'narche (ID: 17510695/0x010B3127)
 72: 0x0623 [0x80] LOAD_WAIT(entity=Eald'narche (ID: 17510695/0x010B3127))
 73: 0x0628 [0x45] LOAD_SCHEDULED_TASK: Load scheduler "x004" with entities [LocalPlayer, LocalPlayer], work=[79*, 0*]
 74: 0x0639 [0x27] REQ_SET(priority=0x03, entity_id=Eald'narche (ID: 17510695/0x010B3127), tag_num=0x02)
 75: 0x0640 [0x2B] Kam'lanaut (ID: 17510690/0x010B3122) [7634*]:
    → "Warriors! Why do you just sit there and watch?"
 76: 0x0647 [0x23] WAIT_FOR_DIALOG_INTERACTION
 77: 0x0648 [0x55] WAIT_LOAD_SCHEDULER: Wait for scheduler "x004" with entities [LocalPlayer, LocalPlayer], work=79*
 78: 0x0657 [0x2B] Eald'narche (ID: 17510695/0x010B3127) [7635*]:
    → "My poor brother, haven't you realized? The crystal doesn't need you anymore."
 79: 0x065E [0x23] WAIT_FOR_DIALOG_INTERACTION
 80: 0x065F [0x2A] GET_REQ_LEVEL(level=3, entity_id=Eald'narche (ID: 17510695/0x010B3127))
 81: 0x0665 [0x27] REQ_SET(priority=0x02, entity_id=Kam'lanaut (ID: 17510690/0x010B3122), tag_num=0x1C)
 82: 0x066C [0x45] LOAD_SCHEDULED_TASK: Load scheduler "x005" with entities [LocalPlayer, LocalPlayer], work=[79*, 0*]
 83: 0x067D [0x1C] WAIT(30* ticks)
 84: 0x0680 [0x2B] Kam'lanaut (ID: 17510690/0x010B3122) [7636*]:
    → "Eald'narche!? What do you mean? Wh-why are you..."
 85: 0x0687 [0x23] WAIT_FOR_DIALOG_INTERACTION
 86: 0x0688 [0x2A] GET_REQ_LEVEL(level=3, entity_id=Eald'narche (ID: 17510695/0x010B3127))
 87: 0x068E [0x55] WAIT_LOAD_SCHEDULER: Wait for scheduler "x005" with entities [LocalPlayer, LocalPlayer], work=79*
 88: 0x069D [0x45] LOAD_SCHEDULED_TASK: Load scheduler "x006" with entities [LocalPlayer, LocalPlayer], work=[79*, 0*]
 89: 0x06AE [0x55] WAIT_LOAD_SCHEDULER: Wait for scheduler "x006" with entities [LocalPlayer, LocalPlayer], work=79*
 90: 0x06BD [0x2B] Eald'narche (ID: 17510695/0x010B3127) [7637*]:
    → "You were foolish to believe that the crystal ever chose you."
 91: 0x06C4 [0x23] WAIT_FOR_DIALOG_INTERACTION
 92: 0x06C5 [0x45] LOAD_SCHEDULED_TASK: Load scheduler "x007" with entities [LocalPlayer, LocalPlayer], work=[79*, 0*]
 93: 0x06D6 [0x2B] Kam'lanaut (ID: 17510690/0x010B3122) [7638*]:
    → "The crystal doesn't need...me? It can't be possible... You can't leave me here like this!"
 94: 0x06DD [0x23] WAIT_FOR_DIALOG_INTERACTION
 95: 0x06DE [0x2A] GET_REQ_LEVEL(level=3, entity_id=Kam'lanaut (ID: 17510690/0x010B3122))
 96: 0x06E4 [0x27] REQ_SET(priority=0x03, entity_id=Kam'lanaut (ID: 17510690/0x010B3122), tag_num=0x1D)
 97: 0x06EB [0x1C] WAIT(15* ticks)
 98: 0x06EE [0x2B] Kam'lanaut (ID: 17510690/0x010B3122) [7639*]:
    → "Yes... You still need me to revive Tu'Lia!"
 99: 0x06F5 [0x23] WAIT_FOR_DIALOG_INTERACTION
100: 0x06F6 [0x52] END_LOAD_SCHEDULER: End scheduler "x007" with entities [LocalPlayer, LocalPlayer], work=79*
101: 0x0705 [0x1C] WAIT(15* ticks)
102: 0x0708 [0x45] LOAD_SCHEDULED_TASK: Load scheduler "x008" with entities [LocalPlayer, LocalPlayer], work=[79*, 0*]
103: 0x0719 [0x55] WAIT_LOAD_SCHEDULER: Wait for scheduler "x008" with entities [LocalPlayer, LocalPlayer], work=79*
104: 0x0728 [0x45] LOAD_SCHEDULED_TASK: Load scheduler "x00b" with entities [LocalPlayer, LocalPlayer], work=[79*, 0*]
105: 0x0739 [0x2B] Eald'narche (ID: 17510695/0x010B3127) [7640*]:
    → "Regenerating the Chrysalis Core? You need not worry, my brother. I have found another way to do that."
106: 0x0740 [0x23] WAIT_FOR_DIALOG_INTERACTION
107: 0x0741 [0x2B] Eald'narche (ID: 17510695/0x010B3127) [7641*]:
    → "Now let the show begin..."
108: 0x0748 [0x23] WAIT_FOR_DIALOG_INTERACTION
109: 0x0749 [0x5B] LOAD_EXT_SCHEDULER: Load scheduler 0xFEFEFE00 with entities [CrystalKnight (ID: 17510702/0x010B312E), CrystalKnight (ID: 17510702/0x010B312E)], work=603*
110: 0x0758 [0x5B] LOAD_EXT_SCHEDULER: Load scheduler 0xFEFEFE00 with entities [CrystalKnight (ID: 17510698/0x010B312A), CrystalKnight (ID: 17510698/0x010B312A)], work=601*
111: 0x0767 [0x5B] LOAD_EXT_SCHEDULER: Load scheduler 0xFEFEFE00 with entities [CrystalKnight (ID: 17510699/0x010B312B), CrystalKnight (ID: 17510699/0x010B312B)], work=600*
112: 0x0776 [0x5B] LOAD_EXT_SCHEDULER: Load scheduler 0xFEFEFE00 with entities [Lion (ID: 17510692/0x010B3124), Lion (ID: 17510692/0x010B3124)], work=536*
113: 0x0785 [0x5B] LOAD_EXT_SCHEDULER: Load scheduler 0xFEFEFE00 with entities [Zeid (ID: 17510693/0x010B3125), Zeid (ID: 17510693/0x010B3125)], work=521*
114: 0x0794 [0x5B] LOAD_EXT_SCHEDULER: Load scheduler 0xFEFEFE00 with entities [Aldo (ID: 17510694/0x010B3126), Aldo (ID: 17510694/0x010B3126)], work=541*
115: 0x07A3 [0x52] END_LOAD_SCHEDULER: End scheduler "x00b" with entities [LocalPlayer, LocalPlayer], work=79*
116: 0x07B2 [0x45] LOAD_SCHEDULED_TASK: Load scheduler "q000" with entities [LocalPlayer, LocalPlayer], work=[79*, 0*]
117: 0x07C3 [0x27] REQ_SET(priority=0x03, entity_id=Eald'narche (ID: 17510695/0x010B3127), tag_num=0x0C)
118: 0x07CA [0x1C] WAIT(60* ticks)
119: 0x07CD [0x2A] GET_REQ_LEVEL(level=3, entity_id=Eald'narche (ID: 17510695/0x010B3127))
120: 0x07D3 [0x55] WAIT_LOAD_SCHEDULER: Wait for scheduler "q000" with entities [LocalPlayer, LocalPlayer], work=79*
121: 0x07E2 [0x27] REQ_SET(priority=0x03, entity_id=Eald'narche (ID: 17510695/0x010B3127), tag_num=0x0D)
122: 0x07E9 [0x1C] WAIT(20* ticks)
123: 0x07EC [0x45] LOAD_SCHEDULED_TASK: Load scheduler 0xFEFEFE00 with entities [Lion (ID: 17510692/0x010B3124), Lion (ID: 17510692/0x010B3124)], work=[79*, 0*]
124: 0x07FD [0x27] REQ_SET(priority=0x03, entity_id=Zeid (ID: 17510693/0x010B3125), tag_num=0x0A)
125: 0x0804 [0x1C] WAIT(10* ticks)
126: 0x0807 [0x27] REQ_SET(priority=0x03, entity_id=CrystalKnight (ID: 17510702/0x010B312E), tag_num=0x07)
127: 0x080E [0x1C] WAIT(30* ticks)
128: 0x0811 [0x45] LOAD_SCHEDULED_TASK: Load scheduler "q001" with entities [LocalPlayer, LocalPlayer], work=[79*, 0*]
129: 0x0822 [0x55] WAIT_LOAD_SCHEDULER: Wait for scheduler "q001" with entities [LocalPlayer, LocalPlayer], work=79*
130: 0x0831 [0x45] LOAD_SCHEDULED_TASK: Load scheduler "q002" with entities [LocalPlayer, LocalPlayer], work=[79*, 0*]
131: 0x0842 [0x1C] WAIT(10* ticks)
132: 0x0845 [0x45] LOAD_SCHEDULED_TASK: Load scheduler "blon" with entities [Qe'Iov Gate (ID: 17510703/0x010B312F), Qe'Iov Gate (ID: 17510703/0x010B312F)], work=[200*, 0*]
133: 0x0856 [0x2A] GET_REQ_LEVEL(level=3, entity_id=Zeid (ID: 17510693/0x010B3125))
134: 0x085C [0x45] LOAD_SCHEDULED_TASK: Load scheduler "zse2" with entities [Lion (ID: 17510692/0x010B3124), Lion (ID: 17510692/0x010B3124)], work=[79*, 0*]
135: 0x086D [0x52] END_LOAD_SCHEDULER: End scheduler "q002" with entities [LocalPlayer, LocalPlayer], work=79*
136: 0x087C [0x45] LOAD_SCHEDULED_TASK: Load scheduler "blof" with entities [Qe'Iov Gate (ID: 17510703/0x010B312F), Qe'Iov Gate (ID: 17510703/0x010B312F)], work=[200*, 0*]
137: 0x088D [0x45] LOAD_SCHEDULED_TASK: Load scheduler "q003" with entities [LocalPlayer, LocalPlayer], work=[79*, 0*]
138: 0x089E [0x55] WAIT_LOAD_SCHEDULER: Wait for scheduler "q003" with entities [LocalPlayer, LocalPlayer], work=79*
139: 0x08AD [0x45] LOAD_SCHEDULED_TASK: Load scheduler "q004" with entities [LocalPlayer, LocalPlayer], work=[79*, 0*]
140: 0x08BE [0x27] REQ_SET(priority=0x03, entity_id=CrystalKnight (ID: 17510699/0x010B312B), tag_num=0x07)
141: 0x08C5 [0x27] REQ_SET(priority=0x03, entity_id=Aldo (ID: 17510694/0x010B3126), tag_num=0x0C)
142: 0x08CC [0x45] LOAD_SCHEDULED_TASK: Load scheduler "q003" with entities [LocalPlayer, LocalPlayer], work=[79*, 0*]
143: 0x08DD [0x2B] Zeid (ID: 17510693/0x010B3125) [7642*]:
    → "Ungh!"
144: 0x08E4 [0x23] WAIT_FOR_DIALOG_INTERACTION
145: 0x08E5 [0x1C] WAIT(50* ticks)
146: 0x08E8 [0x45] LOAD_SCHEDULED_TASK: Load scheduler "zse7" with entities [LocalPlayer, LocalPlayer], work=[79*, 0*]
147: 0x08F9 [0x1C] WAIT(20* ticks)
148: 0x08FC [0x1C] WAIT(70* ticks)
149: 0x08FF [0x2A] GET_REQ_LEVEL(level=3, entity_id=Aldo (ID: 17510694/0x010B3126))
150: 0x0905 [0x45] LOAD_SCHEDULED_TASK: Load scheduler "zse0" with entities [LocalPlayer, LocalPlayer], work=[79*, 0*]
151: 0x0916 [0x52] END_LOAD_SCHEDULER: End scheduler "q00b" with entities [LocalPlayer, LocalPlayer], work=79*
152: 0x0925 [0x45] LOAD_SCHEDULED_TASK: Load scheduler "blof" with entities [Qe'Iov Gate (ID: 17510703/0x010B312F), Qe'Iov Gate (ID: 17510703/0x010B312F)], work=[200*, 0*]
153: 0x0936 [0x27] REQ_SET(priority=0x03, entity_id=Lion (ID: 17510692/0x010B3124), tag_num=0x0A)
154: 0x093D [0x1C] WAIT(10* ticks)
155: 0x0940 [0x45] LOAD_SCHEDULED_TASK: Load scheduler "q005" with entities [LocalPlayer, LocalPlayer], work=[79*, 0*]
156: 0x0951 [0x55] WAIT_LOAD_SCHEDULER: Wait for scheduler "q005" with entities [LocalPlayer, LocalPlayer], work=79*
157: 0x0960 [0x45] LOAD_SCHEDULED_TASK: Load scheduler "q006" with entities [LocalPlayer, LocalPlayer], work=[79*, 0*]
158: 0x0971 [0x27] REQ_SET(priority=0x03, entity_id=CrystalKnight (ID: 17510698/0x010B312A), tag_num=0x07)
159: 0x0978 [0x1C] WAIT(60* ticks)
160: 0x097B [0x45] LOAD_SCHEDULED_TASK: Load scheduler "zse8" with entities [LocalPlayer, LocalPlayer], work=[79*, 0*]
161: 0x098C [0x2B] Lion (ID: 17510692/0x010B3124) [7643*]:
    → "Ahh!"
162: 0x0993 [0x23] WAIT_FOR_DIALOG_INTERACTION
163: 0x0994 [0x1C] WAIT(10* ticks)
164: 0x0997 [0x2A] GET_REQ_LEVEL(level=3, entity_id=Lion (ID: 17510692/0x010B3124))
165: 0x099D [0x45] LOAD_SCHEDULED_TASK: Load scheduler "zse1" with entities [LocalPlayer, LocalPlayer], work=[79*, 0*]
166: 0x09AE [0x52] END_LOAD_SCHEDULER: End scheduler "q00a" with entities [LocalPlayer, LocalPlayer], work=79*
167: 0x09BD [0x1C] WAIT(10* ticks)
168: 0x09C0 [0x27] REQ_SET(priority=0x03, entity_id=Aldo (ID: 17510694/0x010B3126), tag_num=0x05)
169: 0x09C7 [0x27] REQ_SET(priority=0x03, entity_id=Lion (ID: 17510692/0x010B3124), tag_num=0x0D)
170: 0x09CE [0x27] REQ_SET(priority=0x03, entity_id=Zeid (ID: 17510693/0x010B3125), tag_num=0x0D)
171: 0x09D5 [0x27] REQ_SET(priority=0x04, entity_id=Aldo (ID: 17510694/0x010B3126), tag_num=0x0E)
172: 0x09DC [0x27] REQ_SET(priority=0x04, entity_id=Lion (ID: 17510692/0x010B3124), tag_num=0x0C)
173: 0x09E3 [0x27] REQ_SET(priority=0x04, entity_id=Zeid (ID: 17510693/0x010B3125), tag_num=0x0B)
174: 0x09EA [0x7B] Eald'narche (ID: 17510695/0x010B3127) stops talking
175: 0x09EF [0x45] LOAD_SCHEDULED_TASK: Load scheduler "ovl1" with entities [Zeid (ID: 17510693/0x010B3125), Zeid (ID: 17510693/0x010B3125)], work=[200*, 0*]
176: 0x0A00 [0x45] LOAD_SCHEDULED_TASK: Load scheduler "q007" with entities [LocalPlayer, LocalPlayer], work=[79*, 0*]
177: 0x0A11 [0x45] LOAD_SCHEDULED_TASK: Load scheduler "blof" with entities [Qe'Iov Gate (ID: 17510703/0x010B312F), Qe'Iov Gate (ID: 17510703/0x010B312F)], work=[200*, 0*]
178: 0x0A22 [0x27] REQ_SET(priority=0x03, entity_id=Eald'narche (ID: 17510695/0x010B3127), tag_num=0x04)
179: 0x0A29 [0x62] LOAD_EVENT_SCHEDULER: Load scheduler 0xFEFEFE00 with entities [CrystalKnight (ID: 17510702/0x010B312E), CrystalKnight (ID: 17510702/0x010B312E)], work=[43*, 0*]
180: 0x0A3A [0x62] LOAD_EVENT_SCHEDULER: Load scheduler 0xFEFEFE00 with entities [CrystalKnight (ID: 17510698/0x010B312A), CrystalKnight (ID: 17510698/0x010B312A)], work=[43*, 0*]
181: 0x0A4B [0x62] LOAD_EVENT_SCHEDULER: Load scheduler 0xFEFEFE00 with entities [CrystalKnight (ID: 17510699/0x010B312B), CrystalKnight (ID: 17510699/0x010B312B)], work=[43*, 0*]
182: 0x0A5C [0x62] LOAD_EVENT_SCHEDULER: Load scheduler 0xFEFEFE00 with entities [CrystalKnight (ID: 17510700/0x010B312C), CrystalKnight (ID: 17510700/0x010B312C)], work=[43*, 0*]
183: 0x0A6D [0x62] LOAD_EVENT_SCHEDULER: Load scheduler 0xFEFEFE00 with entities [CrystalKnight (ID: 17510701/0x010B312D), CrystalKnight (ID: 17510701/0x010B312D)], work=[43*, 0*]
184: 0x0A7E [0x45] LOAD_SCHEDULED_TASK: Load scheduler 0xFEFEFE00 with entities [Qe'Iov Gate (ID: 17510703/0x010B312F), Qe'Iov Gate (ID: 17510703/0x010B312F)], work=[201*, 0*]
185: 0x0A8F [0x1C] WAIT(90* ticks)
186: 0x0A92 [0x27] REQ_SET(priority=0x03, entity_id=CrystalKnight (ID: 17510698/0x010B312A), tag_num=0x06)
187: 0x0A99 [0x27] REQ_SET(priority=0x03, entity_id=CrystalKnight (ID: 17510702/0x010B312E), tag_num=0x06)
188: 0x0AA0 [0x1C] WAIT(10* ticks)
189: 0x0AA3 [0x27] REQ_SET(priority=0x03, entity_id=CrystalKnight (ID: 17510700/0x010B312C), tag_num=0x06)
190: 0x0AAA [0x27] REQ_SET(priority=0x03, entity_id=CrystalKnight (ID: 17510701/0x010B312D), tag_num=0x06)
191: 0x0AB1 [0x1C] WAIT(10* ticks)
192: 0x0AB4 [0x27] REQ_SET(priority=0x03, entity_id=CrystalKnight (ID: 17510699/0x010B312B), tag_num=0x06)
193: 0x0ABB [0x1C] WAIT(60* ticks)
194: 0x0ABE [0x45] LOAD_SCHEDULED_TASK: Load scheduler "who1" with entities [Qe'Iov Gate (ID: 17510703/0x010B312F), Qe'Iov Gate (ID: 17510703/0x010B312F)], work=[201*, 0*]
195: 0x0ACF [0x55] WAIT_LOAD_SCHEDULER: Wait for scheduler "who1" with entities [Qe'Iov Gate (ID: 17510703/0x010B312F), Qe'Iov Gate (ID: 17510703/0x010B312F)], work=201*
196: 0x0ADE [0x55] WAIT_LOAD_SCHEDULER: Wait for scheduler "q007" with entities [LocalPlayer, LocalPlayer], work=79*
197: 0x0AED [0x2A] GET_REQ_LEVEL(level=3, entity_id=Eald'narche (ID: 17510695/0x010B3127))
198: 0x0AF3 [0x45] LOAD_SCHEDULED_TASK: Load scheduler "x009" with entities [LocalPlayer, LocalPlayer], work=[79*, 0*]
199: 0x0B04 [0x55] WAIT_LOAD_SCHEDULER: Wait for scheduler "x009" with entities [LocalPlayer, LocalPlayer], work=79*
200: 0x0B13 [0x1C] WAIT(120* ticks)
201: 0x0B16 [0x45] LOAD_SCHEDULED_TASK: Load scheduler "whi1" with entities [Qe'Iov Gate (ID: 17510703/0x010B312F), Qe'Iov Gate (ID: 17510703/0x010B312F)], work=[201*, 0*]
202: 0x0B27 [0x1C] WAIT(30* ticks)
203: 0x0B2A [0x27] REQ_SET(priority=0x03, entity_id=Eald'narche (ID: 17510695/0x010B3127), tag_num=0x05)
204: 0x0B31 [0x1C] WAIT(90* ticks)
205: 0x0B34 [0x69] SET_SOUND_VOLUME: Mute System/Zone/Master/SpecialChat
206: 0x0B38 [0x45] LOAD_SCHEDULED_TASK: Load scheduler "x010" with entities [LocalPlayer, LocalPlayer], work=[79*, 0*]
207: 0x0B49 [0x27] REQ_SET(priority=0x03, entity_id=Verena (ID: 17510696/0x010B3128), tag_num=0x04)
208: 0x0B50 [0x27] REQ_SET(priority=0x03, entity_id=Aldo (ID: 17510694/0x010B3126), tag_num=0x0A)
209: 0x0B57 [0x5D] SET_MUSIC_VOLUME(volume=0*, fade_time=240*)
210: 0x0B5C [0x1C] WAIT(290* ticks)
211: 0x0B5F [0x52] END_LOAD_SCHEDULER: End scheduler "x010" with entities [LocalPlayer, LocalPlayer], work=79*
212: 0x0B6E [0x45] LOAD_SCHEDULED_TASK: Load scheduler "x011" with entities [LocalPlayer, LocalPlayer], work=[79*, 0*]
213: 0x0B7F [0x55] WAIT_LOAD_SCHEDULER: Wait for scheduler "x011" with entities [LocalPlayer, LocalPlayer], work=79*
214: 0x0B8E [0x29] REQ_SET_WAIT(priority=0x03, entity_id=Eald'narche (ID: 17510695/0x010B3127), tag_num=0x06)
215: 0x0B95 [0x29] REQ_SET_WAIT(priority=0x03, entity_id=Lion (ID: 17510692/0x010B3124), tag_num=0x0E)
216: 0x0B9C [0x69] SET_SOUND_VOLUME: Unmute System/Zone/Master/SpecialChat
217: 0x0BA0 [0x5C] MUSIC_CONTROL: Set Idle (Day) music to song 127*
218: 0x0BA4 [0x5C] MUSIC_CONTROL: Set Idle (Night) music to song 127*
219: 0x0BA8 [0x45] LOAD_SCHEDULED_TASK: Load scheduler "x01a" with entities [LocalPlayer, LocalPlayer], work=[79*, 0*]
220: 0x0BB9 [0x55] WAIT_LOAD_SCHEDULER: Wait for scheduler "x01a" with entities [LocalPlayer, LocalPlayer], work=79*
221: 0x0BC8 [0x1C] WAIT(10* ticks)
222: 0x0BCB [0x45] LOAD_SCHEDULED_TASK: Load scheduler "x012" with entities [LocalPlayer, LocalPlayer], work=[79*, 0*]
223: 0x0BDC [0x1C] WAIT(60* ticks)
224: 0x0BDF [0x27] REQ_SET(priority=0x03, entity_id=Aldo (ID: 17510694/0x010B3126), tag_num=0x0B)
225: 0x0BE6 [0x1C] WAIT(60* ticks)
226: 0x0BE9 [0x2B] Aldo (ID: 17510694/0x010B3126) [7644*]:
    → "Verena? Verena! Are you all right!?"
227: 0x0BF0 [0x23] WAIT_FOR_DIALOG_INTERACTION
228: 0x0BF1 [0x55] WAIT_LOAD_SCHEDULER: Wait for scheduler "x012" with entities [LocalPlayer, LocalPlayer], work=79*
229: 0x0C00 [0x27] REQ_SET(priority=0x03, entity_id=Eald'narche (ID: 17510695/0x010B3127), tag_num=0x07)
230: 0x0C07 [0x2A] GET_REQ_LEVEL(level=3, entity_id=Aldo (ID: 17510694/0x010B3126))
231: 0x0C0D [0x45] LOAD_SCHEDULED_TASK: Load scheduler "x013" with entities [LocalPlayer, LocalPlayer], work=[79*, 0*]
232: 0x0C1E [0x55] WAIT_LOAD_SCHEDULER: Wait for scheduler "x013" with entities [LocalPlayer, LocalPlayer], work=79*
233: 0x0C2D [0x1C] WAIT(120* ticks)
234: 0x0C30 [0x2B] Eald'narche (ID: 17510695/0x010B3127) [7645*]:
    → "Of course she's all right, you imbecile. Why would I harm my key to the Chrysalis Core?"
235: 0x0C37 [0x23] WAIT_FOR_DIALOG_INTERACTION
236: 0x0C38 [0x2A] GET_REQ_LEVEL(level=3, entity_id=Eald'narche (ID: 17510695/0x010B3127))
237: 0x0C3E [0x27] REQ_SET(priority=0x03, entity_id=Eald'narche (ID: 17510695/0x010B3127), tag_num=0x08)
238: 0x0C45 [0x1C] WAIT(30* ticks)
239: 0x0C48 [0x45] LOAD_SCHEDULED_TASK: Load scheduler "x014" with entities [LocalPlayer, LocalPlayer], work=[79*, 0*]
240: 0x0C59 [0x2B] Eald'narche (ID: 17510695/0x010B3127) [7646*]:
    → "A lucky find, this girl was. Who would have thought this simple Hume would have such extraordinary resonating ability?"
241: 0x0C60 [0x23] WAIT_FOR_DIALOG_INTERACTION
242: 0x0C61 [0x55] WAIT_LOAD_SCHEDULER: Wait for scheduler "x014" with entities [LocalPlayer, LocalPlayer], work=79*
243: 0x0C70 [0x27] REQ_SET(priority=0x03, entity_id=Aldo (ID: 17510694/0x010B3126), tag_num=0x0A)
244: 0x0C77 [0x27] REQ_SET(priority=0x03, entity_id=Kam'lanaut (ID: 17510690/0x010B3122), tag_num=0x1E)
245: 0x0C7E [0x1C] WAIT(30* ticks)
246: 0x0C81 [0x45] LOAD_SCHEDULED_TASK: Load scheduler "x015" with entities [LocalPlayer, LocalPlayer], work=[79*, 0*]
247: 0x0C92 [0x29] REQ_SET_WAIT(priority=0x04, entity_id=Eald'narche (ID: 17510695/0x010B3127), tag_num=0x09)
248: 0x0C99 [0x2B] Kam'lanaut (ID: 17510690/0x010B3122) [7647*]:
    → "No... So, you were planning to use her all along..."
249: 0x0CA0 [0x23] WAIT_FOR_DIALOG_INTERACTION
250: 0x0CA1 [0x2A] GET_REQ_LEVEL(level=3, entity_id=Kam'lanaut (ID: 17510690/0x010B3122))
251: 0x0CA7 [0x55] WAIT_LOAD_SCHEDULER: Wait for scheduler "x015" with entities [LocalPlayer, LocalPlayer], work=79*
252: 0x0CB6 [0x45] LOAD_SCHEDULED_TASK: Load scheduler "p000" with entities [LocalPlayer, LocalPlayer], work=[79*, 0*]
253: 0x0CC7 [0x55] WAIT_LOAD_SCHEDULER: Wait for scheduler "p000" with entities [LocalPlayer, LocalPlayer], work=79*
254: 0x0CD6 [0x27] REQ_SET(priority=0x03, entity_id=Eald'narche (ID: 17510695/0x010B3127), tag_num=0x0A)
255: 0x0CDD [0x1C] WAIT(90* ticks)
256: 0x0CE0 [0x45] LOAD_SCHEDULED_TASK: Load scheduler "p001" with entities [LocalPlayer, LocalPlayer], work=[79*, 0*]
257: 0x0CF1 [0x1C] WAIT(90* ticks)
258: 0x0CF4 [0x2B] Eald'narche (ID: 17510695/0x010B3127) [7648*]:
    → "Farewell, my little brother. Return to the crystal from which you were born."
259: 0x0CFB [0x23] WAIT_FOR_DIALOG_INTERACTION
260: 0x0CFC [0x55] WAIT_LOAD_SCHEDULER: Wait for scheduler "p001" with entities [LocalPlayer, LocalPlayer], work=79*
261: 0x0D0B [0x2A] GET_REQ_LEVEL(level=3, entity_id=Eald'narche (ID: 17510695/0x010B3127))
262: 0x0D11 [0x29] REQ_SET_WAIT(priority=0x03, entity_id=Eald'narche (ID: 17510695/0x010B3127), tag_num=0x0B)
263: 0x0D18 [0x27] REQ_SET(priority=0x03, entity_id=Kam'lanaut (ID: 17510690/0x010B3122), tag_num=0x1F)
264: 0x0D1F [0x27] REQ_SET(priority=0x03, entity_id=Lion (ID: 17510692/0x010B3124), tag_num=0x0E)
265: 0x0D26 [0x27] REQ_SET(priority=0x04, entity_id=Lion (ID: 17510692/0x010B3124), tag_num=0x0F)
266: 0x0D2D [0x27] REQ_SET(priority=0x04, entity_id=Aldo (ID: 17510694/0x010B3126), tag_num=0x0A)
267: 0x0D34 [0x27] REQ_SET(priority=0x04, entity_id=Zeid (ID: 17510693/0x010B3125), tag_num=0x0C)
268: 0x0D3B [0x27] REQ_SET(priority=0x03, entity_id=Verena (ID: 17510696/0x010B3128), tag_num=0x05)
269: 0x0D42 [0x1C] WAIT(30* ticks)
270: 0x0D45 [0x2B] Kam'lanaut (ID: 17510690/0x010B3122) [7649*]:
    → "Why... What did I do to deserve...this..."
271: 0x0D4C [0x23] WAIT_FOR_DIALOG_INTERACTION
272: 0x0D4D [0x2A] GET_REQ_LEVEL(level=3, entity_id=Kam'lanaut (ID: 17510690/0x010B3122))
273: 0x0D53 [0x2A] GET_REQ_LEVEL(level=4, entity_id=Lion (ID: 17510692/0x010B3124))
274: 0x0D59 [0x2A] GET_REQ_LEVEL(level=4, entity_id=Zeid (ID: 17510693/0x010B3125))
275: 0x0D5F [0x5D] SET_MUSIC_VOLUME(volume=127*, fade_time=240*)
276: 0x0D64 [0x45] LOAD_SCHEDULED_TASK: Load scheduler "w000" with entities [LocalPlayer, LocalPlayer], work=[79*, 0*]
277: 0x0D75 [0x27] REQ_SET(priority=0x04, entity_id=Eald'narche (ID: 17510695/0x010B3127), tag_num=0x0F)
278: 0x0D7C [0x1C] WAIT(60* ticks)
279: 0x0D7F [0x2B] Lion (ID: 17510692/0x010B3124) [7650*]:
    → "Little brother... But then... You're the elder prince of the Zilart?"
280: 0x0D86 [0x23] WAIT_FOR_DIALOG_INTERACTION
281: 0x0D87 [0x2A] GET_REQ_LEVEL(level=4, entity_id=Eald'narche (ID: 17510695/0x010B3127))
282: 0x0D8D [0x55] WAIT_LOAD_SCHEDULER: Wait for scheduler "w000" with entities [LocalPlayer, LocalPlayer], work=79*
283: 0x0D9C [0x27] REQ_SET(priority=0x04, entity_id=Eald'narche (ID: 17510695/0x010B3127), tag_num=0x10)
284: 0x0DA3 [0x1C] WAIT(15* ticks)
285: 0x0DA6 [0x45] LOAD_SCHEDULED_TASK: Load scheduler "w002" with entities [LocalPlayer, LocalPlayer], work=[79*, 0*]
286: 0x0DB7 [0x2B] Eald'narche (ID: 17510695/0x010B3127) [7651*]:
    → "You shouldn't be deceived by appearances. My growth was stopped the moment I came in contact with the crystal, ten thousand years ago."
287: 0x0DBE [0x23] WAIT_FOR_DIALOG_INTERACTION
288: 0x0DBF [0x2B] Eald'narche (ID: 17510695/0x010B3127) [7652*]:
    → "And ten thousand years I have waited to put my plan into motion."
289: 0x0DC6 [0x23] WAIT_FOR_DIALOG_INTERACTION
290: 0x0DC7 [0x27] REQ_SET(priority=0x05, entity_id=Eald'narche (ID: 17510695/0x010B3127), tag_num=0x11)
291: 0x0DCE [0x52] END_LOAD_SCHEDULER: End scheduler "w002" with entities [LocalPlayer, LocalPlayer], work=79*
292: 0x0DDD [0x45] LOAD_SCHEDULED_TASK: Load scheduler "w001" with entities [LocalPlayer, LocalPlayer], work=[79*, 0*]
293: 0x0DEE [0x55] WAIT_LOAD_SCHEDULER: Wait for scheduler "w001" with entities [LocalPlayer, LocalPlayer], work=79*
294: 0x0DFD [0x79] Lion (ID: 17510692/0x010B3124) looks at Eald'narche (ID: 17510695/0x010B3127) (Basic look)
295: 0x0E07 [0x1C] WAIT(20* ticks)
296: 0x0E0A [0x2B] Lion (ID: 17510692/0x010B3124) [7653*]:
    → "Plan? You mean, to open the Gate of the Gods?"
297: 0x0E11 [0x23] WAIT_FOR_DIALOG_INTERACTION
298: 0x0E12 [0x7B] Lion (ID: 17510692/0x010B3124) stops talking
299: 0x0E17 [0x45] LOAD_SCHEDULED_TASK: Load scheduler "ovl1" with entities [EventEntity, EventEntity], work=[200*, 0*]
300: 0x0E28 [0x45] LOAD_SCHEDULED_TASK: Load scheduler "w00a" with entities [LocalPlayer, LocalPlayer], work=[79*, 0*]
301: 0x0E39 [0x2B] Eald'narche (ID: 17510695/0x010B3127) [7654*]:
    → "What else? To open the gate, the regeneration of the Chrysalis Core was necessary. However, the unexpected arrival of that Raogrimm character interfered with the crystals' power. His existence created too much "noise.""
302: 0x0E40 [0x23] WAIT_FOR_DIALOG_INTERACTION
303: 0x0E41 [0x2A] GET_REQ_LEVEL(level=5, entity_id=Eald'narche (ID: 17510695/0x010B3127))
304: 0x0E47 [0x2B] Eald'narche (ID: 17510695/0x010B3127) [7655*]:
    → "Luckily for me, you people succeeded in defeating the Shadow Lord, causing the noise to disappear. My plan took a turn when I realized that Raogrimm was a Talekeeper."
305: 0x0E4E [0x23] WAIT_FOR_DIALOG_INTERACTION
306: 0x0E4F [0x27] REQ_SET(priority=0x02, entity_id=Eald'narche (ID: 17510695/0x010B3127), tag_num=0x15)
307: 0x0E56 [0x2B] Eald'narche (ID: 17510695/0x010B3127) [7656*]:
    → "I could utilize the long lost "memories of the ancients" he carried to regenerate the Chrysalis Core."
308: 0x0E5D [0x23] WAIT_FOR_DIALOG_INTERACTION
309: 0x0E5E [0x2A] GET_REQ_LEVEL(level=2, entity_id=Eald'narche (ID: 17510695/0x010B3127))
310: 0x0E64 [0x27] REQ_SET(priority=0x03, entity_id=Eald'narche (ID: 17510695/0x010B3127), tag_num=0x16)
311: 0x0E6B [0x52] END_LOAD_SCHEDULER: End scheduler "w00a" with entities [LocalPlayer, LocalPlayer], work=79*
312: 0x0E7A [0x45] LOAD_SCHEDULED_TASK: Load scheduler "ovl1" with entities [EventEntity, EventEntity], work=[200*, 0*]
313: 0x0E8B [0x45] LOAD_SCHEDULED_TASK: Load scheduler "ovl1" with entities [LocalPlayer, LocalPlayer], work=[200*, 0*]
314: 0x0E9C [0x45] LOAD_SCHEDULED_TASK: Load scheduler "w007" with entities [LocalPlayer, LocalPlayer], work=[79*, 0*]
315: 0x0EAD [0x2A] GET_REQ_LEVEL(level=3, entity_id=Eald'narche (ID: 17510695/0x010B3127))
316: 0x0EB3 [0x55] WAIT_LOAD_SCHEDULER: Wait for scheduler "w007" with entities [LocalPlayer, LocalPlayer], work=79*
317: 0x0EC2 [0x2B] Zeid (ID: 17510693/0x010B3125) [7657*]:
    → ""Memories of the ancients"? What does this have to do with Raogrimm?"
318: 0x0EC9 [0x23] WAIT_FOR_DIALOG_INTERACTION
319: 0x0ECA [0x5B] LOAD_EXT_SCHEDULER: Load scheduler 0xFEFEFE00 with entities [Aldo (ID: 17510694/0x010B3126), Aldo (ID: 17510694/0x010B3126)], work=542*
320: 0x0ED9 [0x45] LOAD_SCHEDULED_TASK: Load scheduler "w006" with entities [LocalPlayer, LocalPlayer], work=[79*, 0*]
321: 0x0EEA [0x55] WAIT_LOAD_SCHEDULER: Wait for scheduler "w006" with entities [LocalPlayer, LocalPlayer], work=79*
322: 0x0EF9 [0x2B] Eald'narche (ID: 17510695/0x010B3127) [7658*]:
    → "I would not think that you would know of such matters. I assume that not even Raogrimm himself knew. What he carried was not in his mind, but in his blood."
323: 0x0F00 [0x23] WAIT_FOR_DIALOG_INTERACTION
324: 0x0F01 [0x27] REQ_SET(priority=0x03, entity_id=Eald'narche (ID: 17510695/0x010B3127), tag_num=0x17)
325: 0x0F08 [0x2B] Eald'narche (ID: 17510695/0x010B3127) [7659*]:
    → "If I were to obtain a part of him, I could use it instead of having to rely on my useless brother."
326: 0x0F0F [0x23] WAIT_FOR_DIALOG_INTERACTION
327: 0x0F10 [0x27] REQ_SET(priority=0x03, entity_id=Aldo (ID: 17510694/0x010B3126), tag_num=0x10)
328: 0x0F17 [0x1C] WAIT(60* ticks)
329: 0x0F1A [0x45] LOAD_SCHEDULED_TASK: Load scheduler "w008" with entities [LocalPlayer, LocalPlayer], work=[79*, 0*]
330: 0x0F2B [0x55] WAIT_LOAD_SCHEDULER: Wait for scheduler "w008" with entities [LocalPlayer, LocalPlayer], work=79*
331: 0x0F3A [0x2B] Aldo (ID: 17510694/0x010B3126) [7660*]:
    → "But even if you did have it, you wouldn't be able to use it on your own!"
332: 0x0F41 [0x23] WAIT_FOR_DIALOG_INTERACTION
333: 0x0F42 [0x2A] GET_REQ_LEVEL(level=3, entity_id=Aldo (ID: 17510694/0x010B3126))
334: 0x0F48 [0x2A] GET_REQ_LEVEL(level=3, entity_id=Eald'narche (ID: 17510695/0x010B3127))
335: 0x0F4E [0x27] REQ_SET(priority=0x03, entity_id=Eald'narche (ID: 17510695/0x010B3127), tag_num=0x08)
336: 0x0F55 [0x1C] WAIT(10* ticks)
337: 0x0F58 [0x45] LOAD_SCHEDULED_TASK: Load scheduler "w009" with entities [LocalPlayer, LocalPlayer], work=[79*, 0*]
338: 0x0F69 [0x55] WAIT_LOAD_SCHEDULER: Wait for scheduler "w009" with entities [LocalPlayer, LocalPlayer], work=79*
339: 0x0F78 [0x2B] Eald'narche (ID: 17510695/0x010B3127) [7661*]:
    → "Yes, you are right. That is where your sister Verena comes in."
340: 0x0F7F [0x23] WAIT_FOR_DIALOG_INTERACTION
341: 0x0F80 [0x45] LOAD_SCHEDULED_TASK: Load scheduler "w011" with entities [LocalPlayer, LocalPlayer], work=[79*, 0*]
342: 0x0F91 [0x55] WAIT_LOAD_SCHEDULER: Wait for scheduler "w011" with entities [LocalPlayer, LocalPlayer], work=79*
343: 0x0FA0 [0x6C] FADE_ENTITY_COLOR(entity_id=ShadowLord (ID: 17510697/0x010B3129), end_alpha=0*, fade_time=0*)
344: 0x0FA9 [0x4E] SET_ENTITY_HIDE_FLAG: Show ShadowLord (ID: 17510697/0x010B3129)
345: 0x0FAF [0x62] LOAD_EVENT_SCHEDULER: Load scheduler 0xFEFEFE00 with entities [ShadowLord (ID: 17510697/0x010B3129), ShadowLord (ID: 17510697/0x010B3129)], work=[79*, 0*]
346: 0x0FC0 [0x45] LOAD_SCHEDULED_TASK: Load scheduler "w00b" with entities [LocalPlayer, LocalPlayer], work=[79*, 0*]
347: 0x0FD1 [0x6C] FADE_ENTITY_COLOR(entity_id=ShadowLord (ID: 17510697/0x010B3129), end_alpha=128*, fade_time=120*)
348: 0x0FDA [0x62] LOAD_EVENT_SCHEDULER: Load scheduler "main" with entities [ShadowLord (ID: 17510697/0x010B3129), ShadowLord (ID: 17510697/0x010B3129)], work=[79*, 0*]
349: 0x0FEB [0x2B] Eald'narche (ID: 17510695/0x010B3127) [7662*]:
    → "The soul of your younger sister resonates with the souls of the beastmen. Only she can communicate with them."
350: 0x0FF2 [0x23] WAIT_FOR_DIALOG_INTERACTION
351: 0x0FF3 [0x55] WAIT_LOAD_SCHEDULER: Wait for scheduler "w00b" with entities [LocalPlayer, LocalPlayer], work=79*
352: 0x1002 [0x27] REQ_SET(priority=0x03, entity_id=ShadowLord (ID: 17510697/0x010B3129), tag_num=0x02)
353: 0x1009 [0x27] REQ_SET(priority=0x03, entity_id=Verena (ID: 17510696/0x010B3128), tag_num=0x06)
354: 0x1010 [0x1C] WAIT(50* ticks)
355: 0x1013 [0x27] REQ_SET(priority=0x03, entity_id=CrystalKnight (ID: 17510701/0x010B312D), tag_num=0x07)
356: 0x101A [0x1C] WAIT(100* ticks)
357: 0x101D [0x79] Eald'narche (ID: 17510695/0x010B3127) looks at Verena (ID: 17510696/0x010B3128) (Basic look)
358: 0x1027 [0x45] LOAD_SCHEDULED_TASK: Load scheduler "w010" with entities [LocalPlayer, LocalPlayer], work=[79*, 0*]
359: 0x1038 [0x27] REQ_SET(priority=0x03, entity_id=Eald'narche (ID: 17510695/0x010B3127), tag_num=0x20)
360: 0x103F [0x4E] SET_ENTITY_HIDE_FLAG: Hide ShadowLord (ID: 17510697/0x010B3129)
361: 0x1045 [0x4E] SET_ENTITY_HIDE_FLAG: Hide Verena (ID: 17510696/0x010B3128)
362: 0x104B [0x2A] GET_REQ_LEVEL(level=3, entity_id=CrystalKnight (ID: 17510701/0x010B312D))
363: 0x1051 [0x55] WAIT_LOAD_SCHEDULER: Wait for scheduler "w010" with entities [LocalPlayer, LocalPlayer], work=79*
364: 0x1060 [0x4E] SET_ENTITY_HIDE_FLAG: Show Verena (ID: 17510696/0x010B3128)
365: 0x1066 [0x4E] SET_ENTITY_HIDE_FLAG: Show ShadowLord (ID: 17510697/0x010B3129)
366: 0x106C [0x62] LOAD_EVENT_SCHEDULER: Load scheduler "main" with entities [ShadowLord (ID: 17510697/0x010B3129), ShadowLord (ID: 17510697/0x010B3129)], work=[79*, 0*]
367: 0x107D [0x5D] SET_MUSIC_VOLUME(volume=0*, fade_time=240*)
368: 0x1082 [0x2B] Eald'narche (ID: 17510695/0x010B3127) [7666*]:
    → "Now, Verena. Let us begin."
369: 0x1089 [0x23] WAIT_FOR_DIALOG_INTERACTION
370: 0x108A [0x27] REQ_SET(priority=0x03, entity_id=Aldo (ID: 17510694/0x010B3126), tag_num=0x0F)
371: 0x1091 [0x1C] WAIT(60* ticks)
372: 0x1094 [0x2B] Aldo (ID: 17510694/0x010B3126) [7667*]:
    → "Stop! What are you doing to her!?"
373: 0x109B [0x23] WAIT_FOR_DIALOG_INTERACTION
374: 0x109C [0x45] LOAD_SCHEDULED_TASK: Load scheduler "w013" with entities [LocalPlayer, LocalPlayer], work=[79*, 0*]
375: 0x10AD [0x27] REQ_SET(priority=0x03, entity_id=Aldo (ID: 17510694/0x010B3126), tag_num=0x0A)
376: 0x10B4 [0x27] REQ_SET(priority=0x03, entity_id=Eald'narche (ID: 17510695/0x010B3127), tag_num=0x21)
377: 0x10BB [0x62] LOAD_EVENT_SCHEDULER: Load scheduler "main" with entities [ShadowLord (ID: 17510697/0x010B3129), ShadowLord (ID: 17510697/0x010B3129)], work=[79*, 0*]
378: 0x10CC [0x27] REQ_SET(priority=0x03, entity_id=Verena (ID: 17510696/0x010B3128), tag_num=0x07)
379: 0x10D3 [0x29] REQ_SET_WAIT(priority=0x03, entity_id=ShadowLord (ID: 17510697/0x010B3129), tag_num=0x03)
380: 0x10DA [0x55] WAIT_LOAD_SCHEDULER: Wait for scheduler "w013" with entities [LocalPlayer, LocalPlayer], work=79*
381: 0x10E9 [0x29] REQ_SET_WAIT(priority=0x04, entity_id=ShadowLord (ID: 17510697/0x010B3129), tag_num=0x04)
382: 0x10F0 [0x69] SET_SOUND_VOLUME: Mute System/Zone/Master/SpecialChat
383: 0x10F4 [0x45] LOAD_SCHEDULED_TASK: Load scheduler "blon" with entities [LocalPlayer, LocalPlayer], work=[200*, 0*]
384: 0x1105 [0x45] LOAD_SCHEDULED_TASK: Load scheduler "w014" with entities [LocalPlayer, LocalPlayer], work=[79*, 0*]
385: 0x1116 [0x27] REQ_SET(priority=0x05, entity_id=ShadowLord (ID: 17510697/0x010B3129), tag_num=0x05)
386: 0x111D [0x55] WAIT_LOAD_SCHEDULER: Wait for scheduler "w014" with entities [LocalPlayer, LocalPlayer], work=79*
387: 0x112C [0x2A] GET_REQ_LEVEL(level=5, entity_id=ShadowLord (ID: 17510697/0x010B3129))
388: 0x1132 [0x27] REQ_SET(priority=0x03, entity_id=Eald'narche (ID: 17510695/0x010B3127), tag_num=0x18)
389: 0x1139 [0x45] LOAD_SCHEDULED_TASK: Load scheduler "ovl1" with entities [Qe'Iov Gate (ID: 17510703/0x010B312F), Qe'Iov Gate (ID: 17510703/0x010B312F)], work=[200*, 0*]
390: 0x114A [0x45] LOAD_SCHEDULED_TASK: Load scheduler "w015" with entities [LocalPlayer, LocalPlayer], work=[79*, 0*]
391: 0x115B [0x27] REQ_SET(priority=0x03, entity_id=Verena (ID: 17510696/0x010B3128), tag_num=0x09)
392: 0x1162 [0x5C] MUSIC_CONTROL: Set Idle (Day) music to song 197*
393: 0x1166 [0x5C] MUSIC_CONTROL: Set Idle (Night) music to song 197*
394: 0x116A [0x9A] WAIT_MUSIC_SERVER()
395: 0x116B [0x62] LOAD_EVENT_SCHEDULER: Load scheduler "main" with entities [Verena (ID: 17510696/0x010B3128), Verena (ID: 17510696/0x010B3128)], work=[76*, 0*]
396: 0x117C [0x55] WAIT_LOAD_SCHEDULER: Wait for scheduler "w015" with entities [LocalPlayer, LocalPlayer], work=79*
397: 0x118B [0x1C] WAIT(140* ticks)
398: 0x118E [0x45] LOAD_SCHEDULED_TASK: Load scheduler "blof" with entities [LocalPlayer, LocalPlayer], work=[200*, 0*]
399: 0x119F [0x45] LOAD_SCHEDULED_TASK: Load scheduler "w016" with entities [LocalPlayer, LocalPlayer], work=[79*, 0*]
400: 0x11B0 [0x55] WAIT_LOAD_SCHEDULER: Wait for scheduler "w016" with entities [LocalPlayer, LocalPlayer], work=79*
401: 0x11BF [0x1C] WAIT(200* ticks)
402: 0x11C2 [0x69] SET_SOUND_VOLUME: Unmute System/Zone/Master/SpecialChat
403: 0x11C6 [0x45] LOAD_SCHEDULED_TASK: Load scheduler "w023" with entities [LocalPlayer, LocalPlayer], work=[79*, 0*]
404: 0x11D7 [0x1C] WAIT(200* ticks)
405: 0x11DA [0x2D] CREATE_ZONE_SCHEDULER_TASK: Create scheduler "siss" with entities [LocalPlayer, LocalPlayer]
406: 0x11E7 [0x79] Eald'narche (ID: 17510695/0x010B3127) looks at Verena (ID: 17510696/0x010B3128) (Basic look)
407: 0x11F1 [0x1C] WAIT(150* ticks)
408: 0x11F4 [0x27] REQ_SET(priority=0x03, entity_id=Eald'narche (ID: 17510695/0x010B3127), tag_num=0x04)
409: 0x11FB [0x1C] WAIT(150* ticks)
410: 0x11FE [0x2D] CREATE_ZONE_SCHEDULER_TASK: Create scheduler "plks" with entities [LocalPlayer, LocalPlayer]
411: 0x120B [0x55] WAIT_LOAD_SCHEDULER: Wait for scheduler "w023" with entities [LocalPlayer, LocalPlayer], work=79*
412: 0x121A [0x7B] Eald'narche (ID: 17510695/0x010B3127) stops talking
413: 0x121F [0x45] LOAD_SCHEDULED_TASK: Load scheduler 0xFEFEFE00 with entities [Qe'Iov Gate (ID: 17510703/0x010B312F), Qe'Iov Gate (ID: 17510703/0x010B312F)], work=[201*, 0*]
414: 0x1230 [0x45] LOAD_SCHEDULED_TASK: Load scheduler "w018" with entities [LocalPlayer, LocalPlayer], work=[79*, 0*]
415: 0x1241 [0x1C] WAIT(280* ticks)
416: 0x1244 [0x52] END_LOAD_SCHEDULER: End scheduler "w018" with entities [LocalPlayer, LocalPlayer], work=79*
417: 0x1253 [0x45] LOAD_SCHEDULED_TASK: Load scheduler "w020" with entities [LocalPlayer, LocalPlayer], work=[79*, 0*]
418: 0x1264 [0x55] WAIT_LOAD_SCHEDULER: Wait for scheduler "w020" with entities [LocalPlayer, LocalPlayer], work=79*
