# 2147483635

## Common Data

| Field            | Value                     |
|------------------|---------------------------|
| Zone             | Stellar Fulcrum (ID: 179) |
| Block Size       | 296 bytes                 |
| Total Events     | 5                         |
| References Count | 8                         |

## List of Events

| Event ID                 | Entrypoint   |   Size |   Instructions |
|--------------------------|--------------|--------|----------------|
| [65535](#event-65535)    | 0x0000       |      1 |              1 |
| [11](#event-11)          | 0x0001       |      1 |              1 |
| [32001](#event-32001)    | 0x0002       |      3 |              2 |
| [65535.1](#event-655351) | 0x0005       |     37 |              5 |
| [65535.2](#event-655352) | 0x002A       |    185 |             37 |

## DAT References (imed_data)

|   Index | Hex Value   |   Dec Value |
|---------|-------------|-------------|
|       0 | 0x0005      |           5 |
|       1 | 0x0001      |           1 |
|       2 | 0x0002      |           2 |
|       3 | 0x000A      |          10 |
|       4 | 0x0009      |           9 |
|       5 | 0x0046      |          70 |
|       6 | 0x008C      |         140 |
|       7 | 0x00D2      |         210 |

## Events

### Event 65535

#### Metadata

| Field        | Value   |
|--------------|---------|
| Entrypoint   | 0x0000  |
| Data Size    | 1 bytes |
| Instructions | 1       |

```
      00 01 02 03 04 05 06 07  08 09 0A 0B 0C 0D 0E 0F
      -- -- -- -- -- -- -- --  -- -- -- -- -- -- -- --
0000: 00                                                .               
```

#### Opcodes

```
  0: 0x0000 [0x00] END_REQSTACK()
```

### Event 11

#### Metadata

| Field        | Value   |
|--------------|---------|
| Entrypoint   | 0x0001  |
| Data Size    | 1 bytes |
| Instructions | 1       |

```
      00 01 02 03 04 05 06 07  08 09 0A 0B 0C 0D 0E 0F
      -- -- -- -- -- -- -- --  -- -- -- -- -- -- -- --
0000:    00                                              .              
```

#### Opcodes

```
  0: 0x0001 [0x00] END_REQSTACK()
```

### Event 32001

#### Metadata

| Field        | Value   |
|--------------|---------|
| Entrypoint   | 0x0002  |
| Data Size    | 3 bytes |
| Instructions | 2       |

```
      00 01 02 03 04 05 06 07  08 09 0A 0B 0C 0D 0E 0F
      -- -- -- -- -- -- -- --  -- -- -- -- -- -- -- --
0000:       22 01 00                                      "..           
```

#### Opcodes

```
  0: 0x0002 [0x22] ENTITY_HIDE_FLAG(enabled=0x01)
  1: 0x0004 [0x00] END_REQSTACK()
```

### Event 65535.1

#### Metadata

| Field        | Value    |
|--------------|----------|
| Entrypoint   | 0x0005   |
| Data Size    | 37 bytes |
| Instructions | 5        |

```
      00 01 02 03 04 05 06 07  08 09 0A 0B 0C 0D 0E 0F
      -- -- -- -- -- -- -- --  -- -- -- -- -- -- -- --
0000:                03 00 00  07 7F 1A 4F 00 66 01 00       ......O.f..
0010: F8 FF FF 7F F8 FF FF 7F  73 69 74 30 53 F8 FF FF  ........sit0S...
0020: 7F F8 FF FF 7F 73 69 74  30 00                    .....sit0.      
```

#### Opcodes

```
  0: 0x0005 [0x03] ExtData[1]->WorkLocal[0] = Entity->Race
  1: 0x000A [0x1A] CALL_SUBROUTINE(address=0x004F)
  2: 0x000D [0x66] LOAD_EXT_SCHEDULER_MAIN: Load scheduler "sit0" with entities [EventEntity, EventEntity], work=ExtData[1]->WorkLocal[1]
  3: 0x001C [0x53] WAIT_SCHEDULER_TASK: Wait for scheduler "sit0" with entities [EventEntity, EventEntity]
  4: 0x0029 [0x00] END_REQSTACK()
```

### Event 65535.2

#### Metadata

| Field        | Value     |
|--------------|-----------|
| Entrypoint   | 0x002A    |
| Data Size    | 185 bytes |
| Instructions | 13        |

```
      00 01 02 03 04 05 06 07  08 09 0A 0B 0C 0D 0E 0F
      -- -- -- -- -- -- -- --  -- -- -- -- -- -- -- --
0020:                                03 00 00 07 7F 1A            ......
0030: 4F 00 66 01 00 F8 FF FF  7F F8 FF FF 7F 73 69 74  O.f..........sit
0040: 31 53 F8 FF FF 7F F8 FF  FF 7F 73 69 74 31 00 03  1S........sit1..
0050: 01 00 00 00 02 01 00 00  80 05 64 00 08 01 00 01  ..........d.....
0060: 80 01 69 00 08 01 00 02  80 14 01 00 03 80 07 01  ..i.............
0070: 00 04 80 1B 03 01 00 00  00 02 01 00 00 80 05 89  ................
0080: 00 08 01 00 01 80 01 8E  00 08 01 00 02 80 14 01  ................
0090: 00 03 80 07 01 00 05 80  1B 03 01 00 00 00 02 01  ................
00A0: 00 00 80 05 AE 00 08 01  00 01 80 01 B3 00 08 01  ................
00B0: 00 02 80 14 01 00 03 80  07 01 00 06 80 1B 03 01  ................
00C0: 00 00 00 02 01 00 00 80  05 D3 00 08 01 00 01 80  ................
00D0: 01 D8 00 08 01 00 02 80  14 01 00 03 80 07 01 00  ................
00E0: 07 80 1B                                          ...             
```

#### Opcodes

```
  0: 0x002A [0x03] ExtData[1]->WorkLocal[0] = Entity->Race
  1: 0x002F [0x1A] CALL_SUBROUTINE(address=0x004F)
  2: 0x0032 [0x66] LOAD_EXT_SCHEDULER_MAIN: Load scheduler "sit1" with entities [EventEntity, EventEntity], work=ExtData[1]->WorkLocal[1]
  3: 0x0041 [0x53] WAIT_SCHEDULER_TASK: Wait for scheduler "sit1" with entities [EventEntity, EventEntity]
  4: 0x004E [0x00] END_REQSTACK()

SUBROUTINE_004F:
  5: 0x004F [0x03] ExtData[1]->WorkLocal[1] = ExtData[1]->WorkLocal[0]
  6: 0x0054 [0x02] IF !(ExtData[1]->WorkLocal[1] > 5*) GOTO 0x0064
  7: 0x005C [0x08] ExtData[1]->WorkLocal[1] -= 1*
  8: 0x0061 [0x01] GOTO 0x0069
  9: 0x0064 [0x08] ExtData[1]->WorkLocal[1] -= 2*

SUBROUTINE_0069:
 10: 0x0069 [0x14] ExtData[1]->WorkLocal[1] *= 10*
 11: 0x006E [0x07] ExtData[1]->WorkLocal[1] += 9*
 12: 0x0073 [0x1B] RETURN
```

#### Data or dead code:

```
# Dead code (unreachable instructions):
     0x0074 [0x03] ExtData[1]->WorkLocal[1] = ExtData[1]->WorkLocal[0]
     0x0079 [0x02] IF !(ExtData[1]->WorkLocal[1] > 5*) GOTO 0x0089
     0x0081 [0x08] ExtData[1]->WorkLocal[1] -= 1*
     0x0086 [0x01] GOTO 0x008E
     0x0089 [0x08] ExtData[1]->WorkLocal[1] -= 2*
     0x008E [0x14] ExtData[1]->WorkLocal[1] *= 10*
     0x0093 [0x07] ExtData[1]->WorkLocal[1] += 70*
     0x0098 [0x1B] RETURN
     0x0099 [0x03] ExtData[1]->WorkLocal[1] = ExtData[1]->WorkLocal[0]
     0x009E [0x02] IF !(ExtData[1]->WorkLocal[1] > 5*) GOTO 0x00AE
     0x00A6 [0x08] ExtData[1]->WorkLocal[1] -= 1*
     0x00AB [0x01] GOTO 0x00B3
     0x00AE [0x08] ExtData[1]->WorkLocal[1] -= 2*
     0x00B3 [0x14] ExtData[1]->WorkLocal[1] *= 10*
     0x00B8 [0x07] ExtData[1]->WorkLocal[1] += 140*
     0x00BD [0x1B] RETURN
     0x00BE [0x03] ExtData[1]->WorkLocal[1] = ExtData[1]->WorkLocal[0]
     0x00C3 [0x02] IF !(ExtData[1]->WorkLocal[1] > 5*) GOTO 0x00D3
     0x00CB [0x08] ExtData[1]->WorkLocal[1] -= 1*
     0x00D0 [0x01] GOTO 0x00D8
     0x00D3 [0x08] ExtData[1]->WorkLocal[1] -= 2*
     0x00D8 [0x14] ExtData[1]->WorkLocal[1] *= 10*
     0x00DD [0x07] ExtData[1]->WorkLocal[1] += 210*
     0x00E2 [0x1B] RETURN
```
