# 0x7FFFFFF0 - Zone Events

## Common Data

| Field            | Value                     |
|------------------|---------------------------|
| Zone             | Stellar Fulcrum (ID: 179) |
| Block Size       | 15360 bytes               |
| Total Events     | 21                        |
| References Count | 311                       |

## List of Events

| Event ID                 | Entrypoint   |   Size |   Instructions |
|--------------------------|--------------|--------|----------------|
| [65535](#event-65535)    | 0x0000       |      1 |              1 |
| [65534](#event-65534)    | 0x0001       |      1 |              1 |
| [7](#event-7)            | 0x0002       |     50 |              8 |
| [8](#event-8)            | 0x0034       |     82 |             16 |
| [9](#event-9)            | 0x0086       |     82 |             16 |
| [32000](#event-32000)    | 0x00D8       |   2143 |            418 |
| [32002](#event-32002)    | 0x0937       |    494 |             83 |
| [32001](#event-32001)    | 0x0B25       |   1076 |            188 |
| [6](#event-6)            | 0x0F59       |      5 |              3 |
| [5](#event-5)            | 0x0F5E       |      1 |              1 |
| [32003](#event-32003)    | 0x0F5F       |   4460 |            559 |
| [0](#event-0)            | 0x20CB       |   5275 |            576 |
| [65535.1](#event-655351) | 0x3566       |     37 |              5 |
| [65535.2](#event-655352) | 0x358B       |    185 |             37 |
| [65535.3](#event-655353) | 0x3644       |      6 |              2 |
| [65535.4](#event-655354) | 0x364A       |     42 |              6 |
| [65535.5](#event-655355) | 0x3674       |      7 |              3 |
| [65535.6](#event-655356) | 0x367B       |      7 |              3 |
| [65535.7](#event-655357) | 0x3682       |     15 |              5 |
| [65535.8](#event-655358) | 0x3691       |     30 |              7 |
| [65535.9](#event-655359) | 0x36AF       |     15 |              5 |

## DAT References (imed_data)

|   Index | Hex Value   |   Dec Value |
|---------|-------------|-------------|
|       0 | 0x00C8      |         200 |
|       1 | 0x0000      |           0 |
|       2 | 0x0002      |           2 |
|       3 | 0x1DB0      |        7600 |
|       4 | 0x0001      |           1 |
|       5 | 0x008C      |         140 |
|       6 | 0x003C      |          60 |
|       7 | 0x000F      |          15 |
|       8 | 0x0010      |          16 |
|       9 | 0x001F      |          31 |
|      10 | 0xFFFFFFFF  |  4294967295 |
|      11 | 0x1DB6      |        7606 |
|      12 | 0x1DA8      |        7592 |
|      13 | 0x0005      |           5 |
|      14 | 0x0003      |           3 |
|      15 | 0x0004      |           4 |
|      16 | 0x1C3B      |        7227 |
|      17 | 0x00FF      |         255 |
|      18 | 0x0013      |          19 |
|      19 | 0x0008      |           8 |
|      20 | 0x0009      |           9 |
|      21 | 0x000B      |          11 |
|      22 | 0x1C46      |        7238 |
|      23 | 0x1C47      |        7239 |
|      24 | 0x1C48      |        7240 |
|      25 | 0x1C49      |        7241 |
|      26 | 0x1C6D      |        7277 |
|      27 | 0x0006      |           6 |
|      28 | 0x0007      |           7 |
|      29 | 0x000A      |          10 |
|      30 | 0x000C      |          12 |
|      31 | 0x000D      |          13 |
|      32 | 0x000E      |          14 |
|      33 | 0x0011      |          17 |
|      34 | 0x0012      |          18 |
|      35 | 0x0014      |          20 |
|      36 | 0x0015      |          21 |
|      37 | 0x0016      |          22 |
|      38 | 0x0017      |          23 |
|      39 | 0x0018      |          24 |
|      40 | 0x0019      |          25 |
|      41 | 0x001A      |          26 |
|      42 | 0x001B      |          27 |
|      43 | 0x001C      |          28 |
|      44 | 0x001D      |          29 |
|      45 | 0x001E      |          30 |
|      46 | 0x1DA2      |        7586 |
|      47 | 0x1DA7      |        7591 |
|      48 | 0x1DA6      |        7590 |
|      49 | 0x1DB4      |        7604 |
|      50 | 0x1DB3      |        7603 |
|      51 | 0x0064      |         100 |
|      52 | 0x1D8E      |        7566 |
|      53 | 0x00C1      |         193 |
|      54 | 0x002F      |          47 |
|      55 | 0x1C3E      |        7230 |
|      56 | 0x00C9      |         201 |
|      57 | 0x4E220     |      320032 |
|      58 | 0xFFFFD377  |  4294955895 |
|      59 | 0x0C00      |        3072 |
|      60 | 0x00B4      |         180 |
|      61 | 0xFFF6C42B  |  4294362155 |
|      62 | 0x752B9     |      479929 |
|      63 | 0xFFFFA767  |  4294944615 |
|      64 | 0x03E0      |         992 |
|      65 | 0xFFFBFE43  |  4294704707 |
|      66 | 0x5C401     |      377857 |
|      67 | 0xFFFDE79F  |  4294829983 |
|      68 | 0x0D92      |        3474 |
|      69 | 0x47AC      |       18348 |
|      70 | 0x76E1C     |      486940 |
|      71 | 0xFFFC93B2  |  4294742962 |
|      72 | 0x00C2      |         194 |
|      73 | 0x388A9     |      231593 |
|      74 | 0x57E9E     |      360094 |
|      75 | 0xFFFD59FC  |  4294793724 |
|      76 | 0x0726      |        1830 |
|      77 | 0x872C0     |      553664 |
|      78 | 0x7FEA3     |      523939 |
|      79 | 0xFFFF6AC3  |  4294929091 |
|      80 | 0x0A65      |        2661 |
|      81 | 0xFFF80FF9  |  4294447097 |
|      82 | 0xFFFFDFAB  |  4294959019 |
|      83 | 0x03AC      |         940 |
|      84 | 0x03F5      |        1013 |
|      85 | 0xFFF2A593  |  4294092179 |
|      86 | 0xFFFF548C  |  4294923404 |
|      87 | 0xFFFF442C  |  4294919212 |
|      88 | 0x0201      |         513 |
|      89 | 0xFFF478D5  |  4294211797 |
|      90 | 0x89AEB     |      563947 |
|      91 | 0xFFFE4A5D  |  4294855261 |
|      92 | 0x0DEF      |        3567 |
|      93 | 0x1E173     |      123251 |
|      94 | 0xB8221     |      754209 |
|      95 | 0xFFFD5FA4  |  4294795172 |
|      96 | 0x01B8      |         440 |
|      97 | 0xFFF81ECC  |  4294450892 |
|      98 | 0xFFF3BE05  |  4294163973 |
|      99 | 0x5E8E      |       24206 |
|     100 | 0x01B5      |         437 |
|     101 | 0x012C      |         300 |
|     102 | 0x0080      |         128 |
|     103 | 0xFFF690A7  |  4294348967 |
|     104 | 0xFFF62CE4  |  4294323428 |
|     105 | 0xFFFF9B33  |  4294941491 |
|     106 | 0x0EB1      |        3761 |
|     107 | 0xFFFAEE7D  |  4294635133 |
|     108 | 0xFFF941C6  |  4294525382 |
|     109 | 0xFFFE8CB1  |  4294872241 |
|     110 | 0x0EB0      |        3760 |
|     111 | 0xFFFFCF50  |  4294954832 |
|     112 | 0xFFF61B47  |  4294318919 |
|     113 | 0xFFFD07BB  |  4294772667 |
|     114 | 0x0EBA      |        3770 |
|     115 | 0x4EF35     |      323381 |
|     116 | 0xFFF93A6F  |  4294523503 |
|     117 | 0xFFFE5868  |  4294858856 |
|     118 | 0x0EA0      |        3744 |
|     119 | 0x92763     |      599907 |
|     120 | 0xFFF5AB97  |  4294290327 |
|     121 | 0xFFFFA837  |  4294944823 |
|     122 | 0x0EB3      |        3763 |
|     123 | 0x00A8      |         168 |
|     124 | 0x30D7B     |      200059 |
|     125 | 0xFFFFAA3A  |  4294945338 |
|     126 | 0xFFFFFF06  |  4294967046 |
|     127 | 0x0411      |        1041 |
|     128 | 0x00CA      |         202 |
|     129 | 0x837EC     |      538604 |
|     130 | 0x7A88C     |      501900 |
|     131 | 0xFFFFC98A  |  4294953354 |
|     132 | 0x0CBC      |        3260 |
|     133 | 0x00CB      |         203 |
|     134 | 0x870F5     |      553205 |
|     135 | 0x8FF41     |      589633 |
|     136 | 0xFFFFFFEB  |  4294967275 |
|     137 | 0x0587      |        1415 |
|     138 | 0x00D3      |         211 |
|     139 | 0x8AF88     |      569224 |
|     140 | 0x85E6E     |      548462 |
|     141 | 0x8FE5      |       36837 |
|     142 | 0x02A1      |         673 |
|     143 | 0x0024      |          36 |
|     144 | 0x1D90      |        7568 |
|     145 | 0x1D8F      |        7567 |
|     146 | 0x1DB2      |        7602 |
|     147 | 0x1D92      |        7570 |
|     148 | 0x1D91      |        7569 |
|     149 | 0xFFF810CC  |  4294447308 |
|     150 | 0x5081      |       20609 |
|     151 | 0xFFFFED72  |  4294962546 |
|     152 | 0x0C0A      |        3082 |
|     153 | 0x006C      |         108 |
|     154 | 0xFFFA221B  |  4294582811 |
|     155 | 0x30D3F     |      199999 |
|     156 | 0x3BA9      |       15273 |
|     157 | 0x658FF     |      415999 |
|     158 | 0xFFFCF2C1  |  4294767297 |
|     159 | 0x0078      |         120 |
|     160 | 0xFFFA85A8  |  4294608296 |
|     161 | 0x31703     |      202499 |
|     162 | 0x0400      |        1024 |
|     163 | 0xFFFFFC18  |  4294966296 |
|     164 | 0xFFFA879C  |  4294608796 |
|     165 | 0x03E8      |        1000 |
|     166 | 0x07D0      |        2000 |
|     167 | 0xFFFA8B84  |  4294609796 |
|     168 | 0xFFFFF830  |  4294965296 |
|     169 | 0xFFFA8DB5  |  4294610357 |
|     170 | 0x0378      |         888 |
|     171 | 0x0490      |        1168 |
|     172 | 0x037F      |         895 |
|     173 | 0x0380      |         896 |
|     174 | 0x03C6      |         966 |
|     175 | 0x0142      |         322 |
|     176 | 0x1E94      |        7828 |
|     177 | 0x1E95      |        7829 |
|     178 | 0x1E96      |        7830 |
|     179 | 0x1E97      |        7831 |
|     180 | 0x1E98      |        7832 |
|     181 | 0x1E99      |        7833 |
|     182 | 0x1E9A      |        7834 |
|     183 | 0x005A      |          90 |
|     184 | 0x06A5      |        1701 |
|     185 | 0x933E      |       37694 |
|     186 | 0x09C3      |        2499 |
|     187 | 0x0B66      |        2918 |
|     188 | 0xA388      |       41864 |
|     189 | 0x02EE      |         750 |
|     190 | 0x0BFE      |        3070 |
|     191 | 0x8CA0      |       36000 |
|     192 | 0x0A0E      |        2574 |
|     193 | 0x005D      |          93 |
|     194 | 0x01CC      |         460 |
|     195 | 0x1EC6      |        7878 |
|     196 | 0x1EC7      |        7879 |
|     197 | 0x002D      |          45 |
|     198 | 0x074D      |        1869 |
|     199 | 0xFFFA7837  |  4294604855 |
|     200 | 0x0523      |        1315 |
|     201 | 0x11C6      |        4550 |
|     202 | 0xFFFA7522  |  4294604066 |
|     203 | 0x0963      |        2403 |
|     204 | 0x1079      |        4217 |
|     205 | 0xFFFA7BC0  |  4294605760 |
|     206 | 0x0514      |        1300 |
|     207 | 0x08C0      |        2240 |
|     208 | 0xFFFA80FB  |  4294607099 |
|     209 | 0x03C0      |         960 |
|     210 | 0x0ED0      |        3792 |
|     211 | 0xFFFA8118  |  4294607128 |
|     212 | 0x05AA      |        1450 |
|     213 | 0x0393      |         915 |
|     214 | 0x0492      |        1170 |
|     215 | 0x0381      |         897 |
|     216 | 0x0478      |        1144 |
|     217 | 0x007A      |         122 |
|     218 | 0x1E9B      |        7835 |
|     219 | 0x1E9C      |        7836 |
|     220 | 0x1E9D      |        7837 |
|     221 | 0x1E9E      |        7838 |
|     222 | 0x1E9F      |        7839 |
|     223 | 0x0187      |         391 |
|     224 | 0xFFFA84F0  |  4294608112 |
|     225 | 0x0417      |        1047 |
|     226 | 0x04DC      |        1244 |
|     227 | 0xFFFA7E1C  |  4294606364 |
|     228 | 0x0442      |        1090 |
|     229 | 0x07AD      |        1965 |
|     230 | 0xFFFA7F8C  |  4294606732 |
|     231 | 0x049A      |        1178 |
|     232 | 0x0945      |        2373 |
|     233 | 0xFFFA82AE  |  4294607534 |
|     234 | 0x047C      |        1148 |
|     235 | 0x033B      |         827 |
|     236 | 0xFFFA817E  |  4294607230 |
|     237 | 0x0459      |        1113 |
|     238 | 0xFFFFFA91  |  4294965905 |
|     239 | 0xFFFA7A8E  |  4294605454 |
|     240 | 0xFFFFFDAF  |  4294966703 |
|     241 | 0xFFFA7EEA  |  4294606570 |
|     242 | 0xFFFFF6CB  |  4294964939 |
|     243 | 0xFFFA7F5F  |  4294606687 |
|     244 | 0xFFFFF956  |  4294965590 |
|     245 | 0xFFFA869B  |  4294608539 |
|     246 | 0xFFFFFDFF  |  4294966783 |
|     247 | 0xFFFA8727  |  4294608679 |
|     248 | 0xFFFFF4BC  |  4294964412 |
|     249 | 0xFFFA8599  |  4294608281 |
|     250 | 0x0379      |         889 |
|     251 | 0x1EA0      |        7840 |
|     252 | 0x1C3C      |        7228 |
|     253 | 0x00DE      |         222 |
|     254 | 0xFFFA1D66  |  4294581606 |
|     255 | 0x042D      |        1069 |
|     256 | 0x0028      |          40 |
|     257 | 0xFFF9D89C  |  4294563996 |
|     258 | 0x0168      |         360 |
|     259 | 0x0071      |         113 |
|     260 | 0x0074      |         116 |
|     261 | 0x0077      |         119 |
|     262 | 0x007B      |         123 |
|     263 | 0x0087      |         135 |
|     264 | 0x00D7      |         215 |
|     265 | 0x0144      |         324 |
|     266 | 0x004F      |          79 |
|     267 | 0x00D2      |         210 |
|     268 | 0x0096      |         150 |
|     269 | 0x1DB9      |        7609 |
|     270 | 0x1DBA      |        7610 |
|     271 | 0x1DBB      |        7611 |
|     272 | 0x1DBC      |        7612 |
|     273 | 0x1DBD      |        7613 |
|     274 | 0x1DBE      |        7614 |
|     275 | 0x1DBF      |        7615 |
|     276 | 0x1DC0      |        7616 |
|     277 | 0x1DC1      |        7617 |
|     278 | 0x1DC2      |        7618 |
|     279 | 0x1DC3      |        7619 |
|     280 | 0x1DC4      |        7620 |
|     281 | 0x1DC5      |        7621 |
|     282 | 0x1DC6      |        7622 |
|     283 | 0x1DC7      |        7623 |
|     284 | 0x1DC8      |        7624 |
|     285 | 0x00F0      |         240 |
|     286 | 0x1DC9      |        7625 |
|     287 | 0x0050      |          80 |
|     288 | 0x1DCA      |        7626 |
|     289 | 0x002B      |          43 |
|     290 | 0x0037      |          55 |
|     291 | 0x1DCB      |        7627 |
|     292 | 0x1DCC      |        7628 |
|     293 | 0x1DCD      |        7629 |
|     294 | 0x1DCE      |        7630 |
|     295 | 0x00F7      |         247 |
|     296 | 0x1E09      |        7689 |
|     297 | 0x864D      |       34381 |
|     298 | 0x56DF      |       22239 |
|     299 | 0x055C      |        1372 |
|     300 | 0x0BF7      |        3063 |
|     301 | 0x6A00      |       27136 |
|     302 | 0x1DCF      |        7631 |
|     303 | 0x1DD0      |        7632 |
|     304 | 0x004B      |          75 |
|     305 | 0x00A0      |         160 |
|     306 | 0x0046      |          70 |
|     307 | 0x034E      |         846 |
|     308 | 0x87F8      |       34808 |
|     309 | 0x92F9      |       37625 |
|     310 | 0x925C      |       37468 |

## String References

- **7227**: Enter the battlefield? [Enter./Decline.]
- **7228**: Leave the battlefield? [Run away./Stay.]
- **7230**: You cannot enter the battlefield at present. Please wait a little longer.
- **7238**: You are cleared to enter the battlefield, but you cannot while party members are engaged in combat.
- **7239**: You are cleared to enter the battlefield, but you cannot while party members are engaged in combat.
- **7240**: You are cleared to enter the battlefield, but you cannot while party members are engaged in combat.
- **7241**: You are cleared to enter the battlefield, but you cannot while party members are engaged in combat.
- **7277**: You do not meet the requirements to enter the battlefield. Access is denied.
- **7566**: Skip the event? [Yes./No.]
- **7567**: Battlefield clear time: $3 second[/s]!
- **7568**: Battlefield clear time: $3 minute[/s], $2 second[/s]!
- **7569**: The current battlefield clear time record is $3 second[/s].
- **7570**: The current battlefield clear time record is $3 minute[/s] $2 second[/s].
- **7586**: Only $3 [member/members] have clearance to enter the battlefield. This room has reached its maximum capacity.
- **7590**: That record is held by $5 adventurers, including %0!
- **7591**: That record is held by %0!
- **7592**: Select difficulty. [Very difficult. (Level: ???)/Difficult. (Level: ???)/Normal. (Level: $18)/Easy. (Level: $17)/Very Easy. (Level: $16)/Leave.]
- **7600**: Step into the circle? [Yes./No.]
- **7602**: You have broken the clear time record for "[Return to Delkfutt's Tower/The Indomitable Triumvirate/The Dauntless Duo/The Solitary Demolisher/Heroine's Combat/Mercenary Camp/Ode of Life Bestowing/$26Return to Delkfutt's Tower/True Love/A Fond Farewell]"!
- **7603**: The current battlefield clear time record for "[Return to Delkfutt's Tower/The Indomitable Triumvirate/The Dauntless Duo/The Solitary Demolisher/Heroine's Combat/Mercenary Camp/Ode of Life Bestowing/$26Return to Delkfutt's Tower/True Love/A Fond Farewell]" is $3 second[/s].
- **7604**: The current battlefield clear time record for "[Return to Delkfutt's Tower/The Indomitable Triumvirate/The Dauntless Duo/The Solitary Demolisher/Heroine's Combat/Mercenary Camp/Ode of Life Bestowing/$26Return to Delkfutt's Tower/True Love/A Fond Farewell]" is $3 minute[/s] $2 second[/s].
- **7606**: Which battlefield will you enter? [None./Return to Delkfutt's Tower./The Indomitable Triumvirate (vs. 3!)/The Dauntless Duo (vs. 2!)/The Solitary Demolisher (vs. 1!)/Heroine's Combat./Mercenary Camp./Ode of Life Bestowing./$26Return to Delkfutt's Tower./True Love./A Fond Farewell./@/@/@/@/@/@/@/@/@/@/@/@/@/@/@/@/@/@/@]
- **7689**: The $3 begins to resonate with the door.
- **7840**: @@

## Events

### Event 65535

#### Metadata

| Field        | Value   |
|--------------|---------|
| Entrypoint   | 0x0000  |
| Data Size    | 1 bytes |
| Instructions | 1       |

```
      00 01 02 03 04 05 06 07  08 09 0A 0B 0C 0D 0E 0F
      -- -- -- -- -- -- -- --  -- -- -- -- -- -- -- --
0000: 00                                                .               
```

#### Opcodes

```
  0: 0x0000 [0x00] END_REQSTACK()
```

### Event 65534

#### Metadata

| Field        | Value   |
|--------------|---------|
| Entrypoint   | 0x0001  |
| Data Size    | 1 bytes |
| Instructions | 1       |

```
      00 01 02 03 04 05 06 07  08 09 0A 0B 0C 0D 0E 0F
      -- -- -- -- -- -- -- --  -- -- -- -- -- -- -- --
0000:    00                                              .              
```

#### Opcodes

```
  0: 0x0001 [0x00] END_REQSTACK()
```

### Event 7

#### Metadata

| Field        | Value    |
|--------------|----------|
| Entrypoint   | 0x0002   |
| Data Size    | 50 bytes |
| Instructions | 8        |

```
      00 01 02 03 04 05 06 07  08 09 0A 0B 0C 0D 0E 0F
      -- -- -- -- -- -- -- --  -- -- -- -- -- -- -- --
0000:       4E 00 F0 FF FF 7F  20 01 42 80 F0 FF FF 7F    N..... .B.....
0010: 45 00 80 F0 FF FF 7F F0  FF FF 7F 66 64 69 31 01  E..........fdi1.
0020: 80 62 02 80 F0 FF FF 7F  F0 FF FF 7F 6D 61 69 6E  .b..........main
0030: 01 80 21 00                                       ..!.            
```

#### Opcodes

```
  0: 0x0002 [0x4E] SET_ENTITY_HIDE_FLAG: Show LocalPlayer
  1: 0x0008 [0x20] SET_CLI_EVENT_UC_FLAG: Lock player control
  2: 0x000A [0x42] SET_CLI_EVENT_CANCEL_DATA()
  3: 0x000B [0x80] LOAD_WAIT(entity=LocalPlayer)
  4: 0x0010 [0x45] LOAD_SCHEDULED_TASK: Load scheduler "fdi1" with entities [LocalPlayer, LocalPlayer], work=[200*, 0*]
  5: 0x0021 [0x62] LOAD_EVENT_SCHEDULER: Load scheduler "main" with entities [LocalPlayer, LocalPlayer], work=[2*, 0*]
  6: 0x0032 [0x21] END_EVENT
  7: 0x0033 [0x00] END_REQSTACK()
```

### Event 8

#### Metadata

| Field        | Value    |
|--------------|----------|
| Entrypoint   | 0x0034   |
| Data Size    | 82 bytes |
| Instructions | 16       |

```
      00 01 02 03 04 05 06 07  08 09 0A 0B 0C 0D 0E 0F
      -- -- -- -- -- -- -- --  -- -- -- -- -- -- -- --
0030:             20 01 24 03  80 04 80 01 80 25 02 00       .$......%..
0040: 10 01 80 00 77 00 42 03  01 10 04 80 62 04 80 F0  ....w.B.....b...
0050: FF FF 7F F0 FF FF 7F 6D  61 69 6E 01 80 1C 05 80  .......main.....
0060: 45 00 80 F0 FF FF 7F F0  FF FF 7F 66 64 6F 31 01  E..........fdo1.
0070: 80 1C 06 80 01 82 00 02  00 10 04 80 00 82 00 01  ................
0080: 82 00 20 00 21 00                                 .. .!.          
```

#### Opcodes

```
  0: 0x0034 [0x20] SET_CLI_EVENT_UC_FLAG: Lock player control
  1: 0x0036 [0x24] CREATE_DIALOG(message_id=7600*, default_option=1*, option_flags=0*)
    → "Step into the circle? [Yes./No.]"
  2: 0x003D [0x25] WAIT_DIALOG_SELECT()
  3: 0x003E [0x02] IF !(Work_Zone[0] == 0*) GOTO 0x0077
  4: 0x0046 [0x42] SET_CLI_EVENT_CANCEL_DATA()
  5: 0x0047 [0x03] Work_Zone[1] = 1*
  6: 0x004C [0x62] LOAD_EVENT_SCHEDULER: Load scheduler "main" with entities [LocalPlayer, LocalPlayer], work=[1*, 0*]
  7: 0x005D [0x1C] WAIT(140* ticks)
  8: 0x0060 [0x45] LOAD_SCHEDULED_TASK: Load scheduler "fdo1" with entities [LocalPlayer, LocalPlayer], work=[200*, 0*]
  9: 0x0071 [0x1C] WAIT(60* ticks)
 10: 0x0074 [0x01] GOTO 0x0082
 11: 0x0077 [0x02] IF !(Work_Zone[0] == 1*) GOTO 0x0082
 12: 0x007F [0x01] GOTO 0x0082

SUBROUTINE_0082:
 13: 0x0082 [0x20] SET_CLI_EVENT_UC_FLAG: Unlock player control
 14: 0x0084 [0x21] END_EVENT
 15: 0x0085 [0x00] END_REQSTACK()
```

### Event 9

#### Metadata

| Field        | Value    |
|--------------|----------|
| Entrypoint   | 0x0086   |
| Data Size    | 82 bytes |
| Instructions | 16       |

```
      00 01 02 03 04 05 06 07  08 09 0A 0B 0C 0D 0E 0F
      -- -- -- -- -- -- -- --  -- -- -- -- -- -- -- --
0080:                   20 01  24 03 80 04 80 01 80 25         .$......%
0090: 02 00 10 01 80 00 C9 00  42 03 01 10 04 80 62 04  ........B.....b.
00A0: 80 F0 FF FF 7F F0 FF FF  7F 6D 61 69 6E 01 80 1C  .........main...
00B0: 05 80 45 00 80 F0 FF FF  7F F0 FF FF 7F 66 64 6F  ..E..........fdo
00C0: 31 01 80 1C 06 80 01 D4  00 02 00 10 04 80 00 D4  1...............
00D0: 00 01 D4 00 20 00 21 00                           .... .!.        
```

#### Opcodes

```
  0: 0x0086 [0x20] SET_CLI_EVENT_UC_FLAG: Lock player control
  1: 0x0088 [0x24] CREATE_DIALOG(message_id=7600*, default_option=1*, option_flags=0*)
    → "Step into the circle? [Yes./No.]"
  2: 0x008F [0x25] WAIT_DIALOG_SELECT()
  3: 0x0090 [0x02] IF !(Work_Zone[0] == 0*) GOTO 0x00C9
  4: 0x0098 [0x42] SET_CLI_EVENT_CANCEL_DATA()
  5: 0x0099 [0x03] Work_Zone[1] = 1*
  6: 0x009E [0x62] LOAD_EVENT_SCHEDULER: Load scheduler "main" with entities [LocalPlayer, LocalPlayer], work=[1*, 0*]
  7: 0x00AF [0x1C] WAIT(140* ticks)
  8: 0x00B2 [0x45] LOAD_SCHEDULED_TASK: Load scheduler "fdo1" with entities [LocalPlayer, LocalPlayer], work=[200*, 0*]
  9: 0x00C3 [0x1C] WAIT(60* ticks)
 10: 0x00C6 [0x01] GOTO 0x00D4
 11: 0x00C9 [0x02] IF !(Work_Zone[0] == 1*) GOTO 0x00D4
 12: 0x00D1 [0x01] GOTO 0x00D4

SUBROUTINE_00D4:
 13: 0x00D4 [0x20] SET_CLI_EVENT_UC_FLAG: Unlock player control
 14: 0x00D6 [0x21] END_EVENT
 15: 0x00D7 [0x00] END_REQSTACK()
```

### Event 32000

#### Metadata

| Field        | Value      |
|--------------|------------|
| Entrypoint   | 0x00D8     |
| Data Size    | 2143 bytes |
| Instructions | 285        |

```
      00 01 02 03 04 05 06 07  08 09 0A 0B 0C 0D 0E 0F
      -- -- -- -- -- -- -- --  -- -- -- -- -- -- -- --
00D0:                          20 01 79 00 F0 FF FF 7F           .y.....
00E0: F0 FF FF 7F 03 02 00 02  10 03 03 00 03 10 03 05  ................
00F0: 00 04 10 03 06 00 05 10  03 0F 00 06 10 03 10 00  ................
0100: 07 10 03 11 00 08 10 41  01 80 07 80 09 10 07 00  .......A........
0110: 41 08 80 09 80 09 10 06  10 06 01 00 02 07 00 01  A...............
0120: 80 00 1B 02 03 08 00 0A  80 0F 08 00 06 00 10 08  ................
0130: 00 04 80 24 0B 80 01 80  08 00 25 02 00 10 01 80  ...$......%.....
0140: 00 49 01 01 1C 09 01 1B  02 03 03 00 00 10 0C 03  .I..............
0150: 00 06 16 00 06 13 00 3E  0F 00 03 00 F7 01 06 0F  .......>........
0160: 00 06 08 00 3E 11 00 03  00 6E 01 01 75 01 3C 08  ....>....n..u.<.
0170: 00 01 80 04 80 3E 10 00  03 00 7F 01 01 86 01 3C  .....>.........<
0180: 08 00 04 80 04 80 1A 6C  1D 24 0C 80 0D 80 08 00  .......l.$......
0190: 25 02 00 10 01 80 00 A1  01 03 0F 00 04 80 01 F4  %...............
01A0: 01 02 00 10 04 80 00 B1  01 03 0F 00 02 80 01 F4  ................
01B0: 01 02 00 10 02 80 00 C1  01 03 0F 00 0E 80 01 F4  ................
01C0: 01 02 00 10 0E 80 00 D1  01 03 0F 00 0F 80 01 F4  ................
01D0: 01 02 00 10 0F 80 00 E1  01 03 0F 00 0D 80 01 F4  ................
01E0: 01 02 00 10 0D 80 00 EF  01 01 1C 09 01 F4 01 03  ................
01F0: 0F 00 0E 80 01 1B 02 06  0F 00 1A 36 09 02 16 00  ...........6....
0200: 04 80 00 1B 02 24 10 80  04 80 01 80 25 02 00 10  .....$......%...
0210: 04 80 00 1B 02 01 1C 09  01 1B 02 42 03 01 10 11  ...........B....
0220: 80 43 00 43 01 06 01 10  45 00 80 F0 FF FF 7F F0  .C.C....E.......
0230: FF FF 7F 66 64 6F 31 01  80 55 00 80 F0 FF FF 7F  ...fdo1..U......
0240: F0 FF FF 7F 66 64 6F 31  3B F0 FF FF 7F 20 10 21  ....fdo1;.... .!
0250: 10 22 10 38 12 80 02 07  00 04 80 00 75 02 03 00  .".8........u...
0260: 00 04 80 03 04 00 03 00  03 02 00 01 80 03 1C 00  ................
0270: 01 80 01 35 06 03 00 00  04 80 02 00 00 0E 80 05  ...5............
0280: E5 08 02 01 80 04 80 00  8F 02 03 00 00 05 00 40  ...............@
0290: 01 80 0E 80 01 10 00 00  40 0F 80 13 80 01 10 03  ........@.......
02A0: 00 40 14 80 15 80 01 10  0F 00 06 02 10 06 03 10  .@..............
02B0: 06 04 10 1A 4E 20 47 00  09 00 0A 00 0B 00 0C 00  ....N G.........
02C0: 47 01 03 04 00 03 10 03  02 00 04 10 03 1A 00 05  G...............
02D0: 10 03 0D 00 06 10 03 0E  00 07 10 03 1C 00 09 10  ................
02E0: 02 02 10 04 80 80 EB 02  01 D2 08 02 02 10 0F 80  ................
02F0: 80 35 03 02 00 00 04 80  80 02 03 48 16 80 23 01  .5.........H..#.
0300: 2F 03 02 00 00 02 80 80  11 03 48 17 80 23 01 2F  /.........H..#./
0310: 03 02 00 00 0E 80 80 20  03 48 18 80 23 01 2F 03  ....... .H..#./.
0320: 02 00 00 0F 80 80 2F 03  48 19 80 23 01 2F 03 01  ....../.H..#./..
0330: E9 08 01 D2 08 02 02 10  0D 80 80 47 03 48 1A 80  ...........G.H..
0340: 23 01 E9 08 01 D2 08 02  02 10 1B 80 80 49 05 02  #............I..
0350: 04 00 01 80 80 5F 03 03  05 10 1B 80 01 3F 05 02  ....._.......?..
0360: 04 00 04 80 80 6F 03 03  05 10 1B 80 01 3F 05 02  .....o.......?..
0370: 04 00 02 80 80 7F 03 03  05 10 1B 80 01 3F 05 02  .............?..
0380: 04 00 0E 80 80 8F 03 03  05 10 1B 80 01 3F 05 02  .............?..
0390: 04 00 0F 80 80 9F 03 03  05 10 1B 80 01 3F 05 02  .............?..
03A0: 04 00 0D 80 80 AF 03 03  05 10 1B 80 01 3F 05 02  .............?..
03B0: 04 00 1B 80 80 BF 03 03  05 10 1B 80 01 3F 05 02  .............?..
03C0: 04 00 1C 80 80 CF 03 03  05 10 1B 80 01 3F 05 02  .............?..
03D0: 04 00 13 80 80 DF 03 03  05 10 1B 80 01 3F 05 02  .............?..
03E0: 04 00 14 80 80 EF 03 03  05 10 1B 80 01 3F 05 02  .............?..
03F0: 04 00 1D 80 80 FF 03 03  05 10 1B 80 01 3F 05 02  .............?..
0400: 04 00 15 80 80 0F 04 03  05 10 1B 80 01 3F 05 02  .............?..
0410: 04 00 1E 80 80 1F 04 03  05 10 1B 80 01 3F 05 02  .............?..
0420: 04 00 1F 80 80 2F 04 03  05 10 1B 80 01 3F 05 02  ...../.......?..
0430: 04 00 20 80 80 3F 04 03  05 10 1B 80 01 3F 05 02  .. ..?.......?..
0440: 04 00 07 80 80 4F 04 03  05 10 1B 80 01 3F 05 02  .....O.......?..
0450: 04 00 08 80 80 5F 04 03  05 10 01 80 01 3F 05 02  ....._.......?..
0460: 04 00 21 80 80 6F 04 03  05 10 01 80 01 3F 05 02  ..!..o.......?..
0470: 04 00 22 80 80 7F 04 03  05 10 01 80 01 3F 05 02  .."..........?..
0480: 04 00 12 80 80 8F 04 03  05 10 01 80 01 3F 05 02  .............?..
0490: 04 00 23 80 80 9F 04 03  05 10 01 80 01 3F 05 02  ..#..........?..
04A0: 04 00 24 80 80 AF 04 03  05 10 01 80 01 3F 05 02  ..$..........?..
04B0: 04 00 25 80 80 BF 04 03  05 10 01 80 01 3F 05 02  ..%..........?..
04C0: 04 00 26 80 80 CF 04 03  05 10 01 80 01 3F 05 02  ..&..........?..
04D0: 04 00 27 80 80 DF 04 03  05 10 01 80 01 3F 05 02  ..'..........?..
04E0: 04 00 28 80 80 EF 04 03  05 10 01 80 01 3F 05 02  ..(..........?..
04F0: 04 00 29 80 80 FF 04 03  05 10 01 80 01 3F 05 02  ..)..........?..
0500: 04 00 2A 80 80 0F 05 03  05 10 01 80 01 3F 05 02  ..*..........?..
0510: 04 00 2B 80 80 1F 05 03  05 10 01 80 01 3F 05 02  ..+..........?..
0520: 04 00 2C 80 80 2F 05 03  05 10 01 80 01 3F 05 02  ..,../.......?..
0530: 04 00 2D 80 80 3F 05 03  05 10 01 80 01 3F 05 48  ..-..?.......?.H
0540: 2E 80 23 01 E9 08 01 D2  08 02 02 10 0E 80 80 57  ..#............W
0550: 05 01 75 02 01 D2 08 02  02 10 02 80 80 D2 08 02  ..u.............
0560: 0D 00 01 80 01 EB 05 02  13 00 01 80 01 9F 05 03  ................
0570: 05 10 1A 00 02 1A 00 01  80 02 7C 05 02 0D 00 04  ..........|.....
0580: 80 05 8B 05 48 2F 80 23  01 9C 05 03 06 10 0D 00  ....H/.#........
0590: 0C 06 10 03 07 10 0D 00  48 30 80 23 01 EB 05 03  ........H0.#....
05A0: 05 10 1A 00 02 1A 00 01  80 02 CB 05 02 1A 00 06  ................
05B0: 80 04 C7 05 3F 04 10 05  10 06 80 15 05 10 06 80  ....?...........
05C0: 48 31 80 23 01 CB 05 48  32 80 23 02 0D 00 04 80  H1.#...H2.#.....
05D0: 05 DA 05 48 2F 80 23 01  EB 05 03 06 10 0D 00 0C  ...H/.#.........
05E0: 06 10 03 07 10 0D 00 48  30 80 23 03 03 00 04 00  .......H0.#.....
05F0: 03 14 00 33 80 07 14 00  03 00 02 02 00 14 00 00  ...3............
0600: 0A 06 03 02 00 04 80 01  0F 06 03 02 00 01 80 02  ................
0610: 02 00 01 80 00 35 06 02  0E 00 04 80 00 35 06 24  .....5.......5.$
0620: 34 80 04 80 01 80 25 02  00 10 01 80 00 35 06 05  4.....%......5..
0630: 02 00 01 35 06 06 15 00  02 04 00 01 80 80 48 06  ...5..........H.
0640: 03 15 00 01 80 01 2D 08  02 04 00 04 80 80 58 06  ......-.......X.
0650: 03 15 00 01 80 01 2D 08  02 04 00 02 80 80 68 06  ......-.......h.
0660: 03 15 00 01 80 01 2D 08  02 04 00 0E 80 80 78 06  ......-.......x.
0670: 03 15 00 01 80 01 2D 08  02 04 00 0F 80 80 88 06  ......-.........
0680: 03 15 00 01 80 01 2D 08  02 04 00 0D 80 80 98 06  ......-.........
0690: 03 15 00 01 80 01 2D 08  02 04 00 1B 80 80 A8 06  ......-.........
06A0: 03 15 00 04 80 01 2D 08  02 04 00 1C 80 80 B8 06  ......-.........
06B0: 03 15 00 01 80 01 2D 08  02 04 00 13 80 80 C8 06  ......-.........
06C0: 03 15 00 01 80 01 2D 08  02 04 00 14 80 80 D8 06  ......-.........
06D0: 03 15 00 01 80 01 2D 08  02 04 00 1D 80 80 E8 06  ......-.........
06E0: 03 15 00 01 80 01 2D 08  02 04 00 15 80 80 F8 06  ......-.........
06F0: 03 15 00 01 80 01 2D 08  02 04 00 1E 80 80 08 07  ......-.........
0700: 03 15 00 01 80 01 2D 08  02 04 00 1F 80 80 18 07  ......-.........
0710: 03 15 00 01 80 01 2D 08  02 04 00 20 80 80 28 07  ......-.... ..(.
0720: 03 15 00 01 80 01 2D 08  02 04 00 07 80 80 38 07  ......-.......8.
0730: 03 15 00 01 80 01 2D 08  02 04 00 08 80 80 48 07  ......-.......H.
0740: 03 15 00 01 80 01 2D 08  02 04 00 21 80 80 58 07  ......-....!..X.
0750: 03 15 00 01 80 01 2D 08  02 04 00 22 80 80 68 07  ......-...."..h.
0760: 03 15 00 01 80 01 2D 08  02 04 00 12 80 80 78 07  ......-.......x.
0770: 03 15 00 01 80 01 2D 08  02 04 00 23 80 80 88 07  ......-....#....
0780: 03 15 00 01 80 01 2D 08  02 04 00 24 80 80 98 07  ......-....$....
0790: 03 15 00 01 80 01 2D 08  02 04 00 25 80 80 A8 07  ......-....%....
07A0: 03 15 00 01 80 01 2D 08  02 04 00 26 80 80 B8 07  ......-....&....
07B0: 03 15 00 01 80 01 2D 08  02 04 00 27 80 80 C8 07  ......-....'....
07C0: 03 15 00 01 80 01 2D 08  02 04 00 28 80 80 D8 07  ......-....(....
07D0: 03 15 00 01 80 01 2D 08  02 04 00 29 80 80 E8 07  ......-....)....
07E0: 03 15 00 01 80 01 2D 08  02 04 00 2A 80 80 F8 07  ......-....*....
07F0: 03 15 00 01 80 01 2D 08  02 04 00 2B 80 80 08 08  ......-....+....
0800: 03 15 00 01 80 01 2D 08  02 04 00 2C 80 80 18 08  ......-....,....
0810: 03 15 00 01 80 01 2D 08  02 04 00 2D 80 80 28 08  ......-....-..(.
0820: 03 15 00 01 80 01 2D 08  03 15 00 01 80 02 02 00  ......-.........
0830: 04 80 00 63 08 5C 00 35  80 5C 01 35 80 5C 02 35  ...c.\.5.\.5.\.5
0840: 80 5C 03 35 80 02 04 00  1B 80 80 60 08 5C 00 36  .\.5.......`.\.6
0850: 80 5C 01 36 80 5C 02 36  80 5C 03 36 80 01 60 08  .\.6.\.6.\.6..`.
0860: 01 7B 08 02 15 00 01 80  00 7B 08 5C 00 35 80 5C  .{.......{.\.5.\
0870: 01 35 80 5C 02 35 80 5C  03 35 80 02 02 00 01 80  .5.\.5.\.5......
0880: 00 89 08 1A 29 11 01 C2  08 6C F0 FF FF 7F 01 80  ....)....l......
0890: 04 80 62 02 80 F0 FF FF  7F F0 FF FF 7F 6D 61 69  ..b..........mai
08A0: 6E 01 80 45 00 80 F0 FF  FF 7F F0 FF FF 7F 6F 76  n..E..........ov
08B0: 6C 31 01 80 46 02 12 00  02 12 00 01 80 00 C2 08  l1..F...........
08C0: 46 00 03 01 10 33 80 07  01 10 03 00 01 E9 08 01  F....3..........
08D0: D2 08 0B 00 00 02 01 80  04 80 00 E2 08 03 00 00  ................
08E0: 0F 80 01 7A 02 48 37 80  23 45 38 80 F0 FF FF 7F  ...z.H7.#E8.....
08F0: F0 FF FF 7F 77 68 69 31  01 80 45 00 80 F0 FF FF  ....whi1..E.....
0900: 7F F0 FF FF 7F 62 6C 6F  66 01 80 45 00 80 F0 FF  .....blof..E....
0910: FF 7F F0 FF FF 7F 66 64  69 30 01 80 02 07 00 04  ......fdi0......
0920: 80 00 34 09 5C 00 01 80  5C 01 01 80 5C 02 35 80  ..4.\...\...\.5.
0930: 5C 03 35 80 21 00 1B                              \.5.!..         
```

#### Opcodes

```
  0: 0x00D8 [0x20] SET_CLI_EVENT_UC_FLAG: Lock player control
  1: 0x00DA [0x79] LocalPlayer looks at LocalPlayer (Basic look)
  2: 0x00E4 [0x03] ExtData[1]->WorkLocal[2] = Work_Zone[2]
  3: 0x00E9 [0x03] ExtData[1]->WorkLocal[3] = Work_Zone[3]
  4: 0x00EE [0x03] ExtData[1]->WorkLocal[5] = Work_Zone[4]
  5: 0x00F3 [0x03] ExtData[1]->WorkLocal[6] = Work_Zone[5]
  6: 0x00F8 [0x03] ExtData[1]->WorkLocal[15] = Work_Zone[6]
  7: 0x00FD [0x03] ExtData[1]->WorkLocal[16] = Work_Zone[7]
  8: 0x0102 [0x03] ExtData[1]->WorkLocal[17] = Work_Zone[8]
  9: 0x0107 [0x41] ExtData[1]->WorkLocal[7] = Work_Zone[9] (bits 0*-15*)
 10: 0x0110 [0x41] Work_Zone[6] = Work_Zone[9] (bits 16*-31*)
 11: 0x0119 [0x06] ExtData[1]->WorkLocal[1] = 0
 12: 0x011C [0x02] IF !(ExtData[1]->WorkLocal[7] == 0*) GOTO 0x021B
 13: 0x0124 [0x03] ExtData[1]->WorkLocal[8] = 4294967295*
 14: 0x0129 [0x0F] ExtData[1]->WorkLocal[8] ^= ExtData[1]->WorkLocal[6]
 15: 0x012E [0x10] ExtData[1]->WorkLocal[8] <<= 1*
 16: 0x0133 [0x24] CREATE_DIALOG(message_id=7606*, default_option=0*, option_flags=ExtData[1]->WorkLocal[8])
    → "Which battlefield will you enter? [None./Return to Delkfutt's Tower./The Indomitable Triumvirate (vs. 3!)/The Dauntless Duo (vs. 2!)/The Solitary Demolisher (vs. 1!)/Heroine's Combat./Mercenary Camp./Ode of Life Bestowing./$26Return to Delkfutt's Tower./True Love./A Fond Farewell./@/@/@/@/@/@/@/@/@/@/@/@/@/@/@/@/@/@/@]"
 17: 0x013A [0x25] WAIT_DIALOG_SELECT()
 18: 0x013B [0x02] IF !(Work_Zone[0] == 0*) GOTO 0x0149
 19: 0x0143 [0x01] GOTO 0x091C

SUBROUTINE_0175:
 20: 0x0175 [0x3E] IF !(ExtData[1]->WorkLocal[16] bit ExtData[1]->WorkLocal[3]) GOTO 0x017F
 21: 0x017C [0x01] GOTO 0x0186
 22: 0x017F [0x3C] SET_BIT_FLAG_CONDITIONAL(target_work_offset=ExtData[1]->WorkLocal[8], bit_index_work_offset=1*, condition_work_offset=1*)

SUBROUTINE_0186:
 23: 0x0186 [0x1A] CALL_SUBROUTINE(address=0x1D6C)
 24: 0x0189 [0x24] CREATE_DIALOG(message_id=7592*, default_option=5*, option_flags=ExtData[1]->WorkLocal[8])
    → "Select difficulty. [Very difficult. (Level: ???)/Difficult. (Level: ???)/Normal. (Level: $18)/Easy. (Level: $17)/Very Easy. (Level: $16)/Leave.]"
 25: 0x0190 [0x25] WAIT_DIALOG_SELECT()
 26: 0x0191 [0x02] IF !(Work_Zone[0] == 0*) GOTO 0x01A1
 27: 0x0199 [0x03] ExtData[1]->WorkLocal[15] = 1*
 28: 0x019E [0x01] GOTO 0x01F4
 29: 0x01A1 [0x02] IF !(Work_Zone[0] == 1*) GOTO 0x01B1
 30: 0x01A9 [0x03] ExtData[1]->WorkLocal[15] = 2*
 31: 0x01AE [0x01] GOTO 0x01F4
 32: 0x01B1 [0x02] IF !(Work_Zone[0] == 2*) GOTO 0x01C1
 33: 0x01B9 [0x03] ExtData[1]->WorkLocal[15] = 3*
 34: 0x01BE [0x01] GOTO 0x01F4
 35: 0x01C1 [0x02] IF !(Work_Zone[0] == 3*) GOTO 0x01D1
 36: 0x01C9 [0x03] ExtData[1]->WorkLocal[15] = 4*
 37: 0x01CE [0x01] GOTO 0x01F4
 38: 0x01D1 [0x02] IF !(Work_Zone[0] == 4*) GOTO 0x01E1
 39: 0x01D9 [0x03] ExtData[1]->WorkLocal[15] = 5*
 40: 0x01DE [0x01] GOTO 0x01F4
 41: 0x01E1 [0x02] IF !(Work_Zone[0] == 5*) GOTO 0x01EF
 42: 0x01E9 [0x01] GOTO 0x091C

SUBROUTINE_01F4:
 43: 0x01F4 [0x01] GOTO 0x021B
 44: 0x01F7 [0x06] ExtData[1]->WorkLocal[15] = 0
 45: 0x01FA [0x1A] CALL_SUBROUTINE(address=0x0936)
 46: 0x01FD [0x02] IF !(ExtData[1]->WorkLocal[22] == 1*) GOTO 0x021B
 47: 0x0205 [0x24] CREATE_DIALOG(message_id=7227*, default_option=1*, option_flags=0*)
    → "Enter the battlefield? [Enter./Decline.]"
 48: 0x020C [0x25] WAIT_DIALOG_SELECT()
 49: 0x020D [0x02] IF !(Work_Zone[0] == 1*) GOTO 0x021B
 50: 0x0215 [0x01] GOTO 0x091C

SUBROUTINE_021B:
 51: 0x021B [0x42] SET_CLI_EVENT_CANCEL_DATA()
 52: 0x021C [0x03] Work_Zone[1] = 255*
 53: 0x0221 [0x43] SEND_EVENT_UPDATE: Send pending tag to server (packet 0x005B)
 54: 0x0223 [0x43] SEND_EVENT_UPDATE: Check pending flag (skip if not pending)
 55: 0x0225 [0x06] Work_Zone[1] = 0
 56: 0x0228 [0x45] LOAD_SCHEDULED_TASK: Load scheduler "fdo1" with entities [LocalPlayer, LocalPlayer], work=[200*, 0*]
 57: 0x0239 [0x55] WAIT_LOAD_SCHEDULER: Wait for scheduler "fdo1" with entities [LocalPlayer, LocalPlayer], work=200*
 58: 0x0248 [0x3B] GET_ENTITY_POSITION(entity=LocalPlayer, x_destination=Work_Zone[32], y_destination=Work_Zone[33], z_destination=Work_Zone[34])
 59: 0x0253 [0x38] SET_CLIENT_EVENT_MODE(mode=19*)
 60: 0x0256 [0x02] IF !(ExtData[1]->WorkLocal[7] == 1*) GOTO 0x0275
 61: 0x025E [0x03] ExtData[1]->WorkLocal[0] = 1*
 62: 0x0263 [0x03] ExtData[1]->WorkLocal[4] = ExtData[1]->WorkLocal[3]
 63: 0x0268 [0x03] ExtData[1]->WorkLocal[2] = 0*
 64: 0x026D [0x03] ExtData[1]->WorkLocal[28] = 0*
 65: 0x0272 [0x01] GOTO 0x0635

SUBROUTINE_0275:
 66: 0x0275 [0x03] ExtData[1]->WorkLocal[0] = 1*

SUBROUTINE_027A:
 67: 0x027A [0x02] IF !(ExtData[1]->WorkLocal[0] > 3*) GOTO 0x08E5
 68: 0x0282 [0x02] IF !(0* == 1*) GOTO 0x028F
 69: 0x028A [0x03] ExtData[1]->WorkLocal[0] = ExtData[1]->WorkLocal[5]
 70: 0x028F [0x40] SET_BIT_WORK_RANGE(start_bit=0*, end_bit=3*, target=Work_Zone[1], source=ExtData[1]->WorkLocal[0])
 71: 0x0298 [0x40] SET_BIT_WORK_RANGE(start_bit=4*, end_bit=8*, target=Work_Zone[1], source=ExtData[1]->WorkLocal[3])
 72: 0x02A1 [0x40] SET_BIT_WORK_RANGE(start_bit=9*, end_bit=11*, target=Work_Zone[1], source=ExtData[1]->WorkLocal[15])
 73: 0x02AA [0x06] Work_Zone[2] = 0
 74: 0x02AD [0x06] Work_Zone[3] = 0
 75: 0x02B0 [0x06] Work_Zone[4] = 0
 76: 0x02B3 [0x1A] CALL_SUBROUTINE(address=0x204E)
 77: 0x02B6 [0x47] UPDATE_PLAYER_POS(ExtData[1]->WorkLocal[9], ExtData[1]->WorkLocal[10], ExtData[1]->WorkLocal[11], yaw=ExtData[1]->WorkLocal[12])
 78: 0x02C0 [0x47] WAIT_PLAYER_POS_UPDATE
 79: 0x02C2 [0x03] ExtData[1]->WorkLocal[4] = Work_Zone[3]
 80: 0x02C7 [0x03] ExtData[1]->WorkLocal[2] = Work_Zone[4]
 81: 0x02CC [0x03] ExtData[1]->WorkLocal[26] = Work_Zone[5]
 82: 0x02D1 [0x03] ExtData[1]->WorkLocal[13] = Work_Zone[6]
 83: 0x02D6 [0x03] ExtData[1]->WorkLocal[14] = Work_Zone[7]
 84: 0x02DB [0x03] ExtData[1]->WorkLocal[28] = Work_Zone[9]
 85: 0x02E0 [0x02] IF !(Work_Zone[2] == 1*) GOTO 0x02EB
 86: 0x02E8 [0x01] GOTO 0x08D2
 87: 0x02EB [0x02] IF !(Work_Zone[2] == 4*) GOTO 0x0335
 88: 0x02F3 [0x02] IF !(ExtData[1]->WorkLocal[0] == 1*) GOTO 0x0302
 89: 0x02FB [0x48] [System] [7238*]:
    → "You are cleared to enter the battlefield, but you cannot while party members are engaged in combat."
 90: 0x02FE [0x23] WAIT_FOR_DIALOG_INTERACTION
 91: 0x02FF [0x01] GOTO 0x032F
 92: 0x0302 [0x02] IF !(ExtData[1]->WorkLocal[0] == 2*) GOTO 0x0311
 93: 0x030A [0x48] [System] [7239*]:
    → "You are cleared to enter the battlefield, but you cannot while party members are engaged in combat."
 94: 0x030D [0x23] WAIT_FOR_DIALOG_INTERACTION
 95: 0x030E [0x01] GOTO 0x032F
 96: 0x0311 [0x02] IF !(ExtData[1]->WorkLocal[0] == 3*) GOTO 0x0320
 97: 0x0319 [0x48] [System] [7240*]:
    → "You are cleared to enter the battlefield, but you cannot while party members are engaged in combat."
 98: 0x031C [0x23] WAIT_FOR_DIALOG_INTERACTION
 99: 0x031D [0x01] GOTO 0x032F
100: 0x0320 [0x02] IF !(ExtData[1]->WorkLocal[0] == 4*) GOTO 0x032F
101: 0x0328 [0x48] [System] [7241*]:
    → "You are cleared to enter the battlefield, but you cannot while party members are engaged in combat."
102: 0x032B [0x23] WAIT_FOR_DIALOG_INTERACTION
103: 0x032C [0x01] GOTO 0x032F

SUBROUTINE_032F:
104: 0x032F [0x01] GOTO 0x08E9

SUBROUTINE_053F:
105: 0x053F [0x48] [System] [7586*]:
    → "Only $3 [member/members] have clearance to enter the battlefield. This room has reached its maximum capacity."
106: 0x0542 [0x23] WAIT_FOR_DIALOG_INTERACTION
107: 0x0543 [0x01] GOTO 0x08E9

SUBROUTINE_059C:
108: 0x059C [0x01] GOTO 0x05EB
109: 0x059F [0x03] Work_Zone[5] = ExtData[1]->WorkLocal[26]
110: 0x05A4 [0x02] IF !(ExtData[1]->WorkLocal[26] <= 0*) GOTO 0x05CB
111: 0x05AC [0x02] IF !(ExtData[1]->WorkLocal[26] < 60*) GOTO 0x05C7
112: 0x05B4 [0x3F] Work_Zone[4] = Work_Zone[5] % 60*
113: 0x05BB [0x15] Work_Zone[5] /= 60*
114: 0x05C0 [0x48] [System] [7604*]:
    → "The current battlefield clear time record for "[Return to Delkfutt's Tower/The Indomitable Triumvirate/The Dauntless Duo/The Solitary Demolisher/Heroine's Combat/Mercenary Camp/Ode of Life Bestowing/$26Return to Delkfutt's Tower/True Love/A Fond Farewell]" is $3 minute[/s] $2 second[/s]."
115: 0x05C3 [0x23] WAIT_FOR_DIALOG_INTERACTION
116: 0x05C4 [0x01] GOTO 0x05CB
117: 0x05C7 [0x48] [System] [7603*]:
    → "The current battlefield clear time record for "[Return to Delkfutt's Tower/The Indomitable Triumvirate/The Dauntless Duo/The Solitary Demolisher/Heroine's Combat/Mercenary Camp/Ode of Life Bestowing/$26Return to Delkfutt's Tower/True Love/A Fond Farewell]" is $3 second[/s]."
118: 0x05CA [0x23] WAIT_FOR_DIALOG_INTERACTION

SUBROUTINE_05CB:
119: 0x05CB [0x02] IF !(ExtData[1]->WorkLocal[13] > 1*) GOTO 0x05DA
120: 0x05D3 [0x48] [System] [7591*]:
    → "That record is held by %0!"
121: 0x05D6 [0x23] WAIT_FOR_DIALOG_INTERACTION
122: 0x05D7 [0x01] GOTO 0x05EB
123: 0x05DA [0x03] Work_Zone[6] = ExtData[1]->WorkLocal[13]
124: 0x05DF [0x0C] Work_Zone[6]--
125: 0x05E2 [0x03] Work_Zone[7] = ExtData[1]->WorkLocal[13]
126: 0x05E7 [0x48] [System] [7590*]:
    → "That record is held by $5 adventurers, including %0!"
127: 0x05EA [0x23] WAIT_FOR_DIALOG_INTERACTION

SUBROUTINE_05EB:
128: 0x05EB [0x03] ExtData[1]->WorkLocal[3] = ExtData[1]->WorkLocal[4]
129: 0x05F0 [0x03] ExtData[1]->WorkLocal[20] = 100*
130: 0x05F5 [0x07] ExtData[1]->WorkLocal[20] += ExtData[1]->WorkLocal[3]
131: 0x05FA [0x02] IF !(ExtData[1]->WorkLocal[2] == ExtData[1]->WorkLocal[20]) GOTO 0x060A
132: 0x0602 [0x03] ExtData[1]->WorkLocal[2] = 1*
133: 0x0607 [0x01] GOTO 0x060F
134: 0x060A [0x03] ExtData[1]->WorkLocal[2] = 0*

SUBROUTINE_060F:
135: 0x060F [0x02] IF !(ExtData[1]->WorkLocal[2] == 0*) GOTO 0x0635
136: 0x0617 [0x02] IF !(ExtData[1]->WorkLocal[14] == 1*) GOTO 0x0635
137: 0x061F [0x24] CREATE_DIALOG(message_id=7566*, default_option=1*, option_flags=0*)
    → "Skip the event? [Yes./No.]"
138: 0x0626 [0x25] WAIT_DIALOG_SELECT()
139: 0x0627 [0x02] IF !(Work_Zone[0] == 0*) GOTO 0x0635
140: 0x062F [0x05] ExtData[1]->WorkLocal[2] = 1
141: 0x0632 [0x01] GOTO 0x0635

SUBROUTINE_0635:
142: 0x0635 [0x06] ExtData[1]->WorkLocal[21] = 0
143: 0x0638 [0x02] IF !(ExtData[1]->WorkLocal[4] == 0*) GOTO 0x0648
144: 0x0640 [0x03] ExtData[1]->WorkLocal[21] = 0*
145: 0x0645 [0x01] GOTO 0x082D
146: 0x0648 [0x02] IF !(ExtData[1]->WorkLocal[4] == 1*) GOTO 0x0658
147: 0x0650 [0x03] ExtData[1]->WorkLocal[21] = 0*
148: 0x0655 [0x01] GOTO 0x082D
149: 0x0658 [0x02] IF !(ExtData[1]->WorkLocal[4] == 2*) GOTO 0x0668
150: 0x0660 [0x03] ExtData[1]->WorkLocal[21] = 0*
151: 0x0665 [0x01] GOTO 0x082D
152: 0x0668 [0x02] IF !(ExtData[1]->WorkLocal[4] == 3*) GOTO 0x0678
153: 0x0670 [0x03] ExtData[1]->WorkLocal[21] = 0*
154: 0x0675 [0x01] GOTO 0x082D
155: 0x0678 [0x02] IF !(ExtData[1]->WorkLocal[4] == 4*) GOTO 0x0688
156: 0x0680 [0x03] ExtData[1]->WorkLocal[21] = 0*
157: 0x0685 [0x01] GOTO 0x082D
158: 0x0688 [0x02] IF !(ExtData[1]->WorkLocal[4] == 5*) GOTO 0x0698
159: 0x0690 [0x03] ExtData[1]->WorkLocal[21] = 0*
160: 0x0695 [0x01] GOTO 0x082D
161: 0x0698 [0x02] IF !(ExtData[1]->WorkLocal[4] == 6*) GOTO 0x06A8
162: 0x06A0 [0x03] ExtData[1]->WorkLocal[21] = 1*
163: 0x06A5 [0x01] GOTO 0x082D
164: 0x06A8 [0x02] IF !(ExtData[1]->WorkLocal[4] == 7*) GOTO 0x06B8
165: 0x06B0 [0x03] ExtData[1]->WorkLocal[21] = 0*
166: 0x06B5 [0x01] GOTO 0x082D
167: 0x06B8 [0x02] IF !(ExtData[1]->WorkLocal[4] == 8*) GOTO 0x06C8
168: 0x06C0 [0x03] ExtData[1]->WorkLocal[21] = 0*
169: 0x06C5 [0x01] GOTO 0x082D
170: 0x06C8 [0x02] IF !(ExtData[1]->WorkLocal[4] == 9*) GOTO 0x06D8
171: 0x06D0 [0x03] ExtData[1]->WorkLocal[21] = 0*
172: 0x06D5 [0x01] GOTO 0x082D
173: 0x06D8 [0x02] IF !(ExtData[1]->WorkLocal[4] == 10*) GOTO 0x06E8
174: 0x06E0 [0x03] ExtData[1]->WorkLocal[21] = 0*
175: 0x06E5 [0x01] GOTO 0x082D
176: 0x06E8 [0x02] IF !(ExtData[1]->WorkLocal[4] == 11*) GOTO 0x06F8
177: 0x06F0 [0x03] ExtData[1]->WorkLocal[21] = 0*
178: 0x06F5 [0x01] GOTO 0x082D
179: 0x06F8 [0x02] IF !(ExtData[1]->WorkLocal[4] == 12*) GOTO 0x0708
180: 0x0700 [0x03] ExtData[1]->WorkLocal[21] = 0*
181: 0x0705 [0x01] GOTO 0x082D
182: 0x0708 [0x02] IF !(ExtData[1]->WorkLocal[4] == 13*) GOTO 0x0718
183: 0x0710 [0x03] ExtData[1]->WorkLocal[21] = 0*
184: 0x0715 [0x01] GOTO 0x082D
185: 0x0718 [0x02] IF !(ExtData[1]->WorkLocal[4] == 14*) GOTO 0x0728
186: 0x0720 [0x03] ExtData[1]->WorkLocal[21] = 0*
187: 0x0725 [0x01] GOTO 0x082D
188: 0x0728 [0x02] IF !(ExtData[1]->WorkLocal[4] == 15*) GOTO 0x0738
189: 0x0730 [0x03] ExtData[1]->WorkLocal[21] = 0*
190: 0x0735 [0x01] GOTO 0x082D
191: 0x0738 [0x02] IF !(ExtData[1]->WorkLocal[4] == 16*) GOTO 0x0748
192: 0x0740 [0x03] ExtData[1]->WorkLocal[21] = 0*
193: 0x0745 [0x01] GOTO 0x082D
194: 0x0748 [0x02] IF !(ExtData[1]->WorkLocal[4] == 17*) GOTO 0x0758
195: 0x0750 [0x03] ExtData[1]->WorkLocal[21] = 0*
196: 0x0755 [0x01] GOTO 0x082D
197: 0x0758 [0x02] IF !(ExtData[1]->WorkLocal[4] == 18*) GOTO 0x0768
198: 0x0760 [0x03] ExtData[1]->WorkLocal[21] = 0*
199: 0x0765 [0x01] GOTO 0x082D
200: 0x0768 [0x02] IF !(ExtData[1]->WorkLocal[4] == 19*) GOTO 0x0778
201: 0x0770 [0x03] ExtData[1]->WorkLocal[21] = 0*
202: 0x0775 [0x01] GOTO 0x082D
203: 0x0778 [0x02] IF !(ExtData[1]->WorkLocal[4] == 20*) GOTO 0x0788
204: 0x0780 [0x03] ExtData[1]->WorkLocal[21] = 0*
205: 0x0785 [0x01] GOTO 0x082D
206: 0x0788 [0x02] IF !(ExtData[1]->WorkLocal[4] == 21*) GOTO 0x0798
207: 0x0790 [0x03] ExtData[1]->WorkLocal[21] = 0*
208: 0x0795 [0x01] GOTO 0x082D
209: 0x0798 [0x02] IF !(ExtData[1]->WorkLocal[4] == 22*) GOTO 0x07A8
210: 0x07A0 [0x03] ExtData[1]->WorkLocal[21] = 0*
211: 0x07A5 [0x01] GOTO 0x082D
212: 0x07A8 [0x02] IF !(ExtData[1]->WorkLocal[4] == 23*) GOTO 0x07B8
213: 0x07B0 [0x03] ExtData[1]->WorkLocal[21] = 0*
214: 0x07B5 [0x01] GOTO 0x082D
215: 0x07B8 [0x02] IF !(ExtData[1]->WorkLocal[4] == 24*) GOTO 0x07C8
216: 0x07C0 [0x03] ExtData[1]->WorkLocal[21] = 0*
217: 0x07C5 [0x01] GOTO 0x082D
218: 0x07C8 [0x02] IF !(ExtData[1]->WorkLocal[4] == 25*) GOTO 0x07D8
219: 0x07D0 [0x03] ExtData[1]->WorkLocal[21] = 0*
220: 0x07D5 [0x01] GOTO 0x082D
221: 0x07D8 [0x02] IF !(ExtData[1]->WorkLocal[4] == 26*) GOTO 0x07E8
222: 0x07E0 [0x03] ExtData[1]->WorkLocal[21] = 0*
223: 0x07E5 [0x01] GOTO 0x082D
224: 0x07E8 [0x02] IF !(ExtData[1]->WorkLocal[4] == 27*) GOTO 0x07F8
225: 0x07F0 [0x03] ExtData[1]->WorkLocal[21] = 0*
226: 0x07F5 [0x01] GOTO 0x082D
227: 0x07F8 [0x02] IF !(ExtData[1]->WorkLocal[4] == 28*) GOTO 0x0808
228: 0x0800 [0x03] ExtData[1]->WorkLocal[21] = 0*
229: 0x0805 [0x01] GOTO 0x082D
230: 0x0808 [0x02] IF !(ExtData[1]->WorkLocal[4] == 29*) GOTO 0x0818
231: 0x0810 [0x03] ExtData[1]->WorkLocal[21] = 0*
232: 0x0815 [0x01] GOTO 0x082D
233: 0x0818 [0x02] IF !(ExtData[1]->WorkLocal[4] == 30*) GOTO 0x0828
234: 0x0820 [0x03] ExtData[1]->WorkLocal[21] = 0*
235: 0x0825 [0x01] GOTO 0x082D
236: 0x0828 [0x03] ExtData[1]->WorkLocal[21] = 0*

SUBROUTINE_082D:
237: 0x082D [0x02] IF !(ExtData[1]->WorkLocal[2] == 1*) GOTO 0x0863
238: 0x0835 [0x5C] MUSIC_CONTROL: Set Idle (Day) music to song 193*
239: 0x0839 [0x5C] MUSIC_CONTROL: Set Idle (Night) music to song 193*
240: 0x083D [0x5C] MUSIC_CONTROL: Set Combat (Solo) music to song 193*
241: 0x0841 [0x5C] MUSIC_CONTROL: Set Combat (Party) music to song 193*
242: 0x0845 [0x02] IF !(ExtData[1]->WorkLocal[4] == 6*) GOTO 0x0860
243: 0x084D [0x5C] MUSIC_CONTROL: Set Idle (Day) music to song 47*
244: 0x0851 [0x5C] MUSIC_CONTROL: Set Idle (Night) music to song 47*
245: 0x0855 [0x5C] MUSIC_CONTROL: Set Combat (Solo) music to song 47*
246: 0x0859 [0x5C] MUSIC_CONTROL: Set Combat (Party) music to song 47*
247: 0x085D [0x01] GOTO 0x0860

SUBROUTINE_0860:
248: 0x0860 [0x01] GOTO 0x087B
249: 0x0863 [0x02] IF !(ExtData[1]->WorkLocal[21] == 0*) GOTO 0x087B
250: 0x086B [0x5C] MUSIC_CONTROL: Set Idle (Day) music to song 193*
251: 0x086F [0x5C] MUSIC_CONTROL: Set Idle (Night) music to song 193*
252: 0x0873 [0x5C] MUSIC_CONTROL: Set Combat (Solo) music to song 193*
253: 0x0877 [0x5C] MUSIC_CONTROL: Set Combat (Party) music to song 193*

SUBROUTINE_087B:
254: 0x087B [0x02] IF !(ExtData[1]->WorkLocal[2] == 0*) GOTO 0x0889
255: 0x0883 [0x1A] CALL_SUBROUTINE(address=0x1129)
256: 0x0886 [0x01] GOTO 0x08C2
257: 0x0889 [0x6C] FADE_ENTITY_COLOR(entity_id=LocalPlayer, end_alpha=0*, fade_time=1*)
258: 0x0892 [0x62] LOAD_EVENT_SCHEDULER: Load scheduler "main" with entities [LocalPlayer, LocalPlayer], work=[2*, 0*]
259: 0x08A3 [0x45] LOAD_SCHEDULED_TASK: Load scheduler "ovl1" with entities [LocalPlayer, LocalPlayer], work=[200*, 0*]
260: 0x08B4 [0x46] CAMERA_CONTROL: Query status
261: 0x08B6 [0x12] 0x0200 = rand()
262: 0x08B9 [0x12] 0x0100 = rand()
263: 0x08BC [0x80] LOAD_WAIT(entity=Unknown NPC (ID: 1174979072/0x4608C200))
264: 0x08C1 [0x00] END_REQSTACK()

SUBROUTINE_08C2:
265: 0x08C2 [0x03] Work_Zone[1] = 100*
266: 0x08C7 [0x07] Work_Zone[1] += ExtData[1]->WorkLocal[3]
267: 0x08CC [0x01] GOTO 0x08E9

SUBROUTINE_08D2:
268: 0x08D2 [0x0B] ExtData[1]->WorkLocal[0]++
269: 0x08D5 [0x02] IF !(0* == 1*) GOTO 0x08E2
270: 0x08DD [0x03] ExtData[1]->WorkLocal[0] = 4*
271: 0x08E2 [0x01] GOTO 0x027A
272: 0x08E5 [0x48] [System] [7230*]:
    → "You cannot enter the battlefield at present. Please wait a little longer."
273: 0x08E8 [0x23] WAIT_FOR_DIALOG_INTERACTION

SUBROUTINE_08E9:
274: 0x08E9 [0x45] LOAD_SCHEDULED_TASK: Load scheduler "whi1" with entities [LocalPlayer, LocalPlayer], work=[201*, 0*]
275: 0x08FA [0x45] LOAD_SCHEDULED_TASK: Load scheduler "blof" with entities [LocalPlayer, LocalPlayer], work=[200*, 0*]
276: 0x090B [0x45] LOAD_SCHEDULED_TASK: Load scheduler "fdi0" with entities [LocalPlayer, LocalPlayer], work=[200*, 0*]

SUBROUTINE_091C:
277: 0x091C [0x02] IF !(ExtData[1]->WorkLocal[7] == 1*) GOTO 0x0934
278: 0x0924 [0x5C] MUSIC_CONTROL: Set Idle (Day) music to song 0*
279: 0x0928 [0x5C] MUSIC_CONTROL: Set Idle (Night) music to song 0*
280: 0x092C [0x5C] MUSIC_CONTROL: Set Combat (Solo) music to song 193*
281: 0x0930 [0x5C] MUSIC_CONTROL: Set Combat (Party) music to song 193*
282: 0x0934 [0x21] END_EVENT
283: 0x0935 [0x00] END_REQSTACK()

SUBROUTINE_0936:
284: 0x0936 [0x1B] RETURN
```

#### Data or dead code:

```
# Dead code (unreachable instructions):
     0x0146 [0x01] GOTO 0x021B
# Dead code (unreachable instructions):
     0x01EC [0x01] GOTO 0x01F4
# Dead code (unreachable instructions):
     0x0218 [0x01] GOTO 0x021B
# Dead code (unreachable instructions):
     0x0332 [0x01] GOTO 0x08D2
     0x0344 [0x01] GOTO 0x08D2
# Dead code (unreachable instructions):
     0x0546 [0x01] GOTO 0x08D2
     0x0554 [0x01] GOTO 0x08D2
# Dead code (unreachable instructions):
     0x08CF [0x01] GOTO 0x08D2
```

### Event 32002

#### Metadata

| Field        | Value     |
|--------------|-----------|
| Entrypoint   | 0x0937    |
| Data Size    | 494 bytes |
| Instructions | 83        |

```
      00 01 02 03 04 05 06 07  08 09 0A 0B 0C 0D 0E 0F
      -- -- -- -- -- -- -- --  -- -- -- -- -- -- -- --
0930:                      03  05 00 06 10 03 21 00 07         ......!..
0940: 10 03 20 00 08 10 20 01  42 3B F0 FF FF 7F 20 10  .. ... .B;.... .
0950: 21 10 22 10 3A F0 FF FF  7F 23 10 45 00 80 F0 FF  !.".:....#.E....
0960: FF 7F F0 FF FF 7F 66 64  6F 31 01 80 55 00 80 F0  ......fdo1..U...
0970: FF FF 7F F0 FF FF 7F 66  64 6F 31 02 01 80 04 80  .......fdo1.....
0980: 00 E2 09 02 05 00 04 80  80 9A 09 47 00 39 80 3A  ...........G.9.:
0990: 80 24 80 3B 80 47 01 01  DF 09 02 05 00 02 80 80  .$.;.G..........
09A0: B1 09 47 00 39 80 3A 80  24 80 3B 80 47 01 01 DF  ..G.9.:.$.;.G...
09B0: 09 02 05 00 0E 80 80 C8  09 47 00 39 80 3A 80 24  .........G.9.:.$
09C0: 80 3B 80 47 01 01 DF 09  02 05 00 0F 80 80 DF 09  .;.G............
09D0: 47 00 39 80 3A 80 24 80  3B 80 47 01 01 DF 09 01  G.9.:.$.;.G.....
09E0: EB 0A 02 20 00 3C 80 80  6C 0A 02 21 00 01 80 80  ... .<..l..!....
09F0: 01 0A 47 00 3D 80 3E 80  3F 80 40 80 47 01 01 69  ..G.=.>.?.@.G..i
0A00: 0A 02 21 00 04 80 80 18  0A 47 00 41 80 42 80 43  ..!......G.A.B.C
0A10: 80 44 80 47 01 01 69 0A  02 21 00 02 80 80 2F 0A  .D.G..i..!..../.
0A20: 47 00 45 80 46 80 47 80  48 80 47 01 01 69 0A 02  G.E.F.G.H.G..i..
0A30: 21 00 0E 80 80 46 0A 47  00 49 80 4A 80 4B 80 4C  !....F.G.I.J.K.L
0A40: 80 47 01 01 69 0A 02 21  00 0F 80 80 5D 0A 47 00  .G..i..!....].G.
0A50: 4D 80 4E 80 4F 80 50 80  47 01 01 69 0A 47 00 51  M.N.O.P.G..i.G.Q
0A60: 80 52 80 53 80 54 80 47  01 01 EB 0A 02 20 00 1B  .R.S.T.G..... ..
0A70: 80 80 DF 0A 02 21 00 04  80 80 8B 0A 47 00 55 80  .....!......G.U.
0A80: 56 80 57 80 58 80 47 01  01 DC 0A 02 21 00 02 80  V.W.X.G.....!...
0A90: 80 A2 0A 47 00 59 80 5A  80 5B 80 5C 80 47 01 01  ...G.Y.Z.[.\.G..
0AA0: DC 0A 02 21 00 0E 80 80  B9 0A 47 00 5D 80 5E 80  ...!......G.].^.
0AB0: 5F 80 60 80 47 01 01 DC  0A 02 21 00 0F 80 80 D0  _.`.G.....!.....
0AC0: 0A 47 00 61 80 62 80 63  80 64 80 47 01 01 DC 0A  .G.a.b.c.d.G....
0AD0: 47 00 51 80 52 80 53 80  54 80 47 01 01 EB 0A 47  G.Q.R.S.T.G....G
0AE0: 00 51 80 52 80 53 80 54  80 47 01 38 12 80 1A D9  .Q.R.S.T.G.8....
0AF0: 1C 45 38 80 F0 FF FF 7F  F0 FF FF 7F 77 68 69 31  .E8.........whi1
0B00: 01 80 45 00 80 F0 FF FF  7F F0 FF FF 7F 62 6C 6F  ..E..........blo
0B10: 66 01 80 5C 00 01 80 5C  01 01 80 5C 02 35 80 5C  f..\...\...\.5.\
0B20: 03 35 80 21 00                                    .5.!.           
```

#### Opcodes

```
  0: 0x0937 [0x03] ExtData[1]->WorkLocal[5] = Work_Zone[6]
  1: 0x093C [0x03] ExtData[1]->WorkLocal[33] = Work_Zone[7]
  2: 0x0941 [0x03] ExtData[1]->WorkLocal[32] = Work_Zone[8]
  3: 0x0946 [0x20] SET_CLI_EVENT_UC_FLAG: Lock player control
  4: 0x0948 [0x42] SET_CLI_EVENT_CANCEL_DATA()
  5: 0x0949 [0x3B] GET_ENTITY_POSITION(entity=LocalPlayer, x_destination=Work_Zone[32], y_destination=Work_Zone[33], z_destination=Work_Zone[34])
  6: 0x0954 [0x3A] CONVERT_YAW_TO_BYTE(entity=LocalPlayer, result_destination=Work_Zone[35])
  7: 0x095B [0x45] LOAD_SCHEDULED_TASK: Load scheduler "fdo1" with entities [LocalPlayer, LocalPlayer], work=[200*, 0*]
  8: 0x096C [0x55] WAIT_LOAD_SCHEDULER: Wait for scheduler "fdo1" with entities [LocalPlayer, LocalPlayer], work=200*
  9: 0x097B [0x02] IF !(0* == 1*) GOTO 0x09E2
 10: 0x0983 [0x02] IF !(ExtData[1]->WorkLocal[5] == 1*) GOTO 0x099A
 11: 0x098B [0x47] UPDATE_PLAYER_POS(320.032*, -11.401*, 0.021*, yaw=270.0°*)
 12: 0x0995 [0x47] WAIT_PLAYER_POS_UPDATE
 13: 0x0997 [0x01] GOTO 0x09DF
 14: 0x099A [0x02] IF !(ExtData[1]->WorkLocal[5] == 2*) GOTO 0x09B1
 15: 0x09A2 [0x47] UPDATE_PLAYER_POS(320.032*, -11.401*, 0.021*, yaw=270.0°*)
 16: 0x09AC [0x47] WAIT_PLAYER_POS_UPDATE
 17: 0x09AE [0x01] GOTO 0x09DF
 18: 0x09B1 [0x02] IF !(ExtData[1]->WorkLocal[5] == 3*) GOTO 0x09C8
 19: 0x09B9 [0x47] UPDATE_PLAYER_POS(320.032*, -11.401*, 0.021*, yaw=270.0°*)
 20: 0x09C3 [0x47] WAIT_PLAYER_POS_UPDATE
 21: 0x09C5 [0x01] GOTO 0x09DF
 22: 0x09C8 [0x02] IF !(ExtData[1]->WorkLocal[5] == 4*) GOTO 0x09DF
 23: 0x09D0 [0x47] UPDATE_PLAYER_POS(320.032*, -11.401*, 0.021*, yaw=270.0°*)
 24: 0x09DA [0x47] WAIT_PLAYER_POS_UPDATE
 25: 0x09DC [0x01] GOTO 0x09DF

SUBROUTINE_09DF:
 26: 0x09DF [0x01] GOTO 0x0AEB
 27: 0x09E2 [0x02] IF !(ExtData[1]->WorkLocal[32] == 180*) GOTO 0x0A6C
 28: 0x09EA [0x02] IF !(ExtData[1]->WorkLocal[33] == 0*) GOTO 0x0A01
 29: 0x09F2 [0x47] UPDATE_PLAYER_POS(-605.141*, 479.929*, -22.681*, yaw=87.2°*)
 30: 0x09FC [0x47] WAIT_PLAYER_POS_UPDATE
 31: 0x09FE [0x01] GOTO 0x0A69
 32: 0x0A01 [0x02] IF !(ExtData[1]->WorkLocal[33] == 1*) GOTO 0x0A18
 33: 0x0A09 [0x47] UPDATE_PLAYER_POS(-262.589*, 377.857*, -137.313*, yaw=305.3°*)
 34: 0x0A13 [0x47] WAIT_PLAYER_POS_UPDATE
 35: 0x0A15 [0x01] GOTO 0x0A69
 36: 0x0A18 [0x02] IF !(ExtData[1]->WorkLocal[33] == 2*) GOTO 0x0A2F
 37: 0x0A20 [0x47] UPDATE_PLAYER_POS(18.348*, 486.940*, -224.334*, yaw=17.1°*)
 38: 0x0A2A [0x47] WAIT_PLAYER_POS_UPDATE
 39: 0x0A2C [0x01] GOTO 0x0A69
 40: 0x0A2F [0x02] IF !(ExtData[1]->WorkLocal[33] == 3*) GOTO 0x0A46
 41: 0x0A37 [0x47] UPDATE_PLAYER_POS(231.593*, 360.094*, -173.572*, yaw=160.8°*)
 42: 0x0A41 [0x47] WAIT_PLAYER_POS_UPDATE
 43: 0x0A43 [0x01] GOTO 0x0A69
 44: 0x0A46 [0x02] IF !(ExtData[1]->WorkLocal[33] == 4*) GOTO 0x0A5D
 45: 0x0A4E [0x47] UPDATE_PLAYER_POS(553.664*, 523.939*, -38.205*, yaw=233.9°*)
 46: 0x0A58 [0x47] WAIT_PLAYER_POS_UPDATE
 47: 0x0A5A [0x01] GOTO 0x0A69
 48: 0x0A5D [0x47] UPDATE_PLAYER_POS(-520.199*, -8.277*, 0.940*, yaw=89.0°*)
 49: 0x0A67 [0x47] WAIT_PLAYER_POS_UPDATE

SUBROUTINE_0A69:
 50: 0x0A69 [0x01] GOTO 0x0AEB
 51: 0x0A6C [0x02] IF !(ExtData[1]->WorkLocal[32] == 6*) GOTO 0x0ADF
 52: 0x0A74 [0x02] IF !(ExtData[1]->WorkLocal[33] == 1*) GOTO 0x0A8B
 53: 0x0A7C [0x47] UPDATE_PLAYER_POS(-875.117*, -43.892*, -48.084*, yaw=45.1°*)
 54: 0x0A86 [0x47] WAIT_PLAYER_POS_UPDATE
 55: 0x0A88 [0x01] GOTO 0x0ADC
 56: 0x0A8B [0x02] IF !(ExtData[1]->WorkLocal[33] == 2*) GOTO 0x0AA2
 57: 0x0A93 [0x47] UPDATE_PLAYER_POS(-755.499*, 563.947*, -112.035*, yaw=313.5°*)
 58: 0x0A9D [0x47] WAIT_PLAYER_POS_UPDATE
 59: 0x0A9F [0x01] GOTO 0x0ADC
 60: 0x0AA2 [0x02] IF !(ExtData[1]->WorkLocal[33] == 3*) GOTO 0x0AB9
 61: 0x0AAA [0x47] UPDATE_PLAYER_POS(123.251*, 754.209*, -172.124*, yaw=38.7°*)
 62: 0x0AB4 [0x47] WAIT_PLAYER_POS_UPDATE
 63: 0x0AB6 [0x01] GOTO 0x0ADC
 64: 0x0AB9 [0x02] IF !(ExtData[1]->WorkLocal[33] == 4*) GOTO 0x0AD0
 65: 0x0AC1 [0x47] UPDATE_PLAYER_POS(-516.404*, -803.323*, 24.206*, yaw=38.4°*)
 66: 0x0ACB [0x47] WAIT_PLAYER_POS_UPDATE
 67: 0x0ACD [0x01] GOTO 0x0ADC
 68: 0x0AD0 [0x47] UPDATE_PLAYER_POS(-520.199*, -8.277*, 0.940*, yaw=89.0°*)
 69: 0x0ADA [0x47] WAIT_PLAYER_POS_UPDATE

SUBROUTINE_0ADC:
 70: 0x0ADC [0x01] GOTO 0x0AEB
 71: 0x0ADF [0x47] UPDATE_PLAYER_POS(-520.199*, -8.277*, 0.940*, yaw=89.0°*)
 72: 0x0AE9 [0x47] WAIT_PLAYER_POS_UPDATE

SUBROUTINE_0AEB:
 73: 0x0AEB [0x38] SET_CLIENT_EVENT_MODE(mode=19*)
 74: 0x0AEE [0x1A] CALL_SUBROUTINE(address=0x1CD9)
 75: 0x0AF1 [0x45] LOAD_SCHEDULED_TASK: Load scheduler "whi1" with entities [LocalPlayer, LocalPlayer], work=[201*, 0*]
 76: 0x0B02 [0x45] LOAD_SCHEDULED_TASK: Load scheduler "blof" with entities [LocalPlayer, LocalPlayer], work=[200*, 0*]
 77: 0x0B13 [0x5C] MUSIC_CONTROL: Set Idle (Day) music to song 0*
 78: 0x0B17 [0x5C] MUSIC_CONTROL: Set Idle (Night) music to song 0*
 79: 0x0B1B [0x5C] MUSIC_CONTROL: Set Combat (Solo) music to song 193*
 80: 0x0B1F [0x5C] MUSIC_CONTROL: Set Combat (Party) music to song 193*
 81: 0x0B23 [0x21] END_EVENT
 82: 0x0B24 [0x00] END_REQSTACK()
```

### Event 32001

#### Metadata

| Field        | Value      |
|--------------|------------|
| Entrypoint   | 0x0B25     |
| Data Size    | 1076 bytes |
| Instructions | 186        |

```
      00 01 02 03 04 05 06 07  08 09 0A 0B 0C 0D 0E 0F
      -- -- -- -- -- -- -- --  -- -- -- -- -- -- -- --
0B20:                79 00 F0  FF FF 7F F0 FF FF 7F 03       y..........
0B30: 21 00 02 10 03 1A 00 03  10 03 1B 00 05 10 03 20  !.............. 
0B40: 00 06 10 03 19 00 07 10  03 17 00 08 10 02 17 00  ................
0B50: 0E 80 04 5A 0B 03 17 00  01 80 02 19 00 1C 80 80  ...Z............
0B60: 6A 0B 03 17 00 02 80 01  6A 0B 03 1C 00 09 10 20  j.......j...... 
0B70: 01 42 3B F0 FF FF 7F 20  10 21 10 22 10 3A F0 FF  .B;.... .!.".:..
0B80: FF 7F 23 10 02 20 00 3C  80 01 8F 0B 1C 65 80 45  ..#.. .<.....e.E
0B90: 38 80 F0 FF FF 7F F0 FF  FF 7F 77 68 69 31 01 80  8.........whi1..
0BA0: 45 00 80 F0 FF FF 7F F0  FF FF 7F 62 6C 6F 66 01  E..........blof.
0BB0: 80 45 00 80 F0 FF FF 7F  F0 FF FF 7F 66 64 6F 31  .E..........fdo1
0BC0: 01 80 55 00 80 F0 FF FF  7F F0 FF FF 7F 66 64 6F  ..U..........fdo
0BD0: 31 6C F0 FF FF 7F 66 80  04 80 06 01 10 02 17 00  1l....f.........
0BE0: 01 80 03 E8 0B 01 36 0D  02 20 00 3C 80 80 72 0C  ......6.. .<..r.
0BF0: 02 21 00 01 80 80 07 0C  47 00 67 80 68 80 69 80  .!......G.g.h.i.
0C00: 6A 80 47 01 01 6F 0C 02  21 00 04 80 80 1E 0C 47  j.G..o..!......G
0C10: 00 6B 80 6C 80 6D 80 6E  80 47 01 01 6F 0C 02 21  .k.l.m.n.G..o..!
0C20: 00 02 80 80 35 0C 47 00  6F 80 70 80 71 80 72 80  ....5.G.o.p.q.r.
0C30: 47 01 01 6F 0C 02 21 00  0E 80 80 4C 0C 47 00 73  G..o..!....L.G.s
0C40: 80 74 80 75 80 76 80 47  01 01 6F 0C 02 21 00 0F  .t.u.v.G..o..!..
0C50: 80 80 63 0C 47 00 77 80  78 80 79 80 7A 80 47 01  ..c.G.w.x.y.z.G.
0C60: 01 6F 0C 47 00 39 80 3A  80 24 80 3B 80 47 01 01  .o.G.9.:.$.;.G..
0C70: 36 0D 02 20 00 7B 80 80  A0 0C 02 19 00 01 80 80  6.. .{..........
0C80: 91 0C 47 00 39 80 3A 80  24 80 3B 80 47 01 01 9D  ..G.9.:.$.;.G...
0C90: 0C 47 00 7C 80 7D 80 7E  80 7F 80 47 01 01 36 0D  .G.|.}.~...G..6.
0CA0: 02 20 00 80 80 80 CE 0C  02 19 00 0F 80 80 BF 0C  . ..............
0CB0: 47 00 81 80 82 80 83 80  84 80 47 01 01 CB 0C 47  G.........G....G
0CC0: 00 39 80 3A 80 24 80 3B  80 47 01 01 36 0D 02 20  .9.:.$.;.G..6.. 
0CD0: 00 85 80 80 FC 0C 02 19  00 0F 80 80 ED 0C 47 00  ..............G.
0CE0: 86 80 87 80 88 80 89 80  47 01 01 F9 0C 47 00 39  ........G....G.9
0CF0: 80 3A 80 24 80 3B 80 47  01 01 36 0D 02 20 00 8A  .:.$.;.G..6.. ..
0D00: 80 80 2A 0D 02 19 00 0E  80 80 1B 0D 47 00 8B 80  ..*.........G...
0D10: 8C 80 8D 80 8E 80 47 01  01 27 0D 47 00 39 80 3A  ......G..'.G.9.:
0D20: 80 24 80 3B 80 47 01 01  36 0D 47 00 39 80 3A 80  .$.;.G..6.G.9.:.
0D30: 24 80 3B 80 47 01 38 12  80 02 17 00 02 80 00 44  $.;.G.8........D
0D40: 0D 01 5F 0D 02 17 00 04  80 00 0F 0E 1C 07 80 24  .._............$
0D50: 34 80 04 80 01 80 25 02  00 10 01 80 00 0F 0E 02  4.....%.........
0D60: 20 00 3C 80 00 CB 0D 02  21 00 01 80 80 79 0D 36   .<.....!....y.6
0D70: 67 80 68 80 69 80 01 C8  0D 02 21 00 04 80 80 8B  g.h.i.....!.....
0D80: 0D 36 6B 80 6C 80 6D 80  01 C8 0D 02 21 00 02 80  .6k.l.m.....!...
0D90: 80 9D 0D 36 6F 80 70 80  71 80 01 C8 0D 02 21 00  ...6o.p.q.....!.
0DA0: 0E 80 80 AF 0D 36 73 80  74 80 75 80 01 C8 0D 02  .....6s.t.u.....
0DB0: 21 00 0F 80 80 C1 0D 36  77 80 78 80 79 80 01 C8  !......6w.x.y...
0DC0: 0D 36 39 80 3A 80 24 80  01 D4 0D 37 39 80 3A 80  .69.:.$....79.:.
0DD0: 24 80 3B 80 80 F0 FF FF  7F 62 02 80 F0 FF FF 7F  $.;......b......
0DE0: F0 FF FF 7F 6D 61 69 6E  01 80 45 00 80 F0 FF FF  ....main..E.....
0DF0: 7F F0 FF FF 7F 66 64 69  32 01 80 46 02 12 00 02  .....fdi2..F....
0E00: 12 00 01 80 00 09 0E 46  00 01 51 0E 01 0F 0E 02  .......F..Q.....
0E10: 17 00 0A 80 04 43 0E 5C  00 35 80 5C 01 35 80 5C  .....C.\.5.\.5.\
0E20: 02 35 80 5C 03 35 80 02  19 00 1B 80 80 42 0E 5C  .5.\.5.......B.\
0E30: 00 01 80 5C 01 01 80 5C  02 01 80 5C 03 01 80 01  ...\...\...\....
0E40: 42 0E 9A 1A 48 17 02 17  00 01 80 03 51 0E 01 F1  B...H.......Q...
0E50: 0E 02 20 00 8F 80 80 5C  0E 01 5C 0E 02 20 00 21  .. ....\..\.. .!
0E60: 80 80 67 0E 01 F1 0E 02  20 00 12 80 80 72 0E 01  ..g..... ....r..
0E70: F1 0E 02 20 00 24 80 80  7D 0E 01 F1 0E 02 20 00  ... .$..}..... .
0E80: 26 80 80 88 0E 01 F1 0E  03 05 10 1B 00 02 05 10  &...............
0E90: 01 80 02 F1 0E 02 05 10  06 80 04 B0 0E 3F 04 10  .............?..
0EA0: 05 10 06 80 15 05 10 06  80 48 90 80 23 01 B4 0E  .........H..#...
0EB0: 48 91 80 23 02 1B 00 1A  00 05 C8 0E 03 07 10 19  H..#............
0EC0: 00 48 92 80 23 01 F1 0E  02 1A 00 06 80 04 E8 0E  .H..#...........
0ED0: 03 05 10 1A 00 3F 04 10  05 10 06 80 15 05 10 06  .....?..........
0EE0: 80 48 93 80 23 01 F1 0E  03 05 10 1A 00 48 94 80  .H..#........H..
0EF0: 23 02 18 00 01 80 00 09  0F 5C 00 01 80 5C 01 01  #........\...\..
0F00: 80 5C 02 35 80 5C 03 35  80 02 17 00 01 80 03 32  .\.5.\.5.......2
0F10: 0F 45 00 80 F0 FF FF 7F  F0 FF FF 7F 66 64 69 32  .E..........fdi2
0F20: 01 80 5C 00 01 80 5C 01  01 80 5C 02 35 80 5C 03  ..\...\...\.5.\.
0F30: 35 80 06 18 00 45 38 80  F0 FF FF 7F F0 FF FF 7F  5....E8.........
0F40: 77 68 69 31 01 80 45 00  80 F0 FF FF 7F F0 FF FF  whi1..E.........
0F50: 7F 62 6C 6F 66 01 80 21  00                       .blof..!.       
```

#### Opcodes

```
  0: 0x0B25 [0x79] LocalPlayer looks at LocalPlayer (Basic look)
  1: 0x0B2F [0x03] ExtData[1]->WorkLocal[33] = Work_Zone[2]
  2: 0x0B34 [0x03] ExtData[1]->WorkLocal[26] = Work_Zone[3]
  3: 0x0B39 [0x03] ExtData[1]->WorkLocal[27] = Work_Zone[5]
  4: 0x0B3E [0x03] ExtData[1]->WorkLocal[32] = Work_Zone[6]
  5: 0x0B43 [0x03] ExtData[1]->WorkLocal[25] = Work_Zone[7]
  6: 0x0B48 [0x03] ExtData[1]->WorkLocal[23] = Work_Zone[8]
  7: 0x0B4D [0x02] IF !(ExtData[1]->WorkLocal[23] < 3*) GOTO 0x0B5A
  8: 0x0B55 [0x03] ExtData[1]->WorkLocal[23] = 0*
  9: 0x0B5A [0x02] IF !(ExtData[1]->WorkLocal[25] == 7*) GOTO 0x0B6A
 10: 0x0B62 [0x03] ExtData[1]->WorkLocal[23] = 2*
 11: 0x0B67 [0x01] GOTO 0x0B6A

SUBROUTINE_0B6A:
 12: 0x0B6A [0x03] ExtData[1]->WorkLocal[28] = Work_Zone[9]
 13: 0x0B6F [0x20] SET_CLI_EVENT_UC_FLAG: Lock player control
 14: 0x0B71 [0x42] SET_CLI_EVENT_CANCEL_DATA()
 15: 0x0B72 [0x3B] GET_ENTITY_POSITION(entity=LocalPlayer, x_destination=Work_Zone[32], y_destination=Work_Zone[33], z_destination=Work_Zone[34])
 16: 0x0B7D [0x3A] CONVERT_YAW_TO_BYTE(entity=LocalPlayer, result_destination=Work_Zone[35])
 17: 0x0B84 [0x02] IF !(ExtData[1]->WorkLocal[32] == 180*) GOTO 0x0B8F
 18: 0x0B8C [0x1C] WAIT(300* ticks)
 19: 0x0B8F [0x45] LOAD_SCHEDULED_TASK: Load scheduler "whi1" with entities [LocalPlayer, LocalPlayer], work=[201*, 0*]
 20: 0x0BA0 [0x45] LOAD_SCHEDULED_TASK: Load scheduler "blof" with entities [LocalPlayer, LocalPlayer], work=[200*, 0*]
 21: 0x0BB1 [0x45] LOAD_SCHEDULED_TASK: Load scheduler "fdo1" with entities [LocalPlayer, LocalPlayer], work=[200*, 0*]
 22: 0x0BC2 [0x55] WAIT_LOAD_SCHEDULER: Wait for scheduler "fdo1" with entities [LocalPlayer, LocalPlayer], work=200*
 23: 0x0BD1 [0x6C] FADE_ENTITY_COLOR(entity_id=LocalPlayer, end_alpha=128*, fade_time=1*)
 24: 0x0BDA [0x06] Work_Zone[1] = 0
 25: 0x0BDD [0x02] IF !(ExtData[1]->WorkLocal[23] >= 0*) GOTO 0x0BE8
 26: 0x0BE5 [0x01] GOTO 0x0D36
 27: 0x0BE8 [0x02] IF !(ExtData[1]->WorkLocal[32] == 180*) GOTO 0x0C72
 28: 0x0BF0 [0x02] IF !(ExtData[1]->WorkLocal[33] == 0*) GOTO 0x0C07
 29: 0x0BF8 [0x47] UPDATE_PLAYER_POS(-618.329*, -643.868*, -25.805*, yaw=330.5°*)
 30: 0x0C02 [0x47] WAIT_PLAYER_POS_UPDATE
 31: 0x0C04 [0x01] GOTO 0x0C6F
 32: 0x0C07 [0x02] IF !(ExtData[1]->WorkLocal[33] == 1*) GOTO 0x0C1E
 33: 0x0C0F [0x47] UPDATE_PLAYER_POS(-332.163*, -441.914*, -95.055*, yaw=330.5°*)
 34: 0x0C19 [0x47] WAIT_PLAYER_POS_UPDATE
 35: 0x0C1B [0x01] GOTO 0x0C6F
 36: 0x0C1E [0x02] IF !(ExtData[1]->WorkLocal[33] == 2*) GOTO 0x0C35
 37: 0x0C26 [0x47] UPDATE_PLAYER_POS(-12.464*, -648.377*, -194.629*, yaw=331.3°*)
 38: 0x0C30 [0x47] WAIT_PLAYER_POS_UPDATE
 39: 0x0C32 [0x01] GOTO 0x0C6F
 40: 0x0C35 [0x02] IF !(ExtData[1]->WorkLocal[33] == 3*) GOTO 0x0C4C
 41: 0x0C3D [0x47] UPDATE_PLAYER_POS(323.381*, -443.793*, -108.440*, yaw=329.1°*)
 42: 0x0C47 [0x47] WAIT_PLAYER_POS_UPDATE
 43: 0x0C49 [0x01] GOTO 0x0C6F
 44: 0x0C4C [0x02] IF !(ExtData[1]->WorkLocal[33] == 4*) GOTO 0x0C63
 45: 0x0C54 [0x47] UPDATE_PLAYER_POS(599.907*, -676.969*, -22.473*, yaw=330.7°*)
 46: 0x0C5E [0x47] WAIT_PLAYER_POS_UPDATE
 47: 0x0C60 [0x01] GOTO 0x0C6F
 48: 0x0C63 [0x47] UPDATE_PLAYER_POS(320.032*, -11.401*, 0.021*, yaw=270.0°*)
 49: 0x0C6D [0x47] WAIT_PLAYER_POS_UPDATE

SUBROUTINE_0C6F:
 50: 0x0C6F [0x01] GOTO 0x0D36
 51: 0x0C72 [0x02] IF !(ExtData[1]->WorkLocal[32] == 168*) GOTO 0x0CA0
 52: 0x0C7A [0x02] IF !(ExtData[1]->WorkLocal[25] == 0*) GOTO 0x0C91
 53: 0x0C82 [0x47] UPDATE_PLAYER_POS(320.032*, -11.401*, 0.021*, yaw=270.0°*)
 54: 0x0C8C [0x47] WAIT_PLAYER_POS_UPDATE
 55: 0x0C8E [0x01] GOTO 0x0C9D
 56: 0x0C91 [0x47] UPDATE_PLAYER_POS(200.059*, -21.958*, -0.250*, yaw=91.5°*)
 57: 0x0C9B [0x47] WAIT_PLAYER_POS_UPDATE

SUBROUTINE_0C9D:
 58: 0x0C9D [0x01] GOTO 0x0D36
 59: 0x0CA0 [0x02] IF !(ExtData[1]->WorkLocal[32] == 202*) GOTO 0x0CCE
 60: 0x0CA8 [0x02] IF !(ExtData[1]->WorkLocal[25] == 4*) GOTO 0x0CBF
 61: 0x0CB0 [0x47] UPDATE_PLAYER_POS(538.604*, 501.900*, -13.942*, yaw=286.5°*)
 62: 0x0CBA [0x47] WAIT_PLAYER_POS_UPDATE
 63: 0x0CBC [0x01] GOTO 0x0CCB
 64: 0x0CBF [0x47] UPDATE_PLAYER_POS(320.032*, -11.401*, 0.021*, yaw=270.0°*)
 65: 0x0CC9 [0x47] WAIT_PLAYER_POS_UPDATE

SUBROUTINE_0CCB:
 66: 0x0CCB [0x01] GOTO 0x0D36
 67: 0x0CCE [0x02] IF !(ExtData[1]->WorkLocal[32] == 203*) GOTO 0x0CFC
 68: 0x0CD6 [0x02] IF !(ExtData[1]->WorkLocal[25] == 4*) GOTO 0x0CED
 69: 0x0CDE [0x47] UPDATE_PLAYER_POS(553.205*, 589.633*, -0.021*, yaw=124.4°*)
 70: 0x0CE8 [0x47] WAIT_PLAYER_POS_UPDATE
 71: 0x0CEA [0x01] GOTO 0x0CF9
 72: 0x0CED [0x47] UPDATE_PLAYER_POS(320.032*, -11.401*, 0.021*, yaw=270.0°*)
 73: 0x0CF7 [0x47] WAIT_PLAYER_POS_UPDATE

SUBROUTINE_0CF9:
 74: 0x0CF9 [0x01] GOTO 0x0D36
 75: 0x0CFC [0x02] IF !(ExtData[1]->WorkLocal[32] == 211*) GOTO 0x0D2A
 76: 0x0D04 [0x02] IF !(ExtData[1]->WorkLocal[25] == 3*) GOTO 0x0D1B
 77: 0x0D0C [0x47] UPDATE_PLAYER_POS(569.224*, 548.462*, 36.837*, yaw=59.1°*)
 78: 0x0D16 [0x47] WAIT_PLAYER_POS_UPDATE
 79: 0x0D18 [0x01] GOTO 0x0D27
 80: 0x0D1B [0x47] UPDATE_PLAYER_POS(320.032*, -11.401*, 0.021*, yaw=270.0°*)
 81: 0x0D25 [0x47] WAIT_PLAYER_POS_UPDATE

SUBROUTINE_0D27:
 82: 0x0D27 [0x01] GOTO 0x0D36
 83: 0x0D2A [0x47] UPDATE_PLAYER_POS(320.032*, -11.401*, 0.021*, yaw=270.0°*)
 84: 0x0D34 [0x47] WAIT_PLAYER_POS_UPDATE

SUBROUTINE_0D36:
 85: 0x0D36 [0x38] SET_CLIENT_EVENT_MODE(mode=19*)
 86: 0x0D39 [0x02] IF !(ExtData[1]->WorkLocal[23] == 2*) GOTO 0x0D44
 87: 0x0D41 [0x01] GOTO 0x0D5F
 88: 0x0D44 [0x02] IF !(ExtData[1]->WorkLocal[23] == 1*) GOTO 0x0E0F
 89: 0x0D4C [0x1C] WAIT(15* ticks)
 90: 0x0D4F [0x24] CREATE_DIALOG(message_id=7566*, default_option=1*, option_flags=0*)
    → "Skip the event? [Yes./No.]"
 91: 0x0D56 [0x25] WAIT_DIALOG_SELECT()
 92: 0x0D57 [0x02] IF !(Work_Zone[0] == 0*) GOTO 0x0E0F

SUBROUTINE_0D5F:
 93: 0x0D5F [0x02] IF !(ExtData[1]->WorkLocal[32] == 180*) GOTO 0x0DCB
 94: 0x0D67 [0x02] IF !(ExtData[1]->WorkLocal[33] == 0*) GOTO 0x0D79
 95: 0x0D6F [0x36] SET_ENTITY_EVENT_POSITION(pos_x=-618.329*, pos_z=-643.868*, pos_y=-25.805*)
 96: 0x0D76 [0x01] GOTO 0x0DC8
 97: 0x0D79 [0x02] IF !(ExtData[1]->WorkLocal[33] == 1*) GOTO 0x0D8B
 98: 0x0D81 [0x36] SET_ENTITY_EVENT_POSITION(pos_x=-332.163*, pos_z=-441.914*, pos_y=-95.055*)
 99: 0x0D88 [0x01] GOTO 0x0DC8
100: 0x0D8B [0x02] IF !(ExtData[1]->WorkLocal[33] == 2*) GOTO 0x0D9D
101: 0x0D93 [0x36] SET_ENTITY_EVENT_POSITION(pos_x=-12.464*, pos_z=-648.377*, pos_y=-194.629*)
102: 0x0D9A [0x01] GOTO 0x0DC8
103: 0x0D9D [0x02] IF !(ExtData[1]->WorkLocal[33] == 3*) GOTO 0x0DAF
104: 0x0DA5 [0x36] SET_ENTITY_EVENT_POSITION(pos_x=323.381*, pos_z=-443.793*, pos_y=-108.440*)
105: 0x0DAC [0x01] GOTO 0x0DC8
106: 0x0DAF [0x02] IF !(ExtData[1]->WorkLocal[33] == 4*) GOTO 0x0DC1
107: 0x0DB7 [0x36] SET_ENTITY_EVENT_POSITION(pos_x=599.907*, pos_z=-676.969*, pos_y=-22.473*)
108: 0x0DBE [0x01] GOTO 0x0DC8
109: 0x0DC1 [0x36] SET_ENTITY_EVENT_POSITION(pos_x=320.032*, pos_z=-11.401*, pos_y=0.021*)

SUBROUTINE_0DC8:
110: 0x0DC8 [0x01] GOTO 0x0DD4
111: 0x0DCB [0x37] UPDATE_EVENT_POSITION_AND_DIR: x=320.032*, z=-11.401*, y=0.021*, direction=270.0°*

SUBROUTINE_0DD4:
112: 0x0DD4 [0x80] LOAD_WAIT(entity=LocalPlayer)
113: 0x0DD9 [0x62] LOAD_EVENT_SCHEDULER: Load scheduler "main" with entities [LocalPlayer, LocalPlayer], work=[2*, 0*]
114: 0x0DEA [0x45] LOAD_SCHEDULED_TASK: Load scheduler "fdi2" with entities [LocalPlayer, LocalPlayer], work=[200*, 0*]
115: 0x0DFB [0x46] CAMERA_CONTROL: Query status
116: 0x0DFD [0x12] 0x0200 = rand()
117: 0x0E00 [0x12] 0x0100 = rand()
118: 0x0E03 [0x80] LOAD_WAIT(entity=Unknown NPC (ID: 1175324928/0x460E0900))
119: 0x0E08 [0x00] END_REQSTACK()

SUBROUTINE_0E0F:
120: 0x0E0F [0x02] IF !(ExtData[1]->WorkLocal[23] < 4294967295*) GOTO 0x0E43
121: 0x0E17 [0x5C] MUSIC_CONTROL: Set Idle (Day) music to song 193*
122: 0x0E1B [0x5C] MUSIC_CONTROL: Set Idle (Night) music to song 193*
123: 0x0E1F [0x5C] MUSIC_CONTROL: Set Combat (Solo) music to song 193*
124: 0x0E23 [0x5C] MUSIC_CONTROL: Set Combat (Party) music to song 193*
125: 0x0E27 [0x02] IF !(ExtData[1]->WorkLocal[25] == 6*) GOTO 0x0E42
126: 0x0E2F [0x5C] MUSIC_CONTROL: Set Idle (Day) music to song 0*
127: 0x0E33 [0x5C] MUSIC_CONTROL: Set Idle (Night) music to song 0*
128: 0x0E37 [0x5C] MUSIC_CONTROL: Set Combat (Solo) music to song 0*
129: 0x0E3B [0x5C] MUSIC_CONTROL: Set Combat (Party) music to song 0*
130: 0x0E3F [0x01] GOTO 0x0E42

SUBROUTINE_0E42:
131: 0x0E42 [0x9A] WAIT_MUSIC_SERVER()
132: 0x0E43 [0x1A] CALL_SUBROUTINE(address=0x1748)
133: 0x0E46 [0x02] IF !(ExtData[1]->WorkLocal[23] >= 0*) GOTO 0x0E51
134: 0x0E4E [0x01] GOTO 0x0EF1

SUBROUTINE_0E51:
135: 0x0E51 [0x02] IF !(ExtData[1]->WorkLocal[32] == 36*) GOTO 0x0E5C
136: 0x0E59 [0x01] GOTO 0x0E5C

SUBROUTINE_0E5C:
137: 0x0E5C [0x02] IF !(ExtData[1]->WorkLocal[32] == 17*) GOTO 0x0E67
138: 0x0E64 [0x01] GOTO 0x0EF1
139: 0x0E67 [0x02] IF !(ExtData[1]->WorkLocal[32] == 19*) GOTO 0x0E72
140: 0x0E6F [0x01] GOTO 0x0EF1
141: 0x0E72 [0x02] IF !(ExtData[1]->WorkLocal[32] == 21*) GOTO 0x0E7D
142: 0x0E7A [0x01] GOTO 0x0EF1
143: 0x0E7D [0x02] IF !(ExtData[1]->WorkLocal[32] == 23*) GOTO 0x0E88
144: 0x0E85 [0x01] GOTO 0x0EF1
145: 0x0E88 [0x03] Work_Zone[5] = ExtData[1]->WorkLocal[27]
146: 0x0E8D [0x02] IF !(Work_Zone[5] <= 0*) GOTO 0x0EF1
147: 0x0E95 [0x02] IF !(Work_Zone[5] < 60*) GOTO 0x0EB0
148: 0x0E9D [0x3F] Work_Zone[4] = Work_Zone[5] % 60*
149: 0x0EA4 [0x15] Work_Zone[5] /= 60*
150: 0x0EA9 [0x48] [System] [7568*]:
    → "Battlefield clear time: $3 minute[/s], $2 second[/s]!"
151: 0x0EAC [0x23] WAIT_FOR_DIALOG_INTERACTION
152: 0x0EAD [0x01] GOTO 0x0EB4
153: 0x0EB0 [0x48] [System] [7567*]:
    → "Battlefield clear time: $3 second[/s]!"
154: 0x0EB3 [0x23] WAIT_FOR_DIALOG_INTERACTION

SUBROUTINE_0EB4:
155: 0x0EB4 [0x02] IF !(ExtData[1]->WorkLocal[27] > ExtData[1]->WorkLocal[26]) GOTO 0x0EC8
156: 0x0EBC [0x03] Work_Zone[7] = ExtData[1]->WorkLocal[25]
157: 0x0EC1 [0x48] [System] [7602*]:
    → "You have broken the clear time record for "[Return to Delkfutt's Tower/The Indomitable Triumvirate/The Dauntless Duo/The Solitary Demolisher/Heroine's Combat/Mercenary Camp/Ode of Life Bestowing/$26Return to Delkfutt's Tower/True Love/A Fond Farewell]"!"
158: 0x0EC4 [0x23] WAIT_FOR_DIALOG_INTERACTION
159: 0x0EC5 [0x01] GOTO 0x0EF1
160: 0x0EC8 [0x02] IF !(ExtData[1]->WorkLocal[26] < 60*) GOTO 0x0EE8
161: 0x0ED0 [0x03] Work_Zone[5] = ExtData[1]->WorkLocal[26]
162: 0x0ED5 [0x3F] Work_Zone[4] = Work_Zone[5] % 60*
163: 0x0EDC [0x15] Work_Zone[5] /= 60*
164: 0x0EE1 [0x48] [System] [7570*]:
    → "The current battlefield clear time record is $3 minute[/s] $2 second[/s]."
165: 0x0EE4 [0x23] WAIT_FOR_DIALOG_INTERACTION
166: 0x0EE5 [0x01] GOTO 0x0EF1
167: 0x0EE8 [0x03] Work_Zone[5] = ExtData[1]->WorkLocal[26]
168: 0x0EED [0x48] [System] [7569*]:
    → "The current battlefield clear time record is $3 second[/s]."
169: 0x0EF0 [0x23] WAIT_FOR_DIALOG_INTERACTION

SUBROUTINE_0EF1:
170: 0x0EF1 [0x02] IF !(ExtData[1]->WorkLocal[24] == 0*) GOTO 0x0F09
171: 0x0EF9 [0x5C] MUSIC_CONTROL: Set Idle (Day) music to song 0*
172: 0x0EFD [0x5C] MUSIC_CONTROL: Set Idle (Night) music to song 0*
173: 0x0F01 [0x5C] MUSIC_CONTROL: Set Combat (Solo) music to song 193*
174: 0x0F05 [0x5C] MUSIC_CONTROL: Set Combat (Party) music to song 193*
175: 0x0F09 [0x02] IF !(ExtData[1]->WorkLocal[23] >= 0*) GOTO 0x0F32
176: 0x0F11 [0x45] LOAD_SCHEDULED_TASK: Load scheduler "fdi2" with entities [LocalPlayer, LocalPlayer], work=[200*, 0*]
177: 0x0F22 [0x5C] MUSIC_CONTROL: Set Idle (Day) music to song 0*
178: 0x0F26 [0x5C] MUSIC_CONTROL: Set Idle (Night) music to song 0*
179: 0x0F2A [0x5C] MUSIC_CONTROL: Set Combat (Solo) music to song 193*
180: 0x0F2E [0x5C] MUSIC_CONTROL: Set Combat (Party) music to song 193*
181: 0x0F32 [0x06] ExtData[1]->WorkLocal[24] = 0
182: 0x0F35 [0x45] LOAD_SCHEDULED_TASK: Load scheduler "whi1" with entities [LocalPlayer, LocalPlayer], work=[201*, 0*]
183: 0x0F46 [0x45] LOAD_SCHEDULED_TASK: Load scheduler "blof" with entities [LocalPlayer, LocalPlayer], work=[200*, 0*]
184: 0x0F57 [0x21] END_EVENT
185: 0x0F58 [0x00] END_REQSTACK()
```

#### Data or dead code:

```
# Dead code (unreachable instructions):
     0x0E09 [0x01] GOTO 0x0E51
     0x0E0C [0x01] GOTO 0x0E0F
```

### Event 6

#### Metadata

| Field        | Value   |
|--------------|---------|
| Entrypoint   | 0x0F59  |
| Data Size    | 5 bytes |
| Instructions | 3       |

```
      00 01 02 03 04 05 06 07  08 09 0A 0B 0C 0D 0E 0F
      -- -- -- -- -- -- -- --  -- -- -- -- -- -- -- --
0F50:                             1A 08 2A 21 00                 ..*!.  
```

#### Opcodes

```
  0: 0x0F59 [0x1A] CALL_SUBROUTINE(address=0x2A08)
  1: 0x0F5C [0x21] END_EVENT
  2: 0x0F5D [0x00] END_REQSTACK()
```

### Event 5

#### Metadata

| Field        | Value   |
|--------------|---------|
| Entrypoint   | 0x0F5E  |
| Data Size    | 1 bytes |
| Instructions | 1       |

```
      00 01 02 03 04 05 06 07  08 09 0A 0B 0C 0D 0E 0F
      -- -- -- -- -- -- -- --  -- -- -- -- -- -- -- --
0F50:                                            00                   . 
```

#### Opcodes

```
  0: 0x0F5E [0x00] END_REQSTACK()
```

### Event 32003

#### Metadata

| Field        | Value      |
|--------------|------------|
| Entrypoint   | 0x0F5F     |
| Data Size    | 4460 bytes |
| Instructions | 104        |

```
      00 01 02 03 04 05 06 07  08 09 0A 0B 0C 0D 0E 0F
      -- -- -- -- -- -- -- --  -- -- -- -- -- -- -- --
0F50:                                               06                 .
0F60: 1D 00 06 1E 00 03 21 00  06 10 03 20 00 07 10 03  ......!.... ....
0F70: 1F 00 08 10 06 01 10 1A  06 1C 02 1D 00 04 80 00  ................
0F80: 10 11 42 03 01 10 02 80  43 00 43 01 03 01 10 0E  ..B.....C.C.....
0F90: 80 43 00 43 01 1A 1D 1C  02 1E 00 04 80 00 10 11  .C.C............
0FA0: 45 00 80 F0 FF FF 7F F0  FF FF 7F 66 64 6F 31 01  E..........fdo1.
0FB0: 80 55 00 80 F0 FF FF 7F  F0 FF FF 7F 66 64 6F 31  .U..........fdo1
0FC0: 03 01 10 0F 80 02 20 00  3C 80 80 4F 10 02 21 00  ...... .<..O..!.
0FD0: 01 80 80 E4 0F 47 00 3D  80 3E 80 3F 80 40 80 47  .....G.=.>.?.@.G
0FE0: 01 01 4C 10 02 21 00 04  80 80 FB 0F 47 00 41 80  ..L..!......G.A.
0FF0: 42 80 43 80 44 80 47 01  01 4C 10 02 21 00 02 80  B.C.D.G..L..!...
1000: 80 12 10 47 00 45 80 46  80 47 80 48 80 47 01 01  ...G.E.F.G.H.G..
1010: 4C 10 02 21 00 0E 80 80  29 10 47 00 49 80 4A 80  L..!....).G.I.J.
1020: 4B 80 4C 80 47 01 01 4C  10 02 21 00 0F 80 80 40  K.L.G..L..!....@
1030: 10 47 00 4D 80 4E 80 4F  80 50 80 47 01 01 4C 10  .G.M.N.O.P.G..L.
1040: 47 00 51 80 52 80 53 80  54 80 47 01 01 CE 10 02  G.Q.R.S.T.G.....
1050: 20 00 1B 80 80 C2 10 02  1F 00 04 80 80 6E 10 47   ............n.G
1060: 00 55 80 56 80 57 80 58  80 47 01 01 BF 10 02 1F  .U.V.W.X.G......
1070: 00 02 80 80 85 10 47 00  59 80 5A 80 5B 80 5C 80  ......G.Y.Z.[.\.
1080: 47 01 01 BF 10 02 1F 00  0E 80 80 9C 10 47 00 5D  G............G.]
1090: 80 5E 80 5F 80 60 80 47  01 01 BF 10 02 1F 00 0F  .^._.`.G........
10A0: 80 80 B3 10 47 00 61 80  62 80 63 80 64 80 47 01  ....G.a.b.c.d.G.
10B0: 01 BF 10 47 00 51 80 52  80 53 80 54 80 47 01 01  ...G.Q.R.S.T.G..
10C0: CE 10 47 00 51 80 52 80  53 80 54 80 47 01 38 12  ..G.Q.R.S.T.G.8.
10D0: 80 79 00 F0 FF FF 7F F0  FF FF 7F 1A 21 1C 45 38  .y..........!.E8
10E0: 80 F0 FF FF 7F F0 FF FF  7F 77 68 69 31 01 80 45  .........whi1..E
10F0: 00 80 F0 FF FF 7F F0 FF  FF 7F 62 6C 6F 66 01 80  ..........blof..
1100: 5C 00 01 80 5C 01 01 80  5C 02 35 80 5C 03 35 80  \...\...\.5.\.5.
1110: 21 00 24 10 80 04 80 01  80 25 02 00 10 01 80 00  !.$......%......
1120: 28 11 05 01 00 01 28 11  1B 79 00 F0 FF FF 7F F0  (.....(..y......
1130: FF FF 7F 42 46 01 45 00  80 F0 FF FF 7F F0 FF FF  ...BF.E.........
1140: 7F 66 64 6F 31 01 80 55  00 80 F0 FF FF 7F F0 FF  .fdo1..U........
1150: FF 7F 66 64 6F 31 02 03  00 01 80 80 64 11 1A 08  ..fdo1......d...
1160: 2A 01 E5 11 02 03 00 0D  80 80 72 11 1A AF 12 01  *.........r.....
1170: E5 11 02 03 00 1B 80 80  80 11 1A 89 15 01 E5 11  ................
1180: 02 03 00 1C 80 80 8E 11  1A F2 2F 01 E5 11 92 01  ........../.....
1190: F0 FF FF 7F 37 95 80 96  80 97 80 98 80 45 99 80  ....7........E..
11A0: F0 FF FF 7F F0 FF FF 7F  62 61 63 6B 01 80 1C 1D  ........back....
11B0: 80 45 00 80 F0 FF FF 7F  F0 FF FF 7F 66 64 69 31  .E..........fdi1
11C0: 01 80 62 04 80 F0 FF FF  7F F0 FF FF 7F 6D 61 69  ..b..........mai
11D0: 6E 01 80 1C 06 80 55 00  80 F0 FF FF 7F F0 FF FF  n.....U.........
11E0: 7F 66 64 69 31 45 00 80  F0 FF FF 7F F0 FF FF 7F  .fdi1E..........
11F0: 66 64 6F 32 01 80 55 00  80 F0 FF FF 7F F0 FF FF  fdo2..U.........
1200: 7F 66 64 6F 32 6C F0 FF  FF 7F 01 80 01 80 45 38  .fdo2l........E8
1210: 80 F0 FF FF 7F F0 FF FF  7F 77 68 69 31 01 80 02  .........whi1...
1220: 00 00 04 80 80 33 12 37  01 80 9A 80 9B 80 3B 80  .....3.7......;.
1230: 01 6F 12 02 00 00 02 80  80 47 12 37 01 80 9C 80  .o.......G.7....
1240: 01 80 3B 80 01 6F 12 02  00 00 0E 80 80 5B 12 37  ..;..o.......[.7
1250: 01 80 9D 80 9E 80 3B 80  01 6F 12 02 00 00 0F 80  ......;..o......
1260: 80 6F 12 37 01 80 01 80  01 80 01 80 01 6F 12 46  .o.7.........o.F
1270: 00 92 01 F0 FF FF 7F 1C  1D 80 45 00 80 F0 FF FF  ..........E.....
1280: 7F F0 FF FF 7F 66 64 69  31 01 80 55 00 80 F0 FF  .....fdi1..U....
1290: FF 7F F0 FF FF 7F 66 64  69 31 62 02 80 F0 FF FF  ......fdi1b.....
12A0: 7F F0 FF FF 7F 6D 61 69  6E 01 80 1C 9F 80 1B 38  .....main......8
12B0: 12 80 27 10 45 31 0B 01  04 27 10 46 31 0B 01 04  ..'.E1...'.F1...
12C0: 27 10 47 31 0B 01 04 27  10 48 31 0B 01 04 27 10  '.G1...'.H1...'.
12D0: 49 31 0B 01 04 4E 00 43  31 0B 01 92 01 45 31 0B  I1...N.C1....E1.
12E0: 01 92 01 46 31 0B 01 92  01 47 31 0B 01 92 01 48  ...F1....G1....H
12F0: 31 0B 01 92 01 49 31 0B  01 94 01 F0 FF FF 7F 94  1....I1.........
1300: 01 45 31 0B 01 94 01 46  31 0B 01 94 01 47 31 0B  .E1....F1....G1.
1310: 01 94 01 48 31 0B 01 94  01 49 31 0B 01 94 01 43  ...H1....I1....C
1320: 31 0B 01 80 F0 FF FF 7F  80 45 31 0B 01 80 46 31  1........E1...F1
1330: 0B 01 80 47 31 0B 01 80  48 31 0B 01 80 49 31 0B  ...G1...H1...I1.
1340: 01 BA 45 31 0B 01 01 80  A0 80 A1 80 A2 80 BA 46  ..E1...........F
1350: 31 0B 01 A3 80 A4 80 A1  80 A2 80 BA 47 31 0B 01  1...........G1..
1360: A5 80 A4 80 A1 80 A2 80  BA 48 31 0B 01 A6 80 A7  .........H1.....
1370: 80 A1 80 A2 80 BA 49 31  0B 01 A8 80 A7 80 A1 80  ......I1........
1380: A2 80 BA 43 31 0B 01 2B  80 A9 80 A1 80 A2 80 1C  ...C1..+........
1390: 07 80 5B AA 80 45 31 0B  01 45 31 0B 01 77 61 72  ..[..E1..E1..war
13A0: 30 5B AB 80 46 31 0B 01  46 31 0B 01 67 64 62 30  0[..F1..F1..gdb0
13B0: 5B AC 80 48 31 0B 01 48  31 0B 01 77 61 72 30 5B  [..H1..H1..war0[
13C0: AD 80 47 31 0B 01 47 31  0B 01 77 61 72 30 5B AE  ..G1..G1..war0[.
13D0: 80 49 31 0B 01 49 31 0B  01 6E 6A 30 30 45 AF 80  .I1..I1..nj00E..
13E0: F0 FF FF 7F F0 FF FF 7F  67 6C 30 30 01 80 1A DE  ........gl00....
13F0: 1D 2B 45 31 0B 01 B0 80  55 AF 80 F0 FF FF 7F F0  .+E1....U.......
1400: FF FF 7F 67 6C 30 30 45  AF 80 F0 FF FF 7F F0 FF  ...gl00E........
1410: FF 7F 67 67 30 30 01 80  2B 46 31 0B 01 B1 80 55  ..gg00..+F1....U
1420: AF 80 F0 FF FF 7F F0 FF  FF 7F 67 67 30 30 45 AF  ..........gg00E.
1430: 80 F0 FF FF 7F F0 FF FF  7F 67 6E 30 30 01 80 2B  .........gn00..+
1440: 49 31 0B 01 B2 80 55 AF  80 F0 FF FF 7F F0 FF FF  I1....U.........
1450: 7F 67 6E 30 30 45 AF 80  F0 FF FF 7F F0 FF FF 7F  .gn00E..........
1460: 67 7A 30 30 01 80 2B 48  31 0B 01 B3 80 55 AF 80  gz00..+H1....U..
1470: F0 FF FF 7F F0 FF FF 7F  67 7A 30 30 45 AF 80 F0  ........gz00E...
1480: FF FF 7F F0 FF FF 7F 67  6D 30 30 01 80 2B 47 31  .......gm00..+G1
1490: 0B 01 B4 80 55 AF 80 F0  FF FF 7F F0 FF FF 7F 67  ....U..........g
14A0: 6D 30 30 45 AF 80 F0 FF  FF 7F F0 FF FF 7F 67 61  m00E..........ga
14B0: 30 31 01 80 5B AA 80 45  31 0B 01 45 31 0B 01 77  01..[..E1..E1..w
14C0: 61 72 31 2B 45 31 0B 01  B5 80 55 AF 80 F0 FF FF  ar1+E1....U.....
14D0: 7F F0 FF FF 7F 67 61 30  31 45 AF 80 F0 FF FF 7F  .....ga01E......
14E0: F0 FF FF 7F 67 61 30 30  01 80 2B 44 31 0B 01 B6  ....ga00..+D1...
14F0: 80 BB 13 80 43 31 0B 01  43 31 0B 01 6D 61 69 6E  ....C1..C1..main
1500: 01 80 1C 23 80 45 AF 80  43 31 0B 01 43 31 0B 01  ...#.E..C1..C1..
1510: 30 73 62 6B 01 80 1C B7  80 1A 41 1E 45 AF 80 43  0sbk......A.E..C
1520: 31 0B 01 43 31 0B 01 6B  73 62 6B 01 80 BB 13 80  1..C1..ksbk.....
1530: 43 31 0B 01 43 31 0B 01  73 74 6F 70 01 80 1C 2D  C1..C1..stop...-
1540: 80 52 AF 80 F0 FF FF 7F  F0 FF FF 7F 67 61 30 30  .R..........ga00
1550: 45 AF 80 F0 FF FF 7F F0  FF FF 7F 30 62 6C 66 01  E..........0blf.
1560: 80 4E 01 45 31 0B 01 4E  01 46 31 0B 01 4E 01 47  .N.E1..N.F1..N.G
1570: 31 0B 01 4E 01 48 31 0B  01 4E 01 49 31 0B 01 4E  1..N.H1..N.I1..N
1580: 01 43 31 0B 01 1C 9F 80  1B 38 12 80 1A 2D 20 1A  .C1......8...- .
1590: DE 1D 27 10 4B 31 0B 01  05 27 10 4C 31 0B 01 05  ..'.K1...'.L1...
15A0: 27 10 4D 31 0B 01 05 27  10 4E 31 0B 01 04 94 01  '.M1...'.N1.....
15B0: F0 FF FF 7F 59 05 4E 31  0B 01 01 BA F0 FF FF 7F  ....Y.N1........
15C0: B8 80 B9 80 BA 80 BB 80  BA 4E 31 0B 01 01 80 BC  .........N1.....
15D0: 80 BD 80 BE 80 BA 4C 31  0B 01 01 80 BF 80 BA 80  ......L1........
15E0: BE 80 BA 4B 31 0B 01 01  80 BF 80 BA 80 BE 80 BA  ...K1...........
15F0: 4D 31 0B 01 01 80 BC 80  BA 80 A2 80 80 F0 FF FF  M1..............
1600: 7F 80 4E 31 0B 01 80 4C  31 0B 01 80 4B 31 0B 01  ..N1...L1...K1..
1610: 80 4D 31 0B 01 1C 07 80  5C 00 36 80 5C 01 36 80  .M1.....\.6.\.6.
1620: 5C 02 36 80 5C 03 36 80  9A 4A F0 FF FF 7F 4E 31  \.6.\.6..J....N1
1630: 0B 01 27 10 4C 31 0B 01  0E 27 10 4B 31 0B 01 1E  ..'.L1...'.K1...
1640: 5B C0 80 4D 31 0B 01 4D  31 0B 01 68 79 6C 32 C5  [..M1..M1..hyl2.
1650: C1 80 4E 31 0B 01 4E 31  0B 01 73 30 30 34 01 80  ..N1..N1..s004..
1660: 45 C2 80 4E 31 0B 01 4E  31 0B 01 36 31 33 35 01  E..N1..N1..6135.
1670: 80 27 10 F0 FF FF 7F 10  1C 2D 80 45 C2 80 F0 FF  .'.......-.E....
1680: FF 7F F0 FF FF 7F 31 39  30 64 01 80 1A 20 1E 1C  ......190d... ..
1690: 06 80 27 10 4E 31 0B 01  18 2B 4E 31 0B 01 C3 80  ..'.N1...+N1....
16A0: 1C 9F 80 52 C2 80 F0 FF  FF 7F F0 FF FF 7F 31 39  ...R..........19
16B0: 30 64 45 C2 80 F0 FF FF  7F F0 FF FF 7F 31 39 30  0dE..........190
16C0: 65 01 80 27 10 4E 31 0B  01 18 2B 4E 31 0B 01 C4  e..'.N1...+N1...
16D0: 80 1C 06 80 1A 41 1E 1C  2D 80 52 C2 80 F0 FF FF  .....A..-.R.....
16E0: 7F F0 FF FF 7F 31 39 30  65 45 C2 80 F0 FF FF 7F  .....190eE......
16F0: F0 FF FF 7F 30 30 62 66  01 80 1A FF 1D 1A 20 1E  ....00bf...... .
1700: 45 C2 80 4E 31 0B 01 4E  31 0B 01 6B 31 33 35 01  E..N1..N1..k135.
1710: 80 C5 C1 80 4E 31 0B 01  4E 31 0B 01 6B 69 6C 30  ....N1..N1..kil0
1720: 01 80 27 10 F0 FF FF 7F  11 1C C5 80 4E 01 4E 31  ..'.........N.N1
1730: 0B 01 4E 01 4C 31 0B 01  4E 01 4B 31 0B 01 4E 01  ..N.L1..N.K1..N.
1740: 4D 31 0B 01 1C 07 80 1B  46 01 02 19 00 01 80 80  M1......F.......
1750: 68 17 03 01 10 04 80 43  00 43 01 02 02 10 04 80  h......C.C......
1760: 00 65 17 30 1B 01 E7 17  02 19 00 0D 80 80 82 17  .e.0............
1770: 47 00 51 80 52 80 53 80  54 80 47 01 1A 65 18 01  G.Q.R.S.T.G..e..
1780: E7 17 02 19 00 1B 80 80  A0 17 03 01 10 0D 80 43  ...............C
1790: 00 43 01 02 02 10 04 80  00 9D 17 30 1B 01 E7 17  .C.........0....
17A0: 02 19 00 1C 80 80 AB 17  01 E7 17 02 19 00 04 80  ................
17B0: 04 C7 17 02 19 00 0F 80  05 C7 17 47 00 51 80 52  ...........G.Q.R
17C0: 80 53 80 54 80 47 01 45  00 80 F0 FF FF 7F F0 FF  .S.T.G.E........
17D0: FF 7F 66 64 6F 32 01 80  55 00 80 F0 FF FF 7F F0  ..fdo2..U.......
17E0: FF FF 7F 66 64 6F 32 7B  F0 FF FF 7F 92 01 F0 FF  ...fdo2{........
17F0: FF 7F 37 39 80 3A 80 24  80 3B 80 02 19 00 04 80  ..79.:.$.;......
1800: 04 14 18 02 19 00 0E 80  05 14 18 37 51 80 52 80  ...........7Q.R.
1810: 53 80 54 80 02 19 00 0D  80 00 25 18 37 51 80 52  S.T.......%.7Q.R
1820: 80 53 80 54 80 6C F0 FF  FF 7F 01 80 01 80 1C 1D  .S.T.l..........
1830: 80 62 02 80 F0 FF FF 7F  F0 FF FF 7F 6D 61 69 6E  .b..........main
1840: 01 80 46 00 45 00 80 F0  FF FF 7F F0 FF FF 7F 66  ..F.E..........f
1850: 64 69 31 01 80 55 00 80  F0 FF FF 7F F0 FF FF 7F  di1..U..........
1860: 66 64 69 31 1B 38 12 80  27 10 45 31 0B 01 04 27  fdi1.8..'.E1...'
1870: 10 46 31 0B 01 04 27 10  47 31 0B 01 04 27 10 48  .F1...'.G1...'.H
1880: 31 0B 01 04 27 10 49 31  0B 01 04 92 01 45 31 0B  1...'.I1.....E1.
1890: 01 92 01 46 31 0B 01 92  01 47 31 0B 01 92 01 48  ...F1....G1....H
18A0: 31 0B 01 92 01 49 31 0B  01 94 01 F0 FF FF 7F 94  1....I1.........
18B0: 01 45 31 0B 01 94 01 46  31 0B 01 94 01 47 31 0B  .E1....F1....G1.
18C0: 01 94 01 48 31 0B 01 94  01 49 31 0B 01 80 F0 FF  ...H1....I1.....
18D0: FF 7F 80 45 31 0B 01 80  46 31 0B 01 80 47 31 0B  ...E1...F1...G1.
18E0: 01 80 48 31 0B 01 80 49  31 0B 01 BA 45 31 0B 01  ..H1...I1...E1..
18F0: C6 80 C7 80 A1 80 C8 80  BA 46 31 0B 01 C9 80 CA  .........F1.....
1900: 80 A1 80 CB 80 BA 47 31  0B 01 CC 80 CD 80 A1 80  ......G1........
1910: CE 80 BA 48 31 0B 01 CF  80 D0 80 A1 80 D1 80 BA  ...H1...........
1920: 49 31 0B 01 D2 80 D3 80  A1 80 D4 80 1C 07 80 5B  I1.............[
1930: D5 80 45 31 0B 01 45 31  0B 01 72 62 30 32 5B D6  ..E1..E1..rb02[.
1940: 80 46 31 0B 01 46 31 0B  01 67 64 30 32 5B AD 80  .F1..F1..gd02[..
1950: 47 31 0B 01 47 31 0B 01  77 61 72 32 5B D7 80 49  G1..G1..war2[..I
1960: 31 0B 01 49 31 0B 01 77  61 72 30 7C 00 48 31 0B  1..I1..war0|.H1.
1970: 01 5B D8 80 48 31 0B 01  48 31 0B 01 67 61 68 30  .[..H1..H1..gah0
1980: 1C 06 80 5B D7 80 49 31  0B 01 49 31 0B 01 73 70  ...[..I1..I1..sp
1990: 6C 61 5C 00 D9 80 5C 01  D9 80 9A 45 AF 80 F0 FF  la\...\....E....
19A0: FF 7F F0 FF FF 7F 77 69  30 30 01 80 1A DE 1D 2B  ......wi00.....+
19B0: 46 31 0B 01 DA 80 55 AF  80 F0 FF FF 7F F0 FF FF  F1....U.........
19C0: 7F 77 69 30 30 45 AF 80  F0 FF FF 7F F0 FF FF 7F  .wi00E..........
19D0: 77 69 30 31 01 80 2B 48  31 0B 01 DB 80 55 AF 80  wi01..+H1....U..
19E0: F0 FF FF 7F F0 FF FF 7F  77 69 30 31 45 AF 80 F0  ........wi01E...
19F0: FF FF 7F F0 FF FF 7F 77  69 30 32 01 80 2B 47 31  .......wi02..+G1
1A00: 0B 01 DC 80 55 AF 80 F0  FF FF 7F F0 FF FF 7F 77  ....U..........w
1A10: 69 30 32 45 AF 80 F0 FF  FF 7F F0 FF FF 7F 77 69  i02E..........wi
1A20: 30 33 01 80 2B 49 31 0B  01 DD 80 55 AF 80 F0 FF  03..+I1....U....
1A30: FF 7F F0 FF FF 7F 77 69  30 33 45 AF 80 F0 FF FF  ......wi03E.....
1A40: 7F F0 FF FF 7F 77 69 30  34 01 80 5D 01 80 3C 80  .....wi04..]..<.
1A50: 2B 45 31 0B 01 DE 80 55  AF 80 F0 FF FF 7F F0 FF  +E1....U........
1A60: FF 7F 77 69 30 34 1A FF  1D 1C 2D 80 4E 00 F1 FF  ..wi04....-.N...
1A70: FF 7F 4E 00 F2 FF FF 7F  4E 00 F3 FF FF 7F 4E 00  ..N.....N.....N.
1A80: F4 FF FF 7F 4E 00 F5 FF  FF 7F 94 01 F1 FF FF 7F  ....N...........
1A90: 94 01 F2 FF FF 7F 94 01  F3 FF FF 7F 94 01 F4 FF  ................
1AA0: FF 7F 94 01 F5 FF FF 7F  BA 45 31 0B 01 DF 80 E0  .........E1.....
1AB0: 80 A1 80 E1 80 BA 46 31  0B 01 E2 80 E3 80 A1 80  ......F1........
1AC0: E4 80 BA 47 31 0B 01 E5  80 E6 80 A1 80 E7 80 BA  ...G1...........
1AD0: 48 31 0B 01 E8 80 E9 80  A1 80 EA 80 BA 49 31 0B  H1...........I1.
1AE0: 01 EB 80 EC 80 A1 80 ED  80 BA F0 FF FF 7F EE 80  ................
1AF0: EF 80 A1 80 D1 80 BA F1  FF FF 7F F0 80 F1 80 A1  ................
1B00: 80 D1 80 BA F2 FF FF 7F  F2 80 F3 80 A1 80 D1 80  ................
1B10: BA F3 FF FF 7F F4 80 F5  80 A1 80 D1 80 BA F4 FF  ................
1B20: FF 7F F6 80 F7 80 A1 80  D1 80 BA F5 FF FF 7F F8  ................
1B30: 80 F9 80 A1 80 D1 80 5B  AA 80 45 31 0B 01 45 31  .......[..E1..E1
1B40: 0B 01 73 70 6C 62 5B FA  80 46 31 0B 01 46 31 0B  ..splb[..F1..F1.
1B50: 01 73 70 6C 62 5B AD 80  47 31 0B 01 47 31 0B 01  .splb[..G1..G1..
1B60: 73 70 6C 61 5B D7 80 49  31 0B 01 49 31 0B 01 73  spla[..I1..I1..s
1B70: 70 6C 62 5B AC 80 48 31  0B 01 48 31 0B 01 77 61  plb[..H1..H1..wa
1B80: 72 30 27 10 F0 FF FF 7F  0C 27 10 F1 FF FF 7F 03  r0'......'......
1B90: 27 10 F2 FF FF 7F 03 1C  9F 80 48 FB 80 23 45 AF  '.........H..#E.
1BA0: 80 F0 FF FF 7F F0 FF FF  7F 31 67 6F 6A 01 80 1A  .........1goj...
1BB0: DE 1D 1C 65 80 1A FF 1D  1C 2D 80 45 AF 80 F0 FF  ...e.....-.E....
1BC0: FF 7F F0 FF FF 7F 30 62  6C 66 01 80 6B 69 64 6C  ......0blf..kidl
1BD0: 30 F0 FF FF 7F 6B 69 64  6C 30 F1 FF FF 7F 6B 69  0....kidl0....ki
1BE0: 64 6C 30 F2 FF FF 7F 4E  01 45 31 0B 01 4E 01 46  dl0....N.E1..N.F
1BF0: 31 0B 01 4E 01 47 31 0B  01 4E 01 48 31 0B 01 4E  1..N.G1..N.H1..N
1C00: 01 49 31 0B 01 1B 24 FC  80 04 80 01 80 25 02 00  .I1...$......%..
1C10: 10 01 80 00 1C 1C 05 1D  00 01 1C 1C 1B 05 1E 00  ................
1C20: 1B 46 01 45 FD 80 F0 FF  FF 7F F0 FF FF 7F 79 30  .F.E..........y0
1C30: 32 31 01 80 55 FD 80 F0  FF FF 7F F0 FF FF 7F 79  21..U..........y
1C40: 30 32 31 37 01 80 FE 80  9B 80 FF 80 45 00 80 F0  0217........E...
1C50: FF FF 7F F0 FF FF 7F 66  64 69 31 01 80 55 00 80  .......fdi1..U..
1C60: F0 FF FF 7F F0 FF FF 7F  66 64 69 31 27 03 30 31  ........fdi1'.01
1C70: 0B 01 02 1C 9F 80 32 00  81 31 00 01 80 01 81 9B  ......2..1......
1C80: 80 02 81 31 01 2A 03 30  31 0B 01 45 FD 80 F0 FF  ...1.*.01..E....
1C90: FF 7F F0 FF FF 7F 79 30  32 32 01 80 55 FD 80 F0  ......y022..U...
1CA0: FF FF 7F F0 FF FF 7F 79  30 32 32 37 51 80 52 80  .......y0227Q.R.
1CB0: 53 80 54 80 62 02 80 F0  FF FF 7F F0 FF FF 7F 6D  S.T.b..........m
1CC0: 61 69 6E 01 80 46 00 45  00 80 F0 FF FF 7F F0 FF  ain..F.E........
1CD0: FF 7F 66 64 69 31 01 80  1B 62 04 80 F0 FF FF 7F  ..fdi1...b......
1CE0: F0 FF FF 7F 6D 61 69 6E  01 80 1C C5 80 45 00 80  ....main.....E..
1CF0: F0 FF FF 7F F0 FF FF 7F  66 64 6F 31 01 80 55 00  ........fdo1..U.
1D00: 80 F0 FF FF 7F F0 FF FF  7F 66 64 6F 31 46 01 45  .........fdo1F.E
1D10: FD 80 F0 FF FF 7F F0 FF  FF 7F 79 30 32 32 01 80  ..........y022..
1D20: 55 FD 80 F0 FF FF 7F F0  FF FF 7F 79 30 32 32 37  U..........y0227
1D30: 51 80 52 80 53 80 54 80  62 02 80 F0 FF FF 7F F0  Q.R.S.T.b.......
1D40: FF FF 7F 6D 61 69 6E 01  80 45 00 80 F0 FF FF 7F  ...main..E......
1D50: F0 FF FF 7F 66 64 69 31  01 80 55 00 80 F0 FF FF  ....fdi1..U.....
1D60: 7F F0 FF FF 7F 66 64 69  31 46 00 1B 02 03 00 01  .....fdi1F......
1D70: 80 80 77 1D 01 9B 1D 02  03 00 1C 80 80 9B 1D 03  ..w.............
1D80: 08 17 03 81 03 09 17 04  81 03 0A 17 05 81 03 0B  ................
1D90: 17 06 81 03 0C 17 07 81  01 9B 1D 1B 45 00 80 F0  ............E...
1DA0: FF FF 7F F0 FF FF 7F 66  64 69 30 01 80 55 00 80  .......fdi0..U..
1DB0: F0 FF FF 7F F0 FF FF 7F  66 64 69 30 1B 45 00 80  ........fdi0.E..
1DC0: F0 FF FF 7F F0 FF FF 7F  66 64 6F 30 01 80 55 00  ........fdo0..U.
1DD0: 80 F0 FF FF 7F F0 FF FF  7F 66 64 6F 30 1B 45 00  .........fdo0.E.
1DE0: 80 F0 FF FF 7F F0 FF FF  7F 66 64 69 31 01 80 55  .........fdi1..U
1DF0: 00 80 F0 FF FF 7F F0 FF  FF 7F 66 64 69 31 1B 45  ..........fdi1.E
1E00: 00 80 F0 FF FF 7F F0 FF  FF 7F 66 64 6F 31 01 80  ..........fdo1..
1E10: 55 00 80 F0 FF FF 7F F0  FF FF 7F 66 64 6F 31 1B  U..........fdo1.
1E20: 45 38 80 F0 FF FF 7F F0  FF FF 7F 77 68 69 31 01  E8.........whi1.
1E30: 80 55 38 80 F0 FF FF 7F  F0 FF FF 7F 77 68 69 31  .U8.........whi1
1E40: 1B 45 38 80 F0 FF FF 7F  F0 FF FF 7F 77 68 6F 31  .E8.........who1
1E50: 01 80 55 38 80 F0 FF FF  7F F0 FF FF 7F 77 68 6F  ..U8.........who
1E60: 31 1B 45 38 80 F0 FF FF  7F F0 FF FF 7F 77 68 6F  1.E8.........who
1E70: 32 01 80 55 38 80 F0 FF  FF 7F F0 FF FF 7F 77 68  2..U8.........wh
1E80: 6F 32 1B 45 38 80 F0 FF  FF 7F F0 FF FF 7F 77 68  o2.E8.........wh
1E90: 6F 33 01 80 55 38 80 F0  FF FF 7F F0 FF FF 7F 77  o3..U8.........w
1EA0: 68 6F 33 1B 62 04 80 F0  FF FF 7F F0 FF FF 7F 6D  ho3.b..........m
1EB0: 61 69 6E 01 80 1C C5 80  45 00 80 F0 FF FF 7F F0  ain.....E.......
1EC0: FF FF 7F 66 64 6F 31 01  80 55 00 80 F0 FF FF 7F  ...fdo1..U......
1ED0: F0 FF FF 7F 66 64 6F 31  1B 45 00 80 F0 FF FF 7F  ....fdo1.E......
1EE0: F0 FF FF 7F 66 64 69 31  01 80 62 02 80 F0 FF FF  ....fdi1..b.....
1EF0: 7F F0 FF FF 7F 6D 61 69  6E 01 80 1C 2D 80 55 00  .....main...-.U.
1F00: 80 F0 FF FF 7F F0 FF FF  7F 66 64 69 31 1B 45 00  .........fdi1.E.
1F10: 80 F0 FF FF 7F F0 FF FF  7F 62 6C 6F 6E 01 80 45  .........blon..E
1F20: 38 80 F0 FF FF 7F F0 FF  FF 7F 62 6C 6F 6E 01 80  8.........blon..
1F30: 1B 45 38 80 F0 FF FF 7F  F0 FF FF 7F 77 68 69 30  .E8.........whi0
1F40: 01 80 55 38 80 F0 FF FF  7F F0 FF FF 7F 77 68 69  ..U8.........whi
1F50: 30 1B 45 38 80 F0 FF FF  7F F0 FF FF 7F 77 68 6F  0.E8.........who
1F60: 30 01 80 55 38 80 F0 FF  FF 7F F0 FF FF 7F 77 68  0..U8.........wh
1F70: 6F 30 1B 45 08 81 F0 FF  FF 7F F0 FF FF 7F 65 66  o0.E..........ef
1F80: 6F 6E 01 80 55 08 81 F0  FF FF 7F F0 FF FF 7F 65  on..U..........e
1F90: 66 6F 6E 1B 45 00 80 F0  FF FF 7F F0 FF FF 7F 66  fon.E..........f
1FA0: 64 69 73 01 80 1B 45 00  80 F0 FF FF 7F F0 FF FF  dis...E.........
1FB0: 7F 66 64 6F 73 01 80 55  00 80 F0 FF FF 7F F0 FF  .fdos..U........
1FC0: FF 7F 66 64 6F 73 1B 45  00 80 F0 FF FF 7F F0 FF  ..fdos.E........
1FD0: FF 7F 66 64 69 66 01 80  1B 45 00 80 F0 FF FF 7F  ..fdif...E......
1FE0: F0 FF FF 7F 66 64 6F 66  01 80 55 00 80 F0 FF FF  ....fdof..U.....
1FF0: 7F F0 FF FF 7F 66 64 6F  66 1B 45 00 80 F0 FF FF  .....fdof.E.....
2000: 7F F0 FF FF 7F 66 64 69  70 01 80 1B 45 00 80 F0  .....fdip...E...
2010: FF FF 7F F0 FF FF 7F 66  64 6F 70 01 80 55 00 80  .......fdop..U..
2020: F0 FF FF 7F F0 FF FF 7F  66 64 6F 70 1B 45 09 81  ........fdop.E..
2030: F0 FF FF 7F F0 FF FF 7F  77 68 6F 30 01 80 55 09  ........who0..U.
2040: 81 F0 FF FF 7F F0 FF FF  7F 77 68 6F 30 1B 02 00  .........who0...
2050: 00 04 80 80 6D 20 03 09  00 01 80 03 0A 00 9A 80  ....m ..........
2060: 03 0B 00 9B 80 03 0C 00  3B 80 01 CA 20 02 00 00  ........;... ...
2070: 02 80 80 8C 20 03 09 00  01 80 03 0A 00 9C 80 03  .... ...........
2080: 0B 00 01 80 03 0C 00 3B  80 01 CA 20 02 00 00 0E  .......;... ....
2090: 80 80 AB 20 03 09 00 01  80 03 0A 00 9D 80 03 0B  ... ............
20A0: 00 9E 80 03 0C 00 3B 80  01 CA 20 02 00 00 0F 80  ......;... .....
20B0: 80 CA 20 03 09 00 01 80  03 0A 00 01 80 03 0B 00  .. .............
20C0: 01 80 03 0C 00 01 80 01  CA 20 1B                 ......... .     
```

#### Opcodes

```
  0: 0x0F5F [0x06] ExtData[1]->WorkLocal[29] = 0
  1: 0x0F62 [0x06] ExtData[1]->WorkLocal[30] = 0
  2: 0x0F65 [0x03] ExtData[1]->WorkLocal[33] = Work_Zone[6]
  3: 0x0F6A [0x03] ExtData[1]->WorkLocal[32] = Work_Zone[7]
  4: 0x0F6F [0x03] ExtData[1]->WorkLocal[31] = Work_Zone[8]
  5: 0x0F74 [0x06] Work_Zone[1] = 0
  6: 0x0F77 [0x1A] CALL_SUBROUTINE(address=0x1C06)
  7: 0x0F7A [0x02] IF !(ExtData[1]->WorkLocal[29] == 1*) GOTO 0x1110
  8: 0x0F82 [0x42] SET_CLI_EVENT_CANCEL_DATA()
  9: 0x0F83 [0x03] Work_Zone[1] = 2*
 10: 0x0F88 [0x43] SEND_EVENT_UPDATE: Send pending tag to server (packet 0x005B)
 11: 0x0F8A [0x43] SEND_EVENT_UPDATE: Check pending flag (skip if not pending)
 12: 0x0F8C [0x03] Work_Zone[1] = 3*
 13: 0x0F91 [0x43] SEND_EVENT_UPDATE: Send pending tag to server (packet 0x005B)
 14: 0x0F93 [0x43] SEND_EVENT_UPDATE: Check pending flag (skip if not pending)
 15: 0x0F95 [0x1A] CALL_SUBROUTINE(address=0x1C1D)
 16: 0x0F98 [0x02] IF !(ExtData[1]->WorkLocal[30] == 1*) GOTO 0x1110
 17: 0x0FA0 [0x45] LOAD_SCHEDULED_TASK: Load scheduler "fdo1" with entities [LocalPlayer, LocalPlayer], work=[200*, 0*]
 18: 0x0FB1 [0x55] WAIT_LOAD_SCHEDULER: Wait for scheduler "fdo1" with entities [LocalPlayer, LocalPlayer], work=200*
 19: 0x0FC0 [0x03] Work_Zone[1] = 4*
 20: 0x0FC5 [0x02] IF !(ExtData[1]->WorkLocal[32] == 180*) GOTO 0x104F
 21: 0x0FCD [0x02] IF !(ExtData[1]->WorkLocal[33] == 0*) GOTO 0x0FE4
 22: 0x0FD5 [0x47] UPDATE_PLAYER_POS(-605.141*, 479.929*, -22.681*, yaw=87.2°*)
 23: 0x0FDF [0x47] WAIT_PLAYER_POS_UPDATE
 24: 0x0FE1 [0x01] GOTO 0x104C
 25: 0x0FE4 [0x02] IF !(ExtData[1]->WorkLocal[33] == 1*) GOTO 0x0FFB
 26: 0x0FEC [0x47] UPDATE_PLAYER_POS(-262.589*, 377.857*, -137.313*, yaw=305.3°*)
 27: 0x0FF6 [0x47] WAIT_PLAYER_POS_UPDATE
 28: 0x0FF8 [0x01] GOTO 0x104C
 29: 0x0FFB [0x02] IF !(ExtData[1]->WorkLocal[33] == 2*) GOTO 0x1012
 30: 0x1003 [0x47] UPDATE_PLAYER_POS(18.348*, 486.940*, -224.334*, yaw=17.1°*)
