# Event 65535

## Metadata

| Field           | Value    |
|-----------------|----------|
| Event Index     | 9/26     |
| Offset          | 0x003E   |
| Data Size       | 46 bytes |
| Calculated Size | 46 bytes |
| Instructions    | 7        |

```
      00 01 02 03 04 05 06 07  08 09 0A 0B 0C 0D 0E 0F
      -- -- -- -- -- -- -- --  -- -- -- -- -- -- -- --
0030:                                            33 01                3.
0040: 1F 00 0B 80 0C 80 0D 80  1F 01 6F 62 0E 80 1A E2  ..........ob....
0050: 05 01 1A E2 05 01 6D 61  69 6E 0F 80 A0 0E 80 1A  ......main......
0060: E2 05 01 1A E2 05 01 6D  61 69 6E 00              .......main.    
```

## Opcodes

```
  0: 0x003E [0x33] EventEntity->Render.Flags0 |= 0x200000 // Bit 21 (flag=0x01)
  1: 0x0040 [0x1F] MOVE_ENTITY: EventEntity moves to X=27.820*, Z=68.740*, Y=-61.500*
  2: 0x0048 [0x1F] MOVE_ENTITY: Update entity position (mode=1)
  3: 0x004A [0x6F] WAIT_FRAME_DELAY: Yield until WaitTime reaches zero
  4: 0x004B [0x62] LOAD_EVENT_SCHEDULER (arg=5012): Load scheduler "main" with entities [Star Sibyl (ID: 17162778/0x0105E21A), Star Sibyl (ID: 17162778/0x0105E21A)], work=[1*, 0*]
  5: 0x005C [0xA0] WAIT_LOAD_SCHEDULER_MAIN_ALT2: Wait for scheduler "main" with entities [Star Sibyl (ID: 17162778/0x0105E21A), Star Sibyl (ID: 17162778/0x0105E21A)], work=1*
  6: 0x006B [0x00] END_REQSTACK()
```
