# Event 65535

## Metadata

| Field           | Value    |
|-----------------|----------|
| Event Index     | 14/26    |
| Offset          | 0x01B3   |
| Data Size       | 93 bytes |
| Calculated Size | 93 bytes |
| Instructions    | 9        |

```
      00 01 02 03 04 05 06 07  08 09 0A 0B 0C 0D 0E 0F
      -- -- -- -- -- -- -- --  -- -- -- -- -- -- -- --
01B0:          45 18 80 F0 FF  FF 7F F0 FF FF 7F 73 30     E..........s0
01C0: 37 38 01 80 1C 19 80 62  12 80 F0 91 09 01 F0 91  78.....b........
01D0: 09 01 6D 61 69 31 01 80  62 12 80 EF 91 09 01 EF  ..mai1..b.......
01E0: 91 09 01 6D 61 69 31 01  80 1C 1A 80 45 00 80 F8  ...mai1.....E...
01F0: FF FF 7F F8 FF FF 7F 66  64 6F 31 01 80 1C 19 80  .......fdo1.....
0200: 52 18 80 F0 FF FF 7F F0  FF FF 7F 73 30 37 38 00  R..........s078.
```

## Opcodes

```
  0: 0x01B3 [0x45] LOAD_SCHEDULED_TASK: Load scheduler "s078" with entities [LocalPlayer, LocalPlayer], work=[251*, 0*]
  1: 0x01C4 [0x1C] WAIT(60* ticks)
  2: 0x01C7 [0x62] LOAD_EVENT_SCHEDULER: Load scheduler "mai1" with entities [Spare Two (ID: 17404400/0x010991F0), Spare Two (ID: 17404400/0x010991F0)], work=[13*, 0*]
  3: 0x01D8 [0x62] LOAD_EVENT_SCHEDULER: Load scheduler "mai1" with entities [Spare Zero (ID: 17404399/0x010991EF), Spare Zero (ID: 17404399/0x010991EF)], work=[13*, 0*]
  4: 0x01E9 [0x1C] WAIT(180* ticks)
  5: 0x01EC [0x45] LOAD_SCHEDULED_TASK: Load scheduler "fdo1" with entities [EventEntity, EventEntity], work=[200*, 0*]
  6: 0x01FD [0x1C] WAIT(60* ticks)
  7: 0x0200 [0x52] END_LOAD_SCHEDULER: End scheduler "s078" with entities [LocalPlayer, LocalPlayer], work=251*
  8: 0x020F [0x00] END_REQSTACK()
```
