# Event 65535

## Metadata

| Field           | Value    |
|-----------------|----------|
| Event Index     | 59/149   |
| Offset          | 0x26C8   |
| Data Size       | 57 bytes |
| Calculated Size | 57 bytes |
| Instructions    | 11       |

```
      00 01 02 03 04 05 06 07  08 09 0A 0B 0C 0D 0E 0F
      -- -- -- -- -- -- -- --  -- -- -- -- -- -- -- --
26C0:                          4E 01 44 10 0F 01 2F 01          N.D.../.
26D0: 44 10 0F 01 4E 01 45 10  0F 01 2F 01 45 10 0F 01  D...N.E.../.E...
26E0: 4E 01 46 10 0F 01 2F 01  46 10 0F 01 4E 01 47 10  N.F.../.F...N.G.
26F0: 0F 01 2F 01 47 10 0F 01  29 05 43 10 0F 01 03 78  ../.G...).C....x
2700: 00                                                .               
```

## Opcodes

```
  0: 0x26C8 [0x4E] SET_ENTITY_HIDE_FLAG: Hide Unnamed NPC (ID: 17764420/0x010F1044)
  1: 0x26CE [0x2F] Unnamed NPC (ID: 17764420/0x010F1044)->Render.Flags0 |= 0x80000 // Bit 19
  2: 0x26D4 [0x4E] SET_ENTITY_HIDE_FLAG: Hide Unnamed NPC (ID: 17764421/0x010F1045)
  3: 0x26DA [0x2F] Unnamed NPC (ID: 17764421/0x010F1045)->Render.Flags0 |= 0x80000 // Bit 19
  4: 0x26E0 [0x4E] SET_ENTITY_HIDE_FLAG: Hide Unnamed NPC (ID: 17764422/0x010F1046)
  5: 0x26E6 [0x2F] Unnamed NPC (ID: 17764422/0x010F1046)->Render.Flags0 |= 0x80000 // Bit 19
  6: 0x26EC [0x4E] SET_ENTITY_HIDE_FLAG: Hide Unnamed NPC (ID: 17764423/0x010F1047)
  7: 0x26F2 [0x2F] Unnamed NPC (ID: 17764423/0x010F1047)->Render.Flags0 |= 0x80000 // Bit 19
  8: 0x26F8 [0x29] REQ_SET_WAIT(priority=0x05, entity_id=Pulonono (ID: 17764419/0x010F1043), tag_num=0x03)
  9: 0x26FF [0x78] ENABLE_GAME_TIMER_RESET_WEATHER()
 10: 0x2700 [0x00] END_REQSTACK()
```
