# Event 65535

## Metadata

| Field           | Value    |
|-----------------|----------|
| Event Index     | 135/149  |
| Offset          | 0x3838   |
| Data Size       | 66 bytes |
| Calculated Size | 66 bytes |
| Instructions    | 11       |

```
      00 01 02 03 04 05 06 07  08 09 0A 0B 0C 0D 0E 0F
      -- -- -- -- -- -- -- --  -- -- -- -- -- -- -- --
3830:                          1A 8D 3C 1A 52 3B 02 4A          ..<.R;.J
3840: 10 12 80 00 6B 38 45 13  80 F8 FF FF 7F F8 FF FF  ....k8E.........
3850: 7F 73 32 31 35 08 80 1C  69 80 45 09 80 F8 FF FF  .s215...i.E.....
3860: 7F F8 FF FF 7F 66 64 69  31 08 80 1C 0D 80 2B 43  .....fdi1.....+C
3870: 10 0F 01 32 80 23 1A 98  3C 00                    ...2.#..<.      
```

## Opcodes

```
  0: 0x3838 [0x1A] CALL_SUBROUTINE(address=0x3C8D)
  1: 0x383B [0x1A] CALL_SUBROUTINE(address=0x3B52)
  2: 0x383E [0x02] IF !(Work_Zone[74] == 1*) GOTO 0x386B
  3: 0x3846 [0x45] LOAD_SCHEDULED_TASK(work_offset1=254*, entity1=EventEntity, entity2=EventEntity, scheduler_id="s215", work_offset2=0*)
  4: 0x3857 [0x1C] WAIT(15* ticks)
  5: 0x385A [0x45] LOAD_SCHEDULED_TASK(work_offset1=200*, entity1=EventEntity, entity2=EventEntity, scheduler_id="fdi1", work_offset2=0*)
  6: 0x386B [0x1C] WAIT(60* ticks)
  7: 0x386E [0x2B] Pulonono (ID: 17764419/0x010F1043) [11494*]:
    → "\u0001\u0005\u0004\u0002\u0000\u0000\u0000 seems to have a stronger stomach these days!\u007F1\u0000\u0007"
  8: 0x3875 [0x23] WAIT_FOR_DIALOG_INTERACTION
  9: 0x3876 [0x1A] CALL_SUBROUTINE(address=0x3C98)
 10: 0x3879 [0x00] END_REQSTACK()
```
