# Event 65535

## Metadata

| Field           | Value    |
|-----------------|----------|
| Event Index     | 51/149   |
| Offset          | 0x223E   |
| Data Size       | 75 bytes |
| Calculated Size | 75 bytes |
| Instructions    | 11       |

```
      00 01 02 03 04 05 06 07  08 09 0A 0B 0C 0D 0E 0F
      -- -- -- -- -- -- -- --  -- -- -- -- -- -- -- --
2230:                                            29 05                ).
2240: 44 10 0F 01 03 80 44 10  0F 01 29 05 43 10 0F 01  D.....D...).C...
2250: 06 45 21 80 F8 FF FF 7F  F8 FF FF 7F 73 31 37 30  .E!.........s170
2260: 08 80 1C 0D 80 45 09 80  F8 FF FF 7F F8 FF FF 7F  .....E..........
2270: 66 64 69 31 08 80 1C 0D  80 27 05 43 10 0F 01 07  fdi1.....'.C....
2280: 2B 43 10 0F 01 64 80 23  00                       +C...d.#.       
```

## Opcodes

```
  0: 0x223E [0x29] REQ_SET_WAIT(priority=0x05, entity_id=Unnamed NPC (ID: 17764420/0x010F1044), tag_num=0x03)
  1: 0x2245 [0x80] LOAD_WAIT(entity=Unnamed NPC (ID: 17764420/0x010F1044))
  2: 0x224A [0x29] REQ_SET_WAIT(priority=0x05, entity_id=Pulonono (ID: 17764419/0x010F1043), tag_num=0x06)
  3: 0x2251 [0x45] LOAD_SCHEDULED_TASK: Load scheduler "s170" with entities [EventEntity, EventEntity], work=[198*, 0*]
  4: 0x2262 [0x1C] WAIT(60* ticks)
  5: 0x2265 [0x45] LOAD_SCHEDULED_TASK: Load scheduler "fdi1" with entities [EventEntity, EventEntity], work=[200*, 0*]
  6: 0x2276 [0x1C] WAIT(60* ticks)
  7: 0x2279 [0x27] REQ_SET(priority=0x05, entity_id=Pulonono (ID: 17764419/0x010F1043), tag_num=0x07)
  8: 0x2280 [0x2B] Pulonono (ID: 17764419/0x010F1043) [11530*]:
    → "We've been taking good care of your egg. I can't wait to see how cute the chick will be!\u007F1\u0000\u0007"
  9: 0x2287 [0x23] WAIT_FOR_DIALOG_INTERACTION
 10: 0x2288 [0x00] END_REQSTACK()
```
