# Event 65535

## Metadata

| Field           | Value    |
|-----------------|----------|
| Event Index     | 97/149   |
| Offset          | 0x3221   |
| Data Size       | 66 bytes |
| Calculated Size | 66 bytes |
| Instructions    | 11       |

```
      00 01 02 03 04 05 06 07  08 09 0A 0B 0C 0D 0E 0F
      -- -- -- -- -- -- -- --  -- -- -- -- -- -- -- --
3220:    1A 8D 3C 1A 52 3B 02  4A 10 12 80 00 54 32 45   ..<.R;.J....T2E
3230: 13 80 F8 FF FF 7F F8 FF  FF 7F 73 32 31 35 08 80  ..........s215..
3240: 1C 69 80 45 09 80 F8 FF  FF 7F F8 FF FF 7F 66 64  .i.E..........fd
3250: 69 31 08 80 1C 0D 80 2B  43 10 0F 01 6B 80 23 1A  i1.....+C...k.#.
3260: 98 3C 00                                          .<.             
```

## Opcodes

```
  0: 0x3221 [0x1A] CALL_SUBROUTINE(address=0x3C8D)
  1: 0x3224 [0x1A] CALL_SUBROUTINE(address=0x3B52)
  2: 0x3227 [0x02] IF !(Work_Zone[74] == 1*) GOTO 0x3254
  3: 0x322F [0x45] LOAD_SCHEDULED_TASK(work_offset1=254*, entity1=EventEntity, entity2=EventEntity, scheduler_id="s215", work_offset2=0*)
  4: 0x3240 [0x1C] WAIT(15* ticks)
  5: 0x3243 [0x45] LOAD_SCHEDULED_TASK(work_offset1=200*, entity1=EventEntity, entity2=EventEntity, scheduler_id="fdi1", work_offset2=0*)
  6: 0x3254 [0x1C] WAIT(60* ticks)
  7: 0x3257 [0x2B] Pulonono (ID: 17764419/0x010F1043) [11536*]:
    → "I had your chocobo exercise with the other chocobos here. All that stimulation seems to have made it a bit more patient!\u007F1\u0000\u0007"
  8: 0x325E [0x23] WAIT_FOR_DIALOG_INTERACTION
  9: 0x325F [0x1A] CALL_SUBROUTINE(address=0x3C98)
 10: 0x3262 [0x00] END_REQSTACK()
```
