# Event 65535

## Metadata

| Field           | Value    |
|-----------------|----------|
| Event Index     | 132/149  |
| Offset          | 0x3772   |
| Data Size       | 66 bytes |
| Calculated Size | 66 bytes |
| Instructions    | 11       |

```
      00 01 02 03 04 05 06 07  08 09 0A 0B 0C 0D 0E 0F
      -- -- -- -- -- -- -- --  -- -- -- -- -- -- -- --
3770:       1A 8D 3C 1A 52 3B  02 4A 10 12 80 00 A8 37    ..<.R;.J.....7
3780: 45 13 80 F8 FF FF 7F F8  FF FF 7F 73 32 31 35 08  E..........s215.
3790: 80 1C 69 80 45 09 80 F8  FF FF 7F F8 FF FF 7F 66  ..i.E..........f
37A0: 64 69 31 08 80 1C 0D 80  2B 43 10 0F 01 AD 80 23  di1.....+C.....#
37B0: 1A 98 3C 00                                       ..<.            
```

## Opcodes

```
  0: 0x3772 [0x1A] CALL_SUBROUTINE(address=0x3C8D)
  1: 0x3775 [0x1A] CALL_SUBROUTINE(address=0x3B52)
  2: 0x3778 [0x02] IF !(Work_Zone[74] == 1*) GOTO 0x37A8
  3: 0x3780 [0x45] LOAD_SCHEDULED_TASK(work_offset1=254*, entity1=EventEntity, entity2=EventEntity, scheduler_id="s215", work_offset2=0*)
  4: 0x3791 [0x1C] WAIT(15* ticks)
  5: 0x3794 [0x45] LOAD_SCHEDULED_TASK(work_offset1=200*, entity1=EventEntity, entity2=EventEntity, scheduler_id="fdi1", work_offset2=0*)
  6: 0x37A5 [0x1C] WAIT(60* ticks)
  7: 0x37A8 [0x2B] Pulonono (ID: 17764419/0x010F1043) [11519*]:
    → "\u0001\u0005\u0004\u0002\u0000\u0000\u0000 seems unusually bright and focused today!\u0007Now's your chance to get in some rigorous mental training!\u007F1\u0000\u0007"
  8: 0x37AF [0x23] WAIT_FOR_DIALOG_INTERACTION
  9: 0x37B0 [0x1A] CALL_SUBROUTINE(address=0x3C98)
 10: 0x37B3 [0x00] END_REQSTACK()
```
