# Event 65535

## Metadata

| Field           | Value    |
|-----------------|----------|
| Event Index     | 96/149   |
| Offset          | 0x31DF   |
| Data Size       | 66 bytes |
| Calculated Size | 66 bytes |
| Instructions    | 11       |

```
      00 01 02 03 04 05 06 07  08 09 0A 0B 0C 0D 0E 0F
      -- -- -- -- -- -- -- --  -- -- -- -- -- -- -- --
31D0:                                               1A                 .
31E0: 8D 3C 1A 52 3B 02 4A 10  12 80 00 12 32 45 13 80  .<.R;.J.....2E..
31F0: F8 FF FF 7F F8 FF FF 7F  73 32 31 35 08 80 1C 69  ........s215...i
3200: 80 45 09 80 F8 FF FF 7F  F8 FF FF 7F 66 64 69 31  .E..........fdi1
3210: 08 80 1C 0D 80 2B 43 10  0F 01 68 80 23 1A 98 3C  .....+C...h.#..<
3220: 00                                                .               
```

## Opcodes

```
  0: 0x31DF [0x1A] CALL_SUBROUTINE(address=0x3C8D)
  1: 0x31E2 [0x1A] CALL_SUBROUTINE(address=0x3B52)
  2: 0x31E5 [0x02] IF !(Work_Zone[74] == 1*) GOTO 0x3212
  3: 0x31ED [0x45] LOAD_SCHEDULED_TASK: Load scheduler "s215" with entities [EventEntity, EventEntity], work=[254*, 0*]
  4: 0x31FE [0x1C] WAIT(15* ticks)
  5: 0x3201 [0x45] LOAD_SCHEDULED_TASK: Load scheduler "fdi1" with entities [EventEntity, EventEntity], work=[200*, 0*]
  6: 0x3212 [0x1C] WAIT(60* ticks)
  7: 0x3215 [0x2B] Pulonono (ID: 17764419/0x010F1043) [11535*]:
    → "\u0001\u0005\u0004\u0002\u0000\u0000\u0000 has had quite a workout! I'd say its speed has even improved a bit.\u007F1\u0000\u0007"
  8: 0x321C [0x23] WAIT_FOR_DIALOG_INTERACTION
  9: 0x321D [0x1A] CALL_SUBROUTINE(address=0x3C98)
 10: 0x3220 [0x00] END_REQSTACK()
```
