# Event 65535

## Metadata

| Field           | Value    |
|-----------------|----------|
| Event Index     | 72/149   |
| Offset          | 0x2A8F   |
| Data Size       | 53 bytes |
| Calculated Size | 53 bytes |
| Instructions    | 11       |

```
      00 01 02 03 04 05 06 07  08 09 0A 0B 0C 0D 0E 0F
      -- -- -- -- -- -- -- --  -- -- -- -- -- -- -- --
2A80:                                               29                 )
2A90: 05 4B 10 0F 01 0A 80 4B  10 0F 01 03 02 10 4B 80  .K.....K......K.
2AA0: 03 03 10 12 80 03 04 10  08 80 03 05 10 08 80 03  ................
2AB0: 06 10 12 80 03 07 10 08  80 03 08 10 08 80 03 09  ................
2AC0: 10 08 80 00                                       ....            
```

## Opcodes

```
  0: 0x2A8F [0x29] REQ_SET_WAIT(priority=0x05, entity_id=Unnamed NPC (ID: 17764427/0x010F104B), tag_num=0x0A)
  1: 0x2A96 [0x80] LOAD_WAIT(entity=Unnamed NPC (ID: 17764427/0x010F104B))
  2: 0x2A9B [0x03] Work_Zone[2] = 3*
  3: 0x2AA0 [0x03] Work_Zone[3] = 1*
  4: 0x2AA5 [0x03] Work_Zone[4] = 0*
  5: 0x2AAA [0x03] Work_Zone[5] = 0*
  6: 0x2AAF [0x03] Work_Zone[6] = 1*
  7: 0x2AB4 [0x03] Work_Zone[7] = 0*
  8: 0x2AB9 [0x03] Work_Zone[8] = 0*
  9: 0x2ABE [0x03] Work_Zone[9] = 0*
 10: 0x2AC3 [0x00] END_REQSTACK()
```
