# Event 65535

## Metadata

| Field           | Value    |
|-----------------|----------|
| Event Index     | 145/149  |
| Offset          | 0x3ACE   |
| Data Size       | 66 bytes |
| Calculated Size | 66 bytes |
| Instructions    | 11       |

```
      00 01 02 03 04 05 06 07  08 09 0A 0B 0C 0D 0E 0F
      -- -- -- -- -- -- -- --  -- -- -- -- -- -- -- --
3AC0:                                            1A 8D                ..
3AD0: 3C 1A 52 3B 02 4A 10 12  80 00 01 3B 45 13 80 F8  <.R;.J.....;E...
3AE0: FF FF 7F F8 FF FF 7F 73  32 31 35 08 80 1C 69 80  .......s215...i.
3AF0: 45 09 80 F8 FF FF 7F F8  FF FF 7F 66 64 69 31 08  E..........fdi1.
3B00: 80 1C 0D 80 2B 43 10 0F  01 38 80 23 1A 98 3C 00  ....+C...8.#..<.
```

## Opcodes

```
  0: 0x3ACE [0x1A] CALL_SUBROUTINE(address=0x3C8D)
  1: 0x3AD1 [0x1A] CALL_SUBROUTINE(address=0x3B52)
  2: 0x3AD4 [0x02] IF !(Work_Zone[74] == 1*) GOTO 0x3B01
  3: 0x3ADC [0x45] LOAD_SCHEDULED_TASK(work_offset1=254*, entity1=EventEntity, entity2=EventEntity, scheduler_id="s215", work_offset2=0*)
  4: 0x3AED [0x1C] WAIT(15* ticks)
  5: 0x3AF0 [0x45] LOAD_SCHEDULED_TASK(work_offset1=200*, entity1=EventEntity, entity2=EventEntity, scheduler_id="fdi1", work_offset2=0*)
  6: 0x3B01 [0x1C] WAIT(60* ticks)
  7: 0x3B04 [0x2B] Pulonono (ID: 17764419/0x010F1043) [11518*]:
    → "\u0001\u0005\u0004\u0002\u0000\u0000\u0000 has burned through that excess energy and calmed down a little.\u007F1\u0000\u0007"
  8: 0x3B0B [0x23] WAIT_FOR_DIALOG_INTERACTION
  9: 0x3B0C [0x1A] CALL_SUBROUTINE(address=0x3C98)
 10: 0x3B0F [0x00] END_REQSTACK()
```
