# Event 65535

## Metadata

| Field           | Value    |
|-----------------|----------|
| Event Index     | 136/149  |
| Offset          | 0x387A   |
| Data Size       | 66 bytes |
| Calculated Size | 66 bytes |
| Instructions    | 11       |

```
      00 01 02 03 04 05 06 07  08 09 0A 0B 0C 0D 0E 0F
      -- -- -- -- -- -- -- --  -- -- -- -- -- -- -- --
3870:                                1A 8D 3C 1A 52 3B            ..<.R;
3880: 02 4A 10 12 80 00 AD 38  45 13 80 F8 FF FF 7F F8  .J.....8E.......
3890: FF FF 7F 73 32 31 35 08  80 1C 69 80 45 09 80 F8  ...s215...i.E...
38A0: FF FF 7F F8 FF FF 7F 66  64 69 31 08 80 1C 0D 80  .......fdi1.....
38B0: 2B 43 10 0F 01 33 80 23  1A 98 3C 00              +C...3.#..<.    
```

## Opcodes

```
  0: 0x387A [0x1A] CALL_SUBROUTINE(address=0x3C8D)
  1: 0x387D [0x1A] CALL_SUBROUTINE(address=0x3B52)
  2: 0x3880 [0x02] IF !(Work_Zone[74] == 1*) GOTO 0x38AD
  3: 0x3888 [0x45] LOAD_SCHEDULED_TASK(work_offset1=254*, entity1=EventEntity, entity2=EventEntity, scheduler_id="s215", work_offset2=0*)
  4: 0x3899 [0x1C] WAIT(15* ticks)
  5: 0x389C [0x45] LOAD_SCHEDULED_TASK(work_offset1=200*, entity1=EventEntity, entity2=EventEntity, scheduler_id="fdi1", work_offset2=0*)
  6: 0x38AD [0x1C] WAIT(60* ticks)
  7: 0x38B0 [0x2B] Pulonono (ID: 17764419/0x010F1043) [11496*]:
    → "\u0001\u0005\u0004\u0002\u0000\u0000\u0000 doesn't seem lonely anymore.\u007F1\u0000\u0007"
  8: 0x38B7 [0x23] WAIT_FOR_DIALOG_INTERACTION
  9: 0x38B8 [0x1A] CALL_SUBROUTINE(address=0x3C98)
 10: 0x38BB [0x00] END_REQSTACK()
```
