# Event 65535

## Metadata

| Field           | Value    |
|-----------------|----------|
| Event Index     | 91/149   |
| Offset          | 0x309B   |
| Data Size       | 60 bytes |
| Calculated Size | 60 bytes |
| Instructions    | 9        |

```
      00 01 02 03 04 05 06 07  08 09 0A 0B 0C 0D 0E 0F
      -- -- -- -- -- -- -- --  -- -- -- -- -- -- -- --
3090:                                   1A 52 3B 02 4A             .R;.J
30A0: 10 12 80 00 CE 30 45 13  80 F8 FF FF 7F F8 FF FF  .....0E.........
30B0: 7F 73 32 31 35 08 80 1C  69 80 45 09 80 F8 FF FF  .s215...i.E.....
30C0: 7F F8 FF FF 7F 66 64 69  31 08 80 1C 0D 80 2B 43  .....fdi1.....+C
30D0: 10 0F 01 64 80 23 00                              ...d.#.         
```

## Opcodes

```
  0: 0x309B [0x1A] CALL_SUBROUTINE(address=0x3B52)
  1: 0x309E [0x02] IF !(Work_Zone[74] == 1*) GOTO 0x30CE
  2: 0x30A6 [0x45] LOAD_SCHEDULED_TASK: Load scheduler "s215" with entities [EventEntity, EventEntity], work=[254*, 0*]
  3: 0x30B7 [0x1C] WAIT(15* ticks)
  4: 0x30BA [0x45] LOAD_SCHEDULED_TASK: Load scheduler "fdi1" with entities [EventEntity, EventEntity], work=[200*, 0*]
  5: 0x30CB [0x1C] WAIT(60* ticks)
  6: 0x30CE [0x2B] Pulonono (ID: 17764419/0x010F1043) [11530*]:
    → "We've been taking good care of your egg. I can't wait to see how cute the chick will be!\u007F1\u0000\u0007"
  7: 0x30D5 [0x23] WAIT_FOR_DIALOG_INTERACTION
  8: 0x30D6 [0x00] END_REQSTACK()
```
