# Event 65535

## Metadata

| Field           | Value    |
|-----------------|----------|
| Event Index     | 127/149  |
| Offset          | 0x3618   |
| Data Size       | 66 bytes |
| Calculated Size | 66 bytes |
| Instructions    | 11       |

```
      00 01 02 03 04 05 06 07  08 09 0A 0B 0C 0D 0E 0F
      -- -- -- -- -- -- -- --  -- -- -- -- -- -- -- --
3610:                          1A 8D 3C 1A 52 3B 02 4A          ..<.R;.J
3620: 10 12 80 00 4E 36 45 13  80 F8 FF FF 7F F8 FF FF  ....N6E.........
3630: 7F 73 32 31 35 08 80 1C  69 80 45 09 80 F8 FF FF  .s215...i.E.....
3640: 7F F8 FF FF 7F 66 64 69  31 08 80 1C 0D 80 2B 43  .....fdi1.....+C
3650: 10 0F 01 A9 80 23 1A 98  3C 00                    .....#..<.      
```

## Opcodes

```
  0: 0x3618 [0x1A] CALL_SUBROUTINE(address=0x3C8D)
  1: 0x361B [0x1A] CALL_SUBROUTINE(address=0x3B52)
  2: 0x361E [0x02] IF !(Work_Zone[74] == 1*) GOTO 0x364E
  3: 0x3626 [0x45] LOAD_SCHEDULED_TASK(work_offset1=254*, entity1=EventEntity, entity2=EventEntity, scheduler_id="s215", work_offset2=0*)
  4: 0x3637 [0x1C] WAIT(15* ticks)
  5: 0x363A [0x45] LOAD_SCHEDULED_TASK(work_offset1=200*, entity1=EventEntity, entity2=EventEntity, scheduler_id="fdi1", work_offset2=0*)
  6: 0x364B [0x1C] WAIT(60* ticks)
  7: 0x364E [0x2B] Pulonono (ID: 17764419/0x010F1043) [11505*]:
    → "\u0001\u0005\u0004\u0002\u0000\u0000\u0000 seems really bored! You should have it compete against other chocobos sometime.\u007F1\u0000\u0007"
  8: 0x3655 [0x23] WAIT_FOR_DIALOG_INTERACTION
  9: 0x3656 [0x1A] CALL_SUBROUTINE(address=0x3C98)
 10: 0x3659 [0x00] END_REQSTACK()
```
