# Event 65535

## Metadata

| Field           | Value    |
|-----------------|----------|
| Event Index     | 142/149  |
| Offset          | 0x3A06   |
| Data Size       | 66 bytes |
| Calculated Size | 66 bytes |
| Instructions    | 11       |

```
      00 01 02 03 04 05 06 07  08 09 0A 0B 0C 0D 0E 0F
      -- -- -- -- -- -- -- --  -- -- -- -- -- -- -- --
3A00:                   1A 8D  3C 1A 52 3B 02 4A 10 12        ..<.R;.J..
3A10: 80 00 39 3A 45 13 80 F8  FF FF 7F F8 FF FF 7F 73  ..9:E..........s
3A20: 32 31 35 08 80 1C 69 80  45 09 80 F8 FF FF 7F F8  215...i.E.......
3A30: FF FF 7F 66 64 69 31 08  80 1C 0D 80 2B 43 10 0F  ...fdi1.....+C..
3A40: 01 3E 80 23 1A 98 3C 00                           .>.#..<.        
```

## Opcodes

```
  0: 0x3A06 [0x1A] CALL_SUBROUTINE(address=0x3C8D)
  1: 0x3A09 [0x1A] CALL_SUBROUTINE(address=0x3B52)
  2: 0x3A0C [0x02] IF !(Work_Zone[74] == 1*) GOTO 0x3A39
  3: 0x3A14 [0x45] LOAD_SCHEDULED_TASK: Load scheduler "s215" with entities [EventEntity, EventEntity], work=[254*, 0*]
  4: 0x3A25 [0x1C] WAIT(15* ticks)
  5: 0x3A28 [0x45] LOAD_SCHEDULED_TASK: Load scheduler "fdi1" with entities [EventEntity, EventEntity], work=[200*, 0*]
  6: 0x3A39 [0x1C] WAIT(60* ticks)
  7: 0x3A3C [0x2B] Pulonono (ID: 17764419/0x010F1043) [11512*]:
    → "\u0001\u0005\u0004\u0002\u0000\u0000\u0000 is back, and it seems okay!\u007F1\u0000\u0007"
  8: 0x3A43 [0x23] WAIT_FOR_DIALOG_INTERACTION
  9: 0x3A44 [0x1A] CALL_SUBROUTINE(address=0x3C98)
 10: 0x3A47 [0x00] END_REQSTACK()
```
