# Event 65535

## Metadata

| Field           | Value    |
|-----------------|----------|
| Event Index     | 123/149  |
| Offset          | 0x350E   |
| Data Size       | 66 bytes |
| Calculated Size | 66 bytes |
| Instructions    | 11       |

```
      00 01 02 03 04 05 06 07  08 09 0A 0B 0C 0D 0E 0F
      -- -- -- -- -- -- -- --  -- -- -- -- -- -- -- --
3500:                                            1A 8D                ..
3510: 3C 1A 52 3B 02 4A 10 12  80 00 44 35 45 13 80 F8  <.R;.J....D5E...
3520: FF FF 7F F8 FF FF 7F 73  32 31 35 08 80 1C 69 80  .......s215...i.
3530: 45 09 80 F8 FF FF 7F F8  FF FF 7F 66 64 69 31 08  E..........fdi1.
3540: 80 1C 0D 80 2B 43 10 0F  01 A5 80 23 1A 98 3C 00  ....+C.....#..<.
```

## Opcodes

```
  0: 0x350E [0x1A] CALL_SUBROUTINE(address=0x3C8D)
  1: 0x3511 [0x1A] CALL_SUBROUTINE(address=0x3B52)
  2: 0x3514 [0x02] IF !(Work_Zone[74] == 1*) GOTO 0x3544
  3: 0x351C [0x45] LOAD_SCHEDULED_TASK: Load scheduler "s215" with entities [EventEntity, EventEntity], work=[254*, 0*]
  4: 0x352D [0x1C] WAIT(15* ticks)
  5: 0x3530 [0x45] LOAD_SCHEDULED_TASK: Load scheduler "fdi1" with entities [EventEntity, EventEntity], work=[200*, 0*]
  6: 0x3541 [0x1C] WAIT(60* ticks)
  7: 0x3544 [0x2B] Pulonono (ID: 17764419/0x010F1043) [11495*]:
    → "\u0001\u0005\u0004\u0002\u0000\u0000\u0000 seems lonely. You should go out with it sometime.\u007F1\u0000\u0007"
  8: 0x354B [0x23] WAIT_FOR_DIALOG_INTERACTION
  9: 0x354C [0x1A] CALL_SUBROUTINE(address=0x3C98)
 10: 0x354F [0x00] END_REQSTACK()
```
