# Event 65535

## Metadata

| Field           | Value    |
|-----------------|----------|
| Event Index     | 138/149  |
| Offset          | 0x38FE   |
| Data Size       | 66 bytes |
| Calculated Size | 66 bytes |
| Instructions    | 11       |

```
      00 01 02 03 04 05 06 07  08 09 0A 0B 0C 0D 0E 0F
      -- -- -- -- -- -- -- --  -- -- -- -- -- -- -- --
38F0:                                            1A 8D                ..
3900: 3C 1A 52 3B 02 4A 10 12  80 00 31 39 45 13 80 F8  <.R;.J....19E...
3910: FF FF 7F F8 FF FF 7F 73  32 31 35 08 80 1C 69 80  .......s215...i.
3920: 45 09 80 F8 FF FF 7F F8  FF FF 7F 66 64 69 31 08  E..........fdi1.
3930: 80 1C 0D 80 2B 43 10 0F  01 3A 80 23 1A 98 3C 00  ....+C...:.#..<.
```

## Opcodes

```
  0: 0x38FE [0x1A] CALL_SUBROUTINE(address=0x3C8D)
  1: 0x3901 [0x1A] CALL_SUBROUTINE(address=0x3B52)
  2: 0x3904 [0x02] IF !(Work_Zone[74] == 1*) GOTO 0x3931
  3: 0x390C [0x45] LOAD_SCHEDULED_TASK(work_offset1=254*, entity1=EventEntity, entity2=EventEntity, scheduler_id="s215", work_offset2=0*)
  4: 0x391D [0x1C] WAIT(15* ticks)
  5: 0x3920 [0x45] LOAD_SCHEDULED_TASK(work_offset1=200*, entity1=EventEntity, entity2=EventEntity, scheduler_id="fdi1", work_offset2=0*)
  6: 0x3931 [0x1C] WAIT(60* ticks)
  7: 0x3934 [0x2B] Pulonono (ID: 17764419/0x010F1043) [11502*]:
    → "Wow...\u0001\u0005\u0004\u0002\u0000\u0000\u0000 has been waking up every morning lately!\u007F1\u0000\u0007"
  8: 0x393B [0x23] WAIT_FOR_DIALOG_INTERACTION
  9: 0x393C [0x1A] CALL_SUBROUTINE(address=0x3C98)
 10: 0x393F [0x00] END_REQSTACK()
```
