# Event 65535

## Metadata

| Field           | Value    |
|-----------------|----------|
| Event Index     | 143/149  |
| Offset          | 0x3A48   |
| Data Size       | 66 bytes |
| Calculated Size | 66 bytes |
| Instructions    | 11       |

```
      00 01 02 03 04 05 06 07  08 09 0A 0B 0C 0D 0E 0F
      -- -- -- -- -- -- -- --  -- -- -- -- -- -- -- --
3A40:                          1A 8D 3C 1A 52 3B 02 4A          ..<.R;.J
3A50: 10 12 80 00 7B 3A 45 13  80 F8 FF FF 7F F8 FF FF  ....{:E.........
3A60: 7F 73 32 31 35 08 80 1C  69 80 45 09 80 F8 FF FF  .s215...i.E.....
3A70: 7F F8 FF FF 7F 66 64 69  31 08 80 1C 0D 80 2B 43  .....fdi1.....+C
3A80: 10 0F 01 40 80 23 1A 98  3C 00                    ...@.#..<.      
```

## Opcodes

```
  0: 0x3A48 [0x1A] CALL_SUBROUTINE(address=0x3C8D)
  1: 0x3A4B [0x1A] CALL_SUBROUTINE(address=0x3B52)
  2: 0x3A4E [0x02] IF !(Work_Zone[74] == 1*) GOTO 0x3A7B
  3: 0x3A56 [0x45] LOAD_SCHEDULED_TASK(work_offset1=254*, entity1=EventEntity, entity2=EventEntity, scheduler_id="s215", work_offset2=0*)
  4: 0x3A67 [0x1C] WAIT(15* ticks)
  5: 0x3A6A [0x45] LOAD_SCHEDULED_TASK(work_offset1=200*, entity1=EventEntity, entity2=EventEntity, scheduler_id="fdi1", work_offset2=0*)
  6: 0x3A7B [0x1C] WAIT(60* ticks)
  7: 0x3A7E [0x2B] Pulonono (ID: 17764419/0x010F1043) [11516*]:
    → "It seems your chocobo was in love! Now it seems cheerful again and is eating like there's no tomorrow, so I guess things are back to normal!\u007F1\u0000\u0007"
  8: 0x3A85 [0x23] WAIT_FOR_DIALOG_INTERACTION
  9: 0x3A86 [0x1A] CALL_SUBROUTINE(address=0x3C98)
 10: 0x3A89 [0x00] END_REQSTACK()
```
