# Event 65535

## Metadata

| Field           | Value    |
|-----------------|----------|
| Event Index     | 134/149  |
| Offset          | 0x37F6   |
| Data Size       | 66 bytes |
| Calculated Size | 66 bytes |
| Instructions    | 11       |

```
      00 01 02 03 04 05 06 07  08 09 0A 0B 0C 0D 0E 0F
      -- -- -- -- -- -- -- --  -- -- -- -- -- -- -- --
37F0:                   1A 8D  3C 1A 52 3B 02 4A 10 12        ..<.R;.J..
3800: 80 00 29 38 45 13 80 F8  FF FF 7F F8 FF FF 7F 73  ..)8E..........s
3810: 32 31 35 08 80 1C 69 80  45 09 80 F8 FF FF 7F F8  215...i.E.......
3820: FF FF 7F 66 64 69 31 08  80 1C 0D 80 2B 43 10 0F  ...fdi1.....+C..
3830: 01 31 80 23 1A 98 3C 00                           .1.#..<.        
```

## Opcodes

```
  0: 0x37F6 [0x1A] CALL_SUBROUTINE(address=0x3C8D)
  1: 0x37F9 [0x1A] CALL_SUBROUTINE(address=0x3B52)
  2: 0x37FC [0x02] IF !(Work_Zone[74] == 1*) GOTO 0x3829
  3: 0x3804 [0x45] LOAD_SCHEDULED_TASK: Load scheduler "s215" with entities [EventEntity, EventEntity], work=[254*, 0*]
  4: 0x3815 [0x1C] WAIT(15* ticks)
  5: 0x3818 [0x45] LOAD_SCHEDULED_TASK: Load scheduler "fdi1" with entities [EventEntity, EventEntity], work=[200*, 0*]
  6: 0x3829 [0x1C] WAIT(60* ticks)
  7: 0x382C [0x2B] Pulonono (ID: 17764419/0x010F1043) [11492*]:
    → "\u0001\u0005\u0004\u0002\u0000\u0000\u0000's illness has completely healed!\u007F1\u0000\u0007"
  8: 0x3833 [0x23] WAIT_FOR_DIALOG_INTERACTION
  9: 0x3834 [0x1A] CALL_SUBROUTINE(address=0x3C98)
 10: 0x3837 [0x00] END_REQSTACK()
```
