# Event 65535

## Metadata

| Field           | Value    |
|-----------------|----------|
| Event Index     | 98/149   |
| Offset          | 0x3263   |
| Data Size       | 66 bytes |
| Calculated Size | 66 bytes |
| Instructions    | 11       |

```
      00 01 02 03 04 05 06 07  08 09 0A 0B 0C 0D 0E 0F
      -- -- -- -- -- -- -- --  -- -- -- -- -- -- -- --
3260:          1A 8D 3C 1A 52  3B 02 4A 10 12 80 00 96     ..<.R;.J.....
3270: 32 45 13 80 F8 FF FF 7F  F8 FF FF 7F 73 32 31 35  2E..........s215
3280: 08 80 1C 69 80 45 09 80  F8 FF FF 7F F8 FF FF 7F  ...i.E..........
3290: 66 64 69 31 08 80 1C 0D  80 2B 43 10 0F 01 6C 80  fdi1.....+C...l.
32A0: 23 1A 98 3C 00                                    #..<.           
```

## Opcodes

```
  0: 0x3263 [0x1A] CALL_SUBROUTINE(address=0x3C8D)
  1: 0x3266 [0x1A] CALL_SUBROUTINE(address=0x3B52)
  2: 0x3269 [0x02] IF !(Work_Zone[74] == 1*) GOTO 0x3296
  3: 0x3271 [0x45] LOAD_SCHEDULED_TASK: Load scheduler "s215" with entities [EventEntity, EventEntity], work=[254*, 0*]
  4: 0x3282 [0x1C] WAIT(15* ticks)
  5: 0x3285 [0x45] LOAD_SCHEDULED_TASK: Load scheduler "fdi1" with entities [EventEntity, EventEntity], work=[200*, 0*]
  6: 0x3296 [0x1C] WAIT(60* ticks)
  7: 0x3299 [0x2B] Pulonono (ID: 17764419/0x010F1043) [11537*]:
    → "\u0001\u0005\u0004\u0002\u0000\u0000\u0000 has been out playing with the children of Windurst. Even I felt like a kid again!\u007F1\u0000\u0007"
  8: 0x32A0 [0x23] WAIT_FOR_DIALOG_INTERACTION
  9: 0x32A1 [0x1A] CALL_SUBROUTINE(address=0x3C98)
 10: 0x32A4 [0x00] END_REQSTACK()
```
