# Event 65535

## Metadata

| Field           | Value    |
|-----------------|----------|
| Event Index     | 93/149   |
| Offset          | 0x3119   |
| Data Size       | 66 bytes |
| Calculated Size | 66 bytes |
| Instructions    | 11       |

```
      00 01 02 03 04 05 06 07  08 09 0A 0B 0C 0D 0E 0F
      -- -- -- -- -- -- -- --  -- -- -- -- -- -- -- --
3110:                             1A 8D 3C 1A 52 3B 02           ..<.R;.
3120: 4A 10 12 80 00 4C 31 45  13 80 F8 FF FF 7F F8 FF  J....L1E........
3130: FF 7F 73 32 31 35 08 80  1C 69 80 45 09 80 F8 FF  ..s215...i.E....
3140: FF 7F F8 FF FF 7F 66 64  69 31 08 80 1C 0D 80 2B  ......fdi1.....+
3150: 43 10 0F 01 89 80 23 1A  98 3C 00                 C.....#..<.     
```

## Opcodes

```
  0: 0x3119 [0x1A] CALL_SUBROUTINE(address=0x3C8D)
  1: 0x311C [0x1A] CALL_SUBROUTINE(address=0x3B52)
  2: 0x311F [0x02] IF !(Work_Zone[74] == 1*) GOTO 0x314C
  3: 0x3127 [0x45] LOAD_SCHEDULED_TASK(work_offset1=254*, entity1=EventEntity, entity2=EventEntity, scheduler_id="s215", work_offset2=0*)
  4: 0x3138 [0x1C] WAIT(15* ticks)
  5: 0x313B [0x45] LOAD_SCHEDULED_TASK(work_offset1=200*, entity1=EventEntity, entity2=EventEntity, scheduler_id="fdi1", work_offset2=0*)
  6: 0x314C [0x1C] WAIT(60* ticks)
  7: 0x314F [0x2B] Pulonono (ID: 17764419/0x010F1043) [11532*]:
    → "\u0001\u0005\u0004\u0002\u0000\u0000\u0000 rested well. It looked like it was having good dreams...\u007F1\u0000\u0007"
  8: 0x3156 [0x23] WAIT_FOR_DIALOG_INTERACTION
  9: 0x3157 [0x1A] CALL_SUBROUTINE(address=0x3C98)
 10: 0x315A [0x00] END_REQSTACK()
```
