# Event 65535

## Metadata

| Field           | Value    |
|-----------------|----------|
| Event Index     | 125/149  |
| Offset          | 0x3592   |
| Data Size       | 66 bytes |
| Calculated Size | 66 bytes |
| Instructions    | 11       |

```
      00 01 02 03 04 05 06 07  08 09 0A 0B 0C 0D 0E 0F
      -- -- -- -- -- -- -- --  -- -- -- -- -- -- -- --
3590:       1A 8D 3C 1A 52 3B  02 4A 10 12 80 00 C8 35    ..<.R;.J.....5
35A0: 45 13 80 F8 FF FF 7F F8  FF FF 7F 73 32 31 35 08  E..........s215.
35B0: 80 1C 69 80 45 09 80 F8  FF FF 7F F8 FF FF 7F 66  ..i.E..........f
35C0: 64 69 31 08 80 1C 0D 80  2B 43 10 0F 01 A7 80 23  di1.....+C.....#
35D0: 1A 98 3C 00                                       ..<.            
```

## Opcodes

```
  0: 0x3592 [0x1A] CALL_SUBROUTINE(address=0x3C8D)
  1: 0x3595 [0x1A] CALL_SUBROUTINE(address=0x3B52)
  2: 0x3598 [0x02] IF !(Work_Zone[74] == 1*) GOTO 0x35C8
  3: 0x35A0 [0x45] LOAD_SCHEDULED_TASK(work_offset1=254*, entity1=EventEntity, entity2=EventEntity, scheduler_id="s215", work_offset2=0*)
  4: 0x35B1 [0x1C] WAIT(15* ticks)
  5: 0x35B4 [0x45] LOAD_SCHEDULED_TASK(work_offset1=200*, entity1=EventEntity, entity2=EventEntity, scheduler_id="fdi1", work_offset2=0*)
  6: 0x35C5 [0x1C] WAIT(60* ticks)
  7: 0x35C8 [0x2B] Pulonono (ID: 17764419/0x010F1043) [11501*]:
    → "\u0001\u0005\u0004\u0002\u0000\u0000\u0000 is sleeping soundly right now, so don't disturb it.\u007F1\u0000\u0007"
  8: 0x35CF [0x23] WAIT_FOR_DIALOG_INTERACTION
  9: 0x35D0 [0x1A] CALL_SUBROUTINE(address=0x3C98)
 10: 0x35D3 [0x00] END_REQSTACK()
```
