# Event 65535

## Metadata

| Field           | Value    |
|-----------------|----------|
| Event Index     | 49/149   |
| Offset          | 0x208D   |
| Data Size       | 66 bytes |
| Calculated Size | 66 bytes |
| Instructions    | 13       |

```
      00 01 02 03 04 05 06 07  08 09 0A 0B 0C 0D 0E 0F
      -- -- -- -- -- -- -- --  -- -- -- -- -- -- -- --
2080:                                         2F 00 55               /.U
2090: 10 0F 01 4E 00 55 10 0F  01 92 01 55 10 0F 01 29  ...N.U.....U...)
20A0: 05 55 10 0F 01 03 03 02  10 5A 80 03 03 10 12 80  .U.......Z......
20B0: 03 04 10 08 80 03 05 10  08 80 03 06 10 12 80 03  ................
20C0: 07 10 08 80 03 08 10 08  80 03 09 10 08 80 00     ............... 
```

## Opcodes

```
  0: 0x208D [0x2F] Dietmund (ID: 17764437/0x010F1055)->Render.Flags0 &= ~0x80000 // Bit 19
  1: 0x2093 [0x4E] SET_ENTITY_HIDE_FLAG: Show Dietmund (ID: 17764437/0x010F1055)
  2: 0x2099 [0x92] Dietmund (ID: 17764437/0x010F1055)->Render.Flags3 ^= 0x01
  3: 0x209F [0x29] REQ_SET_WAIT(priority=0x05, entity_id=Dietmund (ID: 17764437/0x010F1055), tag_num=0x03)
  4: 0x20A6 [0x03] Work_Zone[2] = 2*
  5: 0x20AB [0x03] Work_Zone[3] = 1*
  6: 0x20B0 [0x03] Work_Zone[4] = 0*
  7: 0x20B5 [0x03] Work_Zone[5] = 0*
  8: 0x20BA [0x03] Work_Zone[6] = 1*
  9: 0x20BF [0x03] Work_Zone[7] = 0*
 10: 0x20C4 [0x03] Work_Zone[8] = 0*
 11: 0x20C9 [0x03] Work_Zone[9] = 0*
 12: 0x20CE [0x00] END_REQSTACK()
```
