# Event 65535

## Metadata

| Field           | Value    |
|-----------------|----------|
| Event Index     | 9/149    |
| Offset          | 0x0208   |
| Data Size       | 71 bytes |
| Calculated Size | 71 bytes |
| Instructions    | 12       |

```
      00 01 02 03 04 05 06 07  08 09 0A 0B 0C 0D 0E 0F
      -- -- -- -- -- -- -- --  -- -- -- -- -- -- -- --
0200:                          6B 63 68 69 30 4A 10 0F          kchi0J..
0210: 01 29 05 4A 10 0F 01 04  80 4A 10 0F 01 5C 00 16  .).J.....J...\..
0220: 80 5C 01 16 80 92 01 43  10 0F 01 29 05 43 10 0F  .\.....C...).C..
0230: 01 04 29 05 F0 FF FF 7F  6A 4A F0 FF FF 7F 43 10  ..).....jJ....C.
0240: 0F 01 4A 43 10 0F 01 F0  FF FF 7F 1C 17 80 00     ..JC........... 
```

## Opcodes

```
  0: 0x0208 [0x6B] STOP_AND_IDLE: Unnamed NPC (ID: 17764426/0x010F104A) stops current action and resets to idle (animation="chi0")
  1: 0x0211 [0x29] REQ_SET_WAIT(priority=0x05, entity_id=Unnamed NPC (ID: 17764426/0x010F104A), tag_num=0x04)
  2: 0x0218 [0x80] LOAD_WAIT(entity=Unnamed NPC (ID: 17764426/0x010F104A))
  3: 0x021D [0x5C] MUSIC_CONTROL: Set Idle (Day) music to song 124*
  4: 0x0221 [0x5C] MUSIC_CONTROL: Set Idle (Night) music to song 124*
  5: 0x0225 [0x92] Pulonono (ID: 17764419/0x010F1043)->Render.Flags3 ^= 0x01
  6: 0x022B [0x29] REQ_SET_WAIT(priority=0x05, entity_id=Pulonono (ID: 17764419/0x010F1043), tag_num=0x04)
  7: 0x0232 [0x29] REQ_SET_WAIT(priority=0x05, entity_id=LocalPlayer, tag_num=0x6A)
  8: 0x0239 [0x4A] LocalPlayer looks at Pulonono (ID: 17764419/0x010F1043)
  9: 0x0242 [0x4A] Pulonono (ID: 17764419/0x010F1043) looks at LocalPlayer
 10: 0x024B [0x1C] WAIT(30* ticks)
 11: 0x024E [0x00] END_REQSTACK()
```
