# Event 65535

## Metadata

| Field           | Value    |
|-----------------|----------|
| Event Index     | 36/149   |
| Offset          | 0x13EF   |
| Data Size       | 60 bytes |
| Calculated Size | 60 bytes |
| Instructions    | 11       |

```
      00 01 02 03 04 05 06 07  08 09 0A 0B 0C 0D 0E 0F
      -- -- -- -- -- -- -- --  -- -- -- -- -- -- -- --
13E0:                                               2F                 /
13F0: 00 54 10 0F 01 4E 00 54  10 0F 01 92 01 54 10 0F  .T...N.T.....T..
1400: 01 2F 00 52 10 0F 01 4E  00 52 10 0F 01 92 01 52  ./.R...N.R.....R
1410: 10 0F 01 2F 00 53 10 0F  01 4E 00 53 10 0F 01 92  .../.S...N.S....
1420: 01 53 10 0F 01 03 02 10  12 80 00                 .S.........     
```

## Opcodes

```
  0: 0x13EF [0x2F] Wahboud (ID: 17764436/0x010F1054)->Render.Flags0 &= ~0x80000 // Bit 19
  1: 0x13F5 [0x4E] SET_ENTITY_HIDE_FLAG: Show Wahboud (ID: 17764436/0x010F1054)
  2: 0x13FB [0x92] Wahboud (ID: 17764436/0x010F1054)->Render.Flags3 ^= 0x01
  3: 0x1401 [0x2F] Bashraf (ID: 17764434/0x010F1052)->Render.Flags0 &= ~0x80000 // Bit 19
  4: 0x1407 [0x4E] SET_ENTITY_HIDE_FLAG: Show Bashraf (ID: 17764434/0x010F1052)
  5: 0x140D [0x92] Bashraf (ID: 17764434/0x010F1052)->Render.Flags3 ^= 0x01
  6: 0x1413 [0x2F] Foudeel (ID: 17764435/0x010F1053)->Render.Flags0 &= ~0x80000 // Bit 19
  7: 0x1419 [0x4E] SET_ENTITY_HIDE_FLAG: Show Foudeel (ID: 17764435/0x010F1053)
  8: 0x141F [0x92] Foudeel (ID: 17764435/0x010F1053)->Render.Flags3 ^= 0x01
  9: 0x1425 [0x03] Work_Zone[2] = 1*
 10: 0x142A [0x00] END_REQSTACK()
```
