# Event 65535

## Metadata

| Field           | Value    |
|-----------------|----------|
| Event Index     | 140/149  |
| Offset          | 0x3982   |
| Data Size       | 66 bytes |
| Calculated Size | 66 bytes |
| Instructions    | 11       |

```
      00 01 02 03 04 05 06 07  08 09 0A 0B 0C 0D 0E 0F
      -- -- -- -- -- -- -- --  -- -- -- -- -- -- -- --
3980:       1A 8D 3C 1A 52 3B  02 4A 10 12 80 00 B5 39    ..<.R;.J.....9
3990: 45 13 80 F8 FF FF 7F F8  FF FF 7F 73 32 31 35 08  E..........s215.
39A0: 80 1C 69 80 45 09 80 F8  FF FF 7F F8 FF FF 7F 66  ..i.E..........f
39B0: 64 69 31 08 80 1C 0D 80  2B 43 10 0F 01 3C 80 23  di1.....+C...<.#
39C0: 1A 98 3C 00                                       ..<.            
```

## Opcodes

```
  0: 0x3982 [0x1A] CALL_SUBROUTINE(address=0x3C8D)
  1: 0x3985 [0x1A] CALL_SUBROUTINE(address=0x3B52)
  2: 0x3988 [0x02] IF !(Work_Zone[74] == 1*) GOTO 0x39B5
  3: 0x3990 [0x45] LOAD_SCHEDULED_TASK: Load scheduler "s215" with entities [EventEntity, EventEntity], work=[254*, 0*]
  4: 0x39A1 [0x1C] WAIT(15* ticks)
  5: 0x39A4 [0x45] LOAD_SCHEDULED_TASK: Load scheduler "fdi1" with entities [EventEntity, EventEntity], work=[200*, 0*]
  6: 0x39B5 [0x1C] WAIT(60* ticks)
  7: 0x39B8 [0x2B] Pulonono (ID: 17764419/0x010F1043) [11506*]:
    → "\u0001\u0005\u0004\u0002\u0000\u0000\u0000 seems happier lately!\u007F1\u0000\u0007"
  8: 0x39BF [0x23] WAIT_FOR_DIALOG_INTERACTION
  9: 0x39C0 [0x1A] CALL_SUBROUTINE(address=0x3C98)
 10: 0x39C3 [0x00] END_REQSTACK()
```
