# Event 65535

## Metadata

| Field           | Value    |
|-----------------|----------|
| Event Index     | 144/149  |
| Offset          | 0x3A8A   |
| Data Size       | 68 bytes |
| Calculated Size | 68 bytes |
| Instructions    | 11       |

```
      00 01 02 03 04 05 06 07  08 09 0A 0B 0C 0D 0E 0F
      -- -- -- -- -- -- -- --  -- -- -- -- -- -- -- --
3A80:                                1A 8D 3C 03 03 10            ..<...
3A90: 24 80 1A 52 3B 02 4A 10  12 80 00 C2 3A 45 13 80  $..R;.J.....:E..
3AA0: F8 FF FF 7F F8 FF FF 7F  73 32 31 35 08 80 1C 69  ........s215...i
3AB0: 80 45 09 80 F8 FF FF 7F  F8 FF FF 7F 66 64 69 31  .E..........fdi1
3AC0: 08 80 1C 0D 80 2B 43 10  0F 01 41 80 23 00        .....+C...A.#.  
```

## Opcodes

```
  0: 0x3A8A [0x1A] CALL_SUBROUTINE(address=0x3C8D)
  1: 0x3A8D [0x03] Work_Zone[3] = 806*
  2: 0x3A92 [0x1A] CALL_SUBROUTINE(address=0x3B52)
  3: 0x3A95 [0x02] IF !(Work_Zone[74] == 1*) GOTO 0x3AC2
  4: 0x3A9D [0x45] LOAD_SCHEDULED_TASK: Load scheduler "s215" with entities [EventEntity, EventEntity], work=[254*, 0*]
  5: 0x3AAE [0x1C] WAIT(15* ticks)
  6: 0x3AB1 [0x45] LOAD_SCHEDULED_TASK: Load scheduler "fdi1" with entities [EventEntity, EventEntity], work=[200*, 0*]
  7: 0x3AC2 [0x1C] WAIT(60* ticks)
  8: 0x3AC5 [0x2B] Pulonono (ID: 17764419/0x010F1043) [11455*]:
    → "Thanks to the \u0001\u00053\u0002\u0000\u0000\u0000, \u0001\u0005\u0004\u0002\u0000\u0000\u0000 has been sleeping like a baby!\u007F1\u0000\u0007"
  9: 0x3ACC [0x23] WAIT_FOR_DIALOG_INTERACTION
 10: 0x3ACD [0x00] END_REQSTACK()
```
