# Event 65535

## Metadata

| Field           | Value    |
|-----------------|----------|
| Event Index     | 119/149  |
| Offset          | 0x3402   |
| Data Size       | 66 bytes |
| Calculated Size | 66 bytes |
| Instructions    | 11       |

```
      00 01 02 03 04 05 06 07  08 09 0A 0B 0C 0D 0E 0F
      -- -- -- -- -- -- -- --  -- -- -- -- -- -- -- --
3400:       1A 8D 3C 1A 52 3B  02 4A 10 12 80 00 35 34    ..<.R;.J....54
3410: 45 13 80 F8 FF FF 7F F8  FF FF 7F 73 32 31 35 08  E..........s215.
3420: 80 1C 69 80 45 09 80 F8  FF FF 7F F8 FF FF 7F 66  ..i.E..........f
3430: 64 69 31 08 80 1C 0D 80  2B 43 10 0F 01 9F 80 23  di1.....+C.....#
3440: 1A 98 3C 00                                       ..<.            
```

## Opcodes

```
  0: 0x3402 [0x1A] CALL_SUBROUTINE(address=0x3C8D)
  1: 0x3405 [0x1A] CALL_SUBROUTINE(address=0x3B52)
  2: 0x3408 [0x02] IF !(Work_Zone[74] == 1*) GOTO 0x3435
  3: 0x3410 [0x45] LOAD_SCHEDULED_TASK(work_offset1=254*, entity1=EventEntity, entity2=EventEntity, scheduler_id="s215", work_offset2=0*)
  4: 0x3421 [0x1C] WAIT(15* ticks)
  5: 0x3424 [0x45] LOAD_SCHEDULED_TASK(work_offset1=200*, entity1=EventEntity, entity2=EventEntity, scheduler_id="fdi1", work_offset2=0*)
  6: 0x3435 [0x1C] WAIT(60* ticks)
  7: 0x3438 [0x2B] Pulonono (ID: 17764419/0x010F1043) [11529*]:
    → "I couldn't take care of \u0001\u0005\u0004\u0002\u0000\u0000\u0000 because it ran away...\u007F1\u0000\u0007"
  8: 0x343F [0x23] WAIT_FOR_DIALOG_INTERACTION
  9: 0x3440 [0x1A] CALL_SUBROUTINE(address=0x3C98)
 10: 0x3443 [0x00] END_REQSTACK()
```
