# Event 65535

## Metadata

| Field           | Value    |
|-----------------|----------|
| Event Index     | 122/149  |
| Offset          | 0x34CC   |
| Data Size       | 66 bytes |
| Calculated Size | 66 bytes |
| Instructions    | 11       |

```
      00 01 02 03 04 05 06 07  08 09 0A 0B 0C 0D 0E 0F
      -- -- -- -- -- -- -- --  -- -- -- -- -- -- -- --
34C0:                                      1A 8D 3C 1A              ..<.
34D0: 52 3B 02 4A 10 12 80 00  02 35 45 13 80 F8 FF FF  R;.J.....5E.....
34E0: 7F F8 FF FF 7F 73 32 31  35 08 80 1C 69 80 45 09  .....s215...i.E.
34F0: 80 F8 FF FF 7F F8 FF FF  7F 66 64 69 31 08 80 1C  .........fdi1...
3500: 0D 80 2B 43 10 0F 01 A4  80 23 1A 98 3C 00        ..+C.....#..<.  
```

## Opcodes

```
  0: 0x34CC [0x1A] CALL_SUBROUTINE(address=0x3C8D)
  1: 0x34CF [0x1A] CALL_SUBROUTINE(address=0x3B52)
  2: 0x34D2 [0x02] IF !(Work_Zone[74] == 1*) GOTO 0x3502
  3: 0x34DA [0x45] LOAD_SCHEDULED_TASK: Load scheduler "s215" with entities [EventEntity, EventEntity], work=[254*, 0*]
  4: 0x34EB [0x1C] WAIT(15* ticks)
  5: 0x34EE [0x45] LOAD_SCHEDULED_TASK: Load scheduler "fdi1" with entities [EventEntity, EventEntity], work=[200*, 0*]
  6: 0x34FF [0x1C] WAIT(60* ticks)
  7: 0x3502 [0x2B] Pulonono (ID: 17764419/0x010F1043) [11493*]:
    → "\u0001\u0005\u0004\u0002\u0000\u0000\u0000 seems to have a stomachache. Are you giving it a proper diet?\u007F1\u0000\u0007"
  8: 0x3509 [0x23] WAIT_FOR_DIALOG_INTERACTION
  9: 0x350A [0x1A] CALL_SUBROUTINE(address=0x3C98)
 10: 0x350D [0x00] END_REQSTACK()
```
