# Event 65535

## Metadata

| Field           | Value    |
|-----------------|----------|
| Event Index     | 94/149   |
| Offset          | 0x315B   |
| Data Size       | 66 bytes |
| Calculated Size | 66 bytes |
| Instructions    | 11       |

```
      00 01 02 03 04 05 06 07  08 09 0A 0B 0C 0D 0E 0F
      -- -- -- -- -- -- -- --  -- -- -- -- -- -- -- --
3150:                                   1A 8D 3C 1A 52             ..<.R
3160: 3B 02 4A 10 12 80 00 8E  31 45 13 80 F8 FF FF 7F  ;.J.....1E......
3170: F8 FF FF 7F 73 32 31 35  08 80 1C 69 80 45 09 80  ....s215...i.E..
3180: F8 FF FF 7F F8 FF FF 7F  66 64 69 31 08 80 1C 0D  ........fdi1....
3190: 80 2B 43 10 0F 01 67 80  23 1A 98 3C 00           .+C...g.#..<.   
```

## Opcodes

```
  0: 0x315B [0x1A] CALL_SUBROUTINE(address=0x3C8D)
  1: 0x315E [0x1A] CALL_SUBROUTINE(address=0x3B52)
  2: 0x3161 [0x02] IF !(Work_Zone[74] == 1*) GOTO 0x318E
  3: 0x3169 [0x45] LOAD_SCHEDULED_TASK: Load scheduler "s215" with entities [EventEntity, EventEntity], work=[254*, 0*]
  4: 0x317A [0x1C] WAIT(15* ticks)
  5: 0x317D [0x45] LOAD_SCHEDULED_TASK: Load scheduler "fdi1" with entities [EventEntity, EventEntity], work=[200*, 0*]
  6: 0x318E [0x1C] WAIT(60* ticks)
  7: 0x3191 [0x2B] Pulonono (ID: 17764419/0x010F1043) [11533*]:
    → "I took \u0001\u0005\u0004\u0002\u0000\u0000\u0000 on a walk around town. It seemed interested in everything!\u007F1\u0000\u0007"
  8: 0x3198 [0x23] WAIT_FOR_DIALOG_INTERACTION
  9: 0x3199 [0x1A] CALL_SUBROUTINE(address=0x3C98)
 10: 0x319C [0x00] END_REQSTACK()
```
