# Event 65535

## Metadata

| Field           | Value    |
|-----------------|----------|
| Event Index     | 99/149   |
| Offset          | 0x32A5   |
| Data Size       | 66 bytes |
| Calculated Size | 66 bytes |
| Instructions    | 11       |

```
      00 01 02 03 04 05 06 07  08 09 0A 0B 0C 0D 0E 0F
      -- -- -- -- -- -- -- --  -- -- -- -- -- -- -- --
32A0:                1A 8D 3C  1A 52 3B 02 4A 10 12 80       ..<.R;.J...
32B0: 00 D8 32 45 13 80 F8 FF  FF 7F F8 FF FF 7F 73 32  ..2E..........s2
32C0: 31 35 08 80 1C 69 80 45  09 80 F8 FF FF 7F F8 FF  15...i.E........
32D0: FF 7F 66 64 69 31 08 80  1C 0D 80 2B 43 10 0F 01  ..fdi1.....+C...
32E0: 8B 80 23 1A 98 3C 00                              ..#..<.         
```

## Opcodes

```
  0: 0x32A5 [0x1A] CALL_SUBROUTINE(address=0x3C8D)
  1: 0x32A8 [0x1A] CALL_SUBROUTINE(address=0x3B52)
  2: 0x32AB [0x02] IF !(Work_Zone[74] == 1*) GOTO 0x32D8
  3: 0x32B3 [0x45] LOAD_SCHEDULED_TASK(work_offset1=254*, entity1=EventEntity, entity2=EventEntity, scheduler_id="s215", work_offset2=0*)
  4: 0x32C4 [0x1C] WAIT(15* ticks)
  5: 0x32C7 [0x45] LOAD_SCHEDULED_TASK(work_offset1=200*, entity1=EventEntity, entity2=EventEntity, scheduler_id="fdi1", work_offset2=0*)
  6: 0x32D8 [0x1C] WAIT(60* ticks)
  7: 0x32DB [0x2B] Pulonono (ID: 17764419/0x010F1043) [11538*]:
    → "Your chocobo's been out playing with the other chocobos here. They all seemed so cheerful, I started to think back to when I was a kid...\u007F1\u0000\u0007"
  8: 0x32E2 [0x23] WAIT_FOR_DIALOG_INTERACTION
  9: 0x32E3 [0x1A] CALL_SUBROUTINE(address=0x3C98)
 10: 0x32E6 [0x00] END_REQSTACK()
```
