# Event 65535

## Metadata

| Field           | Value    |
|-----------------|----------|
| Event Index     | 126/149  |
| Offset          | 0x35D4   |
| Data Size       | 68 bytes |
| Calculated Size | 68 bytes |
| Instructions    | 11       |

```
      00 01 02 03 04 05 06 07  08 09 0A 0B 0C 0D 0E 0F
      -- -- -- -- -- -- -- --  -- -- -- -- -- -- -- --
35D0:             1A 8D 3C 03  03 10 A2 80 1A 52 3B 02      ..<......R;.
35E0: 4A 10 12 80 00 0F 36 45  13 80 F8 FF FF 7F F8 FF  J.....6E........
35F0: FF 7F 73 32 31 35 08 80  1C 69 80 45 09 80 F8 FF  ..s215...i.E....
3600: FF 7F F8 FF FF 7F 66 64  69 31 08 80 1C 0D 80 2B  ......fdi1.....+
3610: 43 10 0F 01 A8 80 23 00                           C.....#.        
```

## Opcodes

```
  0: 0x35D4 [0x1A] CALL_SUBROUTINE(address=0x3C8D)
  1: 0x35D7 [0x03] Work_Zone[3] = 2201*
  2: 0x35DC [0x1A] CALL_SUBROUTINE(address=0x3B52)
  3: 0x35DF [0x02] IF !(Work_Zone[74] == 1*) GOTO 0x360F
  4: 0x35E7 [0x45] LOAD_SCHEDULED_TASK: Load scheduler "s215" with entities [EventEntity, EventEntity], work=[254*, 0*]
  5: 0x35F8 [0x1C] WAIT(15* ticks)
  6: 0x35FB [0x45] LOAD_SCHEDULED_TASK: Load scheduler "fdi1" with entities [EventEntity, EventEntity], work=[200*, 0*]
  7: 0x360C [0x1C] WAIT(60* ticks)
  8: 0x360F [0x2B] Pulonono (ID: 17764419/0x010F1043) [11503*]:
    → "\u0001\u0005\u0004\u0002\u0000\u0000\u0000 is very ill. We need \u0001\u0001\u0001 \u0001\u0005$\u0002\u0001\u0000\u0000 to help it.\u007F1\u0000\u0007"
  9: 0x3616 [0x23] WAIT_FOR_DIALOG_INTERACTION
 10: 0x3617 [0x00] END_REQSTACK()
```
