# Event 65535

## Metadata

| Field           | Value    |
|-----------------|----------|
| Event Index     | 130/149  |
| Offset          | 0x36EE   |
| Data Size       | 66 bytes |
| Calculated Size | 66 bytes |
| Instructions    | 11       |

```
      00 01 02 03 04 05 06 07  08 09 0A 0B 0C 0D 0E 0F
      -- -- -- -- -- -- -- --  -- -- -- -- -- -- -- --
36E0:                                            1A 8D                ..
36F0: 3C 1A 52 3B 02 4A 10 12  80 00 24 37 45 13 80 F8  <.R;.J....$7E...
3700: FF FF 7F F8 FF FF 7F 73  32 31 35 08 80 1C 69 80  .......s215...i.
3710: 45 09 80 F8 FF FF 7F F8  FF FF 7F 66 64 69 31 08  E..........fdi1.
3720: 80 1C 0D 80 2B 43 10 0F  01 AB 80 23 1A 98 3C 00  ....+C.....#..<.
```

## Opcodes

```
  0: 0x36EE [0x1A] CALL_SUBROUTINE(address=0x3C8D)
  1: 0x36F1 [0x1A] CALL_SUBROUTINE(address=0x3B52)
  2: 0x36F4 [0x02] IF !(Work_Zone[74] == 1*) GOTO 0x3724
  3: 0x36FC [0x45] LOAD_SCHEDULED_TASK: Load scheduler "s215" with entities [EventEntity, EventEntity], work=[254*, 0*]
  4: 0x370D [0x1C] WAIT(15* ticks)
  5: 0x3710 [0x45] LOAD_SCHEDULED_TASK: Load scheduler "fdi1" with entities [EventEntity, EventEntity], work=[200*, 0*]
  6: 0x3721 [0x1C] WAIT(60* ticks)
  7: 0x3724 [0x2B] Pulonono (ID: 17764419/0x010F1043) [11514*]:
    → "\u0001\u0005\u0004\u0002\u0000\u0000\u0000 has been acting weird lately. Its head is in the clouds and will hardly eat anything...\u007F1\u0000\u0007"
  8: 0x372B [0x23] WAIT_FOR_DIALOG_INTERACTION
  9: 0x372C [0x1A] CALL_SUBROUTINE(address=0x3C98)
 10: 0x372F [0x00] END_REQSTACK()
```
