# Event 65535

## Metadata

| Field           | Value    |
|-----------------|----------|
| Event Index     | 92/149   |
| Offset          | 0x30D7   |
| Data Size       | 66 bytes |
| Calculated Size | 66 bytes |
| Instructions    | 11       |

```
      00 01 02 03 04 05 06 07  08 09 0A 0B 0C 0D 0E 0F
      -- -- -- -- -- -- -- --  -- -- -- -- -- -- -- --
30D0:                      1A  52 3B 02 4A 10 12 80 00         .R;.J....
30E0: 0A 31 45 13 80 F8 FF FF  7F F8 FF FF 7F 73 32 31  .1E..........s21
30F0: 35 08 80 1C 69 80 45 09  80 F8 FF FF 7F F8 FF FF  5...i.E.........
3100: 7F 66 64 69 31 08 80 1C  0D 80 1A 8D 3C 2B 43 10  .fdi1.......<+C.
3110: 0F 01 65 80 23 1A 98 3C  00                       ..e.#..<.       
```

## Opcodes

```
  0: 0x30D7 [0x1A] CALL_SUBROUTINE(address=0x3B52)
  1: 0x30DA [0x02] IF !(Work_Zone[74] == 1*) GOTO 0x310A
  2: 0x30E2 [0x45] LOAD_SCHEDULED_TASK(work_offset1=254*, entity1=EventEntity, entity2=EventEntity, scheduler_id="s215", work_offset2=0*)
  3: 0x30F3 [0x1C] WAIT(15* ticks)
  4: 0x30F6 [0x45] LOAD_SCHEDULED_TASK(work_offset1=200*, entity1=EventEntity, entity2=EventEntity, scheduler_id="fdi1", work_offset2=0*)
  5: 0x3107 [0x1C] WAIT(60* ticks)
  6: 0x310A [0x1A] CALL_SUBROUTINE(address=0x3C8D)
  7: 0x310D [0x2B] Pulonono (ID: 17764419/0x010F1043) [11531*]:
    → "We've been taking good care of \u0001\u0005\u0004\u0002\u0000\u0000\u0000. Your chocobo has been passing its time here in the stables without a concern in the world!\u007F1\u0000\u0007"
  8: 0x3114 [0x23] WAIT_FOR_DIALOG_INTERACTION
  9: 0x3115 [0x1A] CALL_SUBROUTINE(address=0x3C98)
 10: 0x3118 [0x00] END_REQSTACK()
```
