# Event 65535

## Metadata

| Field           | Value    |
|-----------------|----------|
| Event Index     | 62/149   |
| Offset          | 0x27B2   |
| Data Size       | 65 bytes |
| Calculated Size | 65 bytes |
| Instructions    | 11       |

```
      00 01 02 03 04 05 06 07  08 09 0A 0B 0C 0D 0E 0F
      -- -- -- -- -- -- -- --  -- -- -- -- -- -- -- --
27B0:       9F 22 80 4A 10 0F  01 4A 10 0F 01 73 74 6F    .".J...J...sto
27C0: 70 08 80 29 05 4A 10 0F  01 11 03 02 10 5A 80 03  p..).J.......Z..
27D0: 03 10 12 80 03 04 10 08  80 03 05 10 08 80 03 06  ................
27E0: 10 12 80 03 07 10 08 80  03 08 10 08 80 03 09 10  ................
27F0: 08 80 00                                          ...             
```

## Opcodes

```
  0: 0x27B2 [0x9F] LOAD_SCHEDULED_TASK_ALT: Load scheduler "stop" with entities [Unnamed NPC (ID: 17764426/0x010F104A), Unnamed NPC (ID: 17764426/0x010F104A)], work=[235*, 0*]
  1: 0x27C3 [0x29] REQ_SET_WAIT(priority=0x05, entity_id=Unnamed NPC (ID: 17764426/0x010F104A), tag_num=0x11)
  2: 0x27CA [0x03] Work_Zone[2] = 2*
  3: 0x27CF [0x03] Work_Zone[3] = 1*
  4: 0x27D4 [0x03] Work_Zone[4] = 0*
  5: 0x27D9 [0x03] Work_Zone[5] = 0*
  6: 0x27DE [0x03] Work_Zone[6] = 1*
  7: 0x27E3 [0x03] Work_Zone[7] = 0*
  8: 0x27E8 [0x03] Work_Zone[8] = 0*
  9: 0x27ED [0x03] Work_Zone[9] = 0*
 10: 0x27F2 [0x00] END_REQSTACK()
```
