# Event 65535

## Metadata

| Field           | Value    |
|-----------------|----------|
| Event Index     | 71/149   |
| Offset          | 0x2A40   |
| Data Size       | 79 bytes |
| Calculated Size | 79 bytes |
| Instructions    | 13       |

```
      00 01 02 03 04 05 06 07  08 09 0A 0B 0C 0D 0E 0F
      -- -- -- -- -- -- -- --  -- -- -- -- -- -- -- --
2A40: 9F 22 80 4A 10 0F 01 4A  10 0F 01 73 74 6F 70 08  .".J...J...stop.
2A50: 80 6B 63 68 69 30 4A 10  0F 01 29 05 4A 10 0F 01  .kchi0J...).J...
2A60: 16 80 4A 10 0F 01 03 02  10 5A 80 03 03 10 12 80  ..J......Z......
2A70: 03 04 10 08 80 03 05 10  08 80 03 06 10 12 80 03  ................
2A80: 07 10 08 80 03 08 10 08  80 03 09 10 08 80 00     ............... 
```

## Opcodes

```
  0: 0x2A40 [0x9F] LOAD_SCHEDULED_TASK_ALT: Load scheduler "stop" with entities [Unnamed NPC (ID: 17764426/0x010F104A), Unnamed NPC (ID: 17764426/0x010F104A)], work=[235*, 0*]
  1: 0x2A51 [0x6B] STOP_AND_IDLE: Unnamed NPC (ID: 17764426/0x010F104A) stops current action and resets to idle (animation="chi0")
  2: 0x2A5A [0x29] REQ_SET_WAIT(priority=0x05, entity_id=Unnamed NPC (ID: 17764426/0x010F104A), tag_num=0x16)
  3: 0x2A61 [0x80] LOAD_WAIT(entity=Unnamed NPC (ID: 17764426/0x010F104A))
  4: 0x2A66 [0x03] Work_Zone[2] = 2*
  5: 0x2A6B [0x03] Work_Zone[3] = 1*
  6: 0x2A70 [0x03] Work_Zone[4] = 0*
  7: 0x2A75 [0x03] Work_Zone[5] = 0*
  8: 0x2A7A [0x03] Work_Zone[6] = 1*
  9: 0x2A7F [0x03] Work_Zone[7] = 0*
 10: 0x2A84 [0x03] Work_Zone[8] = 0*
 11: 0x2A89 [0x03] Work_Zone[9] = 0*
 12: 0x2A8E [0x00] END_REQSTACK()
```
