# Event 65535

## Metadata

| Field           | Value    |
|-----------------|----------|
| Event Index     | 51/67    |
| Offset          | 0x0351   |
| Data Size       | 95 bytes |
| Calculated Size | 95 bytes |
| Instructions    | 4        |

```
      00 01 02 03 04 05 06 07  08 09 0A 0B 0C 0D 0E 0F
      -- -- -- -- -- -- -- --  -- -- -- -- -- -- -- --
0350:    2C F8 FF FF 7F F8 FF  FF 7F 72 65 73 32 53 F8   ,........res2S.
0360: FF FF 7F F8 FF FF 7F 72  65 73 32 00 3B F8 FF FF  .......res2.;...
0370: 7F 01 00 02 00 03 00 3A  F8 FF FF 7F 04 00 17 05  .......:........
0380: 00 04 00 00 00 16 06 00  04 00 00 00 07 01 00 05  ................
0390: 00 07 02 00 06 00 1B 17  05 00 04 00 00 00 16 06  ................
03A0: 00 04 00 00 00 07 01 00  05 00 07 02 00 06 00 1B  ................
```

## Opcodes

```
  0: 0x0351 [0x2C] CREATE_SCHEDULER_TASK: Create scheduler "res2" with entities [EventEntity, EventEntity]
  1: 0x035E [0x53] WAIT_SCHEDULER_TASK: Wait for scheduler "res2" with entities [EventEntity, EventEntity]
  2: 0x036B [0x00] END_REQSTACK()
```

## Data or dead code:

```
# Data Section: 0x036C (68 bytes)
     0x036C: 3B F8 FF FF 7F 01 00 02 00 03 00 3A F8 FF FF 7F
     0x037C: 04 00 17 05 00 04 00 00 00 16 06 00 04 00 00 00
     0x038C: 07 01 00 05 00 07 02 00 06 00 1B 17 05 00 04 00
     0x039C: 00 00 16 06 00 04 00 00 00 07 01 00 05 00 07 02
     0x03AC: 00 06 00 1B
```