# Event 65535

## Metadata

| Field           | Value    |
|-----------------|----------|
| Event Index     | 51/67    |
| Offset          | 0x0351   |
| Data Size       | 95 bytes |
| Calculated Size | 95 bytes |
| Instructions    | 3        |

```
      00 01 02 03 04 05 06 07  08 09 0A 0B 0C 0D 0E 0F
      -- -- -- -- -- -- -- --  -- -- -- -- -- -- -- --
0350:    2C F8 FF FF 7F F8 FF  FF 7F 72 65 73 32 53 F8   ,........res2S.
0360: FF FF 7F F8 FF FF 7F 72  65 73 32 00 3B F8 FF FF  .......res2.;...
0370: 7F 01 00 02 00 03 00 3A  F8 FF FF 7F 04 00 17 05  .......:........
0380: 00 04 00 00 00 16 06 00  04 00 00 00 07 01 00 05  ................
0390: 00 07 02 00 06 00 1B 17  05 00 04 00 00 00 16 06  ................
03A0: 00 04 00 00 00 07 01 00  05 00 07 02 00 06 00 1B  ................
```

## Opcodes

```
  0: 0x0351 [0x2C] CREATE_SCHEDULER_TASK: Create scheduler "res2" with entities [EventEntity, EventEntity]
  1: 0x035E [0x53] WAIT_SCHEDULER_TASK: Wait for scheduler "res2" with entities [EventEntity, EventEntity]
  2: 0x036B [0x00] END_REQSTACK()
```

## Data or dead code:

```
# Dead code (unreachable instructions):
     0x036C [0x3B] GET_ENTITY_POSITION(entity=EventEntity, x_destination=ExtData[1]->WorkLocal[1], y_destination=ExtData[1]->WorkLocal[2], z_destination=ExtData[1]->WorkLocal[3])
     0x0377 [0x3A] CONVERT_YAW_TO_BYTE(entity=EventEntity, result_destination=ExtData[1]->WorkLocal[4])
     0x037E [0x17] ExtData[1]->WorkLocal[5] = cos(ExtData[1]->WorkLocal[4]) * ExtData[1]->WorkLocal[0]
     0x0385 [0x16] ExtData[1]->WorkLocal[6] = sin(ExtData[1]->WorkLocal[4]) * ExtData[1]->WorkLocal[0]
     0x038C [0x07] ExtData[1]->WorkLocal[1] += ExtData[1]->WorkLocal[5]
     0x0391 [0x07] ExtData[1]->WorkLocal[2] += ExtData[1]->WorkLocal[6]
     0x0396 [0x1B] RETURN
     0x0397 [0x17] ExtData[1]->WorkLocal[5] = cos(ExtData[1]->WorkLocal[4]) * ExtData[1]->WorkLocal[0]
     0x039E [0x16] ExtData[1]->WorkLocal[6] = sin(ExtData[1]->WorkLocal[4]) * ExtData[1]->WorkLocal[0]
     0x03A5 [0x07] ExtData[1]->WorkLocal[1] += ExtData[1]->WorkLocal[5]
     0x03AA [0x07] ExtData[1]->WorkLocal[2] += ExtData[1]->WorkLocal[6]
     0x03AF [0x1B] RETURN
```