# Event 65535

## Metadata

| Field           | Value    |
|-----------------|----------|
| Event Index     | 12/35    |
| Offset          | 0x00B3   |
| Data Size       | 51 bytes |
| Calculated Size | 51 bytes |
| Instructions    | 6        |

```
      00 01 02 03 04 05 06 07  08 09 0A 0B 0C 0D 0E 0F
      -- -- -- -- -- -- -- --  -- -- -- -- -- -- -- --
00B0:          41 17 80 18 80  03 10 07 10 41 19 80 1A     A........A...
00C0: 80 03 10 08 10 41 1B 80  1C 80 03 10 09 10 41 1D  .....A........A.
00D0: 80 1E 80 03 10 05 10 B6  0D 17 80 05 10 1F 80 07  ................
00E0: 10 08 10 09 10 00                                 ......          
```

## Opcodes

```
  0: 0x00B3 [0x41] GET_BIT_WORK_RANGE(start_bit=0*, end_bit=2*, source=Work_Zone[3], result=Work_Zone[7])
  1: 0x00BC [0x41] GET_BIT_WORK_RANGE(start_bit=3*, end_bit=5*, source=Work_Zone[3], result=Work_Zone[8])
  2: 0x00C5 [0x41] GET_BIT_WORK_RANGE(start_bit=6*, end_bit=8*, source=Work_Zone[3], result=Work_Zone[9])
  3: 0x00CE [0x41] GET_BIT_WORK_RANGE(start_bit=9*, end_bit=11*, source=Work_Zone[3], result=Work_Zone[5])
  4: 0x00D7 [0xB6] ENTITY_APPEARANCE_HANDLER(case=Look with Render flags, race=0*, face=4101, head=1*, body=4103, hands=4104, render_flags=0x1009)
  5: 0x00E5 [0x00] END_REQSTACK()
```
