# Event 65535

## Metadata

| Field           | Value    |
|-----------------|----------|
| Event Index     | 17/35    |
| Offset          | 0x012E   |
| Data Size       | 64 bytes |
| Calculated Size | 64 bytes |
| Instructions    | 14       |

```
      00 01 02 03 04 05 06 07  08 09 0A 0B 0C 0D 0E 0F
      -- -- -- -- -- -- -- --  -- -- -- -- -- -- -- --
0120:                                            37 35                75
0130: 80 36 80 37 80 38 80 80  F8 FF FF 7F 32 28 80 1F  .6.7.8......2(..
0140: 00 39 80 3A 80 3B 80 1F  01 1F 00 3C 80 3D 80 3E  .9.:.;.....<.=.>
0150: 80 1F 01 1C 04 80 1F 00  3F 80 40 80 41 80 1F 01  ........?.@.A...
0160: 1F 00 42 80 43 80 44 80  1F 01 1C 04 80 00        ..B.C.D.......  
```

## Opcodes

```
  0: 0x012E [0x37] UPDATE_EVENT_POSITION_AND_DIR: x=-351.350*, z=-65.377*, y=0.495*, direction=157.4°*
  1: 0x0137 [0x80] LOAD_WAIT(entity=EventEntity)
  2: 0x013C [0x32] ExtData[1]->MainSpeed = 70* * 0.1
  3: 0x013F [0x1F] MOVE_ENTITY: EventEntity moves to X=-355.412*, Z=-65.858*, Y=0.501*
  4: 0x0147 [0x1F] MOVE_ENTITY: Update entity position (mode=1)
  5: 0x0149 [0x1F] MOVE_ENTITY: EventEntity moves to X=-355.676*, Z=-65.505*, Y=0.445*
  6: 0x0151 [0x1F] MOVE_ENTITY: Update entity position (mode=1)
  7: 0x0153 [0x1C] WAIT(60* ticks)
  8: 0x0156 [0x1F] MOVE_ENTITY: EventEntity moves to X=-361.011*, Z=-66.069*, Y=0.523*
  9: 0x015E [0x1F] MOVE_ENTITY: Update entity position (mode=1)
 10: 0x0160 [0x1F] MOVE_ENTITY: EventEntity moves to X=-361.071*, Z=-65.631*, Y=0.563*
 11: 0x0168 [0x1F] MOVE_ENTITY: Update entity position (mode=1)
 12: 0x016A [0x1C] WAIT(60* ticks)
 13: 0x016D [0x00] END_REQSTACK()
```
