# Event 65535

## Metadata

| Field           | Value    |
|-----------------|----------|
| Event Index     | 12/35    |
| Offset          | 0x00B3   |
| Data Size       | 51 bytes |
| Calculated Size | 51 bytes |
| Instructions    | 6        |

```
      00 01 02 03 04 05 06 07  08 09 0A 0B 0C 0D 0E 0F
      -- -- -- -- -- -- -- --  -- -- -- -- -- -- -- --
00B0:          41 17 80 18 80  03 10 07 10 41 19 80 1A     A........A...
00C0: 80 03 10 08 10 41 1B 80  1C 80 03 10 09 10 41 1D  .....A........A.
00D0: 80 1E 80 03 10 05 10 B6  0D 17 80 05 10 1F 80 07  ................
00E0: 10 08 10 09 10 00                                 ......          
```

## Opcodes

```
  0: 0x00B3 [0x41] Work_Zone[7] = Work_Zone[3] (bits 0*-2*)
  1: 0x00BC [0x41] Work_Zone[8] = Work_Zone[3] (bits 3*-5*)
  2: 0x00C5 [0x41] Work_Zone[9] = Work_Zone[3] (bits 6*-8*)
  3: 0x00CE [0x41] Work_Zone[5] = Work_Zone[3] (bits 9*-11*)
  4: 0x00D7 [0xB6] ENTITY_APPEARANCE_HANDLER(case=Look with Render flags, race=0*, face=Work_Zone[5], head=1*, body=Work_Zone[7], hands=Work_Zone[8], render_flags=0x1009)
  5: 0x00E5 [0x00] END_REQSTACK()
```
