# Event 65535

## Metadata

| Field           | Value    |
|-----------------|----------|
| Event Index     | 23/35    |
| Offset          | 0x01EA   |
| Data Size       | 54 bytes |
| Calculated Size | 54 bytes |
| Instructions    | 12       |

```
      00 01 02 03 04 05 06 07  08 09 0A 0B 0C 0D 0E 0F
      -- -- -- -- -- -- -- --  -- -- -- -- -- -- -- --
01E0:                                32 28 80 1F 00 5E            2(...^
01F0: 80 5F 80 60 80 1F 01 1F  00 61 80 62 80 63 80 1F  ._.`.....a.b.c..
0200: 01 1F 00 64 80 65 80 66  80 1F 01 1F 00 67 80 68  ...d.e.f.....g.h
0210: 80 69 80 1F 01 1F 00 6A  80 6B 80 6C 80 1F 01 00  .i.....j.k.l....
```

## Opcodes

```
  0: 0x01EA [0x32] ExtData[1]->MainSpeed = 70* * 0.1
  1: 0x01ED [0x1F] MOVE_ENTITY: EventEntity moves to X=9.872*, Z=-704.751*, Y=-2.965*
  2: 0x01F5 [0x1F] MOVE_ENTITY: Update entity position (mode=1)
  3: 0x01F7 [0x1F] MOVE_ENTITY: EventEntity moves to X=4.434*, Z=-701.594*, Y=-3.754*
  4: 0x01FF [0x1F] MOVE_ENTITY: Update entity position (mode=1)
  5: 0x0201 [0x1F] MOVE_ENTITY: EventEntity moves to X=-8.138*, Z=-699.547*, Y=-3.294*
  6: 0x0209 [0x1F] MOVE_ENTITY: Update entity position (mode=1)
  7: 0x020B [0x1F] MOVE_ENTITY: EventEntity moves to X=-15.567*, Z=-694.380*, Y=-3.321*
  8: 0x0213 [0x1F] MOVE_ENTITY: Update entity position (mode=1)
  9: 0x0215 [0x1F] MOVE_ENTITY: EventEntity moves to X=-21.692*, Z=-685.077*, Y=-3.541*
 10: 0x021D [0x1F] MOVE_ENTITY: Update entity position (mode=1)
 11: 0x021F [0x00] END_REQSTACK()
```
