# Event 575

## Metadata

| Field           | Value    |
|-----------------|----------|
| Event Index     | 11/53    |
| Offset          | 0x0085   |
| Data Size       | 23 bytes |
| Calculated Size | 23 bytes |
| Instructions    | 11       |

```
      00 01 02 03 04 05 06 07  08 09 0A 0B 0C 0D 0E 0F
      -- -- -- -- -- -- -- --  -- -- -- -- -- -- -- --
0080:                42 03 02  10 02 80 1E F0 FF FF 7F       B..........
0090: 6F 70 1D 04 80 23 1D 05  80 23 21 00              op...#...#!.    
```

## Opcodes

```
  0: 0x0085 [0x42] SET_CLI_EVENT_CANCEL_DATA()
  1: 0x0086 [0x03] Work_Zone[2] = 720*
  2: 0x008B [0x1E] EventEntity looks at LocalPlayer and starts talking
  3: 0x0090 [0x6F] WAIT_FRAME_DELAY: Yield until WaitTime reaches zero
  4: 0x0091 [0x70] WAIT_ENTITY_RENDER_FLAG: Wait while EventEntity->Render.Flags3 bit 2 is set (cancel turn if not)
  5: 0x0092 [0x1D] PRINT_EVENT_MESSAGE(message_id=11809*)
    → "You failed to oust the intruders from Monarch Linn!?\u0007And you lost the \u0001\u00053\u0002\u0000\u0000\u0000 into the bargain...!?\u007F1\u0000\u0007"
  6: 0x0095 [0x23] WAIT_FOR_DIALOG_INTERACTION
  7: 0x0096 [0x1D] PRINT_EVENT_MESSAGE(message_id=11810*)
    → "It will take some time to have another permit approved.\u0007You may as well return to your adventures for a while.\u0007(This is what I deserve for trusting an adventurer...)\u007F1\u0000\u0007"
  8: 0x0099 [0x23] WAIT_FOR_DIALOG_INTERACTION
  9: 0x009A [0x21] END_EVENT
 10: 0x009B [0x00] END_REQSTACK()
```
