# Event 65535

## Metadata

| Field           | Value    |
|-----------------|----------|
| Event Index     | 38/48    |
| Offset          | 0x039B   |
| Data Size       | 57 bytes |
| Calculated Size | 57 bytes |
| Instructions    | 5        |

```
      00 01 02 03 04 05 06 07  08 09 0A 0B 0C 0D 0E 0F
      -- -- -- -- -- -- -- --  -- -- -- -- -- -- -- --
0390:                                   5B 37 80 8B 02             [7...
03A0: 05 01 8B 02 05 01 64 6E  63 30 53 8B 02 05 01 8B  ......dnc0S.....
03B0: 02 05 01 64 6E 63 30 5B  37 80 8B 02 05 01 8B 02  ...dnc0[7.......
03C0: 05 01 64 6E 63 31 53 8B  02 05 01 8B 02 05 01 64  ..dnc1S........d
03D0: 6E 63 31 00                                       nc1.            
```

## Opcodes

```
  0: 0x039B [0x5B] LOAD_EXT_SCHEDULER(work_offset=2494*, entity1=Mayakov (ID: 17105547/0x0105028B), entity2=Mayakov (ID: 17105547/0x0105028B), action="dnc0")
  1: 0x03AA [0x53] WAIT_SCHEDULER_TASK(entity1=Mayakov (ID: 17105547/0x0105028B), entity2=Mayakov (ID: 17105547/0x0105028B), action_id="dnc0")
  2: 0x03B7 [0x5B] LOAD_EXT_SCHEDULER(work_offset=2494*, entity1=Mayakov (ID: 17105547/0x0105028B), entity2=Mayakov (ID: 17105547/0x0105028B), action="dnc1")
  3: 0x03C6 [0x53] WAIT_SCHEDULER_TASK(entity1=Mayakov (ID: 17105547/0x0105028B), entity2=Mayakov (ID: 17105547/0x0105028B), action_id="dnc1")
  4: 0x03D3 [0x00] END_REQSTACK()
```
