# Event 65535

## Metadata

| Field           | Value    |
|-----------------|----------|
| Event Index     | 30/48    |
| Offset          | 0x0276   |
| Data Size       | 65 bytes |
| Calculated Size | 65 bytes |
| Instructions    | 12       |

```
      00 01 02 03 04 05 06 07  08 09 0A 0B 0C 0D 0E 0F
      -- -- -- -- -- -- -- --  -- -- -- -- -- -- -- --
0270:                   7B F8  FF FF 7F 59 04 F8 FF FF        {....Y....
0280: 7F 04 80 3A F8 FF FF 7F  05 10 07 05 10 27 80 4B  ...:.........'.K
0290: F8 FF FF 7F 05 10 6F 76  F8 FF FF 7F 1F 00 28 80  ......ov......(.
02A0: 29 80 00 80 1F 01 6F 5B  08 80 8B 02 05 01 8B 02  ).....o[........
02B0: 05 01 6D 73 64 30 00                              ..msd0.         
```

## Opcodes

```
  0: 0x0276 [0x7B] EventEntity stops talking
  1: 0x027B [0x59] UPDATE_ENTITY_DATA: Set EventEntity main speed = 13* * 0.1
  2: 0x0283 [0x3A] CONVERT_YAW_TO_BYTE(entity=EventEntity, result_destination=Work_Zone[5])
  3: 0x028A [0x07] Work_Zone[5] += 2000*
  4: 0x028F [0x4B] UPDATE_ENTITY_YAW(entity=EventEntity, yaw=Work_Zone[5])
  5: 0x0296 [0x6F] WAIT_FRAME_DELAY: Yield until WaitTime reaches zero
  6: 0x0297 [0x76] CHECK_ENTITY_RENDER_FLAGS: Wait until EventEntity Render.Flags0 and Render.Flags3 conditions are met
  7: 0x029C [0x1F] MOVE_ENTITY: EventEntity moves to X=117.253*, Z=93.154*, Y=0.000*
  8: 0x02A4 [0x1F] MOVE_ENTITY: Update entity position (mode=1)
  9: 0x02A6 [0x6F] WAIT_FRAME_DELAY: Yield until WaitTime reaches zero
 10: 0x02A7 [0x5B] LOAD_EXT_SCHEDULER: Load scheduler "msd0" with entities [Mayakov (ID: 17105547/0x0105028B), Mayakov (ID: 17105547/0x0105028B)], work=2173*
 11: 0x02B6 [0x00] END_REQSTACK()
```
