# Event 65535

## Metadata

| Field           | Value    |
|-----------------|----------|
| Event Index     | 23/48    |
| Offset          | 0x00FE   |
| Data Size       | 59 bytes |
| Calculated Size | 59 bytes |
| Instructions    | 12       |

```
      00 01 02 03 04 05 06 07  08 09 0A 0B 0C 0D 0E 0F
      -- -- -- -- -- -- -- --  -- -- -- -- -- -- -- --
00F0:                                            6B 69                ki
0100: 64 6C 30 F8 FF FF 7F 59  04 F8 FF FF 7F 09 80 1F  dl0....Y........
0110: 00 0E 80 0F 80 0C 80 1F  01 1F 00 10 80 11 80 0C  ................
0120: 80 1F 01 1F 00 12 80 13  80 0C 80 1F 01 1F 00 14  ................
0130: 80 15 80 16 80 1F 01 6F  00                       .......o.       
```

## Opcodes

```
  0: 0x00FE [0x6B] STOP_AND_IDLE: EventEntity stops current action and resets to idle (animation="idl0")
  1: 0x0107 [0x59] UPDATE_ENTITY_DATA: Set EventEntity main speed = 15* * 0.1
  2: 0x010F [0x1F] MOVE_ENTITY: EventEntity moves to X=97.173*, Z=119.989*, Y=-5.800*
  3: 0x0117 [0x1F] MOVE_ENTITY: Update entity position (mode=1)
  4: 0x0119 [0x1F] MOVE_ENTITY: EventEntity moves to X=96.653*, Z=121.414*, Y=-5.800*
  5: 0x0121 [0x1F] MOVE_ENTITY: Update entity position (mode=1)
  6: 0x0123 [0x1F] MOVE_ENTITY: EventEntity moves to X=96.753*, Z=122.903*, Y=-5.800*
  7: 0x012B [0x1F] MOVE_ENTITY: Update entity position (mode=1)
  8: 0x012D [0x1F] MOVE_ENTITY: EventEntity moves to X=102.671*, Z=129.677*, Y=-0.101*
  9: 0x0135 [0x1F] MOVE_ENTITY: Update entity position (mode=1)
 10: 0x0137 [0x6F] WAIT_FRAME_DELAY: Yield until WaitTime reaches zero
 11: 0x0138 [0x00] END_REQSTACK()
```
