# Event 65535

## Metadata

| Field           | Value    |
|-----------------|----------|
| Event Index     | 29/48    |
| Offset          | 0x0244   |
| Data Size       | 50 bytes |
| Calculated Size | 50 bytes |
| Instructions    | 9        |

```
      00 01 02 03 04 05 06 07  08 09 0A 0B 0C 0D 0E 0F
      -- -- -- -- -- -- -- --  -- -- -- -- -- -- -- --
0240:             59 04 F8 FF  FF 7F 04 80 1F 00 25 80      Y.........%.
0250: 26 80 00 80 1F 01 6F 4A  F8 FF FF 7F 83 02 05 01  &.....oJ........
0260: 6F 76 F8 FF FF 7F 5B 08  80 8B 02 05 01 8B 02 05  ov....[.........
0270: 01 6D 73 64 30 00                                 .msd0.          
```

## Opcodes

```
  0: 0x0244 [0x59] UPDATE_ENTITY_DATA: Set EventEntity main speed = 13* * 0.1
  1: 0x024C [0x1F] MOVE_ENTITY: EventEntity moves to X=117.681*, Z=92.433*, Y=0.000*
  2: 0x0254 [0x1F] MOVE_ENTITY: Update entity position (mode=1)
  3: 0x0256 [0x6F] WAIT_FRAME_DELAY: Yield until WaitTime reaches zero
  4: 0x0257 [0x4A] EventEntity looks at Lilisette (ID: 17105539/0x01050283)
  5: 0x0260 [0x6F] WAIT_FRAME_DELAY: Yield until WaitTime reaches zero
  6: 0x0261 [0x76] CHECK_ENTITY_RENDER_FLAGS: Wait until EventEntity Render.Flags0 and Render.Flags3 conditions are met
  7: 0x0266 [0x5B] LOAD_EXT_SCHEDULER(work_offset=2173*, entity1=Mayakov (ID: 17105547/0x0105028B), entity2=Mayakov (ID: 17105547/0x0105028B), action="msd0")
  8: 0x0275 [0x00] END_REQSTACK()
```
