# Event 65535

## Metadata

| Field           | Value    |
|-----------------|----------|
| Event Index     | 24/48    |
| Offset          | 0x0139   |
| Data Size       | 68 bytes |
| Calculated Size | 68 bytes |
| Instructions    | 13       |

```
      00 01 02 03 04 05 06 07  08 09 0A 0B 0C 0D 0E 0F
      -- -- -- -- -- -- -- --  -- -- -- -- -- -- -- --
0130:                             59 04 F8 FF FF 7F 04           Y......
0140: 80 1F 00 17 80 18 80 00  80 1F 01 1F 00 19 80 1A  ................
0150: 80 00 80 1F 01 1F 00 1B  80 1C 80 00 80 1F 01 6F  ...............o
0160: 4B F8 FF FF 7F 1D 80 6F  76 F8 FF FF 7F 5B 08 80  K......ov....[..
0170: 8B 02 05 01 8B 02 05 01  6D 73 64 30 00           ........msd0.   
```

## Opcodes

```
  0: 0x0139 [0x59] UPDATE_ENTITY_DATA: Set EventEntity main speed = 13* * 0.1
  1: 0x0141 [0x1F] MOVE_ENTITY: EventEntity moves to X=95.360*, Z=108.565*, Y=0.000*
  2: 0x0149 [0x1F] MOVE_ENTITY: Update entity position (mode=1)
  3: 0x014B [0x1F] MOVE_ENTITY: EventEntity moves to X=95.959*, Z=110.749*, Y=0.000*
  4: 0x0153 [0x1F] MOVE_ENTITY: Update entity position (mode=1)
  5: 0x0155 [0x1F] MOVE_ENTITY: EventEntity moves to X=94.733*, Z=111.145*, Y=0.000*
  6: 0x015D [0x1F] MOVE_ENTITY: Update entity position (mode=1)
  7: 0x015F [0x6F] WAIT_FRAME_DELAY: Yield until WaitTime reaches zero
  8: 0x0160 [0x4B] UPDATE_ENTITY_YAW(entity=EventEntity, yaw=14.3°*)
  9: 0x0167 [0x6F] WAIT_FRAME_DELAY: Yield until WaitTime reaches zero
 10: 0x0168 [0x76] CHECK_ENTITY_RENDER_FLAGS: Wait until EventEntity Render.Flags0 and Render.Flags3 conditions are met
 11: 0x016D [0x5B] LOAD_EXT_SCHEDULER: Load scheduler "msd0" with entities [Mayakov (ID: 17105547/0x0105028B), Mayakov (ID: 17105547/0x0105028B)], work=2173*
 12: 0x017C [0x00] END_REQSTACK()
```
