# Event 65535

## Metadata

| Field           | Value    |
|-----------------|----------|
| Event Index     | 33/48    |
| Offset          | 0x0300   |
| Data Size       | 40 bytes |
| Calculated Size | 40 bytes |
| Instructions    | 7        |

```
      00 01 02 03 04 05 06 07  08 09 0A 0B 0C 0D 0E 0F
      -- -- -- -- -- -- -- --  -- -- -- -- -- -- -- --
0300: 7B F8 FF FF 7F 59 04 F8  FF FF 7F 2E 80 1F 00 28  {....Y.........(
0310: 80 29 80 00 80 1F 01 6F  5B 08 80 8B 02 05 01 8B  .).....o[.......
0320: 02 05 01 6D 73 64 6C 00                           ...msdl.        
```

## Opcodes

```
  0: 0x0300 [0x7B] EventEntity stops talking
  1: 0x0305 [0x59] UPDATE_ENTITY_DATA: Set EventEntity main speed = 23* * 0.1
  2: 0x030D [0x1F] MOVE_ENTITY: EventEntity moves to X=117.253*, Z=93.154*, Y=0.000*
  3: 0x0315 [0x1F] MOVE_ENTITY: Update entity position (mode=1)
  4: 0x0317 [0x6F] WAIT_FRAME_DELAY: Yield until WaitTime reaches zero
  5: 0x0318 [0x5B] LOAD_EXT_SCHEDULER: Load scheduler "msdl" with entities [Mayakov (ID: 17105547/0x0105028B), Mayakov (ID: 17105547/0x0105028B)], work=2173*
  6: 0x0327 [0x00] END_REQSTACK()
```
