# Event 65535

## Metadata

| Field           | Value    |
|-----------------|----------|
| Event Index     | 44/48    |
| Offset          | 0x042D   |
| Data Size       | 70 bytes |
| Calculated Size | 70 bytes |
| Instructions    | 13       |

```
      00 01 02 03 04 05 06 07  08 09 0A 0B 0C 0D 0E 0F
      -- -- -- -- -- -- -- --  -- -- -- -- -- -- -- --
0420:                                         59 04 F8               Y..
0430: FF FF 7F 09 80 1F 00 3C  80 3D 80 20 80 1F 01 1F  .......<.=. ....
0440: 00 3E 80 3F 80 20 80 1F  01 1F 00 40 80 41 80 20  .>.?. .....@.A. 
0450: 80 1F 01 6F 4A F8 FF FF  7F F0 FF FF 7F 6F 76 F8  ...oJ........ov.
0460: FF FF 7F 5B 08 80 F8 FF  FF 7F F8 FF FF 7F 6D 73  ...[..........ms
0470: 64 30 00                                          d0.             
```

## Opcodes

```
  0: 0x042D [0x59] UPDATE_ENTITY_DATA: Set EventEntity main speed = 15* * 0.1
  1: 0x0435 [0x1F] MOVE_ENTITY: EventEntity moves to X=91.082*, Z=122.588*, Y=1.000*
  2: 0x043D [0x1F] MOVE_ENTITY: Update entity position (mode=1)
  3: 0x043F [0x1F] MOVE_ENTITY: EventEntity moves to X=89.679*, Z=120.100*, Y=1.000*
  4: 0x0447 [0x1F] MOVE_ENTITY: Update entity position (mode=1)
  5: 0x0449 [0x1F] MOVE_ENTITY: EventEntity moves to X=88.468*, Z=117.335*, Y=1.000*
  6: 0x0451 [0x1F] MOVE_ENTITY: Update entity position (mode=1)
  7: 0x0453 [0x6F] WAIT_FRAME_DELAY: Yield until WaitTime reaches zero
  8: 0x0454 [0x4A] EventEntity looks at LocalPlayer
  9: 0x045D [0x6F] WAIT_FRAME_DELAY: Yield until WaitTime reaches zero
 10: 0x045E [0x76] CHECK_ENTITY_RENDER_FLAGS: Wait until EventEntity Render.Flags0 and Render.Flags3 conditions are met
 11: 0x0463 [0x5B] LOAD_EXT_SCHEDULER: Load scheduler "msd0" with entities [EventEntity, EventEntity], work=2173*
 12: 0x0472 [0x00] END_REQSTACK()
```
