# Event 65535

## Metadata

| Field           | Value    |
|-----------------|----------|
| Event Index     | 11/21    |
| Offset          | 0x00E2   |
| Data Size       | 66 bytes |
| Calculated Size | 66 bytes |
| Instructions    | 6        |

```
      00 01 02 03 04 05 06 07  08 09 0A 0B 0C 0D 0E 0F
      -- -- -- -- -- -- -- --  -- -- -- -- -- -- -- --
00E0:       5B 04 80 F8 FF FF  7F F8 FF FF 7F 64 6C 30    [..........dl0
00F0: 35 1C 0A 80 45 0B 80 F0  FF FF 7F F0 FF FF 7F 62  5...E..........b
0100: 6C 6F 6E 0C 80 53 F8 FF  FF 7F F8 FF FF 7F 64 6C  lon..S........dl
0110: 30 35 45 0B 80 F0 FF FF  7F F0 FF FF 7F 62 6C 6F  05E..........blo
0120: 66 0C 80 00                                       f...            
```

## Opcodes

```
  0: 0x00E2 [0x5B] LOAD_EXT_SCHEDULER(work_offset=536*, entity1=EventEntity, entity2=EventEntity, action="dl05")
  1: 0x00F1 [0x1C] WAIT(90* ticks)
  2: 0x00F4 [0x45] LOAD_SCHEDULED_TASK(work_offset1=200*, entity1=LocalPlayer, entity2=LocalPlayer, scheduler_id="blon", work_offset2=0*)
  3: 0x0105 [0x53] WAIT_SCHEDULER_TASK(entity1=EventEntity, entity2=EventEntity, action_id="dl05")
  4: 0x0112 [0x45] LOAD_SCHEDULED_TASK(work_offset1=200*, entity1=LocalPlayer, entity2=LocalPlayer, scheduler_id="blof", work_offset2=0*)
  5: 0x0123 [0x00] END_REQSTACK()
```
