# Event 515

## Metadata

| Field           | Value    |
|-----------------|----------|
| Event Index     | 17/31    |
| Offset          | 0x0162   |
| Data Size       | 32 bytes |
| Calculated Size | 32 bytes |
| Instructions    | 10       |

```
      00 01 02 03 04 05 06 07  08 09 0A 0B 0C 0D 0E 0F
      -- -- -- -- -- -- -- --  -- -- -- -- -- -- -- --
0160:       27 08 62 E0 0E 01  04 1D 12 80 23 2A 08 62    '.b.......#*.b
0170: E0 0E 01 1D 13 80 23 29  08 62 E0 0E 01 05 20 00  ......#).b.... .
0180: 21 00                                             !.              
```

## Opcodes

```
  0: 0x0162 [0x27] REQ_SET(priority=0x08, entity_id=Moari-Kaaori (ID: 17752162/0x010EE062), tag_num=0x04)
  1: 0x0169 [0x1D] PRINT_EVENT_MESSAGE(message_id=8549*)
    → "The rarest, mysticalest, elegantest flower there is!\u007F1\u0000\u0007"
  2: 0x016C [0x23] WAIT_FOR_DIALOG_INTERACTION
  3: 0x016D [0x2A] GET_REQ_LEVEL(level=8, entity_id=Moari-Kaaori (ID: 17752162/0x010EE062))
  4: 0x0173 [0x1D] PRINT_EVENT_MESSAGE(message_id=8550*)
    → "What a blooming good idea! Now that it's arranged, I've got to do all the preparations that stem from it!\u007F1\u0000\u0007"
  5: 0x0176 [0x23] WAIT_FOR_DIALOG_INTERACTION
  6: 0x0177 [0x29] REQ_SET_WAIT(priority=0x08, entity_id=Moari-Kaaori (ID: 17752162/0x010EE062), tag_num=0x05)
  7: 0x017E [0x20] SET_CLI_EVENT_UC_FLAG: Unlock player control
  8: 0x0180 [0x21] END_EVENT
  9: 0x0181 [0x00] END_REQSTACK()
```
