# Event 523

## Metadata

| Field           | Value    |
|-----------------|----------|
| Event Index     | 27/31    |
| Offset          | 0x02C7   |
| Data Size       | 39 bytes |
| Calculated Size | 39 bytes |
| Instructions    | 10       |

```
      00 01 02 03 04 05 06 07  08 09 0A 0B 0C 0D 0E 0F
      -- -- -- -- -- -- -- --  -- -- -- -- -- -- -- --
02C0:                      29  08 62 E0 0E 01 04 1E F0         ).b......
02D0: FF FF 7F 6F 70 29 0B 62  E0 0E 01 1B 29 0B 62 E0  ...op).b....).b.
02E0: 0E 01 1C 29 08 62 E0 0E  01 05 20 00 21 00        ...).b.... .!.  
```

## Opcodes

```
  0: 0x02C7 [0x29] REQ_SET_WAIT(priority=0x08, entity_id=Moari-Kaaori (ID: 17752162/0x010EE062), tag_num=0x04)
  1: 0x02CE [0x1E] EventEntity looks at LocalPlayer and starts talking
  2: 0x02D3 [0x6F] WAIT_FRAME_DELAY: Yield until WaitTime reaches zero
  3: 0x02D4 [0x70] WAIT_ENTITY_RENDER_FLAG: Wait while EventEntity->Render.Flags3 bit 2 is set (cancel turn if not)
  4: 0x02D5 [0x29] REQ_SET_WAIT(priority=0x0B, entity_id=Moari-Kaaori (ID: 17752162/0x010EE062), tag_num=0x1B)
  5: 0x02DC [0x29] REQ_SET_WAIT(priority=0x0B, entity_id=Moari-Kaaori (ID: 17752162/0x010EE062), tag_num=0x1C)
  6: 0x02E3 [0x29] REQ_SET_WAIT(priority=0x08, entity_id=Moari-Kaaori (ID: 17752162/0x010EE062), tag_num=0x05)
  7: 0x02EA [0x20] SET_CLI_EVENT_UC_FLAG: Unlock player control
  8: 0x02EC [0x21] END_EVENT
  9: 0x02ED [0x00] END_REQSTACK()
```
