# Event 538

## Metadata

| Field           | Value    |
|-----------------|----------|
| Event Index     | 12/17    |
| Offset          | 0x007B   |
| Data Size       | 51 bytes |
| Calculated Size | 51 bytes |
| Instructions    | 11       |

```
      00 01 02 03 04 05 06 07  08 09 0A 0B 0C 0D 0E 0F
      -- -- -- -- -- -- -- --  -- -- -- -- -- -- -- --
0070:                                   1E F0 FF FF 7F             .....
0080: 1C 11 80 66 15 80 7F A0  01 01 7F A0 01 01 74 68  ...f..........th
0090: 6B 31 1D 16 80 23 1D 14  80 23 66 15 80 7F A0 01  k1...#...#f.....
00A0: 01 7F A0 01 01 74 68 6B  32 1C 11 80 21 00        .....thk2...!.  
```

## Opcodes

```
  0: 0x007B [0x1E] EventEntity looks at LocalPlayer and starts talking
  1: 0x0080 [0x1C] WAIT(30* ticks)
  2: 0x0083 [0x66] LOAD_EXT_SCHEDULER_MAIN(work_offset=20*, entity1=Enaremand (ID: 16883839/0x0101A07F), entity2=Enaremand (ID: 16883839/0x0101A07F), action="thk1")
  3: 0x0092 [0x1D] PRINT_EVENT_MESSAGE(message_id=11139*)
    → "I thought that in a p-place like this, I m-m-m-might be able to hide from the r-ridicule of the w-world. However, n-now that Tavnazia has reopened its doors to the outside...\u007F1\u0000\u0007"
  4: 0x0095 [0x23] WAIT_FOR_DIALOG_INTERACTION
  5: 0x0096 [0x1D] PRINT_EVENT_MESSAGE(message_id=11138*)
    → "Hm? Oh...um... Yes...\u0007Pay n-no heed t-to m-m-m-y ramblings...\u007F1\u0000\u0007"
  6: 0x0099 [0x23] WAIT_FOR_DIALOG_INTERACTION
  7: 0x009A [0x66] LOAD_EXT_SCHEDULER_MAIN(work_offset=20*, entity1=Enaremand (ID: 16883839/0x0101A07F), entity2=Enaremand (ID: 16883839/0x0101A07F), action="thk2")
  8: 0x00A9 [0x1C] WAIT(30* ticks)
  9: 0x00AC [0x21] END_EVENT
 10: 0x00AD [0x00] END_REQSTACK()
```
