# Event 541

## Metadata

| Field           | Value    |
|-----------------|----------|
| Event Index     | 15/17    |
| Offset          | 0x0102   |
| Data Size       | 48 bytes |
| Calculated Size | 48 bytes |
| Instructions    | 10       |

```
      00 01 02 03 04 05 06 07  08 09 0A 0B 0C 0D 0E 0F
      -- -- -- -- -- -- -- --  -- -- -- -- -- -- -- --
0100:       1E F0 FF FF 7F 66  15 80 7F A0 01 01 7F A0    .....f........
0110: 01 01 74 68 6B 31 1D 16  80 23 1D 1A 80 23 66 15  ..thk1...#...#f.
0120: 80 7F A0 01 01 7F A0 01  01 74 68 6B 32 1C 11 80  .........thk2...
0130: 21 00                                             !.              
```

## Opcodes

```
  0: 0x0102 [0x1E] EventEntity looks at LocalPlayer and starts talking
  1: 0x0107 [0x66] LOAD_EXT_SCHEDULER_MAIN: Load scheduler "thk1" with entities [Enaremand (ID: 16883839/0x0101A07F), Enaremand (ID: 16883839/0x0101A07F)], work=20*
  2: 0x0116 [0x1D] PRINT_EVENT_MESSAGE(message_id=11139*)
    → "I thought that in a p-place like this, I m-m-m-might be able to hide from the r-ridicule of the w-world. However, n-now that Tavnazia has reopened its doors to the outside...\u007F1\u0000\u0007"
  3: 0x0119 [0x23] WAIT_FOR_DIALOG_INTERACTION
  4: 0x011A [0x1D] PRINT_EVENT_MESSAGE(message_id=11140*)
    → "B-but...\u0007You understand...r-right? No?\u007F1\u0000\u0007"
  5: 0x011D [0x23] WAIT_FOR_DIALOG_INTERACTION
  6: 0x011E [0x66] LOAD_EXT_SCHEDULER_MAIN: Load scheduler "thk2" with entities [Enaremand (ID: 16883839/0x0101A07F), Enaremand (ID: 16883839/0x0101A07F)], work=20*
  7: 0x012D [0x1C] WAIT(30* ticks)
  8: 0x0130 [0x21] END_EVENT
  9: 0x0131 [0x00] END_REQSTACK()
```
