# Event 529

## Metadata

| Field           | Value    |
|-----------------|----------|
| Event Index     | 7/18     |
| Offset          | 0x011C   |
| Data Size       | 46 bytes |
| Calculated Size | 46 bytes |
| Instructions    | 14       |

```
      00 01 02 03 04 05 06 07  08 09 0A 0B 0C 0D 0E 0F
      -- -- -- -- -- -- -- --  -- -- -- -- -- -- -- --
0110:                                      42 20 01 1E              B ..
0120: F0 FF FF 7F 6F 70 66 08  80 F8 FF FF 7F F8 FF FF  ....opf.........
0130: 7F 74 6C 6B 30 03 02 10  0B 80 1D 18 80 23 5E 69  .tlk0........#^i
0140: 64 6C 30 1C 0A 80 20 00  21 00                    dl0... .!.      
```

## Opcodes

```
  0: 0x011C [0x42] SET_CLI_EVENT_CANCEL_DATA()
  1: 0x011D [0x20] SET_CLI_EVENT_UC_FLAG: Lock player control
  2: 0x011F [0x1E] EventEntity looks at LocalPlayer and starts talking
  3: 0x0124 [0x6F] WAIT_FRAME_DELAY: Yield until WaitTime reaches zero
  4: 0x0125 [0x70] WAIT_ENTITY_RENDER_FLAG: Wait while EventEntity->Render.Flags3 bit 2 is set (cancel turn if not)
  5: 0x0126 [0x66] LOAD_EXT_SCHEDULER_MAIN: Load scheduler "tlk0" with entities [EventEntity, EventEntity], work=50*
  6: 0x0135 [0x03] Work_Zone[2] = 505*
  7: 0x013A [0x1D] PRINT_EVENT_MESSAGE(message_id=7858*)
    → "What about the \u0001\u0005%\u0002\u0000\u0000\u0000? I'll need three of them before I can make anything for you, sorry...\u007F1\u0000\u0007"
  8: 0x013D [0x23] WAIT_FOR_DIALOG_INTERACTION
  9: 0x013E [0x5E] EventEntity goes idle (kills current action) (animation: "idl0")
 10: 0x0143 [0x1C] WAIT(30* ticks)
 11: 0x0146 [0x20] SET_CLI_EVENT_UC_FLAG: Unlock player control
 12: 0x0148 [0x21] END_EVENT
 13: 0x0149 [0x00] END_REQSTACK()
```
