# Event 65535

## Metadata

| Field           | Value    |
|-----------------|----------|
| Event Index     | 25/27    |
| Offset          | 0x096F   |
| Data Size       | 82 bytes |
| Calculated Size | 82 bytes |
| Instructions    | 10       |

```
      00 01 02 03 04 05 06 07  08 09 0A 0B 0C 0D 0E 0F
      -- -- -- -- -- -- -- --  -- -- -- -- -- -- -- --
0960:                                               52                 R
0970: 07 80 F0 FF FF 7F F0 FF  FF 7F 73 30 37 30 45 07  ..........s070E.
0980: 80 F0 FF FF 7F F0 FF FF  7F 73 30 37 31 05 80 27  .........s071..'
0990: 0A 5A 90 0F 01 0C 2A 0A  67 90 0F 01 79 00 67 90  .Z....*.g...y.g.
09A0: 0F 01 5A 90 0F 01 79 00  5A 90 0F 01 67 90 0F 01  ..Z...y.Z...g...
09B0: 1C 24 80 79 00 67 90 0F  01 50 90 0F 01 1C 25 80  .$.y.g...P....%.
09C0: 00                                                .               
```

## Opcodes

```
  0: 0x096F [0x52] END_LOAD_SCHEDULER: End scheduler "s070" with entities [LocalPlayer, LocalPlayer], work=16*
  1: 0x097E [0x45] LOAD_SCHEDULED_TASK: Load scheduler "s071" with entities [LocalPlayer, LocalPlayer], work=[16*, 0*]
  2: 0x098F [0x27] REQ_SET(priority=0x0A, entity_id=KOMISURA01 (ID: 17797210/0x010F905A), tag_num=0x0C)
  3: 0x0996 [0x2A] GET_REQ_LEVEL(level=10, entity_id=Perih Vashai (ID: 17797223/0x010F9067))
  4: 0x099C [0x79] Perih Vashai (ID: 17797223/0x010F9067) looks at KOMISURA01 (ID: 17797210/0x010F905A) (Basic look)
  5: 0x09A6 [0x79] KOMISURA01 (ID: 17797210/0x010F905A) looks at Perih Vashai (ID: 17797223/0x010F9067) (Basic look)
  6: 0x09B0 [0x1C] WAIT(90* ticks)
  7: 0x09B3 [0x79] Perih Vashai (ID: 17797223/0x010F9067) looks at Koh Lenbalalako (ID: 17797200/0x010F9050) (Basic look)
  8: 0x09BD [0x1C] WAIT(150* ticks)
  9: 0x09C0 [0x00] END_REQSTACK()
```
