# Event 65535

## Metadata

| Field           | Value    |
|-----------------|----------|
| Event Index     | 26/27    |
| Offset          | 0x09C1   |
| Data Size       | 64 bytes |
| Calculated Size | 64 bytes |
| Instructions    | 8        |

```
      00 01 02 03 04 05 06 07  08 09 0A 0B 0C 0D 0E 0F
      -- -- -- -- -- -- -- --  -- -- -- -- -- -- -- --
09C0:    52 07 80 F0 FF FF 7F  F0 FF FF 7F 73 30 37 31   R..........s071
09D0: 45 07 80 F0 FF FF 7F F0  FF FF 7F 73 30 37 32 05  E..........s072.
09E0: 80 27 0A 50 90 0F 01 11  1C 01 80 27 0A 5A 90 0F  .'.P.......'.Z..
09F0: 01 0D 29 08 67 90 0F 01  03 29 08 67 90 0F 01 04  ..).g....).g....
0A00: 00                                                .               
```

## Opcodes

```
  0: 0x09C1 [0x52] END_LOAD_SCHEDULER: End scheduler "s071" with entities [LocalPlayer, LocalPlayer], work=16*
  1: 0x09D0 [0x45] LOAD_SCHEDULED_TASK: Load scheduler "s072" with entities [LocalPlayer, LocalPlayer], work=[16*, 0*]
  2: 0x09E1 [0x27] REQ_SET(priority=0x0A, entity_id=Koh Lenbalalako (ID: 17797200/0x010F9050), tag_num=0x11)
  3: 0x09E8 [0x1C] WAIT(30* ticks)
  4: 0x09EB [0x27] REQ_SET(priority=0x0A, entity_id=KOMISURA01 (ID: 17797210/0x010F905A), tag_num=0x0D)
  5: 0x09F2 [0x29] REQ_SET_WAIT(priority=0x08, entity_id=Perih Vashai (ID: 17797223/0x010F9067), tag_num=0x03)
  6: 0x09F9 [0x29] REQ_SET_WAIT(priority=0x08, entity_id=Perih Vashai (ID: 17797223/0x010F9067), tag_num=0x04)
  7: 0x0A00 [0x00] END_REQSTACK()
```
