# 17764530 - Abby Jalunshi

## Common Data

| Field            | Value                    |
|------------------|--------------------------|
| Zone             | Windurst Woods (ID: 241) |
| Block Size       | 876 bytes                |
| Total Events     | 19                       |
| References Count | 39                       |

## List of Events

| Event ID                   | Entrypoint   |   Size |   Instructions |
|----------------------------|--------------|--------|----------------|
| [65535](#event-65535)      | 0x0000       |      1 |              1 |
| [798](#event-798)          | 0x0001       |    208 |             50 |
| [65535.1](#event-655351)   | 0x00D1       |     16 |              2 |
| [65535.2](#event-655352)   | 0x00E1       |      9 |              3 |
| [362](#event-362)          | 0x00EA       |     72 |             17 |
| [363](#event-363)          | 0x0132       |     72 |             17 |
| [65535.3](#event-655353)   | 0x017A       |      9 |              5 |
| [65535.4](#event-655354)   | 0x0183       |     17 |              9 |
| [65535.5](#event-655355)   | 0x0194       |      9 |              5 |
| [65535.6](#event-655356)   | 0x019D       |      5 |              3 |
| [364](#event-364)          | 0x01A2       |     73 |             18 |
| [65535.7](#event-655357)   | 0x01EB       |     13 |              7 |
| [65535.8](#event-655358)   | 0x01F8       |      5 |              3 |
| [365](#event-365)          | 0x01FD       |     18 |              7 |
| [65535.9](#event-655359)   | 0x020F       |      9 |              5 |
| [366](#event-366)          | 0x0218       |     73 |             18 |
| [65535.10](#event-6553510) | 0x0261       |     13 |              7 |
| [65535.11](#event-6553511) | 0x026E       |      5 |              3 |
| [367](#event-367)          | 0x0273       |      1 |              1 |

## DAT References (imed_data)

|   Index | Hex Value   |   Dec Value |
|---------|-------------|-------------|
|       0 | 0x0000      |           0 |
|       1 | 0x0006      |           6 |
|       2 | 0x0002      |           2 |
|       3 | 0x0001      |           1 |
|       4 | 0x33D3      |       13267 |
|       5 | 0x33D4      |       13268 |
|       6 | 0x33DC      |       13276 |
|       7 | 0x33D8      |       13272 |
|       8 | 0x33D5      |       13269 |
|       9 | 0x33D6      |       13270 |
|      10 | 0x33D7      |       13271 |
|      11 | 0x001F      |          31 |
|      12 | 0xFFFFFFFF  |  4294967295 |
|      13 | 0x33DD      |       13277 |
|      14 | 0x33DB      |       13275 |
|      15 | 0x0032      |          50 |
|      16 | 0x001E      |          30 |
|      17 | 0x207B      |        8315 |
|      18 | 0x2079      |        8313 |
|      19 | 0x207A      |        8314 |
|      20 | 0x207C      |        8316 |
|      21 | 0x207D      |        8317 |
|      22 | 0x207E      |        8318 |
|      23 | 0x207F      |        8319 |
|      24 | 0x2080      |        8320 |
|      25 | 0x2081      |        8321 |
|      26 | 0x2082      |        8322 |
|      27 | 0x2086      |        8326 |
|      28 | 0x2083      |        8323 |
|      29 | 0x2084      |        8324 |
|      30 | 0x2085      |        8325 |
|      31 | 0x2087      |        8327 |
|      32 | 0x2088      |        8328 |
|      33 | 0x2089      |        8329 |
|      34 | 0x208D      |        8333 |
|      35 | 0x208A      |        8330 |
|      36 | 0x208B      |        8331 |
|      37 | 0x208C      |        8332 |
|      38 | 0x208E      |        8334 |

## String References

- **8313**: Through this archway lies Windurst's residential area. There is a Mog House room preparrred for your use in there.
- **8314**: Say... You haven't had Mog Houses explained to you beforrre? Well then, allow me to fill you in!
- **8315**: Listen to Mog House explanation? [Yes./No.]
- **8316**: A Mog House is your own perrrsonal apartment room provided for your convenience.
- **8317**: Within your Mog House, you can storrre items, change jobs, and heal your HP and MP.
- **8318**: You're a citizen of Windurst, right? Then there's no hassle. You should already have a Mog House preparrred for you up the stairs here.
- **8319**: It's your own room, so you can use it however you see fit. Why don't you go up there now and take a little nap to refrrresh yourself?
- **8320**: Through this archway lies Windurst's residential area. There is a Mog House room preparrred for your use in there.
- **8321**: Say what...? You want to hearrr my explanation of Mog Houses again, do you?
- **8322**: Oh well... Yourrr loss.
- **8323**: Through this archway lies Windurst's residential area. There is a Mog House room preparrred for your use in there.
- **8324**: Let me see... You currently have a Rent-a-Room leased out in [San d'Oria/Bastok/Windurst/Jeuno/Kazham/Rabao/Norg/Al Zahbi], rrright?
- **8325**: Do you want me to returrrn the Rent-a-Room in [San d'Oria/Bastok/Windurst/Jeuno/Kazham/Rabao/Norg/Al Zahbi], and have your belongings brought back to your Mog House here in Windurst?
- **8326**: Move out of Rent-a-Room? [Yes./No.]
- **8327**: Ho-hum...ho-hum... There, it's all settled. The keys to your Rent-a-Room in [San d'Oria/Bastok/Windurst/Jeuno/Kazham/Rabao/Norg/Al Zahbi] have been returrrned. Have a pleasant rest.
- **8328**: Beyond this arrrchway is Windurst's residential area, where there are Mog Houses and Rent-a-Rooms available for people's use.
- **8329**: Say what...? You already have a Rent-a-Room! In that case, you can go directly into your room. You don't have to come and get perrrmission from me every time, you know?
- **8330**: Beyond this arrrchway is Windurst's residential area, where there are Mog Houses and Rent-a-Rooms available for people's use.
- **8331**: Let me see... You're not a citizen of Windurst, rrright? In that case, do you want me to prepare a Rent-a-Room for you here?
- **8332**: When you lease a Rent-a-Room here, you can use that room as you would use your own personal Mog House back in your home country. Prrretty convenient, huh?
- **8333**: Lease a Rent-a-Room? [Yes./No.]
- **8334**: Ho-hum...ho-hum... There, it's all settled. You now have your own Rent-a-Room preparrred for your use in Windurst's residential area behind me. Have a pleasant stay.
- **13267**: Through this archway lies Windurst's residential area. There is a Mog House room preparrred for your use in there.
- **13268**: Beyond this arrrchway is Windurst's residential area, where there are Mog Houses and Rent-a-Rooms available for people's use.
- **13269**: A Mog House is your own perrrsonal apartment room provided for your convenience.
- **13270**: Within your Mog House, you can storrre items, change jobs, and heal your HP and MP.
- **13271**: It's your own room, so you can use it however you see fit. Why don't you go up there now and take a little nap to refrrresh yourself?
- **13272**: Oh well... Yourrr loss.
- **13275**: Rrright this way.
- **13276**: What do you wish to do? [Nothing in particular./Ask for an explanation of Mog Houses./Visit the Mog House of a party member.]
- **13277**: Whose Mog House will you visit? [Never mind./%1/%2/%3/%4/%5/%6/%7/%8/%9/%10/%11/%12/%13/%14/%15/%16/%17]

## Events

### Event 65535

#### Metadata

| Field        | Value   |
|--------------|---------|
| Entrypoint   | 0x0000  |
| Data Size    | 1 bytes |
| Instructions | 1       |

```
      00 01 02 03 04 05 06 07  08 09 0A 0B 0C 0D 0E 0F
      -- -- -- -- -- -- -- --  -- -- -- -- -- -- -- --
0000: 00                                                .               
```

#### Opcodes

```
  0: 0x0000 [0x00] END_REQSTACK()
```

### Event 798

#### Metadata

| Field        | Value     |
|--------------|-----------|
| Entrypoint   | 0x0001    |
| Data Size    | 208 bytes |
| Instructions | 50        |

```
      00 01 02 03 04 05 06 07  08 09 0A 0B 0C 0D 0E 0F
      -- -- -- -- -- -- -- --  -- -- -- -- -- -- -- --
0000:    02 00 00 00 80 00 D0  00 03 01 10 00 80 03 02   ...............
0010: 00 01 80 C2 01 01 00 02  01 00 00 80 01 26 00 3D  .............&.=
0020: 02 00 02 80 03 80 1E F0  FF FF 7F 02 02 10 02 80  ................
0030: 00 41 00 1D 04 80 23 3D  02 00 03 80 03 80 01 45  .A....#=.......E
0040: 00 1D 05 80 23 02 02 00  01 80 01 CF 00 24 06 80  ....#........$..
0050: 00 80 02 00 25 02 00 10  00 80 00 64 00 1D 07 80  ....%......d....
0060: 23 01 CF 00 02 00 10 03  80 00 82 00 1D 08 80 23  #..............#
0070: 1D 09 80 23 1D 0A 80 23  3C 01 10 0B 80 03 80 01  ...#...#<.......
0080: CF 00 02 00 10 02 80 00  CF 00 C2 01 01 00 0F 01  ................
0090: 00 0C 80 3D 01 00 00 80  03 80 24 0D 80 00 80 01  ...=......$.....
00A0: 00 25 02 00 10 00 80 00  B1 00 1D 07 80 23 01 B1  .%...........#..
00B0: 00 02 00 10 00 80 00 C1  00 03 01 10 00 80 01 CC  ................
00C0: 00 42 1D 0E 80 23 C2 02  00 10 01 10 01 CF 00 21  .B...#.........!
00D0: 00                                                .               
```

#### Opcodes

```
  0: 0x0001 [0x02] IF !(ExtData[1]->WorkLocal[0] == 0*) GOTO 0x00D0
  1: 0x0009 [0x03] Work_Zone[1] = 0*
  2: 0x000E [0x03] ExtData[1]->WorkLocal[2] = 6*
  3: 0x0013 [0xC2] PARTY_STATE_CHECK: ExtData[1]->WorkLocal[1] = mask of visitable party members
  4: 0x0017 [0x02] IF !(ExtData[1]->WorkLocal[1] == 0*) GOTO 0x0026
  5: 0x001F [0x3D] CLEAR_BIT_FLAG_CONDITIONAL(target_work_offset=ExtData[1]->WorkLocal[2], bit_index_work_offset=2*, condition_work_offset=1*)
  6: 0x0026 [0x1E] EventEntity looks at LocalPlayer and starts talking
  7: 0x002B [0x02] IF !(Work_Zone[2] == 2*) GOTO 0x0041
  8: 0x0033 [0x1D] PRINT_EVENT_MESSAGE(message_id=13267*)
    → "Through this archway lies Windurst's residential area. There is a Mog House room preparrred for your use in there."
  9: 0x0036 [0x23] WAIT_FOR_DIALOG_INTERACTION
 10: 0x0037 [0x3D] CLEAR_BIT_FLAG_CONDITIONAL(target_work_offset=ExtData[1]->WorkLocal[2], bit_index_work_offset=1*, condition_work_offset=1*)
 11: 0x003E [0x01] GOTO 0x0045
 12: 0x0041 [0x1D] PRINT_EVENT_MESSAGE(message_id=13268*)
    → "Beyond this arrrchway is Windurst's residential area, where there are Mog Houses and Rent-a-Rooms available for people's use."
 13: 0x0044 [0x23] WAIT_FOR_DIALOG_INTERACTION

SUBROUTINE_0045:
 14: 0x0045 [0x02] IF !(ExtData[1]->WorkLocal[2] == 6*) GOTO 0x00CF
 15: 0x004D [0x24] CREATE_DIALOG(message_id=13276*, default_option=0*, option_flags=ExtData[1]->WorkLocal[2])
    → "What do you wish to do? [Nothing in particular./Ask for an explanation of Mog Houses./Visit the Mog House of a party member.]"
 16: 0x0054 [0x25] WAIT_DIALOG_SELECT()
 17: 0x0055 [0x02] IF !(Work_Zone[0] == 0*) GOTO 0x0064
 18: 0x005D [0x1D] PRINT_EVENT_MESSAGE(message_id=13272*)
    → "Oh well... Yourrr loss."
 19: 0x0060 [0x23] WAIT_FOR_DIALOG_INTERACTION
 20: 0x0061 [0x01] GOTO 0x00CF
 21: 0x0064 [0x02] IF !(Work_Zone[0] == 1*) GOTO 0x0082
 22: 0x006C [0x1D] PRINT_EVENT_MESSAGE(message_id=13269*)
    → "A Mog House is your own perrrsonal apartment room provided for your convenience."
 23: 0x006F [0x23] WAIT_FOR_DIALOG_INTERACTION
 24: 0x0070 [0x1D] PRINT_EVENT_MESSAGE(message_id=13270*)
    → "Within your Mog House, you can storrre items, change jobs, and heal your HP and MP."
 25: 0x0073 [0x23] WAIT_FOR_DIALOG_INTERACTION
 26: 0x0074 [0x1D] PRINT_EVENT_MESSAGE(message_id=13271*)
    → "It's your own room, so you can use it however you see fit. Why don't you go up there now and take a little nap to refrrresh yourself?"
 27: 0x0077 [0x23] WAIT_FOR_DIALOG_INTERACTION
 28: 0x0078 [0x3C] SET_BIT_FLAG_CONDITIONAL(target_work_offset=Work_Zone[1], bit_index_work_offset=31*, condition_work_offset=1*)
 29: 0x007F [0x01] GOTO 0x00CF
 30: 0x0082 [0x02] IF !(Work_Zone[0] == 2*) GOTO 0x00CF
 31: 0x008A [0xC2] PARTY_STATE_CHECK: ExtData[1]->WorkLocal[1] = mask of visitable party members
 32: 0x008E [0x0F] ExtData[1]->WorkLocal[1] ^= 4294967295*
 33: 0x0093 [0x3D] CLEAR_BIT_FLAG_CONDITIONAL(target_work_offset=ExtData[1]->WorkLocal[1], bit_index_work_offset=0*, condition_work_offset=1*)
 34: 0x009A [0x24] CREATE_DIALOG(message_id=13277*, default_option=0*, option_flags=ExtData[1]->WorkLocal[1])
    → "Whose Mog House will you visit? [Never mind./%1/%2/%3/%4/%5/%6/%7/%8/%9/%10/%11/%12/%13/%14/%15/%16/%17]"
 35: 0x00A1 [0x25] WAIT_DIALOG_SELECT()
 36: 0x00A2 [0x02] IF !(Work_Zone[0] == 0*) GOTO 0x00B1
 37: 0x00AA [0x1D] PRINT_EVENT_MESSAGE(message_id=13272*)
    → "Oh well... Yourrr loss."
 38: 0x00AD [0x23] WAIT_FOR_DIALOG_INTERACTION
 39: 0x00AE [0x01] GOTO 0x00B1

SUBROUTINE_00B1:
 40: 0x00B1 [0x02] IF !(Work_Zone[0] == 0*) GOTO 0x00C1
 41: 0x00B9 [0x03] Work_Zone[1] = 0*
 42: 0x00BE [0x01] GOTO 0x00CC
 43: 0x00C1 [0x42] SET_CLI_EVENT_CANCEL_DATA()
 44: 0x00C2 [0x1D] PRINT_EVENT_MESSAGE(message_id=13275*)
    → "Rrright this way."
 45: 0x00C5 [0x23] WAIT_FOR_DIALOG_INTERACTION
 46: 0x00C6 [0xC2] PARTY_STATE_CHECK: Work_Zone[1] = check if party member (from Work_Zone[0]) house is open

SUBROUTINE_00CC:
 47: 0x00CC [0x01] GOTO 0x00CF

SUBROUTINE_00CF:
 48: 0x00CF [0x21] END_EVENT
 49: 0x00D0 [0x00] END_REQSTACK()
```

### Event 65535.1

#### Metadata

| Field        | Value    |
|--------------|----------|
| Entrypoint   | 0x00D1   |
| Data Size    | 16 bytes |
| Instructions | 2        |

```
      00 01 02 03 04 05 06 07  08 09 0A 0B 0C 0D 0E 0F
      -- -- -- -- -- -- -- --  -- -- -- -- -- -- -- --
00D0:    66 0F 80 F8 FF FF 7F  F8 FF FF 7F 74 6C 6B 30   f..........tlk0
00E0: 00                                                .               
```

#### Opcodes

```
  0: 0x00D1 [0x66] LOAD_EXT_SCHEDULER_MAIN: Load scheduler "tlk0" with entities [EventEntity, EventEntity], work=50*
  1: 0x00E0 [0x00] END_REQSTACK()
```

### Event 65535.2

#### Metadata

| Field        | Value   |
|--------------|---------|
| Entrypoint   | 0x00E1  |
| Data Size    | 9 bytes |
| Instructions | 3       |

```
      00 01 02 03 04 05 06 07  08 09 0A 0B 0C 0D 0E 0F
      -- -- -- -- -- -- -- --  -- -- -- -- -- -- -- --
00E0:    5E 69 64 6C 30 1C 10  80 00                     ^idl0....      
```

#### Opcodes

```
  0: 0x00E1 [0x5E] EventEntity goes idle (kills current action) (animation: "idl0")
  1: 0x00E6 [0x1C] WAIT(30* ticks)
  2: 0x00E9 [0x00] END_REQSTACK()
```

### Event 362

#### Metadata

| Field        | Value    |
|--------------|----------|
| Entrypoint   | 0x00EA   |
| Data Size    | 72 bytes |
| Instructions | 17       |

```
      00 01 02 03 04 05 06 07  08 09 0A 0B 0C 0D 0E 0F
      -- -- -- -- -- -- -- --  -- -- -- -- -- -- -- --
00E0:                                1E F0 FF FF 7F 6F            .....o
00F0: 70 29 0B B2 10 0F 01 06  24 11 80 00 80 00 80 25  p)......$......%
0100: 02 00 10 00 80 00 17 01  03 01 10 00 80 29 0B B2  .............)..
0110: 10 0F 01 07 01 2E 01 02  00 10 03 80 00 2E 01 03  ................
0120: 01 10 03 80 29 0B B2 10  0F 01 09 01 2E 01 20 00  ....)......... .
0130: 21 00                                             !.              
```

#### Opcodes

```
  0: 0x00EA [0x1E] EventEntity looks at LocalPlayer and starts talking
  1: 0x00EF [0x6F] WAIT_FRAME_DELAY: Yield until WaitTime reaches zero
  2: 0x00F0 [0x70] WAIT_ENTITY_RENDER_FLAG: Wait while EventEntity->Render.Flags3 bit 2 is set (cancel turn if not)
  3: 0x00F1 [0x29] REQ_SET_WAIT(priority=0x0B, entity_id=Abby Jalunshi (ID: 17764530/0x010F10B2), tag_num=0x06)
  4: 0x00F8 [0x24] CREATE_DIALOG(message_id=8315*, default_option=0*, option_flags=0*)
    → "Listen to Mog House explanation? [Yes./No.]"
  5: 0x00FF [0x25] WAIT_DIALOG_SELECT()
  6: 0x0100 [0x02] IF !(Work_Zone[0] == 0*) GOTO 0x0117
  7: 0x0108 [0x03] Work_Zone[1] = 0*
  8: 0x010D [0x29] REQ_SET_WAIT(priority=0x0B, entity_id=Abby Jalunshi (ID: 17764530/0x010F10B2), tag_num=0x07)
  9: 0x0114 [0x01] GOTO 0x012E
 10: 0x0117 [0x02] IF !(Work_Zone[0] == 1*) GOTO 0x012E
 11: 0x011F [0x03] Work_Zone[1] = 1*
 12: 0x0124 [0x29] REQ_SET_WAIT(priority=0x0B, entity_id=Abby Jalunshi (ID: 17764530/0x010F10B2), tag_num=0x09)
 13: 0x012B [0x01] GOTO 0x012E

SUBROUTINE_012E:
 14: 0x012E [0x20] SET_CLI_EVENT_UC_FLAG: Unlock player control
 15: 0x0130 [0x21] END_EVENT
 16: 0x0131 [0x00] END_REQSTACK()
```

### Event 363

#### Metadata

| Field        | Value    |
|--------------|----------|
| Entrypoint   | 0x0132   |
| Data Size    | 72 bytes |
| Instructions | 17       |

```
      00 01 02 03 04 05 06 07  08 09 0A 0B 0C 0D 0E 0F
      -- -- -- -- -- -- -- --  -- -- -- -- -- -- -- --
0130:       1E F0 FF FF 7F 6F  70 29 0B B2 10 0F 01 08    .....op)......
0140: 24 11 80 03 80 00 80 25  02 00 10 00 80 00 5F 01  $......%......_.
0150: 03 01 10 00 80 29 0B B2  10 0F 01 07 01 76 01 02  .....).......v..
0160: 00 10 03 80 00 76 01 03  01 10 03 80 29 0B B2 10  .....v......)...
0170: 0F 01 09 01 76 01 20 00  21 00                    ....v. .!.      
```

#### Opcodes

```
  0: 0x0132 [0x1E] EventEntity looks at LocalPlayer and starts talking
  1: 0x0137 [0x6F] WAIT_FRAME_DELAY: Yield until WaitTime reaches zero
  2: 0x0138 [0x70] WAIT_ENTITY_RENDER_FLAG: Wait while EventEntity->Render.Flags3 bit 2 is set (cancel turn if not)
  3: 0x0139 [0x29] REQ_SET_WAIT(priority=0x0B, entity_id=Abby Jalunshi (ID: 17764530/0x010F10B2), tag_num=0x08)
  4: 0x0140 [0x24] CREATE_DIALOG(message_id=8315*, default_option=1*, option_flags=0*)
    → "Listen to Mog House explanation? [Yes./No.]"
  5: 0x0147 [0x25] WAIT_DIALOG_SELECT()
  6: 0x0148 [0x02] IF !(Work_Zone[0] == 0*) GOTO 0x015F
  7: 0x0150 [0x03] Work_Zone[1] = 0*
  8: 0x0155 [0x29] REQ_SET_WAIT(priority=0x0B, entity_id=Abby Jalunshi (ID: 17764530/0x010F10B2), tag_num=0x07)
  9: 0x015C [0x01] GOTO 0x0176
 10: 0x015F [0x02] IF !(Work_Zone[0] == 1*) GOTO 0x0176
 11: 0x0167 [0x03] Work_Zone[1] = 1*
 12: 0x016C [0x29] REQ_SET_WAIT(priority=0x0B, entity_id=Abby Jalunshi (ID: 17764530/0x010F10B2), tag_num=0x09)
 13: 0x0173 [0x01] GOTO 0x0176

SUBROUTINE_0176:
 14: 0x0176 [0x20] SET_CLI_EVENT_UC_FLAG: Unlock player control
 15: 0x0178 [0x21] END_EVENT
 16: 0x0179 [0x00] END_REQSTACK()
```

### Event 65535.3

#### Metadata

| Field        | Value   |
|--------------|---------|
| Entrypoint   | 0x017A  |
| Data Size    | 9 bytes |
| Instructions | 5       |

```
      00 01 02 03 04 05 06 07  08 09 0A 0B 0C 0D 0E 0F
      -- -- -- -- -- -- -- --  -- -- -- -- -- -- -- --
0170:                                1D 12 80 23 1D 13            ...#..
0180: 80 23 00                                          .#.             
```

#### Opcodes

```
  0: 0x017A [0x1D] PRINT_EVENT_MESSAGE(message_id=8313*)
    → "Through this archway lies Windurst's residential area. There is a Mog House room preparrred for your use in there."
  1: 0x017D [0x23] WAIT_FOR_DIALOG_INTERACTION
  2: 0x017E [0x1D] PRINT_EVENT_MESSAGE(message_id=8314*)
    → "Say... You haven't had Mog Houses explained to you beforrre? Well then, allow me to fill you in!"
  3: 0x0181 [0x23] WAIT_FOR_DIALOG_INTERACTION
  4: 0x0182 [0x00] END_REQSTACK()
```

### Event 65535.4

#### Metadata

| Field        | Value    |
|--------------|----------|
| Entrypoint   | 0x0183   |
| Data Size    | 17 bytes |
| Instructions | 9        |

```
      00 01 02 03 04 05 06 07  08 09 0A 0B 0C 0D 0E 0F
      -- -- -- -- -- -- -- --  -- -- -- -- -- -- -- --
0180:          1D 14 80 23 1D  15 80 23 1D 16 80 23 1D     ...#...#...#.
0190: 17 80 23 00                                       ..#.            
```

#### Opcodes

```
  0: 0x0183 [0x1D] PRINT_EVENT_MESSAGE(message_id=8316*)
    → "A Mog House is your own perrrsonal apartment room provided for your convenience."
  1: 0x0186 [0x23] WAIT_FOR_DIALOG_INTERACTION
  2: 0x0187 [0x1D] PRINT_EVENT_MESSAGE(message_id=8317*)
    → "Within your Mog House, you can storrre items, change jobs, and heal your HP and MP."
  3: 0x018A [0x23] WAIT_FOR_DIALOG_INTERACTION
  4: 0x018B [0x1D] PRINT_EVENT_MESSAGE(message_id=8318*)
    → "You're a citizen of Windurst, right? Then there's no hassle. You should already have a Mog House preparrred for you up the stairs here."
  5: 0x018E [0x23] WAIT_FOR_DIALOG_INTERACTION
  6: 0x018F [0x1D] PRINT_EVENT_MESSAGE(message_id=8319*)
    → "It's your own room, so you can use it however you see fit. Why don't you go up there now and take a little nap to refrrresh yourself?"
  7: 0x0192 [0x23] WAIT_FOR_DIALOG_INTERACTION
  8: 0x0193 [0x00] END_REQSTACK()
```

### Event 65535.5

#### Metadata

| Field        | Value   |
|--------------|---------|
| Entrypoint   | 0x0194  |
| Data Size    | 9 bytes |
| Instructions | 5       |

```
      00 01 02 03 04 05 06 07  08 09 0A 0B 0C 0D 0E 0F
      -- -- -- -- -- -- -- --  -- -- -- -- -- -- -- --
0190:             1D 18 80 23  1D 19 80 23 00               ...#...#.   
```

#### Opcodes

```
  0: 0x0194 [0x1D] PRINT_EVENT_MESSAGE(message_id=8320*)
    → "Through this archway lies Windurst's residential area. There is a Mog House room preparrred for your use in there."
  1: 0x0197 [0x23] WAIT_FOR_DIALOG_INTERACTION
  2: 0x0198 [0x1D] PRINT_EVENT_MESSAGE(message_id=8321*)
    → "Say what...? You want to hearrr my explanation of Mog Houses again, do you?"
  3: 0x019B [0x23] WAIT_FOR_DIALOG_INTERACTION
  4: 0x019C [0x00] END_REQSTACK()
```

### Event 65535.6

#### Metadata

| Field        | Value   |
|--------------|---------|
| Entrypoint   | 0x019D  |
| Data Size    | 5 bytes |
| Instructions | 3       |

```
      00 01 02 03 04 05 06 07  08 09 0A 0B 0C 0D 0E 0F
      -- -- -- -- -- -- -- --  -- -- -- -- -- -- -- --
0190:                                         1D 1A 80               ...
01A0: 23 00                                             #.              
```

#### Opcodes

```
  0: 0x019D [0x1D] PRINT_EVENT_MESSAGE(message_id=8322*)
    → "Oh well... Yourrr loss."
  1: 0x01A0 [0x23] WAIT_FOR_DIALOG_INTERACTION
  2: 0x01A1 [0x00] END_REQSTACK()
```

### Event 364

#### Metadata

| Field        | Value    |
|--------------|----------|
| Entrypoint   | 0x01A2   |
| Data Size    | 73 bytes |
| Instructions | 18       |

```
      00 01 02 03 04 05 06 07  08 09 0A 0B 0C 0D 0E 0F
      -- -- -- -- -- -- -- --  -- -- -- -- -- -- -- --
01A0:       1E F0 FF FF 7F 6F  70 29 0B B2 10 0F 01 0B    .....op)......
01B0: 24 1B 80 00 80 00 80 25  02 00 10 00 80 00 D0 01  $......%........
01C0: 42 03 01 10 00 80 29 0B  B2 10 0F 01 0C 01 E7 01  B.....).........
01D0: 02 00 10 03 80 00 E7 01  03 01 10 03 80 29 0B B2  .............)..
01E0: 10 0F 01 09 01 E7 01 20  00 21 00                 ....... .!.     
```

#### Opcodes

```
  0: 0x01A2 [0x1E] EventEntity looks at LocalPlayer and starts talking
  1: 0x01A7 [0x6F] WAIT_FRAME_DELAY: Yield until WaitTime reaches zero
  2: 0x01A8 [0x70] WAIT_ENTITY_RENDER_FLAG: Wait while EventEntity->Render.Flags3 bit 2 is set (cancel turn if not)
  3: 0x01A9 [0x29] REQ_SET_WAIT(priority=0x0B, entity_id=Abby Jalunshi (ID: 17764530/0x010F10B2), tag_num=0x0B)
  4: 0x01B0 [0x24] CREATE_DIALOG(message_id=8326*, default_option=0*, option_flags=0*)
    → "Move out of Rent-a-Room? [Yes./No.]"
  5: 0x01B7 [0x25] WAIT_DIALOG_SELECT()
  6: 0x01B8 [0x02] IF !(Work_Zone[0] == 0*) GOTO 0x01D0
  7: 0x01C0 [0x42] SET_CLI_EVENT_CANCEL_DATA()
  8: 0x01C1 [0x03] Work_Zone[1] = 0*
  9: 0x01C6 [0x29] REQ_SET_WAIT(priority=0x0B, entity_id=Abby Jalunshi (ID: 17764530/0x010F10B2), tag_num=0x0C)
 10: 0x01CD [0x01] GOTO 0x01E7
 11: 0x01D0 [0x02] IF !(Work_Zone[0] == 1*) GOTO 0x01E7
 12: 0x01D8 [0x03] Work_Zone[1] = 1*
 13: 0x01DD [0x29] REQ_SET_WAIT(priority=0x0B, entity_id=Abby Jalunshi (ID: 17764530/0x010F10B2), tag_num=0x09)
 14: 0x01E4 [0x01] GOTO 0x01E7

SUBROUTINE_01E7:
 15: 0x01E7 [0x20] SET_CLI_EVENT_UC_FLAG: Unlock player control
 16: 0x01E9 [0x21] END_EVENT
 17: 0x01EA [0x00] END_REQSTACK()
```

### Event 65535.7

#### Metadata

| Field        | Value    |
|--------------|----------|
| Entrypoint   | 0x01EB   |
| Data Size    | 13 bytes |
| Instructions | 7        |

```
      00 01 02 03 04 05 06 07  08 09 0A 0B 0C 0D 0E 0F
      -- -- -- -- -- -- -- --  -- -- -- -- -- -- -- --
01E0:                                   1D 1C 80 23 1D             ...#.
01F0: 1D 80 23 1D 1E 80 23 00                           ..#...#.        
```

#### Opcodes

```
  0: 0x01EB [0x1D] PRINT_EVENT_MESSAGE(message_id=8323*)
    → "Through this archway lies Windurst's residential area. There is a Mog House room preparrred for your use in there."
  1: 0x01EE [0x23] WAIT_FOR_DIALOG_INTERACTION
  2: 0x01EF [0x1D] PRINT_EVENT_MESSAGE(message_id=8324*)
    → "Let me see... You currently have a Rent-a-Room leased out in [San d'Oria/Bastok/Windurst/Jeuno/Kazham/Rabao/Norg/Al Zahbi], rrright?"
  3: 0x01F2 [0x23] WAIT_FOR_DIALOG_INTERACTION
  4: 0x01F3 [0x1D] PRINT_EVENT_MESSAGE(message_id=8325*)
    → "Do you want me to returrrn the Rent-a-Room in [San d'Oria/Bastok/Windurst/Jeuno/Kazham/Rabao/Norg/Al Zahbi], and have your belongings brought back to your Mog House here in Windurst?"
  5: 0x01F6 [0x23] WAIT_FOR_DIALOG_INTERACTION
  6: 0x01F7 [0x00] END_REQSTACK()
```

### Event 65535.8

#### Metadata

| Field        | Value   |
|--------------|---------|
| Entrypoint   | 0x01F8  |
| Data Size    | 5 bytes |
| Instructions | 3       |

```
      00 01 02 03 04 05 06 07  08 09 0A 0B 0C 0D 0E 0F
      -- -- -- -- -- -- -- --  -- -- -- -- -- -- -- --
01F0:                          1D 1F 80 23 00                   ...#.   
```

#### Opcodes

```
  0: 0x01F8 [0x1D] PRINT_EVENT_MESSAGE(message_id=8327*)
    → "Ho-hum...ho-hum... There, it's all settled. The keys to your Rent-a-Room in [San d'Oria/Bastok/Windurst/Jeuno/Kazham/Rabao/Norg/Al Zahbi] have been returrrned. Have a pleasant rest."
  1: 0x01FB [0x23] WAIT_FOR_DIALOG_INTERACTION
  2: 0x01FC [0x00] END_REQSTACK()
```

### Event 365

#### Metadata

| Field        | Value    |
|--------------|----------|
| Entrypoint   | 0x01FD   |
| Data Size    | 18 bytes |
| Instructions | 7        |

```
      00 01 02 03 04 05 06 07  08 09 0A 0B 0C 0D 0E 0F
      -- -- -- -- -- -- -- --  -- -- -- -- -- -- -- --
01F0:                                         1E F0 FF               ...
0200: FF 7F 6F 70 29 0B B2 10  0F 01 0E 20 00 21 00     ..op)...... .!. 
```

#### Opcodes

```
  0: 0x01FD [0x1E] EventEntity looks at LocalPlayer and starts talking
  1: 0x0202 [0x6F] WAIT_FRAME_DELAY: Yield until WaitTime reaches zero
  2: 0x0203 [0x70] WAIT_ENTITY_RENDER_FLAG: Wait while EventEntity->Render.Flags3 bit 2 is set (cancel turn if not)
  3: 0x0204 [0x29] REQ_SET_WAIT(priority=0x0B, entity_id=Abby Jalunshi (ID: 17764530/0x010F10B2), tag_num=0x0E)
  4: 0x020B [0x20] SET_CLI_EVENT_UC_FLAG: Unlock player control
  5: 0x020D [0x21] END_EVENT
  6: 0x020E [0x00] END_REQSTACK()
```

### Event 65535.9

#### Metadata

| Field        | Value   |
|--------------|---------|
| Entrypoint   | 0x020F  |
| Data Size    | 9 bytes |
| Instructions | 5       |

```
      00 01 02 03 04 05 06 07  08 09 0A 0B 0C 0D 0E 0F
      -- -- -- -- -- -- -- --  -- -- -- -- -- -- -- --
0200:                                               1D                 .
0210: 20 80 23 1D 21 80 23 00                            .#.!.#.        
```

#### Opcodes

```
  0: 0x020F [0x1D] PRINT_EVENT_MESSAGE(message_id=8328*)
    → "Beyond this arrrchway is Windurst's residential area, where there are Mog Houses and Rent-a-Rooms available for people's use."
  1: 0x0212 [0x23] WAIT_FOR_DIALOG_INTERACTION
  2: 0x0213 [0x1D] PRINT_EVENT_MESSAGE(message_id=8329*)
    → "Say what...? You already have a Rent-a-Room! In that case, you can go directly into your room. You don't have to come and get perrrmission from me every time, you know?"
  3: 0x0216 [0x23] WAIT_FOR_DIALOG_INTERACTION
  4: 0x0217 [0x00] END_REQSTACK()
```

### Event 366

#### Metadata

| Field        | Value    |
|--------------|----------|
| Entrypoint   | 0x0218   |
| Data Size    | 73 bytes |
| Instructions | 18       |

```
      00 01 02 03 04 05 06 07  08 09 0A 0B 0C 0D 0E 0F
      -- -- -- -- -- -- -- --  -- -- -- -- -- -- -- --
0210:                          1E F0 FF FF 7F 6F 70 29          .....op)
0220: 0B B2 10 0F 01 10 24 22  80 00 80 00 80 25 02 00  ......$".....%..
0230: 10 00 80 00 46 02 42 03  01 10 00 80 29 0B B2 10  ....F.B.....)...
0240: 0F 01 11 01 5D 02 02 00  10 03 80 00 5D 02 03 01  ....].......]...
0250: 10 03 80 29 0B B2 10 0F  01 09 01 5D 02 20 00 21  ...).......]. .!
0260: 00                                                .               
```

#### Opcodes

```
  0: 0x0218 [0x1E] EventEntity looks at LocalPlayer and starts talking
  1: 0x021D [0x6F] WAIT_FRAME_DELAY: Yield until WaitTime reaches zero
  2: 0x021E [0x70] WAIT_ENTITY_RENDER_FLAG: Wait while EventEntity->Render.Flags3 bit 2 is set (cancel turn if not)
  3: 0x021F [0x29] REQ_SET_WAIT(priority=0x0B, entity_id=Abby Jalunshi (ID: 17764530/0x010F10B2), tag_num=0x10)
  4: 0x0226 [0x24] CREATE_DIALOG(message_id=8333*, default_option=0*, option_flags=0*)
    → "Lease a Rent-a-Room? [Yes./No.]"
  5: 0x022D [0x25] WAIT_DIALOG_SELECT()
  6: 0x022E [0x02] IF !(Work_Zone[0] == 0*) GOTO 0x0246
  7: 0x0236 [0x42] SET_CLI_EVENT_CANCEL_DATA()
  8: 0x0237 [0x03] Work_Zone[1] = 0*
  9: 0x023C [0x29] REQ_SET_WAIT(priority=0x0B, entity_id=Abby Jalunshi (ID: 17764530/0x010F10B2), tag_num=0x11)
 10: 0x0243 [0x01] GOTO 0x025D
 11: 0x0246 [0x02] IF !(Work_Zone[0] == 1*) GOTO 0x025D
 12: 0x024E [0x03] Work_Zone[1] = 1*
 13: 0x0253 [0x29] REQ_SET_WAIT(priority=0x0B, entity_id=Abby Jalunshi (ID: 17764530/0x010F10B2), tag_num=0x09)
 14: 0x025A [0x01] GOTO 0x025D

SUBROUTINE_025D:
 15: 0x025D [0x20] SET_CLI_EVENT_UC_FLAG: Unlock player control
 16: 0x025F [0x21] END_EVENT
 17: 0x0260 [0x00] END_REQSTACK()
```

### Event 65535.10

#### Metadata

| Field        | Value    |
|--------------|----------|
| Entrypoint   | 0x0261   |
| Data Size    | 13 bytes |
| Instructions | 7        |

```
      00 01 02 03 04 05 06 07  08 09 0A 0B 0C 0D 0E 0F
      -- -- -- -- -- -- -- --  -- -- -- -- -- -- -- --
0260:    1D 23 80 23 1D 24 80  23 1D 25 80 23 00         .#.#.$.#.%.#.  
```

#### Opcodes

```
  0: 0x0261 [0x1D] PRINT_EVENT_MESSAGE(message_id=8330*)
    → "Beyond this arrrchway is Windurst's residential area, where there are Mog Houses and Rent-a-Rooms available for people's use."
  1: 0x0264 [0x23] WAIT_FOR_DIALOG_INTERACTION
  2: 0x0265 [0x1D] PRINT_EVENT_MESSAGE(message_id=8331*)
    → "Let me see... You're not a citizen of Windurst, rrright? In that case, do you want me to prepare a Rent-a-Room for you here?"
  3: 0x0268 [0x23] WAIT_FOR_DIALOG_INTERACTION
  4: 0x0269 [0x1D] PRINT_EVENT_MESSAGE(message_id=8332*)
    → "When you lease a Rent-a-Room here, you can use that room as you would use your own personal Mog House back in your home country. Prrretty convenient, huh?"
  5: 0x026C [0x23] WAIT_FOR_DIALOG_INTERACTION
  6: 0x026D [0x00] END_REQSTACK()
```

### Event 65535.11

#### Metadata

| Field        | Value   |
|--------------|---------|
| Entrypoint   | 0x026E  |
| Data Size    | 5 bytes |
| Instructions | 3       |

```
      00 01 02 03 04 05 06 07  08 09 0A 0B 0C 0D 0E 0F
      -- -- -- -- -- -- -- --  -- -- -- -- -- -- -- --
0260:                                            1D 26                .&
0270: 80 23 00                                          .#.             
```

#### Opcodes

```
  0: 0x026E [0x1D] PRINT_EVENT_MESSAGE(message_id=8334*)
    → "Ho-hum...ho-hum... There, it's all settled. You now have your own Rent-a-Room preparrred for your use in Windurst's residential area behind me. Have a pleasant stay."
  1: 0x0271 [0x23] WAIT_FOR_DIALOG_INTERACTION
  2: 0x0272 [0x00] END_REQSTACK()
```

### Event 367

#### Metadata

| Field        | Value   |
|--------------|---------|
| Entrypoint   | 0x0273  |
| Data Size    | 1 bytes |
| Instructions | 1       |

```
      00 01 02 03 04 05 06 07  08 09 0A 0B 0C 0D 0E 0F
      -- -- -- -- -- -- -- --  -- -- -- -- -- -- -- --
0270:          00                                          .            
```

#### Opcodes

```
  0: 0x0273 [0x00] END_REQSTACK()
```
