# 17764480 - Illu Bohjaa

## Common Data

| Field            | Value                    |
|------------------|--------------------------|
| Zone             | Windurst Woods (ID: 241) |
| Block Size       | 720 bytes                |
| Total Events     | 19                       |
| References Count | 22                       |

## List of Events

| Event ID                   | Entrypoint   |   Size |   Instructions |
|----------------------------|--------------|--------|----------------|
| [65535](#event-65535)      | 0x0000       |      1 |              1 |
| [65535.1](#event-655351)   | 0x0001       |     16 |              2 |
| [65535.2](#event-655352)   | 0x0011       |     22 |              4 |
| [65535.3](#event-655353)   | 0x0027       |     28 |              4 |
| [65535.4](#event-655354)   | 0x0043       |     26 |              4 |
| [65535.5](#event-655355)   | 0x005D       |     22 |              3 |
| [65535.6](#event-655356)   | 0x0073       |     20 |              3 |
| [65535.7](#event-655357)   | 0x0087       |      9 |              3 |
| [332](#event-332)          | 0x0090       |     33 |             12 |
| [333](#event-333)          | 0x00B1       |     86 |             19 |
| [65535.8](#event-655358)   | 0x0107       |     23 |              7 |
| [65535.9](#event-655359)   | 0x011E       |     19 |              5 |
| [65535.10](#event-6553510) | 0x0131       |     19 |              5 |
| [65535.11](#event-6553511) | 0x0144       |     19 |              5 |
| [65535.12](#event-6553512) | 0x0157       |     19 |              5 |
| [334](#event-334)          | 0x016A       |     33 |             12 |
| [335](#event-335)          | 0x018B       |     56 |             16 |
| [336](#event-336)          | 0x01C3       |     33 |             12 |
| [337](#event-337)          | 0x01E4       |     55 |             18 |

## DAT References (imed_data)

|   Index | Hex Value   |   Dec Value |
|---------|-------------|-------------|
|       0 | 0x0166      |         358 |
|       1 | 0x001E      |          30 |
|       2 | 0x202B      |        8235 |
|       3 | 0x202C      |        8236 |
|       4 | 0x2031      |        8241 |
|       5 | 0x0000      |           0 |
|       6 | 0x0001      |           1 |
|       7 | 0x0002      |           2 |
|       8 | 0x202D      |        8237 |
|       9 | 0x202E      |        8238 |
|      10 | 0x202F      |        8239 |
|      11 | 0x2030      |        8240 |
|      12 | 0x2032      |        8242 |
|      13 | 0x2033      |        8243 |
|      14 | 0x2034      |        8244 |
|      15 | 0x2035      |        8245 |
|      16 | 0x2036      |        8246 |
|      17 | 0x2037      |        8247 |
|      18 | 0x00C9      |         201 |
|      19 | 0x1998      |        6552 |
|      20 | 0x2038      |        8248 |
|      21 | 0x2039      |        8249 |

## String References

- **6552**: Obtained $0 gil.
- **8235**: Haw!? Yeah, that be rrright! I look afterrr these here dhalmel all by m'self, y'know! Why, you ain't got an issue with that, do ya?
- **8236**: Oh, and while y'all are herrre... Don't ya go taumentin' the poorrr things, now! Not if y'know what's good for ya!
- **8237**: Lately them crrrawler crrritters out thar in Sarutabaruta have been eatin' up all the $2 that these dhalmel love so much.
- **8238**: It's put me in a rrreeeal fiddle, 'coz now I have to work rrreeeal hard to git me some of them thar $2.
- **8239**: I do declare... You seem to be the adventurrrer type now, huh!? Would you mind doin' me a favor the next time yer out thar a-huntin' in Sarutabaruta, and concentrate on depleting the numberrrs of crawlers in them parrrts?
- **8240**: If ya cull enough of them crawlers to git your hands on three $1 or $3, then I'll give you a little somethin' as a rrreward! Whaddaya say?
- **8241**: Help cull them thar crawlers? [Yup!/Naw!]
- **8242**: I see... So, y'don't give a damn 'bout what happens to my dhalmel, then do ya? You yellow-strrreaked crrrawler-kisser, you!
- **8243**: Crawlers can be found in both East and West Sarutabaruta. So exterrrminate as many of them thar pesty crrritters as you can in both'a them parts.
- **8244**: Them crawlers are out of control, and I'm at my wit's end! Cull enuff of them critters to git your hands on three $1 or $3, and I'll pay you a rrreward!
- **8245**: Crawlers can be found in both East and West Sarutabaruta. So exterrrminate as many of them thar pesty crrritters as you can in both'a them parts.
- **8246**: Why, thankee you, pardnerrr! Seems like y'did indeed kill off a mighty big numberrr of them thar crawlers. Here's ya rrreward! Much obliged to ya.
- **8247**: If everrr ya have the time, would ya be so good as to cull some morrre of them thar crawlers for little ol' me? Cull enuff of them critters to git your hands on three $1 or $3, and I'll pay you a handsome rrreward!
- **8248**: You saw them towerrrs out thar in Sarutabaruta, huh? Why, they be called the Horutoto Ruins. Once they broke down, the animals of Sarutabaruta starrrted runnin' amuck, y'know?
- **8249**: I ain't got much of a clue what them towers was forrr, but they sure was magical. I wonderrr if they'll e'er be able to fix them up again?

## Events

### Event 65535

#### Metadata

| Field        | Value   |
|--------------|---------|
| Entrypoint   | 0x0000  |
| Data Size    | 1 bytes |
| Instructions | 1       |

```
      00 01 02 03 04 05 06 07  08 09 0A 0B 0C 0D 0E 0F
      -- -- -- -- -- -- -- --  -- -- -- -- -- -- -- --
0000: 00                                                .               
```

#### Opcodes

```
  0: 0x0000 [0x00] END_REQSTACK()
```

### Event 65535.1

#### Metadata

| Field        | Value    |
|--------------|----------|
| Entrypoint   | 0x0001   |
| Data Size    | 16 bytes |
| Instructions | 2        |

```
      00 01 02 03 04 05 06 07  08 09 0A 0B 0C 0D 0E 0F
      -- -- -- -- -- -- -- --  -- -- -- -- -- -- -- --
0000:    5B 00 80 F8 FF FF 7F  F8 FF FF 7F 74 6C 6B 30   [..........tlk0
0010: 00                                                .               
```

#### Opcodes

```
  0: 0x0001 [0x5B] LOAD_EXT_SCHEDULER: Load scheduler "tlk0" with entities [EventEntity, EventEntity], work=358*
  1: 0x0010 [0x00] END_REQSTACK()
```

### Event 65535.2

#### Metadata

| Field        | Value    |
|--------------|----------|
| Entrypoint   | 0x0011   |
| Data Size    | 22 bytes |
| Instructions | 4        |

```
      00 01 02 03 04 05 06 07  08 09 0A 0B 0C 0D 0E 0F
      -- -- -- -- -- -- -- --  -- -- -- -- -- -- -- --
0010:    53 F8 FF FF 7F F8 FF  FF 7F 74 6C 6B 30 5E 69   S........tlk0^i
0020: 64 6C 30 1C 01 80 00                              dl0....         
```

#### Opcodes

```
  0: 0x0011 [0x53] WAIT_SCHEDULER_TASK: Wait for scheduler "tlk0" with entities [EventEntity, EventEntity]
  1: 0x001E [0x5E] EventEntity goes idle (kills current action) (animation: "idl0")
  2: 0x0023 [0x1C] WAIT(30* ticks)
  3: 0x0026 [0x00] END_REQSTACK()
```

### Event 65535.3

#### Metadata

| Field        | Value    |
|--------------|----------|
| Entrypoint   | 0x0027   |
| Data Size    | 28 bytes |
| Instructions | 4        |

```
      00 01 02 03 04 05 06 07  08 09 0A 0B 0C 0D 0E 0F
      -- -- -- -- -- -- -- --  -- -- -- -- -- -- -- --
0020:                      7C  00 F8 FF FF 7F 81 00 F8         |........
0030: FF FF 7F 5B 00 80 F8 FF  FF 7F F8 FF FF 7F 61 6E  ...[..........an
0040: 67 30 00                                          g0.             
```

#### Opcodes

```
  0: 0x0027 [0x7C] EventEntity->Render.Flags2 |= 0x00
  1: 0x002D [0x81] SET_ENTITY_BLINKING(blink_flag=0x00, entity=EventEntity)
  2: 0x0033 [0x5B] LOAD_EXT_SCHEDULER: Load scheduler "ang0" with entities [EventEntity, EventEntity], work=358*
  3: 0x0042 [0x00] END_REQSTACK()
```

### Event 65535.4

#### Metadata

| Field        | Value    |
|--------------|----------|
| Entrypoint   | 0x0043   |
| Data Size    | 26 bytes |
| Instructions | 4        |

```
      00 01 02 03 04 05 06 07  08 09 0A 0B 0C 0D 0E 0F
      -- -- -- -- -- -- -- --  -- -- -- -- -- -- -- --
0040:          53 F8 FF FF 7F  F8 FF FF 7F 61 6E 67 30     S........ang0
0050: 7C 01 F8 FF FF 7F 81 01  F8 FF FF 7F 00           |............   
```

#### Opcodes

```
  0: 0x0043 [0x53] WAIT_SCHEDULER_TASK: Wait for scheduler "ang0" with entities [EventEntity, EventEntity]
  1: 0x0050 [0x7C] EventEntity->Render.Flags2 |= 0x01
  2: 0x0056 [0x81] SET_ENTITY_BLINKING(blink_flag=0x01, entity=EventEntity)
  3: 0x005C [0x00] END_REQSTACK()
```

### Event 65535.5

#### Metadata

| Field        | Value    |
|--------------|----------|
| Entrypoint   | 0x005D   |
| Data Size    | 22 bytes |
| Instructions | 3        |

```
      00 01 02 03 04 05 06 07  08 09 0A 0B 0C 0D 0E 0F
      -- -- -- -- -- -- -- --  -- -- -- -- -- -- -- --
0050:                                         81 00 F8               ...
0060: FF FF 7F 5B 00 80 F8 FF  FF 7F F8 FF FF 7F 73 69  ...[..........si
0070: 73 30 00                                          s0.             
```

#### Opcodes

```
  0: 0x005D [0x81] SET_ENTITY_BLINKING(blink_flag=0x00, entity=EventEntity)
  1: 0x0063 [0x5B] LOAD_EXT_SCHEDULER: Load scheduler "sis0" with entities [EventEntity, EventEntity], work=358*
  2: 0x0072 [0x00] END_REQSTACK()
```

### Event 65535.6

#### Metadata

| Field        | Value    |
|--------------|----------|
| Entrypoint   | 0x0073   |
| Data Size    | 20 bytes |
| Instructions | 3        |

```
      00 01 02 03 04 05 06 07  08 09 0A 0B 0C 0D 0E 0F
      -- -- -- -- -- -- -- --  -- -- -- -- -- -- -- --
0070:          53 F8 FF FF 7F  F8 FF FF 7F 73 69 73 30     S........sis0
0080: 81 01 F8 FF FF 7F 00                              .......         
```

#### Opcodes

```
  0: 0x0073 [0x53] WAIT_SCHEDULER_TASK: Wait for scheduler "sis0" with entities [EventEntity, EventEntity]
  1: 0x0080 [0x81] SET_ENTITY_BLINKING(blink_flag=0x01, entity=EventEntity)
  2: 0x0086 [0x00] END_REQSTACK()
```

### Event 65535.7

#### Metadata

| Field        | Value   |
|--------------|---------|
| Entrypoint   | 0x0087  |
| Data Size    | 9 bytes |
| Instructions | 3       |

```
      00 01 02 03 04 05 06 07  08 09 0A 0B 0C 0D 0E 0F
      -- -- -- -- -- -- -- --  -- -- -- -- -- -- -- --
0080:                      5E  69 64 6C 30 1C 01 80 00         ^idl0....
```

#### Opcodes

```
  0: 0x0087 [0x5E] EventEntity goes idle (kills current action) (animation: "idl0")
  1: 0x008C [0x1C] WAIT(30* ticks)
  2: 0x008F [0x00] END_REQSTACK()
```

### Event 332

#### Metadata

| Field        | Value    |
|--------------|----------|
| Entrypoint   | 0x0090   |
| Data Size    | 33 bytes |
| Instructions | 12       |

```
      00 01 02 03 04 05 06 07  08 09 0A 0B 0C 0D 0E 0F
      -- -- -- -- -- -- -- --  -- -- -- -- -- -- -- --
0090: 1E F0 FF FF 7F 6F 70 29  08 80 10 0F 01 01 1D 02  .....op)........
00A0: 80 23 1D 03 80 23 29 08  80 10 0F 01 07 20 00 21  .#...#)...... .!
00B0: 00                                                .               
```

#### Opcodes

```
  0: 0x0090 [0x1E] EventEntity looks at LocalPlayer and starts talking
  1: 0x0095 [0x6F] WAIT_FRAME_DELAY: Yield until WaitTime reaches zero
  2: 0x0096 [0x70] WAIT_ENTITY_RENDER_FLAG: Wait while EventEntity->Render.Flags3 bit 2 is set (cancel turn if not)
  3: 0x0097 [0x29] REQ_SET_WAIT(priority=0x08, entity_id=Illu Bohjaa (ID: 17764480/0x010F1080), tag_num=0x01)
  4: 0x009E [0x1D] PRINT_EVENT_MESSAGE(message_id=8235*)
    → "Haw!? Yeah, that be rrright! I look afterrr these here dhalmel all by m'self, y'know! Why, you ain't got an issue with that, do ya?"
  5: 0x00A1 [0x23] WAIT_FOR_DIALOG_INTERACTION
  6: 0x00A2 [0x1D] PRINT_EVENT_MESSAGE(message_id=8236*)
    → "Oh, and while y'all are herrre... Don't ya go taumentin' the poorrr things, now! Not if y'know what's good for ya!"
  7: 0x00A5 [0x23] WAIT_FOR_DIALOG_INTERACTION
  8: 0x00A6 [0x29] REQ_SET_WAIT(priority=0x08, entity_id=Illu Bohjaa (ID: 17764480/0x010F1080), tag_num=0x07)
  9: 0x00AD [0x20] SET_CLI_EVENT_UC_FLAG: Unlock player control
 10: 0x00AF [0x21] END_EVENT
 11: 0x00B0 [0x00] END_REQSTACK()
```

### Event 333

#### Metadata

| Field        | Value    |
|--------------|----------|
| Entrypoint   | 0x00B1   |
| Data Size    | 86 bytes |
| Instructions | 19       |

```
      00 01 02 03 04 05 06 07  08 09 0A 0B 0C 0D 0E 0F
      -- -- -- -- -- -- -- --  -- -- -- -- -- -- -- --
00B0:    1E F0 FF FF 7F 6F 70  29 0B 80 10 0F 01 0A 29   .....op)......)
00C0: 0B 80 10 0F 01 0B 29 0B  80 10 0F 01 0C 24 04 80  ......)......$..
00D0: 05 80 05 80 25 02 00 10  05 80 00 EC 00 03 01 10  ....%...........
00E0: 06 80 29 0B 80 10 0F 01  0E 01 03 01 02 00 10 06  ..).............
00F0: 80 00 03 01 03 01 10 07  80 29 0B 80 10 0F 01 0D  .........)......
0100: 01 03 01 20 00 21 00                              ... .!.         
```

#### Opcodes

```
  0: 0x00B1 [0x1E] EventEntity looks at LocalPlayer and starts talking
  1: 0x00B6 [0x6F] WAIT_FRAME_DELAY: Yield until WaitTime reaches zero
  2: 0x00B7 [0x70] WAIT_ENTITY_RENDER_FLAG: Wait while EventEntity->Render.Flags3 bit 2 is set (cancel turn if not)
  3: 0x00B8 [0x29] REQ_SET_WAIT(priority=0x0B, entity_id=Illu Bohjaa (ID: 17764480/0x010F1080), tag_num=0x0A)
  4: 0x00BF [0x29] REQ_SET_WAIT(priority=0x0B, entity_id=Illu Bohjaa (ID: 17764480/0x010F1080), tag_num=0x0B)
  5: 0x00C6 [0x29] REQ_SET_WAIT(priority=0x0B, entity_id=Illu Bohjaa (ID: 17764480/0x010F1080), tag_num=0x0C)
  6: 0x00CD [0x24] CREATE_DIALOG(message_id=8241*, default_option=0*, option_flags=0*)
    → "Help cull them thar crawlers? [Yup!/Naw!]"
  7: 0x00D4 [0x25] WAIT_DIALOG_SELECT()
  8: 0x00D5 [0x02] IF !(Work_Zone[0] == 0*) GOTO 0x00EC
  9: 0x00DD [0x03] Work_Zone[1] = 1*
 10: 0x00E2 [0x29] REQ_SET_WAIT(priority=0x0B, entity_id=Illu Bohjaa (ID: 17764480/0x010F1080), tag_num=0x0E)
 11: 0x00E9 [0x01] GOTO 0x0103
 12: 0x00EC [0x02] IF !(Work_Zone[0] == 1*) GOTO 0x0103
 13: 0x00F4 [0x03] Work_Zone[1] = 2*
 14: 0x00F9 [0x29] REQ_SET_WAIT(priority=0x0B, entity_id=Illu Bohjaa (ID: 17764480/0x010F1080), tag_num=0x0D)
 15: 0x0100 [0x01] GOTO 0x0103

SUBROUTINE_0103:
 16: 0x0103 [0x20] SET_CLI_EVENT_UC_FLAG: Unlock player control
 17: 0x0105 [0x21] END_EVENT
 18: 0x0106 [0x00] END_REQSTACK()
```

### Event 65535.8

#### Metadata

| Field        | Value    |
|--------------|----------|
| Entrypoint   | 0x0107   |
| Data Size    | 23 bytes |
| Instructions | 7        |

```
      00 01 02 03 04 05 06 07  08 09 0A 0B 0C 0D 0E 0F
      -- -- -- -- -- -- -- --  -- -- -- -- -- -- -- --
0100:                      29  08 80 10 0F 01 01 1D 08         )........
0110: 80 23 1D 09 80 23 29 08  80 10 0F 01 07 00        .#...#).......  
```

#### Opcodes

```
  0: 0x0107 [0x29] REQ_SET_WAIT(priority=0x08, entity_id=Illu Bohjaa (ID: 17764480/0x010F1080), tag_num=0x01)
  1: 0x010E [0x1D] PRINT_EVENT_MESSAGE(message_id=8237*)
    → "Lately them crrrawler crrritters out thar in Sarutabaruta have been eatin' up all the $2 that these dhalmel love so much."
  2: 0x0111 [0x23] WAIT_FOR_DIALOG_INTERACTION
  3: 0x0112 [0x1D] PRINT_EVENT_MESSAGE(message_id=8238*)
    → "It's put me in a rrreeeal fiddle, 'coz now I have to work rrreeeal hard to git me some of them thar $2."
  4: 0x0115 [0x23] WAIT_FOR_DIALOG_INTERACTION
  5: 0x0116 [0x29] REQ_SET_WAIT(priority=0x08, entity_id=Illu Bohjaa (ID: 17764480/0x010F1080), tag_num=0x07)
  6: 0x011D [0x00] END_REQSTACK()
```

### Event 65535.9

#### Metadata

| Field        | Value    |
|--------------|----------|
| Entrypoint   | 0x011E   |
| Data Size    | 19 bytes |
| Instructions | 5        |

```
      00 01 02 03 04 05 06 07  08 09 0A 0B 0C 0D 0E 0F
      -- -- -- -- -- -- -- --  -- -- -- -- -- -- -- --
0110:                                            29 08                ).
0120: 80 10 0F 01 01 1D 0A 80  23 29 08 80 10 0F 01 07  ........#)......
0130: 00                                                .               
```

#### Opcodes

```
  0: 0x011E [0x29] REQ_SET_WAIT(priority=0x08, entity_id=Illu Bohjaa (ID: 17764480/0x010F1080), tag_num=0x01)
  1: 0x0125 [0x1D] PRINT_EVENT_MESSAGE(message_id=8239*)
    → "I do declare... You seem to be the adventurrrer type now, huh!? Would you mind doin' me a favor the next time yer out thar a-huntin' in Sarutabaruta, and concentrate on depleting the numberrrs of crawlers in them parrrts?"
  2: 0x0128 [0x23] WAIT_FOR_DIALOG_INTERACTION
  3: 0x0129 [0x29] REQ_SET_WAIT(priority=0x08, entity_id=Illu Bohjaa (ID: 17764480/0x010F1080), tag_num=0x07)
  4: 0x0130 [0x00] END_REQSTACK()
```

### Event 65535.10

#### Metadata

| Field        | Value    |
|--------------|----------|
| Entrypoint   | 0x0131   |
| Data Size    | 19 bytes |
| Instructions | 5        |

```
      00 01 02 03 04 05 06 07  08 09 0A 0B 0C 0D 0E 0F
      -- -- -- -- -- -- -- --  -- -- -- -- -- -- -- --
0130:    29 08 80 10 0F 01 01  1D 0B 80 23 29 08 80 10   ).........#)...
0140: 0F 01 07 00                                       ....            
```

#### Opcodes

```
  0: 0x0131 [0x29] REQ_SET_WAIT(priority=0x08, entity_id=Illu Bohjaa (ID: 17764480/0x010F1080), tag_num=0x01)
  1: 0x0138 [0x1D] PRINT_EVENT_MESSAGE(message_id=8240*)
    → "If ya cull enough of them crawlers to git your hands on three $1 or $3, then I'll give you a little somethin' as a rrreward! Whaddaya say?"
  2: 0x013B [0x23] WAIT_FOR_DIALOG_INTERACTION
  3: 0x013C [0x29] REQ_SET_WAIT(priority=0x08, entity_id=Illu Bohjaa (ID: 17764480/0x010F1080), tag_num=0x07)
  4: 0x0143 [0x00] END_REQSTACK()
```

### Event 65535.11

#### Metadata

| Field        | Value    |
|--------------|----------|
| Entrypoint   | 0x0144   |
| Data Size    | 19 bytes |
| Instructions | 5        |

```
      00 01 02 03 04 05 06 07  08 09 0A 0B 0C 0D 0E 0F
      -- -- -- -- -- -- -- --  -- -- -- -- -- -- -- --
0140:             29 08 80 10  0F 01 03 1D 0C 80 23 29      ).........#)
0150: 08 80 10 0F 01 04 00                              .......         
```

#### Opcodes

```
  0: 0x0144 [0x29] REQ_SET_WAIT(priority=0x08, entity_id=Illu Bohjaa (ID: 17764480/0x010F1080), tag_num=0x03)
  1: 0x014B [0x1D] PRINT_EVENT_MESSAGE(message_id=8242*)
    → "I see... So, y'don't give a damn 'bout what happens to my dhalmel, then do ya? You yellow-strrreaked crrrawler-kisser, you!"
  2: 0x014E [0x23] WAIT_FOR_DIALOG_INTERACTION
  3: 0x014F [0x29] REQ_SET_WAIT(priority=0x08, entity_id=Illu Bohjaa (ID: 17764480/0x010F1080), tag_num=0x04)
  4: 0x0156 [0x00] END_REQSTACK()
```

### Event 65535.12

#### Metadata

| Field        | Value    |
|--------------|----------|
| Entrypoint   | 0x0157   |
| Data Size    | 19 bytes |
| Instructions | 5        |

```
      00 01 02 03 04 05 06 07  08 09 0A 0B 0C 0D 0E 0F
      -- -- -- -- -- -- -- --  -- -- -- -- -- -- -- --
0150:                      29  08 80 10 0F 01 01 1D 0D         )........
0160: 80 23 29 08 80 10 0F 01  07 00                    .#).......      
```

#### Opcodes

```
  0: 0x0157 [0x29] REQ_SET_WAIT(priority=0x08, entity_id=Illu Bohjaa (ID: 17764480/0x010F1080), tag_num=0x01)
  1: 0x015E [0x1D] PRINT_EVENT_MESSAGE(message_id=8243*)
    → "Crawlers can be found in both East and West Sarutabaruta. So exterrrminate as many of them thar pesty crrritters as you can in both'a them parts."
  2: 0x0161 [0x23] WAIT_FOR_DIALOG_INTERACTION
  3: 0x0162 [0x29] REQ_SET_WAIT(priority=0x08, entity_id=Illu Bohjaa (ID: 17764480/0x010F1080), tag_num=0x07)
  4: 0x0169 [0x00] END_REQSTACK()
```

### Event 334

#### Metadata

| Field        | Value    |
|--------------|----------|
| Entrypoint   | 0x016A   |
| Data Size    | 33 bytes |
| Instructions | 12       |

```
      00 01 02 03 04 05 06 07  08 09 0A 0B 0C 0D 0E 0F
      -- -- -- -- -- -- -- --  -- -- -- -- -- -- -- --
0160:                                1E F0 FF FF 7F 6F            .....o
0170: 70 29 08 80 10 0F 01 01  1D 0E 80 23 1D 0F 80 23  p).........#...#
0180: 29 08 80 10 0F 01 07 20  00 21 00                 )...... .!.     
```

#### Opcodes

```
  0: 0x016A [0x1E] EventEntity looks at LocalPlayer and starts talking
  1: 0x016F [0x6F] WAIT_FRAME_DELAY: Yield until WaitTime reaches zero
  2: 0x0170 [0x70] WAIT_ENTITY_RENDER_FLAG: Wait while EventEntity->Render.Flags3 bit 2 is set (cancel turn if not)
  3: 0x0171 [0x29] REQ_SET_WAIT(priority=0x08, entity_id=Illu Bohjaa (ID: 17764480/0x010F1080), tag_num=0x01)
  4: 0x0178 [0x1D] PRINT_EVENT_MESSAGE(message_id=8244*)
    → "Them crawlers are out of control, and I'm at my wit's end! Cull enuff of them critters to git your hands on three $1 or $3, and I'll pay you a rrreward!"
  5: 0x017B [0x23] WAIT_FOR_DIALOG_INTERACTION
  6: 0x017C [0x1D] PRINT_EVENT_MESSAGE(message_id=8245*)
    → "Crawlers can be found in both East and West Sarutabaruta. So exterrrminate as many of them thar pesty crrritters as you can in both'a them parts."
  7: 0x017F [0x23] WAIT_FOR_DIALOG_INTERACTION
  8: 0x0180 [0x29] REQ_SET_WAIT(priority=0x08, entity_id=Illu Bohjaa (ID: 17764480/0x010F1080), tag_num=0x07)
  9: 0x0187 [0x20] SET_CLI_EVENT_UC_FLAG: Unlock player control
 10: 0x0189 [0x21] END_EVENT
 11: 0x018A [0x00] END_REQSTACK()
```

### Event 335

#### Metadata

| Field        | Value    |
|--------------|----------|
| Entrypoint   | 0x018B   |
| Data Size    | 56 bytes |
| Instructions | 16       |

```
      00 01 02 03 04 05 06 07  08 09 0A 0B 0C 0D 0E 0F
      -- -- -- -- -- -- -- --  -- -- -- -- -- -- -- --
0180:                                   20 01 42 1E F0              .B..
0190: FF FF 7F 6F 70 29 08 80  10 0F 01 01 1D 10 80 23  ...op).........#
01A0: 1D 11 80 23 29 08 80 10  0F 01 07 45 12 80 F0 FF  ...#)......E....
01B0: FF 7F F0 FF FF 7F 71 73  74 63 05 80 48 13 80 20  ......qstc..H.. 
01C0: 00 21 00                                          .!.             
```

#### Opcodes

```
  0: 0x018B [0x20] SET_CLI_EVENT_UC_FLAG: Lock player control
  1: 0x018D [0x42] SET_CLI_EVENT_CANCEL_DATA()
  2: 0x018E [0x1E] EventEntity looks at LocalPlayer and starts talking
  3: 0x0193 [0x6F] WAIT_FRAME_DELAY: Yield until WaitTime reaches zero
  4: 0x0194 [0x70] WAIT_ENTITY_RENDER_FLAG: Wait while EventEntity->Render.Flags3 bit 2 is set (cancel turn if not)
  5: 0x0195 [0x29] REQ_SET_WAIT(priority=0x08, entity_id=Illu Bohjaa (ID: 17764480/0x010F1080), tag_num=0x01)
  6: 0x019C [0x1D] PRINT_EVENT_MESSAGE(message_id=8246*)
    → "Why, thankee you, pardnerrr! Seems like y'did indeed kill off a mighty big numberrr of them thar crawlers. Here's ya rrreward! Much obliged to ya."
  7: 0x019F [0x23] WAIT_FOR_DIALOG_INTERACTION
  8: 0x01A0 [0x1D] PRINT_EVENT_MESSAGE(message_id=8247*)
    → "If everrr ya have the time, would ya be so good as to cull some morrre of them thar crawlers for little ol' me? Cull enuff of them critters to git your hands on three $1 or $3, and I'll pay you a handsome rrreward!"
  9: 0x01A3 [0x23] WAIT_FOR_DIALOG_INTERACTION
 10: 0x01A4 [0x29] REQ_SET_WAIT(priority=0x08, entity_id=Illu Bohjaa (ID: 17764480/0x010F1080), tag_num=0x07)
 11: 0x01AB [0x45] LOAD_SCHEDULED_TASK: Load scheduler "qstc" with entities [LocalPlayer, LocalPlayer], work=[201*, 0*]
 12: 0x01BC [0x48] [System] [6552*]:
    → "Obtained $0 gil."
 13: 0x01BF [0x20] SET_CLI_EVENT_UC_FLAG: Unlock player control
 14: 0x01C1 [0x21] END_EVENT
 15: 0x01C2 [0x00] END_REQSTACK()
```

### Event 336

#### Metadata

| Field        | Value    |
|--------------|----------|
| Entrypoint   | 0x01C3   |
| Data Size    | 33 bytes |
| Instructions | 12       |

```
      00 01 02 03 04 05 06 07  08 09 0A 0B 0C 0D 0E 0F
      -- -- -- -- -- -- -- --  -- -- -- -- -- -- -- --
01C0:          1E F0 FF FF 7F  6F 70 29 08 80 10 0F 01     .....op).....
01D0: 01 1D 14 80 23 1D 15 80  23 29 08 80 10 0F 01 07  ....#...#)......
01E0: 20 00 21 00                                        .!.            
```

#### Opcodes

```
  0: 0x01C3 [0x1E] EventEntity looks at LocalPlayer and starts talking
  1: 0x01C8 [0x6F] WAIT_FRAME_DELAY: Yield until WaitTime reaches zero
  2: 0x01C9 [0x70] WAIT_ENTITY_RENDER_FLAG: Wait while EventEntity->Render.Flags3 bit 2 is set (cancel turn if not)
  3: 0x01CA [0x29] REQ_SET_WAIT(priority=0x08, entity_id=Illu Bohjaa (ID: 17764480/0x010F1080), tag_num=0x01)
  4: 0x01D1 [0x1D] PRINT_EVENT_MESSAGE(message_id=8248*)
    → "You saw them towerrrs out thar in Sarutabaruta, huh? Why, they be called the Horutoto Ruins. Once they broke down, the animals of Sarutabaruta starrrted runnin' amuck, y'know?"
  5: 0x01D4 [0x23] WAIT_FOR_DIALOG_INTERACTION
  6: 0x01D5 [0x1D] PRINT_EVENT_MESSAGE(message_id=8249*)
    → "I ain't got much of a clue what them towers was forrr, but they sure was magical. I wonderrr if they'll e'er be able to fix them up again?"
  7: 0x01D8 [0x23] WAIT_FOR_DIALOG_INTERACTION
  8: 0x01D9 [0x29] REQ_SET_WAIT(priority=0x08, entity_id=Illu Bohjaa (ID: 17764480/0x010F1080), tag_num=0x07)
  9: 0x01E0 [0x20] SET_CLI_EVENT_UC_FLAG: Unlock player control
 10: 0x01E2 [0x21] END_EVENT
 11: 0x01E3 [0x00] END_REQSTACK()
```

### Event 337

#### Metadata

| Field        | Value    |
|--------------|----------|
| Entrypoint   | 0x01E4   |
| Data Size    | 55 bytes |
| Instructions | 18       |

```
      00 01 02 03 04 05 06 07  08 09 0A 0B 0C 0D 0E 0F
      -- -- -- -- -- -- -- --  -- -- -- -- -- -- -- --
01E0:             1E F0 FF FF  7F 6F 70 29 08 80 10 0F      .....op)....
01F0: 01 01 1D 08 80 23 1D 09  80 23 1D 0A 80 23 29 08  .....#...#...#).
0200: 80 10 0F 01 07 29 08 80  10 0F 01 01 1D 0B 80 23  .....).........#
0210: 29 08 80 10 0F 01 07 20  00 21 00                 )...... .!.     
```

#### Opcodes

```
  0: 0x01E4 [0x1E] EventEntity looks at LocalPlayer and starts talking
  1: 0x01E9 [0x6F] WAIT_FRAME_DELAY: Yield until WaitTime reaches zero
  2: 0x01EA [0x70] WAIT_ENTITY_RENDER_FLAG: Wait while EventEntity->Render.Flags3 bit 2 is set (cancel turn if not)
  3: 0x01EB [0x29] REQ_SET_WAIT(priority=0x08, entity_id=Illu Bohjaa (ID: 17764480/0x010F1080), tag_num=0x01)
  4: 0x01F2 [0x1D] PRINT_EVENT_MESSAGE(message_id=8237*)
    → "Lately them crrrawler crrritters out thar in Sarutabaruta have been eatin' up all the $2 that these dhalmel love so much."
  5: 0x01F5 [0x23] WAIT_FOR_DIALOG_INTERACTION
  6: 0x01F6 [0x1D] PRINT_EVENT_MESSAGE(message_id=8238*)
    → "It's put me in a rrreeeal fiddle, 'coz now I have to work rrreeeal hard to git me some of them thar $2."
  7: 0x01F9 [0x23] WAIT_FOR_DIALOG_INTERACTION
  8: 0x01FA [0x1D] PRINT_EVENT_MESSAGE(message_id=8239*)
    → "I do declare... You seem to be the adventurrrer type now, huh!? Would you mind doin' me a favor the next time yer out thar a-huntin' in Sarutabaruta, and concentrate on depleting the numberrrs of crawlers in them parrrts?"
  9: 0x01FD [0x23] WAIT_FOR_DIALOG_INTERACTION
 10: 0x01FE [0x29] REQ_SET_WAIT(priority=0x08, entity_id=Illu Bohjaa (ID: 17764480/0x010F1080), tag_num=0x07)
 11: 0x0205 [0x29] REQ_SET_WAIT(priority=0x08, entity_id=Illu Bohjaa (ID: 17764480/0x010F1080), tag_num=0x01)
 12: 0x020C [0x1D] PRINT_EVENT_MESSAGE(message_id=8240*)
    → "If ya cull enough of them crawlers to git your hands on three $1 or $3, then I'll give you a little somethin' as a rrreward! Whaddaya say?"
 13: 0x020F [0x23] WAIT_FOR_DIALOG_INTERACTION
 14: 0x0210 [0x29] REQ_SET_WAIT(priority=0x08, entity_id=Illu Bohjaa (ID: 17764480/0x010F1080), tag_num=0x07)
 15: 0x0217 [0x20] SET_CLI_EVENT_UC_FLAG: Unlock player control
 16: 0x0219 [0x21] END_EVENT
 17: 0x021A [0x00] END_REQSTACK()
```
