# 17764573 - Semih Lafihna

## Common Data

| Field            | Value                    |
|------------------|--------------------------|
| Zone             | Windurst Woods (ID: 241) |
| Block Size       | 1604 bytes               |
| Total Events     | 74                       |
| References Count | 74                       |

## List of Events

| Event ID                   | Entrypoint   |   Size |   Instructions |
|----------------------------|--------------|--------|----------------|
| [65535](#event-65535)      | 0x0000       |      1 |              1 |
| [65535.1](#event-655351)   | 0x0001       |     16 |              2 |
| [65535.2](#event-655352)   | 0x0011       |     14 |              2 |
| [65535.3](#event-655353)   | 0x001F       |     37 |              5 |
| [65535.4](#event-655354)   | 0x0044       |     16 |              2 |
| [65535.5](#event-655355)   | 0x0054       |     14 |              2 |
| [65535.6](#event-655356)   | 0x0062       |     16 |              2 |
| [65535.7](#event-655357)   | 0x0072       |     14 |              2 |
| [65535.8](#event-655358)   | 0x0080       |     16 |              2 |
| [65535.9](#event-655359)   | 0x0090       |     14 |              2 |
| [65535.10](#event-6553510) | 0x009E       |     16 |              2 |
| [65535.11](#event-6553511) | 0x00AE       |     14 |              2 |
| [65535.12](#event-6553512) | 0x00BC       |     22 |              3 |
| [65535.13](#event-6553513) | 0x00D2       |     20 |              3 |
| [65535.14](#event-6553514) | 0x00E6       |     16 |              2 |
| [65535.15](#event-6553515) | 0x00F6       |     14 |              2 |
| [65535.16](#event-6553516) | 0x0104       |     29 |              3 |
| [65535.17](#event-6553517) | 0x0121       |     16 |              2 |
| [65535.18](#event-6553518) | 0x0131       |     14 |              2 |
| [65535.19](#event-6553519) | 0x013F       |     29 |              3 |
| [65535.20](#event-6553520) | 0x015C       |     29 |              3 |
| [65535.21](#event-6553521) | 0x0179       |     16 |              2 |
| [65535.22](#event-6553522) | 0x0189       |     14 |              2 |
| [65535.23](#event-6553523) | 0x0197       |     16 |              2 |
| [65535.24](#event-6553524) | 0x01A7       |     14 |              2 |
| [65535.25](#event-6553525) | 0x01B5       |     16 |              2 |
| [65535.26](#event-6553526) | 0x01C5       |     14 |              2 |
| [65535.27](#event-6553527) | 0x01D3       |     16 |              2 |
| [65535.28](#event-6553528) | 0x01E3       |     14 |              2 |
| [65535.29](#event-6553529) | 0x01F1       |     16 |              2 |
| [65535.30](#event-6553530) | 0x0201       |     14 |              2 |
| [65535.31](#event-6553531) | 0x020F       |     16 |              2 |
| [65535.32](#event-6553532) | 0x021F       |     14 |              2 |
| [65535.33](#event-6553533) | 0x022D       |      9 |              3 |
| [527](#event-527)          | 0x0236       |      1 |              1 |
| [65535.34](#event-6553534) | 0x0237       |     14 |              4 |
| [65535.35](#event-6553535) | 0x0245       |     23 |              5 |
| [65535.36](#event-6553536) | 0x025C       |     16 |              5 |
| [65535.37](#event-6553537) | 0x026C       |      5 |              3 |
| [65535.38](#event-6553538) | 0x0271       |     19 |              5 |
| [65535.39](#event-6553539) | 0x0284       |     37 |              9 |
| [65535.40](#event-6553540) | 0x02A9       |      5 |              3 |
| [65535.41](#event-6553541) | 0x02AE       |      5 |              3 |
| [541](#event-541)          | 0x02B3       |      1 |              1 |
| [65535.42](#event-6553542) | 0x02B4       |     13 |              3 |
| [65535.43](#event-6553543) | 0x02C1       |      5 |              3 |
| [65535.44](#event-6553544) | 0x02C6       |      5 |              3 |
| [65535.45](#event-6553545) | 0x02CB       |      9 |              5 |
| [65535.46](#event-6553546) | 0x02D4       |      5 |              3 |
| [65535.47](#event-6553547) | 0x02D9       |      5 |              3 |
| [65535.48](#event-6553548) | 0x02DE       |      5 |              3 |
| [65535.49](#event-6553549) | 0x02E3       |      5 |              3 |
| [65535.50](#event-6553550) | 0x02E8       |      5 |              3 |
| [546](#event-546)          | 0x02ED       |      1 |              1 |
| [65535.51](#event-6553551) | 0x02EE       |     10 |              2 |
| [65535.52](#event-6553552) | 0x02F8       |     21 |              7 |
| [65535.53](#event-6553553) | 0x030D       |     29 |              7 |
| [65535.54](#event-6553554) | 0x032A       |     26 |              7 |
| [65535.55](#event-6553555) | 0x0344       |      5 |              3 |
| [65535.56](#event-6553556) | 0x0349       |      5 |              3 |
| [65535.57](#event-6553557) | 0x034E       |      5 |              3 |
| [65535.58](#event-6553558) | 0x0353       |      5 |              3 |
| [65535.59](#event-6553559) | 0x0358       |      5 |              3 |
| [65535.60](#event-6553560) | 0x035D       |      5 |              3 |
| [65535.61](#event-6553561) | 0x0362       |     17 |              5 |
| [65535.62](#event-6553562) | 0x0373       |      5 |              3 |
| [619](#event-619)          | 0x0378       |      1 |              1 |
| [65535.63](#event-6553563) | 0x0379       |     10 |              2 |
| [65535.64](#event-6553564) | 0x0383       |     15 |              5 |
| [65535.65](#event-6553565) | 0x0392       |     10 |              2 |
| [65535.66](#event-6553566) | 0x039C       |     28 |              8 |
| [65535.67](#event-6553567) | 0x03B8       |     33 |              7 |
| [65535.68](#event-6553568) | 0x03D9       |      5 |              3 |
| [65535.69](#event-6553569) | 0x03DE       |      5 |              3 |

## DAT References (imed_data)

|   Index | Hex Value   |   Dec Value |
|---------|-------------|-------------|
|       0 | 0x0175      |         373 |
|       1 | 0x001E      |          30 |
|       2 | 0x0165      |         357 |
|       3 | 0x0169      |         361 |
|       4 | 0x016D      |         365 |
|       5 | 0x0167      |         359 |
|       6 | 0x000D      |          13 |
|       7 | 0x1A941     |      108865 |
|       8 | 0x19CF7     |      105719 |
|       9 | 0xFFFFEF67  |  4294963047 |
|      10 | 0x1CC3F     |      117823 |
|      11 | 0x17C4F     |       97359 |
|      12 | 0xFFFFF15B  |  4294963547 |
|      13 | 0x0C1E      |        3102 |
|      14 | 0x1CB77     |      117623 |
|      15 | 0x16B51     |       93009 |
|      16 | 0x22EB      |        8939 |
|      17 | 0x22ED      |        8941 |
|      18 | 0x22EF      |        8943 |
|      19 | 0x22F0      |        8944 |
|      20 | 0x22F2      |        8946 |
|      21 | 0x22F3      |        8947 |
|      22 | 0x0006      |           6 |
|      23 | 0x247D      |        9341 |
|      24 | 0x247F      |        9343 |
|      25 | 0x2480      |        9344 |
|      26 | 0x2481      |        9345 |
|      27 | 0x2482      |        9346 |
|      28 | 0x2483      |        9347 |
|      29 | 0x2485      |        9349 |
|      30 | 0x2486      |        9350 |
|      31 | 0x2487      |        9351 |
|      32 | 0x1C6A4     |      116388 |
|      33 | 0x169D8     |       92632 |
|      34 | 0x0200      |         512 |
|      35 | 0x1C744     |      116548 |
|      36 | 0x16709     |       91913 |
|      37 | 0x0078      |         120 |
|      38 | 0x1C9CF     |      117199 |
|      39 | 0x18EF6     |      102134 |
|      40 | 0xFFFFF11F  |  4294963487 |
|      41 | 0x0050      |          80 |
|      42 | 0x2495      |        9365 |
|      43 | 0x249A      |        9370 |
|      44 | 0x249C      |        9372 |
|      45 | 0x249E      |        9374 |
|      46 | 0x24A4      |        9380 |
|      47 | 0x24A7      |        9383 |
|      48 | 0x24A9      |        9385 |
|      49 | 0x24AB      |        9387 |
|      50 | 0xFFFF9585  |  4294940037 |
|      51 | 0xFFFFA5F5  |  4294944245 |
|      52 | 0xFFFFF63C  |  4294964796 |
|      53 | 0x0FDC      |        4060 |
|      54 | 0x0028      |          40 |
|      55 | 0xFFFFBD21  |  4294950177 |
|      56 | 0xFFFFA650  |  4294944336 |
|      57 | 0xFFFFF542  |  4294964546 |
|      58 | 0xFFFFDBC4  |  4294958020 |
|      59 | 0xFFFFB206  |  4294947334 |
|      60 | 0x000A      |          10 |
|      61 | 0xFFFFE3D7  |  4294960087 |
|      62 | 0xFFFFB211  |  4294947345 |
|      63 | 0x00E8      |         232 |
|      64 | 0xFFFFB547  |  4294948167 |
|      65 | 0xFFFFA8E4  |  4294944996 |
|      66 | 0x07E6      |        2022 |
|      67 | 0xFFFFA42D  |  4294943789 |
|      68 | 0xFFFFA5CB  |  4294944203 |
|      69 | 0xFFFFF543  |  4294964547 |
|      70 | 0xFFFF8A26  |  4294937126 |
|      71 | 0xFFFFCF47  |  4294954823 |
|      72 | 0x2575      |        9589 |
|      73 | 0x2577      |        9591 |

## String References

- **8939**: The Mithra I just saw... She was the Mithran Tracker from the homeland, wasn't she?
- **8941**: I want you to give me a clear answer. I come as a keeper of the peace of Windurst. Is the daughter of the sinner really dead?
- **8943**: Yes, she followed me to Jugner Forest. It seems the sinner carries a scent that we cannot detect.
- **8944**: But I was not the daughter the Tracker was seeking. Did you send the earring out of concern for me? If so, your fears appear to be unfounded.
- **8946**: I will take this opportunity to tell you, even if you are found to be guilty, I have no intention of becoming the next Chieftainness of Windurst.
- **8947**: However, I also have little desirrre to aid that Mithran Tracker in her hunt. I have no interest in the mysterrries of the past. The future is all that concerns me now.
- **9341**: Perih Vashai. There is something I wish to ask you. Please give me an answer.
- **9343**: No, not that. It's about my past...
- **9344**: I rrrealized something with all this talk of the Bow of Light. The Sibyl Guards, every one of us, were prisoners in Oztroja twenty years ago.
- **9345**: I listened to everyone's stories, and they all have memories of being saved by that bow. But for some reason, I have no recollection of it...
- **9346**: I was one of those prisoners as well, wasn't I? I was taken in by Heavens Tower to keep the secrets of the Bow of Light hidden from the world.
- **9347**: Or was there some other reason that only affected me? I don't know how you managed to erase the scent of sin from me, but I must be the sinner's...
- **9349**: Then why? The Mithran Tracker assured me there was no record of my parents. And there's one thing I dimly rrrecall...
- **9350**: At the time of the Great War, I rrremember my $1 was switched with another. My past...why...?
- **9351**: Why doesn't anybody know about my past?
- **9365**: It was not I who found the bow. That honor belongs to the adventurer <Player>.
- **9370**: ...And just like that, she leaves...
- **9372**: And not catching the sinner?
- **9374**: In that case, the magicite's power must truly be dreadful.
- **9380**: ...I understand now. Perih Vashai, you lost the light when you drew back the string of that cursed weapon.
- **9383**: ...... I rrrespect you, Perih Vashai. I don't know if I could have done the same in your place.
- **9385**: ......
- **9387**: I will come to see you again. Until then, may the wind guide your footsteps.
- **9589**: The bearer of darkness has returned!
- **9591**: We don't know. We haven't been able to open the door to her chambers. But with your magic, we should be able to get in...

## Events

### Event 65535

#### Metadata

| Field        | Value   |
|--------------|---------|
| Entrypoint   | 0x0000  |
| Data Size    | 1 bytes |
| Instructions | 1       |

```
      00 01 02 03 04 05 06 07  08 09 0A 0B 0C 0D 0E 0F
      -- -- -- -- -- -- -- --  -- -- -- -- -- -- -- --
0000: 00                                                .               
```

#### Opcodes

```
  0: 0x0000 [0x00] END_REQSTACK()
```

### Event 65535.1

#### Metadata

| Field        | Value    |
|--------------|----------|
| Entrypoint   | 0x0001   |
| Data Size    | 16 bytes |
| Instructions | 2        |

```
      00 01 02 03 04 05 06 07  08 09 0A 0B 0C 0D 0E 0F
      -- -- -- -- -- -- -- --  -- -- -- -- -- -- -- --
0000:    5B 00 80 F8 FF FF 7F  F8 FF FF 7F 74 6C 6B 30   [..........tlk0
0010: 00                                                .               
```

#### Opcodes

```
  0: 0x0001 [0x5B] LOAD_EXT_SCHEDULER: Load scheduler "tlk0" with entities [EventEntity, EventEntity], work=373*
  1: 0x0010 [0x00] END_REQSTACK()
```

### Event 65535.2

#### Metadata

| Field        | Value    |
|--------------|----------|
| Entrypoint   | 0x0011   |
| Data Size    | 14 bytes |
| Instructions | 2        |

```
      00 01 02 03 04 05 06 07  08 09 0A 0B 0C 0D 0E 0F
      -- -- -- -- -- -- -- --  -- -- -- -- -- -- -- --
0010:    53 F8 FF FF 7F F8 FF  FF 7F 74 6C 6B 30 00      S........tlk0. 
```

#### Opcodes

```
  0: 0x0011 [0x53] WAIT_SCHEDULER_TASK: Wait for scheduler "tlk0" with entities [EventEntity, EventEntity]
  1: 0x001E [0x00] END_REQSTACK()
```

### Event 65535.3

#### Metadata

| Field        | Value    |
|--------------|----------|
| Entrypoint   | 0x001F   |
| Data Size    | 37 bytes |
| Instructions | 5        |

```
      00 01 02 03 04 05 06 07  08 09 0A 0B 0C 0D 0E 0F
      -- -- -- -- -- -- -- --  -- -- -- -- -- -- -- --
0010:                                               5B                 [
0020: 00 80 F8 FF FF 7F F8 FF  FF 7F 74 6C 6B 30 53 F8  ..........tlk0S.
0030: FF FF 7F F8 FF FF 7F 74  6C 6B 30 5E 69 64 6C 30  .......tlk0^idl0
0040: 1C 01 80 00                                       ....            
```

#### Opcodes

```
  0: 0x001F [0x5B] LOAD_EXT_SCHEDULER: Load scheduler "tlk0" with entities [EventEntity, EventEntity], work=373*
  1: 0x002E [0x53] WAIT_SCHEDULER_TASK: Wait for scheduler "tlk0" with entities [EventEntity, EventEntity]
  2: 0x003B [0x5E] EventEntity goes idle (kills current action) (animation: "idl0")
  3: 0x0040 [0x1C] WAIT(30* ticks)
  4: 0x0043 [0x00] END_REQSTACK()
```

### Event 65535.4

#### Metadata

| Field        | Value    |
|--------------|----------|
| Entrypoint   | 0x0044   |
| Data Size    | 16 bytes |
| Instructions | 2        |

```
      00 01 02 03 04 05 06 07  08 09 0A 0B 0C 0D 0E 0F
      -- -- -- -- -- -- -- --  -- -- -- -- -- -- -- --
0040:             5B 00 80 F8  FF FF 7F F8 FF FF 7F 74      [..........t
0050: 6C 6B 31 00                                       lk1.            
```

#### Opcodes

```
  0: 0x0044 [0x5B] LOAD_EXT_SCHEDULER: Load scheduler "tlk1" with entities [EventEntity, EventEntity], work=373*
  1: 0x0053 [0x00] END_REQSTACK()
```

### Event 65535.5

#### Metadata

| Field        | Value    |
|--------------|----------|
| Entrypoint   | 0x0054   |
| Data Size    | 14 bytes |
| Instructions | 2        |

```
      00 01 02 03 04 05 06 07  08 09 0A 0B 0C 0D 0E 0F
      -- -- -- -- -- -- -- --  -- -- -- -- -- -- -- --
0050:             53 F8 FF FF  7F F8 FF FF 7F 74 6C 6B      S........tlk
0060: 31 00                                             1.              
```

#### Opcodes

```
  0: 0x0054 [0x53] WAIT_SCHEDULER_TASK: Wait for scheduler "tlk1" with entities [EventEntity, EventEntity]
  1: 0x0061 [0x00] END_REQSTACK()
```

### Event 65535.6

#### Metadata

| Field        | Value    |
|--------------|----------|
| Entrypoint   | 0x0062   |
| Data Size    | 16 bytes |
| Instructions | 2        |

```
      00 01 02 03 04 05 06 07  08 09 0A 0B 0C 0D 0E 0F
      -- -- -- -- -- -- -- --  -- -- -- -- -- -- -- --
0060:       5B 00 80 F8 FF FF  7F F8 FF FF 7F 62 6F 6B    [..........bok
0070: 30 00                                             0.              
```

#### Opcodes

```
  0: 0x0062 [0x5B] LOAD_EXT_SCHEDULER: Load scheduler "bok0" with entities [EventEntity, EventEntity], work=373*
  1: 0x0071 [0x00] END_REQSTACK()
```

### Event 65535.7

#### Metadata

| Field        | Value    |
|--------------|----------|
| Entrypoint   | 0x0072   |
| Data Size    | 14 bytes |
| Instructions | 2        |

```
      00 01 02 03 04 05 06 07  08 09 0A 0B 0C 0D 0E 0F
      -- -- -- -- -- -- -- --  -- -- -- -- -- -- -- --
0070:       53 F8 FF FF 7F F8  FF FF 7F 62 6F 6B 30 00    S........bok0.
```

#### Opcodes

```
  0: 0x0072 [0x53] WAIT_SCHEDULER_TASK: Wait for scheduler "bok0" with entities [EventEntity, EventEntity]
  1: 0x007F [0x00] END_REQSTACK()
```

### Event 65535.8

#### Metadata

| Field        | Value    |
|--------------|----------|
| Entrypoint   | 0x0080   |
| Data Size    | 16 bytes |
| Instructions | 2        |

```
      00 01 02 03 04 05 06 07  08 09 0A 0B 0C 0D 0E 0F
      -- -- -- -- -- -- -- --  -- -- -- -- -- -- -- --
0080: 5B 00 80 F8 FF FF 7F F8  FF FF 7F 62 6F 6B 31 00  [..........bok1.
```

#### Opcodes

```
  0: 0x0080 [0x5B] LOAD_EXT_SCHEDULER: Load scheduler "bok1" with entities [EventEntity, EventEntity], work=373*
  1: 0x008F [0x00] END_REQSTACK()
```

### Event 65535.9

#### Metadata

| Field        | Value    |
|--------------|----------|
| Entrypoint   | 0x0090   |
| Data Size    | 14 bytes |
| Instructions | 2        |

```
      00 01 02 03 04 05 06 07  08 09 0A 0B 0C 0D 0E 0F
      -- -- -- -- -- -- -- --  -- -- -- -- -- -- -- --
0090: 53 F8 FF FF 7F F8 FF FF  7F 62 6F 6B 31 00        S........bok1.  
```

#### Opcodes

```
  0: 0x0090 [0x53] WAIT_SCHEDULER_TASK: Wait for scheduler "bok1" with entities [EventEntity, EventEntity]
  1: 0x009D [0x00] END_REQSTACK()
```

### Event 65535.10

#### Metadata

| Field        | Value    |
|--------------|----------|
| Entrypoint   | 0x009E   |
| Data Size    | 16 bytes |
| Instructions | 2        |

```
      00 01 02 03 04 05 06 07  08 09 0A 0B 0C 0D 0E 0F
      -- -- -- -- -- -- -- --  -- -- -- -- -- -- -- --
0090:                                            5B 00                [.
00A0: 80 F8 FF FF 7F F8 FF FF  7F 69 62 6F 30 00        .........ibo0.  
```

#### Opcodes

```
  0: 0x009E [0x5B] LOAD_EXT_SCHEDULER: Load scheduler "ibo0" with entities [EventEntity, EventEntity], work=373*
  1: 0x00AD [0x00] END_REQSTACK()
```

### Event 65535.11

#### Metadata

| Field        | Value    |
|--------------|----------|
| Entrypoint   | 0x00AE   |
| Data Size    | 14 bytes |
| Instructions | 2        |

```
      00 01 02 03 04 05 06 07  08 09 0A 0B 0C 0D 0E 0F
      -- -- -- -- -- -- -- --  -- -- -- -- -- -- -- --
00A0:                                            53 F8                S.
00B0: FF FF 7F F8 FF FF 7F 69  62 6F 30 00              .......ibo0.    
```

#### Opcodes

```
  0: 0x00AE [0x53] WAIT_SCHEDULER_TASK: Wait for scheduler "ibo0" with entities [EventEntity, EventEntity]
  1: 0x00BB [0x00] END_REQSTACK()
```

### Event 65535.12

#### Metadata

| Field        | Value    |
|--------------|----------|
| Entrypoint   | 0x00BC   |
| Data Size    | 22 bytes |
| Instructions | 3        |

```
      00 01 02 03 04 05 06 07  08 09 0A 0B 0C 0D 0E 0F
      -- -- -- -- -- -- -- --  -- -- -- -- -- -- -- --
00B0:                                      81 00 F8 FF              ....
00C0: FF 7F 5B 00 80 F8 FF FF  7F F8 FF FF 7F 75 6E 61  ..[..........una
00D0: 30 00                                             0.              
```

#### Opcodes

```
  0: 0x00BC [0x81] SET_ENTITY_BLINKING(blink_flag=0x00, entity=EventEntity)
  1: 0x00C2 [0x5B] LOAD_EXT_SCHEDULER: Load scheduler "una0" with entities [EventEntity, EventEntity], work=373*
  2: 0x00D1 [0x00] END_REQSTACK()
```

### Event 65535.13

#### Metadata

| Field        | Value    |
|--------------|----------|
| Entrypoint   | 0x00D2   |
| Data Size    | 20 bytes |
| Instructions | 3        |

```
      00 01 02 03 04 05 06 07  08 09 0A 0B 0C 0D 0E 0F
      -- -- -- -- -- -- -- --  -- -- -- -- -- -- -- --
00D0:       53 F8 FF FF 7F F8  FF FF 7F 75 6E 61 30 81    S........una0.
00E0: 01 F8 FF FF 7F 00                                 ......          
```

#### Opcodes

```
  0: 0x00D2 [0x53] WAIT_SCHEDULER_TASK: Wait for scheduler "una0" with entities [EventEntity, EventEntity]
  1: 0x00DF [0x81] SET_ENTITY_BLINKING(blink_flag=0x01, entity=EventEntity)
  2: 0x00E5 [0x00] END_REQSTACK()
```

### Event 65535.14

#### Metadata

| Field        | Value    |
|--------------|----------|
| Entrypoint   | 0x00E6   |
| Data Size    | 16 bytes |
| Instructions | 2        |

```
      00 01 02 03 04 05 06 07  08 09 0A 0B 0C 0D 0E 0F
      -- -- -- -- -- -- -- --  -- -- -- -- -- -- -- --
00E0:                   5B 02  80 F8 FF FF 7F F8 FF FF        [.........
00F0: 7F 74 68 6B 31 00                                 .thk1.          
```

#### Opcodes

```
  0: 0x00E6 [0x5B] LOAD_EXT_SCHEDULER: Load scheduler "thk1" with entities [EventEntity, EventEntity], work=357*
  1: 0x00F5 [0x00] END_REQSTACK()
```

### Event 65535.15

#### Metadata

| Field        | Value    |
|--------------|----------|
| Entrypoint   | 0x00F6   |
| Data Size    | 14 bytes |
| Instructions | 2        |

```
      00 01 02 03 04 05 06 07  08 09 0A 0B 0C 0D 0E 0F
      -- -- -- -- -- -- -- --  -- -- -- -- -- -- -- --
00F0:                   53 F8  FF FF 7F F8 FF FF 7F 74        S........t
0100: 68 6B 31 00                                       hk1.            
```

#### Opcodes

```
  0: 0x00F6 [0x53] WAIT_SCHEDULER_TASK: Wait for scheduler "thk1" with entities [EventEntity, EventEntity]
  1: 0x0103 [0x00] END_REQSTACK()
```

### Event 65535.16

#### Metadata

| Field        | Value    |
|--------------|----------|
| Entrypoint   | 0x0104   |
| Data Size    | 29 bytes |
| Instructions | 3        |

```
      00 01 02 03 04 05 06 07  08 09 0A 0B 0C 0D 0E 0F
      -- -- -- -- -- -- -- --  -- -- -- -- -- -- -- --
0100:             5B 02 80 F8  FF FF 7F F8 FF FF 7F 74      [..........t
0110: 68 6B 31 53 F8 FF FF 7F  F8 FF FF 7F 74 68 6B 31  hk1S........thk1
0120: 00                                                .               
```

#### Opcodes

```
  0: 0x0104 [0x5B] LOAD_EXT_SCHEDULER: Load scheduler "thk1" with entities [EventEntity, EventEntity], work=357*
  1: 0x0113 [0x53] WAIT_SCHEDULER_TASK: Wait for scheduler "thk1" with entities [EventEntity, EventEntity]
  2: 0x0120 [0x00] END_REQSTACK()
```

### Event 65535.17

#### Metadata

| Field        | Value    |
|--------------|----------|
| Entrypoint   | 0x0121   |
| Data Size    | 16 bytes |
| Instructions | 2        |

```
      00 01 02 03 04 05 06 07  08 09 0A 0B 0C 0D 0E 0F
      -- -- -- -- -- -- -- --  -- -- -- -- -- -- -- --
0120:    5B 02 80 F8 FF FF 7F  F8 FF FF 7F 74 68 6B 32   [..........thk2
0130: 00                                                .               
```

#### Opcodes

```
  0: 0x0121 [0x5B] LOAD_EXT_SCHEDULER: Load scheduler "thk2" with entities [EventEntity, EventEntity], work=357*
  1: 0x0130 [0x00] END_REQSTACK()
```

### Event 65535.18

#### Metadata

| Field        | Value    |
|--------------|----------|
| Entrypoint   | 0x0131   |
| Data Size    | 14 bytes |
| Instructions | 2        |

```
      00 01 02 03 04 05 06 07  08 09 0A 0B 0C 0D 0E 0F
      -- -- -- -- -- -- -- --  -- -- -- -- -- -- -- --
0130:    53 F8 FF FF 7F F8 FF  FF 7F 74 68 6B 32 00      S........thk2. 
```

#### Opcodes

```
  0: 0x0131 [0x53] WAIT_SCHEDULER_TASK: Wait for scheduler "thk2" with entities [EventEntity, EventEntity]
  1: 0x013E [0x00] END_REQSTACK()
```

### Event 65535.19

#### Metadata

| Field        | Value    |
|--------------|----------|
| Entrypoint   | 0x013F   |
| Data Size    | 29 bytes |
| Instructions | 3        |

```
      00 01 02 03 04 05 06 07  08 09 0A 0B 0C 0D 0E 0F
      -- -- -- -- -- -- -- --  -- -- -- -- -- -- -- --
0130:                                               5B                 [
0140: 02 80 F8 FF FF 7F F8 FF  FF 7F 74 68 6B 32 53 F8  ..........thk2S.
0150: FF FF 7F F8 FF FF 7F 74  68 6B 32 00              .......thk2.    
```

#### Opcodes

```
  0: 0x013F [0x5B] LOAD_EXT_SCHEDULER: Load scheduler "thk2" with entities [EventEntity, EventEntity], work=357*
  1: 0x014E [0x53] WAIT_SCHEDULER_TASK: Wait for scheduler "thk2" with entities [EventEntity, EventEntity]
  2: 0x015B [0x00] END_REQSTACK()
```

### Event 65535.20

#### Metadata

| Field        | Value    |
|--------------|----------|
| Entrypoint   | 0x015C   |
| Data Size    | 29 bytes |
| Instructions | 3        |

```
      00 01 02 03 04 05 06 07  08 09 0A 0B 0C 0D 0E 0F
      -- -- -- -- -- -- -- --  -- -- -- -- -- -- -- --
0150:                                      5B 03 80 F8              [...
0160: FF FF 7F F8 FF FF 7F 70  6F 69 30 53 F8 FF FF 7F  .......poi0S....
0170: F8 FF FF 7F 70 6F 69 30  00                       ....poi0.       
```

#### Opcodes

```
  0: 0x015C [0x5B] LOAD_EXT_SCHEDULER: Load scheduler "poi0" with entities [EventEntity, EventEntity], work=361*
  1: 0x016B [0x53] WAIT_SCHEDULER_TASK: Wait for scheduler "poi0" with entities [EventEntity, EventEntity]
  2: 0x0178 [0x00] END_REQSTACK()
```

### Event 65535.21

#### Metadata

| Field        | Value    |
|--------------|----------|
| Entrypoint   | 0x0179   |
| Data Size    | 16 bytes |
| Instructions | 2        |

```
      00 01 02 03 04 05 06 07  08 09 0A 0B 0C 0D 0E 0F
      -- -- -- -- -- -- -- --  -- -- -- -- -- -- -- --
0170:                             5B 02 80 F8 FF FF 7F           [......
0180: F8 FF FF 7F 64 69 73 30  00                       ....dis0.       
```

#### Opcodes

```
  0: 0x0179 [0x5B] LOAD_EXT_SCHEDULER: Load scheduler "dis0" with entities [EventEntity, EventEntity], work=357*
  1: 0x0188 [0x00] END_REQSTACK()
```

### Event 65535.22

#### Metadata

| Field        | Value    |
|--------------|----------|
| Entrypoint   | 0x0189   |
| Data Size    | 14 bytes |
| Instructions | 2        |

```
      00 01 02 03 04 05 06 07  08 09 0A 0B 0C 0D 0E 0F
      -- -- -- -- -- -- -- --  -- -- -- -- -- -- -- --
0180:                             53 F8 FF FF 7F F8 FF           S......
0190: FF 7F 64 69 73 30 00                              ..dis0.         
```

#### Opcodes

```
  0: 0x0189 [0x53] WAIT_SCHEDULER_TASK: Wait for scheduler "dis0" with entities [EventEntity, EventEntity]
  1: 0x0196 [0x00] END_REQSTACK()
```

### Event 65535.23

#### Metadata

| Field        | Value    |
|--------------|----------|
| Entrypoint   | 0x0197   |
| Data Size    | 16 bytes |
| Instructions | 2        |

```
      00 01 02 03 04 05 06 07  08 09 0A 0B 0C 0D 0E 0F
      -- -- -- -- -- -- -- --  -- -- -- -- -- -- -- --
0190:                      5B  02 80 F8 FF FF 7F F8 FF         [........
01A0: FF 7F 70 61 73 30 00                              ..pas0.         
```

#### Opcodes

```
  0: 0x0197 [0x5B] LOAD_EXT_SCHEDULER: Load scheduler "pas0" with entities [EventEntity, EventEntity], work=357*
  1: 0x01A6 [0x00] END_REQSTACK()
```

### Event 65535.24

#### Metadata

| Field        | Value    |
|--------------|----------|
| Entrypoint   | 0x01A7   |
| Data Size    | 14 bytes |
| Instructions | 2        |

```
      00 01 02 03 04 05 06 07  08 09 0A 0B 0C 0D 0E 0F
      -- -- -- -- -- -- -- --  -- -- -- -- -- -- -- --
01A0:                      53  F8 FF FF 7F F8 FF FF 7F         S........
01B0: 70 61 73 30 00                                    pas0.           
```

#### Opcodes

```
  0: 0x01A7 [0x53] WAIT_SCHEDULER_TASK: Wait for scheduler "pas0" with entities [EventEntity, EventEntity]
  1: 0x01B4 [0x00] END_REQSTACK()
```

### Event 65535.25

#### Metadata

| Field        | Value    |
|--------------|----------|
| Entrypoint   | 0x01B5   |
| Data Size    | 16 bytes |
| Instructions | 2        |

```
      00 01 02 03 04 05 06 07  08 09 0A 0B 0C 0D 0E 0F
      -- -- -- -- -- -- -- --  -- -- -- -- -- -- -- --
01B0:                5B 04 80  F8 FF FF 7F F8 FF FF 7F       [..........
01C0: 74 6C 62 30 00                                    tlb0.           
```

#### Opcodes

```
  0: 0x01B5 [0x5B] LOAD_EXT_SCHEDULER: Load scheduler "tlb0" with entities [EventEntity, EventEntity], work=365*
  1: 0x01C4 [0x00] END_REQSTACK()
```

### Event 65535.26

#### Metadata

| Field        | Value    |
|--------------|----------|
| Entrypoint   | 0x01C5   |
| Data Size    | 14 bytes |
| Instructions | 2        |

```
      00 01 02 03 04 05 06 07  08 09 0A 0B 0C 0D 0E 0F
      -- -- -- -- -- -- -- --  -- -- -- -- -- -- -- --
01C0:                53 F8 FF  FF 7F F8 FF FF 7F 74 6C       S........tl
01D0: 62 30 00                                          b0.             
```

#### Opcodes

```
  0: 0x01C5 [0x53] WAIT_SCHEDULER_TASK: Wait for scheduler "tlb0" with entities [EventEntity, EventEntity]
  1: 0x01D2 [0x00] END_REQSTACK()
```

### Event 65535.27

#### Metadata

| Field        | Value    |
|--------------|----------|
| Entrypoint   | 0x01D3   |
| Data Size    | 16 bytes |
| Instructions | 2        |

```
      00 01 02 03 04 05 06 07  08 09 0A 0B 0C 0D 0E 0F
      -- -- -- -- -- -- -- --  -- -- -- -- -- -- -- --
01D0:          5B 04 80 F8 FF  FF 7F F8 FF FF 7F 74 6C     [..........tl
01E0: 62 31 00                                          b1.             
```

#### Opcodes

```
  0: 0x01D3 [0x5B] LOAD_EXT_SCHEDULER: Load scheduler "tlb1" with entities [EventEntity, EventEntity], work=365*
  1: 0x01E2 [0x00] END_REQSTACK()
```

### Event 65535.28

#### Metadata

| Field        | Value    |
|--------------|----------|
| Entrypoint   | 0x01E3   |
| Data Size    | 14 bytes |
| Instructions | 2        |

```
      00 01 02 03 04 05 06 07  08 09 0A 0B 0C 0D 0E 0F
      -- -- -- -- -- -- -- --  -- -- -- -- -- -- -- --
01E0:          53 F8 FF FF 7F  F8 FF FF 7F 74 6C 62 31     S........tlb1
01F0: 00                                                .               
```

#### Opcodes

```
  0: 0x01E3 [0x53] WAIT_SCHEDULER_TASK: Wait for scheduler "tlb1" with entities [EventEntity, EventEntity]
  1: 0x01F0 [0x00] END_REQSTACK()
```

### Event 65535.29

#### Metadata

| Field        | Value    |
|--------------|----------|
| Entrypoint   | 0x01F1   |
| Data Size    | 16 bytes |
| Instructions | 2        |

```
      00 01 02 03 04 05 06 07  08 09 0A 0B 0C 0D 0E 0F
      -- -- -- -- -- -- -- --  -- -- -- -- -- -- -- --
01F0:    5B 05 80 F8 FF FF 7F  F8 FF FF 7F 74 6C 6B 30   [..........tlk0
0200: 00                                                .               
```

#### Opcodes

```
  0: 0x01F1 [0x5B] LOAD_EXT_SCHEDULER: Load scheduler "tlk0" with entities [EventEntity, EventEntity], work=359*
  1: 0x0200 [0x00] END_REQSTACK()
```

### Event 65535.30

#### Metadata

| Field        | Value    |
|--------------|----------|
| Entrypoint   | 0x0201   |
| Data Size    | 14 bytes |
| Instructions | 2        |

```
      00 01 02 03 04 05 06 07  08 09 0A 0B 0C 0D 0E 0F
      -- -- -- -- -- -- -- --  -- -- -- -- -- -- -- --
0200:    53 F8 FF FF 7F F8 FF  FF 7F 74 6C 6B 30 00      S........tlk0. 
```

#### Opcodes

```
  0: 0x0201 [0x53] WAIT_SCHEDULER_TASK: Wait for scheduler "tlk0" with entities [EventEntity, EventEntity]
  1: 0x020E [0x00] END_REQSTACK()
```

### Event 65535.31

#### Metadata

| Field        | Value    |
|--------------|----------|
| Entrypoint   | 0x020F   |
| Data Size    | 16 bytes |
| Instructions | 2        |

```
      00 01 02 03 04 05 06 07  08 09 0A 0B 0C 0D 0E 0F
      -- -- -- -- -- -- -- --  -- -- -- -- -- -- -- --
0200:                                               5B                 [
0210: 05 80 F8 FF FF 7F F8 FF  FF 7F 74 6C 6B 32 00     ..........tlk2. 
```

#### Opcodes

```
  0: 0x020F [0x5B] LOAD_EXT_SCHEDULER: Load scheduler "tlk2" with entities [EventEntity, EventEntity], work=359*
  1: 0x021E [0x00] END_REQSTACK()
```

### Event 65535.32

#### Metadata

| Field        | Value    |
|--------------|----------|
| Entrypoint   | 0x021F   |
| Data Size    | 14 bytes |
| Instructions | 2        |

```
      00 01 02 03 04 05 06 07  08 09 0A 0B 0C 0D 0E 0F
      -- -- -- -- -- -- -- --  -- -- -- -- -- -- -- --
0210:                                               53                 S
0220: F8 FF FF 7F F8 FF FF 7F  74 6C 6B 32 00           ........tlk2.   
```

#### Opcodes

```
  0: 0x021F [0x53] WAIT_SCHEDULER_TASK: Wait for scheduler "tlk2" with entities [EventEntity, EventEntity]
  1: 0x022C [0x00] END_REQSTACK()
```

### Event 65535.33

#### Metadata

| Field        | Value   |
|--------------|---------|
| Entrypoint   | 0x022D  |
| Data Size    | 9 bytes |
| Instructions | 3       |

```
      00 01 02 03 04 05 06 07  08 09 0A 0B 0C 0D 0E 0F
      -- -- -- -- -- -- -- --  -- -- -- -- -- -- -- --
0220:                                         5E 69 64               ^id
0230: 6C 30 1C 01 80 00                                 l0....          
```

#### Opcodes

```
  0: 0x022D [0x5E] EventEntity goes idle (kills current action) (animation: "idl0")
  1: 0x0232 [0x1C] WAIT(30* ticks)
  2: 0x0235 [0x00] END_REQSTACK()
```

### Event 527

#### Metadata

| Field        | Value   |
|--------------|---------|
| Entrypoint   | 0x0236  |
| Data Size    | 1 bytes |
| Instructions | 1       |

```
      00 01 02 03 04 05 06 07  08 09 0A 0B 0C 0D 0E 0F
      -- -- -- -- -- -- -- --  -- -- -- -- -- -- -- --
0230:                   00                                    .         
```

#### Opcodes

```
  0: 0x0236 [0x00] END_REQSTACK()
```

### Event 65535.34

#### Metadata

| Field        | Value    |
|--------------|----------|
| Entrypoint   | 0x0237   |
| Data Size    | 14 bytes |
| Instructions | 4        |

```
      00 01 02 03 04 05 06 07  08 09 0A 0B 0C 0D 0E 0F
      -- -- -- -- -- -- -- --  -- -- -- -- -- -- -- --
0230:                      32  06 80 1F 00 07 80 08 80         2........
0240: 09 80 1F 01 00                                    .....           
```

#### Opcodes

```
  0: 0x0237 [0x32] ExtData[1]->MainSpeed = 13* * 0.1
  1: 0x023A [0x1F] MOVE_ENTITY: EventEntity moves to X=108.865*, Z=105.719*, Y=-4.249*
  2: 0x0242 [0x1F] MOVE_ENTITY: Update entity position (mode=1)
  3: 0x0244 [0x00] END_REQSTACK()
```

### Event 65535.35

#### Metadata

| Field        | Value    |
|--------------|----------|
| Entrypoint   | 0x0245   |
| Data Size    | 23 bytes |
| Instructions | 5        |

```
      00 01 02 03 04 05 06 07  08 09 0A 0B 0C 0D 0E 0F
      -- -- -- -- -- -- -- --  -- -- -- -- -- -- -- --
0240:                37 0A 80  0B 80 0C 80 0D 80 32 06       7........2.
0250: 80 1F 00 0E 80 0F 80 0C  80 1F 01 00              ............    
```

#### Opcodes

```
  0: 0x0245 [0x37] UPDATE_EVENT_POSITION_AND_DIR: x=117.823*, z=97.359*, y=-3.749*, direction=272.6°*
  1: 0x024E [0x32] ExtData[1]->MainSpeed = 13* * 0.1
  2: 0x0251 [0x1F] MOVE_ENTITY: EventEntity moves to X=117.623*, Z=93.009*, Y=-3.749*
  3: 0x0259 [0x1F] MOVE_ENTITY: Update entity position (mode=1)
  4: 0x025B [0x00] END_REQSTACK()
```

### Event 65535.36

#### Metadata

| Field        | Value    |
|--------------|----------|
| Entrypoint   | 0x025C   |
| Data Size    | 16 bytes |
| Instructions | 5        |

```
      00 01 02 03 04 05 06 07  08 09 0A 0B 0C 0D 0E 0F
      -- -- -- -- -- -- -- --  -- -- -- -- -- -- -- --
0250:                                      32 06 80 1F              2...
0260: 00 0A 80 0B 80 0C 80 1F  01 22 01 00              ........."..    
```

#### Opcodes

```
  0: 0x025C [0x32] ExtData[1]->MainSpeed = 13* * 0.1
  1: 0x025F [0x1F] MOVE_ENTITY: EventEntity moves to X=117.823*, Z=97.359*, Y=-3.749*
  2: 0x0267 [0x1F] MOVE_ENTITY: Update entity position (mode=1)
  3: 0x0269 [0x22] ENTITY_HIDE_FLAG(enabled=0x01)
  4: 0x026B [0x00] END_REQSTACK()
```

### Event 65535.37

#### Metadata

| Field        | Value   |
|--------------|---------|
| Entrypoint   | 0x026C  |
| Data Size    | 5 bytes |
| Instructions | 3       |

```
      00 01 02 03 04 05 06 07  08 09 0A 0B 0C 0D 0E 0F
      -- -- -- -- -- -- -- --  -- -- -- -- -- -- -- --
0260:                                      1D 10 80 23              ...#
0270: 00                                                .               
```

#### Opcodes

```
  0: 0x026C [0x1D] PRINT_EVENT_MESSAGE(message_id=8939*)
    → "The Mithra I just saw... She was the Mithran Tracker from the homeland, wasn't she?"
  1: 0x026F [0x23] WAIT_FOR_DIALOG_INTERACTION
  2: 0x0270 [0x00] END_REQSTACK()
```

### Event 65535.38

#### Metadata

| Field        | Value    |
|--------------|----------|
| Entrypoint   | 0x0271   |
| Data Size    | 19 bytes |
| Instructions | 5        |

```
      00 01 02 03 04 05 06 07  08 09 0A 0B 0C 0D 0E 0F
      -- -- -- -- -- -- -- --  -- -- -- -- -- -- -- --
0270:    29 08 DD 10 0F 01 0C  1D 11 80 23 29 08 DD 10   ).........#)...
0280: 0F 01 0D 00                                       ....            
```

#### Opcodes

```
  0: 0x0271 [0x29] REQ_SET_WAIT(priority=0x08, entity_id=Semih Lafihna (ID: 17764573/0x010F10DD), tag_num=0x0C)
  1: 0x0278 [0x1D] PRINT_EVENT_MESSAGE(message_id=8941*)
    → "I want you to give me a clear answer. I come as a keeper of the peace of Windurst. Is the daughter of the sinner really dead?"
  2: 0x027B [0x23] WAIT_FOR_DIALOG_INTERACTION
  3: 0x027C [0x29] REQ_SET_WAIT(priority=0x08, entity_id=Semih Lafihna (ID: 17764573/0x010F10DD), tag_num=0x0D)
  4: 0x0283 [0x00] END_REQSTACK()
```

### Event 65535.39

#### Metadata

| Field        | Value    |
|--------------|----------|
| Entrypoint   | 0x0284   |
| Data Size    | 37 bytes |
| Instructions | 9        |

```
      00 01 02 03 04 05 06 07  08 09 0A 0B 0C 0D 0E 0F
      -- -- -- -- -- -- -- --  -- -- -- -- -- -- -- --
0280:             29 08 DD 10  0F 01 01 1D 12 80 23 1D      ).........#.
0290: 13 80 23 29 08 DD 10 0F  01 02 29 08 DD 10 0F 01  ..#)......).....
02A0: 04 29 08 DD 10 0F 01 05  00                       .).......       
```

#### Opcodes

```
  0: 0x0284 [0x29] REQ_SET_WAIT(priority=0x08, entity_id=Semih Lafihna (ID: 17764573/0x010F10DD), tag_num=0x01)
  1: 0x028B [0x1D] PRINT_EVENT_MESSAGE(message_id=8943*)
    → "Yes, she followed me to Jugner Forest. It seems the sinner carries a scent that we cannot detect."
  2: 0x028E [0x23] WAIT_FOR_DIALOG_INTERACTION
  3: 0x028F [0x1D] PRINT_EVENT_MESSAGE(message_id=8944*)
    → "But I was not the daughter the Tracker was seeking. Did you send the earring out of concern for me? If so, your fears appear to be unfounded."
  4: 0x0292 [0x23] WAIT_FOR_DIALOG_INTERACTION
  5: 0x0293 [0x29] REQ_SET_WAIT(priority=0x08, entity_id=Semih Lafihna (ID: 17764573/0x010F10DD), tag_num=0x02)
  6: 0x029A [0x29] REQ_SET_WAIT(priority=0x08, entity_id=Semih Lafihna (ID: 17764573/0x010F10DD), tag_num=0x04)
  7: 0x02A1 [0x29] REQ_SET_WAIT(priority=0x08, entity_id=Semih Lafihna (ID: 17764573/0x010F10DD), tag_num=0x05)
  8: 0x02A8 [0x00] END_REQSTACK()
```

### Event 65535.40

#### Metadata

| Field        | Value   |
|--------------|---------|
| Entrypoint   | 0x02A9  |
| Data Size    | 5 bytes |
| Instructions | 3       |

```
      00 01 02 03 04 05 06 07  08 09 0A 0B 0C 0D 0E 0F
      -- -- -- -- -- -- -- --  -- -- -- -- -- -- -- --
02A0:                             1D 14 80 23 00                 ...#.  
```

#### Opcodes

```
  0: 0x02A9 [0x1D] PRINT_EVENT_MESSAGE(message_id=8946*)
    → "I will take this opportunity to tell you, even if you are found to be guilty, I have no intention of becoming the next Chieftainness of Windurst."
  1: 0x02AC [0x23] WAIT_FOR_DIALOG_INTERACTION
  2: 0x02AD [0x00] END_REQSTACK()
```

### Event 65535.41

#### Metadata

| Field        | Value   |
|--------------|---------|
| Entrypoint   | 0x02AE  |
| Data Size    | 5 bytes |
| Instructions | 3       |

```
      00 01 02 03 04 05 06 07  08 09 0A 0B 0C 0D 0E 0F
      -- -- -- -- -- -- -- --  -- -- -- -- -- -- -- --
02A0:                                            1D 15                ..
02B0: 80 23 00                                          .#.             
```

#### Opcodes

```
  0: 0x02AE [0x1D] PRINT_EVENT_MESSAGE(message_id=8947*)
    → "However, I also have little desirrre to aid that Mithran Tracker in her hunt. I have no interest in the mysterrries of the past. The future is all that concerns me now."
  1: 0x02B1 [0x23] WAIT_FOR_DIALOG_INTERACTION
  2: 0x02B2 [0x00] END_REQSTACK()
```

### Event 541

#### Metadata

| Field        | Value   |
|--------------|---------|
| Entrypoint   | 0x02B3  |
| Data Size    | 1 bytes |
| Instructions | 1       |

```
      00 01 02 03 04 05 06 07  08 09 0A 0B 0C 0D 0E 0F
      -- -- -- -- -- -- -- --  -- -- -- -- -- -- -- --
02B0:          00                                          .            
```

#### Opcodes

```
  0: 0x02B3 [0x00] END_REQSTACK()
```

### Event 65535.42

#### Metadata

| Field        | Value    |
|--------------|----------|
| Entrypoint   | 0x02B4   |
| Data Size    | 13 bytes |
| Instructions | 3        |

```
      00 01 02 03 04 05 06 07  08 09 0A 0B 0C 0D 0E 0F
      -- -- -- -- -- -- -- --  -- -- -- -- -- -- -- --
02B0:             6E F8 FF FF  7F 16 80 99 F8 FF FF 7F      n...........
02C0: 00                                                .               
```

#### Opcodes

```
  0: 0x02B4 [0x6E] EventEntity uses emote 6*
  1: 0x02BB [0x99] Wait for EventEntity animation to complete
  2: 0x02C0 [0x00] END_REQSTACK()
```

### Event 65535.43

#### Metadata

| Field        | Value   |
|--------------|---------|
| Entrypoint   | 0x02C1  |
| Data Size    | 5 bytes |
| Instructions | 3       |

```
      00 01 02 03 04 05 06 07  08 09 0A 0B 0C 0D 0E 0F
      -- -- -- -- -- -- -- --  -- -- -- -- -- -- -- --
02C0:    1D 17 80 23 00                                  ...#.          
```

#### Opcodes

```
  0: 0x02C1 [0x1D] PRINT_EVENT_MESSAGE(message_id=9341*)
    → "Perih Vashai. There is something I wish to ask you. Please give me an answer."
  1: 0x02C4 [0x23] WAIT_FOR_DIALOG_INTERACTION
  2: 0x02C5 [0x00] END_REQSTACK()
```

### Event 65535.44

#### Metadata

| Field        | Value   |
|--------------|---------|
| Entrypoint   | 0x02C6  |
| Data Size    | 5 bytes |
| Instructions | 3       |

```
      00 01 02 03 04 05 06 07  08 09 0A 0B 0C 0D 0E 0F
      -- -- -- -- -- -- -- --  -- -- -- -- -- -- -- --
02C0:                   1D 18  80 23 00                       ...#.     
```

#### Opcodes

```
  0: 0x02C6 [0x1D] PRINT_EVENT_MESSAGE(message_id=9343*)
    → "No, not that. It's about my past..."
  1: 0x02C9 [0x23] WAIT_FOR_DIALOG_INTERACTION
  2: 0x02CA [0x00] END_REQSTACK()
```

### Event 65535.45

#### Metadata

| Field        | Value   |
|--------------|---------|
| Entrypoint   | 0x02CB  |
| Data Size    | 9 bytes |
| Instructions | 5       |

```
      00 01 02 03 04 05 06 07  08 09 0A 0B 0C 0D 0E 0F
      -- -- -- -- -- -- -- --  -- -- -- -- -- -- -- --
02C0:                                   1D 19 80 23 1D             ...#.
02D0: 1A 80 23 00                                       ..#.            
```

#### Opcodes

```
  0: 0x02CB [0x1D] PRINT_EVENT_MESSAGE(message_id=9344*)
    → "I rrrealized something with all this talk of the Bow of Light. The Sibyl Guards, every one of us, were prisoners in Oztroja twenty years ago."
  1: 0x02CE [0x23] WAIT_FOR_DIALOG_INTERACTION
  2: 0x02CF [0x1D] PRINT_EVENT_MESSAGE(message_id=9345*)
    → "I listened to everyone's stories, and they all have memories of being saved by that bow. But for some reason, I have no recollection of it..."
  3: 0x02D2 [0x23] WAIT_FOR_DIALOG_INTERACTION
  4: 0x02D3 [0x00] END_REQSTACK()
```

### Event 65535.46

#### Metadata

| Field        | Value   |
|--------------|---------|
| Entrypoint   | 0x02D4  |
| Data Size    | 5 bytes |
| Instructions | 3       |

```
      00 01 02 03 04 05 06 07  08 09 0A 0B 0C 0D 0E 0F
      -- -- -- -- -- -- -- --  -- -- -- -- -- -- -- --
02D0:             1D 1B 80 23  00                           ...#.       
```

#### Opcodes

```
  0: 0x02D4 [0x1D] PRINT_EVENT_MESSAGE(message_id=9346*)
    → "I was one of those prisoners as well, wasn't I? I was taken in by Heavens Tower to keep the secrets of the Bow of Light hidden from the world."
  1: 0x02D7 [0x23] WAIT_FOR_DIALOG_INTERACTION
  2: 0x02D8 [0x00] END_REQSTACK()
```

### Event 65535.47

#### Metadata

| Field        | Value   |
|--------------|---------|
| Entrypoint   | 0x02D9  |
| Data Size    | 5 bytes |
| Instructions | 3       |

```
      00 01 02 03 04 05 06 07  08 09 0A 0B 0C 0D 0E 0F
      -- -- -- -- -- -- -- --  -- -- -- -- -- -- -- --
02D0:                             1D 1C 80 23 00                 ...#.  
```

#### Opcodes

```
  0: 0x02D9 [0x1D] PRINT_EVENT_MESSAGE(message_id=9347*)
    → "Or was there some other reason that only affected me? I don't know how you managed to erase the scent of sin from me, but I must be the sinner's..."
  1: 0x02DC [0x23] WAIT_FOR_DIALOG_INTERACTION
  2: 0x02DD [0x00] END_REQSTACK()
```

### Event 65535.48

#### Metadata

| Field        | Value   |
|--------------|---------|
| Entrypoint   | 0x02DE  |
| Data Size    | 5 bytes |
| Instructions | 3       |

```
      00 01 02 03 04 05 06 07  08 09 0A 0B 0C 0D 0E 0F
      -- -- -- -- -- -- -- --  -- -- -- -- -- -- -- --
02D0:                                            1D 1D                ..
02E0: 80 23 00                                          .#.             
```

#### Opcodes

```
  0: 0x02DE [0x1D] PRINT_EVENT_MESSAGE(message_id=9349*)
    → "Then why? The Mithran Tracker assured me there was no record of my parents. And there's one thing I dimly rrrecall..."
  1: 0x02E1 [0x23] WAIT_FOR_DIALOG_INTERACTION
  2: 0x02E2 [0x00] END_REQSTACK()
```

### Event 65535.49

#### Metadata

| Field        | Value   |
|--------------|---------|
| Entrypoint   | 0x02E3  |
| Data Size    | 5 bytes |
| Instructions | 3       |

```
      00 01 02 03 04 05 06 07  08 09 0A 0B 0C 0D 0E 0F
      -- -- -- -- -- -- -- --  -- -- -- -- -- -- -- --
02E0:          1D 1E 80 23 00                              ...#.        
```

#### Opcodes

```
  0: 0x02E3 [0x1D] PRINT_EVENT_MESSAGE(message_id=9350*)
    → "At the time of the Great War, I rrremember my $1 was switched with another. My past...why...?"
  1: 0x02E6 [0x23] WAIT_FOR_DIALOG_INTERACTION
  2: 0x02E7 [0x00] END_REQSTACK()
```

### Event 65535.50

#### Metadata

| Field        | Value   |
|--------------|---------|
| Entrypoint   | 0x02E8  |
| Data Size    | 5 bytes |
| Instructions | 3       |

```
      00 01 02 03 04 05 06 07  08 09 0A 0B 0C 0D 0E 0F
      -- -- -- -- -- -- -- --  -- -- -- -- -- -- -- --
02E0:                          1D 1F 80 23 00                   ...#.   
```

#### Opcodes

```
  0: 0x02E8 [0x1D] PRINT_EVENT_MESSAGE(message_id=9351*)
    → "Why doesn't anybody know about my past?"
  1: 0x02EB [0x23] WAIT_FOR_DIALOG_INTERACTION
  2: 0x02EC [0x00] END_REQSTACK()
```

### Event 546

#### Metadata

| Field        | Value   |
|--------------|---------|
| Entrypoint   | 0x02ED  |
| Data Size    | 1 bytes |
| Instructions | 1       |

```
      00 01 02 03 04 05 06 07  08 09 0A 0B 0C 0D 0E 0F
      -- -- -- -- -- -- -- --  -- -- -- -- -- -- -- --
02E0:                                         00                     .  
```

#### Opcodes

```
  0: 0x02ED [0x00] END_REQSTACK()
```

### Event 65535.51

#### Metadata

| Field        | Value    |
|--------------|----------|
| Entrypoint   | 0x02EE   |
| Data Size    | 10 bytes |
| Instructions | 2        |

```
      00 01 02 03 04 05 06 07  08 09 0A 0B 0C 0D 0E 0F
      -- -- -- -- -- -- -- --  -- -- -- -- -- -- -- --
02E0:                                            37 20                7 
02F0: 80 21 80 0C 80 22 80 00                           .!..."..        
```

#### Opcodes

```
  0: 0x02EE [0x37] UPDATE_EVENT_POSITION_AND_DIR: x=116.388*, z=92.632*, y=-3.749*, direction=45.0°*
  1: 0x02F7 [0x00] END_REQSTACK()
```

### Event 65535.52

#### Metadata

| Field        | Value    |
|--------------|----------|
| Entrypoint   | 0x02F8   |
| Data Size    | 21 bytes |
| Instructions | 7        |

```
      00 01 02 03 04 05 06 07  08 09 0A 0B 0C 0D 0E 0F
      -- -- -- -- -- -- -- --  -- -- -- -- -- -- -- --
02F0:                          32 06 80 1F 00 23 80 24          2....#.$
0300: 80 0C 80 1F 01 1E 76 10  0F 01 6F 70 00           ......v...op.   
```

#### Opcodes

```
  0: 0x02F8 [0x32] ExtData[1]->MainSpeed = 13* * 0.1
  1: 0x02FB [0x1F] MOVE_ENTITY: EventEntity moves to X=116.548*, Z=91.913*, Y=-3.749*
  2: 0x0303 [0x1F] MOVE_ENTITY: Update entity position (mode=1)
  3: 0x0305 [0x1E] EventEntity looks at Perih Vashai (ID: 17764470/0x010F1076) and starts talking
  4: 0x030A [0x6F] WAIT_FRAME_DELAY: Yield until WaitTime reaches zero
  5: 0x030B [0x70] WAIT_ENTITY_RENDER_FLAG: Wait while EventEntity->Render.Flags3 bit 2 is set (cancel turn if not)
  6: 0x030C [0x00] END_REQSTACK()
```

### Event 65535.53

#### Metadata

| Field        | Value    |
|--------------|----------|
| Entrypoint   | 0x030D   |
| Data Size    | 29 bytes |
| Instructions | 7        |

```
      00 01 02 03 04 05 06 07  08 09 0A 0B 0C 0D 0E 0F
      -- -- -- -- -- -- -- --  -- -- -- -- -- -- -- --
0300:                                         1C 25 80               .%.
0310: 32 06 80 7C 00 F8 FF FF  7F 1F 00 26 80 27 80 28  2..|.......&.'.(
0320: 80 1F 01 7C 01 F8 FF FF  7F 00                    ...|......      
```

#### Opcodes

```
  0: 0x030D [0x1C] WAIT(120* ticks)
  1: 0x0310 [0x32] ExtData[1]->MainSpeed = 13* * 0.1
  2: 0x0313 [0x7C] EventEntity->Render.Flags2 |= 0x00
  3: 0x0319 [0x1F] MOVE_ENTITY: EventEntity moves to X=117.199*, Z=102.134*, Y=-3.809*
  4: 0x0321 [0x1F] MOVE_ENTITY: Update entity position (mode=1)
  5: 0x0323 [0x7C] EventEntity->Render.Flags2 |= 0x01
  6: 0x0329 [0x00] END_REQSTACK()
```

### Event 65535.54

#### Metadata

| Field        | Value    |
|--------------|----------|
| Entrypoint   | 0x032A   |
| Data Size    | 26 bytes |
| Instructions | 7        |

```
      00 01 02 03 04 05 06 07  08 09 0A 0B 0C 0D 0E 0F
      -- -- -- -- -- -- -- --  -- -- -- -- -- -- -- --
0320:                                79 00 DD 10 0F 01            y.....
0330: 76 10 0F 01 1C 29 80 7B  DD 10 0F 01 1E F0 FF FF  v....).{........
0340: 7F 6F 70 00                                       .op.            
```

#### Opcodes

```
  0: 0x032A [0x79] Semih Lafihna (ID: 17764573/0x010F10DD) looks at Perih Vashai (ID: 17764470/0x010F1076) (Basic look)
  1: 0x0334 [0x1C] WAIT(80* ticks)
  2: 0x0337 [0x7B] Semih Lafihna (ID: 17764573/0x010F10DD) stops talking
  3: 0x033C [0x1E] EventEntity looks at LocalPlayer and starts talking
  4: 0x0341 [0x6F] WAIT_FRAME_DELAY: Yield until WaitTime reaches zero
  5: 0x0342 [0x70] WAIT_ENTITY_RENDER_FLAG: Wait while EventEntity->Render.Flags3 bit 2 is set (cancel turn if not)
  6: 0x0343 [0x00] END_REQSTACK()
```

### Event 65535.55

#### Metadata

| Field        | Value   |
|--------------|---------|
| Entrypoint   | 0x0344  |
| Data Size    | 5 bytes |
| Instructions | 3       |

```
      00 01 02 03 04 05 06 07  08 09 0A 0B 0C 0D 0E 0F
      -- -- -- -- -- -- -- --  -- -- -- -- -- -- -- --
0340:             1D 2A 80 23  00                           .*.#.       
```

#### Opcodes

```
  0: 0x0344 [0x1D] PRINT_EVENT_MESSAGE(message_id=9365*)
    → "It was not I who found the bow. That honor belongs to the adventurer <Player>."
  1: 0x0347 [0x23] WAIT_FOR_DIALOG_INTERACTION
  2: 0x0348 [0x00] END_REQSTACK()
```

### Event 65535.56

#### Metadata

| Field        | Value   |
|--------------|---------|
| Entrypoint   | 0x0349  |
| Data Size    | 5 bytes |
| Instructions | 3       |

```
      00 01 02 03 04 05 06 07  08 09 0A 0B 0C 0D 0E 0F
      -- -- -- -- -- -- -- --  -- -- -- -- -- -- -- --
0340:                             1D 2B 80 23 00                 .+.#.  
```

#### Opcodes

```
  0: 0x0349 [0x1D] PRINT_EVENT_MESSAGE(message_id=9370*)
    → "...And just like that, she leaves..."
  1: 0x034C [0x23] WAIT_FOR_DIALOG_INTERACTION
  2: 0x034D [0x00] END_REQSTACK()
```

### Event 65535.57

#### Metadata

| Field        | Value   |
|--------------|---------|
| Entrypoint   | 0x034E  |
| Data Size    | 5 bytes |
| Instructions | 3       |

```
      00 01 02 03 04 05 06 07  08 09 0A 0B 0C 0D 0E 0F
      -- -- -- -- -- -- -- --  -- -- -- -- -- -- -- --
0340:                                            1D 2C                .,
0350: 80 23 00                                          .#.             
```

#### Opcodes

```
  0: 0x034E [0x1D] PRINT_EVENT_MESSAGE(message_id=9372*)
    → "And not catching the sinner?"
  1: 0x0351 [0x23] WAIT_FOR_DIALOG_INTERACTION
  2: 0x0352 [0x00] END_REQSTACK()
```

### Event 65535.58

#### Metadata

| Field        | Value   |
|--------------|---------|
| Entrypoint   | 0x0353  |
| Data Size    | 5 bytes |
| Instructions | 3       |

```
      00 01 02 03 04 05 06 07  08 09 0A 0B 0C 0D 0E 0F
      -- -- -- -- -- -- -- --  -- -- -- -- -- -- -- --
0350:          1D 2D 80 23 00                              .-.#.        
```

#### Opcodes

```
  0: 0x0353 [0x1D] PRINT_EVENT_MESSAGE(message_id=9374*)
    → "In that case, the magicite's power must truly be dreadful."
  1: 0x0356 [0x23] WAIT_FOR_DIALOG_INTERACTION
  2: 0x0357 [0x00] END_REQSTACK()
```

### Event 65535.59

#### Metadata

| Field        | Value   |
|--------------|---------|
| Entrypoint   | 0x0358  |
| Data Size    | 5 bytes |
| Instructions | 3       |

```
      00 01 02 03 04 05 06 07  08 09 0A 0B 0C 0D 0E 0F
      -- -- -- -- -- -- -- --  -- -- -- -- -- -- -- --
0350:                          1D 2E 80 23 00                   ...#.   
```

#### Opcodes

```
  0: 0x0358 [0x1D] PRINT_EVENT_MESSAGE(message_id=9380*)
    → "...I understand now. Perih Vashai, you lost the light when you drew back the string of that cursed weapon."
  1: 0x035B [0x23] WAIT_FOR_DIALOG_INTERACTION
  2: 0x035C [0x00] END_REQSTACK()
```

### Event 65535.60

#### Metadata

| Field        | Value   |
|--------------|---------|
| Entrypoint   | 0x035D  |
| Data Size    | 5 bytes |
| Instructions | 3       |

```
      00 01 02 03 04 05 06 07  08 09 0A 0B 0C 0D 0E 0F
      -- -- -- -- -- -- -- --  -- -- -- -- -- -- -- --
0350:                                         1D 2F 80               ./.
0360: 23 00                                             #.              
```

#### Opcodes

```
  0: 0x035D [0x1D] PRINT_EVENT_MESSAGE(message_id=9383*)
    → "...... I rrrespect you, Perih Vashai. I don't know if I could have done the same in your place."
  1: 0x0360 [0x23] WAIT_FOR_DIALOG_INTERACTION
  2: 0x0361 [0x00] END_REQSTACK()
```

### Event 65535.61

#### Metadata

| Field        | Value    |
|--------------|----------|
| Entrypoint   | 0x0362   |
| Data Size    | 17 bytes |
| Instructions | 5        |

```
      00 01 02 03 04 05 06 07  08 09 0A 0B 0C 0D 0E 0F
      -- -- -- -- -- -- -- --  -- -- -- -- -- -- -- --
0360:       7C 00 F8 FF FF 7F  1D 30 80 23 7C 01 F8 FF    |......0.#|...
0370: FF 7F 00                                          ...             
```

#### Opcodes

```
  0: 0x0362 [0x7C] EventEntity->Render.Flags2 |= 0x00
  1: 0x0368 [0x1D] PRINT_EVENT_MESSAGE(message_id=9385*)
    → "......"
  2: 0x036B [0x23] WAIT_FOR_DIALOG_INTERACTION
  3: 0x036C [0x7C] EventEntity->Render.Flags2 |= 0x01
  4: 0x0372 [0x00] END_REQSTACK()
```

### Event 65535.62

#### Metadata

| Field        | Value   |
|--------------|---------|
| Entrypoint   | 0x0373  |
| Data Size    | 5 bytes |
| Instructions | 3       |

```
      00 01 02 03 04 05 06 07  08 09 0A 0B 0C 0D 0E 0F
      -- -- -- -- -- -- -- --  -- -- -- -- -- -- -- --
0370:          1D 31 80 23 00                              .1.#.        
```

#### Opcodes

```
  0: 0x0373 [0x1D] PRINT_EVENT_MESSAGE(message_id=9387*)
    → "I will come to see you again. Until then, may the wind guide your footsteps."
  1: 0x0376 [0x23] WAIT_FOR_DIALOG_INTERACTION
  2: 0x0377 [0x00] END_REQSTACK()
```

### Event 619

#### Metadata

| Field        | Value   |
|--------------|---------|
| Entrypoint   | 0x0378  |
| Data Size    | 1 bytes |
| Instructions | 1       |

```
      00 01 02 03 04 05 06 07  08 09 0A 0B 0C 0D 0E 0F
      -- -- -- -- -- -- -- --  -- -- -- -- -- -- -- --
0370:                          00                               .       
```

#### Opcodes

```
  0: 0x0378 [0x00] END_REQSTACK()
```

### Event 65535.63

#### Metadata

| Field        | Value    |
|--------------|----------|
| Entrypoint   | 0x0379   |
| Data Size    | 10 bytes |
| Instructions | 2        |

```
      00 01 02 03 04 05 06 07  08 09 0A 0B 0C 0D 0E 0F
      -- -- -- -- -- -- -- --  -- -- -- -- -- -- -- --
0370:                             37 32 80 33 80 34 80           72.3.4.
0380: 35 80 00                                          5..             
```

#### Opcodes

```
  0: 0x0379 [0x37] UPDATE_EVENT_POSITION_AND_DIR: x=-27.259*, z=-23.051*, y=-2.500*, direction=356.8°*
  1: 0x0382 [0x00] END_REQSTACK()
```

### Event 65535.64

#### Metadata

| Field        | Value    |
|--------------|----------|
| Entrypoint   | 0x0383   |
| Data Size    | 15 bytes |
| Instructions | 5        |

```
      00 01 02 03 04 05 06 07  08 09 0A 0B 0C 0D 0E 0F
      -- -- -- -- -- -- -- --  -- -- -- -- -- -- -- --
0380:          32 36 80 1F 00  37 80 38 80 39 80 1F 01     26...7.8.9...
0390: 6F 00                                             o.              
```

#### Opcodes

```
  0: 0x0383 [0x32] ExtData[1]->MainSpeed = 40* * 0.1
  1: 0x0386 [0x1F] MOVE_ENTITY: EventEntity moves to X=-17.119*, Z=-22.960*, Y=-2.750*
  2: 0x038E [0x1F] MOVE_ENTITY: Update entity position (mode=1)
  3: 0x0390 [0x6F] WAIT_FRAME_DELAY: Yield until WaitTime reaches zero
  4: 0x0391 [0x00] END_REQSTACK()
```

### Event 65535.65

#### Metadata

| Field        | Value    |
|--------------|----------|
| Entrypoint   | 0x0392   |
| Data Size    | 10 bytes |
| Instructions | 2        |

```
      00 01 02 03 04 05 06 07  08 09 0A 0B 0C 0D 0E 0F
      -- -- -- -- -- -- -- --  -- -- -- -- -- -- -- --
0390:       37 3A 80 3B 80 39  80 3C 80 00                7:.;.9.<..    
```

#### Opcodes

```
  0: 0x0392 [0x37] UPDATE_EVENT_POSITION_AND_DIR: x=-9.276*, z=-19.962*, y=-2.750*, direction=0.9°*
  1: 0x039B [0x00] END_REQSTACK()
```

### Event 65535.66

#### Metadata

| Field        | Value    |
|--------------|----------|
| Entrypoint   | 0x039C   |
| Data Size    | 28 bytes |
| Instructions | 8        |

```
      00 01 02 03 04 05 06 07  08 09 0A 0B 0C 0D 0E 0F
      -- -- -- -- -- -- -- --  -- -- -- -- -- -- -- --
0390:                                      32 06 80 1F              2...
03A0: 00 3D 80 3E 80 39 80 1F  01 6F 4B F8 FF FF 7F 3F  .=.>.9...oK....?
03B0: 80 6F 76 F8 FF FF 7F 00                           .ov.....        
```

#### Opcodes

```
  0: 0x039C [0x32] ExtData[1]->MainSpeed = 13* * 0.1
  1: 0x039F [0x1F] MOVE_ENTITY: EventEntity moves to X=-7.209*, Z=-19.951*, Y=-2.750*
  2: 0x03A7 [0x1F] MOVE_ENTITY: Update entity position (mode=1)
  3: 0x03A9 [0x6F] WAIT_FRAME_DELAY: Yield until WaitTime reaches zero
  4: 0x03AA [0x4B] UPDATE_ENTITY_YAW(entity=EventEntity, yaw=1.3°*)
  5: 0x03B1 [0x6F] WAIT_FRAME_DELAY: Yield until WaitTime reaches zero
  6: 0x03B2 [0x76] CHECK_ENTITY_RENDER_FLAGS: Wait until EventEntity Render.Flags0 and Render.Flags3 conditions are met
  7: 0x03B7 [0x00] END_REQSTACK()
```

### Event 65535.67

#### Metadata

| Field        | Value    |
|--------------|----------|
| Entrypoint   | 0x03B8   |
| Data Size    | 33 bytes |
| Instructions | 7        |

```
      00 01 02 03 04 05 06 07  08 09 0A 0B 0C 0D 0E 0F
      -- -- -- -- -- -- -- --  -- -- -- -- -- -- -- --
03B0:                          37 40 80 41 80 39 80 42          7@.A.9.B
03C0: 80 32 36 80 1F 00 43 80  44 80 45 80 1F 01 1F 00  .26...C.D.E.....
03D0: 46 80 47 80 34 80 1F 01  00                       F.G.4....       
```

#### Opcodes

```
  0: 0x03B8 [0x37] UPDATE_EVENT_POSITION_AND_DIR: x=-19.129*, z=-22.300*, y=-2.750*, direction=177.7°*
  1: 0x03C1 [0x32] ExtData[1]->MainSpeed = 40* * 0.1
  2: 0x03C4 [0x1F] MOVE_ENTITY: EventEntity moves to X=-23.507*, Z=-23.093*, Y=-2.749*
  3: 0x03CC [0x1F] MOVE_ENTITY: Update entity position (mode=1)
  4: 0x03CE [0x1F] MOVE_ENTITY: EventEntity moves to X=-30.170*, Z=-12.473*, Y=-2.500*
  5: 0x03D6 [0x1F] MOVE_ENTITY: Update entity position (mode=1)
  6: 0x03D8 [0x00] END_REQSTACK()
```

### Event 65535.68

#### Metadata

| Field        | Value   |
|--------------|---------|
| Entrypoint   | 0x03D9  |
| Data Size    | 5 bytes |
| Instructions | 3       |

```
      00 01 02 03 04 05 06 07  08 09 0A 0B 0C 0D 0E 0F
      -- -- -- -- -- -- -- --  -- -- -- -- -- -- -- --
03D0:                             1D 48 80 23 00                 .H.#.  
```

#### Opcodes

```
  0: 0x03D9 [0x1D] PRINT_EVENT_MESSAGE(message_id=9589*)
    → "The bearer of darkness has returned!"
  1: 0x03DC [0x23] WAIT_FOR_DIALOG_INTERACTION
  2: 0x03DD [0x00] END_REQSTACK()
```

### Event 65535.69

#### Metadata

| Field        | Value   |
|--------------|---------|
| Entrypoint   | 0x03DE  |
| Data Size    | 5 bytes |
| Instructions | 3       |

```
      00 01 02 03 04 05 06 07  08 09 0A 0B 0C 0D 0E 0F
      -- -- -- -- -- -- -- --  -- -- -- -- -- -- -- --
03D0:                                            1D 49                .I
03E0: 80 23 00                                          .#.             
```

#### Opcodes

```
  0: 0x03DE [0x1D] PRINT_EVENT_MESSAGE(message_id=9591*)
    → "We don't know. We haven't been able to open the door to her chambers. But with your magic, we should be able to get in..."
  1: 0x03E1 [0x23] WAIT_FOR_DIALOG_INTERACTION
  2: 0x03E2 [0x00] END_REQSTACK()
```
