# 17764771

## Common Data

| Field            | Value                    |
|------------------|--------------------------|
| Zone             | Windurst Woods (ID: 241) |
| Block Size       | 76 bytes                 |
| Total Events     | 3                        |
| References Count | 1                        |

## List of Events

| Event ID                 | Entrypoint   |   Size |   Instructions |
|--------------------------|--------------|--------|----------------|
| [65535](#event-65535)    | 0x0000       |      1 |              1 |
| [838](#event-838)        | 0x0001       |      1 |              1 |
| [65535.1](#event-655351) | 0x0002       |     39 |              4 |

## DAT References (imed_data)

|   Index | Hex Value   |   Dec Value |
|---------|-------------|-------------|
|       0 | 0x0023      |          35 |

## Events

### Event 65535

#### Metadata

| Field        | Value   |
|--------------|---------|
| Entrypoint   | 0x0000  |
| Data Size    | 1 bytes |
| Instructions | 1       |

```
      00 01 02 03 04 05 06 07  08 09 0A 0B 0C 0D 0E 0F
      -- -- -- -- -- -- -- --  -- -- -- -- -- -- -- --
0000: 00                                                .               
```

#### Opcodes

```
  0: 0x0000 [0x00] END_REQSTACK()
```

### Event 838

#### Metadata

| Field        | Value   |
|--------------|---------|
| Entrypoint   | 0x0001  |
| Data Size    | 1 bytes |
| Instructions | 1       |

```
      00 01 02 03 04 05 06 07  08 09 0A 0B 0C 0D 0E 0F
      -- -- -- -- -- -- -- --  -- -- -- -- -- -- -- --
0000:    00                                              .              
```

#### Opcodes

```
  0: 0x0001 [0x00] END_REQSTACK()
```

### Event 65535.1

#### Metadata

| Field        | Value    |
|--------------|----------|
| Entrypoint   | 0x0002   |
| Data Size    | 39 bytes |
| Instructions | 4        |

```
      00 01 02 03 04 05 06 07  08 09 0A 0B 0C 0D 0E 0F
      -- -- -- -- -- -- -- --  -- -- -- -- -- -- -- --
0000:       2C F8 FF FF 7F F8  FF FF 7F 73 69 74 32 53    ,........sit2S
0010: F8 FF FF 7F F8 FF FF 7F  73 69 74 32 AD 00 00 80  ........sit2....
0020: F8 FF FF 7F F8 FF FF 7F  00                       .........       
```

#### Opcodes

```
  0: 0x0002 [0x2C] CREATE_SCHEDULER_TASK: Create scheduler "sit2" with entities [EventEntity, EventEntity]
  1: 0x000F [0x53] WAIT_SCHEDULER_TASK: Wait for scheduler "sit2" with entities [EventEntity, EventEntity]
  2: 0x001C [0xAD] DUAL_ENTITY_SCHEDULER_HANDLER: Execute sub-case 0 with entities [EventEntity, EventEntity], work=35*
  3: 0x0028 [0x00] END_REQSTACK()
```
