# 17764608 - Teldro-Kesdrodo

## Common Data

| Field            | Value                    |
|------------------|--------------------------|
| Zone             | Windurst Woods (ID: 241) |
| Block Size       | 22816 bytes              |
| Total Events     | 23                       |
| References Count | 823                      |

## List of Events

| Event ID                   | Entrypoint   |   Size |   Instructions |
|----------------------------|--------------|--------|----------------|
| [65535](#event-65535)      | 0x0000       |      1 |              1 |
| [878](#event-878)          | 0x0001       |     54 |             16 |
| [877](#event-877)          | 0x0037       |     31 |             11 |
| [874](#event-874)          | 0x0056       |     28 |             10 |
| [875](#event-875)          | 0x0072       |     27 |              9 |
| [876](#event-876)          | 0x008D       |      1 |              1 |
| [65535.1](#event-655351)   | 0x008E       |     13 |              3 |
| [65535.2](#event-655352)   | 0x009B       |     29 |              3 |
| [65535.3](#event-655353)   | 0x00B8       |     29 |              3 |
| [65535.4](#event-655354)   | 0x00D5       |     29 |              3 |
| [65535.5](#event-655355)   | 0x00F2       |     29 |              3 |
| [65535.6](#event-655356)   | 0x010F       |     29 |              3 |
| [65535.7](#event-655357)   | 0x012C       |     29 |              3 |
| [65535.8](#event-655358)   | 0x0149       |     29 |              3 |
| [65535.9](#event-655359)   | 0x0166       |     29 |              3 |
| [65535.10](#event-6553510) | 0x0183       |     29 |              3 |
| [65535.11](#event-6553511) | 0x01A0       |     29 |              3 |
| [65535.12](#event-6553512) | 0x01BD       |     29 |              3 |
| [65535.13](#event-6553513) | 0x01DA       |     19 |              5 |
| [65535.14](#event-6553514) | 0x01ED       |     19 |              5 |
| [879](#event-879)          | 0x0200       |  17485 |           3561 |
| [880](#event-880)          | 0x464D       |   1314 |            188 |
| [881](#event-881)          | 0x4B6F       |    103 |             26 |

## DAT References (imed_data)

|   Index | Hex Value   |   Dec Value |
|---------|-------------|-------------|
|       0 | 0x38A1      |       14497 |
|       1 | 0x000A      |          10 |
|       2 | 0x38A2      |       14498 |
|       3 | 0x38A3      |       14499 |
|       4 | 0x0005      |           5 |
|       5 | 0x38A4      |       14500 |
|       6 | 0x002D      |          45 |
|       7 | 0x0031      |          49 |
|       8 | 0x00BD      |         189 |
|       9 | 0x0028      |          40 |
|      10 | 0x0029      |          41 |
|      11 | 0x1818C     |       98700 |
|      12 | 0xFFFF9AA9  |  4294941353 |
|      13 | 0xFFFFEC78  |  4294962296 |
|      14 | 0x17CF0     |       97520 |
|      15 | 0xFFFFA1FA  |  4294943226 |
|      16 | 0xFFFFEB6A  |  4294962026 |
|      17 | 0x0000      |           0 |
|      18 | 0x0004      |           4 |
|      19 | 0x38D7      |       14551 |
|      20 | 0x0001      |           1 |
|      21 | 0x3853      |       14419 |
|      22 | 0x0007      |           7 |
|      23 | 0x0038      |          56 |
|      24 | 0x0008      |           8 |
|      25 | 0x0020      |          32 |
|      26 | 0x0040      |          64 |
|      27 | 0x0060      |          96 |
|      28 | 0x0302      |         770 |
|      29 | 0x3854      |       14420 |
|      30 | 0x0006      |           6 |
|      31 | 0x0002      |           2 |
|      32 | 0x0003      |           3 |
|      33 | 0x0009      |           9 |
|      34 | 0x0011      |          17 |
|      35 | 0x000B      |          11 |
|      36 | 0x3855      |       14421 |
|      37 | 0x38D8      |       14552 |
|      38 | 0x38D9      |       14553 |
|      39 | 0x0064      |         100 |
|      40 | 0x3856      |       14422 |
|      41 | 0x38DA      |       14554 |
|      42 | 0x38DB      |       14555 |
|      43 | 0x389F      |       14495 |
|      44 | 0x38A0      |       14496 |
|      45 | 0x007A      |         122 |
|      46 | 0x010E      |         270 |
|      47 | 0x000C      |          12 |
|      48 | 0x03FE      |        1022 |
|      49 | 0x0033      |          51 |
|      50 | 0x0019      |          25 |
|      51 | 0x3858      |       14424 |
|      52 | 0x3859      |       14425 |
|      53 | 0x38DE      |       14558 |
|      54 | 0x38DF      |       14559 |
|      55 | 0x38E0      |       14560 |
|      56 | 0x38E1      |       14561 |
|      57 | 0x38E2      |       14562 |
|      58 | 0x38E3      |       14563 |
|      59 | 0x7530      |       30000 |
|      60 | 0x38E4      |       14564 |
|      61 | 0x38E5      |       14565 |
|      62 | 0x38E6      |       14566 |
|      63 | 0x38E7      |       14567 |
|      64 | 0x38E8      |       14568 |
|      65 | 0x38E9      |       14569 |
|      66 | 0x38EA      |       14570 |
|      67 | 0x38EB      |       14571 |
|      68 | 0x38EC      |       14572 |
|      69 | 0x38ED      |       14573 |
|      70 | 0x001E      |          30 |
|      71 | 0x000F      |          15 |
|      72 | 0x0010      |          16 |
|      73 | 0x001F      |          31 |
|      74 | 0x385B      |       14427 |
|      75 | 0x38EE      |       14574 |
|      76 | 0x38DC      |       14556 |
|      77 | 0x38DD      |       14557 |
|      78 | 0x385C      |       14428 |
|      79 | 0x03C0      |         960 |
|      80 | 0x0063      |          99 |
|      81 | 0x1EF0      |        7920 |
|      82 | 0x38EF      |       14575 |
|      83 | 0x38F0      |       14576 |
|      84 | 0x385D      |       14429 |
|      85 | 0x38F1      |       14577 |
|      86 | 0x000D      |          13 |
|      87 | 0x38F2      |       14578 |
|      88 | 0x384D      |       14413 |
|      89 | 0x3851      |       14417 |
|      90 | 0x0018      |          24 |
|      91 | 0x38F3      |       14579 |
|      92 | 0x38F4      |       14580 |
|      93 | 0x38F5      |       14581 |
|      94 | 0x38F6      |       14582 |
|      95 | 0x38F7      |       14583 |
|      96 | 0x3857      |       14423 |
|      97 | 0x38F8      |       14584 |
|      98 | 0x38F9      |       14585 |
|      99 | 0x38FA      |       14586 |
|     100 | 0x38FB      |       14587 |
|     101 | 0x3912      |       14610 |
|     102 | 0x3863      |       14435 |
|     103 | 0x3864      |       14436 |
|     104 | 0x3865      |       14437 |
|     105 | 0x3866      |       14438 |
|     106 | 0x0A47      |        2631 |
|     107 | 0x3867      |       14439 |
|     108 | 0x3868      |       14440 |
|     109 | 0x3869      |       14441 |
|     110 | 0x386A      |       14442 |
|     111 | 0x386B      |       14443 |
|     112 | 0x386C      |       14444 |
|     113 | 0x386D      |       14445 |
|     114 | 0x386E      |       14446 |
|     115 | 0x386F      |       14447 |
|     116 | 0x3870      |       14448 |
|     117 | 0x3871      |       14449 |
|     118 | 0x3872      |       14450 |
|     119 | 0x3873      |       14451 |
|     120 | 0x3874      |       14452 |
|     121 | 0x3875      |       14453 |
|     122 | 0x3876      |       14454 |
|     123 | 0x3877      |       14455 |
|     124 | 0x3878      |       14456 |
|     125 | 0x3879      |       14457 |
|     126 | 0x387A      |       14458 |
|     127 | 0x387B      |       14459 |
|     128 | 0x387C      |       14460 |
|     129 | 0x387D      |       14461 |
|     130 | 0x387E      |       14462 |
|     131 | 0x387F      |       14463 |
|     132 | 0x3880      |       14464 |
|     133 | 0x3881      |       14465 |
|     134 | 0x3882      |       14466 |
|     135 | 0x3883      |       14467 |
|     136 | 0x3884      |       14468 |
|     137 | 0x3885      |       14469 |
|     138 | 0x3886      |       14470 |
|     139 | 0x186A0     |      100000 |
|     140 | 0x3887      |       14471 |
|     141 | 0x3888      |       14472 |
|     142 | 0x3889      |       14473 |
|     143 | 0x388A      |       14474 |
|     144 | 0x388B      |       14475 |
|     145 | 0x388C      |       14476 |
|     146 | 0x388D      |       14477 |
|     147 | 0x388E      |       14478 |
|     148 | 0x388F      |       14479 |
|     149 | 0x3890      |       14480 |
|     150 | 0x03E8      |        1000 |
|     151 | 0x3891      |       14481 |
|     152 | 0x3892      |       14482 |
|     153 | 0x3893      |       14483 |
|     154 | 0x3894      |       14484 |
|     155 | 0x3895      |       14485 |
|     156 | 0x3896      |       14486 |
|     157 | 0x3897      |       14487 |
|     158 | 0x3898      |       14488 |
|     159 | 0x3899      |       14489 |
|     160 | 0x389A      |       14490 |
|     161 | 0x000E      |          14 |
|     162 | 0x0012      |          18 |
|     163 | 0x0013      |          19 |
|     164 | 0x0014      |          20 |
|     165 | 0x0015      |          21 |
|     166 | 0x0016      |          22 |
|     167 | 0x0017      |          23 |
|     168 | 0x001A      |          26 |
|     169 | 0x001B      |          27 |
|     170 | 0x001C      |          28 |
|     171 | 0x001D      |          29 |
|     172 | 0x0065      |         101 |
|     173 | 0x2AF80     |      176000 |
|     174 | 0xFFFC5680  |  4294727296 |
|     175 | 0xFFFFB1E0  |  4294947296 |
|     176 | 0x007F      |         127 |
|     177 | 0x00C8      |         200 |
|     178 | 0x006B      |         107 |
|     179 | 0xFFF92230  |  4294517296 |
|     180 | 0xFFFDB9F8  |  4294818296 |
|     181 | 0x975E      |       38750 |
|     182 | 0x05FF      |        1535 |
|     183 | 0x0074      |         116 |
|     184 | 0x5795E     |      358750 |
|     185 | 0x2710      |       10000 |
|     186 | 0xFFFFCC3E  |  4294954046 |
|     187 | 0x07FF      |        2047 |
|     188 | 0x0066      |         102 |
|     189 | 0x0884      |        2180 |
|     190 | 0x01A4      |         420 |
|     191 | 0x072D      |        1837 |
|     192 | 0x0190      |         400 |
|     193 | 0x006C      |         108 |
|     194 | 0xFFFE4A1C  |  4294855196 |
|     195 | 0x4234C     |      271180 |
|     196 | 0x308E      |       12430 |
|     197 | 0x0A66      |        2662 |
|     198 | 0x0075      |         117 |
|     199 | 0x57E40     |      360000 |
|     200 | 0xFFFF5038  |  4294922296 |
|     201 | 0xFFFFFF7E  |  4294967166 |
|     202 | 0x0535      |        1333 |
|     203 | 0x0067      |         103 |
|     204 | 0xF618      |       63000 |
|     205 | 0xFFFEDB08  |  4294892296 |
|     206 | 0x047E      |        1150 |
|     207 | 0xFFFFFB39  |  4294966073 |
|     208 | 0x05DC      |        1500 |
|     209 | 0x0076      |         118 |
|     210 | 0xFFFB0848  |  4294641736 |
|     211 | 0x45F24     |      286500 |
|     212 | 0xFFFF6028  |  4294926376 |
|     213 | 0x0280      |         640 |
|     214 | 0x007E      |         126 |
|     215 | 0x2DC6C     |      187500 |
|     216 | 0xFFFFB118  |  4294947096 |
|     217 | 0xFFFFAC86  |  4294945926 |
|     218 | 0x083C      |        2108 |
|     219 | 0x9C9DC     |      641500 |
|     220 | 0xD735C     |      881500 |
|     221 | 0x055C      |        1372 |
|     222 | 0x86C4      |       34500 |
|     223 | 0xFFF4B22C  |  4294226476 |
|     224 | 0xFFFFE91C  |  4294961436 |
|     225 | 0x0FD9      |        4057 |
|     226 | 0x007B      |         123 |
|     227 | 0xFFF8B264  |  4294488676 |
|     228 | 0xFFFA3440  |  4294587456 |
|     229 | 0x3FAC      |       16300 |
|     230 | 0x639C0     |      408000 |
|     231 | 0xFFFEE0D0  |  4294893776 |
|     232 | 0xFFFFFFD9  |  4294967257 |
|     233 | 0x063F      |        1599 |
|     234 | 0x0068      |         104 |
|     235 | 0xEA60      |       60000 |
|     236 | 0xFFFFD8F0  |  4294957296 |
|     237 | 0x0226      |         550 |
|     238 | 0x0C06      |        3078 |
|     239 | 0x0708      |        1800 |
|     240 | 0x006D      |         109 |
|     241 | 0xFFF862C8  |  4294468296 |
|     242 | 0xFFF6E204  |  4294369796 |
|     243 | 0x61A8      |       25000 |
|     244 | 0x0C08      |        3080 |
|     245 | 0x0077      |         119 |
|     246 | 0xFFFD920C  |  4294808076 |
|     247 | 0xFFF77340  |  4294406976 |
|     248 | 0xFFFFA240  |  4294943296 |
|     249 | 0x0903      |        2307 |
|     250 | 0x0072      |         114 |
|     251 | 0x6F09A     |      454810 |
|     252 | 0xFFFF9B06  |  4294941446 |
|     253 | 0xFFFFD36E  |  4294955886 |
|     254 | 0x05B7      |        1463 |
|     255 | 0x007C      |         124 |
|     256 | 0x3DF9A     |      253850 |
|     257 | 0x1937A     |      103290 |
|     258 | 0x0C9E      |        3230 |
|     259 | 0x0511      |        1297 |
|     260 | 0x0079      |         121 |
|     261 | 0x7C2B8     |      508600 |
|     262 | 0xFFF72FF2  |  4294389746 |
|     263 | 0x0992      |        2450 |
|     264 | 0x08FF      |        2303 |
|     265 | 0xFFFC412C  |  4294721836 |
|     266 | 0x3BEC0     |      245440 |
|     267 | 0xFFFF8206  |  4294935046 |
|     268 | 0x01FF      |         511 |
|     269 | 0x00D5      |         213 |
|     270 | 0xFFFF15A0  |  4294907296 |
|     271 | 0x1ADB0     |      110000 |
|     272 | 0x1464      |        5220 |
|     273 | 0xFFFFFC01  |  4294966273 |
|     274 | 0x00A7      |         167 |
|     275 | 0xFFFA3B70  |  4294589296 |
|     276 | 0xFFFCA4A0  |  4294747296 |
|     277 | 0xFFFFF060  |  4294963296 |
|     278 | 0x0069      |         105 |
|     279 | 0x6B4EA     |      439530 |
|     280 | 0xFFFDAF3A  |  4294815546 |
|     281 | 0x2012      |        8210 |
|     282 | 0x0949      |        2377 |
|     283 | 0x0834      |        2100 |
|     284 | 0x006E      |         110 |
|     285 | 0xFFF43C5C  |  4294196316 |
|     286 | 0xFFF87E84  |  4294475396 |
|     287 | 0xFFFF7446  |  4294931526 |
|     288 | 0x0DE3      |        3555 |
|     289 | 0x0078      |         120 |
|     290 | 0x4A326     |      303910 |
|     291 | 0x4A8C6     |      305350 |
|     292 | 0x93D0      |       37840 |
|     293 | 0x0A00      |        2560 |
|     294 | 0x006F      |         111 |
|     295 | 0x1D6FA     |      120570 |
|     296 | 0xFFFD4270  |  4294787696 |
|     297 | 0xFFFFF1C8  |  4294963656 |
|     298 | 0x0FFD      |        4093 |
|     299 | 0x0070      |         112 |
|     300 | 0x8CAC8     |      576200 |
|     301 | 0xFFFBF56E  |  4294702446 |
|     302 | 0x06E0      |        1760 |
|     303 | 0xFFFDC998  |  4294822296 |
|     304 | 0xFFFFE0C0  |  4294959296 |
|     305 | 0x007D      |         125 |
|     306 | 0x164CC     |       91340 |
|     307 | 0xFFFFA470  |  4294943856 |
|     308 | 0xFFFFFB78  |  4294966136 |
|     309 | 0xFFFB4128  |  4294656296 |
|     310 | 0x28C58     |      167000 |
|     311 | 0xFFFFEC28  |  4294962216 |
|     312 | 0x06FF      |        1791 |
|     313 | 0xFFFB6C20  |  4294667296 |
|     314 | 0x4EBC4     |      322500 |
|     315 | 0x4650      |       18000 |
|     316 | 0x03FF      |        1023 |
|     317 | 0x00CD      |         205 |
|     318 | 0x13880     |       80000 |
|     319 | 0x3F3B8     |      259000 |
|     320 | 0x0099      |         153 |
|     321 | 0x4268      |       17000 |
|     322 | 0xFFFFB47E  |  4294947966 |
|     323 | 0x00FF      |         255 |
|     324 | 0x00AE      |         174 |
|     325 | 0x6B3A      |       27450 |
|     326 | 0x40740     |      264000 |
|     327 | 0xFFFFCB44  |  4294953796 |
|     328 | 0x00B0      |         176 |
|     329 | 0x4844      |       18500 |
|     330 | 0xFFFE63E4  |  4294861796 |
|     331 | 0x4E02      |       19970 |
|     332 | 0x009F      |         159 |
|     333 | 0x14050     |       82000 |
|     334 | 0x00D0      |         208 |
|     335 | 0xD1F60     |      860000 |
|     336 | 0xFFFA52E0  |  4294595296 |
|     337 | 0xFFFFE05C  |  4294959196 |
|     338 | 0xFFFD8348  |  4294804296 |
|     339 | 0xFFFFD120  |  4294955296 |
|     340 | 0x0071      |         113 |
|     341 | 0x10A86     |       68230 |
|     342 | 0x24248     |      148040 |
|     343 | 0xFFFFE822  |  4294961186 |
|     344 | 0x0960      |        2400 |
|     345 | 0xFFF99DF0  |  4294548976 |
|     346 | 0xFFFE6BD2  |  4294863826 |
|     347 | 0xFFFFBE88  |  4294950536 |
|     348 | 0xFFFFFB01  |  4294966017 |
|     349 | 0x00A0      |         160 |
|     350 | 0x5CC6      |       23750 |
|     351 | 0xFFFC0964  |  4294707556 |
|     352 | 0x67DE      |       26590 |
|     353 | 0xFFFFFD41  |  4294966593 |
|     354 | 0x00CC      |         204 |
|     355 | 0xFFFD4C98  |  4294790296 |
|     356 | 0xFFFD6408  |  4294796296 |
|     357 | 0xFFFFA254  |  4294943316 |
|     358 | 0xFFFFFE81  |  4294966913 |
|     359 | 0x0048      |          72 |
|     360 | 0xFFFE7960  |  4294867296 |
|     361 | 0x4E20      |       20000 |
|     362 | 0xFFFFDECC  |  4294958796 |
|     363 | 0x003D      |          61 |
|     364 | 0xFFF6A578  |  4294354296 |
|     365 | 0x38270     |      230000 |
|     366 | 0xFFFFACCC  |  4294945996 |
|     367 | 0xFFFFFE01  |  4294966785 |
|     368 | 0x00D4      |         212 |
|     369 | 0xFFFE2F28  |  4294848296 |
|     370 | 0xFFFD34C4  |  4294784196 |
|     371 | 0xE22C      |       57900 |
|     372 | 0xFFFFB26C  |  4294947436 |
|     373 | 0x0C1C      |        3100 |
|     374 | 0x0080      |         128 |
|     375 | 0xFFFDD744  |  4294825796 |
|     376 | 0x4D58      |       19800 |
|     377 | 0xFFFFEADE  |  4294961886 |
|     378 | 0x004F      |          79 |
|     379 | 0xA1220     |      660000 |
|     380 | 0x3A78C     |      239500 |
|     381 | 0x0044      |          68 |
|     382 | 0x251C      |        9500 |
|     383 | 0xFFFEAA34  |  4294879796 |
|     384 | 0x5280      |       21120 |
|     385 | 0x1004      |        4100 |
|     386 | 0x0331      |         817 |
|     387 | 0x0332      |         818 |
|     388 | 0x0333      |         819 |
|     389 | 0x0334      |         820 |
|     390 | 0x0335      |         821 |
|     391 | 0x0337      |         823 |
|     392 | 0x0336      |         822 |
|     393 | 0x0338      |         824 |
|     394 | 0x0343      |         835 |
|     395 | 0x0339      |         825 |
|     396 | 0x033B      |         827 |
|     397 | 0x0356      |         854 |
|     398 | 0x035B      |         859 |
|     399 | 0x033A      |         826 |
|     400 | 0x033D      |         829 |
|     401 | 0x033F      |         831 |
|     402 | 0x0344      |         836 |
|     403 | 0x0345      |         837 |
|     404 | 0x0357      |         855 |
|     405 | 0x035C      |         860 |
|     406 | 0x035F      |         863 |
|     407 | 0x037B      |         891 |
|     408 | 0x033C      |         828 |
|     409 | 0x033E      |         830 |
|     410 | 0x0340      |         832 |
|     411 | 0x0341      |         833 |
|     412 | 0x0342      |         834 |
|     413 | 0x0358      |         856 |
|     414 | 0x0359      |         857 |
|     415 | 0x035D      |         861 |
|     416 | 0x0360      |         864 |
|     417 | 0x0361      |         865 |
|     418 | 0x0362      |         866 |
|     419 | 0x0363      |         867 |
|     420 | 0x037C      |         892 |
|     421 | 0x037D      |         893 |
|     422 | 0x0382      |         898 |
|     423 | 0x0380      |         896 |
|     424 | 0x037E      |         894 |
|     425 | 0x035A      |         858 |
|     426 | 0x0397      |         919 |
|     427 | 0x035E      |         862 |
|     428 | 0x0364      |         868 |
|     429 | 0x0365      |         869 |
|     430 | 0x0396      |         918 |
|     431 | 0x0383      |         899 |
|     432 | 0x037F      |         895 |
|     433 | 0x0381      |         897 |
|     434 | 0x0398      |         920 |
|     435 | 0x0392      |         914 |
|     436 | 0x0393      |         915 |
|     437 | 0x0394      |         916 |
|     438 | 0x0399      |         921 |
|     439 | 0x039A      |         922 |
|     440 | 0x039B      |         923 |
|     441 | 0x039C      |         924 |
|     442 | 0x501B      |       20507 |
|     443 | 0x501C      |       20508 |
|     444 | 0x23F3      |        9203 |
|     445 | 0x0032      |          50 |
|     446 | 0x5029      |       20521 |
|     447 | 0x502A      |       20522 |
|     448 | 0x2384      |        9092 |
|     449 | 0x502F      |       20527 |
|     450 | 0x5030      |       20528 |
|     451 | 0x2364      |        9060 |
|     452 | 0x5064      |       20580 |
|     453 | 0x5065      |       20581 |
|     454 | 0x23F7      |        9207 |
|     455 | 0x507B      |       20603 |
|     456 | 0x507C      |       20604 |
|     457 | 0x235F      |        9055 |
|     458 | 0x507E      |       20606 |
|     459 | 0x507F      |       20607 |
|     460 | 0x2358      |        9048 |
|     461 | 0x5080      |       20608 |
|     462 | 0x5081      |       20609 |
|     463 | 0x2347      |        9031 |
|     464 | 0x50C7      |       20679 |
|     465 | 0x50C8      |       20680 |
|     466 | 0x23F5      |        9205 |
|     467 | 0x50C9      |       20681 |
|     468 | 0x50CA      |       20682 |
|     469 | 0x23F6      |        9206 |
|     470 | 0x50D8      |       20696 |
|     471 | 0x50D9      |       20697 |
|     472 | 0x23BD      |        9149 |
|     473 | 0x50E4      |       20708 |
|     474 | 0x50E5      |       20709 |
|     475 | 0x2385      |        9093 |
|     476 | 0x5083      |       20611 |
|     477 | 0x5084      |       20612 |
|     478 | 0x2319      |        8985 |
|     479 | 0x5085      |       20613 |
|     480 | 0x5086      |       20614 |
|     481 | 0x231D      |        8989 |
|     482 | 0x54BA      |       21690 |
|     483 | 0x54BB      |       21691 |
|     484 | 0x54B8      |       21688 |
|     485 | 0x54B9      |       21689 |
|     486 | 0x54BF      |       21695 |
|     487 | 0x54C0      |       21696 |
|     488 | 0x54C6      |       21702 |
|     489 | 0x54C7      |       21703 |
|     490 | 0x2362      |        9058 |
|     491 | 0x54F4      |       21748 |
|     492 | 0x54F5      |       21749 |
|     493 | 0x23F4      |        9204 |
|     494 | 0x513F      |       20799 |
|     495 | 0x5140      |       20800 |
|     496 | 0x2389      |        9097 |
|     497 | 0x5144      |       20804 |
|     498 | 0x5145      |       20805 |
|     499 | 0x2361      |        9057 |
|     500 | 0x5146      |       20806 |
|     501 | 0x5147      |       20807 |
|     502 | 0x2320      |        8992 |
|     503 | 0x5175      |       20853 |
|     504 | 0x5176      |       20854 |
|     505 | 0x5173      |       20851 |
|     506 | 0x5174      |       20852 |
|     507 | 0x2363      |        9059 |
|     508 | 0x552D      |       21805 |
|     509 | 0x552E      |       21806 |
|     510 | 0x23F9      |        9209 |
|     511 | 0x51A2      |       20898 |
|     512 | 0x51A3      |       20899 |
|     513 | 0x235B      |        9051 |
|     514 | 0x51CE      |       20942 |
|     515 | 0x51CF      |       20943 |
|     516 | 0x2360      |        9056 |
|     517 | 0x51F4      |       20980 |
|     518 | 0x51F5      |       20981 |
|     519 | 0x238F      |        9103 |
|     520 | 0x51FB      |       20987 |
|     521 | 0x51FC      |       20988 |
|     522 | 0x2318      |        8984 |
|     523 | 0x5225      |       21029 |
|     524 | 0x5226      |       21030 |
|     525 | 0x2388      |        9096 |
|     526 | 0x522A      |       21034 |
|     527 | 0x522B      |       21035 |
|     528 | 0x2344      |        9028 |
|     529 | 0x5253      |       21075 |
|     530 | 0x5254      |       21076 |
|     531 | 0x5262      |       21090 |
|     532 | 0x5263      |       21091 |
|     533 | 0x238A      |        9098 |
|     534 | 0x526B      |       21099 |
|     535 | 0x526C      |       21100 |
|     536 | 0x231B      |        8987 |
|     537 | 0x5629      |       22057 |
|     538 | 0x562A      |       22058 |
|     539 | 0x52A7      |       21159 |
|     540 | 0x52A8      |       21160 |
|     541 | 0x52AA      |       21162 |
|     542 | 0x52AB      |       21163 |
|     543 | 0x2322      |        8994 |
|     544 | 0x52AC      |       21164 |
|     545 | 0x52AD      |       21165 |
|     546 | 0x6721      |       26401 |
|     547 | 0x6722      |       26402 |
|     548 | 0x23BE      |        9150 |
|     549 | 0x6BF8      |       27640 |
|     550 | 0x6BF9      |       27641 |
|     551 | 0x6BF6      |       27638 |
|     552 | 0x6BF7      |       27639 |
|     553 | 0x6BF4      |       27636 |
|     554 | 0x6BF5      |       27637 |
|     555 | 0x52E3      |       21219 |
|     556 | 0x52E4      |       21220 |
|     557 | 0x52E6      |       21222 |
|     558 | 0x52E7      |       21223 |
|     559 | 0x2321      |        8993 |
|     560 | 0x5668      |       22120 |
|     561 | 0x5669      |       22121 |
|     562 | 0x53EB      |       21483 |
|     563 | 0x53EC      |       21484 |
|     564 | 0x56FA      |       22266 |
|     565 | 0x56FB      |       22267 |
|     566 | 0x23BF      |        9151 |
|     567 | 0x5365      |       21349 |
|     568 | 0x5366      |       21350 |
|     569 | 0x2315      |        8981 |
|     570 | 0x56EE      |       22254 |
|     571 | 0x56EF      |       22255 |
|     572 | 0x535F      |       21343 |
|     573 | 0x5360      |       21344 |
|     574 | 0x53A8      |       21416 |
|     575 | 0x53A9      |       21417 |
|     576 | 0x235E      |        9054 |
|     577 | 0x53AA      |       21418 |
|     578 | 0x53AB      |       21419 |
|     579 | 0x2345      |        9029 |
|     580 | 0x6423      |       25635 |
|     581 | 0x6424      |       25636 |
|     582 | 0x6401      |       25601 |
|     583 | 0x6402      |       25602 |
|     584 | 0x2387      |        9095 |
|     585 | 0x68A2      |       26786 |
|     586 | 0x68A3      |       26787 |
|     587 | 0x68A0      |       26784 |
|     588 | 0x68A1      |       26785 |
|     589 | 0x686B      |       26731 |
|     590 | 0x686C      |       26732 |
|     591 | 0x2346      |        9030 |
|     592 | 0x685A      |       26714 |
|     593 | 0x685B      |       26715 |
|     594 | 0x231F      |        8991 |
|     595 | 0x6855      |       26709 |
|     596 | 0x6856      |       26710 |
|     597 | 0x2313      |        8979 |
|     598 | 0x6484      |       25732 |
|     599 | 0x6485      |       25733 |
|     600 | 0x646D      |       25709 |
|     601 | 0x646E      |       25710 |
|     602 | 0x6450      |       25680 |
|     603 | 0x6451      |       25681 |
|     604 | 0x2390      |        9104 |
|     605 | 0x693E      |       26942 |
|     606 | 0x693F      |       26943 |
|     607 | 0x6910      |       26896 |
|     608 | 0x6911      |       26897 |
|     609 | 0x2356      |        9046 |
|     610 | 0x6907      |       26887 |
|     611 | 0x6908      |       26888 |
|     612 | 0x68F4      |       26868 |
|     613 | 0x68F5      |       26869 |
|     614 | 0x68F6      |       26870 |
|     615 | 0x68F7      |       26871 |
|     616 | 0x231E      |        8990 |
|     617 | 0x68F8      |       26872 |
|     618 | 0x68F9      |       26873 |
|     619 | 0x6A0E      |       27150 |
|     620 | 0x6A0F      |       27151 |
|     621 | 0x23F8      |        9208 |
|     622 | 0x6A0C      |       27148 |
|     623 | 0x6A0D      |       27149 |
|     624 | 0x69E2      |       27106 |
|     625 | 0x69E3      |       27107 |
|     626 | 0x2386      |        9094 |
|     627 | 0x69E4      |       27108 |
|     628 | 0x69E5      |       27109 |
|     629 | 0x69AA      |       27050 |
|     630 | 0x69AB      |       27051 |
|     631 | 0x6D59      |       27993 |
|     632 | 0x6D5A      |       27994 |
|     633 | 0x6D5B      |       27995 |
|     634 | 0x6D5C      |       27996 |
|     635 | 0x231C      |        8988 |
|     636 | 0x64FF      |       25855 |
|     637 | 0x6500      |       25856 |
|     638 | 0x6A5E      |       27230 |
|     639 | 0x6A5F      |       27231 |
|     640 | 0x6DE6      |       28134 |
|     641 | 0x6DE7      |       28135 |
|     642 | 0x2316      |        8982 |
|     643 | 0x6DE8      |       28136 |
|     644 | 0x6DE9      |       28137 |
|     645 | 0x2317      |        8983 |
|     646 | 0x6543      |       25923 |
|     647 | 0x6544      |       25924 |
|     648 | 0x6B11      |       27409 |
|     649 | 0x6B12      |       27410 |
|     650 | 0x2357      |        9047 |
|     651 | 0x6B0F      |       27407 |
|     652 | 0x6B10      |       27408 |
|     653 | 0x6E71      |       28273 |
|     654 | 0x6E72      |       28274 |
|     655 | 0x6E73      |       28275 |
|     656 | 0x6E74      |       28276 |
|     657 | 0x6BF1      |       27633 |
|     658 | 0x6BF2      |       27634 |
|     659 | 0x2311      |        8977 |
|     660 | 0x1388      |        5000 |
|     661 | 0x539A      |       21402 |
|     662 | 0x539B      |       21403 |
|     663 | 0x2312      |        8978 |
|     664 | 0x6EBE      |       28350 |
|     665 | 0x6EBF      |       28351 |
|     666 | 0x2314      |        8980 |
|     667 | 0x6E6F      |       28271 |
|     668 | 0x6E70      |       28272 |
|     669 | 0x230F      |        8975 |
|     670 | 0x6BCE      |       27598 |
|     671 | 0x6BCF      |       27599 |
|     672 | 0x2310      |        8976 |
|     673 | 0x2CEF      |       11503 |
|     674 | 0x6857      |       26711 |
|     675 | 0x230E      |        8974 |
|     676 | 0x35BF      |       13759 |
|     677 | 0x6CCB      |       27851 |
|     678 | 0x31C9      |       12745 |
|     679 | 0x6D5D      |       27997 |
|     680 | 0x3782      |       14210 |
|     681 | 0x6DEA      |       28138 |
|     682 | 0x2C95      |       11413 |
|     683 | 0x6E75      |       28277 |
|     684 | 0x2CF0      |       11504 |
|     685 | 0x6858      |       26712 |
|     686 | 0x35C0      |       13760 |
|     687 | 0x6CCC      |       27852 |
|     688 | 0x31CA      |       12746 |
|     689 | 0x6D5E      |       27998 |
|     690 | 0x37B1      |       14257 |
|     691 | 0x6DEB      |       28139 |
|     692 | 0x2C96      |       11414 |
|     693 | 0x6E76      |       28278 |
|     694 | 0x2CF1      |       11505 |
|     695 | 0x6859      |       26713 |
|     696 | 0x35D2      |       13778 |
|     697 | 0x6CCD      |       27853 |
|     698 | 0x31CB      |       12747 |
|     699 | 0x6D5F      |       27999 |
|     700 | 0x37B2      |       14258 |
|     701 | 0x6DEC      |       28140 |
|     702 | 0x2C97      |       11415 |
|     703 | 0x6E77      |       28279 |
|     704 | 0x65A5      |       26021 |
|     705 | 0x65A6      |       26022 |
|     706 | 0x6591      |       26001 |
|     707 | 0x6592      |       26002 |
|     708 | 0x6B7D      |       27517 |
|     709 | 0x6B7E      |       27518 |
|     710 | 0x6B74      |       27508 |
|     711 | 0x6B75      |       27509 |
|     712 | 0x2343      |        9027 |
|     713 | 0x6B70      |       27504 |
|     714 | 0x6B71      |       27505 |
|     715 | 0x6EC0      |       28352 |
|     716 | 0x6EC1      |       28353 |
|     717 | 0x231A      |        8986 |
|     718 | 0x6BE3      |       27619 |
|     719 | 0x6BE4      |       27620 |
|     720 | 0x6BD9      |       27609 |
|     721 | 0x6BDA      |       27610 |
|     722 | 0x6BD1      |       27601 |
|     723 | 0x6BD2      |       27602 |
|     724 | 0x6EFC      |       28412 |
|     725 | 0x6EFD      |       28413 |
|     726 | 0x6F07      |       28423 |
|     727 | 0x6F08      |       28424 |
|     728 | 0x6F0D      |       28429 |
|     729 | 0x6F0E      |       28430 |
|     730 | 0x6F0B      |       28427 |
|     731 | 0x6F0C      |       28428 |
|     732 | 0x6B9C      |       27548 |
|     733 | 0x6B9D      |       27549 |
|     734 | 0x6B96      |       27542 |
|     735 | 0x6B97      |       27543 |
|     736 | 0x6B8C      |       27532 |
|     737 | 0x6B8D      |       27533 |
|     738 | 0x6F41      |       28481 |
|     739 | 0x6F42      |       28482 |
|     740 | 0x6F44      |       28484 |
|     741 | 0x6F45      |       28485 |
|     742 | 0x6F46      |       28486 |
|     743 | 0x6F47      |       28487 |
|     744 | 0x6F4A      |       28490 |
|     745 | 0x6F4B      |       28491 |
|     746 | 0x2A12      |       10770 |
|     747 | 0x2A13      |       10771 |
|     748 | 0x2A10      |       10768 |
|     749 | 0x2A11      |       10769 |
|     750 | 0x6BA6      |       27558 |
|     751 | 0x6BA7      |       27559 |
|     752 | 0x6BA8      |       27560 |
|     753 | 0x6BA9      |       27561 |
|     754 | 0x6BAA      |       27562 |
|     755 | 0x6BAB      |       27563 |
|     756 | 0x0FF8      |        4088 |
|     757 | 0x03D3      |         979 |
|     758 | 0x0FF6      |        4086 |
|     759 | 0x03D1      |         977 |
|     760 | 0x0FF7      |        4087 |
|     761 | 0x03D2      |         978 |
|     762 | 0x2359      |        9049 |
|     763 | 0x3A98      |       15000 |
|     764 | 0x230D      |        8973 |
|     765 | 0x1055      |        4181 |
|     766 | 0x1056      |        4182 |
|     767 | 0x1764      |        5988 |
|     768 | 0x1765      |        5989 |
|     769 | 0x13FA      |        5114 |
|     770 | 0x13FB      |        5115 |
|     771 | 0x13FC      |        5116 |
|     772 | 0x13FD      |        5117 |
|     773 | 0x13FE      |        5118 |
|     774 | 0x13FF      |        5119 |
|     775 | 0x1739      |        5945 |
|     776 | 0x0E64      |        3684 |
|     777 | 0x0E67      |        3687 |
|     778 | 0x0E66      |        3686 |
|     779 | 0x0E65      |        3685 |
|     780 | 0x0E68      |        3688 |
|     781 | 0x0E6A      |        3690 |
|     782 | 0x6486      |       25734 |
|     783 | 0x6487      |       25735 |
|     784 | 0x6488      |       25736 |
|     785 | 0x6489      |       25737 |
|     786 | 0x648A      |       25738 |
|     787 | 0x648B      |       25739 |
|     788 | 0x648C      |       25740 |
|     789 | 0x648D      |       25741 |
|     790 | 0x648E      |       25742 |
|     791 | 0x648F      |       25743 |
|     792 | 0x6490      |       25744 |
|     793 | 0x01F4      |         500 |
|     794 | 0x38FC      |       14588 |
|     795 | 0x38FD      |       14589 |
|     796 | 0x3860      |       14432 |
|     797 | 0x38FE      |       14590 |
|     798 | 0x38FF      |       14591 |
|     799 | 0x3900      |       14592 |
|     800 | 0x3901      |       14593 |
|     801 | 0x3902      |       14594 |
|     802 | 0x3903      |       14595 |
|     803 | 0x3904      |       14596 |
|     804 | 0x3905      |       14597 |
|     805 | 0x3906      |       14598 |
|     806 | 0x3861      |       14433 |
|     807 | 0x3907      |       14599 |
|     808 | 0x3908      |       14600 |
|     809 | 0x3909      |       14601 |
|     810 | 0x390A      |       14602 |
|     811 | 0x390D      |       14605 |
|     812 | 0x3862      |       14434 |
|     813 | 0x390E      |       14606 |
|     814 | 0x390F      |       14607 |
|     815 | 0x3910      |       14608 |
|     816 | 0x3911      |       14609 |
|     817 | 0x390B      |       14603 |
|     818 | 0x390C      |       14604 |
|     819 | 0x00C9      |         201 |
|     820 | 0x00D7      |         215 |
|     821 | 0x384E      |       14414 |
|     822 | 0x384F      |       14415 |

## String References

- **14413**: Join which Unity? [I need time to consider./Pieuje./Ayame./Invincible Shield./Apururu./Maat./Aldo./Jakoh Wahcondalo./Naja Salaheem./Flaviria./Yoran-Oran./Sylvie.]
- **14414**: Should you join one Unity, you will not be able to switch to another one until the rankings are tallied. Proceed anyway?
- **14415**: Join [Pieuje's/Ayame's/Invincible Shield's/Apururu's/Maat's/Aldo's/Jakoh Wahcondalo's/Naja Salaheem's/Flaviria's/Yoran-Oran's/Sylvie's] Unity? [Yes./No.]
- **14417**: Join [Pieuje's/Ayame's/Invincible Shield's/Apururu's/Maat's/Aldo's/Jakoh Wahcondalo's/Naja Salaheem's/Flaviria's/Yoran-Oran's/Sylvie's] Unity? ($2 acc.) [Yes. (Cost: $1 accolade[/s])/No.]
- **14419**: Any actions to take? [None at the moment./Bring me to a Wanted encounter area./Enhance my equipment.[/ (In progress)]/Add an attribute to enhanced equipment./Items, please. (Up to $17 acc.)/Special mats! (Up to $17 acc.)/I want to change Unities./Tell me more about all this.]
- **14420**: Which area? [Return to previous selection./Currently accepted area./Content level 99 and below./Content level 119./Content level 122./Content level 125./Content level 128./Content level 135./Content level 145./Content level 137.]
- **14421**: Go to which area? [Return to previous selection./$8./$8./$8./$8./$8./$8./$8./$8./Next page.]
- **14422**: Go to $8? ($2 acc.) [Yes. (Cost: $1 accolade[/s])/Not now.]
- **14423**: Hear an explanation on which topic? [Return to previous selection./Give me a quick outline./Unity Concord./Unities./Unity chat./Connection with Records of Eminence./Wanted battles./Enhancing equipment./Adding attributes to enhanced equipment./Rewards and accolades./Changing Unities./Unity rankings./Unity leader alter egos.]
- **14424**: Select a type of equipment. [Return to previous selection./Item level 119 weapons/shields./Item level 119 headgear./Item level 119 chestgear./Item level 119 handgear./Item level 119 leggear./Item level 119 footgear./Level 99 equipment./Level 98 and lower equipment./Accessories.]
- **14428**: Buy $1? [Yes, please. (Cost: $0 accolade[/s])/No, thank you.]
- **14429**: $3 $0$0 ? [Yes, please. (Cost: $0 accolade[/s])/No, thank you.]
- **14432**: Enhance the $1? ($2 acc.) [Yes, please. (Cost: $0 accolade[/s])/No, thank you.]
- **14435**: Unity Concord is a system promulgated and managed by the Adventurers' Mutual Aid Network.
- **14436**: Participating adventurers are able to receive a variety of benefits and rewards just by engaging in their everyday activities.
- **14437**: "Unity" is a catchall term that refers to the group that participants belong to.
- **14438**: Unity leaders are individuals who have strong ties to adventurers' activities and are sterling representatives of their home nations.
- **14439**: Members of the same Unity can converse with each other over great distances through the use of specialized figurines known as "$5."
- **14440**: Chat settings may be changed by selecting "Status" from the main menu, and choosing "Unity Info" under the "Unity" submenu.
- **14441**: You may not always be able to join the chat if too many players are participating at once.
- **14442**: Those belonging to a Unity are able to undertake special Records of Eminence objectives related to Unity Concord activities.
- **14443**: The three pertinent categories include shared objectives, Unity leader-specific objectives, and Wanted battle objectives.
- **14444**: Shared objectives may be taken regardless of which Unity you have joined. These tasks can be undertaken at any time, and change every day at midnight (JST).
- **14445**: Unity leader-specific objectives are tied to the Unity's eponymous leader and change each week.
- **14446**: "Wanted" objectives center around vanquishing particularly heinous foes that terrorize Vana'diel.
- **14447**: These objectives are of a higher caliber, and thus require currency known as "Unity accolades" to undertake.
- **14448**: Shared and leader-specific objectives provide more accolades than run-of-the-mill objectives.
- **14449**: Vana'diel has always been plagued by nefarious foes pillaging the landscape, but relatives of some of the more heinous ones have been spotted lately.
- **14450**: The A.M.A.N. has deemed it necessary to eliminate these Wanted targets, and has notified Unity members that they are of the utmost priority.
- **14451**: A list of these foes can be viewed at any time by selecting the appropriate subcategory under the objectives list.
- **14452**: Unity Concord representatives are able to provide participants with transportation to the areas where these threats can be found.
- **14453**: Though tackling the profane will likely require participation of your allies, the objective can be undertaken so long as at least one person has set the appropriate objective.
- **14454**: When you set the objective and commence the battle, the requisite number of Unity accolades will be deducted from your total.
- **14455**: Successful challengers will be rewarded with special rewards in addition to the normal sparks of eminence.
- **14456**: No Unity accolades will be charged should you commence the battle without having the appropriate objective set, but the rewards you can reap from your efforts will be limited.
- **14457**: You can snatch unparalleled equipment and materials from the slain corpses of Wanted targets.
- **14458**: An A.M.A.N. specialist versed in arcane harmonization has kindly offered to use these materials to bring out the latent potential in such pieces.
- **14459**: One of the Unity guides will be pleased to accept certain combinations of equipment and materials to begin the process for you.
- **14460**: A number of accolades is required for this service, but the precision and accuracy of her methods are without equal, and there is no worry of your equipment being destroyed.
- **14461**: You can use specified materials to add new attributes to equipment that has been upgraded.
- **14462**: Utilizing additional materials after adding an attribute can accumulate Reinforcement Points for the equipment and increase its rank.
- **14463**: Increasing your equipment's rank can boost its attributes, while some equipment can also have additional attributes added later.
- **14464**: Speak to the Unity guides after gathering the necessary materials for your equipment in order to add attributes to it or increase its rank.
- **14465**: The first time you add an attribute to a piece of equipment will require the use of Unity accolades.
- **14466**: It also requires that you first complete a specific Records of Eminence objective.
- **14467**: The work you request will be carried out on-site by a specially trained Unity guide.
- **14468**: Completing Records of Eminence objectives as part of a Unity will reward you with Unity accolades in addition to sparks of eminence.
- **14469**: These accolades not only serve as a symbol of prestige, but can also be exchanged for a variety of services.
- **14470**: Some of these services include purchasing items, securing battle zones for hunting Wanted targets, fees for strengthening equipment, and more.
- **14471**: Please note that you may only exchange a maximum of $0 accolades per week (Earth time).
- **14472**: You may switch Unities once during the Unity ranking tabulation period.
- **14473**: This is not a decision to be taken lightly, for switching Unities will cause you to forfeit any benefits you were receiving from your previous one.
- **14474**: This process requires a fair deal of paperwork, and the A.M.A.N. will charge you an accolade fee based on your rank.
- **14475**: However, your valorous deeds remain wherever you choose to go, and you will not lose any other accolades.
- **14476**: Rankings are decided through the combined efforts of each of the Unity's members.
- **14477**: The A.M.A.N. tabulates all the good deeds done during a period of time and confers benefits on a Unity for the following ranking period.
- **14478**: Some of these benefits include changes to Unity accolades gained and the effects of equipment earned from Wanted battles.
- **14479**: Yes, you read that correctly--the attributes of certain equipment will increase in line with your Unity's ranking.
- **14480**: On the other hand, members of a Unity that finds itself on the lower rungs will enjoy an increase in accolades and capacity points earned to help bring them up to par.
- **14481**: Additionally, an individual's evaluation is the sum of the accolades they have earned divided by $0. A Unity's ranking is the average of all eligible members' individual evaluations.
- **14482**: The A.M.A.N. does not look kindly on those who only seek to siphon rewards from others' hard work, and thus only confers these boons on those who have collected at least a certain number of accolades.
- **14483**: Unity leaders may also join you as alter egos for a limited period of time.
- **14484**: Those with evaluations of $0 or greater will be able to call forth an alter ego of their leader to assist them in battle.
- **14485**: Those eligible will be able to use the alter ego from the moment they acquire the appropriate ranking level until the tabulation after the next.
- **14486**: A leader's alter ego grows in power the higher their Unity is ranked.
- **14487**: Changing Unities will remove the player's ability to call forth their leader's alter ego at the moment they leave their current Unity, regardless of personal evaluation or remaining time.
- **14488**: A player will have to work hard in their new Unity and acquire a sufficient evaluation to regain the ability to call forth their new Unity's leader.
- **14489**: It goes without saying that players must first have acquired a Trust permit in order to avail themselves of this opportunity.
- **14490**: Those desiring to participate should seek out one of the initiative's representatives, dressed in green, in one of the three nations.
- **14495**: Should you choose to be teleported to this area, you will not have enough accolades to participate in the Wanted battle. Teleport anyway?
- **14496**: Teleport anyway? [Yes, please./No, thank you.]
- **14497**: Yes, a vision has descended-wended upon me... I can see into the very depths of your heart.
- **14498**: I sense a great emptiness... Perhaps because you have not completarued at least $0 Records of Eminence objective[/s].
- **14500**: Yes...I sense spiritual energy swelling nearby. It's only a mattaru of time before someone who has set $1 from the Records of Eminence "Tutorial" submenu will come to me.
- **14551**: Ah, valorous spiritaru. Need any information on Unity Concord?
- **14552**: To $8 with you! One..two...and...
- **14554**: Perhaps your bonds aren't as strong as you think-wink they are...
- **14556**: Oh, dear...your bond-wonds have reached the breaking point.
- **14558**: Ah, it's coming to me...!
- **14560**: Altana...er, our artisan will see fit to bring you $0 in exchange for $4 and $2 $0$0 .
- **14562**: The powers that be are fickle-wickle things, so it will take some time for your piece to be ready.
- **14563**: Ah, but waitaru! You already have a request for $0 pending! Tempt not fataru with another!
- **14564**: I feel-weel as if this is a revelation from Altana herself!
- **14566**: I sense immense power...
- **14568**: In order to unlock the excellentaru power of your $0, you will need $1.
- **14569**: Once its power is fused-wused with $3, I foresee a great and shining light!
- **14572**: At last, the time has come to utilize the legendary-wegendary abilities entrusted to us!
- **14574**: Altana smile-wiles upon your choice, and requires $0 accolade[/s] as a...tithe.
- **14575**: How many do you seek? (1 to $0)
- **14576**: Altana smile-wiles upon your choice of $2 $1, and requires $0 accolade[/s] as a...tithe.
- **14578**: The Goddess works in mysterious-werious ways. She told me this would happen...but only the what, not the where. Which Unity did you have in mind?
- **14579**: Consider the process complete, courageous one! Go forth with our blessing!
- **14581**: Ah, how wonderful it is to give fate the what for and carve-warve your own destiny!
- **14583**: A lost sheep needs but a little nudge-wudge to find the right path...and we are here to show you the way.
- **14584**: Believers follow the lightaru into the accepting arms of a Unity.
- **14586**: ...Which can be exchanged-wanged for items and other services.
- **14610**: @@

## Events

### Event 65535

#### Metadata

| Field        | Value   |
|--------------|---------|
| Entrypoint   | 0x0000  |
| Data Size    | 1 bytes |
| Instructions | 1       |

```
      00 01 02 03 04 05 06 07  08 09 0A 0B 0C 0D 0E 0F
      -- -- -- -- -- -- -- --  -- -- -- -- -- -- -- --
0000: 00                                                .               
```

#### Opcodes

```
  0: 0x0000 [0x00] END_REQSTACK()
```

### Event 878

#### Metadata

| Field        | Value    |
|--------------|----------|
| Entrypoint   | 0x0001   |
| Data Size    | 54 bytes |
| Instructions | 16       |

```
      00 01 02 03 04 05 06 07  08 09 0A 0B 0C 0D 0E 0F
      -- -- -- -- -- -- -- --  -- -- -- -- -- -- -- --
0000:    1E F0 FF FF 7F 4A 01  11 0F 01 F0 FF FF 7F 6F   .....J........o
0010: 70 1D 00 80 23 03 02 10  01 80 1D 02 80 23 4A 01  p...#........#J.
0020: 11 0F 01 FB 10 0F 01 6F  76 01 11 0F 01 2B 01 11  .......ov....+..
0030: 0F 01 03 80 23 21 00                              ....#!.         
```

#### Opcodes

```
  0: 0x0001 [0x1E] EventEntity looks at LocalPlayer and starts talking
  1: 0x0006 [0x4A] Yonolala (ID: 17764609/0x010F1101) looks at LocalPlayer
  2: 0x000F [0x6F] WAIT_FRAME_DELAY: Yield until WaitTime reaches zero
  3: 0x0010 [0x70] WAIT_ENTITY_RENDER_FLAG: Wait while EventEntity->Render.Flags3 bit 2 is set (cancel turn if not)
  4: 0x0011 [0x1D] PRINT_EVENT_MESSAGE(message_id=14497*)
    → "Yes, a vision has descended-wended upon me... I can see into the very depths of your heart."
  5: 0x0014 [0x23] WAIT_FOR_DIALOG_INTERACTION
  6: 0x0015 [0x03] Work_Zone[2] = 10*
  7: 0x001A [0x1D] PRINT_EVENT_MESSAGE(message_id=14498*)
    → "I sense a great emptiness... Perhaps because you have not completarued at least $0 Records of Eminence objective[/s]."
  8: 0x001D [0x23] WAIT_FOR_DIALOG_INTERACTION
  9: 0x001E [0x4A] Yonolala (ID: 17764609/0x010F1101) looks at Fhelm Jobeizat (ID: 17764603/0x010F10FB)
 10: 0x0027 [0x6F] WAIT_FRAME_DELAY: Yield until WaitTime reaches zero
 11: 0x0028 [0x76] CHECK_ENTITY_RENDER_FLAGS: Wait until Yonolala (ID: 17764609/0x010F1101) Render.Flags0 and Render.Flags3 conditions are met
 12: 0x002D [0x2B] Yonolala (ID: 17764609/0x010F1101) [14499*]:
    → "Fhelm Jobeizat will lead you on the path to enlightenmentaru."
 13: 0x0034 [0x23] WAIT_FOR_DIALOG_INTERACTION
 14: 0x0035 [0x21] END_EVENT
 15: 0x0036 [0x00] END_REQSTACK()
```

### Event 877

#### Metadata

| Field        | Value    |
|--------------|----------|
| Entrypoint   | 0x0037   |
| Data Size    | 31 bytes |
| Instructions | 11       |

```
      00 01 02 03 04 05 06 07  08 09 0A 0B 0C 0D 0E 0F
      -- -- -- -- -- -- -- --  -- -- -- -- -- -- -- --
0030:                      1E  F0 FF FF 7F 4A 01 11 0F         .....J...
0040: 01 F0 FF FF 7F 6F 70 1D  00 80 23 03 02 10 01 80  .....op...#.....
0050: 1D 02 80 23 21 00                                 ...#!.          
```

#### Opcodes

```
  0: 0x0037 [0x1E] EventEntity looks at LocalPlayer and starts talking
  1: 0x003C [0x4A] Yonolala (ID: 17764609/0x010F1101) looks at LocalPlayer
  2: 0x0045 [0x6F] WAIT_FRAME_DELAY: Yield until WaitTime reaches zero
  3: 0x0046 [0x70] WAIT_ENTITY_RENDER_FLAG: Wait while EventEntity->Render.Flags3 bit 2 is set (cancel turn if not)
  4: 0x0047 [0x1D] PRINT_EVENT_MESSAGE(message_id=14497*)
    → "Yes, a vision has descended-wended upon me... I can see into the very depths of your heart."
  5: 0x004A [0x23] WAIT_FOR_DIALOG_INTERACTION
  6: 0x004B [0x03] Work_Zone[2] = 10*
  7: 0x0050 [0x1D] PRINT_EVENT_MESSAGE(message_id=14498*)
    → "I sense a great emptiness... Perhaps because you have not completarued at least $0 Records of Eminence objective[/s]."
  8: 0x0053 [0x23] WAIT_FOR_DIALOG_INTERACTION
  9: 0x0054 [0x21] END_EVENT
 10: 0x0055 [0x00] END_REQSTACK()
```

### Event 874

#### Metadata

| Field        | Value    |
|--------------|----------|
| Entrypoint   | 0x0056   |
| Data Size    | 28 bytes |
| Instructions | 10       |

```
      00 01 02 03 04 05 06 07  08 09 0A 0B 0C 0D 0E 0F
      -- -- -- -- -- -- -- --  -- -- -- -- -- -- -- --
0050:                   42 1E  F0 FF FF 7F 4A 01 11 0F        B.....J...
0060: 01 F0 FF FF 7F 6F 70 03  03 10 04 80 1D 05 80 23  .....op........#
0070: 21 00                                             !.              
```

#### Opcodes

```
  0: 0x0056 [0x42] SET_CLI_EVENT_CANCEL_DATA()
  1: 0x0057 [0x1E] EventEntity looks at LocalPlayer and starts talking
  2: 0x005C [0x4A] Yonolala (ID: 17764609/0x010F1101) looks at LocalPlayer
  3: 0x0065 [0x6F] WAIT_FRAME_DELAY: Yield until WaitTime reaches zero
  4: 0x0066 [0x70] WAIT_ENTITY_RENDER_FLAG: Wait while EventEntity->Render.Flags3 bit 2 is set (cancel turn if not)
  5: 0x0067 [0x03] Work_Zone[3] = 5*
  6: 0x006C [0x1D] PRINT_EVENT_MESSAGE(message_id=14500*)
    → "Yes...I sense spiritual energy swelling nearby. It's only a mattaru of time before someone who has set $1 from the Records of Eminence "Tutorial" submenu will come to me."
  7: 0x006F [0x23] WAIT_FOR_DIALOG_INTERACTION
  8: 0x0070 [0x21] END_EVENT
  9: 0x0071 [0x00] END_REQSTACK()
```

### Event 875

#### Metadata

| Field        | Value    |
|--------------|----------|
| Entrypoint   | 0x0072   |
| Data Size    | 27 bytes |
| Instructions | 9        |

```
      00 01 02 03 04 05 06 07  08 09 0A 0B 0C 0D 0E 0F
      -- -- -- -- -- -- -- --  -- -- -- -- -- -- -- --
0070:       1E F0 FF FF 7F 4A  01 11 0F 01 F0 FF FF 7F    .....J........
0080: 6F 70 03 03 10 04 80 1D  05 80 23 21 00           op........#!.   
```

#### Opcodes

```
  0: 0x0072 [0x1E] EventEntity looks at LocalPlayer and starts talking
  1: 0x0077 [0x4A] Yonolala (ID: 17764609/0x010F1101) looks at LocalPlayer
  2: 0x0080 [0x6F] WAIT_FRAME_DELAY: Yield until WaitTime reaches zero
  3: 0x0081 [0x70] WAIT_ENTITY_RENDER_FLAG: Wait while EventEntity->Render.Flags3 bit 2 is set (cancel turn if not)
  4: 0x0082 [0x03] Work_Zone[3] = 5*
  5: 0x0087 [0x1D] PRINT_EVENT_MESSAGE(message_id=14500*)
    → "Yes...I sense spiritual energy swelling nearby. It's only a mattaru of time before someone who has set $1 from the Records of Eminence "Tutorial" submenu will come to me."
  6: 0x008A [0x23] WAIT_FOR_DIALOG_INTERACTION
  7: 0x008B [0x21] END_EVENT
  8: 0x008C [0x00] END_REQSTACK()
```

### Event 876

#### Metadata

| Field        | Value   |
|--------------|---------|
| Entrypoint   | 0x008D  |
| Data Size    | 1 bytes |
| Instructions | 1       |

```
      00 01 02 03 04 05 06 07  08 09 0A 0B 0C 0D 0E 0F
      -- -- -- -- -- -- -- --  -- -- -- -- -- -- -- --
0080:                                         00                     .  
```

#### Opcodes

```
  0: 0x008D [0x00] END_REQSTACK()
```

### Event 65535.1

#### Metadata

| Field        | Value    |
|--------------|----------|
| Entrypoint   | 0x008E   |
| Data Size    | 13 bytes |
| Instructions | 3        |

```
      00 01 02 03 04 05 06 07  08 09 0A 0B 0C 0D 0E 0F
      -- -- -- -- -- -- -- --  -- -- -- -- -- -- -- --
0080:                                            6B 69                ki
0090: 64 6C 30 F8 FF FF 7F 1C  06 80 00                 dl0........     
```

#### Opcodes

```
  0: 0x008E [0x6B] STOP_AND_IDLE: EventEntity stops current action and resets to idle (animation="idl0")
  1: 0x0097 [0x1C] WAIT(45* ticks)
  2: 0x009A [0x00] END_REQSTACK()
```

### Event 65535.2

#### Metadata

| Field        | Value    |
|--------------|----------|
| Entrypoint   | 0x009B   |
| Data Size    | 29 bytes |
| Instructions | 3        |

```
      00 01 02 03 04 05 06 07  08 09 0A 0B 0C 0D 0E 0F
      -- -- -- -- -- -- -- --  -- -- -- -- -- -- -- --
0090:                                   66 07 80 F8 FF             f....
00A0: FF 7F F8 FF FF 7F 74 6C  6B 30 53 F8 FF FF 7F F8  ......tlk0S.....
00B0: FF FF 7F 74 6C 6B 30 00                           ...tlk0.        
```

#### Opcodes

```
  0: 0x009B [0x66] LOAD_EXT_SCHEDULER_MAIN: Load scheduler "tlk0" with entities [EventEntity, EventEntity], work=49*
  1: 0x00AA [0x53] WAIT_SCHEDULER_TASK: Wait for scheduler "tlk0" with entities [EventEntity, EventEntity]
  2: 0x00B7 [0x00] END_REQSTACK()
```

### Event 65535.3

#### Metadata

| Field        | Value    |
|--------------|----------|
| Entrypoint   | 0x00B8   |
| Data Size    | 29 bytes |
| Instructions | 3        |

```
      00 01 02 03 04 05 06 07  08 09 0A 0B 0C 0D 0E 0F
      -- -- -- -- -- -- -- --  -- -- -- -- -- -- -- --
00B0:                          66 07 80 F8 FF FF 7F F8          f.......
00C0: FF FF 7F 74 6C 6B 31 53  F8 FF FF 7F F8 FF FF 7F  ...tlk1S........
00D0: 74 6C 6B 31 00                                    tlk1.           
```

#### Opcodes

```
  0: 0x00B8 [0x66] LOAD_EXT_SCHEDULER_MAIN: Load scheduler "tlk1" with entities [EventEntity, EventEntity], work=49*
  1: 0x00C7 [0x53] WAIT_SCHEDULER_TASK: Wait for scheduler "tlk1" with entities [EventEntity, EventEntity]
  2: 0x00D4 [0x00] END_REQSTACK()
```

### Event 65535.4

#### Metadata

| Field        | Value    |
|--------------|----------|
| Entrypoint   | 0x00D5   |
| Data Size    | 29 bytes |
| Instructions | 3        |

```
      00 01 02 03 04 05 06 07  08 09 0A 0B 0C 0D 0E 0F
      -- -- -- -- -- -- -- --  -- -- -- -- -- -- -- --
00D0:                66 07 80  F8 FF FF 7F F8 FF FF 7F       f..........
00E0: 74 68 6B 31 53 F8 FF FF  7F F8 FF FF 7F 74 68 6B  thk1S........thk
00F0: 31 00                                             1.              
```

#### Opcodes

```
  0: 0x00D5 [0x66] LOAD_EXT_SCHEDULER_MAIN: Load scheduler "thk1" with entities [EventEntity, EventEntity], work=49*
  1: 0x00E4 [0x53] WAIT_SCHEDULER_TASK: Wait for scheduler "thk1" with entities [EventEntity, EventEntity]
  2: 0x00F1 [0x00] END_REQSTACK()
```

### Event 65535.5

#### Metadata

| Field        | Value    |
|--------------|----------|
| Entrypoint   | 0x00F2   |
| Data Size    | 29 bytes |
| Instructions | 3        |

```
      00 01 02 03 04 05 06 07  08 09 0A 0B 0C 0D 0E 0F
      -- -- -- -- -- -- -- --  -- -- -- -- -- -- -- --
00F0:       66 07 80 F8 FF FF  7F F8 FF FF 7F 74 68 6B    f..........thk
0100: 32 53 F8 FF FF 7F F8 FF  FF 7F 74 68 6B 32 00     2S........thk2. 
```

#### Opcodes

```
  0: 0x00F2 [0x66] LOAD_EXT_SCHEDULER_MAIN: Load scheduler "thk2" with entities [EventEntity, EventEntity], work=49*
  1: 0x0101 [0x53] WAIT_SCHEDULER_TASK: Wait for scheduler "thk2" with entities [EventEntity, EventEntity]
  2: 0x010E [0x00] END_REQSTACK()
```

### Event 65535.6

#### Metadata

| Field        | Value    |
|--------------|----------|
| Entrypoint   | 0x010F   |
| Data Size    | 29 bytes |
| Instructions | 3        |

```
      00 01 02 03 04 05 06 07  08 09 0A 0B 0C 0D 0E 0F
      -- -- -- -- -- -- -- --  -- -- -- -- -- -- -- --
0100:                                               66                 f
0110: 08 80 F8 FF FF 7F F8 FF  FF 7F 74 6C 6B 30 53 F8  ..........tlk0S.
0120: FF FF 7F F8 FF FF 7F 74  6C 6B 30 00              .......tlk0.    
```

#### Opcodes

```
  0: 0x010F [0x66] LOAD_EXT_SCHEDULER_MAIN: Load scheduler "tlk0" with entities [EventEntity, EventEntity], work=189*
  1: 0x011E [0x53] WAIT_SCHEDULER_TASK: Wait for scheduler "tlk0" with entities [EventEntity, EventEntity]
  2: 0x012B [0x00] END_REQSTACK()
```

### Event 65535.7

#### Metadata

| Field        | Value    |
|--------------|----------|
| Entrypoint   | 0x012C   |
| Data Size    | 29 bytes |
| Instructions | 3        |

```
      00 01 02 03 04 05 06 07  08 09 0A 0B 0C 0D 0E 0F
      -- -- -- -- -- -- -- --  -- -- -- -- -- -- -- --
0120:                                      66 08 80 F8              f...
0130: FF FF 7F F8 FF FF 7F 74  6C 6B 31 53 F8 FF FF 7F  .......tlk1S....
0140: F8 FF FF 7F 74 6C 6B 31  00                       ....tlk1.       
```

#### Opcodes

```
  0: 0x012C [0x66] LOAD_EXT_SCHEDULER_MAIN: Load scheduler "tlk1" with entities [EventEntity, EventEntity], work=189*
  1: 0x013B [0x53] WAIT_SCHEDULER_TASK: Wait for scheduler "tlk1" with entities [EventEntity, EventEntity]
  2: 0x0148 [0x00] END_REQSTACK()
```

### Event 65535.8

#### Metadata

| Field        | Value    |
|--------------|----------|
| Entrypoint   | 0x0149   |
| Data Size    | 29 bytes |
| Instructions | 3        |

```
      00 01 02 03 04 05 06 07  08 09 0A 0B 0C 0D 0E 0F
      -- -- -- -- -- -- -- --  -- -- -- -- -- -- -- --
0140:                             66 09 80 F8 FF FF 7F           f......
0150: F8 FF FF 7F 73 79 75 30  53 F8 FF FF 7F F8 FF FF  ....syu0S.......
0160: 7F 73 79 75 30 00                                 .syu0.          
```

#### Opcodes

```
  0: 0x0149 [0x66] LOAD_EXT_SCHEDULER_MAIN: Load scheduler "syu0" with entities [EventEntity, EventEntity], work=40*
  1: 0x0158 [0x53] WAIT_SCHEDULER_TASK: Wait for scheduler "syu0" with entities [EventEntity, EventEntity]
  2: 0x0165 [0x00] END_REQSTACK()
```

### Event 65535.9

#### Metadata

| Field        | Value    |
|--------------|----------|
| Entrypoint   | 0x0166   |
| Data Size    | 29 bytes |
| Instructions | 3        |

```
      00 01 02 03 04 05 06 07  08 09 0A 0B 0C 0D 0E 0F
      -- -- -- -- -- -- -- --  -- -- -- -- -- -- -- --
0160:                   66 09  80 F8 FF FF 7F F8 FF FF        f.........
0170: 7F 69 72 6F 30 53 F8 FF  FF 7F F8 FF FF 7F 69 72  .iro0S........ir
0180: 6F 30 00                                          o0.             
```

#### Opcodes

```
  0: 0x0166 [0x66] LOAD_EXT_SCHEDULER_MAIN: Load scheduler "iro0" with entities [EventEntity, EventEntity], work=40*
  1: 0x0175 [0x53] WAIT_SCHEDULER_TASK: Wait for scheduler "iro0" with entities [EventEntity, EventEntity]
  2: 0x0182 [0x00] END_REQSTACK()
```

### Event 65535.10

#### Metadata

| Field        | Value    |
|--------------|----------|
| Entrypoint   | 0x0183   |
| Data Size    | 29 bytes |
| Instructions | 3        |

```
      00 01 02 03 04 05 06 07  08 09 0A 0B 0C 0D 0E 0F
      -- -- -- -- -- -- -- --  -- -- -- -- -- -- -- --
0180:          66 09 80 F8 FF  FF 7F F8 FF FF 7F 6D 6F     f..........mo
0190: 6A 30 53 F8 FF FF 7F F8  FF FF 7F 6D 6F 6A 30 00  j0S........moj0.
```

#### Opcodes

```
  0: 0x0183 [0x66] LOAD_EXT_SCHEDULER_MAIN: Load scheduler "moj0" with entities [EventEntity, EventEntity], work=40*
  1: 0x0192 [0x53] WAIT_SCHEDULER_TASK: Wait for scheduler "moj0" with entities [EventEntity, EventEntity]
  2: 0x019F [0x00] END_REQSTACK()
```

### Event 65535.11

#### Metadata

| Field        | Value    |
|--------------|----------|
| Entrypoint   | 0x01A0   |
| Data Size    | 29 bytes |
| Instructions | 3        |

```
      00 01 02 03 04 05 06 07  08 09 0A 0B 0C 0D 0E 0F
      -- -- -- -- -- -- -- --  -- -- -- -- -- -- -- --
01A0: 66 09 80 F8 FF FF 7F F8  FF FF 7F 67 6B 72 30 53  f..........gkr0S
01B0: F8 FF FF 7F F8 FF FF 7F  67 6B 72 30 00           ........gkr0.   
```

#### Opcodes

```
  0: 0x01A0 [0x66] LOAD_EXT_SCHEDULER_MAIN: Load scheduler "gkr0" with entities [EventEntity, EventEntity], work=40*
  1: 0x01AF [0x53] WAIT_SCHEDULER_TASK: Wait for scheduler "gkr0" with entities [EventEntity, EventEntity]
  2: 0x01BC [0x00] END_REQSTACK()
```

### Event 65535.12

#### Metadata

| Field        | Value    |
|--------------|----------|
| Entrypoint   | 0x01BD   |
| Data Size    | 29 bytes |
| Instructions | 3        |

```
      00 01 02 03 04 05 06 07  08 09 0A 0B 0C 0D 0E 0F
      -- -- -- -- -- -- -- --  -- -- -- -- -- -- -- --
01B0:                                         66 0A 80               f..
01C0: F8 FF FF 7F F8 FF FF 7F  67 68 6E 31 53 F8 FF FF  ........ghn1S...
01D0: 7F F8 FF FF 7F 67 68 6E  31 00                    .....ghn1.      
```

#### Opcodes

```
  0: 0x01BD [0x66] LOAD_EXT_SCHEDULER_MAIN: Load scheduler "ghn1" with entities [EventEntity, EventEntity], work=41*
  1: 0x01CC [0x53] WAIT_SCHEDULER_TASK: Wait for scheduler "ghn1" with entities [EventEntity, EventEntity]
  2: 0x01D9 [0x00] END_REQSTACK()
```

### Event 65535.13

#### Metadata

| Field        | Value    |
|--------------|----------|
| Entrypoint   | 0x01DA   |
| Data Size    | 19 bytes |
| Instructions | 5        |

```
      00 01 02 03 04 05 06 07  08 09 0A 0B 0C 0D 0E 0F
      -- -- -- -- -- -- -- --  -- -- -- -- -- -- -- --
01D0:                                32 09 80 1F 00 0B            2.....
01E0: 80 0C 80 0D 80 1F 01 1E  02 11 0F 01 00           .............   
```

#### Opcodes

```
  0: 0x01DA [0x32] ExtData[1]->MainSpeed = 40* * 0.1
  1: 0x01DD [0x1F] MOVE_ENTITY: EventEntity moves to X=98.700*, Z=-25.943*, Y=-5.000*
  2: 0x01E5 [0x1F] MOVE_ENTITY: Update entity position (mode=1)
  3: 0x01E7 [0x1E] EventEntity looks at ??? (ID: 17764610/0x010F1102) and starts talking
  4: 0x01EC [0x00] END_REQSTACK()
```

### Event 65535.14

#### Metadata

| Field        | Value    |
|--------------|----------|
| Entrypoint   | 0x01ED   |
| Data Size    | 19 bytes |
| Instructions | 5        |

```
      00 01 02 03 04 05 06 07  08 09 0A 0B 0C 0D 0E 0F
      -- -- -- -- -- -- -- --  -- -- -- -- -- -- -- --
01E0:                                         32 09 80               2..
01F0: 1F 00 0E 80 0F 80 10 80  1F 01 1E 02 11 0F 01 00  ................
```

#### Opcodes

```
  0: 0x01ED [0x32] ExtData[1]->MainSpeed = 40* * 0.1
  1: 0x01F0 [0x1F] MOVE_ENTITY: EventEntity moves to X=97.520*, Z=-24.070*, Y=-5.270*
  2: 0x01F8 [0x1F] MOVE_ENTITY: Update entity position (mode=1)
  3: 0x01FA [0x1E] EventEntity looks at ??? (ID: 17764610/0x010F1102) and starts talking
  4: 0x01FF [0x00] END_REQSTACK()
```

### Event 879

#### Metadata

| Field        | Value       |
|--------------|-------------|
| Entrypoint   | 0x0200      |
| Data Size    | 17485 bytes |
| Instructions | 1318        |

```
      00 01 02 03 04 05 06 07  08 09 0A 0B 0C 0D 0E 0F
      -- -- -- -- -- -- -- --  -- -- -- -- -- -- -- --
0200: 03 00 00 03 10 03 01 00  04 10 03 08 00 05 10 03  ................
0210: 09 00 06 10 03 0C 00 07  10 03 0A 00 09 10 03 0B  ................
0220: 00 08 10 06 01 10 40 11  80 12 80 01 10 01 80 43  ......@........C
0230: 00 43 01 03 1C 00 02 10  03 1D 00 03 10 03 1E 00  .C..............
0240: 04 10 03 09 17 05 10 1E  F0 FF FF 7F 4A 01 11 0F  ............J...
0250: 01 F0 FF FF 7F 1D 13 80  23 06 02 00 06 05 00 03  ........#.......
0260: 15 00 1C 00 0E 15 00 1D  00 0E 15 00 1E 00 02 15  ................
0270: 00 11 80 01 79 02 01 80  02 3C 05 00 04 80 14 80  ....y....<......
0280: 02 08 00 11 80 00 8E 02  06 08 10 01 91 02 05 08  ................
0290: 10 24 15 80 02 00 05 00  25 02 00 10 11 80 00 A9  .$......%.......
02A0: 02 03 01 10 11 80 01 8D  24 02 00 10 14 80 00 04  ........$.......
02B0: 0A 40 11 80 12 80 01 10  16 80 43 00 43 01 03 1F  .@........C.C...
02C0: 00 02 10 03 20 00 03 10  03 21 00 04 10 03 02 00  .... ....!......
02D0: 00 10 06 03 00 06 22 00  06 23 00 02 23 00 17 80  ......"..#..#...
02E0: 03 5A 03 03 19 00 23 00  14 19 00 18 80 1A 5F 28  .Z....#......._(
02F0: 02 00 17 14 80 00 54 03  02 23 00 19 80 03 11 03  ......T..#......
0300: 3E 1F 00 23 00 0E 03 3D  1F 00 23 00 14 80 01 54  >..#...=..#....T
0310: 03 02 23 00 1A 80 03 34  03 03 15 00 23 00 08 15  ..#....4....#...
0320: 00 19 80 3E 20 00 15 00  31 03 3D 20 00 15 00 14  ...> ...1.= ....
0330: 80 01 54 03 02 23 00 1B  80 03 54 03 03 15 00 23  ..T..#....T....#
0340: 00 08 15 00 1A 80 3E 21  00 15 00 54 03 3D 21 00  ......>!...T.=!.
0350: 15 00 14 80 0B 23 00 01  DB 02 03 05 00 1C 80 03  .....#..........
0360: 15 00 1F 00 0E 15 00 20  00 0E 15 00 21 00 02 15  ....... ....!...
0370: 00 11 80 01 7D 03 3D 05  00 14 80 14 80 3E 0B 00  ....}.=......>..
0380: 16 80 8B 03 3D 05 00 18  80 14 80 24 1D 80 03 00  ....=......$....
0390: 05 00 25 02 00 10 11 80  00 A1 03 01 5C 02 01 A1  ..%.........\...
03A0: 03 03 03 00 00 10 06 04  00 06 06 00 06 24 00 06  .............$..
03B0: 25 00 02 03 00 14 80 00  C7 03 03 07 00 17 80 03  %...............
03C0: 25 00 17 80 01 8B 04 03  18 00 14 80 02 18 00 03  %...............
03D0: 00 03 8B 04 02 18 00 14  80 80 E9 03 03 07 00 1E  ................
03E0: 80 07 25 00 1E 80 01 85  04 02 18 00 1F 80 80 03  ..%.............
03F0: 04 03 07 00 16 80 07 25  00 16 80 07 24 00 1E 80  .......%....$...
0400: 01 85 04 02 18 00 20 80  80 1D 04 03 07 00 21 80  ...... .......!.
0410: 07 25 00 21 80 07 24 00  16 80 01 85 04 02 18 00  .%.!..$.........
0420: 12 80 80 37 04 03 07 00  22 80 07 25 00 22 80 07  ...7...."..%."..
0430: 24 00 21 80 01 85 04 02  18 00 04 80 80 51 04 03  $.!..........Q..
0440: 07 00 01 80 07 25 00 01  80 07 24 00 22 80 01 85  .....%....$."...
0450: 04 02 18 00 1E 80 80 6B  04 03 07 00 1E 80 07 25  .......k.......%
0460: 00 1E 80 07 24 00 01 80  01 85 04 02 18 00 16 80  ....$...........
0470: 80 85 04 03 07 00 14 80  07 25 00 14 80 07 24 00  .........%....$.
0480: 1E 80 01 85 04 0B 18 00  01 CC 03 14 25 00 18 80  ............%...
0490: 06 26 00 06 27 00 06 28  00 06 29 00 06 2A 00 06  .&..'..(..)..*..
04A0: 2B 00 06 2C 00 06 2D 00  06 2E 00 06 2F 00 06 30  +..,..-...../..0
04B0: 00 06 31 00 06 32 00 06  33 00 06 34 00 06 35 00  ..1..2..3..4..5.
04C0: 06 36 00 06 37 00 06 38  00 06 39 00 06 3A 00 06  .6..7..8..9..:..
04D0: 3B 00 06 3C 00 06 3D 00  06 3E 00 06 3F 00 06 40  ;..<..=..>..?..@
04E0: 00 06 41 00 06 42 00 06  43 00 06 44 00 06 45 00  ..A..B..C..D..E.
04F0: 06 46 00 06 47 00 06 18  00 03 19 00 24 00 14 19  .F..G.......$...
0500: 00 18 80 07 19 00 04 80  03 1A 00 19 00 08 1A 00  ................
0510: 12 80 02 18 00 07 00 03  85 06 9D 0A 2D 2B 02 10  ............-+..
0520: 19 00 25 00 02 02 10 11  80 80 61 05 03 15 00 19  ..%.......a.....
0530: 00 07 15 00 1F 80 9D 0A  2D 2B 03 10 15 00 25 00  ........-+....%.
0540: 02 03 10 11 80 02 5B 05  3E 0B 00 03 10 55 05 1A  ......[.>....U..
0550: BC 29 01 58 05 1A 8F 24  01 5E 05 1A BC 29 01 75  .).X...$.^...).u
0560: 06 02 02 10 14 80 80 AB  05 3E 0A 00 14 80 A5 05  .........>......
0570: 03 15 00 19 00 07 15 00  1F 80 9D 0A 2D 2B 03 10  ............-+..
0580: 15 00 25 00 02 03 10 11  80 02 9F 05 3E 0B 00 03  ..%.........>...
0590: 10 99 05 1A BC 29 01 9C  05 1A 8F 24 01 A2 05 1A  .....).....$....
05A0: BC 29 01 A8 05 1A 8F 24  01 75 06 02 02 10 1F 80  .).....$.u......
05B0: 80 F5 05 3E 0A 00 1F 80  EF 05 03 15 00 19 00 07  ...>............
05C0: 15 00 1F 80 9D 0A 2D 2B  03 10 15 00 25 00 02 03  ......-+....%...
05D0: 10 11 80 02 E9 05 3E 0B  00 03 10 E3 05 1A BC 29  ......>........)
05E0: 01 E6 05 1A 8F 24 01 EC  05 1A BC 29 01 F2 05 1A  .....$.....)....
05F0: 8F 24 01 75 06 02 02 10  20 80 80 3F 06 3E 0A 00  .$.u.... ..?.>..
0600: 20 80 39 06 03 15 00 19  00 07 15 00 1F 80 9D 0A   .9.............
0610: 2D 2B 03 10 15 00 25 00  02 03 10 11 80 02 33 06  -+....%.......3.
0620: 3E 0B 00 03 10 2D 06 1A  BC 29 01 30 06 1A 8F 24  >....-...).0...$
0630: 01 36 06 1A BC 29 01 3C  06 1A 8F 24 01 75 06 02  .6...).<...$.u..
0640: 02 10 12 80 80 5A 06 3E  0A 00 12 80 54 06 1A BC  .....Z.>....T...
0650: 29 01 57 06 1A 8F 24 01  75 06 02 02 10 23 80 80  ).W...$.u....#..
0660: 75 06 3E 0A 00 23 80 6F  06 1A BC 29 01 72 06 1A  u.>..#.o...).r..
0670: 8F 24 01 75 06 07 19 00  18 80 07 1A 00 18 80 0B  .$.u............
0680: 18 00 01 12 05 08 07 00  46 00 03 15 00 07 00 3F  ........F......?
0690: 15 00 15 00 18 80 15 07  00 18 80 02 15 00 11 80  ................
06A0: 00 AE 06 02 07 00 11 80  02 AE 06 0C 07 00 06 05  ................
06B0: 00 02 06 00 07 00 00 C0  06 3C 05 00 21 80 14 80  .........<..!...
06C0: 03 15 00 06 00 14 15 00  18 80 1A 5D 26 07 15 00  ...........]&...
06D0: 24 00 14 15 00 18 80 06  19 00 07 19 00 15 00 06  $...............
06E0: 02 10 06 03 10 06 04 10  06 05 10 06 06 10 06 07  ................
06F0: 10 06 08 10 06 09 10 06  48 00 06 49 00 06 4A 00  ........H..I..J.
0700: 06 4B 00 06 4C 00 06 4D  00 06 4E 00 06 4F 00 06  .K..L..M..N..O..
0710: 22 00 1A 5F 28 02 00 17  14 80 00 25 07 07 19 00  ".._(......%....
0720: 18 80 01 12 07 03 48 00  19 00 02 19 00 25 00 04  ......H......%..
0730: 3C 07 3C 05 00 14 80 14  80 01 46 07 9D 0A 2D 2B  <.<.......F...-+
0740: 02 10 19 00 25 00 07 19  00 18 80 1A 5F 28 02 00  ....%......._(..
0750: 17 14 80 00 5E 07 07 19  00 18 80 01 4B 07 03 49  ....^.......K..I
0760: 00 19 00 02 19 00 25 00  04 75 07 3C 05 00 1F 80  ......%..u.<....
0770: 14 80 01 7F 07 9D 0A 2D  2B 03 10 19 00 25 00 07  .......-+....%..
0780: 19 00 18 80 1A 5F 28 02  00 17 14 80 00 97 07 07  ....._(.........
0790: 19 00 18 80 01 84 07 03  4A 00 19 00 02 19 00 25  ........J......%
07A0: 00 04 AE 07 3C 05 00 20  80 14 80 01 B8 07 9D 0A  ....<.. ........
07B0: 2D 2B 04 10 19 00 25 00  07 19 00 18 80 1A 5F 28  -+....%......._(
07C0: 02 00 17 14 80 00 D0 07  07 19 00 18 80 01 BD 07  ................
07D0: 03 4B 00 19 00 02 19 00  25 00 04 E7 07 3C 05 00  .K......%....<..
07E0: 12 80 14 80 01 F1 07 9D  0A 2D 2B 05 10 19 00 25  .........-+....%
07F0: 00 07 19 00 18 80 1A 5F  28 02 00 17 14 80 00 09  ......._(.......
0800: 08 07 19 00 18 80 01 F6  07 03 4C 00 19 00 02 19  ..........L.....
0810: 00 25 00 04 20 08 3C 05  00 04 80 14 80 01 2A 08  .%.. .<.......*.
0820: 9D 0A 2D 2B 06 10 19 00  25 00 07 19 00 18 80 1A  ..-+....%.......
0830: 5F 28 02 00 17 14 80 00  42 08 07 19 00 18 80 01  _(......B.......
0840: 2F 08 03 4D 00 19 00 02  19 00 25 00 04 59 08 3C  /..M......%..Y.<
0850: 05 00 1E 80 14 80 01 63  08 9D 0A 2D 2B 07 10 19  .......c...-+...
0860: 00 25 00 07 19 00 18 80  1A 5F 28 02 00 17 14 80  .%......._(.....
0870: 00 7B 08 07 19 00 18 80  01 68 08 03 4E 00 19 00  .{.......h..N...
0880: 02 19 00 25 00 04 92 08  3C 05 00 16 80 14 80 01  ...%....<.......
0890: 9C 08 9D 0A 2D 2B 08 10  19 00 25 00 07 19 00 18  ....-+....%.....
08A0: 80 1A 5F 28 02 00 17 14  80 00 B4 08 07 19 00 18  .._(............
08B0: 80 01 A1 08 03 4F 00 19  00 02 19 00 25 00 04 CB  .....O......%...
08C0: 08 3C 05 00 18 80 14 80  01 D5 08 9D 0A 2D 2B 09  .<...........-+.
08D0: 10 19 00 25 00 24 24 80  04 00 05 00 25 02 00 10  ...%.$$.....%...
08E0: 11 80 00 FF 08 06 04 00  02 06 00 11 80 00 F6 08  ................
08F0: 01 5A 03 01 FC 08 0C 06  00 01 AE 06 01 9C 09 02  .Z..............
0900: 00 10 21 80 00 13 09 06  04 00 0B 06 00 01 AE 06  ..!.............
0910: 01 9C 09 03 04 00 00 10  03 15 00 00 10 0C 15 00  ................
0920: 9D 0A 5E 2A 19 00 15 00  18 80 9D 0A 2D 2B 02 10  ..^*........-+..
0930: 19 00 25 00 03 15 00 19  00 07 15 00 1E 80 9D 0A  ..%.............
0940: 2D 2B 14 00 15 00 25 00  1D 25 80 23 2B 01 11 0F  -+....%..%.#+...
0950: 01 26 80 23 03 03 10 27  80 03 04 10 01 00 24 28  .&.#...'......$(
0960: 80 11 80 11 80 25 02 00  10 11 80 00 8E 09 02 04  .....%..........
0970: 10 03 10 03 88 09 1D 29  80 23 2B 01 11 0F 01 2A  .......).#+....*
0980: 80 23 01 AE 06 01 8B 09  01 9C 09 01 9C 09 02 00  .#..............
0990: 10 14 80 00 9C 09 01 AE  06 01 9C 09 02 03 00 14  ................
09A0: 80 01 DA 09 03 15 00 01  00 08 15 00 27 80 02 15  ............'...
09B0: 00 14 00 03 DA 09 48 2B  80 24 2C 80 11 80 11 80  ......H+.$,.....
09C0: 25 02 00 10 11 80 00 CC  09 01 DA 09 02 00 10 14  %...............
09D0: 80 00 DA 09 01 AE 06 01  DA 09 73 2D 80 F8 FF FF  ..........s-....
09E0: 7F F0 FF FF 7F 1C 2E 80  30 40 11 80 12 80 01 10  ........0@......
09F0: 14 80 15 19 00 18 80 40  04 80 2F 80 01 10 19 00  .......@../.....
0A00: 21 01 8D 24 02 00 10 1F  80 00 44 0D 03 02 00 00  !..$......D.....
0A10: 10 06 03 00 06 11 00 06  05 00 06 19 00 06 1B 00  ................
0A20: 03 05 00 30 80 02 31 80  11 80 02 34 0A 3D 05 00  ...0..1....4.=..
0A30: 14 80 14 80 02 16 80 11  80 02 43 0A 3D 05 00 1F  ..........C.=...
0A40: 80 14 80 02 21 80 11 80  02 52 0A 3D 05 00 20 80  ....!....R.=.. .
0A50: 14 80 02 16 80 11 80 02  61 0A 3D 05 00 12 80 14  ........a.=.....
0A60: 80 02 12 80 11 80 02 70  0A 3D 05 00 04 80 14 80  .......p.=......
0A70: 02 04 80 11 80 02 7F 0A  3D 05 00 1E 80 14 80 02  ........=.......
0A80: 20 80 11 80 02 8E 0A 3D  05 00 16 80 14 80 02 22   ......=......."
0A90: 80 11 80 02 9D 0A 3D 05  00 18 80 14 80 02 32 80  ......=.......2.
0AA0: 11 80 02 AC 0A 3D 05 00  21 80 14 80 24 33 80 03  .....=..!...$3..
0AB0: 00 05 00 25 02 00 10 11  80 00 C2 0A 01 5C 02 01  ...%.........\..
0AC0: CA 0A 03 03 00 00 10 1A  6E 2A 06 04 00 06 06 00  ........n*......
0AD0: 06 05 00 02 06 00 07 00  00 E2 0A 3C 05 00 21 80  ...........<..!.
0AE0: 14 80 03 19 00 1B 00 14  19 00 18 80 03 15 00 06  ................
0AF0: 00 14 15 00 18 80 14 15  00 18 80 07 19 00 15 00  ................
0B00: 06 02 10 06 03 10 06 04  10 06 05 10 06 06 10 06  ................
0B10: 07 10 06 08 10 06 09 10  9D 0A 2D 32 02 10 19 00  ..........-2....
0B20: 25 00 07 19 00 18 80 02  19 00 25 00 04 39 0B 3C  %.........%..9.<
0B30: 05 00 1F 80 14 80 01 43  0B 9D 0A 2D 32 03 10 19  .......C...-2...
0B40: 00 25 00 07 19 00 18 80  02 19 00 25 00 04 5A 0B  .%.........%..Z.
0B50: 3C 05 00 20 80 14 80 01  64 0B 9D 0A 2D 32 04 10  <.. ....d...-2..
0B60: 19 00 25 00 07 19 00 18  80 02 19 00 25 00 04 7B  ..%.........%..{
0B70: 0B 3C 05 00 12 80 14 80  01 85 0B 9D 0A 2D 32 05  .<...........-2.
0B80: 10 19 00 25 00 07 19 00  18 80 02 19 00 25 00 04  ...%.........%..
0B90: 9C 0B 3C 05 00 04 80 14  80 01 A6 0B 9D 0A 2D 32  ..<...........-2
0BA0: 06 10 19 00 25 00 07 19  00 18 80 02 19 00 25 00  ....%.........%.
0BB0: 04 BD 0B 3C 05 00 1E 80  14 80 01 C7 0B 9D 0A 2D  ...<...........-
0BC0: 32 07 10 19 00 25 00 07  19 00 18 80 02 19 00 25  2....%.........%
0BD0: 00 04 DE 0B 3C 05 00 16  80 14 80 01 E8 0B 9D 0A  ....<...........
0BE0: 2D 32 08 10 19 00 25 00  07 19 00 18 80 02 19 00  -2....%.........
0BF0: 25 00 04 FF 0B 3C 05 00  18 80 14 80 01 09 0C 9D  %....<..........
0C00: 0A 2D 32 09 10 19 00 25  00 D4 03 14 80 02 10 D4  .-2....%........
0C10: 03 1F 80 03 10 D4 03 20  80 04 10 D4 03 12 80 05  ....... ........
0C20: 10 D4 03 04 80 06 10 D4  03 1E 80 07 10 D4 03 16  ................
0C30: 80 08 10 D4 03 18 80 09  10 D4 02 34 80 04 00 05  ...........4....
0C40: 00 25 02 00 10 11 80 00  64 0C 06 04 00 02 06 00  .%......d.......
0C50: 11 80 00 5B 0C 01 17 0A  01 61 0C 0C 06 00 01 D0  ...[.....a......
0C60: 0A 01 41 0D 02 00 10 21  80 00 78 0C 06 04 00 0B  ..A....!..x.....
0C70: 06 00 01 D0 0A 01 41 0D  03 04 00 00 10 03 19 00  ......A.........
0C80: 1B 00 14 19 00 18 80 03  15 00 06 00 14 15 00 18  ................
0C90: 80 14 15 00 18 80 07 19  00 15 00 03 15 00 00 10  ................
0CA0: 0C 15 00 14 15 00 18 80  07 19 00 15 00 9D 0A 2D  ...............-
0CB0: 32 06 10 19 00 25 00 0B  19 00 9D 0A 2D 32 02 10  2....%......-2..
0CC0: 19 00 25 00 0B 19 00 9D  0A 2D 32 03 10 19 00 25  ..%......-2....%
0CD0: 00 0B 19 00 9D 0A 2D 32  04 10 19 00 25 00 0B 19  ......-2....%...
0CE0: 00 9D 0A 2D 32 05 10 19  00 25 00 02 11 00 11 80  ...-2....%......
0CF0: 00 2C 0D 05 11 00 93 02  10 1D 35 80 23 2B 01 11  .,........5.#+..
0D00: 0F 01 36 80 23 93 11 80  1D 37 80 23 2B 01 11 0F  ..6.#....7.#+...
0D10: 01 38 80 23 1D 39 80 23  03 02 10 08 00 02 02 10  .8.#.9.#........
0D20: 11 80 01 29 0D 1D 3A 80  23 01 3E 0D 93 02 10 1D  ...)..:.#.>.....
0D30: 37 80 23 2B 01 11 0F 01  38 80 23 93 11 80 01 D0  7.#+....8.#.....
0D40: 0A 01 8D 24 02 00 10 20  80 00 F8 10 03 02 00 00  ...$... ........
0D50: 10 06 03 00 06 11 00 06  05 00 06 19 00 06 1B 00  ................
0D60: 03 05 00 30 80 02 31 80  11 80 02 74 0D 3D 05 00  ...0..1....t.=..
0D70: 14 80 14 80 02 16 80 11  80 02 83 0D 3D 05 00 1F  ............=...
0D80: 80 14 80 02 21 80 11 80  02 92 0D 3D 05 00 20 80  ....!......=.. .
0D90: 14 80 02 16 80 11 80 02  A1 0D 3D 05 00 12 80 14  ..........=.....
0DA0: 80 02 12 80 11 80 02 B0  0D 3D 05 00 04 80 14 80  .........=......
0DB0: 02 04 80 11 80 02 BF 0D  3D 05 00 1E 80 14 80 02  ........=.......
0DC0: 11 80 11 80 02 CE 0D 3D  05 00 16 80 14 80 02 11  .......=........
0DD0: 80 11 80 02 DD 0D 3D 05  00 18 80 14 80 02 32 80  ......=.......2.
0DE0: 11 80 02 EC 0D 3D 05 00  21 80 14 80 24 33 80 03  .....=..!...$3..
0DF0: 00 05 00 25 02 00 10 11  80 00 02 0E 01 5C 02 01  ...%.........\..
0E00: 0A 0E 03 03 00 00 10 1A  6E 2A 06 04 00 06 06 00  ........n*......
0E10: 06 05 00 02 06 00 07 00  00 22 0E 3C 05 00 21 80  .........".<..!.
0E20: 14 80 03 19 00 1B 00 14  19 00 18 80 03 15 00 06  ................
0E30: 00 14 15 00 18 80 14 15  00 18 80 07 19 00 15 00  ................
0E40: 06 02 10 06 03 10 06 04  10 06 05 10 06 06 10 06  ................
0E50: 07 10 06 08 10 06 09 10  9D 0A 2D 3A 02 10 19 00  ..........-:....
0E60: 25 00 07 19 00 18 80 02  19 00 25 00 04 79 0E 3C  %.........%..y.<
0E70: 05 00 1F 80 14 80 01 83  0E 9D 0A 2D 3A 03 10 19  ...........-:...
0E80: 00 25 00 07 19 00 18 80  02 19 00 25 00 04 9A 0E  .%.........%....
0E90: 3C 05 00 20 80 14 80 01  A4 0E 9D 0A 2D 3A 04 10  <.. ........-:..
0EA0: 19 00 25 00 07 19 00 18  80 02 19 00 25 00 04 BB  ..%.........%...
0EB0: 0E 3C 05 00 12 80 14 80  01 C5 0E 9D 0A 2D 3A 05  .<...........-:.
0EC0: 10 19 00 25 00 07 19 00  18 80 02 19 00 25 00 04  ...%.........%..
0ED0: DC 0E 3C 05 00 04 80 14  80 01 E6 0E 9D 0A 2D 3A  ..<...........-:
0EE0: 06 10 19 00 25 00 07 19  00 18 80 02 19 00 25 00  ....%.........%.
0EF0: 04 FD 0E 3C 05 00 1E 80  14 80 01 07 0F 9D 0A 2D  ...<...........-
0F00: 3A 07 10 19 00 25 00 07  19 00 18 80 02 19 00 25  :....%.........%
0F10: 00 04 1E 0F 3C 05 00 16  80 14 80 01 28 0F 9D 0A  ....<.......(...
0F20: 2D 3A 08 10 19 00 25 00  07 19 00 18 80 02 19 00  -:....%.........
0F30: 25 00 04 3F 0F 3C 05 00  18 80 14 80 01 49 0F 9D  %..?.<.......I..
0F40: 0A 2D 3A 09 10 19 00 25  00 D4 03 14 80 02 10 D4  .-:....%........
0F50: 03 1F 80 03 10 D4 03 20  80 04 10 D4 03 12 80 05  ....... ........
0F60: 10 D4 03 04 80 06 10 D4  03 1E 80 07 10 D4 03 16  ................
0F70: 80 08 10 D4 03 18 80 09  10 D4 02 34 80 04 00 05  ...........4....
0F80: 00 25 02 00 10 11 80 00  A4 0F 06 04 00 02 06 00  .%..............
0F90: 11 80 00 9B 0F 01 57 0D  01 A1 0F 0C 06 00 01 10  ......W.........
0FA0: 0E 01 F5 10 02 00 10 21  80 00 B8 0F 06 04 00 0B  .......!........
0FB0: 06 00 01 10 0E 01 F5 10  03 04 00 00 10 03 19 00  ................
0FC0: 1B 00 03 15 00 06 00 14  15 00 18 80 07 19 00 15  ................
0FD0: 00 03 15 00 00 10 0C 15  00 07 19 00 15 00 40 11  ..............@.
0FE0: 80 12 80 01 10 23 80 40  04 80 2F 80 01 10 19 00  .....#.@../.....
0FF0: 43 00 43 01 02 02 10 11  80 03 07 10 40 11 80 12  C.C.........@...
1000: 80 01 10 11 80 21 00 03  02 17 02 10 03 03 17 03  .....!..........
1010: 10 03 04 17 04 10 03 05  17 06 10 03 06 17 07 10  ................
1020: 03 07 17 08 10 14 19 00  18 80 9D 0A 2D 3A 02 10  ............-:..
1030: 19 00 25 00 0B 19 00 9D  0A 2D 3A 03 10 19 00 25  ..%......-:....%
1040: 00 03 04 10 3B 80 0B 19  00 9D 0A 2D 3A 05 10 19  ....;......-:...
1050: 00 25 00 07 19 00 12 80  9D 0A 2D 3A 06 10 19 00  .%........-:....
1060: 25 00 02 11 00 11 80 00  C3 10 05 11 00 CC 03 02  %...............
1070: 10 02 17 03 17 04 17 1D  3C 80 23 2B 01 11 0F 01  ........<.#+....
1080: 3D 80 23 CC 03 02 10 05  17 06 17 07 17 1D 3E 80  =.#...........>.
1090: 23 2B 01 11 0F 01 3F 80  23 93 11 80 1D 40 80 23  #+....?.#....@.#
10A0: 1D 41 80 23 2B 01 11 0F  01 42 80 23 2B 01 11 0F  .A.#+....B.#+...
10B0: 01 43 80 23 1D 44 80 23  2B 01 11 0F 01 45 80 23  .C.#.D.#+....E.#
10C0: 01 F2 10 CC 03 02 10 02  17 03 17 04 17 1D 40 80  ..............@.
10D0: 23 CC 03 02 10 05 17 06  17 07 17 1D 41 80 23 2B  #...........A.#+
10E0: 01 11 0F 01 42 80 23 2B  01 11 0F 01 43 80 23 93  ....B.#+....C.#.
10F0: 11 80 01 10 0E 01 8D 24  02 00 10 12 80 00 83 1B  .......$........
1100: 03 02 00 00 10 06 03 00  06 06 00 03 07 00 46 80  ..............F.
1110: 03 25 00 07 00 14 25 00  18 80 06 26 00 06 27 00  .%....%....&..'.
1120: 06 28 00 06 29 00 06 2A  00 06 2B 00 06 2C 00 06  .(..)..*..+..,..
1130: 2D 00 06 2E 00 06 2F 00  06 30 00 06 31 00 06 32  -...../..0..1..2
1140: 00 06 46 00 06 47 00 06  18 00 03 19 00 1F 80 02  ..F..G..........
1150: 18 00 46 80 03 D5 11 9D  0A ED 40 15 00 19 00 25  ..F.......@....%
1160: 00 02 15 00 2F 80 00 6F  11 1A 8F 24 01 CA 11 02  ..../..o...$....
1170: 15 00 11 80 02 C7 11 02  15 00 2F 80 03 C1 11 02  ........../.....
1180: 15 00 00 00 00 BB 11 41  11 80 47 80 09 00 16 00  .......A..G.....
1190: 02 16 00 01 80 04 B5 11  41 48 80 49 80 09 00 16  ........AH.I....
11A0: 00 02 16 00 01 80 04 AF  11 0B 47 00 01 B2 11 1A  ..........G.....
11B0: 8F 24 01 B8 11 1A 8F 24  01 BE 11 1A 8F 24 01 C4  .$.....$.....$..
11C0: 11 0B 47 00 01 CA 11 0B  47 00 0B 18 00 07 19 00  ..G.....G.......
11D0: 18 80 01 4F 11 08 07 00  46 00 03 15 00 07 00 3F  ...O....F......?
11E0: 15 00 15 00 18 80 15 07  00 18 80 02 15 00 11 80  ................
11F0: 00 F6 11 0C 07 00 06 05  00 02 06 00 07 00 00 08  ................
1200: 12 3C 05 00 21 80 14 80  03 15 00 06 00 14 15 00  .<..!...........
1210: 18 80 1A 5D 26 14 15 00  18 80 06 19 00 07 19 00  ...]&...........
1220: 15 00 03 1A 00 19 00 07  1A 00 1F 80 06 03 10 06  ................
1230: 04 10 06 05 10 06 06 10  06 07 10 06 08 10 06 09  ................
1240: 10 06 00 17 06 01 17 06  02 17 06 03 17 06 04 17  ................
1250: 06 05 17 06 06 17 06 07  17 06 08 17 06 48 00 06  .............H..
1260: 49 00 06 4A 00 06 4B 00  06 4C 00 06 4D 00 06 4E  I..J..K..L..M..N
1270: 00 06 4F 00 02 19 00 25  00 04 86 12 3C 05 00 14  ..O....%....<...
1280: 80 14 80 01 38 13 9D 0A  ED 40 15 00 1A 00 25 00  ....8....@....%.
1290: 02 15 00 2F 80 00 A8 12  07 19 00 18 80 07 1A 00  .../............
12A0: 18 80 01 74 12 01 12 13  02 15 00 11 80 02 12 13  ...t............
12B0: 02 15 00 2F 80 03 12 13  02 15 00 00 00 00 05 13  .../............
12C0: 41 11 80 47 80 09 00 16  00 02 16 00 01 80 04 F5  A..G............
12D0: 12 41 48 80 49 80 09 00  16 00 02 16 00 01 80 04  .AH.I...........
12E0: E5 12 01 F2 12 07 19 00  18 80 07 1A 00 18 80 01  ................
12F0: 74 12 01 02 13 07 19 00  18 80 07 1A 00 18 80 01  t...............
1300: 74 12 01 12 13 07 19 00  18 80 07 1A 00 18 80 01  t...............
1310: 74 12 9D 0A ED 40 03 10  19 00 25 00 0C 1A 00 9D  t....@....%.....
1320: 0A ED 40 04 10 1A 00 25  00 03 48 00 19 00 07 19  ..@....%..H.....
1330: 00 18 80 07 1A 00 21 80  02 19 00 25 00 04 4A 13  ......!....%..J.
1340: 3C 05 00 1F 80 14 80 01  FC 13 9D 0A ED 40 15 00  <............@..
1350: 1A 00 25 00 02 15 00 2F  80 00 6C 13 07 19 00 18  ..%..../..l.....
1360: 80 07 1A 00 18 80 01 38  13 01 D6 13 02 15 00 11  .......8........
1370: 80 02 D6 13 02 15 00 2F  80 03 D6 13 02 15 00 00  ......./........
1380: 00 00 C9 13 41 11 80 47  80 09 00 16 00 02 16 00  ....A..G........
1390: 01 80 04 B9 13 41 48 80  49 80 09 00 16 00 02 16  .....AH.I.......
13A0: 00 01 80 04 A9 13 01 B6  13 07 19 00 18 80 07 1A  ................
13B0: 00 18 80 01 38 13 01 C6  13 07 19 00 18 80 07 1A  ....8...........
13C0: 00 18 80 01 38 13 01 D6  13 07 19 00 18 80 07 1A  ....8...........
13D0: 00 18 80 01 38 13 9D 0A  ED 40 05 10 19 00 25 00  ....8....@....%.
13E0: 0C 1A 00 9D 0A ED 40 06  10 1A 00 25 00 03 49 00  ......@....%..I.
13F0: 19 00 07 19 00 18 80 07  1A 00 21 80 02 19 00 25  ..........!....%
1400: 00 04 0E 14 3C 05 00 20  80 14 80 01 C0 14 9D 0A  ....<.. ........
1410: ED 40 15 00 1A 00 25 00  02 15 00 2F 80 00 30 14  .@....%..../..0.
1420: 07 19 00 18 80 07 1A 00  18 80 01 FC 13 01 9A 14  ................
1430: 02 15 00 11 80 02 9A 14  02 15 00 2F 80 03 9A 14  .........../....
1440: 02 15 00 00 00 00 8D 14  41 11 80 47 80 09 00 16  ........A..G....
1450: 00 02 16 00 01 80 04 7D  14 41 48 80 49 80 09 00  .......}.AH.I...
1460: 16 00 02 16 00 01 80 04  6D 14 01 7A 14 07 19 00  ........m..z....
1470: 18 80 07 1A 00 18 80 01  FC 13 01 8A 14 07 19 00  ................
1480: 18 80 07 1A 00 18 80 01  FC 13 01 9A 14 07 19 00  ................
1490: 18 80 07 1A 00 18 80 01  FC 13 9D 0A ED 40 07 10  .............@..
14A0: 19 00 25 00 0C 1A 00 9D  0A ED 40 08 10 1A 00 25  ..%.......@....%
14B0: 00 03 4A 00 19 00 07 19  00 18 80 07 1A 00 21 80  ..J...........!.
14C0: 02 19 00 25 00 04 D2 14  3C 05 00 12 80 14 80 01  ...%....<.......
14D0: 84 15 9D 0A ED 40 15 00  1A 00 25 00 02 15 00 2F  .....@....%..../
14E0: 80 00 F4 14 07 19 00 18  80 07 1A 00 18 80 01 C0  ................
14F0: 14 01 5E 15 02 15 00 11  80 02 5E 15 02 15 00 2F  ..^.......^..../
1500: 80 03 5E 15 02 15 00 00  00 00 51 15 41 11 80 47  ..^.......Q.A..G
1510: 80 09 00 16 00 02 16 00  01 80 04 41 15 41 48 80  ...........A.AH.
1520: 49 80 09 00 16 00 02 16  00 01 80 04 31 15 01 3E  I...........1..>
1530: 15 07 19 00 18 80 07 1A  00 18 80 01 C0 14 01 4E  ...............N
1540: 15 07 19 00 18 80 07 1A  00 18 80 01 C0 14 01 5E  ...............^
1550: 15 07 19 00 18 80 07 1A  00 18 80 01 C0 14 9D 0A  ................
1560: ED 40 09 10 19 00 25 00  0C 1A 00 9D 0A ED 40 00  .@....%.......@.
1570: 17 1A 00 25 00 03 4B 00  19 00 07 19 00 18 80 07  ...%..K.........
1580: 1A 00 21 80 02 19 00 25  00 04 96 15 3C 05 00 04  ..!....%....<...
1590: 80 14 80 01 48 16 9D 0A  ED 40 15 00 1A 00 25 00  ....H....@....%.
15A0: 02 15 00 2F 80 00 B8 15  07 19 00 18 80 07 1A 00  .../............
15B0: 18 80 01 84 15 01 22 16  02 15 00 11 80 02 22 16  ......".......".
15C0: 02 15 00 2F 80 03 22 16  02 15 00 00 00 00 15 16  .../..".........
15D0: 41 11 80 47 80 09 00 16  00 02 16 00 01 80 04 05  A..G............
15E0: 16 41 48 80 49 80 09 00  16 00 02 16 00 01 80 04  .AH.I...........
15F0: F5 15 01 02 16 07 19 00  18 80 07 1A 00 18 80 01  ................
1600: 84 15 01 12 16 07 19 00  18 80 07 1A 00 18 80 01  ................
1610: 84 15 01 22 16 07 19 00  18 80 07 1A 00 18 80 01  ..."............
1620: 84 15 9D 0A ED 40 01 17  19 00 25 00 0C 1A 00 9D  .....@....%.....
1630: 0A ED 40 02 17 1A 00 25  00 03 4C 00 19 00 07 19  ..@....%..L.....
1640: 00 18 80 07 1A 00 21 80  02 19 00 25 00 04 5A 16  ......!....%..Z.
1650: 3C 05 00 1E 80 14 80 01  0C 17 9D 0A ED 40 15 00  <............@..
1660: 1A 00 25 00 02 15 00 2F  80 00 7C 16 07 19 00 18  ..%..../..|.....
1670: 80 07 1A 00 18 80 01 48  16 01 E6 16 02 15 00 11  .......H........
1680: 80 02 E6 16 02 15 00 2F  80 03 E6 16 02 15 00 00  ......./........
1690: 00 00 D9 16 41 11 80 47  80 09 00 16 00 02 16 00  ....A..G........
16A0: 01 80 04 C9 16 41 48 80  49 80 09 00 16 00 02 16  .....AH.I.......
16B0: 00 01 80 04 B9 16 01 C6  16 07 19 00 18 80 07 1A  ................
16C0: 00 18 80 01 48 16 01 D6  16 07 19 00 18 80 07 1A  ....H...........
16D0: 00 18 80 01 48 16 01 E6  16 07 19 00 18 80 07 1A  ....H...........
16E0: 00 18 80 01 48 16 9D 0A  ED 40 03 17 19 00 25 00  ....H....@....%.
16F0: 0C 1A 00 9D 0A ED 40 04  17 1A 00 25 00 03 4D 00  ......@....%..M.
1700: 19 00 07 19 00 18 80 07  1A 00 21 80 02 19 00 25  ..........!....%
1710: 00 04 1E 17 3C 05 00 16  80 14 80 01 D0 17 9D 0A  ....<...........
1720: ED 40 15 00 1A 00 25 00  02 15 00 2F 80 00 40 17  .@....%..../..@.
1730: 07 19 00 18 80 07 1A 00  18 80 01 0C 17 01 AA 17  ................
1740: 02 15 00 11 80 02 AA 17  02 15 00 2F 80 03 AA 17  .........../....
1750: 02 15 00 00 00 00 9D 17  41 11 80 47 80 09 00 16  ........A..G....
1760: 00 02 16 00 01 80 04 8D  17 41 48 80 49 80 09 00  .........AH.I...
1770: 16 00 02 16 00 01 80 04  7D 17 01 8A 17 07 19 00  ........}.......
1780: 18 80 07 1A 00 18 80 01  0C 17 01 9A 17 07 19 00  ................
1790: 18 80 07 1A 00 18 80 01  0C 17 01 AA 17 07 19 00  ................
17A0: 18 80 07 1A 00 18 80 01  0C 17 9D 0A ED 40 05 17  .............@..
17B0: 19 00 25 00 0C 1A 00 9D  0A ED 40 06 17 1A 00 25  ..%.......@....%
17C0: 00 03 4E 00 19 00 07 19  00 18 80 07 1A 00 21 80  ..N...........!.
17D0: 02 19 00 25 00 04 E2 17  3C 05 00 18 80 14 80 01  ...%....<.......
17E0: 94 18 9D 0A ED 40 15 00  1A 00 25 00 02 15 00 2F  .....@....%..../
17F0: 80 00 04 18 07 19 00 18  80 07 1A 00 18 80 01 D0  ................
1800: 17 01 6E 18 02 15 00 11  80 02 6E 18 02 15 00 2F  ..n.......n..../
1810: 80 03 6E 18 02 15 00 00  00 00 61 18 41 11 80 47  ..n.......a.A..G
1820: 80 09 00 16 00 02 16 00  01 80 04 51 18 41 48 80  ...........Q.AH.
1830: 49 80 09 00 16 00 02 16  00 01 80 04 41 18 01 4E  I...........A..N
1840: 18 07 19 00 18 80 07 1A  00 18 80 01 D0 17 01 5E  ...............^
1850: 18 07 19 00 18 80 07 1A  00 18 80 01 D0 17 01 6E  ...............n
1860: 18 07 19 00 18 80 07 1A  00 18 80 01 D0 17 9D 0A  ................
1870: ED 40 07 17 19 00 25 00  0C 1A 00 9D 0A ED 40 08  .@....%.......@.
1880: 17 1A 00 25 00 03 4F 00  19 00 07 19 00 18 80 07  ...%..O.........
1890: 1A 00 21 80 03 02 10 01  00 D4 03 14 80 03 10 D4  ..!.............
18A0: 03 1F 80 05 10 D4 03 20  80 07 10 D4 03 12 80 09  ....... ........
18B0: 10 D4 03 04 80 01 17 D4  03 1E 80 03 17 D4 03 16  ................
18C0: 80 05 17 D4 03 18 80 07  17 D4 02 4A 80 03 00 05  ...........J....
18D0: 00 25 02 00 10 11 80 00  F4 18 06 03 00 02 06 00  .%..............
18E0: 11 80 00 EB 18 01 5C 02  01 F1 18 0C 06 00 01 F6  ......\.........
18F0: 11 01 B7 19 02 00 10 21  80 00 08 19 06 03 00 0B  .......!........
1900: 06 00 01 F6 11 01 B7 19  03 03 00 00 10 03 15 00  ................
1910: 00 10 0C 15 00 9D 0A 5E  2A 19 00 15 00 18 80 03  .......^*.......
1920: 1A 00 19 00 15 19 00 18  80 9D 0A ED 40 03 10 1A  ............@...
1930: 00 25 00 0B 1A 00 9D 0A  ED 40 02 10 1A 00 25 00  .%.......@....%.
1940: 03 0D 00 03 10 03 0E 00  02 10 40 11 80 12 80 01  ..........@.....
1950: 10 20 80 40 04 80 2F 80  01 10 19 00 43 00 43 01  . .@../.....C.C.
1960: 03 10 00 03 10 02 02 10  11 80 03 78 19 40 11 80  ...........x.@..
1970: 12 80 01 10 11 80 21 00  02 02 10 14 80 00 88 19  ......!.........
1980: 03 0F 00 14 80 01 B7 19  03 15 00 0E 00 14 15 00  ................
1990: 1F 80 02 01 00 15 00 03  A2 19 03 0F 00 14 80 01  ................
19A0: B7 19 02 09 17 15 00 03  B2 19 03 0F 00 14 80 01  ................
19B0: B7 19 03 0F 00 1F 80 03  03 10 0D 00 03 02 10 0E  ................
19C0: 00 02 0F 00 14 80 00 33  1A 93 0D 00 1D 4B 80 23  .......3.....K.#
19D0: 93 11 80 02 0E 00 01 00  02 ED 19 1D 29 80 23 2B  ............).#+
19E0: 01 11 0F 01 2A 80 23 01  F6 11 01 09 1A 02 0E 00  ....*.#.........
19F0: 09 17 02 09 1A 03 02 10  09 17 1D 4C 80 23 2B 01  ...........L.#+.
1A00: 11 0F 01 4D 80 23 01 F6  11 03 04 10 01 00 24 4E  ...M.#........$N
1A10: 80 14 80 11 80 25 02 00  10 11 80 00 22 1A 42 01  .....%......".B.
1A20: 30 1A 02 00 10 14 80 00  30 1A 01 F6 11 01 30 1A  0.......0.....0.
1A30: 01 38 1B 03 02 10 01 00  02 02 10 09 17 02 45 1A  .8............E.
1A40: 03 02 10 09 17 15 02 10  0E 00 02 10 00 2F 80 80  ............./..
1A50: 62 1A 02 02 10 4F 80 02  5F 1A 03 02 10 4F 80 01  b....O.._....O..
1A60: 7A 1A 02 10 00 50 80 80  7A 1A 02 02 10 51 80 02  z....P..z....Q..
1A70: 77 1A 03 02 10 51 80 01  7A 1A 93 0D 00 1D 52 80  w....Q..z.....R.
1A80: 23 71 10 14 80 71 11 0F  00 93 11 80 02 0F 00 11  #q...q..........
1A90: 80 00 97 1A 01 F6 11 02  10 00 2F 80 80 AD 1A 02  ........../.....
1AA0: 0F 00 4F 80 02 AA 1A 01  33 1A 01 C3 1A 02 10 00  ..O.....3.......
1AB0: 50 80 80 C3 1A 02 0F 00  51 80 02 C0 1A 01 33 1A  P.......Q.....3.
1AC0: 01 C3 1A 03 04 10 0F 00  03 02 10 0E 00 14 02 10  ................
1AD0: 0F 00 02 02 10 01 00 02  EC 1A 1D 29 80 23 2B 01  ...........).#+.
1AE0: 11 0F 01 2A 80 23 01 33  1A 01 08 1B 02 02 10 09  ...*.#.3........
1AF0: 17 02 08 1B 03 02 10 09  17 1D 4C 80 23 2B 01 11  ..........L.#+..
1B00: 0F 01 4D 80 23 01 33 1A  1D 53 80 23 03 04 10 01  ..M.#.3..S.#....
1B10: 00 03 05 10 0F 00 24 54  80 14 80 11 80 25 02 00  ......$T.....%..
1B20: 10 11 80 00 2A 1B 42 01  38 1B 02 00 10 14 80 00  ....*.B.8.......
1B30: 38 1B 01 F6 11 01 38 1B  2B 01 11 0F 01 55 80 23  8.....8.+....U.#
1B40: 40 11 80 12 80 01 10 12  80 40 04 80 2F 80 01 10  @........@../...
1B50: 19 00 40 56 80 32 80 01  10 0F 00 43 00 43 01 02  ..@V.2.....C.C..
1B60: 02 10 11 80 03 72 1B 40  11 80 12 80 01 10 11 80  .....r.@........
1B70: 21 00 03 01 00 04 10 03  09 17 05 10 2E 01 F6 11  !...............
1B80: 01 8D 24 02 00 10 04 80  00 42 21 03 02 00 00 10  ..$......B!.....
1B90: 06 03 00 06 06 00 03 07  00 17 80 03 25 00 07 00  ............%...
1BA0: 14 25 00 18 80 06 26 00  06 27 00 06 28 00 06 29  .%....&..'..(..)
1BB0: 00 06 2A 00 06 2B 00 06  2C 00 06 2D 00 06 2E 00  ..*..+..,..-....
1BC0: 06 2F 00 06 30 00 06 31  00 06 32 00 06 46 00 06  ./..0..1..2..F..
1BD0: 47 00 06 18 00 02 18 00  17 80 03 F3 1B 3E 1C 00  G............>..
1BE0: 18 00 EA 1B 0B 47 00 01  ED 1B 1A 8F 24 0B 18 00  .....G......$...
1BF0: 01 D5 1B 08 07 00 46 00  03 15 00 07 00 3F 15 00  ......F......?..
1C00: 15 00 18 80 15 07 00 18  80 02 15 00 11 80 00 14  ................
1C10: 1C 0C 07 00 06 05 00 02  06 00 07 00 00 26 1C 3C  .............&.<
1C20: 05 00 21 80 14 80 03 15  00 06 00 14 15 00 18 80  ..!.............
1C30: 1A 5D 26 14 15 00 18 80  06 19 00 07 19 00 15 00  .]&.............
1C40: 03 1A 00 19 00 0B 1A 00  06 03 10 06 04 10 06 05  ................
1C50: 10 06 06 10 06 07 10 06  08 10 06 09 10 06 00 17  ................
1C60: 06 01 17 06 02 17 06 03  17 06 04 17 06 05 17 06  ................
1C70: 06 17 06 07 17 06 08 17  06 48 00 06 49 00 06 4A  .........H..I..J
1C80: 00 06 4B 00 06 4C 00 06  4D 00 06 4E 00 06 4F 00  ..K..L..M..N..O.
1C90: 15 15 00 18 80 3E 1C 00  15 00 B8 1C 9D 0A CD 42  .....>.........B
1CA0: 03 10 19 00 25 00 9D 0A  CD 42 04 10 1A 00 25 00  ....%....B....%.
1CB0: 03 48 00 19 00 01 DD 1C  07 19 00 18 80 07 1A 00  .H..............
1CC0: 18 80 0B 15 00 02 19 00  25 00 04 DA 1C 3C 05 00  ........%....<..
1CD0: 14 80 14 80 01 DD 1C 01  DD 1C 01 95 1C 07 19 00  ................
1CE0: 18 80 07 1A 00 18 80 0B  15 00 3E 1C 00 15 00 0D  ..........>.....
1CF0: 1D 9D 0A CD 42 05 10 19  00 25 00 9D 0A CD 42 06  ....B....%....B.
1D00: 10 1A 00 25 00 03 49 00  19 00 01 25 1D 02 19 00  ...%..I....%....
1D10: 25 00 04 22 1D 3C 05 00  1F 80 14 80 01 25 1D 01  %..".<.......%..
1D20: 25 1D 01 DD 1C 07 19 00  18 80 07 1A 00 18 80 0B  %...............
1D30: 15 00 3E 1C 00 15 00 55  1D 9D 0A CD 42 07 10 19  ..>....U....B...
1D40: 00 25 00 9D 0A CD 42 08  10 1A 00 25 00 03 4A 00  .%....B....%..J.
1D50: 19 00 01 6D 1D 02 19 00  25 00 04 6A 1D 3C 05 00  ...m....%..j.<..
1D60: 20 80 14 80 01 6D 1D 01  6D 1D 01 25 1D 07 19 00   ....m..m..%....
1D70: 18 80 07 1A 00 18 80 0B  15 00 3E 1C 00 15 00 9D  ..........>.....
1D80: 1D 9D 0A CD 42 09 10 19  00 25 00 9D 0A CD 42 00  ....B....%....B.
1D90: 17 1A 00 25 00 03 4B 00  19 00 01 B5 1D 02 19 00  ...%..K.........
1DA0: 25 00 04 B2 1D 3C 05 00  12 80 14 80 01 B5 1D 01  %....<..........
1DB0: B5 1D 01 6D 1D 07 19 00  18 80 07 1A 00 18 80 0B  ...m............
1DC0: 15 00 3E 1C 00 15 00 E5  1D 9D 0A CD 42 01 17 19  ..>.........B...
1DD0: 00 25 00 9D 0A CD 42 02  17 1A 00 25 00 03 4C 00  .%....B....%..L.
1DE0: 19 00 01 FD 1D 02 19 00  25 00 04 FA 1D 3C 05 00  ........%....<..
1DF0: 04 80 14 80 01 FD 1D 01  FD 1D 01 B5 1D 07 19 00  ................
1E00: 18 80 07 1A 00 18 80 0B  15 00 3E 1C 00 15 00 2D  ..........>....-
1E10: 1E 9D 0A CD 42 03 17 19  00 25 00 9D 0A CD 42 04  ....B....%....B.
1E20: 17 1A 00 25 00 03 4D 00  19 00 01 45 1E 02 19 00  ...%..M....E....
1E30: 25 00 04 42 1E 3C 05 00  1E 80 14 80 01 45 1E 01  %..B.<.......E..
1E40: 45 1E 01 FD 1D 07 19 00  18 80 07 1A 00 18 80 0B  E...............
1E50: 15 00 3E 1C 00 15 00 75  1E 9D 0A CD 42 05 17 19  ..>....u....B...
1E60: 00 25 00 9D 0A CD 42 06  17 1A 00 25 00 03 4E 00  .%....B....%..N.
1E70: 19 00 01 8D 1E 02 19 00  25 00 04 8A 1E 3C 05 00  ........%....<..
1E80: 16 80 14 80 01 8D 1E 01  8D 1E 01 45 1E 07 19 00  ...........E....
1E90: 18 80 07 1A 00 18 80 0B  15 00 3E 1C 00 15 00 BD  ..........>.....
1EA0: 1E 9D 0A CD 42 07 17 19  00 25 00 9D 0A CD 42 08  ....B....%....B.
1EB0: 17 1A 00 25 00 03 4F 00  19 00 01 D5 1E 02 19 00  ...%..O.........
1EC0: 25 00 04 D2 1E 3C 05 00  18 80 14 80 01 D5 1E 01  %....<..........
1ED0: D5 1E 01 8D 1E 03 02 10  01 00 D4 03 14 80 03 10  ................
1EE0: D4 03 1F 80 05 10 D4 03  20 80 07 10 D4 03 12 80  ........ .......
1EF0: 09 10 D4 03 04 80 01 17  D4 03 1E 80 03 17 D4 03  ................
1F00: 16 80 05 17 D4 03 18 80  07 17 D4 02 4A 80 03 00  ............J...
1F10: 05 00 25 02 00 10 11 80  00 35 1F 06 03 00 02 06  ..%......5......
1F20: 00 11 80 00 2C 1F 01 5C  02 01 32 1F 0C 06 00 01  ....,..\..2.....
1F30: 14 1C 01 B5 1F 02 00 10  21 80 00 49 1F 06 03 00  ........!..I....
1F40: 0B 06 00 01 14 1C 01 B5  1F 03 03 00 00 10 03 15  ................
1F50: 00 00 10 0C 15 00 9D 0A  5E 2A 19 00 15 00 18 80  ........^*......
1F60: 03 1A 00 19 00 0B 1A 00  9D 0A CD 42 03 10 19 00  ...........B....
1F70: 25 00 9D 0A CD 42 02 10  1A 00 25 00 03 0D 00 03  %....B....%.....
1F80: 10 03 0E 00 02 10 03 15  00 0E 00 14 15 00 1F 80  ................
1F90: 02 01 00 15 00 03 A0 1F  03 0F 00 14 80 01 B5 1F  ................
