# 17764780

## Common Data

| Field            | Value                    |
|------------------|--------------------------|
| Zone             | Windurst Woods (ID: 241) |
| Block Size       | 9312 bytes               |
| Total Events     | 3                        |
| References Count | 236                      |

## List of Events

| Event ID              | Entrypoint   |   Size |   Instructions |
|-----------------------|--------------|--------|----------------|
| [65535](#event-65535) | 0x0000       |      1 |              1 |
| [871](#event-871)     | 0x0001       |   4121 |            627 |
| [872](#event-872)     | 0x101A       |   4215 |            600 |

## DAT References (imed_data)

|   Index | Hex Value   |   Dec Value |
|---------|-------------|-------------|
|       0 | 0x0002      |           2 |
|       1 | 0x00C8      |         200 |
|       2 | 0x0000      |           0 |
|       3 | 0x0013      |          19 |
|       4 | 0x5DC0      |       24000 |
|       5 | 0xFFFF5614  |  4294923796 |
|       6 | 0x07D0      |        2000 |
|       7 | 0x06FF      |        1791 |
|       8 | 0xFFFFFED4  |  4294966996 |
|       9 | 0xFFFF0024  |  4294901796 |
|      10 | 0x0BB8      |        3000 |
|      11 | 0xFFFFFF01  |  4294967041 |
|      12 | 0x0578      |        1400 |
|      13 | 0x0258      |         600 |
|      14 | 0x0190      |         400 |
|      15 | 0x0017      |          23 |
|      16 | 0x03E8      |        1000 |
|      17 | 0x000E      |          14 |
|      18 | 0x05DC      |        1500 |
|      19 | 0x000F      |          15 |
|      20 | 0x001D      |          29 |
|      21 | 0x0320      |         800 |
|      22 | 0x0055      |          85 |
|      23 | 0x1E14      |        7700 |
|      24 | 0x0C80      |        3200 |
|      25 | 0x01BD      |         445 |
|      26 | 0x0088      |         136 |
|      27 | 0x0FA0      |        4000 |
|      28 | 0xFFFF32EC  |  4294914796 |
|      29 | 0x01F4      |         500 |
|      30 | 0x027F      |         639 |
|      31 | 0x00B4      |         180 |
|      32 | 0x003C      |          60 |
|      33 | 0x027D      |         637 |
|      34 | 0xFFFF2D10  |  4294913296 |
|      35 | 0x03FF      |        1023 |
|      36 | 0xFFFEC780  |  4294887296 |
|      37 | 0x001E      |          30 |
|      38 | 0x000A      |          10 |
|      39 | 0x0005      |           5 |
|      40 | 0x012C      |         300 |
|      41 | 0x0078      |         120 |
|      42 | 0x1F40      |        8000 |
|      43 | 0x005A      |          90 |
|      44 | 0xFFFF0600  |  4294903296 |
|      45 | 0xFFFFFE0C  |  4294966796 |
|      46 | 0xFFFF0BDC  |  4294904796 |
|      47 | 0xFFFFF18C  |  4294963596 |
|      48 | 0xFFFF08DA  |  4294904026 |
|      49 | 0x007F      |         127 |
|      50 | 0x0064      |         100 |
|      51 | 0x0898      |        2200 |
|      52 | 0xFFFFFC01  |  4294966273 |
|      53 | 0x0019      |          25 |
|      54 | 0x0016      |          22 |
|      55 | 0x0708      |        1800 |
|      56 | 0x0834      |        2100 |
|      57 | 0x076C      |        1900 |
|      58 | 0x0014      |          20 |
|      59 | 0x0032      |          50 |
|      60 | 0xFFFFFE70  |  4294966896 |
|      61 | 0xFFFF04D4  |  4294902996 |
|      62 | 0x35AA      |       13738 |
|      63 | 0x0001      |           1 |
|      64 | 0x35AB      |       13739 |
|      65 | 0x35B1      |       13745 |
|      66 | 0x0081      |         129 |
|      67 | 0xFFFFF4AC  |  4294964396 |
|      68 | 0xFFFF06C8  |  4294903496 |
|      69 | 0x0802      |        2050 |
|      70 | 0xFFFFF574  |  4294964596 |
|      71 | 0x0876      |        2166 |
|      72 | 0x35AC      |       13740 |
|      73 | 0x35AD      |       13741 |
|      74 | 0x35AE      |       13742 |
|      75 | 0x35AF      |       13743 |
|      76 | 0x35B0      |       13744 |
|      77 | 0x35B2      |       13746 |
|      78 | 0x35B3      |       13747 |
|      79 | 0x35B4      |       13748 |
|      80 | 0x35B5      |       13749 |
|      81 | 0x35B6      |       13750 |
|      82 | 0x35B7      |       13751 |
|      83 | 0x35B8      |       13752 |
|      84 | 0x35B9      |       13753 |
|      85 | 0x0006      |           6 |
|      86 | 0x35BA      |       13754 |
|      87 | 0x35BB      |       13755 |
|      88 | 0x35BC      |       13756 |
|      89 | 0x35BD      |       13757 |
|      90 | 0x087F      |        2175 |
|      91 | 0x35C1      |       13761 |
|      92 | 0x35C2      |       13762 |
|      93 | 0x35BE      |       13758 |
|      94 | 0x35C3      |       13763 |
|      95 | 0x35C4      |       13764 |
|      96 | 0x35C5      |       13765 |
|      97 | 0x35C6      |       13766 |
|      98 | 0x35C7      |       13767 |
|      99 | 0x35C8      |       13768 |
|     100 | 0x35C9      |       13769 |
|     101 | 0x35CA      |       13770 |
|     102 | 0x35CB      |       13771 |
|     103 | 0x35CC      |       13772 |
|     104 | 0x35CD      |       13773 |
|     105 | 0x35CE      |       13774 |
|     106 | 0x007A      |         122 |
|     107 | 0x010E      |         270 |
|     108 | 0x35CF      |       13775 |
|     109 | 0x1DC90     |      122000 |
|     110 | 0xFFFF63C0  |  4294927296 |
|     111 | 0xFFFFEC78  |  4294962296 |
|     112 | 0x07FF      |        2047 |
|     113 | 0x19A28     |      105000 |
|     114 | 0x01A4      |         420 |
|     115 | 0x0CFB      |        3323 |
|     116 | 0x1434      |        5172 |
|     117 | 0x35D0      |       13776 |
|     118 | 0x35D1      |       13777 |
|     119 | 0x157C0     |       88000 |
|     120 | 0xFFFFF060  |  4294963296 |
|     121 | 0x35BF      |       13759 |
|     122 | 0x35C0      |       13760 |
|     123 | 0x0097      |         151 |
|     124 | 0x0007      |           7 |
|     125 | 0x0003      |           3 |
|     126 | 0x35F9      |       13817 |
|     127 | 0x35D2      |       13778 |
|     128 | 0x35D3      |       13779 |
|     129 | 0x35D4      |       13780 |
|     130 | 0x35D5      |       13781 |
|     131 | 0x0004      |           4 |
|     132 | 0x000C      |          12 |
|     133 | 0x0010      |          16 |
|     134 | 0x35D6      |       13782 |
|     135 | 0x35D9      |       13785 |
|     136 | 0x182A      |        6186 |
|     137 | 0x182D      |        6189 |
|     138 | 0x182C      |        6188 |
|     139 | 0x182B      |        6187 |
|     140 | 0x35D7      |       13783 |
|     141 | 0x1EF0      |        7920 |
|     142 | 0x35D8      |       13784 |
|     143 | 0x0012      |          18 |
|     144 | 0x0011      |          17 |
|     145 | 0x35DA      |       13786 |
|     146 | 0xFFFEFB10  |  4294900496 |
|     147 | 0x1D4C      |        7500 |
|     148 | 0xFFFECD5C  |  4294888796 |
|     149 | 0xFFFFFA01  |  4294965761 |
|     150 | 0xFFFEE0E4  |  4294893796 |
|     151 | 0x0096      |         150 |
|     152 | 0x1690      |        5776 |
|     153 | 0x35E4      |       13796 |
|     154 | 0x35E5      |       13797 |
|     155 | 0x35E6      |       13798 |
|     156 | 0xFFFFF95C  |  4294965596 |
|     157 | 0xFFFF0088  |  4294901896 |
|     158 | 0x023F      |         575 |
|     159 | 0x0D2A      |        3370 |
|     160 | 0xFFFEE422  |  4294894626 |
|     161 | 0x09DD      |        2525 |
|     162 | 0xFFFEE378  |  4294894456 |
|     163 | 0xFFFFF7CC  |  4294965196 |
|     164 | 0xFFFF027C  |  4294902396 |
|     165 | 0x0028      |          40 |
|     166 | 0xFFFFF614  |  4294964756 |
|     167 | 0xFFFF056A  |  4294903146 |
|     168 | 0xFFFFFB01  |  4294966017 |
|     169 | 0x00BC      |         188 |
|     170 | 0x35E7      |       13799 |
|     171 | 0x35E8      |       13800 |
|     172 | 0x35E9      |       13801 |
|     173 | 0x35EA      |       13802 |
|     174 | 0x35EB      |       13803 |
|     175 | 0x35EC      |       13804 |
|     176 | 0x35ED      |       13805 |
|     177 | 0x35EE      |       13806 |
|     178 | 0x35EF      |       13807 |
|     179 | 0x35F0      |       13808 |
|     180 | 0x35F1      |       13809 |
|     181 | 0x35F2      |       13810 |
|     182 | 0x35F3      |       13811 |
|     183 | 0x02BF      |         703 |
|     184 | 0x11D4      |        4564 |
|     185 | 0x1196      |        4502 |
|     186 | 0x35F4      |       13812 |
|     187 | 0x1770      |        6000 |
|     188 | 0x35F5      |       13813 |
|     189 | 0x35F6      |       13814 |
|     190 | 0x35F7      |       13815 |
|     191 | 0x35F8      |       13816 |
|     192 | 0x21FC      |        8700 |
|     193 | 0xFFFF3418  |  4294915096 |
|     194 | 0x0965      |        2405 |
|     195 | 0x04FF      |        1279 |
|     196 | 0x1964      |        6500 |
|     197 | 0xFFFF1D70  |  4294909296 |
|     198 | 0x1129      |        4393 |
|     199 | 0x35DB      |       13787 |
|     200 | 0x168F      |        5775 |
|     201 | 0x35DC      |       13788 |
|     202 | 0x35DD      |       13789 |
|     203 | 0x35DE      |       13790 |
|     204 | 0xFFFFFE81  |  4294966913 |
|     205 | 0x35DF      |       13791 |
|     206 | 0x35E0      |       13792 |
|     207 | 0x35E1      |       13793 |
|     208 | 0xFFFEE2D8  |  4294894296 |
|     209 | 0x35E2      |       13794 |
|     210 | 0x35E3      |       13795 |
|     211 | 0x1044      |        4164 |
|     212 | 0x2088      |        8328 |
|     213 | 0x0411      |        1041 |
|     214 | 0x0822      |        2082 |
|     215 | 0x0300      |         768 |
|     216 | 0x0008      |           8 |
|     217 | 0x0009      |           9 |
|     218 | 0x000B      |          11 |
|     219 | 0x000D      |          13 |
|     220 | 0x7455      |       29781 |
|     221 | 0x0015      |          21 |
|     222 | 0x0018      |          24 |
|     223 | 0x001B      |          27 |
|     224 | 0x6C4F      |       27727 |
|     225 | 0x6C4E      |       27726 |
|     226 | 0x6FEB      |       28651 |
|     227 | 0x6FEA      |       28650 |
|     228 | 0x2237      |        8759 |
|     229 | 0x2236      |        8758 |
|     230 | 0x6F5E      |       28510 |
|     231 | 0x6F5D      |       28509 |
|     232 | 0x6C6C      |       27756 |
|     233 | 0x6FEF      |       28655 |
|     234 | 0x2208      |        8712 |
|     235 | 0x6F5F      |       28511 |

## String References

- **13758**: Help find his friends? [Of course! I love jiggling!/No, thanks. Too much work.]
- **13773**: Be whisked outside town? [On feathered wings!/I'd prefer to stay here.]
- **13779**: Any requests? ($0 coins) [I want to check available items./I want to be warped outside town./Nothing in particular.]
- **13780**: Check which item? (Total: $0 coin[/s]) [???/$1. ($2 coin[/s])/???/$3. ($4 coin[/s])/???/$5. ($6 coin[/s])/???/$7. ($8 coin[/s])/$9. ($10 coin[/s])/$11. ($12 coin[/s])/???/$13. ($14 coin[/s])/???/$15. ($16 coin[/s])/$17. ($18 coin[/s])/[Next page/Previous page].@@/Back.]
- **13785**: Ready for the exchange? ($0 coin[/s]) [Ready, Freddy!/Hang on, Helga.]

## Events

### Event 65535

#### Metadata

| Field        | Value   |
|--------------|---------|
| Entrypoint   | 0x0000  |
| Data Size    | 1 bytes |
| Instructions | 1       |

```
      00 01 02 03 04 05 06 07  08 09 0A 0B 0C 0D 0E 0F
      -- -- -- -- -- -- -- --  -- -- -- -- -- -- -- --
0000: 00                                                .               
```

#### Opcodes

```
  0: 0x0000 [0x00] END_REQSTACK()
```

### Event 871

#### Metadata

| Field        | Value      |
|--------------|------------|
| Entrypoint   | 0x0001     |
| Data Size    | 4121 bytes |
| Instructions | 627        |

```
      00 01 02 03 04 05 06 07  08 09 0A 0B 0C 0D 0E 0F
      -- -- -- -- -- -- -- --  -- -- -- -- -- -- -- --
0000:    03 00 00 02 10 03 01  00 03 10 03 02 00 00 80   ...............
0010: 42 45 01 80 F0 FF FF 7F  F0 FF FF 7F 66 64 6F 31  BE..........fdo1
0020: 02 80 55 01 80 F0 FF FF  7F F0 FF FF 7F 66 64 6F  ..U..........fdo
0030: 31 46 01 38 03 80 92 01  AD 11 0F 01 94 01 AD 11  1F.8............
0040: 0F 01 94 01 F0 FF FF 7F  94 01 B0 11 0F 01 59 05  ..............Y.
0050: B0 11 0F 01 01 02 00 00  02 80 00 06 0C BA AD 11  ................
0060: 0F 01 04 80 05 80 06 80  07 80 BA F0 FF FF 7F 08  ................
0070: 80 09 80 0A 80 0B 80 4A  F0 FF FF 7F AD 11 0F 01  .......J........
0080: 80 AD 11 0F 01 80 F0 FF  FF 7F 2F 00 B2 11 0F 01  ........../.....
0090: 2F 00 B3 11 0F 01 2F 00  B4 11 0F 01 2F 00 B0 11  /...../...../...
00A0: 0F 01 4E 00 B0 11 0F 01  03 03 00 04 80 03 04 00  ..N.............
00B0: 05 80 03 05 00 06 80 07  03 00 0C 80 07 04 00 0D  ................
00C0: 80 07 05 00 0E 80 BA B0  11 0F 01 03 00 04 00 05  ................
00D0: 00 07 80 BB 0F 80 B0 11  0F 01 B0 11 0F 01 73 74  ..............st
00E0: 61 74 02 80 80 B0 11 0F  01 92 01 8B 10 0F 01 92  at..............
00F0: 01 AB 10 0F 01 92 01 B4  10 0F 01 92 01 B3 10 0F  ................
0100: 01 92 01 F7 10 0F 01 92  01 8A 10 0F 01 92 01 A4  ................
0110: 10 0F 01 92 01 A5 10 0F  01 92 01 13 10 0F 01 92  ................
0120: 01 F8 10 0F 01 92 01 E4  10 0F 01 92 01 08 11 0F  ................
0130: 01 2F 00 B5 11 0F 01 2F  00 B6 11 0F 01 2F 00 B7  ./...../...../..
0140: 11 0F 01 2F 00 B8 11 0F  01 2F 00 B9 11 0F 01 2F  .../...../...../
0150: 00 BA 11 0F 01 4E 00 B5  11 0F 01 4E 00 B6 11 0F  .....N.....N....
0160: 01 4E 00 B7 11 0F 01 4E  00 B8 11 0F 01 4E 00 B9  .N.....N.....N..
0170: 11 0F 01 4E 00 BA 11 0F  01 94 01 B5 11 0F 01 94  ...N............
0180: 01 B6 11 0F 01 94 01 B7  11 0F 01 94 01 B8 11 0F  ................
0190: 01 94 01 B9 11 0F 01 94  01 BA 11 0F 01 03 03 00  ................
01A0: 04 80 07 03 00 06 80 03  04 00 05 80 07 04 00 10  ................
01B0: 80 03 05 00 06 80 03 06  00 07 80 08 05 00 11 80  ................
01C0: BA B5 11 0F 01 03 00 04  00 05 00 06 00 07 03 00  ................
01D0: 12 80 08 04 00 02 80 08  05 00 13 80 BA B6 11 0F  ................
01E0: 01 03 00 04 00 05 00 06  00 07 03 00 10 80 07 04  ................
01F0: 00 06 80 07 05 00 14 80  BA B7 11 0F 01 03 00 04  ................
0200: 00 05 00 06 00 07 03 00  12 80 08 04 00 02 80 07  ................
0210: 05 00 02 80 BA B9 11 0F  01 03 00 04 00 05 00 06  ................
0220: 00 07 03 00 15 80 08 04  00 10 80 08 05 00 16 80  ................
0230: BA BA 11 0F 01 03 00 04  00 05 00 06 00 07 03 00  ................
0240: 17 80 07 04 00 18 80 08  05 00 19 80 BA B8 11 0F  ................
0250: 01 03 00 04 00 05 00 06  00 80 B5 11 0F 01 80 B6  ................
0260: 11 0F 01 80 B7 11 0F 01  80 B8 11 0F 01 80 B9 11  ................
0270: 0F 01 80 BA 11 0F 01 5C  00 1A 80 5C 01 1A 80 9A  .......\...\....
0280: 59 05 AD 11 0F 01 00 03  00 17 1B 80 03 01 17 1C  Y...............
0290: 80 03 02 17 06 80 27 10  AD 11 0F 01 03 03 1D 17  ......'.........
02A0: 1B 80 03 1E 17 1C 80 03  1F 17 06 80 07 1D 17 0C  ................
02B0: 80 07 1E 17 0D 80 07 1F  17 0E 80 27 10 B0 11 0F  ...........'....
02C0: 01 03 03 04 17 1B 80 08  04 17 1D 80 03 05 17 1C  ................
02D0: 80 03 06 17 06 80 28 10  B5 11 0F 01 02 03 04 17  ......(.........
02E0: 1B 80 07 04 17 10 80 03  05 17 1C 80 28 10 B6 11  ............(...
02F0: 0F 01 02 03 04 17 1B 80  08 04 17 10 80 03 05 17  ................
0300: 1C 80 28 10 B7 11 0F 01  02 03 04 17 1B 80 08 04  ..(.............
0310: 17 15 80 03 05 17 1C 80  28 10 B9 11 0F 01 02 03  ........(.......
0320: 04 17 1B 80 07 04 17 1D  80 03 05 17 1C 80 28 10  ..............(.
0330: BA 11 0F 01 02 03 04 17  1B 80 03 05 17 1C 80 28  ...............(
0340: 10 B8 11 0F 01 02 1C 13  80 45 1E 80 F8 FF FF 7F  .........E......
0350: F8 FF FF 7F 73 32 30 30  02 80 45 01 80 F0 FF FF  ....s200..E.....
0360: 7F F0 FF FF 7F 66 64 69  31 02 80 1C 1F 80 1C 20  .....fdi1...... 
0370: 80 45 01 80 F0 FF FF 7F  F0 FF FF 7F 66 64 6F 31  .E..........fdo1
0380: 02 80 55 01 80 F0 FF FF  7F F0 FF FF 7F 66 64 6F  ..U..........fdo
0390: 31 52 1E 80 F8 FF FF 7F  F8 FF FF 7F 73 32 30 30  1R..........s200
03A0: 45 21 80 F8 FF FF 7F F8  FF FF 7F 62 6F 66 66 02  E!.........boff.
03B0: 80 55 21 80 F8 FF FF 7F  F8 FF FF 7F 62 6F 66 66  .U!.........boff
03C0: 45 01 80 F0 FF FF 7F F0  FF FF 7F 66 64 69 31 02  E..........fdi1.
03D0: 80 45 1E 80 F8 FF FF 7F  F8 FF FF 7F 73 32 30 31  .E..........s201
03E0: 02 80 7A 00 AD 11 0F 01  BA AD 11 0F 01 06 80 22  ..z............"
03F0: 80 0A 80 23 80 BB 0F 80  B0 11 0F 01 B0 11 0F 01  ...#............
0400: 73 74 6F 70 02 80 7A 00  B5 11 0F 01 7A 00 B6 11  stop..z.....z...
0410: 0F 01 7A 00 B7 11 0F 01  7A 00 B8 11 0F 01 7A 00  ..z.....z.....z.
0420: B9 11 0F 01 7A 00 BA 11  0F 01 BA B5 11 0F 01 06  ....z...........
0430: 80 22 80 0A 80 23 80 BA  B6 11 0F 01 06 80 22 80  ."...#........".
0440: 0A 80 23 80 BA B7 11 0F  01 06 80 22 80 0A 80 23  ..#........"...#
0450: 80 BA B8 11 0F 01 06 80  22 80 0A 80 23 80 BA B9  ........"...#...
0460: 11 0F 01 06 80 22 80 0A  80 23 80 BA BA 11 0F 01  ....."...#......
0470: 06 80 22 80 0A 80 23 80  03 00 17 06 80 03 01 17  .."...#.........
0480: 24 80 03 02 17 0A 80 27  10 AD 11 0F 01 03 1C 25  $......'.......%
0490: 80 03 04 17 06 80 03 05  17 24 80 03 06 17 0A 80  .........$......
04A0: 27 10 B5 11 0F 01 02 1C  26 80 03 04 17 06 80 07  '.......&.......
04B0: 04 17 1D 80 03 05 17 24  80 03 06 17 0A 80 27 10  .......$......'.
04C0: B6 11 0F 01 02 1C 27 80  03 04 17 06 80 08 04 17  ......'.........
04D0: 1D 80 03 05 17 24 80 03  06 17 0A 80 27 10 B7 11  .....$......'...
04E0: 0F 01 02 1C 13 80 03 04  17 06 80 08 04 17 28 80  ..............(.
04F0: 03 05 17 24 80 03 06 17  0A 80 27 10 B9 11 0F 01  ...$......'.....
0500: 02 1C 26 80 03 04 17 06  80 07 04 17 28 80 03 05  ..&.........(...
0510: 17 24 80 03 06 17 0A 80  27 10 BA 11 0F 01 02 1C  .$......'.......
0520: 29 80 4A F0 FF FF 7F AD  11 0F 01 03 04 17 06 80  ).J.............
0530: 03 05 17 24 80 07 05 17  2A 80 03 06 17 0A 80 27  ...$....*......'
0540: 10 B8 11 0F 01 02 1C 29  80 4A F0 FF FF 7F AD 11  .......).J......
0550: 0F 01 2A 10 AD 11 0F 01  4A AD 11 0F 01 F0 FF FF  ..*.....J.......
0560: 7F 7B AD 11 0F 01 4A B5  11 0F 01 F0 FF FF 7F 4A  .{....J........J
0570: B6 11 0F 01 F0 FF FF 7F  4A B7 11 0F 01 F0 FF FF  ........J.......
0580: 7F 4A B8 11 0F 01 F0 FF  FF 7F 4A B9 11 0F 01 F0  .J........J.....
0590: FF FF 7F 4A BA 11 0F 01  F0 FF FF 7F 7B B5 11 0F  ...J........{...
05A0: 01 7B B6 11 0F 01 7B B7  11 0F 01 7B B8 11 0F 01  .{....{....{....
05B0: 7B B9 11 0F 01 7B BA 11  0F 01 1C 2B 80 03 00 17  {....{.....+....
05C0: 06 80 03 01 17 2C 80 03  02 17 0A 80 27 10 AD 11  .....,......'...
05D0: 0F 01 03 1C 29 80 52 1E  80 F8 FF FF 7F F8 FF FF  ....).R.........
05E0: 7F 73 32 30 31 45 1E 80  F8 FF FF 7F F8 FF FF 7F  .s201E..........
05F0: 73 32 30 32 02 80 2A 10  AD 11 0F 01 4A F0 FF FF  s202..*.....J...
0600: 7F AD 11 0F 01 03 00 17  2D 80 03 01 17 2E 80 03  ........-.......
0610: 02 17 0A 80 27 10 AD 11  0F 01 03 2A 10 AD 11 0F  ....'......*....
0620: 01 4A F0 FF FF 7F AD 11  0F 01 03 00 17 2F 80 03  .J.........../..
0630: 01 17 30 80 03 02 17 0A  80 27 10 AD 11 0F 01 03  ..0......'......
0640: 2A 10 AD 11 0F 01 03 03  17 31 80 27 10 AD 11 0F  *........1.'....
0650: 01 04 4A F0 FF FF 7F AD  11 0F 01 2A 10 AD 11 0F  ..J........*....
0660: 01 4E 00 B2 11 0F 01 4E  00 B3 11 0F 01 4E 00 B4  .N.....N.....N..
0670: 11 0F 01 03 03 00 06 80  03 04 00 24 80 08 03 00  ...........$....
0680: 32 80 08 04 00 32 80 BA  B2 11 0F 01 03 00 04 00  2....2..........
0690: 0A 80 07 80 07 03 00 01  80 07 04 00 01 80 BA B3  ................
06A0: 11 0F 01 03 00 04 00 0A  80 07 80 BA B4 11 0F 01  ................
06B0: 06 80 24 80 0A 80 07 80  03 04 17 33 80 03 05 17  ..$........3....
06C0: 2C 80 03 06 17 0A 80 28  10 B5 11 0F 01 02 2A 10  ,......(......*.
06D0: B5 11 0F 01 03 07 17 34  80 27 10 B5 11 0F 01 03  .......4.'......
06E0: 1C 35 80 03 07 17 02 80  27 10 B5 11 0F 01 03 1C  .5......'.......
06F0: 27 80 03 07 17 23 80 27  10 B5 11 0F 01 03 1C 20  '....#.'....... 
0700: 80 59 05 B0 11 0F 01 01  03 03 00 33 80 03 04 00  .Y.........3....
0710: 2C 80 03 05 00 0A 80 07  04 00 0C 80 07 05 00 0E  ,...............
0720: 80 BA B0 11 0F 01 03 00  04 00 05 00 23 80 BB 36  ............#..6
0730: 80 B0 11 0F 01 B0 11 0F  01 6D 61 69 6E 02 80 5B  .........main..[
0740: 16 80 B5 11 0F 01 B5 11  0F 01 73 75 72 31 03 04  ..........sur1..
0750: 17 37 80 03 05 17 22 80  03 06 17 0A 80 28 10 B6  .7...."......(..
0760: 11 0F 01 02 2F 00 B1 11  0F 01 4E 00 B1 11 0F 01  ..../.....N.....
0770: 59 05 B1 11 0F 01 01 03  03 00 06 80 03 04 00 24  Y..............$
0780: 80 03 05 00 0A 80 08 04  00 12 80 07 05 00 0E 80  ................
0790: BA B1 11 0F 01 03 00 04  00 05 00 34 80 03 1D 17  ...........4....
07A0: 37 80 03 1E 17 22 80 03  1F 17 0A 80 08 1D 17 02  7...."..........
07B0: 80 08 1E 17 12 80 07 1F  17 0E 80 28 10 B1 11 0F  ...........(....
07C0: 01 03 BB 0F 80 B1 11 0F  01 B1 11 0F 01 73 74 61  .............sta
07D0: 74 02 80 1C 27 80 03 04  17 33 80 03 05 17 22 80  t...'....3....".
07E0: 03 06 17 0A 80 28 10 B7  11 0F 01 02 1C 13 80 03  .....(..........
07F0: 04 17 38 80 03 05 17 22  80 03 06 17 0A 80 28 10  ..8...."......(.
0800: B9 11 0F 01 02 1C 26 80  03 04 17 39 80 03 05 17  ......&....9....
0810: 22 80 03 06 17 0A 80 28  10 BA 11 0F 01 02 1C 3A  "......(.......:
0820: 80 03 04 17 06 80 03 05  17 22 80 03 06 17 0A 80  ........."......
0830: 07 04 17 1D 80 08 05 17  1D 80 28 10 B2 11 0F 01  ..........(.....
0840: 03 1C 27 80 08 04 17 15  80 07 05 17 15 80 28 10  ..'...........(.
0850: B3 11 0F 01 03 1C 13 80  07 04 17 28 80 08 05 17  ...........(....
0860: 28 80 28 10 B4 11 0F 01  03 1C 3B 80 03 07 17 02  (.(.......;.....
0870: 80 28 10 B5 11 0F 01 03  1C 27 80 03 07 17 34 80  .(.......'....4.
0880: 28 10 B5 11 0F 01 03 1C  35 80 03 04 17 06 80 03  (.......5.......
0890: 05 17 22 80 03 06 17 0A  80 28 10 B5 11 0F 01 02  .."......(......
08A0: 1C 29 80 BB 0F 80 B1 11  0F 01 B1 11 0F 01 73 74  .)............st
08B0: 6F 70 02 80 59 05 B1 11  0F 01 00 03 04 17 06 80  op..Y...........
08C0: 03 05 17 2C 80 03 06 17  0A 80 28 10 B8 11 0F 01  ...,......(.....
08D0: 02 2A 10 B8 11 0F 01 03  07 17 02 80 28 10 B8 11  .*..........(...
08E0: 0F 01 03 2A 10 B8 11 0F  01 1C 25 80 59 05 B0 11  ...*......%.Y...
08F0: 0F 01 01 03 03 00 06 80  03 04 00 2C 80 03 05 00  ...........,....
0900: 0A 80 08 03 00 12 80 07  05 00 0E 80 BA B0 11 0F  ................
0910: 01 03 00 04 00 05 00 02  80 BB 36 80 B0 11 0F 01  ..........6.....
0920: B0 11 0F 01 6D 61 69 6E  02 80 5B 16 80 B8 11 0F  ....main..[.....
0930: 01 B8 11 0F 01 73 75 72  31 1C 2B 80 03 07 17 34  .....sur1.+....4
0940: 80 28 10 B8 11 0F 01 03  2A 10 B8 11 0F 01 1C 3A  .(......*......:
0950: 80 03 04 17 06 80 03 05  17 22 80 03 06 17 0A 80  ........."......
0960: 28 10 B8 11 0F 01 02 59  05 B0 11 0F 01 00 1C 29  (......Y.......)
0970: 80 03 0B 17 3C 80 03 0C  17 3D 80 03 0D 17 0A 80  ....<....=......
0980: 27 10 F0 FF FF 7F 76 4A  F0 FF FF 7F F0 FF FF 7F  '.....vJ........
0990: 52 1E 80 F8 FF FF 7F F8  FF FF 7F 73 32 30 32 45  R..........s202E
09A0: 1E 80 F8 FF FF 7F F8 FF  FF 7F 73 32 30 33 02 80  ..........s203..
09B0: 4E 01 B5 11 0F 01 4E 01  B6 11 0F 01 4E 01 B7 11  N.....N.....N...
09C0: 0F 01 4E 01 B8 11 0F 01  4E 01 B9 11 0F 01 4E 01  ..N.....N.....N.
09D0: BA 11 0F 01 4E 01 B2 11  0F 01 4E 01 B3 11 0F 01  ....N.....N.....
09E0: 4E 01 B4 11 0F 01 2A 10  F0 FF FF 7F 4A F0 FF FF  N.....*.....J...
09F0: 7F AD 11 0F 01 6F 76 F0  FF FF 7F 4A AD 11 0F 01  .....ov....J....
0A00: F0 FF FF 7F 2B AD 11 0F  01 3E 80 23 02 01 00 3F  ....+....>.#...?
0A10: 80 00 1F 0A 2B AD 11 0F  01 40 80 23 01 27 0A 2B  ....+....@.#.'.+
0A20: AD 11 0F 01 41 80 23 5C  00 42 80 5C 01 42 80 59  ....A.#\.B.\.B.Y
0A30: 05 AD 11 0F 01 01 03 00  17 43 80 03 01 17 44 80  .........C....D.
0A40: 03 02 17 45 80 27 10 AD  11 0F 01 03 2A 10 AD 11  ...E.'......*...
0A50: 0F 01 BA AD 11 0F 01 46  80 2C 80 47 80 02 80 52  .......F.,.G...R
0A60: 1E 80 F8 FF FF 7F F8 FF  FF 7F 73 32 30 33 45 1E  ..........s203E.
0A70: 80 F8 FF FF 7F F8 FF FF  7F 73 32 30 34 02 80 4E  .........s204..N
0A80: 01 F0 FF FF 7F 2A 10 AD  11 0F 01 4A AD 11 0F 01  .....*.....J....
0A90: F0 FF FF 7F 02 01 00 3F  80 00 CC 0A 03 02 10 02  .......?........
0AA0: 00 2B AD 11 0F 01 48 80  23 2B AD 11 0F 01 49 80  .+....H.#+....I.
0AB0: 23 2B AD 11 0F 01 4A 80  23 2B AD 11 0F 01 4B 80  #+....J.#+....K.
0AC0: 23 2B AD 11 0F 01 4C 80  23 01 F9 0A 03 02 10 02  #+....L.#.......
0AD0: 00 2B AD 11 0F 01 4D 80  23 2B AD 11 0F 01 4E 80  .+....M.#+....N.
0AE0: 23 2B AD 11 0F 01 4F 80  23 2B AD 11 0F 01 50 80  #+....O.#+....P.
0AF0: 23 2B AD 11 0F 01 51 80  23 4E 00 F0 FF FF 7F 52  #+....Q.#N.....R
0B00: 1E 80 F8 FF FF 7F F8 FF  FF 7F 73 32 30 34 45 1E  ..........s204E.
0B10: 80 F8 FF FF 7F F8 FF FF  7F 73 32 30 35 02 80 2B  .........s205..+
0B20: AD 11 0F 01 52 80 23 2B  AD 11 0F 01 53 80 23 2B  ....R.#+....S.#+
0B30: AD 11 0F 01 54 80 23 52  1E 80 F8 FF FF 7F F8 FF  ....T.#R........
0B40: FF 7F 73 32 30 35 02 87  7F 27 80 80 62 0B 45 1E  ..s205...'..b.E.
0B50: 80 F8 FF FF 7F F8 FF FF  7F 73 32 30 37 02 80 01  .........s207...
0B60: 8F 0B 02 87 7F 55 80 80  7E 0B 45 1E 80 F8 FF FF  .....U..~.E.....
0B70: 7F F8 FF FF 7F 73 32 30  37 02 80 01 8F 0B 45 1E  .....s207.....E.
0B80: 80 F8 FF FF 7F F8 FF FF  7F 73 32 30 36 02 80 2B  .........s206..+
0B90: AD 11 0F 01 56 80 23 2B  AD 11 0F 01 57 80 23 02  ....V.#+....W.#.
0BA0: 87 7F 27 80 80 B9 0B 52  1E 80 F8 FF FF 7F F8 FF  ..'....R........
0BB0: FF 7F 73 32 30 37 01 E2  0B 02 87 7F 55 80 80 D3  ..s207......U...
0BC0: 0B 52 1E 80 F8 FF FF 7F  F8 FF FF 7F 73 32 30 37  .R..........s207
0BD0: 01 E2 0B 52 1E 80 F8 FF  FF 7F F8 FF FF 7F 73 32  ...R..........s2
0BE0: 30 36 45 1E 80 F8 FF FF  7F F8 FF FF 7F 73 32 30  06E..........s20
0BF0: 38 02 80 2B AD 11 0F 01  58 80 23 2B AD 11 0F 01  8..+....X.#+....
0C00: 59 80 23 01 39 0D BA AD  11 0F 01 2F 80 30 80 0A  Y.#.9....../.0..
0C10: 80 31 80 BA F0 FF FF 7F  3C 80 3D 80 0A 80 5A 80  .1......<.=...Z.
0C20: 4A AD 11 0F 01 F0 FF FF  7F 4A F0 FF FF 7F AD 11  J........J......
0C30: 0F 01 80 AD 11 0F 01 80  F0 FF FF 7F 92 01 8B 10  ................
0C40: 0F 01 92 01 AB 10 0F 01  92 01 B4 10 0F 01 92 01  ................
0C50: B3 10 0F 01 92 01 F7 10  0F 01 92 01 8A 10 0F 01  ................
0C60: 92 01 A4 10 0F 01 92 01  A5 10 0F 01 92 01 13 10  ................
0C70: 0F 01 92 01 F8 10 0F 01  92 01 E4 10 0F 01 92 01  ................
0C80: 08 11 0F 01 45 1E 80 F8  FF FF 7F F8 FF FF 7F 73  ....E..........s
0C90: 32 7A 33 02 80 5C 00 42  80 5C 01 42 80 9A 45 01  2z3..\.B.\.B..E.
0CA0: 80 F0 FF FF 7F F0 FF FF  7F 66 64 69 31 02 80 2B  .........fdi1..+
0CB0: AD 11 0F 01 3E 80 23 02  01 00 3F 80 00 CA 0C 2B  ....>.#...?....+
0CC0: AD 11 0F 01 40 80 23 01  D2 0C 2B AD 11 0F 01 5B  ....@.#...+....[
0CD0: 80 23 59 05 AD 11 0F 01  01 03 00 17 43 80 03 01  .#Y.........C...
0CE0: 17 44 80 03 02 17 45 80  27 10 AD 11 0F 01 03 2A  .D....E.'......*
0CF0: 10 AD 11 0F 01 BA AD 11  0F 01 46 80 2C 80 47 80  ..........F.,.G.
0D00: 02 80 52 1E 80 F8 FF FF  7F F8 FF FF 7F 73 32 7A  ..R..........s2z
0D10: 33 45 1E 80 F8 FF FF 7F  F8 FF FF 7F 73 32 30 38  3E..........s208
0D20: 02 80 2A 10 AD 11 0F 01  4A AD 11 0F 01 F0 FF FF  ..*.....J.......
0D30: 7F 2B AD 11 0F 01 5C 80  23 24 5D 80 02 80 02 80  .+....\.#$].....
0D40: 25 02 00 10 02 80 00 7F  0F 2B AD 11 0F 01 5E 80  %........+....^.
0D50: 23 52 1E 80 F8 FF FF 7F  F8 FF FF 7F 73 32 30 38  #R..........s208
0D60: 45 1E 80 F8 FF FF 7F F8  FF FF 7F 73 32 30 39 02  E..........s209.
0D70: 80 03 02 10 02 00 2B AD  11 0F 01 5F 80 23 2B AD  ......+...._.#+.
0D80: 11 0F 01 60 80 23 2B AD  11 0F 01 61 80 23 2B AD  ...`.#+....a.#+.
0D90: 11 0F 01 62 80 23 52 1E  80 F8 FF FF 7F F8 FF FF  ...b.#R.........
0DA0: 7F 73 32 30 39 45 1E 80  F8 FF FF 7F F8 FF FF 7F  .s209E..........
0DB0: 73 32 31 30 02 80 2B AD  11 0F 01 63 80 23 2B AD  s210..+....c.#+.
0DC0: 11 0F 01 64 80 23 2B AD  11 0F 01 65 80 23 2B AD  ...d.#+....e.#+.
0DD0: 11 0F 01 66 80 23 2B AD  11 0F 01 67 80 23 24 68  ...f.#+....g.#$h
0DE0: 80 02 80 02 80 25 02 00  10 02 80 00 0D 0E 2B AD  .....%........+.
0DF0: 11 0F 01 69 80 23 03 01  10 3F 80 73 6A 80 AD 11  ...i.#...?.sj...
0E00: 0F 01 F0 FF FF 7F 1C 6B  80 30 01 25 0E 02 00 10  .......k.0.%....
0E10: 3F 80 00 25 0E 2B AD 11  0F 01 6C 80 23 03 01 10  ?..%.+....l.#...
0E20: 00 80 01 25 0E 45 01 80  F0 FF FF 7F F0 FF FF 7F  ...%.E..........
0E30: 66 64 6F 31 02 80 55 01  80 F0 FF FF 7F F0 FF FF  fdo1..U.........
0E40: 7F 66 64 6F 31 4E 01 F0  FF FF 7F 52 1E 80 F8 FF  .fdo1N.....R....
0E50: FF 7F F8 FF FF 7F 73 32  31 30 2F 00 AF 11 0F 01  ......s210/.....
0E60: 4E 00 AF 11 0F 01 BA AF  11 0F 01 6D 80 6E 80 6F  N..........m.n.o
0E70: 80 70 80 80 AF 11 0F 01  5C 00 29 80 5C 01 29 80  .p......\.).\.).
0E80: 9A 45 1E 80 F8 FF FF 7F  F8 FF FF 7F 73 32 31 31  .E..........s211
0E90: 02 80 03 19 17 71 80 03  1A 17 6E 80 03 1B 17 6F  .....q....n....o
0EA0: 80 27 10 AF 11 0F 01 03  45 01 80 F0 FF FF 7F F0  .'......E.......
0EB0: FF FF 7F 66 64 69 31 02  80 1C 72 80 52 1E 80 F8  ...fdi1...r.R...
0EC0: FF FF 7F F8 FF FF 7F 73  32 31 31 45 1E 80 F8 FF  .......s211E....
0ED0: FF 7F F8 FF FF 7F 73 32  31 32 02 80 2A 10 AF 11  ......s212..*...
0EE0: 0F 01 1C 20 80 52 1E 80  F8 FF FF 7F F8 FF FF 7F  ... .R..........
0EF0: 73 32 31 32 45 1E 80 F8  FF FF 7F F8 FF FF 7F 73  s212E..........s
0F00: 32 31 33 02 80 1C 2B 80  5B 73 80 AF 11 0F 01 AF  213...+.[s......
0F10: 11 0F 01 74 6C 6B 30 03  02 10 02 00 03 03 10 74  ...tlk0........t
0F20: 80 2B AF 11 0F 01 75 80  23 2B AF 11 0F 01 76 80  .+....u.#+....v.
0F30: 23 5B 73 80 AF 11 0F 01  AF 11 0F 01 74 6C 6B 31  #[s.........tlk1
0F40: 03 19 17 77 80 03 1A 17  6E 80 03 1B 17 78 80 27  ...w....n....x.'
0F50: 10 AF 11 0F 01 03 1C 25  80 52 1E 80 F8 FF FF 7F  .......%.R......
0F60: F8 FF FF 7F 73 32 31 33  45 1E 80 F8 FF FF 7F F8  ....s213E.......
0F70: FF FF 7F 73 32 31 34 02  80 1C 29 80 01 B4 0F 02  ...s214...).....
0F80: 00 10 3F 80 00 B4 0F 02  00 00 02 80 00 97 0F 03  ..?.............
0F90: 02 10 3F 80 01 9C 0F 03  02 10 02 80 2B AD 11 0F  ..?.........+...
0FA0: 01 79 80 23 2B AD 11 0F  01 7A 80 23 03 01 10 02  .y.#+....z.#....
0FB0: 80 01 B4 0F 45 01 80 F0  FF FF 7F F0 FF FF 7F 66  ....E..........f
0FC0: 64 6F 31 02 80 55 01 80  F0 FF FF 7F F0 FF FF 7F  do1..U..........
0FD0: 66 64 6F 31 02 01 10 3F  80 01 09 10 5C 00 7B 80  fdo1...?....\.{.
0FE0: 5C 01 7B 80 52 21 80 F8  FF FF 7F F8 FF FF 7F 73  \.{.R!.........s
0FF0: 32 31 34 46 00 45 01 80  F0 FF FF 7F F0 FF FF 7F  214F.E..........
1000: 66 64 69 31 02 80 01 18  10 52 1E 80 F8 FF FF 7F  fdi1.....R......
1010: F8 FF FF 7F 73 32 30 38  21 00                    ....s208!.      
```

#### Opcodes

```
  0: 0x0001 [0x03] ExtData[1]->WorkLocal[0] = Work_Zone[2]
  1: 0x0006 [0x03] ExtData[1]->WorkLocal[1] = Work_Zone[3]
  2: 0x000B [0x03] ExtData[1]->WorkLocal[2] = 2*
  3: 0x0010 [0x42] SET_CLI_EVENT_CANCEL_DATA()
  4: 0x0011 [0x45] LOAD_SCHEDULED_TASK: Load scheduler "fdo1" with entities [LocalPlayer, LocalPlayer], work=[200*, 0*]
  5: 0x0022 [0x55] WAIT_LOAD_SCHEDULER: Wait for scheduler "fdo1" with entities [LocalPlayer, LocalPlayer], work=200*
  6: 0x0031 [0x46] CAMERA_CONTROL: Disable user control
  7: 0x0033 [0x38] SET_CLIENT_EVENT_MODE(mode=19*)
  8: 0x0036 [0x92] Ultra Slime (ID: 17764781/0x010F11AD)->Render.Flags3 ^= 0x01
  9: 0x003C [0x94] Ultra Slime (ID: 17764781/0x010F11AD)->Render.Flags3 ^= 0x01
 10: 0x0042 [0x94] LocalPlayer->Render.Flags3 ^= 0x01
 11: 0x0048 [0x94] Unnamed NPC (ID: 17764784/0x010F11B0)->Render.Flags3 ^= 0x01
 12: 0x004E [0x59] UPDATE_ENTITY_DATA: Unnamed NPC (ID: 17764784/0x010F11B0)->Render.Flags0 |= 0x200000
 13: 0x0055 [0x02] IF !(ExtData[1]->WorkLocal[0] == 0*) GOTO 0x0C06
 14: 0x005D [0xBA] SET_ENTITY_POSITION(entity_id=Ultra Slime (ID: 17764781/0x010F11AD), pos_x=24.000*, pos_z=-43.500*, pos_y=2.000*, direction=157.4°*)
 15: 0x006A [0xBA] SET_ENTITY_POSITION(entity_id=LocalPlayer, pos_x=-0.300*, pos_z=-65.500*, pos_y=3.000*, direction=377476196.8°*)
 16: 0x0077 [0x4A] LocalPlayer looks at Ultra Slime (ID: 17764781/0x010F11AD)
 17: 0x0080 [0x80] LOAD_WAIT(entity=Ultra Slime (ID: 17764781/0x010F11AD))
 18: 0x0085 [0x80] LOAD_WAIT(entity=LocalPlayer)
 19: 0x008A [0x2F] Unnamed NPC (ID: 17764786/0x010F11B2)->Render.Flags0 &= ~0x80000 // Bit 19
 20: 0x0090 [0x2F] Unnamed NPC (ID: 17764787/0x010F11B3)->Render.Flags0 &= ~0x80000 // Bit 19
 21: 0x0096 [0x2F] Unnamed NPC (ID: 17764788/0x010F11B4)->Render.Flags0 &= ~0x80000 // Bit 19
 22: 0x009C [0x2F] Unnamed NPC (ID: 17764784/0x010F11B0)->Render.Flags0 &= ~0x80000 // Bit 19
 23: 0x00A2 [0x4E] SET_ENTITY_HIDE_FLAG: Show Unnamed NPC (ID: 17764784/0x010F11B0)
 24: 0x00A8 [0x03] ExtData[1]->WorkLocal[3] = 24000*
 25: 0x00AD [0x03] ExtData[1]->WorkLocal[4] = 4294923796*
 26: 0x00B2 [0x03] ExtData[1]->WorkLocal[5] = 2000*
 27: 0x00B7 [0x07] ExtData[1]->WorkLocal[3] += 1400*
 28: 0x00BC [0x07] ExtData[1]->WorkLocal[4] += 600*
 29: 0x00C1 [0x07] ExtData[1]->WorkLocal[5] += 400*
 30: 0x00C6 [0xBA] SET_ENTITY_POSITION(entity_id=Unnamed NPC (ID: 17764784/0x010F11B0), pos_x=ExtData[1]->WorkLocal[3], pos_z=ExtData[1]->WorkLocal[4], pos_y=ExtData[1]->WorkLocal[5], direction=157.4°*)
 31: 0x00D3 [0xBB] LOAD_EVENT_SCHEDULER_ALT: Load scheduler "stat" with entities [Unnamed NPC (ID: 17764784/0x010F11B0), Unnamed NPC (ID: 17764784/0x010F11B0)], work=[23*, 0*]
 32: 0x00E4 [0x80] LOAD_WAIT(entity=Unnamed NPC (ID: 17764784/0x010F11B0))
 33: 0x00E9 [0x92] Phub Bayzarahn (ID: 17764491/0x010F108B)->Render.Flags3 ^= 0x01
 34: 0x00EF [0x92] Jack of Spades (ID: 17764523/0x010F10AB)->Render.Flags3 ^= 0x01
 35: 0x00F5 [0x92] Gottah Maporushanoh (ID: 17764532/0x010F10B4)->Render.Flags3 ^= 0x01
 36: 0x00FB [0x92] Soni-Muni (ID: 17764531/0x010F10B3)->Render.Flags3 ^= 0x01
 37: 0x0101 [0x92] Zahsa Syalmhaia (ID: 17764599/0x010F10F7)->Render.Flags3 ^= 0x01
 38: 0x0107 [0x92] Tosh Hohnay (ID: 17764490/0x010F108A)->Render.Flags3 ^= 0x01
 39: 0x010D [0x92] Ten of Spades (ID: 17764516/0x010F10A4)->Render.Flags3 ^= 0x01
 40: 0x0113 [0x92] Nine of Spades (ID: 17764517/0x010F10A5)->Render.Flags3 ^= 0x01
 41: 0x0119 [0x92] Miiri-Wohri (ID: 17764371/0x010F1013)->Render.Flags3 ^= 0x01
 42: 0x011F [0x92] Selele (ID: 17764600/0x010F10F8)->Render.Flags3 ^= 0x01
 43: 0x0125 [0x92] Bozack (ID: 17764580/0x010F10E4)->Render.Flags3 ^= 0x01
 44: 0x012B [0x92] Sevah Kummekihn (ID: 17764616/0x010F1108)->Render.Flags3 ^= 0x01
 45: 0x0131 [0x2F] Unnamed NPC (ID: 17764789/0x010F11B5)->Render.Flags0 &= ~0x80000 // Bit 19
 46: 0x0137 [0x2F] Unnamed NPC (ID: 17764790/0x010F11B6)->Render.Flags0 &= ~0x80000 // Bit 19
 47: 0x013D [0x2F] Unnamed NPC (ID: 17764791/0x010F11B7)->Render.Flags0 &= ~0x80000 // Bit 19
 48: 0x0143 [0x2F] Unnamed NPC (ID: 17764792/0x010F11B8)->Render.Flags0 &= ~0x80000 // Bit 19
 49: 0x0149 [0x2F] Unnamed NPC (ID: 17764793/0x010F11B9)->Render.Flags0 &= ~0x80000 // Bit 19
 50: 0x014F [0x2F] Unnamed NPC (ID: 17764794/0x010F11BA)->Render.Flags0 &= ~0x80000 // Bit 19
 51: 0x0155 [0x4E] SET_ENTITY_HIDE_FLAG: Show Unnamed NPC (ID: 17764789/0x010F11B5)
 52: 0x015B [0x4E] SET_ENTITY_HIDE_FLAG: Show Unnamed NPC (ID: 17764790/0x010F11B6)
 53: 0x0161 [0x4E] SET_ENTITY_HIDE_FLAG: Show Unnamed NPC (ID: 17764791/0x010F11B7)
 54: 0x0167 [0x4E] SET_ENTITY_HIDE_FLAG: Show Unnamed NPC (ID: 17764792/0x010F11B8)
 55: 0x016D [0x4E] SET_ENTITY_HIDE_FLAG: Show Unnamed NPC (ID: 17764793/0x010F11B9)
 56: 0x0173 [0x4E] SET_ENTITY_HIDE_FLAG: Show Unnamed NPC (ID: 17764794/0x010F11BA)
 57: 0x0179 [0x94] Unnamed NPC (ID: 17764789/0x010F11B5)->Render.Flags3 ^= 0x01
 58: 0x017F [0x94] Unnamed NPC (ID: 17764790/0x010F11B6)->Render.Flags3 ^= 0x01
 59: 0x0185 [0x94] Unnamed NPC (ID: 17764791/0x010F11B7)->Render.Flags3 ^= 0x01
 60: 0x018B [0x94] Unnamed NPC (ID: 17764792/0x010F11B8)->Render.Flags3 ^= 0x01
 61: 0x0191 [0x94] Unnamed NPC (ID: 17764793/0x010F11B9)->Render.Flags3 ^= 0x01
 62: 0x0197 [0x94] Unnamed NPC (ID: 17764794/0x010F11BA)->Render.Flags3 ^= 0x01
 63: 0x019D [0x03] ExtData[1]->WorkLocal[3] = 24000*
 64: 0x01A2 [0x07] ExtData[1]->WorkLocal[3] += 2000*
 65: 0x01A7 [0x03] ExtData[1]->WorkLocal[4] = 4294923796*
 66: 0x01AC [0x07] ExtData[1]->WorkLocal[4] += 1000*
 67: 0x01B1 [0x03] ExtData[1]->WorkLocal[5] = 2000*
 68: 0x01B6 [0x03] ExtData[1]->WorkLocal[6] = 1791*
 69: 0x01BB [0x08] ExtData[1]->WorkLocal[5] -= 14*
 70: 0x01C0 [0xBA] SET_ENTITY_POSITION(entity_id=Unnamed NPC (ID: 17764789/0x010F11B5), pos_x=ExtData[1]->WorkLocal[3], pos_z=ExtData[1]->WorkLocal[4], pos_y=ExtData[1]->WorkLocal[5], direction=ExtData[1]->WorkLocal[6])
 71: 0x01CD [0x07] ExtData[1]->WorkLocal[3] += 1500*
 72: 0x01D2 [0x08] ExtData[1]->WorkLocal[4] -= 0*
 73: 0x01D7 [0x08] ExtData[1]->WorkLocal[5] -= 15*
 74: 0x01DC [0xBA] SET_ENTITY_POSITION(entity_id=Unnamed NPC (ID: 17764790/0x010F11B6), pos_x=ExtData[1]->WorkLocal[3], pos_z=ExtData[1]->WorkLocal[4], pos_y=ExtData[1]->WorkLocal[5], direction=ExtData[1]->WorkLocal[6])
 75: 0x01E9 [0x07] ExtData[1]->WorkLocal[3] += 1000*
 76: 0x01EE [0x07] ExtData[1]->WorkLocal[4] += 2000*
 77: 0x01F3 [0x07] ExtData[1]->WorkLocal[5] += 29*
 78: 0x01F8 [0xBA] SET_ENTITY_POSITION(entity_id=Unnamed NPC (ID: 17764791/0x010F11B7), pos_x=ExtData[1]->WorkLocal[3], pos_z=ExtData[1]->WorkLocal[4], pos_y=ExtData[1]->WorkLocal[5], direction=ExtData[1]->WorkLocal[6])
 79: 0x0205 [0x07] ExtData[1]->WorkLocal[3] += 1500*
 80: 0x020A [0x08] ExtData[1]->WorkLocal[4] -= 0*
 81: 0x020F [0x07] ExtData[1]->WorkLocal[5] += 0*
 82: 0x0214 [0xBA] SET_ENTITY_POSITION(entity_id=Unnamed NPC (ID: 17764793/0x010F11B9), pos_x=ExtData[1]->WorkLocal[3], pos_z=ExtData[1]->WorkLocal[4], pos_y=ExtData[1]->WorkLocal[5], direction=ExtData[1]->WorkLocal[6])
 83: 0x0221 [0x07] ExtData[1]->WorkLocal[3] += 800*
 84: 0x0226 [0x08] ExtData[1]->WorkLocal[4] -= 1000*
 85: 0x022B [0x08] ExtData[1]->WorkLocal[5] -= 85*
 86: 0x0230 [0xBA] SET_ENTITY_POSITION(entity_id=Unnamed NPC (ID: 17764794/0x010F11BA), pos_x=ExtData[1]->WorkLocal[3], pos_z=ExtData[1]->WorkLocal[4], pos_y=ExtData[1]->WorkLocal[5], direction=ExtData[1]->WorkLocal[6])
 87: 0x023D [0x07] ExtData[1]->WorkLocal[3] += 7700*
 88: 0x0242 [0x07] ExtData[1]->WorkLocal[4] += 3200*
 89: 0x0247 [0x08] ExtData[1]->WorkLocal[5] -= 445*
 90: 0x024C [0xBA] SET_ENTITY_POSITION(entity_id=Unnamed NPC (ID: 17764792/0x010F11B8), pos_x=ExtData[1]->WorkLocal[3], pos_z=ExtData[1]->WorkLocal[4], pos_y=ExtData[1]->WorkLocal[5], direction=ExtData[1]->WorkLocal[6])
 91: 0x0259 [0x80] LOAD_WAIT(entity=Unnamed NPC (ID: 17764789/0x010F11B5))
 92: 0x025E [0x80] LOAD_WAIT(entity=Unnamed NPC (ID: 17764790/0x010F11B6))
 93: 0x0263 [0x80] LOAD_WAIT(entity=Unnamed NPC (ID: 17764791/0x010F11B7))
 94: 0x0268 [0x80] LOAD_WAIT(entity=Unnamed NPC (ID: 17764792/0x010F11B8))
 95: 0x026D [0x80] LOAD_WAIT(entity=Unnamed NPC (ID: 17764793/0x010F11B9))
 96: 0x0272 [0x80] LOAD_WAIT(entity=Unnamed NPC (ID: 17764794/0x010F11BA))
 97: 0x0277 [0x5C] MUSIC_CONTROL: Set Idle (Day) music to song 136*
 98: 0x027B [0x5C] MUSIC_CONTROL: Set Idle (Night) music to song 136*
 99: 0x027F [0x9A] WAIT_MUSIC_SERVER()
100: 0x0280 [0x59] UPDATE_ENTITY_DATA: Ultra Slime (ID: 17764781/0x010F11AD)->Render.Flags0 &= ~0x200000
101: 0x0287 [0x03] Work_Zone_1700[0] = 4000*
102: 0x028C [0x03] Work_Zone_1700[1] = 4294914796*
103: 0x0291 [0x03] Work_Zone_1700[2] = 2000*
104: 0x0296 [0x27] REQ_SET(priority=0x10, entity_id=Ultra Slime (ID: 17764781/0x010F11AD), tag_num=0x03)
105: 0x029D [0x03] Work_Zone_1700[29] = 4000*
106: 0x02A2 [0x03] Work_Zone_1700[30] = 4294914796*
107: 0x02A7 [0x03] Work_Zone_1700[31] = 2000*
108: 0x02AC [0x07] Work_Zone_1700[29] += 1400*
109: 0x02B1 [0x07] Work_Zone_1700[30] += 600*
110: 0x02B6 [0x07] Work_Zone_1700[31] += 400*
111: 0x02BB [0x27] REQ_SET(priority=0x10, entity_id=Unnamed NPC (ID: 17764784/0x010F11B0), tag_num=0x03)
112: 0x02C2 [0x03] Work_Zone_1700[4] = 4000*
113: 0x02C7 [0x08] Work_Zone_1700[4] -= 500*
114: 0x02CC [0x03] Work_Zone_1700[5] = 4294914796*
115: 0x02D1 [0x03] Work_Zone_1700[6] = 2000*
116: 0x02D6 [0x28] REQ_SET_WITH_CONDITIONS(priority=0x10, target_entity=Unnamed NPC (ID: 17764789/0x010F11B5), tag_num=0x02)
117: 0x02DD [0x03] Work_Zone_1700[4] = 4000*
118: 0x02E2 [0x07] Work_Zone_1700[4] += 1000*
119: 0x02E7 [0x03] Work_Zone_1700[5] = 4294914796*
120: 0x02EC [0x28] REQ_SET_WITH_CONDITIONS(priority=0x10, target_entity=Unnamed NPC (ID: 17764790/0x010F11B6), tag_num=0x02)
121: 0x02F3 [0x03] Work_Zone_1700[4] = 4000*
122: 0x02F8 [0x08] Work_Zone_1700[4] -= 1000*
123: 0x02FD [0x03] Work_Zone_1700[5] = 4294914796*
124: 0x0302 [0x28] REQ_SET_WITH_CONDITIONS(priority=0x10, target_entity=Unnamed NPC (ID: 17764791/0x010F11B7), tag_num=0x02)
125: 0x0309 [0x03] Work_Zone_1700[4] = 4000*
126: 0x030E [0x08] Work_Zone_1700[4] -= 800*
127: 0x0313 [0x03] Work_Zone_1700[5] = 4294914796*
128: 0x0318 [0x28] REQ_SET_WITH_CONDITIONS(priority=0x10, target_entity=Unnamed NPC (ID: 17764793/0x010F11B9), tag_num=0x02)
129: 0x031F [0x03] Work_Zone_1700[4] = 4000*
130: 0x0324 [0x07] Work_Zone_1700[4] += 500*
131: 0x0329 [0x03] Work_Zone_1700[5] = 4294914796*
132: 0x032E [0x28] REQ_SET_WITH_CONDITIONS(priority=0x10, target_entity=Unnamed NPC (ID: 17764794/0x010F11BA), tag_num=0x02)
133: 0x0335 [0x03] Work_Zone_1700[4] = 4000*
134: 0x033A [0x03] Work_Zone_1700[5] = 4294914796*
135: 0x033F [0x28] REQ_SET_WITH_CONDITIONS(priority=0x10, target_entity=Unnamed NPC (ID: 17764792/0x010F11B8), tag_num=0x02)
136: 0x0346 [0x1C] WAIT(15* ticks)
137: 0x0349 [0x45] LOAD_SCHEDULED_TASK: Load scheduler "s200" with entities [EventEntity, EventEntity], work=[639*, 0*]
138: 0x035A [0x45] LOAD_SCHEDULED_TASK: Load scheduler "fdi1" with entities [LocalPlayer, LocalPlayer], work=[200*, 0*]
139: 0x036B [0x1C] WAIT(180* ticks)
140: 0x036E [0x1C] WAIT(60* ticks)
141: 0x0371 [0x45] LOAD_SCHEDULED_TASK: Load scheduler "fdo1" with entities [LocalPlayer, LocalPlayer], work=[200*, 0*]
142: 0x0382 [0x55] WAIT_LOAD_SCHEDULER: Wait for scheduler "fdo1" with entities [LocalPlayer, LocalPlayer], work=200*
143: 0x0391 [0x52] END_LOAD_SCHEDULER: End scheduler "s200" with entities [EventEntity, EventEntity], work=639*
144: 0x03A0 [0x45] LOAD_SCHEDULED_TASK: Load scheduler "boff" with entities [EventEntity, EventEntity], work=[637*, 0*]
145: 0x03B1 [0x55] WAIT_LOAD_SCHEDULER: Wait for scheduler "boff" with entities [EventEntity, EventEntity], work=637*
146: 0x03C0 [0x45] LOAD_SCHEDULED_TASK: Load scheduler "fdi1" with entities [LocalPlayer, LocalPlayer], work=[200*, 0*]
147: 0x03D1 [0x45] LOAD_SCHEDULED_TASK: Load scheduler "s201" with entities [EventEntity, EventEntity], work=[639*, 0*]
148: 0x03E2 [0x7A] VM_CONTROL: Reset VM for Ultra Slime (ID: 17764781/0x010F11AD)
149: 0x03E8 [0xBA] SET_ENTITY_POSITION(entity_id=Ultra Slime (ID: 17764781/0x010F11AD), pos_x=2.000*, pos_z=-54.000*, pos_y=3.000*, direction=89.9°*)
150: 0x03F5 [0xBB] LOAD_EVENT_SCHEDULER_ALT: Load scheduler "stop" with entities [Unnamed NPC (ID: 17764784/0x010F11B0), Unnamed NPC (ID: 17764784/0x010F11B0)], work=[23*, 0*]
151: 0x0406 [0x7A] VM_CONTROL: Reset VM for Unnamed NPC (ID: 17764789/0x010F11B5)
152: 0x040C [0x7A] VM_CONTROL: Reset VM for Unnamed NPC (ID: 17764790/0x010F11B6)
153: 0x0412 [0x7A] VM_CONTROL: Reset VM for Unnamed NPC (ID: 17764791/0x010F11B7)
154: 0x0418 [0x7A] VM_CONTROL: Reset VM for Unnamed NPC (ID: 17764792/0x010F11B8)
155: 0x041E [0x7A] VM_CONTROL: Reset VM for Unnamed NPC (ID: 17764793/0x010F11B9)
156: 0x0424 [0x7A] VM_CONTROL: Reset VM for Unnamed NPC (ID: 17764794/0x010F11BA)
157: 0x042A [0xBA] SET_ENTITY_POSITION(entity_id=Unnamed NPC (ID: 17764789/0x010F11B5), pos_x=2.000*, pos_z=-54.000*, pos_y=3.000*, direction=89.9°*)
158: 0x0437 [0xBA] SET_ENTITY_POSITION(entity_id=Unnamed NPC (ID: 17764790/0x010F11B6), pos_x=2.000*, pos_z=-54.000*, pos_y=3.000*, direction=89.9°*)
159: 0x0444 [0xBA] SET_ENTITY_POSITION(entity_id=Unnamed NPC (ID: 17764791/0x010F11B7), pos_x=2.000*, pos_z=-54.000*, pos_y=3.000*, direction=89.9°*)
160: 0x0451 [0xBA] SET_ENTITY_POSITION(entity_id=Unnamed NPC (ID: 17764792/0x010F11B8), pos_x=2.000*, pos_z=-54.000*, pos_y=3.000*, direction=89.9°*)
161: 0x045E [0xBA] SET_ENTITY_POSITION(entity_id=Unnamed NPC (ID: 17764793/0x010F11B9), pos_x=2.000*, pos_z=-54.000*, pos_y=3.000*, direction=89.9°*)
162: 0x046B [0xBA] SET_ENTITY_POSITION(entity_id=Unnamed NPC (ID: 17764794/0x010F11BA), pos_x=2.000*, pos_z=-54.000*, pos_y=3.000*, direction=89.9°*)
163: 0x0478 [0x03] Work_Zone_1700[0] = 2000*
164: 0x047D [0x03] Work_Zone_1700[1] = 4294887296*
165: 0x0482 [0x03] Work_Zone_1700[2] = 3000*
166: 0x0487 [0x27] REQ_SET(priority=0x10, entity_id=Ultra Slime (ID: 17764781/0x010F11AD), tag_num=0x03)
167: 0x048E [0x1C] WAIT(30* ticks)
168: 0x0491 [0x03] Work_Zone_1700[4] = 2000*
169: 0x0496 [0x03] Work_Zone_1700[5] = 4294887296*
170: 0x049B [0x03] Work_Zone_1700[6] = 3000*
171: 0x04A0 [0x27] REQ_SET(priority=0x10, entity_id=Unnamed NPC (ID: 17764789/0x010F11B5), tag_num=0x02)
172: 0x04A7 [0x1C] WAIT(10* ticks)
173: 0x04AA [0x03] Work_Zone_1700[4] = 2000*
174: 0x04AF [0x07] Work_Zone_1700[4] += 500*
175: 0x04B4 [0x03] Work_Zone_1700[5] = 4294887296*
176: 0x04B9 [0x03] Work_Zone_1700[6] = 3000*
177: 0x04BE [0x27] REQ_SET(priority=0x10, entity_id=Unnamed NPC (ID: 17764790/0x010F11B6), tag_num=0x02)
178: 0x04C5 [0x1C] WAIT(5* ticks)
179: 0x04C8 [0x03] Work_Zone_1700[4] = 2000*
180: 0x04CD [0x08] Work_Zone_1700[4] -= 500*
181: 0x04D2 [0x03] Work_Zone_1700[5] = 4294887296*
182: 0x04D7 [0x03] Work_Zone_1700[6] = 3000*
183: 0x04DC [0x27] REQ_SET(priority=0x10, entity_id=Unnamed NPC (ID: 17764791/0x010F11B7), tag_num=0x02)
184: 0x04E3 [0x1C] WAIT(15* ticks)
185: 0x04E6 [0x03] Work_Zone_1700[4] = 2000*
186: 0x04EB [0x08] Work_Zone_1700[4] -= 300*
187: 0x04F0 [0x03] Work_Zone_1700[5] = 4294887296*
188: 0x04F5 [0x03] Work_Zone_1700[6] = 3000*
189: 0x04FA [0x27] REQ_SET(priority=0x10, entity_id=Unnamed NPC (ID: 17764793/0x010F11B9), tag_num=0x02)
190: 0x0501 [0x1C] WAIT(10* ticks)
191: 0x0504 [0x03] Work_Zone_1700[4] = 2000*
192: 0x0509 [0x07] Work_Zone_1700[4] += 300*
193: 0x050E [0x03] Work_Zone_1700[5] = 4294887296*
194: 0x0513 [0x03] Work_Zone_1700[6] = 3000*
195: 0x0518 [0x27] REQ_SET(priority=0x10, entity_id=Unnamed NPC (ID: 17764794/0x010F11BA), tag_num=0x02)
196: 0x051F [0x1C] WAIT(120* ticks)
197: 0x0522 [0x4A] LocalPlayer looks at Ultra Slime (ID: 17764781/0x010F11AD)
198: 0x052B [0x03] Work_Zone_1700[4] = 2000*
199: 0x0530 [0x03] Work_Zone_1700[5] = 4294887296*
200: 0x0535 [0x07] Work_Zone_1700[5] += 8000*
201: 0x053A [0x03] Work_Zone_1700[6] = 3000*
202: 0x053F [0x27] REQ_SET(priority=0x10, entity_id=Unnamed NPC (ID: 17764792/0x010F11B8), tag_num=0x02)
203: 0x0546 [0x1C] WAIT(120* ticks)
204: 0x0549 [0x4A] LocalPlayer looks at Ultra Slime (ID: 17764781/0x010F11AD)
205: 0x0552 [0x2A] GET_REQ_LEVEL(level=16, entity_id=Ultra Slime (ID: 17764781/0x010F11AD))
206: 0x0558 [0x4A] Ultra Slime (ID: 17764781/0x010F11AD) looks at LocalPlayer
207: 0x0561 [0x7B] Ultra Slime (ID: 17764781/0x010F11AD) stops talking
208: 0x0566 [0x4A] Unnamed NPC (ID: 17764789/0x010F11B5) looks at LocalPlayer
209: 0x056F [0x4A] Unnamed NPC (ID: 17764790/0x010F11B6) looks at LocalPlayer
210: 0x0578 [0x4A] Unnamed NPC (ID: 17764791/0x010F11B7) looks at LocalPlayer
211: 0x0581 [0x4A] Unnamed NPC (ID: 17764792/0x010F11B8) looks at LocalPlayer
212: 0x058A [0x4A] Unnamed NPC (ID: 17764793/0x010F11B9) looks at LocalPlayer
213: 0x0593 [0x4A] Unnamed NPC (ID: 17764794/0x010F11BA) looks at LocalPlayer
214: 0x059C [0x7B] Unnamed NPC (ID: 17764789/0x010F11B5) stops talking
215: 0x05A1 [0x7B] Unnamed NPC (ID: 17764790/0x010F11B6) stops talking
216: 0x05A6 [0x7B] Unnamed NPC (ID: 17764791/0x010F11B7) stops talking
217: 0x05AB [0x7B] Unnamed NPC (ID: 17764792/0x010F11B8) stops talking
218: 0x05B0 [0x7B] Unnamed NPC (ID: 17764793/0x010F11B9) stops talking
219: 0x05B5 [0x7B] Unnamed NPC (ID: 17764794/0x010F11BA) stops talking
220: 0x05BA [0x1C] WAIT(90* ticks)
221: 0x05BD [0x03] Work_Zone_1700[0] = 2000*
222: 0x05C2 [0x03] Work_Zone_1700[1] = 4294903296*
223: 0x05C7 [0x03] Work_Zone_1700[2] = 3000*
224: 0x05CC [0x27] REQ_SET(priority=0x10, entity_id=Ultra Slime (ID: 17764781/0x010F11AD), tag_num=0x03)
225: 0x05D3 [0x1C] WAIT(120* ticks)
226: 0x05D6 [0x52] END_LOAD_SCHEDULER: End scheduler "s201" with entities [EventEntity, EventEntity], work=639*
227: 0x05E5 [0x45] LOAD_SCHEDULED_TASK: Load scheduler "s202" with entities [EventEntity, EventEntity], work=[639*, 0*]
228: 0x05F6 [0x2A] GET_REQ_LEVEL(level=16, entity_id=Ultra Slime (ID: 17764781/0x010F11AD))
229: 0x05FC [0x4A] LocalPlayer looks at Ultra Slime (ID: 17764781/0x010F11AD)
230: 0x0605 [0x03] Work_Zone_1700[0] = 4294966796*
231: 0x060A [0x03] Work_Zone_1700[1] = 4294904796*
232: 0x060F [0x03] Work_Zone_1700[2] = 3000*
233: 0x0614 [0x27] REQ_SET(priority=0x10, entity_id=Ultra Slime (ID: 17764781/0x010F11AD), tag_num=0x03)
234: 0x061B [0x2A] GET_REQ_LEVEL(level=16, entity_id=Ultra Slime (ID: 17764781/0x010F11AD))
235: 0x0621 [0x4A] LocalPlayer looks at Ultra Slime (ID: 17764781/0x010F11AD)
236: 0x062A [0x03] Work_Zone_1700[0] = 4294963596*
237: 0x062F [0x03] Work_Zone_1700[1] = 4294904026*
238: 0x0634 [0x03] Work_Zone_1700[2] = 3000*
239: 0x0639 [0x27] REQ_SET(priority=0x10, entity_id=Ultra Slime (ID: 17764781/0x010F11AD), tag_num=0x03)
240: 0x0640 [0x2A] GET_REQ_LEVEL(level=16, entity_id=Ultra Slime (ID: 17764781/0x010F11AD))
241: 0x0646 [0x03] Work_Zone_1700[3] = 127*
242: 0x064B [0x27] REQ_SET(priority=0x10, entity_id=Ultra Slime (ID: 17764781/0x010F11AD), tag_num=0x04)
243: 0x0652 [0x4A] LocalPlayer looks at Ultra Slime (ID: 17764781/0x010F11AD)
244: 0x065B [0x2A] GET_REQ_LEVEL(level=16, entity_id=Ultra Slime (ID: 17764781/0x010F11AD))
245: 0x0661 [0x4E] SET_ENTITY_HIDE_FLAG: Show Unnamed NPC (ID: 17764786/0x010F11B2)
246: 0x0667 [0x4E] SET_ENTITY_HIDE_FLAG: Show Unnamed NPC (ID: 17764787/0x010F11B3)
247: 0x066D [0x4E] SET_ENTITY_HIDE_FLAG: Show Unnamed NPC (ID: 17764788/0x010F11B4)
248: 0x0673 [0x03] ExtData[1]->WorkLocal[3] = 2000*
249: 0x0678 [0x03] ExtData[1]->WorkLocal[4] = 4294887296*
250: 0x067D [0x08] ExtData[1]->WorkLocal[3] -= 100*
251: 0x0682 [0x08] ExtData[1]->WorkLocal[4] -= 100*
252: 0x0687 [0xBA] SET_ENTITY_POSITION(entity_id=Unnamed NPC (ID: 17764786/0x010F11B2), pos_x=ExtData[1]->WorkLocal[3], pos_z=ExtData[1]->WorkLocal[4], pos_y=3.000*, direction=157.4°*)
253: 0x0694 [0x07] ExtData[1]->WorkLocal[3] += 200*
254: 0x0699 [0x07] ExtData[1]->WorkLocal[4] += 200*
255: 0x069E [0xBA] SET_ENTITY_POSITION(entity_id=Unnamed NPC (ID: 17764787/0x010F11B3), pos_x=ExtData[1]->WorkLocal[3], pos_z=ExtData[1]->WorkLocal[4], pos_y=3.000*, direction=157.4°*)
256: 0x06AB [0xBA] SET_ENTITY_POSITION(entity_id=Unnamed NPC (ID: 17764788/0x010F11B4), pos_x=2.000*, pos_z=-80.000*, pos_y=3.000*, direction=157.4°*)
257: 0x06B8 [0x03] Work_Zone_1700[4] = 2200*
258: 0x06BD [0x03] Work_Zone_1700[5] = 4294903296*
259: 0x06C2 [0x03] Work_Zone_1700[6] = 3000*
260: 0x06C7 [0x28] REQ_SET_WITH_CONDITIONS(priority=0x10, target_entity=Unnamed NPC (ID: 17764789/0x010F11B5), tag_num=0x02)
261: 0x06CE [0x2A] GET_REQ_LEVEL(level=16, entity_id=Unnamed NPC (ID: 17764789/0x010F11B5))
262: 0x06D4 [0x03] Work_Zone_1700[7] = 4294966273*
263: 0x06D9 [0x27] REQ_SET(priority=0x10, entity_id=Unnamed NPC (ID: 17764789/0x010F11B5), tag_num=0x03)
264: 0x06E0 [0x1C] WAIT(25* ticks)
265: 0x06E3 [0x03] Work_Zone_1700[7] = 0*
266: 0x06E8 [0x27] REQ_SET(priority=0x10, entity_id=Unnamed NPC (ID: 17764789/0x010F11B5), tag_num=0x03)
267: 0x06EF [0x1C] WAIT(5* ticks)
268: 0x06F2 [0x03] Work_Zone_1700[7] = 1023*
269: 0x06F7 [0x27] REQ_SET(priority=0x10, entity_id=Unnamed NPC (ID: 17764789/0x010F11B5), tag_num=0x03)
270: 0x06FE [0x1C] WAIT(60* ticks)
271: 0x0701 [0x59] UPDATE_ENTITY_DATA: Unnamed NPC (ID: 17764784/0x010F11B0)->Render.Flags0 |= 0x200000
272: 0x0708 [0x03] ExtData[1]->WorkLocal[3] = 2200*
273: 0x070D [0x03] ExtData[1]->WorkLocal[4] = 4294903296*
274: 0x0712 [0x03] ExtData[1]->WorkLocal[5] = 3000*
275: 0x0717 [0x07] ExtData[1]->WorkLocal[4] += 1400*
276: 0x071C [0x07] ExtData[1]->WorkLocal[5] += 400*
277: 0x0721 [0xBA] SET_ENTITY_POSITION(entity_id=Unnamed NPC (ID: 17764784/0x010F11B0), pos_x=ExtData[1]->WorkLocal[3], pos_z=ExtData[1]->WorkLocal[4], pos_y=ExtData[1]->WorkLocal[5], direction=89.9°*)
278: 0x072E [0xBB] LOAD_EVENT_SCHEDULER_ALT: Load scheduler "main" with entities [Unnamed NPC (ID: 17764784/0x010F11B0), Unnamed NPC (ID: 17764784/0x010F11B0)], work=[22*, 0*]
279: 0x073F [0x5B] LOAD_EXT_SCHEDULER: Load scheduler "sur1" with entities [Unnamed NPC (ID: 17764789/0x010F11B5), Unnamed NPC (ID: 17764789/0x010F11B5)], work=85*
280: 0x074E [0x03] Work_Zone_1700[4] = 1800*
281: 0x0753 [0x03] Work_Zone_1700[5] = 4294913296*
282: 0x0758 [0x03] Work_Zone_1700[6] = 3000*
283: 0x075D [0x28] REQ_SET_WITH_CONDITIONS(priority=0x10, target_entity=Unnamed NPC (ID: 17764790/0x010F11B6), tag_num=0x02)
284: 0x0764 [0x2F] Unnamed NPC (ID: 17764785/0x010F11B1)->Render.Flags0 &= ~0x80000 // Bit 19
285: 0x076A [0x4E] SET_ENTITY_HIDE_FLAG: Show Unnamed NPC (ID: 17764785/0x010F11B1)
286: 0x0770 [0x59] UPDATE_ENTITY_DATA: Unnamed NPC (ID: 17764785/0x010F11B1)->Render.Flags0 |= 0x200000
287: 0x0777 [0x03] ExtData[1]->WorkLocal[3] = 2000*
288: 0x077C [0x03] ExtData[1]->WorkLocal[4] = 4294887296*
289: 0x0781 [0x03] ExtData[1]->WorkLocal[5] = 3000*
290: 0x0786 [0x08] ExtData[1]->WorkLocal[4] -= 1500*
291: 0x078B [0x07] ExtData[1]->WorkLocal[5] += 400*
292: 0x0790 [0xBA] SET_ENTITY_POSITION(entity_id=Unnamed NPC (ID: 17764785/0x010F11B1), pos_x=ExtData[1]->WorkLocal[3], pos_z=ExtData[1]->WorkLocal[4], pos_y=ExtData[1]->WorkLocal[5], direction=377476129.3°*)
293: 0x079D [0x03] Work_Zone_1700[29] = 1800*
294: 0x07A2 [0x03] Work_Zone_1700[30] = 4294913296*
295: 0x07A7 [0x03] Work_Zone_1700[31] = 3000*
296: 0x07AC [0x08] Work_Zone_1700[29] -= 0*
297: 0x07B1 [0x08] Work_Zone_1700[30] -= 1500*
298: 0x07B6 [0x07] Work_Zone_1700[31] += 400*
299: 0x07BB [0x28] REQ_SET_WITH_CONDITIONS(priority=0x10, target_entity=Unnamed NPC (ID: 17764785/0x010F11B1), tag_num=0x03)
300: 0x07C2 [0xBB] LOAD_EVENT_SCHEDULER_ALT: Load scheduler "stat" with entities [Unnamed NPC (ID: 17764785/0x010F11B1), Unnamed NPC (ID: 17764785/0x010F11B1)], work=[23*, 0*]
301: 0x07D3 [0x1C] WAIT(5* ticks)
302: 0x07D6 [0x03] Work_Zone_1700[4] = 2200*
303: 0x07DB [0x03] Work_Zone_1700[5] = 4294913296*
304: 0x07E0 [0x03] Work_Zone_1700[6] = 3000*
305: 0x07E5 [0x28] REQ_SET_WITH_CONDITIONS(priority=0x10, target_entity=Unnamed NPC (ID: 17764791/0x010F11B7), tag_num=0x02)
306: 0x07EC [0x1C] WAIT(15* ticks)
307: 0x07EF [0x03] Work_Zone_1700[4] = 2100*
308: 0x07F4 [0x03] Work_Zone_1700[5] = 4294913296*
309: 0x07F9 [0x03] Work_Zone_1700[6] = 3000*
310: 0x07FE [0x28] REQ_SET_WITH_CONDITIONS(priority=0x10, target_entity=Unnamed NPC (ID: 17764793/0x010F11B9), tag_num=0x02)
311: 0x0805 [0x1C] WAIT(10* ticks)
312: 0x0808 [0x03] Work_Zone_1700[4] = 1900*
313: 0x080D [0x03] Work_Zone_1700[5] = 4294913296*
314: 0x0812 [0x03] Work_Zone_1700[6] = 3000*
315: 0x0817 [0x28] REQ_SET_WITH_CONDITIONS(priority=0x10, target_entity=Unnamed NPC (ID: 17764794/0x010F11BA), tag_num=0x02)
316: 0x081E [0x1C] WAIT(20* ticks)
317: 0x0821 [0x03] Work_Zone_1700[4] = 2000*
318: 0x0826 [0x03] Work_Zone_1700[5] = 4294913296*
319: 0x082B [0x03] Work_Zone_1700[6] = 3000*
320: 0x0830 [0x07] Work_Zone_1700[4] += 500*
321: 0x0835 [0x08] Work_Zone_1700[5] -= 500*
322: 0x083A [0x28] REQ_SET_WITH_CONDITIONS(priority=0x10, target_entity=Unnamed NPC (ID: 17764786/0x010F11B2), tag_num=0x03)
323: 0x0841 [0x1C] WAIT(5* ticks)
324: 0x0844 [0x08] Work_Zone_1700[4] -= 800*
325: 0x0849 [0x07] Work_Zone_1700[5] += 800*
326: 0x084E [0x28] REQ_SET_WITH_CONDITIONS(priority=0x10, target_entity=Unnamed NPC (ID: 17764787/0x010F11B3), tag_num=0x03)
327: 0x0855 [0x1C] WAIT(15* ticks)
328: 0x0858 [0x07] Work_Zone_1700[4] += 300*
329: 0x085D [0x08] Work_Zone_1700[5] -= 300*
330: 0x0862 [0x28] REQ_SET_WITH_CONDITIONS(priority=0x10, target_entity=Unnamed NPC (ID: 17764788/0x010F11B4), tag_num=0x03)
331: 0x0869 [0x1C] WAIT(50* ticks)
332: 0x086C [0x03] Work_Zone_1700[7] = 0*
333: 0x0871 [0x28] REQ_SET_WITH_CONDITIONS(priority=0x10, target_entity=Unnamed NPC (ID: 17764789/0x010F11B5), tag_num=0x03)
334: 0x0878 [0x1C] WAIT(5* ticks)
335: 0x087B [0x03] Work_Zone_1700[7] = 4294966273*
336: 0x0880 [0x28] REQ_SET_WITH_CONDITIONS(priority=0x10, target_entity=Unnamed NPC (ID: 17764789/0x010F11B5), tag_num=0x03)
337: 0x0887 [0x1C] WAIT(25* ticks)
338: 0x088A [0x03] Work_Zone_1700[4] = 2000*
339: 0x088F [0x03] Work_Zone_1700[5] = 4294913296*
340: 0x0894 [0x03] Work_Zone_1700[6] = 3000*
341: 0x0899 [0x28] REQ_SET_WITH_CONDITIONS(priority=0x10, target_entity=Unnamed NPC (ID: 17764789/0x010F11B5), tag_num=0x02)
342: 0x08A0 [0x1C] WAIT(120* ticks)
343: 0x08A3 [0xBB] LOAD_EVENT_SCHEDULER_ALT: Load scheduler "stop" with entities [Unnamed NPC (ID: 17764785/0x010F11B1), Unnamed NPC (ID: 17764785/0x010F11B1)], work=[23*, 0*]
344: 0x08B4 [0x59] UPDATE_ENTITY_DATA: Unnamed NPC (ID: 17764785/0x010F11B1)->Render.Flags0 &= ~0x200000
345: 0x08BB [0x03] Work_Zone_1700[4] = 2000*
346: 0x08C0 [0x03] Work_Zone_1700[5] = 4294903296*
347: 0x08C5 [0x03] Work_Zone_1700[6] = 3000*
348: 0x08CA [0x28] REQ_SET_WITH_CONDITIONS(priority=0x10, target_entity=Unnamed NPC (ID: 17764792/0x010F11B8), tag_num=0x02)
349: 0x08D1 [0x2A] GET_REQ_LEVEL(level=16, entity_id=Unnamed NPC (ID: 17764792/0x010F11B8))
350: 0x08D7 [0x03] Work_Zone_1700[7] = 0*
351: 0x08DC [0x28] REQ_SET_WITH_CONDITIONS(priority=0x10, target_entity=Unnamed NPC (ID: 17764792/0x010F11B8), tag_num=0x03)
352: 0x08E3 [0x2A] GET_REQ_LEVEL(level=16, entity_id=Unnamed NPC (ID: 17764792/0x010F11B8))
353: 0x08E9 [0x1C] WAIT(30* ticks)
354: 0x08EC [0x59] UPDATE_ENTITY_DATA: Unnamed NPC (ID: 17764784/0x010F11B0)->Render.Flags0 |= 0x200000
355: 0x08F3 [0x03] ExtData[1]->WorkLocal[3] = 2000*
356: 0x08F8 [0x03] ExtData[1]->WorkLocal[4] = 4294903296*
357: 0x08FD [0x03] ExtData[1]->WorkLocal[5] = 3000*
358: 0x0902 [0x08] ExtData[1]->WorkLocal[3] -= 1500*
359: 0x0907 [0x07] ExtData[1]->WorkLocal[5] += 400*
360: 0x090C [0xBA] SET_ENTITY_POSITION(entity_id=Unnamed NPC (ID: 17764784/0x010F11B0), pos_x=ExtData[1]->WorkLocal[3], pos_z=ExtData[1]->WorkLocal[4], pos_y=ExtData[1]->WorkLocal[5], direction=0.0°*)
361: 0x0919 [0xBB] LOAD_EVENT_SCHEDULER_ALT: Load scheduler "main" with entities [Unnamed NPC (ID: 17764784/0x010F11B0), Unnamed NPC (ID: 17764784/0x010F11B0)], work=[22*, 0*]
362: 0x092A [0x5B] LOAD_EXT_SCHEDULER: Load scheduler "sur1" with entities [Unnamed NPC (ID: 17764792/0x010F11B8), Unnamed NPC (ID: 17764792/0x010F11B8)], work=85*
363: 0x0939 [0x1C] WAIT(90* ticks)
364: 0x093C [0x03] Work_Zone_1700[7] = 4294966273*
365: 0x0941 [0x28] REQ_SET_WITH_CONDITIONS(priority=0x10, target_entity=Unnamed NPC (ID: 17764792/0x010F11B8), tag_num=0x03)
366: 0x0948 [0x2A] GET_REQ_LEVEL(level=16, entity_id=Unnamed NPC (ID: 17764792/0x010F11B8))
367: 0x094E [0x1C] WAIT(20* ticks)
368: 0x0951 [0x03] Work_Zone_1700[4] = 2000*
369: 0x0956 [0x03] Work_Zone_1700[5] = 4294913296*
370: 0x095B [0x03] Work_Zone_1700[6] = 3000*
371: 0x0960 [0x28] REQ_SET_WITH_CONDITIONS(priority=0x10, target_entity=Unnamed NPC (ID: 17764792/0x010F11B8), tag_num=0x02)
372: 0x0967 [0x59] UPDATE_ENTITY_DATA: Unnamed NPC (ID: 17764784/0x010F11B0)->Render.Flags0 &= ~0x200000
373: 0x096E [0x1C] WAIT(120* ticks)
374: 0x0971 [0x03] Work_Zone_1700[11] = 4294966896*
375: 0x0976 [0x03] Work_Zone_1700[12] = 4294902996*
376: 0x097B [0x03] Work_Zone_1700[13] = 3000*
377: 0x0980 [0x27] REQ_SET(priority=0x10, entity_id=LocalPlayer, tag_num=0x76)
378: 0x0987 [0x4A] LocalPlayer looks at LocalPlayer
379: 0x0990 [0x52] END_LOAD_SCHEDULER: End scheduler "s202" with entities [EventEntity, EventEntity], work=639*
380: 0x099F [0x45] LOAD_SCHEDULED_TASK: Load scheduler "s203" with entities [EventEntity, EventEntity], work=[639*, 0*]
381: 0x09B0 [0x4E] SET_ENTITY_HIDE_FLAG: Hide Unnamed NPC (ID: 17764789/0x010F11B5)
382: 0x09B6 [0x4E] SET_ENTITY_HIDE_FLAG: Hide Unnamed NPC (ID: 17764790/0x010F11B6)
383: 0x09BC [0x4E] SET_ENTITY_HIDE_FLAG: Hide Unnamed NPC (ID: 17764791/0x010F11B7)
384: 0x09C2 [0x4E] SET_ENTITY_HIDE_FLAG: Hide Unnamed NPC (ID: 17764792/0x010F11B8)
385: 0x09C8 [0x4E] SET_ENTITY_HIDE_FLAG: Hide Unnamed NPC (ID: 17764793/0x010F11B9)
386: 0x09CE [0x4E] SET_ENTITY_HIDE_FLAG: Hide Unnamed NPC (ID: 17764794/0x010F11BA)
387: 0x09D4 [0x4E] SET_ENTITY_HIDE_FLAG: Hide Unnamed NPC (ID: 17764786/0x010F11B2)
388: 0x09DA [0x4E] SET_ENTITY_HIDE_FLAG: Hide Unnamed NPC (ID: 17764787/0x010F11B3)
389: 0x09E0 [0x4E] SET_ENTITY_HIDE_FLAG: Hide Unnamed NPC (ID: 17764788/0x010F11B4)
390: 0x09E6 [0x2A] GET_REQ_LEVEL(level=16, entity_id=LocalPlayer)
391: 0x09EC [0x4A] LocalPlayer looks at Ultra Slime (ID: 17764781/0x010F11AD)
392: 0x09F5 [0x6F] WAIT_FRAME_DELAY: Yield until WaitTime reaches zero
393: 0x09F6 [0x76] CHECK_ENTITY_RENDER_FLAGS: Wait until LocalPlayer Render.Flags0 and Render.Flags3 conditions are met
394: 0x09FB [0x4A] Ultra Slime (ID: 17764781/0x010F11AD) looks at LocalPlayer
395: 0x0A04 [0x2B] Ultra Slime (ID: 17764781/0x010F11AD) [13738*]:
    → "D-don't hurt me! I'm not a bad slime!"
396: 0x0A0B [0x23] WAIT_FOR_DIALOG_INTERACTION
397: 0x0A0C [0x02] IF !(ExtData[1]->WorkLocal[1] == 1*) GOTO 0x0A1F
398: 0x0A14 [0x2B] Ultra Slime (ID: 17764781/0x010F11AD) [13739*]:
    → "Could it be...? It is! Hi, <Player>!"
399: 0x0A1B [0x23] WAIT_FOR_DIALOG_INTERACTION
400: 0x0A1C [0x01] GOTO 0x0A27
401: 0x0A1F [0x2B] Ultra Slime (ID: 17764781/0x010F11AD) [13745*]:
    → "P-promise you won't? Oh, thank goodness <slurp>."
402: 0x0A26 [0x23] WAIT_FOR_DIALOG_INTERACTION

SUBROUTINE_0A27:
403: 0x0A27 [0x5C] MUSIC_CONTROL: Set Idle (Day) music to song 129*
404: 0x0A2B [0x5C] MUSIC_CONTROL: Set Idle (Night) music to song 129*
405: 0x0A2F [0x59] UPDATE_ENTITY_DATA: Ultra Slime (ID: 17764781/0x010F11AD)->Render.Flags0 |= 0x200000
406: 0x0A36 [0x03] Work_Zone_1700[0] = 4294964396*
407: 0x0A3B [0x03] Work_Zone_1700[1] = 4294903496*
408: 0x0A40 [0x03] Work_Zone_1700[2] = 2050*
409: 0x0A45 [0x27] REQ_SET(priority=0x10, entity_id=Ultra Slime (ID: 17764781/0x010F11AD), tag_num=0x03)
410: 0x0A4C [0x2A] GET_REQ_LEVEL(level=16, entity_id=Ultra Slime (ID: 17764781/0x010F11AD))
411: 0x0A52 [0xBA] SET_ENTITY_POSITION(entity_id=Ultra Slime (ID: 17764781/0x010F11AD), pos_x=-2.700*, pos_z=-64.000*, pos_y=2.166*, direction=0.0°*)
412: 0x0A5F [0x52] END_LOAD_SCHEDULER: End scheduler "s203" with entities [EventEntity, EventEntity], work=639*
413: 0x0A6E [0x45] LOAD_SCHEDULED_TASK: Load scheduler "s204" with entities [EventEntity, EventEntity], work=[639*, 0*]
414: 0x0A7F [0x4E] SET_ENTITY_HIDE_FLAG: Hide LocalPlayer
415: 0x0A85 [0x2A] GET_REQ_LEVEL(level=16, entity_id=Ultra Slime (ID: 17764781/0x010F11AD))
416: 0x0A8B [0x4A] Ultra Slime (ID: 17764781/0x010F11AD) looks at LocalPlayer
417: 0x0A94 [0x02] IF !(ExtData[1]->WorkLocal[1] == 1*) GOTO 0x0ACC
418: 0x0A9C [0x03] Work_Zone[2] = ExtData[1]->WorkLocal[2]
419: 0x0AA1 [0x2B] Ultra Slime (ID: 17764781/0x010F11AD) [13740*]:
    → "Do you remember me? [Slarin/Sludge/Ultra Slime]? Of course you do!"
420: 0x0AA8 [0x23] WAIT_FOR_DIALOG_INTERACTION
421: 0x0AA9 [0x2B] Ultra Slime (ID: 17764781/0x010F11AD) [13741*]:
    → "Thanks again for what goo did for us slimes a couple moons back."
422: 0x0AB0 [0x23] WAIT_FOR_DIALOG_INTERACTION
423: 0x0AB1 [0x2B] Ultra Slime (ID: 17764781/0x010F11AD) [13742*]:
    → "Why are we here again? Well, you see, Horro wanted to come back for more sweets <slurp>, so..."
424: 0x0AB8 [0x23] WAIT_FOR_DIALOG_INTERACTION
425: 0x0AB9 [0x2B] Ultra Slime (ID: 17764781/0x010F11AD) [13743*]:
    → "Wait! I promise we didn't stow away for a second time! We asked him to let us come back on the Astoltia Ark, and he said yes!"
426: 0x0AC0 [0x23] WAIT_FOR_DIALOG_INTERACTION
427: 0x0AC1 [0x2B] Ultra Slime (ID: 17764781/0x010F11AD) [13744*]:
    → "But, boy, we're in a bit of a pickle once more, and I'd be grateful if you could lend me a <slurp> hand."
428: 0x0AC8 [0x23] WAIT_FOR_DIALOG_INTERACTION
429: 0x0AC9 [0x01] GOTO 0x0AF9
430: 0x0ACC [0x03] Work_Zone[2] = ExtData[1]->WorkLocal[2]
431: 0x0AD1 [0x2B] Ultra Slime (ID: 17764781/0x010F11AD) [13746*]:
    → "My name's [Slarin/Sludge/Ultra Slime]. I really need somegoo's help, but I don't know where to turn."
432: 0x0AD8 [0x23] WAIT_FOR_DIALOG_INTERACTION
433: 0x0AD9 [0x2B] Ultra Slime (ID: 17764781/0x010F11AD) [13747*]:
    → "We came here on this big ship called the Astoltia Ark together with our friend, Horro."
434: 0x0AE0 [0x23] WAIT_FOR_DIALOG_INTERACTION
435: 0x0AE1 [0x2B] Ultra Slime (ID: 17764781/0x010F11AD) [13748*]:
    → "It isn't the first time we've been here, though. Last time <slurp> we kind of...stowed away and found ourselves in this world."
436: 0x0AE8 [0x23] WAIT_FOR_DIALOG_INTERACTION
437: 0x0AE9 [0x2B] Ultra Slime (ID: 17764781/0x010F11AD) [13749*]:
    → "We tried to behave, but ended up causing a lot of trouble for Horro and the great adventurgoos of Vana'diel."
438: 0x0AF0 [0x23] WAIT_FOR_DIALOG_INTERACTION
439: 0x0AF1 [0x2B] Ultra Slime (ID: 17764781/0x010F11AD) [13750*]:
    → "This time, we made sure to get permission, but things didn't go like we wanted..."
440: 0x0AF8 [0x23] WAIT_FOR_DIALOG_INTERACTION

SUBROUTINE_0AF9:
441: 0x0AF9 [0x4E] SET_ENTITY_HIDE_FLAG: Show LocalPlayer
442: 0x0AFF [0x52] END_LOAD_SCHEDULER: End scheduler "s204" with entities [EventEntity, EventEntity], work=639*
443: 0x0B0E [0x45] LOAD_SCHEDULED_TASK: Load scheduler "s205" with entities [EventEntity, EventEntity], work=[639*, 0*]
444: 0x0B1F [0x2B] Ultra Slime (ID: 17764781/0x010F11AD) [13751*]:
    → "You see, some of our other friends--she-slimes and metal slimes--overheard our plan, and this time they stowed away instead!"
445: 0x0B26 [0x23] WAIT_FOR_DIALOG_INTERACTION
446: 0x0B27 [0x2B] Ultra Slime (ID: 17764781/0x010F11AD) [13752*]:
    → "So when we arrived in Vana'diel, they went bouncing off to goo-knows-where!"
447: 0x0B2E [0x23] WAIT_FOR_DIALOG_INTERACTION
448: 0x0B2F [0x2B] Ultra Slime (ID: 17764781/0x010F11AD) [13753*]:
    → "And if that wasn't bad enough, some of us more common slimes went off too!"
449: 0x0B36 [0x23] WAIT_FOR_DIALOG_INTERACTION
450: 0x0B37 [0x52] END_LOAD_SCHEDULER: End scheduler "s205" with entities [EventEntity, EventEntity], work=639*
451: 0x0B46 [0x02] IF !(LocalPlayer->Race == 5*) GOTO 0x0B62
452: 0x0B4E [0x45] LOAD_SCHEDULED_TASK: Load scheduler "s207" with entities [EventEntity, EventEntity], work=[639*, 0*]
453: 0x0B5F [0x01] GOTO 0x0B8F
454: 0x0B62 [0x02] IF !(LocalPlayer->Race == 6*) GOTO 0x0B7E
455: 0x0B6A [0x45] LOAD_SCHEDULED_TASK: Load scheduler "s207" with entities [EventEntity, EventEntity], work=[639*, 0*]
456: 0x0B7B [0x01] GOTO 0x0B8F
457: 0x0B7E [0x45] LOAD_SCHEDULED_TASK: Load scheduler "s206" with entities [EventEntity, EventEntity], work=[639*, 0*]

SUBROUTINE_0B8F:
458: 0x0B8F [0x2B] Ultra Slime (ID: 17764781/0x010F11AD) [13754*]:
    → "If I don't bring my friends back, Horro will <slurp> leave them behind!"
459: 0x0B96 [0x23] WAIT_FOR_DIALOG_INTERACTION
460: 0x0B97 [0x2B] Ultra Slime (ID: 17764781/0x010F11AD) [13755*]:
    → "So you can guess what's next--I need your help."
461: 0x0B9E [0x23] WAIT_FOR_DIALOG_INTERACTION
462: 0x0B9F [0x02] IF !(LocalPlayer->Race == 5*) GOTO 0x0BB9
463: 0x0BA7 [0x52] END_LOAD_SCHEDULER: End scheduler "s207" with entities [EventEntity, EventEntity], work=639*
464: 0x0BB6 [0x01] GOTO 0x0BE2
465: 0x0BB9 [0x02] IF !(LocalPlayer->Race == 6*) GOTO 0x0BD3
466: 0x0BC1 [0x52] END_LOAD_SCHEDULER: End scheduler "s207" with entities [EventEntity, EventEntity], work=639*
467: 0x0BD0 [0x01] GOTO 0x0BE2
468: 0x0BD3 [0x52] END_LOAD_SCHEDULER: End scheduler "s206" with entities [EventEntity, EventEntity], work=639*

SUBROUTINE_0BE2:
469: 0x0BE2 [0x45] LOAD_SCHEDULED_TASK: Load scheduler "s208" with entities [EventEntity, EventEntity], work=[639*, 0*]
470: 0x0BF3 [0x2B] Ultra Slime (ID: 17764781/0x010F11AD) [13756*]:
    → "If you give me a hand I'll... Do a little jiggle for you!"
471: 0x0BFA [0x23] WAIT_FOR_DIALOG_INTERACTION
472: 0x0BFB [0x2B] Ultra Slime (ID: 17764781/0x010F11AD) [13757*]:
    → "If you do really well, I'll even give you a little <slurp> something special! So, will you help?"
473: 0x0C02 [0x23] WAIT_FOR_DIALOG_INTERACTION
474: 0x0C03 [0x01] GOTO 0x0D39
475: 0x0C06 [0xBA] SET_ENTITY_POSITION(entity_id=Ultra Slime (ID: 17764781/0x010F11AD), pos_x=-3.700*, pos_z=-63.270*, pos_y=3.000*, direction=11.2°*)
476: 0x0C13 [0xBA] SET_ENTITY_POSITION(entity_id=LocalPlayer, pos_x=-0.400*, pos_z=-64.300*, pos_y=3.000*, direction=191.2°*)
477: 0x0C20 [0x4A] Ultra Slime (ID: 17764781/0x010F11AD) looks at LocalPlayer
478: 0x0C29 [0x4A] LocalPlayer looks at Ultra Slime (ID: 17764781/0x010F11AD)
479: 0x0C32 [0x80] LOAD_WAIT(entity=Ultra Slime (ID: 17764781/0x010F11AD))
480: 0x0C37 [0x80] LOAD_WAIT(entity=LocalPlayer)
481: 0x0C3C [0x92] Phub Bayzarahn (ID: 17764491/0x010F108B)->Render.Flags3 ^= 0x01
482: 0x0C42 [0x92] Jack of Spades (ID: 17764523/0x010F10AB)->Render.Flags3 ^= 0x01
483: 0x0C48 [0x92] Gottah Maporushanoh (ID: 17764532/0x010F10B4)->Render.Flags3 ^= 0x01
484: 0x0C4E [0x92] Soni-Muni (ID: 17764531/0x010F10B3)->Render.Flags3 ^= 0x01
485: 0x0C54 [0x92] Zahsa Syalmhaia (ID: 17764599/0x010F10F7)->Render.Flags3 ^= 0x01
486: 0x0C5A [0x92] Tosh Hohnay (ID: 17764490/0x010F108A)->Render.Flags3 ^= 0x01
487: 0x0C60 [0x92] Ten of Spades (ID: 17764516/0x010F10A4)->Render.Flags3 ^= 0x01
488: 0x0C66 [0x92] Nine of Spades (ID: 17764517/0x010F10A5)->Render.Flags3 ^= 0x01
489: 0x0C6C [0x92] Miiri-Wohri (ID: 17764371/0x010F1013)->Render.Flags3 ^= 0x01
490: 0x0C72 [0x92] Selele (ID: 17764600/0x010F10F8)->Render.Flags3 ^= 0x01
491: 0x0C78 [0x92] Bozack (ID: 17764580/0x010F10E4)->Render.Flags3 ^= 0x01
492: 0x0C7E [0x92] Sevah Kummekihn (ID: 17764616/0x010F1108)->Render.Flags3 ^= 0x01
493: 0x0C84 [0x45] LOAD_SCHEDULED_TASK: Load scheduler "s2z3" with entities [EventEntity, EventEntity], work=[639*, 0*]
494: 0x0C95 [0x5C] MUSIC_CONTROL: Set Idle (Day) music to song 129*
495: 0x0C99 [0x5C] MUSIC_CONTROL: Set Idle (Night) music to song 129*
496: 0x0C9D [0x9A] WAIT_MUSIC_SERVER()
497: 0x0C9E [0x45] LOAD_SCHEDULED_TASK: Load scheduler "fdi1" with entities [LocalPlayer, LocalPlayer], work=[200*, 0*]
498: 0x0CAF [0x2B] Ultra Slime (ID: 17764781/0x010F11AD) [13738*]:
    → "D-don't hurt me! I'm not a bad slime!"
499: 0x0CB6 [0x23] WAIT_FOR_DIALOG_INTERACTION
500: 0x0CB7 [0x02] IF !(ExtData[1]->WorkLocal[1] == 1*) GOTO 0x0CCA
501: 0x0CBF [0x2B] Ultra Slime (ID: 17764781/0x010F11AD) [13739*]:
    → "Could it be...? It is! Hi, <Player>!"
502: 0x0CC6 [0x23] WAIT_FOR_DIALOG_INTERACTION
503: 0x0CC7 [0x01] GOTO 0x0CD2
504: 0x0CCA [0x2B] Ultra Slime (ID: 17764781/0x010F11AD) [13761*]:
    → "Why, you're the [man/woman] from before, aren't you?"
505: 0x0CD1 [0x23] WAIT_FOR_DIALOG_INTERACTION

SUBROUTINE_0CD2:
506: 0x0CD2 [0x59] UPDATE_ENTITY_DATA: Ultra Slime (ID: 17764781/0x010F11AD)->Render.Flags0 |= 0x200000
507: 0x0CD9 [0x03] Work_Zone_1700[0] = 4294964396*
508: 0x0CDE [0x03] Work_Zone_1700[1] = 4294903496*
509: 0x0CE3 [0x03] Work_Zone_1700[2] = 2050*
510: 0x0CE8 [0x27] REQ_SET(priority=0x10, entity_id=Ultra Slime (ID: 17764781/0x010F11AD), tag_num=0x03)
511: 0x0CEF [0x2A] GET_REQ_LEVEL(level=16, entity_id=Ultra Slime (ID: 17764781/0x010F11AD))
512: 0x0CF5 [0xBA] SET_ENTITY_POSITION(entity_id=Ultra Slime (ID: 17764781/0x010F11AD), pos_x=-2.700*, pos_z=-64.000*, pos_y=2.166*, direction=0.0°*)
513: 0x0D02 [0x52] END_LOAD_SCHEDULER: End scheduler "s2z3" with entities [EventEntity, EventEntity], work=639*
514: 0x0D11 [0x45] LOAD_SCHEDULED_TASK: Load scheduler "s208" with entities [EventEntity, EventEntity], work=[639*, 0*]
515: 0x0D22 [0x2A] GET_REQ_LEVEL(level=16, entity_id=Ultra Slime (ID: 17764781/0x010F11AD))
516: 0x0D28 [0x4A] Ultra Slime (ID: 17764781/0x010F11AD) looks at LocalPlayer
517: 0x0D31 [0x2B] Ultra Slime (ID: 17764781/0x010F11AD) [13762*]:
    → "Have you come to <slurp> help collect my friends?"
518: 0x0D38 [0x23] WAIT_FOR_DIALOG_INTERACTION

SUBROUTINE_0D39:
519: 0x0D39 [0x24] CREATE_DIALOG(message_id=13758*, default_option=0*, option_flags=0*)
    → "Help find his friends? [Of course! I love jiggling!/No, thanks. Too much work.]"
520: 0x0D40 [0x25] WAIT_DIALOG_SELECT()
521: 0x0D41 [0x02] IF !(Work_Zone[0] == 0*) GOTO 0x0F7F
522: 0x0D49 [0x2B] Ultra Slime (ID: 17764781/0x010F11AD) [13763*]:
    → "Yay! Thank you so much!"
523: 0x0D50 [0x23] WAIT_FOR_DIALOG_INTERACTION
524: 0x0D51 [0x52] END_LOAD_SCHEDULER: End scheduler "s208" with entities [EventEntity, EventEntity], work=639*
525: 0x0D60 [0x45] LOAD_SCHEDULED_TASK: Load scheduler "s209" with entities [EventEntity, EventEntity], work=[639*, 0*]
526: 0x0D71 [0x03] Work_Zone[2] = ExtData[1]->WorkLocal[2]
527: 0x0D76 [0x2B] Ultra Slime (ID: 17764781/0x010F11AD) [13764*]:
    → "Finding them is really easy! First, you have to go outside town and have [Slabble/Slime Tarou/Sline] cast a gootastic spell on you."
528: 0x0D7D [0x23] WAIT_FOR_DIALOG_INTERACTION
529: 0x0D7E [0x2B] Ultra Slime (ID: 17764781/0x010F11AD) [13765*]:
    → "The stowaways're probably scared here in this strange land, so they might get angry or <slurp> try to run away."
530: 0x0D85 [0x23] WAIT_FOR_DIALOG_INTERACTION
531: 0x0D86 [0x2B] Ultra Slime (ID: 17764781/0x010F11AD) [13766*]:
    → "Just give them a little thump on the head, and it'll turn 'em into slime coins."
532: 0x0D8D [0x23] WAIT_FOR_DIALOG_INTERACTION
533: 0x0D8E [0x2B] Ultra Slime (ID: 17764781/0x010F11AD) [13767*]:
    → "I'll make sure to thank you propergoo for helping find them!"
534: 0x0D95 [0x23] WAIT_FOR_DIALOG_INTERACTION
535: 0x0D96 [0x52] END_LOAD_SCHEDULER: End scheduler "s209" with entities [EventEntity, EventEntity], work=639*
536: 0x0DA5 [0x45] LOAD_SCHEDULED_TASK: Load scheduler "s210" with entities [EventEntity, EventEntity], work=[639*, 0*]
537: 0x0DB6 [0x2B] Ultra Slime (ID: 17764781/0x010F11AD) [13768*]:
    → "Oh, but there's one thing. The spells will make you just as weak as we are, so don't jump in without thinking!"
538: 0x0DBD [0x23] WAIT_FOR_DIALOG_INTERACTION
539: 0x0DBE [0x2B] Ultra Slime (ID: 17764781/0x010F11AD) [13769*]:
    → "And I forgot something else! The she-slimes and metal slimes are a bit tougher <slurp>."
540: 0x0DC5 [0x23] WAIT_FOR_DIALOG_INTERACTION
541: 0x0DC6 [0x2B] Ultra Slime (ID: 17764781/0x010F11AD) [13770*]:
    → "The metal slimes in particular are really slippery. They could run right in front of you, and if you blinked, you'd never notice!"
542: 0x0DCD [0x23] WAIT_FOR_DIALOG_INTERACTION
543: 0x0DCE [0x2B] Ultra Slime (ID: 17764781/0x010F11AD) [13771*]:
    → "But they'll give you more coins--and slurpier prizes--if you happen to goo 'em!"
544: 0x0DD5 [0x23] WAIT_FOR_DIALOG_INTERACTION
545: 0x0DD6 [0x2B] Ultra Slime (ID: 17764781/0x010F11AD) [13772*]:
    → "I hope that's a good explanation. If you're ready and raring to go, I can send you to [Slabble/Slime Tarou/Slarin] right away."
546: 0x0DDD [0x23] WAIT_FOR_DIALOG_INTERACTION
547: 0x0DDE [0x24] CREATE_DIALOG(message_id=13773*, default_option=0*, option_flags=0*)
    → "Be whisked outside town? [On feathered wings!/I'd prefer to stay here.]"
548: 0x0DE5 [0x25] WAIT_DIALOG_SELECT()
549: 0x0DE6 [0x02] IF !(Work_Zone[0] == 0*) GOTO 0x0E0D
550: 0x0DEE [0x2B] Ultra Slime (ID: 17764781/0x010F11AD) [13774*]:
    → "Okay! Happy searching!"
551: 0x0DF5 [0x23] WAIT_FOR_DIALOG_INTERACTION
552: 0x0DF6 [0x03] Work_Zone[1] = 1*
553: 0x0DFB [0x73] Ultra Slime (ID: 17764781/0x010F11AD) casts magic 122* on LocalPlayer
554: 0x0E06 [0x1C] WAIT(270* ticks)
555: 0x0E09 [0x30] SET_UCOFF_CONTINUE_ZERO()
556: 0x0E0A [0x01] GOTO 0x0E25
557: 0x0E0D [0x02] IF !(Work_Zone[0] == 1*) GOTO 0x0E25
558: 0x0E15 [0x2B] Ultra Slime (ID: 17764781/0x010F11AD) [13775*]:
    → "I'll send you whenever you want, so just let me know!"
559: 0x0E1C [0x23] WAIT_FOR_DIALOG_INTERACTION
560: 0x0E1D [0x03] Work_Zone[1] = 2*
561: 0x0E22 [0x01] GOTO 0x0E25

SUBROUTINE_0E25:
562: 0x0E25 [0x45] LOAD_SCHEDULED_TASK: Load scheduler "fdo1" with entities [LocalPlayer, LocalPlayer], work=[200*, 0*]
563: 0x0E36 [0x55] WAIT_LOAD_SCHEDULER: Wait for scheduler "fdo1" with entities [LocalPlayer, LocalPlayer], work=200*
564: 0x0E45 [0x4E] SET_ENTITY_HIDE_FLAG: Hide LocalPlayer
565: 0x0E4B [0x52] END_LOAD_SCHEDULER: End scheduler "s210" with entities [EventEntity, EventEntity], work=639*
566: 0x0E5A [0x2F] Horro (ID: 17764783/0x010F11AF)->Render.Flags0 &= ~0x80000 // Bit 19
567: 0x0E60 [0x4E] SET_ENTITY_HIDE_FLAG: Show Horro (ID: 17764783/0x010F11AF)
568: 0x0E66 [0xBA] SET_ENTITY_POSITION(entity_id=Horro (ID: 17764783/0x010F11AF), pos_x=122.000*, pos_z=-40.000*, pos_y=-5.000*, direction=179.9°*)
569: 0x0E73 [0x80] LOAD_WAIT(entity=Horro (ID: 17764783/0x010F11AF))
570: 0x0E78 [0x5C] MUSIC_CONTROL: Set Idle (Day) music to song 120*
571: 0x0E7C [0x5C] MUSIC_CONTROL: Set Idle (Night) music to song 120*
572: 0x0E80 [0x9A] WAIT_MUSIC_SERVER()
573: 0x0E81 [0x45] LOAD_SCHEDULED_TASK: Load scheduler "s211" with entities [EventEntity, EventEntity], work=[639*, 0*]
574: 0x0E92 [0x03] Work_Zone_1700[25] = 105000*
575: 0x0E97 [0x03] Work_Zone_1700[26] = 4294927296*
576: 0x0E9C [0x03] Work_Zone_1700[27] = 4294962296*
577: 0x0EA1 [0x27] REQ_SET(priority=0x10, entity_id=Horro (ID: 17764783/0x010F11AF), tag_num=0x03)
578: 0x0EA8 [0x45] LOAD_SCHEDULED_TASK: Load scheduler "fdi1" with entities [LocalPlayer, LocalPlayer], work=[200*, 0*]
579: 0x0EB9 [0x1C] WAIT(420* ticks)
580: 0x0EBC [0x52] END_LOAD_SCHEDULER: End scheduler "s211" with entities [EventEntity, EventEntity], work=639*
581: 0x0ECB [0x45] LOAD_SCHEDULED_TASK: Load scheduler "s212" with entities [EventEntity, EventEntity], work=[639*, 0*]
582: 0x0EDC [0x2A] GET_REQ_LEVEL(level=16, entity_id=Horro (ID: 17764783/0x010F11AF))
583: 0x0EE2 [0x1C] WAIT(60* ticks)
584: 0x0EE5 [0x52] END_LOAD_SCHEDULER: End scheduler "s212" with entities [EventEntity, EventEntity], work=639*
585: 0x0EF4 [0x45] LOAD_SCHEDULED_TASK: Load scheduler "s213" with entities [EventEntity, EventEntity], work=[639*, 0*]
586: 0x0F05 [0x1C] WAIT(90* ticks)
587: 0x0F08 [0x5B] LOAD_EXT_SCHEDULER: Load scheduler "tlk0" with entities [Horro (ID: 17764783/0x010F11AF), Horro (ID: 17764783/0x010F11AF)], work=3323*
588: 0x0F17 [0x03] Work_Zone[2] = ExtData[1]->WorkLocal[2]
589: 0x0F1C [0x03] Work_Zone[3] = 5172*
590: 0x0F21 [0x2B] Horro (ID: 17764783/0x010F11AF) [13776*]:
    → "How wonderful is it to be <sneeze> back in Vana'diel. Let's see what [San d'Oria/Bastok/Windurst] has to offer me this time!"
591: 0x0F28 [0x23] WAIT_FOR_DIALOG_INTERACTION
592: 0x0F29 [0x2B] Horro (ID: 17764783/0x010F11AF) [13777*]:
    → "Thank goodness I have this "Ranpi-Monpi's Vana'dielian Three-Star Cuisine" guide to show me just where to go!"
593: 0x0F30 [0x23] WAIT_FOR_DIALOG_INTERACTION
594: 0x0F31 [0x5B] LOAD_EXT_SCHEDULER: Load scheduler "tlk1" with entities [Horro (ID: 17764783/0x010F11AF), Horro (ID: 17764783/0x010F11AF)], work=3323*
595: 0x0F40 [0x03] Work_Zone_1700[25] = 88000*
596: 0x0F45 [0x03] Work_Zone_1700[26] = 4294927296*
597: 0x0F4A [0x03] Work_Zone_1700[27] = 4294963296*
598: 0x0F4F [0x27] REQ_SET(priority=0x10, entity_id=Horro (ID: 17764783/0x010F11AF), tag_num=0x03)
599: 0x0F56 [0x1C] WAIT(30* ticks)
600: 0x0F59 [0x52] END_LOAD_SCHEDULER: End scheduler "s213" with entities [EventEntity, EventEntity], work=639*
601: 0x0F68 [0x45] LOAD_SCHEDULED_TASK: Load scheduler "s214" with entities [EventEntity, EventEntity], work=[639*, 0*]
602: 0x0F79 [0x1C] WAIT(120* ticks)
603: 0x0F7C [0x01] GOTO 0x0FB4
604: 0x0F7F [0x02] IF !(Work_Zone[0] == 1*) GOTO 0x0FB4
605: 0x0F87 [0x02] IF !(ExtData[1]->WorkLocal[0] == 0*) GOTO 0x0F97
606: 0x0F8F [0x03] Work_Zone[2] = 1*
607: 0x0F94 [0x01] GOTO 0x0F9C
608: 0x0F97 [0x03] Work_Zone[2] = 0*

SUBROUTINE_0F9C:
609: 0x0F9C [0x2B] Ultra Slime (ID: 17764781/0x010F11AD) [13759*]:
    → "Aww...[/ Maybe a little jiggle isn't enough...]"
610: 0x0FA3 [0x23] WAIT_FOR_DIALOG_INTERACTION
611: 0x0FA4 [0x2B] Ultra Slime (ID: 17764781/0x010F11AD) [13760*]:
    → "If you change your mind, I'll be right here waiting!"
612: 0x0FAB [0x23] WAIT_FOR_DIALOG_INTERACTION
613: 0x0FAC [0x03] Work_Zone[1] = 0*
614: 0x0FB1 [0x01] GOTO 0x0FB4

SUBROUTINE_0FB4:
615: 0x0FB4 [0x45] LOAD_SCHEDULED_TASK: Load scheduler "fdo1" with entities [LocalPlayer, LocalPlayer], work=[200*, 0*]
616: 0x0FC5 [0x55] WAIT_LOAD_SCHEDULER: Wait for scheduler "fdo1" with entities [LocalPlayer, LocalPlayer], work=200*
617: 0x0FD4 [0x02] IF !(Work_Zone[1] == 1*) GOTO 0x1009
618: 0x0FDC [0x5C] MUSIC_CONTROL: Set Idle (Day) music to song 151*
619: 0x0FE0 [0x5C] MUSIC_CONTROL: Set Idle (Night) music to song 151*
620: 0x0FE4 [0x52] END_LOAD_SCHEDULER: End scheduler "s214" with entities [EventEntity, EventEntity], work=637*
621: 0x0FF3 [0x46] CAMERA_CONTROL: Restore default settings
622: 0x0FF5 [0x45] LOAD_SCHEDULED_TASK: Load scheduler "fdi1" with entities [LocalPlayer, LocalPlayer], work=[200*, 0*]
623: 0x1006 [0x01] GOTO 0x1018
624: 0x1009 [0x52] END_LOAD_SCHEDULER: End scheduler "s208" with entities [EventEntity, EventEntity], work=639*

SUBROUTINE_1018:
625: 0x1018 [0x21] END_EVENT
626: 0x1019 [0x00] END_REQSTACK()
```

### Event 872

#### Metadata

| Field        | Value      |
|--------------|------------|
| Entrypoint   | 0x101A     |
| Data Size    | 4215 bytes |
| Instructions | 539        |

```
      00 01 02 03 04 05 06 07  08 09 0A 0B 0C 0D 0E 0F
      -- -- -- -- -- -- -- --  -- -- -- -- -- -- -- --
1010:                                03 07 00 02 10 03            ......
1020: 08 00 03 10 03 09 00 04  10 03 0A 00 05 10 03 0B  ................
1030: 00 06 10 03 0C 00 07 10  03 0D 00 08 10 03 01 00  ................
1040: 09 10 03 02 00 00 80 4A  AD 11 0F 01 F0 FF FF 7F  .......J........
1050: 06 11 00 06 12 00 41 02  80 00 80 08 00 12 00 02  ......A.........
1060: 12 00 7C 80 00 6E 10 3C  11 00 02 80 3F 80 41 7D  ..|..n.<....?.A}
1070: 80 27 80 08 00 12 00 02  12 00 7C 80 00 86 10 3C  .'........|....<
1080: 11 00 3F 80 3F 80 02 11  00 09 00 01 B2 10 42 45  ..?.?.........BE
1090: 01 80 F0 FF FF 7F F0 FF  FF 7F 66 64 6F 31 02 80  ..........fdo1..
10A0: 55 01 80 F0 FF FF 7F F0  FF FF 7F 66 64 6F 31 01  U..........fdo1.
10B0: 7F 13 02 0B 00 3F 80 00  CD 10 42 2B AD 11 0F 01  .....?....B+....
10C0: 7E 80 23 40 02 80 3F 80  01 10 7D 80 21 03 02 10  ~.#@..?...}.!...
10D0: 07 00 2B AD 11 0F 01 7F  80 23 06 0E 00 06 0F 00  ..+......#......
10E0: 24 80 80 02 80 02 80 25  02 00 10 02 80 00 5A 1E  $......%......Z.
10F0: 1A AD 1E 24 81 80 0E 00  13 00 25 02 00 10 02 80  ...$......%.....
1100: 00 16 11 2B AD 11 0F 01  82 80 23 03 0E 00 00 10  ...+......#.....
1110: 01 F0 10 01 D4 11 02 00  10 00 80 00 31 11 2B AD  ............1.+.
1120: 11 0F 01 82 80 23 03 0E  00 00 10 01 F0 10 01 D4  .....#..........
1130: 11 02 00 10 83 80 00 4C  11 2B AD 11 0F 01 82 80  .......L.+......
1140: 23 03 0E 00 00 10 01 F0  10 01 D4 11 02 00 10 55  #..............U
1150: 80 00 67 11 2B AD 11 0F  01 82 80 23 03 0E 00 00  ..g.+......#....
1160: 10 01 F0 10 01 D4 11 02  00 10 26 80 00 82 11 2B  ..........&....+
1170: AD 11 0F 01 82 80 23 03  0E 00 00 10 01 F0 10 01  ......#.........
1180: D4 11 02 00 10 84 80 00  9D 11 2B AD 11 0F 01 82  ..........+.....
1190: 80 23 03 0E 00 00 10 01  F0 10 01 D4 11 02 00 10  .#..............
11A0: 13 80 00 C3 11 02 0F 00  02 80 00 B5 11 03 0F 00  ................
11B0: 3F 80 01 BA 11 03 0F 00  02 80 06 0E 00 01 F0 10  ?...............
11C0: 01 D4 11 02 00 10 85 80  00 D4 11 06 0E 00 01 DA  ................
11D0: 10 01 D4 11 03 0E 00 00  10 03 11 00 0E 00 02 0F  ................
11E0: 00 3F 80 00 EB 11 07 11  00 85 80 9D 00 11 20 0C  .?............ .
11F0: 17 11 00 9D 00 51 20 0D  17 11 00 02 07 00 0D 17  .....Q .........
1200: 04 09 12 05 0E 17 01 0C  12 06 0E 17 93 0C 17 2B  ...............+
1210: AD 11 0F 01 86 80 23 93  02 80 02 0E 17 02 80 80  ......#.........
1220: 28 12 01 F0 10 01 57 1E  02 0E 17 3F 80 80 57 1E  (.....W....?..W.
1230: 24 87 80 3F 80 02 80 25  02 00 10 02 80 00 46 1E  $..?...%......F.
1240: 06 11 00 02 0C 17 88 80  80 51 12 05 11 00 01 7B  .........Q.....{
1250: 12 02 0C 17 89 80 80 5F  12 05 11 00 01 7B 12 02  ......._.....{..
1260: 0C 17 8A 80 80 6D 12 05  11 00 01 7B 12 02 0C 17  .....m.....{....
1270: 8B 80 80 7B 12 05 11 00  01 7B 12 02 11 00 3F 80  ...{.....{....?.
1280: 00 EF 12 03 11 00 0D 17  14 11 00 00 80 02 07 00  ................
1290: 11 00 04 E7 12 03 0F 17  07 00 15 0F 17 0D 17 2B  ...............+
12A0: AD 11 0F 01 8C 80 23 71  10 3F 80 71 11 10 00 02  ......#q.?.q....
12B0: 10 00 02 80 00 BA 12 01  F0 10 02 10 00 8D 80 02  ................
12C0: C7 12 03 10 00 8D 80 03  11 00 0D 17 14 11 00 10  ................
12D0: 00 02 11 00 07 00 02 E4  12 2B AD 11 0F 01 8E 80  .........+......
12E0: 23 01 A7 12 01 EC 12 03  10 00 3F 80 01 F4 12 03  #.........?.....
12F0: 10 00 3F 80 42 40 02 80  3F 80 01 10 3F 80 03 11  ..?.B@..?...?...
1300: 00 0E 00 02 0F 00 3F 80  00 10 13 07 11 00 85 80  ......?.........
1310: 40 8F 80 36 80 01 10 11  00 40 27 80 90 80 01 10  @..6.....@'.....
1320: 10 00 45 01 80 F0 FF FF  7F F0 FF FF 7F 66 64 6F  ..E..........fdo
1330: 31 02 80 55 01 80 F0 FF  FF 7F F0 FF FF 7F 66 64  1..U..........fd
1340: 6F 31 2B AD 11 0F 01 91  80 23 43 00 43 01 02 02  o1+......#C.C...
1350: 10 02 80 03 72 13 45 01  80 F0 FF FF 7F F0 FF FF  ....r.E.........
1360: 7F 66 64 69 31 02 80 40  02 80 3F 80 01 10 02 80  .fdi1..@..?.....
1370: 21 00 02 08 00 03 10 01  10 1E 03 08 00 03 10 06  !...............
1380: 11 00 06 12 00 41 02 80  00 80 08 00 12 00 02 12  .....A..........
1390: 00 7C 80 00 9D 13 3C 11  00 02 80 3F 80 41 7D 80  .|....<....?.A}.
13A0: 27 80 08 00 12 00 02 12  00 7C 80 00 B5 13 3C 11  '........|....<.
13B0: 00 3F 80 3F 80 02 11 00  09 00 01 0A 1E 46 01 38  .?.?.........F.8
13C0: 03 80 92 01 AD 11 0F 01  94 01 AD 11 0F 01 94 01  ................
13D0: F0 FF FF 7F 94 01 B0 11  0F 01 BA F0 FF FF 7F 3C  ...............<
13E0: 80 3D 80 0A 80 5A 80 4A  AD 11 0F 01 F0 FF FF 7F  .=...Z.J........
13F0: 4A F0 FF FF 7F AD 11 0F  01 2F 00 AF 11 0F 01 4E  J......../.....N
1400: 00 AF 11 0F 01 1C 20 80  92 01 8B 10 0F 01 92 01  ...... .........
1410: AB 10 0F 01 92 01 B4 10  0F 01 92 01 B3 10 0F 01  ................
1420: 92 01 F7 10 0F 01 92 01  8A 10 0F 01 02 11 00 7D  ...............}
1430: 80 00 AA 1A 5C 00 42 80  5C 01 42 80 9A 2F 00 B0  ....\.B.\.B../..
1440: 11 0F 01 4E 00 B0 11 0F  01 59 05 B0 11 0F 01 01  ...N.....Y......
1450: 03 03 00 0D 80 03 04 00  92 80 03 05 00 0A 80 08  ................
1460: 05 00 10 80 BA B0 11 0F  01 03 00 04 00 05 00 02  ................
1470: 80 BA AF 11 0F 01 93 80  94 80 0A 80 95 80 80 AF  ................
1480: 11 0F 01 03 19 17 1B 80  03 1A 17 96 80 03 1B 17  ................
1490: 0A 80 27 10 AF 11 0F 01  03 45 1E 80 F8 FF FF 7F  ..'......E......
14A0: F8 FF FF 7F 73 32 33 34  02 80 45 01 80 F0 FF FF  ....s234..E.....
14B0: 7F F0 FF FF 7F 66 64 69  31 02 80 1C 97 80 52 1E  .....fdi1.....R.
14C0: 80 F8 FF FF 7F F8 FF FF  7F 73 32 33 34 45 1E 80  .........s234E..
14D0: F8 FF FF 7F F8 FF FF 7F  73 32 33 35 02 80 2A 10  ........s235..*.
14E0: AF 11 0F 01 5B 73 80 AF  11 0F 01 AF 11 0F 01 74  ....[s.........t
14F0: 6C 6B 30 03 02 10 98 80  2B AF 11 0F 01 99 80 23  lk0.....+......#
1500: 5B 73 80 AF 11 0F 01 AF  11 0F 01 74 6C 6B 31 5C  [s.........tlk1\
1510: 00 1A 80 5C 01 1A 80 52  1E 80 F8 FF FF 7F F8 FF  ...\...R........
1520: FF 7F 73 32 33 35 45 1E  80 F8 FF FF 7F F8 FF FF  ..s235E.........
1530: 7F 73 32 33 36 02 80 4A  AD 11 0F 01 AF 11 0F 01  .s236..J........
1540: 6F 76 AD 11 0F 01 2B AD  11 0F 01 9A 80 23 2B AD  ov....+......#+.
1550: 11 0F 01 9B 80 23 52 1E  80 F8 FF FF 7F F8 FF FF  .....#R.........
1560: 7F 73 32 33 36 45 21 80  F8 FF FF 7F F8 FF FF 7F  .s236E!.........
1570: 62 6F 66 66 02 80 55 21  80 F8 FF FF 7F F8 FF FF  boff..U!........
1580: 7F 62 6F 66 66 45 1E 80  F8 FF FF 7F F8 FF FF 7F  .boffE..........
1590: 73 32 33 37 02 80 03 00  17 9C 80 03 01 17 9D 80  s237............
15A0: 03 02 17 47 80 27 10 AD  11 0F 01 03 4A F0 FF FF  ...G.'......J...
15B0: 7F B0 11 0F 01 2A 10 AD  11 0F 01 BA AD 11 0F 01  .....*..........
15C0: 9C 80 9D 80 47 80 9E 80  59 05 AD 11 0F 01 00 03  ....G...Y.......
15D0: 00 17 9F 80 03 01 17 A0  80 03 02 17 0A 80 27 10  ..............'.
15E0: AD 11 0F 01 03 1C 25 80  4A F0 FF FF 7F B0 11 0F  ......%.J.......
15F0: 01 2A 10 AD 11 0F 01 4A  AD 11 0F 01 AF 11 0F 01  .*.....J........
1600: 1C 25 80 4A AF 11 0F 01  AD 11 0F 01 6F 76 AF 11  .%.J........ov..
1610: 0F 01 1C 1F 80 4A AF 11  0F 01 F0 FF FF 7F 6F 76  .....J........ov
1620: AF 11 0F 01 4A AD 11 0F  01 AF 11 0F 01 03 19 17  ....J...........
1630: 0D 80 03 1A 17 92 80 03  1B 17 0A 80 27 10 AF 11  ............'...
1640: 0F 01 03 03 00 17 A1 80  03 01 17 A2 80 03 02 17  ................
1650: 0A 80 27 10 AD 11 0F 01  03 2A 10 AD 11 0F 01 4A  ..'......*.....J
1660: AD 11 0F 01 F0 FF FF 7F  1C 29 80 03 00 17 A3 80  .........)......
1670: 03 01 17 A4 80 03 02 17  0A 80 27 10 AD 11 0F 01  ..........'.....
1680: 03 52 1E 80 F8 FF FF 7F  F8 FF FF 7F 73 32 33 37  .R..........s237
1690: 45 1E 80 F8 FF FF 7F F8  FF FF 7F 73 32 33 38 02  E..........s238.
16A0: 80 59 05 AD 11 0F 01 01  2A 10 AD 11 0F 01 1C A5  .Y......*.......
16B0: 80 03 00 17 A6 80 03 01  17 A7 80 03 02 17 45 80  ..............E.
16C0: 27 10 AD 11 0F 01 03 2A  10 AD 11 0F 01 BA AD 11  '......*........
16D0: 0F 01 46 80 2C 80 47 80  A8 80 1C 3A 80 4A AD 11  ..F.,.G....:.J..
16E0: 0F 01 AF 11 0F 01 2A 10  AF 11 0F 01 4A AF 11 0F  ......*.....J...
16F0: 01 F0 FF FF 7F 5C 00 A9  80 5C 01 A9 80 03 02 10  .....\...\......
1700: 02 00 6F 76 AF 11 0F 01  7B AF 11 0F 01 5B 73 80  ..ov....{....[s.
1710: AF 11 0F 01 AF 11 0F 01  74 6C 6B 30 03 02 10 02  ........tlk0....
1720: 00 2B AF 11 0F 01 AA 80  23 5B 73 80 AF 11 0F 01  .+......#[s.....
1730: AF 11 0F 01 74 6C 6B 31  52 1E 80 F8 FF FF 7F F8  ....tlk1R.......
1740: FF FF 7F 73 32 33 38 45  1E 80 F8 FF FF 7F F8 FF  ...s238E........
1750: FF 7F 73 32 33 39 02 80  2B AD 11 0F 01 AB 80 23  ..s239..+......#
1760: 52 1E 80 F8 FF FF 7F F8  FF FF 7F 73 32 33 39 45  R..........s239E
1770: 1E 80 F8 FF FF 7F F8 FF  FF 7F 73 32 34 30 02 80  ..........s240..
1780: 5B 73 80 AF 11 0F 01 AF  11 0F 01 74 6C 6B 30 02  [s.........tlk0.
1790: 01 00 3F 80 00 AA 17 2B  AF 11 0F 01 AC 80 23 2B  ..?....+......#+
17A0: AF 11 0F 01 AD 80 23 01  B2 17 2B AF 11 0F 01 AE  ......#...+.....
17B0: 80 23 2B AF 11 0F 01 AF  80 23 5B 73 80 AF 11 0F  .#+......#[s....
17C0: 01 AF 11 0F 01 74 6C 6B  31 52 1E 80 F8 FF FF 7F  .....tlk1R......
17D0: F8 FF FF 7F 73 32 34 30  45 1E 80 F8 FF FF 7F F8  ....s240E.......
17E0: FF FF 7F 73 32 34 31 02  80 5B 73 80 AF 11 0F 01  ...s241..[s.....
17F0: AF 11 0F 01 74 6C 6B 30  2B AF 11 0F 01 B0 80 23  ....tlk0+......#
1800: 03 02 10 02 00 2B AF 11  0F 01 B1 80 23 2B AF 11  .....+......#+..
1810: 0F 01 B2 80 23 5B 73 80  AF 11 0F 01 AF 11 0F 01  ....#[s.........
1820: 74 6C 6B 31 52 1E 80 F8  FF FF 7F F8 FF FF 7F 73  tlk1R..........s
1830: 32 34 31 45 1E 80 F8 FF  FF 7F F8 FF FF 7F 73 32  241E..........s2
1840: 34 32 02 80 2B AD 11 0F  01 B3 80 23 4A AF 11 0F  42..+......#J...
1850: 01 AD 11 0F 01 52 1E 80  F8 FF FF 7F F8 FF FF 7F  .....R..........
1860: 73 32 34 32 45 1E 80 F8  FF FF 7F F8 FF FF 7F 73  s242E..........s
1870: 32 34 33 02 80 6F 76 AF  11 0F 01 5B 73 80 AF 11  243..ov....[s...
1880: 0F 01 AF 11 0F 01 74 6C  6B 30 2B AF 11 0F 01 B4  ......tlk0+.....
1890: 80 23 5B 73 80 AF 11 0F  01 AF 11 0F 01 74 6C 6B  .#[s.........tlk
18A0: 31 5C 00 29 80 5C 01 29  80 4A AF 11 0F 01 F0 FF  1\.).\.).J......
18B0: FF 7F 52 1E 80 F8 FF FF  7F F8 FF FF 7F 73 32 34  ..R..........s24
18C0: 33 02 87 7F 27 80 80 DD  18 45 1E 80 F8 FF FF 7F  3...'....E......
18D0: F8 FF FF 7F 73 32 34 35  02 80 01 0A 19 02 87 7F  ....s245........
18E0: 55 80 80 F9 18 45 1E 80  F8 FF FF 7F F8 FF FF 7F  U....E..........
18F0: 73 32 34 35 02 80 01 0A  19 45 1E 80 F8 FF FF 7F  s245.....E......
1900: F8 FF FF 7F 73 32 34 34  02 80 6F 76 AF 11 0F 01  ....s244..ov....
1910: 5B 73 80 AF 11 0F 01 AF  11 0F 01 74 6C 6B 30 2B  [s.........tlk0+
1920: AF 11 0F 01 B5 80 23 2B  AF 11 0F 01 B6 80 23 5B  ......#+......#[
1930: 73 80 AF 11 0F 01 AF 11  0F 01 74 6C 6B 31 03 1C  s.........tlk1..
1940: 17 B7 80 27 10 AF 11 0F  01 04 02 87 7F 27 80 80  ...'.........'..
1950: 64 19 52 1E 80 F8 FF FF  7F F8 FF FF 7F 73 32 34  d.R..........s24
1960: 35 01 8D 19 02 87 7F 55  80 80 7E 19 52 1E 80 F8  5......U..~.R...
1970: FF FF 7F F8 FF FF 7F 73  32 34 35 01 8D 19 52 1E  .......s245...R.
1980: 80 F8 FF FF 7F F8 FF FF  7F 73 32 34 34 45 1E 80  .........s244E..
1990: F8 FF FF 7F F8 FF FF 7F  73 32 34 36 02 80 2A 10  ........s246..*.
19A0: AF 11 0F 01 5B 73 80 AF  11 0F 01 AF 11 0F 01 6B  ....[s.........k
19B0: 61 74 30 03 03 10 B8 80  03 04 10 B9 80 2B AF 11  at0..........+..
19C0: 0F 01 BA 80 23 52 1E 80  F8 FF FF 7F F8 FF FF 7F  ....#R..........
19D0: 73 32 34 36 45 1E 80 F8  FF FF 7F F8 FF FF 7F 73  s246E..........s
19E0: 32 34 37 02 80 53 AF 11  0F 01 AF 11 0F 01 6B 61  247..S........ka
19F0: 74 31 03 19 17 BB 80 03  1A 17 94 80 03 1B 17 0A  t1..............
1A00: 80 27 10 AF 11 0F 01 03  1C 29 80 52 1E 80 F8 FF  .'.......).R....
1A10: FF 7F F8 FF FF 7F 73 32  34 37 02 87 7F 27 80 80  ......s247...'..
1A20: 36 1A 45 1E 80 F8 FF FF  7F F8 FF FF 7F 73 32 34  6.E..........s24
1A30: 39 02 80 01 63 1A 02 87  7F 55 80 80 52 1A 45 1E  9...c....U..R.E.
1A40: 80 F8 FF FF 7F F8 FF FF  7F 73 32 34 39 02 80 01  .........s249...
1A50: 63 1A 45 1E 80 F8 FF FF  7F F8 FF FF 7F 73 32 34  c.E..........s24
1A60: 38 02 80 4A AD 11 0F 01  F0 FF FF 7F 1C 26 80 4A  8..J.........&.J
1A70: F0 FF FF 7F AD 11 0F 01  6F 76 AD 11 0F 01 2B AD  ........ov....+.
1A80: 11 0F 01 BC 80 23 2B AD  11 0F 01 BD 80 23 2B AD  .....#+......#+.
1A90: 11 0F 01 BE 80 23 2B AD  11 0F 01 BF 80 23 40 02  .....#+......#@.
1AA0: 80 3F 80 01 10 7D 80 01  2F 1D 5C 00 42 80 5C 01  .?...}../.\.B.\.
1AB0: 42 80 9A BA AF 11 0F 01  C0 80 C1 80 C2 80 C3 80  B...............
1AC0: 80 AF 11 0F 01 03 19 17  C4 80 03 1A 17 C5 80 03  ................
1AD0: 1B 17 0A 80 27 10 AF 11  0F 01 03 02 87 7F 27 80  ....'.........'.
1AE0: 80 F7 1A 45 1E 80 F8 FF  FF 7F F8 FF FF 7F 73 32  ...E..........s2
1AF0: 32 38 02 80 01 24 1B 02  87 7F 55 80 80 13 1B 45  28...$....U....E
1B00: 1E 80 F8 FF FF 7F F8 FF  FF 7F 73 32 32 38 02 80  ..........s228..
1B10: 01 24 1B 45 1E 80 F8 FF  FF 7F F8 FF FF 7F 73 32  .$.E..........s2
1B20: 32 37 02 80 45 01 80 F0  FF FF 7F F0 FF FF 7F 66  27..E..........f
1B30: 64 69 31 02 80 1C 97 80  02 87 7F 27 80 80 52 1B  di1........'..R.
1B40: 52 1E 80 F8 FF FF 7F F8  FF FF 7F 73 32 32 38 01  R..........s228.
1B50: 7B 1B 02 87 7F 55 80 80  6C 1B 52 1E 80 F8 FF FF  {....U..l.R.....
1B60: 7F F8 FF FF 7F 73 32 32  38 01 7B 1B 52 1E 80 F8  .....s228.{.R...
1B70: FF FF 7F F8 FF FF 7F 73  32 32 37 45 1E 80 F8 FF  .......s227E....
1B80: FF 7F F8 FF FF 7F 73 32  32 39 02 80 2A 10 AF 11  ......s229..*...
1B90: 0F 01 5B 73 80 AF 11 0F  01 AF 11 0F 01 74 6C 6B  ..[s.........tlk
1BA0: 30 03 02 10 74 80 03 03  10 C6 80 2B AF 11 0F 01  0...t......+....
1BB0: C7 80 23 03 04 10 C8 80  2B AF 11 0F 01 C9 80 23  ..#.....+......#
1BC0: 03 05 10 98 80 2B AF 11  0F 01 CA 80 23 2B AF 11  .....+......#+..
1BD0: 0F 01 CB 80 23 5B 73 80  AF 11 0F 01 AF 11 0F 01  ....#[s.........
1BE0: 74 6C 6B 31 03 1C 17 CC  80 27 10 AF 11 0F 01 04  tlk1.....'......
1BF0: 52 1E 80 F8 FF FF 7F F8  FF FF 7F 73 32 32 39 45  R..........s229E
1C00: 1E 80 F8 FF FF 7F F8 FF  FF 7F 73 32 33 30 02 80  ..........s230..
1C10: 2A 10 AF 11 0F 01 5B 73  80 AF 11 0F 01 AF 11 0F  *.....[s........
1C20: 01 74 6C 6B 30 2B AF 11  0F 01 CD 80 23 2B AF 11  .tlk0+......#+..
1C30: 0F 01 CE 80 23 2B AF 11  0F 01 CF 80 23 5B 73 80  ....#+......#[s.
1C40: AF 11 0F 01 AF 11 0F 01  74 6C 6B 31 03 19 17 10  ........tlk1....
1C50: 80 03 1A 17 D0 80 03 1B  17 0A 80 27 10 AF 11 0F  ...........'....
1C60: 01 03 1C 25 80 52 1E 80  F8 FF FF 7F F8 FF FF 7F  ...%.R..........
1C70: 73 32 33 30 45 1E 80 F8  FF FF 7F F8 FF FF 7F 73  s230E..........s
1C80: 32 33 31 02 80 4A AD 11  0F 01 AF 11 0F 01 6F 76  231..J........ov
1C90: AD 11 0F 01 1C 13 80 4A  F0 FF FF 7F AF 11 0F 01  .......J........
1CA0: 2B AD 11 0F 01 D1 80 23  4A AD 11 0F 01 F0 FF FF  +......#J.......
1CB0: 7F 1C 13 80 4A F0 FF FF  7F AD 11 0F 01 1C 25 80  ....J.........%.
1CC0: 52 1E 80 F8 FF FF 7F F8  FF FF 7F 73 32 33 31 02  R..........s231.
1CD0: 87 7F 27 80 80 EB 1C 45  1E 80 F8 FF FF 7F F8 FF  ..'....E........
1CE0: FF 7F 73 32 33 33 02 80  01 18 1D 02 87 7F 55 80  ..s233........U.
1CF0: 80 07 1D 45 1E 80 F8 FF  FF 7F F8 FF FF 7F 73 32  ...E..........s2
1D00: 33 33 02 80 01 18 1D 45  1E 80 F8 FF FF 7F F8 FF  33.....E........
1D10: FF 7F 73 32 33 32 02 80  6F 76 F0 FF FF 7F 2B AD  ..s232..ov....+.
1D20: 11 0F 01 D2 80 23 40 02  80 3F 80 01 10 7D 80 45  .....#@..?...}.E
1D30: 01 80 F0 FF FF 7F F0 FF  FF 7F 66 64 6F 31 02 80  ..........fdo1..
1D40: 55 01 80 F0 FF FF 7F F0  FF FF 7F 66 64 6F 31 5C  U..........fdo1\
1D50: 00 7B 80 5C 01 7B 80 02  87 7F 27 80 80 8F 1D 52  .{.\.{....'....R
1D60: 1E 80 F8 FF FF 7F F8 FF  FF 7F 73 32 32 36 52 1E  ..........s226R.
1D70: 80 F8 FF FF 7F F8 FF FF  7F 73 32 33 33 52 1E 80  .........s233R..
1D80: F8 FF FF 7F F8 FF FF 7F  73 32 34 39 01 F4 1D 02  ........s249....
1D90: 87 7F 55 80 80 C7 1D 52  1E 80 F8 FF FF 7F F8 FF  ..U....R........
1DA0: FF 7F 73 32 32 36 52 1E  80 F8 FF FF 7F F8 FF FF  ..s226R.........
1DB0: 7F 73 32 33 33 52 1E 80  F8 FF FF 7F F8 FF FF 7F  .s233R..........
1DC0: 73 32 34 39 01 F4 1D 52  1E 80 F8 FF FF 7F F8 FF  s249...R........
1DD0: FF 7F 73 32 32 35 52 1E  80 F8 FF FF 7F F8 FF FF  ..s225R.........
1DE0: 7F 73 32 33 32 52 1E 80  F8 FF FF 7F F8 FF FF 7F  .s232R..........
1DF0: 73 32 34 38 46 00 45 01  80 F0 FF FF 7F F0 FF FF  s248F.E.........
1E00: 7F 66 64 69 31 02 80 01  0D 1E 01 10 1E 01 43 1E  .fdi1.........C.
1E10: 45 01 80 F0 FF FF 7F F0  FF FF 7F 66 64 69 31 02  E..........fdi1.
1E20: 80 03 07 00 02 10 02 07  00 02 80 00 3A 1E 40 02  ............:.@.
1E30: 80 3F 80 01 10 02 80 01  43 1E 2E 03 02 10 07 00  .?......C.......
1E40: 01 F0 10 01 54 1E 02 00  10 3F 80 00 54 1E 01 F0  ....T....?..T...
1E50: 10 01 54 1E 01 57 1E 01  AB 1E 02 00 10 3F 80 00  ..T..W.......?..
1E60: 97 1E 42 2B AD 11 0F 01  69 80 23 40 02 80 3F 80  ..B+....i.#@..?.
1E70: 01 10 00 80 73 6A 80 AD  11 0F 01 F0 FF FF 7F 1C  ....sj..........
1E80: 6B 80 45 01 80 F0 FF FF  7F F0 FF FF 7F 66 64 6F  k.E..........fdo
1E90: 31 02 80 30 01 AB 1E 02  00 10 00 80 00 AB 1E 40  1..0...........@
1EA0: 02 80 3F 80 01 10 02 80  01 AB 1E 21 00 06 13 00  ..?........!....
1EB0: 02 0F 00 02 80 00 82 1F  02 0C 00 3F 80 00 C8 1E  ...........?....
1EC0: 0E 13 00 D3 80 01 CD 1E  0E 13 00 D4 80 02 0D 00  ................
1ED0: 3F 80 00 DD 1E 0E 13 00  D5 80 01 E2 1E 0E 13 00  ?...............
1EE0: D6 80 02 0A 00 02 80 00  EF 1E 0E 13 00 D7 80 9D  ................
1EF0: 00 11 20 03 10 3F 80 9D  00 51 20 04 10 3F 80 9D  .. ..?...Q ..?..
1F00: 00 11 20 05 10 7D 80 9D  00 51 20 06 10 7D 80 9D  .. ..}...Q ..}..
1F10: 00 11 20 07 10 27 80 9D  00 51 20 08 10 27 80 9D  .. ..'...Q ..'..
1F20: 00 11 20 09 10 7C 80 9D  00 51 20 00 17 7C 80 9D  .. ..|...Q ..|..
1F30: 00 11 20 01 17 D8 80 9D  00 51 20 02 17 D8 80 9D  .. ......Q .....
1F40: 00 11 20 03 17 D9 80 9D  00 51 20 04 17 D9 80 9D  .. ......Q .....
1F50: 00 11 20 05 17 DA 80 9D  00 51 20 06 17 DA 80 9D  .. ......Q .....
1F60: 00 11 20 07 17 DB 80 9D  00 51 20 08 17 DB 80 9D  .. ......Q .....
1F70: 00 11 20 09 17 11 80 9D  00 51 20 0A 17 11 80 01  .. ......Q .....
1F80: 0B 20 0E 13 00 DC 80 9D  00 11 20 03 10 90 80 9D  . ........ .....
1F90: 00 51 20 04 10 90 80 9D  00 11 20 05 10 03 80 9D  .Q ....... .....
1FA0: 00 51 20 06 10 03 80 9D  00 11 20 07 10 DD 80 9D  .Q ....... .....
1FB0: 00 51 20 08 10 DD 80 9D  00 11 20 09 10 0F 80 9D  .Q ....... .....
1FC0: 00 51 20 00 17 0F 80 9D  00 11 20 01 17 DE 80 9D  .Q ....... .....
1FD0: 00 51 20 02 17 DE 80 9D  00 11 20 03 17 35 80 9D  .Q ....... ..5..
1FE0: 00 51 20 04 17 35 80 9D  00 11 20 05 17 DF 80 9D  .Q ..5.... .....
1FF0: 00 51 20 06 17 DF 80 03  07 17 02 80 03 08 17 02  .Q .............
2000: 80 03 09 17 02 80 03 0A  17 02 80 03 0B 17 0F 00  ................
