# 17764438 - Hantileon

## Common Data

| Field            | Value                    |
|------------------|--------------------------|
| Zone             | Windurst Woods (ID: 241) |
| Block Size       | 676 bytes                |
| Total Events     | 17                       |
| References Count | 58                       |

## List of Events

| Event ID                   | Entrypoint   |   Size |   Instructions |
|----------------------------|--------------|--------|----------------|
| [65535](#event-65535)      | 0x0000       |      1 |              1 |
| [746](#event-746)          | 0x0001       |      1 |              1 |
| [742](#event-742)          | 0x0002       |      1 |              1 |
| [65535.1](#event-655351)   | 0x0003       |     15 |              3 |
| [65535.2](#event-655352)   | 0x0012       |     19 |              5 |
| [65535.3](#event-655353)   | 0x0025       |     15 |              3 |
| [65535.4](#event-655354)   | 0x0034       |     19 |              5 |
| [65535.5](#event-655355)   | 0x0047       |     36 |              4 |
| [65535.6](#event-655356)   | 0x006B       |     21 |              2 |
| [65535.7](#event-655357)   | 0x0080       |     15 |              3 |
| [65535.8](#event-655358)   | 0x008F       |     19 |              3 |
| [65535.9](#event-655359)   | 0x00A2       |     35 |              4 |
| [65535.10](#event-6553510) | 0x00C5       |     35 |              4 |
| [65535.11](#event-6553511) | 0x00E8       |     35 |              4 |
| [65535.12](#event-6553512) | 0x010B       |     35 |              4 |
| [65535.13](#event-6553513) | 0x012E       |     35 |              4 |
| [65535.14](#event-6553514) | 0x0151       |     21 |              2 |

## DAT References (imed_data)

|   Index | Hex Value   |   Dec Value |
|---------|-------------|-------------|
|       0 | 0xFFFF6FC9  |  4294930377 |
|       1 | 0xFFF6F7C1  |  4294375361 |
|       2 | 0x7CA0      |       31904 |
|       3 | 0x0E1A      |        3610 |
|       4 | 0x000D      |          13 |
|       5 | 0xFFFF70ED  |  4294930669 |
|       6 | 0xFFF707F6  |  4294379510 |
|       7 | 0x7CF4      |       31988 |
|       8 | 0x2135A     |      136026 |
|       9 | 0xFFFD7526  |  4294800678 |
|      10 | 0xFFFFD2D0  |  4294955728 |
|      11 | 0x0F7B      |        3963 |
|      12 | 0x220E5     |      139493 |
|      13 | 0xFFFD74BF  |  4294800575 |
|      14 | 0xFFFFD039  |  4294955065 |
|      15 | 0x0007      |           7 |
|      16 | 0x0002      |           2 |
|      17 | 0x0000      |           0 |
|      18 | 0x0005      |           5 |
|      19 | 0xF1CB      |       61899 |
|      20 | 0xFFFE46C4  |  4294854340 |
|      21 | 0xFFFFF63C  |  4294964796 |
|      22 | 0x07AC      |        1964 |
|      23 | 0x0001      |           1 |
|      24 | 0x0008      |           8 |
|      25 | 0x2908      |       10504 |
|      26 | 0xFFFF3FCD  |  4294918093 |
|      27 | 0x07D0      |        2000 |
|      28 | 0x01AA      |         426 |
|      29 | 0x012C      |         300 |
|      30 | 0x0006      |           6 |
|      31 | 0x0017      |          23 |
|      32 | 0xFFFFAF3E  |  4294946622 |
|      33 | 0xFFFFE2B4  |  4294959796 |
|      34 | 0xFFFFF63D  |  4294964797 |
|      35 | 0x0015      |          21 |
|      36 | 0x229D5     |      141781 |
|      37 | 0xFFFDFFAE  |  4294836142 |
|      38 | 0xFFFFEB7E  |  4294962046 |
|      39 | 0x0A04      |        2564 |
|      40 | 0x0016      |          22 |
|      41 | 0x26932     |      158002 |
|      42 | 0xFFFB2B26  |  4294650662 |
|      43 | 0x07DC      |        2012 |
|      44 | 0x0004      |           4 |
|      45 | 0x001C      |          28 |
|      46 | 0xFFFDFC29  |  4294835241 |
|      47 | 0x41CB0     |      269488 |
|      48 | 0xFFFF0DD1  |  4294905297 |
|      49 | 0x0245      |         581 |
|      50 | 0x000A      |          10 |
|      51 | 0x0018      |          24 |
|      52 | 0xFFFD1518  |  4294776088 |
|      53 | 0xFFFA3CDA  |  4294589658 |
|      54 | 0xFFFFFE0C  |  4294966796 |
|      55 | 0x0CDC      |        3292 |
|      56 | 0x0003      |           3 |
|      57 | 0x0065      |         101 |

## Events

### Event 65535

#### Metadata

| Field        | Value   |
|--------------|---------|
| Entrypoint   | 0x0000  |
| Data Size    | 1 bytes |
| Instructions | 1       |

```
      00 01 02 03 04 05 06 07  08 09 0A 0B 0C 0D 0E 0F
      -- -- -- -- -- -- -- --  -- -- -- -- -- -- -- --
0000: 00                                                .               
```

#### Opcodes

```
  0: 0x0000 [0x00] END_REQSTACK()
```

### Event 746

#### Metadata

| Field        | Value   |
|--------------|---------|
| Entrypoint   | 0x0001  |
| Data Size    | 1 bytes |
| Instructions | 1       |

```
      00 01 02 03 04 05 06 07  08 09 0A 0B 0C 0D 0E 0F
      -- -- -- -- -- -- -- --  -- -- -- -- -- -- -- --
0000:    00                                              .              
```

#### Opcodes

```
  0: 0x0001 [0x00] END_REQSTACK()
```

### Event 742

#### Metadata

| Field        | Value   |
|--------------|---------|
| Entrypoint   | 0x0002  |
| Data Size    | 1 bytes |
| Instructions | 1       |

```
      00 01 02 03 04 05 06 07  08 09 0A 0B 0C 0D 0E 0F
      -- -- -- -- -- -- -- --  -- -- -- -- -- -- -- --
0000:       00                                            .             
```

#### Opcodes

```
  0: 0x0002 [0x00] END_REQSTACK()
```

### Event 65535.1

#### Metadata

| Field        | Value    |
|--------------|----------|
| Entrypoint   | 0x0003   |
| Data Size    | 15 bytes |
| Instructions | 3        |

```
      00 01 02 03 04 05 06 07  08 09 0A 0B 0C 0D 0E 0F
      -- -- -- -- -- -- -- --  -- -- -- -- -- -- -- --
0000:          37 00 80 01 80  02 80 03 80 80 F8 FF FF     7............
0010: 7F 00                                             ..              
```

#### Opcodes

```
  0: 0x0003 [0x37] UPDATE_EVENT_POSITION_AND_DIR: x=-36.919*, z=-591.935*, y=31.904*, direction=317.3°*
  1: 0x000C [0x80] LOAD_WAIT(entity=EventEntity)
  2: 0x0011 [0x00] END_REQSTACK()
```

### Event 65535.2

#### Metadata

| Field        | Value    |
|--------------|----------|
| Entrypoint   | 0x0012   |
| Data Size    | 19 bytes |
| Instructions | 5        |

```
      00 01 02 03 04 05 06 07  08 09 0A 0B 0C 0D 0E 0F
      -- -- -- -- -- -- -- --  -- -- -- -- -- -- -- --
0010:       32 04 80 1F 00 05  80 06 80 07 80 1F 01 1E    2.............
0020: F0 FF FF 7F 00                                    .....           
```

#### Opcodes

```
  0: 0x0012 [0x32] ExtData[1]->MainSpeed = 13* * 0.1
  1: 0x0015 [0x1F] MOVE_ENTITY: EventEntity moves to X=-36.627*, Z=-587.786*, Y=31.988*
  2: 0x001D [0x1F] MOVE_ENTITY: Update entity position (mode=1)
  3: 0x001F [0x1E] EventEntity looks at LocalPlayer and starts talking
  4: 0x0024 [0x00] END_REQSTACK()
```

### Event 65535.3

#### Metadata

| Field        | Value    |
|--------------|----------|
| Entrypoint   | 0x0025   |
| Data Size    | 15 bytes |
| Instructions | 3        |

```
      00 01 02 03 04 05 06 07  08 09 0A 0B 0C 0D 0E 0F
      -- -- -- -- -- -- -- --  -- -- -- -- -- -- -- --
0020:                37 08 80  09 80 0A 80 0B 80 80 F8       7..........
0030: FF FF 7F 00                                       ....            
```

#### Opcodes

```
  0: 0x0025 [0x37] UPDATE_EVENT_POSITION_AND_DIR: x=136.026*, z=-166.618*, y=-11.568*, direction=348.3°*
  1: 0x002E [0x80] LOAD_WAIT(entity=EventEntity)
  2: 0x0033 [0x00] END_REQSTACK()
```

### Event 65535.4

#### Metadata

| Field        | Value    |
|--------------|----------|
| Entrypoint   | 0x0034   |
| Data Size    | 19 bytes |
| Instructions | 5        |

```
      00 01 02 03 04 05 06 07  08 09 0A 0B 0C 0D 0E 0F
      -- -- -- -- -- -- -- --  -- -- -- -- -- -- -- --
0030:             32 04 80 1F  00 0C 80 0D 80 0E 80 1F      2...........
0040: 01 1E F0 FF FF 7F 00                              .......         
```

#### Opcodes

```
  0: 0x0034 [0x32] ExtData[1]->MainSpeed = 13* * 0.1
  1: 0x0037 [0x1F] MOVE_ENTITY: EventEntity moves to X=139.493*, Z=-166.721*, Y=-12.231*
  2: 0x003F [0x1F] MOVE_ENTITY: Update entity position (mode=1)
  3: 0x0041 [0x1E] EventEntity looks at LocalPlayer and starts talking
  4: 0x0046 [0x00] END_REQSTACK()
```

### Event 65535.5

#### Metadata

| Field        | Value    |
|--------------|----------|
| Entrypoint   | 0x0047   |
| Data Size    | 36 bytes |
| Instructions | 4        |

```
      00 01 02 03 04 05 06 07  08 09 0A 0B 0C 0D 0E 0F
      -- -- -- -- -- -- -- --  -- -- -- -- -- -- -- --
0040:                      92  01 56 10 0F 01 B6 0B 0F         ..V......
0050: 80 10 80 11 80 12 80 12  80 12 80 12 80 11 80 11  ................
0060: 80 37 13 80 14 80 15 80  16 80 00                 .7.........     
```

#### Opcodes

```
  0: 0x0047 [0x92] Hantileon (ID: 17764438/0x010F1056)->Render.Flags3 ^= 0x01
  1: 0x004D [0xB6] ENTITY_APPEARANCE_HANDLER(case=Full entity look, race=7*, hair=2*, head=0*, body=5*, hands=5*, legs=5*, feet=5*, main=0*, sub=0*)
  2: 0x0061 [0x37] UPDATE_EVENT_POSITION_AND_DIR: x=61.899*, z=-112.956*, y=-2.500*, direction=172.6°*
  3: 0x006A [0x00] END_REQSTACK()
```

### Event 65535.6

#### Metadata

| Field        | Value    |
|--------------|----------|
| Entrypoint   | 0x006B   |
| Data Size    | 21 bytes |
| Instructions | 2        |

```
      00 01 02 03 04 05 06 07  08 09 0A 0B 0C 0D 0E 0F
      -- -- -- -- -- -- -- --  -- -- -- -- -- -- -- --
0060:                                   B6 0B 0F 80 17             .....
0070: 80 11 80 18 80 18 80 18  80 18 80 11 80 11 80 00  ................
```

#### Opcodes

```
  0: 0x006B [0xB6] ENTITY_APPEARANCE_HANDLER(case=Full entity look, race=7*, hair=1*, head=0*, body=8*, hands=8*, legs=8*, feet=8*, main=0*, sub=0*)
  1: 0x007F [0x00] END_REQSTACK()
```

### Event 65535.7

#### Metadata

| Field        | Value    |
|--------------|----------|
| Entrypoint   | 0x0080   |
| Data Size    | 15 bytes |
| Instructions | 3        |

```
      00 01 02 03 04 05 06 07  08 09 0A 0B 0C 0D 0E 0F
      -- -- -- -- -- -- -- --  -- -- -- -- -- -- -- --
0080: 37 19 80 1A 80 1B 80 1C  80 80 F8 FF FF 7F 00     7.............. 
```

#### Opcodes

```
  0: 0x0080 [0x37] UPDATE_EVENT_POSITION_AND_DIR: x=10.504*, z=-49.203*, y=2.000*, direction=37.4°*
  1: 0x0089 [0x80] LOAD_WAIT(entity=EventEntity)
  2: 0x008E [0x00] END_REQSTACK()
```

### Event 65535.8

#### Metadata

| Field        | Value    |
|--------------|----------|
| Entrypoint   | 0x008F   |
| Data Size    | 19 bytes |
| Instructions | 3        |

```
      00 01 02 03 04 05 06 07  08 09 0A 0B 0C 0D 0E 0F
      -- -- -- -- -- -- -- --  -- -- -- -- -- -- -- --
0080:                                               1C                 .
0090: 1D 80 66 18 80 F8 FF FF  7F F8 FF FF 7F 75 72 65  ..f..........ure
00A0: 30 00                                             0.              
```

#### Opcodes

```
  0: 0x008F [0x1C] WAIT(300* ticks)
  1: 0x0092 [0x66] LOAD_EXT_SCHEDULER_MAIN: Load scheduler "ure0" with entities [EventEntity, EventEntity], work=8*
  2: 0x00A1 [0x00] END_REQSTACK()
```

### Event 65535.9

#### Metadata

| Field        | Value    |
|--------------|----------|
| Entrypoint   | 0x00A2   |
| Data Size    | 35 bytes |
| Instructions | 4        |

```
      00 01 02 03 04 05 06 07  08 09 0A 0B 0C 0D 0E 0F
      -- -- -- -- -- -- -- --  -- -- -- -- -- -- -- --
00A0:       B6 0B 1E 80 10 80  11 80 12 80 1F 80 1F 80    ..............
00B0: 1F 80 11 80 11 80 37 20  80 21 80 22 80 11 80 80  ......7 .!."....
00C0: F8 FF FF 7F 00                                    .....           
```

#### Opcodes

```
  0: 0x00A2 [0xB6] ENTITY_APPEARANCE_HANDLER(case=Full entity look, race=6*, hair=2*, head=0*, body=5*, hands=23*, legs=23*, feet=23*, main=0*, sub=0*)
  1: 0x00B6 [0x37] UPDATE_EVENT_POSITION_AND_DIR: x=-20.674*, z=-7.500*, y=-2.499*, direction=0.0°*
  2: 0x00BF [0x80] LOAD_WAIT(entity=EventEntity)
  3: 0x00C4 [0x00] END_REQSTACK()
```

### Event 65535.10

#### Metadata

| Field        | Value    |
|--------------|----------|
| Entrypoint   | 0x00C5   |
| Data Size    | 35 bytes |
| Instructions | 4        |

```
      00 01 02 03 04 05 06 07  08 09 0A 0B 0C 0D 0E 0F
      -- -- -- -- -- -- -- --  -- -- -- -- -- -- -- --
00C0:                B6 0B 0F  80 10 80 11 80 23 80 23       ........#.#
00D0: 80 23 80 23 80 11 80 11  80 37 24 80 25 80 26 80  .#.#.....7$.%.&.
00E0: 27 80 80 F8 FF FF 7F 00                           '.......        
```

#### Opcodes

```
  0: 0x00C5 [0xB6] ENTITY_APPEARANCE_HANDLER(case=Full entity look, race=7*, hair=2*, head=0*, body=21*, hands=21*, legs=21*, feet=21*, main=0*, sub=0*)
  1: 0x00D9 [0x37] UPDATE_EVENT_POSITION_AND_DIR: x=141.781*, z=-131.154*, y=-5.250*, direction=225.3°*
  2: 0x00E2 [0x80] LOAD_WAIT(entity=EventEntity)
  3: 0x00E7 [0x00] END_REQSTACK()
```

### Event 65535.11

#### Metadata

| Field        | Value    |
|--------------|----------|
| Entrypoint   | 0x00E8   |
| Data Size    | 35 bytes |
| Instructions | 4        |

```
      00 01 02 03 04 05 06 07  08 09 0A 0B 0C 0D 0E 0F
      -- -- -- -- -- -- -- --  -- -- -- -- -- -- -- --
00E0:                          B6 0B 12 80 17 80 11 80          ........
00F0: 28 80 28 80 28 80 28 80  11 80 11 80 37 29 80 2A  (.(.(.(.....7).*
0100: 80 11 80 2B 80 80 F8 FF  FF 7F 00                 ...+.......     
```

#### Opcodes

```
  0: 0x00E8 [0xB6] ENTITY_APPEARANCE_HANDLER(case=Full entity look, race=5*, hair=1*, head=0*, body=22*, hands=22*, legs=22*, feet=22*, main=0*, sub=0*)
  1: 0x00FC [0x37] UPDATE_EVENT_POSITION_AND_DIR: x=158.002*, z=-316.634*, y=0.000*, direction=176.8°*
  2: 0x0105 [0x80] LOAD_WAIT(entity=EventEntity)
  3: 0x010A [0x00] END_REQSTACK()
```

### Event 65535.12

#### Metadata

| Field        | Value    |
|--------------|----------|
| Entrypoint   | 0x010B   |
| Data Size    | 35 bytes |
| Instructions | 4        |

```
      00 01 02 03 04 05 06 07  08 09 0A 0B 0C 0D 0E 0F
      -- -- -- -- -- -- -- --  -- -- -- -- -- -- -- --
0100:                                   B6 0B 2C 80 17             ..,..
0110: 80 2D 80 2D 80 2D 80 2D  80 2D 80 11 80 11 80 37  .-.-.-.-.-.....7
0120: 2E 80 2F 80 30 80 31 80  80 F8 FF FF 7F 00        ../.0.1.......  
```

#### Opcodes

```
  0: 0x010B [0xB6] ENTITY_APPEARANCE_HANDLER(case=Full entity look, race=4*, hair=1*, head=28*, body=28*, hands=28*, legs=28*, feet=28*, main=0*, sub=0*)
  1: 0x011F [0x37] UPDATE_EVENT_POSITION_AND_DIR: x=-132.055*, z=269.488*, y=-61.999*, direction=51.1°*
  2: 0x0128 [0x80] LOAD_WAIT(entity=EventEntity)
  3: 0x012D [0x00] END_REQSTACK()
```

### Event 65535.13

#### Metadata

| Field        | Value    |
|--------------|----------|
| Entrypoint   | 0x012E   |
| Data Size    | 35 bytes |
| Instructions | 4        |

```
      00 01 02 03 04 05 06 07  08 09 0A 0B 0C 0D 0E 0F
      -- -- -- -- -- -- -- --  -- -- -- -- -- -- -- --
0120:                                            B6 0B                ..
0130: 2C 80 11 80 23 80 18 80  32 80 23 80 33 80 11 80  ,...#...2.#.3...
0140: 11 80 37 34 80 35 80 36  80 37 80 80 F8 FF FF 7F  ..74.5.6.7......
0150: 00                                                .               
```

#### Opcodes

```
  0: 0x012E [0xB6] ENTITY_APPEARANCE_HANDLER(case=Full entity look, race=4*, hair=0*, head=21*, body=8*, hands=10*, legs=21*, feet=24*, main=0*, sub=0*)
  1: 0x0142 [0x37] UPDATE_EVENT_POSITION_AND_DIR: x=-191.208*, z=-377.638*, y=-0.500*, direction=289.3°*
  2: 0x014B [0x80] LOAD_WAIT(entity=EventEntity)
  3: 0x0150 [0x00] END_REQSTACK()
```

### Event 65535.14

#### Metadata

| Field        | Value    |
|--------------|----------|
| Entrypoint   | 0x0151   |
| Data Size    | 21 bytes |
| Instructions | 2        |

```
      00 01 02 03 04 05 06 07  08 09 0A 0B 0C 0D 0E 0F
      -- -- -- -- -- -- -- --  -- -- -- -- -- -- -- --
0150:    B6 0B 38 80 1E 80 11  80 39 80 39 80 39 80 39   ..8.....9.9.9.9
0160: 80 11 80 11 80 00                                 ......          
```

#### Opcodes

```
  0: 0x0151 [0xB6] ENTITY_APPEARANCE_HANDLER(case=Full entity look, race=3*, hair=6*, head=0*, body=101*, hands=101*, legs=101*, feet=101*, main=0*, sub=0*)
  1: 0x0165 [0x00] END_REQSTACK()
```
