# 17764531 - Soni-Muni

## Common Data

| Field            | Value                    |
|------------------|--------------------------|
| Zone             | Windurst Woods (ID: 241) |
| Block Size       | 1680 bytes               |
| Total Events     | 40                       |
| References Count | 42                       |

## List of Events

| Event ID                   | Entrypoint   |   Size |   Instructions |
|----------------------------|--------------|--------|----------------|
| [65535](#event-65535)      | 0x0000       |      1 |              1 |
| [65535.1](#event-655351)   | 0x0001       |     16 |              2 |
| [65535.2](#event-655352)   | 0x0011       |     22 |              4 |
| [65535.3](#event-655353)   | 0x0027       |     16 |              2 |
| [65535.4](#event-655354)   | 0x0037       |     14 |              2 |
| [65535.5](#event-655355)   | 0x0045       |     16 |              2 |
| [65535.6](#event-655356)   | 0x0055       |     14 |              2 |
| [65535.7](#event-655357)   | 0x0063       |     16 |              2 |
| [65535.8](#event-655358)   | 0x0073       |     14 |              2 |
| [65535.9](#event-655359)   | 0x0081       |     16 |              2 |
| [65535.10](#event-6553510) | 0x0091       |     14 |              2 |
| [65535.11](#event-6553511) | 0x009F       |     16 |              2 |
| [65535.12](#event-6553512) | 0x00AF       |     14 |              2 |
| [65535.13](#event-6553513) | 0x00BD       |     16 |              2 |
| [65535.14](#event-6553514) | 0x00CD       |     22 |              4 |
| [65535.15](#event-6553515) | 0x00E3       |     16 |              2 |
| [65535.16](#event-6553516) | 0x00F3       |     14 |              2 |
| [65535.17](#event-6553517) | 0x0101       |     16 |              2 |
| [65535.18](#event-6553518) | 0x0111       |     14 |              2 |
| [65535.19](#event-6553519) | 0x011F       |     16 |              2 |
| [65535.20](#event-6553520) | 0x012F       |     14 |              2 |
| [65535.21](#event-6553521) | 0x013D       |     16 |              2 |
| [65535.22](#event-6553522) | 0x014D       |     22 |              4 |
| [65535.23](#event-6553523) | 0x0163       |     16 |              2 |
| [65535.24](#event-6553524) | 0x0173       |     14 |              2 |
| [65535.25](#event-6553525) | 0x0181       |      9 |              3 |
| [421](#event-421)          | 0x018A       |     23 |              9 |
| [481](#event-481)          | 0x01A1       |     70 |             24 |
| [482](#event-482)          | 0x01E7       |     62 |             16 |
| [484](#event-484)          | 0x0225       |    712 |            111 |
| [65535.26](#event-6553526) | 0x04ED       |      5 |              3 |
| [65535.27](#event-6553527) | 0x04F2       |     19 |              5 |
| [65535.28](#event-6553528) | 0x0505       |      5 |              3 |
| [485](#event-485)          | 0x050A       |     15 |              8 |
| [735](#event-735)          | 0x0519       |     24 |             10 |
| [746](#event-746)          | 0x0531       |      1 |              1 |
| [742](#event-742)          | 0x0532       |      1 |              1 |
| [839](#event-839)          | 0x0533       |      1 |              1 |
| [871](#event-871)          | 0x0534       |      1 |              1 |
| [872](#event-872)          | 0x0535       |      1 |              1 |

## DAT References (imed_data)

|   Index | Hex Value   |   Dec Value |
|---------|-------------|-------------|
|       0 | 0x0028      |          40 |
|       1 | 0x001E      |          30 |
|       2 | 0x0029      |          41 |
|       3 | 0x002A      |          42 |
|       4 | 0x2147      |        8519 |
|       5 | 0x2148      |        8520 |
|       6 | 0x21F6      |        8694 |
|       7 | 0x21F7      |        8695 |
|       8 | 0x21F8      |        8696 |
|       9 | 0x21F9      |        8697 |
|      10 | 0x21FA      |        8698 |
|      11 | 0x21FB      |        8699 |
|      12 | 0x00C8      |         200 |
|      13 | 0x0000      |           0 |
|      14 | 0x003C      |          60 |
|      15 | 0x0003      |           3 |
|      16 | 0xFFFFBA35  |  4294949429 |
|      17 | 0xFFFF16EB  |  4294907627 |
|      18 | 0x06D5      |        1749 |
|      19 | 0x0ABE      |        2750 |
|      20 | 0x008D      |         141 |
|      21 | 0x21FE      |        8702 |
|      22 | 0x21FF      |        8703 |
|      23 | 0x2200      |        8704 |
|      24 | 0x2201      |        8705 |
|      25 | 0x2203      |        8707 |
|      26 | 0x0A5A      |        2650 |
|      27 | 0x2204      |        8708 |
|      28 | 0x2205      |        8709 |
|      29 | 0xFFFFB54D  |  4294948173 |
|      30 | 0xFFFF1DE9  |  4294909417 |
|      31 | 0x0ABD      |        2749 |
|      32 | 0xFFFFB123  |  4294947107 |
|      33 | 0xFFFF271F  |  4294911775 |
|      34 | 0x00C9      |         201 |
|      35 | 0x2206      |        8710 |
|      36 | 0x2208      |        8712 |
|      37 | 0x220A      |        8714 |
|      38 | 0x220C      |        8716 |
|      39 | 0x28B2      |       10418 |
|      40 | 0x28BE      |       10430 |
|      41 | 0x28BF      |       10431 |

## String References

- **8519**: It's that very attitude that's stoppin' you from ever findin' the old pirate king's treasure, y'know-wow!?
- **8520**: C'mon, we've gotta getta move on, Gottah! Hurry up and buy that armor you've been wantin' at the port-wort so we can go out and level up some more-wore!
- **8694**: Soni-Muni's me name. I'm currently travelin' the world in trainin' to become the greatest fighter who ever lived, and to git me hands on the greatest treasure that ever was!
- **8695**: Over there's me mate, Gottah. As you can see, she's one spunky monk-y. Unfortunately, she's lost her motivation and has begun to take it all too easy as of late.
- **8696**: I'd just luv to rekindle her passion for adventure once again, but blow if I know what to do...?
- **8697**: Come to think of it...the other day, when I told her the story of the great monk Scorpio who fought a giant scorpion with his bare hands and broke off its $2...well, she showed a bit of interest for once...
- **8698**: My mate Gottah over there has lost all motivation as of late. I'd like to rekindle her passion for adventure, but blow if I know what to do...?
- **8699**: Come to think of it...the other day, when I told her the story of the great monk Scorpio who fought a giant scorpion with his bare hands and broke off its $2...well, she showed a bit of interest for once...
- **8702**: Whoa, looky-looky...ain't this somethin'? You didn't happen to break this off with your bare hands, now, did you?
- **8703**: Hah! Yeah, right...as if...? But anyway, here goes nothin'...
- **8704**: Oi, Gottah! Getta load of this I've gotta!
- **8705**: This here adventurer took out a giant scorpion to get [his/her] hands on it. Ain't it somethin'!?
- **8707**: Oi, oi! Don't be givin' me no "ho-hums" there, chum! Don't you feel anythin' anywhere in that heart of yours?
- **8708**: Think about how this wishy-washy excuse for an adventurer went through all that trouble just to bring back and show us one of these! Speakin' of which, where did you get your hands on this, mate?
- **8709**: What's that, you say...? North of Tahrongi Canyon in the Maze of Shakhrami? Well I'll be amazed and shock-whammied!
- **8710**: Oh!?
- **8712**: The pirate king departs his throne To cross the valley of Deathy With tattered flesh and splintered bone He digs till his last breathy.
- **8714**: Who'd have thought there were scorpions in the ol' Maze of Shakhrami!? We've gotta go check this out, eh, Gottah!? Oh, and thanks a lot, adventurer.
- **8716**: That's what I've been sayin'-wayin' all this time! We could have been out there levelin' up instead of standin' here all day! Arrrgh!!!
- **10418**: <Player>'s badge flashes brightly.
- **10430**: Hey chap, have ye heard? They say there be treasures in Aht Urhgan that nobody's laid eyes on as yet!
- **10431**: Ye hear that, Gottah? Pack yer bags, 'cause we're takin' off for the high seas!

## Events

### Event 65535

#### Metadata

| Field        | Value   |
|--------------|---------|
| Entrypoint   | 0x0000  |
| Data Size    | 1 bytes |
| Instructions | 1       |

```
      00 01 02 03 04 05 06 07  08 09 0A 0B 0C 0D 0E 0F
      -- -- -- -- -- -- -- --  -- -- -- -- -- -- -- --
0000: 00                                                .               
```

#### Opcodes

```
  0: 0x0000 [0x00] END_REQSTACK()
```

### Event 65535.1

#### Metadata

| Field        | Value    |
|--------------|----------|
| Entrypoint   | 0x0001   |
| Data Size    | 16 bytes |
| Instructions | 2        |

```
      00 01 02 03 04 05 06 07  08 09 0A 0B 0C 0D 0E 0F
      -- -- -- -- -- -- -- --  -- -- -- -- -- -- -- --
0000:    66 00 80 F8 FF FF 7F  F8 FF FF 7F 74 6C 6B 30   f..........tlk0
0010: 00                                                .               
```

#### Opcodes

```
  0: 0x0001 [0x66] LOAD_EXT_SCHEDULER_MAIN: Load scheduler "tlk0" with entities [EventEntity, EventEntity], work=40*
  1: 0x0010 [0x00] END_REQSTACK()
```

### Event 65535.2

#### Metadata

| Field        | Value    |
|--------------|----------|
| Entrypoint   | 0x0011   |
| Data Size    | 22 bytes |
| Instructions | 4        |

```
      00 01 02 03 04 05 06 07  08 09 0A 0B 0C 0D 0E 0F
      -- -- -- -- -- -- -- --  -- -- -- -- -- -- -- --
0010:    53 F8 FF FF 7F F8 FF  FF 7F 74 6C 6B 30 5E 69   S........tlk0^i
0020: 64 6C 30 1C 01 80 00                              dl0....         
```

#### Opcodes

```
  0: 0x0011 [0x53] WAIT_SCHEDULER_TASK: Wait for scheduler "tlk0" with entities [EventEntity, EventEntity]
  1: 0x001E [0x5E] EventEntity goes idle (kills current action) (animation: "idl0")
  2: 0x0023 [0x1C] WAIT(30* ticks)
  3: 0x0026 [0x00] END_REQSTACK()
```

### Event 65535.3

#### Metadata

| Field        | Value    |
|--------------|----------|
| Entrypoint   | 0x0027   |
| Data Size    | 16 bytes |
| Instructions | 2        |

```
      00 01 02 03 04 05 06 07  08 09 0A 0B 0C 0D 0E 0F
      -- -- -- -- -- -- -- --  -- -- -- -- -- -- -- --
0020:                      66  00 80 F8 FF FF 7F F8 FF         f........
0030: FF 7F 74 68 6B 31 00                              ..thk1.         
```

#### Opcodes

```
  0: 0x0027 [0x66] LOAD_EXT_SCHEDULER_MAIN: Load scheduler "thk1" with entities [EventEntity, EventEntity], work=40*
  1: 0x0036 [0x00] END_REQSTACK()
```

### Event 65535.4

#### Metadata

| Field        | Value    |
|--------------|----------|
| Entrypoint   | 0x0037   |
| Data Size    | 14 bytes |
| Instructions | 2        |

```
      00 01 02 03 04 05 06 07  08 09 0A 0B 0C 0D 0E 0F
      -- -- -- -- -- -- -- --  -- -- -- -- -- -- -- --
0030:                      53  F8 FF FF 7F F8 FF FF 7F         S........
0040: 74 68 6B 31 00                                    thk1.           
```

#### Opcodes

```
  0: 0x0037 [0x53] WAIT_SCHEDULER_TASK: Wait for scheduler "thk1" with entities [EventEntity, EventEntity]
  1: 0x0044 [0x00] END_REQSTACK()
```

### Event 65535.5

#### Metadata

| Field        | Value    |
|--------------|----------|
| Entrypoint   | 0x0045   |
| Data Size    | 16 bytes |
| Instructions | 2        |

```
      00 01 02 03 04 05 06 07  08 09 0A 0B 0C 0D 0E 0F
      -- -- -- -- -- -- -- --  -- -- -- -- -- -- -- --
0040:                66 00 80  F8 FF FF 7F F8 FF FF 7F       f..........
0050: 74 68 6B 32 00                                    thk2.           
```

#### Opcodes

```
  0: 0x0045 [0x66] LOAD_EXT_SCHEDULER_MAIN: Load scheduler "thk2" with entities [EventEntity, EventEntity], work=40*
  1: 0x0054 [0x00] END_REQSTACK()
```

### Event 65535.6

#### Metadata

| Field        | Value    |
|--------------|----------|
| Entrypoint   | 0x0055   |
| Data Size    | 14 bytes |
| Instructions | 2        |

```
      00 01 02 03 04 05 06 07  08 09 0A 0B 0C 0D 0E 0F
      -- -- -- -- -- -- -- --  -- -- -- -- -- -- -- --
0050:                53 F8 FF  FF 7F F8 FF FF 7F 74 68       S........th
0060: 6B 32 00                                          k2.             
```

#### Opcodes

```
  0: 0x0055 [0x53] WAIT_SCHEDULER_TASK: Wait for scheduler "thk2" with entities [EventEntity, EventEntity]
  1: 0x0062 [0x00] END_REQSTACK()
```

### Event 65535.7

#### Metadata

| Field        | Value    |
|--------------|----------|
| Entrypoint   | 0x0063   |
| Data Size    | 16 bytes |
| Instructions | 2        |

```
      00 01 02 03 04 05 06 07  08 09 0A 0B 0C 0D 0E 0F
      -- -- -- -- -- -- -- --  -- -- -- -- -- -- -- --
0060:          66 00 80 F8 FF  FF 7F F8 FF FF 7F 64 69     f..........di
0070: 73 30 00                                          s0.             
```

#### Opcodes

```
  0: 0x0063 [0x66] LOAD_EXT_SCHEDULER_MAIN: Load scheduler "dis0" with entities [EventEntity, EventEntity], work=40*
  1: 0x0072 [0x00] END_REQSTACK()
```

### Event 65535.8

#### Metadata

| Field        | Value    |
|--------------|----------|
| Entrypoint   | 0x0073   |
| Data Size    | 14 bytes |
| Instructions | 2        |

```
      00 01 02 03 04 05 06 07  08 09 0A 0B 0C 0D 0E 0F
      -- -- -- -- -- -- -- --  -- -- -- -- -- -- -- --
0070:          53 F8 FF FF 7F  F8 FF FF 7F 64 69 73 30     S........dis0
0080: 00                                                .               
```

#### Opcodes

```
  0: 0x0073 [0x53] WAIT_SCHEDULER_TASK: Wait for scheduler "dis0" with entities [EventEntity, EventEntity]
  1: 0x0080 [0x00] END_REQSTACK()
```

### Event 65535.9

#### Metadata

| Field        | Value    |
|--------------|----------|
| Entrypoint   | 0x0081   |
| Data Size    | 16 bytes |
| Instructions | 2        |

```
      00 01 02 03 04 05 06 07  08 09 0A 0B 0C 0D 0E 0F
      -- -- -- -- -- -- -- --  -- -- -- -- -- -- -- --
0080:    66 00 80 F8 FF FF 7F  F8 FF FF 7F 77 61 76 30   f..........wav0
0090: 00                                                .               
```

#### Opcodes

```
  0: 0x0081 [0x66] LOAD_EXT_SCHEDULER_MAIN: Load scheduler "wav0" with entities [EventEntity, EventEntity], work=40*
  1: 0x0090 [0x00] END_REQSTACK()
```

### Event 65535.10

#### Metadata

| Field        | Value    |
|--------------|----------|
| Entrypoint   | 0x0091   |
| Data Size    | 14 bytes |
| Instructions | 2        |

```
      00 01 02 03 04 05 06 07  08 09 0A 0B 0C 0D 0E 0F
      -- -- -- -- -- -- -- --  -- -- -- -- -- -- -- --
0090:    53 F8 FF FF 7F F8 FF  FF 7F 77 61 76 30 00      S........wav0. 
```

#### Opcodes

```
  0: 0x0091 [0x53] WAIT_SCHEDULER_TASK: Wait for scheduler "wav0" with entities [EventEntity, EventEntity]
  1: 0x009E [0x00] END_REQSTACK()
```

### Event 65535.11

#### Metadata

| Field        | Value    |
|--------------|----------|
| Entrypoint   | 0x009F   |
| Data Size    | 16 bytes |
| Instructions | 2        |

```
      00 01 02 03 04 05 06 07  08 09 0A 0B 0C 0D 0E 0F
      -- -- -- -- -- -- -- --  -- -- -- -- -- -- -- --
0090:                                               66                 f
00A0: 02 80 F8 FF FF 7F F8 FF  FF 7F 73 68 6B 30 00     ..........shk0. 
```

#### Opcodes

```
  0: 0x009F [0x66] LOAD_EXT_SCHEDULER_MAIN: Load scheduler "shk0" with entities [EventEntity, EventEntity], work=41*
  1: 0x00AE [0x00] END_REQSTACK()
```

### Event 65535.12

#### Metadata

| Field        | Value    |
|--------------|----------|
| Entrypoint   | 0x00AF   |
| Data Size    | 14 bytes |
| Instructions | 2        |

```
      00 01 02 03 04 05 06 07  08 09 0A 0B 0C 0D 0E 0F
      -- -- -- -- -- -- -- --  -- -- -- -- -- -- -- --
00A0:                                               53                 S
00B0: F8 FF FF 7F F8 FF FF 7F  73 68 6B 30 00           ........shk0.   
```

#### Opcodes

```
  0: 0x00AF [0x53] WAIT_SCHEDULER_TASK: Wait for scheduler "shk0" with entities [EventEntity, EventEntity]
  1: 0x00BC [0x00] END_REQSTACK()
```

### Event 65535.13

#### Metadata

| Field        | Value    |
|--------------|----------|
| Entrypoint   | 0x00BD   |
| Data Size    | 16 bytes |
| Instructions | 2        |

```
      00 01 02 03 04 05 06 07  08 09 0A 0B 0C 0D 0E 0F
      -- -- -- -- -- -- -- --  -- -- -- -- -- -- -- --
00B0:                                         66 03 80               f..
00C0: F8 FF FF 7F F8 FF FF 7F  62 69 6B 30 00           ........bik0.   
```

#### Opcodes

```
  0: 0x00BD [0x66] LOAD_EXT_SCHEDULER_MAIN: Load scheduler "bik0" with entities [EventEntity, EventEntity], work=42*
  1: 0x00CC [0x00] END_REQSTACK()
```

### Event 65535.14

#### Metadata

| Field        | Value    |
|--------------|----------|
| Entrypoint   | 0x00CD   |
| Data Size    | 22 bytes |
| Instructions | 4        |

```
      00 01 02 03 04 05 06 07  08 09 0A 0B 0C 0D 0E 0F
      -- -- -- -- -- -- -- --  -- -- -- -- -- -- -- --
00C0:                                         53 F8 FF               S..
00D0: FF 7F F8 FF FF 7F 62 69  6B 30 5E 69 64 6C 30 1C  ......bik0^idl0.
00E0: 01 80 00                                          ...             
```

#### Opcodes

```
  0: 0x00CD [0x53] WAIT_SCHEDULER_TASK: Wait for scheduler "bik0" with entities [EventEntity, EventEntity]
  1: 0x00DA [0x5E] EventEntity goes idle (kills current action) (animation: "idl0")
  2: 0x00DF [0x1C] WAIT(30* ticks)
  3: 0x00E2 [0x00] END_REQSTACK()
```

### Event 65535.15

#### Metadata

| Field        | Value    |
|--------------|----------|
| Entrypoint   | 0x00E3   |
| Data Size    | 16 bytes |
| Instructions | 2        |

```
      00 01 02 03 04 05 06 07  08 09 0A 0B 0C 0D 0E 0F
      -- -- -- -- -- -- -- --  -- -- -- -- -- -- -- --
00E0:          66 00 80 F8 FF  FF 7F F8 FF FF 7F 73 79     f..........sy
00F0: 75 30 00                                          u0.             
```

#### Opcodes

```
  0: 0x00E3 [0x66] LOAD_EXT_SCHEDULER_MAIN: Load scheduler "syu0" with entities [EventEntity, EventEntity], work=40*
  1: 0x00F2 [0x00] END_REQSTACK()
```

### Event 65535.16

#### Metadata

| Field        | Value    |
|--------------|----------|
| Entrypoint   | 0x00F3   |
| Data Size    | 14 bytes |
| Instructions | 2        |

```
      00 01 02 03 04 05 06 07  08 09 0A 0B 0C 0D 0E 0F
      -- -- -- -- -- -- -- --  -- -- -- -- -- -- -- --
00F0:          53 F8 FF FF 7F  F8 FF FF 7F 73 79 75 30     S........syu0
0100: 00                                                .               
```

#### Opcodes

```
  0: 0x00F3 [0x53] WAIT_SCHEDULER_TASK: Wait for scheduler "syu0" with entities [EventEntity, EventEntity]
  1: 0x0100 [0x00] END_REQSTACK()
```

### Event 65535.17

#### Metadata

| Field        | Value    |
|--------------|----------|
| Entrypoint   | 0x0101   |
| Data Size    | 16 bytes |
| Instructions | 2        |

```
      00 01 02 03 04 05 06 07  08 09 0A 0B 0C 0D 0E 0F
      -- -- -- -- -- -- -- --  -- -- -- -- -- -- -- --
0100:    66 00 80 F8 FF FF 7F  F8 FF FF 7F 69 72 6F 30   f..........iro0
0110: 00                                                .               
```

#### Opcodes

```
  0: 0x0101 [0x66] LOAD_EXT_SCHEDULER_MAIN: Load scheduler "iro0" with entities [EventEntity, EventEntity], work=40*
  1: 0x0110 [0x00] END_REQSTACK()
```

### Event 65535.18

#### Metadata

| Field        | Value    |
|--------------|----------|
| Entrypoint   | 0x0111   |
| Data Size    | 14 bytes |
| Instructions | 2        |

```
      00 01 02 03 04 05 06 07  08 09 0A 0B 0C 0D 0E 0F
      -- -- -- -- -- -- -- --  -- -- -- -- -- -- -- --
0110:    53 F8 FF FF 7F F8 FF  FF 7F 69 72 6F 30 00      S........iro0. 
```

#### Opcodes

```
  0: 0x0111 [0x53] WAIT_SCHEDULER_TASK: Wait for scheduler "iro0" with entities [EventEntity, EventEntity]
  1: 0x011E [0x00] END_REQSTACK()
```

### Event 65535.19

#### Metadata

| Field        | Value    |
|--------------|----------|
| Entrypoint   | 0x011F   |
| Data Size    | 16 bytes |
| Instructions | 2        |

```
      00 01 02 03 04 05 06 07  08 09 0A 0B 0C 0D 0E 0F
      -- -- -- -- -- -- -- --  -- -- -- -- -- -- -- --
0110:                                               66                 f
0120: 00 80 F8 FF FF 7F F8 FF  FF 7F 70 6F 69 30 00     ..........poi0. 
```

#### Opcodes

```
  0: 0x011F [0x66] LOAD_EXT_SCHEDULER_MAIN: Load scheduler "poi0" with entities [EventEntity, EventEntity], work=40*
  1: 0x012E [0x00] END_REQSTACK()
```

### Event 65535.20

#### Metadata

| Field        | Value    |
|--------------|----------|
| Entrypoint   | 0x012F   |
| Data Size    | 14 bytes |
| Instructions | 2        |

```
      00 01 02 03 04 05 06 07  08 09 0A 0B 0C 0D 0E 0F
      -- -- -- -- -- -- -- --  -- -- -- -- -- -- -- --
0120:                                               53                 S
0130: F8 FF FF 7F F8 FF FF 7F  70 6F 69 30 00           ........poi0.   
```

#### Opcodes

```
  0: 0x012F [0x53] WAIT_SCHEDULER_TASK: Wait for scheduler "poi0" with entities [EventEntity, EventEntity]
  1: 0x013C [0x00] END_REQSTACK()
```

### Event 65535.21

#### Metadata

| Field        | Value    |
|--------------|----------|
| Entrypoint   | 0x013D   |
| Data Size    | 16 bytes |
| Instructions | 2        |

```
      00 01 02 03 04 05 06 07  08 09 0A 0B 0C 0D 0E 0F
      -- -- -- -- -- -- -- --  -- -- -- -- -- -- -- --
0130:                                         66 02 80               f..
0140: F8 FF FF 7F F8 FF FF 7F  65 68 6E 30 00           ........ehn0.   
```

#### Opcodes

```
  0: 0x013D [0x66] LOAD_EXT_SCHEDULER_MAIN: Load scheduler "ehn0" with entities [EventEntity, EventEntity], work=41*
  1: 0x014C [0x00] END_REQSTACK()
```

### Event 65535.22

#### Metadata

| Field        | Value    |
|--------------|----------|
| Entrypoint   | 0x014D   |
| Data Size    | 22 bytes |
| Instructions | 4        |

```
      00 01 02 03 04 05 06 07  08 09 0A 0B 0C 0D 0E 0F
      -- -- -- -- -- -- -- --  -- -- -- -- -- -- -- --
0140:                                         53 F8 FF               S..
0150: FF 7F F8 FF FF 7F 65 68  6E 30 5E 69 64 6C 30 1C  ......ehn0^idl0.
0160: 01 80 00                                          ...             
```

#### Opcodes

```
  0: 0x014D [0x53] WAIT_SCHEDULER_TASK: Wait for scheduler "ehn0" with entities [EventEntity, EventEntity]
  1: 0x015A [0x5E] EventEntity goes idle (kills current action) (animation: "idl0")
  2: 0x015F [0x1C] WAIT(30* ticks)
  3: 0x0162 [0x00] END_REQSTACK()
```

### Event 65535.23

#### Metadata

| Field        | Value    |
|--------------|----------|
| Entrypoint   | 0x0163   |
| Data Size    | 16 bytes |
| Instructions | 2        |

```
      00 01 02 03 04 05 06 07  08 09 0A 0B 0C 0D 0E 0F
      -- -- -- -- -- -- -- --  -- -- -- -- -- -- -- --
0160:          66 02 80 F8 FF  FF 7F F8 FF FF 7F 65 68     f..........eh
0170: 6E 31 00                                          n1.             
```

#### Opcodes

```
  0: 0x0163 [0x66] LOAD_EXT_SCHEDULER_MAIN: Load scheduler "ehn1" with entities [EventEntity, EventEntity], work=41*
  1: 0x0172 [0x00] END_REQSTACK()
```

### Event 65535.24

#### Metadata

| Field        | Value    |
|--------------|----------|
| Entrypoint   | 0x0173   |
| Data Size    | 14 bytes |
| Instructions | 2        |

```
      00 01 02 03 04 05 06 07  08 09 0A 0B 0C 0D 0E 0F
      -- -- -- -- -- -- -- --  -- -- -- -- -- -- -- --
0170:          53 F8 FF FF 7F  F8 FF FF 7F 65 68 6E 31     S........ehn1
0180: 00                                                .               
```

#### Opcodes

```
  0: 0x0173 [0x53] WAIT_SCHEDULER_TASK: Wait for scheduler "ehn1" with entities [EventEntity, EventEntity]
  1: 0x0180 [0x00] END_REQSTACK()
```

### Event 65535.25

#### Metadata

| Field        | Value   |
|--------------|---------|
| Entrypoint   | 0x0181  |
| Data Size    | 9 bytes |
| Instructions | 3       |

```
      00 01 02 03 04 05 06 07  08 09 0A 0B 0C 0D 0E 0F
      -- -- -- -- -- -- -- --  -- -- -- -- -- -- -- --
0180:    5E 69 64 6C 30 1C 01  80 00                     ^idl0....      
```

#### Opcodes

```
  0: 0x0181 [0x5E] EventEntity goes idle (kills current action) (animation: "idl0")
  1: 0x0186 [0x1C] WAIT(30* ticks)
  2: 0x0189 [0x00] END_REQSTACK()
```

### Event 421

#### Metadata

| Field        | Value    |
|--------------|----------|
| Entrypoint   | 0x018A   |
| Data Size    | 23 bytes |
| Instructions | 9        |

```
      00 01 02 03 04 05 06 07  08 09 0A 0B 0C 0D 0E 0F
      -- -- -- -- -- -- -- --  -- -- -- -- -- -- -- --
0180:                                86 00 F8 FF FF 7F            ......
0190: 1E B4 10 0F 01 1D 04 80  23 1D 05 80 23 20 00 21  ........#...# .!
01A0: 00                                                .               
```

#### Opcodes

```
  0: 0x018A [0x86] EventEntity->Render.Flags3 = Flags3  // No change (flag=0)
  1: 0x0190 [0x1E] EventEntity looks at Gottah Maporushanoh (ID: 17764532/0x010F10B4) and starts talking
  2: 0x0195 [0x1D] PRINT_EVENT_MESSAGE(message_id=8519*)
    → "It's that very attitude that's stoppin' you from ever findin' the old pirate king's treasure, y'know-wow!?"
  3: 0x0198 [0x23] WAIT_FOR_DIALOG_INTERACTION
  4: 0x0199 [0x1D] PRINT_EVENT_MESSAGE(message_id=8520*)
    → "C'mon, we've gotta getta move on, Gottah! Hurry up and buy that armor you've been wantin' at the port-wort so we can go out and level up some more-wore!"
  5: 0x019C [0x23] WAIT_FOR_DIALOG_INTERACTION
  6: 0x019D [0x20] SET_CLI_EVENT_UC_FLAG: Unlock player control
  7: 0x019F [0x21] END_EVENT
  8: 0x01A0 [0x00] END_REQSTACK()
```

### Event 481

#### Metadata

| Field        | Value    |
|--------------|----------|
| Entrypoint   | 0x01A1   |
| Data Size    | 70 bytes |
| Instructions | 24       |

```
      00 01 02 03 04 05 06 07  08 09 0A 0B 0C 0D 0E 0F
      -- -- -- -- -- -- -- --  -- -- -- -- -- -- -- --
01A0:    1E F0 FF FF 7F 6F 70  1D 06 80 23 1E B4 10 0F   .....op...#....
01B0: 01 6F 70 29 08 B3 10 0F  01 13 1D 07 80 23 29 08  .op).........#).
01C0: B3 10 0F 01 14 1E F0 FF  FF 7F 6F 70 1D 08 80 23  ..........op...#
01D0: 79 00 B3 10 0F 01 B4 10  0F 01 1D 09 80 23 7B B3  y............#{.
01E0: 10 0F 01 20 00 21 00                              ... .!.         
```

#### Opcodes

```
  0: 0x01A1 [0x1E] EventEntity looks at LocalPlayer and starts talking
  1: 0x01A6 [0x6F] WAIT_FRAME_DELAY: Yield until WaitTime reaches zero
  2: 0x01A7 [0x70] WAIT_ENTITY_RENDER_FLAG: Wait while EventEntity->Render.Flags3 bit 2 is set (cancel turn if not)
  3: 0x01A8 [0x1D] PRINT_EVENT_MESSAGE(message_id=8694*)
    → "Soni-Muni's me name. I'm currently travelin' the world in trainin' to become the greatest fighter who ever lived, and to git me hands on the greatest treasure that ever was!"
  4: 0x01AB [0x23] WAIT_FOR_DIALOG_INTERACTION
  5: 0x01AC [0x1E] EventEntity looks at Gottah Maporushanoh (ID: 17764532/0x010F10B4) and starts talking
  6: 0x01B1 [0x6F] WAIT_FRAME_DELAY: Yield until WaitTime reaches zero
  7: 0x01B2 [0x70] WAIT_ENTITY_RENDER_FLAG: Wait while EventEntity->Render.Flags3 bit 2 is set (cancel turn if not)
  8: 0x01B3 [0x29] REQ_SET_WAIT(priority=0x08, entity_id=Soni-Muni (ID: 17764531/0x010F10B3), tag_num=0x13)
  9: 0x01BA [0x1D] PRINT_EVENT_MESSAGE(message_id=8695*)
    → "Over there's me mate, Gottah. As you can see, she's one spunky monk-y. Unfortunately, she's lost her motivation and has begun to take it all too easy as of late."
 10: 0x01BD [0x23] WAIT_FOR_DIALOG_INTERACTION
 11: 0x01BE [0x29] REQ_SET_WAIT(priority=0x08, entity_id=Soni-Muni (ID: 17764531/0x010F10B3), tag_num=0x14)
 12: 0x01C5 [0x1E] EventEntity looks at LocalPlayer and starts talking
 13: 0x01CA [0x6F] WAIT_FRAME_DELAY: Yield until WaitTime reaches zero
 14: 0x01CB [0x70] WAIT_ENTITY_RENDER_FLAG: Wait while EventEntity->Render.Flags3 bit 2 is set (cancel turn if not)
 15: 0x01CC [0x1D] PRINT_EVENT_MESSAGE(message_id=8696*)
    → "I'd just luv to rekindle her passion for adventure once again, but blow if I know what to do...?"
 16: 0x01CF [0x23] WAIT_FOR_DIALOG_INTERACTION
 17: 0x01D0 [0x79] Soni-Muni (ID: 17764531/0x010F10B3) looks at Gottah Maporushanoh (ID: 17764532/0x010F10B4) (Basic look)
 18: 0x01DA [0x1D] PRINT_EVENT_MESSAGE(message_id=8697*)
    → "Come to think of it...the other day, when I told her the story of the great monk Scorpio who fought a giant scorpion with his bare hands and broke off its $2...well, she showed a bit of interest for once..."
 19: 0x01DD [0x23] WAIT_FOR_DIALOG_INTERACTION
 20: 0x01DE [0x7B] Soni-Muni (ID: 17764531/0x010F10B3) stops talking
 21: 0x01E3 [0x20] SET_CLI_EVENT_UC_FLAG: Unlock player control
 22: 0x01E5 [0x21] END_EVENT
 23: 0x01E6 [0x00] END_REQSTACK()
```

### Event 482

#### Metadata

| Field        | Value    |
|--------------|----------|
| Entrypoint   | 0x01E7   |
| Data Size    | 62 bytes |
| Instructions | 16       |

```
      00 01 02 03 04 05 06 07  08 09 0A 0B 0C 0D 0E 0F
      -- -- -- -- -- -- -- --  -- -- -- -- -- -- -- --
01E0:                      1E  F0 FF FF 7F 6F 70 79 00         .....opy.
01F0: B3 10 0F 01 B4 10 0F 01  29 08 B3 10 0F 01 03 1D  ........).......
0200: 0A 80 23 29 08 B3 10 0F  01 04 29 08 B3 10 0F 01  ..#)......).....
0210: 05 1D 0B 80 23 29 08 B3  10 0F 01 06 7B B3 10 0F  ....#)......{...
0220: 01 20 00 21 00                                    . .!.           
```

#### Opcodes

```
  0: 0x01E7 [0x1E] EventEntity looks at LocalPlayer and starts talking
  1: 0x01EC [0x6F] WAIT_FRAME_DELAY: Yield until WaitTime reaches zero
  2: 0x01ED [0x70] WAIT_ENTITY_RENDER_FLAG: Wait while EventEntity->Render.Flags3 bit 2 is set (cancel turn if not)
  3: 0x01EE [0x79] Soni-Muni (ID: 17764531/0x010F10B3) looks at Gottah Maporushanoh (ID: 17764532/0x010F10B4) (Basic look)
  4: 0x01F8 [0x29] REQ_SET_WAIT(priority=0x08, entity_id=Soni-Muni (ID: 17764531/0x010F10B3), tag_num=0x03)
  5: 0x01FF [0x1D] PRINT_EVENT_MESSAGE(message_id=8698*)
    → "My mate Gottah over there has lost all motivation as of late. I'd like to rekindle her passion for adventure, but blow if I know what to do...?"
  6: 0x0202 [0x23] WAIT_FOR_DIALOG_INTERACTION
  7: 0x0203 [0x29] REQ_SET_WAIT(priority=0x08, entity_id=Soni-Muni (ID: 17764531/0x010F10B3), tag_num=0x04)
  8: 0x020A [0x29] REQ_SET_WAIT(priority=0x08, entity_id=Soni-Muni (ID: 17764531/0x010F10B3), tag_num=0x05)
  9: 0x0211 [0x1D] PRINT_EVENT_MESSAGE(message_id=8699*)
    → "Come to think of it...the other day, when I told her the story of the great monk Scorpio who fought a giant scorpion with his bare hands and broke off its $2...well, she showed a bit of interest for once..."
 10: 0x0214 [0x23] WAIT_FOR_DIALOG_INTERACTION
 11: 0x0215 [0x29] REQ_SET_WAIT(priority=0x08, entity_id=Soni-Muni (ID: 17764531/0x010F10B3), tag_num=0x06)
 12: 0x021C [0x7B] Soni-Muni (ID: 17764531/0x010F10B3) stops talking
 13: 0x0221 [0x20] SET_CLI_EVENT_UC_FLAG: Unlock player control
 14: 0x0223 [0x21] END_EVENT
 15: 0x0224 [0x00] END_REQSTACK()
```

### Event 484

#### Metadata

| Field        | Value     |
|--------------|-----------|
| Entrypoint   | 0x0225    |
| Data Size    | 712 bytes |
| Instructions | 111       |

```
      00 01 02 03 04 05 06 07  08 09 0A 0B 0C 0D 0E 0F
      -- -- -- -- -- -- -- --  -- -- -- -- -- -- -- --
0220:                20 01 46  01 42 1E F0 FF FF 7F 6F        .F.B.....o
0230: 70 45 0C 80 F8 FF FF 7F  F8 FF FF 7F 66 64 6F 31  pE..........fdo1
0240: 0D 80 1C 0E 80 38 0F 80  29 0B F0 FF FF 7F 37 4A  .....8..).....7J
0250: F0 FF FF 7F B3 10 0F 01  6F 70 37 10 80 11 80 12  ........op7.....
0260: 80 13 80 7B B3 10 0F 01  45 14 80 F8 FF FF 7F F8  ...{....E.......
0270: FF FF 7F 73 30 39 31 0D  80 45 0C 80 F8 FF FF 7F  ...s091..E......
0280: F8 FF FF 7F 66 64 69 31  0D 80 29 08 B3 10 0F 01  ....fdi1..).....
0290: 0D 1D 15 80 23 29 08 B3  10 0F 01 0E 1D 16 80 23  ....#).........#
02A0: 45 14 80 F8 FF FF 7F F8  FF FF 7F 73 30 39 32 0D  E..........s092.
02B0: 80 4A B4 10 0F 01 B3 10  0F 01 1E B4 10 0F 01 6F  .J.............o
02C0: 70 29 08 B3 10 0F 01 13  1D 17 80 23 29 08 B3 10  p).........#)...
02D0: 0F 01 14 6F 76 B4 10 0F  01 79 00 B4 10 0F 01 F0  ...ov....y......
02E0: FF FF 7F 79 00 B3 10 0F  01 F0 FF FF 7F 1D 18 80  ...y............
02F0: 23 7B B3 10 0F 01 29 0B  B4 10 0F 01 1D 45 14 80  #{....)......E..
0300: F8 FF FF 7F F8 FF FF 7F  73 30 39 33 0D 80 79 00  ........s093..y.
0310: B4 10 0F 01 B3 10 0F 01  29 08 B3 10 0F 01 07 1D  ........).......
0320: 19 80 23 29 08 B3 10 0F  01 08 4B B3 10 0F 01 1A  ..#)......K.....
0330: 80 6F 76 B3 10 0F 01 1D  1B 80 23 45 0C 80 F8 FF  .ov.......#E....
0340: FF 7F F8 FF FF 7F 66 64  6F 31 0D 80 1C 0E 80 55  ......fdo1.....U
0350: 14 80 F8 FF FF 7F F8 FF  FF 7F 73 30 39 33 37 10  ..........s0937.
0360: 80 11 80 12 80 13 80 45  14 80 F8 FF FF 7F F8 FF  .......E........
0370: FF 7F 73 30 39 31 0D 80  45 0C 80 F8 FF FF 7F F8  ..s091..E.......
0380: FF FF 7F 66 64 69 31 0D  80 29 08 B3 10 0F 01 01  ...fdi1..)......
0390: 1D 1C 80 23 29 08 B3 10  0F 01 02 45 14 80 F8 FF  ...#)......E....
03A0: FF 7F F8 FF FF 7F 73 30  39 32 0D 80 1E B4 10 0F  ......s092......
03B0: 01 6F 70 29 0B B3 10 0F  01 1E 29 08 B3 10 0F 01  .op)......).....
03C0: 0B 29 08 B4 10 0F 01 15  29 0B B4 10 0F 01 1E 29  .)......)......)
03D0: 08 B3 10 0F 01 0C 29 08  B4 10 0F 01 16 45 14 80  ......)......E..
03E0: F8 FF FF 7F F8 FF FF 7F  73 30 39 34 0D 80 1E B4  ........s094....
03F0: 10 0F 01 6F 70 29 0B B3  10 0F 01 1F 29 08 B4 10  ...op)......)...
0400: 0F 01 0D 29 0B B4 10 0F  01 1F 45 14 80 F8 FF FF  ...)......E.....
0410: 7F F8 FF FF 7F 73 30 39  31 0D 80 7B B3 10 0F 01  .....s091..{....
0420: 4B B3 10 0F 01 13 80 6F  76 B3 10 0F 01 29 08 B4  K......ov....)..
0430: 10 0F 01 0E 29 08 B4 10  0F 01 0F 29 0B B3 10 0F  ....)......)....
0440: 01 20 29 08 B4 10 0F 01  10 45 14 80 F8 FF FF 7F  . )......E......
0450: F8 FF FF 7F 73 30 39 32  0D 80 32 00 80 1F 00 1D  ....s092..2.....
0460: 80 1E 80 1F 80 1F 01 4A  F0 FF FF 7F B3 10 0F 01  .......J........
0470: 4A B4 10 0F 01 B3 10 0F  01 1F 00 20 80 21 80 1F  J.......... .!..
0480: 80 1F 01 6F 76 B4 10 0F  01 1E B4 10 0F 01 29 08  ...ov.........).
0490: B4 10 0F 01 17 29 0B B4  10 0F 01 20 29 08 B3 10  .....)..... )...
04A0: 0F 01 0B 29 08 B4 10 0F  01 18 45 0C 80 F8 FF FF  ...)......E.....
04B0: 7F F8 FF FF 7F 66 64 6F  31 0D 80 1C 0E 80 29 08  .....fdo1.....).
04C0: B3 10 0F 01 0C 46 00 45  0C 80 F8 FF FF 7F F8 FF  .....F.E........
04D0: FF 7F 66 64 69 31 0D 80  45 22 80 F0 FF FF 7F F0  ..fdi1..E"......
04E0: FF FF 7F 71 73 74 63 0D  80 20 00 21 00           ...qstc.. .!.   
```

#### Opcodes

```
  0: 0x0225 [0x20] SET_CLI_EVENT_UC_FLAG: Lock player control
  1: 0x0227 [0x46] CAMERA_CONTROL: Disable user control
  2: 0x0229 [0x42] SET_CLI_EVENT_CANCEL_DATA()
  3: 0x022A [0x1E] EventEntity looks at LocalPlayer and starts talking
  4: 0x022F [0x6F] WAIT_FRAME_DELAY: Yield until WaitTime reaches zero
  5: 0x0230 [0x70] WAIT_ENTITY_RENDER_FLAG: Wait while EventEntity->Render.Flags3 bit 2 is set (cancel turn if not)
  6: 0x0231 [0x45] LOAD_SCHEDULED_TASK: Load scheduler "fdo1" with entities [EventEntity, EventEntity], work=[200*, 0*]
  7: 0x0242 [0x1C] WAIT(60* ticks)
  8: 0x0245 [0x38] SET_CLIENT_EVENT_MODE(mode=3*)
  9: 0x0248 [0x29] REQ_SET_WAIT(priority=0x0B, entity_id=LocalPlayer, tag_num=0x37)
 10: 0x024F [0x4A] LocalPlayer looks at Soni-Muni (ID: 17764531/0x010F10B3)
 11: 0x0258 [0x6F] WAIT_FRAME_DELAY: Yield until WaitTime reaches zero
 12: 0x0259 [0x70] WAIT_ENTITY_RENDER_FLAG: Wait while EventEntity->Render.Flags3 bit 2 is set (cancel turn if not)
 13: 0x025A [0x37] UPDATE_EVENT_POSITION_AND_DIR: x=-17.867*, z=-59.669*, y=1.749*, direction=241.7°*
 14: 0x0263 [0x7B] Soni-Muni (ID: 17764531/0x010F10B3) stops talking
 15: 0x0268 [0x45] LOAD_SCHEDULED_TASK: Load scheduler "s091" with entities [EventEntity, EventEntity], work=[141*, 0*]
 16: 0x0279 [0x45] LOAD_SCHEDULED_TASK: Load scheduler "fdi1" with entities [EventEntity, EventEntity], work=[200*, 0*]
 17: 0x028A [0x29] REQ_SET_WAIT(priority=0x08, entity_id=Soni-Muni (ID: 17764531/0x010F10B3), tag_num=0x0D)
 18: 0x0291 [0x1D] PRINT_EVENT_MESSAGE(message_id=8702*)
    → "Whoa, looky-looky...ain't this somethin'? You didn't happen to break this off with your bare hands, now, did you?"
 19: 0x0294 [0x23] WAIT_FOR_DIALOG_INTERACTION
 20: 0x0295 [0x29] REQ_SET_WAIT(priority=0x08, entity_id=Soni-Muni (ID: 17764531/0x010F10B3), tag_num=0x0E)
 21: 0x029C [0x1D] PRINT_EVENT_MESSAGE(message_id=8703*)
    → "Hah! Yeah, right...as if...? But anyway, here goes nothin'..."
 22: 0x029F [0x23] WAIT_FOR_DIALOG_INTERACTION
 23: 0x02A0 [0x45] LOAD_SCHEDULED_TASK: Load scheduler "s092" with entities [EventEntity, EventEntity], work=[141*, 0*]
 24: 0x02B1 [0x4A] Gottah Maporushanoh (ID: 17764532/0x010F10B4) looks at Soni-Muni (ID: 17764531/0x010F10B3)
 25: 0x02BA [0x1E] EventEntity looks at Gottah Maporushanoh (ID: 17764532/0x010F10B4) and starts talking
 26: 0x02BF [0x6F] WAIT_FRAME_DELAY: Yield until WaitTime reaches zero
 27: 0x02C0 [0x70] WAIT_ENTITY_RENDER_FLAG: Wait while EventEntity->Render.Flags3 bit 2 is set (cancel turn if not)
 28: 0x02C1 [0x29] REQ_SET_WAIT(priority=0x08, entity_id=Soni-Muni (ID: 17764531/0x010F10B3), tag_num=0x13)
 29: 0x02C8 [0x1D] PRINT_EVENT_MESSAGE(message_id=8704*)
    → "Oi, Gottah! Getta load of this I've gotta!"
 30: 0x02CB [0x23] WAIT_FOR_DIALOG_INTERACTION
 31: 0x02CC [0x29] REQ_SET_WAIT(priority=0x08, entity_id=Soni-Muni (ID: 17764531/0x010F10B3), tag_num=0x14)
 32: 0x02D3 [0x6F] WAIT_FRAME_DELAY: Yield until WaitTime reaches zero
 33: 0x02D4 [0x76] CHECK_ENTITY_RENDER_FLAGS: Wait until Gottah Maporushanoh (ID: 17764532/0x010F10B4) Render.Flags0 and Render.Flags3 conditions are met
 34: 0x02D9 [0x79] Gottah Maporushanoh (ID: 17764532/0x010F10B4) looks at LocalPlayer (Basic look)
 35: 0x02E3 [0x79] Soni-Muni (ID: 17764531/0x010F10B3) looks at LocalPlayer (Basic look)
 36: 0x02ED [0x1D] PRINT_EVENT_MESSAGE(message_id=8705*)
    → "This here adventurer took out a giant scorpion to get [his/her] hands on it. Ain't it somethin'!?"
 37: 0x02F0 [0x23] WAIT_FOR_DIALOG_INTERACTION
 38: 0x02F1 [0x7B] Soni-Muni (ID: 17764531/0x010F10B3) stops talking
 39: 0x02F6 [0x29] REQ_SET_WAIT(priority=0x0B, entity_id=Gottah Maporushanoh (ID: 17764532/0x010F10B4), tag_num=0x1D)
 40: 0x02FD [0x45] LOAD_SCHEDULED_TASK: Load scheduler "s093" with entities [EventEntity, EventEntity], work=[141*, 0*]
 41: 0x030E [0x79] Gottah Maporushanoh (ID: 17764532/0x010F10B4) looks at Soni-Muni (ID: 17764531/0x010F10B3) (Basic look)
 42: 0x0318 [0x29] REQ_SET_WAIT(priority=0x08, entity_id=Soni-Muni (ID: 17764531/0x010F10B3), tag_num=0x07)
 43: 0x031F [0x1D] PRINT_EVENT_MESSAGE(message_id=8707*)
    → "Oi, oi! Don't be givin' me no "ho-hums" there, chum! Don't you feel anythin' anywhere in that heart of yours?"
 44: 0x0322 [0x23] WAIT_FOR_DIALOG_INTERACTION
 45: 0x0323 [0x29] REQ_SET_WAIT(priority=0x08, entity_id=Soni-Muni (ID: 17764531/0x010F10B3), tag_num=0x08)
 46: 0x032A [0x4B] UPDATE_ENTITY_YAW(entity=Soni-Muni (ID: 17764531/0x010F10B3), yaw=14.6°*)
 47: 0x0331 [0x6F] WAIT_FRAME_DELAY: Yield until WaitTime reaches zero
 48: 0x0332 [0x76] CHECK_ENTITY_RENDER_FLAGS: Wait until Soni-Muni (ID: 17764531/0x010F10B3) Render.Flags0 and Render.Flags3 conditions are met
 49: 0x0337 [0x1D] PRINT_EVENT_MESSAGE(message_id=8708*)
    → "Think about how this wishy-washy excuse for an adventurer went through all that trouble just to bring back and show us one of these! Speakin' of which, where did you get your hands on this, mate?"
 50: 0x033A [0x23] WAIT_FOR_DIALOG_INTERACTION
 51: 0x033B [0x45] LOAD_SCHEDULED_TASK: Load scheduler "fdo1" with entities [EventEntity, EventEntity], work=[200*, 0*]
 52: 0x034C [0x1C] WAIT(60* ticks)
 53: 0x034F [0x55] WAIT_LOAD_SCHEDULER: Wait for scheduler "s093" with entities [EventEntity, EventEntity], work=141*
 54: 0x035E [0x37] UPDATE_EVENT_POSITION_AND_DIR: x=-17.867*, z=-59.669*, y=1.749*, direction=241.7°*
 55: 0x0367 [0x45] LOAD_SCHEDULED_TASK: Load scheduler "s091" with entities [EventEntity, EventEntity], work=[141*, 0*]
 56: 0x0378 [0x45] LOAD_SCHEDULED_TASK: Load scheduler "fdi1" with entities [EventEntity, EventEntity], work=[200*, 0*]
 57: 0x0389 [0x29] REQ_SET_WAIT(priority=0x08, entity_id=Soni-Muni (ID: 17764531/0x010F10B3), tag_num=0x01)
 58: 0x0390 [0x1D] PRINT_EVENT_MESSAGE(message_id=8709*)
    → "What's that, you say...? North of Tahrongi Canyon in the Maze of Shakhrami? Well I'll be amazed and shock-whammied!"
 59: 0x0393 [0x23] WAIT_FOR_DIALOG_INTERACTION
 60: 0x0394 [0x29] REQ_SET_WAIT(priority=0x08, entity_id=Soni-Muni (ID: 17764531/0x010F10B3), tag_num=0x02)
 61: 0x039B [0x45] LOAD_SCHEDULED_TASK: Load scheduler "s092" with entities [EventEntity, EventEntity], work=[141*, 0*]
 62: 0x03AC [0x1E] EventEntity looks at Gottah Maporushanoh (ID: 17764532/0x010F10B4) and starts talking
 63: 0x03B1 [0x6F] WAIT_FRAME_DELAY: Yield until WaitTime reaches zero
 64: 0x03B2 [0x70] WAIT_ENTITY_RENDER_FLAG: Wait while EventEntity->Render.Flags3 bit 2 is set (cancel turn if not)
 65: 0x03B3 [0x29] REQ_SET_WAIT(priority=0x0B, entity_id=Soni-Muni (ID: 17764531/0x010F10B3), tag_num=0x1E)
 66: 0x03BA [0x29] REQ_SET_WAIT(priority=0x08, entity_id=Soni-Muni (ID: 17764531/0x010F10B3), tag_num=0x0B)
 67: 0x03C1 [0x29] REQ_SET_WAIT(priority=0x08, entity_id=Gottah Maporushanoh (ID: 17764532/0x010F10B4), tag_num=0x15)
 68: 0x03C8 [0x29] REQ_SET_WAIT(priority=0x0B, entity_id=Gottah Maporushanoh (ID: 17764532/0x010F10B4), tag_num=0x1E)
 69: 0x03CF [0x29] REQ_SET_WAIT(priority=0x08, entity_id=Soni-Muni (ID: 17764531/0x010F10B3), tag_num=0x0C)
 70: 0x03D6 [0x29] REQ_SET_WAIT(priority=0x08, entity_id=Gottah Maporushanoh (ID: 17764532/0x010F10B4), tag_num=0x16)
 71: 0x03DD [0x45] LOAD_SCHEDULED_TASK: Load scheduler "s094" with entities [EventEntity, EventEntity], work=[141*, 0*]
 72: 0x03EE [0x1E] EventEntity looks at Gottah Maporushanoh (ID: 17764532/0x010F10B4) and starts talking
 73: 0x03F3 [0x6F] WAIT_FRAME_DELAY: Yield until WaitTime reaches zero
 74: 0x03F4 [0x70] WAIT_ENTITY_RENDER_FLAG: Wait while EventEntity->Render.Flags3 bit 2 is set (cancel turn if not)
 75: 0x03F5 [0x29] REQ_SET_WAIT(priority=0x0B, entity_id=Soni-Muni (ID: 17764531/0x010F10B3), tag_num=0x1F)
 76: 0x03FC [0x29] REQ_SET_WAIT(priority=0x08, entity_id=Gottah Maporushanoh (ID: 17764532/0x010F10B4), tag_num=0x0D)
 77: 0x0403 [0x29] REQ_SET_WAIT(priority=0x0B, entity_id=Gottah Maporushanoh (ID: 17764532/0x010F10B4), tag_num=0x1F)
 78: 0x040A [0x45] LOAD_SCHEDULED_TASK: Load scheduler "s091" with entities [EventEntity, EventEntity], work=[141*, 0*]
 79: 0x041B [0x7B] Soni-Muni (ID: 17764531/0x010F10B3) stops talking
 80: 0x0420 [0x4B] UPDATE_ENTITY_YAW(entity=Soni-Muni (ID: 17764531/0x010F10B3), yaw=15.1°*)
 81: 0x0427 [0x6F] WAIT_FRAME_DELAY: Yield until WaitTime reaches zero
 82: 0x0428 [0x76] CHECK_ENTITY_RENDER_FLAGS: Wait until Soni-Muni (ID: 17764531/0x010F10B3) Render.Flags0 and Render.Flags3 conditions are met
 83: 0x042D [0x29] REQ_SET_WAIT(priority=0x08, entity_id=Gottah Maporushanoh (ID: 17764532/0x010F10B4), tag_num=0x0E)
 84: 0x0434 [0x29] REQ_SET_WAIT(priority=0x08, entity_id=Gottah Maporushanoh (ID: 17764532/0x010F10B4), tag_num=0x0F)
 85: 0x043B [0x29] REQ_SET_WAIT(priority=0x0B, entity_id=Soni-Muni (ID: 17764531/0x010F10B3), tag_num=0x20)
 86: 0x0442 [0x29] REQ_SET_WAIT(priority=0x08, entity_id=Gottah Maporushanoh (ID: 17764532/0x010F10B4), tag_num=0x10)
 87: 0x0449 [0x45] LOAD_SCHEDULED_TASK: Load scheduler "s092" with entities [EventEntity, EventEntity], work=[141*, 0*]
 88: 0x045A [0x32] ExtData[1]->MainSpeed = 40* * 0.1
 89: 0x045D [0x1F] MOVE_ENTITY: EventEntity moves to X=-19.123*, Z=-57.879*, Y=2.749*
 90: 0x0465 [0x1F] MOVE_ENTITY: Update entity position (mode=1)
 91: 0x0467 [0x4A] LocalPlayer looks at Soni-Muni (ID: 17764531/0x010F10B3)
 92: 0x0470 [0x4A] Gottah Maporushanoh (ID: 17764532/0x010F10B4) looks at Soni-Muni (ID: 17764531/0x010F10B3)
 93: 0x0479 [0x1F] MOVE_ENTITY: EventEntity moves to X=-20.189*, Z=-55.521*, Y=2.749*
 94: 0x0481 [0x1F] MOVE_ENTITY: Update entity position (mode=1)
 95: 0x0483 [0x6F] WAIT_FRAME_DELAY: Yield until WaitTime reaches zero
 96: 0x0484 [0x76] CHECK_ENTITY_RENDER_FLAGS: Wait until Gottah Maporushanoh (ID: 17764532/0x010F10B4) Render.Flags0 and Render.Flags3 conditions are met
 97: 0x0489 [0x1E] EventEntity looks at Gottah Maporushanoh (ID: 17764532/0x010F10B4) and starts talking
 98: 0x048E [0x29] REQ_SET_WAIT(priority=0x08, entity_id=Gottah Maporushanoh (ID: 17764532/0x010F10B4), tag_num=0x17)
 99: 0x0495 [0x29] REQ_SET_WAIT(priority=0x0B, entity_id=Gottah Maporushanoh (ID: 17764532/0x010F10B4), tag_num=0x20)
100: 0x049C [0x29] REQ_SET_WAIT(priority=0x08, entity_id=Soni-Muni (ID: 17764531/0x010F10B3), tag_num=0x0B)
101: 0x04A3 [0x29] REQ_SET_WAIT(priority=0x08, entity_id=Gottah Maporushanoh (ID: 17764532/0x010F10B4), tag_num=0x18)
102: 0x04AA [0x45] LOAD_SCHEDULED_TASK: Load scheduler "fdo1" with entities [EventEntity, EventEntity], work=[200*, 0*]
103: 0x04BB [0x1C] WAIT(60* ticks)
104: 0x04BE [0x29] REQ_SET_WAIT(priority=0x08, entity_id=Soni-Muni (ID: 17764531/0x010F10B3), tag_num=0x0C)
105: 0x04C5 [0x46] CAMERA_CONTROL: Restore default settings
106: 0x04C7 [0x45] LOAD_SCHEDULED_TASK: Load scheduler "fdi1" with entities [EventEntity, EventEntity], work=[200*, 0*]
107: 0x04D8 [0x45] LOAD_SCHEDULED_TASK: Load scheduler "qstc" with entities [LocalPlayer, LocalPlayer], work=[201*, 0*]
108: 0x04E9 [0x20] SET_CLI_EVENT_UC_FLAG: Unlock player control
109: 0x04EB [0x21] END_EVENT
110: 0x04EC [0x00] END_REQSTACK()
```

### Event 65535.26

#### Metadata

| Field        | Value   |
|--------------|---------|
| Entrypoint   | 0x04ED  |
| Data Size    | 5 bytes |
| Instructions | 3       |

```
      00 01 02 03 04 05 06 07  08 09 0A 0B 0C 0D 0E 0F
      -- -- -- -- -- -- -- --  -- -- -- -- -- -- -- --
04E0:                                         1D 23 80               .#.
04F0: 23 00                                             #.              
```

#### Opcodes

```
  0: 0x04ED [0x1D] PRINT_EVENT_MESSAGE(message_id=8710*)
    → "Oh!?"
  1: 0x04F0 [0x23] WAIT_FOR_DIALOG_INTERACTION
  2: 0x04F1 [0x00] END_REQSTACK()
```

### Event 65535.27

#### Metadata

| Field        | Value    |
|--------------|----------|
| Entrypoint   | 0x04F2   |
| Data Size    | 19 bytes |
| Instructions | 5        |

```
      00 01 02 03 04 05 06 07  08 09 0A 0B 0C 0D 0E 0F
      -- -- -- -- -- -- -- --  -- -- -- -- -- -- -- --
04F0:       29 08 B3 10 0F 01  0F 1D 24 80 23 29 08 B3    ).......$.#)..
0500: 10 0F 01 10 00                                    .....           
```

#### Opcodes

```
  0: 0x04F2 [0x29] REQ_SET_WAIT(priority=0x08, entity_id=Soni-Muni (ID: 17764531/0x010F10B3), tag_num=0x0F)
  1: 0x04F9 [0x1D] PRINT_EVENT_MESSAGE(message_id=8712*)
    → "The pirate king departs his throne To cross the valley of Deathy With tattered flesh and splintered bone He digs till his last breathy."
  2: 0x04FC [0x23] WAIT_FOR_DIALOG_INTERACTION
  3: 0x04FD [0x29] REQ_SET_WAIT(priority=0x08, entity_id=Soni-Muni (ID: 17764531/0x010F10B3), tag_num=0x10)
  4: 0x0504 [0x00] END_REQSTACK()
```

### Event 65535.28

#### Metadata

| Field        | Value   |
|--------------|---------|
| Entrypoint   | 0x0505  |
| Data Size    | 5 bytes |
| Instructions | 3       |

```
      00 01 02 03 04 05 06 07  08 09 0A 0B 0C 0D 0E 0F
      -- -- -- -- -- -- -- --  -- -- -- -- -- -- -- --
0500:                1D 25 80  23 00                         .%.#.      
```

#### Opcodes

```
  0: 0x0505 [0x1D] PRINT_EVENT_MESSAGE(message_id=8714*)
    → "Who'd have thought there were scorpions in the ol' Maze of Shakhrami!? We've gotta go check this out, eh, Gottah!? Oh, and thanks a lot, adventurer."
  1: 0x0508 [0x23] WAIT_FOR_DIALOG_INTERACTION
  2: 0x0509 [0x00] END_REQSTACK()
```

### Event 485

#### Metadata

| Field        | Value    |
|--------------|----------|
| Entrypoint   | 0x050A   |
| Data Size    | 15 bytes |
| Instructions | 8        |

```
      00 01 02 03 04 05 06 07  08 09 0A 0B 0C 0D 0E 0F
      -- -- -- -- -- -- -- --  -- -- -- -- -- -- -- --
0500:                                1E B4 10 0F 01 6F            .....o
0510: 70 1D 26 80 23 20 00 21  00                       p.&.# .!.       
```

#### Opcodes

```
  0: 0x050A [0x1E] EventEntity looks at Gottah Maporushanoh (ID: 17764532/0x010F10B4) and starts talking
  1: 0x050F [0x6F] WAIT_FRAME_DELAY: Yield until WaitTime reaches zero
  2: 0x0510 [0x70] WAIT_ENTITY_RENDER_FLAG: Wait while EventEntity->Render.Flags3 bit 2 is set (cancel turn if not)
  3: 0x0511 [0x1D] PRINT_EVENT_MESSAGE(message_id=8716*)
    → "That's what I've been sayin'-wayin' all this time! We could have been out there levelin' up instead of standin' here all day! Arrrgh!!!"
  4: 0x0514 [0x23] WAIT_FOR_DIALOG_INTERACTION
  5: 0x0515 [0x20] SET_CLI_EVENT_UC_FLAG: Unlock player control
  6: 0x0517 [0x21] END_EVENT
  7: 0x0518 [0x00] END_REQSTACK()
```

### Event 735

#### Metadata

| Field        | Value    |
|--------------|----------|
| Entrypoint   | 0x0519   |
| Data Size    | 24 bytes |
| Instructions | 10       |

```
      00 01 02 03 04 05 06 07  08 09 0A 0B 0C 0D 0E 0F
      -- -- -- -- -- -- -- --  -- -- -- -- -- -- -- --
0510:                             42 48 27 80 1E F0 FF           BH'....
0520: FF 7F 1D 28 80 23 1E B4  10 0F 01 1D 29 80 23 21  ...(.#......).#!
0530: 00                                                .               
```

#### Opcodes

```
  0: 0x0519 [0x42] SET_CLI_EVENT_CANCEL_DATA()
  1: 0x051A [0x48] [System] [10418*]:
    → "<Player>'s badge flashes brightly."
  2: 0x051D [0x1E] EventEntity looks at LocalPlayer and starts talking
  3: 0x0522 [0x1D] PRINT_EVENT_MESSAGE(message_id=10430*)
    → "Hey chap, have ye heard? They say there be treasures in Aht Urhgan that nobody's laid eyes on as yet!"
  4: 0x0525 [0x23] WAIT_FOR_DIALOG_INTERACTION
  5: 0x0526 [0x1E] EventEntity looks at Gottah Maporushanoh (ID: 17764532/0x010F10B4) and starts talking
  6: 0x052B [0x1D] PRINT_EVENT_MESSAGE(message_id=10431*)
    → "Ye hear that, Gottah? Pack yer bags, 'cause we're takin' off for the high seas!"
  7: 0x052E [0x23] WAIT_FOR_DIALOG_INTERACTION
  8: 0x052F [0x21] END_EVENT
  9: 0x0530 [0x00] END_REQSTACK()
```

### Event 746

#### Metadata

| Field        | Value   |
|--------------|---------|
| Entrypoint   | 0x0531  |
| Data Size    | 1 bytes |
| Instructions | 1       |

```
      00 01 02 03 04 05 06 07  08 09 0A 0B 0C 0D 0E 0F
      -- -- -- -- -- -- -- --  -- -- -- -- -- -- -- --
0530:    00                                              .              
```

#### Opcodes

```
  0: 0x0531 [0x00] END_REQSTACK()
```

### Event 742

#### Metadata

| Field        | Value   |
|--------------|---------|
| Entrypoint   | 0x0532  |
| Data Size    | 1 bytes |
| Instructions | 1       |

```
      00 01 02 03 04 05 06 07  08 09 0A 0B 0C 0D 0E 0F
      -- -- -- -- -- -- -- --  -- -- -- -- -- -- -- --
0530:       00                                            .             
```

#### Opcodes

```
  0: 0x0532 [0x00] END_REQSTACK()
```

### Event 839

#### Metadata

| Field        | Value   |
|--------------|---------|
| Entrypoint   | 0x0533  |
| Data Size    | 1 bytes |
| Instructions | 1       |

```
      00 01 02 03 04 05 06 07  08 09 0A 0B 0C 0D 0E 0F
      -- -- -- -- -- -- -- --  -- -- -- -- -- -- -- --
0530:          00                                          .            
```

#### Opcodes

```
  0: 0x0533 [0x00] END_REQSTACK()
```

### Event 871

#### Metadata

| Field        | Value   |
|--------------|---------|
| Entrypoint   | 0x0534  |
| Data Size    | 1 bytes |
| Instructions | 1       |

```
      00 01 02 03 04 05 06 07  08 09 0A 0B 0C 0D 0E 0F
      -- -- -- -- -- -- -- --  -- -- -- -- -- -- -- --
0530:             00                                        .           
```

#### Opcodes

```
  0: 0x0534 [0x00] END_REQSTACK()
```

### Event 872

#### Metadata

| Field        | Value   |
|--------------|---------|
| Entrypoint   | 0x0535  |
| Data Size    | 1 bytes |
| Instructions | 1       |

```
      00 01 02 03 04 05 06 07  08 09 0A 0B 0C 0D 0E 0F
      -- -- -- -- -- -- -- --  -- -- -- -- -- -- -- --
0530:                00                                      .          
```

#### Opcodes

```
  0: 0x0535 [0x00] END_REQSTACK()
```
