# 17764390 - Catalia

## Common Data

| Field            | Value                    |
|------------------|--------------------------|
| Zone             | Windurst Woods (ID: 241) |
| Block Size       | 496 bytes                |
| Total Events     | 17                       |
| References Count | 20                       |

## List of Events

| Event ID                 | Entrypoint   |   Size |   Instructions |
|--------------------------|--------------|--------|----------------|
| [65535](#event-65535)    | 0x0000       |      1 |              1 |
| [65535.1](#event-655351) | 0x0001       |     16 |              2 |
| [65535.2](#event-655352) | 0x0011       |     22 |              4 |
| [65535.3](#event-655353) | 0x0027       |     16 |              2 |
| [65535.4](#event-655354) | 0x0037       |     14 |              2 |
| [65535.5](#event-655355) | 0x0045       |     16 |              2 |
| [65535.6](#event-655356) | 0x0055       |     14 |              2 |
| [65535.7](#event-655357) | 0x0063       |      9 |              3 |
| [442](#event-442)        | 0x006C       |     37 |             14 |
| [443](#event-443)        | 0x0091       |     33 |             12 |
| [448](#event-448)        | 0x00B2       |     15 |              5 |
| [65535.8](#event-655358) | 0x00C1       |     10 |              2 |
| [452](#event-452)        | 0x00CB       |     29 |             10 |
| [459](#event-459)        | 0x00E8       |     33 |             12 |
| [462](#event-462)        | 0x0109       |      1 |              1 |
| [465](#event-465)        | 0x010A       |     33 |             12 |
| [470](#event-470)        | 0x012B       |     33 |             12 |

## DAT References (imed_data)

|   Index | Hex Value   |   Dec Value |
|---------|-------------|-------------|
|       0 | 0x001E      |          30 |
|       1 | 0x2179      |        8569 |
|       2 | 0x217A      |        8570 |
|       3 | 0x217B      |        8571 |
|       4 | 0x217C      |        8572 |
|       5 | 0x217D      |        8573 |
|       6 | 0x000D      |          13 |
|       7 | 0xFFFF3EAE  |  4294917806 |
|       8 | 0xFFFF8C29  |  4294937641 |
|       9 | 0x01F3      |         499 |
|      10 | 0xFFFF4BB0  |  4294921136 |
|      11 | 0xFFFF8046  |  4294934598 |
|      12 | 0x01D3      |         467 |
|      13 | 0x2192      |        8594 |
|      14 | 0x21A1      |        8609 |
|      15 | 0x21A2      |        8610 |
|      16 | 0x21B5      |        8629 |
|      17 | 0x21B6      |        8630 |
|      18 | 0x21BF      |        8639 |
|      19 | 0x21C0      |        8640 |

## String References

- **8569**: If I may, allow me to tell you a little about San d'Oria...
- **8570**: San d'Oria is a land of the sword and of great faith. It is famous for its gallant Royal Knights and loyal Temple Knights, its grand regal chateau, and its glorious cathedral.
- **8571**: The hymns sung in the cathedral are particularly divine. Even the stoniest of hearts cannot help but be moved by them.
- **8572**: It is rather impossible to say that the Windurstian government is the most logical system. However, the Tarutaru believe in their Star Sibyl and maintain strong bonds with each other.
- **8573**: And is it not the faith and the bonds of its citizens that make a country strong? Only when the hearts of the individuals are unified can a government really work.
- **8594**: No Elvaan would ever do something as dishonorable as breaking a promise to another.
- **8609**: The Republic of Bastok is occupied by two races, the Hume and the Galka, who are the exact antithesis of each other.
- **8610**: Occasionally they break out into fights, so it is imperative that you maintain neutrality as you assess the situation and then avail yourself to the righteous ones.
- **8629**: I would not try to deny the Tarutaru of this land from pursuing peace. It is just that I desire lasting peace, not the temporary fa<Player>gade that Windurst has now.
- **8630**: The apparent tranquility of this place can be considered an illusion born from idealism. Until we wake Windurst from its dream it will continue to be beyond help.
- **8639**: The ferocious monster was really a trap set by the beastmen...? What a horrid turn of events this has proved to be.
- **8640**: Moreover, there is talk of a nether beast appearing? Could it be...? No! Do not tell me that we are marching forthright into another Great War?

## Events

### Event 65535

#### Metadata

| Field        | Value   |
|--------------|---------|
| Entrypoint   | 0x0000  |
| Data Size    | 1 bytes |
| Instructions | 1       |

```
      00 01 02 03 04 05 06 07  08 09 0A 0B 0C 0D 0E 0F
      -- -- -- -- -- -- -- --  -- -- -- -- -- -- -- --
0000: 00                                                .               
```

#### Opcodes

```
  0: 0x0000 [0x00] END_REQSTACK()
```

### Event 65535.1

#### Metadata

| Field        | Value    |
|--------------|----------|
| Entrypoint   | 0x0001   |
| Data Size    | 16 bytes |
| Instructions | 2        |

```
      00 01 02 03 04 05 06 07  08 09 0A 0B 0C 0D 0E 0F
      -- -- -- -- -- -- -- --  -- -- -- -- -- -- -- --
0000:    66 00 80 F8 FF FF 7F  F8 FF FF 7F 74 6C 6B 30   f..........tlk0
0010: 00                                                .               
```

#### Opcodes

```
  0: 0x0001 [0x66] LOAD_EXT_SCHEDULER_MAIN: Load scheduler "tlk0" with entities [EventEntity, EventEntity], work=30*
  1: 0x0010 [0x00] END_REQSTACK()
```

### Event 65535.2

#### Metadata

| Field        | Value    |
|--------------|----------|
| Entrypoint   | 0x0011   |
| Data Size    | 22 bytes |
| Instructions | 4        |

```
      00 01 02 03 04 05 06 07  08 09 0A 0B 0C 0D 0E 0F
      -- -- -- -- -- -- -- --  -- -- -- -- -- -- -- --
0010:    53 F8 FF FF 7F F8 FF  FF 7F 74 6C 6B 30 5E 69   S........tlk0^i
0020: 64 6C 30 1C 00 80 00                              dl0....         
```

#### Opcodes

```
  0: 0x0011 [0x53] WAIT_SCHEDULER_TASK: Wait for scheduler "tlk0" with entities [EventEntity, EventEntity]
  1: 0x001E [0x5E] EventEntity goes idle (kills current action) (animation: "idl0")
  2: 0x0023 [0x1C] WAIT(30* ticks)
  3: 0x0026 [0x00] END_REQSTACK()
```

### Event 65535.3

#### Metadata

| Field        | Value    |
|--------------|----------|
| Entrypoint   | 0x0027   |
| Data Size    | 16 bytes |
| Instructions | 2        |

```
      00 01 02 03 04 05 06 07  08 09 0A 0B 0C 0D 0E 0F
      -- -- -- -- -- -- -- --  -- -- -- -- -- -- -- --
0020:                      66  00 80 F8 FF FF 7F F8 FF         f........
0030: FF 7F 74 68 6B 31 00                              ..thk1.         
```

#### Opcodes

```
  0: 0x0027 [0x66] LOAD_EXT_SCHEDULER_MAIN: Load scheduler "thk1" with entities [EventEntity, EventEntity], work=30*
  1: 0x0036 [0x00] END_REQSTACK()
```

### Event 65535.4

#### Metadata

| Field        | Value    |
|--------------|----------|
| Entrypoint   | 0x0037   |
| Data Size    | 14 bytes |
| Instructions | 2        |

```
      00 01 02 03 04 05 06 07  08 09 0A 0B 0C 0D 0E 0F
      -- -- -- -- -- -- -- --  -- -- -- -- -- -- -- --
0030:                      53  F8 FF FF 7F F8 FF FF 7F         S........
0040: 74 68 6B 31 00                                    thk1.           
```

#### Opcodes

```
  0: 0x0037 [0x53] WAIT_SCHEDULER_TASK: Wait for scheduler "thk1" with entities [EventEntity, EventEntity]
  1: 0x0044 [0x00] END_REQSTACK()
```

### Event 65535.5

#### Metadata

| Field        | Value    |
|--------------|----------|
| Entrypoint   | 0x0045   |
| Data Size    | 16 bytes |
| Instructions | 2        |

```
      00 01 02 03 04 05 06 07  08 09 0A 0B 0C 0D 0E 0F
      -- -- -- -- -- -- -- --  -- -- -- -- -- -- -- --
0040:                66 00 80  F8 FF FF 7F F8 FF FF 7F       f..........
0050: 74 68 6B 32 00                                    thk2.           
```

#### Opcodes

```
  0: 0x0045 [0x66] LOAD_EXT_SCHEDULER_MAIN: Load scheduler "thk2" with entities [EventEntity, EventEntity], work=30*
  1: 0x0054 [0x00] END_REQSTACK()
```

### Event 65535.6

#### Metadata

| Field        | Value    |
|--------------|----------|
| Entrypoint   | 0x0055   |
| Data Size    | 14 bytes |
| Instructions | 2        |

```
      00 01 02 03 04 05 06 07  08 09 0A 0B 0C 0D 0E 0F
      -- -- -- -- -- -- -- --  -- -- -- -- -- -- -- --
0050:                53 F8 FF  FF 7F F8 FF FF 7F 74 68       S........th
0060: 6B 32 00                                          k2.             
```

#### Opcodes

```
  0: 0x0055 [0x53] WAIT_SCHEDULER_TASK: Wait for scheduler "thk2" with entities [EventEntity, EventEntity]
  1: 0x0062 [0x00] END_REQSTACK()
```

### Event 65535.7

#### Metadata

| Field        | Value   |
|--------------|---------|
| Entrypoint   | 0x0063  |
| Data Size    | 9 bytes |
| Instructions | 3       |

```
      00 01 02 03 04 05 06 07  08 09 0A 0B 0C 0D 0E 0F
      -- -- -- -- -- -- -- --  -- -- -- -- -- -- -- --
0060:          5E 69 64 6C 30  1C 00 80 00                 ^idl0....    
```

#### Opcodes

```
  0: 0x0063 [0x5E] EventEntity goes idle (kills current action) (animation: "idl0")
  1: 0x0068 [0x1C] WAIT(30* ticks)
  2: 0x006B [0x00] END_REQSTACK()
```

### Event 442

#### Metadata

| Field        | Value    |
|--------------|----------|
| Entrypoint   | 0x006C   |
| Data Size    | 37 bytes |
| Instructions | 14       |

```
      00 01 02 03 04 05 06 07  08 09 0A 0B 0C 0D 0E 0F
      -- -- -- -- -- -- -- --  -- -- -- -- -- -- -- --
0060:                                      1E F0 FF FF              ....
0070: 7F 6F 70 29 08 26 10 0F  01 01 1D 01 80 23 1D 02  .op).&.......#..
0080: 80 23 1D 03 80 23 29 08  26 10 0F 01 07 20 00 21  .#...#).&.... .!
0090: 00                                                .               
```

#### Opcodes

```
  0: 0x006C [0x1E] EventEntity looks at LocalPlayer and starts talking
  1: 0x0071 [0x6F] WAIT_FRAME_DELAY: Yield until WaitTime reaches zero
  2: 0x0072 [0x70] WAIT_ENTITY_RENDER_FLAG: Wait while EventEntity->Render.Flags3 bit 2 is set (cancel turn if not)
  3: 0x0073 [0x29] REQ_SET_WAIT(priority=0x08, entity_id=Catalia (ID: 17764390/0x010F1026), tag_num=0x01)
  4: 0x007A [0x1D] PRINT_EVENT_MESSAGE(message_id=8569*)
    → "If I may, allow me to tell you a little about San d'Oria..."
  5: 0x007D [0x23] WAIT_FOR_DIALOG_INTERACTION
  6: 0x007E [0x1D] PRINT_EVENT_MESSAGE(message_id=8570*)
    → "San d'Oria is a land of the sword and of great faith. It is famous for its gallant Royal Knights and loyal Temple Knights, its grand regal chateau, and its glorious cathedral."
  7: 0x0081 [0x23] WAIT_FOR_DIALOG_INTERACTION
  8: 0x0082 [0x1D] PRINT_EVENT_MESSAGE(message_id=8571*)
    → "The hymns sung in the cathedral are particularly divine. Even the stoniest of hearts cannot help but be moved by them."
  9: 0x0085 [0x23] WAIT_FOR_DIALOG_INTERACTION
 10: 0x0086 [0x29] REQ_SET_WAIT(priority=0x08, entity_id=Catalia (ID: 17764390/0x010F1026), tag_num=0x07)
 11: 0x008D [0x20] SET_CLI_EVENT_UC_FLAG: Unlock player control
 12: 0x008F [0x21] END_EVENT
 13: 0x0090 [0x00] END_REQSTACK()
```

### Event 443

#### Metadata

| Field        | Value    |
|--------------|----------|
| Entrypoint   | 0x0091   |
| Data Size    | 33 bytes |
| Instructions | 12       |

```
      00 01 02 03 04 05 06 07  08 09 0A 0B 0C 0D 0E 0F
      -- -- -- -- -- -- -- --  -- -- -- -- -- -- -- --
0090:    1E F0 FF FF 7F 6F 70  29 08 26 10 0F 01 01 1D   .....op).&.....
00A0: 04 80 23 1D 05 80 23 29  08 26 10 0F 01 07 20 00  ..#...#).&.... .
00B0: 21 00                                             !.              
```

#### Opcodes

```
  0: 0x0091 [0x1E] EventEntity looks at LocalPlayer and starts talking
  1: 0x0096 [0x6F] WAIT_FRAME_DELAY: Yield until WaitTime reaches zero
  2: 0x0097 [0x70] WAIT_ENTITY_RENDER_FLAG: Wait while EventEntity->Render.Flags3 bit 2 is set (cancel turn if not)
  3: 0x0098 [0x29] REQ_SET_WAIT(priority=0x08, entity_id=Catalia (ID: 17764390/0x010F1026), tag_num=0x01)
  4: 0x009F [0x1D] PRINT_EVENT_MESSAGE(message_id=8572*)
    → "It is rather impossible to say that the Windurstian government is the most logical system. However, the Tarutaru believe in their Star Sibyl and maintain strong bonds with each other."
  5: 0x00A2 [0x23] WAIT_FOR_DIALOG_INTERACTION
  6: 0x00A3 [0x1D] PRINT_EVENT_MESSAGE(message_id=8573*)
    → "And is it not the faith and the bonds of its citizens that make a country strong? Only when the hearts of the individuals are unified can a government really work."
  7: 0x00A6 [0x23] WAIT_FOR_DIALOG_INTERACTION
  8: 0x00A7 [0x29] REQ_SET_WAIT(priority=0x08, entity_id=Catalia (ID: 17764390/0x010F1026), tag_num=0x07)
  9: 0x00AE [0x20] SET_CLI_EVENT_UC_FLAG: Unlock player control
 10: 0x00B0 [0x21] END_EVENT
 11: 0x00B1 [0x00] END_REQSTACK()
```

### Event 448

#### Metadata

| Field        | Value    |
|--------------|----------|
| Entrypoint   | 0x00B2   |
| Data Size    | 15 bytes |
| Instructions | 5        |

```
      00 01 02 03 04 05 06 07  08 09 0A 0B 0C 0D 0E 0F
      -- -- -- -- -- -- -- --  -- -- -- -- -- -- -- --
00B0:       32 06 80 1F 00 07  80 08 80 09 80 1F 01 6F    2............o
00C0: 00                                                .               
```

#### Opcodes

```
  0: 0x00B2 [0x32] ExtData[1]->MainSpeed = 13* * 0.1
  1: 0x00B5 [0x1F] MOVE_ENTITY: EventEntity moves to X=-49.490*, Z=-29.655*, Y=0.499*
  2: 0x00BD [0x1F] MOVE_ENTITY: Update entity position (mode=1)
  3: 0x00BF [0x6F] WAIT_FRAME_DELAY: Yield until WaitTime reaches zero
  4: 0x00C0 [0x00] END_REQSTACK()
```

### Event 65535.8

#### Metadata

| Field        | Value    |
|--------------|----------|
| Entrypoint   | 0x00C1   |
| Data Size    | 10 bytes |
| Instructions | 2        |

```
      00 01 02 03 04 05 06 07  08 09 0A 0B 0C 0D 0E 0F
      -- -- -- -- -- -- -- --  -- -- -- -- -- -- -- --
00C0:    37 0A 80 0B 80 09 80  0C 80 00                  7.........     
```

#### Opcodes

```
  0: 0x00C1 [0x37] UPDATE_EVENT_POSITION_AND_DIR: x=-46.160*, z=-32.698*, y=0.499*, direction=41.0°*
  1: 0x00CA [0x00] END_REQSTACK()
```

### Event 452

#### Metadata

| Field        | Value    |
|--------------|----------|
| Entrypoint   | 0x00CB   |
| Data Size    | 29 bytes |
| Instructions | 10       |

```
      00 01 02 03 04 05 06 07  08 09 0A 0B 0C 0D 0E 0F
      -- -- -- -- -- -- -- --  -- -- -- -- -- -- -- --
00C0:                                   1E F0 FF FF 7F             .....
00D0: 6F 70 29 08 26 10 0F 01  01 1D 0D 80 23 29 08 26  op).&.......#).&
00E0: 10 0F 01 07 20 00 21 00                           .... .!.        
```

#### Opcodes

```
  0: 0x00CB [0x1E] EventEntity looks at LocalPlayer and starts talking
  1: 0x00D0 [0x6F] WAIT_FRAME_DELAY: Yield until WaitTime reaches zero
  2: 0x00D1 [0x70] WAIT_ENTITY_RENDER_FLAG: Wait while EventEntity->Render.Flags3 bit 2 is set (cancel turn if not)
  3: 0x00D2 [0x29] REQ_SET_WAIT(priority=0x08, entity_id=Catalia (ID: 17764390/0x010F1026), tag_num=0x01)
  4: 0x00D9 [0x1D] PRINT_EVENT_MESSAGE(message_id=8594*)
    → "No Elvaan would ever do something as dishonorable as breaking a promise to another."
  5: 0x00DC [0x23] WAIT_FOR_DIALOG_INTERACTION
  6: 0x00DD [0x29] REQ_SET_WAIT(priority=0x08, entity_id=Catalia (ID: 17764390/0x010F1026), tag_num=0x07)
  7: 0x00E4 [0x20] SET_CLI_EVENT_UC_FLAG: Unlock player control
  8: 0x00E6 [0x21] END_EVENT
  9: 0x00E7 [0x00] END_REQSTACK()
```

### Event 459

#### Metadata

| Field        | Value    |
|--------------|----------|
| Entrypoint   | 0x00E8   |
| Data Size    | 33 bytes |
| Instructions | 12       |

```
      00 01 02 03 04 05 06 07  08 09 0A 0B 0C 0D 0E 0F
      -- -- -- -- -- -- -- --  -- -- -- -- -- -- -- --
00E0:                          1E F0 FF FF 7F 6F 70 29          .....op)
00F0: 08 26 10 0F 01 01 1D 0E  80 23 1D 0F 80 23 29 08  .&.......#...#).
0100: 26 10 0F 01 07 20 00 21  00                       &.... .!.       
```

#### Opcodes

```
  0: 0x00E8 [0x1E] EventEntity looks at LocalPlayer and starts talking
  1: 0x00ED [0x6F] WAIT_FRAME_DELAY: Yield until WaitTime reaches zero
  2: 0x00EE [0x70] WAIT_ENTITY_RENDER_FLAG: Wait while EventEntity->Render.Flags3 bit 2 is set (cancel turn if not)
  3: 0x00EF [0x29] REQ_SET_WAIT(priority=0x08, entity_id=Catalia (ID: 17764390/0x010F1026), tag_num=0x01)
  4: 0x00F6 [0x1D] PRINT_EVENT_MESSAGE(message_id=8609*)
    → "The Republic of Bastok is occupied by two races, the Hume and the Galka, who are the exact antithesis of each other."
  5: 0x00F9 [0x23] WAIT_FOR_DIALOG_INTERACTION
  6: 0x00FA [0x1D] PRINT_EVENT_MESSAGE(message_id=8610*)
    → "Occasionally they break out into fights, so it is imperative that you maintain neutrality as you assess the situation and then avail yourself to the righteous ones."
  7: 0x00FD [0x23] WAIT_FOR_DIALOG_INTERACTION
  8: 0x00FE [0x29] REQ_SET_WAIT(priority=0x08, entity_id=Catalia (ID: 17764390/0x010F1026), tag_num=0x07)
  9: 0x0105 [0x20] SET_CLI_EVENT_UC_FLAG: Unlock player control
 10: 0x0107 [0x21] END_EVENT
 11: 0x0108 [0x00] END_REQSTACK()
```

### Event 462

#### Metadata

| Field        | Value   |
|--------------|---------|
| Entrypoint   | 0x0109  |
| Data Size    | 1 bytes |
| Instructions | 1       |

```
      00 01 02 03 04 05 06 07  08 09 0A 0B 0C 0D 0E 0F
      -- -- -- -- -- -- -- --  -- -- -- -- -- -- -- --
0100:                             00                             .      
```

#### Opcodes

```
  0: 0x0109 [0x00] END_REQSTACK()
```

### Event 465

#### Metadata

| Field        | Value    |
|--------------|----------|
| Entrypoint   | 0x010A   |
| Data Size    | 33 bytes |
| Instructions | 12       |

```
      00 01 02 03 04 05 06 07  08 09 0A 0B 0C 0D 0E 0F
      -- -- -- -- -- -- -- --  -- -- -- -- -- -- -- --
0100:                                1E F0 FF FF 7F 6F            .....o
0110: 70 29 08 26 10 0F 01 01  1D 10 80 23 1D 11 80 23  p).&.......#...#
0120: 29 08 26 10 0F 01 07 20  00 21 00                 ).&.... .!.     
```

#### Opcodes

```
  0: 0x010A [0x1E] EventEntity looks at LocalPlayer and starts talking
  1: 0x010F [0x6F] WAIT_FRAME_DELAY: Yield until WaitTime reaches zero
  2: 0x0110 [0x70] WAIT_ENTITY_RENDER_FLAG: Wait while EventEntity->Render.Flags3 bit 2 is set (cancel turn if not)
  3: 0x0111 [0x29] REQ_SET_WAIT(priority=0x08, entity_id=Catalia (ID: 17764390/0x010F1026), tag_num=0x01)
  4: 0x0118 [0x1D] PRINT_EVENT_MESSAGE(message_id=8629*)
    → "I would not try to deny the Tarutaru of this land from pursuing peace. It is just that I desire lasting peace, not the temporary fa<Player>gade that Windurst has now."
  5: 0x011B [0x23] WAIT_FOR_DIALOG_INTERACTION
  6: 0x011C [0x1D] PRINT_EVENT_MESSAGE(message_id=8630*)
    → "The apparent tranquility of this place can be considered an illusion born from idealism. Until we wake Windurst from its dream it will continue to be beyond help."
  7: 0x011F [0x23] WAIT_FOR_DIALOG_INTERACTION
  8: 0x0120 [0x29] REQ_SET_WAIT(priority=0x08, entity_id=Catalia (ID: 17764390/0x010F1026), tag_num=0x07)
  9: 0x0127 [0x20] SET_CLI_EVENT_UC_FLAG: Unlock player control
 10: 0x0129 [0x21] END_EVENT
 11: 0x012A [0x00] END_REQSTACK()
```

### Event 470

#### Metadata

| Field        | Value    |
|--------------|----------|
| Entrypoint   | 0x012B   |
| Data Size    | 33 bytes |
| Instructions | 12       |

```
      00 01 02 03 04 05 06 07  08 09 0A 0B 0C 0D 0E 0F
      -- -- -- -- -- -- -- --  -- -- -- -- -- -- -- --
0120:                                   1E F0 FF FF 7F             .....
0130: 6F 70 29 08 26 10 0F 01  01 1D 12 80 23 1D 13 80  op).&.......#...
0140: 23 29 08 26 10 0F 01 07  20 00 21 00              #).&.... .!.    
```

#### Opcodes

```
  0: 0x012B [0x1E] EventEntity looks at LocalPlayer and starts talking
  1: 0x0130 [0x6F] WAIT_FRAME_DELAY: Yield until WaitTime reaches zero
  2: 0x0131 [0x70] WAIT_ENTITY_RENDER_FLAG: Wait while EventEntity->Render.Flags3 bit 2 is set (cancel turn if not)
  3: 0x0132 [0x29] REQ_SET_WAIT(priority=0x08, entity_id=Catalia (ID: 17764390/0x010F1026), tag_num=0x01)
  4: 0x0139 [0x1D] PRINT_EVENT_MESSAGE(message_id=8639*)
    → "The ferocious monster was really a trap set by the beastmen...? What a horrid turn of events this has proved to be."
  5: 0x013C [0x23] WAIT_FOR_DIALOG_INTERACTION
  6: 0x013D [0x1D] PRINT_EVENT_MESSAGE(message_id=8640*)
    → "Moreover, there is talk of a nether beast appearing? Could it be...? No! Do not tell me that we are marching forthright into another Great War?"
  7: 0x0140 [0x23] WAIT_FOR_DIALOG_INTERACTION
  8: 0x0141 [0x29] REQ_SET_WAIT(priority=0x08, entity_id=Catalia (ID: 17764390/0x010F1026), tag_num=0x07)
  9: 0x0148 [0x20] SET_CLI_EVENT_UC_FLAG: Unlock player control
 10: 0x014A [0x21] END_EVENT
 11: 0x014B [0x00] END_REQSTACK()
```
