# 17764413 - Matata

## Common Data

| Field            | Value                    |
|------------------|--------------------------|
| Zone             | Windurst Woods (ID: 241) |
| Block Size       | 308 bytes                |
| Total Events     | 9                        |
| References Count | 13                       |

## List of Events

| Event ID                 | Entrypoint   |   Size |   Instructions |
|--------------------------|--------------|--------|----------------|
| [65535](#event-65535)    | 0x0000       |      1 |              1 |
| [65535.1](#event-655351) | 0x0001       |     16 |              2 |
| [65535.2](#event-655352) | 0x0011       |      9 |              3 |
| [65535.3](#event-655353) | 0x001A       |      9 |              3 |
| [223](#event-223)        | 0x0023       |     33 |             12 |
| [226](#event-226)        | 0x0044       |     33 |             12 |
| [233](#event-233)        | 0x0065       |     33 |             12 |
| [237](#event-237)        | 0x0086       |     33 |             12 |
| [241](#event-241)        | 0x00A7       |     37 |             14 |

## DAT References (imed_data)

|   Index | Hex Value   |   Dec Value |
|---------|-------------|-------------|
|       0 | 0x0028      |          40 |
|       1 | 0x001E      |          30 |
|       2 | 0x1F05      |        7941 |
|       3 | 0x1F06      |        7942 |
|       4 | 0x1F10      |        7952 |
|       5 | 0x1F11      |        7953 |
|       6 | 0x1F1F      |        7967 |
|       7 | 0x1F20      |        7968 |
|       8 | 0x1F2C      |        7980 |
|       9 | 0x1F2D      |        7981 |
|      10 | 0x1F37      |        7991 |
|      11 | 0x1F38      |        7992 |
|      12 | 0x1F39      |        7993 |

## String References

- **7941**: Gee-whiz... I don't know... Can chocobos fly? If they can't, then why do they have wings...?
- **7942**: (Lost in thought on the subject, Matata didn't get any work done today, either...)
- **7952**: Why, that Mithra apothecary is very kind...even though she is a Mithra.
- **7953**: I bet that's her motherly love showing itself. They say a woman changes once she has a child...
- **7967**: I do declare, that sickly chocobo is a bit different from them other chocobos.
- **7968**: Why, his favorite meal is not $2 like normal chocobos, but the stew made by the chef at the Culinarians' Guild. Isn't that just the darndest-warndest?
- **7980**: Why don't y'all try mixing that bitter medicament into some of Ranpi-Monpi's special stew from the Culinarians' Guild?
- **7981**: Why, I do declare, I've seen that there chocobo wolfing down that special stew like there's no tomorrow! Surely he won't notice if you mix some medicament into his stew, now will he?
- **7991**: I wonder why that chocobo turned all sickly in the first place? It don't look like no disease I've ever seen...
- **7992**: P'haps he ate something that disagreed with him on one of his journeys? Say, did you know that there's some dang awful mushrooms in them San d'Orian lands?
- **7993**: Why, once you've ate one of the consarned things, you just can't stop and eat more and more! It can git so bad, all you wanna eat's them mushrooms! Darn nasty-wasty work, thems!

## Events

### Event 65535

#### Metadata

| Field        | Value   |
|--------------|---------|
| Entrypoint   | 0x0000  |
| Data Size    | 1 bytes |
| Instructions | 1       |

```
      00 01 02 03 04 05 06 07  08 09 0A 0B 0C 0D 0E 0F
      -- -- -- -- -- -- -- --  -- -- -- -- -- -- -- --
0000: 00                                                .               
```

#### Opcodes

```
  0: 0x0000 [0x00] END_REQSTACK()
```

### Event 65535.1

#### Metadata

| Field        | Value    |
|--------------|----------|
| Entrypoint   | 0x0001   |
| Data Size    | 16 bytes |
| Instructions | 2        |

```
      00 01 02 03 04 05 06 07  08 09 0A 0B 0C 0D 0E 0F
      -- -- -- -- -- -- -- --  -- -- -- -- -- -- -- --
0000:    66 00 80 F8 FF FF 7F  F8 FF FF 7F 74 6C 6B 30   f..........tlk0
0010: 00                                                .               
```

#### Opcodes

```
  0: 0x0001 [0x66] LOAD_EXT_SCHEDULER_MAIN: Load scheduler "tlk0" with entities [EventEntity, EventEntity], work=40*
  1: 0x0010 [0x00] END_REQSTACK()
```

### Event 65535.2

#### Metadata

| Field        | Value   |
|--------------|---------|
| Entrypoint   | 0x0011  |
| Data Size    | 9 bytes |
| Instructions | 3       |

```
      00 01 02 03 04 05 06 07  08 09 0A 0B 0C 0D 0E 0F
      -- -- -- -- -- -- -- --  -- -- -- -- -- -- -- --
0010:    5E 69 64 6C 30 1C 01  80 00                     ^idl0....      
```

#### Opcodes

```
  0: 0x0011 [0x5E] EventEntity goes idle (kills current action) (animation: "idl0")
  1: 0x0016 [0x1C] WAIT(30* ticks)
  2: 0x0019 [0x00] END_REQSTACK()
```

### Event 65535.3

#### Metadata

| Field        | Value   |
|--------------|---------|
| Entrypoint   | 0x001A  |
| Data Size    | 9 bytes |
| Instructions | 3       |

```
      00 01 02 03 04 05 06 07  08 09 0A 0B 0C 0D 0E 0F
      -- -- -- -- -- -- -- --  -- -- -- -- -- -- -- --
0010:                                5E 69 64 6C 30 1C            ^idl0.
0020: 01 80 00                                          ...             
```

#### Opcodes

```
  0: 0x001A [0x5E] EventEntity goes idle (kills current action) (animation: "idl0")
  1: 0x001F [0x1C] WAIT(30* ticks)
  2: 0x0022 [0x00] END_REQSTACK()
```

### Event 223

#### Metadata

| Field        | Value    |
|--------------|----------|
| Entrypoint   | 0x0023   |
| Data Size    | 33 bytes |
| Instructions | 12       |

```
      00 01 02 03 04 05 06 07  08 09 0A 0B 0C 0D 0E 0F
      -- -- -- -- -- -- -- --  -- -- -- -- -- -- -- --
0020:          1E F0 FF FF 7F  6F 70 29 08 3D 10 0F 01     .....op).=...
0030: 01 1D 02 80 23 1D 03 80  23 29 08 3D 10 0F 01 03  ....#...#).=....
0040: 20 00 21 00                                        .!.            
```

#### Opcodes

```
  0: 0x0023 [0x1E] EventEntity looks at LocalPlayer and starts talking
  1: 0x0028 [0x6F] WAIT_FRAME_DELAY: Yield until WaitTime reaches zero
  2: 0x0029 [0x70] WAIT_ENTITY_RENDER_FLAG: Wait while EventEntity->Render.Flags3 bit 2 is set (cancel turn if not)
  3: 0x002A [0x29] REQ_SET_WAIT(priority=0x08, entity_id=Matata (ID: 17764413/0x010F103D), tag_num=0x01)
  4: 0x0031 [0x1D] PRINT_EVENT_MESSAGE(message_id=7941*)
    → "Gee-whiz... I don't know... Can chocobos fly? If they can't, then why do they have wings...?"
  5: 0x0034 [0x23] WAIT_FOR_DIALOG_INTERACTION
  6: 0x0035 [0x1D] PRINT_EVENT_MESSAGE(message_id=7942*)
    → "(Lost in thought on the subject, Matata didn't get any work done today, either...)"
  7: 0x0038 [0x23] WAIT_FOR_DIALOG_INTERACTION
  8: 0x0039 [0x29] REQ_SET_WAIT(priority=0x08, entity_id=Matata (ID: 17764413/0x010F103D), tag_num=0x03)
  9: 0x0040 [0x20] SET_CLI_EVENT_UC_FLAG: Unlock player control
 10: 0x0042 [0x21] END_EVENT
 11: 0x0043 [0x00] END_REQSTACK()
```

### Event 226

#### Metadata

| Field        | Value    |
|--------------|----------|
| Entrypoint   | 0x0044   |
| Data Size    | 33 bytes |
| Instructions | 12       |

```
      00 01 02 03 04 05 06 07  08 09 0A 0B 0C 0D 0E 0F
      -- -- -- -- -- -- -- --  -- -- -- -- -- -- -- --
0040:             1E F0 FF FF  7F 6F 70 29 08 3D 10 0F      .....op).=..
0050: 01 01 1D 04 80 23 1D 05  80 23 29 08 3D 10 0F 01  .....#...#).=...
0060: 03 20 00 21 00                                    . .!.           
```

#### Opcodes

```
  0: 0x0044 [0x1E] EventEntity looks at LocalPlayer and starts talking
  1: 0x0049 [0x6F] WAIT_FRAME_DELAY: Yield until WaitTime reaches zero
  2: 0x004A [0x70] WAIT_ENTITY_RENDER_FLAG: Wait while EventEntity->Render.Flags3 bit 2 is set (cancel turn if not)
  3: 0x004B [0x29] REQ_SET_WAIT(priority=0x08, entity_id=Matata (ID: 17764413/0x010F103D), tag_num=0x01)
  4: 0x0052 [0x1D] PRINT_EVENT_MESSAGE(message_id=7952*)
    → "Why, that Mithra apothecary is very kind...even though she is a Mithra."
  5: 0x0055 [0x23] WAIT_FOR_DIALOG_INTERACTION
  6: 0x0056 [0x1D] PRINT_EVENT_MESSAGE(message_id=7953*)
    → "I bet that's her motherly love showing itself. They say a woman changes once she has a child..."
  7: 0x0059 [0x23] WAIT_FOR_DIALOG_INTERACTION
  8: 0x005A [0x29] REQ_SET_WAIT(priority=0x08, entity_id=Matata (ID: 17764413/0x010F103D), tag_num=0x03)
  9: 0x0061 [0x20] SET_CLI_EVENT_UC_FLAG: Unlock player control
 10: 0x0063 [0x21] END_EVENT
 11: 0x0064 [0x00] END_REQSTACK()
```

### Event 233

#### Metadata

| Field        | Value    |
|--------------|----------|
| Entrypoint   | 0x0065   |
| Data Size    | 33 bytes |
| Instructions | 12       |

```
      00 01 02 03 04 05 06 07  08 09 0A 0B 0C 0D 0E 0F
      -- -- -- -- -- -- -- --  -- -- -- -- -- -- -- --
0060:                1E F0 FF  FF 7F 6F 70 29 08 3D 10       .....op).=.
0070: 0F 01 01 1D 06 80 23 1D  07 80 23 29 08 3D 10 0F  ......#...#).=..
0080: 01 03 20 00 21 00                                 .. .!.          
```

#### Opcodes

```
  0: 0x0065 [0x1E] EventEntity looks at LocalPlayer and starts talking
  1: 0x006A [0x6F] WAIT_FRAME_DELAY: Yield until WaitTime reaches zero
  2: 0x006B [0x70] WAIT_ENTITY_RENDER_FLAG: Wait while EventEntity->Render.Flags3 bit 2 is set (cancel turn if not)
  3: 0x006C [0x29] REQ_SET_WAIT(priority=0x08, entity_id=Matata (ID: 17764413/0x010F103D), tag_num=0x01)
  4: 0x0073 [0x1D] PRINT_EVENT_MESSAGE(message_id=7967*)
    → "I do declare, that sickly chocobo is a bit different from them other chocobos."
  5: 0x0076 [0x23] WAIT_FOR_DIALOG_INTERACTION
  6: 0x0077 [0x1D] PRINT_EVENT_MESSAGE(message_id=7968*)
    → "Why, his favorite meal is not $2 like normal chocobos, but the stew made by the chef at the Culinarians' Guild. Isn't that just the darndest-warndest?"
  7: 0x007A [0x23] WAIT_FOR_DIALOG_INTERACTION
  8: 0x007B [0x29] REQ_SET_WAIT(priority=0x08, entity_id=Matata (ID: 17764413/0x010F103D), tag_num=0x03)
  9: 0x0082 [0x20] SET_CLI_EVENT_UC_FLAG: Unlock player control
 10: 0x0084 [0x21] END_EVENT
 11: 0x0085 [0x00] END_REQSTACK()
```

### Event 237

#### Metadata

| Field        | Value    |
|--------------|----------|
| Entrypoint   | 0x0086   |
| Data Size    | 33 bytes |
| Instructions | 12       |

```
      00 01 02 03 04 05 06 07  08 09 0A 0B 0C 0D 0E 0F
      -- -- -- -- -- -- -- --  -- -- -- -- -- -- -- --
0080:                   1E F0  FF FF 7F 6F 70 29 08 3D        .....op).=
0090: 10 0F 01 01 1D 08 80 23  1D 09 80 23 29 08 3D 10  .......#...#).=.
00A0: 0F 01 03 20 00 21 00                              ... .!.         
```

#### Opcodes

```
  0: 0x0086 [0x1E] EventEntity looks at LocalPlayer and starts talking
  1: 0x008B [0x6F] WAIT_FRAME_DELAY: Yield until WaitTime reaches zero
  2: 0x008C [0x70] WAIT_ENTITY_RENDER_FLAG: Wait while EventEntity->Render.Flags3 bit 2 is set (cancel turn if not)
  3: 0x008D [0x29] REQ_SET_WAIT(priority=0x08, entity_id=Matata (ID: 17764413/0x010F103D), tag_num=0x01)
  4: 0x0094 [0x1D] PRINT_EVENT_MESSAGE(message_id=7980*)
    → "Why don't y'all try mixing that bitter medicament into some of Ranpi-Monpi's special stew from the Culinarians' Guild?"
  5: 0x0097 [0x23] WAIT_FOR_DIALOG_INTERACTION
  6: 0x0098 [0x1D] PRINT_EVENT_MESSAGE(message_id=7981*)
    → "Why, I do declare, I've seen that there chocobo wolfing down that special stew like there's no tomorrow! Surely he won't notice if you mix some medicament into his stew, now will he?"
  7: 0x009B [0x23] WAIT_FOR_DIALOG_INTERACTION
  8: 0x009C [0x29] REQ_SET_WAIT(priority=0x08, entity_id=Matata (ID: 17764413/0x010F103D), tag_num=0x03)
  9: 0x00A3 [0x20] SET_CLI_EVENT_UC_FLAG: Unlock player control
 10: 0x00A5 [0x21] END_EVENT
 11: 0x00A6 [0x00] END_REQSTACK()
```

### Event 241

#### Metadata

| Field        | Value    |
|--------------|----------|
| Entrypoint   | 0x00A7   |
| Data Size    | 37 bytes |
| Instructions | 14       |

```
      00 01 02 03 04 05 06 07  08 09 0A 0B 0C 0D 0E 0F
      -- -- -- -- -- -- -- --  -- -- -- -- -- -- -- --
00A0:                      1E  F0 FF FF 7F 6F 70 29 08         .....op).
00B0: 3D 10 0F 01 01 1D 0A 80  23 1D 0B 80 23 1D 0C 80  =.......#...#...
00C0: 23 29 08 3D 10 0F 01 03  20 00 21 00              #).=.... .!.    
```

#### Opcodes

```
  0: 0x00A7 [0x1E] EventEntity looks at LocalPlayer and starts talking
  1: 0x00AC [0x6F] WAIT_FRAME_DELAY: Yield until WaitTime reaches zero
  2: 0x00AD [0x70] WAIT_ENTITY_RENDER_FLAG: Wait while EventEntity->Render.Flags3 bit 2 is set (cancel turn if not)
  3: 0x00AE [0x29] REQ_SET_WAIT(priority=0x08, entity_id=Matata (ID: 17764413/0x010F103D), tag_num=0x01)
  4: 0x00B5 [0x1D] PRINT_EVENT_MESSAGE(message_id=7991*)
    → "I wonder why that chocobo turned all sickly in the first place? It don't look like no disease I've ever seen..."
  5: 0x00B8 [0x23] WAIT_FOR_DIALOG_INTERACTION
  6: 0x00B9 [0x1D] PRINT_EVENT_MESSAGE(message_id=7992*)
    → "P'haps he ate something that disagreed with him on one of his journeys? Say, did you know that there's some dang awful mushrooms in them San d'Orian lands?"
  7: 0x00BC [0x23] WAIT_FOR_DIALOG_INTERACTION
  8: 0x00BD [0x1D] PRINT_EVENT_MESSAGE(message_id=7993*)
    → "Why, once you've ate one of the consarned things, you just can't stop and eat more and more! It can git so bad, all you wanna eat's them mushrooms! Darn nasty-wasty work, thems!"
  9: 0x00C0 [0x23] WAIT_FOR_DIALOG_INTERACTION
 10: 0x00C1 [0x29] REQ_SET_WAIT(priority=0x08, entity_id=Matata (ID: 17764413/0x010F103D), tag_num=0x03)
 11: 0x00C8 [0x20] SET_CLI_EVENT_UC_FLAG: Unlock player control
 12: 0x00CA [0x21] END_EVENT
 13: 0x00CB [0x00] END_REQSTACK()
```
