# 17764575 - Shantotto

## Common Data

| Field            | Value                    |
|------------------|--------------------------|
| Zone             | Windurst Woods (ID: 241) |
| Block Size       | 804 bytes                |
| Total Events     | 43                       |
| References Count | 30                       |

## List of Events

| Event ID                   | Entrypoint   |   Size |   Instructions |
|----------------------------|--------------|--------|----------------|
| [65535](#event-65535)      | 0x0000       |      1 |              1 |
| [65535.1](#event-655351)   | 0x0001       |     16 |              2 |
| [65535.2](#event-655352)   | 0x0011       |     22 |              4 |
| [65535.3](#event-655353)   | 0x0027       |     16 |              2 |
| [65535.4](#event-655354)   | 0x0037       |     14 |              2 |
| [65535.5](#event-655355)   | 0x0045       |     16 |              2 |
| [65535.6](#event-655356)   | 0x0055       |     14 |              2 |
| [65535.7](#event-655357)   | 0x0063       |     16 |              2 |
| [65535.8](#event-655358)   | 0x0073       |     14 |              2 |
| [65535.9](#event-655359)   | 0x0081       |     16 |              2 |
| [65535.10](#event-6553510) | 0x0091       |     22 |              4 |
| [65535.11](#event-6553511) | 0x00A7       |     16 |              2 |
| [65535.12](#event-6553512) | 0x00B7       |     14 |              2 |
| [65535.13](#event-6553513) | 0x00C5       |     16 |              2 |
| [65535.14](#event-6553514) | 0x00D5       |     14 |              2 |
| [65535.15](#event-6553515) | 0x00E3       |     16 |              2 |
| [65535.16](#event-6553516) | 0x00F3       |     14 |              2 |
| [65535.17](#event-6553517) | 0x0101       |     16 |              2 |
| [65535.18](#event-6553518) | 0x0111       |     14 |              2 |
| [65535.19](#event-6553519) | 0x011F       |      9 |              3 |
| [588](#event-588)          | 0x0128       |      1 |              1 |
| [2](#event-2)              | 0x0129       |      1 |              1 |
| [65535.20](#event-6553520) | 0x012A       |     10 |              2 |
| [65535.21](#event-6553521) | 0x0134       |     29 |              7 |
| [65535.22](#event-6553522) | 0x0151       |     14 |              4 |
| [65535.23](#event-6553523) | 0x015F       |     14 |              4 |
| [65535.24](#event-6553524) | 0x016D       |      9 |              3 |
| [65535.25](#event-6553525) | 0x0176       |      9 |              3 |
| [65535.26](#event-6553526) | 0x017F       |      9 |              3 |
| [65535.27](#event-6553527) | 0x0188       |      5 |              3 |
| [65535.28](#event-6553528) | 0x018D       |     37 |              9 |
| [65535.29](#event-6553529) | 0x01B2       |      5 |              3 |
| [65535.30](#event-6553530) | 0x01B7       |      5 |              3 |
| [65535.31](#event-6553531) | 0x01BC       |      5 |              3 |
| [65535.32](#event-6553532) | 0x01C1       |      5 |              3 |
| [65535.33](#event-6553533) | 0x01C6       |      5 |              3 |
| [65535.34](#event-6553534) | 0x01CB       |      5 |              3 |
| [65535.35](#event-6553535) | 0x01D0       |      5 |              3 |
| [65535.36](#event-6553536) | 0x01D5       |      5 |              3 |
| [65535.37](#event-6553537) | 0x01DA       |      5 |              3 |
| [65535.38](#event-6553538) | 0x01DF       |      5 |              3 |
| [65535.39](#event-6553539) | 0x01E4       |      5 |              3 |
| [65535.40](#event-6553540) | 0x01E9       |      5 |              3 |

## DAT References (imed_data)

|   Index | Hex Value   |   Dec Value |
|---------|-------------|-------------|
|       0 | 0x0028      |          40 |
|       1 | 0x001E      |          30 |
|       2 | 0x0029      |          41 |
|       3 | 0xFFFC687A  |  4294731898 |
|       4 | 0x18128     |       98600 |
|       5 | 0x0000      |           0 |
|       6 | 0x001D      |          29 |
|       7 | 0x000D      |          13 |
|       8 | 0xFFFC7D90  |  4294737296 |
|       9 | 0x0026      |          38 |
|      10 | 0xFFFC8231  |  4294738481 |
|      11 | 0x17A55     |       96853 |
|      12 | 0x2514      |        9492 |
|      13 | 0x2515      |        9493 |
|      14 | 0x2516      |        9494 |
|      15 | 0x2517      |        9495 |
|      16 | 0x2519      |        9497 |
|      17 | 0x251A      |        9498 |
|      18 | 0x251C      |        9500 |
|      19 | 0x251E      |        9502 |
|      20 | 0x251F      |        9503 |
|      21 | 0x2520      |        9504 |
|      22 | 0x2522      |        9506 |
|      23 | 0x2523      |        9507 |
|      24 | 0x2524      |        9508 |
|      25 | 0x2526      |        9510 |
|      26 | 0x2528      |        9512 |
|      27 | 0x252B      |        9515 |
|      28 | 0x252C      |        9516 |
|      29 | 0x252D      |        9517 |

## String References

- **9495**: Give it up, Apururu. That seal is beyond you.
- **9497**: I heard you were sneaking around, asking people about the Dark Dungeon. Why don't you just stand at the top of Heavens Tower and yell, "I'm going to break my brother out of jail. Arrest me, someone!"
- **9498**: How imprudent. And you were always such a bright student.
- **9500**: I understand how you feel. I don't want to lose him either. Especially after all the trouble I've gone through to raise a tough-as-nails, wicked-wand-wielding, savage-spell-slinging wizard to take over as Orastery minister...
- **9502**: This door, as you've discovered, can be opened by the power of the stars and the moon. Everything in the Horutoto Ruins is governed by this power.
- **9503**: However, the magic sealing these doors was weakened when several of the towers were severely damaged during the Great War.
- **9504**: And so up until now, these doors could have been opened with a single minister's ring--no need for a charm created by Heavens Tower, like before.
- **9506**: Haven't you figured it out? What does that head of yours contain? You would have realized it by now if you were using that melon you call a brain.
- **9507**: If you'll recall, Ajido-Marujido restored the power of the ruins, my dear dumpling. Now, you are no longer able to open the doors by using just a single ring.
- **9508**: Ohoho, such stupidity!
- **9510**: ...Ah, forgive my amusement. I didn't come just to laugh at you. I have a brilliant idea to help your brother through.
- **9512**: Ohoho! You must gather the rings of the five ministers. Yes, yes. It is a chore. But, using their combined power, you should be able to dispel the seal on the door.
- **9515**: You'd better not. Ah, and there's one more thing you'd better not forget. Don't think of going after the rings yourself. It would be something you'd regret.
- **9516**: Leave it to an adventurer who's capable. Do you know <Player>? [He's/She's] very useful and usable.
- **9517**: It almost boggles the mind how eager [he/she] is to stick [his/her] nose into some dangerous squeeze. There's no reason not to take advantage of <Player>'s natural tendencies.

## Events

### Event 65535

#### Metadata

| Field        | Value   |
|--------------|---------|
| Entrypoint   | 0x0000  |
| Data Size    | 1 bytes |
| Instructions | 1       |

```
      00 01 02 03 04 05 06 07  08 09 0A 0B 0C 0D 0E 0F
      -- -- -- -- -- -- -- --  -- -- -- -- -- -- -- --
0000: 00                                                .               
```

#### Opcodes

```
  0: 0x0000 [0x00] END_REQSTACK()
```

### Event 65535.1

#### Metadata

| Field        | Value    |
|--------------|----------|
| Entrypoint   | 0x0001   |
| Data Size    | 16 bytes |
| Instructions | 2        |

```
      00 01 02 03 04 05 06 07  08 09 0A 0B 0C 0D 0E 0F
      -- -- -- -- -- -- -- --  -- -- -- -- -- -- -- --
0000:    66 00 80 F8 FF FF 7F  F8 FF FF 7F 74 6C 6B 30   f..........tlk0
0010: 00                                                .               
```

#### Opcodes

```
  0: 0x0001 [0x66] LOAD_EXT_SCHEDULER_MAIN: Load scheduler "tlk0" with entities [EventEntity, EventEntity], work=40*
  1: 0x0010 [0x00] END_REQSTACK()
```

### Event 65535.2

#### Metadata

| Field        | Value    |
|--------------|----------|
| Entrypoint   | 0x0011   |
| Data Size    | 22 bytes |
| Instructions | 4        |

```
      00 01 02 03 04 05 06 07  08 09 0A 0B 0C 0D 0E 0F
      -- -- -- -- -- -- -- --  -- -- -- -- -- -- -- --
0010:    53 F8 FF FF 7F F8 FF  FF 7F 74 6C 6B 30 5E 69   S........tlk0^i
0020: 64 6C 30 1C 01 80 00                              dl0....         
```

#### Opcodes

```
  0: 0x0011 [0x53] WAIT_SCHEDULER_TASK: Wait for scheduler "tlk0" with entities [EventEntity, EventEntity]
  1: 0x001E [0x5E] EventEntity goes idle (kills current action) (animation: "idl0")
  2: 0x0023 [0x1C] WAIT(30* ticks)
  3: 0x0026 [0x00] END_REQSTACK()
```

### Event 65535.3

#### Metadata

| Field        | Value    |
|--------------|----------|
| Entrypoint   | 0x0027   |
| Data Size    | 16 bytes |
| Instructions | 2        |

```
      00 01 02 03 04 05 06 07  08 09 0A 0B 0C 0D 0E 0F
      -- -- -- -- -- -- -- --  -- -- -- -- -- -- -- --
0020:                      66  00 80 F8 FF FF 7F F8 FF         f........
0030: FF 7F 74 68 6B 31 00                              ..thk1.         
```

#### Opcodes

```
  0: 0x0027 [0x66] LOAD_EXT_SCHEDULER_MAIN: Load scheduler "thk1" with entities [EventEntity, EventEntity], work=40*
  1: 0x0036 [0x00] END_REQSTACK()
```

### Event 65535.4

#### Metadata

| Field        | Value    |
|--------------|----------|
| Entrypoint   | 0x0037   |
| Data Size    | 14 bytes |
| Instructions | 2        |

```
      00 01 02 03 04 05 06 07  08 09 0A 0B 0C 0D 0E 0F
      -- -- -- -- -- -- -- --  -- -- -- -- -- -- -- --
0030:                      53  F8 FF FF 7F F8 FF FF 7F         S........
0040: 74 68 6B 31 00                                    thk1.           
```

#### Opcodes

```
  0: 0x0037 [0x53] WAIT_SCHEDULER_TASK: Wait for scheduler "thk1" with entities [EventEntity, EventEntity]
  1: 0x0044 [0x00] END_REQSTACK()
```

### Event 65535.5

#### Metadata

| Field        | Value    |
|--------------|----------|
| Entrypoint   | 0x0045   |
| Data Size    | 16 bytes |
| Instructions | 2        |

```
      00 01 02 03 04 05 06 07  08 09 0A 0B 0C 0D 0E 0F
      -- -- -- -- -- -- -- --  -- -- -- -- -- -- -- --
0040:                66 00 80  F8 FF FF 7F F8 FF FF 7F       f..........
0050: 74 68 6B 32 00                                    thk2.           
```

#### Opcodes

```
  0: 0x0045 [0x66] LOAD_EXT_SCHEDULER_MAIN: Load scheduler "thk2" with entities [EventEntity, EventEntity], work=40*
  1: 0x0054 [0x00] END_REQSTACK()
```

### Event 65535.6

#### Metadata

| Field        | Value    |
|--------------|----------|
| Entrypoint   | 0x0055   |
| Data Size    | 14 bytes |
| Instructions | 2        |

```
      00 01 02 03 04 05 06 07  08 09 0A 0B 0C 0D 0E 0F
      -- -- -- -- -- -- -- --  -- -- -- -- -- -- -- --
0050:                53 F8 FF  FF 7F F8 FF FF 7F 74 68       S........th
0060: 6B 32 00                                          k2.             
```

#### Opcodes

```
  0: 0x0055 [0x53] WAIT_SCHEDULER_TASK: Wait for scheduler "thk2" with entities [EventEntity, EventEntity]
  1: 0x0062 [0x00] END_REQSTACK()
```

### Event 65535.7

#### Metadata

| Field        | Value    |
|--------------|----------|
| Entrypoint   | 0x0063   |
| Data Size    | 16 bytes |
| Instructions | 2        |

```
      00 01 02 03 04 05 06 07  08 09 0A 0B 0C 0D 0E 0F
      -- -- -- -- -- -- -- --  -- -- -- -- -- -- -- --
0060:          66 00 80 F8 FF  FF 7F F8 FF FF 7F 70 61     f..........pa
0070: 73 30 00                                          s0.             
```

#### Opcodes

```
  0: 0x0063 [0x66] LOAD_EXT_SCHEDULER_MAIN: Load scheduler "pas0" with entities [EventEntity, EventEntity], work=40*
  1: 0x0072 [0x00] END_REQSTACK()
```

### Event 65535.8

#### Metadata

| Field        | Value    |
|--------------|----------|
| Entrypoint   | 0x0073   |
| Data Size    | 14 bytes |
| Instructions | 2        |

```
      00 01 02 03 04 05 06 07  08 09 0A 0B 0C 0D 0E 0F
      -- -- -- -- -- -- -- --  -- -- -- -- -- -- -- --
0070:          53 F8 FF FF 7F  F8 FF FF 7F 70 61 73 30     S........pas0
0080: 00                                                .               
```

#### Opcodes

```
  0: 0x0073 [0x53] WAIT_SCHEDULER_TASK: Wait for scheduler "pas0" with entities [EventEntity, EventEntity]
  1: 0x0080 [0x00] END_REQSTACK()
```

### Event 65535.9

#### Metadata

| Field        | Value    |
|--------------|----------|
| Entrypoint   | 0x0081   |
| Data Size    | 16 bytes |
| Instructions | 2        |

```
      00 01 02 03 04 05 06 07  08 09 0A 0B 0C 0D 0E 0F
      -- -- -- -- -- -- -- --  -- -- -- -- -- -- -- --
0080:    66 02 80 F8 FF FF 7F  F8 FF FF 7F 6F 68 68 30   f..........ohh0
0090: 00                                                .               
```

#### Opcodes

```
  0: 0x0081 [0x66] LOAD_EXT_SCHEDULER_MAIN: Load scheduler "ohh0" with entities [EventEntity, EventEntity], work=41*
  1: 0x0090 [0x00] END_REQSTACK()
```

### Event 65535.10

#### Metadata

| Field        | Value    |
|--------------|----------|
| Entrypoint   | 0x0091   |
| Data Size    | 22 bytes |
| Instructions | 4        |

```
      00 01 02 03 04 05 06 07  08 09 0A 0B 0C 0D 0E 0F
      -- -- -- -- -- -- -- --  -- -- -- -- -- -- -- --
0090:    53 F8 FF FF 7F F8 FF  FF 7F 6F 68 68 30 5E 69   S........ohh0^i
00A0: 64 6C 30 1C 01 80 00                              dl0....         
```

#### Opcodes

```
  0: 0x0091 [0x53] WAIT_SCHEDULER_TASK: Wait for scheduler "ohh0" with entities [EventEntity, EventEntity]
  1: 0x009E [0x5E] EventEntity goes idle (kills current action) (animation: "idl0")
  2: 0x00A3 [0x1C] WAIT(30* ticks)
  3: 0x00A6 [0x00] END_REQSTACK()
```

### Event 65535.11

#### Metadata

| Field        | Value    |
|--------------|----------|
| Entrypoint   | 0x00A7   |
| Data Size    | 16 bytes |
| Instructions | 2        |

```
      00 01 02 03 04 05 06 07  08 09 0A 0B 0C 0D 0E 0F
      -- -- -- -- -- -- -- --  -- -- -- -- -- -- -- --
00A0:                      66  02 80 F8 FF FF 7F F8 FF         f........
00B0: FF 7F 73 68 6B 30 00                              ..shk0.         
```

#### Opcodes

```
  0: 0x00A7 [0x66] LOAD_EXT_SCHEDULER_MAIN: Load scheduler "shk0" with entities [EventEntity, EventEntity], work=41*
  1: 0x00B6 [0x00] END_REQSTACK()
```

### Event 65535.12

#### Metadata

| Field        | Value    |
|--------------|----------|
| Entrypoint   | 0x00B7   |
| Data Size    | 14 bytes |
| Instructions | 2        |

```
      00 01 02 03 04 05 06 07  08 09 0A 0B 0C 0D 0E 0F
      -- -- -- -- -- -- -- --  -- -- -- -- -- -- -- --
00B0:                      53  F8 FF FF 7F F8 FF FF 7F         S........
00C0: 73 68 6B 30 00                                    shk0.           
```

#### Opcodes

```
  0: 0x00B7 [0x53] WAIT_SCHEDULER_TASK: Wait for scheduler "shk0" with entities [EventEntity, EventEntity]
  1: 0x00C4 [0x00] END_REQSTACK()
```

### Event 65535.13

#### Metadata

| Field        | Value    |
|--------------|----------|
| Entrypoint   | 0x00C5   |
| Data Size    | 16 bytes |
| Instructions | 2        |

```
      00 01 02 03 04 05 06 07  08 09 0A 0B 0C 0D 0E 0F
      -- -- -- -- -- -- -- --  -- -- -- -- -- -- -- --
00C0:                66 00 80  F8 FF FF 7F F8 FF FF 7F       f..........
00D0: 64 69 73 30 00                                    dis0.           
```

#### Opcodes

```
  0: 0x00C5 [0x66] LOAD_EXT_SCHEDULER_MAIN: Load scheduler "dis0" with entities [EventEntity, EventEntity], work=40*
  1: 0x00D4 [0x00] END_REQSTACK()
```

### Event 65535.14

#### Metadata

| Field        | Value    |
|--------------|----------|
| Entrypoint   | 0x00D5   |
| Data Size    | 14 bytes |
| Instructions | 2        |

```
      00 01 02 03 04 05 06 07  08 09 0A 0B 0C 0D 0E 0F
      -- -- -- -- -- -- -- --  -- -- -- -- -- -- -- --
00D0:                53 F8 FF  FF 7F F8 FF FF 7F 64 69       S........di
00E0: 73 30 00                                          s0.             
```

#### Opcodes

```
  0: 0x00D5 [0x53] WAIT_SCHEDULER_TASK: Wait for scheduler "dis0" with entities [EventEntity, EventEntity]
  1: 0x00E2 [0x00] END_REQSTACK()
```

### Event 65535.15

#### Metadata

| Field        | Value    |
|--------------|----------|
| Entrypoint   | 0x00E3   |
| Data Size    | 16 bytes |
| Instructions | 2        |

```
      00 01 02 03 04 05 06 07  08 09 0A 0B 0C 0D 0E 0F
      -- -- -- -- -- -- -- --  -- -- -- -- -- -- -- --
00E0:          66 00 80 F8 FF  FF 7F F8 FF FF 7F 70 6F     f..........po
00F0: 69 30 00                                          i0.             
```

#### Opcodes

```
  0: 0x00E3 [0x66] LOAD_EXT_SCHEDULER_MAIN: Load scheduler "poi0" with entities [EventEntity, EventEntity], work=40*
  1: 0x00F2 [0x00] END_REQSTACK()
```

### Event 65535.16

#### Metadata

| Field        | Value    |
|--------------|----------|
| Entrypoint   | 0x00F3   |
| Data Size    | 14 bytes |
| Instructions | 2        |

```
      00 01 02 03 04 05 06 07  08 09 0A 0B 0C 0D 0E 0F
      -- -- -- -- -- -- -- --  -- -- -- -- -- -- -- --
00F0:          53 F8 FF FF 7F  F8 FF FF 7F 70 6F 69 30     S........poi0
0100: 00                                                .               
```

#### Opcodes

```
  0: 0x00F3 [0x53] WAIT_SCHEDULER_TASK: Wait for scheduler "poi0" with entities [EventEntity, EventEntity]
  1: 0x0100 [0x00] END_REQSTACK()
```

### Event 65535.17

#### Metadata

| Field        | Value    |
|--------------|----------|
| Entrypoint   | 0x0101   |
| Data Size    | 16 bytes |
| Instructions | 2        |

```
      00 01 02 03 04 05 06 07  08 09 0A 0B 0C 0D 0E 0F
      -- -- -- -- -- -- -- --  -- -- -- -- -- -- -- --
0100:    66 00 80 F8 FF FF 7F  F8 FF FF 7F 69 72 6F 30   f..........iro0
0110: 00                                                .               
```

#### Opcodes

```
  0: 0x0101 [0x66] LOAD_EXT_SCHEDULER_MAIN: Load scheduler "iro0" with entities [EventEntity, EventEntity], work=40*
  1: 0x0110 [0x00] END_REQSTACK()
```

### Event 65535.18

#### Metadata

| Field        | Value    |
|--------------|----------|
| Entrypoint   | 0x0111   |
| Data Size    | 14 bytes |
| Instructions | 2        |

```
      00 01 02 03 04 05 06 07  08 09 0A 0B 0C 0D 0E 0F
      -- -- -- -- -- -- -- --  -- -- -- -- -- -- -- --
0110:    53 F8 FF FF 7F F8 FF  FF 7F 69 72 6F 30 00      S........iro0. 
```

#### Opcodes

```
  0: 0x0111 [0x53] WAIT_SCHEDULER_TASK: Wait for scheduler "iro0" with entities [EventEntity, EventEntity]
  1: 0x011E [0x00] END_REQSTACK()
```

### Event 65535.19

#### Metadata

| Field        | Value   |
|--------------|---------|
| Entrypoint   | 0x011F  |
| Data Size    | 9 bytes |
| Instructions | 3       |

```
      00 01 02 03 04 05 06 07  08 09 0A 0B 0C 0D 0E 0F
      -- -- -- -- -- -- -- --  -- -- -- -- -- -- -- --
0110:                                               5E                 ^
0120: 69 64 6C 30 1C 01 80 00                           idl0....        
```

#### Opcodes

```
  0: 0x011F [0x5E] EventEntity goes idle (kills current action) (animation: "idl0")
  1: 0x0124 [0x1C] WAIT(30* ticks)
  2: 0x0127 [0x00] END_REQSTACK()
```

### Event 588

#### Metadata

| Field        | Value   |
|--------------|---------|
| Entrypoint   | 0x0128  |
| Data Size    | 1 bytes |
| Instructions | 1       |

```
      00 01 02 03 04 05 06 07  08 09 0A 0B 0C 0D 0E 0F
      -- -- -- -- -- -- -- --  -- -- -- -- -- -- -- --
0120:                          00                               .       
```

#### Opcodes

```
  0: 0x0128 [0x00] END_REQSTACK()
```

### Event 2

#### Metadata

| Field        | Value   |
|--------------|---------|
| Entrypoint   | 0x0129  |
| Data Size    | 1 bytes |
| Instructions | 1       |

```
      00 01 02 03 04 05 06 07  08 09 0A 0B 0C 0D 0E 0F
      -- -- -- -- -- -- -- --  -- -- -- -- -- -- -- --
0120:                             00                             .      
```

#### Opcodes

```
  0: 0x0129 [0x00] END_REQSTACK()
```

### Event 65535.20

#### Metadata

| Field        | Value    |
|--------------|----------|
| Entrypoint   | 0x012A   |
| Data Size    | 10 bytes |
| Instructions | 2        |

```
      00 01 02 03 04 05 06 07  08 09 0A 0B 0C 0D 0E 0F
      -- -- -- -- -- -- -- --  -- -- -- -- -- -- -- --
0120:                                37 03 80 04 80 05            7.....
0130: 80 06 80 00                                       ....            
```

#### Opcodes

```
  0: 0x012A [0x37] UPDATE_EVENT_POSITION_AND_DIR: x=-235.398*, z=98.600*, y=0.000*, direction=2.5°*
  1: 0x0133 [0x00] END_REQSTACK()
```

### Event 65535.21

#### Metadata

| Field        | Value    |
|--------------|----------|
| Entrypoint   | 0x0134   |
| Data Size    | 29 bytes |
| Instructions | 7        |

```
      00 01 02 03 04 05 06 07  08 09 0A 0B 0C 0D 0E 0F
      -- -- -- -- -- -- -- --  -- -- -- -- -- -- -- --
0130:             32 07 80 1F  00 08 80 04 80 09 80 1F      2...........
0140: 01 4A DF 10 0F 01 14 10  0F 01 6F 76 DF 10 0F 01  .J........ov....
0150: 00                                                .               
```

#### Opcodes

```
  0: 0x0134 [0x32] ExtData[1]->MainSpeed = 13* * 0.1
  1: 0x0137 [0x1F] MOVE_ENTITY: EventEntity moves to X=-230.000*, Z=98.600*, Y=0.038*
  2: 0x013F [0x1F] MOVE_ENTITY: Update entity position (mode=1)
  3: 0x0141 [0x4A] Shantotto (ID: 17764575/0x010F10DF) looks at Apururu (ID: 17764372/0x010F1014)
  4: 0x014A [0x6F] WAIT_FRAME_DELAY: Yield until WaitTime reaches zero
  5: 0x014B [0x76] CHECK_ENTITY_RENDER_FLAGS: Wait until Shantotto (ID: 17764575/0x010F10DF) Render.Flags0 and Render.Flags3 conditions are met
  6: 0x0150 [0x00] END_REQSTACK()
```

### Event 65535.22

#### Metadata

| Field        | Value    |
|--------------|----------|
| Entrypoint   | 0x0151   |
| Data Size    | 14 bytes |
| Instructions | 4        |

```
      00 01 02 03 04 05 06 07  08 09 0A 0B 0C 0D 0E 0F
      -- -- -- -- -- -- -- --  -- -- -- -- -- -- -- --
0150:    32 07 80 1F 00 0A 80  0B 80 05 80 1F 01 00      2............. 
```

#### Opcodes

```
  0: 0x0151 [0x32] ExtData[1]->MainSpeed = 13* * 0.1
  1: 0x0154 [0x1F] MOVE_ENTITY: EventEntity moves to X=-228.815*, Z=96.853*, Y=0.000*
  2: 0x015C [0x1F] MOVE_ENTITY: Update entity position (mode=1)
  3: 0x015E [0x00] END_REQSTACK()
```

### Event 65535.23

#### Metadata

| Field        | Value    |
|--------------|----------|
| Entrypoint   | 0x015F   |
| Data Size    | 14 bytes |
| Instructions | 4        |

```
      00 01 02 03 04 05 06 07  08 09 0A 0B 0C 0D 0E 0F
      -- -- -- -- -- -- -- --  -- -- -- -- -- -- -- --
0150:                                               32                 2
0160: 07 80 1F 00 08 80 04 80  09 80 1F 01 00           .............   
```

#### Opcodes

```
  0: 0x015F [0x32] ExtData[1]->MainSpeed = 13* * 0.1
  1: 0x0162 [0x1F] MOVE_ENTITY: EventEntity moves to X=-230.000*, Z=98.600*, Y=0.038*
  2: 0x016A [0x1F] MOVE_ENTITY: Update entity position (mode=1)
  3: 0x016C [0x00] END_REQSTACK()
```

### Event 65535.24

#### Metadata

| Field        | Value   |
|--------------|---------|
| Entrypoint   | 0x016D  |
| Data Size    | 9 bytes |
| Instructions | 3       |

```
      00 01 02 03 04 05 06 07  08 09 0A 0B 0C 0D 0E 0F
      -- -- -- -- -- -- -- --  -- -- -- -- -- -- -- --
0160:                                         2B 14 10               +..
0170: 0F 01 0C 80 23 00                                 ....#.          
```

#### Opcodes

```
  0: 0x016D [0x2B] Apururu (ID: 17764372/0x010F1014) [9492*]:
    → "The chambers that lie beneath the central tower are sealed with the power of the stars and the moon. This means that the doors to those chambers can only be opened with an item imbued with that same power."
  1: 0x0174 [0x23] WAIT_FOR_DIALOG_INTERACTION
  2: 0x0175 [0x00] END_REQSTACK()
```

### Event 65535.25

#### Metadata

| Field        | Value   |
|--------------|---------|
| Entrypoint   | 0x0176  |
| Data Size    | 9 bytes |
| Instructions | 3       |

```
      00 01 02 03 04 05 06 07  08 09 0A 0B 0C 0D 0E 0F
      -- -- -- -- -- -- -- --  -- -- -- -- -- -- -- --
0170:                   2B 14  10 0F 01 0D 80 23 00           +......#. 
```

#### Opcodes

```
  0: 0x0176 [0x2B] Apururu (ID: 17764372/0x010F1014) [9493*]:
    → "The rings carry-warried by the ministers are such items. Every time a minister is appointed, a ring is made and presented to the new minister by Heavens Tower."
  1: 0x017D [0x23] WAIT_FOR_DIALOG_INTERACTION
  2: 0x017E [0x00] END_REQSTACK()
```

### Event 65535.26

#### Metadata

| Field        | Value   |
|--------------|---------|
| Entrypoint   | 0x017F  |
| Data Size    | 9 bytes |
| Instructions | 3       |

```
      00 01 02 03 04 05 06 07  08 09 0A 0B 0C 0D 0E 0F
      -- -- -- -- -- -- -- --  -- -- -- -- -- -- -- --
0170:                                               2B                 +
0180: 14 10 0F 01 0E 80 23 00                           ......#.        
```

#### Opcodes

```
  0: 0x017F [0x2B] Apururu (ID: 17764372/0x010F1014) [9494*]:
    → "After learning this, I took the $3 and set off for the Dark Dungeon..."
  1: 0x0186 [0x23] WAIT_FOR_DIALOG_INTERACTION
  2: 0x0187 [0x00] END_REQSTACK()
```

### Event 65535.27

#### Metadata

| Field        | Value   |
|--------------|---------|
| Entrypoint   | 0x0188  |
| Data Size    | 5 bytes |
| Instructions | 3       |

```
      00 01 02 03 04 05 06 07  08 09 0A 0B 0C 0D 0E 0F
      -- -- -- -- -- -- -- --  -- -- -- -- -- -- -- --
0180:                          1D 0F 80 23 00                   ...#.   
```

#### Opcodes

```
  0: 0x0188 [0x1D] PRINT_EVENT_MESSAGE(message_id=9495*)
    → "Give it up, Apururu. That seal is beyond you."
  1: 0x018B [0x23] WAIT_FOR_DIALOG_INTERACTION
  2: 0x018C [0x00] END_REQSTACK()
```

### Event 65535.28

#### Metadata

| Field        | Value    |
|--------------|----------|
| Entrypoint   | 0x018D   |
| Data Size    | 37 bytes |
| Instructions | 9        |

```
      00 01 02 03 04 05 06 07  08 09 0A 0B 0C 0D 0E 0F
      -- -- -- -- -- -- -- --  -- -- -- -- -- -- -- --
0180:                                         29 08 DF               )..
0190: 10 0F 01 0F 1D 10 80 23  29 08 DF 10 0F 01 10 29  .......#)......)
01A0: 08 DF 10 0F 01 0D 1D 11  80 23 29 08 DF 10 0F 01  .........#).....
01B0: 0E 00                                             ..              
```

#### Opcodes

```
  0: 0x018D [0x29] REQ_SET_WAIT(priority=0x08, entity_id=Shantotto (ID: 17764575/0x010F10DF), tag_num=0x0F)
  1: 0x0194 [0x1D] PRINT_EVENT_MESSAGE(message_id=9497*)
    → "I heard you were sneaking around, asking people about the Dark Dungeon. Why don't you just stand at the top of Heavens Tower and yell, "I'm going to break my brother out of jail. Arrest me, someone!""
  2: 0x0197 [0x23] WAIT_FOR_DIALOG_INTERACTION
  3: 0x0198 [0x29] REQ_SET_WAIT(priority=0x08, entity_id=Shantotto (ID: 17764575/0x010F10DF), tag_num=0x10)
  4: 0x019F [0x29] REQ_SET_WAIT(priority=0x08, entity_id=Shantotto (ID: 17764575/0x010F10DF), tag_num=0x0D)
  5: 0x01A6 [0x1D] PRINT_EVENT_MESSAGE(message_id=9498*)
    → "How imprudent. And you were always such a bright student."
  6: 0x01A9 [0x23] WAIT_FOR_DIALOG_INTERACTION
  7: 0x01AA [0x29] REQ_SET_WAIT(priority=0x08, entity_id=Shantotto (ID: 17764575/0x010F10DF), tag_num=0x0E)
  8: 0x01B1 [0x00] END_REQSTACK()
```

### Event 65535.29

#### Metadata

| Field        | Value   |
|--------------|---------|
| Entrypoint   | 0x01B2  |
| Data Size    | 5 bytes |
| Instructions | 3       |

```
      00 01 02 03 04 05 06 07  08 09 0A 0B 0C 0D 0E 0F
      -- -- -- -- -- -- -- --  -- -- -- -- -- -- -- --
01B0:       1D 12 80 23 00                                ...#.         
```

#### Opcodes

```
  0: 0x01B2 [0x1D] PRINT_EVENT_MESSAGE(message_id=9500*)
    → "I understand how you feel. I don't want to lose him either. Especially after all the trouble I've gone through to raise a tough-as-nails, wicked-wand-wielding, savage-spell-slinging wizard to take over as Orastery minister..."
  1: 0x01B5 [0x23] WAIT_FOR_DIALOG_INTERACTION
  2: 0x01B6 [0x00] END_REQSTACK()
```

### Event 65535.30

#### Metadata

| Field        | Value   |
|--------------|---------|
| Entrypoint   | 0x01B7  |
| Data Size    | 5 bytes |
| Instructions | 3       |

```
      00 01 02 03 04 05 06 07  08 09 0A 0B 0C 0D 0E 0F
      -- -- -- -- -- -- -- --  -- -- -- -- -- -- -- --
01B0:                      1D  13 80 23 00                     ...#.    
```

#### Opcodes

```
  0: 0x01B7 [0x1D] PRINT_EVENT_MESSAGE(message_id=9502*)
    → "This door, as you've discovered, can be opened by the power of the stars and the moon. Everything in the Horutoto Ruins is governed by this power."
  1: 0x01BA [0x23] WAIT_FOR_DIALOG_INTERACTION
  2: 0x01BB [0x00] END_REQSTACK()
```

### Event 65535.31

#### Metadata

| Field        | Value   |
|--------------|---------|
| Entrypoint   | 0x01BC  |
| Data Size    | 5 bytes |
| Instructions | 3       |

```
      00 01 02 03 04 05 06 07  08 09 0A 0B 0C 0D 0E 0F
      -- -- -- -- -- -- -- --  -- -- -- -- -- -- -- --
01B0:                                      1D 14 80 23              ...#
01C0: 00                                                .               
```

#### Opcodes

```
  0: 0x01BC [0x1D] PRINT_EVENT_MESSAGE(message_id=9503*)
    → "However, the magic sealing these doors was weakened when several of the towers were severely damaged during the Great War."
  1: 0x01BF [0x23] WAIT_FOR_DIALOG_INTERACTION
  2: 0x01C0 [0x00] END_REQSTACK()
```

### Event 65535.32

#### Metadata

| Field        | Value   |
|--------------|---------|
| Entrypoint   | 0x01C1  |
| Data Size    | 5 bytes |
| Instructions | 3       |

```
      00 01 02 03 04 05 06 07  08 09 0A 0B 0C 0D 0E 0F
      -- -- -- -- -- -- -- --  -- -- -- -- -- -- -- --
01C0:    1D 15 80 23 00                                  ...#.          
```

#### Opcodes

```
  0: 0x01C1 [0x1D] PRINT_EVENT_MESSAGE(message_id=9504*)
    → "And so up until now, these doors could have been opened with a single minister's ring--no need for a charm created by Heavens Tower, like before."
  1: 0x01C4 [0x23] WAIT_FOR_DIALOG_INTERACTION
  2: 0x01C5 [0x00] END_REQSTACK()
```

### Event 65535.33

#### Metadata

| Field        | Value   |
|--------------|---------|
| Entrypoint   | 0x01C6  |
| Data Size    | 5 bytes |
| Instructions | 3       |

```
      00 01 02 03 04 05 06 07  08 09 0A 0B 0C 0D 0E 0F
      -- -- -- -- -- -- -- --  -- -- -- -- -- -- -- --
01C0:                   1D 16  80 23 00                       ...#.     
```

#### Opcodes

```
  0: 0x01C6 [0x1D] PRINT_EVENT_MESSAGE(message_id=9506*)
    → "Haven't you figured it out? What does that head of yours contain? You would have realized it by now if you were using that melon you call a brain."
  1: 0x01C9 [0x23] WAIT_FOR_DIALOG_INTERACTION
  2: 0x01CA [0x00] END_REQSTACK()
```

### Event 65535.34

#### Metadata

| Field        | Value   |
|--------------|---------|
| Entrypoint   | 0x01CB  |
| Data Size    | 5 bytes |
| Instructions | 3       |

```
      00 01 02 03 04 05 06 07  08 09 0A 0B 0C 0D 0E 0F
      -- -- -- -- -- -- -- --  -- -- -- -- -- -- -- --
01C0:                                   1D 17 80 23 00             ...#.
```

#### Opcodes

```
  0: 0x01CB [0x1D] PRINT_EVENT_MESSAGE(message_id=9507*)
    → "If you'll recall, Ajido-Marujido restored the power of the ruins, my dear dumpling. Now, you are no longer able to open the doors by using just a single ring."
  1: 0x01CE [0x23] WAIT_FOR_DIALOG_INTERACTION
  2: 0x01CF [0x00] END_REQSTACK()
```

### Event 65535.35

#### Metadata

| Field        | Value   |
|--------------|---------|
| Entrypoint   | 0x01D0  |
| Data Size    | 5 bytes |
| Instructions | 3       |

```
      00 01 02 03 04 05 06 07  08 09 0A 0B 0C 0D 0E 0F
      -- -- -- -- -- -- -- --  -- -- -- -- -- -- -- --
01D0: 1D 18 80 23 00                                    ...#.           
```

#### Opcodes

```
  0: 0x01D0 [0x1D] PRINT_EVENT_MESSAGE(message_id=9508*)
    → "Ohoho, such stupidity!"
  1: 0x01D3 [0x23] WAIT_FOR_DIALOG_INTERACTION
  2: 0x01D4 [0x00] END_REQSTACK()
```

### Event 65535.36

#### Metadata

| Field        | Value   |
|--------------|---------|
| Entrypoint   | 0x01D5  |
| Data Size    | 5 bytes |
| Instructions | 3       |

```
      00 01 02 03 04 05 06 07  08 09 0A 0B 0C 0D 0E 0F
      -- -- -- -- -- -- -- --  -- -- -- -- -- -- -- --
01D0:                1D 19 80  23 00                         ...#.      
```

#### Opcodes

```
  0: 0x01D5 [0x1D] PRINT_EVENT_MESSAGE(message_id=9510*)
    → "...Ah, forgive my amusement. I didn't come just to laugh at you. I have a brilliant idea to help your brother through."
  1: 0x01D8 [0x23] WAIT_FOR_DIALOG_INTERACTION
  2: 0x01D9 [0x00] END_REQSTACK()
```

### Event 65535.37

#### Metadata

| Field        | Value   |
|--------------|---------|
| Entrypoint   | 0x01DA  |
| Data Size    | 5 bytes |
| Instructions | 3       |

```
      00 01 02 03 04 05 06 07  08 09 0A 0B 0C 0D 0E 0F
      -- -- -- -- -- -- -- --  -- -- -- -- -- -- -- --
01D0:                                1D 1A 80 23 00               ...#. 
```

#### Opcodes

```
  0: 0x01DA [0x1D] PRINT_EVENT_MESSAGE(message_id=9512*)
    → "Ohoho! You must gather the rings of the five ministers. Yes, yes. It is a chore. But, using their combined power, you should be able to dispel the seal on the door."
  1: 0x01DD [0x23] WAIT_FOR_DIALOG_INTERACTION
  2: 0x01DE [0x00] END_REQSTACK()
```

### Event 65535.38

#### Metadata

| Field        | Value   |
|--------------|---------|
| Entrypoint   | 0x01DF  |
| Data Size    | 5 bytes |
| Instructions | 3       |

```
      00 01 02 03 04 05 06 07  08 09 0A 0B 0C 0D 0E 0F
      -- -- -- -- -- -- -- --  -- -- -- -- -- -- -- --
01D0:                                               1D                 .
01E0: 1B 80 23 00                                       ..#.            
```

#### Opcodes

```
  0: 0x01DF [0x1D] PRINT_EVENT_MESSAGE(message_id=9515*)
    → "You'd better not. Ah, and there's one more thing you'd better not forget. Don't think of going after the rings yourself. It would be something you'd regret."
  1: 0x01E2 [0x23] WAIT_FOR_DIALOG_INTERACTION
  2: 0x01E3 [0x00] END_REQSTACK()
```

### Event 65535.39

#### Metadata

| Field        | Value   |
|--------------|---------|
| Entrypoint   | 0x01E4  |
| Data Size    | 5 bytes |
| Instructions | 3       |

```
      00 01 02 03 04 05 06 07  08 09 0A 0B 0C 0D 0E 0F
      -- -- -- -- -- -- -- --  -- -- -- -- -- -- -- --
01E0:             1D 1C 80 23  00                           ...#.       
```

#### Opcodes

```
  0: 0x01E4 [0x1D] PRINT_EVENT_MESSAGE(message_id=9516*)
    → "Leave it to an adventurer who's capable. Do you know <Player>? [He's/She's] very useful and usable."
  1: 0x01E7 [0x23] WAIT_FOR_DIALOG_INTERACTION
  2: 0x01E8 [0x00] END_REQSTACK()
```

### Event 65535.40

#### Metadata

| Field        | Value   |
|--------------|---------|
| Entrypoint   | 0x01E9  |
| Data Size    | 5 bytes |
| Instructions | 3       |

```
      00 01 02 03 04 05 06 07  08 09 0A 0B 0C 0D 0E 0F
      -- -- -- -- -- -- -- --  -- -- -- -- -- -- -- --
01E0:                             1D 1D 80 23 00                 ...#.  
```

#### Opcodes

```
  0: 0x01E9 [0x1D] PRINT_EVENT_MESSAGE(message_id=9517*)
    → "It almost boggles the mind how eager [he/she] is to stick [his/her] nose into some dangerous squeeze. There's no reason not to take advantage of <Player>'s natural tendencies."
  1: 0x01EC [0x23] WAIT_FOR_DIALOG_INTERACTION
  2: 0x01ED [0x00] END_REQSTACK()
```
