# 17764371 - Miiri-Wohri

## Common Data

| Field            | Value                    |
|------------------|--------------------------|
| Zone             | Windurst Woods (ID: 241) |
| Block Size       | 1616 bytes               |
| Total Events     | 44                       |
| References Count | 73                       |

## List of Events

| Event ID                   | Entrypoint   |   Size |   Instructions |
|----------------------------|--------------|--------|----------------|
| [65535](#event-65535)      | 0x0000       |      1 |              1 |
| [65535.1](#event-655351)   | 0x0001       |     16 |              2 |
| [65535.2](#event-655352)   | 0x0011       |     22 |              4 |
| [65535.3](#event-655353)   | 0x0027       |     22 |              3 |
| [65535.4](#event-655354)   | 0x003D       |     28 |              5 |
| [65535.5](#event-655355)   | 0x0059       |      9 |              3 |
| [65535.6](#event-655356)   | 0x0062       |     11 |              3 |
| [111](#event-111)          | 0x006D       |     33 |             12 |
| [115](#event-115)          | 0x008E       |     29 |             10 |
| [118](#event-118)          | 0x00AB       |     33 |             12 |
| [848](#event-848)          | 0x00CC       |      1 |              1 |
| [876](#event-876)          | 0x00CD       |      1 |              1 |
| [114](#event-114)          | 0x00CE       |      1 |              1 |
| [121](#event-121)          | 0x00CF       |      1 |              1 |
| [65535.7](#event-655357)   | 0x00D0       |     15 |              5 |
| [65535.8](#event-655358)   | 0x00DF       |     18 |              6 |
| [65535.9](#event-655359)   | 0x00F1       |     19 |              5 |
| [65535.10](#event-6553510) | 0x0104       |      9 |              5 |
| [124](#event-124)          | 0x010D       |     29 |             10 |
| [151](#event-151)          | 0x012A       |     33 |             12 |
| [157](#event-157)          | 0x014B       |     33 |             12 |
| [133](#event-133)          | 0x016C       |     33 |             12 |
| [161](#event-161)          | 0x018D       |     33 |             12 |
| [474](#event-474)          | 0x01AE       |     33 |             12 |
| [178](#event-178)          | 0x01CF       |     33 |             12 |
| [185](#event-185)          | 0x01F0       |     33 |             12 |
| [191](#event-191)          | 0x0211       |     33 |             12 |
| [196](#event-196)          | 0x0232       |     33 |             12 |
| [201](#event-201)          | 0x0253       |     33 |             12 |
| [209](#event-209)          | 0x0274       |     33 |             12 |
| [214](#event-214)          | 0x0295       |     33 |             12 |
| [217](#event-217)          | 0x02B6       |     37 |             14 |
| [596](#event-596)          | 0x02DB       |     33 |             12 |
| [561](#event-561)          | 0x02FC       |     33 |             12 |
| [564](#event-564)          | 0x031D       |     33 |             12 |
| [570](#event-570)          | 0x033E       |     33 |             12 |
| [575](#event-575)          | 0x035F       |     33 |             12 |
| [580](#event-580)          | 0x0380       |     33 |             12 |
| [585](#event-585)          | 0x03A1       |     33 |             12 |
| [615](#event-615)          | 0x03C2       |     33 |             12 |
| [629](#event-629)          | 0x03E3       |     33 |             12 |
| [626](#event-626)          | 0x0404       |     51 |             16 |
| [633](#event-633)          | 0x0437       |     51 |             16 |
| [871](#event-871)          | 0x046A       |      1 |              1 |

## DAT References (imed_data)

|   Index | Hex Value   |   Dec Value |
|---------|-------------|-------------|
|       0 | 0x0028      |          40 |
|       1 | 0x001E      |          30 |
|       2 | 0x1927D     |      103037 |
|       3 | 0xFFFF85B6  |  4294935990 |
|       4 | 0xFFFFEC79  |  4294962297 |
|       5 | 0x0B3E      |        2878 |
|       6 | 0x1DF0      |        7664 |
|       7 | 0x1DF1      |        7665 |
|       8 | 0x1DF7      |        7671 |
|       9 | 0x1DFB      |        7675 |
|      10 | 0x1DFC      |        7676 |
|      11 | 0x000D      |          13 |
|      12 | 0x1A1F8     |      107000 |
|      13 | 0xFFFF9688  |  4294940296 |
|      14 | 0xFFFFEC78  |  4294962296 |
|      15 | 0x1A10E     |      106766 |
|      16 | 0xFFFF88E4  |  4294936804 |
|      17 | 0x07C4      |        1988 |
|      18 | 0x1E15      |        7701 |
|      19 | 0x1E16      |        7702 |
|      20 | 0x1E17      |        7703 |
|      21 | 0x1E1B      |        7707 |
|      22 | 0x1E6F      |        7791 |
|      23 | 0x1E70      |        7792 |
|      24 | 0x1E7C      |        7804 |
|      25 | 0x1E7D      |        7805 |
|      26 | 0x1E2E      |        7726 |
|      27 | 0x1E2F      |        7727 |
|      28 | 0x1E88      |        7816 |
|      29 | 0x1E89      |        7817 |
|      30 | 0x21E4      |        8676 |
|      31 | 0x21E5      |        8677 |
|      32 | 0x1EAD      |        7853 |
|      33 | 0x1EAE      |        7854 |
|      34 | 0x1EBB      |        7867 |
|      35 | 0x1EBC      |        7868 |
|      36 | 0x1EC8      |        7880 |
|      37 | 0x1EC9      |        7881 |
|      38 | 0x1ED2      |        7890 |
|      39 | 0x1ED3      |        7891 |
|      40 | 0x1EDC      |        7900 |
|      41 | 0x1EDD      |        7901 |
|      42 | 0x1EEA      |        7914 |
|      43 | 0x1EEB      |        7915 |
|      44 | 0x1EF4      |        7924 |
|      45 | 0x1EF5      |        7925 |
|      46 | 0x1EFA      |        7930 |
|      47 | 0x1EFB      |        7931 |
|      48 | 0x1EFC      |        7932 |
|      49 | 0x24C7      |        9415 |
|      50 | 0x24C8      |        9416 |
|      51 | 0x24D1      |        9425 |
|      52 | 0x24D2      |        9426 |
|      53 | 0x24D8      |        9432 |
|      54 | 0x24D9      |        9433 |
|      55 | 0x24E3      |        9443 |
|      56 | 0x24E4      |        9444 |
|      57 | 0x24EE      |        9454 |
|      58 | 0x24EF      |        9455 |
|      59 | 0x24F9      |        9465 |
|      60 | 0x24FA      |        9466 |
|      61 | 0x2506      |        9478 |
|      62 | 0x2507      |        9479 |
|      63 | 0x2567      |        9575 |
|      64 | 0x2568      |        9576 |
|      65 | 0x25A8      |        9640 |
|      66 | 0x25A9      |        9641 |
|      67 | 0x25BA      |        9658 |
|      68 | 0x25BB      |        9659 |
|      69 | 0x25BC      |        9660 |
|      70 | 0x25E0      |        9696 |
|      71 | 0x25E1      |        9697 |
|      72 | 0x25E2      |        9698 |

## String References

- **7664**: I, I, erm, am one of the guards here. <gulp>... Well, erm, nice to meety-weety you!
- **7665**: I, I'm still getting used to it, erm, here... But I'm trying-wrying my besty!
- **7671**: The, the Hume guys all say they envy-wenvy me, you know, being surrounded by Mithra ladies all day and everything... B-but, to tell you the truth, I get really tired-wired, day in and day out.
- **7675**: The, the Mithra ladies are normally very p-pleasant and ch-cheery, but you've got to keep on your toesy-woesies!
- **7676**: Once, I, erm, nodded off for a bit, and, and, woke up to find bite marks on my leggy-leg-legs! I, I, erm, don't want to be eatened!!!
- **7701**: Ex...excusey me... But, I, erm, I know of a mission-wission...
- **7702**: You see...well...erm... The Orastery in the port area is kinda looking for someone to help them with a magic experiment to be conducted at the Horutoto Ruins.
- **7703**: I know it's a little sudden-wudden, but they said they were in a fix because they couldn't find anyone to help them. So, erm, how about it then...?
- **7707**: O-only the e-elite students from the School of Magic can go on to enter the Orastery. So, so the Tarutaru in the Orastery are the most brilliant magic users in the whole of Windurst!
- **7726**: C-Cardians were invented to fight as magical puppet-like s-soldiers in the Great War of twenty-wenty years ago.
- **7727**: Th-thanks to the creation of the Cardians, Tarutaru and Mithra guards have come to suffer less injuries.
- **7791**: I, I understand totally-wotally what the Star Sibyl is saying...
- **7792**: The Star Sibyl is thinking first and foremost of the safety of us Windurstians.
- **7804**: W-well done! I knew you could do it. I, I hope you didn't get hurty-wurty.
- **7805**: If only those Yagudo would let down their guardy-wuardy a bit, we wouldn't have to go through all that just to give them their offerings.
- **7816**: Th-the Library of Magic isn't magic in name only. Almost all the books there have some sort of enchantment-bechantment cast upon them.
- **7817**: W-when you check a book out, the librarians temporarily remove the magic for safety's sake. But, but, sometimes they've been known to forget, so be careful!
- **7853**: Gee... I, I wish I could join in this mission-wission too!
- **7854**: B-but I'm too scared to ask Sola Jaab, in, in case she literally b-bites my heady-weady off!
- **7867**: S-Sibyl G-Guards are the Mithra fighter-mighters who, who serve and protect the great Star Sibyl.
- **7868**: M-most of the M-Mithra in Windurst serve their tribal chieftainness. So you see...Sibyl Guards are special-wecial, even in the Mithran society.
- **7880**: A, a mission from Z-Z-Zubaba!?
- **7881**: Wow! You mean, Zubaba's still alivey-wivey? Gee...
- **7890**: I-It's the first time I saw the real thing! I was the one who took the delivery of your writ...so I was able to touch it!
- **7891**: Wow! It's, it's, it's like I touched the hand of the Star Sibyl...only indirectly! Woooo! I'm sooo happy to be alivey-wivey!
- **7900**: My! W-Windurst is in a state of emergency... I, I just hope nothing has happened to our blessed-wessed Star Sibyl!
- **7901**: If, if anything were to happen to her, Windurst would be ruined! It's b-beyond the depths of despairy-wairy!
- **7914**: It, it seems as though the Star Sibyl and her ladies-in-waiting are all safe and soundy-woundy.
- **7915**: B-but I heard that some rogue broke into the Horutoto Ruins. Wasn't the talisman from the Great War of twenty years ago stored there...?
- **7924**: I, I heard all sorts of nasty rumors about the meeting of the five ministries, but according to the fortune read by the Star Sibyl, Windurst's future is meant to be bright.
- **7925**: So, so there's no need to worry. There's no way a war will break out. You, you can take my word for it!
- **7930**: I, I had the pleasure of delivering a, a star emblem letter from Heavens Tower to the Minister of the Manustery, Miss Apururu.
- **7931**: M-Miss Apururu was so pleased, she let slip a little about what's been going on.
- **7932**: I, I'm glad nothing really-weally bad ended up happening. Phew! Makes you appreciate the peace we have now.
- **8676**: The, the kiddy-widdies who study at the School of Magic are all super-smart. Once they gra-graduate, they can automatically enter one of the m-ministries.
- **8677**: In, in fact, m-most go on to become the m-ministers of the m-ministries! S-saying they have great potential is an understatement-batement!
- **9415**: W-we were r-reprimanded by Captain Rakoh Buuma. She was growling that we guards of Windurst Woods have rrreally been slacking off... "Slacking off completely," she said!
- **9416**: I, erm, I think she was angry b-because I, I don'taru get along with Mithra very well... M-maybe I sh-should try to invite Sola Jaab along on a fishing trip s-sometime.
- **9425**: S-speaking of Minister Ajido-Marujido, I, I heard Minister Tosuka-Porika of the Optistery c-calling him a thiefy-wief.
- **9426**: I, I mean, they've never been the besty-westy of friends, but I w-wonder what else could have h-happened? It gives me b-butterflies in my tummy-wummy.
- **9432**: The D-Dark D-Dungeon is the w-worst punishment that a criminal can g-getaru.
- **9433**: There's n-no leaving the Dark Dungeon until you d-die. H-h-h-how h-h-h-horrible!
- **9443**: I, I, I don't like to talk aboutaru people this way, b-b-but please take c-c-care around the Sibyl Guards.
- **9444**: I, I, I think they're k-k-k-eeping a close eye on y-y-you. W-w-watch your back on the streets at n-n-night...
- **9454**: I, I, I've heard that Minister R-R-Rukususu of the R-R-Rhinostery is investigating a-a-ancient ruins in the Northlands.
- **9455**: S-S-She is looking into things like, erm...the reason why the Northlands have towers similar to the ones found in S-S-Sarutabaruta. Wh-wh-why would that be, I wonder?
- **9465**: D-d-did you know that they h-h-have lots of m-m-magical dolls at the Aurastery?
- **9466**: O-o-originally there were only a f-f-few types, but Professor Koru-Moru has re-re-remodeled them for various tasks.
- **9478**: Th-th-this is not a b-b-betrayal of the S-S-Star Sibyl.
- **9479**: W-w-we just want to h-h-help Minister Apururu. The Orastery needs your h-h-help too.
- **9575**: Th-the Orastery Minister has finally r-regained c-consciousness.
- **9576**: D-do you realize now what a t-terrible-werrible place the Dark Dungeon is? Even a p-powerful mage like Ajido-Marujido wasn't immune to its e-effects.
- **9640**: ... I g-got an advance on my s-salary...
- **9641**: This m-month I have to try to g-get by on $1...
- **9658**: M-Minister Ajido-Marujido has been a-absolved of his crimes! N-now Windurst can f-finally return to a state of peace!
- **9659**: ...Wh-what? Wh-why are you l-looking at me with p-pity like thataru...?
- **9660**: P-please don't t-tell me something else is wr-wrong!
- **9696**: Ah, <Player>! S-so good to s-see you!
- **9697**: S-so many t-terrible-werrible things were g-going on that we d-didn'taru know about...
- **9698**: B-but everyone p-pulled together and s-saved the day! I'm j-just s-speechless!

## Events

### Event 65535

#### Metadata

| Field        | Value   |
|--------------|---------|
| Entrypoint   | 0x0000  |
| Data Size    | 1 bytes |
| Instructions | 1       |

```
      00 01 02 03 04 05 06 07  08 09 0A 0B 0C 0D 0E 0F
      -- -- -- -- -- -- -- --  -- -- -- -- -- -- -- --
0000: 00                                                .               
```

#### Opcodes

```
  0: 0x0000 [0x00] END_REQSTACK()
```

### Event 65535.1

#### Metadata

| Field        | Value    |
|--------------|----------|
| Entrypoint   | 0x0001   |
| Data Size    | 16 bytes |
| Instructions | 2        |

```
      00 01 02 03 04 05 06 07  08 09 0A 0B 0C 0D 0E 0F
      -- -- -- -- -- -- -- --  -- -- -- -- -- -- -- --
0000:    66 00 80 F8 FF FF 7F  F8 FF FF 7F 74 6C 6B 30   f..........tlk0
0010: 00                                                .               
```

#### Opcodes

```
  0: 0x0001 [0x66] LOAD_EXT_SCHEDULER_MAIN: Load scheduler "tlk0" with entities [EventEntity, EventEntity], work=40*
  1: 0x0010 [0x00] END_REQSTACK()
```

### Event 65535.2

#### Metadata

| Field        | Value    |
|--------------|----------|
| Entrypoint   | 0x0011   |
| Data Size    | 22 bytes |
| Instructions | 4        |

```
      00 01 02 03 04 05 06 07  08 09 0A 0B 0C 0D 0E 0F
      -- -- -- -- -- -- -- --  -- -- -- -- -- -- -- --
0010:    53 F8 FF FF 7F F8 FF  FF 7F 74 6C 6B 30 5E 69   S........tlk0^i
0020: 64 6C 30 1C 01 80 00                              dl0....         
```

#### Opcodes

```
  0: 0x0011 [0x53] WAIT_SCHEDULER_TASK: Wait for scheduler "tlk0" with entities [EventEntity, EventEntity]
  1: 0x001E [0x5E] EventEntity goes idle (kills current action) (animation: "idl0")
  2: 0x0023 [0x1C] WAIT(30* ticks)
  3: 0x0026 [0x00] END_REQSTACK()
```

### Event 65535.3

#### Metadata

| Field        | Value    |
|--------------|----------|
| Entrypoint   | 0x0027   |
| Data Size    | 22 bytes |
| Instructions | 3        |

```
      00 01 02 03 04 05 06 07  08 09 0A 0B 0C 0D 0E 0F
      -- -- -- -- -- -- -- --  -- -- -- -- -- -- -- --
0020:                      81  00 F8 FF FF 7F 66 00 80         ......f..
0030: F8 FF FF 7F F8 FF FF 7F  6D 6F 6A 30 00           ........moj0.   
```

#### Opcodes

```
  0: 0x0027 [0x81] SET_ENTITY_BLINKING(blink_flag=0x00, entity=EventEntity)
  1: 0x002D [0x66] LOAD_EXT_SCHEDULER_MAIN: Load scheduler "moj0" with entities [EventEntity, EventEntity], work=40*
  2: 0x003C [0x00] END_REQSTACK()
```

### Event 65535.4

#### Metadata

| Field        | Value    |
|--------------|----------|
| Entrypoint   | 0x003D   |
| Data Size    | 28 bytes |
| Instructions | 5        |

```
      00 01 02 03 04 05 06 07  08 09 0A 0B 0C 0D 0E 0F
      -- -- -- -- -- -- -- --  -- -- -- -- -- -- -- --
0030:                                         53 F8 FF               S..
0040: FF 7F F8 FF FF 7F 6D 6F  6A 30 5E 69 64 6C 30 1C  ......moj0^idl0.
0050: 01 80 81 01 F8 FF FF 7F  00                       .........       
```

#### Opcodes

```
  0: 0x003D [0x53] WAIT_SCHEDULER_TASK: Wait for scheduler "moj0" with entities [EventEntity, EventEntity]
  1: 0x004A [0x5E] EventEntity goes idle (kills current action) (animation: "idl0")
  2: 0x004F [0x1C] WAIT(30* ticks)
  3: 0x0052 [0x81] SET_ENTITY_BLINKING(blink_flag=0x01, entity=EventEntity)
  4: 0x0058 [0x00] END_REQSTACK()
```

### Event 65535.5

#### Metadata

| Field        | Value   |
|--------------|---------|
| Entrypoint   | 0x0059  |
| Data Size    | 9 bytes |
| Instructions | 3       |

```
      00 01 02 03 04 05 06 07  08 09 0A 0B 0C 0D 0E 0F
      -- -- -- -- -- -- -- --  -- -- -- -- -- -- -- --
0050:                             5E 69 64 6C 30 1C 01           ^idl0..
0060: 80 00                                             ..              
```

#### Opcodes

```
  0: 0x0059 [0x5E] EventEntity goes idle (kills current action) (animation: "idl0")
  1: 0x005E [0x1C] WAIT(30* ticks)
  2: 0x0061 [0x00] END_REQSTACK()
```

### Event 65535.6

#### Metadata

| Field        | Value    |
|--------------|----------|
| Entrypoint   | 0x0062   |
| Data Size    | 11 bytes |
| Instructions | 3        |

```
      00 01 02 03 04 05 06 07  08 09 0A 0B 0C 0D 0E 0F
      -- -- -- -- -- -- -- --  -- -- -- -- -- -- -- --
0060:       36 02 80 03 80 04  80 39 05 80 00             6......9...   
```

#### Opcodes

```
  0: 0x0062 [0x36] SET_ENTITY_EVENT_POSITION(pos_x=103.037*, pos_z=-31.306*, pos_y=-4.999*)
  1: 0x0069 [0x39] SET_ENTITY_DIRECTION(direction=15.8°*)
  2: 0x006C [0x00] END_REQSTACK()
```

### Event 111

#### Metadata

| Field        | Value    |
|--------------|----------|
| Entrypoint   | 0x006D   |
| Data Size    | 33 bytes |
| Instructions | 12       |

```
      00 01 02 03 04 05 06 07  08 09 0A 0B 0C 0D 0E 0F
      -- -- -- -- -- -- -- --  -- -- -- -- -- -- -- --
0060:                                         1E F0 FF               ...
0070: FF 7F 6F 70 29 08 13 10  0F 01 03 1D 06 80 23 1D  ..op).........#.
0080: 07 80 23 29 08 13 10 0F  01 05 20 00 21 00        ..#)...... .!.  
```

#### Opcodes

```
  0: 0x006D [0x1E] EventEntity looks at LocalPlayer and starts talking
  1: 0x0072 [0x6F] WAIT_FRAME_DELAY: Yield until WaitTime reaches zero
  2: 0x0073 [0x70] WAIT_ENTITY_RENDER_FLAG: Wait while EventEntity->Render.Flags3 bit 2 is set (cancel turn if not)
  3: 0x0074 [0x29] REQ_SET_WAIT(priority=0x08, entity_id=Miiri-Wohri (ID: 17764371/0x010F1013), tag_num=0x03)
  4: 0x007B [0x1D] PRINT_EVENT_MESSAGE(message_id=7664*)
    → "I, I, erm, am one of the guards here. <gulp>... Well, erm, nice to meety-weety you!"
  5: 0x007E [0x23] WAIT_FOR_DIALOG_INTERACTION
  6: 0x007F [0x1D] PRINT_EVENT_MESSAGE(message_id=7665*)
    → "I, I'm still getting used to it, erm, here... But I'm trying-wrying my besty!"
  7: 0x0082 [0x23] WAIT_FOR_DIALOG_INTERACTION
  8: 0x0083 [0x29] REQ_SET_WAIT(priority=0x08, entity_id=Miiri-Wohri (ID: 17764371/0x010F1013), tag_num=0x05)
  9: 0x008A [0x20] SET_CLI_EVENT_UC_FLAG: Unlock player control
 10: 0x008C [0x21] END_EVENT
 11: 0x008D [0x00] END_REQSTACK()
```

### Event 115

#### Metadata

| Field        | Value    |
|--------------|----------|
| Entrypoint   | 0x008E   |
| Data Size    | 29 bytes |
| Instructions | 10       |

```
      00 01 02 03 04 05 06 07  08 09 0A 0B 0C 0D 0E 0F
      -- -- -- -- -- -- -- --  -- -- -- -- -- -- -- --
0080:                                            1E F0                ..
0090: FF FF 7F 6F 70 29 08 13  10 0F 01 03 1D 08 80 23  ...op).........#
00A0: 29 08 13 10 0F 01 05 20  00 21 00                 )...... .!.     
```

#### Opcodes

```
  0: 0x008E [0x1E] EventEntity looks at LocalPlayer and starts talking
  1: 0x0093 [0x6F] WAIT_FRAME_DELAY: Yield until WaitTime reaches zero
  2: 0x0094 [0x70] WAIT_ENTITY_RENDER_FLAG: Wait while EventEntity->Render.Flags3 bit 2 is set (cancel turn if not)
  3: 0x0095 [0x29] REQ_SET_WAIT(priority=0x08, entity_id=Miiri-Wohri (ID: 17764371/0x010F1013), tag_num=0x03)
  4: 0x009C [0x1D] PRINT_EVENT_MESSAGE(message_id=7671*)
    → "The, the Hume guys all say they envy-wenvy me, you know, being surrounded by Mithra ladies all day and everything... B-but, to tell you the truth, I get really tired-wired, day in and day out."
  5: 0x009F [0x23] WAIT_FOR_DIALOG_INTERACTION
  6: 0x00A0 [0x29] REQ_SET_WAIT(priority=0x08, entity_id=Miiri-Wohri (ID: 17764371/0x010F1013), tag_num=0x05)
  7: 0x00A7 [0x20] SET_CLI_EVENT_UC_FLAG: Unlock player control
  8: 0x00A9 [0x21] END_EVENT
  9: 0x00AA [0x00] END_REQSTACK()
```

### Event 118

#### Metadata

| Field        | Value    |
|--------------|----------|
| Entrypoint   | 0x00AB   |
| Data Size    | 33 bytes |
| Instructions | 12       |

```
      00 01 02 03 04 05 06 07  08 09 0A 0B 0C 0D 0E 0F
      -- -- -- -- -- -- -- --  -- -- -- -- -- -- -- --
00A0:                                   1E F0 FF FF 7F             .....
00B0: 6F 70 29 08 13 10 0F 01  03 1D 09 80 23 1D 0A 80  op).........#...
00C0: 23 29 08 13 10 0F 01 05  20 00 21 00              #)...... .!.    
```

#### Opcodes

```
  0: 0x00AB [0x1E] EventEntity looks at LocalPlayer and starts talking
  1: 0x00B0 [0x6F] WAIT_FRAME_DELAY: Yield until WaitTime reaches zero
  2: 0x00B1 [0x70] WAIT_ENTITY_RENDER_FLAG: Wait while EventEntity->Render.Flags3 bit 2 is set (cancel turn if not)
  3: 0x00B2 [0x29] REQ_SET_WAIT(priority=0x08, entity_id=Miiri-Wohri (ID: 17764371/0x010F1013), tag_num=0x03)
  4: 0x00B9 [0x1D] PRINT_EVENT_MESSAGE(message_id=7675*)
    → "The, the Mithra ladies are normally very p-pleasant and ch-cheery, but you've got to keep on your toesy-woesies!"
  5: 0x00BC [0x23] WAIT_FOR_DIALOG_INTERACTION
  6: 0x00BD [0x1D] PRINT_EVENT_MESSAGE(message_id=7676*)
    → "Once, I, erm, nodded off for a bit, and, and, woke up to find bite marks on my leggy-leg-legs! I, I, erm, don't want to be eatened!!!"
  7: 0x00C0 [0x23] WAIT_FOR_DIALOG_INTERACTION
  8: 0x00C1 [0x29] REQ_SET_WAIT(priority=0x08, entity_id=Miiri-Wohri (ID: 17764371/0x010F1013), tag_num=0x05)
  9: 0x00C8 [0x20] SET_CLI_EVENT_UC_FLAG: Unlock player control
 10: 0x00CA [0x21] END_EVENT
 11: 0x00CB [0x00] END_REQSTACK()
```

### Event 848

#### Metadata

| Field        | Value   |
|--------------|---------|
| Entrypoint   | 0x00CC  |
| Data Size    | 1 bytes |
| Instructions | 1       |

```
      00 01 02 03 04 05 06 07  08 09 0A 0B 0C 0D 0E 0F
      -- -- -- -- -- -- -- --  -- -- -- -- -- -- -- --
00C0:                                      00                       .   
```

#### Opcodes

```
  0: 0x00CC [0x00] END_REQSTACK()
```

### Event 876

#### Metadata

| Field        | Value   |
|--------------|---------|
| Entrypoint   | 0x00CD  |
| Data Size    | 1 bytes |
| Instructions | 1       |

```
      00 01 02 03 04 05 06 07  08 09 0A 0B 0C 0D 0E 0F
      -- -- -- -- -- -- -- --  -- -- -- -- -- -- -- --
00C0:                                         00                     .  
```

#### Opcodes

```
  0: 0x00CD [0x00] END_REQSTACK()
```

### Event 114

#### Metadata

| Field        | Value   |
|--------------|---------|
| Entrypoint   | 0x00CE  |
| Data Size    | 1 bytes |
| Instructions | 1       |

```
      00 01 02 03 04 05 06 07  08 09 0A 0B 0C 0D 0E 0F
      -- -- -- -- -- -- -- --  -- -- -- -- -- -- -- --
00C0:                                            00                   . 
```

#### Opcodes

```
  0: 0x00CE [0x00] END_REQSTACK()
```

### Event 121

#### Metadata

| Field        | Value   |
|--------------|---------|
| Entrypoint   | 0x00CF  |
| Data Size    | 1 bytes |
| Instructions | 1       |

```
      00 01 02 03 04 05 06 07  08 09 0A 0B 0C 0D 0E 0F
      -- -- -- -- -- -- -- --  -- -- -- -- -- -- -- --
00C0:                                               00                 .
```

#### Opcodes

```
  0: 0x00CF [0x00] END_REQSTACK()
```

### Event 65535.7

#### Metadata

| Field        | Value    |
|--------------|----------|
| Entrypoint   | 0x00D0   |
| Data Size    | 15 bytes |
| Instructions | 5        |

```
      00 01 02 03 04 05 06 07  08 09 0A 0B 0C 0D 0E 0F
      -- -- -- -- -- -- -- --  -- -- -- -- -- -- -- --
00D0: 32 0B 80 1F 00 0C 80 0D  80 0E 80 1F 01 6F 00     2............o. 
```

#### Opcodes

```
  0: 0x00D0 [0x32] ExtData[1]->MainSpeed = 13* * 0.1
  1: 0x00D3 [0x1F] MOVE_ENTITY: EventEntity moves to X=107.000*, Z=-27.000*, Y=-5.000*
  2: 0x00DB [0x1F] MOVE_ENTITY: Update entity position (mode=1)
  3: 0x00DD [0x6F] WAIT_FRAME_DELAY: Yield until WaitTime reaches zero
  4: 0x00DE [0x00] END_REQSTACK()
```

### Event 65535.8

#### Metadata

| Field        | Value    |
|--------------|----------|
| Entrypoint   | 0x00DF   |
| Data Size    | 18 bytes |
| Instructions | 6        |

```
      00 01 02 03 04 05 06 07  08 09 0A 0B 0C 0D 0E 0F
      -- -- -- -- -- -- -- --  -- -- -- -- -- -- -- --
00D0:                                               32                 2
00E0: 0B 80 1F 00 0F 80 10 80  0E 80 1F 01 6F 39 11 80  ............o9..
00F0: 00                                                .               
```

#### Opcodes

```
  0: 0x00DF [0x32] ExtData[1]->MainSpeed = 13* * 0.1
  1: 0x00E2 [0x1F] MOVE_ENTITY: EventEntity moves to X=106.766*, Z=-30.492*, Y=-5.000*
  2: 0x00EA [0x1F] MOVE_ENTITY: Update entity position (mode=1)
  3: 0x00EC [0x6F] WAIT_FRAME_DELAY: Yield until WaitTime reaches zero
  4: 0x00ED [0x39] SET_ENTITY_DIRECTION(direction=10.9°*)
  5: 0x00F0 [0x00] END_REQSTACK()
```

### Event 65535.9

#### Metadata

| Field        | Value    |
|--------------|----------|
| Entrypoint   | 0x00F1   |
| Data Size    | 19 bytes |
| Instructions | 5        |

```
      00 01 02 03 04 05 06 07  08 09 0A 0B 0C 0D 0E 0F
      -- -- -- -- -- -- -- --  -- -- -- -- -- -- -- --
00F0:    29 08 13 10 0F 01 03  1D 12 80 23 29 08 13 10   ).........#)...
0100: 0F 01 05 00                                       ....            
```

#### Opcodes

```
  0: 0x00F1 [0x29] REQ_SET_WAIT(priority=0x08, entity_id=Miiri-Wohri (ID: 17764371/0x010F1013), tag_num=0x03)
  1: 0x00F8 [0x1D] PRINT_EVENT_MESSAGE(message_id=7701*)
    → "Ex...excusey me... But, I, erm, I know of a mission-wission..."
  2: 0x00FB [0x23] WAIT_FOR_DIALOG_INTERACTION
  3: 0x00FC [0x29] REQ_SET_WAIT(priority=0x08, entity_id=Miiri-Wohri (ID: 17764371/0x010F1013), tag_num=0x05)
  4: 0x0103 [0x00] END_REQSTACK()
```

### Event 65535.10

#### Metadata

| Field        | Value   |
|--------------|---------|
| Entrypoint   | 0x0104  |
| Data Size    | 9 bytes |
| Instructions | 5       |

```
      00 01 02 03 04 05 06 07  08 09 0A 0B 0C 0D 0E 0F
      -- -- -- -- -- -- -- --  -- -- -- -- -- -- -- --
0100:             1D 13 80 23  1D 14 80 23 00               ...#...#.   
```

#### Opcodes

```
  0: 0x0104 [0x1D] PRINT_EVENT_MESSAGE(message_id=7702*)
    → "You see...well...erm... The Orastery in the port area is kinda looking for someone to help them with a magic experiment to be conducted at the Horutoto Ruins."
  1: 0x0107 [0x23] WAIT_FOR_DIALOG_INTERACTION
  2: 0x0108 [0x1D] PRINT_EVENT_MESSAGE(message_id=7703*)
    → "I know it's a little sudden-wudden, but they said they were in a fix because they couldn't find anyone to help them. So, erm, how about it then...?"
  3: 0x010B [0x23] WAIT_FOR_DIALOG_INTERACTION
  4: 0x010C [0x00] END_REQSTACK()
```

### Event 124

#### Metadata

| Field        | Value    |
|--------------|----------|
| Entrypoint   | 0x010D   |
| Data Size    | 29 bytes |
| Instructions | 10       |

```
      00 01 02 03 04 05 06 07  08 09 0A 0B 0C 0D 0E 0F
      -- -- -- -- -- -- -- --  -- -- -- -- -- -- -- --
0100:                                         1E F0 FF               ...
0110: FF 7F 6F 70 29 08 13 10  0F 01 03 1D 15 80 23 29  ..op).........#)
0120: 08 13 10 0F 01 05 20 00  21 00                    ...... .!.      
```

#### Opcodes

```
  0: 0x010D [0x1E] EventEntity looks at LocalPlayer and starts talking
  1: 0x0112 [0x6F] WAIT_FRAME_DELAY: Yield until WaitTime reaches zero
  2: 0x0113 [0x70] WAIT_ENTITY_RENDER_FLAG: Wait while EventEntity->Render.Flags3 bit 2 is set (cancel turn if not)
  3: 0x0114 [0x29] REQ_SET_WAIT(priority=0x08, entity_id=Miiri-Wohri (ID: 17764371/0x010F1013), tag_num=0x03)
  4: 0x011B [0x1D] PRINT_EVENT_MESSAGE(message_id=7707*)
    → "O-only the e-elite students from the School of Magic can go on to enter the Orastery. So, so the Tarutaru in the Orastery are the most brilliant magic users in the whole of Windurst!"
  5: 0x011E [0x23] WAIT_FOR_DIALOG_INTERACTION
  6: 0x011F [0x29] REQ_SET_WAIT(priority=0x08, entity_id=Miiri-Wohri (ID: 17764371/0x010F1013), tag_num=0x05)
  7: 0x0126 [0x20] SET_CLI_EVENT_UC_FLAG: Unlock player control
  8: 0x0128 [0x21] END_EVENT
  9: 0x0129 [0x00] END_REQSTACK()
```

### Event 151

#### Metadata

| Field        | Value    |
|--------------|----------|
| Entrypoint   | 0x012A   |
| Data Size    | 33 bytes |
| Instructions | 12       |

```
      00 01 02 03 04 05 06 07  08 09 0A 0B 0C 0D 0E 0F
      -- -- -- -- -- -- -- --  -- -- -- -- -- -- -- --
0120:                                1E F0 FF FF 7F 6F            .....o
0130: 70 29 08 13 10 0F 01 03  1D 16 80 23 1D 17 80 23  p).........#...#
0140: 29 08 13 10 0F 01 05 20  00 21 00                 )...... .!.     
```

#### Opcodes

```
  0: 0x012A [0x1E] EventEntity looks at LocalPlayer and starts talking
  1: 0x012F [0x6F] WAIT_FRAME_DELAY: Yield until WaitTime reaches zero
  2: 0x0130 [0x70] WAIT_ENTITY_RENDER_FLAG: Wait while EventEntity->Render.Flags3 bit 2 is set (cancel turn if not)
  3: 0x0131 [0x29] REQ_SET_WAIT(priority=0x08, entity_id=Miiri-Wohri (ID: 17764371/0x010F1013), tag_num=0x03)
  4: 0x0138 [0x1D] PRINT_EVENT_MESSAGE(message_id=7791*)
    → "I, I understand totally-wotally what the Star Sibyl is saying..."
  5: 0x013B [0x23] WAIT_FOR_DIALOG_INTERACTION
  6: 0x013C [0x1D] PRINT_EVENT_MESSAGE(message_id=7792*)
    → "The Star Sibyl is thinking first and foremost of the safety of us Windurstians."
  7: 0x013F [0x23] WAIT_FOR_DIALOG_INTERACTION
  8: 0x0140 [0x29] REQ_SET_WAIT(priority=0x08, entity_id=Miiri-Wohri (ID: 17764371/0x010F1013), tag_num=0x05)
  9: 0x0147 [0x20] SET_CLI_EVENT_UC_FLAG: Unlock player control
 10: 0x0149 [0x21] END_EVENT
 11: 0x014A [0x00] END_REQSTACK()
```

### Event 157

#### Metadata

| Field        | Value    |
|--------------|----------|
| Entrypoint   | 0x014B   |
| Data Size    | 33 bytes |
| Instructions | 12       |

```
      00 01 02 03 04 05 06 07  08 09 0A 0B 0C 0D 0E 0F
      -- -- -- -- -- -- -- --  -- -- -- -- -- -- -- --
0140:                                   1E F0 FF FF 7F             .....
0150: 6F 70 29 08 13 10 0F 01  03 1D 18 80 23 1D 19 80  op).........#...
0160: 23 29 08 13 10 0F 01 05  20 00 21 00              #)...... .!.    
```

#### Opcodes

```
  0: 0x014B [0x1E] EventEntity looks at LocalPlayer and starts talking
  1: 0x0150 [0x6F] WAIT_FRAME_DELAY: Yield until WaitTime reaches zero
  2: 0x0151 [0x70] WAIT_ENTITY_RENDER_FLAG: Wait while EventEntity->Render.Flags3 bit 2 is set (cancel turn if not)
  3: 0x0152 [0x29] REQ_SET_WAIT(priority=0x08, entity_id=Miiri-Wohri (ID: 17764371/0x010F1013), tag_num=0x03)
  4: 0x0159 [0x1D] PRINT_EVENT_MESSAGE(message_id=7804*)
    → "W-well done! I knew you could do it. I, I hope you didn't get hurty-wurty."
  5: 0x015C [0x23] WAIT_FOR_DIALOG_INTERACTION
  6: 0x015D [0x1D] PRINT_EVENT_MESSAGE(message_id=7805*)
    → "If only those Yagudo would let down their guardy-wuardy a bit, we wouldn't have to go through all that just to give them their offerings."
  7: 0x0160 [0x23] WAIT_FOR_DIALOG_INTERACTION
  8: 0x0161 [0x29] REQ_SET_WAIT(priority=0x08, entity_id=Miiri-Wohri (ID: 17764371/0x010F1013), tag_num=0x05)
  9: 0x0168 [0x20] SET_CLI_EVENT_UC_FLAG: Unlock player control
 10: 0x016A [0x21] END_EVENT
 11: 0x016B [0x00] END_REQSTACK()
```

### Event 133

#### Metadata

| Field        | Value    |
|--------------|----------|
| Entrypoint   | 0x016C   |
| Data Size    | 33 bytes |
| Instructions | 12       |

```
      00 01 02 03 04 05 06 07  08 09 0A 0B 0C 0D 0E 0F
      -- -- -- -- -- -- -- --  -- -- -- -- -- -- -- --
0160:                                      1E F0 FF FF              ....
0170: 7F 6F 70 29 08 13 10 0F  01 03 1D 1A 80 23 1D 1B  .op).........#..
0180: 80 23 29 08 13 10 0F 01  05 20 00 21 00           .#)...... .!.   
```

#### Opcodes

```
  0: 0x016C [0x1E] EventEntity looks at LocalPlayer and starts talking
  1: 0x0171 [0x6F] WAIT_FRAME_DELAY: Yield until WaitTime reaches zero
  2: 0x0172 [0x70] WAIT_ENTITY_RENDER_FLAG: Wait while EventEntity->Render.Flags3 bit 2 is set (cancel turn if not)
  3: 0x0173 [0x29] REQ_SET_WAIT(priority=0x08, entity_id=Miiri-Wohri (ID: 17764371/0x010F1013), tag_num=0x03)
  4: 0x017A [0x1D] PRINT_EVENT_MESSAGE(message_id=7726*)
    → "C-Cardians were invented to fight as magical puppet-like s-soldiers in the Great War of twenty-wenty years ago."
  5: 0x017D [0x23] WAIT_FOR_DIALOG_INTERACTION
  6: 0x017E [0x1D] PRINT_EVENT_MESSAGE(message_id=7727*)
    → "Th-thanks to the creation of the Cardians, Tarutaru and Mithra guards have come to suffer less injuries."
  7: 0x0181 [0x23] WAIT_FOR_DIALOG_INTERACTION
  8: 0x0182 [0x29] REQ_SET_WAIT(priority=0x08, entity_id=Miiri-Wohri (ID: 17764371/0x010F1013), tag_num=0x05)
  9: 0x0189 [0x20] SET_CLI_EVENT_UC_FLAG: Unlock player control
 10: 0x018B [0x21] END_EVENT
 11: 0x018C [0x00] END_REQSTACK()
```

### Event 161

#### Metadata

| Field        | Value    |
|--------------|----------|
| Entrypoint   | 0x018D   |
| Data Size    | 33 bytes |
| Instructions | 12       |

```
      00 01 02 03 04 05 06 07  08 09 0A 0B 0C 0D 0E 0F
      -- -- -- -- -- -- -- --  -- -- -- -- -- -- -- --
0180:                                         1E F0 FF               ...
0190: FF 7F 6F 70 29 08 13 10  0F 01 03 1D 1C 80 23 1D  ..op).........#.
01A0: 1D 80 23 29 08 13 10 0F  01 05 20 00 21 00        ..#)...... .!.  
```

#### Opcodes

```
  0: 0x018D [0x1E] EventEntity looks at LocalPlayer and starts talking
  1: 0x0192 [0x6F] WAIT_FRAME_DELAY: Yield until WaitTime reaches zero
  2: 0x0193 [0x70] WAIT_ENTITY_RENDER_FLAG: Wait while EventEntity->Render.Flags3 bit 2 is set (cancel turn if not)
  3: 0x0194 [0x29] REQ_SET_WAIT(priority=0x08, entity_id=Miiri-Wohri (ID: 17764371/0x010F1013), tag_num=0x03)
  4: 0x019B [0x1D] PRINT_EVENT_MESSAGE(message_id=7816*)
    → "Th-the Library of Magic isn't magic in name only. Almost all the books there have some sort of enchantment-bechantment cast upon them."
  5: 0x019E [0x23] WAIT_FOR_DIALOG_INTERACTION
  6: 0x019F [0x1D] PRINT_EVENT_MESSAGE(message_id=7817*)
    → "W-when you check a book out, the librarians temporarily remove the magic for safety's sake. But, but, sometimes they've been known to forget, so be careful!"
  7: 0x01A2 [0x23] WAIT_FOR_DIALOG_INTERACTION
  8: 0x01A3 [0x29] REQ_SET_WAIT(priority=0x08, entity_id=Miiri-Wohri (ID: 17764371/0x010F1013), tag_num=0x05)
  9: 0x01AA [0x20] SET_CLI_EVENT_UC_FLAG: Unlock player control
 10: 0x01AC [0x21] END_EVENT
 11: 0x01AD [0x00] END_REQSTACK()
```

### Event 474

#### Metadata

| Field        | Value    |
|--------------|----------|
| Entrypoint   | 0x01AE   |
| Data Size    | 33 bytes |
| Instructions | 12       |

```
      00 01 02 03 04 05 06 07  08 09 0A 0B 0C 0D 0E 0F
      -- -- -- -- -- -- -- --  -- -- -- -- -- -- -- --
01A0:                                            1E F0                ..
01B0: FF FF 7F 6F 70 29 08 13  10 0F 01 03 1D 1E 80 23  ...op).........#
01C0: 1D 1F 80 23 29 08 13 10  0F 01 05 20 00 21 00     ...#)...... .!. 
```

#### Opcodes

```
  0: 0x01AE [0x1E] EventEntity looks at LocalPlayer and starts talking
  1: 0x01B3 [0x6F] WAIT_FRAME_DELAY: Yield until WaitTime reaches zero
  2: 0x01B4 [0x70] WAIT_ENTITY_RENDER_FLAG: Wait while EventEntity->Render.Flags3 bit 2 is set (cancel turn if not)
  3: 0x01B5 [0x29] REQ_SET_WAIT(priority=0x08, entity_id=Miiri-Wohri (ID: 17764371/0x010F1013), tag_num=0x03)
  4: 0x01BC [0x1D] PRINT_EVENT_MESSAGE(message_id=8676*)
    → "The, the kiddy-widdies who study at the School of Magic are all super-smart. Once they gra-graduate, they can automatically enter one of the m-ministries."
  5: 0x01BF [0x23] WAIT_FOR_DIALOG_INTERACTION
  6: 0x01C0 [0x1D] PRINT_EVENT_MESSAGE(message_id=8677*)
    → "In, in fact, m-most go on to become the m-ministers of the m-ministries! S-saying they have great potential is an understatement-batement!"
  7: 0x01C3 [0x23] WAIT_FOR_DIALOG_INTERACTION
  8: 0x01C4 [0x29] REQ_SET_WAIT(priority=0x08, entity_id=Miiri-Wohri (ID: 17764371/0x010F1013), tag_num=0x05)
  9: 0x01CB [0x20] SET_CLI_EVENT_UC_FLAG: Unlock player control
 10: 0x01CD [0x21] END_EVENT
 11: 0x01CE [0x00] END_REQSTACK()
```

### Event 178

#### Metadata

| Field        | Value    |
|--------------|----------|
| Entrypoint   | 0x01CF   |
| Data Size    | 33 bytes |
| Instructions | 12       |

```
      00 01 02 03 04 05 06 07  08 09 0A 0B 0C 0D 0E 0F
      -- -- -- -- -- -- -- --  -- -- -- -- -- -- -- --
01C0:                                               1E                 .
01D0: F0 FF FF 7F 6F 70 29 08  13 10 0F 01 03 1D 20 80  ....op)....... .
01E0: 23 1D 21 80 23 29 08 13  10 0F 01 05 20 00 21 00  #.!.#)...... .!.
```

#### Opcodes

```
  0: 0x01CF [0x1E] EventEntity looks at LocalPlayer and starts talking
  1: 0x01D4 [0x6F] WAIT_FRAME_DELAY: Yield until WaitTime reaches zero
  2: 0x01D5 [0x70] WAIT_ENTITY_RENDER_FLAG: Wait while EventEntity->Render.Flags3 bit 2 is set (cancel turn if not)
  3: 0x01D6 [0x29] REQ_SET_WAIT(priority=0x08, entity_id=Miiri-Wohri (ID: 17764371/0x010F1013), tag_num=0x03)
  4: 0x01DD [0x1D] PRINT_EVENT_MESSAGE(message_id=7853*)
    → "Gee... I, I wish I could join in this mission-wission too!"
  5: 0x01E0 [0x23] WAIT_FOR_DIALOG_INTERACTION
  6: 0x01E1 [0x1D] PRINT_EVENT_MESSAGE(message_id=7854*)
    → "B-but I'm too scared to ask Sola Jaab, in, in case she literally b-bites my heady-weady off!"
  7: 0x01E4 [0x23] WAIT_FOR_DIALOG_INTERACTION
  8: 0x01E5 [0x29] REQ_SET_WAIT(priority=0x08, entity_id=Miiri-Wohri (ID: 17764371/0x010F1013), tag_num=0x05)
  9: 0x01EC [0x20] SET_CLI_EVENT_UC_FLAG: Unlock player control
 10: 0x01EE [0x21] END_EVENT
 11: 0x01EF [0x00] END_REQSTACK()
```

### Event 185

#### Metadata

| Field        | Value    |
|--------------|----------|
| Entrypoint   | 0x01F0   |
| Data Size    | 33 bytes |
| Instructions | 12       |

```
      00 01 02 03 04 05 06 07  08 09 0A 0B 0C 0D 0E 0F
      -- -- -- -- -- -- -- --  -- -- -- -- -- -- -- --
01F0: 1E F0 FF FF 7F 6F 70 29  08 13 10 0F 01 03 1D 22  .....op)......."
0200: 80 23 1D 23 80 23 29 08  13 10 0F 01 05 20 00 21  .#.#.#)...... .!
0210: 00                                                .               
```

#### Opcodes

```
  0: 0x01F0 [0x1E] EventEntity looks at LocalPlayer and starts talking
  1: 0x01F5 [0x6F] WAIT_FRAME_DELAY: Yield until WaitTime reaches zero
  2: 0x01F6 [0x70] WAIT_ENTITY_RENDER_FLAG: Wait while EventEntity->Render.Flags3 bit 2 is set (cancel turn if not)
  3: 0x01F7 [0x29] REQ_SET_WAIT(priority=0x08, entity_id=Miiri-Wohri (ID: 17764371/0x010F1013), tag_num=0x03)
  4: 0x01FE [0x1D] PRINT_EVENT_MESSAGE(message_id=7867*)
    → "S-Sibyl G-Guards are the Mithra fighter-mighters who, who serve and protect the great Star Sibyl."
  5: 0x0201 [0x23] WAIT_FOR_DIALOG_INTERACTION
  6: 0x0202 [0x1D] PRINT_EVENT_MESSAGE(message_id=7868*)
    → "M-most of the M-Mithra in Windurst serve their tribal chieftainness. So you see...Sibyl Guards are special-wecial, even in the Mithran society."
  7: 0x0205 [0x23] WAIT_FOR_DIALOG_INTERACTION
  8: 0x0206 [0x29] REQ_SET_WAIT(priority=0x08, entity_id=Miiri-Wohri (ID: 17764371/0x010F1013), tag_num=0x05)
  9: 0x020D [0x20] SET_CLI_EVENT_UC_FLAG: Unlock player control
 10: 0x020F [0x21] END_EVENT
 11: 0x0210 [0x00] END_REQSTACK()
```

### Event 191

#### Metadata

| Field        | Value    |
|--------------|----------|
| Entrypoint   | 0x0211   |
| Data Size    | 33 bytes |
| Instructions | 12       |

```
      00 01 02 03 04 05 06 07  08 09 0A 0B 0C 0D 0E 0F
      -- -- -- -- -- -- -- --  -- -- -- -- -- -- -- --
0210:    1E F0 FF FF 7F 6F 70  29 08 13 10 0F 01 03 1D   .....op).......
0220: 24 80 23 1D 25 80 23 29  08 13 10 0F 01 05 20 00  $.#.%.#)...... .
0230: 21 00                                             !.              
```

#### Opcodes

```
  0: 0x0211 [0x1E] EventEntity looks at LocalPlayer and starts talking
  1: 0x0216 [0x6F] WAIT_FRAME_DELAY: Yield until WaitTime reaches zero
  2: 0x0217 [0x70] WAIT_ENTITY_RENDER_FLAG: Wait while EventEntity->Render.Flags3 bit 2 is set (cancel turn if not)
  3: 0x0218 [0x29] REQ_SET_WAIT(priority=0x08, entity_id=Miiri-Wohri (ID: 17764371/0x010F1013), tag_num=0x03)
  4: 0x021F [0x1D] PRINT_EVENT_MESSAGE(message_id=7880*)
    → "A, a mission from Z-Z-Zubaba!?"
  5: 0x0222 [0x23] WAIT_FOR_DIALOG_INTERACTION
  6: 0x0223 [0x1D] PRINT_EVENT_MESSAGE(message_id=7881*)
    → "Wow! You mean, Zubaba's still alivey-wivey? Gee..."
  7: 0x0226 [0x23] WAIT_FOR_DIALOG_INTERACTION
  8: 0x0227 [0x29] REQ_SET_WAIT(priority=0x08, entity_id=Miiri-Wohri (ID: 17764371/0x010F1013), tag_num=0x05)
  9: 0x022E [0x20] SET_CLI_EVENT_UC_FLAG: Unlock player control
 10: 0x0230 [0x21] END_EVENT
 11: 0x0231 [0x00] END_REQSTACK()
```

### Event 196

#### Metadata

| Field        | Value    |
|--------------|----------|
| Entrypoint   | 0x0232   |
| Data Size    | 33 bytes |
| Instructions | 12       |

```
      00 01 02 03 04 05 06 07  08 09 0A 0B 0C 0D 0E 0F
      -- -- -- -- -- -- -- --  -- -- -- -- -- -- -- --
0230:       1E F0 FF FF 7F 6F  70 29 08 13 10 0F 01 03    .....op)......
0240: 1D 26 80 23 1D 27 80 23  29 08 13 10 0F 01 05 20  .&.#.'.#)...... 
0250: 00 21 00                                          .!.             
```

#### Opcodes

```
  0: 0x0232 [0x1E] EventEntity looks at LocalPlayer and starts talking
  1: 0x0237 [0x6F] WAIT_FRAME_DELAY: Yield until WaitTime reaches zero
  2: 0x0238 [0x70] WAIT_ENTITY_RENDER_FLAG: Wait while EventEntity->Render.Flags3 bit 2 is set (cancel turn if not)
  3: 0x0239 [0x29] REQ_SET_WAIT(priority=0x08, entity_id=Miiri-Wohri (ID: 17764371/0x010F1013), tag_num=0x03)
  4: 0x0240 [0x1D] PRINT_EVENT_MESSAGE(message_id=7890*)
    → "I-It's the first time I saw the real thing! I was the one who took the delivery of your writ...so I was able to touch it!"
  5: 0x0243 [0x23] WAIT_FOR_DIALOG_INTERACTION
  6: 0x0244 [0x1D] PRINT_EVENT_MESSAGE(message_id=7891*)
    → "Wow! It's, it's, it's like I touched the hand of the Star Sibyl...only indirectly! Woooo! I'm sooo happy to be alivey-wivey!"
  7: 0x0247 [0x23] WAIT_FOR_DIALOG_INTERACTION
  8: 0x0248 [0x29] REQ_SET_WAIT(priority=0x08, entity_id=Miiri-Wohri (ID: 17764371/0x010F1013), tag_num=0x05)
  9: 0x024F [0x20] SET_CLI_EVENT_UC_FLAG: Unlock player control
 10: 0x0251 [0x21] END_EVENT
 11: 0x0252 [0x00] END_REQSTACK()
```

### Event 201

#### Metadata

| Field        | Value    |
|--------------|----------|
| Entrypoint   | 0x0253   |
| Data Size    | 33 bytes |
| Instructions | 12       |

```
      00 01 02 03 04 05 06 07  08 09 0A 0B 0C 0D 0E 0F
      -- -- -- -- -- -- -- --  -- -- -- -- -- -- -- --
0250:          1E F0 FF FF 7F  6F 70 29 08 13 10 0F 01     .....op).....
0260: 03 1D 28 80 23 1D 29 80  23 29 08 13 10 0F 01 05  ..(.#.).#)......
0270: 20 00 21 00                                        .!.            
```

#### Opcodes

```
  0: 0x0253 [0x1E] EventEntity looks at LocalPlayer and starts talking
  1: 0x0258 [0x6F] WAIT_FRAME_DELAY: Yield until WaitTime reaches zero
  2: 0x0259 [0x70] WAIT_ENTITY_RENDER_FLAG: Wait while EventEntity->Render.Flags3 bit 2 is set (cancel turn if not)
  3: 0x025A [0x29] REQ_SET_WAIT(priority=0x08, entity_id=Miiri-Wohri (ID: 17764371/0x010F1013), tag_num=0x03)
  4: 0x0261 [0x1D] PRINT_EVENT_MESSAGE(message_id=7900*)
    → "My! W-Windurst is in a state of emergency... I, I just hope nothing has happened to our blessed-wessed Star Sibyl!"
  5: 0x0264 [0x23] WAIT_FOR_DIALOG_INTERACTION
  6: 0x0265 [0x1D] PRINT_EVENT_MESSAGE(message_id=7901*)
    → "If, if anything were to happen to her, Windurst would be ruined! It's b-beyond the depths of despairy-wairy!"
  7: 0x0268 [0x23] WAIT_FOR_DIALOG_INTERACTION
  8: 0x0269 [0x29] REQ_SET_WAIT(priority=0x08, entity_id=Miiri-Wohri (ID: 17764371/0x010F1013), tag_num=0x05)
  9: 0x0270 [0x20] SET_CLI_EVENT_UC_FLAG: Unlock player control
 10: 0x0272 [0x21] END_EVENT
 11: 0x0273 [0x00] END_REQSTACK()
```

### Event 209

#### Metadata

| Field        | Value    |
|--------------|----------|
| Entrypoint   | 0x0274   |
| Data Size    | 33 bytes |
| Instructions | 12       |

```
      00 01 02 03 04 05 06 07  08 09 0A 0B 0C 0D 0E 0F
      -- -- -- -- -- -- -- --  -- -- -- -- -- -- -- --
0270:             1E F0 FF FF  7F 6F 70 29 08 13 10 0F      .....op)....
0280: 01 03 1D 2A 80 23 1D 2B  80 23 29 08 13 10 0F 01  ...*.#.+.#).....
0290: 05 20 00 21 00                                    . .!.           
```

#### Opcodes

```
  0: 0x0274 [0x1E] EventEntity looks at LocalPlayer and starts talking
  1: 0x0279 [0x6F] WAIT_FRAME_DELAY: Yield until WaitTime reaches zero
  2: 0x027A [0x70] WAIT_ENTITY_RENDER_FLAG: Wait while EventEntity->Render.Flags3 bit 2 is set (cancel turn if not)
  3: 0x027B [0x29] REQ_SET_WAIT(priority=0x08, entity_id=Miiri-Wohri (ID: 17764371/0x010F1013), tag_num=0x03)
  4: 0x0282 [0x1D] PRINT_EVENT_MESSAGE(message_id=7914*)
    → "It, it seems as though the Star Sibyl and her ladies-in-waiting are all safe and soundy-woundy."
  5: 0x0285 [0x23] WAIT_FOR_DIALOG_INTERACTION
  6: 0x0286 [0x1D] PRINT_EVENT_MESSAGE(message_id=7915*)
    → "B-but I heard that some rogue broke into the Horutoto Ruins. Wasn't the talisman from the Great War of twenty years ago stored there...?"
  7: 0x0289 [0x23] WAIT_FOR_DIALOG_INTERACTION
  8: 0x028A [0x29] REQ_SET_WAIT(priority=0x08, entity_id=Miiri-Wohri (ID: 17764371/0x010F1013), tag_num=0x05)
  9: 0x0291 [0x20] SET_CLI_EVENT_UC_FLAG: Unlock player control
 10: 0x0293 [0x21] END_EVENT
 11: 0x0294 [0x00] END_REQSTACK()
```

### Event 214

#### Metadata

| Field        | Value    |
|--------------|----------|
| Entrypoint   | 0x0295   |
| Data Size    | 33 bytes |
| Instructions | 12       |

```
      00 01 02 03 04 05 06 07  08 09 0A 0B 0C 0D 0E 0F
      -- -- -- -- -- -- -- --  -- -- -- -- -- -- -- --
0290:                1E F0 FF  FF 7F 6F 70 29 08 13 10       .....op)...
02A0: 0F 01 03 1D 2C 80 23 1D  2D 80 23 29 08 13 10 0F  ....,.#.-.#)....
02B0: 01 05 20 00 21 00                                 .. .!.          
```

#### Opcodes

```
  0: 0x0295 [0x1E] EventEntity looks at LocalPlayer and starts talking
  1: 0x029A [0x6F] WAIT_FRAME_DELAY: Yield until WaitTime reaches zero
  2: 0x029B [0x70] WAIT_ENTITY_RENDER_FLAG: Wait while EventEntity->Render.Flags3 bit 2 is set (cancel turn if not)
  3: 0x029C [0x29] REQ_SET_WAIT(priority=0x08, entity_id=Miiri-Wohri (ID: 17764371/0x010F1013), tag_num=0x03)
  4: 0x02A3 [0x1D] PRINT_EVENT_MESSAGE(message_id=7924*)
    → "I, I heard all sorts of nasty rumors about the meeting of the five ministries, but according to the fortune read by the Star Sibyl, Windurst's future is meant to be bright."
  5: 0x02A6 [0x23] WAIT_FOR_DIALOG_INTERACTION
  6: 0x02A7 [0x1D] PRINT_EVENT_MESSAGE(message_id=7925*)
    → "So, so there's no need to worry. There's no way a war will break out. You, you can take my word for it!"
  7: 0x02AA [0x23] WAIT_FOR_DIALOG_INTERACTION
  8: 0x02AB [0x29] REQ_SET_WAIT(priority=0x08, entity_id=Miiri-Wohri (ID: 17764371/0x010F1013), tag_num=0x05)
  9: 0x02B2 [0x20] SET_CLI_EVENT_UC_FLAG: Unlock player control
 10: 0x02B4 [0x21] END_EVENT
 11: 0x02B5 [0x00] END_REQSTACK()
```

### Event 217

#### Metadata

| Field        | Value    |
|--------------|----------|
| Entrypoint   | 0x02B6   |
| Data Size    | 37 bytes |
| Instructions | 14       |

```
      00 01 02 03 04 05 06 07  08 09 0A 0B 0C 0D 0E 0F
      -- -- -- -- -- -- -- --  -- -- -- -- -- -- -- --
02B0:                   1E F0  FF FF 7F 6F 70 29 08 13        .....op)..
02C0: 10 0F 01 03 1D 2E 80 23  1D 2F 80 23 1D 30 80 23  .......#./.#.0.#
02D0: 29 08 13 10 0F 01 05 20  00 21 00                 )...... .!.     
```

#### Opcodes

```
  0: 0x02B6 [0x1E] EventEntity looks at LocalPlayer and starts talking
  1: 0x02BB [0x6F] WAIT_FRAME_DELAY: Yield until WaitTime reaches zero
  2: 0x02BC [0x70] WAIT_ENTITY_RENDER_FLAG: Wait while EventEntity->Render.Flags3 bit 2 is set (cancel turn if not)
  3: 0x02BD [0x29] REQ_SET_WAIT(priority=0x08, entity_id=Miiri-Wohri (ID: 17764371/0x010F1013), tag_num=0x03)
  4: 0x02C4 [0x1D] PRINT_EVENT_MESSAGE(message_id=7930*)
    → "I, I had the pleasure of delivering a, a star emblem letter from Heavens Tower to the Minister of the Manustery, Miss Apururu."
  5: 0x02C7 [0x23] WAIT_FOR_DIALOG_INTERACTION
  6: 0x02C8 [0x1D] PRINT_EVENT_MESSAGE(message_id=7931*)
    → "M-Miss Apururu was so pleased, she let slip a little about what's been going on."
  7: 0x02CB [0x23] WAIT_FOR_DIALOG_INTERACTION
  8: 0x02CC [0x1D] PRINT_EVENT_MESSAGE(message_id=7932*)
    → "I, I'm glad nothing really-weally bad ended up happening. Phew! Makes you appreciate the peace we have now."
  9: 0x02CF [0x23] WAIT_FOR_DIALOG_INTERACTION
 10: 0x02D0 [0x29] REQ_SET_WAIT(priority=0x08, entity_id=Miiri-Wohri (ID: 17764371/0x010F1013), tag_num=0x05)
 11: 0x02D7 [0x20] SET_CLI_EVENT_UC_FLAG: Unlock player control
 12: 0x02D9 [0x21] END_EVENT
 13: 0x02DA [0x00] END_REQSTACK()
```

### Event 596

#### Metadata

| Field        | Value    |
|--------------|----------|
| Entrypoint   | 0x02DB   |
| Data Size    | 33 bytes |
| Instructions | 12       |

```
      00 01 02 03 04 05 06 07  08 09 0A 0B 0C 0D 0E 0F
      -- -- -- -- -- -- -- --  -- -- -- -- -- -- -- --
02D0:                                   1E F0 FF FF 7F             .....
02E0: 6F 70 29 08 13 10 0F 01  03 1D 31 80 23 1D 32 80  op).......1.#.2.
02F0: 23 29 08 13 10 0F 01 05  20 00 21 00              #)...... .!.    
```

#### Opcodes

```
  0: 0x02DB [0x1E] EventEntity looks at LocalPlayer and starts talking
  1: 0x02E0 [0x6F] WAIT_FRAME_DELAY: Yield until WaitTime reaches zero
  2: 0x02E1 [0x70] WAIT_ENTITY_RENDER_FLAG: Wait while EventEntity->Render.Flags3 bit 2 is set (cancel turn if not)
  3: 0x02E2 [0x29] REQ_SET_WAIT(priority=0x08, entity_id=Miiri-Wohri (ID: 17764371/0x010F1013), tag_num=0x03)
  4: 0x02E9 [0x1D] PRINT_EVENT_MESSAGE(message_id=9415*)
    → "W-we were r-reprimanded by Captain Rakoh Buuma. She was growling that we guards of Windurst Woods have rrreally been slacking off... "Slacking off completely," she said!"
  5: 0x02EC [0x23] WAIT_FOR_DIALOG_INTERACTION
  6: 0x02ED [0x1D] PRINT_EVENT_MESSAGE(message_id=9416*)
    → "I, erm, I think she was angry b-because I, I don'taru get along with Mithra very well... M-maybe I sh-should try to invite Sola Jaab along on a fishing trip s-sometime."
  7: 0x02F0 [0x23] WAIT_FOR_DIALOG_INTERACTION
  8: 0x02F1 [0x29] REQ_SET_WAIT(priority=0x08, entity_id=Miiri-Wohri (ID: 17764371/0x010F1013), tag_num=0x05)
  9: 0x02F8 [0x20] SET_CLI_EVENT_UC_FLAG: Unlock player control
 10: 0x02FA [0x21] END_EVENT
 11: 0x02FB [0x00] END_REQSTACK()
```

### Event 561

#### Metadata

| Field        | Value    |
|--------------|----------|
| Entrypoint   | 0x02FC   |
| Data Size    | 33 bytes |
| Instructions | 12       |

```
      00 01 02 03 04 05 06 07  08 09 0A 0B 0C 0D 0E 0F
      -- -- -- -- -- -- -- --  -- -- -- -- -- -- -- --
02F0:                                      1E F0 FF FF              ....
0300: 7F 6F 70 29 08 13 10 0F  01 03 1D 33 80 23 1D 34  .op).......3.#.4
0310: 80 23 29 08 13 10 0F 01  05 20 00 21 00           .#)...... .!.   
```

#### Opcodes

```
  0: 0x02FC [0x1E] EventEntity looks at LocalPlayer and starts talking
  1: 0x0301 [0x6F] WAIT_FRAME_DELAY: Yield until WaitTime reaches zero
  2: 0x0302 [0x70] WAIT_ENTITY_RENDER_FLAG: Wait while EventEntity->Render.Flags3 bit 2 is set (cancel turn if not)
  3: 0x0303 [0x29] REQ_SET_WAIT(priority=0x08, entity_id=Miiri-Wohri (ID: 17764371/0x010F1013), tag_num=0x03)
  4: 0x030A [0x1D] PRINT_EVENT_MESSAGE(message_id=9425*)
    → "S-speaking of Minister Ajido-Marujido, I, I heard Minister Tosuka-Porika of the Optistery c-calling him a thiefy-wief."
  5: 0x030D [0x23] WAIT_FOR_DIALOG_INTERACTION
  6: 0x030E [0x1D] PRINT_EVENT_MESSAGE(message_id=9426*)
    → "I, I mean, they've never been the besty-westy of friends, but I w-wonder what else could have h-happened? It gives me b-butterflies in my tummy-wummy."
  7: 0x0311 [0x23] WAIT_FOR_DIALOG_INTERACTION
  8: 0x0312 [0x29] REQ_SET_WAIT(priority=0x08, entity_id=Miiri-Wohri (ID: 17764371/0x010F1013), tag_num=0x05)
  9: 0x0319 [0x20] SET_CLI_EVENT_UC_FLAG: Unlock player control
 10: 0x031B [0x21] END_EVENT
 11: 0x031C [0x00] END_REQSTACK()
```

### Event 564

#### Metadata

| Field        | Value    |
|--------------|----------|
| Entrypoint   | 0x031D   |
| Data Size    | 33 bytes |
| Instructions | 12       |

```
      00 01 02 03 04 05 06 07  08 09 0A 0B 0C 0D 0E 0F
      -- -- -- -- -- -- -- --  -- -- -- -- -- -- -- --
0310:                                         1E F0 FF               ...
0320: FF 7F 6F 70 29 08 13 10  0F 01 03 1D 35 80 23 1D  ..op).......5.#.
0330: 36 80 23 29 08 13 10 0F  01 05 20 00 21 00        6.#)...... .!.  
```

#### Opcodes

```
  0: 0x031D [0x1E] EventEntity looks at LocalPlayer and starts talking
  1: 0x0322 [0x6F] WAIT_FRAME_DELAY: Yield until WaitTime reaches zero
  2: 0x0323 [0x70] WAIT_ENTITY_RENDER_FLAG: Wait while EventEntity->Render.Flags3 bit 2 is set (cancel turn if not)
  3: 0x0324 [0x29] REQ_SET_WAIT(priority=0x08, entity_id=Miiri-Wohri (ID: 17764371/0x010F1013), tag_num=0x03)
  4: 0x032B [0x1D] PRINT_EVENT_MESSAGE(message_id=9432*)
    → "The D-Dark D-Dungeon is the w-worst punishment that a criminal can g-getaru."
  5: 0x032E [0x23] WAIT_FOR_DIALOG_INTERACTION
  6: 0x032F [0x1D] PRINT_EVENT_MESSAGE(message_id=9433*)
    → "There's n-no leaving the Dark Dungeon until you d-die. H-h-h-how h-h-h-horrible!"
  7: 0x0332 [0x23] WAIT_FOR_DIALOG_INTERACTION
  8: 0x0333 [0x29] REQ_SET_WAIT(priority=0x08, entity_id=Miiri-Wohri (ID: 17764371/0x010F1013), tag_num=0x05)
  9: 0x033A [0x20] SET_CLI_EVENT_UC_FLAG: Unlock player control
 10: 0x033C [0x21] END_EVENT
 11: 0x033D [0x00] END_REQSTACK()
```

### Event 570

#### Metadata

| Field        | Value    |
|--------------|----------|
| Entrypoint   | 0x033E   |
| Data Size    | 33 bytes |
| Instructions | 12       |

```
      00 01 02 03 04 05 06 07  08 09 0A 0B 0C 0D 0E 0F
      -- -- -- -- -- -- -- --  -- -- -- -- -- -- -- --
0330:                                            1E F0                ..
0340: FF FF 7F 6F 70 29 08 13  10 0F 01 03 1D 37 80 23  ...op).......7.#
0350: 1D 38 80 23 29 08 13 10  0F 01 05 20 00 21 00     .8.#)...... .!. 
```

#### Opcodes

```
  0: 0x033E [0x1E] EventEntity looks at LocalPlayer and starts talking
  1: 0x0343 [0x6F] WAIT_FRAME_DELAY: Yield until WaitTime reaches zero
  2: 0x0344 [0x70] WAIT_ENTITY_RENDER_FLAG: Wait while EventEntity->Render.Flags3 bit 2 is set (cancel turn if not)
  3: 0x0345 [0x29] REQ_SET_WAIT(priority=0x08, entity_id=Miiri-Wohri (ID: 17764371/0x010F1013), tag_num=0x03)
  4: 0x034C [0x1D] PRINT_EVENT_MESSAGE(message_id=9443*)
    → "I, I, I don't like to talk aboutaru people this way, b-b-but please take c-c-care around the Sibyl Guards."
  5: 0x034F [0x23] WAIT_FOR_DIALOG_INTERACTION
  6: 0x0350 [0x1D] PRINT_EVENT_MESSAGE(message_id=9444*)
    → "I, I, I think they're k-k-k-eeping a close eye on y-y-you. W-w-watch your back on the streets at n-n-night..."
  7: 0x0353 [0x23] WAIT_FOR_DIALOG_INTERACTION
  8: 0x0354 [0x29] REQ_SET_WAIT(priority=0x08, entity_id=Miiri-Wohri (ID: 17764371/0x010F1013), tag_num=0x05)
  9: 0x035B [0x20] SET_CLI_EVENT_UC_FLAG: Unlock player control
 10: 0x035D [0x21] END_EVENT
 11: 0x035E [0x00] END_REQSTACK()
```

### Event 575

#### Metadata

| Field        | Value    |
|--------------|----------|
| Entrypoint   | 0x035F   |
| Data Size    | 33 bytes |
| Instructions | 12       |

```
      00 01 02 03 04 05 06 07  08 09 0A 0B 0C 0D 0E 0F
      -- -- -- -- -- -- -- --  -- -- -- -- -- -- -- --
0350:                                               1E                 .
0360: F0 FF FF 7F 6F 70 29 08  13 10 0F 01 03 1D 39 80  ....op).......9.
0370: 23 1D 3A 80 23 29 08 13  10 0F 01 05 20 00 21 00  #.:.#)...... .!.
```

#### Opcodes

```
  0: 0x035F [0x1E] EventEntity looks at LocalPlayer and starts talking
  1: 0x0364 [0x6F] WAIT_FRAME_DELAY: Yield until WaitTime reaches zero
  2: 0x0365 [0x70] WAIT_ENTITY_RENDER_FLAG: Wait while EventEntity->Render.Flags3 bit 2 is set (cancel turn if not)
  3: 0x0366 [0x29] REQ_SET_WAIT(priority=0x08, entity_id=Miiri-Wohri (ID: 17764371/0x010F1013), tag_num=0x03)
  4: 0x036D [0x1D] PRINT_EVENT_MESSAGE(message_id=9454*)
    → "I, I, I've heard that Minister R-R-Rukususu of the R-R-Rhinostery is investigating a-a-ancient ruins in the Northlands."
  5: 0x0370 [0x23] WAIT_FOR_DIALOG_INTERACTION
  6: 0x0371 [0x1D] PRINT_EVENT_MESSAGE(message_id=9455*)
    → "S-S-She is looking into things like, erm...the reason why the Northlands have towers similar to the ones found in S-S-Sarutabaruta. Wh-wh-why would that be, I wonder?"
  7: 0x0374 [0x23] WAIT_FOR_DIALOG_INTERACTION
  8: 0x0375 [0x29] REQ_SET_WAIT(priority=0x08, entity_id=Miiri-Wohri (ID: 17764371/0x010F1013), tag_num=0x05)
  9: 0x037C [0x20] SET_CLI_EVENT_UC_FLAG: Unlock player control
 10: 0x037E [0x21] END_EVENT
 11: 0x037F [0x00] END_REQSTACK()
```

### Event 580

#### Metadata

| Field        | Value    |
|--------------|----------|
| Entrypoint   | 0x0380   |
| Data Size    | 33 bytes |
| Instructions | 12       |

```
      00 01 02 03 04 05 06 07  08 09 0A 0B 0C 0D 0E 0F
      -- -- -- -- -- -- -- --  -- -- -- -- -- -- -- --
0380: 1E F0 FF FF 7F 6F 70 29  08 13 10 0F 01 03 1D 3B  .....op).......;
0390: 80 23 1D 3C 80 23 29 08  13 10 0F 01 05 20 00 21  .#.<.#)...... .!
03A0: 00                                                .               
```

#### Opcodes

```
  0: 0x0380 [0x1E] EventEntity looks at LocalPlayer and starts talking
  1: 0x0385 [0x6F] WAIT_FRAME_DELAY: Yield until WaitTime reaches zero
  2: 0x0386 [0x70] WAIT_ENTITY_RENDER_FLAG: Wait while EventEntity->Render.Flags3 bit 2 is set (cancel turn if not)
  3: 0x0387 [0x29] REQ_SET_WAIT(priority=0x08, entity_id=Miiri-Wohri (ID: 17764371/0x010F1013), tag_num=0x03)
  4: 0x038E [0x1D] PRINT_EVENT_MESSAGE(message_id=9465*)
    → "D-d-did you know that they h-h-have lots of m-m-magical dolls at the Aurastery?"
  5: 0x0391 [0x23] WAIT_FOR_DIALOG_INTERACTION
  6: 0x0392 [0x1D] PRINT_EVENT_MESSAGE(message_id=9466*)
    → "O-o-originally there were only a f-f-few types, but Professor Koru-Moru has re-re-remodeled them for various tasks."
  7: 0x0395 [0x23] WAIT_FOR_DIALOG_INTERACTION
  8: 0x0396 [0x29] REQ_SET_WAIT(priority=0x08, entity_id=Miiri-Wohri (ID: 17764371/0x010F1013), tag_num=0x05)
  9: 0x039D [0x20] SET_CLI_EVENT_UC_FLAG: Unlock player control
 10: 0x039F [0x21] END_EVENT
 11: 0x03A0 [0x00] END_REQSTACK()
```

### Event 585

#### Metadata

| Field        | Value    |
|--------------|----------|
| Entrypoint   | 0x03A1   |
| Data Size    | 33 bytes |
| Instructions | 12       |

```
      00 01 02 03 04 05 06 07  08 09 0A 0B 0C 0D 0E 0F
      -- -- -- -- -- -- -- --  -- -- -- -- -- -- -- --
03A0:    1E F0 FF FF 7F 6F 70  29 08 13 10 0F 01 03 1D   .....op).......
03B0: 3D 80 23 1D 3E 80 23 29  08 13 10 0F 01 05 20 00  =.#.>.#)...... .
03C0: 21 00                                             !.              
```

#### Opcodes

```
  0: 0x03A1 [0x1E] EventEntity looks at LocalPlayer and starts talking
  1: 0x03A6 [0x6F] WAIT_FRAME_DELAY: Yield until WaitTime reaches zero
  2: 0x03A7 [0x70] WAIT_ENTITY_RENDER_FLAG: Wait while EventEntity->Render.Flags3 bit 2 is set (cancel turn if not)
  3: 0x03A8 [0x29] REQ_SET_WAIT(priority=0x08, entity_id=Miiri-Wohri (ID: 17764371/0x010F1013), tag_num=0x03)
  4: 0x03AF [0x1D] PRINT_EVENT_MESSAGE(message_id=9478*)
    → "Th-th-this is not a b-b-betrayal of the S-S-Star Sibyl."
  5: 0x03B2 [0x23] WAIT_FOR_DIALOG_INTERACTION
  6: 0x03B3 [0x1D] PRINT_EVENT_MESSAGE(message_id=9479*)
    → "W-w-we just want to h-h-help Minister Apururu. The Orastery needs your h-h-help too."
  7: 0x03B6 [0x23] WAIT_FOR_DIALOG_INTERACTION
  8: 0x03B7 [0x29] REQ_SET_WAIT(priority=0x08, entity_id=Miiri-Wohri (ID: 17764371/0x010F1013), tag_num=0x05)
  9: 0x03BE [0x20] SET_CLI_EVENT_UC_FLAG: Unlock player control
 10: 0x03C0 [0x21] END_EVENT
 11: 0x03C1 [0x00] END_REQSTACK()
```

### Event 615

#### Metadata

| Field        | Value    |
|--------------|----------|
| Entrypoint   | 0x03C2   |
| Data Size    | 33 bytes |
| Instructions | 12       |

```
      00 01 02 03 04 05 06 07  08 09 0A 0B 0C 0D 0E 0F
      -- -- -- -- -- -- -- --  -- -- -- -- -- -- -- --
03C0:       1E F0 FF FF 7F 6F  70 29 08 13 10 0F 01 03    .....op)......
03D0: 1D 3F 80 23 1D 40 80 23  29 08 13 10 0F 01 05 20  .?.#.@.#)...... 
03E0: 00 21 00                                          .!.             
```

#### Opcodes

```
  0: 0x03C2 [0x1E] EventEntity looks at LocalPlayer and starts talking
  1: 0x03C7 [0x6F] WAIT_FRAME_DELAY: Yield until WaitTime reaches zero
  2: 0x03C8 [0x70] WAIT_ENTITY_RENDER_FLAG: Wait while EventEntity->Render.Flags3 bit 2 is set (cancel turn if not)
  3: 0x03C9 [0x29] REQ_SET_WAIT(priority=0x08, entity_id=Miiri-Wohri (ID: 17764371/0x010F1013), tag_num=0x03)
  4: 0x03D0 [0x1D] PRINT_EVENT_MESSAGE(message_id=9575*)
    → "Th-the Orastery Minister has finally r-regained c-consciousness."
  5: 0x03D3 [0x23] WAIT_FOR_DIALOG_INTERACTION
  6: 0x03D4 [0x1D] PRINT_EVENT_MESSAGE(message_id=9576*)
    → "D-do you realize now what a t-terrible-werrible place the Dark Dungeon is? Even a p-powerful mage like Ajido-Marujido wasn't immune to its e-effects."
  7: 0x03D7 [0x23] WAIT_FOR_DIALOG_INTERACTION
  8: 0x03D8 [0x29] REQ_SET_WAIT(priority=0x08, entity_id=Miiri-Wohri (ID: 17764371/0x010F1013), tag_num=0x05)
  9: 0x03DF [0x20] SET_CLI_EVENT_UC_FLAG: Unlock player control
 10: 0x03E1 [0x21] END_EVENT
 11: 0x03E2 [0x00] END_REQSTACK()
```

### Event 629

#### Metadata

| Field        | Value    |
|--------------|----------|
| Entrypoint   | 0x03E3   |
| Data Size    | 33 bytes |
| Instructions | 12       |

```
      00 01 02 03 04 05 06 07  08 09 0A 0B 0C 0D 0E 0F
      -- -- -- -- -- -- -- --  -- -- -- -- -- -- -- --
03E0:          1E F0 FF FF 7F  6F 70 29 08 13 10 0F 01     .....op).....
03F0: 03 1D 41 80 23 1D 42 80  23 29 08 13 10 0F 01 05  ..A.#.B.#)......
0400: 20 00 21 00                                        .!.            
```

#### Opcodes

```
  0: 0x03E3 [0x1E] EventEntity looks at LocalPlayer and starts talking
  1: 0x03E8 [0x6F] WAIT_FRAME_DELAY: Yield until WaitTime reaches zero
  2: 0x03E9 [0x70] WAIT_ENTITY_RENDER_FLAG: Wait while EventEntity->Render.Flags3 bit 2 is set (cancel turn if not)
  3: 0x03EA [0x29] REQ_SET_WAIT(priority=0x08, entity_id=Miiri-Wohri (ID: 17764371/0x010F1013), tag_num=0x03)
  4: 0x03F1 [0x1D] PRINT_EVENT_MESSAGE(message_id=9640*)
    → "... I g-got an advance on my s-salary..."
  5: 0x03F4 [0x23] WAIT_FOR_DIALOG_INTERACTION
  6: 0x03F5 [0x1D] PRINT_EVENT_MESSAGE(message_id=9641*)
    → "This m-month I have to try to g-get by on $1..."
  7: 0x03F8 [0x23] WAIT_FOR_DIALOG_INTERACTION
  8: 0x03F9 [0x29] REQ_SET_WAIT(priority=0x08, entity_id=Miiri-Wohri (ID: 17764371/0x010F1013), tag_num=0x05)
  9: 0x0400 [0x20] SET_CLI_EVENT_UC_FLAG: Unlock player control
 10: 0x0402 [0x21] END_EVENT
 11: 0x0403 [0x00] END_REQSTACK()
```

### Event 626

#### Metadata

| Field        | Value    |
|--------------|----------|
| Entrypoint   | 0x0404   |
| Data Size    | 51 bytes |
| Instructions | 16       |

```
      00 01 02 03 04 05 06 07  08 09 0A 0B 0C 0D 0E 0F
      -- -- -- -- -- -- -- --  -- -- -- -- -- -- -- --
0400:             1E F0 FF FF  7F 6F 70 29 08 13 10 0F      .....op)....
0410: 01 01 1D 43 80 23 29 08  13 10 0F 01 02 1D 44 80  ...C.#).......D.
0420: 23 29 08 13 10 0F 01 03  1D 45 80 23 29 08 13 10  #).......E.#)...
0430: 0F 01 05 20 00 21 00                              ... .!.         
```

#### Opcodes

```
  0: 0x0404 [0x1E] EventEntity looks at LocalPlayer and starts talking
  1: 0x0409 [0x6F] WAIT_FRAME_DELAY: Yield until WaitTime reaches zero
  2: 0x040A [0x70] WAIT_ENTITY_RENDER_FLAG: Wait while EventEntity->Render.Flags3 bit 2 is set (cancel turn if not)
  3: 0x040B [0x29] REQ_SET_WAIT(priority=0x08, entity_id=Miiri-Wohri (ID: 17764371/0x010F1013), tag_num=0x01)
  4: 0x0412 [0x1D] PRINT_EVENT_MESSAGE(message_id=9658*)
    → "M-Minister Ajido-Marujido has been a-absolved of his crimes! N-now Windurst can f-finally return to a state of peace!"
  5: 0x0415 [0x23] WAIT_FOR_DIALOG_INTERACTION
  6: 0x0416 [0x29] REQ_SET_WAIT(priority=0x08, entity_id=Miiri-Wohri (ID: 17764371/0x010F1013), tag_num=0x02)
  7: 0x041D [0x1D] PRINT_EVENT_MESSAGE(message_id=9659*)
    → "...Wh-what? Wh-why are you l-looking at me with p-pity like thataru...?"
  8: 0x0420 [0x23] WAIT_FOR_DIALOG_INTERACTION
  9: 0x0421 [0x29] REQ_SET_WAIT(priority=0x08, entity_id=Miiri-Wohri (ID: 17764371/0x010F1013), tag_num=0x03)
 10: 0x0428 [0x1D] PRINT_EVENT_MESSAGE(message_id=9660*)
    → "P-please don't t-tell me something else is wr-wrong!"
 11: 0x042B [0x23] WAIT_FOR_DIALOG_INTERACTION
 12: 0x042C [0x29] REQ_SET_WAIT(priority=0x08, entity_id=Miiri-Wohri (ID: 17764371/0x010F1013), tag_num=0x05)
 13: 0x0433 [0x20] SET_CLI_EVENT_UC_FLAG: Unlock player control
 14: 0x0435 [0x21] END_EVENT
 15: 0x0436 [0x00] END_REQSTACK()
```

### Event 633

#### Metadata

| Field        | Value    |
|--------------|----------|
| Entrypoint   | 0x0437   |
| Data Size    | 51 bytes |
| Instructions | 16       |

```
      00 01 02 03 04 05 06 07  08 09 0A 0B 0C 0D 0E 0F
      -- -- -- -- -- -- -- --  -- -- -- -- -- -- -- --
0430:                      1E  F0 FF FF 7F 6F 70 29 08         .....op).
0440: 13 10 0F 01 01 1D 46 80  23 29 08 13 10 0F 01 02  ......F.#)......
0450: 1D 47 80 23 29 08 13 10  0F 01 03 1D 48 80 23 29  .G.#).......H.#)
0460: 08 13 10 0F 01 05 20 00  21 00                    ...... .!.      
```

#### Opcodes

```
  0: 0x0437 [0x1E] EventEntity looks at LocalPlayer and starts talking
  1: 0x043C [0x6F] WAIT_FRAME_DELAY: Yield until WaitTime reaches zero
  2: 0x043D [0x70] WAIT_ENTITY_RENDER_FLAG: Wait while EventEntity->Render.Flags3 bit 2 is set (cancel turn if not)
  3: 0x043E [0x29] REQ_SET_WAIT(priority=0x08, entity_id=Miiri-Wohri (ID: 17764371/0x010F1013), tag_num=0x01)
  4: 0x0445 [0x1D] PRINT_EVENT_MESSAGE(message_id=9696*)
    → "Ah, <Player>! S-so good to s-see you!"
  5: 0x0448 [0x23] WAIT_FOR_DIALOG_INTERACTION
  6: 0x0449 [0x29] REQ_SET_WAIT(priority=0x08, entity_id=Miiri-Wohri (ID: 17764371/0x010F1013), tag_num=0x02)
  7: 0x0450 [0x1D] PRINT_EVENT_MESSAGE(message_id=9697*)
    → "S-so many t-terrible-werrible things were g-going on that we d-didn'taru know about..."
  8: 0x0453 [0x23] WAIT_FOR_DIALOG_INTERACTION
  9: 0x0454 [0x29] REQ_SET_WAIT(priority=0x08, entity_id=Miiri-Wohri (ID: 17764371/0x010F1013), tag_num=0x03)
 10: 0x045B [0x1D] PRINT_EVENT_MESSAGE(message_id=9698*)
    → "B-but everyone p-pulled together and s-saved the day! I'm j-just s-speechless!"
 11: 0x045E [0x23] WAIT_FOR_DIALOG_INTERACTION
 12: 0x045F [0x29] REQ_SET_WAIT(priority=0x08, entity_id=Miiri-Wohri (ID: 17764371/0x010F1013), tag_num=0x05)
 13: 0x0466 [0x20] SET_CLI_EVENT_UC_FLAG: Unlock player control
 14: 0x0468 [0x21] END_EVENT
 15: 0x0469 [0x00] END_REQSTACK()
```

### Event 871

#### Metadata

| Field        | Value   |
|--------------|---------|
| Entrypoint   | 0x046A  |
| Data Size    | 1 bytes |
| Instructions | 1       |

```
      00 01 02 03 04 05 06 07  08 09 0A 0B 0C 0D 0E 0F
      -- -- -- -- -- -- -- --  -- -- -- -- -- -- -- --
0460:                                00                           .     
```

#### Opcodes

```
  0: 0x046A [0x00] END_REQSTACK()
```
