# 17764362 - warp09

## Common Data

| Field            | Value                    |
|------------------|--------------------------|
| Zone             | Windurst Woods (ID: 241) |
| Block Size       | 92 bytes                 |
| Total Events     | 2                        |
| References Count | 3                        |

## List of Events

| Event ID              | Entrypoint   |   Size |   Instructions |
|-----------------------|--------------|--------|----------------|
| [65535](#event-65535) | 0x0000       |      1 |              1 |
| [39](#event-39)       | 0x0001       |     54 |             11 |

## DAT References (imed_data)

|   Index | Hex Value   |   Dec Value |
|---------|-------------|-------------|
|       0 | 0x1A3D      |        6717 |
|       1 | 0x0000      |           0 |
|       2 | 0x0001      |           1 |

## String References

- **6717**: rank [1""/4/5/6/7/8/9/10]

## Events

### Event 65535

#### Metadata

| Field        | Value   |
|--------------|---------|
| Entrypoint   | 0x0000  |
| Data Size    | 1 bytes |
| Instructions | 1       |

```
      00 01 02 03 04 05 06 07  08 09 0A 0B 0C 0D 0E 0F
      -- -- -- -- -- -- -- --  -- -- -- -- -- -- -- --
0000: 00                                                .               
```

#### Opcodes

```
  0: 0x0000 [0x00] END_REQSTACK()
```

### Event 39

#### Metadata

| Field        | Value    |
|--------------|----------|
| Entrypoint   | 0x0001   |
| Data Size    | 54 bytes |
| Instructions | 11       |

```
      00 01 02 03 04 05 06 07  08 09 0A 0B 0C 0D 0E 0F
      -- -- -- -- -- -- -- --  -- -- -- -- -- -- -- --
0000:    2C 0A 10 0F 01 0A 10  0F 01 63 61 62 6B 24 00   ,........cabk$.
0010: 80 01 80 01 80 25 02 00  10 01 80 00 28 00 29 09  .....%......(.).
0020: F0 FF FF 7F 0F 01 33 00  02 00 10 02 80 00 33 00  ......3.......3.
0030: 01 33 00 20 00 21 00                              .3. .!.         
```

#### Opcodes

```
  0: 0x0001 [0x2C] CREATE_SCHEDULER_TASK: Create scheduler "cabk" with entities [warp09 (ID: 17764362/0x010F100A), warp09 (ID: 17764362/0x010F100A)]
  1: 0x000E [0x24] CREATE_DIALOG(message_id=6717*, default_option=0*, option_flags=0*)
    → "rank [1""/4/5/6/7/8/9/10]"
  2: 0x0015 [0x25] WAIT_DIALOG_SELECT()
  3: 0x0016 [0x02] IF !(Work_Zone[0] == 0*) GOTO 0x0028
  4: 0x001E [0x29] REQ_SET_WAIT(priority=0x09, entity_id=LocalPlayer, tag_num=0x0F)
  5: 0x0025 [0x01] GOTO 0x0033
  6: 0x0028 [0x02] IF !(Work_Zone[0] == 1*) GOTO 0x0033
  7: 0x0030 [0x01] GOTO 0x0033

SUBROUTINE_0033:
  8: 0x0033 [0x20] SET_CLI_EVENT_UC_FLAG: Unlock player control
  9: 0x0035 [0x21] END_EVENT
 10: 0x0036 [0x00] END_REQSTACK()
```
