# 17764458 - Tapoh Lihzeh

## Common Data

| Field            | Value                    |
|------------------|--------------------------|
| Zone             | Windurst Woods (ID: 241) |
| Block Size       | 780 bytes                |
| Total Events     | 23                       |
| References Count | 29                       |

## List of Events

| Event ID                   | Entrypoint   |   Size |   Instructions |
|----------------------------|--------------|--------|----------------|
| [65535](#event-65535)      | 0x0000       |      1 |              1 |
| [65535.1](#event-655351)   | 0x0001       |     16 |              2 |
| [65535.2](#event-655352)   | 0x0011       |     22 |              4 |
| [65535.3](#event-655353)   | 0x0027       |     16 |              2 |
| [65535.4](#event-655354)   | 0x0037       |     14 |              2 |
| [65535.5](#event-655355)   | 0x0045       |     16 |              2 |
| [65535.6](#event-655356)   | 0x0055       |     14 |              2 |
| [65535.7](#event-655357)   | 0x0063       |     16 |              2 |
| [65535.8](#event-655358)   | 0x0073       |     14 |              2 |
| [65535.9](#event-655359)   | 0x0081       |      9 |              3 |
| [437](#event-437)          | 0x008A       |     33 |             12 |
| [477](#event-477)          | 0x00AB       |     68 |             23 |
| [478](#event-478)          | 0x00EF       |     15 |              8 |
| [479](#event-479)          | 0x00FE       |     68 |             21 |
| [480](#event-480)          | 0x0142       |     15 |              8 |
| [227](#event-227)          | 0x0151       |     25 |              8 |
| [65535.10](#event-6553510) | 0x016A       |     37 |              9 |
| [65535.11](#event-6553511) | 0x018F       |     23 |              7 |
| [228](#event-228)          | 0x01A6       |     33 |             12 |
| [229](#event-229)          | 0x01C7       |     28 |             10 |
| [65535.12](#event-6553512) | 0x01E3       |     23 |              7 |
| [65535.13](#event-6553513) | 0x01FA       |     19 |              5 |
| [230](#event-230)          | 0x020D       |     29 |             10 |

## DAT References (imed_data)

|   Index | Hex Value   |   Dec Value |
|---------|-------------|-------------|
|       0 | 0x0032      |          50 |
|       1 | 0x001E      |          30 |
|       2 | 0x216A      |        8554 |
|       3 | 0x216B      |        8555 |
|       4 | 0x21EB      |        8683 |
|       5 | 0x21EC      |        8684 |
|       6 | 0x21ED      |        8685 |
|       7 | 0x21EE      |        8686 |
|       8 | 0x0000      |           0 |
|       9 | 0x0001      |           1 |
|      10 | 0x21EF      |        8687 |
|      11 | 0x0002      |           2 |
|      12 | 0x21F0      |        8688 |
|      13 | 0x21F1      |        8689 |
|      14 | 0x21F2      |        8690 |
|      15 | 0x21F3      |        8691 |
|      16 | 0x21F4      |        8692 |
|      17 | 0x00C9      |         201 |
|      18 | 0x21F5      |        8693 |
|      19 | 0x1F12      |        7954 |
|      20 | 0x1F13      |        7955 |
|      21 | 0x1F14      |        7956 |
|      22 | 0x1F15      |        7957 |
|      23 | 0x1F16      |        7958 |
|      24 | 0x1F17      |        7959 |
|      25 | 0x1F18      |        7960 |
|      26 | 0x1F19      |        7961 |
|      27 | 0x1F1A      |        7962 |
|      28 | 0x1F1B      |        7963 |

## String References

- **7954**: You came from the Chocobo Stables, did you? So you're afterrr that secret cure-all of mine, then?
- **7955**: The trrruth is, I lack a vital ingredient needed to make that medicament. It's called $1.
- **7956**: Accorrrding to the staff of the dhalmel farm, there aren't any $1 left in Sarutabaruta.
- **7957**: So, if you come by any $1 somewhere, then please bring it to me!
- **7958**: Accorrrding to the staff of the dhalmel farm, there aren't any $1 left in Sarutabaruta. So, I can't make the medicament to help that poorrr chocobo.
- **7959**: If you happen to come by any $1 somewhere, then please brrring it to me!
- **7960**: You managed to get hold of $1? You did well to find such a rarrre plant!
- **7961**: Now I can make my secret cure-all medicament. Thank you!
- **7962**: Oh...and tell Kuoh Rhel back at the Chocobo Stables to hold on a little while longerrr.
- **7963**: I'm starrrting to make the medicament now. So please tell Kuoh Rhel at the Chocobo Stables to hang in there forrr a little bit longer.
- **8554**: I am Tapoh Lihzeh the apothecarrry. Is there something you want from me, or are you looking for my daughterrr?
- **8555**: If you are after my daughterrr, then I suggest you head overrr to Windurst Waters. She's studying at the School of Magic there.
- **8683**: Hmm... Our top seller is too popularrr for its own good. Even ourrr hidden stash has almost run out.
- **8684**: I'll need to get my paws on some good $1 and $2 in orderrr to make some more.
- **8685**: Oh! Hey...you're an adventurerrr, aren't you? I'm surrre you've seen either one of these at some time or another. Well, if you happen to come by any of them, would you be so good as to bring me some?
- **8686**: Agree to help? [Yes./No.]
- **8687**: I'll give you $3 gil forrr three $1 and $4 gil forrr two $2. Please sell me whateverrr you find.
- **8688**: I'll give you $3 gil forrr three $1 and $4 gil forrr two $2. Bring me whateverrr you can find!
- **8689**: Mmm... Thanks forrr bringing me such exceedingly good quality material. I'll be able to make some prrretty good lipstick out of this lot.
- **8690**: Mmm... Thanks forrr bringing me such exceedingly good quality material. These will make perrrfect holders for my special lipstick.
- **8691**: Traditionally Mithra never worrre lipstick, but lately it's all the rage among the young cubs.
- **8692**: My lipstick is always selling out, so keep the supply of $1 and $2 coming! As you can see, I pay a good price, so please sell whatever you find directly to me.
- **8693**: If you come across any more $1 or $2, then please sell whateverrr you find directly to me. I'll make surrre to give you the best price around.

## Events

### Event 65535

#### Metadata

| Field        | Value   |
|--------------|---------|
| Entrypoint   | 0x0000  |
| Data Size    | 1 bytes |
| Instructions | 1       |

```
      00 01 02 03 04 05 06 07  08 09 0A 0B 0C 0D 0E 0F
      -- -- -- -- -- -- -- --  -- -- -- -- -- -- -- --
0000: 00                                                .               
```

#### Opcodes

```
  0: 0x0000 [0x00] END_REQSTACK()
```

### Event 65535.1

#### Metadata

| Field        | Value    |
|--------------|----------|
| Entrypoint   | 0x0001   |
| Data Size    | 16 bytes |
| Instructions | 2        |

```
      00 01 02 03 04 05 06 07  08 09 0A 0B 0C 0D 0E 0F
      -- -- -- -- -- -- -- --  -- -- -- -- -- -- -- --
0000:    66 00 80 F8 FF FF 7F  F8 FF FF 7F 74 6C 6B 30   f..........tlk0
0010: 00                                                .               
```

#### Opcodes

```
  0: 0x0001 [0x66] LOAD_EXT_SCHEDULER_MAIN: Load scheduler "tlk0" with entities [EventEntity, EventEntity], work=50*
  1: 0x0010 [0x00] END_REQSTACK()
```

### Event 65535.2

#### Metadata

| Field        | Value    |
|--------------|----------|
| Entrypoint   | 0x0011   |
| Data Size    | 22 bytes |
| Instructions | 4        |

```
      00 01 02 03 04 05 06 07  08 09 0A 0B 0C 0D 0E 0F
      -- -- -- -- -- -- -- --  -- -- -- -- -- -- -- --
0010:    53 F8 FF FF 7F F8 FF  FF 7F 74 6C 6B 30 5E 69   S........tlk0^i
0020: 64 6C 30 1C 01 80 00                              dl0....         
```

#### Opcodes

```
  0: 0x0011 [0x53] WAIT_SCHEDULER_TASK: Wait for scheduler "tlk0" with entities [EventEntity, EventEntity]
  1: 0x001E [0x5E] EventEntity goes idle (kills current action) (animation: "idl0")
  2: 0x0023 [0x1C] WAIT(30* ticks)
  3: 0x0026 [0x00] END_REQSTACK()
```

### Event 65535.3

#### Metadata

| Field        | Value    |
|--------------|----------|
| Entrypoint   | 0x0027   |
| Data Size    | 16 bytes |
| Instructions | 2        |

```
      00 01 02 03 04 05 06 07  08 09 0A 0B 0C 0D 0E 0F
      -- -- -- -- -- -- -- --  -- -- -- -- -- -- -- --
0020:                      66  00 80 F8 FF FF 7F F8 FF         f........
0030: FF 7F 74 68 6B 31 00                              ..thk1.         
```

#### Opcodes

```
  0: 0x0027 [0x66] LOAD_EXT_SCHEDULER_MAIN: Load scheduler "thk1" with entities [EventEntity, EventEntity], work=50*
  1: 0x0036 [0x00] END_REQSTACK()
```

### Event 65535.4

#### Metadata

| Field        | Value    |
|--------------|----------|
| Entrypoint   | 0x0037   |
| Data Size    | 14 bytes |
| Instructions | 2        |

```
      00 01 02 03 04 05 06 07  08 09 0A 0B 0C 0D 0E 0F
      -- -- -- -- -- -- -- --  -- -- -- -- -- -- -- --
0030:                      53  F8 FF FF 7F F8 FF FF 7F         S........
0040: 74 68 6B 31 00                                    thk1.           
```

#### Opcodes

```
  0: 0x0037 [0x53] WAIT_SCHEDULER_TASK: Wait for scheduler "thk1" with entities [EventEntity, EventEntity]
  1: 0x0044 [0x00] END_REQSTACK()
```

### Event 65535.5

#### Metadata

| Field        | Value    |
|--------------|----------|
| Entrypoint   | 0x0045   |
| Data Size    | 16 bytes |
| Instructions | 2        |

```
      00 01 02 03 04 05 06 07  08 09 0A 0B 0C 0D 0E 0F
      -- -- -- -- -- -- -- --  -- -- -- -- -- -- -- --
0040:                66 00 80  F8 FF FF 7F F8 FF FF 7F       f..........
0050: 74 68 6B 32 00                                    thk2.           
```

#### Opcodes

```
  0: 0x0045 [0x66] LOAD_EXT_SCHEDULER_MAIN: Load scheduler "thk2" with entities [EventEntity, EventEntity], work=50*
  1: 0x0054 [0x00] END_REQSTACK()
```

### Event 65535.6

#### Metadata

| Field        | Value    |
|--------------|----------|
| Entrypoint   | 0x0055   |
| Data Size    | 14 bytes |
| Instructions | 2        |

```
      00 01 02 03 04 05 06 07  08 09 0A 0B 0C 0D 0E 0F
      -- -- -- -- -- -- -- --  -- -- -- -- -- -- -- --
0050:                53 F8 FF  FF 7F F8 FF FF 7F 74 68       S........th
0060: 6B 32 00                                          k2.             
```

#### Opcodes

```
  0: 0x0055 [0x53] WAIT_SCHEDULER_TASK: Wait for scheduler "thk2" with entities [EventEntity, EventEntity]
  1: 0x0062 [0x00] END_REQSTACK()
```

### Event 65535.7

#### Metadata

| Field        | Value    |
|--------------|----------|
| Entrypoint   | 0x0063   |
| Data Size    | 16 bytes |
| Instructions | 2        |

```
      00 01 02 03 04 05 06 07  08 09 0A 0B 0C 0D 0E 0F
      -- -- -- -- -- -- -- --  -- -- -- -- -- -- -- --
0060:          66 00 80 F8 FF  FF 7F F8 FF FF 7F 70 61     f..........pa
0070: 73 30 00                                          s0.             
```

#### Opcodes

```
  0: 0x0063 [0x66] LOAD_EXT_SCHEDULER_MAIN: Load scheduler "pas0" with entities [EventEntity, EventEntity], work=50*
  1: 0x0072 [0x00] END_REQSTACK()
```

### Event 65535.8

#### Metadata

| Field        | Value    |
|--------------|----------|
| Entrypoint   | 0x0073   |
| Data Size    | 14 bytes |
| Instructions | 2        |

```
      00 01 02 03 04 05 06 07  08 09 0A 0B 0C 0D 0E 0F
      -- -- -- -- -- -- -- --  -- -- -- -- -- -- -- --
0070:          53 F8 FF FF 7F  F8 FF FF 7F 70 61 73 30     S........pas0
0080: 00                                                .               
```

#### Opcodes

```
  0: 0x0073 [0x53] WAIT_SCHEDULER_TASK: Wait for scheduler "pas0" with entities [EventEntity, EventEntity]
  1: 0x0080 [0x00] END_REQSTACK()
```

### Event 65535.9

#### Metadata

| Field        | Value   |
|--------------|---------|
| Entrypoint   | 0x0081  |
| Data Size    | 9 bytes |
| Instructions | 3       |

```
      00 01 02 03 04 05 06 07  08 09 0A 0B 0C 0D 0E 0F
      -- -- -- -- -- -- -- --  -- -- -- -- -- -- -- --
0080:    5E 69 64 6C 30 1C 01  80 00                     ^idl0....      
```

#### Opcodes

```
  0: 0x0081 [0x5E] EventEntity goes idle (kills current action) (animation: "idl0")
  1: 0x0086 [0x1C] WAIT(30* ticks)
  2: 0x0089 [0x00] END_REQSTACK()
```

### Event 437

#### Metadata

| Field        | Value    |
|--------------|----------|
| Entrypoint   | 0x008A   |
| Data Size    | 33 bytes |
| Instructions | 12       |

```
      00 01 02 03 04 05 06 07  08 09 0A 0B 0C 0D 0E 0F
      -- -- -- -- -- -- -- --  -- -- -- -- -- -- -- --
0080:                                1E F0 FF FF 7F 6F            .....o
0090: 70 29 08 6A 10 0F 01 01  1D 02 80 23 1D 03 80 23  p).j.......#...#
00A0: 29 08 6A 10 0F 01 09 20  00 21 00                 ).j.... .!.     
```

#### Opcodes

```
  0: 0x008A [0x1E] EventEntity looks at LocalPlayer and starts talking
  1: 0x008F [0x6F] WAIT_FRAME_DELAY: Yield until WaitTime reaches zero
  2: 0x0090 [0x70] WAIT_ENTITY_RENDER_FLAG: Wait while EventEntity->Render.Flags3 bit 2 is set (cancel turn if not)
  3: 0x0091 [0x29] REQ_SET_WAIT(priority=0x08, entity_id=Tapoh Lihzeh (ID: 17764458/0x010F106A), tag_num=0x01)
  4: 0x0098 [0x1D] PRINT_EVENT_MESSAGE(message_id=8554*)
    → "I am Tapoh Lihzeh the apothecarrry. Is there something you want from me, or are you looking for my daughterrr?"
  5: 0x009B [0x23] WAIT_FOR_DIALOG_INTERACTION
  6: 0x009C [0x1D] PRINT_EVENT_MESSAGE(message_id=8555*)
    → "If you are after my daughterrr, then I suggest you head overrr to Windurst Waters. She's studying at the School of Magic there."
  7: 0x009F [0x23] WAIT_FOR_DIALOG_INTERACTION
  8: 0x00A0 [0x29] REQ_SET_WAIT(priority=0x08, entity_id=Tapoh Lihzeh (ID: 17764458/0x010F106A), tag_num=0x09)
  9: 0x00A7 [0x20] SET_CLI_EVENT_UC_FLAG: Unlock player control
 10: 0x00A9 [0x21] END_EVENT
 11: 0x00AA [0x00] END_REQSTACK()
```

### Event 477

#### Metadata

| Field        | Value    |
|--------------|----------|
| Entrypoint   | 0x00AB   |
| Data Size    | 68 bytes |
| Instructions | 23       |

```
      00 01 02 03 04 05 06 07  08 09 0A 0B 0C 0D 0E 0F
      -- -- -- -- -- -- -- --  -- -- -- -- -- -- -- --
00A0:                                   1E F0 FF FF 7F             .....
00B0: 6F 70 1D 04 80 23 1D 05  80 23 1D 06 80 23 24 07  op...#...#...#$.
00C0: 80 08 80 08 80 25 02 00  10 08 80 00 DB 00 42 03  .....%........B.
00D0: 01 10 09 80 1D 0A 80 23  01 EB 00 02 00 10 09 80  .......#........
00E0: 00 EB 00 03 01 10 0B 80  01 EB 00 20 00 21 00     ........... .!. 
```

#### Opcodes

```
  0: 0x00AB [0x1E] EventEntity looks at LocalPlayer and starts talking
  1: 0x00B0 [0x6F] WAIT_FRAME_DELAY: Yield until WaitTime reaches zero
  2: 0x00B1 [0x70] WAIT_ENTITY_RENDER_FLAG: Wait while EventEntity->Render.Flags3 bit 2 is set (cancel turn if not)
  3: 0x00B2 [0x1D] PRINT_EVENT_MESSAGE(message_id=8683*)
    → "Hmm... Our top seller is too popularrr for its own good. Even ourrr hidden stash has almost run out."
  4: 0x00B5 [0x23] WAIT_FOR_DIALOG_INTERACTION
  5: 0x00B6 [0x1D] PRINT_EVENT_MESSAGE(message_id=8684*)
    → "I'll need to get my paws on some good $1 and $2 in orderrr to make some more."
  6: 0x00B9 [0x23] WAIT_FOR_DIALOG_INTERACTION
  7: 0x00BA [0x1D] PRINT_EVENT_MESSAGE(message_id=8685*)
    → "Oh! Hey...you're an adventurerrr, aren't you? I'm surrre you've seen either one of these at some time or another. Well, if you happen to come by any of them, would you be so good as to bring me some?"
  8: 0x00BD [0x23] WAIT_FOR_DIALOG_INTERACTION
  9: 0x00BE [0x24] CREATE_DIALOG(message_id=8686*, default_option=0*, option_flags=0*)
    → "Agree to help? [Yes./No.]"
 10: 0x00C5 [0x25] WAIT_DIALOG_SELECT()
 11: 0x00C6 [0x02] IF !(Work_Zone[0] == 0*) GOTO 0x00DB
 12: 0x00CE [0x42] SET_CLI_EVENT_CANCEL_DATA()
 13: 0x00CF [0x03] Work_Zone[1] = 1*
 14: 0x00D4 [0x1D] PRINT_EVENT_MESSAGE(message_id=8687*)
    → "I'll give you $3 gil forrr three $1 and $4 gil forrr two $2. Please sell me whateverrr you find."
 15: 0x00D7 [0x23] WAIT_FOR_DIALOG_INTERACTION
 16: 0x00D8 [0x01] GOTO 0x00EB
 17: 0x00DB [0x02] IF !(Work_Zone[0] == 1*) GOTO 0x00EB
 18: 0x00E3 [0x03] Work_Zone[1] = 2*
 19: 0x00E8 [0x01] GOTO 0x00EB

SUBROUTINE_00EB:
 20: 0x00EB [0x20] SET_CLI_EVENT_UC_FLAG: Unlock player control
 21: 0x00ED [0x21] END_EVENT
 22: 0x00EE [0x00] END_REQSTACK()
```

### Event 478

#### Metadata

| Field        | Value    |
|--------------|----------|
| Entrypoint   | 0x00EF   |
| Data Size    | 15 bytes |
| Instructions | 8        |

```
      00 01 02 03 04 05 06 07  08 09 0A 0B 0C 0D 0E 0F
      -- -- -- -- -- -- -- --  -- -- -- -- -- -- -- --
00E0:                                               1E                 .
00F0: F0 FF FF 7F 6F 70 1D 0C  80 23 20 00 21 00        ....op...# .!.  
```

#### Opcodes

```
  0: 0x00EF [0x1E] EventEntity looks at LocalPlayer and starts talking
  1: 0x00F4 [0x6F] WAIT_FRAME_DELAY: Yield until WaitTime reaches zero
  2: 0x00F5 [0x70] WAIT_ENTITY_RENDER_FLAG: Wait while EventEntity->Render.Flags3 bit 2 is set (cancel turn if not)
  3: 0x00F6 [0x1D] PRINT_EVENT_MESSAGE(message_id=8688*)
    → "I'll give you $3 gil forrr three $1 and $4 gil forrr two $2. Bring me whateverrr you can find!"
  4: 0x00F9 [0x23] WAIT_FOR_DIALOG_INTERACTION
  5: 0x00FA [0x20] SET_CLI_EVENT_UC_FLAG: Unlock player control
  6: 0x00FC [0x21] END_EVENT
  7: 0x00FD [0x00] END_REQSTACK()
```

### Event 479

#### Metadata

| Field        | Value    |
|--------------|----------|
| Entrypoint   | 0x00FE   |
| Data Size    | 68 bytes |
| Instructions | 21       |

```
      00 01 02 03 04 05 06 07  08 09 0A 0B 0C 0D 0E 0F
      -- -- -- -- -- -- -- --  -- -- -- -- -- -- -- --
00F0:                                            20 01                 .
0100: 42 1E F0 FF FF 7F 6F 70  02 06 10 08 80 00 1C 01  B.....op........
0110: 03 01 10 08 80 1D 0D 80  23 01 25 01 03 01 10 09  ........#.%.....
0120: 80 1D 0E 80 23 1D 0F 80  23 1D 10 80 23 45 11 80  ....#...#...#E..
0130: F0 FF FF 7F F0 FF FF 7F  71 73 74 63 08 80 20 00  ........qstc.. .
0140: 21 00                                             !.              
```

#### Opcodes

```
  0: 0x00FE [0x20] SET_CLI_EVENT_UC_FLAG: Lock player control
  1: 0x0100 [0x42] SET_CLI_EVENT_CANCEL_DATA()
  2: 0x0101 [0x1E] EventEntity looks at LocalPlayer and starts talking
  3: 0x0106 [0x6F] WAIT_FRAME_DELAY: Yield until WaitTime reaches zero
  4: 0x0107 [0x70] WAIT_ENTITY_RENDER_FLAG: Wait while EventEntity->Render.Flags3 bit 2 is set (cancel turn if not)
  5: 0x0108 [0x02] IF !(Work_Zone[6] == 0*) GOTO 0x011C
  6: 0x0110 [0x03] Work_Zone[1] = 0*
  7: 0x0115 [0x1D] PRINT_EVENT_MESSAGE(message_id=8689*)
    → "Mmm... Thanks forrr bringing me such exceedingly good quality material. I'll be able to make some prrretty good lipstick out of this lot."
  8: 0x0118 [0x23] WAIT_FOR_DIALOG_INTERACTION
  9: 0x0119 [0x01] GOTO 0x0125
 10: 0x011C [0x03] Work_Zone[1] = 1*
 11: 0x0121 [0x1D] PRINT_EVENT_MESSAGE(message_id=8690*)
    → "Mmm... Thanks forrr bringing me such exceedingly good quality material. These will make perrrfect holders for my special lipstick."
 12: 0x0124 [0x23] WAIT_FOR_DIALOG_INTERACTION

SUBROUTINE_0125:
 13: 0x0125 [0x1D] PRINT_EVENT_MESSAGE(message_id=8691*)
    → "Traditionally Mithra never worrre lipstick, but lately it's all the rage among the young cubs."
 14: 0x0128 [0x23] WAIT_FOR_DIALOG_INTERACTION
 15: 0x0129 [0x1D] PRINT_EVENT_MESSAGE(message_id=8692*)
    → "My lipstick is always selling out, so keep the supply of $1 and $2 coming! As you can see, I pay a good price, so please sell whatever you find directly to me."
 16: 0x012C [0x23] WAIT_FOR_DIALOG_INTERACTION
 17: 0x012D [0x45] LOAD_SCHEDULED_TASK: Load scheduler "qstc" with entities [LocalPlayer, LocalPlayer], work=[201*, 0*]
 18: 0x013E [0x20] SET_CLI_EVENT_UC_FLAG: Unlock player control
 19: 0x0140 [0x21] END_EVENT
 20: 0x0141 [0x00] END_REQSTACK()
```

### Event 480

#### Metadata

| Field        | Value    |
|--------------|----------|
| Entrypoint   | 0x0142   |
| Data Size    | 15 bytes |
| Instructions | 8        |

```
      00 01 02 03 04 05 06 07  08 09 0A 0B 0C 0D 0E 0F
      -- -- -- -- -- -- -- --  -- -- -- -- -- -- -- --
0140:       1E F0 FF FF 7F 6F  70 1D 12 80 23 20 00 21    .....op...# .!
0150: 00                                                .               
```

#### Opcodes

```
  0: 0x0142 [0x1E] EventEntity looks at LocalPlayer and starts talking
  1: 0x0147 [0x6F] WAIT_FRAME_DELAY: Yield until WaitTime reaches zero
  2: 0x0148 [0x70] WAIT_ENTITY_RENDER_FLAG: Wait while EventEntity->Render.Flags3 bit 2 is set (cancel turn if not)
  3: 0x0149 [0x1D] PRINT_EVENT_MESSAGE(message_id=8693*)
    → "If you come across any more $1 or $2, then please sell whateverrr you find directly to me. I'll make surrre to give you the best price around."
  4: 0x014C [0x23] WAIT_FOR_DIALOG_INTERACTION
  5: 0x014D [0x20] SET_CLI_EVENT_UC_FLAG: Unlock player control
  6: 0x014F [0x21] END_EVENT
  7: 0x0150 [0x00] END_REQSTACK()
```

### Event 227

#### Metadata

| Field        | Value    |
|--------------|----------|
| Entrypoint   | 0x0151   |
| Data Size    | 25 bytes |
| Instructions | 8        |

```
      00 01 02 03 04 05 06 07  08 09 0A 0B 0C 0D 0E 0F
      -- -- -- -- -- -- -- --  -- -- -- -- -- -- -- --
0150:    1E F0 FF FF 7F 6F 70  29 0B 6A 10 0F 01 10 29   .....op).j....)
0160: 0B 6A 10 0F 01 11 20 00  21 00                    .j.... .!.      
```

#### Opcodes

```
  0: 0x0151 [0x1E] EventEntity looks at LocalPlayer and starts talking
  1: 0x0156 [0x6F] WAIT_FRAME_DELAY: Yield until WaitTime reaches zero
  2: 0x0157 [0x70] WAIT_ENTITY_RENDER_FLAG: Wait while EventEntity->Render.Flags3 bit 2 is set (cancel turn if not)
  3: 0x0158 [0x29] REQ_SET_WAIT(priority=0x0B, entity_id=Tapoh Lihzeh (ID: 17764458/0x010F106A), tag_num=0x10)
  4: 0x015F [0x29] REQ_SET_WAIT(priority=0x0B, entity_id=Tapoh Lihzeh (ID: 17764458/0x010F106A), tag_num=0x11)
  5: 0x0166 [0x20] SET_CLI_EVENT_UC_FLAG: Unlock player control
  6: 0x0168 [0x21] END_EVENT
  7: 0x0169 [0x00] END_REQSTACK()
```

### Event 65535.10

#### Metadata

| Field        | Value    |
|--------------|----------|
| Entrypoint   | 0x016A   |
| Data Size    | 37 bytes |
| Instructions | 9        |

```
      00 01 02 03 04 05 06 07  08 09 0A 0B 0C 0D 0E 0F
      -- -- -- -- -- -- -- --  -- -- -- -- -- -- -- --
0160:                                29 08 6A 10 0F 01            ).j...
0170: 03 1D 13 80 23 29 08 6A  10 0F 01 04 29 08 6A 10  ....#).j....).j.
0180: 0F 01 05 1D 14 80 23 29  08 6A 10 0F 01 06 00     ......#).j..... 
```

#### Opcodes

```
  0: 0x016A [0x29] REQ_SET_WAIT(priority=0x08, entity_id=Tapoh Lihzeh (ID: 17764458/0x010F106A), tag_num=0x03)
  1: 0x0171 [0x1D] PRINT_EVENT_MESSAGE(message_id=7954*)
    → "You came from the Chocobo Stables, did you? So you're afterrr that secret cure-all of mine, then?"
  2: 0x0174 [0x23] WAIT_FOR_DIALOG_INTERACTION
  3: 0x0175 [0x29] REQ_SET_WAIT(priority=0x08, entity_id=Tapoh Lihzeh (ID: 17764458/0x010F106A), tag_num=0x04)
  4: 0x017C [0x29] REQ_SET_WAIT(priority=0x08, entity_id=Tapoh Lihzeh (ID: 17764458/0x010F106A), tag_num=0x05)
  5: 0x0183 [0x1D] PRINT_EVENT_MESSAGE(message_id=7955*)
    → "The trrruth is, I lack a vital ingredient needed to make that medicament. It's called $1."
  6: 0x0186 [0x23] WAIT_FOR_DIALOG_INTERACTION
  7: 0x0187 [0x29] REQ_SET_WAIT(priority=0x08, entity_id=Tapoh Lihzeh (ID: 17764458/0x010F106A), tag_num=0x06)
  8: 0x018E [0x00] END_REQSTACK()
```

### Event 65535.11

#### Metadata

| Field        | Value    |
|--------------|----------|
| Entrypoint   | 0x018F   |
| Data Size    | 23 bytes |
| Instructions | 7        |

```
      00 01 02 03 04 05 06 07  08 09 0A 0B 0C 0D 0E 0F
      -- -- -- -- -- -- -- --  -- -- -- -- -- -- -- --
0180:                                               29                 )
0190: 08 6A 10 0F 01 01 1D 15  80 23 1D 16 80 23 29 08  .j.......#...#).
01A0: 6A 10 0F 01 09 00                                 j.....          
```

#### Opcodes

```
  0: 0x018F [0x29] REQ_SET_WAIT(priority=0x08, entity_id=Tapoh Lihzeh (ID: 17764458/0x010F106A), tag_num=0x01)
  1: 0x0196 [0x1D] PRINT_EVENT_MESSAGE(message_id=7956*)
    → "Accorrrding to the staff of the dhalmel farm, there aren't any $1 left in Sarutabaruta."
  2: 0x0199 [0x23] WAIT_FOR_DIALOG_INTERACTION
  3: 0x019A [0x1D] PRINT_EVENT_MESSAGE(message_id=7957*)
    → "So, if you come by any $1 somewhere, then please bring it to me!"
  4: 0x019D [0x23] WAIT_FOR_DIALOG_INTERACTION
  5: 0x019E [0x29] REQ_SET_WAIT(priority=0x08, entity_id=Tapoh Lihzeh (ID: 17764458/0x010F106A), tag_num=0x09)
  6: 0x01A5 [0x00] END_REQSTACK()
```

### Event 228

#### Metadata

| Field        | Value    |
|--------------|----------|
| Entrypoint   | 0x01A6   |
| Data Size    | 33 bytes |
| Instructions | 12       |

```
      00 01 02 03 04 05 06 07  08 09 0A 0B 0C 0D 0E 0F
      -- -- -- -- -- -- -- --  -- -- -- -- -- -- -- --
01A0:                   1E F0  FF FF 7F 6F 70 29 08 6A        .....op).j
01B0: 10 0F 01 01 1D 17 80 23  1D 18 80 23 29 08 6A 10  .......#...#).j.
01C0: 0F 01 09 20 00 21 00                              ... .!.         
```

#### Opcodes

```
  0: 0x01A6 [0x1E] EventEntity looks at LocalPlayer and starts talking
  1: 0x01AB [0x6F] WAIT_FRAME_DELAY: Yield until WaitTime reaches zero
  2: 0x01AC [0x70] WAIT_ENTITY_RENDER_FLAG: Wait while EventEntity->Render.Flags3 bit 2 is set (cancel turn if not)
  3: 0x01AD [0x29] REQ_SET_WAIT(priority=0x08, entity_id=Tapoh Lihzeh (ID: 17764458/0x010F106A), tag_num=0x01)
  4: 0x01B4 [0x1D] PRINT_EVENT_MESSAGE(message_id=7958*)
    → "Accorrrding to the staff of the dhalmel farm, there aren't any $1 left in Sarutabaruta. So, I can't make the medicament to help that poorrr chocobo."
  5: 0x01B7 [0x23] WAIT_FOR_DIALOG_INTERACTION
  6: 0x01B8 [0x1D] PRINT_EVENT_MESSAGE(message_id=7959*)
    → "If you happen to come by any $1 somewhere, then please brrring it to me!"
  7: 0x01BB [0x23] WAIT_FOR_DIALOG_INTERACTION
  8: 0x01BC [0x29] REQ_SET_WAIT(priority=0x08, entity_id=Tapoh Lihzeh (ID: 17764458/0x010F106A), tag_num=0x09)
  9: 0x01C3 [0x20] SET_CLI_EVENT_UC_FLAG: Unlock player control
 10: 0x01C5 [0x21] END_EVENT
 11: 0x01C6 [0x00] END_REQSTACK()
```

### Event 229

#### Metadata

| Field        | Value    |
|--------------|----------|
| Entrypoint   | 0x01C7   |
| Data Size    | 28 bytes |
| Instructions | 10       |

```
      00 01 02 03 04 05 06 07  08 09 0A 0B 0C 0D 0E 0F
      -- -- -- -- -- -- -- --  -- -- -- -- -- -- -- --
01C0:                      20  01 42 1E F0 FF FF 7F 6F          .B.....o
01D0: 70 29 0B 6A 10 0F 01 14  29 0B 6A 10 0F 01 15 20  p).j....).j.... 
01E0: 00 21 00                                          .!.             
```

#### Opcodes

```
  0: 0x01C7 [0x20] SET_CLI_EVENT_UC_FLAG: Lock player control
  1: 0x01C9 [0x42] SET_CLI_EVENT_CANCEL_DATA()
  2: 0x01CA [0x1E] EventEntity looks at LocalPlayer and starts talking
  3: 0x01CF [0x6F] WAIT_FRAME_DELAY: Yield until WaitTime reaches zero
  4: 0x01D0 [0x70] WAIT_ENTITY_RENDER_FLAG: Wait while EventEntity->Render.Flags3 bit 2 is set (cancel turn if not)
  5: 0x01D1 [0x29] REQ_SET_WAIT(priority=0x0B, entity_id=Tapoh Lihzeh (ID: 17764458/0x010F106A), tag_num=0x14)
  6: 0x01D8 [0x29] REQ_SET_WAIT(priority=0x0B, entity_id=Tapoh Lihzeh (ID: 17764458/0x010F106A), tag_num=0x15)
  7: 0x01DF [0x20] SET_CLI_EVENT_UC_FLAG: Unlock player control
  8: 0x01E1 [0x21] END_EVENT
  9: 0x01E2 [0x00] END_REQSTACK()
```

### Event 65535.12

#### Metadata

| Field        | Value    |
|--------------|----------|
| Entrypoint   | 0x01E3   |
| Data Size    | 23 bytes |
| Instructions | 7        |

```
      00 01 02 03 04 05 06 07  08 09 0A 0B 0C 0D 0E 0F
      -- -- -- -- -- -- -- --  -- -- -- -- -- -- -- --
01E0:          29 08 6A 10 0F  01 01 1D 19 80 23 1D 1A     ).j.......#..
01F0: 80 23 29 08 6A 10 0F 01  09 00                    .#).j.....      
```

#### Opcodes

```
  0: 0x01E3 [0x29] REQ_SET_WAIT(priority=0x08, entity_id=Tapoh Lihzeh (ID: 17764458/0x010F106A), tag_num=0x01)
  1: 0x01EA [0x1D] PRINT_EVENT_MESSAGE(message_id=7960*)
    → "You managed to get hold of $1? You did well to find such a rarrre plant!"
  2: 0x01ED [0x23] WAIT_FOR_DIALOG_INTERACTION
  3: 0x01EE [0x1D] PRINT_EVENT_MESSAGE(message_id=7961*)
    → "Now I can make my secret cure-all medicament. Thank you!"
  4: 0x01F1 [0x23] WAIT_FOR_DIALOG_INTERACTION
  5: 0x01F2 [0x29] REQ_SET_WAIT(priority=0x08, entity_id=Tapoh Lihzeh (ID: 17764458/0x010F106A), tag_num=0x09)
  6: 0x01F9 [0x00] END_REQSTACK()
```

### Event 65535.13

#### Metadata

| Field        | Value    |
|--------------|----------|
| Entrypoint   | 0x01FA   |
| Data Size    | 19 bytes |
| Instructions | 5        |

```
      00 01 02 03 04 05 06 07  08 09 0A 0B 0C 0D 0E 0F
      -- -- -- -- -- -- -- --  -- -- -- -- -- -- -- --
01F0:                                29 08 6A 10 0F 01            ).j...
0200: 01 1D 1B 80 23 29 08 6A  10 0F 01 09 00           ....#).j.....   
```

#### Opcodes

```
  0: 0x01FA [0x29] REQ_SET_WAIT(priority=0x08, entity_id=Tapoh Lihzeh (ID: 17764458/0x010F106A), tag_num=0x01)
  1: 0x0201 [0x1D] PRINT_EVENT_MESSAGE(message_id=7962*)
    → "Oh...and tell Kuoh Rhel back at the Chocobo Stables to hold on a little while longerrr."
  2: 0x0204 [0x23] WAIT_FOR_DIALOG_INTERACTION
  3: 0x0205 [0x29] REQ_SET_WAIT(priority=0x08, entity_id=Tapoh Lihzeh (ID: 17764458/0x010F106A), tag_num=0x09)
  4: 0x020C [0x00] END_REQSTACK()
```

### Event 230

#### Metadata

| Field        | Value    |
|--------------|----------|
| Entrypoint   | 0x020D   |
| Data Size    | 29 bytes |
| Instructions | 10       |

```
      00 01 02 03 04 05 06 07  08 09 0A 0B 0C 0D 0E 0F
      -- -- -- -- -- -- -- --  -- -- -- -- -- -- -- --
0200:                                         1E F0 FF               ...
0210: FF 7F 6F 70 29 08 6A 10  0F 01 01 1D 1C 80 23 29  ..op).j.......#)
0220: 08 6A 10 0F 01 09 20 00  21 00                    .j.... .!.      
```

#### Opcodes

```
  0: 0x020D [0x1E] EventEntity looks at LocalPlayer and starts talking
  1: 0x0212 [0x6F] WAIT_FRAME_DELAY: Yield until WaitTime reaches zero
  2: 0x0213 [0x70] WAIT_ENTITY_RENDER_FLAG: Wait while EventEntity->Render.Flags3 bit 2 is set (cancel turn if not)
  3: 0x0214 [0x29] REQ_SET_WAIT(priority=0x08, entity_id=Tapoh Lihzeh (ID: 17764458/0x010F106A), tag_num=0x01)
  4: 0x021B [0x1D] PRINT_EVENT_MESSAGE(message_id=7963*)
    → "I'm starrrting to make the medicament now. So please tell Kuoh Rhel at the Chocobo Stables to hang in there forrr a little bit longer."
  5: 0x021E [0x23] WAIT_FOR_DIALOG_INTERACTION
  6: 0x021F [0x29] REQ_SET_WAIT(priority=0x08, entity_id=Tapoh Lihzeh (ID: 17764458/0x010F106A), tag_num=0x09)
  7: 0x0226 [0x20] SET_CLI_EVENT_UC_FLAG: Unlock player control
  8: 0x0228 [0x21] END_EVENT
  9: 0x0229 [0x00] END_REQSTACK()
```
