# 17764737 - Moogle

## Common Data

| Field            | Value                    |
|------------------|--------------------------|
| Zone             | Windurst Woods (ID: 241) |
| Block Size       | 300 bytes                |
| Total Events     | 3                        |
| References Count | 15                       |

## List of Events

| Event ID              | Entrypoint   |   Size |   Instructions |
|-----------------------|--------------|--------|----------------|
| [65535](#event-65535) | 0x0000       |      1 |              1 |
| [32712](#event-32712) | 0x0001       |    193 |             47 |
| [32711](#event-32711) | 0x00C2       |     15 |              7 |

## DAT References (imed_data)

|   Index | Hex Value   |   Dec Value |
|---------|-------------|-------------|
|       0 | 0x3401      |       13313 |
|       1 | 0x3402      |       13314 |
|       2 | 0x3404      |       13316 |
|       3 | 0x0001      |           1 |
|       4 | 0x0002      |           2 |
|       5 | 0x0004      |           4 |
|       6 | 0x0003      |           3 |
|       7 | 0x0008      |           8 |
|       8 | 0x3405      |       13317 |
|       9 | 0x0000      |           0 |
|      10 | 0x3406      |       13318 |
|      11 | 0x0019      |          25 |
|      12 | 0x00B4      |         180 |
|      13 | 0x33FB      |       13307 |
|      14 | 0x33FC      |       13308 |

## String References

- **13307**: Hey, did you see the show being held at town square?
- **13308**: The sensational new starlet, Mumor, is performing! You have to go and cheer her on, kupo!
- **13313**: The outfit you're wearing...it's a prize from the show!
- **13314**: Thank you so much for helping out our Mumor, kupo.
- **13316**: To show our appreciation, I'll warp you to one of the other nations, kupo! Where do you want to go?
- **13317**: Where will you go? [Nowhere./San d'Oria./Bastok./Windurst.]
- **13318**: Enjoy your trip, kupo!

## Events

### Event 65535

#### Metadata

| Field        | Value   |
|--------------|---------|
| Entrypoint   | 0x0000  |
| Data Size    | 1 bytes |
| Instructions | 1       |

```
      00 01 02 03 04 05 06 07  08 09 0A 0B 0C 0D 0E 0F
      -- -- -- -- -- -- -- --  -- -- -- -- -- -- -- --
0000: 00                                                .               
```

#### Opcodes

```
  0: 0x0000 [0x00] END_REQSTACK()
```

### Event 32712

#### Metadata

| Field        | Value     |
|--------------|-----------|
| Entrypoint   | 0x0001    |
| Data Size    | 193 bytes |
| Instructions | 47        |

```
      00 01 02 03 04 05 06 07  08 09 0A 0B 0C 0D 0E 0F
      -- -- -- -- -- -- -- --  -- -- -- -- -- -- -- --
0000:    1E F0 FF FF 7F 1D 00  80 23 1D 01 80 23 1D 02   ........#...#..
0010: 80 23 02 02 10 03 80 00  1F 00 03 00 00 04 80 02  .#..............
0020: 02 10 04 80 00 2C 00 03  00 00 05 80 02 02 10 06  .....,..........
0030: 80 00 39 00 03 00 00 07  80 24 08 80 09 80 00 00  ..9......$......
0040: 25 02 00 10 09 80 00 51  00 03 01 10 09 80 01 C0  %......Q........
0050: 00 02 00 10 03 80 00 76  00 42 1D 0A 80 23 AD 00  .......v.B...#..
0060: 0B 80 F8 FF FF 7F F0 FF  FF 7F 1C 0C 80 30 03 01  .............0..
0070: 10 03 80 01 C0 00 02 00  10 04 80 00 9B 00 42 1D  ..............B.
0080: 0A 80 23 AD 00 0B 80 F8  FF FF 7F F0 FF FF 7F 1C  ..#.............
0090: 0C 80 30 03 01 10 04 80  01 C0 00 02 00 10 06 80  ..0.............
00A0: 00 C0 00 42 1D 0A 80 23  AD 00 0B 80 F8 FF FF 7F  ...B...#........
00B0: F0 FF FF 7F 1C 0C 80 30  03 01 10 06 80 01 C0 00  .......0........
00C0: 21 00                                             !.              
```

#### Opcodes

```
  0: 0x0001 [0x1E] EventEntity looks at LocalPlayer and starts talking
  1: 0x0006 [0x1D] PRINT_EVENT_MESSAGE(message_id=13313*)
    → "The outfit you're wearing...it's a prize from the show!"
  2: 0x0009 [0x23] WAIT_FOR_DIALOG_INTERACTION
  3: 0x000A [0x1D] PRINT_EVENT_MESSAGE(message_id=13314*)
    → "Thank you so much for helping out our Mumor, kupo."
  4: 0x000D [0x23] WAIT_FOR_DIALOG_INTERACTION
  5: 0x000E [0x1D] PRINT_EVENT_MESSAGE(message_id=13316*)
    → "To show our appreciation, I'll warp you to one of the other nations, kupo! Where do you want to go?"
  6: 0x0011 [0x23] WAIT_FOR_DIALOG_INTERACTION
  7: 0x0012 [0x02] IF !(Work_Zone[2] == 1*) GOTO 0x001F
  8: 0x001A [0x03] ExtData[1]->WorkLocal[0] = 2*
  9: 0x001F [0x02] IF !(Work_Zone[2] == 2*) GOTO 0x002C
 10: 0x0027 [0x03] ExtData[1]->WorkLocal[0] = 4*
 11: 0x002C [0x02] IF !(Work_Zone[2] == 3*) GOTO 0x0039
 12: 0x0034 [0x03] ExtData[1]->WorkLocal[0] = 8*
 13: 0x0039 [0x24] CREATE_DIALOG(message_id=13317*, default_option=0*, option_flags=ExtData[1]->WorkLocal[0])
    → "Where will you go? [Nowhere./San d'Oria./Bastok./Windurst.]"
 14: 0x0040 [0x25] WAIT_DIALOG_SELECT()
 15: 0x0041 [0x02] IF !(Work_Zone[0] == 0*) GOTO 0x0051
 16: 0x0049 [0x03] Work_Zone[1] = 0*
 17: 0x004E [0x01] GOTO 0x00C0
 18: 0x0051 [0x02] IF !(Work_Zone[0] == 1*) GOTO 0x0076
 19: 0x0059 [0x42] SET_CLI_EVENT_CANCEL_DATA()
 20: 0x005A [0x1D] PRINT_EVENT_MESSAGE(message_id=13318*)
    → "Enjoy your trip, kupo!"
 21: 0x005D [0x23] WAIT_FOR_DIALOG_INTERACTION
 22: 0x005E [0xAD] DUAL_ENTITY_SCHEDULER_HANDLER: Execute sub-case 0 with entities [EventEntity, LocalPlayer], work=25*
 23: 0x006A [0x1C] WAIT(180* ticks)
 24: 0x006D [0x30] SET_UCOFF_CONTINUE_ZERO()
 25: 0x006E [0x03] Work_Zone[1] = 1*
 26: 0x0073 [0x01] GOTO 0x00C0
 27: 0x0076 [0x02] IF !(Work_Zone[0] == 2*) GOTO 0x009B
 28: 0x007E [0x42] SET_CLI_EVENT_CANCEL_DATA()
 29: 0x007F [0x1D] PRINT_EVENT_MESSAGE(message_id=13318*)
    → "Enjoy your trip, kupo!"
 30: 0x0082 [0x23] WAIT_FOR_DIALOG_INTERACTION
 31: 0x0083 [0xAD] DUAL_ENTITY_SCHEDULER_HANDLER: Execute sub-case 0 with entities [EventEntity, LocalPlayer], work=25*
 32: 0x008F [0x1C] WAIT(180* ticks)
 33: 0x0092 [0x30] SET_UCOFF_CONTINUE_ZERO()
 34: 0x0093 [0x03] Work_Zone[1] = 2*
 35: 0x0098 [0x01] GOTO 0x00C0
 36: 0x009B [0x02] IF !(Work_Zone[0] == 3*) GOTO 0x00C0
 37: 0x00A3 [0x42] SET_CLI_EVENT_CANCEL_DATA()
 38: 0x00A4 [0x1D] PRINT_EVENT_MESSAGE(message_id=13318*)
    → "Enjoy your trip, kupo!"
 39: 0x00A7 [0x23] WAIT_FOR_DIALOG_INTERACTION
 40: 0x00A8 [0xAD] DUAL_ENTITY_SCHEDULER_HANDLER: Execute sub-case 0 with entities [EventEntity, LocalPlayer], work=25*
 41: 0x00B4 [0x1C] WAIT(180* ticks)
 42: 0x00B7 [0x30] SET_UCOFF_CONTINUE_ZERO()
 43: 0x00B8 [0x03] Work_Zone[1] = 3*
 44: 0x00BD [0x01] GOTO 0x00C0

SUBROUTINE_00C0:
 45: 0x00C0 [0x21] END_EVENT
 46: 0x00C1 [0x00] END_REQSTACK()
```

### Event 32711

#### Metadata

| Field        | Value    |
|--------------|----------|
| Entrypoint   | 0x00C2   |
| Data Size    | 15 bytes |
| Instructions | 7        |

```
      00 01 02 03 04 05 06 07  08 09 0A 0B 0C 0D 0E 0F
      -- -- -- -- -- -- -- --  -- -- -- -- -- -- -- --
00C0:       1E F0 FF FF 7F 1D  0D 80 23 1D 0E 80 23 21    ........#...#!
00D0: 00                                                .               
```

#### Opcodes

```
  0: 0x00C2 [0x1E] EventEntity looks at LocalPlayer and starts talking
  1: 0x00C7 [0x1D] PRINT_EVENT_MESSAGE(message_id=13307*)
    → "Hey, did you see the show being held at town square?"
  2: 0x00CA [0x23] WAIT_FOR_DIALOG_INTERACTION
  3: 0x00CB [0x1D] PRINT_EVENT_MESSAGE(message_id=13308*)
    → "The sensational new starlet, Mumor, is performing! You have to go and cheer her on, kupo!"
  4: 0x00CE [0x23] WAIT_FOR_DIALOG_INTERACTION
  5: 0x00CF [0x21] END_EVENT
  6: 0x00D0 [0x00] END_REQSTACK()
```
