# 17764532 - Gottah Maporushanoh

## Common Data

| Field            | Value                    |
|------------------|--------------------------|
| Zone             | Windurst Woods (ID: 241) |
| Block Size       | 940 bytes                |
| Total Events     | 37                       |
| References Count | 23                       |

## List of Events

| Event ID                   | Entrypoint   |   Size |   Instructions |
|----------------------------|--------------|--------|----------------|
| [65535](#event-65535)      | 0x0000       |      1 |              1 |
| [65535.1](#event-655351)   | 0x0001       |     16 |              2 |
| [65535.2](#event-655352)   | 0x0011       |      9 |              3 |
| [65535.3](#event-655353)   | 0x001A       |     22 |              3 |
| [65535.4](#event-655354)   | 0x0030       |     14 |              2 |
| [65535.5](#event-655355)   | 0x003E       |     16 |              2 |
| [65535.6](#event-655356)   | 0x004E       |     20 |              3 |
| [65535.7](#event-655357)   | 0x0062       |     16 |              2 |
| [65535.8](#event-655358)   | 0x0072       |     14 |              2 |
| [65535.9](#event-655359)   | 0x0080       |     16 |              2 |
| [65535.10](#event-6553510) | 0x0090       |     14 |              2 |
| [65535.11](#event-6553511) | 0x009E       |     16 |              2 |
| [65535.12](#event-6553512) | 0x00AE       |     14 |              2 |
| [65535.13](#event-6553513) | 0x00BC       |     16 |              2 |
| [65535.14](#event-6553514) | 0x00CC       |     14 |              2 |
| [65535.15](#event-6553515) | 0x00DA       |     16 |              2 |
| [65535.16](#event-6553516) | 0x00EA       |     14 |              2 |
| [65535.17](#event-6553517) | 0x00F8       |     16 |              2 |
| [65535.18](#event-6553518) | 0x0108       |     14 |              2 |
| [65535.19](#event-6553519) | 0x0116       |     28 |              4 |
| [65535.20](#event-6553520) | 0x0132       |     26 |              4 |
| [65535.21](#event-6553521) | 0x014C       |     16 |              2 |
| [65535.22](#event-6553522) | 0x015C       |     14 |              2 |
| [65535.23](#event-6553523) | 0x016A       |     16 |              2 |
| [65535.24](#event-6553524) | 0x017A       |     14 |              2 |
| [65535.25](#event-6553525) | 0x0188       |      9 |              3 |
| [420](#event-420)          | 0x0191       |     36 |             13 |
| [483](#event-483)          | 0x01B5       |     36 |             13 |
| [484](#event-484)          | 0x01D9       |      1 |              1 |
| [65535.26](#event-6553526) | 0x01DA       |      5 |              3 |
| [65535.27](#event-6553527) | 0x01DF       |      5 |              3 |
| [65535.28](#event-6553528) | 0x01E4       |      5 |              3 |
| [65535.29](#event-6553529) | 0x01E9       |      5 |              3 |
| [486](#event-486)          | 0x01EE       |     32 |             11 |
| [839](#event-839)          | 0x020E       |      1 |              1 |
| [871](#event-871)          | 0x020F       |      1 |              1 |
| [872](#event-872)          | 0x0210       |    156 |             36 |

## DAT References (imed_data)

|   Index | Hex Value   |   Dec Value |
|---------|-------------|-------------|
|       0 | 0x0032      |          50 |
|       1 | 0x001E      |          30 |
|       2 | 0x0034      |          52 |
|       3 | 0x0035      |          53 |
|       4 | 0x0008      |           8 |
|       5 | 0x2145      |        8517 |
|       6 | 0x2146      |        8518 |
|       7 | 0x21FC      |        8700 |
|       8 | 0x21FD      |        8701 |
|       9 | 0x2202      |        8706 |
|      10 | 0x2207      |        8711 |
|      11 | 0x2209      |        8713 |
|      12 | 0x220B      |        8715 |
|      13 | 0x220D      |        8717 |
|      14 | 0x0001      |           1 |
|      15 | 0x0000      |           0 |
|      16 | 0x2E60      |       11872 |
|      17 | 0x0002      |           2 |
|      18 | 0x2E82      |       11906 |
|      19 | 0x2E83      |       11907 |
|      20 | 0x2E84      |       11908 |
|      21 | 0x2E95      |       11925 |
|      22 | 0x2E96      |       11926 |

## String References

- **8517**: How's it goin', mate? Enjoyin' a spot of adventurrrin', I see...
- **8518**: Life's long, and you can put off till tommora what you don't wanta do today. So don't you be wearin' yourself out with all that adventurrrin', you hear?
- **8700**: Of course I've lost me passion for adventurrre! I've come all the way to Windurst lookin' for the old pirate king's treasurrre, only to have 'em tell me that all that talk o' pirate treasurrre is just a fairy tale.
- **8701**: Speakin' of which...I bet that legend o' the great monk Scorpio who fought a giant scorrrpion with his bare hands was also just made up to excite the kiddies, too.
- **8706**: Ho-hum...
- **8711**: Ah!?
- **8713**: His eye carved out by a briny blusterrr His heart pierced by a scorpion's sting Cloaked in his treasure's golden lusterrr Beneath the earth sleeps that pirate king.
- **8715**: Hold your horrrses, Soni-Muni! I've hearrrd that maze is no walk in the park. We don't stand a chance at our current level, so we'd better get some trainin' in firrrst!
- **8717**: But then we wouldn't have heard the lowdown on the Maze of Shakhrami, would we? Rrright?
- **11872**: Ask if this person is the chick's owner? [Yes./No.]
- **11906**: You've got me chocobo!?
- **11907**: Me feathered mate is livin' in safety, then? I've neverrr heard such happy tidin's! I'll be sure to watch the little fella close from now on!
- **11908**: Let me show me grrratitude by tellin' you a story I often tell me little mate...
- **11925**: You say you've got me chocobo?
- **11926**: I'm afraid you've got the wrong person. Adventurers are bound to make mistakes from time to time, so don't let it get you down, mate.

## Events

### Event 65535

#### Metadata

| Field        | Value   |
|--------------|---------|
| Entrypoint   | 0x0000  |
| Data Size    | 1 bytes |
| Instructions | 1       |

```
      00 01 02 03 04 05 06 07  08 09 0A 0B 0C 0D 0E 0F
      -- -- -- -- -- -- -- --  -- -- -- -- -- -- -- --
0000: 00                                                .               
```

#### Opcodes

```
  0: 0x0000 [0x00] END_REQSTACK()
```

### Event 65535.1

#### Metadata

| Field        | Value    |
|--------------|----------|
| Entrypoint   | 0x0001   |
| Data Size    | 16 bytes |
| Instructions | 2        |

```
      00 01 02 03 04 05 06 07  08 09 0A 0B 0C 0D 0E 0F
      -- -- -- -- -- -- -- --  -- -- -- -- -- -- -- --
0000:    66 00 80 F8 FF FF 7F  F8 FF FF 7F 74 6C 6B 30   f..........tlk0
0010: 00                                                .               
```

#### Opcodes

```
  0: 0x0001 [0x66] LOAD_EXT_SCHEDULER_MAIN: Load scheduler "tlk0" with entities [EventEntity, EventEntity], work=50*
  1: 0x0010 [0x00] END_REQSTACK()
```

### Event 65535.2

#### Metadata

| Field        | Value   |
|--------------|---------|
| Entrypoint   | 0x0011  |
| Data Size    | 9 bytes |
| Instructions | 3       |

```
      00 01 02 03 04 05 06 07  08 09 0A 0B 0C 0D 0E 0F
      -- -- -- -- -- -- -- --  -- -- -- -- -- -- -- --
0010:    5E 69 64 6C 30 1C 01  80 00                     ^idl0....      
```

#### Opcodes

```
  0: 0x0011 [0x5E] EventEntity goes idle (kills current action) (animation: "idl0")
  1: 0x0016 [0x1C] WAIT(30* ticks)
  2: 0x0019 [0x00] END_REQSTACK()
```

### Event 65535.3

#### Metadata

| Field        | Value    |
|--------------|----------|
| Entrypoint   | 0x001A   |
| Data Size    | 22 bytes |
| Instructions | 3        |

```
      00 01 02 03 04 05 06 07  08 09 0A 0B 0C 0D 0E 0F
      -- -- -- -- -- -- -- --  -- -- -- -- -- -- -- --
0010:                                81 00 F8 FF FF 7F            ......
0020: 66 00 80 F8 FF FF 7F F8  FF FF 7F 74 68 6B 31 00  f..........thk1.
```

#### Opcodes

```
  0: 0x001A [0x81] SET_ENTITY_BLINKING(blink_flag=0x00, entity=EventEntity)
  1: 0x0020 [0x66] LOAD_EXT_SCHEDULER_MAIN: Load scheduler "thk1" with entities [EventEntity, EventEntity], work=50*
  2: 0x002F [0x00] END_REQSTACK()
```

### Event 65535.4

#### Metadata

| Field        | Value    |
|--------------|----------|
| Entrypoint   | 0x0030   |
| Data Size    | 14 bytes |
| Instructions | 2        |

```
      00 01 02 03 04 05 06 07  08 09 0A 0B 0C 0D 0E 0F
      -- -- -- -- -- -- -- --  -- -- -- -- -- -- -- --
0030: 53 F8 FF FF 7F F8 FF FF  7F 74 68 6B 31 00        S........thk1.  
```

#### Opcodes

```
  0: 0x0030 [0x53] WAIT_SCHEDULER_TASK: Wait for scheduler "thk1" with entities [EventEntity, EventEntity]
  1: 0x003D [0x00] END_REQSTACK()
```

### Event 65535.5

#### Metadata

| Field        | Value    |
|--------------|----------|
| Entrypoint   | 0x003E   |
| Data Size    | 16 bytes |
| Instructions | 2        |

```
      00 01 02 03 04 05 06 07  08 09 0A 0B 0C 0D 0E 0F
      -- -- -- -- -- -- -- --  -- -- -- -- -- -- -- --
0030:                                            66 00                f.
0040: 80 F8 FF FF 7F F8 FF FF  7F 74 68 6B 32 00        .........thk2.  
```

#### Opcodes

```
  0: 0x003E [0x66] LOAD_EXT_SCHEDULER_MAIN: Load scheduler "thk2" with entities [EventEntity, EventEntity], work=50*
  1: 0x004D [0x00] END_REQSTACK()
```

### Event 65535.6

#### Metadata

| Field        | Value    |
|--------------|----------|
| Entrypoint   | 0x004E   |
| Data Size    | 20 bytes |
| Instructions | 3        |

```
      00 01 02 03 04 05 06 07  08 09 0A 0B 0C 0D 0E 0F
      -- -- -- -- -- -- -- --  -- -- -- -- -- -- -- --
0040:                                            53 F8                S.
0050: FF FF 7F F8 FF FF 7F 74  68 6B 32 81 01 F8 FF FF  .......thk2.....
0060: 7F 00                                             ..              
```

#### Opcodes

```
  0: 0x004E [0x53] WAIT_SCHEDULER_TASK: Wait for scheduler "thk2" with entities [EventEntity, EventEntity]
  1: 0x005B [0x81] SET_ENTITY_BLINKING(blink_flag=0x01, entity=EventEntity)
  2: 0x0061 [0x00] END_REQSTACK()
```

### Event 65535.7

#### Metadata

| Field        | Value    |
|--------------|----------|
| Entrypoint   | 0x0062   |
| Data Size    | 16 bytes |
| Instructions | 2        |

```
      00 01 02 03 04 05 06 07  08 09 0A 0B 0C 0D 0E 0F
      -- -- -- -- -- -- -- --  -- -- -- -- -- -- -- --
0060:       66 02 80 F8 FF FF  7F F8 FF FF 7F 64 69 73    f..........dis
0070: 30 00                                             0.              
```

#### Opcodes

```
  0: 0x0062 [0x66] LOAD_EXT_SCHEDULER_MAIN: Load scheduler "dis0" with entities [EventEntity, EventEntity], work=52*
  1: 0x0071 [0x00] END_REQSTACK()
```

### Event 65535.8

#### Metadata

| Field        | Value    |
|--------------|----------|
| Entrypoint   | 0x0072   |
| Data Size    | 14 bytes |
| Instructions | 2        |

```
      00 01 02 03 04 05 06 07  08 09 0A 0B 0C 0D 0E 0F
      -- -- -- -- -- -- -- --  -- -- -- -- -- -- -- --
0070:       53 F8 FF FF 7F F8  FF FF 7F 64 69 73 30 00    S........dis0.
```

#### Opcodes

```
  0: 0x0072 [0x53] WAIT_SCHEDULER_TASK: Wait for scheduler "dis0" with entities [EventEntity, EventEntity]
  1: 0x007F [0x00] END_REQSTACK()
```

### Event 65535.9

#### Metadata

| Field        | Value    |
|--------------|----------|
| Entrypoint   | 0x0080   |
| Data Size    | 16 bytes |
| Instructions | 2        |

```
      00 01 02 03 04 05 06 07  08 09 0A 0B 0C 0D 0E 0F
      -- -- -- -- -- -- -- --  -- -- -- -- -- -- -- --
0080: 66 02 80 F8 FF FF 7F F8  FF FF 7F 74 6C 63 30 00  f..........tlc0.
```

#### Opcodes

```
  0: 0x0080 [0x66] LOAD_EXT_SCHEDULER_MAIN: Load scheduler "tlc0" with entities [EventEntity, EventEntity], work=52*
  1: 0x008F [0x00] END_REQSTACK()
```

### Event 65535.10

#### Metadata

| Field        | Value    |
|--------------|----------|
| Entrypoint   | 0x0090   |
| Data Size    | 14 bytes |
| Instructions | 2        |

```
      00 01 02 03 04 05 06 07  08 09 0A 0B 0C 0D 0E 0F
      -- -- -- -- -- -- -- --  -- -- -- -- -- -- -- --
0090: 53 F8 FF FF 7F F8 FF FF  7F 74 6C 63 30 00        S........tlc0.  
```

#### Opcodes

```
  0: 0x0090 [0x53] WAIT_SCHEDULER_TASK: Wait for scheduler "tlc0" with entities [EventEntity, EventEntity]
  1: 0x009D [0x00] END_REQSTACK()
```

### Event 65535.11

#### Metadata

| Field        | Value    |
|--------------|----------|
| Entrypoint   | 0x009E   |
| Data Size    | 16 bytes |
| Instructions | 2        |

```
      00 01 02 03 04 05 06 07  08 09 0A 0B 0C 0D 0E 0F
      -- -- -- -- -- -- -- --  -- -- -- -- -- -- -- --
0090:                                            66 02                f.
00A0: 80 F8 FF FF 7F F8 FF FF  7F 74 6C 63 31 00        .........tlc1.  
```

#### Opcodes

```
  0: 0x009E [0x66] LOAD_EXT_SCHEDULER_MAIN: Load scheduler "tlc1" with entities [EventEntity, EventEntity], work=52*
  1: 0x00AD [0x00] END_REQSTACK()
```

### Event 65535.12

#### Metadata

| Field        | Value    |
|--------------|----------|
| Entrypoint   | 0x00AE   |
| Data Size    | 14 bytes |
| Instructions | 2        |

```
      00 01 02 03 04 05 06 07  08 09 0A 0B 0C 0D 0E 0F
      -- -- -- -- -- -- -- --  -- -- -- -- -- -- -- --
00A0:                                            53 F8                S.
00B0: FF FF 7F F8 FF FF 7F 74  6C 63 31 00              .......tlc1.    
```

#### Opcodes

```
  0: 0x00AE [0x53] WAIT_SCHEDULER_TASK: Wait for scheduler "tlc1" with entities [EventEntity, EventEntity]
  1: 0x00BB [0x00] END_REQSTACK()
```

### Event 65535.13

#### Metadata

| Field        | Value    |
|--------------|----------|
| Entrypoint   | 0x00BC   |
| Data Size    | 16 bytes |
| Instructions | 2        |

```
      00 01 02 03 04 05 06 07  08 09 0A 0B 0C 0D 0E 0F
      -- -- -- -- -- -- -- --  -- -- -- -- -- -- -- --
00B0:                                      66 03 80 F8              f...
00C0: FF FF 7F F8 FF FF 7F 74  6C 62 31 00              .......tlb1.    
```

#### Opcodes

```
  0: 0x00BC [0x66] LOAD_EXT_SCHEDULER_MAIN: Load scheduler "tlb1" with entities [EventEntity, EventEntity], work=53*
  1: 0x00CB [0x00] END_REQSTACK()
```

### Event 65535.14

#### Metadata

| Field        | Value    |
|--------------|----------|
| Entrypoint   | 0x00CC   |
| Data Size    | 14 bytes |
| Instructions | 2        |

```
      00 01 02 03 04 05 06 07  08 09 0A 0B 0C 0D 0E 0F
      -- -- -- -- -- -- -- --  -- -- -- -- -- -- -- --
00C0:                                      53 F8 FF FF              S...
00D0: 7F F8 FF FF 7F 74 6C 62  31 00                    .....tlb1.      
```

#### Opcodes

```
  0: 0x00CC [0x53] WAIT_SCHEDULER_TASK: Wait for scheduler "tlb1" with entities [EventEntity, EventEntity]
  1: 0x00D9 [0x00] END_REQSTACK()
```

### Event 65535.15

#### Metadata

| Field        | Value    |
|--------------|----------|
| Entrypoint   | 0x00DA   |
| Data Size    | 16 bytes |
| Instructions | 2        |

```
      00 01 02 03 04 05 06 07  08 09 0A 0B 0C 0D 0E 0F
      -- -- -- -- -- -- -- --  -- -- -- -- -- -- -- --
00D0:                                66 03 80 F8 FF FF            f.....
00E0: 7F F8 FF FF 7F 74 6C 62  32 00                    .....tlb2.      
```

#### Opcodes

```
  0: 0x00DA [0x66] LOAD_EXT_SCHEDULER_MAIN: Load scheduler "tlb2" with entities [EventEntity, EventEntity], work=53*
  1: 0x00E9 [0x00] END_REQSTACK()
```

### Event 65535.16

#### Metadata

| Field        | Value    |
|--------------|----------|
| Entrypoint   | 0x00EA   |
| Data Size    | 14 bytes |
| Instructions | 2        |

```
      00 01 02 03 04 05 06 07  08 09 0A 0B 0C 0D 0E 0F
      -- -- -- -- -- -- -- --  -- -- -- -- -- -- -- --
00E0:                                53 F8 FF FF 7F F8            S.....
00F0: FF FF 7F 74 6C 62 32 00                           ...tlb2.        
```

#### Opcodes

```
  0: 0x00EA [0x53] WAIT_SCHEDULER_TASK: Wait for scheduler "tlb2" with entities [EventEntity, EventEntity]
  1: 0x00F7 [0x00] END_REQSTACK()
```

### Event 65535.17

#### Metadata

| Field        | Value    |
|--------------|----------|
| Entrypoint   | 0x00F8   |
| Data Size    | 16 bytes |
| Instructions | 2        |

```
      00 01 02 03 04 05 06 07  08 09 0A 0B 0C 0D 0E 0F
      -- -- -- -- -- -- -- --  -- -- -- -- -- -- -- --
00F0:                          66 02 80 F8 FF FF 7F F8          f.......
0100: FF FF 7F 73 69 73 30 00                           ...sis0.        
```

#### Opcodes

```
  0: 0x00F8 [0x66] LOAD_EXT_SCHEDULER_MAIN: Load scheduler "sis0" with entities [EventEntity, EventEntity], work=52*
  1: 0x0107 [0x00] END_REQSTACK()
```

### Event 65535.18

#### Metadata

| Field        | Value    |
|--------------|----------|
| Entrypoint   | 0x0108   |
| Data Size    | 14 bytes |
| Instructions | 2        |

```
      00 01 02 03 04 05 06 07  08 09 0A 0B 0C 0D 0E 0F
      -- -- -- -- -- -- -- --  -- -- -- -- -- -- -- --
0100:                          53 F8 FF FF 7F F8 FF FF          S.......
0110: 7F 73 69 73 30 00                                 .sis0.          
```

#### Opcodes

```
  0: 0x0108 [0x53] WAIT_SCHEDULER_TASK: Wait for scheduler "sis0" with entities [EventEntity, EventEntity]
  1: 0x0115 [0x00] END_REQSTACK()
```

### Event 65535.19

#### Metadata

| Field        | Value    |
|--------------|----------|
| Entrypoint   | 0x0116   |
| Data Size    | 28 bytes |
| Instructions | 4        |

```
      00 01 02 03 04 05 06 07  08 09 0A 0B 0C 0D 0E 0F
      -- -- -- -- -- -- -- --  -- -- -- -- -- -- -- --
0110:                   7C 00  F8 FF FF 7F 81 00 F8 FF        |.........
0120: FF 7F 66 04 80 F8 FF FF  7F F8 FF FF 7F 61 6E 67  ..f..........ang
0130: 30 00                                             0.              
```

#### Opcodes

```
  0: 0x0116 [0x7C] EventEntity->Render.Flags2 |= 0x00
  1: 0x011C [0x81] SET_ENTITY_BLINKING(blink_flag=0x00, entity=EventEntity)
  2: 0x0122 [0x66] LOAD_EXT_SCHEDULER_MAIN: Load scheduler "ang0" with entities [EventEntity, EventEntity], work=8*
  3: 0x0131 [0x00] END_REQSTACK()
```

### Event 65535.20

#### Metadata

| Field        | Value    |
|--------------|----------|
| Entrypoint   | 0x0132   |
| Data Size    | 26 bytes |
| Instructions | 4        |

```
      00 01 02 03 04 05 06 07  08 09 0A 0B 0C 0D 0E 0F
      -- -- -- -- -- -- -- --  -- -- -- -- -- -- -- --
0130:       53 F8 FF FF 7F F8  FF FF 7F 61 6E 67 30 7C    S........ang0|
0140: 01 F8 FF FF 7F 81 01 F8  FF FF 7F 00              ............    
```

#### Opcodes

```
  0: 0x0132 [0x53] WAIT_SCHEDULER_TASK: Wait for scheduler "ang0" with entities [EventEntity, EventEntity]
  1: 0x013F [0x7C] EventEntity->Render.Flags2 |= 0x01
  2: 0x0145 [0x81] SET_ENTITY_BLINKING(blink_flag=0x01, entity=EventEntity)
  3: 0x014B [0x00] END_REQSTACK()
```

### Event 65535.21

#### Metadata

| Field        | Value    |
|--------------|----------|
| Entrypoint   | 0x014C   |
| Data Size    | 16 bytes |
| Instructions | 2        |

```
      00 01 02 03 04 05 06 07  08 09 0A 0B 0C 0D 0E 0F
      -- -- -- -- -- -- -- --  -- -- -- -- -- -- -- --
0140:                                      66 04 80 F8              f...
0150: FF FF 7F F8 FF FF 7F 61  77 77 30 00              .......aww0.    
```

#### Opcodes

```
  0: 0x014C [0x66] LOAD_EXT_SCHEDULER_MAIN: Load scheduler "aww0" with entities [EventEntity, EventEntity], work=8*
  1: 0x015B [0x00] END_REQSTACK()
```

### Event 65535.22

#### Metadata

| Field        | Value    |
|--------------|----------|
| Entrypoint   | 0x015C   |
| Data Size    | 14 bytes |
| Instructions | 2        |

```
      00 01 02 03 04 05 06 07  08 09 0A 0B 0C 0D 0E 0F
      -- -- -- -- -- -- -- --  -- -- -- -- -- -- -- --
0150:                                      53 F8 FF FF              S...
0160: 7F F8 FF FF 7F 61 77 77  30 00                    .....aww0.      
```

#### Opcodes

```
  0: 0x015C [0x53] WAIT_SCHEDULER_TASK: Wait for scheduler "aww0" with entities [EventEntity, EventEntity]
  1: 0x0169 [0x00] END_REQSTACK()
```

### Event 65535.23

#### Metadata

| Field        | Value    |
|--------------|----------|
| Entrypoint   | 0x016A   |
| Data Size    | 16 bytes |
| Instructions | 2        |

```
      00 01 02 03 04 05 06 07  08 09 0A 0B 0C 0D 0E 0F
      -- -- -- -- -- -- -- --  -- -- -- -- -- -- -- --
0160:                                66 02 80 F8 FF FF            f.....
0170: 7F F8 FF FF 7F 70 6F 69  30 00                    .....poi0.      
```

#### Opcodes

```
  0: 0x016A [0x66] LOAD_EXT_SCHEDULER_MAIN: Load scheduler "poi0" with entities [EventEntity, EventEntity], work=52*
  1: 0x0179 [0x00] END_REQSTACK()
```

### Event 65535.24

#### Metadata

| Field        | Value    |
|--------------|----------|
| Entrypoint   | 0x017A   |
| Data Size    | 14 bytes |
| Instructions | 2        |

```
      00 01 02 03 04 05 06 07  08 09 0A 0B 0C 0D 0E 0F
      -- -- -- -- -- -- -- --  -- -- -- -- -- -- -- --
0170:                                53 F8 FF FF 7F F8            S.....
0180: FF FF 7F 70 6F 69 30 00                           ...poi0.        
```

#### Opcodes

```
  0: 0x017A [0x53] WAIT_SCHEDULER_TASK: Wait for scheduler "poi0" with entities [EventEntity, EventEntity]
  1: 0x0187 [0x00] END_REQSTACK()
```

### Event 65535.25

#### Metadata

| Field        | Value   |
|--------------|---------|
| Entrypoint   | 0x0188  |
| Data Size    | 9 bytes |
| Instructions | 3       |

```
      00 01 02 03 04 05 06 07  08 09 0A 0B 0C 0D 0E 0F
      -- -- -- -- -- -- -- --  -- -- -- -- -- -- -- --
0180:                          5E 69 64 6C 30 1C 01 80          ^idl0...
0190: 00                                                .               
```

#### Opcodes

```
  0: 0x0188 [0x5E] EventEntity goes idle (kills current action) (animation: "idl0")
  1: 0x018D [0x1C] WAIT(30* ticks)
  2: 0x0190 [0x00] END_REQSTACK()
```

### Event 420

#### Metadata

| Field        | Value    |
|--------------|----------|
| Entrypoint   | 0x0191   |
| Data Size    | 36 bytes |
| Instructions | 13       |

```
      00 01 02 03 04 05 06 07  08 09 0A 0B 0C 0D 0E 0F
      -- -- -- -- -- -- -- --  -- -- -- -- -- -- -- --
0190:    1E F0 FF FF 7F 6F 70  29 08 B4 10 0F 01 01 1D   .....op).......
01A0: 05 80 23 1D 06 80 23 29  08 B4 10 0F 01 02 1A 11  ..#...#)........
01B0: 02 20 00 21 00                                    . .!.           
```

#### Opcodes

```
  0: 0x0191 [0x1E] EventEntity looks at LocalPlayer and starts talking
  1: 0x0196 [0x6F] WAIT_FRAME_DELAY: Yield until WaitTime reaches zero
  2: 0x0197 [0x70] WAIT_ENTITY_RENDER_FLAG: Wait while EventEntity->Render.Flags3 bit 2 is set (cancel turn if not)
  3: 0x0198 [0x29] REQ_SET_WAIT(priority=0x08, entity_id=Gottah Maporushanoh (ID: 17764532/0x010F10B4), tag_num=0x01)
  4: 0x019F [0x1D] PRINT_EVENT_MESSAGE(message_id=8517*)
    → "How's it goin', mate? Enjoyin' a spot of adventurrrin', I see..."
  5: 0x01A2 [0x23] WAIT_FOR_DIALOG_INTERACTION
  6: 0x01A3 [0x1D] PRINT_EVENT_MESSAGE(message_id=8518*)
    → "Life's long, and you can put off till tommora what you don't wanta do today. So don't you be wearin' yourself out with all that adventurrrin', you hear?"
  7: 0x01A6 [0x23] WAIT_FOR_DIALOG_INTERACTION
  8: 0x01A7 [0x29] REQ_SET_WAIT(priority=0x08, entity_id=Gottah Maporushanoh (ID: 17764532/0x010F10B4), tag_num=0x02)
  9: 0x01AE [0x1A] CALL_SUBROUTINE(address=0x0211)
 10: 0x01B1 [0x20] SET_CLI_EVENT_UC_FLAG: Unlock player control
 11: 0x01B3 [0x21] END_EVENT
 12: 0x01B4 [0x00] END_REQSTACK()
```

### Event 483

#### Metadata

| Field        | Value    |
|--------------|----------|
| Entrypoint   | 0x01B5   |
| Data Size    | 36 bytes |
| Instructions | 13       |

```
      00 01 02 03 04 05 06 07  08 09 0A 0B 0C 0D 0E 0F
      -- -- -- -- -- -- -- --  -- -- -- -- -- -- -- --
01B0:                1E F0 FF  FF 7F 6F 70 29 08 B4 10       .....op)...
01C0: 0F 01 07 1D 07 80 23 29  08 B4 10 0F 01 08 1D 08  ......#)........
01D0: 80 23 1A 11 02 20 00 21  00                       .#... .!.       
```

#### Opcodes

```
  0: 0x01B5 [0x1E] EventEntity looks at LocalPlayer and starts talking
  1: 0x01BA [0x6F] WAIT_FRAME_DELAY: Yield until WaitTime reaches zero
  2: 0x01BB [0x70] WAIT_ENTITY_RENDER_FLAG: Wait while EventEntity->Render.Flags3 bit 2 is set (cancel turn if not)
  3: 0x01BC [0x29] REQ_SET_WAIT(priority=0x08, entity_id=Gottah Maporushanoh (ID: 17764532/0x010F10B4), tag_num=0x07)
  4: 0x01C3 [0x1D] PRINT_EVENT_MESSAGE(message_id=8700*)
    → "Of course I've lost me passion for adventurrre! I've come all the way to Windurst lookin' for the old pirate king's treasurrre, only to have 'em tell me that all that talk o' pirate treasurrre is just a fairy tale."
  5: 0x01C6 [0x23] WAIT_FOR_DIALOG_INTERACTION
  6: 0x01C7 [0x29] REQ_SET_WAIT(priority=0x08, entity_id=Gottah Maporushanoh (ID: 17764532/0x010F10B4), tag_num=0x08)
  7: 0x01CE [0x1D] PRINT_EVENT_MESSAGE(message_id=8701*)
    → "Speakin' of which...I bet that legend o' the great monk Scorpio who fought a giant scorrrpion with his bare hands was also just made up to excite the kiddies, too."
  8: 0x01D1 [0x23] WAIT_FOR_DIALOG_INTERACTION
  9: 0x01D2 [0x1A] CALL_SUBROUTINE(address=0x0211)
 10: 0x01D5 [0x20] SET_CLI_EVENT_UC_FLAG: Unlock player control
 11: 0x01D7 [0x21] END_EVENT
 12: 0x01D8 [0x00] END_REQSTACK()
```

### Event 484

#### Metadata

| Field        | Value   |
|--------------|---------|
| Entrypoint   | 0x01D9  |
| Data Size    | 1 bytes |
| Instructions | 1       |

```
      00 01 02 03 04 05 06 07  08 09 0A 0B 0C 0D 0E 0F
      -- -- -- -- -- -- -- --  -- -- -- -- -- -- -- --
01D0:                             00                             .      
```

#### Opcodes

```
  0: 0x01D9 [0x00] END_REQSTACK()
```

### Event 65535.26

#### Metadata

| Field        | Value   |
|--------------|---------|
| Entrypoint   | 0x01DA  |
| Data Size    | 5 bytes |
| Instructions | 3       |

```
      00 01 02 03 04 05 06 07  08 09 0A 0B 0C 0D 0E 0F
      -- -- -- -- -- -- -- --  -- -- -- -- -- -- -- --
01D0:                                1D 09 80 23 00               ...#. 
```

#### Opcodes

```
  0: 0x01DA [0x1D] PRINT_EVENT_MESSAGE(message_id=8706*)
    → "Ho-hum..."
  1: 0x01DD [0x23] WAIT_FOR_DIALOG_INTERACTION
  2: 0x01DE [0x00] END_REQSTACK()
```

### Event 65535.27

#### Metadata

| Field        | Value   |
|--------------|---------|
| Entrypoint   | 0x01DF  |
| Data Size    | 5 bytes |
| Instructions | 3       |

```
      00 01 02 03 04 05 06 07  08 09 0A 0B 0C 0D 0E 0F
      -- -- -- -- -- -- -- --  -- -- -- -- -- -- -- --
01D0:                                               1D                 .
01E0: 0A 80 23 00                                       ..#.            
```

#### Opcodes

```
  0: 0x01DF [0x1D] PRINT_EVENT_MESSAGE(message_id=8711*)
    → "Ah!?"
  1: 0x01E2 [0x23] WAIT_FOR_DIALOG_INTERACTION
  2: 0x01E3 [0x00] END_REQSTACK()
```

### Event 65535.28

#### Metadata

| Field        | Value   |
|--------------|---------|
| Entrypoint   | 0x01E4  |
| Data Size    | 5 bytes |
| Instructions | 3       |

```
      00 01 02 03 04 05 06 07  08 09 0A 0B 0C 0D 0E 0F
      -- -- -- -- -- -- -- --  -- -- -- -- -- -- -- --
01E0:             1D 0B 80 23  00                           ...#.       
```

#### Opcodes

```
  0: 0x01E4 [0x1D] PRINT_EVENT_MESSAGE(message_id=8713*)
    → "His eye carved out by a briny blusterrr His heart pierced by a scorpion's sting Cloaked in his treasure's golden lusterrr Beneath the earth sleeps that pirate king."
  1: 0x01E7 [0x23] WAIT_FOR_DIALOG_INTERACTION
  2: 0x01E8 [0x00] END_REQSTACK()
```

### Event 65535.29

#### Metadata

| Field        | Value   |
|--------------|---------|
| Entrypoint   | 0x01E9  |
| Data Size    | 5 bytes |
| Instructions | 3       |

```
      00 01 02 03 04 05 06 07  08 09 0A 0B 0C 0D 0E 0F
      -- -- -- -- -- -- -- --  -- -- -- -- -- -- -- --
01E0:                             1D 0C 80 23 00                 ...#.  
```

#### Opcodes

```
  0: 0x01E9 [0x1D] PRINT_EVENT_MESSAGE(message_id=8715*)
    → "Hold your horrrses, Soni-Muni! I've hearrrd that maze is no walk in the park. We don't stand a chance at our current level, so we'd better get some trainin' in firrrst!"
  1: 0x01EC [0x23] WAIT_FOR_DIALOG_INTERACTION
  2: 0x01ED [0x00] END_REQSTACK()
```

### Event 486

#### Metadata

| Field        | Value    |
|--------------|----------|
| Entrypoint   | 0x01EE   |
| Data Size    | 32 bytes |
| Instructions | 11       |

```
      00 01 02 03 04 05 06 07  08 09 0A 0B 0C 0D 0E 0F
      -- -- -- -- -- -- -- --  -- -- -- -- -- -- -- --
01E0:                                            1E B3                ..
01F0: 10 0F 01 6F 70 29 08 B4  10 0F 01 13 1D 0D 80 23  ...op).........#
0200: 29 08 B4 10 0F 01 14 1A  11 02 20 00 21 00        )......... .!.  
```

#### Opcodes

```
  0: 0x01EE [0x1E] EventEntity looks at Soni-Muni (ID: 17764531/0x010F10B3) and starts talking
  1: 0x01F3 [0x6F] WAIT_FRAME_DELAY: Yield until WaitTime reaches zero
  2: 0x01F4 [0x70] WAIT_ENTITY_RENDER_FLAG: Wait while EventEntity->Render.Flags3 bit 2 is set (cancel turn if not)
  3: 0x01F5 [0x29] REQ_SET_WAIT(priority=0x08, entity_id=Gottah Maporushanoh (ID: 17764532/0x010F10B4), tag_num=0x13)
  4: 0x01FC [0x1D] PRINT_EVENT_MESSAGE(message_id=8717*)
    → "But then we wouldn't have heard the lowdown on the Maze of Shakhrami, would we? Rrright?"
  5: 0x01FF [0x23] WAIT_FOR_DIALOG_INTERACTION
  6: 0x0200 [0x29] REQ_SET_WAIT(priority=0x08, entity_id=Gottah Maporushanoh (ID: 17764532/0x010F10B4), tag_num=0x14)
  7: 0x0207 [0x1A] CALL_SUBROUTINE(address=0x0211)
  8: 0x020A [0x20] SET_CLI_EVENT_UC_FLAG: Unlock player control
  9: 0x020C [0x21] END_EVENT
 10: 0x020D [0x00] END_REQSTACK()
```

### Event 839

#### Metadata

| Field        | Value   |
|--------------|---------|
| Entrypoint   | 0x020E  |
| Data Size    | 1 bytes |
| Instructions | 1       |

```
      00 01 02 03 04 05 06 07  08 09 0A 0B 0C 0D 0E 0F
      -- -- -- -- -- -- -- --  -- -- -- -- -- -- -- --
0200:                                            00                   . 
```

#### Opcodes

```
  0: 0x020E [0x00] END_REQSTACK()
```

### Event 871

#### Metadata

| Field        | Value   |
|--------------|---------|
| Entrypoint   | 0x020F  |
| Data Size    | 1 bytes |
| Instructions | 1       |

```
      00 01 02 03 04 05 06 07  08 09 0A 0B 0C 0D 0E 0F
      -- -- -- -- -- -- -- --  -- -- -- -- -- -- -- --
0200:                                               00                 .
```

#### Opcodes

```
  0: 0x020F [0x00] END_REQSTACK()
```

### Event 872

#### Metadata

| Field        | Value     |
|--------------|-----------|
| Entrypoint   | 0x0210    |
| Data Size    | 156 bytes |
| Instructions | 1         |

```
      00 01 02 03 04 05 06 07  08 09 0A 0B 0C 0D 0E 0F
      -- -- -- -- -- -- -- --  -- -- -- -- -- -- -- --
0210: 00 03 01 10 0E 80 43 00  43 01 02 03 10 0F 80 00  ......C.C.......
0220: 2A 02 03 01 10 0F 80 01  AB 02 42 24 10 80 0E 80  *.........B$....
0230: 0F 80 25 02 00 10 0F 80  00 9B 02 1E F0 FF FF 7F  ..%.............
0240: 1C 01 80 03 01 10 11 80  43 00 43 01 02 03 10 0E  ........C.C.....
0250: 80 00 81 02 1D 12 80 23  66 00 80 F8 FF FF 7F F8  .......#f.......
0260: FF FF 7F 74 6C 6B 30 1D  13 80 23 66 00 80 F8 FF  ...tlk0...#f....
0270: FF 7F F8 FF FF 7F 74 6C  6B 32 1D 14 80 23 01 98  ......tlk2...#..
0280: 02 1D 15 80 23 66 00 80  F8 FF FF 7F F8 FF FF 7F  ....#f..........
0290: 74 6C 6B 30 1D 16 80 23  01 AB 02 02 00 10 0E 80  tlk0...#........
02A0: 00 AB 02 03 01 10 0F 80  01 AB 02 1B              ............    
```

#### Opcodes

```
  0: 0x0210 [0x00] END_REQSTACK()
```

#### Data or dead code:

```
# Dead code (unreachable instructions):
     0x0211 [0x03] Work_Zone[1] = 1*
     0x0216 [0x43] SEND_EVENT_UPDATE: Send pending tag to server (packet 0x005B)
     0x0218 [0x43] SEND_EVENT_UPDATE: Check pending flag (skip if not pending)
     0x021A [0x02] IF !(Work_Zone[3] == 0*) GOTO 0x022A
     0x0222 [0x03] Work_Zone[1] = 0*
     0x0227 [0x01] GOTO 0x02AB
     0x022A [0x42] SET_CLI_EVENT_CANCEL_DATA()
     0x022B [0x24] CREATE_DIALOG(message_id=11872*, default_option=1*, option_flags=0*)
    → "Ask if this person is the chick's owner? [Yes./No.]"
     0x0232 [0x25] WAIT_DIALOG_SELECT()
     0x0233 [0x02] IF !(Work_Zone[0] == 0*) GOTO 0x029B
     0x023B [0x1E] EventEntity looks at LocalPlayer and starts talking
     0x0240 [0x1C] WAIT(30* ticks)
     0x0243 [0x03] Work_Zone[1] = 2*
     0x0248 [0x43] SEND_EVENT_UPDATE: Send pending tag to server (packet 0x005B)
     0x024A [0x43] SEND_EVENT_UPDATE: Check pending flag (skip if not pending)
     0x024C [0x02] IF !(Work_Zone[3] == 1*) GOTO 0x0281
     0x0254 [0x1D] PRINT_EVENT_MESSAGE(message_id=11906*)
    → "You've got me chocobo!?"
     0x0257 [0x23] WAIT_FOR_DIALOG_INTERACTION
     0x0258 [0x66] LOAD_EXT_SCHEDULER_MAIN: Load scheduler "tlk0" with entities [EventEntity, EventEntity], work=50*
     0x0267 [0x1D] PRINT_EVENT_MESSAGE(message_id=11907*)
    → "Me feathered mate is livin' in safety, then? I've neverrr heard such happy tidin's! I'll be sure to watch the little fella close from now on!"
     0x026A [0x23] WAIT_FOR_DIALOG_INTERACTION
     0x026B [0x66] LOAD_EXT_SCHEDULER_MAIN: Load scheduler "tlk2" with entities [EventEntity, EventEntity], work=50*
     0x027A [0x1D] PRINT_EVENT_MESSAGE(message_id=11908*)
    → "Let me show me grrratitude by tellin' you a story I often tell me little mate..."
     0x027D [0x23] WAIT_FOR_DIALOG_INTERACTION
     0x027E [0x01] GOTO 0x0298
     0x0281 [0x1D] PRINT_EVENT_MESSAGE(message_id=11925*)
    → "You say you've got me chocobo?"
     0x0284 [0x23] WAIT_FOR_DIALOG_INTERACTION
     0x0285 [0x66] LOAD_EXT_SCHEDULER_MAIN: Load scheduler "tlk0" with entities [EventEntity, EventEntity], work=50*
     0x0294 [0x1D] PRINT_EVENT_MESSAGE(message_id=11926*)
    → "I'm afraid you've got the wrong person. Adventurers are bound to make mistakes from time to time, so don't let it get you down, mate."
     0x0297 [0x23] WAIT_FOR_DIALOG_INTERACTION
     0x0298 [0x01] GOTO 0x02AB
     0x029B [0x02] IF !(Work_Zone[0] == 1*) GOTO 0x02AB
     0x02A3 [0x03] Work_Zone[1] = 0*
     0x02A8 [0x01] GOTO 0x02AB
     0x02AB [0x1B] RETURN
```
