# 17764374 - Kopuro-Popuro

## Common Data

| Field            | Value                    |
|------------------|--------------------------|
| Zone             | Windurst Woods (ID: 241) |
| Block Size       | 4496 bytes               |
| Total Events     | 87                       |
| References Count | 131                      |

## List of Events

| Event ID                   | Entrypoint   |   Size |   Instructions |
|----------------------------|--------------|--------|----------------|
| [65535](#event-65535)      | 0x0000       |      1 |              1 |
| [65535.1](#event-655351)   | 0x0001       |     16 |              2 |
| [65535.2](#event-655352)   | 0x0011       |     22 |              4 |
| [65535.3](#event-655353)   | 0x0027       |     16 |              2 |
| [65535.4](#event-655354)   | 0x0037       |     14 |              2 |
| [65535.5](#event-655355)   | 0x0045       |     16 |              2 |
| [65535.6](#event-655356)   | 0x0055       |     14 |              2 |
| [65535.7](#event-655357)   | 0x0063       |     16 |              2 |
| [65535.8](#event-655358)   | 0x0073       |     14 |              2 |
| [65535.9](#event-655359)   | 0x0081       |     16 |              2 |
| [65535.10](#event-6553510) | 0x0091       |     14 |              2 |
| [65535.11](#event-6553511) | 0x009F       |     16 |              2 |
| [65535.12](#event-6553512) | 0x00AF       |     14 |              2 |
| [65535.13](#event-6553513) | 0x00BD       |     16 |              2 |
| [65535.14](#event-6553514) | 0x00CD       |     14 |              2 |
| [65535.15](#event-6553515) | 0x00DB       |     16 |              2 |
| [65535.16](#event-6553516) | 0x00EB       |     14 |              2 |
| [65535.17](#event-6553517) | 0x00F9       |     16 |              2 |
| [65535.18](#event-6553518) | 0x0109       |     22 |              4 |
| [65535.19](#event-6553519) | 0x011F       |     16 |              2 |
| [65535.20](#event-6553520) | 0x012F       |     22 |              4 |
| [65535.21](#event-6553521) | 0x0145       |     16 |              2 |
| [65535.22](#event-6553522) | 0x0155       |     22 |              4 |
| [65535.23](#event-6553523) | 0x016B       |     16 |              2 |
| [65535.24](#event-6553524) | 0x017B       |     14 |              2 |
| [65535.25](#event-6553525) | 0x0189       |      9 |              3 |
| [276](#event-276)          | 0x0192       |     32 |             11 |
| [140](#event-140)          | 0x01B2       |     33 |             14 |
| [147](#event-147)          | 0x01D3       |     36 |             13 |
| [285](#event-285)          | 0x01F7       |     93 |             21 |
| [65535.26](#event-6553526) | 0x0254       |     19 |              5 |
| [286](#event-286)          | 0x0267       |    111 |             22 |
| [65535.27](#event-6553527) | 0x02D6       |      5 |              3 |
| [65535.28](#event-6553528) | 0x02DB       |     19 |              5 |
| [65535.29](#event-6553529) | 0x02EE       |     19 |              5 |
| [65535.30](#event-6553530) | 0x0301       |      5 |              3 |
| [65535.31](#event-6553531) | 0x0306       |     19 |              5 |
| [65535.32](#event-6553532) | 0x0319       |      5 |              3 |
| [65535.33](#event-6553533) | 0x031E       |     59 |             15 |
| [288](#event-288)          | 0x0359       |     40 |             15 |
| [292](#event-292)          | 0x0381       |     56 |             16 |
| [293](#event-293)          | 0x03B9       |     36 |             13 |
| [294](#event-294)          | 0x03DD       |     89 |             20 |
| [65535.34](#event-6553534) | 0x0436       |     37 |              9 |
| [65535.35](#event-6553535) | 0x045B       |     19 |              5 |
| [65535.36](#event-6553536) | 0x046E       |     23 |              7 |
| [65535.37](#event-6553537) | 0x0485       |     19 |              5 |
| [65535.38](#event-6553538) | 0x0498       |     19 |              5 |
| [301](#event-301)          | 0x04AB       |     36 |             13 |
| [306](#event-306)          | 0x04CF       |     32 |             11 |
| [308](#event-308)          | 0x04EF       |    635 |             82 |
| [65535.39](#event-6553539) | 0x076A       |     10 |              2 |
| [65535.40](#event-6553540) | 0x0774       |     15 |              5 |
| [65535.41](#event-6553541) | 0x0783       |     29 |              7 |
| [65535.42](#event-6553542) | 0x07A0       |     19 |              5 |
| [65535.43](#event-6553543) | 0x07B3       |      5 |              3 |
| [65535.44](#event-6553544) | 0x07B8       |      9 |              5 |
| [65535.45](#event-6553545) | 0x07C1       |     19 |              5 |
| [65535.46](#event-6553546) | 0x07D4       |     19 |              5 |
| [65535.47](#event-6553547) | 0x07E7       |     23 |              7 |
| [309](#event-309)          | 0x07FE       |     36 |             13 |
| [313](#event-313)          | 0x0822       |     33 |             12 |
| [314](#event-314)          | 0x0843       |    414 |             57 |
| [316](#event-316)          | 0x09E1       |     36 |             13 |
| [392](#event-392)          | 0x0A05       |      3 |              2 |
| [396](#event-396)          | 0x0A08       |     36 |             13 |
| [401](#event-401)          | 0x0A2C       |     36 |             13 |
| [319](#event-319)          | 0x0A50       |     12 |              3 |
| [65535.48](#event-6553548) | 0x0A5C       |     10 |              2 |
| [65535.49](#event-6553549) | 0x0A66       |     15 |              5 |
| [65535.50](#event-6553550) | 0x0A75       |     15 |              5 |
| [65535.51](#event-6553551) | 0x0A84       |      5 |              3 |
| [65535.52](#event-6553552) | 0x0A89       |     19 |              5 |
| [65535.53](#event-6553553) | 0x0A9C       |     19 |              5 |
| [322](#event-322)          | 0x0AAF       |     40 |             15 |
| [329](#event-329)          | 0x0AD7       |     40 |             15 |
| [603](#event-603)          | 0x0AFF       |     36 |             13 |
| [607](#event-607)          | 0x0B23       |     36 |             13 |
| [137](#event-137)          | 0x0B47       |      3 |              2 |
| [619](#event-619)          | 0x0B4A       |      3 |              2 |
| [647](#event-647)          | 0x0B4D       |     50 |             15 |
| [648](#event-648)          | 0x0B7F       |     50 |             15 |
| [655](#event-655)          | 0x0BB1       |    185 |             46 |
| [656](#event-656)          | 0x0C6A       |     36 |             13 |
| [657](#event-657)          | 0x0C8E       |    114 |             27 |
| [658](#event-658)          | 0x0D00       |     36 |             13 |
| [659](#event-659)          | 0x0D24       |    241 |             58 |

## DAT References (imed_data)

|   Index | Hex Value   |   Dec Value |
|---------|-------------|-------------|
|       0 | 0x0028      |          40 |
|       1 | 0x001E      |          30 |
|       2 | 0x0029      |          41 |
|       3 | 0x1F75      |        8053 |
|       4 | 0x1E4D      |        7757 |
|       5 | 0x1E4E      |        7758 |
|       6 | 0x1E4F      |        7759 |
|       7 | 0x1E61      |        7777 |
|       8 | 0x1E62      |        7778 |
|       9 | 0x1F85      |        8069 |
|      10 | 0x0000      |           0 |
|      11 | 0x0001      |           1 |
|      12 | 0x0002      |           2 |
|      13 | 0x1F84      |        8068 |
|      14 | 0x1F8A      |        8074 |
|      15 | 0x0003      |           3 |
|      16 | 0x0004      |           4 |
|      17 | 0x1F86      |        8070 |
|      18 | 0x1F87      |        8071 |
|      19 | 0x1F88      |        8072 |
|      20 | 0x1F89      |        8073 |
|      21 | 0x1F8B      |        8075 |
|      22 | 0x1F8C      |        8076 |
|      23 | 0x1F8D      |        8077 |
|      24 | 0x1F8E      |        8078 |
|      25 | 0x1F8F      |        8079 |
|      26 | 0x1F90      |        8080 |
|      27 | 0x1F91      |        8081 |
|      28 | 0x1F92      |        8082 |
|      29 | 0x1F93      |        8083 |
|      30 | 0x1F9A      |        8090 |
|      31 | 0x1F9B      |        8091 |
|      32 | 0x00C9      |         201 |
|      33 | 0x1998      |        6552 |
|      34 | 0x1F9C      |        8092 |
|      35 | 0x1F9D      |        8093 |
|      36 | 0x1FA3      |        8099 |
|      37 | 0x1F9E      |        8094 |
|      38 | 0x1F9F      |        8095 |
|      39 | 0x1FA0      |        8096 |
|      40 | 0x1FA1      |        8097 |
|      41 | 0x1FA2      |        8098 |
|      42 | 0x1FA4      |        8100 |
|      43 | 0x1FA5      |        8101 |
|      44 | 0x1FBD      |        8125 |
|      45 | 0x1FBE      |        8126 |
|      46 | 0x1FC9      |        8137 |
|      47 | 0x00C8      |         200 |
|      48 | 0x0078      |         120 |
|      49 | 0x01A6      |         422 |
|      50 | 0x008D      |         141 |
|      51 | 0x00A3      |         163 |
|      52 | 0x007F      |         127 |
|      53 | 0x003C      |          60 |
|      54 | 0x1FD3      |        8147 |
|      55 | 0x1FD4      |        8148 |
|      56 | 0x1FD5      |        8149 |
|      57 | 0x0097      |         151 |
|      58 | 0x0064      |         100 |
|      59 | 0xFFFFD2C3  |  4294955715 |
|      60 | 0xFFFF9B0B  |  4294941451 |
|      61 | 0xFFFFF542  |  4294964546 |
|      62 | 0x03B4      |         948 |
|      63 | 0x000D      |          13 |
|      64 | 0xFFFFD51F  |  4294956319 |
|      65 | 0xFFFFAE96  |  4294946454 |
|      66 | 0x1FD0      |        8144 |
|      67 | 0x1FD6      |        8150 |
|      68 | 0x1FD7      |        8151 |
|      69 | 0x1FDA      |        8154 |
|      70 | 0x1FDB      |        8155 |
|      71 | 0x1FDD      |        8157 |
|      72 | 0x1FDE      |        8158 |
|      73 | 0x1FE5      |        8165 |
|      74 | 0x1FE6      |        8166 |
|      75 | 0x00AA      |         170 |
|      76 | 0x0190      |         400 |
|      77 | 0x1FED      |        8173 |
|      78 | 0x1FEE      |        8174 |
|      79 | 0x2116      |        8470 |
|      80 | 0x2117      |        8471 |
|      81 | 0x2121      |        8481 |
|      82 | 0x2122      |        8482 |
|      83 | 0xFFFFB14A  |  4294947146 |
|      84 | 0x2AC1      |       10945 |
|      85 | 0x0F60      |        3936 |
|      86 | 0xFFFFEE91  |  4294962833 |
|      87 | 0xFFFF9BEE  |  4294941678 |
|      88 | 0xFFFFF15B  |  4294963547 |
|      89 | 0x0DDA      |        3546 |
|      90 | 0xFFFFC64F  |  4294952527 |
|      91 | 0x35DB      |       13787 |
|      92 | 0x1FF2      |        8178 |
|      93 | 0x1FF3      |        8179 |
|      94 | 0x1FF5      |        8181 |
|      95 | 0x2004      |        8196 |
|      96 | 0x2005      |        8197 |
|      97 | 0x2006      |        8198 |
|      98 | 0x2023      |        8227 |
|      99 | 0x2024      |        8228 |
|     100 | 0x2025      |        8229 |
|     101 | 0x2534      |        9524 |
|     102 | 0x2535      |        9525 |
|     103 | 0x2551      |        9553 |
|     104 | 0x2552      |        9554 |
|     105 | 0x25CB      |        9675 |
|     106 | 0x25CC      |        9676 |
|     107 | 0x25F0      |        9712 |
|     108 | 0x25F1      |        9713 |
|     109 | 0x25FB      |        9723 |
|     110 | 0x25FC      |        9724 |
|     111 | 0x25FD      |        9725 |
|     112 | 0x25FE      |        9726 |
|     113 | 0x25FF      |        9727 |
|     114 | 0x2600      |        9728 |
|     115 | 0x2601      |        9729 |
|     116 | 0x2602      |        9730 |
|     117 | 0x2606      |        9734 |
|     118 | 0x2603      |        9731 |
|     119 | 0x2604      |        9732 |
|     120 | 0x2605      |        9733 |
|     121 | 0x2607      |        9735 |
|     122 | 0x2608      |        9736 |
|     123 | 0x2609      |        9737 |
|     124 | 0x260A      |        9738 |
|     125 | 0x2E63      |       11875 |
|     126 | 0x2E7C      |       11900 |
|     127 | 0x2E7D      |       11901 |
|     128 | 0x2E7E      |       11902 |
|     129 | 0x2E92      |       11922 |
|     130 | 0x2E93      |       11923 |

## String References

- **6552**: Obtained $0 gil.
- **7757**: Mana Orbs are the hearts of Cardians, you know? If a Cardian were to lose its Mana Orb, it would return to being just an inanimate straw dolly-wolly.
- **7758**: And, if the magical energy in the Mana Orb ever runs out, even if you were to re-energize it with the gizmos in the magic towers, they still forget everything that they remembered up to then.
- **7759**: Either way, this is what's considered as "death" for Cardians.
- **7777**: The previous minister was a terrible man. When the war ended, he started throwing away our Cardians left, right and center.
- **7778**: Of course the Cardians are going to run away. And of course they are going to come back and kidnap the previous minister. He should have seen it coming!
- **8053**: This is the Manustery--the ministry that's in charge of making and maintaining Cardians. Most people just refer to us as the "Cardian workshop."
- **8068**: Why, hello there, friend! Step right up here and tell me this--are you satisfied with our current Cardians?
- **8069**: Satisfied with Cardians? [No, not quite.../Yes, most sufficient.]
- **8070**: Gee... You don't have to be such a wet blanket...
- **8071**: Well, have I got just the right thing for you! A brand new make of Cardian, I call...
- **8072**: Ta\`da\`!!! "The All-New C-2000"!
- **8073**: So how about it, then!? Do you have the inclination to go down in the history of our nation by helping in the creation of this amazing new innovation in automatons?
- **8074**: Want to go down in history? [Yes. Sign me up now!/No, I'm turning you down.]
- **8075**: Gee... What do you have to be such a wet blanket for...?
- **8076**: Oh, good! Stick with me, kid--with my brains and your brawn, we're bound to go places together!
- **8077**: You see...I just happened to be in the process of teaching "The All-New C-2000" the scents of different "enemies." "The All-New C-2000" has a better nose than us people do, you knows?
- **8078**: For starters, I was hoping you could bring me some of the items that the monsters in Sarutabaruta drop.
- **8079**: Let me see... $1 and $2...
- **8080**: Oh, and $3 would be nice to begin with. So good luck and goodbye! See you when you've obtained one of each of those items...
- **8081**: Have you obtained the items I need to educate the "All-New C-2000" yet?
- **8082**: Don't forget, now... I need $1, $2, and $3.
- **8083**: So hurry, hur\`ry! You don't want someone else to beat you to it, and have their name go down in history instead of yours, do you?
- **8090**: Mighty obliged to you there, friend. Your name will go down in Windurstian history for sure now!
- **8091**: So don't complain if your reward isn't as good as expected, kid.
- **8092**: This is how we teach the Cardians we create to remember all kinds of things.
- **8093**: I guess it's kind of like being their mother or father.
- **8094**: Hey, you've come back here again?
- **8095**: Oh well, seeing as you're here, you might as well make yourself useful. You see, I've just made another new type of Cardian. This time, I'm calling it...
- **8096**: Ta\`da\`!!! "The All-New C-2000"!
- **8097**: Huh...? Whaddayamean, "Yeah, yeah, I've heard it before?"
- **8098**: Next you'll be telling me you know what items I want you to bring, rightaru? Anyway, I guess that means you'll be helping me out, then?
- **8099**: Agree to help him out? [Yeah./Naw.]
- **8100**: Gee...you don't have to be such a tease!
- **8101**: Great! Head on out to Sarutabaruta and procure me those items, then!
- **8125**: Oh, you mean that Cardian...? So he's grown up to become number five already, huh?
- **8126**: <Sigh>... When I hear that, it brings home to me just how short the lifespans of our Cardians are becoming...
- **8137**: Say...I wonder whether that Cardian properly forgot the "hats suck" line I taught him?
- **8144**: I know, Minister Apururu! It looks like it's time to implement "Legendary Plan B"!
- **8147**: Long, long ago, our old Manustery was facing a financial crisis much like we are today...
- **8148**: This was in an age long before airships connected the cities of Vana'diel with the convenient network we have now.
- **8149**: Back then, travelers on their way to Jeuno were menaced by fearsome nocturnal-wurnal monsters.
- **8150**: To brighten up the future for those travelers, our predecessors, in their great wisdom, devised a charm for trekkers they called the "Gadabout's Gris-gris"!
- **8151**: The effect of these charms was astounding, and the reduction in the number of dangerous incidents that befell Jeuno-bound travelers was significant.
- **8154**: Well, you need all kinds of items that nocturnal monsters drop when defeated.
- **8155**: In order to make a charm, I think we just need: $1, $2, and $3.
- **8157**: You'll help us out as well, won'taru you? Please collect one of each of the items that the nocturnal monsters drop.
- **8158**: Remember, we need $1, $2, and $3 to make one charm. Good luck, kiddo!
- **8165**: Oh, $1, $2, and $3... Looks likey we have everything!
- **8166**: Here's your cut... Good work, kid!
- **8173**: I don't get it... What went wrong with Legendary Plan B?
- **8174**: I know...I bet someone deliberately set out to interfere with my plan! Yeah, that's it. Someone must have employed adventurers to go out and hunt nocturnal monsters.
- **8178**: Minister Apururu!
- **8179**: It's Queen of Hearts, Miss! She's come back all wounded and hurt!
- **8181**: You should stay there, kid. I think the minister is giving Queen of Hearts its last rites.
- **8196**: The Cardian who died just then was one that Minister Apururu raised personally...
- **8197**: That Cardian was able to make it back here with her remaining strength, but I fear Queen of Diamonds was not so lucky...
- **8198**: Even if we only find one of her parts, at least we'll be able to give her a proper burial...
- **8227**: Did Boizo-Naizo really just dish out $2 gil just then?
- **8228**: I don't know where such an amount came from, as our Manustery certainly doesn't have that to spare... Ah!
- **8229**: That's rightaru...he was just saying that he finally saved up enough gil to buy the latest hat creation from the hatter! You don'taru suppose he used that money to pay you, do you?
- **8470**: There are many taboos when one breathes life into these automaton dolls, you know, kid?
- **8471**: One very important rule is to never cast a second batch of magic on a doll that already has magic placed on it. If you're not careful, either you or the doll could die! Shivers!
- **8481**: There are many taboos when one breathes life into these automaton dolls, you know, kid?
- **8482**: One very important rule is to never cast a second batch of magic on a doll that already has magic placed on it. If you're not careful, either you or the doll could die! Shivers!
- **9524**: Minister Ajido-Marujido succeeded in reactivating the towers, didn'taru he?
- **9525**: Isn't that a good thing? Why'd they have to go and throw him into the Dark Dungeon?
- **9553**: You're worried, rightaru? I'm worried about Minister Ajido-Marujido, too.
- **9554**: I'm so worried, the Cardians I've made have learned how to sigh from me. What a dilemma. <sigh>
- **9675**: Minsiter Apururu is doing her bestaru to hide something from us...
- **9676**: But she's so bad at lying-wying it makes it hard for us to pretend that we don't notice.
- **9712**: The ring of the Manustery has finally-winally made its way back to the hand of Minister Apururu. Now I can make new and improved Cardian-wardians!
- **9713**: Hmm, I think I'll inventaru one that has a spinning staff attack. That should make a nice breezey-weeze for those hot summer days...
- **9723**: Ta\`da\`!!! "The All-New C-3000"!
- **9724**: This new Cardian is truly amazing, I tell you. Not only can it defeat its enemies before you can say "Now, where's that darn Cardian got to?" but it also brings back the booty from the battleground!
- **9725**: All the loot my new boy'll bring in should stretch the Manustery's coffers to bursty-wursting! Not to mention the hefty raise that'll be added to my salary. <wink-wink>
- **9726**: But first I have to teach him to bring back the good stuff and leave the junk... And that's where you come in, my fine adventuring friend! Do you think you could get me $1 and $2?
- **9727**: Let's get cracking! Time is gil, you know!
- **9728**: Have you broughtaru the items for the All-New C-3000 to look at?
- **9729**: I need you to bring me $1 and $2. Whatcha waiting for?
- **9730**: Excellentaru work! Here's something for your troubles!
- **9731**: I'm going to make oodles and scoodles of All-New C-3000s, so bring me all the $1 and $2 that you can find.
- **9732**: Hmm, paying you that reward has put me in the red, but it's all part of a larger investmentaru. I'm gonna be rich!
- **9733**: I'm going to make oodles and scoodles of All-New C-3000s, so bring me all the $1 and $2 that you can find.
- **9734**: If you find any more of those $1 and $2, hand 'em over to me!
- **9735**: I don't understand it. The All-New C-3000s haven't been bringing in any $1 or $2...
- **9736**: Where did I go wrong? All my calculations and adjustments were spot on. Even Minister Apururu said the craftsmanship was perfectaru.
- **9737**: I can'taru let a little hiccup like this stand in the way of my impending fortune! I'll just keep giving the All-New C-3000s more $1 and $2 until they get it right!
- **9738**: Keep on bringing me those items! This is going to work, I can feel it!
- **11875**: Ask if this person is the chick's owner? [Yes./No.]
- **11900**: What? You've got my chocobo!?
- **11901**: You know, looking at these lifeless Cardians all the time makes me yearn for flesh-and-blood companionship all the more.
- **11902**: You're raising a chocobo too, right? Let me teach you a story to show my gratitude...
- **11922**: You've got my chocobo?
- **11923**: Whenever I take my chocobo on a walk, I also bring along a Cardian to make sure nobody gets lost! I'm afraid you've got the wrong guy.

## Events

### Event 65535

#### Metadata

| Field        | Value   |
|--------------|---------|
| Entrypoint   | 0x0000  |
| Data Size    | 1 bytes |
| Instructions | 1       |

```
      00 01 02 03 04 05 06 07  08 09 0A 0B 0C 0D 0E 0F
      -- -- -- -- -- -- -- --  -- -- -- -- -- -- -- --
0000: 00                                                .               
```

#### Opcodes

```
  0: 0x0000 [0x00] END_REQSTACK()
```

### Event 65535.1

#### Metadata

| Field        | Value    |
|--------------|----------|
| Entrypoint   | 0x0001   |
| Data Size    | 16 bytes |
| Instructions | 2        |

```
      00 01 02 03 04 05 06 07  08 09 0A 0B 0C 0D 0E 0F
      -- -- -- -- -- -- -- --  -- -- -- -- -- -- -- --
0000:    66 00 80 F8 FF FF 7F  F8 FF FF 7F 74 6C 6B 30   f..........tlk0
0010: 00                                                .               
```

#### Opcodes

```
  0: 0x0001 [0x66] LOAD_EXT_SCHEDULER_MAIN: Load scheduler "tlk0" with entities [EventEntity, EventEntity], work=40*
  1: 0x0010 [0x00] END_REQSTACK()
```

### Event 65535.2

#### Metadata

| Field        | Value    |
|--------------|----------|
| Entrypoint   | 0x0011   |
| Data Size    | 22 bytes |
| Instructions | 4        |

```
      00 01 02 03 04 05 06 07  08 09 0A 0B 0C 0D 0E 0F
      -- -- -- -- -- -- -- --  -- -- -- -- -- -- -- --
0010:    53 F8 FF FF 7F F8 FF  FF 7F 74 6C 6B 30 5E 69   S........tlk0^i
0020: 64 6C 30 1C 01 80 00                              dl0....         
```

#### Opcodes

```
  0: 0x0011 [0x53] WAIT_SCHEDULER_TASK: Wait for scheduler "tlk0" with entities [EventEntity, EventEntity]
  1: 0x001E [0x5E] EventEntity goes idle (kills current action) (animation: "idl0")
  2: 0x0023 [0x1C] WAIT(30* ticks)
  3: 0x0026 [0x00] END_REQSTACK()
```

### Event 65535.3

#### Metadata

| Field        | Value    |
|--------------|----------|
| Entrypoint   | 0x0027   |
| Data Size    | 16 bytes |
| Instructions | 2        |

```
      00 01 02 03 04 05 06 07  08 09 0A 0B 0C 0D 0E 0F
      -- -- -- -- -- -- -- --  -- -- -- -- -- -- -- --
0020:                      66  00 80 F8 FF FF 7F F8 FF         f........
0030: FF 7F 74 68 6B 31 00                              ..thk1.         
```

#### Opcodes

```
  0: 0x0027 [0x66] LOAD_EXT_SCHEDULER_MAIN: Load scheduler "thk1" with entities [EventEntity, EventEntity], work=40*
  1: 0x0036 [0x00] END_REQSTACK()
```

### Event 65535.4

#### Metadata

| Field        | Value    |
|--------------|----------|
| Entrypoint   | 0x0037   |
| Data Size    | 14 bytes |
| Instructions | 2        |

```
      00 01 02 03 04 05 06 07  08 09 0A 0B 0C 0D 0E 0F
      -- -- -- -- -- -- -- --  -- -- -- -- -- -- -- --
0030:                      53  F8 FF FF 7F F8 FF FF 7F         S........
0040: 74 68 6B 31 00                                    thk1.           
```

#### Opcodes

```
  0: 0x0037 [0x53] WAIT_SCHEDULER_TASK: Wait for scheduler "thk1" with entities [EventEntity, EventEntity]
  1: 0x0044 [0x00] END_REQSTACK()
```

### Event 65535.5

#### Metadata

| Field        | Value    |
|--------------|----------|
| Entrypoint   | 0x0045   |
| Data Size    | 16 bytes |
| Instructions | 2        |

```
      00 01 02 03 04 05 06 07  08 09 0A 0B 0C 0D 0E 0F
      -- -- -- -- -- -- -- --  -- -- -- -- -- -- -- --
0040:                66 00 80  F8 FF FF 7F F8 FF FF 7F       f..........
0050: 74 68 6B 32 00                                    thk2.           
```

#### Opcodes

```
  0: 0x0045 [0x66] LOAD_EXT_SCHEDULER_MAIN: Load scheduler "thk2" with entities [EventEntity, EventEntity], work=40*
  1: 0x0054 [0x00] END_REQSTACK()
```

### Event 65535.6

#### Metadata

| Field        | Value    |
|--------------|----------|
| Entrypoint   | 0x0055   |
| Data Size    | 14 bytes |
| Instructions | 2        |

```
      00 01 02 03 04 05 06 07  08 09 0A 0B 0C 0D 0E 0F
      -- -- -- -- -- -- -- --  -- -- -- -- -- -- -- --
0050:                53 F8 FF  FF 7F F8 FF FF 7F 74 68       S........th
0060: 6B 32 00                                          k2.             
```

#### Opcodes

```
  0: 0x0055 [0x53] WAIT_SCHEDULER_TASK: Wait for scheduler "thk2" with entities [EventEntity, EventEntity]
  1: 0x0062 [0x00] END_REQSTACK()
```

### Event 65535.7

#### Metadata

| Field        | Value    |
|--------------|----------|
| Entrypoint   | 0x0063   |
| Data Size    | 16 bytes |
| Instructions | 2        |

```
      00 01 02 03 04 05 06 07  08 09 0A 0B 0C 0D 0E 0F
      -- -- -- -- -- -- -- --  -- -- -- -- -- -- -- --
0060:          66 00 80 F8 FF  FF 7F F8 FF FF 7F 77 61     f..........wa
0070: 69 30 00                                          i0.             
```

#### Opcodes

```
  0: 0x0063 [0x66] LOAD_EXT_SCHEDULER_MAIN: Load scheduler "wai0" with entities [EventEntity, EventEntity], work=40*
  1: 0x0072 [0x00] END_REQSTACK()
```

### Event 65535.8

#### Metadata

| Field        | Value    |
|--------------|----------|
| Entrypoint   | 0x0073   |
| Data Size    | 14 bytes |
| Instructions | 2        |

```
      00 01 02 03 04 05 06 07  08 09 0A 0B 0C 0D 0E 0F
      -- -- -- -- -- -- -- --  -- -- -- -- -- -- -- --
0070:          53 F8 FF FF 7F  F8 FF FF 7F 77 61 69 30     S........wai0
0080: 00                                                .               
```

#### Opcodes

```
  0: 0x0073 [0x53] WAIT_SCHEDULER_TASK: Wait for scheduler "wai0" with entities [EventEntity, EventEntity]
  1: 0x0080 [0x00] END_REQSTACK()
```

### Event 65535.9

#### Metadata

| Field        | Value    |
|--------------|----------|
| Entrypoint   | 0x0081   |
| Data Size    | 16 bytes |
| Instructions | 2        |

```
      00 01 02 03 04 05 06 07  08 09 0A 0B 0C 0D 0E 0F
      -- -- -- -- -- -- -- --  -- -- -- -- -- -- -- --
0080:    66 02 80 F8 FF FF 7F  F8 FF FF 7F 73 68 6B 30   f..........shk0
0090: 00                                                .               
```

#### Opcodes

```
  0: 0x0081 [0x66] LOAD_EXT_SCHEDULER_MAIN: Load scheduler "shk0" with entities [EventEntity, EventEntity], work=41*
  1: 0x0090 [0x00] END_REQSTACK()
```

### Event 65535.10

#### Metadata

| Field        | Value    |
|--------------|----------|
| Entrypoint   | 0x0091   |
| Data Size    | 14 bytes |
| Instructions | 2        |

```
      00 01 02 03 04 05 06 07  08 09 0A 0B 0C 0D 0E 0F
      -- -- -- -- -- -- -- --  -- -- -- -- -- -- -- --
0090:    53 F8 FF FF 7F F8 FF  FF 7F 73 68 6B 30 00      S........shk0. 
```

#### Opcodes

```
  0: 0x0091 [0x53] WAIT_SCHEDULER_TASK: Wait for scheduler "shk0" with entities [EventEntity, EventEntity]
  1: 0x009E [0x00] END_REQSTACK()
```

### Event 65535.11

#### Metadata

| Field        | Value    |
|--------------|----------|
| Entrypoint   | 0x009F   |
| Data Size    | 16 bytes |
| Instructions | 2        |

```
      00 01 02 03 04 05 06 07  08 09 0A 0B 0C 0D 0E 0F
      -- -- -- -- -- -- -- --  -- -- -- -- -- -- -- --
0090:                                               66                 f
00A0: 00 80 F8 FF FF 7F F8 FF  FF 7F 77 61 76 30 00     ..........wav0. 
```

#### Opcodes

```
  0: 0x009F [0x66] LOAD_EXT_SCHEDULER_MAIN: Load scheduler "wav0" with entities [EventEntity, EventEntity], work=40*
  1: 0x00AE [0x00] END_REQSTACK()
```

### Event 65535.12

#### Metadata

| Field        | Value    |
|--------------|----------|
| Entrypoint   | 0x00AF   |
| Data Size    | 14 bytes |
| Instructions | 2        |

```
      00 01 02 03 04 05 06 07  08 09 0A 0B 0C 0D 0E 0F
      -- -- -- -- -- -- -- --  -- -- -- -- -- -- -- --
00A0:                                               53                 S
00B0: F8 FF FF 7F F8 FF FF 7F  77 61 76 30 00           ........wav0.   
```

#### Opcodes

```
  0: 0x00AF [0x53] WAIT_SCHEDULER_TASK: Wait for scheduler "wav0" with entities [EventEntity, EventEntity]
  1: 0x00BC [0x00] END_REQSTACK()
```

### Event 65535.13

#### Metadata

| Field        | Value    |
|--------------|----------|
| Entrypoint   | 0x00BD   |
| Data Size    | 16 bytes |
| Instructions | 2        |

```
      00 01 02 03 04 05 06 07  08 09 0A 0B 0C 0D 0E 0F
      -- -- -- -- -- -- -- --  -- -- -- -- -- -- -- --
00B0:                                         66 00 80               f..
00C0: F8 FF FF 7F F8 FF FF 7F  73 79 75 30 00           ........syu0.   
```

#### Opcodes

```
  0: 0x00BD [0x66] LOAD_EXT_SCHEDULER_MAIN: Load scheduler "syu0" with entities [EventEntity, EventEntity], work=40*
  1: 0x00CC [0x00] END_REQSTACK()
```

### Event 65535.14

#### Metadata

| Field        | Value    |
|--------------|----------|
| Entrypoint   | 0x00CD   |
| Data Size    | 14 bytes |
| Instructions | 2        |

```
      00 01 02 03 04 05 06 07  08 09 0A 0B 0C 0D 0E 0F
      -- -- -- -- -- -- -- --  -- -- -- -- -- -- -- --
00C0:                                         53 F8 FF               S..
00D0: FF 7F F8 FF FF 7F 73 79  75 30 00                 ......syu0.     
```

#### Opcodes

```
  0: 0x00CD [0x53] WAIT_SCHEDULER_TASK: Wait for scheduler "syu0" with entities [EventEntity, EventEntity]
  1: 0x00DA [0x00] END_REQSTACK()
```

### Event 65535.15

#### Metadata

| Field        | Value    |
|--------------|----------|
| Entrypoint   | 0x00DB   |
| Data Size    | 16 bytes |
| Instructions | 2        |

```
      00 01 02 03 04 05 06 07  08 09 0A 0B 0C 0D 0E 0F
      -- -- -- -- -- -- -- --  -- -- -- -- -- -- -- --
00D0:                                   66 00 80 F8 FF             f....
00E0: FF 7F F8 FF FF 7F 69 72  6F 30 00                 ......iro0.     
```

#### Opcodes

```
  0: 0x00DB [0x66] LOAD_EXT_SCHEDULER_MAIN: Load scheduler "iro0" with entities [EventEntity, EventEntity], work=40*
  1: 0x00EA [0x00] END_REQSTACK()
```

### Event 65535.16

#### Metadata

| Field        | Value    |
|--------------|----------|
| Entrypoint   | 0x00EB   |
| Data Size    | 14 bytes |
| Instructions | 2        |

```
      00 01 02 03 04 05 06 07  08 09 0A 0B 0C 0D 0E 0F
      -- -- -- -- -- -- -- --  -- -- -- -- -- -- -- --
00E0:                                   53 F8 FF FF 7F             S....
00F0: F8 FF FF 7F 69 72 6F 30  00                       ....iro0.       
```

#### Opcodes

```
  0: 0x00EB [0x53] WAIT_SCHEDULER_TASK: Wait for scheduler "iro0" with entities [EventEntity, EventEntity]
  1: 0x00F8 [0x00] END_REQSTACK()
```

### Event 65535.17

#### Metadata

| Field        | Value    |
|--------------|----------|
| Entrypoint   | 0x00F9   |
| Data Size    | 16 bytes |
| Instructions | 2        |

```
      00 01 02 03 04 05 06 07  08 09 0A 0B 0C 0D 0E 0F
      -- -- -- -- -- -- -- --  -- -- -- -- -- -- -- --
00F0:                             66 02 80 F8 FF FF 7F           f......
0100: F8 FF FF 7F 65 68 6E 30  00                       ....ehn0.       
```

#### Opcodes

```
  0: 0x00F9 [0x66] LOAD_EXT_SCHEDULER_MAIN: Load scheduler "ehn0" with entities [EventEntity, EventEntity], work=41*
  1: 0x0108 [0x00] END_REQSTACK()
```

### Event 65535.18

#### Metadata

| Field        | Value    |
|--------------|----------|
| Entrypoint   | 0x0109   |
| Data Size    | 22 bytes |
| Instructions | 4        |

```
      00 01 02 03 04 05 06 07  08 09 0A 0B 0C 0D 0E 0F
      -- -- -- -- -- -- -- --  -- -- -- -- -- -- -- --
0100:                             53 F8 FF FF 7F F8 FF           S......
0110: FF 7F 65 68 6E 30 5E 69  64 6C 30 1C 01 80 00     ..ehn0^idl0.... 
```

#### Opcodes

```
  0: 0x0109 [0x53] WAIT_SCHEDULER_TASK: Wait for scheduler "ehn0" with entities [EventEntity, EventEntity]
  1: 0x0116 [0x5E] EventEntity goes idle (kills current action) (animation: "idl0")
  2: 0x011B [0x1C] WAIT(30* ticks)
  3: 0x011E [0x00] END_REQSTACK()
```

### Event 65535.19

#### Metadata

| Field        | Value    |
|--------------|----------|
| Entrypoint   | 0x011F   |
| Data Size    | 16 bytes |
| Instructions | 2        |

```
      00 01 02 03 04 05 06 07  08 09 0A 0B 0C 0D 0E 0F
      -- -- -- -- -- -- -- --  -- -- -- -- -- -- -- --
0110:                                               66                 f
0120: 00 80 F8 FF FF 7F F8 FF  FF 7F 7A 69 74 30 00     ..........zit0. 
```

#### Opcodes

```
  0: 0x011F [0x66] LOAD_EXT_SCHEDULER_MAIN: Load scheduler "zit0" with entities [EventEntity, EventEntity], work=40*
  1: 0x012E [0x00] END_REQSTACK()
```

### Event 65535.20

#### Metadata

| Field        | Value    |
|--------------|----------|
| Entrypoint   | 0x012F   |
| Data Size    | 22 bytes |
| Instructions | 4        |

```
      00 01 02 03 04 05 06 07  08 09 0A 0B 0C 0D 0E 0F
      -- -- -- -- -- -- -- --  -- -- -- -- -- -- -- --
0120:                                               53                 S
0130: F8 FF FF 7F F8 FF FF 7F  7A 69 74 30 5E 69 64 6C  ........zit0^idl
0140: 30 1C 01 80 00                                    0....           
```

#### Opcodes

```
  0: 0x012F [0x53] WAIT_SCHEDULER_TASK: Wait for scheduler "zit0" with entities [EventEntity, EventEntity]
  1: 0x013C [0x5E] EventEntity goes idle (kills current action) (animation: "idl0")
  2: 0x0141 [0x1C] WAIT(30* ticks)
  3: 0x0144 [0x00] END_REQSTACK()
```

### Event 65535.21

#### Metadata

| Field        | Value    |
|--------------|----------|
| Entrypoint   | 0x0145   |
| Data Size    | 16 bytes |
| Instructions | 2        |

```
      00 01 02 03 04 05 06 07  08 09 0A 0B 0C 0D 0E 0F
      -- -- -- -- -- -- -- --  -- -- -- -- -- -- -- --
0140:                66 02 80  F8 FF FF 7F F8 FF FF 7F       f..........
0150: 67 6B 72 30 00                                    gkr0.           
```

#### Opcodes

```
  0: 0x0145 [0x66] LOAD_EXT_SCHEDULER_MAIN: Load scheduler "gkr0" with entities [EventEntity, EventEntity], work=41*
  1: 0x0154 [0x00] END_REQSTACK()
```

### Event 65535.22

#### Metadata

| Field        | Value    |
|--------------|----------|
| Entrypoint   | 0x0155   |
| Data Size    | 22 bytes |
| Instructions | 4        |

```
      00 01 02 03 04 05 06 07  08 09 0A 0B 0C 0D 0E 0F
      -- -- -- -- -- -- -- --  -- -- -- -- -- -- -- --
0150:                53 F8 FF  FF 7F F8 FF FF 7F 67 6B       S........gk
0160: 72 30 5E 69 64 6C 30 1C  01 80 00                 r0^idl0....     
```

#### Opcodes

```
  0: 0x0155 [0x53] WAIT_SCHEDULER_TASK: Wait for scheduler "gkr0" with entities [EventEntity, EventEntity]
  1: 0x0162 [0x5E] EventEntity goes idle (kills current action) (animation: "idl0")
  2: 0x0167 [0x1C] WAIT(30* ticks)
  3: 0x016A [0x00] END_REQSTACK()
```

### Event 65535.23

#### Metadata

| Field        | Value    |
|--------------|----------|
| Entrypoint   | 0x016B   |
| Data Size    | 16 bytes |
| Instructions | 2        |

```
      00 01 02 03 04 05 06 07  08 09 0A 0B 0C 0D 0E 0F
      -- -- -- -- -- -- -- --  -- -- -- -- -- -- -- --
0160:                                   66 00 80 F8 FF             f....
0170: FF 7F F8 FF FF 7F 70 61  73 30 00                 ......pas0.     
```

#### Opcodes

```
  0: 0x016B [0x66] LOAD_EXT_SCHEDULER_MAIN: Load scheduler "pas0" with entities [EventEntity, EventEntity], work=40*
  1: 0x017A [0x00] END_REQSTACK()
```

### Event 65535.24

#### Metadata

| Field        | Value    |
|--------------|----------|
| Entrypoint   | 0x017B   |
| Data Size    | 14 bytes |
| Instructions | 2        |

```
      00 01 02 03 04 05 06 07  08 09 0A 0B 0C 0D 0E 0F
      -- -- -- -- -- -- -- --  -- -- -- -- -- -- -- --
0170:                                   53 F8 FF FF 7F             S....
0180: F8 FF FF 7F 70 61 73 30  00                       ....pas0.       
```

#### Opcodes

```
  0: 0x017B [0x53] WAIT_SCHEDULER_TASK: Wait for scheduler "pas0" with entities [EventEntity, EventEntity]
  1: 0x0188 [0x00] END_REQSTACK()
```

### Event 65535.25

#### Metadata

| Field        | Value   |
|--------------|---------|
| Entrypoint   | 0x0189  |
| Data Size    | 9 bytes |
| Instructions | 3       |

```
      00 01 02 03 04 05 06 07  08 09 0A 0B 0C 0D 0E 0F
      -- -- -- -- -- -- -- --  -- -- -- -- -- -- -- --
0180:                             5E 69 64 6C 30 1C 01           ^idl0..
0190: 80 00                                             ..              
```

#### Opcodes

```
  0: 0x0189 [0x5E] EventEntity goes idle (kills current action) (animation: "idl0")
  1: 0x018E [0x1C] WAIT(30* ticks)
  2: 0x0191 [0x00] END_REQSTACK()
```

### Event 276

#### Metadata

| Field        | Value    |
|--------------|----------|
| Entrypoint   | 0x0192   |
| Data Size    | 32 bytes |
| Instructions | 11       |

```
      00 01 02 03 04 05 06 07  08 09 0A 0B 0C 0D 0E 0F
      -- -- -- -- -- -- -- --  -- -- -- -- -- -- -- --
0190:       1E F0 FF FF 7F 6F  70 29 08 16 10 0F 01 01    .....op)......
01A0: 1D 03 80 23 29 08 16 10  0F 01 02 1A 7A 0D 20 00  ...#).......z. .
01B0: 21 00                                             !.              
```

#### Opcodes

```
  0: 0x0192 [0x1E] EventEntity looks at LocalPlayer and starts talking
  1: 0x0197 [0x6F] WAIT_FRAME_DELAY: Yield until WaitTime reaches zero
  2: 0x0198 [0x70] WAIT_ENTITY_RENDER_FLAG: Wait while EventEntity->Render.Flags3 bit 2 is set (cancel turn if not)
  3: 0x0199 [0x29] REQ_SET_WAIT(priority=0x08, entity_id=Kopuro-Popuro (ID: 17764374/0x010F1016), tag_num=0x01)
  4: 0x01A0 [0x1D] PRINT_EVENT_MESSAGE(message_id=8053*)
    → "This is the Manustery--the ministry that's in charge of making and maintaining Cardians. Most people just refer to us as the "Cardian workshop.""
  5: 0x01A3 [0x23] WAIT_FOR_DIALOG_INTERACTION
  6: 0x01A4 [0x29] REQ_SET_WAIT(priority=0x08, entity_id=Kopuro-Popuro (ID: 17764374/0x010F1016), tag_num=0x02)
  7: 0x01AB [0x1A] CALL_SUBROUTINE(address=0x0D7A)
  8: 0x01AE [0x20] SET_CLI_EVENT_UC_FLAG: Unlock player control
  9: 0x01B0 [0x21] END_EVENT
 10: 0x01B1 [0x00] END_REQSTACK()
```

### Event 140

#### Metadata

| Field        | Value    |
|--------------|----------|
| Entrypoint   | 0x01B2   |
| Data Size    | 33 bytes |
| Instructions | 14       |

```
      00 01 02 03 04 05 06 07  08 09 0A 0B 0C 0D 0E 0F
      -- -- -- -- -- -- -- --  -- -- -- -- -- -- -- --
01B0:       1E F0 FF FF 7F 6F  70 29 08 16 10 0F 01 01    .....op)......
01C0: 1D 04 80 23 1D 05 80 23  1D 06 80 23 1A 7A 0D 20  ...#...#...#.z. 
01D0: 00 21 00                                          .!.             
```

#### Opcodes

```
  0: 0x01B2 [0x1E] EventEntity looks at LocalPlayer and starts talking
  1: 0x01B7 [0x6F] WAIT_FRAME_DELAY: Yield until WaitTime reaches zero
  2: 0x01B8 [0x70] WAIT_ENTITY_RENDER_FLAG: Wait while EventEntity->Render.Flags3 bit 2 is set (cancel turn if not)
  3: 0x01B9 [0x29] REQ_SET_WAIT(priority=0x08, entity_id=Kopuro-Popuro (ID: 17764374/0x010F1016), tag_num=0x01)
  4: 0x01C0 [0x1D] PRINT_EVENT_MESSAGE(message_id=7757*)
    → "Mana Orbs are the hearts of Cardians, you know? If a Cardian were to lose its Mana Orb, it would return to being just an inanimate straw dolly-wolly."
  5: 0x01C3 [0x23] WAIT_FOR_DIALOG_INTERACTION
  6: 0x01C4 [0x1D] PRINT_EVENT_MESSAGE(message_id=7758*)
    → "And, if the magical energy in the Mana Orb ever runs out, even if you were to re-energize it with the gizmos in the magic towers, they still forget everything that they remembered up to then."
  7: 0x01C7 [0x23] WAIT_FOR_DIALOG_INTERACTION
  8: 0x01C8 [0x1D] PRINT_EVENT_MESSAGE(message_id=7759*)
    → "Either way, this is what's considered as "death" for Cardians."
  9: 0x01CB [0x23] WAIT_FOR_DIALOG_INTERACTION
 10: 0x01CC [0x1A] CALL_SUBROUTINE(address=0x0D7A)
 11: 0x01CF [0x20] SET_CLI_EVENT_UC_FLAG: Unlock player control
 12: 0x01D1 [0x21] END_EVENT
 13: 0x01D2 [0x00] END_REQSTACK()
```

### Event 147

#### Metadata

| Field        | Value    |
|--------------|----------|
| Entrypoint   | 0x01D3   |
| Data Size    | 36 bytes |
| Instructions | 13       |

```
      00 01 02 03 04 05 06 07  08 09 0A 0B 0C 0D 0E 0F
      -- -- -- -- -- -- -- --  -- -- -- -- -- -- -- --
01D0:          1E F0 FF FF 7F  6F 70 29 08 16 10 0F 01     .....op).....
01E0: 01 1D 07 80 23 1D 08 80  23 29 08 16 10 0F 01 02  ....#...#)......
01F0: 1A 7A 0D 20 00 21 00                              .z. .!.         
```

#### Opcodes

```
  0: 0x01D3 [0x1E] EventEntity looks at LocalPlayer and starts talking
  1: 0x01D8 [0x6F] WAIT_FRAME_DELAY: Yield until WaitTime reaches zero
  2: 0x01D9 [0x70] WAIT_ENTITY_RENDER_FLAG: Wait while EventEntity->Render.Flags3 bit 2 is set (cancel turn if not)
  3: 0x01DA [0x29] REQ_SET_WAIT(priority=0x08, entity_id=Kopuro-Popuro (ID: 17764374/0x010F1016), tag_num=0x01)
  4: 0x01E1 [0x1D] PRINT_EVENT_MESSAGE(message_id=7777*)
    → "The previous minister was a terrible man. When the war ended, he started throwing away our Cardians left, right and center."
  5: 0x01E4 [0x23] WAIT_FOR_DIALOG_INTERACTION
  6: 0x01E5 [0x1D] PRINT_EVENT_MESSAGE(message_id=7778*)
    → "Of course the Cardians are going to run away. And of course they are going to come back and kidnap the previous minister. He should have seen it coming!"
  7: 0x01E8 [0x23] WAIT_FOR_DIALOG_INTERACTION
  8: 0x01E9 [0x29] REQ_SET_WAIT(priority=0x08, entity_id=Kopuro-Popuro (ID: 17764374/0x010F1016), tag_num=0x02)
  9: 0x01F0 [0x1A] CALL_SUBROUTINE(address=0x0D7A)
 10: 0x01F3 [0x20] SET_CLI_EVENT_UC_FLAG: Unlock player control
 11: 0x01F5 [0x21] END_EVENT
 12: 0x01F6 [0x00] END_REQSTACK()
```

### Event 285

#### Metadata

| Field        | Value    |
|--------------|----------|
| Entrypoint   | 0x01F7   |
| Data Size    | 93 bytes |
| Instructions | 21       |

```
      00 01 02 03 04 05 06 07  08 09 0A 0B 0C 0D 0E 0F
      -- -- -- -- -- -- -- --  -- -- -- -- -- -- -- --
01F0:                      1E  F0 FF FF 7F 6F 70 29 0D         .....op).
0200: 16 10 0F 01 1E 24 09 80  0A 80 0A 80 25 02 00 10  .....$......%...
0210: 0A 80 00 24 02 03 01 10  0B 80 29 0D 16 10 0F 01  ...$......).....
0220: 1F 01 50 02 02 00 10 0B  80 00 50 02 03 01 10 0C  ..P.......P.....
0230: 80 02 02 10 0B 80 00 43  02 29 0D 16 10 0F 01 24  .......C.).....$
0240: 01 4A 02 29 0D 16 10 0F  01 20 1A 7A 0D 01 50 02  .J.)..... .z..P.
0250: 20 00 21 00                                        .!.            
```

#### Opcodes

```
  0: 0x01F7 [0x1E] EventEntity looks at LocalPlayer and starts talking
  1: 0x01FC [0x6F] WAIT_FRAME_DELAY: Yield until WaitTime reaches zero
  2: 0x01FD [0x70] WAIT_ENTITY_RENDER_FLAG: Wait while EventEntity->Render.Flags3 bit 2 is set (cancel turn if not)
  3: 0x01FE [0x29] REQ_SET_WAIT(priority=0x0D, entity_id=Kopuro-Popuro (ID: 17764374/0x010F1016), tag_num=0x1E)
  4: 0x0205 [0x24] CREATE_DIALOG(message_id=8069*, default_option=0*, option_flags=0*)
    → "Satisfied with Cardians? [No, not quite.../Yes, most sufficient.]"
  5: 0x020C [0x25] WAIT_DIALOG_SELECT()
  6: 0x020D [0x02] IF !(Work_Zone[0] == 0*) GOTO 0x0224
  7: 0x0215 [0x03] Work_Zone[1] = 1*
  8: 0x021A [0x29] REQ_SET_WAIT(priority=0x0D, entity_id=Kopuro-Popuro (ID: 17764374/0x010F1016), tag_num=0x1F)
  9: 0x0221 [0x01] GOTO 0x0250
 10: 0x0224 [0x02] IF !(Work_Zone[0] == 1*) GOTO 0x0250
 11: 0x022C [0x03] Work_Zone[1] = 2*
 12: 0x0231 [0x02] IF !(Work_Zone[2] == 1*) GOTO 0x0243
 13: 0x0239 [0x29] REQ_SET_WAIT(priority=0x0D, entity_id=Kopuro-Popuro (ID: 17764374/0x010F1016), tag_num=0x24)
 14: 0x0240 [0x01] GOTO 0x024A
 15: 0x0243 [0x29] REQ_SET_WAIT(priority=0x0D, entity_id=Kopuro-Popuro (ID: 17764374/0x010F1016), tag_num=0x20)

SUBROUTINE_024A:
 16: 0x024A [0x1A] CALL_SUBROUTINE(address=0x0D7A)
 17: 0x024D [0x01] GOTO 0x0250

SUBROUTINE_0250:
 18: 0x0250 [0x20] SET_CLI_EVENT_UC_FLAG: Unlock player control
 19: 0x0252 [0x21] END_EVENT
 20: 0x0253 [0x00] END_REQSTACK()
```

### Event 65535.26

#### Metadata

| Field        | Value    |
|--------------|----------|
| Entrypoint   | 0x0254   |
| Data Size    | 19 bytes |
| Instructions | 5        |

```
      00 01 02 03 04 05 06 07  08 09 0A 0B 0C 0D 0E 0F
      -- -- -- -- -- -- -- --  -- -- -- -- -- -- -- --
0250:             29 08 16 10  0F 01 01 1D 0D 80 23 29      ).........#)
0260: 08 16 10 0F 01 02 00                              .......         
```

#### Opcodes

```
  0: 0x0254 [0x29] REQ_SET_WAIT(priority=0x08, entity_id=Kopuro-Popuro (ID: 17764374/0x010F1016), tag_num=0x01)
  1: 0x025B [0x1D] PRINT_EVENT_MESSAGE(message_id=8068*)
    → "Why, hello there, friend! Step right up here and tell me this--are you satisfied with our current Cardians?"
  2: 0x025E [0x23] WAIT_FOR_DIALOG_INTERACTION
  3: 0x025F [0x29] REQ_SET_WAIT(priority=0x08, entity_id=Kopuro-Popuro (ID: 17764374/0x010F1016), tag_num=0x02)
  4: 0x0266 [0x00] END_REQSTACK()
```

### Event 286

#### Metadata

| Field        | Value     |
|--------------|-----------|
| Entrypoint   | 0x0267    |
| Data Size    | 111 bytes |
| Instructions | 22        |

```
      00 01 02 03 04 05 06 07  08 09 0A 0B 0C 0D 0E 0F
      -- -- -- -- -- -- -- --  -- -- -- -- -- -- -- --
0260:                      1E  F0 FF FF 7F 6F 70 29 09         .....op).
0270: 16 10 0F 01 21 29 09 16  10 0F 01 22 29 09 16 10  ....!).....")...
0280: 0F 01 23 24 0E 80 0A 80  0A 80 25 02 00 10 0A 80  ..#$......%.....
0290: 00 A9 02 03 01 10 0F 80  29 09 16 10 0F 01 25 29  ........).....%)
02A0: 09 16 10 0F 01 26 01 D5  02 02 00 10 0B 80 00 D5  .....&..........
02B0: 02 03 01 10 10 80 02 02  10 0B 80 00 C8 02 29 09  ..............).
02C0: 16 10 0F 01 24 01 CF 02  29 09 16 10 0F 01 20 1A  ....$...)..... .
02D0: 7A 0D 01 D5 02 00                                 z.....          
```

#### Opcodes

```
  0: 0x0267 [0x1E] EventEntity looks at LocalPlayer and starts talking
  1: 0x026C [0x6F] WAIT_FRAME_DELAY: Yield until WaitTime reaches zero
  2: 0x026D [0x70] WAIT_ENTITY_RENDER_FLAG: Wait while EventEntity->Render.Flags3 bit 2 is set (cancel turn if not)
  3: 0x026E [0x29] REQ_SET_WAIT(priority=0x09, entity_id=Kopuro-Popuro (ID: 17764374/0x010F1016), tag_num=0x21)
  4: 0x0275 [0x29] REQ_SET_WAIT(priority=0x09, entity_id=Kopuro-Popuro (ID: 17764374/0x010F1016), tag_num=0x22)
  5: 0x027C [0x29] REQ_SET_WAIT(priority=0x09, entity_id=Kopuro-Popuro (ID: 17764374/0x010F1016), tag_num=0x23)
  6: 0x0283 [0x24] CREATE_DIALOG(message_id=8074*, default_option=0*, option_flags=0*)
    → "Want to go down in history? [Yes. Sign me up now!/No, I'm turning you down.]"
  7: 0x028A [0x25] WAIT_DIALOG_SELECT()
  8: 0x028B [0x02] IF !(Work_Zone[0] == 0*) GOTO 0x02A9
  9: 0x0293 [0x03] Work_Zone[1] = 3*
 10: 0x0298 [0x29] REQ_SET_WAIT(priority=0x09, entity_id=Kopuro-Popuro (ID: 17764374/0x010F1016), tag_num=0x25)
 11: 0x029F [0x29] REQ_SET_WAIT(priority=0x09, entity_id=Kopuro-Popuro (ID: 17764374/0x010F1016), tag_num=0x26)
 12: 0x02A6 [0x01] GOTO 0x02D5
 13: 0x02A9 [0x02] IF !(Work_Zone[0] == 1*) GOTO 0x02D5
 14: 0x02B1 [0x03] Work_Zone[1] = 4*
 15: 0x02B6 [0x02] IF !(Work_Zone[2] == 1*) GOTO 0x02C8
 16: 0x02BE [0x29] REQ_SET_WAIT(priority=0x09, entity_id=Kopuro-Popuro (ID: 17764374/0x010F1016), tag_num=0x24)
 17: 0x02C5 [0x01] GOTO 0x02CF
 18: 0x02C8 [0x29] REQ_SET_WAIT(priority=0x09, entity_id=Kopuro-Popuro (ID: 17764374/0x010F1016), tag_num=0x20)

SUBROUTINE_02CF:
 19: 0x02CF [0x1A] CALL_SUBROUTINE(address=0x0D7A)
 20: 0x02D2 [0x01] GOTO 0x02D5

SUBROUTINE_02D5:
 21: 0x02D5 [0x00] END_REQSTACK()
```

### Event 65535.27

#### Metadata

| Field        | Value   |
|--------------|---------|
| Entrypoint   | 0x02D6  |
| Data Size    | 5 bytes |
| Instructions | 3       |

```
      00 01 02 03 04 05 06 07  08 09 0A 0B 0C 0D 0E 0F
      -- -- -- -- -- -- -- --  -- -- -- -- -- -- -- --
02D0:                   1D 11  80 23 00                       ...#.     
```

#### Opcodes

```
  0: 0x02D6 [0x1D] PRINT_EVENT_MESSAGE(message_id=8070*)
    → "Gee... You don't have to be such a wet blanket..."
  1: 0x02D9 [0x23] WAIT_FOR_DIALOG_INTERACTION
  2: 0x02DA [0x00] END_REQSTACK()
```

### Event 65535.28

#### Metadata

| Field        | Value    |
|--------------|----------|
| Entrypoint   | 0x02DB   |
| Data Size    | 19 bytes |
| Instructions | 5        |

```
      00 01 02 03 04 05 06 07  08 09 0A 0B 0C 0D 0E 0F
      -- -- -- -- -- -- -- --  -- -- -- -- -- -- -- --
02D0:                                   29 08 16 10 0F             )....
02E0: 01 01 1D 12 80 23 29 08  16 10 0F 01 02 00        .....#).......  
```

#### Opcodes

```
  0: 0x02DB [0x29] REQ_SET_WAIT(priority=0x08, entity_id=Kopuro-Popuro (ID: 17764374/0x010F1016), tag_num=0x01)
  1: 0x02E2 [0x1D] PRINT_EVENT_MESSAGE(message_id=8071*)
    → "Well, have I got just the right thing for you! A brand new make of Cardian, I call..."
  2: 0x02E5 [0x23] WAIT_FOR_DIALOG_INTERACTION
  3: 0x02E6 [0x29] REQ_SET_WAIT(priority=0x08, entity_id=Kopuro-Popuro (ID: 17764374/0x010F1016), tag_num=0x02)
  4: 0x02ED [0x00] END_REQSTACK()
```

### Event 65535.29

#### Metadata

| Field        | Value    |
|--------------|----------|
| Entrypoint   | 0x02EE   |
| Data Size    | 19 bytes |
| Instructions | 5        |

```
      00 01 02 03 04 05 06 07  08 09 0A 0B 0C 0D 0E 0F
      -- -- -- -- -- -- -- --  -- -- -- -- -- -- -- --
02E0:                                            29 08                ).
02F0: 16 10 0F 01 07 1D 13 80  23 29 08 16 10 0F 01 08  ........#)......
0300: 00                                                .               
```

#### Opcodes

```
  0: 0x02EE [0x29] REQ_SET_WAIT(priority=0x08, entity_id=Kopuro-Popuro (ID: 17764374/0x010F1016), tag_num=0x07)
  1: 0x02F5 [0x1D] PRINT_EVENT_MESSAGE(message_id=8072*)
    → "Ta`da`!!! "The All-New C-2000"!"
  2: 0x02F8 [0x23] WAIT_FOR_DIALOG_INTERACTION
  3: 0x02F9 [0x29] REQ_SET_WAIT(priority=0x08, entity_id=Kopuro-Popuro (ID: 17764374/0x010F1016), tag_num=0x08)
  4: 0x0300 [0x00] END_REQSTACK()
```

### Event 65535.30

#### Metadata

| Field        | Value   |
|--------------|---------|
| Entrypoint   | 0x0301  |
| Data Size    | 5 bytes |
| Instructions | 3       |

```
      00 01 02 03 04 05 06 07  08 09 0A 0B 0C 0D 0E 0F
      -- -- -- -- -- -- -- --  -- -- -- -- -- -- -- --
0300:    1D 14 80 23 00                                  ...#.          
```

#### Opcodes

```
  0: 0x0301 [0x1D] PRINT_EVENT_MESSAGE(message_id=8073*)
    → "So how about it, then!? Do you have the inclination to go down in the history of our nation by helping in the creation of this amazing new innovation in automatons?"
  1: 0x0304 [0x23] WAIT_FOR_DIALOG_INTERACTION
  2: 0x0305 [0x00] END_REQSTACK()
```

### Event 65535.31

#### Metadata

| Field        | Value    |
|--------------|----------|
| Entrypoint   | 0x0306   |
| Data Size    | 19 bytes |
| Instructions | 5        |

```
      00 01 02 03 04 05 06 07  08 09 0A 0B 0C 0D 0E 0F
      -- -- -- -- -- -- -- --  -- -- -- -- -- -- -- --
0300:                   29 08  16 10 0F 01 15 1D 15 80        ).........
0310: 23 29 08 16 10 0F 01 16  00                       #).......       
```

#### Opcodes

```
  0: 0x0306 [0x29] REQ_SET_WAIT(priority=0x08, entity_id=Kopuro-Popuro (ID: 17764374/0x010F1016), tag_num=0x15)
  1: 0x030D [0x1D] PRINT_EVENT_MESSAGE(message_id=8075*)
    → "Gee... What do you have to be such a wet blanket for...?"
  2: 0x0310 [0x23] WAIT_FOR_DIALOG_INTERACTION
  3: 0x0311 [0x29] REQ_SET_WAIT(priority=0x08, entity_id=Kopuro-Popuro (ID: 17764374/0x010F1016), tag_num=0x16)
  4: 0x0318 [0x00] END_REQSTACK()
```

### Event 65535.32

#### Metadata

| Field        | Value   |
|--------------|---------|
| Entrypoint   | 0x0319  |
| Data Size    | 5 bytes |
| Instructions | 3       |

```
      00 01 02 03 04 05 06 07  08 09 0A 0B 0C 0D 0E 0F
      -- -- -- -- -- -- -- --  -- -- -- -- -- -- -- --
0310:                             1D 16 80 23 00                 ...#.  
```

#### Opcodes

```
  0: 0x0319 [0x1D] PRINT_EVENT_MESSAGE(message_id=8076*)
    → "Oh, good! Stick with me, kid--with my brains and your brawn, we're bound to go places together!"
  1: 0x031C [0x23] WAIT_FOR_DIALOG_INTERACTION
  2: 0x031D [0x00] END_REQSTACK()
```

### Event 65535.33

#### Metadata

| Field        | Value    |
|--------------|----------|
| Entrypoint   | 0x031E   |
| Data Size    | 59 bytes |
| Instructions | 15       |

```
      00 01 02 03 04 05 06 07  08 09 0A 0B 0C 0D 0E 0F
      -- -- -- -- -- -- -- --  -- -- -- -- -- -- -- --
0310:                                            29 08                ).
0320: 16 10 0F 01 01 1D 17 80  23 1D 18 80 23 29 08 16  ........#...#)..
0330: 10 0F 01 02 29 08 16 10  0F 01 03 1D 19 80 23 29  ....).........#)
0340: 08 16 10 0F 01 04 29 08  16 10 0F 01 05 1D 1A 80  ......).........
0350: 23 29 08 16 10 0F 01 06  00                       #).......       
```

#### Opcodes

```
  0: 0x031E [0x29] REQ_SET_WAIT(priority=0x08, entity_id=Kopuro-Popuro (ID: 17764374/0x010F1016), tag_num=0x01)
  1: 0x0325 [0x1D] PRINT_EVENT_MESSAGE(message_id=8077*)
    → "You see...I just happened to be in the process of teaching "The All-New C-2000" the scents of different "enemies." "The All-New C-2000" has a better nose than us people do, you knows?"
  2: 0x0328 [0x23] WAIT_FOR_DIALOG_INTERACTION
  3: 0x0329 [0x1D] PRINT_EVENT_MESSAGE(message_id=8078*)
    → "For starters, I was hoping you could bring me some of the items that the monsters in Sarutabaruta drop."
  4: 0x032C [0x23] WAIT_FOR_DIALOG_INTERACTION
  5: 0x032D [0x29] REQ_SET_WAIT(priority=0x08, entity_id=Kopuro-Popuro (ID: 17764374/0x010F1016), tag_num=0x02)
  6: 0x0334 [0x29] REQ_SET_WAIT(priority=0x08, entity_id=Kopuro-Popuro (ID: 17764374/0x010F1016), tag_num=0x03)
  7: 0x033B [0x1D] PRINT_EVENT_MESSAGE(message_id=8079*)
    → "Let me see... $1 and $2..."
  8: 0x033E [0x23] WAIT_FOR_DIALOG_INTERACTION
  9: 0x033F [0x29] REQ_SET_WAIT(priority=0x08, entity_id=Kopuro-Popuro (ID: 17764374/0x010F1016), tag_num=0x04)
 10: 0x0346 [0x29] REQ_SET_WAIT(priority=0x08, entity_id=Kopuro-Popuro (ID: 17764374/0x010F1016), tag_num=0x05)
 11: 0x034D [0x1D] PRINT_EVENT_MESSAGE(message_id=8080*)
    → "Oh, and $3 would be nice to begin with. So good luck and goodbye! See you when you've obtained one of each of those items..."
 12: 0x0350 [0x23] WAIT_FOR_DIALOG_INTERACTION
 13: 0x0351 [0x29] REQ_SET_WAIT(priority=0x08, entity_id=Kopuro-Popuro (ID: 17764374/0x010F1016), tag_num=0x06)
 14: 0x0358 [0x00] END_REQSTACK()
```

### Event 288

#### Metadata

| Field        | Value    |
|--------------|----------|
| Entrypoint   | 0x0359   |
| Data Size    | 40 bytes |
| Instructions | 15       |

```
      00 01 02 03 04 05 06 07  08 09 0A 0B 0C 0D 0E 0F
      -- -- -- -- -- -- -- --  -- -- -- -- -- -- -- --
0350:                             1E F0 FF FF 7F 6F 70           .....op
0360: 29 08 16 10 0F 01 01 1D  1B 80 23 1D 1C 80 23 29  ).........#...#)
0370: 08 16 10 0F 01 02 1D 1D  80 23 1A 7A 0D 20 00 21  .........#.z. .!
0380: 00                                                .               
```

#### Opcodes

```
  0: 0x0359 [0x1E] EventEntity looks at LocalPlayer and starts talking
  1: 0x035E [0x6F] WAIT_FRAME_DELAY: Yield until WaitTime reaches zero
  2: 0x035F [0x70] WAIT_ENTITY_RENDER_FLAG: Wait while EventEntity->Render.Flags3 bit 2 is set (cancel turn if not)
  3: 0x0360 [0x29] REQ_SET_WAIT(priority=0x08, entity_id=Kopuro-Popuro (ID: 17764374/0x010F1016), tag_num=0x01)
  4: 0x0367 [0x1D] PRINT_EVENT_MESSAGE(message_id=8081*)
    → "Have you obtained the items I need to educate the "All-New C-2000" yet?"
  5: 0x036A [0x23] WAIT_FOR_DIALOG_INTERACTION
  6: 0x036B [0x1D] PRINT_EVENT_MESSAGE(message_id=8082*)
    → "Don't forget, now... I need $1, $2, and $3."
  7: 0x036E [0x23] WAIT_FOR_DIALOG_INTERACTION
  8: 0x036F [0x29] REQ_SET_WAIT(priority=0x08, entity_id=Kopuro-Popuro (ID: 17764374/0x010F1016), tag_num=0x02)
  9: 0x0376 [0x1D] PRINT_EVENT_MESSAGE(message_id=8083*)
    → "So hurry, hur`ry! You don't want someone else to beat you to it, and have their name go down in history instead of yours, do you?"
 10: 0x0379 [0x23] WAIT_FOR_DIALOG_INTERACTION
 11: 0x037A [0x1A] CALL_SUBROUTINE(address=0x0D7A)
 12: 0x037D [0x20] SET_CLI_EVENT_UC_FLAG: Unlock player control
 13: 0x037F [0x21] END_EVENT
 14: 0x0380 [0x00] END_REQSTACK()
```

### Event 292

#### Metadata

| Field        | Value    |
|--------------|----------|
| Entrypoint   | 0x0381   |
| Data Size    | 56 bytes |
| Instructions | 16       |

```
      00 01 02 03 04 05 06 07  08 09 0A 0B 0C 0D 0E 0F
      -- -- -- -- -- -- -- --  -- -- -- -- -- -- -- --
0380:    42 20 01 1E F0 FF FF  7F 6F 70 29 08 16 10 0F   B ......op)....
0390: 01 01 1D 1E 80 23 1D 1F  80 23 29 08 16 10 0F 01  .....#...#).....
03A0: 02 45 20 80 F0 FF FF 7F  F0 FF FF 7F 71 73 74 63  .E .........qstc
03B0: 0A 80 48 21 80 20 00 21  00                       ..H!. .!.       
```

#### Opcodes

```
  0: 0x0381 [0x42] SET_CLI_EVENT_CANCEL_DATA()
  1: 0x0382 [0x20] SET_CLI_EVENT_UC_FLAG: Lock player control
  2: 0x0384 [0x1E] EventEntity looks at LocalPlayer and starts talking
  3: 0x0389 [0x6F] WAIT_FRAME_DELAY: Yield until WaitTime reaches zero
  4: 0x038A [0x70] WAIT_ENTITY_RENDER_FLAG: Wait while EventEntity->Render.Flags3 bit 2 is set (cancel turn if not)
  5: 0x038B [0x29] REQ_SET_WAIT(priority=0x08, entity_id=Kopuro-Popuro (ID: 17764374/0x010F1016), tag_num=0x01)
  6: 0x0392 [0x1D] PRINT_EVENT_MESSAGE(message_id=8090*)
    → "Mighty obliged to you there, friend. Your name will go down in Windurstian history for sure now!"
  7: 0x0395 [0x23] WAIT_FOR_DIALOG_INTERACTION
  8: 0x0396 [0x1D] PRINT_EVENT_MESSAGE(message_id=8091*)
    → "So don't complain if your reward isn't as good as expected, kid."
  9: 0x0399 [0x23] WAIT_FOR_DIALOG_INTERACTION
 10: 0x039A [0x29] REQ_SET_WAIT(priority=0x08, entity_id=Kopuro-Popuro (ID: 17764374/0x010F1016), tag_num=0x02)
 11: 0x03A1 [0x45] LOAD_SCHEDULED_TASK: Load scheduler "qstc" with entities [LocalPlayer, LocalPlayer], work=[201*, 0*]
 12: 0x03B2 [0x48] [System] [6552*]:
    → "Obtained $0 gil."
 13: 0x03B5 [0x20] SET_CLI_EVENT_UC_FLAG: Unlock player control
 14: 0x03B7 [0x21] END_EVENT
 15: 0x03B8 [0x00] END_REQSTACK()
```

### Event 293

#### Metadata

| Field        | Value    |
|--------------|----------|
| Entrypoint   | 0x03B9   |
| Data Size    | 36 bytes |
| Instructions | 13       |

```
      00 01 02 03 04 05 06 07  08 09 0A 0B 0C 0D 0E 0F
      -- -- -- -- -- -- -- --  -- -- -- -- -- -- -- --
03B0:                             1E F0 FF FF 7F 6F 70           .....op
03C0: 29 08 16 10 0F 01 01 1D  22 80 23 1D 23 80 23 29  ).......".#.#.#)
03D0: 08 16 10 0F 01 02 1A 7A  0D 20 00 21 00           .......z. .!.   
```

#### Opcodes

```
  0: 0x03B9 [0x1E] EventEntity looks at LocalPlayer and starts talking
  1: 0x03BE [0x6F] WAIT_FRAME_DELAY: Yield until WaitTime reaches zero
  2: 0x03BF [0x70] WAIT_ENTITY_RENDER_FLAG: Wait while EventEntity->Render.Flags3 bit 2 is set (cancel turn if not)
  3: 0x03C0 [0x29] REQ_SET_WAIT(priority=0x08, entity_id=Kopuro-Popuro (ID: 17764374/0x010F1016), tag_num=0x01)
  4: 0x03C7 [0x1D] PRINT_EVENT_MESSAGE(message_id=8092*)
    → "This is how we teach the Cardians we create to remember all kinds of things."
  5: 0x03CA [0x23] WAIT_FOR_DIALOG_INTERACTION
  6: 0x03CB [0x1D] PRINT_EVENT_MESSAGE(message_id=8093*)
    → "I guess it's kind of like being their mother or father."
  7: 0x03CE [0x23] WAIT_FOR_DIALOG_INTERACTION
  8: 0x03CF [0x29] REQ_SET_WAIT(priority=0x08, entity_id=Kopuro-Popuro (ID: 17764374/0x010F1016), tag_num=0x02)
  9: 0x03D6 [0x1A] CALL_SUBROUTINE(address=0x0D7A)
 10: 0x03D9 [0x20] SET_CLI_EVENT_UC_FLAG: Unlock player control
 11: 0x03DB [0x21] END_EVENT
 12: 0x03DC [0x00] END_REQSTACK()
```

### Event 294

#### Metadata

| Field        | Value    |
|--------------|----------|
| Entrypoint   | 0x03DD   |
| Data Size    | 89 bytes |
| Instructions | 20       |

```
      00 01 02 03 04 05 06 07  08 09 0A 0B 0C 0D 0E 0F
      -- -- -- -- -- -- -- --  -- -- -- -- -- -- -- --
03D0:                                         1E F0 FF               ...
03E0: FF 7F 6F 70 29 0B 16 10  0F 01 2B 29 0B 16 10 0F  ..op).....+)....
03F0: 01 2C 29 0B 16 10 0F 01  2D 24 24 80 0A 80 0A 80  .,).....-$$.....
0400: 25 02 00 10 0A 80 00 18  04 03 01 10 0B 80 29 0B  %.............).
0410: 16 10 0F 01 2F 01 32 04  02 00 10 0B 80 00 32 04  ..../.2.......2.
0420: 03 01 10 0C 80 29 0B 16  10 0F 01 2E 1A 7A 0D 01  .....).......z..
0430: 32 04 20 00 21 00                                 2. .!.          
```

#### Opcodes

```
  0: 0x03DD [0x1E] EventEntity looks at LocalPlayer and starts talking
  1: 0x03E2 [0x6F] WAIT_FRAME_DELAY: Yield until WaitTime reaches zero
  2: 0x03E3 [0x70] WAIT_ENTITY_RENDER_FLAG: Wait while EventEntity->Render.Flags3 bit 2 is set (cancel turn if not)
  3: 0x03E4 [0x29] REQ_SET_WAIT(priority=0x0B, entity_id=Kopuro-Popuro (ID: 17764374/0x010F1016), tag_num=0x2B)
  4: 0x03EB [0x29] REQ_SET_WAIT(priority=0x0B, entity_id=Kopuro-Popuro (ID: 17764374/0x010F1016), tag_num=0x2C)
  5: 0x03F2 [0x29] REQ_SET_WAIT(priority=0x0B, entity_id=Kopuro-Popuro (ID: 17764374/0x010F1016), tag_num=0x2D)
  6: 0x03F9 [0x24] CREATE_DIALOG(message_id=8099*, default_option=0*, option_flags=0*)
    → "Agree to help him out? [Yeah./Naw.]"
  7: 0x0400 [0x25] WAIT_DIALOG_SELECT()
  8: 0x0401 [0x02] IF !(Work_Zone[0] == 0*) GOTO 0x0418
  9: 0x0409 [0x03] Work_Zone[1] = 1*
 10: 0x040E [0x29] REQ_SET_WAIT(priority=0x0B, entity_id=Kopuro-Popuro (ID: 17764374/0x010F1016), tag_num=0x2F)
 11: 0x0415 [0x01] GOTO 0x0432
 12: 0x0418 [0x02] IF !(Work_Zone[0] == 1*) GOTO 0x0432
 13: 0x0420 [0x03] Work_Zone[1] = 2*
 14: 0x0425 [0x29] REQ_SET_WAIT(priority=0x0B, entity_id=Kopuro-Popuro (ID: 17764374/0x010F1016), tag_num=0x2E)
 15: 0x042C [0x1A] CALL_SUBROUTINE(address=0x0D7A)
 16: 0x042F [0x01] GOTO 0x0432

SUBROUTINE_0432:
 17: 0x0432 [0x20] SET_CLI_EVENT_UC_FLAG: Unlock player control
 18: 0x0434 [0x21] END_EVENT
 19: 0x0435 [0x00] END_REQSTACK()
```

### Event 65535.34

#### Metadata

| Field        | Value    |
|--------------|----------|
| Entrypoint   | 0x0436   |
| Data Size    | 37 bytes |
| Instructions | 9        |

```
      00 01 02 03 04 05 06 07  08 09 0A 0B 0C 0D 0E 0F
      -- -- -- -- -- -- -- --  -- -- -- -- -- -- -- --
0430:                   29 08  16 10 0F 01 03 1D 25 80        ).......%.
0440: 23 29 08 16 10 0F 01 04  29 08 16 10 0F 01 05 1D  #)......).......
0450: 26 80 23 29 08 16 10 0F  01 06 00                 &.#).......     
```

#### Opcodes

```
  0: 0x0436 [0x29] REQ_SET_WAIT(priority=0x08, entity_id=Kopuro-Popuro (ID: 17764374/0x010F1016), tag_num=0x03)
  1: 0x043D [0x1D] PRINT_EVENT_MESSAGE(message_id=8094*)
    → "Hey, you've come back here again?"
  2: 0x0440 [0x23] WAIT_FOR_DIALOG_INTERACTION
  3: 0x0441 [0x29] REQ_SET_WAIT(priority=0x08, entity_id=Kopuro-Popuro (ID: 17764374/0x010F1016), tag_num=0x04)
  4: 0x0448 [0x29] REQ_SET_WAIT(priority=0x08, entity_id=Kopuro-Popuro (ID: 17764374/0x010F1016), tag_num=0x05)
  5: 0x044F [0x1D] PRINT_EVENT_MESSAGE(message_id=8095*)
    → "Oh well, seeing as you're here, you might as well make yourself useful. You see, I've just made another new type of Cardian. This time, I'm calling it..."
  6: 0x0452 [0x23] WAIT_FOR_DIALOG_INTERACTION
  7: 0x0453 [0x29] REQ_SET_WAIT(priority=0x08, entity_id=Kopuro-Popuro (ID: 17764374/0x010F1016), tag_num=0x06)
  8: 0x045A [0x00] END_REQSTACK()
```

### Event 65535.35

#### Metadata

| Field        | Value    |
|--------------|----------|
| Entrypoint   | 0x045B   |
| Data Size    | 19 bytes |
| Instructions | 5        |

```
      00 01 02 03 04 05 06 07  08 09 0A 0B 0C 0D 0E 0F
      -- -- -- -- -- -- -- --  -- -- -- -- -- -- -- --
0450:                                   29 08 16 10 0F             )....
0460: 01 07 1D 27 80 23 29 08  16 10 0F 01 08 00        ...'.#).......  
```

#### Opcodes

```
  0: 0x045B [0x29] REQ_SET_WAIT(priority=0x08, entity_id=Kopuro-Popuro (ID: 17764374/0x010F1016), tag_num=0x07)
  1: 0x0462 [0x1D] PRINT_EVENT_MESSAGE(message_id=8096*)
    → "Ta`da`!!! "The All-New C-2000"!"
  2: 0x0465 [0x23] WAIT_FOR_DIALOG_INTERACTION
  3: 0x0466 [0x29] REQ_SET_WAIT(priority=0x08, entity_id=Kopuro-Popuro (ID: 17764374/0x010F1016), tag_num=0x08)
  4: 0x046D [0x00] END_REQSTACK()
```

### Event 65535.36

#### Metadata

| Field        | Value    |
|--------------|----------|
| Entrypoint   | 0x046E   |
| Data Size    | 23 bytes |
| Instructions | 7        |

```
      00 01 02 03 04 05 06 07  08 09 0A 0B 0C 0D 0E 0F
      -- -- -- -- -- -- -- --  -- -- -- -- -- -- -- --
0460:                                            29 08                ).
0470: 16 10 0F 01 09 1D 28 80  23 29 08 16 10 0F 01 0A  ......(.#)......
0480: 1D 29 80 23 00                                    .).#.           
```

#### Opcodes

```
  0: 0x046E [0x29] REQ_SET_WAIT(priority=0x08, entity_id=Kopuro-Popuro (ID: 17764374/0x010F1016), tag_num=0x09)
  1: 0x0475 [0x1D] PRINT_EVENT_MESSAGE(message_id=8097*)
    → "Huh...? Whaddayamean, "Yeah, yeah, I've heard it before?""
  2: 0x0478 [0x23] WAIT_FOR_DIALOG_INTERACTION
  3: 0x0479 [0x29] REQ_SET_WAIT(priority=0x08, entity_id=Kopuro-Popuro (ID: 17764374/0x010F1016), tag_num=0x0A)
  4: 0x0480 [0x1D] PRINT_EVENT_MESSAGE(message_id=8098*)
    → "Next you'll be telling me you know what items I want you to bring, rightaru? Anyway, I guess that means you'll be helping me out, then?"
  5: 0x0483 [0x23] WAIT_FOR_DIALOG_INTERACTION
  6: 0x0484 [0x00] END_REQSTACK()
```

### Event 65535.37

#### Metadata

| Field        | Value    |
|--------------|----------|
| Entrypoint   | 0x0485   |
| Data Size    | 19 bytes |
| Instructions | 5        |

```
      00 01 02 03 04 05 06 07  08 09 0A 0B 0C 0D 0E 0F
      -- -- -- -- -- -- -- --  -- -- -- -- -- -- -- --
0480:                29 08 16  10 0F 01 01 1D 2A 80 23       ).......*.#
0490: 29 08 16 10 0F 01 02 00                           ).......        
```

#### Opcodes

```
  0: 0x0485 [0x29] REQ_SET_WAIT(priority=0x08, entity_id=Kopuro-Popuro (ID: 17764374/0x010F1016), tag_num=0x01)
  1: 0x048C [0x1D] PRINT_EVENT_MESSAGE(message_id=8100*)
    → "Gee...you don't have to be such a tease!"
  2: 0x048F [0x23] WAIT_FOR_DIALOG_INTERACTION
  3: 0x0490 [0x29] REQ_SET_WAIT(priority=0x08, entity_id=Kopuro-Popuro (ID: 17764374/0x010F1016), tag_num=0x02)
  4: 0x0497 [0x00] END_REQSTACK()
```

### Event 65535.38

#### Metadata

| Field        | Value    |
|--------------|----------|
| Entrypoint   | 0x0498   |
| Data Size    | 19 bytes |
| Instructions | 5        |

```
      00 01 02 03 04 05 06 07  08 09 0A 0B 0C 0D 0E 0F
      -- -- -- -- -- -- -- --  -- -- -- -- -- -- -- --
0490:                          29 08 16 10 0F 01 01 1D          ).......
04A0: 2B 80 23 29 08 16 10 0F  01 02 00                 +.#).......     
```

#### Opcodes

```
  0: 0x0498 [0x29] REQ_SET_WAIT(priority=0x08, entity_id=Kopuro-Popuro (ID: 17764374/0x010F1016), tag_num=0x01)
  1: 0x049F [0x1D] PRINT_EVENT_MESSAGE(message_id=8101*)
    → "Great! Head on out to Sarutabaruta and procure me those items, then!"
  2: 0x04A2 [0x23] WAIT_FOR_DIALOG_INTERACTION
  3: 0x04A3 [0x29] REQ_SET_WAIT(priority=0x08, entity_id=Kopuro-Popuro (ID: 17764374/0x010F1016), tag_num=0x02)
  4: 0x04AA [0x00] END_REQSTACK()
```

### Event 301

#### Metadata

| Field        | Value    |
|--------------|----------|
| Entrypoint   | 0x04AB   |
| Data Size    | 36 bytes |
| Instructions | 13       |

```
      00 01 02 03 04 05 06 07  08 09 0A 0B 0C 0D 0E 0F
      -- -- -- -- -- -- -- --  -- -- -- -- -- -- -- --
04A0:                                   1E F0 FF FF 7F             .....
04B0: 6F 70 29 08 16 10 0F 01  01 1D 2C 80 23 1D 2D 80  op).......,.#.-.
04C0: 23 29 08 16 10 0F 01 02  1A 7A 0D 20 00 21 00     #).......z. .!. 
```

#### Opcodes

```
  0: 0x04AB [0x1E] EventEntity looks at LocalPlayer and starts talking
  1: 0x04B0 [0x6F] WAIT_FRAME_DELAY: Yield until WaitTime reaches zero
  2: 0x04B1 [0x70] WAIT_ENTITY_RENDER_FLAG: Wait while EventEntity->Render.Flags3 bit 2 is set (cancel turn if not)
  3: 0x04B2 [0x29] REQ_SET_WAIT(priority=0x08, entity_id=Kopuro-Popuro (ID: 17764374/0x010F1016), tag_num=0x01)
  4: 0x04B9 [0x1D] PRINT_EVENT_MESSAGE(message_id=8125*)
    → "Oh, you mean that Cardian...? So he's grown up to become number five already, huh?"
  5: 0x04BC [0x23] WAIT_FOR_DIALOG_INTERACTION
  6: 0x04BD [0x1D] PRINT_EVENT_MESSAGE(message_id=8126*)
    → "<Sigh>... When I hear that, it brings home to me just how short the lifespans of our Cardians are becoming..."
  7: 0x04C0 [0x23] WAIT_FOR_DIALOG_INTERACTION
  8: 0x04C1 [0x29] REQ_SET_WAIT(priority=0x08, entity_id=Kopuro-Popuro (ID: 17764374/0x010F1016), tag_num=0x02)
  9: 0x04C8 [0x1A] CALL_SUBROUTINE(address=0x0D7A)
 10: 0x04CB [0x20] SET_CLI_EVENT_UC_FLAG: Unlock player control
 11: 0x04CD [0x21] END_EVENT
 12: 0x04CE [0x00] END_REQSTACK()
```

### Event 306

#### Metadata

| Field        | Value    |
|--------------|----------|
| Entrypoint   | 0x04CF   |
| Data Size    | 32 bytes |
| Instructions | 11       |

```
      00 01 02 03 04 05 06 07  08 09 0A 0B 0C 0D 0E 0F
      -- -- -- -- -- -- -- --  -- -- -- -- -- -- -- --
04C0:                                               1E                 .
04D0: F0 FF FF 7F 6F 70 29 08  16 10 0F 01 01 1D 2E 80  ....op).........
04E0: 23 29 08 16 10 0F 01 02  1A 7A 0D 20 00 21 00     #).......z. .!. 
```

#### Opcodes

```
  0: 0x04CF [0x1E] EventEntity looks at LocalPlayer and starts talking
  1: 0x04D4 [0x6F] WAIT_FRAME_DELAY: Yield until WaitTime reaches zero
  2: 0x04D5 [0x70] WAIT_ENTITY_RENDER_FLAG: Wait while EventEntity->Render.Flags3 bit 2 is set (cancel turn if not)
  3: 0x04D6 [0x29] REQ_SET_WAIT(priority=0x08, entity_id=Kopuro-Popuro (ID: 17764374/0x010F1016), tag_num=0x01)
  4: 0x04DD [0x1D] PRINT_EVENT_MESSAGE(message_id=8137*)
    → "Say...I wonder whether that Cardian properly forgot the "hats suck" line I taught him?"
  5: 0x04E0 [0x23] WAIT_FOR_DIALOG_INTERACTION
  6: 0x04E1 [0x29] REQ_SET_WAIT(priority=0x08, entity_id=Kopuro-Popuro (ID: 17764374/0x010F1016), tag_num=0x02)
  7: 0x04E8 [0x1A] CALL_SUBROUTINE(address=0x0D7A)
  8: 0x04EB [0x20] SET_CLI_EVENT_UC_FLAG: Unlock player control
  9: 0x04ED [0x21] END_EVENT
 10: 0x04EE [0x00] END_REQSTACK()
```

### Event 308

#### Metadata

| Field        | Value     |
|--------------|-----------|
| Entrypoint   | 0x04EF    |
| Data Size    | 635 bytes |
| Instructions | 82        |

```
      00 01 02 03 04 05 06 07  08 09 0A 0B 0C 0D 0E 0F
      -- -- -- -- -- -- -- --  -- -- -- -- -- -- -- --
04E0:                                               46                 F
04F0: 01 42 45 2F 80 F8 FF FF  7F F8 FF FF 7F 66 64 6F  .BE/.........fdo
0500: 31 0A 80 5D 0A 80 2F 80  1C 30 80 75 00 31 80 75  1..]../..0.u.1.u
0510: 01 38 0F 80 29 0B 14 10  0F 01 32 45 32 80 F0 FF  .8..).....2E2...
0520: FF 7F F0 FF FF 7F 73 30  33 36 0A 80 4A 16 10 0F  ......s036..J...
0530: 01 14 10 0F 01 4A 15 10  0F 01 14 10 0F 01 29 0B  .....J........).
0540: 14 10 0F 01 35 5C 00 33  80 5C 01 33 80 5D 34 80  ....5\.3.\.3.]4.
0550: 0B 80 45 2F 80 F8 FF FF  7F F8 FF FF 7F 66 64 69  ..E/.........fdi
0560: 31 0A 80 27 0B 14 10 0F  01 34 1C 01 80 2A 0B 14  1..'.....4...*..
0570: 10 0F 01 29 0B 14 10 0F  01 36 45 2F 80 F8 FF FF  ...).....6E/....
0580: 7F F8 FF FF 7F 66 64 6F  31 0A 80 1C 35 80 29 0B  .....fdo1...5.).
0590: 14 10 0F 01 33 29 0B 16  10 0F 01 33 29 0B F0 FF  ....3).....3)...
05A0: FF 7F 2F 4A 15 10 0F 01  14 10 0F 01 4A 16 10 0F  ../J........J...
05B0: 01 14 10 0F 01 4A F0 FF  FF 7F 14 10 0F 01 45 32  .....J........E2
05C0: 80 F0 FF FF 7F F0 FF FF  7F 73 30 33 37 0A 80 45  .........s037..E
05D0: 2F 80 F8 FF FF 7F F8 FF  FF 7F 66 64 69 31 0A 80  /.........fdi1..
05E0: 29 0B 14 10 0F 01 37 29  0B 14 10 0F 01 38 55 32  ).....7).....8U2
05F0: 80 F0 FF FF 7F F0 FF FF  7F 73 30 33 37 45 32 80  .........s037E2.
0600: F0 FF FF 7F F0 FF FF 7F  73 30 33 38 0A 80 4A 15  ........s038..J.
0610: 10 0F 01 16 10 0F 01 4A  14 10 0F 01 16 10 0F 01  .......J........
0620: 29 0B 16 10 0F 01 36 4A  F0 FF FF 7F 16 10 0F 01  ).....6J........
0630: 4A 14 10 0F 01 15 10 0F  01 29 0B 14 10 0F 01 39  J........).....9
0640: 4A 15 10 0F 01 14 10 0F  01 29 0B 15 10 0F 01 1D  J........)......
0650: 45 32 80 F0 FF FF 7F F0  FF FF 7F 73 30 33 39 0A  E2.........s039.
0660: 80 4A 15 10 0F 01 16 10  0F 01 4A 14 10 0F 01 16  .J........J.....
0670: 10 0F 01 27 0B 16 10 0F  01 34 2B 16 10 0F 01 36  ...'.....4+....6
0680: 80 23 4A F0 FF FF 7F 16  10 0F 01 2B 16 10 0F 01  .#J........+....
0690: 37 80 23 4A 15 10 0F 01  16 10 0F 01 4A 14 10 0F  7.#J........J...
06A0: 01 16 10 0F 01 2B 16 10  0F 01 38 80 23 2A 0B 16  .....+....8.#*..
06B0: 10 0F 01 55 32 80 F0 FF  FF 7F F0 FF FF 7F 73 30  ...U2.........s0
06C0: 33 39 45 32 80 F0 FF FF  7F F0 FF FF 7F 73 30 34  39E2.........s04
06D0: 30 0A 80 4A 16 10 0F 01  14 10 0F 01 1C 01 80 29  0..J...........)
06E0: 0B 16 10 0F 01 39 29 0B  16 10 0F 01 3A 45 32 80  .....9).....:E2.
06F0: F0 FF FF 7F F0 FF FF 7F  73 30 34 31 0A 80 29 0B  ........s041..).
0700: 15 10 0F 01 1E 29 0B 15  10 0F 01 1F 29 0B 16 10  .....)......)...
0710: 0F 01 35 4A 15 10 0F 01  16 10 0F 01 29 0B 16 10  ..5J........)...
0720: 0F 01 3B 29 0B 15 10 0F  01 20 5D 0A 80 2F 80 45  ..;)..... ]../.E
0730: 2F 80 F8 FF FF 7F F8 FF  FF 7F 66 64 6F 31 0A 80  /.........fdo1..
0740: 1C 30 80 5C 00 39 80 5C  01 39 80 5D 34 80 0B 80  .0.\.9.\.9.]4...
0750: 1C 3A 80 46 00 45 2F 80  F8 FF FF 7F F8 FF FF 7F  .:.F.E/.........
0760: 66 64 69 31 0A 80 20 00  21 00                    fdi1.. .!.      
```

#### Opcodes

```
  0: 0x04EF [0x46] CAMERA_CONTROL: Disable user control
  1: 0x04F1 [0x42] SET_CLI_EVENT_CANCEL_DATA()
  2: 0x04F2 [0x45] LOAD_SCHEDULED_TASK: Load scheduler "fdo1" with entities [EventEntity, EventEntity], work=[200*, 0*]
  3: 0x0503 [0x5D] SET_MUSIC_VOLUME(volume=0*, fade_time=200*)
  4: 0x0508 [0x1C] WAIT(120* ticks)
  5: 0x050B [0x75] LOAD_ROOM(Load indoor room, room=422*)
  6: 0x050F [0x75] LOAD_ROOM(No action)
  7: 0x0511 [0x38] SET_CLIENT_EVENT_MODE(mode=3*)
  8: 0x0514 [0x29] REQ_SET_WAIT(priority=0x0B, entity_id=Apururu (ID: 17764372/0x010F1014), tag_num=0x32)
  9: 0x051B [0x45] LOAD_SCHEDULED_TASK: Load scheduler "s036" with entities [LocalPlayer, LocalPlayer], work=[141*, 0*]
 10: 0x052C [0x4A] Kopuro-Popuro (ID: 17764374/0x010F1016) looks at Apururu (ID: 17764372/0x010F1014)
 11: 0x0535 [0x4A] Boizo-Naizo (ID: 17764373/0x010F1015) looks at Apururu (ID: 17764372/0x010F1014)
 12: 0x053E [0x29] REQ_SET_WAIT(priority=0x0B, entity_id=Apururu (ID: 17764372/0x010F1014), tag_num=0x35)
 13: 0x0545 [0x5C] MUSIC_CONTROL: Set Idle (Day) music to song 163*
 14: 0x0549 [0x5C] MUSIC_CONTROL: Set Idle (Night) music to song 163*
 15: 0x054D [0x5D] SET_MUSIC_VOLUME(volume=127*, fade_time=1*)
 16: 0x0552 [0x45] LOAD_SCHEDULED_TASK: Load scheduler "fdi1" with entities [EventEntity, EventEntity], work=[200*, 0*]
 17: 0x0563 [0x27] REQ_SET(priority=0x0B, entity_id=Apururu (ID: 17764372/0x010F1014), tag_num=0x34)
 18: 0x056A [0x1C] WAIT(30* ticks)
 19: 0x056D [0x2A] GET_REQ_LEVEL(level=11, entity_id=Apururu (ID: 17764372/0x010F1014))
 20: 0x0573 [0x29] REQ_SET_WAIT(priority=0x0B, entity_id=Apururu (ID: 17764372/0x010F1014), tag_num=0x36)
 21: 0x057A [0x45] LOAD_SCHEDULED_TASK: Load scheduler "fdo1" with entities [EventEntity, EventEntity], work=[200*, 0*]
 22: 0x058B [0x1C] WAIT(60* ticks)
 23: 0x058E [0x29] REQ_SET_WAIT(priority=0x0B, entity_id=Apururu (ID: 17764372/0x010F1014), tag_num=0x33)
 24: 0x0595 [0x29] REQ_SET_WAIT(priority=0x0B, entity_id=Kopuro-Popuro (ID: 17764374/0x010F1016), tag_num=0x33)
 25: 0x059C [0x29] REQ_SET_WAIT(priority=0x0B, entity_id=LocalPlayer, tag_num=0x2F)
 26: 0x05A3 [0x4A] Boizo-Naizo (ID: 17764373/0x010F1015) looks at Apururu (ID: 17764372/0x010F1014)
 27: 0x05AC [0x4A] Kopuro-Popuro (ID: 17764374/0x010F1016) looks at Apururu (ID: 17764372/0x010F1014)
 28: 0x05B5 [0x4A] LocalPlayer looks at Apururu (ID: 17764372/0x010F1014)
 29: 0x05BE [0x45] LOAD_SCHEDULED_TASK: Load scheduler "s037" with entities [LocalPlayer, LocalPlayer], work=[141*, 0*]
 30: 0x05CF [0x45] LOAD_SCHEDULED_TASK: Load scheduler "fdi1" with entities [EventEntity, EventEntity], work=[200*, 0*]
 31: 0x05E0 [0x29] REQ_SET_WAIT(priority=0x0B, entity_id=Apururu (ID: 17764372/0x010F1014), tag_num=0x37)
 32: 0x05E7 [0x29] REQ_SET_WAIT(priority=0x0B, entity_id=Apururu (ID: 17764372/0x010F1014), tag_num=0x38)
 33: 0x05EE [0x55] WAIT_LOAD_SCHEDULER: Wait for scheduler "s037" with entities [LocalPlayer, LocalPlayer], work=141*
 34: 0x05FD [0x45] LOAD_SCHEDULED_TASK: Load scheduler "s038" with entities [LocalPlayer, LocalPlayer], work=[141*, 0*]
 35: 0x060E [0x4A] Boizo-Naizo (ID: 17764373/0x010F1015) looks at Kopuro-Popuro (ID: 17764374/0x010F1016)
 36: 0x0617 [0x4A] Apururu (ID: 17764372/0x010F1014) looks at Kopuro-Popuro (ID: 17764374/0x010F1016)
 37: 0x0620 [0x29] REQ_SET_WAIT(priority=0x0B, entity_id=Kopuro-Popuro (ID: 17764374/0x010F1016), tag_num=0x36)
 38: 0x0627 [0x4A] LocalPlayer looks at Kopuro-Popuro (ID: 17764374/0x010F1016)
 39: 0x0630 [0x4A] Apururu (ID: 17764372/0x010F1014) looks at Boizo-Naizo (ID: 17764373/0x010F1015)
 40: 0x0639 [0x29] REQ_SET_WAIT(priority=0x0B, entity_id=Apururu (ID: 17764372/0x010F1014), tag_num=0x39)
 41: 0x0640 [0x4A] Boizo-Naizo (ID: 17764373/0x010F1015) looks at Apururu (ID: 17764372/0x010F1014)
 42: 0x0649 [0x29] REQ_SET_WAIT(priority=0x0B, entity_id=Boizo-Naizo (ID: 17764373/0x010F1015), tag_num=0x1D)
 43: 0x0650 [0x45] LOAD_SCHEDULED_TASK: Load scheduler "s039" with entities [LocalPlayer, LocalPlayer], work=[141*, 0*]
 44: 0x0661 [0x4A] Boizo-Naizo (ID: 17764373/0x010F1015) looks at Kopuro-Popuro (ID: 17764374/0x010F1016)
 45: 0x066A [0x4A] Apururu (ID: 17764372/0x010F1014) looks at Kopuro-Popuro (ID: 17764374/0x010F1016)
 46: 0x0673 [0x27] REQ_SET(priority=0x0B, entity_id=Kopuro-Popuro (ID: 17764374/0x010F1016), tag_num=0x34)
 47: 0x067A [0x2B] Kopuro-Popuro (ID: 17764374/0x010F1016) [8147*]:
    → "Long, long ago, our old Manustery was facing a financial crisis much like we are today..."
 48: 0x0681 [0x23] WAIT_FOR_DIALOG_INTERACTION
 49: 0x0682 [0x4A] LocalPlayer looks at Kopuro-Popuro (ID: 17764374/0x010F1016)
 50: 0x068B [0x2B] Kopuro-Popuro (ID: 17764374/0x010F1016) [8148*]:
    → "This was in an age long before airships connected the cities of Vana'diel with the convenient network we have now."
 51: 0x0692 [0x23] WAIT_FOR_DIALOG_INTERACTION
 52: 0x0693 [0x4A] Boizo-Naizo (ID: 17764373/0x010F1015) looks at Kopuro-Popuro (ID: 17764374/0x010F1016)
 53: 0x069C [0x4A] Apururu (ID: 17764372/0x010F1014) looks at Kopuro-Popuro (ID: 17764374/0x010F1016)
 54: 0x06A5 [0x2B] Kopuro-Popuro (ID: 17764374/0x010F1016) [8149*]:
    → "Back then, travelers on their way to Jeuno were menaced by fearsome nocturnal-wurnal monsters."
 55: 0x06AC [0x23] WAIT_FOR_DIALOG_INTERACTION
 56: 0x06AD [0x2A] GET_REQ_LEVEL(level=11, entity_id=Kopuro-Popuro (ID: 17764374/0x010F1016))
 57: 0x06B3 [0x55] WAIT_LOAD_SCHEDULER: Wait for scheduler "s039" with entities [LocalPlayer, LocalPlayer], work=141*
 58: 0x06C2 [0x45] LOAD_SCHEDULED_TASK: Load scheduler "s040" with entities [LocalPlayer, LocalPlayer], work=[141*, 0*]
 59: 0x06D3 [0x4A] Kopuro-Popuro (ID: 17764374/0x010F1016) looks at Apururu (ID: 17764372/0x010F1014)
 60: 0x06DC [0x1C] WAIT(30* ticks)
 61: 0x06DF [0x29] REQ_SET_WAIT(priority=0x0B, entity_id=Kopuro-Popuro (ID: 17764374/0x010F1016), tag_num=0x39)
 62: 0x06E6 [0x29] REQ_SET_WAIT(priority=0x0B, entity_id=Kopuro-Popuro (ID: 17764374/0x010F1016), tag_num=0x3A)
 63: 0x06ED [0x45] LOAD_SCHEDULED_TASK: Load scheduler "s041" with entities [LocalPlayer, LocalPlayer], work=[141*, 0*]
 64: 0x06FE [0x29] REQ_SET_WAIT(priority=0x0B, entity_id=Boizo-Naizo (ID: 17764373/0x010F1015), tag_num=0x1E)
 65: 0x0705 [0x29] REQ_SET_WAIT(priority=0x0B, entity_id=Boizo-Naizo (ID: 17764373/0x010F1015), tag_num=0x1F)
 66: 0x070C [0x29] REQ_SET_WAIT(priority=0x0B, entity_id=Kopuro-Popuro (ID: 17764374/0x010F1016), tag_num=0x35)
 67: 0x0713 [0x4A] Boizo-Naizo (ID: 17764373/0x010F1015) looks at Kopuro-Popuro (ID: 17764374/0x010F1016)
 68: 0x071C [0x29] REQ_SET_WAIT(priority=0x0B, entity_id=Kopuro-Popuro (ID: 17764374/0x010F1016), tag_num=0x3B)
 69: 0x0723 [0x29] REQ_SET_WAIT(priority=0x0B, entity_id=Boizo-Naizo (ID: 17764373/0x010F1015), tag_num=0x20)
 70: 0x072A [0x5D] SET_MUSIC_VOLUME(volume=0*, fade_time=200*)
 71: 0x072F [0x45] LOAD_SCHEDULED_TASK: Load scheduler "fdo1" with entities [EventEntity, EventEntity], work=[200*, 0*]
 72: 0x0740 [0x1C] WAIT(120* ticks)
 73: 0x0743 [0x5C] MUSIC_CONTROL: Set Idle (Day) music to song 151*
 74: 0x0747 [0x5C] MUSIC_CONTROL: Set Idle (Night) music to song 151*
 75: 0x074B [0x5D] SET_MUSIC_VOLUME(volume=127*, fade_time=1*)
 76: 0x0750 [0x1C] WAIT(100* ticks)
 77: 0x0753 [0x46] CAMERA_CONTROL: Restore default settings
 78: 0x0755 [0x45] LOAD_SCHEDULED_TASK: Load scheduler "fdi1" with entities [EventEntity, EventEntity], work=[200*, 0*]
 79: 0x0766 [0x20] SET_CLI_EVENT_UC_FLAG: Unlock player control
 80: 0x0768 [0x21] END_EVENT
 81: 0x0769 [0x00] END_REQSTACK()
```

### Event 65535.39

#### Metadata

| Field        | Value    |
|--------------|----------|
| Entrypoint   | 0x076A   |
| Data Size    | 10 bytes |
| Instructions | 2        |

```
      00 01 02 03 04 05 06 07  08 09 0A 0B 0C 0D 0E 0F
      -- -- -- -- -- -- -- --  -- -- -- -- -- -- -- --
0760:                                37 3B 80 3C 80 3D            7;.<.=
0770: 80 3E 80 00                                       .>..            
```

#### Opcodes

```
  0: 0x076A [0x37] UPDATE_EVENT_POSITION_AND_DIR: x=-11.581*, z=-25.845*, y=-2.750*, direction=83.3°*
  1: 0x0773 [0x00] END_REQSTACK()
```

### Event 65535.40

#### Metadata

| Field        | Value    |
|--------------|----------|
| Entrypoint   | 0x0774   |
| Data Size    | 15 bytes |
| Instructions | 5        |

```
      00 01 02 03 04 05 06 07  08 09 0A 0B 0C 0D 0E 0F
      -- -- -- -- -- -- -- --  -- -- -- -- -- -- -- --
0770:             32 3F 80 1F  00 40 80 41 80 3D 80 1F      2?...@.A.=..
0780: 01 6F 00                                          .o.             
```

#### Opcodes

```
  0: 0x0774 [0x32] ExtData[1]->MainSpeed = 13* * 0.1
  1: 0x0777 [0x1F] MOVE_ENTITY: EventEntity moves to X=-10.977*, Z=-20.842*, Y=-2.750*
  2: 0x077F [0x1F] MOVE_ENTITY: Update entity position (mode=1)
  3: 0x0781 [0x6F] WAIT_FRAME_DELAY: Yield until WaitTime reaches zero
  4: 0x0782 [0x00] END_REQSTACK()
```

### Event 65535.41

#### Metadata

| Field        | Value    |
|--------------|----------|
| Entrypoint   | 0x0783   |
| Data Size    | 29 bytes |
| Instructions | 7        |

```
      00 01 02 03 04 05 06 07  08 09 0A 0B 0C 0D 0E 0F
      -- -- -- -- -- -- -- --  -- -- -- -- -- -- -- --
0780:          32 00 80 1F 00  3B 80 3C 80 3D 80 1F 01     2....;.<.=...
0790: 6F 1E 15 10 0F 01 4A 15  10 0F 01 16 10 0F 01 00  o.....J.........
```

#### Opcodes

```
  0: 0x0783 [0x32] ExtData[1]->MainSpeed = 40* * 0.1
  1: 0x0786 [0x1F] MOVE_ENTITY: EventEntity moves to X=-11.581*, Z=-25.845*, Y=-2.750*
  2: 0x078E [0x1F] MOVE_ENTITY: Update entity position (mode=1)
  3: 0x0790 [0x6F] WAIT_FRAME_DELAY: Yield until WaitTime reaches zero
  4: 0x0791 [0x1E] EventEntity looks at Boizo-Naizo (ID: 17764373/0x010F1015) and starts talking
  5: 0x0796 [0x4A] Boizo-Naizo (ID: 17764373/0x010F1015) looks at Kopuro-Popuro (ID: 17764374/0x010F1016)
  6: 0x079F [0x00] END_REQSTACK()
```

### Event 65535.42

#### Metadata

| Field        | Value    |
|--------------|----------|
| Entrypoint   | 0x07A0   |
| Data Size    | 19 bytes |
| Instructions | 5        |

```
      00 01 02 03 04 05 06 07  08 09 0A 0B 0C 0D 0E 0F
      -- -- -- -- -- -- -- --  -- -- -- -- -- -- -- --
07A0: 29 08 16 10 0F 01 0B 1D  42 80 23 29 08 16 10 0F  ).......B.#)....
07B0: 01 0C 00                                          ...             
```

#### Opcodes

```
  0: 0x07A0 [0x29] REQ_SET_WAIT(priority=0x08, entity_id=Kopuro-Popuro (ID: 17764374/0x010F1016), tag_num=0x0B)
  1: 0x07A7 [0x1D] PRINT_EVENT_MESSAGE(message_id=8144*)
    → "I know, Minister Apururu! It looks like it's time to implement "Legendary Plan B"!"
  2: 0x07AA [0x23] WAIT_FOR_DIALOG_INTERACTION
  3: 0x07AB [0x29] REQ_SET_WAIT(priority=0x08, entity_id=Kopuro-Popuro (ID: 17764374/0x010F1016), tag_num=0x0C)
  4: 0x07B2 [0x00] END_REQSTACK()
```

### Event 65535.43

#### Metadata

| Field        | Value   |
|--------------|---------|
| Entrypoint   | 0x07B3  |
| Data Size    | 5 bytes |
| Instructions | 3       |

```
      00 01 02 03 04 05 06 07  08 09 0A 0B 0C 0D 0E 0F
      -- -- -- -- -- -- -- --  -- -- -- -- -- -- -- --
07B0:          1D 36 80 23 00                              .6.#.        
```

#### Opcodes

```
  0: 0x07B3 [0x1D] PRINT_EVENT_MESSAGE(message_id=8147*)
    → "Long, long ago, our old Manustery was facing a financial crisis much like we are today..."
  1: 0x07B6 [0x23] WAIT_FOR_DIALOG_INTERACTION
  2: 0x07B7 [0x00] END_REQSTACK()
```

### Event 65535.44

#### Metadata

| Field        | Value   |
|--------------|---------|
| Entrypoint   | 0x07B8  |
| Data Size    | 9 bytes |
| Instructions | 5       |

```
      00 01 02 03 04 05 06 07  08 09 0A 0B 0C 0D 0E 0F
      -- -- -- -- -- -- -- --  -- -- -- -- -- -- -- --
07B0:                          1D 37 80 23 1D 38 80 23          .7.#.8.#
07C0: 00                                                .               
```

#### Opcodes

```
  0: 0x07B8 [0x1D] PRINT_EVENT_MESSAGE(message_id=8148*)
    → "This was in an age long before airships connected the cities of Vana'diel with the convenient network we have now."
  1: 0x07BB [0x23] WAIT_FOR_DIALOG_INTERACTION
  2: 0x07BC [0x1D] PRINT_EVENT_MESSAGE(message_id=8149*)
    → "Back then, travelers on their way to Jeuno were menaced by fearsome nocturnal-wurnal monsters."
  3: 0x07BF [0x23] WAIT_FOR_DIALOG_INTERACTION
  4: 0x07C0 [0x00] END_REQSTACK()
```

### Event 65535.45

#### Metadata

| Field        | Value    |
|--------------|----------|
| Entrypoint   | 0x07C1   |
| Data Size    | 19 bytes |
| Instructions | 5        |

```
      00 01 02 03 04 05 06 07  08 09 0A 0B 0C 0D 0E 0F
      -- -- -- -- -- -- -- --  -- -- -- -- -- -- -- --
07C0:    29 08 16 10 0F 01 07  1D 43 80 23 29 08 16 10   ).......C.#)...
07D0: 0F 01 08 00                                       ....            
```

#### Opcodes

```
  0: 0x07C1 [0x29] REQ_SET_WAIT(priority=0x08, entity_id=Kopuro-Popuro (ID: 17764374/0x010F1016), tag_num=0x07)
  1: 0x07C8 [0x1D] PRINT_EVENT_MESSAGE(message_id=8150*)
    → "To brighten up the future for those travelers, our predecessors, in their great wisdom, devised a charm for trekkers they called the "Gadabout's Gris-gris"!"
  2: 0x07CB [0x23] WAIT_FOR_DIALOG_INTERACTION
  3: 0x07CC [0x29] REQ_SET_WAIT(priority=0x08, entity_id=Kopuro-Popuro (ID: 17764374/0x010F1016), tag_num=0x08)
  4: 0x07D3 [0x00] END_REQSTACK()
```

### Event 65535.46

#### Metadata

| Field        | Value    |
|--------------|----------|
| Entrypoint   | 0x07D4   |
| Data Size    | 19 bytes |
| Instructions | 5        |

```
      00 01 02 03 04 05 06 07  08 09 0A 0B 0C 0D 0E 0F
      -- -- -- -- -- -- -- --  -- -- -- -- -- -- -- --
07D0:             29 08 16 10  0F 01 0F 1D 44 80 23 29      ).......D.#)
07E0: 08 16 10 0F 01 10 00                              .......         
```

#### Opcodes

```
  0: 0x07D4 [0x29] REQ_SET_WAIT(priority=0x08, entity_id=Kopuro-Popuro (ID: 17764374/0x010F1016), tag_num=0x0F)
  1: 0x07DB [0x1D] PRINT_EVENT_MESSAGE(message_id=8151*)
    → "The effect of these charms was astounding, and the reduction in the number of dangerous incidents that befell Jeuno-bound travelers was significant."
  2: 0x07DE [0x23] WAIT_FOR_DIALOG_INTERACTION
  3: 0x07DF [0x29] REQ_SET_WAIT(priority=0x08, entity_id=Kopuro-Popuro (ID: 17764374/0x010F1016), tag_num=0x10)
  4: 0x07E6 [0x00] END_REQSTACK()
```

### Event 65535.47

#### Metadata

| Field        | Value    |
|--------------|----------|
| Entrypoint   | 0x07E7   |
| Data Size    | 23 bytes |
| Instructions | 7        |

```
      00 01 02 03 04 05 06 07  08 09 0A 0B 0C 0D 0E 0F
      -- -- -- -- -- -- -- --  -- -- -- -- -- -- -- --
07E0:                      1D  45 80 23 29 08 16 10 0F         .E.#)....
07F0: 01 01 1D 46 80 23 29 08  16 10 0F 01 02 00        ...F.#).......  
```

#### Opcodes

```
  0: 0x07E7 [0x1D] PRINT_EVENT_MESSAGE(message_id=8154*)
    → "Well, you need all kinds of items that nocturnal monsters drop when defeated."
  1: 0x07EA [0x23] WAIT_FOR_DIALOG_INTERACTION
  2: 0x07EB [0x29] REQ_SET_WAIT(priority=0x08, entity_id=Kopuro-Popuro (ID: 17764374/0x010F1016), tag_num=0x01)
  3: 0x07F2 [0x1D] PRINT_EVENT_MESSAGE(message_id=8155*)
    → "In order to make a charm, I think we just need: $1, $2, and $3."
  4: 0x07F5 [0x23] WAIT_FOR_DIALOG_INTERACTION
  5: 0x07F6 [0x29] REQ_SET_WAIT(priority=0x08, entity_id=Kopuro-Popuro (ID: 17764374/0x010F1016), tag_num=0x02)
  6: 0x07FD [0x00] END_REQSTACK()
```

### Event 309

#### Metadata

| Field        | Value    |
|--------------|----------|
| Entrypoint   | 0x07FE   |
| Data Size    | 36 bytes |
| Instructions | 13       |

```
      00 01 02 03 04 05 06 07  08 09 0A 0B 0C 0D 0E 0F
      -- -- -- -- -- -- -- --  -- -- -- -- -- -- -- --
07F0:                                            1E F0                ..
0800: FF FF 7F 6F 70 29 08 16  10 0F 01 01 1D 47 80 23  ...op).......G.#
0810: 1D 48 80 23 29 08 16 10  0F 01 02 1A 7A 0D 20 00  .H.#).......z. .
0820: 21 00                                             !.              
```

#### Opcodes

```
  0: 0x07FE [0x1E] EventEntity looks at LocalPlayer and starts talking
  1: 0x0803 [0x6F] WAIT_FRAME_DELAY: Yield until WaitTime reaches zero
  2: 0x0804 [0x70] WAIT_ENTITY_RENDER_FLAG: Wait while EventEntity->Render.Flags3 bit 2 is set (cancel turn if not)
  3: 0x0805 [0x29] REQ_SET_WAIT(priority=0x08, entity_id=Kopuro-Popuro (ID: 17764374/0x010F1016), tag_num=0x01)
  4: 0x080C [0x1D] PRINT_EVENT_MESSAGE(message_id=8157*)
    → "You'll help us out as well, won'taru you? Please collect one of each of the items that the nocturnal monsters drop."
  5: 0x080F [0x23] WAIT_FOR_DIALOG_INTERACTION
  6: 0x0810 [0x1D] PRINT_EVENT_MESSAGE(message_id=8158*)
    → "Remember, we need $1, $2, and $3 to make one charm. Good luck, kiddo!"
  7: 0x0813 [0x23] WAIT_FOR_DIALOG_INTERACTION
  8: 0x0814 [0x29] REQ_SET_WAIT(priority=0x08, entity_id=Kopuro-Popuro (ID: 17764374/0x010F1016), tag_num=0x02)
  9: 0x081B [0x1A] CALL_SUBROUTINE(address=0x0D7A)
 10: 0x081E [0x20] SET_CLI_EVENT_UC_FLAG: Unlock player control
 11: 0x0820 [0x21] END_EVENT
 12: 0x0821 [0x00] END_REQSTACK()
```

### Event 313

#### Metadata

| Field        | Value    |
|--------------|----------|
| Entrypoint   | 0x0822   |
| Data Size    | 33 bytes |
| Instructions | 12       |

```
      00 01 02 03 04 05 06 07  08 09 0A 0B 0C 0D 0E 0F
      -- -- -- -- -- -- -- --  -- -- -- -- -- -- -- --
0820:       1E F0 FF FF 7F 6F  70 29 08 16 10 0F 01 01    .....op)......
0830: 1D 49 80 23 1D 4A 80 23  29 08 16 10 0F 01 02 20  .I.#.J.#)...... 
0840: 00 21 00                                          .!.             
```

#### Opcodes

```
  0: 0x0822 [0x1E] EventEntity looks at LocalPlayer and starts talking
  1: 0x0827 [0x6F] WAIT_FRAME_DELAY: Yield until WaitTime reaches zero
  2: 0x0828 [0x70] WAIT_ENTITY_RENDER_FLAG: Wait while EventEntity->Render.Flags3 bit 2 is set (cancel turn if not)
  3: 0x0829 [0x29] REQ_SET_WAIT(priority=0x08, entity_id=Kopuro-Popuro (ID: 17764374/0x010F1016), tag_num=0x01)
  4: 0x0830 [0x1D] PRINT_EVENT_MESSAGE(message_id=8165*)
    → "Oh, $1, $2, and $3... Looks likey we have everything!"
  5: 0x0833 [0x23] WAIT_FOR_DIALOG_INTERACTION
  6: 0x0834 [0x1D] PRINT_EVENT_MESSAGE(message_id=8166*)
    → "Here's your cut... Good work, kid!"
  7: 0x0837 [0x23] WAIT_FOR_DIALOG_INTERACTION
  8: 0x0838 [0x29] REQ_SET_WAIT(priority=0x08, entity_id=Kopuro-Popuro (ID: 17764374/0x010F1016), tag_num=0x02)
  9: 0x083F [0x20] SET_CLI_EVENT_UC_FLAG: Unlock player control
 10: 0x0841 [0x21] END_EVENT
 11: 0x0842 [0x00] END_REQSTACK()
```

### Event 314

#### Metadata

| Field        | Value     |
|--------------|-----------|
| Entrypoint   | 0x0843    |
| Data Size    | 414 bytes |
| Instructions | 57        |

```
      00 01 02 03 04 05 06 07  08 09 0A 0B 0C 0D 0E 0F
      -- -- -- -- -- -- -- --  -- -- -- -- -- -- -- --
0840:          20 01 46 01 42  45 2F 80 F8 FF FF 7F F8      .F.BE/......
0850: FF FF 7F 66 64 6F 31 0A  80 5D 0A 80 2F 80 1C 30  ...fdo1..]../..0
0860: 80 75 00 31 80 75 01 38  0F 80 29 0B 14 10 0F 01  .u.1.u.8..).....
0870: 32 45 32 80 F0 FF FF 7F  F0 FF FF 7F 73 30 33 36  2E2.........s036
0880: 0A 80 4A 16 10 0F 01 14  10 0F 01 4A 15 10 0F 01  ..J........J....
0890: 14 10 0F 01 29 0B 14 10  0F 01 3E 5C 00 33 80 5C  ....).....>\.3.\
08A0: 01 33 80 5D 34 80 0B 80  45 2F 80 F8 FF FF 7F F8  .3.]4...E/......
08B0: FF FF 7F 66 64 69 31 0A  80 27 0B 14 10 0F 01 34  ...fdi1..'.....4
08C0: 1C 01 80 2A 0B 14 10 0F  01 29 0B 14 10 0F 01 3F  ...*.....).....?
08D0: 45 2F 80 F8 FF FF 7F F8  FF FF 7F 66 64 6F 31 0A  E/.........fdo1.
08E0: 80 1C 35 80 29 0B 14 10  0F 01 33 29 0B 16 10 0F  ..5.).....3)....
08F0: 01 33 29 0B F0 FF FF 7F  2F 4A 15 10 0F 01 14 10  .3)...../J......
0900: 0F 01 4A 16 10 0F 01 14  10 0F 01 4A F0 FF FF 7F  ..J........J....
0910: 14 10 0F 01 45 32 80 F0  FF FF 7F F0 FF FF 7F 73  ....E2.........s
0920: 30 34 32 0A 80 45 2F 80  F8 FF FF 7F F8 FF FF 7F  042..E/.........
0930: 66 64 69 31 0A 80 29 0B  14 10 0F 01 40 27 0B 16  fdi1..).....@'..
0940: 10 0F 01 09 29 0B 15 10  0F 01 07 2A 0B 16 10 0F  ....)......*....
0950: 01 29 0B 14 10 0F 01 41  29 0B 14 10 0F 01 3C 45  .).....A).....<E
0960: 32 80 F0 FF FF 7F F0 FF  FF 7F 73 30 34 33 0A 80  2.........s043..
0970: 4A F0 FF FF 7F 14 10 0F  01 29 0B 14 10 0F 01 42  J........).....B
0980: 5D 0A 80 2F 80 27 0B 14  10 0F 01 3D 1C 01 80 45  ]../.'.....=...E
0990: 2F 80 F8 FF FF 7F F8 FF  FF 7F 66 64 6F 31 0A 80  /.........fdo1..
09A0: 1C 4B 80 5C 00 39 80 5C  01 39 80 5D 34 80 0B 80  .K.\.9.\.9.]4...
09B0: 1C 4C 80 2A 0B 14 10 0F  01 46 00 45 2F 80 F8 FF  .L.*.....F.E/...
09C0: FF 7F F8 FF FF 7F 66 64  69 31 0A 80 45 20 80 F0  ......fdi1..E ..
09D0: FF FF 7F F0 FF FF 7F 71  73 74 63 0A 80 20 00 21  .......qstc.. .!
09E0: 00                                                .               
```

#### Opcodes

```
  0: 0x0843 [0x20] SET_CLI_EVENT_UC_FLAG: Lock player control
  1: 0x0845 [0x46] CAMERA_CONTROL: Disable user control
  2: 0x0847 [0x42] SET_CLI_EVENT_CANCEL_DATA()
  3: 0x0848 [0x45] LOAD_SCHEDULED_TASK: Load scheduler "fdo1" with entities [EventEntity, EventEntity], work=[200*, 0*]
  4: 0x0859 [0x5D] SET_MUSIC_VOLUME(volume=0*, fade_time=200*)
  5: 0x085E [0x1C] WAIT(120* ticks)
  6: 0x0861 [0x75] LOAD_ROOM(Load indoor room, room=422*)
  7: 0x0865 [0x75] LOAD_ROOM(No action)
  8: 0x0867 [0x38] SET_CLIENT_EVENT_MODE(mode=3*)
  9: 0x086A [0x29] REQ_SET_WAIT(priority=0x0B, entity_id=Apururu (ID: 17764372/0x010F1014), tag_num=0x32)
 10: 0x0871 [0x45] LOAD_SCHEDULED_TASK: Load scheduler "s036" with entities [LocalPlayer, LocalPlayer], work=[141*, 0*]
 11: 0x0882 [0x4A] Kopuro-Popuro (ID: 17764374/0x010F1016) looks at Apururu (ID: 17764372/0x010F1014)
 12: 0x088B [0x4A] Boizo-Naizo (ID: 17764373/0x010F1015) looks at Apururu (ID: 17764372/0x010F1014)
 13: 0x0894 [0x29] REQ_SET_WAIT(priority=0x0B, entity_id=Apururu (ID: 17764372/0x010F1014), tag_num=0x3E)
 14: 0x089B [0x5C] MUSIC_CONTROL: Set Idle (Day) music to song 163*
 15: 0x089F [0x5C] MUSIC_CONTROL: Set Idle (Night) music to song 163*
 16: 0x08A3 [0x5D] SET_MUSIC_VOLUME(volume=127*, fade_time=1*)
 17: 0x08A8 [0x45] LOAD_SCHEDULED_TASK: Load scheduler "fdi1" with entities [EventEntity, EventEntity], work=[200*, 0*]
 18: 0x08B9 [0x27] REQ_SET(priority=0x0B, entity_id=Apururu (ID: 17764372/0x010F1014), tag_num=0x34)
 19: 0x08C0 [0x1C] WAIT(30* ticks)
 20: 0x08C3 [0x2A] GET_REQ_LEVEL(level=11, entity_id=Apururu (ID: 17764372/0x010F1014))
 21: 0x08C9 [0x29] REQ_SET_WAIT(priority=0x0B, entity_id=Apururu (ID: 17764372/0x010F1014), tag_num=0x3F)
 22: 0x08D0 [0x45] LOAD_SCHEDULED_TASK: Load scheduler "fdo1" with entities [EventEntity, EventEntity], work=[200*, 0*]
 23: 0x08E1 [0x1C] WAIT(60* ticks)
 24: 0x08E4 [0x29] REQ_SET_WAIT(priority=0x0B, entity_id=Apururu (ID: 17764372/0x010F1014), tag_num=0x33)
 25: 0x08EB [0x29] REQ_SET_WAIT(priority=0x0B, entity_id=Kopuro-Popuro (ID: 17764374/0x010F1016), tag_num=0x33)
 26: 0x08F2 [0x29] REQ_SET_WAIT(priority=0x0B, entity_id=LocalPlayer, tag_num=0x2F)
 27: 0x08F9 [0x4A] Boizo-Naizo (ID: 17764373/0x010F1015) looks at Apururu (ID: 17764372/0x010F1014)
 28: 0x0902 [0x4A] Kopuro-Popuro (ID: 17764374/0x010F1016) looks at Apururu (ID: 17764372/0x010F1014)
 29: 0x090B [0x4A] LocalPlayer looks at Apururu (ID: 17764372/0x010F1014)
 30: 0x0914 [0x45] LOAD_SCHEDULED_TASK: Load scheduler "s042" with entities [LocalPlayer, LocalPlayer], work=[141*, 0*]
 31: 0x0925 [0x45] LOAD_SCHEDULED_TASK: Load scheduler "fdi1" with entities [EventEntity, EventEntity], work=[200*, 0*]
 32: 0x0936 [0x29] REQ_SET_WAIT(priority=0x0B, entity_id=Apururu (ID: 17764372/0x010F1014), tag_num=0x40)
 33: 0x093D [0x27] REQ_SET(priority=0x0B, entity_id=Kopuro-Popuro (ID: 17764374/0x010F1016), tag_num=0x09)
 34: 0x0944 [0x29] REQ_SET_WAIT(priority=0x0B, entity_id=Boizo-Naizo (ID: 17764373/0x010F1015), tag_num=0x07)
 35: 0x094B [0x2A] GET_REQ_LEVEL(level=11, entity_id=Kopuro-Popuro (ID: 17764374/0x010F1016))
 36: 0x0951 [0x29] REQ_SET_WAIT(priority=0x0B, entity_id=Apururu (ID: 17764372/0x010F1014), tag_num=0x41)
 37: 0x0958 [0x29] REQ_SET_WAIT(priority=0x0B, entity_id=Apururu (ID: 17764372/0x010F1014), tag_num=0x3C)
 38: 0x095F [0x45] LOAD_SCHEDULED_TASK: Load scheduler "s043" with entities [LocalPlayer, LocalPlayer], work=[141*, 0*]
 39: 0x0970 [0x4A] LocalPlayer looks at Apururu (ID: 17764372/0x010F1014)
 40: 0x0979 [0x29] REQ_SET_WAIT(priority=0x0B, entity_id=Apururu (ID: 17764372/0x010F1014), tag_num=0x42)
 41: 0x0980 [0x5D] SET_MUSIC_VOLUME(volume=0*, fade_time=200*)
 42: 0x0985 [0x27] REQ_SET(priority=0x0B, entity_id=Apururu (ID: 17764372/0x010F1014), tag_num=0x3D)
 43: 0x098C [0x1C] WAIT(30* ticks)
 44: 0x098F [0x45] LOAD_SCHEDULED_TASK: Load scheduler "fdo1" with entities [EventEntity, EventEntity], work=[200*, 0*]
