# 17764541 - Mushuhi-Metahi

## Common Data

| Field            | Value                    |
|------------------|--------------------------|
| Zone             | Windurst Woods (ID: 241) |
| Block Size       | 1008 bytes               |
| Total Events     | 2                        |
| References Count | 73                       |

## List of Events

| Event ID              | Entrypoint   |   Size |   Instructions |
|-----------------------|--------------|--------|----------------|
| [65535](#event-65535) | 0x0000       |      6 |              2 |
| [10008](#event-10008) | 0x0006       |    683 |            150 |

## DAT References (imed_data)

|   Index | Hex Value   |   Dec Value |
|---------|-------------|-------------|
|       0 | 0x1FFC3FFE  |   536625150 |
|       1 | 0x1A95      |        6805 |
|       2 | 0x1A96      |        6806 |
|       3 | 0x0000      |           0 |
|       4 | 0x0001      |           1 |
|       5 | 0x0064      |         100 |
|       6 | 0x0002      |           2 |
|       7 | 0x0066      |         102 |
|       8 | 0x0003      |           3 |
|       9 | 0x0067      |         103 |
|      10 | 0x0004      |           4 |
|      11 | 0x0068      |         104 |
|      12 | 0x0005      |           5 |
|      13 | 0x0069      |         105 |
|      14 | 0x0006      |           6 |
|      15 | 0x006A      |         106 |
|      16 | 0x0007      |           7 |
|      17 | 0x006C      |         108 |
|      18 | 0x0008      |           8 |
|      19 | 0x006D      |         109 |
|      20 | 0x0009      |           9 |
|      21 | 0x006E      |         110 |
|      22 | 0x000A      |          10 |
|      23 | 0x006F      |         111 |
|      24 | 0x000B      |          11 |
|      25 | 0x0070      |         112 |
|      26 | 0x000C      |          12 |
|      27 | 0x0071      |         113 |
|      28 | 0x000D      |          13 |
|      29 | 0x0072      |         114 |
|      30 | 0x000E      |          14 |
|      31 | 0x0073      |         115 |
|      32 | 0x000F      |          15 |
|      33 | 0x0075      |         117 |
|      34 | 0x0010      |          16 |
|      35 | 0x0076      |         118 |
|      36 | 0x0011      |          17 |
|      37 | 0x0077      |         119 |
|      38 | 0x0012      |          18 |
|      39 | 0x0078      |         120 |
|      40 | 0x0013      |          19 |
|      41 | 0x0079      |         121 |
|      42 | 0x0014      |          20 |
|      43 | 0x007B      |         123 |
|      44 | 0x0015      |          21 |
|      45 | 0x007E      |         126 |
|      46 | 0x0016      |          22 |
|      47 | 0x0082      |         130 |
|      48 | 0x0017      |          23 |
|      49 | 0x00DC      |         220 |
|      50 | 0x0018      |          24 |
|      51 | 0x00DF      |         223 |
|      52 | 0x0019      |          25 |
|      53 | 0x00F3      |         243 |
|      54 | 0x001A      |          26 |
|      55 | 0x001B      |          27 |
|      56 | 0x001C      |          28 |
|      57 | 0x001D      |          29 |
|      58 | 0x0D80      |        3456 |
|      59 | 0x00FF      |         255 |
|      60 | 0x1AA0      |        6816 |
|      61 | 0x1A9D      |        6813 |
|      62 | 0x1A9A      |        6810 |
|      63 | 0x1A97      |        6807 |
|      64 | 0x1AA1      |        6817 |
|      65 | 0x1A9E      |        6814 |
|      66 | 0x1A9B      |        6811 |
|      67 | 0x1A98      |        6808 |
|      68 | 0x1AA2      |        6818 |
|      69 | 0x1A9F      |        6815 |
|      70 | 0x1A9C      |        6812 |
|      71 | 0x1A99      |        6809 |
|      72 | 0x1AA3      |        6819 |

## String References

- **6805**: Your fate rides on the changing winds of Vana'diel. I can give you insight on the local weather.
- **6806**: What area's weather do you wish to know? [Nowhere./Ronfaure./La Theine Plateau./Valkurm Dunes./Jugner Forest./Batallia Downs./Gustaberg./Konschtat Highlands./Pashhow Marshlands./Rolanberry Fields./Beaucedine Glacier./Xarcabard./Cape Teriggan./Altepa Desert./Sarutabaruta./Tahrongi Canyon./Buburimu Peninsula./Meriphataud Mountains./Sauromugue Champaign./The Sanctuary of Zi'Tah./Yuhtunga & Yhoator Jungles./Qufim Island./Tu'Lia./Ferry./Airship./Jeuno./Uleguerand Range./Tavnazian Archipelago./Riverne - Sites #A01 & #B01.]
- **6807**: That area's forecast for today is for $0 with occasional $1. There is also a slight chance of $2, so caution is advised.
- **6808**: The forecast for tomorrow is for $0 with occasional $1. There is also a slight chance of $2, so caution is advised.
- **6809**: And, the forecast for the day after tomorrow is for $0 with occasional $1. There is also a slight chance of $2, so caution is advised.
- **6810**: Today, that area's weather will be $0 with a chance of $1.
- **6811**: Tomorrow, the weather will be $0 with a chance of $1.
- **6812**: And, the day after tomorrow, the weather will be $0 with a chance of $1.
- **6813**: Today, the weather in that area will be $0. There is also the possibility of $2, so caution is advised.
- **6814**: Tomorrow, the weather will be $0. There is also the possibility of $2, so caution is advised.
- **6815**: And, the day after tomorrow, the weather will be $0. There is also the possibility of $2, so caution is advised.
- **6816**: The weather in that area today will be $0.
- **6817**: The weather tomorrow will be $0.
- **6818**: The weather the day after tomorrow will be $0.
- **6819**: And that's the report, straight from Vana'diel's official weather linkshell.

## Events

### Event 65535

#### Metadata

| Field        | Value   |
|--------------|---------|
| Entrypoint   | 0x0000  |
| Data Size    | 6 bytes |
| Instructions | 2       |

```
      00 01 02 03 04 05 06 07  08 09 0A 0B 0C 0D 0E 0F
      -- -- -- -- -- -- -- --  -- -- -- -- -- -- -- --
0000: 03 00 00 00 80 00                                 ......          
```

#### Opcodes

```
  0: 0x0000 [0x03] ExtData[1]->WorkLocal[0] = 536625150*
  1: 0x0005 [0x00] END_REQSTACK()
```

### Event 10008

#### Metadata

| Field        | Value     |
|--------------|-----------|
| Entrypoint   | 0x0006    |
| Data Size    | 683 bytes |
| Instructions | 63        |

```
      00 01 02 03 04 05 06 07  08 09 0A 0B 0C 0D 0E 0F
      -- -- -- -- -- -- -- --  -- -- -- -- -- -- -- --
0000:                   1E F0  FF FF 7F 1D 01 80 23 24        ........#$
0010: 02 80 03 80 00 00 25 02  00 10 03 80 00 24 00 21  ......%......$.!
0020: 00 01 E4 01 02 00 10 04  80 00 34 00 03 02 00 05  ..........4.....
0030: 80 01 E4 01 02 00 10 06  80 00 44 00 03 02 00 07  ..........D.....
0040: 80 01 E4 01 02 00 10 08  80 00 54 00 03 02 00 09  ..........T.....
0050: 80 01 E4 01 02 00 10 0A  80 00 64 00 03 02 00 0B  ..........d.....
0060: 80 01 E4 01 02 00 10 0C  80 00 74 00 03 02 00 0D  ..........t.....
0070: 80 01 E4 01 02 00 10 0E  80 00 84 00 03 02 00 0F  ................
0080: 80 01 E4 01 02 00 10 10  80 00 94 00 03 02 00 11  ................
0090: 80 01 E4 01 02 00 10 12  80 00 A4 00 03 02 00 13  ................
00A0: 80 01 E4 01 02 00 10 14  80 00 B4 00 03 02 00 15  ................
00B0: 80 01 E4 01 02 00 10 16  80 00 C4 00 03 02 00 17  ................
00C0: 80 01 E4 01 02 00 10 18  80 00 D4 00 03 02 00 19  ................
00D0: 80 01 E4 01 02 00 10 1A  80 00 E4 00 03 02 00 1B  ................
00E0: 80 01 E4 01 02 00 10 1C  80 00 F4 00 03 02 00 1D  ................
00F0: 80 01 E4 01 02 00 10 1E  80 00 04 01 03 02 00 1F  ................
0100: 80 01 E4 01 02 00 10 20  80 00 14 01 03 02 00 21  ....... .......!
0110: 80 01 E4 01 02 00 10 22  80 00 24 01 03 02 00 23  ......."..$....#
0120: 80 01 E4 01 02 00 10 24  80 00 34 01 03 02 00 25  .......$..4....%
0130: 80 01 E4 01 02 00 10 26  80 00 44 01 03 02 00 27  .......&..D....'
0140: 80 01 E4 01 02 00 10 28  80 00 54 01 03 02 00 29  .......(..T....)
0150: 80 01 E4 01 02 00 10 2A  80 00 64 01 03 02 00 2B  .......*..d....+
0160: 80 01 E4 01 02 00 10 2C  80 00 74 01 03 02 00 2D  .......,..t....-
0170: 80 01 E4 01 02 00 10 2E  80 00 84 01 03 02 00 2F  .............../
0180: 80 01 E4 01 02 00 10 30  80 00 94 01 03 02 00 31  .......0.......1
0190: 80 01 E4 01 02 00 10 32  80 00 A4 01 03 02 00 33  .......2.......3
01A0: 80 01 E4 01 02 00 10 34  80 00 B4 01 03 02 00 35  .......4.......5
01B0: 80 01 E4 01 02 00 10 36  80 00 C4 01 03 02 00 0C  .......6........
01C0: 80 01 E4 01 02 00 10 37  80 00 D4 01 03 02 00 32  .......7.......2
01D0: 80 01 E4 01 02 00 10 38  80 00 E4 01 03 02 00 39  .......8.......9
01E0: 80 01 E4 01 1A EB 01 21  00 21 00 03 01 00 09 10  .......!.!......
01F0: 15 01 00 3A 80 72 00 02  00 72 01 02 00 01 00 02  ...:.r...r......
0200: 03 10 3B 80 00 1D 02 02  04 10 3B 80 00 16 02 1D  ..;.......;.....
0210: 3C 80 23 01 1A 02 1D 3D  80 23 01 30 02 02 04 10  <.#....=.#.0....
0220: 3B 80 00 2C 02 1D 3E 80  23 01 30 02 1D 3F 80 23  ;..,..>.#.0..?.#
0230: 0B 01 00 72 00 02 00 72  01 02 00 01 00 02 03 10  ...r...r........
0240: 3B 80 00 5B 02 02 04 10  3B 80 00 54 02 1D 40 80  ;..[....;..T..@.
0250: 23 01 58 02 1D 41 80 23  01 6E 02 02 04 10 3B 80  #.X..A.#.n....;.
0260: 00 6A 02 1D 42 80 23 01  6E 02 1D 43 80 23 0B 01  .j..B.#.n..C.#..
0270: 00 72 00 02 00 72 01 02  00 01 00 02 03 10 3B 80  .r...r........;.
0280: 00 99 02 02 04 10 3B 80  00 92 02 1D 44 80 23 01  ......;.....D.#.
0290: 96 02 1D 45 80 23 01 AC  02 02 04 10 3B 80 00 A8  ...E.#......;...
02A0: 02 1D 46 80 23 01 AC 02  1D 47 80 23 1D 48 80 23  ..F.#....G.#.H.#
02B0: 1B                                                .               
```

#### Opcodes

```
  0: 0x0006 [0x1E] EventEntity looks at LocalPlayer and starts talking
  1: 0x000B [0x1D] PRINT_EVENT_MESSAGE(message_id=6805*)
    → "Your fate rides on the changing winds of Vana'diel. I can give you insight on the local weather."
  2: 0x000E [0x23] WAIT_FOR_DIALOG_INTERACTION
  3: 0x000F [0x24] CREATE_DIALOG(message_id=6806*, default_option=0*, option_flags=ExtData[1]->WorkLocal[0])
    → "What area's weather do you wish to know? [Nowhere./Ronfaure./La Theine Plateau./Valkurm Dunes./Jugner Forest./Batallia Downs./Gustaberg./Konschtat Highlands./Pashhow Marshlands./Rolanberry Fields./Beaucedine Glacier./Xarcabard./Cape Teriggan./Altepa Desert./Sarutabaruta./Tahrongi Canyon./Buburimu Peninsula./Meriphataud Mountains./Sauromugue Champaign./The Sanctuary of Zi'Tah./Yuhtunga & Yhoator Jungles./Qufim Island./Tu'Lia./Ferry./Airship./Jeuno./Uleguerand Range./Tavnazian Archipelago./Riverne - Sites #A01 & #B01.]"
  4: 0x0016 [0x25] WAIT_DIALOG_SELECT()
  5: 0x0017 [0x02] IF !(Work_Zone[0] == 0*) GOTO 0x0024
  6: 0x001F [0x21] END_EVENT
  7: 0x0020 [0x00] END_REQSTACK()

SUBROUTINE_01E4:
  8: 0x01E4 [0x1A] CALL_SUBROUTINE(address=0x01EB)
  9: 0x01E7 [0x21] END_EVENT
 10: 0x01E8 [0x00] END_REQSTACK()

SUBROUTINE_01EB:
 11: 0x01EB [0x03] ExtData[1]->WorkLocal[1] = Work_Zone[9]
 12: 0x01F0 [0x15] ExtData[1]->WorkLocal[1] /= 3456*
 13: 0x01F5 [0x72] LOAD_EVENT_WEATHER: Request weather file 7033, weather_id=ExtData[1]->WorkLocal[2], param1=0x0172, param2=0x00010002
 14: 0x01FF [0x02] IF !(Work_Zone[3] == 255*) GOTO 0x021D
 15: 0x0207 [0x02] IF !(Work_Zone[4] == 255*) GOTO 0x0216
 16: 0x020F [0x1D] PRINT_EVENT_MESSAGE(message_id=6816*)
    → "The weather in that area today will be $0."
 17: 0x0212 [0x23] WAIT_FOR_DIALOG_INTERACTION
 18: 0x0213 [0x01] GOTO 0x021A
 19: 0x0216 [0x1D] PRINT_EVENT_MESSAGE(message_id=6813*)
    → "Today, the weather in that area will be $0. There is also the possibility of $2, so caution is advised."
 20: 0x0219 [0x23] WAIT_FOR_DIALOG_INTERACTION

SUBROUTINE_021A:
 21: 0x021A [0x01] GOTO 0x0230
 22: 0x021D [0x02] IF !(Work_Zone[4] == 255*) GOTO 0x022C
 23: 0x0225 [0x1D] PRINT_EVENT_MESSAGE(message_id=6810*)
    → "Today, that area's weather will be $0 with a chance of $1."
 24: 0x0228 [0x23] WAIT_FOR_DIALOG_INTERACTION
 25: 0x0229 [0x01] GOTO 0x0230
 26: 0x022C [0x1D] PRINT_EVENT_MESSAGE(message_id=6807*)
    → "That area's forecast for today is for $0 with occasional $1. There is also a slight chance of $2, so caution is advised."
 27: 0x022F [0x23] WAIT_FOR_DIALOG_INTERACTION

SUBROUTINE_0230:
 28: 0x0230 [0x0B] ExtData[1]->WorkLocal[1]++
 29: 0x0233 [0x72] LOAD_EVENT_WEATHER: Request weather file 7033, weather_id=ExtData[1]->WorkLocal[2], param1=0x0172, param2=0x00010002
 30: 0x023D [0x02] IF !(Work_Zone[3] == 255*) GOTO 0x025B
 31: 0x0245 [0x02] IF !(Work_Zone[4] == 255*) GOTO 0x0254
 32: 0x024D [0x1D] PRINT_EVENT_MESSAGE(message_id=6817*)
    → "The weather tomorrow will be $0."
 33: 0x0250 [0x23] WAIT_FOR_DIALOG_INTERACTION
 34: 0x0251 [0x01] GOTO 0x0258
 35: 0x0254 [0x1D] PRINT_EVENT_MESSAGE(message_id=6814*)
    → "Tomorrow, the weather will be $0. There is also the possibility of $2, so caution is advised."
 36: 0x0257 [0x23] WAIT_FOR_DIALOG_INTERACTION

SUBROUTINE_0258:
 37: 0x0258 [0x01] GOTO 0x026E
 38: 0x025B [0x02] IF !(Work_Zone[4] == 255*) GOTO 0x026A
 39: 0x0263 [0x1D] PRINT_EVENT_MESSAGE(message_id=6811*)
    → "Tomorrow, the weather will be $0 with a chance of $1."
 40: 0x0266 [0x23] WAIT_FOR_DIALOG_INTERACTION
 41: 0x0267 [0x01] GOTO 0x026E
 42: 0x026A [0x1D] PRINT_EVENT_MESSAGE(message_id=6808*)
    → "The forecast for tomorrow is for $0 with occasional $1. There is also a slight chance of $2, so caution is advised."
 43: 0x026D [0x23] WAIT_FOR_DIALOG_INTERACTION

SUBROUTINE_026E:
 44: 0x026E [0x0B] ExtData[1]->WorkLocal[1]++
 45: 0x0271 [0x72] LOAD_EVENT_WEATHER: Request weather file 7033, weather_id=ExtData[1]->WorkLocal[2], param1=0x0172, param2=0x00010002
 46: 0x027B [0x02] IF !(Work_Zone[3] == 255*) GOTO 0x0299
 47: 0x0283 [0x02] IF !(Work_Zone[4] == 255*) GOTO 0x0292
 48: 0x028B [0x1D] PRINT_EVENT_MESSAGE(message_id=6818*)
    → "The weather the day after tomorrow will be $0."
 49: 0x028E [0x23] WAIT_FOR_DIALOG_INTERACTION
 50: 0x028F [0x01] GOTO 0x0296
 51: 0x0292 [0x1D] PRINT_EVENT_MESSAGE(message_id=6815*)
    → "And, the day after tomorrow, the weather will be $0. There is also the possibility of $2, so caution is advised."
 52: 0x0295 [0x23] WAIT_FOR_DIALOG_INTERACTION

SUBROUTINE_0296:
 53: 0x0296 [0x01] GOTO 0x02AC
 54: 0x0299 [0x02] IF !(Work_Zone[4] == 255*) GOTO 0x02A8
 55: 0x02A1 [0x1D] PRINT_EVENT_MESSAGE(message_id=6812*)
    → "And, the day after tomorrow, the weather will be $0 with a chance of $1."
 56: 0x02A4 [0x23] WAIT_FOR_DIALOG_INTERACTION
 57: 0x02A5 [0x01] GOTO 0x02AC
 58: 0x02A8 [0x1D] PRINT_EVENT_MESSAGE(message_id=6809*)
    → "And, the forecast for the day after tomorrow is for $0 with occasional $1. There is also a slight chance of $2, so caution is advised."
 59: 0x02AB [0x23] WAIT_FOR_DIALOG_INTERACTION

SUBROUTINE_02AC:
 60: 0x02AC [0x1D] PRINT_EVENT_MESSAGE(message_id=6819*)
    → "And that's the report, straight from Vana'diel's official weather linkshell."
 61: 0x02AF [0x23] WAIT_FOR_DIALOG_INTERACTION
 62: 0x02B0 [0x1B] RETURN
```

#### Data or dead code:

```
# Dead code (unreachable instructions):
     0x0021 [0x01] GOTO 0x01E4
# Dead code (unreachable instructions):
     0x01E9 [0x21] END_EVENT
     0x01EA [0x00] END_REQSTACK()
```
