# 17764393 - Ponono

## Common Data

| Field            | Value                    |
|------------------|--------------------------|
| Zone             | Windurst Woods (ID: 241) |
| Block Size       | 9516 bytes               |
| Total Events     | 33                       |
| References Count | 280                      |

## List of Events

| Event ID              | Entrypoint   |   Size |   Instructions |
|-----------------------|--------------|--------|----------------|
| [65535](#event-65535) | 0x0000       |      1 |              1 |
| [10011](#event-10011) | 0x0001       |   2131 |            505 |
| [10012](#event-10012) | 0x0854       |    287 |             70 |
| [700](#event-700)     | 0x0973       |    373 |             46 |
| [701](#event-701)     | 0x0AE8       |    107 |             32 |
| [702](#event-702)     | 0x0B53       |     11 |              5 |
| [703](#event-703)     | 0x0B5E       |     11 |              5 |
| [704](#event-704)     | 0x0B69       |    169 |             49 |
| [705](#event-705)     | 0x0C12       |    457 |             77 |
| [832](#event-832)     | 0x0DDB       |    589 |             97 |
| [911](#event-911)     | 0x1028       |    101 |             22 |
| [925](#event-925)     | 0x108D       |    104 |             22 |
| [912](#event-912)     | 0x10F5       |    118 |             27 |
| [913](#event-913)     | 0x116B       |    241 |             62 |
| [927](#event-927)     | 0x125C       |    225 |             49 |
| [942](#event-942)     | 0x133D       |    285 |             60 |
| [970](#event-970)     | 0x145A       |    134 |             32 |
| [948](#event-948)     | 0x14E0       |    176 |             39 |
| [947](#event-947)     | 0x1590       |    235 |             52 |
| [949](#event-949)     | 0x167B       |     75 |             17 |
| [914](#event-914)     | 0x16C6       |    189 |             36 |
| [928](#event-928)     | 0x1783       |    168 |             32 |
| [943](#event-943)     | 0x182B       |    142 |             32 |
| [971](#event-971)     | 0x18B9       |    134 |             28 |
| [915](#event-915)     | 0x193F       |    106 |             24 |
| [972](#event-972)     | 0x19A9       |     61 |             13 |
| [932](#event-932)     | 0x19E6       |     92 |             20 |
| [917](#event-917)     | 0x1A42       |    171 |             34 |
| [931](#event-931)     | 0x1AED       |    127 |             25 |
| [946](#event-946)     | 0x1B6C       |    196 |             37 |
| [974](#event-974)     | 0x1C30       |    115 |             21 |
| [975](#event-975)     | 0x1CA3       |    131 |             27 |
| [916](#event-916)     | 0x1D26       |    786 |            146 |

## DAT References (imed_data)

|   Index | Hex Value   |   Dec Value |
|---------|-------------|-------------|
|       0 | 0x0000      |           0 |
|       1 | 0x0009      |           9 |
|       2 | 0x000A      |          10 |
|       3 | 0x0004      |           4 |
|       4 | 0x0010      |          16 |
|       5 | 0x000B      |          11 |
|       6 | 0x000C      |          12 |
|       7 | 0x0002      |           2 |
|       8 | 0x0028      |          40 |
|       9 | 0x1CDD      |        7389 |
|      10 | 0x1CDE      |        7390 |
|      11 | 0x1CDF      |        7391 |
|      12 | 0x1CE0      |        7392 |
|      13 | 0x1C76      |        7286 |
|      14 | 0x0001      |           1 |
|      15 | 0x0031      |          49 |
|      16 | 0x0032      |          50 |
|      17 | 0x0003      |           3 |
|      18 | 0x0033      |          51 |
|      19 | 0x0034      |          52 |
|      20 | 0x002A      |          42 |
|      21 | 0x1CE1      |        7393 |
|      22 | 0x1CE2      |        7394 |
|      23 | 0x0005      |           5 |
|      24 | 0x0035      |          53 |
|      25 | 0x0006      |           6 |
|      26 | 0x0036      |          54 |
|      27 | 0x0007      |           7 |
|      28 | 0x0037      |          55 |
|      29 | 0x0008      |           8 |
|      30 | 0x0038      |          56 |
|      31 | 0x1C77      |        7287 |
|      32 | 0x1C78      |        7288 |
|      33 | 0x006E      |         110 |
|      34 | 0x1C81      |        7297 |
|      35 | 0x0046      |          70 |
|      36 | 0x1CD8      |        7384 |
|      37 | 0x1CD9      |        7385 |
|      38 | 0x1CDA      |        7386 |
|      39 | 0x1CDB      |        7387 |
|      40 | 0x0064      |         100 |
|      41 | 0x2AF8      |       11000 |
|      42 | 0x1CD4      |        7380 |
|      43 | 0x1CD3      |        7379 |
|      44 | 0x07DC      |        2012 |
|      45 | 0x1CD1      |        7377 |
|      46 | 0x1CD2      |        7378 |
|      47 | 0x1CD0      |        7376 |
|      48 | 0x1CCE      |        7374 |
|      49 | 0x1CCB      |        7371 |
|      50 | 0x1CCC      |        7372 |
|      51 | 0x1CCD      |        7373 |
|      52 | 0x1CCF      |        7375 |
|      53 | 0x0078      |         120 |
|      54 | 0x000D      |          13 |
|      55 | 0x0082      |         130 |
|      56 | 0x1C83      |        7299 |
|      57 | 0x1C84      |        7300 |
|      58 | 0x1C82      |        7298 |
|      59 | 0x1C7A      |        7290 |
|      60 | 0x2E63      |       11875 |
|      61 | 0x2E9B      |       11931 |
|      62 | 0x2E9C      |       11932 |
|      63 | 0x2E8B      |       11915 |
|      64 | 0x2E8C      |       11916 |
|      65 | 0x2E8D      |       11917 |
|      66 | 0x1C42      |        7234 |
|      67 | 0x1C7C      |        7292 |
|      68 | 0x1C7D      |        7293 |
|      69 | 0x1C7E      |        7294 |
|      70 | 0x1C7F      |        7295 |
|      71 | 0x1C80      |        7296 |
|      72 | 0x1C7B      |        7291 |
|      73 | 0x000E      |          14 |
|      74 | 0x000F      |          15 |
|      75 | 0x008E      |         142 |
|      76 | 0x1C48      |        7240 |
|      77 | 0x1C6E      |        7278 |
|      78 | 0x1C4C      |        7244 |
|      79 | 0x1C4B      |        7243 |
|      80 | 0x1C4A      |        7242 |
|      81 | 0x1C49      |        7241 |
|      82 | 0x1C85      |        7301 |
|      83 | 0x1C86      |        7302 |
|      84 | 0x1CA0      |        7328 |
|      85 | 0x1C87      |        7303 |
|      86 | 0x1CDC      |        7388 |
|      87 | 0x1C88      |        7304 |
|      88 | 0x1C89      |        7305 |
|      89 | 0x1CD5      |        7381 |
|      90 | 0x1CD6      |        7382 |
|      91 | 0x1CD7      |        7383 |
|      92 | 0x00C9      |         201 |
|      93 | 0x1C45      |        7237 |
|      94 | 0x01A8      |         424 |
|      95 | 0x00C8      |         200 |
|      96 | 0x001E      |          30 |
|      97 | 0x033C      |         828 |
|      98 | 0x033E      |         830 |
|      99 | 0x2710      |       10000 |
|     100 | 0x1CAB      |        7339 |
|     101 | 0x1CAC      |        7340 |
|     102 | 0x1CAD      |        7341 |
|     103 | 0x1CAE      |        7342 |
|     104 | 0x1CAF      |        7343 |
|     105 | 0x1CB0      |        7344 |
|     106 | 0x1CB1      |        7345 |
|     107 | 0x1CB2      |        7346 |
|     108 | 0x1D1E      |        7454 |
|     109 | 0x1D1F      |        7455 |
|     110 | 0x40000000  |  1073741824 |
|     111 | 0x1D20      |        7456 |
|     112 | 0x1CB3      |        7347 |
|     113 | 0x1CB9      |        7353 |
|     114 | 0x074B      |        1867 |
|     115 | 0x186A0     |      100000 |
|     116 | 0x1CB4      |        7348 |
|     117 | 0x1CB5      |        7349 |
|     118 | 0x1CB6      |        7350 |
|     119 | 0x1CB7      |        7351 |
|     120 | 0x1CB8      |        7352 |
|     121 | 0x1003      |        4099 |
|     122 | 0x0656      |        1622 |
|     123 | 0x0356      |         854 |
|     124 | 0x0334      |         820 |
|     125 | 0x0349      |         841 |
|     126 | 0x0319      |         793 |
|     127 | 0x1CBA      |        7354 |
|     128 | 0x1CBB      |        7355 |
|     129 | 0x1CBC      |        7356 |
|     130 | 0x1CBD      |        7357 |
|     131 | 0x1CBE      |        7358 |
|     132 | 0x1CBF      |        7359 |
|     133 | 0x1CC0      |        7360 |
|     134 | 0x1CC1      |        7361 |
|     135 | 0x1CC2      |        7362 |
|     136 | 0x1CC3      |        7363 |
|     137 | 0x1CC4      |        7364 |
|     138 | 0x1CC5      |        7365 |
|     139 | 0x1CC6      |        7366 |
|     140 | 0x1CC7      |        7367 |
|     141 | 0x003C      |          60 |
|     142 | 0x0013      |          19 |
|     143 | 0xFFFF646F  |  4294927471 |
|     144 | 0xFFFE2B61  |  4294847329 |
|     145 | 0xFFFFFB1F  |  4294966047 |
|     146 | 0x01A5      |         421 |
|     147 | 0x0156      |         342 |
|     148 | 0x0015      |          21 |
|     149 | 0x3373      |       13171 |
|     150 | 0x3374      |       13172 |
|     151 | 0x3375      |       13173 |
|     152 | 0x3376      |       13174 |
|     153 | 0x3377      |       13175 |
|     154 | 0x00F0      |         240 |
|     155 | 0x3378      |       13176 |
|     156 | 0x3379      |       13177 |
|     157 | 0x337A      |       13178 |
|     158 | 0x0020      |          32 |
|     159 | 0x337B      |       13179 |
|     160 | 0x337C      |       13180 |
|     161 | 0x337D      |       13181 |
|     162 | 0x337E      |       13182 |
|     163 | 0x3A2A      |       14890 |
|     164 | 0x3A2B      |       14891 |
|     165 | 0x3A3A      |       14906 |
|     166 | 0x3A3B      |       14907 |
|     167 | 0x3A17      |       14871 |
|     168 | 0x3A18      |       14872 |
|     169 | 0x3A19      |       14873 |
|     170 | 0x3A1A      |       14874 |
|     171 | 0x3A1B      |       14875 |
|     172 | 0x3A1C      |       14876 |
|     173 | 0x3A1D      |       14877 |
|     174 | 0x3A1E      |       14878 |
|     175 | 0x3A1F      |       14879 |
|     176 | 0x3A20      |       14880 |
|     177 | 0x3A21      |       14881 |
|     178 | 0x3A22      |       14882 |
|     179 | 0x3A23      |       14883 |
|     180 | 0x3A24      |       14884 |
|     181 | 0x3A25      |       14885 |
|     182 | 0x3A26      |       14886 |
|     183 | 0x3A27      |       14887 |
|     184 | 0x3A28      |       14888 |
|     185 | 0x3A29      |       14889 |
|     186 | 0x3A3C      |       14908 |
|     187 | 0x3A3D      |       14909 |
|     188 | 0x3A3E      |       14910 |
|     189 | 0x3A3F      |       14911 |
|     190 | 0x3A40      |       14912 |
|     191 | 0x3A41      |       14913 |
|     192 | 0x3A42      |       14914 |
|     193 | 0x3A43      |       14915 |
|     194 | 0x3A44      |       14916 |
|     195 | 0x3A45      |       14917 |
|     196 | 0x3A46      |       14918 |
|     197 | 0x3A51      |       14929 |
|     198 | 0x3A52      |       14930 |
|     199 | 0x3A53      |       14931 |
|     200 | 0x3A54      |       14932 |
|     201 | 0x3A55      |       14933 |
|     202 | 0x3A56      |       14934 |
|     203 | 0x3A57      |       14935 |
|     204 | 0x3A58      |       14936 |
|     205 | 0x3A59      |       14937 |
|     206 | 0x3A5A      |       14938 |
|     207 | 0x3A5B      |       14939 |
|     208 | 0x3A5C      |       14940 |
|     209 | 0x3A62      |       14946 |
|     210 | 0x3A75      |       14965 |
|     211 | 0x3A76      |       14966 |
|     212 | 0x3A77      |       14967 |
|     213 | 0x3A78      |       14968 |
|     214 | 0x3A79      |       14969 |
|     215 | 0x3A7A      |       14970 |
|     216 | 0xFFFFFFFF  |  4294967295 |
|     217 | 0x3A6B      |       14955 |
|     218 | 0x3A6C      |       14956 |
|     219 | 0x3A63      |       14947 |
|     220 | 0x3A64      |       14948 |
|     221 | 0x3A65      |       14949 |
|     222 | 0x3A66      |       14950 |
|     223 | 0x3A67      |       14951 |
|     224 | 0x3A68      |       14952 |
|     225 | 0x3A69      |       14953 |
|     226 | 0x3A6A      |       14954 |
|     227 | 0x3A6D      |       14957 |
|     228 | 0x3A6E      |       14958 |
|     229 | 0x3A6F      |       14959 |
|     230 | 0x3A2C      |       14892 |
|     231 | 0x3A2D      |       14893 |
|     232 | 0x3A2E      |       14894 |
|     233 | 0x3A2F      |       14895 |
|     234 | 0x3A30      |       14896 |
|     235 | 0x3A31      |       14897 |
|     236 | 0x3A47      |       14919 |
|     237 | 0x3A48      |       14920 |
|     238 | 0x3A49      |       14921 |
|     239 | 0x3A4A      |       14922 |
|     240 | 0x3A4B      |       14923 |
|     241 | 0x3A70      |       14960 |
|     242 | 0x3A7B      |       14971 |
|     243 | 0x3A32      |       14898 |
|     244 | 0x3A33      |       14899 |
|     245 | 0x3A34      |       14900 |
|     246 | 0x3A80      |       14976 |
|     247 | 0x3A81      |       14977 |
|     248 | 0x3A50      |       14928 |
|     249 | 0x3A35      |       14901 |
|     250 | 0x3A36      |       14902 |
|     251 | 0x3A37      |       14903 |
|     252 | 0x3A38      |       14904 |
|     253 | 0x3A39      |       14905 |
|     254 | 0x3A4C      |       14924 |
|     255 | 0x3A4D      |       14925 |
|     256 | 0x3A4E      |       14926 |
|     257 | 0x3A4F      |       14927 |
|     258 | 0x3A71      |       14961 |
|     259 | 0x3A72      |       14962 |
|     260 | 0x3A73      |       14963 |
|     261 | 0x3A74      |       14964 |
|     262 | 0x3A7C      |       14972 |
|     263 | 0x3A7D      |       14973 |
|     264 | 0x3A7E      |       14974 |
|     265 | 0x3A7F      |       14975 |
|     266 | 0x3A82      |       14978 |
|     267 | 0x3A83      |       14979 |
|     268 | 0x3A84      |       14980 |
|     269 | 0x3A85      |       14981 |
|     270 | 0x3A86      |       14982 |
|     271 | 0x3A5D      |       14941 |
|     272 | 0x3A5E      |       14942 |
|     273 | 0x3A5F      |       14943 |
|     274 | 0x3A60      |       14944 |
|     275 | 0x3A61      |       14945 |
|     276 | 0x001D      |          29 |
|     277 | 0x0027      |          39 |
|     278 | 0x003B      |          59 |
|     279 | 0x0045      |          69 |

## String References

- **7234**: Join the [Fishermen's/Carpenters'/Blacksmiths'/Goldsmiths'/Weavers'/Tanners'/Boneworkers'/Alchemists'/Culinarians'] Guild? [Sign up./That's not why you're here.]
- **7237**: You are now recognized as [an amateur/a recruit/an initiate/a novice/an apprentice/a journeyman/a craftsman/an artisan/an adept/a veteran/an expert/an authority/a luminary/a master/a grandmaster/a legend] of the [Fishermen's/Carpenters'/Blacksmiths'/Goldsmiths'/Weavers'/Tanners'/Boneworkers'/Alchemists'/Culinarians'] Guild.
- **7240**: Necessary skills: [Fishing/Woodworking/Smithing/Goldsmithing/Clothcraft/Leatherworking/Bonecraft/Alchemy/Cooking][ /, Woodworking/, Smithing/, Goldsmithing/, Clothcraft/, Leatherworking/, Bonecraft/, Alchemy/, Cooking][ /, Woodworking/, Smithing/, Goldsmithing/, Clothcraft/, Leatherworking/, Bonecraft/, Alchemy/, Cooking][ /, & Woodworking/, & Smithing/, & Goldsmithing/, & Clothcraft/, & Leatherworking/, & Bonecraft/, & Alchemy/, & Cooking] Necessary crystal: $4 Necessary items:
- **7241**: $4 x $0 $5 x $0$0 $6 x $0 $7 x $0$3
- **7242**: $4 x $0 $5 x $0$0 $6 x $0
- **7243**: $4 x $0 $5 x $0$0
- **7244**: $4 x $0
- **7278**: Necessary skills: [Fishing/Woodworking/Smithing/Goldsmithing/Clothcraft/Leatherworking/Bonecraft/Alchemy/Cooking][ /, Woodworking/, Smithing/, Goldsmithing/, Clothcraft/, Leatherworking/, Bonecraft/, Alchemy/, Cooking][ /, Woodworking/, Smithing/, Goldsmithing/, Clothcraft/, Leatherworking/, Bonecraft/, Alchemy/, Cooking][ /, & Woodworking/, & Smithing/, & Goldsmithing/, & Clothcraft/, & Leatherworking/, & Bonecraft/, & Alchemy/, & Cooking] Necessary crystal: $4 Necessary key item: $3 Necessary items:
- **7286**: Renounce your rank at which guild? [None./Carpenters'./Blacksmiths'./Goldsmiths'./Weavers'./Tanners'./Boneworkers'./Alchemists'./Culinarians'.]
- **7287**: If you proceed, your rank in the [Carpenters'/Blacksmiths'/Goldsmiths'/Weavers'/Tanners'/Boneworkers'/Alchemists'/Culinarians'] Guild will return to that of [craftsman/artisan/adept], and your skill value will revert to the maximum for that level. This procedure cannot be undone, so please consider your decision carefully.
- **7288**: Renounce your rank as a [Carpenter/Blacksmith/Goldsmith/Weaver/Tanner/Boneworker/Alchemist/Culinarian]? [No, retain./Yes, renounce.]
- **7290**: Well, well, well... What is a [handsome/charming] adventurer like you doing in the Weavers' Guild? This is a place for sewers and tailors.
- **7291**: Well, you're free to look around, but just don't put your grimy hands on any of the merchandise.
- **7292**: Marvelous! Someone with your fashion sense is more than welcome in our guild! I think we'll start you off with crystal synthesis.
- **7293**: By using the power in those lovely crystals you find all over the place, we can make all kinds of wonderful garments.
- **7294**: But it's not as easy as you might think, sweetheart. You must form a perfect image in your mind of the final product, or you'll get nothing but a handful of crystal shards.
- **7295**: However, the more you try, the clearer your mind will become. I'm sure you've heard the saying, "practice makes perfect."
- **7296**: Someday, you may even be the next Goochichi-Vinchichi! If you need any assistance, feel free to ask my colleagues here in the guild.
- **7297**: Sewing, tailoring, spinning... The road to becoming a master weaver is long. So, why not take time to stop and smell the flowers along the way?
- **7298**: I can see it now--the day will come when all Vana'diel garments have the <Player> logo on them...
- **7299**: I think that you are ready to move up in the fashion world. Don't think of this as a test, but I'd like you to make me $0.
- **7300**: If it catches my eye, I'll let you in on some of my trade secrets.
- **7301**: ... Marvelous! You will now be referred to as [an amateur/a recruit/an initiate/a novice/an apprentice] in our fine establishment! I just love your work!
- **7302**: Marvelous! Simply marvelous! From this day forth, your new title is journeyman! I just hope you'll have your next work out in time for the winter line!
- **7303**: Wonderful work! Your designs are beginning to parallel those of the top fashion artists! You are now an official artisan!
- **7304**: Marvelous... Truly marvelous... Your works are no longer merely simple clothes made to be worn, but works of art where the wearer is merely a display case for your genius! I am proud to call you an adept!
- **7305**: Well, I'm just speechless! You have become a true veteran! I'm so happy I could just get up and dance!
- **7328**: Marvelous! Once again, your work amazes me! You have proved yourself worthy of the title of craftsman!
- **7339**: Hm? A special order? Well, get in line, honey. The minimum wait on genuine Ponono is at least six years.
- **7340**: .........
- **7341**: I see that your situation is a little more severe than a supper party at the consulate's mansion. However, even if I do help you out, I'm not so sure how much luck you'll have in fooling those sly birdmen.
- **7342**: And what if you get caught? Officials on both sides will start asking questions, snooping around...and before you know it, the costume will lead them right back to me! I could be ruined!
- **7343**: ...But on the other hand, if you succeed, it would prove that my designs were even irresistible to the beastmen! Alright, I'll do it! Go out and find $0 and $1, and I'll get started on the pattern design.
- **7344**: Oh, and I'll need $2 gil as well for supplies. What? You don't think parchment grows on trees now, do you? What? It does?
- **7345**: Calm down, calm down. I'm still working on the design. I could be weaving vermillion cloaks, you know. Anyway, come back later, and don't forget the $0, the $1, and the $2 gil I asked for.
- **7346**: What's this? You're not thinking about abandoning this splendid venture, are you?
- **7347**: You're just in time, my friend. I've completed the design and now I can begin working on the pattern. I'll need a couple of days, but you don't mind waiting a little longer, do you?
- **7348**: ...... Don't tell me you've...you've...you've lost an original Ponono pattern!? Just think if one were to make its way to the black market! They'd be making fake Pononos left and right! I'd be ruined!
- **7349**: And I bet you want another one, right? [You read my mind./Actually, no./I've had enough of this...]
- **7350**: Well...alright. But only because I like you...and only because you're going to pay me $1 gil to make you a new one.
- **7351**: Pay $1 gil? [Of course!/You've got to be crazy!]
- **7352**: Okay. I'll forgive you this time, but don't let it happen again! Come back in a few days to pick up the pattern.
- **7353**: You cannot rush a great artist! Can Goochichi-Vinchichi sew a luxurious handbag in a day? Can Naphille piece together one of her pochettes with a sweaty adventurer breathing down her neck? I think you know the answer. Now shoo!
- **7354**: The cutting is complete! And quite a masterpiece, I must say.
- **7355**: And now the rest is up to you. The following is a list of items you will need to put the finishing touches on your headpiece:
- **7356**: One $0, my $1, $2, $3, $4, and two $5.
- **7357**: Oh, and don't forget two $6. Did you get all that?
- **7358**: And I hope you've been brushing up on your bonecrafting and leatherworking skills. Hey, I didn't say that this job would be easy.
- **7359**: But I have one hundred and two-percent faith in you. I know you have what it takes to pull off this project. I would've kicked you out of my guild a long time ago if you didn't!
- **7360**: And once the headpiece is finished, you'll be the [most handsome/hottest] Yagudo in Vana'diel!
- **7361**: What? Did you think that I was going to finish the project for you? I'm sorry, <Player>, but as much as I'd love to help you, I cannot put my guild and the people that work here at risk. Do you see poor Anillah over there? She has nine little brothers and sisters to feed!
- **7362**: But I do understand that you definitely do not have enough skill to pull off this job on your own.
- **7363**: How about this...
- **7364**: I'll give you the recipe for the headpiece. You jot that down, and then go out and find one of my star pupils and have her make it for you! You'll need the following things:
- **7365**: You should have no problem finding a kind adventurer to whip together that hat for you.
- **7366**: Just make sure she's a weaving adept, and that she has skills in bone and leathercraft.
- **7367**: Oh, and don't forget to thank her generously for her services. Climbing the weaver ranks is not easy...and definitely not cheap!
- **7371**: As [a veteran/an expert/an authority/a luminary/a master], your garments are the talk of the town. And yet the world of fashion is ever evolving! Are you ready to join the ranks of Vana'diel's legendary clothing designers?
- **7372**: Move up in the world? [I sure will!/I'll stay where I am.]
- **7373**: Splendid! You've got a true eye for fashion, hon, and I'd hate to see that go to waste. First, you'll want to speak to Hauh Colphioh and get yourself a copy of $6.
- **7374**: She'll be taking some guild points off your hands, but that's a small price to pay for the chance at seeing your name in boutiques all across Vana'diel, wouldn't you say?
- **7375**: For shame! And here I thought <Player> was destined to be the latest fashion craze. But hey. If you don't want all the adoring fans, hon, I'll be more than happy to take them.
- **7376**: First, you'll want to speak to Hauh Colphioh and get yourself a copy of $6.
- **7377**: Read $6 cover to cover, have you? Then whip out your needle and thread and let's get weaving!
- **7378**: Your task will be to make me $2. First, you'll be needing to round up the necessary materials. To wit...
- **7379**: And whatever you do, don't forget to stitch your logo into your work. You don't need me to tell you that in the world of fashion, brand recognition is everything!
- **7380**: Aren't you the forgetful one? But don't sweat it, sweetheart, we all have our days. To make $2, you'll be needing...
- **7381**: Marvelous! Simply marvelous! I knew <Player> was destined to be the next hot name in the fashion world. From this day forward, I call you an expert!
- **7382**: Did you pick this up off the bargain bin? No? Well, how do you expect me to know that if you don't sign your work!?
- **7383**: If you want your customers to remember the name <Player>, you'll have to put it where they can see it. Hope you've got enough thread for another go-round, 'cause your work isn't done yet.
- **7384**: I'm beginning to see that you are no ordinary adventurer. Maybe it's time that you got serious about weaving. Bring me a handmade $0.
- **7385**: If your designs are as marvelous as people around the city are starting to say, I'll grant you the title of [artisan/adept/veteran].
- **7386**: But you'll have to remember...there is still a lot left to learn. Stick your hands into the cookie jars of too many guilds, and you'll get full!
- **7387**: If you still wish to pursue your studies in other guilds, I must ask you to part with us here.
- **7388**: But you'll have to remember...there is still a lot left to learn. Stick your hands into the cookie jars of too many guilds, and you'll get full! Focus on the fabric, and you'll have nothing to fear.
- **7389**: Do you remember what I told you back when you were a brand-spanking-new [artisan/adept/veteran] of our guild? Sticking your hands into the cookie jars of too many guilds? Getting full? Ring any bells?
- **7390**: Well, you must have one terrible memory, because you've gone and done just that! Haven't you noticed that your weaving skills aren't improving like they used to?
- **7391**: It's all because you can't focus on the fabric with all this other junk in your tiny little brain! Now, if you were to give up your [artisan/adept/veteran] status at those other guilds...
- **7392**: Why, you could clear your mind and start weaving again! You needn't even worry about informing the other guildmasters of your decision. Leave that all to me! What do you say?
- **7393**: And here I thought we had the next big look.
- **7394**: Looks like <Player> is just another brand headed for the bargain bin...
- **7454**: If you choose to give up, the quest will be canceled and your quest log reset.
- **7455**: Cancel the quest? [Yes./No.]
- **7456**: Do you really wish to cancel the quest? [I really do./I guess I don't.]
- **11875**: Ask if this person is the chick's owner? [Yes./No.]
- **11915**: Well, well, well... You've found my little bundle of joy!?
- **11916**: Oh, thank you! To show my gratitude, let me teach you a story I often tell my chocobo...
- **11917**: Hm... What kind of clothes should I make for her next?
- **11931**: Well, well, well... You think you've found my chocobo, do you?
- **11932**: Sorry to tell you, but it can't be mine. I was just playing dress-up with my chocobo just a few moments ago!
- **13171**: Oh my!
- **13172**: That wristband!
- **13173**: Why, if it isn't one of the charm bracelets I crafty-wafted for our stalwartaru soldiers back in the days of the Great War!
- **13174**: Ahhh...just seeing it really bringy-wings me back. Though I see that two of the threads have come undone.
- **13175**: Look at how they dangle from your wristaru. The shape they form almost looks like a ladle...ah!
- **13176**: ...That reminds me. You must be curious about the secretaru of the third string.
- **13177**: A ladle with a holey-wole in it... This is said to represent the mystic power of Lake Tepokalipuka's waters.
- **13178**: A secret once known to my ancestarus, but long since lost to the ages...
- **13179**: And yet somehow, I feel that I finally understand... Tepoka...lipuka... Yes, it musty-wust be--
- **13181**: Oh! How could I forgetaru?
- **13182**: I wish I had more time to chat, but an artisan's guild comes first and foremostaru, you see. Please excusey-wuse me, and do take care!
- **14871**: Oh, hello-wello. What is that shield you are carrying?
- **14872**: Oh! I see you must have had a meeting-weeting with her already.
- **14873**: Yes, I have heard all aboutaru it. It is a shield that can increase one's crafting abilities. I was quite surprised when I heard the story.
- **14874**: If that story is for real-weal, then I definitely would like to see it for myself.
- **14875**: I know all about your talentaru, and if she chose you too, it must mean you have the qualifications necessary to make the shield.
- **14876**: Now, allow me to teach you the recipe-wecipe.
- **14877**: So, with this particular ingredientaru list, you first need to obtain $1.
- **14878**: This item is needed to boostaru the Craftsmanship of the $0 to its full potential.
- **14879**: I actually received some notes on the topic-wopic of Craftsmanship. Please bear with me while I go over them.
- **14880**: You can increase Craftsmanship by crafting items that match up with your skill while you have the $0 equipped.
- **14881**: Craftsmanship will increase greatly when you fulfill certain conditions, but crafting the same item over and over again will reduce your gains, so try synthesizing something different if you run into trouble.
- **14882**: In its default state, the shield has the unfortunate tendency to lower the success rate of your crafting, but as its Craftsmanship rises, it mitigates that effect.
- **14883**: You can tell the Craftsmanship rating as well as the crafting success rate by looking at the shield. Good luck to you. Mwahaha...
- **14884**: So, did you find that little tidbitaru of information useful?
- **14885**: Once the Craftsmanship is high enough, come to me and I will make you the $1.
- **14886**: After that, you'll need $2 and $3 nextaru, which you can obtain from Julissois.
- **14887**: I assume you are no stranger-wranger to making deliveries. That is basically how you will get the ingredients you need.
- **14888**: You can speak with Julissois for more information.
- **14889**: That covers the ingredient listaru. Please bring the shield by once you have made the upgrade. I'm curious to see it for myself.
- **14890**: Hm? You say you forgotaru the recipe already? Wait just a moment and I will get you the list again. Professional craftsmen really need to remember these kinds of things.
- **14891**: You have worked hard to master your craftaru. I have faith that you can handle this.
- **14892**: I see... That's the ticketaru. I should be able to use this to make the $0.
- **14893**: This mustaru be the $0.
- **14894**: I am not sure how the whole thing works, but it is amazing to think that I can pour my soul-woul into this shield somehow.
- **14895**: Oh, it seems that when the $0 was wroughtaru, it somehow reduced the Craftsmanship of the $1.
- **14896**: That is not a problem if you wantaru to upgrade the $1, but if you need to make another $0, you would need to increase the Craftsmanship again.
- **14897**: Of course, you're not the type to lose something so valuable-waluable and need to replace it.
- **14898**: Impossible. You mean to tell me that you actually lostaru the $0?
- **14899**: Well, I suppose these things happen-wappen. I'll make another $0, so please let me borrow your shield.
- **14900**: You are a professional craftsman. As such, it should not be so difficultaru to take care of your ingredients.
- **14901**: It appears you made the upgrade without incidentaru. Do you mind if I take a look?
- **14902**: Oh... I can see that it has changed, and it is giving off a faintaru energy. However, you can tell that it is not complete yet.
- **14903**: No, you must craft it multiple-wultiple times in order to achieve the level you seek. That is what she told me anyway.
- **14904**: That reminds me... She asked for some kind of sign after the shield is complete. Please give me a momentaru.
- **14905**: That should do it.
- **14906**: Now, take this shield to Mewk Chorosap in Jeuno and everything will be perfectaru.
- **14907**: Oh, justaru one more thing. I often have deliveries for Julissois, and would appreciate it if you could help me train the younger members of the guild.
- **14908**: Welcome. Our mutual friend told me you would be paying me a visitaru.
- **14909**: You're here to upgrade your shield, right? Firstaru, you'll need to learn the recipe.
- **14910**: You're awfully quietaru. Did you get that?
- **14911**: As for the listaru of ingredients, the first thing you'll need is the $1.
- **14912**: You'll need to equip the $0 while you craftaru until you boost its Craftsmanship to 100%.
- **14913**: Do you remember equipping the aspis while you were crafting before? This is basically the same conceptaru.
- **14914**: Once it reaches 100%, bring it to me so I can inspectaru it and make the $1.
- **14915**: Next is the $2 and the $3. You are familiar with the $3 from before. You can requestaru both of them from Julissois.
- **14916**: The lastaru thing you'll need is the $4. Together with the A.M.A.N., I've prepared some Records of Eminence objectives for you.
- **14917**: You can refer to the Records of Eminence menu for additional information. Once you complete all of them, you will receive a perfectaru $4.
- **14918**: That concludes my explanation on the ingredients. You are a person of great talentaru. I know you'll do an excellent job.
- **14919**: Oh, it looks like you've given a nice boostaru to the shield's Craftsmanship.
- **14920**: Now, please waitaru while I make the $0 for you.
- **14921**: Okay, here you go.
- **14922**: Ahh, it's just as I thoughtaru. Making the $0 caused the shield's Craftsmanship to decrease.
- **14923**: Therefore, make sure you take good care of the $0 so you don't have to craftaru it multiple times.
- **14924**: My my! I'm not usually one to make shields, but even I can tell this one is of high quality! You truly are an expertaru craftsman!
- **14925**: Indeed, I can sense greataru power coming from it compared to the last one you made.
- **14926**: Now, before I forgetaru, allow me to mark the shield so you can take it back to her.
- **14927**: There, all finished. Take this shield to Mewk Chorosap and you'll be set.
- **14928**: This kind of thing happens to all of us. You can have another try at the final objective, so make sure you get it rightaru this time.
- **14929**: Well, well, look who's chomping at the bitaru. Let's get down to business, then.
- **14930**: Ah, so you know the recipe already? Then I'll share with you something you might not know.
- **14931**: It's about how to get $4 and $5.
- **14932**: You've got to take orders-worders from the guild and bring them to the person who placed them.
- **14933**: Not only do they have an eye for quality, but they want to see the artisan at work up close.
- **14934**: For the most part, they'll only acceptaru items that you made right at their side.
- **14935**: And you will have to procure the materials yourself. I presume this doesn't pose a problem?
- **14936**: The good news is that some products have been made available at other guilds.
- **14937**: Among these, of course, are synthesis kitarus.
- **14938**: Of course, it's anyone's guess as to whether or not they'll be in stock.
- **14939**: I'll give you $4 and $5 once you have filled all the orders.
- **14940**: Here is the [first/second/last] order.
- **14941**: Deliver $1 $0 to Nouveil in $7.
- **14942**: Deliver $1 $0 to Yaman-Hachuman in the Orastery in $7.
- **14943**: Deliver $1 $0 to Yaman-Hachuman in the Orastery in $7.
- **14944**: Deliver $1 $0 to Nouveil in $7.
- **14945**: For those, it doesn't matter whether or not you make it at their side.
- **14946**: Report back once you have delivered-wivered the items.
- **14947**: Your current requestaru is...
- **14948**: How is everything going?
- **14949**: How is your progress? [Fine./I give up.]
- **14950**: Glad-wad to hear it!
- **14951**: Terrible news indeed! Are you sure there's nothing to be done?
- **14952**: Really give up? [Not yet./Yes.]
- **14953**: That's too bad-wad. I'll just have to get someone else to fill the order.
- **14954**: Not that I can blame you for wanting a break. Let me know when you change your mind.
- **14955**: I trust that everything is going well? Let me give you your next assignment.
- **14956**: I've received work that the order was successfully filled-willed. Well done!
- **14957**: I've received work that the order was successfully filled-willed. Well done!
- **14958**: As promised, let me present you wtih $0 and $1.
- **14959**: If you lose them, I can have them replaced...for a fee.
- **14960**: You've gotten quite the hang of this, haven'taru you?
- **14961**: Ah, yes! The shield!
- **14962**: Well, it looks fabulous indeed, and much lighter than I would have pictured.
- **14963**: I can barely wait to see what the next stage will bring with it!
- **14964**: Ah, but perhaps now you have learned the innermost secrets of weaving. Why not give them a go?
- **14965**: Hello, friend. I see that you are ready-weady to take on the final upgrade.
- **14966**: Now then, let me explain aboutaru how to obtain the necessary materials.
- **14967**: The firstaru two things you'll need are $2 and $3.
- **14968**: I have asked Julissois to hold-wold them for me. You simply need to exchange crafter points for them.
- **14969**: The other material-waterial you'll require is $1. I can produce it for you once your shield's Craftsmanship reaches 100%.
- **14970**: That's it for my explanation. This being the last step, I thought it'd be a more difficultaru undertaking, but I guess not. Do be careful though.
- **14971**: I heard that Mewk Chorosap in Jeuno requires the $0 when it's finished-winished. Please try not to lose it.
- **14972**: Ahh, welcome. Can I help you with something-womething?
- **14973**: I see... The item you're looking for was a special requestaru made by a Tarutaru from Adoulin.
- **14974**: We have a rather difficultaru situation here. I already sent it to Mewk Chorosap in Jeuno.
- **14975**: Therefore, I suppose you should visitaru Jeuno once again and see if it has been delivered.
- **14976**: Ah, you came at just the rightaru time. I found that item you were looking for stuck in my loom.
- **14977**: Hm? You need this thing? Yes, it was for you all along, so I don't see any problem-wroblem with you taking it.
- **14978**: Ahh, welcome. This must be it...
- **14979**: Yes, the shield is quite amazing. I can tell justaru how much work has gone into its creation.
- **14980**: The guild emblem that I worked so hard to lovingly-wovingly craft is nicely on display. It turned out even better than I expected.
- **14981**: Now that you're finished, I would like to teach-weach you this new crafting technique.
- **14982**: I know that you will be able to use this technique to further hone your craftaru. I look forward to seeing what you can become.

## Events

### Event 65535

#### Metadata

| Field        | Value   |
|--------------|---------|
| Entrypoint   | 0x0000  |
| Data Size    | 1 bytes |
| Instructions | 1       |

```
      00 01 02 03 04 05 06 07  08 09 0A 0B 0C 0D 0E 0F
      -- -- -- -- -- -- -- --  -- -- -- -- -- -- -- --
0000: 00                                                .               
```

#### Opcodes

```
  0: 0x0000 [0x00] END_REQSTACK()
```

### Event 10011

#### Metadata

| Field        | Value      |
|--------------|------------|
| Entrypoint   | 0x0001     |
| Data Size    | 2131 bytes |
| Instructions | 380        |

```
      00 01 02 03 04 05 06 07  08 09 0A 0B 0C 0D 0E 0F
      -- -- -- -- -- -- -- --  -- -- -- -- -- -- -- --
0000:    1E F0 FF FF 7F 03 00  00 00 80 03 01 10 00 80   ...............
0010: 41 01 80 01 80 06 10 01  00 41 02 80 02 80 06 10  A........A......
0020: 02 00 41 03 80 03 80 06  10 03 00 03 04 00 03 80  ..A.............
0030: 03 08 00 00 80 03 09 00  04 80 41 05 80 06 80 06  ..........A.....
0040: 10 0A 00 03 0B 00 07 10  03 0C 00 08 10 03 0D 00  ................
0050: 09 10 02 0C 00 07 80 04  0E 02 06 03 10 66 08 80  .............f..
0060: F8 FF FF 7F F0 FF FF 7F  74 6C 6B 30 1D 09 80 23  ........tlk0...#
0070: 1D 0A 80 23 1D 0B 80 23  1D 0C 80 23 66 08 80 F8  ...#...#...#f...
0080: FF FF 7F F0 FF FF 7F 74  6C 6B 31 24 0D 80 00 80  .......tlk1$....
0090: 0D 00 25 02 00 10 00 80  00 A0 00 21 00 01 CF 01  ..%........!....
00A0: 02 00 10 0E 80 00 BC 00  03 0E 00 0F 80 03 03 10  ................
00B0: 00 80 3C 0D 00 0E 80 0E  80 01 CF 01 02 00 10 07  ..<.............
00C0: 80 00 D8 00 03 0E 00 10  80 03 03 10 0E 80 3C 0D  ..............<.
00D0: 00 07 80 0E 80 01 CF 01  02 00 10 11 80 00 F4 00  ................
00E0: 03 0E 00 12 80 03 03 10  07 80 3C 0D 00 11 80 0E  ..........<.....
00F0: 80 01 CF 01 02 00 10 03  80 00 5F 01 03 0E 00 13  .........._.....
0100: 80 03 03 10 11 80 3C 0D  00 03 80 0E 80 66 14 80  ......<......f..
0110: F8 FF FF 7F F0 FF FF 7F  6D 73 75 30 1D 15 80 23  ........msu0...#
0120: 53 F8 FF FF 7F F0 FF FF  7F 6D 73 75 30 66 14 80  S........msu0f..
0130: F8 FF FF 7F F0 FF FF 7F  6D 73 75 31 66 08 80 F8  ........msu1f...
0140: FF FF 7F F0 FF FF 7F 64  69 73 30 1D 16 80 23 53  .......dis0...#S
0150: F8 FF FF 7F F0 FF FF 7F  64 69 73 30 01 CF 01 02  ........dis0....
0160: 00 10 17 80 00 7B 01 03  0E 00 18 80 03 03 10 03  .....{..........
0170: 80 3C 0D 00 17 80 0E 80  01 CF 01 02 00 10 19 80  .<..............
0180: 00 97 01 03 0E 00 1A 80  03 03 10 17 80 3C 0D 00  .............<..
0190: 19 80 0E 80 01 CF 01 02  00 10 1B 80 00 B3 01 03  ................
01A0: 0E 00 1C 80 03 03 10 19  80 3C 0D 00 1B 80 0E 80  .........<......
01B0: 01 CF 01 02 00 10 1D 80  00 CF 01 03 0E 00 1E 80  ................
01C0: 03 03 10 1B 80 3C 0D 00  1D 80 0E 80 01 CF 01 48  .....<.........H
01D0: 1F 80 23 24 20 80 00 80  00 80 25 02 00 10 00 80  ..#$ .....%.....
01E0: 00 E8 01 21 00 01 01 02  02 00 10 0E 80 00 01 02  ...!............
01F0: 42 03 01 10 0E 00 43 00  43 01 0C 0C 00 2E 01 01  B.....C.C.......
0200: 02 02 0C 00 07 80 04 0C  02 01 8B 00 21 00 3E 05  ............!.>.
0210: 10 03 80 25 05 02 04 10  21 80 03 18 05 07 03 10  ...%....!.......
0220: 07 80 02 03 10 04 10 03  37 02 1A 31 09 1D 22 80  ........7..1..".
0230: 23 1A 43 09 01 15 05 03  0F 00 0B 00 14 0F 00 02  #.C.............
0240: 80 07 0F 00 23 80 02 04  10 0F 00 00 67 02 1D 24  ....#.......g..$
0250: 80 23 1A 31 09 1D 25 80  23 1D 26 80 23 1A 43 09  .#.1..%.#.&.#.C.
0260: 1D 27 80 23 01 15 05 02  04 10 28 80 00 5D 03 02  .'.#......(..]..
0270: 01 00 0E 80 00 09 03 02  03 00 0E 80 00 F3 02 02  ................
0280: 02 00 0E 80 00 B5 02 03  04 10 29 80 1A 31 09 1D  ..........)..1..
0290: 2A 80 23 1A 43 09 03 05  00 28 80 03 06 00 01 80  *.#.C....(......
02A0: 03 07 00 29 80 1A FC 05  1A 31 09 1D 2B 80 23 1A  ...).....1..+.#.
02B0: 43 09 01 F0 02 42 03 03  10 2C 80 1A 31 09 1D 2D  C....B...,..1..-
02C0: 80 23 03 04 10 29 80 1D  2E 80 23 1A 43 09 03 05  .#...)....#.C...
02D0: 00 28 80 03 06 00 01 80  03 07 00 29 80 1A FC 05  .(.........)....
02E0: 1A 31 09 1D 2B 80 23 1A  43 09 03 01 10 11 80 2E  .1..+.#.C.......
02F0: 01 06 03 03 03 10 2C 80  1A 31 09 1D 2F 80 23 1D  ......,..1../.#.
0300: 30 80 23 1A 43 09 01 5A  03 03 02 10 00 80 1A 31  0.#.C..Z.......1
0310: 09 1D 31 80 23 1A 43 09  24 32 80 00 80 00 80 25  ..1.#.C.$2.....%
0320: 02 00 10 00 80 00 45 03  42 03 03 10 2C 80 1A 31  ......E.B...,..1
0330: 09 1D 33 80 23 1D 30 80  23 1A 43 09 03 01 10 07  ..3.#.0.#.C.....
0340: 80 2E 01 5A 03 02 00 10  0E 80 00 5A 03 1A 31 09  ...Z.......Z..1.
0350: 1D 34 80 23 1A 43 09 01  5A 03 01 15 05 02 04 10  .4.#.C..Z.......
0360: 28 80 02 07 05 02 01 00  0E 80 00 23 04 02 03 00  (..........#....
0370: 0E 80 00 20 04 02 02 00  0E 80 00 1D 04 03 02 10  ... ............
0380: 04 10 08 02 10 28 80 15  02 10 02 80 02 02 10 0E  .....(..........
0390: 80 80 B8 03 03 04 10 05  80 1A 31 09 1D 2A 80 23  ..........1..*.#
03A0: 1A 43 09 03 05 00 21 80  03 06 00 02 80 03 07 00  .C....!.........
03B0: 05 80 1A FC 05 01 10 04  02 02 10 07 80 80 E4 03  ................
03C0: 03 04 10 06 80 1A 31 09  1D 2A 80 23 1A 43 09 03  ......1..*.#.C..
03D0: 05 00 35 80 03 06 00 05  80 03 07 00 06 80 1A FC  ..5.............
03E0: 05 01 10 04 02 02 10 11  80 80 10 04 03 04 10 36  ...............6
03F0: 80 1A 31 09 1D 2A 80 23  1A 43 09 03 05 00 37 80  ..1..*.#.C....7.
0400: 03 06 00 06 80 03 07 00  36 80 1A FC 05 01 10 04  ........6.......
0410: 1A 31 09 1D 2B 80 23 1A  43 09 01 1D 04 01 20 04  .1..+.#.C..... .
0420: 01 04 05 02 03 00 0E 80  00 04 05 03 02 10 04 10  ................
0430: 08 02 10 28 80 15 02 10  02 80 1A 31 09 1D 31 80  ...(.......1..1.
0440: 23 1A 43 09 24 32 80 00  80 00 80 25 02 00 10 00  #.C.$2.....%....
0450: 80 00 EC 04 42 02 02 10  0E 80 80 81 04 03 04 10  ....B...........
0460: 05 80 1A 31 09 1D 2E 80  23 1A 43 09 03 05 00 21  ...1....#.C....!
0470: 80 03 06 00 02 80 03 07  00 05 80 1A FC 05 01 D9  ................
0480: 04 02 02 10 07 80 80 AD  04 03 04 10 06 80 1A 31  ...............1
0490: 09 1D 2E 80 23 1A 43 09  03 05 00 35 80 03 06 00  ....#.C....5....
04A0: 05 80 03 07 00 06 80 1A  FC 05 01 D9 04 02 02 10  ................
04B0: 11 80 80 D9 04 03 04 10  36 80 1A 31 09 1D 2E 80  ........6..1....
04C0: 23 1A 43 09 03 05 00 37  80 03 06 00 06 80 03 07  #.C....7........
04D0: 00 36 80 1A FC 05 01 D9  04 1A 31 09 1D 2B 80 23  .6........1..+.#
04E0: 1A 43 09 03 01 10 03 80  2E 01 01 05 02 00 10 0E  .C..............
04F0: 80 00 01 05 1A 31 09 1D  34 80 23 1A 43 09 01 01  .....1..4.#.C...
0500: 05 01 04 05 01 15 05 1A  31 09 1D 38 80 23 1D 39  ........1..8.#.9
0510: 80 23 1A 43 09 01 22 05  1A 31 09 1D 3A 80 23 1A  .#.C.."..1..:.#.
0520: 43 09 01 2E 05 1D 3B 80  23 03 00 00 0E 80 02 0A  C.....;.#.......
0530: 00 00 80 02 A0 05 24 3C  80 0E 80 00 80 25 02 00  ......$<.....%..
0540: 10 00 80 00 A0 05 42 07  01 10 17 80 43 00 43 01  ......B.....C.C.
0550: 02 0A 00 07 80 00 72 05  1D 3D 80 23 66 08 80 F8  ......r..=.#f...
0560: FF FF 7F F8 FF FF 7F 74  6C 6B 30 1D 3E 80 23 01  .......tlk0.>.#.
0570: 9C 05 1D 3F 80 23 66 08  80 F8 FF FF 7F F8 FF FF  ...?.#f.........
0580: 7F 74 6C 6B 30 1D 40 80  23 66 08 80 F8 FF FF 7F  .tlk0.@.#f......
0590: F8 FF FF 7F 74 6C 6B 31  1D 41 80 23 21 01 A0 05  ....tlk1.A.#!...
05A0: 02 00 00 0E 80 00 FA 05  03 08 10 03 80 24 42 80  .............$B.
05B0: 00 80 00 80 25 02 00 10  00 80 00 E5 05 1A 53 09  ....%.........S.
05C0: 1D 43 80 23 1D 44 80 23  1A 65 09 1A 31 09 1D 45  .C.#.D.#.e..1..E
05D0: 80 23 1D 46 80 23 1A 43  09 1D 47 80 23 03 01 10  .#.F.#.C..G.#...
05E0: 0E 80 01 FA 05 02 00 10  0E 80 00 FA 05 1A 31 09  ..............1.
05F0: 1D 48 80 23 1A 43 09 01  FA 05 21 00 8C 02 04 00  .H.#.C....!.....
0600: 05 00 06 00 08 00 09 00  8C 01 02 07 00 02 10 C0  ................
0610: 1D 06 03 07 00 00 80 01  4F 07 01 4F 07 02 07 00  ........O..O....
0620: 03 10 C0 30 06 03 07 00  0E 80 01 4F 07 01 4F 07  ...0.......O..O.
0630: 02 07 00 04 10 C0 43 06  03 07 00 07 80 01 4F 07  ......C.......O.
0640: 01 4F 07 02 07 00 05 10  C0 56 06 03 07 00 11 80  .O.......V......
0650: 01 4F 07 01 4F 07 02 07  00 06 10 C0 69 06 03 07  .O..O.......i...
0660: 00 03 80 01 4F 07 01 4F  07 02 07 00 07 10 C0 7C  ....O..O.......|
0670: 06 03 07 00 17 80 01 4F  07 01 4F 07 02 07 00 08  .......O..O.....
0680: 10 C0 8F 06 03 07 00 19  80 01 4F 07 01 4F 07 02  ..........O..O..
0690: 07 00 09 10 C0 A2 06 03  07 00 1B 80 01 4F 07 01  .............O..
06A0: 4F 07 02 07 00 00 17 C0  B5 06 03 07 00 1D 80 01  O...............
06B0: 4F 07 01 4F 07 02 07 00  01 17 C0 C8 06 03 07 00  O..O............
06C0: 01 80 01 4F 07 01 4F 07  02 07 00 02 17 C0 DB 06  ...O..O.........
06D0: 03 07 00 02 80 01 4F 07  01 4F 07 02 07 00 03 17  ......O..O......
06E0: C0 EE 06 03 07 00 05 80  01 4F 07 01 4F 07 02 07  .........O..O...
06F0: 00 04 17 C0 01 07 03 07  00 06 80 01 4F 07 01 4F  ............O..O
0700: 07 02 07 00 05 17 C0 14  07 03 07 00 36 80 01 4F  ............6..O
0710: 07 01 4F 07 02 07 00 06  17 C0 27 07 03 07 00 49  ..O.......'....I
0720: 80 01 4F 07 01 4F 07 02  07 00 07 17 C0 3A 07 03  ..O..O.......:..
0730: 07 00 4A 80 01 4F 07 01  4F 07 02 08 17 00 80 01  ..J..O..O.......
0740: 4F 07 07 08 00 04 80 07  09 00 04 80 01 FC 05 07  O...............
0750: 07 00 08 00 8C 03 04 00  05 00 06 00 07 00 8C 01  ................
0760: 07 44 10 4B 80 03 08 10  04 00 03 03 10 41 10 03  .D.K.........A..
0770: 04 10 42 10 03 05 10 43  10 03 06 10 44 10 03 07  ..B....C....D...
0780: 10 55 10 02 07 10 00 80  00 92 07 48 4C 80 23 01  .U.........HL.#.
0790: 96 07 48 4D 80 23 03 02  10 45 10 03 03 10 46 10  ..HM.#...E....F.
07A0: 03 04 10 47 10 03 05 10  48 10 03 06 10 4D 10 03  ...G....H....M..
07B0: 07 10 4E 10 03 08 10 4F  10 03 09 10 50 10 02 07  ..N....O....P...
07C0: 10 00 80 00 CD 07 48 4E  80 23 01 53 08 02 08 10  ......HN.#.S....
07D0: 00 80 00 DC 07 48 4F 80  23 01 53 08 02 09 10 00  .....HO.#.S.....
07E0: 80 00 EB 07 48 50 80 23  01 53 08 48 51 80 23 03  ....HP.#.S.HQ.#.
07F0: 02 10 49 10 03 03 10 4A  10 03 04 10 4B 10 03 05  ..I....J....K...
0800: 10 4C 10 03 06 10 51 10  03 07 10 52 10 03 08 10  .L....Q....R....
0810: 53 10 03 09 10 54 10 02  06 10 00 80 00 22 08 01  S....T......."..
0820: 53 08 02 07 10 00 80 00  31 08 48 4E 80 23 01 53  S.......1.HN.#.S
0830: 08 02 08 10 00 80 00 40  08 48 4F 80 23 01 53 08  .......@.HO.#.S.
0840: 02 09 10 00 80 00 4F 08  48 50 80 23 01 53 08 48  ......O.HP.#.S.H
0850: 51 80 23 1B                                       Q.#.            
```

#### Opcodes

```
  0: 0x0001 [0x1E] EventEntity looks at LocalPlayer and starts talking
  1: 0x0006 [0x03] ExtData[1]->WorkLocal[0] = 0*
  2: 0x000B [0x03] Work_Zone[1] = 0*
  3: 0x0010 [0x41] ExtData[1]->WorkLocal[1] = Work_Zone[6] (bits 9*-9*)
  4: 0x0019 [0x41] ExtData[1]->WorkLocal[2] = Work_Zone[6] (bits 10*-10*)
  5: 0x0022 [0x41] ExtData[1]->WorkLocal[3] = Work_Zone[6] (bits 4*-4*)
  6: 0x002B [0x03] ExtData[1]->WorkLocal[4] = 4*
  7: 0x0030 [0x03] ExtData[1]->WorkLocal[8] = 0*
  8: 0x0035 [0x03] ExtData[1]->WorkLocal[9] = 16*
  9: 0x003A [0x41] ExtData[1]->WorkLocal[10] = Work_Zone[6] (bits 11*-12*)
 10: 0x0043 [0x03] ExtData[1]->WorkLocal[11] = Work_Zone[7]
 11: 0x0048 [0x03] ExtData[1]->WorkLocal[12] = Work_Zone[8]
 12: 0x004D [0x03] ExtData[1]->WorkLocal[13] = Work_Zone[9]
 13: 0x0052 [0x02] IF !(ExtData[1]->WorkLocal[12] < 2*) GOTO 0x020E
 14: 0x005A [0x06] Work_Zone[3] = 0
 15: 0x005D [0x66] LOAD_EXT_SCHEDULER_MAIN: Load scheduler "tlk0" with entities [EventEntity, LocalPlayer], work=40*
 16: 0x006C [0x1D] PRINT_EVENT_MESSAGE(message_id=7389*)
     "Do you remember what I told you back when you were a brand-spanking-new [artisan/adept/veteran] of our guild? Sticking your hands into the cookie jars of too many guilds? Getting full? Ring any bells?"
 17: 0x006F [0x23] WAIT_FOR_DIALOG_INTERACTION
 18: 0x0070 [0x1D] PRINT_EVENT_MESSAGE(message_id=7390*)
     "Well, you must have one terrible memory, because you've gone and done just that! Haven't you noticed that your weaving skills aren't improving like they used to?"
 19: 0x0073 [0x23] WAIT_FOR_DIALOG_INTERACTION
 20: 0x0074 [0x1D] PRINT_EVENT_MESSAGE(message_id=7391*)
     "It's all because you can't focus on the fabric with all this other junk in your tiny little brain! Now, if you were to give up your [artisan/adept/veteran] status at those other guilds..."
 21: 0x0077 [0x23] WAIT_FOR_DIALOG_INTERACTION
 22: 0x0078 [0x1D] PRINT_EVENT_MESSAGE(message_id=7392*)
     "Why, you could clear your mind and start weaving again! You needn't even worry about informing the other guildmasters of your decision. Leave that all to me! What do you say?"
 23: 0x007B [0x23] WAIT_FOR_DIALOG_INTERACTION
 24: 0x007C [0x66] LOAD_EXT_SCHEDULER_MAIN: Load scheduler "tlk1" with entities [EventEntity, LocalPlayer], work=40*
 25: 0x008B [0x24] CREATE_DIALOG(message_id=7286*, default_option=0*, option_flags=ExtData[1]->WorkLocal[13])
     "Renounce your rank at which guild? [None./Carpenters'./Blacksmiths'./Goldsmiths'./Weavers'./Tanners'./Boneworkers'./Alchemists'./Culinarians'.]"
 26: 0x0092 [0x25] WAIT_DIALOG_SELECT()
 27: 0x0093 [0x02] IF !(Work_Zone[0] == 0*) GOTO 0x00A0
 28: 0x009B [0x21] END_EVENT
 29: 0x009C [0x00] END_REQSTACK()

SUBROUTINE_01CF:
 30: 0x01CF [0x48] [System] [7287*]:
     "If you proceed, your rank in the [Carpenters'/Blacksmiths'/Goldsmiths'/Weavers'/Tanners'/Boneworkers'/Alchemists'/Culinarians'] Guild will return to that of [craftsman/artisan/adept], and your skill value will revert to the maximum for that level. This procedure cannot be undone, so please consider your decision carefully."
 31: 0x01D2 [0x23] WAIT_FOR_DIALOG_INTERACTION
 32: 0x01D3 [0x24] CREATE_DIALOG(message_id=7288*, default_option=0*, option_flags=0*)
     "Renounce your rank as a [Carpenter/Blacksmith/Goldsmith/Weaver/Tanner/Boneworker/Alchemist/Culinarian]? [No, retain./Yes, renounce.]"
 33: 0x01DA [0x25] WAIT_DIALOG_SELECT()
 34: 0x01DB [0x02] IF !(Work_Zone[0] == 0*) GOTO 0x01E8
 35: 0x01E3 [0x21] END_EVENT
 36: 0x01E4 [0x00] END_REQSTACK()

SUBROUTINE_0201:
 37: 0x0201 [0x02] IF !(ExtData[1]->WorkLocal[12] < 2*) GOTO 0x020C
 38: 0x0209 [0x01] GOTO 0x008B
 39: 0x020C [0x21] END_EVENT
 40: 0x020D [0x00] END_REQSTACK()
 41: 0x020E [0x3E] IF !(Work_Zone[5] bit 4*) GOTO 0x0525
 42: 0x0215 [0x02] IF !(Work_Zone[4] >= 110*) GOTO 0x0518
 43: 0x021D [0x07] Work_Zone[3] += 2*
 44: 0x0222 [0x02] IF !(Work_Zone[3] >= Work_Zone[4]) GOTO 0x0237
 45: 0x022A [0x1A] CALL_SUBROUTINE(address=0x0931)
 46: 0x022D [0x1D] PRINT_EVENT_MESSAGE(message_id=7297*)
     "Sewing, tailoring, spinning... The road to becoming a master weaver is long. So, why not take time to stop and smell the flowers along the way?"
 47: 0x0230 [0x23] WAIT_FOR_DIALOG_INTERACTION
 48: 0x0231 [0x1A] CALL_SUBROUTINE(address=0x0943)
 49: 0x0234 [0x01] GOTO 0x0515
 50: 0x0237 [0x03] ExtData[1]->WorkLocal[15] = ExtData[1]->WorkLocal[11]
 51: 0x023C [0x14] ExtData[1]->WorkLocal[15] *= 10*
 52: 0x0241 [0x07] ExtData[1]->WorkLocal[15] += 70*
 53: 0x0246 [0x02] IF !(Work_Zone[4] == ExtData[1]->WorkLocal[15]) GOTO 0x0267
 54: 0x024E [0x1D] PRINT_EVENT_MESSAGE(message_id=7384*)
     "I'm beginning to see that you are no ordinary adventurer. Maybe it's time that you got serious about weaving. Bring me a handmade $0."
 55: 0x0251 [0x23] WAIT_FOR_DIALOG_INTERACTION
 56: 0x0252 [0x1A] CALL_SUBROUTINE(address=0x0931)
 57: 0x0255 [0x1D] PRINT_EVENT_MESSAGE(message_id=7385*)
     "If your designs are as marvelous as people around the city are starting to say, I'll grant you the title of [artisan/adept/veteran]."
 58: 0x0258 [0x23] WAIT_FOR_DIALOG_INTERACTION
 59: 0x0259 [0x1D] PRINT_EVENT_MESSAGE(message_id=7386*)
     "But you'll have to remember...there is still a lot left to learn. Stick your hands into the cookie jars of too many guilds, and you'll get full!"
 60: 0x025C [0x23] WAIT_FOR_DIALOG_INTERACTION
 61: 0x025D [0x1A] CALL_SUBROUTINE(address=0x0943)
 62: 0x0260 [0x1D] PRINT_EVENT_MESSAGE(message_id=7387*)
     "If you still wish to pursue your studies in other guilds, I must ask you to part with us here."
 63: 0x0263 [0x23] WAIT_FOR_DIALOG_INTERACTION
 64: 0x0264 [0x01] GOTO 0x0515
 65: 0x0267 [0x02] IF !(Work_Zone[4] == 100*) GOTO 0x035D
 66: 0x026F [0x02] IF !(ExtData[1]->WorkLocal[1] == 1*) GOTO 0x0309
 67: 0x0277 [0x02] IF !(ExtData[1]->WorkLocal[3] == 1*) GOTO 0x02F3
 68: 0x027F [0x02] IF !(ExtData[1]->WorkLocal[2] == 1*) GOTO 0x02B5
 69: 0x0287 [0x03] Work_Zone[4] = 11000*
 70: 0x028C [0x1A] CALL_SUBROUTINE(address=0x0931)
 71: 0x028F [0x1D] PRINT_EVENT_MESSAGE(message_id=7380*)
     "Aren't you the forgetful one? But don't sweat it, sweetheart, we all have our days. To make $2, you'll be needing..."
 72: 0x0292 [0x23] WAIT_FOR_DIALOG_INTERACTION
 73: 0x0293 [0x1A] CALL_SUBROUTINE(address=0x0943)
 74: 0x0296 [0x03] ExtData[1]->WorkLocal[5] = 100*
 75: 0x029B [0x03] ExtData[1]->WorkLocal[6] = 9*
 76: 0x02A0 [0x03] ExtData[1]->WorkLocal[7] = 11000*
 77: 0x02A5 [0x1A] CALL_SUBROUTINE(address=0x05FC)
 78: 0x02A8 [0x1A] CALL_SUBROUTINE(address=0x0931)
 79: 0x02AB [0x1D] PRINT_EVENT_MESSAGE(message_id=7379*)
     "And whatever you do, don't forget to stitch your logo into your work. You don't need me to tell you that in the world of fashion, brand recognition is everything!"
 80: 0x02AE [0x23] WAIT_FOR_DIALOG_INTERACTION
 81: 0x02AF [0x1A] CALL_SUBROUTINE(address=0x0943)
 82: 0x02B2 [0x01] GOTO 0x02F0
 83: 0x02B5 [0x42] SET_CLI_EVENT_CANCEL_DATA()
 84: 0x02B6 [0x03] Work_Zone[3] = 2012*
 85: 0x02BB [0x1A] CALL_SUBROUTINE(address=0x0931)
 86: 0x02BE [0x1D] PRINT_EVENT_MESSAGE(message_id=7377*)
     "Read $6 cover to cover, have you? Then whip out your needle and thread and let's get weaving!"
 87: 0x02C1 [0x23] WAIT_FOR_DIALOG_INTERACTION
 88: 0x02C2 [0x03] Work_Zone[4] = 11000*
 89: 0x02C7 [0x1D] PRINT_EVENT_MESSAGE(message_id=7378*)
     "Your task will be to make me $2. First, you'll be needing to round up the necessary materials. To wit..."
 90: 0x02CA [0x23] WAIT_FOR_DIALOG_INTERACTION
 91: 0x02CB [0x1A] CALL_SUBROUTINE(address=0x0943)
 92: 0x02CE [0x03] ExtData[1]->WorkLocal[5] = 100*
 93: 0x02D3 [0x03] ExtData[1]->WorkLocal[6] = 9*
 94: 0x02D8 [0x03] ExtData[1]->WorkLocal[7] = 11000*
 95: 0x02DD [0x1A] CALL_SUBROUTINE(address=0x05FC)
 96: 0x02E0 [0x1A] CALL_SUBROUTINE(address=0x0931)
 97: 0x02E3 [0x1D] PRINT_EVENT_MESSAGE(message_id=7379*)
     "And whatever you do, don't forget to stitch your logo into your work. You don't need me to tell you that in the world of fashion, brand recognition is everything!"
 98: 0x02E6 [0x23] WAIT_FOR_DIALOG_INTERACTION
 99: 0x02E7 [0x1A] CALL_SUBROUTINE(address=0x0943)
100: 0x02EA [0x03] Work_Zone[1] = 3*
101: 0x02EF [0x2E] SET_CLI_EVENT_CANCEL_FLAGS()

SUBROUTINE_02F0:
102: 0x02F0 [0x01] GOTO 0x0306
103: 0x02F3 [0x03] Work_Zone[3] = 2012*
104: 0x02F8 [0x1A] CALL_SUBROUTINE(address=0x0931)
105: 0x02FB [0x1D] PRINT_EVENT_MESSAGE(message_id=7376*)
     "First, you'll want to speak to Hauh Colphioh and get yourself a copy of $6."
106: 0x02FE [0x23] WAIT_FOR_DIALOG_INTERACTION
107: 0x02FF [0x1D] PRINT_EVENT_MESSAGE(message_id=7374*)
     "She'll be taking some guild points off your hands, but that's a small price to pay for the chance at seeing your name in boutiques all across Vana'diel, wouldn't you say?"
108: 0x0302 [0x23] WAIT_FOR_DIALOG_INTERACTION
109: 0x0303 [0x1A] CALL_SUBROUTINE(address=0x0943)

SUBROUTINE_0306:
110: 0x0306 [0x01] GOTO 0x035A
111: 0x0309 [0x03] Work_Zone[2] = 0*
112: 0x030E [0x1A] CALL_SUBROUTINE(address=0x0931)
113: 0x0311 [0x1D] PRINT_EVENT_MESSAGE(message_id=7371*)
     "As [a veteran/an expert/an authority/a luminary/a master], your garments are the talk of the town. And yet the world of fashion is ever evolving! Are you ready to join the ranks of Vana'diel's legendary clothing designers?"
114: 0x0314 [0x23] WAIT_FOR_DIALOG_INTERACTION
115: 0x0315 [0x1A] CALL_SUBROUTINE(address=0x0943)
116: 0x0318 [0x24] CREATE_DIALOG(message_id=7372*, default_option=0*, option_flags=0*)
     "Move up in the world? [I sure will!/I'll stay where I am.]"
117: 0x031F [0x25] WAIT_DIALOG_SELECT()
118: 0x0320 [0x02] IF !(Work_Zone[0] == 0*) GOTO 0x0345
119: 0x0328 [0x42] SET_CLI_EVENT_CANCEL_DATA()
120: 0x0329 [0x03] Work_Zone[3] = 2012*
121: 0x032E [0x1A] CALL_SUBROUTINE(address=0x0931)
122: 0x0331 [0x1D] PRINT_EVENT_MESSAGE(message_id=7373*)
     "Splendid! You've got a true eye for fashion, hon, and I'd hate to see that go to waste. First, you'll want to speak to Hauh Colphioh and get yourself a copy of $6."
123: 0x0334 [0x23] WAIT_FOR_DIALOG_INTERACTION
124: 0x0335 [0x1D] PRINT_EVENT_MESSAGE(message_id=7374*)
     "She'll be taking some guild points off your hands, but that's a small price to pay for the chance at seeing your name in boutiques all across Vana'diel, wouldn't you say?"
125: 0x0338 [0x23] WAIT_FOR_DIALOG_INTERACTION
126: 0x0339 [0x1A] CALL_SUBROUTINE(address=0x0943)
127: 0x033C [0x03] Work_Zone[1] = 2*
128: 0x0341 [0x2E] SET_CLI_EVENT_CANCEL_FLAGS()
129: 0x0342 [0x01] GOTO 0x035A
130: 0x0345 [0x02] IF !(Work_Zone[0] == 1*) GOTO 0x035A
131: 0x034D [0x1A] CALL_SUBROUTINE(address=0x0931)
132: 0x0350 [0x1D] PRINT_EVENT_MESSAGE(message_id=7375*)
     "For shame! And here I thought <Player> was destined to be the latest fashion craze. But hey. If you don't want all the adoring fans, hon, I'll be more than happy to take them."
133: 0x0353 [0x23] WAIT_FOR_DIALOG_INTERACTION
134: 0x0354 [0x1A] CALL_SUBROUTINE(address=0x0943)
135: 0x0357 [0x01] GOTO 0x035A

SUBROUTINE_035A:
136: 0x035A [0x01] GOTO 0x0515
137: 0x035D [0x02] IF !(Work_Zone[4] <= 100*) GOTO 0x0507
138: 0x0365 [0x02] IF !(ExtData[1]->WorkLocal[1] == 1*) GOTO 0x0423
139: 0x036D [0x02] IF !(ExtData[1]->WorkLocal[3] == 1*) GOTO 0x0420
140: 0x0375 [0x02] IF !(ExtData[1]->WorkLocal[2] == 1*) GOTO 0x041D
141: 0x037D [0x03] Work_Zone[2] = Work_Zone[4]
142: 0x0382 [0x08] Work_Zone[2] -= 100*
143: 0x0387 [0x15] Work_Zone[2] /= 10*
144: 0x038C [0x02] IF !(Work_Zone[2] == 1*) GOTO 0x03B8
145: 0x0394 [0x03] Work_Zone[4] = 11*
146: 0x0399 [0x1A] CALL_SUBROUTINE(address=0x0931)
147: 0x039C [0x1D] PRINT_EVENT_MESSAGE(message_id=7380*)
     "Aren't you the forgetful one? But don't sweat it, sweetheart, we all have our days. To make $2, you'll be needing..."
148: 0x039F [0x23] WAIT_FOR_DIALOG_INTERACTION
149: 0x03A0 [0x1A] CALL_SUBROUTINE(address=0x0943)
150: 0x03A3 [0x03] ExtData[1]->WorkLocal[5] = 110*
151: 0x03A8 [0x03] ExtData[1]->WorkLocal[6] = 10*
152: 0x03AD [0x03] ExtData[1]->WorkLocal[7] = 11*
153: 0x03B2 [0x1A] CALL_SUBROUTINE(address=0x05FC)
154: 0x03B5 [0x01] GOTO 0x0410
155: 0x03B8 [0x02] IF !(Work_Zone[2] == 2*) GOTO 0x03E4
156: 0x03C0 [0x03] Work_Zone[4] = 12*
157: 0x03C5 [0x1A] CALL_SUBROUTINE(address=0x0931)
158: 0x03C8 [0x1D] PRINT_EVENT_MESSAGE(message_id=7380*)
     "Aren't you the forgetful one? But don't sweat it, sweetheart, we all have our days. To make $2, you'll be needing..."
159: 0x03CB [0x23] WAIT_FOR_DIALOG_INTERACTION
160: 0x03CC [0x1A] CALL_SUBROUTINE(address=0x0943)
161: 0x03CF [0x03] ExtData[1]->WorkLocal[5] = 120*
162: 0x03D4 [0x03] ExtData[1]->WorkLocal[6] = 11*
163: 0x03D9 [0x03] ExtData[1]->WorkLocal[7] = 12*
164: 0x03DE [0x1A] CALL_SUBROUTINE(address=0x05FC)
165: 0x03E1 [0x01] GOTO 0x0410
166: 0x03E4 [0x02] IF !(Work_Zone[2] == 3*) GOTO 0x0410
167: 0x03EC [0x03] Work_Zone[4] = 13*
168: 0x03F1 [0x1A] CALL_SUBROUTINE(address=0x0931)
169: 0x03F4 [0x1D] PRINT_EVENT_MESSAGE(message_id=7380*)
     "Aren't you the forgetful one? But don't sweat it, sweetheart, we all have our days. To make $2, you'll be needing..."
170: 0x03F7 [0x23] WAIT_FOR_DIALOG_INTERACTION
171: 0x03F8 [0x1A] CALL_SUBROUTINE(address=0x0943)
172: 0x03FB [0x03] ExtData[1]->WorkLocal[5] = 130*
173: 0x0400 [0x03] ExtData[1]->WorkLocal[6] = 12*
174: 0x0405 [0x03] ExtData[1]->WorkLocal[7] = 13*
175: 0x040A [0x1A] CALL_SUBROUTINE(address=0x05FC)
176: 0x040D [0x01] GOTO 0x0410

SUBROUTINE_0410:
177: 0x0410 [0x1A] CALL_SUBROUTINE(address=0x0931)
178: 0x0413 [0x1D] PRINT_EVENT_MESSAGE(message_id=7379*)
     "And whatever you do, don't forget to stitch your logo into your work. You don't need me to tell you that in the world of fashion, brand recognition is everything!"
179: 0x0416 [0x23] WAIT_FOR_DIALOG_INTERACTION
180: 0x0417 [0x1A] CALL_SUBROUTINE(address=0x0943)
181: 0x041A [0x01] GOTO 0x041D

SUBROUTINE_041D:
182: 0x041D [0x01] GOTO 0x0420

SUBROUTINE_0420:
183: 0x0420 [0x01] GOTO 0x0504
184: 0x0423 [0x02] IF !(ExtData[1]->WorkLocal[3] == 1*) GOTO 0x0504
185: 0x042B [0x03] Work_Zone[2] = Work_Zone[4]
186: 0x0430 [0x08] Work_Zone[2] -= 100*
187: 0x0435 [0x15] Work_Zone[2] /= 10*
188: 0x043A [0x1A] CALL_SUBROUTINE(address=0x0931)
189: 0x043D [0x1D] PRINT_EVENT_MESSAGE(message_id=7371*)
     "As [a veteran/an expert/an authority/a luminary/a master], your garments are the talk of the town. And yet the world of fashion is ever evolving! Are you ready to join the ranks of Vana'diel's legendary clothing designers?"
190: 0x0440 [0x23] WAIT_FOR_DIALOG_INTERACTION
191: 0x0441 [0x1A] CALL_SUBROUTINE(address=0x0943)
192: 0x0444 [0x24] CREATE_DIALOG(message_id=7372*, default_option=0*, option_flags=0*)
     "Move up in the world? [I sure will!/I'll stay where I am.]"
193: 0x044B [0x25] WAIT_DIALOG_SELECT()
194: 0x044C [0x02] IF !(Work_Zone[0] == 0*) GOTO 0x04EC
195: 0x0454 [0x42] SET_CLI_EVENT_CANCEL_DATA()
196: 0x0455 [0x02] IF !(Work_Zone[2] == 1*) GOTO 0x0481
197: 0x045D [0x03] Work_Zone[4] = 11*
198: 0x0462 [0x1A] CALL_SUBROUTINE(address=0x0931)
199: 0x0465 [0x1D] PRINT_EVENT_MESSAGE(message_id=7378*)
     "Your task will be to make me $2. First, you'll be needing to round up the necessary materials. To wit..."
200: 0x0468 [0x23] WAIT_FOR_DIALOG_INTERACTION
201: 0x0469 [0x1A] CALL_SUBROUTINE(address=0x0943)
202: 0x046C [0x03] ExtData[1]->WorkLocal[5] = 110*
203: 0x0471 [0x03] ExtData[1]->WorkLocal[6] = 10*
204: 0x0476 [0x03] ExtData[1]->WorkLocal[7] = 11*
205: 0x047B [0x1A] CALL_SUBROUTINE(address=0x05FC)
206: 0x047E [0x01] GOTO 0x04D9
207: 0x0481 [0x02] IF !(Work_Zone[2] == 2*) GOTO 0x04AD
208: 0x0489 [0x03] Work_Zone[4] = 12*
209: 0x048E [0x1A] CALL_SUBROUTINE(address=0x0931)
210: 0x0491 [0x1D] PRINT_EVENT_MESSAGE(message_id=7378*)
     "Your task will be to make me $2. First, you'll be needing to round up the necessary materials. To wit..."
211: 0x0494 [0x23] WAIT_FOR_DIALOG_INTERACTION
212: 0x0495 [0x1A] CALL_SUBROUTINE(address=0x0943)
213: 0x0498 [0x03] ExtData[1]->WorkLocal[5] = 120*
214: 0x049D [0x03] ExtData[1]->WorkLocal[6] = 11*
215: 0x04A2 [0x03] ExtData[1]->WorkLocal[7] = 12*
216: 0x04A7 [0x1A] CALL_SUBROUTINE(address=0x05FC)
217: 0x04AA [0x01] GOTO 0x04D9
218: 0x04AD [0x02] IF !(Work_Zone[2] == 3*) GOTO 0x04D9
219: 0x04B5 [0x03] Work_Zone[4] = 13*
220: 0x04BA [0x1A] CALL_SUBROUTINE(address=0x0931)
221: 0x04BD [0x1D] PRINT_EVENT_MESSAGE(message_id=7378*)
     "Your task will be to make me $2. First, you'll be needing to round up the necessary materials. To wit..."
222: 0x04C0 [0x23] WAIT_FOR_DIALOG_INTERACTION
223: 0x04C1 [0x1A] CALL_SUBROUTINE(address=0x0943)
224: 0x04C4 [0x03] ExtData[1]->WorkLocal[5] = 130*
225: 0x04C9 [0x03] ExtData[1]->WorkLocal[6] = 12*
226: 0x04CE [0x03] ExtData[1]->WorkLocal[7] = 13*
227: 0x04D3 [0x1A] CALL_SUBROUTINE(address=0x05FC)
228: 0x04D6 [0x01] GOTO 0x04D9

SUBROUTINE_04D9:
229: 0x04D9 [0x1A] CALL_SUBROUTINE(address=0x0931)
230: 0x04DC [0x1D] PRINT_EVENT_MESSAGE(message_id=7379*)
     "And whatever you do, don't forget to stitch your logo into your work. You don't need me to tell you that in the world of fashion, brand recognition is everything!"
231: 0x04DF [0x23] WAIT_FOR_DIALOG_INTERACTION
232: 0x04E0 [0x1A] CALL_SUBROUTINE(address=0x0943)
233: 0x04E3 [0x03] Work_Zone[1] = 4*
234: 0x04E8 [0x2E] SET_CLI_EVENT_CANCEL_FLAGS()
235: 0x04E9 [0x01] GOTO 0x0501
236: 0x04EC [0x02] IF !(Work_Zone[0] == 1*) GOTO 0x0501
237: 0x04F4 [0x1A] CALL_SUBROUTINE(address=0x0931)
238: 0x04F7 [0x1D] PRINT_EVENT_MESSAGE(message_id=7375*)
     "For shame! And here I thought <Player> was destined to be the latest fashion craze. But hey. If you don't want all the adoring fans, hon, I'll be more than happy to take them."
239: 0x04FA [0x23] WAIT_FOR_DIALOG_INTERACTION
240: 0x04FB [0x1A] CALL_SUBROUTINE(address=0x0943)
241: 0x04FE [0x01] GOTO 0x0501

SUBROUTINE_0501:
242: 0x0501 [0x01] GOTO 0x0504

SUBROUTINE_0504:
243: 0x0504 [0x01] GOTO 0x0515
244: 0x0507 [0x1A] CALL_SUBROUTINE(address=0x0931)
245: 0x050A [0x1D] PRINT_EVENT_MESSAGE(message_id=7299*)
     "I think that you are ready to move up in the fashion world. Don't think of this as a test, but I'd like you to make me $0."
246: 0x050D [0x23] WAIT_FOR_DIALOG_INTERACTION
247: 0x050E [0x1D] PRINT_EVENT_MESSAGE(message_id=7300*)
     "If it catches my eye, I'll let you in on some of my trade secrets."
248: 0x0511 [0x23] WAIT_FOR_DIALOG_INTERACTION
249: 0x0512 [0x1A] CALL_SUBROUTINE(address=0x0943)

SUBROUTINE_0515:
250: 0x0515 [0x01] GOTO 0x0522
251: 0x0518 [0x1A] CALL_SUBROUTINE(address=0x0931)
252: 0x051B [0x1D] PRINT_EVENT_MESSAGE(message_id=7298*)
     "I can see it now--the day will come when all Vana'diel garments have the <Player> logo on them..."
253: 0x051E [0x23] WAIT_FOR_DIALOG_INTERACTION
254: 0x051F [0x1A] CALL_SUBROUTINE(address=0x0943)

SUBROUTINE_0522:
255: 0x0522 [0x01] GOTO 0x052E
256: 0x0525 [0x1D] PRINT_EVENT_MESSAGE(message_id=7290*)
     "Well, well, well... What is a [handsome/charming] adventurer like you doing in the Weavers' Guild? This is a place for sewers and tailors."
257: 0x0528 [0x23] WAIT_FOR_DIALOG_INTERACTION
258: 0x0529 [0x03] ExtData[1]->WorkLocal[0] = 1*

SUBROUTINE_052E:
259: 0x052E [0x02] IF !(ExtData[1]->WorkLocal[10] <= 0*) GOTO 0x05A0
260: 0x0536 [0x24] CREATE_DIALOG(message_id=11875*, default_option=1*, option_flags=0*)
     "Ask if this person is the chick's owner? [Yes./No.]"
261: 0x053D [0x25] WAIT_DIALOG_SELECT()
262: 0x053E [0x02] IF !(Work_Zone[0] == 0*) GOTO 0x05A0
263: 0x0546 [0x42] SET_CLI_EVENT_CANCEL_DATA()
264: 0x0547 [0x07] Work_Zone[1] += 5*
265: 0x054C [0x43] SEND_EVENT_UPDATE: Send pending tag to server (packet 0x005B)
266: 0x054E [0x43] SEND_EVENT_UPDATE: Check pending flag (skip if not pending)
267: 0x0550 [0x02] IF !(ExtData[1]->WorkLocal[10] == 2*) GOTO 0x0572
268: 0x0558 [0x1D] PRINT_EVENT_MESSAGE(message_id=11931*)
     "Well, well, well... You think you've found my chocobo, do you?"
269: 0x055B [0x23] WAIT_FOR_DIALOG_INTERACTION
270: 0x055C [0x66] LOAD_EXT_SCHEDULER_MAIN: Load scheduler "tlk0" with entities [EventEntity, EventEntity], work=40*
271: 0x056B [0x1D] PRINT_EVENT_MESSAGE(message_id=11932*)
     "Sorry to tell you, but it can't be mine. I was just playing dress-up with my chocobo just a few moments ago!"
272: 0x056E [0x23] WAIT_FOR_DIALOG_INTERACTION
273: 0x056F [0x01] GOTO 0x059C
274: 0x0572 [0x1D] PRINT_EVENT_MESSAGE(message_id=11915*)
     "Well, well, well... You've found my little bundle of joy!?"
275: 0x0575 [0x23] WAIT_FOR_DIALOG_INTERACTION
276: 0x0576 [0x66] LOAD_EXT_SCHEDULER_MAIN: Load scheduler "tlk0" with entities [EventEntity, EventEntity], work=40*
277: 0x0585 [0x1D] PRINT_EVENT_MESSAGE(message_id=11916*)
     "Oh, thank you! To show my gratitude, let me teach you a story I often tell my chocobo..."
278: 0x0588 [0x23] WAIT_FOR_DIALOG_INTERACTION
279: 0x0589 [0x66] LOAD_EXT_SCHEDULER_MAIN: Load scheduler "tlk1" with entities [EventEntity, EventEntity], work=40*
280: 0x0598 [0x1D] PRINT_EVENT_MESSAGE(message_id=11917*)
     "Hm... What kind of clothes should I make for her next?"
281: 0x059B [0x23] WAIT_FOR_DIALOG_INTERACTION

SUBROUTINE_059C:
282: 0x059C [0x21] END_EVENT

SUBROUTINE_05A0:
283: 0x05A0 [0x02] IF !(ExtData[1]->WorkLocal[0] == 1*) GOTO 0x05FA
284: 0x05A8 [0x03] Work_Zone[8] = 4*
285: 0x05AD [0x24] CREATE_DIALOG(message_id=7234*, default_option=0*, option_flags=0*)
     "Join the [Fishermen's/Carpenters'/Blacksmiths'/Goldsmiths'/Weavers'/Tanners'/Boneworkers'/Alchemists'/Culinarians'] Guild? [Sign up./That's not why you're here.]"
286: 0x05B4 [0x25] WAIT_DIALOG_SELECT()
287: 0x05B5 [0x02] IF !(Work_Zone[0] == 0*) GOTO 0x05E5
288: 0x05BD [0x1A] CALL_SUBROUTINE(address=0x0953)
289: 0x05C0 [0x1D] PRINT_EVENT_MESSAGE(message_id=7292*)
     "Marvelous! Someone with your fashion sense is more than welcome in our guild! I think we'll start you off with crystal synthesis."
290: 0x05C3 [0x23] WAIT_FOR_DIALOG_INTERACTION
291: 0x05C4 [0x1D] PRINT_EVENT_MESSAGE(message_id=7293*)
     "By using the power in those lovely crystals you find all over the place, we can make all kinds of wonderful garments."
292: 0x05C7 [0x23] WAIT_FOR_DIALOG_INTERACTION
293: 0x05C8 [0x1A] CALL_SUBROUTINE(address=0x0965)
294: 0x05CB [0x1A] CALL_SUBROUTINE(address=0x0931)
295: 0x05CE [0x1D] PRINT_EVENT_MESSAGE(message_id=7294*)
     "But it's not as easy as you might think, sweetheart. You must form a perfect image in your mind of the final product, or you'll get nothing but a handful of crystal shards."
296: 0x05D1 [0x23] WAIT_FOR_DIALOG_INTERACTION
297: 0x05D2 [0x1D] PRINT_EVENT_MESSAGE(message_id=7295*)
     "However, the more you try, the clearer your mind will become. I'm sure you've heard the saying, "practice makes perfect.""
298: 0x05D5 [0x23] WAIT_FOR_DIALOG_INTERACTION
299: 0x05D6 [0x1A] CALL_SUBROUTINE(address=0x0943)
300: 0x05D9 [0x1D] PRINT_EVENT_MESSAGE(message_id=7296*)
     "Someday, you may even be the next Goochichi-Vinchichi! If you need any assistance, feel free to ask my colleagues here in the guild."
301: 0x05DC [0x23] WAIT_FOR_DIALOG_INTERACTION
302: 0x05DD [0x03] Work_Zone[1] = 1*
303: 0x05E2 [0x01] GOTO 0x05FA
304: 0x05E5 [0x02] IF !(Work_Zone[0] == 1*) GOTO 0x05FA
305: 0x05ED [0x1A] CALL_SUBROUTINE(address=0x0931)
306: 0x05F0 [0x1D] PRINT_EVENT_MESSAGE(message_id=7291*)
     "Well, you're free to look around, but just don't put your grimy hands on any of the merchandise."
307: 0x05F3 [0x23] WAIT_FOR_DIALOG_INTERACTION
308: 0x05F4 [0x1A] CALL_SUBROUTINE(address=0x0943)
309: 0x05F7 [0x01] GOTO 0x05FA

SUBROUTINE_05FA:
310: 0x05FA [0x21] END_EVENT
311: 0x05FB [0x00] END_REQSTACK()

SUBROUTINE_05FC:
312: 0x05FC [0x8C] CRAFTING_HANDLER(mode=0x02) // Set recipe data
313: 0x0608 [0x8C] CRAFTING_HANDLER(mode=0x01) // End crafting session
314: 0x060A [0x02] IF !(ExtData[1]->WorkLocal[7] == Work_Zone[2]) GOTO 0x061D
315: 0x0612 [0x03] ExtData[1]->WorkLocal[7] = 0*
316: 0x0617 [0x01] GOTO 0x074F

SUBROUTINE_074F:
317: 0x074F [0x07] ExtData[1]->WorkLocal[7] += ExtData[1]->WorkLocal[8]
318: 0x0754 [0x8C] CRAFTING_HANDLER(mode=0x03) // Get synthesis recipe
319: 0x075E [0x8C] CRAFTING_HANDLER(mode=0x01) // End crafting session
320: 0x0760 [0x07] Work_Zone[68] += 142*
321: 0x0765 [0x03] Work_Zone[8] = ExtData[1]->WorkLocal[4]
322: 0x076A [0x03] Work_Zone[3] = Work_Zone[65]
323: 0x076F [0x03] Work_Zone[4] = Work_Zone[66]
324: 0x0774 [0x03] Work_Zone[5] = Work_Zone[67]
325: 0x0779 [0x03] Work_Zone[6] = Work_Zone[68]
326: 0x077E [0x03] Work_Zone[7] = Work_Zone[85]
327: 0x0783 [0x02] IF !(Work_Zone[7] == 0*) GOTO 0x0792
328: 0x078B [0x48] [System] [7240*]:
     "Necessary skills: [Fishing/Woodworking/Smithing/Goldsmithing/Clothcraft/Leatherworking/Bonecraft/Alchemy/Cooking][ /, Woodworking/, Smithing/, Goldsmithing/, Clothcraft/, Leatherworking/, Bonecraft/, Alchemy/, Cooking][ /, Woodworking/, Smithing/, Goldsmithing/, Clothcraft/, Leatherworking/, Bonecraft/, Alchemy/, Cooking][ /, & Woodworking/, & Smithing/, & Goldsmithing/, & Clothcraft/, & Leatherworking/, & Bonecraft/, & Alchemy/, & Cooking] Necessary crystal: $4 Necessary items:"
329: 0x078E [0x23] WAIT_FOR_DIALOG_INTERACTION
330: 0x078F [0x01] GOTO 0x0796
331: 0x0792 [0x48] [System] [7278*]:
     "Necessary skills: [Fishing/Woodworking/Smithing/Goldsmithing/Clothcraft/Leatherworking/Bonecraft/Alchemy/Cooking][ /, Woodworking/, Smithing/, Goldsmithing/, Clothcraft/, Leatherworking/, Bonecraft/, Alchemy/, Cooking][ /, Woodworking/, Smithing/, Goldsmithing/, Clothcraft/, Leatherworking/, Bonecraft/, Alchemy/, Cooking][ /, & Woodworking/, & Smithing/, & Goldsmithing/, & Clothcraft/, & Leatherworking/, & Bonecraft/, & Alchemy/, & Cooking] Necessary crystal: $4 Necessary key item: $3 Necessary items:"
332: 0x0795 [0x23] WAIT_FOR_DIALOG_INTERACTION

SUBROUTINE_0796:
333: 0x0796 [0x03] Work_Zone[2] = Work_Zone[69]
334: 0x079B [0x03] Work_Zone[3] = Work_Zone[70]
335: 0x07A0 [0x03] Work_Zone[4] = Work_Zone[71]
336: 0x07A5 [0x03] Work_Zone[5] = Work_Zone[72]
337: 0x07AA [0x03] Work_Zone[6] = Work_Zone[77]
338: 0x07AF [0x03] Work_Zone[7] = Work_Zone[78]
339: 0x07B4 [0x03] Work_Zone[8] = Work_Zone[79]
340: 0x07B9 [0x03] Work_Zone[9] = Work_Zone[80]
341: 0x07BE [0x02] IF !(Work_Zone[7] == 0*) GOTO 0x07CD
342: 0x07C6 [0x48] [System] [7244*]:
     "$4 x $0"
343: 0x07C9 [0x23] WAIT_FOR_DIALOG_INTERACTION
344: 0x07CA [0x01] GOTO 0x0853
345: 0x07CD [0x02] IF !(Work_Zone[8] == 0*) GOTO 0x07DC
346: 0x07D5 [0x48] [System] [7243*]:
     "$4 x $0 $5 x $0$0"
347: 0x07D8 [0x23] WAIT_FOR_DIALOG_INTERACTION
348: 0x07D9 [0x01] GOTO 0x0853
349: 0x07DC [0x02] IF !(Work_Zone[9] == 0*) GOTO 0x07EB
350: 0x07E4 [0x48] [System] [7242*]:
     "$4 x $0 $5 x $0$0 $6 x $0"
351: 0x07E7 [0x23] WAIT_FOR_DIALOG_INTERACTION
352: 0x07E8 [0x01] GOTO 0x0853
353: 0x07EB [0x48] [System] [7241*]:
     "$4 x $0 $5 x $0$0 $6 x $0 $7 x $0$3"
354: 0x07EE [0x23] WAIT_FOR_DIALOG_INTERACTION
355: 0x07EF [0x03] Work_Zone[2] = Work_Zone[73]
356: 0x07F4 [0x03] Work_Zone[3] = Work_Zone[74]
357: 0x07F9 [0x03] Work_Zone[4] = Work_Zone[75]
358: 0x07FE [0x03] Work_Zone[5] = Work_Zone[76]
359: 0x0803 [0x03] Work_Zone[6] = Work_Zone[81]
360: 0x0808 [0x03] Work_Zone[7] = Work_Zone[82]
361: 0x080D [0x03] Work_Zone[8] = Work_Zone[83]
362: 0x0812 [0x03] Work_Zone[9] = Work_Zone[84]
363: 0x0817 [0x02] IF !(Work_Zone[6] == 0*) GOTO 0x0822
364: 0x081F [0x01] GOTO 0x0853
365: 0x0822 [0x02] IF !(Work_Zone[7] == 0*) GOTO 0x0831
366: 0x082A [0x48] [System] [7244*]:
     "$4 x $0"
367: 0x082D [0x23] WAIT_FOR_DIALOG_INTERACTION
368: 0x082E [0x01] GOTO 0x0853
369: 0x0831 [0x02] IF !(Work_Zone[8] == 0*) GOTO 0x0840
370: 0x0839 [0x48] [System] [7243*]:
     "$4 x $0 $5 x $0$0"
371: 0x083C [0x23] WAIT_FOR_DIALOG_INTERACTION
372: 0x083D [0x01] GOTO 0x0853
373: 0x0840 [0x02] IF !(Work_Zone[9] == 0*) GOTO 0x084F
374: 0x0848 [0x48] [System] [7242*]:
     "$4 x $0 $5 x $0$0 $6 x $0"
375: 0x084B [0x23] WAIT_FOR_DIALOG_INTERACTION
376: 0x084C [0x01] GOTO 0x0853
377: 0x084F [0x48] [System] [7241*]:
     "$4 x $0 $5 x $0$0 $6 x $0 $7 x $0$3"
378: 0x0852 [0x23] WAIT_FOR_DIALOG_INTERACTION

SUBROUTINE_0853:
379: 0x0853 [0x1B] RETURN
```

#### Data or dead code:

```
# Dead code (unreachable instructions):
     0x009D [0x01] GOTO 0x01CF
# Dead code (unreachable instructions):
     0x01E5 [0x01] GOTO 0x0201
# Dead code (unreachable instructions):
     0x059D [0x01] GOTO 0x05A0
# Dead code (unreachable instructions):
     0x061A [0x01] GOTO 0x074F
     0x062D [0x01] GOTO 0x074F
     0x0640 [0x01] GOTO 0x074F
     0x0653 [0x01] GOTO 0x074F
     0x0666 [0x01] GOTO 0x074F
     0x0679 [0x01] GOTO 0x074F
     0x068C [0x01] GOTO 0x074F
     0x069F [0x01] GOTO 0x074F
     0x06B2 [0x01] GOTO 0x074F
     0x06C5 [0x01] GOTO 0x074F
     0x06D8 [0x01] GOTO 0x074F
     0x06EB [0x01] GOTO 0x074F
     0x06FE [0x01] GOTO 0x074F
     0x0711 [0x01] GOTO 0x074F
     0x0724 [0x01] GOTO 0x074F
     0x0737 [0x01] GOTO 0x074F
```

### Event 10012

#### Metadata

| Field        | Value     |
|--------------|-----------|
| Entrypoint   | 0x0854    |
| Data Size    | 287 bytes |
| Instructions | 64        |

```
      00 01 02 03 04 05 06 07  08 09 0A 0B 0C 0D 0E 0F
      -- -- -- -- -- -- -- --  -- -- -- -- -- -- -- --
0850:             20 01 42 1E  F0 FF FF 7F 1A 31 09 02       .B......1..
0860: 06 10 00 80 03 6C 08 03  06 10 00 80 03 09 10 06  .....l..........
0870: 10 02 09 10 03 80 05 80  08 1D 52 80 23 01 13 09  ..........R.#...
0880: 02 09 10 17 80 80 8F 08  1D 53 80 23 01 13 09 02  .........S.#....
0890: 09 10 19 80 80 9E 08 1D  54 80 23 01 13 09 02 09  ........T.#.....
08A0: 10 1B 80 80 B9 08 1D 55  80 23 02 05 10 00 80 00  .......U.#......
08B0: B6 08 1D 56 80 23 01 13  09 02 09 10 1D 80 80 D4  ...V.#..........
08C0: 08 1D 57 80 23 02 05 10  0E 80 00 D1 08 1D 56 80  ..W.#.........V.
08D0: 23 01 13 09 02 09 10 01  80 80 EF 08 1D 58 80 23  #............X.#
08E0: 02 05 10 07 80 00 EC 08  1D 56 80 23 01 13 09 02  .........V.#....
08F0: 09 10 02 80 80 13 09 02  07 10 0E 80 00 06 09 1D  ................
0900: 59 80 23 01 10 09 1D 5A  80 23 1D 5B 80 23 21 00  Y.#....Z.#.[.#!.
0910: 01 13 09 1A 43 09 03 08  10 03 80 45 5C 80 F0 FF  ....C......E\...
0920: FF 7F F0 FF FF 7F 71 73  74 63 00 80 48 5D 80 21  ......qstc..H].!
0930: 00 6F 70 66 08 80 F8 FF  FF 7F F8 FF FF 7F 74 6C  .opf..........tl
0940: 6B 30 1B 66 08 80 F8 FF  FF 7F F8 FF FF 7F 74 6C  k0.f..........tl
0950: 6B 31 1B 6F 70 66 08 80  F8 FF FF 7F F8 FF FF 7F  k1.opf..........
0960: 70 61 73 30 1B 53 F8 FF  FF 7F F8 FF FF 7F 70 61  pas0.S........pa
0970: 73 30 1B                                          s0.             
```

#### Opcodes

```
  0: 0x0854 [0x20] SET_CLI_EVENT_UC_FLAG: Lock player control
  1: 0x0856 [0x42] SET_CLI_EVENT_CANCEL_DATA()
  2: 0x0857 [0x1E] EventEntity looks at LocalPlayer and starts talking
  3: 0x085C [0x1A] CALL_SUBROUTINE(address=0x0931)
  4: 0x085F [0x02] IF !(Work_Zone[6] >= 0*) GOTO 0x086C
  5: 0x0867 [0x03] Work_Zone[6] = 0*
  6: 0x086C [0x03] Work_Zone[9] = Work_Zone[6]
  7: 0x0871 [0x02] IF !(Work_Zone[9] > 4*) GOTO 0x0880
  8: 0x0879 [0x1D] PRINT_EVENT_MESSAGE(message_id=7301*)
     "... Marvelous! You will now be referred to as [an amateur/a recruit/an initiate/a novice/an apprentice] in our fine establishment! I just love your work!"
  9: 0x087C [0x23] WAIT_FOR_DIALOG_INTERACTION
 10: 0x087D [0x01] GOTO 0x0913
 11: 0x0880 [0x02] IF !(Work_Zone[9] == 5*) GOTO 0x088F
 12: 0x0888 [0x1D] PRINT_EVENT_MESSAGE(message_id=7302*)
     "Marvelous! Simply marvelous! From this day forth, your new title is journeyman! I just hope you'll have your next work out in time for the winter line!"
 13: 0x088B [0x23] WAIT_FOR_DIALOG_INTERACTION
 14: 0x088C [0x01] GOTO 0x0913
 15: 0x088F [0x02] IF !(Work_Zone[9] == 6*) GOTO 0x089E
 16: 0x0897 [0x1D] PRINT_EVENT_MESSAGE(message_id=7328*)
     "Marvelous! Once again, your work amazes me! You have proved yourself worthy of the title of craftsman!"
 17: 0x089A [0x23] WAIT_FOR_DIALOG_INTERACTION
 18: 0x089B [0x01] GOTO 0x0913
 19: 0x089E [0x02] IF !(Work_Zone[9] == 7*) GOTO 0x08B9
 20: 0x08A6 [0x1D] PRINT_EVENT_MESSAGE(message_id=7303*)
     "Wonderful work! Your designs are beginning to parallel those of the top fashion artists! You are now an official artisan!"
 21: 0x08A9 [0x23] WAIT_FOR_DIALOG_INTERACTION
 22: 0x08AA [0x02] IF !(Work_Zone[5] == 0*) GOTO 0x08B6
 23: 0x08B2 [0x1D] PRINT_EVENT_MESSAGE(message_id=7388*)
     "But you'll have to remember...there is still a lot left to learn. Stick your hands into the cookie jars of too many guilds, and you'll get full! Focus on the fabric, and you'll have nothing to fear."
 24: 0x08B5 [0x23] WAIT_FOR_DIALOG_INTERACTION
 25: 0x08B6 [0x01] GOTO 0x0913
 26: 0x08B9 [0x02] IF !(Work_Zone[9] == 8*) GOTO 0x08D4
 27: 0x08C1 [0x1D] PRINT_EVENT_MESSAGE(message_id=7304*)
     "Marvelous... Truly marvelous... Your works are no longer merely simple clothes made to be worn, but works of art where the wearer is merely a display case for your genius! I am proud to call you an adept!"
 28: 0x08C4 [0x23] WAIT_FOR_DIALOG_INTERACTION
 29: 0x08C5 [0x02] IF !(Work_Zone[5] == 1*) GOTO 0x08D1
 30: 0x08CD [0x1D] PRINT_EVENT_MESSAGE(message_id=7388*)
     "But you'll have to remember...there is still a lot left to learn. Stick your hands into the cookie jars of too many guilds, and you'll get full! Focus on the fabric, and you'll have nothing to fear."
 31: 0x08D0 [0x23] WAIT_FOR_DIALOG_INTERACTION
 32: 0x08D1 [0x01] GOTO 0x0913
 33: 0x08D4 [0x02] IF !(Work_Zone[9] == 9*) GOTO 0x08EF
 34: 0x08DC [0x1D] PRINT_EVENT_MESSAGE(message_id=7305*)
     "Well, I'm just speechless! You have become a true veteran! I'm so happy I could just get up and dance!"
 35: 0x08DF [0x23] WAIT_FOR_DIALOG_INTERACTION
 36: 0x08E0 [0x02] IF !(Work_Zone[5] == 2*) GOTO 0x08EC
 37: 0x08E8 [0x1D] PRINT_EVENT_MESSAGE(message_id=7388*)
     "But you'll have to remember...there is still a lot left to learn. Stick your hands into the cookie jars of too many guilds, and you'll get full! Focus on the fabric, and you'll have nothing to fear."
 38: 0x08EB [0x23] WAIT_FOR_DIALOG_INTERACTION
 39: 0x08EC [0x01] GOTO 0x0913
 40: 0x08EF [0x02] IF !(Work_Zone[9] == 10*) GOTO 0x0913
 41: 0x08F7 [0x02] IF !(Work_Zone[7] == 1*) GOTO 0x0906
 42: 0x08FF [0x1D] PRINT_EVENT_MESSAGE(message_id=7381*)
     "Marvelous! Simply marvelous! I knew <Player> was destined to be the next hot name in the fashion world. From this day forward, I call you an expert!"
 43: 0x0902 [0x23] WAIT_FOR_DIALOG_INTERACTION
 44: 0x0903 [0x01] GOTO 0x0910
 45: 0x0906 [0x1D] PRINT_EVENT_MESSAGE(message_id=7382*)
     "Did you pick this up off the bargain bin? No? Well, how do you expect me to know that if you don't sign your work!?"
 46: 0x0909 [0x23] WAIT_FOR_DIALOG_INTERACTION
 47: 0x090A [0x1D] PRINT_EVENT_MESSAGE(message_id=7383*)
     "If you want your customers to remember the name <Player>, you'll have to put it where they can see it. Hope you've got enough thread for another go-round, 'cause your work isn't done yet."
 48: 0x090D [0x23] WAIT_FOR_DIALOG_INTERACTION
 49: 0x090E [0x21] END_EVENT
 50: 0x090F [0x00] END_REQSTACK()

SUBROUTINE_0910:
 51: 0x0910 [0x01] GOTO 0x0913

SUBROUTINE_0913:
 52: 0x0913 [0x1A] CALL_SUBROUTINE(address=0x0943)
 53: 0x0916 [0x03] Work_Zone[8] = 4*
 54: 0x091B [0x45] LOAD_SCHEDULED_TASK: Load scheduler "qstc" with entities [LocalPlayer, LocalPlayer], work=[201*, 0*]
 55: 0x092C [0x48] [System] [7237*]:
     "You are now recognized as [an amateur/a recruit/an initiate/a novice/an apprentice/a journeyman/a craftsman/an artisan/an adept/a veteran/an expert/an authority/a luminary/a master/a grandmaster/a legend] of the [Fishermen's/Carpenters'/Blacksmiths'/Goldsmiths'/Weavers'/Tanners'/Boneworkers'/Alchemists'/Culinarians'] Guild."
 56: 0x092F [0x21] END_EVENT
 57: 0x0930 [0x00] END_REQSTACK()

SUBROUTINE_0931:
 58: 0x0931 [0x6F] WAIT_FRAME_DELAY: Yield until WaitTime reaches zero
 59: 0x0932 [0x70] WAIT_ENTITY_RENDER_FLAG: Wait while EventEntity->Render.Flags3 bit 2 is set (cancel turn if not)
 60: 0x0933 [0x66] LOAD_EXT_SCHEDULER_MAIN: Load scheduler "tlk0" with entities [EventEntity, EventEntity], work=40*
 61: 0x0942 [0x1B] RETURN

SUBROUTINE_0943:
 62: 0x0943 [0x66] LOAD_EXT_SCHEDULER_MAIN: Load scheduler "tlk1" with entities [EventEntity, EventEntity], work=40*
 63: 0x0952 [0x1B] RETURN
```

#### Data or dead code:

```
# Dead code (unreachable instructions):
     0x0953 [0x6F] WAIT_FRAME_DELAY: Yield until WaitTime reaches zero
     0x0954 [0x70] WAIT_ENTITY_RENDER_FLAG: Wait while EventEntity->Render.Flags3 bit 2 is set (cancel turn if not)
     0x0955 [0x66] LOAD_EXT_SCHEDULER_MAIN: Load scheduler "pas0" with entities [EventEntity, EventEntity], work=40*
     0x0964 [0x1B] RETURN
     0x0965 [0x53] WAIT_SCHEDULER_TASK: Wait for scheduler "pas0" with entities [EventEntity, EventEntity]
     0x0972 [0x1B] RETURN
```

### Event 700

#### Metadata

| Field        | Value     |
|--------------|-----------|
| Entrypoint   | 0x0973    |
| Data Size    | 373 bytes |
| Instructions | 46        |

```
      00 01 02 03 04 05 06 07  08 09 0A 0B 0C 0D 0E 0F
      -- -- -- -- -- -- -- --  -- -- -- -- -- -- -- --
0970:          42 75 00 5E 80  75 01 45 5F 80 F0 FF FF     Bu.^.u.E_....
0980: 7F F0 FF FF 7F 66 64 6F  31 00 80 55 5F 80 F0 FF  .....fdo1..U_...
0990: FF 7F F0 FF FF 7F 66 64  6F 31 46 01 38 11 80 29  ......fdo1F.8..)
09A0: 0A F0 FF FF 7F 4B 45 17  80 F0 FF FF 7F F0 FF FF  .....KE.........
09B0: 7F 73 30 33 39 00 80 45  5F 80 F0 FF FF 7F F0 FF  .s039..E_.......
09C0: FF 7F 66 64 69 31 00 80  1C 60 80 1E F0 FF FF 7F  ..fdi1...`......
09D0: 03 02 10 61 80 03 03 10  62 80 03 04 10 63 80 1D  ...a....b....c..
09E0: 64 80 23 45 5F 80 F0 FF  FF 7F F0 FF FF 7F 66 64  d.#E_.........fd
09F0: 6F 31 00 80 55 5F 80 F0  FF FF 7F F0 FF FF 7F 66  o1..U_.........f
0A00: 64 6F 31 45 17 80 F0 FF  FF 7F F0 FF FF 7F 73 30  do1E..........s0
0A10: 34 30 00 80 45 5F 80 F0  FF FF 7F F0 FF FF 7F 66  40..E_.........f
0A20: 64 69 31 00 80 7B 29 10  0F 01 66 08 80 F8 FF FF  di1..{)...f.....
0A30: 7F F8 FF FF 7F 74 68 6B  31 1D 65 80 23 1D 66 80  .....thk1.e.#.f.
0A40: 23 79 00 29 10 0F 01 F0  FF FF 7F 66 08 80 F8 FF  #y.).......f....
0A50: FF 7F F8 FF FF 7F 74 68  6B 32 1D 67 80 23 52 17  ......thk2.g.#R.
0A60: 80 F0 FF FF 7F F0 FF FF  7F 73 30 34 30 45 17 80  .........s040E..
0A70: F0 FF FF 7F F0 FF FF 7F  73 30 34 31 00 80 66 08  ........s041..f.
0A80: 80 F8 FF FF 7F F8 FF FF  7F 74 6C 6B 30 1D 68 80  .........tlk0.h.
0A90: 23 66 08 80 F8 FF FF 7F  F8 FF FF 7F 74 6C 6B 31  #f..........tlk1
0AA0: 1D 69 80 23 45 5F 80 F0  FF FF 7F F0 FF FF 7F 66  .i.#E_.........f
0AB0: 64 6F 31 00 80 55 5F 80  F0 FF FF 7F F0 FF FF 7F  do1..U_.........
0AC0: 66 64 6F 31 52 17 80 F0  FF FF 7F F0 FF FF 7F 73  fdo1R..........s
0AD0: 30 34 31 45 5F 80 F0 FF  FF 7F F0 FF FF 7F 66 64  041E_.........fd
0AE0: 69 32 00 80 46 00 21 00                           i2..F.!.        
```

#### Opcodes

```
  0: 0x0973 [0x42] SET_CLI_EVENT_CANCEL_DATA()
  1: 0x0974 [0x75] LOAD_ROOM(Load indoor room, room=424*)
  2: 0x0978 [0x75] LOAD_ROOM(No action)
  3: 0x097A [0x45] LOAD_SCHEDULED_TASK: Load scheduler "fdo1" with entities [LocalPlayer, LocalPlayer], work=[200*, 0*]
  4: 0x098B [0x55] WAIT_LOAD_SCHEDULER: Wait for scheduler "fdo1" with entities [LocalPlayer, LocalPlayer], work=200*
  5: 0x099A [0x46] CAMERA_CONTROL: Disable user control
  6: 0x099C [0x38] SET_CLIENT_EVENT_MODE(mode=3*)
  7: 0x099F [0x29] REQ_SET_WAIT(priority=0x0A, entity_id=LocalPlayer, tag_num=0x4B)
  8: 0x09A6 [0x45] LOAD_SCHEDULED_TASK: Load scheduler "s039" with entities [LocalPlayer, LocalPlayer], work=[5*, 0*]
  9: 0x09B7 [0x45] LOAD_SCHEDULED_TASK: Load scheduler "fdi1" with entities [LocalPlayer, LocalPlayer], work=[200*, 0*]
 10: 0x09C8 [0x1C] WAIT(30* ticks)
 11: 0x09CB [0x1E] EventEntity looks at LocalPlayer and starts talking
 12: 0x09D0 [0x03] Work_Zone[2] = 828*
 13: 0x09D5 [0x03] Work_Zone[3] = 830*
 14: 0x09DA [0x03] Work_Zone[4] = 10000*
 15: 0x09DF [0x1D] PRINT_EVENT_MESSAGE(message_id=7339*)
     "Hm? A special order? Well, get in line, honey. The minimum wait on genuine Ponono is at least six years."
 16: 0x09E2 [0x23] WAIT_FOR_DIALOG_INTERACTION
 17: 0x09E3 [0x45] LOAD_SCHEDULED_TASK: Load scheduler "fdo1" with entities [LocalPlayer, LocalPlayer], work=[200*, 0*]
 18: 0x09F4 [0x55] WAIT_LOAD_SCHEDULER: Wait for scheduler "fdo1" with entities [LocalPlayer, LocalPlayer], work=200*
 19: 0x0A03 [0x45] LOAD_SCHEDULED_TASK: Load scheduler "s040" with entities [LocalPlayer, LocalPlayer], work=[5*, 0*]
 20: 0x0A14 [0x45] LOAD_SCHEDULED_TASK: Load scheduler "fdi1" with entities [LocalPlayer, LocalPlayer], work=[200*, 0*]
 21: 0x0A25 [0x7B] Ponono (ID: 17764393/0x010F1029) stops talking
 22: 0x0A2A [0x66] LOAD_EXT_SCHEDULER_MAIN: Load scheduler "thk1" with entities [EventEntity, EventEntity], work=40*
 23: 0x0A39 [0x1D] PRINT_EVENT_MESSAGE(message_id=7340*)
     "........."
 24: 0x0A3C [0x23] WAIT_FOR_DIALOG_INTERACTION
 25: 0x0A3D [0x1D] PRINT_EVENT_MESSAGE(message_id=7341*)
     "I see that your situation is a little more severe than a supper party at the consulate's mansion. However, even if I do help you out, I'm not so sure how much luck you'll have in fooling those sly birdmen."
 26: 0x0A40 [0x23] WAIT_FOR_DIALOG_INTERACTION
 27: 0x0A41 [0x79] Ponono (ID: 17764393/0x010F1029) looks at LocalPlayer (Basic look)
 28: 0x0A4B [0x66] LOAD_EXT_SCHEDULER_MAIN: Load scheduler "thk2" with entities [EventEntity, EventEntity], work=40*
 29: 0x0A5A [0x1D] PRINT_EVENT_MESSAGE(message_id=7342*)
     "And what if you get caught? Officials on both sides will start asking questions, snooping around...and before you know it, the costume will lead them right back to me! I could be ruined!"
 30: 0x0A5D [0x23] WAIT_FOR_DIALOG_INTERACTION
 31: 0x0A5E [0x52] END_LOAD_SCHEDULER: End scheduler "s040" with entities [LocalPlayer, LocalPlayer], work=5*
 32: 0x0A6D [0x45] LOAD_SCHEDULED_TASK: Load scheduler "s041" with entities [LocalPlayer, LocalPlayer], work=[5*, 0*]
 33: 0x0A7E [0x66] LOAD_EXT_SCHEDULER_MAIN: Load scheduler "tlk0" with entities [EventEntity, EventEntity], work=40*
 34: 0x0A8D [0x1D] PRINT_EVENT_MESSAGE(message_id=7343*)
     "...But on the other hand, if you succeed, it would prove that my designs were even irresistible to the beastmen! Alright, I'll do it! Go out and find $0 and $1, and I'll get started on the pattern design."
 35: 0x0A90 [0x23] WAIT_FOR_DIALOG_INTERACTION
 36: 0x0A91 [0x66] LOAD_EXT_SCHEDULER_MAIN: Load scheduler "tlk1" with entities [EventEntity, EventEntity], work=40*
 37: 0x0AA0 [0x1D] PRINT_EVENT_MESSAGE(message_id=7344*)
     "Oh, and I'll need $2 gil as well for supplies. What? You don't think parchment grows on trees now, do you? What? It does?"
 38: 0x0AA3 [0x23] WAIT_FOR_DIALOG_INTERACTION
 39: 0x0AA4 [0x45] LOAD_SCHEDULED_TASK: Load scheduler "fdo1" with entities [LocalPlayer, LocalPlayer], work=[200*, 0*]
 40: 0x0AB5 [0x55] WAIT_LOAD_SCHEDULER: Wait for scheduler "fdo1" with entities [LocalPlayer, LocalPlayer], work=200*
 41: 0x0AC4 [0x52] END_LOAD_SCHEDULER: End scheduler "s041" with entities [LocalPlayer, LocalPlayer], work=5*
 42: 0x0AD3 [0x45] LOAD_SCHEDULED_TASK: Load scheduler "fdi2" with entities [LocalPlayer, LocalPlayer], work=[200*, 0*]
 43: 0x0AE4 [0x46] CAMERA_CONTROL: Restore default settings
 44: 0x0AE6 [0x21] END_EVENT
 45: 0x0AE7 [0x00] END_REQSTACK()
```

### Event 701

#### Metadata

| Field        | Value     |
|--------------|-----------|
| Entrypoint   | 0x0AE8    |
| Data Size    | 107 bytes |
| Instructions | 25        |

```
      00 01 02 03 04 05 06 07  08 09 0A 0B 0C 0D 0E 0F
      -- -- -- -- -- -- -- --  -- -- -- -- -- -- -- --
0AE0:                          06 01 10 1E F0 FF FF 7F          ........
0AF0: 03 02 10 61 80 03 03 10  62 80 03 04 10 63 80 1D  ...a....b....c..
0B00: 6A 80 23 1D 6B 80 23 48  6C 80 23 24 6D 80 0E 80  j.#.k.#Hl.#$m...
0B10: 00 80 25 02 00 10 0E 80  00 25 0B 03 01 10 6E 80  ..%......%....n.
0B20: 21 00 01 25 0B 24 6F 80  0E 80 00 80 25 02 00 10  !..%.$o.....%...
0B30: 00 80 00 3F 0B 03 01 10  28 80 21 00 01 51 0B 02  ...?....(.!..Q..
0B40: 00 10 0E 80 00 51 0B 03  01 10 6E 80 21 00 01 51  .....Q....n.!..Q
0B50: 0B 21 00                                          .!.             
```

#### Opcodes

```
  0: 0x0AE8 [0x06] Work_Zone[1] = 0
  1: 0x0AEB [0x1E] EventEntity looks at LocalPlayer and starts talking
  2: 0x0AF0 [0x03] Work_Zone[2] = 828*
  3: 0x0AF5 [0x03] Work_Zone[3] = 830*
  4: 0x0AFA [0x03] Work_Zone[4] = 10000*
  5: 0x0AFF [0x1D] PRINT_EVENT_MESSAGE(message_id=7345*)
     "Calm down, calm down. I'm still working on the design. I could be weaving vermillion cloaks, you know. Anyway, come back later, and don't forget the $0, the $1, and the $2 gil I asked for."
  6: 0x0B02 [0x23] WAIT_FOR_DIALOG_INTERACTION
  7: 0x0B03 [0x1D] PRINT_EVENT_MESSAGE(message_id=7346*)
     "What's this? You're not thinking about abandoning this splendid venture, are you?"
  8: 0x0B06 [0x23] WAIT_FOR_DIALOG_INTERACTION
  9: 0x0B07 [0x48] [System] [7454*]:
     "If you choose to give up, the quest will be canceled and your quest log reset."
 10: 0x0B0A [0x23] WAIT_FOR_DIALOG_INTERACTION
 11: 0x0B0B [0x24] CREATE_DIALOG(message_id=7455*, default_option=1*, option_flags=0*)
     "Cancel the quest? [Yes./No.]"
 12: 0x0B12 [0x25] WAIT_DIALOG_SELECT()
 13: 0x0B13 [0x02] IF !(Work_Zone[0] == 1*) GOTO 0x0B25
 14: 0x0B1B [0x03] Work_Zone[1] = 1073741824*
 15: 0x0B20 [0x21] END_EVENT
 16: 0x0B21 [0x00] END_REQSTACK()

SUBROUTINE_0B25:
 17: 0x0B25 [0x24] CREATE_DIALOG(message_id=7456*, default_option=1*, option_flags=0*)
     "Do you really wish to cancel the quest? [I really do./I guess I don't.]"
 18: 0x0B2C [0x25] WAIT_DIALOG_SELECT()
 19: 0x0B2D [0x02] IF !(Work_Zone[0] == 0*) GOTO 0x0B3F
 20: 0x0B35 [0x03] Work_Zone[1] = 100*
 21: 0x0B3A [0x21] END_EVENT
 22: 0x0B3B [0x00] END_REQSTACK()

SUBROUTINE_0B51:
 23: 0x0B51 [0x21] END_EVENT
 24: 0x0B52 [0x00] END_REQSTACK()
```

#### Data or dead code:

```
# Dead code (unreachable instructions):
     0x0B22 [0x01] GOTO 0x0B25
# Dead code (unreachable instructions):
     0x0B3C [0x01] GOTO 0x0B51
     0x0B4E [0x01] GOTO 0x0B51
```

### Event 702

#### Metadata

| Field        | Value    |
|--------------|----------|
| Entrypoint   | 0x0B53   |
| Data Size    | 11 bytes |
| Instructions | 5        |

```
      00 01 02 03 04 05 06 07  08 09 0A 0B 0C 0D 0E 0F
      -- -- -- -- -- -- -- --  -- -- -- -- -- -- -- --
0B50:          1E F0 FF FF 7F  1D 70 80 23 21 00           ......p.#!.  
```

#### Opcodes

```
  0: 0x0B53 [0x1E] EventEntity looks at LocalPlayer and starts talking
  1: 0x0B58 [0x1D] PRINT_EVENT_MESSAGE(message_id=7347*)
     "You're just in time, my friend. I've completed the design and now I can begin working on the pattern. I'll need a couple of days, but you don't mind waiting a little longer, do you?"
  2: 0x0B5B [0x23] WAIT_FOR_DIALOG_INTERACTION
  3: 0x0B5C [0x21] END_EVENT
  4: 0x0B5D [0x00] END_REQSTACK()
```

### Event 703

#### Metadata

| Field        | Value    |
|--------------|----------|
| Entrypoint   | 0x0B5E   |
| Data Size    | 11 bytes |
| Instructions | 5        |

```
      00 01 02 03 04 05 06 07  08 09 0A 0B 0C 0D 0E 0F
      -- -- -- -- -- -- -- --  -- -- -- -- -- -- -- --
0B50:                                            1E F0                ..
0B60: FF FF 7F 1D 71 80 23 21  00                       ....q.#!.       
```

#### Opcodes

```
  0: 0x0B5E [0x1E] EventEntity looks at LocalPlayer and starts talking
  1: 0x0B63 [0x1D] PRINT_EVENT_MESSAGE(message_id=7353*)
     "You cannot rush a great artist! Can Goochichi-Vinchichi sew a luxurious handbag in a day? Can Naphille piece together one of her pochettes with a sweaty adventurer breathing down her neck? I think you know the answer. Now shoo!"
  2: 0x0B66 [0x23] WAIT_FOR_DIALOG_INTERACTION
  3: 0x0B67 [0x21] END_EVENT
  4: 0x0B68 [0x00] END_REQSTACK()
```

### Event 704

#### Metadata

| Field        | Value     |
|--------------|-----------|
| Entrypoint   | 0x0B69    |
| Data Size    | 169 bytes |
| Instructions | 31        |

```
      00 01 02 03 04 05 06 07  08 09 0A 0B 0C 0D 0E 0F
      -- -- -- -- -- -- -- --  -- -- -- -- -- -- -- --
0B60:                             06 01 10 1E F0 FF FF           .......
0B70: 7F 03 02 10 72 80 03 03  10 73 80 1D 74 80 23 24  ....r....s..t.#$
0B80: 75 80 00 80 00 80 25 02  00 10 0E 80 00 99 0B 03  u.....%.........
0B90: 01 10 6E 80 21 00 01 EE  0B 02 00 10 07 80 00 EE  ..n.!...........
0BA0: 0B 48 6C 80 23 24 6D 80  0E 80 00 80 25 02 00 10  .Hl.#$m.....%...
0BB0: 0E 80 00 BF 0B 03 01 10  6E 80 21 00 01 BF 0B 24  ........n.!....$
0BC0: 6F 80 0E 80 00 80 25 02  00 10 00 80 00 D9 0B 03  o.....%.........
0BD0: 01 10 28 80 21 00 01 EB  0B 02 00 10 0E 80 00 EB  ..(.!...........
0BE0: 0B 03 01 10 6E 80 21 00  01 EB 0B 01 EE 0B 1D 76  ....n.!........v
0BF0: 80 23 24 77 80 0E 80 00  80 25 02 00 10 0E 80 00  .#$w.....%......
0C00: 0C 0C 03 01 10 6E 80 21  00 01 0C 0C 1D 78 80 23  .....n.!.....x.#
0C10: 21 00                                             !.              
```

#### Opcodes

```
  0: 0x0B69 [0x06] Work_Zone[1] = 0
  1: 0x0B6C [0x1E] EventEntity looks at LocalPlayer and starts talking
  2: 0x0B71 [0x03] Work_Zone[2] = 1867*
  3: 0x0B76 [0x03] Work_Zone[3] = 100000*
  4: 0x0B7B [0x1D] PRINT_EVENT_MESSAGE(message_id=7348*)
     "...... Don't tell me you've...you've...you've lost an original Ponono pattern!? Just think if one were to make its way to the black market! They'd be making fake Pononos left and right! I'd be ruined!"
  5: 0x0B7E [0x23] WAIT_FOR_DIALOG_INTERACTION
  6: 0x0B7F [0x24] CREATE_DIALOG(message_id=7349*, default_option=0*, option_flags=0*)
     "And I bet you want another one, right? [You read my mind./Actually, no./I've had enough of this...]"
  7: 0x0B86 [0x25] WAIT_DIALOG_SELECT()
  8: 0x0B87 [0x02] IF !(Work_Zone[0] == 1*) GOTO 0x0B99
  9: 0x0B8F [0x03] Work_Zone[1] = 1073741824*
 10: 0x0B94 [0x21] END_EVENT
 11: 0x0B95 [0x00] END_REQSTACK()

SUBROUTINE_0BBF:
 12: 0x0BBF [0x24] CREATE_DIALOG(message_id=7456*, default_option=1*, option_flags=0*)
     "Do you really wish to cancel the quest? [I really do./I guess I don't.]"
 13: 0x0BC6 [0x25] WAIT_DIALOG_SELECT()
 14: 0x0BC7 [0x02] IF !(Work_Zone[0] == 0*) GOTO 0x0BD9
 15: 0x0BCF [0x03] Work_Zone[1] = 100*
 16: 0x0BD4 [0x21] END_EVENT
 17: 0x0BD5 [0x00] END_REQSTACK()

SUBROUTINE_0BEB:
 18: 0x0BEB [0x01] GOTO 0x0BEE

SUBROUTINE_0BEE:
 19: 0x0BEE [0x1D] PRINT_EVENT_MESSAGE(message_id=7350*)
