# 17764391 - Forine

## Common Data

| Field            | Value                    |
|------------------|--------------------------|
| Zone             | Windurst Woods (ID: 241) |
| Block Size       | 548 bytes                |
| Total Events     | 20                       |
| References Count | 17                       |

## List of Events

| Event ID                   | Entrypoint   |   Size |   Instructions |
|----------------------------|--------------|--------|----------------|
| [65535](#event-65535)      | 0x0000       |      1 |              1 |
| [65535.1](#event-655351)   | 0x0001       |     16 |              2 |
| [65535.2](#event-655352)   | 0x0011       |     22 |              4 |
| [65535.3](#event-655353)   | 0x0027       |     16 |              2 |
| [65535.4](#event-655354)   | 0x0037       |     14 |              2 |
| [65535.5](#event-655355)   | 0x0045       |     16 |              2 |
| [65535.6](#event-655356)   | 0x0055       |     14 |              2 |
| [65535.7](#event-655357)   | 0x0063       |      9 |              3 |
| [445](#event-445)          | 0x006C       |     29 |             10 |
| [446](#event-446)          | 0x0089       |     29 |             10 |
| [448](#event-448)          | 0x00A6       |      1 |              1 |
| [65535.8](#event-655358)   | 0x00A7       |     23 |              7 |
| [65535.9](#event-655359)   | 0x00BE       |     19 |              5 |
| [453](#event-453)          | 0x00D1       |     37 |             14 |
| [461](#event-461)          | 0x00F6       |     29 |             10 |
| [462](#event-462)          | 0x0113       |      1 |              1 |
| [65535.10](#event-6553510) | 0x0114       |     23 |              7 |
| [65535.11](#event-6553511) | 0x012B       |     19 |              5 |
| [464](#event-464)          | 0x013E       |     33 |             12 |
| [471](#event-471)          | 0x015F       |     33 |             12 |

## DAT References (imed_data)

|   Index | Hex Value   |   Dec Value |
|---------|-------------|-------------|
|       0 | 0x001E      |          30 |
|       1 | 0x2180      |        8576 |
|       2 | 0x2181      |        8577 |
|       3 | 0x2186      |        8582 |
|       4 | 0x2187      |        8583 |
|       5 | 0x2188      |        8584 |
|       6 | 0x2193      |        8595 |
|       7 | 0x2194      |        8596 |
|       8 | 0x2195      |        8597 |
|       9 | 0x21A5      |        8613 |
|      10 | 0x21A9      |        8617 |
|      11 | 0x21AA      |        8618 |
|      12 | 0x21AB      |        8619 |
|      13 | 0x21B3      |        8627 |
|      14 | 0x21B4      |        8628 |
|      15 | 0x21C1      |        8641 |
|      16 | 0x21C2      |        8642 |

## String References

- **8576**: The light shines where there is righteousness, so do not be afraid, citizen of [San d'Oria/Bastok/Windurst]. The soldiers of San d'Oria only unsheathe their swords in the name of justice.
- **8577**: The light shines only where there is righteousness. Fellow citizen of San d'Oria, never lose the pride you have in your country.
- **8582**: Yes, Consul. Allow me to explain...
- **8583**: The mission from the Windurstian government entails the oblation of magic armor to Giddeus, the frontline to the abode of the Yagudo beastmen.
- **8584**: A magic shield will be handed to you at Heavens Tower in Windurst Walls. Your orders are to deliver it to the Yagudo treasure chamber, deep in the underground of Giddeus.
- **8595**: Your orders are to proceed to Heavens Tower in Windurst Walls, where a magic shield will be handed to you.
- **8596**: In order to accomplish this mission as assigned by Windurst, you are to deliver the shield to the Yagudo treasure chamber, deep underground in Giddeus. However, that is not all...
- **8597**: While we cannot break our promise to the Windurstians, to ensure justice is served, we would secretly like you to take two shields off of the Yagudo who you meet en route.
- **8613**: Your efforts are well noted. Take care on your journey to Bastok.
- **8617**: Yes, Consul. Allow me to explain Windurst's request...
- **8618**: A giant monster has appeared in the depths of Giddeus, the borderland to the theocracy of the Yagudo beastmen. The Windurstian government wants it exterminated.
- **8619**: You are to receive a key from Heavens Tower in the Windurst Walls district and head to the innermost part of Giddeus, where the creature awaits.
- **8627**: To access the innermost part of Giddeus, you must receive the key from Heavens Tower in the Windurst Walls district.
- **8628**: Report back here once you have defeated the ferocious monster that is menacing the Yagudo in the depths of Giddeus.
- **8641**: You mentioned that when the nether beast appeared, a Mithra guard came to your aid?
- **8642**: The only Mithra with that degree of strength would be one of the Sibyl Guards from Heavens Tower.

## Events

### Event 65535

#### Metadata

| Field        | Value   |
|--------------|---------|
| Entrypoint   | 0x0000  |
| Data Size    | 1 bytes |
| Instructions | 1       |

```
      00 01 02 03 04 05 06 07  08 09 0A 0B 0C 0D 0E 0F
      -- -- -- -- -- -- -- --  -- -- -- -- -- -- -- --
0000: 00                                                .               
```

#### Opcodes

```
  0: 0x0000 [0x00] END_REQSTACK()
```

### Event 65535.1

#### Metadata

| Field        | Value    |
|--------------|----------|
| Entrypoint   | 0x0001   |
| Data Size    | 16 bytes |
| Instructions | 2        |

```
      00 01 02 03 04 05 06 07  08 09 0A 0B 0C 0D 0E 0F
      -- -- -- -- -- -- -- --  -- -- -- -- -- -- -- --
0000:    66 00 80 F8 FF FF 7F  F8 FF FF 7F 74 6C 6B 30   f..........tlk0
0010: 00                                                .               
```

#### Opcodes

```
  0: 0x0001 [0x66] LOAD_EXT_SCHEDULER_MAIN: Load scheduler "tlk0" with entities [EventEntity, EventEntity], work=30*
  1: 0x0010 [0x00] END_REQSTACK()
```

### Event 65535.2

#### Metadata

| Field        | Value    |
|--------------|----------|
| Entrypoint   | 0x0011   |
| Data Size    | 22 bytes |
| Instructions | 4        |

```
      00 01 02 03 04 05 06 07  08 09 0A 0B 0C 0D 0E 0F
      -- -- -- -- -- -- -- --  -- -- -- -- -- -- -- --
0010:    53 F8 FF FF 7F F8 FF  FF 7F 74 6C 6B 30 5E 69   S........tlk0^i
0020: 64 6C 30 1C 00 80 00                              dl0....         
```

#### Opcodes

```
  0: 0x0011 [0x53] WAIT_SCHEDULER_TASK: Wait for scheduler "tlk0" with entities [EventEntity, EventEntity]
  1: 0x001E [0x5E] EventEntity goes idle (kills current action) (animation: "idl0")
  2: 0x0023 [0x1C] WAIT(30* ticks)
  3: 0x0026 [0x00] END_REQSTACK()
```

### Event 65535.3

#### Metadata

| Field        | Value    |
|--------------|----------|
| Entrypoint   | 0x0027   |
| Data Size    | 16 bytes |
| Instructions | 2        |

```
      00 01 02 03 04 05 06 07  08 09 0A 0B 0C 0D 0E 0F
      -- -- -- -- -- -- -- --  -- -- -- -- -- -- -- --
0020:                      66  00 80 F8 FF FF 7F F8 FF         f........
0030: FF 7F 74 68 6B 31 00                              ..thk1.         
```

#### Opcodes

```
  0: 0x0027 [0x66] LOAD_EXT_SCHEDULER_MAIN: Load scheduler "thk1" with entities [EventEntity, EventEntity], work=30*
  1: 0x0036 [0x00] END_REQSTACK()
```

### Event 65535.4

#### Metadata

| Field        | Value    |
|--------------|----------|
| Entrypoint   | 0x0037   |
| Data Size    | 14 bytes |
| Instructions | 2        |

```
      00 01 02 03 04 05 06 07  08 09 0A 0B 0C 0D 0E 0F
      -- -- -- -- -- -- -- --  -- -- -- -- -- -- -- --
0030:                      53  F8 FF FF 7F F8 FF FF 7F         S........
0040: 74 68 6B 31 00                                    thk1.           
```

#### Opcodes

```
  0: 0x0037 [0x53] WAIT_SCHEDULER_TASK: Wait for scheduler "thk1" with entities [EventEntity, EventEntity]
  1: 0x0044 [0x00] END_REQSTACK()
```

### Event 65535.5

#### Metadata

| Field        | Value    |
|--------------|----------|
| Entrypoint   | 0x0045   |
| Data Size    | 16 bytes |
| Instructions | 2        |

```
      00 01 02 03 04 05 06 07  08 09 0A 0B 0C 0D 0E 0F
      -- -- -- -- -- -- -- --  -- -- -- -- -- -- -- --
0040:                66 00 80  F8 FF FF 7F F8 FF FF 7F       f..........
0050: 74 68 6B 32 00                                    thk2.           
```

#### Opcodes

```
  0: 0x0045 [0x66] LOAD_EXT_SCHEDULER_MAIN: Load scheduler "thk2" with entities [EventEntity, EventEntity], work=30*
  1: 0x0054 [0x00] END_REQSTACK()
```

### Event 65535.6

#### Metadata

| Field        | Value    |
|--------------|----------|
| Entrypoint   | 0x0055   |
| Data Size    | 14 bytes |
| Instructions | 2        |

```
      00 01 02 03 04 05 06 07  08 09 0A 0B 0C 0D 0E 0F
      -- -- -- -- -- -- -- --  -- -- -- -- -- -- -- --
0050:                53 F8 FF  FF 7F F8 FF FF 7F 74 68       S........th
0060: 6B 32 00                                          k2.             
```

#### Opcodes

```
  0: 0x0055 [0x53] WAIT_SCHEDULER_TASK: Wait for scheduler "thk2" with entities [EventEntity, EventEntity]
  1: 0x0062 [0x00] END_REQSTACK()
```

### Event 65535.7

#### Metadata

| Field        | Value   |
|--------------|---------|
| Entrypoint   | 0x0063  |
| Data Size    | 9 bytes |
| Instructions | 3       |

```
      00 01 02 03 04 05 06 07  08 09 0A 0B 0C 0D 0E 0F
      -- -- -- -- -- -- -- --  -- -- -- -- -- -- -- --
0060:          5E 69 64 6C 30  1C 00 80 00                 ^idl0....    
```

#### Opcodes

```
  0: 0x0063 [0x5E] EventEntity goes idle (kills current action) (animation: "idl0")
  1: 0x0068 [0x1C] WAIT(30* ticks)
  2: 0x006B [0x00] END_REQSTACK()
```

### Event 445

#### Metadata

| Field        | Value    |
|--------------|----------|
| Entrypoint   | 0x006C   |
| Data Size    | 29 bytes |
| Instructions | 10       |

```
      00 01 02 03 04 05 06 07  08 09 0A 0B 0C 0D 0E 0F
      -- -- -- -- -- -- -- --  -- -- -- -- -- -- -- --
0060:                                      1E F0 FF FF              ....
0070: 7F 6F 70 29 08 27 10 0F  01 01 1D 01 80 23 29 08  .op).'.......#).
0080: 27 10 0F 01 07 20 00 21  00                       '.... .!.       
```

#### Opcodes

```
  0: 0x006C [0x1E] EventEntity looks at LocalPlayer and starts talking
  1: 0x0071 [0x6F] WAIT_FRAME_DELAY: Yield until WaitTime reaches zero
  2: 0x0072 [0x70] WAIT_ENTITY_RENDER_FLAG: Wait while EventEntity->Render.Flags3 bit 2 is set (cancel turn if not)
  3: 0x0073 [0x29] REQ_SET_WAIT(priority=0x08, entity_id=Forine (ID: 17764391/0x010F1027), tag_num=0x01)
  4: 0x007A [0x1D] PRINT_EVENT_MESSAGE(message_id=8576*)
    → "The light shines where there is righteousness, so do not be afraid, citizen of [San d'Oria/Bastok/Windurst]. The soldiers of San d'Oria only unsheathe their swords in the name of justice."
  5: 0x007D [0x23] WAIT_FOR_DIALOG_INTERACTION
  6: 0x007E [0x29] REQ_SET_WAIT(priority=0x08, entity_id=Forine (ID: 17764391/0x010F1027), tag_num=0x07)
  7: 0x0085 [0x20] SET_CLI_EVENT_UC_FLAG: Unlock player control
  8: 0x0087 [0x21] END_EVENT
  9: 0x0088 [0x00] END_REQSTACK()
```

### Event 446

#### Metadata

| Field        | Value    |
|--------------|----------|
| Entrypoint   | 0x0089   |
| Data Size    | 29 bytes |
| Instructions | 10       |

```
      00 01 02 03 04 05 06 07  08 09 0A 0B 0C 0D 0E 0F
      -- -- -- -- -- -- -- --  -- -- -- -- -- -- -- --
0080:                             1E F0 FF FF 7F 6F 70           .....op
0090: 29 08 27 10 0F 01 01 1D  02 80 23 29 08 27 10 0F  ).'.......#).'..
00A0: 01 07 20 00 21 00                                 .. .!.          
```

#### Opcodes

```
  0: 0x0089 [0x1E] EventEntity looks at LocalPlayer and starts talking
  1: 0x008E [0x6F] WAIT_FRAME_DELAY: Yield until WaitTime reaches zero
  2: 0x008F [0x70] WAIT_ENTITY_RENDER_FLAG: Wait while EventEntity->Render.Flags3 bit 2 is set (cancel turn if not)
  3: 0x0090 [0x29] REQ_SET_WAIT(priority=0x08, entity_id=Forine (ID: 17764391/0x010F1027), tag_num=0x01)
  4: 0x0097 [0x1D] PRINT_EVENT_MESSAGE(message_id=8577*)
    → "The light shines only where there is righteousness. Fellow citizen of San d'Oria, never lose the pride you have in your country."
  5: 0x009A [0x23] WAIT_FOR_DIALOG_INTERACTION
  6: 0x009B [0x29] REQ_SET_WAIT(priority=0x08, entity_id=Forine (ID: 17764391/0x010F1027), tag_num=0x07)
  7: 0x00A2 [0x20] SET_CLI_EVENT_UC_FLAG: Unlock player control
  8: 0x00A4 [0x21] END_EVENT
  9: 0x00A5 [0x00] END_REQSTACK()
```

### Event 448

#### Metadata

| Field        | Value   |
|--------------|---------|
| Entrypoint   | 0x00A6  |
| Data Size    | 1 bytes |
| Instructions | 1       |

```
      00 01 02 03 04 05 06 07  08 09 0A 0B 0C 0D 0E 0F
      -- -- -- -- -- -- -- --  -- -- -- -- -- -- -- --
00A0:                   00                                    .         
```

#### Opcodes

```
  0: 0x00A6 [0x00] END_REQSTACK()
```

### Event 65535.8

#### Metadata

| Field        | Value    |
|--------------|----------|
| Entrypoint   | 0x00A7   |
| Data Size    | 23 bytes |
| Instructions | 7        |

```
      00 01 02 03 04 05 06 07  08 09 0A 0B 0C 0D 0E 0F
      -- -- -- -- -- -- -- --  -- -- -- -- -- -- -- --
00A0:                      29  08 27 10 0F 01 01 1D 03         ).'......
00B0: 80 23 1D 04 80 23 29 08  27 10 0F 01 02 00        .#...#).'.....  
```

#### Opcodes

```
  0: 0x00A7 [0x29] REQ_SET_WAIT(priority=0x08, entity_id=Forine (ID: 17764391/0x010F1027), tag_num=0x01)
  1: 0x00AE [0x1D] PRINT_EVENT_MESSAGE(message_id=8582*)
    → "Yes, Consul. Allow me to explain..."
  2: 0x00B1 [0x23] WAIT_FOR_DIALOG_INTERACTION
  3: 0x00B2 [0x1D] PRINT_EVENT_MESSAGE(message_id=8583*)
    → "The mission from the Windurstian government entails the oblation of magic armor to Giddeus, the frontline to the abode of the Yagudo beastmen."
  4: 0x00B5 [0x23] WAIT_FOR_DIALOG_INTERACTION
  5: 0x00B6 [0x29] REQ_SET_WAIT(priority=0x08, entity_id=Forine (ID: 17764391/0x010F1027), tag_num=0x02)
  6: 0x00BD [0x00] END_REQSTACK()
```

### Event 65535.9

#### Metadata

| Field        | Value    |
|--------------|----------|
| Entrypoint   | 0x00BE   |
| Data Size    | 19 bytes |
| Instructions | 5        |

```
      00 01 02 03 04 05 06 07  08 09 0A 0B 0C 0D 0E 0F
      -- -- -- -- -- -- -- --  -- -- -- -- -- -- -- --
00B0:                                            29 08                ).
00C0: 27 10 0F 01 01 1D 05 80  23 29 08 27 10 0F 01 02  '.......#).'....
00D0: 00                                                .               
```

#### Opcodes

```
  0: 0x00BE [0x29] REQ_SET_WAIT(priority=0x08, entity_id=Forine (ID: 17764391/0x010F1027), tag_num=0x01)
  1: 0x00C5 [0x1D] PRINT_EVENT_MESSAGE(message_id=8584*)
    → "A magic shield will be handed to you at Heavens Tower in Windurst Walls. Your orders are to deliver it to the Yagudo treasure chamber, deep in the underground of Giddeus."
  2: 0x00C8 [0x23] WAIT_FOR_DIALOG_INTERACTION
  3: 0x00C9 [0x29] REQ_SET_WAIT(priority=0x08, entity_id=Forine (ID: 17764391/0x010F1027), tag_num=0x02)
  4: 0x00D0 [0x00] END_REQSTACK()
```

### Event 453

#### Metadata

| Field        | Value    |
|--------------|----------|
| Entrypoint   | 0x00D1   |
| Data Size    | 37 bytes |
| Instructions | 14       |

```
      00 01 02 03 04 05 06 07  08 09 0A 0B 0C 0D 0E 0F
      -- -- -- -- -- -- -- --  -- -- -- -- -- -- -- --
00D0:    1E F0 FF FF 7F 6F 70  29 08 27 10 0F 01 01 1D   .....op).'.....
00E0: 06 80 23 1D 07 80 23 1D  08 80 23 29 08 27 10 0F  ..#...#...#).'..
00F0: 01 02 20 00 21 00                                 .. .!.          
```

#### Opcodes

```
  0: 0x00D1 [0x1E] EventEntity looks at LocalPlayer and starts talking
  1: 0x00D6 [0x6F] WAIT_FRAME_DELAY: Yield until WaitTime reaches zero
  2: 0x00D7 [0x70] WAIT_ENTITY_RENDER_FLAG: Wait while EventEntity->Render.Flags3 bit 2 is set (cancel turn if not)
  3: 0x00D8 [0x29] REQ_SET_WAIT(priority=0x08, entity_id=Forine (ID: 17764391/0x010F1027), tag_num=0x01)
  4: 0x00DF [0x1D] PRINT_EVENT_MESSAGE(message_id=8595*)
    → "Your orders are to proceed to Heavens Tower in Windurst Walls, where a magic shield will be handed to you."
  5: 0x00E2 [0x23] WAIT_FOR_DIALOG_INTERACTION
  6: 0x00E3 [0x1D] PRINT_EVENT_MESSAGE(message_id=8596*)
    → "In order to accomplish this mission as assigned by Windurst, you are to deliver the shield to the Yagudo treasure chamber, deep underground in Giddeus. However, that is not all..."
  7: 0x00E6 [0x23] WAIT_FOR_DIALOG_INTERACTION
  8: 0x00E7 [0x1D] PRINT_EVENT_MESSAGE(message_id=8597*)
    → "While we cannot break our promise to the Windurstians, to ensure justice is served, we would secretly like you to take two shields off of the Yagudo who you meet en route."
  9: 0x00EA [0x23] WAIT_FOR_DIALOG_INTERACTION
 10: 0x00EB [0x29] REQ_SET_WAIT(priority=0x08, entity_id=Forine (ID: 17764391/0x010F1027), tag_num=0x02)
 11: 0x00F2 [0x20] SET_CLI_EVENT_UC_FLAG: Unlock player control
 12: 0x00F4 [0x21] END_EVENT
 13: 0x00F5 [0x00] END_REQSTACK()
```

### Event 461

#### Metadata

| Field        | Value    |
|--------------|----------|
| Entrypoint   | 0x00F6   |
| Data Size    | 29 bytes |
| Instructions | 10       |

```
      00 01 02 03 04 05 06 07  08 09 0A 0B 0C 0D 0E 0F
      -- -- -- -- -- -- -- --  -- -- -- -- -- -- -- --
00F0:                   1E F0  FF FF 7F 6F 70 29 08 27        .....op).'
0100: 10 0F 01 01 1D 09 80 23  29 08 27 10 0F 01 07 20  .......#).'.... 
0110: 00 21 00                                          .!.             
```

#### Opcodes

```
  0: 0x00F6 [0x1E] EventEntity looks at LocalPlayer and starts talking
  1: 0x00FB [0x6F] WAIT_FRAME_DELAY: Yield until WaitTime reaches zero
  2: 0x00FC [0x70] WAIT_ENTITY_RENDER_FLAG: Wait while EventEntity->Render.Flags3 bit 2 is set (cancel turn if not)
  3: 0x00FD [0x29] REQ_SET_WAIT(priority=0x08, entity_id=Forine (ID: 17764391/0x010F1027), tag_num=0x01)
  4: 0x0104 [0x1D] PRINT_EVENT_MESSAGE(message_id=8613*)
    → "Your efforts are well noted. Take care on your journey to Bastok."
  5: 0x0107 [0x23] WAIT_FOR_DIALOG_INTERACTION
  6: 0x0108 [0x29] REQ_SET_WAIT(priority=0x08, entity_id=Forine (ID: 17764391/0x010F1027), tag_num=0x07)
  7: 0x010F [0x20] SET_CLI_EVENT_UC_FLAG: Unlock player control
  8: 0x0111 [0x21] END_EVENT
  9: 0x0112 [0x00] END_REQSTACK()
```

### Event 462

#### Metadata

| Field        | Value   |
|--------------|---------|
| Entrypoint   | 0x0113  |
| Data Size    | 1 bytes |
| Instructions | 1       |

```
      00 01 02 03 04 05 06 07  08 09 0A 0B 0C 0D 0E 0F
      -- -- -- -- -- -- -- --  -- -- -- -- -- -- -- --
0110:          00                                          .            
```

#### Opcodes

```
  0: 0x0113 [0x00] END_REQSTACK()
```

### Event 65535.10

#### Metadata

| Field        | Value    |
|--------------|----------|
| Entrypoint   | 0x0114   |
| Data Size    | 23 bytes |
| Instructions | 7        |

```
      00 01 02 03 04 05 06 07  08 09 0A 0B 0C 0D 0E 0F
      -- -- -- -- -- -- -- --  -- -- -- -- -- -- -- --
0110:             29 08 27 10  0F 01 01 1D 0A 80 23 1D      ).'.......#.
0120: 0B 80 23 29 08 27 10 0F  01 02 00                 ..#).'.....     
```

#### Opcodes

```
  0: 0x0114 [0x29] REQ_SET_WAIT(priority=0x08, entity_id=Forine (ID: 17764391/0x010F1027), tag_num=0x01)
  1: 0x011B [0x1D] PRINT_EVENT_MESSAGE(message_id=8617*)
    → "Yes, Consul. Allow me to explain Windurst's request..."
  2: 0x011E [0x23] WAIT_FOR_DIALOG_INTERACTION
  3: 0x011F [0x1D] PRINT_EVENT_MESSAGE(message_id=8618*)
    → "A giant monster has appeared in the depths of Giddeus, the borderland to the theocracy of the Yagudo beastmen. The Windurstian government wants it exterminated."
  4: 0x0122 [0x23] WAIT_FOR_DIALOG_INTERACTION
  5: 0x0123 [0x29] REQ_SET_WAIT(priority=0x08, entity_id=Forine (ID: 17764391/0x010F1027), tag_num=0x02)
  6: 0x012A [0x00] END_REQSTACK()
```

### Event 65535.11

#### Metadata

| Field        | Value    |
|--------------|----------|
| Entrypoint   | 0x012B   |
| Data Size    | 19 bytes |
| Instructions | 5        |

```
      00 01 02 03 04 05 06 07  08 09 0A 0B 0C 0D 0E 0F
      -- -- -- -- -- -- -- --  -- -- -- -- -- -- -- --
0120:                                   29 08 27 10 0F             ).'..
0130: 01 01 1D 0C 80 23 29 08  27 10 0F 01 02 00        .....#).'.....  
```

#### Opcodes

```
  0: 0x012B [0x29] REQ_SET_WAIT(priority=0x08, entity_id=Forine (ID: 17764391/0x010F1027), tag_num=0x01)
  1: 0x0132 [0x1D] PRINT_EVENT_MESSAGE(message_id=8619*)
    → "You are to receive a key from Heavens Tower in the Windurst Walls district and head to the innermost part of Giddeus, where the creature awaits."
  2: 0x0135 [0x23] WAIT_FOR_DIALOG_INTERACTION
  3: 0x0136 [0x29] REQ_SET_WAIT(priority=0x08, entity_id=Forine (ID: 17764391/0x010F1027), tag_num=0x02)
  4: 0x013D [0x00] END_REQSTACK()
```

### Event 464

#### Metadata

| Field        | Value    |
|--------------|----------|
| Entrypoint   | 0x013E   |
| Data Size    | 33 bytes |
| Instructions | 12       |

```
      00 01 02 03 04 05 06 07  08 09 0A 0B 0C 0D 0E 0F
      -- -- -- -- -- -- -- --  -- -- -- -- -- -- -- --
0130:                                            1E F0                ..
0140: FF FF 7F 6F 70 29 08 27  10 0F 01 01 1D 0D 80 23  ...op).'.......#
0150: 1D 0E 80 23 29 08 27 10  0F 01 02 20 00 21 00     ...#).'.... .!. 
```

#### Opcodes

```
  0: 0x013E [0x1E] EventEntity looks at LocalPlayer and starts talking
  1: 0x0143 [0x6F] WAIT_FRAME_DELAY: Yield until WaitTime reaches zero
  2: 0x0144 [0x70] WAIT_ENTITY_RENDER_FLAG: Wait while EventEntity->Render.Flags3 bit 2 is set (cancel turn if not)
  3: 0x0145 [0x29] REQ_SET_WAIT(priority=0x08, entity_id=Forine (ID: 17764391/0x010F1027), tag_num=0x01)
  4: 0x014C [0x1D] PRINT_EVENT_MESSAGE(message_id=8627*)
    → "To access the innermost part of Giddeus, you must receive the key from Heavens Tower in the Windurst Walls district."
  5: 0x014F [0x23] WAIT_FOR_DIALOG_INTERACTION
  6: 0x0150 [0x1D] PRINT_EVENT_MESSAGE(message_id=8628*)
    → "Report back here once you have defeated the ferocious monster that is menacing the Yagudo in the depths of Giddeus."
  7: 0x0153 [0x23] WAIT_FOR_DIALOG_INTERACTION
  8: 0x0154 [0x29] REQ_SET_WAIT(priority=0x08, entity_id=Forine (ID: 17764391/0x010F1027), tag_num=0x02)
  9: 0x015B [0x20] SET_CLI_EVENT_UC_FLAG: Unlock player control
 10: 0x015D [0x21] END_EVENT
 11: 0x015E [0x00] END_REQSTACK()
```

### Event 471

#### Metadata

| Field        | Value    |
|--------------|----------|
| Entrypoint   | 0x015F   |
| Data Size    | 33 bytes |
| Instructions | 12       |

```
      00 01 02 03 04 05 06 07  08 09 0A 0B 0C 0D 0E 0F
      -- -- -- -- -- -- -- --  -- -- -- -- -- -- -- --
0150:                                               1E                 .
0160: F0 FF FF 7F 6F 70 29 08  27 10 0F 01 01 1D 0F 80  ....op).'.......
0170: 23 1D 10 80 23 29 08 27  10 0F 01 02 20 00 21 00  #...#).'.... .!.
```

#### Opcodes

```
  0: 0x015F [0x1E] EventEntity looks at LocalPlayer and starts talking
  1: 0x0164 [0x6F] WAIT_FRAME_DELAY: Yield until WaitTime reaches zero
  2: 0x0165 [0x70] WAIT_ENTITY_RENDER_FLAG: Wait while EventEntity->Render.Flags3 bit 2 is set (cancel turn if not)
  3: 0x0166 [0x29] REQ_SET_WAIT(priority=0x08, entity_id=Forine (ID: 17764391/0x010F1027), tag_num=0x01)
  4: 0x016D [0x1D] PRINT_EVENT_MESSAGE(message_id=8641*)
    → "You mentioned that when the nether beast appeared, a Mithra guard came to your aid?"
  5: 0x0170 [0x23] WAIT_FOR_DIALOG_INTERACTION
  6: 0x0171 [0x1D] PRINT_EVENT_MESSAGE(message_id=8642*)
    → "The only Mithra with that degree of strength would be one of the Sibyl Guards from Heavens Tower."
  7: 0x0174 [0x23] WAIT_FOR_DIALOG_INTERACTION
  8: 0x0175 [0x29] REQ_SET_WAIT(priority=0x08, entity_id=Forine (ID: 17764391/0x010F1027), tag_num=0x02)
  9: 0x017C [0x20] SET_CLI_EVENT_UC_FLAG: Unlock player control
 10: 0x017E [0x21] END_EVENT
 11: 0x017F [0x00] END_REQSTACK()
```
