# 17764420

## Common Data

| Field            | Value                    |
|------------------|--------------------------|
| Zone             | Windurst Woods (ID: 241) |
| Block Size       | 3476 bytes               |
| Total Events     | 68                       |
| References Count | 254                      |

## List of Events

| Event ID                   | Entrypoint   |   Size |   Instructions |
|----------------------------|--------------|--------|----------------|
| [65535](#event-65535)      | 0x0000       |      1 |              1 |
| [746](#event-746)          | 0x0001       |      1 |              1 |
| [742](#event-742)          | 0x0002       |      1 |              1 |
| [65535.1](#event-655351)   | 0x0003       |     12 |              3 |
| [65535.2](#event-655352)   | 0x000F       |     12 |              3 |
| [65535.3](#event-655353)   | 0x001B       |     12 |              3 |
| [65535.4](#event-655354)   | 0x0027       |     10 |              2 |
| [65535.5](#event-655355)   | 0x0031       |     11 |              3 |
| [65535.6](#event-655356)   | 0x003C       |      5 |              2 |
| [65535.7](#event-655357)   | 0x0041       |     15 |              3 |
| [65535.8](#event-655358)   | 0x0050       |     19 |              5 |
| [65535.9](#event-655359)   | 0x0063       |      3 |              2 |
| [65535.10](#event-6553510) | 0x0066       |     10 |              2 |
| [65535.11](#event-6553511) | 0x0070       |     52 |             10 |
| [65535.12](#event-6553512) | 0x00A4       |     10 |              2 |
| [65535.13](#event-6553513) | 0x00AE       |     50 |              8 |
| [65535.14](#event-6553514) | 0x00E0       |     10 |              2 |
| [65535.15](#event-6553515) | 0x00EA       |    131 |             26 |
| [65535.16](#event-6553516) | 0x016D       |    131 |             26 |
| [65535.17](#event-6553517) | 0x01F0       |     10 |              2 |
| [65535.18](#event-6553518) | 0x01FA       |     28 |              6 |
| [65535.19](#event-6553519) | 0x0216       |     10 |              2 |
| [65535.20](#event-6553520) | 0x0220       |    204 |             34 |
| [65535.21](#event-6553521) | 0x02EC       |     10 |              2 |
| [65535.22](#event-6553522) | 0x02F6       |    102 |             16 |
| [65535.23](#event-6553523) | 0x035C       |     14 |              4 |
| [65535.24](#event-6553524) | 0x036A       |     10 |              2 |
| [65535.25](#event-6553525) | 0x0374       |     10 |              2 |
| [65535.26](#event-6553526) | 0x037E       |     45 |             11 |
| [65535.27](#event-6553527) | 0x03AB       |     10 |              2 |
| [65535.28](#event-6553528) | 0x03B5       |     57 |              9 |
| [65535.29](#event-6553529) | 0x03EE       |     12 |              3 |
| [65535.30](#event-6553530) | 0x03FA       |     68 |             12 |
| [65535.31](#event-6553531) | 0x043E       |     10 |              2 |
| [65535.32](#event-6553532) | 0x0448       |    218 |             29 |
| [65535.33](#event-6553533) | 0x0522       |     19 |              4 |
| [65535.34](#event-6553534) | 0x0535       |     15 |              3 |
| [65535.35](#event-6553535) | 0x0544       |     22 |              6 |
| [65535.36](#event-6553536) | 0x055A       |     19 |              5 |
| [65535.37](#event-6553537) | 0x056D       |     14 |              4 |
| [65535.38](#event-6553538) | 0x057B       |     14 |              4 |
| [65535.39](#event-6553539) | 0x0589       |     22 |              6 |
| [65535.40](#event-6553540) | 0x059F       |     22 |              6 |
| [65535.41](#event-6553541) | 0x05B5       |     14 |              4 |
| [65535.42](#event-6553542) | 0x05C3       |     14 |              4 |
| [65535.43](#event-6553543) | 0x05D1       |     10 |              2 |
| [65535.44](#event-6553544) | 0x05DB       |     14 |              4 |
| [65535.45](#event-6553545) | 0x05E9       |     14 |              4 |
| [776](#event-776)          | 0x05F7       |      1 |              1 |
| [65535.46](#event-6553546) | 0x05F8       |     15 |              3 |
| [65535.47](#event-6553547) | 0x0607       |     48 |             11 |
| [65535.48](#event-6553548) | 0x0637       |     48 |             11 |
| [65535.49](#event-6553549) | 0x0667       |      6 |              2 |
| [65535.50](#event-6553550) | 0x066D       |      6 |              2 |
| [65535.51](#event-6553551) | 0x0673       |     15 |              3 |
| [65535.52](#event-6553552) | 0x0682       |     54 |             12 |
| [65535.53](#event-6553553) | 0x06B8       |     66 |             16 |
| [65535.54](#event-6553554) | 0x06FA       |     15 |              3 |
| [65535.55](#event-6553555) | 0x0709       |     77 |             17 |
| [65535.56](#event-6553556) | 0x0756       |     50 |             12 |
| [65535.57](#event-6553557) | 0x0788       |     50 |             12 |
| [65535.58](#event-6553558) | 0x07BA       |     67 |             15 |
| [65535.59](#event-6553559) | 0x07FD       |     14 |              4 |
| [65535.60](#event-6553560) | 0x080B       |     34 |              8 |
| [65535.61](#event-6553561) | 0x082D       |     14 |              4 |
| [65535.62](#event-6553562) | 0x083B       |     34 |              8 |
| [65535.63](#event-6553563) | 0x085D       |     14 |              4 |
| [65535.64](#event-6553564) | 0x086B       |     15 |              3 |

## DAT References (imed_data)

|   Index | Hex Value   |   Dec Value |
|---------|-------------|-------------|
|       0 | 0xFFFFD067  |  4294955111 |
|       1 | 0xFFFE38C2  |  4294850754 |
|       2 | 0xFFFFFED4  |  4294966996 |
|       3 | 0x0083      |         131 |
|       4 | 0xFFFFD026  |  4294955046 |
|       5 | 0x0C0C      |        3084 |
|       6 | 0xFFFFE4C1  |  4294960321 |
|       7 | 0xFFFE627B  |  4294861435 |
|       8 | 0x060C      |        1548 |
|       9 | 0x0C23      |        3107 |
|      10 | 0x0000      |           0 |
|      11 | 0x027B      |         635 |
|      12 | 0xFFFE5731  |  4294858545 |
|      13 | 0x004C      |          76 |
|      14 | 0x0050      |          80 |
|      15 | 0x0F11      |        3857 |
|      16 | 0xFFFE5936  |  4294859062 |
|      17 | 0x1DA00     |      121344 |
|      18 | 0xFFFE06F8  |  4294838008 |
|      19 | 0xFFFFE967  |  4294961511 |
|      20 | 0x0AE3      |        2787 |
|      21 | 0x000A      |          10 |
|      22 | 0x1D1B7     |      119223 |
|      23 | 0xFFFE08CC  |  4294838476 |
|      24 | 0xFFFFEC78  |  4294962296 |
|      25 | 0x1D07B     |      118907 |
|      26 | 0xFFFE1503  |  4294841603 |
|      27 | 0x0078      |         120 |
|      28 | 0x001E      |          30 |
|      29 | 0x0368      |         872 |
|      30 | 0xFFFF963E  |  4294940222 |
|      31 | 0xFFFFE507  |  4294960391 |
|      32 | 0xFFFFF63D  |  4294964797 |
|      33 | 0x006F      |         111 |
|      34 | 0x0013      |          19 |
|      35 | 0xFFFFA691  |  4294944401 |
|      36 | 0xFFFFE2AF  |  4294959791 |
|      37 | 0x036B      |         875 |
|      38 | 0x003C      |          60 |
|      39 | 0x00E0      |         224 |
|      40 | 0x1DC90     |      122000 |
|      41 | 0xFFFE69C0  |  4294863296 |
|      42 | 0x0B58      |        2904 |
|      43 | 0x0039      |          57 |
|      44 | 0x1E1D1     |      123345 |
|      45 | 0xFFFE7448  |  4294865992 |
|      46 | 0x1EC63     |      126051 |
|      47 | 0xFFFE75F9  |  4294866425 |
|      48 | 0x1F133     |      127283 |
|      49 | 0xFFFE6C8E  |  4294864014 |
|      50 | 0x1EA21     |      125473 |
|      51 | 0xFFFE6447  |  4294861895 |
|      52 | 0x1E0C1     |      123073 |
|      53 | 0xFFFE59DF  |  4294859231 |
|      54 | 0x1E499     |      124057 |
|      55 | 0xFFFE5044  |  4294856772 |
|      56 | 0x1ED76     |      126326 |
|      57 | 0xFFFE5055  |  4294856789 |
|      58 | 0x1F4D1     |      128209 |
|      59 | 0xFFFE5989  |  4294859145 |
|      60 | 0x1EAE7     |      125671 |
|      61 | 0xFFFE622D  |  4294861357 |
|      62 | 0x1B032     |      110642 |
|      63 | 0xFFFE1E53  |  4294843987 |
|      64 | 0xFFFFEC79  |  4294962297 |
|      65 | 0x0732      |        1842 |
|      66 | 0x1BB95     |      113557 |
|      67 | 0xFFFE2C30  |  4294847536 |
|      68 | 0x1CE19     |      118297 |
|      69 | 0xFFFE8138  |  4294869304 |
|      70 | 0x0E60      |        3680 |
|      71 | 0x1EB82     |      125826 |
|      72 | 0xFFFE855C  |  4294870364 |
|      73 | 0x0C06      |        3078 |
|      74 | 0x0441      |        1089 |
|      75 | 0x1FFB4     |      130996 |
|      76 | 0xFFFE6ADE  |  4294863582 |
|      77 | 0xE8C8      |       59592 |
|      78 | 0xFFFE4683  |  4294854275 |
|      79 | 0xFFFFF63C  |  4294964796 |
|      80 | 0x0011      |          17 |
|      81 | 0xE307      |       58119 |
|      82 | 0xFFFE398C  |  4294850956 |
|      83 | 0xFFFFEBBF  |  4294962111 |
|      84 | 0xFFFED21D  |  4294890013 |
|      85 | 0x0BB7      |        2999 |
|      86 | 0x0554      |        1364 |
|      87 | 0x00FE      |         254 |
|      88 | 0xFFFFE149  |  4294959433 |
|      89 | 0xFFFEBB27  |  4294884135 |
|      90 | 0x221E2     |      139746 |
|      91 | 0xFFFE056A  |  4294837610 |
|      92 | 0xFFFFEB7E  |  4294962046 |
|      93 | 0x07C9      |        1993 |
|      94 | 0xFFFEE882  |  4294895746 |
|      95 | 0xFFF8408B  |  4294459531 |
|      96 | 0xFFFFEC4A  |  4294962250 |
|      97 | 0x0EA0      |        3744 |
|      98 | 0xFFFEFA40  |  4294900288 |
|      99 | 0xFFF841AD  |  4294459821 |
|     100 | 0xFFFFEB3F  |  4294961983 |
|     101 | 0x0C05      |        3077 |
|     102 | 0xFFFF1B54  |  4294908756 |
|     103 | 0xFFF84603  |  4294460931 |
|     104 | 0xFFFFEB36  |  4294961974 |
|     105 | 0xFFFF031E  |  4294902558 |
|     106 | 0xFFF56864  |  4294273124 |
|     107 | 0x1ABF      |        6847 |
|     108 | 0x0341      |         833 |
|     109 | 0xFFFF07EA  |  4294903786 |
|     110 | 0xFFF55395  |  4294267797 |
|     111 | 0x2258      |        8792 |
|     112 | 0x0122      |         290 |
|     113 | 0xFFFF7361  |  4294931297 |
|     114 | 0xFFF716C2  |  4294383298 |
|     115 | 0x7FD4      |       32724 |
|     116 | 0x0455      |        1109 |
|     117 | 0xFFFF7D12  |  4294933778 |
|     118 | 0xFFF7143C  |  4294382652 |
|     119 | 0x7C1F      |       31775 |
|     120 | 0xFFFF8254  |  4294935124 |
|     121 | 0xFFF70A3E  |  4294380094 |
|     122 | 0x7720      |       30496 |
|     123 | 0xFFFFA015  |  4294942741 |
|     124 | 0xFFFEB4A6  |  4294882470 |
|     125 | 0x0FF8      |        4088 |
|     126 | 0xFFFFC7C8  |  4294952904 |
|     127 | 0xFFFEB4D7  |  4294882519 |
|     128 | 0x0002      |           2 |
|     129 | 0x0005      |           5 |
|     130 | 0x00C7      |         199 |
|     131 | 0xFFFFEE50  |  4294962768 |
|     132 | 0xFFFED5B9  |  4294890937 |
|     133 | 0xFFFFFEDB  |  4294967003 |
|     134 | 0xFFFF017F  |  4294902143 |
|     135 | 0xFFFFE4C3  |  4294960323 |
|     136 | 0xFFFF3F9D  |  4294918045 |
|     137 | 0xFFFFBD92  |  4294950290 |
|     138 | 0xFFFF430B  |  4294918923 |
|     139 | 0x014C      |         332 |
|     140 | 0x17DE      |        6110 |
|     141 | 0x1DDC7     |      122311 |
|     142 | 0xFFFFFFD0  |  4294967248 |
|     143 | 0x0683      |        1667 |
|     144 | 0xFFFF1EBA  |  4294909626 |
|     145 | 0xFFF85342  |  4294464322 |
|     146 | 0xFFFFEB1A  |  4294961946 |
|     147 | 0x0842      |        2114 |
|     148 | 0xFFFF1A41  |  4294908481 |
|     149 | 0xFFF84655  |  4294461013 |
|     150 | 0xFFFFEB12  |  4294961938 |
|     151 | 0xFFFF17C0  |  4294907840 |
|     152 | 0xFFF8377D  |  4294457213 |
|     153 | 0xFFFFEAC2  |  4294961858 |
|     154 | 0xFFFF0AA1  |  4294904481 |
|     155 | 0xFFF83EA3  |  4294459043 |
|     156 | 0xFFFFEA85  |  4294961797 |
|     157 | 0xFFFF1C00  |  4294908928 |
|     158 | 0xFFF84DE0  |  4294462944 |
|     159 | 0xFFFFEB4A  |  4294961994 |
|     160 | 0xFFFECAEF  |  4294888175 |
|     161 | 0xFFF5551E  |  4294268190 |
|     162 | 0x2177      |        8567 |
|     163 | 0xFFFEB2BD  |  4294881981 |
|     164 | 0xFFF55733  |  4294268723 |
|     165 | 0x2152      |        8530 |
|     166 | 0xFFFEC64B  |  4294886987 |
|     167 | 0xFFF55382  |  4294267778 |
|     168 | 0x21C5      |        8645 |
|     169 | 0xFFFEAED5  |  4294880981 |
|     170 | 0xFFF55E4F  |  4294270543 |
|     171 | 0x2025      |        8229 |
|     172 | 0x1F613     |      128531 |
|     173 | 0xFFFE02F1  |  4294836977 |
|     174 | 0xFFFFE878  |  4294961272 |
|     175 | 0x0CD2      |        3282 |
|     176 | 0x1FB65     |      129893 |
|     177 | 0xFFFE20CA  |  4294844618 |
|     178 | 0xFFF6BBFE  |  4294360062 |
|     179 | 0x924FF     |      599295 |
|     180 | 0x00A0      |         160 |
|     181 | 0x0179      |         377 |
|     182 | 0x0001      |           1 |
|     183 | 0xFFF6C5B9  |  4294362553 |
|     184 | 0x92AF2     |      600818 |
|     185 | 0x0023      |          35 |
|     186 | 0xFFF6B7C3  |  4294358979 |
|     187 | 0x92A37     |      600631 |
|     188 | 0x00D6      |         214 |
|     189 | 0xFFF6C07A  |  4294361210 |
|     190 | 0x92ED0     |      601808 |
|     191 | 0x0066      |         102 |
|     192 | 0xFFF6D7C0  |  4294367168 |
|     193 | 0x8EF6A     |      585578 |
|     194 | 0x0274      |         628 |
|     195 | 0x011C      |         284 |
|     196 | 0xFFF6D0CA  |  4294365386 |
|     197 | 0x8F7DF     |      587743 |
|     198 | 0x0112      |         274 |
|     199 | 0xFFF6D779  |  4294367097 |
|     200 | 0x8FCC2     |      588994 |
|     201 | 0x015B      |         347 |
|     202 | 0xFFF6DB55  |  4294368085 |
|     203 | 0x8F169     |      586089 |
|     204 | 0x024A      |         586 |
|     205 | 0xFFF6DAA1  |  4294367905 |
|     206 | 0x8E6CF     |      583375 |
|     207 | 0x033E      |         830 |
|     208 | 0xFFF6D069  |  4294365289 |
|     209 | 0x8F7F4     |      587764 |
|     210 | 0x010C      |         268 |
|     211 | 0x0C58      |        3160 |
|     212 | 0x0154      |         340 |
|     213 | 0xFFF6D763  |  4294367075 |
|     214 | 0x8FB0E     |      588558 |
|     215 | 0x0171      |         369 |
|     216 | 0xFFF6CFE0  |  4294365152 |
|     217 | 0x8F449     |      586825 |
|     218 | 0x0178      |         376 |
|     219 | 0x0862      |        2146 |
|     220 | 0xFFF6D8AC  |  4294367404 |
|     221 | 0x8FABD     |      588477 |
|     222 | 0x0175      |         373 |
|     223 | 0xFFF6DB01  |  4294368001 |
|     224 | 0x90356     |      590678 |
|     225 | 0x0108      |         264 |
|     226 | 0x03BF      |         959 |
|     227 | 0xFFF6C73F  |  4294362943 |
|     228 | 0x8F234     |      586292 |
|     229 | 0x008A      |         138 |
|     230 | 0x0025      |          37 |
|     231 | 0x00F0      |         240 |
|     232 | 0xFFF6D6F8  |  4294366968 |
|     233 | 0x8E30A     |      582410 |
|     234 | 0x0322      |         802 |
|     235 | 0x0BD3      |        3027 |
|     236 | 0xFFF6D2A6  |  4294365862 |
|     237 | 0x8FA8C     |      588428 |
|     238 | 0x0138      |         312 |
|     239 | 0xFFF6C79F  |  4294363039 |
|     240 | 0x8F34D     |      586573 |
|     241 | 0xFFF6CB4A  |  4294363978 |
|     242 | 0x8FAEF     |      588527 |
|     243 | 0x00C4      |         196 |
|     244 | 0xFFF6D94C  |  4294367564 |
|     245 | 0x8EC18     |      584728 |
|     246 | 0x02D3      |         723 |
|     247 | 0xFFF6C219  |  4294361625 |
|     248 | 0x8E860     |      583776 |
|     249 | 0xFFFFFF94  |  4294967188 |
|     250 | 0xFFF6D3EA  |  4294366186 |
|     251 | 0x8F45F     |      586847 |
|     252 | 0x01B7      |         439 |
|     253 | 0x064B      |        1611 |

## Events

### Event 65535

#### Metadata

| Field        | Value   |
|--------------|---------|
| Entrypoint   | 0x0000  |
| Data Size    | 1 bytes |
| Instructions | 1       |

```
      00 01 02 03 04 05 06 07  08 09 0A 0B 0C 0D 0E 0F
      -- -- -- -- -- -- -- --  -- -- -- -- -- -- -- --
0000: 00                                                .               
```

#### Opcodes

```
  0: 0x0000 [0x00] END_REQSTACK()
```

### Event 746

#### Metadata

| Field        | Value   |
|--------------|---------|
| Entrypoint   | 0x0001  |
| Data Size    | 1 bytes |
| Instructions | 1       |

```
      00 01 02 03 04 05 06 07  08 09 0A 0B 0C 0D 0E 0F
      -- -- -- -- -- -- -- --  -- -- -- -- -- -- -- --
0000:    00                                              .              
```

#### Opcodes

```
  0: 0x0001 [0x00] END_REQSTACK()
```

### Event 742

#### Metadata

| Field        | Value   |
|--------------|---------|
| Entrypoint   | 0x0002  |
| Data Size    | 1 bytes |
| Instructions | 1       |

```
      00 01 02 03 04 05 06 07  08 09 0A 0B 0C 0D 0E 0F
      -- -- -- -- -- -- -- --  -- -- -- -- -- -- -- --
0000:       00                                            .             
```

#### Opcodes

```
  0: 0x0002 [0x00] END_REQSTACK()
```

### Event 65535.1

#### Metadata

| Field        | Value    |
|--------------|----------|
| Entrypoint   | 0x0003   |
| Data Size    | 12 bytes |
| Instructions | 3        |

```
      00 01 02 03 04 05 06 07  08 09 0A 0B 0C 0D 0E 0F
      -- -- -- -- -- -- -- --  -- -- -- -- -- -- -- --
0000:          33 01 37 00 80  01 80 02 80 03 80 00        3.7......... 
```

#### Opcodes

```
  0: 0x0003 [0x33] EventEntity->Render.Flags0 |= 0x200000 // Bit 21 (flag=0x01)
  1: 0x0005 [0x37] UPDATE_EVENT_POSITION_AND_DIR: x=-12.185*, z=-116.542*, y=-0.300*, direction=11.5°*
  2: 0x000E [0x00] END_REQSTACK()
```

### Event 65535.2

#### Metadata

| Field        | Value    |
|--------------|----------|
| Entrypoint   | 0x000F   |
| Data Size    | 12 bytes |
| Instructions | 3        |

```
      00 01 02 03 04 05 06 07  08 09 0A 0B 0C 0D 0E 0F
      -- -- -- -- -- -- -- --  -- -- -- -- -- -- -- --
0000:                                               33                 3
0010: 01 37 04 80 01 80 02 80  05 80 00                 .7.........     
```

#### Opcodes

```
  0: 0x000F [0x33] EventEntity->Render.Flags0 |= 0x200000 // Bit 21 (flag=0x01)
  1: 0x0011 [0x37] UPDATE_EVENT_POSITION_AND_DIR: x=-12.250*, z=-116.542*, y=-0.300*, direction=271.0°*
  2: 0x001A [0x00] END_REQSTACK()
```

### Event 65535.3

#### Metadata

| Field        | Value    |
|--------------|----------|
| Entrypoint   | 0x001B   |
| Data Size    | 12 bytes |
| Instructions | 3        |

```
      00 01 02 03 04 05 06 07  08 09 0A 0B 0C 0D 0E 0F
      -- -- -- -- -- -- -- --  -- -- -- -- -- -- -- --
0010:                                   33 01 37 04 80             3.7..
0020: 01 80 02 80 03 80 00                              .......         
```

#### Opcodes

```
  0: 0x001B [0x33] EventEntity->Render.Flags0 |= 0x200000 // Bit 21 (flag=0x01)
  1: 0x001D [0x37] UPDATE_EVENT_POSITION_AND_DIR: x=-12.250*, z=-116.542*, y=-0.300*, direction=11.5°*
  2: 0x0026 [0x00] END_REQSTACK()
```

### Event 65535.4

#### Metadata

| Field        | Value    |
|--------------|----------|
| Entrypoint   | 0x0027   |
| Data Size    | 10 bytes |
| Instructions | 2        |

```
      00 01 02 03 04 05 06 07  08 09 0A 0B 0C 0D 0E 0F
      -- -- -- -- -- -- -- --  -- -- -- -- -- -- -- --
0020:                      37  06 80 07 80 08 80 09 80         7........
0030: 00                                                .               
```

#### Opcodes

```
  0: 0x0027 [0x37] UPDATE_EVENT_POSITION_AND_DIR: x=-6.975*, z=-105.861*, y=1.548*, direction=273.1°*
  1: 0x0030 [0x00] END_REQSTACK()
```

### Event 65535.5

#### Metadata

| Field        | Value    |
|--------------|----------|
| Entrypoint   | 0x0031   |
| Data Size    | 11 bytes |
| Instructions | 3        |

```
      00 01 02 03 04 05 06 07  08 09 0A 0B 0C 0D 0E 0F
      -- -- -- -- -- -- -- --  -- -- -- -- -- -- -- --
0030:    B4 01 00 00 0A 80 B5  00 00 00 00               ...........    
```

#### Opcodes

```
  0: 0x0031 [0xB4] UI_WINDOW_STRING_HANDLER(case=0x01 - Copy string from event strings table, work_offset=ExtData[1]->WorkLocal[0], string_index=0*)
  1: 0x0037 [0xB5] SET_EVENT_ENTITY_NAME: Change EventEntity name to ExtData[1]->WorkLocal[0]
  2: 0x003B [0x00] END_REQSTACK()
```

### Event 65535.6

#### Metadata

| Field        | Value   |
|--------------|---------|
| Entrypoint   | 0x003C  |
| Data Size    | 5 bytes |
| Instructions | 2       |

```
      00 01 02 03 04 05 06 07  08 09 0A 0B 0C 0D 0E 0F
      -- -- -- -- -- -- -- --  -- -- -- -- -- -- -- --
0030:                                      B6 00 04 10              ....
0040: 00                                                .               
```

#### Opcodes

```
  0: 0x003C [0xB6] ENTITY_APPEARANCE_HANDLER(case=Hair style, value=Work_Zone[4])
  1: 0x0040 [0x00] END_REQSTACK()
```

### Event 65535.7

#### Metadata

| Field        | Value    |
|--------------|----------|
| Entrypoint   | 0x0041   |
| Data Size    | 15 bytes |
| Instructions | 3        |

```
      00 01 02 03 04 05 06 07  08 09 0A 0B 0C 0D 0E 0F
      -- -- -- -- -- -- -- --  -- -- -- -- -- -- -- --
0040:    37 0B 80 0C 80 08 80  0D 80 80 F8 FF FF 7F 00   7..............
```

#### Opcodes

```
  0: 0x0041 [0x37] UPDATE_EVENT_POSITION_AND_DIR: x=0.635*, z=-108.751*, y=1.548*, direction=6.7°*
  1: 0x004A [0x80] LOAD_WAIT(entity=EventEntity)
  2: 0x004F [0x00] END_REQSTACK()
```

### Event 65535.8

#### Metadata

| Field        | Value    |
|--------------|----------|
| Entrypoint   | 0x0050   |
| Data Size    | 19 bytes |
| Instructions | 5        |

```
      00 01 02 03 04 05 06 07  08 09 0A 0B 0C 0D 0E 0F
      -- -- -- -- -- -- -- --  -- -- -- -- -- -- -- --
0050: 32 0E 80 1F 00 0F 80 10  80 08 80 1F 01 1E F0 FF  2...............
0060: FF 7F 00                                          ...             
```

#### Opcodes

```
  0: 0x0050 [0x32] ExtData[1]->MainSpeed = 80* * 0.1
  1: 0x0053 [0x1F] MOVE_ENTITY: EventEntity moves to X=3.857*, Z=-108.234*, Y=1.548*
  2: 0x005B [0x1F] MOVE_ENTITY: Update entity position (mode=1)
  3: 0x005D [0x1E] EventEntity looks at LocalPlayer and starts talking
  4: 0x0062 [0x00] END_REQSTACK()
```

### Event 65535.9

#### Metadata

| Field        | Value   |
|--------------|---------|
| Entrypoint   | 0x0063  |
| Data Size    | 3 bytes |
| Instructions | 2       |

```
      00 01 02 03 04 05 06 07  08 09 0A 0B 0C 0D 0E 0F
      -- -- -- -- -- -- -- --  -- -- -- -- -- -- -- --
0060:          33 00 00                                    3..          
```

#### Opcodes

```
  0: 0x0063 [0x33] EventEntity->Render.Flags0 &= ~ 0x200000 // Bit 21 (flag=0x00)
  1: 0x0065 [0x00] END_REQSTACK()
```

### Event 65535.10

#### Metadata

| Field        | Value    |
|--------------|----------|
| Entrypoint   | 0x0066   |
| Data Size    | 10 bytes |
| Instructions | 2        |

```
      00 01 02 03 04 05 06 07  08 09 0A 0B 0C 0D 0E 0F
      -- -- -- -- -- -- -- --  -- -- -- -- -- -- -- --
0060:                   37 11  80 12 80 13 80 14 80 00        7.........
```

#### Opcodes

```
  0: 0x0066 [0x37] UPDATE_EVENT_POSITION_AND_DIR: x=121.344*, z=-129.288*, y=-5.785*, direction=244.9°*
  1: 0x006F [0x00] END_REQSTACK()
```

### Event 65535.11

#### Metadata

| Field        | Value    |
|--------------|----------|
| Entrypoint   | 0x0070   |
| Data Size    | 52 bytes |
| Instructions | 10       |

```
      00 01 02 03 04 05 06 07  08 09 0A 0B 0C 0D 0E 0F
      -- -- -- -- -- -- -- --  -- -- -- -- -- -- -- --
0070: 32 15 80 5A 00 16 80 17  80 18 80 5A 01 5A 00 19  2..Z.......Z.Z..
0080: 80 1A 80 18 80 5A 01 4B  44 10 0F 01 1B 80 1C 1C  .....Z.KD.......
0090: 80 5B 1D 80 44 10 0F 01  44 10 0F 01 68 69 30 39  .[..D...D...hi09
00A0: 1C 1B 80 00                                       ....            
```

#### Opcodes

```
  0: 0x0070 [0x32] ExtData[1]->MainSpeed = 10* * 0.1
  1: 0x0073 [0x5A] UPDATE_EVENT_POSITION: Set EventEntity MovePosition to X=119.223*, Z=-128.820*, Y=-5.000*
  2: 0x007B [0x5A] UPDATE_EVENT_POSITION: Move EventEntity incrementally towards MovePosition
  3: 0x007D [0x5A] UPDATE_EVENT_POSITION: Set EventEntity MovePosition to X=118.907*, Z=-125.693*, Y=-5.000*
  4: 0x0085 [0x5A] UPDATE_EVENT_POSITION: Move EventEntity incrementally towards MovePosition
  5: 0x0087 [0x4B] UPDATE_ENTITY_YAW(entity=Unnamed NPC (ID: 17764420/0x010F1044), yaw=0.7°*)
  6: 0x008E [0x1C] WAIT(30* ticks)
  7: 0x0091 [0x5B] LOAD_EXT_SCHEDULER: Load scheduler "hi09" with entities [Unnamed NPC (ID: 17764420/0x010F1044), Unnamed NPC (ID: 17764420/0x010F1044)], work=872*
  8: 0x00A0 [0x1C] WAIT(120* ticks)
  9: 0x00A3 [0x00] END_REQSTACK()
```

### Event 65535.12

#### Metadata

| Field        | Value    |
|--------------|----------|
| Entrypoint   | 0x00A4   |
| Data Size    | 10 bytes |
| Instructions | 2        |

```
      00 01 02 03 04 05 06 07  08 09 0A 0B 0C 0D 0E 0F
      -- -- -- -- -- -- -- --  -- -- -- -- -- -- -- --
00A0:             37 1E 80 1F  80 20 80 21 80 00            7.... .!..  
```

#### Opcodes

```
  0: 0x00A4 [0x37] UPDATE_EVENT_POSITION_AND_DIR: x=-27.074*, z=-6.905*, y=-2.499*, direction=9.8°*
  1: 0x00AD [0x00] END_REQSTACK()
```

### Event 65535.13

#### Metadata

| Field        | Value    |
|--------------|----------|
| Entrypoint   | 0x00AE   |
| Data Size    | 50 bytes |
| Instructions | 8        |

```
      00 01 02 03 04 05 06 07  08 09 0A 0B 0C 0D 0E 0F
      -- -- -- -- -- -- -- --  -- -- -- -- -- -- -- --
00A0:                                            32 22                2"
00B0: 80 1F 00 23 80 24 80 20  80 1F 01 1C 15 80 5B 25  ...#.$. ......[%
00C0: 80 44 10 0F 01 44 10 0F  01 6B 75 65 30 1C 26 80  .D...D...kue0.&.
00D0: 5B 27 80 44 10 0F 01 44  10 0F 01 31 30 30 39 00  ['.D...D...1009.
```

#### Opcodes

```
  0: 0x00AE [0x32] ExtData[1]->MainSpeed = 19* * 0.1
  1: 0x00B1 [0x1F] MOVE_ENTITY: EventEntity moves to X=-22.895*, Z=-7.505*, Y=-2.499*
  2: 0x00B9 [0x1F] MOVE_ENTITY: Update entity position (mode=1)
  3: 0x00BB [0x1C] WAIT(10* ticks)
  4: 0x00BE [0x5B] LOAD_EXT_SCHEDULER: Load scheduler "kue0" with entities [Unnamed NPC (ID: 17764420/0x010F1044), Unnamed NPC (ID: 17764420/0x010F1044)], work=875*
  5: 0x00CD [0x1C] WAIT(60* ticks)
  6: 0x00D0 [0x5B] LOAD_EXT_SCHEDULER: Load scheduler "1009" with entities [Unnamed NPC (ID: 17764420/0x010F1044), Unnamed NPC (ID: 17764420/0x010F1044)], work=224*
  7: 0x00DF [0x00] END_REQSTACK()
```

### Event 65535.14

#### Metadata

| Field        | Value    |
|--------------|----------|
| Entrypoint   | 0x00E0   |
| Data Size    | 10 bytes |
| Instructions | 2        |

```
      00 01 02 03 04 05 06 07  08 09 0A 0B 0C 0D 0E 0F
      -- -- -- -- -- -- -- --  -- -- -- -- -- -- -- --
00E0: 37 28 80 29 80 18 80 2A  80 00                    7(.)...*..      
```

#### Opcodes

```
  0: 0x00E0 [0x37] UPDATE_EVENT_POSITION_AND_DIR: x=122.000*, z=-104.000*, y=-5.000*, direction=255.2°*
  1: 0x00E9 [0x00] END_REQSTACK()
```

### Event 65535.15

#### Metadata

| Field        | Value     |
|--------------|-----------|
| Entrypoint   | 0x00EA    |
| Data Size    | 131 bytes |
| Instructions | 26        |

```
      00 01 02 03 04 05 06 07  08 09 0A 0B 0C 0D 0E 0F
      -- -- -- -- -- -- -- --  -- -- -- -- -- -- -- --
00E0:                                32 2B 80 1F 00 2C            2+...,
00F0: 80 2D 80 18 80 1F 01 1F  00 2E 80 2F 80 18 80 1F  .-........./....
0100: 01 1F 00 30 80 31 80 18  80 1F 01 1F 00 32 80 33  ...0.1.......2.3
0110: 80 18 80 1F 01 1F 00 34  80 35 80 18 80 1F 01 1F  .......4.5......
0120: 00 36 80 37 80 18 80 1F  01 1F 00 38 80 39 80 18  .6.7.......8.9..
0130: 80 1F 01 1F 00 3A 80 3B  80 18 80 1F 01 1F 00 3C  .....:.;.......<
0140: 80 3D 80 18 80 1F 01 1F  00 28 80 29 80 18 80 1F  .=.......(.)....
0150: 01 02 4D 10 0A 80 00 63  01 27 05 44 10 0F 01 12  ..M....c.'.D....
0160: 01 6C 01 37 0A 80 0A 80  0A 80 0A 80 00           .l.7.........   
```

#### Opcodes

```
  0: 0x00EA [0x32] ExtData[1]->MainSpeed = 57* * 0.1
  1: 0x00ED [0x1F] MOVE_ENTITY: EventEntity moves to X=123.345*, Z=-101.304*, Y=-5.000*
  2: 0x00F5 [0x1F] MOVE_ENTITY: Update entity position (mode=1)
  3: 0x00F7 [0x1F] MOVE_ENTITY: EventEntity moves to X=126.051*, Z=-100.871*, Y=-5.000*
  4: 0x00FF [0x1F] MOVE_ENTITY: Update entity position (mode=1)
  5: 0x0101 [0x1F] MOVE_ENTITY: EventEntity moves to X=127.283*, Z=-103.282*, Y=-5.000*
  6: 0x0109 [0x1F] MOVE_ENTITY: Update entity position (mode=1)
  7: 0x010B [0x1F] MOVE_ENTITY: EventEntity moves to X=125.473*, Z=-105.401*, Y=-5.000*
  8: 0x0113 [0x1F] MOVE_ENTITY: Update entity position (mode=1)
  9: 0x0115 [0x1F] MOVE_ENTITY: EventEntity moves to X=123.073*, Z=-108.065*, Y=-5.000*
 10: 0x011D [0x1F] MOVE_ENTITY: Update entity position (mode=1)
 11: 0x011F [0x1F] MOVE_ENTITY: EventEntity moves to X=124.057*, Z=-110.524*, Y=-5.000*
 12: 0x0127 [0x1F] MOVE_ENTITY: Update entity position (mode=1)
 13: 0x0129 [0x1F] MOVE_ENTITY: EventEntity moves to X=126.326*, Z=-110.507*, Y=-5.000*
 14: 0x0131 [0x1F] MOVE_ENTITY: Update entity position (mode=1)
 15: 0x0133 [0x1F] MOVE_ENTITY: EventEntity moves to X=128.209*, Z=-108.151*, Y=-5.000*
 16: 0x013B [0x1F] MOVE_ENTITY: Update entity position (mode=1)
 17: 0x013D [0x1F] MOVE_ENTITY: EventEntity moves to X=125.671*, Z=-105.939*, Y=-5.000*
 18: 0x0145 [0x1F] MOVE_ENTITY: Update entity position (mode=1)
 19: 0x0147 [0x1F] MOVE_ENTITY: EventEntity moves to X=122.000*, Z=-104.000*, Y=-5.000*
 20: 0x014F [0x1F] MOVE_ENTITY: Update entity position (mode=1)
 21: 0x0151 [0x02] IF !(Work_Zone[77] == 0*) GOTO 0x0163
 22: 0x0159 [0x27] REQ_SET(priority=0x05, entity_id=Unnamed NPC (ID: 17764420/0x010F1044), tag_num=0x12)
 23: 0x0160 [0x01] GOTO 0x016C
 24: 0x0163 [0x37] UPDATE_EVENT_POSITION_AND_DIR: x=0.000*, z=0.000*, y=0.000*, direction=0.0°*

SUBROUTINE_016C:
 25: 0x016C [0x00] END_REQSTACK()
```

### Event 65535.16

#### Metadata

| Field        | Value     |
|--------------|-----------|
| Entrypoint   | 0x016D    |
| Data Size    | 131 bytes |
| Instructions | 26        |

```
      00 01 02 03 04 05 06 07  08 09 0A 0B 0C 0D 0E 0F
      -- -- -- -- -- -- -- --  -- -- -- -- -- -- -- --
0160:                                         32 2B 80               2+.
0170: 1F 00 2C 80 2D 80 18 80  1F 01 1F 00 2E 80 2F 80  ..,.-........./.
0180: 18 80 1F 01 1F 00 30 80  31 80 18 80 1F 01 1F 00  ......0.1.......
0190: 32 80 33 80 18 80 1F 01  1F 00 34 80 35 80 18 80  2.3.......4.5...
01A0: 1F 01 1F 00 36 80 37 80  18 80 1F 01 1F 00 38 80  ....6.7.......8.
01B0: 39 80 18 80 1F 01 1F 00  3A 80 3B 80 18 80 1F 01  9.......:.;.....
01C0: 1F 00 3C 80 3D 80 18 80  1F 01 1F 00 28 80 29 80  ..<.=.......(.).
01D0: 18 80 1F 01 02 4D 10 0A  80 00 E6 01 27 05 44 10  .....M......'.D.
01E0: 0F 01 11 01 EF 01 37 0A  80 0A 80 0A 80 0A 80 00  ......7.........
```

#### Opcodes

```
  0: 0x016D [0x32] ExtData[1]->MainSpeed = 57* * 0.1
  1: 0x0170 [0x1F] MOVE_ENTITY: EventEntity moves to X=123.345*, Z=-101.304*, Y=-5.000*
  2: 0x0178 [0x1F] MOVE_ENTITY: Update entity position (mode=1)
  3: 0x017A [0x1F] MOVE_ENTITY: EventEntity moves to X=126.051*, Z=-100.871*, Y=-5.000*
  4: 0x0182 [0x1F] MOVE_ENTITY: Update entity position (mode=1)
  5: 0x0184 [0x1F] MOVE_ENTITY: EventEntity moves to X=127.283*, Z=-103.282*, Y=-5.000*
  6: 0x018C [0x1F] MOVE_ENTITY: Update entity position (mode=1)
  7: 0x018E [0x1F] MOVE_ENTITY: EventEntity moves to X=125.473*, Z=-105.401*, Y=-5.000*
  8: 0x0196 [0x1F] MOVE_ENTITY: Update entity position (mode=1)
  9: 0x0198 [0x1F] MOVE_ENTITY: EventEntity moves to X=123.073*, Z=-108.065*, Y=-5.000*
 10: 0x01A0 [0x1F] MOVE_ENTITY: Update entity position (mode=1)
 11: 0x01A2 [0x1F] MOVE_ENTITY: EventEntity moves to X=124.057*, Z=-110.524*, Y=-5.000*
 12: 0x01AA [0x1F] MOVE_ENTITY: Update entity position (mode=1)
 13: 0x01AC [0x1F] MOVE_ENTITY: EventEntity moves to X=126.326*, Z=-110.507*, Y=-5.000*
 14: 0x01B4 [0x1F] MOVE_ENTITY: Update entity position (mode=1)
 15: 0x01B6 [0x1F] MOVE_ENTITY: EventEntity moves to X=128.209*, Z=-108.151*, Y=-5.000*
 16: 0x01BE [0x1F] MOVE_ENTITY: Update entity position (mode=1)
 17: 0x01C0 [0x1F] MOVE_ENTITY: EventEntity moves to X=125.671*, Z=-105.939*, Y=-5.000*
 18: 0x01C8 [0x1F] MOVE_ENTITY: Update entity position (mode=1)
 19: 0x01CA [0x1F] MOVE_ENTITY: EventEntity moves to X=122.000*, Z=-104.000*, Y=-5.000*
 20: 0x01D2 [0x1F] MOVE_ENTITY: Update entity position (mode=1)
 21: 0x01D4 [0x02] IF !(Work_Zone[77] == 0*) GOTO 0x01E6
 22: 0x01DC [0x27] REQ_SET(priority=0x05, entity_id=Unnamed NPC (ID: 17764420/0x010F1044), tag_num=0x11)
 23: 0x01E3 [0x01] GOTO 0x01EF
 24: 0x01E6 [0x37] UPDATE_EVENT_POSITION_AND_DIR: x=0.000*, z=0.000*, y=0.000*, direction=0.0°*

SUBROUTINE_01EF:
 25: 0x01EF [0x00] END_REQSTACK()
```

### Event 65535.17

#### Metadata

| Field        | Value    |
|--------------|----------|
| Entrypoint   | 0x01F0   |
| Data Size    | 10 bytes |
| Instructions | 2        |

```
      00 01 02 03 04 05 06 07  08 09 0A 0B 0C 0D 0E 0F
      -- -- -- -- -- -- -- --  -- -- -- -- -- -- -- --
01F0: 37 3E 80 3F 80 40 80 41  80 00                    7>.?.@.A..      
```

#### Opcodes

```
  0: 0x01F0 [0x37] UPDATE_EVENT_POSITION_AND_DIR: x=110.642*, z=-123.309*, y=-4.999*, direction=161.9°*
  1: 0x01F9 [0x00] END_REQSTACK()
```

### Event 65535.18

#### Metadata

| Field        | Value    |
|--------------|----------|
| Entrypoint   | 0x01FA   |
| Data Size    | 28 bytes |
| Instructions | 6        |

```
      00 01 02 03 04 05 06 07  08 09 0A 0B 0C 0D 0E 0F
      -- -- -- -- -- -- -- --  -- -- -- -- -- -- -- --
01F0:                                32 2B 80 1F 00 42            2+...B
0200: 80 43 80 40 80 1F 01 37  44 80 45 80 18 80 46 80  .C.@...7D.E...F.
0210: 80 F8 FF FF 7F 00                                 ......          
```

#### Opcodes

```
  0: 0x01FA [0x32] ExtData[1]->MainSpeed = 57* * 0.1
  1: 0x01FD [0x1F] MOVE_ENTITY: EventEntity moves to X=113.557*, Z=-119.760*, Y=-4.999*
  2: 0x0205 [0x1F] MOVE_ENTITY: Update entity position (mode=1)
  3: 0x0207 [0x37] UPDATE_EVENT_POSITION_AND_DIR: x=118.297*, z=-97.992*, y=-5.000*, direction=323.4°*
  4: 0x0210 [0x80] LOAD_WAIT(entity=EventEntity)
  5: 0x0215 [0x00] END_REQSTACK()
```

### Event 65535.19

#### Metadata

| Field        | Value    |
|--------------|----------|
| Entrypoint   | 0x0216   |
| Data Size    | 10 bytes |
| Instructions | 2        |

```
      00 01 02 03 04 05 06 07  08 09 0A 0B 0C 0D 0E 0F
      -- -- -- -- -- -- -- --  -- -- -- -- -- -- -- --
0210:                   37 47  80 48 80 40 80 49 80 00        7G.H.@.I..
```

#### Opcodes

```
  0: 0x0216 [0x37] UPDATE_EVENT_POSITION_AND_DIR: x=125.826*, z=-96.932*, y=-4.999*, direction=270.5°*
  1: 0x021F [0x00] END_REQSTACK()
```

### Event 65535.20

#### Metadata

| Field        | Value     |
|--------------|-----------|
| Entrypoint   | 0x0220    |
| Data Size    | 204 bytes |
| Instructions | 34        |

```
      00 01 02 03 04 05 06 07  08 09 0A 0B 0C 0D 0E 0F
      -- -- -- -- -- -- -- --  -- -- -- -- -- -- -- --
0220: 2A 05 45 10 0F 01 2A 0F  46 10 0F 01 2A 14 47 10  *.E...*.F...*.G.
0230: 0F 01 2A 19 48 10 0F 01  4B 44 10 0F 01 4A 80 1C  ..*.H...KD...J..
0240: 26 80 4B 44 10 0F 01 49  80 29 05 45 10 0F 01 0B  &.KD...I.).E....
0250: 29 05 46 10 0F 01 0A 29  05 47 10 0F 01 0A 29 05  ).F....).G....).
0260: 48 10 0F 01 0A 4B 44 10  0F 01 4A 80 1C 26 80 4B  H....KD...J..&.K
0270: 44 10 0F 01 49 80 29 05  45 10 0F 01 0C 29 05 46  D...I.).E....).F
0280: 10 0F 01 0B 29 05 47 10  0F 01 0B 29 05 48 10 0F  ....).G....).H..
0290: 01 0B 4B 44 10 0F 01 4A  80 1C 26 80 4B 44 10 0F  ..KD...J..&.KD..
02A0: 01 49 80 29 05 45 10 0F  01 0D 29 05 46 10 0F 01  .I.).E....).F...
02B0: 0C 29 05 47 10 0F 01 0C  29 05 48 10 0F 01 0C 27  .).G....).H....'
02C0: 05 48 10 0F 01 0D 27 0A  47 10 0F 01 0D 27 0F 46  .H....'.G....'.F
02D0: 10 0F 01 0D 27 14 45 10  0F 01 0E 1C 1C 80 32 2B  ....'.E.......2+
02E0: 80 1F 00 4B 80 4C 80 40  80 1F 01 00              ...K.L.@....    
```

#### Opcodes

```
  0: 0x0220 [0x2A] GET_REQ_LEVEL(level=5, entity_id=Unnamed NPC (ID: 17764421/0x010F1045))
  1: 0x0226 [0x2A] GET_REQ_LEVEL(level=15, entity_id=Unnamed NPC (ID: 17764422/0x010F1046))
  2: 0x022C [0x2A] GET_REQ_LEVEL(level=20, entity_id=Unnamed NPC (ID: 17764423/0x010F1047))
  3: 0x0232 [0x2A] GET_REQ_LEVEL(level=25, entity_id=Unnamed NPC (ID: 17764424/0x010F1048))
  4: 0x0238 [0x4B] UPDATE_ENTITY_YAW(entity=Unnamed NPC (ID: 17764420/0x010F1044), yaw=6.0°*)
  5: 0x023F [0x1C] WAIT(60* ticks)
  6: 0x0242 [0x4B] UPDATE_ENTITY_YAW(entity=Unnamed NPC (ID: 17764420/0x010F1044), yaw=16.9°*)
  7: 0x0249 [0x29] REQ_SET_WAIT(priority=0x05, entity_id=Unnamed NPC (ID: 17764421/0x010F1045), tag_num=0x0B)
  8: 0x0250 [0x29] REQ_SET_WAIT(priority=0x05, entity_id=Unnamed NPC (ID: 17764422/0x010F1046), tag_num=0x0A)
  9: 0x0257 [0x29] REQ_SET_WAIT(priority=0x05, entity_id=Unnamed NPC (ID: 17764423/0x010F1047), tag_num=0x0A)
 10: 0x025E [0x29] REQ_SET_WAIT(priority=0x05, entity_id=Unnamed NPC (ID: 17764424/0x010F1048), tag_num=0x0A)
 11: 0x0265 [0x4B] UPDATE_ENTITY_YAW(entity=Unnamed NPC (ID: 17764420/0x010F1044), yaw=6.0°*)
 12: 0x026C [0x1C] WAIT(60* ticks)
 13: 0x026F [0x4B] UPDATE_ENTITY_YAW(entity=Unnamed NPC (ID: 17764420/0x010F1044), yaw=16.9°*)
 14: 0x0276 [0x29] REQ_SET_WAIT(priority=0x05, entity_id=Unnamed NPC (ID: 17764421/0x010F1045), tag_num=0x0C)
 15: 0x027D [0x29] REQ_SET_WAIT(priority=0x05, entity_id=Unnamed NPC (ID: 17764422/0x010F1046), tag_num=0x0B)
 16: 0x0284 [0x29] REQ_SET_WAIT(priority=0x05, entity_id=Unnamed NPC (ID: 17764423/0x010F1047), tag_num=0x0B)
 17: 0x028B [0x29] REQ_SET_WAIT(priority=0x05, entity_id=Unnamed NPC (ID: 17764424/0x010F1048), tag_num=0x0B)
 18: 0x0292 [0x4B] UPDATE_ENTITY_YAW(entity=Unnamed NPC (ID: 17764420/0x010F1044), yaw=6.0°*)
 19: 0x0299 [0x1C] WAIT(60* ticks)
 20: 0x029C [0x4B] UPDATE_ENTITY_YAW(entity=Unnamed NPC (ID: 17764420/0x010F1044), yaw=16.9°*)
 21: 0x02A3 [0x29] REQ_SET_WAIT(priority=0x05, entity_id=Unnamed NPC (ID: 17764421/0x010F1045), tag_num=0x0D)
 22: 0x02AA [0x29] REQ_SET_WAIT(priority=0x05, entity_id=Unnamed NPC (ID: 17764422/0x010F1046), tag_num=0x0C)
 23: 0x02B1 [0x29] REQ_SET_WAIT(priority=0x05, entity_id=Unnamed NPC (ID: 17764423/0x010F1047), tag_num=0x0C)
 24: 0x02B8 [0x29] REQ_SET_WAIT(priority=0x05, entity_id=Unnamed NPC (ID: 17764424/0x010F1048), tag_num=0x0C)
 25: 0x02BF [0x27] REQ_SET(priority=0x05, entity_id=Unnamed NPC (ID: 17764424/0x010F1048), tag_num=0x0D)
 26: 0x02C6 [0x27] REQ_SET(priority=0x0A, entity_id=Unnamed NPC (ID: 17764423/0x010F1047), tag_num=0x0D)
 27: 0x02CD [0x27] REQ_SET(priority=0x0F, entity_id=Unnamed NPC (ID: 17764422/0x010F1046), tag_num=0x0D)
 28: 0x02D4 [0x27] REQ_SET(priority=0x14, entity_id=Unnamed NPC (ID: 17764421/0x010F1045), tag_num=0x0E)
 29: 0x02DB [0x1C] WAIT(30* ticks)
 30: 0x02DE [0x32] ExtData[1]->MainSpeed = 57* * 0.1
 31: 0x02E1 [0x1F] MOVE_ENTITY: EventEntity moves to X=130.996*, Z=-103.714*, Y=-4.999*
 32: 0x02E9 [0x1F] MOVE_ENTITY: Update entity position (mode=1)
 33: 0x02EB [0x00] END_REQSTACK()
```

### Event 65535.21

#### Metadata

| Field        | Value    |
|--------------|----------|
| Entrypoint   | 0x02EC   |
| Data Size    | 10 bytes |
| Instructions | 2        |

```
      00 01 02 03 04 05 06 07  08 09 0A 0B 0C 0D 0E 0F
      -- -- -- -- -- -- -- --  -- -- -- -- -- -- -- --
02E0:                                      37 4D 80 4E              7M.N
02F0: 80 4F 80 50 80 00                                 .O.P..          
```

#### Opcodes

```
  0: 0x02EC [0x37] UPDATE_EVENT_POSITION_AND_DIR: x=59.592*, z=-113.021*, y=-2.500*, direction=1.5°*
  1: 0x02F5 [0x00] END_REQSTACK()
```

### Event 65535.22

#### Metadata

| Field        | Value     |
|--------------|-----------|
| Entrypoint   | 0x02F6    |
| Data Size    | 102 bytes |
| Instructions | 16        |

```
      00 01 02 03 04 05 06 07  08 09 0A 0B 0C 0D 0E 0F
      -- -- -- -- -- -- -- --  -- -- -- -- -- -- -- --
02F0:                   32 2B  80 1F 00 51 80 52 80 4F        2+...Q.R.O
0300: 80 1F 01 37 53 80 54 80  55 80 56 80 80 F8 FF FF  ...7S.T.U.V.....
0310: 7F 1C 1B 80 52 57 80 F0  FF FF 7F F0 FF FF 7F 73  ....RW.........s
0320: 31 37 34 45 57 80 F0 FF  FF 7F F0 FF FF 7F 73 31  174EW.........s1
0330: 37 35 0A 80 1C 1C 80 4A  55 10 0F 01 44 10 0F 01  75.....JU...D...
0340: 32 2B 80 1F 00 58 80 59  80 55 80 1F 01 1E 58 10  2+...X.Y.U....X.
0350: 0F 01 4A 55 10 0F 01 44  10 0F 01 00              ..JU...D....    
```

#### Opcodes

```
  0: 0x02F6 [0x32] ExtData[1]->MainSpeed = 57* * 0.1
  1: 0x02F9 [0x1F] MOVE_ENTITY: EventEntity moves to X=58.119*, Z=-116.340*, Y=-2.500*
  2: 0x0301 [0x1F] MOVE_ENTITY: Update entity position (mode=1)
  3: 0x0303 [0x37] UPDATE_EVENT_POSITION_AND_DIR: x=-5.185*, z=-77.283*, y=2.999*, direction=119.9°*
  4: 0x030C [0x80] LOAD_WAIT(entity=EventEntity)
  5: 0x0311 [0x1C] WAIT(120* ticks)
  6: 0x0314 [0x52] END_LOAD_SCHEDULER: End scheduler "s174" with entities [LocalPlayer, LocalPlayer], work=254*
  7: 0x0323 [0x45] LOAD_SCHEDULED_TASK: Load scheduler "s175" with entities [LocalPlayer, LocalPlayer], work=[254*, 0*]
  8: 0x0334 [0x1C] WAIT(30* ticks)
  9: 0x0337 [0x4A] Dietmund (ID: 17764437/0x010F1055) looks at Unnamed NPC (ID: 17764420/0x010F1044)
 10: 0x0340 [0x32] ExtData[1]->MainSpeed = 57* * 0.1
 11: 0x0343 [0x1F] MOVE_ENTITY: EventEntity moves to X=-7.863*, Z=-83.161*, Y=2.999*
 12: 0x034B [0x1F] MOVE_ENTITY: Update entity position (mode=1)
 13: 0x034D [0x1E] EventEntity looks at Zopago (ID: 17764440/0x010F1058) and starts talking
 14: 0x0352 [0x4A] Dietmund (ID: 17764437/0x010F1055) looks at Unnamed NPC (ID: 17764420/0x010F1044)
 15: 0x035B [0x00] END_REQSTACK()
```

### Event 65535.23

#### Metadata

| Field        | Value    |
|--------------|----------|
| Entrypoint   | 0x035C   |
| Data Size    | 14 bytes |
| Instructions | 4        |

```
      00 01 02 03 04 05 06 07  08 09 0A 0B 0C 0D 0E 0F
      -- -- -- -- -- -- -- --  -- -- -- -- -- -- -- --
0350:                                      32 2B 80 1F              2+..
0360: 00 53 80 54 80 55 80 1F  01 00                    .S.T.U....      
```

#### Opcodes

```
  0: 0x035C [0x32] ExtData[1]->MainSpeed = 57* * 0.1
  1: 0x035F [0x1F] MOVE_ENTITY: EventEntity moves to X=-5.185*, Z=-77.283*, Y=2.999*
  2: 0x0367 [0x1F] MOVE_ENTITY: Update entity position (mode=1)
  3: 0x0369 [0x00] END_REQSTACK()
```

### Event 65535.24

#### Metadata

| Field        | Value    |
|--------------|----------|
| Entrypoint   | 0x036A   |
| Data Size    | 10 bytes |
| Instructions | 2        |

```
      00 01 02 03 04 05 06 07  08 09 0A 0B 0C 0D 0E 0F
      -- -- -- -- -- -- -- --  -- -- -- -- -- -- -- --
0360:                                37 5A 80 5B 80 5C            7Z.[.\
0370: 80 5D 80 00                                       .]..            
```

#### Opcodes

```
  0: 0x036A [0x37] UPDATE_EVENT_POSITION_AND_DIR: x=139.746*, z=-129.686*, y=-5.250*, direction=175.2°*
  1: 0x0373 [0x00] END_REQSTACK()
```

### Event 65535.25

#### Metadata

| Field        | Value    |
|--------------|----------|
| Entrypoint   | 0x0374   |
| Data Size    | 10 bytes |
| Instructions | 2        |

```
      00 01 02 03 04 05 06 07  08 09 0A 0B 0C 0D 0E 0F
      -- -- -- -- -- -- -- --  -- -- -- -- -- -- -- --
0370:             37 5E 80 5F  80 60 80 61 80 00            7^._.`.a..  
```

#### Opcodes

```
  0: 0x0374 [0x37] UPDATE_EVENT_POSITION_AND_DIR: x=-71.550*, z=-507.765*, y=-5.046*, direction=329.1°*
  1: 0x037D [0x00] END_REQSTACK()
```

### Event 65535.26

#### Metadata

| Field        | Value    |
|--------------|----------|
| Entrypoint   | 0x037E   |
| Data Size    | 45 bytes |
| Instructions | 11       |

```
      00 01 02 03 04 05 06 07  08 09 0A 0B 0C 0D 0E 0F
      -- -- -- -- -- -- -- --  -- -- -- -- -- -- -- --
0370:                                            32 15                2.
0380: 80 1F 00 62 80 63 80 64  80 1F 01 4B 44 10 0F 01  ...b.c.d...KD...
0390: 65 80 1C 26 80 1E F0 FF  FF 7F 1C 26 80 32 22 80  e..&.......&.2".
03A0: 1F 00 66 80 67 80 68 80  1F 01 00                 ..f.g.h....     
```

#### Opcodes

```
  0: 0x037E [0x32] ExtData[1]->MainSpeed = 10* * 0.1
  1: 0x0381 [0x1F] MOVE_ENTITY: EventEntity moves to X=-67.008*, Z=-507.475*, Y=-5.313*
  2: 0x0389 [0x1F] MOVE_ENTITY: Update entity position (mode=1)
  3: 0x038B [0x4B] UPDATE_ENTITY_YAW(entity=Unnamed NPC (ID: 17764420/0x010F1044), yaw=16.9°*)
  4: 0x0392 [0x1C] WAIT(60* ticks)
  5: 0x0395 [0x1E] EventEntity looks at LocalPlayer and starts talking
  6: 0x039A [0x1C] WAIT(60* ticks)
  7: 0x039D [0x32] ExtData[1]->MainSpeed = 19* * 0.1
  8: 0x03A0 [0x1F] MOVE_ENTITY: EventEntity moves to X=-58.540*, Z=-506.365*, Y=-5.322*
  9: 0x03A8 [0x1F] MOVE_ENTITY: Update entity position (mode=1)
 10: 0x03AA [0x00] END_REQSTACK()
```

### Event 65535.27

#### Metadata

| Field        | Value    |
|--------------|----------|
| Entrypoint   | 0x03AB   |
| Data Size    | 10 bytes |
| Instructions | 2        |

```
      00 01 02 03 04 05 06 07  08 09 0A 0B 0C 0D 0E 0F
      -- -- -- -- -- -- -- --  -- -- -- -- -- -- -- --
03A0:                                   37 69 80 6A 80             7i.j.
03B0: 6B 80 6C 80 00                                    k.l..           
```

#### Opcodes

```
  0: 0x03AB [0x37] UPDATE_EVENT_POSITION_AND_DIR: x=-64.738*, z=-694.172*, y=6.847*, direction=73.2°*
  1: 0x03B4 [0x00] END_REQSTACK()
```

### Event 65535.28

#### Metadata

| Field        | Value    |
|--------------|----------|
| Entrypoint   | 0x03B5   |
| Data Size    | 57 bytes |
| Instructions | 9        |

```
      00 01 02 03 04 05 06 07  08 09 0A 0B 0C 0D 0E 0F
      -- -- -- -- -- -- -- --  -- -- -- -- -- -- -- --
03B0:                32 22 80  1F 00 6D 80 6E 80 6F 80       2"...m.n.o.
03C0: 1F 01 4B 44 10 0F 01 70  80 1C 26 80 5B 25 80 44  ..KD...p..&.[%.D
03D0: 10 0F 01 44 10 0F 01 6B  75 65 30 1C 26 80 5B 27  ...D...kue0.&.['
03E0: 80 44 10 0F 01 44 10 0F  01 31 30 30 39 00        .D...D...1009.  
```

#### Opcodes

```
  0: 0x03B5 [0x32] ExtData[1]->MainSpeed = 19* * 0.1
  1: 0x03B8 [0x1F] MOVE_ENTITY: EventEntity moves to X=-63.510*, Z=-699.499*, Y=8.792*
  2: 0x03C0 [0x1F] MOVE_ENTITY: Update entity position (mode=1)
  3: 0x03C2 [0x4B] UPDATE_ENTITY_YAW(entity=Unnamed NPC (ID: 17764420/0x010F1044), yaw=1.6°*)
  4: 0x03C9 [0x1C] WAIT(60* ticks)
  5: 0x03CC [0x5B] LOAD_EXT_SCHEDULER: Load scheduler "kue0" with entities [Unnamed NPC (ID: 17764420/0x010F1044), Unnamed NPC (ID: 17764420/0x010F1044)], work=875*
  6: 0x03DB [0x1C] WAIT(60* ticks)
  7: 0x03DE [0x5B] LOAD_EXT_SCHEDULER: Load scheduler "1009" with entities [Unnamed NPC (ID: 17764420/0x010F1044), Unnamed NPC (ID: 17764420/0x010F1044)], work=224*
  8: 0x03ED [0x00] END_REQSTACK()
```

### Event 65535.29

#### Metadata

| Field        | Value    |
|--------------|----------|
| Entrypoint   | 0x03EE   |
| Data Size    | 12 bytes |
| Instructions | 3        |

```
      00 01 02 03 04 05 06 07  08 09 0A 0B 0C 0D 0E 0F
      -- -- -- -- -- -- -- --  -- -- -- -- -- -- -- --
03E0:                                            33 01                3.
03F0: 37 71 80 72 80 73 80 74  80 00                    7q.r.s.t..      
```

#### Opcodes

```
  0: 0x03EE [0x33] EventEntity->Render.Flags0 |= 0x200000 // Bit 21 (flag=0x01)
  1: 0x03F0 [0x37] UPDATE_EVENT_POSITION_AND_DIR: x=-35.999*, z=-583.998*, y=32.724*, direction=97.5°*
  2: 0x03F9 [0x00] END_REQSTACK()
```

### Event 65535.30

#### Metadata

| Field        | Value    |
|--------------|----------|
| Entrypoint   | 0x03FA   |
| Data Size    | 68 bytes |
| Instructions | 12       |

```
      00 01 02 03 04 05 06 07  08 09 0A 0B 0C 0D 0E 0F
      -- -- -- -- -- -- -- --  -- -- -- -- -- -- -- --
03F0:                                32 22 80 5A 00 75            2".Z.u
0400: 80 76 80 77 80 5A 01 5A  00 78 80 79 80 7A 80 5A  .v.w.Z.Z.x.y.z.Z
0410: 01 1C 1C 80 1E F0 FF FF  7F 1C 1C 80 5B 25 80 44  ............[%.D
0420: 10 0F 01 44 10 0F 01 6B  75 65 30 1C 26 80 5B 27  ...D...kue0.&.['
0430: 80 44 10 0F 01 44 10 0F  01 31 30 30 39 00        .D...D...1009.  
```

#### Opcodes

```
  0: 0x03FA [0x32] ExtData[1]->MainSpeed = 19* * 0.1
  1: 0x03FD [0x5A] UPDATE_EVENT_POSITION: Set EventEntity MovePosition to X=-33.518*, Z=-584.644*, Y=31.775*
  2: 0x0405 [0x5A] UPDATE_EVENT_POSITION: Move EventEntity incrementally towards MovePosition
  3: 0x0407 [0x5A] UPDATE_EVENT_POSITION: Set EventEntity MovePosition to X=-32.172*, Z=-587.202*, Y=30.496*
  4: 0x040F [0x5A] UPDATE_EVENT_POSITION: Move EventEntity incrementally towards MovePosition
  5: 0x0411 [0x1C] WAIT(30* ticks)
  6: 0x0414 [0x1E] EventEntity looks at LocalPlayer and starts talking
  7: 0x0419 [0x1C] WAIT(30* ticks)
  8: 0x041C [0x5B] LOAD_EXT_SCHEDULER: Load scheduler "kue0" with entities [Unnamed NPC (ID: 17764420/0x010F1044), Unnamed NPC (ID: 17764420/0x010F1044)], work=875*
  9: 0x042B [0x1C] WAIT(60* ticks)
 10: 0x042E [0x5B] LOAD_EXT_SCHEDULER: Load scheduler "1009" with entities [Unnamed NPC (ID: 17764420/0x010F1044), Unnamed NPC (ID: 17764420/0x010F1044)], work=224*
 11: 0x043D [0x00] END_REQSTACK()
```

### Event 65535.31

#### Metadata

| Field        | Value    |
|--------------|----------|
| Entrypoint   | 0x043E   |
| Data Size    | 10 bytes |
| Instructions | 2        |

```
      00 01 02 03 04 05 06 07  08 09 0A 0B 0C 0D 0E 0F
      -- -- -- -- -- -- -- --  -- -- -- -- -- -- -- --
0430:                                            37 7B                7{
0440: 80 7C 80 55 80 7D 80 00                           .|.U.}..        
```

#### Opcodes

```
  0: 0x043E [0x37] UPDATE_EVENT_POSITION_AND_DIR: x=-24.555*, z=-84.826*, y=2.999*, direction=359.3°*
  1: 0x0447 [0x00] END_REQSTACK()
```

### Event 65535.32

#### Metadata

| Field        | Value     |
|--------------|-----------|
| Entrypoint   | 0x0448    |
| Data Size    | 218 bytes |
| Instructions | 29        |

```
      00 01 02 03 04 05 06 07  08 09 0A 0B 0C 0D 0E 0F
      -- -- -- -- -- -- -- --  -- -- -- -- -- -- -- --
0440:                          32 2B 80 1F 00 7E 80 7F          2+...~..
0450: 80 55 80 1F 01 27 05 F0  FF FF 7F 5B 27 05 52 10  .U...'.....['.R.
0460: 0F 01 08 27 05 53 10 0F  01 08 27 05 54 10 0F 01  ...'.S....'.T...
0470: 08 02 4C 10 80 80 00 7C  04 1C 81 80 52 82 80 F8  ..L....|....R...
0480: FF FF 7F F8 FF FF 7F 73  31 31 35 45 82 80 F8 FF  .......s115E....
0490: FF 7F F8 FF FF 7F 73 31  31 36 0A 80 1F 00 83 80  ......s116......
04A0: 84 80 55 80 1F 01 1F 00  85 80 86 80 55 80 1F 01  ..U.........U...
04B0: 27 05 43 10 0F 01 23 1F  00 87 80 88 80 55 80 1F  '.C...#......U..
04C0: 01 4A 52 10 0F 01 45 10  0F 01 4A 53 10 0F 01 45  .JR...E...JS...E
04D0: 10 0F 01 4A 54 10 0F 01  45 10 0F 01 4A F0 FF FF  ...JT...E...J...
04E0: 7F 44 10 0F 01 52 82 80  F8 FF FF 7F F8 FF FF 7F  .D...R..........
04F0: 73 31 31 36 45 82 80 F8  FF FF 7F F8 FF FF 7F 73  s116E..........s
0500: 31 31 37 0A 80 4A B4 10  0F 01 44 10 0F 01 4A B3  117..J....D...J.
0510: 10 0F 01 44 10 0F 01 1F  00 89 80 8A 80 55 80 1F  ...D.........U..
0520: 01 00                                             ..              
```

#### Opcodes

```
  0: 0x0448 [0x32] ExtData[1]->MainSpeed = 57* * 0.1
  1: 0x044B [0x1F] MOVE_ENTITY: EventEntity moves to X=-14.392*, Z=-84.777*, Y=2.999*
  2: 0x0453 [0x1F] MOVE_ENTITY: Update entity position (mode=1)
  3: 0x0455 [0x27] REQ_SET(priority=0x05, entity_id=LocalPlayer, tag_num=0x5B)
  4: 0x045C [0x27] REQ_SET(priority=0x05, entity_id=Bashraf (ID: 17764434/0x010F1052), tag_num=0x08)
  5: 0x0463 [0x27] REQ_SET(priority=0x05, entity_id=Foudeel (ID: 17764435/0x010F1053), tag_num=0x08)
  6: 0x046A [0x27] REQ_SET(priority=0x05, entity_id=Wahboud (ID: 17764436/0x010F1054), tag_num=0x08)
  7: 0x0471 [0x02] IF !(Work_Zone[76] == 2*) GOTO 0x047C
  8: 0x0479 [0x1C] WAIT(5* ticks)
  9: 0x047C [0x52] END_LOAD_SCHEDULER: End scheduler "s115" with entities [EventEntity, EventEntity], work=199*
 10: 0x048B [0x45] LOAD_SCHEDULED_TASK: Load scheduler "s116" with entities [EventEntity, EventEntity], work=[199*, 0*]
 11: 0x049C [0x1F] MOVE_ENTITY: EventEntity moves to X=-4.528*, Z=-76.359*, Y=2.999*
 12: 0x04A4 [0x1F] MOVE_ENTITY: Update entity position (mode=1)
 13: 0x04A6 [0x1F] MOVE_ENTITY: EventEntity moves to X=-0.293*, Z=-65.153*, Y=2.999*
 14: 0x04AE [0x1F] MOVE_ENTITY: Update entity position (mode=1)
 15: 0x04B0 [0x27] REQ_SET(priority=0x05, entity_id=Pulonono (ID: 17764419/0x010F1043), tag_num=0x23)
 16: 0x04B7 [0x1F] MOVE_ENTITY: EventEntity moves to X=-6.973*, Z=-49.251*, Y=2.999*
 17: 0x04BF [0x1F] MOVE_ENTITY: Update entity position (mode=1)
 18: 0x04C1 [0x4A] Bashraf (ID: 17764434/0x010F1052) looks at Unnamed NPC (ID: 17764421/0x010F1045)
 19: 0x04CA [0x4A] Foudeel (ID: 17764435/0x010F1053) looks at Unnamed NPC (ID: 17764421/0x010F1045)
 20: 0x04D3 [0x4A] Wahboud (ID: 17764436/0x010F1054) looks at Unnamed NPC (ID: 17764421/0x010F1045)
 21: 0x04DC [0x4A] LocalPlayer looks at Unnamed NPC (ID: 17764420/0x010F1044)
 22: 0x04E5 [0x52] END_LOAD_SCHEDULER: End scheduler "s116" with entities [EventEntity, EventEntity], work=199*
 23: 0x04F4 [0x45] LOAD_SCHEDULED_TASK: Load scheduler "s117" with entities [EventEntity, EventEntity], work=[199*, 0*]
 24: 0x0505 [0x4A] Gottah Maporushanoh (ID: 17764532/0x010F10B4) looks at Unnamed NPC (ID: 17764420/0x010F1044)
 25: 0x050E [0x4A] Soni-Muni (ID: 17764531/0x010F10B3) looks at Unnamed NPC (ID: 17764420/0x010F1044)
 26: 0x0517 [0x1F] MOVE_ENTITY: EventEntity moves to X=-17.006*, Z=-48.373*, Y=2.999*
 27: 0x051F [0x1F] MOVE_ENTITY: Update entity position (mode=1)
 28: 0x0521 [0x00] END_REQSTACK()
```

### Event 65535.33

#### Metadata

| Field        | Value    |
|--------------|----------|
| Entrypoint   | 0x0522   |
| Data Size    | 19 bytes |
| Instructions | 4        |

```
      00 01 02 03 04 05 06 07  08 09 0A 0B 0C 0D 0E 0F
      -- -- -- -- -- -- -- --  -- -- -- -- -- -- -- --
0520:       B6 00 8B 80 37 8C  80 8D 80 8E 80 8F 80 80    ....7.........
0530: F8 FF FF 7F 00                                    .....           
```

#### Opcodes

```
  0: 0x0522 [0xB6] ENTITY_APPEARANCE_HANDLER(case=Hair style, value=332*)
  1: 0x0526 [0x37] UPDATE_EVENT_POSITION_AND_DIR: x=6.110*, z=122.311*, y=-0.048*, direction=146.5°*
  2: 0x052F [0x80] LOAD_WAIT(entity=EventEntity)
  3: 0x0534 [0x00] END_REQSTACK()
```

### Event 65535.34

#### Metadata

| Field        | Value    |
|--------------|----------|
| Entrypoint   | 0x0535   |
| Data Size    | 15 bytes |
| Instructions | 3        |

```
      00 01 02 03 04 05 06 07  08 09 0A 0B 0C 0D 0E 0F
      -- -- -- -- -- -- -- --  -- -- -- -- -- -- -- --
0530:                37 90 80  91 80 92 80 93 80 80 F8       7..........
0540: FF FF 7F 00                                       ....            
```

#### Opcodes

```
  0: 0x0535 [0x37] UPDATE_EVENT_POSITION_AND_DIR: x=-57.670*, z=-502.974*, y=-5.350*, direction=185.8°*
  1: 0x053E [0x80] LOAD_WAIT(entity=EventEntity)
  2: 0x0543 [0x00] END_REQSTACK()
```

### Event 65535.35

#### Metadata

| Field        | Value    |
|--------------|----------|
| Entrypoint   | 0x0544   |
| Data Size    | 22 bytes |
| Instructions | 6        |

```
      00 01 02 03 04 05 06 07  08 09 0A 0B 0C 0D 0E 0F
      -- -- -- -- -- -- -- --  -- -- -- -- -- -- -- --
0540:             32 15 80 1F  00 94 80 95 80 96 80 1F      2...........
0550: 01 1E F0 FF FF 7F 1C 1C  80 00                    ..........      
```

#### Opcodes

```
  0: 0x0544 [0x32] ExtData[1]->MainSpeed = 10* * 0.1
  1: 0x0547 [0x1F] MOVE_ENTITY: EventEntity moves to X=-58.815*, Z=-506.283*, Y=-5.358*
  2: 0x054F [0x1F] MOVE_ENTITY: Update entity position (mode=1)
  3: 0x0551 [0x1E] EventEntity looks at LocalPlayer and starts talking
  4: 0x0556 [0x1C] WAIT(30* ticks)
  5: 0x0559 [0x00] END_REQSTACK()
```

### Event 65535.36

#### Metadata

| Field        | Value    |
|--------------|----------|
| Entrypoint   | 0x055A   |
| Data Size    | 19 bytes |
| Instructions | 5        |

```
      00 01 02 03 04 05 06 07  08 09 0A 0B 0C 0D 0E 0F
      -- -- -- -- -- -- -- --  -- -- -- -- -- -- -- --
0550:                                32 15 80 1F 00 97            2.....
0560: 80 98 80 99 80 1F 01 1E  45 10 0F 01 00           ........E....   
```

#### Opcodes

```
  0: 0x055A [0x32] ExtData[1]->MainSpeed = 10* * 0.1
  1: 0x055D [0x1F] MOVE_ENTITY: EventEntity moves to X=-59.456*, Z=-510.083*, Y=-5.438*
  2: 0x0565 [0x1F] MOVE_ENTITY: Update entity position (mode=1)
  3: 0x0567 [0x1E] EventEntity looks at Unnamed NPC (ID: 17764421/0x010F1045) and starts talking
  4: 0x056C [0x00] END_REQSTACK()
```

### Event 65535.37

#### Metadata

| Field        | Value    |
|--------------|----------|
| Entrypoint   | 0x056D   |
| Data Size    | 14 bytes |
| Instructions | 4        |

```
      00 01 02 03 04 05 06 07  08 09 0A 0B 0C 0D 0E 0F
      -- -- -- -- -- -- -- --  -- -- -- -- -- -- -- --
0560:                                         32 15 80               2..
0570: 1F 00 9A 80 9B 80 9C 80  1F 01 00                 ...........     
```

#### Opcodes

```
  0: 0x056D [0x32] ExtData[1]->MainSpeed = 10* * 0.1
  1: 0x0570 [0x1F] MOVE_ENTITY: EventEntity moves to X=-62.815*, Z=-508.253*, Y=-5.499*
  2: 0x0578 [0x1F] MOVE_ENTITY: Update entity position (mode=1)
  3: 0x057A [0x00] END_REQSTACK()
```

### Event 65535.38

#### Metadata

| Field        | Value    |
|--------------|----------|
| Entrypoint   | 0x057B   |
| Data Size    | 14 bytes |
| Instructions | 4        |

```
      00 01 02 03 04 05 06 07  08 09 0A 0B 0C 0D 0E 0F
      -- -- -- -- -- -- -- --  -- -- -- -- -- -- -- --
0570:                                   32 15 80 5A 00             2..Z.
0580: 9D 80 9E 80 9F 80 5A 01  00                       ......Z..       
```

#### Opcodes

```
  0: 0x057B [0x32] ExtData[1]->MainSpeed = 10* * 0.1
  1: 0x057E [0x5A] UPDATE_EVENT_POSITION: Set EventEntity MovePosition to X=-58.368*, Z=-504.352*, Y=-5.302*
  2: 0x0586 [0x5A] UPDATE_EVENT_POSITION: Move EventEntity incrementally towards MovePosition
  3: 0x0588 [0x00] END_REQSTACK()
```

### Event 65535.39

#### Metadata

| Field        | Value    |
|--------------|----------|
| Entrypoint   | 0x0589   |
| Data Size    | 22 bytes |
| Instructions | 6        |

```
      00 01 02 03 04 05 06 07  08 09 0A 0B 0C 0D 0E 0F
      -- -- -- -- -- -- -- --  -- -- -- -- -- -- -- --
0580:                             32 2B 80 1F 00 A0 80           2+.....
0590: A1 80 A2 80 1F 01 1E F0  FF FF 7F 1C 1C 80 00     ............... 
```

#### Opcodes

```
  0: 0x0589 [0x32] ExtData[1]->MainSpeed = 57* * 0.1
  1: 0x058C [0x1F] MOVE_ENTITY: EventEntity moves to X=-79.121*, Z=-699.106*, Y=8.567*
  2: 0x0594 [0x1F] MOVE_ENTITY: Update entity position (mode=1)
  3: 0x0596 [0x1E] EventEntity looks at LocalPlayer and starts talking
  4: 0x059B [0x1C] WAIT(30* ticks)
  5: 0x059E [0x00] END_REQSTACK()
```

### Event 65535.40

#### Metadata

| Field        | Value    |
|--------------|----------|
| Entrypoint   | 0x059F   |
| Data Size    | 22 bytes |
| Instructions | 6        |

```
      00 01 02 03 04 05 06 07  08 09 0A 0B 0C 0D 0E 0F
      -- -- -- -- -- -- -- --  -- -- -- -- -- -- -- --
0590:                                               32                 2
05A0: 2B 80 1F 00 A3 80 A4 80  A5 80 1F 01 1E 45 10 0F  +............E..
05B0: 01 1C 1C 80 00                                    .....           
```

#### Opcodes

```
  0: 0x059F [0x32] ExtData[1]->MainSpeed = 57* * 0.1
  1: 0x05A2 [0x1F] MOVE_ENTITY: EventEntity moves to X=-85.315*, Z=-698.573*, Y=8.530*
  2: 0x05AA [0x1F] MOVE_ENTITY: Update entity position (mode=1)
  3: 0x05AC [0x1E] EventEntity looks at Unnamed NPC (ID: 17764421/0x010F1045) and starts talking
  4: 0x05B1 [0x1C] WAIT(30* ticks)
  5: 0x05B4 [0x00] END_REQSTACK()
```

### Event 65535.41

#### Metadata

| Field        | Value    |
|--------------|----------|
| Entrypoint   | 0x05B5   |
| Data Size    | 14 bytes |
| Instructions | 4        |

```
      00 01 02 03 04 05 06 07  08 09 0A 0B 0C 0D 0E 0F
      -- -- -- -- -- -- -- --  -- -- -- -- -- -- -- --
05B0:                32 22 80  1F 00 A6 80 A7 80 A8 80       2".........
05C0: 1F 01 00                                          ...             
```

#### Opcodes

```
  0: 0x05B5 [0x32] ExtData[1]->MainSpeed = 19* * 0.1
  1: 0x05B8 [0x1F] MOVE_ENTITY: EventEntity moves to X=-80.309*, Z=-699.518*, Y=8.645*
  2: 0x05C0 [0x1F] MOVE_ENTITY: Update entity position (mode=1)
  3: 0x05C2 [0x00] END_REQSTACK()
```

### Event 65535.42

#### Metadata

| Field        | Value    |
|--------------|----------|
| Entrypoint   | 0x05C3   |
| Data Size    | 14 bytes |
| Instructions | 4        |

```
      00 01 02 03 04 05 06 07  08 09 0A 0B 0C 0D 0E 0F
      -- -- -- -- -- -- -- --  -- -- -- -- -- -- -- --
05C0:          32 22 80 1F 00  A9 80 AA 80 AB 80 1F 01     2"...........
05D0: 00                                                .               
```

#### Opcodes

```
  0: 0x05C3 [0x32] ExtData[1]->MainSpeed = 19* * 0.1
  1: 0x05C6 [0x1F] MOVE_ENTITY: EventEntity moves to X=-86.315*, Z=-696.753*, Y=8.229*
  2: 0x05CE [0x1F] MOVE_ENTITY: Update entity position (mode=1)
  3: 0x05D0 [0x00] END_REQSTACK()
```

### Event 65535.43

#### Metadata

| Field        | Value    |
|--------------|----------|
| Entrypoint   | 0x05D1   |
| Data Size    | 10 bytes |
| Instructions | 2        |

```
      00 01 02 03 04 05 06 07  08 09 0A 0B 0C 0D 0E 0F
      -- -- -- -- -- -- -- --  -- -- -- -- -- -- -- --
05D0:    37 AC 80 AD 80 AE 80  AF 80 00                  7.........     
```

#### Opcodes

```
  0: 0x05D1 [0x37] UPDATE_EVENT_POSITION_AND_DIR: x=128.531*, z=-130.319*, y=-6.024*, direction=288.4°*
  1: 0x05DA [0x00] END_REQSTACK()
```

### Event 65535.44

#### Metadata

| Field        | Value    |
|--------------|----------|
| Entrypoint   | 0x05DB   |
| Data Size    | 14 bytes |
| Instructions | 4        |

```
      00 01 02 03 04 05 06 07  08 09 0A 0B 0C 0D 0E 0F
      -- -- -- -- -- -- -- --  -- -- -- -- -- -- -- --
05D0:                                   32 15 80 5A 00             2..Z.
05E0: B0 80 B1 80 5C 80 5A 01  00                       ....\.Z..       
```

#### Opcodes

```
  0: 0x05DB [0x32] ExtData[1]->MainSpeed = 10* * 0.1
  1: 0x05DE [0x5A] UPDATE_EVENT_POSITION: Set EventEntity MovePosition to X=129.893*, Z=-122.678*, Y=-5.250*
  2: 0x05E6 [0x5A] UPDATE_EVENT_POSITION: Move EventEntity incrementally towards MovePosition
  3: 0x05E8 [0x00] END_REQSTACK()
```

### Event 65535.45

#### Metadata

| Field        | Value    |
|--------------|----------|
| Entrypoint   | 0x05E9   |
| Data Size    | 14 bytes |
| Instructions | 4        |

```
      00 01 02 03 04 05 06 07  08 09 0A 0B 0C 0D 0E 0F
      -- -- -- -- -- -- -- --  -- -- -- -- -- -- -- --
05E0:                             32 22 80 5A 00 B0 80           2".Z...
05F0: B1 80 5C 80 5A 01 00                              ..\.Z..         
```

#### Opcodes

```
  0: 0x05E9 [0x32] ExtData[1]->MainSpeed = 19* * 0.1
  1: 0x05EC [0x5A] UPDATE_EVENT_POSITION: Set EventEntity MovePosition to X=129.893*, Z=-122.678*, Y=-5.250*
  2: 0x05F4 [0x5A] UPDATE_EVENT_POSITION: Move EventEntity incrementally towards MovePosition
  3: 0x05F6 [0x00] END_REQSTACK()
```

### Event 776

#### Metadata

| Field        | Value   |
|--------------|---------|
| Entrypoint   | 0x05F7  |
| Data Size    | 1 bytes |
| Instructions | 1       |

```
      00 01 02 03 04 05 06 07  08 09 0A 0B 0C 0D 0E 0F
      -- -- -- -- -- -- -- --  -- -- -- -- -- -- -- --
05F0:                      00                                  .        
```

#### Opcodes

```
  0: 0x05F7 [0x00] END_REQSTACK()
```

### Event 65535.46

#### Metadata

| Field        | Value    |
|--------------|----------|
| Entrypoint   | 0x05F8   |
| Data Size    | 15 bytes |
| Instructions | 3        |

```
      00 01 02 03 04 05 06 07  08 09 0A 0B 0C 0D 0E 0F
      -- -- -- -- -- -- -- --  -- -- -- -- -- -- -- --
05F0:                          37 B2 80 B3 80 B4 80 B5          7.......
0600: 80 03 04 00 0A 80 00                              .......         
```

#### Opcodes

```
  0: 0x05F8 [0x37] UPDATE_EVENT_POSITION_AND_DIR: x=-607.234*, z=599.295*, y=0.160*, direction=33.1°*
  1: 0x0601 [0x03] ExtData[1]->WorkLocal[4] = 0*
  2: 0x0606 [0x00] END_REQSTACK()
```

### Event 65535.47

#### Metadata

| Field        | Value    |
|--------------|----------|
| Entrypoint   | 0x0607   |
| Data Size    | 48 bytes |
| Instructions | 11       |

```
      00 01 02 03 04 05 06 07  08 09 0A 0B 0C 0D 0E 0F
      -- -- -- -- -- -- -- --  -- -- -- -- -- -- -- --
0600:                      02  04 00 B6 80 01 36 06 32         ......6.2
0610: 15 80 1F 00 B7 80 B8 80  B9 80 1F 01 1C 26 80 1F  .............&..
0620: 00 BA 80 BB 80 BC 80 1F  01 1F 00 BD 80 BE 80 BF  ................
0630: 80 1F 01 01 07 06 00                              .......         
```

#### Opcodes

```
  0: 0x0607 [0x02] IF !(ExtData[1]->WorkLocal[4] == 1*) GOTO 0x0636
  1: 0x060F [0x32] ExtData[1]->MainSpeed = 10* * 0.1
  2: 0x0612 [0x1F] MOVE_ENTITY: EventEntity moves to X=-604.743*, Z=600.818*, Y=0.035*
  3: 0x061A [0x1F] MOVE_ENTITY: Update entity position (mode=1)
  4: 0x061C [0x1C] WAIT(60* ticks)
  5: 0x061F [0x1F] MOVE_ENTITY: EventEntity moves to X=-608.317*, Z=600.631*, Y=0.214*
  6: 0x0627 [0x1F] MOVE_ENTITY: Update entity position (mode=1)
  7: 0x0629 [0x1F] MOVE_ENTITY: EventEntity moves to X=-606.086*, Z=601.808*, Y=0.102*
  8: 0x0631 [0x1F] MOVE_ENTITY: Update entity position (mode=1)
  9: 0x0633 [0x01] GOTO 0x0607
 10: 0x0636 [0x00] END_REQSTACK()
```

### Event 65535.48

#### Metadata

| Field        | Value    |
|--------------|----------|
| Entrypoint   | 0x0637   |
| Data Size    | 48 bytes |
| Instructions | 11       |

```
      00 01 02 03 04 05 06 07  08 09 0A 0B 0C 0D 0E 0F
      -- -- -- -- -- -- -- --  -- -- -- -- -- -- -- --
0630:                      02  04 00 B6 80 01 66 06 32         ......f.2
0640: 22 80 1F 00 B7 80 B8 80  B9 80 1F 01 1C 26 80 1F  "............&..
0650: 00 BA 80 BB 80 BC 80 1F  01 1F 00 BD 80 BE 80 BF  ................
0660: 80 1F 01 01 37 06 00                              ....7..         
```

#### Opcodes

```
  0: 0x0637 [0x02] IF !(ExtData[1]->WorkLocal[4] == 1*) GOTO 0x0666
  1: 0x063F [0x32] ExtData[1]->MainSpeed = 19* * 0.1
  2: 0x0642 [0x1F] MOVE_ENTITY: EventEntity moves to X=-604.743*, Z=600.818*, Y=0.035*
  3: 0x064A [0x1F] MOVE_ENTITY: Update entity position (mode=1)
  4: 0x064C [0x1C] WAIT(60* ticks)
  5: 0x064F [0x1F] MOVE_ENTITY: EventEntity moves to X=-608.317*, Z=600.631*, Y=0.214*
  6: 0x0657 [0x1F] MOVE_ENTITY: Update entity position (mode=1)
  7: 0x0659 [0x1F] MOVE_ENTITY: EventEntity moves to X=-606.086*, Z=601.808*, Y=0.102*
  8: 0x0661 [0x1F] MOVE_ENTITY: Update entity position (mode=1)
  9: 0x0663 [0x01] GOTO 0x0637
 10: 0x0666 [0x00] END_REQSTACK()
```

### Event 65535.49

#### Metadata

| Field        | Value   |
|--------------|---------|
| Entrypoint   | 0x0667  |
| Data Size    | 6 bytes |
| Instructions | 2       |

```
      00 01 02 03 04 05 06 07  08 09 0A 0B 0C 0D 0E 0F
      -- -- -- -- -- -- -- --  -- -- -- -- -- -- -- --
0660:                      03  04 00 B6 80 00                  ......   
```

#### Opcodes

```
  0: 0x0667 [0x03] ExtData[1]->WorkLocal[4] = 1*
  1: 0x066C [0x00] END_REQSTACK()
```

### Event 65535.50

#### Metadata

| Field        | Value   |
|--------------|---------|
| Entrypoint   | 0x066D  |
| Data Size    | 6 bytes |
| Instructions | 2       |

```
      00 01 02 03 04 05 06 07  08 09 0A 0B 0C 0D 0E 0F
      -- -- -- -- -- -- -- --  -- -- -- -- -- -- -- --
0660:                                         03 04 00               ...
0670: 0A 80 00                                          ...             
```

#### Opcodes

```
  0: 0x066D [0x03] ExtData[1]->WorkLocal[4] = 0*
  1: 0x0672 [0x00] END_REQSTACK()
```

### Event 65535.51

#### Metadata

| Field        | Value    |
|--------------|----------|
| Entrypoint   | 0x0673   |
| Data Size    | 15 bytes |
| Instructions | 3        |

```
      00 01 02 03 04 05 06 07  08 09 0A 0B 0C 0D 0E 0F
      -- -- -- -- -- -- -- --  -- -- -- -- -- -- -- --
0670:          37 C0 80 C1 80  C2 80 C3 80 80 F8 FF FF     7............
0680: 7F 00                                             ..              
```

#### Opcodes

```
  0: 0x0673 [0x37] UPDATE_EVENT_POSITION_AND_DIR: x=-600.128*, z=585.578*, y=0.628*, direction=25.0°*
  1: 0x067C [0x80] LOAD_WAIT(entity=EventEntity)
  2: 0x0681 [0x00] END_REQSTACK()
```

### Event 65535.52

#### Metadata

| Field        | Value    |
|--------------|----------|
| Entrypoint   | 0x0682   |
| Data Size    | 54 bytes |
| Instructions | 12       |

```
      00 01 02 03 04 05 06 07  08 09 0A 0B 0C 0D 0E 0F
      -- -- -- -- -- -- -- --  -- -- -- -- -- -- -- --
0680:       32 15 80 1F 00 C4  80 C5 80 C6 80 1F 01 1F    2.............
0690: 00 C7 80 C8 80 C9 80 1F  01 1F 00 CA 80 CB 80 CC  ................
06A0: 80 1F 01 1F 00 CD 80 CE  80 CF 80 1F 01 1F 00 C0  ................
06B0: 80 C1 80 C2 80 1F 01 00                           ........        
```

#### Opcodes

```
  0: 0x0682 [0x32] ExtData[1]->MainSpeed = 10* * 0.1
  1: 0x0685 [0x1F] MOVE_ENTITY: EventEntity moves to X=-601.910*, Z=587.743*, Y=0.274*
  2: 0x068D [0x1F] MOVE_ENTITY: Update entity position (mode=1)
  3: 0x068F [0x1F] MOVE_ENTITY: EventEntity moves to X=-600.199*, Z=588.994*, Y=0.347*
  4: 0x0697 [0x1F] MOVE_ENTITY: Update entity position (mode=1)
  5: 0x0699 [0x1F] MOVE_ENTITY: EventEntity moves to X=-599.211*, Z=586.089*, Y=0.586*
  6: 0x06A1 [0x1F] MOVE_ENTITY: Update entity position (mode=1)
  7: 0x06A3 [0x1F] MOVE_ENTITY: EventEntity moves to X=-599.391*, Z=583.375*, Y=0.830*
  8: 0x06AB [0x1F] MOVE_ENTITY: Update entity position (mode=1)
  9: 0x06AD [0x1F] MOVE_ENTITY: EventEntity moves to X=-600.128*, Z=585.578*, Y=0.628*
 10: 0x06B5 [0x1F] MOVE_ENTITY: Update entity position (mode=1)
 11: 0x06B7 [0x00] END_REQSTACK()
```

### Event 65535.53

#### Metadata

| Field        | Value    |
|--------------|----------|
| Entrypoint   | 0x06B8   |
| Data Size    | 66 bytes |
| Instructions | 16       |

```
      00 01 02 03 04 05 06 07  08 09 0A 0B 0C 0D 0E 0F
      -- -- -- -- -- -- -- --  -- -- -- -- -- -- -- --
06B0:                          32 22 80 1F 00 C4 80 C5          2"......
06C0: 80 C6 80 1F 01 1C 1C 80  1F 00 C7 80 C8 80 C9 80  ................
06D0: 1F 01 1C 1C 80 1F 00 CA  80 CB 80 CC 80 1F 01 1C  ................
06E0: 1C 80 1F 00 CD 80 CE 80  CF 80 1F 01 1C 1C 80 1F  ................
06F0: 00 C0 80 C1 80 C2 80 1F  01 00                    ..........      
```

#### Opcodes

```
  0: 0x06B8 [0x32] ExtData[1]->MainSpeed = 19* * 0.1
  1: 0x06BB [0x1F] MOVE_ENTITY: EventEntity moves to X=-601.910*, Z=587.743*, Y=0.274*
  2: 0x06C3 [0x1F] MOVE_ENTITY: Update entity position (mode=1)
  3: 0x06C5 [0x1C] WAIT(30* ticks)
  4: 0x06C8 [0x1F] MOVE_ENTITY: EventEntity moves to X=-600.199*, Z=588.994*, Y=0.347*
  5: 0x06D0 [0x1F] MOVE_ENTITY: Update entity position (mode=1)
  6: 0x06D2 [0x1C] WAIT(30* ticks)
  7: 0x06D5 [0x1F] MOVE_ENTITY: EventEntity moves to X=-599.211*, Z=586.089*, Y=0.586*
  8: 0x06DD [0x1F] MOVE_ENTITY: Update entity position (mode=1)
  9: 0x06DF [0x1C] WAIT(30* ticks)
 10: 0x06E2 [0x1F] MOVE_ENTITY: EventEntity moves to X=-599.391*, Z=583.375*, Y=0.830*
 11: 0x06EA [0x1F] MOVE_ENTITY: Update entity position (mode=1)
 12: 0x06EC [0x1C] WAIT(30* ticks)
 13: 0x06EF [0x1F] MOVE_ENTITY: EventEntity moves to X=-600.128*, Z=585.578*, Y=0.628*
 14: 0x06F7 [0x1F] MOVE_ENTITY: Update entity position (mode=1)
 15: 0x06F9 [0x00] END_REQSTACK()
```

### Event 65535.54

#### Metadata

| Field        | Value    |
|--------------|----------|
| Entrypoint   | 0x06FA   |
| Data Size    | 15 bytes |
| Instructions | 3        |

```
      00 01 02 03 04 05 06 07  08 09 0A 0B 0C 0D 0E 0F
      -- -- -- -- -- -- -- --  -- -- -- -- -- -- -- --
06F0:                                37 D0 80 D1 80 D2            7.....
0700: 80 C3 80 80 F8 FF FF 7F  00                       .........       
```

#### Opcodes

```
  0: 0x06FA [0x37] UPDATE_EVENT_POSITION_AND_DIR: x=-602.007*, z=587.764*, y=0.268*, direction=25.0°*
  1: 0x0703 [0x80] LOAD_WAIT(entity=EventEntity)
  2: 0x0708 [0x00] END_REQSTACK()
```

### Event 65535.55

#### Metadata

| Field        | Value    |
|--------------|----------|
| Entrypoint   | 0x0709   |
| Data Size    | 77 bytes |
| Instructions | 17       |

```
      00 01 02 03 04 05 06 07  08 09 0A 0B 0C 0D 0E 0F
      -- -- -- -- -- -- -- --  -- -- -- -- -- -- -- --
0700:                             32 22 80 1F 00 C4 80           2".....
0710: C5 80 C6 80 1F 01 1F 00  C7 80 C8 80 C9 80 1F 01  ................
0720: 1F 00 CA 80 CB 80 CC 80  1F 01 1F 00 CD 80 CE 80  ................
0730: CF 80 1F 01 1C 1C 80 4B  44 10 0F 01 D3 80 1C 1B  .......KD.......
0740: 80 1F 00 D0 80 D1 80 D2  80 1F 01 4B 44 10 0F 01  ...........KD...
0750: D4 80 1C 1C 80 00                                 ......          
```

#### Opcodes

```
  0: 0x0709 [0x32] ExtData[1]->MainSpeed = 19* * 0.1
  1: 0x070C [0x1F] MOVE_ENTITY: EventEntity moves to X=-601.910*, Z=587.743*, Y=0.274*
  2: 0x0714 [0x1F] MOVE_ENTITY: Update entity position (mode=1)
  3: 0x0716 [0x1F] MOVE_ENTITY: EventEntity moves to X=-600.199*, Z=588.994*, Y=0.347*
  4: 0x071E [0x1F] MOVE_ENTITY: Update entity position (mode=1)
  5: 0x0720 [0x1F] MOVE_ENTITY: EventEntity moves to X=-599.211*, Z=586.089*, Y=0.586*
  6: 0x0728 [0x1F] MOVE_ENTITY: Update entity position (mode=1)
  7: 0x072A [0x1F] MOVE_ENTITY: EventEntity moves to X=-599.391*, Z=583.375*, Y=0.830*
  8: 0x0732 [0x1F] MOVE_ENTITY: Update entity position (mode=1)
  9: 0x0734 [0x1C] WAIT(30* ticks)
 10: 0x0737 [0x4B] UPDATE_ENTITY_YAW(entity=Unnamed NPC (ID: 17764420/0x010F1044), yaw=17.4°*)
 11: 0x073E [0x1C] WAIT(120* ticks)
 12: 0x0741 [0x1F] MOVE_ENTITY: EventEntity moves to X=-602.007*, Z=587.764*, Y=0.268*
 13: 0x0749 [0x1F] MOVE_ENTITY: Update entity position (mode=1)
 14: 0x074B [0x4B] UPDATE_ENTITY_YAW(entity=Unnamed NPC (ID: 17764420/0x010F1044), yaw=1.9°*)
 15: 0x0752 [0x1C] WAIT(30* ticks)
 16: 0x0755 [0x00] END_REQSTACK()
```

### Event 65535.56

#### Metadata

| Field        | Value    |
|--------------|----------|
| Entrypoint   | 0x0756   |
| Data Size    | 50 bytes |
| Instructions | 12       |

```
      00 01 02 03 04 05 06 07  08 09 0A 0B 0C 0D 0E 0F
      -- -- -- -- -- -- -- --  -- -- -- -- -- -- -- --
0750:                   32 15  80 1F 00 D5 80 D6 80 D7        2.........
0760: 80 1F 01 1C 26 80 1F 00  D8 80 D9 80 DA 80 1F 01  ....&...........
0770: 1C 26 80 1F 00 C0 80 C1  80 C2 80 1F 01 4B 44 10  .&...........KD.
0780: 0F 01 DB 80 1C 26 80 00                           .....&..        
```

#### Opcodes

```
  0: 0x0756 [0x32] ExtData[1]->MainSpeed = 10* * 0.1
  1: 0x0759 [0x1F] MOVE_ENTITY: EventEntity moves to X=-600.221*, Z=588.558*, Y=0.369*
  2: 0x0761 [0x1F] MOVE_ENTITY: Update entity position (mode=1)
  3: 0x0763 [0x1C] WAIT(60* ticks)
  4: 0x0766 [0x1F] MOVE_ENTITY: EventEntity moves to X=-602.144*, Z=586.825*, Y=0.376*
  5: 0x076E [0x1F] MOVE_ENTITY: Update entity position (mode=1)
  6: 0x0770 [0x1C] WAIT(60* ticks)
  7: 0x0773 [0x1F] MOVE_ENTITY: EventEntity moves to X=-600.128*, Z=585.578*, Y=0.628*
  8: 0x077B [0x1F] MOVE_ENTITY: Update entity position (mode=1)
  9: 0x077D [0x4B] UPDATE_ENTITY_YAW(entity=Unnamed NPC (ID: 17764420/0x010F1044), yaw=11.8°*)
 10: 0x0784 [0x1C] WAIT(60* ticks)
 11: 0x0787 [0x00] END_REQSTACK()
```

### Event 65535.57

#### Metadata

| Field        | Value    |
|--------------|----------|
| Entrypoint   | 0x0788   |
| Data Size    | 50 bytes |
| Instructions | 12       |

```
      00 01 02 03 04 05 06 07  08 09 0A 0B 0C 0D 0E 0F
      -- -- -- -- -- -- -- --  -- -- -- -- -- -- -- --
0780:                          32 22 80 1F 00 DC 80 DD          2"......
0790: 80 DE 80 1F 01 1C 26 80  1F 00 D8 80 D9 80 DA 80  ......&.........
07A0: 1F 01 1C 26 80 1F 00 C0  80 C1 80 C2 80 1F 01 4B  ...&...........K
07B0: 44 10 0F 01 DB 80 1C 26  80 00                    D......&..      
```

#### Opcodes

```
  0: 0x0788 [0x32] ExtData[1]->MainSpeed = 19* * 0.1
  1: 0x078B [0x1F] MOVE_ENTITY: EventEntity moves to X=-599.892*, Z=588.477*, Y=0.373*
  2: 0x0793 [0x1F] MOVE_ENTITY: Update entity position (mode=1)
  3: 0x0795 [0x1C] WAIT(60* ticks)
  4: 0x0798 [0x1F] MOVE_ENTITY: EventEntity moves to X=-602.144*, Z=586.825*, Y=0.376*
  5: 0x07A0 [0x1F] MOVE_ENTITY: Update entity position (mode=1)
  6: 0x07A2 [0x1C] WAIT(60* ticks)
  7: 0x07A5 [0x1F] MOVE_ENTITY: EventEntity moves to X=-600.128*, Z=585.578*, Y=0.628*
  8: 0x07AD [0x1F] MOVE_ENTITY: Update entity position (mode=1)
  9: 0x07AF [0x4B] UPDATE_ENTITY_YAW(entity=Unnamed NPC (ID: 17764420/0x010F1044), yaw=11.8°*)
 10: 0x07B6 [0x1C] WAIT(60* ticks)
 11: 0x07B9 [0x00] END_REQSTACK()
```

### Event 65535.58

#### Metadata

| Field        | Value    |
|--------------|----------|
| Entrypoint   | 0x07BA   |
| Data Size    | 67 bytes |
| Instructions | 15       |

```
      00 01 02 03 04 05 06 07  08 09 0A 0B 0C 0D 0E 0F
      -- -- -- -- -- -- -- --  -- -- -- -- -- -- -- --
07B0:                                32 2B 80 1F 00 DF            2+....
07C0: 80 E0 80 E1 80 1F 01 4B  44 10 0F 01 E2 80 1C 26  .......KD......&
07D0: 80 1F 00 E3 80 E4 80 E5  80 1F 01 4B 44 10 0F 01  ...........KD...
07E0: E6 80 1C E7 80 1F 00 E8  80 E9 80 EA 80 1F 01 1C  ................
07F0: 1C 80 4B 44 10 0F 01 EB  80 1C 26 80 00           ..KD......&..   
```

#### Opcodes

```
  0: 0x07BA [0x32] ExtData[1]->MainSpeed = 57* * 0.1
  1: 0x07BD [0x1F] MOVE_ENTITY: EventEntity moves to X=-599.295*, Z=590.678*, Y=0.264*
  2: 0x07C5 [0x1F] MOVE_ENTITY: Update entity position (mode=1)
  3: 0x07C7 [0x4B] UPDATE_ENTITY_YAW(entity=Unnamed NPC (ID: 17764420/0x010F1044), yaw=5.3°*)
  4: 0x07CE [0x1C] WAIT(60* ticks)
  5: 0x07D1 [0x1F] MOVE_ENTITY: EventEntity moves to X=-604.353*, Z=586.292*, Y=0.138*
  6: 0x07D9 [0x1F] MOVE_ENTITY: Update entity position (mode=1)
  7: 0x07DB [0x4B] UPDATE_ENTITY_YAW(entity=Unnamed NPC (ID: 17764420/0x010F1044), yaw=0.2°*)
  8: 0x07E2 [0x1C] WAIT(240* ticks)
  9: 0x07E5 [0x1F] MOVE_ENTITY: EventEntity moves to X=-600.328*, Z=582.410*, Y=0.802*
 10: 0x07ED [0x1F] MOVE_ENTITY: Update entity position (mode=1)
 11: 0x07EF [0x1C] WAIT(30* ticks)
 12: 0x07F2 [0x4B] UPDATE_ENTITY_YAW(entity=Unnamed NPC (ID: 17764420/0x010F1044), yaw=16.6°*)
 13: 0x07F9 [0x1C] WAIT(60* ticks)
 14: 0x07FC [0x00] END_REQSTACK()
```

### Event 65535.59

#### Metadata

| Field        | Value    |
|--------------|----------|
| Entrypoint   | 0x07FD   |
| Data Size    | 14 bytes |
| Instructions | 4        |

```
      00 01 02 03 04 05 06 07  08 09 0A 0B 0C 0D 0E 0F
      -- -- -- -- -- -- -- --  -- -- -- -- -- -- -- --
07F0:                                         32 15 80               2..
0800: 1F 00 EC 80 ED 80 EE 80  1F 01 00                 ...........     
```

#### Opcodes

```
  0: 0x07FD [0x32] ExtData[1]->MainSpeed = 10* * 0.1
  1: 0x0800 [0x1F] MOVE_ENTITY: EventEntity moves to X=-601.434*, Z=588.428*, Y=0.312*
  2: 0x0808 [0x1F] MOVE_ENTITY: Update entity position (mode=1)
  3: 0x080A [0x00] END_REQSTACK()
```

### Event 65535.60

#### Metadata

| Field        | Value    |
|--------------|----------|
| Entrypoint   | 0x080B   |
| Data Size    | 34 bytes |
| Instructions | 8        |

```
      00 01 02 03 04 05 06 07  08 09 0A 0B 0C 0D 0E 0F
      -- -- -- -- -- -- -- --  -- -- -- -- -- -- -- --
0800:                                   32 15 80 1F 00             2....
0810: EF 80 F0 80 2B 80 1F 01  1F 00 F1 80 F2 80 F3 80  ....+...........
0820: 1F 01 1F 00 C0 80 C1 80  C2 80 1F 01 00           .............   
```

#### Opcodes

```
  0: 0x080B [0x32] ExtData[1]->MainSpeed = 10* * 0.1
  1: 0x080E [0x1F] MOVE_ENTITY: EventEntity moves to X=-604.257*, Z=586.573*, Y=0.057*
  2: 0x0816 [0x1F] MOVE_ENTITY: Update entity position (mode=1)
  3: 0x0818 [0x1F] MOVE_ENTITY: EventEntity moves to X=-603.318*, Z=588.527*, Y=0.196*
  4: 0x0820 [0x1F] MOVE_ENTITY: Update entity position (mode=1)
  5: 0x0822 [0x1F] MOVE_ENTITY: EventEntity moves to X=-600.128*, Z=585.578*, Y=0.628*
  6: 0x082A [0x1F] MOVE_ENTITY: Update entity position (mode=1)
  7: 0x082C [0x00] END_REQSTACK()
```

### Event 65535.61

#### Metadata

| Field        | Value    |
|--------------|----------|
| Entrypoint   | 0x082D   |
| Data Size    | 14 bytes |
| Instructions | 4        |

```
      00 01 02 03 04 05 06 07  08 09 0A 0B 0C 0D 0E 0F
      -- -- -- -- -- -- -- --  -- -- -- -- -- -- -- --
0820:                                         32 2B 80               2+.
0830: 1F 00 EC 80 ED 80 EE 80  1F 01 00                 ...........     
```

#### Opcodes

```
  0: 0x082D [0x32] ExtData[1]->MainSpeed = 57* * 0.1
  1: 0x0830 [0x1F] MOVE_ENTITY: EventEntity moves to X=-601.434*, Z=588.428*, Y=0.312*
  2: 0x0838 [0x1F] MOVE_ENTITY: Update entity position (mode=1)
  3: 0x083A [0x00] END_REQSTACK()
```

### Event 65535.62

#### Metadata

| Field        | Value    |
|--------------|----------|
| Entrypoint   | 0x083B   |
| Data Size    | 34 bytes |
| Instructions | 8        |

```
      00 01 02 03 04 05 06 07  08 09 0A 0B 0C 0D 0E 0F
      -- -- -- -- -- -- -- --  -- -- -- -- -- -- -- --
0830:                                   32 2B 80 1F 00             2+...
0840: EF 80 F0 80 2B 80 1F 01  1F 00 F1 80 F2 80 F3 80  ....+...........
0850: 1F 01 1F 00 F4 80 F5 80  F6 80 1F 01 00           .............   
```

#### Opcodes

```
  0: 0x083B [0x32] ExtData[1]->MainSpeed = 57* * 0.1
  1: 0x083E [0x1F] MOVE_ENTITY: EventEntity moves to X=-604.257*, Z=586.573*, Y=0.057*
  2: 0x0846 [0x1F] MOVE_ENTITY: Update entity position (mode=1)
  3: 0x0848 [0x1F] MOVE_ENTITY: EventEntity moves to X=-603.318*, Z=588.527*, Y=0.196*
  4: 0x0850 [0x1F] MOVE_ENTITY: Update entity position (mode=1)
  5: 0x0852 [0x1F] MOVE_ENTITY: EventEntity moves to X=-599.732*, Z=584.728*, Y=0.723*
  6: 0x085A [0x1F] MOVE_ENTITY: Update entity position (mode=1)
  7: 0x085C [0x00] END_REQSTACK()
```

### Event 65535.63

#### Metadata

| Field        | Value    |
|--------------|----------|
| Entrypoint   | 0x085D   |
| Data Size    | 14 bytes |
| Instructions | 4        |

```
      00 01 02 03 04 05 06 07  08 09 0A 0B 0C 0D 0E 0F
      -- -- -- -- -- -- -- --  -- -- -- -- -- -- -- --
0850:                                         32 2B 80               2+.
0860: 1F 00 F7 80 F8 80 F9 80  1F 01 00                 ...........     
```

#### Opcodes

```
  0: 0x085D [0x32] ExtData[1]->MainSpeed = 57* * 0.1
  1: 0x0860 [0x1F] MOVE_ENTITY: EventEntity moves to X=-605.671*, Z=583.776*, Y=-0.108*
  2: 0x0868 [0x1F] MOVE_ENTITY: Update entity position (mode=1)
  3: 0x086A [0x00] END_REQSTACK()
```

### Event 65535.64

#### Metadata

| Field        | Value    |
|--------------|----------|
| Entrypoint   | 0x086B   |
| Data Size    | 15 bytes |
| Instructions | 3        |

```
      00 01 02 03 04 05 06 07  08 09 0A 0B 0C 0D 0E 0F
      -- -- -- -- -- -- -- --  -- -- -- -- -- -- -- --
0860:                                   37 FA 80 FB 80             7....
0870: FC 80 FD 80 80 F8 FF FF  7F 00                    ..........      
```

#### Opcodes

```
  0: 0x086B [0x37] UPDATE_EVENT_POSITION_AND_DIR: x=-601.110*, z=586.847*, y=0.439*, direction=141.6°*
  1: 0x0874 [0x80] LOAD_WAIT(entity=EventEntity)
  2: 0x0879 [0x00] END_REQSTACK()
```
