# 17764504 - Varun

## Common Data

| Field            | Value                    |
|------------------|--------------------------|
| Zone             | Windurst Woods (ID: 241) |
| Block Size       | 520 bytes                |
| Total Events     | 16                       |
| References Count | 18                       |

## List of Events

| Event ID                 | Entrypoint   |   Size |   Instructions |
|--------------------------|--------------|--------|----------------|
| [65535](#event-65535)    | 0x0000       |      1 |              1 |
| [65535.1](#event-655351) | 0x0001       |     16 |              2 |
| [65535.2](#event-655352) | 0x0011       |      9 |              3 |
| [65535.3](#event-655353) | 0x001A       |     16 |              2 |
| [65535.4](#event-655354) | 0x002A       |     14 |              2 |
| [65535.5](#event-655355) | 0x0038       |     16 |              2 |
| [65535.6](#event-655356) | 0x0048       |     14 |              2 |
| [65535.7](#event-655357) | 0x0056       |      9 |              3 |
| [432](#event-432)        | 0x005F       |     43 |             12 |
| [100](#event-100)        | 0x008A       |     25 |              8 |
| [65535.8](#event-655358) | 0x00A3       |     27 |              9 |
| [65535.9](#event-655359) | 0x00BE       |     27 |              9 |
| [101](#event-101)        | 0x00D9       |     33 |             12 |
| [102](#event-102)        | 0x00FA       |     56 |             16 |
| [103](#event-103)        | 0x0132       |     29 |             10 |
| [104](#event-104)        | 0x014F       |     33 |             12 |

## DAT References (imed_data)

|   Index | Hex Value   |   Dec Value |
|---------|-------------|-------------|
|       0 | 0x0000      |           0 |
|       1 | 0x001E      |          30 |
|       2 | 0x215C      |        8540 |
|       3 | 0x1DDA      |        7642 |
|       4 | 0x1DDB      |        7643 |
|       5 | 0x1DDC      |        7644 |
|       6 | 0x1DDD      |        7645 |
|       7 | 0x1DDE      |        7646 |
|       8 | 0x1DDF      |        7647 |
|       9 | 0x1DE0      |        7648 |
|      10 | 0x1DE1      |        7649 |
|      11 | 0x1DE2      |        7650 |
|      12 | 0x1DE3      |        7651 |
|      13 | 0x00C9      |         201 |
|      14 | 0x1998      |        6552 |
|      15 | 0x1DE4      |        7652 |
|      16 | 0x1DE5      |        7653 |
|      17 | 0x1DE6      |        7654 |

## String References

- **6552**: Obtained $0 gil.
- **7642**: Ahhh... I traveled all the way here from Bastok, but I lost the stone that was the purpose of my journey.
- **7643**: Hm? What kind of stone did I lose?
- **7644**: It was a rock that we found in the Palborough Mines, north of Bastok. It had small traces of mythril in it.
- **7645**: But that's not all... Besides the mythril, there's some unknown magic source in it.
- **7646**: If you mention magic, then you think of Windurst, right? I was hoping to get the Rhinostery to check it out, so I came all the way here.
- **7647**: But now that I've lost the rock in question, I'm stumped. After all the dangers I went through to get my hands on that rock, too... Boy, am I at my wits' end!
- **7648**: I spread the word that I'd pay a reward to the one who finds my $1, but didn't get a single response.
- **7649**: Guess I'll have to go back to the depths of the Palborough Mines and dig up another one...but that place is so dangerous, and...how can I show my face in Bastok!?
- **7650**: Oh...! Ooohhhww...! Just when I had given up hope, too! Thank you! Thank you ever so much!
- **7651**: How can I ever repay you? Words cannot express my gratitude, so here, please accept this...
- **7652**: Now I can show my face in Bastok again! Words will never express my gratitude... Just...thank you!
- **7653**: Thanks for your help the other day! I took that stone and left it with the Rhinostery.
- **7654**: Guess I'll just do some sightseeing until the results come back. Then again...I've already seen every nook and cranny of this place while I was searching frantically for the stone I lost!
- **8540**: Where did I drop it? Damn, that's going to be impossible to find, too! What a catastrophe...!

## Events

### Event 65535

#### Metadata

| Field        | Value   |
|--------------|---------|
| Entrypoint   | 0x0000  |
| Data Size    | 1 bytes |
| Instructions | 1       |

```
      00 01 02 03 04 05 06 07  08 09 0A 0B 0C 0D 0E 0F
      -- -- -- -- -- -- -- --  -- -- -- -- -- -- -- --
0000: 00                                                .               
```

#### Opcodes

```
  0: 0x0000 [0x00] END_REQSTACK()
```

### Event 65535.1

#### Metadata

| Field        | Value    |
|--------------|----------|
| Entrypoint   | 0x0001   |
| Data Size    | 16 bytes |
| Instructions | 2        |

```
      00 01 02 03 04 05 06 07  08 09 0A 0B 0C 0D 0E 0F
      -- -- -- -- -- -- -- --  -- -- -- -- -- -- -- --
0000:    66 00 80 F8 FF FF 7F  F8 FF FF 7F 74 6C 6B 30   f..........tlk0
0010: 00                                                .               
```

#### Opcodes

```
  0: 0x0001 [0x66] LOAD_EXT_SCHEDULER_MAIN: Load scheduler "tlk0" with entities [EventEntity, EventEntity], work=0*
  1: 0x0010 [0x00] END_REQSTACK()
```

### Event 65535.2

#### Metadata

| Field        | Value   |
|--------------|---------|
| Entrypoint   | 0x0011  |
| Data Size    | 9 bytes |
| Instructions | 3       |

```
      00 01 02 03 04 05 06 07  08 09 0A 0B 0C 0D 0E 0F
      -- -- -- -- -- -- -- --  -- -- -- -- -- -- -- --
0010:    5E 69 64 6C 30 1C 01  80 00                     ^idl0....      
```

#### Opcodes

```
  0: 0x0011 [0x5E] EventEntity goes idle (kills current action) (animation: "idl0")
  1: 0x0016 [0x1C] WAIT(30* ticks)
  2: 0x0019 [0x00] END_REQSTACK()
```

### Event 65535.3

#### Metadata

| Field        | Value    |
|--------------|----------|
| Entrypoint   | 0x001A   |
| Data Size    | 16 bytes |
| Instructions | 2        |

```
      00 01 02 03 04 05 06 07  08 09 0A 0B 0C 0D 0E 0F
      -- -- -- -- -- -- -- --  -- -- -- -- -- -- -- --
0010:                                66 00 80 F8 FF FF            f.....
0020: 7F F8 FF FF 7F 74 68 6B  31 00                    .....thk1.      
```

#### Opcodes

```
  0: 0x001A [0x66] LOAD_EXT_SCHEDULER_MAIN: Load scheduler "thk1" with entities [EventEntity, EventEntity], work=0*
  1: 0x0029 [0x00] END_REQSTACK()
```

### Event 65535.4

#### Metadata

| Field        | Value    |
|--------------|----------|
| Entrypoint   | 0x002A   |
| Data Size    | 14 bytes |
| Instructions | 2        |

```
      00 01 02 03 04 05 06 07  08 09 0A 0B 0C 0D 0E 0F
      -- -- -- -- -- -- -- --  -- -- -- -- -- -- -- --
0020:                                53 F8 FF FF 7F F8            S.....
0030: FF FF 7F 74 68 6B 31 00                           ...thk1.        
```

#### Opcodes

```
  0: 0x002A [0x53] WAIT_SCHEDULER_TASK: Wait for scheduler "thk1" with entities [EventEntity, EventEntity]
  1: 0x0037 [0x00] END_REQSTACK()
```

### Event 65535.5

#### Metadata

| Field        | Value    |
|--------------|----------|
| Entrypoint   | 0x0038   |
| Data Size    | 16 bytes |
| Instructions | 2        |

```
      00 01 02 03 04 05 06 07  08 09 0A 0B 0C 0D 0E 0F
      -- -- -- -- -- -- -- --  -- -- -- -- -- -- -- --
0030:                          66 00 80 F8 FF FF 7F F8          f.......
0040: FF FF 7F 74 68 6B 32 00                           ...thk2.        
```

#### Opcodes

```
  0: 0x0038 [0x66] LOAD_EXT_SCHEDULER_MAIN: Load scheduler "thk2" with entities [EventEntity, EventEntity], work=0*
  1: 0x0047 [0x00] END_REQSTACK()
```

### Event 65535.6

#### Metadata

| Field        | Value    |
|--------------|----------|
| Entrypoint   | 0x0048   |
| Data Size    | 14 bytes |
| Instructions | 2        |

```
      00 01 02 03 04 05 06 07  08 09 0A 0B 0C 0D 0E 0F
      -- -- -- -- -- -- -- --  -- -- -- -- -- -- -- --
0040:                          53 F8 FF FF 7F F8 FF FF          S.......
0050: 7F 74 68 6B 32 00                                 .thk2.          
```

#### Opcodes

```
  0: 0x0048 [0x53] WAIT_SCHEDULER_TASK: Wait for scheduler "thk2" with entities [EventEntity, EventEntity]
  1: 0x0055 [0x00] END_REQSTACK()
```

### Event 65535.7

#### Metadata

| Field        | Value   |
|--------------|---------|
| Entrypoint   | 0x0056  |
| Data Size    | 9 bytes |
| Instructions | 3       |

```
      00 01 02 03 04 05 06 07  08 09 0A 0B 0C 0D 0E 0F
      -- -- -- -- -- -- -- --  -- -- -- -- -- -- -- --
0050:                   5E 69  64 6C 30 1C 01 80 00           ^idl0.... 
```

#### Opcodes

```
  0: 0x0056 [0x5E] EventEntity goes idle (kills current action) (animation: "idl0")
  1: 0x005B [0x1C] WAIT(30* ticks)
  2: 0x005E [0x00] END_REQSTACK()
```

### Event 432

#### Metadata

| Field        | Value    |
|--------------|----------|
| Entrypoint   | 0x005F   |
| Data Size    | 43 bytes |
| Instructions | 12       |

```
      00 01 02 03 04 05 06 07  08 09 0A 0B 0C 0D 0E 0F
      -- -- -- -- -- -- -- --  -- -- -- -- -- -- -- --
0050:                                               1E                 .
0060: F0 FF FF 7F 6F 70 29 08  98 10 0F 01 03 1D 02 80  ....op).........
0070: 23 29 08 98 10 0F 01 04  29 08 98 10 0F 01 05 29  #)......)......)
0080: 08 98 10 0F 01 06 20 00  21 00                    ...... .!.      
```

#### Opcodes

```
  0: 0x005F [0x1E] EventEntity looks at LocalPlayer and starts talking
  1: 0x0064 [0x6F] WAIT_FRAME_DELAY: Yield until WaitTime reaches zero
  2: 0x0065 [0x70] WAIT_ENTITY_RENDER_FLAG: Wait while EventEntity->Render.Flags3 bit 2 is set (cancel turn if not)
  3: 0x0066 [0x29] REQ_SET_WAIT(priority=0x08, entity_id=Varun (ID: 17764504/0x010F1098), tag_num=0x03)
  4: 0x006D [0x1D] PRINT_EVENT_MESSAGE(message_id=8540*)
    → "Where did I drop it? Damn, that's going to be impossible to find, too! What a catastrophe...!"
  5: 0x0070 [0x23] WAIT_FOR_DIALOG_INTERACTION
  6: 0x0071 [0x29] REQ_SET_WAIT(priority=0x08, entity_id=Varun (ID: 17764504/0x010F1098), tag_num=0x04)
  7: 0x0078 [0x29] REQ_SET_WAIT(priority=0x08, entity_id=Varun (ID: 17764504/0x010F1098), tag_num=0x05)
  8: 0x007F [0x29] REQ_SET_WAIT(priority=0x08, entity_id=Varun (ID: 17764504/0x010F1098), tag_num=0x06)
  9: 0x0086 [0x20] SET_CLI_EVENT_UC_FLAG: Unlock player control
 10: 0x0088 [0x21] END_EVENT
 11: 0x0089 [0x00] END_REQSTACK()
```

### Event 100

#### Metadata

| Field        | Value    |
|--------------|----------|
| Entrypoint   | 0x008A   |
| Data Size    | 25 bytes |
| Instructions | 8        |

```
      00 01 02 03 04 05 06 07  08 09 0A 0B 0C 0D 0E 0F
      -- -- -- -- -- -- -- --  -- -- -- -- -- -- -- --
0080:                                1E F0 FF FF 7F 6F            .....o
0090: 70 29 0B 98 10 0F 01 0A  29 0B 98 10 0F 01 0B 20  p)......)...... 
00A0: 00 21 00                                          .!.             
```

#### Opcodes

```
  0: 0x008A [0x1E] EventEntity looks at LocalPlayer and starts talking
  1: 0x008F [0x6F] WAIT_FRAME_DELAY: Yield until WaitTime reaches zero
  2: 0x0090 [0x70] WAIT_ENTITY_RENDER_FLAG: Wait while EventEntity->Render.Flags3 bit 2 is set (cancel turn if not)
  3: 0x0091 [0x29] REQ_SET_WAIT(priority=0x0B, entity_id=Varun (ID: 17764504/0x010F1098), tag_num=0x0A)
  4: 0x0098 [0x29] REQ_SET_WAIT(priority=0x0B, entity_id=Varun (ID: 17764504/0x010F1098), tag_num=0x0B)
  5: 0x009F [0x20] SET_CLI_EVENT_UC_FLAG: Unlock player control
  6: 0x00A1 [0x21] END_EVENT
  7: 0x00A2 [0x00] END_REQSTACK()
```

### Event 65535.8

#### Metadata

| Field        | Value    |
|--------------|----------|
| Entrypoint   | 0x00A3   |
| Data Size    | 27 bytes |
| Instructions | 9        |

```
      00 01 02 03 04 05 06 07  08 09 0A 0B 0C 0D 0E 0F
      -- -- -- -- -- -- -- --  -- -- -- -- -- -- -- --
00A0:          29 08 98 10 0F  01 01 1D 03 80 23 1D 04     ).........#..
00B0: 80 23 1D 05 80 23 29 08  98 10 0F 01 02 00        .#...#).......  
```

#### Opcodes

```
  0: 0x00A3 [0x29] REQ_SET_WAIT(priority=0x08, entity_id=Varun (ID: 17764504/0x010F1098), tag_num=0x01)
  1: 0x00AA [0x1D] PRINT_EVENT_MESSAGE(message_id=7642*)
    → "Ahhh... I traveled all the way here from Bastok, but I lost the stone that was the purpose of my journey."
  2: 0x00AD [0x23] WAIT_FOR_DIALOG_INTERACTION
  3: 0x00AE [0x1D] PRINT_EVENT_MESSAGE(message_id=7643*)
    → "Hm? What kind of stone did I lose?"
  4: 0x00B1 [0x23] WAIT_FOR_DIALOG_INTERACTION
  5: 0x00B2 [0x1D] PRINT_EVENT_MESSAGE(message_id=7644*)
    → "It was a rock that we found in the Palborough Mines, north of Bastok. It had small traces of mythril in it."
  6: 0x00B5 [0x23] WAIT_FOR_DIALOG_INTERACTION
  7: 0x00B6 [0x29] REQ_SET_WAIT(priority=0x08, entity_id=Varun (ID: 17764504/0x010F1098), tag_num=0x02)
  8: 0x00BD [0x00] END_REQSTACK()
```

### Event 65535.9

#### Metadata

| Field        | Value    |
|--------------|----------|
| Entrypoint   | 0x00BE   |
| Data Size    | 27 bytes |
| Instructions | 9        |

```
      00 01 02 03 04 05 06 07  08 09 0A 0B 0C 0D 0E 0F
      -- -- -- -- -- -- -- --  -- -- -- -- -- -- -- --
00B0:                                            29 08                ).
00C0: 98 10 0F 01 01 1D 06 80  23 1D 07 80 23 1D 08 80  ........#...#...
00D0: 23 29 08 98 10 0F 01 02  00                       #).......       
```

#### Opcodes

```
  0: 0x00BE [0x29] REQ_SET_WAIT(priority=0x08, entity_id=Varun (ID: 17764504/0x010F1098), tag_num=0x01)
  1: 0x00C5 [0x1D] PRINT_EVENT_MESSAGE(message_id=7645*)
    → "But that's not all... Besides the mythril, there's some unknown magic source in it."
  2: 0x00C8 [0x23] WAIT_FOR_DIALOG_INTERACTION
  3: 0x00C9 [0x1D] PRINT_EVENT_MESSAGE(message_id=7646*)
    → "If you mention magic, then you think of Windurst, right? I was hoping to get the Rhinostery to check it out, so I came all the way here."
  4: 0x00CC [0x23] WAIT_FOR_DIALOG_INTERACTION
  5: 0x00CD [0x1D] PRINT_EVENT_MESSAGE(message_id=7647*)
    → "But now that I've lost the rock in question, I'm stumped. After all the dangers I went through to get my hands on that rock, too... Boy, am I at my wits' end!"
  6: 0x00D0 [0x23] WAIT_FOR_DIALOG_INTERACTION
  7: 0x00D1 [0x29] REQ_SET_WAIT(priority=0x08, entity_id=Varun (ID: 17764504/0x010F1098), tag_num=0x02)
  8: 0x00D8 [0x00] END_REQSTACK()
```

### Event 101

#### Metadata

| Field        | Value    |
|--------------|----------|
| Entrypoint   | 0x00D9   |
| Data Size    | 33 bytes |
| Instructions | 12       |

```
      00 01 02 03 04 05 06 07  08 09 0A 0B 0C 0D 0E 0F
      -- -- -- -- -- -- -- --  -- -- -- -- -- -- -- --
00D0:                             1E F0 FF FF 7F 6F 70           .....op
00E0: 29 08 98 10 0F 01 01 1D  09 80 23 1D 0A 80 23 29  ).........#...#)
00F0: 08 98 10 0F 01 02 20 00  21 00                    ...... .!.      
```

#### Opcodes

```
  0: 0x00D9 [0x1E] EventEntity looks at LocalPlayer and starts talking
  1: 0x00DE [0x6F] WAIT_FRAME_DELAY: Yield until WaitTime reaches zero
  2: 0x00DF [0x70] WAIT_ENTITY_RENDER_FLAG: Wait while EventEntity->Render.Flags3 bit 2 is set (cancel turn if not)
  3: 0x00E0 [0x29] REQ_SET_WAIT(priority=0x08, entity_id=Varun (ID: 17764504/0x010F1098), tag_num=0x01)
  4: 0x00E7 [0x1D] PRINT_EVENT_MESSAGE(message_id=7648*)
    → "I spread the word that I'd pay a reward to the one who finds my $1, but didn't get a single response."
  5: 0x00EA [0x23] WAIT_FOR_DIALOG_INTERACTION
  6: 0x00EB [0x1D] PRINT_EVENT_MESSAGE(message_id=7649*)
    → "Guess I'll have to go back to the depths of the Palborough Mines and dig up another one...but that place is so dangerous, and...how can I show my face in Bastok!?"
  7: 0x00EE [0x23] WAIT_FOR_DIALOG_INTERACTION
  8: 0x00EF [0x29] REQ_SET_WAIT(priority=0x08, entity_id=Varun (ID: 17764504/0x010F1098), tag_num=0x02)
  9: 0x00F6 [0x20] SET_CLI_EVENT_UC_FLAG: Unlock player control
 10: 0x00F8 [0x21] END_EVENT
 11: 0x00F9 [0x00] END_REQSTACK()
```

### Event 102

#### Metadata

| Field        | Value    |
|--------------|----------|
| Entrypoint   | 0x00FA   |
| Data Size    | 56 bytes |
| Instructions | 16       |

```
      00 01 02 03 04 05 06 07  08 09 0A 0B 0C 0D 0E 0F
      -- -- -- -- -- -- -- --  -- -- -- -- -- -- -- --
00F0:                                20 01 42 1E F0 FF             .B...
0100: FF 7F 6F 70 29 08 98 10  0F 01 01 1D 0B 80 23 1D  ..op).........#.
0110: 0C 80 23 29 08 98 10 0F  01 02 45 0D 80 F0 FF FF  ..#)......E.....
0120: 7F F0 FF FF 7F 71 73 74  63 00 80 48 0E 80 20 00  .....qstc..H.. .
0130: 21 00                                             !.              
```

#### Opcodes

```
  0: 0x00FA [0x20] SET_CLI_EVENT_UC_FLAG: Lock player control
  1: 0x00FC [0x42] SET_CLI_EVENT_CANCEL_DATA()
  2: 0x00FD [0x1E] EventEntity looks at LocalPlayer and starts talking
  3: 0x0102 [0x6F] WAIT_FRAME_DELAY: Yield until WaitTime reaches zero
  4: 0x0103 [0x70] WAIT_ENTITY_RENDER_FLAG: Wait while EventEntity->Render.Flags3 bit 2 is set (cancel turn if not)
  5: 0x0104 [0x29] REQ_SET_WAIT(priority=0x08, entity_id=Varun (ID: 17764504/0x010F1098), tag_num=0x01)
  6: 0x010B [0x1D] PRINT_EVENT_MESSAGE(message_id=7650*)
    → "Oh...! Ooohhhww...! Just when I had given up hope, too! Thank you! Thank you ever so much!"
  7: 0x010E [0x23] WAIT_FOR_DIALOG_INTERACTION
  8: 0x010F [0x1D] PRINT_EVENT_MESSAGE(message_id=7651*)
    → "How can I ever repay you? Words cannot express my gratitude, so here, please accept this..."
  9: 0x0112 [0x23] WAIT_FOR_DIALOG_INTERACTION
 10: 0x0113 [0x29] REQ_SET_WAIT(priority=0x08, entity_id=Varun (ID: 17764504/0x010F1098), tag_num=0x02)
 11: 0x011A [0x45] LOAD_SCHEDULED_TASK: Load scheduler "qstc" with entities [LocalPlayer, LocalPlayer], work=[201*, 0*]
 12: 0x012B [0x48] [System] [6552*]:
    → "Obtained $0 gil."
 13: 0x012E [0x20] SET_CLI_EVENT_UC_FLAG: Unlock player control
 14: 0x0130 [0x21] END_EVENT
 15: 0x0131 [0x00] END_REQSTACK()
```

### Event 103

#### Metadata

| Field        | Value    |
|--------------|----------|
| Entrypoint   | 0x0132   |
| Data Size    | 29 bytes |
| Instructions | 10       |

```
      00 01 02 03 04 05 06 07  08 09 0A 0B 0C 0D 0E 0F
      -- -- -- -- -- -- -- --  -- -- -- -- -- -- -- --
0130:       1E F0 FF FF 7F 6F  70 29 08 98 10 0F 01 01    .....op)......
0140: 1D 0F 80 23 29 08 98 10  0F 01 02 20 00 21 00     ...#)...... .!. 
```

#### Opcodes

```
  0: 0x0132 [0x1E] EventEntity looks at LocalPlayer and starts talking
  1: 0x0137 [0x6F] WAIT_FRAME_DELAY: Yield until WaitTime reaches zero
  2: 0x0138 [0x70] WAIT_ENTITY_RENDER_FLAG: Wait while EventEntity->Render.Flags3 bit 2 is set (cancel turn if not)
  3: 0x0139 [0x29] REQ_SET_WAIT(priority=0x08, entity_id=Varun (ID: 17764504/0x010F1098), tag_num=0x01)
  4: 0x0140 [0x1D] PRINT_EVENT_MESSAGE(message_id=7652*)
    → "Now I can show my face in Bastok again! Words will never express my gratitude... Just...thank you!"
  5: 0x0143 [0x23] WAIT_FOR_DIALOG_INTERACTION
  6: 0x0144 [0x29] REQ_SET_WAIT(priority=0x08, entity_id=Varun (ID: 17764504/0x010F1098), tag_num=0x02)
  7: 0x014B [0x20] SET_CLI_EVENT_UC_FLAG: Unlock player control
  8: 0x014D [0x21] END_EVENT
  9: 0x014E [0x00] END_REQSTACK()
```

### Event 104

#### Metadata

| Field        | Value    |
|--------------|----------|
| Entrypoint   | 0x014F   |
| Data Size    | 33 bytes |
| Instructions | 12       |

```
      00 01 02 03 04 05 06 07  08 09 0A 0B 0C 0D 0E 0F
      -- -- -- -- -- -- -- --  -- -- -- -- -- -- -- --
0140:                                               1E                 .
0150: F0 FF FF 7F 6F 70 29 08  98 10 0F 01 01 1D 10 80  ....op).........
0160: 23 1D 11 80 23 29 08 98  10 0F 01 02 20 00 21 00  #...#)...... .!.
```

#### Opcodes

```
  0: 0x014F [0x1E] EventEntity looks at LocalPlayer and starts talking
  1: 0x0154 [0x6F] WAIT_FRAME_DELAY: Yield until WaitTime reaches zero
  2: 0x0155 [0x70] WAIT_ENTITY_RENDER_FLAG: Wait while EventEntity->Render.Flags3 bit 2 is set (cancel turn if not)
  3: 0x0156 [0x29] REQ_SET_WAIT(priority=0x08, entity_id=Varun (ID: 17764504/0x010F1098), tag_num=0x01)
  4: 0x015D [0x1D] PRINT_EVENT_MESSAGE(message_id=7653*)
    → "Thanks for your help the other day! I took that stone and left it with the Rhinostery."
  5: 0x0160 [0x23] WAIT_FOR_DIALOG_INTERACTION
  6: 0x0161 [0x1D] PRINT_EVENT_MESSAGE(message_id=7654*)
    → "Guess I'll just do some sightseeing until the results come back. Then again...I've already seen every nook and cranny of this place while I was searching frantically for the stone I lost!"
  7: 0x0164 [0x23] WAIT_FOR_DIALOG_INTERACTION
  8: 0x0165 [0x29] REQ_SET_WAIT(priority=0x08, entity_id=Varun (ID: 17764504/0x010F1098), tag_num=0x02)
  9: 0x016C [0x20] SET_CLI_EVENT_UC_FLAG: Unlock player control
 10: 0x016E [0x21] END_EVENT
 11: 0x016F [0x00] END_REQSTACK()
```
