# 17764422

## Common Data

| Field            | Value                    |
|------------------|--------------------------|
| Zone             | Windurst Woods (ID: 241) |
| Block Size       | 1960 bytes               |
| Total Events     | 36                       |
| References Count | 154                      |

## List of Events

| Event ID                   | Entrypoint   |   Size |   Instructions |
|----------------------------|--------------|--------|----------------|
| [65535](#event-65535)      | 0x0000       |      1 |              1 |
| [746](#event-746)          | 0x0001       |      1 |              1 |
| [742](#event-742)          | 0x0002       |      1 |              1 |
| [65535.1](#event-655351)   | 0x0003       |      5 |              2 |
| [65535.2](#event-655352)   | 0x0008       |     11 |              3 |
| [65535.3](#event-655353)   | 0x0013       |     10 |              2 |
| [65535.4](#event-655354)   | 0x001D       |    131 |             26 |
| [65535.5](#event-655355)   | 0x00A0       |    131 |             26 |
| [65535.6](#event-655356)   | 0x0123       |     10 |              2 |
| [65535.7](#event-655357)   | 0x012D       |     14 |              4 |
| [65535.8](#event-655358)   | 0x013B       |     11 |              3 |
| [65535.9](#event-655359)   | 0x0146       |     11 |              3 |
| [65535.10](#event-6553510) | 0x0151       |     11 |              3 |
| [65535.11](#event-6553511) | 0x015C       |     14 |              4 |
| [65535.12](#event-6553512) | 0x016A       |     19 |              4 |
| [65535.13](#event-6553513) | 0x017D       |     19 |              4 |
| [776](#event-776)          | 0x0190       |      1 |              1 |
| [65535.14](#event-6553514) | 0x0191       |     15 |              3 |
| [65535.15](#event-6553515) | 0x01A0       |     48 |             11 |
| [65535.16](#event-6553516) | 0x01D0       |     48 |             11 |
| [65535.17](#event-6553517) | 0x0200       |      6 |              2 |
| [65535.18](#event-6553518) | 0x0206       |     15 |              3 |
| [65535.19](#event-6553519) | 0x0215       |     54 |             12 |
| [65535.20](#event-6553520) | 0x024B       |     66 |             16 |
| [65535.21](#event-6553521) | 0x028D       |     15 |              3 |
| [65535.22](#event-6553522) | 0x029C       |     73 |             17 |
| [65535.23](#event-6553523) | 0x02E5       |     50 |             12 |
| [65535.24](#event-6553524) | 0x0317       |     50 |             12 |
| [65535.25](#event-6553525) | 0x0349       |     67 |             15 |
| [65535.26](#event-6553526) | 0x038C       |     14 |              4 |
| [65535.27](#event-6553527) | 0x039A       |     51 |             11 |
| [65535.28](#event-6553528) | 0x03CD       |     14 |              4 |
| [65535.29](#event-6553529) | 0x03DB       |     51 |             11 |
| [65535.30](#event-6553530) | 0x040E       |     59 |             13 |
| [65535.31](#event-6553531) | 0x0449       |     69 |             15 |
| [65535.32](#event-6553532) | 0x048E       |     15 |              3 |

## DAT References (imed_data)

|   Index | Hex Value   |   Dec Value |
|---------|-------------|-------------|
|       0 | 0x0000      |           0 |
|       1 | 0x1EC63     |      126051 |
|       2 | 0xFFFE75F9  |  4294866425 |
|       3 | 0xFFFFEC78  |  4294962296 |
|       4 | 0x02C9      |         713 |
|       5 | 0x0039      |          57 |
|       6 | 0x1F133     |      127283 |
|       7 | 0xFFFE6C8E  |  4294864014 |
|       8 | 0x1EA21     |      125473 |
|       9 | 0xFFFE6447  |  4294861895 |
|      10 | 0x1E0C1     |      123073 |
|      11 | 0xFFFE59DF  |  4294859231 |
|      12 | 0x1E499     |      124057 |
|      13 | 0xFFFE5044  |  4294856772 |
|      14 | 0x1ED76     |      126326 |
|      15 | 0xFFFE5055  |  4294856789 |
|      16 | 0x1F4D1     |      128209 |
|      17 | 0xFFFE5989  |  4294859145 |
|      18 | 0x1EAE7     |      125671 |
|      19 | 0xFFFE622D  |  4294861357 |
|      20 | 0x1DC90     |      122000 |
|      21 | 0xFFFE69C0  |  4294863296 |
|      22 | 0x1E1D1     |      123345 |
|      23 | 0xFFFE7448  |  4294865992 |
|      24 | 0x1DF80     |      122752 |
|      25 | 0xFFFE4108  |  4294852872 |
|      26 | 0xFFFFEC79  |  4294962297 |
|      27 | 0x0BE2      |        3042 |
|      28 | 0x1E003     |      122883 |
|      29 | 0xFFFE4407  |  4294853639 |
|      30 | 0x1E0A8     |      123048 |
|      31 | 0xFFFE47E2  |  4294854626 |
|      32 | 0x1E144     |      123204 |
|      33 | 0xFFFE4BBD  |  4294855613 |
|      34 | 0x1E242     |      123458 |
|      35 | 0xFFFE51A6  |  4294857126 |
|      36 | 0x1FC6E     |      130158 |
|      37 | 0xFFFE4DFC  |  4294856188 |
|      38 | 0x00FC      |         252 |
|      39 | 0xFFFFB851  |  4294948945 |
|      40 | 0xFFFFD8F0  |  4294957296 |
|      41 | 0xFFFFF63D  |  4294964797 |
|      42 | 0x07E8      |        2024 |
|      43 | 0x014C      |         332 |
|      44 | 0x31D1      |       12753 |
|      45 | 0x12793     |       75667 |
|      46 | 0x0C89      |        3209 |
|      47 | 0xFFF6CD3D  |  4294364477 |
|      48 | 0x92D67     |      601447 |
|      49 | 0x0183      |         387 |
|      50 | 0x0002      |           2 |
|      51 | 0x000A      |          10 |
|      52 | 0xFFF6C5BB  |  4294362555 |
|      53 | 0x934CA     |      603338 |
|      54 | 0x0023      |          35 |
|      55 | 0xFFF6D3C5  |  4294366149 |
|      56 | 0x93292     |      602770 |
|      57 | 0xFFF6DF7D  |  4294369149 |
|      58 | 0x939E5     |      604645 |
|      59 | 0x001F      |          31 |
|      60 | 0x003C      |          60 |
|      61 | 0x0013      |          19 |
|      62 | 0xFFF6D7C0  |  4294367168 |
|      63 | 0x8EF6A     |      585578 |
|      64 | 0x0274      |         628 |
|      65 | 0x011C      |         284 |
|      66 | 0xFFF6D0CA  |  4294365386 |
|      67 | 0x8F7DF     |      587743 |
|      68 | 0x0112      |         274 |
|      69 | 0xFFF6D779  |  4294367097 |
|      70 | 0x8FCC2     |      588994 |
|      71 | 0x015B      |         347 |
|      72 | 0xFFF6DB55  |  4294368085 |
|      73 | 0x8F169     |      586089 |
|      74 | 0x024A      |         586 |
|      75 | 0xFFF6DAA1  |  4294367905 |
|      76 | 0x8E6CF     |      583375 |
|      77 | 0x033E      |         830 |
|      78 | 0x001E      |          30 |
|      79 | 0xFFF6D3B3  |  4294366131 |
|      80 | 0x8F340     |      586560 |
|      81 | 0x01D0      |         464 |
|      82 | 0x0101      |         257 |
|      83 | 0x0078      |         120 |
|      84 | 0xFFF6D069  |  4294365289 |
|      85 | 0x8F7F4     |      587764 |
|      86 | 0x010C      |         268 |
|      87 | 0xFFF6D763  |  4294367075 |
|      88 | 0x8FB0E     |      588558 |
|      89 | 0x0171      |         369 |
|      90 | 0xFFF6CFE0  |  4294365152 |
|      91 | 0x8F449     |      586825 |
|      92 | 0x0178      |         376 |
|      93 | 0x0862      |        2146 |
|      94 | 0xFFF6D8AC  |  4294367404 |
|      95 | 0x8FABD     |      588477 |
|      96 | 0x0175      |         373 |
|      97 | 0xFFF6DB01  |  4294368001 |
|      98 | 0x90356     |      590678 |
|      99 | 0x0108      |         264 |
|     100 | 0x03BF      |         959 |
|     101 | 0xFFF6C73F  |  4294362943 |
|     102 | 0x8F234     |      586292 |
|     103 | 0x008A      |         138 |
|     104 | 0x0025      |          37 |
|     105 | 0x00F0      |         240 |
|     106 | 0xFFF6D6F8  |  4294366968 |
|     107 | 0x8E30A     |      582410 |
|     108 | 0x0322      |         802 |
|     109 | 0x0BD3      |        3027 |
|     110 | 0xFFF6DB94  |  4294368148 |
|     111 | 0x8FCF3     |      589043 |
|     112 | 0x0159      |         345 |
|     113 | 0xFFF6C79F  |  4294363039 |
|     114 | 0x8F34D     |      586573 |
|     115 | 0xFFF6CB4A  |  4294363978 |
|     116 | 0x8FAEF     |      588527 |
|     117 | 0x00C4      |         196 |
|     118 | 0xFFF6D269  |  4294365801 |
|     119 | 0x8F138     |      586040 |
|     120 | 0x01F0      |         496 |
|     121 | 0xFFF6D2EF  |  4294365935 |
|     122 | 0x8EB3B     |      584507 |
|     123 | 0x021E      |         542 |
|     124 | 0xFFF6D6A2  |  4294366882 |
|     125 | 0x8E8B3     |      583859 |
|     126 | 0x02C0      |         704 |
|     127 | 0xFFF6DAB0  |  4294367920 |
|     128 | 0x8EE3C     |      585276 |
|     129 | 0x029C      |         668 |
|     130 | 0xFFF6DC30  |  4294368304 |
|     131 | 0x8F5FC     |      587260 |
|     132 | 0x01D4      |         468 |
|     133 | 0xFFF6D87A  |  4294367354 |
|     134 | 0x8F6D2     |      587474 |
|     135 | 0x01BF      |         447 |
|     136 | 0xFFF6CEAA  |  4294364842 |
|     137 | 0x8FA2D     |      588333 |
|     138 | 0x00F7      |         247 |
|     139 | 0xFFF6CA0E  |  4294363662 |
|     140 | 0x8EFB9     |      585657 |
|     141 | 0x0090      |         144 |
|     142 | 0xFFF6CECB  |  4294364875 |
|     143 | 0x8E418     |      582680 |
|     144 | 0x018C      |         396 |
|     145 | 0xFFF6DB79  |  4294368121 |
|     146 | 0x8E4F3     |      582899 |
|     147 | 0x0356      |         854 |
|     148 | 0xFFF6DE60  |  4294368864 |
|     149 | 0x8F7D9     |      587737 |
|     150 | 0x019A      |         410 |
|     151 | 0xFFF6D8AE  |  4294367406 |
|     152 | 0x8FE78     |      589432 |
|     153 | 0x0146      |         326 |

## Events

### Event 65535

#### Metadata

| Field        | Value   |
|--------------|---------|
| Entrypoint   | 0x0000  |
| Data Size    | 1 bytes |
| Instructions | 1       |

```
      00 01 02 03 04 05 06 07  08 09 0A 0B 0C 0D 0E 0F
      -- -- -- -- -- -- -- --  -- -- -- -- -- -- -- --
0000: 00                                                .               
```

#### Opcodes

```
  0: 0x0000 [0x00] END_REQSTACK()
```

### Event 746

#### Metadata

| Field        | Value   |
|--------------|---------|
| Entrypoint   | 0x0001  |
| Data Size    | 1 bytes |
| Instructions | 1       |

```
      00 01 02 03 04 05 06 07  08 09 0A 0B 0C 0D 0E 0F
      -- -- -- -- -- -- -- --  -- -- -- -- -- -- -- --
0000:    00                                              .              
```

#### Opcodes

```
  0: 0x0001 [0x00] END_REQSTACK()
```

### Event 742

#### Metadata

| Field        | Value   |
|--------------|---------|
| Entrypoint   | 0x0002  |
| Data Size    | 1 bytes |
| Instructions | 1       |

```
      00 01 02 03 04 05 06 07  08 09 0A 0B 0C 0D 0E 0F
      -- -- -- -- -- -- -- --  -- -- -- -- -- -- -- --
0000:       00                                            .             
```

#### Opcodes

```
  0: 0x0002 [0x00] END_REQSTACK()
```

### Event 65535.1

#### Metadata

| Field        | Value   |
|--------------|---------|
| Entrypoint   | 0x0003  |
| Data Size    | 5 bytes |
| Instructions | 2       |

```
      00 01 02 03 04 05 06 07  08 09 0A 0B 0C 0D 0E 0F
      -- -- -- -- -- -- -- --  -- -- -- -- -- -- -- --
0000:          B6 00 04 10 00                              .....        
```

#### Opcodes

```
  0: 0x0003 [0xB6] ENTITY_APPEARANCE_HANDLER(case=Hair style, value=Work_Zone[4])
  1: 0x0007 [0x00] END_REQSTACK()
```

### Event 65535.2

#### Metadata

| Field        | Value    |
|--------------|----------|
| Entrypoint   | 0x0008   |
| Data Size    | 11 bytes |
| Instructions | 3        |

```
      00 01 02 03 04 05 06 07  08 09 0A 0B 0C 0D 0E 0F
      -- -- -- -- -- -- -- --  -- -- -- -- -- -- -- --
0000:                          B4 01 00 00 00 80 B5 00          ........
0010: 00 00 00                                          ...             
```

#### Opcodes

```
  0: 0x0008 [0xB4] UI_WINDOW_STRING_HANDLER(case=0x01 - Copy string from event strings table, work_offset=ExtData[1]->WorkLocal[0], string_index=0*)
  1: 0x000E [0xB5] SET_EVENT_ENTITY_NAME: Change EventEntity name to ExtData[1]->WorkLocal[0]
  2: 0x0012 [0x00] END_REQSTACK()
```

### Event 65535.3

#### Metadata

| Field        | Value    |
|--------------|----------|
| Entrypoint   | 0x0013   |
| Data Size    | 10 bytes |
| Instructions | 2        |

```
      00 01 02 03 04 05 06 07  08 09 0A 0B 0C 0D 0E 0F
      -- -- -- -- -- -- -- --  -- -- -- -- -- -- -- --
0010:          37 01 80 02 80  03 80 04 80 00              7.........   
```

#### Opcodes

```
  0: 0x0013 [0x37] UPDATE_EVENT_POSITION_AND_DIR: x=126.051*, z=-100.871*, y=-5.000*, direction=62.7°*
  1: 0x001C [0x00] END_REQSTACK()
```

### Event 65535.4

#### Metadata

| Field        | Value     |
|--------------|-----------|
| Entrypoint   | 0x001D    |
| Data Size    | 131 bytes |
| Instructions | 26        |

```
      00 01 02 03 04 05 06 07  08 09 0A 0B 0C 0D 0E 0F
      -- -- -- -- -- -- -- --  -- -- -- -- -- -- -- --
0010:                                         32 05 80               2..
0020: 1F 00 06 80 07 80 03 80  1F 01 1F 00 08 80 09 80  ................
0030: 03 80 1F 01 1F 00 0A 80  0B 80 03 80 1F 01 1F 00  ................
0040: 0C 80 0D 80 03 80 1F 01  1F 00 0E 80 0F 80 03 80  ................
0050: 1F 01 1F 00 10 80 11 80  03 80 1F 01 1F 00 12 80  ................
0060: 13 80 03 80 1F 01 1F 00  14 80 15 80 03 80 1F 01  ................
0070: 1F 00 16 80 17 80 03 80  1F 01 1F 00 01 80 02 80  ................
0080: 03 80 1F 01 02 4D 10 00  80 00 96 00 27 05 46 10  .....M......'.F.
0090: 0F 01 07 01 9F 00 37 00  80 00 80 00 80 00 80 00  ......7.........
```

#### Opcodes

```
  0: 0x001D [0x32] ExtData[1]->MainSpeed = 57* * 0.1
  1: 0x0020 [0x1F] MOVE_ENTITY: EventEntity moves to X=127.283*, Z=-103.282*, Y=-5.000*
  2: 0x0028 [0x1F] MOVE_ENTITY: Update entity position (mode=1)
  3: 0x002A [0x1F] MOVE_ENTITY: EventEntity moves to X=125.473*, Z=-105.401*, Y=-5.000*
  4: 0x0032 [0x1F] MOVE_ENTITY: Update entity position (mode=1)
  5: 0x0034 [0x1F] MOVE_ENTITY: EventEntity moves to X=123.073*, Z=-108.065*, Y=-5.000*
  6: 0x003C [0x1F] MOVE_ENTITY: Update entity position (mode=1)
  7: 0x003E [0x1F] MOVE_ENTITY: EventEntity moves to X=124.057*, Z=-110.524*, Y=-5.000*
  8: 0x0046 [0x1F] MOVE_ENTITY: Update entity position (mode=1)
  9: 0x0048 [0x1F] MOVE_ENTITY: EventEntity moves to X=126.326*, Z=-110.507*, Y=-5.000*
 10: 0x0050 [0x1F] MOVE_ENTITY: Update entity position (mode=1)
 11: 0x0052 [0x1F] MOVE_ENTITY: EventEntity moves to X=128.209*, Z=-108.151*, Y=-5.000*
 12: 0x005A [0x1F] MOVE_ENTITY: Update entity position (mode=1)
 13: 0x005C [0x1F] MOVE_ENTITY: EventEntity moves to X=125.671*, Z=-105.939*, Y=-5.000*
 14: 0x0064 [0x1F] MOVE_ENTITY: Update entity position (mode=1)
 15: 0x0066 [0x1F] MOVE_ENTITY: EventEntity moves to X=122.000*, Z=-104.000*, Y=-5.000*
 16: 0x006E [0x1F] MOVE_ENTITY: Update entity position (mode=1)
 17: 0x0070 [0x1F] MOVE_ENTITY: EventEntity moves to X=123.345*, Z=-101.304*, Y=-5.000*
 18: 0x0078 [0x1F] MOVE_ENTITY: Update entity position (mode=1)
 19: 0x007A [0x1F] MOVE_ENTITY: EventEntity moves to X=126.051*, Z=-100.871*, Y=-5.000*
 20: 0x0082 [0x1F] MOVE_ENTITY: Update entity position (mode=1)
 21: 0x0084 [0x02] IF !(Work_Zone[77] == 0*) GOTO 0x0096
 22: 0x008C [0x27] REQ_SET(priority=0x05, entity_id=Unnamed NPC (ID: 17764422/0x010F1046), tag_num=0x07)
 23: 0x0093 [0x01] GOTO 0x009F
 24: 0x0096 [0x37] UPDATE_EVENT_POSITION_AND_DIR: x=0.000*, z=0.000*, y=0.000*, direction=0.0°*

SUBROUTINE_009F:
 25: 0x009F [0x00] END_REQSTACK()
```

### Event 65535.5

#### Metadata

| Field        | Value     |
|--------------|-----------|
| Entrypoint   | 0x00A0    |
| Data Size    | 131 bytes |
| Instructions | 26        |

```
      00 01 02 03 04 05 06 07  08 09 0A 0B 0C 0D 0E 0F
      -- -- -- -- -- -- -- --  -- -- -- -- -- -- -- --
00A0: 32 05 80 1F 00 06 80 07  80 03 80 1F 01 1F 00 08  2...............
00B0: 80 09 80 03 80 1F 01 1F  00 0A 80 0B 80 03 80 1F  ................
00C0: 01 1F 00 0C 80 0D 80 03  80 1F 01 1F 00 0E 80 0F  ................
00D0: 80 03 80 1F 01 1F 00 10  80 11 80 03 80 1F 01 1F  ................
00E0: 00 12 80 13 80 03 80 1F  01 1F 00 14 80 15 80 03  ................
00F0: 80 1F 01 1F 00 16 80 17  80 03 80 1F 01 1F 00 01  ................
0100: 80 02 80 03 80 1F 01 02  4D 10 00 80 00 19 01 27  ........M......'
0110: 05 46 10 0F 01 06 01 22  01 37 00 80 00 80 00 80  .F.....".7......
0120: 00 80 00                                          ...             
```

#### Opcodes

```
  0: 0x00A0 [0x32] ExtData[1]->MainSpeed = 57* * 0.1
  1: 0x00A3 [0x1F] MOVE_ENTITY: EventEntity moves to X=127.283*, Z=-103.282*, Y=-5.000*
  2: 0x00AB [0x1F] MOVE_ENTITY: Update entity position (mode=1)
  3: 0x00AD [0x1F] MOVE_ENTITY: EventEntity moves to X=125.473*, Z=-105.401*, Y=-5.000*
  4: 0x00B5 [0x1F] MOVE_ENTITY: Update entity position (mode=1)
  5: 0x00B7 [0x1F] MOVE_ENTITY: EventEntity moves to X=123.073*, Z=-108.065*, Y=-5.000*
  6: 0x00BF [0x1F] MOVE_ENTITY: Update entity position (mode=1)
  7: 0x00C1 [0x1F] MOVE_ENTITY: EventEntity moves to X=124.057*, Z=-110.524*, Y=-5.000*
  8: 0x00C9 [0x1F] MOVE_ENTITY: Update entity position (mode=1)
  9: 0x00CB [0x1F] MOVE_ENTITY: EventEntity moves to X=126.326*, Z=-110.507*, Y=-5.000*
 10: 0x00D3 [0x1F] MOVE_ENTITY: Update entity position (mode=1)
 11: 0x00D5 [0x1F] MOVE_ENTITY: EventEntity moves to X=128.209*, Z=-108.151*, Y=-5.000*
 12: 0x00DD [0x1F] MOVE_ENTITY: Update entity position (mode=1)
 13: 0x00DF [0x1F] MOVE_ENTITY: EventEntity moves to X=125.671*, Z=-105.939*, Y=-5.000*
 14: 0x00E7 [0x1F] MOVE_ENTITY: Update entity position (mode=1)
 15: 0x00E9 [0x1F] MOVE_ENTITY: EventEntity moves to X=122.000*, Z=-104.000*, Y=-5.000*
 16: 0x00F1 [0x1F] MOVE_ENTITY: Update entity position (mode=1)
 17: 0x00F3 [0x1F] MOVE_ENTITY: EventEntity moves to X=123.345*, Z=-101.304*, Y=-5.000*
 18: 0x00FB [0x1F] MOVE_ENTITY: Update entity position (mode=1)
 19: 0x00FD [0x1F] MOVE_ENTITY: EventEntity moves to X=126.051*, Z=-100.871*, Y=-5.000*
 20: 0x0105 [0x1F] MOVE_ENTITY: Update entity position (mode=1)
 21: 0x0107 [0x02] IF !(Work_Zone[77] == 0*) GOTO 0x0119
 22: 0x010F [0x27] REQ_SET(priority=0x05, entity_id=Unnamed NPC (ID: 17764422/0x010F1046), tag_num=0x06)
 23: 0x0116 [0x01] GOTO 0x0122
 24: 0x0119 [0x37] UPDATE_EVENT_POSITION_AND_DIR: x=0.000*, z=0.000*, y=0.000*, direction=0.0°*

SUBROUTINE_0122:
 25: 0x0122 [0x00] END_REQSTACK()
```

### Event 65535.6

#### Metadata

| Field        | Value    |
|--------------|----------|
| Entrypoint   | 0x0123   |
| Data Size    | 10 bytes |
| Instructions | 2        |

```
      00 01 02 03 04 05 06 07  08 09 0A 0B 0C 0D 0E 0F
      -- -- -- -- -- -- -- --  -- -- -- -- -- -- -- --
0120:          37 18 80 19 80  1A 80 1B 80 00              7.........   
```

#### Opcodes

```
  0: 0x0123 [0x37] UPDATE_EVENT_POSITION_AND_DIR: x=122.752*, z=-114.424*, y=-4.999*, direction=267.4°*
  1: 0x012C [0x00] END_REQSTACK()
```

### Event 65535.7

#### Metadata

| Field        | Value    |
|--------------|----------|
| Entrypoint   | 0x012D   |
| Data Size    | 14 bytes |
| Instructions | 4        |

```
      00 01 02 03 04 05 06 07  08 09 0A 0B 0C 0D 0E 0F
      -- -- -- -- -- -- -- --  -- -- -- -- -- -- -- --
0120:                                         32 05 80               2..
0130: 1F 00 1C 80 1D 80 1A 80  1F 01 00                 ...........     
```

#### Opcodes

```
  0: 0x012D [0x32] ExtData[1]->MainSpeed = 57* * 0.1
  1: 0x0130 [0x1F] MOVE_ENTITY: EventEntity moves to X=122.883*, Z=-113.657*, Y=-4.999*
  2: 0x0138 [0x1F] MOVE_ENTITY: Update entity position (mode=1)
  3: 0x013A [0x00] END_REQSTACK()
```

### Event 65535.8

#### Metadata

| Field        | Value    |
|--------------|----------|
| Entrypoint   | 0x013B   |
| Data Size    | 11 bytes |
| Instructions | 3        |

```
      00 01 02 03 04 05 06 07  08 09 0A 0B 0C 0D 0E 0F
      -- -- -- -- -- -- -- --  -- -- -- -- -- -- -- --
0130:                                   1F 00 1E 80 1F             .....
0140: 80 1A 80 1F 01 00                                 ......          
```

#### Opcodes

```
  0: 0x013B [0x1F] MOVE_ENTITY: EventEntity moves to X=123.048*, Z=-112.670*, Y=-4.999*
  1: 0x0143 [0x1F] MOVE_ENTITY: Update entity position (mode=1)
  2: 0x0145 [0x00] END_REQSTACK()
```

### Event 65535.9

#### Metadata

| Field        | Value    |
|--------------|----------|
| Entrypoint   | 0x0146   |
| Data Size    | 11 bytes |
| Instructions | 3        |

```
      00 01 02 03 04 05 06 07  08 09 0A 0B 0C 0D 0E 0F
      -- -- -- -- -- -- -- --  -- -- -- -- -- -- -- --
0140:                   1F 00  20 80 21 80 1A 80 1F 01        .. .!.....
0150: 00                                                .               
```

#### Opcodes

```
  0: 0x0146 [0x1F] MOVE_ENTITY: EventEntity moves to X=123.204*, Z=-111.683*, Y=-4.999*
  1: 0x014E [0x1F] MOVE_ENTITY: Update entity position (mode=1)
  2: 0x0150 [0x00] END_REQSTACK()
```

### Event 65535.10

#### Metadata

| Field        | Value    |
|--------------|----------|
| Entrypoint   | 0x0151   |
| Data Size    | 11 bytes |
| Instructions | 3        |

```
      00 01 02 03 04 05 06 07  08 09 0A 0B 0C 0D 0E 0F
      -- -- -- -- -- -- -- --  -- -- -- -- -- -- -- --
0150:    1F 00 22 80 23 80 1A  80 1F 01 00               ..".#......    
```

#### Opcodes

```
  0: 0x0151 [0x1F] MOVE_ENTITY: EventEntity moves to X=123.458*, Z=-110.170*, Y=-4.999*
  1: 0x0159 [0x1F] MOVE_ENTITY: Update entity position (mode=1)
  2: 0x015B [0x00] END_REQSTACK()
```

### Event 65535.11

#### Metadata

| Field        | Value    |
|--------------|----------|
| Entrypoint   | 0x015C   |
| Data Size    | 14 bytes |
| Instructions | 4        |

```
      00 01 02 03 04 05 06 07  08 09 0A 0B 0C 0D 0E 0F
      -- -- -- -- -- -- -- --  -- -- -- -- -- -- -- --
0150:                                      32 05 80 1F              2...
0160: 00 24 80 25 80 1A 80 1F  01 00                    .$.%......      
```

#### Opcodes

```
  0: 0x015C [0x32] ExtData[1]->MainSpeed = 57* * 0.1
  1: 0x015F [0x1F] MOVE_ENTITY: EventEntity moves to X=130.158*, Z=-111.108*, Y=-4.999*
  2: 0x0167 [0x1F] MOVE_ENTITY: Update entity position (mode=1)
  3: 0x0169 [0x00] END_REQSTACK()
```

### Event 65535.12

#### Metadata

| Field        | Value    |
|--------------|----------|
| Entrypoint   | 0x016A   |
| Data Size    | 19 bytes |
| Instructions | 4        |

```
      00 01 02 03 04 05 06 07  08 09 0A 0B 0C 0D 0E 0F
      -- -- -- -- -- -- -- --  -- -- -- -- -- -- -- --
0160:                                B6 00 26 80 37 27            ..&.7'
0170: 80 28 80 29 80 2A 80 80  F8 FF FF 7F 00           .(.).*.......   
```

#### Opcodes

```
  0: 0x016A [0xB6] ENTITY_APPEARANCE_HANDLER(case=Hair style, value=252*)
  1: 0x016E [0x37] UPDATE_EVENT_POSITION_AND_DIR: x=-18.351*, z=-10.000*, y=-2.499*, direction=177.9°*
  2: 0x0177 [0x80] LOAD_WAIT(entity=EventEntity)
  3: 0x017C [0x00] END_REQSTACK()
```

### Event 65535.13

#### Metadata

| Field        | Value    |
|--------------|----------|
| Entrypoint   | 0x017D   |
| Data Size    | 19 bytes |
| Instructions | 4        |

```
      00 01 02 03 04 05 06 07  08 09 0A 0B 0C 0D 0E 0F
      -- -- -- -- -- -- -- --  -- -- -- -- -- -- -- --
0170:                                         B6 00 2B               ..+
0180: 80 37 2C 80 2D 80 00 80  2E 80 80 F8 FF FF 7F 00  .7,.-...........
```

#### Opcodes

```
  0: 0x017D [0xB6] ENTITY_APPEARANCE_HANDLER(case=Hair style, value=332*)
  1: 0x0181 [0x37] UPDATE_EVENT_POSITION_AND_DIR: x=12.753*, z=75.667*, y=0.000*, direction=282.0°*
  2: 0x018A [0x80] LOAD_WAIT(entity=EventEntity)
  3: 0x018F [0x00] END_REQSTACK()
```

### Event 776

#### Metadata

| Field        | Value   |
|--------------|---------|
| Entrypoint   | 0x0190  |
| Data Size    | 1 bytes |
| Instructions | 1       |

```
      00 01 02 03 04 05 06 07  08 09 0A 0B 0C 0D 0E 0F
      -- -- -- -- -- -- -- --  -- -- -- -- -- -- -- --
0190: 00                                                .               
```

#### Opcodes

```
  0: 0x0190 [0x00] END_REQSTACK()
```

### Event 65535.14

#### Metadata

| Field        | Value    |
|--------------|----------|
| Entrypoint   | 0x0191   |
| Data Size    | 15 bytes |
| Instructions | 3        |

```
      00 01 02 03 04 05 06 07  08 09 0A 0B 0C 0D 0E 0F
      -- -- -- -- -- -- -- --  -- -- -- -- -- -- -- --
0190:    37 2F 80 30 80 00 80  31 80 03 04 00 00 80 00   7/.0...1.......
```

#### Opcodes

```
  0: 0x0191 [0x37] UPDATE_EVENT_POSITION_AND_DIR: x=-602.819*, z=601.447*, y=0.000*, direction=34.0°*
  1: 0x019A [0x03] ExtData[1]->WorkLocal[4] = 0*
  2: 0x019F [0x00] END_REQSTACK()
```

### Event 65535.15

#### Metadata

| Field        | Value    |
|--------------|----------|
| Entrypoint   | 0x01A0   |
| Data Size    | 48 bytes |
| Instructions | 11       |

```
      00 01 02 03 04 05 06 07  08 09 0A 0B 0C 0D 0E 0F
      -- -- -- -- -- -- -- --  -- -- -- -- -- -- -- --
01A0: 02 04 00 32 80 01 CF 01  32 33 80 1F 00 34 80 35  ...2....23...4.5
01B0: 80 36 80 1F 01 1F 00 37  80 38 80 00 80 1F 01 1F  .6.....7.8......
01C0: 00 39 80 3A 80 3B 80 1F  01 1C 3C 80 01 A0 01 00  .9.:.;....<.....
```

#### Opcodes

```
  0: 0x01A0 [0x02] IF !(ExtData[1]->WorkLocal[4] == 2*) GOTO 0x01CF
  1: 0x01A8 [0x32] ExtData[1]->MainSpeed = 10* * 0.1
  2: 0x01AB [0x1F] MOVE_ENTITY: EventEntity moves to X=-604.741*, Z=603.338*, Y=0.035*
  3: 0x01B3 [0x1F] MOVE_ENTITY: Update entity position (mode=1)
  4: 0x01B5 [0x1F] MOVE_ENTITY: EventEntity moves to X=-601.147*, Z=602.770*, Y=0.000*
  5: 0x01BD [0x1F] MOVE_ENTITY: Update entity position (mode=1)
  6: 0x01BF [0x1F] MOVE_ENTITY: EventEntity moves to X=-598.147*, Z=604.645*, Y=0.031*
  7: 0x01C7 [0x1F] MOVE_ENTITY: Update entity position (mode=1)
  8: 0x01C9 [0x1C] WAIT(60* ticks)
  9: 0x01CC [0x01] GOTO 0x01A0
 10: 0x01CF [0x00] END_REQSTACK()
```

### Event 65535.16

#### Metadata

| Field        | Value    |
|--------------|----------|
| Entrypoint   | 0x01D0   |
| Data Size    | 48 bytes |
| Instructions | 11       |

```
      00 01 02 03 04 05 06 07  08 09 0A 0B 0C 0D 0E 0F
      -- -- -- -- -- -- -- --  -- -- -- -- -- -- -- --
01D0: 02 04 00 32 80 01 FF 01  32 3D 80 1F 00 34 80 35  ...2....2=...4.5
01E0: 80 36 80 1F 01 1F 00 37  80 38 80 00 80 1F 01 1F  .6.....7.8......
01F0: 00 39 80 3A 80 3B 80 1F  01 1C 3C 80 01 D0 01 00  .9.:.;....<.....
```

#### Opcodes

```
  0: 0x01D0 [0x02] IF !(ExtData[1]->WorkLocal[4] == 2*) GOTO 0x01FF
  1: 0x01D8 [0x32] ExtData[1]->MainSpeed = 19* * 0.1
  2: 0x01DB [0x1F] MOVE_ENTITY: EventEntity moves to X=-604.741*, Z=603.338*, Y=0.035*
  3: 0x01E3 [0x1F] MOVE_ENTITY: Update entity position (mode=1)
  4: 0x01E5 [0x1F] MOVE_ENTITY: EventEntity moves to X=-601.147*, Z=602.770*, Y=0.000*
  5: 0x01ED [0x1F] MOVE_ENTITY: Update entity position (mode=1)
  6: 0x01EF [0x1F] MOVE_ENTITY: EventEntity moves to X=-598.147*, Z=604.645*, Y=0.031*
  7: 0x01F7 [0x1F] MOVE_ENTITY: Update entity position (mode=1)
  8: 0x01F9 [0x1C] WAIT(60* ticks)
  9: 0x01FC [0x01] GOTO 0x01D0
 10: 0x01FF [0x00] END_REQSTACK()
```

### Event 65535.17

#### Metadata

| Field        | Value   |
|--------------|---------|
| Entrypoint   | 0x0200  |
| Data Size    | 6 bytes |
| Instructions | 2       |

```
      00 01 02 03 04 05 06 07  08 09 0A 0B 0C 0D 0E 0F
      -- -- -- -- -- -- -- --  -- -- -- -- -- -- -- --
0200: 03 04 00 32 80 00                                 ...2..          
```

#### Opcodes

```
  0: 0x0200 [0x03] ExtData[1]->WorkLocal[4] = 2*
  1: 0x0205 [0x00] END_REQSTACK()
```

### Event 65535.18

#### Metadata

| Field        | Value    |
|--------------|----------|
| Entrypoint   | 0x0206   |
| Data Size    | 15 bytes |
| Instructions | 3        |

```
      00 01 02 03 04 05 06 07  08 09 0A 0B 0C 0D 0E 0F
      -- -- -- -- -- -- -- --  -- -- -- -- -- -- -- --
0200:                   37 3E  80 3F 80 40 80 41 80 80        7>.?.@.A..
0210: F8 FF FF 7F 00                                    .....           
```

#### Opcodes

```
  0: 0x0206 [0x37] UPDATE_EVENT_POSITION_AND_DIR: x=-600.128*, z=585.578*, y=0.628*, direction=25.0°*
  1: 0x020F [0x80] LOAD_WAIT(entity=EventEntity)
  2: 0x0214 [0x00] END_REQSTACK()
```

### Event 65535.19

#### Metadata

| Field        | Value    |
|--------------|----------|
| Entrypoint   | 0x0215   |
| Data Size    | 54 bytes |
| Instructions | 12       |

```
      00 01 02 03 04 05 06 07  08 09 0A 0B 0C 0D 0E 0F
      -- -- -- -- -- -- -- --  -- -- -- -- -- -- -- --
0210:                32 33 80  1F 00 42 80 43 80 44 80       23...B.C.D.
0220: 1F 01 1F 00 45 80 46 80  47 80 1F 01 1F 00 48 80  ....E.F.G.....H.
0230: 49 80 4A 80 1F 01 1F 00  4B 80 4C 80 4D 80 1F 01  I.J.....K.L.M...
0240: 1F 00 3E 80 3F 80 40 80  1F 01 00                 ..>.?.@....     
```

#### Opcodes

```
  0: 0x0215 [0x32] ExtData[1]->MainSpeed = 10* * 0.1
  1: 0x0218 [0x1F] MOVE_ENTITY: EventEntity moves to X=-601.910*, Z=587.743*, Y=0.274*
  2: 0x0220 [0x1F] MOVE_ENTITY: Update entity position (mode=1)
  3: 0x0222 [0x1F] MOVE_ENTITY: EventEntity moves to X=-600.199*, Z=588.994*, Y=0.347*
  4: 0x022A [0x1F] MOVE_ENTITY: Update entity position (mode=1)
  5: 0x022C [0x1F] MOVE_ENTITY: EventEntity moves to X=-599.211*, Z=586.089*, Y=0.586*
  6: 0x0234 [0x1F] MOVE_ENTITY: Update entity position (mode=1)
  7: 0x0236 [0x1F] MOVE_ENTITY: EventEntity moves to X=-599.391*, Z=583.375*, Y=0.830*
  8: 0x023E [0x1F] MOVE_ENTITY: Update entity position (mode=1)
  9: 0x0240 [0x1F] MOVE_ENTITY: EventEntity moves to X=-600.128*, Z=585.578*, Y=0.628*
 10: 0x0248 [0x1F] MOVE_ENTITY: Update entity position (mode=1)
 11: 0x024A [0x00] END_REQSTACK()
```

### Event 65535.20

#### Metadata

| Field        | Value    |
|--------------|----------|
| Entrypoint   | 0x024B   |
| Data Size    | 66 bytes |
| Instructions | 16       |

```
      00 01 02 03 04 05 06 07  08 09 0A 0B 0C 0D 0E 0F
      -- -- -- -- -- -- -- --  -- -- -- -- -- -- -- --
0240:                                   32 3D 80 1F 00             2=...
0250: 42 80 43 80 44 80 1F 01  1C 4E 80 1F 00 45 80 46  B.C.D....N...E.F
0260: 80 47 80 1F 01 1C 4E 80  1F 00 48 80 49 80 4A 80  .G....N...H.I.J.
0270: 1F 01 1C 4E 80 1F 00 4B  80 4C 80 4D 80 1F 01 1C  ...N...K.L.M....
0280: 4E 80 1F 00 3E 80 3F 80  40 80 1F 01 00           N...>.?.@....   
```

#### Opcodes

```
  0: 0x024B [0x32] ExtData[1]->MainSpeed = 19* * 0.1
  1: 0x024E [0x1F] MOVE_ENTITY: EventEntity moves to X=-601.910*, Z=587.743*, Y=0.274*
  2: 0x0256 [0x1F] MOVE_ENTITY: Update entity position (mode=1)
  3: 0x0258 [0x1C] WAIT(30* ticks)
  4: 0x025B [0x1F] MOVE_ENTITY: EventEntity moves to X=-600.199*, Z=588.994*, Y=0.347*
  5: 0x0263 [0x1F] MOVE_ENTITY: Update entity position (mode=1)
  6: 0x0265 [0x1C] WAIT(30* ticks)
  7: 0x0268 [0x1F] MOVE_ENTITY: EventEntity moves to X=-599.211*, Z=586.089*, Y=0.586*
  8: 0x0270 [0x1F] MOVE_ENTITY: Update entity position (mode=1)
  9: 0x0272 [0x1C] WAIT(30* ticks)
 10: 0x0275 [0x1F] MOVE_ENTITY: EventEntity moves to X=-599.391*, Z=583.375*, Y=0.830*
 11: 0x027D [0x1F] MOVE_ENTITY: Update entity position (mode=1)
 12: 0x027F [0x1C] WAIT(30* ticks)
 13: 0x0282 [0x1F] MOVE_ENTITY: EventEntity moves to X=-600.128*, Z=585.578*, Y=0.628*
 14: 0x028A [0x1F] MOVE_ENTITY: Update entity position (mode=1)
 15: 0x028C [0x00] END_REQSTACK()
```

### Event 65535.21

#### Metadata

| Field        | Value    |
|--------------|----------|
| Entrypoint   | 0x028D   |
| Data Size    | 15 bytes |
| Instructions | 3        |

```
      00 01 02 03 04 05 06 07  08 09 0A 0B 0C 0D 0E 0F
      -- -- -- -- -- -- -- --  -- -- -- -- -- -- -- --
0280:                                         37 4F 80               7O.
0290: 50 80 51 80 52 80 80 F8  FF FF 7F 00              P.Q.R.......    
```

#### Opcodes

```
  0: 0x028D [0x37] UPDATE_EVENT_POSITION_AND_DIR: x=-601.165*, z=586.560*, y=0.464*, direction=22.6°*
  1: 0x0296 [0x80] LOAD_WAIT(entity=EventEntity)
  2: 0x029B [0x00] END_REQSTACK()
```

### Event 65535.22

#### Metadata

| Field        | Value    |
|--------------|----------|
| Entrypoint   | 0x029C   |
| Data Size    | 73 bytes |
| Instructions | 17       |

```
      00 01 02 03 04 05 06 07  08 09 0A 0B 0C 0D 0E 0F
      -- -- -- -- -- -- -- --  -- -- -- -- -- -- -- --
0290:                                      32 3D 80 1F              2=..
02A0: 00 42 80 43 80 44 80 1F  01 1F 00 45 80 46 80 47  .B.C.D.....E.F.G
02B0: 80 1F 01 1F 00 48 80 49  80 4A 80 1F 01 1F 00 4B  .....H.I.J.....K
02C0: 80 4C 80 4D 80 1F 01 1C  4E 80 1E 44 10 0F 01 1C  .L.M....N..D....
02D0: 53 80 1F 00 54 80 55 80  56 80 1F 01 1C 4E 80 1E  S...T.U.V....N..
02E0: 44 10 0F 01 00                                    D....           
```

#### Opcodes

```
  0: 0x029C [0x32] ExtData[1]->MainSpeed = 19* * 0.1
  1: 0x029F [0x1F] MOVE_ENTITY: EventEntity moves to X=-601.910*, Z=587.743*, Y=0.274*
  2: 0x02A7 [0x1F] MOVE_ENTITY: Update entity position (mode=1)
  3: 0x02A9 [0x1F] MOVE_ENTITY: EventEntity moves to X=-600.199*, Z=588.994*, Y=0.347*
  4: 0x02B1 [0x1F] MOVE_ENTITY: Update entity position (mode=1)
  5: 0x02B3 [0x1F] MOVE_ENTITY: EventEntity moves to X=-599.211*, Z=586.089*, Y=0.586*
  6: 0x02BB [0x1F] MOVE_ENTITY: Update entity position (mode=1)
  7: 0x02BD [0x1F] MOVE_ENTITY: EventEntity moves to X=-599.391*, Z=583.375*, Y=0.830*
  8: 0x02C5 [0x1F] MOVE_ENTITY: Update entity position (mode=1)
  9: 0x02C7 [0x1C] WAIT(30* ticks)
 10: 0x02CA [0x1E] EventEntity looks at Unnamed NPC (ID: 17764420/0x010F1044) and starts talking
 11: 0x02CF [0x1C] WAIT(120* ticks)
 12: 0x02D2 [0x1F] MOVE_ENTITY: EventEntity moves to X=-602.007*, Z=587.764*, Y=0.268*
 13: 0x02DA [0x1F] MOVE_ENTITY: Update entity position (mode=1)
 14: 0x02DC [0x1C] WAIT(30* ticks)
 15: 0x02DF [0x1E] EventEntity looks at Unnamed NPC (ID: 17764420/0x010F1044) and starts talking
 16: 0x02E4 [0x00] END_REQSTACK()
```

### Event 65535.23

#### Metadata

| Field        | Value    |
|--------------|----------|
| Entrypoint   | 0x02E5   |
| Data Size    | 50 bytes |
| Instructions | 12       |

```
      00 01 02 03 04 05 06 07  08 09 0A 0B 0C 0D 0E 0F
      -- -- -- -- -- -- -- --  -- -- -- -- -- -- -- --
02E0:                32 33 80  1F 00 57 80 58 80 59 80       23...W.X.Y.
02F0: 1F 01 1C 3C 80 1F 00 5A  80 5B 80 5C 80 1F 01 1C  ...<...Z.[.\....
0300: 3C 80 1F 00 3E 80 3F 80  40 80 1F 01 4B 46 10 0F  <...>.?.@...KF..
0310: 01 5D 80 1C 3C 80 00                              .]..<..         
```

#### Opcodes

```
  0: 0x02E5 [0x32] ExtData[1]->MainSpeed = 10* * 0.1
  1: 0x02E8 [0x1F] MOVE_ENTITY: EventEntity moves to X=-600.221*, Z=588.558*, Y=0.369*
  2: 0x02F0 [0x1F] MOVE_ENTITY: Update entity position (mode=1)
  3: 0x02F2 [0x1C] WAIT(60* ticks)
  4: 0x02F5 [0x1F] MOVE_ENTITY: EventEntity moves to X=-602.144*, Z=586.825*, Y=0.376*
  5: 0x02FD [0x1F] MOVE_ENTITY: Update entity position (mode=1)
  6: 0x02FF [0x1C] WAIT(60* ticks)
  7: 0x0302 [0x1F] MOVE_ENTITY: EventEntity moves to X=-600.128*, Z=585.578*, Y=0.628*
  8: 0x030A [0x1F] MOVE_ENTITY: Update entity position (mode=1)
  9: 0x030C [0x4B] UPDATE_ENTITY_YAW(entity=Unnamed NPC (ID: 17764422/0x010F1046), yaw=11.8°*)
 10: 0x0313 [0x1C] WAIT(60* ticks)
 11: 0x0316 [0x00] END_REQSTACK()
```

### Event 65535.24

#### Metadata

| Field        | Value    |
|--------------|----------|
| Entrypoint   | 0x0317   |
| Data Size    | 50 bytes |
| Instructions | 12       |

```
      00 01 02 03 04 05 06 07  08 09 0A 0B 0C 0D 0E 0F
      -- -- -- -- -- -- -- --  -- -- -- -- -- -- -- --
0310:                      32  3D 80 1F 00 5E 80 5F 80         2=...^._.
0320: 60 80 1F 01 1C 3C 80 1F  00 5A 80 5B 80 5C 80 1F  `....<...Z.[.\..
0330: 01 1C 3C 80 1F 00 3E 80  3F 80 40 80 1F 01 4B 46  ..<...>.?.@...KF
0340: 10 0F 01 5D 80 1C 3C 80  00                       ...]..<..       
```

#### Opcodes

```
  0: 0x0317 [0x32] ExtData[1]->MainSpeed = 19* * 0.1
  1: 0x031A [0x1F] MOVE_ENTITY: EventEntity moves to X=-599.892*, Z=588.477*, Y=0.373*
  2: 0x0322 [0x1F] MOVE_ENTITY: Update entity position (mode=1)
  3: 0x0324 [0x1C] WAIT(60* ticks)
  4: 0x0327 [0x1F] MOVE_ENTITY: EventEntity moves to X=-602.144*, Z=586.825*, Y=0.376*
  5: 0x032F [0x1F] MOVE_ENTITY: Update entity position (mode=1)
  6: 0x0331 [0x1C] WAIT(60* ticks)
  7: 0x0334 [0x1F] MOVE_ENTITY: EventEntity moves to X=-600.128*, Z=585.578*, Y=0.628*
  8: 0x033C [0x1F] MOVE_ENTITY: Update entity position (mode=1)
  9: 0x033E [0x4B] UPDATE_ENTITY_YAW(entity=Unnamed NPC (ID: 17764422/0x010F1046), yaw=11.8°*)
 10: 0x0345 [0x1C] WAIT(60* ticks)
 11: 0x0348 [0x00] END_REQSTACK()
```

### Event 65535.25

#### Metadata

| Field        | Value    |
|--------------|----------|
| Entrypoint   | 0x0349   |
| Data Size    | 67 bytes |
| Instructions | 15       |

```
      00 01 02 03 04 05 06 07  08 09 0A 0B 0C 0D 0E 0F
      -- -- -- -- -- -- -- --  -- -- -- -- -- -- -- --
0340:                             32 05 80 1F 00 61 80           2....a.
0350: 62 80 63 80 1F 01 4B 46  10 0F 01 64 80 1C 3C 80  b.c...KF...d..<.
0360: 1F 00 65 80 66 80 67 80  1F 01 4B 46 10 0F 01 68  ..e.f.g...KF...h
0370: 80 1C 69 80 1F 00 6A 80  6B 80 6C 80 1F 01 1C 4E  ..i...j.k.l....N
0380: 80 4B 46 10 0F 01 6D 80  1C 3C 80 00              .KF...m..<..    
```

#### Opcodes

```
  0: 0x0349 [0x32] ExtData[1]->MainSpeed = 57* * 0.1
  1: 0x034C [0x1F] MOVE_ENTITY: EventEntity moves to X=-599.295*, Z=590.678*, Y=0.264*
  2: 0x0354 [0x1F] MOVE_ENTITY: Update entity position (mode=1)
  3: 0x0356 [0x4B] UPDATE_ENTITY_YAW(entity=Unnamed NPC (ID: 17764422/0x010F1046), yaw=5.3°*)
  4: 0x035D [0x1C] WAIT(60* ticks)
  5: 0x0360 [0x1F] MOVE_ENTITY: EventEntity moves to X=-604.353*, Z=586.292*, Y=0.138*
  6: 0x0368 [0x1F] MOVE_ENTITY: Update entity position (mode=1)
  7: 0x036A [0x4B] UPDATE_ENTITY_YAW(entity=Unnamed NPC (ID: 17764422/0x010F1046), yaw=0.2°*)
  8: 0x0371 [0x1C] WAIT(240* ticks)
  9: 0x0374 [0x1F] MOVE_ENTITY: EventEntity moves to X=-600.328*, Z=582.410*, Y=0.802*
 10: 0x037C [0x1F] MOVE_ENTITY: Update entity position (mode=1)
 11: 0x037E [0x1C] WAIT(30* ticks)
 12: 0x0381 [0x4B] UPDATE_ENTITY_YAW(entity=Unnamed NPC (ID: 17764422/0x010F1046), yaw=16.6°*)
 13: 0x0388 [0x1C] WAIT(60* ticks)
 14: 0x038B [0x00] END_REQSTACK()
```

### Event 65535.26

#### Metadata

| Field        | Value    |
|--------------|----------|
| Entrypoint   | 0x038C   |
| Data Size    | 14 bytes |
| Instructions | 4        |

```
      00 01 02 03 04 05 06 07  08 09 0A 0B 0C 0D 0E 0F
      -- -- -- -- -- -- -- --  -- -- -- -- -- -- -- --
0380:                                      32 33 80 1F              23..
0390: 00 6E 80 6F 80 70 80 1F  01 00                    .n.o.p....      
```

#### Opcodes

```
  0: 0x038C [0x32] ExtData[1]->MainSpeed = 10* * 0.1
  1: 0x038F [0x1F] MOVE_ENTITY: EventEntity moves to X=-599.148*, Z=589.043*, Y=0.345*
  2: 0x0397 [0x1F] MOVE_ENTITY: Update entity position (mode=1)
  3: 0x0399 [0x00] END_REQSTACK()
```

### Event 65535.27

#### Metadata

| Field        | Value    |
|--------------|----------|
| Entrypoint   | 0x039A   |
| Data Size    | 51 bytes |
| Instructions | 11       |

```
      00 01 02 03 04 05 06 07  08 09 0A 0B 0C 0D 0E 0F
      -- -- -- -- -- -- -- --  -- -- -- -- -- -- -- --
0390:                                32 33 80 1F 00 71            23...q
03A0: 80 72 80 05 80 1F 01 1F  00 73 80 74 80 75 80 1F  .r.......s.t.u..
03B0: 01 1F 00 76 80 77 80 78  80 1F 01 1E 44 10 0F 01  ...v.w.x....D...
03C0: 1C 4E 80 4A 44 10 0F 01  45 10 0F 01 00           .N.JD...E....   
```

#### Opcodes

```
  0: 0x039A [0x32] ExtData[1]->MainSpeed = 10* * 0.1
  1: 0x039D [0x1F] MOVE_ENTITY: EventEntity moves to X=-604.257*, Z=586.573*, Y=0.057*
  2: 0x03A5 [0x1F] MOVE_ENTITY: Update entity position (mode=1)
  3: 0x03A7 [0x1F] MOVE_ENTITY: EventEntity moves to X=-603.318*, Z=588.527*, Y=0.196*
  4: 0x03AF [0x1F] MOVE_ENTITY: Update entity position (mode=1)
  5: 0x03B1 [0x1F] MOVE_ENTITY: EventEntity moves to X=-601.495*, Z=586.040*, Y=0.496*
  6: 0x03B9 [0x1F] MOVE_ENTITY: Update entity position (mode=1)
  7: 0x03BB [0x1E] EventEntity looks at Unnamed NPC (ID: 17764420/0x010F1044) and starts talking
  8: 0x03C0 [0x1C] WAIT(30* ticks)
  9: 0x03C3 [0x4A] Unnamed NPC (ID: 17764420/0x010F1044) looks at Unnamed NPC (ID: 17764421/0x010F1045)
 10: 0x03CC [0x00] END_REQSTACK()
```

### Event 65535.28

#### Metadata

| Field        | Value    |
|--------------|----------|
| Entrypoint   | 0x03CD   |
| Data Size    | 14 bytes |
| Instructions | 4        |

```
      00 01 02 03 04 05 06 07  08 09 0A 0B 0C 0D 0E 0F
      -- -- -- -- -- -- -- --  -- -- -- -- -- -- -- --
03C0:                                         32 05 80               2..
03D0: 1F 00 6E 80 6F 80 70 80  1F 01 00                 ..n.o.p....     
```

#### Opcodes

```
  0: 0x03CD [0x32] ExtData[1]->MainSpeed = 57* * 0.1
  1: 0x03D0 [0x1F] MOVE_ENTITY: EventEntity moves to X=-599.148*, Z=589.043*, Y=0.345*
  2: 0x03D8 [0x1F] MOVE_ENTITY: Update entity position (mode=1)
  3: 0x03DA [0x00] END_REQSTACK()
```

### Event 65535.29

#### Metadata

| Field        | Value    |
|--------------|----------|
| Entrypoint   | 0x03DB   |
| Data Size    | 51 bytes |
| Instructions | 11       |

```
      00 01 02 03 04 05 06 07  08 09 0A 0B 0C 0D 0E 0F
      -- -- -- -- -- -- -- --  -- -- -- -- -- -- -- --
03D0:                                   32 05 80 1F 00             2....
03E0: 71 80 72 80 05 80 1F 01  1F 00 73 80 74 80 75 80  q.r.......s.t.u.
03F0: 1F 01 1F 00 76 80 77 80  78 80 1F 01 1E 44 10 0F  ....v.w.x....D..
0400: 01 1C 4E 80 4A 44 10 0F  01 46 10 0F 01 00        ..N.JD...F....  
```

#### Opcodes

```
  0: 0x03DB [0x32] ExtData[1]->MainSpeed = 57* * 0.1
  1: 0x03DE [0x1F] MOVE_ENTITY: EventEntity moves to X=-604.257*, Z=586.573*, Y=0.057*
  2: 0x03E6 [0x1F] MOVE_ENTITY: Update entity position (mode=1)
  3: 0x03E8 [0x1F] MOVE_ENTITY: EventEntity moves to X=-603.318*, Z=588.527*, Y=0.196*
  4: 0x03F0 [0x1F] MOVE_ENTITY: Update entity position (mode=1)
  5: 0x03F2 [0x1F] MOVE_ENTITY: EventEntity moves to X=-601.495*, Z=586.040*, Y=0.496*
  6: 0x03FA [0x1F] MOVE_ENTITY: Update entity position (mode=1)
  7: 0x03FC [0x1E] EventEntity looks at Unnamed NPC (ID: 17764420/0x010F1044) and starts talking
  8: 0x0401 [0x1C] WAIT(30* ticks)
  9: 0x0404 [0x4A] Unnamed NPC (ID: 17764420/0x010F1044) looks at Unnamed NPC (ID: 17764422/0x010F1046)
 10: 0x040D [0x00] END_REQSTACK()
```

### Event 65535.30

#### Metadata

| Field        | Value    |
|--------------|----------|
| Entrypoint   | 0x040E   |
| Data Size    | 59 bytes |
| Instructions | 13       |

```
      00 01 02 03 04 05 06 07  08 09 0A 0B 0C 0D 0E 0F
      -- -- -- -- -- -- -- --  -- -- -- -- -- -- -- --
0400:                                            32 33                23
0410: 80 1F 00 79 80 7A 80 7B  80 1F 01 1F 00 7C 80 7D  ...y.z.{.....|.}
0420: 80 7E 80 1F 01 1F 00 7F  80 80 80 81 80 1F 01 1F  .~..............
0430: 00 82 80 83 80 84 80 1F  01 1F 00 85 80 86 80 87  ................
0440: 80 1F 01 1E 44 10 0F 01  00                       ....D....       
```

#### Opcodes

```
  0: 0x040E [0x32] ExtData[1]->MainSpeed = 10* * 0.1
  1: 0x0411 [0x1F] MOVE_ENTITY: EventEntity moves to X=-601.361*, Z=584.507*, Y=0.542*
  2: 0x0419 [0x1F] MOVE_ENTITY: Update entity position (mode=1)
  3: 0x041B [0x1F] MOVE_ENTITY: EventEntity moves to X=-600.414*, Z=583.859*, Y=0.704*
  4: 0x0423 [0x1F] MOVE_ENTITY: Update entity position (mode=1)
  5: 0x0425 [0x1F] MOVE_ENTITY: EventEntity moves to X=-599.376*, Z=585.276*, Y=0.668*
  6: 0x042D [0x1F] MOVE_ENTITY: Update entity position (mode=1)
  7: 0x042F [0x1F] MOVE_ENTITY: EventEntity moves to X=-598.992*, Z=587.260*, Y=0.468*
  8: 0x0437 [0x1F] MOVE_ENTITY: Update entity position (mode=1)
  9: 0x0439 [0x1F] MOVE_ENTITY: EventEntity moves to X=-599.942*, Z=587.474*, Y=0.447*
 10: 0x0441 [0x1F] MOVE_ENTITY: Update entity position (mode=1)
 11: 0x0443 [0x1E] EventEntity looks at Unnamed NPC (ID: 17764420/0x010F1044) and starts talking
 12: 0x0448 [0x00] END_REQSTACK()
```

### Event 65535.31

#### Metadata

| Field        | Value    |
|--------------|----------|
| Entrypoint   | 0x0449   |
| Data Size    | 69 bytes |
| Instructions | 15       |

```
      00 01 02 03 04 05 06 07  08 09 0A 0B 0C 0D 0E 0F
      -- -- -- -- -- -- -- --  -- -- -- -- -- -- -- --
0440:                             32 05 80 1F 00 88 80           2......
0450: 89 80 8A 80 1F 01 1F 00  8B 80 8C 80 8D 80 1F 01  ................
0460: 1F 00 8E 80 8F 80 90 80  1F 01 1F 00 91 80 92 80  ................
0470: 93 80 1F 01 1F 00 94 80  95 80 96 80 1F 01 1F 00  ................
0480: 97 80 98 80 99 80 1F 01  1E 44 10 0F 01 00        .........D....  
```

#### Opcodes

```
  0: 0x0449 [0x32] ExtData[1]->MainSpeed = 57* * 0.1
  1: 0x044C [0x1F] MOVE_ENTITY: EventEntity moves to X=-602.454*, Z=588.333*, Y=0.247*
  2: 0x0454 [0x1F] MOVE_ENTITY: Update entity position (mode=1)
  3: 0x0456 [0x1F] MOVE_ENTITY: EventEntity moves to X=-603.634*, Z=585.657*, Y=0.144*
  4: 0x045E [0x1F] MOVE_ENTITY: Update entity position (mode=1)
  5: 0x0460 [0x1F] MOVE_ENTITY: EventEntity moves to X=-602.421*, Z=582.680*, Y=0.396*
  6: 0x0468 [0x1F] MOVE_ENTITY: Update entity position (mode=1)
  7: 0x046A [0x1F] MOVE_ENTITY: EventEntity moves to X=-599.175*, Z=582.899*, Y=0.854*
  8: 0x0472 [0x1F] MOVE_ENTITY: Update entity position (mode=1)
  9: 0x0474 [0x1F] MOVE_ENTITY: EventEntity moves to X=-598.432*, Z=587.737*, Y=0.410*
 10: 0x047C [0x1F] MOVE_ENTITY: Update entity position (mode=1)
 11: 0x047E [0x1F] MOVE_ENTITY: EventEntity moves to X=-599.890*, Z=589.432*, Y=0.326*
 12: 0x0486 [0x1F] MOVE_ENTITY: Update entity position (mode=1)
 13: 0x0488 [0x1E] EventEntity looks at Unnamed NPC (ID: 17764420/0x010F1044) and starts talking
 14: 0x048D [0x00] END_REQSTACK()
```

### Event 65535.32

#### Metadata

| Field        | Value    |
|--------------|----------|
| Entrypoint   | 0x048E   |
| Data Size    | 15 bytes |
| Instructions | 3        |

```
      00 01 02 03 04 05 06 07  08 09 0A 0B 0C 0D 0E 0F
      -- -- -- -- -- -- -- --  -- -- -- -- -- -- -- --
0480:                                            37 54                7T
0490: 80 55 80 56 80 41 80 80  F8 FF FF 7F 00           .U.V.A.......   
```

#### Opcodes

```
  0: 0x048E [0x37] UPDATE_EVENT_POSITION_AND_DIR: x=-602.007*, z=587.764*, y=0.268*, direction=25.0°*
  1: 0x0497 [0x80] LOAD_WAIT(entity=EventEntity)
  2: 0x049C [0x00] END_REQSTACK()
```
