# 17764428

## Common Data

| Field            | Value                    |
|------------------|--------------------------|
| Zone             | Windurst Woods (ID: 241) |
| Block Size       | 1380 bytes               |
| Total Events     | 26                       |
| References Count | 123                      |

## List of Events

| Event ID                   | Entrypoint   |   Size |   Instructions |
|----------------------------|--------------|--------|----------------|
| [65535](#event-65535)      | 0x0000       |      1 |              1 |
| [746](#event-746)          | 0x0001       |      1 |              1 |
| [742](#event-742)          | 0x0002       |      1 |              1 |
| [65535.1](#event-655351)   | 0x0003       |     15 |              2 |
| [65535.2](#event-655352)   | 0x0012       |     11 |              3 |
| [65535.3](#event-655353)   | 0x001D       |     10 |              2 |
| [65535.4](#event-655354)   | 0x0027       |    131 |             26 |
| [65535.5](#event-655355)   | 0x00AA       |    131 |             26 |
| [65535.6](#event-655356)   | 0x012D       |     10 |              2 |
| [65535.7](#event-655357)   | 0x0137       |     14 |              4 |
| [65535.8](#event-655358)   | 0x0145       |     11 |              3 |
| [65535.9](#event-655359)   | 0x0150       |     11 |              3 |
| [65535.10](#event-6553510) | 0x015B       |     11 |              3 |
| [65535.11](#event-6553511) | 0x0166       |     14 |              4 |
| [65535.12](#event-6553512) | 0x0174       |     10 |              2 |
| [776](#event-776)          | 0x017E       |      1 |              1 |
| [65535.13](#event-6553513) | 0x017F       |     15 |              3 |
| [65535.14](#event-6553514) | 0x018E       |     48 |             11 |
| [65535.15](#event-6553515) | 0x01BE       |      6 |              2 |
| [65535.16](#event-6553516) | 0x01C4       |     20 |              4 |
| [65535.17](#event-6553517) | 0x01D8       |     80 |             18 |
| [65535.18](#event-6553518) | 0x0228       |     67 |             15 |
| [65535.19](#event-6553519) | 0x026B       |     14 |              4 |
| [65535.20](#event-6553520) | 0x0279       |     51 |             11 |
| [65535.21](#event-6553521) | 0x02AC       |     15 |              3 |
| [65535.22](#event-6553522) | 0x02BB       |     69 |             15 |

## DAT References (imed_data)

|   Index | Hex Value   |   Dec Value |
|---------|-------------|-------------|
|       0 | 0x0000      |           0 |
|       1 | 0x1EC63     |      126051 |
|       2 | 0xFFFE75F9  |  4294866425 |
|       3 | 0xFFFFEC78  |  4294962296 |
|       4 | 0x02C9      |         713 |
|       5 | 0x0046      |          70 |
|       6 | 0x1F133     |      127283 |
|       7 | 0xFFFE6C8E  |  4294864014 |
|       8 | 0x1EA21     |      125473 |
|       9 | 0xFFFE6447  |  4294861895 |
|      10 | 0x1E0C1     |      123073 |
|      11 | 0xFFFE59DF  |  4294859231 |
|      12 | 0x1E499     |      124057 |
|      13 | 0xFFFE5044  |  4294856772 |
|      14 | 0x1ED76     |      126326 |
|      15 | 0xFFFE5055  |  4294856789 |
|      16 | 0x1F4D1     |      128209 |
|      17 | 0xFFFE5989  |  4294859145 |
|      18 | 0x1EAE7     |      125671 |
|      19 | 0xFFFE622D  |  4294861357 |
|      20 | 0x1DC90     |      122000 |
|      21 | 0xFFFE69C0  |  4294863296 |
|      22 | 0x1E1D1     |      123345 |
|      23 | 0xFFFE7448  |  4294865992 |
|      24 | 0x1DF80     |      122752 |
|      25 | 0xFFFE4108  |  4294852872 |
|      26 | 0xFFFFEC79  |  4294962297 |
|      27 | 0x0BE2      |        3042 |
|      28 | 0x1E003     |      122883 |
|      29 | 0xFFFE4407  |  4294853639 |
|      30 | 0x1E0A8     |      123048 |
|      31 | 0xFFFE47E2  |  4294854626 |
|      32 | 0x1E144     |      123204 |
|      33 | 0xFFFE4BBD  |  4294855613 |
|      34 | 0x1E242     |      123458 |
|      35 | 0xFFFE51A6  |  4294857126 |
|      36 | 0x1FC6E     |      130158 |
|      37 | 0xFFFE4DFC  |  4294856188 |
|      38 | 0xFFFD16DC  |  4294776540 |
|      39 | 0xFFFA5BDC  |  4294597596 |
|      40 | 0xFFFFFF25  |  4294967077 |
|      41 | 0x0B00      |        2816 |
|      42 | 0xFFF6CD3D  |  4294364477 |
|      43 | 0x92D67     |      601447 |
|      44 | 0x0183      |         387 |
|      45 | 0x0002      |           2 |
|      46 | 0x000F      |          15 |
|      47 | 0xFFF6C5BB  |  4294362555 |
|      48 | 0x934CA     |      603338 |
|      49 | 0x0023      |          35 |
|      50 | 0xFFF6D3C5  |  4294366149 |
|      51 | 0x93292     |      602770 |
|      52 | 0xFFF6DF7D  |  4294369149 |
|      53 | 0x939E5     |      604645 |
|      54 | 0x001F      |          31 |
|      55 | 0x003C      |          60 |
|      56 | 0xFFF6D7C0  |  4294367168 |
|      57 | 0x8EF6A     |      585578 |
|      58 | 0x0274      |         628 |
|      59 | 0x011C      |         284 |
|      60 | 0xFFF6D0CA  |  4294365386 |
|      61 | 0x8F7DF     |      587743 |
|      62 | 0x0112      |         274 |
|      63 | 0xFFF6D779  |  4294367097 |
|      64 | 0x8FCC2     |      588994 |
|      65 | 0x015B      |         347 |
|      66 | 0xFFF6DB55  |  4294368085 |
|      67 | 0x8F169     |      586089 |
|      68 | 0x024A      |         586 |
|      69 | 0xFFF6DAA1  |  4294367905 |
|      70 | 0x8E6CF     |      583375 |
|      71 | 0x033E      |         830 |
|      72 | 0x001E      |          30 |
|      73 | 0x0C58      |        3160 |
|      74 | 0x0078      |         120 |
|      75 | 0xFFF6D069  |  4294365289 |
|      76 | 0x8F7F4     |      587764 |
|      77 | 0x010C      |         268 |
|      78 | 0x0154      |         340 |
|      79 | 0x002D      |          45 |
|      80 | 0xFFF6DB01  |  4294368001 |
|      81 | 0x90356     |      590678 |
|      82 | 0x0108      |         264 |
|      83 | 0x03BF      |         959 |
|      84 | 0xFFF6C73F  |  4294362943 |
|      85 | 0x8F234     |      586292 |
|      86 | 0x008A      |         138 |
|      87 | 0x0025      |          37 |
|      88 | 0x00F0      |         240 |
|      89 | 0xFFF6D6F8  |  4294366968 |
|      90 | 0x8E30A     |      582410 |
|      91 | 0x0322      |         802 |
|      92 | 0x0BD3      |        3027 |
|      93 | 0xFFF6DB94  |  4294368148 |
|      94 | 0x8FCF3     |      589043 |
|      95 | 0x0159      |         345 |
|      96 | 0xFFF6C79F  |  4294363039 |
|      97 | 0x8F34D     |      586573 |
|      98 | 0x0039      |          57 |
|      99 | 0xFFF6CB4A  |  4294363978 |
|     100 | 0x8FAEF     |      588527 |
|     101 | 0x00C4      |         196 |
|     102 | 0xFFF6D269  |  4294365801 |
|     103 | 0x8F138     |      586040 |
|     104 | 0x01F0      |         496 |
|     105 | 0xFFF6CEAA  |  4294364842 |
|     106 | 0x8FA2D     |      588333 |
|     107 | 0x00F7      |         247 |
|     108 | 0xFFF6CA0E  |  4294363662 |
|     109 | 0x8EFB9     |      585657 |
|     110 | 0x0090      |         144 |
|     111 | 0xFFF6CECB  |  4294364875 |
|     112 | 0x8E418     |      582680 |
|     113 | 0x018C      |         396 |
|     114 | 0xFFF6DB79  |  4294368121 |
|     115 | 0x8E4F3     |      582899 |
|     116 | 0x0356      |         854 |
|     117 | 0xFFF6DE60  |  4294368864 |
|     118 | 0x8F7D9     |      587737 |
|     119 | 0x019A      |         410 |
|     120 | 0xFFF6D8AE  |  4294367406 |
|     121 | 0x8FE78     |      589432 |
|     122 | 0x0146      |         326 |

## Events

### Event 65535

#### Metadata

| Field        | Value   |
|--------------|---------|
| Entrypoint   | 0x0000  |
| Data Size    | 1 bytes |
| Instructions | 1       |

```
      00 01 02 03 04 05 06 07  08 09 0A 0B 0C 0D 0E 0F
      -- -- -- -- -- -- -- --  -- -- -- -- -- -- -- --
0000: 00                                                .               
```

#### Opcodes

```
  0: 0x0000 [0x00] END_REQSTACK()
```

### Event 746

#### Metadata

| Field        | Value   |
|--------------|---------|
| Entrypoint   | 0x0001  |
| Data Size    | 1 bytes |
| Instructions | 1       |

```
      00 01 02 03 04 05 06 07  08 09 0A 0B 0C 0D 0E 0F
      -- -- -- -- -- -- -- --  -- -- -- -- -- -- -- --
0000:    00                                              .              
```

#### Opcodes

```
  0: 0x0001 [0x00] END_REQSTACK()
```

### Event 742

#### Metadata

| Field        | Value   |
|--------------|---------|
| Entrypoint   | 0x0002  |
| Data Size    | 1 bytes |
| Instructions | 1       |

```
      00 01 02 03 04 05 06 07  08 09 0A 0B 0C 0D 0E 0F
      -- -- -- -- -- -- -- --  -- -- -- -- -- -- -- --
0000:       00                                            .             
```

#### Opcodes

```
  0: 0x0002 [0x00] END_REQSTACK()
```

### Event 65535.1

#### Metadata

| Field        | Value    |
|--------------|----------|
| Entrypoint   | 0x0003   |
| Data Size    | 15 bytes |
| Instructions | 2        |

```
      00 01 02 03 04 05 06 07  08 09 0A 0B 0C 0D 0E 0F
      -- -- -- -- -- -- -- --  -- -- -- -- -- -- -- --
0000:          B6 0D 04 10 05  10 06 10 07 10 08 10 09     .............
0010: 10 00                                             ..              
```

#### Opcodes

```
  0: 0x0003 [0xB6] ENTITY_APPEARANCE_HANDLER(case=Look with Render flags, race=Work_Zone[4], face=Work_Zone[5], head=Work_Zone[6], body=Work_Zone[7], hands=Work_Zone[8], render_flags=0x1009)
  1: 0x0011 [0x00] END_REQSTACK()
```

### Event 65535.2

#### Metadata

| Field        | Value    |
|--------------|----------|
| Entrypoint   | 0x0012   |
| Data Size    | 11 bytes |
| Instructions | 3        |

```
      00 01 02 03 04 05 06 07  08 09 0A 0B 0C 0D 0E 0F
      -- -- -- -- -- -- -- --  -- -- -- -- -- -- -- --
0010:       B4 01 00 00 00 80  B5 00 00 00 00             ...........   
```

#### Opcodes

```
  0: 0x0012 [0xB4] UI_WINDOW_STRING_HANDLER(case=0x01 - Copy string from event strings table, work_offset=ExtData[1]->WorkLocal[0], string_index=0*)
  1: 0x0018 [0xB5] SET_EVENT_ENTITY_NAME: Change EventEntity name to ExtData[1]->WorkLocal[0]
  2: 0x001C [0x00] END_REQSTACK()
```

### Event 65535.3

#### Metadata

| Field        | Value    |
|--------------|----------|
| Entrypoint   | 0x001D   |
| Data Size    | 10 bytes |
| Instructions | 2        |

```
      00 01 02 03 04 05 06 07  08 09 0A 0B 0C 0D 0E 0F
      -- -- -- -- -- -- -- --  -- -- -- -- -- -- -- --
0010:                                         37 01 80               7..
0020: 02 80 03 80 04 80 00                              .......         
```

#### Opcodes

```
  0: 0x001D [0x37] UPDATE_EVENT_POSITION_AND_DIR: x=126.051*, z=-100.871*, y=-5.000*, direction=62.7°*
  1: 0x0026 [0x00] END_REQSTACK()
```

### Event 65535.4

#### Metadata

| Field        | Value     |
|--------------|-----------|
| Entrypoint   | 0x0027    |
| Data Size    | 131 bytes |
| Instructions | 26        |

```
      00 01 02 03 04 05 06 07  08 09 0A 0B 0C 0D 0E 0F
      -- -- -- -- -- -- -- --  -- -- -- -- -- -- -- --
0020:                      32  05 80 1F 00 06 80 07 80         2........
0030: 03 80 1F 01 1F 00 08 80  09 80 03 80 1F 01 1F 00  ................
0040: 0A 80 0B 80 03 80 1F 01  1F 00 0C 80 0D 80 03 80  ................
0050: 1F 01 1F 00 0E 80 0F 80  03 80 1F 01 1F 00 10 80  ................
0060: 11 80 03 80 1F 01 1F 00  12 80 13 80 03 80 1F 01  ................
0070: 1F 00 14 80 15 80 03 80  1F 01 1F 00 16 80 17 80  ................
0080: 03 80 1F 01 1F 00 01 80  02 80 03 80 1F 01 02 4D  ...............M
0090: 10 00 80 00 A0 00 27 05  4C 10 0F 01 07 01 A9 00  ......'.L.......
00A0: 37 00 80 00 80 00 80 00  80 00                    7.........      
```

#### Opcodes

```
  0: 0x0027 [0x32] ExtData[1]->MainSpeed = 70* * 0.1
  1: 0x002A [0x1F] MOVE_ENTITY: EventEntity moves to X=127.283*, Z=-103.282*, Y=-5.000*
  2: 0x0032 [0x1F] MOVE_ENTITY: Update entity position (mode=1)
  3: 0x0034 [0x1F] MOVE_ENTITY: EventEntity moves to X=125.473*, Z=-105.401*, Y=-5.000*
  4: 0x003C [0x1F] MOVE_ENTITY: Update entity position (mode=1)
  5: 0x003E [0x1F] MOVE_ENTITY: EventEntity moves to X=123.073*, Z=-108.065*, Y=-5.000*
  6: 0x0046 [0x1F] MOVE_ENTITY: Update entity position (mode=1)
  7: 0x0048 [0x1F] MOVE_ENTITY: EventEntity moves to X=124.057*, Z=-110.524*, Y=-5.000*
  8: 0x0050 [0x1F] MOVE_ENTITY: Update entity position (mode=1)
  9: 0x0052 [0x1F] MOVE_ENTITY: EventEntity moves to X=126.326*, Z=-110.507*, Y=-5.000*
 10: 0x005A [0x1F] MOVE_ENTITY: Update entity position (mode=1)
 11: 0x005C [0x1F] MOVE_ENTITY: EventEntity moves to X=128.209*, Z=-108.151*, Y=-5.000*
 12: 0x0064 [0x1F] MOVE_ENTITY: Update entity position (mode=1)
 13: 0x0066 [0x1F] MOVE_ENTITY: EventEntity moves to X=125.671*, Z=-105.939*, Y=-5.000*
 14: 0x006E [0x1F] MOVE_ENTITY: Update entity position (mode=1)
 15: 0x0070 [0x1F] MOVE_ENTITY: EventEntity moves to X=122.000*, Z=-104.000*, Y=-5.000*
 16: 0x0078 [0x1F] MOVE_ENTITY: Update entity position (mode=1)
 17: 0x007A [0x1F] MOVE_ENTITY: EventEntity moves to X=123.345*, Z=-101.304*, Y=-5.000*
 18: 0x0082 [0x1F] MOVE_ENTITY: Update entity position (mode=1)
 19: 0x0084 [0x1F] MOVE_ENTITY: EventEntity moves to X=126.051*, Z=-100.871*, Y=-5.000*
 20: 0x008C [0x1F] MOVE_ENTITY: Update entity position (mode=1)
 21: 0x008E [0x02] IF !(Work_Zone[77] == 0*) GOTO 0x00A0
 22: 0x0096 [0x27] REQ_SET(priority=0x05, entity_id=Unnamed NPC (ID: 17764428/0x010F104C), tag_num=0x07)
 23: 0x009D [0x01] GOTO 0x00A9
 24: 0x00A0 [0x37] UPDATE_EVENT_POSITION_AND_DIR: x=0.000*, z=0.000*, y=0.000*, direction=0.0°*

SUBROUTINE_00A9:
 25: 0x00A9 [0x00] END_REQSTACK()
```

### Event 65535.5

#### Metadata

| Field        | Value     |
|--------------|-----------|
| Entrypoint   | 0x00AA    |
| Data Size    | 131 bytes |
| Instructions | 26        |

```
      00 01 02 03 04 05 06 07  08 09 0A 0B 0C 0D 0E 0F
      -- -- -- -- -- -- -- --  -- -- -- -- -- -- -- --
00A0:                                32 05 80 1F 00 06            2.....
00B0: 80 07 80 03 80 1F 01 1F  00 08 80 09 80 03 80 1F  ................
00C0: 01 1F 00 0A 80 0B 80 03  80 1F 01 1F 00 0C 80 0D  ................
00D0: 80 03 80 1F 01 1F 00 0E  80 0F 80 03 80 1F 01 1F  ................
00E0: 00 10 80 11 80 03 80 1F  01 1F 00 12 80 13 80 03  ................
00F0: 80 1F 01 1F 00 14 80 15  80 03 80 1F 01 1F 00 16  ................
0100: 80 17 80 03 80 1F 01 1F  00 01 80 02 80 03 80 1F  ................
0110: 01 02 4D 10 00 80 00 23  01 27 05 4C 10 0F 01 06  ..M....#.'.L....
0120: 01 2C 01 37 00 80 00 80  00 80 00 80 00           .,.7.........   
```

#### Opcodes

```
  0: 0x00AA [0x32] ExtData[1]->MainSpeed = 70* * 0.1
  1: 0x00AD [0x1F] MOVE_ENTITY: EventEntity moves to X=127.283*, Z=-103.282*, Y=-5.000*
  2: 0x00B5 [0x1F] MOVE_ENTITY: Update entity position (mode=1)
  3: 0x00B7 [0x1F] MOVE_ENTITY: EventEntity moves to X=125.473*, Z=-105.401*, Y=-5.000*
  4: 0x00BF [0x1F] MOVE_ENTITY: Update entity position (mode=1)
  5: 0x00C1 [0x1F] MOVE_ENTITY: EventEntity moves to X=123.073*, Z=-108.065*, Y=-5.000*
  6: 0x00C9 [0x1F] MOVE_ENTITY: Update entity position (mode=1)
  7: 0x00CB [0x1F] MOVE_ENTITY: EventEntity moves to X=124.057*, Z=-110.524*, Y=-5.000*
  8: 0x00D3 [0x1F] MOVE_ENTITY: Update entity position (mode=1)
  9: 0x00D5 [0x1F] MOVE_ENTITY: EventEntity moves to X=126.326*, Z=-110.507*, Y=-5.000*
 10: 0x00DD [0x1F] MOVE_ENTITY: Update entity position (mode=1)
 11: 0x00DF [0x1F] MOVE_ENTITY: EventEntity moves to X=128.209*, Z=-108.151*, Y=-5.000*
 12: 0x00E7 [0x1F] MOVE_ENTITY: Update entity position (mode=1)
 13: 0x00E9 [0x1F] MOVE_ENTITY: EventEntity moves to X=125.671*, Z=-105.939*, Y=-5.000*
 14: 0x00F1 [0x1F] MOVE_ENTITY: Update entity position (mode=1)
 15: 0x00F3 [0x1F] MOVE_ENTITY: EventEntity moves to X=122.000*, Z=-104.000*, Y=-5.000*
 16: 0x00FB [0x1F] MOVE_ENTITY: Update entity position (mode=1)
 17: 0x00FD [0x1F] MOVE_ENTITY: EventEntity moves to X=123.345*, Z=-101.304*, Y=-5.000*
 18: 0x0105 [0x1F] MOVE_ENTITY: Update entity position (mode=1)
 19: 0x0107 [0x1F] MOVE_ENTITY: EventEntity moves to X=126.051*, Z=-100.871*, Y=-5.000*
 20: 0x010F [0x1F] MOVE_ENTITY: Update entity position (mode=1)
 21: 0x0111 [0x02] IF !(Work_Zone[77] == 0*) GOTO 0x0123
 22: 0x0119 [0x27] REQ_SET(priority=0x05, entity_id=Unnamed NPC (ID: 17764428/0x010F104C), tag_num=0x06)
 23: 0x0120 [0x01] GOTO 0x012C
 24: 0x0123 [0x37] UPDATE_EVENT_POSITION_AND_DIR: x=0.000*, z=0.000*, y=0.000*, direction=0.0°*

SUBROUTINE_012C:
 25: 0x012C [0x00] END_REQSTACK()
```

### Event 65535.6

#### Metadata

| Field        | Value    |
|--------------|----------|
| Entrypoint   | 0x012D   |
| Data Size    | 10 bytes |
| Instructions | 2        |

```
      00 01 02 03 04 05 06 07  08 09 0A 0B 0C 0D 0E 0F
      -- -- -- -- -- -- -- --  -- -- -- -- -- -- -- --
0120:                                         37 18 80               7..
0130: 19 80 1A 80 1B 80 00                              .......         
```

#### Opcodes

```
  0: 0x012D [0x37] UPDATE_EVENT_POSITION_AND_DIR: x=122.752*, z=-114.424*, y=-4.999*, direction=267.4°*
  1: 0x0136 [0x00] END_REQSTACK()
```

### Event 65535.7

#### Metadata

| Field        | Value    |
|--------------|----------|
| Entrypoint   | 0x0137   |
| Data Size    | 14 bytes |
| Instructions | 4        |

```
      00 01 02 03 04 05 06 07  08 09 0A 0B 0C 0D 0E 0F
      -- -- -- -- -- -- -- --  -- -- -- -- -- -- -- --
0130:                      32  05 80 1F 00 1C 80 1D 80         2........
0140: 1A 80 1F 01 00                                    .....           
```

#### Opcodes

```
  0: 0x0137 [0x32] ExtData[1]->MainSpeed = 70* * 0.1
  1: 0x013A [0x1F] MOVE_ENTITY: EventEntity moves to X=122.883*, Z=-113.657*, Y=-4.999*
  2: 0x0142 [0x1F] MOVE_ENTITY: Update entity position (mode=1)
  3: 0x0144 [0x00] END_REQSTACK()
```

### Event 65535.8

#### Metadata

| Field        | Value    |
|--------------|----------|
| Entrypoint   | 0x0145   |
| Data Size    | 11 bytes |
| Instructions | 3        |

```
      00 01 02 03 04 05 06 07  08 09 0A 0B 0C 0D 0E 0F
      -- -- -- -- -- -- -- --  -- -- -- -- -- -- -- --
0140:                1F 00 1E  80 1F 80 1A 80 1F 01 00       ...........
```

#### Opcodes

```
  0: 0x0145 [0x1F] MOVE_ENTITY: EventEntity moves to X=123.048*, Z=-112.670*, Y=-4.999*
  1: 0x014D [0x1F] MOVE_ENTITY: Update entity position (mode=1)
  2: 0x014F [0x00] END_REQSTACK()
```

### Event 65535.9

#### Metadata

| Field        | Value    |
|--------------|----------|
| Entrypoint   | 0x0150   |
| Data Size    | 11 bytes |
| Instructions | 3        |

```
      00 01 02 03 04 05 06 07  08 09 0A 0B 0C 0D 0E 0F
      -- -- -- -- -- -- -- --  -- -- -- -- -- -- -- --
0150: 1F 00 20 80 21 80 1A 80  1F 01 00                 .. .!......     
```

#### Opcodes

```
  0: 0x0150 [0x1F] MOVE_ENTITY: EventEntity moves to X=123.204*, Z=-111.683*, Y=-4.999*
  1: 0x0158 [0x1F] MOVE_ENTITY: Update entity position (mode=1)
  2: 0x015A [0x00] END_REQSTACK()
```

### Event 65535.10

#### Metadata

| Field        | Value    |
|--------------|----------|
| Entrypoint   | 0x015B   |
| Data Size    | 11 bytes |
| Instructions | 3        |

```
      00 01 02 03 04 05 06 07  08 09 0A 0B 0C 0D 0E 0F
      -- -- -- -- -- -- -- --  -- -- -- -- -- -- -- --
0150:                                   1F 00 22 80 23             ..".#
0160: 80 1A 80 1F 01 00                                 ......          
```

#### Opcodes

```
  0: 0x015B [0x1F] MOVE_ENTITY: EventEntity moves to X=123.458*, Z=-110.170*, Y=-4.999*
  1: 0x0163 [0x1F] MOVE_ENTITY: Update entity position (mode=1)
  2: 0x0165 [0x00] END_REQSTACK()
```

### Event 65535.11

#### Metadata

| Field        | Value    |
|--------------|----------|
| Entrypoint   | 0x0166   |
| Data Size    | 14 bytes |
| Instructions | 4        |

```
      00 01 02 03 04 05 06 07  08 09 0A 0B 0C 0D 0E 0F
      -- -- -- -- -- -- -- --  -- -- -- -- -- -- -- --
0160:                   32 05  80 1F 00 24 80 25 80 1A        2....$.%..
0170: 80 1F 01 00                                       ....            
```

#### Opcodes

```
  0: 0x0166 [0x32] ExtData[1]->MainSpeed = 70* * 0.1
  1: 0x0169 [0x1F] MOVE_ENTITY: EventEntity moves to X=130.158*, Z=-111.108*, Y=-4.999*
  2: 0x0171 [0x1F] MOVE_ENTITY: Update entity position (mode=1)
  3: 0x0173 [0x00] END_REQSTACK()
```

### Event 65535.12

#### Metadata

| Field        | Value    |
|--------------|----------|
| Entrypoint   | 0x0174   |
| Data Size    | 10 bytes |
| Instructions | 2        |

```
      00 01 02 03 04 05 06 07  08 09 0A 0B 0C 0D 0E 0F
      -- -- -- -- -- -- -- --  -- -- -- -- -- -- -- --
0170:             37 26 80 27  80 28 80 29 80 00            7&.'.(.)..  
```

#### Opcodes

```
  0: 0x0174 [0x37] UPDATE_EVENT_POSITION_AND_DIR: x=-190.756*, z=-369.700*, y=-0.219*, direction=247.5°*
  1: 0x017D [0x00] END_REQSTACK()
```

### Event 776

#### Metadata

| Field        | Value   |
|--------------|---------|
| Entrypoint   | 0x017E  |
| Data Size    | 1 bytes |
| Instructions | 1       |

```
      00 01 02 03 04 05 06 07  08 09 0A 0B 0C 0D 0E 0F
      -- -- -- -- -- -- -- --  -- -- -- -- -- -- -- --
0170:                                            00                   . 
```

#### Opcodes

```
  0: 0x017E [0x00] END_REQSTACK()
```

### Event 65535.13

#### Metadata

| Field        | Value    |
|--------------|----------|
| Entrypoint   | 0x017F   |
| Data Size    | 15 bytes |
| Instructions | 3        |

```
      00 01 02 03 04 05 06 07  08 09 0A 0B 0C 0D 0E 0F
      -- -- -- -- -- -- -- --  -- -- -- -- -- -- -- --
0170:                                               37                 7
0180: 2A 80 2B 80 00 80 2C 80  03 04 00 00 80 00        *.+...,.......  
```

#### Opcodes

```
  0: 0x017F [0x37] UPDATE_EVENT_POSITION_AND_DIR: x=-602.819*, z=601.447*, y=0.000*, direction=34.0°*
  1: 0x0188 [0x03] ExtData[1]->WorkLocal[4] = 0*
  2: 0x018D [0x00] END_REQSTACK()
```

### Event 65535.14

#### Metadata

| Field        | Value    |
|--------------|----------|
| Entrypoint   | 0x018E   |
| Data Size    | 48 bytes |
| Instructions | 11       |

```
      00 01 02 03 04 05 06 07  08 09 0A 0B 0C 0D 0E 0F
      -- -- -- -- -- -- -- --  -- -- -- -- -- -- -- --
0180:                                            02 04                ..
0190: 00 2D 80 01 BD 01 32 2E  80 1F 00 2F 80 30 80 31  .-....2..../.0.1
01A0: 80 1F 01 1F 00 32 80 33  80 00 80 1F 01 1F 00 34  .....2.3.......4
01B0: 80 35 80 36 80 1F 01 1C  37 80 01 8E 01 00        .5.6....7.....  
```

#### Opcodes

```
  0: 0x018E [0x02] IF !(ExtData[1]->WorkLocal[4] == 2*) GOTO 0x01BD
  1: 0x0196 [0x32] ExtData[1]->MainSpeed = 15* * 0.1
  2: 0x0199 [0x1F] MOVE_ENTITY: EventEntity moves to X=-604.741*, Z=603.338*, Y=0.035*
  3: 0x01A1 [0x1F] MOVE_ENTITY: Update entity position (mode=1)
  4: 0x01A3 [0x1F] MOVE_ENTITY: EventEntity moves to X=-601.147*, Z=602.770*, Y=0.000*
  5: 0x01AB [0x1F] MOVE_ENTITY: Update entity position (mode=1)
  6: 0x01AD [0x1F] MOVE_ENTITY: EventEntity moves to X=-598.147*, Z=604.645*, Y=0.031*
  7: 0x01B5 [0x1F] MOVE_ENTITY: Update entity position (mode=1)
  8: 0x01B7 [0x1C] WAIT(60* ticks)
  9: 0x01BA [0x01] GOTO 0x018E
 10: 0x01BD [0x00] END_REQSTACK()
```

### Event 65535.15

#### Metadata

| Field        | Value   |
|--------------|---------|
| Entrypoint   | 0x01BE  |
| Data Size    | 6 bytes |
| Instructions | 2       |

```
      00 01 02 03 04 05 06 07  08 09 0A 0B 0C 0D 0E 0F
      -- -- -- -- -- -- -- --  -- -- -- -- -- -- -- --
01B0:                                            03 04                ..
01C0: 00 2D 80 00                                       .-..            
```

#### Opcodes

```
  0: 0x01BE [0x03] ExtData[1]->WorkLocal[4] = 2*
  1: 0x01C3 [0x00] END_REQSTACK()
```

### Event 65535.16

#### Metadata

| Field        | Value    |
|--------------|----------|
| Entrypoint   | 0x01C4   |
| Data Size    | 20 bytes |
| Instructions | 4        |

```
      00 01 02 03 04 05 06 07  08 09 0A 0B 0C 0D 0E 0F
      -- -- -- -- -- -- -- --  -- -- -- -- -- -- -- --
01C0:             37 38 80 39  80 3A 80 3B 80 80 F8 FF      78.9.:.;....
01D0: FF 7F 03 04 00 00 80 00                           ........        
```

#### Opcodes

```
  0: 0x01C4 [0x37] UPDATE_EVENT_POSITION_AND_DIR: x=-600.128*, z=585.578*, y=0.628*, direction=25.0°*
  1: 0x01CD [0x80] LOAD_WAIT(entity=EventEntity)
  2: 0x01D2 [0x03] ExtData[1]->WorkLocal[4] = 0*
  3: 0x01D7 [0x00] END_REQSTACK()
```

### Event 65535.17

#### Metadata

| Field        | Value    |
|--------------|----------|
| Entrypoint   | 0x01D8   |
| Data Size    | 80 bytes |
| Instructions | 18       |

```
      00 01 02 03 04 05 06 07  08 09 0A 0B 0C 0D 0E 0F
      -- -- -- -- -- -- -- --  -- -- -- -- -- -- -- --
01D0:                          32 2E 80 1F 00 3C 80 3D          2....<.=
01E0: 80 3E 80 1F 01 1F 00 3F  80 40 80 41 80 1F 01 1F  .>.....?.@.A....
01F0: 00 42 80 43 80 44 80 1F  01 1F 00 45 80 46 80 47  .B.C.D.....E.F.G
0200: 80 1F 01 1C 48 80 4B 4C  10 0F 01 49 80 1C 4A 80  ....H.KL...I..J.
0210: 1F 00 4B 80 4C 80 4D 80  1F 01 1C 48 80 4B 4C 10  ..K.L.M....H.KL.
0220: 0F 01 4E 80 1C 48 80 00                           ..N..H..        
```

#### Opcodes

```
  0: 0x01D8 [0x32] ExtData[1]->MainSpeed = 15* * 0.1
  1: 0x01DB [0x1F] MOVE_ENTITY: EventEntity moves to X=-601.910*, Z=587.743*, Y=0.274*
  2: 0x01E3 [0x1F] MOVE_ENTITY: Update entity position (mode=1)
  3: 0x01E5 [0x1F] MOVE_ENTITY: EventEntity moves to X=-600.199*, Z=588.994*, Y=0.347*
  4: 0x01ED [0x1F] MOVE_ENTITY: Update entity position (mode=1)
  5: 0x01EF [0x1F] MOVE_ENTITY: EventEntity moves to X=-599.211*, Z=586.089*, Y=0.586*
  6: 0x01F7 [0x1F] MOVE_ENTITY: Update entity position (mode=1)
  7: 0x01F9 [0x1F] MOVE_ENTITY: EventEntity moves to X=-599.391*, Z=583.375*, Y=0.830*
  8: 0x0201 [0x1F] MOVE_ENTITY: Update entity position (mode=1)
  9: 0x0203 [0x1C] WAIT(30* ticks)
 10: 0x0206 [0x4B] UPDATE_ENTITY_YAW(entity=Unnamed NPC (ID: 17764428/0x010F104C), yaw=17.4°*)
 11: 0x020D [0x1C] WAIT(120* ticks)
 12: 0x0210 [0x1F] MOVE_ENTITY: EventEntity moves to X=-602.007*, Z=587.764*, Y=0.268*
 13: 0x0218 [0x1F] MOVE_ENTITY: Update entity position (mode=1)
 14: 0x021A [0x1C] WAIT(30* ticks)
 15: 0x021D [0x4B] UPDATE_ENTITY_YAW(entity=Unnamed NPC (ID: 17764428/0x010F104C), yaw=1.9°*)
 16: 0x0224 [0x1C] WAIT(30* ticks)
 17: 0x0227 [0x00] END_REQSTACK()
```

### Event 65535.18

#### Metadata

| Field        | Value    |
|--------------|----------|
| Entrypoint   | 0x0228   |
| Data Size    | 67 bytes |
| Instructions | 15       |

```
      00 01 02 03 04 05 06 07  08 09 0A 0B 0C 0D 0E 0F
      -- -- -- -- -- -- -- --  -- -- -- -- -- -- -- --
0220:                          32 4F 80 1F 00 50 80 51          2O...P.Q
0230: 80 52 80 1F 01 4B 4C 10  0F 01 53 80 1C 37 80 1F  .R...KL...S..7..
0240: 00 54 80 55 80 56 80 1F  01 4B 4C 10 0F 01 57 80  .T.U.V...KL...W.
0250: 1C 58 80 1F 00 59 80 5A  80 5B 80 1F 01 1C 48 80  .X...Y.Z.[....H.
0260: 4B 4C 10 0F 01 5C 80 1C  37 80 00                 KL...\..7..     
```

#### Opcodes

```
  0: 0x0228 [0x32] ExtData[1]->MainSpeed = 45* * 0.1
  1: 0x022B [0x1F] MOVE_ENTITY: EventEntity moves to X=-599.295*, Z=590.678*, Y=0.264*
  2: 0x0233 [0x1F] MOVE_ENTITY: Update entity position (mode=1)
  3: 0x0235 [0x4B] UPDATE_ENTITY_YAW(entity=Unnamed NPC (ID: 17764428/0x010F104C), yaw=5.3°*)
  4: 0x023C [0x1C] WAIT(60* ticks)
  5: 0x023F [0x1F] MOVE_ENTITY: EventEntity moves to X=-604.353*, Z=586.292*, Y=0.138*
  6: 0x0247 [0x1F] MOVE_ENTITY: Update entity position (mode=1)
  7: 0x0249 [0x4B] UPDATE_ENTITY_YAW(entity=Unnamed NPC (ID: 17764428/0x010F104C), yaw=0.2°*)
  8: 0x0250 [0x1C] WAIT(240* ticks)
  9: 0x0253 [0x1F] MOVE_ENTITY: EventEntity moves to X=-600.328*, Z=582.410*, Y=0.802*
 10: 0x025B [0x1F] MOVE_ENTITY: Update entity position (mode=1)
 11: 0x025D [0x1C] WAIT(30* ticks)
 12: 0x0260 [0x4B] UPDATE_ENTITY_YAW(entity=Unnamed NPC (ID: 17764428/0x010F104C), yaw=16.6°*)
 13: 0x0267 [0x1C] WAIT(60* ticks)
 14: 0x026A [0x00] END_REQSTACK()
```

### Event 65535.19

#### Metadata

| Field        | Value    |
|--------------|----------|
| Entrypoint   | 0x026B   |
| Data Size    | 14 bytes |
| Instructions | 4        |

```
      00 01 02 03 04 05 06 07  08 09 0A 0B 0C 0D 0E 0F
      -- -- -- -- -- -- -- --  -- -- -- -- -- -- -- --
0260:                                   32 4F 80 1F 00             2O...
0270: 5D 80 5E 80 5F 80 1F 01  00                       ].^._....       
```

#### Opcodes

```
  0: 0x026B [0x32] ExtData[1]->MainSpeed = 45* * 0.1
  1: 0x026E [0x1F] MOVE_ENTITY: EventEntity moves to X=-599.148*, Z=589.043*, Y=0.345*
  2: 0x0276 [0x1F] MOVE_ENTITY: Update entity position (mode=1)
  3: 0x0278 [0x00] END_REQSTACK()
```

### Event 65535.20

#### Metadata

| Field        | Value    |
|--------------|----------|
| Entrypoint   | 0x0279   |
| Data Size    | 51 bytes |
| Instructions | 11       |

```
      00 01 02 03 04 05 06 07  08 09 0A 0B 0C 0D 0E 0F
      -- -- -- -- -- -- -- --  -- -- -- -- -- -- -- --
0270:                             32 4F 80 1F 00 60 80           2O...`.
0280: 61 80 62 80 1F 01 1F 00  63 80 64 80 65 80 1F 01  a.b.....c.d.e...
0290: 1F 00 66 80 67 80 68 80  1F 01 1E 4A 10 0F 01 1C  ..f.g.h....J....
02A0: 48 80 4A 4A 10 0F 01 4C  10 0F 01 00              H.JJ...L....    
```

#### Opcodes

```
  0: 0x0279 [0x32] ExtData[1]->MainSpeed = 45* * 0.1
  1: 0x027C [0x1F] MOVE_ENTITY: EventEntity moves to X=-604.257*, Z=586.573*, Y=0.057*
  2: 0x0284 [0x1F] MOVE_ENTITY: Update entity position (mode=1)
  3: 0x0286 [0x1F] MOVE_ENTITY: EventEntity moves to X=-603.318*, Z=588.527*, Y=0.196*
  4: 0x028E [0x1F] MOVE_ENTITY: Update entity position (mode=1)
  5: 0x0290 [0x1F] MOVE_ENTITY: EventEntity moves to X=-601.495*, Z=586.040*, Y=0.496*
  6: 0x0298 [0x1F] MOVE_ENTITY: Update entity position (mode=1)
  7: 0x029A [0x1E] EventEntity looks at Unnamed NPC (ID: 17764426/0x010F104A) and starts talking
  8: 0x029F [0x1C] WAIT(30* ticks)
  9: 0x02A2 [0x4A] Unnamed NPC (ID: 17764426/0x010F104A) looks at Unnamed NPC (ID: 17764428/0x010F104C)
 10: 0x02AB [0x00] END_REQSTACK()
```

### Event 65535.21

#### Metadata

| Field        | Value    |
|--------------|----------|
| Entrypoint   | 0x02AC   |
| Data Size    | 15 bytes |
| Instructions | 3        |

```
      00 01 02 03 04 05 06 07  08 09 0A 0B 0C 0D 0E 0F
      -- -- -- -- -- -- -- --  -- -- -- -- -- -- -- --
02A0:                                      37 4B 80 4C              7K.L
02B0: 80 4D 80 3B 80 80 F8 FF  FF 7F 00                 .M.;.......     
```

#### Opcodes

```
  0: 0x02AC [0x37] UPDATE_EVENT_POSITION_AND_DIR: x=-602.007*, z=587.764*, y=0.268*, direction=25.0°*
  1: 0x02B5 [0x80] LOAD_WAIT(entity=EventEntity)
  2: 0x02BA [0x00] END_REQSTACK()
```

### Event 65535.22

#### Metadata

| Field        | Value    |
|--------------|----------|
| Entrypoint   | 0x02BB   |
| Data Size    | 69 bytes |
| Instructions | 15       |

```
      00 01 02 03 04 05 06 07  08 09 0A 0B 0C 0D 0E 0F
      -- -- -- -- -- -- -- --  -- -- -- -- -- -- -- --
02B0:                                   32 4F 80 1F 00             2O...
02C0: 69 80 6A 80 6B 80 1F 01  1F 00 6C 80 6D 80 6E 80  i.j.k.....l.m.n.
02D0: 1F 01 1F 00 6F 80 70 80  71 80 1F 01 1F 00 72 80  ....o.p.q.....r.
02E0: 73 80 74 80 1F 01 1F 00  75 80 76 80 77 80 1F 01  s.t.....u.v.w...
02F0: 1F 00 78 80 79 80 7A 80  1F 01 1E 4A 10 0F 01 00  ..x.y.z....J....
```

#### Opcodes

```
  0: 0x02BB [0x32] ExtData[1]->MainSpeed = 45* * 0.1
  1: 0x02BE [0x1F] MOVE_ENTITY: EventEntity moves to X=-602.454*, Z=588.333*, Y=0.247*
  2: 0x02C6 [0x1F] MOVE_ENTITY: Update entity position (mode=1)
  3: 0x02C8 [0x1F] MOVE_ENTITY: EventEntity moves to X=-603.634*, Z=585.657*, Y=0.144*
  4: 0x02D0 [0x1F] MOVE_ENTITY: Update entity position (mode=1)
  5: 0x02D2 [0x1F] MOVE_ENTITY: EventEntity moves to X=-602.421*, Z=582.680*, Y=0.396*
  6: 0x02DA [0x1F] MOVE_ENTITY: Update entity position (mode=1)
  7: 0x02DC [0x1F] MOVE_ENTITY: EventEntity moves to X=-599.175*, Z=582.899*, Y=0.854*
  8: 0x02E4 [0x1F] MOVE_ENTITY: Update entity position (mode=1)
  9: 0x02E6 [0x1F] MOVE_ENTITY: EventEntity moves to X=-598.432*, Z=587.737*, Y=0.410*
 10: 0x02EE [0x1F] MOVE_ENTITY: Update entity position (mode=1)
 11: 0x02F0 [0x1F] MOVE_ENTITY: EventEntity moves to X=-599.890*, Z=589.432*, Y=0.326*
 12: 0x02F8 [0x1F] MOVE_ENTITY: Update entity position (mode=1)
 13: 0x02FA [0x1E] EventEntity looks at Unnamed NPC (ID: 17764426/0x010F104A) and starts talking
 14: 0x02FF [0x00] END_REQSTACK()
```
