# 17764725

## Common Data

| Field            | Value                    |
|------------------|--------------------------|
| Zone             | Windurst Woods (ID: 241) |
| Block Size       | 300 bytes                |
| Total Events     | 3                        |
| References Count | 18                       |

## List of Events

| Event ID                 | Entrypoint   |   Size |   Instructions |
|--------------------------|--------------|--------|----------------|
| [65535](#event-65535)    | 0x0000       |      1 |              1 |
| [801](#event-801)        | 0x0001       |      3 |              2 |
| [65535.1](#event-655351) | 0x0004       |    196 |             36 |

## DAT References (imed_data)

|   Index | Hex Value   |   Dec Value |
|---------|-------------|-------------|
|       0 | 0x0000      |           0 |
|       1 | 0x0001      |           1 |
|       2 | 0x0078      |         120 |
|       3 | 0x0002      |           2 |
|       4 | 0x001E      |          30 |
|       5 | 0x003C      |          60 |
|       6 | 0x000F      |          15 |
|       7 | 0x000A      |          10 |
|       8 | 0x000C      |          12 |
|       9 | 0xFFFFFFCA  |  4294967242 |
|      10 | 0xFFFED290  |  4294890128 |
|      11 | 0x0BB7      |        2999 |
|      12 | 0x00E0      |         224 |
|      13 | 0xFFFFFC61  |  4294966369 |
|      14 | 0xFFFEC956  |  4294887766 |
|      15 | 0x0620      |        1568 |
|      16 | 0xFFFEE5C9  |  4294895049 |
|      17 | 0x0478      |        1144 |

## Events

### Event 65535

#### Metadata

| Field        | Value   |
|--------------|---------|
| Entrypoint   | 0x0000  |
| Data Size    | 1 bytes |
| Instructions | 1       |

```
      00 01 02 03 04 05 06 07  08 09 0A 0B 0C 0D 0E 0F
      -- -- -- -- -- -- -- --  -- -- -- -- -- -- -- --
0000: 00                                                .               
```

#### Opcodes

```
  0: 0x0000 [0x00] END_REQSTACK()
```

### Event 801

#### Metadata

| Field        | Value   |
|--------------|---------|
| Entrypoint   | 0x0001  |
| Data Size    | 3 bytes |
| Instructions | 2       |

```
      00 01 02 03 04 05 06 07  08 09 0A 0B 0C 0D 0E 0F
      -- -- -- -- -- -- -- --  -- -- -- -- -- -- -- --
0000:    61 00 00                                        a..            
```

#### Opcodes

```
  0: 0x0001 [0x61] EventEntity->Render.Flags2 &= ~0x00000001
  1: 0x0003 [0x00] END_REQSTACK()
```

### Event 65535.1

#### Metadata

| Field        | Value     |
|--------------|-----------|
| Entrypoint   | 0x0004    |
| Data Size    | 196 bytes |
| Instructions | 36        |

```
      00 01 02 03 04 05 06 07  08 09 0A 0B 0C 0D 0E 0F
      -- -- -- -- -- -- -- --  -- -- -- -- -- -- -- --
0000:             02 50 10 00  80 00 C7 00 02 56 10 01      .P.......V..
0010: 80 00 17 00 1C 02 80 13  00 00 03 80 02 58 10 00  .............X..
0020: 80 00 43 00 02 00 00 01  80 80 32 00 1C 04 80 01  ..C.......2.....
0030: 40 00 02 00 00 03 80 80  40 00 1C 05 80 01 40 00  @.......@.....@.
0040: 01 5F 00 02 00 00 01 80  80 51 00 1C 06 80 01 5F  ._.......Q....._
0050: 00 02 00 00 03 80 80 5F  00 1C 04 80 01 5F 00 27  ......._....._.'
0060: 05 73 11 0F 01 05 02 58  10 00 80 00 74 00 32 07  .s.....X....t.2.
0070: 80 01 77 00 32 08 80 1F  00 09 80 0A 80 0B 80 1F  ..w.2...........
0080: 01 02 4F 10 01 80 00 A8  00 02 52 10 00 80 00 A5  ..O.......R.....
0090: 00 5B 0C 80 74 11 0F 01  74 11 0F 01 31 30 31 31  .[..t...t...1011
00A0: 07 51 10 01 80 01 B2 00  1F 00 0D 80 0E 80 0B 80  .Q..............
00B0: 1F 01 BA 75 11 0F 01 0F  80 10 80 0B 80 11 80 80  ...u............
00C0: 75 11 0F 01 01 04 00 00                           u.......        
```

#### Opcodes

```
  0: 0x0004 [0x02] IF !(Work_Zone[80] == 0*) GOTO 0x00C7
  1: 0x000C [0x02] IF !(Work_Zone[86] == 1*) GOTO 0x0017
  2: 0x0014 [0x1C] WAIT(120* ticks)
  3: 0x0017 [0x13] ExtData[1]->WorkLocal[0] = rand() % 2*
  4: 0x001C [0x02] IF !(Work_Zone[88] == 0*) GOTO 0x0043
  5: 0x0024 [0x02] IF !(ExtData[1]->WorkLocal[0] == 1*) GOTO 0x0032
  6: 0x002C [0x1C] WAIT(30* ticks)
  7: 0x002F [0x01] GOTO 0x0040
  8: 0x0032 [0x02] IF !(ExtData[1]->WorkLocal[0] == 2*) GOTO 0x0040
  9: 0x003A [0x1C] WAIT(60* ticks)
 10: 0x003D [0x01] GOTO 0x0040

SUBROUTINE_0040:
 11: 0x0040 [0x01] GOTO 0x005F
 12: 0x0043 [0x02] IF !(ExtData[1]->WorkLocal[0] == 1*) GOTO 0x0051
 13: 0x004B [0x1C] WAIT(15* ticks)
 14: 0x004E [0x01] GOTO 0x005F
 15: 0x0051 [0x02] IF !(ExtData[1]->WorkLocal[0] == 2*) GOTO 0x005F
 16: 0x0059 [0x1C] WAIT(30* ticks)
 17: 0x005C [0x01] GOTO 0x005F

SUBROUTINE_005F:
 18: 0x005F [0x27] REQ_SET(priority=0x05, entity_id=Unnamed NPC (ID: 17764723/0x010F1173), tag_num=0x05)
 19: 0x0066 [0x02] IF !(Work_Zone[88] == 0*) GOTO 0x0074
 20: 0x006E [0x32] ExtData[1]->MainSpeed = 10* * 0.1
 21: 0x0071 [0x01] GOTO 0x0077
 22: 0x0074 [0x32] ExtData[1]->MainSpeed = 12* * 0.1

SUBROUTINE_0077:
 23: 0x0077 [0x1F] MOVE_ENTITY: EventEntity moves to X=-0.054*, Z=-77.168*, Y=2.999*
 24: 0x007F [0x1F] MOVE_ENTITY: Update entity position (mode=1)
 25: 0x0081 [0x02] IF !(Work_Zone[79] == 1*) GOTO 0x00A8
 26: 0x0089 [0x02] IF !(Work_Zone[82] == 0*) GOTO 0x00A5
 27: 0x0091 [0x5B] LOAD_EXT_SCHEDULER: Load scheduler "1011" with entities [Unnamed NPC (ID: 17764724/0x010F1174), Unnamed NPC (ID: 17764724/0x010F1174)], work=224*
 28: 0x00A0 [0x07] Work_Zone[81] += 1*
 29: 0x00A5 [0x01] GOTO 0x00B2
 30: 0x00A8 [0x1F] MOVE_ENTITY: EventEntity moves to X=-0.927*, Z=-79.530*, Y=2.999*
 31: 0x00B0 [0x1F] MOVE_ENTITY: Update entity position (mode=1)

SUBROUTINE_00B2:
 32: 0x00B2 [0xBA] SET_ENTITY_POSITION(entity_id=Unnamed NPC (ID: 17764725/0x010F1175), pos_x=1.568*, pos_z=-72.247*, pos_y=2.999*, direction=100.5°*)
 33: 0x00BF [0x80] LOAD_WAIT(entity=Unnamed NPC (ID: 17764725/0x010F1175))
 34: 0x00C4 [0x01] GOTO 0x0004
 35: 0x00C7 [0x00] END_REQSTACK()
```
