# 17764592

## Common Data

| Field            | Value                    |
|------------------|--------------------------|
| Zone             | Windurst Woods (ID: 241) |
| Block Size       | 3300 bytes               |
| Total Events     | 6                        |
| References Count | 107                      |

## List of Events

| Event ID              | Entrypoint   |   Size |   Instructions |
|-----------------------|--------------|--------|----------------|
| [65535](#event-65535) | 0x0000       |      1 |              1 |
| [768](#event-768)     | 0x0001       |   1134 |            195 |
| [769](#event-769)     | 0x046F       |    976 |            180 |
| [770](#event-770)     | 0x083F       |    112 |             22 |
| [771](#event-771)     | 0x08AF       |    541 |             98 |
| [772](#event-772)     | 0x0ACC       |     66 |             12 |

## DAT References (imed_data)

|   Index | Hex Value   |   Dec Value |
|---------|-------------|-------------|
|       0 | 0x0035      |          53 |
|       1 | 0x2E9A      |       11930 |
|       2 | 0x2E9B      |       11931 |
|       3 | 0x2E9C      |       11932 |
|       4 | 0x0032      |          50 |
|       5 | 0x2E9D      |       11933 |
|       6 | 0x2E9E      |       11934 |
|       7 | 0x2E9F      |       11935 |
|       8 | 0x2EA0      |       11936 |
|       9 | 0x2EA1      |       11937 |
|      10 | 0x2EA2      |       11938 |
|      11 | 0x2EA3      |       11939 |
|      12 | 0x2EA4      |       11940 |
|      13 | 0x2EA5      |       11941 |
|      14 | 0x2EA6      |       11942 |
|      15 | 0x2EA7      |       11943 |
|      16 | 0x2EA8      |       11944 |
|      17 | 0x2EA9      |       11945 |
|      18 | 0x2EAA      |       11946 |
|      19 | 0x2EAB      |       11947 |
|      20 | 0x0000      |           0 |
|      21 | 0x2EAC      |       11948 |
|      22 | 0x0001      |           1 |
|      23 | 0x2EAE      |       11950 |
|      24 | 0x2EB2      |       11954 |
|      25 | 0x1535      |        5429 |
|      26 | 0x0353      |         851 |
|      27 | 0x0354      |         852 |
|      28 | 0x2EB3      |       11955 |
|      29 | 0x2EB4      |       11956 |
|      30 | 0x2EB5      |       11957 |
|      31 | 0x2EB6      |       11958 |
|      32 | 0x2EB8      |       11960 |
|      33 | 0x2EB9      |       11961 |
|      34 | 0x2EBA      |       11962 |
|      35 | 0x2EBB      |       11963 |
|      36 | 0x2EBC      |       11964 |
|      37 | 0x0002      |           2 |
|      38 | 0x2EBD      |       11965 |
|      39 | 0x2EBE      |       11966 |
|      40 | 0x2EBF      |       11967 |
|      41 | 0x2EC0      |       11968 |
|      42 | 0x2EC1      |       11969 |
|      43 | 0x2EC2      |       11970 |
|      44 | 0x2EC3      |       11971 |
|      45 | 0x2EC4      |       11972 |
|      46 | 0x2EC5      |       11973 |
|      47 | 0x0004      |           4 |
|      48 | 0x0003      |           3 |
|      49 | 0x2EC6      |       11974 |
|      50 | 0x2EC7      |       11975 |
|      51 | 0x2EC8      |       11976 |
|      52 | 0x2EC9      |       11977 |
|      53 | 0x0008      |           8 |
|      54 | 0x2ECA      |       11978 |
|      55 | 0x2ECB      |       11979 |
|      56 | 0x2ECC      |       11980 |
|      57 | 0x2ECD      |       11981 |
|      58 | 0x2ECE      |       11982 |
|      59 | 0x2ECF      |       11983 |
|      60 | 0x0010      |          16 |
|      61 | 0x001F      |          31 |
|      62 | 0x2ED0      |       11984 |
|      63 | 0x2ED1      |       11985 |
|      64 | 0x2ED2      |       11986 |
|      65 | 0x2ED3      |       11987 |
|      66 | 0x2ED4      |       11988 |
|      67 | 0x2ED5      |       11989 |
|      68 | 0x2ED6      |       11990 |
|      69 | 0x2ED7      |       11991 |
|      70 | 0x0181      |         385 |
|      71 | 0x0182      |         386 |
|      72 | 0x0183      |         387 |
|      73 | 0x2EAF      |       11951 |
|      74 | 0x2EB0      |       11952 |
|      75 | 0x2EB1      |       11953 |
|      76 | 0x2EAD      |       11949 |
|      77 | 0x2ED8      |       11992 |
|      78 | 0x2ED9      |       11993 |
|      79 | 0x2EDA      |       11994 |
|      80 | 0x2EE8      |       12008 |
|      81 | 0x2EEA      |       12010 |
|      82 | 0x2EEB      |       12011 |
|      83 | 0x2EEC      |       12012 |
|      84 | 0x2EEE      |       12014 |
|      85 | 0x2EDB      |       11995 |
|      86 | 0x2EE9      |       12009 |
|      87 | 0x2EED      |       12013 |
|      88 | 0x2EF0      |       12016 |
|      89 | 0x2EF1      |       12017 |
|      90 | 0x2EF4      |       12020 |
|      91 | 0x2EF5      |       12021 |
|      92 | 0x2EEF      |       12015 |
|      93 | 0x2EF2      |       12018 |
|      94 | 0x2EF3      |       12019 |
|      95 | 0x0005      |           5 |
|      96 | 0x2EE0      |       12000 |
|      97 | 0x2EE1      |       12001 |
|      98 | 0x2EE2      |       12002 |
|      99 | 0x2EE3      |       12003 |
|     100 | 0x2EDF      |       11999 |
|     101 | 0x2EDC      |       11996 |
|     102 | 0x2EDD      |       11997 |
|     103 | 0x2EDE      |       11998 |
|     104 | 0x2EE4      |       12004 |
|     105 | 0x2EE5      |       12005 |
|     106 | 0x2EE6      |       12006 |

## String References

- **11948**: Listen to your heart? [Sign me up!/After saving the world.]
- **11955**: What do you need to know? [About chocographs./About $1./About how to find the loot./About chocobo abilities./About when the game is over.]
- **11993**: So, what do you need? [A rule refresher course./Another dose of Hot and Cold./Nothing.]
- **11999**: Do you need to review the rules? [Yes./No.]

## Events

### Event 65535

#### Metadata

| Field        | Value   |
|--------------|---------|
| Entrypoint   | 0x0000  |
| Data Size    | 1 bytes |
| Instructions | 1       |

```
      00 01 02 03 04 05 06 07  08 09 0A 0B 0C 0D 0E 0F
      -- -- -- -- -- -- -- --  -- -- -- -- -- -- -- --
0000: 00                                                .               
```

#### Opcodes

```
  0: 0x0000 [0x00] END_REQSTACK()
```

### Event 768

#### Metadata

| Field        | Value      |
|--------------|------------|
| Entrypoint   | 0x0001     |
| Data Size    | 1134 bytes |
| Instructions | 194        |

```
      00 01 02 03 04 05 06 07  08 09 0A 0B 0C 0D 0E 0F
      -- -- -- -- -- -- -- --  -- -- -- -- -- -- -- --
0000:    42 4A F1 10 0F 01 F0  FF FF 7F 66 00 80 F1 10   BJ........f....
0010: 0F 01 F1 10 0F 01 74 6C  62 31 2B F1 10 0F 01 01  ......tlb1+.....
0020: 80 23 66 00 80 F1 10 0F  01 F1 10 0F 01 74 6C 62  .#f..........tlb
0030: 32 2B F1 10 0F 01 02 80  23 66 00 80 F1 10 0F 01  2+......#f......
0040: F1 10 0F 01 74 6C 62 31  2B F1 10 0F 01 03 80 23  ....tlb1+......#
0050: 66 00 80 F1 10 0F 01 F1  10 0F 01 74 6C 62 32 66  f..........tlb2f
0060: 04 80 F1 10 0F 01 F1 10  0F 01 74 68 6B 31 2B F1  ..........thk1+.
0070: 10 0F 01 05 80 23 2B F1  10 0F 01 06 80 23 2B F1  .....#+......#+.
0080: 10 0F 01 07 80 23 2B F1  10 0F 01 08 80 23 2B F1  .....#+......#+.
0090: 10 0F 01 09 80 23 66 04  80 F1 10 0F 01 F1 10 0F  .....#f.........
00A0: 01 74 68 6B 32 2B F1 10  0F 01 0A 80 23 66 00 80  .thk2+......#f..
00B0: F1 10 0F 01 F1 10 0F 01  74 6C 62 31 2B F1 10 0F  ........tlb1+...
00C0: 01 0B 80 23 2B F1 10 0F  01 0C 80 23 2B F1 10 0F  ...#+......#+...
00D0: 01 0D 80 23 2B F1 10 0F  01 0E 80 23 66 00 80 F1  ...#+......#f...
00E0: 10 0F 01 F1 10 0F 01 74  6C 62 32 66 00 80 F1 10  .......tlb2f....
00F0: 0F 01 F1 10 0F 01 74 6C  62 31 2B F1 10 0F 01 0F  ......tlb1+.....
0100: 80 23 2B F1 10 0F 01 10  80 23 2B F1 10 0F 01 11  .#+......#+.....
0110: 80 23 2B F1 10 0F 01 12  80 23 66 00 80 F1 10 0F  .#+......#f.....
0120: 01 F1 10 0F 01 74 6C 62  32 66 00 80 F1 10 0F 01  .....tlb2f......
0130: F1 10 0F 01 74 6C 62 31  2B F1 10 0F 01 13 80 23  ....tlb1+......#
0140: 66 00 80 F1 10 0F 01 F1  10 0F 01 74 6C 62 32 03  f..........tlb2.
0150: 01 10 14 80 24 15 80 14  80 14 80 25 02 00 10 14  ....$......%....
0160: 80 00 A3 01 02 09 10 16  80 00 6F 01 01 72 01 01  ..........o..r..
0170: 14 04 66 00 80 F1 10 0F  01 F1 10 0F 01 74 6C 62  ..f..........tlb
0180: 31 2B F1 10 0F 01 17 80  23 2B F1 10 0F 01 18 80  1+......#+......
0190: 23 66 00 80 F1 10 0F 01  F1 10 0F 01 74 6C 62 32  #f..........tlb2
01A0: 01 B1 01 02 00 10 16 80  00 B1 01 01 60 04 01 B1  ............`...
01B0: 01 03 03 10 19 80 03 04  10 1A 80 03 05 10 1B 80  ................
01C0: 24 1C 80 14 80 00 00 25  02 00 10 14 80 00 16 02  $......%........
01D0: 66 00 80 F1 10 0F 01 F1  10 0F 01 74 6C 62 31 2B  f..........tlb1+
01E0: F1 10 0F 01 1D 80 23 2B  F1 10 0F 01 1E 80 23 2B  ......#+......#+
01F0: F1 10 0F 01 1F 80 23 2B  F1 10 0F 01 20 80 23 66  ......#+.... .#f
0200: 00 80 F1 10 0F 01 F1 10  0F 01 74 6C 62 32 0E 00  ..........tlb2..
0210: 00 16 80 01 86 03 02 00  10 16 80 00 64 02 66 00  ............d.f.
0220: 80 F1 10 0F 01 F1 10 0F  01 74 6C 62 31 2B F1 10  .........tlb1+..
0230: 0F 01 21 80 23 2B F1 10  0F 01 22 80 23 2B F1 10  ..!.#+....".#+..
0240: 0F 01 23 80 23 2B F1 10  0F 01 24 80 23 66 00 80  ..#.#+....$.#f..
0250: F1 10 0F 01 F1 10 0F 01  74 6C 62 32 0E 00 00 25  ........tlb2...%
0260: 80 01 86 03 02 00 10 25  80 00 DA 02 66 00 80 F1  .......%....f...
0270: 10 0F 01 F1 10 0F 01 74  6C 62 31 2B F1 10 0F 01  .......tlb1+....
0280: 26 80 23 2B F1 10 0F 01  27 80 23 2B F1 10 0F 01  &.#+....'.#+....
0290: 28 80 23 2B F1 10 0F 01  29 80 23 2B F1 10 0F 01  (.#+....).#+....
02A0: 2A 80 23 2B F1 10 0F 01  2B 80 23 2B F1 10 0F 01  *.#+....+.#+....
02B0: 2C 80 23 2B F1 10 0F 01  2D 80 23 2B F1 10 0F 01  ,.#+....-.#+....
02C0: 2E 80 23 66 00 80 F1 10  0F 01 F1 10 0F 01 74 6C  ..#f..........tl
02D0: 62 32 0E 00 00 2F 80 01  86 03 02 00 10 30 80 00  b2.../.......0..
02E0: 28 03 66 00 80 F1 10 0F  01 F1 10 0F 01 74 6C 62  (.f..........tlb
02F0: 31 2B F1 10 0F 01 31 80  23 2B F1 10 0F 01 32 80  1+....1.#+....2.
0300: 23 2B F1 10 0F 01 33 80  23 2B F1 10 0F 01 34 80  #+....3.#+....4.
0310: 23 66 00 80 F1 10 0F 01  F1 10 0F 01 74 6C 62 32  #f..........tlb2
0320: 0E 00 00 35 80 01 86 03  02 00 10 2F 80 00 86 03  ...5......./....
0330: 66 00 80 F1 10 0F 01 F1  10 0F 01 74 6C 62 31 2B  f..........tlb1+
0340: F1 10 0F 01 36 80 23 2B  F1 10 0F 01 37 80 23 2B  ....6.#+....7.#+
0350: F1 10 0F 01 38 80 23 2B  F1 10 0F 01 39 80 23 2B  ....8.#+....9.#+
0360: F1 10 0F 01 3A 80 23 2B  F1 10 0F 01 3B 80 23 66  ....:.#+....;.#f
0370: 00 80 F1 10 0F 01 F1 10  0F 01 74 6C 62 32 0E 00  ..........tlb2..
0380: 00 3C 80 01 86 03 02 00  00 3D 80 01 91 03 01 B1  .<.......=......
0390: 01 66 00 80 F1 10 0F 01  F1 10 0F 01 74 6C 62 31  .f..........tlb1
03A0: 2B F1 10 0F 01 3E 80 23  2B F1 10 0F 01 3F 80 23  +....>.#+....?.#
03B0: 2B F1 10 0F 01 40 80 23  2B F1 10 0F 01 41 80 23  +....@.#+....A.#
03C0: 2B F1 10 0F 01 42 80 23  2B F1 10 0F 01 43 80 23  +....B.#+....C.#
03D0: 66 00 80 F1 10 0F 01 F1  10 0F 01 74 6C 62 32 66  f..........tlb2f
03E0: 00 80 F1 10 0F 01 F1 10  0F 01 74 6C 62 31 2B F1  ..........tlb1+.
03F0: 10 0F 01 44 80 23 2B F1  10 0F 01 45 80 23 66 00  ...D.#+....E.#f.
0400: 80 F1 10 0F 01 F1 10 0F  01 74 6C 62 32 03 01 10  .........tlb2...
0410: 16 80 21 00 03 03 10 46  80 03 04 10 47 80 03 05  ..!....F....G...
0420: 10 48 80 66 00 80 F1 10  0F 01 F1 10 0F 01 74 6C  .H.f..........tl
0430: 62 31 2B F1 10 0F 01 49  80 23 2B F1 10 0F 01 4A  b1+....I.#+....J
0440: 80 23 2B F1 10 0F 01 4B  80 23 66 00 80 F1 10 0F  .#+....K.#f.....
0450: 01 F1 10 0F 01 74 6C 62  32 03 01 10 14 80 21 00  .....tlb2.....!.
0460: 2B F1 10 0F 01 4C 80 23  03 01 10 14 80 21 00     +....L.#.....!. 
```

#### Opcodes

```
  0: 0x0001 [0x42] SET_CLI_EVENT_CANCEL_DATA()
  1: 0x0002 [0x4A] Bwi Kaghonsa (ID: 17764593/0x010F10F1) looks at LocalPlayer
  2: 0x000B [0x66] LOAD_EXT_SCHEDULER_MAIN: Load scheduler "tlb1" with entities [Bwi Kaghonsa (ID: 17764593/0x010F10F1), Bwi Kaghonsa (ID: 17764593/0x010F10F1)], work=53*
  3: 0x001A [0x2B] Bwi Kaghonsa (ID: 17764593/0x010F10F1) [11930*]:
    → "Out of all the darrrn Mithras in this darrrn town, you decided to talk to me... Well, then I must say you are off to a good start."
  4: 0x0021 [0x23] WAIT_FOR_DIALOG_INTERACTION
  5: 0x0022 [0x66] LOAD_EXT_SCHEDULER_MAIN: Load scheduler "tlb2" with entities [Bwi Kaghonsa (ID: 17764593/0x010F10F1), Bwi Kaghonsa (ID: 17764593/0x010F10F1)], work=53*
  6: 0x0031 [0x2B] Bwi Kaghonsa (ID: 17764593/0x010F10F1) [11931*]:
    → "You're looking at the highest-ranking mid-level journeyman in the VCS. You don't know what that means? It doesn't matter. All that matters is what I'm about to offer you..."
  7: 0x0038 [0x23] WAIT_FOR_DIALOG_INTERACTION
  8: 0x0039 [0x66] LOAD_EXT_SCHEDULER_MAIN: Load scheduler "tlb1" with entities [Bwi Kaghonsa (ID: 17764593/0x010F10F1), Bwi Kaghonsa (ID: 17764593/0x010F10F1)], work=53*
  9: 0x0048 [0x2B] Bwi Kaghonsa (ID: 17764593/0x010F10F1) [11932*]:
    → "Treasure, matey! Gil with a capital G. Rrrich stuff so rrrich you'll have to hide it in your underwear if you want to keep it safe."
 10: 0x004F [0x23] WAIT_FOR_DIALOG_INTERACTION
 11: 0x0050 [0x66] LOAD_EXT_SCHEDULER_MAIN: Load scheduler "tlb2" with entities [Bwi Kaghonsa (ID: 17764593/0x010F10F1), Bwi Kaghonsa (ID: 17764593/0x010F10F1)], work=53*
 12: 0x005F [0x66] LOAD_EXT_SCHEDULER_MAIN: Load scheduler "thk1" with entities [Bwi Kaghonsa (ID: 17764593/0x010F10F1), Bwi Kaghonsa (ID: 17764593/0x010F10F1)], work=50*
 13: 0x006E [0x2B] Bwi Kaghonsa (ID: 17764593/0x010F10F1) [11933*]:
    → "Okay, let's back up a bit. You've noticed the rrrecent influx of chocobo owners these past few moons, right?"
 14: 0x0075 [0x23] WAIT_FOR_DIALOG_INTERACTION
 15: 0x0076 [0x2B] Bwi Kaghonsa (ID: 17764593/0x010F10F1) [11934*]:
    → "Well, all those extra birds have the local trainers busier than bees at a honey convention."
 16: 0x007D [0x23] WAIT_FOR_DIALOG_INTERACTION
 17: 0x007E [0x2B] Bwi Kaghonsa (ID: 17764593/0x010F10F1) [11935*]:
    → "I've started hearing rumors that a lot of the stables don't have time to give proper attention to all the chocobos in their care, leaving a lot of the birds weak and hungrrry."
 18: 0x0085 [0x23] WAIT_FOR_DIALOG_INTERACTION
 19: 0x0086 [0x2B] Bwi Kaghonsa (ID: 17764593/0x010F10F1) [11936*]:
    → "(One guy even told me that the stables here have been selling extra birds to the Timbre Timbers...if you know what I mean!)"
 20: 0x008D [0x23] WAIT_FOR_DIALOG_INTERACTION
 21: 0x008E [0x2B] Bwi Kaghonsa (ID: 17764593/0x010F10F1) [11937*]:
    → "Anyway, what I'm trying to get at is, that if we don't do something quick, Vana'diel will be crawling with chocobos so weak and slow, people will start riding rarabs instead."
 22: 0x0095 [0x23] WAIT_FOR_DIALOG_INTERACTION
 23: 0x0096 [0x66] LOAD_EXT_SCHEDULER_MAIN: Load scheduler "thk2" with entities [Bwi Kaghonsa (ID: 17764593/0x010F10F1), Bwi Kaghonsa (ID: 17764593/0x010F10F1)], work=50*
 24: 0x00A5 [0x2B] Bwi Kaghonsa (ID: 17764593/0x010F10F1) [11938*]:
    → "And that brings me back to why the VCS sent me here--treasure!"
 25: 0x00AC [0x23] WAIT_FOR_DIALOG_INTERACTION
 26: 0x00AD [0x66] LOAD_EXT_SCHEDULER_MAIN: Load scheduler "tlb1" with entities [Bwi Kaghonsa (ID: 17764593/0x010F10F1), Bwi Kaghonsa (ID: 17764593/0x010F10F1)], work=53*
 27: 0x00BC [0x2B] Bwi Kaghonsa (ID: 17764593/0x010F10F1) [11939*]:
    → "And what does treasure have to do with saving chocobos? Everything! After about fifty-seven meetings, the VCS officials came up with a brrrand-new activity to get your chocobo in shape, while lining your pockets with sweet loot!"
 28: 0x00C3 [0x23] WAIT_FOR_DIALOG_INTERACTION
 29: 0x00C4 [0x2B] Bwi Kaghonsa (ID: 17764593/0x010F10F1) [11940*]:
    → "And it's called the "Chocobo Hot and Cold Game"!"
 30: 0x00CB [0x23] WAIT_FOR_DIALOG_INTERACTION
 31: 0x00CC [0x2B] Bwi Kaghonsa (ID: 17764593/0x010F10F1) [11941*]:
    → "You love your chocobo? You love money? Well, then why not love them both at the same time by participating in this new fad that's sweeping the continent by storm?"
 32: 0x00D3 [0x23] WAIT_FOR_DIALOG_INTERACTION
 33: 0x00D4 [0x2B] Bwi Kaghonsa (ID: 17764593/0x010F10F1) [11942*]:
    → "You look like you've got some time on your hands. Why not give the game a whirl? You have nothing to lose!"
 34: 0x00DB [0x23] WAIT_FOR_DIALOG_INTERACTION
 35: 0x00DC [0x66] LOAD_EXT_SCHEDULER_MAIN: Load scheduler "tlb2" with entities [Bwi Kaghonsa (ID: 17764593/0x010F10F1), Bwi Kaghonsa (ID: 17764593/0x010F10F1)], work=53*
 36: 0x00EB [0x66] LOAD_EXT_SCHEDULER_MAIN: Load scheduler "tlb1" with entities [Bwi Kaghonsa (ID: 17764593/0x010F10F1), Bwi Kaghonsa (ID: 17764593/0x010F10F1)], work=53*
 37: 0x00FA [0x2B] Bwi Kaghonsa (ID: 17764593/0x010F10F1) [11943*]:
    → "We guarantee you'll have fun or your money back! Oh, and did I mention it's frrree to participate?"
 38: 0x0101 [0x23] WAIT_FOR_DIALOG_INTERACTION
 39: 0x0102 [0x2B] Bwi Kaghonsa (ID: 17764593/0x010F10F1) [11944*]:
    → "VCS officials have been spending the past few weeks burying chests filled with tasty treats in secrrret locations all over Vana'diel."
 40: 0x0109 [0x23] WAIT_FOR_DIALOG_INTERACTION
 41: 0x010A [0x2B] Bwi Kaghonsa (ID: 17764593/0x010F10F1) [11945*]:
    → "All you have to do is dig 'em up, and they're yours. No strings attached!"
 42: 0x0111 [0x23] WAIT_FOR_DIALOG_INTERACTION
 43: 0x0112 [0x2B] Bwi Kaghonsa (ID: 17764593/0x010F10F1) [11946*]:
    → "What do you say?"
 44: 0x0119 [0x23] WAIT_FOR_DIALOG_INTERACTION
 45: 0x011A [0x66] LOAD_EXT_SCHEDULER_MAIN: Load scheduler "tlb2" with entities [Bwi Kaghonsa (ID: 17764593/0x010F10F1), Bwi Kaghonsa (ID: 17764593/0x010F10F1)], work=53*
 46: 0x0129 [0x66] LOAD_EXT_SCHEDULER_MAIN: Load scheduler "tlb1" with entities [Bwi Kaghonsa (ID: 17764593/0x010F10F1), Bwi Kaghonsa (ID: 17764593/0x010F10F1)], work=53*
 47: 0x0138 [0x2B] Bwi Kaghonsa (ID: 17764593/0x010F10F1) [11947*]:
    → "Yeah, you could go out and help some lady get her husband ointment to soothe his festerrring pustules, or defeat some Shadow Lord and save the world, but deep down in your heart you know what you really want to do..."
 48: 0x013F [0x23] WAIT_FOR_DIALOG_INTERACTION
 49: 0x0140 [0x66] LOAD_EXT_SCHEDULER_MAIN: Load scheduler "tlb2" with entities [Bwi Kaghonsa (ID: 17764593/0x010F10F1), Bwi Kaghonsa (ID: 17764593/0x010F10F1)], work=53*
 50: 0x014F [0x03] Work_Zone[1] = 0*
 51: 0x0154 [0x24] CREATE_DIALOG(message_id=11948*, default_option=0*, option_flags=0*)
    → "Listen to your heart? [Sign me up!/After saving the world.]"
 52: 0x015B [0x25] WAIT_DIALOG_SELECT()
 53: 0x015C [0x02] IF !(Work_Zone[0] == 0*) GOTO 0x01A3
 54: 0x0164 [0x02] IF !(Work_Zone[9] == 1*) GOTO 0x016F
 55: 0x016C [0x01] GOTO 0x0172
 56: 0x016F [0x01] GOTO 0x0414

SUBROUTINE_0172:
 57: 0x0172 [0x66] LOAD_EXT_SCHEDULER_MAIN: Load scheduler "tlb1" with entities [Bwi Kaghonsa (ID: 17764593/0x010F10F1), Bwi Kaghonsa (ID: 17764593/0x010F10F1)], work=53*
 58: 0x0181 [0x2B] Bwi Kaghonsa (ID: 17764593/0x010F10F1) [11950*]:
    → "Rrright answer!"
 59: 0x0188 [0x23] WAIT_FOR_DIALOG_INTERACTION
 60: 0x0189 [0x2B] Bwi Kaghonsa (ID: 17764593/0x010F10F1) [11954*]:
    → "Okay, now I know you're all rrready to get started, but I'm required to go over the official VCS rulebook before letting you loose."
 61: 0x0190 [0x23] WAIT_FOR_DIALOG_INTERACTION
 62: 0x0191 [0x66] LOAD_EXT_SCHEDULER_MAIN: Load scheduler "tlb2" with entities [Bwi Kaghonsa (ID: 17764593/0x010F10F1), Bwi Kaghonsa (ID: 17764593/0x010F10F1)], work=53*
 63: 0x01A0 [0x01] GOTO 0x01B1
 64: 0x01A3 [0x02] IF !(Work_Zone[0] == 1*) GOTO 0x01B1
 65: 0x01AB [0x01] GOTO 0x0460

SUBROUTINE_01B1:
 66: 0x01B1 [0x03] Work_Zone[3] = 5429*
 67: 0x01B6 [0x03] Work_Zone[4] = 851*
 68: 0x01BB [0x03] Work_Zone[5] = 852*
 69: 0x01C0 [0x24] CREATE_DIALOG(message_id=11955*, default_option=0*, option_flags=ExtData[1]->WorkLocal[0])
    → "What do you need to know? [About chocographs./About $1./About how to find the loot./About chocobo abilities./About when the game is over.]"
 70: 0x01C7 [0x25] WAIT_DIALOG_SELECT()
 71: 0x01C8 [0x02] IF !(Work_Zone[0] == 0*) GOTO 0x0216
 72: 0x01D0 [0x66] LOAD_EXT_SCHEDULER_MAIN: Load scheduler "tlb1" with entities [Bwi Kaghonsa (ID: 17764593/0x010F10F1), Bwi Kaghonsa (ID: 17764593/0x010F10F1)], work=53*
 73: 0x01DF [0x2B] Bwi Kaghonsa (ID: 17764593/0x010F10F1) [11956*]:
    → "Anyone who wants to participate in the Chocobo Hot and Cold Game will require a special chocograph authorizing [him/her] to dig in a cerrrtain area."
 74: 0x01E6 [0x23] WAIT_FOR_DIALOG_INTERACTION
 75: 0x01E7 [0x2B] Bwi Kaghonsa (ID: 17764593/0x010F10F1) [11957*]:
    → "There are several kinds of chocographs for different types of treasure hidden in areas all over Vana'diel."
 76: 0x01EE [0x23] WAIT_FOR_DIALOG_INTERACTION
 77: 0x01EF [0x2B] Bwi Kaghonsa (ID: 17764593/0x010F10F1) [11958*]:
    → "And once you obtain one, it's yours for life, or until you set your gobbiebag on fire."
 78: 0x01F6 [0x23] WAIT_FOR_DIALOG_INTERACTION
 79: 0x01F7 [0x2B] Bwi Kaghonsa (ID: 17764593/0x010F10F1) [11960*]:
    → "Well, don't you worry, because for a limited time, the VCS is giving away two chocographs absolutely frrree to the first three million adventurers who sign up!"
 80: 0x01FE [0x23] WAIT_FOR_DIALOG_INTERACTION
 81: 0x01FF [0x66] LOAD_EXT_SCHEDULER_MAIN: Load scheduler "tlb2" with entities [Bwi Kaghonsa (ID: 17764593/0x010F10F1), Bwi Kaghonsa (ID: 17764593/0x010F10F1)], work=53*
 82: 0x020E [0x0E] ExtData[1]->WorkLocal[0] |= 1*
 83: 0x0213 [0x01] GOTO 0x0386
 84: 0x0216 [0x02] IF !(Work_Zone[0] == 1*) GOTO 0x0264
 85: 0x021E [0x66] LOAD_EXT_SCHEDULER_MAIN: Load scheduler "tlb1" with entities [Bwi Kaghonsa (ID: 17764593/0x010F10F1), Bwi Kaghonsa (ID: 17764593/0x010F10F1)], work=53*
 86: 0x022D [0x2B] Bwi Kaghonsa (ID: 17764593/0x010F10F1) [11961*]:
    → "$1 is the item that you'll need to start the game."
 87: 0x0234 [0x23] WAIT_FOR_DIALOG_INTERACTION
 88: 0x0235 [0x2B] Bwi Kaghonsa (ID: 17764593/0x010F10F1) [11962*]:
    → "Take a clump to the area specified on a chocograph and set it out on the ground. Before you know it, your verrry own chocobo will come galloping gallantly to your side."
 89: 0x023C [0x23] WAIT_FOR_DIALOG_INTERACTION
 90: 0x023D [0x2B] Bwi Kaghonsa (ID: 17764593/0x010F10F1) [11963*]:
    → "Once it arrives, your map will open and you'll have the opportunity to confirm the general location of the burrried treasure in that area."
 91: 0x0244 [0x23] WAIT_FOR_DIALOG_INTERACTION
 92: 0x0245 [0x2B] Bwi Kaghonsa (ID: 17764593/0x010F10F1) [11964*]:
    → "Please note that once your chocobo has gobbled up the $1, you'll need to obtain another from a VCS representative before playing again."
 93: 0x024C [0x23] WAIT_FOR_DIALOG_INTERACTION
 94: 0x024D [0x66] LOAD_EXT_SCHEDULER_MAIN: Load scheduler "tlb2" with entities [Bwi Kaghonsa (ID: 17764593/0x010F10F1), Bwi Kaghonsa (ID: 17764593/0x010F10F1)], work=53*
 95: 0x025C [0x0E] ExtData[1]->WorkLocal[0] |= 2*
 96: 0x0261 [0x01] GOTO 0x0386
 97: 0x0264 [0x02] IF !(Work_Zone[0] == 2*) GOTO 0x02DA
 98: 0x026C [0x66] LOAD_EXT_SCHEDULER_MAIN: Load scheduler "tlb1" with entities [Bwi Kaghonsa (ID: 17764593/0x010F10F1), Bwi Kaghonsa (ID: 17764593/0x010F10F1)], work=53*
 99: 0x027B [0x2B] Bwi Kaghonsa (ID: 17764593/0x010F10F1) [11965*]:
    → "Ah yes... I knew you'd want to hear about that. Well, first ride your chocobo out to the location indicated on your map."
100: 0x0282 [0x23] WAIT_FOR_DIALOG_INTERACTION
101: 0x0283 [0x2B] Bwi Kaghonsa (ID: 17764593/0x010F10F1) [11966*]:
    → "When you think you're close to where the treasure might be buried, take a test dig and see what happens."
102: 0x028A [0x23] WAIT_FOR_DIALOG_INTERACTION
103: 0x028B [0x2B] Bwi Kaghonsa (ID: 17764593/0x010F10F1) [11967*]:
    → "All chocobos have noses for finding burrried goods, and depending on how hot or cold you are (Get it? That's where we got the name for the game!) your steed will react differently."
104: 0x0292 [0x23] WAIT_FOR_DIALOG_INTERACTION
105: 0x0293 [0x2B] Bwi Kaghonsa (ID: 17764593/0x010F10F1) [11968*]:
    → "The closer you are, the more drrramatic that reaction will be, so listen carefully."
106: 0x029A [0x23] WAIT_FOR_DIALOG_INTERACTION
107: 0x029B [0x2B] Bwi Kaghonsa (ID: 17764593/0x010F10F1) [11969*]:
    → "When you think you've found the spot..."
108: 0x02A2 [0x23] WAIT_FOR_DIALOG_INTERACTION
109: 0x02A3 [0x2B] Bwi Kaghonsa (ID: 17764593/0x010F10F1) [11970*]:
    → "...dig and dig, and then dig some more!"
110: 0x02AA [0x23] WAIT_FOR_DIALOG_INTERACTION
111: 0x02AB [0x2B] Bwi Kaghonsa (ID: 17764593/0x010F10F1) [11971*]:
    → "I'll warn you right now, but some of the loot is pretty deep, so you may have to dig multiple times beforrre you uncover any chests."
112: 0x02B2 [0x23] WAIT_FOR_DIALOG_INTERACTION
113: 0x02B3 [0x2B] Bwi Kaghonsa (ID: 17764593/0x010F10F1) [11972*]:
    → "But, with a little bit of luck and a lot of bits of persistence, you'll be rolling in goodies in no time!"
114: 0x02BA [0x23] WAIT_FOR_DIALOG_INTERACTION
115: 0x02BB [0x2B] Bwi Kaghonsa (ID: 17764593/0x010F10F1) [11973*]:
    → "That's rrright! Once you've unearthed the chest, all that's left is to open it. Whatever you find inside is yours to keep."
116: 0x02C2 [0x23] WAIT_FOR_DIALOG_INTERACTION
117: 0x02C3 [0x66] LOAD_EXT_SCHEDULER_MAIN: Load scheduler "tlb2" with entities [Bwi Kaghonsa (ID: 17764593/0x010F10F1), Bwi Kaghonsa (ID: 17764593/0x010F10F1)], work=53*
118: 0x02D2 [0x0E] ExtData[1]->WorkLocal[0] |= 4*
119: 0x02D7 [0x01] GOTO 0x0386
120: 0x02DA [0x02] IF !(Work_Zone[0] == 3*) GOTO 0x0328
121: 0x02E2 [0x66] LOAD_EXT_SCHEDULER_MAIN: Load scheduler "tlb1" with entities [Bwi Kaghonsa (ID: 17764593/0x010F10F1), Bwi Kaghonsa (ID: 17764593/0x010F10F1)], work=53*
122: 0x02F1 [0x2B] Bwi Kaghonsa (ID: 17764593/0x010F10F1) [11974*]:
    → "Now, to increase your chances of finding treasure, you'll want to know how chocobo abilities can give you that extrrra edge."
123: 0x02F8 [0x23] WAIT_FOR_DIALOG_INTERACTION
124: 0x02F9 [0x2B] Bwi Kaghonsa (ID: 17764593/0x010F10F1) [11975*]:
    → "The ones that will help you most are "Treasure Finder," "Burrow," and "Bore.""
125: 0x0300 [0x23] WAIT_FOR_DIALOG_INTERACTION
126: 0x0301 [0x2B] Bwi Kaghonsa (ID: 17764593/0x010F10F1) [11976*]:
    → "Burrow and Bore will allow you to go deeper with each dig, helping you reach the chest beforrre your bird grows too tired."
127: 0x0308 [0x23] WAIT_FOR_DIALOG_INTERACTION
128: 0x0309 [0x2B] Bwi Kaghonsa (ID: 17764593/0x010F10F1) [11977*]:
    → "Treasure Finder does just that--helps you find the treasure easierrr by honing your chocobo's sense of smell."
129: 0x0310 [0x23] WAIT_FOR_DIALOG_INTERACTION
130: 0x0311 [0x66] LOAD_EXT_SCHEDULER_MAIN: Load scheduler "tlb2" with entities [Bwi Kaghonsa (ID: 17764593/0x010F10F1), Bwi Kaghonsa (ID: 17764593/0x010F10F1)], work=53*
131: 0x0320 [0x0E] ExtData[1]->WorkLocal[0] |= 8*
132: 0x0325 [0x01] GOTO 0x0386
133: 0x0328 [0x02] IF !(Work_Zone[0] == 4*) GOTO 0x0386
134: 0x0330 [0x66] LOAD_EXT_SCHEDULER_MAIN: Load scheduler "tlb1" with entities [Bwi Kaghonsa (ID: 17764593/0x010F10F1), Bwi Kaghonsa (ID: 17764593/0x010F10F1)], work=53*
135: 0x033F [0x2B] Bwi Kaghonsa (ID: 17764593/0x010F10F1) [11978*]:
    → "Alright, this part is the most important, so I'm going to need you to listen up."
136: 0x0346 [0x23] WAIT_FOR_DIALOG_INTERACTION
137: 0x0347 [0x2B] Bwi Kaghonsa (ID: 17764593/0x010F10F1) [11979*]:
    → "Digging for extended periods of time can rrreally drain a chocobo's strength."
138: 0x034E [0x23] WAIT_FOR_DIALOG_INTERACTION
139: 0x034F [0x2B] Bwi Kaghonsa (ID: 17764593/0x010F10F1) [11980*]:
    → "Push your bird too harrrd, and it may just reach that point where it refuses to dig anymore."
140: 0x0356 [0x23] WAIT_FOR_DIALOG_INTERACTION
141: 0x0357 [0x2B] Bwi Kaghonsa (ID: 17764593/0x010F10F1) [11981*]:
    → "When this happens, you might as well tighten the string on your gobbiebag because you won't be getting any morrre treasure that day."
142: 0x035E [0x23] WAIT_FOR_DIALOG_INTERACTION
143: 0x035F [0x2B] Bwi Kaghonsa (ID: 17764593/0x010F10F1) [11982*]:
    → "In other words, locating the chest in the fewest possible digs will be the key to your success."
144: 0x0366 [0x23] WAIT_FOR_DIALOG_INTERACTION
145: 0x0367 [0x2B] Bwi Kaghonsa (ID: 17764593/0x010F10F1) [11983*]:
    → "Remember that."
146: 0x036E [0x23] WAIT_FOR_DIALOG_INTERACTION
147: 0x036F [0x66] LOAD_EXT_SCHEDULER_MAIN: Load scheduler "tlb2" with entities [Bwi Kaghonsa (ID: 17764593/0x010F10F1), Bwi Kaghonsa (ID: 17764593/0x010F10F1)], work=53*
148: 0x037E [0x0E] ExtData[1]->WorkLocal[0] |= 16*
149: 0x0383 [0x01] GOTO 0x0386

SUBROUTINE_0386:
150: 0x0386 [0x02] IF !(ExtData[1]->WorkLocal[0] == 31*) GOTO 0x0391
151: 0x038E [0x01] GOTO 0x01B1
152: 0x0391 [0x66] LOAD_EXT_SCHEDULER_MAIN: Load scheduler "tlb1" with entities [Bwi Kaghonsa (ID: 17764593/0x010F10F1), Bwi Kaghonsa (ID: 17764593/0x010F10F1)], work=53*
153: 0x03A0 [0x2B] Bwi Kaghonsa (ID: 17764593/0x010F10F1) [11984*]:
    → "Okay! Now I think you're finally rrready to head out there and start digging!"
154: 0x03A7 [0x23] WAIT_FOR_DIALOG_INTERACTION
155: 0x03A8 [0x2B] Bwi Kaghonsa (ID: 17764593/0x010F10F1) [11985*]:
    → "Let me get you your two complimentary licenses..."
156: 0x03AF [0x23] WAIT_FOR_DIALOG_INTERACTION
157: 0x03B0 [0x2B] Bwi Kaghonsa (ID: 17764593/0x010F10F1) [11986*]:
    → "Here's a $3 and a $3."
158: 0x03B7 [0x23] WAIT_FOR_DIALOG_INTERACTION
159: 0x03B8 [0x2B] Bwi Kaghonsa (ID: 17764593/0x010F10F1) [11987*]:
    → "And here's your $1."
160: 0x03BF [0x23] WAIT_FOR_DIALOG_INTERACTION
161: 0x03C0 [0x2B] Bwi Kaghonsa (ID: 17764593/0x010F10F1) [11988*]:
    → "Like I told you before, too much digging is hard on your chocobo, so the VCS prohibits me from giving adventurers too many of these $1."
162: 0x03C7 [0x23] WAIT_FOR_DIALOG_INTERACTION
163: 0x03C8 [0x2B] Bwi Kaghonsa (ID: 17764593/0x010F10F1) [11989*]:
    → "If you want any more, let your chocobo rest a while beforrre coming back, alright?"
164: 0x03CF [0x23] WAIT_FOR_DIALOG_INTERACTION
165: 0x03D0 [0x66] LOAD_EXT_SCHEDULER_MAIN: Load scheduler "tlb2" with entities [Bwi Kaghonsa (ID: 17764593/0x010F10F1), Bwi Kaghonsa (ID: 17764593/0x010F10F1)], work=53*
166: 0x03DF [0x66] LOAD_EXT_SCHEDULER_MAIN: Load scheduler "tlb1" with entities [Bwi Kaghonsa (ID: 17764593/0x010F10F1), Bwi Kaghonsa (ID: 17764593/0x010F10F1)], work=53*
167: 0x03EE [0x2B] Bwi Kaghonsa (ID: 17764593/0x010F10F1) [11990*]:
    → "Okay. I can tell that you've heard enough from me."
168: 0x03F5 [0x23] WAIT_FOR_DIALOG_INTERACTION
169: 0x03F6 [0x2B] Bwi Kaghonsa (ID: 17764593/0x010F10F1) [11991*]:
    → "You're frrree to go! Talk to you later!"
170: 0x03FD [0x23] WAIT_FOR_DIALOG_INTERACTION
171: 0x03FE [0x66] LOAD_EXT_SCHEDULER_MAIN: Load scheduler "tlb2" with entities [Bwi Kaghonsa (ID: 17764593/0x010F10F1), Bwi Kaghonsa (ID: 17764593/0x010F10F1)], work=53*
172: 0x040D [0x03] Work_Zone[1] = 1*
173: 0x0412 [0x21] END_EVENT
174: 0x0413 [0x00] END_REQSTACK()

SUBROUTINE_0414:
175: 0x0414 [0x03] Work_Zone[3] = 385*
176: 0x0419 [0x03] Work_Zone[4] = 386*
177: 0x041E [0x03] Work_Zone[5] = 387*
178: 0x0423 [0x66] LOAD_EXT_SCHEDULER_MAIN: Load scheduler "tlb1" with entities [Bwi Kaghonsa (ID: 17764593/0x010F10F1), Bwi Kaghonsa (ID: 17764593/0x010F10F1)], work=53*
179: 0x0432 [0x2B] Bwi Kaghonsa (ID: 17764593/0x010F10F1) [11951*]:
    → "Wait a minute... Let me see your map collection... You don't have the complete three-nation set, do you?"
180: 0x0439 [0x23] WAIT_FOR_DIALOG_INTERACTION
181: 0x043A [0x2B] Bwi Kaghonsa (ID: 17764593/0x010F10F1) [11952*]:
    → "I'm talking about the $3, the $3, and the $3."
182: 0x0441 [0x23] WAIT_FOR_DIALOG_INTERACTION
183: 0x0442 [0x2B] Bwi Kaghonsa (ID: 17764593/0x010F10F1) [11953*]:
    → "I'm sorry, but you'll need all three before I can let you play our game. Stop by a map vendor and pick up the ones you don't have. I'll be waiting here for you, but I can't guarantee the treasure will be..."
184: 0x0449 [0x23] WAIT_FOR_DIALOG_INTERACTION
185: 0x044A [0x66] LOAD_EXT_SCHEDULER_MAIN: Load scheduler "tlb2" with entities [Bwi Kaghonsa (ID: 17764593/0x010F10F1), Bwi Kaghonsa (ID: 17764593/0x010F10F1)], work=53*
186: 0x0459 [0x03] Work_Zone[1] = 0*
187: 0x045E [0x21] END_EVENT
188: 0x045F [0x00] END_REQSTACK()

SUBROUTINE_0460:
189: 0x0460 [0x2B] Bwi Kaghonsa (ID: 17764593/0x010F10F1) [11949*]:
    → "Alright, I guess everybody has their priorities. But you know where I'll be when you're finished!"
190: 0x0467 [0x23] WAIT_FOR_DIALOG_INTERACTION
191: 0x0468 [0x03] Work_Zone[1] = 0*
192: 0x046D [0x21] END_EVENT
193: 0x046E [0x00] END_REQSTACK()
```

#### Data or dead code:

```
# Dead code (unreachable instructions):
     0x01AE [0x01] GOTO 0x01B1
```

### Event 769

#### Metadata

| Field        | Value     |
|--------------|-----------|
| Entrypoint   | 0x046F    |
| Data Size    | 976 bytes |
| Instructions | 174       |

```
      00 01 02 03 04 05 06 07  08 09 0A 0B 0C 0D 0E 0F
      -- -- -- -- -- -- -- --  -- -- -- -- -- -- -- --
0460:                                               42                 B
0470: 03 03 10 19 80 4A F1 10  0F 01 F0 FF FF 7F 2B F1  .....J........+.
0480: 10 0F 01 4D 80 23 03 01  10 14 80 24 4E 80 14 80  ...M.#.....$N...
0490: 14 80 25 02 00 10 14 80  00 A4 04 1A 8A 06 01 86  ..%.............
04A0: 04 01 BD 04 02 00 10 16  80 00 AF 04 01 BD 04 02  ................
04B0: 00 10 25 80 00 BD 04 01  60 04 01 BD 04 02 09 10  ..%.....`.......
04C0: 16 80 80 23 05 66 00 80  F1 10 0F 01 F1 10 0F 01  ...#.f..........
04D0: 74 6C 62 31 2B F1 10 0F  01 4F 80 23 2B F1 10 0F  tlb1+....O.#+...
04E0: 01 50 80 23 2B F1 10 0F  01 51 80 23 2B F1 10 0F  .P.#+....Q.#+...
04F0: 01 52 80 23 2B F1 10 0F  01 53 80 23 2B F1 10 0F  .R.#+....S.#+...
0500: 01 54 80 23 2B F1 10 0F  01 55 80 23 66 00 80 F1  .T.#+....U.#f...
0510: 10 0F 01 F1 10 0F 01 74  6C 62 32 03 01 10 25 80  .......tlb2...%.
0520: 01 88 06 02 09 10 25 80  80 89 05 66 00 80 F1 10  ......%....f....
0530: 0F 01 F1 10 0F 01 74 6C  62 31 2B F1 10 0F 01 4F  ......tlb1+....O
0540: 80 23 2B F1 10 0F 01 56  80 23 2B F1 10 0F 01 51  .#+....V.#+....Q
0550: 80 23 2B F1 10 0F 01 52  80 23 2B F1 10 0F 01 57  .#+....R.#+....W
0560: 80 23 2B F1 10 0F 01 54  80 23 2B F1 10 0F 01 55  .#+....T.#+....U
0570: 80 23 66 00 80 F1 10 0F  01 F1 10 0F 01 74 6C 62  .#f..........tlb
0580: 32 03 01 10 30 80 01 88  06 02 09 10 30 80 80 EF  2...0.......0...
0590: 05 66 00 80 F1 10 0F 01  F1 10 0F 01 74 6C 62 31  .f..........tlb1
05A0: 2B F1 10 0F 01 4F 80 23  2B F1 10 0F 01 58 80 23  +....O.#+....X.#
05B0: 2B F1 10 0F 01 59 80 23  2B F1 10 0F 01 52 80 23  +....Y.#+....R.#
05C0: 2B F1 10 0F 01 5A 80 23  2B F1 10 0F 01 5B 80 23  +....Z.#+....[.#
05D0: 2B F1 10 0F 01 55 80 23  66 00 80 F1 10 0F 01 F1  +....U.#f.......
05E0: 10 0F 01 74 6C 62 32 03  01 10 2F 80 01 88 06 02  ...tlb2.../.....
05F0: 09 10 2F 80 80 55 06 66  00 80 F1 10 0F 01 F1 10  ../..U.f........
0600: 0F 01 74 6C 62 31 2B F1  10 0F 01 4F 80 23 2B F1  ..tlb1+....O.#+.
0610: 10 0F 01 5C 80 23 2B F1  10 0F 01 59 80 23 2B F1  ...\.#+....Y.#+.
0620: 10 0F 01 52 80 23 2B F1  10 0F 01 5D 80 23 2B F1  ...R.#+....].#+.
0630: 10 0F 01 5E 80 23 2B F1  10 0F 01 55 80 23 66 00  ...^.#+....U.#f.
0640: 80 F1 10 0F 01 F1 10 0F  01 74 6C 62 32 03 01 10  .........tlb2...
0650: 5F 80 01 88 06 66 00 80  F1 10 0F 01 F1 10 0F 01  _....f..........
0660: 74 6C 62 31 2B F1 10 0F  01 4F 80 23 2B F1 10 0F  tlb1+....O.#+...
0670: 01 55 80 23 66 00 80 F1  10 0F 01 F1 10 0F 01 74  .U.#f..........t
0680: 6C 62 32 03 01 10 16 80  21 00 03 03 10 19 80 03  lb2.....!.......
0690: 04 10 1A 80 03 05 10 1B  80 24 1C 80 14 80 14 80  .........$......
06A0: 25 02 00 10 14 80 00 E2  06 66 00 80 F1 10 0F 01  %........f......
06B0: F1 10 0F 01 74 6C 62 31  2B F1 10 0F 01 1D 80 23  ....tlb1+......#
06C0: 2B F1 10 0F 01 1E 80 23  2B F1 10 0F 01 1F 80 23  +......#+......#
06D0: 66 00 80 F1 10 0F 01 F1  10 0F 01 74 6C 62 32 01  f..........tlb2.
06E0: 3E 08 02 00 10 16 80 00  2B 07 66 00 80 F1 10 0F  >.......+.f.....
06F0: 01 F1 10 0F 01 74 6C 62  31 2B F1 10 0F 01 21 80  .....tlb1+....!.
0700: 23 2B F1 10 0F 01 22 80  23 2B F1 10 0F 01 23 80  #+....".#+....#.
0710: 23 2B F1 10 0F 01 24 80  23 66 00 80 F1 10 0F 01  #+....$.#f......
0720: F1 10 0F 01 74 6C 62 32  01 3E 08 02 00 10 25 80  ....tlb2.>....%.
0730: 00 9C 07 66 00 80 F1 10  0F 01 F1 10 0F 01 74 6C  ...f..........tl
0740: 62 31 2B F1 10 0F 01 26  80 23 2B F1 10 0F 01 27  b1+....&.#+....'
0750: 80 23 2B F1 10 0F 01 28  80 23 2B F1 10 0F 01 29  .#+....(.#+....)
0760: 80 23 2B F1 10 0F 01 2A  80 23 2B F1 10 0F 01 2B  .#+....*.#+....+
0770: 80 23 2B F1 10 0F 01 2C  80 23 2B F1 10 0F 01 2D  .#+....,.#+....-
0780: 80 23 2B F1 10 0F 01 2E  80 23 66 00 80 F1 10 0F  .#+......#f.....
0790: 01 F1 10 0F 01 74 6C 62  32 01 3E 08 02 00 10 30  .....tlb2.>....0
07A0: 80 00 E5 07 66 00 80 F1  10 0F 01 F1 10 0F 01 74  ....f..........t
07B0: 6C 62 31 2B F1 10 0F 01  31 80 23 2B F1 10 0F 01  lb1+....1.#+....
07C0: 32 80 23 2B F1 10 0F 01  33 80 23 2B F1 10 0F 01  2.#+....3.#+....
07D0: 34 80 23 66 00 80 F1 10  0F 01 F1 10 0F 01 74 6C  4.#f..........tl
07E0: 62 32 01 3E 08 02 00 10  2F 80 00 3E 08 66 00 80  b2.>..../..>.f..
07F0: F1 10 0F 01 F1 10 0F 01  74 6C 62 31 2B F1 10 0F  ........tlb1+...
0800: 01 36 80 23 2B F1 10 0F  01 37 80 23 2B F1 10 0F  .6.#+....7.#+...
0810: 01 38 80 23 2B F1 10 0F  01 39 80 23 2B F1 10 0F  .8.#+....9.#+...
0820: 01 3A 80 23 2B F1 10 0F  01 3B 80 23 66 00 80 F1  .:.#+....;.#f...
0830: 10 0F 01 F1 10 0F 01 74  6C 62 32 01 3E 08 1B     .......tlb2.>.. 
```

#### Opcodes

```
  0: 0x046F [0x42] SET_CLI_EVENT_CANCEL_DATA()
  1: 0x0470 [0x03] Work_Zone[3] = 5429*
  2: 0x0475 [0x4A] Bwi Kaghonsa (ID: 17764593/0x010F10F1) looks at LocalPlayer
  3: 0x047E [0x2B] Bwi Kaghonsa (ID: 17764593/0x010F10F1) [11992*]:
    → "Step rrright up, boys and girls! I can give you IX finally fantastic reasons why the Chocobo Hot and Cold Game is the most fun you'll have on the back of a giant yellow bird!"
  4: 0x0485 [0x23] WAIT_FOR_DIALOG_INTERACTION
  5: 0x0486 [0x03] Work_Zone[1] = 0*
  6: 0x048B [0x24] CREATE_DIALOG(message_id=11993*, default_option=0*, option_flags=0*)
    → "So, what do you need? [A rule refresher course./Another dose of Hot and Cold./Nothing.]"
  7: 0x0492 [0x25] WAIT_DIALOG_SELECT()
  8: 0x0493 [0x02] IF !(Work_Zone[0] == 0*) GOTO 0x04A4
  9: 0x049B [0x1A] CALL_SUBROUTINE(address=0x068A)
 10: 0x049E [0x01] GOTO 0x0486

SUBROUTINE_04BD:
 11: 0x04BD [0x02] IF !(Work_Zone[9] == 1*) GOTO 0x0523
 12: 0x04C5 [0x66] LOAD_EXT_SCHEDULER_MAIN: Load scheduler "tlb1" with entities [Bwi Kaghonsa (ID: 17764593/0x010F10F1), Bwi Kaghonsa (ID: 17764593/0x010F10F1)], work=53*
 13: 0x04D4 [0x2B] Bwi Kaghonsa (ID: 17764593/0x010F10F1) [11994*]:
    → "Sure! Here's a new $1 for you."
 14: 0x04DB [0x23] WAIT_FOR_DIALOG_INTERACTION
 15: 0x04DC [0x2B] Bwi Kaghonsa (ID: 17764593/0x010F10F1) [12008*]:
    → "And would you look at this! My rrrecords show that you've uncovered some of our prairie treasure."
 16: 0x04E3 [0x23] WAIT_FOR_DIALOG_INTERACTION
 17: 0x04E4 [0x2B] Bwi Kaghonsa (ID: 17764593/0x010F10F1) [12010*]:
    → "A little too easy for you, huh? Let me guess...you're hankering for a new challenge. Don't try to hide it! I can see those shovels in yourrr eyes."
 18: 0x04EB [0x23] WAIT_FOR_DIALOG_INTERACTION
 19: 0x04EC [0x2B] Bwi Kaghonsa (ID: 17764593/0x010F10F1) [12011*]:
    → "Well, this is yourrr day, <Player>. I have a brand-spanking-new $3 with yourrr name on it!"
 20: 0x04F3 [0x23] WAIT_FOR_DIALOG_INTERACTION
 21: 0x04F4 [0x2B] Bwi Kaghonsa (ID: 17764593/0x010F10F1) [12012*]:
    → "With this baby, you'll be able to dig to yourrr heart's content all across the Valkurm Dunes."
 22: 0x04FB [0x23] WAIT_FOR_DIALOG_INTERACTION
 23: 0x04FC [0x2B] Bwi Kaghonsa (ID: 17764593/0x010F10F1) [12014*]:
    → "The treasure may be a little harderrr to find this time around, but you should have no problem at all! Good luck!"
 24: 0x0503 [0x23] WAIT_FOR_DIALOG_INTERACTION
 25: 0x0504 [0x2B] Bwi Kaghonsa (ID: 17764593/0x010F10F1) [11995*]:
    → "Now what are you waiting for? Get hunting!"
 26: 0x050B [0x23] WAIT_FOR_DIALOG_INTERACTION
 27: 0x050C [0x66] LOAD_EXT_SCHEDULER_MAIN: Load scheduler "tlb2" with entities [Bwi Kaghonsa (ID: 17764593/0x010F10F1), Bwi Kaghonsa (ID: 17764593/0x010F10F1)], work=53*
 28: 0x051B [0x03] Work_Zone[1] = 2*
 29: 0x0520 [0x01] GOTO 0x0688
 30: 0x0523 [0x02] IF !(Work_Zone[9] == 2*) GOTO 0x0589
 31: 0x052B [0x66] LOAD_EXT_SCHEDULER_MAIN: Load scheduler "tlb1" with entities [Bwi Kaghonsa (ID: 17764593/0x010F10F1), Bwi Kaghonsa (ID: 17764593/0x010F10F1)], work=53*
 32: 0x053A [0x2B] Bwi Kaghonsa (ID: 17764593/0x010F10F1) [11994*]:
    → "Sure! Here's a new $1 for you."
 33: 0x0541 [0x23] WAIT_FOR_DIALOG_INTERACTION
 34: 0x0542 [0x2B] Bwi Kaghonsa (ID: 17764593/0x010F10F1) [12009*]:
    → "And would you look at this! My rrrecords show that you've uncovered some of our treasure hidden in the bush."
 35: 0x0549 [0x23] WAIT_FOR_DIALOG_INTERACTION
 36: 0x054A [0x2B] Bwi Kaghonsa (ID: 17764593/0x010F10F1) [12010*]:
    → "A little too easy for you, huh? Let me guess...you're hankering for a new challenge. Don't try to hide it! I can see those shovels in yourrr eyes."
 37: 0x0551 [0x23] WAIT_FOR_DIALOG_INTERACTION
 38: 0x0552 [0x2B] Bwi Kaghonsa (ID: 17764593/0x010F10F1) [12011*]:
    → "Well, this is yourrr day, <Player>. I have a brand-spanking-new $3 with yourrr name on it!"
 39: 0x0559 [0x23] WAIT_FOR_DIALOG_INTERACTION
 40: 0x055A [0x2B] Bwi Kaghonsa (ID: 17764593/0x010F10F1) [12013*]:
    → "With this baby, you'll be able to dig to yourrr heart's content all across the Buburimu Peninsula."
 41: 0x0561 [0x23] WAIT_FOR_DIALOG_INTERACTION
 42: 0x0562 [0x2B] Bwi Kaghonsa (ID: 17764593/0x010F10F1) [12014*]:
    → "The treasure may be a little harderrr to find this time around, but you should have no problem at all! Good luck!"
 43: 0x0569 [0x23] WAIT_FOR_DIALOG_INTERACTION
 44: 0x056A [0x2B] Bwi Kaghonsa (ID: 17764593/0x010F10F1) [11995*]:
    → "Now what are you waiting for? Get hunting!"
 45: 0x0571 [0x23] WAIT_FOR_DIALOG_INTERACTION
 46: 0x0572 [0x66] LOAD_EXT_SCHEDULER_MAIN: Load scheduler "tlb2" with entities [Bwi Kaghonsa (ID: 17764593/0x010F10F1), Bwi Kaghonsa (ID: 17764593/0x010F10F1)], work=53*
 47: 0x0581 [0x03] Work_Zone[1] = 3*
 48: 0x0586 [0x01] GOTO 0x0688
 49: 0x0589 [0x02] IF !(Work_Zone[9] == 3*) GOTO 0x05EF
 50: 0x0591 [0x66] LOAD_EXT_SCHEDULER_MAIN: Load scheduler "tlb1" with entities [Bwi Kaghonsa (ID: 17764593/0x010F10F1), Bwi Kaghonsa (ID: 17764593/0x010F10F1)], work=53*
 51: 0x05A0 [0x2B] Bwi Kaghonsa (ID: 17764593/0x010F10F1) [11994*]:
    → "Sure! Here's a new $1 for you."
 52: 0x05A7 [0x23] WAIT_FOR_DIALOG_INTERACTION
 53: 0x05A8 [0x2B] Bwi Kaghonsa (ID: 17764593/0x010F10F1) [12016*]:
    → "Well, I'll be a tigress in a teahouse. My rrrecords show that you and your trusty bird have been tearing up the Valkurm Dunes lately."
 54: 0x05AF [0x23] WAIT_FOR_DIALOG_INTERACTION
 55: 0x05B0 [0x2B] Bwi Kaghonsa (ID: 17764593/0x010F10F1) [12017*]:
    → "It's like I've been telling everybody, "That <Player>'s a natural!""
 56: 0x05B7 [0x23] WAIT_FOR_DIALOG_INTERACTION
 57: 0x05B8 [0x2B] Bwi Kaghonsa (ID: 17764593/0x010F10F1) [12011*]:
    → "Well, this is yourrr day, <Player>. I have a brand-spanking-new $3 with yourrr name on it!"
 58: 0x05BF [0x23] WAIT_FOR_DIALOG_INTERACTION
 59: 0x05C0 [0x2B] Bwi Kaghonsa (ID: 17764593/0x010F10F1) [12020*]:
    → "And that's why I'm going to present you with this rrrare, first-edition autographed chocograph for the Eastern and Western Altepa Deserts."
 60: 0x05C7 [0x23] WAIT_FOR_DIALOG_INTERACTION
 61: 0x05C8 [0x2B] Bwi Kaghonsa (ID: 17764593/0x010F10F1) [12021*]:
    → "Before you go, let me give you a little advice--the sweltering heat and slippery sands of the deserts will take their toll on your bird. Be extra careful in choosing where you dig, because your bird will grow fatigued quickerrr than you're used to."
 62: 0x05CF [0x23] WAIT_FOR_DIALOG_INTERACTION
 63: 0x05D0 [0x2B] Bwi Kaghonsa (ID: 17764593/0x010F10F1) [11995*]:
    → "Now what are you waiting for? Get hunting!"
 64: 0x05D7 [0x23] WAIT_FOR_DIALOG_INTERACTION
 65: 0x05D8 [0x66] LOAD_EXT_SCHEDULER_MAIN: Load scheduler "tlb2" with entities [Bwi Kaghonsa (ID: 17764593/0x010F10F1), Bwi Kaghonsa (ID: 17764593/0x010F10F1)], work=53*
 66: 0x05E7 [0x03] Work_Zone[1] = 4*
 67: 0x05EC [0x01] GOTO 0x0688
 68: 0x05EF [0x02] IF !(Work_Zone[9] == 4*) GOTO 0x0655
 69: 0x05F7 [0x66] LOAD_EXT_SCHEDULER_MAIN: Load scheduler "tlb1" with entities [Bwi Kaghonsa (ID: 17764593/0x010F10F1), Bwi Kaghonsa (ID: 17764593/0x010F10F1)], work=53*
 70: 0x0606 [0x2B] Bwi Kaghonsa (ID: 17764593/0x010F10F1) [11994*]:
    → "Sure! Here's a new $1 for you."
 71: 0x060D [0x23] WAIT_FOR_DIALOG_INTERACTION
 72: 0x060E [0x2B] Bwi Kaghonsa (ID: 17764593/0x010F10F1) [12015*]:
    → "Well, I'll be a kitten in a cantina. My rrrecords show that you and your trusty bird have been tearing up the Buburimu Peninsula lately."
 73: 0x0615 [0x23] WAIT_FOR_DIALOG_INTERACTION
 74: 0x0616 [0x2B] Bwi Kaghonsa (ID: 17764593/0x010F10F1) [12017*]:
    → "It's like I've been telling everybody, "That <Player>'s a natural!""
 75: 0x061D [0x23] WAIT_FOR_DIALOG_INTERACTION
 76: 0x061E [0x2B] Bwi Kaghonsa (ID: 17764593/0x010F10F1) [12011*]:
    → "Well, this is yourrr day, <Player>. I have a brand-spanking-new $3 with yourrr name on it!"
 77: 0x0625 [0x23] WAIT_FOR_DIALOG_INTERACTION
 78: 0x0626 [0x2B] Bwi Kaghonsa (ID: 17764593/0x010F10F1) [12018*]:
    → "And that's why I'm going to present you with this rrrare, first-edition chocograph for the Yuhtunga and Yhoator Jungles!"
 79: 0x062D [0x23] WAIT_FOR_DIALOG_INTERACTION
 80: 0x062E [0x2B] Bwi Kaghonsa (ID: 17764593/0x010F10F1) [12019*]:
    → "Before you go, let me give you a little advice--all those exotic flowers and trees in the jungles, especially that nasty rrrafflesia, will be jamming your chocobo's olfactory radar. You may have to search a wider radius than you're used to."
 81: 0x0635 [0x23] WAIT_FOR_DIALOG_INTERACTION
 82: 0x0636 [0x2B] Bwi Kaghonsa (ID: 17764593/0x010F10F1) [11995*]:
    → "Now what are you waiting for? Get hunting!"
 83: 0x063D [0x23] WAIT_FOR_DIALOG_INTERACTION
 84: 0x063E [0x66] LOAD_EXT_SCHEDULER_MAIN: Load scheduler "tlb2" with entities [Bwi Kaghonsa (ID: 17764593/0x010F10F1), Bwi Kaghonsa (ID: 17764593/0x010F10F1)], work=53*
 85: 0x064D [0x03] Work_Zone[1] = 5*
 86: 0x0652 [0x01] GOTO 0x0688
 87: 0x0655 [0x66] LOAD_EXT_SCHEDULER_MAIN: Load scheduler "tlb1" with entities [Bwi Kaghonsa (ID: 17764593/0x010F10F1), Bwi Kaghonsa (ID: 17764593/0x010F10F1)], work=53*
 88: 0x0664 [0x2B] Bwi Kaghonsa (ID: 17764593/0x010F10F1) [11994*]:
    → "Sure! Here's a new $1 for you."
 89: 0x066B [0x23] WAIT_FOR_DIALOG_INTERACTION
 90: 0x066C [0x2B] Bwi Kaghonsa (ID: 17764593/0x010F10F1) [11995*]:
    → "Now what are you waiting for? Get hunting!"
 91: 0x0673 [0x23] WAIT_FOR_DIALOG_INTERACTION
 92: 0x0674 [0x66] LOAD_EXT_SCHEDULER_MAIN: Load scheduler "tlb2" with entities [Bwi Kaghonsa (ID: 17764593/0x010F10F1), Bwi Kaghonsa (ID: 17764593/0x010F10F1)], work=53*
 93: 0x0683 [0x03] Work_Zone[1] = 1*

SUBROUTINE_0688:
 94: 0x0688 [0x21] END_EVENT
 95: 0x0689 [0x00] END_REQSTACK()

SUBROUTINE_068A:
 96: 0x068A [0x03] Work_Zone[3] = 5429*
 97: 0x068F [0x03] Work_Zone[4] = 851*
 98: 0x0694 [0x03] Work_Zone[5] = 852*
 99: 0x0699 [0x24] CREATE_DIALOG(message_id=11955*, default_option=0*, option_flags=0*)
    → "What do you need to know? [About chocographs./About $1./About how to find the loot./About chocobo abilities./About when the game is over.]"
100: 0x06A0 [0x25] WAIT_DIALOG_SELECT()
101: 0x06A1 [0x02] IF !(Work_Zone[0] == 0*) GOTO 0x06E2
102: 0x06A9 [0x66] LOAD_EXT_SCHEDULER_MAIN: Load scheduler "tlb1" with entities [Bwi Kaghonsa (ID: 17764593/0x010F10F1), Bwi Kaghonsa (ID: 17764593/0x010F10F1)], work=53*
103: 0x06B8 [0x2B] Bwi Kaghonsa (ID: 17764593/0x010F10F1) [11956*]:
    → "Anyone who wants to participate in the Chocobo Hot and Cold Game will require a special chocograph authorizing [him/her] to dig in a cerrrtain area."
104: 0x06BF [0x23] WAIT_FOR_DIALOG_INTERACTION
105: 0x06C0 [0x2B] Bwi Kaghonsa (ID: 17764593/0x010F10F1) [11957*]:
    → "There are several kinds of chocographs for different types of treasure hidden in areas all over Vana'diel."
106: 0x06C7 [0x23] WAIT_FOR_DIALOG_INTERACTION
107: 0x06C8 [0x2B] Bwi Kaghonsa (ID: 17764593/0x010F10F1) [11958*]:
    → "And once you obtain one, it's yours for life, or until you set your gobbiebag on fire."
108: 0x06CF [0x23] WAIT_FOR_DIALOG_INTERACTION
109: 0x06D0 [0x66] LOAD_EXT_SCHEDULER_MAIN: Load scheduler "tlb2" with entities [Bwi Kaghonsa (ID: 17764593/0x010F10F1), Bwi Kaghonsa (ID: 17764593/0x010F10F1)], work=53*
110: 0x06DF [0x01] GOTO 0x083E
111: 0x06E2 [0x02] IF !(Work_Zone[0] == 1*) GOTO 0x072B
112: 0x06EA [0x66] LOAD_EXT_SCHEDULER_MAIN: Load scheduler "tlb1" with entities [Bwi Kaghonsa (ID: 17764593/0x010F10F1), Bwi Kaghonsa (ID: 17764593/0x010F10F1)], work=53*
113: 0x06F9 [0x2B] Bwi Kaghonsa (ID: 17764593/0x010F10F1) [11961*]:
    → "$1 is the item that you'll need to start the game."
114: 0x0700 [0x23] WAIT_FOR_DIALOG_INTERACTION
115: 0x0701 [0x2B] Bwi Kaghonsa (ID: 17764593/0x010F10F1) [11962*]:
    → "Take a clump to the area specified on a chocograph and set it out on the ground. Before you know it, your verrry own chocobo will come galloping gallantly to your side."
116: 0x0708 [0x23] WAIT_FOR_DIALOG_INTERACTION
117: 0x0709 [0x2B] Bwi Kaghonsa (ID: 17764593/0x010F10F1) [11963*]:
    → "Once it arrives, your map will open and you'll have the opportunity to confirm the general location of the burrried treasure in that area."
118: 0x0710 [0x23] WAIT_FOR_DIALOG_INTERACTION
119: 0x0711 [0x2B] Bwi Kaghonsa (ID: 17764593/0x010F10F1) [11964*]:
    → "Please note that once your chocobo has gobbled up the $1, you'll need to obtain another from a VCS representative before playing again."
120: 0x0718 [0x23] WAIT_FOR_DIALOG_INTERACTION
121: 0x0719 [0x66] LOAD_EXT_SCHEDULER_MAIN: Load scheduler "tlb2" with entities [Bwi Kaghonsa (ID: 17764593/0x010F10F1), Bwi Kaghonsa (ID: 17764593/0x010F10F1)], work=53*
122: 0x0728 [0x01] GOTO 0x083E
123: 0x072B [0x02] IF !(Work_Zone[0] == 2*) GOTO 0x079C
124: 0x0733 [0x66] LOAD_EXT_SCHEDULER_MAIN: Load scheduler "tlb1" with entities [Bwi Kaghonsa (ID: 17764593/0x010F10F1), Bwi Kaghonsa (ID: 17764593/0x010F10F1)], work=53*
125: 0x0742 [0x2B] Bwi Kaghonsa (ID: 17764593/0x010F10F1) [11965*]:
    → "Ah yes... I knew you'd want to hear about that. Well, first ride your chocobo out to the location indicated on your map."
126: 0x0749 [0x23] WAIT_FOR_DIALOG_INTERACTION
127: 0x074A [0x2B] Bwi Kaghonsa (ID: 17764593/0x010F10F1) [11966*]:
    → "When you think you're close to where the treasure might be buried, take a test dig and see what happens."
128: 0x0751 [0x23] WAIT_FOR_DIALOG_INTERACTION
129: 0x0752 [0x2B] Bwi Kaghonsa (ID: 17764593/0x010F10F1) [11967*]:
    → "All chocobos have noses for finding burrried goods, and depending on how hot or cold you are (Get it? That's where we got the name for the game!) your steed will react differently."
130: 0x0759 [0x23] WAIT_FOR_DIALOG_INTERACTION
131: 0x075A [0x2B] Bwi Kaghonsa (ID: 17764593/0x010F10F1) [11968*]:
    → "The closer you are, the more drrramatic that reaction will be, so listen carefully."
132: 0x0761 [0x23] WAIT_FOR_DIALOG_INTERACTION
133: 0x0762 [0x2B] Bwi Kaghonsa (ID: 17764593/0x010F10F1) [11969*]:
    → "When you think you've found the spot..."
134: 0x0769 [0x23] WAIT_FOR_DIALOG_INTERACTION
135: 0x076A [0x2B] Bwi Kaghonsa (ID: 17764593/0x010F10F1) [11970*]:
    → "...dig and dig, and then dig some more!"
136: 0x0771 [0x23] WAIT_FOR_DIALOG_INTERACTION
137: 0x0772 [0x2B] Bwi Kaghonsa (ID: 17764593/0x010F10F1) [11971*]:
    → "I'll warn you right now, but some of the loot is pretty deep, so you may have to dig multiple times beforrre you uncover any chests."
138: 0x0779 [0x23] WAIT_FOR_DIALOG_INTERACTION
139: 0x077A [0x2B] Bwi Kaghonsa (ID: 17764593/0x010F10F1) [11972*]:
    → "But, with a little bit of luck and a lot of bits of persistence, you'll be rolling in goodies in no time!"
140: 0x0781 [0x23] WAIT_FOR_DIALOG_INTERACTION
141: 0x0782 [0x2B] Bwi Kaghonsa (ID: 17764593/0x010F10F1) [11973*]:
    → "That's rrright! Once you've unearthed the chest, all that's left is to open it. Whatever you find inside is yours to keep."
142: 0x0789 [0x23] WAIT_FOR_DIALOG_INTERACTION
143: 0x078A [0x66] LOAD_EXT_SCHEDULER_MAIN: Load scheduler "tlb2" with entities [Bwi Kaghonsa (ID: 17764593/0x010F10F1), Bwi Kaghonsa (ID: 17764593/0x010F10F1)], work=53*
144: 0x0799 [0x01] GOTO 0x083E
145: 0x079C [0x02] IF !(Work_Zone[0] == 3*) GOTO 0x07E5
146: 0x07A4 [0x66] LOAD_EXT_SCHEDULER_MAIN: Load scheduler "tlb1" with entities [Bwi Kaghonsa (ID: 17764593/0x010F10F1), Bwi Kaghonsa (ID: 17764593/0x010F10F1)], work=53*
147: 0x07B3 [0x2B] Bwi Kaghonsa (ID: 17764593/0x010F10F1) [11974*]:
    → "Now, to increase your chances of finding treasure, you'll want to know how chocobo abilities can give you that extrrra edge."
148: 0x07BA [0x23] WAIT_FOR_DIALOG_INTERACTION
149: 0x07BB [0x2B] Bwi Kaghonsa (ID: 17764593/0x010F10F1) [11975*]:
    → "The ones that will help you most are "Treasure Finder," "Burrow," and "Bore.""
150: 0x07C2 [0x23] WAIT_FOR_DIALOG_INTERACTION
151: 0x07C3 [0x2B] Bwi Kaghonsa (ID: 17764593/0x010F10F1) [11976*]:
    → "Burrow and Bore will allow you to go deeper with each dig, helping you reach the chest beforrre your bird grows too tired."
152: 0x07CA [0x23] WAIT_FOR_DIALOG_INTERACTION
153: 0x07CB [0x2B] Bwi Kaghonsa (ID: 17764593/0x010F10F1) [11977*]:
    → "Treasure Finder does just that--helps you find the treasure easierrr by honing your chocobo's sense of smell."
154: 0x07D2 [0x23] WAIT_FOR_DIALOG_INTERACTION
155: 0x07D3 [0x66] LOAD_EXT_SCHEDULER_MAIN: Load scheduler "tlb2" with entities [Bwi Kaghonsa (ID: 17764593/0x010F10F1), Bwi Kaghonsa (ID: 17764593/0x010F10F1)], work=53*
156: 0x07E2 [0x01] GOTO 0x083E
157: 0x07E5 [0x02] IF !(Work_Zone[0] == 4*) GOTO 0x083E
158: 0x07ED [0x66] LOAD_EXT_SCHEDULER_MAIN: Load scheduler "tlb1" with entities [Bwi Kaghonsa (ID: 17764593/0x010F10F1), Bwi Kaghonsa (ID: 17764593/0x010F10F1)], work=53*
159: 0x07FC [0x2B] Bwi Kaghonsa (ID: 17764593/0x010F10F1) [11978*]:
    → "Alright, this part is the most important, so I'm going to need you to listen up."
160: 0x0803 [0x23] WAIT_FOR_DIALOG_INTERACTION
161: 0x0804 [0x2B] Bwi Kaghonsa (ID: 17764593/0x010F10F1) [11979*]:
    → "Digging for extended periods of time can rrreally drain a chocobo's strength."
162: 0x080B [0x23] WAIT_FOR_DIALOG_INTERACTION
163: 0x080C [0x2B] Bwi Kaghonsa (ID: 17764593/0x010F10F1) [11980*]:
    → "Push your bird too harrrd, and it may just reach that point where it refuses to dig anymore."
164: 0x0813 [0x23] WAIT_FOR_DIALOG_INTERACTION
165: 0x0814 [0x2B] Bwi Kaghonsa (ID: 17764593/0x010F10F1) [11981*]:
    → "When this happens, you might as well tighten the string on your gobbiebag because you won't be getting any morrre treasure that day."
166: 0x081B [0x23] WAIT_FOR_DIALOG_INTERACTION
167: 0x081C [0x2B] Bwi Kaghonsa (ID: 17764593/0x010F10F1) [11982*]:
    → "In other words, locating the chest in the fewest possible digs will be the key to your success."
168: 0x0823 [0x23] WAIT_FOR_DIALOG_INTERACTION
169: 0x0824 [0x2B] Bwi Kaghonsa (ID: 17764593/0x010F10F1) [11983*]:
    → "Remember that."
170: 0x082B [0x23] WAIT_FOR_DIALOG_INTERACTION
171: 0x082C [0x66] LOAD_EXT_SCHEDULER_MAIN: Load scheduler "tlb2" with entities [Bwi Kaghonsa (ID: 17764593/0x010F10F1), Bwi Kaghonsa (ID: 17764593/0x010F10F1)], work=53*
172: 0x083B [0x01] GOTO 0x083E

SUBROUTINE_083E:
173: 0x083E [0x1B] RETURN
```

#### Data or dead code:

```
# Dead code (unreachable instructions):
     0x04A1 [0x01] GOTO 0x04BD
     0x04BA [0x01] GOTO 0x04BD
```

### Event 770

#### Metadata

| Field        | Value     |
|--------------|-----------|
| Entrypoint   | 0x083F    |
| Data Size    | 112 bytes |
| Instructions | 22        |

```
      00 01 02 03 04 05 06 07  08 09 0A 0B 0C 0D 0E 0F
      -- -- -- -- -- -- -- --  -- -- -- -- -- -- -- --
0830:                                               42                 B
0840: 03 03 10 19 80 4A F1 10  0F 01 F0 FF FF 7F 66 00  .....J........f.
0850: 80 F1 10 0F 01 F1 10 0F  01 74 6C 62 31 2B F1 10  .........tlb1+..
0860: 0F 01 60 80 23 2B F1 10  0F 01 61 80 23 2B F1 10  ..`.#+....a.#+..
0870: 0F 01 62 80 23 2B F1 10  0F 01 63 80 23 66 00 80  ..b.#+....c.#f..
0880: F1 10 0F 01 F1 10 0F 01  74 6C 62 32 24 64 80 14  ........tlb2$d..
0890: 80 14 80 25 02 00 10 14  80 00 A2 08 1A 17 09 01  ...%............
08A0: AD 08 02 00 10 16 80 00  AD 08 01 AD 08 21 00     .............!. 
```

#### Opcodes

```
  0: 0x083F [0x42] SET_CLI_EVENT_CANCEL_DATA()
  1: 0x0840 [0x03] Work_Zone[3] = 5429*
  2: 0x0845 [0x4A] Bwi Kaghonsa (ID: 17764593/0x010F10F1) looks at LocalPlayer
  3: 0x084E [0x66] LOAD_EXT_SCHEDULER_MAIN: Load scheduler "tlb1" with entities [Bwi Kaghonsa (ID: 17764593/0x010F10F1), Bwi Kaghonsa (ID: 17764593/0x010F10F1)], work=53*
  4: 0x085D [0x2B] Bwi Kaghonsa (ID: 17764593/0x010F10F1) [12000*]:
    → "Step rrright up and take part in the most fantastical game to ever be played on Vana'diel."
  5: 0x0864 [0x23] WAIT_FOR_DIALOG_INTERACTION
  6: 0x0865 [0x2B] Bwi Kaghonsa (ID: 17764593/0x010F10F1) [12001*]:
    → "Let me get you started with one of these--"
  7: 0x086C [0x23] WAIT_FOR_DIALOG_INTERACTION
  8: 0x086D [0x2B] Bwi Kaghonsa (ID: 17764593/0x010F10F1) [12002*]:
    → "Oh, I see you already have $1."
  9: 0x0874 [0x23] WAIT_FOR_DIALOG_INTERACTION
 10: 0x0875 [0x2B] Bwi Kaghonsa (ID: 17764593/0x010F10F1) [12003*]:
    → "You'll have to use that one before I can give you anotherrr. Thank you, come again!"
 11: 0x087C [0x23] WAIT_FOR_DIALOG_INTERACTION
 12: 0x087D [0x66] LOAD_EXT_SCHEDULER_MAIN: Load scheduler "tlb2" with entities [Bwi Kaghonsa (ID: 17764593/0x010F10F1), Bwi Kaghonsa (ID: 17764593/0x010F10F1)], work=53*
 13: 0x088C [0x24] CREATE_DIALOG(message_id=11999*, default_option=0*, option_flags=0*)
    → "Do you need to review the rules? [Yes./No.]"
 14: 0x0893 [0x25] WAIT_DIALOG_SELECT()
 15: 0x0894 [0x02] IF !(Work_Zone[0] == 0*) GOTO 0x08A2
 16: 0x089C [0x1A] CALL_SUBROUTINE(address=0x0917)
 17: 0x089F [0x01] GOTO 0x08AD
 18: 0x08A2 [0x02] IF !(Work_Zone[0] == 1*) GOTO 0x08AD
 19: 0x08AA [0x01] GOTO 0x08AD

SUBROUTINE_08AD:
 20: 0x08AD [0x21] END_EVENT
 21: 0x08AE [0x00] END_REQSTACK()
```

### Event 771

#### Metadata

| Field        | Value     |
|--------------|-----------|
| Entrypoint   | 0x08AF    |
| Data Size    | 541 bytes |
| Instructions | 98        |

```
      00 01 02 03 04 05 06 07  08 09 0A 0B 0C 0D 0E 0F
      -- -- -- -- -- -- -- --  -- -- -- -- -- -- -- --
08A0:                                               42                 B
08B0: 03 03 10 19 80 4A F1 10  0F 01 F0 FF FF 7F 66 00  .....J........f.
08C0: 80 F1 10 0F 01 F1 10 0F  01 74 6C 62 31 2B F1 10  .........tlb1+..
08D0: 0F 01 65 80 23 2B F1 10  0F 01 66 80 23 2B F1 10  ..e.#+....f.#+..
08E0: 0F 01 67 80 23 66 00 80  F1 10 0F 01 F1 10 0F 01  ..g.#f..........
08F0: 74 6C 62 32 24 64 80 14  80 14 80 25 02 00 10 14  tlb2$d.....%....
0900: 80 00 0A 09 1A 17 09 01  15 09 02 00 10 16 80 00  ................
0910: 15 09 01 15 09 21 00 03  03 10 19 80 03 04 10 1A  .....!..........
0920: 80 03 05 10 1B 80 24 1C  80 14 80 14 80 25 02 00  ......$......%..
0930: 10 14 80 00 6F 09 66 00  80 F1 10 0F 01 F1 10 0F  ....o.f.........
0940: 01 74 6C 62 31 2B F1 10  0F 01 1D 80 23 2B F1 10  .tlb1+......#+..
0950: 0F 01 1E 80 23 2B F1 10  0F 01 1F 80 23 66 00 80  ....#+......#f..
0960: F1 10 0F 01 F1 10 0F 01  74 6C 62 32 01 CB 0A 02  ........tlb2....
0970: 00 10 16 80 00 B8 09 66  00 80 F1 10 0F 01 F1 10  .......f........
0980: 0F 01 74 6C 62 31 2B F1  10 0F 01 21 80 23 2B F1  ..tlb1+....!.#+.
0990: 10 0F 01 22 80 23 2B F1  10 0F 01 23 80 23 2B F1  ...".#+....#.#+.
09A0: 10 0F 01 24 80 23 66 00  80 F1 10 0F 01 F1 10 0F  ...$.#f.........
09B0: 01 74 6C 62 32 01 CB 0A  02 00 10 25 80 00 29 0A  .tlb2......%..).
09C0: 66 00 80 F1 10 0F 01 F1  10 0F 01 74 6C 62 31 2B  f..........tlb1+
09D0: F1 10 0F 01 26 80 23 2B  F1 10 0F 01 27 80 23 2B  ....&.#+....'.#+
09E0: F1 10 0F 01 28 80 23 2B  F1 10 0F 01 29 80 23 2B  ....(.#+....).#+
09F0: F1 10 0F 01 2A 80 23 2B  F1 10 0F 01 2B 80 23 2B  ....*.#+....+.#+
0A00: F1 10 0F 01 2C 80 23 2B  F1 10 0F 01 2D 80 23 2B  ....,.#+....-.#+
0A10: F1 10 0F 01 2E 80 23 66  00 80 F1 10 0F 01 F1 10  ......#f........
0A20: 0F 01 74 6C 62 32 01 CB  0A 02 00 10 30 80 00 72  ..tlb2......0..r
0A30: 0A 66 00 80 F1 10 0F 01  F1 10 0F 01 74 6C 62 31  .f..........tlb1
0A40: 2B F1 10 0F 01 31 80 23  2B F1 10 0F 01 32 80 23  +....1.#+....2.#
0A50: 2B F1 10 0F 01 33 80 23  2B F1 10 0F 01 34 80 23  +....3.#+....4.#
0A60: 66 00 80 F1 10 0F 01 F1  10 0F 01 74 6C 62 32 01  f..........tlb2.
0A70: CB 0A 02 00 10 2F 80 00  CB 0A 66 00 80 F1 10 0F  ...../....f.....
0A80: 01 F1 10 0F 01 74 6C 62  31 2B F1 10 0F 01 36 80  .....tlb1+....6.
0A90: 23 2B F1 10 0F 01 37 80  23 2B F1 10 0F 01 38 80  #+....7.#+....8.
0AA0: 23 2B F1 10 0F 01 39 80  23 2B F1 10 0F 01 3A 80  #+....9.#+....:.
0AB0: 23 2B F1 10 0F 01 3B 80  23 66 00 80 F1 10 0F 01  #+....;.#f......
0AC0: F1 10 0F 01 74 6C 62 32  01 CB 0A 1B              ....tlb2....    
```

#### Opcodes

```
  0: 0x08AF [0x42] SET_CLI_EVENT_CANCEL_DATA()
  1: 0x08B0 [0x03] Work_Zone[3] = 5429*
  2: 0x08B5 [0x4A] Bwi Kaghonsa (ID: 17764593/0x010F10F1) looks at LocalPlayer
  3: 0x08BE [0x66] LOAD_EXT_SCHEDULER_MAIN: Load scheduler "tlb1" with entities [Bwi Kaghonsa (ID: 17764593/0x010F10F1), Bwi Kaghonsa (ID: 17764593/0x010F10F1)], work=53*
  4: 0x08CD [0x2B] Bwi Kaghonsa (ID: 17764593/0x010F10F1) [11996*]:
    → "How's the digging going? You find anything interrresting?"
  5: 0x08D4 [0x23] WAIT_FOR_DIALOG_INTERACTION
  6: 0x08D5 [0x2B] Bwi Kaghonsa (ID: 17764593/0x010F10F1) [11997*]:
    → "If you came for another $1 then you're out of luck."
  7: 0x08DC [0x23] WAIT_FOR_DIALOG_INTERACTION
  8: 0x08DD [0x2B] Bwi Kaghonsa (ID: 17764593/0x010F10F1) [11998*]:
    → "You'll have to let your chocobo rest a little more before I can give you any morrre."
  9: 0x08E4 [0x23] WAIT_FOR_DIALOG_INTERACTION
 10: 0x08E5 [0x66] LOAD_EXT_SCHEDULER_MAIN: Load scheduler "tlb2" with entities [Bwi Kaghonsa (ID: 17764593/0x010F10F1), Bwi Kaghonsa (ID: 17764593/0x010F10F1)], work=53*
 11: 0x08F4 [0x24] CREATE_DIALOG(message_id=11999*, default_option=0*, option_flags=0*)
    → "Do you need to review the rules? [Yes./No.]"
 12: 0x08FB [0x25] WAIT_DIALOG_SELECT()
 13: 0x08FC [0x02] IF !(Work_Zone[0] == 0*) GOTO 0x090A
 14: 0x0904 [0x1A] CALL_SUBROUTINE(address=0x0917)
 15: 0x0907 [0x01] GOTO 0x0915
 16: 0x090A [0x02] IF !(Work_Zone[0] == 1*) GOTO 0x0915
 17: 0x0912 [0x01] GOTO 0x0915

SUBROUTINE_0915:
 18: 0x0915 [0x21] END_EVENT
 19: 0x0916 [0x00] END_REQSTACK()

SUBROUTINE_0917:
 20: 0x0917 [0x03] Work_Zone[3] = 5429*
 21: 0x091C [0x03] Work_Zone[4] = 851*
 22: 0x0921 [0x03] Work_Zone[5] = 852*
 23: 0x0926 [0x24] CREATE_DIALOG(message_id=11955*, default_option=0*, option_flags=0*)
    → "What do you need to know? [About chocographs./About $1./About how to find the loot./About chocobo abilities./About when the game is over.]"
 24: 0x092D [0x25] WAIT_DIALOG_SELECT()
 25: 0x092E [0x02] IF !(Work_Zone[0] == 0*) GOTO 0x096F
 26: 0x0936 [0x66] LOAD_EXT_SCHEDULER_MAIN: Load scheduler "tlb1" with entities [Bwi Kaghonsa (ID: 17764593/0x010F10F1), Bwi Kaghonsa (ID: 17764593/0x010F10F1)], work=53*
 27: 0x0945 [0x2B] Bwi Kaghonsa (ID: 17764593/0x010F10F1) [11956*]:
    → "Anyone who wants to participate in the Chocobo Hot and Cold Game will require a special chocograph authorizing [him/her] to dig in a cerrrtain area."
 28: 0x094C [0x23] WAIT_FOR_DIALOG_INTERACTION
 29: 0x094D [0x2B] Bwi Kaghonsa (ID: 17764593/0x010F10F1) [11957*]:
    → "There are several kinds of chocographs for different types of treasure hidden in areas all over Vana'diel."
 30: 0x0954 [0x23] WAIT_FOR_DIALOG_INTERACTION
 31: 0x0955 [0x2B] Bwi Kaghonsa (ID: 17764593/0x010F10F1) [11958*]:
    → "And once you obtain one, it's yours for life, or until you set your gobbiebag on fire."
 32: 0x095C [0x23] WAIT_FOR_DIALOG_INTERACTION
 33: 0x095D [0x66] LOAD_EXT_SCHEDULER_MAIN: Load scheduler "tlb2" with entities [Bwi Kaghonsa (ID: 17764593/0x010F10F1), Bwi Kaghonsa (ID: 17764593/0x010F10F1)], work=53*
 34: 0x096C [0x01] GOTO 0x0ACB
 35: 0x096F [0x02] IF !(Work_Zone[0] == 1*) GOTO 0x09B8
 36: 0x0977 [0x66] LOAD_EXT_SCHEDULER_MAIN: Load scheduler "tlb1" with entities [Bwi Kaghonsa (ID: 17764593/0x010F10F1), Bwi Kaghonsa (ID: 17764593/0x010F10F1)], work=53*
 37: 0x0986 [0x2B] Bwi Kaghonsa (ID: 17764593/0x010F10F1) [11961*]:
    → "$1 is the item that you'll need to start the game."
 38: 0x098D [0x23] WAIT_FOR_DIALOG_INTERACTION
 39: 0x098E [0x2B] Bwi Kaghonsa (ID: 17764593/0x010F10F1) [11962*]:
    → "Take a clump to the area specified on a chocograph and set it out on the ground. Before you know it, your verrry own chocobo will come galloping gallantly to your side."
 40: 0x0995 [0x23] WAIT_FOR_DIALOG_INTERACTION
 41: 0x0996 [0x2B] Bwi Kaghonsa (ID: 17764593/0x010F10F1) [11963*]:
    → "Once it arrives, your map will open and you'll have the opportunity to confirm the general location of the burrried treasure in that area."
 42: 0x099D [0x23] WAIT_FOR_DIALOG_INTERACTION
 43: 0x099E [0x2B] Bwi Kaghonsa (ID: 17764593/0x010F10F1) [11964*]:
    → "Please note that once your chocobo has gobbled up the $1, you'll need to obtain another from a VCS representative before playing again."
 44: 0x09A5 [0x23] WAIT_FOR_DIALOG_INTERACTION
 45: 0x09A6 [0x66] LOAD_EXT_SCHEDULER_MAIN: Load scheduler "tlb2" with entities [Bwi Kaghonsa (ID: 17764593/0x010F10F1), Bwi Kaghonsa (ID: 17764593/0x010F10F1)], work=53*
 46: 0x09B5 [0x01] GOTO 0x0ACB
 47: 0x09B8 [0x02] IF !(Work_Zone[0] == 2*) GOTO 0x0A29
 48: 0x09C0 [0x66] LOAD_EXT_SCHEDULER_MAIN: Load scheduler "tlb1" with entities [Bwi Kaghonsa (ID: 17764593/0x010F10F1), Bwi Kaghonsa (ID: 17764593/0x010F10F1)], work=53*
 49: 0x09CF [0x2B] Bwi Kaghonsa (ID: 17764593/0x010F10F1) [11965*]:
    → "Ah yes... I knew you'd want to hear about that. Well, first ride your chocobo out to the location indicated on your map."
 50: 0x09D6 [0x23] WAIT_FOR_DIALOG_INTERACTION
 51: 0x09D7 [0x2B] Bwi Kaghonsa (ID: 17764593/0x010F10F1) [11966*]:
    → "When you think you're close to where the treasure might be buried, take a test dig and see what happens."
 52: 0x09DE [0x23] WAIT_FOR_DIALOG_INTERACTION
 53: 0x09DF [0x2B] Bwi Kaghonsa (ID: 17764593/0x010F10F1) [11967*]:
    → "All chocobos have noses for finding burrried goods, and depending on how hot or cold you are (Get it? That's where we got the name for the game!) your steed will react differently."
 54: 0x09E6 [0x23] WAIT_FOR_DIALOG_INTERACTION
 55: 0x09E7 [0x2B] Bwi Kaghonsa (ID: 17764593/0x010F10F1) [11968*]:
    → "The closer you are, the more drrramatic that reaction will be, so listen carefully."
 56: 0x09EE [0x23] WAIT_FOR_DIALOG_INTERACTION
 57: 0x09EF [0x2B] Bwi Kaghonsa (ID: 17764593/0x010F10F1) [11969*]:
    → "When you think you've found the spot..."
 58: 0x09F6 [0x23] WAIT_FOR_DIALOG_INTERACTION
 59: 0x09F7 [0x2B] Bwi Kaghonsa (ID: 17764593/0x010F10F1) [11970*]:
    → "...dig and dig, and then dig some more!"
 60: 0x09FE [0x23] WAIT_FOR_DIALOG_INTERACTION
 61: 0x09FF [0x2B] Bwi Kaghonsa (ID: 17764593/0x010F10F1) [11971*]:
    → "I'll warn you right now, but some of the loot is pretty deep, so you may have to dig multiple times beforrre you uncover any chests."
 62: 0x0A06 [0x23] WAIT_FOR_DIALOG_INTERACTION
 63: 0x0A07 [0x2B] Bwi Kaghonsa (ID: 17764593/0x010F10F1) [11972*]:
    → "But, with a little bit of luck and a lot of bits of persistence, you'll be rolling in goodies in no time!"
 64: 0x0A0E [0x23] WAIT_FOR_DIALOG_INTERACTION
 65: 0x0A0F [0x2B] Bwi Kaghonsa (ID: 17764593/0x010F10F1) [11973*]:
    → "That's rrright! Once you've unearthed the chest, all that's left is to open it. Whatever you find inside is yours to keep."
 66: 0x0A16 [0x23] WAIT_FOR_DIALOG_INTERACTION
 67: 0x0A17 [0x66] LOAD_EXT_SCHEDULER_MAIN: Load scheduler "tlb2" with entities [Bwi Kaghonsa (ID: 17764593/0x010F10F1), Bwi Kaghonsa (ID: 17764593/0x010F10F1)], work=53*
 68: 0x0A26 [0x01] GOTO 0x0ACB
 69: 0x0A29 [0x02] IF !(Work_Zone[0] == 3*) GOTO 0x0A72
 70: 0x0A31 [0x66] LOAD_EXT_SCHEDULER_MAIN: Load scheduler "tlb1" with entities [Bwi Kaghonsa (ID: 17764593/0x010F10F1), Bwi Kaghonsa (ID: 17764593/0x010F10F1)], work=53*
 71: 0x0A40 [0x2B] Bwi Kaghonsa (ID: 17764593/0x010F10F1) [11974*]:
    → "Now, to increase your chances of finding treasure, you'll want to know how chocobo abilities can give you that extrrra edge."
 72: 0x0A47 [0x23] WAIT_FOR_DIALOG_INTERACTION
 73: 0x0A48 [0x2B] Bwi Kaghonsa (ID: 17764593/0x010F10F1) [11975*]:
    → "The ones that will help you most are "Treasure Finder," "Burrow," and "Bore.""
 74: 0x0A4F [0x23] WAIT_FOR_DIALOG_INTERACTION
 75: 0x0A50 [0x2B] Bwi Kaghonsa (ID: 17764593/0x010F10F1) [11976*]:
    → "Burrow and Bore will allow you to go deeper with each dig, helping you reach the chest beforrre your bird grows too tired."
 76: 0x0A57 [0x23] WAIT_FOR_DIALOG_INTERACTION
 77: 0x0A58 [0x2B] Bwi Kaghonsa (ID: 17764593/0x010F10F1) [11977*]:
    → "Treasure Finder does just that--helps you find the treasure easierrr by honing your chocobo's sense of smell."
 78: 0x0A5F [0x23] WAIT_FOR_DIALOG_INTERACTION
 79: 0x0A60 [0x66] LOAD_EXT_SCHEDULER_MAIN: Load scheduler "tlb2" with entities [Bwi Kaghonsa (ID: 17764593/0x010F10F1), Bwi Kaghonsa (ID: 17764593/0x010F10F1)], work=53*
 80: 0x0A6F [0x01] GOTO 0x0ACB
 81: 0x0A72 [0x02] IF !(Work_Zone[0] == 4*) GOTO 0x0ACB
 82: 0x0A7A [0x66] LOAD_EXT_SCHEDULER_MAIN: Load scheduler "tlb1" with entities [Bwi Kaghonsa (ID: 17764593/0x010F10F1), Bwi Kaghonsa (ID: 17764593/0x010F10F1)], work=53*
 83: 0x0A89 [0x2B] Bwi Kaghonsa (ID: 17764593/0x010F10F1) [11978*]:
    → "Alright, this part is the most important, so I'm going to need you to listen up."
 84: 0x0A90 [0x23] WAIT_FOR_DIALOG_INTERACTION
 85: 0x0A91 [0x2B] Bwi Kaghonsa (ID: 17764593/0x010F10F1) [11979*]:
    → "Digging for extended periods of time can rrreally drain a chocobo's strength."
 86: 0x0A98 [0x23] WAIT_FOR_DIALOG_INTERACTION
 87: 0x0A99 [0x2B] Bwi Kaghonsa (ID: 17764593/0x010F10F1) [11980*]:
    → "Push your bird too harrrd, and it may just reach that point where it refuses to dig anymore."
 88: 0x0AA0 [0x23] WAIT_FOR_DIALOG_INTERACTION
 89: 0x0AA1 [0x2B] Bwi Kaghonsa (ID: 17764593/0x010F10F1) [11981*]:
    → "When this happens, you might as well tighten the string on your gobbiebag because you won't be getting any morrre treasure that day."
 90: 0x0AA8 [0x23] WAIT_FOR_DIALOG_INTERACTION
 91: 0x0AA9 [0x2B] Bwi Kaghonsa (ID: 17764593/0x010F10F1) [11982*]:
    → "In other words, locating the chest in the fewest possible digs will be the key to your success."
 92: 0x0AB0 [0x23] WAIT_FOR_DIALOG_INTERACTION
 93: 0x0AB1 [0x2B] Bwi Kaghonsa (ID: 17764593/0x010F10F1) [11983*]:
    → "Remember that."
 94: 0x0AB8 [0x23] WAIT_FOR_DIALOG_INTERACTION
 95: 0x0AB9 [0x66] LOAD_EXT_SCHEDULER_MAIN: Load scheduler "tlb2" with entities [Bwi Kaghonsa (ID: 17764593/0x010F10F1), Bwi Kaghonsa (ID: 17764593/0x010F10F1)], work=53*
 96: 0x0AC8 [0x01] GOTO 0x0ACB

SUBROUTINE_0ACB:
 97: 0x0ACB [0x1B] RETURN
```

### Event 772

#### Metadata

| Field        | Value    |
|--------------|----------|
| Entrypoint   | 0x0ACC   |
| Data Size    | 66 bytes |
| Instructions | 12       |

```
      00 01 02 03 04 05 06 07  08 09 0A 0B 0C 0D 0E 0F
      -- -- -- -- -- -- -- --  -- -- -- -- -- -- -- --
0AC0:                                      42 4A F1 10              BJ..
0AD0: 0F 01 F0 FF FF 7F 66 00  80 F1 10 0F 01 F1 10 0F  ......f.........
0AE0: 01 74 6C 62 31 2B F1 10  0F 01 68 80 23 2B F1 10  .tlb1+....h.#+..
0AF0: 0F 01 69 80 23 2B F1 10  0F 01 6A 80 23 66 00 80  ..i.#+....j.#f..
0B00: F1 10 0F 01 F1 10 0F 01  74 6C 62 32 21 00        ........tlb2!.  
```

#### Opcodes

```
  0: 0x0ACC [0x42] SET_CLI_EVENT_CANCEL_DATA()
  1: 0x0ACD [0x4A] Bwi Kaghonsa (ID: 17764593/0x010F10F1) looks at LocalPlayer
  2: 0x0AD6 [0x66] LOAD_EXT_SCHEDULER_MAIN: Load scheduler "tlb1" with entities [Bwi Kaghonsa (ID: 17764593/0x010F10F1), Bwi Kaghonsa (ID: 17764593/0x010F10F1)], work=53*
  3: 0x0AE5 [0x2B] Bwi Kaghonsa (ID: 17764593/0x010F10F1) [12004*]:
    → "You like digging? I know you do! I can see the shovels in your eyes! Step rrright up and--"
  4: 0x0AEC [0x23] WAIT_FOR_DIALOG_INTERACTION
  5: 0x0AED [0x2B] Bwi Kaghonsa (ID: 17764593/0x010F10F1) [12005*]:
    → "Wait a minute, you don't currently have a chocobo in the stables, do you?"
  6: 0x0AF4 [0x23] WAIT_FOR_DIALOG_INTERACTION
  7: 0x0AF5 [0x2B] Bwi Kaghonsa (ID: 17764593/0x010F10F1) [12006*]:
    → "Well, then what are you waiting for? Get breeding! Come on, go, go, go!"
  8: 0x0AFC [0x23] WAIT_FOR_DIALOG_INTERACTION
  9: 0x0AFD [0x66] LOAD_EXT_SCHEDULER_MAIN: Load scheduler "tlb2" with entities [Bwi Kaghonsa (ID: 17764593/0x010F10F1), Bwi Kaghonsa (ID: 17764593/0x010F10F1)], work=53*
 10: 0x0B0C [0x21] END_EVENT
 11: 0x0B0D [0x00] END_REQSTACK()
```
