# 17764524 - Uuroro

## Common Data

| Field            | Value                    |
|------------------|--------------------------|
| Zone             | Windurst Woods (ID: 241) |
| Block Size       | 48 bytes                 |
| Total Events     | 2                        |
| References Count | 2                        |

## List of Events

| Event ID              | Entrypoint   |   Size |   Instructions |
|-----------------------|--------------|--------|----------------|
| [65535](#event-65535) | 0x0000       |      1 |              1 |
| [272](#event-272)     | 0x0001       |     12 |              7 |

## DAT References (imed_data)

|   Index | Hex Value   |   Dec Value |
|---------|-------------|-------------|
|       0 | 0x1F6A      |        8042 |
|       1 | 0x1F6B      |        8043 |

## String References

- **8042**: One more time...
- **8043**: "The rain in La Theine falls mainly on the plains."

## Events

### Event 65535

#### Metadata

| Field        | Value   |
|--------------|---------|
| Entrypoint   | 0x0000  |
| Data Size    | 1 bytes |
| Instructions | 1       |

```
      00 01 02 03 04 05 06 07  08 09 0A 0B 0C 0D 0E 0F
      -- -- -- -- -- -- -- --  -- -- -- -- -- -- -- --
0000: 00                                                .               
```

#### Opcodes

```
  0: 0x0000 [0x00] END_REQSTACK()
```

### Event 272

#### Metadata

| Field        | Value    |
|--------------|----------|
| Entrypoint   | 0x0001   |
| Data Size    | 12 bytes |
| Instructions | 7        |

```
      00 01 02 03 04 05 06 07  08 09 0A 0B 0C 0D 0E 0F
      -- -- -- -- -- -- -- --  -- -- -- -- -- -- -- --
0000:    1D 00 80 23 1D 01 80  23 20 00 21 00            ...#...# .!.   
```

#### Opcodes

```
  0: 0x0001 [0x1D] PRINT_EVENT_MESSAGE(message_id=8042*)
    → "One more time..."
  1: 0x0004 [0x23] WAIT_FOR_DIALOG_INTERACTION
  2: 0x0005 [0x1D] PRINT_EVENT_MESSAGE(message_id=8043*)
    → ""The rain in La Theine falls mainly on the plains.""
  3: 0x0008 [0x23] WAIT_FOR_DIALOG_INTERACTION
  4: 0x0009 [0x20] SET_CLI_EVENT_UC_FLAG: Unlock player control
  5: 0x000B [0x21] END_EVENT
  6: 0x000C [0x00] END_REQSTACK()
```
