# 17764444

## Common Data

| Field            | Value                    |
|------------------|--------------------------|
| Zone             | Windurst Woods (ID: 241) |
| Block Size       | 5052 bytes               |
| Total Events     | 2                        |
| References Count | 114                      |

## List of Events

| Event ID              | Entrypoint   |   Size |   Instructions |
|-----------------------|--------------|--------|----------------|
| [65535](#event-65535) | 0x0000       |      1 |              1 |
| [773](#event-773)     | 0x0001       |   4568 |            975 |

## DAT References (imed_data)

|   Index | Hex Value   |   Dec Value |
|---------|-------------|-------------|
|       0 | 0x0000      |           0 |
|       1 | 0x2A1C      |       10780 |
|       2 | 0x0002      |           2 |
|       3 | 0x0001      |           1 |
|       4 | 0x0003      |           3 |
|       5 | 0x0004      |           4 |
|       6 | 0x0005      |           5 |
|       7 | 0x0006      |           6 |
|       8 | 0x0007      |           7 |
|       9 | 0x00E8      |         232 |
|      10 | 0x0008      |           8 |
|      11 | 0x0009      |           9 |
|      12 | 0x000A      |          10 |
|      13 | 0x000B      |          11 |
|      14 | 0x000C      |          12 |
|      15 | 0x000D      |          13 |
|      16 | 0x01CE      |         462 |
|      17 | 0x2A76      |       10870 |
|      18 | 0x2A38      |       10808 |
|      19 | 0x02CE      |         718 |
|      20 | 0x0010      |          16 |
|      21 | 0x0017      |          23 |
|      22 | 0x0018      |          24 |
|      23 | 0x001F      |          31 |
|      24 | 0x00CF      |         207 |
|      25 | 0x2A36      |       10806 |
|      26 | 0x2A37      |       10807 |
|      27 | 0x01CF      |         463 |
|      28 | 0x02CF      |         719 |
|      29 | 0x00D5      |         213 |
|      30 | 0x2A34      |       10804 |
|      31 | 0x02D5      |         725 |
|      32 | 0x01D5      |         469 |
|      33 | 0x03D5      |         981 |
|      34 | 0x04D5      |        1237 |
|      35 | 0x0AD5      |        2773 |
|      36 | 0x2A35      |       10805 |
|      37 | 0x05D5      |        1493 |
|      38 | 0x06D5      |        1749 |
|      39 | 0x07D5      |        2005 |
|      40 | 0x08D5      |        2261 |
|      41 | 0x09D5      |        2517 |
|      42 | 0x0BD5      |        3029 |
|      43 | 0x2A33      |       10803 |
|      44 | 0x01EE      |         494 |
|      45 | 0x02EE      |         750 |
|      46 | 0x03EE      |        1006 |
|      47 | 0x04EE      |        1262 |
|      48 | 0x05EE      |        1518 |
|      49 | 0x06EE      |        1774 |
|      50 | 0x07EE      |        2030 |
|      51 | 0x2A31      |       10801 |
|      52 | 0x01ED      |         493 |
|      53 | 0x2A6F      |       10863 |
|      54 | 0x00ED      |         237 |
|      55 | 0x2A32      |       10802 |
|      56 | 0x02ED      |         749 |
|      57 | 0x2A30      |       10800 |
|      58 | 0x00EC      |         236 |
|      59 | 0x000F      |          15 |
|      60 | 0x2A2A      |       10794 |
|      61 | 0x2A23      |       10787 |
|      62 | 0x00E6      |         230 |
|      63 | 0x2A1F      |       10783 |
|      64 | 0xFFFFFFFF  |  4294967295 |
|      65 | 0x00FF      |         255 |
|      66 | 0x0100      |         256 |
|      67 | 0x00E4      |         228 |
|      68 | 0x2A77      |       10871 |
|      69 | 0x00E3      |         227 |
|      70 | 0x2A1E      |       10782 |
|      71 | 0x00E2      |         226 |
|      72 | 0x2A1D      |       10781 |
|      73 | 0x00E7      |         231 |
|      74 | 0x2A20      |       10784 |
|      75 | 0x0064      |         100 |
|      76 | 0x2A21      |       10785 |
|      77 | 0x2A22      |       10786 |
|      78 | 0x00E5      |         229 |
|      79 | 0x2A42      |       10818 |
|      80 | 0x2A44      |       10820 |
|      81 | 0x2A2E      |       10798 |
|      82 | 0x2A7A      |       10874 |
|      83 | 0x00E9      |         233 |
|      84 | 0x2A2F      |       10799 |
|      85 | 0x00EB      |         235 |
|      86 | 0x00EA      |         234 |
|      87 | 0x00D1      |         209 |
|      88 | 0x00D3      |         211 |
|      89 | 0x2A2B      |       10795 |
|      90 | 0x01D3      |         467 |
|      91 | 0x02D3      |         723 |
|      92 | 0x03D3      |         979 |
|      93 | 0x04D3      |        1235 |
|      94 | 0x05D3      |        1491 |
|      95 | 0x00D4      |         212 |
|      96 | 0x2A2C      |       10796 |
|      97 | 0x01D4      |         468 |
|      98 | 0x02D4      |         724 |
|      99 | 0x03D4      |         980 |
|     100 | 0x04D4      |        1236 |
|     101 | 0x05D4      |        1492 |
|     102 | 0x06D4      |        1748 |
|     103 | 0x07D4      |        2004 |
|     104 | 0x08D4      |        2260 |
|     105 | 0x09D4      |        2516 |
|     106 | 0x0AD4      |        2772 |
|     107 | 0x00D2      |         210 |
|     108 | 0x2A2D      |       10797 |
|     109 | 0x01D2      |         466 |
|     110 | 0x02D2      |         722 |
|     111 | 0x03D2      |         978 |
|     112 | 0x04D2      |        1234 |
|     113 | 0x05D2      |        1490 |

## String References

- **10780**: Debug menu for %0%1: [Move time forward./See an event./Change to default./Naming test./Weather check test (Ronfaure)./Confirm chocobo status./Alter chocobo status./User work display./Control status./Control growth stages./Control DNA./Receive item./Control flags./Abilities./Cancel.]
- **10781**: Skip events after moving time forward? [Skip all events./Don't skip events.]
- **10782**: Please specify the amount of time you wish to move forward (1-255).
- **10783**: Please specify your desired [strength/endurance/discernment/receptivity/affection/HP/satisfaction] level (Maximum of 255).
- **10784**: Choose your range in hundreds. [000-099./100-199."00-255./Cancel.]
- **10785**: Choose your range in tens. [00-09./10-19."0-29."0-39./40-49./50-59./60-69./70-79./80-89./90-99./Cancel.]
- **10786**: Choose your range to the single digit. [0./1."."./4./5./6./7./8./9./Cancel.]
- **10787**: Choose an area. [San d'Oria./Bastok./Windurst./Chocobo Circuit (Debug only)./Cancel.]
- **10794**: Choose a statistic to alter. [Strength (STR)./Endurance (VIT)./Discernment (INT)./Receptivity (MND)./Affection./Energy (HP)./Satisfaction./Temperament./Weather preference./Color./Stable./Cancel.]
- **10795**: Pick a temperament (Currently [regular/fierce/patient/nervous/mysterious]) [Regular./Fierce/Patient./Nervous./Mysterious./Cancel.]
- **10796**: Pick a preference (currently [sunny/fire/water/earth/wind/snow/thunder/light/dark/--/cloudy]) [Sunny./Cloudy./Heat./Snow./Wind./Sand./Thunder./Rain./Light./Dark./Cancel.]
- **10797**: Pick a color, any color. [Yellow./Black./Blue./Red./Green./Cancel.]
- **10798**: Select an option. [Check status./Inflict status./Heal status./Inflict status.(Do it next cluc.)/Cancel.]
- **10799**: Which status abnormality? [Injury./Minor illness./Stomachache./Loneliness./Happiness./Laziness./Serious illness./Confusion./Spoiled chocobo./Runaway./In love./Crying at night./Vitality./Intelligence./Cancel.]
- **10800**: Pick a growth stage. [Not raising chocobo./Egg./Chick./Young chocobo./Mature chocobo./Peak ability./Settling down./Retirement./Cancel.]
- **10801**: Pick one. [Y/B/b/R/G/Cancel.]
- **10802**: $P14-;$P14=%f5\\7)$6881847 5H"
- **10803**: Pick one. [Egg 1./Egg 2./Egg 3./Egg 4./Egg 5./Matchmaking card (M)./Matchmaking card (F)./Cancel.]
- **10804**: Whaddaya want? [One day flag ([off/on])/Zone flag ([off/on])/Key item to stop crying ([off/on])/Key item: chocobo treasure ([off/on])/U_KYO_FLAGS (event to get whistle) = $5/Key item: story./Lost chicks./Cancel.]
- **10805**: Pick one. [Impatient chocobo story ([off/on])./Curious chocobo story ([off/on])./Small dropped item story ([off/on])./Big dropped item story ([off/on])./Happy chocobo story ([off/on])./Whimsical chocobo story ([off/on])./Cancel.]
- **10806**: Lost chick event. (Currently [active/disabled]) [Set number of owners ($0)/Reset to default./Nothing.]
- **10807**: Pick a number. (Currently $0) [1."."./4./5./6./7./8./Never mind.]
- **10808**: Choose ability to set. [None./Gallop./Canter./Burrow./Bore./Auto-Regen./Treasure Finder./Cancel.]
- **10818**: STR:$0/VIT:$1/INT:$2/MND:$3
- **10820**: Affection:$0/Energy:$1/Satisfaction:$2
- **10863**: D$3Z$3b$3gF[Y/B/b/r/g][Y/B/b/r/g][Y/B/b/r/g]
- **10870**: Slot 1: [None/Gallop/Canter/Burrow/Bore/Auto-Regen/Treasure Finder]/Slot 2: [None/Gallop/Canter/Burrow/Bore/Auto-Regen/Treasure Finder]
- **10871**: Returning settings to default.
- **10874**: +=-=-=-=-=-=-DEBUG START=-=-=-=-=-=-=+

## Events

### Event 65535

#### Metadata

| Field        | Value   |
|--------------|---------|
| Entrypoint   | 0x0000  |
| Data Size    | 1 bytes |
| Instructions | 1       |

```
      00 01 02 03 04 05 06 07  08 09 0A 0B 0C 0D 0E 0F
      -- -- -- -- -- -- -- --  -- -- -- -- -- -- -- --
0000: 00                                                .               
```

#### Opcodes

```
  0: 0x0000 [0x00] END_REQSTACK()
```

### Event 773

#### Metadata

| Field        | Value      |
|--------------|------------|
| Entrypoint   | 0x0001     |
| Data Size    | 4568 bytes |
| Instructions | 948        |

```
      00 01 02 03 04 05 06 07  08 09 0A 0B 0C 0D 0E 0F
      -- -- -- -- -- -- -- --  -- -- -- -- -- -- -- --
0000:    1A 06 00 21 00 06 1C  00 02 1C 00 00 80 00 EC   ...!...........
0010: 00 24 01 80 00 80 02 80  25 02 00 10 00 80 00 2A  .$......%......*
0020: 00 1A AF 08 05 1C 00 01  E9 00 02 00 10 03 80 00  ................
0030: 35 00 01 E9 00 02 00 10  02 80 00 43 00 1A A1 08  5..........C....
0040: 01 E9 00 02 00 10 04 80  00 54 00 1A D1 09 05 1C  .........T......
0050: 00 01 E9 00 02 00 10 05  80 00 62 00 1A 97 08 01  ..........b.....
0060: E9 00 02 00 10 06 80 00  70 00 1A D2 09 01 E9 00  ........p.......
0070: 02 00 10 07 80 00 7E 00  1A 49 07 01 E9 00 02 00  ......~..I......
0080: 10 08 80 00 92 00 03 01  10 09 80 43 00 43 01 01  ...........C.C..
0090: E9 00 02 00 10 0A 80 00  A0 00 1A 2D 0A 01 E9 00  ...........-....
00A0: 02 00 10 0B 80 00 AE 00  1A 1F 07 01 E9 00 02 00  ................
00B0: 10 0C 80 00 BC 00 1A 27  06 01 E9 00 02 00 10 0D  .......'........
00C0: 80 00 CA 00 1A 56 03 01  E9 00 02 00 10 0E 80 00  .....V..........
00D0: D8 00 1A DC 01 01 E9 00  02 00 10 0F 80 00 E6 00  ................
00E0: 1A ED 00 01 E9 00 05 1C  00 01 09 00 1B 06 02 17  ................
00F0: 06 1B 00 03 01 10 10 80  43 00 43 01 48 11 80 23  ........C.C.H..#
0100: 24 12 80 00 80 00 80 25  02 00 10 00 80 00 16 01  $......%........
0110: 01 4D 01 01 22 01 02 00  10 08 80 00 22 01 1B 01  .M.."......."...
0120: 22 01 03 1B 00 00 10 3C  02 17 1B 00 03 80 24 12  "......<......$.
0130: 80 00 80 02 17 25 02 00  10 00 80 00 41 01 01 4D  .....%......A..M
0140: 01 02 00 10 08 80 00 4D  01 1B 01 4D 01 03 01 10  .......M...M....
0150: 13 80 40 14 80 15 80 01  10 1B 00 40 16 80 17 80  ..@........@....
0160: 01 10 00 10 43 00 43 01  48 11 80 23 1B 06 01 17  ....C.C.H..#....
0170: 02 01 17 00 80 00 DB 01  03 01 10 18 80 43 00 43  .............C.C
0180: 01 24 19 80 00 80 00 80  25 02 00 10 00 80 00 C1  .$......%.......
0190: 01 24 1A 80 00 80 00 80  25 02 00 10 00 80 00 A4  .$......%.......
01A0: 01 01 A4 01 02 00 10 08  80 05 BE 01 03 01 10 1B  ................
01B0: 80 40 14 80 15 80 01 10  00 10 43 00 43 01 01 D8  .@........C.C...
01C0: 01 02 00 10 03 80 00 D5  01 03 01 10 1C 80 43 00  ..............C.
01D0: 43 01 01 D8 01 05 01 17  01 70 01 1B 06 00 17 03  C........p......
01E0: 01 10 1D 80 43 00 43 01  02 00 17 00 80 00 55 03  ....C.C.......U.
01F0: 24 1E 80 00 80 00 80 25  02 00 10 00 80 00 0C 02  $......%........
0200: 03 01 10 1F 80 43 00 43  01 01 52 03 02 00 10 03  .....C.C..R.....
0210: 80 00 20 02 03 01 10 20  80 43 00 43 01 01 52 03  .. .... .C.C..R.
0220: 02 00 10 02 80 00 34 02  03 01 10 21 80 43 00 43  ......4....!.C.C
0230: 01 01 52 03 02 00 10 04  80 00 48 02 03 01 10 22  ..R.......H...."
0240: 80 43 00 43 01 01 52 03  02 00 10 05 80 00 5C 02  .C.C..R.......\.
0250: 03 01 10 23 80 43 00 43  01 01 52 03 02 00 10 06  ...#.C.C..R.....
0260: 80 00 41 03 3E 08 10 00  80 73 02 03 02 10 03 80  ..A.>....s......
0270: 01 76 02 06 02 10 3E 08  10 03 80 85 02 03 03 10  .v....>.........
0280: 03 80 01 88 02 06 03 10  3E 08 10 02 80 97 02 03  ........>.......
0290: 04 10 03 80 01 9A 02 06  04 10 3E 08 10 04 80 A9  ..........>.....
02A0: 02 03 05 10 03 80 01 AC  02 06 05 10 3E 08 10 05  ............>...
02B0: 80 BB 02 03 06 10 03 80  01 BE 02 06 06 10 24 24  ..............$$
02C0: 80 00 80 00 80 25 02 00  10 00 80 00 DA 02 03 01  .....%..........
02D0: 10 25 80 43 00 43 01 01  3E 03 02 00 10 03 80 00  .%.C.C..>.......
02E0: EE 02 03 01 10 26 80 43  00 43 01 01 3E 03 02 00  .....&.C.C..>...
02F0: 10 02 80 00 02 03 03 01  10 27 80 43 00 43 01 01  .........'.C.C..
0300: 3E 03 02 00 10 04 80 00  16 03 03 01 10 28 80 43  >............(.C
0310: 00 43 01 01 3E 03 02 00  10 05 80 00 2A 03 03 01  .C..>.......*...
0320: 10 29 80 43 00 43 01 01  3E 03 02 00 10 06 80 00  .).C.C..>.......
0330: 3E 03 03 01 10 2A 80 43  00 43 01 01 3E 03 01 52  >....*.C.C..>..R
0340: 03 02 00 10 07 80 00 4F  03 1A 6D 01 01 52 03 05  .......O..m..R..
0350: 00 17 01 E8 01 1B 24 2B  80 00 80 00 80 25 02 00  ......$+.....%..
0360: 10 00 80 00 9C 03 1A 12  05 06 02 10 40 00 80 02  ............@...
0370: 80 02 10 03 10 40 04 80  06 80 02 10 04 10 40 07  .....@........@.
0380: 80 0A 80 02 10 05 10 03  01 10 2C 80 40 14 80 17  ..........,.@...
0390: 80 01 10 02 10 43 00 43  01 01 11 05 02 00 10 03  .....C.C........
03A0: 80 00 DA 03 1A 12 05 06  02 10 40 00 80 02 80 02  ..........@.....
03B0: 10 03 10 40 04 80 06 80  02 10 04 10 40 07 80 0A  ...@........@...
03C0: 80 02 10 05 10 03 01 10  2D 80 40 14 80 17 80 01  ........-.@.....
03D0: 10 02 10 43 00 43 01 01  11 05 02 00 10 02 80 00  ...C.C..........
03E0: 18 04 1A 12 05 06 02 10  40 00 80 02 80 02 10 03  ........@.......
03F0: 10 40 04 80 06 80 02 10  04 10 40 07 80 0A 80 02  .@........@.....
0400: 10 05 10 03 01 10 2E 80  40 14 80 17 80 01 10 02  ........@.......
0410: 10 43 00 43 01 01 11 05  02 00 10 04 80 00 56 04  .C.C..........V.
0420: 1A 12 05 06 02 10 40 00  80 02 80 02 10 03 10 40  ......@........@
0430: 04 80 06 80 02 10 04 10  40 07 80 0A 80 02 10 05  ........@.......
0440: 10 03 01 10 2F 80 40 14  80 17 80 01 10 02 10 43  ..../.@........C
0450: 00 43 01 01 11 05 02 00  10 05 80 00 94 04 1A 12  .C..............
0460: 05 06 02 10 40 00 80 02  80 02 10 03 10 40 04 80  ....@........@..
0470: 06 80 02 10 04 10 40 07  80 0A 80 02 10 05 10 03  ......@.........
0480: 01 10 30 80 40 14 80 17  80 01 10 02 10 43 00 43  ..0.@........C.C
0490: 01 01 11 05 02 00 10 06  80 00 D2 04 1A 12 05 06  ................
04A0: 02 10 40 00 80 02 80 02  10 03 10 40 04 80 06 80  ..@........@....
04B0: 02 10 04 10 40 07 80 0A  80 02 10 05 10 03 01 10  ....@...........
04C0: 31 80 40 14 80 17 80 01  10 02 10 43 00 43 01 01  1.@........C.C..
04D0: 11 05 02 00 10 07 80 00  10 05 1A 12 05 06 02 10  ................
04E0: 40 00 80 02 80 02 10 03  10 40 04 80 06 80 02 10  @........@......
04F0: 04 10 40 07 80 0A 80 02  10 05 10 03 01 10 32 80  ..@...........2.
0500: 40 14 80 17 80 01 10 02  10 43 00 43 01 01 11 05  @........C.C....
0510: 1B 1B 06 03 10 06 04 10  06 05 10 24 33 80 00 80  ...........$3...
0520: 00 80 25 02 00 10 00 80  00 33 05 03 03 10 00 80  ..%......3......
0530: 01 74 05 02 00 10 03 80  00 43 05 03 03 10 03 80  .t.......C......
0540: 01 74 05 02 00 10 02 80  00 53 05 03 03 10 02 80  .t.......S......
0550: 01 74 05 02 00 10 04 80  00 63 05 03 03 10 04 80  .t.......c......
0560: 01 74 05 02 00 10 05 80  00 73 05 03 03 10 05 80  .t.......s......
0570: 01 74 05 1B 24 33 80 00  80 00 80 25 02 00 10 00  .t..$3.....%....
0580: 80 00 8C 05 03 04 10 00  80 01 CD 05 02 00 10 03  ................
0590: 80 00 9C 05 03 04 10 03  80 01 CD 05 02 00 10 02  ................
05A0: 80 00 AC 05 03 04 10 02  80 01 CD 05 02 00 10 04  ................
05B0: 80 00 BC 05 03 04 10 04  80 01 CD 05 02 00 10 05  ................
05C0: 80 00 CC 05 03 04 10 05  80 01 CD 05 1B 24 33 80  .............$3.
05D0: 00 80 00 80 25 02 00 10  00 80 00 E5 05 03 05 10  ....%...........
05E0: 00 80 01 26 06 02 00 10  03 80 00 F5 05 03 05 10  ...&............
05F0: 03 80 01 26 06 02 00 10  02 80 00 05 06 03 05 10  ...&............
0600: 02 80 01 26 06 02 00 10  04 80 00 15 06 03 05 10  ...&............
0610: 04 80 01 26 06 02 00 10  05 80 00 25 06 03 05 10  ...&.......%....
0620: 05 80 01 26 06 1B 1B 03  01 10 34 80 43 00 43 01  ...&......4.C.C.
0630: 41 04 80 06 80 02 10 03  10 41 07 80 0A 80 02 10  A........A......
0640: 04 10 0D 02 10 08 80 48  35 80 24 33 80 00 80 00  .......H5.$3....
0650: 80 25 02 00 10 00 80 00  5D 06 01 5D 06 02 00 10  .%......]..]....
0660: 05 80 02 69 06 1B 01 6E  06 03 03 10 00 10 24 33  ...i...n......$3
0670: 80 00 80 00 80 25 02 00  10 00 80 00 81 06 01 81  .....%..........
0680: 06 02 00 10 05 80 02 8D  06 1B 01 92 06 03 04 10  ................
0690: 00 10 24 33 80 00 80 00  80 25 02 00 10 00 80 00  ..$3.....%......
06A0: A5 06 01 A5 06 02 00 10  05 80 02 B1 06 1B 01 B6  ................
06B0: 06 03 05 10 00 10 06 02  10 40 00 80 02 80 02 10  .........@......
06C0: 03 10 40 04 80 06 80 02  10 04 10 40 07 80 0A 80  ..@........@....
06D0: 02 10 05 10 03 06 10 02  10 03 02 10 03 10 03 03  ................
06E0: 10 04 10 03 04 10 05 10  48 35 80 03 02 10 06 10  ........H5......
06F0: 03 01 10 36 80 40 14 80  17 80 01 10 02 10 43 00  ...6.@........C.
0700: 43 01 24 37 80 00 80 00  80 25 02 00 10 00 80 00  C.$7.....%......
0710: 1E 07 03 01 10 38 80 43  00 43 01 01 1E 07 1B 24  .....8.C.C.....$
0720: 39 80 00 80 00 80 25 02  00 10 00 80 00 32 07 01  9.....%......2..
0730: 32 07 02 00 10 08 80 05  48 07 03 01 10 3A 80 40  2.......H....:.@
0740: 0A 80 3B 80 01 10 00 10  1B 24 3C 80 00 80 00 80  ..;......$<.....
0750: 25 02 00 10 00 80 00 61  07 03 03 10 00 80 01 39  %......a.......9
0760: 08 02 00 10 03 80 00 71  07 03 03 10 03 80 01 39  .......q.......9
0770: 08 02 00 10 02 80 00 81  07 03 03 10 02 80 01 39  ...............9
0780: 08 02 00 10 04 80 00 91  07 03 03 10 04 80 01 39  ...............9
0790: 08 02 00 10 05 80 00 A1  07 03 03 10 05 80 01 39  ...............9
07A0: 08 02 00 10 06 80 00 B1  07 03 03 10 06 80 01 39  ...............9
07B0: 08 02 00 10 07 80 00 C1  07 03 03 10 07 80 01 39  ...............9
07C0: 08 02 00 10 08 80 00 D0  07 1A DA 0F 1B 01 39 08  ..............9.
07D0: 02 00 10 0A 80 00 DF 07  1A 63 10 1B 01 39 08 02  .........c...9..
07E0: 00 10 0B 80 00 EE 07 1A  50 11 1B 01 39 08 02 00  ........P...9...
07F0: 10 0C 80 00 38 08 24 3D  80 00 80 00 80 25 02 00  ....8.$=.....%..
0800: 10 00 80 00 09 08 01 09  08 02 00 10 04 80 03 34  ...............4
0810: 08 03 02 10 00 10 0B 02  10 03 01 10 3E 80 40 0A  ............>.@.
0820: 80 3B 80 01 10 02 10 40  14 80 15 80 01 10 08 80  .;.....@........
0830: 43 00 43 01 1B 01 39 08  1B 06 03 17 06 02 17 1D  C.C...9.........
0840: 3F 80 23 1A 2B 09 02 02  10 40 80 00 4F 08 1B 1A  ?.#.+....@..O...
0850: 63 09 02 02 10 40 80 00  5B 08 1B 1A 9A 09 02 01  c....@..[.......
0860: 10 40 80 00 67 08 1B 02  01 10 41 80 02 74 08 03  .@..g.....A..t..
0870: 01 10 41 80 02 01 10 00  80 03 7F 08 06 01 10 14  ..A.............
0880: 01 10 42 80 0E 01 10 3E  80 40 14 80 15 80 01 10  ..B....>.@......
0890: 03 10 43 00 43 01 1B 03  01 10 43 80 43 00 43 01  ..C.C.....C.C.C.
08A0: 1B 48 44 80 23 03 01 10  45 80 43 00 43 01 1B 06  .HD.#...E.C.C...
08B0: 02 17 06 03 17 1D 46 80  23 1A 2B 09 02 02 10 40  ......F.#.+....@
08C0: 80 00 C5 08 1B 1A 63 09  02 02 10 40 80 00 D1 08  ......c....@....
08D0: 1B 1A 9A 09 02 01 10 40  80 00 DD 08 1B 02 01 10  .......@........
08E0: 41 80 02 EA 08 03 01 10  41 80 02 01 10 00 80 03  A.......A.......
08F0: F5 08 06 01 10 14 01 10  42 80 0E 01 10 47 80 43  ........B....G.C
0900: 00 43 01 24 48 80 03 80  00 80 25 02 00 10 00 80  .C.$H.....%.....
0910: 00 1F 09 03 01 10 49 80  43 00 43 01 01 2A 09 02  ......I.C.C..*..
0920: 00 10 03 80 00 2A 09 01  2A 09 1B 24 4A 80 00 80  .....*..*..$J...
0930: 00 80 25 02 00 10 00 80  00 43 09 03 03 17 00 80  ..%......C......
0940: 01 43 09 02 00 10 0C 80  03 58 09 03 03 17 4B 80  .C.......X....K.
0950: 14 03 17 00 10 01 5D 09  03 03 17 40 80 03 02 10  ......]....@....
0960: 03 17 1B 24 4C 80 00 80  00 80 25 02 00 10 00 80  ...$L.....%.....
0970: 00 76 09 01 76 09 02 00  10 0C 80 03 8B 09 03 02  .v..v...........
0980: 17 0C 80 14 02 17 00 10  01 94 09 06 02 10 03 02  ................
0990: 17 40 80 1B 07 02 10 02  17 1B 06 01 10 24 4D 80  .@...........$M.
09A0: 00 80 00 80 25 02 00 10  00 80 00 B0 09 01 B0 09  ....%...........
09B0: 02 00 10 0C 80 03 C0 09  03 01 10 00 10 01 C6 09  ................
09C0: 03 01 10 40 80 1B 07 01  10 03 17 07 01 10 02 17  ...@............
09D0: 1B 1B 03 01 10 4E 80 43  00 43 01 03 1D 00 03 10  .....N.C.C......
09E0: 03 1E 00 04 10 41 00 80  08 80 1D 00 02 10 41 0A  .....A........A.
09F0: 80 3B 80 1D 00 03 10 41  14 80 15 80 1D 00 04 10  .;.....A........
0A00: 41 16 80 17 80 1D 00 05  10 1D 4F 80 23 41 00 80  A.........O.#A..
0A10: 08 80 1E 00 02 10 41 0A  80 3B 80 1E 00 03 10 41  ......A..;.....A
0A20: 14 80 15 80 1E 00 04 10  1D 50 80 23 1B 24 51 80  .........P.#.$Q.
0A30: 00 80 00 80 25 02 00 10  00 80 00 4C 0A 48 52 80  ....%......L.HR.
0A40: 03 01 10 53 80 43 00 43  01 01 D9 0F 02 00 10 03  ...S.C.C........
0A50: 80 00 2D 0C 24 54 80 00  80 00 80 25 02 00 10 00  ..-.$T.....%....
0A60: 80 00 7D 0A 40 00 80 08  80 01 10 55 80 40 0A 80  ..}.@......U.@..
0A70: 3B 80 01 10 00 80 43 00  43 01 01 2A 0C 02 00 10  ;.....C.C..*....
0A80: 03 80 00 9E 0A 40 00 80  08 80 01 10 55 80 40 0A  .....@......U.@.
0A90: 80 3B 80 01 10 03 80 43  00 43 01 01 2A 0C 02 00  .;.....C.C..*...
0AA0: 10 02 80 00 BF 0A 40 00  80 08 80 01 10 55 80 40  ......@......U.@
0AB0: 0A 80 3B 80 01 10 02 80  43 00 43 01 01 2A 0C 02  ..;.....C.C..*..
0AC0: 00 10 04 80 00 E0 0A 40  00 80 08 80 01 10 55 80  .......@......U.
0AD0: 40 0A 80 3B 80 01 10 04  80 43 00 43 01 01 2A 0C  @..;.....C.C..*.
0AE0: 02 00 10 05 80 00 01 0B  40 00 80 08 80 01 10 55  ........@......U
0AF0: 80 40 0A 80 3B 80 01 10  05 80 43 00 43 01 01 2A  .@..;.....C.C..*
0B00: 0C 02 00 10 06 80 00 22  0B 40 00 80 08 80 01 10  .......".@......
0B10: 55 80 40 0A 80 3B 80 01  10 06 80 43 00 43 01 01  U.@..;.....C.C..
0B20: 2A 0C 02 00 10 07 80 00  43 0B 40 00 80 08 80 01  *.......C.@.....
0B30: 10 55 80 40 0A 80 3B 80  01 10 07 80 43 00 43 01  .U.@..;.....C.C.
0B40: 01 2A 0C 02 00 10 08 80  00 64 0B 40 00 80 08 80  .*.......d.@....
0B50: 01 10 55 80 40 0A 80 3B  80 01 10 08 80 43 00 43  ..U.@..;.....C.C
0B60: 01 01 2A 0C 02 00 10 0A  80 00 85 0B 40 00 80 08  ..*.........@...
0B70: 80 01 10 55 80 40 0A 80  3B 80 01 10 0A 80 43 00  ...U.@..;.....C.
0B80: 43 01 01 2A 0C 02 00 10  0B 80 00 A6 0B 40 00 80  C..*.........@..
0B90: 08 80 01 10 55 80 40 0A  80 3B 80 01 10 0B 80 43  ....U.@..;.....C
0BA0: 00 43 01 01 2A 0C 02 00  10 0C 80 00 C7 0B 40 00  .C..*.........@.
0BB0: 80 08 80 01 10 55 80 40  0A 80 3B 80 01 10 0C 80  .....U.@..;.....
0BC0: 43 00 43 01 01 2A 0C 02  00 10 0D 80 00 E8 0B 40  C.C..*.........@
0BD0: 00 80 08 80 01 10 55 80  40 0A 80 3B 80 01 10 0D  ......U.@..;....
0BE0: 80 43 00 43 01 01 2A 0C  02 00 10 0E 80 00 09 0C  .C.C..*.........
0BF0: 40 00 80 08 80 01 10 55  80 40 0A 80 3B 80 01 10  @......U.@..;...
0C00: 0E 80 43 00 43 01 01 2A  0C 02 00 10 0F 80 00 2A  ..C.C..*.......*
0C10: 0C 40 00 80 08 80 01 10  55 80 40 0A 80 3B 80 01  .@......U.@..;..
0C20: 10 0F 80 43 00 43 01 01  2A 0C 01 D9 0F 02 00 10  ...C.C..*.......
0C30: 02 80 00 0E 0E 24 54 80  00 80 00 80 25 02 00 10  .....$T.....%...
0C40: 00 80 00 5E 0C 40 00 80  08 80 01 10 56 80 40 0A  ...^.@......V.@.
0C50: 80 3B 80 01 10 00 80 43  00 43 01 01 0B 0E 02 00  .;.....C.C......
0C60: 10 03 80 00 7F 0C 40 00  80 08 80 01 10 56 80 40  ......@......V.@
0C70: 0A 80 3B 80 01 10 03 80  43 00 43 01 01 0B 0E 02  ..;.....C.C.....
0C80: 00 10 02 80 00 A0 0C 40  00 80 08 80 01 10 56 80  .......@......V.
0C90: 40 0A 80 3B 80 01 10 02  80 43 00 43 01 01 0B 0E  @..;.....C.C....
0CA0: 02 00 10 04 80 00 C1 0C  40 00 80 08 80 01 10 56  ........@......V
0CB0: 80 40 0A 80 3B 80 01 10  04 80 43 00 43 01 01 0B  .@..;.....C.C...
0CC0: 0E 02 00 10 05 80 00 E2  0C 40 00 80 08 80 01 10  .........@......
0CD0: 56 80 40 0A 80 3B 80 01  10 05 80 43 00 43 01 01  V.@..;.....C.C..
0CE0: 0B 0E 02 00 10 06 80 00  03 0D 40 00 80 08 80 01  ..........@.....
0CF0: 10 56 80 40 0A 80 3B 80  01 10 06 80 43 00 43 01  .V.@..;.....C.C.
0D00: 01 0B 0E 02 00 10 07 80  00 24 0D 40 00 80 08 80  .........$.@....
0D10: 01 10 56 80 40 0A 80 3B  80 01 10 07 80 43 00 43  ..V.@..;.....C.C
0D20: 01 01 0B 0E 02 00 10 08  80 00 45 0D 40 00 80 08  ..........E.@...
0D30: 80 01 10 56 80 40 0A 80  3B 80 01 10 08 80 43 00  ...V.@..;.....C.
0D40: 43 01 01 0B 0E 02 00 10  0A 80 00 66 0D 40 00 80  C..........f.@..
0D50: 08 80 01 10 56 80 40 0A  80 3B 80 01 10 0A 80 43  ....V.@..;.....C
0D60: 00 43 01 01 0B 0E 02 00  10 0B 80 00 87 0D 40 00  .C............@.
0D70: 80 08 80 01 10 56 80 40  0A 80 3B 80 01 10 0B 80  .....V.@..;.....
0D80: 43 00 43 01 01 0B 0E 02  00 10 0C 80 00 A8 0D 40  C.C............@
0D90: 00 80 08 80 01 10 56 80  40 0A 80 3B 80 01 10 0C  ......V.@..;....
0DA0: 80 43 00 43 01 01 0B 0E  02 00 10 0D 80 00 C9 0D  .C.C............
0DB0: 40 00 80 08 80 01 10 56  80 40 0A 80 3B 80 01 10  @......V.@..;...
0DC0: 0D 80 43 00 43 01 01 0B  0E 02 00 10 0E 80 00 EA  ..C.C...........
0DD0: 0D 40 00 80 08 80 01 10  56 80 40 0A 80 3B 80 01  .@......V.@..;..
0DE0: 10 0E 80 43 00 43 01 01  0B 0E 02 00 10 0F 80 00  ...C.C..........
0DF0: 0B 0E 40 00 80 08 80 01  10 56 80 40 0A 80 3B 80  ..@......V.@..;.
0E00: 01 10 0F 80 43 00 43 01  01 0B 0E 01 D9 0F 02 00  ....C.C.........
0E10: 10 04 80 00 D9 0F 24 54  80 00 80 00 80 25 02 00  ......$T.....%..
0E20: 10 00 80 00 3F 0E 40 00  80 08 80 01 10 57 80 40  ....?.@......W.@
0E30: 0A 80 3B 80 01 10 00 80  43 00 43 01 01 D6 0F 02  ..;.....C.C.....
0E40: 00 10 03 80 00 60 0E 40  00 80 08 80 01 10 57 80  .....`.@......W.
0E50: 40 0A 80 3B 80 01 10 03  80 43 00 43 01 01 D6 0F  @..;.....C.C....
0E60: 02 00 10 02 80 00 81 0E  40 00 80 08 80 01 10 57  ........@......W
0E70: 80 40 0A 80 3B 80 01 10  02 80 43 00 43 01 01 D6  .@..;.....C.C...
0E80: 0F 02 00 10 04 80 00 A2  0E 40 00 80 08 80 01 10  .........@......
0E90: 57 80 40 0A 80 3B 80 01  10 04 80 43 00 43 01 01  W.@..;.....C.C..
0EA0: D6 0F 02 00 10 05 80 00  C3 0E 40 00 80 08 80 01  ..........@.....
0EB0: 10 57 80 40 0A 80 3B 80  01 10 05 80 43 00 43 01  .W.@..;.....C.C.
0EC0: 01 D6 0F 02 00 10 06 80  00 E4 0E 40 00 80 08 80  ...........@....
0ED0: 01 10 57 80 40 0A 80 3B  80 01 10 06 80 43 00 43  ..W.@..;.....C.C
0EE0: 01 01 D6 0F 02 00 10 07  80 00 05 0F 40 00 80 08  ............@...
0EF0: 80 01 10 57 80 40 0A 80  3B 80 01 10 07 80 43 00  ...W.@..;.....C.
0F00: 43 01 01 D6 0F 02 00 10  08 80 00 26 0F 40 00 80  C..........&.@..
0F10: 08 80 01 10 57 80 40 0A  80 3B 80 01 10 08 80 43  ....W.@..;.....C
0F20: 00 43 01 01 D6 0F 02 00  10 0A 80 00 47 0F 40 00  .C..........G.@.
0F30: 80 08 80 01 10 57 80 40  0A 80 3B 80 01 10 0A 80  .....W.@..;.....
0F40: 43 00 43 01 01 D6 0F 02  00 10 0B 80 00 68 0F 40  C.C..........h.@
0F50: 00 80 08 80 01 10 57 80  40 0A 80 3B 80 01 10 0B  ......W.@..;....
0F60: 80 43 00 43 01 01 D6 0F  02 00 10 0C 80 00 89 0F  .C.C............
0F70: 40 00 80 08 80 01 10 57  80 40 0A 80 3B 80 01 10  @......W.@..;...
0F80: 0C 80 43 00 43 01 01 D6  0F 02 00 10 0D 80 00 94  ..C.C...........
0F90: 0F 01 D6 0F 02 00 10 0E  80 00 B5 0F 40 00 80 08  ............@...
0FA0: 80 01 10 57 80 40 0A 80  3B 80 01 10 0E 80 43 00  ...W.@..;.....C.
0FB0: 43 01 01 D6 0F 02 00 10  0F 80 00 D6 0F 40 00 80  C............@..
0FC0: 08 80 01 10 57 80 40 0A  80 3B 80 01 10 0F 80 43  ....W.@..;.....C
0FD0: 00 43 01 01 D6 0F 01 D9  0F 1B 03 00 17 00 80 03  .C..............
0FE0: 01 10 58 80 43 00 43 01  02 00 17 00 80 00 62 10  ..X.C.C.......b.
0FF0: 24 59 80 00 80 00 80 25  02 00 10 00 80 00 0C 10  $Y.....%........
1000: 03 01 10 5A 80 43 00 43  01 01 5F 10 02 00 10 03  ...Z.C.C.._.....
1010: 80 00 20 10 03 01 10 5B  80 43 00 43 01 01 5F 10  .. ....[.C.C.._.
1020: 02 00 10 02 80 00 34 10  03 01 10 5C 80 43 00 43  ......4....\.C.C
1030: 01 01 5F 10 02 00 10 04  80 00 48 10 03 01 10 5D  .._.......H....]
1040: 80 43 00 43 01 01 5F 10  02 00 10 05 80 00 5C 10  .C.C.._.......\.
1050: 03 01 10 5E 80 43 00 43  01 01 5F 10 05 00 17 01  ...^.C.C.._.....
1060: E8 0F 1B 03 00 17 00 80  03 01 10 5F 80 43 00 43  ..........._.C.C
1070: 01 02 00 17 00 80 00 4F  11 24 60 80 00 80 00 80  .......O.$`.....
1080: 25 02 00 10 00 80 00 95  10 03 01 10 61 80 43 00  %...........a.C.
1090: 43 01 01 4C 11 02 00 10  03 80 00 A9 10 03 01 10  C..L............
10A0: 62 80 43 00 43 01 01 4C  11 02 00 10 02 80 00 BD  b.C.C..L........
10B0: 10 03 01 10 63 80 43 00  43 01 01 4C 11 02 00 10  ....c.C.C..L....
10C0: 04 80 00 D1 10 03 01 10  64 80 43 00 43 01 01 4C  ........d.C.C..L
10D0: 11 02 00 10 05 80 00 E5  10 03 01 10 65 80 43 00  ............e.C.
10E0: 43 01 01 4C 11 02 00 10  06 80 00 F9 10 03 01 10  C..L............
10F0: 66 80 43 00 43 01 01 4C  11 02 00 10 07 80 00 0D  f.C.C..L........
1100: 11 03 01 10 67 80 43 00  43 01 01 4C 11 02 00 10  ....g.C.C..L....
1110: 08 80 00 21 11 03 01 10  68 80 43 00 43 01 01 4C  ...!....h.C.C..L
1120: 11 02 00 10 0A 80 00 35  11 03 01 10 69 80 43 00  .......5....i.C.
1130: 43 01 01 4C 11 02 00 10  0B 80 00 49 11 03 01 10  C..L.......I....
1140: 6A 80 43 00 43 01 01 4C  11 05 00 17 01 71 10 1B  j.C.C..L.....q..
1150: 03 00 17 00 80 03 01 10  6B 80 43 00 43 01 02 00  ........k.C.C...
1160: 17 00 80 00 D8 11 24 6C  80 00 80 00 80 25 02 00  ......$l.....%..
1170: 10 00 80 00 82 11 03 01  10 6D 80 43 00 43 01 01  .........m.C.C..
1180: D5 11 02 00 10 03 80 00  96 11 03 01 10 6E 80 43  .............n.C
1190: 00 43 01 01 D5 11 02 00  10 02 80 00 AA 11 03 01  .C..............
11A0: 10 6F 80 43 00 43 01 01  D5 11 02 00 10 04 80 00  .o.C.C..........
11B0: BE 11 03 01 10 70 80 43  00 43 01 01 D5 11 02 00  .....p.C.C......
11C0: 10 05 80 00 D2 11 03 01  10 71 80 43 00 43 01 01  .........q.C.C..
11D0: D5 11 05 00 17 01 5E 11  1B                       ......^..       
```

#### Opcodes

```
  0: 0x0001 [0x1A] CALL_SUBROUTINE(address=0x0006)
  1: 0x0004 [0x21] END_EVENT
  2: 0x0005 [0x00] END_REQSTACK()

SUBROUTINE_0006:
  3: 0x0006 [0x06] ExtData[1]->WorkLocal[28] = 0

SUBROUTINE_0009:
  4: 0x0009 [0x02] IF !(ExtData[1]->WorkLocal[28] == 0*) GOTO 0x00EC
  5: 0x0011 [0x24] CREATE_DIALOG(message_id=10780*, default_option=0*, option_flags=2*)
    → "Debug menu for %0%1: [Move time forward./See an event./Change to default./Naming test./Weather check test (Ronfaure)./Confirm chocobo status./Alter chocobo status./User work display./Control status./Control growth stages./Control DNA./Receive item./Control flags./Abilities./Cancel.]"
  6: 0x0018 [0x25] WAIT_DIALOG_SELECT()
  7: 0x0019 [0x02] IF !(Work_Zone[0] == 0*) GOTO 0x002A
  8: 0x0021 [0x1A] CALL_SUBROUTINE(address=0x08AF)
  9: 0x0024 [0x05] ExtData[1]->WorkLocal[28] = 1
 10: 0x0027 [0x01] GOTO 0x00E9
 11: 0x002A [0x02] IF !(Work_Zone[0] == 1*) GOTO 0x0035
 12: 0x0032 [0x01] GOTO 0x00E9
 13: 0x0035 [0x02] IF !(Work_Zone[0] == 2*) GOTO 0x0043
 14: 0x003D [0x1A] CALL_SUBROUTINE(address=0x08A1)
 15: 0x0040 [0x01] GOTO 0x00E9
 16: 0x0043 [0x02] IF !(Work_Zone[0] == 3*) GOTO 0x0054
 17: 0x004B [0x1A] CALL_SUBROUTINE(address=0x09D1)
 18: 0x004E [0x05] ExtData[1]->WorkLocal[28] = 1
 19: 0x0051 [0x01] GOTO 0x00E9
 20: 0x0054 [0x02] IF !(Work_Zone[0] == 4*) GOTO 0x0062
 21: 0x005C [0x1A] CALL_SUBROUTINE(address=0x0897)
 22: 0x005F [0x01] GOTO 0x00E9
 23: 0x0062 [0x02] IF !(Work_Zone[0] == 5*) GOTO 0x0070
 24: 0x006A [0x1A] CALL_SUBROUTINE(address=0x09D2)
 25: 0x006D [0x01] GOTO 0x00E9
 26: 0x0070 [0x02] IF !(Work_Zone[0] == 6*) GOTO 0x007E
 27: 0x0078 [0x1A] CALL_SUBROUTINE(address=0x0749)
 28: 0x007B [0x01] GOTO 0x00E9
 29: 0x007E [0x02] IF !(Work_Zone[0] == 7*) GOTO 0x0092
 30: 0x0086 [0x03] Work_Zone[1] = 232*
 31: 0x008B [0x43] SEND_EVENT_UPDATE: Send pending tag to server (packet 0x005B)
 32: 0x008D [0x43] SEND_EVENT_UPDATE: Check pending flag (skip if not pending)
 33: 0x008F [0x01] GOTO 0x00E9
 34: 0x0092 [0x02] IF !(Work_Zone[0] == 8*) GOTO 0x00A0
 35: 0x009A [0x1A] CALL_SUBROUTINE(address=0x0A2D)
 36: 0x009D [0x01] GOTO 0x00E9
 37: 0x00A0 [0x02] IF !(Work_Zone[0] == 9*) GOTO 0x00AE
 38: 0x00A8 [0x1A] CALL_SUBROUTINE(address=0x071F)
 39: 0x00AB [0x01] GOTO 0x00E9
 40: 0x00AE [0x02] IF !(Work_Zone[0] == 10*) GOTO 0x00BC
 41: 0x00B6 [0x1A] CALL_SUBROUTINE(address=0x0627)
 42: 0x00B9 [0x01] GOTO 0x00E9
 43: 0x00BC [0x02] IF !(Work_Zone[0] == 11*) GOTO 0x00CA
 44: 0x00C4 [0x1A] CALL_SUBROUTINE(address=0x0356)
 45: 0x00C7 [0x01] GOTO 0x00E9
 46: 0x00CA [0x02] IF !(Work_Zone[0] == 12*) GOTO 0x00D8
 47: 0x00D2 [0x1A] CALL_SUBROUTINE(address=0x01DC)
 48: 0x00D5 [0x01] GOTO 0x00E9
 49: 0x00D8 [0x02] IF !(Work_Zone[0] == 13*) GOTO 0x00E6
 50: 0x00E0 [0x1A] CALL_SUBROUTINE(address=0x00ED)
 51: 0x00E3 [0x01] GOTO 0x00E9
 52: 0x00E6 [0x05] ExtData[1]->WorkLocal[28] = 1

SUBROUTINE_00E9:
 53: 0x00E9 [0x01] GOTO 0x0009
 54: 0x00EC [0x1B] RETURN

SUBROUTINE_00ED:
 55: 0x00ED [0x06] Work_Zone_1700[2] = 0
 56: 0x00F0 [0x06] ExtData[1]->WorkLocal[27] = 0
 57: 0x00F3 [0x03] Work_Zone[1] = 462*
 58: 0x00F8 [0x43] SEND_EVENT_UPDATE: Send pending tag to server (packet 0x005B)
 59: 0x00FA [0x43] SEND_EVENT_UPDATE: Check pending flag (skip if not pending)
 60: 0x00FC [0x48] [System] [10870*]:
    → "Slot 1: [None/Gallop/Canter/Burrow/Bore/Auto-Regen/Treasure Finder]/Slot 2: [None/Gallop/Canter/Burrow/Bore/Auto-Regen/Treasure Finder]"
 61: 0x00FF [0x23] WAIT_FOR_DIALOG_INTERACTION
 62: 0x0100 [0x24] CREATE_DIALOG(message_id=10808*, default_option=0*, option_flags=0*)
    → "Choose ability to set. [None./Gallop./Canter./Burrow./Bore./Auto-Regen./Treasure Finder./Cancel.]"
 63: 0x0107 [0x25] WAIT_DIALOG_SELECT()
 64: 0x0108 [0x02] IF !(Work_Zone[0] == 0*) GOTO 0x0116
 65: 0x0110 [0x01] GOTO 0x014D

SUBROUTINE_0122:
 66: 0x0122 [0x03] ExtData[1]->WorkLocal[27] = Work_Zone[0]
 67: 0x0127 [0x3C] SET_BIT_FLAG_CONDITIONAL(target_work_offset=Work_Zone_1700[2], bit_index_work_offset=ExtData[1]->WorkLocal[27], condition_work_offset=1*)
 68: 0x012E [0x24] CREATE_DIALOG(message_id=10808*, default_option=0*, option_flags=Work_Zone_1700[2])
    → "Choose ability to set. [None./Gallop./Canter./Burrow./Bore./Auto-Regen./Treasure Finder./Cancel.]"
 69: 0x0135 [0x25] WAIT_DIALOG_SELECT()
 70: 0x0136 [0x02] IF !(Work_Zone[0] == 0*) GOTO 0x0141
 71: 0x013E [0x01] GOTO 0x014D
 72: 0x0141 [0x02] IF !(Work_Zone[0] == 7*) GOTO 0x014D
 73: 0x0149 [0x1B] RETURN

SUBROUTINE_014D:
 74: 0x014D [0x03] Work_Zone[1] = 718*
 75: 0x0152 [0x40] SET_BIT_WORK_RANGE(start_bit=16*, end_bit=23*, target=Work_Zone[1], source=ExtData[1]->WorkLocal[27])
 76: 0x015B [0x40] SET_BIT_WORK_RANGE(start_bit=24*, end_bit=31*, target=Work_Zone[1], source=Work_Zone[0])
 77: 0x0164 [0x43] SEND_EVENT_UPDATE: Send pending tag to server (packet 0x005B)
 78: 0x0166 [0x43] SEND_EVENT_UPDATE: Check pending flag (skip if not pending)
 79: 0x0168 [0x48] [System] [10870*]:
    → "Slot 1: [None/Gallop/Canter/Burrow/Bore/Auto-Regen/Treasure Finder]/Slot 2: [None/Gallop/Canter/Burrow/Bore/Auto-Regen/Treasure Finder]"
 80: 0x016B [0x23] WAIT_FOR_DIALOG_INTERACTION
 81: 0x016C [0x1B] RETURN

SUBROUTINE_016D:
 82: 0x016D [0x06] Work_Zone_1700[1] = 0

SUBROUTINE_0170:
 83: 0x0170 [0x02] IF !(Work_Zone_1700[1] == 0*) GOTO 0x01DB
 84: 0x0178 [0x03] Work_Zone[1] = 207*
 85: 0x017D [0x43] SEND_EVENT_UPDATE: Send pending tag to server (packet 0x005B)
 86: 0x017F [0x43] SEND_EVENT_UPDATE: Check pending flag (skip if not pending)
 87: 0x0181 [0x24] CREATE_DIALOG(message_id=10806*, default_option=0*, option_flags=0*)
    → "Lost chick event. (Currently [active/disabled]) [Set number of owners ($0)/Reset to default./Nothing.]"
 88: 0x0188 [0x25] WAIT_DIALOG_SELECT()
 89: 0x0189 [0x02] IF !(Work_Zone[0] == 0*) GOTO 0x01C1
 90: 0x0191 [0x24] CREATE_DIALOG(message_id=10807*, default_option=0*, option_flags=0*)
    → "Pick a number. (Currently $0) [1."."./4./5./6./7./8./Never mind.]"
 91: 0x0198 [0x25] WAIT_DIALOG_SELECT()
 92: 0x0199 [0x02] IF !(Work_Zone[0] == 0*) GOTO 0x01A4
 93: 0x01A1 [0x01] GOTO 0x01A4

SUBROUTINE_01A4:
 94: 0x01A4 [0x02] IF !(Work_Zone[0] > 7*) GOTO 0x01BE
 95: 0x01AC [0x03] Work_Zone[1] = 463*
 96: 0x01B1 [0x40] SET_BIT_WORK_RANGE(start_bit=16*, end_bit=23*, target=Work_Zone[1], source=Work_Zone[0])
 97: 0x01BA [0x43] SEND_EVENT_UPDATE: Send pending tag to server (packet 0x005B)
 98: 0x01BC [0x43] SEND_EVENT_UPDATE: Check pending flag (skip if not pending)
 99: 0x01BE [0x01] GOTO 0x01D8
100: 0x01C1 [0x02] IF !(Work_Zone[0] == 1*) GOTO 0x01D5
101: 0x01C9 [0x03] Work_Zone[1] = 719*
102: 0x01CE [0x43] SEND_EVENT_UPDATE: Send pending tag to server (packet 0x005B)
103: 0x01D0 [0x43] SEND_EVENT_UPDATE: Check pending flag (skip if not pending)
104: 0x01D2 [0x01] GOTO 0x01D8
105: 0x01D5 [0x05] Work_Zone_1700[1] = 1

SUBROUTINE_01D8:
106: 0x01D8 [0x01] GOTO 0x0170
107: 0x01DB [0x1B] RETURN

SUBROUTINE_01DC:
108: 0x01DC [0x06] Work_Zone_1700[0] = 0
109: 0x01DF [0x03] Work_Zone[1] = 213*
110: 0x01E4 [0x43] SEND_EVENT_UPDATE: Send pending tag to server (packet 0x005B)
111: 0x01E6 [0x43] SEND_EVENT_UPDATE: Check pending flag (skip if not pending)

SUBROUTINE_01E8:
112: 0x01E8 [0x02] IF !(Work_Zone_1700[0] == 0*) GOTO 0x0355
113: 0x01F0 [0x24] CREATE_DIALOG(message_id=10804*, default_option=0*, option_flags=0*)
    → "Whaddaya want? [One day flag ([off/on])/Zone flag ([off/on])/Key item to stop crying ([off/on])/Key item: chocobo treasure ([off/on])/U_KYO_FLAGS (event to get whistle) = $5/Key item: story./Lost chicks./Cancel.]"
114: 0x01F7 [0x25] WAIT_DIALOG_SELECT()
115: 0x01F8 [0x02] IF !(Work_Zone[0] == 0*) GOTO 0x020C
116: 0x0200 [0x03] Work_Zone[1] = 725*
117: 0x0205 [0x43] SEND_EVENT_UPDATE: Send pending tag to server (packet 0x005B)
118: 0x0207 [0x43] SEND_EVENT_UPDATE: Check pending flag (skip if not pending)
119: 0x0209 [0x01] GOTO 0x0352
120: 0x020C [0x02] IF !(Work_Zone[0] == 1*) GOTO 0x0220
121: 0x0214 [0x03] Work_Zone[1] = 469*
122: 0x0219 [0x43] SEND_EVENT_UPDATE: Send pending tag to server (packet 0x005B)
123: 0x021B [0x43] SEND_EVENT_UPDATE: Check pending flag (skip if not pending)
124: 0x021D [0x01] GOTO 0x0352
125: 0x0220 [0x02] IF !(Work_Zone[0] == 2*) GOTO 0x0234
126: 0x0228 [0x03] Work_Zone[1] = 981*
127: 0x022D [0x43] SEND_EVENT_UPDATE: Send pending tag to server (packet 0x005B)
128: 0x022F [0x43] SEND_EVENT_UPDATE: Check pending flag (skip if not pending)
129: 0x0231 [0x01] GOTO 0x0352
130: 0x0234 [0x02] IF !(Work_Zone[0] == 3*) GOTO 0x0248
131: 0x023C [0x03] Work_Zone[1] = 1237*
132: 0x0241 [0x43] SEND_EVENT_UPDATE: Send pending tag to server (packet 0x005B)
133: 0x0243 [0x43] SEND_EVENT_UPDATE: Check pending flag (skip if not pending)
134: 0x0245 [0x01] GOTO 0x0352
135: 0x0248 [0x02] IF !(Work_Zone[0] == 4*) GOTO 0x025C
136: 0x0250 [0x03] Work_Zone[1] = 2773*
137: 0x0255 [0x43] SEND_EVENT_UPDATE: Send pending tag to server (packet 0x005B)
138: 0x0257 [0x43] SEND_EVENT_UPDATE: Check pending flag (skip if not pending)
139: 0x0259 [0x01] GOTO 0x0352
140: 0x025C [0x02] IF !(Work_Zone[0] == 5*) GOTO 0x0341
141: 0x0264 [0x3E] IF !(Work_Zone[8] bit 0*) GOTO 0x0273
142: 0x026B [0x03] Work_Zone[2] = 1*
143: 0x0270 [0x01] GOTO 0x0276
144: 0x0273 [0x06] Work_Zone[2] = 0

SUBROUTINE_0276:
145: 0x0276 [0x3E] IF !(Work_Zone[8] bit 1*) GOTO 0x0285
146: 0x027D [0x03] Work_Zone[3] = 1*
147: 0x0282 [0x01] GOTO 0x0288
148: 0x0285 [0x06] Work_Zone[3] = 0

SUBROUTINE_0288:
149: 0x0288 [0x3E] IF !(Work_Zone[8] bit 2*) GOTO 0x0297
150: 0x028F [0x03] Work_Zone[4] = 1*
151: 0x0294 [0x01] GOTO 0x029A
152: 0x0297 [0x06] Work_Zone[4] = 0

SUBROUTINE_029A:
153: 0x029A [0x3E] IF !(Work_Zone[8] bit 3*) GOTO 0x02A9
154: 0x02A1 [0x03] Work_Zone[5] = 1*
155: 0x02A6 [0x01] GOTO 0x02AC
156: 0x02A9 [0x06] Work_Zone[5] = 0

SUBROUTINE_02AC:
157: 0x02AC [0x3E] IF !(Work_Zone[8] bit 4*) GOTO 0x02BB
158: 0x02B3 [0x03] Work_Zone[6] = 1*
159: 0x02B8 [0x01] GOTO 0x02BE
160: 0x02BB [0x06] Work_Zone[6] = 0

SUBROUTINE_02BE:
161: 0x02BE [0x24] CREATE_DIALOG(message_id=10805*, default_option=0*, option_flags=0*)
    → "Pick one. [Impatient chocobo story ([off/on])./Curious chocobo story ([off/on])./Small dropped item story ([off/on])./Big dropped item story ([off/on])./Happy chocobo story ([off/on])./Whimsical chocobo story ([off/on])./Cancel.]"
162: 0x02C5 [0x25] WAIT_DIALOG_SELECT()
163: 0x02C6 [0x02] IF !(Work_Zone[0] == 0*) GOTO 0x02DA
164: 0x02CE [0x03] Work_Zone[1] = 1493*
165: 0x02D3 [0x43] SEND_EVENT_UPDATE: Send pending tag to server (packet 0x005B)
166: 0x02D5 [0x43] SEND_EVENT_UPDATE: Check pending flag (skip if not pending)
167: 0x02D7 [0x01] GOTO 0x033E
168: 0x02DA [0x02] IF !(Work_Zone[0] == 1*) GOTO 0x02EE
169: 0x02E2 [0x03] Work_Zone[1] = 1749*
170: 0x02E7 [0x43] SEND_EVENT_UPDATE: Send pending tag to server (packet 0x005B)
171: 0x02E9 [0x43] SEND_EVENT_UPDATE: Check pending flag (skip if not pending)
172: 0x02EB [0x01] GOTO 0x033E
173: 0x02EE [0x02] IF !(Work_Zone[0] == 2*) GOTO 0x0302
174: 0x02F6 [0x03] Work_Zone[1] = 2005*
175: 0x02FB [0x43] SEND_EVENT_UPDATE: Send pending tag to server (packet 0x005B)
176: 0x02FD [0x43] SEND_EVENT_UPDATE: Check pending flag (skip if not pending)
177: 0x02FF [0x01] GOTO 0x033E
178: 0x0302 [0x02] IF !(Work_Zone[0] == 3*) GOTO 0x0316
179: 0x030A [0x03] Work_Zone[1] = 2261*
180: 0x030F [0x43] SEND_EVENT_UPDATE: Send pending tag to server (packet 0x005B)
181: 0x0311 [0x43] SEND_EVENT_UPDATE: Check pending flag (skip if not pending)
182: 0x0313 [0x01] GOTO 0x033E
183: 0x0316 [0x02] IF !(Work_Zone[0] == 4*) GOTO 0x032A
184: 0x031E [0x03] Work_Zone[1] = 2517*
185: 0x0323 [0x43] SEND_EVENT_UPDATE: Send pending tag to server (packet 0x005B)
186: 0x0325 [0x43] SEND_EVENT_UPDATE: Check pending flag (skip if not pending)
187: 0x0327 [0x01] GOTO 0x033E
188: 0x032A [0x02] IF !(Work_Zone[0] == 5*) GOTO 0x033E
189: 0x0332 [0x03] Work_Zone[1] = 3029*
190: 0x0337 [0x43] SEND_EVENT_UPDATE: Send pending tag to server (packet 0x005B)
191: 0x0339 [0x43] SEND_EVENT_UPDATE: Check pending flag (skip if not pending)
192: 0x033B [0x01] GOTO 0x033E

SUBROUTINE_033E:
193: 0x033E [0x01] GOTO 0x0352
194: 0x0341 [0x02] IF !(Work_Zone[0] == 6*) GOTO 0x034F
195: 0x0349 [0x1A] CALL_SUBROUTINE(address=0x016D)
196: 0x034C [0x01] GOTO 0x0352
197: 0x034F [0x05] Work_Zone_1700[0] = 1

SUBROUTINE_0352:
198: 0x0352 [0x01] GOTO 0x01E8
199: 0x0355 [0x1B] RETURN

SUBROUTINE_0356:
200: 0x0356 [0x24] CREATE_DIALOG(message_id=10803*, default_option=0*, option_flags=0*)
    → "Pick one. [Egg 1./Egg 2./Egg 3./Egg 4./Egg 5./Matchmaking card (M)./Matchmaking card (F)./Cancel.]"
201: 0x035D [0x25] WAIT_DIALOG_SELECT()
202: 0x035E [0x02] IF !(Work_Zone[0] == 0*) GOTO 0x039C
203: 0x0366 [0x1A] CALL_SUBROUTINE(address=0x0512)
204: 0x0369 [0x06] Work_Zone[2] = 0
205: 0x036C [0x40] SET_BIT_WORK_RANGE(start_bit=0*, end_bit=2*, target=Work_Zone[2], source=Work_Zone[3])
206: 0x0375 [0x40] SET_BIT_WORK_RANGE(start_bit=3*, end_bit=5*, target=Work_Zone[2], source=Work_Zone[4])
207: 0x037E [0x40] SET_BIT_WORK_RANGE(start_bit=6*, end_bit=8*, target=Work_Zone[2], source=Work_Zone[5])
208: 0x0387 [0x03] Work_Zone[1] = 494*
209: 0x038C [0x40] SET_BIT_WORK_RANGE(start_bit=16*, end_bit=31*, target=Work_Zone[1], source=Work_Zone[2])
210: 0x0395 [0x43] SEND_EVENT_UPDATE: Send pending tag to server (packet 0x005B)
211: 0x0397 [0x43] SEND_EVENT_UPDATE: Check pending flag (skip if not pending)
212: 0x0399 [0x01] GOTO 0x0511
213: 0x039C [0x02] IF !(Work_Zone[0] == 1*) GOTO 0x03DA
214: 0x03A4 [0x1A] CALL_SUBROUTINE(address=0x0512)
215: 0x03A7 [0x06] Work_Zone[2] = 0
216: 0x03AA [0x40] SET_BIT_WORK_RANGE(start_bit=0*, end_bit=2*, target=Work_Zone[2], source=Work_Zone[3])
217: 0x03B3 [0x40] SET_BIT_WORK_RANGE(start_bit=3*, end_bit=5*, target=Work_Zone[2], source=Work_Zone[4])
218: 0x03BC [0x40] SET_BIT_WORK_RANGE(start_bit=6*, end_bit=8*, target=Work_Zone[2], source=Work_Zone[5])
219: 0x03C5 [0x03] Work_Zone[1] = 750*
220: 0x03CA [0x40] SET_BIT_WORK_RANGE(start_bit=16*, end_bit=31*, target=Work_Zone[1], source=Work_Zone[2])
221: 0x03D3 [0x43] SEND_EVENT_UPDATE: Send pending tag to server (packet 0x005B)
222: 0x03D5 [0x43] SEND_EVENT_UPDATE: Check pending flag (skip if not pending)
223: 0x03D7 [0x01] GOTO 0x0511
224: 0x03DA [0x02] IF !(Work_Zone[0] == 2*) GOTO 0x0418
225: 0x03E2 [0x1A] CALL_SUBROUTINE(address=0x0512)
226: 0x03E5 [0x06] Work_Zone[2] = 0
227: 0x03E8 [0x40] SET_BIT_WORK_RANGE(start_bit=0*, end_bit=2*, target=Work_Zone[2], source=Work_Zone[3])
228: 0x03F1 [0x40] SET_BIT_WORK_RANGE(start_bit=3*, end_bit=5*, target=Work_Zone[2], source=Work_Zone[4])
229: 0x03FA [0x40] SET_BIT_WORK_RANGE(start_bit=6*, end_bit=8*, target=Work_Zone[2], source=Work_Zone[5])
230: 0x0403 [0x03] Work_Zone[1] = 1006*
231: 0x0408 [0x40] SET_BIT_WORK_RANGE(start_bit=16*, end_bit=31*, target=Work_Zone[1], source=Work_Zone[2])
232: 0x0411 [0x43] SEND_EVENT_UPDATE: Send pending tag to server (packet 0x005B)
233: 0x0413 [0x43] SEND_EVENT_UPDATE: Check pending flag (skip if not pending)
234: 0x0415 [0x01] GOTO 0x0511
235: 0x0418 [0x02] IF !(Work_Zone[0] == 3*) GOTO 0x0456
236: 0x0420 [0x1A] CALL_SUBROUTINE(address=0x0512)
237: 0x0423 [0x06] Work_Zone[2] = 0
238: 0x0426 [0x40] SET_BIT_WORK_RANGE(start_bit=0*, end_bit=2*, target=Work_Zone[2], source=Work_Zone[3])
239: 0x042F [0x40] SET_BIT_WORK_RANGE(start_bit=3*, end_bit=5*, target=Work_Zone[2], source=Work_Zone[4])
240: 0x0438 [0x40] SET_BIT_WORK_RANGE(start_bit=6*, end_bit=8*, target=Work_Zone[2], source=Work_Zone[5])
241: 0x0441 [0x03] Work_Zone[1] = 1262*
242: 0x0446 [0x40] SET_BIT_WORK_RANGE(start_bit=16*, end_bit=31*, target=Work_Zone[1], source=Work_Zone[2])
243: 0x044F [0x43] SEND_EVENT_UPDATE: Send pending tag to server (packet 0x005B)
244: 0x0451 [0x43] SEND_EVENT_UPDATE: Check pending flag (skip if not pending)
245: 0x0453 [0x01] GOTO 0x0511
246: 0x0456 [0x02] IF !(Work_Zone[0] == 4*) GOTO 0x0494
247: 0x045E [0x1A] CALL_SUBROUTINE(address=0x0512)
248: 0x0461 [0x06] Work_Zone[2] = 0
249: 0x0464 [0x40] SET_BIT_WORK_RANGE(start_bit=0*, end_bit=2*, target=Work_Zone[2], source=Work_Zone[3])
250: 0x046D [0x40] SET_BIT_WORK_RANGE(start_bit=3*, end_bit=5*, target=Work_Zone[2], source=Work_Zone[4])
251: 0x0476 [0x40] SET_BIT_WORK_RANGE(start_bit=6*, end_bit=8*, target=Work_Zone[2], source=Work_Zone[5])
252: 0x047F [0x03] Work_Zone[1] = 1518*
253: 0x0484 [0x40] SET_BIT_WORK_RANGE(start_bit=16*, end_bit=31*, target=Work_Zone[1], source=Work_Zone[2])
254: 0x048D [0x43] SEND_EVENT_UPDATE: Send pending tag to server (packet 0x005B)
255: 0x048F [0x43] SEND_EVENT_UPDATE: Check pending flag (skip if not pending)
256: 0x0491 [0x01] GOTO 0x0511
257: 0x0494 [0x02] IF !(Work_Zone[0] == 5*) GOTO 0x04D2
258: 0x049C [0x1A] CALL_SUBROUTINE(address=0x0512)
259: 0x049F [0x06] Work_Zone[2] = 0
260: 0x04A2 [0x40] SET_BIT_WORK_RANGE(start_bit=0*, end_bit=2*, target=Work_Zone[2], source=Work_Zone[3])
261: 0x04AB [0x40] SET_BIT_WORK_RANGE(start_bit=3*, end_bit=5*, target=Work_Zone[2], source=Work_Zone[4])
262: 0x04B4 [0x40] SET_BIT_WORK_RANGE(start_bit=6*, end_bit=8*, target=Work_Zone[2], source=Work_Zone[5])
263: 0x04BD [0x03] Work_Zone[1] = 1774*
264: 0x04C2 [0x40] SET_BIT_WORK_RANGE(start_bit=16*, end_bit=31*, target=Work_Zone[1], source=Work_Zone[2])
265: 0x04CB [0x43] SEND_EVENT_UPDATE: Send pending tag to server (packet 0x005B)
266: 0x04CD [0x43] SEND_EVENT_UPDATE: Check pending flag (skip if not pending)
267: 0x04CF [0x01] GOTO 0x0511
268: 0x04D2 [0x02] IF !(Work_Zone[0] == 6*) GOTO 0x0510
269: 0x04DA [0x1A] CALL_SUBROUTINE(address=0x0512)
270: 0x04DD [0x06] Work_Zone[2] = 0
271: 0x04E0 [0x40] SET_BIT_WORK_RANGE(start_bit=0*, end_bit=2*, target=Work_Zone[2], source=Work_Zone[3])
272: 0x04E9 [0x40] SET_BIT_WORK_RANGE(start_bit=3*, end_bit=5*, target=Work_Zone[2], source=Work_Zone[4])
273: 0x04F2 [0x40] SET_BIT_WORK_RANGE(start_bit=6*, end_bit=8*, target=Work_Zone[2], source=Work_Zone[5])
274: 0x04FB [0x03] Work_Zone[1] = 2030*
275: 0x0500 [0x40] SET_BIT_WORK_RANGE(start_bit=16*, end_bit=31*, target=Work_Zone[1], source=Work_Zone[2])
276: 0x0509 [0x43] SEND_EVENT_UPDATE: Send pending tag to server (packet 0x005B)
277: 0x050B [0x43] SEND_EVENT_UPDATE: Check pending flag (skip if not pending)
278: 0x050D [0x01] GOTO 0x0511
279: 0x0510 [0x1B] RETURN

SUBROUTINE_0511:
280: 0x0511 [0x1B] RETURN

SUBROUTINE_0512:
281: 0x0512 [0x06] Work_Zone[3] = 0
282: 0x0515 [0x06] Work_Zone[4] = 0
283: 0x0518 [0x06] Work_Zone[5] = 0
284: 0x051B [0x24] CREATE_DIALOG(message_id=10801*, default_option=0*, option_flags=0*)
    → "Pick one. [Y/B/b/R/G/Cancel.]"
285: 0x0522 [0x25] WAIT_DIALOG_SELECT()
286: 0x0523 [0x02] IF !(Work_Zone[0] == 0*) GOTO 0x0533
287: 0x052B [0x03] Work_Zone[3] = 0*
288: 0x0530 [0x01] GOTO 0x0574
289: 0x0533 [0x02] IF !(Work_Zone[0] == 1*) GOTO 0x0543
290: 0x053B [0x03] Work_Zone[3] = 1*
291: 0x0540 [0x01] GOTO 0x0574
292: 0x0543 [0x02] IF !(Work_Zone[0] == 2*) GOTO 0x0553
293: 0x054B [0x03] Work_Zone[3] = 2*
294: 0x0550 [0x01] GOTO 0x0574
295: 0x0553 [0x02] IF !(Work_Zone[0] == 3*) GOTO 0x0563
296: 0x055B [0x03] Work_Zone[3] = 3*
297: 0x0560 [0x01] GOTO 0x0574
298: 0x0563 [0x02] IF !(Work_Zone[0] == 4*) GOTO 0x0573
299: 0x056B [0x03] Work_Zone[3] = 4*
300: 0x0570 [0x01] GOTO 0x0574
301: 0x0573 [0x1B] RETURN

SUBROUTINE_0574:
302: 0x0574 [0x24] CREATE_DIALOG(message_id=10801*, default_option=0*, option_flags=0*)
    → "Pick one. [Y/B/b/R/G/Cancel.]"
303: 0x057B [0x25] WAIT_DIALOG_SELECT()
304: 0x057C [0x02] IF !(Work_Zone[0] == 0*) GOTO 0x058C
305: 0x0584 [0x03] Work_Zone[4] = 0*
306: 0x0589 [0x01] GOTO 0x05CD
307: 0x058C [0x02] IF !(Work_Zone[0] == 1*) GOTO 0x059C
308: 0x0594 [0x03] Work_Zone[4] = 1*
309: 0x0599 [0x01] GOTO 0x05CD
310: 0x059C [0x02] IF !(Work_Zone[0] == 2*) GOTO 0x05AC
311: 0x05A4 [0x03] Work_Zone[4] = 2*
312: 0x05A9 [0x01] GOTO 0x05CD
313: 0x05AC [0x02] IF !(Work_Zone[0] == 3*) GOTO 0x05BC
314: 0x05B4 [0x03] Work_Zone[4] = 3*
315: 0x05B9 [0x01] GOTO 0x05CD
316: 0x05BC [0x02] IF !(Work_Zone[0] == 4*) GOTO 0x05CC
317: 0x05C4 [0x03] Work_Zone[4] = 4*
318: 0x05C9 [0x01] GOTO 0x05CD
319: 0x05CC [0x1B] RETURN

SUBROUTINE_05CD:
320: 0x05CD [0x24] CREATE_DIALOG(message_id=10801*, default_option=0*, option_flags=0*)
    → "Pick one. [Y/B/b/R/G/Cancel.]"
321: 0x05D4 [0x25] WAIT_DIALOG_SELECT()
322: 0x05D5 [0x02] IF !(Work_Zone[0] == 0*) GOTO 0x05E5
323: 0x05DD [0x03] Work_Zone[5] = 0*
324: 0x05E2 [0x01] GOTO 0x0626
325: 0x05E5 [0x02] IF !(Work_Zone[0] == 1*) GOTO 0x05F5
326: 0x05ED [0x03] Work_Zone[5] = 1*
327: 0x05F2 [0x01] GOTO 0x0626
328: 0x05F5 [0x02] IF !(Work_Zone[0] == 2*) GOTO 0x0605
329: 0x05FD [0x03] Work_Zone[5] = 2*
330: 0x0602 [0x01] GOTO 0x0626
331: 0x0605 [0x02] IF !(Work_Zone[0] == 3*) GOTO 0x0615
332: 0x060D [0x03] Work_Zone[5] = 3*
333: 0x0612 [0x01] GOTO 0x0626
334: 0x0615 [0x02] IF !(Work_Zone[0] == 4*) GOTO 0x0625
335: 0x061D [0x03] Work_Zone[5] = 4*
336: 0x0622 [0x01] GOTO 0x0626
337: 0x0625 [0x1B] RETURN

SUBROUTINE_0626:
338: 0x0626 [0x1B] RETURN

SUBROUTINE_0627:
339: 0x0627 [0x03] Work_Zone[1] = 493*
340: 0x062C [0x43] SEND_EVENT_UPDATE: Send pending tag to server (packet 0x005B)
341: 0x062E [0x43] SEND_EVENT_UPDATE: Check pending flag (skip if not pending)
342: 0x0630 [0x41] Work_Zone[3] = Work_Zone[2] (bits 3*-5*)
343: 0x0639 [0x41] Work_Zone[4] = Work_Zone[2] (bits 6*-8*)
344: 0x0642 [0x0D] Work_Zone[2] &= 7*
345: 0x0647 [0x48] [System] [10863*]:
    → "D$3Z$3b$3gF[Y/B/b/r/g][Y/B/b/r/g][Y/B/b/r/g]"
346: 0x064A [0x24] CREATE_DIALOG(message_id=10801*, default_option=0*, option_flags=0*)
    → "Pick one. [Y/B/b/R/G/Cancel.]"
347: 0x0651 [0x25] WAIT_DIALOG_SELECT()
348: 0x0652 [0x02] IF !(Work_Zone[0] == 0*) GOTO 0x065D
349: 0x065A [0x01] GOTO 0x065D

SUBROUTINE_065D:
350: 0x065D [0x02] IF !(Work_Zone[0] <= 4*) GOTO 0x0669
351: 0x0665 [0x1B] RETURN

SUBROUTINE_066E:
352: 0x066E [0x24] CREATE_DIALOG(message_id=10801*, default_option=0*, option_flags=0*)
    → "Pick one. [Y/B/b/R/G/Cancel.]"
353: 0x0675 [0x25] WAIT_DIALOG_SELECT()
354: 0x0676 [0x02] IF !(Work_Zone[0] == 0*) GOTO 0x0681
355: 0x067E [0x01] GOTO 0x0681

SUBROUTINE_0681:
356: 0x0681 [0x02] IF !(Work_Zone[0] <= 4*) GOTO 0x068D
357: 0x0689 [0x1B] RETURN

SUBROUTINE_0692:
358: 0x0692 [0x24] CREATE_DIALOG(message_id=10801*, default_option=0*, option_flags=0*)
    → "Pick one. [Y/B/b/R/G/Cancel.]"
359: 0x0699 [0x25] WAIT_DIALOG_SELECT()
360: 0x069A [0x02] IF !(Work_Zone[0] == 0*) GOTO 0x06A5
361: 0x06A2 [0x01] GOTO 0x06A5

SUBROUTINE_06A5:
362: 0x06A5 [0x02] IF !(Work_Zone[0] <= 4*) GOTO 0x06B1
363: 0x06AD [0x1B] RETURN

SUBROUTINE_06B6:
364: 0x06B6 [0x06] Work_Zone[2] = 0
365: 0x06B9 [0x40] SET_BIT_WORK_RANGE(start_bit=0*, end_bit=2*, target=Work_Zone[2], source=Work_Zone[3])
366: 0x06C2 [0x40] SET_BIT_WORK_RANGE(start_bit=3*, end_bit=5*, target=Work_Zone[2], source=Work_Zone[4])
367: 0x06CB [0x40] SET_BIT_WORK_RANGE(start_bit=6*, end_bit=8*, target=Work_Zone[2], source=Work_Zone[5])
368: 0x06D4 [0x03] Work_Zone[6] = Work_Zone[2]
369: 0x06D9 [0x03] Work_Zone[2] = Work_Zone[3]
370: 0x06DE [0x03] Work_Zone[3] = Work_Zone[4]
371: 0x06E3 [0x03] Work_Zone[4] = Work_Zone[5]
372: 0x06E8 [0x48] [System] [10863*]:
    → "D$3Z$3b$3gF[Y/B/b/r/g][Y/B/b/r/g][Y/B/b/r/g]"
373: 0x06EB [0x03] Work_Zone[2] = Work_Zone[6]
374: 0x06F0 [0x03] Work_Zone[1] = 237*
375: 0x06F5 [0x40] SET_BIT_WORK_RANGE(start_bit=16*, end_bit=31*, target=Work_Zone[1], source=Work_Zone[2])
376: 0x06FE [0x43] SEND_EVENT_UPDATE: Send pending tag to server (packet 0x005B)
377: 0x0700 [0x43] SEND_EVENT_UPDATE: Check pending flag (skip if not pending)
378: 0x0702 [0x24] CREATE_DIALOG(message_id=10802*, default_option=0*, option_flags=0*)
    → "$P14-;$P14=%f5\7)$6881847 5H""
379: 0x0709 [0x25] WAIT_DIALOG_SELECT()
380: 0x070A [0x02] IF !(Work_Zone[0] == 0*) GOTO 0x071E
381: 0x0712 [0x03] Work_Zone[1] = 749*
382: 0x0717 [0x43] SEND_EVENT_UPDATE: Send pending tag to server (packet 0x005B)
383: 0x0719 [0x43] SEND_EVENT_UPDATE: Check pending flag (skip if not pending)
384: 0x071B [0x01] GOTO 0x071E

SUBROUTINE_071E:
385: 0x071E [0x1B] RETURN

SUBROUTINE_071F:
386: 0x071F [0x24] CREATE_DIALOG(message_id=10800*, default_option=0*, option_flags=0*)
    → "Pick a growth stage. [Not raising chocobo./Egg./Chick./Young chocobo./Mature chocobo./Peak ability./Settling down./Retirement./Cancel.]"
387: 0x0726 [0x25] WAIT_DIALOG_SELECT()
388: 0x0727 [0x02] IF !(Work_Zone[0] == 0*) GOTO 0x0732
389: 0x072F [0x01] GOTO 0x0732

SUBROUTINE_0732:
390: 0x0732 [0x02] IF !(Work_Zone[0] > 7*) GOTO 0x0748
391: 0x073A [0x03] Work_Zone[1] = 236*
392: 0x073F [0x40] SET_BIT_WORK_RANGE(start_bit=8*, end_bit=15*, target=Work_Zone[1], source=Work_Zone[0])
393: 0x0748 [0x1B] RETURN

SUBROUTINE_0749:
394: 0x0749 [0x24] CREATE_DIALOG(message_id=10794*, default_option=0*, option_flags=0*)
    → "Choose a statistic to alter. [Strength (STR)./Endurance (VIT)./Discernment (INT)./Receptivity (MND)./Affection./Energy (HP)./Satisfaction./Temperament./Weather preference./Color./Stable./Cancel.]"
395: 0x0750 [0x25] WAIT_DIALOG_SELECT()
396: 0x0751 [0x02] IF !(Work_Zone[0] == 0*) GOTO 0x0761
397: 0x0759 [0x03] Work_Zone[3] = 0*
398: 0x075E [0x01] GOTO 0x0839
399: 0x0761 [0x02] IF !(Work_Zone[0] == 1*) GOTO 0x0771
400: 0x0769 [0x03] Work_Zone[3] = 1*
401: 0x076E [0x01] GOTO 0x0839
402: 0x0771 [0x02] IF !(Work_Zone[0] == 2*) GOTO 0x0781
403: 0x0779 [0x03] Work_Zone[3] = 2*
404: 0x077E [0x01] GOTO 0x0839
405: 0x0781 [0x02] IF !(Work_Zone[0] == 3*) GOTO 0x0791
406: 0x0789 [0x03] Work_Zone[3] = 3*
407: 0x078E [0x01] GOTO 0x0839
408: 0x0791 [0x02] IF !(Work_Zone[0] == 4*) GOTO 0x07A1
409: 0x0799 [0x03] Work_Zone[3] = 4*
410: 0x079E [0x01] GOTO 0x0839
411: 0x07A1 [0x02] IF !(Work_Zone[0] == 5*) GOTO 0x07B1
412: 0x07A9 [0x03] Work_Zone[3] = 5*
413: 0x07AE [0x01] GOTO 0x0839
414: 0x07B1 [0x02] IF !(Work_Zone[0] == 6*) GOTO 0x07C1
415: 0x07B9 [0x03] Work_Zone[3] = 6*
416: 0x07BE [0x01] GOTO 0x0839
417: 0x07C1 [0x02] IF !(Work_Zone[0] == 7*) GOTO 0x07D0
418: 0x07C9 [0x1A] CALL_SUBROUTINE(address=0x0FDA)
419: 0x07CC [0x1B] RETURN

SUBROUTINE_0809:
420: 0x0809 [0x02] IF !(Work_Zone[0] >= 3*) GOTO 0x0834
421: 0x0811 [0x03] Work_Zone[2] = Work_Zone[0]
422: 0x0816 [0x0B] Work_Zone[2]++
423: 0x0819 [0x03] Work_Zone[1] = 230*
424: 0x081E [0x40] SET_BIT_WORK_RANGE(start_bit=8*, end_bit=15*, target=Work_Zone[1], source=Work_Zone[2])
425: 0x0827 [0x40] SET_BIT_WORK_RANGE(start_bit=16*, end_bit=23*, target=Work_Zone[1], source=7*)
426: 0x0830 [0x43] SEND_EVENT_UPDATE: Send pending tag to server (packet 0x005B)
427: 0x0832 [0x43] SEND_EVENT_UPDATE: Check pending flag (skip if not pending)
428: 0x0834 [0x1B] RETURN

SUBROUTINE_0839:
429: 0x0839 [0x06] Work_Zone_1700[3] = 0
430: 0x083C [0x06] Work_Zone_1700[2] = 0
431: 0x083F [0x1D] PRINT_EVENT_MESSAGE(message_id=10783*)
    → "Please specify your desired [strength/endurance/discernment/receptivity/affection/HP/satisfaction] level (Maximum of 255)."
432: 0x0842 [0x23] WAIT_FOR_DIALOG_INTERACTION
433: 0x0843 [0x1A] CALL_SUBROUTINE(address=0x092B)
434: 0x0846 [0x02] IF !(Work_Zone[2] == 4294967295*) GOTO 0x084F
435: 0x084E [0x1B] RETURN
436: 0x084F [0x1A] CALL_SUBROUTINE(address=0x0963)
437: 0x0852 [0x02] IF !(Work_Zone[2] == 4294967295*) GOTO 0x085B
438: 0x085A [0x1B] RETURN
439: 0x085B [0x1A] CALL_SUBROUTINE(address=0x099A)
440: 0x085E [0x02] IF !(Work_Zone[1] == 4294967295*) GOTO 0x0867
441: 0x0866 [0x1B] RETURN
442: 0x0867 [0x02] IF !(Work_Zone[1] <= 255*) GOTO 0x0874
443: 0x086F [0x03] Work_Zone[1] = 255*
444: 0x0874 [0x02] IF !(Work_Zone[1] >= 0*) GOTO 0x087F
445: 0x087C [0x06] Work_Zone[1] = 0
446: 0x087F [0x14] Work_Zone[1] *= 256*
447: 0x0884 [0x0E] Work_Zone[1] |= 230*
448: 0x0889 [0x40] SET_BIT_WORK_RANGE(start_bit=16*, end_bit=23*, target=Work_Zone[1], source=Work_Zone[3])
449: 0x0892 [0x43] SEND_EVENT_UPDATE: Send pending tag to server (packet 0x005B)
450: 0x0894 [0x43] SEND_EVENT_UPDATE: Check pending flag (skip if not pending)
451: 0x0896 [0x1B] RETURN

SUBROUTINE_0897:
452: 0x0897 [0x03] Work_Zone[1] = 228*
453: 0x089C [0x43] SEND_EVENT_UPDATE: Send pending tag to server (packet 0x005B)
454: 0x089E [0x43] SEND_EVENT_UPDATE: Check pending flag (skip if not pending)
455: 0x08A0 [0x1B] RETURN

SUBROUTINE_08A1:
456: 0x08A1 [0x48] [System] [10871*]:
    → "Returning settings to default."
457: 0x08A4 [0x23] WAIT_FOR_DIALOG_INTERACTION
458: 0x08A5 [0x03] Work_Zone[1] = 227*
459: 0x08AA [0x43] SEND_EVENT_UPDATE: Send pending tag to server (packet 0x005B)
460: 0x08AC [0x43] SEND_EVENT_UPDATE: Check pending flag (skip if not pending)
461: 0x08AE [0x1B] RETURN

SUBROUTINE_08AF:
462: 0x08AF [0x06] Work_Zone_1700[2] = 0
463: 0x08B2 [0x06] Work_Zone_1700[3] = 0
464: 0x08B5 [0x1D] PRINT_EVENT_MESSAGE(message_id=10782*)
    → "Please specify the amount of time you wish to move forward (1-255)."
465: 0x08B8 [0x23] WAIT_FOR_DIALOG_INTERACTION
466: 0x08B9 [0x1A] CALL_SUBROUTINE(address=0x092B)
467: 0x08BC [0x02] IF !(Work_Zone[2] == 4294967295*) GOTO 0x08C5
468: 0x08C4 [0x1B] RETURN
469: 0x08C5 [0x1A] CALL_SUBROUTINE(address=0x0963)
470: 0x08C8 [0x02] IF !(Work_Zone[2] == 4294967295*) GOTO 0x08D1
471: 0x08D0 [0x1B] RETURN
472: 0x08D1 [0x1A] CALL_SUBROUTINE(address=0x099A)
473: 0x08D4 [0x02] IF !(Work_Zone[1] == 4294967295*) GOTO 0x08DD
474: 0x08DC [0x1B] RETURN
475: 0x08DD [0x02] IF !(Work_Zone[1] <= 255*) GOTO 0x08EA
476: 0x08E5 [0x03] Work_Zone[1] = 255*
477: 0x08EA [0x02] IF !(Work_Zone[1] >= 0*) GOTO 0x08F5
478: 0x08F2 [0x06] Work_Zone[1] = 0
479: 0x08F5 [0x14] Work_Zone[1] *= 256*
480: 0x08FA [0x0E] Work_Zone[1] |= 226*
481: 0x08FF [0x43] SEND_EVENT_UPDATE: Send pending tag to server (packet 0x005B)
482: 0x0901 [0x43] SEND_EVENT_UPDATE: Check pending flag (skip if not pending)
483: 0x0903 [0x24] CREATE_DIALOG(message_id=10781*, default_option=1*, option_flags=0*)
    → "Skip events after moving time forward? [Skip all events./Don't skip events.]"
484: 0x090A [0x25] WAIT_DIALOG_SELECT()
485: 0x090B [0x02] IF !(Work_Zone[0] == 0*) GOTO 0x091F
486: 0x0913 [0x03] Work_Zone[1] = 231*
487: 0x0918 [0x43] SEND_EVENT_UPDATE: Send pending tag to server (packet 0x005B)
488: 0x091A [0x43] SEND_EVENT_UPDATE: Check pending flag (skip if not pending)
489: 0x091C [0x01] GOTO 0x092A
490: 0x091F [0x02] IF !(Work_Zone[0] == 1*) GOTO 0x092A
491: 0x0927 [0x01] GOTO 0x092A

SUBROUTINE_092A:
492: 0x092A [0x1B] RETURN

SUBROUTINE_092B:
493: 0x092B [0x24] CREATE_DIALOG(message_id=10784*, default_option=0*, option_flags=0*)
    → "Choose your range in hundreds. [000-099./100-199."00-255./Cancel.]"
494: 0x0932 [0x25] WAIT_DIALOG_SELECT()
495: 0x0933 [0x02] IF !(Work_Zone[0] == 0*) GOTO 0x0943
496: 0x093B [0x03] Work_Zone_1700[3] = 0*
497: 0x0940 [0x01] GOTO 0x0943

SUBROUTINE_0943:
498: 0x0943 [0x02] IF !(Work_Zone[0] >= 10*) GOTO 0x0958
499: 0x094B [0x03] Work_Zone_1700[3] = 100*
500: 0x0950 [0x14] Work_Zone_1700[3] *= Work_Zone[0]
501: 0x0955 [0x01] GOTO 0x095D
502: 0x0958 [0x03] Work_Zone_1700[3] = 4294967295*

SUBROUTINE_095D:
503: 0x095D [0x03] Work_Zone[2] = Work_Zone_1700[3]
504: 0x0962 [0x1B] RETURN

SUBROUTINE_0963:
505: 0x0963 [0x24] CREATE_DIALOG(message_id=10785*, default_option=0*, option_flags=0*)
    → "Choose your range in tens. [00-09./10-19."0-29."0-39./40-49./50-59./60-69./70-79./80-89./90-99./Cancel.]"
506: 0x096A [0x25] WAIT_DIALOG_SELECT()
507: 0x096B [0x02] IF !(Work_Zone[0] == 0*) GOTO 0x0976
508: 0x0973 [0x01] GOTO 0x0976

SUBROUTINE_0976:
509: 0x0976 [0x02] IF !(Work_Zone[0] >= 10*) GOTO 0x098B
510: 0x097E [0x03] Work_Zone_1700[2] = 10*
511: 0x0983 [0x14] Work_Zone_1700[2] *= Work_Zone[0]
512: 0x0988 [0x01] GOTO 0x0994
513: 0x098B [0x06] Work_Zone[2] = 0
514: 0x098E [0x03] Work_Zone_1700[2] = 4294967295*
515: 0x0993 [0x1B] RETURN

SUBROUTINE_0994:
516: 0x0994 [0x07] Work_Zone[2] += Work_Zone_1700[2]
517: 0x0999 [0x1B] RETURN

SUBROUTINE_099A:
518: 0x099A [0x06] Work_Zone[1] = 0
519: 0x099D [0x24] CREATE_DIALOG(message_id=10786*, default_option=0*, option_flags=0*)
    → "Choose your range to the single digit. [0./1."."./4./5./6./7./8./9./Cancel.]"
520: 0x09A4 [0x25] WAIT_DIALOG_SELECT()
521: 0x09A5 [0x02] IF !(Work_Zone[0] == 0*) GOTO 0x09B0
522: 0x09AD [0x01] GOTO 0x09B0

SUBROUTINE_09B0:
523: 0x09B0 [0x02] IF !(Work_Zone[0] >= 10*) GOTO 0x09C0
524: 0x09B8 [0x03] Work_Zone[1] = Work_Zone[0]
525: 0x09BD [0x01] GOTO 0x09C6
526: 0x09C0 [0x03] Work_Zone[1] = 4294967295*
527: 0x09C5 [0x1B] RETURN

SUBROUTINE_09C6:
528: 0x09C6 [0x07] Work_Zone[1] += Work_Zone_1700[3]
529: 0x09CB [0x07] Work_Zone[1] += Work_Zone_1700[2]
530: 0x09D0 [0x1B] RETURN

SUBROUTINE_09D1:
531: 0x09D1 [0x1B] RETURN

SUBROUTINE_09D2:
532: 0x09D2 [0x03] Work_Zone[1] = 229*
533: 0x09D7 [0x43] SEND_EVENT_UPDATE: Send pending tag to server (packet 0x005B)
534: 0x09D9 [0x43] SEND_EVENT_UPDATE: Check pending flag (skip if not pending)
535: 0x09DB [0x03] ExtData[1]->WorkLocal[29] = Work_Zone[3]
536: 0x09E0 [0x03] ExtData[1]->WorkLocal[30] = Work_Zone[4]
537: 0x09E5 [0x41] Work_Zone[2] = ExtData[1]->WorkLocal[29] (bits 0*-7*)
538: 0x09EE [0x41] Work_Zone[3] = ExtData[1]->WorkLocal[29] (bits 8*-15*)
539: 0x09F7 [0x41] Work_Zone[4] = ExtData[1]->WorkLocal[29] (bits 16*-23*)
540: 0x0A00 [0x41] Work_Zone[5] = ExtData[1]->WorkLocal[29] (bits 24*-31*)
541: 0x0A09 [0x1D] PRINT_EVENT_MESSAGE(message_id=10818*)
    → "STR:$0/VIT:$1/INT:$2/MND:$3"
542: 0x0A0C [0x23] WAIT_FOR_DIALOG_INTERACTION
543: 0x0A0D [0x41] Work_Zone[2] = ExtData[1]->WorkLocal[30] (bits 0*-7*)
544: 0x0A16 [0x41] Work_Zone[3] = ExtData[1]->WorkLocal[30] (bits 8*-15*)
545: 0x0A1F [0x41] Work_Zone[4] = ExtData[1]->WorkLocal[30] (bits 16*-23*)
546: 0x0A28 [0x1D] PRINT_EVENT_MESSAGE(message_id=10820*)
    → "Affection:$0/Energy:$1/Satisfaction:$2"
547: 0x0A2B [0x23] WAIT_FOR_DIALOG_INTERACTION
548: 0x0A2C [0x1B] RETURN

SUBROUTINE_0A2D:
549: 0x0A2D [0x24] CREATE_DIALOG(message_id=10798*, default_option=0*, option_flags=0*)
    → "Select an option. [Check status./Inflict status./Heal status./Inflict status.(Do it next cluc.)/Cancel.]"
550: 0x0A34 [0x25] WAIT_DIALOG_SELECT()
551: 0x0A35 [0x02] IF !(Work_Zone[0] == 0*) GOTO 0x0A4C
552: 0x0A3D [0x48] [System] [10874*]:
    → "+=-=-=-=-=-=-DEBUG START=-=-=-=-=-=-=+"
553: 0x0A40 [0x03] Work_Zone[1] = 233*
554: 0x0A45 [0x43] SEND_EVENT_UPDATE: Send pending tag to server (packet 0x005B)
555: 0x0A47 [0x43] SEND_EVENT_UPDATE: Check pending flag (skip if not pending)
556: 0x0A49 [0x01] GOTO 0x0FD9
557: 0x0A4C [0x02] IF !(Work_Zone[0] == 1*) GOTO 0x0C2D
558: 0x0A54 [0x24] CREATE_DIALOG(message_id=10799*, default_option=0*, option_flags=0*)
    → "Which status abnormality? [Injury./Minor illness./Stomachache./Loneliness./Happiness./Laziness./Serious illness./Confusion./Spoiled chocobo./Runaway./In love./Crying at night./Vitality./Intelligence./Cancel.]"
559: 0x0A5B [0x25] WAIT_DIALOG_SELECT()
560: 0x0A5C [0x02] IF !(Work_Zone[0] == 0*) GOTO 0x0A7D
561: 0x0A64 [0x40] SET_BIT_WORK_RANGE(start_bit=0*, end_bit=7*, target=Work_Zone[1], source=235*)
562: 0x0A6D [0x40] SET_BIT_WORK_RANGE(start_bit=8*, end_bit=15*, target=Work_Zone[1], source=0*)
563: 0x0A76 [0x43] SEND_EVENT_UPDATE: Send pending tag to server (packet 0x005B)
564: 0x0A78 [0x43] SEND_EVENT_UPDATE: Check pending flag (skip if not pending)
565: 0x0A7A [0x01] GOTO 0x0C2A
566: 0x0A7D [0x02] IF !(Work_Zone[0] == 1*) GOTO 0x0A9E
567: 0x0A85 [0x40] SET_BIT_WORK_RANGE(start_bit=0*, end_bit=7*, target=Work_Zone[1], source=235*)
568: 0x0A8E [0x40] SET_BIT_WORK_RANGE(start_bit=8*, end_bit=15*, target=Work_Zone[1], source=1*)
569: 0x0A97 [0x43] SEND_EVENT_UPDATE: Send pending tag to server (packet 0x005B)
570: 0x0A99 [0x43] SEND_EVENT_UPDATE: Check pending flag (skip if not pending)
571: 0x0A9B [0x01] GOTO 0x0C2A
572: 0x0A9E [0x02] IF !(Work_Zone[0] == 2*) GOTO 0x0ABF
573: 0x0AA6 [0x40] SET_BIT_WORK_RANGE(start_bit=0*, end_bit=7*, target=Work_Zone[1], source=235*)
574: 0x0AAF [0x40] SET_BIT_WORK_RANGE(start_bit=8*, end_bit=15*, target=Work_Zone[1], source=2*)
575: 0x0AB8 [0x43] SEND_EVENT_UPDATE: Send pending tag to server (packet 0x005B)
576: 0x0ABA [0x43] SEND_EVENT_UPDATE: Check pending flag (skip if not pending)
577: 0x0ABC [0x01] GOTO 0x0C2A
578: 0x0ABF [0x02] IF !(Work_Zone[0] == 3*) GOTO 0x0AE0
579: 0x0AC7 [0x40] SET_BIT_WORK_RANGE(start_bit=0*, end_bit=7*, target=Work_Zone[1], source=235*)
580: 0x0AD0 [0x40] SET_BIT_WORK_RANGE(start_bit=8*, end_bit=15*, target=Work_Zone[1], source=3*)
581: 0x0AD9 [0x43] SEND_EVENT_UPDATE: Send pending tag to server (packet 0x005B)
582: 0x0ADB [0x43] SEND_EVENT_UPDATE: Check pending flag (skip if not pending)
583: 0x0ADD [0x01] GOTO 0x0C2A
584: 0x0AE0 [0x02] IF !(Work_Zone[0] == 4*) GOTO 0x0B01
585: 0x0AE8 [0x40] SET_BIT_WORK_RANGE(start_bit=0*, end_bit=7*, target=Work_Zone[1], source=235*)
586: 0x0AF1 [0x40] SET_BIT_WORK_RANGE(start_bit=8*, end_bit=15*, target=Work_Zone[1], source=4*)
587: 0x0AFA [0x43] SEND_EVENT_UPDATE: Send pending tag to server (packet 0x005B)
588: 0x0AFC [0x43] SEND_EVENT_UPDATE: Check pending flag (skip if not pending)
589: 0x0AFE [0x01] GOTO 0x0C2A
590: 0x0B01 [0x02] IF !(Work_Zone[0] == 5*) GOTO 0x0B22
591: 0x0B09 [0x40] SET_BIT_WORK_RANGE(start_bit=0*, end_bit=7*, target=Work_Zone[1], source=235*)
592: 0x0B12 [0x40] SET_BIT_WORK_RANGE(start_bit=8*, end_bit=15*, target=Work_Zone[1], source=5*)
593: 0x0B1B [0x43] SEND_EVENT_UPDATE: Send pending tag to server (packet 0x005B)
594: 0x0B1D [0x43] SEND_EVENT_UPDATE: Check pending flag (skip if not pending)
595: 0x0B1F [0x01] GOTO 0x0C2A
596: 0x0B22 [0x02] IF !(Work_Zone[0] == 6*) GOTO 0x0B43
597: 0x0B2A [0x40] SET_BIT_WORK_RANGE(start_bit=0*, end_bit=7*, target=Work_Zone[1], source=235*)
598: 0x0B33 [0x40] SET_BIT_WORK_RANGE(start_bit=8*, end_bit=15*, target=Work_Zone[1], source=6*)
599: 0x0B3C [0x43] SEND_EVENT_UPDATE: Send pending tag to server (packet 0x005B)
600: 0x0B3E [0x43] SEND_EVENT_UPDATE: Check pending flag (skip if not pending)
601: 0x0B40 [0x01] GOTO 0x0C2A
602: 0x0B43 [0x02] IF !(Work_Zone[0] == 7*) GOTO 0x0B64
603: 0x0B4B [0x40] SET_BIT_WORK_RANGE(start_bit=0*, end_bit=7*, target=Work_Zone[1], source=235*)
604: 0x0B54 [0x40] SET_BIT_WORK_RANGE(start_bit=8*, end_bit=15*, target=Work_Zone[1], source=7*)
605: 0x0B5D [0x43] SEND_EVENT_UPDATE: Send pending tag to server (packet 0x005B)
606: 0x0B5F [0x43] SEND_EVENT_UPDATE: Check pending flag (skip if not pending)
607: 0x0B61 [0x01] GOTO 0x0C2A
608: 0x0B64 [0x02] IF !(Work_Zone[0] == 8*) GOTO 0x0B85
609: 0x0B6C [0x40] SET_BIT_WORK_RANGE(start_bit=0*, end_bit=7*, target=Work_Zone[1], source=235*)
610: 0x0B75 [0x40] SET_BIT_WORK_RANGE(start_bit=8*, end_bit=15*, target=Work_Zone[1], source=8*)
611: 0x0B7E [0x43] SEND_EVENT_UPDATE: Send pending tag to server (packet 0x005B)
612: 0x0B80 [0x43] SEND_EVENT_UPDATE: Check pending flag (skip if not pending)
613: 0x0B82 [0x01] GOTO 0x0C2A
614: 0x0B85 [0x02] IF !(Work_Zone[0] == 9*) GOTO 0x0BA6
615: 0x0B8D [0x40] SET_BIT_WORK_RANGE(start_bit=0*, end_bit=7*, target=Work_Zone[1], source=235*)
616: 0x0B96 [0x40] SET_BIT_WORK_RANGE(start_bit=8*, end_bit=15*, target=Work_Zone[1], source=9*)
617: 0x0B9F [0x43] SEND_EVENT_UPDATE: Send pending tag to server (packet 0x005B)
618: 0x0BA1 [0x43] SEND_EVENT_UPDATE: Check pending flag (skip if not pending)
619: 0x0BA3 [0x01] GOTO 0x0C2A
620: 0x0BA6 [0x02] IF !(Work_Zone[0] == 10*) GOTO 0x0BC7
621: 0x0BAE [0x40] SET_BIT_WORK_RANGE(start_bit=0*, end_bit=7*, target=Work_Zone[1], source=235*)
622: 0x0BB7 [0x40] SET_BIT_WORK_RANGE(start_bit=8*, end_bit=15*, target=Work_Zone[1], source=10*)
623: 0x0BC0 [0x43] SEND_EVENT_UPDATE: Send pending tag to server (packet 0x005B)
624: 0x0BC2 [0x43] SEND_EVENT_UPDATE: Check pending flag (skip if not pending)
625: 0x0BC4 [0x01] GOTO 0x0C2A
626: 0x0BC7 [0x02] IF !(Work_Zone[0] == 11*) GOTO 0x0BE8
627: 0x0BCF [0x40] SET_BIT_WORK_RANGE(start_bit=0*, end_bit=7*, target=Work_Zone[1], source=235*)
628: 0x0BD8 [0x40] SET_BIT_WORK_RANGE(start_bit=8*, end_bit=15*, target=Work_Zone[1], source=11*)
629: 0x0BE1 [0x43] SEND_EVENT_UPDATE: Send pending tag to server (packet 0x005B)
630: 0x0BE3 [0x43] SEND_EVENT_UPDATE: Check pending flag (skip if not pending)
631: 0x0BE5 [0x01] GOTO 0x0C2A
632: 0x0BE8 [0x02] IF !(Work_Zone[0] == 12*) GOTO 0x0C09
633: 0x0BF0 [0x40] SET_BIT_WORK_RANGE(start_bit=0*, end_bit=7*, target=Work_Zone[1], source=235*)
634: 0x0BF9 [0x40] SET_BIT_WORK_RANGE(start_bit=8*, end_bit=15*, target=Work_Zone[1], source=12*)
635: 0x0C02 [0x43] SEND_EVENT_UPDATE: Send pending tag to server (packet 0x005B)
636: 0x0C04 [0x43] SEND_EVENT_UPDATE: Check pending flag (skip if not pending)
637: 0x0C06 [0x01] GOTO 0x0C2A
638: 0x0C09 [0x02] IF !(Work_Zone[0] == 13*) GOTO 0x0C2A
639: 0x0C11 [0x40] SET_BIT_WORK_RANGE(start_bit=0*, end_bit=7*, target=Work_Zone[1], source=235*)
640: 0x0C1A [0x40] SET_BIT_WORK_RANGE(start_bit=8*, end_bit=15*, target=Work_Zone[1], source=13*)
641: 0x0C23 [0x43] SEND_EVENT_UPDATE: Send pending tag to server (packet 0x005B)
642: 0x0C25 [0x43] SEND_EVENT_UPDATE: Check pending flag (skip if not pending)
643: 0x0C27 [0x01] GOTO 0x0C2A

SUBROUTINE_0C2A:
644: 0x0C2A [0x01] GOTO 0x0FD9
645: 0x0C2D [0x02] IF !(Work_Zone[0] == 2*) GOTO 0x0E0E
646: 0x0C35 [0x24] CREATE_DIALOG(message_id=10799*, default_option=0*, option_flags=0*)
    → "Which status abnormality? [Injury./Minor illness./Stomachache./Loneliness./Happiness./Laziness./Serious illness./Confusion./Spoiled chocobo./Runaway./In love./Crying at night./Vitality./Intelligence./Cancel.]"
647: 0x0C3C [0x25] WAIT_DIALOG_SELECT()
648: 0x0C3D [0x02] IF !(Work_Zone[0] == 0*) GOTO 0x0C5E
649: 0x0C45 [0x40] SET_BIT_WORK_RANGE(start_bit=0*, end_bit=7*, target=Work_Zone[1], source=234*)
650: 0x0C4E [0x40] SET_BIT_WORK_RANGE(start_bit=8*, end_bit=15*, target=Work_Zone[1], source=0*)
651: 0x0C57 [0x43] SEND_EVENT_UPDATE: Send pending tag to server (packet 0x005B)
652: 0x0C59 [0x43] SEND_EVENT_UPDATE: Check pending flag (skip if not pending)
653: 0x0C5B [0x01] GOTO 0x0E0B
654: 0x0C5E [0x02] IF !(Work_Zone[0] == 1*) GOTO 0x0C7F
655: 0x0C66 [0x40] SET_BIT_WORK_RANGE(start_bit=0*, end_bit=7*, target=Work_Zone[1], source=234*)
656: 0x0C6F [0x40] SET_BIT_WORK_RANGE(start_bit=8*, end_bit=15*, target=Work_Zone[1], source=1*)
657: 0x0C78 [0x43] SEND_EVENT_UPDATE: Send pending tag to server (packet 0x005B)
658: 0x0C7A [0x43] SEND_EVENT_UPDATE: Check pending flag (skip if not pending)
659: 0x0C7C [0x01] GOTO 0x0E0B
660: 0x0C7F [0x02] IF !(Work_Zone[0] == 2*) GOTO 0x0CA0
661: 0x0C87 [0x40] SET_BIT_WORK_RANGE(start_bit=0*, end_bit=7*, target=Work_Zone[1], source=234*)
662: 0x0C90 [0x40] SET_BIT_WORK_RANGE(start_bit=8*, end_bit=15*, target=Work_Zone[1], source=2*)
663: 0x0C99 [0x43] SEND_EVENT_UPDATE: Send pending tag to server (packet 0x005B)
664: 0x0C9B [0x43] SEND_EVENT_UPDATE: Check pending flag (skip if not pending)
665: 0x0C9D [0x01] GOTO 0x0E0B
666: 0x0CA0 [0x02] IF !(Work_Zone[0] == 3*) GOTO 0x0CC1
667: 0x0CA8 [0x40] SET_BIT_WORK_RANGE(start_bit=0*, end_bit=7*, target=Work_Zone[1], source=234*)
668: 0x0CB1 [0x40] SET_BIT_WORK_RANGE(start_bit=8*, end_bit=15*, target=Work_Zone[1], source=3*)
669: 0x0CBA [0x43] SEND_EVENT_UPDATE: Send pending tag to server (packet 0x005B)
670: 0x0CBC [0x43] SEND_EVENT_UPDATE: Check pending flag (skip if not pending)
671: 0x0CBE [0x01] GOTO 0x0E0B
672: 0x0CC1 [0x02] IF !(Work_Zone[0] == 4*) GOTO 0x0CE2
673: 0x0CC9 [0x40] SET_BIT_WORK_RANGE(start_bit=0*, end_bit=7*, target=Work_Zone[1], source=234*)
674: 0x0CD2 [0x40] SET_BIT_WORK_RANGE(start_bit=8*, end_bit=15*, target=Work_Zone[1], source=4*)
675: 0x0CDB [0x43] SEND_EVENT_UPDATE: Send pending tag to server (packet 0x005B)
676: 0x0CDD [0x43] SEND_EVENT_UPDATE: Check pending flag (skip if not pending)
677: 0x0CDF [0x01] GOTO 0x0E0B
678: 0x0CE2 [0x02] IF !(Work_Zone[0] == 5*) GOTO 0x0D03
679: 0x0CEA [0x40] SET_BIT_WORK_RANGE(start_bit=0*, end_bit=7*, target=Work_Zone[1], source=234*)
680: 0x0CF3 [0x40] SET_BIT_WORK_RANGE(start_bit=8*, end_bit=15*, target=Work_Zone[1], source=5*)
681: 0x0CFC [0x43] SEND_EVENT_UPDATE: Send pending tag to server (packet 0x005B)
682: 0x0CFE [0x43] SEND_EVENT_UPDATE: Check pending flag (skip if not pending)
683: 0x0D00 [0x01] GOTO 0x0E0B
684: 0x0D03 [0x02] IF !(Work_Zone[0] == 6*) GOTO 0x0D24
685: 0x0D0B [0x40] SET_BIT_WORK_RANGE(start_bit=0*, end_bit=7*, target=Work_Zone[1], source=234*)
686: 0x0D14 [0x40] SET_BIT_WORK_RANGE(start_bit=8*, end_bit=15*, target=Work_Zone[1], source=6*)
687: 0x0D1D [0x43] SEND_EVENT_UPDATE: Send pending tag to server (packet 0x005B)
688: 0x0D1F [0x43] SEND_EVENT_UPDATE: Check pending flag (skip if not pending)
689: 0x0D21 [0x01] GOTO 0x0E0B
690: 0x0D24 [0x02] IF !(Work_Zone[0] == 7*) GOTO 0x0D45
691: 0x0D2C [0x40] SET_BIT_WORK_RANGE(start_bit=0*, end_bit=7*, target=Work_Zone[1], source=234*)
692: 0x0D35 [0x40] SET_BIT_WORK_RANGE(start_bit=8*, end_bit=15*, target=Work_Zone[1], source=7*)
693: 0x0D3E [0x43] SEND_EVENT_UPDATE: Send pending tag to server (packet 0x005B)
694: 0x0D40 [0x43] SEND_EVENT_UPDATE: Check pending flag (skip if not pending)
695: 0x0D42 [0x01] GOTO 0x0E0B
696: 0x0D45 [0x02] IF !(Work_Zone[0] == 8*) GOTO 0x0D66
697: 0x0D4D [0x40] SET_BIT_WORK_RANGE(start_bit=0*, end_bit=7*, target=Work_Zone[1], source=234*)
698: 0x0D56 [0x40] SET_BIT_WORK_RANGE(start_bit=8*, end_bit=15*, target=Work_Zone[1], source=8*)
699: 0x0D5F [0x43] SEND_EVENT_UPDATE: Send pending tag to server (packet 0x005B)
700: 0x0D61 [0x43] SEND_EVENT_UPDATE: Check pending flag (skip if not pending)
701: 0x0D63 [0x01] GOTO 0x0E0B
702: 0x0D66 [0x02] IF !(Work_Zone[0] == 9*) GOTO 0x0D87
703: 0x0D6E [0x40] SET_BIT_WORK_RANGE(start_bit=0*, end_bit=7*, target=Work_Zone[1], source=234*)
704: 0x0D77 [0x40] SET_BIT_WORK_RANGE(start_bit=8*, end_bit=15*, target=Work_Zone[1], source=9*)
705: 0x0D80 [0x43] SEND_EVENT_UPDATE: Send pending tag to server (packet 0x005B)
706: 0x0D82 [0x43] SEND_EVENT_UPDATE: Check pending flag (skip if not pending)
707: 0x0D84 [0x01] GOTO 0x0E0B
708: 0x0D87 [0x02] IF !(Work_Zone[0] == 10*) GOTO 0x0DA8
709: 0x0D8F [0x40] SET_BIT_WORK_RANGE(start_bit=0*, end_bit=7*, target=Work_Zone[1], source=234*)
710: 0x0D98 [0x40] SET_BIT_WORK_RANGE(start_bit=8*, end_bit=15*, target=Work_Zone[1], source=10*)
711: 0x0DA1 [0x43] SEND_EVENT_UPDATE: Send pending tag to server (packet 0x005B)
712: 0x0DA3 [0x43] SEND_EVENT_UPDATE: Check pending flag (skip if not pending)
713: 0x0DA5 [0x01] GOTO 0x0E0B
714: 0x0DA8 [0x02] IF !(Work_Zone[0] == 11*) GOTO 0x0DC9
715: 0x0DB0 [0x40] SET_BIT_WORK_RANGE(start_bit=0*, end_bit=7*, target=Work_Zone[1], source=234*)
716: 0x0DB9 [0x40] SET_BIT_WORK_RANGE(start_bit=8*, end_bit=15*, target=Work_Zone[1], source=11*)
717: 0x0DC2 [0x43] SEND_EVENT_UPDATE: Send pending tag to server (packet 0x005B)
718: 0x0DC4 [0x43] SEND_EVENT_UPDATE: Check pending flag (skip if not pending)
719: 0x0DC6 [0x01] GOTO 0x0E0B
720: 0x0DC9 [0x02] IF !(Work_Zone[0] == 12*) GOTO 0x0DEA
721: 0x0DD1 [0x40] SET_BIT_WORK_RANGE(start_bit=0*, end_bit=7*, target=Work_Zone[1], source=234*)
722: 0x0DDA [0x40] SET_BIT_WORK_RANGE(start_bit=8*, end_bit=15*, target=Work_Zone[1], source=12*)
723: 0x0DE3 [0x43] SEND_EVENT_UPDATE: Send pending tag to server (packet 0x005B)
724: 0x0DE5 [0x43] SEND_EVENT_UPDATE: Check pending flag (skip if not pending)
725: 0x0DE7 [0x01] GOTO 0x0E0B
726: 0x0DEA [0x02] IF !(Work_Zone[0] == 13*) GOTO 0x0E0B
727: 0x0DF2 [0x40] SET_BIT_WORK_RANGE(start_bit=0*, end_bit=7*, target=Work_Zone[1], source=234*)
728: 0x0DFB [0x40] SET_BIT_WORK_RANGE(start_bit=8*, end_bit=15*, target=Work_Zone[1], source=13*)
729: 0x0E04 [0x43] SEND_EVENT_UPDATE: Send pending tag to server (packet 0x005B)
730: 0x0E06 [0x43] SEND_EVENT_UPDATE: Check pending flag (skip if not pending)
731: 0x0E08 [0x01] GOTO 0x0E0B

SUBROUTINE_0E0B:
732: 0x0E0B [0x01] GOTO 0x0FD9
733: 0x0E0E [0x02] IF !(Work_Zone[0] == 3*) GOTO 0x0FD9
734: 0x0E16 [0x24] CREATE_DIALOG(message_id=10799*, default_option=0*, option_flags=0*)
    → "Which status abnormality? [Injury./Minor illness./Stomachache./Loneliness./Happiness./Laziness./Serious illness./Confusion./Spoiled chocobo./Runaway./In love./Crying at night./Vitality./Intelligence./Cancel.]"
735: 0x0E1D [0x25] WAIT_DIALOG_SELECT()
736: 0x0E1E [0x02] IF !(Work_Zone[0] == 0*) GOTO 0x0E3F
737: 0x0E26 [0x40] SET_BIT_WORK_RANGE(start_bit=0*, end_bit=7*, target=Work_Zone[1], source=209*)
738: 0x0E2F [0x40] SET_BIT_WORK_RANGE(start_bit=8*, end_bit=15*, target=Work_Zone[1], source=0*)
739: 0x0E38 [0x43] SEND_EVENT_UPDATE: Send pending tag to server (packet 0x005B)
740: 0x0E3A [0x43] SEND_EVENT_UPDATE: Check pending flag (skip if not pending)
741: 0x0E3C [0x01] GOTO 0x0FD6
742: 0x0E3F [0x02] IF !(Work_Zone[0] == 1*) GOTO 0x0E60
743: 0x0E47 [0x40] SET_BIT_WORK_RANGE(start_bit=0*, end_bit=7*, target=Work_Zone[1], source=209*)
744: 0x0E50 [0x40] SET_BIT_WORK_RANGE(start_bit=8*, end_bit=15*, target=Work_Zone[1], source=1*)
745: 0x0E59 [0x43] SEND_EVENT_UPDATE: Send pending tag to server (packet 0x005B)
746: 0x0E5B [0x43] SEND_EVENT_UPDATE: Check pending flag (skip if not pending)
747: 0x0E5D [0x01] GOTO 0x0FD6
748: 0x0E60 [0x02] IF !(Work_Zone[0] == 2*) GOTO 0x0E81
749: 0x0E68 [0x40] SET_BIT_WORK_RANGE(start_bit=0*, end_bit=7*, target=Work_Zone[1], source=209*)
750: 0x0E71 [0x40] SET_BIT_WORK_RANGE(start_bit=8*, end_bit=15*, target=Work_Zone[1], source=2*)
751: 0x0E7A [0x43] SEND_EVENT_UPDATE: Send pending tag to server (packet 0x005B)
752: 0x0E7C [0x43] SEND_EVENT_UPDATE: Check pending flag (skip if not pending)
753: 0x0E7E [0x01] GOTO 0x0FD6
754: 0x0E81 [0x02] IF !(Work_Zone[0] == 3*) GOTO 0x0EA2
755: 0x0E89 [0x40] SET_BIT_WORK_RANGE(start_bit=0*, end_bit=7*, target=Work_Zone[1], source=209*)
756: 0x0E92 [0x40] SET_BIT_WORK_RANGE(start_bit=8*, end_bit=15*, target=Work_Zone[1], source=3*)
757: 0x0E9B [0x43] SEND_EVENT_UPDATE: Send pending tag to server (packet 0x005B)
758: 0x0E9D [0x43] SEND_EVENT_UPDATE: Check pending flag (skip if not pending)
759: 0x0E9F [0x01] GOTO 0x0FD6
760: 0x0EA2 [0x02] IF !(Work_Zone[0] == 4*) GOTO 0x0EC3
761: 0x0EAA [0x40] SET_BIT_WORK_RANGE(start_bit=0*, end_bit=7*, target=Work_Zone[1], source=209*)
762: 0x0EB3 [0x40] SET_BIT_WORK_RANGE(start_bit=8*, end_bit=15*, target=Work_Zone[1], source=4*)
763: 0x0EBC [0x43] SEND_EVENT_UPDATE: Send pending tag to server (packet 0x005B)
764: 0x0EBE [0x43] SEND_EVENT_UPDATE: Check pending flag (skip if not pending)
765: 0x0EC0 [0x01] GOTO 0x0FD6
766: 0x0EC3 [0x02] IF !(Work_Zone[0] == 5*) GOTO 0x0EE4
767: 0x0ECB [0x40] SET_BIT_WORK_RANGE(start_bit=0*, end_bit=7*, target=Work_Zone[1], source=209*)
768: 0x0ED4 [0x40] SET_BIT_WORK_RANGE(start_bit=8*, end_bit=15*, target=Work_Zone[1], source=5*)
769: 0x0EDD [0x43] SEND_EVENT_UPDATE: Send pending tag to server (packet 0x005B)
770: 0x0EDF [0x43] SEND_EVENT_UPDATE: Check pending flag (skip if not pending)
771: 0x0EE1 [0x01] GOTO 0x0FD6
772: 0x0EE4 [0x02] IF !(Work_Zone[0] == 6*) GOTO 0x0F05
773: 0x0EEC [0x40] SET_BIT_WORK_RANGE(start_bit=0*, end_bit=7*, target=Work_Zone[1], source=209*)
774: 0x0EF5 [0x40] SET_BIT_WORK_RANGE(start_bit=8*, end_bit=15*, target=Work_Zone[1], source=6*)
775: 0x0EFE [0x43] SEND_EVENT_UPDATE: Send pending tag to server (packet 0x005B)
776: 0x0F00 [0x43] SEND_EVENT_UPDATE: Check pending flag (skip if not pending)
777: 0x0F02 [0x01] GOTO 0x0FD6
778: 0x0F05 [0x02] IF !(Work_Zone[0] == 7*) GOTO 0x0F26
779: 0x0F0D [0x40] SET_BIT_WORK_RANGE(start_bit=0*, end_bit=7*, target=Work_Zone[1], source=209*)
780: 0x0F16 [0x40] SET_BIT_WORK_RANGE(start_bit=8*, end_bit=15*, target=Work_Zone[1], source=7*)
781: 0x0F1F [0x43] SEND_EVENT_UPDATE: Send pending tag to server (packet 0x005B)
782: 0x0F21 [0x43] SEND_EVENT_UPDATE: Check pending flag (skip if not pending)
783: 0x0F23 [0x01] GOTO 0x0FD6
784: 0x0F26 [0x02] IF !(Work_Zone[0] == 8*) GOTO 0x0F47
785: 0x0F2E [0x40] SET_BIT_WORK_RANGE(start_bit=0*, end_bit=7*, target=Work_Zone[1], source=209*)
786: 0x0F37 [0x40] SET_BIT_WORK_RANGE(start_bit=8*, end_bit=15*, target=Work_Zone[1], source=8*)
787: 0x0F40 [0x43] SEND_EVENT_UPDATE: Send pending tag to server (packet 0x005B)
788: 0x0F42 [0x43] SEND_EVENT_UPDATE: Check pending flag (skip if not pending)
789: 0x0F44 [0x01] GOTO 0x0FD6
790: 0x0F47 [0x02] IF !(Work_Zone[0] == 9*) GOTO 0x0F68
791: 0x0F4F [0x40] SET_BIT_WORK_RANGE(start_bit=0*, end_bit=7*, target=Work_Zone[1], source=209*)
792: 0x0F58 [0x40] SET_BIT_WORK_RANGE(start_bit=8*, end_bit=15*, target=Work_Zone[1], source=9*)
793: 0x0F61 [0x43] SEND_EVENT_UPDATE: Send pending tag to server (packet 0x005B)
794: 0x0F63 [0x43] SEND_EVENT_UPDATE: Check pending flag (skip if not pending)
795: 0x0F65 [0x01] GOTO 0x0FD6
796: 0x0F68 [0x02] IF !(Work_Zone[0] == 10*) GOTO 0x0F89
797: 0x0F70 [0x40] SET_BIT_WORK_RANGE(start_bit=0*, end_bit=7*, target=Work_Zone[1], source=209*)
798: 0x0F79 [0x40] SET_BIT_WORK_RANGE(start_bit=8*, end_bit=15*, target=Work_Zone[1], source=10*)
799: 0x0F82 [0x43] SEND_EVENT_UPDATE: Send pending tag to server (packet 0x005B)
800: 0x0F84 [0x43] SEND_EVENT_UPDATE: Check pending flag (skip if not pending)
801: 0x0F86 [0x01] GOTO 0x0FD6
802: 0x0F89 [0x02] IF !(Work_Zone[0] == 11*) GOTO 0x0F94
803: 0x0F91 [0x01] GOTO 0x0FD6
804: 0x0F94 [0x02] IF !(Work_Zone[0] == 12*) GOTO 0x0FB5
805: 0x0F9C [0x40] SET_BIT_WORK_RANGE(start_bit=0*, end_bit=7*, target=Work_Zone[1], source=209*)
806: 0x0FA5 [0x40] SET_BIT_WORK_RANGE(start_bit=8*, end_bit=15*, target=Work_Zone[1], source=12*)
807: 0x0FAE [0x43] SEND_EVENT_UPDATE: Send pending tag to server (packet 0x005B)
808: 0x0FB0 [0x43] SEND_EVENT_UPDATE: Check pending flag (skip if not pending)
809: 0x0FB2 [0x01] GOTO 0x0FD6
810: 0x0FB5 [0x02] IF !(Work_Zone[0] == 13*) GOTO 0x0FD6
811: 0x0FBD [0x40] SET_BIT_WORK_RANGE(start_bit=0*, end_bit=7*, target=Work_Zone[1], source=209*)
812: 0x0FC6 [0x40] SET_BIT_WORK_RANGE(start_bit=8*, end_bit=15*, target=Work_Zone[1], source=13*)
813: 0x0FCF [0x43] SEND_EVENT_UPDATE: Send pending tag to server (packet 0x005B)
814: 0x0FD1 [0x43] SEND_EVENT_UPDATE: Check pending flag (skip if not pending)
815: 0x0FD3 [0x01] GOTO 0x0FD6

SUBROUTINE_0FD6:
816: 0x0FD6 [0x01] GOTO 0x0FD9

SUBROUTINE_0FD9:
817: 0x0FD9 [0x1B] RETURN

SUBROUTINE_0FDA:
818: 0x0FDA [0x03] Work_Zone_1700[0] = 0*
819: 0x0FDF [0x03] Work_Zone[1] = 211*
820: 0x0FE4 [0x43] SEND_EVENT_UPDATE: Send pending tag to server (packet 0x005B)
821: 0x0FE6 [0x43] SEND_EVENT_UPDATE: Check pending flag (skip if not pending)

SUBROUTINE_0FE8:
822: 0x0FE8 [0x02] IF !(Work_Zone_1700[0] == 0*) GOTO 0x1062
823: 0x0FF0 [0x24] CREATE_DIALOG(message_id=10795*, default_option=0*, option_flags=0*)
    → "Pick a temperament (Currently [regular/fierce/patient/nervous/mysterious]) [Regular./Fierce/Patient./Nervous./Mysterious./Cancel.]"
824: 0x0FF7 [0x25] WAIT_DIALOG_SELECT()
825: 0x0FF8 [0x02] IF !(Work_Zone[0] == 0*) GOTO 0x100C
826: 0x1000 [0x03] Work_Zone[1] = 467*
827: 0x1005 [0x43] SEND_EVENT_UPDATE: Send pending tag to server (packet 0x005B)
828: 0x1007 [0x43] SEND_EVENT_UPDATE: Check pending flag (skip if not pending)
829: 0x1009 [0x01] GOTO 0x105F
830: 0x100C [0x02] IF !(Work_Zone[0] == 1*) GOTO 0x1020
831: 0x1014 [0x03] Work_Zone[1] = 723*
832: 0x1019 [0x43] SEND_EVENT_UPDATE: Send pending tag to server (packet 0x005B)
833: 0x101B [0x43] SEND_EVENT_UPDATE: Check pending flag (skip if not pending)
834: 0x101D [0x01] GOTO 0x105F
835: 0x1020 [0x02] IF !(Work_Zone[0] == 2*) GOTO 0x1034
836: 0x1028 [0x03] Work_Zone[1] = 979*
837: 0x102D [0x43] SEND_EVENT_UPDATE: Send pending tag to server (packet 0x005B)
838: 0x102F [0x43] SEND_EVENT_UPDATE: Check pending flag (skip if not pending)
839: 0x1031 [0x01] GOTO 0x105F
840: 0x1034 [0x02] IF !(Work_Zone[0] == 3*) GOTO 0x1048
841: 0x103C [0x03] Work_Zone[1] = 1235*
842: 0x1041 [0x43] SEND_EVENT_UPDATE: Send pending tag to server (packet 0x005B)
843: 0x1043 [0x43] SEND_EVENT_UPDATE: Check pending flag (skip if not pending)
844: 0x1045 [0x01] GOTO 0x105F
845: 0x1048 [0x02] IF !(Work_Zone[0] == 4*) GOTO 0x105C
846: 0x1050 [0x03] Work_Zone[1] = 1491*
847: 0x1055 [0x43] SEND_EVENT_UPDATE: Send pending tag to server (packet 0x005B)
848: 0x1057 [0x43] SEND_EVENT_UPDATE: Check pending flag (skip if not pending)
849: 0x1059 [0x01] GOTO 0x105F
850: 0x105C [0x05] Work_Zone_1700[0] = 1

SUBROUTINE_105F:
851: 0x105F [0x01] GOTO 0x0FE8
852: 0x1062 [0x1B] RETURN

SUBROUTINE_1063:
853: 0x1063 [0x03] Work_Zone_1700[0] = 0*
854: 0x1068 [0x03] Work_Zone[1] = 212*
855: 0x106D [0x43] SEND_EVENT_UPDATE: Send pending tag to server (packet 0x005B)
856: 0x106F [0x43] SEND_EVENT_UPDATE: Check pending flag (skip if not pending)

SUBROUTINE_1071:
857: 0x1071 [0x02] IF !(Work_Zone_1700[0] == 0*) GOTO 0x114F
858: 0x1079 [0x24] CREATE_DIALOG(message_id=10796*, default_option=0*, option_flags=0*)
    → "Pick a preference (currently [sunny/fire/water/earth/wind/snow/thunder/light/dark/--/cloudy]) [Sunny./Cloudy./Heat./Snow./Wind./Sand./Thunder./Rain./Light./Dark./Cancel.]"
859: 0x1080 [0x25] WAIT_DIALOG_SELECT()
860: 0x1081 [0x02] IF !(Work_Zone[0] == 0*) GOTO 0x1095
861: 0x1089 [0x03] Work_Zone[1] = 468*
862: 0x108E [0x43] SEND_EVENT_UPDATE: Send pending tag to server (packet 0x005B)
863: 0x1090 [0x43] SEND_EVENT_UPDATE: Check pending flag (skip if not pending)
864: 0x1092 [0x01] GOTO 0x114C
865: 0x1095 [0x02] IF !(Work_Zone[0] == 1*) GOTO 0x10A9
866: 0x109D [0x03] Work_Zone[1] = 724*
867: 0x10A2 [0x43] SEND_EVENT_UPDATE: Send pending tag to server (packet 0x005B)
868: 0x10A4 [0x43] SEND_EVENT_UPDATE: Check pending flag (skip if not pending)
869: 0x10A6 [0x01] GOTO 0x114C
870: 0x10A9 [0x02] IF !(Work_Zone[0] == 2*) GOTO 0x10BD
871: 0x10B1 [0x03] Work_Zone[1] = 980*
872: 0x10B6 [0x43] SEND_EVENT_UPDATE: Send pending tag to server (packet 0x005B)
873: 0x10B8 [0x43] SEND_EVENT_UPDATE: Check pending flag (skip if not pending)
874: 0x10BA [0x01] GOTO 0x114C
875: 0x10BD [0x02] IF !(Work_Zone[0] == 3*) GOTO 0x10D1
876: 0x10C5 [0x03] Work_Zone[1] = 1236*
877: 0x10CA [0x43] SEND_EVENT_UPDATE: Send pending tag to server (packet 0x005B)
878: 0x10CC [0x43] SEND_EVENT_UPDATE: Check pending flag (skip if not pending)
879: 0x10CE [0x01] GOTO 0x114C
880: 0x10D1 [0x02] IF !(Work_Zone[0] == 4*) GOTO 0x10E5
881: 0x10D9 [0x03] Work_Zone[1] = 1492*
882: 0x10DE [0x43] SEND_EVENT_UPDATE: Send pending tag to server (packet 0x005B)
883: 0x10E0 [0x43] SEND_EVENT_UPDATE: Check pending flag (skip if not pending)
884: 0x10E2 [0x01] GOTO 0x114C
885: 0x10E5 [0x02] IF !(Work_Zone[0] == 5*) GOTO 0x10F9
886: 0x10ED [0x03] Work_Zone[1] = 1748*
887: 0x10F2 [0x43] SEND_EVENT_UPDATE: Send pending tag to server (packet 0x005B)
888: 0x10F4 [0x43] SEND_EVENT_UPDATE: Check pending flag (skip if not pending)
889: 0x10F6 [0x01] GOTO 0x114C
890: 0x10F9 [0x02] IF !(Work_Zone[0] == 6*) GOTO 0x110D
891: 0x1101 [0x03] Work_Zone[1] = 2004*
892: 0x1106 [0x43] SEND_EVENT_UPDATE: Send pending tag to server (packet 0x005B)
893: 0x1108 [0x43] SEND_EVENT_UPDATE: Check pending flag (skip if not pending)
894: 0x110A [0x01] GOTO 0x114C
895: 0x110D [0x02] IF !(Work_Zone[0] == 7*) GOTO 0x1121
896: 0x1115 [0x03] Work_Zone[1] = 2260*
897: 0x111A [0x43] SEND_EVENT_UPDATE: Send pending tag to server (packet 0x005B)
898: 0x111C [0x43] SEND_EVENT_UPDATE: Check pending flag (skip if not pending)
899: 0x111E [0x01] GOTO 0x114C
900: 0x1121 [0x02] IF !(Work_Zone[0] == 8*) GOTO 0x1135
901: 0x1129 [0x03] Work_Zone[1] = 2516*
902: 0x112E [0x43] SEND_EVENT_UPDATE: Send pending tag to server (packet 0x005B)
903: 0x1130 [0x43] SEND_EVENT_UPDATE: Check pending flag (skip if not pending)
904: 0x1132 [0x01] GOTO 0x114C
905: 0x1135 [0x02] IF !(Work_Zone[0] == 9*) GOTO 0x1149
906: 0x113D [0x03] Work_Zone[1] = 2772*
907: 0x1142 [0x43] SEND_EVENT_UPDATE: Send pending tag to server (packet 0x005B)
908: 0x1144 [0x43] SEND_EVENT_UPDATE: Check pending flag (skip if not pending)
909: 0x1146 [0x01] GOTO 0x114C
910: 0x1149 [0x05] Work_Zone_1700[0] = 1

SUBROUTINE_114C:
911: 0x114C [0x01] GOTO 0x1071
912: 0x114F [0x1B] RETURN

SUBROUTINE_1150:
913: 0x1150 [0x03] Work_Zone_1700[0] = 0*
914: 0x1155 [0x03] Work_Zone[1] = 210*
915: 0x115A [0x43] SEND_EVENT_UPDATE: Send pending tag to server (packet 0x005B)
916: 0x115C [0x43] SEND_EVENT_UPDATE: Check pending flag (skip if not pending)

SUBROUTINE_115E:
917: 0x115E [0x02] IF !(Work_Zone_1700[0] == 0*) GOTO 0x11D8
918: 0x1166 [0x24] CREATE_DIALOG(message_id=10797*, default_option=0*, option_flags=0*)
    → "Pick a color, any color. [Yellow./Black./Blue./Red./Green./Cancel.]"
919: 0x116D [0x25] WAIT_DIALOG_SELECT()
920: 0x116E [0x02] IF !(Work_Zone[0] == 0*) GOTO 0x1182
921: 0x1176 [0x03] Work_Zone[1] = 466*
922: 0x117B [0x43] SEND_EVENT_UPDATE: Send pending tag to server (packet 0x005B)
923: 0x117D [0x43] SEND_EVENT_UPDATE: Check pending flag (skip if not pending)
924: 0x117F [0x01] GOTO 0x11D5
925: 0x1182 [0x02] IF !(Work_Zone[0] == 1*) GOTO 0x1196
926: 0x118A [0x03] Work_Zone[1] = 722*
927: 0x118F [0x43] SEND_EVENT_UPDATE: Send pending tag to server (packet 0x005B)
928: 0x1191 [0x43] SEND_EVENT_UPDATE: Check pending flag (skip if not pending)
929: 0x1193 [0x01] GOTO 0x11D5
930: 0x1196 [0x02] IF !(Work_Zone[0] == 2*) GOTO 0x11AA
931: 0x119E [0x03] Work_Zone[1] = 978*
932: 0x11A3 [0x43] SEND_EVENT_UPDATE: Send pending tag to server (packet 0x005B)
933: 0x11A5 [0x43] SEND_EVENT_UPDATE: Check pending flag (skip if not pending)
934: 0x11A7 [0x01] GOTO 0x11D5
935: 0x11AA [0x02] IF !(Work_Zone[0] == 3*) GOTO 0x11BE
936: 0x11B2 [0x03] Work_Zone[1] = 1234*
937: 0x11B7 [0x43] SEND_EVENT_UPDATE: Send pending tag to server (packet 0x005B)
938: 0x11B9 [0x43] SEND_EVENT_UPDATE: Check pending flag (skip if not pending)
939: 0x11BB [0x01] GOTO 0x11D5
940: 0x11BE [0x02] IF !(Work_Zone[0] == 4*) GOTO 0x11D2
941: 0x11C6 [0x03] Work_Zone[1] = 1490*
942: 0x11CB [0x43] SEND_EVENT_UPDATE: Send pending tag to server (packet 0x005B)
943: 0x11CD [0x43] SEND_EVENT_UPDATE: Check pending flag (skip if not pending)
944: 0x11CF [0x01] GOTO 0x11D5
945: 0x11D2 [0x05] Work_Zone_1700[0] = 1

SUBROUTINE_11D5:
946: 0x11D5 [0x01] GOTO 0x115E
947: 0x11D8 [0x1B] RETURN
```

#### Data or dead code:

```
# Dead code (unreachable instructions):
     0x0113 [0x01] GOTO 0x0122
     0x011F [0x01] GOTO 0x0122
# Dead code (unreachable instructions):
     0x014A [0x01] GOTO 0x014D
# Dead code (unreachable instructions):
     0x0666 [0x01] GOTO 0x066E
# Dead code (unreachable instructions):
     0x068A [0x01] GOTO 0x0692
# Dead code (unreachable instructions):
     0x06AE [0x01] GOTO 0x06B6
# Dead code (unreachable instructions):
     0x07CD [0x01] GOTO 0x0839
     0x07DC [0x01] GOTO 0x0839
     0x07EB [0x01] GOTO 0x0839
# Dead code (unreachable instructions):
     0x0835 [0x01] GOTO 0x0839
```
