# 17764402 - Peshi Yohnts

## Common Data

| Field            | Value                    |
|------------------|--------------------------|
| Zone             | Windurst Woods (ID: 241) |
| Block Size       | 9156 bytes               |
| Total Events     | 32                       |
| References Count | 263                      |

## List of Events

| Event ID              | Entrypoint   |   Size |   Instructions |
|-----------------------|--------------|--------|----------------|
| [65535](#event-65535) | 0x0000       |      1 |              1 |
| [10016](#event-10016) | 0x0001       |   2131 |            505 |
| [10017](#event-10017) | 0x0854       |    287 |             70 |
| [710](#event-710)     | 0x0973       |    503 |             62 |
| [711](#event-711)     | 0x0B6A       |    107 |             32 |
| [712](#event-712)     | 0x0BD5       |     11 |              5 |
| [713](#event-713)     | 0x0BE0       |     11 |              5 |
| [714](#event-714)     | 0x0BEB       |    185 |             55 |
| [715](#event-715)     | 0x0CA4       |    550 |             85 |
| [918](#event-918)     | 0x0ECA       |    131 |             24 |
| [933](#event-933)     | 0x0F4D       |    134 |             24 |
| [919](#event-919)     | 0x0FD3       |    124 |             33 |
| [920](#event-920)     | 0x104F       |    287 |             64 |
| [935](#event-935)     | 0x116E       |    195 |             47 |
| [952](#event-952)     | 0x1231       |    285 |             60 |
| [963](#event-963)     | 0x134E       |    122 |             30 |
| [958](#event-958)     | 0x13C8       |    176 |             39 |
| [957](#event-957)     | 0x1478       |    235 |             52 |
| [959](#event-959)     | 0x1563       |     78 |             16 |
| [921](#event-921)     | 0x15B1       |    174 |             35 |
| [936](#event-936)     | 0x165F       |    168 |             32 |
| [953](#event-953)     | 0x1707       |    172 |             34 |
| [964](#event-964)     | 0x17B3       |    164 |             30 |
| [922](#event-922)     | 0x1857       |    119 |             25 |
| [965](#event-965)     | 0x18CE       |     59 |             13 |
| [940](#event-940)     | 0x1909       |    103 |             19 |
| [924](#event-924)     | 0x1970       |    158 |             33 |
| [939](#event-939)     | 0x1A0E       |    104 |             24 |
| [956](#event-956)     | 0x1A76       |    169 |             34 |
| [967](#event-967)     | 0x1B1F       |    102 |             20 |
| [968](#event-968)     | 0x1B85       |    127 |             23 |
| [923](#event-923)     | 0x1C04       |    786 |            146 |

## DAT References (imed_data)

|   Index | Hex Value   |   Dec Value |
|---------|-------------|-------------|
|       0 | 0x0000      |           0 |
|       1 | 0x0009      |           9 |
|       2 | 0x000A      |          10 |
|       3 | 0x0006      |           6 |
|       4 | 0x0010      |          16 |
|       5 | 0x000B      |          11 |
|       6 | 0x000C      |          12 |
|       7 | 0x0002      |           2 |
|       8 | 0x0033      |          51 |
|       9 | 0x1D4C      |        7500 |
|      10 | 0x1D4D      |        7501 |
|      11 | 0x1D4E      |        7502 |
|      12 | 0x1D4F      |        7503 |
|      13 | 0x1C76      |        7286 |
|      14 | 0x0001      |           1 |
|      15 | 0x0031      |          49 |
|      16 | 0x0032      |          50 |
|      17 | 0x0003      |           3 |
|      18 | 0x0004      |           4 |
|      19 | 0x0034      |          52 |
|      20 | 0x0005      |           5 |
|      21 | 0x0035      |          53 |
|      22 | 0x0036      |          54 |
|      23 | 0x1D50      |        7504 |
|      24 | 0x1D51      |        7505 |
|      25 | 0x0007      |           7 |
|      26 | 0x0037      |          55 |
|      27 | 0x0008      |           8 |
|      28 | 0x0038      |          56 |
|      29 | 0x1C77      |        7287 |
|      30 | 0x1C78      |        7288 |
|      31 | 0x006E      |         110 |
|      32 | 0x1CEA      |        7402 |
|      33 | 0x0046      |          70 |
|      34 | 0x1D47      |        7495 |
|      35 | 0x1D48      |        7496 |
|      36 | 0x1D49      |        7497 |
|      37 | 0x1D4A      |        7498 |
|      38 | 0x0064      |         100 |
|      39 | 0x2B32      |       11058 |
|      40 | 0x1D43      |        7491 |
|      41 | 0x1D42      |        7490 |
|      42 | 0x07EB      |        2027 |
|      43 | 0x1D40      |        7488 |
|      44 | 0x1D41      |        7489 |
|      45 | 0x1D3F      |        7487 |
|      46 | 0x1D3D      |        7485 |
|      47 | 0x1D3A      |        7482 |
|      48 | 0x1D3B      |        7483 |
|      49 | 0x1D3C      |        7484 |
|      50 | 0x1D3E      |        7486 |
|      51 | 0x0078      |         120 |
|      52 | 0x000D      |          13 |
|      53 | 0x0082      |         130 |
|      54 | 0x1CEC      |        7404 |
|      55 | 0x1CED      |        7405 |
|      56 | 0x1CEB      |        7403 |
|      57 | 0x1CE3      |        7395 |
|      58 | 0x2E63      |       11875 |
|      59 | 0x2E88      |       11912 |
|      60 | 0x2E9A      |       11930 |
|      61 | 0x2E89      |       11913 |
|      62 | 0x2E8A      |       11914 |
|      63 | 0x1C42      |        7234 |
|      64 | 0x1CE5      |        7397 |
|      65 | 0x1CE6      |        7398 |
|      66 | 0x1CE7      |        7399 |
|      67 | 0x1CE8      |        7400 |
|      68 | 0x1CE9      |        7401 |
|      69 | 0x1CE4      |        7396 |
|      70 | 0x000E      |          14 |
|      71 | 0x000F      |          15 |
|      72 | 0x008E      |         142 |
|      73 | 0x1C48      |        7240 |
|      74 | 0x1C6E      |        7278 |
|      75 | 0x1C4C      |        7244 |
|      76 | 0x1C4B      |        7243 |
|      77 | 0x1C4A      |        7242 |
|      78 | 0x1C49      |        7241 |
|      79 | 0x1CEE      |        7406 |
|      80 | 0x1CEF      |        7407 |
|      81 | 0x1D09      |        7433 |
|      82 | 0x1CF0      |        7408 |
|      83 | 0x1D4B      |        7499 |
|      84 | 0x1CF1      |        7409 |
|      85 | 0x1CF2      |        7410 |
|      86 | 0x1D44      |        7492 |
|      87 | 0x1D45      |        7493 |
|      88 | 0x1D46      |        7494 |
|      89 | 0x00C9      |         201 |
|      90 | 0x1C45      |        7237 |
|      91 | 0x0375      |         885 |
|      92 | 0x0665      |        1637 |
|      93 | 0x2710      |       10000 |
|      94 | 0x01A2      |         418 |
|      95 | 0x00C8      |         200 |
|      96 | 0x0013      |          19 |
|      97 | 0x001E      |          30 |
|      98 | 0x1D13      |        7443 |
|      99 | 0x1D14      |        7444 |
|     100 | 0x1D15      |        7445 |
|     101 | 0x1D16      |        7446 |
|     102 | 0x1D17      |        7447 |
|     103 | 0x1D18      |        7448 |
|     104 | 0x1D19      |        7449 |
|     105 | 0x1D1A      |        7450 |
|     106 | 0x1D1B      |        7451 |
|     107 | 0x1D1C      |        7452 |
|     108 | 0x1D1D      |        7453 |
|     109 | 0x1D1E      |        7454 |
|     110 | 0x1D1F      |        7455 |
|     111 | 0x40000000  |  1073741824 |
|     112 | 0x1D20      |        7456 |
|     113 | 0x1D22      |        7458 |
|     114 | 0x1D29      |        7465 |
|     115 | 0x074A      |        1866 |
|     116 | 0x186A0     |      100000 |
|     117 | 0x1D23      |        7459 |
|     118 | 0x1D24      |        7460 |
|     119 | 0x1D25      |        7461 |
|     120 | 0x1D26      |        7462 |
|     121 | 0x1D27      |        7463 |
|     122 | 0x1D28      |        7464 |
|     123 | 0x1003      |        4099 |
|     124 | 0x0357      |         855 |
|     125 | 0x0365      |         869 |
|     126 | 0x0656      |        1622 |
|     127 | 0x0334      |         820 |
|     128 | 0x0725      |        1829 |
|     129 | 0x0319      |         793 |
|     130 | 0x1D2A      |        7466 |
|     131 | 0x1D2B      |        7467 |
|     132 | 0x1D2C      |        7468 |
|     133 | 0x1D2D      |        7469 |
|     134 | 0x1D2E      |        7470 |
|     135 | 0x1D2F      |        7471 |
|     136 | 0x1D30      |        7472 |
|     137 | 0x1D31      |        7473 |
|     138 | 0x1D32      |        7474 |
|     139 | 0x1D33      |        7475 |
|     140 | 0x1D34      |        7476 |
|     141 | 0x1D35      |        7477 |
|     142 | 0x1D36      |        7478 |
|     143 | 0x1D37      |        7479 |
|     144 | 0x3A98      |       15000 |
|     145 | 0x3A99      |       15001 |
|     146 | 0x3AA8      |       15016 |
|     147 | 0x3AA9      |       15017 |
|     148 | 0x3A89      |       14985 |
|     149 | 0x3A8A      |       14986 |
|     150 | 0x3A8B      |       14987 |
|     151 | 0x3A8C      |       14988 |
|     152 | 0x3A8D      |       14989 |
|     153 | 0x3A8E      |       14990 |
|     154 | 0x3A8F      |       14991 |
|     155 | 0x3A90      |       14992 |
|     156 | 0x3A91      |       14993 |
|     157 | 0x3A21      |       14881 |
|     158 | 0x3A22      |       14882 |
|     159 | 0x3A23      |       14883 |
|     160 | 0x3A24      |       14884 |
|     161 | 0x3A92      |       14994 |
|     162 | 0x3A93      |       14995 |
|     163 | 0x3A94      |       14996 |
|     164 | 0x3A95      |       14997 |
|     165 | 0x3A96      |       14998 |
|     166 | 0x3A97      |       14999 |
|     167 | 0x3AAA      |       15018 |
|     168 | 0x3AAB      |       15019 |
|     169 | 0x3AAC      |       15020 |
|     170 | 0x3AAD      |       15021 |
|     171 | 0x3AAE      |       15022 |
|     172 | 0x3AAF      |       15023 |
|     173 | 0x3AB0      |       15024 |
|     174 | 0x3AB1      |       15025 |
|     175 | 0x3AB2      |       15026 |
|     176 | 0x3AB3      |       15027 |
|     177 | 0x3AB4      |       15028 |
|     178 | 0x3ABF      |       15039 |
|     179 | 0x3AC0      |       15040 |
|     180 | 0x3AC1      |       15041 |
|     181 | 0x3AC2      |       15042 |
|     182 | 0x3AC3      |       15043 |
|     183 | 0x3AC4      |       15044 |
|     184 | 0x3AC5      |       15045 |
|     185 | 0x3AC6      |       15046 |
|     186 | 0x3AC7      |       15047 |
|     187 | 0x3AC8      |       15048 |
|     188 | 0x3AC9      |       15049 |
|     189 | 0x3ACA      |       15050 |
|     190 | 0x3AD0      |       15056 |
|     191 | 0x3AE3      |       15075 |
|     192 | 0x3AE4      |       15076 |
|     193 | 0x3AE5      |       15077 |
|     194 | 0x3AE6      |       15078 |
|     195 | 0x3AE7      |       15079 |
|     196 | 0x3AE8      |       15080 |
|     197 | 0xFFFFFFFF  |  4294967295 |
|     198 | 0x3AD9      |       15065 |
|     199 | 0x3ADA      |       15066 |
|     200 | 0x3AD1      |       15057 |
|     201 | 0x3AD2      |       15058 |
|     202 | 0x3AD3      |       15059 |
|     203 | 0x3AD4      |       15060 |
|     204 | 0x3AD5      |       15061 |
|     205 | 0x3AD6      |       15062 |
|     206 | 0x3AD7      |       15063 |
|     207 | 0x3AD8      |       15064 |
|     208 | 0x3ADB      |       15067 |
|     209 | 0x3ADC      |       15068 |
|     210 | 0x3ADD      |       15069 |
|     211 | 0x3A9A      |       15002 |
|     212 | 0x003C      |          60 |
|     213 | 0x3A9B      |       15003 |
|     214 | 0x3A9C      |       15004 |
|     215 | 0x3A9D      |       15005 |
|     216 | 0x3A9E      |       15006 |
|     217 | 0x3A9F      |       15007 |
|     218 | 0x3AB5      |       15029 |
|     219 | 0x3AB6      |       15030 |
|     220 | 0x3AB7      |       15031 |
|     221 | 0x3AB8      |       15032 |
|     222 | 0x3AB9      |       15033 |
|     223 | 0x3ADE      |       15070 |
|     224 | 0x3AE9      |       15081 |
|     225 | 0x3AA0      |       15008 |
|     226 | 0x3AA1      |       15009 |
|     227 | 0x3AA2      |       15010 |
|     228 | 0x3AEE      |       15086 |
|     229 | 0x3AEF      |       15087 |
|     230 | 0x3ABE      |       15038 |
|     231 | 0x3AA3      |       15011 |
|     232 | 0x3AA4      |       15012 |
|     233 | 0x3AA5      |       15013 |
|     234 | 0x3AA6      |       15014 |
|     235 | 0x3AA7      |       15015 |
|     236 | 0x1492      |        5266 |
|     237 | 0x3ABA      |       15034 |
|     238 | 0x3ABB      |       15035 |
|     239 | 0x3ABC      |       15036 |
|     240 | 0x3ABD      |       15037 |
|     241 | 0x3ADF      |       15071 |
|     242 | 0x3AE0      |       15072 |
|     243 | 0x3AE1      |       15073 |
|     244 | 0x3AE2      |       15074 |
|     245 | 0x3AEA      |       15082 |
|     246 | 0x3AEB      |       15083 |
|     247 | 0x3AEC      |       15084 |
|     248 | 0x3AED      |       15085 |
|     249 | 0x3AF0      |       15088 |
|     250 | 0x3AF1      |       15089 |
|     251 | 0x3AF2      |       15090 |
|     252 | 0x3AF3      |       15091 |
|     253 | 0x3AF4      |       15092 |
|     254 | 0x3ACB      |       15051 |
|     255 | 0x3ACC      |       15052 |
|     256 | 0x3ACD      |       15053 |
|     257 | 0x3ACE      |       15054 |
|     258 | 0x3ACF      |       15055 |
|     259 | 0x001D      |          29 |
|     260 | 0x0027      |          39 |
|     261 | 0x003B      |          59 |
|     262 | 0x0045      |          69 |

## String References

- **7234**: Join the [Fishermen's/Carpenters'/Blacksmiths'/Goldsmiths'/Weavers'/Tanners'/Boneworkers'/Alchemists'/Culinarians'] Guild? [Sign up./That's not why you're here.]
- **7237**: You are now recognized as [an amateur/a recruit/an initiate/a novice/an apprentice/a journeyman/a craftsman/an artisan/an adept/a veteran/an expert/an authority/a luminary/a master/a grandmaster/a legend] of the [Fishermen's/Carpenters'/Blacksmiths'/Goldsmiths'/Weavers'/Tanners'/Boneworkers'/Alchemists'/Culinarians'] Guild.
- **7240**: Necessary skills: [Fishing/Woodworking/Smithing/Goldsmithing/Clothcraft/Leatherworking/Bonecraft/Alchemy/Cooking][ /, Woodworking/, Smithing/, Goldsmithing/, Clothcraft/, Leatherworking/, Bonecraft/, Alchemy/, Cooking][ /, Woodworking/, Smithing/, Goldsmithing/, Clothcraft/, Leatherworking/, Bonecraft/, Alchemy/, Cooking][ /, & Woodworking/, & Smithing/, & Goldsmithing/, & Clothcraft/, & Leatherworking/, & Bonecraft/, & Alchemy/, & Cooking] Necessary crystal: $4 Necessary items:
- **7241**: $4 x $0 $5 x $0$0 $6 x $0 $7 x $0$3
- **7242**: $4 x $0 $5 x $0$0 $6 x $0
- **7243**: $4 x $0 $5 x $0$0
- **7244**: $4 x $0
- **7278**: Necessary skills: [Fishing/Woodworking/Smithing/Goldsmithing/Clothcraft/Leatherworking/Bonecraft/Alchemy/Cooking][ /, Woodworking/, Smithing/, Goldsmithing/, Clothcraft/, Leatherworking/, Bonecraft/, Alchemy/, Cooking][ /, Woodworking/, Smithing/, Goldsmithing/, Clothcraft/, Leatherworking/, Bonecraft/, Alchemy/, Cooking][ /, & Woodworking/, & Smithing/, & Goldsmithing/, & Clothcraft/, & Leatherworking/, & Bonecraft/, & Alchemy/, & Cooking] Necessary crystal: $4 Necessary key item: $3 Necessary items:
- **7286**: Renounce your rank at which guild? [None./Carpenters'./Blacksmiths'./Goldsmiths'./Weavers'./Tanners'./Boneworkers'./Alchemists'./Culinarians'.]
- **7287**: If you proceed, your rank in the [Carpenters'/Blacksmiths'/Goldsmiths'/Weavers'/Tanners'/Boneworkers'/Alchemists'/Culinarians'] Guild will return to that of [craftsman/artisan/adept], and your skill value will revert to the maximum for that level. This procedure cannot be undone, so please consider your decision carefully.
- **7288**: Renounce your rank as a [Carpenter/Blacksmith/Goldsmith/Weaver/Tanner/Boneworker/Alchemist/Culinarian]? [No, retain./Yes, renounce.]
- **7395**: Well, it looks like we have a visitorrr! C'mon, everybody! Let's give our adventurer a warrrm Boneworkers' Guild welcome!
- **7396**: Well, that wasn't very nice! After we gave you a warrrm welcome and everything! If you don't want to have any fun with us, well, then, you'd better just go home!
- **7397**: Did you hear that, everybody? We've got a super new memberrr! Let's hearrr it for <Player>!
- **7398**: That crrrystal is for you. You're going to need it if you want to make anything while you're on your adventurrres.
- **7399**: When you have all your materials rrready, hold on to that crrrystal reaaally tight and form an image in your head of what you want to make.
- **7400**: And if you concentrate realllly hard... Poof! Instant item! Isn't that just the most amazing thing you've ever hearrrd?
- **7401**: When you're just starrrting off, it doesn't always work out that well...but I know you'll get the hang of it! And feel free to ask any of the other workers for advice! They're all superrr-troopers!
- **7402**: Gimme a 'B'! Gimme an 'O'! Gimme an 'N'! Gimme an 'E'! What does that spell? YEAH!!! But not just bones--horns, fangs, teeth, scales, shells--we use all those grrreat materials!
- **7403**: Thanks to your super work, more and more adventurerrrs have joined our guild! Let's hearrr it for <Player>!
- **7404**: Are you rrready for the next level, <Player>? Well then, let's see you make $0!
- **7405**: I know you can do it! I know you can do it!
- **7406**: ... Wow! Super job! Hey, everrrybody, <Player> is our newest [amateur/recruit/initiate/novice/apprentice]! Let's hearrr it for <Player>!
- **7407**: ... Super-duper job! Listen up, everrrybody! Our friend, <Player>, is now a journeyman! Let's hearrr it for <Player>!
- **7408**: ... Come here, everrrybody. Take a look at this... Is this not the most excellent crrraftsmanship that you've ever seen? Super job, <Player>! You're now our newest artisan!
- **7409**: ... Amazing job! Everrrybody, can you feel the energy in this room? Can you? That's our new adept, <Player>! Let's have one last cheer for <Player>!
- **7410**: ... All rrright! Everybody, listen up! We've got a new veteran! If you have any questions about bonework, you know who to ask!
- **7433**: ... Super-cool! Everrrybody, listen up! <Player> is now an official craftsman! Let's hearrr it for <Player>!
- **7443**: Hey everybody, it's <Player>! Why, just seeing your smile has lit up all our days! What brrrings you by today?
- **7444**: .........
- **7445**: A disguise? It sounds mysterious! It sounds intrrriguing! It sounds...super-dilly-ocious! I'll do it!
- **7446**: Now tell me...what's a Quaddle again?
- **7447**: .........
- **7448**: A turtle? Well, why didn't you say so!? I know exactly what you need! I'll work on a rrrough plan while you go out and find $0 and $1.
- **7449**: And my fee? I couldn't think of taking money from my closest, [handsomest/cutest], most bestest frrriend, <Player>! (Even though the guild is in debt for 98,000,000 gil...)
- **7450**: Pay 98,000,000 gil? [Why not? I'm loaded!/Not in 98 million years.]
- **7451**: Okay, okay. I don't want to put you in debt or anything. How about $2 gil? That shouldn't set you back too much, should it? Alrrright! Now let's get to it!
- **7452**: Hey everrrybody! <Player>'s here...again! As much as I'd love to hand over the plans to your turtle disguise, I'm going to need just a little more time! Oh, and don't forget the $0, the $1, and the $2 gil I asked forrr!
- **7453**: Or...are you trrrying to tell me you'd rrrather give up and not spend all that time and gil?
- **7454**: If you choose to give up, the quest will be canceled and your quest log reset.
- **7455**: Cancel the quest? [Yes./No.]
- **7456**: Do you really wish to cancel the quest? [I really do./I guess I don't.]
- **7458**: Great job, <Player>! You're one superrr trooperrr! Now I can finally get started on the parts. It'll be another couple days, but that's alrrright, isn't it?
- **7459**: Hey, hey, hey! What's with the long face? Why are you feeling so blue? What has got you down in the dumps?
- **7460**: Need another set of barbut parts? [Yes./No./You know what, I give up...]
- **7461**: Is that all? Well, you came to the rrright place, <Player>! I'll have another set of parts all rrready for you...
- **7462**: ...for the low, low price of $1 gil! I'll even give you a thrrree-year guarantee! What do you say!? Do we have a deal!?
- **7463**: Pay the $1 gil? [Yes./No way!]
- **7464**: Grrreat! Hey everybody, listen up! Now we can afford that icebox for our pamama au lait! Oh, <Player>, were you still there? Come back in a couple days for your parts...and an icy-cold drrrink!
- **7465**: Hey everrrybody! <Player>'s here...again... (I thought I told you that it would take a couple of days. Now get the hell out of my face!) Alrrright! We'll see you later! Have a great day!
- **7466**: Yeah! You can turn that frrrown upside down! The parts for your disguise are rrready to go!
- **7467**: Now, all that's left is piecing the puzzle together! I'll give you the list of ingredients you'll need, so go grrrab a quill and parchment! Are you rrready? Here we go...! One! Two! Three! Four! Five! Six! Seven! Eight!
- **7468**: One! $1! Two! $2! Three! $3! Four! $4! Five! $5! Six! $6!
- **7469**: Seven! $7! Eight! Another $7! Use $0, and mix 'em all arrround. That's what it's all about!
- **7470**: You've got the boneworking skills. I know you can do it! (Just don't forget to polish your clothcrrraft and leatherworking skills...)
- **7471**: Hey everrrybody, can we get three cheers for our favorite [guy/lady]? Hip hip hooray! Hip hip hooray! Hip hip hooray! Hip hip...wait, that'd be four cheers...
- **7472**: Now all you have to do is piece them together! You didn't think I'd do all the work, did you? I don't even know what one of those Quaduffs looks like!
- **7473**: Hm... But by the looks of it, you might not exactly have what it takes to put that disguise togetherrr...
- **7474**: I've got it! Hey everrrybody, listen up. I have a super-duper idea!
- **7475**: There are a lot of my energetic students out there that would be morrre than happy to whip together that costume of yours. Why don't you go out and find one of them!
- **7476**: Here, let me fill you in on what he'll need! Are you rrready? Here we go...! One! Two! Three! Four! Five! Six! Seven! Eight!
- **7477**: All of my pupils are grrreat, but this project is a doozy! Make sure the superrr trooperrr you find is at least an adept.
- **7478**: Also make sure that he has dabbled in a little weaving and leathercrrrafting as well!
- **7479**: Oh, and when he's done with your costume, make sure that you tell him "good job," and give him a big hug. (And maybe fork over a few gil for his trouble.) See you around, <Player>! And have a wonderful day! Yeah!
- **7482**: Well, if it isn't [a veteran/an expert/an authority/a luminary/a master] of our rrranks. Let me guess: you're looking to smash through the barrier and take your bonecrafting skills to the next level. Am I right?
- **7483**: Am I right? [You betcha!/Not exactly.]
- **7484**: Now, that's a rrright answer if I ever heard one. Here's what you can do: first, trrrack down Samigo-Pormigo and get yourself a copy of $6.
- **7485**: You'll be needing some guild points for the transaction. Just consider it a warrrm-up for the greater task at hand.
- **7486**: Then what're you wasting my time for? Be on your way, and don't rrreturn until you're ready to show some commitment to our craft.
- **7487**: First, you'll want to trrrack down Samigo-Pormigo and get yourself a copy of $6.
- **7488**: Now here's a [man/woman] who's read $6 from cover to cover. I'm right, arrren't I?
- **7489**: No need for further delays then. Whip me up $2, and let's make it spiffy. The materials you'll need are...
- **7490**: And not like you need a rrreminder, but be sure to sign your work. Otherwise, how will we know it's you who made it, and not some clever impostor?
- **7491**: You forgot the ingrrredients for $2 already? Seems like someone needs to work on [his/her] memory as much as [his/her] bonecrafting skills. You'll be needing...
- **7492**: Terrrific work, <Player>! If there was anyone worrrthy of the title of expert rank, it's you! With you in our ranks, our wares are sure to fetch a fortune!
- **7493**: This is unacceptable, [Mister/Miss]...oh, what was your name again? I seem to have forgotten, just as you've forgotten to sign your work!
- **7494**: As you rise through the ranks, it's even more crucial that you show proper respect for guild prrrotocol. Now get back out there, and do try to follow instrrructions this time.
- **7495**: Look, everrrybody, <Player> is back! Isn't that exciting? And it looks like you're rrready to tackle $0!
- **7496**: Bring one to me and I'll make you [an artisan/an adept/a veteran]!
- **7497**: Now, I know you're all rrrevved up about this project, but I have to let you know--become [an artisan/an adept/a veteran] and you'll be one of us.
- **7498**: You can always become [an artisan/an adept/a veteran] in another guild, but your ability may fade. We wouldn't want that now, would we? Anyway, do your best!
- **7499**: Oh, and if you're looking to achieve [arrrtisan/adept/veterrran] status in another guild, keep in mind that doing so will take its toll on your bonecrafting prrrowess.
- **7500**: Hold it rrright there, <Player>! What's this about you becoming [an artisan/an adept/a veteran] in another guild?
- **7501**: At this rate, you'll never rrreach your true potential as a boneworker. Talk about a downer!
- **7502**: But here's the brrright side! It isn't too late to revoke your [artisan/adept/veteran] rank with those other guys and come back to the fold.
- **7503**: What's more, you don't even have to worry about facing any scary guildmasterrrs. Just gimme the good word and I'll take care of everything! So, what'll it be?
- **7504**: Boo! Boo on you, <Player>! And here I thought you were something special when you made [arrrtisan/adept/veterrran]!
- **7505**: One, two, three, four--out the door! I've got real boneworkers who deserrrve my attention more than some dabbling dilettante.
- **11875**: Ask if this person is the chick's owner? [Yes./No.]
- **11912**: You've rrreally got my chocobo?
- **11913**: Terrrific! Ever since the little bird flew the coop, I haven't been able to concentrate on my work at all. I was afraid I'd never get out of that rrrut.
- **11914**: Let me tell you a nice story to show you just how thankful I am...
- **11930**: Sorry, but you've got the wrong gal. I'd never be able to work this well if my prrrecious chocobo was missing!
- **14881**: You can increase Craftsmanship by crafting items that match up with your skill while you have the $0 equipped.
- **14882**: Craftsmanship will increase greatly when you fulfill certain conditions, but crafting the same item over and over again will reduce your gains, so try synthesizing something different if you run into trouble.
- **14883**: In its default state, the shield has the unfortunate tendency to lower the success rate of your crafting, but as its Craftsmanship rises, it mitigates that effect.
- **14884**: You can tell the Craftsmanship rating as well as the crafting success rate by looking at the shield. Good luck to you. Mwahaha...
- **14985**: Oh, it's you again. What's the storrry behind that shield?
- **14986**: Hmm... I see you've spoken with her. Like me, you're quite currrious about things.
- **14987**: According to her, that shield can boost one's crafting ability. If it's true, that's quite an incrrredible feat.
- **14988**: That's the shield, yes? I have the recipe, so I suppose I could do it if I had the time... I'm really busy, you see.
- **14989**: I know... She gave you the shield, yes? You're quite skilled at our crrraft, so how about you give it a try? Yes, it's settled then!
- **14990**: Listen up now. I'm going to teach you the rrrecipe, so pay attention.
- **14991**: So, firrrst, you'll need $1 to get started.
- **14992**: Its purrrpose is to boost the Craftsmanship of the $0 to its full value.
- **14993**: Wait a moment. I have some notes on Craftsmanship that you should hear, so listen carrrefully.
- **14994**: Did you catch all of that?
- **14995**: Come see me when you've incrrreased the Craftsmanship rating. I'll make you the $1 that you require.
- **14996**: Next on your list are $2 and $3. You can get them by speaking to Tergil.
- **14997**: I imagine you've made deliveries for people, yes? This is basically the same idea.
- **14998**: You can speak to Tergil for furrrther details.
- **14999**: That's it for the ingredients. Come show me the shield after it's been upgraded. I'm currrious to see it for myself.
- **15000**: Hm? You forrrgot the recipe already? Okay, here's the list again. Remember, skilled craftsmen only need to hear this once.
- **15001**: You've managed to match even my skill as a craftsman. I'm prrretty confident that you can make this shield.
- **15002**: Yes, very well done indeed! With this, I can make the $0 no prrroblem.
- **15003**: So, this is the $0.
- **15004**: The technique to imbue a craftsman's soul into the shield to form a crystal... It makes no sense to me, but I can definitely feel its power.
- **15005**: Hmm... It appears that by creating the $0, it also reduced the Craftsmanship of the $1.
- **15006**: That's fine if you only need to upgrade the $1, but you'll have to raise the Craftsmanship if you want to make another $0.
- **15007**: Of course, it's not like you'd ever need to do such a thing. Not someone as rrresponsible as you.
- **15008**: I don't believe it... You'rrre telling me that you lost the $0?
- **15009**: Oh well. These things happen I guess. Let me see the shield. I'll crrraft you another $0.
- **15010**: You're an elite craftsman now. You need to take better care of your ingrrredients or you'll never get any work.
- **15011**: It seems you made the upgrrrade. Here, let me see how you did.
- **15012**: Hmm... I can see the differrrence and feel its power, but it's clearly not finished yet.
- **15013**: I'm sure she's already told you that you'll need to craft multiple times in order to achieve the expected rrresults.
- **15014**: Oh yes... You need proof that the shield is complete. Wait just a moment and I'll get that rrready for you.
- **15015**: That should do it.
- **15016**: Simply show this shield to Mewk Chorosap in Jeuno and you'rrre all set.
- **15017**: Oh, one more thing. I often have deliveries for Tergil. I hope you'll agrrree to help me train the newer guild members.
- **15018**: Hello therrre. Yes, I've been expecting you after speaking with you know who.
- **15019**: This is the recipe you'll need. Do try to rrremember it, will you?
- **15020**: I hope you didn't forrrget that already.
- **15021**: Now, let's discuss how to obtain the ingredients. Firrrst, you'll need to start with the $1.
- **15022**: You used this before, no? Like with the aspis, you'll need to crrraft while equipping the $0 in order to boost the shield's Craftsmanship.
- **15023**: This time, though, you'll need to put in a little more effort.
- **15024**: Once you have increased the Craftsmanship to its maximum level, come see me and I'll crrreate the $1 for you.
- **15025**: Next, you need $2 and $3. Do you remember the $3 frrrom before? I've given both of them to Tergil.
- **15026**: Last is the $4. With the help of the A.M.A.N., I've prrrepared some Records of Eminence objectives for you.
- **15027**: You can rrrefer to the Records of Eminence menu for more details. Once you've cleared them all, you'll get the $4.
- **15028**: That's it. I know it's harrrd work gathering all of these ingredients, but you've been through worse, no? I know you'll be fine!
- **15029**: Oh, it seems the shield's Craftsmanship has drrropped.
- **15030**: Wait just a moment. I'll have the $0 for you beforrre long.
- **15031**: Ahh, it turned out just perrrfectly.
- **15032**: Ahh... It looks like crrreating the $0 has once again caused the shield's Craftsmanship to drop.
- **15033**: It is no easy task to increase its Craftsmanship, so keep it in a safe place until you're rrready to use it, understood?
- **15034**: Hah... Something about this shield is quite fascinating. Did you use $0 or something?
- **15035**: Yes, I can sense the power of this new shield. It feels rrremarkably different from the previous one.
- **15036**: Here, allow me to marrrk it for when you show it to her.
- **15037**: Therrre you go. Take this shield to Mewk Chorosap to complete your task.
- **15038**: This simply will not do. You'rrre going to need to face the final objective once again.
- **15039**: You've done well. Now, let's go over the next rrrecipe.
- **15040**: What's this? You alrrready know the recipe and how to obtain some of the ingredients? Well, this should go quickly then.
- **15041**: That just leaves the $4 and $5. Very well then.
- **15042**: We have some customers coming to orrrder items from us, so I'm going to have you make the items near them and make the delivery.
- **15043**: It seems many of our customers are quite knowledgeable about boneworking, so they want to see our craftsmen's work up close and perrrsonal.
- **15044**: As such, only items made in front of the customer will be accepted, although there are some exceptions to this rrrule.
- **15045**: Forrrgive me, but you'll need to gather the necessary materials to create the item yourself. Fortunately, it doesn't matter how you get them.
- **15046**: By the way, we've reached an agrrreement with the other guilds to buy and sell items that aren't normally available, assuming you have the money.
- **15047**: You can see the items available in this area by speaking to each guild's crafting set vendor. I suppose it'll prrrove quite useful for you.
- **15048**: Although, note that each guild is free to set its own rrrules, so you may not always be able to get what you want.
- **15049**: Once you complete all of the customer requests, I'll give you the $4 and $5 as prrromised. Good luck out there.
- **15050**: This is the [first/next/last] request.
- **15051**: Make a deliverrry of $1 $0 to Silver Owl at the Tenshodo in $7.
- **15052**: Deliver $1 $0 to Crooked Arrow in $7. You can find him in frrront of the Auction House.
- **15053**: Make a deliverrry of $1 $0 to Silver Owl at the Tenshodo in $7.
- **15054**: Make a deliverrry of $1 $0 to Pawkrix at Muckvix's Junk Shop in $7.
- **15055**: Oh, this is an item that doesn't need to be crrrafted near the customer.
- **15056**: Don't forrrget to report back to me once you finish the request.
- **15057**: The current request you're worrrking on is...
- **15058**: How is the request coming along? Everything is going accorrrding to schedule?
- **15059**: Everything okay? [Everything's great!/It could be better...]
- **15060**: I know I can always count on you. Keep up the good work!
- **15061**: Hm? What's the matter?! You don't sound very well at all... Are you surrre you're feeling okay? Do you want to give up?
- **15062**: Will you see this through? [I'll do my best./I've had enough.]
- **15063**: I see... I guess you have been working prrretty hard recently. Very well. I'll ask another craftsman to help me.
- **15064**: Try not to push yourself too harrrd. Take a rest for now and I'll have another customer for you when you're ready.
- **15065**: Hello. You look like you're feeling better. Indeed, you're not nearrrly as pale as you were before! Okay, let's get down to business, shall we?
- **15066**: Ahh, it seems you've finished the deliverrry to our customer. Nice work!
- **15067**: Yes, I see you've completed the final deliverrry. I knew I could count on you to get it done.
- **15068**: Alright, here are the $0 and $1, just like I promised.
- **15069**: While I'm sure you'd never lose something so prrrecious, you can use guild points to obtain them again if need be.
- **15070**: I really have come to like this kind of work. It's quite rewarding to see your efforts come to frrruition.
- **15071**: Look! The shield is complete!
- **15072**: Yes, it really does have a nice feel to it! Your skill as a craftsman continues to grrrow without bounds!
- **15073**: Accorrrding to her, the next upgrade should unlock the true power of the shield. I can't wait to see what it becomes!
- **15074**: Oh, I almost forrrgot! I was thinking you could make use of this new crafting technique. Consider it my little gift to you. I hope you can get some use out of it.
- **15075**: Hello there. I see you've rrreached the final upgrade!
- **15076**: You will need to ask about the rrrecipe. All I can tell you is how to obtain the necessary materials.
- **15077**: Let's see... First, you'll rrrequire $2 and $3...
- **15078**: I've left them with my frrriend Tergil. You just need to exchange crafter points for them.
- **15079**: Next is the $1... I can produce it for you once your shield's Craftsmanship rrreaches 100%. Just like before, basically.
- **15080**: That about covers the explanation. This being the final upgrade and all, I expected it to be more difficult, but it sounds prrretty much the same. Hopefully, there's nothing to trip you up out there.
- **15081**: I believe Mewk Chorosap in Jeuno needs this. Be carrreful not to lose it on the way.
- **15082**: Hello. Hm? What's wrrrong?
- **15083**: I see... Yes, I rrreceived the order. I was told to put my very heart and soul into it, so I remember it clearly.
- **15084**: Although, I just sent it off to Jeuno. I never hearrrd that you'd be by to pick it up. If only you'd told me sooner...
- **15085**: Well, I'm sure it's already arrived by now. You should rrreturn to Jeuno and see if it's been delivered. It was addressed to Mewk Chorosap.
- **15086**: Hey, you didn't happen to bring this from Jeuno, did you? This emblem that I worrrked so hard to make...
- **15087**: Hm? You've been searching for this? I wonder how it got here... Perrrhaps it was a ghost? Here, hurry up and get it away from me.
- **15088**: Wait a moment! This must be it! Let me examine it...
- **15089**: I see... I see... This is quite impressive! Just when did you manage to learrrn such skill?
- **15090**: Actually, now that I think about it... You walking around with this thing is the perrrfect way to spread the word about our guild!
- **15091**: I'm glad you showed me this. Here, I have something for you. It will teach you a brrrand new crafting technique.
- **15092**: Your growth rrreally is quite impressive. If I'm not careful, you're likely to replace me as guildmaster before I know it!

## Events

### Event 65535

#### Metadata

| Field        | Value   |
|--------------|---------|
| Entrypoint   | 0x0000  |
| Data Size    | 1 bytes |
| Instructions | 1       |

```
      00 01 02 03 04 05 06 07  08 09 0A 0B 0C 0D 0E 0F
      -- -- -- -- -- -- -- --  -- -- -- -- -- -- -- --
0000: 00                                                .               
```

#### Opcodes

```
  0: 0x0000 [0x00] END_REQSTACK()
```

### Event 10016

#### Metadata

| Field        | Value      |
|--------------|------------|
| Entrypoint   | 0x0001     |
| Data Size    | 2131 bytes |
| Instructions | 380        |

```
      00 01 02 03 04 05 06 07  08 09 0A 0B 0C 0D 0E 0F
      -- -- -- -- -- -- -- --  -- -- -- -- -- -- -- --
0000:    1E F0 FF FF 7F 03 00  00 00 80 03 01 10 00 80   ...............
0010: 41 01 80 01 80 06 10 01  00 41 02 80 02 80 06 10  A........A......
0020: 02 00 41 03 80 03 80 06  10 03 00 03 04 00 03 80  ..A.............
0030: 03 08 00 00 80 03 09 00  04 80 41 05 80 06 80 06  ..........A.....
0040: 10 0A 00 03 0B 00 07 10  03 0C 00 08 10 03 0D 00  ................
0050: 09 10 02 0C 00 07 80 04  0E 02 06 03 10 66 08 80  .............f..
0060: F8 FF FF 7F F0 FF FF 7F  74 6C 6B 31 1D 09 80 23  ........tlk1...#
0070: 1D 0A 80 23 1D 0B 80 23  1D 0C 80 23 66 08 80 F8  ...#...#...#f...
0080: FF FF 7F F0 FF FF 7F 74  6C 6B 32 24 0D 80 00 80  .......tlk2$....
0090: 0D 00 25 02 00 10 00 80  00 A0 00 21 00 01 CF 01  ..%........!....
00A0: 02 00 10 0E 80 00 BC 00  03 0E 00 0F 80 03 03 10  ................
00B0: 00 80 3C 0D 00 0E 80 0E  80 01 CF 01 02 00 10 07  ..<.............
00C0: 80 00 D8 00 03 0E 00 10  80 03 03 10 0E 80 3C 0D  ..............<.
00D0: 00 07 80 0E 80 01 CF 01  02 00 10 11 80 00 F4 00  ................
00E0: 03 0E 00 08 80 03 03 10  07 80 3C 0D 00 11 80 0E  ..........<.....
00F0: 80 01 CF 01 02 00 10 12  80 00 10 01 03 0E 00 13  ................
0100: 80 03 03 10 11 80 3C 0D  00 12 80 0E 80 01 CF 01  ......<.........
0110: 02 00 10 14 80 00 2C 01  03 0E 00 15 80 03 03 10  ......,.........
0120: 12 80 3C 0D 00 14 80 0E  80 01 CF 01 02 00 10 03  ..<.............
0130: 80 00 97 01 03 0E 00 16  80 03 03 10 14 80 3C 0D  ..............<.
0140: 00 03 80 0E 80 66 10 80  F8 FF FF 7F F0 FF FF 7F  .....f..........
0150: 74 68 6B 31 1D 17 80 23  53 F8 FF FF 7F F0 FF FF  thk1...#S.......
0160: 7F 74 68 6B 31 66 10 80  F8 FF FF 7F F0 FF FF 7F  .thk1f..........
0170: 74 68 6B 32 66 08 80 F8  FF FF 7F F0 FF FF 7F 73  thk2f..........s
0180: 69 73 30 1D 18 80 23 53  F8 FF FF 7F F0 FF FF 7F  is0...#S........
0190: 73 69 73 30 01 CF 01 02  00 10 19 80 00 B3 01 03  sis0............
01A0: 0E 00 1A 80 03 03 10 03  80 3C 0D 00 19 80 0E 80  .........<......
01B0: 01 CF 01 02 00 10 1B 80  00 CF 01 03 0E 00 1C 80  ................
01C0: 03 03 10 19 80 3C 0D 00  1B 80 0E 80 01 CF 01 48  .....<.........H
01D0: 1D 80 23 24 1E 80 00 80  00 80 25 02 00 10 00 80  ..#$......%.....
01E0: 00 E8 01 21 00 01 01 02  02 00 10 0E 80 00 01 02  ...!............
01F0: 42 03 01 10 0E 00 43 00  43 01 0C 0C 00 2E 01 01  B.....C.C.......
0200: 02 02 0C 00 07 80 04 0C  02 01 8B 00 21 00 3E 05  ............!.>.
0210: 10 03 80 25 05 02 04 10  1F 80 03 18 05 07 03 10  ...%............
0220: 07 80 02 03 10 04 10 03  37 02 1A 31 09 1D 20 80  ........7..1.. .
0230: 23 1A 43 09 01 15 05 03  0F 00 0B 00 14 0F 00 02  #.C.............
0240: 80 07 0F 00 21 80 02 04  10 0F 00 00 67 02 1D 22  ....!.......g.."
0250: 80 23 1A 31 09 1D 23 80  23 1D 24 80 23 1A 43 09  .#.1..#.#.$.#.C.
0260: 1D 25 80 23 01 15 05 02  04 10 26 80 00 5D 03 02  .%.#......&..]..
0270: 01 00 0E 80 00 09 03 02  03 00 0E 80 00 F3 02 02  ................
0280: 02 00 0E 80 00 B5 02 03  04 10 27 80 1A 31 09 1D  ..........'..1..
0290: 28 80 23 1A 43 09 03 05  00 26 80 03 06 00 01 80  (.#.C....&......
02A0: 03 07 00 27 80 1A FC 05  1A 31 09 1D 29 80 23 1A  ...'.....1..).#.
02B0: 43 09 01 F0 02 42 03 03  10 2A 80 1A 31 09 1D 2B  C....B...*..1..+
02C0: 80 23 03 04 10 27 80 1D  2C 80 23 1A 43 09 03 05  .#...'..,.#.C...
02D0: 00 26 80 03 06 00 01 80  03 07 00 27 80 1A FC 05  .&.........'....
02E0: 1A 31 09 1D 29 80 23 1A  43 09 03 01 10 11 80 2E  .1..).#.C.......
02F0: 01 06 03 03 03 10 2A 80  1A 31 09 1D 2D 80 23 1D  ......*..1..-.#.
0300: 2E 80 23 1A 43 09 01 5A  03 03 02 10 00 80 1A 31  ..#.C..Z.......1
0310: 09 1D 2F 80 23 1A 43 09  24 30 80 00 80 00 80 25  ../.#.C.$0.....%
0320: 02 00 10 00 80 00 45 03  42 03 03 10 2A 80 1A 31  ......E.B...*..1
0330: 09 1D 31 80 23 1D 2E 80  23 1A 43 09 03 01 10 07  ..1.#...#.C.....
0340: 80 2E 01 5A 03 02 00 10  0E 80 00 5A 03 1A 31 09  ...Z.......Z..1.
0350: 1D 32 80 23 1A 43 09 01  5A 03 01 15 05 02 04 10  .2.#.C..Z.......
0360: 26 80 02 07 05 02 01 00  0E 80 00 23 04 02 03 00  &..........#....
0370: 0E 80 00 20 04 02 02 00  0E 80 00 1D 04 03 02 10  ... ............
0380: 04 10 08 02 10 26 80 15  02 10 02 80 02 02 10 0E  .....&..........
0390: 80 80 B8 03 03 04 10 05  80 1A 31 09 1D 28 80 23  ..........1..(.#
03A0: 1A 43 09 03 05 00 1F 80  03 06 00 02 80 03 07 00  .C..............
03B0: 05 80 1A FC 05 01 10 04  02 02 10 07 80 80 E4 03  ................
03C0: 03 04 10 06 80 1A 31 09  1D 28 80 23 1A 43 09 03  ......1..(.#.C..
03D0: 05 00 33 80 03 06 00 05  80 03 07 00 06 80 1A FC  ..3.............
03E0: 05 01 10 04 02 02 10 11  80 80 10 04 03 04 10 34  ...............4
03F0: 80 1A 31 09 1D 28 80 23  1A 43 09 03 05 00 35 80  ..1..(.#.C....5.
0400: 03 06 00 06 80 03 07 00  34 80 1A FC 05 01 10 04  ........4.......
0410: 1A 31 09 1D 29 80 23 1A  43 09 01 1D 04 01 20 04  .1..).#.C..... .
0420: 01 04 05 02 03 00 0E 80  00 04 05 03 02 10 04 10  ................
0430: 08 02 10 26 80 15 02 10  02 80 1A 31 09 1D 2F 80  ...&.......1../.
0440: 23 1A 43 09 24 30 80 00  80 00 80 25 02 00 10 00  #.C.$0.....%....
0450: 80 00 EC 04 42 02 02 10  0E 80 80 81 04 03 04 10  ....B...........
0460: 05 80 1A 31 09 1D 2C 80  23 1A 43 09 03 05 00 1F  ...1..,.#.C.....
0470: 80 03 06 00 02 80 03 07  00 05 80 1A FC 05 01 D9  ................
0480: 04 02 02 10 07 80 80 AD  04 03 04 10 06 80 1A 31  ...............1
0490: 09 1D 2C 80 23 1A 43 09  03 05 00 33 80 03 06 00  ..,.#.C....3....
04A0: 05 80 03 07 00 06 80 1A  FC 05 01 D9 04 02 02 10  ................
04B0: 11 80 80 D9 04 03 04 10  34 80 1A 31 09 1D 2C 80  ........4..1..,.
04C0: 23 1A 43 09 03 05 00 35  80 03 06 00 06 80 03 07  #.C....5........
04D0: 00 34 80 1A FC 05 01 D9  04 1A 31 09 1D 29 80 23  .4........1..).#
04E0: 1A 43 09 03 01 10 12 80  2E 01 01 05 02 00 10 0E  .C..............
04F0: 80 00 01 05 1A 31 09 1D  32 80 23 1A 43 09 01 01  .....1..2.#.C...
0500: 05 01 04 05 01 15 05 1A  31 09 1D 36 80 23 1D 37  ........1..6.#.7
0510: 80 23 1A 43 09 01 22 05  1A 31 09 1D 38 80 23 1A  .#.C.."..1..8.#.
0520: 43 09 01 2E 05 1D 39 80  23 03 00 00 0E 80 02 0A  C.....9.#.......
0530: 00 00 80 02 A0 05 24 3A  80 0E 80 00 80 25 02 00  ......$:.....%..
0540: 10 00 80 00 A0 05 42 07  01 10 14 80 43 00 43 01  ......B.....C.C.
0550: 02 0A 00 07 80 00 72 05  1D 3B 80 23 66 10 80 F8  ......r..;.#f...
0560: FF FF 7F F8 FF FF 7F 74  6C 6B 30 1D 3C 80 23 01  .......tlk0.<.#.
0570: 9C 05 1D 3B 80 23 66 10  80 F8 FF FF 7F F8 FF FF  ...;.#f.........
0580: 7F 74 6C 6B 30 1D 3D 80  23 66 10 80 F8 FF FF 7F  .tlk0.=.#f......
0590: F8 FF FF 7F 74 6C 6B 32  1D 3E 80 23 21 01 A0 05  ....tlk2.>.#!...
05A0: 02 00 00 0E 80 00 FA 05  03 08 10 03 80 24 3F 80  .............$?.
05B0: 00 80 00 80 25 02 00 10  00 80 00 E5 05 1A 53 09  ....%.........S.
05C0: 1D 40 80 23 1D 41 80 23  1A 65 09 1A 31 09 1D 42  .@.#.A.#.e..1..B
05D0: 80 23 1D 43 80 23 1A 43  09 1D 44 80 23 03 01 10  .#.C.#.C..D.#...
05E0: 0E 80 01 FA 05 02 00 10  0E 80 00 FA 05 1A 31 09  ..............1.
05F0: 1D 45 80 23 1A 43 09 01  FA 05 21 00 8C 02 04 00  .E.#.C....!.....
0600: 05 00 06 00 08 00 09 00  8C 01 02 07 00 02 10 C0  ................
0610: 1D 06 03 07 00 00 80 01  4F 07 01 4F 07 02 07 00  ........O..O....
0620: 03 10 C0 30 06 03 07 00  0E 80 01 4F 07 01 4F 07  ...0.......O..O.
0630: 02 07 00 04 10 C0 43 06  03 07 00 07 80 01 4F 07  ......C.......O.
0640: 01 4F 07 02 07 00 05 10  C0 56 06 03 07 00 11 80  .O.......V......
0650: 01 4F 07 01 4F 07 02 07  00 06 10 C0 69 06 03 07  .O..O.......i...
0660: 00 12 80 01 4F 07 01 4F  07 02 07 00 07 10 C0 7C  ....O..O.......|
0670: 06 03 07 00 14 80 01 4F  07 01 4F 07 02 07 00 08  .......O..O.....
0680: 10 C0 8F 06 03 07 00 03  80 01 4F 07 01 4F 07 02  ..........O..O..
0690: 07 00 09 10 C0 A2 06 03  07 00 19 80 01 4F 07 01  .............O..
06A0: 4F 07 02 07 00 00 17 C0  B5 06 03 07 00 1B 80 01  O...............
06B0: 4F 07 01 4F 07 02 07 00  01 17 C0 C8 06 03 07 00  O..O............
06C0: 01 80 01 4F 07 01 4F 07  02 07 00 02 17 C0 DB 06  ...O..O.........
06D0: 03 07 00 02 80 01 4F 07  01 4F 07 02 07 00 03 17  ......O..O......
06E0: C0 EE 06 03 07 00 05 80  01 4F 07 01 4F 07 02 07  .........O..O...
06F0: 00 04 17 C0 01 07 03 07  00 06 80 01 4F 07 01 4F  ............O..O
0700: 07 02 07 00 05 17 C0 14  07 03 07 00 34 80 01 4F  ............4..O
0710: 07 01 4F 07 02 07 00 06  17 C0 27 07 03 07 00 46  ..O.......'....F
0720: 80 01 4F 07 01 4F 07 02  07 00 07 17 C0 3A 07 03  ..O..O.......:..
0730: 07 00 47 80 01 4F 07 01  4F 07 02 08 17 00 80 01  ..G..O..O.......
0740: 4F 07 07 08 00 04 80 07  09 00 04 80 01 FC 05 07  O...............
0750: 07 00 08 00 8C 03 04 00  05 00 06 00 07 00 8C 01  ................
0760: 07 44 10 48 80 03 08 10  04 00 03 03 10 41 10 03  .D.H.........A..
0770: 04 10 42 10 03 05 10 43  10 03 06 10 44 10 03 07  ..B....C....D...
0780: 10 55 10 02 07 10 00 80  00 92 07 48 49 80 23 01  .U.........HI.#.
0790: 96 07 48 4A 80 23 03 02  10 45 10 03 03 10 46 10  ..HJ.#...E....F.
07A0: 03 04 10 47 10 03 05 10  48 10 03 06 10 4D 10 03  ...G....H....M..
07B0: 07 10 4E 10 03 08 10 4F  10 03 09 10 50 10 02 07  ..N....O....P...
07C0: 10 00 80 00 CD 07 48 4B  80 23 01 53 08 02 08 10  ......HK.#.S....
07D0: 00 80 00 DC 07 48 4C 80  23 01 53 08 02 09 10 00  .....HL.#.S.....
07E0: 80 00 EB 07 48 4D 80 23  01 53 08 48 4E 80 23 03  ....HM.#.S.HN.#.
07F0: 02 10 49 10 03 03 10 4A  10 03 04 10 4B 10 03 05  ..I....J....K...
0800: 10 4C 10 03 06 10 51 10  03 07 10 52 10 03 08 10  .L....Q....R....
0810: 53 10 03 09 10 54 10 02  06 10 00 80 00 22 08 01  S....T......."..
0820: 53 08 02 07 10 00 80 00  31 08 48 4B 80 23 01 53  S.......1.HK.#.S
0830: 08 02 08 10 00 80 00 40  08 48 4C 80 23 01 53 08  .......@.HL.#.S.
0840: 02 09 10 00 80 00 4F 08  48 4D 80 23 01 53 08 48  ......O.HM.#.S.H
0850: 4E 80 23 1B                                       N.#.            
```

#### Opcodes

```
  0: 0x0001 [0x1E] EventEntity looks at LocalPlayer and starts talking
  1: 0x0006 [0x03] ExtData[1]->WorkLocal[0] = 0*
  2: 0x000B [0x03] Work_Zone[1] = 0*
  3: 0x0010 [0x41] ExtData[1]->WorkLocal[1] = Work_Zone[6] (bits 9*-9*)
  4: 0x0019 [0x41] ExtData[1]->WorkLocal[2] = Work_Zone[6] (bits 10*-10*)
  5: 0x0022 [0x41] ExtData[1]->WorkLocal[3] = Work_Zone[6] (bits 6*-6*)
  6: 0x002B [0x03] ExtData[1]->WorkLocal[4] = 6*
  7: 0x0030 [0x03] ExtData[1]->WorkLocal[8] = 0*
  8: 0x0035 [0x03] ExtData[1]->WorkLocal[9] = 16*
  9: 0x003A [0x41] ExtData[1]->WorkLocal[10] = Work_Zone[6] (bits 11*-12*)
 10: 0x0043 [0x03] ExtData[1]->WorkLocal[11] = Work_Zone[7]
 11: 0x0048 [0x03] ExtData[1]->WorkLocal[12] = Work_Zone[8]
 12: 0x004D [0x03] ExtData[1]->WorkLocal[13] = Work_Zone[9]
 13: 0x0052 [0x02] IF !(ExtData[1]->WorkLocal[12] < 2*) GOTO 0x020E
 14: 0x005A [0x06] Work_Zone[3] = 0
 15: 0x005D [0x66] LOAD_EXT_SCHEDULER_MAIN: Load scheduler "tlk1" with entities [EventEntity, LocalPlayer], work=51*
 16: 0x006C [0x1D] PRINT_EVENT_MESSAGE(message_id=7500*)
    → "Hold it rrright there, <Player>! What's this about you becoming [an artisan/an adept/a veteran] in another guild?"
 17: 0x006F [0x23] WAIT_FOR_DIALOG_INTERACTION
 18: 0x0070 [0x1D] PRINT_EVENT_MESSAGE(message_id=7501*)
    → "At this rate, you'll never rrreach your true potential as a boneworker. Talk about a downer!"
 19: 0x0073 [0x23] WAIT_FOR_DIALOG_INTERACTION
 20: 0x0074 [0x1D] PRINT_EVENT_MESSAGE(message_id=7502*)
    → "But here's the brrright side! It isn't too late to revoke your [artisan/adept/veteran] rank with those other guys and come back to the fold."
 21: 0x0077 [0x23] WAIT_FOR_DIALOG_INTERACTION
 22: 0x0078 [0x1D] PRINT_EVENT_MESSAGE(message_id=7503*)
    → "What's more, you don't even have to worry about facing any scary guildmasterrrs. Just gimme the good word and I'll take care of everything! So, what'll it be?"
 23: 0x007B [0x23] WAIT_FOR_DIALOG_INTERACTION
 24: 0x007C [0x66] LOAD_EXT_SCHEDULER_MAIN: Load scheduler "tlk2" with entities [EventEntity, LocalPlayer], work=51*
 25: 0x008B [0x24] CREATE_DIALOG(message_id=7286*, default_option=0*, option_flags=ExtData[1]->WorkLocal[13])
    → "Renounce your rank at which guild? [None./Carpenters'./Blacksmiths'./Goldsmiths'./Weavers'./Tanners'./Boneworkers'./Alchemists'./Culinarians'.]"
 26: 0x0092 [0x25] WAIT_DIALOG_SELECT()
 27: 0x0093 [0x02] IF !(Work_Zone[0] == 0*) GOTO 0x00A0
 28: 0x009B [0x21] END_EVENT
 29: 0x009C [0x00] END_REQSTACK()

SUBROUTINE_01CF:
 30: 0x01CF [0x48] [System] [7287*]:
    → "If you proceed, your rank in the [Carpenters'/Blacksmiths'/Goldsmiths'/Weavers'/Tanners'/Boneworkers'/Alchemists'/Culinarians'] Guild will return to that of [craftsman/artisan/adept], and your skill value will revert to the maximum for that level. This procedure cannot be undone, so please consider your decision carefully."
 31: 0x01D2 [0x23] WAIT_FOR_DIALOG_INTERACTION
 32: 0x01D3 [0x24] CREATE_DIALOG(message_id=7288*, default_option=0*, option_flags=0*)
    → "Renounce your rank as a [Carpenter/Blacksmith/Goldsmith/Weaver/Tanner/Boneworker/Alchemist/Culinarian]? [No, retain./Yes, renounce.]"
 33: 0x01DA [0x25] WAIT_DIALOG_SELECT()
 34: 0x01DB [0x02] IF !(Work_Zone[0] == 0*) GOTO 0x01E8
 35: 0x01E3 [0x21] END_EVENT
 36: 0x01E4 [0x00] END_REQSTACK()

SUBROUTINE_0201:
 37: 0x0201 [0x02] IF !(ExtData[1]->WorkLocal[12] < 2*) GOTO 0x020C
 38: 0x0209 [0x01] GOTO 0x008B
 39: 0x020C [0x21] END_EVENT
 40: 0x020D [0x00] END_REQSTACK()
 41: 0x020E [0x3E] IF !(Work_Zone[5] bit 6*) GOTO 0x0525
 42: 0x0215 [0x02] IF !(Work_Zone[4] >= 110*) GOTO 0x0518
 43: 0x021D [0x07] Work_Zone[3] += 2*
 44: 0x0222 [0x02] IF !(Work_Zone[3] >= Work_Zone[4]) GOTO 0x0237
 45: 0x022A [0x1A] CALL_SUBROUTINE(address=0x0931)
 46: 0x022D [0x1D] PRINT_EVENT_MESSAGE(message_id=7402*)
    → "Gimme a 'B'! Gimme an 'O'! Gimme an 'N'! Gimme an 'E'! What does that spell? YEAH!!! But not just bones--horns, fangs, teeth, scales, shells--we use all those grrreat materials!"
 47: 0x0230 [0x23] WAIT_FOR_DIALOG_INTERACTION
 48: 0x0231 [0x1A] CALL_SUBROUTINE(address=0x0943)
 49: 0x0234 [0x01] GOTO 0x0515
 50: 0x0237 [0x03] ExtData[1]->WorkLocal[15] = ExtData[1]->WorkLocal[11]
 51: 0x023C [0x14] ExtData[1]->WorkLocal[15] *= 10*
 52: 0x0241 [0x07] ExtData[1]->WorkLocal[15] += 70*
 53: 0x0246 [0x02] IF !(Work_Zone[4] == ExtData[1]->WorkLocal[15]) GOTO 0x0267
 54: 0x024E [0x1D] PRINT_EVENT_MESSAGE(message_id=7495*)
    → "Look, everrrybody, <Player> is back! Isn't that exciting? And it looks like you're rrready to tackle $0!"
 55: 0x0251 [0x23] WAIT_FOR_DIALOG_INTERACTION
 56: 0x0252 [0x1A] CALL_SUBROUTINE(address=0x0931)
 57: 0x0255 [0x1D] PRINT_EVENT_MESSAGE(message_id=7496*)
    → "Bring one to me and I'll make you [an artisan/an adept/a veteran]!"
 58: 0x0258 [0x23] WAIT_FOR_DIALOG_INTERACTION
 59: 0x0259 [0x1D] PRINT_EVENT_MESSAGE(message_id=7497*)
    → "Now, I know you're all rrrevved up about this project, but I have to let you know--become [an artisan/an adept/a veteran] and you'll be one of us."
 60: 0x025C [0x23] WAIT_FOR_DIALOG_INTERACTION
 61: 0x025D [0x1A] CALL_SUBROUTINE(address=0x0943)
 62: 0x0260 [0x1D] PRINT_EVENT_MESSAGE(message_id=7498*)
    → "You can always become [an artisan/an adept/a veteran] in another guild, but your ability may fade. We wouldn't want that now, would we? Anyway, do your best!"
 63: 0x0263 [0x23] WAIT_FOR_DIALOG_INTERACTION
 64: 0x0264 [0x01] GOTO 0x0515
 65: 0x0267 [0x02] IF !(Work_Zone[4] == 100*) GOTO 0x035D
 66: 0x026F [0x02] IF !(ExtData[1]->WorkLocal[1] == 1*) GOTO 0x0309
 67: 0x0277 [0x02] IF !(ExtData[1]->WorkLocal[3] == 1*) GOTO 0x02F3
 68: 0x027F [0x02] IF !(ExtData[1]->WorkLocal[2] == 1*) GOTO 0x02B5
 69: 0x0287 [0x03] Work_Zone[4] = 11058*
 70: 0x028C [0x1A] CALL_SUBROUTINE(address=0x0931)
 71: 0x028F [0x1D] PRINT_EVENT_MESSAGE(message_id=7491*)
    → "You forgot the ingrrredients for $2 already? Seems like someone needs to work on [his/her] memory as much as [his/her] bonecrafting skills. You'll be needing..."
 72: 0x0292 [0x23] WAIT_FOR_DIALOG_INTERACTION
 73: 0x0293 [0x1A] CALL_SUBROUTINE(address=0x0943)
 74: 0x0296 [0x03] ExtData[1]->WorkLocal[5] = 100*
 75: 0x029B [0x03] ExtData[1]->WorkLocal[6] = 9*
 76: 0x02A0 [0x03] ExtData[1]->WorkLocal[7] = 11058*
 77: 0x02A5 [0x1A] CALL_SUBROUTINE(address=0x05FC)
 78: 0x02A8 [0x1A] CALL_SUBROUTINE(address=0x0931)
 79: 0x02AB [0x1D] PRINT_EVENT_MESSAGE(message_id=7490*)
    → "And not like you need a rrreminder, but be sure to sign your work. Otherwise, how will we know it's you who made it, and not some clever impostor?"
 80: 0x02AE [0x23] WAIT_FOR_DIALOG_INTERACTION
 81: 0x02AF [0x1A] CALL_SUBROUTINE(address=0x0943)
 82: 0x02B2 [0x01] GOTO 0x02F0
 83: 0x02B5 [0x42] SET_CLI_EVENT_CANCEL_DATA()
 84: 0x02B6 [0x03] Work_Zone[3] = 2027*
 85: 0x02BB [0x1A] CALL_SUBROUTINE(address=0x0931)
 86: 0x02BE [0x1D] PRINT_EVENT_MESSAGE(message_id=7488*)
    → "Now here's a [man/woman] who's read $6 from cover to cover. I'm right, arrren't I?"
 87: 0x02C1 [0x23] WAIT_FOR_DIALOG_INTERACTION
 88: 0x02C2 [0x03] Work_Zone[4] = 11058*
 89: 0x02C7 [0x1D] PRINT_EVENT_MESSAGE(message_id=7489*)
    → "No need for further delays then. Whip me up $2, and let's make it spiffy. The materials you'll need are..."
 90: 0x02CA [0x23] WAIT_FOR_DIALOG_INTERACTION
 91: 0x02CB [0x1A] CALL_SUBROUTINE(address=0x0943)
 92: 0x02CE [0x03] ExtData[1]->WorkLocal[5] = 100*
 93: 0x02D3 [0x03] ExtData[1]->WorkLocal[6] = 9*
 94: 0x02D8 [0x03] ExtData[1]->WorkLocal[7] = 11058*
 95: 0x02DD [0x1A] CALL_SUBROUTINE(address=0x05FC)
 96: 0x02E0 [0x1A] CALL_SUBROUTINE(address=0x0931)
 97: 0x02E3 [0x1D] PRINT_EVENT_MESSAGE(message_id=7490*)
    → "And not like you need a rrreminder, but be sure to sign your work. Otherwise, how will we know it's you who made it, and not some clever impostor?"
 98: 0x02E6 [0x23] WAIT_FOR_DIALOG_INTERACTION
 99: 0x02E7 [0x1A] CALL_SUBROUTINE(address=0x0943)
100: 0x02EA [0x03] Work_Zone[1] = 3*
101: 0x02EF [0x2E] SET_CLI_EVENT_CANCEL_FLAGS()

SUBROUTINE_02F0:
102: 0x02F0 [0x01] GOTO 0x0306
103: 0x02F3 [0x03] Work_Zone[3] = 2027*
104: 0x02F8 [0x1A] CALL_SUBROUTINE(address=0x0931)
105: 0x02FB [0x1D] PRINT_EVENT_MESSAGE(message_id=7487*)
    → "First, you'll want to trrrack down Samigo-Pormigo and get yourself a copy of $6."
106: 0x02FE [0x23] WAIT_FOR_DIALOG_INTERACTION
107: 0x02FF [0x1D] PRINT_EVENT_MESSAGE(message_id=7485*)
    → "You'll be needing some guild points for the transaction. Just consider it a warrrm-up for the greater task at hand."
108: 0x0302 [0x23] WAIT_FOR_DIALOG_INTERACTION
109: 0x0303 [0x1A] CALL_SUBROUTINE(address=0x0943)

SUBROUTINE_0306:
110: 0x0306 [0x01] GOTO 0x035A
111: 0x0309 [0x03] Work_Zone[2] = 0*
112: 0x030E [0x1A] CALL_SUBROUTINE(address=0x0931)
113: 0x0311 [0x1D] PRINT_EVENT_MESSAGE(message_id=7482*)
    → "Well, if it isn't [a veteran/an expert/an authority/a luminary/a master] of our rrranks. Let me guess: you're looking to smash through the barrier and take your bonecrafting skills to the next level. Am I right?"
114: 0x0314 [0x23] WAIT_FOR_DIALOG_INTERACTION
115: 0x0315 [0x1A] CALL_SUBROUTINE(address=0x0943)
116: 0x0318 [0x24] CREATE_DIALOG(message_id=7483*, default_option=0*, option_flags=0*)
    → "Am I right? [You betcha!/Not exactly.]"
117: 0x031F [0x25] WAIT_DIALOG_SELECT()
118: 0x0320 [0x02] IF !(Work_Zone[0] == 0*) GOTO 0x0345
119: 0x0328 [0x42] SET_CLI_EVENT_CANCEL_DATA()
120: 0x0329 [0x03] Work_Zone[3] = 2027*
121: 0x032E [0x1A] CALL_SUBROUTINE(address=0x0931)
122: 0x0331 [0x1D] PRINT_EVENT_MESSAGE(message_id=7484*)
    → "Now, that's a rrright answer if I ever heard one. Here's what you can do: first, trrrack down Samigo-Pormigo and get yourself a copy of $6."
123: 0x0334 [0x23] WAIT_FOR_DIALOG_INTERACTION
124: 0x0335 [0x1D] PRINT_EVENT_MESSAGE(message_id=7485*)
    → "You'll be needing some guild points for the transaction. Just consider it a warrrm-up for the greater task at hand."
125: 0x0338 [0x23] WAIT_FOR_DIALOG_INTERACTION
126: 0x0339 [0x1A] CALL_SUBROUTINE(address=0x0943)
127: 0x033C [0x03] Work_Zone[1] = 2*
128: 0x0341 [0x2E] SET_CLI_EVENT_CANCEL_FLAGS()
129: 0x0342 [0x01] GOTO 0x035A
130: 0x0345 [0x02] IF !(Work_Zone[0] == 1*) GOTO 0x035A
131: 0x034D [0x1A] CALL_SUBROUTINE(address=0x0931)
132: 0x0350 [0x1D] PRINT_EVENT_MESSAGE(message_id=7486*)
    → "Then what're you wasting my time for? Be on your way, and don't rrreturn until you're ready to show some commitment to our craft."
133: 0x0353 [0x23] WAIT_FOR_DIALOG_INTERACTION
134: 0x0354 [0x1A] CALL_SUBROUTINE(address=0x0943)
135: 0x0357 [0x01] GOTO 0x035A

SUBROUTINE_035A:
136: 0x035A [0x01] GOTO 0x0515
137: 0x035D [0x02] IF !(Work_Zone[4] <= 100*) GOTO 0x0507
138: 0x0365 [0x02] IF !(ExtData[1]->WorkLocal[1] == 1*) GOTO 0x0423
139: 0x036D [0x02] IF !(ExtData[1]->WorkLocal[3] == 1*) GOTO 0x0420
140: 0x0375 [0x02] IF !(ExtData[1]->WorkLocal[2] == 1*) GOTO 0x041D
141: 0x037D [0x03] Work_Zone[2] = Work_Zone[4]
142: 0x0382 [0x08] Work_Zone[2] -= 100*
143: 0x0387 [0x15] Work_Zone[2] /= 10*
144: 0x038C [0x02] IF !(Work_Zone[2] == 1*) GOTO 0x03B8
145: 0x0394 [0x03] Work_Zone[4] = 11*
146: 0x0399 [0x1A] CALL_SUBROUTINE(address=0x0931)
147: 0x039C [0x1D] PRINT_EVENT_MESSAGE(message_id=7491*)
    → "You forgot the ingrrredients for $2 already? Seems like someone needs to work on [his/her] memory as much as [his/her] bonecrafting skills. You'll be needing..."
148: 0x039F [0x23] WAIT_FOR_DIALOG_INTERACTION
149: 0x03A0 [0x1A] CALL_SUBROUTINE(address=0x0943)
150: 0x03A3 [0x03] ExtData[1]->WorkLocal[5] = 110*
151: 0x03A8 [0x03] ExtData[1]->WorkLocal[6] = 10*
152: 0x03AD [0x03] ExtData[1]->WorkLocal[7] = 11*
153: 0x03B2 [0x1A] CALL_SUBROUTINE(address=0x05FC)
154: 0x03B5 [0x01] GOTO 0x0410
155: 0x03B8 [0x02] IF !(Work_Zone[2] == 2*) GOTO 0x03E4
156: 0x03C0 [0x03] Work_Zone[4] = 12*
157: 0x03C5 [0x1A] CALL_SUBROUTINE(address=0x0931)
158: 0x03C8 [0x1D] PRINT_EVENT_MESSAGE(message_id=7491*)
    → "You forgot the ingrrredients for $2 already? Seems like someone needs to work on [his/her] memory as much as [his/her] bonecrafting skills. You'll be needing..."
159: 0x03CB [0x23] WAIT_FOR_DIALOG_INTERACTION
160: 0x03CC [0x1A] CALL_SUBROUTINE(address=0x0943)
161: 0x03CF [0x03] ExtData[1]->WorkLocal[5] = 120*
162: 0x03D4 [0x03] ExtData[1]->WorkLocal[6] = 11*
163: 0x03D9 [0x03] ExtData[1]->WorkLocal[7] = 12*
164: 0x03DE [0x1A] CALL_SUBROUTINE(address=0x05FC)
165: 0x03E1 [0x01] GOTO 0x0410
166: 0x03E4 [0x02] IF !(Work_Zone[2] == 3*) GOTO 0x0410
167: 0x03EC [0x03] Work_Zone[4] = 13*
168: 0x03F1 [0x1A] CALL_SUBROUTINE(address=0x0931)
169: 0x03F4 [0x1D] PRINT_EVENT_MESSAGE(message_id=7491*)
    → "You forgot the ingrrredients for $2 already? Seems like someone needs to work on [his/her] memory as much as [his/her] bonecrafting skills. You'll be needing..."
170: 0x03F7 [0x23] WAIT_FOR_DIALOG_INTERACTION
171: 0x03F8 [0x1A] CALL_SUBROUTINE(address=0x0943)
172: 0x03FB [0x03] ExtData[1]->WorkLocal[5] = 130*
173: 0x0400 [0x03] ExtData[1]->WorkLocal[6] = 12*
174: 0x0405 [0x03] ExtData[1]->WorkLocal[7] = 13*
175: 0x040A [0x1A] CALL_SUBROUTINE(address=0x05FC)
176: 0x040D [0x01] GOTO 0x0410

SUBROUTINE_0410:
177: 0x0410 [0x1A] CALL_SUBROUTINE(address=0x0931)
178: 0x0413 [0x1D] PRINT_EVENT_MESSAGE(message_id=7490*)
    → "And not like you need a rrreminder, but be sure to sign your work. Otherwise, how will we know it's you who made it, and not some clever impostor?"
179: 0x0416 [0x23] WAIT_FOR_DIALOG_INTERACTION
180: 0x0417 [0x1A] CALL_SUBROUTINE(address=0x0943)
181: 0x041A [0x01] GOTO 0x041D

SUBROUTINE_041D:
182: 0x041D [0x01] GOTO 0x0420

SUBROUTINE_0420:
183: 0x0420 [0x01] GOTO 0x0504
184: 0x0423 [0x02] IF !(ExtData[1]->WorkLocal[3] == 1*) GOTO 0x0504
185: 0x042B [0x03] Work_Zone[2] = Work_Zone[4]
186: 0x0430 [0x08] Work_Zone[2] -= 100*
187: 0x0435 [0x15] Work_Zone[2] /= 10*
188: 0x043A [0x1A] CALL_SUBROUTINE(address=0x0931)
189: 0x043D [0x1D] PRINT_EVENT_MESSAGE(message_id=7482*)
    → "Well, if it isn't [a veteran/an expert/an authority/a luminary/a master] of our rrranks. Let me guess: you're looking to smash through the barrier and take your bonecrafting skills to the next level. Am I right?"
190: 0x0440 [0x23] WAIT_FOR_DIALOG_INTERACTION
191: 0x0441 [0x1A] CALL_SUBROUTINE(address=0x0943)
192: 0x0444 [0x24] CREATE_DIALOG(message_id=7483*, default_option=0*, option_flags=0*)
    → "Am I right? [You betcha!/Not exactly.]"
193: 0x044B [0x25] WAIT_DIALOG_SELECT()
194: 0x044C [0x02] IF !(Work_Zone[0] == 0*) GOTO 0x04EC
195: 0x0454 [0x42] SET_CLI_EVENT_CANCEL_DATA()
196: 0x0455 [0x02] IF !(Work_Zone[2] == 1*) GOTO 0x0481
197: 0x045D [0x03] Work_Zone[4] = 11*
198: 0x0462 [0x1A] CALL_SUBROUTINE(address=0x0931)
199: 0x0465 [0x1D] PRINT_EVENT_MESSAGE(message_id=7489*)
    → "No need for further delays then. Whip me up $2, and let's make it spiffy. The materials you'll need are..."
200: 0x0468 [0x23] WAIT_FOR_DIALOG_INTERACTION
201: 0x0469 [0x1A] CALL_SUBROUTINE(address=0x0943)
202: 0x046C [0x03] ExtData[1]->WorkLocal[5] = 110*
203: 0x0471 [0x03] ExtData[1]->WorkLocal[6] = 10*
204: 0x0476 [0x03] ExtData[1]->WorkLocal[7] = 11*
205: 0x047B [0x1A] CALL_SUBROUTINE(address=0x05FC)
206: 0x047E [0x01] GOTO 0x04D9
207: 0x0481 [0x02] IF !(Work_Zone[2] == 2*) GOTO 0x04AD
208: 0x0489 [0x03] Work_Zone[4] = 12*
209: 0x048E [0x1A] CALL_SUBROUTINE(address=0x0931)
210: 0x0491 [0x1D] PRINT_EVENT_MESSAGE(message_id=7489*)
    → "No need for further delays then. Whip me up $2, and let's make it spiffy. The materials you'll need are..."
211: 0x0494 [0x23] WAIT_FOR_DIALOG_INTERACTION
212: 0x0495 [0x1A] CALL_SUBROUTINE(address=0x0943)
213: 0x0498 [0x03] ExtData[1]->WorkLocal[5] = 120*
214: 0x049D [0x03] ExtData[1]->WorkLocal[6] = 11*
215: 0x04A2 [0x03] ExtData[1]->WorkLocal[7] = 12*
216: 0x04A7 [0x1A] CALL_SUBROUTINE(address=0x05FC)
217: 0x04AA [0x01] GOTO 0x04D9
218: 0x04AD [0x02] IF !(Work_Zone[2] == 3*) GOTO 0x04D9
219: 0x04B5 [0x03] Work_Zone[4] = 13*
220: 0x04BA [0x1A] CALL_SUBROUTINE(address=0x0931)
221: 0x04BD [0x1D] PRINT_EVENT_MESSAGE(message_id=7489*)
    → "No need for further delays then. Whip me up $2, and let's make it spiffy. The materials you'll need are..."
222: 0x04C0 [0x23] WAIT_FOR_DIALOG_INTERACTION
223: 0x04C1 [0x1A] CALL_SUBROUTINE(address=0x0943)
224: 0x04C4 [0x03] ExtData[1]->WorkLocal[5] = 130*
225: 0x04C9 [0x03] ExtData[1]->WorkLocal[6] = 12*
226: 0x04CE [0x03] ExtData[1]->WorkLocal[7] = 13*
227: 0x04D3 [0x1A] CALL_SUBROUTINE(address=0x05FC)
228: 0x04D6 [0x01] GOTO 0x04D9

SUBROUTINE_04D9:
229: 0x04D9 [0x1A] CALL_SUBROUTINE(address=0x0931)
230: 0x04DC [0x1D] PRINT_EVENT_MESSAGE(message_id=7490*)
    → "And not like you need a rrreminder, but be sure to sign your work. Otherwise, how will we know it's you who made it, and not some clever impostor?"
231: 0x04DF [0x23] WAIT_FOR_DIALOG_INTERACTION
232: 0x04E0 [0x1A] CALL_SUBROUTINE(address=0x0943)
233: 0x04E3 [0x03] Work_Zone[1] = 4*
234: 0x04E8 [0x2E] SET_CLI_EVENT_CANCEL_FLAGS()
235: 0x04E9 [0x01] GOTO 0x0501
236: 0x04EC [0x02] IF !(Work_Zone[0] == 1*) GOTO 0x0501
237: 0x04F4 [0x1A] CALL_SUBROUTINE(address=0x0931)
238: 0x04F7 [0x1D] PRINT_EVENT_MESSAGE(message_id=7486*)
    → "Then what're you wasting my time for? Be on your way, and don't rrreturn until you're ready to show some commitment to our craft."
239: 0x04FA [0x23] WAIT_FOR_DIALOG_INTERACTION
240: 0x04FB [0x1A] CALL_SUBROUTINE(address=0x0943)
241: 0x04FE [0x01] GOTO 0x0501

SUBROUTINE_0501:
242: 0x0501 [0x01] GOTO 0x0504

SUBROUTINE_0504:
243: 0x0504 [0x01] GOTO 0x0515
244: 0x0507 [0x1A] CALL_SUBROUTINE(address=0x0931)
245: 0x050A [0x1D] PRINT_EVENT_MESSAGE(message_id=7404*)
    → "Are you rrready for the next level, <Player>? Well then, let's see you make $0!"
246: 0x050D [0x23] WAIT_FOR_DIALOG_INTERACTION
247: 0x050E [0x1D] PRINT_EVENT_MESSAGE(message_id=7405*)
    → "I know you can do it! I know you can do it!"
248: 0x0511 [0x23] WAIT_FOR_DIALOG_INTERACTION
249: 0x0512 [0x1A] CALL_SUBROUTINE(address=0x0943)

SUBROUTINE_0515:
250: 0x0515 [0x01] GOTO 0x0522
251: 0x0518 [0x1A] CALL_SUBROUTINE(address=0x0931)
252: 0x051B [0x1D] PRINT_EVENT_MESSAGE(message_id=7403*)
    → "Thanks to your super work, more and more adventurerrrs have joined our guild! Let's hearrr it for <Player>!"
253: 0x051E [0x23] WAIT_FOR_DIALOG_INTERACTION
254: 0x051F [0x1A] CALL_SUBROUTINE(address=0x0943)

SUBROUTINE_0522:
255: 0x0522 [0x01] GOTO 0x052E
256: 0x0525 [0x1D] PRINT_EVENT_MESSAGE(message_id=7395*)
    → "Well, it looks like we have a visitorrr! C'mon, everybody! Let's give our adventurer a warrrm Boneworkers' Guild welcome!"
257: 0x0528 [0x23] WAIT_FOR_DIALOG_INTERACTION
258: 0x0529 [0x03] ExtData[1]->WorkLocal[0] = 1*

SUBROUTINE_052E:
259: 0x052E [0x02] IF !(ExtData[1]->WorkLocal[10] <= 0*) GOTO 0x05A0
260: 0x0536 [0x24] CREATE_DIALOG(message_id=11875*, default_option=1*, option_flags=0*)
    → "Ask if this person is the chick's owner? [Yes./No.]"
261: 0x053D [0x25] WAIT_DIALOG_SELECT()
262: 0x053E [0x02] IF !(Work_Zone[0] == 0*) GOTO 0x05A0
263: 0x0546 [0x42] SET_CLI_EVENT_CANCEL_DATA()
264: 0x0547 [0x07] Work_Zone[1] += 5*
265: 0x054C [0x43] SEND_EVENT_UPDATE: Send pending tag to server (packet 0x005B)
266: 0x054E [0x43] SEND_EVENT_UPDATE: Check pending flag (skip if not pending)
267: 0x0550 [0x02] IF !(ExtData[1]->WorkLocal[10] == 2*) GOTO 0x0572
268: 0x0558 [0x1D] PRINT_EVENT_MESSAGE(message_id=11912*)
    → "You've rrreally got my chocobo?"
269: 0x055B [0x23] WAIT_FOR_DIALOG_INTERACTION
270: 0x055C [0x66] LOAD_EXT_SCHEDULER_MAIN: Load scheduler "tlk0" with entities [EventEntity, EventEntity], work=50*
271: 0x056B [0x1D] PRINT_EVENT_MESSAGE(message_id=11930*)
    → "Sorry, but you've got the wrong gal. I'd never be able to work this well if my prrrecious chocobo was missing!"
272: 0x056E [0x23] WAIT_FOR_DIALOG_INTERACTION
273: 0x056F [0x01] GOTO 0x059C
274: 0x0572 [0x1D] PRINT_EVENT_MESSAGE(message_id=11912*)
    → "You've rrreally got my chocobo?"
275: 0x0575 [0x23] WAIT_FOR_DIALOG_INTERACTION
276: 0x0576 [0x66] LOAD_EXT_SCHEDULER_MAIN: Load scheduler "tlk0" with entities [EventEntity, EventEntity], work=50*
277: 0x0585 [0x1D] PRINT_EVENT_MESSAGE(message_id=11913*)
    → "Terrrific! Ever since the little bird flew the coop, I haven't been able to concentrate on my work at all. I was afraid I'd never get out of that rrrut."
278: 0x0588 [0x23] WAIT_FOR_DIALOG_INTERACTION
279: 0x0589 [0x66] LOAD_EXT_SCHEDULER_MAIN: Load scheduler "tlk2" with entities [EventEntity, EventEntity], work=50*
280: 0x0598 [0x1D] PRINT_EVENT_MESSAGE(message_id=11914*)
    → "Let me tell you a nice story to show you just how thankful I am..."
281: 0x059B [0x23] WAIT_FOR_DIALOG_INTERACTION

SUBROUTINE_059C:
282: 0x059C [0x21] END_EVENT

SUBROUTINE_05A0:
283: 0x05A0 [0x02] IF !(ExtData[1]->WorkLocal[0] == 1*) GOTO 0x05FA
284: 0x05A8 [0x03] Work_Zone[8] = 6*
285: 0x05AD [0x24] CREATE_DIALOG(message_id=7234*, default_option=0*, option_flags=0*)
    → "Join the [Fishermen's/Carpenters'/Blacksmiths'/Goldsmiths'/Weavers'/Tanners'/Boneworkers'/Alchemists'/Culinarians'] Guild? [Sign up./That's not why you're here.]"
286: 0x05B4 [0x25] WAIT_DIALOG_SELECT()
287: 0x05B5 [0x02] IF !(Work_Zone[0] == 0*) GOTO 0x05E5
288: 0x05BD [0x1A] CALL_SUBROUTINE(address=0x0953)
289: 0x05C0 [0x1D] PRINT_EVENT_MESSAGE(message_id=7397*)
    → "Did you hear that, everybody? We've got a super new memberrr! Let's hearrr it for <Player>!"
290: 0x05C3 [0x23] WAIT_FOR_DIALOG_INTERACTION
291: 0x05C4 [0x1D] PRINT_EVENT_MESSAGE(message_id=7398*)
    → "That crrrystal is for you. You're going to need it if you want to make anything while you're on your adventurrres."
292: 0x05C7 [0x23] WAIT_FOR_DIALOG_INTERACTION
293: 0x05C8 [0x1A] CALL_SUBROUTINE(address=0x0965)
294: 0x05CB [0x1A] CALL_SUBROUTINE(address=0x0931)
295: 0x05CE [0x1D] PRINT_EVENT_MESSAGE(message_id=7399*)
    → "When you have all your materials rrready, hold on to that crrrystal reaaally tight and form an image in your head of what you want to make."
296: 0x05D1 [0x23] WAIT_FOR_DIALOG_INTERACTION
297: 0x05D2 [0x1D] PRINT_EVENT_MESSAGE(message_id=7400*)
    → "And if you concentrate realllly hard... Poof! Instant item! Isn't that just the most amazing thing you've ever hearrrd?"
298: 0x05D5 [0x23] WAIT_FOR_DIALOG_INTERACTION
299: 0x05D6 [0x1A] CALL_SUBROUTINE(address=0x0943)
300: 0x05D9 [0x1D] PRINT_EVENT_MESSAGE(message_id=7401*)
    → "When you're just starrrting off, it doesn't always work out that well...but I know you'll get the hang of it! And feel free to ask any of the other workers for advice! They're all superrr-troopers!"
301: 0x05DC [0x23] WAIT_FOR_DIALOG_INTERACTION
302: 0x05DD [0x03] Work_Zone[1] = 1*
303: 0x05E2 [0x01] GOTO 0x05FA
304: 0x05E5 [0x02] IF !(Work_Zone[0] == 1*) GOTO 0x05FA
305: 0x05ED [0x1A] CALL_SUBROUTINE(address=0x0931)
306: 0x05F0 [0x1D] PRINT_EVENT_MESSAGE(message_id=7396*)
    → "Well, that wasn't very nice! After we gave you a warrrm welcome and everything! If you don't want to have any fun with us, well, then, you'd better just go home!"
307: 0x05F3 [0x23] WAIT_FOR_DIALOG_INTERACTION
308: 0x05F4 [0x1A] CALL_SUBROUTINE(address=0x0943)
309: 0x05F7 [0x01] GOTO 0x05FA

SUBROUTINE_05FA:
310: 0x05FA [0x21] END_EVENT
311: 0x05FB [0x00] END_REQSTACK()

SUBROUTINE_05FC:
312: 0x05FC [0x8C] CRAFTING_HANDLER(mode=0x02) // Set recipe data
313: 0x0608 [0x8C] CRAFTING_HANDLER(mode=0x01) // End crafting session
314: 0x060A [0x02] IF !(ExtData[1]->WorkLocal[7] == Work_Zone[2]) GOTO 0x061D
315: 0x0612 [0x03] ExtData[1]->WorkLocal[7] = 0*
316: 0x0617 [0x01] GOTO 0x074F

SUBROUTINE_074F:
317: 0x074F [0x07] ExtData[1]->WorkLocal[7] += ExtData[1]->WorkLocal[8]
318: 0x0754 [0x8C] CRAFTING_HANDLER(mode=0x03) // Get synthesis recipe
319: 0x075E [0x8C] CRAFTING_HANDLER(mode=0x01) // End crafting session
320: 0x0760 [0x07] Work_Zone[68] += 142*
321: 0x0765 [0x03] Work_Zone[8] = ExtData[1]->WorkLocal[4]
322: 0x076A [0x03] Work_Zone[3] = Work_Zone[65]
323: 0x076F [0x03] Work_Zone[4] = Work_Zone[66]
324: 0x0774 [0x03] Work_Zone[5] = Work_Zone[67]
325: 0x0779 [0x03] Work_Zone[6] = Work_Zone[68]
326: 0x077E [0x03] Work_Zone[7] = Work_Zone[85]
327: 0x0783 [0x02] IF !(Work_Zone[7] == 0*) GOTO 0x0792
328: 0x078B [0x48] [System] [7240*]:
    → "Necessary skills: [Fishing/Woodworking/Smithing/Goldsmithing/Clothcraft/Leatherworking/Bonecraft/Alchemy/Cooking][ /, Woodworking/, Smithing/, Goldsmithing/, Clothcraft/, Leatherworking/, Bonecraft/, Alchemy/, Cooking][ /, Woodworking/, Smithing/, Goldsmithing/, Clothcraft/, Leatherworking/, Bonecraft/, Alchemy/, Cooking][ /, & Woodworking/, & Smithing/, & Goldsmithing/, & Clothcraft/, & Leatherworking/, & Bonecraft/, & Alchemy/, & Cooking] Necessary crystal: $4 Necessary items:"
329: 0x078E [0x23] WAIT_FOR_DIALOG_INTERACTION
330: 0x078F [0x01] GOTO 0x0796
331: 0x0792 [0x48] [System] [7278*]:
    → "Necessary skills: [Fishing/Woodworking/Smithing/Goldsmithing/Clothcraft/Leatherworking/Bonecraft/Alchemy/Cooking][ /, Woodworking/, Smithing/, Goldsmithing/, Clothcraft/, Leatherworking/, Bonecraft/, Alchemy/, Cooking][ /, Woodworking/, Smithing/, Goldsmithing/, Clothcraft/, Leatherworking/, Bonecraft/, Alchemy/, Cooking][ /, & Woodworking/, & Smithing/, & Goldsmithing/, & Clothcraft/, & Leatherworking/, & Bonecraft/, & Alchemy/, & Cooking] Necessary crystal: $4 Necessary key item: $3 Necessary items:"
332: 0x0795 [0x23] WAIT_FOR_DIALOG_INTERACTION

SUBROUTINE_0796:
333: 0x0796 [0x03] Work_Zone[2] = Work_Zone[69]
334: 0x079B [0x03] Work_Zone[3] = Work_Zone[70]
335: 0x07A0 [0x03] Work_Zone[4] = Work_Zone[71]
336: 0x07A5 [0x03] Work_Zone[5] = Work_Zone[72]
337: 0x07AA [0x03] Work_Zone[6] = Work_Zone[77]
338: 0x07AF [0x03] Work_Zone[7] = Work_Zone[78]
339: 0x07B4 [0x03] Work_Zone[8] = Work_Zone[79]
340: 0x07B9 [0x03] Work_Zone[9] = Work_Zone[80]
341: 0x07BE [0x02] IF !(Work_Zone[7] == 0*) GOTO 0x07CD
342: 0x07C6 [0x48] [System] [7244*]:
    → "$4 x $0"
343: 0x07C9 [0x23] WAIT_FOR_DIALOG_INTERACTION
344: 0x07CA [0x01] GOTO 0x0853
345: 0x07CD [0x02] IF !(Work_Zone[8] == 0*) GOTO 0x07DC
346: 0x07D5 [0x48] [System] [7243*]:
    → "$4 x $0 $5 x $0$0"
347: 0x07D8 [0x23] WAIT_FOR_DIALOG_INTERACTION
348: 0x07D9 [0x01] GOTO 0x0853
349: 0x07DC [0x02] IF !(Work_Zone[9] == 0*) GOTO 0x07EB
350: 0x07E4 [0x48] [System] [7242*]:
    → "$4 x $0 $5 x $0$0 $6 x $0"
351: 0x07E7 [0x23] WAIT_FOR_DIALOG_INTERACTION
352: 0x07E8 [0x01] GOTO 0x0853
353: 0x07EB [0x48] [System] [7241*]:
    → "$4 x $0 $5 x $0$0 $6 x $0 $7 x $0$3"
354: 0x07EE [0x23] WAIT_FOR_DIALOG_INTERACTION
355: 0x07EF [0x03] Work_Zone[2] = Work_Zone[73]
356: 0x07F4 [0x03] Work_Zone[3] = Work_Zone[74]
357: 0x07F9 [0x03] Work_Zone[4] = Work_Zone[75]
358: 0x07FE [0x03] Work_Zone[5] = Work_Zone[76]
359: 0x0803 [0x03] Work_Zone[6] = Work_Zone[81]
360: 0x0808 [0x03] Work_Zone[7] = Work_Zone[82]
361: 0x080D [0x03] Work_Zone[8] = Work_Zone[83]
362: 0x0812 [0x03] Work_Zone[9] = Work_Zone[84]
363: 0x0817 [0x02] IF !(Work_Zone[6] == 0*) GOTO 0x0822
364: 0x081F [0x01] GOTO 0x0853
365: 0x0822 [0x02] IF !(Work_Zone[7] == 0*) GOTO 0x0831
366: 0x082A [0x48] [System] [7244*]:
    → "$4 x $0"
367: 0x082D [0x23] WAIT_FOR_DIALOG_INTERACTION
368: 0x082E [0x01] GOTO 0x0853
369: 0x0831 [0x02] IF !(Work_Zone[8] == 0*) GOTO 0x0840
370: 0x0839 [0x48] [System] [7243*]:
    → "$4 x $0 $5 x $0$0"
371: 0x083C [0x23] WAIT_FOR_DIALOG_INTERACTION
372: 0x083D [0x01] GOTO 0x0853
373: 0x0840 [0x02] IF !(Work_Zone[9] == 0*) GOTO 0x084F
374: 0x0848 [0x48] [System] [7242*]:
    → "$4 x $0 $5 x $0$0 $6 x $0"
375: 0x084B [0x23] WAIT_FOR_DIALOG_INTERACTION
376: 0x084C [0x01] GOTO 0x0853
377: 0x084F [0x48] [System] [7241*]:
    → "$4 x $0 $5 x $0$0 $6 x $0 $7 x $0$3"
378: 0x0852 [0x23] WAIT_FOR_DIALOG_INTERACTION

SUBROUTINE_0853:
379: 0x0853 [0x1B] RETURN
```

#### Data or dead code:

```
# Dead code (unreachable instructions):
     0x009D [0x01] GOTO 0x01CF
# Dead code (unreachable instructions):
     0x01E5 [0x01] GOTO 0x0201
# Dead code (unreachable instructions):
     0x059D [0x01] GOTO 0x05A0
# Dead code (unreachable instructions):
     0x061A [0x01] GOTO 0x074F
     0x062D [0x01] GOTO 0x074F
     0x0640 [0x01] GOTO 0x074F
     0x0653 [0x01] GOTO 0x074F
     0x0666 [0x01] GOTO 0x074F
     0x0679 [0x01] GOTO 0x074F
     0x068C [0x01] GOTO 0x074F
     0x069F [0x01] GOTO 0x074F
     0x06B2 [0x01] GOTO 0x074F
     0x06C5 [0x01] GOTO 0x074F
     0x06D8 [0x01] GOTO 0x074F
     0x06EB [0x01] GOTO 0x074F
     0x06FE [0x01] GOTO 0x074F
     0x0711 [0x01] GOTO 0x074F
     0x0724 [0x01] GOTO 0x074F
     0x0737 [0x01] GOTO 0x074F
```

### Event 10017

#### Metadata

| Field        | Value     |
|--------------|-----------|
| Entrypoint   | 0x0854    |
| Data Size    | 287 bytes |
| Instructions | 64        |

```
      00 01 02 03 04 05 06 07  08 09 0A 0B 0C 0D 0E 0F
      -- -- -- -- -- -- -- --  -- -- -- -- -- -- -- --
0850:             20 01 42 1E  F0 FF FF 7F 1A 31 09 02       .B......1..
0860: 06 10 00 80 03 6C 08 03  06 10 00 80 03 09 10 06  .....l..........
0870: 10 02 09 10 12 80 05 80  08 1D 4F 80 23 01 13 09  ..........O.#...
0880: 02 09 10 14 80 80 8F 08  1D 50 80 23 01 13 09 02  .........P.#....
0890: 09 10 03 80 80 9E 08 1D  51 80 23 01 13 09 02 09  ........Q.#.....
08A0: 10 19 80 80 B9 08 1D 52  80 23 02 05 10 00 80 00  .......R.#......
08B0: B6 08 1D 53 80 23 01 13  09 02 09 10 1B 80 80 D4  ...S.#..........
08C0: 08 1D 54 80 23 02 05 10  0E 80 00 D1 08 1D 53 80  ..T.#.........S.
08D0: 23 01 13 09 02 09 10 01  80 80 EF 08 1D 55 80 23  #............U.#
08E0: 02 05 10 07 80 00 EC 08  1D 53 80 23 01 13 09 02  .........S.#....
08F0: 09 10 02 80 80 13 09 02  07 10 0E 80 00 06 09 1D  ................
0900: 56 80 23 01 10 09 1D 57  80 23 1D 58 80 23 21 00  V.#....W.#.X.#!.
0910: 01 13 09 1A 43 09 03 08  10 03 80 45 59 80 F0 FF  ....C......EY...
0920: FF 7F F0 FF FF 7F 71 73  74 63 00 80 48 5A 80 21  ......qstc..HZ.!
0930: 00 6F 70 66 10 80 F8 FF  FF 7F F8 FF FF 7F 74 6C  .opf..........tl
0940: 6B 30 1B 66 10 80 F8 FF  FF 7F F8 FF FF 7F 74 6C  k0.f..........tl
0950: 6B 32 1B 6F 70 66 10 80  F8 FF FF 7F F8 FF FF 7F  k2.opf..........
0960: 70 61 73 30 1B 53 F8 FF  FF 7F F8 FF FF 7F 70 61  pas0.S........pa
0970: 73 30 1B                                          s0.             
```

#### Opcodes

```
  0: 0x0854 [0x20] SET_CLI_EVENT_UC_FLAG: Lock player control
  1: 0x0856 [0x42] SET_CLI_EVENT_CANCEL_DATA()
  2: 0x0857 [0x1E] EventEntity looks at LocalPlayer and starts talking
  3: 0x085C [0x1A] CALL_SUBROUTINE(address=0x0931)
  4: 0x085F [0x02] IF !(Work_Zone[6] >= 0*) GOTO 0x086C
  5: 0x0867 [0x03] Work_Zone[6] = 0*
  6: 0x086C [0x03] Work_Zone[9] = Work_Zone[6]
  7: 0x0871 [0x02] IF !(Work_Zone[9] > 4*) GOTO 0x0880
  8: 0x0879 [0x1D] PRINT_EVENT_MESSAGE(message_id=7406*)
    → "... Wow! Super job! Hey, everrrybody, <Player> is our newest [amateur/recruit/initiate/novice/apprentice]! Let's hearrr it for <Player>!"
  9: 0x087C [0x23] WAIT_FOR_DIALOG_INTERACTION
 10: 0x087D [0x01] GOTO 0x0913
 11: 0x0880 [0x02] IF !(Work_Zone[9] == 5*) GOTO 0x088F
 12: 0x0888 [0x1D] PRINT_EVENT_MESSAGE(message_id=7407*)
    → "... Super-duper job! Listen up, everrrybody! Our friend, <Player>, is now a journeyman! Let's hearrr it for <Player>!"
 13: 0x088B [0x23] WAIT_FOR_DIALOG_INTERACTION
 14: 0x088C [0x01] GOTO 0x0913
 15: 0x088F [0x02] IF !(Work_Zone[9] == 6*) GOTO 0x089E
 16: 0x0897 [0x1D] PRINT_EVENT_MESSAGE(message_id=7433*)
    → "... Super-cool! Everrrybody, listen up! <Player> is now an official craftsman! Let's hearrr it for <Player>!"
 17: 0x089A [0x23] WAIT_FOR_DIALOG_INTERACTION
 18: 0x089B [0x01] GOTO 0x0913
 19: 0x089E [0x02] IF !(Work_Zone[9] == 7*) GOTO 0x08B9
 20: 0x08A6 [0x1D] PRINT_EVENT_MESSAGE(message_id=7408*)
    → "... Come here, everrrybody. Take a look at this... Is this not the most excellent crrraftsmanship that you've ever seen? Super job, <Player>! You're now our newest artisan!"
 21: 0x08A9 [0x23] WAIT_FOR_DIALOG_INTERACTION
 22: 0x08AA [0x02] IF !(Work_Zone[5] == 0*) GOTO 0x08B6
 23: 0x08B2 [0x1D] PRINT_EVENT_MESSAGE(message_id=7499*)
    → "Oh, and if you're looking to achieve [arrrtisan/adept/veterrran] status in another guild, keep in mind that doing so will take its toll on your bonecrafting prrrowess."
 24: 0x08B5 [0x23] WAIT_FOR_DIALOG_INTERACTION
 25: 0x08B6 [0x01] GOTO 0x0913
 26: 0x08B9 [0x02] IF !(Work_Zone[9] == 8*) GOTO 0x08D4
 27: 0x08C1 [0x1D] PRINT_EVENT_MESSAGE(message_id=7409*)
    → "... Amazing job! Everrrybody, can you feel the energy in this room? Can you? That's our new adept, <Player>! Let's have one last cheer for <Player>!"
 28: 0x08C4 [0x23] WAIT_FOR_DIALOG_INTERACTION
 29: 0x08C5 [0x02] IF !(Work_Zone[5] == 1*) GOTO 0x08D1
 30: 0x08CD [0x1D] PRINT_EVENT_MESSAGE(message_id=7499*)
    → "Oh, and if you're looking to achieve [arrrtisan/adept/veterrran] status in another guild, keep in mind that doing so will take its toll on your bonecrafting prrrowess."
 31: 0x08D0 [0x23] WAIT_FOR_DIALOG_INTERACTION
 32: 0x08D1 [0x01] GOTO 0x0913
 33: 0x08D4 [0x02] IF !(Work_Zone[9] == 9*) GOTO 0x08EF
 34: 0x08DC [0x1D] PRINT_EVENT_MESSAGE(message_id=7410*)
    → "... All rrright! Everybody, listen up! We've got a new veteran! If you have any questions about bonework, you know who to ask!"
 35: 0x08DF [0x23] WAIT_FOR_DIALOG_INTERACTION
 36: 0x08E0 [0x02] IF !(Work_Zone[5] == 2*) GOTO 0x08EC
 37: 0x08E8 [0x1D] PRINT_EVENT_MESSAGE(message_id=7499*)
    → "Oh, and if you're looking to achieve [arrrtisan/adept/veterrran] status in another guild, keep in mind that doing so will take its toll on your bonecrafting prrrowess."
 38: 0x08EB [0x23] WAIT_FOR_DIALOG_INTERACTION
 39: 0x08EC [0x01] GOTO 0x0913
 40: 0x08EF [0x02] IF !(Work_Zone[9] == 10*) GOTO 0x0913
 41: 0x08F7 [0x02] IF !(Work_Zone[7] == 1*) GOTO 0x0906
 42: 0x08FF [0x1D] PRINT_EVENT_MESSAGE(message_id=7492*)
    → "Terrrific work, <Player>! If there was anyone worrrthy of the title of expert rank, it's you! With you in our ranks, our wares are sure to fetch a fortune!"
 43: 0x0902 [0x23] WAIT_FOR_DIALOG_INTERACTION
 44: 0x0903 [0x01] GOTO 0x0910
 45: 0x0906 [0x1D] PRINT_EVENT_MESSAGE(message_id=7493*)
    → "This is unacceptable, [Mister/Miss]...oh, what was your name again? I seem to have forgotten, just as you've forgotten to sign your work!"
 46: 0x0909 [0x23] WAIT_FOR_DIALOG_INTERACTION
 47: 0x090A [0x1D] PRINT_EVENT_MESSAGE(message_id=7494*)
    → "As you rise through the ranks, it's even more crucial that you show proper respect for guild prrrotocol. Now get back out there, and do try to follow instrrructions this time."
 48: 0x090D [0x23] WAIT_FOR_DIALOG_INTERACTION
 49: 0x090E [0x21] END_EVENT
 50: 0x090F [0x00] END_REQSTACK()

SUBROUTINE_0910:
 51: 0x0910 [0x01] GOTO 0x0913

SUBROUTINE_0913:
 52: 0x0913 [0x1A] CALL_SUBROUTINE(address=0x0943)
 53: 0x0916 [0x03] Work_Zone[8] = 6*
 54: 0x091B [0x45] LOAD_SCHEDULED_TASK: Load scheduler "qstc" with entities [LocalPlayer, LocalPlayer], work=[201*, 0*]
 55: 0x092C [0x48] [System] [7237*]:
    → "You are now recognized as [an amateur/a recruit/an initiate/a novice/an apprentice/a journeyman/a craftsman/an artisan/an adept/a veteran/an expert/an authority/a luminary/a master/a grandmaster/a legend] of the [Fishermen's/Carpenters'/Blacksmiths'/Goldsmiths'/Weavers'/Tanners'/Boneworkers'/Alchemists'/Culinarians'] Guild."
 56: 0x092F [0x21] END_EVENT
 57: 0x0930 [0x00] END_REQSTACK()

SUBROUTINE_0931:
 58: 0x0931 [0x6F] WAIT_FRAME_DELAY: Yield until WaitTime reaches zero
 59: 0x0932 [0x70] WAIT_ENTITY_RENDER_FLAG: Wait while EventEntity->Render.Flags3 bit 2 is set (cancel turn if not)
 60: 0x0933 [0x66] LOAD_EXT_SCHEDULER_MAIN: Load scheduler "tlk0" with entities [EventEntity, EventEntity], work=50*
 61: 0x0942 [0x1B] RETURN

SUBROUTINE_0943:
 62: 0x0943 [0x66] LOAD_EXT_SCHEDULER_MAIN: Load scheduler "tlk2" with entities [EventEntity, EventEntity], work=50*
 63: 0x0952 [0x1B] RETURN
```

#### Data or dead code:

```
# Dead code (unreachable instructions):
     0x0953 [0x6F] WAIT_FRAME_DELAY: Yield until WaitTime reaches zero
     0x0954 [0x70] WAIT_ENTITY_RENDER_FLAG: Wait while EventEntity->Render.Flags3 bit 2 is set (cancel turn if not)
     0x0955 [0x66] LOAD_EXT_SCHEDULER_MAIN: Load scheduler "pas0" with entities [EventEntity, EventEntity], work=50*
     0x0964 [0x1B] RETURN
     0x0965 [0x53] WAIT_SCHEDULER_TASK: Wait for scheduler "pas0" with entities [EventEntity, EventEntity]
     0x0972 [0x1B] RETURN
```

### Event 710

#### Metadata

| Field        | Value     |
|--------------|-----------|
| Entrypoint   | 0x0973    |
| Data Size    | 503 bytes |
| Instructions | 62        |

```
      00 01 02 03 04 05 06 07  08 09 0A 0B 0C 0D 0E 0F
      -- -- -- -- -- -- -- --  -- -- -- -- -- -- -- --
0970:          03 02 10 5B 80  03 03 10 5C 80 03 04 10     ...[....\....
0980: 5D 80 42 75 00 5E 80 75  01 45 5F 80 F0 FF FF 7F  ].Bu.^.u.E_.....
0990: F0 FF FF 7F 66 64 6F 31  00 80 55 5F 80 F0 FF FF  ....fdo1..U_....
09A0: 7F F0 FF FF 7F 66 64 6F  31 46 01 38 60 80 29 0A  .....fdo1F.8`.).
09B0: F0 FF FF 7F 4C 45 14 80  F0 FF FF 7F F0 FF FF 7F  ....LE..........
09C0: 73 30 37 32 00 80 45 5F  80 F0 FF FF 7F F0 FF FF  s072..E_........
09D0: 7F 66 64 69 31 00 80 1C  61 80 1E F0 FF FF 7F 1D  .fdi1...a.......
09E0: 62 80 23 45 5F 80 F0 FF  FF 7F F0 FF FF 7F 66 64  b.#E_.........fd
09F0: 6F 31 00 80 55 5F 80 F0  FF FF 7F F0 FF FF 7F 66  o1..U_.........f
0A00: 64 6F 31 52 14 80 F0 FF  FF 7F F0 FF FF 7F 73 30  do1R..........s0
0A10: 37 32 45 14 80 F0 FF FF  7F F0 FF FF 7F 73 30 37  72E..........s07
0A20: 33 00 80 45 5F 80 F0 FF  FF 7F F0 FF FF 7F 66 64  3..E_.........fd
0A30: 69 31 00 80 1D 63 80 23  66 13 80 F8 FF FF 7F F8  i1...c.#f.......
0A40: FF FF 7F 74 6C 63 30 1D  64 80 23 66 13 80 F8 FF  ...tlc0.d.#f....
0A50: FF 7F F8 FF FF 7F 74 6C  63 31 1D 65 80 23 45 5F  ......tlc1.e.#E_
0A60: 80 F0 FF FF 7F F0 FF FF  7F 66 64 6F 31 00 80 55  .........fdo1..U
0A70: 5F 80 F0 FF FF 7F F0 FF  FF 7F 66 64 6F 31 66 10  _.........fdo1f.
0A80: 80 F8 FF FF 7F F8 FF FF  7F 74 68 6B 31 52 14 80  .........thk1R..
0A90: F0 FF FF 7F F0 FF FF 7F  73 30 37 33 45 14 80 F0  ........s073E...
0AA0: FF FF 7F F0 FF FF 7F 73  30 37 34 00 80 45 5F 80  .......s074..E_.
0AB0: F0 FF FF 7F F0 FF FF 7F  66 64 69 31 00 80 1C 61  ........fdi1...a
0AC0: 80 1D 66 80 23 53 F8 FF  FF 7F F8 FF FF 7F 74 68  ..f.#S........th
0AD0: 6B 31 66 10 80 F8 FF FF  7F F8 FF FF 7F 74 68 6B  k1f..........thk
0AE0: 32 1D 67 80 23 1A 31 09  1D 68 80 23 1A 43 09 24  2.g.#.1..h.#.C.$
0AF0: 69 80 00 80 00 80 25 02  00 10 00 80 00 02 0B 01  i.....%.........
0B00: 02 0B 52 14 80 F0 FF FF  7F F0 FF FF 7F 73 30 37  ..R..........s07
0B10: 34 45 14 80 F0 FF FF 7F  F0 FF FF 7F 73 30 37 32  4E..........s072
0B20: 00 80 66 13 80 F8 FF FF  7F F8 FF FF 7F 64 69 73  ..f..........dis
0B30: 30 1D 6A 80 23 45 5F 80  F0 FF FF 7F F0 FF FF 7F  0.j.#E_.........
0B40: 66 64 6F 31 00 80 55 5F  80 F0 FF FF 7F F0 FF FF  fdo1..U_........
0B50: 7F 66 64 6F 31 45 5F 80  F0 FF FF 7F F0 FF FF 7F  .fdo1E_.........
0B60: 66 64 69 32 00 80 46 00  21 00                    fdi2..F.!.      
```

#### Opcodes

```
  0: 0x0973 [0x03] Work_Zone[2] = 885*
  1: 0x0978 [0x03] Work_Zone[3] = 1637*
  2: 0x097D [0x03] Work_Zone[4] = 10000*
  3: 0x0982 [0x42] SET_CLI_EVENT_CANCEL_DATA()
  4: 0x0983 [0x75] LOAD_ROOM(Load indoor room, room=418*)
  5: 0x0987 [0x75] LOAD_ROOM(No action)
  6: 0x0989 [0x45] LOAD_SCHEDULED_TASK: Load scheduler "fdo1" with entities [LocalPlayer, LocalPlayer], work=[200*, 0*]
  7: 0x099A [0x55] WAIT_LOAD_SCHEDULER: Wait for scheduler "fdo1" with entities [LocalPlayer, LocalPlayer], work=200*
  8: 0x09A9 [0x46] CAMERA_CONTROL: Disable user control
  9: 0x09AB [0x38] SET_CLIENT_EVENT_MODE(mode=19*)
 10: 0x09AE [0x29] REQ_SET_WAIT(priority=0x0A, entity_id=LocalPlayer, tag_num=0x4C)
 11: 0x09B5 [0x45] LOAD_SCHEDULED_TASK: Load scheduler "s072" with entities [LocalPlayer, LocalPlayer], work=[5*, 0*]
 12: 0x09C6 [0x45] LOAD_SCHEDULED_TASK: Load scheduler "fdi1" with entities [LocalPlayer, LocalPlayer], work=[200*, 0*]
 13: 0x09D7 [0x1C] WAIT(30* ticks)
 14: 0x09DA [0x1E] EventEntity looks at LocalPlayer and starts talking
 15: 0x09DF [0x1D] PRINT_EVENT_MESSAGE(message_id=7443*)
    → "Hey everybody, it's <Player>! Why, just seeing your smile has lit up all our days! What brrrings you by today?"
 16: 0x09E2 [0x23] WAIT_FOR_DIALOG_INTERACTION
 17: 0x09E3 [0x45] LOAD_SCHEDULED_TASK: Load scheduler "fdo1" with entities [LocalPlayer, LocalPlayer], work=[200*, 0*]
 18: 0x09F4 [0x55] WAIT_LOAD_SCHEDULER: Wait for scheduler "fdo1" with entities [LocalPlayer, LocalPlayer], work=200*
 19: 0x0A03 [0x52] END_LOAD_SCHEDULER: End scheduler "s072" with entities [LocalPlayer, LocalPlayer], work=5*
 20: 0x0A12 [0x45] LOAD_SCHEDULED_TASK: Load scheduler "s073" with entities [LocalPlayer, LocalPlayer], work=[5*, 0*]
 21: 0x0A23 [0x45] LOAD_SCHEDULED_TASK: Load scheduler "fdi1" with entities [LocalPlayer, LocalPlayer], work=[200*, 0*]
 22: 0x0A34 [0x1D] PRINT_EVENT_MESSAGE(message_id=7444*)
    → "........."
 23: 0x0A37 [0x23] WAIT_FOR_DIALOG_INTERACTION
 24: 0x0A38 [0x66] LOAD_EXT_SCHEDULER_MAIN: Load scheduler "tlc0" with entities [EventEntity, EventEntity], work=52*
 25: 0x0A47 [0x1D] PRINT_EVENT_MESSAGE(message_id=7445*)
    → "A disguise? It sounds mysterious! It sounds intrrriguing! It sounds...super-dilly-ocious! I'll do it!"
 26: 0x0A4A [0x23] WAIT_FOR_DIALOG_INTERACTION
 27: 0x0A4B [0x66] LOAD_EXT_SCHEDULER_MAIN: Load scheduler "tlc1" with entities [EventEntity, EventEntity], work=52*
 28: 0x0A5A [0x1D] PRINT_EVENT_MESSAGE(message_id=7446*)
    → "Now tell me...what's a Quaddle again?"
 29: 0x0A5D [0x23] WAIT_FOR_DIALOG_INTERACTION
 30: 0x0A5E [0x45] LOAD_SCHEDULED_TASK: Load scheduler "fdo1" with entities [LocalPlayer, LocalPlayer], work=[200*, 0*]
 31: 0x0A6F [0x55] WAIT_LOAD_SCHEDULER: Wait for scheduler "fdo1" with entities [LocalPlayer, LocalPlayer], work=200*
 32: 0x0A7E [0x66] LOAD_EXT_SCHEDULER_MAIN: Load scheduler "thk1" with entities [EventEntity, EventEntity], work=50*
 33: 0x0A8D [0x52] END_LOAD_SCHEDULER: End scheduler "s073" with entities [LocalPlayer, LocalPlayer], work=5*
 34: 0x0A9C [0x45] LOAD_SCHEDULED_TASK: Load scheduler "s074" with entities [LocalPlayer, LocalPlayer], work=[5*, 0*]
 35: 0x0AAD [0x45] LOAD_SCHEDULED_TASK: Load scheduler "fdi1" with entities [LocalPlayer, LocalPlayer], work=[200*, 0*]
 36: 0x0ABE [0x1C] WAIT(30* ticks)
 37: 0x0AC1 [0x1D] PRINT_EVENT_MESSAGE(message_id=7447*)
    → "........."
 38: 0x0AC4 [0x23] WAIT_FOR_DIALOG_INTERACTION
 39: 0x0AC5 [0x53] WAIT_SCHEDULER_TASK: Wait for scheduler "thk1" with entities [EventEntity, EventEntity]
 40: 0x0AD2 [0x66] LOAD_EXT_SCHEDULER_MAIN: Load scheduler "thk2" with entities [EventEntity, EventEntity], work=50*
 41: 0x0AE1 [0x1D] PRINT_EVENT_MESSAGE(message_id=7448*)
    → "A turtle? Well, why didn't you say so!? I know exactly what you need! I'll work on a rrrough plan while you go out and find $0 and $1."
 42: 0x0AE4 [0x23] WAIT_FOR_DIALOG_INTERACTION
 43: 0x0AE5 [0x1A] CALL_SUBROUTINE(address=0x0931)
 44: 0x0AE8 [0x1D] PRINT_EVENT_MESSAGE(message_id=7449*)
    → "And my fee? I couldn't think of taking money from my closest, [handsomest/cutest], most bestest frrriend, <Player>! (Even though the guild is in debt for 98,000,000 gil...)"
 45: 0x0AEB [0x23] WAIT_FOR_DIALOG_INTERACTION
 46: 0x0AEC [0x1A] CALL_SUBROUTINE(address=0x0943)
 47: 0x0AEF [0x24] CREATE_DIALOG(message_id=7450*, default_option=0*, option_flags=0*)
    → "Pay 98,000,000 gil? [Why not? I'm loaded!/Not in 98 million years.]"
 48: 0x0AF6 [0x25] WAIT_DIALOG_SELECT()
 49: 0x0AF7 [0x02] IF !(Work_Zone[0] == 0*) GOTO 0x0B02
 50: 0x0AFF [0x01] GOTO 0x0B02

SUBROUTINE_0B02:
 51: 0x0B02 [0x52] END_LOAD_SCHEDULER: End scheduler "s074" with entities [LocalPlayer, LocalPlayer], work=5*
 52: 0x0B11 [0x45] LOAD_SCHEDULED_TASK: Load scheduler "s072" with entities [LocalPlayer, LocalPlayer], work=[5*, 0*]
 53: 0x0B22 [0x66] LOAD_EXT_SCHEDULER_MAIN: Load scheduler "dis0" with entities [EventEntity, EventEntity], work=52*
 54: 0x0B31 [0x1D] PRINT_EVENT_MESSAGE(message_id=7451*)
    → "Okay, okay. I don't want to put you in debt or anything. How about $2 gil? That shouldn't set you back too much, should it? Alrrright! Now let's get to it!"
 55: 0x0B34 [0x23] WAIT_FOR_DIALOG_INTERACTION
 56: 0x0B35 [0x45] LOAD_SCHEDULED_TASK: Load scheduler "fdo1" with entities [LocalPlayer, LocalPlayer], work=[200*, 0*]
 57: 0x0B46 [0x55] WAIT_LOAD_SCHEDULER: Wait for scheduler "fdo1" with entities [LocalPlayer, LocalPlayer], work=200*
 58: 0x0B55 [0x45] LOAD_SCHEDULED_TASK: Load scheduler "fdi2" with entities [LocalPlayer, LocalPlayer], work=[200*, 0*]
 59: 0x0B66 [0x46] CAMERA_CONTROL: Restore default settings
 60: 0x0B68 [0x21] END_EVENT
 61: 0x0B69 [0x00] END_REQSTACK()
```

### Event 711

#### Metadata

| Field        | Value     |
|--------------|-----------|
| Entrypoint   | 0x0B6A    |
| Data Size    | 107 bytes |
| Instructions | 25        |

```
      00 01 02 03 04 05 06 07  08 09 0A 0B 0C 0D 0E 0F
      -- -- -- -- -- -- -- --  -- -- -- -- -- -- -- --
0B60:                                06 01 10 03 02 10            ......
0B70: 5B 80 03 03 10 5C 80 03  04 10 5D 80 1E F0 FF FF  [....\....].....
0B80: 7F 1D 6B 80 23 1D 6C 80  23 48 6D 80 23 24 6E 80  ..k.#.l.#Hm.#$n.
0B90: 0E 80 00 80 25 02 00 10  0E 80 00 A7 0B 03 01 10  ....%...........
0BA0: 6F 80 21 00 01 A7 0B 24  70 80 0E 80 00 80 25 02  o.!....$p.....%.
0BB0: 00 10 00 80 00 C1 0B 03  01 10 26 80 21 00 01 D3  ..........&.!...
0BC0: 0B 02 00 10 0E 80 00 D3  0B 03 01 10 6F 80 21 00  ............o.!.
0BD0: 01 D3 0B 21 00                                    ...!.           
```

#### Opcodes

```
  0: 0x0B6A [0x06] Work_Zone[1] = 0
  1: 0x0B6D [0x03] Work_Zone[2] = 885*
  2: 0x0B72 [0x03] Work_Zone[3] = 1637*
  3: 0x0B77 [0x03] Work_Zone[4] = 10000*
  4: 0x0B7C [0x1E] EventEntity looks at LocalPlayer and starts talking
  5: 0x0B81 [0x1D] PRINT_EVENT_MESSAGE(message_id=7452*)
    → "Hey everrrybody! <Player>'s here...again! As much as I'd love to hand over the plans to your turtle disguise, I'm going to need just a little more time! Oh, and don't forget the $0, the $1, and the $2 gil I asked forrr!"
  6: 0x0B84 [0x23] WAIT_FOR_DIALOG_INTERACTION
  7: 0x0B85 [0x1D] PRINT_EVENT_MESSAGE(message_id=7453*)
    → "Or...are you trrrying to tell me you'd rrrather give up and not spend all that time and gil?"
  8: 0x0B88 [0x23] WAIT_FOR_DIALOG_INTERACTION
  9: 0x0B89 [0x48] [System] [7454*]:
    → "If you choose to give up, the quest will be canceled and your quest log reset."
 10: 0x0B8C [0x23] WAIT_FOR_DIALOG_INTERACTION
 11: 0x0B8D [0x24] CREATE_DIALOG(message_id=7455*, default_option=1*, option_flags=0*)
    → "Cancel the quest? [Yes./No.]"
 12: 0x0B94 [0x25] WAIT_DIALOG_SELECT()
 13: 0x0B95 [0x02] IF !(Work_Zone[0] == 1*) GOTO 0x0BA7
 14: 0x0B9D [0x03] Work_Zone[1] = 1073741824*
 15: 0x0BA2 [0x21] END_EVENT
 16: 0x0BA3 [0x00] END_REQSTACK()

SUBROUTINE_0BA7:
 17: 0x0BA7 [0x24] CREATE_DIALOG(message_id=7456*, default_option=1*, option_flags=0*)
    → "Do you really wish to cancel the quest? [I really do./I guess I don't.]"
 18: 0x0BAE [0x25] WAIT_DIALOG_SELECT()
 19: 0x0BAF [0x02] IF !(Work_Zone[0] == 0*) GOTO 0x0BC1
 20: 0x0BB7 [0x03] Work_Zone[1] = 100*
 21: 0x0BBC [0x21] END_EVENT
 22: 0x0BBD [0x00] END_REQSTACK()

SUBROUTINE_0BD3:
 23: 0x0BD3 [0x21] END_EVENT
 24: 0x0BD4 [0x00] END_REQSTACK()
```

#### Data or dead code:

```
# Dead code (unreachable instructions):
     0x0BA4 [0x01] GOTO 0x0BA7
# Dead code (unreachable instructions):
     0x0BBE [0x01] GOTO 0x0BD3
     0x0BD0 [0x01] GOTO 0x0BD3
```

### Event 712

#### Metadata

| Field        | Value    |
|--------------|----------|
| Entrypoint   | 0x0BD5   |
| Data Size    | 11 bytes |
| Instructions | 5        |

```
      00 01 02 03 04 05 06 07  08 09 0A 0B 0C 0D 0E 0F
      -- -- -- -- -- -- -- --  -- -- -- -- -- -- -- --
0BD0:                1E F0 FF  FF 7F 1D 71 80 23 21 00       ......q.#!.
```

#### Opcodes

```
  0: 0x0BD5 [0x1E] EventEntity looks at LocalPlayer and starts talking
  1: 0x0BDA [0x1D] PRINT_EVENT_MESSAGE(message_id=7458*)
    → "Great job, <Player>! You're one superrr trooperrr! Now I can finally get started on the parts. It'll be another couple days, but that's alrrright, isn't it?"
  2: 0x0BDD [0x23] WAIT_FOR_DIALOG_INTERACTION
  3: 0x0BDE [0x21] END_EVENT
  4: 0x0BDF [0x00] END_REQSTACK()
```

### Event 713

#### Metadata

| Field        | Value    |
|--------------|----------|
| Entrypoint   | 0x0BE0   |
| Data Size    | 11 bytes |
| Instructions | 5        |

```
      00 01 02 03 04 05 06 07  08 09 0A 0B 0C 0D 0E 0F
      -- -- -- -- -- -- -- --  -- -- -- -- -- -- -- --
0BE0: 1E F0 FF FF 7F 1D 72 80  23 21 00                 ......r.#!.     
```

#### Opcodes

```
  0: 0x0BE0 [0x1E] EventEntity looks at LocalPlayer and starts talking
  1: 0x0BE5 [0x1D] PRINT_EVENT_MESSAGE(message_id=7465*)
    → "Hey everrrybody! <Player>'s here...again... (I thought I told you that it would take a couple of days. Now get the hell out of my face!) Alrrright! We'll see you later! Have a great day!"
  2: 0x0BE8 [0x23] WAIT_FOR_DIALOG_INTERACTION
  3: 0x0BE9 [0x21] END_EVENT
  4: 0x0BEA [0x00] END_REQSTACK()
```

### Event 714

#### Metadata

| Field        | Value     |
|--------------|-----------|
| Entrypoint   | 0x0BEB    |
| Data Size    | 185 bytes |
| Instructions | 37        |

```
      00 01 02 03 04 05 06 07  08 09 0A 0B 0C 0D 0E 0F
      -- -- -- -- -- -- -- --  -- -- -- -- -- -- -- --
0BE0:                                   06 01 10 03 02             .....
0BF0: 10 73 80 03 03 10 74 80  1E F0 FF FF 7F 1D 75 80  .s....t.......u.
0C00: 23 24 76 80 00 80 00 80  25 02 00 10 0E 80 00 1B  #$v.....%.......
0C10: 0C 03 01 10 6F 80 21 00  01 70 0C 02 00 10 07 80  ....o.!..p......
0C20: 00 70 0C 48 6D 80 23 24  6E 80 0E 80 00 80 25 02  .p.Hm.#$n.....%.
0C30: 00 10 0E 80 00 41 0C 03  01 10 6F 80 21 00 01 41  .....A....o.!..A
0C40: 0C 24 70 80 0E 80 00 80  25 02 00 10 00 80 00 5B  .$p.....%......[
0C50: 0C 03 01 10 26 80 21 00  01 6D 0C 02 00 10 0E 80  ....&.!..m......
0C60: 00 6D 0C 03 01 10 6F 80  21 00 01 6D 0C 01 70 0C  .m....o.!..m..p.
0C70: 1A 31 09 1D 77 80 23 1A  43 09 1D 78 80 23 24 79  .1..w.#.C..x.#$y
0C80: 80 0E 80 00 80 25 02 00  10 0E 80 00 98 0C 03 01  .....%..........
0C90: 10 6F 80 21 00 01 98 0C  1A 31 09 1D 7A 80 23 1A  .o.!.....1..z.#.
0CA0: 43 09 21 00                                       C.!.            
```

#### Opcodes

```
  0: 0x0BEB [0x06] Work_Zone[1] = 0
  1: 0x0BEE [0x03] Work_Zone[2] = 1866*
  2: 0x0BF3 [0x03] Work_Zone[3] = 100000*
  3: 0x0BF8 [0x1E] EventEntity looks at LocalPlayer and starts talking
  4: 0x0BFD [0x1D] PRINT_EVENT_MESSAGE(message_id=7459*)
    → "Hey, hey, hey! What's with the long face? Why are you feeling so blue? What has got you down in the dumps?"
  5: 0x0C00 [0x23] WAIT_FOR_DIALOG_INTERACTION
  6: 0x0C01 [0x24] CREATE_DIALOG(message_id=7460*, default_option=0*, option_flags=0*)
    → "Need another set of barbut parts? [Yes./No./You know what, I give up...]"
  7: 0x0C08 [0x25] WAIT_DIALOG_SELECT()
  8: 0x0C09 [0x02] IF !(Work_Zone[0] == 1*) GOTO 0x0C1B
  9: 0x0C11 [0x03] Work_Zone[1] = 1073741824*
 10: 0x0C16 [0x21] END_EVENT
