# 17764372 - Apururu

## Common Data

| Field            | Value                    |
|------------------|--------------------------|
| Zone             | Windurst Woods (ID: 241) |
| Block Size       | 19440 bytes              |
| Total Events     | 146                      |
| References Count | 420                      |

## List of Events

| Event ID                   | Entrypoint   |   Size |   Instructions |
|----------------------------|--------------|--------|----------------|
| [65535](#event-65535)      | 0x0000       |      1 |              1 |
| [65535.1](#event-655351)   | 0x0001       |     16 |              2 |
| [65535.2](#event-655352)   | 0x0011       |     22 |              4 |
| [65535.3](#event-655353)   | 0x0027       |     16 |              2 |
| [65535.4](#event-655354)   | 0x0037       |     14 |              2 |
| [65535.5](#event-655355)   | 0x0045       |     16 |              2 |
| [65535.6](#event-655356)   | 0x0055       |     14 |              2 |
| [65535.7](#event-655357)   | 0x0063       |     16 |              2 |
| [65535.8](#event-655358)   | 0x0073       |     14 |              2 |
| [65535.9](#event-655359)   | 0x0081       |     16 |              2 |
| [65535.10](#event-6553510) | 0x0091       |     14 |              2 |
| [65535.11](#event-6553511) | 0x009F       |     16 |              2 |
| [65535.12](#event-6553512) | 0x00AF       |     14 |              2 |
| [65535.13](#event-6553513) | 0x00BD       |     16 |              2 |
| [65535.14](#event-6553514) | 0x00CD       |     22 |              4 |
| [65535.15](#event-6553515) | 0x00E3       |     16 |              2 |
| [65535.16](#event-6553516) | 0x00F3       |     14 |              2 |
| [65535.17](#event-6553517) | 0x0101       |     16 |              2 |
| [65535.18](#event-6553518) | 0x0111       |     22 |              4 |
| [65535.19](#event-6553519) | 0x0127       |     16 |              2 |
| [65535.20](#event-6553520) | 0x0137       |     22 |              4 |
| [65535.21](#event-6553521) | 0x014D       |      9 |              3 |
| [65535.22](#event-6553522) | 0x0156       |     16 |              2 |
| [65535.23](#event-6553523) | 0x0166       |     14 |              2 |
| [65535.24](#event-6553524) | 0x0174       |     16 |              2 |
| [65535.25](#event-6553525) | 0x0184       |     14 |              2 |
| [274](#event-274)          | 0x0192       |     37 |             14 |
| [283](#event-283)          | 0x01B7       |     33 |             12 |
| [284](#event-284)          | 0x01D8       |     69 |             20 |
| [137](#event-137)          | 0x021D       |    382 |             48 |
| [65535.26](#event-6553526) | 0x039B       |     23 |              7 |
| [65535.27](#event-6553527) | 0x03B2       |     29 |              8 |
| [65535.28](#event-6553528) | 0x03CF       |     23 |              7 |
| [65535.29](#event-6553529) | 0x03E6       |     12 |              4 |
| [65535.30](#event-6553530) | 0x03F2       |     16 |              6 |
| [65535.31](#event-6553531) | 0x0402       |     47 |             12 |
| [65535.32](#event-6553532) | 0x0431       |     23 |              7 |
| [138](#event-138)          | 0x0448       |     33 |             12 |
| [143](#event-143)          | 0x0469       |    291 |             39 |
| [65535.33](#event-6553533) | 0x058C       |     19 |              5 |
| [65535.34](#event-6553534) | 0x059F       |     23 |              7 |
| [65535.35](#event-6553535) | 0x05B6       |     27 |              9 |
| [65535.36](#event-6553536) | 0x05D1       |     23 |              7 |
| [144](#event-144)          | 0x05E8       |     51 |             16 |
| [145](#event-145)          | 0x061B       |    314 |             44 |
| [289](#event-289)          | 0x0755       |     33 |             12 |
| [297](#event-297)          | 0x0776       |     33 |             12 |
| [300](#event-300)          | 0x0797       |     33 |             12 |
| [305](#event-305)          | 0x07B8       |     33 |             12 |
| [308](#event-308)          | 0x07D9       |      1 |              1 |
| [65535.37](#event-6553537) | 0x07DA       |     10 |              2 |
| [65535.38](#event-6553538) | 0x07E4       |     10 |              2 |
| [65535.39](#event-6553539) | 0x07EE       |     15 |              5 |
| [65535.40](#event-6553540) | 0x07FD       |      5 |              3 |
| [65535.41](#event-6553541) | 0x0802       |     19 |              5 |
| [65535.42](#event-6553542) | 0x0815       |     33 |              7 |
| [65535.43](#event-6553543) | 0x0836       |     19 |              5 |
| [65535.44](#event-6553544) | 0x0849       |      5 |              3 |
| [310](#event-310)          | 0x084E       |     33 |             12 |
| [314](#event-314)          | 0x086F       |      1 |              1 |
| [65535.45](#event-6553545) | 0x0870       |     22 |              8 |
| [65535.46](#event-6553546) | 0x0886       |     25 |              7 |
| [65535.47](#event-6553547) | 0x089F       |      5 |              3 |
| [65535.48](#event-6553548) | 0x08A4       |     19 |              5 |
| [65535.49](#event-6553549) | 0x08B7       |     19 |              5 |
| [65535.50](#event-6553550) | 0x08CA       |     19 |              5 |
| [65535.51](#event-6553551) | 0x08DD       |     19 |              5 |
| [318](#event-318)          | 0x08F0       |     29 |             10 |
| [392](#event-392)          | 0x090D       |    671 |             95 |
| [65535.52](#event-6553552) | 0x0BAC       |     10 |              2 |
| [65535.53](#event-6553553) | 0x0BB6       |     15 |              5 |
| [65535.54](#event-6553554) | 0x0BC5       |     19 |              7 |
| [65535.55](#event-6553555) | 0x0BD8       |     19 |              5 |
| [65535.56](#event-6553556) | 0x0BEB       |      5 |              3 |
| [65535.57](#event-6553557) | 0x0BF0       |     19 |              5 |
| [65535.58](#event-6553558) | 0x0C03       |      5 |              3 |
| [65535.59](#event-6553559) | 0x0C08       |      5 |              3 |
| [65535.60](#event-6553560) | 0x0C0D       |      5 |              3 |
| [65535.61](#event-6553561) | 0x0C12       |      5 |              3 |
| [65535.62](#event-6553562) | 0x0C17       |      5 |              3 |
| [65535.63](#event-6553563) | 0x0C1C       |     19 |              5 |
| [65535.64](#event-6553564) | 0x0C2F       |     18 |              6 |
| [65535.65](#event-6553565) | 0x0C41       |      5 |              3 |
| [65535.66](#event-6553566) | 0x0C46       |      5 |              3 |
| [393](#event-393)          | 0x0C4B       |     33 |             12 |
| [397](#event-397)          | 0x0C6C       |     35 |             11 |
| [65535.67](#event-6553567) | 0x0C8F       |      5 |              3 |
| [65535.68](#event-6553568) | 0x0C94       |      5 |              3 |
| [65535.69](#event-6553569) | 0x0C99       |      5 |              3 |
| [398](#event-398)          | 0x0C9E       |     33 |             12 |
| [319](#event-319)          | 0x0CBF       |    690 |             94 |
| [65535.70](#event-6553570) | 0x0F71       |     34 |              8 |
| [65535.71](#event-6553571) | 0x0F93       |     27 |              7 |
| [65535.72](#event-6553572) | 0x0FAE       |     19 |              5 |
| [65535.73](#event-6553573) | 0x0FC1       |      9 |              5 |
| [65535.74](#event-6553574) | 0x0FCA       |     23 |              7 |
| [65535.75](#event-6553575) | 0x0FE1       |      5 |              3 |
| [65535.76](#event-6553576) | 0x0FE6       |      9 |              5 |
| [65535.77](#event-6553577) | 0x0FEF       |     27 |              9 |
| [320](#event-320)          | 0x100A       |     33 |             12 |
| [325](#event-325)          | 0x102B       |    499 |             71 |
| [65535.78](#event-6553578) | 0x121E       |     19 |              5 |
| [65535.79](#event-6553579) | 0x1231       |     37 |              9 |
| [65535.80](#event-6553580) | 0x1256       |     23 |              7 |
| [65535.81](#event-6553581) | 0x126D       |     19 |              5 |
| [326](#event-326)          | 0x1280       |     19 |              5 |
| [330](#event-330)          | 0x1293       |     37 |             14 |
| [599](#event-599)          | 0x12B8       |      8 |              5 |
| [588](#event-588)          | 0x12C0       |   2161 |            290 |
| [65535.82](#event-6553582) | 0x1B31       |     14 |              4 |
| [65535.83](#event-6553583) | 0x1B3F       |     14 |              4 |
| [2](#event-2)              | 0x1B4D       |      1 |              1 |
| [65535.84](#event-6553584) | 0x1B4E       |     10 |              2 |
| [65535.85](#event-6553585) | 0x1B58       |     30 |              8 |
| [65535.86](#event-6553586) | 0x1B76       |     10 |              2 |
| [65535.87](#event-6553587) | 0x1B80       |     70 |             14 |
| [589](#event-589)          | 0x1BC6       |     47 |             14 |
| [601](#event-601)          | 0x1BF5       |     61 |             16 |
| [590](#event-590)          | 0x1C32       |    377 |             63 |
| [591](#event-591)          | 0x1DAB       |     33 |             12 |
| [592](#event-592)          | 0x1DCC       |    191 |             36 |
| [593](#event-593)          | 0x1E8B       |     33 |             12 |
| [605](#event-605)          | 0x1EAC       |     47 |             14 |
| [609](#event-609)          | 0x1EDB       |    446 |             70 |
| [597](#event-597)          | 0x2099       |     29 |             10 |
| [600](#event-600)          | 0x20B6       |    633 |             90 |
| [619](#event-619)          | 0x232F       |   1131 |            144 |
| [65535.88](#event-6553588) | 0x279A       |     10 |              2 |
| [65535.89](#event-6553589) | 0x27A4       |      9 |              5 |
| [65535.90](#event-6553590) | 0x27AD       |      5 |              3 |
| [618](#event-618)          | 0x27B2       |     47 |             14 |
| [620](#event-620)          | 0x27E1       |   1428 |            204 |
| [622](#event-622)          | 0x2D75       |     47 |             14 |
| [65535.91](#event-6553591) | 0x2DA4       |     33 |              7 |
| [65535.92](#event-6553592) | 0x2DC5       |     14 |              4 |
| [65535.93](#event-6553593) | 0x2DD3       |     22 |              8 |
| [621](#event-621)          | 0x2DE9       |   1369 |            175 |
| [65535.94](#event-6553594) | 0x3342       |     10 |              2 |
| [65535.95](#event-6553595) | 0x334C       |     22 |              8 |
| [623](#event-623)          | 0x3362       |     45 |             14 |
| [653](#event-653)          | 0x338F       |     45 |             14 |
| [636](#event-636)          | 0x33BC       |     69 |             20 |
| [637](#event-637)          | 0x3401       |     91 |             26 |
| [652](#event-652)          | 0x345C       |     47 |             14 |
| [641](#event-641)          | 0x348B       |     67 |             20 |
| [866](#event-866)          | 0x34CE       |   3641 |            446 |

## DAT References (imed_data)

|   Index | Hex Value   |   Dec Value |
|---------|-------------|-------------|
|       0 | 0x0151      |         337 |
|       1 | 0x001E      |          30 |
|       2 | 0x0153      |         339 |
|       3 | 0x0155      |         341 |
|       4 | 0x0036      |          54 |
|       5 | 0x1F70      |        8048 |
|       6 | 0x1F71      |        8049 |
|       7 | 0x1F72      |        8050 |
|       8 | 0x1F7E      |        8062 |
|       9 | 0x1F7F      |        8063 |
|      10 | 0x1F80      |        8064 |
|      11 | 0x1F81      |        8065 |
|      12 | 0x1F82      |        8066 |
|      13 | 0x1F83      |        8067 |
|      14 | 0x00C8      |         200 |
|      15 | 0x0000      |           0 |
|      16 | 0x003C      |          60 |
|      17 | 0x01A7      |         423 |
|      18 | 0x0003      |           3 |
|      19 | 0x008D      |         141 |
|      20 | 0x1E36      |        7734 |
|      21 | 0x1E37      |        7735 |
|      22 | 0x1E38      |        7736 |
|      23 | 0x1E39      |        7737 |
|      24 | 0x1E3A      |        7738 |
|      25 | 0x1E3B      |        7739 |
|      26 | 0x1E3C      |        7740 |
|      27 | 0x1E3D      |        7741 |
|      28 | 0x1E3E      |        7742 |
|      29 | 0x1E3F      |        7743 |
|      30 | 0x1E40      |        7744 |
|      31 | 0x1E41      |        7745 |
|      32 | 0x1E42      |        7746 |
|      33 | 0x1E43      |        7747 |
|      34 | 0x1E48      |        7752 |
|      35 | 0x1E49      |        7753 |
|      36 | 0x00C9      |         201 |
|      37 | 0x1E52      |        7762 |
|      38 | 0x1E53      |        7763 |
|      39 | 0x1E54      |        7764 |
|      40 | 0x1E55      |        7765 |
|      41 | 0x1E56      |        7766 |
|      42 | 0x1E57      |        7767 |
|      43 | 0x1E58      |        7768 |
|      44 | 0x1E59      |        7769 |
|      45 | 0x1E5A      |        7770 |
|      46 | 0x1E5B      |        7771 |
|      47 | 0x1E5C      |        7772 |
|      48 | 0x1E5D      |        7773 |
|      49 | 0x1E5E      |        7774 |
|      50 | 0x1F94      |        8084 |
|      51 | 0x1F95      |        8085 |
|      52 | 0x1FAD      |        8109 |
|      53 | 0x1FAE      |        8110 |
|      54 | 0x1FBB      |        8123 |
|      55 | 0x1FBC      |        8124 |
|      56 | 0x1FC7      |        8135 |
|      57 | 0x1FC8      |        8136 |
|      58 | 0xFFFFB167  |  4294947175 |
|      59 | 0xFFFFA649  |  4294944329 |
|      60 | 0xFFFFF542  |  4294964546 |
|      61 | 0x0FB4      |        4020 |
|      62 | 0xFFFFD621  |  4294956577 |
|      63 | 0xFFFF943B  |  4294939707 |
|      64 | 0x0BEE      |        3054 |
|      65 | 0x000D      |          13 |
|      66 | 0xFFFFB949  |  4294949193 |
|      67 | 0xFFFFA5A5  |  4294944165 |
|      68 | 0x1FCC      |        8140 |
|      69 | 0x1FCD      |        8141 |
|      70 | 0x1FCE      |        8142 |
|      71 | 0x1FCF      |        8143 |
|      72 | 0x1FD1      |        8145 |
|      73 | 0x1FDF      |        8159 |
|      74 | 0x1FE0      |        8160 |
|      75 | 0x0028      |          40 |
|      76 | 0xFFFFD790  |  4294956944 |
|      77 | 0xFFFFA355  |  4294943573 |
|      78 | 0xFFFFCE22  |  4294954530 |
|      79 | 0xFFFFB2CE  |  4294947534 |
|      80 | 0xFFFFB839  |  4294948921 |
|      81 | 0xFFFFAC3C  |  4294945852 |
|      82 | 0x1FE7      |        8167 |
|      83 | 0x1FE8      |        8168 |
|      84 | 0x1FE9      |        8169 |
|      85 | 0x1FEA      |        8170 |
|      86 | 0x1FEB      |        8171 |
|      87 | 0x1FF1      |        8177 |
|      88 | 0x0064      |         100 |
|      89 | 0x01A6      |         422 |
|      90 | 0x009F      |         159 |
|      91 | 0x007F      |         127 |
|      92 | 0x0001      |           1 |
|      93 | 0x0078      |         120 |
|      94 | 0x2104      |        8452 |
|      95 | 0x210B      |        8459 |
|      96 | 0x0008      |           8 |
|      97 | 0x0002      |           2 |
|      98 | 0x0097      |         151 |
|      99 | 0xFFFFFA7B  |  4294965883 |
|     100 | 0xFFFF9C2C  |  4294941740 |
|     101 | 0xFFFFF15B  |  4294963547 |
|     102 | 0x0963      |        2403 |
|     103 | 0xFFFFFA13  |  4294965779 |
|     104 | 0xFFFFA615  |  4294944277 |
|     105 | 0xFFFFF62A  |  4294964778 |
|     106 | 0xFFFFA91A  |  4294945050 |
|     107 | 0x2101      |        8449 |
|     108 | 0x2102      |        8450 |
|     109 | 0x2103      |        8451 |
|     110 | 0x2105      |        8453 |
|     111 | 0x2106      |        8454 |
|     112 | 0x2107      |        8455 |
|     113 | 0x2108      |        8456 |
|     114 | 0x2109      |        8457 |
|     115 | 0x210A      |        8458 |
|     116 | 0x210C      |        8460 |
|     117 | 0x210D      |        8461 |
|     118 | 0x210E      |        8462 |
|     119 | 0x210F      |        8463 |
|     120 | 0x2110      |        8464 |
|     121 | 0x2111      |        8465 |
|     122 | 0x2118      |        8472 |
|     123 | 0x2119      |        8473 |
|     124 | 0x211A      |        8474 |
|     125 | 0x211B      |        8475 |
|     126 | 0x211C      |        8476 |
|     127 | 0x00A1      |         161 |
|     128 | 0x1FF2      |        8178 |
|     129 | 0x1FF6      |        8182 |
|     130 | 0x1FF7      |        8183 |
|     131 | 0x012C      |         300 |
|     132 | 0x0BFC      |        3068 |
|     133 | 0xFFFFDDD8  |  4294958552 |
|     134 | 0x3FD2      |       16338 |
|     135 | 0xFFFFF543  |  4294964547 |
|     136 | 0x041D      |        1053 |
|     137 | 0xFFFFD894  |  4294957204 |
|     138 | 0x32C3      |       12995 |
|     139 | 0xFFFFACC1  |  4294945985 |
|     140 | 0x2B53      |       11091 |
|     141 | 0xFFFFD5E2  |  4294956514 |
|     142 | 0x4332      |       17202 |
|     143 | 0x074A      |        1866 |
|     144 | 0xFFFFD0C3  |  4294955203 |
|     145 | 0x3E3F      |       15935 |
|     146 | 0x0421      |        1057 |
|     147 | 0x1FF4      |        8180 |
|     148 | 0x1FF8      |        8184 |
|     149 | 0x1FF9      |        8185 |
|     150 | 0x1FFA      |        8186 |
|     151 | 0x1FFB      |        8187 |
|     152 | 0x1FFC      |        8188 |
|     153 | 0x1FFD      |        8189 |
|     154 | 0x1FFE      |        8190 |
|     155 | 0x1FFF      |        8191 |
|     156 | 0x2000      |        8192 |
|     157 | 0x2001      |        8193 |
|     158 | 0x03E8      |        1000 |
|     159 | 0x0010      |          16 |
|     160 | 0x0190      |         400 |
|     161 | 0x200F      |        8207 |
|     162 | 0x2010      |        8208 |
|     163 | 0x2011      |        8209 |
|     164 | 0x2012      |        8210 |
|     165 | 0x2013      |        8211 |
|     166 | 0x2014      |        8212 |
|     167 | 0x2015      |        8213 |
|     168 | 0x2026      |        8230 |
|     169 | 0x2027      |        8231 |
|     170 | 0x2028      |        8232 |
|     171 | 0x24D3      |        9427 |
|     172 | 0x250C      |        9484 |
|     173 | 0x250D      |        9485 |
|     174 | 0x00D6      |         214 |
|     175 | 0x250E      |        9486 |
|     176 | 0x0005      |           5 |
|     177 | 0x0006      |           6 |
|     178 | 0x250F      |        9487 |
|     179 | 0x2510      |        9488 |
|     180 | 0x2512      |        9490 |
|     181 | 0x2513      |        9491 |
|     182 | 0x00C0      |         192 |
|     183 | 0x000C      |          12 |
|     184 | 0x0013      |          19 |
|     185 | 0x2514      |        9492 |
|     186 | 0x005E      |          94 |
|     187 | 0x2515      |        9493 |
|     188 | 0x2516      |        9494 |
|     189 | 0x002F      |          47 |
|     190 | 0x2518      |        9496 |
|     191 | 0x251B      |        9499 |
|     192 | 0x251D      |        9501 |
|     193 | 0x2521      |        9505 |
|     194 | 0x030F      |         783 |
|     195 | 0x2525      |        9509 |
|     196 | 0x2527      |        9511 |
|     197 | 0x2529      |        9513 |
|     198 | 0x252A      |        9514 |
|     199 | 0x252B      |        9515 |
|     200 | 0x00F1      |         241 |
|     201 | 0x252E      |        9518 |
|     202 | 0x252F      |        9519 |
|     203 | 0x2511      |        9489 |
|     204 | 0xFFFFD0BA  |  4294955194 |
|     205 | 0x40EB      |       16619 |
|     206 | 0xFFFBFE4B  |  4294704715 |
|     207 | 0x576C      |       22380 |
|     208 | 0x0A31      |        2609 |
|     209 | 0xFFFBE78C  |  4294698892 |
|     210 | 0x7025      |       28709 |
|     211 | 0xFFFBF1DE  |  4294701534 |
|     212 | 0x9DF9      |       40441 |
|     213 | 0xFFFC399A  |  4294719898 |
|     214 | 0x184E3     |       99555 |
|     215 | 0x001D      |          29 |
|     216 | 0xFFFC77B3  |  4294735795 |
|     217 | 0x0037      |          55 |
|     218 | 0xFFFC8560  |  4294739296 |
|     219 | 0x17C14     |       97300 |
|     220 | 0x2530      |        9520 |
|     221 | 0x2531      |        9521 |
|     222 | 0x2538      |        9528 |
|     223 | 0x2539      |        9529 |
|     224 | 0x253A      |        9530 |
|     225 | 0x253B      |        9531 |
|     226 | 0x253C      |        9532 |
|     227 | 0x253D      |        9533 |
|     228 | 0x253E      |        9534 |
|     229 | 0x253F      |        9535 |
|     230 | 0x2540      |        9536 |
|     231 | 0x2541      |        9537 |
|     232 | 0x2542      |        9538 |
|     233 | 0x2543      |        9539 |
|     234 | 0x2544      |        9540 |
|     235 | 0x2545      |        9541 |
|     236 | 0x2546      |        9542 |
|     237 | 0x254D      |        9549 |
|     238 | 0x254E      |        9550 |
|     239 | 0x2547      |        9543 |
|     240 | 0x2548      |        9544 |
|     241 | 0x2549      |        9545 |
|     242 | 0x254A      |        9546 |
|     243 | 0x254B      |        9547 |
|     244 | 0x254C      |        9548 |
|     245 | 0x0018      |          24 |
|     246 | 0x2558      |        9560 |
|     247 | 0x2559      |        9561 |
|     248 | 0x255A      |        9562 |
|     249 | 0x255B      |        9563 |
|     250 | 0x255C      |        9564 |
|     251 | 0x255D      |        9565 |
|     252 | 0x255E      |        9566 |
|     253 | 0x00A0      |         160 |
|     254 | 0x255F      |        9567 |
|     255 | 0x2560      |        9568 |
|     256 | 0x2561      |        9569 |
|     257 | 0x2562      |        9570 |
|     258 | 0x00FB      |         251 |
|     259 | 0x256F      |        9583 |
|     260 | 0x000A      |          10 |
|     261 | 0x0032      |          50 |
|     262 | 0x00AA      |         170 |
|     263 | 0x2571      |        9585 |
|     264 | 0x2573      |        9587 |
|     265 | 0x0014      |          20 |
|     266 | 0x2574      |        9588 |
|     267 | 0x2576      |        9590 |
|     268 | 0x0348      |         840 |
|     269 | 0xFFFFB8BD  |  4294949053 |
|     270 | 0x00F5      |         245 |
|     271 | 0x256D      |        9581 |
|     272 | 0x256E      |        9582 |
|     273 | 0x2572      |        9586 |
|     274 | 0x2578      |        9592 |
|     275 | 0x2579      |        9593 |
|     276 | 0x257A      |        9594 |
|     277 | 0x257B      |        9595 |
|     278 | 0x257C      |        9596 |
|     279 | 0x005A      |          90 |
|     280 | 0x257D      |        9597 |
|     281 | 0x257F      |        9599 |
|     282 | 0x2580      |        9600 |
|     283 | 0x2581      |        9601 |
|     284 | 0x2582      |        9602 |
|     285 | 0x03CE      |         974 |
|     286 | 0x2583      |        9603 |
|     287 | 0x2584      |        9604 |
|     288 | 0x2585      |        9605 |
|     289 | 0x0004      |           4 |
|     290 | 0x2586      |        9606 |
|     291 | 0x2587      |        9607 |
|     292 | 0x2588      |        9608 |
|     293 | 0x2589      |        9609 |
|     294 | 0x258A      |        9610 |
|     295 | 0x258B      |        9611 |
|     296 | 0x258C      |        9612 |
|     297 | 0x258E      |        9614 |
|     298 | 0x258F      |        9615 |
|     299 | 0x258D      |        9613 |
|     300 | 0x2590      |        9616 |
|     301 | 0x2591      |        9617 |
|     302 | 0xFFFFD834  |  4294957108 |
|     303 | 0x3697      |       13975 |
|     304 | 0xFFFFCD76  |  4294954358 |
|     305 | 0x35F8      |       13816 |
|     306 | 0xFFFFC613  |  4294952467 |
|     307 | 0x35E8      |       13800 |
|     308 | 0xFFFFC7FC  |  4294952956 |
|     309 | 0x35B7      |       13751 |
|     310 | 0x2592      |        9618 |
|     311 | 0x2593      |        9619 |
|     312 | 0x2594      |        9620 |
|     313 | 0x2595      |        9621 |
|     314 | 0x2596      |        9622 |
|     315 | 0x2597      |        9623 |
|     316 | 0x2598      |        9624 |
|     317 | 0x2599      |        9625 |
|     318 | 0x259A      |        9626 |
|     319 | 0x259B      |        9627 |
|     320 | 0x259C      |        9628 |
|     321 | 0x259E      |        9630 |
|     322 | 0x259F      |        9631 |
|     323 | 0x25A0      |        9632 |
|     324 | 0x00B4      |         180 |
|     325 | 0x25A1      |        9633 |
|     326 | 0x25A2      |        9634 |
|     327 | 0x25A3      |        9635 |
|     328 | 0x25A4      |        9636 |
|     329 | 0x0050      |          80 |
|     330 | 0x25A5      |        9637 |
|     331 | 0xFFFFD1C7  |  4294955463 |
|     332 | 0x347B      |       13435 |
|     333 | 0x057B      |        1403 |
|     334 | 0xFFFFC91D  |  4294953245 |
|     335 | 0x3393      |       13203 |
|     336 | 0x25A6      |        9638 |
|     337 | 0x25A7      |        9639 |
|     338 | 0x25AE      |        9646 |
|     339 | 0x25AF      |        9647 |
|     340 | 0x25C1      |        9665 |
|     341 | 0x25C2      |        9666 |
|     342 | 0x25C3      |        9667 |
|     343 | 0x25C4      |        9668 |
|     344 | 0x25D5      |        9685 |
|     345 | 0x25D6      |        9686 |
|     346 | 0x25D7      |        9687 |
|     347 | 0x25D8      |        9688 |
|     348 | 0x25D9      |        9689 |
|     349 | 0x25DA      |        9690 |
|     350 | 0x25DB      |        9691 |
|     351 | 0x25DC      |        9692 |
|     352 | 0x25E7      |        9703 |
|     353 | 0x25E8      |        9704 |
|     354 | 0x25E9      |        9705 |
|     355 | 0x25EA      |        9706 |
|     356 | 0x09C1      |        2497 |
|     357 | 0x36AB      |       13995 |
|     358 | 0x36AC      |       13996 |
|     359 | 0x36AD      |       13997 |
|     360 | 0x36AE      |       13998 |
|     361 | 0x36AF      |       13999 |
|     362 | 0x36B0      |       14000 |
|     363 | 0x001B      |          27 |
|     364 | 0xFFFFD353  |  4294955859 |
|     365 | 0x361A      |       13850 |
|     366 | 0x08EF      |        2287 |
|     367 | 0xFFFFA7D7  |  4294944727 |
|     368 | 0x2AD9      |       10969 |
|     369 | 0x0FE1      |        4065 |
|     370 | 0x0274      |         628 |
|     371 | 0x000F      |          15 |
|     372 | 0x36B1      |       14001 |
|     373 | 0x36B2      |       14002 |
|     374 | 0x36B3      |       14003 |
|     375 | 0x36B4      |       14004 |
|     376 | 0x00A5      |         165 |
|     377 | 0x36B5      |       14005 |
|     378 | 0x36B6      |       14006 |
|     379 | 0x00A3      |         163 |
|     380 | 0xFFFFCA43  |  4294953539 |
|     381 | 0x3909      |       14601 |
|     382 | 0x0A1A      |        2586 |
|     383 | 0x36B7      |       14007 |
|     384 | 0x36B8      |       14008 |
|     385 | 0x36B9      |       14009 |
|     386 | 0x36BB      |       14011 |
|     387 | 0x36BC      |       14012 |
|     388 | 0x36BD      |       14013 |
|     389 | 0x36BE      |       14014 |
|     390 | 0x36BF      |       14015 |
|     391 | 0x36C0      |       14016 |
|     392 | 0x36C1      |       14017 |
|     393 | 0x0465      |        1125 |
|     394 | 0x36C2      |       14018 |
|     395 | 0x36C3      |       14019 |
|     396 | 0x36C4      |       14020 |
|     397 | 0x36C5      |       14021 |
|     398 | 0x36C6      |       14022 |
|     399 | 0x36C7      |       14023 |
|     400 | 0x36C8      |       14024 |
|     401 | 0x36C9      |       14025 |
|     402 | 0x36CA      |       14026 |
|     403 | 0x36CB      |       14027 |
|     404 | 0x36CC      |       14028 |
|     405 | 0x36CD      |       14029 |
|     406 | 0x36CE      |       14030 |
|     407 | 0x36CF      |       14031 |
|     408 | 0x36D0      |       14032 |
|     409 | 0x36D1      |       14033 |
|     410 | 0x36D2      |       14034 |
|     411 | 0x36D3      |       14035 |
|     412 | 0x00AE      |         174 |
|     413 | 0xFFFFC858  |  4294953048 |
|     414 | 0x2FD0      |       12240 |
|     415 | 0x0EA2      |        3746 |
|     416 | 0x00B1      |         177 |
|     417 | 0x36D4      |       14036 |
|     418 | 0x36D5      |       14037 |
|     419 | 0x36BA      |       14010 |

## String References

- **7734**: Hello-ello! And you are... Oh, the volunteer to help us out with my Manustery's little mission, rightaru?
- **7735**: Very nice of you to have come. My name is Apururu. I'm the Minister of the Manustery, and head of this Cardian workshop.
- **7736**: But first, I should give you a rundown of what the Manustery is all about, I s'pose.
- **7737**: The Manustery is the ministry in charge of the production of automaton guards, otherwise known as Cardians. As far as military might goes, our Cardians are second only to the Orastery's War Warlocks.
- **7738**: Have you ever tried speaking to those doll-like beings that answer back in the words of the stars? Well, they are our Cardians!
- **7739**: We cast a special kind of magic on a doll made of straw, cloth, and other stuff--that's what gives life to a Cardian.
- **7740**: We ask traveling merchants or adventurers to provide us with most of the materials we need to make Cardians. But there is one essential material we can't just ask anyone to provide us with...
- **7741**: That's the heart of the Cardian--a Mana Orb. Without a fully-charged Mana Orb, we cannot cast our special magic on the Cardian to keep them animated.
- **7742**: That's why we leave the job of energizing Mana Orbs with magic to adventurers from Windurst only. These spheres are very important, so they cannot be entrusted to people-weople from other lands.
- **7743**: Here...take these six dark Mana Orbs that have lost their glow.
- **7744**: You are to go to the southeastern magic tower of the Horutoto Ruins in East Sarutabaruta.
- **7745**: That's the only magic tower that's still functioning well enough to energize Mana Orbs.
- **7746**: Ask Pore-Ohre at the Horutoto Ruins to find out how to energize Mana Orbs properly-woperly.
- **7747**: You could find it to be quite a troublesome task, so if you are not quite sure of yourself, ask some of your fellow adventurers for help. Well, good luck and ta-taru!
- **7752**: Ask Pore-Ohre in the southeastern magic tower of the Horutoto Ruins to find out how to energize Mana Orbs properly.
- **7753**: Once you have filled all of the Mana Orbs with magical energy, please bring them back here to me. I'll be waiting for you.
- **7762**: What? Some feral Cardians turned up againy-wainy?
- **7763**: It's quite an embarrassing tale for us at the Manustery, but some of the old Cardians from the war years escaped and went wild...
- **7764**: Those old Cardians carry out such wickedness as stealing Mana Orbs and attacking people.
- **7765**: Mana Orbs are their hearts, remember? So the reason they steal the Mana Orbs is to revive their friends who have run out of magic in their Mana Orbs.
- **7766**: But Mana Orbs are just spheres of magic. Unless there is a mage who can use the Mana Orb and breathe life into the Cardians, they are totally useless.
- **7767**: So even if they are successful in stealing the Mana Orbs, it serves them no purpose...
- **7768**: But I'm glad that you and poor Pore-Ohre are safe. That's the most important thing.
- **7769**: Well, anyway, thank you for all your trouble and hard efforts. Until next time, then, ta-taru...!
- **7770**: I hear that the Cardians who have escaped from our care have been gathering underground in the Horutoto Ruins and plotting bad deeds.
- **7771**: If we leave them aloney-woney, the magic energy in their Mana Orb hearts will run out, and they will return to being nothing more than straw dolls.
- **7772**: But someday I'll have to do something about the problem... Someday...
- **8048**: Hi-diddly-diddly! I am Apururu, the current minister of this Manustery and its Cardian workshop. Nice to meetaru!
- **8049**: This is where we breathe life into the automaton guards that we call Cardians.
- **8050**: You are free to look around, but we ask that you don't go teaching strange things to our newly created Cardians!
- **8062**: I cannot read its model number, but this is one of our children who left our ministry and died somewhere out there...
- **8063**: I think it must have been quite lonely-wonely... Oh, but thank you for bringing this back to us!
- **8064**: I heard about you, adventurer! It seems that you turned out to be quite the hero...
- **8065**: Thank you for saving Windurst...no...for saving our whole world!
- **8066**: By the way...you didn'taru happen to bump into my big brother, Ajido-Marujido, along the way, did you? He dashed out of Windurst by himself, saying, "The time is ripe! You should come along too!"
- **8067**: I no longer care what happens to him. So, if by any chance you do meet up with him, tell him I said he can carry out his crooked-wooked schemey-whemies all by himselfy-welfy! Humph!
- **8084**: Cardians aren't people, you know-whow? They are like dolls made out of all sorts of materials. We place the magic on those dolls that breathes life into them.
- **8085**: But each and every Cardian is an individual. The character of the person who casts the life-giving magic on them is reflected in their personalities, too!
- **8109**: The other day Kopuro-Popuro went and taught one of our Kindercardianers the words "hats suck" and upset old Boizo-Naizo to no end.
- **8110**: Newborn Cardians are just like ordinary people's children, so you have to teach them to use words properly-woperly!
- **8123**: The Cardians of Windurst are dealt out numbers in the order that they are born. When their numerical predecessor breaks down, all the Cardians below him rise in rank to fill out the numbers of a full deck.
- **8124**: So the more Cardians that become run-down or destroyed, the faster the numbers in the names of their successors change.
- **8135**: It is true that the numbers the Cardians are called by change a lot lately, but we should not forget the individual students behind those names.
- **8136**: This facility is different from schools where they teach people how to study-wudy. This is more like a home where we raise children in a loving way.
- **8140**: We're in deep water, everyone!
- **8141**: We're in the red again this week.
- **8142**: And after all of those cutbacks we've been implementing lately, too...
- **8143**: I'd like to ask you all for ideas... How can we get some gil back into the Manustery's coffers?
- **8145**: Legendary-wary?
- **8159**: Hmm... That's the first I've heard of the Legendary Plan B.
- **8160**: I didn't realize our ministry has been this poor for so long! I don't know whether I should take comfort from it, or fall into even further depression...
- **8167**: We're in deep water, everyone!
- **8168**: We have mountains of unsold stock! That means mountains of debt!
- **8169**: Lately adventurers have been culling nocturnal monsters down to controllable levels, so traveling by night isn't as dangerous as it used to be. This means our charms aren't selling at all!
- **8170**: I'm putting an end to Legendary Plan B. Now I've got to calculate how much more in the red we are after that harebrained scheme!
- **8171**: Here...I'll give you one, too. Just get the silly thing out of my sighty-wighty!
- **8177**: Mountains of unsold stock! Mountains of debt!
- **8180**: !!!
- **8182**: Queen hAd a hap-py lifE... Under tHe Blue Skies...!
- **8183**: Queen's Only Re-gret iS Queen oF Dia-monds dId not mAke iT back hEre tOo...!
- **8184**: I understand, Queen of Hearts... Don't you worry about Queen of Diamonds. I'll look after her...
- **8185**: Thank you for a long life of diligent service. Now you can rest in peace, my dear...
- **8186**: I'm sorry for keeping you waiting, adventurer. A life had to return to the stars just now...
- **8187**: She came back all the way here to me, despite her decrepit state...
- **8188**: I'm just glad I was able to say a final farewell...
- **8189**: Well, anyway, adventurer... You surely have traveled the world by now and seen many sad things yourself.
- **8190**: I have a request for one such as you. Please tell me if you happen to find a Cardian named the Queen of Diamonds. I'll pay you $1 gil for information about her whereabouts.
- **8191**: If she's on her way here too, then that can only mean she is seriously hurt as well. Please hurry and find her for me...
- **8192**: I'll pay you $1 gil for information on the whereabouts of a Cardian called the Queen of Diamonds.
- **8193**: If she's on her way here too, then that can only mean she is seriously hurt as well. Please hurry and find her for me...
- **8207**: I cannot read the marking, but this is a part of one of our children who left this ministry and died somewhere out there...
- **8208**: Oh...?
- **8209**: What's that I see on this starfruit?
- **8210**: Look how it glitters so beautifully... And that shape... Why, it almost looks as if it's...
- **8211**: a...
- **8212**: Here. Please show this to Boizo-Naizo.
- **8213**: Please show that starfruit to Boizo-Naizo.
- **8230**: Cardians are life forms born by borrowing the power of the stars. They are just like us--beings with a lifeforce that comes down from the heavens.
- **8231**: So we should never forget... A Cardian's lifeforce is not something we created. We simply called that power down to the earth.
- **8232**: That's why we should send off that life when it leaves the earth, telling it that we hope to meet again.
- **8449**: What...? You've brought a Cardian that you want me to have a looky-wooky at?
- **8450**: I see... Such a misfortunate episode has caused the poor thing to cease functioning.
- **8451**: The Mana Orb--the heart of this Cardian--is still glowing. This is not a mere case of magic energy depletion. This child's heart has been broken-woken.
- **8453**: Feelings are something transmitted between people as they gradually grow older. Cardians also develop by picking up many such feelings but, but...sometimes these feelings can even break them.
- **8454**: This Cardian you brought me was made during the war years, so it has probably felt its fair share of sorrow over its lifetime.
- **8455**: <Sigh>... I wonder if I can heal the poor thingy-wingy?
- **8456**: This is not one of the Cardians that I helped create. But...these poor children are still my responsibility...
- **8457**: I'll... I'll try to re-enchant the magic back into it.
- **8458**: But I'll need help to carry it out. Would you be so good as to assist me?
- **8459**: Help fix the Cardian? [Yes. Anything to help!/Sorry, I can't.]
- **8460**: Thank you for your cooperation. First, I'll need to remove my father's old magic. He was the previous Minister of the Manustery who created this Cardian.
- **8461**: In order to do that, I'll need to pair it off with its opposing Cardian Card--the ten of cups. I only need a single ten of cups card, so could you be so good as to obtain one for me?
- **8462**: Some of the old type of Cardians--who are now malfunctioning and breaking down--run wild in the southwestern parts of the Horutoto Ruins. That would be the best place to search. But please be very careful-wareful!
- **8463**: That's too bady-wady...<sniff>
- **8464**: The Ten of Cups is the opposing card to our poor little Cardian friendy-wiendy. If you bring me $1, I can remove the old magic from him and commence my repairs.
- **8465**: Some of the old-style Cardians that have long malfunctioned run wild in the southwestern parts of the Horutoto Ruins of West Sarutabaruta. Try searching there. But please be very careful-wareful!
- **8472**: Oh, goody-woody! You found it!
- **8473**: Now you can leave the rest to me. You can tell this child's friends back in Jeuno that it will be a little while longer before he's as good as new.
- **8474**: But... I need to wipe his Mana Orb clean in order to begin... I must clean away the memories that broke his heart...
- **8475**: Tell this child's friends back in Jeuno that it won't be much longer before he's as good as new.
- **8476**: I... I need to wipe his Mana Orb clean in order to begin. I must clean away the memories that broke his heart...
- **9427**: ...... I mustaru help my brother...! I havetaru be strong...!
- **9484**: You have my thanks. I'm sure you've heard from the guards how terribly-werribly important this mission is to me.
- **9486**: My brother is a very resilient person. However, the Dark Dungeon is a chamber that drains magical power. To spend this much time in there...
- **9487**: I beg of you! Please help me save him! I know this goes against all the rules, but I have to help my brother!
- **9488**: Help out? [Leave it to me!/It's too risky.]
- **9489**: ...... That's true... But I know you can do it.
- **9491**: I've been researching a way to save my brother.
- **9492**: The chambers that lie beneath the central tower are sealed with the power of the stars and the moon. This means that the doors to those chambers can only be opened with an item imbued with that same power.
- **9493**: The rings carry-warried by the ministers are such items. Every time a minister is appointed, a ring is made and presented to the new minister by Heavens Tower.
- **9494**: After learning this, I took the $3 and set off for the Dark Dungeon...
- **9499**: I won'taru just stand by and let my brother waste away in there! But I can't...the door won't...
- **9505**: ...!
- **9509**: ......
- **9511**: Really, Professor Shantotto? Please tell me what I have to do.
- **9514**: Thank you so much, Professor. I will never forget this.
- **9518**: This is why I need your help. Here... This is my $3.
- **9519**: I know it's a lot to ask, but...please save my brother. I beg of you.
- **9520**: With the rings of the five ministers, I should be able to open the Dark Dungeon. Please gather all five rings and take them to Professor Shantotto.
- **9521**: Please, save Ajido-Marujido. My poor, dear brother...
- **9528**: Of course! I had totarully forgotten. When my brother was arrested, his $3 was confiscated by Heavens Tower...
- **9529**: There's no way Semih Lafihna will just hand it over for no good reason. Maybe if you try talking with Kupipi...
- **9530**: What's that!? The Cardians have chosen a king!? What on Vana'diel are they thinking!?
- **9531**: I understand when Cardians no longer follow the orders of their masters. This happens when the concept of "master" ceases to have meaning to them.
- **9532**: But after this has happened, they shouldn't be taking on a new master. For that to happen...
- **9533**: ...... No. It's not possible!
- **9534**: ...... But putting that aside for the moment, please take the rings to Professor Shantotto in Windurst Walls.
- **9535**: I mustaru apologize, I was a little-bitty distracted by what you told me...
- **9536**: ...Please take the rings to Professor Shantotto in Windurst Walls.
- **9537**: I mustaru apologize, I was a little-bitty distracted by what you told me...
- **9538**: You've completed the preparations for opening the Dark Dungeon!? Wonderful! You have my mostaru heartfelt thanks!
- **9539**: Now, to the Dark Dungeon we go! ...Oh, that won't do. Professor Shantotto said I shouldn't be seen traveling with you.
- **9540**: We'll rendezvous by the door. Please be careful, <Player>.
- **9541**: Now, to the Dark Dungeon we go! ...Oh, that won't do. Professor Shantotto said I shouldn't be seen traveling with you.
- **9542**: We'll rendezvous by the door. Please be careful, <Player>.
- **9543**: <Player>. ...My brother has yet to open his eyes...
- **9544**: Professor Shantotto came to check on his condition, but there was nothing she could do... If he doesn't regain consciousness...
- **9545**: ...... But I must stay strong. Thank you, adventurer.
- **9546**: I will never forget what you have done to help my dear brother.
- **9547**: Oh, and about the $3... Professor Shantotto still...
- **9548**: Well, perhaps you should go and ask the professor.
- **9549**: <Player>. ...My brother has yet to open his eyes...
- **9550**: Professor Shantotto came to check on his condition, but there was nothing she could do... If he doesn't regain consciousness...
- **9560**: You want to talk to me about Mana Orbs? I'm sorry, but I'm up to my earlobes in work at the moment. Could you come back another time?
- **9561**: This is... This is a terribly-werribly old Cardian card...
- **9562**: But there's something strange about it. There's no mark, just this odd-bodd picture. I can't sense any magic from it, either.
- **9563**: How unusual. Ordinarily, Cardian cards are imbued with powerful magic.
- **9564**: The Cardian cards were a creation of my father, the previous Minister of the Manustery. The holder of the card could use it to remove the magic animating the card's respective Cardian.
- **9565**: Do you understand the whammy-ramifications of this? The older Cardians could use the cards in their possession to deactivate other Cardians.
- **9566**: ...My father had essentially made it possible for Cardians to kill each other, just like people can. Isn't that horrible-worrible...?
- **9567**: Ah, forgive me! I seem to have drifted on to a darker topic. Enough of that, back to this card!
- **9568**: This card holds no power over its respective Cardian. Which means it's more than likely just a reject.
- **9569**: Either that...or could it be... This card has no respective Cardian? That would mean that this is a unique card...
- **9570**: <Player>, please let me buy this card off you! I'm sure there's more to this than meets the eye!
- **9581**: Ah, <Player>--my dear brother has finally woken from his coma!
- **9582**: He's right here. Please come with me!
- **9586**: Semih Lafihna!?
- **9592**: I don't think I've ever seen Semih Lafihna in such a tizzy-wizzy.
- **9593**: The Star Sibyl... Ajido-Marujido... I hope they'll be okay...
- **9594**: Goddess! Are you certain? Ajido-Marujido has received a pardon from the Star Sibyl!?
- **9595**: And permission to enter Karaha-Baruha's Animastery... No matter how many times I hear it, I just can'taru believe it...!
- **9597**: Doctor Yoran-Oran!
- **9599**: ...?
- **9600**: Wait, this handwriting...!?
- **9605**: What should I do...? I can't think straightaru. All this time I thought he had died.
- **9606**: Goddess above! My father, alive! I don't know what to do. What should I do, adventurer?
- **9607**: What to do? [We must save him!/Leave him to rot!]
- **9608**: Usually, that would be my firstaru thought, but...
- **9609**: I almostaru wish I could, but...
- **9610**: Could I ask you to help me? I want you to go to the Boyahda Tree and find my father...Zonpa-Zippa.
- **9611**: And when you do find him, if...if he really is alive, I have some questions I want you to ask him. Why did the Cardians rise up against him? Who is this Cardian they have chosen for a king?
- **9612**: Help Apururu? [Leave it to me!/Leave him to rot!]
- **9613**: I'm begging you. I have no desire to see my father again. I don'taru want to end up hating him even more than I do now.
- **9614**: <Player>, thank you for being so understanding!
- **9615**: Ah, one more thing. Please don't tell any of this to my brother. I wouldn't want news of our father to interfere with his importantaru research.
- **9616**: If my father really is alive in the Boyahda Tree, I have some questions I want you to ask him. Why did the Cardians rise up against him? Who is this Cardian they have chosen for a king?
- **9617**: I really should be asking my dear brother's advice on this mattaru, but I wouldn't want news of our father to interfere with his research...
- **9618**: ... I still can'taru believe my father was alive...
- **9619**: Hmm? You have a letter from him? An explanation for the actions of the Cardians?
- **9620**: This is incredible...! Joker was created by the famous Karaha-Baruha...!?
- **9622**: ...Ajido-Marujido!
- **9627**: There's something I don't understand. Who brought the Cardian back to life in the first place? How was this possible?
- **9628**: You need a massive amountaru of magic to restore life to a Cardian. Not to mention the use of forbidden rituals...
- **9638**: <Player>, please go after my brother!
- **9639**: The Full Moon Fountain...! I've got an awfully bad feeling about this!
- **9646**: What happened at the Full Moon Fountain? I wanted to ask my brother, but he hasn't visitarued the Manustery at all lately.
- **9647**: Maybe I should go to the Animastery to talk with him. Something about all this is really giving me the heeber-jeebers...
- **9665**: <Player>, you have the task of gathering the three verses left by the ancient ones, don'taru you?
- **9666**: Ajido-Marujido mentioned Ro'Maeve, the Chamber of Oracles, and The Temple of Uggalepih...I'm pretty sure.
- **9667**: All this talk of ancient peoples and places I've never-ever even heard of... My brother seems to have gained some amazing knowledge.
- **9668**: I'm certain that we'll be able to save the Star Sibyl now that he's back with us. We mustaru play our parts, too.
- **9685**: The magic doll...builtaru by Professor Koru-Moru...
- **9686**: Wearing the $3...made by Doctor Shantotto...
- **9687**: Then have Doctor Yoran-Oran constructaru the seal...
- **9688**: Oh, adventurer! You've brought all three verses!?
- **9689**: It's time then! I mustaru go to Doctor Yoran-Oran's manor and pick up the finished work.
- **9690**: My brother should be waiting in Heavens Tower. Please tell him that I'll be rightaru there!
- **9691**: Adventurer! We mustaru hurry to the Full Moon Fountain!
- **9692**: I have no idea what's going to happen, so we should be prepared for the doom-gloomiest worst. It may come down to a battle with the Bearer of Darkness!
- **9703**: I still can'taru believe it. Everything that happened at the Full Moon Fountain seems so surrealy-weal.
- **9704**: It was so scary-wary, and so heartbreakingly sad. But both my brother and the Star Sibyl have come back to us safely.
- **9705**: There was nothing I could've done by myselfily-welfily, but with everybody's help, we've broughtaru the light back to Windurst!
- **9706**: Thank you, everyone! I'm going to work even harder to make the world a better place for everybody to live in.
- **14009**: What say you? [I'm feeling confident./Well, now that you mention it...]

## Events

### Event 65535

#### Metadata

| Field        | Value   |
|--------------|---------|
| Entrypoint   | 0x0000  |
| Data Size    | 1 bytes |
| Instructions | 1       |

```
      00 01 02 03 04 05 06 07  08 09 0A 0B 0C 0D 0E 0F
      -- -- -- -- -- -- -- --  -- -- -- -- -- -- -- --
0000: 00                                                .               
```

#### Opcodes

```
  0: 0x0000 [0x00] END_REQSTACK()
```

### Event 65535.1

#### Metadata

| Field        | Value    |
|--------------|----------|
| Entrypoint   | 0x0001   |
| Data Size    | 16 bytes |
| Instructions | 2        |

```
      00 01 02 03 04 05 06 07  08 09 0A 0B 0C 0D 0E 0F
      -- -- -- -- -- -- -- --  -- -- -- -- -- -- -- --
0000:    5B 00 80 F8 FF FF 7F  F8 FF FF 7F 74 6C 6B 30   [..........tlk0
0010: 00                                                .               
```

#### Opcodes

```
  0: 0x0001 [0x5B] LOAD_EXT_SCHEDULER: Load scheduler "tlk0" with entities [EventEntity, EventEntity], work=337*
  1: 0x0010 [0x00] END_REQSTACK()
```

### Event 65535.2

#### Metadata

| Field        | Value    |
|--------------|----------|
| Entrypoint   | 0x0011   |
| Data Size    | 22 bytes |
| Instructions | 4        |

```
      00 01 02 03 04 05 06 07  08 09 0A 0B 0C 0D 0E 0F
      -- -- -- -- -- -- -- --  -- -- -- -- -- -- -- --
0010:    53 F8 FF FF 7F F8 FF  FF 7F 74 6C 6B 30 5E 69   S........tlk0^i
0020: 64 6C 30 1C 01 80 00                              dl0....         
```

#### Opcodes

```
  0: 0x0011 [0x53] WAIT_SCHEDULER_TASK: Wait for scheduler "tlk0" with entities [EventEntity, EventEntity]
  1: 0x001E [0x5E] EventEntity goes idle (kills current action) (animation: "idl0")
  2: 0x0023 [0x1C] WAIT(30* ticks)
  3: 0x0026 [0x00] END_REQSTACK()
```

### Event 65535.3

#### Metadata

| Field        | Value    |
|--------------|----------|
| Entrypoint   | 0x0027   |
| Data Size    | 16 bytes |
| Instructions | 2        |

```
      00 01 02 03 04 05 06 07  08 09 0A 0B 0C 0D 0E 0F
      -- -- -- -- -- -- -- --  -- -- -- -- -- -- -- --
0020:                      5B  00 80 F8 FF FF 7F F8 FF         [........
0030: FF 7F 74 68 6B 31 00                              ..thk1.         
```

#### Opcodes

```
  0: 0x0027 [0x5B] LOAD_EXT_SCHEDULER: Load scheduler "thk1" with entities [EventEntity, EventEntity], work=337*
  1: 0x0036 [0x00] END_REQSTACK()
```

### Event 65535.4

#### Metadata

| Field        | Value    |
|--------------|----------|
| Entrypoint   | 0x0037   |
| Data Size    | 14 bytes |
| Instructions | 2        |

```
      00 01 02 03 04 05 06 07  08 09 0A 0B 0C 0D 0E 0F
      -- -- -- -- -- -- -- --  -- -- -- -- -- -- -- --
0030:                      53  F8 FF FF 7F F8 FF FF 7F         S........
0040: 74 68 6B 31 00                                    thk1.           
```

#### Opcodes

```
  0: 0x0037 [0x53] WAIT_SCHEDULER_TASK: Wait for scheduler "thk1" with entities [EventEntity, EventEntity]
  1: 0x0044 [0x00] END_REQSTACK()
```

### Event 65535.5

#### Metadata

| Field        | Value    |
|--------------|----------|
| Entrypoint   | 0x0045   |
| Data Size    | 16 bytes |
| Instructions | 2        |

```
      00 01 02 03 04 05 06 07  08 09 0A 0B 0C 0D 0E 0F
      -- -- -- -- -- -- -- --  -- -- -- -- -- -- -- --
0040:                5B 00 80  F8 FF FF 7F F8 FF FF 7F       [..........
0050: 74 68 6B 32 00                                    thk2.           
```

#### Opcodes

```
  0: 0x0045 [0x5B] LOAD_EXT_SCHEDULER: Load scheduler "thk2" with entities [EventEntity, EventEntity], work=337*
  1: 0x0054 [0x00] END_REQSTACK()
```

### Event 65535.6

#### Metadata

| Field        | Value    |
|--------------|----------|
| Entrypoint   | 0x0055   |
| Data Size    | 14 bytes |
| Instructions | 2        |

```
      00 01 02 03 04 05 06 07  08 09 0A 0B 0C 0D 0E 0F
      -- -- -- -- -- -- -- --  -- -- -- -- -- -- -- --
0050:                53 F8 FF  FF 7F F8 FF FF 7F 74 68       S........th
0060: 6B 32 00                                          k2.             
```

#### Opcodes

```
  0: 0x0055 [0x53] WAIT_SCHEDULER_TASK: Wait for scheduler "thk2" with entities [EventEntity, EventEntity]
  1: 0x0062 [0x00] END_REQSTACK()
```

### Event 65535.7

#### Metadata

| Field        | Value    |
|--------------|----------|
| Entrypoint   | 0x0063   |
| Data Size    | 16 bytes |
| Instructions | 2        |

```
      00 01 02 03 04 05 06 07  08 09 0A 0B 0C 0D 0E 0F
      -- -- -- -- -- -- -- --  -- -- -- -- -- -- -- --
0060:          5B 00 80 F8 FF  FF 7F F8 FF FF 7F 70 6F     [..........po
0070: 69 30 00                                          i0.             
```

#### Opcodes

```
  0: 0x0063 [0x5B] LOAD_EXT_SCHEDULER: Load scheduler "poi0" with entities [EventEntity, EventEntity], work=337*
  1: 0x0072 [0x00] END_REQSTACK()
```

### Event 65535.8

#### Metadata

| Field        | Value    |
|--------------|----------|
| Entrypoint   | 0x0073   |
| Data Size    | 14 bytes |
| Instructions | 2        |

```
      00 01 02 03 04 05 06 07  08 09 0A 0B 0C 0D 0E 0F
      -- -- -- -- -- -- -- --  -- -- -- -- -- -- -- --
0070:          53 F8 FF FF 7F  F8 FF FF 7F 70 6F 69 30     S........poi0
0080: 00                                                .               
```

#### Opcodes

```
  0: 0x0073 [0x53] WAIT_SCHEDULER_TASK: Wait for scheduler "poi0" with entities [EventEntity, EventEntity]
  1: 0x0080 [0x00] END_REQSTACK()
```

### Event 65535.9

#### Metadata

| Field        | Value    |
|--------------|----------|
| Entrypoint   | 0x0081   |
| Data Size    | 16 bytes |
| Instructions | 2        |

```
      00 01 02 03 04 05 06 07  08 09 0A 0B 0C 0D 0E 0F
      -- -- -- -- -- -- -- --  -- -- -- -- -- -- -- --
0080:    5B 00 80 F8 FF FF 7F  F8 FF FF 7F 70 61 73 30   [..........pas0
0090: 00                                                .               
```

#### Opcodes

```
  0: 0x0081 [0x5B] LOAD_EXT_SCHEDULER: Load scheduler "pas0" with entities [EventEntity, EventEntity], work=337*
  1: 0x0090 [0x00] END_REQSTACK()
```

### Event 65535.10

#### Metadata

| Field        | Value    |
|--------------|----------|
| Entrypoint   | 0x0091   |
| Data Size    | 14 bytes |
| Instructions | 2        |

```
      00 01 02 03 04 05 06 07  08 09 0A 0B 0C 0D 0E 0F
      -- -- -- -- -- -- -- --  -- -- -- -- -- -- -- --
0090:    53 F8 FF FF 7F F8 FF  FF 7F 70 61 73 30 00      S........pas0. 
```

#### Opcodes

```
  0: 0x0091 [0x53] WAIT_SCHEDULER_TASK: Wait for scheduler "pas0" with entities [EventEntity, EventEntity]
  1: 0x009E [0x00] END_REQSTACK()
```

### Event 65535.11

#### Metadata

| Field        | Value    |
|--------------|----------|
| Entrypoint   | 0x009F   |
| Data Size    | 16 bytes |
| Instructions | 2        |

```
      00 01 02 03 04 05 06 07  08 09 0A 0B 0C 0D 0E 0F
      -- -- -- -- -- -- -- --  -- -- -- -- -- -- -- --
0090:                                               5B                 [
00A0: 00 80 F8 FF FF 7F F8 FF  FF 7F 69 72 6F 30 00     ..........iro0. 
```

#### Opcodes

```
  0: 0x009F [0x5B] LOAD_EXT_SCHEDULER: Load scheduler "iro0" with entities [EventEntity, EventEntity], work=337*
  1: 0x00AE [0x00] END_REQSTACK()
```

### Event 65535.12

#### Metadata

| Field        | Value    |
|--------------|----------|
| Entrypoint   | 0x00AF   |
| Data Size    | 14 bytes |
| Instructions | 2        |

```
      00 01 02 03 04 05 06 07  08 09 0A 0B 0C 0D 0E 0F
      -- -- -- -- -- -- -- --  -- -- -- -- -- -- -- --
00A0:                                               53                 S
00B0: F8 FF FF 7F F8 FF FF 7F  69 72 6F 30 00           ........iro0.   
```

#### Opcodes

```
  0: 0x00AF [0x53] WAIT_SCHEDULER_TASK: Wait for scheduler "iro0" with entities [EventEntity, EventEntity]
  1: 0x00BC [0x00] END_REQSTACK()
```

### Event 65535.13

#### Metadata

| Field        | Value    |
|--------------|----------|
| Entrypoint   | 0x00BD   |
| Data Size    | 16 bytes |
| Instructions | 2        |

```
      00 01 02 03 04 05 06 07  08 09 0A 0B 0C 0D 0E 0F
      -- -- -- -- -- -- -- --  -- -- -- -- -- -- -- --
00B0:                                         5B 02 80               [..
00C0: F8 FF FF 7F F8 FF FF 7F  67 6D 6E 30 00           ........gmn0.   
```

#### Opcodes

```
  0: 0x00BD [0x5B] LOAD_EXT_SCHEDULER: Load scheduler "gmn0" with entities [EventEntity, EventEntity], work=339*
  1: 0x00CC [0x00] END_REQSTACK()
```

### Event 65535.14

#### Metadata

| Field        | Value    |
|--------------|----------|
| Entrypoint   | 0x00CD   |
| Data Size    | 22 bytes |
| Instructions | 4        |

```
      00 01 02 03 04 05 06 07  08 09 0A 0B 0C 0D 0E 0F
      -- -- -- -- -- -- -- --  -- -- -- -- -- -- -- --
00C0:                                         53 F8 FF               S..
00D0: FF 7F F8 FF FF 7F 67 6D  6E 30 5E 69 64 6C 30 1C  ......gmn0^idl0.
00E0: 01 80 00                                          ...             
```

#### Opcodes

```
  0: 0x00CD [0x53] WAIT_SCHEDULER_TASK: Wait for scheduler "gmn0" with entities [EventEntity, EventEntity]
  1: 0x00DA [0x5E] EventEntity goes idle (kills current action) (animation: "idl0")
  2: 0x00DF [0x1C] WAIT(30* ticks)
  3: 0x00E2 [0x00] END_REQSTACK()
```

### Event 65535.15

#### Metadata

| Field        | Value    |
|--------------|----------|
| Entrypoint   | 0x00E3   |
| Data Size    | 16 bytes |
| Instructions | 2        |

```
      00 01 02 03 04 05 06 07  08 09 0A 0B 0C 0D 0E 0F
      -- -- -- -- -- -- -- --  -- -- -- -- -- -- -- --
00E0:          5B 02 80 F8 FF  FF 7F F8 FF FF 7F 73 68     [..........sh
00F0: 6B 30 00                                          k0.             
```

#### Opcodes

```
  0: 0x00E3 [0x5B] LOAD_EXT_SCHEDULER: Load scheduler "shk0" with entities [EventEntity, EventEntity], work=339*
  1: 0x00F2 [0x00] END_REQSTACK()
```

### Event 65535.16

#### Metadata

| Field        | Value    |
|--------------|----------|
| Entrypoint   | 0x00F3   |
| Data Size    | 14 bytes |
| Instructions | 2        |

```
      00 01 02 03 04 05 06 07  08 09 0A 0B 0C 0D 0E 0F
      -- -- -- -- -- -- -- --  -- -- -- -- -- -- -- --
00F0:          53 F8 FF FF 7F  F8 FF FF 7F 73 68 6B 30     S........shk0
0100: 00                                                .               
```

#### Opcodes

```
  0: 0x00F3 [0x53] WAIT_SCHEDULER_TASK: Wait for scheduler "shk0" with entities [EventEntity, EventEntity]
  1: 0x0100 [0x00] END_REQSTACK()
```

### Event 65535.17

#### Metadata

| Field        | Value    |
|--------------|----------|
| Entrypoint   | 0x0101   |
| Data Size    | 16 bytes |
| Instructions | 2        |

```
      00 01 02 03 04 05 06 07  08 09 0A 0B 0C 0D 0E 0F
      -- -- -- -- -- -- -- --  -- -- -- -- -- -- -- --
0100:    5B 03 80 F8 FF FF 7F  F8 FF FF 7F 62 69 6B 30   [..........bik0
0110: 00                                                .               
```

#### Opcodes

```
  0: 0x0101 [0x5B] LOAD_EXT_SCHEDULER: Load scheduler "bik0" with entities [EventEntity, EventEntity], work=341*
  1: 0x0110 [0x00] END_REQSTACK()
```

### Event 65535.18

#### Metadata

| Field        | Value    |
|--------------|----------|
| Entrypoint   | 0x0111   |
| Data Size    | 22 bytes |
| Instructions | 4        |

```
      00 01 02 03 04 05 06 07  08 09 0A 0B 0C 0D 0E 0F
      -- -- -- -- -- -- -- --  -- -- -- -- -- -- -- --
0110:    53 F8 FF FF 7F F8 FF  FF 7F 62 69 6B 30 5E 69   S........bik0^i
0120: 64 6C 30 1C 01 80 00                              dl0....         
```

#### Opcodes

```
  0: 0x0111 [0x53] WAIT_SCHEDULER_TASK: Wait for scheduler "bik0" with entities [EventEntity, EventEntity]
  1: 0x011E [0x5E] EventEntity goes idle (kills current action) (animation: "idl0")
  2: 0x0123 [0x1C] WAIT(30* ticks)
  3: 0x0126 [0x00] END_REQSTACK()
```

### Event 65535.19

#### Metadata

| Field        | Value    |
|--------------|----------|
| Entrypoint   | 0x0127   |
| Data Size    | 16 bytes |
| Instructions | 2        |

```
      00 01 02 03 04 05 06 07  08 09 0A 0B 0C 0D 0E 0F
      -- -- -- -- -- -- -- --  -- -- -- -- -- -- -- --
0120:                      5B  00 80 F8 FF FF 7F F8 FF         [........
0130: FF 7F 67 6B 72 30 00                              ..gkr0.         
```

#### Opcodes

```
  0: 0x0127 [0x5B] LOAD_EXT_SCHEDULER: Load scheduler "gkr0" with entities [EventEntity, EventEntity], work=337*
  1: 0x0136 [0x00] END_REQSTACK()
```

### Event 65535.20

#### Metadata

| Field        | Value    |
|--------------|----------|
| Entrypoint   | 0x0137   |
| Data Size    | 22 bytes |
| Instructions | 4        |

```
      00 01 02 03 04 05 06 07  08 09 0A 0B 0C 0D 0E 0F
      -- -- -- -- -- -- -- --  -- -- -- -- -- -- -- --
0130:                      53  F8 FF FF 7F F8 FF FF 7F         S........
0140: 67 6B 72 30 5E 69 64 6C  30 1C 01 80 00           gkr0^idl0....   
```

#### Opcodes

```
  0: 0x0137 [0x53] WAIT_SCHEDULER_TASK: Wait for scheduler "gkr0" with entities [EventEntity, EventEntity]
  1: 0x0144 [0x5E] EventEntity goes idle (kills current action) (animation: "idl0")
  2: 0x0149 [0x1C] WAIT(30* ticks)
  3: 0x014C [0x00] END_REQSTACK()
```

### Event 65535.21

#### Metadata

| Field        | Value   |
|--------------|---------|
| Entrypoint   | 0x014D  |
| Data Size    | 9 bytes |
| Instructions | 3       |

```
      00 01 02 03 04 05 06 07  08 09 0A 0B 0C 0D 0E 0F
      -- -- -- -- -- -- -- --  -- -- -- -- -- -- -- --
0140:                                         5E 69 64               ^id
0150: 6C 30 1C 01 80 00                                 l0....          
```

#### Opcodes

```
  0: 0x014D [0x5E] EventEntity goes idle (kills current action) (animation: "idl0")
  1: 0x0152 [0x1C] WAIT(30* ticks)
  2: 0x0155 [0x00] END_REQSTACK()
```

### Event 65535.22

#### Metadata

| Field        | Value    |
|--------------|----------|
| Entrypoint   | 0x0156   |
| Data Size    | 16 bytes |
| Instructions | 2        |

```
      00 01 02 03 04 05 06 07  08 09 0A 0B 0C 0D 0E 0F
      -- -- -- -- -- -- -- --  -- -- -- -- -- -- -- --
0150:                   5B 04  80 F8 FF FF 7F F8 FF FF        [.........
0160: 7F 6D 67 69 30 00                                 .mgi0.          
```

#### Opcodes

```
  0: 0x0156 [0x5B] LOAD_EXT_SCHEDULER: Load scheduler "mgi0" with entities [EventEntity, EventEntity], work=54*
  1: 0x0165 [0x00] END_REQSTACK()
```

### Event 65535.23

#### Metadata

| Field        | Value    |
|--------------|----------|
| Entrypoint   | 0x0166   |
| Data Size    | 14 bytes |
| Instructions | 2        |

```
      00 01 02 03 04 05 06 07  08 09 0A 0B 0C 0D 0E 0F
      -- -- -- -- -- -- -- --  -- -- -- -- -- -- -- --
0160:                   53 F8  FF FF 7F F8 FF FF 7F 6D        S........m
0170: 67 69 30 00                                       gi0.            
```

#### Opcodes

```
  0: 0x0166 [0x53] WAIT_SCHEDULER_TASK: Wait for scheduler "mgi0" with entities [EventEntity, EventEntity]
  1: 0x0173 [0x00] END_REQSTACK()
```

### Event 65535.24

#### Metadata

| Field        | Value    |
|--------------|----------|
| Entrypoint   | 0x0174   |
| Data Size    | 16 bytes |
| Instructions | 2        |

```
      00 01 02 03 04 05 06 07  08 09 0A 0B 0C 0D 0E 0F
      -- -- -- -- -- -- -- --  -- -- -- -- -- -- -- --
0170:             5B 04 80 F8  FF FF 7F F8 FF FF 7F 6D      [..........m
0180: 67 69 31 00                                       gi1.            
```

#### Opcodes

```
  0: 0x0174 [0x5B] LOAD_EXT_SCHEDULER: Load scheduler "mgi1" with entities [EventEntity, EventEntity], work=54*
  1: 0x0183 [0x00] END_REQSTACK()
```

### Event 65535.25

#### Metadata

| Field        | Value    |
|--------------|----------|
| Entrypoint   | 0x0184   |
| Data Size    | 14 bytes |
| Instructions | 2        |

```
      00 01 02 03 04 05 06 07  08 09 0A 0B 0C 0D 0E 0F
      -- -- -- -- -- -- -- --  -- -- -- -- -- -- -- --
0180:             53 F8 FF FF  7F F8 FF FF 7F 6D 67 69      S........mgi
0190: 31 00                                             1.              
```

#### Opcodes

```
  0: 0x0184 [0x53] WAIT_SCHEDULER_TASK: Wait for scheduler "mgi1" with entities [EventEntity, EventEntity]
  1: 0x0191 [0x00] END_REQSTACK()
```

### Event 274

#### Metadata

| Field        | Value    |
|--------------|----------|
| Entrypoint   | 0x0192   |
| Data Size    | 37 bytes |
| Instructions | 14       |

```
      00 01 02 03 04 05 06 07  08 09 0A 0B 0C 0D 0E 0F
      -- -- -- -- -- -- -- --  -- -- -- -- -- -- -- --
0190:       1E F0 FF FF 7F 6F  70 29 08 14 10 0F 01 01    .....op)......
01A0: 1D 05 80 23 1D 06 80 23  1D 07 80 23 29 08 14 10  ...#...#...#)...
01B0: 0F 01 02 20 00 21 00                              ... .!.         
```

#### Opcodes

```
  0: 0x0192 [0x1E] EventEntity looks at LocalPlayer and starts talking
  1: 0x0197 [0x6F] WAIT_FRAME_DELAY: Yield until WaitTime reaches zero
  2: 0x0198 [0x70] WAIT_ENTITY_RENDER_FLAG: Wait while EventEntity->Render.Flags3 bit 2 is set (cancel turn if not)
  3: 0x0199 [0x29] REQ_SET_WAIT(priority=0x08, entity_id=Apururu (ID: 17764372/0x010F1014), tag_num=0x01)
  4: 0x01A0 [0x1D] PRINT_EVENT_MESSAGE(message_id=8048*)
     "Hi-diddly-diddly! I am Apururu, the current minister of this Manustery and its Cardian workshop. Nice to meetaru!"
  5: 0x01A3 [0x23] WAIT_FOR_DIALOG_INTERACTION
  6: 0x01A4 [0x1D] PRINT_EVENT_MESSAGE(message_id=8049*)
     "This is where we breathe life into the automaton guards that we call Cardians."
  7: 0x01A7 [0x23] WAIT_FOR_DIALOG_INTERACTION
  8: 0x01A8 [0x1D] PRINT_EVENT_MESSAGE(message_id=8050*)
     "You are free to look around, but we ask that you don't go teaching strange things to our newly created Cardians!"
  9: 0x01AB [0x23] WAIT_FOR_DIALOG_INTERACTION
 10: 0x01AC [0x29] REQ_SET_WAIT(priority=0x08, entity_id=Apururu (ID: 17764372/0x010F1014), tag_num=0x02)
 11: 0x01B3 [0x20] SET_CLI_EVENT_UC_FLAG: Unlock player control
 12: 0x01B5 [0x21] END_EVENT
 13: 0x01B6 [0x00] END_REQSTACK()
```

### Event 283

#### Metadata

| Field        | Value    |
|--------------|----------|
| Entrypoint   | 0x01B7   |
| Data Size    | 33 bytes |
| Instructions | 12       |

```
      00 01 02 03 04 05 06 07  08 09 0A 0B 0C 0D 0E 0F
      -- -- -- -- -- -- -- --  -- -- -- -- -- -- -- --
01B0:                      1E  F0 FF FF 7F 6F 70 29 08         .....op).
01C0: 14 10 0F 01 01 1D 08 80  23 1D 09 80 23 29 08 14  ........#...#)..
01D0: 10 0F 01 02 20 00 21 00                           .... .!.        
```

#### Opcodes

```
  0: 0x01B7 [0x1E] EventEntity looks at LocalPlayer and starts talking
  1: 0x01BC [0x6F] WAIT_FRAME_DELAY: Yield until WaitTime reaches zero
  2: 0x01BD [0x70] WAIT_ENTITY_RENDER_FLAG: Wait while EventEntity->Render.Flags3 bit 2 is set (cancel turn if not)
  3: 0x01BE [0x29] REQ_SET_WAIT(priority=0x08, entity_id=Apururu (ID: 17764372/0x010F1014), tag_num=0x01)
  4: 0x01C5 [0x1D] PRINT_EVENT_MESSAGE(message_id=8062*)
     "I cannot read its model number, but this is one of our children who left our ministry and died somewhere out there..."
  5: 0x01C8 [0x23] WAIT_FOR_DIALOG_INTERACTION
  6: 0x01C9 [0x1D] PRINT_EVENT_MESSAGE(message_id=8063*)
     "I think it must have been quite lonely-wonely... Oh, but thank you for bringing this back to us!"
  7: 0x01CC [0x23] WAIT_FOR_DIALOG_INTERACTION
  8: 0x01CD [0x29] REQ_SET_WAIT(priority=0x08, entity_id=Apururu (ID: 17764372/0x010F1014), tag_num=0x02)
  9: 0x01D4 [0x20] SET_CLI_EVENT_UC_FLAG: Unlock player control
 10: 0x01D6 [0x21] END_EVENT
 11: 0x01D7 [0x00] END_REQSTACK()
```

### Event 284

#### Metadata

| Field        | Value    |
|--------------|----------|
| Entrypoint   | 0x01D8   |
| Data Size    | 69 bytes |
| Instructions | 20       |

```
      00 01 02 03 04 05 06 07  08 09 0A 0B 0C 0D 0E 0F
      -- -- -- -- -- -- -- --  -- -- -- -- -- -- -- --
01D0:                          1E F0 FF FF 7F 6F 70 29          .....op)
01E0: 08 14 10 0F 01 0D 1D 0A  80 23 1D 0B 80 23 29 08  .........#...#).
01F0: 14 10 0F 01 0E 29 08 14  10 0F 01 03 1D 0C 80 23  .....).........#
0200: 29 08 14 10 0F 01 04 29  08 14 10 0F 01 05 1D 0D  )......)........
0210: 80 23 29 08 14 10 0F 01  06 20 00 21 00           .#)...... .!.   
```

#### Opcodes

```
  0: 0x01D8 [0x1E] EventEntity looks at LocalPlayer and starts talking
  1: 0x01DD [0x6F] WAIT_FRAME_DELAY: Yield until WaitTime reaches zero
  2: 0x01DE [0x70] WAIT_ENTITY_RENDER_FLAG: Wait while EventEntity->Render.Flags3 bit 2 is set (cancel turn if not)
  3: 0x01DF [0x29] REQ_SET_WAIT(priority=0x08, entity_id=Apururu (ID: 17764372/0x010F1014), tag_num=0x0D)
  4: 0x01E6 [0x1D] PRINT_EVENT_MESSAGE(message_id=8064*)
     "I heard about you, adventurer! It seems that you turned out to be quite the hero..."
  5: 0x01E9 [0x23] WAIT_FOR_DIALOG_INTERACTION
  6: 0x01EA [0x1D] PRINT_EVENT_MESSAGE(message_id=8065*)
     "Thank you for saving Windurst...no...for saving our whole world!"
  7: 0x01ED [0x23] WAIT_FOR_DIALOG_INTERACTION
  8: 0x01EE [0x29] REQ_SET_WAIT(priority=0x08, entity_id=Apururu (ID: 17764372/0x010F1014), tag_num=0x0E)
  9: 0x01F5 [0x29] REQ_SET_WAIT(priority=0x08, entity_id=Apururu (ID: 17764372/0x010F1014), tag_num=0x03)
 10: 0x01FC [0x1D] PRINT_EVENT_MESSAGE(message_id=8066*)
     "By the way...you didn'taru happen to bump into my big brother, Ajido-Marujido, along the way, did you? He dashed out of Windurst by himself, saying, "The time is ripe! You should come along too!""
 11: 0x01FF [0x23] WAIT_FOR_DIALOG_INTERACTION
 12: 0x0200 [0x29] REQ_SET_WAIT(priority=0x08, entity_id=Apururu (ID: 17764372/0x010F1014), tag_num=0x04)
 13: 0x0207 [0x29] REQ_SET_WAIT(priority=0x08, entity_id=Apururu (ID: 17764372/0x010F1014), tag_num=0x05)
 14: 0x020E [0x1D] PRINT_EVENT_MESSAGE(message_id=8067*)
     "I no longer care what happens to him. So, if by any chance you do meet up with him, tell him I said he can carry out his crooked-wooked schemey-whemies all by himselfy-welfy! Humph!"
 15: 0x0211 [0x23] WAIT_FOR_DIALOG_INTERACTION
 16: 0x0212 [0x29] REQ_SET_WAIT(priority=0x08, entity_id=Apururu (ID: 17764372/0x010F1014), tag_num=0x06)
 17: 0x0219 [0x20] SET_CLI_EVENT_UC_FLAG: Unlock player control
 18: 0x021B [0x21] END_EVENT
 19: 0x021C [0x00] END_REQSTACK()
```

### Event 137

#### Metadata

| Field        | Value     |
|--------------|-----------|
| Entrypoint   | 0x021D    |
| Data Size    | 382 bytes |
| Instructions | 48        |

```
      00 01 02 03 04 05 06 07  08 09 0A 0B 0C 0D 0E 0F
      -- -- -- -- -- -- -- --  -- -- -- -- -- -- -- --
0210:                                         46 01 42               F.B
0220: 1E F0 FF FF 7F 6F 70 45  0E 80 F8 FF FF 7F F8 FF  .....opE........
0230: FF 7F 66 64 6F 31 0F 80  1C 10 80 75 00 11 80 75  ..fdo1.....u...u
0240: 01 38 12 80 29 0B F0 FF  FF 7F 2C 4E 01 F0 FF FF  .8..).....,N....
0250: 7F 4A F0 FF FF 7F 14 10  0F 01 1E F0 FF FF 7F 6F  .J.............o
0260: 70 45 13 80 F8 FF FF 7F  F8 FF FF 7F 73 30 36 39  pE..........s069
0270: 0F 80 45 0E 80 F8 FF FF  7F F8 FF FF 7F 66 64 69  ..E..........fdi
0280: 31 0F 80 29 0B 14 10 0F  01 1E 45 13 80 F8 FF FF  1..)......E.....
0290: 7F F8 FF FF 7F 73 30 36  31 0F 80 4E 00 F0 FF FF  .....s061..N....
02A0: 7F 29 0B 14 10 0F 01 1F  52 13 80 F8 FF FF 7F F8  .)......R.......
02B0: FF FF 7F 73 30 36 31 4E  01 F0 FF FF 7F 45 13 80  ...s061N.....E..
02C0: F8 FF FF 7F F8 FF FF 7F  73 30 36 39 0F 80 29 0B  ........s069..).
02D0: 14 10 0F 01 20 45 13 80  F8 FF FF 7F F8 FF FF 7F  .... E..........
02E0: 73 30 37 30 0F 80 4E 00  F0 FF FF 7F 29 0B 14 10  s070..N.....)...
02F0: 0F 01 21 29 0B 14 10 0F  01 22 52 13 80 F8 FF FF  ..!)....."R.....
0300: 7F F8 FF FF 7F 73 30 37  30 45 0E 80 F8 FF FF 7F  .....s070E......
0310: F8 FF FF 7F 66 64 6F 31  0F 80 1C 10 80 45 13 80  ....fdo1.....E..
0320: F8 FF FF 7F F8 FF FF 7F  73 30 37 31 0F 80 4E 00  ........s071..N.
0330: F0 FF FF 7F 45 0E 80 F8  FF FF 7F F8 FF FF 7F 66  ....E..........f
0340: 64 69 31 0F 80 29 0B 14  10 0F 01 23 4E 01 F0 FF  di1..).....#N...
0350: FF 7F 45 13 80 F8 FF FF  7F F8 FF FF 7F 73 30 36  ..E..........s06
0360: 39 0F 80 29 0B 14 10 0F  01 24 45 0E 80 F8 FF FF  9..).....$E.....
0370: 7F F8 FF FF 7F 66 64 6F  31 0F 80 1C 10 80 4E 00  .....fdo1.....N.
0380: F0 FF FF 7F 46 00 45 0E  80 F8 FF FF 7F F8 FF FF  ....F.E.........
0390: 7F 66 64 69 31 0F 80 20  00 21 00                 .fdi1.. .!.     
```

#### Opcodes

```
  0: 0x021D [0x46] CAMERA_CONTROL: Disable user control
  1: 0x021F [0x42] SET_CLI_EVENT_CANCEL_DATA()
  2: 0x0220 [0x1E] EventEntity looks at LocalPlayer and starts talking
  3: 0x0225 [0x6F] WAIT_FRAME_DELAY: Yield until WaitTime reaches zero
  4: 0x0226 [0x70] WAIT_ENTITY_RENDER_FLAG: Wait while EventEntity->Render.Flags3 bit 2 is set (cancel turn if not)
  5: 0x0227 [0x45] LOAD_SCHEDULED_TASK: Load scheduler "fdo1" with entities [EventEntity, EventEntity], work=[200*, 0*]
  6: 0x0238 [0x1C] WAIT(60* ticks)
  7: 0x023B [0x75] LOAD_ROOM(Load indoor room, room=423*)
  8: 0x023F [0x75] LOAD_ROOM(No action)
  9: 0x0241 [0x38] SET_CLIENT_EVENT_MODE(mode=3*)
 10: 0x0244 [0x29] REQ_SET_WAIT(priority=0x0B, entity_id=LocalPlayer, tag_num=0x2C)
 11: 0x024B [0x4E] SET_ENTITY_HIDE_FLAG: Hide LocalPlayer
 12: 0x0251 [0x4A] LocalPlayer looks at Apururu (ID: 17764372/0x010F1014)
 13: 0x025A [0x1E] EventEntity looks at LocalPlayer and starts talking
 14: 0x025F [0x6F] WAIT_FRAME_DELAY: Yield until WaitTime reaches zero
 15: 0x0260 [0x70] WAIT_ENTITY_RENDER_FLAG: Wait while EventEntity->Render.Flags3 bit 2 is set (cancel turn if not)
 16: 0x0261 [0x45] LOAD_SCHEDULED_TASK: Load scheduler "s069" with entities [EventEntity, EventEntity], work=[141*, 0*]
 17: 0x0272 [0x45] LOAD_SCHEDULED_TASK: Load scheduler "fdi1" with entities [EventEntity, EventEntity], work=[200*, 0*]
 18: 0x0283 [0x29] REQ_SET_WAIT(priority=0x0B, entity_id=Apururu (ID: 17764372/0x010F1014), tag_num=0x1E)
 19: 0x028A [0x45] LOAD_SCHEDULED_TASK: Load scheduler "s061" with entities [EventEntity, EventEntity], work=[141*, 0*]
 20: 0x029B [0x4E] SET_ENTITY_HIDE_FLAG: Show LocalPlayer
 21: 0x02A1 [0x29] REQ_SET_WAIT(priority=0x0B, entity_id=Apururu (ID: 17764372/0x010F1014), tag_num=0x1F)
 22: 0x02A8 [0x52] END_LOAD_SCHEDULER: End scheduler "s061" with entities [EventEntity, EventEntity], work=141*
 23: 0x02B7 [0x4E] SET_ENTITY_HIDE_FLAG: Hide LocalPlayer
 24: 0x02BD [0x45] LOAD_SCHEDULED_TASK: Load scheduler "s069" with entities [EventEntity, EventEntity], work=[141*, 0*]
 25: 0x02CE [0x29] REQ_SET_WAIT(priority=0x0B, entity_id=Apururu (ID: 17764372/0x010F1014), tag_num=0x20)
 26: 0x02D5 [0x45] LOAD_SCHEDULED_TASK: Load scheduler "s070" with entities [EventEntity, EventEntity], work=[141*, 0*]
 27: 0x02E6 [0x4E] SET_ENTITY_HIDE_FLAG: Show LocalPlayer
 28: 0x02EC [0x29] REQ_SET_WAIT(priority=0x0B, entity_id=Apururu (ID: 17764372/0x010F1014), tag_num=0x21)
 29: 0x02F3 [0x29] REQ_SET_WAIT(priority=0x0B, entity_id=Apururu (ID: 17764372/0x010F1014), tag_num=0x22)
 30: 0x02FA [0x52] END_LOAD_SCHEDULER: End scheduler "s070" with entities [EventEntity, EventEntity], work=141*
 31: 0x0309 [0x45] LOAD_SCHEDULED_TASK: Load scheduler "fdo1" with entities [EventEntity, EventEntity], work=[200*, 0*]
 32: 0x031A [0x1C] WAIT(60* ticks)
 33: 0x031D [0x45] LOAD_SCHEDULED_TASK: Load scheduler "s071" with entities [EventEntity, EventEntity], work=[141*, 0*]
 34: 0x032E [0x4E] SET_ENTITY_HIDE_FLAG: Show LocalPlayer
 35: 0x0334 [0x45] LOAD_SCHEDULED_TASK: Load scheduler "fdi1" with entities [EventEntity, EventEntity], work=[200*, 0*]
 36: 0x0345 [0x29] REQ_SET_WAIT(priority=0x0B, entity_id=Apururu (ID: 17764372/0x010F1014), tag_num=0x23)
 37: 0x034C [0x4E] SET_ENTITY_HIDE_FLAG: Hide LocalPlayer
 38: 0x0352 [0x45] LOAD_SCHEDULED_TASK: Load scheduler "s069" with entities [EventEntity, EventEntity], work=[141*, 0*]
 39: 0x0363 [0x29] REQ_SET_WAIT(priority=0x0B, entity_id=Apururu (ID: 17764372/0x010F1014), tag_num=0x24)
 40: 0x036A [0x45] LOAD_SCHEDULED_TASK: Load scheduler "fdo1" with entities [EventEntity, EventEntity], work=[200*, 0*]
 41: 0x037B [0x1C] WAIT(60* ticks)
 42: 0x037E [0x4E] SET_ENTITY_HIDE_FLAG: Show LocalPlayer
 43: 0x0384 [0x46] CAMERA_CONTROL: Restore default settings
 44: 0x0386 [0x45] LOAD_SCHEDULED_TASK: Load scheduler "fdi1" with entities [EventEntity, EventEntity], work=[200*, 0*]
 45: 0x0397 [0x20] SET_CLI_EVENT_UC_FLAG: Unlock player control
 46: 0x0399 [0x21] END_EVENT
 47: 0x039A [0x00] END_REQSTACK()
```

### Event 65535.26

#### Metadata

| Field        | Value    |
|--------------|----------|
| Entrypoint   | 0x039B   |
| Data Size    | 23 bytes |
| Instructions | 7        |

```
      00 01 02 03 04 05 06 07  08 09 0A 0B 0C 0D 0E 0F
      -- -- -- -- -- -- -- --  -- -- -- -- -- -- -- --
0390:                                   29 08 14 10 0F             )....
03A0: 01 01 1D 14 80 23 1D 15  80 23 29 08 14 10 0F 01  .....#...#).....
03B0: 02 00                                             ..              
```

#### Opcodes

```
  0: 0x039B [0x29] REQ_SET_WAIT(priority=0x08, entity_id=Apururu (ID: 17764372/0x010F1014), tag_num=0x01)
  1: 0x03A2 [0x1D] PRINT_EVENT_MESSAGE(message_id=7734*)
     "Hello-ello! And you are... Oh, the volunteer to help us out with my Manustery's little mission, rightaru?"
  2: 0x03A5 [0x23] WAIT_FOR_DIALOG_INTERACTION
  3: 0x03A6 [0x1D] PRINT_EVENT_MESSAGE(message_id=7735*)
     "Very nice of you to have come. My name is Apururu. I'm the Minister of the Manustery, and head of this Cardian workshop."
  4: 0x03A9 [0x23] WAIT_FOR_DIALOG_INTERACTION
  5: 0x03AA [0x29] REQ_SET_WAIT(priority=0x08, entity_id=Apururu (ID: 17764372/0x010F1014), tag_num=0x02)
  6: 0x03B1 [0x00] END_REQSTACK()
```

### Event 65535.27

#### Metadata

| Field        | Value    |
|--------------|----------|
| Entrypoint   | 0x03B2   |
| Data Size    | 29 bytes |
| Instructions | 8        |

```
      00 01 02 03 04 05 06 07  08 09 0A 0B 0C 0D 0E 0F
      -- -- -- -- -- -- -- --  -- -- -- -- -- -- -- --
03B0:       29 08 14 10 0F 01  03 1D 16 80 23 27 08 14    ).........#'..
03C0: 10 0F 01 05 1D 17 80 23  2A 08 14 10 0F 01 00     .......#*...... 
```

#### Opcodes

```
  0: 0x03B2 [0x29] REQ_SET_WAIT(priority=0x08, entity_id=Apururu (ID: 17764372/0x010F1014), tag_num=0x03)
  1: 0x03B9 [0x1D] PRINT_EVENT_MESSAGE(message_id=7736*)
     "But first, I should give you a rundown of what the Manustery is all about, I s'pose."
  2: 0x03BC [0x23] WAIT_FOR_DIALOG_INTERACTION
  3: 0x03BD [0x27] REQ_SET(priority=0x08, entity_id=Apururu (ID: 17764372/0x010F1014), tag_num=0x05)
  4: 0x03C4 [0x1D] PRINT_EVENT_MESSAGE(message_id=7737*)
     "The Manustery is the ministry in charge of the production of automaton guards, otherwise known as Cardians. As far as military might goes, our Cardians are second only to the Orastery's War Warlocks."
  5: 0x03C7 [0x23] WAIT_FOR_DIALOG_INTERACTION
  6: 0x03C8 [0x2A] GET_REQ_LEVEL(level=8, entity_id=Apururu (ID: 17764372/0x010F1014))
  7: 0x03CE [0x00] END_REQSTACK()
```

### Event 65535.28

#### Metadata

| Field        | Value    |
|--------------|----------|
| Entrypoint   | 0x03CF   |
| Data Size    | 23 bytes |
| Instructions | 7        |

```
      00 01 02 03 04 05 06 07  08 09 0A 0B 0C 0D 0E 0F
      -- -- -- -- -- -- -- --  -- -- -- -- -- -- -- --
03C0:                                               29                 )
03D0: 08 14 10 0F 01 01 1D 18  80 23 1D 19 80 23 29 08  .........#...#).
03E0: 14 10 0F 01 02 00                                 ......          
```

#### Opcodes

```
  0: 0x03CF [0x29] REQ_SET_WAIT(priority=0x08, entity_id=Apururu (ID: 17764372/0x010F1014), tag_num=0x01)
  1: 0x03D6 [0x1D] PRINT_EVENT_MESSAGE(message_id=7738*)
     "Have you ever tried speaking to those doll-like beings that answer back in the words of the stars? Well, they are our Cardians!"
  2: 0x03D9 [0x23] WAIT_FOR_DIALOG_INTERACTION
  3: 0x03DA [0x1D] PRINT_EVENT_MESSAGE(message_id=7739*)
     "We cast a special kind of magic on a doll made of straw, cloth, and other stuff--that's what gives life to a Cardian."
  4: 0x03DD [0x23] WAIT_FOR_DIALOG_INTERACTION
  5: 0x03DE [0x29] REQ_SET_WAIT(priority=0x08, entity_id=Apururu (ID: 17764372/0x010F1014), tag_num=0x02)
  6: 0x03E5 [0x00] END_REQSTACK()
```

### Event 65535.29

#### Metadata

| Field        | Value    |
|--------------|----------|
| Entrypoint   | 0x03E6   |
| Data Size    | 12 bytes |
| Instructions | 4        |

```
      00 01 02 03 04 05 06 07  08 09 0A 0B 0C 0D 0E 0F
      -- -- -- -- -- -- -- --  -- -- -- -- -- -- -- --
03E0:                   29 08  14 10 0F 01 01 1D 1A 80        ).........
03F0: 23 00                                             #.              
```

#### Opcodes

```
  0: 0x03E6 [0x29] REQ_SET_WAIT(priority=0x08, entity_id=Apururu (ID: 17764372/0x010F1014), tag_num=0x01)
  1: 0x03ED [0x1D] PRINT_EVENT_MESSAGE(message_id=7740*)
     "We ask traveling merchants or adventurers to provide us with most of the materials we need to make Cardians. But there is one essential material we can't just ask anyone to provide us with..."
  2: 0x03F0 [0x23] WAIT_FOR_DIALOG_INTERACTION
  3: 0x03F1 [0x00] END_REQSTACK()
```

### Event 65535.30

#### Metadata

| Field        | Value    |
|--------------|----------|
| Entrypoint   | 0x03F2   |
| Data Size    | 16 bytes |
| Instructions | 6        |

```
      00 01 02 03 04 05 06 07  08 09 0A 0B 0C 0D 0E 0F
      -- -- -- -- -- -- -- --  -- -- -- -- -- -- -- --
03F0:       1D 1B 80 23 1D 1C  80 23 29 08 14 10 0F 01    ...#...#).....
0400: 02 00                                             ..              
```

#### Opcodes

```
  0: 0x03F2 [0x1D] PRINT_EVENT_MESSAGE(message_id=7741*)
     "That's the heart of the Cardian--a Mana Orb. Without a fully-charged Mana Orb, we cannot cast our special magic on the Cardian to keep them animated."
  1: 0x03F5 [0x23] WAIT_FOR_DIALOG_INTERACTION
  2: 0x03F6 [0x1D] PRINT_EVENT_MESSAGE(message_id=7742*)
     "That's why we leave the job of energizing Mana Orbs with magic to adventurers from Windurst only. These spheres are very important, so they cannot be entrusted to people-weople from other lands."
  3: 0x03F9 [0x23] WAIT_FOR_DIALOG_INTERACTION
  4: 0x03FA [0x29] REQ_SET_WAIT(priority=0x08, entity_id=Apururu (ID: 17764372/0x010F1014), tag_num=0x02)
  5: 0x0401 [0x00] END_REQSTACK()
```

### Event 65535.31

#### Metadata

| Field        | Value    |
|--------------|----------|
| Entrypoint   | 0x0402   |
| Data Size    | 47 bytes |
| Instructions | 12       |

```
      00 01 02 03 04 05 06 07  08 09 0A 0B 0C 0D 0E 0F
      -- -- -- -- -- -- -- --  -- -- -- -- -- -- -- --
0400:       29 08 14 10 0F 01  09 1D 1D 80 23 29 08 14    ).........#)..
0410: 10 0F 01 0A 29 08 14 10  0F 01 07 1D 1E 80 23 27  ....).........#'
0420: 08 14 10 0F 01 08 1D 1F  80 23 2A 08 14 10 0F 01  .........#*.....
0430: 00                                                .               
```

#### Opcodes

```
  0: 0x0402 [0x29] REQ_SET_WAIT(priority=0x08, entity_id=Apururu (ID: 17764372/0x010F1014), tag_num=0x09)
  1: 0x0409 [0x1D] PRINT_EVENT_MESSAGE(message_id=7743*)
     "Here...take these six dark Mana Orbs that have lost their glow."
  2: 0x040C [0x23] WAIT_FOR_DIALOG_INTERACTION
  3: 0x040D [0x29] REQ_SET_WAIT(priority=0x08, entity_id=Apururu (ID: 17764372/0x010F1014), tag_num=0x0A)
  4: 0x0414 [0x29] REQ_SET_WAIT(priority=0x08, entity_id=Apururu (ID: 17764372/0x010F1014), tag_num=0x07)
  5: 0x041B [0x1D] PRINT_EVENT_MESSAGE(message_id=7744*)
     "You are to go to the southeastern magic tower of the Horutoto Ruins in East Sarutabaruta."
  6: 0x041E [0x23] WAIT_FOR_DIALOG_INTERACTION
  7: 0x041F [0x27] REQ_SET(priority=0x08, entity_id=Apururu (ID: 17764372/0x010F1014), tag_num=0x08)
  8: 0x0426 [0x1D] PRINT_EVENT_MESSAGE(message_id=7745*)
     "That's the only magic tower that's still functioning well enough to energize Mana Orbs."
  9: 0x0429 [0x23] WAIT_FOR_DIALOG_INTERACTION
 10: 0x042A [0x2A] GET_REQ_LEVEL(level=8, entity_id=Apururu (ID: 17764372/0x010F1014))
 11: 0x0430 [0x00] END_REQSTACK()
```

### Event 65535.32

#### Metadata

| Field        | Value    |
|--------------|----------|
| Entrypoint   | 0x0431   |
| Data Size    | 23 bytes |
| Instructions | 7        |

```
      00 01 02 03 04 05 06 07  08 09 0A 0B 0C 0D 0E 0F
      -- -- -- -- -- -- -- --  -- -- -- -- -- -- -- --
0430:    29 08 14 10 0F 01 01  1D 20 80 23 1D 21 80 23   )....... .#.!.#
0440: 29 08 14 10 0F 01 02 00                           ).......        
```

#### Opcodes

```
  0: 0x0431 [0x29] REQ_SET_WAIT(priority=0x08, entity_id=Apururu (ID: 17764372/0x010F1014), tag_num=0x01)
  1: 0x0438 [0x1D] PRINT_EVENT_MESSAGE(message_id=7746*)
     "Ask Pore-Ohre at the Horutoto Ruins to find out how to energize Mana Orbs properly-woperly."
  2: 0x043B [0x23] WAIT_FOR_DIALOG_INTERACTION
  3: 0x043C [0x1D] PRINT_EVENT_MESSAGE(message_id=7747*)
     "You could find it to be quite a troublesome task, so if you are not quite sure of yourself, ask some of your fellow adventurers for help. Well, good luck and ta-taru!"
  4: 0x043F [0x23] WAIT_FOR_DIALOG_INTERACTION
  5: 0x0440 [0x29] REQ_SET_WAIT(priority=0x08, entity_id=Apururu (ID: 17764372/0x010F1014), tag_num=0x02)
  6: 0x0447 [0x00] END_REQSTACK()
```

### Event 138

#### Metadata

| Field        | Value    |
|--------------|----------|
| Entrypoint   | 0x0448   |
| Data Size    | 33 bytes |
| Instructions | 12       |

```
      00 01 02 03 04 05 06 07  08 09 0A 0B 0C 0D 0E 0F
      -- -- -- -- -- -- -- --  -- -- -- -- -- -- -- --
0440:                          1E F0 FF FF 7F 6F 70 29          .....op)
0450: 08 14 10 0F 01 01 1D 22  80 23 1D 23 80 23 29 08  .......".#.#.#).
0460: 14 10 0F 01 02 20 00 21  00                       ..... .!.       
```

#### Opcodes

```
  0: 0x0448 [0x1E] EventEntity looks at LocalPlayer and starts talking
  1: 0x044D [0x6F] WAIT_FRAME_DELAY: Yield until WaitTime reaches zero
  2: 0x044E [0x70] WAIT_ENTITY_RENDER_FLAG: Wait while EventEntity->Render.Flags3 bit 2 is set (cancel turn if not)
  3: 0x044F [0x29] REQ_SET_WAIT(priority=0x08, entity_id=Apururu (ID: 17764372/0x010F1014), tag_num=0x01)
  4: 0x0456 [0x1D] PRINT_EVENT_MESSAGE(message_id=7752*)
     "Ask Pore-Ohre in the southeastern magic tower of the Horutoto Ruins to find out how to energize Mana Orbs properly."
  5: 0x0459 [0x23] WAIT_FOR_DIALOG_INTERACTION
  6: 0x045A [0x1D] PRINT_EVENT_MESSAGE(message_id=7753*)
     "Once you have filled all of the Mana Orbs with magical energy, please bring them back here to me. I'll be waiting for you."
  7: 0x045D [0x23] WAIT_FOR_DIALOG_INTERACTION
  8: 0x045E [0x29] REQ_SET_WAIT(priority=0x08, entity_id=Apururu (ID: 17764372/0x010F1014), tag_num=0x02)
  9: 0x0465 [0x20] SET_CLI_EVENT_UC_FLAG: Unlock player control
 10: 0x0467 [0x21] END_EVENT
 11: 0x0468 [0x00] END_REQSTACK()
```

### Event 143

#### Metadata

| Field        | Value     |
|--------------|-----------|
| Entrypoint   | 0x0469    |
| Data Size    | 291 bytes |
| Instructions | 39        |

```
      00 01 02 03 04 05 06 07  08 09 0A 0B 0C 0D 0E 0F
      -- -- -- -- -- -- -- --  -- -- -- -- -- -- -- --
0460:                             20 01 46 01 42 1E F0            .F.B..
0470: FF FF 7F 6F 70 45 0E 80  F8 FF FF 7F F8 FF FF 7F  ...opE..........
0480: 66 64 6F 31 0F 80 1C 10  80 75 00 11 80 75 01 38  fdo1.....u...u.8
0490: 12 80 29 0B F0 FF FF 7F  2C 4A F0 FF FF 7F 14 10  ..).....,J......
04A0: 0F 01 4E 01 F0 FF FF 7F  1E F0 FF FF 7F 6F 70 45  ..N..........opE
04B0: 13 80 F8 FF FF 7F F8 FF  FF 7F 73 30 36 39 0F 80  ..........s069..
04C0: 45 0E 80 F8 FF FF 7F F8  FF FF 7F 66 64 69 31 0F  E..........fdi1.
04D0: 80 29 0B 14 10 0F 01 27  4E 00 F0 FF FF 7F 45 13  .).....'N.....E.
04E0: 80 F8 FF FF 7F F8 FF FF  7F 73 30 36 31 0F 80 29  .........s061..)
04F0: 0B 14 10 0F 01 28 52 13  80 F8 FF FF 7F F8 FF FF  .....(R.........
0500: 7F 73 30 36 31 45 13 80  F8 FF FF 7F F8 FF FF 7F  .s061E..........
0510: 73 30 37 30 0F 80 29 0B  14 10 0F 01 29 52 13 80  s070..).....)R..
0520: F8 FF FF 7F F8 FF FF 7F  73 30 37 30 4E 01 F0 FF  ........s070N...
0530: FF 7F 45 13 80 F8 FF FF  7F F8 FF FF 7F 73 30 36  ..E..........s06
0540: 39 0F 80 29 0B 14 10 0F  01 2A 45 0E 80 F8 FF FF  9..).....*E.....
0550: 7F F8 FF FF 7F 66 64 6F  31 0F 80 1C 10 80 4E 00  .....fdo1.....N.
0560: F0 FF FF 7F 46 00 45 0E  80 F8 FF FF 7F F8 FF FF  ....F.E.........
0570: 7F 66 64 69 31 0F 80 45  24 80 F0 FF FF 7F F0 FF  .fdi1..E$.......
0580: FF 7F 71 73 74 63 0F 80  20 00 21 00              ..qstc.. .!.    
```

#### Opcodes

```
  0: 0x0469 [0x20] SET_CLI_EVENT_UC_FLAG: Lock player control
  1: 0x046B [0x46] CAMERA_CONTROL: Disable user control
  2: 0x046D [0x42] SET_CLI_EVENT_CANCEL_DATA()
  3: 0x046E [0x1E] EventEntity looks at LocalPlayer and starts talking
  4: 0x0473 [0x6F] WAIT_FRAME_DELAY: Yield until WaitTime reaches zero
  5: 0x0474 [0x70] WAIT_ENTITY_RENDER_FLAG: Wait while EventEntity->Render.Flags3 bit 2 is set (cancel turn if not)
  6: 0x0475 [0x45] LOAD_SCHEDULED_TASK: Load scheduler "fdo1" with entities [EventEntity, EventEntity], work=[200*, 0*]
  7: 0x0486 [0x1C] WAIT(60* ticks)
  8: 0x0489 [0x75] LOAD_ROOM(Load indoor room, room=423*)
  9: 0x048D [0x75] LOAD_ROOM(No action)
 10: 0x048F [0x38] SET_CLIENT_EVENT_MODE(mode=3*)
 11: 0x0492 [0x29] REQ_SET_WAIT(priority=0x0B, entity_id=LocalPlayer, tag_num=0x2C)
 12: 0x0499 [0x4A] LocalPlayer looks at Apururu (ID: 17764372/0x010F1014)
 13: 0x04A2 [0x4E] SET_ENTITY_HIDE_FLAG: Hide LocalPlayer
 14: 0x04A8 [0x1E] EventEntity looks at LocalPlayer and starts talking
 15: 0x04AD [0x6F] WAIT_FRAME_DELAY: Yield until WaitTime reaches zero
 16: 0x04AE [0x70] WAIT_ENTITY_RENDER_FLAG: Wait while EventEntity->Render.Flags3 bit 2 is set (cancel turn if not)
 17: 0x04AF [0x45] LOAD_SCHEDULED_TASK: Load scheduler "s069" with entities [EventEntity, EventEntity], work=[141*, 0*]
 18: 0x04C0 [0x45] LOAD_SCHEDULED_TASK: Load scheduler "fdi1" with entities [EventEntity, EventEntity], work=[200*, 0*]
 19: 0x04D1 [0x29] REQ_SET_WAIT(priority=0x0B, entity_id=Apururu (ID: 17764372/0x010F1014), tag_num=0x27)
 20: 0x04D8 [0x4E] SET_ENTITY_HIDE_FLAG: Show LocalPlayer
 21: 0x04DE [0x45] LOAD_SCHEDULED_TASK: Load scheduler "s061" with entities [EventEntity, EventEntity], work=[141*, 0*]
 22: 0x04EF [0x29] REQ_SET_WAIT(priority=0x0B, entity_id=Apururu (ID: 17764372/0x010F1014), tag_num=0x28)
 23: 0x04F6 [0x52] END_LOAD_SCHEDULER: End scheduler "s061" with entities [EventEntity, EventEntity], work=141*
 24: 0x0505 [0x45] LOAD_SCHEDULED_TASK: Load scheduler "s070" with entities [EventEntity, EventEntity], work=[141*, 0*]
 25: 0x0516 [0x29] REQ_SET_WAIT(priority=0x0B, entity_id=Apururu (ID: 17764372/0x010F1014), tag_num=0x29)
 26: 0x051D [0x52] END_LOAD_SCHEDULER: End scheduler "s070" with entities [EventEntity, EventEntity], work=141*
 27: 0x052C [0x4E] SET_ENTITY_HIDE_FLAG: Hide LocalPlayer
 28: 0x0532 [0x45] LOAD_SCHEDULED_TASK: Load scheduler "s069" with entities [EventEntity, EventEntity], work=[141*, 0*]
 29: 0x0543 [0x29] REQ_SET_WAIT(priority=0x0B, entity_id=Apururu (ID: 17764372/0x010F1014), tag_num=0x2A)
 30: 0x054A [0x45] LOAD_SCHEDULED_TASK: Load scheduler "fdo1" with entities [EventEntity, EventEntity], work=[200*, 0*]
 31: 0x055B [0x1C] WAIT(60* ticks)
 32: 0x055E [0x4E] SET_ENTITY_HIDE_FLAG: Show LocalPlayer
 33: 0x0564 [0x46] CAMERA_CONTROL: Restore default settings
 34: 0x0566 [0x45] LOAD_SCHEDULED_TASK: Load scheduler "fdi1" with entities [EventEntity, EventEntity], work=[200*, 0*]
 35: 0x0577 [0x45] LOAD_SCHEDULED_TASK: Load scheduler "qstc" with entities [LocalPlayer, LocalPlayer], work=[201*, 0*]
 36: 0x0588 [0x20] SET_CLI_EVENT_UC_FLAG: Unlock player control
 37: 0x058A [0x21] END_EVENT
 38: 0x058B [0x00] END_REQSTACK()
```

### Event 65535.33

#### Metadata

| Field        | Value    |
|--------------|----------|
| Entrypoint   | 0x058C   |
| Data Size    | 19 bytes |
| Instructions | 5        |

```
      00 01 02 03 04 05 06 07  08 09 0A 0B 0C 0D 0E 0F
      -- -- -- -- -- -- -- --  -- -- -- -- -- -- -- --
0580:                                      29 08 14 10              )...
0590: 0F 01 11 1D 25 80 23 29  08 14 10 0F 01 12 00     ....%.#)....... 
```

#### Opcodes

```
  0: 0x058C [0x29] REQ_SET_WAIT(priority=0x08, entity_id=Apururu (ID: 17764372/0x010F1014), tag_num=0x11)
  1: 0x0593 [0x1D] PRINT_EVENT_MESSAGE(message_id=7762*)
     "What? Some feral Cardians turned up againy-wainy?"
  2: 0x0596 [0x23] WAIT_FOR_DIALOG_INTERACTION
  3: 0x0597 [0x29] REQ_SET_WAIT(priority=0x08, entity_id=Apururu (ID: 17764372/0x010F1014), tag_num=0x12)
  4: 0x059E [0x00] END_REQSTACK()
```

### Event 65535.34

#### Metadata

| Field        | Value    |
|--------------|----------|
| Entrypoint   | 0x059F   |
| Data Size    | 23 bytes |
| Instructions | 7        |

```
      00 01 02 03 04 05 06 07  08 09 0A 0B 0C 0D 0E 0F
      -- -- -- -- -- -- -- --  -- -- -- -- -- -- -- --
0590:                                               29                 )
05A0: 08 14 10 0F 01 01 1D 26  80 23 1D 27 80 23 29 08  .......&.#.'.#).
05B0: 14 10 0F 01 02 00                                 ......          
```

#### Opcodes

```
  0: 0x059F [0x29] REQ_SET_WAIT(priority=0x08, entity_id=Apururu (ID: 17764372/0x010F1014), tag_num=0x01)
  1: 0x05A6 [0x1D] PRINT_EVENT_MESSAGE(message_id=7763*)
     "It's quite an embarrassing tale for us at the Manustery, but some of the old Cardians from the war years escaped and went wild..."
  2: 0x05A9 [0x23] WAIT_FOR_DIALOG_INTERACTION
  3: 0x05AA [0x1D] PRINT_EVENT_MESSAGE(message_id=7764*)
     "Those old Cardians carry out such wickedness as stealing Mana Orbs and attacking people."
  4: 0x05AD [0x23] WAIT_FOR_DIALOG_INTERACTION
  5: 0x05AE [0x29] REQ_SET_WAIT(priority=0x08, entity_id=Apururu (ID: 17764372/0x010F1014), tag_num=0x02)
  6: 0x05B5 [0x00] END_REQSTACK()
```

### Event 65535.35

#### Metadata

| Field        | Value    |
|--------------|----------|
| Entrypoint   | 0x05B6   |
| Data Size    | 27 bytes |
| Instructions | 9        |

```
      00 01 02 03 04 05 06 07  08 09 0A 0B 0C 0D 0E 0F
      -- -- -- -- -- -- -- --  -- -- -- -- -- -- -- --
05B0:                   29 08  14 10 0F 01 13 1D 28 80        ).......(.
05C0: 23 1D 29 80 23 1D 2A 80  23 29 08 14 10 0F 01 14  #.).#.*.#)......
05D0: 00                                                .               
```

#### Opcodes

```
  0: 0x05B6 [0x29] REQ_SET_WAIT(priority=0x08, entity_id=Apururu (ID: 17764372/0x010F1014), tag_num=0x13)
  1: 0x05BD [0x1D] PRINT_EVENT_MESSAGE(message_id=7765*)
     "Mana Orbs are their hearts, remember? So the reason they steal the Mana Orbs is to revive their friends who have run out of magic in their Mana Orbs."
  2: 0x05C0 [0x23] WAIT_FOR_DIALOG_INTERACTION
  3: 0x05C1 [0x1D] PRINT_EVENT_MESSAGE(message_id=7766*)
     "But Mana Orbs are just spheres of magic. Unless there is a mage who can use the Mana Orb and breathe life into the Cardians, they are totally useless."
  4: 0x05C4 [0x23] WAIT_FOR_DIALOG_INTERACTION
  5: 0x05C5 [0x1D] PRINT_EVENT_MESSAGE(message_id=7767*)
     "So even if they are successful in stealing the Mana Orbs, it serves them no purpose..."
  6: 0x05C8 [0x23] WAIT_FOR_DIALOG_INTERACTION
  7: 0x05C9 [0x29] REQ_SET_WAIT(priority=0x08, entity_id=Apururu (ID: 17764372/0x010F1014), tag_num=0x14)
  8: 0x05D0 [0x00] END_REQSTACK()
```

### Event 65535.36

#### Metadata

| Field        | Value    |
|--------------|----------|
| Entrypoint   | 0x05D1   |
| Data Size    | 23 bytes |
| Instructions | 7        |

```
      00 01 02 03 04 05 06 07  08 09 0A 0B 0C 0D 0E 0F
      -- -- -- -- -- -- -- --  -- -- -- -- -- -- -- --
05D0:    29 08 14 10 0F 01 01  1D 2B 80 23 1D 2C 80 23   ).......+.#.,.#
05E0: 29 08 14 10 0F 01 02 00                           ).......        
```

#### Opcodes

```
  0: 0x05D1 [0x29] REQ_SET_WAIT(priority=0x08, entity_id=Apururu (ID: 17764372/0x010F1014), tag_num=0x01)
  1: 0x05D8 [0x1D] PRINT_EVENT_MESSAGE(message_id=7768*)
     "But I'm glad that you and poor Pore-Ohre are safe. That's the most important thing."
  2: 0x05DB [0x23] WAIT_FOR_DIALOG_INTERACTION
  3: 0x05DC [0x1D] PRINT_EVENT_MESSAGE(message_id=7769*)
     "Well, anyway, thank you for all your trouble and hard efforts. Until next time, then, ta-taru...!"
  4: 0x05DF [0x23] WAIT_FOR_DIALOG_INTERACTION
  5: 0x05E0 [0x29] REQ_SET_WAIT(priority=0x08, entity_id=Apururu (ID: 17764372/0x010F1014), tag_num=0x02)
  6: 0x05E7 [0x00] END_REQSTACK()
```

### Event 144

#### Metadata

| Field        | Value    |
|--------------|----------|
| Entrypoint   | 0x05E8   |
| Data Size    | 51 bytes |
| Instructions | 16       |

```
      00 01 02 03 04 05 06 07  08 09 0A 0B 0C 0D 0E 0F
      -- -- -- -- -- -- -- --  -- -- -- -- -- -- -- --
05E0:                          1E F0 FF FF 7F 6F 70 29          .....op)
05F0: 08 14 10 0F 01 01 1D 2D  80 23 29 08 14 10 0F 01  .......-.#).....
0600: 02 1D 2E 80 23 29 08 14  10 0F 01 03 1D 2F 80 23  ....#)......./.#
0610: 29 08 14 10 0F 01 05 20  00 21 00                 )...... .!.     
```

#### Opcodes

```
  0: 0x05E8 [0x1E] EventEntity looks at LocalPlayer and starts talking
  1: 0x05ED [0x6F] WAIT_FRAME_DELAY: Yield until WaitTime reaches zero
  2: 0x05EE [0x70] WAIT_ENTITY_RENDER_FLAG: Wait while EventEntity->Render.Flags3 bit 2 is set (cancel turn if not)
  3: 0x05EF [0x29] REQ_SET_WAIT(priority=0x08, entity_id=Apururu (ID: 17764372/0x010F1014), tag_num=0x01)
  4: 0x05F6 [0x1D] PRINT_EVENT_MESSAGE(message_id=7770*)
     "I hear that the Cardians who have escaped from our care have been gathering underground in the Horutoto Ruins and plotting bad deeds."
  5: 0x05F9 [0x23] WAIT_FOR_DIALOG_INTERACTION
  6: 0x05FA [0x29] REQ_SET_WAIT(priority=0x08, entity_id=Apururu (ID: 17764372/0x010F1014), tag_num=0x02)
  7: 0x0601 [0x1D] PRINT_EVENT_MESSAGE(message_id=7771*)
     "If we leave them aloney-woney, the magic energy in their Mana Orb hearts will run out, and they will return to being nothing more than straw dolls."
  8: 0x0604 [0x23] WAIT_FOR_DIALOG_INTERACTION
