# 17764373 - Boizo-Naizo

## Common Data

| Field            | Value                    |
|------------------|--------------------------|
| Zone             | Windurst Woods (ID: 241) |
| Block Size       | 1980 bytes               |
| Total Events     | 65                       |
| References Count | 66                       |

## List of Events

| Event ID                   | Entrypoint   |   Size |   Instructions |
|----------------------------|--------------|--------|----------------|
| [65535](#event-65535)      | 0x0000       |      1 |              1 |
| [65535.1](#event-655351)   | 0x0001       |     16 |              2 |
| [65535.2](#event-655352)   | 0x0011       |     14 |              2 |
| [65535.3](#event-655353)   | 0x001F       |     16 |              2 |
| [65535.4](#event-655354)   | 0x002F       |     14 |              2 |
| [65535.5](#event-655355)   | 0x003D       |     16 |              2 |
| [65535.6](#event-655356)   | 0x004D       |     14 |              2 |
| [65535.7](#event-655357)   | 0x005B       |     16 |              2 |
| [65535.8](#event-655358)   | 0x006B       |     14 |              2 |
| [65535.9](#event-655359)   | 0x0079       |     24 |              4 |
| [65535.10](#event-6553510) | 0x0091       |     14 |              2 |
| [65535.11](#event-6553511) | 0x009F       |     16 |              2 |
| [65535.12](#event-6553512) | 0x00AF       |     22 |              4 |
| [65535.13](#event-6553513) | 0x00C5       |     16 |              2 |
| [65535.14](#event-6553514) | 0x00D5       |     14 |              2 |
| [65535.15](#event-6553515) | 0x00E3       |     16 |              2 |
| [65535.16](#event-6553516) | 0x00F3       |     14 |              2 |
| [65535.17](#event-6553517) | 0x0101       |     16 |              2 |
| [65535.18](#event-6553518) | 0x0111       |     14 |              2 |
| [65535.19](#event-6553519) | 0x011F       |     16 |              2 |
| [65535.20](#event-6553520) | 0x012F       |     14 |              2 |
| [65535.21](#event-6553521) | 0x013D       |      9 |              3 |
| [275](#event-275)          | 0x0146       |     33 |             12 |
| [139](#event-139)          | 0x0167       |     37 |             14 |
| [146](#event-146)          | 0x018C       |     33 |             12 |
| [290](#event-290)          | 0x01AD       |     33 |             12 |
| [302](#event-302)          | 0x01CE       |     33 |             12 |
| [307](#event-307)          | 0x01EF       |     33 |             12 |
| [308](#event-308)          | 0x0210       |      1 |              1 |
| [65535.22](#event-6553522) | 0x0211       |      5 |              3 |
| [65535.23](#event-6553523) | 0x0216       |     19 |              5 |
| [65535.24](#event-6553524) | 0x0229       |     19 |              5 |
| [65535.25](#event-6553525) | 0x023C       |     19 |              5 |
| [311](#event-311)          | 0x024F       |     33 |             12 |
| [314](#event-314)          | 0x0270       |      1 |              1 |
| [315](#event-315)          | 0x0271       |     29 |             10 |
| [395](#event-395)          | 0x028E       |     33 |             12 |
| [400](#event-400)          | 0x02AF       |     33 |             12 |
| [319](#event-319)          | 0x02D0       |     10 |              2 |
| [323](#event-323)          | 0x02DA       |     39 |             10 |
| [65535.26](#event-6553526) | 0x0301       |     19 |              5 |
| [65535.27](#event-6553527) | 0x0314       |     23 |              7 |
| [65535.28](#event-6553528) | 0x032B       |     19 |              5 |
| [65535.29](#event-6553529) | 0x033E       |     37 |              9 |
| [324](#event-324)          | 0x0363       |     33 |             12 |
| [327](#event-327)          | 0x0384       |     33 |             12 |
| [325](#event-325)          | 0x03A5       |      1 |              1 |
| [65535.30](#event-6553530) | 0x03A6       |     19 |              5 |
| [65535.31](#event-6553531) | 0x03B9       |     30 |             10 |
| [65535.32](#event-6553532) | 0x03D7       |      5 |              3 |
| [65535.33](#event-6553533) | 0x03DC       |      9 |              5 |
| [65535.34](#event-6553534) | 0x03E5       |     12 |              4 |
| [65535.35](#event-6553535) | 0x03F1       |      5 |              3 |
| [65535.36](#event-6553536) | 0x03F6       |     19 |              5 |
| [328](#event-328)          | 0x0409       |     33 |             12 |
| [602](#event-602)          | 0x042A       |     47 |             14 |
| [606](#event-606)          | 0x0459       |     47 |             14 |
| [137](#event-137)          | 0x0488       |      3 |              2 |
| [619](#event-619)          | 0x048B       |      3 |              2 |
| [654](#event-654)          | 0x048E       |     47 |             14 |
| [645](#event-645)          | 0x04BD       |     79 |             20 |
| [646](#event-646)          | 0x050C       |     47 |             14 |
| [960](#event-960)          | 0x053B       |     26 |              8 |
| [961](#event-961)          | 0x0555       |     27 |              9 |
| [660](#event-660)          | 0x0570       |     47 |             14 |

## DAT References (imed_data)

|   Index | Hex Value   |   Dec Value |
|---------|-------------|-------------|
|       0 | 0x0028      |          40 |
|       1 | 0x0029      |          41 |
|       2 | 0x002A      |          42 |
|       3 | 0x001E      |          30 |
|       4 | 0x1F73      |        8051 |
|       5 | 0x1F74      |        8052 |
|       6 | 0x1E4A      |        7754 |
|       7 | 0x1E4B      |        7755 |
|       8 | 0x1E4C      |        7756 |
|       9 | 0x1E5F      |        7775 |
|      10 | 0x1E60      |        7776 |
|      11 | 0x1F96      |        8086 |
|      12 | 0x1F97      |        8087 |
|      13 | 0x1FBF      |        8127 |
|      14 | 0x1FC0      |        8128 |
|      15 | 0x1FCA      |        8138 |
|      16 | 0x1FCB      |        8139 |
|      17 | 0x1FD2      |        8146 |
|      18 | 0x1FD8      |        8152 |
|      19 | 0x1FD9      |        8153 |
|      20 | 0x1FDC      |        8156 |
|      21 | 0x1FE1      |        8161 |
|      22 | 0x1FE2      |        8162 |
|      23 | 0x1FEC      |        8172 |
|      24 | 0x2114      |        8468 |
|      25 | 0x2115      |        8469 |
|      26 | 0x211F      |        8479 |
|      27 | 0x2120      |        8480 |
|      28 | 0xFFFFEEA1  |  4294962849 |
|      29 | 0xFFFFA43C  |  4294943804 |
|      30 | 0xFFFFF15B  |  4294963547 |
|      31 | 0x00B2      |         178 |
|      32 | 0x2007      |        8199 |
|      33 | 0x2008      |        8200 |
|      34 | 0x2009      |        8201 |
|      35 | 0x200A      |        8202 |
|      36 | 0x200B      |        8203 |
|      37 | 0x200C      |        8204 |
|      38 | 0x200D      |        8205 |
|      39 | 0x200E      |        8206 |
|      40 | 0x2016      |        8214 |
|      41 | 0x2017      |        8215 |
|      42 | 0x2018      |        8216 |
|      43 | 0x2019      |        8217 |
|      44 | 0x201A      |        8218 |
|      45 | 0x201B      |        8219 |
|      46 | 0x201C      |        8220 |
|      47 | 0x201D      |        8221 |
|      48 | 0x201E      |        8222 |
|      49 | 0x201F      |        8223 |
|      50 | 0x2020      |        8224 |
|      51 | 0x2021      |        8225 |
|      52 | 0x2022      |        8226 |
|      53 | 0x2532      |        9522 |
|      54 | 0x2533      |        9523 |
|      55 | 0x254F      |        9551 |
|      56 | 0x2550      |        9552 |
|      57 | 0x25B0      |        9648 |
|      58 | 0x25B1      |        9649 |
|      59 | 0x25C8      |        9672 |
|      60 | 0x25C9      |        9673 |
|      61 | 0x25CA      |        9674 |
|      62 | 0x25EE      |        9710 |
|      63 | 0x25EF      |        9711 |
|      64 | 0x260B      |        9739 |
|      65 | 0x260C      |        9740 |

## String References

- **7754**: Almost all of the Horutoto Ruins were blown to pieces twenty years ago due to the enormous magic of the heroic "Mastermind of the Millennium."
- **7755**: The only magic tower left barely functioning, the southeastern one, is totally unstable-wable in the amount of energy it produces.
- **7756**: So it's nigh on impossible to create quality Mana Orbs, which leaves us weakened dramatically.
- **7775**: When you go about breathing life into the inanimate, who knows what will happen? We're just asking for trouble.
- **7776**: But that's just a risk we Manustery employees have to take! It's just that...I wish they paid us a little more as hazard pay.
- **8051**: The way you're walking around here, I'd swear you think that this ministry is an unusual sight.
- **8052**: Hm? You think our Cardians are odd? Well, I'd say you're the odd one around herey-werey!
- **8086**: The Cardians that Kopuro-Popuro makes cause all sorts of trouble. We can't take our eyes off of them for too long...
- **8087**: Minister Apururu is too soft on him. The future of our Manustery is bleak indeed!
- **8127**: I believe that particular Cardian you speak of was made by Kopuro-Popuro.
- **8128**: Kopuro-Popuro has a habit of forgetting important things while always remembering the most useless of information. Like father, like son, eh?
- **8138**: I don't think we should force Cardians to forget things they don't want to forget.
- **8139**: It wouldn't hurt for our Cardians to have a little more individuality now, would it?
- **8146**: Plan B?
- **8152**: Hmm... Oh, really? Well, I don't know whether it's true or just an old wives' tale, but we could make a load of gil by selling such charms to the local goods stores, couldn'taru we?
- **8153**: That was mighty useful information, especially coming from the likes of Kopuro-Popuro. So, how does one go about making these "Gadabout's Gris-gris" thingamabobs?
- **8156**: I see... Great! Then we'll just make a heap of them to sell. We'll have money back in the Manustery's coffers in no time!
- **8161**: So...I wonder how many of these "Gadabout's Gris-gris" thingamabobs we have to make to bring our budget back into the black.
- **8162**: Well, finances aren't my concern, so I'll just concentrate on making the goods. I'll just keep making "Gadabout's Gris-gris" until we all drop from exhaustion.
- **8172**: <Sigh>... I know, I know...you don't have to tell me. I should have realized this was a stupid idea earlier...
- **8199**: What the...? She's offered to pay you $1 gil to find our missing Cardian? That's just the kind of stupid thing that puts us further and further into the red!
- **8200**: If that Cardian's on its way back here, then it only means it's going to kick the bucket at any moment, rightaru?
- **8201**: So why pay such a high price to find something as drop-dead useless as thataru!?
- **8202**: It's like, why spend so much money on silly personal sentiments, when putting that gil towards creating a new Cardian is in everybody's interests?
- **8203**: I'm sorry, but this time I'm going to have to put it to our Minister quite bluntly-wuntly!
- **8204**: Even if you or anyone else finds old Queen of Diamonds for us, we won't be coughing up a single gil, I tell you! I'm totally against such tomfoolery!
- **8205**: First, against nature, you go provide lifeforce to empty vessels. Then you send them out into the battlefields. If you're going to cry about it when they drop dead, then you'd might as well not make the damned things to begin with!
- **8206**: Even if you or anyone else finds old Queen of Diamonds for us, we won't be coughing up a single gil, I tell you! I'm totally against such tomfoolery!
- **8214**: ......
- **8215**: Oh, that's worthless. Such garbage deserves to be thrown into the trashcan.
- **8216**: Oh, I see you found a piece of her, huh? This nut is indeed part of what was once the great Queen of Diamonds.
- **8217**: Its marking has worn away, but I know a diamond house when I see it. See, I'm the one who makes the Diamond Cardians, you know?
- **8218**: But I don't intend to pay you a single gil! It's still worthless garbage, even if it was one of my own. I'm different from Minister Apururu, you see. I don't allow my feelings to get caught up in my work...
- **8219**: ...Huh? What's this here...?
- **8220**: Was this on the starfruit when you found it?
- **8221**: This ice...!? Why, its shape looks...almost like... ...a tear...
- **8222**: Ah... It's melting...
- **8223**: ... Well, I guess the Minister did promise it to you, so...I'll pay you the reward for finding this starfruit.
- **8224**: But $1 gil is asking too much. Sorry, but you'll have to make do with $2 gil.
- **8225**: No, I've not become all emotional, mind you! It was just a doll into which we breathed temporary life, rightaru?
- **8226**: First, against nature, you provide lifeforce to empty vessels. Then you go send them out into the battlefields. If you're going to cry about it when they drop dead, then you'd might as well not make the damned things to begin with!
- **8468**: Cardian Cards have the ability to dispel the magic that has been placed on Cardians...it's kind of like an emergency stop or self-destruct button.
- **8469**: Minister Apururu's father, the previous minister of our Manustery, could even remove magic without the use of Cards...but without him to show us, it's impossible for us to do it.
- **8479**: The minister is so determined-wermined. I don'taru want her to go through with this, but it looks like nothing would stop her now.
- **8480**: She tends to get carried away when it comes to matters about her father. We have to look out for her as much as we can!
- **9522**: We have a lot to thank Minister Ajido-Marujido for. He might have mumble-grumbled about it, but he was always there to bail the Manustery out of money troubles.
- **9523**: We justaru follow whatever Minister Apururu decides. No mattaru what happens, we're behind her until the fat Galka sings.
- **9551**: Things don'taru look good. If Ajido-Marujido doesn't wake up, Minister Apururu may have murder-wurder to answer for...not just a jailbreak!
- **9552**: Wait a minute. Wasn't there an adventurer who went to the dungeon with the minister? What if we shift all the blame onto [him/her]...?
- **9648**: I heard that Minsiter Ajido-Marujido was pardoned for his crimes. Well, isn'taru that a surprise?
- **9649**: This is, y'know, one of those high-level, governmentaru things. There's gotta be some back room, political-type dealy-weals going on here.
- **9672**: You would definitely be able to slow the Cardians down with a big ol' blast of magey-wagey power.
- **9673**: But the problem is where do you get that kinda power, and who do you get to handle it? To be perfectaruly honest I don't think Miss Apururu is up to it.
- **9674**: Hmmm...if you could draw on the Mana Orbs of all the Cardians in town then maybe... I better not suggestaru that to the minister, she would just keel over from worry.
- **9710**: Many Cardians died willingly for the sakey-wake of their king, the Cardian Joker.
- **9711**: Former minister Zonpa-Zippa loved to build in those sorts of tragic loyalties... He probably put in a self-destructaru mechanism, too.
- **9739**: Aren't the new Cardians that Kopuro-Popuro is making supposed to be for patrol duty?
- **9740**: All they're doing is wandering around Sarutabaruta, not fighting anything. I wonder what they're doing out there? Looking for buried treasure?

## Events

### Event 65535

#### Metadata

| Field        | Value   |
|--------------|---------|
| Entrypoint   | 0x0000  |
| Data Size    | 1 bytes |
| Instructions | 1       |

```
      00 01 02 03 04 05 06 07  08 09 0A 0B 0C 0D 0E 0F
      -- -- -- -- -- -- -- --  -- -- -- -- -- -- -- --
0000: 00                                                .               
```

#### Opcodes

```
  0: 0x0000 [0x00] END_REQSTACK()
```

### Event 65535.1

#### Metadata

| Field        | Value    |
|--------------|----------|
| Entrypoint   | 0x0001   |
| Data Size    | 16 bytes |
| Instructions | 2        |

```
      00 01 02 03 04 05 06 07  08 09 0A 0B 0C 0D 0E 0F
      -- -- -- -- -- -- -- --  -- -- -- -- -- -- -- --
0000:    66 00 80 F8 FF FF 7F  F8 FF FF 7F 74 6C 6B 30   f..........tlk0
0010: 00                                                .               
```

#### Opcodes

```
  0: 0x0001 [0x66] LOAD_EXT_SCHEDULER_MAIN: Load scheduler "tlk0" with entities [EventEntity, EventEntity], work=40*
  1: 0x0010 [0x00] END_REQSTACK()
```

### Event 65535.2

#### Metadata

| Field        | Value    |
|--------------|----------|
| Entrypoint   | 0x0011   |
| Data Size    | 14 bytes |
| Instructions | 2        |

```
      00 01 02 03 04 05 06 07  08 09 0A 0B 0C 0D 0E 0F
      -- -- -- -- -- -- -- --  -- -- -- -- -- -- -- --
0010:    53 F8 FF FF 7F F8 FF  FF 7F 74 6C 6B 30 00      S........tlk0. 
```

#### Opcodes

```
  0: 0x0011 [0x53] WAIT_SCHEDULER_TASK: Wait for scheduler "tlk0" with entities [EventEntity, EventEntity]
  1: 0x001E [0x00] END_REQSTACK()
```

### Event 65535.3

#### Metadata

| Field        | Value    |
|--------------|----------|
| Entrypoint   | 0x001F   |
| Data Size    | 16 bytes |
| Instructions | 2        |

```
      00 01 02 03 04 05 06 07  08 09 0A 0B 0C 0D 0E 0F
      -- -- -- -- -- -- -- --  -- -- -- -- -- -- -- --
0010:                                               66                 f
0020: 00 80 F8 FF FF 7F F8 FF  FF 7F 74 68 6B 31 00     ..........thk1. 
```

#### Opcodes

```
  0: 0x001F [0x66] LOAD_EXT_SCHEDULER_MAIN: Load scheduler "thk1" with entities [EventEntity, EventEntity], work=40*
  1: 0x002E [0x00] END_REQSTACK()
```

### Event 65535.4

#### Metadata

| Field        | Value    |
|--------------|----------|
| Entrypoint   | 0x002F   |
| Data Size    | 14 bytes |
| Instructions | 2        |

```
      00 01 02 03 04 05 06 07  08 09 0A 0B 0C 0D 0E 0F
      -- -- -- -- -- -- -- --  -- -- -- -- -- -- -- --
0020:                                               53                 S
0030: F8 FF FF 7F F8 FF FF 7F  74 68 6B 31 00           ........thk1.   
```

#### Opcodes

```
  0: 0x002F [0x53] WAIT_SCHEDULER_TASK: Wait for scheduler "thk1" with entities [EventEntity, EventEntity]
  1: 0x003C [0x00] END_REQSTACK()
```

### Event 65535.5

#### Metadata

| Field        | Value    |
|--------------|----------|
| Entrypoint   | 0x003D   |
| Data Size    | 16 bytes |
| Instructions | 2        |

```
      00 01 02 03 04 05 06 07  08 09 0A 0B 0C 0D 0E 0F
      -- -- -- -- -- -- -- --  -- -- -- -- -- -- -- --
0030:                                         66 00 80               f..
0040: F8 FF FF 7F F8 FF FF 7F  74 68 6B 32 00           ........thk2.   
```

#### Opcodes

```
  0: 0x003D [0x66] LOAD_EXT_SCHEDULER_MAIN: Load scheduler "thk2" with entities [EventEntity, EventEntity], work=40*
  1: 0x004C [0x00] END_REQSTACK()
```

### Event 65535.6

#### Metadata

| Field        | Value    |
|--------------|----------|
| Entrypoint   | 0x004D   |
| Data Size    | 14 bytes |
| Instructions | 2        |

```
      00 01 02 03 04 05 06 07  08 09 0A 0B 0C 0D 0E 0F
      -- -- -- -- -- -- -- --  -- -- -- -- -- -- -- --
0040:                                         53 F8 FF               S..
0050: FF 7F F8 FF FF 7F 74 68  6B 32 00                 ......thk2.     
```

#### Opcodes

```
  0: 0x004D [0x53] WAIT_SCHEDULER_TASK: Wait for scheduler "thk2" with entities [EventEntity, EventEntity]
  1: 0x005A [0x00] END_REQSTACK()
```

### Event 65535.7

#### Metadata

| Field        | Value    |
|--------------|----------|
| Entrypoint   | 0x005B   |
| Data Size    | 16 bytes |
| Instructions | 2        |

```
      00 01 02 03 04 05 06 07  08 09 0A 0B 0C 0D 0E 0F
      -- -- -- -- -- -- -- --  -- -- -- -- -- -- -- --
0050:                                   66 01 80 F8 FF             f....
0060: FF 7F F8 FF FF 7F 73 68  6B 30 00                 ......shk0.     
```

#### Opcodes

```
  0: 0x005B [0x66] LOAD_EXT_SCHEDULER_MAIN: Load scheduler "shk0" with entities [EventEntity, EventEntity], work=41*
  1: 0x006A [0x00] END_REQSTACK()
```

### Event 65535.8

#### Metadata

| Field        | Value    |
|--------------|----------|
| Entrypoint   | 0x006B   |
| Data Size    | 14 bytes |
| Instructions | 2        |

```
      00 01 02 03 04 05 06 07  08 09 0A 0B 0C 0D 0E 0F
      -- -- -- -- -- -- -- --  -- -- -- -- -- -- -- --
0060:                                   53 F8 FF FF 7F             S....
0070: F8 FF FF 7F 73 68 6B 30  00                       ....shk0.       
```

#### Opcodes

```
  0: 0x006B [0x53] WAIT_SCHEDULER_TASK: Wait for scheduler "shk0" with entities [EventEntity, EventEntity]
  1: 0x0078 [0x00] END_REQSTACK()
```

### Event 65535.9

#### Metadata

| Field        | Value    |
|--------------|----------|
| Entrypoint   | 0x0079   |
| Data Size    | 24 bytes |
| Instructions | 4        |

```
      00 01 02 03 04 05 06 07  08 09 0A 0B 0C 0D 0E 0F
      -- -- -- -- -- -- -- --  -- -- -- -- -- -- -- --
0070:                             66 02 80 F8 FF FF 7F           f......
0080: F8 FF FF 7F 62 69 6B 30  5E 69 64 6C 30 1C 03 80  ....bik0^idl0...
0090: 00                                                .               
```

#### Opcodes

```
  0: 0x0079 [0x66] LOAD_EXT_SCHEDULER_MAIN: Load scheduler "bik0" with entities [EventEntity, EventEntity], work=42*
  1: 0x0088 [0x5E] EventEntity goes idle (kills current action) (animation: "idl0")
  2: 0x008D [0x1C] WAIT(30* ticks)
  3: 0x0090 [0x00] END_REQSTACK()
```

### Event 65535.10

#### Metadata

| Field        | Value    |
|--------------|----------|
| Entrypoint   | 0x0091   |
| Data Size    | 14 bytes |
| Instructions | 2        |

```
      00 01 02 03 04 05 06 07  08 09 0A 0B 0C 0D 0E 0F
      -- -- -- -- -- -- -- --  -- -- -- -- -- -- -- --
0090:    53 F8 FF FF 7F F8 FF  FF 7F 62 69 6B 30 00      S........bik0. 
```

#### Opcodes

```
  0: 0x0091 [0x53] WAIT_SCHEDULER_TASK: Wait for scheduler "bik0" with entities [EventEntity, EventEntity]
  1: 0x009E [0x00] END_REQSTACK()
```

### Event 65535.11

#### Metadata

| Field        | Value    |
|--------------|----------|
| Entrypoint   | 0x009F   |
| Data Size    | 16 bytes |
| Instructions | 2        |

```
      00 01 02 03 04 05 06 07  08 09 0A 0B 0C 0D 0E 0F
      -- -- -- -- -- -- -- --  -- -- -- -- -- -- -- --
0090:                                               66                 f
00A0: 01 80 F8 FF FF 7F F8 FF  FF 7F 67 6B 72 30 00     ..........gkr0. 
```

#### Opcodes

```
  0: 0x009F [0x66] LOAD_EXT_SCHEDULER_MAIN: Load scheduler "gkr0" with entities [EventEntity, EventEntity], work=41*
  1: 0x00AE [0x00] END_REQSTACK()
```

### Event 65535.12

#### Metadata

| Field        | Value    |
|--------------|----------|
| Entrypoint   | 0x00AF   |
| Data Size    | 22 bytes |
| Instructions | 4        |

```
      00 01 02 03 04 05 06 07  08 09 0A 0B 0C 0D 0E 0F
      -- -- -- -- -- -- -- --  -- -- -- -- -- -- -- --
00A0:                                               53                 S
00B0: F8 FF FF 7F F8 FF FF 7F  67 6B 72 30 5E 69 64 6C  ........gkr0^idl
00C0: 30 1C 03 80 00                                    0....           
```

#### Opcodes

```
  0: 0x00AF [0x53] WAIT_SCHEDULER_TASK: Wait for scheduler "gkr0" with entities [EventEntity, EventEntity]
  1: 0x00BC [0x5E] EventEntity goes idle (kills current action) (animation: "idl0")
  2: 0x00C1 [0x1C] WAIT(30* ticks)
  3: 0x00C4 [0x00] END_REQSTACK()
```

### Event 65535.13

#### Metadata

| Field        | Value    |
|--------------|----------|
| Entrypoint   | 0x00C5   |
| Data Size    | 16 bytes |
| Instructions | 2        |

```
      00 01 02 03 04 05 06 07  08 09 0A 0B 0C 0D 0E 0F
      -- -- -- -- -- -- -- --  -- -- -- -- -- -- -- --
00C0:                66 00 80  F8 FF FF 7F F8 FF FF 7F       f..........
00D0: 73 79 75 30 00                                    syu0.           
```

#### Opcodes

```
  0: 0x00C5 [0x66] LOAD_EXT_SCHEDULER_MAIN: Load scheduler "syu0" with entities [EventEntity, EventEntity], work=40*
  1: 0x00D4 [0x00] END_REQSTACK()
```

### Event 65535.14

#### Metadata

| Field        | Value    |
|--------------|----------|
| Entrypoint   | 0x00D5   |
| Data Size    | 14 bytes |
| Instructions | 2        |

```
      00 01 02 03 04 05 06 07  08 09 0A 0B 0C 0D 0E 0F
      -- -- -- -- -- -- -- --  -- -- -- -- -- -- -- --
00D0:                53 F8 FF  FF 7F F8 FF FF 7F 73 79       S........sy
00E0: 75 30 00                                          u0.             
```

#### Opcodes

```
  0: 0x00D5 [0x53] WAIT_SCHEDULER_TASK: Wait for scheduler "syu0" with entities [EventEntity, EventEntity]
  1: 0x00E2 [0x00] END_REQSTACK()
```

### Event 65535.15

#### Metadata

| Field        | Value    |
|--------------|----------|
| Entrypoint   | 0x00E3   |
| Data Size    | 16 bytes |
| Instructions | 2        |

```
      00 01 02 03 04 05 06 07  08 09 0A 0B 0C 0D 0E 0F
      -- -- -- -- -- -- -- --  -- -- -- -- -- -- -- --
00E0:          66 00 80 F8 FF  FF 7F F8 FF FF 7F 69 72     f..........ir
00F0: 6F 30 00                                          o0.             
```

#### Opcodes

```
  0: 0x00E3 [0x66] LOAD_EXT_SCHEDULER_MAIN: Load scheduler "iro0" with entities [EventEntity, EventEntity], work=40*
  1: 0x00F2 [0x00] END_REQSTACK()
```

### Event 65535.16

#### Metadata

| Field        | Value    |
|--------------|----------|
| Entrypoint   | 0x00F3   |
| Data Size    | 14 bytes |
| Instructions | 2        |

```
      00 01 02 03 04 05 06 07  08 09 0A 0B 0C 0D 0E 0F
      -- -- -- -- -- -- -- --  -- -- -- -- -- -- -- --
00F0:          53 F8 FF FF 7F  F8 FF FF 7F 69 72 6F 30     S........iro0
0100: 00                                                .               
```

#### Opcodes

```
  0: 0x00F3 [0x53] WAIT_SCHEDULER_TASK: Wait for scheduler "iro0" with entities [EventEntity, EventEntity]
  1: 0x0100 [0x00] END_REQSTACK()
```

### Event 65535.17

#### Metadata

| Field        | Value    |
|--------------|----------|
| Entrypoint   | 0x0101   |
| Data Size    | 16 bytes |
| Instructions | 2        |

```
      00 01 02 03 04 05 06 07  08 09 0A 0B 0C 0D 0E 0F
      -- -- -- -- -- -- -- --  -- -- -- -- -- -- -- --
0100:    66 00 80 F8 FF FF 7F  F8 FF FF 7F 64 69 73 30   f..........dis0
0110: 00                                                .               
```

#### Opcodes

```
  0: 0x0101 [0x66] LOAD_EXT_SCHEDULER_MAIN: Load scheduler "dis0" with entities [EventEntity, EventEntity], work=40*
  1: 0x0110 [0x00] END_REQSTACK()
```

### Event 65535.18

#### Metadata

| Field        | Value    |
|--------------|----------|
| Entrypoint   | 0x0111   |
| Data Size    | 14 bytes |
| Instructions | 2        |

```
      00 01 02 03 04 05 06 07  08 09 0A 0B 0C 0D 0E 0F
      -- -- -- -- -- -- -- --  -- -- -- -- -- -- -- --
0110:    53 F8 FF FF 7F F8 FF  FF 7F 64 69 73 30 00      S........dis0. 
```

#### Opcodes

```
  0: 0x0111 [0x53] WAIT_SCHEDULER_TASK: Wait for scheduler "dis0" with entities [EventEntity, EventEntity]
  1: 0x011E [0x00] END_REQSTACK()
```

### Event 65535.19

#### Metadata

| Field        | Value    |
|--------------|----------|
| Entrypoint   | 0x011F   |
| Data Size    | 16 bytes |
| Instructions | 2        |

```
      00 01 02 03 04 05 06 07  08 09 0A 0B 0C 0D 0E 0F
      -- -- -- -- -- -- -- --  -- -- -- -- -- -- -- --
0110:                                               66                 f
0120: 00 80 F8 FF FF 7F F8 FF  FF 7F 70 61 73 30 00     ..........pas0. 
```

#### Opcodes

```
  0: 0x011F [0x66] LOAD_EXT_SCHEDULER_MAIN: Load scheduler "pas0" with entities [EventEntity, EventEntity], work=40*
  1: 0x012E [0x00] END_REQSTACK()
```

### Event 65535.20

#### Metadata

| Field        | Value    |
|--------------|----------|
| Entrypoint   | 0x012F   |
| Data Size    | 14 bytes |
| Instructions | 2        |

```
      00 01 02 03 04 05 06 07  08 09 0A 0B 0C 0D 0E 0F
      -- -- -- -- -- -- -- --  -- -- -- -- -- -- -- --
0120:                                               53                 S
0130: F8 FF FF 7F F8 FF FF 7F  70 61 73 30 00           ........pas0.   
```

#### Opcodes

```
  0: 0x012F [0x53] WAIT_SCHEDULER_TASK: Wait for scheduler "pas0" with entities [EventEntity, EventEntity]
  1: 0x013C [0x00] END_REQSTACK()
```

### Event 65535.21

#### Metadata

| Field        | Value   |
|--------------|---------|
| Entrypoint   | 0x013D  |
| Data Size    | 9 bytes |
| Instructions | 3       |

```
      00 01 02 03 04 05 06 07  08 09 0A 0B 0C 0D 0E 0F
      -- -- -- -- -- -- -- --  -- -- -- -- -- -- -- --
0130:                                         5E 69 64               ^id
0140: 6C 30 1C 03 80 00                                 l0....          
```

#### Opcodes

```
  0: 0x013D [0x5E] EventEntity goes idle (kills current action) (animation: "idl0")
  1: 0x0142 [0x1C] WAIT(30* ticks)
  2: 0x0145 [0x00] END_REQSTACK()
```

### Event 275

#### Metadata

| Field        | Value    |
|--------------|----------|
| Entrypoint   | 0x0146   |
| Data Size    | 33 bytes |
| Instructions | 12       |

```
      00 01 02 03 04 05 06 07  08 09 0A 0B 0C 0D 0E 0F
      -- -- -- -- -- -- -- --  -- -- -- -- -- -- -- --
0140:                   1E F0  FF FF 7F 6F 70 29 08 15        .....op)..
0150: 10 0F 01 01 1D 04 80 23  1D 05 80 23 29 08 15 10  .......#...#)...
0160: 0F 01 02 20 00 21 00                              ... .!.         
```

#### Opcodes

```
  0: 0x0146 [0x1E] EventEntity looks at LocalPlayer and starts talking
  1: 0x014B [0x6F] WAIT_FRAME_DELAY: Yield until WaitTime reaches zero
  2: 0x014C [0x70] WAIT_ENTITY_RENDER_FLAG: Wait while EventEntity->Render.Flags3 bit 2 is set (cancel turn if not)
  3: 0x014D [0x29] REQ_SET_WAIT(priority=0x08, entity_id=Boizo-Naizo (ID: 17764373/0x010F1015), tag_num=0x01)
  4: 0x0154 [0x1D] PRINT_EVENT_MESSAGE(message_id=8051*)
    → "The way you're walking around here, I'd swear you think that this ministry is an unusual sight."
  5: 0x0157 [0x23] WAIT_FOR_DIALOG_INTERACTION
  6: 0x0158 [0x1D] PRINT_EVENT_MESSAGE(message_id=8052*)
    → "Hm? You think our Cardians are odd? Well, I'd say you're the odd one around herey-werey!"
  7: 0x015B [0x23] WAIT_FOR_DIALOG_INTERACTION
  8: 0x015C [0x29] REQ_SET_WAIT(priority=0x08, entity_id=Boizo-Naizo (ID: 17764373/0x010F1015), tag_num=0x02)
  9: 0x0163 [0x20] SET_CLI_EVENT_UC_FLAG: Unlock player control
 10: 0x0165 [0x21] END_EVENT
 11: 0x0166 [0x00] END_REQSTACK()
```

### Event 139

#### Metadata

| Field        | Value    |
|--------------|----------|
| Entrypoint   | 0x0167   |
| Data Size    | 37 bytes |
| Instructions | 14       |

```
      00 01 02 03 04 05 06 07  08 09 0A 0B 0C 0D 0E 0F
      -- -- -- -- -- -- -- --  -- -- -- -- -- -- -- --
0160:                      1E  F0 FF FF 7F 6F 70 29 08         .....op).
0170: 15 10 0F 01 01 1D 06 80  23 1D 07 80 23 1D 08 80  ........#...#...
0180: 23 29 08 15 10 0F 01 02  20 00 21 00              #)...... .!.    
```

#### Opcodes

```
  0: 0x0167 [0x1E] EventEntity looks at LocalPlayer and starts talking
  1: 0x016C [0x6F] WAIT_FRAME_DELAY: Yield until WaitTime reaches zero
  2: 0x016D [0x70] WAIT_ENTITY_RENDER_FLAG: Wait while EventEntity->Render.Flags3 bit 2 is set (cancel turn if not)
  3: 0x016E [0x29] REQ_SET_WAIT(priority=0x08, entity_id=Boizo-Naizo (ID: 17764373/0x010F1015), tag_num=0x01)
  4: 0x0175 [0x1D] PRINT_EVENT_MESSAGE(message_id=7754*)
    → "Almost all of the Horutoto Ruins were blown to pieces twenty years ago due to the enormous magic of the heroic "Mastermind of the Millennium.""
  5: 0x0178 [0x23] WAIT_FOR_DIALOG_INTERACTION
  6: 0x0179 [0x1D] PRINT_EVENT_MESSAGE(message_id=7755*)
    → "The only magic tower left barely functioning, the southeastern one, is totally unstable-wable in the amount of energy it produces."
  7: 0x017C [0x23] WAIT_FOR_DIALOG_INTERACTION
  8: 0x017D [0x1D] PRINT_EVENT_MESSAGE(message_id=7756*)
    → "So it's nigh on impossible to create quality Mana Orbs, which leaves us weakened dramatically."
  9: 0x0180 [0x23] WAIT_FOR_DIALOG_INTERACTION
 10: 0x0181 [0x29] REQ_SET_WAIT(priority=0x08, entity_id=Boizo-Naizo (ID: 17764373/0x010F1015), tag_num=0x02)
 11: 0x0188 [0x20] SET_CLI_EVENT_UC_FLAG: Unlock player control
 12: 0x018A [0x21] END_EVENT
 13: 0x018B [0x00] END_REQSTACK()
```

### Event 146

#### Metadata

| Field        | Value    |
|--------------|----------|
| Entrypoint   | 0x018C   |
| Data Size    | 33 bytes |
| Instructions | 12       |

```
      00 01 02 03 04 05 06 07  08 09 0A 0B 0C 0D 0E 0F
      -- -- -- -- -- -- -- --  -- -- -- -- -- -- -- --
0180:                                      1E F0 FF FF              ....
0190: 7F 6F 70 29 08 15 10 0F  01 01 1D 09 80 23 1D 0A  .op).........#..
01A0: 80 23 29 08 15 10 0F 01  02 20 00 21 00           .#)...... .!.   
```

#### Opcodes

```
  0: 0x018C [0x1E] EventEntity looks at LocalPlayer and starts talking
  1: 0x0191 [0x6F] WAIT_FRAME_DELAY: Yield until WaitTime reaches zero
  2: 0x0192 [0x70] WAIT_ENTITY_RENDER_FLAG: Wait while EventEntity->Render.Flags3 bit 2 is set (cancel turn if not)
  3: 0x0193 [0x29] REQ_SET_WAIT(priority=0x08, entity_id=Boizo-Naizo (ID: 17764373/0x010F1015), tag_num=0x01)
  4: 0x019A [0x1D] PRINT_EVENT_MESSAGE(message_id=7775*)
    → "When you go about breathing life into the inanimate, who knows what will happen? We're just asking for trouble."
  5: 0x019D [0x23] WAIT_FOR_DIALOG_INTERACTION
  6: 0x019E [0x1D] PRINT_EVENT_MESSAGE(message_id=7776*)
    → "But that's just a risk we Manustery employees have to take! It's just that...I wish they paid us a little more as hazard pay."
  7: 0x01A1 [0x23] WAIT_FOR_DIALOG_INTERACTION
  8: 0x01A2 [0x29] REQ_SET_WAIT(priority=0x08, entity_id=Boizo-Naizo (ID: 17764373/0x010F1015), tag_num=0x02)
  9: 0x01A9 [0x20] SET_CLI_EVENT_UC_FLAG: Unlock player control
 10: 0x01AB [0x21] END_EVENT
 11: 0x01AC [0x00] END_REQSTACK()
```

### Event 290

#### Metadata

| Field        | Value    |
|--------------|----------|
| Entrypoint   | 0x01AD   |
| Data Size    | 33 bytes |
| Instructions | 12       |

```
      00 01 02 03 04 05 06 07  08 09 0A 0B 0C 0D 0E 0F
      -- -- -- -- -- -- -- --  -- -- -- -- -- -- -- --
01A0:                                         1E F0 FF               ...
01B0: FF 7F 6F 70 29 08 15 10  0F 01 01 1D 0B 80 23 1D  ..op).........#.
01C0: 0C 80 23 29 08 15 10 0F  01 02 20 00 21 00        ..#)...... .!.  
```

#### Opcodes

```
  0: 0x01AD [0x1E] EventEntity looks at LocalPlayer and starts talking
  1: 0x01B2 [0x6F] WAIT_FRAME_DELAY: Yield until WaitTime reaches zero
  2: 0x01B3 [0x70] WAIT_ENTITY_RENDER_FLAG: Wait while EventEntity->Render.Flags3 bit 2 is set (cancel turn if not)
  3: 0x01B4 [0x29] REQ_SET_WAIT(priority=0x08, entity_id=Boizo-Naizo (ID: 17764373/0x010F1015), tag_num=0x01)
  4: 0x01BB [0x1D] PRINT_EVENT_MESSAGE(message_id=8086*)
    → "The Cardians that Kopuro-Popuro makes cause all sorts of trouble. We can't take our eyes off of them for too long..."
  5: 0x01BE [0x23] WAIT_FOR_DIALOG_INTERACTION
  6: 0x01BF [0x1D] PRINT_EVENT_MESSAGE(message_id=8087*)
    → "Minister Apururu is too soft on him. The future of our Manustery is bleak indeed!"
  7: 0x01C2 [0x23] WAIT_FOR_DIALOG_INTERACTION
  8: 0x01C3 [0x29] REQ_SET_WAIT(priority=0x08, entity_id=Boizo-Naizo (ID: 17764373/0x010F1015), tag_num=0x02)
  9: 0x01CA [0x20] SET_CLI_EVENT_UC_FLAG: Unlock player control
 10: 0x01CC [0x21] END_EVENT
 11: 0x01CD [0x00] END_REQSTACK()
```

### Event 302

#### Metadata

| Field        | Value    |
|--------------|----------|
| Entrypoint   | 0x01CE   |
| Data Size    | 33 bytes |
| Instructions | 12       |

```
      00 01 02 03 04 05 06 07  08 09 0A 0B 0C 0D 0E 0F
      -- -- -- -- -- -- -- --  -- -- -- -- -- -- -- --
01C0:                                            1E F0                ..
01D0: FF FF 7F 6F 70 29 08 15  10 0F 01 01 1D 0D 80 23  ...op).........#
01E0: 1D 0E 80 23 29 08 15 10  0F 01 02 20 00 21 00     ...#)...... .!. 
```

#### Opcodes

```
  0: 0x01CE [0x1E] EventEntity looks at LocalPlayer and starts talking
  1: 0x01D3 [0x6F] WAIT_FRAME_DELAY: Yield until WaitTime reaches zero
  2: 0x01D4 [0x70] WAIT_ENTITY_RENDER_FLAG: Wait while EventEntity->Render.Flags3 bit 2 is set (cancel turn if not)
  3: 0x01D5 [0x29] REQ_SET_WAIT(priority=0x08, entity_id=Boizo-Naizo (ID: 17764373/0x010F1015), tag_num=0x01)
  4: 0x01DC [0x1D] PRINT_EVENT_MESSAGE(message_id=8127*)
    → "I believe that particular Cardian you speak of was made by Kopuro-Popuro."
  5: 0x01DF [0x23] WAIT_FOR_DIALOG_INTERACTION
  6: 0x01E0 [0x1D] PRINT_EVENT_MESSAGE(message_id=8128*)
    → "Kopuro-Popuro has a habit of forgetting important things while always remembering the most useless of information. Like father, like son, eh?"
  7: 0x01E3 [0x23] WAIT_FOR_DIALOG_INTERACTION
  8: 0x01E4 [0x29] REQ_SET_WAIT(priority=0x08, entity_id=Boizo-Naizo (ID: 17764373/0x010F1015), tag_num=0x02)
  9: 0x01EB [0x20] SET_CLI_EVENT_UC_FLAG: Unlock player control
 10: 0x01ED [0x21] END_EVENT
 11: 0x01EE [0x00] END_REQSTACK()
```

### Event 307

#### Metadata

| Field        | Value    |
|--------------|----------|
| Entrypoint   | 0x01EF   |
| Data Size    | 33 bytes |
| Instructions | 12       |

```
      00 01 02 03 04 05 06 07  08 09 0A 0B 0C 0D 0E 0F
      -- -- -- -- -- -- -- --  -- -- -- -- -- -- -- --
01E0:                                               1E                 .
01F0: F0 FF FF 7F 6F 70 29 08  15 10 0F 01 01 1D 0F 80  ....op).........
0200: 23 1D 10 80 23 29 08 15  10 0F 01 02 20 00 21 00  #...#)...... .!.
```

#### Opcodes

```
  0: 0x01EF [0x1E] EventEntity looks at LocalPlayer and starts talking
  1: 0x01F4 [0x6F] WAIT_FRAME_DELAY: Yield until WaitTime reaches zero
  2: 0x01F5 [0x70] WAIT_ENTITY_RENDER_FLAG: Wait while EventEntity->Render.Flags3 bit 2 is set (cancel turn if not)
  3: 0x01F6 [0x29] REQ_SET_WAIT(priority=0x08, entity_id=Boizo-Naizo (ID: 17764373/0x010F1015), tag_num=0x01)
  4: 0x01FD [0x1D] PRINT_EVENT_MESSAGE(message_id=8138*)
    → "I don't think we should force Cardians to forget things they don't want to forget."
  5: 0x0200 [0x23] WAIT_FOR_DIALOG_INTERACTION
  6: 0x0201 [0x1D] PRINT_EVENT_MESSAGE(message_id=8139*)
    → "It wouldn't hurt for our Cardians to have a little more individuality now, would it?"
  7: 0x0204 [0x23] WAIT_FOR_DIALOG_INTERACTION
  8: 0x0205 [0x29] REQ_SET_WAIT(priority=0x08, entity_id=Boizo-Naizo (ID: 17764373/0x010F1015), tag_num=0x02)
  9: 0x020C [0x20] SET_CLI_EVENT_UC_FLAG: Unlock player control
 10: 0x020E [0x21] END_EVENT
 11: 0x020F [0x00] END_REQSTACK()
```

### Event 308

#### Metadata

| Field        | Value   |
|--------------|---------|
| Entrypoint   | 0x0210  |
| Data Size    | 1 bytes |
| Instructions | 1       |

```
      00 01 02 03 04 05 06 07  08 09 0A 0B 0C 0D 0E 0F
      -- -- -- -- -- -- -- --  -- -- -- -- -- -- -- --
0210: 00                                                .               
```

#### Opcodes

```
  0: 0x0210 [0x00] END_REQSTACK()
```

### Event 65535.22

#### Metadata

| Field        | Value   |
|--------------|---------|
| Entrypoint   | 0x0211  |
| Data Size    | 5 bytes |
| Instructions | 3       |

```
      00 01 02 03 04 05 06 07  08 09 0A 0B 0C 0D 0E 0F
      -- -- -- -- -- -- -- --  -- -- -- -- -- -- -- --
0210:    1D 11 80 23 00                                  ...#.          
```

#### Opcodes

```
  0: 0x0211 [0x1D] PRINT_EVENT_MESSAGE(message_id=8146*)
    → "Plan B?"
  1: 0x0214 [0x23] WAIT_FOR_DIALOG_INTERACTION
  2: 0x0215 [0x00] END_REQSTACK()
```

### Event 65535.23

#### Metadata

| Field        | Value    |
|--------------|----------|
| Entrypoint   | 0x0216   |
| Data Size    | 19 bytes |
| Instructions | 5        |

```
      00 01 02 03 04 05 06 07  08 09 0A 0B 0C 0D 0E 0F
      -- -- -- -- -- -- -- --  -- -- -- -- -- -- -- --
0210:                   29 08  15 10 0F 01 03 1D 12 80        ).........
0220: 23 29 08 15 10 0F 01 04  00                       #).......       
```

#### Opcodes

```
  0: 0x0216 [0x29] REQ_SET_WAIT(priority=0x08, entity_id=Boizo-Naizo (ID: 17764373/0x010F1015), tag_num=0x03)
  1: 0x021D [0x1D] PRINT_EVENT_MESSAGE(message_id=8152*)
    → "Hmm... Oh, really? Well, I don't know whether it's true or just an old wives' tale, but we could make a load of gil by selling such charms to the local goods stores, couldn'taru we?"
  2: 0x0220 [0x23] WAIT_FOR_DIALOG_INTERACTION
  3: 0x0221 [0x29] REQ_SET_WAIT(priority=0x08, entity_id=Boizo-Naizo (ID: 17764373/0x010F1015), tag_num=0x04)
  4: 0x0228 [0x00] END_REQSTACK()
```

### Event 65535.24

#### Metadata

| Field        | Value    |
|--------------|----------|
| Entrypoint   | 0x0229   |
| Data Size    | 19 bytes |
| Instructions | 5        |

```
      00 01 02 03 04 05 06 07  08 09 0A 0B 0C 0D 0E 0F
      -- -- -- -- -- -- -- --  -- -- -- -- -- -- -- --
0220:                             29 08 15 10 0F 01 05           )......
0230: 1D 13 80 23 29 08 15 10  0F 01 06 00              ...#).......    
```

#### Opcodes

```
  0: 0x0229 [0x29] REQ_SET_WAIT(priority=0x08, entity_id=Boizo-Naizo (ID: 17764373/0x010F1015), tag_num=0x05)
  1: 0x0230 [0x1D] PRINT_EVENT_MESSAGE(message_id=8153*)
    → "That was mighty useful information, especially coming from the likes of Kopuro-Popuro. So, how does one go about making these "Gadabout's Gris-gris" thingamabobs?"
  2: 0x0233 [0x23] WAIT_FOR_DIALOG_INTERACTION
  3: 0x0234 [0x29] REQ_SET_WAIT(priority=0x08, entity_id=Boizo-Naizo (ID: 17764373/0x010F1015), tag_num=0x06)
  4: 0x023B [0x00] END_REQSTACK()
```

### Event 65535.25

#### Metadata

| Field        | Value    |
|--------------|----------|
| Entrypoint   | 0x023C   |
| Data Size    | 19 bytes |
| Instructions | 5        |

```
      00 01 02 03 04 05 06 07  08 09 0A 0B 0C 0D 0E 0F
      -- -- -- -- -- -- -- --  -- -- -- -- -- -- -- --
0230:                                      29 08 15 10              )...
0240: 0F 01 01 1D 14 80 23 29  08 15 10 0F 01 02 00     ......#)....... 
```

#### Opcodes

```
  0: 0x023C [0x29] REQ_SET_WAIT(priority=0x08, entity_id=Boizo-Naizo (ID: 17764373/0x010F1015), tag_num=0x01)
  1: 0x0243 [0x1D] PRINT_EVENT_MESSAGE(message_id=8156*)
    → "I see... Great! Then we'll just make a heap of them to sell. We'll have money back in the Manustery's coffers in no time!"
  2: 0x0246 [0x23] WAIT_FOR_DIALOG_INTERACTION
  3: 0x0247 [0x29] REQ_SET_WAIT(priority=0x08, entity_id=Boizo-Naizo (ID: 17764373/0x010F1015), tag_num=0x02)
  4: 0x024E [0x00] END_REQSTACK()
```

### Event 311

#### Metadata

| Field        | Value    |
|--------------|----------|
| Entrypoint   | 0x024F   |
| Data Size    | 33 bytes |
| Instructions | 12       |

```
      00 01 02 03 04 05 06 07  08 09 0A 0B 0C 0D 0E 0F
      -- -- -- -- -- -- -- --  -- -- -- -- -- -- -- --
0240:                                               1E                 .
0250: F0 FF FF 7F 6F 70 29 08  15 10 0F 01 01 1D 15 80  ....op).........
0260: 23 1D 16 80 23 29 08 15  10 0F 01 02 20 00 21 00  #...#)...... .!.
```

#### Opcodes

```
  0: 0x024F [0x1E] EventEntity looks at LocalPlayer and starts talking
  1: 0x0254 [0x6F] WAIT_FRAME_DELAY: Yield until WaitTime reaches zero
  2: 0x0255 [0x70] WAIT_ENTITY_RENDER_FLAG: Wait while EventEntity->Render.Flags3 bit 2 is set (cancel turn if not)
  3: 0x0256 [0x29] REQ_SET_WAIT(priority=0x08, entity_id=Boizo-Naizo (ID: 17764373/0x010F1015), tag_num=0x01)
  4: 0x025D [0x1D] PRINT_EVENT_MESSAGE(message_id=8161*)
    → "So...I wonder how many of these "Gadabout's Gris-gris" thingamabobs we have to make to bring our budget back into the black."
  5: 0x0260 [0x23] WAIT_FOR_DIALOG_INTERACTION
  6: 0x0261 [0x1D] PRINT_EVENT_MESSAGE(message_id=8162*)
    → "Well, finances aren't my concern, so I'll just concentrate on making the goods. I'll just keep making "Gadabout's Gris-gris" until we all drop from exhaustion."
  7: 0x0264 [0x23] WAIT_FOR_DIALOG_INTERACTION
  8: 0x0265 [0x29] REQ_SET_WAIT(priority=0x08, entity_id=Boizo-Naizo (ID: 17764373/0x010F1015), tag_num=0x02)
  9: 0x026C [0x20] SET_CLI_EVENT_UC_FLAG: Unlock player control
 10: 0x026E [0x21] END_EVENT
 11: 0x026F [0x00] END_REQSTACK()
```

### Event 314

#### Metadata

| Field        | Value   |
|--------------|---------|
| Entrypoint   | 0x0270  |
| Data Size    | 1 bytes |
| Instructions | 1       |

```
      00 01 02 03 04 05 06 07  08 09 0A 0B 0C 0D 0E 0F
      -- -- -- -- -- -- -- --  -- -- -- -- -- -- -- --
0270: 00                                                .               
```

#### Opcodes

```
  0: 0x0270 [0x00] END_REQSTACK()
```

### Event 315

#### Metadata

| Field        | Value    |
|--------------|----------|
| Entrypoint   | 0x0271   |
| Data Size    | 29 bytes |
| Instructions | 10       |

```
      00 01 02 03 04 05 06 07  08 09 0A 0B 0C 0D 0E 0F
      -- -- -- -- -- -- -- --  -- -- -- -- -- -- -- --
0270:    1E F0 FF FF 7F 6F 70  29 08 15 10 0F 01 0B 1D   .....op).......
0280: 17 80 23 29 08 15 10 0F  01 0C 20 00 21 00        ..#)...... .!.  
```

#### Opcodes

```
  0: 0x0271 [0x1E] EventEntity looks at LocalPlayer and starts talking
  1: 0x0276 [0x6F] WAIT_FRAME_DELAY: Yield until WaitTime reaches zero
  2: 0x0277 [0x70] WAIT_ENTITY_RENDER_FLAG: Wait while EventEntity->Render.Flags3 bit 2 is set (cancel turn if not)
  3: 0x0278 [0x29] REQ_SET_WAIT(priority=0x08, entity_id=Boizo-Naizo (ID: 17764373/0x010F1015), tag_num=0x0B)
  4: 0x027F [0x1D] PRINT_EVENT_MESSAGE(message_id=8172*)
    → "<Sigh>... I know, I know...you don't have to tell me. I should have realized this was a stupid idea earlier..."
  5: 0x0282 [0x23] WAIT_FOR_DIALOG_INTERACTION
  6: 0x0283 [0x29] REQ_SET_WAIT(priority=0x08, entity_id=Boizo-Naizo (ID: 17764373/0x010F1015), tag_num=0x0C)
  7: 0x028A [0x20] SET_CLI_EVENT_UC_FLAG: Unlock player control
  8: 0x028C [0x21] END_EVENT
  9: 0x028D [0x00] END_REQSTACK()
```

### Event 395

#### Metadata

| Field        | Value    |
|--------------|----------|
| Entrypoint   | 0x028E   |
| Data Size    | 33 bytes |
| Instructions | 12       |

```
      00 01 02 03 04 05 06 07  08 09 0A 0B 0C 0D 0E 0F
      -- -- -- -- -- -- -- --  -- -- -- -- -- -- -- --
0280:                                            1E F0                ..
0290: FF FF 7F 6F 70 29 08 15  10 0F 01 01 1D 18 80 23  ...op).........#
02A0: 1D 19 80 23 29 08 15 10  0F 01 02 20 00 21 00     ...#)...... .!. 
```

#### Opcodes

```
  0: 0x028E [0x1E] EventEntity looks at LocalPlayer and starts talking
  1: 0x0293 [0x6F] WAIT_FRAME_DELAY: Yield until WaitTime reaches zero
  2: 0x0294 [0x70] WAIT_ENTITY_RENDER_FLAG: Wait while EventEntity->Render.Flags3 bit 2 is set (cancel turn if not)
  3: 0x0295 [0x29] REQ_SET_WAIT(priority=0x08, entity_id=Boizo-Naizo (ID: 17764373/0x010F1015), tag_num=0x01)
  4: 0x029C [0x1D] PRINT_EVENT_MESSAGE(message_id=8468*)
    → "Cardian Cards have the ability to dispel the magic that has been placed on Cardians...it's kind of like an emergency stop or self-destruct button."
  5: 0x029F [0x23] WAIT_FOR_DIALOG_INTERACTION
  6: 0x02A0 [0x1D] PRINT_EVENT_MESSAGE(message_id=8469*)
    → "Minister Apururu's father, the previous minister of our Manustery, could even remove magic without the use of Cards...but without him to show us, it's impossible for us to do it."
  7: 0x02A3 [0x23] WAIT_FOR_DIALOG_INTERACTION
  8: 0x02A4 [0x29] REQ_SET_WAIT(priority=0x08, entity_id=Boizo-Naizo (ID: 17764373/0x010F1015), tag_num=0x02)
  9: 0x02AB [0x20] SET_CLI_EVENT_UC_FLAG: Unlock player control
 10: 0x02AD [0x21] END_EVENT
 11: 0x02AE [0x00] END_REQSTACK()
```

### Event 400

#### Metadata

| Field        | Value    |
|--------------|----------|
| Entrypoint   | 0x02AF   |
| Data Size    | 33 bytes |
| Instructions | 12       |

```
      00 01 02 03 04 05 06 07  08 09 0A 0B 0C 0D 0E 0F
      -- -- -- -- -- -- -- --  -- -- -- -- -- -- -- --
02A0:                                               1E                 .
02B0: F0 FF FF 7F 6F 70 29 08  15 10 0F 01 01 1D 1A 80  ....op).........
02C0: 23 1D 1B 80 23 29 08 15  10 0F 01 02 20 00 21 00  #...#)...... .!.
```

#### Opcodes

```
  0: 0x02AF [0x1E] EventEntity looks at LocalPlayer and starts talking
  1: 0x02B4 [0x6F] WAIT_FRAME_DELAY: Yield until WaitTime reaches zero
  2: 0x02B5 [0x70] WAIT_ENTITY_RENDER_FLAG: Wait while EventEntity->Render.Flags3 bit 2 is set (cancel turn if not)
  3: 0x02B6 [0x29] REQ_SET_WAIT(priority=0x08, entity_id=Boizo-Naizo (ID: 17764373/0x010F1015), tag_num=0x01)
  4: 0x02BD [0x1D] PRINT_EVENT_MESSAGE(message_id=8479*)
    → "The minister is so determined-wermined. I don'taru want her to go through with this, but it looks like nothing would stop her now."
  5: 0x02C0 [0x23] WAIT_FOR_DIALOG_INTERACTION
  6: 0x02C1 [0x1D] PRINT_EVENT_MESSAGE(message_id=8480*)
    → "She tends to get carried away when it comes to matters about her father. We have to look out for her as much as we can!"
  7: 0x02C4 [0x23] WAIT_FOR_DIALOG_INTERACTION
  8: 0x02C5 [0x29] REQ_SET_WAIT(priority=0x08, entity_id=Boizo-Naizo (ID: 17764373/0x010F1015), tag_num=0x02)
  9: 0x02CC [0x20] SET_CLI_EVENT_UC_FLAG: Unlock player control
 10: 0x02CE [0x21] END_EVENT
 11: 0x02CF [0x00] END_REQSTACK()
```

### Event 319

#### Metadata

| Field        | Value    |
|--------------|----------|
| Entrypoint   | 0x02D0   |
| Data Size    | 10 bytes |
| Instructions | 2        |

```
      00 01 02 03 04 05 06 07  08 09 0A 0B 0C 0D 0E 0F
      -- -- -- -- -- -- -- --  -- -- -- -- -- -- -- --
02D0: 37 1C 80 1D 80 1E 80 1F  80 00                    7.........      
```

#### Opcodes

```
  0: 0x02D0 [0x37] UPDATE_EVENT_POSITION_AND_DIR: x=-4.447*, z=-23.492*, y=-3.749*, direction=15.6°*
  1: 0x02D9 [0x00] END_REQSTACK()
```

### Event 323

#### Metadata

| Field        | Value    |
|--------------|----------|
| Entrypoint   | 0x02DA   |
| Data Size    | 39 bytes |
| Instructions | 10       |

```
      00 01 02 03 04 05 06 07  08 09 0A 0B 0C 0D 0E 0F
      -- -- -- -- -- -- -- --  -- -- -- -- -- -- -- --
02D0:                                1E F0 FF FF 7F 6F            .....o
02E0: 70 29 0B 15 10 0F 01 28  29 0B 15 10 0F 01 29 29  p).....().....))
02F0: 0B 15 10 0F 01 2A 29 0B  15 10 0F 01 2B 20 00 21  .....*).....+ .!
0300: 00                                                .               
```

#### Opcodes

```
  0: 0x02DA [0x1E] EventEntity looks at LocalPlayer and starts talking
  1: 0x02DF [0x6F] WAIT_FRAME_DELAY: Yield until WaitTime reaches zero
  2: 0x02E0 [0x70] WAIT_ENTITY_RENDER_FLAG: Wait while EventEntity->Render.Flags3 bit 2 is set (cancel turn if not)
  3: 0x02E1 [0x29] REQ_SET_WAIT(priority=0x0B, entity_id=Boizo-Naizo (ID: 17764373/0x010F1015), tag_num=0x28)
  4: 0x02E8 [0x29] REQ_SET_WAIT(priority=0x0B, entity_id=Boizo-Naizo (ID: 17764373/0x010F1015), tag_num=0x29)
  5: 0x02EF [0x29] REQ_SET_WAIT(priority=0x0B, entity_id=Boizo-Naizo (ID: 17764373/0x010F1015), tag_num=0x2A)
  6: 0x02F6 [0x29] REQ_SET_WAIT(priority=0x0B, entity_id=Boizo-Naizo (ID: 17764373/0x010F1015), tag_num=0x2B)
  7: 0x02FD [0x20] SET_CLI_EVENT_UC_FLAG: Unlock player control
  8: 0x02FF [0x21] END_EVENT
  9: 0x0300 [0x00] END_REQSTACK()
```

### Event 65535.26

#### Metadata

| Field        | Value    |
|--------------|----------|
| Entrypoint   | 0x0301   |
| Data Size    | 19 bytes |
| Instructions | 5        |

```
      00 01 02 03 04 05 06 07  08 09 0A 0B 0C 0D 0E 0F
      -- -- -- -- -- -- -- --  -- -- -- -- -- -- -- --
0300:    29 08 15 10 0F 01 09  1D 20 80 23 29 08 15 10   )....... .#)...
0310: 0F 01 0A 00                                       ....            
```

#### Opcodes

```
  0: 0x0301 [0x29] REQ_SET_WAIT(priority=0x08, entity_id=Boizo-Naizo (ID: 17764373/0x010F1015), tag_num=0x09)
  1: 0x0308 [0x1D] PRINT_EVENT_MESSAGE(message_id=8199*)
    → "What the...? She's offered to pay you $1 gil to find our missing Cardian? That's just the kind of stupid thing that puts us further and further into the red!"
  2: 0x030B [0x23] WAIT_FOR_DIALOG_INTERACTION
  3: 0x030C [0x29] REQ_SET_WAIT(priority=0x08, entity_id=Boizo-Naizo (ID: 17764373/0x010F1015), tag_num=0x0A)
  4: 0x0313 [0x00] END_REQSTACK()
```

### Event 65535.27

#### Metadata

| Field        | Value    |
|--------------|----------|
| Entrypoint   | 0x0314   |
| Data Size    | 23 bytes |
| Instructions | 7        |

```
      00 01 02 03 04 05 06 07  08 09 0A 0B 0C 0D 0E 0F
      -- -- -- -- -- -- -- --  -- -- -- -- -- -- -- --
0310:             29 08 15 10  0F 01 0D 1D 21 80 23 1D      ).......!.#.
0320: 22 80 23 29 08 15 10 0F  01 0E 00                 ".#).......     
```

#### Opcodes

```
  0: 0x0314 [0x29] REQ_SET_WAIT(priority=0x08, entity_id=Boizo-Naizo (ID: 17764373/0x010F1015), tag_num=0x0D)
  1: 0x031B [0x1D] PRINT_EVENT_MESSAGE(message_id=8200*)
    → "If that Cardian's on its way back here, then it only means it's going to kick the bucket at any moment, rightaru?"
  2: 0x031E [0x23] WAIT_FOR_DIALOG_INTERACTION
  3: 0x031F [0x1D] PRINT_EVENT_MESSAGE(message_id=8201*)
    → "So why pay such a high price to find something as drop-dead useless as thataru!?"
  4: 0x0322 [0x23] WAIT_FOR_DIALOG_INTERACTION
  5: 0x0323 [0x29] REQ_SET_WAIT(priority=0x08, entity_id=Boizo-Naizo (ID: 17764373/0x010F1015), tag_num=0x0E)
  6: 0x032A [0x00] END_REQSTACK()
```

### Event 65535.28

#### Metadata

| Field        | Value    |
|--------------|----------|
| Entrypoint   | 0x032B   |
| Data Size    | 19 bytes |
| Instructions | 5        |

```
      00 01 02 03 04 05 06 07  08 09 0A 0B 0C 0D 0E 0F
      -- -- -- -- -- -- -- --  -- -- -- -- -- -- -- --
0320:                                   29 08 15 10 0F             )....
0330: 01 03 1D 23 80 23 29 08  15 10 0F 01 04 00        ...#.#).......  
```

#### Opcodes

```
  0: 0x032B [0x29] REQ_SET_WAIT(priority=0x08, entity_id=Boizo-Naizo (ID: 17764373/0x010F1015), tag_num=0x03)
  1: 0x0332 [0x1D] PRINT_EVENT_MESSAGE(message_id=8202*)
    → "It's like, why spend so much money on silly personal sentiments, when putting that gil towards creating a new Cardian is in everybody's interests?"
  2: 0x0335 [0x23] WAIT_FOR_DIALOG_INTERACTION
  3: 0x0336 [0x29] REQ_SET_WAIT(priority=0x08, entity_id=Boizo-Naizo (ID: 17764373/0x010F1015), tag_num=0x04)
  4: 0x033D [0x00] END_REQSTACK()
```

### Event 65535.29

#### Metadata

| Field        | Value    |
|--------------|----------|
| Entrypoint   | 0x033E   |
| Data Size    | 37 bytes |
| Instructions | 9        |

```
      00 01 02 03 04 05 06 07  08 09 0A 0B 0C 0D 0E 0F
      -- -- -- -- -- -- -- --  -- -- -- -- -- -- -- --
0330:                                            29 08                ).
0340: 15 10 0F 01 05 1D 24 80  23 29 08 15 10 0F 01 06  ......$.#)......
0350: 29 08 15 10 0F 01 11 1D  25 80 23 29 08 15 10 0F  ).......%.#)....
0360: 01 12 00                                          ...             
```

#### Opcodes

```
  0: 0x033E [0x29] REQ_SET_WAIT(priority=0x08, entity_id=Boizo-Naizo (ID: 17764373/0x010F1015), tag_num=0x05)
  1: 0x0345 [0x1D] PRINT_EVENT_MESSAGE(message_id=8203*)
    → "I'm sorry, but this time I'm going to have to put it to our Minister quite bluntly-wuntly!"
  2: 0x0348 [0x23] WAIT_FOR_DIALOG_INTERACTION
  3: 0x0349 [0x29] REQ_SET_WAIT(priority=0x08, entity_id=Boizo-Naizo (ID: 17764373/0x010F1015), tag_num=0x06)
  4: 0x0350 [0x29] REQ_SET_WAIT(priority=0x08, entity_id=Boizo-Naizo (ID: 17764373/0x010F1015), tag_num=0x11)
  5: 0x0357 [0x1D] PRINT_EVENT_MESSAGE(message_id=8204*)
    → "Even if you or anyone else finds old Queen of Diamonds for us, we won't be coughing up a single gil, I tell you! I'm totally against such tomfoolery!"
  6: 0x035A [0x23] WAIT_FOR_DIALOG_INTERACTION
  7: 0x035B [0x29] REQ_SET_WAIT(priority=0x08, entity_id=Boizo-Naizo (ID: 17764373/0x010F1015), tag_num=0x12)
  8: 0x0362 [0x00] END_REQSTACK()
```

### Event 324

#### Metadata

| Field        | Value    |
|--------------|----------|
| Entrypoint   | 0x0363   |
| Data Size    | 33 bytes |
| Instructions | 12       |

```
      00 01 02 03 04 05 06 07  08 09 0A 0B 0C 0D 0E 0F
      -- -- -- -- -- -- -- --  -- -- -- -- -- -- -- --
0360:          1E F0 FF FF 7F  6F 70 29 08 15 10 0F 01     .....op).....
0370: 11 1D 26 80 23 1D 27 80  23 29 08 15 10 0F 01 12  ..&.#.'.#)......
0380: 20 00 21 00                                        .!.            
```

#### Opcodes

```
  0: 0x0363 [0x1E] EventEntity looks at LocalPlayer and starts talking
  1: 0x0368 [0x6F] WAIT_FRAME_DELAY: Yield until WaitTime reaches zero
  2: 0x0369 [0x70] WAIT_ENTITY_RENDER_FLAG: Wait while EventEntity->Render.Flags3 bit 2 is set (cancel turn if not)
  3: 0x036A [0x29] REQ_SET_WAIT(priority=0x08, entity_id=Boizo-Naizo (ID: 17764373/0x010F1015), tag_num=0x11)
  4: 0x0371 [0x1D] PRINT_EVENT_MESSAGE(message_id=8205*)
    → "First, against nature, you go provide lifeforce to empty vessels. Then you send them out into the battlefields. If you're going to cry about it when they drop dead, then you'd might as well not make the damned things to begin with!"
  5: 0x0374 [0x23] WAIT_FOR_DIALOG_INTERACTION
  6: 0x0375 [0x1D] PRINT_EVENT_MESSAGE(message_id=8206*)
    → "Even if you or anyone else finds old Queen of Diamonds for us, we won't be coughing up a single gil, I tell you! I'm totally against such tomfoolery!"
  7: 0x0378 [0x23] WAIT_FOR_DIALOG_INTERACTION
  8: 0x0379 [0x29] REQ_SET_WAIT(priority=0x08, entity_id=Boizo-Naizo (ID: 17764373/0x010F1015), tag_num=0x12)
  9: 0x0380 [0x20] SET_CLI_EVENT_UC_FLAG: Unlock player control
 10: 0x0382 [0x21] END_EVENT
 11: 0x0383 [0x00] END_REQSTACK()
```

### Event 327

#### Metadata

| Field        | Value    |
|--------------|----------|
| Entrypoint   | 0x0384   |
| Data Size    | 33 bytes |
| Instructions | 12       |

```
      00 01 02 03 04 05 06 07  08 09 0A 0B 0C 0D 0E 0F
      -- -- -- -- -- -- -- --  -- -- -- -- -- -- -- --
0380:             1E F0 FF FF  7F 6F 70 29 08 15 10 0F      .....op)....
0390: 01 07 1D 28 80 23 29 08  15 10 0F 01 08 1D 29 80  ...(.#).......).
03A0: 23 20 00 21 00                                    # .!.           
```

#### Opcodes

```
  0: 0x0384 [0x1E] EventEntity looks at LocalPlayer and starts talking
  1: 0x0389 [0x6F] WAIT_FRAME_DELAY: Yield until WaitTime reaches zero
  2: 0x038A [0x70] WAIT_ENTITY_RENDER_FLAG: Wait while EventEntity->Render.Flags3 bit 2 is set (cancel turn if not)
  3: 0x038B [0x29] REQ_SET_WAIT(priority=0x08, entity_id=Boizo-Naizo (ID: 17764373/0x010F1015), tag_num=0x07)
  4: 0x0392 [0x1D] PRINT_EVENT_MESSAGE(message_id=8214*)
    → "......"
  5: 0x0395 [0x23] WAIT_FOR_DIALOG_INTERACTION
  6: 0x0396 [0x29] REQ_SET_WAIT(priority=0x08, entity_id=Boizo-Naizo (ID: 17764373/0x010F1015), tag_num=0x08)
  7: 0x039D [0x1D] PRINT_EVENT_MESSAGE(message_id=8215*)
    → "Oh, that's worthless. Such garbage deserves to be thrown into the trashcan."
  8: 0x03A0 [0x23] WAIT_FOR_DIALOG_INTERACTION
  9: 0x03A1 [0x20] SET_CLI_EVENT_UC_FLAG: Unlock player control
 10: 0x03A3 [0x21] END_EVENT
 11: 0x03A4 [0x00] END_REQSTACK()
```

### Event 325

#### Metadata

| Field        | Value   |
|--------------|---------|
| Entrypoint   | 0x03A5  |
| Data Size    | 1 bytes |
| Instructions | 1       |

```
      00 01 02 03 04 05 06 07  08 09 0A 0B 0C 0D 0E 0F
      -- -- -- -- -- -- -- --  -- -- -- -- -- -- -- --
03A0:                00                                      .          
```

#### Opcodes

```
  0: 0x03A5 [0x00] END_REQSTACK()
```

### Event 65535.30

#### Metadata

| Field        | Value    |
|--------------|----------|
| Entrypoint   | 0x03A6   |
| Data Size    | 19 bytes |
| Instructions | 5        |

```
      00 01 02 03 04 05 06 07  08 09 0A 0B 0C 0D 0E 0F
      -- -- -- -- -- -- -- --  -- -- -- -- -- -- -- --
03A0:                   29 08  15 10 0F 01 11 1D 2A 80        ).......*.
03B0: 23 29 08 15 10 0F 01 12  00                       #).......       
```

#### Opcodes

```
  0: 0x03A6 [0x29] REQ_SET_WAIT(priority=0x08, entity_id=Boizo-Naizo (ID: 17764373/0x010F1015), tag_num=0x11)
  1: 0x03AD [0x1D] PRINT_EVENT_MESSAGE(message_id=8216*)
    → "Oh, I see you found a piece of her, huh? This nut is indeed part of what was once the great Queen of Diamonds."
  2: 0x03B0 [0x23] WAIT_FOR_DIALOG_INTERACTION
  3: 0x03B1 [0x29] REQ_SET_WAIT(priority=0x08, entity_id=Boizo-Naizo (ID: 17764373/0x010F1015), tag_num=0x12)
  4: 0x03B8 [0x00] END_REQSTACK()
```

### Event 65535.31

#### Metadata

| Field        | Value    |
|--------------|----------|
| Entrypoint   | 0x03B9   |
| Data Size    | 30 bytes |
| Instructions | 10       |

```
      00 01 02 03 04 05 06 07  08 09 0A 0B 0C 0D 0E 0F
      -- -- -- -- -- -- -- --  -- -- -- -- -- -- -- --
03B0:                             1D 2B 80 23 1E F0 FF           .+.#...
03C0: FF 7F 6F 70 29 08 15 10  0F 01 0F 1D 2C 80 23 29  ..op).......,.#)
03D0: 08 15 10 0F 01 10 00                              .......         
```

#### Opcodes

```
  0: 0x03B9 [0x1D] PRINT_EVENT_MESSAGE(message_id=8217*)
    → "Its marking has worn away, but I know a diamond house when I see it. See, I'm the one who makes the Diamond Cardians, you know?"
  1: 0x03BC [0x23] WAIT_FOR_DIALOG_INTERACTION
  2: 0x03BD [0x1E] EventEntity looks at LocalPlayer and starts talking
  3: 0x03C2 [0x6F] WAIT_FRAME_DELAY: Yield until WaitTime reaches zero
  4: 0x03C3 [0x70] WAIT_ENTITY_RENDER_FLAG: Wait while EventEntity->Render.Flags3 bit 2 is set (cancel turn if not)
  5: 0x03C4 [0x29] REQ_SET_WAIT(priority=0x08, entity_id=Boizo-Naizo (ID: 17764373/0x010F1015), tag_num=0x0F)
  6: 0x03CB [0x1D] PRINT_EVENT_MESSAGE(message_id=8218*)
    → "But I don't intend to pay you a single gil! It's still worthless garbage, even if it was one of my own. I'm different from Minister Apururu, you see. I don't allow my feelings to get caught up in my work..."
  7: 0x03CE [0x23] WAIT_FOR_DIALOG_INTERACTION
  8: 0x03CF [0x29] REQ_SET_WAIT(priority=0x08, entity_id=Boizo-Naizo (ID: 17764373/0x010F1015), tag_num=0x10)
  9: 0x03D6 [0x00] END_REQSTACK()
```

### Event 65535.32

#### Metadata

| Field        | Value   |
|--------------|---------|
| Entrypoint   | 0x03D7  |
| Data Size    | 5 bytes |
| Instructions | 3       |

```
      00 01 02 03 04 05 06 07  08 09 0A 0B 0C 0D 0E 0F
      -- -- -- -- -- -- -- --  -- -- -- -- -- -- -- --
03D0:                      1D  2D 80 23 00                     .-.#.    
```

#### Opcodes

```
  0: 0x03D7 [0x1D] PRINT_EVENT_MESSAGE(message_id=8219*)
    → "...Huh? What's this here...?"
  1: 0x03DA [0x23] WAIT_FOR_DIALOG_INTERACTION
  2: 0x03DB [0x00] END_REQSTACK()
```

### Event 65535.33

#### Metadata

| Field        | Value   |
|--------------|---------|
| Entrypoint   | 0x03DC  |
| Data Size    | 9 bytes |
| Instructions | 5       |

```
      00 01 02 03 04 05 06 07  08 09 0A 0B 0C 0D 0E 0F
      -- -- -- -- -- -- -- --  -- -- -- -- -- -- -- --
03D0:                                      1D 2E 80 23              ...#
03E0: 1D 2F 80 23 00                                    ./.#.           
```

#### Opcodes

```
  0: 0x03DC [0x1D] PRINT_EVENT_MESSAGE(message_id=8220*)
    → "Was this on the starfruit when you found it?"
  1: 0x03DF [0x23] WAIT_FOR_DIALOG_INTERACTION
  2: 0x03E0 [0x1D] PRINT_EVENT_MESSAGE(message_id=8221*)
    → "This ice...!? Why, its shape looks...almost like... ...a tear..."
  3: 0x03E3 [0x23] WAIT_FOR_DIALOG_INTERACTION
  4: 0x03E4 [0x00] END_REQSTACK()
```

### Event 65535.34

#### Metadata

| Field        | Value    |
|--------------|----------|
| Entrypoint   | 0x03E5   |
| Data Size    | 12 bytes |
| Instructions | 4        |

```
      00 01 02 03 04 05 06 07  08 09 0A 0B 0C 0D 0E 0F
      -- -- -- -- -- -- -- --  -- -- -- -- -- -- -- --
03E0:                29 08 15  10 0F 01 0C 1D 30 80 23       ).......0.#
03F0: 00                                                .               
```

#### Opcodes

```
  0: 0x03E5 [0x29] REQ_SET_WAIT(priority=0x08, entity_id=Boizo-Naizo (ID: 17764373/0x010F1015), tag_num=0x0C)
  1: 0x03EC [0x1D] PRINT_EVENT_MESSAGE(message_id=8222*)
    → "Ah... It's melting..."
  2: 0x03EF [0x23] WAIT_FOR_DIALOG_INTERACTION
  3: 0x03F0 [0x00] END_REQSTACK()
```

### Event 65535.35

#### Metadata

| Field        | Value   |
|--------------|---------|
| Entrypoint   | 0x03F1  |
| Data Size    | 5 bytes |
| Instructions | 3       |

```
      00 01 02 03 04 05 06 07  08 09 0A 0B 0C 0D 0E 0F
      -- -- -- -- -- -- -- --  -- -- -- -- -- -- -- --
03F0:    1D 31 80 23 00                                  .1.#.          
```

#### Opcodes

```
  0: 0x03F1 [0x1D] PRINT_EVENT_MESSAGE(message_id=8223*)
    → "... Well, I guess the Minister did promise it to you, so...I'll pay you the reward for finding this starfruit."
  1: 0x03F4 [0x23] WAIT_FOR_DIALOG_INTERACTION
  2: 0x03F5 [0x00] END_REQSTACK()
```

### Event 65535.36

#### Metadata

| Field        | Value    |
|--------------|----------|
| Entrypoint   | 0x03F6   |
| Data Size    | 19 bytes |
| Instructions | 5        |

```
      00 01 02 03 04 05 06 07  08 09 0A 0B 0C 0D 0E 0F
      -- -- -- -- -- -- -- --  -- -- -- -- -- -- -- --
03F0:                   29 08  15 10 0F 01 13 1D 32 80        ).......2.
0400: 23 29 08 15 10 0F 01 14  00                       #).......       
```

#### Opcodes

```
  0: 0x03F6 [0x29] REQ_SET_WAIT(priority=0x08, entity_id=Boizo-Naizo (ID: 17764373/0x010F1015), tag_num=0x13)
  1: 0x03FD [0x1D] PRINT_EVENT_MESSAGE(message_id=8224*)
    → "But $1 gil is asking too much. Sorry, but you'll have to make do with $2 gil."
  2: 0x0400 [0x23] WAIT_FOR_DIALOG_INTERACTION
  3: 0x0401 [0x29] REQ_SET_WAIT(priority=0x08, entity_id=Boizo-Naizo (ID: 17764373/0x010F1015), tag_num=0x14)
  4: 0x0408 [0x00] END_REQSTACK()
```

### Event 328

#### Metadata

| Field        | Value    |
|--------------|----------|
| Entrypoint   | 0x0409   |
| Data Size    | 33 bytes |
| Instructions | 12       |

```
      00 01 02 03 04 05 06 07  08 09 0A 0B 0C 0D 0E 0F
      -- -- -- -- -- -- -- --  -- -- -- -- -- -- -- --
0400:                             1E F0 FF FF 7F 6F 70           .....op
0410: 29 08 15 10 0F 01 01 1D  33 80 23 1D 34 80 23 29  ).......3.#.4.#)
0420: 08 15 10 0F 01 02 20 00  21 00                    ...... .!.      
```

#### Opcodes

```
  0: 0x0409 [0x1E] EventEntity looks at LocalPlayer and starts talking
  1: 0x040E [0x6F] WAIT_FRAME_DELAY: Yield until WaitTime reaches zero
  2: 0x040F [0x70] WAIT_ENTITY_RENDER_FLAG: Wait while EventEntity->Render.Flags3 bit 2 is set (cancel turn if not)
  3: 0x0410 [0x29] REQ_SET_WAIT(priority=0x08, entity_id=Boizo-Naizo (ID: 17764373/0x010F1015), tag_num=0x01)
  4: 0x0417 [0x1D] PRINT_EVENT_MESSAGE(message_id=8225*)
    → "No, I've not become all emotional, mind you! It was just a doll into which we breathed temporary life, rightaru?"
  5: 0x041A [0x23] WAIT_FOR_DIALOG_INTERACTION
  6: 0x041B [0x1D] PRINT_EVENT_MESSAGE(message_id=8226*)
    → "First, against nature, you provide lifeforce to empty vessels. Then you go send them out into the battlefields. If you're going to cry about it when they drop dead, then you'd might as well not make the damned things to begin with!"
  7: 0x041E [0x23] WAIT_FOR_DIALOG_INTERACTION
  8: 0x041F [0x29] REQ_SET_WAIT(priority=0x08, entity_id=Boizo-Naizo (ID: 17764373/0x010F1015), tag_num=0x02)
  9: 0x0426 [0x20] SET_CLI_EVENT_UC_FLAG: Unlock player control
 10: 0x0428 [0x21] END_EVENT
 11: 0x0429 [0x00] END_REQSTACK()
```

### Event 602

#### Metadata

| Field        | Value    |
|--------------|----------|
| Entrypoint   | 0x042A   |
| Data Size    | 47 bytes |
| Instructions | 14       |

```
      00 01 02 03 04 05 06 07  08 09 0A 0B 0C 0D 0E 0F
      -- -- -- -- -- -- -- --  -- -- -- -- -- -- -- --
0420:                                1E F0 FF FF 7F 6F            .....o
0430: 70 29 08 15 10 0F 01 03  1D 35 80 23 29 08 15 10  p).......5.#)...
0440: 0F 01 04 29 08 15 10 0F  01 05 1D 36 80 23 29 08  ...).......6.#).
0450: 15 10 0F 01 06 20 00 21  00                       ..... .!.       
```

#### Opcodes

```
  0: 0x042A [0x1E] EventEntity looks at LocalPlayer and starts talking
  1: 0x042F [0x6F] WAIT_FRAME_DELAY: Yield until WaitTime reaches zero
  2: 0x0430 [0x70] WAIT_ENTITY_RENDER_FLAG: Wait while EventEntity->Render.Flags3 bit 2 is set (cancel turn if not)
  3: 0x0431 [0x29] REQ_SET_WAIT(priority=0x08, entity_id=Boizo-Naizo (ID: 17764373/0x010F1015), tag_num=0x03)
  4: 0x0438 [0x1D] PRINT_EVENT_MESSAGE(message_id=9522*)
    → "We have a lot to thank Minister Ajido-Marujido for. He might have mumble-grumbled about it, but he was always there to bail the Manustery out of money troubles."
  5: 0x043B [0x23] WAIT_FOR_DIALOG_INTERACTION
  6: 0x043C [0x29] REQ_SET_WAIT(priority=0x08, entity_id=Boizo-Naizo (ID: 17764373/0x010F1015), tag_num=0x04)
  7: 0x0443 [0x29] REQ_SET_WAIT(priority=0x08, entity_id=Boizo-Naizo (ID: 17764373/0x010F1015), tag_num=0x05)
  8: 0x044A [0x1D] PRINT_EVENT_MESSAGE(message_id=9523*)
    → "We justaru follow whatever Minister Apururu decides. No mattaru what happens, we're behind her until the fat Galka sings."
  9: 0x044D [0x23] WAIT_FOR_DIALOG_INTERACTION
 10: 0x044E [0x29] REQ_SET_WAIT(priority=0x08, entity_id=Boizo-Naizo (ID: 17764373/0x010F1015), tag_num=0x06)
 11: 0x0455 [0x20] SET_CLI_EVENT_UC_FLAG: Unlock player control
 12: 0x0457 [0x21] END_EVENT
 13: 0x0458 [0x00] END_REQSTACK()
```

### Event 606

#### Metadata

| Field        | Value    |
|--------------|----------|
| Entrypoint   | 0x0459   |
| Data Size    | 47 bytes |
| Instructions | 14       |

```
      00 01 02 03 04 05 06 07  08 09 0A 0B 0C 0D 0E 0F
      -- -- -- -- -- -- -- --  -- -- -- -- -- -- -- --
0450:                             1E F0 FF FF 7F 6F 70           .....op
0460: 29 08 15 10 0F 01 11 1D  37 80 23 29 08 15 10 0F  ).......7.#)....
0470: 01 12 29 08 15 10 0F 01  01 1D 38 80 23 29 08 15  ..).......8.#)..
0480: 10 0F 01 02 20 00 21 00                           .... .!.        
```

#### Opcodes

```
  0: 0x0459 [0x1E] EventEntity looks at LocalPlayer and starts talking
  1: 0x045E [0x6F] WAIT_FRAME_DELAY: Yield until WaitTime reaches zero
  2: 0x045F [0x70] WAIT_ENTITY_RENDER_FLAG: Wait while EventEntity->Render.Flags3 bit 2 is set (cancel turn if not)
  3: 0x0460 [0x29] REQ_SET_WAIT(priority=0x08, entity_id=Boizo-Naizo (ID: 17764373/0x010F1015), tag_num=0x11)
  4: 0x0467 [0x1D] PRINT_EVENT_MESSAGE(message_id=9551*)
    → "Things don'taru look good. If Ajido-Marujido doesn't wake up, Minister Apururu may have murder-wurder to answer for...not just a jailbreak!"
  5: 0x046A [0x23] WAIT_FOR_DIALOG_INTERACTION
  6: 0x046B [0x29] REQ_SET_WAIT(priority=0x08, entity_id=Boizo-Naizo (ID: 17764373/0x010F1015), tag_num=0x12)
  7: 0x0472 [0x29] REQ_SET_WAIT(priority=0x08, entity_id=Boizo-Naizo (ID: 17764373/0x010F1015), tag_num=0x01)
  8: 0x0479 [0x1D] PRINT_EVENT_MESSAGE(message_id=9552*)
    → "Wait a minute. Wasn't there an adventurer who went to the dungeon with the minister? What if we shift all the blame onto [him/her]...?"
  9: 0x047C [0x23] WAIT_FOR_DIALOG_INTERACTION
 10: 0x047D [0x29] REQ_SET_WAIT(priority=0x08, entity_id=Boizo-Naizo (ID: 17764373/0x010F1015), tag_num=0x02)
 11: 0x0484 [0x20] SET_CLI_EVENT_UC_FLAG: Unlock player control
 12: 0x0486 [0x21] END_EVENT
 13: 0x0487 [0x00] END_REQSTACK()
```

### Event 137

#### Metadata

| Field        | Value   |
|--------------|---------|
| Entrypoint   | 0x0488  |
| Data Size    | 3 bytes |
| Instructions | 2       |

```
      00 01 02 03 04 05 06 07  08 09 0A 0B 0C 0D 0E 0F
      -- -- -- -- -- -- -- --  -- -- -- -- -- -- -- --
0480:                          22 01 00                         "..     
```

#### Opcodes

```
  0: 0x0488 [0x22] ENTITY_HIDE_FLAG(enabled=0x01)
  1: 0x048A [0x00] END_REQSTACK()
```

### Event 619

#### Metadata

| Field        | Value   |
|--------------|---------|
| Entrypoint   | 0x048B  |
| Data Size    | 3 bytes |
| Instructions | 2       |

```
      00 01 02 03 04 05 06 07  08 09 0A 0B 0C 0D 0E 0F
      -- -- -- -- -- -- -- --  -- -- -- -- -- -- -- --
0480:                                   22 01 00                   "..  
```

#### Opcodes

```
  0: 0x048B [0x22] ENTITY_HIDE_FLAG(enabled=0x01)
  1: 0x048D [0x00] END_REQSTACK()
```

### Event 654

#### Metadata

| Field        | Value    |
|--------------|----------|
| Entrypoint   | 0x048E   |
| Data Size    | 47 bytes |
| Instructions | 14       |

```
      00 01 02 03 04 05 06 07  08 09 0A 0B 0C 0D 0E 0F
      -- -- -- -- -- -- -- --  -- -- -- -- -- -- -- --
0480:                                            1E F0                ..
0490: FF FF 7F 6F 70 29 08 15  10 0F 01 03 1D 39 80 23  ...op).......9.#
04A0: 29 08 15 10 0F 01 04 29  08 15 10 0F 01 05 1D 3A  )......).......:
04B0: 80 23 29 08 15 10 0F 01  06 20 00 21 00           .#)...... .!.   
```

#### Opcodes

```
  0: 0x048E [0x1E] EventEntity looks at LocalPlayer and starts talking
  1: 0x0493 [0x6F] WAIT_FRAME_DELAY: Yield until WaitTime reaches zero
  2: 0x0494 [0x70] WAIT_ENTITY_RENDER_FLAG: Wait while EventEntity->Render.Flags3 bit 2 is set (cancel turn if not)
  3: 0x0495 [0x29] REQ_SET_WAIT(priority=0x08, entity_id=Boizo-Naizo (ID: 17764373/0x010F1015), tag_num=0x03)
  4: 0x049C [0x1D] PRINT_EVENT_MESSAGE(message_id=9648*)
    → "I heard that Minsiter Ajido-Marujido was pardoned for his crimes. Well, isn'taru that a surprise?"
  5: 0x049F [0x23] WAIT_FOR_DIALOG_INTERACTION
  6: 0x04A0 [0x29] REQ_SET_WAIT(priority=0x08, entity_id=Boizo-Naizo (ID: 17764373/0x010F1015), tag_num=0x04)
  7: 0x04A7 [0x29] REQ_SET_WAIT(priority=0x08, entity_id=Boizo-Naizo (ID: 17764373/0x010F1015), tag_num=0x05)
  8: 0x04AE [0x1D] PRINT_EVENT_MESSAGE(message_id=9649*)
    → "This is, y'know, one of those high-level, governmentaru things. There's gotta be some back room, political-type dealy-weals going on here."
  9: 0x04B1 [0x23] WAIT_FOR_DIALOG_INTERACTION
 10: 0x04B2 [0x29] REQ_SET_WAIT(priority=0x08, entity_id=Boizo-Naizo (ID: 17764373/0x010F1015), tag_num=0x06)
 11: 0x04B9 [0x20] SET_CLI_EVENT_UC_FLAG: Unlock player control
 12: 0x04BB [0x21] END_EVENT
 13: 0x04BC [0x00] END_REQSTACK()
```

### Event 645

#### Metadata

| Field        | Value    |
|--------------|----------|
| Entrypoint   | 0x04BD   |
| Data Size    | 79 bytes |
| Instructions | 20       |

```
      00 01 02 03 04 05 06 07  08 09 0A 0B 0C 0D 0E 0F
      -- -- -- -- -- -- -- --  -- -- -- -- -- -- -- --
04B0:                                         1E F0 FF               ...
04C0: FF 7F 6F 70 29 08 15 10  0F 01 01 1D 3B 80 23 29  ..op).......;.#)
04D0: 08 15 10 0F 01 02 29 08  15 10 0F 01 11 1D 3C 80  ......).......<.
04E0: 23 29 08 15 10 0F 01 12  29 08 15 10 0F 01 03 1D  #)......).......
04F0: 3D 80 23 29 08 15 10 0F  01 04 29 08 15 10 0F 01  =.#)......).....
0500: 05 29 08 15 10 0F 01 06  20 00 21 00              .)...... .!.    
```

#### Opcodes

```
  0: 0x04BD [0x1E] EventEntity looks at LocalPlayer and starts talking
  1: 0x04C2 [0x6F] WAIT_FRAME_DELAY: Yield until WaitTime reaches zero
  2: 0x04C3 [0x70] WAIT_ENTITY_RENDER_FLAG: Wait while EventEntity->Render.Flags3 bit 2 is set (cancel turn if not)
  3: 0x04C4 [0x29] REQ_SET_WAIT(priority=0x08, entity_id=Boizo-Naizo (ID: 17764373/0x010F1015), tag_num=0x01)
  4: 0x04CB [0x1D] PRINT_EVENT_MESSAGE(message_id=9672*)
    → "You would definitely be able to slow the Cardians down with a big ol' blast of magey-wagey power."
  5: 0x04CE [0x23] WAIT_FOR_DIALOG_INTERACTION
  6: 0x04CF [0x29] REQ_SET_WAIT(priority=0x08, entity_id=Boizo-Naizo (ID: 17764373/0x010F1015), tag_num=0x02)
  7: 0x04D6 [0x29] REQ_SET_WAIT(priority=0x08, entity_id=Boizo-Naizo (ID: 17764373/0x010F1015), tag_num=0x11)
  8: 0x04DD [0x1D] PRINT_EVENT_MESSAGE(message_id=9673*)
    → "But the problem is where do you get that kinda power, and who do you get to handle it? To be perfectaruly honest I don't think Miss Apururu is up to it."
  9: 0x04E0 [0x23] WAIT_FOR_DIALOG_INTERACTION
 10: 0x04E1 [0x29] REQ_SET_WAIT(priority=0x08, entity_id=Boizo-Naizo (ID: 17764373/0x010F1015), tag_num=0x12)
 11: 0x04E8 [0x29] REQ_SET_WAIT(priority=0x08, entity_id=Boizo-Naizo (ID: 17764373/0x010F1015), tag_num=0x03)
 12: 0x04EF [0x1D] PRINT_EVENT_MESSAGE(message_id=9674*)
    → "Hmmm...if you could draw on the Mana Orbs of all the Cardians in town then maybe... I better not suggestaru that to the minister, she would just keel over from worry."
 13: 0x04F2 [0x23] WAIT_FOR_DIALOG_INTERACTION
 14: 0x04F3 [0x29] REQ_SET_WAIT(priority=0x08, entity_id=Boizo-Naizo (ID: 17764373/0x010F1015), tag_num=0x04)
 15: 0x04FA [0x29] REQ_SET_WAIT(priority=0x08, entity_id=Boizo-Naizo (ID: 17764373/0x010F1015), tag_num=0x05)
 16: 0x0501 [0x29] REQ_SET_WAIT(priority=0x08, entity_id=Boizo-Naizo (ID: 17764373/0x010F1015), tag_num=0x06)
 17: 0x0508 [0x20] SET_CLI_EVENT_UC_FLAG: Unlock player control
 18: 0x050A [0x21] END_EVENT
 19: 0x050B [0x00] END_REQSTACK()
```

### Event 646

#### Metadata

| Field        | Value    |
|--------------|----------|
| Entrypoint   | 0x050C   |
| Data Size    | 47 bytes |
| Instructions | 14       |

```
      00 01 02 03 04 05 06 07  08 09 0A 0B 0C 0D 0E 0F
      -- -- -- -- -- -- -- --  -- -- -- -- -- -- -- --
0500:                                      1E F0 FF FF              ....
0510: 7F 6F 70 29 08 15 10 0F  01 03 1D 3E 80 23 29 08  .op).......>.#).
0520: 15 10 0F 01 04 29 08 15  10 0F 01 05 1D 3F 80 23  .....).......?.#
0530: 29 08 15 10 0F 01 06 20  00 21 00                 )...... .!.     
```

#### Opcodes

```
  0: 0x050C [0x1E] EventEntity looks at LocalPlayer and starts talking
  1: 0x0511 [0x6F] WAIT_FRAME_DELAY: Yield until WaitTime reaches zero
  2: 0x0512 [0x70] WAIT_ENTITY_RENDER_FLAG: Wait while EventEntity->Render.Flags3 bit 2 is set (cancel turn if not)
  3: 0x0513 [0x29] REQ_SET_WAIT(priority=0x08, entity_id=Boizo-Naizo (ID: 17764373/0x010F1015), tag_num=0x03)
  4: 0x051A [0x1D] PRINT_EVENT_MESSAGE(message_id=9710*)
    → "Many Cardians died willingly for the sakey-wake of their king, the Cardian Joker."
  5: 0x051D [0x23] WAIT_FOR_DIALOG_INTERACTION
  6: 0x051E [0x29] REQ_SET_WAIT(priority=0x08, entity_id=Boizo-Naizo (ID: 17764373/0x010F1015), tag_num=0x04)
  7: 0x0525 [0x29] REQ_SET_WAIT(priority=0x08, entity_id=Boizo-Naizo (ID: 17764373/0x010F1015), tag_num=0x05)
  8: 0x052C [0x1D] PRINT_EVENT_MESSAGE(message_id=9711*)
    → "Former minister Zonpa-Zippa loved to build in those sorts of tragic loyalties... He probably put in a self-destructaru mechanism, too."
  9: 0x052F [0x23] WAIT_FOR_DIALOG_INTERACTION
 10: 0x0530 [0x29] REQ_SET_WAIT(priority=0x08, entity_id=Boizo-Naizo (ID: 17764373/0x010F1015), tag_num=0x06)
 11: 0x0537 [0x20] SET_CLI_EVENT_UC_FLAG: Unlock player control
 12: 0x0539 [0x21] END_EVENT
 13: 0x053A [0x00] END_REQSTACK()
```

### Event 960

#### Metadata

| Field        | Value    |
|--------------|----------|
| Entrypoint   | 0x053B   |
| Data Size    | 26 bytes |
| Instructions | 8        |

```
      00 01 02 03 04 05 06 07  08 09 0A 0B 0C 0D 0E 0F
      -- -- -- -- -- -- -- --  -- -- -- -- -- -- -- --
0530:                                   4A F8 FF FF 7F             J....
0540: F0 FF FF 7F 4A F0 FF FF  7F F8 FF FF 7F 6F 70 1D  ....J........op.
0550: 05 10 23 21 00                                    ..#!.           
```

#### Opcodes

```
  0: 0x053B [0x4A] EventEntity looks at LocalPlayer
  1: 0x0544 [0x4A] LocalPlayer looks at EventEntity
  2: 0x054D [0x6F] WAIT_FRAME_DELAY: Yield until WaitTime reaches zero
  3: 0x054E [0x70] WAIT_ENTITY_RENDER_FLAG: Wait while EventEntity->Render.Flags3 bit 2 is set (cancel turn if not)
  4: 0x054F [0x1D] PRINT_EVENT_MESSAGE(message_id=Work_Zone[5])
  5: 0x0552 [0x23] WAIT_FOR_DIALOG_INTERACTION
  6: 0x0553 [0x21] END_EVENT
  7: 0x0554 [0x00] END_REQSTACK()
```

### Event 961

#### Metadata

| Field        | Value    |
|--------------|----------|
| Entrypoint   | 0x0555   |
| Data Size    | 27 bytes |
| Instructions | 9        |

```
      00 01 02 03 04 05 06 07  08 09 0A 0B 0C 0D 0E 0F
      -- -- -- -- -- -- -- --  -- -- -- -- -- -- -- --
0550:                42 4A F8  FF FF 7F F0 FF FF 7F 4A       BJ........J
0560: F0 FF FF 7F F8 FF FF 7F  6F 70 1D 05 10 23 21 00  ........op...#!.
```

#### Opcodes

```
  0: 0x0555 [0x42] SET_CLI_EVENT_CANCEL_DATA()
  1: 0x0556 [0x4A] EventEntity looks at LocalPlayer
  2: 0x055F [0x4A] LocalPlayer looks at EventEntity
  3: 0x0568 [0x6F] WAIT_FRAME_DELAY: Yield until WaitTime reaches zero
  4: 0x0569 [0x70] WAIT_ENTITY_RENDER_FLAG: Wait while EventEntity->Render.Flags3 bit 2 is set (cancel turn if not)
  5: 0x056A [0x1D] PRINT_EVENT_MESSAGE(message_id=Work_Zone[5])
  6: 0x056D [0x23] WAIT_FOR_DIALOG_INTERACTION
  7: 0x056E [0x21] END_EVENT
  8: 0x056F [0x00] END_REQSTACK()
```

### Event 660

#### Metadata

| Field        | Value    |
|--------------|----------|
| Entrypoint   | 0x0570   |
| Data Size    | 47 bytes |
| Instructions | 14       |

```
      00 01 02 03 04 05 06 07  08 09 0A 0B 0C 0D 0E 0F
      -- -- -- -- -- -- -- --  -- -- -- -- -- -- -- --
0570: 1E F0 FF FF 7F 6F 70 29  08 15 10 0F 01 03 1D 40  .....op).......@
0580: 80 23 29 08 15 10 0F 01  04 29 08 15 10 0F 01 05  .#)......)......
0590: 1D 41 80 23 29 08 15 10  0F 01 06 20 00 21 00     .A.#)...... .!. 
```

#### Opcodes

```
  0: 0x0570 [0x1E] EventEntity looks at LocalPlayer and starts talking
  1: 0x0575 [0x6F] WAIT_FRAME_DELAY: Yield until WaitTime reaches zero
  2: 0x0576 [0x70] WAIT_ENTITY_RENDER_FLAG: Wait while EventEntity->Render.Flags3 bit 2 is set (cancel turn if not)
  3: 0x0577 [0x29] REQ_SET_WAIT(priority=0x08, entity_id=Boizo-Naizo (ID: 17764373/0x010F1015), tag_num=0x03)
  4: 0x057E [0x1D] PRINT_EVENT_MESSAGE(message_id=9739*)
    → "Aren't the new Cardians that Kopuro-Popuro is making supposed to be for patrol duty?"
  5: 0x0581 [0x23] WAIT_FOR_DIALOG_INTERACTION
  6: 0x0582 [0x29] REQ_SET_WAIT(priority=0x08, entity_id=Boizo-Naizo (ID: 17764373/0x010F1015), tag_num=0x04)
  7: 0x0589 [0x29] REQ_SET_WAIT(priority=0x08, entity_id=Boizo-Naizo (ID: 17764373/0x010F1015), tag_num=0x05)
  8: 0x0590 [0x1D] PRINT_EVENT_MESSAGE(message_id=9740*)
    → "All they're doing is wandering around Sarutabaruta, not fighting anything. I wonder what they're doing out there? Looking for buried treasure?"
  9: 0x0593 [0x23] WAIT_FOR_DIALOG_INTERACTION
 10: 0x0594 [0x29] REQ_SET_WAIT(priority=0x08, entity_id=Boizo-Naizo (ID: 17764373/0x010F1015), tag_num=0x06)
 11: 0x059B [0x20] SET_CLI_EVENT_UC_FLAG: Unlock player control
 12: 0x059D [0x21] END_EVENT
 13: 0x059E [0x00] END_REQSTACK()
```
