# 17764440 - Zopago

## Common Data

| Field            | Value                    |
|------------------|--------------------------|
| Zone             | Windurst Woods (ID: 241) |
| Block Size       | 464 bytes                |
| Total Events     | 11                       |
| References Count | 42                       |

## List of Events

| Event ID                 | Entrypoint   |   Size |   Instructions |
|--------------------------|--------------|--------|----------------|
| [65535](#event-65535)    | 0x0000       |      1 |              1 |
| [746](#event-746)        | 0x0001       |      1 |              1 |
| [742](#event-742)        | 0x0002       |      1 |              1 |
| [65535.1](#event-655351) | 0x0003       |     15 |              3 |
| [65535.2](#event-655352) | 0x0012       |     19 |              5 |
| [65535.3](#event-655353) | 0x0025       |     36 |              4 |
| [65535.4](#event-655354) | 0x0049       |     35 |              4 |
| [65535.5](#event-655355) | 0x006C       |     35 |              4 |
| [65535.6](#event-655356) | 0x008F       |     35 |              4 |
| [65535.7](#event-655357) | 0x00B2       |     35 |              4 |
| [65535.8](#event-655358) | 0x00D5       |     21 |              2 |

## DAT References (imed_data)

|   Index | Hex Value   |   Dec Value |
|---------|-------------|-------------|
|       0 | 0xA1B6C     |      662380 |
|       1 | 0xFFF9B47D  |  4294554749 |
|       2 | 0x02B6      |         694 |
|       3 | 0x03CF      |         975 |
|       4 | 0x000D      |          13 |
|       5 | 0xA1D13     |      662803 |
|       6 | 0xFFF9AB69  |  4294552425 |
|       7 | 0x0168      |         360 |
|       8 | 0x0007      |           7 |
|       9 | 0x0000      |           0 |
|      10 | 0x0011      |          17 |
|      11 | 0xFFFFE6F1  |  4294960881 |
|      12 | 0xFFFEAC53  |  4294880339 |
|      13 | 0x0BB7      |        2999 |
|      14 | 0x0AEF      |        2799 |
|      15 | 0x0005      |           5 |
|      16 | 0x0002      |           2 |
|      17 | 0x0016      |          22 |
|      18 | 0x26974     |      158068 |
|      19 | 0xFFFB10B4  |  4294643892 |
|      20 | 0x07F0      |        2032 |
|      21 | 0x0004      |           4 |
|      22 | 0x001C      |          28 |
|      23 | 0xFFFDFF88  |  4294836104 |
|      24 | 0x41854     |      268372 |
|      25 | 0xFFFF0DD1  |  4294905297 |
|      26 | 0x0A40      |        2624 |
|      27 | 0x0006      |           6 |
|      28 | 0x0015      |          21 |
|      29 | 0x0008      |           8 |
|      30 | 0x000A      |          10 |
|      31 | 0x0018      |          24 |
|      32 | 0xFFFD1547  |  4294776135 |
|      33 | 0xFFFA4D6A  |  4294593898 |
|      34 | 0xFFFFFE0C  |  4294966796 |
|      35 | 0x0C98      |        3224 |
|      36 | 0x0001      |           1 |
|      37 | 0x24C0      |        9408 |
|      38 | 0xFFFF3FD3  |  4294918099 |
|      39 | 0x07A9      |        1961 |
|      40 | 0x01A7      |         423 |
|      41 | 0x0012      |          18 |

## Events

### Event 65535

#### Metadata

| Field        | Value   |
|--------------|---------|
| Entrypoint   | 0x0000  |
| Data Size    | 1 bytes |
| Instructions | 1       |

```
      00 01 02 03 04 05 06 07  08 09 0A 0B 0C 0D 0E 0F
      -- -- -- -- -- -- -- --  -- -- -- -- -- -- -- --
0000: 00                                                .               
```

#### Opcodes

```
  0: 0x0000 [0x00] END_REQSTACK()
```

### Event 746

#### Metadata

| Field        | Value   |
|--------------|---------|
| Entrypoint   | 0x0001  |
| Data Size    | 1 bytes |
| Instructions | 1       |

```
      00 01 02 03 04 05 06 07  08 09 0A 0B 0C 0D 0E 0F
      -- -- -- -- -- -- -- --  -- -- -- -- -- -- -- --
0000:    00                                              .              
```

#### Opcodes

```
  0: 0x0001 [0x00] END_REQSTACK()
```

### Event 742

#### Metadata

| Field        | Value   |
|--------------|---------|
| Entrypoint   | 0x0002  |
| Data Size    | 1 bytes |
| Instructions | 1       |

```
      00 01 02 03 04 05 06 07  08 09 0A 0B 0C 0D 0E 0F
      -- -- -- -- -- -- -- --  -- -- -- -- -- -- -- --
0000:       00                                            .             
```

#### Opcodes

```
  0: 0x0002 [0x00] END_REQSTACK()
```

### Event 65535.1

#### Metadata

| Field        | Value    |
|--------------|----------|
| Entrypoint   | 0x0003   |
| Data Size    | 15 bytes |
| Instructions | 3        |

```
      00 01 02 03 04 05 06 07  08 09 0A 0B 0C 0D 0E 0F
      -- -- -- -- -- -- -- --  -- -- -- -- -- -- -- --
0000:          37 00 80 01 80  02 80 03 80 80 F8 FF FF     7............
0010: 7F 00                                             ..              
```

#### Opcodes

```
  0: 0x0003 [0x37] UPDATE_EVENT_POSITION_AND_DIR: x=662.380*, z=-412.547*, y=0.694*, direction=85.7°*
  1: 0x000C [0x80] LOAD_WAIT(entity=EventEntity)
  2: 0x0011 [0x00] END_REQSTACK()
```

### Event 65535.2

#### Metadata

| Field        | Value    |
|--------------|----------|
| Entrypoint   | 0x0012   |
| Data Size    | 19 bytes |
| Instructions | 5        |

```
      00 01 02 03 04 05 06 07  08 09 0A 0B 0C 0D 0E 0F
      -- -- -- -- -- -- -- --  -- -- -- -- -- -- -- --
0010:       32 04 80 1F 00 05  80 06 80 07 80 1F 01 1E    2.............
0020: F0 FF FF 7F 00                                    .....           
```

#### Opcodes

```
  0: 0x0012 [0x32] ExtData[1]->MainSpeed = 13* * 0.1
  1: 0x0015 [0x1F] MOVE_ENTITY: EventEntity moves to X=662.803*, Z=-414.871*, Y=0.360*
  2: 0x001D [0x1F] MOVE_ENTITY: Update entity position (mode=1)
  3: 0x001F [0x1E] EventEntity looks at LocalPlayer and starts talking
  4: 0x0024 [0x00] END_REQSTACK()
```

### Event 65535.3

#### Metadata

| Field        | Value    |
|--------------|----------|
| Entrypoint   | 0x0025   |
| Data Size    | 36 bytes |
| Instructions | 4        |

```
      00 01 02 03 04 05 06 07  08 09 0A 0B 0C 0D 0E 0F
      -- -- -- -- -- -- -- --  -- -- -- -- -- -- -- --
0020:                92 01 58  10 0F 01 B6 0B 08 80 09       ..X........
0030: 80 09 80 0A 80 0A 80 0A  80 0A 80 09 80 09 80 37  ...............7
0040: 0B 80 0C 80 0D 80 0E 80  00                       .........       
```

#### Opcodes

```
  0: 0x0025 [0x92] Zopago (ID: 17764440/0x010F1058)->Render.Flags3 ^= 0x01
  1: 0x002B [0xB6] ENTITY_APPEARANCE_HANDLER(case=Full entity look, race=7*, hair=0*, head=0*, body=17*, hands=17*, legs=17*, feet=17*, main=0*, sub=0*)
  2: 0x003F [0x37] UPDATE_EVENT_POSITION_AND_DIR: x=-6.415*, z=-86.957*, y=2.999*, direction=246.0°*
  3: 0x0048 [0x00] END_REQSTACK()
```

### Event 65535.4

#### Metadata

| Field        | Value    |
|--------------|----------|
| Entrypoint   | 0x0049   |
| Data Size    | 35 bytes |
| Instructions | 4        |

```
      00 01 02 03 04 05 06 07  08 09 0A 0B 0C 0D 0E 0F
      -- -- -- -- -- -- -- --  -- -- -- -- -- -- -- --
0040:                             B6 0B 0F 80 10 80 09           .......
0050: 80 11 80 11 80 11 80 11  80 09 80 09 80 37 12 80  .............7..
0060: 13 80 09 80 14 80 80 F8  FF FF 7F 00              ............    
```

#### Opcodes

```
  0: 0x0049 [0xB6] ENTITY_APPEARANCE_HANDLER(case=Full entity look, race=5*, hair=2*, head=0*, body=22*, hands=22*, legs=22*, feet=22*, main=0*, sub=0*)
  1: 0x005D [0x37] UPDATE_EVENT_POSITION_AND_DIR: x=158.068*, z=-323.404*, y=0.000*, direction=178.6°*
  2: 0x0066 [0x80] LOAD_WAIT(entity=EventEntity)
  3: 0x006B [0x00] END_REQSTACK()
```

### Event 65535.5

#### Metadata

| Field        | Value    |
|--------------|----------|
| Entrypoint   | 0x006C   |
| Data Size    | 35 bytes |
| Instructions | 4        |

```
      00 01 02 03 04 05 06 07  08 09 0A 0B 0C 0D 0E 0F
      -- -- -- -- -- -- -- --  -- -- -- -- -- -- -- --
0060:                                      B6 0B 15 80              ....
0070: 10 80 16 80 16 80 16 80  16 80 16 80 09 80 09 80  ................
0080: 37 17 80 18 80 19 80 1A  80 80 F8 FF FF 7F 00     7.............. 
```

#### Opcodes

```
  0: 0x006C [0xB6] ENTITY_APPEARANCE_HANDLER(case=Full entity look, race=4*, hair=2*, head=28*, body=28*, hands=28*, legs=28*, feet=28*, main=0*, sub=0*)
  1: 0x0080 [0x37] UPDATE_EVENT_POSITION_AND_DIR: x=-131.192*, z=268.372*, y=-61.999*, direction=230.6°*
  2: 0x0089 [0x80] LOAD_WAIT(entity=EventEntity)
  3: 0x008E [0x00] END_REQSTACK()
```

### Event 65535.6

#### Metadata

| Field        | Value    |
|--------------|----------|
| Entrypoint   | 0x008F   |
| Data Size    | 35 bytes |
| Instructions | 4        |

```
      00 01 02 03 04 05 06 07  08 09 0A 0B 0C 0D 0E 0F
      -- -- -- -- -- -- -- --  -- -- -- -- -- -- -- --
0080:                                               B6                 .
0090: 0B 1B 80 10 80 1C 80 1D  80 1E 80 1C 80 1F 80 09  ................
00A0: 80 09 80 37 20 80 21 80  22 80 23 80 80 F8 FF FF  ...7 .!.".#.....
00B0: 7F 00                                             ..              
```

#### Opcodes

```
  0: 0x008F [0xB6] ENTITY_APPEARANCE_HANDLER(case=Full entity look, race=6*, hair=2*, head=21*, body=8*, hands=10*, legs=21*, feet=24*, main=0*, sub=0*)
  1: 0x00A3 [0x37] UPDATE_EVENT_POSITION_AND_DIR: x=-191.161*, z=-373.398*, y=-0.500*, direction=283.4°*
  2: 0x00AC [0x80] LOAD_WAIT(entity=EventEntity)
  3: 0x00B1 [0x00] END_REQSTACK()
```

### Event 65535.7

#### Metadata

| Field        | Value    |
|--------------|----------|
| Entrypoint   | 0x00B2   |
| Data Size    | 35 bytes |
| Instructions | 4        |

```
      00 01 02 03 04 05 06 07  08 09 0A 0B 0C 0D 0E 0F
      -- -- -- -- -- -- -- --  -- -- -- -- -- -- -- --
00B0:       B6 0B 24 80 10 80  09 80 24 80 24 80 24 80    ..$.....$.$.$.
00C0: 24 80 09 80 09 80 37 25  80 26 80 27 80 28 80 80  $.....7%.&.'.(..
00D0: F8 FF FF 7F 00                                    .....           
```

#### Opcodes

```
  0: 0x00B2 [0xB6] ENTITY_APPEARANCE_HANDLER(case=Full entity look, race=1*, hair=2*, head=0*, body=1*, hands=1*, legs=1*, feet=1*, main=0*, sub=0*)
  1: 0x00C6 [0x37] UPDATE_EVENT_POSITION_AND_DIR: x=9.408*, z=-49.197*, y=1.961*, direction=37.2°*
  2: 0x00CF [0x80] LOAD_WAIT(entity=EventEntity)
  3: 0x00D4 [0x00] END_REQSTACK()
```

### Event 65535.8

#### Metadata

| Field        | Value    |
|--------------|----------|
| Entrypoint   | 0x00D5   |
| Data Size    | 21 bytes |
| Instructions | 2        |

```
      00 01 02 03 04 05 06 07  08 09 0A 0B 0C 0D 0E 0F
      -- -- -- -- -- -- -- --  -- -- -- -- -- -- -- --
00D0:                B6 0B 1D  80 08 80 09 80 29 80 29       ........).)
00E0: 80 29 80 29 80 09 80 09  80 00                    .).)......      
```

#### Opcodes

```
  0: 0x00D5 [0xB6] ENTITY_APPEARANCE_HANDLER(case=Full entity look, race=8*, hair=7*, head=0*, body=18*, hands=18*, legs=18*, feet=18*, main=0*, sub=0*)
  1: 0x00E9 [0x00] END_REQSTACK()
```
