# 17764377 - Two of Swords

## Common Data

| Field            | Value                    |
|------------------|--------------------------|
| Zone             | Windurst Woods (ID: 241) |
| Block Size       | 96 bytes                 |
| Total Events     | 10                       |
| References Count | 4                        |

## List of Events

| Event ID              | Entrypoint   |   Size |   Instructions |
|-----------------------|--------------|--------|----------------|
| [65535](#event-65535) | 0x0000       |      1 |              1 |
| [392](#event-392)     | 0x0001       |     14 |              4 |
| [137](#event-137)     | 0x000F       |      1 |              1 |
| [143](#event-143)     | 0x0010       |      1 |              1 |
| [145](#event-145)     | 0x0011       |      1 |              1 |
| [588](#event-588)     | 0x0012       |      1 |              1 |
| [590](#event-590)     | 0x0013       |      1 |              1 |
| [619](#event-619)     | 0x0014       |      1 |              1 |
| [620](#event-620)     | 0x0015       |      1 |              1 |
| [621](#event-621)     | 0x0016       |      1 |              1 |

## DAT References (imed_data)

|   Index | Hex Value   |   Dec Value |
|---------|-------------|-------------|
|       0 | 0xFFFFF46E  |  4294964334 |
|       1 | 0xFFFF9E8F  |  4294942351 |
|       2 | 0xFFFFEFFB  |  4294963195 |
|       3 | 0x03FA      |        1018 |

## Events

### Event 65535

#### Metadata

| Field        | Value   |
|--------------|---------|
| Entrypoint   | 0x0000  |
| Data Size    | 1 bytes |
| Instructions | 1       |

```
      00 01 02 03 04 05 06 07  08 09 0A 0B 0C 0D 0E 0F
      -- -- -- -- -- -- -- --  -- -- -- -- -- -- -- --
0000: 00                                                .               
```

#### Opcodes

```
  0: 0x0000 [0x00] END_REQSTACK()
```

### Event 392

#### Metadata

| Field        | Value    |
|--------------|----------|
| Entrypoint   | 0x0001   |
| Data Size    | 14 bytes |
| Instructions | 4        |

```
      00 01 02 03 04 05 06 07  08 09 0A 0B 0C 0D 0E 0F
      -- -- -- -- -- -- -- --  -- -- -- -- -- -- -- --
0000:    33 01 37 00 80 01 80  02 80 03 80 33 01 00      3.7........3.. 
```

#### Opcodes

```
  0: 0x0001 [0x33] EventEntity->Render.Flags0 |= 0x200000 // Bit 21 (flag=0x01)
  1: 0x0003 [0x37] UPDATE_EVENT_POSITION_AND_DIR: x=-2.962*, z=-24.945*, y=-4.101*, direction=89.5°*
  2: 0x000C [0x33] EventEntity->Render.Flags0 |= 0x200000 // Bit 21 (flag=0x01)
  3: 0x000E [0x00] END_REQSTACK()
```

### Event 137

#### Metadata

| Field        | Value   |
|--------------|---------|
| Entrypoint   | 0x000F  |
| Data Size    | 1 bytes |
| Instructions | 1       |

```
      00 01 02 03 04 05 06 07  08 09 0A 0B 0C 0D 0E 0F
      -- -- -- -- -- -- -- --  -- -- -- -- -- -- -- --
0000:                                               00                 .
```

#### Opcodes

```
  0: 0x000F [0x00] END_REQSTACK()
```

### Event 143

#### Metadata

| Field        | Value   |
|--------------|---------|
| Entrypoint   | 0x0010  |
| Data Size    | 1 bytes |
| Instructions | 1       |

```
      00 01 02 03 04 05 06 07  08 09 0A 0B 0C 0D 0E 0F
      -- -- -- -- -- -- -- --  -- -- -- -- -- -- -- --
0010: 00                                                .               
```

#### Opcodes

```
  0: 0x0010 [0x00] END_REQSTACK()
```

### Event 145

#### Metadata

| Field        | Value   |
|--------------|---------|
| Entrypoint   | 0x0011  |
| Data Size    | 1 bytes |
| Instructions | 1       |

```
      00 01 02 03 04 05 06 07  08 09 0A 0B 0C 0D 0E 0F
      -- -- -- -- -- -- -- --  -- -- -- -- -- -- -- --
0010:    00                                              .              
```

#### Opcodes

```
  0: 0x0011 [0x00] END_REQSTACK()
```

### Event 588

#### Metadata

| Field        | Value   |
|--------------|---------|
| Entrypoint   | 0x0012  |
| Data Size    | 1 bytes |
| Instructions | 1       |

```
      00 01 02 03 04 05 06 07  08 09 0A 0B 0C 0D 0E 0F
      -- -- -- -- -- -- -- --  -- -- -- -- -- -- -- --
0010:       00                                            .             
```

#### Opcodes

```
  0: 0x0012 [0x00] END_REQSTACK()
```

### Event 590

#### Metadata

| Field        | Value   |
|--------------|---------|
| Entrypoint   | 0x0013  |
| Data Size    | 1 bytes |
| Instructions | 1       |

```
      00 01 02 03 04 05 06 07  08 09 0A 0B 0C 0D 0E 0F
      -- -- -- -- -- -- -- --  -- -- -- -- -- -- -- --
0010:          00                                          .            
```

#### Opcodes

```
  0: 0x0013 [0x00] END_REQSTACK()
```

### Event 619

#### Metadata

| Field        | Value   |
|--------------|---------|
| Entrypoint   | 0x0014  |
| Data Size    | 1 bytes |
| Instructions | 1       |

```
      00 01 02 03 04 05 06 07  08 09 0A 0B 0C 0D 0E 0F
      -- -- -- -- -- -- -- --  -- -- -- -- -- -- -- --
0010:             00                                        .           
```

#### Opcodes

```
  0: 0x0014 [0x00] END_REQSTACK()
```

### Event 620

#### Metadata

| Field        | Value   |
|--------------|---------|
| Entrypoint   | 0x0015  |
| Data Size    | 1 bytes |
| Instructions | 1       |

```
      00 01 02 03 04 05 06 07  08 09 0A 0B 0C 0D 0E 0F
      -- -- -- -- -- -- -- --  -- -- -- -- -- -- -- --
0010:                00                                      .          
```

#### Opcodes

```
  0: 0x0015 [0x00] END_REQSTACK()
```

### Event 621

#### Metadata

| Field        | Value   |
|--------------|---------|
| Entrypoint   | 0x0016  |
| Data Size    | 1 bytes |
| Instructions | 1       |

```
      00 01 02 03 04 05 06 07  08 09 0A 0B 0C 0D 0E 0F
      -- -- -- -- -- -- -- --  -- -- -- -- -- -- -- --
0010:                   00                                    .         
```

#### Opcodes

```
  0: 0x0016 [0x00] END_REQSTACK()
```
