# 17764457 - Roberta

## Common Data

| Field            | Value                    |
|------------------|--------------------------|
| Zone             | Windurst Woods (ID: 241) |
| Block Size       | 900 bytes                |
| Total Events     | 23                       |
| References Count | 28                       |

## List of Events

| Event ID                   | Entrypoint   |   Size |   Instructions |
|----------------------------|--------------|--------|----------------|
| [65535](#event-65535)      | 0x0000       |      1 |              1 |
| [65535.1](#event-655351)   | 0x0001       |     16 |              2 |
| [65535.2](#event-655352)   | 0x0011       |     22 |              4 |
| [65535.3](#event-655353)   | 0x0027       |     16 |              2 |
| [65535.4](#event-655354)   | 0x0037       |     14 |              2 |
| [65535.5](#event-655355)   | 0x0045       |     16 |              2 |
| [65535.6](#event-655356)   | 0x0055       |     14 |              2 |
| [65535.7](#event-655357)   | 0x0063       |     16 |              2 |
| [65535.8](#event-655358)   | 0x0073       |     14 |              2 |
| [65535.9](#event-655359)   | 0x0081       |      9 |              3 |
| [436](#event-436)          | 0x008A       |     33 |             12 |
| [376](#event-376)          | 0x00AB       |    131 |             26 |
| [65535.10](#event-6553510) | 0x012E       |     19 |              5 |
| [65535.11](#event-6553511) | 0x0141       |     23 |              7 |
| [65535.12](#event-6553512) | 0x0158       |     19 |              5 |
| [65535.13](#event-6553513) | 0x016B       |     19 |              5 |
| [65535.14](#event-6553514) | 0x017E       |     19 |              5 |
| [378](#event-378)          | 0x0191       |      5 |              3 |
| [65535.15](#event-6553515) | 0x0196       |     19 |              5 |
| [377](#event-377)          | 0x01A9       |     81 |             22 |
| [65535.16](#event-6553516) | 0x01FA       |    115 |             23 |
| [379](#event-379)          | 0x026D       |     29 |             10 |
| [380](#event-380)          | 0x028A       |     29 |             10 |

## DAT References (imed_data)

|   Index | Hex Value   |   Dec Value |
|---------|-------------|-------------|
|       0 | 0x0046      |          70 |
|       1 | 0x001E      |          30 |
|       2 | 0x2168      |        8552 |
|       3 | 0x2169      |        8553 |
|       4 | 0x20DD      |        8413 |
|       5 | 0x0000      |           0 |
|       6 | 0x0001      |           1 |
|       7 | 0x003C      |          60 |
|       8 | 0x008B      |         139 |
|       9 | 0x007F      |         127 |
|      10 | 0x00C8      |         200 |
|      11 | 0x0002      |           2 |
|      12 | 0x20D9      |        8409 |
|      13 | 0x20DA      |        8410 |
|      14 | 0x20DB      |        8411 |
|      15 | 0x20DC      |        8412 |
|      16 | 0x20DE      |        8414 |
|      17 | 0x20DF      |        8415 |
|      18 | 0x20E6      |        8422 |
|      19 | 0x20E7      |        8423 |
|      20 | 0x20E0      |        8416 |
|      21 | 0x20E1      |        8417 |
|      22 | 0x20E2      |        8418 |
|      23 | 0x20E5      |        8421 |
|      24 | 0x20E3      |        8419 |
|      25 | 0x20E4      |        8420 |
|      26 | 0x20E8      |        8424 |
|      27 | 0x20E9      |        8425 |

## String References

- **8409**: Why, hello there, adventurer. I have a puzzling little problem you might be able to help me with...
- **8410**: A while ago, I came into the possession of something called $1, which has given me the spooks.
- **8411**: I've heard that its previous owners have all had the most bizarre things happen to them.
- **8412**: I've tried to get rid of the damned thing, but somehow it keeps making its way back to me. So...I was wondering if you can do something about this ribbon before I go quite crazy.
- **8413**: Help Roberta with her ribbon? [Accept./Decline.]
- **8414**: Don't tell me you're too scared! Why, you looked like the type who could help an old lady.
- **8415**: I'm almost afraid to get you caught up in this business as well, but thank you for agreeing to help me out. Handle it with care, now...
- **8416**: Why, hello again, adventurer. I still have that puzzling little problem you were supposed to be helping me out with...
- **8417**: Remember that $1 I gave you? Well, by any chance, did you happen to lose it?
- **8418**: Lost the ribbon? [Yes./No.]
- **8419**: I knew it! I knew it! You won't believe this, but that $1 I gave you somehow made its way back to me again!
- **8420**: Please. I beg you. Do something about this ribbon before it drives me crazy!
- **8421**: Really? Hmm... No matter then...
- **8422**: Hey [Mister/Ma'am]... Are you going to take me home...?
- **8423**: That ribbon is not for sale, and I certainly wouldn't buy it back from anyone. Yet, somehow it manages to come back here to me. What's going on...?
- **8424**: That ribbon is not for sale, and I certainly wouldn't buy it back from anyone. Yet, somehow it manages to come back here to me. What's going on...?
- **8425**: You don't have to tell me anything about the background of that ribbon. I don't want to know.
- **8552**: I know, I know... I can tell at a glance that you're an adventurer.
- **8553**: I'm always receiving shipments of goods that you will no doubt find useful. Remember, I'm here to help you. Best of luck on your adventures.

## Events

### Event 65535

#### Metadata

| Field        | Value   |
|--------------|---------|
| Entrypoint   | 0x0000  |
| Data Size    | 1 bytes |
| Instructions | 1       |

```
      00 01 02 03 04 05 06 07  08 09 0A 0B 0C 0D 0E 0F
      -- -- -- -- -- -- -- --  -- -- -- -- -- -- -- --
0000: 00                                                .               
```

#### Opcodes

```
  0: 0x0000 [0x00] END_REQSTACK()
```

### Event 65535.1

#### Metadata

| Field        | Value    |
|--------------|----------|
| Entrypoint   | 0x0001   |
| Data Size    | 16 bytes |
| Instructions | 2        |

```
      00 01 02 03 04 05 06 07  08 09 0A 0B 0C 0D 0E 0F
      -- -- -- -- -- -- -- --  -- -- -- -- -- -- -- --
0000:    5B 00 80 F8 FF FF 7F  F8 FF FF 7F 74 6C 6B 30   [..........tlk0
0010: 00                                                .               
```

#### Opcodes

```
  0: 0x0001 [0x5B] LOAD_EXT_SCHEDULER: Load scheduler "tlk0" with entities [EventEntity, EventEntity], work=70*
  1: 0x0010 [0x00] END_REQSTACK()
```

### Event 65535.2

#### Metadata

| Field        | Value    |
|--------------|----------|
| Entrypoint   | 0x0011   |
| Data Size    | 22 bytes |
| Instructions | 4        |

```
      00 01 02 03 04 05 06 07  08 09 0A 0B 0C 0D 0E 0F
      -- -- -- -- -- -- -- --  -- -- -- -- -- -- -- --
0010:    53 F8 FF FF 7F F8 FF  FF 7F 74 6C 6B 30 5E 69   S........tlk0^i
0020: 64 6C 30 1C 01 80 00                              dl0....         
```

#### Opcodes

```
  0: 0x0011 [0x53] WAIT_SCHEDULER_TASK: Wait for scheduler "tlk0" with entities [EventEntity, EventEntity]
  1: 0x001E [0x5E] EventEntity goes idle (kills current action) (animation: "idl0")
  2: 0x0023 [0x1C] WAIT(30* ticks)
  3: 0x0026 [0x00] END_REQSTACK()
```

### Event 65535.3

#### Metadata

| Field        | Value    |
|--------------|----------|
| Entrypoint   | 0x0027   |
| Data Size    | 16 bytes |
| Instructions | 2        |

```
      00 01 02 03 04 05 06 07  08 09 0A 0B 0C 0D 0E 0F
      -- -- -- -- -- -- -- --  -- -- -- -- -- -- -- --
0020:                      5B  00 80 F8 FF FF 7F F8 FF         [........
0030: FF 7F 74 68 6B 31 00                              ..thk1.         
```

#### Opcodes

```
  0: 0x0027 [0x5B] LOAD_EXT_SCHEDULER: Load scheduler "thk1" with entities [EventEntity, EventEntity], work=70*
  1: 0x0036 [0x00] END_REQSTACK()
```

### Event 65535.4

#### Metadata

| Field        | Value    |
|--------------|----------|
| Entrypoint   | 0x0037   |
| Data Size    | 14 bytes |
| Instructions | 2        |

```
      00 01 02 03 04 05 06 07  08 09 0A 0B 0C 0D 0E 0F
      -- -- -- -- -- -- -- --  -- -- -- -- -- -- -- --
0030:                      53  F8 FF FF 7F F8 FF FF 7F         S........
0040: 74 68 6B 31 00                                    thk1.           
```

#### Opcodes

```
  0: 0x0037 [0x53] WAIT_SCHEDULER_TASK: Wait for scheduler "thk1" with entities [EventEntity, EventEntity]
  1: 0x0044 [0x00] END_REQSTACK()
```

### Event 65535.5

#### Metadata

| Field        | Value    |
|--------------|----------|
| Entrypoint   | 0x0045   |
| Data Size    | 16 bytes |
| Instructions | 2        |

```
      00 01 02 03 04 05 06 07  08 09 0A 0B 0C 0D 0E 0F
      -- -- -- -- -- -- -- --  -- -- -- -- -- -- -- --
0040:                5B 00 80  F8 FF FF 7F F8 FF FF 7F       [..........
0050: 74 68 6B 32 00                                    thk2.           
```

#### Opcodes

```
  0: 0x0045 [0x5B] LOAD_EXT_SCHEDULER: Load scheduler "thk2" with entities [EventEntity, EventEntity], work=70*
  1: 0x0054 [0x00] END_REQSTACK()
```

### Event 65535.6

#### Metadata

| Field        | Value    |
|--------------|----------|
| Entrypoint   | 0x0055   |
| Data Size    | 14 bytes |
| Instructions | 2        |

```
      00 01 02 03 04 05 06 07  08 09 0A 0B 0C 0D 0E 0F
      -- -- -- -- -- -- -- --  -- -- -- -- -- -- -- --
0050:                53 F8 FF  FF 7F F8 FF FF 7F 74 68       S........th
0060: 6B 32 00                                          k2.             
```

#### Opcodes

```
  0: 0x0055 [0x53] WAIT_SCHEDULER_TASK: Wait for scheduler "thk2" with entities [EventEntity, EventEntity]
  1: 0x0062 [0x00] END_REQSTACK()
```

### Event 65535.7

#### Metadata

| Field        | Value    |
|--------------|----------|
| Entrypoint   | 0x0063   |
| Data Size    | 16 bytes |
| Instructions | 2        |

```
      00 01 02 03 04 05 06 07  08 09 0A 0B 0C 0D 0E 0F
      -- -- -- -- -- -- -- --  -- -- -- -- -- -- -- --
0060:          5B 00 80 F8 FF  FF 7F F8 FF FF 7F 70 61     [..........pa
0070: 73 30 00                                          s0.             
```

#### Opcodes

```
  0: 0x0063 [0x5B] LOAD_EXT_SCHEDULER: Load scheduler "pas0" with entities [EventEntity, EventEntity], work=70*
  1: 0x0072 [0x00] END_REQSTACK()
```

### Event 65535.8

#### Metadata

| Field        | Value    |
|--------------|----------|
| Entrypoint   | 0x0073   |
| Data Size    | 14 bytes |
| Instructions | 2        |

```
      00 01 02 03 04 05 06 07  08 09 0A 0B 0C 0D 0E 0F
      -- -- -- -- -- -- -- --  -- -- -- -- -- -- -- --
0070:          53 F8 FF FF 7F  F8 FF FF 7F 70 61 73 30     S........pas0
0080: 00                                                .               
```

#### Opcodes

```
  0: 0x0073 [0x53] WAIT_SCHEDULER_TASK: Wait for scheduler "pas0" with entities [EventEntity, EventEntity]
  1: 0x0080 [0x00] END_REQSTACK()
```

### Event 65535.9

#### Metadata

| Field        | Value   |
|--------------|---------|
| Entrypoint   | 0x0081  |
| Data Size    | 9 bytes |
| Instructions | 3       |

```
      00 01 02 03 04 05 06 07  08 09 0A 0B 0C 0D 0E 0F
      -- -- -- -- -- -- -- --  -- -- -- -- -- -- -- --
0080:    5E 69 64 6C 30 1C 01  80 00                     ^idl0....      
```

#### Opcodes

```
  0: 0x0081 [0x5E] EventEntity goes idle (kills current action) (animation: "idl0")
  1: 0x0086 [0x1C] WAIT(30* ticks)
  2: 0x0089 [0x00] END_REQSTACK()
```

### Event 436

#### Metadata

| Field        | Value    |
|--------------|----------|
| Entrypoint   | 0x008A   |
| Data Size    | 33 bytes |
| Instructions | 12       |

```
      00 01 02 03 04 05 06 07  08 09 0A 0B 0C 0D 0E 0F
      -- -- -- -- -- -- -- --  -- -- -- -- -- -- -- --
0080:                                1E F0 FF FF 7F 6F            .....o
0090: 70 29 08 69 10 0F 01 01  1D 02 80 23 1D 03 80 23  p).i.......#...#
00A0: 29 08 69 10 0F 01 09 20  00 21 00                 ).i.... .!.     
```

#### Opcodes

```
  0: 0x008A [0x1E] EventEntity looks at LocalPlayer and starts talking
  1: 0x008F [0x6F] WAIT_FRAME_DELAY: Yield until WaitTime reaches zero
  2: 0x0090 [0x70] WAIT_ENTITY_RENDER_FLAG: Wait while EventEntity->Render.Flags3 bit 2 is set (cancel turn if not)
  3: 0x0091 [0x29] REQ_SET_WAIT(priority=0x08, entity_id=Roberta (ID: 17764457/0x010F1069), tag_num=0x01)
  4: 0x0098 [0x1D] PRINT_EVENT_MESSAGE(message_id=8552*)
    → "I know, I know... I can tell at a glance that you're an adventurer."
  5: 0x009B [0x23] WAIT_FOR_DIALOG_INTERACTION
  6: 0x009C [0x1D] PRINT_EVENT_MESSAGE(message_id=8553*)
    → "I'm always receiving shipments of goods that you will no doubt find useful. Remember, I'm here to help you. Best of luck on your adventures."
  7: 0x009F [0x23] WAIT_FOR_DIALOG_INTERACTION
  8: 0x00A0 [0x29] REQ_SET_WAIT(priority=0x08, entity_id=Roberta (ID: 17764457/0x010F1069), tag_num=0x09)
  9: 0x00A7 [0x20] SET_CLI_EVENT_UC_FLAG: Unlock player control
 10: 0x00A9 [0x21] END_EVENT
 11: 0x00AA [0x00] END_REQSTACK()
```

### Event 376

#### Metadata

| Field        | Value     |
|--------------|-----------|
| Entrypoint   | 0x00AB    |
| Data Size    | 131 bytes |
| Instructions | 26        |

```
      00 01 02 03 04 05 06 07  08 09 0A 0B 0C 0D 0E 0F
      -- -- -- -- -- -- -- --  -- -- -- -- -- -- -- --
00A0:                                   1E F0 FF FF 7F             .....
00B0: 6F 70 29 08 F0 FF FF 7F  04 29 0B 69 10 0F 01 0C  op)......).i....
00C0: 29 0B 69 10 0F 01 0D 29  0B 69 10 0F 01 0E 24 04  ).i....).i....$.
00D0: 80 05 80 05 80 25 02 00  10 05 80 00 13 01 42 03  .....%........B.
00E0: 01 10 06 80 29 0B 69 10  0F 01 10 5D 05 80 07 80  ....).i....]....
00F0: 1C 07 80 45 08 80 F8 FF  FF 7F F8 FF FF 7F 73 31  ...E..........s1
0100: 30 33 05 80 29 0B 69 10  0F 01 11 5D 09 80 0A 80  03..).i....]....
0110: 01 2A 01 02 00 10 06 80  00 2A 01 03 01 10 0B 80  .*.......*......
0120: 29 0B 69 10 0F 01 0F 01  2A 01 20 00 21 00        ).i.....*. .!.  
```

#### Opcodes

```
  0: 0x00AB [0x1E] EventEntity looks at LocalPlayer and starts talking
  1: 0x00B0 [0x6F] WAIT_FRAME_DELAY: Yield until WaitTime reaches zero
  2: 0x00B1 [0x70] WAIT_ENTITY_RENDER_FLAG: Wait while EventEntity->Render.Flags3 bit 2 is set (cancel turn if not)
  3: 0x00B2 [0x29] REQ_SET_WAIT(priority=0x08, entity_id=LocalPlayer, tag_num=0x04)
  4: 0x00B9 [0x29] REQ_SET_WAIT(priority=0x0B, entity_id=Roberta (ID: 17764457/0x010F1069), tag_num=0x0C)
  5: 0x00C0 [0x29] REQ_SET_WAIT(priority=0x0B, entity_id=Roberta (ID: 17764457/0x010F1069), tag_num=0x0D)
  6: 0x00C7 [0x29] REQ_SET_WAIT(priority=0x0B, entity_id=Roberta (ID: 17764457/0x010F1069), tag_num=0x0E)
  7: 0x00CE [0x24] CREATE_DIALOG(message_id=8413*, default_option=0*, option_flags=0*)
    → "Help Roberta with her ribbon? [Accept./Decline.]"
  8: 0x00D5 [0x25] WAIT_DIALOG_SELECT()
  9: 0x00D6 [0x02] IF !(Work_Zone[0] == 0*) GOTO 0x0113
 10: 0x00DE [0x42] SET_CLI_EVENT_CANCEL_DATA()
 11: 0x00DF [0x03] Work_Zone[1] = 1*
 12: 0x00E4 [0x29] REQ_SET_WAIT(priority=0x0B, entity_id=Roberta (ID: 17764457/0x010F1069), tag_num=0x10)
 13: 0x00EB [0x5D] SET_MUSIC_VOLUME(volume=0*, fade_time=60*)
 14: 0x00F0 [0x1C] WAIT(60* ticks)
 15: 0x00F3 [0x45] LOAD_SCHEDULED_TASK: Load scheduler "s103" with entities [EventEntity, EventEntity], work=[139*, 0*]
 16: 0x0104 [0x29] REQ_SET_WAIT(priority=0x0B, entity_id=Roberta (ID: 17764457/0x010F1069), tag_num=0x11)
 17: 0x010B [0x5D] SET_MUSIC_VOLUME(volume=127*, fade_time=200*)
 18: 0x0110 [0x01] GOTO 0x012A
 19: 0x0113 [0x02] IF !(Work_Zone[0] == 1*) GOTO 0x012A
 20: 0x011B [0x03] Work_Zone[1] = 2*
 21: 0x0120 [0x29] REQ_SET_WAIT(priority=0x0B, entity_id=Roberta (ID: 17764457/0x010F1069), tag_num=0x0F)
 22: 0x0127 [0x01] GOTO 0x012A

SUBROUTINE_012A:
 23: 0x012A [0x20] SET_CLI_EVENT_UC_FLAG: Unlock player control
 24: 0x012C [0x21] END_EVENT
 25: 0x012D [0x00] END_REQSTACK()
```

### Event 65535.10

#### Metadata

| Field        | Value    |
|--------------|----------|
| Entrypoint   | 0x012E   |
| Data Size    | 19 bytes |
| Instructions | 5        |

```
      00 01 02 03 04 05 06 07  08 09 0A 0B 0C 0D 0E 0F
      -- -- -- -- -- -- -- --  -- -- -- -- -- -- -- --
0120:                                            29 08                ).
0130: 69 10 0F 01 03 1D 0C 80  23 29 08 69 10 0F 01 04  i.......#).i....
0140: 00                                                .               
```

#### Opcodes

```
  0: 0x012E [0x29] REQ_SET_WAIT(priority=0x08, entity_id=Roberta (ID: 17764457/0x010F1069), tag_num=0x03)
  1: 0x0135 [0x1D] PRINT_EVENT_MESSAGE(message_id=8409*)
    → "Why, hello there, adventurer. I have a puzzling little problem you might be able to help me with..."
  2: 0x0138 [0x23] WAIT_FOR_DIALOG_INTERACTION
  3: 0x0139 [0x29] REQ_SET_WAIT(priority=0x08, entity_id=Roberta (ID: 17764457/0x010F1069), tag_num=0x04)
  4: 0x0140 [0x00] END_REQSTACK()
```

### Event 65535.11

#### Metadata

| Field        | Value    |
|--------------|----------|
| Entrypoint   | 0x0141   |
| Data Size    | 23 bytes |
| Instructions | 7        |

```
      00 01 02 03 04 05 06 07  08 09 0A 0B 0C 0D 0E 0F
      -- -- -- -- -- -- -- --  -- -- -- -- -- -- -- --
0140:    29 08 69 10 0F 01 05  1D 0D 80 23 29 08 69 10   ).i.......#).i.
0150: 0F 01 06 1D 0E 80 23 00                           ......#.        
```

#### Opcodes

```
  0: 0x0141 [0x29] REQ_SET_WAIT(priority=0x08, entity_id=Roberta (ID: 17764457/0x010F1069), tag_num=0x05)
  1: 0x0148 [0x1D] PRINT_EVENT_MESSAGE(message_id=8410*)
    → "A while ago, I came into the possession of something called $1, which has given me the spooks."
  2: 0x014B [0x23] WAIT_FOR_DIALOG_INTERACTION
  3: 0x014C [0x29] REQ_SET_WAIT(priority=0x08, entity_id=Roberta (ID: 17764457/0x010F1069), tag_num=0x06)
  4: 0x0153 [0x1D] PRINT_EVENT_MESSAGE(message_id=8411*)
    → "I've heard that its previous owners have all had the most bizarre things happen to them."
  5: 0x0156 [0x23] WAIT_FOR_DIALOG_INTERACTION
  6: 0x0157 [0x00] END_REQSTACK()
```

### Event 65535.12

#### Metadata

| Field        | Value    |
|--------------|----------|
| Entrypoint   | 0x0158   |
| Data Size    | 19 bytes |
| Instructions | 5        |

```
      00 01 02 03 04 05 06 07  08 09 0A 0B 0C 0D 0E 0F
      -- -- -- -- -- -- -- --  -- -- -- -- -- -- -- --
0150:                          29 08 69 10 0F 01 01 1D          ).i.....
0160: 0F 80 23 29 08 69 10 0F  01 02 00                 ..#).i.....     
```

#### Opcodes

```
  0: 0x0158 [0x29] REQ_SET_WAIT(priority=0x08, entity_id=Roberta (ID: 17764457/0x010F1069), tag_num=0x01)
  1: 0x015F [0x1D] PRINT_EVENT_MESSAGE(message_id=8412*)
    → "I've tried to get rid of the damned thing, but somehow it keeps making its way back to me. So...I was wondering if you can do something about this ribbon before I go quite crazy."
  2: 0x0162 [0x23] WAIT_FOR_DIALOG_INTERACTION
  3: 0x0163 [0x29] REQ_SET_WAIT(priority=0x08, entity_id=Roberta (ID: 17764457/0x010F1069), tag_num=0x02)
  4: 0x016A [0x00] END_REQSTACK()
```

### Event 65535.13

#### Metadata

| Field        | Value    |
|--------------|----------|
| Entrypoint   | 0x016B   |
| Data Size    | 19 bytes |
| Instructions | 5        |

```
      00 01 02 03 04 05 06 07  08 09 0A 0B 0C 0D 0E 0F
      -- -- -- -- -- -- -- --  -- -- -- -- -- -- -- --
0160:                                   29 08 69 10 0F             ).i..
0170: 01 01 1D 10 80 23 29 08  69 10 0F 01 02 00        .....#).i.....  
```

#### Opcodes

```
  0: 0x016B [0x29] REQ_SET_WAIT(priority=0x08, entity_id=Roberta (ID: 17764457/0x010F1069), tag_num=0x01)
  1: 0x0172 [0x1D] PRINT_EVENT_MESSAGE(message_id=8414*)
    → "Don't tell me you're too scared! Why, you looked like the type who could help an old lady."
  2: 0x0175 [0x23] WAIT_FOR_DIALOG_INTERACTION
  3: 0x0176 [0x29] REQ_SET_WAIT(priority=0x08, entity_id=Roberta (ID: 17764457/0x010F1069), tag_num=0x02)
  4: 0x017D [0x00] END_REQSTACK()
```

### Event 65535.14

#### Metadata

| Field        | Value    |
|--------------|----------|
| Entrypoint   | 0x017E   |
| Data Size    | 19 bytes |
| Instructions | 5        |

```
      00 01 02 03 04 05 06 07  08 09 0A 0B 0C 0D 0E 0F
      -- -- -- -- -- -- -- --  -- -- -- -- -- -- -- --
0170:                                            29 08                ).
0180: 69 10 0F 01 01 1D 11 80  23 29 08 69 10 0F 01 02  i.......#).i....
0190: 00                                                .               
```

#### Opcodes

```
  0: 0x017E [0x29] REQ_SET_WAIT(priority=0x08, entity_id=Roberta (ID: 17764457/0x010F1069), tag_num=0x01)
  1: 0x0185 [0x1D] PRINT_EVENT_MESSAGE(message_id=8415*)
    → "I'm almost afraid to get you caught up in this business as well, but thank you for agreeing to help me out. Handle it with care, now..."
  2: 0x0188 [0x23] WAIT_FOR_DIALOG_INTERACTION
  3: 0x0189 [0x29] REQ_SET_WAIT(priority=0x08, entity_id=Roberta (ID: 17764457/0x010F1069), tag_num=0x02)
  4: 0x0190 [0x00] END_REQSTACK()
```

### Event 378

#### Metadata

| Field        | Value   |
|--------------|---------|
| Entrypoint   | 0x0191  |
| Data Size    | 5 bytes |
| Instructions | 3       |

```
      00 01 02 03 04 05 06 07  08 09 0A 0B 0C 0D 0E 0F
      -- -- -- -- -- -- -- --  -- -- -- -- -- -- -- --
0190:    48 12 80 23 00                                  H..#.          
```

#### Opcodes

```
  0: 0x0191 [0x48] [System] [8422*]:
    → "Hey [Mister/Ma'am]... Are you going to take me home...?"
  1: 0x0194 [0x23] WAIT_FOR_DIALOG_INTERACTION
  2: 0x0195 [0x00] END_REQSTACK()
```

### Event 65535.15

#### Metadata

| Field        | Value    |
|--------------|----------|
| Entrypoint   | 0x0196   |
| Data Size    | 19 bytes |
| Instructions | 5        |

```
      00 01 02 03 04 05 06 07  08 09 0A 0B 0C 0D 0E 0F
      -- -- -- -- -- -- -- --  -- -- -- -- -- -- -- --
0190:                   29 08  69 10 0F 01 01 1D 13 80        ).i.......
01A0: 23 29 08 69 10 0F 01 02  00                       #).i.....       
```

#### Opcodes

```
  0: 0x0196 [0x29] REQ_SET_WAIT(priority=0x08, entity_id=Roberta (ID: 17764457/0x010F1069), tag_num=0x01)
  1: 0x019D [0x1D] PRINT_EVENT_MESSAGE(message_id=8423*)
    → "That ribbon is not for sale, and I certainly wouldn't buy it back from anyone. Yet, somehow it manages to come back here to me. What's going on...?"
  2: 0x01A0 [0x23] WAIT_FOR_DIALOG_INTERACTION
  3: 0x01A1 [0x29] REQ_SET_WAIT(priority=0x08, entity_id=Roberta (ID: 17764457/0x010F1069), tag_num=0x02)
  4: 0x01A8 [0x00] END_REQSTACK()
```

### Event 377

#### Metadata

| Field        | Value    |
|--------------|----------|
| Entrypoint   | 0x01A9   |
| Data Size    | 81 bytes |
| Instructions | 22       |

```
      00 01 02 03 04 05 06 07  08 09 0A 0B 0C 0D 0E 0F
      -- -- -- -- -- -- -- --  -- -- -- -- -- -- -- --
01A0:                             1E F0 FF FF 7F 6F 70           .....op
01B0: 29 08 F0 FF FF 7F 04 29  08 69 10 0F 01 03 1D 14  )......).i......
01C0: 80 23 1D 15 80 23 29 08  69 10 0F 01 04 24 16 80  .#...#).i....$..
01D0: 05 80 05 80 25 02 00 10  05 80 00 E7 01 29 0B 69  ....%........).i
01E0: 10 0F 01 14 01 F6 01 02  00 10 06 80 00 F6 01 1D  ................
01F0: 17 80 23 01 F6 01 20 00  21 00                    ..#... .!.      
```

#### Opcodes

```
  0: 0x01A9 [0x1E] EventEntity looks at LocalPlayer and starts talking
  1: 0x01AE [0x6F] WAIT_FRAME_DELAY: Yield until WaitTime reaches zero
  2: 0x01AF [0x70] WAIT_ENTITY_RENDER_FLAG: Wait while EventEntity->Render.Flags3 bit 2 is set (cancel turn if not)
  3: 0x01B0 [0x29] REQ_SET_WAIT(priority=0x08, entity_id=LocalPlayer, tag_num=0x04)
  4: 0x01B7 [0x29] REQ_SET_WAIT(priority=0x08, entity_id=Roberta (ID: 17764457/0x010F1069), tag_num=0x03)
  5: 0x01BE [0x1D] PRINT_EVENT_MESSAGE(message_id=8416*)
    → "Why, hello again, adventurer. I still have that puzzling little problem you were supposed to be helping me out with..."
  6: 0x01C1 [0x23] WAIT_FOR_DIALOG_INTERACTION
  7: 0x01C2 [0x1D] PRINT_EVENT_MESSAGE(message_id=8417*)
    → "Remember that $1 I gave you? Well, by any chance, did you happen to lose it?"
  8: 0x01C5 [0x23] WAIT_FOR_DIALOG_INTERACTION
  9: 0x01C6 [0x29] REQ_SET_WAIT(priority=0x08, entity_id=Roberta (ID: 17764457/0x010F1069), tag_num=0x04)
 10: 0x01CD [0x24] CREATE_DIALOG(message_id=8418*, default_option=0*, option_flags=0*)
    → "Lost the ribbon? [Yes./No.]"
 11: 0x01D4 [0x25] WAIT_DIALOG_SELECT()
 12: 0x01D5 [0x02] IF !(Work_Zone[0] == 0*) GOTO 0x01E7
 13: 0x01DD [0x29] REQ_SET_WAIT(priority=0x0B, entity_id=Roberta (ID: 17764457/0x010F1069), tag_num=0x14)
 14: 0x01E4 [0x01] GOTO 0x01F6
 15: 0x01E7 [0x02] IF !(Work_Zone[0] == 1*) GOTO 0x01F6
 16: 0x01EF [0x1D] PRINT_EVENT_MESSAGE(message_id=8421*)
    → "Really? Hmm... No matter then..."
 17: 0x01F2 [0x23] WAIT_FOR_DIALOG_INTERACTION
 18: 0x01F3 [0x01] GOTO 0x01F6

SUBROUTINE_01F6:
 19: 0x01F6 [0x20] SET_CLI_EVENT_UC_FLAG: Unlock player control
 20: 0x01F8 [0x21] END_EVENT
 21: 0x01F9 [0x00] END_REQSTACK()
```

### Event 65535.16

#### Metadata

| Field        | Value     |
|--------------|-----------|
| Entrypoint   | 0x01FA    |
| Data Size    | 115 bytes |
| Instructions | 23        |

```
      00 01 02 03 04 05 06 07  08 09 0A 0B 0C 0D 0E 0F
      -- -- -- -- -- -- -- --  -- -- -- -- -- -- -- --
01F0:                                29 08 69 10 0F 01            ).i...
0200: 05 1D 18 80 23 29 08 69  10 0F 01 06 1D 19 80 23  ....#).i.......#
0210: 24 04 80 05 80 05 80 25  02 00 10 05 80 00 55 02  $......%......U.
0220: 42 03 01 10 06 80 29 0A  69 10 0F 01 10 5D 05 80  B.....).i....]..
0230: 07 80 1C 07 80 45 08 80  F8 FF FF 7F F8 FF FF 7F  .....E..........
0240: 73 31 30 33 05 80 29 0A  69 10 0F 01 11 5D 09 80  s103..).i....]..
0250: 0A 80 01 6C 02 02 00 10  06 80 00 6C 02 03 01 10  ...l.......l....
0260: 0B 80 29 0A 69 10 0F 01  0F 01 6C 02 00           ..).i.....l..   
```

#### Opcodes

```
  0: 0x01FA [0x29] REQ_SET_WAIT(priority=0x08, entity_id=Roberta (ID: 17764457/0x010F1069), tag_num=0x05)
  1: 0x0201 [0x1D] PRINT_EVENT_MESSAGE(message_id=8419*)
    → "I knew it! I knew it! You won't believe this, but that $1 I gave you somehow made its way back to me again!"
  2: 0x0204 [0x23] WAIT_FOR_DIALOG_INTERACTION
  3: 0x0205 [0x29] REQ_SET_WAIT(priority=0x08, entity_id=Roberta (ID: 17764457/0x010F1069), tag_num=0x06)
  4: 0x020C [0x1D] PRINT_EVENT_MESSAGE(message_id=8420*)
    → "Please. I beg you. Do something about this ribbon before it drives me crazy!"
  5: 0x020F [0x23] WAIT_FOR_DIALOG_INTERACTION
  6: 0x0210 [0x24] CREATE_DIALOG(message_id=8413*, default_option=0*, option_flags=0*)
    → "Help Roberta with her ribbon? [Accept./Decline.]"
  7: 0x0217 [0x25] WAIT_DIALOG_SELECT()
  8: 0x0218 [0x02] IF !(Work_Zone[0] == 0*) GOTO 0x0255
  9: 0x0220 [0x42] SET_CLI_EVENT_CANCEL_DATA()
 10: 0x0221 [0x03] Work_Zone[1] = 1*
 11: 0x0226 [0x29] REQ_SET_WAIT(priority=0x0A, entity_id=Roberta (ID: 17764457/0x010F1069), tag_num=0x10)
 12: 0x022D [0x5D] SET_MUSIC_VOLUME(volume=0*, fade_time=60*)
 13: 0x0232 [0x1C] WAIT(60* ticks)
 14: 0x0235 [0x45] LOAD_SCHEDULED_TASK: Load scheduler "s103" with entities [EventEntity, EventEntity], work=[139*, 0*]
 15: 0x0246 [0x29] REQ_SET_WAIT(priority=0x0A, entity_id=Roberta (ID: 17764457/0x010F1069), tag_num=0x11)
 16: 0x024D [0x5D] SET_MUSIC_VOLUME(volume=127*, fade_time=200*)
 17: 0x0252 [0x01] GOTO 0x026C
 18: 0x0255 [0x02] IF !(Work_Zone[0] == 1*) GOTO 0x026C
 19: 0x025D [0x03] Work_Zone[1] = 2*
 20: 0x0262 [0x29] REQ_SET_WAIT(priority=0x0A, entity_id=Roberta (ID: 17764457/0x010F1069), tag_num=0x0F)
 21: 0x0269 [0x01] GOTO 0x026C

SUBROUTINE_026C:
 22: 0x026C [0x00] END_REQSTACK()
```

### Event 379

#### Metadata

| Field        | Value    |
|--------------|----------|
| Entrypoint   | 0x026D   |
| Data Size    | 29 bytes |
| Instructions | 10       |

```
      00 01 02 03 04 05 06 07  08 09 0A 0B 0C 0D 0E 0F
      -- -- -- -- -- -- -- --  -- -- -- -- -- -- -- --
0260:                                         1E F0 FF               ...
0270: FF 7F 6F 70 29 08 69 10  0F 01 01 1D 1A 80 23 29  ..op).i.......#)
0280: 08 69 10 0F 01 09 20 00  21 00                    .i.... .!.      
```

#### Opcodes

```
  0: 0x026D [0x1E] EventEntity looks at LocalPlayer and starts talking
  1: 0x0272 [0x6F] WAIT_FRAME_DELAY: Yield until WaitTime reaches zero
  2: 0x0273 [0x70] WAIT_ENTITY_RENDER_FLAG: Wait while EventEntity->Render.Flags3 bit 2 is set (cancel turn if not)
  3: 0x0274 [0x29] REQ_SET_WAIT(priority=0x08, entity_id=Roberta (ID: 17764457/0x010F1069), tag_num=0x01)
  4: 0x027B [0x1D] PRINT_EVENT_MESSAGE(message_id=8424*)
    → "That ribbon is not for sale, and I certainly wouldn't buy it back from anyone. Yet, somehow it manages to come back here to me. What's going on...?"
  5: 0x027E [0x23] WAIT_FOR_DIALOG_INTERACTION
  6: 0x027F [0x29] REQ_SET_WAIT(priority=0x08, entity_id=Roberta (ID: 17764457/0x010F1069), tag_num=0x09)
  7: 0x0286 [0x20] SET_CLI_EVENT_UC_FLAG: Unlock player control
  8: 0x0288 [0x21] END_EVENT
  9: 0x0289 [0x00] END_REQSTACK()
```

### Event 380

#### Metadata

| Field        | Value    |
|--------------|----------|
| Entrypoint   | 0x028A   |
| Data Size    | 29 bytes |
| Instructions | 10       |

```
      00 01 02 03 04 05 06 07  08 09 0A 0B 0C 0D 0E 0F
      -- -- -- -- -- -- -- --  -- -- -- -- -- -- -- --
0280:                                1E F0 FF FF 7F 6F            .....o
0290: 70 29 08 69 10 0F 01 01  1D 1B 80 23 29 08 69 10  p).i.......#).i.
02A0: 0F 01 09 20 00 21 00                              ... .!.         
```

#### Opcodes

```
  0: 0x028A [0x1E] EventEntity looks at LocalPlayer and starts talking
  1: 0x028F [0x6F] WAIT_FRAME_DELAY: Yield until WaitTime reaches zero
  2: 0x0290 [0x70] WAIT_ENTITY_RENDER_FLAG: Wait while EventEntity->Render.Flags3 bit 2 is set (cancel turn if not)
  3: 0x0291 [0x29] REQ_SET_WAIT(priority=0x08, entity_id=Roberta (ID: 17764457/0x010F1069), tag_num=0x01)
  4: 0x0298 [0x1D] PRINT_EVENT_MESSAGE(message_id=8425*)
    → "You don't have to tell me anything about the background of that ribbon. I don't want to know."
  5: 0x029B [0x23] WAIT_FOR_DIALOG_INTERACTION
  6: 0x029C [0x29] REQ_SET_WAIT(priority=0x08, entity_id=Roberta (ID: 17764457/0x010F1069), tag_num=0x09)
  7: 0x02A3 [0x20] SET_CLI_EVENT_UC_FLAG: Unlock player control
  8: 0x02A5 [0x21] END_EVENT
  9: 0x02A6 [0x00] END_REQSTACK()
```
