# 17764353 - DIRECTOR

## Common Data

| Field            | Value                    |
|------------------|--------------------------|
| Zone             | Windurst Woods (ID: 241) |
| Block Size       | 4360 bytes               |
| Total Events     | 36                       |
| References Count | 128                      |

## List of Events

| Event ID                   | Entrypoint   |   Size |   Instructions |
|----------------------------|--------------|--------|----------------|
| [65535](#event-65535)      | 0x0000       |      1 |              1 |
| [1](#event-1)              | 0x0001       |    179 |             35 |
| [65535.1](#event-655351)   | 0x00B4       |    246 |             44 |
| [65535.2](#event-655352)   | 0x01AA       |    170 |             34 |
| [65535.3](#event-655353)   | 0x0254       |    168 |             32 |
| [65535.4](#event-655354)   | 0x02FC       |    138 |             28 |
| [65535.5](#event-655355)   | 0x0386       |    102 |             22 |
| [65535.6](#event-655356)   | 0x03EC       |     84 |             19 |
| [65535.7](#event-655357)   | 0x0440       |     66 |             16 |
| [65535.8](#event-655358)   | 0x0482       |    120 |             23 |
| [65535.9](#event-655359)   | 0x04FA       |    174 |             34 |
| [65535.10](#event-6553510) | 0x05A8       |    214 |             44 |
| [6](#event-6)              | 0x067E       |      8 |              5 |
| [65535.11](#event-6553511) | 0x0686       |    124 |             26 |
| [65535.12](#event-6553512) | 0x0702       |    147 |             30 |
| [65535.13](#event-6553513) | 0x0795       |    193 |             38 |
| [65535.14](#event-6553514) | 0x0856       |    147 |             30 |
| [65535.15](#event-6553515) | 0x08E9       |    101 |             22 |
| [65535.16](#event-6553516) | 0x094E       |    147 |             30 |
| [65535.17](#event-6553517) | 0x09E1       |     81 |             17 |
| [65535.18](#event-6553518) | 0x0A32       |    104 |             21 |
| [65535.19](#event-6553519) | 0x0A9A       |    104 |             21 |
| [65535.20](#event-6553520) | 0x0B02       |    104 |             21 |
| [65535.21](#event-6553521) | 0x0B6A       |    127 |             25 |
| [65535.22](#event-6553522) | 0x0BE9       |     58 |             13 |
| [65535.23](#event-6553523) | 0x0C23       |    127 |             25 |
| [65535.24](#event-6553524) | 0x0CA2       |     58 |             13 |
| [65535.25](#event-6553525) | 0x0CDC       |     58 |             13 |
| [65535.26](#event-6553526) | 0x0D16       |    150 |             29 |
| [65535.27](#event-6553527) | 0x0DAC       |     81 |             17 |
| [65535.28](#event-6553528) | 0x0DFD       |     60 |             14 |
| [21](#event-21)            | 0x0E39       |      8 |              5 |
| [22](#event-22)            | 0x0E41       |      8 |              5 |
| [23](#event-23)            | 0x0E49       |      8 |              5 |
| [65535.29](#event-6553529) | 0x0E51       |     13 |              6 |
| [24](#event-24)            | 0x0E5E       |      8 |              5 |

## DAT References (imed_data)

|   Index | Hex Value   |   Dec Value |
|---------|-------------|-------------|
|       0 | 0x21C5      |        8645 |
|       1 | 0x0000      |           0 |
|       2 | 0x0001      |           1 |
|       3 | 0x0002      |           2 |
|       4 | 0x0003      |           3 |
|       5 | 0x0004      |           4 |
|       6 | 0x0005      |           5 |
|       7 | 0x0063      |          99 |
|       8 | 0x0006      |           6 |
|       9 | 0x1A24      |        6692 |
|      10 | 0x0064      |         100 |
|      11 | 0x0007      |           7 |
|      12 | 0x0008      |           8 |
|      13 | 0x21C4      |        8644 |
|      14 | 0x0009      |           9 |
|      15 | 0x000A      |          10 |
|      16 | 0x000B      |          11 |
|      17 | 0x000C      |          12 |
|      18 | 0x1A38      |        6712 |
|      19 | 0x21C7      |        8647 |
|      20 | 0x21C8      |        8648 |
|      21 | 0x21C9      |        8649 |
|      22 | 0x21CA      |        8650 |
|      23 | 0x21CB      |        8651 |
|      24 | 0x21C6      |        8646 |
|      25 | 0x012C      |         300 |
|      26 | 0x012D      |         301 |
|      27 | 0x012E      |         302 |
|      28 | 0x012F      |         303 |
|      29 | 0x0130      |         304 |
|      30 | 0x0131      |         305 |
|      31 | 0x0132      |         306 |
|      32 | 0x0133      |         307 |
|      33 | 0x0134      |         308 |
|      34 | 0x1A56      |        6742 |
|      35 | 0x21CC      |        8652 |
|      36 | 0x000D      |          13 |
|      37 | 0x000E      |          14 |
|      38 | 0x21CD      |        8653 |
|      39 | 0x000F      |          15 |
|      40 | 0x0010      |          16 |
|      41 | 0x0011      |          17 |
|      42 | 0x0012      |          18 |
|      43 | 0x0013      |          19 |
|      44 | 0x21CE      |        8654 |
|      45 | 0x0014      |          20 |
|      46 | 0x0015      |          21 |
|      47 | 0x0016      |          22 |
|      48 | 0x0017      |          23 |
|      49 | 0x0018      |          24 |
|      50 | 0x0019      |          25 |
|      51 | 0x001A      |          26 |
|      52 | 0x21CF      |        8655 |
|      53 | 0x001B      |          27 |
|      54 | 0x001C      |          28 |
|      55 | 0x001D      |          29 |
|      56 | 0x001E      |          30 |
|      57 | 0x001F      |          31 |
|      58 | 0x21D0      |        8656 |
|      59 | 0x0020      |          32 |
|      60 | 0x0021      |          33 |
|      61 | 0x0022      |          34 |
|      62 | 0x21D1      |        8657 |
|      63 | 0x0024      |          36 |
|      64 | 0x0025      |          37 |
|      65 | 0x0026      |          38 |
|      66 | 0x0027      |          39 |
|      67 | 0x0028      |          40 |
|      68 | 0x21D2      |        8658 |
|      69 | 0x0029      |          41 |
|      70 | 0x002A      |          42 |
|      71 | 0x002B      |          43 |
|      72 | 0x21D3      |        8659 |
|      73 | 0x002C      |          44 |
|      74 | 0x002D      |          45 |
|      75 | 0x002E      |          46 |
|      76 | 0x002F      |          47 |
|      77 | 0x21D4      |        8660 |
|      78 | 0x0030      |          48 |
|      79 | 0x0031      |          49 |
|      80 | 0x0032      |          50 |
|      81 | 0x0033      |          51 |
|      82 | 0x21D5      |        8661 |
|      83 | 0x0034      |          52 |
|      84 | 0x0035      |          53 |
|      85 | 0x0036      |          54 |
|      86 | 0x0037      |          55 |
|      87 | 0x21D6      |        8662 |
|      88 | 0x0038      |          56 |
|      89 | 0x0039      |          57 |
|      90 | 0x003A      |          58 |
|      91 | 0x003B      |          59 |
|      92 | 0x003C      |          60 |
|      93 | 0x21D7      |        8663 |
|      94 | 0x003D      |          61 |
|      95 | 0x003E      |          62 |
|      96 | 0x21D8      |        8664 |
|      97 | 0x003F      |          63 |
|      98 | 0x0040      |          64 |
|      99 | 0x0041      |          65 |
|     100 | 0x0042      |          66 |
|     101 | 0x0043      |          67 |
|     102 | 0x21D9      |        8665 |
|     103 | 0x0044      |          68 |
|     104 | 0x0045      |          69 |
|     105 | 0x21DA      |        8666 |
|     106 | 0x0046      |          70 |
|     107 | 0x0047      |          71 |
|     108 | 0x21DB      |        8667 |
|     109 | 0x0048      |          72 |
|     110 | 0x0049      |          73 |
|     111 | 0x004A      |          74 |
|     112 | 0x004B      |          75 |
|     113 | 0x004C      |          76 |
|     114 | 0x004D      |          77 |
|     115 | 0x21DC      |        8668 |
|     116 | 0x004E      |          78 |
|     117 | 0x004F      |          79 |
|     118 | 0x0050      |          80 |
|     119 | 0x1A39      |        6713 |
|     120 | 0x0060      |          96 |
|     121 | 0x0061      |          97 |
|     122 | 0x0062      |          98 |
|     123 | 0x1A3A      |        6714 |
|     124 | 0x1A3B      |        6715 |
|     125 | 0x1A3C      |        6716 |
|     126 | 0x1A25      |        6693 |
|     127 | 0x1A26      |        6694 |

## String References

- **6692**: Oh no! Your Adventurers' certificate vanished!
- **6693**: Counting $0 people!
- **6694**: Your rank is now $7!!
- **6712**: ex [u6-1:v$P12<$P11O/u6-2:v$P12<$P11O/u7-1:v$P12<$P11O/u7-2:v$P12<$P11O/u8-1:v$P12<$P11O/u8-2:v$P12<$P11O/u9-1:v$P12<$P11O/u9-2:v$P12<$P11O/u9-2:$6816365]
- **6713**: $P122$8n [@$n$P16{n/$3~$3b$3V$3/$3$12n/$3][$3$3t$3$3On]
- **6714**: U_START_WS_QSM$0@U_END_WS_QSM$1 U_SPECIAL_FLAGM$2@U_SPECIAL_FLAG2M$3 U_SPECIAL_BIT(2)M$4$330317 U_RANK_LEVEL_WSM$6@U_FAME_WS_COMMONM$7
- **6715**: U_MS_STARTM$0@U_END_WS_MSM$1 U_RANK_POINT_WSM$2@U_MS_COUNTERM$3 U_WS_FLAGSM$4@U_SPECIAL_FLAGM$5 U_RANK_LEVEL_WSM$6@U_FAME_WS_COMMONM$7
- **6716**: Z_ipc_id01M$0@Z_ipc_id02M$1 Z_ipc_id03M$2@Z_ipc_id04M$3 Z_ipc_id05M$4@Z_ipc_id06M$5 Z_ipc_id07M$6@Z_ANG_time01M$7
- **6742**: $7p$hI$P13|j\\5=><Player>
- **8644**: WARP TO...? [MANUSTERY1./MANUSTERY2./WEAVERS' GUILD./BONEWORKERS' GUILD./GOOD GOODS./AUCTION HOUSE./CHOCOBOSTABLES./CONSULATE OF SAN D'ORIA./EASTERN GATEHOUSE./APOTHECARY./MITHRA BOSS./CAT BURGLAR'S PAD./DHALMEL FARM.]
- **8645**: WHAT YOU WANT TO DO? [@RANK./QUEST./WARP./ITEMS./QUEST TO BE HUNTER./LEFT ZONE ONCE./RESET ALL QUEST FLAGS./>INVESTIGATION./>YOU-KNOW-WHATS-ITS.]
- **8646**: WHICH QUEST? [ute001:NEW$3J$3J$3V-qL$P12a$P106v/udb001:$7%G-5="Hv/udb002:$h2=&M$P15s$P10Nv/uck001:$P14i$P13\`L$P16rv/uha005:$tmj=$3$3{$3$1@L$E$9$20$P15*v/ukJB001:$3L$3o\`B$Rv/ukI001:$3N$3$3E$3$1[p$ki$Rv/ute002:B$P10+L$30$P11cv/ute003:$P13\`$P10\`L$P11e$l$P10mv/uck003:$P13A$P10;$3V$3\`$3$5[v/ute005:$P10/L%\\v]
- **8647**: RANK 1... [ute001:NEW$3J$3J$3V-qL$P12a$P106v/uzs001:$P13A$3_$3lEWindurst@L$P13r$6$20$P15*v/udb001:$7%G-5="Hv/uck001:$P14i$P13\`L$P16rv/ukI001:$3N$3$3E$3$1[p$ki$Rv/LEFT ZONE ONCE./RESET ALL QUEST FLAGS.]
- **8648**: RANK 2... [udb002:$h2=&M$P15s$P10Nv/ukJB001:$3L$3o\`B$Rv/ute002:B$P10+L$30$P11cv/LEFT ZONE ONCE./RESET ALL QUEST FLAGS.]
- **8649**: RANK 3... [ute003:$P13\`$P10\`L$P11e$l$P10mv/uck003:$P13A$P10;$3V$3\`$3$5[v/LEFT ZONE ONCE./RESET ALL QUEST FLAGS.]
- **8650**: RANK 5... [ute005:$P10/L%\\v/LEFT ZONE ONCE./RESET ALL QUEST FLAGS.]
- **8651**: OTHER RANKS: [uha005:$tmj=$3$3{$3$1@L$E$9$20$P15*v/ujne003:JeunoL$3J$3J$3V@$P13r$6v/uzs002:$16\\j=$P13A$3_$3l@L$P13r$6v/$6881824<Player>$L$=@L$P13r$6v/usf001:$3V[$3t$3A[$3e$3B$3t$3@$3N$3gv/ukjb001:$k$P10l$3A[$3e$3B$3t$3@$3N$3gv]
- **8652**: SET WHICH FLAGS? [@te001OK FLAG./te001START FLAG./GAVE ITEM FLAG./JUST AFTER te001END FLAG./RESET ALL QUEST FLAGS.]
- **8653**: SET WHICH FLAGS? [@db001OK FLAG./DID GREETING MOTION./db001START FLAG./GAVE YAGUDO ITEM./JUST AFTER db001END FLAG./RESET ALL QUEST FLAGS.]
- **8654**: SET WHICH FLAGS? [@db002OK FLAG./db002START FLAG./WENT TO BASTOK GOLDSMITHS' GUILD./BACK TO MITHRA'S PAD./HEARD IT FROM TRAVELER./GAVE STONE TO TRAVELER./db002END$P12<c FLAG./RESET ALL QUEST FLAGS.]
- **8655**: SET WHICH FLAGS? [@ck001OK FLAG./ck001START FLAG./HEARD IT FROM APOTHECARY./GAVE'EM TO APOTHECARY./ck001END$P12<c FLAG./RESET ALL QUEST FLAGS.]
- **8656**: SET WHICH FLAGS? [@ha005OK FLAG./RECEIVED RIBBON./ha005END$P12<c FLAG./RESET ALL QUEST FLAGS.]
- **8657**: SET WHICH FLAGS? [@HUNTER JOB OK FLAG./HUNTER JOB START FLAG./GAVE FALSE FANG./GAVE REAL FANG./HUNTER JOB END$P12<c FLAG./RESET ALL QUEST FLAGS.]
- **8658**: SET WHICH FLAGS? [START FLAG./TOUCHED DOOR./QUEST FINISHED.]
- **8659**: SET WHICH FLAGS? [KR001ok FLAG./KR001start FLAG./GAVE $3A$3S./QUEST FINISHED.]
- **8660**: SET WHICH FLAGS? [TE002ok FLAG./JUST BEFORE TE002start FLAG./FOUND CARDIAN./QUEST FINISHED.]
- **8661**: SET WHICH FLAGS? [TE003ok FLAG./JUST BEFORE TE003start FLAG./HANDED OVER ITEM./QUEST FINISHED.]
- **8662**: SET WHICH FLAGS? [CK003ok FLAG./JUST BEFORE CK003start FLAG./RECEIVED STEW./QUEST FINISHED./OK TO DO AGAIN.]
- **8663**: SET WHICH FLAGS? [JNE003mi FLAG./JNE003card FLAG.]
- **8664**: SET WHICH FLAGS? [TE005OK FLAG./TE005start FLAG./HEARD IT FROM Boizo-Naizo./GOT ITEM (in front of Apururu)./QUEST FINISHED.]
- **8665**: SET WHICH FLAGS? [ZS002mi FLAG./ZS002end FLAG.]
- **8666**: SET WHICH FLAGS? [ME003mi FLAG./ME003end FLAG.]
- **8667**: $3t$3$3O%'DiE$3U[$3}$3XH [SF001c/SF002$s/=$P12<c/SF002$17%^2B$3Q$3b$3g/SF002c/SF003$s/=$P12<c/SF003$7276873A=]
- **8668**: $3t$3$3O%'DiE$3U[$3}$3XH [KJB011$P11O/KJB011c/KJB011%oA=]

## Events

### Event 65535

#### Metadata

| Field        | Value   |
|--------------|---------|
| Entrypoint   | 0x0000  |
| Data Size    | 1 bytes |
| Instructions | 1       |

```
      00 01 02 03 04 05 06 07  08 09 0A 0B 0C 0D 0E 0F
      -- -- -- -- -- -- -- --  -- -- -- -- -- -- -- --
0000: 00                                                .               
```

#### Opcodes

```
  0: 0x0000 [0x00] END_REQSTACK()
```

### Event 1

#### Metadata

| Field        | Value     |
|--------------|-----------|
| Entrypoint   | 0x0001    |
| Data Size    | 179 bytes |
| Instructions | 35        |

```
      00 01 02 03 04 05 06 07  08 09 0A 0B 0C 0D 0E 0F
      -- -- -- -- -- -- -- --  -- -- -- -- -- -- -- --
0000:    1E F0 FF FF 7F 24 00  80 01 80 01 80 25 02 00   .....$......%..
0010: 10 01 80 00 20 00 29 0E  01 10 0F 01 03 01 B0 00  .... .).........
0020: 02 00 10 02 80 00 32 00  29 0E 01 10 0F 01 04 01  ......2.).......
0030: B0 00 02 00 10 03 80 00  44 00 29 0E 01 10 0F 01  ........D.).....
0040: 02 01 B0 00 02 00 10 04  80 00 56 00 29 0E 01 10  ..........V.)...
0050: 0F 01 0B 01 B0 00 02 00  10 05 80 00 68 00 29 0E  ............h.).
0060: 01 10 0F 01 12 01 B0 00  02 00 10 06 80 00 78 00  ..............x.
0070: 03 01 10 07 80 01 B0 00  02 00 10 08 80 00 8C 00  ................
0080: 1D 09 80 23 03 01 10 0A  80 01 B0 00 02 00 10 0B  ...#............
0090: 80 00 9E 00 29 0E 01 10  0F 01 1E 01 B0 00 02 00  ....)...........
00A0: 10 0C 80 00 B0 00 29 0E  01 10 0F 01 22 01 B0 00  ......)....."...
00B0: 20 00 21 00                                        .!.            
```

#### Opcodes

```
  0: 0x0001 [0x1E] EventEntity looks at LocalPlayer and starts talking
  1: 0x0006 [0x24] CREATE_DIALOG(message_id=8645*, default_option=0*, option_flags=0*)
    → "WHAT YOU WANT TO DO? [@RANK./QUEST./WARP./ITEMS./QUEST TO BE HUNTER./LEFT ZONE ONCE./RESET ALL QUEST FLAGS./>INVESTIGATION./>YOU-KNOW-WHATS-ITS.]"
  2: 0x000D [0x25] WAIT_DIALOG_SELECT()
  3: 0x000E [0x02] IF !(Work_Zone[0] == 0*) GOTO 0x0020
  4: 0x0016 [0x29] REQ_SET_WAIT(priority=0x0E, entity_id=DIRECTOR (ID: 17764353/0x010F1001), tag_num=0x03)
  5: 0x001D [0x01] GOTO 0x00B0
  6: 0x0020 [0x02] IF !(Work_Zone[0] == 1*) GOTO 0x0032
  7: 0x0028 [0x29] REQ_SET_WAIT(priority=0x0E, entity_id=DIRECTOR (ID: 17764353/0x010F1001), tag_num=0x04)
  8: 0x002F [0x01] GOTO 0x00B0
  9: 0x0032 [0x02] IF !(Work_Zone[0] == 2*) GOTO 0x0044
 10: 0x003A [0x29] REQ_SET_WAIT(priority=0x0E, entity_id=DIRECTOR (ID: 17764353/0x010F1001), tag_num=0x02)
 11: 0x0041 [0x01] GOTO 0x00B0
 12: 0x0044 [0x02] IF !(Work_Zone[0] == 3*) GOTO 0x0056
 13: 0x004C [0x29] REQ_SET_WAIT(priority=0x0E, entity_id=DIRECTOR (ID: 17764353/0x010F1001), tag_num=0x0B)
 14: 0x0053 [0x01] GOTO 0x00B0
 15: 0x0056 [0x02] IF !(Work_Zone[0] == 4*) GOTO 0x0068
 16: 0x005E [0x29] REQ_SET_WAIT(priority=0x0E, entity_id=DIRECTOR (ID: 17764353/0x010F1001), tag_num=0x12)
 17: 0x0065 [0x01] GOTO 0x00B0
 18: 0x0068 [0x02] IF !(Work_Zone[0] == 5*) GOTO 0x0078
 19: 0x0070 [0x03] Work_Zone[1] = 99*
 20: 0x0075 [0x01] GOTO 0x00B0
 21: 0x0078 [0x02] IF !(Work_Zone[0] == 6*) GOTO 0x008C
 22: 0x0080 [0x1D] PRINT_EVENT_MESSAGE(message_id=6692*)
    → "Oh no! Your Adventurers' certificate vanished!"
 23: 0x0083 [0x23] WAIT_FOR_DIALOG_INTERACTION
 24: 0x0084 [0x03] Work_Zone[1] = 100*
 25: 0x0089 [0x01] GOTO 0x00B0
 26: 0x008C [0x02] IF !(Work_Zone[0] == 7*) GOTO 0x009E
 27: 0x0094 [0x29] REQ_SET_WAIT(priority=0x0E, entity_id=DIRECTOR (ID: 17764353/0x010F1001), tag_num=0x1E)
 28: 0x009B [0x01] GOTO 0x00B0
 29: 0x009E [0x02] IF !(Work_Zone[0] == 8*) GOTO 0x00B0
 30: 0x00A6 [0x29] REQ_SET_WAIT(priority=0x0E, entity_id=DIRECTOR (ID: 17764353/0x010F1001), tag_num=0x22)
 31: 0x00AD [0x01] GOTO 0x00B0

SUBROUTINE_00B0:
 32: 0x00B0 [0x20] SET_CLI_EVENT_UC_FLAG: Unlock player control
 33: 0x00B2 [0x21] END_EVENT
 34: 0x00B3 [0x00] END_REQSTACK()
```

### Event 65535.1

#### Metadata

| Field        | Value     |
|--------------|-----------|
| Entrypoint   | 0x00B4    |
| Data Size    | 246 bytes |
| Instructions | 44        |

```
      00 01 02 03 04 05 06 07  08 09 0A 0B 0C 0D 0E 0F
      -- -- -- -- -- -- -- --  -- -- -- -- -- -- -- --
00B0:             24 0D 80 01  80 01 80 25 02 00 10 01      $......%....
00C0: 80 00 CE 00 29 09 F0 FF  FF 7F 1A 01 A6 01 02 00  ....)...........
00D0: 10 02 80 00 E0 00 29 09  F0 FF FF 7F 1B 01 A6 01  ......).........
00E0: 02 00 10 03 80 00 F2 00  29 09 F0 FF FF 7F 1C 01  ........).......
00F0: A6 01 02 00 10 04 80 00  04 01 29 09 F0 FF FF 7F  ..........).....
0100: 1D 01 A6 01 02 00 10 05  80 00 16 01 29 09 F0 FF  ............)...
0110: FF 7F 1E 01 A6 01 02 00  10 06 80 00 28 01 29 09  ............(.).
0120: F0 FF FF 7F 1F 01 A6 01  02 00 10 08 80 00 3A 01  ..............:.
0130: 29 09 F0 FF FF 7F 20 01  A6 01 02 00 10 0B 80 00  )..... .........
0140: 4C 01 29 09 F0 FF FF 7F  21 01 A6 01 02 00 10 0C  L.).....!.......
0150: 80 00 5E 01 29 09 F0 FF  FF 7F 22 01 A6 01 02 00  ..^.).....".....
0160: 10 0E 80 00 70 01 29 09  F0 FF FF 7F 23 01 A6 01  ....p.).....#...
0170: 02 00 10 0F 80 00 82 01  29 09 F0 FF FF 7F 24 01  ........).....$.
0180: A6 01 02 00 10 10 80 00  94 01 29 09 F0 FF FF 7F  ..........).....
0190: 25 01 A6 01 02 00 10 11  80 00 A6 01 29 09 F0 FF  %...........)...
01A0: FF 7F 26 01 A6 01 20 00  21 00                    ..&... .!.      
```

#### Opcodes

```
  0: 0x00B4 [0x24] CREATE_DIALOG(message_id=8644*, default_option=0*, option_flags=0*)
    → "WARP TO...? [MANUSTERY1./MANUSTERY2./WEAVERS' GUILD./BONEWORKERS' GUILD./GOOD GOODS./AUCTION HOUSE./CHOCOBOSTABLES./CONSULATE OF SAN D'ORIA./EASTERN GATEHOUSE./APOTHECARY./MITHRA BOSS./CAT BURGLAR'S PAD./DHALMEL FARM.]"
  1: 0x00BB [0x25] WAIT_DIALOG_SELECT()
  2: 0x00BC [0x02] IF !(Work_Zone[0] == 0*) GOTO 0x00CE
  3: 0x00C4 [0x29] REQ_SET_WAIT(priority=0x09, entity_id=LocalPlayer, tag_num=0x1A)
  4: 0x00CB [0x01] GOTO 0x01A6
  5: 0x00CE [0x02] IF !(Work_Zone[0] == 1*) GOTO 0x00E0
  6: 0x00D6 [0x29] REQ_SET_WAIT(priority=0x09, entity_id=LocalPlayer, tag_num=0x1B)
  7: 0x00DD [0x01] GOTO 0x01A6
  8: 0x00E0 [0x02] IF !(Work_Zone[0] == 2*) GOTO 0x00F2
  9: 0x00E8 [0x29] REQ_SET_WAIT(priority=0x09, entity_id=LocalPlayer, tag_num=0x1C)
 10: 0x00EF [0x01] GOTO 0x01A6
 11: 0x00F2 [0x02] IF !(Work_Zone[0] == 3*) GOTO 0x0104
 12: 0x00FA [0x29] REQ_SET_WAIT(priority=0x09, entity_id=LocalPlayer, tag_num=0x1D)
 13: 0x0101 [0x01] GOTO 0x01A6
 14: 0x0104 [0x02] IF !(Work_Zone[0] == 4*) GOTO 0x0116
 15: 0x010C [0x29] REQ_SET_WAIT(priority=0x09, entity_id=LocalPlayer, tag_num=0x1E)
 16: 0x0113 [0x01] GOTO 0x01A6
 17: 0x0116 [0x02] IF !(Work_Zone[0] == 5*) GOTO 0x0128
 18: 0x011E [0x29] REQ_SET_WAIT(priority=0x09, entity_id=LocalPlayer, tag_num=0x1F)
 19: 0x0125 [0x01] GOTO 0x01A6
 20: 0x0128 [0x02] IF !(Work_Zone[0] == 6*) GOTO 0x013A
 21: 0x0130 [0x29] REQ_SET_WAIT(priority=0x09, entity_id=LocalPlayer, tag_num=0x20)
 22: 0x0137 [0x01] GOTO 0x01A6
 23: 0x013A [0x02] IF !(Work_Zone[0] == 7*) GOTO 0x014C
 24: 0x0142 [0x29] REQ_SET_WAIT(priority=0x09, entity_id=LocalPlayer, tag_num=0x21)
 25: 0x0149 [0x01] GOTO 0x01A6
 26: 0x014C [0x02] IF !(Work_Zone[0] == 8*) GOTO 0x015E
 27: 0x0154 [0x29] REQ_SET_WAIT(priority=0x09, entity_id=LocalPlayer, tag_num=0x22)
 28: 0x015B [0x01] GOTO 0x01A6
 29: 0x015E [0x02] IF !(Work_Zone[0] == 9*) GOTO 0x0170
 30: 0x0166 [0x29] REQ_SET_WAIT(priority=0x09, entity_id=LocalPlayer, tag_num=0x23)
 31: 0x016D [0x01] GOTO 0x01A6
 32: 0x0170 [0x02] IF !(Work_Zone[0] == 10*) GOTO 0x0182
 33: 0x0178 [0x29] REQ_SET_WAIT(priority=0x09, entity_id=LocalPlayer, tag_num=0x24)
 34: 0x017F [0x01] GOTO 0x01A6
 35: 0x0182 [0x02] IF !(Work_Zone[0] == 11*) GOTO 0x0194
 36: 0x018A [0x29] REQ_SET_WAIT(priority=0x09, entity_id=LocalPlayer, tag_num=0x25)
 37: 0x0191 [0x01] GOTO 0x01A6
 38: 0x0194 [0x02] IF !(Work_Zone[0] == 12*) GOTO 0x01A6
 39: 0x019C [0x29] REQ_SET_WAIT(priority=0x09, entity_id=LocalPlayer, tag_num=0x26)
 40: 0x01A3 [0x01] GOTO 0x01A6

SUBROUTINE_01A6:
 41: 0x01A6 [0x20] SET_CLI_EVENT_UC_FLAG: Unlock player control
 42: 0x01A8 [0x21] END_EVENT
 43: 0x01A9 [0x00] END_REQSTACK()
```

### Event 65535.2

#### Metadata

| Field        | Value     |
|--------------|-----------|
| Entrypoint   | 0x01AA    |
| Data Size    | 170 bytes |
| Instructions | 34        |

```
      00 01 02 03 04 05 06 07  08 09 0A 0B 0C 0D 0E 0F
      -- -- -- -- -- -- -- --  -- -- -- -- -- -- -- --
01A0:                                24 12 80 01 80 01            $.....
01B0: 80 25 02 00 10 01 80 00  C2 01 03 01 10 02 80 01  .%..............
01C0: 52 02 02 00 10 02 80 00  D2 01 03 01 10 03 80 01  R...............
01D0: 52 02 02 00 10 03 80 00  E2 01 03 01 10 04 80 01  R...............
01E0: 52 02 02 00 10 04 80 00  F2 01 03 01 10 05 80 01  R...............
01F0: 52 02 02 00 10 05 80 00  02 02 03 01 10 06 80 01  R...............
0200: 52 02 02 00 10 06 80 00  12 02 03 01 10 08 80 01  R...............
0210: 52 02 02 00 10 08 80 00  22 02 03 01 10 0B 80 01  R.......".......
0220: 52 02 02 00 10 0B 80 00  32 02 03 01 10 0C 80 01  R.......2.......
0230: 52 02 02 00 10 0C 80 00  42 02 03 01 10 0E 80 01  R.......B.......
0240: 52 02 02 00 10 0E 80 00  52 02 03 01 10 0F 80 01  R.......R.......
0250: 52 02 21 00                                       R.!.            
```

#### Opcodes

```
  0: 0x01AA [0x24] CREATE_DIALOG(message_id=6712*, default_option=0*, option_flags=0*)
    → "ex [u6-1:v$P12<$P11O/u6-2:v$P12<$P11O/u7-1:v$P12<$P11O/u7-2:v$P12<$P11O/u8-1:v$P12<$P11O/u8-2:v$P12<$P11O/u9-1:v$P12<$P11O/u9-2:v$P12<$P11O/u9-2:$6816365]"
  1: 0x01B1 [0x25] WAIT_DIALOG_SELECT()
  2: 0x01B2 [0x02] IF !(Work_Zone[0] == 0*) GOTO 0x01C2
  3: 0x01BA [0x03] Work_Zone[1] = 1*
  4: 0x01BF [0x01] GOTO 0x0252
  5: 0x01C2 [0x02] IF !(Work_Zone[0] == 1*) GOTO 0x01D2
  6: 0x01CA [0x03] Work_Zone[1] = 2*
  7: 0x01CF [0x01] GOTO 0x0252
  8: 0x01D2 [0x02] IF !(Work_Zone[0] == 2*) GOTO 0x01E2
  9: 0x01DA [0x03] Work_Zone[1] = 3*
 10: 0x01DF [0x01] GOTO 0x0252
 11: 0x01E2 [0x02] IF !(Work_Zone[0] == 3*) GOTO 0x01F2
 12: 0x01EA [0x03] Work_Zone[1] = 4*
 13: 0x01EF [0x01] GOTO 0x0252
 14: 0x01F2 [0x02] IF !(Work_Zone[0] == 4*) GOTO 0x0202
 15: 0x01FA [0x03] Work_Zone[1] = 5*
 16: 0x01FF [0x01] GOTO 0x0252
 17: 0x0202 [0x02] IF !(Work_Zone[0] == 5*) GOTO 0x0212
 18: 0x020A [0x03] Work_Zone[1] = 6*
 19: 0x020F [0x01] GOTO 0x0252
 20: 0x0212 [0x02] IF !(Work_Zone[0] == 6*) GOTO 0x0222
 21: 0x021A [0x03] Work_Zone[1] = 7*
 22: 0x021F [0x01] GOTO 0x0252
 23: 0x0222 [0x02] IF !(Work_Zone[0] == 7*) GOTO 0x0232
 24: 0x022A [0x03] Work_Zone[1] = 8*
 25: 0x022F [0x01] GOTO 0x0252
 26: 0x0232 [0x02] IF !(Work_Zone[0] == 8*) GOTO 0x0242
 27: 0x023A [0x03] Work_Zone[1] = 9*
 28: 0x023F [0x01] GOTO 0x0252
 29: 0x0242 [0x02] IF !(Work_Zone[0] == 9*) GOTO 0x0252
 30: 0x024A [0x03] Work_Zone[1] = 10*
 31: 0x024F [0x01] GOTO 0x0252

SUBROUTINE_0252:
 32: 0x0252 [0x21] END_EVENT
 33: 0x0253 [0x00] END_REQSTACK()
```

### Event 65535.3

#### Metadata

| Field        | Value     |
|--------------|-----------|
| Entrypoint   | 0x0254    |
| Data Size    | 168 bytes |
| Instructions | 32        |

```
      00 01 02 03 04 05 06 07  08 09 0A 0B 0C 0D 0E 0F
      -- -- -- -- -- -- -- --  -- -- -- -- -- -- -- --
0250:             24 12 80 01  80 01 80 25 02 00 10 01      $......%....
0260: 80 00 6E 02 29 0B 01 10  0F 01 05 01 F8 02 02 00  ..n.)...........
0270: 10 02 80 00 80 02 29 0B  01 10 0F 01 06 01 F8 02  ......).........
0280: 02 00 10 03 80 00 92 02  29 0B 01 10 0F 01 07 01  ........).......
0290: F8 02 02 00 10 04 80 00  9D 02 01 F8 02 02 00 10  ................
02A0: 05 80 00 AF 02 29 0B 01  10 0F 01 08 01 F8 02 02  .....)..........
02B0: 00 10 06 80 00 BA 02 01  F8 02 02 00 10 08 80 00  ................
02C0: C5 02 01 F8 02 02 00 10  0B 80 00 D0 02 01 F8 02  ................
02D0: 02 00 10 0C 80 00 DB 02  01 F8 02 02 00 10 0E 80  ................
02E0: 00 E6 02 01 F8 02 02 00  10 0F 80 00 F8 02 29 0B  ..............).
02F0: 01 10 0F 01 09 01 F8 02  20 00 21 00              ........ .!.    
```

#### Opcodes

```
  0: 0x0254 [0x24] CREATE_DIALOG(message_id=6712*, default_option=0*, option_flags=0*)
    → "ex [u6-1:v$P12<$P11O/u6-2:v$P12<$P11O/u7-1:v$P12<$P11O/u7-2:v$P12<$P11O/u8-1:v$P12<$P11O/u8-2:v$P12<$P11O/u9-1:v$P12<$P11O/u9-2:v$P12<$P11O/u9-2:$6816365]"
  1: 0x025B [0x25] WAIT_DIALOG_SELECT()
  2: 0x025C [0x02] IF !(Work_Zone[0] == 0*) GOTO 0x026E
  3: 0x0264 [0x29] REQ_SET_WAIT(priority=0x0B, entity_id=DIRECTOR (ID: 17764353/0x010F1001), tag_num=0x05)
  4: 0x026B [0x01] GOTO 0x02F8
  5: 0x026E [0x02] IF !(Work_Zone[0] == 1*) GOTO 0x0280
  6: 0x0276 [0x29] REQ_SET_WAIT(priority=0x0B, entity_id=DIRECTOR (ID: 17764353/0x010F1001), tag_num=0x06)
  7: 0x027D [0x01] GOTO 0x02F8
  8: 0x0280 [0x02] IF !(Work_Zone[0] == 2*) GOTO 0x0292
  9: 0x0288 [0x29] REQ_SET_WAIT(priority=0x0B, entity_id=DIRECTOR (ID: 17764353/0x010F1001), tag_num=0x07)
 10: 0x028F [0x01] GOTO 0x02F8
 11: 0x0292 [0x02] IF !(Work_Zone[0] == 3*) GOTO 0x029D
 12: 0x029A [0x01] GOTO 0x02F8
 13: 0x029D [0x02] IF !(Work_Zone[0] == 4*) GOTO 0x02AF
 14: 0x02A5 [0x29] REQ_SET_WAIT(priority=0x0B, entity_id=DIRECTOR (ID: 17764353/0x010F1001), tag_num=0x08)
 15: 0x02AC [0x01] GOTO 0x02F8
 16: 0x02AF [0x02] IF !(Work_Zone[0] == 5*) GOTO 0x02BA
 17: 0x02B7 [0x01] GOTO 0x02F8
 18: 0x02BA [0x02] IF !(Work_Zone[0] == 6*) GOTO 0x02C5
 19: 0x02C2 [0x01] GOTO 0x02F8
 20: 0x02C5 [0x02] IF !(Work_Zone[0] == 7*) GOTO 0x02D0
 21: 0x02CD [0x01] GOTO 0x02F8
 22: 0x02D0 [0x02] IF !(Work_Zone[0] == 8*) GOTO 0x02DB
 23: 0x02D8 [0x01] GOTO 0x02F8
 24: 0x02DB [0x02] IF !(Work_Zone[0] == 9*) GOTO 0x02E6
 25: 0x02E3 [0x01] GOTO 0x02F8
 26: 0x02E6 [0x02] IF !(Work_Zone[0] == 10*) GOTO 0x02F8
 27: 0x02EE [0x29] REQ_SET_WAIT(priority=0x0B, entity_id=DIRECTOR (ID: 17764353/0x010F1001), tag_num=0x09)
 28: 0x02F5 [0x01] GOTO 0x02F8

SUBROUTINE_02F8:
 29: 0x02F8 [0x20] SET_CLI_EVENT_UC_FLAG: Unlock player control
 30: 0x02FA [0x21] END_EVENT
 31: 0x02FB [0x00] END_REQSTACK()
```

### Event 65535.4

#### Metadata

| Field        | Value     |
|--------------|-----------|
| Entrypoint   | 0x02FC    |
| Data Size    | 138 bytes |
| Instructions | 28        |

```
      00 01 02 03 04 05 06 07  08 09 0A 0B 0C 0D 0E 0F
      -- -- -- -- -- -- -- --  -- -- -- -- -- -- -- --
02F0:                                      24 13 80 01              $...
0300: 80 01 80 25 02 00 10 01  80 00 16 03 29 0A 01 10  ...%........)...
0310: 0F 01 0D 01 82 03 02 00  10 02 80 00 28 03 29 0A  ............(.).
0320: 01 10 0F 01 13 01 82 03  02 00 10 03 80 00 3A 03  ..............:.
0330: 29 0A 01 10 0F 01 0E 01  82 03 02 00 10 04 80 00  )...............
0340: 4C 03 29 0A 01 10 0F 01  10 01 82 03 02 00 10 05  L.).............
0350: 80 00 5E 03 29 0A 01 10  0F 01 14 01 82 03 02 00  ..^.)...........
0360: 10 06 80 00 6E 03 03 01  10 07 80 01 82 03 02 00  ....n...........
0370: 10 08 80 00 82 03 1D 09  80 23 03 01 10 0A 80 01  .........#......
0380: 82 03 20 00 21 00                                 .. .!.          
```

#### Opcodes

```
  0: 0x02FC [0x24] CREATE_DIALOG(message_id=8647*, default_option=0*, option_flags=0*)
    → "RANK 1... [ute001:NEW$3J$3J$3V-qL$P12a$P106v/uzs001:$P13A$3_$3lEWindurst@L$P13r$6$20$P15*v/udb001:$7%G-5="Hv/uck001:$P14i$P13`L$P16rv/ukI001:$3N$3$3E$3$1[p$ki$Rv/LEFT ZONE ONCE./RESET ALL QUEST FLAGS.]"
  1: 0x0303 [0x25] WAIT_DIALOG_SELECT()
  2: 0x0304 [0x02] IF !(Work_Zone[0] == 0*) GOTO 0x0316
  3: 0x030C [0x29] REQ_SET_WAIT(priority=0x0A, entity_id=DIRECTOR (ID: 17764353/0x010F1001), tag_num=0x0D)
  4: 0x0313 [0x01] GOTO 0x0382
  5: 0x0316 [0x02] IF !(Work_Zone[0] == 1*) GOTO 0x0328
  6: 0x031E [0x29] REQ_SET_WAIT(priority=0x0A, entity_id=DIRECTOR (ID: 17764353/0x010F1001), tag_num=0x13)
  7: 0x0325 [0x01] GOTO 0x0382
  8: 0x0328 [0x02] IF !(Work_Zone[0] == 2*) GOTO 0x033A
  9: 0x0330 [0x29] REQ_SET_WAIT(priority=0x0A, entity_id=DIRECTOR (ID: 17764353/0x010F1001), tag_num=0x0E)
 10: 0x0337 [0x01] GOTO 0x0382
 11: 0x033A [0x02] IF !(Work_Zone[0] == 3*) GOTO 0x034C
 12: 0x0342 [0x29] REQ_SET_WAIT(priority=0x0A, entity_id=DIRECTOR (ID: 17764353/0x010F1001), tag_num=0x10)
 13: 0x0349 [0x01] GOTO 0x0382
 14: 0x034C [0x02] IF !(Work_Zone[0] == 4*) GOTO 0x035E
 15: 0x0354 [0x29] REQ_SET_WAIT(priority=0x0A, entity_id=DIRECTOR (ID: 17764353/0x010F1001), tag_num=0x14)
 16: 0x035B [0x01] GOTO 0x0382
 17: 0x035E [0x02] IF !(Work_Zone[0] == 5*) GOTO 0x036E
 18: 0x0366 [0x03] Work_Zone[1] = 99*
 19: 0x036B [0x01] GOTO 0x0382
 20: 0x036E [0x02] IF !(Work_Zone[0] == 6*) GOTO 0x0382
 21: 0x0376 [0x1D] PRINT_EVENT_MESSAGE(message_id=6692*)
    → "Oh no! Your Adventurers' certificate vanished!"
 22: 0x0379 [0x23] WAIT_FOR_DIALOG_INTERACTION
 23: 0x037A [0x03] Work_Zone[1] = 100*
 24: 0x037F [0x01] GOTO 0x0382

SUBROUTINE_0382:
 25: 0x0382 [0x20] SET_CLI_EVENT_UC_FLAG: Unlock player control
 26: 0x0384 [0x21] END_EVENT
 27: 0x0385 [0x00] END_REQSTACK()
```

### Event 65535.5

#### Metadata

| Field        | Value     |
|--------------|-----------|
| Entrypoint   | 0x0386    |
| Data Size    | 102 bytes |
| Instructions | 22        |

```
      00 01 02 03 04 05 06 07  08 09 0A 0B 0C 0D 0E 0F
      -- -- -- -- -- -- -- --  -- -- -- -- -- -- -- --
0380:                   24 14  80 01 80 01 80 25 02 00        $......%..
0390: 10 01 80 00 A0 03 29 0A  01 10 0F 01 0F 01 E8 03  ......).........
03A0: 02 00 10 02 80 00 B2 03  29 0A 01 10 0F 01 12 01  ........).......
03B0: E8 03 02 00 10 03 80 00  C4 03 29 0A 01 10 0F 01  ..........).....
03C0: 15 01 E8 03 02 00 10 04  80 00 D4 03 03 01 10 07  ................
03D0: 80 01 E8 03 02 00 10 05  80 00 E8 03 1D 09 80 23  ...............#
03E0: 03 01 10 0A 80 01 E8 03  20 00 21 00              ........ .!.    
```

#### Opcodes

```
  0: 0x0386 [0x24] CREATE_DIALOG(message_id=8648*, default_option=0*, option_flags=0*)
    → "RANK 2... [udb002:$h2=&M$P15s$P10Nv/ukJB001:$3L$3o`B$Rv/ute002:B$P10+L$30$P11cv/LEFT ZONE ONCE./RESET ALL QUEST FLAGS.]"
  1: 0x038D [0x25] WAIT_DIALOG_SELECT()
  2: 0x038E [0x02] IF !(Work_Zone[0] == 0*) GOTO 0x03A0
  3: 0x0396 [0x29] REQ_SET_WAIT(priority=0x0A, entity_id=DIRECTOR (ID: 17764353/0x010F1001), tag_num=0x0F)
  4: 0x039D [0x01] GOTO 0x03E8
  5: 0x03A0 [0x02] IF !(Work_Zone[0] == 1*) GOTO 0x03B2
  6: 0x03A8 [0x29] REQ_SET_WAIT(priority=0x0A, entity_id=DIRECTOR (ID: 17764353/0x010F1001), tag_num=0x12)
  7: 0x03AF [0x01] GOTO 0x03E8
  8: 0x03B2 [0x02] IF !(Work_Zone[0] == 2*) GOTO 0x03C4
  9: 0x03BA [0x29] REQ_SET_WAIT(priority=0x0A, entity_id=DIRECTOR (ID: 17764353/0x010F1001), tag_num=0x15)
 10: 0x03C1 [0x01] GOTO 0x03E8
 11: 0x03C4 [0x02] IF !(Work_Zone[0] == 3*) GOTO 0x03D4
 12: 0x03CC [0x03] Work_Zone[1] = 99*
 13: 0x03D1 [0x01] GOTO 0x03E8
 14: 0x03D4 [0x02] IF !(Work_Zone[0] == 4*) GOTO 0x03E8
 15: 0x03DC [0x1D] PRINT_EVENT_MESSAGE(message_id=6692*)
    → "Oh no! Your Adventurers' certificate vanished!"
 16: 0x03DF [0x23] WAIT_FOR_DIALOG_INTERACTION
 17: 0x03E0 [0x03] Work_Zone[1] = 100*
 18: 0x03E5 [0x01] GOTO 0x03E8

SUBROUTINE_03E8:
 19: 0x03E8 [0x20] SET_CLI_EVENT_UC_FLAG: Unlock player control
 20: 0x03EA [0x21] END_EVENT
 21: 0x03EB [0x00] END_REQSTACK()
```

### Event 65535.6

#### Metadata

| Field        | Value    |
|--------------|----------|
| Entrypoint   | 0x03EC   |
| Data Size    | 84 bytes |
| Instructions | 19       |

```
      00 01 02 03 04 05 06 07  08 09 0A 0B 0C 0D 0E 0F
      -- -- -- -- -- -- -- --  -- -- -- -- -- -- -- --
03E0:                                      24 15 80 01              $...
03F0: 80 01 80 25 02 00 10 01  80 00 06 04 29 0A 01 10  ...%........)...
0400: 0F 01 16 01 3C 04 02 00  10 02 80 00 18 04 29 0A  ....<.........).
0410: 01 10 0F 01 17 01 3C 04  02 00 10 03 80 00 28 04  ......<.......(.
0420: 03 01 10 07 80 01 3C 04  02 00 10 04 80 00 3C 04  ......<.......<.
0430: 1D 09 80 23 03 01 10 0A  80 01 3C 04 20 00 21 00  ...#......<. .!.
```

#### Opcodes

```
  0: 0x03EC [0x24] CREATE_DIALOG(message_id=8649*, default_option=0*, option_flags=0*)
    → "RANK 3... [ute003:$P13`$P10`L$P11e$l$P10mv/uck003:$P13A$P10;$3V$3`$3$5[v/LEFT ZONE ONCE./RESET ALL QUEST FLAGS.]"
  1: 0x03F3 [0x25] WAIT_DIALOG_SELECT()
  2: 0x03F4 [0x02] IF !(Work_Zone[0] == 0*) GOTO 0x0406
  3: 0x03FC [0x29] REQ_SET_WAIT(priority=0x0A, entity_id=DIRECTOR (ID: 17764353/0x010F1001), tag_num=0x16)
  4: 0x0403 [0x01] GOTO 0x043C
  5: 0x0406 [0x02] IF !(Work_Zone[0] == 1*) GOTO 0x0418
  6: 0x040E [0x29] REQ_SET_WAIT(priority=0x0A, entity_id=DIRECTOR (ID: 17764353/0x010F1001), tag_num=0x17)
  7: 0x0415 [0x01] GOTO 0x043C
  8: 0x0418 [0x02] IF !(Work_Zone[0] == 2*) GOTO 0x0428
  9: 0x0420 [0x03] Work_Zone[1] = 99*
 10: 0x0425 [0x01] GOTO 0x043C
 11: 0x0428 [0x02] IF !(Work_Zone[0] == 3*) GOTO 0x043C
 12: 0x0430 [0x1D] PRINT_EVENT_MESSAGE(message_id=6692*)
    → "Oh no! Your Adventurers' certificate vanished!"
 13: 0x0433 [0x23] WAIT_FOR_DIALOG_INTERACTION
 14: 0x0434 [0x03] Work_Zone[1] = 100*
 15: 0x0439 [0x01] GOTO 0x043C

SUBROUTINE_043C:
 16: 0x043C [0x20] SET_CLI_EVENT_UC_FLAG: Unlock player control
 17: 0x043E [0x21] END_EVENT
 18: 0x043F [0x00] END_REQSTACK()
```

### Event 65535.7

#### Metadata

| Field        | Value    |
|--------------|----------|
| Entrypoint   | 0x0440   |
| Data Size    | 66 bytes |
| Instructions | 16       |

```
      00 01 02 03 04 05 06 07  08 09 0A 0B 0C 0D 0E 0F
      -- -- -- -- -- -- -- --  -- -- -- -- -- -- -- --
0440: 24 16 80 01 80 01 80 25  02 00 10 01 80 00 5A 04  $......%......Z.
0450: 29 0A 01 10 0F 01 19 01  7E 04 02 00 10 02 80 00  ).......~.......
0460: 6A 04 03 01 10 07 80 01  7E 04 02 00 10 03 80 00  j.......~.......
0470: 7E 04 1D 09 80 23 03 01  10 0A 80 01 7E 04 20 00  ~....#......~. .
0480: 21 00                                             !.              
```

#### Opcodes

```
  0: 0x0440 [0x24] CREATE_DIALOG(message_id=8650*, default_option=0*, option_flags=0*)
    → "RANK 5... [ute005:$P10/L%\v/LEFT ZONE ONCE./RESET ALL QUEST FLAGS.]"
  1: 0x0447 [0x25] WAIT_DIALOG_SELECT()
  2: 0x0448 [0x02] IF !(Work_Zone[0] == 0*) GOTO 0x045A
  3: 0x0450 [0x29] REQ_SET_WAIT(priority=0x0A, entity_id=DIRECTOR (ID: 17764353/0x010F1001), tag_num=0x19)
  4: 0x0457 [0x01] GOTO 0x047E
  5: 0x045A [0x02] IF !(Work_Zone[0] == 1*) GOTO 0x046A
  6: 0x0462 [0x03] Work_Zone[1] = 99*
  7: 0x0467 [0x01] GOTO 0x047E
  8: 0x046A [0x02] IF !(Work_Zone[0] == 2*) GOTO 0x047E
  9: 0x0472 [0x1D] PRINT_EVENT_MESSAGE(message_id=6692*)
    → "Oh no! Your Adventurers' certificate vanished!"
 10: 0x0475 [0x23] WAIT_FOR_DIALOG_INTERACTION
 11: 0x0476 [0x03] Work_Zone[1] = 100*
 12: 0x047B [0x01] GOTO 0x047E

SUBROUTINE_047E:
 13: 0x047E [0x20] SET_CLI_EVENT_UC_FLAG: Unlock player control
 14: 0x0480 [0x21] END_EVENT
 15: 0x0481 [0x00] END_REQSTACK()
```

### Event 65535.8

#### Metadata

| Field        | Value     |
|--------------|-----------|
| Entrypoint   | 0x0482    |
| Data Size    | 120 bytes |
| Instructions | 23        |

```
      00 01 02 03 04 05 06 07  08 09 0A 0B 0C 0D 0E 0F
      -- -- -- -- -- -- -- --  -- -- -- -- -- -- -- --
0480:       24 17 80 01 80 01  80 25 02 00 10 01 80 00    $......%......
0490: 9C 04 29 0A 01 10 0F 01  11 01 F6 04 02 00 10 02  ..).............
04A0: 80 00 AE 04 29 0A 01 10  0F 01 18 01 F6 04 02 00  ....)...........
04B0: 10 03 80 00 C0 04 29 0A  01 10 0F 01 1A 01 F6 04  ......).........
04C0: 02 00 10 04 80 00 D2 04  29 0A 01 10 0F 01 1B 01  ........).......
04D0: F6 04 02 00 10 05 80 00  E4 04 29 0A 01 10 0F 01  ..........).....
04E0: 1C 01 F6 04 02 00 10 06  80 00 F6 04 29 0A 01 10  ............)...
04F0: 0F 01 1D 01 F6 04 20 00  21 00                    ...... .!.      
```

#### Opcodes

```
  0: 0x0482 [0x24] CREATE_DIALOG(message_id=8651*, default_option=0*, option_flags=0*)
    → "OTHER RANKS: [uha005:$tmj=$3$3{$3$1@L$E$9$20$P15*v/ujne003:JeunoL$3J$3J$3V@$P13r$6v/uzs002:$16\j=$P13A$3_$3l@L$P13r$6v/$6881824<Player>$L$=@L$P13r$6v/usf001:$3V[$3t$3A[$3e$3B$3t$3@$3N$3gv/ukjb001:$k$P10l$3A[$3e$3B$3t$3@$3N$3gv]"
  1: 0x0489 [0x25] WAIT_DIALOG_SELECT()
  2: 0x048A [0x02] IF !(Work_Zone[0] == 0*) GOTO 0x049C
  3: 0x0492 [0x29] REQ_SET_WAIT(priority=0x0A, entity_id=DIRECTOR (ID: 17764353/0x010F1001), tag_num=0x11)
  4: 0x0499 [0x01] GOTO 0x04F6
  5: 0x049C [0x02] IF !(Work_Zone[0] == 1*) GOTO 0x04AE
  6: 0x04A4 [0x29] REQ_SET_WAIT(priority=0x0A, entity_id=DIRECTOR (ID: 17764353/0x010F1001), tag_num=0x18)
  7: 0x04AB [0x01] GOTO 0x04F6
  8: 0x04AE [0x02] IF !(Work_Zone[0] == 2*) GOTO 0x04C0
  9: 0x04B6 [0x29] REQ_SET_WAIT(priority=0x0A, entity_id=DIRECTOR (ID: 17764353/0x010F1001), tag_num=0x1A)
 10: 0x04BD [0x01] GOTO 0x04F6
 11: 0x04C0 [0x02] IF !(Work_Zone[0] == 3*) GOTO 0x04D2
 12: 0x04C8 [0x29] REQ_SET_WAIT(priority=0x0A, entity_id=DIRECTOR (ID: 17764353/0x010F1001), tag_num=0x1B)
 13: 0x04CF [0x01] GOTO 0x04F6
 14: 0x04D2 [0x02] IF !(Work_Zone[0] == 4*) GOTO 0x04E4
 15: 0x04DA [0x29] REQ_SET_WAIT(priority=0x0A, entity_id=DIRECTOR (ID: 17764353/0x010F1001), tag_num=0x1C)
 16: 0x04E1 [0x01] GOTO 0x04F6
 17: 0x04E4 [0x02] IF !(Work_Zone[0] == 5*) GOTO 0x04F6
 18: 0x04EC [0x29] REQ_SET_WAIT(priority=0x0A, entity_id=DIRECTOR (ID: 17764353/0x010F1001), tag_num=0x1D)
 19: 0x04F3 [0x01] GOTO 0x04F6

SUBROUTINE_04F6:
 20: 0x04F6 [0x20] SET_CLI_EVENT_UC_FLAG: Unlock player control
 21: 0x04F8 [0x21] END_EVENT
 22: 0x04F9 [0x00] END_REQSTACK()
```

### Event 65535.9

#### Metadata

| Field        | Value     |
|--------------|-----------|
| Entrypoint   | 0x04FA    |
| Data Size    | 174 bytes |
| Instructions | 34        |

```
      00 01 02 03 04 05 06 07  08 09 0A 0B 0C 0D 0E 0F
      -- -- -- -- -- -- -- --  -- -- -- -- -- -- -- --
04F0:                                24 18 80 01 80 01            $.....
0500: 80 25 02 00 10 01 80 00  14 05 29 0A 01 10 0F 01  .%........).....
0510: 0D 01 A4 05 02 00 10 02  80 00 26 05 29 0A 01 10  ..........&.)...
0520: 0F 01 0E 01 A4 05 02 00  10 03 80 00 38 05 29 0A  ............8.).
0530: 01 10 0F 01 0F 01 A4 05  02 00 10 04 80 00 4A 05  ..............J.
0540: 29 0A 01 10 0F 01 10 01  A4 05 02 00 10 05 80 00  )...............
0550: 5C 05 29 0A 01 10 0F 01  11 01 A4 05 02 00 10 06  \.).............
0560: 80 00 6E 05 29 0A 01 10  0F 01 12 01 A4 05 02 00  ..n.)...........
0570: 10 08 80 00 80 05 29 0A  01 10 0F 01 14 01 A4 05  ......).........
0580: 02 00 10 0B 80 00 90 05  03 01 10 07 80 01 A4 05  ................
0590: 02 00 10 0C 80 00 A4 05  1D 09 80 23 03 01 10 0A  ...........#....
05A0: 80 01 A4 05 20 00 21 00                           .... .!.        
```

#### Opcodes

```
  0: 0x04FA [0x24] CREATE_DIALOG(message_id=8646*, default_option=0*, option_flags=0*)
    → "WHICH QUEST? [ute001:NEW$3J$3J$3V-qL$P12a$P106v/udb001:$7%G-5="Hv/udb002:$h2=&M$P15s$P10Nv/uck001:$P14i$P13`L$P16rv/uha005:$tmj=$3$3{$3$1@L$E$9$20$P15*v/ukJB001:$3L$3o`B$Rv/ukI001:$3N$3$3E$3$1[p$ki$Rv/ute002:B$P10+L$30$P11cv/ute003:$P13`$P10`L$P11e$l$P10mv/uck003:$P13A$P10;$3V$3`$3$5[v/ute005:$P10/L%\v]"
  1: 0x0501 [0x25] WAIT_DIALOG_SELECT()
  2: 0x0502 [0x02] IF !(Work_Zone[0] == 0*) GOTO 0x0514
  3: 0x050A [0x29] REQ_SET_WAIT(priority=0x0A, entity_id=DIRECTOR (ID: 17764353/0x010F1001), tag_num=0x0D)
  4: 0x0511 [0x01] GOTO 0x05A4
  5: 0x0514 [0x02] IF !(Work_Zone[0] == 1*) GOTO 0x0526
  6: 0x051C [0x29] REQ_SET_WAIT(priority=0x0A, entity_id=DIRECTOR (ID: 17764353/0x010F1001), tag_num=0x0E)
  7: 0x0523 [0x01] GOTO 0x05A4
  8: 0x0526 [0x02] IF !(Work_Zone[0] == 2*) GOTO 0x0538
  9: 0x052E [0x29] REQ_SET_WAIT(priority=0x0A, entity_id=DIRECTOR (ID: 17764353/0x010F1001), tag_num=0x0F)
 10: 0x0535 [0x01] GOTO 0x05A4
 11: 0x0538 [0x02] IF !(Work_Zone[0] == 3*) GOTO 0x054A
 12: 0x0540 [0x29] REQ_SET_WAIT(priority=0x0A, entity_id=DIRECTOR (ID: 17764353/0x010F1001), tag_num=0x10)
 13: 0x0547 [0x01] GOTO 0x05A4
 14: 0x054A [0x02] IF !(Work_Zone[0] == 4*) GOTO 0x055C
 15: 0x0552 [0x29] REQ_SET_WAIT(priority=0x0A, entity_id=DIRECTOR (ID: 17764353/0x010F1001), tag_num=0x11)
 16: 0x0559 [0x01] GOTO 0x05A4
 17: 0x055C [0x02] IF !(Work_Zone[0] == 5*) GOTO 0x056E
 18: 0x0564 [0x29] REQ_SET_WAIT(priority=0x0A, entity_id=DIRECTOR (ID: 17764353/0x010F1001), tag_num=0x12)
 19: 0x056B [0x01] GOTO 0x05A4
 20: 0x056E [0x02] IF !(Work_Zone[0] == 6*) GOTO 0x0580
 21: 0x0576 [0x29] REQ_SET_WAIT(priority=0x0A, entity_id=DIRECTOR (ID: 17764353/0x010F1001), tag_num=0x14)
 22: 0x057D [0x01] GOTO 0x05A4
 23: 0x0580 [0x02] IF !(Work_Zone[0] == 7*) GOTO 0x0590
 24: 0x0588 [0x03] Work_Zone[1] = 99*
 25: 0x058D [0x01] GOTO 0x05A4
 26: 0x0590 [0x02] IF !(Work_Zone[0] == 8*) GOTO 0x05A4
 27: 0x0598 [0x1D] PRINT_EVENT_MESSAGE(message_id=6692*)
    → "Oh no! Your Adventurers' certificate vanished!"
 28: 0x059B [0x23] WAIT_FOR_DIALOG_INTERACTION
 29: 0x059C [0x03] Work_Zone[1] = 100*
 30: 0x05A1 [0x01] GOTO 0x05A4

SUBROUTINE_05A4:
 31: 0x05A4 [0x20] SET_CLI_EVENT_UC_FLAG: Unlock player control
 32: 0x05A6 [0x21] END_EVENT
 33: 0x05A7 [0x00] END_REQSTACK()
```

### Event 65535.10

#### Metadata

| Field        | Value     |
|--------------|-----------|
| Entrypoint   | 0x05A8    |
| Data Size    | 214 bytes |
| Instructions | 44        |

```
      00 01 02 03 04 05 06 07  08 09 0A 0B 0C 0D 0E 0F
      -- -- -- -- -- -- -- --  -- -- -- -- -- -- -- --
05A0:                          24 18 80 01 80 01 80 25          $......%
05B0: 02 00 10 01 80 00 C0 05  03 01 10 19 80 01 7A 06  ..............z.
05C0: 02 00 10 02 80 00 D0 05  03 01 10 1A 80 01 7A 06  ..............z.
05D0: 02 00 10 03 80 00 E0 05  03 01 10 1B 80 01 7A 06  ..............z.
05E0: 02 00 10 04 80 00 F0 05  03 01 10 1C 80 01 7A 06  ..............z.
05F0: 02 00 10 05 80 00 00 06  03 01 10 1D 80 01 7A 06  ..............z.
0600: 02 00 10 06 80 00 10 06  03 01 10 1E 80 01 7A 06  ..............z.
0610: 02 00 10 08 80 00 20 06  03 01 10 1F 80 01 7A 06  ...... .......z.
0620: 02 00 10 0B 80 00 2B 06  01 7A 06 02 00 10 0C 80  ......+..z......
0630: 00 3B 06 03 01 10 20 80  01 7A 06 02 00 10 0E 80  .;.... ..z......
0640: 00 46 06 01 7A 06 02 00  10 0F 80 00 56 06 03 01  .F..z.......V...
0650: 10 21 80 01 7A 06 02 00  10 10 80 00 66 06 03 01  .!..z.......f...
0660: 10 07 80 01 7A 06 02 00  10 11 80 00 7A 06 1D 09  ....z.......z...
0670: 80 23 03 01 10 0A 80 01  7A 06 20 00 21 00        .#......z. .!.  
```

#### Opcodes

```
  0: 0x05A8 [0x24] CREATE_DIALOG(message_id=8646*, default_option=0*, option_flags=0*)
    → "WHICH QUEST? [ute001:NEW$3J$3J$3V-qL$P12a$P106v/udb001:$7%G-5="Hv/udb002:$h2=&M$P15s$P10Nv/uck001:$P14i$P13`L$P16rv/uha005:$tmj=$3$3{$3$1@L$E$9$20$P15*v/ukJB001:$3L$3o`B$Rv/ukI001:$3N$3$3E$3$1[p$ki$Rv/ute002:B$P10+L$30$P11cv/ute003:$P13`$P10`L$P11e$l$P10mv/uck003:$P13A$P10;$3V$3`$3$5[v/ute005:$P10/L%\v]"
  1: 0x05AF [0x25] WAIT_DIALOG_SELECT()
  2: 0x05B0 [0x02] IF !(Work_Zone[0] == 0*) GOTO 0x05C0
  3: 0x05B8 [0x03] Work_Zone[1] = 300*
  4: 0x05BD [0x01] GOTO 0x067A
  5: 0x05C0 [0x02] IF !(Work_Zone[0] == 1*) GOTO 0x05D0
  6: 0x05C8 [0x03] Work_Zone[1] = 301*
  7: 0x05CD [0x01] GOTO 0x067A
  8: 0x05D0 [0x02] IF !(Work_Zone[0] == 2*) GOTO 0x05E0
  9: 0x05D8 [0x03] Work_Zone[1] = 302*
 10: 0x05DD [0x01] GOTO 0x067A
 11: 0x05E0 [0x02] IF !(Work_Zone[0] == 3*) GOTO 0x05F0
 12: 0x05E8 [0x03] Work_Zone[1] = 303*
 13: 0x05ED [0x01] GOTO 0x067A
 14: 0x05F0 [0x02] IF !(Work_Zone[0] == 4*) GOTO 0x0600
 15: 0x05F8 [0x03] Work_Zone[1] = 304*
 16: 0x05FD [0x01] GOTO 0x067A
 17: 0x0600 [0x02] IF !(Work_Zone[0] == 5*) GOTO 0x0610
 18: 0x0608 [0x03] Work_Zone[1] = 305*
 19: 0x060D [0x01] GOTO 0x067A
 20: 0x0610 [0x02] IF !(Work_Zone[0] == 6*) GOTO 0x0620
 21: 0x0618 [0x03] Work_Zone[1] = 306*
 22: 0x061D [0x01] GOTO 0x067A
 23: 0x0620 [0x02] IF !(Work_Zone[0] == 7*) GOTO 0x062B
 24: 0x0628 [0x01] GOTO 0x067A
 25: 0x062B [0x02] IF !(Work_Zone[0] == 8*) GOTO 0x063B
 26: 0x0633 [0x03] Work_Zone[1] = 307*
 27: 0x0638 [0x01] GOTO 0x067A
 28: 0x063B [0x02] IF !(Work_Zone[0] == 9*) GOTO 0x0646
 29: 0x0643 [0x01] GOTO 0x067A
 30: 0x0646 [0x02] IF !(Work_Zone[0] == 10*) GOTO 0x0656
 31: 0x064E [0x03] Work_Zone[1] = 308*
 32: 0x0653 [0x01] GOTO 0x067A
 33: 0x0656 [0x02] IF !(Work_Zone[0] == 11*) GOTO 0x0666
 34: 0x065E [0x03] Work_Zone[1] = 99*
 35: 0x0663 [0x01] GOTO 0x067A
 36: 0x0666 [0x02] IF !(Work_Zone[0] == 12*) GOTO 0x067A
 37: 0x066E [0x1D] PRINT_EVENT_MESSAGE(message_id=6692*)
    → "Oh no! Your Adventurers' certificate vanished!"
 38: 0x0671 [0x23] WAIT_FOR_DIALOG_INTERACTION
 39: 0x0672 [0x03] Work_Zone[1] = 100*
 40: 0x0677 [0x01] GOTO 0x067A

SUBROUTINE_067A:
 41: 0x067A [0x20] SET_CLI_EVENT_UC_FLAG: Unlock player control
 42: 0x067C [0x21] END_EVENT
 43: 0x067D [0x00] END_REQSTACK()
```

### Event 6

#### Metadata

| Field        | Value   |
|--------------|---------|
| Entrypoint   | 0x067E  |
| Data Size    | 8 bytes |
| Instructions | 5       |

```
      00 01 02 03 04 05 06 07  08 09 0A 0B 0C 0D 0E 0F
      -- -- -- -- -- -- -- --  -- -- -- -- -- -- -- --
0670:                                            1D 22                ."
0680: 80 23 20 00 21 00                                 .# .!.          
```

#### Opcodes

```
  0: 0x067E [0x1D] PRINT_EVENT_MESSAGE(message_id=6742*)
    → "$7p$hI$P13|j\5=><Player>"
  1: 0x0681 [0x23] WAIT_FOR_DIALOG_INTERACTION
  2: 0x0682 [0x20] SET_CLI_EVENT_UC_FLAG: Unlock player control
  3: 0x0684 [0x21] END_EVENT
  4: 0x0685 [0x00] END_REQSTACK()
```

### Event 65535.11

#### Metadata

| Field        | Value     |
|--------------|-----------|
| Entrypoint   | 0x0686    |
| Data Size    | 124 bytes |
| Instructions | 26        |

```
      00 01 02 03 04 05 06 07  08 09 0A 0B 0C 0D 0E 0F
      -- -- -- -- -- -- -- --  -- -- -- -- -- -- -- --
0680:                   24 23  80 01 80 01 80 25 02 00        $#.....%..
0690: 10 01 80 00 A5 06 29 09  F0 FF FF 7F 1A 03 01 10  ......).........
06A0: 10 80 01 FE 06 02 00 10  02 80 00 BC 06 29 09 F0  .............)..
06B0: FF FF 7F 1A 03 01 10 11  80 01 FE 06 02 00 10 03  ................
06C0: 80 00 D3 06 29 09 F0 FF  FF 7F 1A 03 01 10 24 80  ....).........$.
06D0: 01 FE 06 02 00 10 04 80  00 EA 06 29 09 F0 FF FF  ...........)....
06E0: 7F 1A 03 01 10 25 80 01  FE 06 02 00 10 05 80 00  .....%..........
06F0: FE 06 1D 09 80 23 03 01  10 0A 80 01 FE 06 20 00  .....#........ .
0700: 21 00                                             !.              
```

#### Opcodes

```
  0: 0x0686 [0x24] CREATE_DIALOG(message_id=8652*, default_option=0*, option_flags=0*)
    → "SET WHICH FLAGS? [@te001OK FLAG./te001START FLAG./GAVE ITEM FLAG./JUST AFTER te001END FLAG./RESET ALL QUEST FLAGS.]"
  1: 0x068D [0x25] WAIT_DIALOG_SELECT()
  2: 0x068E [0x02] IF !(Work_Zone[0] == 0*) GOTO 0x06A5
  3: 0x0696 [0x29] REQ_SET_WAIT(priority=0x09, entity_id=LocalPlayer, tag_num=0x1A)
  4: 0x069D [0x03] Work_Zone[1] = 11*
  5: 0x06A2 [0x01] GOTO 0x06FE
  6: 0x06A5 [0x02] IF !(Work_Zone[0] == 1*) GOTO 0x06BC
  7: 0x06AD [0x29] REQ_SET_WAIT(priority=0x09, entity_id=LocalPlayer, tag_num=0x1A)
  8: 0x06B4 [0x03] Work_Zone[1] = 12*
  9: 0x06B9 [0x01] GOTO 0x06FE
 10: 0x06BC [0x02] IF !(Work_Zone[0] == 2*) GOTO 0x06D3
 11: 0x06C4 [0x29] REQ_SET_WAIT(priority=0x09, entity_id=LocalPlayer, tag_num=0x1A)
 12: 0x06CB [0x03] Work_Zone[1] = 13*
 13: 0x06D0 [0x01] GOTO 0x06FE
 14: 0x06D3 [0x02] IF !(Work_Zone[0] == 3*) GOTO 0x06EA
 15: 0x06DB [0x29] REQ_SET_WAIT(priority=0x09, entity_id=LocalPlayer, tag_num=0x1A)
 16: 0x06E2 [0x03] Work_Zone[1] = 14*
 17: 0x06E7 [0x01] GOTO 0x06FE
 18: 0x06EA [0x02] IF !(Work_Zone[0] == 4*) GOTO 0x06FE
 19: 0x06F2 [0x1D] PRINT_EVENT_MESSAGE(message_id=6692*)
    → "Oh no! Your Adventurers' certificate vanished!"
 20: 0x06F5 [0x23] WAIT_FOR_DIALOG_INTERACTION
 21: 0x06F6 [0x03] Work_Zone[1] = 100*
 22: 0x06FB [0x01] GOTO 0x06FE

SUBROUTINE_06FE:
 23: 0x06FE [0x20] SET_CLI_EVENT_UC_FLAG: Unlock player control
 24: 0x0700 [0x21] END_EVENT
 25: 0x0701 [0x00] END_REQSTACK()
```

### Event 65535.12

#### Metadata

| Field        | Value     |
|--------------|-----------|
| Entrypoint   | 0x0702    |
| Data Size    | 147 bytes |
| Instructions | 30        |

```
      00 01 02 03 04 05 06 07  08 09 0A 0B 0C 0D 0E 0F
      -- -- -- -- -- -- -- --  -- -- -- -- -- -- -- --
0700:       24 26 80 01 80 01  80 25 02 00 10 01 80 00    $&.....%......
0710: 21 07 29 09 F0 FF FF 7F  25 03 01 10 27 80 01 91  !.).....%...'...
0720: 07 02 00 10 02 80 00 38  07 29 09 F0 FF FF 7F 25  .......8.).....%
0730: 03 01 10 28 80 01 91 07  02 00 10 03 80 00 4F 07  ...(..........O.
0740: 29 09 F0 FF FF 7F 25 03  01 10 29 80 01 91 07 02  ).....%...).....
0750: 00 10 04 80 00 66 07 29  09 F0 FF FF 7F 25 03 01  .....f.).....%..
0760: 10 2A 80 01 91 07 02 00  10 05 80 00 7D 07 29 09  .*..........}.).
0770: F0 FF FF 7F 25 03 01 10  2B 80 01 91 07 02 00 10  ....%...+.......
0780: 06 80 00 91 07 1D 09 80  23 03 01 10 0A 80 01 91  ........#.......
0790: 07 20 00 21 00                                    . .!.           
```

#### Opcodes

```
  0: 0x0702 [0x24] CREATE_DIALOG(message_id=8653*, default_option=0*, option_flags=0*)
    → "SET WHICH FLAGS? [@db001OK FLAG./DID GREETING MOTION./db001START FLAG./GAVE YAGUDO ITEM./JUST AFTER db001END FLAG./RESET ALL QUEST FLAGS.]"
  1: 0x0709 [0x25] WAIT_DIALOG_SELECT()
  2: 0x070A [0x02] IF !(Work_Zone[0] == 0*) GOTO 0x0721
  3: 0x0712 [0x29] REQ_SET_WAIT(priority=0x09, entity_id=LocalPlayer, tag_num=0x25)
  4: 0x0719 [0x03] Work_Zone[1] = 15*
  5: 0x071E [0x01] GOTO 0x0791
  6: 0x0721 [0x02] IF !(Work_Zone[0] == 1*) GOTO 0x0738
  7: 0x0729 [0x29] REQ_SET_WAIT(priority=0x09, entity_id=LocalPlayer, tag_num=0x25)
  8: 0x0730 [0x03] Work_Zone[1] = 16*
  9: 0x0735 [0x01] GOTO 0x0791
 10: 0x0738 [0x02] IF !(Work_Zone[0] == 2*) GOTO 0x074F
 11: 0x0740 [0x29] REQ_SET_WAIT(priority=0x09, entity_id=LocalPlayer, tag_num=0x25)
 12: 0x0747 [0x03] Work_Zone[1] = 17*
 13: 0x074C [0x01] GOTO 0x0791
 14: 0x074F [0x02] IF !(Work_Zone[0] == 3*) GOTO 0x0766
 15: 0x0757 [0x29] REQ_SET_WAIT(priority=0x09, entity_id=LocalPlayer, tag_num=0x25)
 16: 0x075E [0x03] Work_Zone[1] = 18*
 17: 0x0763 [0x01] GOTO 0x0791
 18: 0x0766 [0x02] IF !(Work_Zone[0] == 4*) GOTO 0x077D
 19: 0x076E [0x29] REQ_SET_WAIT(priority=0x09, entity_id=LocalPlayer, tag_num=0x25)
 20: 0x0775 [0x03] Work_Zone[1] = 19*
 21: 0x077A [0x01] GOTO 0x0791
 22: 0x077D [0x02] IF !(Work_Zone[0] == 5*) GOTO 0x0791
 23: 0x0785 [0x1D] PRINT_EVENT_MESSAGE(message_id=6692*)
    → "Oh no! Your Adventurers' certificate vanished!"
 24: 0x0788 [0x23] WAIT_FOR_DIALOG_INTERACTION
 25: 0x0789 [0x03] Work_Zone[1] = 100*
 26: 0x078E [0x01] GOTO 0x0791

SUBROUTINE_0791:
 27: 0x0791 [0x20] SET_CLI_EVENT_UC_FLAG: Unlock player control
 28: 0x0793 [0x21] END_EVENT
 29: 0x0794 [0x00] END_REQSTACK()
```

### Event 65535.13

#### Metadata

| Field        | Value     |
|--------------|-----------|
| Entrypoint   | 0x0795    |
| Data Size    | 193 bytes |
| Instructions | 38        |

```
      00 01 02 03 04 05 06 07  08 09 0A 0B 0C 0D 0E 0F
      -- -- -- -- -- -- -- --  -- -- -- -- -- -- -- --
0790:                24 2C 80  01 80 01 80 25 02 00 10       $,.....%...
07A0: 01 80 00 B4 07 29 09 F0  FF FF 7F 25 03 01 10 2D  .....).....%...-
07B0: 80 01 52 08 02 00 10 02  80 00 CB 07 29 09 F0 FF  ..R.........)...
07C0: FF 7F 25 03 01 10 2E 80  01 52 08 02 00 10 03 80  ..%......R......
07D0: 00 E2 07 29 09 F0 FF FF  7F 25 03 01 10 2F 80 01  ...).....%.../..
07E0: 52 08 02 00 10 04 80 00  F9 07 29 09 F0 FF FF 7F  R.........).....
07F0: 25 03 01 10 30 80 01 52  08 02 00 10 05 80 00 10  %...0..R........
0800: 08 29 09 F0 FF FF 7F 25  03 01 10 31 80 01 52 08  .).....%...1..R.
0810: 02 00 10 06 80 00 27 08  29 09 F0 FF FF 7F 25 03  ......'.).....%.
0820: 01 10 32 80 01 52 08 02  00 10 08 80 00 3E 08 29  ..2..R.......>.)
0830: 09 F0 FF FF 7F 25 03 01  10 33 80 01 52 08 02 00  .....%...3..R...
0840: 10 0B 80 00 52 08 1D 09  80 23 03 01 10 0A 80 01  ....R....#......
0850: 52 08 20 00 21 00                                 R. .!.          
```

#### Opcodes

```
  0: 0x0795 [0x24] CREATE_DIALOG(message_id=8654*, default_option=0*, option_flags=0*)
    → "SET WHICH FLAGS? [@db002OK FLAG./db002START FLAG./WENT TO BASTOK GOLDSMITHS' GUILD./BACK TO MITHRA'S PAD./HEARD IT FROM TRAVELER./GAVE STONE TO TRAVELER./db002END$P12<c FLAG./RESET ALL QUEST FLAGS.]"
  1: 0x079C [0x25] WAIT_DIALOG_SELECT()
  2: 0x079D [0x02] IF !(Work_Zone[0] == 0*) GOTO 0x07B4
  3: 0x07A5 [0x29] REQ_SET_WAIT(priority=0x09, entity_id=LocalPlayer, tag_num=0x25)
  4: 0x07AC [0x03] Work_Zone[1] = 20*
  5: 0x07B1 [0x01] GOTO 0x0852
  6: 0x07B4 [0x02] IF !(Work_Zone[0] == 1*) GOTO 0x07CB
  7: 0x07BC [0x29] REQ_SET_WAIT(priority=0x09, entity_id=LocalPlayer, tag_num=0x25)
  8: 0x07C3 [0x03] Work_Zone[1] = 21*
  9: 0x07C8 [0x01] GOTO 0x0852
 10: 0x07CB [0x02] IF !(Work_Zone[0] == 2*) GOTO 0x07E2
 11: 0x07D3 [0x29] REQ_SET_WAIT(priority=0x09, entity_id=LocalPlayer, tag_num=0x25)
 12: 0x07DA [0x03] Work_Zone[1] = 22*
 13: 0x07DF [0x01] GOTO 0x0852
 14: 0x07E2 [0x02] IF !(Work_Zone[0] == 3*) GOTO 0x07F9
 15: 0x07EA [0x29] REQ_SET_WAIT(priority=0x09, entity_id=LocalPlayer, tag_num=0x25)
 16: 0x07F1 [0x03] Work_Zone[1] = 23*
 17: 0x07F6 [0x01] GOTO 0x0852
 18: 0x07F9 [0x02] IF !(Work_Zone[0] == 4*) GOTO 0x0810
 19: 0x0801 [0x29] REQ_SET_WAIT(priority=0x09, entity_id=LocalPlayer, tag_num=0x25)
 20: 0x0808 [0x03] Work_Zone[1] = 24*
 21: 0x080D [0x01] GOTO 0x0852
 22: 0x0810 [0x02] IF !(Work_Zone[0] == 5*) GOTO 0x0827
 23: 0x0818 [0x29] REQ_SET_WAIT(priority=0x09, entity_id=LocalPlayer, tag_num=0x25)
 24: 0x081F [0x03] Work_Zone[1] = 25*
 25: 0x0824 [0x01] GOTO 0x0852
 26: 0x0827 [0x02] IF !(Work_Zone[0] == 6*) GOTO 0x083E
 27: 0x082F [0x29] REQ_SET_WAIT(priority=0x09, entity_id=LocalPlayer, tag_num=0x25)
 28: 0x0836 [0x03] Work_Zone[1] = 26*
 29: 0x083B [0x01] GOTO 0x0852
 30: 0x083E [0x02] IF !(Work_Zone[0] == 7*) GOTO 0x0852
 31: 0x0846 [0x1D] PRINT_EVENT_MESSAGE(message_id=6692*)
    → "Oh no! Your Adventurers' certificate vanished!"
 32: 0x0849 [0x23] WAIT_FOR_DIALOG_INTERACTION
 33: 0x084A [0x03] Work_Zone[1] = 100*
 34: 0x084F [0x01] GOTO 0x0852

SUBROUTINE_0852:
 35: 0x0852 [0x20] SET_CLI_EVENT_UC_FLAG: Unlock player control
 36: 0x0854 [0x21] END_EVENT
 37: 0x0855 [0x00] END_REQSTACK()
```

### Event 65535.14

#### Metadata

| Field        | Value     |
|--------------|-----------|
| Entrypoint   | 0x0856    |
| Data Size    | 147 bytes |
| Instructions | 30        |

```
      00 01 02 03 04 05 06 07  08 09 0A 0B 0C 0D 0E 0F
      -- -- -- -- -- -- -- --  -- -- -- -- -- -- -- --
0850:                   24 34  80 01 80 01 80 25 02 00        $4.....%..
0860: 10 01 80 00 75 08 29 09  F0 FF FF 7F 20 03 01 10  ....u.)..... ...
0870: 35 80 01 E5 08 02 00 10  02 80 00 8C 08 29 09 F0  5............)..
0880: FF FF 7F 20 03 01 10 36  80 01 E5 08 02 00 10 03  ... ...6........
0890: 80 00 A3 08 29 09 F0 FF  FF 7F 20 03 01 10 37 80  ....)..... ...7.
08A0: 01 E5 08 02 00 10 04 80  00 BA 08 29 09 F0 FF FF  ...........)....
08B0: 7F 20 03 01 10 38 80 01  E5 08 02 00 10 05 80 00  . ...8..........
08C0: D1 08 29 09 F0 FF FF 7F  20 03 01 10 39 80 01 E5  ..)..... ...9...
08D0: 08 02 00 10 06 80 00 E5  08 1D 09 80 23 03 01 10  ............#...
08E0: 0A 80 01 E5 08 20 00 21  00                       ..... .!.       
```

#### Opcodes

```
  0: 0x0856 [0x24] CREATE_DIALOG(message_id=8655*, default_option=0*, option_flags=0*)
    → "SET WHICH FLAGS? [@ck001OK FLAG./ck001START FLAG./HEARD IT FROM APOTHECARY./GAVE'EM TO APOTHECARY./ck001END$P12<c FLAG./RESET ALL QUEST FLAGS.]"
  1: 0x085D [0x25] WAIT_DIALOG_SELECT()
  2: 0x085E [0x02] IF !(Work_Zone[0] == 0*) GOTO 0x0875
  3: 0x0866 [0x29] REQ_SET_WAIT(priority=0x09, entity_id=LocalPlayer, tag_num=0x20)
  4: 0x086D [0x03] Work_Zone[1] = 27*
  5: 0x0872 [0x01] GOTO 0x08E5
  6: 0x0875 [0x02] IF !(Work_Zone[0] == 1*) GOTO 0x088C
  7: 0x087D [0x29] REQ_SET_WAIT(priority=0x09, entity_id=LocalPlayer, tag_num=0x20)
  8: 0x0884 [0x03] Work_Zone[1] = 28*
  9: 0x0889 [0x01] GOTO 0x08E5
 10: 0x088C [0x02] IF !(Work_Zone[0] == 2*) GOTO 0x08A3
 11: 0x0894 [0x29] REQ_SET_WAIT(priority=0x09, entity_id=LocalPlayer, tag_num=0x20)
 12: 0x089B [0x03] Work_Zone[1] = 29*
 13: 0x08A0 [0x01] GOTO 0x08E5
 14: 0x08A3 [0x02] IF !(Work_Zone[0] == 3*) GOTO 0x08BA
 15: 0x08AB [0x29] REQ_SET_WAIT(priority=0x09, entity_id=LocalPlayer, tag_num=0x20)
 16: 0x08B2 [0x03] Work_Zone[1] = 30*
 17: 0x08B7 [0x01] GOTO 0x08E5
 18: 0x08BA [0x02] IF !(Work_Zone[0] == 4*) GOTO 0x08D1
 19: 0x08C2 [0x29] REQ_SET_WAIT(priority=0x09, entity_id=LocalPlayer, tag_num=0x20)
 20: 0x08C9 [0x03] Work_Zone[1] = 31*
 21: 0x08CE [0x01] GOTO 0x08E5
 22: 0x08D1 [0x02] IF !(Work_Zone[0] == 5*) GOTO 0x08E5
 23: 0x08D9 [0x1D] PRINT_EVENT_MESSAGE(message_id=6692*)
    → "Oh no! Your Adventurers' certificate vanished!"
 24: 0x08DC [0x23] WAIT_FOR_DIALOG_INTERACTION
 25: 0x08DD [0x03] Work_Zone[1] = 100*
 26: 0x08E2 [0x01] GOTO 0x08E5

SUBROUTINE_08E5:
 27: 0x08E5 [0x20] SET_CLI_EVENT_UC_FLAG: Unlock player control
 28: 0x08E7 [0x21] END_EVENT
 29: 0x08E8 [0x00] END_REQSTACK()
```

### Event 65535.15

#### Metadata

| Field        | Value     |
|--------------|-----------|
| Entrypoint   | 0x08E9    |
| Data Size    | 101 bytes |
| Instructions | 22        |

```
      00 01 02 03 04 05 06 07  08 09 0A 0B 0C 0D 0E 0F
      -- -- -- -- -- -- -- --  -- -- -- -- -- -- -- --
08E0:                             24 3A 80 01 80 01 80           $:.....
08F0: 25 02 00 10 01 80 00 08  09 29 09 F0 FF FF 7F 1E  %........)......
0900: 03 01 10 3B 80 01 4A 09  02 00 10 02 80 00 1F 09  ...;..J.........
0910: 29 09 F0 FF FF 7F 1E 03  01 10 3C 80 01 4A 09 02  ).........<..J..
0920: 00 10 03 80 00 36 09 29  09 F0 FF FF 7F 1E 03 01  .....6.)........
0930: 10 3D 80 01 4A 09 02 00  10 04 80 00 4A 09 1D 09  .=..J.......J...
0940: 80 23 03 01 10 0A 80 01  4A 09 20 00 21 00        .#......J. .!.  
```

#### Opcodes

```
  0: 0x08E9 [0x24] CREATE_DIALOG(message_id=8656*, default_option=0*, option_flags=0*)
    → "SET WHICH FLAGS? [@ha005OK FLAG./RECEIVED RIBBON./ha005END$P12<c FLAG./RESET ALL QUEST FLAGS.]"
  1: 0x08F0 [0x25] WAIT_DIALOG_SELECT()
  2: 0x08F1 [0x02] IF !(Work_Zone[0] == 0*) GOTO 0x0908
  3: 0x08F9 [0x29] REQ_SET_WAIT(priority=0x09, entity_id=LocalPlayer, tag_num=0x1E)
  4: 0x0900 [0x03] Work_Zone[1] = 32*
  5: 0x0905 [0x01] GOTO 0x094A
  6: 0x0908 [0x02] IF !(Work_Zone[0] == 1*) GOTO 0x091F
  7: 0x0910 [0x29] REQ_SET_WAIT(priority=0x09, entity_id=LocalPlayer, tag_num=0x1E)
  8: 0x0917 [0x03] Work_Zone[1] = 33*
  9: 0x091C [0x01] GOTO 0x094A
 10: 0x091F [0x02] IF !(Work_Zone[0] == 2*) GOTO 0x0936
 11: 0x0927 [0x29] REQ_SET_WAIT(priority=0x09, entity_id=LocalPlayer, tag_num=0x1E)
 12: 0x092E [0x03] Work_Zone[1] = 34*
 13: 0x0933 [0x01] GOTO 0x094A
 14: 0x0936 [0x02] IF !(Work_Zone[0] == 3*) GOTO 0x094A
 15: 0x093E [0x1D] PRINT_EVENT_MESSAGE(message_id=6692*)
    → "Oh no! Your Adventurers' certificate vanished!"
 16: 0x0941 [0x23] WAIT_FOR_DIALOG_INTERACTION
 17: 0x0942 [0x03] Work_Zone[1] = 100*
 18: 0x0947 [0x01] GOTO 0x094A

SUBROUTINE_094A:
 19: 0x094A [0x20] SET_CLI_EVENT_UC_FLAG: Unlock player control
 20: 0x094C [0x21] END_EVENT
 21: 0x094D [0x00] END_REQSTACK()
```

### Event 65535.16

#### Metadata

| Field        | Value     |
|--------------|-----------|
| Entrypoint   | 0x094E    |
| Data Size    | 147 bytes |
| Instructions | 30        |

```
      00 01 02 03 04 05 06 07  08 09 0A 0B 0C 0D 0E 0F
      -- -- -- -- -- -- -- --  -- -- -- -- -- -- -- --
0940:                                            24 3E                $>
0950: 80 01 80 01 80 25 02 00  10 01 80 00 6D 09 29 09  .....%......m.).
0960: F0 FF FF 7F 24 03 01 10  3F 80 01 DD 09 02 00 10  ....$...?.......
0970: 02 80 00 84 09 29 09 F0  FF FF 7F 24 03 01 10 40  .....).....$...@
0980: 80 01 DD 09 02 00 10 03  80 00 9B 09 29 09 F0 FF  ............)...
0990: FF 7F 24 03 01 10 41 80  01 DD 09 02 00 10 04 80  ..$...A.........
09A0: 00 B2 09 29 09 F0 FF FF  7F 24 03 01 10 42 80 01  ...).....$...B..
09B0: DD 09 02 00 10 05 80 00  C9 09 29 09 F0 FF FF 7F  ..........).....
09C0: 24 03 01 10 43 80 01 DD  09 02 00 10 06 80 00 DD  $...C...........
09D0: 09 1D 09 80 23 03 01 10  0A 80 01 DD 09 20 00 21  ....#........ .!
09E0: 00                                                .               
```

#### Opcodes

```
  0: 0x094E [0x24] CREATE_DIALOG(message_id=8657*, default_option=0*, option_flags=0*)
    → "SET WHICH FLAGS? [@HUNTER JOB OK FLAG./HUNTER JOB START FLAG./GAVE FALSE FANG./GAVE REAL FANG./HUNTER JOB END$P12<c FLAG./RESET ALL QUEST FLAGS.]"
  1: 0x0955 [0x25] WAIT_DIALOG_SELECT()
  2: 0x0956 [0x02] IF !(Work_Zone[0] == 0*) GOTO 0x096D
  3: 0x095E [0x29] REQ_SET_WAIT(priority=0x09, entity_id=LocalPlayer, tag_num=0x24)
  4: 0x0965 [0x03] Work_Zone[1] = 36*
  5: 0x096A [0x01] GOTO 0x09DD
  6: 0x096D [0x02] IF !(Work_Zone[0] == 1*) GOTO 0x0984
  7: 0x0975 [0x29] REQ_SET_WAIT(priority=0x09, entity_id=LocalPlayer, tag_num=0x24)
  8: 0x097C [0x03] Work_Zone[1] = 37*
  9: 0x0981 [0x01] GOTO 0x09DD
 10: 0x0984 [0x02] IF !(Work_Zone[0] == 2*) GOTO 0x099B
 11: 0x098C [0x29] REQ_SET_WAIT(priority=0x09, entity_id=LocalPlayer, tag_num=0x24)
 12: 0x0993 [0x03] Work_Zone[1] = 38*
 13: 0x0998 [0x01] GOTO 0x09DD
 14: 0x099B [0x02] IF !(Work_Zone[0] == 3*) GOTO 0x09B2
 15: 0x09A3 [0x29] REQ_SET_WAIT(priority=0x09, entity_id=LocalPlayer, tag_num=0x24)
 16: 0x09AA [0x03] Work_Zone[1] = 39*
 17: 0x09AF [0x01] GOTO 0x09DD
 18: 0x09B2 [0x02] IF !(Work_Zone[0] == 4*) GOTO 0x09C9
 19: 0x09BA [0x29] REQ_SET_WAIT(priority=0x09, entity_id=LocalPlayer, tag_num=0x24)
 20: 0x09C1 [0x03] Work_Zone[1] = 40*
 21: 0x09C6 [0x01] GOTO 0x09DD
 22: 0x09C9 [0x02] IF !(Work_Zone[0] == 5*) GOTO 0x09DD
 23: 0x09D1 [0x1D] PRINT_EVENT_MESSAGE(message_id=6692*)
    → "Oh no! Your Adventurers' certificate vanished!"
 24: 0x09D4 [0x23] WAIT_FOR_DIALOG_INTERACTION
 25: 0x09D5 [0x03] Work_Zone[1] = 100*
 26: 0x09DA [0x01] GOTO 0x09DD

SUBROUTINE_09DD:
 27: 0x09DD [0x20] SET_CLI_EVENT_UC_FLAG: Unlock player control
 28: 0x09DF [0x21] END_EVENT
 29: 0x09E0 [0x00] END_REQSTACK()
```

### Event 65535.17

#### Metadata

| Field        | Value    |
|--------------|----------|
| Entrypoint   | 0x09E1   |
| Data Size    | 81 bytes |
| Instructions | 17       |

```
      00 01 02 03 04 05 06 07  08 09 0A 0B 0C 0D 0E 0F
      -- -- -- -- -- -- -- --  -- -- -- -- -- -- -- --
09E0:    24 44 80 01 80 01 80  25 02 00 10 01 80 00 00   $D.....%.......
09F0: 0A 29 09 F0 FF FF 7F 26  03 01 10 45 80 01 2E 0A  .).....&...E....
0A00: 02 00 10 02 80 00 17 0A  29 09 F0 FF FF 7F 26 03  ........).....&.
0A10: 01 10 46 80 01 2E 0A 02  00 10 03 80 00 2E 0A 29  ..F............)
0A20: 09 F0 FF FF 7F 26 03 01  10 47 80 01 2E 0A 20 00  .....&...G.... .
0A30: 21 00                                             !.              
```

#### Opcodes

```
  0: 0x09E1 [0x24] CREATE_DIALOG(message_id=8658*, default_option=0*, option_flags=0*)
    → "SET WHICH FLAGS? [START FLAG./TOUCHED DOOR./QUEST FINISHED.]"
  1: 0x09E8 [0x25] WAIT_DIALOG_SELECT()
  2: 0x09E9 [0x02] IF !(Work_Zone[0] == 0*) GOTO 0x0A00
  3: 0x09F1 [0x29] REQ_SET_WAIT(priority=0x09, entity_id=LocalPlayer, tag_num=0x26)
  4: 0x09F8 [0x03] Work_Zone[1] = 41*
  5: 0x09FD [0x01] GOTO 0x0A2E
  6: 0x0A00 [0x02] IF !(Work_Zone[0] == 1*) GOTO 0x0A17
  7: 0x0A08 [0x29] REQ_SET_WAIT(priority=0x09, entity_id=LocalPlayer, tag_num=0x26)
  8: 0x0A0F [0x03] Work_Zone[1] = 42*
  9: 0x0A14 [0x01] GOTO 0x0A2E
 10: 0x0A17 [0x02] IF !(Work_Zone[0] == 2*) GOTO 0x0A2E
 11: 0x0A1F [0x29] REQ_SET_WAIT(priority=0x09, entity_id=LocalPlayer, tag_num=0x26)
 12: 0x0A26 [0x03] Work_Zone[1] = 43*
 13: 0x0A2B [0x01] GOTO 0x0A2E

SUBROUTINE_0A2E:
 14: 0x0A2E [0x20] SET_CLI_EVENT_UC_FLAG: Unlock player control
 15: 0x0A30 [0x21] END_EVENT
 16: 0x0A31 [0x00] END_REQSTACK()
```

### Event 65535.18

#### Metadata

| Field        | Value     |
|--------------|-----------|
| Entrypoint   | 0x0A32    |
| Data Size    | 104 bytes |
| Instructions | 21        |

```
      00 01 02 03 04 05 06 07  08 09 0A 0B 0C 0D 0E 0F
      -- -- -- -- -- -- -- --  -- -- -- -- -- -- -- --
0A30:       24 48 80 01 80 01  80 25 02 00 10 01 80 00    $H.....%......
0A40: 51 0A 29 09 F0 FF FF 7F  26 03 01 10 49 80 01 96  Q.).....&...I...
0A50: 0A 02 00 10 02 80 00 68  0A 29 09 F0 FF FF 7F 26  .......h.).....&
0A60: 03 01 10 4A 80 01 96 0A  02 00 10 03 80 00 7F 0A  ...J............
0A70: 29 09 F0 FF FF 7F 26 03  01 10 4B 80 01 96 0A 02  ).....&...K.....
0A80: 00 10 04 80 00 96 0A 29  09 F0 FF FF 7F 26 03 01  .......).....&..
0A90: 10 4C 80 01 96 0A 20 00  21 00                    .L.... .!.      
```

#### Opcodes

```
  0: 0x0A32 [0x24] CREATE_DIALOG(message_id=8659*, default_option=0*, option_flags=0*)
    → "SET WHICH FLAGS? [KR001ok FLAG./KR001start FLAG./GAVE $3A$3S./QUEST FINISHED.]"
  1: 0x0A39 [0x25] WAIT_DIALOG_SELECT()
  2: 0x0A3A [0x02] IF !(Work_Zone[0] == 0*) GOTO 0x0A51
  3: 0x0A42 [0x29] REQ_SET_WAIT(priority=0x09, entity_id=LocalPlayer, tag_num=0x26)
  4: 0x0A49 [0x03] Work_Zone[1] = 44*
  5: 0x0A4E [0x01] GOTO 0x0A96
  6: 0x0A51 [0x02] IF !(Work_Zone[0] == 1*) GOTO 0x0A68
  7: 0x0A59 [0x29] REQ_SET_WAIT(priority=0x09, entity_id=LocalPlayer, tag_num=0x26)
  8: 0x0A60 [0x03] Work_Zone[1] = 45*
  9: 0x0A65 [0x01] GOTO 0x0A96
 10: 0x0A68 [0x02] IF !(Work_Zone[0] == 2*) GOTO 0x0A7F
 11: 0x0A70 [0x29] REQ_SET_WAIT(priority=0x09, entity_id=LocalPlayer, tag_num=0x26)
 12: 0x0A77 [0x03] Work_Zone[1] = 46*
 13: 0x0A7C [0x01] GOTO 0x0A96
 14: 0x0A7F [0x02] IF !(Work_Zone[0] == 3*) GOTO 0x0A96
 15: 0x0A87 [0x29] REQ_SET_WAIT(priority=0x09, entity_id=LocalPlayer, tag_num=0x26)
 16: 0x0A8E [0x03] Work_Zone[1] = 47*
 17: 0x0A93 [0x01] GOTO 0x0A96

SUBROUTINE_0A96:
 18: 0x0A96 [0x20] SET_CLI_EVENT_UC_FLAG: Unlock player control
 19: 0x0A98 [0x21] END_EVENT
 20: 0x0A99 [0x00] END_REQSTACK()
```

### Event 65535.19

#### Metadata

| Field        | Value     |
|--------------|-----------|
| Entrypoint   | 0x0A9A    |
| Data Size    | 104 bytes |
| Instructions | 21        |

```
      00 01 02 03 04 05 06 07  08 09 0A 0B 0C 0D 0E 0F
      -- -- -- -- -- -- -- --  -- -- -- -- -- -- -- --
0A90:                                24 4D 80 01 80 01            $M....
0AA0: 80 25 02 00 10 01 80 00  B9 0A 29 09 F0 FF FF 7F  .%........).....
0AB0: 1A 03 01 10 4E 80 01 FE  0A 02 00 10 02 80 00 D0  ....N...........
0AC0: 0A 29 09 F0 FF FF 7F 1A  03 01 10 4F 80 01 FE 0A  .).........O....
0AD0: 02 00 10 03 80 00 E7 0A  29 09 F0 FF FF 7F 1A 03  ........).......
0AE0: 01 10 50 80 01 FE 0A 02  00 10 04 80 00 FE 0A 29  ..P............)
0AF0: 09 F0 FF FF 7F 1A 03 01  10 51 80 01 FE 0A 20 00  .........Q.... .
0B00: 21 00                                             !.              
```

#### Opcodes

```
  0: 0x0A9A [0x24] CREATE_DIALOG(message_id=8660*, default_option=0*, option_flags=0*)
    → "SET WHICH FLAGS? [TE002ok FLAG./JUST BEFORE TE002start FLAG./FOUND CARDIAN./QUEST FINISHED.]"
  1: 0x0AA1 [0x25] WAIT_DIALOG_SELECT()
  2: 0x0AA2 [0x02] IF !(Work_Zone[0] == 0*) GOTO 0x0AB9
  3: 0x0AAA [0x29] REQ_SET_WAIT(priority=0x09, entity_id=LocalPlayer, tag_num=0x1A)
  4: 0x0AB1 [0x03] Work_Zone[1] = 48*
  5: 0x0AB6 [0x01] GOTO 0x0AFE
  6: 0x0AB9 [0x02] IF !(Work_Zone[0] == 1*) GOTO 0x0AD0
  7: 0x0AC1 [0x29] REQ_SET_WAIT(priority=0x09, entity_id=LocalPlayer, tag_num=0x1A)
  8: 0x0AC8 [0x03] Work_Zone[1] = 49*
  9: 0x0ACD [0x01] GOTO 0x0AFE
 10: 0x0AD0 [0x02] IF !(Work_Zone[0] == 2*) GOTO 0x0AE7
 11: 0x0AD8 [0x29] REQ_SET_WAIT(priority=0x09, entity_id=LocalPlayer, tag_num=0x1A)
 12: 0x0ADF [0x03] Work_Zone[1] = 50*
 13: 0x0AE4 [0x01] GOTO 0x0AFE
 14: 0x0AE7 [0x02] IF !(Work_Zone[0] == 3*) GOTO 0x0AFE
 15: 0x0AEF [0x29] REQ_SET_WAIT(priority=0x09, entity_id=LocalPlayer, tag_num=0x1A)
 16: 0x0AF6 [0x03] Work_Zone[1] = 51*
 17: 0x0AFB [0x01] GOTO 0x0AFE

SUBROUTINE_0AFE:
 18: 0x0AFE [0x20] SET_CLI_EVENT_UC_FLAG: Unlock player control
 19: 0x0B00 [0x21] END_EVENT
 20: 0x0B01 [0x00] END_REQSTACK()
```

### Event 65535.20

#### Metadata

| Field        | Value     |
|--------------|-----------|
| Entrypoint   | 0x0B02    |
| Data Size    | 104 bytes |
| Instructions | 21        |

```
      00 01 02 03 04 05 06 07  08 09 0A 0B 0C 0D 0E 0F
      -- -- -- -- -- -- -- --  -- -- -- -- -- -- -- --
0B00:       24 52 80 01 80 01  80 25 02 00 10 01 80 00    $R.....%......
0B10: 21 0B 29 09 F0 FF FF 7F  1B 03 01 10 53 80 01 66  !.).........S..f
0B20: 0B 02 00 10 02 80 00 38  0B 29 09 F0 FF FF 7F 1B  .......8.)......
0B30: 03 01 10 54 80 01 66 0B  02 00 10 03 80 00 4F 0B  ...T..f.......O.
0B40: 29 09 F0 FF FF 7F 1B 03  01 10 55 80 01 66 0B 02  ).........U..f..
0B50: 00 10 04 80 00 66 0B 29  09 F0 FF FF 7F 1B 03 01  .....f.)........
0B60: 10 56 80 01 66 0B 20 00  21 00                    .V..f. .!.      
```

#### Opcodes

```
  0: 0x0B02 [0x24] CREATE_DIALOG(message_id=8661*, default_option=0*, option_flags=0*)
    → "SET WHICH FLAGS? [TE003ok FLAG./JUST BEFORE TE003start FLAG./HANDED OVER ITEM./QUEST FINISHED.]"
  1: 0x0B09 [0x25] WAIT_DIALOG_SELECT()
  2: 0x0B0A [0x02] IF !(Work_Zone[0] == 0*) GOTO 0x0B21
  3: 0x0B12 [0x29] REQ_SET_WAIT(priority=0x09, entity_id=LocalPlayer, tag_num=0x1B)
  4: 0x0B19 [0x03] Work_Zone[1] = 52*
  5: 0x0B1E [0x01] GOTO 0x0B66
  6: 0x0B21 [0x02] IF !(Work_Zone[0] == 1*) GOTO 0x0B38
  7: 0x0B29 [0x29] REQ_SET_WAIT(priority=0x09, entity_id=LocalPlayer, tag_num=0x1B)
  8: 0x0B30 [0x03] Work_Zone[1] = 53*
  9: 0x0B35 [0x01] GOTO 0x0B66
 10: 0x0B38 [0x02] IF !(Work_Zone[0] == 2*) GOTO 0x0B4F
 11: 0x0B40 [0x29] REQ_SET_WAIT(priority=0x09, entity_id=LocalPlayer, tag_num=0x1B)
 12: 0x0B47 [0x03] Work_Zone[1] = 54*
 13: 0x0B4C [0x01] GOTO 0x0B66
 14: 0x0B4F [0x02] IF !(Work_Zone[0] == 3*) GOTO 0x0B66
 15: 0x0B57 [0x29] REQ_SET_WAIT(priority=0x09, entity_id=LocalPlayer, tag_num=0x1B)
 16: 0x0B5E [0x03] Work_Zone[1] = 55*
 17: 0x0B63 [0x01] GOTO 0x0B66

SUBROUTINE_0B66:
 18: 0x0B66 [0x20] SET_CLI_EVENT_UC_FLAG: Unlock player control
 19: 0x0B68 [0x21] END_EVENT
 20: 0x0B69 [0x00] END_REQSTACK()
```

### Event 65535.21

#### Metadata

| Field        | Value     |
|--------------|-----------|
| Entrypoint   | 0x0B6A    |
| Data Size    | 127 bytes |
| Instructions | 25        |

```
      00 01 02 03 04 05 06 07  08 09 0A 0B 0C 0D 0E 0F
      -- -- -- -- -- -- -- --  -- -- -- -- -- -- -- --
0B60:                                24 57 80 01 80 01            $W....
0B70: 80 25 02 00 10 01 80 00  89 0B 29 09 F0 FF FF 7F  .%........).....
0B80: 20 03 01 10 58 80 01 E5  0B 02 00 10 02 80 00 A0   ...X...........
0B90: 0B 29 09 F0 FF FF 7F 20  03 01 10 59 80 01 E5 0B  .)..... ...Y....
0BA0: 02 00 10 03 80 00 B7 0B  29 09 F0 FF FF 7F 20 03  ........)..... .
0BB0: 01 10 5A 80 01 E5 0B 02  00 10 04 80 00 CE 0B 29  ..Z............)
0BC0: 09 F0 FF FF 7F 20 03 01  10 5B 80 01 E5 0B 02 00  ..... ...[......
0BD0: 10 05 80 00 E5 0B 29 09  F0 FF FF 7F 20 03 01 10  ......)..... ...
0BE0: 5C 80 01 E5 0B 20 00 21  00                       \.... .!.       
```

#### Opcodes

```
  0: 0x0B6A [0x24] CREATE_DIALOG(message_id=8662*, default_option=0*, option_flags=0*)
    → "SET WHICH FLAGS? [CK003ok FLAG./JUST BEFORE CK003start FLAG./RECEIVED STEW./QUEST FINISHED./OK TO DO AGAIN.]"
  1: 0x0B71 [0x25] WAIT_DIALOG_SELECT()
  2: 0x0B72 [0x02] IF !(Work_Zone[0] == 0*) GOTO 0x0B89
  3: 0x0B7A [0x29] REQ_SET_WAIT(priority=0x09, entity_id=LocalPlayer, tag_num=0x20)
  4: 0x0B81 [0x03] Work_Zone[1] = 56*
  5: 0x0B86 [0x01] GOTO 0x0BE5
  6: 0x0B89 [0x02] IF !(Work_Zone[0] == 1*) GOTO 0x0BA0
  7: 0x0B91 [0x29] REQ_SET_WAIT(priority=0x09, entity_id=LocalPlayer, tag_num=0x20)
  8: 0x0B98 [0x03] Work_Zone[1] = 57*
  9: 0x0B9D [0x01] GOTO 0x0BE5
 10: 0x0BA0 [0x02] IF !(Work_Zone[0] == 2*) GOTO 0x0BB7
 11: 0x0BA8 [0x29] REQ_SET_WAIT(priority=0x09, entity_id=LocalPlayer, tag_num=0x20)
 12: 0x0BAF [0x03] Work_Zone[1] = 58*
 13: 0x0BB4 [0x01] GOTO 0x0BE5
 14: 0x0BB7 [0x02] IF !(Work_Zone[0] == 3*) GOTO 0x0BCE
 15: 0x0BBF [0x29] REQ_SET_WAIT(priority=0x09, entity_id=LocalPlayer, tag_num=0x20)
 16: 0x0BC6 [0x03] Work_Zone[1] = 59*
 17: 0x0BCB [0x01] GOTO 0x0BE5
 18: 0x0BCE [0x02] IF !(Work_Zone[0] == 4*) GOTO 0x0BE5
 19: 0x0BD6 [0x29] REQ_SET_WAIT(priority=0x09, entity_id=LocalPlayer, tag_num=0x20)
 20: 0x0BDD [0x03] Work_Zone[1] = 60*
 21: 0x0BE2 [0x01] GOTO 0x0BE5

SUBROUTINE_0BE5:
 22: 0x0BE5 [0x20] SET_CLI_EVENT_UC_FLAG: Unlock player control
 23: 0x0BE7 [0x21] END_EVENT
 24: 0x0BE8 [0x00] END_REQSTACK()
```

### Event 65535.22

#### Metadata

| Field        | Value    |
|--------------|----------|
| Entrypoint   | 0x0BE9   |
| Data Size    | 58 bytes |
| Instructions | 13       |

```
      00 01 02 03 04 05 06 07  08 09 0A 0B 0C 0D 0E 0F
      -- -- -- -- -- -- -- --  -- -- -- -- -- -- -- --
0BE0:                             24 5D 80 01 80 01 80           $].....
0BF0: 25 02 00 10 01 80 00 08  0C 29 09 F0 FF FF 7F 1A  %........)......
0C00: 03 01 10 5E 80 01 1F 0C  02 00 10 02 80 00 1F 0C  ...^............
0C10: 29 09 F0 FF FF 7F 1A 03  01 10 5F 80 01 1F 0C 20  )........._.... 
0C20: 00 21 00                                          .!.             
```

#### Opcodes

```
  0: 0x0BE9 [0x24] CREATE_DIALOG(message_id=8663*, default_option=0*, option_flags=0*)
    → "SET WHICH FLAGS? [JNE003mi FLAG./JNE003card FLAG.]"
  1: 0x0BF0 [0x25] WAIT_DIALOG_SELECT()
  2: 0x0BF1 [0x02] IF !(Work_Zone[0] == 0*) GOTO 0x0C08
  3: 0x0BF9 [0x29] REQ_SET_WAIT(priority=0x09, entity_id=LocalPlayer, tag_num=0x1A)
  4: 0x0C00 [0x03] Work_Zone[1] = 61*
  5: 0x0C05 [0x01] GOTO 0x0C1F
  6: 0x0C08 [0x02] IF !(Work_Zone[0] == 1*) GOTO 0x0C1F
  7: 0x0C10 [0x29] REQ_SET_WAIT(priority=0x09, entity_id=LocalPlayer, tag_num=0x1A)
  8: 0x0C17 [0x03] Work_Zone[1] = 62*
  9: 0x0C1C [0x01] GOTO 0x0C1F

SUBROUTINE_0C1F:
 10: 0x0C1F [0x20] SET_CLI_EVENT_UC_FLAG: Unlock player control
 11: 0x0C21 [0x21] END_EVENT
 12: 0x0C22 [0x00] END_REQSTACK()
```

### Event 65535.23

#### Metadata

| Field        | Value     |
|--------------|-----------|
| Entrypoint   | 0x0C23    |
| Data Size    | 127 bytes |
| Instructions | 25        |

```
      00 01 02 03 04 05 06 07  08 09 0A 0B 0C 0D 0E 0F
      -- -- -- -- -- -- -- --  -- -- -- -- -- -- -- --
0C20:          24 60 80 01 80  01 80 25 02 00 10 01 80     $`.....%.....
0C30: 00 42 0C 29 09 F0 FF FF  7F 1A 03 01 10 61 80 01  .B.).........a..
0C40: 9E 0C 02 00 10 02 80 00  59 0C 29 09 F0 FF FF 7F  ........Y.).....
0C50: 1B 03 01 10 62 80 01 9E  0C 02 00 10 03 80 00 70  ....b..........p
0C60: 0C 29 09 F0 FF FF 7F 1B  03 01 10 63 80 01 9E 0C  .).........c....
0C70: 02 00 10 04 80 00 87 0C  29 09 F0 FF FF 7F 1B 03  ........).......
0C80: 01 10 64 80 01 9E 0C 02  00 10 05 80 00 9E 0C 29  ..d............)
0C90: 09 F0 FF FF 7F 1B 03 01  10 65 80 01 9E 0C 20 00  .........e.... .
0CA0: 21 00                                             !.              
```

#### Opcodes

```
  0: 0x0C23 [0x24] CREATE_DIALOG(message_id=8664*, default_option=0*, option_flags=0*)
    → "SET WHICH FLAGS? [TE005OK FLAG./TE005start FLAG./HEARD IT FROM Boizo-Naizo./GOT ITEM (in front of Apururu)./QUEST FINISHED.]"
  1: 0x0C2A [0x25] WAIT_DIALOG_SELECT()
  2: 0x0C2B [0x02] IF !(Work_Zone[0] == 0*) GOTO 0x0C42
  3: 0x0C33 [0x29] REQ_SET_WAIT(priority=0x09, entity_id=LocalPlayer, tag_num=0x1A)
  4: 0x0C3A [0x03] Work_Zone[1] = 63*
  5: 0x0C3F [0x01] GOTO 0x0C9E
  6: 0x0C42 [0x02] IF !(Work_Zone[0] == 1*) GOTO 0x0C59
  7: 0x0C4A [0x29] REQ_SET_WAIT(priority=0x09, entity_id=LocalPlayer, tag_num=0x1B)
  8: 0x0C51 [0x03] Work_Zone[1] = 64*
  9: 0x0C56 [0x01] GOTO 0x0C9E
 10: 0x0C59 [0x02] IF !(Work_Zone[0] == 2*) GOTO 0x0C70
 11: 0x0C61 [0x29] REQ_SET_WAIT(priority=0x09, entity_id=LocalPlayer, tag_num=0x1B)
 12: 0x0C68 [0x03] Work_Zone[1] = 65*
 13: 0x0C6D [0x01] GOTO 0x0C9E
 14: 0x0C70 [0x02] IF !(Work_Zone[0] == 3*) GOTO 0x0C87
 15: 0x0C78 [0x29] REQ_SET_WAIT(priority=0x09, entity_id=LocalPlayer, tag_num=0x1B)
 16: 0x0C7F [0x03] Work_Zone[1] = 66*
 17: 0x0C84 [0x01] GOTO 0x0C9E
 18: 0x0C87 [0x02] IF !(Work_Zone[0] == 4*) GOTO 0x0C9E
 19: 0x0C8F [0x29] REQ_SET_WAIT(priority=0x09, entity_id=LocalPlayer, tag_num=0x1B)
 20: 0x0C96 [0x03] Work_Zone[1] = 67*
 21: 0x0C9B [0x01] GOTO 0x0C9E

SUBROUTINE_0C9E:
 22: 0x0C9E [0x20] SET_CLI_EVENT_UC_FLAG: Unlock player control
 23: 0x0CA0 [0x21] END_EVENT
 24: 0x0CA1 [0x00] END_REQSTACK()
```

### Event 65535.24

#### Metadata

| Field        | Value    |
|--------------|----------|
| Entrypoint   | 0x0CA2   |
| Data Size    | 58 bytes |
| Instructions | 13       |

```
      00 01 02 03 04 05 06 07  08 09 0A 0B 0C 0D 0E 0F
      -- -- -- -- -- -- -- --  -- -- -- -- -- -- -- --
0CA0:       24 66 80 01 80 01  80 25 02 00 10 01 80 00    $f.....%......
0CB0: C1 0C 29 09 F0 FF FF 7F  25 03 01 10 67 80 01 D8  ..).....%...g...
0CC0: 0C 02 00 10 02 80 00 D8  0C 29 09 F0 FF FF 7F 25  .........).....%
0CD0: 03 01 10 68 80 01 D8 0C  20 00 21 00              ...h.... .!.    
```

#### Opcodes

```
  0: 0x0CA2 [0x24] CREATE_DIALOG(message_id=8665*, default_option=0*, option_flags=0*)
    → "SET WHICH FLAGS? [ZS002mi FLAG./ZS002end FLAG.]"
  1: 0x0CA9 [0x25] WAIT_DIALOG_SELECT()
  2: 0x0CAA [0x02] IF !(Work_Zone[0] == 0*) GOTO 0x0CC1
  3: 0x0CB2 [0x29] REQ_SET_WAIT(priority=0x09, entity_id=LocalPlayer, tag_num=0x25)
  4: 0x0CB9 [0x03] Work_Zone[1] = 68*
  5: 0x0CBE [0x01] GOTO 0x0CD8
  6: 0x0CC1 [0x02] IF !(Work_Zone[0] == 1*) GOTO 0x0CD8
  7: 0x0CC9 [0x29] REQ_SET_WAIT(priority=0x09, entity_id=LocalPlayer, tag_num=0x25)
  8: 0x0CD0 [0x03] Work_Zone[1] = 69*
  9: 0x0CD5 [0x01] GOTO 0x0CD8

SUBROUTINE_0CD8:
 10: 0x0CD8 [0x20] SET_CLI_EVENT_UC_FLAG: Unlock player control
 11: 0x0CDA [0x21] END_EVENT
 12: 0x0CDB [0x00] END_REQSTACK()
```

### Event 65535.25

#### Metadata

| Field        | Value    |
|--------------|----------|
| Entrypoint   | 0x0CDC   |
| Data Size    | 58 bytes |
| Instructions | 13       |

```
      00 01 02 03 04 05 06 07  08 09 0A 0B 0C 0D 0E 0F
      -- -- -- -- -- -- -- --  -- -- -- -- -- -- -- --
0CD0:                                      24 69 80 01              $i..
0CE0: 80 01 80 25 02 00 10 01  80 00 FB 0C 29 09 F0 FF  ...%........)...
0CF0: FF 7F 1F 03 01 10 6A 80  01 12 0D 02 00 10 02 80  ......j.........
0D00: 00 12 0D 29 09 F0 FF FF  7F 1F 03 01 10 6B 80 01  ...).........k..
0D10: 12 0D 20 00 21 00                                 .. .!.          
```

#### Opcodes

```
  0: 0x0CDC [0x24] CREATE_DIALOG(message_id=8666*, default_option=0*, option_flags=0*)
    → "SET WHICH FLAGS? [ME003mi FLAG./ME003end FLAG.]"
  1: 0x0CE3 [0x25] WAIT_DIALOG_SELECT()
  2: 0x0CE4 [0x02] IF !(Work_Zone[0] == 0*) GOTO 0x0CFB
  3: 0x0CEC [0x29] REQ_SET_WAIT(priority=0x09, entity_id=LocalPlayer, tag_num=0x1F)
  4: 0x0CF3 [0x03] Work_Zone[1] = 70*
  5: 0x0CF8 [0x01] GOTO 0x0D12
  6: 0x0CFB [0x02] IF !(Work_Zone[0] == 1*) GOTO 0x0D12
  7: 0x0D03 [0x29] REQ_SET_WAIT(priority=0x09, entity_id=LocalPlayer, tag_num=0x1F)
  8: 0x0D0A [0x03] Work_Zone[1] = 71*
  9: 0x0D0F [0x01] GOTO 0x0D12

SUBROUTINE_0D12:
 10: 0x0D12 [0x20] SET_CLI_EVENT_UC_FLAG: Unlock player control
 11: 0x0D14 [0x21] END_EVENT
 12: 0x0D15 [0x00] END_REQSTACK()
```

### Event 65535.26

#### Metadata

| Field        | Value     |
|--------------|-----------|
| Entrypoint   | 0x0D16    |
| Data Size    | 150 bytes |
| Instructions | 29        |

```
      00 01 02 03 04 05 06 07  08 09 0A 0B 0C 0D 0E 0F
      -- -- -- -- -- -- -- --  -- -- -- -- -- -- -- --
0D10:                   24 6C  80 01 80 01 80 25 02 00        $l.....%..
0D20: 10 01 80 00 35 0D 29 09  F0 FF FF 7F 25 03 01 10  ....5.).....%...
0D30: 6D 80 01 A8 0D 02 00 10  02 80 00 4C 0D 29 09 F0  m..........L.)..
0D40: FF FF 7F 25 03 01 10 6E  80 01 A8 0D 02 00 10 03  ...%...n........
0D50: 80 00 63 0D 29 09 F0 FF  FF 7F 25 03 01 10 6F 80  ..c.).....%...o.
0D60: 01 A8 0D 02 00 10 04 80  00 7A 0D 29 09 F0 FF FF  .........z.)....
0D70: 7F 25 03 01 10 70 80 01  A8 0D 02 00 10 05 80 00  .%...p..........
0D80: 91 0D 29 09 F0 FF FF 7F  25 03 01 10 71 80 01 A8  ..).....%...q...
0D90: 0D 02 00 10 06 80 00 A8  0D 29 09 F0 FF FF 7F 25  .........).....%
0DA0: 03 01 10 72 80 01 A8 0D  20 00 21 00              ...r.... .!.    
```

#### Opcodes

```
  0: 0x0D16 [0x24] CREATE_DIALOG(message_id=8667*, default_option=0*, option_flags=0*)
    → "$3t$3$3O%'DiE$3U[$3}$3XH [SF001c/SF002$s/=$P12<c/SF002$17%^2B$3Q$3b$3g/SF002c/SF003$s/=$P12<c/SF003$7276873A=]"
  1: 0x0D1D [0x25] WAIT_DIALOG_SELECT()
  2: 0x0D1E [0x02] IF !(Work_Zone[0] == 0*) GOTO 0x0D35
  3: 0x0D26 [0x29] REQ_SET_WAIT(priority=0x09, entity_id=LocalPlayer, tag_num=0x25)
  4: 0x0D2D [0x03] Work_Zone[1] = 72*
  5: 0x0D32 [0x01] GOTO 0x0DA8
  6: 0x0D35 [0x02] IF !(Work_Zone[0] == 1*) GOTO 0x0D4C
  7: 0x0D3D [0x29] REQ_SET_WAIT(priority=0x09, entity_id=LocalPlayer, tag_num=0x25)
  8: 0x0D44 [0x03] Work_Zone[1] = 73*
  9: 0x0D49 [0x01] GOTO 0x0DA8
 10: 0x0D4C [0x02] IF !(Work_Zone[0] == 2*) GOTO 0x0D63
 11: 0x0D54 [0x29] REQ_SET_WAIT(priority=0x09, entity_id=LocalPlayer, tag_num=0x25)
 12: 0x0D5B [0x03] Work_Zone[1] = 74*
 13: 0x0D60 [0x01] GOTO 0x0DA8
 14: 0x0D63 [0x02] IF !(Work_Zone[0] == 3*) GOTO 0x0D7A
 15: 0x0D6B [0x29] REQ_SET_WAIT(priority=0x09, entity_id=LocalPlayer, tag_num=0x25)
 16: 0x0D72 [0x03] Work_Zone[1] = 75*
 17: 0x0D77 [0x01] GOTO 0x0DA8
 18: 0x0D7A [0x02] IF !(Work_Zone[0] == 4*) GOTO 0x0D91
 19: 0x0D82 [0x29] REQ_SET_WAIT(priority=0x09, entity_id=LocalPlayer, tag_num=0x25)
 20: 0x0D89 [0x03] Work_Zone[1] = 76*
 21: 0x0D8E [0x01] GOTO 0x0DA8
 22: 0x0D91 [0x02] IF !(Work_Zone[0] == 5*) GOTO 0x0DA8
 23: 0x0D99 [0x29] REQ_SET_WAIT(priority=0x09, entity_id=LocalPlayer, tag_num=0x25)
 24: 0x0DA0 [0x03] Work_Zone[1] = 77*
 25: 0x0DA5 [0x01] GOTO 0x0DA8

SUBROUTINE_0DA8:
 26: 0x0DA8 [0x20] SET_CLI_EVENT_UC_FLAG: Unlock player control
 27: 0x0DAA [0x21] END_EVENT
 28: 0x0DAB [0x00] END_REQSTACK()
```

### Event 65535.27

#### Metadata

| Field        | Value    |
|--------------|----------|
| Entrypoint   | 0x0DAC   |
| Data Size    | 81 bytes |
| Instructions | 17       |

```
      00 01 02 03 04 05 06 07  08 09 0A 0B 0C 0D 0E 0F
      -- -- -- -- -- -- -- --  -- -- -- -- -- -- -- --
0DA0:                                      24 73 80 01              $s..
0DB0: 80 01 80 25 02 00 10 01  80 00 CB 0D 29 09 F0 FF  ...%........)...
0DC0: FF 7F 24 03 01 10 74 80  01 F9 0D 02 00 10 02 80  ..$...t.........
0DD0: 00 E2 0D 29 09 F0 FF FF  7F 24 03 01 10 75 80 01  ...).....$...u..
0DE0: F9 0D 02 00 10 03 80 00  F9 0D 29 09 F0 FF FF 7F  ..........).....
0DF0: 24 03 01 10 76 80 01 F9  0D 20 00 21 00           $...v.... .!.   
```

#### Opcodes

```
  0: 0x0DAC [0x24] CREATE_DIALOG(message_id=8668*, default_option=0*, option_flags=0*)
    → "$3t$3$3O%'DiE$3U[$3}$3XH [KJB011$P11O/KJB011c/KJB011%oA=]"
  1: 0x0DB3 [0x25] WAIT_DIALOG_SELECT()
  2: 0x0DB4 [0x02] IF !(Work_Zone[0] == 0*) GOTO 0x0DCB
  3: 0x0DBC [0x29] REQ_SET_WAIT(priority=0x09, entity_id=LocalPlayer, tag_num=0x24)
  4: 0x0DC3 [0x03] Work_Zone[1] = 78*
  5: 0x0DC8 [0x01] GOTO 0x0DF9
  6: 0x0DCB [0x02] IF !(Work_Zone[0] == 1*) GOTO 0x0DE2
  7: 0x0DD3 [0x29] REQ_SET_WAIT(priority=0x09, entity_id=LocalPlayer, tag_num=0x24)
  8: 0x0DDA [0x03] Work_Zone[1] = 79*
  9: 0x0DDF [0x01] GOTO 0x0DF9
 10: 0x0DE2 [0x02] IF !(Work_Zone[0] == 2*) GOTO 0x0DF9
 11: 0x0DEA [0x29] REQ_SET_WAIT(priority=0x09, entity_id=LocalPlayer, tag_num=0x24)
 12: 0x0DF1 [0x03] Work_Zone[1] = 80*
 13: 0x0DF6 [0x01] GOTO 0x0DF9

SUBROUTINE_0DF9:
 14: 0x0DF9 [0x20] SET_CLI_EVENT_UC_FLAG: Unlock player control
 15: 0x0DFB [0x21] END_EVENT
 16: 0x0DFC [0x00] END_REQSTACK()
```

### Event 65535.28

#### Metadata

| Field        | Value    |
|--------------|----------|
| Entrypoint   | 0x0DFD   |
| Data Size    | 60 bytes |
| Instructions | 14       |

```
      00 01 02 03 04 05 06 07  08 09 0A 0B 0C 0D 0E 0F
      -- -- -- -- -- -- -- --  -- -- -- -- -- -- -- --
0DF0:                                         24 77 80               $w.
0E00: 01 80 01 80 25 02 00 10  01 80 00 15 0E 03 01 10  ....%...........
0E10: 78 80 01 35 0E 02 00 10  02 80 00 25 0E 03 01 10  x..5.......%....
0E20: 79 80 01 35 0E 02 00 10  03 80 00 35 0E 03 01 10  y..5.......5....
0E30: 7A 80 01 35 0E 20 00 21  00                       z..5. .!.       
```

#### Opcodes

```
  0: 0x0DFD [0x24] CREATE_DIALOG(message_id=6713*, default_option=0*, option_flags=0*)
    → "$P122$8n [@$n$P16{n/$3~$3b$3V$3/$3$12n/$3][$3$3t$3$3On]"
  1: 0x0E04 [0x25] WAIT_DIALOG_SELECT()
  2: 0x0E05 [0x02] IF !(Work_Zone[0] == 0*) GOTO 0x0E15
  3: 0x0E0D [0x03] Work_Zone[1] = 96*
  4: 0x0E12 [0x01] GOTO 0x0E35
  5: 0x0E15 [0x02] IF !(Work_Zone[0] == 1*) GOTO 0x0E25
  6: 0x0E1D [0x03] Work_Zone[1] = 97*
  7: 0x0E22 [0x01] GOTO 0x0E35
  8: 0x0E25 [0x02] IF !(Work_Zone[0] == 2*) GOTO 0x0E35
  9: 0x0E2D [0x03] Work_Zone[1] = 98*
 10: 0x0E32 [0x01] GOTO 0x0E35

SUBROUTINE_0E35:
 11: 0x0E35 [0x20] SET_CLI_EVENT_UC_FLAG: Unlock player control
 12: 0x0E37 [0x21] END_EVENT
 13: 0x0E38 [0x00] END_REQSTACK()
```

### Event 21

#### Metadata

| Field        | Value   |
|--------------|---------|
| Entrypoint   | 0x0E39  |
| Data Size    | 8 bytes |
| Instructions | 5       |

```
      00 01 02 03 04 05 06 07  08 09 0A 0B 0C 0D 0E 0F
      -- -- -- -- -- -- -- --  -- -- -- -- -- -- -- --
0E30:                             1D 7B 80 23 20 00 21           .{.# .!
0E40: 00                                                .               
```

#### Opcodes

```
  0: 0x0E39 [0x1D] PRINT_EVENT_MESSAGE(message_id=6714*)
    → "U_START_WS_QSM$0@U_END_WS_QSM$1 U_SPECIAL_FLAGM$2@U_SPECIAL_FLAG2M$3 U_SPECIAL_BIT(2)M$4$330317 U_RANK_LEVEL_WSM$6@U_FAME_WS_COMMONM$7"
  1: 0x0E3C [0x23] WAIT_FOR_DIALOG_INTERACTION
  2: 0x0E3D [0x20] SET_CLI_EVENT_UC_FLAG: Unlock player control
  3: 0x0E3F [0x21] END_EVENT
  4: 0x0E40 [0x00] END_REQSTACK()
```

### Event 22

#### Metadata

| Field        | Value   |
|--------------|---------|
| Entrypoint   | 0x0E41  |
| Data Size    | 8 bytes |
| Instructions | 5       |

```
      00 01 02 03 04 05 06 07  08 09 0A 0B 0C 0D 0E 0F
      -- -- -- -- -- -- -- --  -- -- -- -- -- -- -- --
0E40:    1D 7C 80 23 20 00 21  00                        .|.# .!.       
```

#### Opcodes

```
  0: 0x0E41 [0x1D] PRINT_EVENT_MESSAGE(message_id=6715*)
    → "U_MS_STARTM$0@U_END_WS_MSM$1 U_RANK_POINT_WSM$2@U_MS_COUNTERM$3 U_WS_FLAGSM$4@U_SPECIAL_FLAGM$5 U_RANK_LEVEL_WSM$6@U_FAME_WS_COMMONM$7"
  1: 0x0E44 [0x23] WAIT_FOR_DIALOG_INTERACTION
  2: 0x0E45 [0x20] SET_CLI_EVENT_UC_FLAG: Unlock player control
  3: 0x0E47 [0x21] END_EVENT
  4: 0x0E48 [0x00] END_REQSTACK()
```

### Event 23

#### Metadata

| Field        | Value   |
|--------------|---------|
| Entrypoint   | 0x0E49  |
| Data Size    | 8 bytes |
| Instructions | 5       |

```
      00 01 02 03 04 05 06 07  08 09 0A 0B 0C 0D 0E 0F
      -- -- -- -- -- -- -- --  -- -- -- -- -- -- -- --
0E40:                             1D 7D 80 23 20 00 21           .}.# .!
0E50: 00                                                .               
```

#### Opcodes

```
  0: 0x0E49 [0x1D] PRINT_EVENT_MESSAGE(message_id=6716*)
    → "Z_ipc_id01M$0@Z_ipc_id02M$1 Z_ipc_id03M$2@Z_ipc_id04M$3 Z_ipc_id05M$4@Z_ipc_id06M$5 Z_ipc_id07M$6@Z_ANG_time01M$7"
  1: 0x0E4C [0x23] WAIT_FOR_DIALOG_INTERACTION
  2: 0x0E4D [0x20] SET_CLI_EVENT_UC_FLAG: Unlock player control
  3: 0x0E4F [0x21] END_EVENT
  4: 0x0E50 [0x00] END_REQSTACK()
```

### Event 65535.29

#### Metadata

| Field        | Value    |
|--------------|----------|
| Entrypoint   | 0x0E51   |
| Data Size    | 13 bytes |
| Instructions | 6        |

```
      00 01 02 03 04 05 06 07  08 09 0A 0B 0C 0D 0E 0F
      -- -- -- -- -- -- -- --  -- -- -- -- -- -- -- --
0E50:    1D 7E 80 23 03 01 10  33 80 20 00 21 00         .~.#...3. .!.  
```

#### Opcodes

```
  0: 0x0E51 [0x1D] PRINT_EVENT_MESSAGE(message_id=6693*)
    → "Counting $0 people!"
  1: 0x0E54 [0x23] WAIT_FOR_DIALOG_INTERACTION
  2: 0x0E55 [0x03] Work_Zone[1] = 26*
  3: 0x0E5A [0x20] SET_CLI_EVENT_UC_FLAG: Unlock player control
  4: 0x0E5C [0x21] END_EVENT
  5: 0x0E5D [0x00] END_REQSTACK()
```

### Event 24

#### Metadata

| Field        | Value   |
|--------------|---------|
| Entrypoint   | 0x0E5E  |
| Data Size    | 8 bytes |
| Instructions | 5       |

```
      00 01 02 03 04 05 06 07  08 09 0A 0B 0C 0D 0E 0F
      -- -- -- -- -- -- -- --  -- -- -- -- -- -- -- --
0E50:                                            1D 7F                ..
0E60: 80 23 20 00 21 00                                 .# .!.          
```

#### Opcodes

```
  0: 0x0E5E [0x1D] PRINT_EVENT_MESSAGE(message_id=6694*)
    → "Your rank is now $7!!"
  1: 0x0E61 [0x23] WAIT_FOR_DIALOG_INTERACTION
  2: 0x0E62 [0x20] SET_CLI_EVENT_UC_FLAG: Unlock player control
  3: 0x0E64 [0x21] END_EVENT
  4: 0x0E65 [0x00] END_REQSTACK()
```
