# 17764595 - Toppi-Meppi

## Common Data

| Field            | Value                    |
|------------------|--------------------------|
| Zone             | Windurst Woods (ID: 241) |
| Block Size       | 8044 bytes               |
| Total Events     | 3                        |
| References Count | 148                      |

## List of Events

| Event ID              | Entrypoint   |   Size |   Instructions |
|-----------------------|--------------|--------|----------------|
| [65535](#event-65535) | 0x0000       |      1 |              1 |
| [789](#event-789)     | 0x0001       |    144 |             36 |
| [790](#event-790)     | 0x0091       |   7277 |           1460 |

## DAT References (imed_data)

|   Index | Hex Value   |   Dec Value |
|---------|-------------|-------------|
|       0 | 0x0000      |           0 |
|       1 | 0x0001      |           1 |
|       2 | 0x2F57      |       12119 |
|       3 | 0x2F58      |       12120 |
|       4 | 0x2F5B      |       12123 |
|       5 | 0x2F60      |       12128 |
|       6 | 0x0002      |           2 |
|       7 | 0x0003      |           3 |
|       8 | 0x0004      |           4 |
|       9 | 0x2F82      |       12162 |
|      10 | 0x0007      |           7 |
|      11 | 0x0005      |           5 |
|      12 | 0x0008      |           8 |
|      13 | 0x000F      |          15 |
|      14 | 0x0006      |           6 |
|      15 | 0x0009      |           9 |
|      16 | 0x000A      |          10 |
|      17 | 0x005C      |          92 |
|      18 | 0x000B      |          11 |
|      19 | 0x005A      |          90 |
|      20 | 0x000C      |          12 |
|      21 | 0x0056      |          86 |
|      22 | 0x000D      |          13 |
|      23 | 0x004E      |          78 |
|      24 | 0x000E      |          14 |
|      25 | 0x2F98      |       12184 |
|      26 | 0x2F9A      |       12186 |
|      27 | 0x2F99      |       12185 |
|      28 | 0x0010      |          16 |
|      29 | 0x0017      |          23 |
|      30 | 0x2F59      |       12121 |
|      31 | 0x2F7A      |       12154 |
|      32 | 0x2F96      |       12182 |
|      33 | 0x0200      |         512 |
|      34 | 0x0300      |         768 |
|      35 | 0x2F5D      |       12125 |
|      36 | 0x2F61      |       12129 |
|      37 | 0x00C0      |         192 |
|      38 | 0x2F62      |       12130 |
|      39 | 0x2F63      |       12131 |
|      40 | 0x2F64      |       12132 |
|      41 | 0x0080      |         128 |
|      42 | 0x2F65      |       12133 |
|      43 | 0x00FC      |         252 |
|      44 | 0x2F66      |       12134 |
|      45 | 0x2F67      |       12135 |
|      46 | 0x00E0      |         224 |
|      47 | 0x2F68      |       12136 |
|      48 | 0x00FE      |         254 |
|      49 | 0x2F69      |       12137 |
|      50 | 0x00F0      |         240 |
|      51 | 0x2F6A      |       12138 |
|      52 | 0x2F6B      |       12139 |
|      53 | 0x2F6C      |       12140 |
|      54 | 0x2F73      |       12147 |
|      55 | 0x2F74      |       12148 |
|      56 | 0x15E5      |        5605 |
|      57 | 0x15E6      |        5606 |
|      58 | 0x0899      |        2201 |
|      59 | 0x089A      |        2202 |
|      60 | 0x15E7      |        5607 |
|      61 | 0x15E8      |        5608 |
|      62 | 0x08A2      |        2210 |
|      63 | 0x08A0      |        2208 |
|      64 | 0x08A3      |        2211 |
|      65 | 0x08A1      |        2209 |
|      66 | 0x089B      |        2203 |
|      67 | 0x089C      |        2204 |
|      68 | 0x089D      |        2205 |
|      69 | 0x0A55      |        2645 |
|      70 | 0x001E      |          30 |
|      71 | 0x089E      |        2206 |
|      72 | 0x089F      |        2207 |
|      73 | 0x0028      |          40 |
|      74 | 0x0929      |        2345 |
|      75 | 0x092A      |        2346 |
|      76 | 0x0032      |          50 |
|      77 | 0x094B      |        2379 |
|      78 | 0x094F      |        2383 |
|      79 | 0x094D      |        2381 |
|      80 | 0x094C      |        2380 |
|      81 | 0x094E      |        2382 |
|      82 | 0x004B      |          75 |
|      83 | 0x0967      |        2407 |
|      84 | 0x0050      |          80 |
|      85 | 0x0963      |        2403 |
|      86 | 0x0964      |        2404 |
|      87 | 0x0965      |        2405 |
|      88 | 0x0966      |        2406 |
|      89 | 0x09B2      |        2482 |
|      90 | 0x09B3      |        2483 |
|      91 | 0x09B4      |        2484 |
|      92 | 0x09B5      |        2485 |
|      93 | 0x0064      |         100 |
|      94 | 0x2C39      |       11321 |
|      95 | 0x2C3A      |       11322 |
|      96 | 0x2C3B      |       11323 |
|      97 | 0x2C3C      |       11324 |
|      98 | 0x2C3D      |       11325 |
|      99 | 0x2C3E      |       11326 |
|     100 | 0x2C3F      |       11327 |
|     101 | 0x2C40      |       11328 |
|     102 | 0x0096      |         150 |
|     103 | 0x190B      |        6411 |
|     104 | 0x01F4      |         500 |
|     105 | 0x001F      |          31 |
|     106 | 0x2F9D      |       12189 |
|     107 | 0x2F97      |       12183 |
|     108 | 0x2F9E      |       12190 |
|     109 | 0x2F78      |       12152 |
|     110 | 0x2F9F      |       12191 |
|     111 | 0x2F5E      |       12126 |
|     112 | 0x2F6D      |       12141 |
|     113 | 0x2F6E      |       12142 |
|     114 | 0x2F6F      |       12143 |
|     115 | 0x2F70      |       12144 |
|     116 | 0x2F71      |       12145 |
|     117 | 0x2F85      |       12165 |
|     118 | 0x0021      |          33 |
|     119 | 0x2F8A      |       12170 |
|     120 | 0x2F72      |       12146 |
|     121 | 0x2F87      |       12167 |
|     122 | 0x2F88      |       12168 |
|     123 | 0x2F89      |       12169 |
|     124 | 0x0018      |          24 |
|     125 | 0x00C8      |         200 |
|     126 | 0x2F8C      |       12172 |
|     127 | 0x2F8D      |       12173 |
|     128 | 0x2F75      |       12149 |
|     129 | 0x2FA0      |       12192 |
|     130 | 0x2F81      |       12161 |
|     131 | 0x2F8E      |       12174 |
|     132 | 0x2F8F      |       12175 |
|     133 | 0x2F90      |       12176 |
|     134 | 0x2F91      |       12177 |
|     135 | 0x2F7C      |       12156 |
|     136 | 0x2F80      |       12160 |
|     137 | 0x2F7E      |       12158 |
|     138 | 0x2F7D      |       12157 |
|     139 | 0x2F7F      |       12159 |
|     140 | 0x2FA1      |       12193 |
|     141 | 0x2F86      |       12166 |
|     142 | 0x2F92      |       12178 |
|     143 | 0x2F93      |       12179 |
|     144 | 0x0011      |          17 |
|     145 | 0x2F94      |       12180 |
|     146 | 0x0019      |          25 |
|     147 | 0x2F95      |       12181 |

## String References

- **12119**: Good day, [sir/ma'am], and welcome to the Windurstian branch of the VCS Chocobuck Exchange Depot.
- **12120**: Here you can use chocobucks to purchase items or enroll your chocobo in our top-secret intensive training program to improve its attributes.
- **12121**: Oh wait... I'm sorry, but we only offer our services to members of this nation's CRA branch. If you wish to browse our wares, you must first sign up with the local CRA official.
- **12123**: Oh wait... I'm sorry, but we only offer our services to members of this nation's CRA branch. If you wish to browse our wares, you must first sign up with the local CRA official.
- **12125**: Browse which items? ($1 chocobuck[/s]) [1-chocobuck."-chocobuck./10-chocobuck."0-chocobuck./40-chocobuck./50-chocobuck./75-chocobuck./80-chocobuck./90-chocobuck./100-chocobuck./150-chocobuck./500-chocobuck./Quit./Back.]
- **12126**: Which items? ($1 chocobuck[/s]) [50-chocobuck./Intensive training. (75 chocobucks)/Special training. (80 chocobucks)/View current chocobo./Quit./Back.]
- **12128**: What would you like to do? [Purchase items./Raise attributes./Dye feathers./Nothing.]
- **12129**: For 1 chocobuck, you can purchase items that are useful during chocobo training. Additionally, we will give you a freebie for every 5 simultaneous exchanges you make.
- **12130**: For 3 chocobucks, you can purchase items that are useful during chocobo training. Additionally, we will give you a freebie for every 5 simultaneous exchanges you make.
- **12131**: For 10 chocobucks, you can purchase one dozen of an item that is useful during chocobo training.
- **12132**: For 30 chocobucks, you can purchase one dozen of an item that is useful during chocobo training.
- **12133**: For 40 chocobucks, you can purchase items that are useful during chocobo training.
- **12134**: For 50 chocobucks, you can purchase items that are useful during chocobo training.
- **12135**: For 75 chocobucks, you can purchase a special type of feather dye that will change the color of your chocobo. Your chocobo will sport its stylish new color until you alter its registration.
- **12136**: For 80 chocobucks, you can purchase items that slightly improve one of your chocobo's attributes.
- **12137**: For 90 chocobucks, you can purchase items that will improve one of your chocobo's attributes.
- **12138**: For 100 chocobucks, you can purchase items that will slightly improve one of your retired chocobo's attributes.
- **12139**: For 150 chocobucks, you can purchase VCS-approved racing silks.
- **12140**: For 500 chocobucks, you can purchase an authentic, limited-edition VCS-issued chair for all your posterial needs.
- **12141**: For 50 chocobucks, you can purchase a special type of feather dye that will change the color of your chocobo.
- **12142**: Select a color. (Currently [yellow/black/blue/red/green]) [Yellow./Black./Blue./Red./Green./Quit./Back.]
- **12143**: I'm sorry, but it says here that you do not have a chocobo you can call to the field.
- **12144**: You can enroll your chocobo in our intensive training program, slightly improving one of its current attributes (randomly).
- **12145**: You can enroll your chocobo in our special training program, improving an ability of your choice.
- **12146**: I'm sorry. The programs are only available to adult chocobos still residing in the stables.
- **12148**: Purchase which items? [$0./$1./$2./$3./$4./$5./$6./$7./Quit./Return.]
- **12149**: You lack sufficient funds. [Select another price group./Quit.]
- **12152**: Complete transaction? ($0 chocobuck[/s]) [Immediately./Choose another item./Quit.]
- **12154**: I'm sorry, <Player>. It says here that you do not have a chocobo which you can call to the field.
- **12156**: What do you require? [Information on my chocobo./Yellow feather dyeing./Nothing.]
- **12157**: What do you require? [Information on my chocobo./Red feather dyeing./Nothing.]
- **12158**: What do you require? [Information on my chocobo./Blue feather dyeing./Nothing.]
- **12159**: What do you require? [Information on my chocobo./Green feather dyeing./Nothing.]
- **12160**: What do you require? [Information on my chocobo./Black feather dyeing./Nothing.]
- **12161**: One of my hands will apply the dye immediately. Your chocobo will sport its stylish new color until you alter its registration.
- **12162**: I'm sorry, <Player>. It says here that your chocobo is already that color.
- **12165**: What do you require? [Information on my current chocobo./A strength upgrade./An endurance upgrade./A discernment upgrade./A receptivity upgrade./Nothing./Return.]
- **12166**: What do you require? [Information on my retired chocobo./[A strength/An endurance/A discernment/A receptivity/] upgrade./Nothing.]
- **12167**: I'm sorry, but any attempts to further raise that attribute may result in serious injury to your chocobo.
- **12168**: I'm required to inform you that raising the specified attribute will adversely affect others.
- **12169**: Do you still wish to proceed? [Yes./Choose another attribute./Quit.]
- **12170**: Are you sure? [Yes. Hurry up already!/Just forget it./Wait! I need more time...]
- **12172**: Your [current/retired] chocobo's [strength/endurance/discernment/receptivity/] has improved.
- **12173**: Color: [Yellow/Black/Blue/Red/Green]
- **12174**: Strength: [Poor/Substandard/A bit deficient/Average/Better than average/Impressive/Outstanding/First-class]
- **12175**: Endurance: [Poor/Substandard/A bit deficient/Average/Better than average/Impressive/Outstanding/First-class]
- **12176**: Discernment: [Poor/Substandard/A bit deficient/Average/Better than average/Impressive/Outstanding/First-class]
- **12177**: Receptivity: [Poor/Substandard/A bit deficient/Average/Better than average/Impressive/Outstanding/First-class]
- **12178**: Strength: [Poor/Substandard/A bit deficient/Average/Better than average/Impressive/Outstanding/First-class]
- **12179**: Endurance: [Poor/Substandard/A bit deficient/Average/Better than average/Impressive/Outstanding/First-class]
- **12180**: Discernment: [Poor/Substandard/A bit deficient/Average/Better than average/Impressive/Outstanding/First-class]
- **12181**: Receptivity: [Poor/Substandard/A bit deficient/Average/Better than average/Impressive/Outstanding/First-class]
- **12182**: Your chocobo seems to have run away from the stables. I'm sorry, but we are unable to train it at this time.
- **12183**: I'm sorry, but you don't have enough chocobucks to complete the transaction.
- **12184**: Exchange this item for chocobucks? [Yes, please./No, thanks.]
- **12185**: You may only hold up to 1000 chocobucks at any given time. Excess chocobucks over this amount will be discarded. Are you sure you wish to proceed with the transaction?
- **12186**: You cannot carry more than 1000 chocobucks.
- **12189**: How many? (Max.: $4)
- **12190**: You need $2 chocobuck[/s] to purchase the $0 .
- **12191**: Because you have made a total of $1 exchange[/s], I am authorized to give you $2 more as [a freebie/freebies].
- **12192**: Is [yellow/black/blue/red/green] okay? ($1 chocobuck[/s]) [Yes. (50 chocobucks)/No.]
- **12193**: Is [yellow/black/blue/red/green] okay? (Current: [yellow/black/blue/red/green]) [Yes./No.]

## Events

### Event 65535

#### Metadata

| Field        | Value   |
|--------------|---------|
| Entrypoint   | 0x0000  |
| Data Size    | 1 bytes |
| Instructions | 1       |

```
      00 01 02 03 04 05 06 07  08 09 0A 0B 0C 0D 0E 0F
      -- -- -- -- -- -- -- --  -- -- -- -- -- -- -- --
0000: 00                                                .               
```

#### Opcodes

```
  0: 0x0000 [0x00] END_REQSTACK()
```

### Event 789

#### Metadata

| Field        | Value     |
|--------------|-----------|
| Entrypoint   | 0x0001    |
| Data Size    | 144 bytes |
| Instructions | 35        |

```
      00 01 02 03 04 05 06 07  08 09 0A 0B 0C 0D 0E 0F
      -- -- -- -- -- -- -- --  -- -- -- -- -- -- -- --
0000:    42 1E F0 FF FF 7F 03  07 00 03 10 03 29 00 00   B...........)..
0010: 80 03 2B 00 00 80 02 04  10 00 80 01 26 00 03 22  ..+.........&.."
0020: 00 01 80 01 2B 00 03 22  00 00 80 03 39 00 05 10  ....+.."....9...
0030: 03 21 00 06 10 03 20 00  07 10 1D 02 80 23 02 02  .!.... ......#..
0040: 10 01 80 00 4D 00 1D 03  80 23 01 52 00 1D 04 80  ....M....#.R....
0050: 23 21 24 05 80 00 80 00  80 25 02 00 10 00 80 00  #!$......%......
0060: 68 00 1A B6 03 01 90 00  02 00 10 01 80 00 76 00  h.............v.
0070: 1A F3 0C 01 90 00 02 00  10 06 80 00 84 00 1A CC  ................
0080: 12 01 90 00 02 00 10 07  80 00 90 00 21 01 90 00  ............!...
0090: 00                                                .               
```

#### Opcodes

```
  0: 0x0001 [0x42] SET_CLI_EVENT_CANCEL_DATA()
  1: 0x0002 [0x1E] EventEntity looks at LocalPlayer and starts talking
  2: 0x0007 [0x03] ExtData[1]->WorkLocal[7] = Work_Zone[3]
  3: 0x000C [0x03] ExtData[1]->WorkLocal[41] = 0*
  4: 0x0011 [0x03] ExtData[1]->WorkLocal[43] = 0*
  5: 0x0016 [0x02] IF !(Work_Zone[4] == 0*) GOTO 0x0026
  6: 0x001E [0x03] ExtData[1]->WorkLocal[34] = 1*
  7: 0x0023 [0x01] GOTO 0x002B
  8: 0x0026 [0x03] ExtData[1]->WorkLocal[34] = 0*

SUBROUTINE_002B:
  9: 0x002B [0x03] ExtData[1]->WorkLocal[57] = Work_Zone[5]
 10: 0x0030 [0x03] ExtData[1]->WorkLocal[33] = Work_Zone[6]
 11: 0x0035 [0x03] ExtData[1]->WorkLocal[32] = Work_Zone[7]
 12: 0x003A [0x1D] PRINT_EVENT_MESSAGE(message_id=12119*)
    → "Good day, [sir/ma'am], and welcome to the Windurstian branch of the VCS Chocobuck Exchange Depot."
 13: 0x003D [0x23] WAIT_FOR_DIALOG_INTERACTION
 14: 0x003E [0x02] IF !(Work_Zone[2] == 1*) GOTO 0x004D
 15: 0x0046 [0x1D] PRINT_EVENT_MESSAGE(message_id=12120*)
    → "Here you can use chocobucks to purchase items or enroll your chocobo in our top-secret intensive training program to improve its attributes."
 16: 0x0049 [0x23] WAIT_FOR_DIALOG_INTERACTION
 17: 0x004A [0x01] GOTO 0x0052
 18: 0x004D [0x1D] PRINT_EVENT_MESSAGE(message_id=12123*)
    → "Oh wait... I'm sorry, but we only offer our services to members of this nation's CRA branch. If you wish to browse our wares, you must first sign up with the local CRA official."
 19: 0x0050 [0x23] WAIT_FOR_DIALOG_INTERACTION
 20: 0x0051 [0x21] END_EVENT

SUBROUTINE_0052:
 21: 0x0052 [0x24] CREATE_DIALOG(message_id=12128*, default_option=0*, option_flags=0*)
    → "What would you like to do? [Purchase items./Raise attributes./Dye feathers./Nothing.]"
 22: 0x0059 [0x25] WAIT_DIALOG_SELECT()
 23: 0x005A [0x02] IF !(Work_Zone[0] == 0*) GOTO 0x0068
 24: 0x0062 [0x1A] CALL_SUBROUTINE(address=0x03B6)
 25: 0x0065 [0x01] GOTO 0x0090
 26: 0x0068 [0x02] IF !(Work_Zone[0] == 1*) GOTO 0x0076
 27: 0x0070 [0x1A] CALL_SUBROUTINE(address=0x0CF3)
 28: 0x0073 [0x01] GOTO 0x0090
 29: 0x0076 [0x02] IF !(Work_Zone[0] == 2*) GOTO 0x0084
 30: 0x007E [0x1A] CALL_SUBROUTINE(address=0x12CC)
 31: 0x0081 [0x01] GOTO 0x0090
 32: 0x0084 [0x02] IF !(Work_Zone[0] == 3*) GOTO 0x0090
 33: 0x008C [0x21] END_EVENT

SUBROUTINE_0090:
 34: 0x0090 [0x00] END_REQSTACK()
```

#### Data or dead code:

```
# Dead code (unreachable instructions):
     0x008D [0x01] GOTO 0x0090
```

### Event 790

#### Metadata

| Field        | Value      |
|--------------|------------|
| Entrypoint   | 0x0091     |
| Data Size    | 7277 bytes |
| Instructions | 444        |

```
      00 01 02 03 04 05 06 07  08 09 0A 0B 0C 0D 0E 0F
      -- -- -- -- -- -- -- --  -- -- -- -- -- -- -- --
0090:    42 1E F0 FF FF 7F 06  26 00 06 27 00 06 28 00   B......&..'..(.
00A0: 03 27 00 02 10 03 26 00  03 10 03 28 00 05 10 03  .'....&....(....
00B0: 02 00 00 80 03 2A 00 00  80 03 29 00 01 80 03 2B  .....*....)....+
00C0: 00 00 80 03 2F 00 01 80  03 21 00 06 10 03 20 00  ..../....!.... .
00D0: 07 10 02 27 00 00 80 80  6A 03 02 26 00 00 80 80  ...'....j..&....
00E0: F2 00 03 02 10 00 80 03  2D 00 00 80 1A 7A 1A 01  ........-....z..
00F0: 67 03 02 26 00 01 80 80  0A 01 03 02 10 01 80 03  g..&............
0100: 2D 00 01 80 1A 7A 1A 01  67 03 02 26 00 06 80 80  -....z..g..&....
0110: 22 01 03 02 10 06 80 03  2D 00 06 80 1A 7A 1A 01  ".......-....z..
0120: 67 03 02 26 00 07 80 80  3A 01 03 02 10 07 80 03  g..&....:.......
0130: 2D 00 07 80 1A 7A 1A 01  67 03 02 26 00 08 80 80  -....z..g..&....
0140: 6F 01 02 28 00 00 80 00  64 01 1D 09 80 23 40 00  o..(....d....#@.
0150: 80 0A 80 01 10 0B 80 40  0C 80 0D 80 01 10 26 00  .......@......&.
0160: 21 01 6C 01 03 02 10 00  80 1A 91 16 01 67 03 02  !.l..........g..
0170: 26 00 0B 80 80 A4 01 02  28 00 01 80 00 99 01 1D  &.......(.......
0180: 09 80 23 40 00 80 0A 80  01 10 0B 80 40 0C 80 0D  ..#@........@...
0190: 80 01 10 26 00 21 01 A1  01 03 02 10 01 80 1A 91  ...&.!..........
01A0: 16 01 67 03 02 26 00 0E  80 80 D9 01 02 28 00 06  ..g..&.......(..
01B0: 80 00 CE 01 1D 09 80 23  40 00 80 0A 80 01 10 0B  .......#@.......
01C0: 80 40 0C 80 0D 80 01 10  26 00 21 01 D6 01 03 02  .@......&.!.....
01D0: 10 06 80 1A 91 16 01 67  03 02 26 00 0A 80 80 0E  .......g..&.....
01E0: 02 02 28 00 07 80 00 03  02 1D 09 80 23 40 00 80  ..(.........#@..
01F0: 0A 80 01 10 0B 80 40 0C  80 0D 80 01 10 26 00 21  ......@......&.!
0200: 01 0B 02 03 02 10 07 80  1A 91 16 01 67 03 02 26  ............g..&
0210: 00 0C 80 80 43 02 02 28  00 08 80 00 38 02 1D 09  ....C..(....8...
0220: 80 23 40 00 80 0A 80 01  10 0B 80 40 0C 80 0D 80  .#@........@....
0230: 01 10 26 00 21 01 40 02  03 02 10 08 80 1A 91 16  ..&.!.@.........
0240: 01 67 03 02 26 00 0F 80  80 56 02 03 2B 00 01 80  .g..&....V..+...
0250: 1A F7 16 01 67 03 02 26  00 10 80 80 69 02 03 2A  ....g..&....i..*
0260: 00 11 80 1A 17 18 01 67  03 02 26 00 12 80 80 7C  .......g..&....|
0270: 02 03 2A 00 13 80 1A 17  18 01 67 03 02 26 00 14  ..*.......g..&..
0280: 80 80 8F 02 03 2A 00 15  80 1A 17 18 01 67 03 02  .....*.......g..
0290: 26 00 16 80 80 A2 02 03  2A 00 17 80 1A 17 18 01  &.......*.......
02A0: 67 03 02 26 00 18 80 80  67 03 03 2C 00 04 10 24  g..&....g..,...$
02B0: 19 80 00 80 00 80 25 02  00 10 00 80 00 38 03 40  ......%......8.@
02C0: 00 80 0A 80 01 10 0A 80  40 0C 80 0D 80 01 10 2C  ........@......,
02D0: 00 43 00 43 01 03 30 00  02 10 02 30 00 00 80 80  .C.C..0....0....
02E0: EE 02 1D 1A 80 23 03 31  00 01 80 01 35 03 02 30  .....#.1....5..0
02F0: 00 01 80 80 FE 02 03 31  00 00 80 01 35 03 02 30  .......1....5..0
0300: 00 06 80 80 35 03 1D 1B  80 23 24 19 80 00 80 00  ....5....#$.....
0310: 80 25 02 00 10 00 80 00  22 03 03 31 00 00 80 01  .%......"..1....
0320: 32 03 02 00 10 01 80 00  32 03 03 31 00 01 80 01  2.......2..1....
0330: 32 03 01 35 03 01 48 03  02 00 10 01 80 00 48 03  2..5..H.......H.
0340: 03 31 00 01 80 01 48 03  40 00 80 0A 80 01 10 08  .1....H.@.......
0350: 80 40 0C 80 0D 80 01 10  31 00 40 1C 80 1D 80 01  .@......1.@.....
0360: 10 2C 00 21 01 67 03 01  B5 03 02 27 00 01 80 80  .,.!.g.....'....
0370: 83 03 1D 1E 80 23 40 0C  80 0D 80 01 10 10 80 21  .....#@........!
0380: 01 B5 03 02 27 00 06 80  80 9C 03 1D 1F 80 23 40  ....'.........#@
0390: 00 80 0A 80 01 10 00 80  21 01 B5 03 02 27 00 07  ........!....'..
03A0: 80 80 B5 03 1D 20 80 23  40 00 80 0A 80 01 10 00  ..... .#@.......
03B0: 80 21 01 B5 03 00 93 00  80 03 33 00 00 80 02 00  .!........3.....
03C0: 00 00 80 00 07 06 03 01  00 00 80 03 02 00 00 80  ................
03D0: 40 00 80 0A 80 01 10 0A  80 43 00 43 01 02 02 10  @........C.C....
03E0: 01 80 00 ED 03 03 32 00  00 80 01 12 04 02 02 10  ......2.........
03F0: 06 80 00 FD 03 03 32 00  21 80 01 12 04 02 02 10  ......2.!.......
0400: 07 80 00 0D 04 03 32 00  22 80 01 12 04 03 32 00  ......2.".....2.
0410: 22 80 0E 32 00 14 80 03  03 10 07 00 24 23 80 33  "..2........$#.3
0420: 00 32 00 25 02 00 10 00  80 00 4A 04 1D 24 80 23  .2.%......J..$.#
0430: 03 04 00 01 80 03 05 00  25 80 03 19 00 00 80 03  ........%.......
0440: 33 00 00 10 1A 09 06 01  04 06 02 00 10 01 80 00  3...............
0450: 70 04 1D 26 80 23 03 04  00 06 80 03 05 00 00 80  p..&.#..........
0460: 03 19 00 00 80 03 33 00  00 10 1A 09 06 01 04 06  ......3.........
0470: 02 00 10 06 80 00 96 04  1D 27 80 23 03 04 00 07  .........'.#....
0480: 80 03 05 00 25 80 03 19  00 01 80 03 33 00 00 10  ....%.......3...
0490: 1A 09 06 01 04 06 02 00  10 07 80 00 BC 04 1D 28  ...............(
04A0: 80 23 03 04 00 08 80 03  05 00 29 80 03 19 00 01  .#........).....
04B0: 80 03 33 00 00 10 1A 09  06 01 04 06 02 00 10 08  ..3.............
04C0: 80 00 E2 04 1D 2A 80 23  03 04 00 0B 80 03 05 00  .....*.#........
04D0: 2B 80 03 19 00 00 80 03  33 00 00 10 1A 09 06 01  +.......3.......
04E0: 04 06 02 00 10 0B 80 00  08 05 1D 2C 80 23 03 04  ...........,.#..
04F0: 00 0E 80 03 05 00 2B 80  03 19 00 00 80 03 33 00  ......+.......3.
0500: 00 10 1A 09 06 01 04 06  02 00 10 0E 80 00 2E 05  ................
0510: 1D 2D 80 23 03 04 00 0A  80 03 05 00 2E 80 03 19  .-.#............
0520: 00 00 80 03 33 00 00 10  1A 09 06 01 04 06 02 00  ....3...........
0530: 10 0A 80 00 54 05 1D 2F  80 23 03 04 00 0C 80 03  ....T../.#......
0540: 05 00 30 80 03 19 00 00  80 03 33 00 00 10 1A 09  ..0.......3.....
0550: 06 01 04 06 02 00 10 0C  80 00 7A 05 1D 31 80 23  ..........z..1.#
0560: 03 04 00 0F 80 03 05 00  32 80 03 19 00 00 80 03  ........2.......
0570: 33 00 00 10 1A 09 06 01  04 06 02 00 10 0F 80 00  3...............
0580: A0 05 1D 33 80 23 03 04  00 10 80 03 05 00 32 80  ...3.#........2.
0590: 03 19 00 00 80 03 33 00  00 10 1A 09 06 01 04 06  ......3.........
05A0: 02 00 10 10 80 00 C6 05  1D 34 80 23 03 04 00 12  .........4.#....
05B0: 80 03 05 00 00 80 03 19  00 00 80 03 33 00 00 10  ............3...
05C0: 1A 09 06 01 04 06 02 00  10 12 80 00 EC 05 1D 35  ...............5
05D0: 80 23 03 04 00 14 80 03  05 00 30 80 03 19 00 00  .#........0.....
05E0: 80 03 33 00 00 10 1A 09  06 01 04 06 02 00 10 14  ..3.............
05F0: 80 00 01 06 03 01 10 00  80 03 00 00 01 80 01 04  ................
0600: 06 01 52 00 01 BE 03 21  1B 03 34 00 00 80 02 01  ..R....!..4.....
0610: 00 00 80 00 C4 08 1A C5  08 03 02 10 08 00 03 03  ................
0620: 10 09 00 03 04 10 0A 00  03 05 10 0B 00 03 06 10  ................
0630: 0C 00 03 07 10 0D 00 03  08 10 0E 00 03 09 10 0F  ................
0640: 00 D4 03 00 80 08 00 D4  03 01 80 09 00 D4 03 06  ................
0650: 80 0A 00 D4 03 07 80 0B  00 D4 03 08 80 0C 00 D4  ................
0660: 03 0B 80 0D 00 D4 03 0E  80 0E 00 D4 03 0A 80 0F  ................
0670: 00 03 02 00 00 80 02 19  00 00 80 80 9C 07 D4 02  ................
0680: 36 80 34 00 05 00 25 02  00 10 00 80 00 A4 06 03  6.4...%.........
0690: 10 00 08 00 03 1E 00 00  10 03 34 00 00 10 1A 7A  ..........4....z
06A0: 0B 01 99 07 02 00 10 01  80 00 C1 06 03 10 00 09  ................
06B0: 00 03 1E 00 00 10 03 34  00 00 10 1A 7A 0B 01 99  .......4....z...
06C0: 07 02 00 10 06 80 00 DE  06 03 10 00 0A 00 03 1E  ................
06D0: 00 00 10 03 34 00 00 10  1A 7A 0B 01 99 07 02 00  ....4....z......
06E0: 10 07 80 00 FB 06 03 10  00 0B 00 03 1E 00 00 10  ................
06F0: 03 34 00 00 10 1A 7A 0B  01 99 07 02 00 10 08 80  .4....z.........
0700: 00 18 07 03 10 00 0C 00  03 1E 00 00 10 03 34 00  ..............4.
0710: 00 10 1A 7A 0B 01 99 07  02 00 10 0B 80 00 35 07  ...z..........5.
0720: 03 10 00 0D 00 03 1E 00  00 10 03 34 00 00 10 1A  ...........4....
0730: 7A 0B 01 99 07 02 00 10  0E 80 00 52 07 03 10 00  z..........R....
0740: 0E 00 03 1E 00 00 10 03  34 00 00 10 1A 7A 0B 01  ........4....z..
0750: 99 07 02 00 10 0A 80 00  6F 07 03 10 00 0F 00 03  ........o.......
0760: 1E 00 00 10 1A 7A 0B 03  34 00 00 10 01 99 07 02  .....z..4.......
0770: 00 10 0C 80 00 89 07 03  01 10 00 80 03 00 00 01  ................
0780: 80 03 01 00 01 80 01 99  07 02 00 10 0F 80 00 99  ................
0790: 07 03 01 00 01 80 01 99  07 01 C1 08 02 19 00 01  ................
07A0: 80 80 C1 08 24 37 80 34  00 05 00 25 02 00 10 00  ....$7.4...%....
07B0: 80 00 C9 07 03 10 00 08  00 03 1E 00 00 10 03 34  ...............4
07C0: 00 00 10 1A 7A 0B 01 BE  08 02 00 10 01 80 00 E6  ....z...........
07D0: 07 03 10 00 09 00 03 1E  00 00 10 03 34 00 00 10  ............4...
07E0: 1A 7A 0B 01 BE 08 02 00  10 06 80 00 03 08 03 10  .z..............
07F0: 00 0A 00 03 1E 00 00 10  1A 7A 0B 03 34 00 00 10  .........z..4...
0800: 01 BE 08 02 00 10 07 80  00 20 08 03 10 00 0B 00  ......... ......
0810: 03 1E 00 00 10 03 34 00  00 10 1A 7A 0B 01 BE 08  ......4....z....
0820: 02 00 10 08 80 00 3D 08  03 10 00 0C 00 03 1E 00  ......=.........
0830: 00 10 03 34 00 00 10 1A  7A 0B 01 BE 08 02 00 10  ...4....z.......
0840: 0B 80 00 5A 08 03 10 00  0D 00 03 1E 00 00 10 03  ...Z............
0850: 34 00 00 10 1A 7A 0B 01  BE 08 02 00 10 0E 80 00  4....z..........
0860: 77 08 03 10 00 0E 00 03  1E 00 00 10 03 34 00 00  w............4..
0870: 10 1A 7A 0B 01 BE 08 02  00 10 0A 80 00 94 08 03  ..z.............
0880: 10 00 0F 00 03 1E 00 00  10 03 34 00 00 10 1A 7A  ..........4....z
0890: 0B 01 BE 08 02 00 10 0C  80 00 AE 08 03 01 10 00  ................
08A0: 80 03 00 00 01 80 03 01  00 01 80 01 BE 08 02 00  ................
08B0: 10 0F 80 00 BE 08 03 01  00 01 80 01 BE 08 01 C1  ................
08C0: 08 01 0E 06 1B 06 25 00  02 04 00 00 80 80 D3 08  ......%.........
08D0: 01 79 0B 02 04 00 01 80  80 0E 09 03 08 00 38 80  .y............8.
08E0: 03 09 00 39 80 03 0A 00  3A 80 03 0B 00 3B 80 03  ...9....:....;..
08F0: 0C 00 3C 80 03 0D 00 3D  80 03 0E 00 00 80 03 0F  ..<....=........
0900: 00 00 80 03 1F 00 01 80  05 25 00 01 79 0B 02 04  .........%..y...
0910: 00 06 80 80 49 09 03 08  00 3E 80 03 09 00 3F 80  ....I....>....?.
0920: 03 0A 00 40 80 03 0B 00  41 80 03 0C 00 42 80 03  ...@....A....B..
0930: 0D 00 43 80 03 0E 00 44  80 03 0F 00 45 80 03 1F  ..C....D....E...
0940: 00 07 80 05 25 00 01 79  0B 02 04 00 07 80 80 81  ....%..y........
0950: 09 03 08 00 38 80 03 09  00 39 80 03 0A 00 3A 80  ....8....9....:.
0960: 03 0B 00 3B 80 03 0C 00  3C 80 03 0D 00 3D 80 03  ...;....<....=..
0970: 0E 00 00 80 03 0F 00 00  80 03 1F 00 10 80 01 79  ...............y
0980: 0B 02 04 00 08 80 80 B9  09 03 08 00 3E 80 03 09  ............>...
0990: 00 3F 80 03 0A 00 40 80  03 0B 00 41 80 03 0C 00  .?....@....A....
09A0: 42 80 03 0D 00 43 80 03  0E 00 44 80 03 0F 00 00  B....C....D.....
09B0: 80 03 1F 00 46 80 01 79  0B 02 04 00 0B 80 80 F1  ....F..y........
09C0: 09 03 08 00 47 80 03 09  00 48 80 03 0A 00 00 80  ....G....H......
09D0: 03 0B 00 00 80 03 0C 00  00 80 03 0D 00 00 80 03  ................
09E0: 0E 00 00 80 03 0F 00 00  80 03 1F 00 49 80 01 79  ............I..y
09F0: 0B 02 04 00 0E 80 80 29  0A 03 08 00 4A 80 03 09  .......)....J...
0A00: 00 4B 80 03 0A 00 00 80  03 0B 00 00 80 03 0C 00  .K..............
0A10: 00 80 03 0D 00 00 80 03  0E 00 00 80 03 0F 00 00  ................
0A20: 80 03 1F 00 4C 80 01 79  0B 02 04 00 0A 80 80 61  ....L..y.......a
0A30: 0A 03 08 00 4D 80 03 09  00 4E 80 03 0A 00 4F 80  ....M....N....O.
0A40: 03 0B 00 50 80 03 0C 00  51 80 03 0D 00 00 80 03  ...P....Q.......
0A50: 0E 00 00 80 03 0F 00 00  80 03 1F 00 52 80 01 79  ............R..y
0A60: 0B 02 04 00 0C 80 80 99  0A 03 08 00 53 80 03 09  ............S...
0A70: 00 00 80 03 0A 00 00 80  03 0B 00 00 80 03 0C 00  ................
0A80: 00 80 03 0D 00 00 80 03  0E 00 00 80 03 0F 00 00  ................
0A90: 80 03 1F 00 54 80 01 79  0B 02 04 00 0F 80 80 D1  ....T..y........
0AA0: 0A 03 08 00 55 80 03 09  00 56 80 03 0A 00 57 80  ....U....V....W.
0AB0: 03 0B 00 58 80 03 0C 00  00 80 03 0D 00 00 80 03  ...X............
0AC0: 0E 00 00 80 03 0F 00 00  80 03 1F 00 13 80 01 79  ...............y
0AD0: 0B 02 04 00 10 80 80 09  0B 03 08 00 59 80 03 09  ............Y...
0AE0: 00 5A 80 03 0A 00 5B 80  03 0B 00 5C 80 03 0C 00  .Z....[....\....
0AF0: 00 80 03 0D 00 00 80 03  0E 00 00 80 03 0F 00 00  ................
0B00: 80 03 1F 00 5D 80 01 79  0B 02 04 00 12 80 80 41  ....]..y.......A
0B10: 0B 03 08 00 5E 80 03 09  00 5F 80 03 0A 00 60 80  ....^...._....`.
0B20: 03 0B 00 61 80 03 0C 00  62 80 03 0D 00 63 80 03  ...a....b....c..
0B30: 0E 00 64 80 03 0F 00 65  80 03 1F 00 66 80 01 79  ..d....e....f..y
0B40: 0B 02 04 00 14 80 80 79  0B 03 08 00 67 80 03 09  .......y....g...
0B50: 00 00 80 03 0A 00 00 80  03 0B 00 00 80 03 0C 00  ................
0B60: 00 80 03 0D 00 00 80 03  0E 00 00 80 03 0F 00 00  ................
0B70: 80 03 1F 00 68 80 01 79  0B 1B 40 00 80 07 80 01  ....h..y..@.....
0B80: 10 06 80 40 08 80 0A 80  01 10 1E 00 40 0C 80 0D  ...@........@...
0B90: 80 01 10 04 00 40 1C 80  69 80 01 10 10 00 43 00  .....@..i.....C.
0BA0: 43 01 03 02 00 00 80 02  02 00 00 80 00 F2 0C 93  C...............
0BB0: 10 00 03 02 10 10 00 03  06 10 07 00 15 06 10 1F  ................
0BC0: 00 03 24 00 00 80 02 06  10 00 80 02 20 0C 02 05  ..$......... ...
0BD0: 10 00 80 00 13 0C 1D 6A  80 71 12 01 80 08 80 71  .......j.q.....q
0BE0: 13 03 10 02 03 10 00 80  00 EF 0B 93 00 80 1B 02  ................
0BF0: 25 00 00 80 01 01 0C 03  24 00 03 10 15 24 00 0B  %.......$....$..
0C00: 80 02 03 10 06 10 02 10  0C 1D 6B 80 23 01 D6 0B  ..........k.#...
0C10: 01 1D 0C 03 03 10 01 80  03 04 10 1F 00 01 2A 0C  ..............*.
0C20: 1D 6B 80 23 03 02 00 01  80 1B 03 04 10 1F 00 14  .k.#............
0C30: 04 10 03 10 1D 6C 80 23  93 00 80 03 02 10 07 00  .....l.#........
0C40: 24 6D 80 01 80 00 80 25  02 00 10 00 80 00 CE 0C  $m.....%........
0C50: 02 24 00 00 80 01 66 0C  03 02 10 10 00 03 04 10  .$....f.........
0C60: 24 00 1D 6E 80 23 40 00  80 07 80 01 10 07 80 40  $..n.#@........@
0C70: 08 80 0A 80 01 10 1E 00  40 0C 80 0D 80 01 10 04  ........@.......
0C80: 00 40 1C 80 69 80 01 10  03 10 43 00 43 01 02 04  .@..i.....C.C...
0C90: 10 00 80 80 A3 0C 03 07  00 05 10 03 02 00 01 80  ................
0CA0: 01 CB 0C 02 04 10 01 80  80 B4 0C 03 01 10 00 80  ................
0CB0: 21 01 CB 0C 02 04 10 06  80 80 C5 0C 03 01 10 00  !...............
0CC0: 80 21 01 CB 0C 03 01 10  00 80 21 01 EF 0C 02 00  .!........!.....
0CD0: 10 01 80 00 DE 0C 03 02  00 01 80 01 EF 0C 02 00  ................
0CE0: 10 06 80 00 EF 0C 03 01  10 00 80 21 01 EF 0C 01  ...........!....
0CF0: A7 0B 1B 03 35 00 00 80  03 36 00 00 80 02 00 00  ....5....6......
0D00: 00 80 00 4A 10 03 01 00  00 80 03 02 00 00 80 03  ...J............
0D10: 06 00 01 80 02 21 00 00  80 00 23 0D 3C 06 00 07  .....!....#.<...
0D20: 80 01 80 03 03 10 07 00  24 6F 80 35 00 06 00 25  ........$o.5...%
0D30: 02 00 10 00 80 00 F6 0D  03 35 00 00 10 02 07 00  .........5......
0D40: 4C 80 04 F0 0D 1D 70 80  23 40 00 80 0A 80 01 10  L.....p.#@......
0D50: 01 80 43 00 43 01 03 13  00 04 10 02 13 00 01 80  ..C.C...........
0D60: 00 E4 0D 02 01 00 00 80  00 E1 0D 24 71 80 00 80  ...........$q...
0D70: 00 80 25 02 00 10 00 80  00 81 0D 1A 4D 14 01 DE  ..%.........M...
0D80: 0D 02 00 10 01 80 00 8F  0D 1A C1 14 01 DE 0D 02  ................
0D90: 00 10 06 80 00 9D 0D 1A  35 15 01 DE 0D 02 00 10  ........5.......
0DA0: 07 80 00 AB 0D 1A A9 15  01 DE 0D 02 00 10 08 80  ................
0DB0: 00 B9 0D 1A 1D 16 01 DE  0D 02 00 10 0B 80 00 CE  ................
0DC0: 0D 40 00 80 0A 80 01 10  00 80 21 01 DE 0D 02 00  .@........!.....
0DD0: 10 0E 80 00 DE 0D 03 01  00 01 80 01 DE 0D 01 63  ...............c
0DE0: 0D 01 ED 0D 1D 72 80 23  03 01 00 01 80 01 F3 0D  .....r.#........
0DF0: 1A 92 12 01 47 10 02 00  10 01 80 00 20 0E 03 35  ....G....... ..5
0E00: 00 00 10 02 07 00 52 80  04 1A 0E 1D 73 80 23 03  ......R.....s.#.
0E10: 2B 00 00 80 1A F7 16 01  1D 0E 1A 92 12 01 47 10  +.............G.
0E20: 02 00 10 06 80 00 25 10  03 35 00 00 10 02 07 00  ......%..5......
0E30: 54 80 04 1F 10 1D 74 80  23 02 21 00 01 80 00 13  T.....t.#.!.....
0E40: 10 02 20 00 01 80 00 0C  10 02 01 00 00 80 00 09  .. .............
0E50: 10 03 01 00 00 80 03 1C  00 00 80 24 75 80 36 00  ...........$u.6.
0E60: 76 80 25 02 00 10 00 80  00 71 0E 1A F7 13 01 06  v.%......q......
0E70: 10 02 00 10 01 80 00 CD  0E 03 36 00 00 10 24 77  ..........6...$w
0E80: 80 01 80 08 80 25 02 00  10 00 80 00 B4 0E 40 00  .....%........@.
0E90: 80 0A 80 01 10 0E 80 40  0C 80 0D 80 01 10 01 80  .......@........
0EA0: 43 00 43 01 03 1D 00 01  80 03 1A 00 0E 80 1A 4B  C.C............K
0EB0: 10 01 CA 0E 02 00 10 01  80 00 BF 0E 01 CA 0E 02  ................
0EC0: 00 10 06 80 00 CA 0E 01  CA 0E 01 06 10 02 00 10  ................
0ED0: 06 80 00 29 0F 03 36 00  00 10 24 77 80 01 80 08  ...)..6...$w....
0EE0: 80 25 02 00 10 00 80 00  10 0F 40 00 80 0A 80 01  .%........@.....
0EF0: 10 0E 80 40 0C 80 0D 80  01 10 06 80 43 00 43 01  ...@........C.C.
0F00: 03 1D 00 06 80 03 1A 00  0E 80 1A 4B 10 01 26 0F  ...........K..&.
0F10: 02 00 10 01 80 00 1B 0F  01 26 0F 02 00 10 06 80  .........&......
0F20: 00 26 0F 01 26 0F 01 06  10 02 00 10 07 80 00 85  .&..&...........
0F30: 0F 03 36 00 00 10 24 77  80 01 80 08 80 25 02 00  ..6...$w.....%..
0F40: 10 00 80 00 6C 0F 40 00  80 0A 80 01 10 0E 80 40  ....l.@........@
0F50: 0C 80 0D 80 01 10 07 80  43 00 43 01 03 1D 00 07  ........C.C.....
0F60: 80 03 1A 00 0E 80 1A 4B  10 01 82 0F 02 00 10 01  .......K........
0F70: 80 00 77 0F 01 82 0F 02  00 10 06 80 00 82 0F 01  ..w.............
0F80: 82 0F 01 06 10 02 00 10  08 80 00 E1 0F 03 36 00  ..............6.
0F90: 00 10 24 77 80 01 80 08  80 25 02 00 10 00 80 00  ..$w.....%......
0FA0: C8 0F 40 00 80 0A 80 01  10 0E 80 40 0C 80 0D 80  ..@........@....
0FB0: 01 10 08 80 43 00 43 01  03 1D 00 08 80 03 1A 00  ....C.C.........
0FC0: 0E 80 1A 4B 10 01 DE 0F  02 00 10 01 80 00 D3 0F  ...K............
0FD0: 01 DE 0F 02 00 10 06 80  00 DE 0F 01 DE 0F 01 06  ................
0FE0: 10 02 00 10 0B 80 00 F6  0F 40 00 80 0A 80 01 10  .........@......
0FF0: 00 80 21 01 06 10 02 00  10 0E 80 00 06 10 03 01  ..!.............
1000: 00 01 80 01 06 10 01 49  0E 01 10 10 1D 20 80 23  .......I..... .#
1010: 01 1C 10 1D 78 80 23 03  01 00 01 80 01 22 10 1A  ....x.#......"..
1020: 92 12 01 47 10 02 00 10  07 80 00 33 10 1A F7 13  ...G.......3....
1030: 01 47 10 02 00 10 08 80  00 44 10 03 01 10 00 80  .G.......D......
1040: 21 01 47 10 01 52 00 01  FD 0C 1B 03 37 00 02 10  !.G..R......7...
1050: 02 37 00 00 80 80 5B 10  01 21 11 02 37 00 01 80  .7....[..!..7...
1060: 80 74 10 1D 79 80 23 40  00 80 0A 80 01 10 00 80  .t..y.#@........
1070: 21 01 21 11 02 37 00 06  80 80 EE 10 1D 7A 80 23  !.!..7.......z.#
1080: 02 1C 00 00 80 00 EB 10  24 7B 80 01 80 08 80 25  ........${.....%
1090: 02 00 10 00 80 00 C3 10  1A 0B 12 40 00 80 0A 80  ...........@....
10A0: 01 10 07 80 40 0C 80 0D  80 01 10 00 80 40 1C 80  ....@........@..
10B0: 1D 80 01 10 1D 00 40 7C  80 69 80 01 10 1A 00 21  ......@|.i.....!
10C0: 01 E8 10 02 00 10 01 80  00 D3 10 03 1C 00 01 80  ................
10D0: 01 E8 10 02 00 10 06 80  00 E8 10 40 00 80 0A 80  ...........@....
10E0: 01 10 00 80 21 01 E8 10  01 80 10 01 21 11 02 37  ....!.......!..7
10F0: 00 07 80 80 21 11 1A 0B  12 40 00 80 0A 80 01 10  ....!....@......
1100: 07 80 40 0C 80 0D 80 01  10 00 80 40 1C 80 1D 80  ..@........@....
1110: 01 10 1D 00 40 7C 80 69  80 01 10 1A 00 21 01 21  ....@|.i.....!.!
1120: 11 1B 03 37 00 02 10 02  37 00 00 80 80 32 11 01  ...7....7....2..
1130: 0A 12 02 37 00 01 80 80  54 11 1D 79 80 23 40 00  ...7....T..y.#@.
1140: 80 0A 80 01 10 0B 80 40  0C 80 0D 80 01 10 26 00  .......@......&.
1150: 21 01 0A 12 02 37 00 06  80 80 D7 11 1D 7A 80 23  !....7.......z.#
1160: 02 1C 00 00 80 00 D4 11  24 7B 80 06 80 06 80 25  ........${.....%
1170: 02 00 10 00 80 00 A3 11  1A 0B 12 40 00 80 0A 80  ...........@....
1180: 01 10 07 80 40 0C 80 0D  80 01 10 00 80 40 1C 80  ....@........@..
1190: 1D 80 01 10 1D 00 40 7C  80 69 80 01 10 1A 00 21  ......@|.i.....!
11A0: 01 D1 11 02 00 10 01 80  00 B3 11 03 1C 00 01 80  ................
11B0: 01 D1 11 02 00 10 06 80  00 D1 11 40 00 80 0A 80  ...........@....
11C0: 01 10 0B 80 40 0C 80 0D  80 01 10 26 00 21 01 D1  ....@......&.!..
11D0: 11 01 60 11 01 0A 12 02  37 00 07 80 80 0A 12 1A  ..`.....7.......
11E0: 0B 12 40 00 80 0A 80 01  10 07 80 40 0C 80 0D 80  ..@........@....
11F0: 01 10 00 80 40 1C 80 1D  80 01 10 1D 00 40 7C 80  ....@........@|.
1200: 69 80 01 10 1A 00 21 01  0A 12 1B 03 03 10 1D 00  i.....!.........
1210: 08 03 10 01 80 02 1A 00  0E 80 00 25 12 03 02 10  ...........%....
1220: 00 80 01 32 12 02 1A 00  0A 80 00 32 12 03 02 10  ...2.......2....
1230: 01 80 42 45 7D 80 F0 FF  FF 7F F0 FF FF 7F 66 64  ..BE}.........fd
1240: 6F 31 00 80 55 7D 80 F0  FF FF 7F F0 FF FF 7F 66  o1..U}.........f
1250: 64 6F 31 1C 06 80 45 7D  80 F0 FF FF 7F F0 FF FF  do1...E}........
1260: 7F 66 64 69 31 00 80 55  7D 80 F0 FF FF 7F F0 FF  .fdi1..U}.......
1270: FF 7F 66 64 69 31 48 7E  80 23 1B 40 00 80 0A 80  ..fdi1H~.#.@....
1280: 01 10 01 80 43 00 43 01  03 14 00 05 10 1D 7F 80  ....C.C.........
1290: 23 1B 02 02 00 00 80 00  CB 12 24 80 80 00 80 00  #.........$.....
12A0: 80 25 02 00 10 00 80 00  B7 12 03 01 00 01 80 03  .%..............
12B0: 02 00 01 80 01 C8 12 02  00 10 01 80 00 C8 12 03  ................
12C0: 01 10 00 80 21 01 C8 12  01 92 12 1B 03 38 00 00  ....!........8..
12D0: 80 03 3B 00 00 80 1D 70  80 23 02 22 00 00 80 00  ..;....p.#."....
12E0: E8 12 1D 72 80 23 21 1B  02 03 00 00 80 00 CF 13  ...r.#!.........
12F0: 03 02 10 39 00 3C 38 00  39 00 01 80 24 71 80 3B  ...9.<8.9...$q.;
1300: 00 38 00 25 02 00 10 00  80 00 14 13 03 3A 00 00  .8.%.........:..
1310: 80 01 69 13 02 00 10 01  80 00 24 13 03 3A 00 01  ..i.......$..:..
1320: 80 01 69 13 02 00 10 06  80 00 34 13 03 3A 00 06  ..i.......4..:..
1330: 80 01 69 13 02 00 10 07  80 00 44 13 03 3A 00 07  ..i.......D..:..
1340: 80 01 69 13 02 00 10 08  80 00 54 13 03 3A 00 08  ..i.......T..:..
1350: 80 01 69 13 02 00 10 0B  80 00 66 13 03 01 10 00  ..i.......f.....
1360: 80 21 1B 01 69 13 01 52  00 03 3B 00 00 10 03 02  .!..i..R..;.....
1370: 10 00 10 03 03 10 07 00  24 81 80 01 80 00 80 25  ........$......%
1380: 02 00 10 00 80 00 C1 13  02 07 00 4C 80 04 BA 13  ...........L....
1390: 1D 82 80 23 03 03 00 01  80 03 00 00 01 80 03 01  ...#............
13A0: 10 00 80 40 00 80 07 80  01 10 01 80 40 0C 80 0D  ...@........@...
13B0: 80 01 10 3A 00 21 1B 01  BE 13 1D 6B 80 23 01 CC  ...:.!.....k.#..
13C0: 13 02 00 10 01 80 00 CC  13 01 CC 13 01 E8 12 1B  ................
13D0: 02 02 10 00 80 00 E9 13  1D 82 80 23 40 00 80 0A  ...........#@...
13E0: 80 01 10 01 80 21 01 F7  13 1D 09 80 23 40 00 80  .....!......#@..
13F0: 0A 80 01 10 00 80 21 40  00 80 0A 80 01 10 0B 80  ......!@........
1400: 43 00 43 01 41 00 80 0A  80 03 10 15 00 41 0C 80  C.C.A........A..
1410: 0D 80 03 10 16 00 41 1C  80 1D 80 03 10 17 00 41  ......A........A
1420: 7C 80 69 80 03 10 18 00  03 02 10 15 00 1D 83 80  |.i.............
1430: 23 03 02 10 16 00 1D 84  80 23 03 02 10 17 00 1D  #........#......
1440: 85 80 23 03 02 10 18 00  1D 86 80 23 1B 02 02 00  ..#........#....
1450: 00 80 00 C0 14 24 87 80  00 80 00 80 25 02 00 10  .....$......%...
1460: 00 80 00 6B 14 1A 7B 12  01 BD 14 02 00 10 01 80  ...k..{.........
1470: 00 8F 14 40 00 80 0A 80  01 10 08 80 40 0C 80 0D  ...@........@...
1480: 80 01 10 00 80 43 00 43  01 1A D0 13 01 BD 14 02  .....C.C........
1490: 00 10 06 80 00 BD 14 02  2F 00 01 80 00 B4 14 40  ......../......@
14A0: 00 80 0A 80 01 10 0B 80  40 0C 80 0D 80 01 10 08  ........@.......
14B0: 80 01 B9 14 03 01 10 00  80 21 01 BD 14 01 4D 14  .........!....M.
14C0: 1B 02 02 00 00 80 00 34  15 24 88 80 00 80 00 80  .......4.$......
14D0: 25 02 00 10 00 80 00 DF  14 1A 7B 12 01 31 15 02  %.........{..1..
14E0: 00 10 01 80 00 03 15 40  00 80 0A 80 01 10 08 80  .......@........
14F0: 40 0C 80 0D 80 01 10 01  80 43 00 43 01 1A D0 13  @........C.C....
1500: 01 31 15 02 00 10 06 80  00 31 15 02 2F 00 01 80  .1.......1../...
1510: 00 28 15 40 00 80 0A 80  01 10 0B 80 40 0C 80 0D  .(.@........@...
1520: 80 01 10 0B 80 01 2D 15  03 01 10 00 80 21 01 31  ......-......!.1
1530: 15 01 C1 14 1B 02 02 00  00 80 00 A8 15 24 89 80  .............$..
1540: 00 80 00 80 25 02 00 10  00 80 00 53 15 1A 7B 12  ....%......S..{.
1550: 01 A5 15 02 00 10 01 80  00 77 15 40 00 80 0A 80  .........w.@....
1560: 01 10 08 80 40 0C 80 0D  80 01 10 06 80 43 00 43  ....@........C.C
1570: 01 1A D0 13 01 A5 15 02  00 10 06 80 00 A5 15 02  ................
1580: 2F 00 01 80 00 9C 15 40  00 80 0A 80 01 10 0B 80  /......@........
1590: 40 0C 80 0D 80 01 10 0E  80 01 A1 15 03 01 10 00  @...............
15A0: 80 21 01 A5 15 01 35 15  1B 02 02 00 00 80 00 1C  .!....5.........
15B0: 16 24 8A 80 00 80 00 80  25 02 00 10 00 80 00 C7  .$......%.......
15C0: 15 1A 7B 12 01 19 16 02  00 10 01 80 00 EB 15 40  ..{............@
15D0: 00 80 0A 80 01 10 08 80  40 0C 80 0D 80 01 10 07  ........@.......
15E0: 80 43 00 43 01 1A D0 13  01 19 16 02 00 10 06 80  .C.C............
15F0: 00 19 16 02 2F 00 01 80  00 10 16 40 00 80 0A 80  ..../......@....
1600: 01 10 0B 80 40 0C 80 0D  80 01 10 0A 80 01 15 16  ....@...........
1610: 03 01 10 00 80 21 01 19  16 01 A9 15 1B 02 02 00  .....!..........
1620: 00 80 00 90 16 24 8B 80  00 80 00 80 25 02 00 10  .....$......%...
1630: 00 80 00 3B 16 1A 7B 12  01 8D 16 02 00 10 01 80  ...;..{.........
1640: 00 5F 16 40 00 80 0A 80  01 10 08 80 40 0C 80 0D  ._.@........@...
1650: 80 01 10 08 80 43 00 43  01 1A D0 13 01 8D 16 02  .....C.C........
1660: 00 10 06 80 00 8D 16 02  2F 00 01 80 00 84 16 40  ......../......@
1670: 00 80 0A 80 01 10 0B 80  40 0C 80 0D 80 01 10 0C  ........@.......
1680: 80 01 89 16 03 01 10 00  80 21 01 8D 16 01 1D 16  .........!......
1690: 1B 02 02 00 00 80 00 F6  16 24 8C 80 01 80 00 80  .........$......
16A0: 25 02 00 10 00 80 00 C5  16 40 00 80 0A 80 01 10  %........@......
16B0: 08 80 40 0C 80 0D 80 01  10 02 10 43 00 43 01 1A  ..@........C.C..
16C0: D0 13 01 F3 16 02 00 10  01 80 00 F3 16 02 2F 00  ............../.
16D0: 01 80 00 EA 16 40 00 80  0A 80 01 10 0B 80 40 0C  .....@........@.
16E0: 80 0D 80 01 10 08 80 01  EF 16 03 01 10 00 80 21  ...............!
16F0: 01 F3 16 01 91 16 1B 02  21 00 01 80 00 F7 17 02  ........!.......
1700: 20 00 01 80 00 C2 17 03  02 00 00 80 02 02 00 00   ...............
1710: 80 00 BF 17 24 77 80 01  80 08 80 25 02 00 10 00  ....$w.....%....
1720: 80 00 75 17 42 45 7D 80  F0 FF FF 7F F0 FF FF 7F  ..u.BE}.........
1730: 66 64 6F 31 00 80 55 7D  80 F0 FF FF 7F F0 FF FF  fdo1..U}........
1740: 7F 66 64 6F 31 1C 06 80  45 7D 80 F0 FF FF 7F F0  .fdo1...E}......
1750: FF FF 7F 66 64 69 31 00  80 55 7D 80 F0 FF FF 7F  ...fdi1..U}.....
1760: F0 FF FF 7F 66 64 69 31  40 00 80 0A 80 01 10 06  ....fdi1@.......
1770: 80 21 01 BC 17 02 00 10  01 80 00 AC 17 02 2B 00  .!............+.
1780: 01 80 00 9B 17 40 00 80  0A 80 01 10 0B 80 40 0C  .....@........@.
1790: 80 0D 80 01 10 0F 80 21  01 A4 17 40 00 80 0A 80  .......!...@....
17A0: 01 10 00 80 03 02 00 01  80 01 BC 17 02 00 10 06  ................
17B0: 80 00 BC 17 03 02 00 01  80 01 BC 17 01 0C 17 01  ................
17C0: F4 17 02 20 00 00 80 01  F4 17 1D 20 80 23 02 2B  ... ....... .#.+
17D0: 00 01 80 00 EB 17 40 00  80 0A 80 01 10 0B 80 40  ......@........@
17E0: 0C 80 0D 80 01 10 0F 80  01 F4 17 40 00 80 0A 80  ...........@....
17F0: 01 10 00 80 01 16 18 1D  78 80 23 02 2B 00 01 80  ........x.#.+...
1800: 00 16 18 40 00 80 0A 80  01 10 0B 80 40 0C 80 0D  ...@........@...
1810: 80 01 10 0F 80 21 1B 40  00 80 0A 80 01 10 01 80  .....!.@........
1820: 43 00 43 01 03 12 00 06  10 02 12 00 01 80 00 62  C.C............b
1830: 1A 02 07 10 01 80 00 4C  1A 02 01 00 00 80 00 49  .......L.......I
1840: 1A 03 1C 00 00 80 24 75  80 00 80 2A 00 25 02 00  ......$u...*.%..
1850: 10 00 80 00 5C 18 1A F7  13 01 46 1A 02 00 10 01  ....\.....F.....
1860: 80 00 CB 18 24 77 80 01  80 08 80 25 02 00 10 00  ....$w.....%....
1870: 80 00 9A 18 40 00 80 0A  80 01 10 0E 80 40 0C 80  ....@........@..
1880: 0D 80 01 10 01 80 43 00  43 01 03 1D 00 01 80 03  ......C.C.......
1890: 1A 00 0E 80 1A 22 11 01  C8 18 02 00 10 01 80 00  ....."..........
18A0: B8 18 40 00 80 0A 80 01  10 0B 80 40 0C 80 0D 80  ..@........@....
18B0: 01 10 26 00 21 01 C8 18  02 00 10 06 80 00 C8 18  ..&.!...........
18C0: 03 1C 00 01 80 01 C8 18  01 46 1A 02 00 10 06 80  .........F......
18D0: 00 3A 19 24 77 80 01 80  08 80 25 02 00 10 00 80  .:.$w.....%.....
18E0: 00 09 19 40 00 80 0A 80  01 10 0E 80 40 0C 80 0D  ...@........@...
18F0: 80 01 10 06 80 43 00 43  01 03 1D 00 06 80 03 1A  .....C.C........
1900: 00 0E 80 1A 22 11 01 37  19 02 00 10 01 80 00 27  ...."..7.......'
1910: 19 40 00 80 0A 80 01 10  0B 80 40 0C 80 0D 80 01  .@........@.....
1920: 10 26 00 21 01 37 19 02  00 10 06 80 00 37 19 03  .&.!.7.......7..
1930: 1C 00 01 80 01 37 19 01  46 1A 02 00 10 07 80 00  .....7..F.......
1940: A9 19 24 77 80 01 80 08  80 25 02 00 10 00 80 00  ..$w.....%......
1950: 78 19 40 00 80 0A 80 01  10 0E 80 40 0C 80 0D 80  x.@........@....
1960: 01 10 07 80 43 00 43 01  03 1D 00 07 80 03 1A 00  ....C.C.........
1970: 0E 80 1A 22 11 01 A6 19  02 00 10 01 80 00 96 19  ..."............
1980: 40 00 80 0A 80 01 10 0B  80 40 0C 80 0D 80 01 10  @........@......
1990: 26 00 21 01 A6 19 02 00  10 06 80 00 A6 19 03 1C  &.!.............
19A0: 00 01 80 01 A6 19 01 46  1A 02 00 10 08 80 00 18  .......F........
19B0: 1A 24 77 80 01 80 08 80  25 02 00 10 00 80 00 E7  .$w.....%.......
19C0: 19 40 00 80 0A 80 01 10  0E 80 40 0C 80 0D 80 01  .@........@.....
19D0: 10 08 80 43 00 43 01 03  1D 00 08 80 03 1A 00 0E  ...C.C..........
19E0: 80 1A 22 11 01 15 1A 02  00 10 01 80 00 05 1A 40  .."............@
19F0: 00 80 0A 80 01 10 0B 80  40 0C 80 0D 80 01 10 26  ........@......&
1A00: 00 21 01 15 1A 02 00 10  06 80 00 15 1A 03 1C 00  .!..............
1A10: 01 80 01 15 1A 01 46 1A  02 00 10 0B 80 00 36 1A  ......F.......6.
1A20: 40 00 80 0A 80 01 10 0B  80 40 0C 80 0D 80 01 10  @........@......
1A30: 26 00 21 01 46 1A 02 00  10 0E 80 00 46 1A 03 1C  &.!.F.......F...
1A40: 00 01 80 01 46 1A 01 39  18 01 5F 1A 40 00 80 0A  ....F..9.._.@...
1A50: 80 01 10 0B 80 40 0C 80  0D 80 01 10 26 00 21 01  .....@......&.!.
1A60: 79 1A 1D 78 80 23 40 00  80 0A 80 01 10 0B 80 40  y..x.#@........@
1A70: 0C 80 0D 80 01 10 26 00  21 1B 02 1B 00 00 80 00  ......&.!.......
1A80: FD 1C 03 1C 00 00 80 03  02 10 2D 00 24 8D 80 00  ..........-.$...
1A90: 80 00 80 25 02 00 10 00  80 00 16 1B 40 00 80 0A  ...%........@...
1AA0: 80 01 10 10 80 40 0C 80  0D 80 01 10 2D 00 43 00  .....@......-.C.
1AB0: 43 01 03 3C 00 02 10 41  01 80 0A 80 3C 00 3D 00  C..<...A....<.=.
1AC0: 15 3D 00 1C 80 03 02 10  3D 00 1D 8E 80 23 41 0F  .=......=....#A.
1AD0: 80 0D 80 3C 00 3D 00 15  3D 00 1C 80 03 02 10 3D  ...<.=..=......=
1AE0: 00 1D 8F 80 23 41 90 80  1D 80 3C 00 3D 00 15 3D  ....#A....<.=..=
1AF0: 00 1C 80 03 02 10 3D 00  1D 91 80 23 41 92 80 69  ......=....#A..i
1B00: 80 3C 00 3D 00 15 3D 00  1C 80 03 02 10 3D 00 1D  .<.=..=......=..
1B10: 93 80 23 01 FA 1C 02 00  10 01 80 00 DC 1C 02 1C  ..#.............
1B20: 00 00 80 00 D9 1C 24 77  80 01 80 08 80 25 02 00  ......$w.....%..
1B30: 10 00 80 00 A8 1C 40 00  80 0A 80 01 10 12 80 40  ......@........@
1B40: 0C 80 0D 80 01 10 2D 00  43 00 43 01 03 2E 00 02  ......-.C.C.....
1B50: 10 02 2E 00 00 80 80 5C  1B 01 A5 1C 02 2E 00 01  .......\........
1B60: 80 80 7E 1B 1D 79 80 23  40 00 80 0A 80 01 10 0B  ..~..y.#@.......
1B70: 80 40 0C 80 0D 80 01 10  2D 00 21 01 A5 1C 02 2E  .@......-.!.....
1B80: 00 06 80 80 2C 1C 1D 7A  80 23 24 7B 80 00 80 06  ....,..z.#${....
1B90: 80 25 02 00 10 00 80 00  0B 1C 40 00 80 0A 80 01  .%........@.....
1BA0: 10 0E 80 40 0C 80 0D 80  01 10 2D 00 40 1C 80 1D  ...@......-.@...
1BB0: 80 01 10 01 80 03 02 10  01 80 03 03 10 2D 00 42  .............-.B
1BC0: 45 7D 80 F0 FF FF 7F F0  FF FF 7F 66 64 6F 31 00  E}.........fdo1.
1BD0: 80 55 7D 80 F0 FF FF 7F  F0 FF FF 7F 66 64 6F 31  .U}.........fdo1
1BE0: 1C 06 80 45 7D 80 F0 FF  FF 7F F0 FF FF 7F 66 64  ...E}.........fd
1BF0: 69 31 00 80 55 7D 80 F0  FF FF 7F F0 FF FF 7F 66  i1..U}.........f
1C00: 64 69 31 1D 7E 80 23 21  01 29 1C 02 00 10 06 80  di1.~.#!.)......
1C10: 00 29 1C 40 00 80 0A 80  01 10 0B 80 40 0C 80 0D  .).@........@...
1C20: 80 01 10 2D 00 21 01 29  1C 01 A5 1C 02 2E 00 07  ...-.!.)........
1C30: 80 80 A5 1C 40 00 80 0A  80 01 10 0E 80 40 0C 80  ....@........@..
1C40: 0D 80 01 10 2D 00 40 1C  80 1D 80 01 10 00 80 03  ....-.@.........
1C50: 02 10 01 80 03 03 10 2D  00 42 45 7D 80 F0 FF FF  .......-.BE}....
1C60: 7F F0 FF FF 7F 66 64 6F  31 00 80 55 7D 80 F0 FF  .....fdo1..U}...
1C70: FF 7F F0 FF FF 7F 66 64  6F 31 1C 06 80 45 7D 80  ......fdo1...E}.
1C80: F0 FF FF 7F F0 FF FF 7F  66 64 69 31 00 80 55 7D  ........fdi1..U}
1C90: 80 F0 FF FF 7F F0 FF FF  7F 66 64 69 31 1D 7E 80  .........fdi1.~.
1CA0: 23 21 01 A5 1C 01 D6 1C  02 00 10 01 80 00 C6 1C  #!..............
1CB0: 40 00 80 0A 80 01 10 0B  80 40 0C 80 0D 80 01 10  @........@......
1CC0: 2D 00 21 01 D6 1C 02 00  10 06 80 00 D6 1C 03 1C  -.!.............
1CD0: 00 01 80 01 D6 1C 01 1E  1B 01 FA 1C 02 00 10 06  ................
1CE0: 80 00 FA 1C 40 00 80 0A  80 01 10 0B 80 40 0C 80  ....@........@..
1CF0: 0D 80 01 10 2D 00 21 01  FA 1C 01 7A 1A 1B        ....-.!....z..  
```

#### Opcodes

```
  0: 0x0091 [0x42] SET_CLI_EVENT_CANCEL_DATA()
  1: 0x0092 [0x1E] EventEntity looks at LocalPlayer and starts talking
  2: 0x0097 [0x06] ExtData[1]->WorkLocal[38] = 0
  3: 0x009A [0x06] ExtData[1]->WorkLocal[39] = 0
  4: 0x009D [0x06] ExtData[1]->WorkLocal[40] = 0
  5: 0x00A0 [0x03] ExtData[1]->WorkLocal[39] = Work_Zone[2]
  6: 0x00A5 [0x03] ExtData[1]->WorkLocal[38] = Work_Zone[3]
  7: 0x00AA [0x03] ExtData[1]->WorkLocal[40] = Work_Zone[5]
  8: 0x00AF [0x03] ExtData[1]->WorkLocal[2] = 0*
  9: 0x00B4 [0x03] ExtData[1]->WorkLocal[42] = 0*
 10: 0x00B9 [0x03] ExtData[1]->WorkLocal[41] = 1*
 11: 0x00BE [0x03] ExtData[1]->WorkLocal[43] = 0*
 12: 0x00C3 [0x03] ExtData[1]->WorkLocal[47] = 1*
 13: 0x00C8 [0x03] ExtData[1]->WorkLocal[33] = Work_Zone[6]
 14: 0x00CD [0x03] ExtData[1]->WorkLocal[32] = Work_Zone[7]
 15: 0x00D2 [0x02] IF !(ExtData[1]->WorkLocal[39] == 0*) GOTO 0x036A
 16: 0x00DA [0x02] IF !(ExtData[1]->WorkLocal[38] == 0*) GOTO 0x00F2
 17: 0x00E2 [0x03] Work_Zone[2] = 0*
 18: 0x00E7 [0x03] ExtData[1]->WorkLocal[45] = 0*
 19: 0x00EC [0x1A] CALL_SUBROUTINE(address=0x1A7A)
 20: 0x00EF [0x01] GOTO 0x0367
 21: 0x00F2 [0x02] IF !(ExtData[1]->WorkLocal[38] == 1*) GOTO 0x010A
 22: 0x00FA [0x03] Work_Zone[2] = 1*
 23: 0x00FF [0x03] ExtData[1]->WorkLocal[45] = 1*
 24: 0x0104 [0x1A] CALL_SUBROUTINE(address=0x1A7A)
 25: 0x0107 [0x01] GOTO 0x0367
 26: 0x010A [0x02] IF !(ExtData[1]->WorkLocal[38] == 2*) GOTO 0x0122
 27: 0x0112 [0x03] Work_Zone[2] = 2*
 28: 0x0117 [0x03] ExtData[1]->WorkLocal[45] = 2*
 29: 0x011C [0x1A] CALL_SUBROUTINE(address=0x1A7A)
 30: 0x011F [0x01] GOTO 0x0367
 31: 0x0122 [0x02] IF !(ExtData[1]->WorkLocal[38] == 3*) GOTO 0x013A
 32: 0x012A [0x03] Work_Zone[2] = 3*
 33: 0x012F [0x03] ExtData[1]->WorkLocal[45] = 3*
 34: 0x0134 [0x1A] CALL_SUBROUTINE(address=0x1A7A)
 35: 0x0137 [0x01] GOTO 0x0367
 36: 0x013A [0x02] IF !(ExtData[1]->WorkLocal[38] == 4*) GOTO 0x016F
 37: 0x0142 [0x02] IF !(ExtData[1]->WorkLocal[40] == 0*) GOTO 0x0164
 38: 0x014A [0x1D] PRINT_EVENT_MESSAGE(message_id=12162*)
    → "I'm sorry, <Player>. It says here that your chocobo is already that color."
 39: 0x014D [0x23] WAIT_FOR_DIALOG_INTERACTION
 40: 0x014E [0x40] SET_BIT_WORK_RANGE(start_bit=0*, end_bit=7*, target=Work_Zone[1], source=5*)
 41: 0x0157 [0x40] SET_BIT_WORK_RANGE(start_bit=8*, end_bit=15*, target=Work_Zone[1], source=ExtData[1]->WorkLocal[38])
 42: 0x0160 [0x21] END_EVENT

SUBROUTINE_016C:
 43: 0x016C [0x01] GOTO 0x0367
 44: 0x016F [0x02] IF !(ExtData[1]->WorkLocal[38] == 5*) GOTO 0x01A4
 45: 0x0177 [0x02] IF !(ExtData[1]->WorkLocal[40] == 1*) GOTO 0x0199
 46: 0x017F [0x1D] PRINT_EVENT_MESSAGE(message_id=12162*)
    → "I'm sorry, <Player>. It says here that your chocobo is already that color."
 47: 0x0182 [0x23] WAIT_FOR_DIALOG_INTERACTION
 48: 0x0183 [0x40] SET_BIT_WORK_RANGE(start_bit=0*, end_bit=7*, target=Work_Zone[1], source=5*)
 49: 0x018C [0x40] SET_BIT_WORK_RANGE(start_bit=8*, end_bit=15*, target=Work_Zone[1], source=ExtData[1]->WorkLocal[38])
 50: 0x0195 [0x21] END_EVENT

SUBROUTINE_01A1:
 51: 0x01A1 [0x01] GOTO 0x0367
 52: 0x01A4 [0x02] IF !(ExtData[1]->WorkLocal[38] == 6*) GOTO 0x01D9
 53: 0x01AC [0x02] IF !(ExtData[1]->WorkLocal[40] == 2*) GOTO 0x01CE
 54: 0x01B4 [0x1D] PRINT_EVENT_MESSAGE(message_id=12162*)
    → "I'm sorry, <Player>. It says here that your chocobo is already that color."
 55: 0x01B7 [0x23] WAIT_FOR_DIALOG_INTERACTION
 56: 0x01B8 [0x40] SET_BIT_WORK_RANGE(start_bit=0*, end_bit=7*, target=Work_Zone[1], source=5*)
 57: 0x01C1 [0x40] SET_BIT_WORK_RANGE(start_bit=8*, end_bit=15*, target=Work_Zone[1], source=ExtData[1]->WorkLocal[38])
 58: 0x01CA [0x21] END_EVENT

SUBROUTINE_01D6:
 59: 0x01D6 [0x01] GOTO 0x0367
 60: 0x01D9 [0x02] IF !(ExtData[1]->WorkLocal[38] == 7*) GOTO 0x020E
 61: 0x01E1 [0x02] IF !(ExtData[1]->WorkLocal[40] == 3*) GOTO 0x0203
 62: 0x01E9 [0x1D] PRINT_EVENT_MESSAGE(message_id=12162*)
    → "I'm sorry, <Player>. It says here that your chocobo is already that color."
 63: 0x01EC [0x23] WAIT_FOR_DIALOG_INTERACTION
 64: 0x01ED [0x40] SET_BIT_WORK_RANGE(start_bit=0*, end_bit=7*, target=Work_Zone[1], source=5*)
 65: 0x01F6 [0x40] SET_BIT_WORK_RANGE(start_bit=8*, end_bit=15*, target=Work_Zone[1], source=ExtData[1]->WorkLocal[38])
 66: 0x01FF [0x21] END_EVENT

SUBROUTINE_020B:
 67: 0x020B [0x01] GOTO 0x0367
 68: 0x020E [0x02] IF !(ExtData[1]->WorkLocal[38] == 8*) GOTO 0x0243
 69: 0x0216 [0x02] IF !(ExtData[1]->WorkLocal[40] == 4*) GOTO 0x0238
 70: 0x021E [0x1D] PRINT_EVENT_MESSAGE(message_id=12162*)
    → "I'm sorry, <Player>. It says here that your chocobo is already that color."
 71: 0x0221 [0x23] WAIT_FOR_DIALOG_INTERACTION
 72: 0x0222 [0x40] SET_BIT_WORK_RANGE(start_bit=0*, end_bit=7*, target=Work_Zone[1], source=5*)
 73: 0x022B [0x40] SET_BIT_WORK_RANGE(start_bit=8*, end_bit=15*, target=Work_Zone[1], source=ExtData[1]->WorkLocal[38])
 74: 0x0234 [0x21] END_EVENT

SUBROUTINE_0240:
 75: 0x0240 [0x01] GOTO 0x0367
 76: 0x0243 [0x02] IF !(ExtData[1]->WorkLocal[38] == 9*) GOTO 0x0256
 77: 0x024B [0x03] ExtData[1]->WorkLocal[43] = 1*
 78: 0x0250 [0x1A] CALL_SUBROUTINE(address=0x16F7)
 79: 0x0253 [0x01] GOTO 0x0367
 80: 0x0256 [0x02] IF !(ExtData[1]->WorkLocal[38] == 10*) GOTO 0x0269
 81: 0x025E [0x03] ExtData[1]->WorkLocal[42] = 92*
 82: 0x0263 [0x1A] CALL_SUBROUTINE(address=0x1817)
 83: 0x0266 [0x01] GOTO 0x0367
 84: 0x0269 [0x02] IF !(ExtData[1]->WorkLocal[38] == 11*) GOTO 0x027C
 85: 0x0271 [0x03] ExtData[1]->WorkLocal[42] = 90*
 86: 0x0276 [0x1A] CALL_SUBROUTINE(address=0x1817)
 87: 0x0279 [0x01] GOTO 0x0367
 88: 0x027C [0x02] IF !(ExtData[1]->WorkLocal[38] == 12*) GOTO 0x028F
 89: 0x0284 [0x03] ExtData[1]->WorkLocal[42] = 86*
 90: 0x0289 [0x1A] CALL_SUBROUTINE(address=0x1817)
 91: 0x028C [0x01] GOTO 0x0367
 92: 0x028F [0x02] IF !(ExtData[1]->WorkLocal[38] == 13*) GOTO 0x02A2
 93: 0x0297 [0x03] ExtData[1]->WorkLocal[42] = 78*
 94: 0x029C [0x1A] CALL_SUBROUTINE(address=0x1817)
 95: 0x029F [0x01] GOTO 0x0367
 96: 0x02A2 [0x02] IF !(ExtData[1]->WorkLocal[38] == 14*) GOTO 0x0367
 97: 0x02AA [0x03] ExtData[1]->WorkLocal[44] = Work_Zone[4]
 98: 0x02AF [0x24] CREATE_DIALOG(message_id=12184*, default_option=0*, option_flags=0*)
    → "Exchange this item for chocobucks? [Yes, please./No, thanks.]"
 99: 0x02B6 [0x25] WAIT_DIALOG_SELECT()
100: 0x02B7 [0x02] IF !(Work_Zone[0] == 0*) GOTO 0x0338
101: 0x02BF [0x40] SET_BIT_WORK_RANGE(start_bit=0*, end_bit=7*, target=Work_Zone[1], source=7*)
102: 0x02C8 [0x40] SET_BIT_WORK_RANGE(start_bit=8*, end_bit=15*, target=Work_Zone[1], source=ExtData[1]->WorkLocal[44])
103: 0x02D1 [0x43] SEND_EVENT_UPDATE: Send pending tag to server (packet 0x005B)
104: 0x02D3 [0x43] SEND_EVENT_UPDATE: Check pending flag (skip if not pending)
105: 0x02D5 [0x03] ExtData[1]->WorkLocal[48] = Work_Zone[2]
106: 0x02DA [0x02] IF !(ExtData[1]->WorkLocal[48] == 0*) GOTO 0x02EE
107: 0x02E2 [0x1D] PRINT_EVENT_MESSAGE(message_id=12186*)
    → "You cannot carry more than 1000 chocobucks."
108: 0x02E5 [0x23] WAIT_FOR_DIALOG_INTERACTION
109: 0x02E6 [0x03] ExtData[1]->WorkLocal[49] = 1*
110: 0x02EB [0x01] GOTO 0x0335
111: 0x02EE [0x02] IF !(ExtData[1]->WorkLocal[48] == 1*) GOTO 0x02FE
112: 0x02F6 [0x03] ExtData[1]->WorkLocal[49] = 0*
113: 0x02FB [0x01] GOTO 0x0335
114: 0x02FE [0x02] IF !(ExtData[1]->WorkLocal[48] == 2*) GOTO 0x0335
115: 0x0306 [0x1D] PRINT_EVENT_MESSAGE(message_id=12185*)
    → "You may only hold up to 1000 chocobucks at any given time. Excess chocobucks over this amount will be discarded. Are you sure you wish to proceed with the transaction?"
116: 0x0309 [0x23] WAIT_FOR_DIALOG_INTERACTION
117: 0x030A [0x24] CREATE_DIALOG(message_id=12184*, default_option=0*, option_flags=0*)
    → "Exchange this item for chocobucks? [Yes, please./No, thanks.]"
118: 0x0311 [0x25] WAIT_DIALOG_SELECT()
119: 0x0312 [0x02] IF !(Work_Zone[0] == 0*) GOTO 0x0322
120: 0x031A [0x03] ExtData[1]->WorkLocal[49] = 0*
121: 0x031F [0x01] GOTO 0x0332
122: 0x0322 [0x02] IF !(Work_Zone[0] == 1*) GOTO 0x0332
123: 0x032A [0x03] ExtData[1]->WorkLocal[49] = 1*
124: 0x032F [0x01] GOTO 0x0332

SUBROUTINE_0332:
125: 0x0332 [0x01] GOTO 0x0335

SUBROUTINE_0335:
126: 0x0335 [0x01] GOTO 0x0348
127: 0x0338 [0x02] IF !(Work_Zone[0] == 1*) GOTO 0x0348
128: 0x0340 [0x03] ExtData[1]->WorkLocal[49] = 1*
129: 0x0345 [0x01] GOTO 0x0348

SUBROUTINE_0348:
130: 0x0348 [0x40] SET_BIT_WORK_RANGE(start_bit=0*, end_bit=7*, target=Work_Zone[1], source=4*)
131: 0x0351 [0x40] SET_BIT_WORK_RANGE(start_bit=8*, end_bit=15*, target=Work_Zone[1], source=ExtData[1]->WorkLocal[49])
132: 0x035A [0x40] SET_BIT_WORK_RANGE(start_bit=16*, end_bit=23*, target=Work_Zone[1], source=ExtData[1]->WorkLocal[44])
133: 0x0363 [0x21] END_EVENT

SUBROUTINE_0367:
134: 0x0367 [0x01] GOTO 0x03B5
135: 0x036A [0x02] IF !(ExtData[1]->WorkLocal[39] == 1*) GOTO 0x0383
136: 0x0372 [0x1D] PRINT_EVENT_MESSAGE(message_id=12121*)
    → "Oh wait... I'm sorry, but we only offer our services to members of this nation's CRA branch. If you wish to browse our wares, you must first sign up with the local CRA official."
137: 0x0375 [0x23] WAIT_FOR_DIALOG_INTERACTION
138: 0x0376 [0x40] SET_BIT_WORK_RANGE(start_bit=8*, end_bit=15*, target=Work_Zone[1], source=10*)
139: 0x037F [0x21] END_EVENT

SUBROUTINE_03B5:
140: 0x03B5 [0x00] END_REQSTACK()

SUBROUTINE_1122:
141: 0x1122 [0x03] ExtData[1]->WorkLocal[55] = Work_Zone[2]
142: 0x1127 [0x02] IF !(ExtData[1]->WorkLocal[55] == 0*) GOTO 0x1132
143: 0x112F [0x01] GOTO 0x120A
144: 0x1132 [0x02] IF !(ExtData[1]->WorkLocal[55] == 1*) GOTO 0x1154
145: 0x113A [0x1D] PRINT_EVENT_MESSAGE(message_id=12167*)
    → "I'm sorry, but any attempts to further raise that attribute may result in serious injury to your chocobo."
146: 0x113D [0x23] WAIT_FOR_DIALOG_INTERACTION
147: 0x113E [0x40] SET_BIT_WORK_RANGE(start_bit=0*, end_bit=7*, target=Work_Zone[1], source=5*)
148: 0x1147 [0x40] SET_BIT_WORK_RANGE(start_bit=8*, end_bit=15*, target=Work_Zone[1], source=ExtData[1]->WorkLocal[38])
149: 0x1150 [0x21] END_EVENT

SUBROUTINE_1160:
150: 0x1160 [0x02] IF !(ExtData[1]->WorkLocal[28] == 0*) GOTO 0x11D4
151: 0x1168 [0x24] CREATE_DIALOG(message_id=12169*, default_option=2*, option_flags=2*)
    → "Do you still wish to proceed? [Yes./Choose another attribute./Quit.]"
152: 0x116F [0x25] WAIT_DIALOG_SELECT()
153: 0x1170 [0x02] IF !(Work_Zone[0] == 0*) GOTO 0x11A3
154: 0x1178 [0x1A] CALL_SUBROUTINE(address=0x120B)
155: 0x117B [0x40] SET_BIT_WORK_RANGE(start_bit=0*, end_bit=7*, target=Work_Zone[1], source=3*)
156: 0x1184 [0x40] SET_BIT_WORK_RANGE(start_bit=8*, end_bit=15*, target=Work_Zone[1], source=0*)
157: 0x118D [0x40] SET_BIT_WORK_RANGE(start_bit=16*, end_bit=23*, target=Work_Zone[1], source=ExtData[1]->WorkLocal[29])
158: 0x1196 [0x40] SET_BIT_WORK_RANGE(start_bit=24*, end_bit=31*, target=Work_Zone[1], source=ExtData[1]->WorkLocal[26])
159: 0x119F [0x21] END_EVENT

SUBROUTINE_11D1:
160: 0x11D1 [0x01] GOTO 0x1160
161: 0x11D4 [0x01] GOTO 0x120A
162: 0x11D7 [0x02] IF !(ExtData[1]->WorkLocal[55] == 3*) GOTO 0x120A
163: 0x11DF [0x1A] CALL_SUBROUTINE(address=0x120B)
164: 0x11E2 [0x40] SET_BIT_WORK_RANGE(start_bit=0*, end_bit=7*, target=Work_Zone[1], source=3*)
165: 0x11EB [0x40] SET_BIT_WORK_RANGE(start_bit=8*, end_bit=15*, target=Work_Zone[1], source=0*)
166: 0x11F4 [0x40] SET_BIT_WORK_RANGE(start_bit=16*, end_bit=23*, target=Work_Zone[1], source=ExtData[1]->WorkLocal[29])
167: 0x11FD [0x40] SET_BIT_WORK_RANGE(start_bit=24*, end_bit=31*, target=Work_Zone[1], source=ExtData[1]->WorkLocal[26])
168: 0x1206 [0x21] END_EVENT

SUBROUTINE_120A:
169: 0x120A [0x1B] RETURN

SUBROUTINE_120B:
170: 0x120B [0x03] Work_Zone[3] = ExtData[1]->WorkLocal[29]
171: 0x1210 [0x08] Work_Zone[3] -= 1*
172: 0x1215 [0x02] IF !(ExtData[1]->WorkLocal[26] == 6*) GOTO 0x1225
173: 0x121D [0x03] Work_Zone[2] = 0*
174: 0x1222 [0x01] GOTO 0x1232
175: 0x1225 [0x02] IF !(ExtData[1]->WorkLocal[26] == 7*) GOTO 0x1232
176: 0x122D [0x03] Work_Zone[2] = 1*

SUBROUTINE_1232:
177: 0x1232 [0x42] SET_CLI_EVENT_CANCEL_DATA()
178: 0x1233 [0x45] LOAD_SCHEDULED_TASK: Load scheduler "fdo1" with entities [LocalPlayer, LocalPlayer], work=[200*, 0*]
179: 0x1244 [0x55] WAIT_LOAD_SCHEDULER: Wait for scheduler "fdo1" with entities [LocalPlayer, LocalPlayer], work=200*
180: 0x1253 [0x1C] WAIT(2* ticks)
181: 0x1256 [0x45] LOAD_SCHEDULED_TASK: Load scheduler "fdi1" with entities [LocalPlayer, LocalPlayer], work=[200*, 0*]
182: 0x1267 [0x55] WAIT_LOAD_SCHEDULER: Wait for scheduler "fdi1" with entities [LocalPlayer, LocalPlayer], work=200*
183: 0x1276 [0x48] [System] [12172*]:
    → "Your [current/retired] chocobo's [strength/endurance/discernment/receptivity/] has improved."
184: 0x1279 [0x23] WAIT_FOR_DIALOG_INTERACTION
185: 0x127A [0x1B] RETURN

SUBROUTINE_13D0:
186: 0x13D0 [0x02] IF !(Work_Zone[2] == 0*) GOTO 0x13E9
187: 0x13D8 [0x1D] PRINT_EVENT_MESSAGE(message_id=12161*)
    → "One of my hands will apply the dye immediately. Your chocobo will sport its stylish new color until you alter its registration."
188: 0x13DB [0x23] WAIT_FOR_DIALOG_INTERACTION
189: 0x13DC [0x40] SET_BIT_WORK_RANGE(start_bit=0*, end_bit=7*, target=Work_Zone[1], source=1*)
190: 0x13E5 [0x21] END_EVENT

SUBROUTINE_13F7:
191: 0x13F7 [0x40] SET_BIT_WORK_RANGE(start_bit=0*, end_bit=7*, target=Work_Zone[1], source=5*)
192: 0x1400 [0x43] SEND_EVENT_UPDATE: Send pending tag to server (packet 0x005B)
193: 0x1402 [0x43] SEND_EVENT_UPDATE: Check pending flag (skip if not pending)
194: 0x1404 [0x41] ExtData[1]->WorkLocal[21] = Work_Zone[3] (bits 0*-7*)
195: 0x140D [0x41] ExtData[1]->WorkLocal[22] = Work_Zone[3] (bits 8*-15*)
196: 0x1416 [0x41] ExtData[1]->WorkLocal[23] = Work_Zone[3] (bits 16*-23*)
197: 0x141F [0x41] ExtData[1]->WorkLocal[24] = Work_Zone[3] (bits 24*-31*)
198: 0x1428 [0x03] Work_Zone[2] = ExtData[1]->WorkLocal[21]
199: 0x142D [0x1D] PRINT_EVENT_MESSAGE(message_id=12174*)
    → "Strength: [Poor/Substandard/A bit deficient/Average/Better than average/Impressive/Outstanding/First-class]"
200: 0x1430 [0x23] WAIT_FOR_DIALOG_INTERACTION
201: 0x1431 [0x03] Work_Zone[2] = ExtData[1]->WorkLocal[22]
202: 0x1436 [0x1D] PRINT_EVENT_MESSAGE(message_id=12175*)
    → "Endurance: [Poor/Substandard/A bit deficient/Average/Better than average/Impressive/Outstanding/First-class]"
203: 0x1439 [0x23] WAIT_FOR_DIALOG_INTERACTION
204: 0x143A [0x03] Work_Zone[2] = ExtData[1]->WorkLocal[23]
205: 0x143F [0x1D] PRINT_EVENT_MESSAGE(message_id=12176*)
    → "Discernment: [Poor/Substandard/A bit deficient/Average/Better than average/Impressive/Outstanding/First-class]"
206: 0x1442 [0x23] WAIT_FOR_DIALOG_INTERACTION
207: 0x1443 [0x03] Work_Zone[2] = ExtData[1]->WorkLocal[24]
208: 0x1448 [0x1D] PRINT_EVENT_MESSAGE(message_id=12177*)
    → "Receptivity: [Poor/Substandard/A bit deficient/Average/Better than average/Impressive/Outstanding/First-class]"
209: 0x144B [0x23] WAIT_FOR_DIALOG_INTERACTION
210: 0x144C [0x1B] RETURN

SUBROUTINE_1691:
211: 0x1691 [0x02] IF !(ExtData[1]->WorkLocal[2] == 0*) GOTO 0x16F6
212: 0x1699 [0x24] CREATE_DIALOG(message_id=12193*, default_option=1*, option_flags=0*)
    → "Is [yellow/black/blue/red/green] okay? (Current: [yellow/black/blue/red/green]) [Yes./No.]"
213: 0x16A0 [0x25] WAIT_DIALOG_SELECT()
214: 0x16A1 [0x02] IF !(Work_Zone[0] == 0*) GOTO 0x16C5
215: 0x16A9 [0x40] SET_BIT_WORK_RANGE(start_bit=0*, end_bit=7*, target=Work_Zone[1], source=4*)
216: 0x16B2 [0x40] SET_BIT_WORK_RANGE(start_bit=8*, end_bit=15*, target=Work_Zone[1], source=Work_Zone[2])
217: 0x16BB [0x43] SEND_EVENT_UPDATE: Send pending tag to server (packet 0x005B)
218: 0x16BD [0x43] SEND_EVENT_UPDATE: Check pending flag (skip if not pending)
219: 0x16BF [0x1A] CALL_SUBROUTINE(address=0x13D0)
220: 0x16C2 [0x01] GOTO 0x16F3
221: 0x16C5 [0x02] IF !(Work_Zone[0] == 1*) GOTO 0x16F3
222: 0x16CD [0x02] IF !(ExtData[1]->WorkLocal[47] == 1*) GOTO 0x16EA
223: 0x16D5 [0x40] SET_BIT_WORK_RANGE(start_bit=0*, end_bit=7*, target=Work_Zone[1], source=5*)
224: 0x16DE [0x40] SET_BIT_WORK_RANGE(start_bit=8*, end_bit=15*, target=Work_Zone[1], source=4*)
225: 0x16E7 [0x01] GOTO 0x16EF
226: 0x16EA [0x03] Work_Zone[1] = 0*

SUBROUTINE_16EF:
227: 0x16EF [0x21] END_EVENT

SUBROUTINE_16F3:
228: 0x16F3 [0x01] GOTO 0x1691
229: 0x16F6 [0x1B] RETURN

SUBROUTINE_16F7:
230: 0x16F7 [0x02] IF !(ExtData[1]->WorkLocal[33] == 1*) GOTO 0x17F7
231: 0x16FF [0x02] IF !(ExtData[1]->WorkLocal[32] == 1*) GOTO 0x17C2
232: 0x1707 [0x03] ExtData[1]->WorkLocal[2] = 0*

SUBROUTINE_170C:
233: 0x170C [0x02] IF !(ExtData[1]->WorkLocal[2] == 0*) GOTO 0x17BF
234: 0x1714 [0x24] CREATE_DIALOG(message_id=12170*, default_option=1*, option_flags=4*)
    → "Are you sure? [Yes. Hurry up already!/Just forget it./Wait! I need more time...]"
235: 0x171B [0x25] WAIT_DIALOG_SELECT()
236: 0x171C [0x02] IF !(Work_Zone[0] == 0*) GOTO 0x1775
237: 0x1724 [0x42] SET_CLI_EVENT_CANCEL_DATA()
238: 0x1725 [0x45] LOAD_SCHEDULED_TASK: Load scheduler "fdo1" with entities [LocalPlayer, LocalPlayer], work=[200*, 0*]
239: 0x1736 [0x55] WAIT_LOAD_SCHEDULER: Wait for scheduler "fdo1" with entities [LocalPlayer, LocalPlayer], work=200*
240: 0x1745 [0x1C] WAIT(2* ticks)
241: 0x1748 [0x45] LOAD_SCHEDULED_TASK: Load scheduler "fdi1" with entities [LocalPlayer, LocalPlayer], work=[200*, 0*]
242: 0x1759 [0x55] WAIT_LOAD_SCHEDULER: Wait for scheduler "fdi1" with entities [LocalPlayer, LocalPlayer], work=200*
243: 0x1768 [0x40] SET_BIT_WORK_RANGE(start_bit=0*, end_bit=7*, target=Work_Zone[1], source=2*)
244: 0x1771 [0x21] END_EVENT

SUBROUTINE_17A4:
245: 0x17A4 [0x03] ExtData[1]->WorkLocal[2] = 1*
246: 0x17A9 [0x01] GOTO 0x17BC
247: 0x17AC [0x02] IF !(Work_Zone[0] == 2*) GOTO 0x17BC
248: 0x17B4 [0x03] ExtData[1]->WorkLocal[2] = 1*
249: 0x17B9 [0x01] GOTO 0x17BC

SUBROUTINE_17BC:
250: 0x17BC [0x01] GOTO 0x170C
251: 0x17BF [0x01] GOTO 0x17F4
252: 0x17C2 [0x02] IF !(ExtData[1]->WorkLocal[32] == 0*) GOTO 0x17F4
253: 0x17CA [0x1D] PRINT_EVENT_MESSAGE(message_id=12182*)
    → "Your chocobo seems to have run away from the stables. I'm sorry, but we are unable to train it at this time."
254: 0x17CD [0x23] WAIT_FOR_DIALOG_INTERACTION
255: 0x17CE [0x02] IF !(ExtData[1]->WorkLocal[43] == 1*) GOTO 0x17EB
256: 0x17D6 [0x40] SET_BIT_WORK_RANGE(start_bit=0*, end_bit=7*, target=Work_Zone[1], source=5*)
257: 0x17DF [0x40] SET_BIT_WORK_RANGE(start_bit=8*, end_bit=15*, target=Work_Zone[1], source=9*)
258: 0x17E8 [0x01] GOTO 0x17F4
259: 0x17EB [0x40] SET_BIT_WORK_RANGE(start_bit=0*, end_bit=7*, target=Work_Zone[1], source=0*)

SUBROUTINE_17F4:
260: 0x17F4 [0x01] GOTO 0x1816
261: 0x17F7 [0x1D] PRINT_EVENT_MESSAGE(message_id=12146*)
    → "I'm sorry. The programs are only available to adult chocobos still residing in the stables."
262: 0x17FA [0x23] WAIT_FOR_DIALOG_INTERACTION
263: 0x17FB [0x02] IF !(ExtData[1]->WorkLocal[43] == 1*) GOTO 0x1816
264: 0x1803 [0x40] SET_BIT_WORK_RANGE(start_bit=0*, end_bit=7*, target=Work_Zone[1], source=5*)
265: 0x180C [0x40] SET_BIT_WORK_RANGE(start_bit=8*, end_bit=15*, target=Work_Zone[1], source=9*)
266: 0x1815 [0x21] END_EVENT

SUBROUTINE_1816:
267: 0x1816 [0x1B] RETURN

SUBROUTINE_1817:
268: 0x1817 [0x40] SET_BIT_WORK_RANGE(start_bit=0*, end_bit=7*, target=Work_Zone[1], source=1*)
269: 0x1820 [0x43] SEND_EVENT_UPDATE: Send pending tag to server (packet 0x005B)
270: 0x1822 [0x43] SEND_EVENT_UPDATE: Check pending flag (skip if not pending)
271: 0x1824 [0x03] ExtData[1]->WorkLocal[18] = Work_Zone[6]
272: 0x1829 [0x02] IF !(ExtData[1]->WorkLocal[18] == 1*) GOTO 0x1A62
273: 0x1831 [0x02] IF !(Work_Zone[7] == 1*) GOTO 0x1A4C

SUBROUTINE_1839:
274: 0x1839 [0x02] IF !(ExtData[1]->WorkLocal[1] == 0*) GOTO 0x1A49
275: 0x1841 [0x03] ExtData[1]->WorkLocal[28] = 0*
276: 0x1846 [0x24] CREATE_DIALOG(message_id=12165*, default_option=0*, option_flags=ExtData[1]->WorkLocal[42])
    → "What do you require? [Information on my current chocobo./A strength upgrade./An endurance upgrade./A discernment upgrade./A receptivity upgrade./Nothing./Return.]"
277: 0x184D [0x25] WAIT_DIALOG_SELECT()
278: 0x184E [0x02] IF !(Work_Zone[0] == 0*) GOTO 0x185C
279: 0x1856 [0x1A] CALL_SUBROUTINE(address=0x13F7)
280: 0x1859 [0x01] GOTO 0x1A46
281: 0x185C [0x02] IF !(Work_Zone[0] == 1*) GOTO 0x18CB
282: 0x1864 [0x24] CREATE_DIALOG(message_id=12170*, default_option=1*, option_flags=4*)
    → "Are you sure? [Yes. Hurry up already!/Just forget it./Wait! I need more time...]"
283: 0x186B [0x25] WAIT_DIALOG_SELECT()
284: 0x186C [0x02] IF !(Work_Zone[0] == 0*) GOTO 0x189A
285: 0x1874 [0x40] SET_BIT_WORK_RANGE(start_bit=0*, end_bit=7*, target=Work_Zone[1], source=6*)
286: 0x187D [0x40] SET_BIT_WORK_RANGE(start_bit=8*, end_bit=15*, target=Work_Zone[1], source=1*)
287: 0x1886 [0x43] SEND_EVENT_UPDATE: Send pending tag to server (packet 0x005B)
288: 0x1888 [0x43] SEND_EVENT_UPDATE: Check pending flag (skip if not pending)
289: 0x188A [0x03] ExtData[1]->WorkLocal[29] = 1*
290: 0x188F [0x03] ExtData[1]->WorkLocal[26] = 6*
291: 0x1894 [0x1A] CALL_SUBROUTINE(address=0x1122)
292: 0x1897 [0x01] GOTO 0x18C8
293: 0x189A [0x02] IF !(Work_Zone[0] == 1*) GOTO 0x18B8
294: 0x18A2 [0x40] SET_BIT_WORK_RANGE(start_bit=0*, end_bit=7*, target=Work_Zone[1], source=5*)
295: 0x18AB [0x40] SET_BIT_WORK_RANGE(start_bit=8*, end_bit=15*, target=Work_Zone[1], source=ExtData[1]->WorkLocal[38])
296: 0x18B4 [0x21] END_EVENT

SUBROUTINE_18C8:
297: 0x18C8 [0x01] GOTO 0x1A46
298: 0x18CB [0x02] IF !(Work_Zone[0] == 2*) GOTO 0x193A
299: 0x18D3 [0x24] CREATE_DIALOG(message_id=12170*, default_option=1*, option_flags=4*)
    → "Are you sure? [Yes. Hurry up already!/Just forget it./Wait! I need more time...]"
300: 0x18DA [0x25] WAIT_DIALOG_SELECT()
301: 0x18DB [0x02] IF !(Work_Zone[0] == 0*) GOTO 0x1909
302: 0x18E3 [0x40] SET_BIT_WORK_RANGE(start_bit=0*, end_bit=7*, target=Work_Zone[1], source=6*)
303: 0x18EC [0x40] SET_BIT_WORK_RANGE(start_bit=8*, end_bit=15*, target=Work_Zone[1], source=2*)
304: 0x18F5 [0x43] SEND_EVENT_UPDATE: Send pending tag to server (packet 0x005B)
305: 0x18F7 [0x43] SEND_EVENT_UPDATE: Check pending flag (skip if not pending)
306: 0x18F9 [0x03] ExtData[1]->WorkLocal[29] = 2*
307: 0x18FE [0x03] ExtData[1]->WorkLocal[26] = 6*
308: 0x1903 [0x1A] CALL_SUBROUTINE(address=0x1122)
309: 0x1906 [0x01] GOTO 0x1937
310: 0x1909 [0x02] IF !(Work_Zone[0] == 1*) GOTO 0x1927
311: 0x1911 [0x40] SET_BIT_WORK_RANGE(start_bit=0*, end_bit=7*, target=Work_Zone[1], source=5*)
312: 0x191A [0x40] SET_BIT_WORK_RANGE(start_bit=8*, end_bit=15*, target=Work_Zone[1], source=ExtData[1]->WorkLocal[38])
313: 0x1923 [0x21] END_EVENT

SUBROUTINE_1937:
314: 0x1937 [0x01] GOTO 0x1A46
315: 0x193A [0x02] IF !(Work_Zone[0] == 3*) GOTO 0x19A9
316: 0x1942 [0x24] CREATE_DIALOG(message_id=12170*, default_option=1*, option_flags=4*)
    → "Are you sure? [Yes. Hurry up already!/Just forget it./Wait! I need more time...]"
317: 0x1949 [0x25] WAIT_DIALOG_SELECT()
318: 0x194A [0x02] IF !(Work_Zone[0] == 0*) GOTO 0x1978
319: 0x1952 [0x40] SET_BIT_WORK_RANGE(start_bit=0*, end_bit=7*, target=Work_Zone[1], source=6*)
320: 0x195B [0x40] SET_BIT_WORK_RANGE(start_bit=8*, end_bit=15*, target=Work_Zone[1], source=3*)
321: 0x1964 [0x43] SEND_EVENT_UPDATE: Send pending tag to server (packet 0x005B)
322: 0x1966 [0x43] SEND_EVENT_UPDATE: Check pending flag (skip if not pending)
323: 0x1968 [0x03] ExtData[1]->WorkLocal[29] = 3*
324: 0x196D [0x03] ExtData[1]->WorkLocal[26] = 6*
325: 0x1972 [0x1A] CALL_SUBROUTINE(address=0x1122)
326: 0x1975 [0x01] GOTO 0x19A6
327: 0x1978 [0x02] IF !(Work_Zone[0] == 1*) GOTO 0x1996
328: 0x1980 [0x40] SET_BIT_WORK_RANGE(start_bit=0*, end_bit=7*, target=Work_Zone[1], source=5*)
329: 0x1989 [0x40] SET_BIT_WORK_RANGE(start_bit=8*, end_bit=15*, target=Work_Zone[1], source=ExtData[1]->WorkLocal[38])
330: 0x1992 [0x21] END_EVENT

SUBROUTINE_19A6:
331: 0x19A6 [0x01] GOTO 0x1A46
332: 0x19A9 [0x02] IF !(Work_Zone[0] == 4*) GOTO 0x1A18
333: 0x19B1 [0x24] CREATE_DIALOG(message_id=12170*, default_option=1*, option_flags=4*)
    → "Are you sure? [Yes. Hurry up already!/Just forget it./Wait! I need more time...]"
334: 0x19B8 [0x25] WAIT_DIALOG_SELECT()
335: 0x19B9 [0x02] IF !(Work_Zone[0] == 0*) GOTO 0x19E7
336: 0x19C1 [0x40] SET_BIT_WORK_RANGE(start_bit=0*, end_bit=7*, target=Work_Zone[1], source=6*)
337: 0x19CA [0x40] SET_BIT_WORK_RANGE(start_bit=8*, end_bit=15*, target=Work_Zone[1], source=4*)
338: 0x19D3 [0x43] SEND_EVENT_UPDATE: Send pending tag to server (packet 0x005B)
339: 0x19D5 [0x43] SEND_EVENT_UPDATE: Check pending flag (skip if not pending)
340: 0x19D7 [0x03] ExtData[1]->WorkLocal[29] = 4*
341: 0x19DC [0x03] ExtData[1]->WorkLocal[26] = 6*
342: 0x19E1 [0x1A] CALL_SUBROUTINE(address=0x1122)
343: 0x19E4 [0x01] GOTO 0x1A15
344: 0x19E7 [0x02] IF !(Work_Zone[0] == 1*) GOTO 0x1A05
345: 0x19EF [0x40] SET_BIT_WORK_RANGE(start_bit=0*, end_bit=7*, target=Work_Zone[1], source=5*)
346: 0x19F8 [0x40] SET_BIT_WORK_RANGE(start_bit=8*, end_bit=15*, target=Work_Zone[1], source=ExtData[1]->WorkLocal[38])
347: 0x1A01 [0x21] END_EVENT

SUBROUTINE_1A15:
348: 0x1A15 [0x01] GOTO 0x1A46
349: 0x1A18 [0x02] IF !(Work_Zone[0] == 5*) GOTO 0x1A36
350: 0x1A20 [0x40] SET_BIT_WORK_RANGE(start_bit=0*, end_bit=7*, target=Work_Zone[1], source=5*)
351: 0x1A29 [0x40] SET_BIT_WORK_RANGE(start_bit=8*, end_bit=15*, target=Work_Zone[1], source=ExtData[1]->WorkLocal[38])
352: 0x1A32 [0x21] END_EVENT

SUBROUTINE_1A46:
353: 0x1A46 [0x01] GOTO 0x1839
354: 0x1A49 [0x01] GOTO 0x1A5F
355: 0x1A4C [0x40] SET_BIT_WORK_RANGE(start_bit=0*, end_bit=7*, target=Work_Zone[1], source=5*)
356: 0x1A55 [0x40] SET_BIT_WORK_RANGE(start_bit=8*, end_bit=15*, target=Work_Zone[1], source=ExtData[1]->WorkLocal[38])
357: 0x1A5E [0x21] END_EVENT

SUBROUTINE_1A5F:
358: 0x1A5F [0x01] GOTO 0x1A79
359: 0x1A62 [0x1D] PRINT_EVENT_MESSAGE(message_id=12146*)
    → "I'm sorry. The programs are only available to adult chocobos still residing in the stables."
360: 0x1A65 [0x23] WAIT_FOR_DIALOG_INTERACTION
361: 0x1A66 [0x40] SET_BIT_WORK_RANGE(start_bit=0*, end_bit=7*, target=Work_Zone[1], source=5*)
362: 0x1A6F [0x40] SET_BIT_WORK_RANGE(start_bit=8*, end_bit=15*, target=Work_Zone[1], source=ExtData[1]->WorkLocal[38])
363: 0x1A78 [0x21] END_EVENT

SUBROUTINE_1A79:
364: 0x1A79 [0x1B] RETURN

SUBROUTINE_1A7A:
365: 0x1A7A [0x02] IF !(ExtData[1]->WorkLocal[27] == 0*) GOTO 0x1CFD
366: 0x1A82 [0x03] ExtData[1]->WorkLocal[28] = 0*
367: 0x1A87 [0x03] Work_Zone[2] = ExtData[1]->WorkLocal[45]
368: 0x1A8C [0x24] CREATE_DIALOG(message_id=12166*, default_option=0*, option_flags=0*)
    → "What do you require? [Information on my retired chocobo./[A strength/An endurance/A discernment/A receptivity/] upgrade./Nothing.]"
369: 0x1A93 [0x25] WAIT_DIALOG_SELECT()
370: 0x1A94 [0x02] IF !(Work_Zone[0] == 0*) GOTO 0x1B16
371: 0x1A9C [0x40] SET_BIT_WORK_RANGE(start_bit=0*, end_bit=7*, target=Work_Zone[1], source=10*)
372: 0x1AA5 [0x40] SET_BIT_WORK_RANGE(start_bit=8*, end_bit=15*, target=Work_Zone[1], source=ExtData[1]->WorkLocal[45])
373: 0x1AAE [0x43] SEND_EVENT_UPDATE: Send pending tag to server (packet 0x005B)
374: 0x1AB0 [0x43] SEND_EVENT_UPDATE: Check pending flag (skip if not pending)
375: 0x1AB2 [0x03] ExtData[1]->WorkLocal[60] = Work_Zone[2]
376: 0x1AB7 [0x41] ExtData[1]->WorkLocal[61] = ExtData[1]->WorkLocal[60] (bits 1*-7*)
377: 0x1AC0 [0x15] ExtData[1]->WorkLocal[61] /= 16*
378: 0x1AC5 [0x03] Work_Zone[2] = ExtData[1]->WorkLocal[61]
379: 0x1ACA [0x1D] PRINT_EVENT_MESSAGE(message_id=12178*)
    → "Strength: [Poor/Substandard/A bit deficient/Average/Better than average/Impressive/Outstanding/First-class]"
380: 0x1ACD [0x23] WAIT_FOR_DIALOG_INTERACTION
381: 0x1ACE [0x41] ExtData[1]->WorkLocal[61] = ExtData[1]->WorkLocal[60] (bits 9*-15*)
382: 0x1AD7 [0x15] ExtData[1]->WorkLocal[61] /= 16*
383: 0x1ADC [0x03] Work_Zone[2] = ExtData[1]->WorkLocal[61]
384: 0x1AE1 [0x1D] PRINT_EVENT_MESSAGE(message_id=12179*)
    → "Endurance: [Poor/Substandard/A bit deficient/Average/Better than average/Impressive/Outstanding/First-class]"
385: 0x1AE4 [0x23] WAIT_FOR_DIALOG_INTERACTION
386: 0x1AE5 [0x41] ExtData[1]->WorkLocal[61] = ExtData[1]->WorkLocal[60] (bits 17*-23*)
387: 0x1AEE [0x15] ExtData[1]->WorkLocal[61] /= 16*
388: 0x1AF3 [0x03] Work_Zone[2] = ExtData[1]->WorkLocal[61]
389: 0x1AF8 [0x1D] PRINT_EVENT_MESSAGE(message_id=12180*)
    → "Discernment: [Poor/Substandard/A bit deficient/Average/Better than average/Impressive/Outstanding/First-class]"
390: 0x1AFB [0x23] WAIT_FOR_DIALOG_INTERACTION
391: 0x1AFC [0x41] ExtData[1]->WorkLocal[61] = ExtData[1]->WorkLocal[60] (bits 25*-31*)
392: 0x1B05 [0x15] ExtData[1]->WorkLocal[61] /= 16*
393: 0x1B0A [0x03] Work_Zone[2] = ExtData[1]->WorkLocal[61]
394: 0x1B0F [0x1D] PRINT_EVENT_MESSAGE(message_id=12181*)
    → "Receptivity: [Poor/Substandard/A bit deficient/Average/Better than average/Impressive/Outstanding/First-class]"
395: 0x1B12 [0x23] WAIT_FOR_DIALOG_INTERACTION
396: 0x1B13 [0x01] GOTO 0x1CFA
397: 0x1B16 [0x02] IF !(Work_Zone[0] == 1*) GOTO 0x1CDC

SUBROUTINE_1B1E:
398: 0x1B1E [0x02] IF !(ExtData[1]->WorkLocal[28] == 0*) GOTO 0x1CD9
399: 0x1B26 [0x24] CREATE_DIALOG(message_id=12170*, default_option=1*, option_flags=4*)
    → "Are you sure? [Yes. Hurry up already!/Just forget it./Wait! I need more time...]"
400: 0x1B2D [0x25] WAIT_DIALOG_SELECT()
401: 0x1B2E [0x02] IF !(Work_Zone[0] == 0*) GOTO 0x1CA8
402: 0x1B36 [0x40] SET_BIT_WORK_RANGE(start_bit=0*, end_bit=7*, target=Work_Zone[1], source=11*)
403: 0x1B3F [0x40] SET_BIT_WORK_RANGE(start_bit=8*, end_bit=15*, target=Work_Zone[1], source=ExtData[1]->WorkLocal[45])
404: 0x1B48 [0x43] SEND_EVENT_UPDATE: Send pending tag to server (packet 0x005B)
405: 0x1B4A [0x43] SEND_EVENT_UPDATE: Check pending flag (skip if not pending)
406: 0x1B4C [0x03] ExtData[1]->WorkLocal[46] = Work_Zone[2]
407: 0x1B51 [0x02] IF !(ExtData[1]->WorkLocal[46] == 0*) GOTO 0x1B5C
408: 0x1B59 [0x01] GOTO 0x1CA5
409: 0x1B5C [0x02] IF !(ExtData[1]->WorkLocal[46] == 1*) GOTO 0x1B7E
410: 0x1B64 [0x1D] PRINT_EVENT_MESSAGE(message_id=12167*)
    → "I'm sorry, but any attempts to further raise that attribute may result in serious injury to your chocobo."
411: 0x1B67 [0x23] WAIT_FOR_DIALOG_INTERACTION
412: 0x1B68 [0x40] SET_BIT_WORK_RANGE(start_bit=0*, end_bit=7*, target=Work_Zone[1], source=5*)
413: 0x1B71 [0x40] SET_BIT_WORK_RANGE(start_bit=8*, end_bit=15*, target=Work_Zone[1], source=ExtData[1]->WorkLocal[45])
414: 0x1B7A [0x21] END_EVENT

SUBROUTINE_1C29:
415: 0x1C29 [0x01] GOTO 0x1CA5
416: 0x1C2C [0x02] IF !(ExtData[1]->WorkLocal[46] == 3*) GOTO 0x1CA5
417: 0x1C34 [0x40] SET_BIT_WORK_RANGE(start_bit=0*, end_bit=7*, target=Work_Zone[1], source=6*)
418: 0x1C3D [0x40] SET_BIT_WORK_RANGE(start_bit=8*, end_bit=15*, target=Work_Zone[1], source=ExtData[1]->WorkLocal[45])
419: 0x1C46 [0x40] SET_BIT_WORK_RANGE(start_bit=16*, end_bit=23*, target=Work_Zone[1], source=0*)
420: 0x1C4F [0x03] Work_Zone[2] = 1*
421: 0x1C54 [0x03] Work_Zone[3] = ExtData[1]->WorkLocal[45]
422: 0x1C59 [0x42] SET_CLI_EVENT_CANCEL_DATA()
423: 0x1C5A [0x45] LOAD_SCHEDULED_TASK: Load scheduler "fdo1" with entities [LocalPlayer, LocalPlayer], work=[200*, 0*]
424: 0x1C6B [0x55] WAIT_LOAD_SCHEDULER: Wait for scheduler "fdo1" with entities [LocalPlayer, LocalPlayer], work=200*
425: 0x1C7A [0x1C] WAIT(2* ticks)
426: 0x1C7D [0x45] LOAD_SCHEDULED_TASK: Load scheduler "fdi1" with entities [LocalPlayer, LocalPlayer], work=[200*, 0*]
427: 0x1C8E [0x55] WAIT_LOAD_SCHEDULER: Wait for scheduler "fdi1" with entities [LocalPlayer, LocalPlayer], work=200*
428: 0x1C9D [0x1D] PRINT_EVENT_MESSAGE(message_id=12172*)
    → "Your [current/retired] chocobo's [strength/endurance/discernment/receptivity/] has improved."
429: 0x1CA0 [0x23] WAIT_FOR_DIALOG_INTERACTION
430: 0x1CA1 [0x21] END_EVENT

SUBROUTINE_1CA5:
431: 0x1CA5 [0x01] GOTO 0x1CD6
432: 0x1CA8 [0x02] IF !(Work_Zone[0] == 1*) GOTO 0x1CC6
433: 0x1CB0 [0x40] SET_BIT_WORK_RANGE(start_bit=0*, end_bit=7*, target=Work_Zone[1], source=5*)
434: 0x1CB9 [0x40] SET_BIT_WORK_RANGE(start_bit=8*, end_bit=15*, target=Work_Zone[1], source=ExtData[1]->WorkLocal[45])
435: 0x1CC2 [0x21] END_EVENT

SUBROUTINE_1CD6:
436: 0x1CD6 [0x01] GOTO 0x1B1E
437: 0x1CD9 [0x01] GOTO 0x1CFA
438: 0x1CDC [0x02] IF !(Work_Zone[0] == 2*) GOTO 0x1CFA
439: 0x1CE4 [0x40] SET_BIT_WORK_RANGE(start_bit=0*, end_bit=7*, target=Work_Zone[1], source=5*)
440: 0x1CED [0x40] SET_BIT_WORK_RANGE(start_bit=8*, end_bit=15*, target=Work_Zone[1], source=ExtData[1]->WorkLocal[45])
441: 0x1CF6 [0x21] END_EVENT

SUBROUTINE_1CFA:
442: 0x1CFA [0x01] GOTO 0x1A7A
443: 0x1CFD [0x1B] RETURN
```

#### Data or dead code:

```
# Dead code (unreachable instructions):
     0x0161 [0x01] GOTO 0x016C
# Dead code (unreachable instructions):
     0x0196 [0x01] GOTO 0x01A1
# Dead code (unreachable instructions):
     0x01CB [0x01] GOTO 0x01D6
# Dead code (unreachable instructions):
     0x0200 [0x01] GOTO 0x020B
# Dead code (unreachable instructions):
     0x0235 [0x01] GOTO 0x0240
# Dead code (unreachable instructions):
     0x0364 [0x01] GOTO 0x0367
# Dead code (unreachable instructions):
     0x0380 [0x01] GOTO 0x03B5
     0x0399 [0x01] GOTO 0x03B5
     0x03B2 [0x01] GOTO 0x03B5
# Dead code (unreachable instructions):
     0x03B6 [0x93] DISPLAY_ITEM_INFO(item_id=0*)
     0x03B9 [0x03] ExtData[1]->WorkLocal[51] = 0*
     0x03BE [0x02] IF !(ExtData[1]->WorkLocal[0] == 0*) GOTO 0x0607
     0x03C6 [0x03] ExtData[1]->WorkLocal[1] = 0*
     0x03CB [0x03] ExtData[1]->WorkLocal[2] = 0*
     0x03D0 [0x40] SET_BIT_WORK_RANGE(start_bit=0*, end_bit=7*, target=Work_Zone[1], source=7*)
     0x03D9 [0x43] SEND_EVENT_UPDATE: Send pending tag to server (packet 0x005B)
     0x03DB [0x43] SEND_EVENT_UPDATE: Check pending flag (skip if not pending)
     0x03DD [0x02] IF !(Work_Zone[2] == 1*) GOTO 0x03ED
     0x03E5 [0x03] ExtData[1]->WorkLocal[50] = 0*
     0x03EA [0x01] GOTO 0x0412
     0x03ED [0x02] IF !(Work_Zone[2] == 2*) GOTO 0x03FD
     0x03F5 [0x03] ExtData[1]->WorkLocal[50] = 512*
     0x03FA [0x01] GOTO 0x0412
     0x03FD [0x02] IF !(Work_Zone[2] == 3*) GOTO 0x040D
     0x0405 [0x03] ExtData[1]->WorkLocal[50] = 768*
     0x040A [0x01] GOTO 0x0412
     0x040D [0x03] ExtData[1]->WorkLocal[50] = 768*
     0x0412 [0x0E] ExtData[1]->WorkLocal[50] |= 12*
     0x0417 [0x03] Work_Zone[3] = ExtData[1]->WorkLocal[7]
     0x041C [0x24] CREATE_DIALOG(message_id=12125*, default_option=ExtData[1]->WorkLocal[51], option_flags=ExtData[1]->WorkLocal[50])
    → "Browse which items? ($1 chocobuck[/s]) [1-chocobuck."-chocobuck./10-chocobuck."0-chocobuck./40-chocobuck./50-chocobuck./75-chocobuck./80-chocobuck./90-chocobuck./100-chocobuck./150-chocobuck./500-chocobuck./Quit./Back.]"
     0x0423 [0x25] WAIT_DIALOG_SELECT()
     0x0424 [0x02] IF !(Work_Zone[0] == 0*) GOTO 0x044A
     0x042C [0x1D] PRINT_EVENT_MESSAGE(message_id=12129*)
    → "For 1 chocobuck, you can purchase items that are useful during chocobo training. Additionally, we will give you a freebie for every 5 simultaneous exchanges you make."
     0x042F [0x23] WAIT_FOR_DIALOG_INTERACTION
     0x0430 [0x03] ExtData[1]->WorkLocal[4] = 1*
     0x0435 [0x03] ExtData[1]->WorkLocal[5] = 192*
     0x043A [0x03] ExtData[1]->WorkLocal[25] = 0*
     0x043F [0x03] ExtData[1]->WorkLocal[51] = Work_Zone[0]
     0x0444 [0x1A] CALL_SUBROUTINE(address=0x0609)
     0x0447 [0x01] GOTO 0x0604
     0x044A [0x02] IF !(Work_Zone[0] == 1*) GOTO 0x0470
     0x0452 [0x1D] PRINT_EVENT_MESSAGE(message_id=12130*)
    → "For 3 chocobucks, you can purchase items that are useful during chocobo training. Additionally, we will give you a freebie for every 5 simultaneous exchanges you make."
     0x0455 [0x23] WAIT_FOR_DIALOG_INTERACTION
     0x0456 [0x03] ExtData[1]->WorkLocal[4] = 2*
     0x045B [0x03] ExtData[1]->WorkLocal[5] = 0*
     0x0460 [0x03] ExtData[1]->WorkLocal[25] = 0*
     0x0465 [0x03] ExtData[1]->WorkLocal[51] = Work_Zone[0]
     0x046A [0x1A] CALL_SUBROUTINE(address=0x0609)
     0x046D [0x01] GOTO 0x0604
     0x0470 [0x02] IF !(Work_Zone[0] == 2*) GOTO 0x0496
     0x0478 [0x1D] PRINT_EVENT_MESSAGE(message_id=12131*)
    → "For 10 chocobucks, you can purchase one dozen of an item that is useful during chocobo training."
     0x047B [0x23] WAIT_FOR_DIALOG_INTERACTION
     0x047C [0x03] ExtData[1]->WorkLocal[4] = 3*
     0x0481 [0x03] ExtData[1]->WorkLocal[5] = 192*
     0x0486 [0x03] ExtData[1]->WorkLocal[25] = 1*
     0x048B [0x03] ExtData[1]->WorkLocal[51] = Work_Zone[0]
     0x0490 [0x1A] CALL_SUBROUTINE(address=0x0609)
     0x0493 [0x01] GOTO 0x0604
     0x0496 [0x02] IF !(Work_Zone[0] == 3*) GOTO 0x04BC
     0x049E [0x1D] PRINT_EVENT_MESSAGE(message_id=12132*)
    → "For 30 chocobucks, you can purchase one dozen of an item that is useful during chocobo training."
     0x04A1 [0x23] WAIT_FOR_DIALOG_INTERACTION
     0x04A2 [0x03] ExtData[1]->WorkLocal[4] = 4*
     0x04A7 [0x03] ExtData[1]->WorkLocal[5] = 128*
     0x04AC [0x03] ExtData[1]->WorkLocal[25] = 1*
     0x04B1 [0x03] ExtData[1]->WorkLocal[51] = Work_Zone[0]
     0x04B6 [0x1A] CALL_SUBROUTINE(address=0x0609)
     0x04B9 [0x01] GOTO 0x0604
     0x04BC [0x02] IF !(Work_Zone[0] == 4*) GOTO 0x04E2
     0x04C4 [0x1D] PRINT_EVENT_MESSAGE(message_id=12133*)
    → "For 40 chocobucks, you can purchase items that are useful during chocobo training."
     0x04C7 [0x23] WAIT_FOR_DIALOG_INTERACTION
     0x04C8 [0x03] ExtData[1]->WorkLocal[4] = 5*
     0x04CD [0x03] ExtData[1]->WorkLocal[5] = 252*
     0x04D2 [0x03] ExtData[1]->WorkLocal[25] = 0*
     0x04D7 [0x03] ExtData[1]->WorkLocal[51] = Work_Zone[0]
     0x04DC [0x1A] CALL_SUBROUTINE(address=0x0609)
     0x04DF [0x01] GOTO 0x0604
     0x04E2 [0x02] IF !(Work_Zone[0] == 5*) GOTO 0x0508
     0x04EA [0x1D] PRINT_EVENT_MESSAGE(message_id=12134*)
    → "For 50 chocobucks, you can purchase items that are useful during chocobo training."
     0x04ED [0x23] WAIT_FOR_DIALOG_INTERACTION
     0x04EE [0x03] ExtData[1]->WorkLocal[4] = 6*
     0x04F3 [0x03] ExtData[1]->WorkLocal[5] = 252*
     0x04F8 [0x03] ExtData[1]->WorkLocal[25] = 0*
     0x04FD [0x03] ExtData[1]->WorkLocal[51] = Work_Zone[0]
     0x0502 [0x1A] CALL_SUBROUTINE(address=0x0609)
     0x0505 [0x01] GOTO 0x0604
     0x0508 [0x02] IF !(Work_Zone[0] == 6*) GOTO 0x052E
     0x0510 [0x1D] PRINT_EVENT_MESSAGE(message_id=12135*)
    → "For 75 chocobucks, you can purchase a special type of feather dye that will change the color of your chocobo. Your chocobo will sport its stylish new color until you alter its registration."
     0x0513 [0x23] WAIT_FOR_DIALOG_INTERACTION
     0x0514 [0x03] ExtData[1]->WorkLocal[4] = 7*
     0x0519 [0x03] ExtData[1]->WorkLocal[5] = 224*
     0x051E [0x03] ExtData[1]->WorkLocal[25] = 0*
     0x0523 [0x03] ExtData[1]->WorkLocal[51] = Work_Zone[0]
     0x0528 [0x1A] CALL_SUBROUTINE(address=0x0609)
     0x052B [0x01] GOTO 0x0604
     0x052E [0x02] IF !(Work_Zone[0] == 7*) GOTO 0x0554
     0x0536 [0x1D] PRINT_EVENT_MESSAGE(message_id=12136*)
    → "For 80 chocobucks, you can purchase items that slightly improve one of your chocobo's attributes."
     0x0539 [0x23] WAIT_FOR_DIALOG_INTERACTION
     0x053A [0x03] ExtData[1]->WorkLocal[4] = 8*
     0x053F [0x03] ExtData[1]->WorkLocal[5] = 254*
     0x0544 [0x03] ExtData[1]->WorkLocal[25] = 0*
     0x0549 [0x03] ExtData[1]->WorkLocal[51] = Work_Zone[0]
     0x054E [0x1A] CALL_SUBROUTINE(address=0x0609)
     0x0551 [0x01] GOTO 0x0604
     0x0554 [0x02] IF !(Work_Zone[0] == 8*) GOTO 0x057A
     0x055C [0x1D] PRINT_EVENT_MESSAGE(message_id=12137*)
    → "For 90 chocobucks, you can purchase items that will improve one of your chocobo's attributes."
     0x055F [0x23] WAIT_FOR_DIALOG_INTERACTION
     0x0560 [0x03] ExtData[1]->WorkLocal[4] = 9*
     0x0565 [0x03] ExtData[1]->WorkLocal[5] = 240*
     0x056A [0x03] ExtData[1]->WorkLocal[25] = 0*
     0x056F [0x03] ExtData[1]->WorkLocal[51] = Work_Zone[0]
     0x0574 [0x1A] CALL_SUBROUTINE(address=0x0609)
     0x0577 [0x01] GOTO 0x0604
     0x057A [0x02] IF !(Work_Zone[0] == 9*) GOTO 0x05A0
     0x0582 [0x1D] PRINT_EVENT_MESSAGE(message_id=12138*)
    → "For 100 chocobucks, you can purchase items that will slightly improve one of your retired chocobo's attributes."
     0x0585 [0x23] WAIT_FOR_DIALOG_INTERACTION
     0x0586 [0x03] ExtData[1]->WorkLocal[4] = 10*
     0x058B [0x03] ExtData[1]->WorkLocal[5] = 240*
     0x0590 [0x03] ExtData[1]->WorkLocal[25] = 0*
     0x0595 [0x03] ExtData[1]->WorkLocal[51] = Work_Zone[0]
     0x059A [0x1A] CALL_SUBROUTINE(address=0x0609)
     0x059D [0x01] GOTO 0x0604
     0x05A0 [0x02] IF !(Work_Zone[0] == 10*) GOTO 0x05C6
     0x05A8 [0x1D] PRINT_EVENT_MESSAGE(message_id=12139*)
    → "For 150 chocobucks, you can purchase VCS-approved racing silks."
     0x05AB [0x23] WAIT_FOR_DIALOG_INTERACTION
     0x05AC [0x03] ExtData[1]->WorkLocal[4] = 11*
     0x05B1 [0x03] ExtData[1]->WorkLocal[5] = 0*
     0x05B6 [0x03] ExtData[1]->WorkLocal[25] = 0*
     0x05BB [0x03] ExtData[1]->WorkLocal[51] = Work_Zone[0]
     0x05C0 [0x1A] CALL_SUBROUTINE(address=0x0609)
     0x05C3 [0x01] GOTO 0x0604
     0x05C6 [0x02] IF !(Work_Zone[0] == 11*) GOTO 0x05EC
     0x05CE [0x1D] PRINT_EVENT_MESSAGE(message_id=12140*)
    → "For 500 chocobucks, you can purchase an authentic, limited-edition VCS-issued chair for all your posterial needs."
     0x05D1 [0x23] WAIT_FOR_DIALOG_INTERACTION
     0x05D2 [0x03] ExtData[1]->WorkLocal[4] = 12*
     0x05D7 [0x03] ExtData[1]->WorkLocal[5] = 254*
     0x05DC [0x03] ExtData[1]->WorkLocal[25] = 0*
     0x05E1 [0x03] ExtData[1]->WorkLocal[51] = Work_Zone[0]
     0x05E6 [0x1A] CALL_SUBROUTINE(address=0x0609)
     0x05E9 [0x01] GOTO 0x0604
     0x05EC [0x02] IF !(Work_Zone[0] == 12*) GOTO 0x0601
     0x05F4 [0x03] Work_Zone[1] = 0*
     0x05F9 [0x03] ExtData[1]->WorkLocal[0] = 1*
     0x05FE [0x01] GOTO 0x0604
     0x0601 [0x01] GOTO 0x0052
     0x0604 [0x01] GOTO 0x03BE
     0x0607 [0x21] END_EVENT
     0x0608 [0x1B] RETURN
     0x0609 [0x03] ExtData[1]->WorkLocal[52] = 0*
     0x060E [0x02] IF !(ExtData[1]->WorkLocal[1] == 0*) GOTO 0x08C4
     0x0616 [0x1A] CALL_SUBROUTINE(address=0x08C5)
     0x0619 [0x03] Work_Zone[2] = ExtData[1]->WorkLocal[8]
     0x061E [0x03] Work_Zone[3] = ExtData[1]->WorkLocal[9]
     0x0623 [0x03] Work_Zone[4] = ExtData[1]->WorkLocal[10]
     0x0628 [0x03] Work_Zone[5] = ExtData[1]->WorkLocal[11]
     0x062D [0x03] Work_Zone[6] = ExtData[1]->WorkLocal[12]
     0x0632 [0x03] Work_Zone[7] = ExtData[1]->WorkLocal[13]
     0x0637 [0x03] Work_Zone[8] = ExtData[1]->WorkLocal[14]
     0x063C [0x03] Work_Zone[9] = ExtData[1]->WorkLocal[15]
     0x0641 [0xD4] MAP_QUERY_WINDOW: Prepare buffer configuration A (buffer=[00 80 08 00 D4 03 01 80...])
     0x065F [0xD4] MAP_QUERY_WINDOW: Prepare buffer configuration A (buffer=[0B 80 0D 00 D4 03 0E 80...])
     0x067D [0x07] 0x02D4 += 12147*
     0x0682 [0x34] LOAD_UNLOAD_ZONE(zone_id=0x0500)
     0x0685 [0x00] END_REQSTACK()
     0x0686 [0x25] WAIT_DIALOG_SELECT()
     0x0687 [0x02] IF !(Work_Zone[0] == 0*) GOTO 0x06A4
     0x068F [0x03] ExtData[1]->WorkLocal[16] = ExtData[1]->WorkLocal[8]
     0x0694 [0x03] ExtData[1]->WorkLocal[30] = Work_Zone[0]
     0x0699 [0x03] ExtData[1]->WorkLocal[52] = Work_Zone[0]
     0x069E [0x1A] CALL_SUBROUTINE(address=0x0B7A)
     0x06A1 [0x01] GOTO 0x0799
     0x06A4 [0x02] IF !(Work_Zone[0] == 1*) GOTO 0x06C1
     0x06AC [0x03] ExtData[1]->WorkLocal[16] = ExtData[1]->WorkLocal[9]
     0x06B1 [0x03] ExtData[1]->WorkLocal[30] = Work_Zone[0]
     0x06B6 [0x03] ExtData[1]->WorkLocal[52] = Work_Zone[0]
     0x06BB [0x1A] CALL_SUBROUTINE(address=0x0B7A)
     0x06BE [0x01] GOTO 0x0799
     0x06C1 [0x02] IF !(Work_Zone[0] == 2*) GOTO 0x06DE
     0x06C9 [0x03] ExtData[1]->WorkLocal[16] = ExtData[1]->WorkLocal[10]
     0x06CE [0x03] ExtData[1]->WorkLocal[30] = Work_Zone[0]
     0x06D3 [0x03] ExtData[1]->WorkLocal[52] = Work_Zone[0]
     0x06D8 [0x1A] CALL_SUBROUTINE(address=0x0B7A)
     0x06DB [0x01] GOTO 0x0799
     0x06DE [0x02] IF !(Work_Zone[0] == 3*) GOTO 0x06FB
     0x06E6 [0x03] ExtData[1]->WorkLocal[16] = ExtData[1]->WorkLocal[11]
     0x06EB [0x03] ExtData[1]->WorkLocal[30] = Work_Zone[0]
     0x06F0 [0x03] ExtData[1]->WorkLocal[52] = Work_Zone[0]
     0x06F5 [0x1A] CALL_SUBROUTINE(address=0x0B7A)
     0x06F8 [0x01] GOTO 0x0799
     0x06FB [0x02] IF !(Work_Zone[0] == 4*) GOTO 0x0718
     0x0703 [0x03] ExtData[1]->WorkLocal[16] = ExtData[1]->WorkLocal[12]
     0x0708 [0x03] ExtData[1]->WorkLocal[30] = Work_Zone[0]
     0x070D [0x03] ExtData[1]->WorkLocal[52] = Work_Zone[0]
     0x0712 [0x1A] CALL_SUBROUTINE(address=0x0B7A)
     0x0715 [0x01] GOTO 0x0799
     0x0718 [0x02] IF !(Work_Zone[0] == 5*) GOTO 0x0735
     0x0720 [0x03] ExtData[1]->WorkLocal[16] = ExtData[1]->WorkLocal[13]
     0x0725 [0x03] ExtData[1]->WorkLocal[30] = Work_Zone[0]
     0x072A [0x03] ExtData[1]->WorkLocal[52] = Work_Zone[0]
     0x072F [0x1A] CALL_SUBROUTINE(address=0x0B7A)
     0x0732 [0x01] GOTO 0x0799
     0x0735 [0x02] IF !(Work_Zone[0] == 6*) GOTO 0x0752
     0x073D [0x03] ExtData[1]->WorkLocal[16] = ExtData[1]->WorkLocal[14]
     0x0742 [0x03] ExtData[1]->WorkLocal[30] = Work_Zone[0]
     0x0747 [0x03] ExtData[1]->WorkLocal[52] = Work_Zone[0]
     0x074C [0x1A] CALL_SUBROUTINE(address=0x0B7A)
     0x074F [0x01] GOTO 0x0799
     0x0752 [0x02] IF !(Work_Zone[0] == 7*) GOTO 0x076F
     0x075A [0x03] ExtData[1]->WorkLocal[16] = ExtData[1]->WorkLocal[15]
     0x075F [0x03] ExtData[1]->WorkLocal[30] = Work_Zone[0]
     0x0764 [0x1A] CALL_SUBROUTINE(address=0x0B7A)
     0x0767 [0x03] ExtData[1]->WorkLocal[52] = Work_Zone[0]
     0x076C [0x01] GOTO 0x0799
     0x076F [0x02] IF !(Work_Zone[0] == 8*) GOTO 0x0789
     0x0777 [0x03] Work_Zone[1] = 0*
     0x077C [0x03] ExtData[1]->WorkLocal[0] = 1*
     0x0781 [0x03] ExtData[1]->WorkLocal[1] = 1*
     0x0786 [0x01] GOTO 0x0799
     0x0789 [0x02] IF !(Work_Zone[0] == 9*) GOTO 0x0799
     0x0791 [0x03] ExtData[1]->WorkLocal[1] = 1*
     0x0796 [0x01] GOTO 0x0799
     0x0799 [0x01] GOTO 0x08C1
     0x079C [0x02] IF !(ExtData[1]->WorkLocal[25] == 1*) GOTO 0x08C1
     0x07A4 [0x24] CREATE_DIALOG(message_id=12148*, default_option=ExtData[1]->WorkLocal[52], option_flags=ExtData[1]->WorkLocal[5])
    → "Purchase which items? [$0./$1./$2./$3./$4./$5./$6./$7./Quit./Return.]"
     0x07AB [0x25] WAIT_DIALOG_SELECT()
     0x07AC [0x02] IF !(Work_Zone[0] == 0*) GOTO 0x07C9
     0x07B4 [0x03] ExtData[1]->WorkLocal[16] = ExtData[1]->WorkLocal[8]
     0x07B9 [0x03] ExtData[1]->WorkLocal[30] = Work_Zone[0]
     0x07BE [0x03] ExtData[1]->WorkLocal[52] = Work_Zone[0]
     0x07C3 [0x1A] CALL_SUBROUTINE(address=0x0B7A)
     0x07C6 [0x01] GOTO 0x08BE
     0x07C9 [0x02] IF !(Work_Zone[0] == 1*) GOTO 0x07E6
     0x07D1 [0x03] ExtData[1]->WorkLocal[16] = ExtData[1]->WorkLocal[9]
     0x07D6 [0x03] ExtData[1]->WorkLocal[30] = Work_Zone[0]
     0x07DB [0x03] ExtData[1]->WorkLocal[52] = Work_Zone[0]
     0x07E0 [0x1A] CALL_SUBROUTINE(address=0x0B7A)
     0x07E3 [0x01] GOTO 0x08BE
     0x07E6 [0x02] IF !(Work_Zone[0] == 2*) GOTO 0x0803
     0x07EE [0x03] ExtData[1]->WorkLocal[16] = ExtData[1]->WorkLocal[10]
     0x07F3 [0x03] ExtData[1]->WorkLocal[30] = Work_Zone[0]
     0x07F8 [0x1A] CALL_SUBROUTINE(address=0x0B7A)
     0x07FB [0x03] ExtData[1]->WorkLocal[52] = Work_Zone[0]
     0x0800 [0x01] GOTO 0x08BE
     0x0803 [0x02] IF !(Work_Zone[0] == 3*) GOTO 0x0820
     0x080B [0x03] ExtData[1]->WorkLocal[16] = ExtData[1]->WorkLocal[11]
     0x0810 [0x03] ExtData[1]->WorkLocal[30] = Work_Zone[0]
     0x0815 [0x03] ExtData[1]->WorkLocal[52] = Work_Zone[0]
     0x081A [0x1A] CALL_SUBROUTINE(address=0x0B7A)
     0x081D [0x01] GOTO 0x08BE
     0x0820 [0x02] IF !(Work_Zone[0] == 4*) GOTO 0x083D
     0x0828 [0x03] ExtData[1]->WorkLocal[16] = ExtData[1]->WorkLocal[12]
     0x082D [0x03] ExtData[1]->WorkLocal[30] = Work_Zone[0]
     0x0832 [0x03] ExtData[1]->WorkLocal[52] = Work_Zone[0]
     0x0837 [0x1A] CALL_SUBROUTINE(address=0x0B7A)
     0x083A [0x01] GOTO 0x08BE
     0x083D [0x02] IF !(Work_Zone[0] == 5*) GOTO 0x085A
     0x0845 [0x03] ExtData[1]->WorkLocal[16] = ExtData[1]->WorkLocal[13]
     0x084A [0x03] ExtData[1]->WorkLocal[30] = Work_Zone[0]
     0x084F [0x03] ExtData[1]->WorkLocal[52] = Work_Zone[0]
     0x0854 [0x1A] CALL_SUBROUTINE(address=0x0B7A)
     0x0857 [0x01] GOTO 0x08BE
     0x085A [0x02] IF !(Work_Zone[0] == 6*) GOTO 0x0877
     0x0862 [0x03] ExtData[1]->WorkLocal[16] = ExtData[1]->WorkLocal[14]
     0x0867 [0x03] ExtData[1]->WorkLocal[30] = Work_Zone[0]
     0x086C [0x03] ExtData[1]->WorkLocal[52] = Work_Zone[0]
     0x0871 [0x1A] CALL_SUBROUTINE(address=0x0B7A)
     0x0874 [0x01] GOTO 0x08BE
     0x0877 [0x02] IF !(Work_Zone[0] == 7*) GOTO 0x0894
     0x087F [0x03] ExtData[1]->WorkLocal[16] = ExtData[1]->WorkLocal[15]
     0x0884 [0x03] ExtData[1]->WorkLocal[30] = Work_Zone[0]
