# 17764403 - Lih Pituu

## Common Data

| Field            | Value                    |
|------------------|--------------------------|
| Zone             | Windurst Woods (ID: 241) |
| Block Size       | 556 bytes                |
| Total Events     | 2                        |
| References Count | 20                       |

## List of Events

| Event ID              | Entrypoint   |   Size |   Instructions |
|-----------------------|--------------|--------|----------------|
| [65535](#event-65535) | 0x0000       |      1 |              1 |
| [10018](#event-10018) | 0x0001       |    450 |            104 |

## DAT References (imed_data)

|   Index | Hex Value   |   Dec Value |
|---------|-------------|-------------|
|       0 | 0x0006      |           6 |
|       1 | 0x1C43      |        7235 |
|       2 | 0x0002      |           2 |
|       3 | 0x0000      |           0 |
|       4 | 0x1CF4      |        7412 |
|       5 | 0x1C44      |        7236 |
|       6 | 0x0001      |           1 |
|       7 | 0x1CF6      |        7414 |
|       8 | 0x00C8      |         200 |
|       9 | 0x005A      |          90 |
|      10 | 0x1CF5      |        7413 |
|      11 | 0x1CF7      |        7415 |
|      12 | 0x1C48      |        7240 |
|      13 | 0x1C6E      |        7278 |
|      14 | 0x1C4C      |        7244 |
|      15 | 0x1C4B      |        7243 |
|      16 | 0x1C4A      |        7242 |
|      17 | 0x1C49      |        7241 |
|      18 | 0x1CF8      |        7416 |
|      19 | 0x1CF3      |        7411 |

## String References

- **7235**: Request...? [[Advanced synthesis/Synthesis/Synthesis] image support./Information on synthesis materials./Nothing.]
- **7236**: Image support: $0 gil. [Accept./Decline.]
- **7240**: Necessary skills: [Fishing/Woodworking/Smithing/Goldsmithing/Clothcraft/Leatherworking/Bonecraft/Alchemy/Cooking][ /, Woodworking/, Smithing/, Goldsmithing/, Clothcraft/, Leatherworking/, Bonecraft/, Alchemy/, Cooking][ /, Woodworking/, Smithing/, Goldsmithing/, Clothcraft/, Leatherworking/, Bonecraft/, Alchemy/, Cooking][ /, & Woodworking/, & Smithing/, & Goldsmithing/, & Clothcraft/, & Leatherworking/, & Bonecraft/, & Alchemy/, & Cooking] Necessary crystal: $4 Necessary items:
- **7241**: $4 x $0 $5 x $0$0 $6 x $0 $7 x $0$3
- **7242**: $4 x $0 $5 x $0$0 $6 x $0
- **7243**: $4 x $0 $5 x $0$0
- **7244**: $4 x $0
- **7278**: Necessary skills: [Fishing/Woodworking/Smithing/Goldsmithing/Clothcraft/Leatherworking/Bonecraft/Alchemy/Cooking][ /, Woodworking/, Smithing/, Goldsmithing/, Clothcraft/, Leatherworking/, Bonecraft/, Alchemy/, Cooking][ /, Woodworking/, Smithing/, Goldsmithing/, Clothcraft/, Leatherworking/, Bonecraft/, Alchemy/, Cooking][ /, & Woodworking/, & Smithing/, & Goldsmithing/, & Clothcraft/, & Leatherworking/, & Bonecraft/, & Alchemy/, & Cooking] Necessary crystal: $4 Necessary key item: $3 Necessary items:
- **7411**: Darrrling, can't you see I'm in the middle of something rrreally, rrreally important?
- **7412**: I appreciate the gesture, love, but shouldn't you be getting to worrrk?
- **7413**: Ah ha ha ha! Darrrling, darrrling... Do I look like I work for charrrity? Now, go ask your mummy for some spare change and we'll get to work.
- **7414**: Coming to me was an excellent choice, darrrling. Now close your lovely eyes...
- **7415**: For you, love? How about $0? You'll need...
- **7416**: If you ever need any more assistance, darrrling, I'm sure you can find your way back to Lih Pituu.

## Events

### Event 65535

#### Metadata

| Field        | Value   |
|--------------|---------|
| Entrypoint   | 0x0000  |
| Data Size    | 1 bytes |
| Instructions | 1       |

```
      00 01 02 03 04 05 06 07  08 09 0A 0B 0C 0D 0E 0F
      -- -- -- -- -- -- -- --  -- -- -- -- -- -- -- --
0000: 00                                                .               
```

#### Opcodes

```
  0: 0x0000 [0x00] END_REQSTACK()
```

### Event 10018

#### Metadata

| Field        | Value     |
|--------------|-----------|
| Entrypoint   | 0x0001    |
| Data Size    | 450 bytes |
| Instructions | 104       |

```
      00 01 02 03 04 05 06 07  08 09 0A 0B 0C 0D 0E 0F
      -- -- -- -- -- -- -- --  -- -- -- -- -- -- -- --
0000:    79 00 F8 FF FF 7F F0  FF FF 7F 3E 05 10 00 80   y.........>....
0010: BD 01 24 01 80 02 80 03  80 25 02 00 10 03 80 00  ..$......%......
0020: 9A 00 02 07 10 03 80 01  31 00 1D 04 80 23 01 97  ........1....#..
0030: 00 24 05 80 06 80 03 80  25 02 00 10 03 80 00 87  .$......%.......
0040: 00 02 06 10 02 10 04 80  00 1D 07 80 23 7B F8 FF  ............#{..
0050: FF 7F 42 45 08 80 F8 FF  FF 7F F8 FF FF 7F 66 64  ..BE..........fd
0060: 6F 31 03 80 1C 09 80 45  08 80 F8 FF FF 7F F8 FF  o1.....E........
0070: FF 7F 66 64 69 31 03 80  03 01 10 06 80 01 84 00  ..fdi1..........
0080: 1D 0A 80 23 01 97 00 02  00 10 06 80 00 97 00 7B  ...#...........{
0090: F8 FF FF 7F 01 97 00 01  BA 01 02 00 10 06 80 00  ................
00A0: AA 01 03 08 10 00 80 8C  00 08 10 03 10 04 10 8C  ................
00B0: 01 03 02 10 40 10 1D 0B  80 23 03 03 10 41 10 03  ....@....#...A..
00C0: 04 10 42 10 03 05 10 43  10 03 06 10 44 10 03 07  ..B....C....D...
00D0: 10 55 10 02 07 10 03 80  00 E2 00 48 0C 80 23 01  .U.........H..#.
00E0: E6 00 48 0D 80 23 03 02  10 45 10 03 03 10 46 10  ..H..#...E....F.
00F0: 03 04 10 47 10 03 05 10  48 10 03 06 10 4D 10 03  ...G....H....M..
0100: 07 10 4E 10 03 08 10 4F  10 03 09 10 50 10 02 07  ..N....O....P...
0110: 10 03 80 00 1D 01 48 0E  80 23 01 A3 01 02 08 10  ......H..#......
0120: 03 80 00 2C 01 48 0F 80  23 01 A3 01 02 09 10 03  ...,.H..#.......
0130: 80 00 3B 01 48 10 80 23  01 A3 01 48 11 80 23 03  ..;.H..#...H..#.
0140: 02 10 49 10 03 03 10 4A  10 03 04 10 4B 10 03 05  ..I....J....K...
0150: 10 4C 10 03 06 10 51 10  03 07 10 52 10 03 08 10  .L....Q....R....
0160: 53 10 03 09 10 54 10 02  06 10 03 80 00 72 01 01  S....T.......r..
0170: A3 01 02 07 10 03 80 00  81 01 48 0E 80 23 01 A3  ..........H..#..
0180: 01 02 08 10 03 80 00 90  01 48 0F 80 23 01 A3 01  .........H..#...
0190: 02 09 10 03 80 00 9F 01  48 10 80 23 01 A3 01 48  ........H..#...H
01A0: 11 80 23 1D 12 80 23 01  BA 01 02 00 10 02 80 00  ..#...#.........
01B0: BA 01 7B F8 FF FF 7F 01  BA 01 01 C1 01 1D 13 80  ..{.............
01C0: 23 21 00                                          #!.             
```

#### Opcodes

```
  0: 0x0001 [0x79] EventEntity looks at LocalPlayer (Basic look)
  1: 0x000B [0x3E] IF !(Work_Zone[5] bit 6*) GOTO 0x01BD
  2: 0x0012 [0x24] CREATE_DIALOG(message_id=7235*, default_option=2*, option_flags=0*)
    → "Request...? [[Advanced synthesis/Synthesis/Synthesis] image support./Information on synthesis materials./Nothing.]"
  3: 0x0019 [0x25] WAIT_DIALOG_SELECT()
  4: 0x001A [0x02] IF !(Work_Zone[0] == 0*) GOTO 0x009A
  5: 0x0022 [0x02] IF !(Work_Zone[7] == 0*) GOTO 0x0031
  6: 0x002A [0x1D] PRINT_EVENT_MESSAGE(message_id=7412*)
    → "I appreciate the gesture, love, but shouldn't you be getting to worrrk?"
  7: 0x002D [0x23] WAIT_FOR_DIALOG_INTERACTION
  8: 0x002E [0x01] GOTO 0x0097
  9: 0x0031 [0x24] CREATE_DIALOG(message_id=7236*, default_option=1*, option_flags=0*)
    → "Image support: $0 gil. [Accept./Decline.]"
 10: 0x0038 [0x25] WAIT_DIALOG_SELECT()
 11: 0x0039 [0x02] IF !(Work_Zone[0] == 0*) GOTO 0x0087
 12: 0x0041 [0x02] IF !(Work_Zone[6] < Work_Zone[2]) GOTO 0x0080
 13: 0x0049 [0x1D] PRINT_EVENT_MESSAGE(message_id=7414*)
    → "Coming to me was an excellent choice, darrrling. Now close your lovely eyes..."
 14: 0x004C [0x23] WAIT_FOR_DIALOG_INTERACTION
 15: 0x004D [0x7B] EventEntity stops talking
 16: 0x0052 [0x42] SET_CLI_EVENT_CANCEL_DATA()
 17: 0x0053 [0x45] LOAD_SCHEDULED_TASK: Load scheduler "fdo1" with entities [EventEntity, EventEntity], work=[200*, 0*]
 18: 0x0064 [0x1C] WAIT(90* ticks)
 19: 0x0067 [0x45] LOAD_SCHEDULED_TASK: Load scheduler "fdi1" with entities [EventEntity, EventEntity], work=[200*, 0*]
 20: 0x0078 [0x03] Work_Zone[1] = 1*
 21: 0x007D [0x01] GOTO 0x0084
 22: 0x0080 [0x1D] PRINT_EVENT_MESSAGE(message_id=7413*)
    → "Ah ha ha ha! Darrrling, darrrling... Do I look like I work for charrrity? Now, go ask your mummy for some spare change and we'll get to work."
 23: 0x0083 [0x23] WAIT_FOR_DIALOG_INTERACTION

SUBROUTINE_0084:
 24: 0x0084 [0x01] GOTO 0x0097
 25: 0x0087 [0x02] IF !(Work_Zone[0] == 1*) GOTO 0x0097
 26: 0x008F [0x7B] EventEntity stops talking
 27: 0x0094 [0x01] GOTO 0x0097

SUBROUTINE_0097:
 28: 0x0097 [0x01] GOTO 0x01BA
 29: 0x009A [0x02] IF !(Work_Zone[0] == 1*) GOTO 0x01AA
 30: 0x00A2 [0x03] Work_Zone[8] = 6*
 31: 0x00A7 [0x8C] CRAFTING_HANDLER(mode=0x00) // Initialize crafting session
 32: 0x00AF [0x8C] CRAFTING_HANDLER(mode=0x01) // End crafting session
 33: 0x00B1 [0x03] Work_Zone[2] = Work_Zone[64]
 34: 0x00B6 [0x1D] PRINT_EVENT_MESSAGE(message_id=7415*)
    → "For you, love? How about $0? You'll need..."
 35: 0x00B9 [0x23] WAIT_FOR_DIALOG_INTERACTION
 36: 0x00BA [0x03] Work_Zone[3] = Work_Zone[65]
 37: 0x00BF [0x03] Work_Zone[4] = Work_Zone[66]
 38: 0x00C4 [0x03] Work_Zone[5] = Work_Zone[67]
 39: 0x00C9 [0x03] Work_Zone[6] = Work_Zone[68]
 40: 0x00CE [0x03] Work_Zone[7] = Work_Zone[85]
 41: 0x00D3 [0x02] IF !(Work_Zone[7] == 0*) GOTO 0x00E2
 42: 0x00DB [0x48] [System] [7240*]:
    → "Necessary skills: [Fishing/Woodworking/Smithing/Goldsmithing/Clothcraft/Leatherworking/Bonecraft/Alchemy/Cooking][ /, Woodworking/, Smithing/, Goldsmithing/, Clothcraft/, Leatherworking/, Bonecraft/, Alchemy/, Cooking][ /, Woodworking/, Smithing/, Goldsmithing/, Clothcraft/, Leatherworking/, Bonecraft/, Alchemy/, Cooking][ /, & Woodworking/, & Smithing/, & Goldsmithing/, & Clothcraft/, & Leatherworking/, & Bonecraft/, & Alchemy/, & Cooking] Necessary crystal: $4 Necessary items:"
 43: 0x00DE [0x23] WAIT_FOR_DIALOG_INTERACTION
 44: 0x00DF [0x01] GOTO 0x00E6
 45: 0x00E2 [0x48] [System] [7278*]:
    → "Necessary skills: [Fishing/Woodworking/Smithing/Goldsmithing/Clothcraft/Leatherworking/Bonecraft/Alchemy/Cooking][ /, Woodworking/, Smithing/, Goldsmithing/, Clothcraft/, Leatherworking/, Bonecraft/, Alchemy/, Cooking][ /, Woodworking/, Smithing/, Goldsmithing/, Clothcraft/, Leatherworking/, Bonecraft/, Alchemy/, Cooking][ /, & Woodworking/, & Smithing/, & Goldsmithing/, & Clothcraft/, & Leatherworking/, & Bonecraft/, & Alchemy/, & Cooking] Necessary crystal: $4 Necessary key item: $3 Necessary items:"
 46: 0x00E5 [0x23] WAIT_FOR_DIALOG_INTERACTION

SUBROUTINE_00E6:
 47: 0x00E6 [0x03] Work_Zone[2] = Work_Zone[69]
 48: 0x00EB [0x03] Work_Zone[3] = Work_Zone[70]
 49: 0x00F0 [0x03] Work_Zone[4] = Work_Zone[71]
 50: 0x00F5 [0x03] Work_Zone[5] = Work_Zone[72]
 51: 0x00FA [0x03] Work_Zone[6] = Work_Zone[77]
 52: 0x00FF [0x03] Work_Zone[7] = Work_Zone[78]
 53: 0x0104 [0x03] Work_Zone[8] = Work_Zone[79]
 54: 0x0109 [0x03] Work_Zone[9] = Work_Zone[80]
 55: 0x010E [0x02] IF !(Work_Zone[7] == 0*) GOTO 0x011D
 56: 0x0116 [0x48] [System] [7244*]:
    → "$4 x $0"
 57: 0x0119 [0x23] WAIT_FOR_DIALOG_INTERACTION
 58: 0x011A [0x01] GOTO 0x01A3
 59: 0x011D [0x02] IF !(Work_Zone[8] == 0*) GOTO 0x012C
 60: 0x0125 [0x48] [System] [7243*]:
    → "$4 x $0 $5 x $0$0"
 61: 0x0128 [0x23] WAIT_FOR_DIALOG_INTERACTION
 62: 0x0129 [0x01] GOTO 0x01A3
 63: 0x012C [0x02] IF !(Work_Zone[9] == 0*) GOTO 0x013B
 64: 0x0134 [0x48] [System] [7242*]:
    → "$4 x $0 $5 x $0$0 $6 x $0"
 65: 0x0137 [0x23] WAIT_FOR_DIALOG_INTERACTION
 66: 0x0138 [0x01] GOTO 0x01A3
 67: 0x013B [0x48] [System] [7241*]:
    → "$4 x $0 $5 x $0$0 $6 x $0 $7 x $0$3"
 68: 0x013E [0x23] WAIT_FOR_DIALOG_INTERACTION
 69: 0x013F [0x03] Work_Zone[2] = Work_Zone[73]
 70: 0x0144 [0x03] Work_Zone[3] = Work_Zone[74]
 71: 0x0149 [0x03] Work_Zone[4] = Work_Zone[75]
 72: 0x014E [0x03] Work_Zone[5] = Work_Zone[76]
 73: 0x0153 [0x03] Work_Zone[6] = Work_Zone[81]
 74: 0x0158 [0x03] Work_Zone[7] = Work_Zone[82]
 75: 0x015D [0x03] Work_Zone[8] = Work_Zone[83]
 76: 0x0162 [0x03] Work_Zone[9] = Work_Zone[84]
 77: 0x0167 [0x02] IF !(Work_Zone[6] == 0*) GOTO 0x0172
 78: 0x016F [0x01] GOTO 0x01A3
 79: 0x0172 [0x02] IF !(Work_Zone[7] == 0*) GOTO 0x0181
 80: 0x017A [0x48] [System] [7244*]:
    → "$4 x $0"
 81: 0x017D [0x23] WAIT_FOR_DIALOG_INTERACTION
 82: 0x017E [0x01] GOTO 0x01A3
 83: 0x0181 [0x02] IF !(Work_Zone[8] == 0*) GOTO 0x0190
 84: 0x0189 [0x48] [System] [7243*]:
    → "$4 x $0 $5 x $0$0"
 85: 0x018C [0x23] WAIT_FOR_DIALOG_INTERACTION
 86: 0x018D [0x01] GOTO 0x01A3
 87: 0x0190 [0x02] IF !(Work_Zone[9] == 0*) GOTO 0x019F
 88: 0x0198 [0x48] [System] [7242*]:
    → "$4 x $0 $5 x $0$0 $6 x $0"
 89: 0x019B [0x23] WAIT_FOR_DIALOG_INTERACTION
 90: 0x019C [0x01] GOTO 0x01A3
 91: 0x019F [0x48] [System] [7241*]:
    → "$4 x $0 $5 x $0$0 $6 x $0 $7 x $0$3"
 92: 0x01A2 [0x23] WAIT_FOR_DIALOG_INTERACTION

SUBROUTINE_01A3:
 93: 0x01A3 [0x1D] PRINT_EVENT_MESSAGE(message_id=7416*)
    → "If you ever need any more assistance, darrrling, I'm sure you can find your way back to Lih Pituu."
 94: 0x01A6 [0x23] WAIT_FOR_DIALOG_INTERACTION
 95: 0x01A7 [0x01] GOTO 0x01BA
 96: 0x01AA [0x02] IF !(Work_Zone[0] == 2*) GOTO 0x01BA
 97: 0x01B2 [0x7B] EventEntity stops talking
 98: 0x01B7 [0x01] GOTO 0x01BA

SUBROUTINE_01BA:
 99: 0x01BA [0x01] GOTO 0x01C1
100: 0x01BD [0x1D] PRINT_EVENT_MESSAGE(message_id=7411*)
    → "Darrrling, can't you see I'm in the middle of something rrreally, rrreally important?"
101: 0x01C0 [0x23] WAIT_FOR_DIALOG_INTERACTION

SUBROUTINE_01C1:
102: 0x01C1 [0x21] END_EVENT
103: 0x01C2 [0x00] END_REQSTACK()
```
