# 17764419 - Pulonono

## Common Data

| Field            | Value                    |
|------------------|--------------------------|
| Zone             | Windurst Woods (ID: 241) |
| Block Size       | 67140 bytes              |
| Total Events     | 47                       |
| References Count | 1449                     |

## List of Events

| Event ID                   | Entrypoint   |   Size |   Instructions |
|----------------------------|--------------|--------|----------------|
| [65535](#event-65535)      | 0x0000       |      1 |              1 |
| [741](#event-741)          | 0x0001       |     78 |             18 |
| [748](#event-748)          | 0x004F       |     67 |             17 |
| [65535.1](#event-655351)   | 0x0092       |     20 |              4 |
| [65535.2](#event-655352)   | 0x00A6       |     15 |              3 |
| [65535.3](#event-655353)   | 0x00B5       |     15 |              3 |
| [65535.4](#event-655354)   | 0x00C4       |     17 |              4 |
| [65535.5](#event-655355)   | 0x00D5       |     22 |              6 |
| [65535.6](#event-655356)   | 0x00EB       |     15 |              3 |
| [65535.7](#event-655357)   | 0x00FA       |     72 |             16 |
| [65535.8](#event-655358)   | 0x0142       |     15 |              3 |
| [65535.9](#event-655359)   | 0x0151       |    315 |             51 |
| [65535.10](#event-6553510) | 0x028C       |     62 |             10 |
| [65535.11](#event-6553511) | 0x02CA       |     82 |             13 |
| [65535.12](#event-6553512) | 0x031C       |     71 |             13 |
| [65535.13](#event-6553513) | 0x0363       |     73 |             13 |
| [65535.14](#event-6553514) | 0x03AC       |     17 |              4 |
| [65535.15](#event-6553515) | 0x03BD       |     15 |              3 |
| [65535.16](#event-6553516) | 0x03CC       |     15 |              3 |
| [65535.17](#event-6553517) | 0x03DB       |     22 |              6 |
| [65535.18](#event-6553518) | 0x03F1       |     15 |              3 |
| [65535.19](#event-6553519) | 0x0400       |     38 |              8 |
| [65535.20](#event-6553520) | 0x0426       |     15 |              3 |
| [65535.21](#event-6553521) | 0x0435       |     19 |              5 |
| [65535.22](#event-6553522) | 0x0448       |     15 |              3 |
| [65535.23](#event-6553523) | 0x0457       |    224 |             37 |
| [65535.24](#event-6553524) | 0x0537       |     15 |              3 |
| [65535.25](#event-6553525) | 0x0546       |     15 |              3 |
| [65535.26](#event-6553526) | 0x0555       |     15 |              3 |
| [65535.27](#event-6553527) | 0x0564       |     19 |              5 |
| [65535.28](#event-6553528) | 0x0577       |     15 |              3 |
| [65535.29](#event-6553529) | 0x0586       |     19 |              5 |
| [65535.30](#event-6553530) | 0x0599       |     15 |              3 |
| [65535.31](#event-6553531) | 0x05A8       |     19 |              5 |
| [65535.32](#event-6553532) | 0x05BB       |     15 |              3 |
| [65535.33](#event-6553533) | 0x05CA       |     15 |              3 |
| [65535.34](#event-6553534) | 0x05D9       |     15 |              3 |
| [65535.35](#event-6553535) | 0x05E8       |     12 |              3 |
| [766](#event-766)          | 0x05F4       |      1 |              1 |
| [743](#event-743)          | 0x05F5       |      2 |              2 |
| [742](#event-742)          | 0x05F7       |   1777 |            316 |
| [65535.36](#event-6553536) | 0x0CE8       |  10970 |           2288 |
| [745](#event-745)          | 0x37C2       |    314 |             43 |
| [744](#event-744)          | 0x38FC       |      6 |              4 |
| [746](#event-746)          | 0x3902       |      5 |              3 |
| [65535.37](#event-6553537) | 0x3907       |  46516 |           6982 |
| [65535.38](#event-6553538) | 0xEEBB       |     23 |              7 |

## DAT References (imed_data)

|   Index | Hex Value   |   Dec Value |
|---------|-------------|-------------|
|       0 | 0x001E      |          30 |
|       1 | 0x0000      |           0 |
|       2 | 0x28C0      |       10432 |
|       3 | 0x0031      |          49 |
|       4 | 0x28C1      |       10433 |
|       5 | 0x28C2      |       10434 |
|       6 | 0x28C3      |       10435 |
|       7 | 0x0001      |           1 |
|       8 | 0x2CCF      |       11471 |
|       9 | 0x2CD0      |       11472 |
|      10 | 0x2CD1      |       11473 |
|      11 | 0x1FC4C     |      130124 |
|      12 | 0xFFFE2DD3  |  4294847955 |
|      13 | 0xFFFFEB7E  |  4294962046 |
|      14 | 0x0241      |         577 |
|      15 | 0xFFFFDE0C  |  4294958604 |
|      16 | 0xFFFE7782  |  4294866818 |
|      17 | 0x0577      |        1399 |
|      18 | 0x002F      |          47 |
|      19 | 0x13A3      |        5027 |
|      20 | 0xFFFE5201  |  4294857217 |
|      21 | 0x060C      |        1548 |
|      22 | 0x07C2      |        1986 |
|      23 | 0xFFFFD79A  |  4294956954 |
|      24 | 0xFFFE3FC2  |  4294852546 |
|      25 | 0x012C      |         300 |
|      26 | 0x06FF      |        1791 |
|      27 | 0x000D      |          13 |
|      28 | 0xFFFFD171  |  4294955377 |
|      29 | 0xFFFE3EEE  |  4294852334 |
|      30 | 0x003C      |          60 |
|      31 | 0xFFFFE524  |  4294960420 |
|      32 | 0xFFFE69C0  |  4294863296 |
|      33 | 0x0487      |        1159 |
|      34 | 0xFFFFDF11  |  4294958865 |
|      35 | 0xFFFE617E  |  4294861182 |
|      36 | 0x003E      |          62 |
|      37 | 0xFFFFE058  |  4294959192 |
|      38 | 0xFFFE5C73  |  4294859891 |
|      39 | 0xFFFFE522  |  4294960418 |
|      40 | 0xFFFE59E0  |  4294859232 |
|      41 | 0x0ADB      |        2779 |
|      42 | 0x0007      |           7 |
|      43 | 0xFFFFD9A9  |  4294957481 |
|      44 | 0xFFFE774C  |  4294866764 |
|      45 | 0x008B      |         139 |
|      46 | 0x0028      |          40 |
|      47 | 0xFFFFE4D7  |  4294960343 |
|      48 | 0xFFFE7780  |  4294866816 |
|      49 | 0xFFFFE4D2  |  4294960338 |
|      50 | 0xFFFE76B8  |  4294866616 |
|      51 | 0xFFFFDA7F  |  4294957695 |
|      52 | 0xFFFE76C3  |  4294866627 |
|      53 | 0xFFFFECF8  |  4294962424 |
|      54 | 0xFFFE5C3E  |  4294859838 |
|      55 | 0x0945      |        2373 |
|      56 | 0x0003      |           3 |
|      57 | 0x036B      |         875 |
|      58 | 0x00E0      |         224 |
|      59 | 0x00DE      |         222 |
|      60 | 0xFFFFDF97  |  4294958999 |
|      61 | 0xFFFE5CF8  |  4294860024 |
|      62 | 0x0064      |         100 |
|      63 | 0xFFFFDEC3  |  4294958787 |
|      64 | 0xFFFE6767  |  4294862695 |
|      65 | 0xFFFFE00B  |  4294959115 |
|      66 | 0xFFFE67A5  |  4294862757 |
|      67 | 0x0019      |          25 |
|      68 | 0x0078      |         120 |
|      69 | 0x03DF      |         991 |
|      70 | 0xFFFFE10A  |  4294959370 |
|      71 | 0xFFFE7716  |  4294866710 |
|      72 | 0x02E6      |         742 |
|      73 | 0x0200      |         512 |
|      74 | 0xFFFFDC3B  |  4294958139 |
|      75 | 0xFFFE3F94  |  4294852500 |
|      76 | 0x0320      |         800 |
|      77 | 0x0653      |        1619 |
|      78 | 0xFFFFE90B  |  4294961419 |
|      79 | 0xFFFE5D37  |  4294860087 |
|      80 | 0x0AB3      |        2739 |
|      81 | 0x1CD91     |      118161 |
|      82 | 0xFFFE0879  |  4294838393 |
|      83 | 0xFFFFEC78  |  4294962296 |
|      84 | 0x0FBF      |        4031 |
|      85 | 0x0096      |         150 |
|      86 | 0x1CCD2     |      117970 |
|      87 | 0xFFFE1811  |  4294842385 |
|      88 | 0xFFFF9B82  |  4294941570 |
|      89 | 0xFFFFE7D6  |  4294961110 |
|      90 | 0xFFFFF63D  |  4294964797 |
|      91 | 0x0076      |         118 |
|      92 | 0xFFFFA7C4  |  4294944708 |
|      93 | 0xFFFFE6F1  |  4294960881 |
|      94 | 0x000A      |          10 |
|      95 | 0xFFFFAB05  |  4294945541 |
|      96 | 0xD3FF      |       54271 |
|      97 | 0xFFFFEF66  |  4294963046 |
|      98 | 0x0F9B      |        3995 |
|      99 | 0xFFFFB31D  |  4294947613 |
|     100 | 0xD365      |       54117 |
|     101 | 0x1A7C2     |      108482 |
|     102 | 0xFFFE169C  |  4294842012 |
|     103 | 0xFFFFEC79  |  4294962297 |
|     104 | 0x07F2      |        2034 |
|     105 | 0x0FDE      |        4062 |
|     106 | 0x1BD54     |      114004 |
|     107 | 0xFFFE043A  |  4294837306 |
|     108 | 0x1D0F8     |      119032 |
|     109 | 0xFFFDE099  |  4294828185 |
|     110 | 0x029B      |         667 |
|     111 | 0x00FE      |         254 |
|     112 | 0x1DFD1     |      122833 |
|     113 | 0xFFFDDC0C  |  4294827020 |
|     114 | 0x1CDCE     |      118222 |
|     115 | 0xFFFDE262  |  4294828642 |
|     116 | 0x1C308     |      115464 |
|     117 | 0xFFFE5C8A  |  4294859914 |
|     118 | 0x0C0E      |        3086 |
|     119 | 0x1C83D     |      116797 |
|     120 | 0xFFFE6CD8  |  4294864088 |
|     121 | 0x0C04      |        3076 |
|     122 | 0x21A0E     |      137742 |
|     123 | 0xFFFDFD96  |  4294835606 |
|     124 | 0x0FD0      |        4048 |
|     125 | 0xFFFD2016  |  4294778902 |
|     126 | 0xFFFA4B1A  |  4294593306 |
|     127 | 0xFFFFFE0D  |  4294966797 |
|     128 | 0x0E1C      |        3612 |
|     129 | 0xFFFF1F40  |  4294909760 |
|     130 | 0xFFF830B5  |  4294455477 |
|     131 | 0xFFFFEBA5  |  4294962085 |
|     132 | 0x0CAA      |        3242 |
|     133 | 0xFFFF21BE  |  4294910398 |
|     134 | 0xFFF83983  |  4294457731 |
|     135 | 0xFFFFEC02  |  4294962178 |
|     136 | 0xFFFF0CC0  |  4294905024 |
|     137 | 0xFFF57209  |  4294275593 |
|     138 | 0x17BD      |        6077 |
|     139 | 0x0425      |        1061 |
|     140 | 0xFFFF0A5B  |  4294904411 |
|     141 | 0xFFF56938  |  4294273336 |
|     142 | 0x1A54      |        6740 |
|     143 | 0xFFFF783D  |  4294932541 |
|     144 | 0xFFFDFBEA  |  4294835178 |
|     145 | 0xFFFFFE98  |  4294966936 |
|     146 | 0x0678      |        1656 |
|     147 | 0xFFFF889B  |  4294936731 |
|     148 | 0xFFFDFFDB  |  4294836187 |
|     149 | 0x00F5      |         245 |
|     150 | 0xFFFF9F9C  |  4294942620 |
|     151 | 0xFFFEC831  |  4294887473 |
|     152 | 0x0BB7      |        2999 |
|     153 | 0x041E      |        1054 |
|     154 | 0xFFFFBD06  |  4294950150 |
|     155 | 0xFFFF37E8  |  4294916072 |
|     156 | 0x0BF3      |        3059 |
|     157 | 0xFFFEE9D6  |  4294896086 |
|     158 | 0xFFF86FD7  |  4294471639 |
|     159 | 0xFFFFEC68  |  4294962280 |
|     160 | 0x0FE8      |        4072 |
|     161 | 0xFFFFEB1A  |  4294961946 |
|     162 | 0x0005      |           5 |
|     163 | 0x00C8      |         200 |
|     164 | 0x001B      |          27 |
|     165 | 0x00BC      |         188 |
|     166 | 0x00F1      |         241 |
|     167 | 0x01A5      |         421 |
|     168 | 0x2D2E      |       11566 |
|     169 | 0x2D2F      |       11567 |
|     170 | 0x2D2B      |       11563 |
|     171 | 0x2D2C      |       11564 |
|     172 | 0x00FF      |         255 |
|     173 | 0x0004      |           4 |
|     174 | 0x00D0      |         208 |
|     175 | 0xFFFFFFFF  |  4294967295 |
|     176 | 0x2E70      |       11888 |
|     177 | 0x0002      |           2 |
|     178 | 0x2E71      |       11889 |
|     179 | 0x2E74      |       11892 |
|     180 | 0x01F8      |         504 |
|     181 | 0x00F8      |         248 |
|     182 | 0x0009      |           9 |
|     183 | 0x0013      |          19 |
|     184 | 0x0014      |          20 |
|     185 | 0x001D      |          29 |
|     186 | 0x001F      |          31 |
|     187 | 0x000F      |          15 |
|     188 | 0x0010      |          16 |
|     189 | 0x0017      |          23 |
|     190 | 0x0018      |          24 |
|     191 | 0x2931      |       10545 |
|     192 | 0x2932      |       10546 |
|     193 | 0x00F6      |         246 |
|     194 | 0x2D9B      |       11675 |
|     195 | 0x0129      |         297 |
|     196 | 0x0329      |         809 |
|     197 | 0x00D6      |         214 |
|     198 | 0x0148      |         328 |
|     199 | 0x00D7      |         215 |
|     200 | 0x3CAD      |       15533 |
|     201 | 0x28EA      |       10474 |
|     202 | 0x0006      |           6 |
|     203 | 0x001A      |          26 |
|     204 | 0x0100      |         256 |
|     205 | 0x00E2      |         226 |
|     206 | 0x001C      |          28 |
|     207 | 0x00E8      |         232 |
|     208 | 0x0097      |         151 |
|     209 | 0x2AD2      |       10962 |
|     210 | 0x2AD3      |       10963 |
|     211 | 0x2DB1      |       11697 |
|     212 | 0x2DB2      |       11698 |
|     213 | 0x2DB3      |       11699 |
|     214 | 0x2DB4      |       11700 |
|     215 | 0x2DB5      |       11701 |
|     216 | 0x2D8C      |       11660 |
|     217 | 0x4E20      |       20000 |
|     218 | 0x2D8D      |       11661 |
|     219 | 0x2D8E      |       11662 |
|     220 | 0x2970      |       10608 |
|     221 | 0x2D8F      |       11663 |
|     222 | 0x00DD      |         221 |
|     223 | 0x2D85      |       11653 |
|     224 | 0x2D86      |       11654 |
|     225 | 0x0909      |        2313 |
|     226 | 0x2D87      |       11655 |
|     227 | 0x00FA      |         250 |
|     228 | 0x2969      |       10601 |
|     229 | 0x2D89      |       11657 |
|     230 | 0x2D88      |       11656 |
|     231 | 0x00DF      |         223 |
|     232 | 0x28EC      |       10476 |
|     233 | 0x0962      |        2402 |
|     234 | 0x2DA0      |       11680 |
|     235 | 0x2DA1      |       11681 |
|     236 | 0x2964      |       10596 |
|     237 | 0x0061      |          97 |
|     238 | 0x2D82      |       11650 |
|     239 | 0x2D83      |       11651 |
|     240 | 0x2D84      |       11652 |
|     241 | 0x2961      |       10593 |
|     242 | 0x00EF      |         239 |
|     243 | 0x01EF      |         495 |
|     244 | 0x28E4      |       10468 |
|     245 | 0x2D7C      |       11644 |
|     246 | 0x2B91      |       11153 |
|     247 | 0x2D7D      |       11645 |
|     248 | 0x2B93      |       11155 |
|     249 | 0x2D7E      |       11646 |
|     250 | 0x0060      |          96 |
|     251 | 0x0008      |           8 |
|     252 | 0x0360      |         864 |
|     253 | 0x2D7A      |       11642 |
|     254 | 0x2D7B      |       11643 |
|     255 | 0x2D6B      |       11627 |
|     256 | 0x2D6D      |       11629 |
|     257 | 0x2D6C      |       11628 |
|     258 | 0x2B7F      |       11135 |
|     259 | 0x2D6E      |       11630 |
|     260 | 0x2D70      |       11632 |
|     261 | 0x2D6F      |       11631 |
|     262 | 0x2B83      |       11139 |
|     263 | 0x2D71      |       11633 |
|     264 | 0x2D73      |       11635 |
|     265 | 0x2D72      |       11634 |
|     266 | 0x2B87      |       11143 |
|     267 | 0x2D74      |       11636 |
|     268 | 0x2D75      |       11637 |
|     269 | 0x2D76      |       11638 |
|     270 | 0x2D77      |       11639 |
|     271 | 0x2D78      |       11640 |
|     272 | 0x2D79      |       11641 |
|     273 | 0x00F0      |         240 |
|     274 | 0x002E      |          46 |
|     275 | 0x2D31      |       11569 |
|     276 | 0x2D30      |       11568 |
|     277 | 0x00FB      |         251 |
|     278 | 0x0012      |          18 |
|     279 | 0x2D32      |       11570 |
|     280 | 0x2D33      |       11571 |
|     281 | 0x2D34      |       11572 |
|     282 | 0x2D35      |       11573 |
|     283 | 0x2D36      |       11574 |
|     284 | 0x2D37      |       11575 |
|     285 | 0x2D38      |       11576 |
|     286 | 0x2D39      |       11577 |
|     287 | 0x2D3A      |       11578 |
|     288 | 0x0216      |         534 |
|     289 | 0x2D3B      |       11579 |
|     290 | 0x0899      |        2201 |
|     291 | 0x2D3D      |       11581 |
|     292 | 0x089A      |        2202 |
|     293 | 0x2D3C      |       11580 |
|     294 | 0x2D3F      |       11583 |
|     295 | 0x2D40      |       11584 |
|     296 | 0x2D41      |       11585 |
|     297 | 0x2D3E      |       11582 |
|     298 | 0x2D42      |       11586 |
|     299 | 0x2D43      |       11587 |
|     300 | 0x2D44      |       11588 |
|     301 | 0x2D45      |       11589 |
|     302 | 0x000B      |          11 |
|     303 | 0x2D46      |       11590 |
|     304 | 0x000C      |          12 |
|     305 | 0x2D47      |       11591 |
|     306 | 0x2D48      |       11592 |
|     307 | 0x2D49      |       11593 |
|     308 | 0x2D4A      |       11594 |
|     309 | 0x2D4B      |       11595 |
|     310 | 0x2D4C      |       11596 |
|     311 | 0x2D4D      |       11597 |
|     312 | 0x2D4E      |       11598 |
|     313 | 0x2D04      |       11524 |
|     314 | 0x2D06      |       11526 |
|     315 | 0x2D07      |       11527 |
|     316 | 0x0DCF      |        3535 |
|     317 | 0x0368      |         872 |
|     318 | 0x2D05      |       11525 |
|     319 | 0x2D08      |       11528 |
|     320 | 0x00F3      |         243 |
|     321 | 0x294E      |       10574 |
|     322 | 0x2D51      |       11601 |
|     323 | 0x294F      |       10575 |
|     324 | 0x00F2      |         242 |
|     325 | 0x0030      |          48 |
|     326 | 0x2D4F      |       11599 |
|     327 | 0x2D50      |       11600 |
|     328 | 0x2D52      |       11602 |
|     329 | 0x0032      |          50 |
|     330 | 0x2D53      |       11603 |
|     331 | 0x0033      |          51 |
|     332 | 0x2D54      |       11604 |
|     333 | 0x2D55      |       11605 |
|     334 | 0x0034      |          52 |
|     335 | 0x2D56      |       11606 |
|     336 | 0x2E75      |       11893 |
|     337 | 0x002A      |          42 |
|     338 | 0x2D57      |       11607 |
|     339 | 0x002B      |          43 |
|     340 | 0x2D58      |       11608 |
|     341 | 0x002C      |          44 |
|     342 | 0x2913      |       10515 |
|     343 | 0x2914      |       10516 |
|     344 | 0x291A      |       10522 |
|     345 | 0x01FE      |         510 |
|     346 | 0x02FE      |         766 |
|     347 | 0x03FE      |        1022 |
|     348 | 0x291E      |       10526 |
|     349 | 0x2915      |       10517 |
|     350 | 0x2D59      |       11609 |
|     351 | 0x28E0      |       10464 |
|     352 | 0x2D5A      |       11610 |
|     353 | 0x2D5B      |       11611 |
|     354 | 0x2D5C      |       11612 |
|     355 | 0x2D5D      |       11613 |
|     356 | 0x2D5E      |       11614 |
|     357 | 0x2D5F      |       11615 |
|     358 | 0x2D60      |       11616 |
|     359 | 0x2D61      |       11617 |
|     360 | 0x2D62      |       11618 |
|     361 | 0x2D63      |       11619 |
|     362 | 0x2D64      |       11620 |
|     363 | 0x2D65      |       11621 |
|     364 | 0x2D66      |       11622 |
|     365 | 0x2D67      |       11623 |
|     366 | 0x2D68      |       11624 |
|     367 | 0x2D69      |       11625 |
|     368 | 0x2D6A      |       11626 |
|     369 | 0x2917      |       10519 |
|     370 | 0x2959      |       10585 |
|     371 | 0x7800      |       30720 |
|     372 | 0x000E      |          14 |
|     373 | 0x4000      |       16384 |
|     374 | 0x3800      |       14336 |
|     375 | 0x295A      |       10586 |
|     376 | 0x0011      |          17 |
|     377 | 0x2DB0      |       11696 |
|     378 | 0x295C      |       10588 |
|     379 | 0xBFFFFFC0  |  3221225408 |
|     380 | 0x4000000   |    67108864 |
|     381 | 0x3FFC0000  |  1073479680 |
|     382 | 0x3F000000  |  1056964608 |
|     383 | 0x0800      |        2048 |
|     384 | 0x3FFFC100  |  1073725696 |
|     385 | 0x3F800000  |  1065353216 |
|     386 | 0x200000    |     2097152 |
|     387 | 0x3FC00000  |  1069547520 |
|     388 | 0xBFFFC000  |  3221209088 |
|     389 | 0xBFFFFFFC  |  3221225468 |
|     390 | 0x3FFFC000  |  1073725440 |
|     391 | 0x006C      |         108 |
|     392 | 0x00AE      |         174 |
|     393 | 0x00C2      |         194 |
|     394 | 0x008F      |         143 |
|     395 | 0x0054      |          84 |
|     396 | 0x0015      |          21 |
|     397 | 0x0016      |          22 |
|     398 | 0x0020      |          32 |
|     399 | 0x0021      |          33 |
|     400 | 0x0022      |          34 |
|     401 | 0x0023      |          35 |
|     402 | 0x0024      |          36 |
|     403 | 0x0025      |          37 |
|     404 | 0x0026      |          38 |
|     405 | 0x0027      |          39 |
|     406 | 0x0029      |          41 |
|     407 | 0x002D      |          45 |
|     408 | 0x0035      |          53 |
|     409 | 0x0036      |          54 |
|     410 | 0x0037      |          55 |
|     411 | 0x0038      |          56 |
|     412 | 0x0039      |          57 |
|     413 | 0x003A      |          58 |
|     414 | 0x003B      |          59 |
|     415 | 0x003D      |          61 |
|     416 | 0x003F      |          63 |
|     417 | 0x0040      |          64 |
|     418 | 0x0041      |          65 |
|     419 | 0x0042      |          66 |
|     420 | 0x0043      |          67 |
|     421 | 0x0044      |          68 |
|     422 | 0x0045      |          69 |
|     423 | 0x0046      |          70 |
|     424 | 0x0047      |          71 |
|     425 | 0x0048      |          72 |
|     426 | 0x0049      |          73 |
|     427 | 0x004A      |          74 |
|     428 | 0x004B      |          75 |
|     429 | 0x004C      |          76 |
|     430 | 0x004D      |          77 |
|     431 | 0x004E      |          78 |
|     432 | 0x004F      |          79 |
|     433 | 0x0050      |          80 |
|     434 | 0x0051      |          81 |
|     435 | 0x0052      |          82 |
|     436 | 0x0053      |          83 |
|     437 | 0x0055      |          85 |
|     438 | 0x0056      |          86 |
|     439 | 0x0057      |          87 |
|     440 | 0x0058      |          88 |
|     441 | 0x0059      |          89 |
|     442 | 0x005A      |          90 |
|     443 | 0x005B      |          91 |
|     444 | 0x005C      |          92 |
|     445 | 0x005D      |          93 |
|     446 | 0x005E      |          94 |
|     447 | 0x005F      |          95 |
|     448 | 0x0062      |          98 |
|     449 | 0x0063      |          99 |
|     450 | 0x0065      |         101 |
|     451 | 0x0066      |         102 |
|     452 | 0x0067      |         103 |
|     453 | 0x0068      |         104 |
|     454 | 0x0069      |         105 |
|     455 | 0x006A      |         106 |
|     456 | 0x006B      |         107 |
|     457 | 0x006D      |         109 |
|     458 | 0x006E      |         110 |
|     459 | 0x006F      |         111 |
|     460 | 0x0070      |         112 |
|     461 | 0x0071      |         113 |
|     462 | 0x0072      |         114 |
|     463 | 0x0073      |         115 |
|     464 | 0x0074      |         116 |
|     465 | 0x0075      |         117 |
|     466 | 0x0077      |         119 |
|     467 | 0x0079      |         121 |
|     468 | 0x007A      |         122 |
|     469 | 0x007B      |         123 |
|     470 | 0x007C      |         124 |
|     471 | 0x007D      |         125 |
|     472 | 0x007E      |         126 |
|     473 | 0x007F      |         127 |
|     474 | 0x0080      |         128 |
|     475 | 0x0081      |         129 |
|     476 | 0x0082      |         130 |
|     477 | 0x0083      |         131 |
|     478 | 0x0084      |         132 |
|     479 | 0x0085      |         133 |
|     480 | 0x0086      |         134 |
|     481 | 0x0087      |         135 |
|     482 | 0x0088      |         136 |
|     483 | 0x0089      |         137 |
|     484 | 0x008A      |         138 |
|     485 | 0x008C      |         140 |
|     486 | 0x008D      |         141 |
|     487 | 0x008E      |         142 |
|     488 | 0x0090      |         144 |
|     489 | 0x0091      |         145 |
|     490 | 0x0092      |         146 |
|     491 | 0x0093      |         147 |
|     492 | 0x0094      |         148 |
|     493 | 0x0095      |         149 |
|     494 | 0x0098      |         152 |
|     495 | 0x0099      |         153 |
|     496 | 0x009A      |         154 |
|     497 | 0x009B      |         155 |
|     498 | 0x009C      |         156 |
|     499 | 0x009D      |         157 |
|     500 | 0x009E      |         158 |
|     501 | 0x009F      |         159 |
|     502 | 0x00A0      |         160 |
|     503 | 0x00A1      |         161 |
|     504 | 0x00A2      |         162 |
|     505 | 0x00A3      |         163 |
|     506 | 0x00A4      |         164 |
|     507 | 0x00A5      |         165 |
|     508 | 0x00A6      |         166 |
|     509 | 0x00A7      |         167 |
|     510 | 0x00A8      |         168 |
|     511 | 0x00A9      |         169 |
|     512 | 0x00AA      |         170 |
|     513 | 0x00AB      |         171 |
|     514 | 0x00AC      |         172 |
|     515 | 0x00AD      |         173 |
|     516 | 0x00AF      |         175 |
|     517 | 0x00B0      |         176 |
|     518 | 0x00B1      |         177 |
|     519 | 0x00B2      |         178 |
|     520 | 0x00B3      |         179 |
|     521 | 0x00B4      |         180 |
|     522 | 0x00B5      |         181 |
|     523 | 0x00B6      |         182 |
|     524 | 0x00B7      |         183 |
|     525 | 0x00B8      |         184 |
|     526 | 0x00B9      |         185 |
|     527 | 0x00BA      |         186 |
|     528 | 0x00BB      |         187 |
|     529 | 0x00BD      |         189 |
|     530 | 0x00BE      |         190 |
|     531 | 0x00BF      |         191 |
|     532 | 0x00C0      |         192 |
|     533 | 0x00C1      |         193 |
|     534 | 0x00C3      |         195 |
|     535 | 0x00C4      |         196 |
|     536 | 0x00C5      |         197 |
|     537 | 0x00C6      |         198 |
|     538 | 0x00C7      |         199 |
|     539 | 0x00C9      |         201 |
|     540 | 0x00CA      |         202 |
|     541 | 0x00CB      |         203 |
|     542 | 0x00CC      |         204 |
|     543 | 0x00CD      |         205 |
|     544 | 0x00CE      |         206 |
|     545 | 0x00CF      |         207 |
|     546 | 0x00D1      |         209 |
|     547 | 0x00D2      |         210 |
|     548 | 0x00D3      |         211 |
|     549 | 0x00D4      |         212 |
|     550 | 0x00D5      |         213 |
|     551 | 0x00D8      |         216 |
|     552 | 0x00D9      |         217 |
|     553 | 0x00DA      |         218 |
|     554 | 0x00DB      |         219 |
|     555 | 0x00DC      |         220 |
|     556 | 0x00E1      |         225 |
|     557 | 0x00E3      |         227 |
|     558 | 0x00E4      |         228 |
|     559 | 0x00E5      |         229 |
|     560 | 0x00E6      |         230 |
|     561 | 0x00E7      |         231 |
|     562 | 0x00E9      |         233 |
|     563 | 0x00EA      |         234 |
|     564 | 0x00EB      |         235 |
|     565 | 0x00EC      |         236 |
|     566 | 0x00ED      |         237 |
|     567 | 0x00EE      |         238 |
|     568 | 0x00F4      |         244 |
|     569 | 0x00F7      |         247 |
|     570 | 0x00F9      |         249 |
|     571 | 0x00FC      |         252 |
|     572 | 0x00FD      |         253 |
|     573 | 0x0101      |         257 |
|     574 | 0x0102      |         258 |
|     575 | 0x0103      |         259 |
|     576 | 0x0104      |         260 |
|     577 | 0x0105      |         261 |
|     578 | 0x0106      |         262 |
|     579 | 0x0107      |         263 |
|     580 | 0x0108      |         264 |
|     581 | 0x0109      |         265 |
|     582 | 0x010A      |         266 |
|     583 | 0x010B      |         267 |
|     584 | 0x010C      |         268 |
|     585 | 0x010D      |         269 |
|     586 | 0x010E      |         270 |
|     587 | 0x010F      |         271 |
|     588 | 0x0110      |         272 |
|     589 | 0x0111      |         273 |
|     590 | 0x0112      |         274 |
|     591 | 0x0113      |         275 |
|     592 | 0x0114      |         276 |
|     593 | 0x0115      |         277 |
|     594 | 0x0116      |         278 |
|     595 | 0x0117      |         279 |
|     596 | 0x0118      |         280 |
|     597 | 0x0119      |         281 |
|     598 | 0x011A      |         282 |
|     599 | 0x011B      |         283 |
|     600 | 0x011C      |         284 |
|     601 | 0x011D      |         285 |
|     602 | 0x011E      |         286 |
|     603 | 0x011F      |         287 |
|     604 | 0x0120      |         288 |
|     605 | 0x0121      |         289 |
|     606 | 0x0122      |         290 |
|     607 | 0x0123      |         291 |
|     608 | 0x0124      |         292 |
|     609 | 0x0125      |         293 |
|     610 | 0x0126      |         294 |
|     611 | 0x0127      |         295 |
|     612 | 0x0128      |         296 |
|     613 | 0x012A      |         298 |
|     614 | 0x012B      |         299 |
|     615 | 0x012D      |         301 |
|     616 | 0x012E      |         302 |
|     617 | 0x012F      |         303 |
|     618 | 0x0130      |         304 |
|     619 | 0x0131      |         305 |
|     620 | 0x0132      |         306 |
|     621 | 0x0133      |         307 |
|     622 | 0x0134      |         308 |
|     623 | 0x0135      |         309 |
|     624 | 0x0136      |         310 |
|     625 | 0x0137      |         311 |
|     626 | 0x0138      |         312 |
|     627 | 0x0139      |         313 |
|     628 | 0x013A      |         314 |
|     629 | 0x013B      |         315 |
|     630 | 0x013C      |         316 |
|     631 | 0x013D      |         317 |
|     632 | 0x013E      |         318 |
|     633 | 0x013F      |         319 |
|     634 | 0x0140      |         320 |
|     635 | 0x0141      |         321 |
|     636 | 0x0142      |         322 |
|     637 | 0x0143      |         323 |
|     638 | 0x0144      |         324 |
|     639 | 0x0145      |         325 |
|     640 | 0x0146      |         326 |
|     641 | 0x0147      |         327 |
|     642 | 0x0149      |         329 |
|     643 | 0x014A      |         330 |
|     644 | 0x014B      |         331 |
|     645 | 0x014C      |         332 |
|     646 | 0x014D      |         333 |
|     647 | 0x014E      |         334 |
|     648 | 0x014F      |         335 |
|     649 | 0x0150      |         336 |
|     650 | 0x0151      |         337 |
|     651 | 0x0152      |         338 |
|     652 | 0x0153      |         339 |
|     653 | 0x0154      |         340 |
|     654 | 0x0155      |         341 |
|     655 | 0x0156      |         342 |
|     656 | 0x0157      |         343 |
|     657 | 0x0158      |         344 |
|     658 | 0x0159      |         345 |
|     659 | 0x015A      |         346 |
|     660 | 0x015B      |         347 |
|     661 | 0x015C      |         348 |
|     662 | 0x015D      |         349 |
|     663 | 0x015E      |         350 |
|     664 | 0x015F      |         351 |
|     665 | 0x0160      |         352 |
|     666 | 0x0161      |         353 |
|     667 | 0x0162      |         354 |
|     668 | 0x0163      |         355 |
|     669 | 0x0164      |         356 |
|     670 | 0x0165      |         357 |
|     671 | 0x0166      |         358 |
|     672 | 0x0167      |         359 |
|     673 | 0x0168      |         360 |
|     674 | 0x0169      |         361 |
|     675 | 0x016A      |         362 |
|     676 | 0x016B      |         363 |
|     677 | 0x016C      |         364 |
|     678 | 0x016D      |         365 |
|     679 | 0x016E      |         366 |
|     680 | 0x016F      |         367 |
|     681 | 0x0170      |         368 |
|     682 | 0x0171      |         369 |
|     683 | 0x0172      |         370 |
|     684 | 0x0173      |         371 |
|     685 | 0x0174      |         372 |
|     686 | 0x0175      |         373 |
|     687 | 0x0176      |         374 |
|     688 | 0x0177      |         375 |
|     689 | 0x0178      |         376 |
|     690 | 0x0179      |         377 |
|     691 | 0x017A      |         378 |
|     692 | 0x017B      |         379 |
|     693 | 0x017C      |         380 |
|     694 | 0x017D      |         381 |
|     695 | 0x017E      |         382 |
|     696 | 0x017F      |         383 |
|     697 | 0x0180      |         384 |
|     698 | 0x0181      |         385 |
|     699 | 0x0182      |         386 |
|     700 | 0x0183      |         387 |
|     701 | 0x0184      |         388 |
|     702 | 0x0185      |         389 |
|     703 | 0x0186      |         390 |
|     704 | 0x0187      |         391 |
|     705 | 0x0188      |         392 |
|     706 | 0x0189      |         393 |
|     707 | 0x018A      |         394 |
|     708 | 0x018B      |         395 |
|     709 | 0x018C      |         396 |
|     710 | 0x018D      |         397 |
|     711 | 0x018E      |         398 |
|     712 | 0x018F      |         399 |
|     713 | 0x0190      |         400 |
|     714 | 0x0191      |         401 |
|     715 | 0x0192      |         402 |
|     716 | 0x0193      |         403 |
|     717 | 0x0194      |         404 |
|     718 | 0x0195      |         405 |
|     719 | 0x0196      |         406 |
|     720 | 0x0197      |         407 |
|     721 | 0x0198      |         408 |
|     722 | 0x0199      |         409 |
|     723 | 0x019A      |         410 |
|     724 | 0x019B      |         411 |
|     725 | 0x019C      |         412 |
|     726 | 0x019D      |         413 |
|     727 | 0x019E      |         414 |
|     728 | 0x019F      |         415 |
|     729 | 0x01A0      |         416 |
|     730 | 0x01A1      |         417 |
|     731 | 0x01A2      |         418 |
|     732 | 0x01A3      |         419 |
|     733 | 0x01A4      |         420 |
|     734 | 0x01A6      |         422 |
|     735 | 0x01A7      |         423 |
|     736 | 0x01A8      |         424 |
|     737 | 0x01A9      |         425 |
|     738 | 0x01AA      |         426 |
|     739 | 0x01AB      |         427 |
|     740 | 0x01AC      |         428 |
|     741 | 0x01AD      |         429 |
|     742 | 0x01AE      |         430 |
|     743 | 0x01AF      |         431 |
|     744 | 0x01B0      |         432 |
|     745 | 0x01B1      |         433 |
|     746 | 0x01B2      |         434 |
|     747 | 0x01B3      |         435 |
|     748 | 0x01B4      |         436 |
|     749 | 0x01B5      |         437 |
|     750 | 0x01B6      |         438 |
|     751 | 0x01B7      |         439 |
|     752 | 0x01B8      |         440 |
|     753 | 0x01B9      |         441 |
|     754 | 0x01BA      |         442 |
|     755 | 0x01BB      |         443 |
|     756 | 0x01BC      |         444 |
|     757 | 0x01BD      |         445 |
|     758 | 0x01BE      |         446 |
|     759 | 0x01BF      |         447 |
|     760 | 0x01C0      |         448 |
|     761 | 0x01C1      |         449 |
|     762 | 0x01C2      |         450 |
|     763 | 0x01C3      |         451 |
|     764 | 0x01C4      |         452 |
|     765 | 0x01C5      |         453 |
|     766 | 0x01C6      |         454 |
|     767 | 0x01C7      |         455 |
|     768 | 0x01C8      |         456 |
|     769 | 0x01C9      |         457 |
|     770 | 0x01CA      |         458 |
|     771 | 0x01CB      |         459 |
|     772 | 0x01CC      |         460 |
|     773 | 0x01CD      |         461 |
|     774 | 0x01CE      |         462 |
|     775 | 0x01CF      |         463 |
|     776 | 0x01D0      |         464 |
|     777 | 0x01D1      |         465 |
|     778 | 0x01D2      |         466 |
|     779 | 0x01D3      |         467 |
|     780 | 0x01D4      |         468 |
|     781 | 0x01D5      |         469 |
|     782 | 0x01D6      |         470 |
|     783 | 0x01D7      |         471 |
|     784 | 0x01D8      |         472 |
|     785 | 0x01D9      |         473 |
|     786 | 0x01DA      |         474 |
|     787 | 0x01DB      |         475 |
|     788 | 0x01DC      |         476 |
|     789 | 0x01DD      |         477 |
|     790 | 0x01DE      |         478 |
|     791 | 0x01DF      |         479 |
|     792 | 0x01E0      |         480 |
|     793 | 0x01E1      |         481 |
|     794 | 0x01E2      |         482 |
|     795 | 0x01E3      |         483 |
|     796 | 0x01E4      |         484 |
|     797 | 0x01E5      |         485 |
|     798 | 0x01E6      |         486 |
|     799 | 0x01E7      |         487 |
|     800 | 0x01E8      |         488 |
|     801 | 0x01E9      |         489 |
|     802 | 0x01EA      |         490 |
|     803 | 0x01EB      |         491 |
|     804 | 0x01EC      |         492 |
|     805 | 0x01ED      |         493 |
|     806 | 0x01EE      |         494 |
|     807 | 0x01F0      |         496 |
|     808 | 0x01F1      |         497 |
|     809 | 0x01F2      |         498 |
|     810 | 0x01F3      |         499 |
|     811 | 0x01F4      |         500 |
|     812 | 0x01F5      |         501 |
|     813 | 0x01F6      |         502 |
|     814 | 0x01F7      |         503 |
|     815 | 0x01F9      |         505 |
|     816 | 0x01FA      |         506 |
|     817 | 0x01FB      |         507 |
|     818 | 0x01FC      |         508 |
|     819 | 0x01FD      |         509 |
|     820 | 0x01FF      |         511 |
|     821 | 0x0201      |         513 |
|     822 | 0x0202      |         514 |
|     823 | 0x0203      |         515 |
|     824 | 0x0204      |         516 |
|     825 | 0x0205      |         517 |
|     826 | 0x0206      |         518 |
|     827 | 0x0207      |         519 |
|     828 | 0x0208      |         520 |
|     829 | 0x0209      |         521 |
|     830 | 0x020A      |         522 |
|     831 | 0x020B      |         523 |
|     832 | 0x020C      |         524 |
|     833 | 0x020D      |         525 |
|     834 | 0x020E      |         526 |
|     835 | 0x020F      |         527 |
|     836 | 0x0210      |         528 |
|     837 | 0x0211      |         529 |
|     838 | 0x0212      |         530 |
|     839 | 0x0213      |         531 |
|     840 | 0x0214      |         532 |
|     841 | 0x0215      |         533 |
|     842 | 0x0217      |         535 |
|     843 | 0x0218      |         536 |
|     844 | 0x0219      |         537 |
|     845 | 0x021A      |         538 |
|     846 | 0x021B      |         539 |
|     847 | 0x021C      |         540 |
|     848 | 0x021D      |         541 |
|     849 | 0x021E      |         542 |
|     850 | 0x021F      |         543 |
|     851 | 0x0220      |         544 |
|     852 | 0x0221      |         545 |
|     853 | 0x0222      |         546 |
|     854 | 0x0223      |         547 |
|     855 | 0x0224      |         548 |
|     856 | 0x0225      |         549 |
|     857 | 0x0226      |         550 |
|     858 | 0x0227      |         551 |
|     859 | 0x0228      |         552 |
|     860 | 0x0229      |         553 |
|     861 | 0x022A      |         554 |
|     862 | 0x022B      |         555 |
|     863 | 0x022C      |         556 |
|     864 | 0x022D      |         557 |
|     865 | 0x022E      |         558 |
|     866 | 0x022F      |         559 |
|     867 | 0x0230      |         560 |
|     868 | 0x0231      |         561 |
|     869 | 0x0232      |         562 |
|     870 | 0x0233      |         563 |
|     871 | 0x0234      |         564 |
|     872 | 0x0235      |         565 |
|     873 | 0x0236      |         566 |
|     874 | 0x0237      |         567 |
|     875 | 0x0238      |         568 |
|     876 | 0x0239      |         569 |
|     877 | 0x023A      |         570 |
|     878 | 0x023B      |         571 |
|     879 | 0x023C      |         572 |
|     880 | 0x023D      |         573 |
|     881 | 0x023E      |         574 |
|     882 | 0x023F      |         575 |
|     883 | 0x0240      |         576 |
|     884 | 0x0242      |         578 |
|     885 | 0x0243      |         579 |
|     886 | 0x0244      |         580 |
|     887 | 0x0245      |         581 |
|     888 | 0x0246      |         582 |
|     889 | 0x0247      |         583 |
|     890 | 0x0248      |         584 |
|     891 | 0x0249      |         585 |
|     892 | 0x024A      |         586 |
|     893 | 0x024B      |         587 |
|     894 | 0x024C      |         588 |
|     895 | 0x024D      |         589 |
|     896 | 0x024E      |         590 |
|     897 | 0x024F      |         591 |
|     898 | 0x0250      |         592 |
|     899 | 0x0251      |         593 |
|     900 | 0x0252      |         594 |
|     901 | 0x0253      |         595 |
|     902 | 0x0254      |         596 |
|     903 | 0x0255      |         597 |
|     904 | 0x0256      |         598 |
|     905 | 0x0257      |         599 |
|     906 | 0x0258      |         600 |
|     907 | 0x0259      |         601 |
|     908 | 0x025A      |         602 |
|     909 | 0x025B      |         603 |
|     910 | 0x025C      |         604 |
|     911 | 0x025D      |         605 |
|     912 | 0x025E      |         606 |
|     913 | 0x025F      |         607 |
|     914 | 0x0260      |         608 |
|     915 | 0x0261      |         609 |
|     916 | 0x0262      |         610 |
|     917 | 0x0263      |         611 |
|     918 | 0x0264      |         612 |
|     919 | 0x0265      |         613 |
|     920 | 0x0266      |         614 |
|     921 | 0x0267      |         615 |
|     922 | 0x0268      |         616 |
|     923 | 0x0269      |         617 |
|     924 | 0x026A      |         618 |
|     925 | 0x026B      |         619 |
|     926 | 0x026C      |         620 |
|     927 | 0x026D      |         621 |
|     928 | 0x026E      |         622 |
|     929 | 0x026F      |         623 |
|     930 | 0x0270      |         624 |
|     931 | 0x0271      |         625 |
|     932 | 0x0272      |         626 |
|     933 | 0x0273      |         627 |
|     934 | 0x0274      |         628 |
|     935 | 0x0275      |         629 |
|     936 | 0x0276      |         630 |
|     937 | 0x0277      |         631 |
|     938 | 0x0278      |         632 |
|     939 | 0x0279      |         633 |
|     940 | 0x027A      |         634 |
|     941 | 0x027B      |         635 |
|     942 | 0x027C      |         636 |
|     943 | 0x027D      |         637 |
|     944 | 0x027E      |         638 |
|     945 | 0x027F      |         639 |
|     946 | 0x0280      |         640 |
|     947 | 0x0281      |         641 |
|     948 | 0x0282      |         642 |
|     949 | 0x0283      |         643 |
|     950 | 0x0284      |         644 |
|     951 | 0x0285      |         645 |
|     952 | 0x0286      |         646 |
|     953 | 0x0287      |         647 |
|     954 | 0x0288      |         648 |
|     955 | 0x0289      |         649 |
|     956 | 0x028A      |         650 |
|     957 | 0x028B      |         651 |
|     958 | 0x028C      |         652 |
|     959 | 0x028D      |         653 |
|     960 | 0x028E      |         654 |
|     961 | 0x028F      |         655 |
|     962 | 0x0290      |         656 |
|     963 | 0x0291      |         657 |
|     964 | 0x0292      |         658 |
|     965 | 0x0293      |         659 |
|     966 | 0x0294      |         660 |
|     967 | 0x0295      |         661 |
|     968 | 0x0296      |         662 |
|     969 | 0x0297      |         663 |
|     970 | 0x0298      |         664 |
|     971 | 0x0299      |         665 |
|     972 | 0x029A      |         666 |
|     973 | 0x029C      |         668 |
|     974 | 0x029D      |         669 |
|     975 | 0x029E      |         670 |
|     976 | 0x029F      |         671 |
|     977 | 0x02A0      |         672 |
|     978 | 0x02A1      |         673 |
|     979 | 0x02A2      |         674 |
|     980 | 0x02A3      |         675 |
|     981 | 0x02A4      |         676 |
|     982 | 0x02A5      |         677 |
|     983 | 0x02A6      |         678 |
|     984 | 0x02A7      |         679 |
|     985 | 0x02A8      |         680 |
|     986 | 0x02A9      |         681 |
|     987 | 0x02AA      |         682 |
|     988 | 0x02AB      |         683 |
|     989 | 0x02AC      |         684 |
|     990 | 0x02AD      |         685 |
|     991 | 0x02AE      |         686 |
|     992 | 0x02AF      |         687 |
|     993 | 0x02B0      |         688 |
|     994 | 0x02B1      |         689 |
|     995 | 0x02B2      |         690 |
|     996 | 0x02B3      |         691 |
|     997 | 0x02B4      |         692 |
|     998 | 0x02B5      |         693 |
|     999 | 0x02B6      |         694 |
|    1000 | 0x02B7      |         695 |
|    1001 | 0x02B8      |         696 |
|    1002 | 0x02B9      |         697 |
|    1003 | 0x02BA      |         698 |
|    1004 | 0x02BB      |         699 |
|    1005 | 0x02BC      |         700 |
|    1006 | 0x02BD      |         701 |
|    1007 | 0x02BE      |         702 |
|    1008 | 0x02BF      |         703 |
|    1009 | 0x02C0      |         704 |
|    1010 | 0x02C1      |         705 |
|    1011 | 0x02C2      |         706 |
|    1012 | 0x02C3      |         707 |
|    1013 | 0x02C4      |         708 |
|    1014 | 0x02C5      |         709 |
|    1015 | 0x02C6      |         710 |
|    1016 | 0x02C7      |         711 |
|    1017 | 0x02C8      |         712 |
|    1018 | 0x02C9      |         713 |
|    1019 | 0x02CA      |         714 |
|    1020 | 0x02CB      |         715 |
|    1021 | 0x02CC      |         716 |
|    1022 | 0x02CD      |         717 |
|    1023 | 0x02CE      |         718 |
|    1024 | 0x02CF      |         719 |
|    1025 | 0x02D0      |         720 |
|    1026 | 0x02D1      |         721 |
|    1027 | 0x02D2      |         722 |
|    1028 | 0x02D3      |         723 |
|    1029 | 0x02D4      |         724 |
|    1030 | 0x02D5      |         725 |
|    1031 | 0x02D6      |         726 |
|    1032 | 0x02D7      |         727 |
|    1033 | 0x02D8      |         728 |
|    1034 | 0x02D9      |         729 |
|    1035 | 0x02DA      |         730 |
|    1036 | 0x02DB      |         731 |
|    1037 | 0x02DC      |         732 |
|    1038 | 0x02DD      |         733 |
|    1039 | 0x02DE      |         734 |
|    1040 | 0x02DF      |         735 |
|    1041 | 0x02E0      |         736 |
|    1042 | 0x02E1      |         737 |
|    1043 | 0x02E2      |         738 |
|    1044 | 0x02E3      |         739 |
|    1045 | 0x02E4      |         740 |
|    1046 | 0x02E5      |         741 |
|    1047 | 0x02E7      |         743 |
|    1048 | 0x02E8      |         744 |
|    1049 | 0x02E9      |         745 |
|    1050 | 0x02EA      |         746 |
|    1051 | 0x02EB      |         747 |
|    1052 | 0x02EC      |         748 |
|    1053 | 0x02ED      |         749 |
|    1054 | 0x02EE      |         750 |
|    1055 | 0x02EF      |         751 |
|    1056 | 0x02F0      |         752 |
|    1057 | 0x02F1      |         753 |
|    1058 | 0x02F2      |         754 |
|    1059 | 0x02F3      |         755 |
|    1060 | 0x02F4      |         756 |
|    1061 | 0x02F5      |         757 |
|    1062 | 0x02F6      |         758 |
|    1063 | 0x02F7      |         759 |
|    1064 | 0x02F8      |         760 |
|    1065 | 0x02F9      |         761 |
|    1066 | 0x02FA      |         762 |
|    1067 | 0x02FB      |         763 |
|    1068 | 0x02FC      |         764 |
|    1069 | 0x02FD      |         765 |
|    1070 | 0x02FF      |         767 |
|    1071 | 0x0300      |         768 |
|    1072 | 0x0301      |         769 |
|    1073 | 0x0302      |         770 |
|    1074 | 0x0303      |         771 |
|    1075 | 0x0304      |         772 |
|    1076 | 0x0305      |         773 |
|    1077 | 0x0306      |         774 |
|    1078 | 0x0307      |         775 |
|    1079 | 0x0308      |         776 |
|    1080 | 0x0309      |         777 |
|    1081 | 0x030A      |         778 |
|    1082 | 0x030B      |         779 |
|    1083 | 0x030C      |         780 |
|    1084 | 0x030D      |         781 |
|    1085 | 0x030E      |         782 |
|    1086 | 0x030F      |         783 |
|    1087 | 0x0310      |         784 |
|    1088 | 0x0311      |         785 |
|    1089 | 0x0312      |         786 |
|    1090 | 0x0313      |         787 |
|    1091 | 0x0314      |         788 |
|    1092 | 0x0315      |         789 |
|    1093 | 0x0316      |         790 |
|    1094 | 0x0317      |         791 |
|    1095 | 0x0318      |         792 |
|    1096 | 0x0319      |         793 |
|    1097 | 0x031A      |         794 |
|    1098 | 0x031B      |         795 |
|    1099 | 0x031C      |         796 |
|    1100 | 0x031D      |         797 |
|    1101 | 0x031E      |         798 |
|    1102 | 0x031F      |         799 |
|    1103 | 0x0321      |         801 |
|    1104 | 0x0322      |         802 |
|    1105 | 0x0323      |         803 |
|    1106 | 0x0324      |         804 |
|    1107 | 0x0325      |         805 |
|    1108 | 0x0326      |         806 |
|    1109 | 0x0327      |         807 |
|    1110 | 0x0328      |         808 |
|    1111 | 0x032A      |         810 |
|    1112 | 0x032B      |         811 |
|    1113 | 0x032C      |         812 |
|    1114 | 0x032D      |         813 |
|    1115 | 0x032E      |         814 |
|    1116 | 0x032F      |         815 |
|    1117 | 0x0330      |         816 |
|    1118 | 0x0331      |         817 |
|    1119 | 0x0332      |         818 |
|    1120 | 0x0333      |         819 |
|    1121 | 0x0334      |         820 |
|    1122 | 0x0335      |         821 |
|    1123 | 0x0336      |         822 |
|    1124 | 0x0337      |         823 |
|    1125 | 0x0338      |         824 |
|    1126 | 0x0339      |         825 |
|    1127 | 0x033A      |         826 |
|    1128 | 0x033B      |         827 |
|    1129 | 0x033C      |         828 |
|    1130 | 0x033D      |         829 |
|    1131 | 0x033E      |         830 |
|    1132 | 0x07CC      |        1996 |
|    1133 | 0x07CD      |        1997 |
|    1134 | 0x07CE      |        1998 |
|    1135 | 0x07CF      |        1999 |
|    1136 | 0x07D0      |        2000 |
|    1137 | 0x07D1      |        2001 |
|    1138 | 0x07D2      |        2002 |
|    1139 | 0x2A26      |       10790 |
|    1140 | 0x2A27      |       10791 |
|    1141 | 0x2A28      |       10792 |
|    1142 | 0x2A29      |       10793 |
|    1143 | 0x2A2A      |       10794 |
|    1144 | 0x2A2B      |       10795 |
|    1145 | 0x2A45      |       10821 |
|    1146 | 0x2A47      |       10823 |
|    1147 | 0x2CD2      |       11474 |
|    1148 | 0x2CD3      |       11475 |
|    1149 | 0x2A6C      |       10860 |
|    1150 | 0x035A      |         858 |
|    1151 | 0x2934      |       10548 |
|    1152 | 0x2935      |       10549 |
|    1153 | 0x2936      |       10550 |
|    1154 | 0x2937      |       10551 |
|    1155 | 0x2938      |       10552 |
|    1156 | 0x2939      |       10553 |
|    1157 | 0x293A      |       10554 |
|    1158 | 0x293B      |       10555 |
|    1159 | 0x293C      |       10556 |
|    1160 | 0x293D      |       10557 |
|    1161 | 0x293E      |       10558 |
|    1162 | 0x293F      |       10559 |
|    1163 | 0x2940      |       10560 |
|    1164 | 0x033F      |         831 |
|    1165 | 0x0340      |         832 |
|    1166 | 0x0341      |         833 |
|    1167 | 0x0342      |         834 |
|    1168 | 0x0343      |         835 |
|    1169 | 0x0344      |         836 |
|    1170 | 0x0345      |         837 |
|    1171 | 0x0346      |         838 |
|    1172 | 0x0347      |         839 |
|    1173 | 0x0349      |         841 |
|    1174 | 0x034A      |         842 |
|    1175 | 0x034B      |         843 |
|    1176 | 0x034C      |         844 |
|    1177 | 0x034D      |         845 |
|    1178 | 0x034E      |         846 |
|    1179 | 0x034F      |         847 |
|    1180 | 0x0350      |         848 |
|    1181 | 0x0351      |         849 |
|    1182 | 0x0352      |         850 |
|    1183 | 0x0353      |         851 |
|    1184 | 0x0354      |         852 |
|    1185 | 0x0355      |         853 |
|    1186 | 0x0356      |         854 |
|    1187 | 0x2A8F      |       10895 |
|    1188 | 0x2A5F      |       10847 |
|    1189 | 0x2A60      |       10848 |
|    1190 | 0x2A8E      |       10894 |
|    1191 | 0x2CCC      |       11468 |
|    1192 | 0x2CC9      |       11465 |
|    1193 | 0x2CCA      |       11466 |
|    1194 | 0x2CC6      |       11462 |
|    1195 | 0x2CCB      |       11467 |
|    1196 | 0x2CC7      |       11463 |
|    1197 | 0x2CC8      |       11464 |
|    1198 | 0x2CC5      |       11461 |
|    1199 | 0x2CCD      |       11469 |
|    1200 | 0x2CDB      |       11483 |
|    1201 | 0x2CDC      |       11484 |
|    1202 | 0x2CDD      |       11485 |
|    1203 | 0x2CDE      |       11486 |
|    1204 | 0x2CDF      |       11487 |
|    1205 | 0x2CE0      |       11488 |
|    1206 | 0x2CE2      |       11490 |
|    1207 | 0x2D80      |       11648 |
|    1208 | 0x036C      |         876 |
|    1209 | 0x2CEA      |       11498 |
|    1210 | 0x2CF0      |       11504 |
|    1211 | 0x2CF8      |       11512 |
|    1212 | 0x04D9      |        1241 |
|    1213 | 0x055F      |        1375 |
|    1214 | 0x2DB6      |       11702 |
|    1215 | 0x2DBC      |       11708 |
|    1216 | 0x2DB7      |       11703 |
|    1217 | 0x2DBD      |       11709 |
|    1218 | 0x2DBE      |       11710 |
|    1219 | 0x2DB8      |       11704 |
|    1220 | 0x2DB9      |       11705 |
|    1221 | 0x2DBA      |       11706 |
|    1222 | 0x2DBB      |       11707 |
|    1223 | 0x2E32      |       11826 |
|    1224 | 0x2E35      |       11829 |
|    1225 | 0x2E36      |       11830 |
|    1226 | 0x2E38      |       11832 |
|    1227 | 0x2E39      |       11833 |
|    1228 | 0x2E33      |       11827 |
|    1229 | 0x2E34      |       11828 |
|    1230 | 0x2DA2      |       11682 |
|    1231 | 0x2DA3      |       11683 |
|    1232 | 0x2DA4      |       11684 |
|    1233 | 0x2DA5      |       11685 |
|    1234 | 0x2DA6      |       11686 |
|    1235 | 0x03D9      |         985 |
|    1236 | 0x2DFC      |       11772 |
|    1237 | 0x2DFD      |       11773 |
|    1238 | 0x2DFE      |       11774 |
|    1239 | 0x2DFF      |       11775 |
|    1240 | 0x2E00      |       11776 |
|    1241 | 0x2E01      |       11777 |
|    1242 | 0x2E13      |       11795 |
|    1243 | 0x2E14      |       11796 |
|    1244 | 0x2E1B      |       11803 |
|    1245 | 0x2E1C      |       11804 |
|    1246 | 0x2E1D      |       11805 |
|    1247 | 0x045F      |        1119 |
|    1248 | 0x2E27      |       11815 |
|    1249 | 0x2DA7      |       11687 |
|    1250 | 0x2DAB      |       11691 |
|    1251 | 0x2DAC      |       11692 |
|    1252 | 0x2DAD      |       11693 |
|    1253 | 0x2DA8      |       11688 |
|    1254 | 0x2DA9      |       11689 |
|    1255 | 0x2DAA      |       11690 |
|    1256 | 0x2E37      |       11831 |
|    1257 | 0x2E3A      |       11834 |
|    1258 | 0x2E64      |       11876 |
|    1259 | 0x2E08      |       11784 |
|    1260 | 0x2E09      |       11785 |
|    1261 | 0x2E0A      |       11786 |
|    1262 | 0x2E0B      |       11787 |
|    1263 | 0x2E0C      |       11788 |
|    1264 | 0x2E0D      |       11789 |
|    1265 | 0x2E0E      |       11790 |
|    1266 | 0x2E0F      |       11791 |
|    1267 | 0x2E10      |       11792 |
|    1268 | 0x2E11      |       11793 |
|    1269 | 0x2E12      |       11794 |
|    1270 | 0x0ED1      |        3793 |
|    1271 | 0x2E4A      |       11850 |
|    1272 | 0x2E4C      |       11852 |
|    1273 | 0x2E06      |       11782 |
|    1274 | 0x2E07      |       11783 |
|    1275 | 0x2E19      |       11801 |
|    1276 | 0x2E1A      |       11802 |
|    1277 | 0x2E24      |       11812 |
|    1278 | 0x2E25      |       11813 |
|    1279 | 0x2E26      |       11814 |
|    1280 | 0x2E2A      |       11818 |
|    1281 | 0x2E44      |       11844 |
|    1282 | 0x2E45      |       11845 |
|    1283 | 0x2E46      |       11846 |
|    1284 | 0x2E4B      |       11851 |
|    1285 | 0x2E47      |       11847 |
|    1286 | 0x2E48      |       11848 |
|    1287 | 0x2E49      |       11849 |
|    1288 | 0x0563      |        1379 |
|    1289 | 0x0358      |         856 |
|    1290 | 0x2E41      |       11841 |
|    1291 | 0x2E43      |       11843 |
|    1292 | 0x2E5C      |       11868 |
|    1293 | 0x2E5E      |       11870 |
|    1294 | 0x2E04      |       11780 |
|    1295 | 0x2E05      |       11781 |
|    1296 | 0x2E17      |       11799 |
|    1297 | 0x2E18      |       11800 |
|    1298 | 0x2E21      |       11809 |
|    1299 | 0x2E22      |       11810 |
|    1300 | 0x2E23      |       11811 |
|    1301 | 0x035F      |         863 |
|    1302 | 0x2E29      |       11817 |
|    1303 | 0x2E3B      |       11835 |
|    1304 | 0x2E3C      |       11836 |
|    1305 | 0x2E3D      |       11837 |
|    1306 | 0x2E42      |       11842 |
|    1307 | 0x05D9      |        1497 |
|    1308 | 0x2E02      |       11778 |
|    1309 | 0x2E03      |       11779 |
|    1310 | 0x2E15      |       11797 |
|    1311 | 0x2E16      |       11798 |
|    1312 | 0x2E1E      |       11806 |
|    1313 | 0x2E1F      |       11807 |
|    1314 | 0x2E20      |       11808 |
|    1315 | 0x2E28      |       11816 |
|    1316 | 0x2E56      |       11862 |
|    1317 | 0x2E57      |       11863 |
|    1318 | 0x2E58      |       11864 |
|    1319 | 0x2E5D      |       11869 |
|    1320 | 0x2E3E      |       11838 |
|    1321 | 0x2E3F      |       11839 |
|    1322 | 0x2E40      |       11840 |
|    1323 | 0x2E59      |       11865 |
|    1324 | 0x2E5A      |       11866 |
|    1325 | 0x2E5B      |       11867 |
|    1326 | 0x2E2B      |       11819 |
|    1327 | 0x2E2C      |       11820 |
|    1328 | 0x2E2D      |       11821 |
|    1329 | 0x2E2E      |       11822 |
|    1330 | 0x2E2F      |       11823 |
|    1331 | 0x2E30      |       11824 |
|    1332 | 0x2E31      |       11825 |
|    1333 | 0x2D15      |       11541 |
|    1334 | 0x2D16      |       11542 |
|    1335 | 0x2D17      |       11543 |
|    1336 | 0x2D18      |       11544 |
|    1337 | 0x2D19      |       11545 |
|    1338 | 0x2D1A      |       11546 |
|    1339 | 0x2D1B      |       11547 |
|    1340 | 0x2D1C      |       11548 |
|    1341 | 0x2D1D      |       11549 |
|    1342 | 0x2D1E      |       11550 |
|    1343 | 0x2D1F      |       11551 |
|    1344 | 0x2D21      |       11553 |
|    1345 | 0x2D20      |       11552 |
|    1346 | 0x2D22      |       11554 |
|    1347 | 0x2D23      |       11555 |
|    1348 | 0x2D25      |       11557 |
|    1349 | 0x2D24      |       11556 |
|    1350 | 0x2D26      |       11558 |
|    1351 | 0x2D28      |       11560 |
|    1352 | 0x2D27      |       11559 |
|    1353 | 0x2D29      |       11561 |
|    1354 | 0x2D2A      |       11562 |
|    1355 | 0x0C0C      |        3084 |
|    1356 | 0x0C23      |        3107 |
|    1357 | 0x2D0C      |       11532 |
|    1358 | 0x0367      |         871 |
|    1359 | 0x2CD4      |       11476 |
|    1360 | 0x2CD5      |       11477 |
|    1361 | 0x2CD6      |       11478 |
|    1362 | 0x2CD7      |       11479 |
|    1363 | 0x2CD8      |       11480 |
|    1364 | 0x2CD9      |       11481 |
|    1365 | 0x2CDA      |       11482 |
|    1366 | 0x2DD1      |       11729 |
|    1367 | 0x2DD0      |       11728 |
|    1368 | 0x089E      |        2206 |
|    1369 | 0x2DDE      |       11742 |
|    1370 | 0x0929      |        2345 |
|    1371 | 0x2DD7      |       11735 |
|    1372 | 0x2DD6      |       11734 |
|    1373 | 0x2D9E      |       11678 |
|    1374 | 0x0895      |        2197 |
|    1375 | 0x2D9D      |       11677 |
|    1376 | 0x15E5      |        5605 |
|    1377 | 0x2DD4      |       11732 |
|    1378 | 0x11C1      |        4545 |
|    1379 | 0x2DD3      |       11731 |
|    1380 | 0x15E6      |        5606 |
|    1381 | 0x2DD2      |       11730 |
|    1382 | 0x1544      |        5444 |
|    1383 | 0x15E7      |        5607 |
|    1384 | 0x15E8      |        5608 |
|    1385 | 0x089B      |        2203 |
|    1386 | 0x089C      |        2204 |
|    1387 | 0x089D      |        2205 |
|    1388 | 0x2DDD      |       11741 |
|    1389 | 0x089F      |        2207 |
|    1390 | 0x08A2      |        2210 |
|    1391 | 0x08A0      |        2208 |
|    1392 | 0x1125      |        4389 |
|    1393 | 0x08A3      |        2211 |
|    1394 | 0x08A1      |        2209 |
|    1395 | 0x2DDC      |       11740 |
|    1396 | 0x092A      |        2346 |
|    1397 | 0x2DD5      |       11733 |
|    1398 | 0x2DDF      |       11743 |
|    1399 | 0x2DD9      |       11737 |
|    1400 | 0x2DD8      |       11736 |
|    1401 | 0x2DE0      |       11744 |
|    1402 | 0x2DDB      |       11739 |
|    1403 | 0x2DDA      |       11738 |
|    1404 | 0x2D9C      |       11676 |
|    1405 | 0x2DC5      |       11717 |
|    1406 | 0x2DC6      |       11718 |
|    1407 | 0x2DC7      |       11719 |
|    1408 | 0x2DCC      |       11724 |
|    1409 | 0x2DC8      |       11720 |
|    1410 | 0x2DC9      |       11721 |
|    1411 | 0x2DCA      |       11722 |
|    1412 | 0x2E6D      |       11885 |
|    1413 | 0x2E6E      |       11886 |
|    1414 | 0x2DCD      |       11725 |
|    1415 | 0x2DCB      |       11723 |
|    1416 | 0x2E65      |       11877 |
|    1417 | 0x2E6B      |       11883 |
|    1418 | 0x2E6C      |       11884 |
|    1419 | 0x2E66      |       11878 |
|    1420 | 0x2DE3      |       11747 |
|    1421 | 0x0432      |        1074 |
|    1422 | 0x2DE4      |       11748 |
|    1423 | 0x2DEB      |       11755 |
|    1424 | 0x0532      |        1330 |
|    1425 | 0x2DE5      |       11749 |
|    1426 | 0x0632      |        1586 |
|    1427 | 0x2DE6      |       11750 |
|    1428 | 0x0732      |        1842 |
|    1429 | 0x2DE7      |       11751 |
|    1430 | 0x0832      |        2098 |
|    1431 | 0x2DE8      |       11752 |
|    1432 | 0x0932      |        2354 |
|    1433 | 0x2DE9      |       11753 |
|    1434 | 0x2DE2      |       11746 |
|    1435 | 0x2DED      |       11757 |
|    1436 | 0x2DEE      |       11758 |
|    1437 | 0x2DEC      |       11756 |
|    1438 | 0x2CE4      |       11492 |
|    1439 | 0x2CE6      |       11494 |
|    1440 | 0x2CE8      |       11496 |
|    1441 | 0x2CEE      |       11502 |
|    1442 | 0x2D00      |       11520 |
|    1443 | 0x2D02      |       11522 |
|    1444 | 0x2CF2      |       11506 |
|    1445 | 0x2CF4      |       11508 |
|    1446 | 0x2CFD      |       11517 |
|    1447 | 0x2D0F      |       11535 |
|    1448 | 0x2D11      |       11537 |

## String References

- **10432**: Hi! I'm Pulonono, advanced chocobo trainer and proud member of the Vana'diel Chocobo Society!
- **10433**: I can tell by the look in your eyes that you're crazy about chocobos! You'd be perfect for our society... You have my permission to join!
- **10434**: If you want to start raising a chocobo, trade an egg to me!
- **10435**: You're raising a chocobo at another nation's stables, aren't you? Just ask Kiria-Romaria if you have any questions!
- **10464**: Is this okay? [Yes./No.]
- **10468**: Sorry, but you will have to do this later. I have something new to report.
- **10474**: What would you like to do? [Ask about chocobo's condition./Care for your chocobo./Set up a care schedule./Name your chocobo./Request documentation./Register to call your chocobo./Receive your $0./Purchase $0./----/----/----/----/----/----/----/----/----/----/----/----/----/----/----/----/----/----/Go forward 1 unit./Abilities print (debug)./User work print (debug)./Retire your chocobo./Give up chocobo raising./Nothing.]
- **10476**: Request which documentation? [Chococard./Racing Form./Nothing.]
- **10515**: Next program: [Basic care/Rest/Take a walk in town/Listen to music/Exercise alone/Exercise in a group/Interact with children/Interact with chocobos/Carry packages/Exhibit to the public/Deliver messages/Dig for treasure/Act in a play] [Plan 1: [Basic care/Rest/Take a walk in town/Listen to music/Exercise alone/Exercise in a group/Interact with children/Interact with chocobos/Carry packages/Exhibit to the public/Deliver messages/Dig for treasure/Act in a play] ($0 [day/days])/Plan 2: [Basic care/Rest/Take a walk in town/Listen to music/Exercise alone/Exercise in a group/Interact with children/Interact with chocobos/Carry packages/Exhibit to the public/Deliver messages/Dig for treasure/Act in a play] ($2 [day/days])/Never mind./Next page.]
- **10516**: Next program: [Basic care/Rest/Take a walk in town/Listen to music/Exercise alone/Exercise in a group/Interact with children/Interact with chocobos/Carry packages/Exhibit to the public/Deliver messages/Dig for treasure/Act in a play] [Plan 3: [Basic care/Rest/Take a walk in town/Listen to music/Exercise alone/Exercise in a group/Interact with children/Interact with chocobos/Carry packages/Exhibit to the public/Deliver messages/Dig for treasure/Act in a play] ($0 [day/days])/Plan 4: [Basic care/Rest/Take a walk in town/Listen to music/Exercise alone/Exercise in a group/Interact with children/Interact with chocobos/Carry packages/Exhibit to the public/Deliver messages/Dig for treasure/Act in a play] ($2 [day/days])/Never mind./Previous page.]
- **10517**: Choose a plan for your chocobo. [Basic care./Rest./Take a walk in town./Listen to music./Exercise alone./Exercise in a group./Interact with children./Interact with chocobos./Carry packages./Exhibit to the public./Deliver messages./Dig for treasure./Act in a play./----/----/----/----/----/----/----/----/----/----/----/----/----/----/----/----/----/----/Never mind.]
- **10519**: For how many days? [One./Two./Three./Four./Five./Six./Seven./I've changed my mind.]
- **10522**: Plan $0 will be registered as follows: [Basic care/Rest/Take a walk in town/Listen to music/Exercise alone/Exercise in a group/Interact with children/Interact with chocobos/Carry packages/Exhibit to the public/Deliver messages/Dig for treasure/Act in a play] Number of days: $2
- **10526**: Plan $0 has been successfully registered on your chocobo's care schedule!
- **10545**: --Chocobo Status Report: Day $0--
- **10546**: --Chocobo Status Report: Day $0-Day $1--
- **10548**: Plan: Basic Care
- **10549**: Plan: Rest
- **10550**: Plan: Take a Walk
- **10551**: Plan: Listen to Music
- **10552**: Plan: Exercise Alone
- **10553**: Plan: Exercise In a Group
- **10554**: Plan: Interact with Children
- **10555**: Plan: Interact with Chocobos
- **10556**: Plan: Carry Packages
- **10557**: Plan: Exhibit to the Public
- **10558**: Plan: Deliver Messages
- **10559**: Plan: Dig for Treasure
- **10560**: Plan: Act In a Play
- **10574**: What will you do? [Watch over the chocobo./Tell a story./Scold the chocobo./Compete against others./Go on a walk (short)./Go on a walk (regular)./Go on a walk (long)./----/----/----/----/----/----/----/----/----/----/----/----/----/----/----/----/----/----/----/----/----/----/----/----/Nothing.]
- **10575**: [Watch over the chocobo/Tell a story/Scold the chocobo/Compete against others/Go on a walk (short)/Go on a walk (regular)/Go on a walk (long)]? [Yes./No.]
- **10585**: Choose a word category ([first name/last name]). [1-letter words."-letter words."-letter words./4-letter words./5-letter words./6-letter words./7-letter words./8-letter words./9-letter words./10-letter words./11-letter words./12-letter words./13-letter words./14-letter words./Return./Cancel.]
- **10586**: Is this name okay? [%0 %1? Yes!/On second thought...]
- **10588**: Choose a word.(%0) [$0/$1/$2/$3/$4/$5/$6/$7/$8/$9/$10/$11/$12/$13/$14/$15/$16/$17/$18/$19/$20/$21/$22/$23/$24/$25/$26/$27/$28/$29/Cancel./View other options.]
- **10593**: Purchase a chococard? ($0 gil each) [Yes./Not now.]
- **10596**: Would you like a free form? [Right away!/Maybe later.]
- **10601**: Register a chocobo? ($0 gil) [Yes./Not now.]
- **10608**: Purchase $0? ($1 gil) [Yes./Not now.]
- **10790**: Choose an area. [San d'Oria./Bastok./Windurst./Chocobo Circuit (Debug only)./Cancel.]
- **10791**: Choose an event category. [Care plans./Direct care./Status abnormalities./Other./Cancel.]
- **10792**: Choose an event. [Basic care./Rest./Take a walk in town./Listen to music./Exercise alone./Exercise in a group./Interact with children./Interact with chocobos./Carry packages./Exhibit to the public./Deliver messages./Dig for treasure./Act in a play./Cancel.]
- **10793**: Choose an event. [Watch over chocobo./Feed chocobo./Tell a story./Scold chocobo./Compete./Go on a walk 1./Go on a walk 2./Go on a walk 3./Cancel.]
- **10794**: Choose an event. [Injury./Light illness./Stomachache./Loneliness./Happiness./Laziness./Serious illness./Confusion./Spoiled./Runaway./In love./Crying at night./Injury healed./Light illness healed./Stomachache healed./Loneliness healed./No longer happy./Laziness healed./Serious illness healed./Confusion healed./No longer spoiled./Back from running away./No longer in love./Crying at night healed./Bursting with vitality./No longer bursting with vitality./Sparkling intelligence./No longer sparkling with intelligence.]
- **10821**: STR:$0/VIT:$1/INT:$2/MND:$3
- **10823**: Affection:$0/Energy:$1/Satisfaction:$2
- **10847**: Growth event ($0)
- **10848**: Plan accomplished event ($0)
- **10860**: eat:$0($0)
- **10894**: Starting event
- **10895**: Event number error.
- **11135**: Give up? [Yes, I can't do it anymore./No, I want to continue.]
- **11139**: Give up raising your chocobo? [Yes./No!]
- **11143**: What would you like to say? [Nothing./I'm sorry./It's just an animal!/We weren't compatible./Take good care of it.]
- **11153**: Retire $0? [Yes./Not yet!]
- **11155**: Really retire your chocobo? [Yes, really!/No, I've changed my mind!]
- **11471**: You just gave me an egg! I can't take care of two at once!
- **11472**: I can't take that egg! You're already raising a chocobo!
- **11473**: I can't take your egg because you're raising a chocobo at another nation's stables!
- **11568**: Let's see how your egg is doing today...
- **11569**: Let's see how $0 is doing today...
- **11570**: I can't tell yet whether your chocobo will be a male or a female...
- **11571**: Your chocobo seems to be a $0[male/female]!
- **11572**: Strength: [Poor/Substandard/A bit deficient/Average/Better than average/Impressive/Outstanding/First-class]
- **11573**: Endurance: [Poor/Substandard/A bit deficient/Average/Better than average/Impressive/Outstanding/First-class]
- **11574**: Discernment: [Poor/Substandard/A bit deficient/Average/Better than average/Impressive/Outstanding/First-class]
- **11575**: Receptivity: [Poor/Substandard/A bit deficient/Average/Better than average/Impressive/Outstanding/First-class]
- **11576**: Regarding affection, it seems to [not care about you at all/be able to endure your company/slightly enjoy your company/like being around you/like you pretty well/like you a lot/want to be with you all the time/regard you as its parent].
- **11577**: Hmmm... Your chocobo seems to be [starving/quite hungry/a little hungry/neither hungry nor full/neither hungry nor full/almost full/quite full/completely full].
- **11578**: It looks like your chocobo's condition is stable. There have not been any changes worth mention.
- **11579**: Your chocobo's leg seems to be slightly wounded. $1 might help it heal.
- **11580**: Your chocobo seems to have a stomachache. $1 might help it feel better.
- **11581**: Your chocobo seems to be slightly ill. $1 might help it feel better.
- **11582**: Your chocobo is very ill. $1 might help it feel better.
- **11583**: Your chocobo is not receiving enough affection, and seems very depressed. You should pay more attention to your animal.
- **11584**: $0 has been receiving plenty of affection, and seems extremely happy. It is in excellent condition now!
- **11585**: $0 is sleeping soundly in order to heal its fatigue.
- **11586**: $0 seems bored and restless. You should give it something to do, like taking it out to race against other chocobos.
- **11587**: $0 is hopelessly spoiled! You should discipline it sometimes!
- **11588**: $0 ran away from the stables the moment I turned my back... It must have been upset about something. All we can do is wait for it to come back now.
- **11589**: $0 seems to have its head in the clouds lately... It must be in love.
- **11590**: Your chocobo has been making a real fuss at night lately. Such behavior is common for chicks, but you should deal with it as soon as possible.
- **11591**: $0 is so full of energy today!
- **11592**: $0 is unusually bright and focused today!
- **11593**: It [has a very easygoing personality/is rather ill-tempered/is a very patient chocobo/is quite sensitive/has a rather enigmatic personality], making it [easy to care for/ideal for military use/ideal for carrying goods/good with people/difficult to know what the animal is thinking].
- **11594**: Your chocobo [likes clear days/likes hot, sunny days/likes rainy days/likes sandstorms/likes windy days/likes snow/likes thunder/likes auroras/likes dark days/ /likes cloudy days.][./ and dislikes rainy days./ and dislikes thunder./ and dislikes windy days./ and dislikes snow./ and dislikes hot, sunny days/ and dislikes sandstorms./ and dislikes dark days./ and dislikes auroras.]
- **11595**: Last of all, your animal does not seem to know any abilities.
- **11596**: Last of all, your animal seems to have the ability "[--/Gallop/Canter/Burrow/Bore/Auto-Regen/Treasure Finder]."
- **11597**: Last of all, your animal seems to have the abilities "[--/Gallop/Canter/Burrow/Bore/Auto-Regen/Treasure Finder]" and "[--/Gallop/Canter/Burrow/Bore/Auto-Regen/Treasure Finder]."
- **11598**: Chocobos are delicate creatures, and their condition easily changes. The secret to raising a good chocobo is giving it plenty of care!
- **11599**: Your egg doesn't seem to be doing well at the moment. It would probably be best to leave it alone for a while.
- **11600**: $0 needs more energy before you can take care of it!
- **11601**: If you watch over $0, it will gradually return your affection.
- **11602**: Telling $0 a story will help it develop a healthy psychological state. Remember that concentrating on your speech will have a slightly tiring effect on your chocobo, though.
- **11603**: When $0 refuses to do anything but sleep or acts stubborn, you should discipline it. Remember that reproof is an act of love!
- **11604**: You're interested in entering your chocobo into competitions? Funny...there were three others who mentioned the same thing!
- **11605**: Well, it is good for their physical development, after all... I guess it's alright as long as they don't fight.
- **11606**: You can take your chocobo on a walk just outside of town. Because East Sarutabaruta is nearby, $0 shouldn't grow very tired.
- **11607**: You can take your chocobo on a walk a ways from town. The Tahrongi Canyon is not too far, so $0 shouldn't grow exhausted.
- **11608**: You can take your chocobo on a walk as far out as the Meriphataud Mountains. Being together so long should do wonders for the bond between you and $0.
- **11609**: This is the basic care plan for your chocobo. Under this plan, we will provide for your chocobo's most fundamental needs.
- **11610**: You can choose to give your chocobo a long rest. This will revitalize its energy and accelerate its recovery from injury or illness.
- **11611**: If you like, we can take your chocobo out on a walk through the safe areas of town. This should improve its physical condition.
- **11612**: Listening to music will make your chocobo a more refined creature, and should improve its mental condition.
- **11613**: Exercising alone will improve your chocobo's strength, but will have a slightly negative effect on its mental condition.
- **11614**: Exercising in a group will improve your chocobo's stamina, but will have a slightly negative effect on its mental condition.
- **11615**: Playing with children will improve your chocobo's intelligence, but will have a slightly negative effect on its physical condition.
- **11616**: Playing with other chocobos will improve your chocobo's receptivity, but will have a slightly negative effect on its physical condition.
- **11617**: You can earn some money by having your chocobo deliver packages for a transport agency.
- **11618**: Carrying heavy loads will improve its physical condition, but will inflict a certain amount of stress on the animal.
- **11619**: You can choose to exhibit your chocobo to the public. We will provide you with some gil as thanks for this service.
- **11620**: Interacting with the public will improve its mental condition, but will inflict a certain amount of stress on the animal.
- **11621**: You can send your chocobo to deliver official messages for Windurst, which will compensate you for your services.
- **11622**: Carrying someone on its back for a long period of time will build strength in your chocobo's legs, but will place some strain on the animal.
- **11623**: You can send your chocobo to dig for items to benefit the stables. We will thank you for your contribution with a certain amount of gil.
- **11624**: Digging for items will improve your chocobo's intelligence, but will place some strain on the animal.
- **11625**: Your chocobo can even appear in plays. You will receive payment for this service in gil.
- **11626**: Interacting with actors and the audience should improve the chocobo's receptivity, but the difficult practice will place some strain on the animal.
- **11627**: What's this? You want to give up on this egg, do you?
- **11628**: What's this? You don't want to raise $0 any more?
- **11629**: What? You want to stop raising $0 at a time like this?
- **11630**: You just started raising the poor creature! You're really sure you want to do this?
- **11631**: If you decide to quit, you'll never ever see $0 again! You really don't mind?
- **11632**: If you decide to quit, you will never see $0 again. Are you really willing to give up without even seeing its face one last time?
- **11633**: Fine. Then the stables will raise this egg. Do you have anything you have to say for yourself?
- **11634**: I guess if that's what you really want... Custody of $0 will be transferred to the stables. Do you have any last words for it?
- **11635**: Fine. When $0 returns, the stables will begin caring for it. Do you have anything you wish to say?
- **11636**: Is that so? This must be hard on you too, huh? Sorry...
- **11637**: Is that so? Then don't forget it!
- **11638**: ... I'm disappointed in you.
- **11639**: Some excuse... You haven't even seen its face yet, have you? Once you decide to raise an animal, you stick with it through to the end!
- **11640**: No matter how incompatible you feel you may be, once you decide to raise an animal, you should stick with it to the end!
- **11641**: We will. I'm sure you have your reasons, but it's still no excuse!
- **11642**: Of course not! Keep up the good work with your chocobo, all right?
- **11643**: You cannot retire a chocobo that has not been named.
- **11644**: You really want to retire $0?
- **11645**: Once you retire your chocobo, you won't be able to meet it anytime you want anymore. Are you okay with that?
- **11646**: Well, all right... Then $0 will be transferred to one of the Vana'diel Chocobo Society farms.
- **11650**: I cannot issue any documents to a chocobo that has not been named.
- **11651**: A chococard contains all the vital information about the chocobo that you are raising.
- **11652**: Trade a chococard to the matchmaker in Jeuno, and you will be able to breed your animal with another chocobo. I can issue a chococard for $0 gil.
- **11653**: You can register a chocobo to respond to your call in the field. The chocobo will come to you when you use your $0.
- **11654**: Your chocobo's registered data determines certain features, such as its saddle, so it is wise to re-register from time to time.
- **11655**: You can register a retired chocobo by trading $0 to me.
- **11656**: All right, then. I'll get $0 ready.
- **11657**: All right, then. I'll get $0 ready as soon as it returns.
- **11660**: I've got your $0 right here. You can have it now.
- **11661**: You lost your $0?
- **11662**: Well, I guess I'll have to get another one from Hantileon. It's going to cost you $1 gil, though.
- **11663**: This item links you and $0 together. You would be wise not to lose it again.
- **11680**: To enter your current chocobo in one of the CRA-sanctioned races, you will require $0.
- **11681**: You need only trade it to a CRA agent to complete the registration process.
- **11696**: Oh dear... You see, that name violates VCS naming conventions. You'll have to choose another one, I'm afraid.
- **11702**: $0 is completely absorbed in its current activities.
- **11703**: What will you do? [Search for the chocobo's item./Watch over the chocobo.]
- **11704**: You find something in the ground.
- **11705**: You obtain $6!
- **11706**: There does not seem to be anything of particular notice here.
- **11708**: $0 appears to be very happy.
- **11710**: $0 noticed what you were doing...
- **11717**: Your egg feels the tender warmth of your gaze.
- **11718**: The chick inside the egg seems to want out...
- **11719**: The chick inside the egg seems to be anxious to meet you...
- **11720**: $0 looks happy to see you.
- **11721**: $0 doesn't look very happy...
- **11722**: $0 is in high spirits.
- **11723**: $0 looks irritated.
- **11724**: $0 is sleeping peacefully.
- **11725**: You feel a faint warmth in the room left behind by $0...
- **11728**: <Player> gives the chocobo $3.
- **11729**: <Player> gives the chocobo its food.
- **11730**: $0 gobbles up the $3 in a single gulp!
- **11731**: $0 munches contentedly on the $3.
- **11732**: $0 eats the $3.
- **11733**: $0 quietly eats the food.
- **11734**: $0 seems to be forcing itself to eat the $3.
- **11735**: $0 seems to be forcing itself to eat the food.
- **11736**: $0 munches discontentedly on the $3.
- **11737**: $0 munches discontentedly on the food.
- **11738**: $0 munches weakly on the $3.
- **11739**: $0 munches weakly on the food.
- **11740**: $0 gulps down the $3!
- **11741**: $0 happily takes the $3.
- **11742**: $0 is forcing itself to take the $3.
- **11743**: $0 discontentendly swallows the $3.
- **11744**: $0 weakly swallows the $3.
- **11746**: $0 seems interested in your story.
- **11747**: Which would you like to talk about? [Random chitchat./An impatient chocobo./A curious chocobo./A worrisome chocobo./A youthful chocobo./A happy chocobo./A diligent chocobo.]
- **11748**: $0 learns the ability "Gallop"!
- **11749**: $0 learns the ability "Canter"!
- **11750**: $0 learns the ability "Burrow"!
- **11751**: $0 learns the ability "Bore"!
- **11752**: $0 learns the ability "Auto-Regen"!
- **11753**: $0 learns the ability "Treasure Finder"!
- **11755**: $0 is inspired by your story.
- **11756**: $0 hangs its head in shame.
- **11757**: $0 awakens from its sleep.
- **11758**: $0 is still fast asleep...
- **11777**: $0 becomes friends with $1!
- **11830**: The chocobo appears to be lost...
- **11831**: The chocobo chick appears to be lost...
- **11832**: What will you do? [Bring it home./Leave it.]
- **11834**: The chocobo chick follows <Player>...
- **11876**: $0 appears to have found something.
- **11877**: You see something half-buried under the straw. Could it be $1...?
- **11878**: You find something on the floor of the chocobo stall. Could it be $1...?
- **11885**: Obtained: $1!
- **11886**: Inventory is full. <Player> could not obtain the $1.
- **11888**: Hear the report? [Hear a detailed report./Hear a brief report./Skip the report./I'm done here.]
- **11889**: Are you sure? [Yes./No.]
- **11892**: One moment please...
- **11893**: Choose the pace for your [short walk/regular walk/long walk]. [Leisurely./Brisk./Cancel.]

## Events

### Event 65535

#### Metadata

| Field        | Value   |
|--------------|---------|
| Entrypoint   | 0x0000  |
| Data Size    | 1 bytes |
| Instructions | 1       |

```
      00 01 02 03 04 05 06 07  08 09 0A 0B 0C 0D 0E 0F
      -- -- -- -- -- -- -- --  -- -- -- -- -- -- -- --
0000: 00                                                .               
```

#### Opcodes

```
  0: 0x0000 [0x00] END_REQSTACK()
```

### Event 741

#### Metadata

| Field        | Value    |
|--------------|----------|
| Entrypoint   | 0x0001   |
| Data Size    | 78 bytes |
| Instructions | 18       |

```
      00 01 02 03 04 05 06 07  08 09 0A 0B 0C 0D 0E 0F
      -- -- -- -- -- -- -- --  -- -- -- -- -- -- -- --
0000:    1E F0 FF FF 7F 1C 00  80 02 02 10 01 80 00 2B   ..............+
0010: 00 1D 02 80 23 66 03 80  F8 FF FF 7F F8 FF FF 7F  ....#f..........
0020: 74 6C 6B 30 1D 04 80 23  01 4D 00 66 03 80 F8 FF  tlk0...#.M.f....
0030: FF 7F F8 FF FF 7F 74 6C  6B 30 02 03 10 01 80 00  ......tlk0......
0040: 49 00 1D 05 80 23 01 4D  00 1D 06 80 23 21 00     I....#.M....#!. 
```

#### Opcodes

```
  0: 0x0001 [0x1E] EventEntity looks at LocalPlayer and starts talking
  1: 0x0006 [0x1C] WAIT(30* ticks)
  2: 0x0009 [0x02] IF !(Work_Zone[2] == 0*) GOTO 0x002B
  3: 0x0011 [0x1D] PRINT_EVENT_MESSAGE(message_id=10432*)
     "Hi! I'm Pulonono, advanced chocobo trainer and proud member of the Vana'diel Chocobo Society!"
  4: 0x0014 [0x23] WAIT_FOR_DIALOG_INTERACTION
  5: 0x0015 [0x66] LOAD_EXT_SCHEDULER_MAIN: Load scheduler "tlk0" with entities [EventEntity, EventEntity], work=49*
  6: 0x0024 [0x1D] PRINT_EVENT_MESSAGE(message_id=10433*)
     "I can tell by the look in your eyes that you're crazy about chocobos! You'd be perfect for our society... You have my permission to join!"
  7: 0x0027 [0x23] WAIT_FOR_DIALOG_INTERACTION
  8: 0x0028 [0x01] GOTO 0x004D
  9: 0x002B [0x66] LOAD_EXT_SCHEDULER_MAIN: Load scheduler "tlk0" with entities [EventEntity, EventEntity], work=49*
 10: 0x003A [0x02] IF !(Work_Zone[3] == 0*) GOTO 0x0049
 11: 0x0042 [0x1D] PRINT_EVENT_MESSAGE(message_id=10434*)
     "If you want to start raising a chocobo, trade an egg to me!"
 12: 0x0045 [0x23] WAIT_FOR_DIALOG_INTERACTION
 13: 0x0046 [0x01] GOTO 0x004D
 14: 0x0049 [0x1D] PRINT_EVENT_MESSAGE(message_id=10435*)
     "You're raising a chocobo at another nation's stables, aren't you? Just ask Kiria-Romaria if you have any questions!"
 15: 0x004C [0x23] WAIT_FOR_DIALOG_INTERACTION

SUBROUTINE_004D:
 16: 0x004D [0x21] END_EVENT
 17: 0x004E [0x00] END_REQSTACK()
```

### Event 748

#### Metadata

| Field        | Value    |
|--------------|----------|
| Entrypoint   | 0x004F   |
| Data Size    | 67 bytes |
| Instructions | 17       |

```
      00 01 02 03 04 05 06 07  08 09 0A 0B 0C 0D 0E 0F
      -- -- -- -- -- -- -- --  -- -- -- -- -- -- -- --
0040:                                               1E                 .
0050: F0 FF FF 7F 1C 00 80 66  03 80 F8 FF FF 7F F8 FF  .......f........
0060: FF 7F 74 6C 6B 30 02 02  10 09 10 00 8C 00 03 02  ..tlk0..........
0070: 10 07 80 1A 53 30 02 03  10 07 80 80 85 00 1D 08  ....S0..........
0080: 80 23 01 89 00 1D 09 80  23 01 90 00 1D 0A 80 23  .#......#......#
0090: 21 00                                             !.              
```

#### Opcodes

```
  0: 0x004F [0x1E] EventEntity looks at LocalPlayer and starts talking
  1: 0x0054 [0x1C] WAIT(30* ticks)
  2: 0x0057 [0x66] LOAD_EXT_SCHEDULER_MAIN: Load scheduler "tlk0" with entities [EventEntity, EventEntity], work=49*
  3: 0x0066 [0x02] IF !(Work_Zone[2] == Work_Zone[9]) GOTO 0x008C
  4: 0x006E [0x03] Work_Zone[2] = 1*
  5: 0x0073 [0x1A] CALL_SUBROUTINE(address=0x3053)
  6: 0x0076 [0x02] IF !(Work_Zone[3] == 1*) GOTO 0x0085
  7: 0x007E [0x1D] PRINT_EVENT_MESSAGE(message_id=11471*)
     "You just gave me an egg! I can't take care of two at once!"
  8: 0x0081 [0x23] WAIT_FOR_DIALOG_INTERACTION
  9: 0x0082 [0x01] GOTO 0x0089
 10: 0x0085 [0x1D] PRINT_EVENT_MESSAGE(message_id=11472*)
     "I can't take that egg! You're already raising a chocobo!"
 11: 0x0088 [0x23] WAIT_FOR_DIALOG_INTERACTION

SUBROUTINE_0089:
 12: 0x0089 [0x01] GOTO 0x0090
 13: 0x008C [0x1D] PRINT_EVENT_MESSAGE(message_id=11473*)
     "I can't take your egg because you're raising a chocobo at another nation's stables!"
 14: 0x008F [0x23] WAIT_FOR_DIALOG_INTERACTION

SUBROUTINE_0090:
 15: 0x0090 [0x21] END_EVENT
 16: 0x0091 [0x00] END_REQSTACK()
```

### Event 65535.1

#### Metadata

| Field        | Value    |
|--------------|----------|
| Entrypoint   | 0x0092   |
| Data Size    | 20 bytes |
| Instructions | 4        |

```
      00 01 02 03 04 05 06 07  08 09 0A 0B 0C 0D 0E 0F
      -- -- -- -- -- -- -- --  -- -- -- -- -- -- -- --
0090:       37 0B 80 0C 80 0D  80 0E 80 80 F8 FF FF 7F    7.............
00A0: 1E F0 FF FF 7F 00                                 ......          
```

#### Opcodes

```
  0: 0x0092 [0x37] UPDATE_EVENT_POSITION_AND_DIR: x=130.124*, z=-119.341*, y=-5.250*, direction=50.7*
  1: 0x009B [0x80] LOAD_WAIT(entity=EventEntity)
  2: 0x00A0 [0x1E] EventEntity looks at LocalPlayer and starts talking
  3: 0x00A5 [0x00] END_REQSTACK()
```

### Event 65535.2

#### Metadata

| Field        | Value    |
|--------------|----------|
| Entrypoint   | 0x00A6   |
| Data Size    | 15 bytes |
| Instructions | 3        |

```
      00 01 02 03 04 05 06 07  08 09 0A 0B 0C 0D 0E 0F
      -- -- -- -- -- -- -- --  -- -- -- -- -- -- -- --
00A0:                   37 0F  80 10 80 11 80 12 80 80        7.........
00B0: F8 FF FF 7F 00                                    .....           
```

#### Opcodes

```
  0: 0x00A6 [0x37] UPDATE_EVENT_POSITION_AND_DIR: x=-8.692*, z=-100.478*, y=1.399*, direction=4.1*
  1: 0x00AF [0x80] LOAD_WAIT(entity=EventEntity)
  2: 0x00B4 [0x00] END_REQSTACK()
```

### Event 65535.3

#### Metadata

| Field        | Value    |
|--------------|----------|
| Entrypoint   | 0x00B5   |
| Data Size    | 15 bytes |
| Instructions | 3        |

```
      00 01 02 03 04 05 06 07  08 09 0A 0B 0C 0D 0E 0F
      -- -- -- -- -- -- -- --  -- -- -- -- -- -- -- --
00B0:                37 13 80  14 80 15 80 16 80 80 F8       7..........
00C0: FF FF 7F 00                                       ....            
```

#### Opcodes

```
  0: 0x00B5 [0x37] UPDATE_EVENT_POSITION_AND_DIR: x=5.027*, z=-110.079*, y=1.548*, direction=174.5*
  1: 0x00BE [0x80] LOAD_WAIT(entity=EventEntity)
  2: 0x00C3 [0x00] END_REQSTACK()
```

### Event 65535.4

#### Metadata

| Field        | Value    |
|--------------|----------|
| Entrypoint   | 0x00C4   |
| Data Size    | 17 bytes |
| Instructions | 4        |

```
      00 01 02 03 04 05 06 07  08 09 0A 0B 0C 0D 0E 0F
      -- -- -- -- -- -- -- --  -- -- -- -- -- -- -- --
00C0:             33 01 37 17  80 18 80 19 80 1A 80 80      3.7.........
00D0: F8 FF FF 7F 00                                    .....           
```

#### Opcodes

```
  0: 0x00C4 [0x33] EventEntity->Render.Flags0 |= 0x200000 // Bit 21 (flag=0x01)
  1: 0x00C6 [0x37] UPDATE_EVENT_POSITION_AND_DIR: x=-10.342*, z=-114.750*, y=0.300*, direction=157.4*
  2: 0x00CF [0x80] LOAD_WAIT(entity=EventEntity)
  3: 0x00D4 [0x00] END_REQSTACK()
```

### Event 65535.5

#### Metadata

| Field        | Value    |
|--------------|----------|
| Entrypoint   | 0x00D5   |
| Data Size    | 22 bytes |
| Instructions | 6        |

```
      00 01 02 03 04 05 06 07  08 09 0A 0B 0C 0D 0E 0F
      -- -- -- -- -- -- -- --  -- -- -- -- -- -- -- --
00D0:                32 1B 80  1F 00 1C 80 1D 80 19 80       2..........
00E0: 1F 01 1E 44 10 0F 01 1C  1E 80 00                 ...D.......     
```

#### Opcodes

```
  0: 0x00D5 [0x32] ExtData[1]->MainSpeed = 13* * 0.1
  1: 0x00D8 [0x1F] MOVE_ENTITY: EventEntity moves to X=-11.919*, Z=-114.962*, Y=0.300*
  2: 0x00E0 [0x1F] MOVE_ENTITY: Update entity position (mode=1)
  3: 0x00E2 [0x1E] EventEntity looks at Unnamed NPC (ID: 17764420/0x010F1044) and starts talking
  4: 0x00E7 [0x1C] WAIT(60* ticks)
  5: 0x00EA [0x00] END_REQSTACK()
```

### Event 65535.6

#### Metadata

| Field        | Value    |
|--------------|----------|
| Entrypoint   | 0x00EB   |
| Data Size    | 15 bytes |
| Instructions | 3        |

```
      00 01 02 03 04 05 06 07  08 09 0A 0B 0C 0D 0E 0F
      -- -- -- -- -- -- -- --  -- -- -- -- -- -- -- --
00E0:                                   37 1F 80 20 80             7.. .
00F0: 15 80 21 80 80 F8 FF FF  7F 00                    ..!.......      
```

#### Opcodes

```
  0: 0x00EB [0x37] UPDATE_EVENT_POSITION_AND_DIR: x=-6.876*, z=-104.000*, y=1.548*, direction=101.9*
  1: 0x00F4 [0x80] LOAD_WAIT(entity=EventEntity)
  2: 0x00F9 [0x00] END_REQSTACK()
```

### Event 65535.7

#### Metadata

| Field        | Value    |
|--------------|----------|
| Entrypoint   | 0x00FA   |
| Data Size    | 72 bytes |
| Instructions | 16       |

```
      00 01 02 03 04 05 06 07  08 09 0A 0B 0C 0D 0E 0F
      -- -- -- -- -- -- -- --  -- -- -- -- -- -- -- --
00F0:                                32 1B 80 1F 00 22            2...."
0100: 80 23 80 15 80 1F 01 4B  43 10 0F 01 24 80 1C 1E  .#.....KC...$...
0110: 80 32 1B 80 1F 00 25 80  26 80 15 80 1F 01 1F 00  .2....%.&.......
0120: 27 80 28 80 15 80 1F 01  4B 43 10 0F 01 29 80 1C  '.(.....KC...)..
0130: 00 80 6E 43 10 0F 01 2A  80 99 43 10 0F 01 1C 1E  ..nC...*..C.....
0140: 80 00                                             ..              
```

#### Opcodes

```
  0: 0x00FA [0x32] ExtData[1]->MainSpeed = 13* * 0.1
  1: 0x00FD [0x1F] MOVE_ENTITY: EventEntity moves to X=-8.431*, Z=-106.114*, Y=1.548*
  2: 0x0105 [0x1F] MOVE_ENTITY: Update entity position (mode=1)
  3: 0x0107 [0x4B] UPDATE_ENTITY_YAW(entity=Pulonono (ID: 17764419/0x010F1043), yaw=0.3*)
  4: 0x010E [0x1C] WAIT(60* ticks)
  5: 0x0111 [0x32] ExtData[1]->MainSpeed = 13* * 0.1
  6: 0x0114 [0x1F] MOVE_ENTITY: EventEntity moves to X=-8.104*, Z=-107.405*, Y=1.548*
  7: 0x011C [0x1F] MOVE_ENTITY: Update entity position (mode=1)
  8: 0x011E [0x1F] MOVE_ENTITY: EventEntity moves to X=-6.878*, Z=-108.064*, Y=1.548*
  9: 0x0126 [0x1F] MOVE_ENTITY: Update entity position (mode=1)
 10: 0x0128 [0x4B] UPDATE_ENTITY_YAW(entity=Pulonono (ID: 17764419/0x010F1043), yaw=15.3*)
 11: 0x012F [0x1C] WAIT(30* ticks)
 12: 0x0132 [0x6E] Pulonono (ID: 17764419/0x010F1043) uses emote 7*
 13: 0x0139 [0x99] Wait for Pulonono (ID: 17764419/0x010F1043) animation to complete
 14: 0x013E [0x1C] WAIT(60* ticks)
 15: 0x0141 [0x00] END_REQSTACK()
```

### Event 65535.8

#### Metadata

| Field        | Value    |
|--------------|----------|
| Entrypoint   | 0x0142   |
| Data Size    | 15 bytes |
| Instructions | 3        |

```
      00 01 02 03 04 05 06 07  08 09 0A 0B 0C 0D 0E 0F
      -- -- -- -- -- -- -- --  -- -- -- -- -- -- -- --
0140:       37 2B 80 2C 80 11  80 2D 80 80 F8 FF FF 7F    7+.,...-......
0150: 00                                                .               
```

#### Opcodes

```
  0: 0x0142 [0x37] UPDATE_EVENT_POSITION_AND_DIR: x=-9.815*, z=-100.532*, y=1.399*, direction=12.2*
  1: 0x014B [0x80] LOAD_WAIT(entity=EventEntity)
  2: 0x0150 [0x00] END_REQSTACK()
```

### Event 65535.9

#### Metadata

| Field        | Value     |
|--------------|-----------|
| Entrypoint   | 0x0151    |
| Data Size    | 315 bytes |
| Instructions | 51        |

```
      00 01 02 03 04 05 06 07  08 09 0A 0B 0C 0D 0E 0F
      -- -- -- -- -- -- -- --  -- -- -- -- -- -- -- --
0150:    32 2E 80 1F 00 2F 80  30 80 11 80 1F 01 32 2E   2..../.0.....2.
0160: 80 1F 00 31 80 32 80 11  80 1F 01 1C 1E 80 32 1B  ...1.2........2.
0170: 80 1F 00 33 80 34 80 11  80 1F 01 37 35 80 36 80  ...3.4.....75.6.
0180: 15 80 37 80 80 F8 FF FF  7F 02 03 10 38 80 80 B2  ..7.........8...
0190: 01 5B 39 80 44 10 0F 01  44 10 0F 01 6B 75 65 30  .[9.D...D...kue0
01A0: 5B 3A 80 44 10 0F 01 44  10 0F 01 31 30 30 39 01  [:.D...D...1009.
01B0: D0 01 5B 3B 80 4A 10 0F  01 4A 10 0F 01 6A 6F 79  ..[;.J...J...joy
01C0: 30 5B 3A 80 4A 10 0F 01  4A 10 0F 01 31 30 31 31  0[:.J...J...1011
01D0: 1C 1E 80 32 2E 80 1F 00  3C 80 3D 80 15 80 1F 01  ...2....<.=.....
01E0: 32 3E 80 1F 00 3F 80 40  80 15 80 1F 01 32 2E 80  2>...?.@.....2..
01F0: 1F 00 41 80 42 80 15 80  1F 01 1C 1E 80 32 1B 80  ..A.B........2..
0200: 1F 00 3C 80 3D 80 15 80  1F 01 02 03 10 38 80 80  ..<.=........8..
0210: 47 02 4A 44 10 0F 01 43  10 0F 01 1C 00 80 5B 39  G.JD...C......[9
0220: 80 44 10 0F 01 44 10 0F  01 6B 75 65 30 5B 3A 80  .D...D...kue0[:.
0230: 44 10 0F 01 44 10 0F 01  31 30 30 39 1C 1E 80 1E  D...D...1009....
0240: 44 10 0F 01 01 79 02 4A  4A 10 0F 01 43 10 0F 01  D....y.JJ...C...
0250: 1C 00 80 5B 3B 80 4A 10  0F 01 4A 10 0F 01 6A 6F  ...[;.J...J...jo
0260: 79 30 5B 3A 80 4A 10 0F  01 4A 10 0F 01 31 30 31  y0[:.J...J...101
0270: 31 1C 1E 80 1E 4A 10 0F  01 1C 00 80 6E 43 10 0F  1....J......nC..
0280: 01 43 80 99 43 10 0F 01  1C 44 80 00              .C..C....D..    
```

#### Opcodes

```
  0: 0x0151 [0x32] ExtData[1]->MainSpeed = 40* * 0.1
  1: 0x0154 [0x1F] MOVE_ENTITY: EventEntity moves to X=-6.953*, Z=-100.480*, Y=1.399*
  2: 0x015C [0x1F] MOVE_ENTITY: Update entity position (mode=1)
  3: 0x015E [0x32] ExtData[1]->MainSpeed = 40* * 0.1
  4: 0x0161 [0x1F] MOVE_ENTITY: EventEntity moves to X=-6.958*, Z=-100.680*, Y=1.399*
  5: 0x0169 [0x1F] MOVE_ENTITY: Update entity position (mode=1)
  6: 0x016B [0x1C] WAIT(60* ticks)
  7: 0x016E [0x32] ExtData[1]->MainSpeed = 13* * 0.1
  8: 0x0171 [0x1F] MOVE_ENTITY: EventEntity moves to X=-9.601*, Z=-100.669*, Y=1.399*
  9: 0x0179 [0x1F] MOVE_ENTITY: Update entity position (mode=1)
 10: 0x017B [0x37] UPDATE_EVENT_POSITION_AND_DIR: x=-4.872*, z=-107.458*, y=1.548*, direction=208.6*
 11: 0x0184 [0x80] LOAD_WAIT(entity=EventEntity)
 12: 0x0189 [0x02] IF !(Work_Zone[3] == 3*) GOTO 0x01B2
 13: 0x0191 [0x5B] LOAD_EXT_SCHEDULER: Load scheduler "kue0" with entities [Unnamed NPC (ID: 17764420/0x010F1044), Unnamed NPC (ID: 17764420/0x010F1044)], work=875*
 14: 0x01A0 [0x5B] LOAD_EXT_SCHEDULER: Load scheduler "1009" with entities [Unnamed NPC (ID: 17764420/0x010F1044), Unnamed NPC (ID: 17764420/0x010F1044)], work=224*
 15: 0x01AF [0x01] GOTO 0x01D0
 16: 0x01B2 [0x5B] LOAD_EXT_SCHEDULER: Load scheduler "joy0" with entities [Unnamed NPC (ID: 17764426/0x010F104A), Unnamed NPC (ID: 17764426/0x010F104A)], work=222*
 17: 0x01C1 [0x5B] LOAD_EXT_SCHEDULER: Load scheduler "1011" with entities [Unnamed NPC (ID: 17764426/0x010F104A), Unnamed NPC (ID: 17764426/0x010F104A)], work=224*

SUBROUTINE_01D0:
 18: 0x01D0 [0x1C] WAIT(60* ticks)
 19: 0x01D3 [0x32] ExtData[1]->MainSpeed = 40* * 0.1
 20: 0x01D6 [0x1F] MOVE_ENTITY: EventEntity moves to X=-8.297*, Z=-107.272*, Y=1.548*
 21: 0x01DE [0x1F] MOVE_ENTITY: Update entity position (mode=1)
 22: 0x01E0 [0x32] ExtData[1]->MainSpeed = 100* * 0.1
 23: 0x01E3 [0x1F] MOVE_ENTITY: EventEntity moves to X=-8.509*, Z=-104.601*, Y=1.548*
 24: 0x01EB [0x1F] MOVE_ENTITY: Update entity position (mode=1)
 25: 0x01ED [0x32] ExtData[1]->MainSpeed = 40* * 0.1
 26: 0x01F0 [0x1F] MOVE_ENTITY: EventEntity moves to X=-8.181*, Z=-104.539*, Y=1.548*
 27: 0x01F8 [0x1F] MOVE_ENTITY: Update entity position (mode=1)
 28: 0x01FA [0x1C] WAIT(60* ticks)
 29: 0x01FD [0x32] ExtData[1]->MainSpeed = 13* * 0.1
 30: 0x0200 [0x1F] MOVE_ENTITY: EventEntity moves to X=-8.297*, Z=-107.272*, Y=1.548*
 31: 0x0208 [0x1F] MOVE_ENTITY: Update entity position (mode=1)
 32: 0x020A [0x02] IF !(Work_Zone[3] == 3*) GOTO 0x0247
 33: 0x0212 [0x4A] Unnamed NPC (ID: 17764420/0x010F1044) looks at Pulonono (ID: 17764419/0x010F1043)
 34: 0x021B [0x1C] WAIT(30* ticks)
 35: 0x021E [0x5B] LOAD_EXT_SCHEDULER: Load scheduler "kue0" with entities [Unnamed NPC (ID: 17764420/0x010F1044), Unnamed NPC (ID: 17764420/0x010F1044)], work=875*
 36: 0x022D [0x5B] LOAD_EXT_SCHEDULER: Load scheduler "1009" with entities [Unnamed NPC (ID: 17764420/0x010F1044), Unnamed NPC (ID: 17764420/0x010F1044)], work=224*
 37: 0x023C [0x1C] WAIT(60* ticks)
 38: 0x023F [0x1E] EventEntity looks at Unnamed NPC (ID: 17764420/0x010F1044) and starts talking
 39: 0x0244 [0x01] GOTO 0x0279
 40: 0x0247 [0x4A] Unnamed NPC (ID: 17764426/0x010F104A) looks at Pulonono (ID: 17764419/0x010F1043)
 41: 0x0250 [0x1C] WAIT(30* ticks)
 42: 0x0253 [0x5B] LOAD_EXT_SCHEDULER: Load scheduler "joy0" with entities [Unnamed NPC (ID: 17764426/0x010F104A), Unnamed NPC (ID: 17764426/0x010F104A)], work=222*
 43: 0x0262 [0x5B] LOAD_EXT_SCHEDULER: Load scheduler "1011" with entities [Unnamed NPC (ID: 17764426/0x010F104A), Unnamed NPC (ID: 17764426/0x010F104A)], work=224*
 44: 0x0271 [0x1C] WAIT(60* ticks)
 45: 0x0274 [0x1E] EventEntity looks at Unnamed NPC (ID: 17764426/0x010F104A) and starts talking

SUBROUTINE_0279:
 46: 0x0279 [0x1C] WAIT(30* ticks)
 47: 0x027C [0x6E] Pulonono (ID: 17764419/0x010F1043) uses emote 25*
