# 17764405 - Kyaa Taali

## Common Data

| Field            | Value                    |
|------------------|--------------------------|
| Zone             | Windurst Woods (ID: 241) |
| Block Size       | 2088 bytes               |
| Total Events     | 3                        |
| References Count | 43                       |

## List of Events

| Event ID              | Entrypoint   |   Size |   Instructions |
|-----------------------|--------------|--------|----------------|
| [65535](#event-65535) | 0x0000       |      1 |              1 |
| [10020](#event-10020) | 0x0001       |    844 |            173 |
| [763](#event-763)     | 0x034D       |   1041 |            235 |

## DAT References (imed_data)

|   Index | Hex Value   |   Dec Value |
|---------|-------------|-------------|
|       0 | 0x0006      |           6 |
|       1 | 0x1C43      |        7235 |
|       2 | 0x0002      |           2 |
|       3 | 0x0000      |           0 |
|       4 | 0x1D00      |        7424 |
|       5 | 0x1D02      |        7426 |
|       6 | 0x00C8      |         200 |
|       7 | 0x005A      |          90 |
|       8 | 0x0001      |           1 |
|       9 | 0x008C      |         140 |
|      10 | 0x000F      |          15 |
|      11 | 0x000A      |          10 |
|      12 | 0x1C74      |        7284 |
|      13 | 0x40000000  |  1073741824 |
|      14 | 0x0010      |          16 |
|      15 | 0x0003      |           3 |
|      16 | 0x0004      |           4 |
|      17 | 0x0005      |           5 |
|      18 | 0x0007      |           7 |
|      19 | 0x0008      |           8 |
|      20 | 0x0009      |           9 |
|      21 | 0x000B      |          11 |
|      22 | 0x000C      |          12 |
|      23 | 0x000D      |          13 |
|      24 | 0x000E      |          14 |
|      25 | 0x0011      |          17 |
|      26 | 0x1C75      |        7285 |
|      27 | 0x1D38      |        7480 |
|      28 | 0x1D03      |        7427 |
|      29 | 0x1C48      |        7240 |
|      30 | 0x1C6E      |        7278 |
|      31 | 0x1C4C      |        7244 |
|      32 | 0x1C4B      |        7243 |
|      33 | 0x1C4A      |        7242 |
|      34 | 0x1C49      |        7241 |
|      35 | 0x1D04      |        7428 |
|      36 | 0x1CFF      |        7423 |
|      37 | 0x2E63      |       11875 |
|      38 | 0x2E8E      |       11918 |
|      39 | 0x2E8F      |       11919 |
|      40 | 0x2E76      |       11894 |
|      41 | 0x2E77      |       11895 |
|      42 | 0x2E78      |       11896 |

## String References

- **7235**: Request...? [[Advanced synthesis/Synthesis/Synthesis] image support./Information on synthesis materials./Nothing.]
- **7240**: Necessary skills: [Fishing/Woodworking/Smithing/Goldsmithing/Clothcraft/Leatherworking/Bonecraft/Alchemy/Cooking][ /, Woodworking/, Smithing/, Goldsmithing/, Clothcraft/, Leatherworking/, Bonecraft/, Alchemy/, Cooking][ /, Woodworking/, Smithing/, Goldsmithing/, Clothcraft/, Leatherworking/, Bonecraft/, Alchemy/, Cooking][ /, & Woodworking/, & Smithing/, & Goldsmithing/, & Clothcraft/, & Leatherworking/, & Bonecraft/, & Alchemy/, & Cooking] Necessary crystal: $4 Necessary items:
- **7241**: $4 x $0 $5 x $0$0 $6 x $0 $7 x $0$3
- **7242**: $4 x $0 $5 x $0$0 $6 x $0
- **7243**: $4 x $0 $5 x $0$0
- **7244**: $4 x $0
- **7278**: Necessary skills: [Fishing/Woodworking/Smithing/Goldsmithing/Clothcraft/Leatherworking/Bonecraft/Alchemy/Cooking][ /, Woodworking/, Smithing/, Goldsmithing/, Clothcraft/, Leatherworking/, Bonecraft/, Alchemy/, Cooking][ /, Woodworking/, Smithing/, Goldsmithing/, Clothcraft/, Leatherworking/, Bonecraft/, Alchemy/, Cooking][ /, & Woodworking/, & Smithing/, & Goldsmithing/, & Clothcraft/, & Leatherworking/, & Bonecraft/, & Alchemy/, & Cooking] Necessary crystal: $4 Necessary key item: $3 Necessary items:
- **7284**: Which rank of synthesis do you ask about? [Never mind./Amateur./Recruit./Initiate./Novice./Apprentice./Journeyman./Craftsman./Artisan./Adept./Veteran./Expert./Authority./Luminary./Master./Grandmaster.]
- **7285**: Which synthesis recipe do you ask about? [None./%./$1./$2./$3./$4./$5./$6./$7./$8./$9./$10./$11./$12./$13./$14./$15./View more recipes.]
- **7423**: Please, [sir/ma'am], I don't know much. Talk to the guildmasterrr, Peshi Yohnts.
- **7424**: I'm sorrrry, [sir/ma'am], but there is nothing more I can do for you.
- **7426**: I'll do my best, [sir/ma'am], but I cannot guarantee anything... Please don't get upset...
- **7427**: You probably can make one already, but how about $0? You will need...
- **7428**: Take care when working with bones... They often break when least expected...
- **7480**: The synthesis items for that rank are still beyond your skill, I'm afraid.
- **11875**: Ask if this person is the chick's owner? [Yes./No.]
- **11894**: You've got my chocobo, eh?
- **11895**: Thanks a million! That birrrd is so cute, she reminds me of myself. I was afraid someone had kidnapped the poor little chickadee.
- **11896**: Hey, you're raising a chocobo too, rrright? Let me tell you a story you might be able to use!
- **11918**: You say you've got my chocobo, eh?
- **11919**: You rrreally think I'd believe that? I know you just wanted to get close to me, but surely you can think of something better than that!

## Events

### Event 65535

#### Metadata

| Field        | Value   |
|--------------|---------|
| Entrypoint   | 0x0000  |
| Data Size    | 1 bytes |
| Instructions | 1       |

```
      00 01 02 03 04 05 06 07  08 09 0A 0B 0C 0D 0E 0F
      -- -- -- -- -- -- -- --  -- -- -- -- -- -- -- --
0000: 00                                                .               
```

#### Opcodes

```
  0: 0x0000 [0x00] END_REQSTACK()
```

### Event 10020

#### Metadata

| Field        | Value     |
|--------------|-----------|
| Entrypoint   | 0x0001    |
| Data Size    | 844 bytes |
| Instructions | 166       |

```
      00 01 02 03 04 05 06 07  08 09 0A 0B 0C 0D 0E 0F
      -- -- -- -- -- -- -- --  -- -- -- -- -- -- -- --
0000:    3E 05 10 00 80 47 03  24 01 80 02 80 03 80 25   >....G.$......%
0010: 02 00 10 03 80 00 59 00  02 07 10 03 80 01 27 00  ......Y.......'.
0020: 1D 04 80 23 01 56 00 1D  05 80 23 42 45 06 80 F8  ...#.V....#BE...
0030: FF FF 7F F8 FF FF 7F 66  64 6F 31 03 80 1C 07 80  .......fdo1.....
0040: 45 06 80 F8 FF FF 7F F8  FF FF 7F 66 64 69 31 03  E..........fdi1.
0050: 80 03 01 10 08 80 01 44  03 02 00 10 08 80 00 39  .......D.......9
0060: 03 03 08 10 00 80 03 03  00 08 10 03 05 00 03 10  ................
0070: 06 00 00 03 02 00 09 80  03 01 00 0A 80 02 03 10  ................
0080: 02 00 05 8F 00 3C 00 00  01 00 08 80 01 92 00 01  .....<..........
0090: A5 00 02 01 00 02 80 02  A5 00 0C 01 00 08 02 00  ................
00A0: 0B 80 01 7D 00 24 0C 80  03 80 00 00 25 02 00 10  ...}.$......%...
00B0: 03 80 00 BF 00 03 01 10  0D 80 21 00 01 BF 00 03  ..........!.....
00C0: 04 00 00 10 0C 04 00 03  06 00 03 80 03 07 00 0E  ................
00D0: 80 8C 02 03 00 05 00 04  00 06 00 07 00 8C 01 03  ................
00E0: 00 00 03 80 02 02 10 03  80 00 F2 00 06 40 10 01  .............@..
00F0: 2D 02 02 03 10 03 80 00  01 01 3C 00 00 02 80 08  -.........<.....
0100: 80 02 04 10 03 80 00 10  01 3C 00 00 0F 80 08 80  .........<......
0110: 02 05 10 03 80 00 1F 01  3C 00 00 10 80 08 80 02  ........<.......
0120: 06 10 03 80 00 2E 01 3C  00 00 11 80 08 80 02 07  .......<........
0130: 10 03 80 00 3D 01 3C 00  00 00 80 08 80 02 08 10  ....=.<.........
0140: 03 80 00 4C 01 3C 00 00  12 80 08 80 02 09 10 03  ...L.<..........
0150: 80 00 5B 01 3C 00 00 13  80 08 80 02 00 17 03 80  ..[.<...........
0160: 00 6A 01 3C 00 00 14 80  08 80 02 01 17 03 80 00  .j.<............
0170: 79 01 3C 00 00 0B 80 08  80 02 02 17 03 80 00 88  y.<.............
0180: 01 3C 00 00 15 80 08 80  02 03 17 03 80 00 97 01  .<..............
0190: 3C 00 00 16 80 08 80 02  04 17 03 80 00 A6 01 3C  <..............<
01A0: 00 00 17 80 08 80 02 05  17 03 80 00 B5 01 3C 00  ..............<.
01B0: 00 18 80 08 80 02 06 17  03 80 00 C4 01 3C 00 00  .............<..
01C0: 0A 80 08 80 02 07 17 03  80 00 D3 01 3C 00 00 0E  ............<...
01D0: 80 08 80 02 08 17 03 80  00 E2 01 3C 00 00 19 80  ...........<....
01E0: 08 80 24 1A 80 03 80 00  00 25 02 00 10 03 80 00  ..$......%......
01F0: FC 01 03 01 10 0D 80 21  00 01 14 02 02 00 10 19  .......!........
0200: 80 00 14 02 07 06 00 0E  80 07 07 00 0E 80 01 D1  ................
0210: 00 01 14 02 03 08 00 06  00 07 08 00 00 10 0C 08  ................
0220: 00 8C 03 03 00 05 00 04  00 08 00 8C 01 02 40 10  ..............@.
0230: 03 80 00 3B 02 1D 1B 80  23 21 00 03 02 10 40 10  ...;....#!....@.
0240: 1D 1C 80 23 03 08 10 00  80 03 03 10 41 10 03 04  ...#........A...
0250: 10 42 10 03 05 10 43 10  03 06 10 44 10 03 07 10  .B....C....D....
0260: 55 10 02 07 10 03 80 00  71 02 48 1D 80 23 01 75  U.......q.H..#.u
0270: 02 48 1E 80 23 03 02 10  45 10 03 03 10 46 10 03  .H..#...E....F..
0280: 04 10 47 10 03 05 10 48  10 03 06 10 4D 10 03 07  ..G....H....M...
0290: 10 4E 10 03 08 10 4F 10  03 09 10 50 10 02 07 10  .N....O....P....
02A0: 03 80 00 AC 02 48 1F 80  23 01 32 03 02 08 10 03  .....H..#.2.....
02B0: 80 00 BB 02 48 20 80 23  01 32 03 02 09 10 03 80  ....H .#.2......
02C0: 00 CA 02 48 21 80 23 01  32 03 48 22 80 23 03 02  ...H!.#.2.H".#..
02D0: 10 49 10 03 03 10 4A 10  03 04 10 4B 10 03 05 10  .I....J....K....
02E0: 4C 10 03 06 10 51 10 03  07 10 52 10 03 08 10 53  L....Q....R....S
02F0: 10 03 09 10 54 10 02 06  10 03 80 00 01 03 01 32  ....T..........2
0300: 03 02 07 10 03 80 00 10  03 48 1F 80 23 01 32 03  .........H..#.2.
0310: 02 08 10 03 80 00 1F 03  48 20 80 23 01 32 03 02  ........H .#.2..
0320: 09 10 03 80 00 2E 03 48  21 80 23 01 32 03 48 22  .......H!.#.2.H"
0330: 80 23 1D 23 80 23 01 44  03 02 00 10 02 80 00 44  .#.#.#.D.......D
0340: 03 01 44 03 01 4B 03 1D  24 80 23 21 00           ..D..K..$.#!.   
```

#### Opcodes

```
  0: 0x0001 [0x3E] IF !(Work_Zone[5] bit 6*) GOTO 0x0347
  1: 0x0008 [0x24] CREATE_DIALOG(message_id=7235*, default_option=2*, option_flags=0*)
    → "Request...? [[Advanced synthesis/Synthesis/Synthesis] image support./Information on synthesis materials./Nothing.]"
  2: 0x000F [0x25] WAIT_DIALOG_SELECT()
  3: 0x0010 [0x02] IF !(Work_Zone[0] == 0*) GOTO 0x0059
  4: 0x0018 [0x02] IF !(Work_Zone[7] == 0*) GOTO 0x0027
  5: 0x0020 [0x1D] PRINT_EVENT_MESSAGE(message_id=7424*)
    → "I'm sorrrry, [sir/ma'am], but there is nothing more I can do for you."
  6: 0x0023 [0x23] WAIT_FOR_DIALOG_INTERACTION
  7: 0x0024 [0x01] GOTO 0x0056
  8: 0x0027 [0x1D] PRINT_EVENT_MESSAGE(message_id=7426*)
    → "I'll do my best, [sir/ma'am], but I cannot guarantee anything... Please don't get upset..."
  9: 0x002A [0x23] WAIT_FOR_DIALOG_INTERACTION
 10: 0x002B [0x42] SET_CLI_EVENT_CANCEL_DATA()
 11: 0x002C [0x45] LOAD_SCHEDULED_TASK: Load scheduler "fdo1" with entities [EventEntity, EventEntity], work=[200*, 0*]
 12: 0x003D [0x1C] WAIT(90* ticks)
 13: 0x0040 [0x45] LOAD_SCHEDULED_TASK: Load scheduler "fdi1" with entities [EventEntity, EventEntity], work=[200*, 0*]
 14: 0x0051 [0x03] Work_Zone[1] = 1*

SUBROUTINE_0056:
 15: 0x0056 [0x01] GOTO 0x0344
 16: 0x0059 [0x02] IF !(Work_Zone[0] == 1*) GOTO 0x0339
 17: 0x0061 [0x03] Work_Zone[8] = 6*
 18: 0x0066 [0x03] ExtData[1]->WorkLocal[3] = Work_Zone[8]
 19: 0x006B [0x03] ExtData[1]->WorkLocal[5] = Work_Zone[3]
 20: 0x0070 [0x06] ExtData[1]->WorkLocal[0] = 0
 21: 0x0073 [0x03] ExtData[1]->WorkLocal[2] = 140*
 22: 0x0078 [0x03] ExtData[1]->WorkLocal[1] = 15*

SUBROUTINE_007D:
 23: 0x007D [0x02] IF !(Work_Zone[3] > ExtData[1]->WorkLocal[2]) GOTO 0x008F
 24: 0x0085 [0x3C] SET_BIT_FLAG_CONDITIONAL(target_work_offset=ExtData[1]->WorkLocal[0], bit_index_work_offset=ExtData[1]->WorkLocal[1], condition_work_offset=1*)
 25: 0x008C [0x01] GOTO 0x0092
 26: 0x008F [0x01] GOTO 0x00A5

SUBROUTINE_0092:
 27: 0x0092 [0x02] IF !(ExtData[1]->WorkLocal[1] <= 2*) GOTO 0x00A5
 28: 0x009A [0x0C] ExtData[1]->WorkLocal[1]--
 29: 0x009D [0x08] ExtData[1]->WorkLocal[2] -= 10*
 30: 0x00A2 [0x01] GOTO 0x007D

SUBROUTINE_00A5:
 31: 0x00A5 [0x24] CREATE_DIALOG(message_id=7284*, default_option=0*, option_flags=ExtData[1]->WorkLocal[0])
    → "Which rank of synthesis do you ask about? [Never mind./Amateur./Recruit./Initiate./Novice./Apprentice./Journeyman./Craftsman./Artisan./Adept./Veteran./Expert./Authority./Luminary./Master./Grandmaster.]"
 32: 0x00AC [0x25] WAIT_DIALOG_SELECT()
 33: 0x00AD [0x02] IF !(Work_Zone[0] == 0*) GOTO 0x00BF
 34: 0x00B5 [0x03] Work_Zone[1] = 1073741824*
 35: 0x00BA [0x21] END_EVENT
 36: 0x00BB [0x00] END_REQSTACK()

SUBROUTINE_00BF:
 37: 0x00BF [0x03] ExtData[1]->WorkLocal[4] = Work_Zone[0]
 38: 0x00C4 [0x0C] ExtData[1]->WorkLocal[4]--
 39: 0x00C7 [0x03] ExtData[1]->WorkLocal[6] = 0*
 40: 0x00CC [0x03] ExtData[1]->WorkLocal[7] = 16*

SUBROUTINE_00D1:
 41: 0x00D1 [0x8C] CRAFTING_HANDLER(mode=0x02) // Set recipe data
 42: 0x00DD [0x8C] CRAFTING_HANDLER(mode=0x01) // End crafting session
 43: 0x00DF [0x03] ExtData[1]->WorkLocal[0] = 0*
 44: 0x00E4 [0x02] IF !(Work_Zone[2] == 0*) GOTO 0x00F2
 45: 0x00EC [0x06] Work_Zone[64] = 0
 46: 0x00EF [0x01] GOTO 0x022D
 47: 0x00F2 [0x02] IF !(Work_Zone[3] == 0*) GOTO 0x0101
 48: 0x00FA [0x3C] SET_BIT_FLAG_CONDITIONAL(target_work_offset=ExtData[1]->WorkLocal[0], bit_index_work_offset=2*, condition_work_offset=1*)
 49: 0x0101 [0x02] IF !(Work_Zone[4] == 0*) GOTO 0x0110
 50: 0x0109 [0x3C] SET_BIT_FLAG_CONDITIONAL(target_work_offset=ExtData[1]->WorkLocal[0], bit_index_work_offset=3*, condition_work_offset=1*)
 51: 0x0110 [0x02] IF !(Work_Zone[5] == 0*) GOTO 0x011F
 52: 0x0118 [0x3C] SET_BIT_FLAG_CONDITIONAL(target_work_offset=ExtData[1]->WorkLocal[0], bit_index_work_offset=4*, condition_work_offset=1*)
 53: 0x011F [0x02] IF !(Work_Zone[6] == 0*) GOTO 0x012E
 54: 0x0127 [0x3C] SET_BIT_FLAG_CONDITIONAL(target_work_offset=ExtData[1]->WorkLocal[0], bit_index_work_offset=5*, condition_work_offset=1*)
 55: 0x012E [0x02] IF !(Work_Zone[7] == 0*) GOTO 0x013D
 56: 0x0136 [0x3C] SET_BIT_FLAG_CONDITIONAL(target_work_offset=ExtData[1]->WorkLocal[0], bit_index_work_offset=6*, condition_work_offset=1*)
 57: 0x013D [0x02] IF !(Work_Zone[8] == 0*) GOTO 0x014C
 58: 0x0145 [0x3C] SET_BIT_FLAG_CONDITIONAL(target_work_offset=ExtData[1]->WorkLocal[0], bit_index_work_offset=7*, condition_work_offset=1*)
 59: 0x014C [0x02] IF !(Work_Zone[9] == 0*) GOTO 0x015B
 60: 0x0154 [0x3C] SET_BIT_FLAG_CONDITIONAL(target_work_offset=ExtData[1]->WorkLocal[0], bit_index_work_offset=8*, condition_work_offset=1*)
 61: 0x015B [0x02] IF !(Work_Zone_1700[0] == 0*) GOTO 0x016A
 62: 0x0163 [0x3C] SET_BIT_FLAG_CONDITIONAL(target_work_offset=ExtData[1]->WorkLocal[0], bit_index_work_offset=9*, condition_work_offset=1*)
 63: 0x016A [0x02] IF !(Work_Zone_1700[1] == 0*) GOTO 0x0179
 64: 0x0172 [0x3C] SET_BIT_FLAG_CONDITIONAL(target_work_offset=ExtData[1]->WorkLocal[0], bit_index_work_offset=10*, condition_work_offset=1*)
 65: 0x0179 [0x02] IF !(Work_Zone_1700[2] == 0*) GOTO 0x0188
 66: 0x0181 [0x3C] SET_BIT_FLAG_CONDITIONAL(target_work_offset=ExtData[1]->WorkLocal[0], bit_index_work_offset=11*, condition_work_offset=1*)
 67: 0x0188 [0x02] IF !(Work_Zone_1700[3] == 0*) GOTO 0x0197
 68: 0x0190 [0x3C] SET_BIT_FLAG_CONDITIONAL(target_work_offset=ExtData[1]->WorkLocal[0], bit_index_work_offset=12*, condition_work_offset=1*)
 69: 0x0197 [0x02] IF !(Work_Zone_1700[4] == 0*) GOTO 0x01A6
 70: 0x019F [0x3C] SET_BIT_FLAG_CONDITIONAL(target_work_offset=ExtData[1]->WorkLocal[0], bit_index_work_offset=13*, condition_work_offset=1*)
 71: 0x01A6 [0x02] IF !(Work_Zone_1700[5] == 0*) GOTO 0x01B5
 72: 0x01AE [0x3C] SET_BIT_FLAG_CONDITIONAL(target_work_offset=ExtData[1]->WorkLocal[0], bit_index_work_offset=14*, condition_work_offset=1*)
 73: 0x01B5 [0x02] IF !(Work_Zone_1700[6] == 0*) GOTO 0x01C4
 74: 0x01BD [0x3C] SET_BIT_FLAG_CONDITIONAL(target_work_offset=ExtData[1]->WorkLocal[0], bit_index_work_offset=15*, condition_work_offset=1*)
 75: 0x01C4 [0x02] IF !(Work_Zone_1700[7] == 0*) GOTO 0x01D3
 76: 0x01CC [0x3C] SET_BIT_FLAG_CONDITIONAL(target_work_offset=ExtData[1]->WorkLocal[0], bit_index_work_offset=16*, condition_work_offset=1*)
 77: 0x01D3 [0x02] IF !(Work_Zone_1700[8] == 0*) GOTO 0x01E2
 78: 0x01DB [0x3C] SET_BIT_FLAG_CONDITIONAL(target_work_offset=ExtData[1]->WorkLocal[0], bit_index_work_offset=17*, condition_work_offset=1*)
 79: 0x01E2 [0x24] CREATE_DIALOG(message_id=7285*, default_option=0*, option_flags=ExtData[1]->WorkLocal[0])
    → "Which synthesis recipe do you ask about? [None./%./$1./$2./$3./$4./$5./$6./$7./$8./$9./$10./$11./$12./$13./$14./$15./View more recipes.]"
 80: 0x01E9 [0x25] WAIT_DIALOG_SELECT()
 81: 0x01EA [0x02] IF !(Work_Zone[0] == 0*) GOTO 0x01FC
 82: 0x01F2 [0x03] Work_Zone[1] = 1073741824*
 83: 0x01F7 [0x21] END_EVENT
 84: 0x01F8 [0x00] END_REQSTACK()

SUBROUTINE_0214:
 85: 0x0214 [0x03] ExtData[1]->WorkLocal[8] = ExtData[1]->WorkLocal[6]
 86: 0x0219 [0x07] ExtData[1]->WorkLocal[8] += Work_Zone[0]
 87: 0x021E [0x0C] ExtData[1]->WorkLocal[8]--
 88: 0x0221 [0x8C] CRAFTING_HANDLER(mode=0x03) // Get synthesis recipe
 89: 0x022B [0x8C] CRAFTING_HANDLER(mode=0x01) // End crafting session

SUBROUTINE_022D:
 90: 0x022D [0x02] IF !(Work_Zone[64] == 0*) GOTO 0x023B
 91: 0x0235 [0x1D] PRINT_EVENT_MESSAGE(message_id=7480*)
    → "The synthesis items for that rank are still beyond your skill, I'm afraid."
 92: 0x0238 [0x23] WAIT_FOR_DIALOG_INTERACTION
 93: 0x0239 [0x21] END_EVENT
 94: 0x023A [0x00] END_REQSTACK()
 95: 0x023B [0x03] Work_Zone[2] = Work_Zone[64]
 96: 0x0240 [0x1D] PRINT_EVENT_MESSAGE(message_id=7427*)
    → "You probably can make one already, but how about $0? You will need..."
 97: 0x0243 [0x23] WAIT_FOR_DIALOG_INTERACTION
 98: 0x0244 [0x03] Work_Zone[8] = 6*
 99: 0x0249 [0x03] Work_Zone[3] = Work_Zone[65]
100: 0x024E [0x03] Work_Zone[4] = Work_Zone[66]
101: 0x0253 [0x03] Work_Zone[5] = Work_Zone[67]
102: 0x0258 [0x03] Work_Zone[6] = Work_Zone[68]
103: 0x025D [0x03] Work_Zone[7] = Work_Zone[85]
104: 0x0262 [0x02] IF !(Work_Zone[7] == 0*) GOTO 0x0271
105: 0x026A [0x48] [System] [7240*]:
    → "Necessary skills: [Fishing/Woodworking/Smithing/Goldsmithing/Clothcraft/Leatherworking/Bonecraft/Alchemy/Cooking][ /, Woodworking/, Smithing/, Goldsmithing/, Clothcraft/, Leatherworking/, Bonecraft/, Alchemy/, Cooking][ /, Woodworking/, Smithing/, Goldsmithing/, Clothcraft/, Leatherworking/, Bonecraft/, Alchemy/, Cooking][ /, & Woodworking/, & Smithing/, & Goldsmithing/, & Clothcraft/, & Leatherworking/, & Bonecraft/, & Alchemy/, & Cooking] Necessary crystal: $4 Necessary items:"
106: 0x026D [0x23] WAIT_FOR_DIALOG_INTERACTION
107: 0x026E [0x01] GOTO 0x0275
108: 0x0271 [0x48] [System] [7278*]:
    → "Necessary skills: [Fishing/Woodworking/Smithing/Goldsmithing/Clothcraft/Leatherworking/Bonecraft/Alchemy/Cooking][ /, Woodworking/, Smithing/, Goldsmithing/, Clothcraft/, Leatherworking/, Bonecraft/, Alchemy/, Cooking][ /, Woodworking/, Smithing/, Goldsmithing/, Clothcraft/, Leatherworking/, Bonecraft/, Alchemy/, Cooking][ /, & Woodworking/, & Smithing/, & Goldsmithing/, & Clothcraft/, & Leatherworking/, & Bonecraft/, & Alchemy/, & Cooking] Necessary crystal: $4 Necessary key item: $3 Necessary items:"
109: 0x0274 [0x23] WAIT_FOR_DIALOG_INTERACTION

SUBROUTINE_0275:
110: 0x0275 [0x03] Work_Zone[2] = Work_Zone[69]
111: 0x027A [0x03] Work_Zone[3] = Work_Zone[70]
112: 0x027F [0x03] Work_Zone[4] = Work_Zone[71]
113: 0x0284 [0x03] Work_Zone[5] = Work_Zone[72]
114: 0x0289 [0x03] Work_Zone[6] = Work_Zone[77]
115: 0x028E [0x03] Work_Zone[7] = Work_Zone[78]
116: 0x0293 [0x03] Work_Zone[8] = Work_Zone[79]
117: 0x0298 [0x03] Work_Zone[9] = Work_Zone[80]
118: 0x029D [0x02] IF !(Work_Zone[7] == 0*) GOTO 0x02AC
119: 0x02A5 [0x48] [System] [7244*]:
    → "$4 x $0"
120: 0x02A8 [0x23] WAIT_FOR_DIALOG_INTERACTION
121: 0x02A9 [0x01] GOTO 0x0332
122: 0x02AC [0x02] IF !(Work_Zone[8] == 0*) GOTO 0x02BB
123: 0x02B4 [0x48] [System] [7243*]:
    → "$4 x $0 $5 x $0$0"
124: 0x02B7 [0x23] WAIT_FOR_DIALOG_INTERACTION
125: 0x02B8 [0x01] GOTO 0x0332
126: 0x02BB [0x02] IF !(Work_Zone[9] == 0*) GOTO 0x02CA
127: 0x02C3 [0x48] [System] [7242*]:
    → "$4 x $0 $5 x $0$0 $6 x $0"
128: 0x02C6 [0x23] WAIT_FOR_DIALOG_INTERACTION
129: 0x02C7 [0x01] GOTO 0x0332
130: 0x02CA [0x48] [System] [7241*]:
    → "$4 x $0 $5 x $0$0 $6 x $0 $7 x $0$3"
131: 0x02CD [0x23] WAIT_FOR_DIALOG_INTERACTION
132: 0x02CE [0x03] Work_Zone[2] = Work_Zone[73]
133: 0x02D3 [0x03] Work_Zone[3] = Work_Zone[74]
134: 0x02D8 [0x03] Work_Zone[4] = Work_Zone[75]
135: 0x02DD [0x03] Work_Zone[5] = Work_Zone[76]
136: 0x02E2 [0x03] Work_Zone[6] = Work_Zone[81]
137: 0x02E7 [0x03] Work_Zone[7] = Work_Zone[82]
138: 0x02EC [0x03] Work_Zone[8] = Work_Zone[83]
139: 0x02F1 [0x03] Work_Zone[9] = Work_Zone[84]
140: 0x02F6 [0x02] IF !(Work_Zone[6] == 0*) GOTO 0x0301
141: 0x02FE [0x01] GOTO 0x0332
142: 0x0301 [0x02] IF !(Work_Zone[7] == 0*) GOTO 0x0310
143: 0x0309 [0x48] [System] [7244*]:
    → "$4 x $0"
144: 0x030C [0x23] WAIT_FOR_DIALOG_INTERACTION
145: 0x030D [0x01] GOTO 0x0332
146: 0x0310 [0x02] IF !(Work_Zone[8] == 0*) GOTO 0x031F
147: 0x0318 [0x48] [System] [7243*]:
    → "$4 x $0 $5 x $0$0"
148: 0x031B [0x23] WAIT_FOR_DIALOG_INTERACTION
149: 0x031C [0x01] GOTO 0x0332
150: 0x031F [0x02] IF !(Work_Zone[9] == 0*) GOTO 0x032E
151: 0x0327 [0x48] [System] [7242*]:
    → "$4 x $0 $5 x $0$0 $6 x $0"
152: 0x032A [0x23] WAIT_FOR_DIALOG_INTERACTION
153: 0x032B [0x01] GOTO 0x0332
154: 0x032E [0x48] [System] [7241*]:
    → "$4 x $0 $5 x $0$0 $6 x $0 $7 x $0$3"
155: 0x0331 [0x23] WAIT_FOR_DIALOG_INTERACTION

SUBROUTINE_0332:
156: 0x0332 [0x1D] PRINT_EVENT_MESSAGE(message_id=7428*)
    → "Take care when working with bones... They often break when least expected..."
157: 0x0335 [0x23] WAIT_FOR_DIALOG_INTERACTION
158: 0x0336 [0x01] GOTO 0x0344
159: 0x0339 [0x02] IF !(Work_Zone[0] == 2*) GOTO 0x0344
160: 0x0341 [0x01] GOTO 0x0344

SUBROUTINE_0344:
161: 0x0344 [0x01] GOTO 0x034B
162: 0x0347 [0x1D] PRINT_EVENT_MESSAGE(message_id=7423*)
    → "Please, [sir/ma'am], I don't know much. Talk to the guildmasterrr, Peshi Yohnts."
163: 0x034A [0x23] WAIT_FOR_DIALOG_INTERACTION

SUBROUTINE_034B:
164: 0x034B [0x21] END_EVENT
165: 0x034C [0x00] END_REQSTACK()
```

#### Data or dead code:

```
# Dead code (unreachable instructions):
     0x00BC [0x01] GOTO 0x00BF
# Dead code (unreachable instructions):
     0x01F9 [0x01] GOTO 0x0214
     0x0211 [0x01] GOTO 0x0214
```

### Event 763

#### Metadata

| Field        | Value      |
|--------------|------------|
| Entrypoint   | 0x034D     |
| Data Size    | 1041 bytes |
| Instructions | 224        |

```
      00 01 02 03 04 05 06 07  08 09 0A 0B 0C 0D 0E 0F
      -- -- -- -- -- -- -- --  -- -- -- -- -- -- -- --
0340:                                         42 03 01               B..
0350: 10 03 80 3E 05 10 00 80  1B 07 24 01 80 02 80 03  ...>......$.....
0360: 80 25 02 00 10 03 80 00  AD 03 02 07 10 03 80 01  .%..............
0370: 79 03 1D 04 80 23 01 AA  03 1D 05 80 23 42 45 06  y....#......#BE.
0380: 80 F8 FF FF 7F F8 FF FF  7F 66 64 6F 31 03 80 1C  .........fdo1...
0390: 07 80 45 06 80 F8 FF FF  7F F8 FF FF 7F 66 64 69  ..E..........fdi
03A0: 31 03 80 3C 01 10 08 80  08 80 01 18 07 02 00 10  1..<............
03B0: 08 80 00 18 07 03 08 10  00 80 03 03 00 08 10 03  ................
03C0: 05 00 03 10 06 00 00 03  02 00 09 80 03 01 00 0A  ................
03D0: 80 02 03 10 02 00 05 E3  03 3C 00 00 01 00 08 80  .........<......
03E0: 01 E6 03 01 F9 03 02 01  00 02 80 02 F9 03 0C 01  ................
03F0: 00 08 02 00 0B 80 01 D1  03 24 0C 80 03 80 00 00  .........$......
0400: 25 02 00 10 03 80 00 58  04 24 25 80 08 80 03 80  %......X.$%.....
0410: 25 02 00 10 03 80 00 48  04 3C 01 10 02 80 08 80  %......H.<......
0420: 43 00 43 01 02 08 10 03  80 00 37 04 1D 26 80 23  C.C.......7..&.#
0430: 1D 27 80 23 01 43 04 1D  28 80 23 1D 29 80 23 1D  .'.#.C..(.#.).#.
0440: 2A 80 23 21 00 01 55 04  02 00 10 08 80 00 55 04  *.#!..U.......U.
0450: 21 00 01 55 04 01 58 04  03 04 00 00 10 0C 04 00  !..U..X.........
0460: 03 06 00 03 80 03 07 00  0E 80 8C 02 03 00 05 00  ................
0470: 04 00 06 00 07 00 8C 01  03 00 00 03 80 02 02 10  ................
0480: 03 80 00 8B 04 06 40 10  01 0B 06 02 03 10 03 80  ......@.........
0490: 00 9A 04 3C 00 00 02 80  08 80 02 04 10 03 80 00  ...<............
04A0: A9 04 3C 00 00 0F 80 08  80 02 05 10 03 80 00 B8  ..<.............
04B0: 04 3C 00 00 10 80 08 80  02 06 10 03 80 00 C7 04  .<..............
04C0: 3C 00 00 11 80 08 80 02  07 10 03 80 00 D6 04 3C  <..............<
04D0: 00 00 00 80 08 80 02 08  10 03 80 00 E5 04 3C 00  ..............<.
04E0: 00 12 80 08 80 02 09 10  03 80 00 F4 04 3C 00 00  .............<..
04F0: 13 80 08 80 02 00 17 03  80 00 03 05 3C 00 00 14  ............<...
0500: 80 08 80 02 01 17 03 80  00 12 05 3C 00 00 0B 80  ...........<....
0510: 08 80 02 02 17 03 80 00  21 05 3C 00 00 15 80 08  ........!.<.....
0520: 80 02 03 17 03 80 00 30  05 3C 00 00 16 80 08 80  .......0.<......
0530: 02 04 17 03 80 00 3F 05  3C 00 00 17 80 08 80 02  ......?.<.......
0540: 05 17 03 80 00 4E 05 3C  00 00 18 80 08 80 02 06  .....N.<........
0550: 17 03 80 00 5D 05 3C 00  00 0A 80 08 80 02 07 17  ....].<.........
0560: 03 80 00 6C 05 3C 00 00  0E 80 08 80 02 08 17 03  ...l.<..........
0570: 80 00 7B 05 3C 00 00 19  80 08 80 24 1A 80 03 80  ..{.<......$....
0580: 00 00 25 02 00 10 03 80  00 DA 05 24 25 80 08 80  ..%........$%...
0590: 03 80 25 02 00 10 03 80  00 CA 05 3C 01 10 02 80  ..%........<....
05A0: 08 80 43 00 43 01 02 08  10 03 80 00 B9 05 1D 26  ..C.C..........&
05B0: 80 23 1D 27 80 23 01 C5  05 1D 28 80 23 1D 29 80  .#.'.#....(.#.).
05C0: 23 1D 2A 80 23 21 00 01  D7 05 02 00 10 08 80 00  #.*.#!..........
05D0: D7 05 21 00 01 D7 05 01  F2 05 02 00 10 19 80 00  ..!.............
05E0: F2 05 07 06 00 0E 80 07  07 00 0E 80 01 6A 04 01  .............j..
05F0: F2 05 03 08 00 06 00 07  08 00 00 10 0C 08 00 8C  ................
0600: 03 03 00 05 00 04 00 08  00 8C 01 02 40 10 03 80  ............@...
0610: 00 1A 06 1D 1B 80 23 01  15 07 03 02 10 40 10 1D  ......#......@..
0620: 1C 80 23 03 08 10 00 80  03 03 10 41 10 03 04 10  ..#........A....
0630: 42 10 03 05 10 43 10 03  06 10 44 10 03 07 10 55  B....C....D....U
0640: 10 02 07 10 03 80 00 50  06 48 1D 80 23 01 54 06  .......P.H..#.T.
0650: 48 1E 80 23 03 02 10 45  10 03 03 10 46 10 03 04  H..#...E....F...
0660: 10 47 10 03 05 10 48 10  03 06 10 4D 10 03 07 10  .G....H....M....
0670: 4E 10 03 08 10 4F 10 03  09 10 50 10 02 07 10 03  N....O....P.....
0680: 80 00 8B 06 48 1F 80 23  01 11 07 02 08 10 03 80  ....H..#........
0690: 00 9A 06 48 20 80 23 01  11 07 02 09 10 03 80 00  ...H .#.........
06A0: A9 06 48 21 80 23 01 11  07 48 22 80 23 03 02 10  ..H!.#...H".#...
06B0: 49 10 03 03 10 4A 10 03  04 10 4B 10 03 05 10 4C  I....J....K....L
06C0: 10 03 06 10 51 10 03 07  10 52 10 03 08 10 53 10  ....Q....R....S.
06D0: 03 09 10 54 10 02 06 10  03 80 00 E0 06 01 11 07  ...T............
06E0: 02 07 10 03 80 00 EF 06  48 1F 80 23 01 11 07 02  ........H..#....
06F0: 08 10 03 80 00 FE 06 48  20 80 23 01 11 07 02 09  .......H .#.....
0700: 10 03 80 00 0D 07 48 21  80 23 01 11 07 48 22 80  ......H!.#...H".
0710: 23 1D 23 80 23 01 18 07  01 1F 07 1D 24 80 23 24  #.#.#.......$.#$
0720: 25 80 08 80 03 80 25 02  00 10 03 80 00 5C 07 3C  %.....%......\.<
0730: 01 10 02 80 08 80 43 00  43 01 02 08 10 03 80 00  ......C.C.......
0740: 4D 07 1D 26 80 23 1D 27  80 23 01 59 07 1D 28 80  M..&.#.'.#.Y..(.
0750: 23 1D 29 80 23 1D 2A 80  23 01 5C 07 21 00        #.).#.*.#.\.!.  
```

#### Opcodes

```
  0: 0x034D [0x42] SET_CLI_EVENT_CANCEL_DATA()
  1: 0x034E [0x03] Work_Zone[1] = 0*
  2: 0x0353 [0x3E] IF !(Work_Zone[5] bit 6*) GOTO 0x071B
  3: 0x035A [0x24] CREATE_DIALOG(message_id=7235*, default_option=2*, option_flags=0*)
    → "Request...? [[Advanced synthesis/Synthesis/Synthesis] image support./Information on synthesis materials./Nothing.]"
  4: 0x0361 [0x25] WAIT_DIALOG_SELECT()
  5: 0x0362 [0x02] IF !(Work_Zone[0] == 0*) GOTO 0x03AD
  6: 0x036A [0x02] IF !(Work_Zone[7] == 0*) GOTO 0x0379
  7: 0x0372 [0x1D] PRINT_EVENT_MESSAGE(message_id=7424*)
    → "I'm sorrrry, [sir/ma'am], but there is nothing more I can do for you."
  8: 0x0375 [0x23] WAIT_FOR_DIALOG_INTERACTION
  9: 0x0376 [0x01] GOTO 0x03AA
 10: 0x0379 [0x1D] PRINT_EVENT_MESSAGE(message_id=7426*)
    → "I'll do my best, [sir/ma'am], but I cannot guarantee anything... Please don't get upset..."
 11: 0x037C [0x23] WAIT_FOR_DIALOG_INTERACTION
 12: 0x037D [0x42] SET_CLI_EVENT_CANCEL_DATA()
 13: 0x037E [0x45] LOAD_SCHEDULED_TASK: Load scheduler "fdo1" with entities [EventEntity, EventEntity], work=[200*, 0*]
 14: 0x038F [0x1C] WAIT(90* ticks)
 15: 0x0392 [0x45] LOAD_SCHEDULED_TASK: Load scheduler "fdi1" with entities [EventEntity, EventEntity], work=[200*, 0*]
 16: 0x03A3 [0x3C] SET_BIT_FLAG_CONDITIONAL(target_work_offset=Work_Zone[1], bit_index_work_offset=1*, condition_work_offset=1*)

SUBROUTINE_03AA:
 17: 0x03AA [0x01] GOTO 0x0718
 18: 0x03AD [0x02] IF !(Work_Zone[0] == 1*) GOTO 0x0718
 19: 0x03B5 [0x03] Work_Zone[8] = 6*
 20: 0x03BA [0x03] ExtData[1]->WorkLocal[3] = Work_Zone[8]
 21: 0x03BF [0x03] ExtData[1]->WorkLocal[5] = Work_Zone[3]
 22: 0x03C4 [0x06] ExtData[1]->WorkLocal[0] = 0
 23: 0x03C7 [0x03] ExtData[1]->WorkLocal[2] = 140*
 24: 0x03CC [0x03] ExtData[1]->WorkLocal[1] = 15*

SUBROUTINE_03D1:
 25: 0x03D1 [0x02] IF !(Work_Zone[3] > ExtData[1]->WorkLocal[2]) GOTO 0x03E3
 26: 0x03D9 [0x3C] SET_BIT_FLAG_CONDITIONAL(target_work_offset=ExtData[1]->WorkLocal[0], bit_index_work_offset=ExtData[1]->WorkLocal[1], condition_work_offset=1*)
 27: 0x03E0 [0x01] GOTO 0x03E6
 28: 0x03E3 [0x01] GOTO 0x03F9

SUBROUTINE_03E6:
 29: 0x03E6 [0x02] IF !(ExtData[1]->WorkLocal[1] <= 2*) GOTO 0x03F9
 30: 0x03EE [0x0C] ExtData[1]->WorkLocal[1]--
 31: 0x03F1 [0x08] ExtData[1]->WorkLocal[2] -= 10*
 32: 0x03F6 [0x01] GOTO 0x03D1

SUBROUTINE_03F9:
 33: 0x03F9 [0x24] CREATE_DIALOG(message_id=7284*, default_option=0*, option_flags=ExtData[1]->WorkLocal[0])
    → "Which rank of synthesis do you ask about? [Never mind./Amateur./Recruit./Initiate./Novice./Apprentice./Journeyman./Craftsman./Artisan./Adept./Veteran./Expert./Authority./Luminary./Master./Grandmaster.]"
 34: 0x0400 [0x25] WAIT_DIALOG_SELECT()
 35: 0x0401 [0x02] IF !(Work_Zone[0] == 0*) GOTO 0x0458
 36: 0x0409 [0x24] CREATE_DIALOG(message_id=11875*, default_option=1*, option_flags=0*)
    → "Ask if this person is the chick's owner? [Yes./No.]"
 37: 0x0410 [0x25] WAIT_DIALOG_SELECT()
 38: 0x0411 [0x02] IF !(Work_Zone[0] == 0*) GOTO 0x0448
 39: 0x0419 [0x3C] SET_BIT_FLAG_CONDITIONAL(target_work_offset=Work_Zone[1], bit_index_work_offset=2*, condition_work_offset=1*)
 40: 0x0420 [0x43] SEND_EVENT_UPDATE: Send pending tag to server (packet 0x005B)
 41: 0x0422 [0x43] SEND_EVENT_UPDATE: Check pending flag (skip if not pending)
 42: 0x0424 [0x02] IF !(Work_Zone[8] == 0*) GOTO 0x0437
 43: 0x042C [0x1D] PRINT_EVENT_MESSAGE(message_id=11918*)
    → "You say you've got my chocobo, eh?"
 44: 0x042F [0x23] WAIT_FOR_DIALOG_INTERACTION
 45: 0x0430 [0x1D] PRINT_EVENT_MESSAGE(message_id=11919*)
    → "You rrreally think I'd believe that? I know you just wanted to get close to me, but surely you can think of something better than that!"
 46: 0x0433 [0x23] WAIT_FOR_DIALOG_INTERACTION
 47: 0x0434 [0x01] GOTO 0x0443
 48: 0x0437 [0x1D] PRINT_EVENT_MESSAGE(message_id=11894*)
    → "You've got my chocobo, eh?"
 49: 0x043A [0x23] WAIT_FOR_DIALOG_INTERACTION
 50: 0x043B [0x1D] PRINT_EVENT_MESSAGE(message_id=11895*)
    → "Thanks a million! That birrrd is so cute, she reminds me of myself. I was afraid someone had kidnapped the poor little chickadee."
 51: 0x043E [0x23] WAIT_FOR_DIALOG_INTERACTION
 52: 0x043F [0x1D] PRINT_EVENT_MESSAGE(message_id=11896*)
    → "Hey, you're raising a chocobo too, rrright? Let me tell you a story you might be able to use!"
 53: 0x0442 [0x23] WAIT_FOR_DIALOG_INTERACTION

SUBROUTINE_0443:
 54: 0x0443 [0x21] END_EVENT
 55: 0x0444 [0x00] END_REQSTACK()

SUBROUTINE_0455:
 56: 0x0455 [0x01] GOTO 0x0458

SUBROUTINE_0458:
 57: 0x0458 [0x03] ExtData[1]->WorkLocal[4] = Work_Zone[0]
 58: 0x045D [0x0C] ExtData[1]->WorkLocal[4]--
 59: 0x0460 [0x03] ExtData[1]->WorkLocal[6] = 0*
 60: 0x0465 [0x03] ExtData[1]->WorkLocal[7] = 16*

SUBROUTINE_046A:
 61: 0x046A [0x8C] CRAFTING_HANDLER(mode=0x02) // Set recipe data
 62: 0x0476 [0x8C] CRAFTING_HANDLER(mode=0x01) // End crafting session
 63: 0x0478 [0x03] ExtData[1]->WorkLocal[0] = 0*
 64: 0x047D [0x02] IF !(Work_Zone[2] == 0*) GOTO 0x048B
 65: 0x0485 [0x06] Work_Zone[64] = 0
 66: 0x0488 [0x01] GOTO 0x060B
 67: 0x048B [0x02] IF !(Work_Zone[3] == 0*) GOTO 0x049A
 68: 0x0493 [0x3C] SET_BIT_FLAG_CONDITIONAL(target_work_offset=ExtData[1]->WorkLocal[0], bit_index_work_offset=2*, condition_work_offset=1*)
 69: 0x049A [0x02] IF !(Work_Zone[4] == 0*) GOTO 0x04A9
 70: 0x04A2 [0x3C] SET_BIT_FLAG_CONDITIONAL(target_work_offset=ExtData[1]->WorkLocal[0], bit_index_work_offset=3*, condition_work_offset=1*)
 71: 0x04A9 [0x02] IF !(Work_Zone[5] == 0*) GOTO 0x04B8
 72: 0x04B1 [0x3C] SET_BIT_FLAG_CONDITIONAL(target_work_offset=ExtData[1]->WorkLocal[0], bit_index_work_offset=4*, condition_work_offset=1*)
 73: 0x04B8 [0x02] IF !(Work_Zone[6] == 0*) GOTO 0x04C7
 74: 0x04C0 [0x3C] SET_BIT_FLAG_CONDITIONAL(target_work_offset=ExtData[1]->WorkLocal[0], bit_index_work_offset=5*, condition_work_offset=1*)
 75: 0x04C7 [0x02] IF !(Work_Zone[7] == 0*) GOTO 0x04D6
 76: 0x04CF [0x3C] SET_BIT_FLAG_CONDITIONAL(target_work_offset=ExtData[1]->WorkLocal[0], bit_index_work_offset=6*, condition_work_offset=1*)
 77: 0x04D6 [0x02] IF !(Work_Zone[8] == 0*) GOTO 0x04E5
 78: 0x04DE [0x3C] SET_BIT_FLAG_CONDITIONAL(target_work_offset=ExtData[1]->WorkLocal[0], bit_index_work_offset=7*, condition_work_offset=1*)
 79: 0x04E5 [0x02] IF !(Work_Zone[9] == 0*) GOTO 0x04F4
 80: 0x04ED [0x3C] SET_BIT_FLAG_CONDITIONAL(target_work_offset=ExtData[1]->WorkLocal[0], bit_index_work_offset=8*, condition_work_offset=1*)
 81: 0x04F4 [0x02] IF !(Work_Zone_1700[0] == 0*) GOTO 0x0503
 82: 0x04FC [0x3C] SET_BIT_FLAG_CONDITIONAL(target_work_offset=ExtData[1]->WorkLocal[0], bit_index_work_offset=9*, condition_work_offset=1*)
 83: 0x0503 [0x02] IF !(Work_Zone_1700[1] == 0*) GOTO 0x0512
 84: 0x050B [0x3C] SET_BIT_FLAG_CONDITIONAL(target_work_offset=ExtData[1]->WorkLocal[0], bit_index_work_offset=10*, condition_work_offset=1*)
 85: 0x0512 [0x02] IF !(Work_Zone_1700[2] == 0*) GOTO 0x0521
 86: 0x051A [0x3C] SET_BIT_FLAG_CONDITIONAL(target_work_offset=ExtData[1]->WorkLocal[0], bit_index_work_offset=11*, condition_work_offset=1*)
 87: 0x0521 [0x02] IF !(Work_Zone_1700[3] == 0*) GOTO 0x0530
 88: 0x0529 [0x3C] SET_BIT_FLAG_CONDITIONAL(target_work_offset=ExtData[1]->WorkLocal[0], bit_index_work_offset=12*, condition_work_offset=1*)
 89: 0x0530 [0x02] IF !(Work_Zone_1700[4] == 0*) GOTO 0x053F
 90: 0x0538 [0x3C] SET_BIT_FLAG_CONDITIONAL(target_work_offset=ExtData[1]->WorkLocal[0], bit_index_work_offset=13*, condition_work_offset=1*)
 91: 0x053F [0x02] IF !(Work_Zone_1700[5] == 0*) GOTO 0x054E
 92: 0x0547 [0x3C] SET_BIT_FLAG_CONDITIONAL(target_work_offset=ExtData[1]->WorkLocal[0], bit_index_work_offset=14*, condition_work_offset=1*)
 93: 0x054E [0x02] IF !(Work_Zone_1700[6] == 0*) GOTO 0x055D
 94: 0x0556 [0x3C] SET_BIT_FLAG_CONDITIONAL(target_work_offset=ExtData[1]->WorkLocal[0], bit_index_work_offset=15*, condition_work_offset=1*)
 95: 0x055D [0x02] IF !(Work_Zone_1700[7] == 0*) GOTO 0x056C
 96: 0x0565 [0x3C] SET_BIT_FLAG_CONDITIONAL(target_work_offset=ExtData[1]->WorkLocal[0], bit_index_work_offset=16*, condition_work_offset=1*)
 97: 0x056C [0x02] IF !(Work_Zone_1700[8] == 0*) GOTO 0x057B
 98: 0x0574 [0x3C] SET_BIT_FLAG_CONDITIONAL(target_work_offset=ExtData[1]->WorkLocal[0], bit_index_work_offset=17*, condition_work_offset=1*)
 99: 0x057B [0x24] CREATE_DIALOG(message_id=7285*, default_option=0*, option_flags=ExtData[1]->WorkLocal[0])
    → "Which synthesis recipe do you ask about? [None./%./$1./$2./$3./$4./$5./$6./$7./$8./$9./$10./$11./$12./$13./$14./$15./View more recipes.]"
100: 0x0582 [0x25] WAIT_DIALOG_SELECT()
101: 0x0583 [0x02] IF !(Work_Zone[0] == 0*) GOTO 0x05DA
102: 0x058B [0x24] CREATE_DIALOG(message_id=11875*, default_option=1*, option_flags=0*)
    → "Ask if this person is the chick's owner? [Yes./No.]"
103: 0x0592 [0x25] WAIT_DIALOG_SELECT()
104: 0x0593 [0x02] IF !(Work_Zone[0] == 0*) GOTO 0x05CA
105: 0x059B [0x3C] SET_BIT_FLAG_CONDITIONAL(target_work_offset=Work_Zone[1], bit_index_work_offset=2*, condition_work_offset=1*)
106: 0x05A2 [0x43] SEND_EVENT_UPDATE: Send pending tag to server (packet 0x005B)
107: 0x05A4 [0x43] SEND_EVENT_UPDATE: Check pending flag (skip if not pending)
108: 0x05A6 [0x02] IF !(Work_Zone[8] == 0*) GOTO 0x05B9
109: 0x05AE [0x1D] PRINT_EVENT_MESSAGE(message_id=11918*)
    → "You say you've got my chocobo, eh?"
110: 0x05B1 [0x23] WAIT_FOR_DIALOG_INTERACTION
111: 0x05B2 [0x1D] PRINT_EVENT_MESSAGE(message_id=11919*)
    → "You rrreally think I'd believe that? I know you just wanted to get close to me, but surely you can think of something better than that!"
112: 0x05B5 [0x23] WAIT_FOR_DIALOG_INTERACTION
113: 0x05B6 [0x01] GOTO 0x05C5
114: 0x05B9 [0x1D] PRINT_EVENT_MESSAGE(message_id=11894*)
    → "You've got my chocobo, eh?"
115: 0x05BC [0x23] WAIT_FOR_DIALOG_INTERACTION
116: 0x05BD [0x1D] PRINT_EVENT_MESSAGE(message_id=11895*)
    → "Thanks a million! That birrrd is so cute, she reminds me of myself. I was afraid someone had kidnapped the poor little chickadee."
117: 0x05C0 [0x23] WAIT_FOR_DIALOG_INTERACTION
118: 0x05C1 [0x1D] PRINT_EVENT_MESSAGE(message_id=11896*)
    → "Hey, you're raising a chocobo too, rrright? Let me tell you a story you might be able to use!"
119: 0x05C4 [0x23] WAIT_FOR_DIALOG_INTERACTION

SUBROUTINE_05C5:
120: 0x05C5 [0x21] END_EVENT
121: 0x05C6 [0x00] END_REQSTACK()

SUBROUTINE_05D7:
122: 0x05D7 [0x01] GOTO 0x05F2
123: 0x05DA [0x02] IF !(Work_Zone[0] == 17*) GOTO 0x05F2
124: 0x05E2 [0x07] ExtData[1]->WorkLocal[6] += 16*
125: 0x05E7 [0x07] ExtData[1]->WorkLocal[7] += 16*
126: 0x05EC [0x01] GOTO 0x046A

SUBROUTINE_05F2:
127: 0x05F2 [0x03] ExtData[1]->WorkLocal[8] = ExtData[1]->WorkLocal[6]
128: 0x05F7 [0x07] ExtData[1]->WorkLocal[8] += Work_Zone[0]
129: 0x05FC [0x0C] ExtData[1]->WorkLocal[8]--
130: 0x05FF [0x8C] CRAFTING_HANDLER(mode=0x03) // Get synthesis recipe
131: 0x0609 [0x8C] CRAFTING_HANDLER(mode=0x01) // End crafting session

SUBROUTINE_060B:
132: 0x060B [0x02] IF !(Work_Zone[64] == 0*) GOTO 0x061A
133: 0x0613 [0x1D] PRINT_EVENT_MESSAGE(message_id=7480*)
    → "The synthesis items for that rank are still beyond your skill, I'm afraid."
134: 0x0616 [0x23] WAIT_FOR_DIALOG_INTERACTION
135: 0x0617 [0x01] GOTO 0x0715
136: 0x061A [0x03] Work_Zone[2] = Work_Zone[64]
137: 0x061F [0x1D] PRINT_EVENT_MESSAGE(message_id=7427*)
    → "You probably can make one already, but how about $0? You will need..."
138: 0x0622 [0x23] WAIT_FOR_DIALOG_INTERACTION
139: 0x0623 [0x03] Work_Zone[8] = 6*
140: 0x0628 [0x03] Work_Zone[3] = Work_Zone[65]
141: 0x062D [0x03] Work_Zone[4] = Work_Zone[66]
142: 0x0632 [0x03] Work_Zone[5] = Work_Zone[67]
143: 0x0637 [0x03] Work_Zone[6] = Work_Zone[68]
144: 0x063C [0x03] Work_Zone[7] = Work_Zone[85]
145: 0x0641 [0x02] IF !(Work_Zone[7] == 0*) GOTO 0x0650
146: 0x0649 [0x48] [System] [7240*]:
    → "Necessary skills: [Fishing/Woodworking/Smithing/Goldsmithing/Clothcraft/Leatherworking/Bonecraft/Alchemy/Cooking][ /, Woodworking/, Smithing/, Goldsmithing/, Clothcraft/, Leatherworking/, Bonecraft/, Alchemy/, Cooking][ /, Woodworking/, Smithing/, Goldsmithing/, Clothcraft/, Leatherworking/, Bonecraft/, Alchemy/, Cooking][ /, & Woodworking/, & Smithing/, & Goldsmithing/, & Clothcraft/, & Leatherworking/, & Bonecraft/, & Alchemy/, & Cooking] Necessary crystal: $4 Necessary items:"
147: 0x064C [0x23] WAIT_FOR_DIALOG_INTERACTION
148: 0x064D [0x01] GOTO 0x0654
149: 0x0650 [0x48] [System] [7278*]:
    → "Necessary skills: [Fishing/Woodworking/Smithing/Goldsmithing/Clothcraft/Leatherworking/Bonecraft/Alchemy/Cooking][ /, Woodworking/, Smithing/, Goldsmithing/, Clothcraft/, Leatherworking/, Bonecraft/, Alchemy/, Cooking][ /, Woodworking/, Smithing/, Goldsmithing/, Clothcraft/, Leatherworking/, Bonecraft/, Alchemy/, Cooking][ /, & Woodworking/, & Smithing/, & Goldsmithing/, & Clothcraft/, & Leatherworking/, & Bonecraft/, & Alchemy/, & Cooking] Necessary crystal: $4 Necessary key item: $3 Necessary items:"
150: 0x0653 [0x23] WAIT_FOR_DIALOG_INTERACTION

SUBROUTINE_0654:
151: 0x0654 [0x03] Work_Zone[2] = Work_Zone[69]
152: 0x0659 [0x03] Work_Zone[3] = Work_Zone[70]
153: 0x065E [0x03] Work_Zone[4] = Work_Zone[71]
154: 0x0663 [0x03] Work_Zone[5] = Work_Zone[72]
155: 0x0668 [0x03] Work_Zone[6] = Work_Zone[77]
156: 0x066D [0x03] Work_Zone[7] = Work_Zone[78]
157: 0x0672 [0x03] Work_Zone[8] = Work_Zone[79]
158: 0x0677 [0x03] Work_Zone[9] = Work_Zone[80]
159: 0x067C [0x02] IF !(Work_Zone[7] == 0*) GOTO 0x068B
160: 0x0684 [0x48] [System] [7244*]:
    → "$4 x $0"
161: 0x0687 [0x23] WAIT_FOR_DIALOG_INTERACTION
162: 0x0688 [0x01] GOTO 0x0711
163: 0x068B [0x02] IF !(Work_Zone[8] == 0*) GOTO 0x069A
164: 0x0693 [0x48] [System] [7243*]:
    → "$4 x $0 $5 x $0$0"
165: 0x0696 [0x23] WAIT_FOR_DIALOG_INTERACTION
166: 0x0697 [0x01] GOTO 0x0711
167: 0x069A [0x02] IF !(Work_Zone[9] == 0*) GOTO 0x06A9
168: 0x06A2 [0x48] [System] [7242*]:
    → "$4 x $0 $5 x $0$0 $6 x $0"
169: 0x06A5 [0x23] WAIT_FOR_DIALOG_INTERACTION
170: 0x06A6 [0x01] GOTO 0x0711
171: 0x06A9 [0x48] [System] [7241*]:
    → "$4 x $0 $5 x $0$0 $6 x $0 $7 x $0$3"
172: 0x06AC [0x23] WAIT_FOR_DIALOG_INTERACTION
173: 0x06AD [0x03] Work_Zone[2] = Work_Zone[73]
174: 0x06B2 [0x03] Work_Zone[3] = Work_Zone[74]
175: 0x06B7 [0x03] Work_Zone[4] = Work_Zone[75]
176: 0x06BC [0x03] Work_Zone[5] = Work_Zone[76]
177: 0x06C1 [0x03] Work_Zone[6] = Work_Zone[81]
178: 0x06C6 [0x03] Work_Zone[7] = Work_Zone[82]
179: 0x06CB [0x03] Work_Zone[8] = Work_Zone[83]
180: 0x06D0 [0x03] Work_Zone[9] = Work_Zone[84]
181: 0x06D5 [0x02] IF !(Work_Zone[6] == 0*) GOTO 0x06E0
182: 0x06DD [0x01] GOTO 0x0711
183: 0x06E0 [0x02] IF !(Work_Zone[7] == 0*) GOTO 0x06EF
184: 0x06E8 [0x48] [System] [7244*]:
    → "$4 x $0"
185: 0x06EB [0x23] WAIT_FOR_DIALOG_INTERACTION
186: 0x06EC [0x01] GOTO 0x0711
187: 0x06EF [0x02] IF !(Work_Zone[8] == 0*) GOTO 0x06FE
188: 0x06F7 [0x48] [System] [7243*]:
    → "$4 x $0 $5 x $0$0"
189: 0x06FA [0x23] WAIT_FOR_DIALOG_INTERACTION
190: 0x06FB [0x01] GOTO 0x0711
191: 0x06FE [0x02] IF !(Work_Zone[9] == 0*) GOTO 0x070D
192: 0x0706 [0x48] [System] [7242*]:
    → "$4 x $0 $5 x $0$0 $6 x $0"
193: 0x0709 [0x23] WAIT_FOR_DIALOG_INTERACTION
194: 0x070A [0x01] GOTO 0x0711
195: 0x070D [0x48] [System] [7241*]:
    → "$4 x $0 $5 x $0$0 $6 x $0 $7 x $0$3"
196: 0x0710 [0x23] WAIT_FOR_DIALOG_INTERACTION

SUBROUTINE_0711:
197: 0x0711 [0x1D] PRINT_EVENT_MESSAGE(message_id=7428*)
    → "Take care when working with bones... They often break when least expected..."
198: 0x0714 [0x23] WAIT_FOR_DIALOG_INTERACTION

SUBROUTINE_0715:
199: 0x0715 [0x01] GOTO 0x0718

SUBROUTINE_0718:
200: 0x0718 [0x01] GOTO 0x071F
201: 0x071B [0x1D] PRINT_EVENT_MESSAGE(message_id=7423*)
    → "Please, [sir/ma'am], I don't know much. Talk to the guildmasterrr, Peshi Yohnts."
202: 0x071E [0x23] WAIT_FOR_DIALOG_INTERACTION

SUBROUTINE_071F:
203: 0x071F [0x24] CREATE_DIALOG(message_id=11875*, default_option=1*, option_flags=0*)
    → "Ask if this person is the chick's owner? [Yes./No.]"
204: 0x0726 [0x25] WAIT_DIALOG_SELECT()
205: 0x0727 [0x02] IF !(Work_Zone[0] == 0*) GOTO 0x075C
206: 0x072F [0x3C] SET_BIT_FLAG_CONDITIONAL(target_work_offset=Work_Zone[1], bit_index_work_offset=2*, condition_work_offset=1*)
207: 0x0736 [0x43] SEND_EVENT_UPDATE: Send pending tag to server (packet 0x005B)
208: 0x0738 [0x43] SEND_EVENT_UPDATE: Check pending flag (skip if not pending)
209: 0x073A [0x02] IF !(Work_Zone[8] == 0*) GOTO 0x074D
210: 0x0742 [0x1D] PRINT_EVENT_MESSAGE(message_id=11918*)
    → "You say you've got my chocobo, eh?"
211: 0x0745 [0x23] WAIT_FOR_DIALOG_INTERACTION
212: 0x0746 [0x1D] PRINT_EVENT_MESSAGE(message_id=11919*)
    → "You rrreally think I'd believe that? I know you just wanted to get close to me, but surely you can think of something better than that!"
213: 0x0749 [0x23] WAIT_FOR_DIALOG_INTERACTION
214: 0x074A [0x01] GOTO 0x0759
215: 0x074D [0x1D] PRINT_EVENT_MESSAGE(message_id=11894*)
    → "You've got my chocobo, eh?"
216: 0x0750 [0x23] WAIT_FOR_DIALOG_INTERACTION
217: 0x0751 [0x1D] PRINT_EVENT_MESSAGE(message_id=11895*)
    → "Thanks a million! That birrrd is so cute, she reminds me of myself. I was afraid someone had kidnapped the poor little chickadee."
218: 0x0754 [0x23] WAIT_FOR_DIALOG_INTERACTION
219: 0x0755 [0x1D] PRINT_EVENT_MESSAGE(message_id=11896*)
    → "Hey, you're raising a chocobo too, rrright? Let me tell you a story you might be able to use!"
220: 0x0758 [0x23] WAIT_FOR_DIALOG_INTERACTION

SUBROUTINE_0759:
221: 0x0759 [0x01] GOTO 0x075C

SUBROUTINE_075C:
222: 0x075C [0x21] END_EVENT
223: 0x075D [0x00] END_REQSTACK()
```

#### Data or dead code:

```
# Dead code (unreachable instructions):
     0x0445 [0x01] GOTO 0x0455
     0x0452 [0x01] GOTO 0x0455
# Dead code (unreachable instructions):
     0x05C7 [0x01] GOTO 0x05D7
     0x05D4 [0x01] GOTO 0x05D7
# Dead code (unreachable instructions):
     0x05EF [0x01] GOTO 0x05F2
```
