# 17764437 - Dietmund

## Common Data

| Field            | Value                    |
|------------------|--------------------------|
| Zone             | Windurst Woods (ID: 241) |
| Block Size       | 284 bytes                |
| Total Events     | 10                       |
| References Count | 24                       |

## List of Events

| Event ID                 | Entrypoint   |   Size |   Instructions |
|--------------------------|--------------|--------|----------------|
| [65535](#event-65535)    | 0x0000       |      1 |              1 |
| [746](#event-746)        | 0x0001       |      1 |              1 |
| [742](#event-742)        | 0x0002       |      1 |              1 |
| [65535.1](#event-655351) | 0x0003       |     15 |              3 |
| [65535.2](#event-655352) | 0x0012       |     19 |              5 |
| [65535.3](#event-655353) | 0x0025       |     27 |              3 |
| [65535.4](#event-655354) | 0x0040       |     10 |              2 |
| [65535.5](#event-655355) | 0x004A       |     15 |              3 |
| [65535.6](#event-655356) | 0x0059       |     19 |              3 |
| [65535.7](#event-655357) | 0x006C       |     21 |              2 |

## DAT References (imed_data)

|   Index | Hex Value   |   Dec Value |
|---------|-------------|-------------|
|       0 | 0xA1B6C     |      662380 |
|       1 | 0xFFF9B47D  |  4294554749 |
|       2 | 0x02B6      |         694 |
|       3 | 0x03CF      |         975 |
|       4 | 0x000D      |          13 |
|       5 | 0xA1D13     |      662803 |
|       6 | 0xFFF9AB69  |  4294552425 |
|       7 | 0x0168      |         360 |
|       8 | 0x0006      |           6 |
|       9 | 0x0000      |           0 |
|      10 | 0x0008      |           8 |
|      11 | 0xFFFFDBF5  |  4294958069 |
|      12 | 0xFFFEB7E0  |  4294883296 |
|      13 | 0x0BB7      |        2999 |
|      14 | 0x0199      |         409 |
|      15 | 0x2EE6      |       12006 |
|      16 | 0xFFFF3CB0  |  4294917296 |
|      17 | 0x07D0      |        2000 |
|      18 | 0x0206      |         518 |
|      19 | 0x005A      |          90 |
|      20 | 0x0028      |          40 |
|      21 | 0x0001      |           1 |
|      22 | 0x0010      |          16 |
|      23 | 0x000C      |          12 |

## Events

### Event 65535

#### Metadata

| Field        | Value   |
|--------------|---------|
| Entrypoint   | 0x0000  |
| Data Size    | 1 bytes |
| Instructions | 1       |

```
      00 01 02 03 04 05 06 07  08 09 0A 0B 0C 0D 0E 0F
      -- -- -- -- -- -- -- --  -- -- -- -- -- -- -- --
0000: 00                                                .               
```

#### Opcodes

```
  0: 0x0000 [0x00] END_REQSTACK()
```

### Event 746

#### Metadata

| Field        | Value   |
|--------------|---------|
| Entrypoint   | 0x0001  |
| Data Size    | 1 bytes |
| Instructions | 1       |

```
      00 01 02 03 04 05 06 07  08 09 0A 0B 0C 0D 0E 0F
      -- -- -- -- -- -- -- --  -- -- -- -- -- -- -- --
0000:    00                                              .              
```

#### Opcodes

```
  0: 0x0001 [0x00] END_REQSTACK()
```

### Event 742

#### Metadata

| Field        | Value   |
|--------------|---------|
| Entrypoint   | 0x0002  |
| Data Size    | 1 bytes |
| Instructions | 1       |

```
      00 01 02 03 04 05 06 07  08 09 0A 0B 0C 0D 0E 0F
      -- -- -- -- -- -- -- --  -- -- -- -- -- -- -- --
0000:       00                                            .             
```

#### Opcodes

```
  0: 0x0002 [0x00] END_REQSTACK()
```

### Event 65535.1

#### Metadata

| Field        | Value    |
|--------------|----------|
| Entrypoint   | 0x0003   |
| Data Size    | 15 bytes |
| Instructions | 3        |

```
      00 01 02 03 04 05 06 07  08 09 0A 0B 0C 0D 0E 0F
      -- -- -- -- -- -- -- --  -- -- -- -- -- -- -- --
0000:          37 00 80 01 80  02 80 03 80 80 F8 FF FF     7............
0010: 7F 00                                             ..              
```

#### Opcodes

```
  0: 0x0003 [0x37] UPDATE_EVENT_POSITION_AND_DIR: x=662.380*, z=-412.547*, y=0.694*, direction=85.7°*
  1: 0x000C [0x80] LOAD_WAIT(entity=EventEntity)
  2: 0x0011 [0x00] END_REQSTACK()
```

### Event 65535.2

#### Metadata

| Field        | Value    |
|--------------|----------|
| Entrypoint   | 0x0012   |
| Data Size    | 19 bytes |
| Instructions | 5        |

```
      00 01 02 03 04 05 06 07  08 09 0A 0B 0C 0D 0E 0F
      -- -- -- -- -- -- -- --  -- -- -- -- -- -- -- --
0010:       32 04 80 1F 00 05  80 06 80 07 80 1F 01 1E    2.............
0020: 4A 10 0F 01 00                                    J....           
```

#### Opcodes

```
  0: 0x0012 [0x32] ExtData[1]->MainSpeed = 13* * 0.1
  1: 0x0015 [0x1F] MOVE_ENTITY: EventEntity moves to X=662.803*, Z=-414.871*, Y=0.360*
  2: 0x001D [0x1F] MOVE_ENTITY: Update entity position (mode=1)
  3: 0x001F [0x1E] EventEntity looks at Unnamed NPC (ID: 17764426/0x010F104A) and starts talking
  4: 0x0024 [0x00] END_REQSTACK()
```

### Event 65535.3

#### Metadata

| Field        | Value    |
|--------------|----------|
| Entrypoint   | 0x0025   |
| Data Size    | 27 bytes |
| Instructions | 3        |

```
      00 01 02 03 04 05 06 07  08 09 0A 0B 0C 0D 0E 0F
      -- -- -- -- -- -- -- --  -- -- -- -- -- -- -- --
0020:                92 01 55  10 0F 01 B6 0B 08 80 09       ..U........
0030: 80 09 80 0A 80 0A 80 0A  80 0A 80 09 80 09 80 00  ................
```

#### Opcodes

```
  0: 0x0025 [0x92] Dietmund (ID: 17764437/0x010F1055)->Render.Flags3 ^= 0x01
  1: 0x002B [0xB6] ENTITY_APPEARANCE_HANDLER(case=Full entity look, race=6*, hair=0*, head=0*, body=8*, hands=8*, legs=8*, feet=8*, main=0*, sub=0*)
  2: 0x003F [0x00] END_REQSTACK()
```

### Event 65535.4

#### Metadata

| Field        | Value    |
|--------------|----------|
| Entrypoint   | 0x0040   |
| Data Size    | 10 bytes |
| Instructions | 2        |

```
      00 01 02 03 04 05 06 07  08 09 0A 0B 0C 0D 0E 0F
      -- -- -- -- -- -- -- --  -- -- -- -- -- -- -- --
0040: 37 0B 80 0C 80 0D 80 0E  80 00                    7.........      
```

#### Opcodes

```
  0: 0x0040 [0x37] UPDATE_EVENT_POSITION_AND_DIR: x=-9.227*, z=-84.000*, y=2.999*, direction=35.9°*
  1: 0x0049 [0x00] END_REQSTACK()
```

### Event 65535.5

#### Metadata

| Field        | Value    |
|--------------|----------|
| Entrypoint   | 0x004A   |
| Data Size    | 15 bytes |
| Instructions | 3        |

```
      00 01 02 03 04 05 06 07  08 09 0A 0B 0C 0D 0E 0F
      -- -- -- -- -- -- -- --  -- -- -- -- -- -- -- --
0040:                                37 0F 80 10 80 11            7.....
0050: 80 12 80 80 F8 FF FF 7F  00                       .........       
```

#### Opcodes

```
  0: 0x004A [0x37] UPDATE_EVENT_POSITION_AND_DIR: x=12.006*, z=-50.000*, y=2.000*, direction=45.5°*
  1: 0x0053 [0x80] LOAD_WAIT(entity=EventEntity)
  2: 0x0058 [0x00] END_REQSTACK()
```

### Event 65535.6

#### Metadata

| Field        | Value    |
|--------------|----------|
| Entrypoint   | 0x0059   |
| Data Size    | 19 bytes |
| Instructions | 3        |

```
      00 01 02 03 04 05 06 07  08 09 0A 0B 0C 0D 0E 0F
      -- -- -- -- -- -- -- --  -- -- -- -- -- -- -- --
0050:                             1C 13 80 66 14 80 F8           ...f...
0060: FF FF 7F F8 FF FF 7F 77  61 69 30 00              .......wai0.    
```

#### Opcodes

```
  0: 0x0059 [0x1C] WAIT(90* ticks)
  1: 0x005C [0x66] LOAD_EXT_SCHEDULER_MAIN: Load scheduler "wai0" with entities [EventEntity, EventEntity], work=40*
  2: 0x006B [0x00] END_REQSTACK()
```

### Event 65535.7

#### Metadata

| Field        | Value    |
|--------------|----------|
| Entrypoint   | 0x006C   |
| Data Size    | 21 bytes |
| Instructions | 2        |

```
      00 01 02 03 04 05 06 07  08 09 0A 0B 0C 0D 0E 0F
      -- -- -- -- -- -- -- --  -- -- -- -- -- -- -- --
0060:                                      B6 0B 15 80              ....
0070: 0A 80 09 80 16 80 09 80  17 80 09 80 09 80 09 80  ................
0080: 00                                                .               
```

#### Opcodes

```
  0: 0x006C [0xB6] ENTITY_APPEARANCE_HANDLER(case=Full entity look, race=1*, hair=8*, head=0*, body=16*, hands=0*, legs=12*, feet=0*, main=0*, sub=0*)
  1: 0x0080 [0x00] END_REQSTACK()
```
