# 17764392 - Erpolant

## Common Data

| Field            | Value                    |
|------------------|--------------------------|
| Zone             | Windurst Woods (ID: 241) |
| Block Size       | 316 bytes                |
| Total Events     | 10                       |
| References Count | 10                       |

## List of Events

| Event ID                 | Entrypoint   |   Size |   Instructions |
|--------------------------|--------------|--------|----------------|
| [65535](#event-65535)    | 0x0000       |      1 |              1 |
| [65535.1](#event-655351) | 0x0001       |     16 |              2 |
| [65535.2](#event-655352) | 0x0011       |     16 |              2 |
| [444](#event-444)        | 0x0021       |     33 |             12 |
| [447](#event-447)        | 0x0042       |     29 |             10 |
| [454](#event-454)        | 0x005F       |     29 |             10 |
| [460](#event-460)        | 0x007C       |     33 |             12 |
| [462](#event-462)        | 0x009D       |      1 |              1 |
| [466](#event-466)        | 0x009E       |     33 |             12 |
| [469](#event-469)        | 0x00BF       |     29 |             10 |

## DAT References (imed_data)

|   Index | Hex Value   |   Dec Value |
|---------|-------------|-------------|
|       0 | 0x0014      |          20 |
|       1 | 0x217E      |        8574 |
|       2 | 0x217F      |        8575 |
|       3 | 0x2182      |        8578 |
|       4 | 0x2196      |        8598 |
|       5 | 0x21A3      |        8611 |
|       6 | 0x21A4      |        8612 |
|       7 | 0x21B7      |        8631 |
|       8 | 0x21B8      |        8632 |
|       9 | 0x21BE      |        8638 |

## String References

- **8574**: This is the consulate of San d'Oria. Our role is to serve and protect the citizens of San d'Oria residing in Windurst.
- **8575**: But of course, we shan't forsake non-San d'Orian citizens who require our assistance. For we San d'Orians are indeed a just people.
- **8578**: Welcome to the consulate of San d'Oria. If you wish to speak to Consul Mourices, enter his office through the door on your right.
- **8598**: Act according to our convictions while fulfilling our promise with the Tarutaru. This is indeed a fitting course for us, the people of glorious San d'Oria.
- **8611**: Now that you have completed that little mission of amity, you are just an ordinary San d'Orian citizen again. So that frees you to go to Giddeus and really give those beastmen what they deserve.
- **8612**: However, we shan't take responsibility if you get seriously hurt in the process.
- **8631**: Becoming a soldier is a completely different way of life than being a mere fighter.
- **8632**: You are caught between intricate orders and chivalry, and sometimes you have to go against your personal convictions...
- **8638**: Consul Mourices's face has blanched. Did you say something to upset him? Did you not complete your mission correctly?

## Events

### Event 65535

#### Metadata

| Field        | Value   |
|--------------|---------|
| Entrypoint   | 0x0000  |
| Data Size    | 1 bytes |
| Instructions | 1       |

```
      00 01 02 03 04 05 06 07  08 09 0A 0B 0C 0D 0E 0F
      -- -- -- -- -- -- -- --  -- -- -- -- -- -- -- --
0000: 00                                                .               
```

#### Opcodes

```
  0: 0x0000 [0x00] END_REQSTACK()
```

### Event 65535.1

#### Metadata

| Field        | Value    |
|--------------|----------|
| Entrypoint   | 0x0001   |
| Data Size    | 16 bytes |
| Instructions | 2        |

```
      00 01 02 03 04 05 06 07  08 09 0A 0B 0C 0D 0E 0F
      -- -- -- -- -- -- -- --  -- -- -- -- -- -- -- --
0000:    66 00 80 F8 FF FF 7F  F8 FF FF 7F 74 6C 6B 30   f..........tlk0
0010: 00                                                .               
```

#### Opcodes

```
  0: 0x0001 [0x66] LOAD_EXT_SCHEDULER_MAIN: Load scheduler "tlk0" with entities [EventEntity, EventEntity], work=20*
  1: 0x0010 [0x00] END_REQSTACK()
```

### Event 65535.2

#### Metadata

| Field        | Value    |
|--------------|----------|
| Entrypoint   | 0x0011   |
| Data Size    | 16 bytes |
| Instructions | 2        |

```
      00 01 02 03 04 05 06 07  08 09 0A 0B 0C 0D 0E 0F
      -- -- -- -- -- -- -- --  -- -- -- -- -- -- -- --
0010:    66 00 80 F8 FF FF 7F  F8 FF FF 7F 69 64 6C 30   f..........idl0
0020: 00                                                .               
```

#### Opcodes

```
  0: 0x0011 [0x66] LOAD_EXT_SCHEDULER_MAIN: Load scheduler "idl0" with entities [EventEntity, EventEntity], work=20*
  1: 0x0020 [0x00] END_REQSTACK()
```

### Event 444

#### Metadata

| Field        | Value    |
|--------------|----------|
| Entrypoint   | 0x0021   |
| Data Size    | 33 bytes |
| Instructions | 12       |

```
      00 01 02 03 04 05 06 07  08 09 0A 0B 0C 0D 0E 0F
      -- -- -- -- -- -- -- --  -- -- -- -- -- -- -- --
0020:    1E F0 FF FF 7F 6F 70  29 08 28 10 0F 01 01 1D   .....op).(.....
0030: 01 80 23 1D 02 80 23 29  08 28 10 0F 01 02 20 00  ..#...#).(.... .
0040: 21 00                                             !.              
```

#### Opcodes

```
  0: 0x0021 [0x1E] EventEntity looks at LocalPlayer and starts talking
  1: 0x0026 [0x6F] WAIT_FRAME_DELAY: Yield until WaitTime reaches zero
  2: 0x0027 [0x70] WAIT_ENTITY_RENDER_FLAG: Wait while EventEntity->Render.Flags3 bit 2 is set (cancel turn if not)
  3: 0x0028 [0x29] REQ_SET_WAIT(priority=0x08, entity_id=Erpolant (ID: 17764392/0x010F1028), tag_num=0x01)
  4: 0x002F [0x1D] PRINT_EVENT_MESSAGE(message_id=8574*)
    → "This is the consulate of San d'Oria. Our role is to serve and protect the citizens of San d'Oria residing in Windurst."
  5: 0x0032 [0x23] WAIT_FOR_DIALOG_INTERACTION
  6: 0x0033 [0x1D] PRINT_EVENT_MESSAGE(message_id=8575*)
    → "But of course, we shan't forsake non-San d'Orian citizens who require our assistance. For we San d'Orians are indeed a just people."
  7: 0x0036 [0x23] WAIT_FOR_DIALOG_INTERACTION
  8: 0x0037 [0x29] REQ_SET_WAIT(priority=0x08, entity_id=Erpolant (ID: 17764392/0x010F1028), tag_num=0x02)
  9: 0x003E [0x20] SET_CLI_EVENT_UC_FLAG: Unlock player control
 10: 0x0040 [0x21] END_EVENT
 11: 0x0041 [0x00] END_REQSTACK()
```

### Event 447

#### Metadata

| Field        | Value    |
|--------------|----------|
| Entrypoint   | 0x0042   |
| Data Size    | 29 bytes |
| Instructions | 10       |

```
      00 01 02 03 04 05 06 07  08 09 0A 0B 0C 0D 0E 0F
      -- -- -- -- -- -- -- --  -- -- -- -- -- -- -- --
0040:       1E F0 FF FF 7F 6F  70 29 08 28 10 0F 01 01    .....op).(....
0050: 1D 03 80 23 29 08 28 10  0F 01 02 20 00 21 00     ...#).(.... .!. 
```

#### Opcodes

```
  0: 0x0042 [0x1E] EventEntity looks at LocalPlayer and starts talking
  1: 0x0047 [0x6F] WAIT_FRAME_DELAY: Yield until WaitTime reaches zero
  2: 0x0048 [0x70] WAIT_ENTITY_RENDER_FLAG: Wait while EventEntity->Render.Flags3 bit 2 is set (cancel turn if not)
  3: 0x0049 [0x29] REQ_SET_WAIT(priority=0x08, entity_id=Erpolant (ID: 17764392/0x010F1028), tag_num=0x01)
  4: 0x0050 [0x1D] PRINT_EVENT_MESSAGE(message_id=8578*)
    → "Welcome to the consulate of San d'Oria. If you wish to speak to Consul Mourices, enter his office through the door on your right."
  5: 0x0053 [0x23] WAIT_FOR_DIALOG_INTERACTION
  6: 0x0054 [0x29] REQ_SET_WAIT(priority=0x08, entity_id=Erpolant (ID: 17764392/0x010F1028), tag_num=0x02)
  7: 0x005B [0x20] SET_CLI_EVENT_UC_FLAG: Unlock player control
  8: 0x005D [0x21] END_EVENT
  9: 0x005E [0x00] END_REQSTACK()
```

### Event 454

#### Metadata

| Field        | Value    |
|--------------|----------|
| Entrypoint   | 0x005F   |
| Data Size    | 29 bytes |
| Instructions | 10       |

```
      00 01 02 03 04 05 06 07  08 09 0A 0B 0C 0D 0E 0F
      -- -- -- -- -- -- -- --  -- -- -- -- -- -- -- --
0050:                                               1E                 .
0060: F0 FF FF 7F 6F 70 29 08  28 10 0F 01 01 1D 04 80  ....op).(.......
0070: 23 29 08 28 10 0F 01 02  20 00 21 00              #).(.... .!.    
```

#### Opcodes

```
  0: 0x005F [0x1E] EventEntity looks at LocalPlayer and starts talking
  1: 0x0064 [0x6F] WAIT_FRAME_DELAY: Yield until WaitTime reaches zero
  2: 0x0065 [0x70] WAIT_ENTITY_RENDER_FLAG: Wait while EventEntity->Render.Flags3 bit 2 is set (cancel turn if not)
  3: 0x0066 [0x29] REQ_SET_WAIT(priority=0x08, entity_id=Erpolant (ID: 17764392/0x010F1028), tag_num=0x01)
  4: 0x006D [0x1D] PRINT_EVENT_MESSAGE(message_id=8598*)
    → "Act according to our convictions while fulfilling our promise with the Tarutaru. This is indeed a fitting course for us, the people of glorious San d'Oria."
  5: 0x0070 [0x23] WAIT_FOR_DIALOG_INTERACTION
  6: 0x0071 [0x29] REQ_SET_WAIT(priority=0x08, entity_id=Erpolant (ID: 17764392/0x010F1028), tag_num=0x02)
  7: 0x0078 [0x20] SET_CLI_EVENT_UC_FLAG: Unlock player control
  8: 0x007A [0x21] END_EVENT
  9: 0x007B [0x00] END_REQSTACK()
```

### Event 460

#### Metadata

| Field        | Value    |
|--------------|----------|
| Entrypoint   | 0x007C   |
| Data Size    | 33 bytes |
| Instructions | 12       |

```
      00 01 02 03 04 05 06 07  08 09 0A 0B 0C 0D 0E 0F
      -- -- -- -- -- -- -- --  -- -- -- -- -- -- -- --
0070:                                      1E F0 FF FF              ....
0080: 7F 6F 70 29 08 28 10 0F  01 01 1D 05 80 23 1D 06  .op).(.......#..
0090: 80 23 29 08 28 10 0F 01  02 20 00 21 00           .#).(.... .!.   
```

#### Opcodes

```
  0: 0x007C [0x1E] EventEntity looks at LocalPlayer and starts talking
  1: 0x0081 [0x6F] WAIT_FRAME_DELAY: Yield until WaitTime reaches zero
  2: 0x0082 [0x70] WAIT_ENTITY_RENDER_FLAG: Wait while EventEntity->Render.Flags3 bit 2 is set (cancel turn if not)
  3: 0x0083 [0x29] REQ_SET_WAIT(priority=0x08, entity_id=Erpolant (ID: 17764392/0x010F1028), tag_num=0x01)
  4: 0x008A [0x1D] PRINT_EVENT_MESSAGE(message_id=8611*)
    → "Now that you have completed that little mission of amity, you are just an ordinary San d'Orian citizen again. So that frees you to go to Giddeus and really give those beastmen what they deserve."
  5: 0x008D [0x23] WAIT_FOR_DIALOG_INTERACTION
  6: 0x008E [0x1D] PRINT_EVENT_MESSAGE(message_id=8612*)
    → "However, we shan't take responsibility if you get seriously hurt in the process."
  7: 0x0091 [0x23] WAIT_FOR_DIALOG_INTERACTION
  8: 0x0092 [0x29] REQ_SET_WAIT(priority=0x08, entity_id=Erpolant (ID: 17764392/0x010F1028), tag_num=0x02)
  9: 0x0099 [0x20] SET_CLI_EVENT_UC_FLAG: Unlock player control
 10: 0x009B [0x21] END_EVENT
 11: 0x009C [0x00] END_REQSTACK()
```

### Event 462

#### Metadata

| Field        | Value   |
|--------------|---------|
| Entrypoint   | 0x009D  |
| Data Size    | 1 bytes |
| Instructions | 1       |

```
      00 01 02 03 04 05 06 07  08 09 0A 0B 0C 0D 0E 0F
      -- -- -- -- -- -- -- --  -- -- -- -- -- -- -- --
0090:                                         00                     .  
```

#### Opcodes

```
  0: 0x009D [0x00] END_REQSTACK()
```

### Event 466

#### Metadata

| Field        | Value    |
|--------------|----------|
| Entrypoint   | 0x009E   |
| Data Size    | 33 bytes |
| Instructions | 12       |

```
      00 01 02 03 04 05 06 07  08 09 0A 0B 0C 0D 0E 0F
      -- -- -- -- -- -- -- --  -- -- -- -- -- -- -- --
0090:                                            1E F0                ..
00A0: FF FF 7F 6F 70 29 08 28  10 0F 01 01 1D 07 80 23  ...op).(.......#
00B0: 1D 08 80 23 29 08 28 10  0F 01 02 20 00 21 00     ...#).(.... .!. 
```

#### Opcodes

```
  0: 0x009E [0x1E] EventEntity looks at LocalPlayer and starts talking
  1: 0x00A3 [0x6F] WAIT_FRAME_DELAY: Yield until WaitTime reaches zero
  2: 0x00A4 [0x70] WAIT_ENTITY_RENDER_FLAG: Wait while EventEntity->Render.Flags3 bit 2 is set (cancel turn if not)
  3: 0x00A5 [0x29] REQ_SET_WAIT(priority=0x08, entity_id=Erpolant (ID: 17764392/0x010F1028), tag_num=0x01)
  4: 0x00AC [0x1D] PRINT_EVENT_MESSAGE(message_id=8631*)
    → "Becoming a soldier is a completely different way of life than being a mere fighter."
  5: 0x00AF [0x23] WAIT_FOR_DIALOG_INTERACTION
  6: 0x00B0 [0x1D] PRINT_EVENT_MESSAGE(message_id=8632*)
    → "You are caught between intricate orders and chivalry, and sometimes you have to go against your personal convictions..."
  7: 0x00B3 [0x23] WAIT_FOR_DIALOG_INTERACTION
  8: 0x00B4 [0x29] REQ_SET_WAIT(priority=0x08, entity_id=Erpolant (ID: 17764392/0x010F1028), tag_num=0x02)
  9: 0x00BB [0x20] SET_CLI_EVENT_UC_FLAG: Unlock player control
 10: 0x00BD [0x21] END_EVENT
 11: 0x00BE [0x00] END_REQSTACK()
```

### Event 469

#### Metadata

| Field        | Value    |
|--------------|----------|
| Entrypoint   | 0x00BF   |
| Data Size    | 29 bytes |
| Instructions | 10       |

```
      00 01 02 03 04 05 06 07  08 09 0A 0B 0C 0D 0E 0F
      -- -- -- -- -- -- -- --  -- -- -- -- -- -- -- --
00B0:                                               1E                 .
00C0: F0 FF FF 7F 6F 70 29 08  28 10 0F 01 01 1D 09 80  ....op).(.......
00D0: 23 29 08 28 10 0F 01 02  20 00 21 00              #).(.... .!.    
```

#### Opcodes

```
  0: 0x00BF [0x1E] EventEntity looks at LocalPlayer and starts talking
  1: 0x00C4 [0x6F] WAIT_FRAME_DELAY: Yield until WaitTime reaches zero
  2: 0x00C5 [0x70] WAIT_ENTITY_RENDER_FLAG: Wait while EventEntity->Render.Flags3 bit 2 is set (cancel turn if not)
  3: 0x00C6 [0x29] REQ_SET_WAIT(priority=0x08, entity_id=Erpolant (ID: 17764392/0x010F1028), tag_num=0x01)
  4: 0x00CD [0x1D] PRINT_EVENT_MESSAGE(message_id=8638*)
    → "Consul Mourices's face has blanched. Did you say something to upset him? Did you not complete your mission correctly?"
  5: 0x00D0 [0x23] WAIT_FOR_DIALOG_INTERACTION
  6: 0x00D1 [0x29] REQ_SET_WAIT(priority=0x08, entity_id=Erpolant (ID: 17764392/0x010F1028), tag_num=0x02)
  7: 0x00D8 [0x20] SET_CLI_EVENT_UC_FLAG: Unlock player control
  8: 0x00DA [0x21] END_EVENT
  9: 0x00DB [0x00] END_REQSTACK()
```
