# 17764615

## Common Data

| Field            | Value                    |
|------------------|--------------------------|
| Zone             | Windurst Woods (ID: 241) |
| Block Size       | 8612 bytes               |
| Total Events     | 2                        |
| References Count | 296                      |

## List of Events

| Event ID              | Entrypoint   |   Size |   Instructions |
|-----------------------|--------------|--------|----------------|
| [65535](#event-65535) | 0x0000       |    658 |             62 |
| [876](#event-876)     | 0x0292       |   6744 |           1224 |

## DAT References (imed_data)

|   Index | Hex Value   |   Dec Value |
|---------|-------------|-------------|
|       0 | 0x00C8      |         200 |
|       1 | 0x0000      |           0 |
|       2 | 0x00C9      |         201 |
|       3 | 0x0001      |           1 |
|       4 | 0x002D      |          45 |
|       5 | 0x0002      |           2 |
|       6 | 0x001E      |          30 |
|       7 | 0x00D7      |         215 |
|       8 | 0x001B      |          27 |
|       9 | 0x00A3      |         163 |
|      10 | 0x182D3     |       99027 |
|      11 | 0xFFFF96A2  |  4294940322 |
|      12 | 0xFFFFEC78  |  4294962296 |
|      13 | 0x0D8E      |        3470 |
|      14 | 0x185AE     |       99758 |
|      15 | 0xFFFF9B96  |  4294941590 |
|      16 | 0x0902      |        2306 |
|      17 | 0x000F      |          15 |
|      18 | 0x02C1      |         705 |
|      19 | 0x000D      |          13 |
|      20 | 0x0046      |          70 |
|      21 | 0x005A      |          90 |
|      22 | 0x0014      |          20 |
|      23 | 0x0007      |           7 |
|      24 | 0x38CA      |       14538 |
|      25 | 0x38CB      |       14539 |
|      26 | 0x0078      |         120 |
|      27 | 0x38A8      |       14504 |
|      28 | 0x003C      |          60 |
|      29 | 0x38A9      |       14505 |
|      30 | 0x38AA      |       14506 |
|      31 | 0x38AB      |       14507 |
|      32 | 0x38AC      |       14508 |
|      33 | 0x38AD      |       14509 |
|      34 | 0x0005      |           5 |
|      35 | 0x0006      |           6 |
|      36 | 0x38AE      |       14510 |
|      37 | 0x38AF      |       14511 |
|      38 | 0x38B0      |       14512 |
|      39 | 0x38B1      |       14513 |
|      40 | 0x38B2      |       14514 |
|      41 | 0x0064      |         100 |
|      42 | 0x38B3      |       14515 |
|      43 | 0x38B4      |       14516 |
|      44 | 0x38B5      |       14517 |
|      45 | 0x38B6      |       14518 |
|      46 | 0x38B7      |       14519 |
|      47 | 0x0ECF      |        3791 |
|      48 | 0x38B8      |       14520 |
|      49 | 0x38B9      |       14521 |
|      50 | 0x007F      |         127 |
|      51 | 0x00F0      |         240 |
|      52 | 0x38BA      |       14522 |
|      53 | 0x38BB      |       14523 |
|      54 | 0x38BC      |       14524 |
|      55 | 0x38BD      |       14525 |
|      56 | 0x0050      |          80 |
|      57 | 0x38BE      |       14526 |
|      58 | 0x00B4      |         180 |
|      59 | 0x0032      |          50 |
|      60 | 0x38BF      |       14527 |
|      61 | 0x0028      |          40 |
|      62 | 0x38C0      |       14528 |
|      63 | 0x38C1      |       14529 |
|      64 | 0x38C2      |       14530 |
|      65 | 0x38C3      |       14531 |
|      66 | 0x38C4      |       14532 |
|      67 | 0x38C5      |       14533 |
|      68 | 0x3850      |       14416 |
|      69 | 0x0023      |          35 |
|      70 | 0x38C6      |       14534 |
|      71 | 0x38C7      |       14535 |
|      72 | 0x38C8      |       14536 |
|      73 | 0x38C9      |       14537 |
|      74 | 0x0063      |          99 |
|      75 | 0x38CC      |       14540 |
|      76 | 0x3851      |       14417 |
|      77 | 0x3852      |       14418 |
|      78 | 0x38CD      |       14541 |
|      79 | 0x38CE      |       14542 |
|      80 | 0x0190      |         400 |
|      81 | 0x3915      |       14613 |
|      82 | 0x009C      |         156 |
|      83 | 0x379E      |       14238 |
|      84 | 0x379F      |       14239 |
|      85 | 0x37A0      |       14240 |
|      86 | 0x37A1      |       14241 |
|      87 | 0x0003      |           3 |
|      88 | 0x37A2      |       14242 |
|      89 | 0x37A3      |       14243 |
|      90 | 0x37A4      |       14244 |
|      91 | 0x37A5      |       14245 |
|      92 | 0x37A6      |       14246 |
|      93 | 0x37A7      |       14247 |
|      94 | 0x009A      |         154 |
|      95 | 0x37A8      |       14248 |
|      96 | 0x37A9      |       14249 |
|      97 | 0x37AA      |       14250 |
|      98 | 0x37AB      |       14251 |
|      99 | 0x37AC      |       14252 |
|     100 | 0x37AD      |       14253 |
|     101 | 0x37AE      |       14254 |
|     102 | 0x37AF      |       14255 |
|     103 | 0x37B0      |       14256 |
|     104 | 0x37B1      |       14257 |
|     105 | 0x0004      |           4 |
|     106 | 0x37B2      |       14258 |
|     107 | 0x37B3      |       14259 |
|     108 | 0x37B4      |       14260 |
|     109 | 0x37B5      |       14261 |
|     110 | 0x37B6      |       14262 |
|     111 | 0x37B8      |       14264 |
|     112 | 0x37B9      |       14265 |
|     113 | 0x37BA      |       14266 |
|     114 | 0x37BB      |       14267 |
|     115 | 0x37BC      |       14268 |
|     116 | 0x37B7      |       14263 |
|     117 | 0x00A2      |         162 |
|     118 | 0x37BD      |       14269 |
|     119 | 0x37BE      |       14270 |
|     120 | 0x37BF      |       14271 |
|     121 | 0x37C0      |       14272 |
|     122 | 0x37C1      |       14273 |
|     123 | 0x37C2      |       14274 |
|     124 | 0x37C3      |       14275 |
|     125 | 0x37C4      |       14276 |
|     126 | 0x37C5      |       14277 |
|     127 | 0x37C6      |       14278 |
|     128 | 0x37C7      |       14279 |
|     129 | 0x37C8      |       14280 |
|     130 | 0x37C9      |       14281 |
|     131 | 0x0075      |         117 |
|     132 | 0x37CA      |       14282 |
|     133 | 0x37CB      |       14283 |
|     134 | 0x37CC      |       14284 |
|     135 | 0x37CD      |       14285 |
|     136 | 0x37CE      |       14286 |
|     137 | 0x37CF      |       14287 |
|     138 | 0x37D0      |       14288 |
|     139 | 0x37D1      |       14289 |
|     140 | 0x37D2      |       14290 |
|     141 | 0x37D3      |       14291 |
|     142 | 0x37D4      |       14292 |
|     143 | 0x37D5      |       14293 |
|     144 | 0x37D6      |       14294 |
|     145 | 0x37D7      |       14295 |
|     146 | 0x37D8      |       14296 |
|     147 | 0x37D9      |       14297 |
|     148 | 0x37DA      |       14298 |
|     149 | 0x37DB      |       14299 |
|     150 | 0x37DC      |       14300 |
|     151 | 0x37DD      |       14301 |
|     152 | 0x37DE      |       14302 |
|     153 | 0x37DF      |       14303 |
|     154 | 0x006E      |         110 |
|     155 | 0x37E0      |       14304 |
|     156 | 0x37E1      |       14305 |
|     157 | 0x37E2      |       14306 |
|     158 | 0x37E3      |       14307 |
|     159 | 0x37E5      |       14309 |
|     160 | 0x37E4      |       14308 |
|     161 | 0x37E6      |       14310 |
|     162 | 0x37E7      |       14311 |
|     163 | 0x0087      |         135 |
|     164 | 0x37E8      |       14312 |
|     165 | 0x37E9      |       14313 |
|     166 | 0x37EA      |       14314 |
|     167 | 0x0473      |        1139 |
|     168 | 0x37EB      |       14315 |
|     169 | 0x37EC      |       14316 |
|     170 | 0x37ED      |       14317 |
|     171 | 0x37EE      |       14318 |
|     172 | 0x37EF      |       14319 |
|     173 | 0x37F0      |       14320 |
|     174 | 0x37F1      |       14321 |
|     175 | 0x0008      |           8 |
|     176 | 0x00B2      |         178 |
|     177 | 0x37F2      |       14322 |
|     178 | 0x37F3      |       14323 |
|     179 | 0x37F4      |       14324 |
|     180 | 0x37F5      |       14325 |
|     181 | 0x37F6      |       14326 |
|     182 | 0x37F7      |       14327 |
|     183 | 0x37F8      |       14328 |
|     184 | 0x37F9      |       14329 |
|     185 | 0x37FA      |       14330 |
|     186 | 0x37FB      |       14331 |
|     187 | 0x37FC      |       14332 |
|     188 | 0x37FD      |       14333 |
|     189 | 0x37FE      |       14334 |
|     190 | 0x17A84     |       96900 |
|     191 | 0xFFFF9CDC  |  4294941916 |
|     192 | 0xFFFFEB92  |  4294962066 |
|     193 | 0x013F      |         319 |
|     194 | 0x0054      |          84 |
|     195 | 0x0015      |          21 |
|     196 | 0x012C      |         300 |
|     197 | 0x0258      |         600 |
|     198 | 0x37FF      |       14335 |
|     199 | 0x3800      |       14336 |
|     200 | 0x3801      |       14337 |
|     201 | 0x3802      |       14338 |
|     202 | 0x3803      |       14339 |
|     203 | 0x3804      |       14340 |
|     204 | 0x3805      |       14341 |
|     205 | 0x3806      |       14342 |
|     206 | 0x3807      |       14343 |
|     207 | 0x3808      |       14344 |
|     208 | 0x3809      |       14345 |
|     209 | 0x380A      |       14346 |
|     210 | 0x380B      |       14347 |
|     211 | 0x0009      |           9 |
|     212 | 0x380C      |       14348 |
|     213 | 0x380D      |       14349 |
|     214 | 0x380E      |       14350 |
|     215 | 0x380F      |       14351 |
|     216 | 0x3810      |       14352 |
|     217 | 0x3811      |       14353 |
|     218 | 0x3812      |       14354 |
|     219 | 0x000B      |          11 |
|     220 | 0x003F      |          63 |
|     221 | 0x3813      |       14355 |
|     222 | 0x3814      |       14356 |
|     223 | 0x3815      |       14357 |
|     224 | 0x3816      |       14358 |
|     225 | 0x3817      |       14359 |
|     226 | 0x3818      |       14360 |
|     227 | 0x3819      |       14361 |
|     228 | 0x381A      |       14362 |
|     229 | 0x381B      |       14363 |
|     230 | 0x000A      |          10 |
|     231 | 0x381C      |       14364 |
|     232 | 0x381D      |       14365 |
|     233 | 0x381E      |       14366 |
|     234 | 0x3820      |       14368 |
|     235 | 0x381F      |       14367 |
|     236 | 0x3821      |       14369 |
|     237 | 0x3822      |       14370 |
|     238 | 0x3823      |       14371 |
|     239 | 0x3824      |       14372 |
|     240 | 0x3825      |       14373 |
|     241 | 0x3826      |       14374 |
|     242 | 0x3827      |       14375 |
|     243 | 0x3828      |       14376 |
|     244 | 0x3829      |       14377 |
|     245 | 0x382A      |       14378 |
|     246 | 0x382B      |       14379 |
|     247 | 0x382C      |       14380 |
|     248 | 0x382D      |       14381 |
|     249 | 0x382E      |       14382 |
|     250 | 0x382F      |       14383 |
|     251 | 0x3830      |       14384 |
|     252 | 0x3831      |       14385 |
|     253 | 0x3832      |       14386 |
|     254 | 0x0044      |          68 |
|     255 | 0x3833      |       14387 |
|     256 | 0x3834      |       14388 |
|     257 | 0x3835      |       14389 |
|     258 | 0x3836      |       14390 |
|     259 | 0x3837      |       14391 |
|     260 | 0x3838      |       14392 |
|     261 | 0x3839      |       14393 |
|     262 | 0x383A      |       14394 |
|     263 | 0x383B      |       14395 |
|     264 | 0x383C      |       14396 |
|     265 | 0x383D      |       14397 |
|     266 | 0x383E      |       14398 |
|     267 | 0x383F      |       14399 |
|     268 | 0x3840      |       14400 |
|     269 | 0x3841      |       14401 |
|     270 | 0x3842      |       14402 |
|     271 | 0x3843      |       14403 |
|     272 | 0x3844      |       14404 |
|     273 | 0x3845      |       14405 |
|     274 | 0x3846      |       14406 |
|     275 | 0x3847      |       14407 |
|     276 | 0x3848      |       14408 |
|     277 | 0x3849      |       14409 |
|     278 | 0x384A      |       14410 |
|     279 | 0x384B      |       14411 |
|     280 | 0x384C      |       14412 |
|     281 | 0x384D      |       14413 |
|     282 | 0x384E      |       14414 |
|     283 | 0x0097      |         151 |
|     284 | 0x38CF      |       14543 |
|     285 | 0x0A47      |        2631 |
|     286 | 0x38D0      |       14544 |
|     287 | 0x38D1      |       14545 |
|     288 | 0x38D2      |       14546 |
|     289 | 0x38D3      |       14547 |
|     290 | 0x38D4      |       14548 |
|     291 | 0x38D5      |       14549 |
|     292 | 0x38D6      |       14550 |
|     293 | 0x38D7      |       14551 |
|     294 | 0x38D8      |       14552 |
|     295 | 0x38D9      |       14553 |

## String References

- **14262**: How do you respond? [That's right./Nope./Y-yessir!]
- **14291**: How do you respond? [You can always quit, you know./Must have been tough for you./That's quite the wife you've got.]
- **14300**: How do you respond? [Rose on the heath./Tavnazia./@]
- **14336**: How do you respond? [Loud and clear./Where's Abquhbah?/Just what did you do?]
- **14351**: How do you react? [Flaviria?/Arciela?/Who?]
- **14416**: Join which Unity? [I need time to consider./Pieuje./Ayame./Invincible Shield./Apururu./Maat./Aldo./Jakoh Wahcondalo./Naja Salaheem./Flaviria./Yoran-Oran./Sylvie.]
- **14417**: Should you join one Unity, you will not be able to switch to another one until the rankings are tallied. Proceed anyway?
- **14418**: Join [Pieuje's/Ayame's/Invincible Shield's/Apururu's/Maat's/Aldo's/Jakoh Wahcondalo's/Naja Salaheem's/Flaviria's/Yoran-Oran's/Sylvie's] Unity? [Yes./No.]
- **14512**: How do you respond? [Sure, I'll try it./You guys are creepy.]
- **14520**: Teldro-Kesdrodo stares Yonolala down.
- **14521**: Yonolala begins to squirm.
- **14525**: You focus your thoughts on the strange doll.
- **14526**: Yonolala swiftly and secretly inscribes your name on the doll's backside.
- **14613**: @@

## Events

### Event 65535

#### Metadata

| Field        | Value     |
|--------------|-----------|
| Entrypoint   | 0x0000    |
| Data Size    | 658 bytes |
| Instructions | 1         |

```
      00 01 02 03 04 05 06 07  08 09 0A 0B 0C 0D 0E 0F
      -- -- -- -- -- -- -- --  -- -- -- -- -- -- -- --
0000: 00 45 00 80 F0 FF FF 7F  F0 FF FF 7F 66 64 69 30  .E..........fdi0
0010: 01 80 55 00 80 F0 FF FF  7F F0 FF FF 7F 66 64 69  ..U..........fdi
0020: 30 1B 45 00 80 F0 FF FF  7F F0 FF FF 7F 66 64 6F  0.E..........fdo
0030: 30 01 80 55 00 80 F0 FF  FF 7F F0 FF FF 7F 66 64  0..U..........fd
0040: 6F 30 1B 45 00 80 F0 FF  FF 7F F0 FF FF 7F 66 64  o0.E..........fd
0050: 69 31 01 80 55 00 80 F0  FF FF 7F F0 FF FF 7F 66  i1..U..........f
0060: 64 69 31 1B 45 00 80 F0  FF FF 7F F0 FF FF 7F 66  di1.E..........f
0070: 64 6F 31 01 80 55 00 80  F0 FF FF 7F F0 FF FF 7F  do1..U..........
0080: 66 64 6F 31 1B 45 02 80  F0 FF FF 7F F0 FF FF 7F  fdo1.E..........
0090: 77 68 69 31 01 80 55 02  80 F0 FF FF 7F F0 FF FF  whi1..U.........
00A0: 7F 77 68 69 31 1B 45 02  80 F0 FF FF 7F F0 FF FF  .whi1.E.........
00B0: 7F 77 68 6F 31 01 80 55  02 80 F0 FF FF 7F F0 FF  .who1..U........
00C0: FF 7F 77 68 6F 31 1B 45  02 80 F0 FF FF 7F F0 FF  ..who1.E........
00D0: FF 7F 77 68 6F 32 01 80  55 02 80 F0 FF FF 7F F0  ..who2..U.......
00E0: FF FF 7F 77 68 6F 32 1B  45 02 80 F0 FF FF 7F F0  ...who2.E.......
00F0: FF FF 7F 77 68 6F 33 01  80 55 02 80 F0 FF FF 7F  ...who3..U......
0100: F0 FF FF 7F 77 68 6F 33  1B 62 03 80 F0 FF FF 7F  ....who3.b......
0110: F0 FF FF 7F 6D 61 69 6E  01 80 1C 04 80 45 00 80  ....main.....E..
0120: F0 FF FF 7F F0 FF FF 7F  66 64 6F 31 01 80 55 00  ........fdo1..U.
0130: 80 F0 FF FF 7F F0 FF FF  7F 66 64 6F 31 1B 45 00  .........fdo1.E.
0140: 80 F0 FF FF 7F F0 FF FF  7F 66 64 69 31 01 80 62  .........fdi1..b
0150: 05 80 F0 FF FF 7F F0 FF  FF 7F 6D 61 69 6E 01 80  ..........main..
0160: 1C 06 80 55 00 80 F0 FF  FF 7F F0 FF FF 7F 66 64  ...U..........fd
0170: 69 31 1B 45 00 80 F0 FF  FF 7F F0 FF FF 7F 62 6C  i1.E..........bl
0180: 6F 6E 01 80 45 02 80 F0  FF FF 7F F0 FF FF 7F 62  on..E..........b
0190: 6C 6F 6E 01 80 1B 45 02  80 F0 FF FF 7F F0 FF FF  lon...E.........
01A0: 7F 77 68 69 30 01 80 55  02 80 F0 FF FF 7F F0 FF  .whi0..U........
01B0: FF 7F 77 68 69 30 1B 45  02 80 F0 FF FF 7F F0 FF  ..whi0.E........
01C0: FF 7F 77 68 6F 30 01 80  55 02 80 F0 FF FF 7F F0  ..who0..U.......
01D0: FF FF 7F 77 68 6F 30 1B  45 07 80 F0 FF FF 7F F0  ...who0.E.......
01E0: FF FF 7F 65 66 6F 6E 01  80 55 07 80 F0 FF FF 7F  ...efon..U......
01F0: F0 FF FF 7F 65 66 6F 6E  1B 45 00 80 F0 FF FF 7F  ....efon.E......
0200: F0 FF FF 7F 66 64 69 73  01 80 1B 45 00 80 F0 FF  ....fdis...E....
0210: FF 7F F0 FF FF 7F 66 64  6F 73 01 80 55 00 80 F0  ......fdos..U...
0220: FF FF 7F F0 FF FF 7F 66  64 6F 73 1B 45 00 80 F0  .......fdos.E...
0230: FF FF 7F F0 FF FF 7F 66  64 69 66 01 80 1B 45 00  .......fdif...E.
0240: 80 F0 FF FF 7F F0 FF FF  7F 66 64 6F 66 01 80 55  .........fdof..U
0250: 00 80 F0 FF FF 7F F0 FF  FF 7F 66 64 6F 66 1B 45  ..........fdof.E
0260: 00 80 F0 FF FF 7F F0 FF  FF 7F 66 64 69 70 01 80  ..........fdip..
0270: 1B 45 00 80 F0 FF FF 7F  F0 FF FF 7F 66 64 6F 70  .E..........fdop
0280: 01 80 55 00 80 F0 FF FF  7F F0 FF FF 7F 66 64 6F  ..U..........fdo
0290: 70 1B                                             p.              
```

#### Opcodes

```
  0: 0x0000 [0x00] END_REQSTACK()
```

#### Data or dead code:

```
# Dead code (unreachable instructions):
     0x0001 [0x45] LOAD_SCHEDULED_TASK: Load scheduler "fdi0" with entities [LocalPlayer, LocalPlayer], work=[200*, 0*]
     0x0012 [0x55] WAIT_LOAD_SCHEDULER: Wait for scheduler "fdi0" with entities [LocalPlayer, LocalPlayer], work=200*
     0x0021 [0x1B] RETURN
     0x0022 [0x45] LOAD_SCHEDULED_TASK: Load scheduler "fdo0" with entities [LocalPlayer, LocalPlayer], work=[200*, 0*]
     0x0033 [0x55] WAIT_LOAD_SCHEDULER: Wait for scheduler "fdo0" with entities [LocalPlayer, LocalPlayer], work=200*
     0x0042 [0x1B] RETURN
     0x0043 [0x45] LOAD_SCHEDULED_TASK: Load scheduler "fdi1" with entities [LocalPlayer, LocalPlayer], work=[200*, 0*]
     0x0054 [0x55] WAIT_LOAD_SCHEDULER: Wait for scheduler "fdi1" with entities [LocalPlayer, LocalPlayer], work=200*
     0x0063 [0x1B] RETURN
     0x0064 [0x45] LOAD_SCHEDULED_TASK: Load scheduler "fdo1" with entities [LocalPlayer, LocalPlayer], work=[200*, 0*]
     0x0075 [0x55] WAIT_LOAD_SCHEDULER: Wait for scheduler "fdo1" with entities [LocalPlayer, LocalPlayer], work=200*
     0x0084 [0x1B] RETURN
     0x0085 [0x45] LOAD_SCHEDULED_TASK: Load scheduler "whi1" with entities [LocalPlayer, LocalPlayer], work=[201*, 0*]
     0x0096 [0x55] WAIT_LOAD_SCHEDULER: Wait for scheduler "whi1" with entities [LocalPlayer, LocalPlayer], work=201*
     0x00A5 [0x1B] RETURN
     0x00A6 [0x45] LOAD_SCHEDULED_TASK: Load scheduler "who1" with entities [LocalPlayer, LocalPlayer], work=[201*, 0*]
     0x00B7 [0x55] WAIT_LOAD_SCHEDULER: Wait for scheduler "who1" with entities [LocalPlayer, LocalPlayer], work=201*
     0x00C6 [0x1B] RETURN
     0x00C7 [0x45] LOAD_SCHEDULED_TASK: Load scheduler "who2" with entities [LocalPlayer, LocalPlayer], work=[201*, 0*]
     0x00D8 [0x55] WAIT_LOAD_SCHEDULER: Wait for scheduler "who2" with entities [LocalPlayer, LocalPlayer], work=201*
     0x00E7 [0x1B] RETURN
     0x00E8 [0x45] LOAD_SCHEDULED_TASK: Load scheduler "who3" with entities [LocalPlayer, LocalPlayer], work=[201*, 0*]
     0x00F9 [0x55] WAIT_LOAD_SCHEDULER: Wait for scheduler "who3" with entities [LocalPlayer, LocalPlayer], work=201*
     0x0108 [0x1B] RETURN
     0x0109 [0x62] LOAD_EVENT_SCHEDULER: Load scheduler "main" with entities [LocalPlayer, LocalPlayer], work=[1*, 0*]
     0x011A [0x1C] WAIT(45* ticks)
     0x011D [0x45] LOAD_SCHEDULED_TASK: Load scheduler "fdo1" with entities [LocalPlayer, LocalPlayer], work=[200*, 0*]
     0x012E [0x55] WAIT_LOAD_SCHEDULER: Wait for scheduler "fdo1" with entities [LocalPlayer, LocalPlayer], work=200*
     0x013D [0x1B] RETURN
     0x013E [0x45] LOAD_SCHEDULED_TASK: Load scheduler "fdi1" with entities [LocalPlayer, LocalPlayer], work=[200*, 0*]
     0x014F [0x62] LOAD_EVENT_SCHEDULER: Load scheduler "main" with entities [LocalPlayer, LocalPlayer], work=[2*, 0*]
     0x0160 [0x1C] WAIT(30* ticks)
     0x0163 [0x55] WAIT_LOAD_SCHEDULER: Wait for scheduler "fdi1" with entities [LocalPlayer, LocalPlayer], work=200*
     0x0172 [0x1B] RETURN
     0x0173 [0x45] LOAD_SCHEDULED_TASK: Load scheduler "blon" with entities [LocalPlayer, LocalPlayer], work=[200*, 0*]
     0x0184 [0x45] LOAD_SCHEDULED_TASK: Load scheduler "blon" with entities [LocalPlayer, LocalPlayer], work=[201*, 0*]
     0x0195 [0x1B] RETURN
     0x0196 [0x45] LOAD_SCHEDULED_TASK: Load scheduler "whi0" with entities [LocalPlayer, LocalPlayer], work=[201*, 0*]
     0x01A7 [0x55] WAIT_LOAD_SCHEDULER: Wait for scheduler "whi0" with entities [LocalPlayer, LocalPlayer], work=201*
     0x01B6 [0x1B] RETURN
     0x01B7 [0x45] LOAD_SCHEDULED_TASK: Load scheduler "who0" with entities [LocalPlayer, LocalPlayer], work=[201*, 0*]
     0x01C8 [0x55] WAIT_LOAD_SCHEDULER: Wait for scheduler "who0" with entities [LocalPlayer, LocalPlayer], work=201*
     0x01D7 [0x1B] RETURN
     0x01D8 [0x45] LOAD_SCHEDULED_TASK: Load scheduler "efon" with entities [LocalPlayer, LocalPlayer], work=[215*, 0*]
     0x01E9 [0x55] WAIT_LOAD_SCHEDULER: Wait for scheduler "efon" with entities [LocalPlayer, LocalPlayer], work=215*
     0x01F8 [0x1B] RETURN
     0x01F9 [0x45] LOAD_SCHEDULED_TASK: Load scheduler "fdis" with entities [LocalPlayer, LocalPlayer], work=[200*, 0*]
     0x020A [0x1B] RETURN
     0x020B [0x45] LOAD_SCHEDULED_TASK: Load scheduler "fdos" with entities [LocalPlayer, LocalPlayer], work=[200*, 0*]
     0x021C [0x55] WAIT_LOAD_SCHEDULER: Wait for scheduler "fdos" with entities [LocalPlayer, LocalPlayer], work=200*
     0x022B [0x1B] RETURN
     0x022C [0x45] LOAD_SCHEDULED_TASK: Load scheduler "fdif" with entities [LocalPlayer, LocalPlayer], work=[200*, 0*]
     0x023D [0x1B] RETURN
     0x023E [0x45] LOAD_SCHEDULED_TASK: Load scheduler "fdof" with entities [LocalPlayer, LocalPlayer], work=[200*, 0*]
     0x024F [0x55] WAIT_LOAD_SCHEDULER: Wait for scheduler "fdof" with entities [LocalPlayer, LocalPlayer], work=200*
     0x025E [0x1B] RETURN
     0x025F [0x45] LOAD_SCHEDULED_TASK: Load scheduler "fdip" with entities [LocalPlayer, LocalPlayer], work=[200*, 0*]
     0x0270 [0x1B] RETURN
     0x0271 [0x45] LOAD_SCHEDULED_TASK: Load scheduler "fdop" with entities [LocalPlayer, LocalPlayer], work=[200*, 0*]
     0x0282 [0x55] WAIT_LOAD_SCHEDULER: Wait for scheduler "fdop" with entities [LocalPlayer, LocalPlayer], work=200*
     0x0291 [0x1B] RETURN
```

### Event 876

#### Metadata

| Field        | Value      |
|--------------|------------|
| Entrypoint   | 0x0292     |
| Data Size    | 6744 bytes |
| Instructions | 1212       |

```
      00 01 02 03 04 05 06 07  08 09 0A 0B 0C 0D 0E 0F
      -- -- -- -- -- -- -- --  -- -- -- -- -- -- -- --
0290:       42 03 05 00 09 10  1A 64 00 46 01 38 08 80    B......d.F.8..
02A0: 5C 00 09 80 5C 01 09 80  9A 4E 00 02 11 0F 01 2F  \...\....N...../
02B0: 00 02 11 0F 01 92 01 00  11 0F 01 92 01 01 11 0F  ................
02C0: 01 92 01 02 11 0F 01 92  01 03 11 0F 01 92 01 FB  ................
02D0: 10 0F 01 92 01 F8 10 0F  01 92 01 E4 10 0F 01 92  ................
02E0: 01 08 11 0F 01 92 01 99  10 0F 01 92 01 10 10 0F  ................
02F0: 01 92 01 11 10 0F 01 92  01 12 10 0F 01 92 01 13  ................
0300: 10 0F 01 92 01 A4 10 0F  01 92 01 A5 10 0F 01 94  ................
0310: 01 00 11 0F 01 94 01 01  11 0F 01 94 01 02 11 0F  ................
0320: 01 94 01 03 11 0F 01 94  01 FB 10 0F 01 94 01 F8  ................
0330: 10 0F 01 94 01 E4 10 0F  01 94 01 08 11 0F 01 94  ................
0340: 01 99 10 0F 01 94 01 10  10 0F 01 94 01 11 10 0F  ................
0350: 01 94 01 12 10 0F 01 94  01 13 10 0F 01 94 01 A4  ................
0360: 10 0F 01 94 01 A5 10 0F  01 94 01 F0 FF FF 7F BA  ................
0370: 02 11 0F 01 0A 80 0B 80  0C 80 0D 80 BA F0 FF FF  ................
0380: 7F 0E 80 0F 80 0C 80 10  80 27 05 E4 10 0F 01 03  .........'......
0390: 27 05 08 11 0F 01 03 29  08 02 11 0F 01 05 4A F0  '......)......J.
03A0: FF FF 7F 00 11 0F 01 80  00 11 0F 01 80 01 11 0F  ................
03B0: 01 80 02 11 0F 01 80 03  11 0F 01 80 FB 10 0F 01  ................
03C0: 80 F8 10 0F 01 80 E4 10  0F 01 80 08 11 0F 01 80  ................
03D0: 99 10 0F 01 80 10 10 0F  01 80 11 10 0F 01 80 12  ................
03E0: 10 0F 01 80 13 10 0F 01  80 A4 10 0F 01 80 A5 10  ................
03F0: 0F 01 80 F0 FF FF 7F 02  02 10 03 80 00 F1 04 4A  ...............J
0400: 00 11 0F 01 02 11 0F 01  4A 01 11 0F 01 02 11 0F  ........J.......
0410: 01 6F 76 00 11 0F 01 6F  76 01 11 0F 01 1C 11 80  .ov....ov.......
0420: 45 12 80 F8 FF FF 7F F8  FF FF 7F 73 30 34 33 01  E..........s043.
0430: 80 1A 43 00 6E 01 11 0F  01 13 80 99 01 11 0F 01  ..C.n...........
0440: 1C 14 80 52 12 80 F8 FF  FF 7F F8 FF FF 7F 73 30  ...R..........s0
0450: 34 33 45 12 80 F8 FF FF  7F F8 FF FF 7F 73 30 34  43E..........s04
0460: 34 01 80 1C 15 80 29 08  02 11 0F 01 06 1C 14 80  4.....).........
0470: 4A 00 11 0F 01 F0 FF FF  7F 52 12 80 F8 FF FF 7F  J........R......
0480: F8 FF FF 7F 73 30 34 34  45 12 80 F8 FF FF 7F F8  ....s044E.......
0490: FF FF 7F 73 30 34 39 01  80 6F 76 00 11 0F 01 1C  ...s049..ov.....
04A0: 16 80 6E 00 11 0F 01 17  80 99 00 11 0F 01 2B 00  ..n...........+.
04B0: 11 0F 01 18 80 23 4A 01  11 0F 01 F0 FF FF 7F 6F  .....#J........o
04C0: 76 01 11 0F 01 1C 16 80  6E 01 11 0F 01 17 80 99  v.......n.......
04D0: 01 11 0F 01 2B 01 11 0F  01 19 80 23 52 12 80 F8  ....+......#R...
04E0: FF FF 7F F8 FF FF 7F 73  30 34 39 06 00 00 01 80  .......s049.....
04F0: 0B 1C 11 80 45 12 80 F8  FF FF 7F F8 FF FF 7F 73  ....E..........s
0500: 30 32 37 01 80 1A 43 00  1C 1A 80 52 12 80 F8 FF  027...C....R....
0510: FF 7F F8 FF FF 7F 73 30  32 37 45 12 80 F8 FF FF  ......s027E.....
0520: 7F F8 FF FF 7F 73 30 32  38 01 80 27 08 00 11 0F  .....s028..'....
0530: 01 0B 2B 00 11 0F 01 1B  80 1C 1C 80 23 52 12 80  ..+.........#R..
0540: F8 FF FF 7F F8 FF FF 7F  73 30 32 38 45 12 80 F8  ........s028E...
0550: FF FF 7F F8 FF FF 7F 73  30 32 39 01 80 27 08 01  .......s029..'..
0560: 11 0F 01 0B 2B 01 11 0F  01 1D 80 1C 1C 80 23 52  ....+.........#R
0570: 12 80 F8 FF FF 7F F8 FF  FF 7F 73 30 32 39 45 12  ..........s029E.
0580: 80 F8 FF FF 7F F8 FF FF  7F 73 30 33 30 01 80 2B  .........s030..+
0590: 00 11 0F 01 1E 80 23 2B  01 11 0F 01 1F 80 1C 14  ......#+........
05A0: 80 2A 08 00 11 0F 01 2A  08 01 11 0F 01 23 52 12  .*.....*.....#R.
05B0: 80 F8 FF FF 7F F8 FF FF  7F 73 30 33 30 45 12 80  .........s030E..
05C0: F8 FF FF 7F F8 FF FF 7F  73 30 33 31 01 80 27 08  ........s031..'.
05D0: 00 11 0F 01 0C 2B 00 11  0F 01 20 80 1C 14 80 2A  .....+.... ....*
05E0: 08 00 11 0F 01 23 52 12  80 F8 FF FF 7F F8 FF FF  .....#R.........
05F0: 7F 73 30 33 31 45 12 80  F8 FF FF 7F F8 FF FF 7F  .s031E..........
0600: 73 30 33 32 01 80 27 08  01 11 0F 01 0C 2B 01 11  s032..'......+..
0610: 0F 01 21 80 1C 14 80 2A  08 01 11 0F 01 23 4A 00  ..!....*.....#J.
0620: 11 0F 01 F0 FF FF 7F 4A  01 11 0F 01 F0 FF FF 7F  .......J........
0630: 52 12 80 F8 FF FF 7F F8  FF FF 7F 73 30 33 32 02  R..........s032.
0640: 87 7F 22 80 80 5B 06 45  12 80 F8 FF FF 7F F8 FF  .."..[.E........
0650: FF 7F 73 30 33 37 01 80  01 88 06 02 87 7F 23 80  ..s037........#.
0660: 80 77 06 45 12 80 F8 FF  FF 7F F8 FF FF 7F 73 30  .w.E..........s0
0670: 33 37 01 80 01 88 06 45  12 80 F8 FF FF 7F F8 FF  37.....E........
0680: FF 7F 73 30 33 33 01 80  6F 76 00 11 0F 01 6F 76  ..s033..ov....ov
0690: 01 11 0F 01 03 03 10 22  80 2B 00 11 0F 01 24 80  .......".+....$.
06A0: 23 2B 01 11 0F 01 25 80  1C 14 80 23 24 26 80 01  #+....%....#$&..
06B0: 80 01 80 25 02 00 10 03  80 00 5A 07 6E F0 FF FF  ...%......Z.n...
06C0: 7F 23 80 99 F0 FF FF 7F  1C 1C 80 52 12 80 F8 FF  .#.........R....
06D0: FF 7F F8 FF FF 7F 73 30  33 33 52 12 80 F8 FF FF  ......s033R.....
06E0: 7F F8 FF FF 7F 73 30 33  37 45 12 80 F8 FF FF 7F  .....s037E......
06F0: F8 FF FF 7F 73 30 33 34  01 80 7B 00 11 0F 01 27  ....s034..{....'
0700: 08 00 11 0F 01 10 2B 00  11 0F 01 27 80 23 7B 01  ......+....'.#{.
0710: 11 0F 01 27 08 01 11 0F  01 10 2B 01 11 0F 01 28  ...'......+....(
0720: 80 1C 14 80 23 52 12 80  F8 FF FF 7F F8 FF FF 7F  ....#R..........
0730: 73 30 33 34 45 12 80 F8  FF FF 7F F8 FF FF 7F 73  s034E..........s
0740: 30 33 35 01 80 27 08 F0  FF FF 7F 88 1C 29 80 03  035..'.......)..
0750: 01 10 01 80 01 61 1C 01  5A 07 6E F0 FF FF 7F 17  .....a..Z.n.....
0760: 80 99 F0 FF FF 7F 1C 1C  80 52 12 80 F8 FF FF 7F  .........R......
0770: F8 FF FF 7F 73 30 33 33  52 12 80 F8 FF FF 7F F8  ....s033R.......
0780: FF FF 7F 73 30 33 37 45  12 80 F8 FF FF 7F F8 FF  ...s037E........
0790: FF 7F 73 30 33 36 01 80  27 08 00 11 0F 01 07 2B  ..s036..'......+
07A0: 00 11 0F 01 2A 80 23 27  08 01 11 0F 01 07 2B 01  ....*.#'......+.
07B0: 11 0F 01 2B 80 23 2A 08  00 11 0F 01 2A 08 01 11  ...+.#*.....*...
07C0: 0F 01 52 12 80 F8 FF FF  7F F8 FF FF 7F 73 30 33  ..R..........s03
07D0: 36 45 12 80 F8 FF FF 7F  F8 FF FF 7F 73 30 33 38  6E..........s038
07E0: 01 80 27 08 00 11 0F 01  08 2B 00 11 0F 01 2C 80  ..'......+....,.
07F0: 23 7B 00 11 0F 01 27 08  01 11 0F 01 08 2B 00 11  #{....'......+..
0800: 0F 01 2D 80 1C 1C 80 2A  08 00 11 0F 01 2A 08 01  ..-....*.....*..
0810: 11 0F 01 23 52 12 80 F8  FF FF 7F F8 FF FF 7F 73  ...#R..........s
0820: 30 33 38 45 12 80 F8 FF  FF 7F F8 FF FF 7F 73 30  038E..........s0
0830: 33 39 01 80 7B 01 11 0F  01 2B 01 11 0F 01 2E 80  39..{....+......
0840: 1C 06 80 5C A0 01 80 03  80 5C A1 01 80 03 80 1C  ...\.....\......
0850: 06 80 23 4A 00 11 0F 01  01 11 0F 01 52 12 80 F8  ..#J........R...
0860: FF FF 7F F8 FF FF 7F 73  30 33 39 45 12 80 F8 FF  .......s039E....
0870: FF 7F F8 FF FF 7F 73 30  34 30 01 80 6F 76 00 11  ......s040..ov..
0880: 0F 01 1C 1C 80 4B 01 11  0F 01 2F 80 6F 76 01 11  .....K..../.ov..
0890: 0F 01 27 08 00 11 0F 01  09 1C 1C 80 48 30 80 1C  ..'.........H0..
08A0: 1A 80 27 08 01 11 0F 01  0F 48 31 80 1C 1A 80 2A  ..'......H1....*
08B0: 08 00 11 0F 01 27 08 00  11 0F 01 0A 1C 14 80 2A  .....'.........*
08C0: 08 00 11 0F 01 2A 08 01  11 0F 01 52 12 80 F8 FF  .....*.....R....
08D0: FF 7F F8 FF FF 7F 73 30  34 30 5C A0 32 80 1A 80  ......s040\.2...
08E0: 5C A1 32 80 33 80 45 12  80 F8 FF FF 7F F8 FF FF  \.2.3.E.........
08F0: 7F 73 30 34 31 01 80 27  08 00 11 0F 01 11 2B 00  .s041..'......+.
0900: 11 0F 01 34 80 1C 14 80  23 4A 01 11 0F 01 00 11  ...4....#J......
0910: 0F 01 52 12 80 F8 FF FF  7F F8 FF FF 7F 73 30 34  ..R..........s04
0920: 31 45 12 80 F8 FF FF 7F  F8 FF FF 7F 73 30 34 32  1E..........s042
0930: 01 80 6F 76 01 11 0F 01  2B 01 11 0F 01 35 80 1C  ..ov....+....5..
0940: 1C 80 2A 08 00 11 0F 01  23 4A 00 11 0F 01 02 11  ..*.....#J......
0950: 0F 01 52 12 80 F8 FF FF  7F F8 FF FF 7F 73 30 34  ..R..........s04
0960: 32 45 12 80 F8 FF FF 7F  F8 FF FF 7F 73 30 34 33  2E..........s043
0970: 01 80 6F 76 00 11 0F 01  1C 16 80 4A 01 11 0F 01  ..ov.......J....
0980: 02 11 0F 01 6F 76 01 11  0F 01 6E 01 11 0F 01 13  ....ov....n.....
0990: 80 99 01 11 0F 01 1C 14  80 52 12 80 F8 FF FF 7F  .........R......
09A0: F8 FF FF 7F 73 30 34 33  45 12 80 F8 FF FF 7F F8  ....s043E.......
09B0: FF FF 7F 73 30 34 34 01  80 1C 15 80 29 08 02 11  ...s044.....)...
09C0: 0F 01 06 1C 14 80 4A F0  FF FF 7F 02 11 0F 01 52  ......J........R
09D0: 12 80 F8 FF FF 7F F8 FF  FF 7F 73 30 34 34 45 12  ..........s044E.
09E0: 80 F8 FF FF 7F F8 FF FF  7F 73 30 34 35 01 80 6F  .........s045..o
09F0: 76 F0 FF FF 7F 2B 00 11  0F 01 36 80 1C 14 80 23  v....+....6....#
0A00: 27 08 F0 FF FF 7F 85 48  37 80 2A 08 F0 FF FF 7F  '......H7.*.....
0A10: 27 08 01 11 0F 01 12 1A  64 00 52 12 80 F8 FF FF  '.......d.R.....
0A20: 7F F8 FF FF 7F 73 30 34  35 1C 38 80 48 39 80 2A  .....s045.8.H9.*
0A30: 08 01 11 0F 01 1C 3A 80  27 08 01 11 0F 01 13 45  ......:.'......E
0A40: 12 80 F8 FF FF 7F F8 FF  FF 7F 73 30 34 36 01 80  ..........s046..
0A50: 1C 22 80 1A 43 00 1C 3B  80 2A 08 01 11 0F 01 27  ."..C..;.*.....'
0A60: 08 F0 FF FF 7F 86 2B 00  11 0F 01 3C 80 2A 08 F0  ......+....<.*..
0A70: FF FF 7F 29 08 F0 FF FF  7F 87 1C 3D 80 23 52 12  ...).......=.#R.
0A80: 80 F8 FF FF 7F F8 FF FF  7F 73 30 34 36 45 12 80  .........s046E..
0A90: F8 FF FF 7F F8 FF FF 7F  73 30 34 37 01 80 27 08  ........s047..'.
0AA0: 01 11 0F 01 0D 2B 01 11  0F 01 3E 80 23 2A 08 01  .....+....>.#*..
0AB0: 11 0F 01 4A 00 11 0F 01  F0 FF FF 7F 52 12 80 F8  ...J........R...
0AC0: FF FF 7F F8 FF FF 7F 73  30 34 37 45 12 80 F8 FF  .......s047E....
0AD0: FF 7F F8 FF FF 7F 73 30  34 38 01 80 6F 76 00 11  ......s048..ov..
0AE0: 0F 01 27 08 00 11 0F 01  07 2B 00 11 0F 01 3F 80  ..'......+....?.
0AF0: 1C 06 80 4A 01 11 0F 01  F0 FF FF 7F 6F 76 01 11  ...J........ov..
0B00: 0F 01 23 2B 00 11 0F 01  40 80 23 2A 08 00 11 0F  ..#+....@.#*....
0B10: 01 27 08 00 11 0F 01 08  2B 00 11 0F 01 41 80 23  .'......+....A.#
0B20: 2A 08 00 11 0F 01 52 12  80 F8 FF FF 7F F8 FF FF  *.....R.........
0B30: 7F 73 30 34 38 45 12 80  F8 FF FF 7F F8 FF FF 7F  .s048E..........
0B40: 73 30 34 39 01 80 6E 01  11 0F 01 17 80 99 01 11  s049..n.........
0B50: 0F 01 2B 01 11 0F 01 42  80 23 6E 00 11 0F 01 17  ..+....B.#n.....
0B60: 80 99 00 11 0F 01 2B 00  11 0F 01 43 80 23 52 12  ......+....C.#R.
0B70: 80 F8 FF FF 7F F8 FF FF  7F 73 30 34 39 06 00 00  .........s049...
0B80: 45 12 80 F8 FF FF 7F F8  FF FF 7F 73 30 35 30 01  E..........s050.
0B90: 80 6F 76 00 11 0F 01 24  44 80 00 00 01 80 25 02  .ov....$D.....%.
0BA0: 00 10 01 80 00 55 0C 6E  F0 FF FF 7F 45 80 99 F0  .....U.n....E...
0BB0: FF FF 7F 1C 14 80 52 12  80 F8 FF FF 7F F8 FF FF  ......R.........
0BC0: 7F 73 30 35 30 45 12 80  F8 FF FF 7F F8 FF FF 7F  .s050E..........
0BD0: 73 30 33 31 01 80 27 08  00 11 0F 01 0E 2B 00 11  s031..'......+..
0BE0: 0F 01 46 80 1C 14 80 23  52 12 80 F8 FF FF 7F F8  ..F....#R.......
0BF0: FF FF 7F 73 30 33 31 45  12 80 F8 FF FF 7F F8 FF  ...s031E........
0C00: FF 7F 73 30 33 32 01 80  27 08 01 11 0F 01 0D 2B  ..s032..'......+
0C10: 01 11 0F 01 47 80 1C 14  80 23 52 12 80 F8 FF FF  ....G....#R.....
0C20: 7F F8 FF FF 7F 73 30 33  32 45 12 80 F8 FF FF 7F  .....s032E......
0C30: F8 FF FF 7F 73 30 33 35  01 80 2B 00 11 0F 01 48  ....s035..+....H
0C40: 80 23 2B 01 11 0F 01 49  80 23 03 01 10 4A 80 01  .#+....I.#...J..
0C50: 61 1C 01 55 0C 52 12 80  F8 FF FF 7F F8 FF FF 7F  a..U.R..........
0C60: 73 30 35 30 02 87 7F 22  80 80 80 0C 45 12 80 F8  s050..."....E...
0C70: FF FF 7F F8 FF FF 7F 73  30 35 32 01 80 01 AD 0C  .......s052.....
0C80: 02 87 7F 23 80 80 9C 0C  45 12 80 F8 FF FF 7F F8  ...#....E.......
0C90: FF FF 7F 73 30 35 32 01  80 01 AD 0C 45 12 80 F8  ...s052.....E...
0CA0: FF FF 7F F8 FF FF 7F 73  30 35 31 01 80 03 00 00  .......s051.....
0CB0: 00 10 03 02 10 00 10 0C  02 10 2B 00 11 0F 01 4B  ..........+....K
0CC0: 80 23 48 4C 80 24 4D 80  03 80 01 80 25 02 00 10  .#HL.$M.....%...
0CD0: 01 80 00 E0 0C 0B 02 10  03 01 00 02 10 01 0C 0D  ................
0CE0: 02 00 10 03 80 00 0C 0D  52 12 80 F8 FF FF 7F F8  ........R.......
0CF0: FF FF 7F 73 30 35 31 52  12 80 F8 FF FF 7F F8 FF  ...s051R........
0D00: FF 7F 73 30 35 32 01 80  0B 01 0C 0D 52 12 80 F8  ..s052......R...
0D10: FF FF 7F F8 FF FF 7F 73  30 35 31 52 12 80 F8 FF  .......s051R....
0D20: FF 7F F8 FF FF 7F 73 30  35 32 45 12 80 F8 FF FF  ......s052E.....
0D30: 7F F8 FF FF 7F 73 30 35  33 01 80 27 08 00 11 0F  .....s053..'....
0D40: 01 0B 2B 00 11 0F 01 4E  80 23 27 08 01 11 0F 01  ..+....N.#'.....
0D50: 0B 2B 01 11 0F 01 4F 80  1C 14 80 2A 08 00 11 0F  .+....O....*....
0D60: 01 2A 08 01 11 0F 01 23  4A F0 FF FF 7F 02 11 0F  .*.....#J.......
0D70: 01 52 12 80 F8 FF FF 7F  F8 FF FF 7F 73 30 35 33  .R..........s053
0D80: 02 87 7F 22 80 80 9C 0D  45 12 80 F8 FF FF 7F F8  ..."....E.......
0D90: FF FF 7F 73 30 35 35 01  80 01 C9 0D 02 87 7F 23  ...s055........#
0DA0: 80 80 B8 0D 45 12 80 F8  FF FF 7F F8 FF FF 7F 73  ....E..........s
0DB0: 30 35 35 01 80 01 C9 0D  45 12 80 F8 FF FF 7F F8  055.....E.......
0DC0: FF FF 7F 73 30 35 34 01  80 6F 76 F0 FF FF 7F 1C  ...s054..ov.....
0DD0: 06 80 27 08 00 11 0F 01  0C 27 08 01 11 0F 01 0C  ..'......'......
0DE0: 4A 00 11 0F 01 02 11 0F  01 4A 01 11 0F 01 02 11  J........J......
0DF0: 0F 01 5C A0 01 80 00 80  5C A1 01 80 50 80 6E F0  ..\.....\...P.n.
0E00: FF FF 7F 01 80 99 F0 FF  FF 7F 1C 1C 80 52 12 80  .............R..
0E10: F8 FF FF 7F F8 FF FF 7F  73 30 35 34 52 12 80 F8  ........s054R...
0E20: FF FF 7F F8 FF FF 7F 73  30 35 35 45 12 80 F8 FF  .......s055E....
0E30: FF 7F F8 FF FF 7F 73 30  35 36 01 80 1C 16 80 48  ......s056.....H
0E40: 51 80 23 1C 1C 80 03 01  10 01 00 43 00 43 01 03  Q.#........C.C..
0E50: 02 00 02 10 02 01 00 03  80 80 08 0F 5C 00 52 80  ............\.R.
0E60: 5C 01 52 80 9A 5D 32 80  03 80 29 10 03 11 0F 01  \.R..]2...).....
0E70: 03 02 02 00 01 80 80 84  0E 2B 03 11 0F 01 53 80  .........+....S.
0E80: 23 01 DD 0E 02 02 00 03  80 80 9F 0E 2B 03 11 0F  #...........+...
0E90: 01 54 80 23 2B 03 11 0F  01 55 80 23 01 DD 0E 02  .T.#+....U.#....
0EA0: 02 00 05 80 80 BA 0E 2B  03 11 0F 01 54 80 23 2B  .......+....T.#+
0EB0: 03 11 0F 01 56 80 23 01  DD 0E 02 02 00 57 80 80  ....V.#......W..
0EC0: D5 0E 2B 03 11 0F 01 54  80 23 2B 03 11 0F 01 58  ..+....T.#+....X
0ED0: 80 23 01 DD 0E 2B 03 11  0F 01 53 80 23 2B 03 11  .#...+....S.#+..
0EE0: 0F 01 59 80 23 2B 03 11  0F 01 5A 80 23 2B 03 11  ..Y.#+....Z.#+..
0EF0: 0F 01 5B 80 23 2B 03 11  0F 01 5C 80 23 2B 03 11  ..[.#+....\.#+..
0F00: 0F 01 5D 80 23 01 3D 19  02 01 00 05 80 80 A9 0F  ..].#.=.........
0F10: 5C 00 5E 80 5C 01 5E 80  9A 5D 32 80 03 80 29 10  \.^.\.^..]2...).
0F20: 03 11 0F 01 04 02 02 00  01 80 80 38 0F 2B 03 11  ...........8.+..
0F30: 0F 01 5F 80 23 01 76 0F  02 02 00 03 80 80 53 0F  .._.#.v.......S.
0F40: 2B 03 11 0F 01 60 80 23  2B 03 11 0F 01 61 80 23  +....`.#+....a.#
0F50: 01 76 0F 02 02 00 05 80  80 6E 0F 2B 03 11 0F 01  .v.......n.+....
0F60: 60 80 23 2B 03 11 0F 01  62 80 23 01 76 0F 2B 03  `.#+....b.#.v.+.
0F70: 11 0F 01 5F 80 23 2B 03  11 0F 01 63 80 23 2B 03  ..._.#+....c.#+.
0F80: 11 0F 01 64 80 23 2B 03  11 0F 01 65 80 23 2B 03  ...d.#+....e.#+.
0F90: 11 0F 01 66 80 23 2B 03  11 0F 01 67 80 23 2B 03  ...f.#+....g.#+.
0FA0: 11 0F 01 68 80 23 01 3D  19 02 01 00 57 80 80 6E  ...h.#.=....W..n
0FB0: 10 3E 05 00 69 80 C3 0F  5C 00 3A 80 5C 01 3A 80  .>..i...\.:.\.:.
0FC0: 01 CB 0F 5C 00 1A 80 5C  01 1A 80 9A 5D 32 80 03  ...\...\....]2..
0FD0: 80 2B 04 11 0F 01 6A 80  23 02 02 00 03 80 00 E9  .+....j.#.......
0FE0: 0F 2B 04 11 0F 01 6B 80  23 2B 04 11 0F 01 6C 80  .+....k.#+....l.
0FF0: 23 1C 1C 80 1C 1A 80 2B  04 11 0F 01 6D 80 23 03  #......+....m.#.
1000: 03 00 69 80 06 04 00 24  6E 80 01 80 03 00 25 02  ..i....$n.....%.
1010: 00 10 05 80 00 58 10 03  03 00 57 80 02 04 00 01  .....X....W.....
1020: 80 00 35 10 2B 04 11 0F  01 6F 80 23 05 04 00 01  ..5.+....o.#....
1030: 07 10 01 55 10 2B 04 11  0F 01 70 80 23 2B 04 11  ...U.+....p.#+..
1040: 0F 01 71 80 23 2B 04 11  0F 01 72 80 23 2B 04 11  ..q.#+....r.#+..
1050: 0F 01 73 80 23 01 6B 10  13 02 10 57 80 2B 04 11  ..s.#.k....W.+..
1060: 0F 01 74 80 23 06 03 00  01 07 10 01 3D 19 02 01  ..t.#.......=...
1070: 00 69 80 80 5B 11 5C 00  75 80 5C 01 75 80 9A 5D  .i..[.\.u.\.u..]
1080: 32 80 03 80 29 10 03 11  0F 01 06 02 02 00 01 80  2...)...........
1090: 80 9E 10 2B 03 11 0F 01  76 80 23 01 12 11 02 02  ...+....v.#.....
10A0: 00 03 80 80 B9 10 2B 03  11 0F 01 77 80 23 2B 03  ......+....w.#+.
10B0: 11 0F 01 78 80 23 01 12  11 02 02 00 05 80 80 D4  ...x.#..........
10C0: 10 2B 03 11 0F 01 77 80  23 2B 03 11 0F 01 79 80  .+....w.#+....y.
10D0: 23 01 12 11 02 02 00 57  80 80 EF 10 2B 03 11 0F  #......W....+...
10E0: 01 77 80 23 2B 03 11 0F  01 7A 80 23 01 12 11 02  .w.#+....z.#....
10F0: 02 00 69 80 80 0A 11 2B  03 11 0F 01 77 80 23 2B  ..i....+....w.#+
1100: 03 11 0F 01 7B 80 23 01  12 11 2B 03 11 0F 01 76  ....{.#...+....v
1110: 80 23 2B 03 11 0F 01 7C  80 23 2B 03 11 0F 01 7D  .#+....|.#+....}
1120: 80 23 29 10 03 11 0F 01  02 2B 03 11 0F 01 7E 80  .#)......+....~.
1130: 23 2B 03 11 0F 01 7F 80  23 29 10 03 11 0F 01 06  #+......#)......
1140: 2B 03 11 0F 01 80 80 23  2B 03 11 0F 01 81 80 23  +......#+......#
1150: 2B 03 11 0F 01 82 80 23  01 3D 19 02 01 00 22 80  +......#.=....".
1160: 80 88 12 5C 00 83 80 5C  01 83 80 9A 5D 32 80 03  ...\...\....]2..
1170: 80 29 10 03 11 0F 01 07  02 02 00 01 80 80 8B 11  .)..............
1180: 2B 03 11 0F 01 84 80 23  01 E4 11 02 02 00 03 80  +......#........
1190: 80 A6 11 2B 03 11 0F 01  85 80 23 2B 03 11 0F 01  ...+......#+....
11A0: 86 80 23 01 E4 11 02 02  00 05 80 80 C1 11 2B 03  ..#...........+.
11B0: 11 0F 01 85 80 23 2B 03  11 0F 01 87 80 23 01 E4  .....#+......#..
11C0: 11 02 02 00 57 80 80 DC  11 2B 03 11 0F 01 85 80  ....W....+......
11D0: 23 2B 03 11 0F 01 88 80  23 01 E4 11 2B 03 11 0F  #+......#...+...
11E0: 01 84 80 23 2B 03 11 0F  01 89 80 23 2B 03 11 0F  ...#+......#+...
11F0: 01 8A 80 23 2B 03 11 0F  01 8B 80 23 2B 03 11 0F  ...#+......#+...
1200: 01 8C 80 23 02 02 00 01  80 00 16 12 3C 03 00 01  ...#........<...
1210: 80 03 80 01 19 12 06 03  00 24 8D 80 01 80 03 00  .........$......
1220: 25 02 00 10 01 80 00 34  12 2B 03 11 0F 01 8E 80  %......4.+......
1230: 23 01 5A 12 02 00 10 03  80 00 47 12 2B 03 11 0F  #.Z.......G.+...
1240: 01 8F 80 23 01 5A 12 02  00 10 05 80 00 5A 12 2B  ...#.Z.......Z.+
1250: 03 11 0F 01 90 80 23 01  5A 12 2B 03 11 0F 01 91  ......#.Z.+.....
1260: 80 23 2B 03 11 0F 01 92  80 23 02 02 00 01 80 00  .#+......#......
1270: 7D 12 2B 03 11 0F 01 93  80 23 01 85 12 2B 03 11  }.+......#...+..
1280: 0F 01 94 80 23 01 3D 19  02 01 00 23 80 80 59 13  ....#.=....#..Y.
1290: 29 10 03 11 0F 01 02 2B  03 11 0F 01 95 80 23 24  )......+......#$
12A0: 96 80 01 80 01 80 25 02  00 10 01 80 00 B2 12 01  ......%.........
12B0: C8 12 02 00 10 03 80 00  BD 12 01 C8 12 02 00 10  ................
12C0: 05 80 00 C8 12 01 C8 12  29 10 03 11 0F 01 08 02  ........).......
12D0: 02 00 01 80 00 EA 12 2B  03 11 0F 01 97 80 23 2B  .......+......#+
12E0: 03 11 0F 01 98 80 23 01  F2 12 2B 03 11 0F 01 99  ......#...+.....
12F0: 80 23 5C 00 9A 80 5C 01  9A 80 9A 5D 32 80 03 80  .#\...\....]2...
1300: 2B 03 11 0F 01 9B 80 23  2B 03 11 0F 01 9C 80 23  +......#+......#
1310: 2B 03 11 0F 01 9D 80 23  2B 03 11 0F 01 9E 80 23  +......#+......#
1320: 02 02 00 05 80 80 33 13  2B 03 11 0F 01 9F 80 23  ......3.+......#
1330: 01 46 13 02 02 00 57 80  80 46 13 2B 03 11 0F 01  .F....W..F.+....
1340: A0 80 23 01 46 13 2B 03  11 0F 01 A1 80 23 2B 03  ..#.F.+......#+.
1350: 11 0F 01 A2 80 23 01 3D  19 02 01 00 17 80 80 FA  .....#.=........
1360: 13 3E 05 00 03 80 73 13  5C 00 A3 80 5C 01 A3 80  .>....s.\...\...
1370: 01 7B 13 5C 00 1A 80 5C  01 1A 80 9A 5D 32 80 03  .{.\...\....]2..
1380: 80 2B 05 11 0F 01 A4 80  23 02 02 00 01 80 80 94  .+......#.......
1390: 13 01 CF 13 02 02 00 03  80 80 AF 13 2B 05 11 0F  ............+...
13A0: 01 A5 80 23 2B 05 11 0F  01 A6 80 23 01 CF 13 02  ...#+......#....
13B0: 02 00 05 80 80 CF 13 03  02 10 A7 80 2B 05 11 0F  ............+...
13C0: 01 A8 80 23 2B 05 11 0F  01 A9 80 23 01 CF 13 2B  ...#+......#...+
13D0: 05 11 0F 01 AA 80 23 2B  05 11 0F 01 AB 80 23 2B  ......#+......#+
13E0: 05 11 0F 01 AC 80 23 2B  05 11 0F 01 AD 80 23 2B  ......#+......#+
13F0: 05 11 0F 01 AE 80 23 01  3D 19 02 01 00 AF 80 80  ......#.=.......
1400: A3 15 3E 05 00 57 80 14  14 5C 00 B0 80 5C 01 B0  ..>..W...\...\..
1410: 80 01 1C 14 5C 00 1A 80  5C 01 1A 80 9A 5D 32 80  ....\...\....]2.
1420: 03 80 29 10 03 11 0F 01  0C 2B 03 11 0F 01 B1 80  ..)......+......
1430: 23 2B 03 11 0F 01 B2 80  23 02 02 00 01 80 00 55  #+......#......U
1440: 15 2B 03 11 0F 01 B3 80  23 48 51 80 23 29 10 03  .+......#HQ.#)..
1450: 11 0F 01 0A 2B 03 11 0F  01 B4 80 23 2B 03 11 0F  ....+......#+...
1460: 01 B5 80 23 2B 03 11 0F  01 B6 80 23 2B 03 11 0F  ...#+......#+...
1470: 01 B7 80 23 2B 03 11 0F  01 B8 80 23 2B 03 11 0F  ...#+......#+...
1480: 01 B9 80 23 29 10 03 11  0F 01 0C 2B 03 11 0F 01  ...#)......+....
1490: BA 80 23 2B 03 11 0F 01  BB 80 23 2B 03 11 0F 01  ..#+......#+....
14A0: BC 80 23 2B 03 11 0F 01  BD 80 1C 06 80 23 5C A0  ..#+.........#\.
14B0: 01 80 03 80 5C A1 01 80  03 80 BA 03 11 0F 01 BE  ....\...........
14C0: 80 BF 80 C0 80 C1 80 C4  00 C2 80 03 11 0F 01 03  ................
14D0: 11 0F 01 1C 3A 80 2C 03  11 0F 01 03 11 0F 01 64  ....:.,........d
14E0: 65 61 64 6E F0 FF FF 7F  C3 80 99 F0 FF FF 7F 48  eadn...........H
14F0: 51 80 23 1C 1C 80 29 10  03 11 0F 01 0A 5C A0 32  Q.#...)......\.2
1500: 80 C4 80 5C A1 32 80 C5  80 2B 03 11 0F 01 C6 80  ...\.2...+......
1510: 23 24 C7 80 01 80 01 80  25 02 00 10 01 80 00 24  #$......%......$
1520: 15 01 3A 15 02 00 10 03  80 00 2F 15 01 3A 15 02  ..:......./..:..
1530: 00 10 05 80 00 3A 15 01  3A 15 2B 03 11 0F 01 C8  .....:..:.+.....
1540: 80 23 2B 03 11 0F 01 C9  80 23 2B 03 11 0F 01 CA  .#+......#+.....
1550: 80 23 01 A0 15 2B 03 11  0F 01 CB 80 23 29 10 03  .#...+......#)..
1560: 11 0F 01 0A 2B 03 11 0F  01 CC 80 23 48 51 80 23  ....+......#HQ.#
1570: 2B 03 11 0F 01 CD 80 23  2B 03 11 0F 01 CE 80 23  +......#+......#
1580: 2B 03 11 0F 01 CF 80 23  2B 03 11 0F 01 D0 80 23  +......#+......#
1590: 2B 03 11 0F 01 D1 80 23  2B 03 11 0F 01 D2 80 23  +......#+......#
15A0: 01 3D 19 02 01 00 D3 80  80 90 16 29 10 03 11 0F  .=.........)....
15B0: 01 02 2B 03 11 0F 01 D4  80 23 2B 03 11 0F 01 D5  ..+......#+.....
15C0: 80 23 2B 03 11 0F 01 D6  80 23 29 10 03 11 0F 01  .#+......#).....
15D0: 0B 24 D7 80 01 80 01 80  25 02 00 10 01 80 00 EC  .$......%.......
15E0: 15 2B 03 11 0F 01 D8 80  23 01 12 16 02 00 10 03  .+......#.......
15F0: 80 00 FF 15 2B 03 11 0F  01 D9 80 23 01 12 16 02  ....+......#....
1600: 00 10 05 80 00 12 16 2B  03 11 0F 01 DA 80 23 01  .......+......#.
1610: 12 16 3E 05 00 DB 80 24  16 5C 00 DC 80 5C 01 DC  ..>....$.\...\..
1620: 80 01 2C 16 5C 00 1A 80  5C 01 1A 80 9A 5D 32 80  ..,.\...\....]2.
1630: 03 80 2B 03 11 0F 01 DD  80 23 02 02 00 01 80 00  ..+......#......
1640: 4D 16 2B 03 11 0F 01 DE  80 23 01 55 16 2B 03 11  M.+......#.U.+..
1650: 0F 01 DF 80 23 2B 03 11  0F 01 E0 80 23 2B 03 11  ....#+......#+..
1660: 0F 01 E1 80 23 02 02 00  05 80 00 85 16 2B 03 11  ....#........+..
1670: 0F 01 E2 80 23 2B 03 11  0F 01 E3 80 23 2B 03 11  ....#+......#+..
1680: 0F 01 E4 80 23 2B 03 11  0F 01 E5 80 23 01 3D 19  ....#+......#.=.
1690: 02 01 00 E6 80 80 B5 17  5C 00 75 80 5C 01 75 80  ........\.u.\.u.
16A0: 9A 5D 32 80 03 80 29 10  03 11 0F 01 0D 2B 03 11  .]2...)......+..
16B0: 0F 01 E7 80 23 02 02 00  03 80 05 D0 16 2B 03 11  ....#........+..
16C0: 0F 01 E8 80 23 2B 03 11  0F 01 E9 80 23 01 D8 16  ....#+......#...
16D0: 2B 03 11 0F 01 EA 80 23  02 02 00 03 80 80 EB 16  +......#........
16E0: 2B 03 11 0F 01 EB 80 23  01 37 17 02 02 00 05 80  +......#.7......
16F0: 80 FE 16 2B 03 11 0F 01  EC 80 23 01 37 17 02 02  ...+......#.7...
1700: 00 57 80 80 11 17 2B 03  11 0F 01 ED 80 23 01 37  .W....+......#.7
1710: 17 02 02 00 69 80 80 24  17 2B 03 11 0F 01 EE 80  ....i..$.+......
1720: 23 01 37 17 02 02 00 22  80 80 37 17 2B 03 11 0F  #.7...."..7.+...
1730: 01 EF 80 23 01 37 17 02  02 00 03 80 05 7A 17 2B  ...#.7.......z.+
1740: 03 11 0F 01 F0 80 23 2B  03 11 0F 01 F1 80 23 2B  ......#+......#+
1750: 03 11 0F 01 F2 80 23 2B  03 11 0F 01 F3 80 23 2B  ......#+......#+
1760: 03 11 0F 01 F4 80 23 2B  03 11 0F 01 F5 80 23 2B  ......#+......#+
1770: 03 11 0F 01 F6 80 23 01  B2 17 2B 03 11 0F 01 F7  ......#...+.....
1780: 80 23 2B 03 11 0F 01 F8  80 23 2B 03 11 0F 01 F9  .#+......#+.....
1790: 80 23 2B 03 11 0F 01 FA  80 23 2B 03 11 0F 01 FB  .#+......#+.....
17A0: 80 23 2B 03 11 0F 01 FC  80 23 2B 03 11 0F 01 FD  .#+......#+.....
17B0: 80 23 01 3D 19 02 01 00  DB 80 80 3D 19 3E 05 00  .#.=.......=.>..
17C0: DB 80 CF 17 5C 00 FE 80  5C 01 FE 80 01 D7 17 5C  ....\...\......\
17D0: 00 1A 80 5C 01 1A 80 9A  5D 32 80 03 80 29 10 03  ...\....]2...)..
17E0: 11 0F 01 0E 2B 03 11 0F  01 FF 80 23 02 02 00 01  ....+......#....
17F0: 80 00 07 18 2B 03 11 0F  01 00 81 23 2B 03 11 0F  ....+......#+...
1800: 01 01 81 23 01 35 18 02  02 00 05 80 05 1A 18 2B  ...#.5.........+
1810: 03 11 0F 01 02 81 23 01  35 18 02 02 00 57 80 00  ......#.5....W..
1820: 2D 18 2B 03 11 0F 01 03  81 23 01 35 18 2B 03 11  -.+......#.5.+..
1830: 0F 01 04 81 23 02 02 00  03 80 80 48 18 2B 03 11  ....#......H.+..
1840: 0F 01 05 81 23 01 94 18  02 02 00 05 80 80 5B 18  ....#.........[.
1850: 2B 03 11 0F 01 06 81 23  01 94 18 02 02 00 57 80  +......#......W.
1860: 80 6E 18 2B 03 11 0F 01  07 81 23 01 94 18 02 02  .n.+......#.....
1870: 00 69 80 80 81 18 2B 03  11 0F 01 08 81 23 01 94  .i....+......#..
1880: 18 02 02 00 22 80 80 94  18 2B 03 11 0F 01 09 81  ...."....+......
1890: 23 01 94 18 02 02 00 57  80 00 D7 18 2B 03 11 0F  #......W....+...
18A0: 01 0A 81 23 2B 03 11 0F  01 0B 81 23 2B 03 11 0F  ...#+......#+...
18B0: 01 0C 81 23 2B 03 11 0F  01 0D 81 23 2B 03 11 0F  ...#+......#+...
18C0: 01 0E 81 23 2B 03 11 0F  01 0F 81 23 2B 03 11 0F  ...#+......#+...
18D0: 01 10 81 23 01 3A 19 2B  03 11 0F 01 11 81 23 02  ...#.:.+......#.
18E0: 02 00 05 80 05 F2 18 2B  03 11 0F 01 12 81 23 01  .......+......#.
18F0: FA 18 2B 03 11 0F 01 13  81 23 2B 03 11 0F 01 14  ..+......#+.....
1900: 81 23 2B 03 11 0F 01 15  81 23 2B 03 11 0F 01 16  .#+......#+.....
1910: 81 23 2B 03 11 0F 01 17  81 23 2B 03 11 0F 01 18  .#+......#+.....
1920: 81 23 2B 03 11 0F 01 19  81 23 02 02 00 01 80 05  .#+......#......
1930: 3A 19 2B 03 11 0F 01 1A  81 23 01 3D 19 29 10 03  :.+......#.=.)..
1940: 11 0F 01 02 5C A0 01 80  1A 80 5C A1 01 80 33 80  ....\.....\...3.
1950: 1C 14 80 48 51 80 23 5C  00 01 80 5C 01 01 80 9A  ...HQ.#\...\....
1960: 1C 1C 80 52 12 80 F8 FF  FF 7F F8 FF FF 7F 73 30  ...R..........s0
1970: 35 36 5C 00 1B 81 5C 01  1B 81 9A 5D 32 80 03 80  56\...\....]2...
1980: 4A 00 11 0F 01 F0 FF FF  7F 45 12 80 F8 FF FF 7F  J........E......
1990: F8 FF FF 7F 73 30 35 37  01 80 6F 76 00 11 0F 01  ....s057..ov....
19A0: 2B 00 11 0F 01 1C 81 1C  06 80 4A 01 11 0F 01 F0  +.........J.....
19B0: FF FF 7F 6F 76 01 11 0F  01 1C 16 80 23 4A F0 FF  ...ov.......#J..
19C0: FF 7F 00 11 0F 01 52 12  80 F8 FF FF 7F F8 FF FF  ......R.........
19D0: 7F 73 30 35 37 45 12 80  F8 FF FF 7F F8 FF FF 7F  .s057E..........
19E0: 73 30 35 39 01 80 6F 76  F0 FF FF 7F 27 08 00 11  s059..ov....'...
19F0: 0F 01 07 03 02 10 1D 81  2B 00 11 0F 01 1E 81 23  ........+......#
1A00: 27 08 01 11 0F 01 07 2B  01 11 0F 01 1F 81 1C 14  '......+........
1A10: 80 2A 08 00 11 0F 01 2A  08 01 11 0F 01 23 52 12  .*.....*.....#R.
1A20: 80 F8 FF FF 7F F8 FF FF  7F 73 30 35 39 45 12 80  .........s059E..
1A30: F8 FF FF 7F F8 FF FF 7F  73 30 35 38 01 80 2B 00  ........s058..+.
1A40: 11 0F 01 20 81 23 27 08  00 11 0F 01 08 2B 00 11  ... .#'......+..
1A50: 0F 01 21 81 1C 06 80 27  08 01 11 0F 01 08 1C 3D  ..!....'.......=
1A60: 80 2A 08 00 11 0F 01 2A  08 01 11 0F 01 23 2B 00  .*.....*.....#+.
1A70: 11 0F 01 22 81 1C 06 80  7B 00 11 0F 01 1C 06 80  ..."....{.......
1A80: 23 52 12 80 F8 FF FF 7F  F8 FF FF 7F 73 30 35 38  #R..........s058
1A90: 45 12 80 F8 FF FF 7F F8  FF FF 7F 73 30 36 30 01  E..........s060.
1AA0: 80 7B 01 11 0F 01 2B 01  11 0F 01 23 81 1C 06 80  .{....+....#....
1AB0: 5C A0 01 80 03 80 5C A1  01 80 03 80 1C 06 80 23  \.....\........#
1AC0: 52 12 80 F8 FF FF 7F F8  FF FF 7F 73 30 36 30 45  R..........s060E
1AD0: 12 80 F8 FF FF 7F F8 FF  FF 7F 73 30 36 31 01 80  ..........s061..
1AE0: 4A 00 11 0F 01 01 11 0F  01 6F 76 00 11 0F 01 1C  J........ov.....
1AF0: 04 80 4B 01 11 0F 01 2F  80 6F 76 01 11 0F 01 27  ..K..../.ov....'
1B00: 08 00 11 0F 01 09 1C 1C  80 48 30 80 1C 29 80 2A  .........H0..).*
1B10: 08 00 11 0F 01 27 08 01  11 0F 01 0F 48 31 80 1C  .....'......H1..
1B20: 38 80 27 08 00 11 0F 01  0A 1C 14 80 2A 08 00 11  8.'.........*...
1B30: 0F 01 2A 08 01 11 0F 01  52 12 80 F8 FF FF 7F F8  ..*.....R.......
1B40: FF FF 7F 73 30 36 31 5C  A0 32 80 1A 80 5C A1 32  ...s061\.2...\.2
1B50: 80 33 80 45 12 80 F8 FF  FF 7F F8 FF FF 7F 73 30  .3.E..........s0
1B60: 36 32 01 80 27 08 00 11  0F 01 11 2B 00 11 0F 01  62..'......+....
1B70: 24 81 29 08 01 11 0F 01  06 1C 14 80 23 4A 01 11  $.).........#J..
1B80: 0F 01 F0 FF FF 7F 52 12  80 F8 FF FF 7F F8 FF FF  ......R.........
1B90: 7F 73 30 36 32 45 12 80  F8 FF FF 7F F8 FF FF 7F  .s062E..........
1BA0: 73 30 36 33 01 80 6F 76  01 11 0F 01 2B 01 11 0F  s063..ov....+...
1BB0: 01 25 81 1C 06 80 4A F0  FF FF 7F 01 11 0F 01 6F  .%....J........o
1BC0: 76 F0 FF FF 7F 1C 3D 80  23 4A 00 11 0F 01 F0 FF  v.....=.#J......
1BD0: FF 7F 52 12 80 F8 FF FF  7F F8 FF FF 7F 73 30 36  ..R..........s06
1BE0: 33 45 12 80 F8 FF FF 7F  F8 FF FF 7F 73 30 36 34  3E..........s064
1BF0: 01 80 6F 76 00 11 0F 01  6E 00 11 0F 01 03 80 99  ..ov....n.......
1C00: 00 11 0F 01 2B 00 11 0F  01 26 81 23 6E 01 11 0F  ....+....&.#n...
1C10: 01 03 80 99 01 11 0F 01  2B 01 11 0F 01 27 81 1C  ........+....'..
1C20: 14 80 23 52 12 80 F8 FF  FF 7F F8 FF FF 7F 73 30  ..#R..........s0
1C30: 36 34 45 12 80 F8 FF FF  7F F8 FF FF 7F 73 30 36  64E..........s06
1C40: 35 01 80 6E F0 FF FF 7F  13 80 99 F0 FF FF 7F 1C  5..n............
1C50: 06 80 27 08 02 11 0F 01  07 1C 1A 80 03 01 10 01  ..'.............
1C60: 00 1A 64 00 1C 11 80 52  12 80 F8 FF FF 7F F8 FF  ..d....R........
1C70: FF 7F 73 30 33 35 52 12  80 F8 FF FF 7F F8 FF FF  ..s035R.........
1C80: 7F 73 30 36 35 27 05 E4  10 0F 01 04 27 05 08 11  .s065'......'...
1C90: 0F 01 04 29 08 02 11 0F  01 08 5C 00 1B 81 5C 01  ...)......\...\.
1CA0: 1B 81 9A 5D 32 80 03 80  1C 11 80 AB 11 01 80 1C  ...]2...........
1CB0: 03 80 AB 0A 46 00 02 01  10 01 80 01 D7 1C 02 01  ....F...........
1CC0: 10 01 00 00 D7 1C 45 02  80 F8 FF FF 7F F8 FF FF  ......E.........
1CD0: 7F 71 73 74 63 01 80 45  00 80 F0 FF FF 7F F0 FF  .qstc..E........
1CE0: FF 7F 66 64 69 32 01 80  21 00                    ..fdi2..!.      
```

#### Opcodes

```
  0: 0x0292 [0x42] SET_CLI_EVENT_CANCEL_DATA()
  1: 0x0293 [0x03] ExtData[1]->WorkLocal[5] = Work_Zone[9]
  2: 0x0298 [0x1A] CALL_SUBROUTINE(address=0x0064)
  3: 0x029B [0x46] CAMERA_CONTROL: Disable user control
  4: 0x029D [0x38] SET_CLIENT_EVENT_MODE(mode=27*)
  5: 0x02A0 [0x5C] MUSIC_CONTROL: Set Idle (Day) music to song 163*
  6: 0x02A4 [0x5C] MUSIC_CONTROL: Set Idle (Night) music to song 163*
  7: 0x02A8 [0x9A] WAIT_MUSIC_SERVER()
  8: 0x02A9 [0x4E] SET_ENTITY_HIDE_FLAG: Show ??? (ID: 17764610/0x010F1102)
  9: 0x02AF [0x2F] ??? (ID: 17764610/0x010F1102)->Render.Flags0 &= ~0x80000 // Bit 19
 10: 0x02B5 [0x92] Teldro-Kesdrodo (ID: 17764608/0x010F1100)->Render.Flags3 ^= 0x01
 11: 0x02BB [0x92] Yonolala (ID: 17764609/0x010F1101)->Render.Flags3 ^= 0x01
 12: 0x02C1 [0x92] ??? (ID: 17764610/0x010F1102)->Render.Flags3 ^= 0x01
 13: 0x02C7 [0x92] ??? (ID: 17764611/0x010F1103)->Render.Flags3 ^= 0x01
 14: 0x02CD [0x92] Fhelm Jobeizat (ID: 17764603/0x010F10FB)->Render.Flags3 ^= 0x01
 15: 0x02D3 [0x92] Selele (ID: 17764600/0x010F10F8)->Render.Flags3 ^= 0x01
 16: 0x02D9 [0x92] Bozack (ID: 17764580/0x010F10E4)->Render.Flags3 ^= 0x01
 17: 0x02DF [0x92] Sevah Kummekihn (ID: 17764616/0x010F1108)->Render.Flags3 ^= 0x01
 18: 0x02E5 [0x92] Femardaque (ID: 17764505/0x010F1099)->Render.Flags3 ^= 0x01
 19: 0x02EB [0x92] Rakoh Buuma (ID: 17764368/0x010F1010)->Render.Flags3 ^= 0x01
 20: 0x02F1 [0x92] Tih Pikeh (ID: 17764369/0x010F1011)->Render.Flags3 ^= 0x01
 21: 0x02F7 [0x92] Sola Jaab (ID: 17764370/0x010F1012)->Render.Flags3 ^= 0x01
 22: 0x02FD [0x92] Miiri-Wohri (ID: 17764371/0x010F1013)->Render.Flags3 ^= 0x01
 23: 0x0303 [0x92] Ten of Spades (ID: 17764516/0x010F10A4)->Render.Flags3 ^= 0x01
 24: 0x0309 [0x92] Nine of Spades (ID: 17764517/0x010F10A5)->Render.Flags3 ^= 0x01
 25: 0x030F [0x94] Teldro-Kesdrodo (ID: 17764608/0x010F1100)->Render.Flags3 ^= 0x01
 26: 0x0315 [0x94] Yonolala (ID: 17764609/0x010F1101)->Render.Flags3 ^= 0x01
 27: 0x031B [0x94] ??? (ID: 17764610/0x010F1102)->Render.Flags3 ^= 0x01
 28: 0x0321 [0x94] ??? (ID: 17764611/0x010F1103)->Render.Flags3 ^= 0x01
 29: 0x0327 [0x94] Fhelm Jobeizat (ID: 17764603/0x010F10FB)->Render.Flags3 ^= 0x01
 30: 0x032D [0x94] Selele (ID: 17764600/0x010F10F8)->Render.Flags3 ^= 0x01
 31: 0x0333 [0x94] Bozack (ID: 17764580/0x010F10E4)->Render.Flags3 ^= 0x01
 32: 0x0339 [0x94] Sevah Kummekihn (ID: 17764616/0x010F1108)->Render.Flags3 ^= 0x01
 33: 0x033F [0x94] Femardaque (ID: 17764505/0x010F1099)->Render.Flags3 ^= 0x01
 34: 0x0345 [0x94] Rakoh Buuma (ID: 17764368/0x010F1010)->Render.Flags3 ^= 0x01
 35: 0x034B [0x94] Tih Pikeh (ID: 17764369/0x010F1011)->Render.Flags3 ^= 0x01
 36: 0x0351 [0x94] Sola Jaab (ID: 17764370/0x010F1012)->Render.Flags3 ^= 0x01
 37: 0x0357 [0x94] Miiri-Wohri (ID: 17764371/0x010F1013)->Render.Flags3 ^= 0x01
 38: 0x035D [0x94] Ten of Spades (ID: 17764516/0x010F10A4)->Render.Flags3 ^= 0x01
 39: 0x0363 [0x94] Nine of Spades (ID: 17764517/0x010F10A5)->Render.Flags3 ^= 0x01
 40: 0x0369 [0x94] LocalPlayer->Render.Flags3 ^= 0x01
 41: 0x036F [0xBA] SET_ENTITY_POSITION(entity_id=??? (ID: 17764610/0x010F1102), pos_x=99.027*, pos_z=-26.974*, pos_y=-5.000*, direction=305.0*)
 42: 0x037C [0xBA] SET_ENTITY_POSITION(entity_id=LocalPlayer, pos_x=99.758*, pos_z=-25.706*, pos_y=-5.000*, direction=202.7*)
 43: 0x0389 [0x27] REQ_SET(priority=0x05, entity_id=Bozack (ID: 17764580/0x010F10E4), tag_num=0x03)
 44: 0x0390 [0x27] REQ_SET(priority=0x05, entity_id=Sevah Kummekihn (ID: 17764616/0x010F1108), tag_num=0x03)
 45: 0x0397 [0x29] REQ_SET_WAIT(priority=0x08, entity_id=??? (ID: 17764610/0x010F1102), tag_num=0x05)
 46: 0x039E [0x4A] LocalPlayer looks at Teldro-Kesdrodo (ID: 17764608/0x010F1100)
 47: 0x03A7 [0x80] LOAD_WAIT(entity=Teldro-Kesdrodo (ID: 17764608/0x010F1100))
 48: 0x03AC [0x80] LOAD_WAIT(entity=Yonolala (ID: 17764609/0x010F1101))
 49: 0x03B1 [0x80] LOAD_WAIT(entity=??? (ID: 17764610/0x010F1102))
 50: 0x03B6 [0x80] LOAD_WAIT(entity=??? (ID: 17764611/0x010F1103))
 51: 0x03BB [0x80] LOAD_WAIT(entity=Fhelm Jobeizat (ID: 17764603/0x010F10FB))
 52: 0x03C0 [0x80] LOAD_WAIT(entity=Selele (ID: 17764600/0x010F10F8))
 53: 0x03C5 [0x80] LOAD_WAIT(entity=Bozack (ID: 17764580/0x010F10E4))
 54: 0x03CA [0x80] LOAD_WAIT(entity=Sevah Kummekihn (ID: 17764616/0x010F1108))
 55: 0x03CF [0x80] LOAD_WAIT(entity=Femardaque (ID: 17764505/0x010F1099))
 56: 0x03D4 [0x80] LOAD_WAIT(entity=Rakoh Buuma (ID: 17764368/0x010F1010))
 57: 0x03D9 [0x80] LOAD_WAIT(entity=Tih Pikeh (ID: 17764369/0x010F1011))
 58: 0x03DE [0x80] LOAD_WAIT(entity=Sola Jaab (ID: 17764370/0x010F1012))
 59: 0x03E3 [0x80] LOAD_WAIT(entity=Miiri-Wohri (ID: 17764371/0x010F1013))
 60: 0x03E8 [0x80] LOAD_WAIT(entity=Ten of Spades (ID: 17764516/0x010F10A4))
 61: 0x03ED [0x80] LOAD_WAIT(entity=Nine of Spades (ID: 17764517/0x010F10A5))
 62: 0x03F2 [0x80] LOAD_WAIT(entity=LocalPlayer)
 63: 0x03F7 [0x02] IF !(Work_Zone[2] == 1*) GOTO 0x04F1
 64: 0x03FF [0x4A] Teldro-Kesdrodo (ID: 17764608/0x010F1100) looks at ??? (ID: 17764610/0x010F1102)
 65: 0x0408 [0x4A] Yonolala (ID: 17764609/0x010F1101) looks at ??? (ID: 17764610/0x010F1102)
 66: 0x0411 [0x6F] WAIT_FRAME_DELAY: Yield until WaitTime reaches zero
 67: 0x0412 [0x76] CHECK_ENTITY_RENDER_FLAGS: Wait until Teldro-Kesdrodo (ID: 17764608/0x010F1100) Render.Flags0 and Render.Flags3 conditions are met
 68: 0x0417 [0x6F] WAIT_FRAME_DELAY: Yield until WaitTime reaches zero
 69: 0x0418 [0x76] CHECK_ENTITY_RENDER_FLAGS: Wait until Yonolala (ID: 17764609/0x010F1101) Render.Flags0 and Render.Flags3 conditions are met
 70: 0x041D [0x1C] WAIT(15* ticks)
 71: 0x0420 [0x45] LOAD_SCHEDULED_TASK: Load scheduler "s043" with entities [EventEntity, EventEntity], work=[705*, 0*]
 72: 0x0431 [0x1A] CALL_SUBROUTINE(address=0x0043)
 73: 0x0434 [0x6E] Yonolala (ID: 17764609/0x010F1101) uses emote 13*
 74: 0x043B [0x99] Wait for Yonolala (ID: 17764609/0x010F1101) animation to complete
 75: 0x0440 [0x1C] WAIT(70* ticks)
 76: 0x0443 [0x52] END_LOAD_SCHEDULER: End scheduler "s043" with entities [EventEntity, EventEntity], work=705*
 77: 0x0452 [0x45] LOAD_SCHEDULED_TASK: Load scheduler "s044" with entities [EventEntity, EventEntity], work=[705*, 0*]
 78: 0x0463 [0x1C] WAIT(90* ticks)
 79: 0x0466 [0x29] REQ_SET_WAIT(priority=0x08, entity_id=??? (ID: 17764610/0x010F1102), tag_num=0x06)
 80: 0x046D [0x1C] WAIT(70* ticks)
 81: 0x0470 [0x4A] Teldro-Kesdrodo (ID: 17764608/0x010F1100) looks at LocalPlayer
 82: 0x0479 [0x52] END_LOAD_SCHEDULER: End scheduler "s044" with entities [EventEntity, EventEntity], work=705*
 83: 0x0488 [0x45] LOAD_SCHEDULED_TASK: Load scheduler "s049" with entities [EventEntity, EventEntity], work=[705*, 0*]
 84: 0x0499 [0x6F] WAIT_FRAME_DELAY: Yield until WaitTime reaches zero
 85: 0x049A [0x76] CHECK_ENTITY_RENDER_FLAGS: Wait until Teldro-Kesdrodo (ID: 17764608/0x010F1100) Render.Flags0 and Render.Flags3 conditions are met
 86: 0x049F [0x1C] WAIT(20* ticks)
 87: 0x04A2 [0x6E] Teldro-Kesdrodo (ID: 17764608/0x010F1100) uses emote 7*
 88: 0x04A9 [0x99] Wait for Teldro-Kesdrodo (ID: 17764608/0x010F1100) animation to complete
 89: 0x04AE [0x2B] Teldro-Kesdrodo (ID: 17764608/0x010F1100) [14538*]:
     "The ritual-witual is complete! Come, take hold."
 90: 0x04B5 [0x23] WAIT_FOR_DIALOG_INTERACTION
 91: 0x04B6 [0x4A] Yonolala (ID: 17764609/0x010F1101) looks at LocalPlayer
 92: 0x04BF [0x6F] WAIT_FRAME_DELAY: Yield until WaitTime reaches zero
 93: 0x04C0 [0x76] CHECK_ENTITY_RENDER_FLAGS: Wait until Yonolala (ID: 17764609/0x010F1101) Render.Flags0 and Render.Flags3 conditions are met
 94: 0x04C5 [0x1C] WAIT(20* ticks)
 95: 0x04C8 [0x6E] Yonolala (ID: 17764609/0x010F1101) uses emote 7*
 96: 0x04CF [0x99] Wait for Yonolala (ID: 17764609/0x010F1101) animation to complete
 97: 0x04D4 [0x2B] Yonolala (ID: 17764609/0x010F1101) [14539*]:
     "Let your feelings guide your path-wath."
 98: 0x04DB [0x23] WAIT_FOR_DIALOG_INTERACTION
 99: 0x04DC [0x52] END_LOAD_SCHEDULER: End scheduler "s049" with entities [EventEntity, EventEntity], work=705*
100: 0x04EB [0x06] ExtData[1]->WorkLocal[0] = 0
101: 0x04EE [0x01] GOTO 0x0B80
102: 0x04F1 [0x1C] WAIT(15* ticks)
103: 0x04F4 [0x45] LOAD_SCHEDULED_TASK: Load scheduler "s027" with entities [EventEntity, EventEntity], work=[705*, 0*]
104: 0x0505 [0x1A] CALL_SUBROUTINE(address=0x0043)
105: 0x0508 [0x1C] WAIT(120* ticks)
106: 0x050B [0x52] END_LOAD_SCHEDULER: End scheduler "s027" with entities [EventEntity, EventEntity], work=705*
107: 0x051A [0x45] LOAD_SCHEDULED_TASK: Load scheduler "s028" with entities [EventEntity, EventEntity], work=[705*, 0*]
108: 0x052B [0x27] REQ_SET(priority=0x08, entity_id=Teldro-Kesdrodo (ID: 17764608/0x010F1100), tag_num=0x0B)
109: 0x0532 [0x2B] Teldro-Kesdrodo (ID: 17764608/0x010F1100) [14504*]:
     "I can feel-weel your aura."
110: 0x0539 [0x1C] WAIT(60* ticks)
111: 0x053C [0x23] WAIT_FOR_DIALOG_INTERACTION
112: 0x053D [0x52] END_LOAD_SCHEDULER: End scheduler "s028" with entities [EventEntity, EventEntity], work=705*
113: 0x054C [0x45] LOAD_SCHEDULED_TASK: Load scheduler "s029" with entities [EventEntity, EventEntity], work=[705*, 0*]
114: 0x055D [0x27] REQ_SET(priority=0x08, entity_id=Yonolala (ID: 17764609/0x010F1101), tag_num=0x0B)
115: 0x0564 [0x2B] Yonolala (ID: 17764609/0x010F1101) [14505*]:
     "Yes...a strong aura."
116: 0x056B [0x1C] WAIT(60* ticks)
117: 0x056E [0x23] WAIT_FOR_DIALOG_INTERACTION
118: 0x056F [0x52] END_LOAD_SCHEDULER: End scheduler "s029" with entities [EventEntity, EventEntity], work=705*
119: 0x057E [0x45] LOAD_SCHEDULED_TASK: Load scheduler "s030" with entities [EventEntity, EventEntity], work=[705*, 0*]
120: 0x058F [0x2B] Teldro-Kesdrodo (ID: 17764608/0x010F1100) [14506*]:
     "The wheel of fataru has begun to turn..."
121: 0x0596 [0x23] WAIT_FOR_DIALOG_INTERACTION
122: 0x0597 [0x2B] Yonolala (ID: 17764609/0x010F1101) [14507*]:
     "Slowly, softly...but surely."
123: 0x059E [0x1C] WAIT(70* ticks)
124: 0x05A1 [0x2A] GET_REQ_LEVEL(level=8, entity_id=Teldro-Kesdrodo (ID: 17764608/0x010F1100))
125: 0x05A7 [0x2A] GET_REQ_LEVEL(level=8, entity_id=Yonolala (ID: 17764609/0x010F1101))
126: 0x05AD [0x23] WAIT_FOR_DIALOG_INTERACTION
127: 0x05AE [0x52] END_LOAD_SCHEDULER: End scheduler "s030" with entities [EventEntity, EventEntity], work=705*
128: 0x05BD [0x45] LOAD_SCHEDULED_TASK: Load scheduler "s031" with entities [EventEntity, EventEntity], work=[705*, 0*]
129: 0x05CE [0x27] REQ_SET(priority=0x08, entity_id=Teldro-Kesdrodo (ID: 17764608/0x010F1100), tag_num=0x0C)
130: 0x05D5 [0x2B] Teldro-Kesdrodo (ID: 17764608/0x010F1100) [14508*]:
     "I am Teldro-Kesdrodo."
131: 0x05DC [0x1C] WAIT(70* ticks)
132: 0x05DF [0x2A] GET_REQ_LEVEL(level=8, entity_id=Teldro-Kesdrodo (ID: 17764608/0x010F1100))
133: 0x05E5 [0x23] WAIT_FOR_DIALOG_INTERACTION
134: 0x05E6 [0x52] END_LOAD_SCHEDULER: End scheduler "s031" with entities [EventEntity, EventEntity], work=705*
135: 0x05F5 [0x45] LOAD_SCHEDULED_TASK: Load scheduler "s032" with entities [EventEntity, EventEntity], work=[705*, 0*]
136: 0x0606 [0x27] REQ_SET(priority=0x08, entity_id=Yonolala (ID: 17764609/0x010F1101), tag_num=0x0C)
137: 0x060D [0x2B] Yonolala (ID: 17764609/0x010F1101) [14509*]:
     "And I, Yonolala."
138: 0x0614 [0x1C] WAIT(70* ticks)
139: 0x0617 [0x2A] GET_REQ_LEVEL(level=8, entity_id=Yonolala (ID: 17764609/0x010F1101))
140: 0x061D [0x23] WAIT_FOR_DIALOG_INTERACTION
141: 0x061E [0x4A] Teldro-Kesdrodo (ID: 17764608/0x010F1100) looks at LocalPlayer
142: 0x0627 [0x4A] Yonolala (ID: 17764609/0x010F1101) looks at LocalPlayer
143: 0x0630 [0x52] END_LOAD_SCHEDULER: End scheduler "s032" with entities [EventEntity, EventEntity], work=705*
144: 0x063F [0x02] IF !(LocalPlayer->Race == 5*) GOTO 0x065B
145: 0x0647 [0x45] LOAD_SCHEDULED_TASK: Load scheduler "s037" with entities [EventEntity, EventEntity], work=[705*, 0*]
146: 0x0658 [0x01] GOTO 0x0688
147: 0x065B [0x02] IF !(LocalPlayer->Race == 6*) GOTO 0x0677
148: 0x0663 [0x45] LOAD_SCHEDULED_TASK: Load scheduler "s037" with entities [EventEntity, EventEntity], work=[705*, 0*]
149: 0x0674 [0x01] GOTO 0x0688
150: 0x0677 [0x45] LOAD_SCHEDULED_TASK: Load scheduler "s033" with entities [EventEntity, EventEntity], work=[705*, 0*]

SUBROUTINE_0688:
151: 0x0688 [0x6F] WAIT_FRAME_DELAY: Yield until WaitTime reaches zero
152: 0x0689 [0x76] CHECK_ENTITY_RENDER_FLAGS: Wait until Teldro-Kesdrodo (ID: 17764608/0x010F1100) Render.Flags0 and Render.Flags3 conditions are met
153: 0x068E [0x6F] WAIT_FRAME_DELAY: Yield until WaitTime reaches zero
154: 0x068F [0x76] CHECK_ENTITY_RENDER_FLAGS: Wait until Yonolala (ID: 17764609/0x010F1101) Render.Flags0 and Render.Flags3 conditions are met
155: 0x0694 [0x03] Work_Zone[3] = 5*
156: 0x0699 [0x2B] Teldro-Kesdrodo (ID: 17764608/0x010F1100) [14510*]:
     "The stars align this day, calling-walling you to one truth...$1..."
157: 0x06A0 [0x23] WAIT_FOR_DIALOG_INTERACTION
158: 0x06A1 [0x2B] Yonolala (ID: 17764609/0x010F1101) [14511*]:
     "...And one for all. Your destiny is to participataru in Unity Concord."
159: 0x06A8 [0x1C] WAIT(70* ticks)
160: 0x06AB [0x23] WAIT_FOR_DIALOG_INTERACTION
161: 0x06AC [0x24] CREATE_DIALOG(message_id=14512*, default_option=0*, option_flags=0*)
     "How do you respond? [Sure, I'll try it./You guys are creepy.]"
162: 0x06B3 [0x25] WAIT_DIALOG_SELECT()
163: 0x06B4 [0x02] IF !(Work_Zone[0] == 1*) GOTO 0x075A
164: 0x06BC [0x6E] LocalPlayer uses emote 6*
165: 0x06C3 [0x99] Wait for LocalPlayer animation to complete
166: 0x06C8 [0x1C] WAIT(60* ticks)
167: 0x06CB [0x52] END_LOAD_SCHEDULER: End scheduler "s033" with entities [EventEntity, EventEntity], work=705*
168: 0x06DA [0x52] END_LOAD_SCHEDULER: End scheduler "s037" with entities [EventEntity, EventEntity], work=705*
169: 0x06E9 [0x45] LOAD_SCHEDULED_TASK: Load scheduler "s034" with entities [EventEntity, EventEntity], work=[705*, 0*]
170: 0x06FA [0x7B] Teldro-Kesdrodo (ID: 17764608/0x010F1100) stops talking
171: 0x06FF [0x27] REQ_SET(priority=0x08, entity_id=Teldro-Kesdrodo (ID: 17764608/0x010F1100), tag_num=0x10)
172: 0x0706 [0x2B] Teldro-Kesdrodo (ID: 17764608/0x010F1100) [14513*]:
     "N-no! The candle-wandle of fate..."
173: 0x070D [0x23] WAIT_FOR_DIALOG_INTERACTION
174: 0x070E [0x7B] Yonolala (ID: 17764609/0x010F1101) stops talking
175: 0x0713 [0x27] REQ_SET(priority=0x08, entity_id=Yonolala (ID: 17764609/0x010F1101), tag_num=0x10)
176: 0x071A [0x2B] Yonolala (ID: 17764609/0x010F1101) [14514*]:
     "...is snuffed out before our very eyes-weyes!"
177: 0x0721 [0x1C] WAIT(70* ticks)
178: 0x0724 [0x23] WAIT_FOR_DIALOG_INTERACTION
179: 0x0725 [0x52] END_LOAD_SCHEDULER: End scheduler "s034" with entities [EventEntity, EventEntity], work=705*
180: 0x0734 [0x45] LOAD_SCHEDULED_TASK: Load scheduler "s035" with entities [EventEntity, EventEntity], work=[705*, 0*]
181: 0x0745 [0x27] REQ_SET(priority=0x08, entity_id=LocalPlayer, tag_num=0x88)
182: 0x074C [0x1C] WAIT(100* ticks)
183: 0x074F [0x03] Work_Zone[1] = 0*
184: 0x0754 [0x01] GOTO 0x1C61

SUBROUTINE_075A:
185: 0x075A [0x6E] LocalPlayer uses emote 7*
186: 0x0761 [0x99] Wait for LocalPlayer animation to complete
187: 0x0766 [0x1C] WAIT(60* ticks)
188: 0x0769 [0x52] END_LOAD_SCHEDULER: End scheduler "s033" with entities [EventEntity, EventEntity], work=705*
189: 0x0778 [0x52] END_LOAD_SCHEDULER: End scheduler "s037" with entities [EventEntity, EventEntity], work=705*
190: 0x0787 [0x45] LOAD_SCHEDULED_TASK: Load scheduler "s036" with entities [EventEntity, EventEntity], work=[705*, 0*]
191: 0x0798 [0x27] REQ_SET(priority=0x08, entity_id=Teldro-Kesdrodo (ID: 17764608/0x010F1100), tag_num=0x07)
192: 0x079F [0x2B] Teldro-Kesdrodo (ID: 17764608/0x010F1100) [14515*]:
     "The will of a higher power has broughtaru you to us..."
193: 0x07A6 [0x23] WAIT_FOR_DIALOG_INTERACTION
194: 0x07A7 [0x27] REQ_SET(priority=0x08, entity_id=Yonolala (ID: 17764609/0x010F1101), tag_num=0x07)
195: 0x07AE [0x2B] Yonolala (ID: 17764609/0x010F1101) [14516*]:
     "And forges new bonds of friendship and bravery-wavery."
196: 0x07B5 [0x23] WAIT_FOR_DIALOG_INTERACTION
197: 0x07B6 [0x2A] GET_REQ_LEVEL(level=8, entity_id=Teldro-Kesdrodo (ID: 17764608/0x010F1100))
198: 0x07BC [0x2A] GET_REQ_LEVEL(level=8, entity_id=Yonolala (ID: 17764609/0x010F1101))
199: 0x07C2 [0x52] END_LOAD_SCHEDULER: End scheduler "s036" with entities [EventEntity, EventEntity], work=705*
200: 0x07D1 [0x45] LOAD_SCHEDULED_TASK: Load scheduler "s038" with entities [EventEntity, EventEntity], work=[705*, 0*]
201: 0x07E2 [0x27] REQ_SET(priority=0x08, entity_id=Teldro-Kesdrodo (ID: 17764608/0x010F1100), tag_num=0x08)
202: 0x07E9 [0x2B] Teldro-Kesdrodo (ID: 17764608/0x010F1100) [14517*]:
     "Let the contractaru be signed."
203: 0x07F0 [0x23] WAIT_FOR_DIALOG_INTERACTION
204: 0x07F1 [0x7B] Teldro-Kesdrodo (ID: 17764608/0x010F1100) stops talking
205: 0x07F6 [0x27] REQ_SET(priority=0x08, entity_id=Yonolala (ID: 17764609/0x010F1101), tag_num=0x08)
206: 0x07FD [0x2B] Teldro-Kesdrodo (ID: 17764608/0x010F1100) [14518*]:
     "Yonolala, if you please."
207: 0x0804 [0x1C] WAIT(60* ticks)
208: 0x0807 [0x2A] GET_REQ_LEVEL(level=8, entity_id=Teldro-Kesdrodo (ID: 17764608/0x010F1100))
209: 0x080D [0x2A] GET_REQ_LEVEL(level=8, entity_id=Yonolala (ID: 17764609/0x010F1101))
210: 0x0813 [0x23] WAIT_FOR_DIALOG_INTERACTION
211: 0x0814 [0x52] END_LOAD_SCHEDULER: End scheduler "s038" with entities [EventEntity, EventEntity], work=705*
212: 0x0823 [0x45] LOAD_SCHEDULED_TASK: Load scheduler "s039" with entities [EventEntity, EventEntity], work=[705*, 0*]
213: 0x0834 [0x7B] Yonolala (ID: 17764609/0x010F1101) stops talking
214: 0x0839 [0x2B] Yonolala (ID: 17764609/0x010F1101) [14519*]:
     "Of course, Teldro-Kes...drododoro."
215: 0x0840 [0x1C] WAIT(30* ticks)
216: 0x0843 [0x5C] MUSIC_CONTROL: Set music volume to song 0*, fade_time=1*
217: 0x0849 [0x5C] MUSIC_CONTROL: Adjust music volume to song 0*, fade_time=1*
218: 0x084F [0x1C] WAIT(30* ticks)
219: 0x0852 [0x23] WAIT_FOR_DIALOG_INTERACTION
220: 0x0853 [0x4A] Teldro-Kesdrodo (ID: 17764608/0x010F1100) looks at Yonolala (ID: 17764609/0x010F1101)
221: 0x085C [0x52] END_LOAD_SCHEDULER: End scheduler "s039" with entities [EventEntity, EventEntity], work=705*
222: 0x086B [0x45] LOAD_SCHEDULED_TASK: Load scheduler "s040" with entities [EventEntity, EventEntity], work=[705*, 0*]
223: 0x087C [0x6F] WAIT_FRAME_DELAY: Yield until WaitTime reaches zero
224: 0x087D [0x76] CHECK_ENTITY_RENDER_FLAGS: Wait until Teldro-Kesdrodo (ID: 17764608/0x010F1100) Render.Flags0 and Render.Flags3 conditions are met
225: 0x0882 [0x1C] WAIT(60* ticks)
226: 0x0885 [0x4B] UPDATE_ENTITY_YAW(entity=Yonolala (ID: 17764609/0x010F1101), yaw=20.8*)
227: 0x088C [0x6F] WAIT_FRAME_DELAY: Yield until WaitTime reaches zero
228: 0x088D [0x76] CHECK_ENTITY_RENDER_FLAGS: Wait until Yonolala (ID: 17764609/0x010F1101) Render.Flags0 and Render.Flags3 conditions are met
229: 0x0892 [0x27] REQ_SET(priority=0x08, entity_id=Teldro-Kesdrodo (ID: 17764608/0x010F1100), tag_num=0x09)
230: 0x0899 [0x1C] WAIT(60* ticks)
231: 0x089C [0x48] [System] [14520*]:
     "Teldro-Kesdrodo stares Yonolala down."
232: 0x089F [0x1C] WAIT(120* ticks)
233: 0x08A2 [0x27] REQ_SET(priority=0x08, entity_id=Yonolala (ID: 17764609/0x010F1101), tag_num=0x0F)
234: 0x08A9 [0x48] [System] [14521*]:
     "Yonolala begins to squirm."
235: 0x08AC [0x1C] WAIT(120* ticks)
236: 0x08AF [0x2A] GET_REQ_LEVEL(level=8, entity_id=Teldro-Kesdrodo (ID: 17764608/0x010F1100))
237: 0x08B5 [0x27] REQ_SET(priority=0x08, entity_id=Teldro-Kesdrodo (ID: 17764608/0x010F1100), tag_num=0x0A)
238: 0x08BC [0x1C] WAIT(70* ticks)
239: 0x08BF [0x2A] GET_REQ_LEVEL(level=8, entity_id=Teldro-Kesdrodo (ID: 17764608/0x010F1100))
240: 0x08C5 [0x2A] GET_REQ_LEVEL(level=8, entity_id=Yonolala (ID: 17764609/0x010F1101))
241: 0x08CB [0x52] END_LOAD_SCHEDULER: End scheduler "s040" with entities [EventEntity, EventEntity], work=705*
242: 0x08DA [0x5C] MUSIC_CONTROL: Set music volume to song 127*, fade_time=120*
243: 0x08E0 [0x5C] MUSIC_CONTROL: Adjust music volume to song 127*, fade_time=240*
244: 0x08E6 [0x45] LOAD_SCHEDULED_TASK: Load scheduler "s041" with entities [EventEntity, EventEntity], work=[705*, 0*]
245: 0x08F7 [0x27] REQ_SET(priority=0x08, entity_id=Teldro-Kesdrodo (ID: 17764608/0x010F1100), tag_num=0x11)
246: 0x08FE [0x2B] Teldro-Kesdrodo (ID: 17764608/0x010F1100) [14522*]:
     "<Ahem> Bring it to me."
247: 0x0905 [0x1C] WAIT(70* ticks)
248: 0x0908 [0x23] WAIT_FOR_DIALOG_INTERACTION
249: 0x0909 [0x4A] Yonolala (ID: 17764609/0x010F1101) looks at Teldro-Kesdrodo (ID: 17764608/0x010F1100)
250: 0x0912 [0x52] END_LOAD_SCHEDULER: End scheduler "s041" with entities [EventEntity, EventEntity], work=705*
251: 0x0921 [0x45] LOAD_SCHEDULED_TASK: Load scheduler "s042" with entities [EventEntity, EventEntity], work=[705*, 0*]
252: 0x0932 [0x6F] WAIT_FRAME_DELAY: Yield until WaitTime reaches zero
253: 0x0933 [0x76] CHECK_ENTITY_RENDER_FLAGS: Wait until Yonolala (ID: 17764609/0x010F1101) Render.Flags0 and Render.Flags3 conditions are met
254: 0x0938 [0x2B] Yonolala (ID: 17764609/0x010F1101) [14523*]:
     "Here."
255: 0x093F [0x1C] WAIT(60* ticks)
256: 0x0942 [0x2A] GET_REQ_LEVEL(level=8, entity_id=Teldro-Kesdrodo (ID: 17764608/0x010F1100))
257: 0x0948 [0x23] WAIT_FOR_DIALOG_INTERACTION
258: 0x0949 [0x4A] Teldro-Kesdrodo (ID: 17764608/0x010F1100) looks at ??? (ID: 17764610/0x010F1102)
259: 0x0952 [0x52] END_LOAD_SCHEDULER: End scheduler "s042" with entities [EventEntity, EventEntity], work=705*
260: 0x0961 [0x45] LOAD_SCHEDULED_TASK: Load scheduler "s043" with entities [EventEntity, EventEntity], work=[705*, 0*]
261: 0x0972 [0x6F] WAIT_FRAME_DELAY: Yield until WaitTime reaches zero
262: 0x0973 [0x76] CHECK_ENTITY_RENDER_FLAGS: Wait until Teldro-Kesdrodo (ID: 17764608/0x010F1100) Render.Flags0 and Render.Flags3 conditions are met
263: 0x0978 [0x1C] WAIT(20* ticks)
264: 0x097B [0x4A] Yonolala (ID: 17764609/0x010F1101) looks at ??? (ID: 17764610/0x010F1102)
265: 0x0984 [0x6F] WAIT_FRAME_DELAY: Yield until WaitTime reaches zero
266: 0x0985 [0x76] CHECK_ENTITY_RENDER_FLAGS: Wait until Yonolala (ID: 17764609/0x010F1101) Render.Flags0 and Render.Flags3 conditions are met
267: 0x098A [0x6E] Yonolala (ID: 17764609/0x010F1101) uses emote 13*
268: 0x0991 [0x99] Wait for Yonolala (ID: 17764609/0x010F1101) animation to complete
269: 0x0996 [0x1C] WAIT(70* ticks)
270: 0x0999 [0x52] END_LOAD_SCHEDULER: End scheduler "s043" with entities [EventEntity, EventEntity], work=705*
271: 0x09A8 [0x45] LOAD_SCHEDULED_TASK: Load scheduler "s044" with entities [EventEntity, EventEntity], work=[705*, 0*]
272: 0x09B9 [0x1C] WAIT(90* ticks)
273: 0x09BC [0x29] REQ_SET_WAIT(priority=0x08, entity_id=??? (ID: 17764610/0x010F1102), tag_num=0x06)
274: 0x09C3 [0x1C] WAIT(70* ticks)
275: 0x09C6 [0x4A] LocalPlayer looks at ??? (ID: 17764610/0x010F1102)
276: 0x09CF [0x52] END_LOAD_SCHEDULER: End scheduler "s044" with entities [EventEntity, EventEntity], work=705*
277: 0x09DE [0x45] LOAD_SCHEDULED_TASK: Load scheduler "s045" with entities [EventEntity, EventEntity], work=[705*, 0*]
278: 0x09EF [0x6F] WAIT_FRAME_DELAY: Yield until WaitTime reaches zero
279: 0x09F0 [0x76] CHECK_ENTITY_RENDER_FLAGS: Wait until LocalPlayer Render.Flags0 and Render.Flags3 conditions are met
280: 0x09F5 [0x2B] Teldro-Kesdrodo (ID: 17764608/0x010F1100) [14524*]:
     "Come. Close your eyes and focus your thoughtarus on this doll."
281: 0x09FC [0x1C] WAIT(70* ticks)
282: 0x09FF [0x23] WAIT_FOR_DIALOG_INTERACTION
283: 0x0A00 [0x27] REQ_SET(priority=0x08, entity_id=LocalPlayer, tag_num=0x85)
284: 0x0A07 [0x48] [System] [14525*]:
     "You focus your thoughts on the strange doll."
285: 0x0A0A [0x2A] GET_REQ_LEVEL(level=8, entity_id=LocalPlayer)
286: 0x0A10 [0x27] REQ_SET(priority=0x08, entity_id=Yonolala (ID: 17764609/0x010F1101), tag_num=0x12)
287: 0x0A17 [0x1A] CALL_SUBROUTINE(address=0x0064)
288: 0x0A1A [0x52] END_LOAD_SCHEDULER: End scheduler "s045" with entities [EventEntity, EventEntity], work=705*
289: 0x0A29 [0x1C] WAIT(80* ticks)
290: 0x0A2C [0x48] [System] [14526*]:
     "Yonolala swiftly and secretly inscribes your name on the doll's backside."
291: 0x0A2F [0x2A] GET_REQ_LEVEL(level=8, entity_id=Yonolala (ID: 17764609/0x010F1101))
292: 0x0A35 [0x1C] WAIT(180* ticks)
293: 0x0A38 [0x27] REQ_SET(priority=0x08, entity_id=Yonolala (ID: 17764609/0x010F1101), tag_num=0x13)
294: 0x0A3F [0x45] LOAD_SCHEDULED_TASK: Load scheduler "s046" with entities [EventEntity, EventEntity], work=[705*, 0*]
295: 0x0A50 [0x1C] WAIT(5* ticks)
296: 0x0A53 [0x1A] CALL_SUBROUTINE(address=0x0043)
297: 0x0A56 [0x1C] WAIT(50* ticks)
298: 0x0A59 [0x2A] GET_REQ_LEVEL(level=8, entity_id=Yonolala (ID: 17764609/0x010F1101))
299: 0x0A5F [0x27] REQ_SET(priority=0x08, entity_id=LocalPlayer, tag_num=0x86)
300: 0x0A66 [0x2B] Teldro-Kesdrodo (ID: 17764608/0x010F1100) [14527*]:
     "Oh my! Y-Yonolala, look!"
301: 0x0A6D [0x2A] GET_REQ_LEVEL(level=8, entity_id=LocalPlayer)
302: 0x0A73 [0x29] REQ_SET_WAIT(priority=0x08, entity_id=LocalPlayer, tag_num=0x87)
303: 0x0A7A [0x1C] WAIT(40* ticks)
304: 0x0A7D [0x23] WAIT_FOR_DIALOG_INTERACTION
305: 0x0A7E [0x52] END_LOAD_SCHEDULER: End scheduler "s046" with entities [EventEntity, EventEntity], work=705*
306: 0x0A8D [0x45] LOAD_SCHEDULED_TASK: Load scheduler "s047" with entities [EventEntity, EventEntity], work=[705*, 0*]
307: 0x0A9E [0x27] REQ_SET(priority=0x08, entity_id=Yonolala (ID: 17764609/0x010F1101), tag_num=0x0D)
308: 0x0AA5 [0x2B] Yonolala (ID: 17764609/0x010F1101) [14528*]:
     "Your name mysterious-weriously appeared on the doll! How could it...!?"
309: 0x0AAC [0x23] WAIT_FOR_DIALOG_INTERACTION
310: 0x0AAD [0x2A] GET_REQ_LEVEL(level=8, entity_id=Yonolala (ID: 17764609/0x010F1101))
311: 0x0AB3 [0x4A] Teldro-Kesdrodo (ID: 17764608/0x010F1100) looks at LocalPlayer
312: 0x0ABC [0x52] END_LOAD_SCHEDULER: End scheduler "s047" with entities [EventEntity, EventEntity], work=705*
313: 0x0ACB [0x45] LOAD_SCHEDULED_TASK: Load scheduler "s048" with entities [EventEntity, EventEntity], work=[705*, 0*]
314: 0x0ADC [0x6F] WAIT_FRAME_DELAY: Yield until WaitTime reaches zero
315: 0x0ADD [0x76] CHECK_ENTITY_RENDER_FLAGS: Wait until Teldro-Kesdrodo (ID: 17764608/0x010F1100) Render.Flags0 and Render.Flags3 conditions are met
316: 0x0AE2 [0x27] REQ_SET(priority=0x08, entity_id=Teldro-Kesdrodo (ID: 17764608/0x010F1100), tag_num=0x07)
317: 0x0AE9 [0x2B] Teldro-Kesdrodo (ID: 17764608/0x010F1100) [14529*]:
     "Oh, brave hero, let me proffer to you words regarding Unity Concord directaruly from the mouth of Altana herself!"
318: 0x0AF0 [0x1C] WAIT(30* ticks)
319: 0x0AF3 [0x4A] Yonolala (ID: 17764609/0x010F1101) looks at LocalPlayer
320: 0x0AFC [0x6F] WAIT_FRAME_DELAY: Yield until WaitTime reaches zero
321: 0x0AFD [0x76] CHECK_ENTITY_RENDER_FLAGS: Wait until Yonolala (ID: 17764609/0x010F1101) Render.Flags0 and Render.Flags3 conditions are met
322: 0x0B02 [0x23] WAIT_FOR_DIALOG_INTERACTION
323: 0x0B03 [0x2B] Teldro-Kesdrodo (ID: 17764608/0x010F1100) [14530*]:
     "Unity Concord is a system most revolutionary initiated-wated by the Adventurers' Mutual Aid Network (A.M.A.N.)..."
324: 0x0B0A [0x23] WAIT_FOR_DIALOG_INTERACTION
325: 0x0B0B [0x2A] GET_REQ_LEVEL(level=8, entity_id=Teldro-Kesdrodo (ID: 17764608/0x010F1100))
326: 0x0B11 [0x27] REQ_SET(priority=0x08, entity_id=Teldro-Kesdrodo (ID: 17764608/0x010F1100), tag_num=0x08)
327: 0x0B18 [0x2B] Teldro-Kesdrodo (ID: 17764608/0x010F1100) [14531*]:
     "...That incorporates disparate adventurers in groups for a greater-weater cause."
328: 0x0B1F [0x23] WAIT_FOR_DIALOG_INTERACTION
329: 0x0B20 [0x2A] GET_REQ_LEVEL(level=8, entity_id=Teldro-Kesdrodo (ID: 17764608/0x010F1100))
330: 0x0B26 [0x52] END_LOAD_SCHEDULER: End scheduler "s048" with entities [EventEntity, EventEntity], work=705*
331: 0x0B35 [0x45] LOAD_SCHEDULED_TASK: Load scheduler "s049" with entities [EventEntity, EventEntity], work=[705*, 0*]
332: 0x0B46 [0x6E] Yonolala (ID: 17764609/0x010F1101) uses emote 7*
333: 0x0B4D [0x99] Wait for Yonolala (ID: 17764609/0x010F1101) animation to complete
334: 0x0B52 [0x2B] Yonolala (ID: 17764609/0x010F1101) [14532*]:
     "Yes! I sense your adventures will be even more resplendentaru with Unity members by your side."
335: 0x0B59 [0x23] WAIT_FOR_DIALOG_INTERACTION
336: 0x0B5A [0x6E] Teldro-Kesdrodo (ID: 17764608/0x010F1100) uses emote 7*
337: 0x0B61 [0x99] Wait for Teldro-Kesdrodo (ID: 17764608/0x010F1100) animation to complete
338: 0x0B66 [0x2B] Teldro-Kesdrodo (ID: 17764608/0x010F1100) [14533*]:
     "To which Unity will the Goddess guide-wuide you this day?"
339: 0x0B6D [0x23] WAIT_FOR_DIALOG_INTERACTION
340: 0x0B6E [0x52] END_LOAD_SCHEDULER: End scheduler "s049" with entities [EventEntity, EventEntity], work=705*
341: 0x0B7D [0x06] ExtData[1]->WorkLocal[0] = 0

SUBROUTINE_0B80:
342: 0x0B80 [0x45] LOAD_SCHEDULED_TASK: Load scheduler "s050" with entities [EventEntity, EventEntity], work=[705*, 0*]
343: 0x0B91 [0x6F] WAIT_FRAME_DELAY: Yield until WaitTime reaches zero
344: 0x0B92 [0x76] CHECK_ENTITY_RENDER_FLAGS: Wait until Teldro-Kesdrodo (ID: 17764608/0x010F1100) Render.Flags0 and Render.Flags3 conditions are met
345: 0x0B97 [0x24] CREATE_DIALOG(message_id=14416*, default_option=ExtData[1]->WorkLocal[0], option_flags=0*)
     "Join which Unity? [I need time to consider./Pieuje./Ayame./Invincible Shield./Apururu./Maat./Aldo./Jakoh Wahcondalo./Naja Salaheem./Flaviria./Yoran-Oran./Sylvie.]"
346: 0x0B9E [0x25] WAIT_DIALOG_SELECT()
347: 0x0B9F [0x02] IF !(Work_Zone[0] == 0*) GOTO 0x0C55
348: 0x0BA7 [0x6E] LocalPlayer uses emote 35*
349: 0x0BAE [0x99] Wait for LocalPlayer animation to complete
350: 0x0BB3 [0x1C] WAIT(70* ticks)
351: 0x0BB6 [0x52] END_LOAD_SCHEDULER: End scheduler "s050" with entities [EventEntity, EventEntity], work=705*
352: 0x0BC5 [0x45] LOAD_SCHEDULED_TASK: Load scheduler "s031" with entities [EventEntity, EventEntity], work=[705*, 0*]
353: 0x0BD6 [0x27] REQ_SET(priority=0x08, entity_id=Teldro-Kesdrodo (ID: 17764608/0x010F1100), tag_num=0x0E)
354: 0x0BDD [0x2B] Teldro-Kesdrodo (ID: 17764608/0x010F1100) [14534*]:
     "Can a fate-wate that was written in stone be eroded so easily?"
355: 0x0BE4 [0x1C] WAIT(70* ticks)
356: 0x0BE7 [0x23] WAIT_FOR_DIALOG_INTERACTION
357: 0x0BE8 [0x52] END_LOAD_SCHEDULER: End scheduler "s031" with entities [EventEntity, EventEntity], work=705*
358: 0x0BF7 [0x45] LOAD_SCHEDULED_TASK: Load scheduler "s032" with entities [EventEntity, EventEntity], work=[705*, 0*]
359: 0x0C08 [0x27] REQ_SET(priority=0x08, entity_id=Yonolala (ID: 17764609/0x010F1101), tag_num=0x0D)
360: 0x0C0F [0x2B] Yonolala (ID: 17764609/0x010F1101) [14535*]:
     "No! It can't!"
361: 0x0C16 [0x1C] WAIT(70* ticks)
362: 0x0C19 [0x23] WAIT_FOR_DIALOG_INTERACTION
363: 0x0C1A [0x52] END_LOAD_SCHEDULER: End scheduler "s032" with entities [EventEntity, EventEntity], work=705*
364: 0x0C29 [0x45] LOAD_SCHEDULED_TASK: Load scheduler "s035" with entities [EventEntity, EventEntity], work=[705*, 0*]
365: 0x0C3A [0x2B] Teldro-Kesdrodo (ID: 17764608/0x010F1100) [14536*]:
     "We'll hold onto your doll for now until your spiritaru is ready to accept our gifts."
366: 0x0C41 [0x23] WAIT_FOR_DIALOG_INTERACTION
367: 0x0C42 [0x2B] Yonolala (ID: 17764609/0x010F1101) [14537*]:
     "Until then!"
368: 0x0C49 [0x23] WAIT_FOR_DIALOG_INTERACTION
369: 0x0C4A [0x03] Work_Zone[1] = 99*
370: 0x0C4F [0x01] GOTO 0x1C61

SUBROUTINE_0C55:
371: 0x0C55 [0x52] END_LOAD_SCHEDULER: End scheduler "s050" with entities [EventEntity, EventEntity], work=705*
372: 0x0C64 [0x02] IF !(LocalPlayer->Race == 5*) GOTO 0x0C80
373: 0x0C6C [0x45] LOAD_SCHEDULED_TASK: Load scheduler "s052" with entities [EventEntity, EventEntity], work=[705*, 0*]
374: 0x0C7D [0x01] GOTO 0x0CAD
375: 0x0C80 [0x02] IF !(LocalPlayer->Race == 6*) GOTO 0x0C9C
376: 0x0C88 [0x45] LOAD_SCHEDULED_TASK: Load scheduler "s052" with entities [EventEntity, EventEntity], work=[705*, 0*]
377: 0x0C99 [0x01] GOTO 0x0CAD
378: 0x0C9C [0x45] LOAD_SCHEDULED_TASK: Load scheduler "s051" with entities [EventEntity, EventEntity], work=[705*, 0*]

SUBROUTINE_0CAD:
379: 0x0CAD [0x03] ExtData[1]->WorkLocal[0] = Work_Zone[0]
380: 0x0CB2 [0x03] Work_Zone[2] = Work_Zone[0]
381: 0x0CB7 [0x0C] Work_Zone[2]--
382: 0x0CBA [0x2B] Teldro-Kesdrodo (ID: 17764608/0x010F1100) [14540*]:
     "You desire to be led-wed to [Pieuje's/Ayame's/Invincible Shield's/Apururu's/Maat's/Aldo's/Jakoh Wahcondalo's/Naja Salaheem's/Flaviria's/Yoran-Oran's/Sylvie's] Unity, correct?"
383: 0x0CC1 [0x23] WAIT_FOR_DIALOG_INTERACTION
384: 0x0CC2 [0x48] [System] [14417*]:
     "Should you join one Unity, you will not be able to switch to another one until the rankings are tallied. Proceed anyway?"
385: 0x0CC5 [0x24] CREATE_DIALOG(message_id=14418*, default_option=1*, option_flags=0*)
     "Join [Pieuje's/Ayame's/Invincible Shield's/Apururu's/Maat's/Aldo's/Jakoh Wahcondalo's/Naja Salaheem's/Flaviria's/Yoran-Oran's/Sylvie's] Unity? [Yes./No.]"
386: 0x0CCC [0x25] WAIT_DIALOG_SELECT()
387: 0x0CCD [0x02] IF !(Work_Zone[0] == 0*) GOTO 0x0CE0
388: 0x0CD5 [0x0B] Work_Zone[2]++
389: 0x0CD8 [0x03] ExtData[1]->WorkLocal[1] = Work_Zone[2]
390: 0x0CDD [0x01] GOTO 0x0D0C
391: 0x0CE0 [0x02] IF !(Work_Zone[0] == 1*) GOTO 0x0D0C
392: 0x0CE8 [0x52] END_LOAD_SCHEDULER: End scheduler "s051" with entities [EventEntity, EventEntity], work=705*
393: 0x0CF7 [0x52] END_LOAD_SCHEDULER: End scheduler "s052" with entities [EventEntity, EventEntity], work=705*
394: 0x0D06 [0x01] GOTO 0x0B80

SUBROUTINE_0D0C:
395: 0x0D0C [0x52] END_LOAD_SCHEDULER: End scheduler "s051" with entities [EventEntity, EventEntity], work=705*
396: 0x0D1B [0x52] END_LOAD_SCHEDULER: End scheduler "s052" with entities [EventEntity, EventEntity], work=705*
397: 0x0D2A [0x45] LOAD_SCHEDULED_TASK: Load scheduler "s053" with entities [EventEntity, EventEntity], work=[705*, 0*]
398: 0x0D3B [0x27] REQ_SET(priority=0x08, entity_id=Teldro-Kesdrodo (ID: 17764608/0x010F1100), tag_num=0x0B)
399: 0x0D42 [0x2B] Teldro-Kesdrodo (ID: 17764608/0x010F1100) [14541*]:
     "Yes...experience-werience the doll's energy in its most primal form!"
400: 0x0D49 [0x23] WAIT_FOR_DIALOG_INTERACTION
401: 0x0D4A [0x27] REQ_SET(priority=0x08, entity_id=Yonolala (ID: 17764609/0x010F1101), tag_num=0x0B)
402: 0x0D51 [0x2B] Yonolala (ID: 17764609/0x010F1101) [14542*]:
     "Your fortune is now in the hands of your Unity leader-weader. Listen to what they have to say."
403: 0x0D58 [0x1C] WAIT(70* ticks)
404: 0x0D5B [0x2A] GET_REQ_LEVEL(level=8, entity_id=Teldro-Kesdrodo (ID: 17764608/0x010F1100))
405: 0x0D61 [0x2A] GET_REQ_LEVEL(level=8, entity_id=Yonolala (ID: 17764609/0x010F1101))
406: 0x0D67 [0x23] WAIT_FOR_DIALOG_INTERACTION
407: 0x0D68 [0x4A] LocalPlayer looks at ??? (ID: 17764610/0x010F1102)
408: 0x0D71 [0x52] END_LOAD_SCHEDULER: End scheduler "s053" with entities [EventEntity, EventEntity], work=705*
409: 0x0D80 [0x02] IF !(LocalPlayer->Race == 5*) GOTO 0x0D9C
410: 0x0D88 [0x45] LOAD_SCHEDULED_TASK: Load scheduler "s055" with entities [EventEntity, EventEntity], work=[705*, 0*]
411: 0x0D99 [0x01] GOTO 0x0DC9
412: 0x0D9C [0x02] IF !(LocalPlayer->Race == 6*) GOTO 0x0DB8
413: 0x0DA4 [0x45] LOAD_SCHEDULED_TASK: Load scheduler "s055" with entities [EventEntity, EventEntity], work=[705*, 0*]
414: 0x0DB5 [0x01] GOTO 0x0DC9
415: 0x0DB8 [0x45] LOAD_SCHEDULED_TASK: Load scheduler "s054" with entities [EventEntity, EventEntity], work=[705*, 0*]

SUBROUTINE_0DC9:
416: 0x0DC9 [0x6F] WAIT_FRAME_DELAY: Yield until WaitTime reaches zero
417: 0x0DCA [0x76] CHECK_ENTITY_RENDER_FLAGS: Wait until LocalPlayer Render.Flags0 and Render.Flags3 conditions are met
418: 0x0DCF [0x1C] WAIT(30* ticks)
419: 0x0DD2 [0x27] REQ_SET(priority=0x08, entity_id=Teldro-Kesdrodo (ID: 17764608/0x010F1100), tag_num=0x0C)
420: 0x0DD9 [0x27] REQ_SET(priority=0x08, entity_id=Yonolala (ID: 17764609/0x010F1101), tag_num=0x0C)
421: 0x0DE0 [0x4A] Teldro-Kesdrodo (ID: 17764608/0x010F1100) looks at ??? (ID: 17764610/0x010F1102)
422: 0x0DE9 [0x4A] Yonolala (ID: 17764609/0x010F1101) looks at ??? (ID: 17764610/0x010F1102)
423: 0x0DF2 [0x5C] MUSIC_CONTROL: Set music volume to song 0*, fade_time=200*
424: 0x0DF8 [0x5C] MUSIC_CONTROL: Adjust music volume to song 0*, fade_time=400*
425: 0x0DFE [0x6E] LocalPlayer uses emote 0*
426: 0x0E05 [0x99] Wait for LocalPlayer animation to complete
427: 0x0E0A [0x1C] WAIT(60* ticks)
428: 0x0E0D [0x52] END_LOAD_SCHEDULER: End scheduler "s054" with entities [EventEntity, EventEntity], work=705*
429: 0x0E1C [0x52] END_LOAD_SCHEDULER: End scheduler "s055" with entities [EventEntity, EventEntity], work=705*
430: 0x0E2B [0x45] LOAD_SCHEDULED_TASK: Load scheduler "s056" with entities [EventEntity, EventEntity], work=[705*, 0*]
431: 0x0E3C [0x1C] WAIT(20* ticks)
432: 0x0E3F [0x48] [System] [14613*]:
     "@@"
433: 0x0E42 [0x23] WAIT_FOR_DIALOG_INTERACTION
434: 0x0E43 [0x1C] WAIT(60* ticks)
435: 0x0E46 [0x03] Work_Zone[1] = ExtData[1]->WorkLocal[1]
436: 0x0E4B [0x43] SEND_EVENT_UPDATE: Send pending tag to server (packet 0x005B)
437: 0x0E4D [0x43] SEND_EVENT_UPDATE: Check pending flag (skip if not pending)
438: 0x0E4F [0x03] ExtData[1]->WorkLocal[2] = Work_Zone[2]
439: 0x0E54 [0x02] IF !(ExtData[1]->WorkLocal[1] == 1*) GOTO 0x0F08
440: 0x0E5C [0x5C] MUSIC_CONTROL: Set Idle (Day) music to song 156*
441: 0x0E60 [0x5C] MUSIC_CONTROL: Set Idle (Night) music to song 156*
442: 0x0E64 [0x9A] WAIT_MUSIC_SERVER()
443: 0x0E65 [0x5D] SET_MUSIC_VOLUME(volume=127*, fade_time=1*)
444: 0x0E6A [0x29] REQ_SET_WAIT(priority=0x10, entity_id=??? (ID: 17764611/0x010F1103), tag_num=0x03)
445: 0x0E71 [0x02] IF !(ExtData[1]->WorkLocal[2] == 0*) GOTO 0x0E84
446: 0x0E79 [0x2B] ??? (ID: 17764611/0x010F1103) [14238*]:
     "I understand that you are...an adventurer? My name is Pieuje I. d'Oraguille, commander of San d'Oria's famed Temple Knights."
447: 0x0E80 [0x23] WAIT_FOR_DIALOG_INTERACTION
448: 0x0E81 [0x01] GOTO 0x0EDD
449: 0x0E84 [0x02] IF !(ExtData[1]->WorkLocal[2] == 1*) GOTO 0x0E9F
450: 0x0E8C [0x2B] ??? (ID: 17764611/0x010F1103) [14239*]:
     "Is that <Player>'s voice I hear?"
451: 0x0E93 [0x23] WAIT_FOR_DIALOG_INTERACTION
452: 0x0E94 [0x2B] ??? (ID: 17764611/0x010F1103) [14240*]:
     "Forgive me, but I am more accustomed to recognizing faces than voices, especially through such a peculiar device."
453: 0x0E9B [0x23] WAIT_FOR_DIALOG_INTERACTION
454: 0x0E9C [0x01] GOTO 0x0EDD
455: 0x0E9F [0x02] IF !(ExtData[1]->WorkLocal[2] == 2*) GOTO 0x0EBA
456: 0x0EA7 [0x2B] ??? (ID: 17764611/0x010F1103) [14239*]:
     "Is that <Player>'s voice I hear?"
457: 0x0EAE [0x23] WAIT_FOR_DIALOG_INTERACTION
458: 0x0EAF [0x2B] ??? (ID: 17764611/0x010F1103) [14241*]:
     "I must thank you for your handling of the Altedour incident in Fei'Yin."
459: 0x0EB6 [0x23] WAIT_FOR_DIALOG_INTERACTION
460: 0x0EB7 [0x01] GOTO 0x0EDD
461: 0x0EBA [0x02] IF !(ExtData[1]->WorkLocal[2] == 3*) GOTO 0x0ED5
462: 0x0EC2 [0x2B] ??? (ID: 17764611/0x010F1103) [14239*]:
     "Is that <Player>'s voice I hear?"
463: 0x0EC9 [0x23] WAIT_FOR_DIALOG_INTERACTION
464: 0x0ECA [0x2B] ??? (ID: 17764611/0x010F1103) [14242*]:
     "Never once have I forgotten your dedication to protecting all of San d'Oria."
465: 0x0ED1 [0x23] WAIT_FOR_DIALOG_INTERACTION
466: 0x0ED2 [0x01] GOTO 0x0EDD
467: 0x0ED5 [0x2B] ??? (ID: 17764611/0x010F1103) [14238*]:
     "I understand that you are...an adventurer? My name is Pieuje I. d'Oraguille, commander of San d'Oria's famed Temple Knights."
468: 0x0EDC [0x23] WAIT_FOR_DIALOG_INTERACTION

SUBROUTINE_0EDD:
469: 0x0EDD [0x2B] ??? (ID: 17764611/0x010F1103) [14243*]:
     "As you are doubtlessly aware, a short time ago I received a memorandum from the Adventurers' Mutual Aid Network detailing Unity Concord and requesting my services as a Unity leader."
470: 0x0EE4 [0x23] WAIT_FOR_DIALOG_INTERACTION
471: 0x0EE5 [0x2B] ??? (ID: 17764611/0x010F1103) [14244*]:
     "Tell me. Is there any greater way for a prince regent to earn honor for his kingdom than by spearheading a group dedicated to purging evil from the land?"
472: 0x0EEC [0x23] WAIT_FOR_DIALOG_INTERACTION
473: 0x0EED [0x2B] ??? (ID: 17764611/0x010F1103) [14245*]:
     "Many around me were opposed, but that bothered me not. My brother, Trion, serves as a representative of the Trust initiative, and it falls to me to up the ante."
474: 0x0EF4 [0x23] WAIT_FOR_DIALOG_INTERACTION
475: 0x0EF5 [0x2B] ??? (ID: 17764611/0x010F1103) [14246*]:
     "I cannot lie. That was an important factor in my decision."
476: 0x0EFC [0x23] WAIT_FOR_DIALOG_INTERACTION
477: 0x0EFD [0x2B] ??? (ID: 17764611/0x010F1103) [14247*]:
     "But be not concerned with our internal squabbles. Know only that it pleases me to welcome you to my Unity."
478: 0x0F04 [0x23] WAIT_FOR_DIALOG_INTERACTION
479: 0x0F05 [0x01] GOTO 0x193D
480: 0x0F08 [0x02] IF !(ExtData[1]->WorkLocal[1] == 2*) GOTO 0x0FA9
481: 0x0F10 [0x5C] MUSIC_CONTROL: Set Idle (Day) music to song 154*
482: 0x0F14 [0x5C] MUSIC_CONTROL: Set Idle (Night) music to song 154*
483: 0x0F18 [0x9A] WAIT_MUSIC_SERVER()
484: 0x0F19 [0x5D] SET_MUSIC_VOLUME(volume=127*, fade_time=1*)
485: 0x0F1E [0x29] REQ_SET_WAIT(priority=0x10, entity_id=??? (ID: 17764611/0x010F1103), tag_num=0x04)
486: 0x0F25 [0x02] IF !(ExtData[1]->WorkLocal[2] == 0*) GOTO 0x0F38
487: 0x0F2D [0x2B] ??? (ID: 17764611/0x010F1103) [14248*]:
     "My name is Ayame, a ranking member of the Mythril Musketeers. Pleased to make your acquaintance."
488: 0x0F34 [0x23] WAIT_FOR_DIALOG_INTERACTION
489: 0x0F35 [0x01] GOTO 0x0F76
490: 0x0F38 [0x02] IF !(ExtData[1]->WorkLocal[2] == 1*) GOTO 0x0F53
491: 0x0F40 [0x2B] ??? (ID: 17764611/0x010F1103) [14249*]:
     "Haha...yes, <Player>, of course I remember you. How characteristic of you to have your fingers in everyone's pies."
492: 0x0F47 [0x23] WAIT_FOR_DIALOG_INTERACTION
493: 0x0F48 [0x2B] ??? (ID: 17764611/0x010F1103) [14250*]:
     "Do not think me ungrateful. No, I am always pleased to have your help, but this time things are a bit different."
494: 0x0F4F [0x23] WAIT_FOR_DIALOG_INTERACTION
495: 0x0F50 [0x01] GOTO 0x0F76
496: 0x0F53 [0x02] IF !(ExtData[1]->WorkLocal[2] == 2*) GOTO 0x0F6E
497: 0x0F5B [0x2B] ??? (ID: 17764611/0x010F1103) [14249*]:
     "Haha...yes, <Player>, of course I remember you. How characteristic of you to have your fingers in everyone's pies."
498: 0x0F62 [0x23] WAIT_FOR_DIALOG_INTERACTION
499: 0x0F63 [0x2B] ??? (ID: 17764611/0x010F1103) [14251*]:
     "Do not think me ungrateful. You strengthened the Mythril Musketeers in ways I never thought possible, and we are closer than ever before."
500: 0x0F6A [0x23] WAIT_FOR_DIALOG_INTERACTION
501: 0x0F6B [0x01] GOTO 0x0F76
502: 0x0F6E [0x2B] ??? (ID: 17764611/0x010F1103) [14248*]:
     "My name is Ayame, a ranking member of the Mythril Musketeers. Pleased to make your acquaintance."
503: 0x0F75 [0x23] WAIT_FOR_DIALOG_INTERACTION

SUBROUTINE_0F76:
504: 0x0F76 [0x2B] ??? (ID: 17764611/0x010F1103) [14252*]:
     "Not terribly long ago I was contacted by the Adventurers' Mutual Aid Network, which asked that I head a Unity."
505: 0x0F7D [0x23] WAIT_FOR_DIALOG_INTERACTION
506: 0x0F7E [0x2B] ??? (ID: 17764611/0x010F1103) [14253*]:
     "At first I was flustered and thought of turning the offer down. Why would they pick me when there are others more qualified?"
507: 0x0F85 [0x23] WAIT_FOR_DIALOG_INTERACTION
508: 0x0F86 [0x2B] ??? (ID: 17764611/0x010F1103) [14254*]:
     "But Volker decided it would be the perfect opportunity for me to develop my leadership skills, and told them I would accept...without my knowledge."
509: 0x0F8D [0x23] WAIT_FOR_DIALOG_INTERACTION
510: 0x0F8E [0x2B] ??? (ID: 17764611/0x010F1103) [14255*]:
     "Though unconvinced that I am the best fit, I pledge to dedicate myself wholly to this endeavor."
511: 0x0F95 [0x23] WAIT_FOR_DIALOG_INTERACTION
512: 0x0F96 [0x2B] ??? (ID: 17764611/0x010F1103) [14256*]:
     "People are counting on me. Not only Volker, but those like you who have pledged their support."
513: 0x0F9D [0x23] WAIT_FOR_DIALOG_INTERACTION
514: 0x0F9E [0x2B] ??? (ID: 17764611/0x010F1103) [14257*]:
     "I will not let you down."
515: 0x0FA5 [0x23] WAIT_FOR_DIALOG_INTERACTION
516: 0x0FA6 [0x01] GOTO 0x193D
517: 0x0FA9 [0x02] IF !(ExtData[1]->WorkLocal[1] == 3*) GOTO 0x106E
518: 0x0FB1 [0x3E] IF !(ExtData[1]->WorkLocal[5] bit 4*) GOTO 0x0FC3
519: 0x0FB8 [0x5C] MUSIC_CONTROL: Set Idle (Day) music to song 180*
520: 0x0FBC [0x5C] MUSIC_CONTROL: Set Idle (Night) music to song 180*
521: 0x0FC0 [0x01] GOTO 0x0FCB
522: 0x0FC3 [0x5C] MUSIC_CONTROL: Set Idle (Day) music to song 120*
523: 0x0FC7 [0x5C] MUSIC_CONTROL: Set Idle (Night) music to song 120*

SUBROUTINE_0FCB:
524: 0x0FCB [0x9A] WAIT_MUSIC_SERVER()
525: 0x0FCC [0x5D] SET_MUSIC_VOLUME(volume=127*, fade_time=1*)
526: 0x0FD1 [0x2B] Invincible Shield (ID: 17764612/0x010F1104) [14258*]:
     "Stand sharp, maggot! I've got no time for people who're gonna slack off!"
527: 0x0FD8 [0x23] WAIT_FOR_DIALOG_INTERACTION
528: 0x0FD9 [0x02] IF !(ExtData[1]->WorkLocal[2] == 1*) GOTO 0x0FE9
529: 0x0FE1 [0x2B] Invincible Shield (ID: 17764612/0x010F1104) [14259*]:
     "...Wait. That's you, isn't it, <Player>?"
530: 0x0FE8 [0x23] WAIT_FOR_DIALOG_INTERACTION
531: 0x0FE9 [0x2B] Invincible Shield (ID: 17764612/0x010F1104) [14260*]:
     "I hear you've decided to join my backbreaking Unity."
532: 0x0FF0 [0x23] WAIT_FOR_DIALOG_INTERACTION
533: 0x0FF1 [0x1C] WAIT(60* ticks)
534: 0x0FF4 [0x1C] WAIT(120* ticks)
535: 0x0FF7 [0x2B] Invincible Shield (ID: 17764612/0x010F1104) [14261*]:
     "Well!? What've you got to say for yourself!?"
536: 0x0FFE [0x23] WAIT_FOR_DIALOG_INTERACTION
537: 0x0FFF [0x03] ExtData[1]->WorkLocal[3] = 4*
538: 0x1004 [0x06] ExtData[1]->WorkLocal[4] = 0

SUBROUTINE_1007:
539: 0x1007 [0x24] CREATE_DIALOG(message_id=14262*, default_option=0*, option_flags=ExtData[1]->WorkLocal[3])
     "How do you respond? [That's right./Nope./Y-yessir!]"
540: 0x100E [0x25] WAIT_DIALOG_SELECT()
541: 0x100F [0x02] IF !(Work_Zone[0] == 2*) GOTO 0x1058
542: 0x1017 [0x03] ExtData[1]->WorkLocal[3] = 3*
543: 0x101C [0x02] IF !(ExtData[1]->WorkLocal[4] == 0*) GOTO 0x1035
544: 0x1024 [0x2B] Invincible Shield (ID: 17764612/0x010F1104) [14264*]:
     "Better. Everyone in my Unity is equal--you're all worthless whelps!"
545: 0x102B [0x23] WAIT_FOR_DIALOG_INTERACTION
546: 0x102C [0x05] ExtData[1]->WorkLocal[4] = 1
547: 0x102F [0x01] GOTO 0x1007

SUBROUTINE_1055:
548: 0x1055 [0x01] GOTO 0x106B
549: 0x1058 [0x13] Work_Zone[2] = rand() % 3*
550: 0x105D [0x2B] Invincible Shield (ID: 17764612/0x010F1104) [14263*]:
