# 17764603 - Fhelm Jobeizat

## Common Data

| Field            | Value                    |
|------------------|--------------------------|
| Zone             | Windurst Woods (ID: 241) |
| Block Size       | 15964 bytes              |
| Total Events     | 6                        |
| References Count | 923                      |

## List of Events

| Event ID              | Entrypoint   |   Size |   Instructions |
|-----------------------|--------------|--------|----------------|
| [65535](#event-65535) | 0x0000       |      1 |              1 |
| [848](#event-848)     | 0x0001       |   2950 |            418 |
| [849](#event-849)     | 0x0B87       |     30 |              8 |
| [850](#event-850)     | 0x0BA5       |   8499 |           1091 |
| [860](#event-860)     | 0x2CD8       |    750 |             86 |
| [876](#event-876)     | 0x2FC6       |      1 |              1 |

## DAT References (imed_data)

|   Index | Hex Value   |   Dec Value |
|---------|-------------|-------------|
|       0 | 0x0093      |         147 |
|       1 | 0x16401     |       91137 |
|       2 | 0xFFFF5817  |  4294924311 |
|       3 | 0xFFFFEED2  |  4294962898 |
|       4 | 0x00A7      |         167 |
|       5 | 0x15F82     |       89986 |
|       6 | 0xFFFF582A  |  4294924330 |
|       7 | 0xFFFFEF62  |  4294963042 |
|       8 | 0x0577      |        1399 |
|       9 | 0x0000      |           0 |
|      10 | 0x0001      |           1 |
|      11 | 0x0031      |          49 |
|      12 | 0x0028      |          40 |
|      13 | 0x00A3      |         163 |
|      14 | 0x001E      |          30 |
|      15 | 0x0274      |         628 |
|      16 | 0x000A      |          10 |
|      17 | 0x004B      |          75 |
|      18 | 0x35FE      |       13822 |
|      19 | 0x003B      |          59 |
|      20 | 0x2B67      |       11111 |
|      21 | 0x35FF      |       13823 |
|      22 | 0x3600      |       13824 |
|      23 | 0x0007      |           7 |
|      24 | 0x003C      |          60 |
|      25 | 0x3604      |       13828 |
|      26 | 0x0004      |           4 |
|      27 | 0x0016      |          22 |
|      28 | 0x005A      |          90 |
|      29 | 0x3603      |       13827 |
|      30 | 0x0006      |           6 |
|      31 | 0x3602      |       13826 |
|      32 | 0x0002      |           2 |
|      33 | 0x0010      |          16 |
|      34 | 0x3601      |       13825 |
|      35 | 0x3605      |       13829 |
|      36 | 0x000E      |          14 |
|      37 | 0x0080      |         128 |
|      38 | 0x09A2      |        2466 |
|      39 | 0x3606      |       13830 |
|      40 | 0x0005      |           5 |
|      41 | 0x00FC      |         252 |
|      42 | 0x3622      |       13858 |
|      43 | 0x3607      |       13831 |
|      44 | 0x3608      |       13832 |
|      45 | 0x0024      |          36 |
|      46 | 0x3609      |       13833 |
|      47 | 0x0050      |          80 |
|      48 | 0x360A      |       13834 |
|      49 | 0x360B      |       13835 |
|      50 | 0x360C      |       13836 |
|      51 | 0x360D      |       13837 |
|      52 | 0x360E      |       13838 |
|      53 | 0x360F      |       13839 |
|      54 | 0x3610      |       13840 |
|      55 | 0x3611      |       13841 |
|      56 | 0x0268      |         616 |
|      57 | 0x3612      |       13842 |
|      58 | 0x000B      |          11 |
|      59 | 0x3613      |       13843 |
|      60 | 0x3614      |       13844 |
|      61 | 0x3615      |       13845 |
|      62 | 0x160F8     |       90360 |
|      63 | 0xFFFF5226  |  4294922790 |
|      64 | 0xFFFFEF34  |  4294962996 |
|      65 | 0x0015      |          21 |
|      66 | 0x3616      |       13846 |
|      67 | 0x0032      |          50 |
|      68 | 0x002D      |          45 |
|      69 | 0x3617      |       13847 |
|      70 | 0x000F      |          15 |
|      71 | 0x3618      |       13848 |
|      72 | 0x0019      |          25 |
|      73 | 0x0078      |         120 |
|      74 | 0x0013      |          19 |
|      75 | 0x3619      |       13849 |
|      76 | 0x361A      |       13850 |
|      77 | 0x361B      |       13851 |
|      78 | 0x00B4      |         180 |
|      79 | 0x008C      |         140 |
|      80 | 0x0097      |         151 |
|      81 | 0x00C9      |         201 |
|      82 | 0x00C8      |         200 |
|      83 | 0x35FD      |       13821 |
|      84 | 0x00E6      |         230 |
|      85 | 0x3625      |       13861 |
|      86 | 0x00EB      |         235 |
|      87 | 0x362A      |       13866 |
|      88 | 0x00F1      |         241 |
|      89 | 0x362F      |       13871 |
|      90 | 0x0100      |         256 |
|      91 | 0x3635      |       13877 |
|      92 | 0x0C00      |        3072 |
|      93 | 0x2C00      |       11264 |
|      94 | 0x0014      |          20 |
|      95 | 0x3646      |       13894 |
|      96 | 0x0003      |           3 |
|      97 | 0x0008      |           8 |
|      98 | 0x0009      |           9 |
|      99 | 0x000C      |          12 |
|     100 | 0x000D      |          13 |
|     101 | 0x0027      |          39 |
|     102 | 0x3626      |       13862 |
|     103 | 0x362B      |       13867 |
|     104 | 0x3630      |       13872 |
|     105 | 0x0045      |          69 |
|     106 | 0x3636      |       13878 |
|     107 | 0x363A      |       13882 |
|     108 | 0x363B      |       13883 |
|     109 | 0x363C      |       13884 |
|     110 | 0x363D      |       13885 |
|     111 | 0x363E      |       13886 |
|     112 | 0x363F      |       13887 |
|     113 | 0x3640      |       13888 |
|     114 | 0x3627      |       13863 |
|     115 | 0x3628      |       13864 |
|     116 | 0x362C      |       13868 |
|     117 | 0x362D      |       13869 |
|     118 | 0x3631      |       13873 |
|     119 | 0x3632      |       13874 |
|     120 | 0x3633      |       13875 |
|     121 | 0x3637      |       13879 |
|     122 | 0x3638      |       13880 |
|     123 | 0x1055      |        4181 |
|     124 | 0x1056      |        4182 |
|     125 | 0x0FE0      |        4064 |
|     126 | 0x0FE1      |        4065 |
|     127 | 0x0FE2      |        4066 |
|     128 | 0x0FE3      |        4067 |
|     129 | 0x0FE4      |        4068 |
|     130 | 0x0FE5      |        4069 |
|     131 | 0x0FE6      |        4070 |
|     132 | 0x0FE7      |        4071 |
|     133 | 0x0FE8      |        4072 |
|     134 | 0x0FE9      |        4073 |
|     135 | 0x6F82      |       28546 |
|     136 | 0x2331      |        9009 |
|     137 | 0x1D4C      |        7500 |
|     138 | 0x3A98      |       15000 |
|     139 | 0x1388      |        5000 |
|     140 | 0x2710      |       10000 |
|     141 | 0x2795      |       10133 |
|     142 | 0x01F4      |         500 |
|     143 | 0x1803      |        6147 |
|     144 | 0x1804      |        6148 |
|     145 | 0x1805      |        6149 |
|     146 | 0x1806      |        6150 |
|     147 | 0x1807      |        6151 |
|     148 | 0x1808      |        6152 |
|     149 | 0x1809      |        6153 |
|     150 | 0x180A      |        6154 |
|     151 | 0x180B      |        6155 |
|     152 | 0x180C      |        6156 |
|     153 | 0x180D      |        6157 |
|     154 | 0x180E      |        6158 |
|     155 | 0x180F      |        6159 |
|     156 | 0x1810      |        6160 |
|     157 | 0x1811      |        6161 |
|     158 | 0x1812      |        6162 |
|     159 | 0x1813      |        6163 |
|     160 | 0x1814      |        6164 |
|     161 | 0x1815      |        6165 |
|     162 | 0x1816      |        6166 |
|     163 | 0x1817      |        6167 |
|     164 | 0x1818      |        6168 |
|     165 | 0x1819      |        6169 |
|     166 | 0x181A      |        6170 |
|     167 | 0x181B      |        6171 |
|     168 | 0x181C      |        6172 |
|     169 | 0x181D      |        6173 |
|     170 | 0x181E      |        6174 |
|     171 | 0x181F      |        6175 |
|     172 | 0x1820      |        6176 |
|     173 | 0x1821      |        6177 |
|     174 | 0x1822      |        6178 |
|     175 | 0x1823      |        6179 |
|     176 | 0x4001      |       16385 |
|     177 | 0x4006      |       16390 |
|     178 | 0x4007      |       16391 |
|     179 | 0x4040      |       16448 |
|     180 | 0x4051      |       16465 |
|     181 | 0x4046      |       16454 |
|     182 | 0x4057      |       16471 |
|     183 | 0x4041      |       16449 |
|     184 | 0x40D8      |       16600 |
|     185 | 0x4092      |       16530 |
|     186 | 0x4100      |       16640 |
|     187 | 0x4101      |       16641 |
|     188 | 0x4140      |       16704 |
|     189 | 0x4145      |       16709 |
|     190 | 0x4180      |       16768 |
|     191 | 0x41C0      |       16832 |
|     192 | 0x41C1      |       16833 |
|     193 | 0x4200      |       16896 |
|     194 | 0x4204      |       16900 |
|     195 | 0x4246      |       16966 |
|     196 | 0x4280      |       17024 |
|     197 | 0x428A      |       17034 |
|     198 | 0x4292      |       17042 |
|     199 | 0x42A3      |       17059 |
|     200 | 0x429A      |       17050 |
|     201 | 0x42C0      |       17088 |
|     202 | 0x42C7      |       17095 |
|     203 | 0x4300      |       17152 |
|     204 | 0x4308      |       17160 |
|     205 | 0x4301      |       17153 |
|     206 | 0x4340      |       17216 |
|     207 | 0x4B18      |       19224 |
|     208 | 0x43C1      |       17345 |
|     209 | 0x43C0      |       17344 |
|     210 | 0x43C3      |       17347 |
|     211 | 0x43C9      |       17353 |
|     212 | 0x30A0      |       12448 |
|     213 | 0x3120      |       12576 |
|     214 | 0x31A0      |       12704 |
|     215 | 0x3220      |       12832 |
|     216 | 0x32A0      |       12960 |
|     217 | 0x30B8      |       12472 |
|     218 | 0x3138      |       12600 |
|     219 | 0x31B8      |       12728 |
|     220 | 0x3238      |       12856 |
|     221 | 0x32B8      |       12984 |
|     222 | 0x3098      |       12440 |
|     223 | 0x3118      |       12568 |
|     224 | 0x3198      |       12696 |
|     225 | 0x3218      |       12824 |
|     226 | 0x3298      |       12952 |
|     227 | 0x3140      |       12608 |
|     228 | 0x31C0      |       12736 |
|     229 | 0x3240      |       12864 |
|     230 | 0x32C0      |       12992 |
|     231 | 0x30A8      |       12456 |
|     232 | 0x3128      |       12584 |
|     233 | 0x31A8      |       12712 |
|     234 | 0x3228      |       12840 |
|     235 | 0x32A8      |       12968 |
|     236 | 0x3001      |       12289 |
|     237 | 0x307F      |       12415 |
|     238 | 0x3002      |       12290 |
|     239 | 0x300B      |       12299 |
|     240 | 0x4017      |       16407 |
|     241 | 0x4042      |       16450 |
|     242 | 0x4052      |       16466 |
|     243 | 0x4047      |       16455 |
|     244 | 0x40BC      |       16572 |
|     245 | 0x4093      |       16531 |
|     246 | 0x4098      |       16536 |
|     247 | 0x40C7      |       16583 |
|     248 | 0x40CC      |       16588 |
|     249 | 0x4102      |       16642 |
|     250 | 0x4109      |       16649 |
|     251 | 0x4141      |       16705 |
|     252 | 0x4181      |       16769 |
|     253 | 0x4186      |       16774 |
|     254 | 0x41C2      |       16834 |
|     255 | 0x469C      |       18076 |
|     256 | 0x4217      |       16919 |
|     257 | 0x420A      |       16906 |
|     258 | 0x4240      |       16960 |
|     259 | 0x4256      |       16982 |
|     260 | 0x4293      |       17043 |
|     261 | 0x42B9      |       17081 |
|     262 | 0x4281      |       17025 |
|     263 | 0x429B      |       17051 |
|     264 | 0x428B      |       17035 |
|     265 | 0x42C1      |       17089 |
|     266 | 0x42C8      |       17096 |
|     267 | 0x4309      |       17161 |
|     268 | 0x4341      |       17217 |
|     269 | 0x4369      |       17257 |
|     270 | 0x4371      |       17265 |
|     271 | 0x43C7      |       17351 |
|     272 | 0x43CA      |       17354 |
|     273 | 0x3090      |       12432 |
|     274 | 0x3110      |       12560 |
|     275 | 0x3190      |       12688 |
|     276 | 0x3210      |       12816 |
|     277 | 0x3290      |       12944 |
|     278 | 0x30B0      |       12464 |
|     279 | 0x3130      |       12592 |
|     280 | 0x31B0      |       12720 |
|     281 | 0x3230      |       12848 |
|     282 | 0x32B0      |       12976 |
|     283 | 0x30A6      |       12454 |
|     284 | 0x3126      |       12582 |
|     285 | 0x31A6      |       12710 |
|     286 | 0x3222      |       12834 |
|     287 | 0x32A6      |       12966 |
|     288 | 0x3099      |       12441 |
|     289 | 0x3119      |       12569 |
|     290 | 0x3199      |       12697 |
|     291 | 0x3219      |       12825 |
|     292 | 0x3299      |       12953 |
|     293 | 0x3003      |       12291 |
|     294 | 0x0046      |          70 |
|     295 | 0x0084      |         132 |
|     296 | 0x0062      |          98 |
|     297 | 0x005D      |          93 |
|     298 | 0x005B      |          91 |
|     299 | 0x00B1      |         177 |
|     300 | 0x0059      |          89 |
|     301 | 0x0044      |          68 |
|     302 | 0x0087      |         135 |
|     303 | 0x0051      |          81 |
|     304 | 0x0063      |          99 |
|     305 | 0x00BB      |         187 |
|     306 | 0x0056      |          86 |
|     307 | 0x0041      |          65 |
|     308 | 0x4008      |       16392 |
|     309 | 0x4016      |       16406 |
|     310 | 0x4003      |       16387 |
|     311 | 0x4059      |       16473 |
|     312 | 0x4070      |       16496 |
|     313 | 0x4058      |       16472 |
|     314 | 0x4043      |       16451 |
|     315 | 0x4085      |       16517 |
|     316 | 0x4081      |       16513 |
|     317 | 0x4094      |       16532 |
|     318 | 0x40D1      |       16593 |
|     319 | 0x40D2      |       16594 |
|     320 | 0x4103      |       16643 |
|     321 | 0x4616      |       17942 |
|     322 | 0x4182      |       16770 |
|     323 | 0x41C3      |       16835 |
|     324 | 0x4570      |       17776 |
|     325 | 0x420B      |       16907 |
|     326 | 0x4294      |       17044 |
|     327 | 0x42C2      |       17090 |
|     328 | 0x4410      |       17424 |
|     329 | 0x4302      |       17154 |
|     330 | 0x4360      |       17248 |
|     331 | 0x436B      |       17259 |
|     332 | 0x3B67      |       15207 |
|     333 | 0x386E      |       14446 |
|     334 | 0x36E5      |       14053 |
|     335 | 0x3C2C      |       15404 |
|     336 | 0x3BEF      |       15343 |
|     337 | 0x3088      |       12424 |
|     338 | 0x3108      |       12552 |
|     339 | 0x3188      |       12680 |
|     340 | 0x3208      |       12808 |
|     341 | 0x3288      |       12936 |
|     342 | 0x3B3D      |       15165 |
|     343 | 0x385A      |       14426 |
|     344 | 0x3A0A      |       14858 |
|     345 | 0x37F7      |       14327 |
|     346 | 0x3BD3      |       15315 |
|     347 | 0x3B3F      |       15167 |
|     348 | 0x385F      |       14431 |
|     349 | 0x3A0C      |       14860 |
|     350 | 0x37F9      |       14329 |
|     351 | 0x3BD5      |       15317 |
|     352 | 0x3B3B      |       15163 |
|     353 | 0x3858      |       14424 |
|     354 | 0x3A08      |       14856 |
|     355 | 0x37F5      |       14325 |
|     356 | 0x3BD1      |       15313 |
|     357 | 0x3004      |       12292 |
|     358 | 0x307E      |       12414 |
|     359 | 0x3012      |       12306 |
|     360 | 0x0057      |          87 |
|     361 | 0x0090      |         144 |
|     362 | 0x0067      |         103 |
|     363 | 0x0060      |          96 |
|     364 | 0x007B      |         123 |
|     365 | 0x008F      |         143 |
|     366 | 0x00AA      |         170 |
|     367 | 0x00D7      |         215 |
|     368 | 0x010D      |         269 |
|     369 | 0x015D      |         349 |
|     370 | 0x0088      |         136 |
|     371 | 0x0053      |          83 |
|     372 | 0x00D1      |         209 |
|     373 | 0x0054      |          84 |
|     374 | 0x006D      |         109 |
|     375 | 0x0208      |         520 |
|     376 | 0x01B0      |         432 |
|     377 | 0x0047      |          71 |
|     378 | 0x00AB      |         171 |
|     379 | 0x0108      |         264 |
|     380 | 0x008D      |         141 |
|     381 | 0x00D2      |         210 |
|     382 | 0x0081      |         129 |
|     383 | 0x00C3      |         195 |
|     384 | 0x020D      |         525 |
|     385 | 0x012D      |         301 |
|     386 | 0x0162      |         354 |
|     387 | 0x017B      |         379 |
|     388 | 0x00FA      |         250 |
|     389 | 0x0122      |         290 |
|     390 | 0x00EA      |         234 |
|     391 | 0x0061      |          97 |
|     392 | 0x0089      |         137 |
|     393 | 0x009D      |         157 |
|     394 | 0x0099      |         153 |
|     395 | 0x401B      |       16411 |
|     396 | 0x400F      |       16399 |
|     397 | 0x4009      |       16393 |
|     398 | 0x4AA1      |       19105 |
|     399 | 0x405B      |       16475 |
|     400 | 0x4048      |       16456 |
|     401 | 0x40A1      |       16545 |
|     402 | 0x40C0      |       16576 |
|     403 | 0x40C5      |       16581 |
|     404 | 0x40A5      |       16549 |
|     405 | 0x47C7      |       18375 |
|     406 | 0x40C8      |       16584 |
|     407 | 0x4623      |       17955 |
|     408 | 0x4104      |       16644 |
|     409 | 0x4726      |       18214 |
|     410 | 0x4142      |       16706 |
|     411 | 0x41CD      |       16845 |
|     412 | 0x469E      |       18078 |
|     413 | 0x41C4      |       16836 |
|     414 | 0x46CA      |       18122 |
|     415 | 0x4205      |       16901 |
|     416 | 0x424D      |       16973 |
|     417 | 0x4242      |       16962 |
|     418 | 0x424A      |       16970 |
|     419 | 0x4295      |       17045 |
|     420 | 0x429C      |       17052 |
|     421 | 0x42A5      |       17061 |
|     422 | 0x428C      |       17036 |
|     423 | 0x42B8      |       17080 |
|     424 | 0x42C9      |       17097 |
|     425 | 0x42C3      |       17091 |
|     426 | 0x430A      |       17162 |
|     427 | 0x4303      |       17155 |
|     428 | 0x4342      |       17218 |
|     429 | 0x491B      |       18715 |
|     430 | 0x4910      |       18704 |
|     431 | 0x43C4      |       17348 |
|     432 | 0x43CB      |       17355 |
|     433 | 0x3B3C      |       15164 |
|     434 | 0x3859      |       14425 |
|     435 | 0x3A09      |       14857 |
|     436 | 0x37F6      |       14326 |
|     437 | 0x3BD2      |       15314 |
|     438 | 0x3B39      |       15161 |
|     439 | 0x3856      |       14422 |
|     440 | 0x3A06      |       14854 |
|     441 | 0x37F3      |       14323 |
|     442 | 0x3BCF      |       15311 |
|     443 | 0x3142      |       12610 |
|     444 | 0x31C2      |       12738 |
|     445 | 0x3242      |       12866 |
|     446 | 0x32C2      |       12994 |
|     447 | 0x30A2      |       12450 |
|     448 | 0x3122      |       12578 |
|     449 | 0x31A2      |       12706 |
|     450 | 0x3224      |       12836 |
|     451 | 0x32A2      |       12962 |
|     452 | 0x30B2      |       12466 |
|     453 | 0x3132      |       12594 |
|     454 | 0x31B2      |       12722 |
|     455 | 0x3232      |       12850 |
|     456 | 0x32B2      |       12978 |
|     457 | 0x30BB      |       12475 |
|     458 | 0x313B      |       12603 |
|     459 | 0x31BB      |       12731 |
|     460 | 0x323B      |       12859 |
|     461 | 0x32BB      |       12987 |
|     462 | 0x35D7      |       13783 |
|     463 | 0x36B1      |       14001 |
|     464 | 0x3726      |       14118 |
|     465 | 0x300C      |       12300 |
|     466 | 0x3005      |       12293 |
|     467 | 0x304C      |       12364 |
|     468 | 0x00B6      |         182 |
|     469 | 0x00C2      |         194 |
|     470 | 0x013D      |         317 |
|     471 | 0x00F8      |         248 |
|     472 | 0x00C6      |         198 |
|     473 | 0x014E      |         334 |
|     474 | 0x01F1      |         497 |
|     475 | 0x01AE      |         430 |
|     476 | 0x01ED      |         493 |
|     477 | 0x0214      |         532 |
|     478 | 0x021C      |         540 |
|     479 | 0x0129      |         297 |
|     480 | 0x0203      |         515 |
|     481 | 0x009A      |         154 |
|     482 | 0x0082      |         130 |
|     483 | 0x00A8      |         168 |
|     484 | 0x0145      |         325 |
|     485 | 0x0144      |         324 |
|     486 | 0x00E4      |         228 |
|     487 | 0x00E2      |         226 |
|     488 | 0x013F      |         319 |
|     489 | 0x007A      |         122 |
|     490 | 0x0138      |         312 |
|     491 | 0x007D      |         125 |
|     492 | 0x0154      |         340 |
|     493 | 0x00B9      |         185 |
|     494 | 0x0109      |         265 |
|     495 | 0x00BE      |         190 |
|     496 | 0x007C      |         124 |
|     497 | 0x00C0      |         192 |
|     498 | 0x00AE      |         174 |
|     499 | 0x0052      |          82 |
|     500 | 0x00BC      |         188 |
|     501 | 0x006E      |         110 |
|     502 | 0x0055      |          85 |
|     503 | 0x0189      |         393 |
|     504 | 0x00D8      |         216 |
|     505 | 0x013C      |         316 |
|     506 | 0x00C4      |         196 |
|     507 | 0x00AF      |         175 |
|     508 | 0x011D      |         285 |
|     509 | 0x01A9      |         425 |
|     510 | 0x00F0      |         240 |
|     511 | 0x015B      |         347 |
|     512 | 0x0086      |         134 |
|     513 | 0x012E      |         302 |
|     514 | 0x01D0      |         464 |
|     515 | 0x4004      |       16388 |
|     516 | 0x401C      |       16412 |
|     517 | 0x4023      |       16419 |
|     518 | 0x404B      |       16459 |
|     519 | 0x44CA      |       17610 |
|     520 | 0x408A      |       16522 |
|     521 | 0x40AE      |       16558 |
|     522 | 0x40B4      |       16564 |
|     523 | 0x40B7      |       16567 |
|     524 | 0x40CE      |       16590 |
|     525 | 0x423D      |       16957 |
|     526 | 0x4111      |       16657 |
|     527 | 0x410B      |       16651 |
|     528 | 0x471F      |       18207 |
|     529 | 0x4187      |       16775 |
|     530 | 0x419C      |       16796 |
|     531 | 0x4682      |       18050 |
|     532 | 0x41CF      |       16847 |
|     533 | 0x4209      |       16905 |
|     534 | 0x4206      |       16902 |
|     535 | 0x420C      |       16908 |
|     536 | 0x4213      |       16915 |
|     537 | 0x4247      |       16967 |
|     538 | 0x42A6      |       17062 |
|     539 | 0x429D      |       17053 |
|     540 | 0x42CA      |       17098 |
|     541 | 0x4473      |       17523 |
|     542 | 0x430B      |       17163 |
|     543 | 0x4304      |       17156 |
|     544 | 0x430C      |       17164 |
|     545 | 0x4373      |       17267 |
|     546 | 0x4343      |       17219 |
|     547 | 0x4916      |       18710 |
|     548 | 0x43C8      |       17352 |
|     549 | 0x43C6      |       17350 |
|     550 | 0x37A3      |       14243 |
|     551 | 0x3080      |       12416 |
|     552 | 0x3100      |       12544 |
|     553 | 0x3180      |       12672 |
|     554 | 0x3200      |       12800 |
|     555 | 0x3280      |       12928 |
|     556 | 0x3B65      |       15205 |
|     557 | 0x386C      |       14444 |
|     558 | 0x36E3      |       14051 |
|     559 | 0x3C2A      |       15402 |
|     560 | 0x3BED      |       15341 |
|     561 | 0x308A      |       12426 |
|     562 | 0x310A      |       12554 |
|     563 | 0x318A      |       12682 |
|     564 | 0x320A      |       12810 |
|     565 | 0x328A      |       12938 |
|     566 | 0x309C      |       12444 |
|     567 | 0x311C      |       12572 |
|     568 | 0x319C      |       12700 |
|     569 | 0x321C      |       12828 |
|     570 | 0x329C      |       12956 |
|     571 | 0x3081      |       12417 |
|     572 | 0x3101      |       12545 |
|     573 | 0x3181      |       12673 |
|     574 | 0x3201      |       12801 |
|     575 | 0x3281      |       12929 |
|     576 | 0x30AC      |       12460 |
|     577 | 0x312C      |       12588 |
|     578 | 0x31AC      |       12716 |
|     579 | 0x322C      |       12844 |
|     580 | 0x32AC      |       12972 |
|     581 | 0x35D9      |       13785 |
|     582 | 0x36B3      |       14003 |
|     583 | 0x37A5      |       14245 |
|     584 | 0x3728      |       14120 |
|     585 | 0x3B8A      |       15242 |
|     586 | 0x38A2      |       14498 |
|     587 | 0x3A3B      |       14907 |
|     588 | 0x3CDA      |       15578 |
|     589 | 0x3D2F      |       15663 |
|     590 | 0x3013      |       12307 |
|     591 | 0x300D      |       12301 |
|     592 | 0x3006      |       12294 |
|     593 | 0x0072      |         114 |
|     594 | 0x012A      |         298 |
|     595 | 0x01A0      |         416 |
|     596 | 0x0174      |         372 |
|     597 | 0x01E0      |         480 |
|     598 | 0x02A8      |         680 |
|     599 | 0x0307      |         775 |
|     600 | 0x02A4      |         676 |
|     601 | 0x029D      |         669 |
|     602 | 0x0294      |         660 |
|     603 | 0x02E4      |         740 |
|     604 | 0x01E1      |         481 |
|     605 | 0x02B2      |         690 |
|     606 | 0x02BA      |         698 |
|     607 | 0x03F9      |        1017 |
|     608 | 0x0102      |         258 |
|     609 | 0x00E7      |         231 |
|     610 | 0x00E9      |         233 |
|     611 | 0x0176      |         374 |
|     612 | 0x0070      |         112 |
|     613 | 0x009C      |         156 |
|     614 | 0x0069      |         105 |
|     615 | 0x0168      |         360 |
|     616 | 0x00F7      |         247 |
|     617 | 0x0198      |         408 |
|     618 | 0x04B0      |        1200 |
|     619 | 0x00FF      |         255 |
|     620 | 0x0134      |         308 |
|     621 | 0x019E      |         414 |
|     622 | 0x0222      |         546 |
|     623 | 0x0120      |         288 |
|     624 | 0x02EE      |         750 |
|     625 | 0x0654      |        1620 |
|     626 | 0x028E      |         654 |
|     627 | 0x0216      |         534 |
|     628 | 0x01AB      |         427 |
|     629 | 0x0160      |         352 |
|     630 | 0x0142      |         322 |
|     631 | 0x00E0      |         224 |
|     632 | 0x0098      |         152 |
|     633 | 0x0150      |         336 |
|     634 | 0x01B5      |         437 |
|     635 | 0x018C      |         396 |
|     636 | 0x016B      |         363 |
|     637 | 0x015A      |         346 |
|     638 | 0x0152      |         338 |
|     639 | 0x01C0      |         448 |
|     640 | 0x02B0      |         688 |
|     641 | 0x0170      |         368 |
|     642 | 0x024A      |         586 |
|     643 | 0x011F      |         287 |
|     644 | 0x0181      |         385 |
|     645 | 0x0137      |         311 |
|     646 | 0x6C5C      |       27740 |
|     647 | 0x6CE9      |       27881 |
|     648 | 0x6D7D      |       28029 |
|     649 | 0x6E08      |       28168 |
|     650 | 0x6E92      |       28306 |
|     651 | 0x6C5D      |       27741 |
|     652 | 0x6CEA      |       27882 |
|     653 | 0x6D7E      |       28030 |
|     654 | 0x6E09      |       28169 |
|     655 | 0x6E93      |       28307 |
|     656 | 0x6C5E      |       27742 |
|     657 | 0x6CEB      |       27883 |
|     658 | 0x6D7F      |       28031 |
|     659 | 0x6E0A      |       28170 |
|     660 | 0x6E94      |       28308 |
|     661 | 0x6C5F      |       27743 |
|     662 | 0x6CEC      |       27884 |
|     663 | 0x6D80      |       28032 |
|     664 | 0x6E0B      |       28171 |
|     665 | 0x6E95      |       28309 |
|     666 | 0x503C      |       20540 |
|     667 | 0x5090      |       20624 |
|     668 | 0x50F6      |       20726 |
|     669 | 0x511E      |       20766 |
|     670 | 0x5151      |       20817 |
|     671 | 0x5181      |       20865 |
|     672 | 0x51AC      |       20908 |
|     673 | 0x51DA      |       20954 |
|     674 | 0x5206      |       20998 |
|     675 | 0x5234      |       21044 |
|     676 | 0x527F      |       21119 |
|     677 | 0x52BE      |       21182 |
|     678 | 0x52BF      |       21183 |
|     679 | 0x52EF      |       21231 |
|     680 | 0x5303      |       21251 |
|     681 | 0x5321      |       21281 |
|     682 | 0x6FF0      |       28656 |
|     683 | 0x53CD      |       21453 |
|     684 | 0x5387      |       21383 |
|     685 | 0x6F85      |       28549 |
|     686 | 0x6F86      |       28550 |
|     687 | 0x6F87      |       28551 |
|     688 | 0x6F88      |       28552 |
|     689 | 0x6F89      |       28553 |
|     690 | 0x6F8A      |       28554 |
|     691 | 0x6F53      |       28499 |
|     692 | 0x6F54      |       28500 |
|     693 | 0x6F55      |       28501 |
|     694 | 0x6F56      |       28502 |
|     695 | 0x6F57      |       28503 |
|     696 | 0x6F58      |       28504 |
|     697 | 0x6F83      |       28547 |
|     698 | 0x53D6      |       21462 |
|     699 | 0x539D      |       21405 |
|     700 | 0x5336      |       21302 |
|     701 | 0x5344      |       21316 |
|     702 | 0x5353      |       21331 |
|     703 | 0x536B      |       21355 |
|     704 | 0x56F4      |       22260 |
|     705 | 0x0BB8      |        3000 |
|     706 | 0x07D0      |        2000 |
|     707 | 0x1B58      |        7000 |
|     708 | 0x515A      |       20826 |
|     709 | 0x51B5      |       20917 |
|     710 | 0x5356      |       21334 |
|     711 | 0x53B4      |       21428 |
|     712 | 0x6C76      |       27766 |
|     713 | 0x6EAB      |       28331 |
|     714 | 0x5188      |       20872 |
|     715 | 0x5285      |       21125 |
|     716 | 0x6C77      |       27767 |
|     717 | 0x6D92      |       28050 |
|     718 | 0x6EF0      |       28400 |
|     719 | 0x6FE0      |       28640 |
|     720 | 0x5154      |       20820 |
|     721 | 0x51DE      |       20958 |
|     722 | 0x6C59      |       27737 |
|     723 | 0x6E07      |       28167 |
|     724 | 0x5096      |       20630 |
|     725 | 0x5237      |       21047 |
|     726 | 0x5305      |       21253 |
|     727 | 0x6C5A      |       27738 |
|     728 | 0x6E91      |       28305 |
|     729 | 0x503F      |       20543 |
|     730 | 0x50FB      |       20731 |
|     731 | 0x6C5B      |       27739 |
|     732 | 0x6D7C      |       28028 |
|     733 | 0x5120      |       20768 |
|     734 | 0x52F1      |       21233 |
|     735 | 0x52C2      |       21186 |
|     736 | 0x6C58      |       27736 |
|     737 | 0x6E06      |       28166 |
|     738 | 0x6F84      |       28548 |
|     739 | 0x53D7      |       21463 |
|     740 | 0x5200      |       20992 |
|     741 | 0x400A      |       16394 |
|     742 | 0x4010      |       16400 |
|     743 | 0x4026      |       16422 |
|     744 | 0x44CC      |       17612 |
|     745 | 0x405D      |       16477 |
|     746 | 0x409A      |       16538 |
|     747 | 0x40AA      |       16554 |
|     748 | 0x4082      |       16514 |
|     749 | 0x409D      |       16541 |
|     750 | 0x40C9      |       16585 |
|     751 | 0x40D4      |       16596 |
|     752 | 0x4105      |       16645 |
|     753 | 0x410D      |       16653 |
|     754 | 0x415A      |       16730 |
|     755 | 0x419A      |       16794 |
|     756 | 0x4195      |       16789 |
|     757 | 0x41F8      |       16888 |
|     758 | 0x41D0      |       16848 |
|     759 | 0x46AD      |       18093 |
|     760 | 0x41CA      |       16842 |
|     761 | 0x4207      |       16903 |
|     762 | 0x420D      |       16909 |
|     763 | 0x4244      |       16964 |
|     764 | 0x424C      |       16972 |
|     765 | 0x429E      |       17054 |
|     766 | 0x42A0      |       17056 |
|     767 | 0x42CC      |       17100 |
|     768 | 0x4354      |       17236 |
|     769 | 0x4344      |       17220 |
|     770 | 0x435A      |       17242 |
|     771 | 0x43D1      |       17361 |
|     772 | 0x45B9      |       17849 |
|     773 | 0x43CF      |       17359 |
|     774 | 0x3023      |       12323 |
|     775 | 0x3017      |       12311 |
|     776 | 0x3F2A      |       16170 |
|     777 | 0x300E      |       12302 |
|     778 | 0x3014      |       12308 |
|     779 | 0x3007      |       12295 |
|     780 | 0x300F      |       12303 |
|     781 | 0x3024      |       12324 |
|     782 | 0x3016      |       12310 |
|     783 | 0x305F      |       12383 |
|     784 | 0x3047      |       12359 |
|     785 | 0x0185      |         389 |
|     786 | 0x01E4      |         484 |
|     787 | 0x016A      |         362 |
|     788 | 0x037B      |         891 |
|     789 | 0x02F0      |         752 |
|     790 | 0x03FA      |        1018 |
|     791 | 0x012F      |         303 |
|     792 | 0x054A      |        1354 |
|     793 | 0x03E5      |         997 |
|     794 | 0x05CD      |        1485 |
|     795 | 0x0401      |        1025 |
|     796 | 0x022C      |         556 |
|     797 | 0x0483      |        1155 |
|     798 | 0x04E5      |        1253 |
|     799 | 0x02DF      |         735 |
|     800 | 0x01E3      |         483 |
|     801 | 0x01E2      |         482 |
|     802 | 0x0192      |         402 |
|     803 | 0x0104      |         260 |
|     804 | 0x0278      |         632 |
|     805 | 0x031B      |         795 |
|     806 | 0x011C      |         284 |
|     807 | 0x01B3      |         435 |
|     808 | 0x026F      |         623 |
|     809 | 0x0205      |         517 |
|     810 | 0x0215      |         533 |
|     811 | 0x02BC      |         700 |
|     812 | 0x01C8      |         456 |
|     813 | 0x0339      |         825 |
|     814 | 0x01D9      |         473 |
|     815 | 0x0119      |         281 |
|     816 | 0x018B      |         395 |
|     817 | 0x0230      |         560 |
|     818 | 0x0618      |        1560 |
|     819 | 0x00CC      |         204 |
|     820 | 0x4027      |       16423 |
|     821 | 0x495E      |       18782 |
|     822 | 0x4056      |       16470 |
|     823 | 0x4065      |       16485 |
|     824 | 0x4AC2      |       19138 |
|     825 | 0x4500      |       17664 |
|     826 | 0x49D5      |       18901 |
|     827 | 0x4ACF      |       19151 |
|     828 | 0x4ADD      |       19165 |
|     829 | 0x4AE2      |       19170 |
|     830 | 0x4114      |       16660 |
|     831 | 0x4869      |       18537 |
|     832 | 0x4143      |       16707 |
|     833 | 0x484F      |       18511 |
|     834 | 0x4855      |       18517 |
|     835 | 0x4189      |       16777 |
|     836 | 0x4A14      |       18964 |
|     837 | 0x487B      |       18555 |
|     838 | 0x41C8      |       16840 |
|     839 | 0x41DD      |       16861 |
|     840 | 0x4B75      |       19317 |
|     841 | 0x47F4      |       18420 |
|     842 | 0x4B55      |       19285 |
|     843 | 0x4B5D      |       19293 |
|     844 | 0x424B      |       16971 |
|     845 | 0x4243      |       16963 |
|     846 | 0x49A0      |       18848 |
|     847 | 0x49BB      |       18875 |
|     848 | 0x49BD      |       18877 |
|     849 | 0x42CE      |       17102 |
|     850 | 0x48BD      |       18621 |
|     851 | 0x4907      |       18695 |
|     852 | 0x4D15      |       19733 |
|     853 | 0x4364      |       17252 |
|     854 | 0x433D      |       17213 |
|     855 | 0x4B41      |       19265 |
|     856 | 0x4B43      |       19267 |
|     857 | 0x4D17      |       19735 |
|     858 | 0x3015      |       12309 |
|     859 | 0x3011      |       12305 |
|     860 | 0x3063      |       12387 |
|     861 | 0x3061      |       12385 |
|     862 | 0x3F3D      |       16189 |
|     863 | 0x0409      |        1033 |
|     864 | 0x012C      |         300 |
|     865 | 0x02AF      |         687 |
|     866 | 0x0354      |         852 |
|     867 | 0x0659      |        1625 |
|     868 | 0x0362      |         866 |
|     869 | 0x02B6      |         694 |
|     870 | 0x02BD      |         701 |
|     871 | 0x0316      |         790 |
|     872 | 0x02A3      |         675 |
|     873 | 0x02FA      |         762 |
|     874 | 0x0187      |         391 |
|     875 | 0x039E      |         926 |
|     876 | 0x0231      |         561 |
|     877 | 0x02C4      |         708 |
|     878 | 0x0204      |         516 |
|     879 | 0x0169      |         361 |
|     880 | 0x0328      |         808 |
|     881 | 0x028A      |         650 |
|     882 | 0x0290      |         656 |
|     883 | 0x0284      |         644 |
|     884 | 0x08B7      |        2231 |
|     885 | 0x0AC3      |        2755 |
|     886 | 0x3647      |       13895 |
|     887 | 0x0011      |          17 |
|     888 | 0x3648      |       13896 |
|     889 | 0x3649      |       13897 |
|     890 | 0x364A      |       13898 |
|     891 | 0x001F      |          31 |
|     892 | 0x1FFFF     |      131071 |
|     893 | 0x279A      |       10138 |
|     894 | 0x27A4      |       10148 |
|     895 | 0x27A8      |       10152 |
|     896 | 0x27C5      |       10181 |
|     897 | 0x364B      |       13899 |
|     898 | 0x03E8      |        1000 |
|     899 | 0x364C      |       13900 |
|     900 | 0x0012      |          18 |
|     901 | 0x7530      |       30000 |
|     902 | 0x364D      |       13901 |
|     903 | 0x364F      |       13903 |
|     904 | 0x3652      |       13906 |
|     905 | 0x0FDB      |        4059 |
|     906 | 0x0FDC      |        4060 |
|     907 | 0x0FDD      |        4061 |
|     908 | 0x3650      |       13904 |
|     909 | 0x3651      |       13905 |
|     910 | 0x09B2      |        2482 |
|     911 | 0x09B3      |        2483 |
|     912 | 0x09B4      |        2484 |
|     913 | 0x09B5      |        2485 |
|     914 | 0x09B6      |        2486 |
|     915 | 0x09B7      |        2487 |
|     916 | 0x3654      |       13908 |
|     917 | 0x3655      |       13909 |
|     918 | 0x3653      |       13907 |
|     919 | 0x3629      |       13865 |
|     920 | 0x362E      |       13870 |
|     921 | 0x3634      |       13876 |
|     922 | 0x3639      |       13881 |

## String References

- **13821**: Oh no, you don't. I can't say squat until you enable that orrriginal objective in the "Objective List" under the "Records of Eminence" section of the Quests menu.
- **13822**: Congrrratulations! Oh, if only I were as lucky as you.
- **13823**: Here goes nothing. <Hffffff> You're the eleven thousand, one hundred eleventh person to ever visit this square! To honor this crrrowning achievement, we're prepared to offer you a hefty reward.
- **13824**: How will you respond? [How hefty?/None of this poppycock for me./Don't. Just walk away.]
- **13825**: Hey, wait up! It's not like I go around saying this to everyone who comes my way. You're trrruly the eleven thousand, one hundred eleventh visitor!
- **13826**: Poppycock? I'll tell you what's poppycock--thrrrowing away your chance to receive a breath-stopping prize for being the eleven thousand, one hundred eleventh visitor!
- **13827**: Ah, frrresh meat! Stay a while and listen!
- **13828**: They say that currriosity killed the cat, but I can assure you that's not the case here!
- **13829**: Now, to peel back the veritable curtain on your commemorative prrrize...
- **13830**: Ta-daaa, it's $6! Aren't you in rrrapture now?
- **13831**: This is no ordinary, run-of-the-mill doll, I'll have you know! It's imbued with sorcery and engrrraves your "Records of Eminence" exploits upon itself. Now that's a handy-dandy tool if I've ever heard of one!
- **13832**: Anything to say? [I've always wanted one of those!/Records of Eminence...?]
- **13833**: Exactly! You can never go wrrrong with them, I say. But wait... There's more!
- **13834**: What? You rrreally haven't heard? I thought everyone had heard.
- **13835**: It may come as a surprrrise to you, but you're already participating in Records of Eminence!
- **13836**: Yes, indeed. By talking to me, you've cleared your first objective. That means you eventually get another prrresent: "sparks of eminence," which act as quantifiers of your grandeur!
- **13837**: Anyway, now that you know the rrropes, it's time to try it out yourself.
- **13838**: Just sink your fangs into any of the short quests in the "Objective List" under the "Records of Eminence" part of the Quests menu.
- **13839**: Easier than scooping fish from a bowl, rrright?
- **13840**: Certain objectives can be rrrepeated too, so there'll be more to try than there are cats in a clowder.
- **13841**: Once you accrrrue enough sparks from completing objectives, come talk to me for a saucer of good stuff.
- **13842**: Uh-oh. I don't know how you managed to sneak this past me, but you're as weak as a kitten. Quit pussyfooting around and talk to Selele. She'll help you brrrush up on the basics...for free.
- **13843**: Speaking of good stuff, your $3 is top-notch, so I'm going to need $1 gil for it.
- **13844**: ...Not convinced it's worth the price?
- **13845**: Okay, then. Watch this.
- **13846**: With a simple clap of the hands, it disappears like magic! That's the power of arcane blah-ditty-blah at its finest!
- **13847**: So, yeah, there's no way I could entrrrust something so amazing to you for free. Pay up.
- **13848**: Pay $1 gil? [I've only got catcalls for you./Go cat around somewhere else./I feel like a bag of cats, so no.]
- **13849**: ...Fine, then.
- **13850**: Huh? Why am I giving up so easily?
- **13851**: Because the doll's already rrregistered to you. If you're not going to give me money, there's nothing I can do about it.
- **13858**: The $3 nods in agreement.
- **13861**: You wish to exchange your sparks?
- **13862**: Wait but a moment. Here, follow this command--er, compendium to the letter and you should be able to learn a thing or two.
- **13863**: Ah, this almost slipped my mind. Should you receive any distinct sorts of artifacts for completing an objective, I will be happy to take them off your hands.
- **13864**: Worry not, for I am not out to rob you of your glory. Quite the opposite, in fact. I will provide you with a worthwhile reward for collecting them.
- **13865**: Thanks to your donation, I now have $1 $0 in safekeeping.
- **13866**: Ohohoho... Turning in sparks, I see.
- **13867**: Hold your hoarder hares, [hero/heroine]. I love your enthusiasm, but you're not going to learn a thing without a primer. Ahhh, here it is. Have a look-see.
- **13868**: Oh, crud, that's right. You should trade me any special artifacts you get from completing objectives.
- **13869**: "Why?" What a good question! Because I'll give you a nifty-difty reward at some point, that's why.
- **13870**: Thanks for doing what I asked. Now I have a total of $1 $0 from you.
- **13871**: You want to trrrade in sparks, do you?
- **13872**: Let me wake up from my catnap first... Alright, now rrread this.
- **13873**: Wait, wait, wait! If you happen to get any purrrticularly interesting items from completing objectives, send them my way.
- **13874**: Don't worry, I'm as honest as a cat when the meat's out of reach. I thought of taking them all for myself...
- **13875**: ...but I don't want to make fur fly with the Adventurers' Mutual Aid Network, so I'll do my job like a good little kitty.
- **13876**: Grrreat! Now I have $1 $0 from you. Thanks!
- **13877**: Hm? Oh, spark exchange... Of course.
- **13878**: I'm not completely sure, but this might help set some things straight...I guess.
- **13879**: Let me add one thing. Please find it within your heart of hearts to give me anything of particular interest you get from completing objectives.
- **13880**: I'll make it worth your while...I swear! Just keep at it and I'll be sure to surprise you with a hot, steaming helping of gratitude one day.
- **13881**: Thanks for doing your part in the battle for love and peace! With this latest addition, I'm now keeping track of $1 $0 for you.
- **13882**: "Records of Eminence is a system brought to you by the caring folks at the Adventurers' Mutual Aid Network. Set your own objectives whenever you desire, and fulfill them to receive compensation.
- **13883**: "To set these tasks, select 'Objective List' from the Quests menu, then choose ones that suit your fancy.
- **13884**: "You will be rewarded with gil and sparks of eminence, which serve the same function as points, notes, credits, and other such methods of quantifying one's greatness. As an extra incentive, adventurers will earn three times the amount of sparks for completing an objective the first time.
- **13885**: "Completed objectives will vanish from your quest list unless they are repeatable. In the event that you wish to make room for different objectives, you will need to remove them manually.
- **13886**: "As a corollary regarding rewards, you'll be blessed with special remuneration once you complete several objectives. Bask in the joy of these pleasant surprises when you can.
- **13887**: "Lastly, any and all acts of vandalism directed against your $3 are strictly prohibited.
- **13888**: "Should you be found in violation of this dictum, the heavens will part and wrath incarnate will descend to mete out justice upon you."
- **13894**: Exchange for what? (Sparks: $0) [Items./Skill-increasing tomes./Equ. Lv.1 - 9. (Up to $")/Equ. Lv.10 - 19. (Up to $")/Equ. Lv.20 - 29. (Up to $")/Equ. Lv.30 - 39. (Up to $")/Equ. Lv.40 - 50. (Up to $")/Equ. Lv.51 - 70. (Up to $")/Equ. Lv.71 - 98. (Up to $")/Equ. Lv.99. (Up to $")/10./Trust./Exchange A.M.A.N. currencies./Exchange Seven Treasures./Wise words on Records of Eminence./Nothing.]
- **13896**: Receive how many? ($6 spark[/s]) [One. ($1 spark[/s])/Three. ($2 spark[/s])/Twelve. ($3 spark[/s])/Thirty-six. ($4 spark[/s])/None.]
- **13897**: Are you sure you want to expend $0 spark[/s] of eminence on this?
- **13898**: Make the exchange? [Yes./No.]
- **13899**: Exchange for what? (On hand: $0) [Currencies./Provisions./None for the nonce.]
- **13900**: Exchange for what? (On hand: $0) [Sparks of Eminence: $1./Conquest Points: $2./Imperial Standing: $3./Allied Notes: $4./Bayld: $5./Valor Pts.: $6./Aslt. Pts. (Leujaoam): $7./Aslt. Pts. (T. Grounds): $8./Aslt. Pts. (Lebros): $9./Aslt. Pts. (Periqia): $10./Aslt. Pts. (Ilrusi): $11./Cruor: $12./Kinetic Units: $13./Obs. Fragments: $14./M. Plasm Corpuscles: $15./Ballista Points: $16. (2000 max)/Unity Accolades: $17./Escha Silt: $18./Resistance Credits: $19./Nothing for the nonce.]
- **13901**: Exchange how many points? (On hand: $0) [$1 (One)./$2 (Three)./$3 (Ten)./$4 (Thirty)./None.]
- **13903**: Beware that any amount that exceeds the maximum storage limit will unceremoniously vanish into the aether.
- **13905**: Exchange how many? (On hand: $0) [One ($1)./Three ($2)./Ten ($3)./Thirty ($4)./None.]
- **13906**: Truly exchange $0 ($2)?
- **13907**: Are you quite satisfied with your selection?
- **13908**: You wish to exchange $6, $6, $6, $6, $6, and $6 for equipment?

## Events

### Event 65535

#### Metadata

| Field        | Value   |
|--------------|---------|
| Entrypoint   | 0x0000  |
| Data Size    | 1 bytes |
| Instructions | 1       |

```
      00 01 02 03 04 05 06 07  08 09 0A 0B 0C 0D 0E 0F
      -- -- -- -- -- -- -- --  -- -- -- -- -- -- -- --
0000: 00                                                .               
```

#### Opcodes

```
  0: 0x0000 [0x00] END_REQSTACK()
```

### Event 848

#### Metadata

| Field        | Value      |
|--------------|------------|
| Entrypoint   | 0x0001     |
| Data Size    | 2950 bytes |
| Instructions | 417        |

```
      00 01 02 03 04 05 06 07  08 09 0A 0B 0C 0D 0E 0F
      -- -- -- -- -- -- -- --  -- -- -- -- -- -- -- --
0000:    42 03 01 00 02 10 03  02 00 03 10 06 01 10 1A   B..............
0010: 98 2D 46 01 38 00 80 2F  00 FC 10 0F 01 4E 00 FC  .-F.8../.....N..
0020: 10 0F 01 92 01 FB 10 0F  01 92 01 FC 10 0F 01 92  ................
0030: 01 F8 10 0F 01 92 01 99  10 0F 01 92 01 A4 10 0F  ................
0040: 01 92 01 A5 10 0F 01 92  01 13 10 0F 01 92 01 12  ................
0050: 10 0F 01 92 01 10 10 0F  01 92 01 11 10 0F 01 92  ................
0060: 01 FA 10 0F 01 92 01 E4  10 0F 01 92 01 08 11 0F  ................
0070: 01 94 01 F0 FF FF 7F 94  01 FB 10 0F 01 94 01 FC  ................
0080: 10 0F 01 94 01 F8 10 0F  01 94 01 99 10 0F 01 94  ................
0090: 01 A4 10 0F 01 94 01 A5  10 0F 01 94 01 13 10 0F  ................
00A0: 01 94 01 12 10 0F 01 94  01 10 10 0F 01 94 01 11  ................
00B0: 10 0F 01 94 01 FA 10 0F  01 94 01 E4 10 0F 01 94  ................
00C0: 01 08 11 0F 01 BA F0 FF  FF 7F 01 80 02 80 03 80  ................
00D0: 04 80 BA FC 10 0F 01 05  80 06 80 07 80 08 80 80  ................
00E0: F0 FF FF 7F 80 FB 10 0F  01 80 FC 10 0F 01 80 F8  ................
00F0: 10 0F 01 80 99 10 0F 01  80 A4 10 0F 01 80 A5 10  ................
0100: 0F 01 80 13 10 0F 01 80  12 10 0F 01 80 10 10 0F  ................
0110: 01 80 11 10 0F 01 80 FA  10 0F 01 80 E4 10 0F 01  ................
0120: 80 08 11 0F 01 4A F0 FF  FF 7F FB 10 0F 01 4A FB  .....J........J.
0130: 10 0F 01 F0 FF FF 7F 4A  F8 10 0F 01 13 10 0F 01  .......J........
0140: 4A 13 10 0F 01 F8 10 0F  01 6C FC 10 0F 01 09 80  J........l......
0150: 0A 80 27 05 E4 10 0F 01  03 27 05 08 11 0F 01 03  ..'......'......
0160: 66 0B 80 F8 10 0F 01 F8  10 0F 01 74 6C 6B 30 66  f..........tlk0f
0170: 0C 80 13 10 0F 01 13 10  0F 01 74 68 6B 31 5C 00  ..........thk1\.
0180: 0D 80 5C 01 0D 80 9A 1C  0E 80 45 0F 80 F8 FF FF  ..\.......E.....
0190: 7F F8 FF FF 7F 73 30 35  33 09 80 1C 0E 80 1A 77  .....s053......w
01A0: 2D 6E F8 FF FF 7F 10 80  99 F8 FF FF 7F 1C 11 80  -n..............
01B0: 1D 12 80 23 52 0F 80 F8  FF FF 7F F8 FF FF 7F 73  ...#R..........s
01C0: 30 35 33 45 0F 80 F8 FF  FF 7F F8 FF FF 7F 73 30  053E..........s0
01D0: 35 34 09 80 66 13 80 F8  FF FF 7F F8 FF FF 7F 74  54..f..........t
01E0: 6C 6B 30 03 02 10 14 80  1D 15 80 23 66 13 80 F8  lk0........#f...
01F0: FF FF 7F F8 FF FF 7F 74  6C 6B 31 53 F8 FF FF 7F  .......tlk1S....
0200: F8 FF FF 7F 74 6C 6B 31  06 00 00 24 16 80 09 80  ....tlk1...$....
0210: 09 80 25 02 00 10 09 80  00 51 02 52 0F 80 F8 FF  ..%......Q.R....
0220: FF 7F F8 FF FF 7F 73 30  35 34 45 0F 80 F8 FF FF  ......s054E.....
0230: 7F F8 FF FF 7F 73 30 35  37 09 80 6E F8 FF FF 7F  .....s057..n....
0240: 17 80 99 F8 FF FF 7F 1C  18 80 1D 19 80 23 01 5A  .............#.Z
0250: 03 02 00 10 0A 80 00 D3  02 52 0F 80 F8 FF FF 7F  .........R......
0260: F8 FF FF 7F 73 30 35 34  45 0F 80 F8 FF FF 7F F8  ....s054E.......
0270: FF FF 7F 73 30 35 37 09  80 02 00 00 1A 80 04 97  ...s057.........
0280: 02 6E F8 FF FF 7F 1B 80  99 F8 FF FF 7F 1C 1C 80  .n..............
0290: 1D 1D 80 23 01 D0 02 0B  00 00 6E F8 FF FF 7F 1E  ...#......n.....
02A0: 80 99 F8 FF FF 7F 1C 11  80 1D 1F 80 23 52 0F 80  ............#R..
02B0: F8 FF FF 7F F8 FF FF 7F  73 30 35 37 45 0F 80 F8  ........s057E...
02C0: FF FF 7F F8 FF FF 7F 73  30 35 34 09 80 01 0B 02  .......s054.....
02D0: 01 5A 03 02 00 10 20 80  00 5A 03 52 0F 80 F8 FF  .Z.... ..Z.R....
02E0: FF 7F F8 FF FF 7F 73 30  35 34 45 0F 80 F8 FF FF  ......s054E.....
02F0: 7F F8 FF FF 7F 73 30 35  35 09 80 27 05 F0 FF FF  .....s055..'....
0300: 7F 78 1C 18 80 1E F0 FF  FF 7F 1C 0E 80 52 0F 80  .x...........R..
0310: F8 FF FF 7F F8 FF FF 7F  73 30 35 35 45 0F 80 F8  ........s055E...
0320: FF FF 7F F8 FF FF 7F 73  30 35 36 09 80 6E F8 FF  .......s056..n..
0330: FF 7F 21 80 99 F8 FF FF  7F 4A 99 10 0F 01 F0 FF  ..!......J......
0340: FF 7F 6F 76 99 10 0F 01  03 02 10 14 80 1D 22 80  ..ov..........".
0350: 23 1C 18 80 01 08 0B 01  5A 03 52 0F 80 F8 FF FF  #.......Z.R.....
0360: 7F F8 FF FF 7F 73 30 35  37 45 0F 80 F8 FF FF 7F  .....s057E......
0370: F8 FF FF 7F 73 30 35 38  09 80 03 02 10 14 80 1D  ....s058........
0380: 23 80 23 6E FB 10 0F 01  24 80 99 FB 10 0F 01 1C  #.#n....$.......
0390: 18 80 6C FC 10 0F 01 25  80 18 80 03 02 10 26 80  ..l....%......&.
03A0: 1D 27 80 23 52 0F 80 F8  FF FF 7F F8 FF FF 7F 73  .'.#R..........s
03B0: 30 35 38 02 87 7F 28 80  80 CF 03 45 0F 80 F8 FF  058...(....E....
03C0: FF 7F F8 FF FF 7F 73 30  36 30 09 80 01 FC 03 02  ......s060......
03D0: 87 7F 1E 80 80 EB 03 45  0F 80 F8 FF FF 7F F8 FF  .......E........
03E0: FF 7F 73 30 36 30 09 80  01 FC 03 45 0F 80 F8 FF  ..s060.....E....
03F0: FF 7F F8 FF FF 7F 73 30  35 39 09 80 4A FC 10 0F  ......s059..J...
0400: 01 F0 FF FF 7F 1C 0E 80  79 00 F0 FF FF 7F FC 10  ........y.......
0410: 0F 01 5B 29 80 FC 10 0F  01 FC 10 0F 01 62 72 75  ..[).........bru
0420: 30 03 02 10 26 80 48 2A  80 1C 18 80 6B 69 64 6C  0...&.H*....kidl
0430: 30 FC 10 0F 01 1C 18 80  52 0F 80 F8 FF FF 7F F8  0.......R.......
0440: FF FF 7F 73 30 35 39 52  0F 80 F8 FF FF 7F F8 FF  ...s059R........
0450: FF 7F 73 30 36 30 45 0F  80 F8 FF FF 7F F8 FF FF  ..s060E.........
0460: 7F 73 30 36 31 09 80 66  13 80 F8 FF FF 7F F8 FF  .s061..f........
0470: FF 7F 74 6C 6B 30 1C 0E  80 79 00 F0 FF FF 7F F8  ..tlk0...y......
0480: FF FF 7F 1D 2B 80 23 66  13 80 F8 FF FF 7F F8 FF  ....+.#f........
0490: FF 7F 74 6C 6B 31 53 F8  FF FF 7F F8 FF FF 7F 74  ..tlk1S........t
04A0: 6C 6B 31 52 0F 80 F8 FF  FF 7F F8 FF FF 7F 73 30  lk1R..........s0
04B0: 36 31 45 0F 80 F8 FF FF  7F F8 FF FF 7F 73 30 36  61E..........s06
04C0: 32 09 80 24 2C 80 09 80  09 80 25 02 00 10 09 80  2..$,.....%.....
04D0: 00 18 05 6E F0 FF FF 7F  2D 80 99 F0 FF FF 7F 1C  ...n....-.......
04E0: 1C 80 52 0F 80 F8 FF FF  7F F8 FF FF 7F 73 30 36  ..R..........s06
04F0: 32 45 0F 80 F8 FF FF 7F  F8 FF FF 7F 73 30 36 33  2E..........s063
0500: 09 80 6E F8 FF FF 7F 17  80 99 F8 FF FF 7F 1D 2E  ..n.............
0510: 80 23 1C 0E 80 01 6A 05  02 00 10 0A 80 00 6A 05  .#....j.......j.
0520: 27 05 F0 FF FF 7F 73 1C  2F 80 27 05 F0 FF FF 7F  '.....s./.'.....
0530: 74 1C 0C 80 52 0F 80 F8  FF FF 7F F8 FF FF 7F 73  t...R..........s
0540: 30 36 32 45 0F 80 F8 FF  FF 7F F8 FF FF 7F 73 30  062E..........s0
0550: 36 33 09 80 6E F8 FF FF  7F 1E 80 99 F8 FF FF 7F  63..n...........
0560: 1C 18 80 1D 30 80 23 01  6A 05 52 0F 80 F8 FF FF  ....0.#.j.R.....
0570: 7F F8 FF FF 7F 73 30 36  33 45 0F 80 F8 FF FF 7F  .....s063E......
0580: F8 FF FF 7F 73 30 36 34  09 80 66 13 80 F8 FF FF  ....s064..f.....
0590: 7F F8 FF FF 7F 74 6C 6B  30 1D 31 80 23 1D 32 80  .....tlk0.1.#.2.
05A0: 23 66 13 80 F8 FF FF 7F  F8 FF FF 7F 74 6C 6B 31  #f..........tlk1
05B0: 53 F8 FF FF 7F F8 FF FF  7F 74 6C 6B 31 1D 33 80  S........tlk1.3.
05C0: 23 52 0F 80 F8 FF FF 7F  F8 FF FF 7F 73 30 36 34  #R..........s064
05D0: 45 0F 80 F8 FF FF 7F F8  FF FF 7F 73 30 36 35 09  E..........s065.
05E0: 80 1D 34 80 23 6E F8 FF  FF 7F 1B 80 99 F8 FF FF  ..4.#n..........
05F0: 7F 1C 18 80 1D 35 80 23  1C 0E 80 52 0F 80 F8 FF  .....5.#...R....
0600: FF 7F F8 FF FF 7F 73 30  36 35 45 0F 80 F8 FF FF  ......s065E.....
0610: 7F F8 FF FF 7F 73 30 36  36 09 80 66 13 80 F8 FF  .....s066..f....
0620: FF 7F F8 FF FF 7F 74 6C  6B 30 1D 36 80 23 1D 37  ......tlk0.6.#.7
0630: 80 23 66 13 80 F8 FF FF  7F F8 FF FF 7F 74 6C 6B  .#f..........tlk
0640: 31 53 F8 FF FF 7F F8 FF  FF 7F 74 6C 6B 31 52 0F  1S........tlk1R.
0650: 80 F8 FF FF 7F F8 FF FF  7F 73 30 36 36 02 01 00  .........s066...
0660: 0A 80 00 E1 06 45 38 80  F8 FF FF 7F F8 FF FF 7F  .....E8.........
0670: 73 30 30 38 09 80 1C 0E  80 1E F8 10 0F 01 6F 70  s008..........op
0680: 6E F8 FF FF 7F 09 80 99  F8 FF FF 7F 1C 18 80 4A  n..............J
0690: F0 FF FF 7F F8 10 0F 01  6F 76 F0 FF FF 7F 1C 0C  ........ov......
06A0: 80 52 38 80 F8 FF FF 7F  F8 FF FF 7F 73 30 30 38  .R8.........s008
06B0: 45 0F 80 F8 FF FF 7F F8  FF FF 7F 73 30 36 37 09  E..........s067.
06C0: 80 1C 18 80 1D 39 80 23  1C 0E 80 1E F0 FF FF 7F  .....9.#........
06D0: 6F 70 52 0F 80 F8 FF FF  7F F8 FF FF 7F 73 30 36  opR..........s06
06E0: 37 45 0F 80 F8 FF FF 7F  F8 FF FF 7F 73 30 36 38  7E..........s068
06F0: 09 80 1C 0E 80 4A F0 FF  FF 7F F8 FF FF 7F 6F 76  .....J........ov
0700: F0 FF FF 7F 6E FB 10 0F  01 3A 80 99 FB 10 0F 01  ....n....:......
0710: 1C 18 80 03 02 10 26 80  02 02 00 14 80 05 28 07  ......&.......(.
0720: 03 03 10 14 80 01 2D 07  03 03 10 02 00 1D 3B 80  ......-.......;.
0730: 23 1C 1C 80 52 0F 80 F8  FF FF 7F F8 FF FF 7F 73  #...R..........s
0740: 30 36 38 02 87 7F 28 80  80 5F 07 45 0F 80 F8 FF  068...(.._.E....
0750: FF 7F F8 FF FF 7F 73 30  37 30 09 80 01 8C 07 02  ......s070......
0760: 87 7F 1E 80 80 7B 07 45  0F 80 F8 FF FF 7F F8 FF  .....{.E........
0770: FF 7F 73 30 37 30 09 80  01 8C 07 45 0F 80 F8 FF  ..s070.....E....
0780: FF 7F F8 FF FF 7F 73 30  36 39 09 80 7C 00 F8 FF  ......s069..|...
0790: FF 7F 1D 3C 80 23 7C 01  F8 FF FF 7F 52 0F 80 F8  ...<.#|.....R...
07A0: FF FF 7F F8 FF FF 7F 73  30 36 39 52 0F 80 F8 FF  .......s069R....
07B0: FF 7F F8 FF FF 7F 73 30  37 30 45 0F 80 F8 FF FF  ......s070E.....
07C0: 7F F8 FF FF 7F 73 30 37  31 09 80 1D 3D 80 32 0C  .....s071...=.2.
07D0: 80 1F 00 3E 80 3F 80 40  80 1F 01 1C 0E 80 6E FB  ...>.?.@......n.
07E0: 10 0F 01 24 80 99 FB 10  0F 01 1C 18 80 BB 10 80  ...$............
07F0: FC 10 0F 01 FC 10 0F 01  74 72 67 30 09 80 1C 18  ........trg0....
0800: 80 23 52 0F 80 F8 FF FF  7F F8 FF FF 7F 73 30 37  .#R..........s07
0810: 31 45 0F 80 F8 FF FF 7F  F8 FF FF 7F 73 30 37 32  1E..........s072
0820: 09 80 6E FB 10 0F 01 41  80 99 FB 10 0F 01 1C 0E  ..n....A........
0830: 80 1D 42 80 23 7B F8 FF  FF 7F 1C 43 80 52 0F 80  ..B.#{.....C.R..
0840: F8 FF FF 7F F8 FF FF 7F  73 30 37 32 45 0F 80 F8  ........s072E...
0850: FF FF 7F F8 FF FF 7F 73  30 37 33 09 80 1C 44 80  .......s073...D.
0860: 1D 45 80 23 1C 46 80 52  0F 80 F8 FF FF 7F F8 FF  .E.#.F.R........
0870: FF 7F 73 30 37 33 02 87  7F 28 80 80 92 08 45 38  ..s073...(....E8
0880: 80 F8 FF FF 7F F8 FF FF  7F 73 30 30 39 09 80 01  .........s009...
0890: BF 08 02 87 7F 1E 80 80  AE 08 45 38 80 F8 FF FF  ..........E8....
08A0: 7F F8 FF FF 7F 73 30 30  39 09 80 01 BF 08 45 0F  .....s009.....E.
08B0: 80 F8 FF FF 7F F8 FF FF  7F 73 30 37 34 09 80 02  .........s074...
08C0: 02 00 14 80 05 CF 08 03  03 10 14 80 01 D4 08 03  ................
08D0: 03 10 02 00 24 47 80 09  80 09 80 25 02 00 10 09  ....$G.....%....
08E0: 80 00 F6 08 6E F0 FF FF  7F 1E 80 99 F0 FF FF 7F  ....n...........
08F0: 1C 11 80 01 2A 09 02 00  10 0A 80 00 10 09 6E F0  ....*.........n.
0900: FF FF 7F 48 80 99 F0 FF  FF 7F 1C 49 80 01 2A 09  ...H.......I..*.
0910: 02 00 10 20 80 00 2A 09  6E F0 FF FF 7F 1B 80 99  ... ..*.n.......
0920: F0 FF FF 7F 1C 1C 80 01  2A 09 52 0F 80 F8 FF FF  ........*.R.....
0930: 7F F8 FF FF 7F 73 30 37  34 52 38 80 F8 FF FF 7F  .....s074R8.....
0940: F8 FF FF 7F 73 30 30 39  45 0F 80 F8 FF FF 7F F8  ....s009E.......
0950: FF FF 7F 73 30 37 35 09  80 6E FB 10 0F 01 4A 80  ...s075..n....J.
0960: 99 FB 10 0F 01 79 00 F8  FF FF 7F F0 FF FF 7F 1D  .....y..........
0970: 4B 80 23 1C 0E 80 27 05  F0 FF FF 7F 73 52 0F 80  K.#...'.....sR..
0980: F8 FF FF 7F F8 FF FF 7F  73 30 37 35 45 0F 80 F8  ........s075E...
0990: FF FF 7F F8 FF FF 7F 73  30 37 36 09 80 1C 2F 80  .......s076.../.
09A0: 27 05 F0 FF FF 7F 74 1C  0C 80 1D 4C 80 23 6E FB  '.....t....L.#n.
09B0: 10 0F 01 24 80 99 FB 10  0F 01 1C 18 80 6C FC 10  ...$.........l..
09C0: 0F 01 25 80 18 80 66 13  80 F8 FF FF 7F F8 FF FF  ..%...f.........
09D0: 7F 74 6C 6B 30 1D 4D 80  23 66 13 80 F8 FF FF 7F  .tlk0.M.#f......
09E0: F8 FF FF 7F 74 6C 6B 31  1C 0E 80 52 0F 80 F8 FF  ....tlk1...R....
09F0: FF 7F F8 FF FF 7F 73 30  37 36 02 87 7F 28 80 80  ......s076...(..
0A00: 16 0A 45 0F 80 F8 FF FF  7F F8 FF FF 7F 73 30 36  ..E..........s06
0A10: 30 09 80 01 43 0A 02 87  7F 1E 80 80 32 0A 45 0F  0...C.......2.E.
0A20: 80 F8 FF FF 7F F8 FF FF  7F 73 30 36 30 09 80 01  .........s060...
0A30: 43 0A 45 0F 80 F8 FF FF  7F F8 FF FF 7F 73 30 35  C.E..........s05
0A40: 39 09 80 1C 43 80 4A F0  FF FF 7F FC 10 0F 01 1C  9...C.J.........
0A50: 4E 80 5B 29 80 FC 10 0F  01 FC 10 0F 01 62 72 75  N.[).........bru
0A60: 30 03 02 10 26 80 48 2A  80 1C 1C 80 6B 69 64 6C  0...&.H*....kidl
0A70: 30 FC 10 0F 01 1C 18 80  52 0F 80 F8 FF FF 7F F8  0.......R.......
0A80: FF FF 7F 73 30 35 39 52  0F 80 F8 FF FF 7F F8 FF  ...s059R........
0A90: FF 7F 73 30 36 30 02 87  7F 28 80 80 B2 0A 45 38  ..s060...(....E8
0AA0: 80 F8 FF FF 7F F8 FF FF  7F 73 30 31 30 09 80 01  .........s010...
0AB0: DF 0A 02 87 7F 1E 80 80  CE 0A 45 38 80 F8 FF FF  ..........E8....
0AC0: 7F F8 FF FF 7F 73 30 31  30 09 80 01 DF 0A 45 0F  .....s010.....E.
0AD0: 80 F8 FF FF 7F F8 FF FF  7F 73 30 37 37 09 80 1C  .........s077...
0AE0: 18 80 6E F0 FF FF 7F 24  80 99 F0 FF FF 7F 1C 11  ..n....$........
0AF0: 80 BB 10 80 FC 10 0F 01  FC 10 0F 01 74 72 67 30  ............trg0
0B00: 09 80 1C 4F 80 05 01 10  1A 98 2D 52 38 80 F8 FF  ...O......-R8...
0B10: FF 7F F8 FF FF 7F 73 30  31 30 52 0F 80 F8 FF FF  ......s010R.....
0B20: 7F F8 FF FF 7F 73 30 35  36 52 0F 80 F8 FF FF 7F  .....s056R......
0B30: F8 FF FF 7F 73 30 37 37  5C 00 50 80 5C 01 50 80  ....s077\.P.\.P.
0B40: 9A 27 05 E4 10 0F 01 04  27 05 08 11 0F 01 04 1C  .'......'.......
0B50: 46 80 AB 11 09 80 1C 0A  80 46 00 02 01 10 0A 80  F........F......
0B60: 00 74 0B 45 51 80 F8 FF  FF 7F F8 FF FF 7F 71 73  .t.EQ.........qs
0B70: 74 63 09 80 45 52 80 F0  FF FF 7F F0 FF FF 7F 66  tc..ER.........f
0B80: 64 69 32 09 80 21 00                              di2..!.         
```

#### Opcodes

```
  0: 0x0001 [0x42] SET_CLI_EVENT_CANCEL_DATA()
  1: 0x0002 [0x03] ExtData[1]->WorkLocal[1] = Work_Zone[2]
  2: 0x0007 [0x03] ExtData[1]->WorkLocal[2] = Work_Zone[3]
  3: 0x000C [0x06] Work_Zone[1] = 0
  4: 0x000F [0x1A] CALL_SUBROUTINE(address=0x2D98)
  5: 0x0012 [0x46] CAMERA_CONTROL: Disable user control
  6: 0x0014 [0x38] SET_CLIENT_EVENT_MODE(mode=147*)
  7: 0x0017 [0x2F] ??? (ID: 17764604/0x010F10FC)->Render.Flags0 &= ~0x80000 // Bit 19
  8: 0x001D [0x4E] SET_ENTITY_HIDE_FLAG: Show ??? (ID: 17764604/0x010F10FC)
  9: 0x0023 [0x92] Fhelm Jobeizat (ID: 17764603/0x010F10FB)->Render.Flags3 ^= 0x01
 10: 0x0029 [0x92] ??? (ID: 17764604/0x010F10FC)->Render.Flags3 ^= 0x01
 11: 0x002F [0x92] Selele (ID: 17764600/0x010F10F8)->Render.Flags3 ^= 0x01
 12: 0x0035 [0x92] Femardaque (ID: 17764505/0x010F1099)->Render.Flags3 ^= 0x01
 13: 0x003B [0x92] Ten of Spades (ID: 17764516/0x010F10A4)->Render.Flags3 ^= 0x01
 14: 0x0041 [0x92] Nine of Spades (ID: 17764517/0x010F10A5)->Render.Flags3 ^= 0x01
 15: 0x0047 [0x92] Miiri-Wohri (ID: 17764371/0x010F1013)->Render.Flags3 ^= 0x01
 16: 0x004D [0x92] Sola Jaab (ID: 17764370/0x010F1012)->Render.Flags3 ^= 0x01
 17: 0x0053 [0x92] Rakoh Buuma (ID: 17764368/0x010F1010)->Render.Flags3 ^= 0x01
 18: 0x0059 [0x92] Tih Pikeh (ID: 17764369/0x010F1011)->Render.Flags3 ^= 0x01
 19: 0x005F [0x92] Voidwatch Purveyor (ID: 17764602/0x010F10FA)->Render.Flags3 ^= 0x01
 20: 0x0065 [0x92] Bozack (ID: 17764580/0x010F10E4)->Render.Flags3 ^= 0x01
 21: 0x006B [0x92] Sevah Kummekihn (ID: 17764616/0x010F1108)->Render.Flags3 ^= 0x01
 22: 0x0071 [0x94] LocalPlayer->Render.Flags3 ^= 0x01
 23: 0x0077 [0x94] Fhelm Jobeizat (ID: 17764603/0x010F10FB)->Render.Flags3 ^= 0x01
 24: 0x007D [0x94] ??? (ID: 17764604/0x010F10FC)->Render.Flags3 ^= 0x01
 25: 0x0083 [0x94] Selele (ID: 17764600/0x010F10F8)->Render.Flags3 ^= 0x01
 26: 0x0089 [0x94] Femardaque (ID: 17764505/0x010F1099)->Render.Flags3 ^= 0x01
 27: 0x008F [0x94] Ten of Spades (ID: 17764516/0x010F10A4)->Render.Flags3 ^= 0x01
 28: 0x0095 [0x94] Nine of Spades (ID: 17764517/0x010F10A5)->Render.Flags3 ^= 0x01
 29: 0x009B [0x94] Miiri-Wohri (ID: 17764371/0x010F1013)->Render.Flags3 ^= 0x01
 30: 0x00A1 [0x94] Sola Jaab (ID: 17764370/0x010F1012)->Render.Flags3 ^= 0x01
 31: 0x00A7 [0x94] Rakoh Buuma (ID: 17764368/0x010F1010)->Render.Flags3 ^= 0x01
 32: 0x00AD [0x94] Tih Pikeh (ID: 17764369/0x010F1011)->Render.Flags3 ^= 0x01
 33: 0x00B3 [0x94] Voidwatch Purveyor (ID: 17764602/0x010F10FA)->Render.Flags3 ^= 0x01
 34: 0x00B9 [0x94] Bozack (ID: 17764580/0x010F10E4)->Render.Flags3 ^= 0x01
 35: 0x00BF [0x94] Sevah Kummekihn (ID: 17764616/0x010F1108)->Render.Flags3 ^= 0x01
 36: 0x00C5 [0xBA] SET_ENTITY_POSITION(entity_id=LocalPlayer, pos_x=91.137*, pos_z=-42.985*, pos_y=-4.398*, direction=14.7*)
 37: 0x00D2 [0xBA] SET_ENTITY_POSITION(entity_id=??? (ID: 17764604/0x010F10FC), pos_x=89.986*, pos_z=-42.966*, pos_y=-4.254*, direction=123.0*)
 38: 0x00DF [0x80] LOAD_WAIT(entity=LocalPlayer)
 39: 0x00E4 [0x80] LOAD_WAIT(entity=Fhelm Jobeizat (ID: 17764603/0x010F10FB))
 40: 0x00E9 [0x80] LOAD_WAIT(entity=??? (ID: 17764604/0x010F10FC))
 41: 0x00EE [0x80] LOAD_WAIT(entity=Selele (ID: 17764600/0x010F10F8))
 42: 0x00F3 [0x80] LOAD_WAIT(entity=Femardaque (ID: 17764505/0x010F1099))
 43: 0x00F8 [0x80] LOAD_WAIT(entity=Ten of Spades (ID: 17764516/0x010F10A4))
 44: 0x00FD [0x80] LOAD_WAIT(entity=Nine of Spades (ID: 17764517/0x010F10A5))
 45: 0x0102 [0x80] LOAD_WAIT(entity=Miiri-Wohri (ID: 17764371/0x010F1013))
 46: 0x0107 [0x80] LOAD_WAIT(entity=Sola Jaab (ID: 17764370/0x010F1012))
 47: 0x010C [0x80] LOAD_WAIT(entity=Rakoh Buuma (ID: 17764368/0x010F1010))
 48: 0x0111 [0x80] LOAD_WAIT(entity=Tih Pikeh (ID: 17764369/0x010F1011))
 49: 0x0116 [0x80] LOAD_WAIT(entity=Voidwatch Purveyor (ID: 17764602/0x010F10FA))
 50: 0x011B [0x80] LOAD_WAIT(entity=Bozack (ID: 17764580/0x010F10E4))
 51: 0x0120 [0x80] LOAD_WAIT(entity=Sevah Kummekihn (ID: 17764616/0x010F1108))
 52: 0x0125 [0x4A] LocalPlayer looks at Fhelm Jobeizat (ID: 17764603/0x010F10FB)
 53: 0x012E [0x4A] Fhelm Jobeizat (ID: 17764603/0x010F10FB) looks at LocalPlayer
 54: 0x0137 [0x4A] Selele (ID: 17764600/0x010F10F8) looks at Miiri-Wohri (ID: 17764371/0x010F1013)
 55: 0x0140 [0x4A] Miiri-Wohri (ID: 17764371/0x010F1013) looks at Selele (ID: 17764600/0x010F10F8)
 56: 0x0149 [0x6C] FADE_ENTITY_COLOR(entity_id=??? (ID: 17764604/0x010F10FC), end_alpha=0*, fade_time=1*)
 57: 0x0152 [0x27] REQ_SET(priority=0x05, entity_id=Bozack (ID: 17764580/0x010F10E4), tag_num=0x03)
 58: 0x0159 [0x27] REQ_SET(priority=0x05, entity_id=Sevah Kummekihn (ID: 17764616/0x010F1108), tag_num=0x03)
 59: 0x0160 [0x66] LOAD_EXT_SCHEDULER_MAIN: Load scheduler "tlk0" with entities [Selele (ID: 17764600/0x010F10F8), Selele (ID: 17764600/0x010F10F8)], work=49*
 60: 0x016F [0x66] LOAD_EXT_SCHEDULER_MAIN: Load scheduler "thk1" with entities [Miiri-Wohri (ID: 17764371/0x010F1013), Miiri-Wohri (ID: 17764371/0x010F1013)], work=40*
 61: 0x017E [0x5C] MUSIC_CONTROL: Set Idle (Day) music to song 163*
 62: 0x0182 [0x5C] MUSIC_CONTROL: Set Idle (Night) music to song 163*
 63: 0x0186 [0x9A] WAIT_MUSIC_SERVER()
 64: 0x0187 [0x1C] WAIT(30* ticks)
 65: 0x018A [0x45] LOAD_SCHEDULED_TASK: Load scheduler "s053" with entities [EventEntity, EventEntity], work=[628*, 0*]
 66: 0x019B [0x1C] WAIT(30* ticks)
 67: 0x019E [0x1A] CALL_SUBROUTINE(address=0x2D77)
 68: 0x01A1 [0x6E] EventEntity uses emote 10*
 69: 0x01A8 [0x99] Wait for EventEntity animation to complete
 70: 0x01AD [0x1C] WAIT(75* ticks)
 71: 0x01B0 [0x1D] PRINT_EVENT_MESSAGE(message_id=13822*)
     "Congrrratulations! Oh, if only I were as lucky as you."
 72: 0x01B3 [0x23] WAIT_FOR_DIALOG_INTERACTION
 73: 0x01B4 [0x52] END_LOAD_SCHEDULER: End scheduler "s053" with entities [EventEntity, EventEntity], work=628*
 74: 0x01C3 [0x45] LOAD_SCHEDULED_TASK: Load scheduler "s054" with entities [EventEntity, EventEntity], work=[628*, 0*]
 75: 0x01D4 [0x66] LOAD_EXT_SCHEDULER_MAIN: Load scheduler "tlk0" with entities [EventEntity, EventEntity], work=59*
 76: 0x01E3 [0x03] Work_Zone[2] = 11111*
 77: 0x01E8 [0x1D] PRINT_EVENT_MESSAGE(message_id=13823*)
     "Here goes nothing. <Hffffff> You're the eleven thousand, one hundred eleventh person to ever visit this square! To honor this crrrowning achievement, we're prepared to offer you a hefty reward."
 78: 0x01EB [0x23] WAIT_FOR_DIALOG_INTERACTION
 79: 0x01EC [0x66] LOAD_EXT_SCHEDULER_MAIN: Load scheduler "tlk1" with entities [EventEntity, EventEntity], work=59*
 80: 0x01FB [0x53] WAIT_SCHEDULER_TASK: Wait for scheduler "tlk1" with entities [EventEntity, EventEntity]
 81: 0x0208 [0x06] ExtData[1]->WorkLocal[0] = 0
 82: 0x020B [0x24] CREATE_DIALOG(message_id=13824*, default_option=0*, option_flags=0*)
     "How will you respond? [How hefty?/None of this poppycock for me./Don't. Just walk away.]"
 83: 0x0212 [0x25] WAIT_DIALOG_SELECT()
 84: 0x0213 [0x02] IF !(Work_Zone[0] == 0*) GOTO 0x0251
 85: 0x021B [0x52] END_LOAD_SCHEDULER: End scheduler "s054" with entities [EventEntity, EventEntity], work=628*
 86: 0x022A [0x45] LOAD_SCHEDULED_TASK: Load scheduler "s057" with entities [EventEntity, EventEntity], work=[628*, 0*]
 87: 0x023B [0x6E] EventEntity uses emote 7*
 88: 0x0242 [0x99] Wait for EventEntity animation to complete
 89: 0x0247 [0x1C] WAIT(60* ticks)
 90: 0x024A [0x1D] PRINT_EVENT_MESSAGE(message_id=13828*)
     "They say that currriosity killed the cat, but I can assure you that's not the case here!"
 91: 0x024D [0x23] WAIT_FOR_DIALOG_INTERACTION
 92: 0x024E [0x01] GOTO 0x035A
 93: 0x0251 [0x02] IF !(Work_Zone[0] == 1*) GOTO 0x02D3
 94: 0x0259 [0x52] END_LOAD_SCHEDULER: End scheduler "s054" with entities [EventEntity, EventEntity], work=628*
 95: 0x0268 [0x45] LOAD_SCHEDULED_TASK: Load scheduler "s057" with entities [EventEntity, EventEntity], work=[628*, 0*]
 96: 0x0279 [0x02] IF !(ExtData[1]->WorkLocal[0] < 4*) GOTO 0x0297
 97: 0x0281 [0x6E] EventEntity uses emote 22*
 98: 0x0288 [0x99] Wait for EventEntity animation to complete
 99: 0x028D [0x1C] WAIT(90* ticks)
100: 0x0290 [0x1D] PRINT_EVENT_MESSAGE(message_id=13827*)
     "Ah, frrresh meat! Stay a while and listen!"
101: 0x0293 [0x23] WAIT_FOR_DIALOG_INTERACTION
102: 0x0294 [0x01] GOTO 0x02D0
103: 0x0297 [0x0B] ExtData[1]->WorkLocal[0]++
104: 0x029A [0x6E] EventEntity uses emote 6*
105: 0x02A1 [0x99] Wait for EventEntity animation to complete
106: 0x02A6 [0x1C] WAIT(75* ticks)
107: 0x02A9 [0x1D] PRINT_EVENT_MESSAGE(message_id=13826*)
     "Poppycock? I'll tell you what's poppycock--thrrrowing away your chance to receive a breath-stopping prize for being the eleven thousand, one hundred eleventh visitor!"
108: 0x02AC [0x23] WAIT_FOR_DIALOG_INTERACTION
109: 0x02AD [0x52] END_LOAD_SCHEDULER: End scheduler "s057" with entities [EventEntity, EventEntity], work=628*
110: 0x02BC [0x45] LOAD_SCHEDULED_TASK: Load scheduler "s054" with entities [EventEntity, EventEntity], work=[628*, 0*]
111: 0x02CD [0x01] GOTO 0x020B

SUBROUTINE_02D0:
112: 0x02D0 [0x01] GOTO 0x035A
113: 0x02D3 [0x02] IF !(Work_Zone[0] == 2*) GOTO 0x035A
114: 0x02DB [0x52] END_LOAD_SCHEDULER: End scheduler "s054" with entities [EventEntity, EventEntity], work=628*
115: 0x02EA [0x45] LOAD_SCHEDULED_TASK: Load scheduler "s055" with entities [EventEntity, EventEntity], work=[628*, 0*]
116: 0x02FB [0x27] REQ_SET(priority=0x05, entity_id=LocalPlayer, tag_num=0x78)
117: 0x0302 [0x1C] WAIT(60* ticks)
118: 0x0305 [0x1E] EventEntity looks at LocalPlayer and starts talking
119: 0x030A [0x1C] WAIT(30* ticks)
120: 0x030D [0x52] END_LOAD_SCHEDULER: End scheduler "s055" with entities [EventEntity, EventEntity], work=628*
121: 0x031C [0x45] LOAD_SCHEDULED_TASK: Load scheduler "s056" with entities [EventEntity, EventEntity], work=[628*, 0*]
122: 0x032D [0x6E] EventEntity uses emote 16*
123: 0x0334 [0x99] Wait for EventEntity animation to complete
124: 0x0339 [0x4A] Femardaque (ID: 17764505/0x010F1099) looks at LocalPlayer
125: 0x0342 [0x6F] WAIT_FRAME_DELAY: Yield until WaitTime reaches zero
126: 0x0343 [0x76] CHECK_ENTITY_RENDER_FLAGS: Wait until Femardaque (ID: 17764505/0x010F1099) Render.Flags0 and Render.Flags3 conditions are met
127: 0x0348 [0x03] Work_Zone[2] = 11111*
128: 0x034D [0x1D] PRINT_EVENT_MESSAGE(message_id=13825*)
     "Hey, wait up! It's not like I go around saying this to everyone who comes my way. You're trrruly the eleven thousand, one hundred eleventh visitor!"
129: 0x0350 [0x23] WAIT_FOR_DIALOG_INTERACTION
130: 0x0351 [0x1C] WAIT(60* ticks)
131: 0x0354 [0x01] GOTO 0x0B08

SUBROUTINE_035A:
132: 0x035A [0x52] END_LOAD_SCHEDULER: End scheduler "s057" with entities [EventEntity, EventEntity], work=628*
133: 0x0369 [0x45] LOAD_SCHEDULED_TASK: Load scheduler "s058" with entities [EventEntity, EventEntity], work=[628*, 0*]
134: 0x037A [0x03] Work_Zone[2] = 11111*
135: 0x037F [0x1D] PRINT_EVENT_MESSAGE(message_id=13829*)
     "Now, to peel back the veritable curtain on your commemorative prrrize..."
136: 0x0382 [0x23] WAIT_FOR_DIALOG_INTERACTION
137: 0x0383 [0x6E] Fhelm Jobeizat (ID: 17764603/0x010F10FB) uses emote 14*
138: 0x038A [0x99] Wait for Fhelm Jobeizat (ID: 17764603/0x010F10FB) animation to complete
139: 0x038F [0x1C] WAIT(60* ticks)
140: 0x0392 [0x6C] FADE_ENTITY_COLOR(entity_id=??? (ID: 17764604/0x010F10FC), end_alpha=128*, fade_time=60*)
141: 0x039B [0x03] Work_Zone[2] = 2466*
142: 0x03A0 [0x1D] PRINT_EVENT_MESSAGE(message_id=13830*)
     "Ta-daaa, it's $6! Aren't you in rrrapture now?"
143: 0x03A3 [0x23] WAIT_FOR_DIALOG_INTERACTION
144: 0x03A4 [0x52] END_LOAD_SCHEDULER: End scheduler "s058" with entities [EventEntity, EventEntity], work=628*
145: 0x03B3 [0x02] IF !(LocalPlayer->Race == 5*) GOTO 0x03CF
146: 0x03BB [0x45] LOAD_SCHEDULED_TASK: Load scheduler "s060" with entities [EventEntity, EventEntity], work=[628*, 0*]
147: 0x03CC [0x01] GOTO 0x03FC
148: 0x03CF [0x02] IF !(LocalPlayer->Race == 6*) GOTO 0x03EB
149: 0x03D7 [0x45] LOAD_SCHEDULED_TASK: Load scheduler "s060" with entities [EventEntity, EventEntity], work=[628*, 0*]
150: 0x03E8 [0x01] GOTO 0x03FC
151: 0x03EB [0x45] LOAD_SCHEDULED_TASK: Load scheduler "s059" with entities [EventEntity, EventEntity], work=[628*, 0*]

SUBROUTINE_03FC:
152: 0x03FC [0x4A] ??? (ID: 17764604/0x010F10FC) looks at LocalPlayer
153: 0x0405 [0x1C] WAIT(30* ticks)
154: 0x0408 [0x79] LocalPlayer looks at ??? (ID: 17764604/0x010F10FC) (Basic look)
155: 0x0412 [0x5B] LOAD_EXT_SCHEDULER: Load scheduler "bru0" with entities [??? (ID: 17764604/0x010F10FC), ??? (ID: 17764604/0x010F10FC)], work=252*
156: 0x0421 [0x03] Work_Zone[2] = 2466*
157: 0x0426 [0x48] [System] [13858*]:
     "The $3 nods in agreement."
158: 0x0429 [0x1C] WAIT(60* ticks)
159: 0x042C [0x6B] STOP_AND_IDLE: ??? (ID: 17764604/0x010F10FC) stops current action and resets to idle (animation="idl0")
160: 0x0435 [0x1C] WAIT(60* ticks)
161: 0x0438 [0x52] END_LOAD_SCHEDULER: End scheduler "s059" with entities [EventEntity, EventEntity], work=628*
162: 0x0447 [0x52] END_LOAD_SCHEDULER: End scheduler "s060" with entities [EventEntity, EventEntity], work=628*
163: 0x0456 [0x45] LOAD_SCHEDULED_TASK: Load scheduler "s061" with entities [EventEntity, EventEntity], work=[628*, 0*]
164: 0x0467 [0x66] LOAD_EXT_SCHEDULER_MAIN: Load scheduler "tlk0" with entities [EventEntity, EventEntity], work=59*
165: 0x0476 [0x1C] WAIT(30* ticks)
166: 0x0479 [0x79] LocalPlayer looks at EventEntity (Basic look)
167: 0x0483 [0x1D] PRINT_EVENT_MESSAGE(message_id=13831*)
     "This is no ordinary, run-of-the-mill doll, I'll have you know! It's imbued with sorcery and engrrraves your "Records of Eminence" exploits upon itself. Now that's a handy-dandy tool if I've ever heard of one!"
168: 0x0486 [0x23] WAIT_FOR_DIALOG_INTERACTION
169: 0x0487 [0x66] LOAD_EXT_SCHEDULER_MAIN: Load scheduler "tlk1" with entities [EventEntity, EventEntity], work=59*
170: 0x0496 [0x53] WAIT_SCHEDULER_TASK: Wait for scheduler "tlk1" with entities [EventEntity, EventEntity]
171: 0x04A3 [0x52] END_LOAD_SCHEDULER: End scheduler "s061" with entities [EventEntity, EventEntity], work=628*
172: 0x04B2 [0x45] LOAD_SCHEDULED_TASK: Load scheduler "s062" with entities [EventEntity, EventEntity], work=[628*, 0*]
173: 0x04C3 [0x24] CREATE_DIALOG(message_id=13832*, default_option=0*, option_flags=0*)
     "Anything to say? [I've always wanted one of those!/Records of Eminence...?]"
174: 0x04CA [0x25] WAIT_DIALOG_SELECT()
175: 0x04CB [0x02] IF !(Work_Zone[0] == 0*) GOTO 0x0518
176: 0x04D3 [0x6E] LocalPlayer uses emote 36*
177: 0x04DA [0x99] Wait for LocalPlayer animation to complete
178: 0x04DF [0x1C] WAIT(90* ticks)
179: 0x04E2 [0x52] END_LOAD_SCHEDULER: End scheduler "s062" with entities [EventEntity, EventEntity], work=628*
180: 0x04F1 [0x45] LOAD_SCHEDULED_TASK: Load scheduler "s063" with entities [EventEntity, EventEntity], work=[628*, 0*]
181: 0x0502 [0x6E] EventEntity uses emote 7*
182: 0x0509 [0x99] Wait for EventEntity animation to complete
183: 0x050E [0x1D] PRINT_EVENT_MESSAGE(message_id=13833*)
     "Exactly! You can never go wrrrong with them, I say. But wait... There's more!"
184: 0x0511 [0x23] WAIT_FOR_DIALOG_INTERACTION
185: 0x0512 [0x1C] WAIT(30* ticks)
186: 0x0515 [0x01] GOTO 0x056A
187: 0x0518 [0x02] IF !(Work_Zone[0] == 1*) GOTO 0x056A
188: 0x0520 [0x27] REQ_SET(priority=0x05, entity_id=LocalPlayer, tag_num=0x73)
189: 0x0527 [0x1C] WAIT(80* ticks)
190: 0x052A [0x27] REQ_SET(priority=0x05, entity_id=LocalPlayer, tag_num=0x74)
191: 0x0531 [0x1C] WAIT(40* ticks)
192: 0x0534 [0x52] END_LOAD_SCHEDULER: End scheduler "s062" with entities [EventEntity, EventEntity], work=628*
193: 0x0543 [0x45] LOAD_SCHEDULED_TASK: Load scheduler "s063" with entities [EventEntity, EventEntity], work=[628*, 0*]
194: 0x0554 [0x6E] EventEntity uses emote 6*
195: 0x055B [0x99] Wait for EventEntity animation to complete
196: 0x0560 [0x1C] WAIT(60* ticks)
197: 0x0563 [0x1D] PRINT_EVENT_MESSAGE(message_id=13834*)
     "What? You rrreally haven't heard? I thought everyone had heard."
198: 0x0566 [0x23] WAIT_FOR_DIALOG_INTERACTION
199: 0x0567 [0x01] GOTO 0x056A

SUBROUTINE_056A:
200: 0x056A [0x52] END_LOAD_SCHEDULER: End scheduler "s063" with entities [EventEntity, EventEntity], work=628*
201: 0x0579 [0x45] LOAD_SCHEDULED_TASK: Load scheduler "s064" with entities [EventEntity, EventEntity], work=[628*, 0*]
202: 0x058A [0x66] LOAD_EXT_SCHEDULER_MAIN: Load scheduler "tlk0" with entities [EventEntity, EventEntity], work=59*
203: 0x0599 [0x1D] PRINT_EVENT_MESSAGE(message_id=13835*)
     "It may come as a surprrrise to you, but you're already participating in Records of Eminence!"
204: 0x059C [0x23] WAIT_FOR_DIALOG_INTERACTION
205: 0x059D [0x1D] PRINT_EVENT_MESSAGE(message_id=13836*)
     "Yes, indeed. By talking to me, you've cleared your first objective. That means you eventually get another prrresent: "sparks of eminence," which act as quantifiers of your grandeur!"
206: 0x05A0 [0x23] WAIT_FOR_DIALOG_INTERACTION
207: 0x05A1 [0x66] LOAD_EXT_SCHEDULER_MAIN: Load scheduler "tlk1" with entities [EventEntity, EventEntity], work=59*
208: 0x05B0 [0x53] WAIT_SCHEDULER_TASK: Wait for scheduler "tlk1" with entities [EventEntity, EventEntity]
209: 0x05BD [0x1D] PRINT_EVENT_MESSAGE(message_id=13837*)
     "Anyway, now that you know the rrropes, it's time to try it out yourself."
210: 0x05C0 [0x23] WAIT_FOR_DIALOG_INTERACTION
211: 0x05C1 [0x52] END_LOAD_SCHEDULER: End scheduler "s064" with entities [EventEntity, EventEntity], work=628*
212: 0x05D0 [0x45] LOAD_SCHEDULED_TASK: Load scheduler "s065" with entities [EventEntity, EventEntity], work=[628*, 0*]
213: 0x05E1 [0x1D] PRINT_EVENT_MESSAGE(message_id=13838*)
     "Just sink your fangs into any of the short quests in the "Objective List" under the "Records of Eminence" part of the Quests menu."
214: 0x05E4 [0x23] WAIT_FOR_DIALOG_INTERACTION
215: 0x05E5 [0x6E] EventEntity uses emote 22*
216: 0x05EC [0x99] Wait for EventEntity animation to complete
217: 0x05F1 [0x1C] WAIT(60* ticks)
218: 0x05F4 [0x1D] PRINT_EVENT_MESSAGE(message_id=13839*)
     "Easier than scooping fish from a bowl, rrright?"
219: 0x05F7 [0x23] WAIT_FOR_DIALOG_INTERACTION
220: 0x05F8 [0x1C] WAIT(30* ticks)
221: 0x05FB [0x52] END_LOAD_SCHEDULER: End scheduler "s065" with entities [EventEntity, EventEntity], work=628*
222: 0x060A [0x45] LOAD_SCHEDULED_TASK: Load scheduler "s066" with entities [EventEntity, EventEntity], work=[628*, 0*]
223: 0x061B [0x66] LOAD_EXT_SCHEDULER_MAIN: Load scheduler "tlk0" with entities [EventEntity, EventEntity], work=59*
224: 0x062A [0x1D] PRINT_EVENT_MESSAGE(message_id=13840*)
     "Certain objectives can be rrrepeated too, so there'll be more to try than there are cats in a clowder."
225: 0x062D [0x23] WAIT_FOR_DIALOG_INTERACTION
226: 0x062E [0x1D] PRINT_EVENT_MESSAGE(message_id=13841*)
     "Once you accrrrue enough sparks from completing objectives, come talk to me for a saucer of good stuff."
227: 0x0631 [0x23] WAIT_FOR_DIALOG_INTERACTION
228: 0x0632 [0x66] LOAD_EXT_SCHEDULER_MAIN: Load scheduler "tlk1" with entities [EventEntity, EventEntity], work=59*
229: 0x0641 [0x53] WAIT_SCHEDULER_TASK: Wait for scheduler "tlk1" with entities [EventEntity, EventEntity]
230: 0x064E [0x52] END_LOAD_SCHEDULER: End scheduler "s066" with entities [EventEntity, EventEntity], work=628*
231: 0x065D [0x02] IF !(ExtData[1]->WorkLocal[1] == 1*) GOTO 0x06E1
232: 0x0665 [0x45] LOAD_SCHEDULED_TASK: Load scheduler "s008" with entities [EventEntity, EventEntity], work=[616*, 0*]
233: 0x0676 [0x1C] WAIT(30* ticks)
234: 0x0679 [0x1E] EventEntity looks at Selele (ID: 17764600/0x010F10F8) and starts talking
235: 0x067E [0x6F] WAIT_FRAME_DELAY: Yield until WaitTime reaches zero
236: 0x067F [0x70] WAIT_ENTITY_RENDER_FLAG: Wait while EventEntity->Render.Flags3 bit 2 is set (cancel turn if not)
237: 0x0680 [0x6E] EventEntity uses emote 0*
238: 0x0687 [0x99] Wait for EventEntity animation to complete
239: 0x068C [0x1C] WAIT(60* ticks)
240: 0x068F [0x4A] LocalPlayer looks at Selele (ID: 17764600/0x010F10F8)
241: 0x0698 [0x6F] WAIT_FRAME_DELAY: Yield until WaitTime reaches zero
242: 0x0699 [0x76] CHECK_ENTITY_RENDER_FLAGS: Wait until LocalPlayer Render.Flags0 and Render.Flags3 conditions are met
243: 0x069E [0x1C] WAIT(40* ticks)
244: 0x06A1 [0x52] END_LOAD_SCHEDULER: End scheduler "s008" with entities [EventEntity, EventEntity], work=616*
245: 0x06B0 [0x45] LOAD_SCHEDULED_TASK: Load scheduler "s067" with entities [EventEntity, EventEntity], work=[628*, 0*]
246: 0x06C1 [0x1C] WAIT(60* ticks)
247: 0x06C4 [0x1D] PRINT_EVENT_MESSAGE(message_id=13842*)
     "Uh-oh. I don't know how you managed to sneak this past me, but you're as weak as a kitten. Quit pussyfooting around and talk to Selele. She'll help you brrrush up on the basics...for free."
248: 0x06C7 [0x23] WAIT_FOR_DIALOG_INTERACTION
249: 0x06C8 [0x1C] WAIT(30* ticks)
250: 0x06CB [0x1E] EventEntity looks at LocalPlayer and starts talking
251: 0x06D0 [0x6F] WAIT_FRAME_DELAY: Yield until WaitTime reaches zero
252: 0x06D1 [0x70] WAIT_ENTITY_RENDER_FLAG: Wait while EventEntity->Render.Flags3 bit 2 is set (cancel turn if not)
253: 0x06D2 [0x52] END_LOAD_SCHEDULER: End scheduler "s067" with entities [EventEntity, EventEntity], work=628*
254: 0x06E1 [0x45] LOAD_SCHEDULED_TASK: Load scheduler "s068" with entities [EventEntity, EventEntity], work=[628*, 0*]
255: 0x06F2 [0x1C] WAIT(30* ticks)
256: 0x06F5 [0x4A] LocalPlayer looks at EventEntity
257: 0x06FE [0x6F] WAIT_FRAME_DELAY: Yield until WaitTime reaches zero
258: 0x06FF [0x76] CHECK_ENTITY_RENDER_FLAGS: Wait until LocalPlayer Render.Flags0 and Render.Flags3 conditions are met
259: 0x0704 [0x6E] Fhelm Jobeizat (ID: 17764603/0x010F10FB) uses emote 11*
260: 0x070B [0x99] Wait for Fhelm Jobeizat (ID: 17764603/0x010F10FB) animation to complete
261: 0x0710 [0x1C] WAIT(60* ticks)
262: 0x0713 [0x03] Work_Zone[2] = 2466*
263: 0x0718 [0x02] IF !(ExtData[1]->WorkLocal[2] > 11111*) GOTO 0x0728
264: 0x0720 [0x03] Work_Zone[3] = 11111*
265: 0x0725 [0x01] GOTO 0x072D
266: 0x0728 [0x03] Work_Zone[3] = ExtData[1]->WorkLocal[2]

SUBROUTINE_072D:
267: 0x072D [0x1D] PRINT_EVENT_MESSAGE(message_id=13843*)
     "Speaking of good stuff, your $3 is top-notch, so I'm going to need $1 gil for it."
268: 0x0730 [0x23] WAIT_FOR_DIALOG_INTERACTION
269: 0x0731 [0x1C] WAIT(90* ticks)
270: 0x0734 [0x52] END_LOAD_SCHEDULER: End scheduler "s068" with entities [EventEntity, EventEntity], work=628*
271: 0x0743 [0x02] IF !(LocalPlayer->Race == 5*) GOTO 0x075F
272: 0x074B [0x45] LOAD_SCHEDULED_TASK: Load scheduler "s070" with entities [EventEntity, EventEntity], work=[628*, 0*]
273: 0x075C [0x01] GOTO 0x078C
274: 0x075F [0x02] IF !(LocalPlayer->Race == 6*) GOTO 0x077B
275: 0x0767 [0x45] LOAD_SCHEDULED_TASK: Load scheduler "s070" with entities [EventEntity, EventEntity], work=[628*, 0*]
276: 0x0778 [0x01] GOTO 0x078C
277: 0x077B [0x45] LOAD_SCHEDULED_TASK: Load scheduler "s069" with entities [EventEntity, EventEntity], work=[628*, 0*]

SUBROUTINE_078C:
278: 0x078C [0x7C] EventEntity->Render.Flags2 |= 0x00
279: 0x0792 [0x1D] PRINT_EVENT_MESSAGE(message_id=13844*)
     "...Not convinced it's worth the price?"
280: 0x0795 [0x23] WAIT_FOR_DIALOG_INTERACTION
281: 0x0796 [0x7C] EventEntity->Render.Flags2 |= 0x01
282: 0x079C [0x52] END_LOAD_SCHEDULER: End scheduler "s069" with entities [EventEntity, EventEntity], work=628*
283: 0x07AB [0x52] END_LOAD_SCHEDULER: End scheduler "s070" with entities [EventEntity, EventEntity], work=628*
284: 0x07BA [0x45] LOAD_SCHEDULED_TASK: Load scheduler "s071" with entities [EventEntity, EventEntity], work=[628*, 0*]
285: 0x07CB [0x1D] PRINT_EVENT_MESSAGE(message_id=13845*)
     "Okay, then. Watch this."
286: 0x07CE [0x32] ExtData[1]->MainSpeed = 40* * 0.1
287: 0x07D1 [0x1F] MOVE_ENTITY: EventEntity moves to X=90.360*, Z=-44.506*, Y=-4.300*
288: 0x07D9 [0x1F] MOVE_ENTITY: Update entity position (mode=1)
289: 0x07DB [0x1C] WAIT(30* ticks)
290: 0x07DE [0x6E] Fhelm Jobeizat (ID: 17764603/0x010F10FB) uses emote 14*
291: 0x07E5 [0x99] Wait for Fhelm Jobeizat (ID: 17764603/0x010F10FB) animation to complete
292: 0x07EA [0x1C] WAIT(60* ticks)
293: 0x07ED [0xBB] LOAD_EVENT_SCHEDULER_ALT: Load scheduler "trg0" with entities [??? (ID: 17764604/0x010F10FC), ??? (ID: 17764604/0x010F10FC)], work=[10*, 0*]
294: 0x07FE [0x1C] WAIT(60* ticks)
295: 0x0801 [0x23] WAIT_FOR_DIALOG_INTERACTION
296: 0x0802 [0x52] END_LOAD_SCHEDULER: End scheduler "s071" with entities [EventEntity, EventEntity], work=628*
297: 0x0811 [0x45] LOAD_SCHEDULED_TASK: Load scheduler "s072" with entities [EventEntity, EventEntity], work=[628*, 0*]
298: 0x0822 [0x6E] Fhelm Jobeizat (ID: 17764603/0x010F10FB) uses emote 21*
299: 0x0829 [0x99] Wait for Fhelm Jobeizat (ID: 17764603/0x010F10FB) animation to complete
300: 0x082E [0x1C] WAIT(30* ticks)
301: 0x0831 [0x1D] PRINT_EVENT_MESSAGE(message_id=13846*)
     "With a simple clap of the hands, it disappears like magic! That's the power of arcane blah-ditty-blah at its finest!"
302: 0x0834 [0x23] WAIT_FOR_DIALOG_INTERACTION
303: 0x0835 [0x7B] EventEntity stops talking
304: 0x083A [0x1C] WAIT(50* ticks)
305: 0x083D [0x52] END_LOAD_SCHEDULER: End scheduler "s072" with entities [EventEntity, EventEntity], work=628*
306: 0x084C [0x45] LOAD_SCHEDULED_TASK: Load scheduler "s073" with entities [EventEntity, EventEntity], work=[628*, 0*]
307: 0x085D [0x1C] WAIT(45* ticks)
308: 0x0860 [0x1D] PRINT_EVENT_MESSAGE(message_id=13847*)
     "So, yeah, there's no way I could entrrrust something so amazing to you for free. Pay up."
309: 0x0863 [0x23] WAIT_FOR_DIALOG_INTERACTION
310: 0x0864 [0x1C] WAIT(15* ticks)
311: 0x0867 [0x52] END_LOAD_SCHEDULER: End scheduler "s073" with entities [EventEntity, EventEntity], work=628*
312: 0x0876 [0x02] IF !(LocalPlayer->Race == 5*) GOTO 0x0892
313: 0x087E [0x45] LOAD_SCHEDULED_TASK: Load scheduler "s009" with entities [EventEntity, EventEntity], work=[616*, 0*]
314: 0x088F [0x01] GOTO 0x08BF
315: 0x0892 [0x02] IF !(LocalPlayer->Race == 6*) GOTO 0x08AE
316: 0x089A [0x45] LOAD_SCHEDULED_TASK: Load scheduler "s009" with entities [EventEntity, EventEntity], work=[616*, 0*]
317: 0x08AB [0x01] GOTO 0x08BF
318: 0x08AE [0x45] LOAD_SCHEDULED_TASK: Load scheduler "s074" with entities [EventEntity, EventEntity], work=[628*, 0*]

SUBROUTINE_08BF:
319: 0x08BF [0x02] IF !(ExtData[1]->WorkLocal[2] > 11111*) GOTO 0x08CF
320: 0x08C7 [0x03] Work_Zone[3] = 11111*
321: 0x08CC [0x01] GOTO 0x08D4
322: 0x08CF [0x03] Work_Zone[3] = ExtData[1]->WorkLocal[2]

SUBROUTINE_08D4:
323: 0x08D4 [0x24] CREATE_DIALOG(message_id=13848*, default_option=0*, option_flags=0*)
     "Pay $1 gil? [I've only got catcalls for you./Go cat around somewhere else./I feel like a bag of cats, so no.]"
324: 0x08DB [0x25] WAIT_DIALOG_SELECT()
325: 0x08DC [0x02] IF !(Work_Zone[0] == 0*) GOTO 0x08F6
326: 0x08E4 [0x6E] LocalPlayer uses emote 6*
327: 0x08EB [0x99] Wait for LocalPlayer animation to complete
328: 0x08F0 [0x1C] WAIT(75* ticks)
329: 0x08F3 [0x01] GOTO 0x092A
330: 0x08F6 [0x02] IF !(Work_Zone[0] == 1*) GOTO 0x0910
331: 0x08FE [0x6E] LocalPlayer uses emote 25*
332: 0x0905 [0x99] Wait for LocalPlayer animation to complete
333: 0x090A [0x1C] WAIT(120* ticks)
334: 0x090D [0x01] GOTO 0x092A
335: 0x0910 [0x02] IF !(Work_Zone[0] == 2*) GOTO 0x092A
336: 0x0918 [0x6E] LocalPlayer uses emote 22*
337: 0x091F [0x99] Wait for LocalPlayer animation to complete
338: 0x0924 [0x1C] WAIT(90* ticks)
339: 0x0927 [0x01] GOTO 0x092A

SUBROUTINE_092A:
340: 0x092A [0x52] END_LOAD_SCHEDULER: End scheduler "s074" with entities [EventEntity, EventEntity], work=628*
341: 0x0939 [0x52] END_LOAD_SCHEDULER: End scheduler "s009" with entities [EventEntity, EventEntity], work=616*
342: 0x0948 [0x45] LOAD_SCHEDULED_TASK: Load scheduler "s075" with entities [EventEntity, EventEntity], work=[628*, 0*]
343: 0x0959 [0x6E] Fhelm Jobeizat (ID: 17764603/0x010F10FB) uses emote 19*
344: 0x0960 [0x99] Wait for Fhelm Jobeizat (ID: 17764603/0x010F10FB) animation to complete
345: 0x0965 [0x79] EventEntity looks at LocalPlayer (Basic look)
346: 0x096F [0x1D] PRINT_EVENT_MESSAGE(message_id=13849*)
     "...Fine, then."
347: 0x0972 [0x23] WAIT_FOR_DIALOG_INTERACTION
348: 0x0973 [0x1C] WAIT(30* ticks)
349: 0x0976 [0x27] REQ_SET(priority=0x05, entity_id=LocalPlayer, tag_num=0x73)
350: 0x097D [0x52] END_LOAD_SCHEDULER: End scheduler "s075" with entities [EventEntity, EventEntity], work=628*
351: 0x098C [0x45] LOAD_SCHEDULED_TASK: Load scheduler "s076" with entities [EventEntity, EventEntity], work=[628*, 0*]
352: 0x099D [0x1C] WAIT(80* ticks)
353: 0x09A0 [0x27] REQ_SET(priority=0x05, entity_id=LocalPlayer, tag_num=0x74)
354: 0x09A7 [0x1C] WAIT(40* ticks)
355: 0x09AA [0x1D] PRINT_EVENT_MESSAGE(message_id=13850*)
     "Huh? Why am I giving up so easily?"
356: 0x09AD [0x23] WAIT_FOR_DIALOG_INTERACTION
357: 0x09AE [0x6E] Fhelm Jobeizat (ID: 17764603/0x010F10FB) uses emote 14*
358: 0x09B5 [0x99] Wait for Fhelm Jobeizat (ID: 17764603/0x010F10FB) animation to complete
359: 0x09BA [0x1C] WAIT(60* ticks)
360: 0x09BD [0x6C] FADE_ENTITY_COLOR(entity_id=??? (ID: 17764604/0x010F10FC), end_alpha=128*, fade_time=60*)
361: 0x09C6 [0x66] LOAD_EXT_SCHEDULER_MAIN: Load scheduler "tlk0" with entities [EventEntity, EventEntity], work=59*
362: 0x09D5 [0x1D] PRINT_EVENT_MESSAGE(message_id=13851*)
     "Because the doll's already rrregistered to you. If you're not going to give me money, there's nothing I can do about it."
363: 0x09D8 [0x23] WAIT_FOR_DIALOG_INTERACTION
364: 0x09D9 [0x66] LOAD_EXT_SCHEDULER_MAIN: Load scheduler "tlk1" with entities [EventEntity, EventEntity], work=59*
365: 0x09E8 [0x1C] WAIT(30* ticks)
366: 0x09EB [0x52] END_LOAD_SCHEDULER: End scheduler "s076" with entities [EventEntity, EventEntity], work=628*
367: 0x09FA [0x02] IF !(LocalPlayer->Race == 5*) GOTO 0x0A16
368: 0x0A02 [0x45] LOAD_SCHEDULED_TASK: Load scheduler "s060" with entities [EventEntity, EventEntity], work=[628*, 0*]
369: 0x0A13 [0x01] GOTO 0x0A43
370: 0x0A16 [0x02] IF !(LocalPlayer->Race == 6*) GOTO 0x0A32
371: 0x0A1E [0x45] LOAD_SCHEDULED_TASK: Load scheduler "s060" with entities [EventEntity, EventEntity], work=[628*, 0*]
372: 0x0A2F [0x01] GOTO 0x0A43
373: 0x0A32 [0x45] LOAD_SCHEDULED_TASK: Load scheduler "s059" with entities [EventEntity, EventEntity], work=[628*, 0*]

SUBROUTINE_0A43:
374: 0x0A43 [0x1C] WAIT(50* ticks)
375: 0x0A46 [0x4A] LocalPlayer looks at ??? (ID: 17764604/0x010F10FC)
376: 0x0A4F [0x1C] WAIT(180* ticks)
377: 0x0A52 [0x5B] LOAD_EXT_SCHEDULER: Load scheduler "bru0" with entities [??? (ID: 17764604/0x010F10FC), ??? (ID: 17764604/0x010F10FC)], work=252*
378: 0x0A61 [0x03] Work_Zone[2] = 2466*
379: 0x0A66 [0x48] [System] [13858*]:
     "The $3 nods in agreement."
380: 0x0A69 [0x1C] WAIT(90* ticks)
381: 0x0A6C [0x6B] STOP_AND_IDLE: ??? (ID: 17764604/0x010F10FC) stops current action and resets to idle (animation="idl0")
382: 0x0A75 [0x1C] WAIT(60* ticks)
383: 0x0A78 [0x52] END_LOAD_SCHEDULER: End scheduler "s059" with entities [EventEntity, EventEntity], work=628*
384: 0x0A87 [0x52] END_LOAD_SCHEDULER: End scheduler "s060" with entities [EventEntity, EventEntity], work=628*
385: 0x0A96 [0x02] IF !(LocalPlayer->Race == 5*) GOTO 0x0AB2
386: 0x0A9E [0x45] LOAD_SCHEDULED_TASK: Load scheduler "s010" with entities [EventEntity, EventEntity], work=[616*, 0*]
387: 0x0AAF [0x01] GOTO 0x0ADF
388: 0x0AB2 [0x02] IF !(LocalPlayer->Race == 6*) GOTO 0x0ACE
389: 0x0ABA [0x45] LOAD_SCHEDULED_TASK: Load scheduler "s010" with entities [EventEntity, EventEntity], work=[616*, 0*]
390: 0x0ACB [0x01] GOTO 0x0ADF
391: 0x0ACE [0x45] LOAD_SCHEDULED_TASK: Load scheduler "s077" with entities [EventEntity, EventEntity], work=[628*, 0*]

SUBROUTINE_0ADF:
392: 0x0ADF [0x1C] WAIT(60* ticks)
393: 0x0AE2 [0x6E] LocalPlayer uses emote 14*
394: 0x0AE9 [0x99] Wait for LocalPlayer animation to complete
395: 0x0AEE [0x1C] WAIT(75* ticks)
396: 0x0AF1 [0xBB] LOAD_EVENT_SCHEDULER_ALT: Load scheduler "trg0" with entities [??? (ID: 17764604/0x010F10FC), ??? (ID: 17764604/0x010F10FC)], work=[10*, 0*]
397: 0x0B02 [0x1C] WAIT(140* ticks)
398: 0x0B05 [0x05] Work_Zone[1] = 1

SUBROUTINE_0B08:
399: 0x0B08 [0x1A] CALL_SUBROUTINE(address=0x2D98)
400: 0x0B0B [0x52] END_LOAD_SCHEDULER: End scheduler "s010" with entities [EventEntity, EventEntity], work=616*
401: 0x0B1A [0x52] END_LOAD_SCHEDULER: End scheduler "s056" with entities [EventEntity, EventEntity], work=628*
402: 0x0B29 [0x52] END_LOAD_SCHEDULER: End scheduler "s077" with entities [EventEntity, EventEntity], work=628*
403: 0x0B38 [0x5C] MUSIC_CONTROL: Set Idle (Day) music to song 151*
404: 0x0B3C [0x5C] MUSIC_CONTROL: Set Idle (Night) music to song 151*
405: 0x0B40 [0x9A] WAIT_MUSIC_SERVER()
406: 0x0B41 [0x27] REQ_SET(priority=0x05, entity_id=Bozack (ID: 17764580/0x010F10E4), tag_num=0x04)
407: 0x0B48 [0x27] REQ_SET(priority=0x05, entity_id=Sevah Kummekihn (ID: 17764616/0x010F1108), tag_num=0x04)
408: 0x0B4F [0x1C] WAIT(15* ticks)
409: 0x0B52 [0xAB] EventEntity->DespawnValue = 0* // Set despawn value
410: 0x0B56 [0x1C] WAIT(1* ticks)
411: 0x0B59 [0x46] CAMERA_CONTROL: Restore default settings
412: 0x0B5B [0x02] IF !(Work_Zone[1] == 1*) GOTO 0x0B74
413: 0x0B63 [0x45] LOAD_SCHEDULED_TASK: Load scheduler "qstc" with entities [EventEntity, EventEntity], work=[201*, 0*]
414: 0x0B74 [0x45] LOAD_SCHEDULED_TASK: Load scheduler "fdi2" with entities [LocalPlayer, LocalPlayer], work=[200*, 0*]
415: 0x0B85 [0x21] END_EVENT
416: 0x0B86 [0x00] END_REQSTACK()
```

#### Data or dead code:

```
# Dead code (unreachable instructions):
     0x0357 [0x01] GOTO 0x035A
```

### Event 849

#### Metadata

| Field        | Value    |
|--------------|----------|
| Entrypoint   | 0x0B87   |
| Data Size    | 30 bytes |
| Instructions | 8        |

```
      00 01 02 03 04 05 06 07  08 09 0A 0B 0C 0D 0E 0F
      -- -- -- -- -- -- -- --  -- -- -- -- -- -- -- --
0B80:                      4A  F0 FF FF 7F F8 FF FF 7F         J........
0B90: 4A F8 FF FF 7F F0 FF FF  7F 6F 76 F8 FF FF 7F 1D  J........ov.....
0BA0: 53 80 23 21 00                                    S.#!.           
```

#### Opcodes

```
  0: 0x0B87 [0x4A] LocalPlayer looks at EventEntity
  1: 0x0B90 [0x4A] EventEntity looks at LocalPlayer
  2: 0x0B99 [0x6F] WAIT_FRAME_DELAY: Yield until WaitTime reaches zero
  3: 0x0B9A [0x76] CHECK_ENTITY_RENDER_FLAGS: Wait until EventEntity Render.Flags0 and Render.Flags3 conditions are met
  4: 0x0B9F [0x1D] PRINT_EVENT_MESSAGE(message_id=13821*)
     "Oh no, you don't. I can't say squat until you enable that orrriginal objective in the "Objective List" under the "Records of Eminence" section of the Quests menu."
  5: 0x0BA2 [0x23] WAIT_FOR_DIALOG_INTERACTION
  6: 0x0BA3 [0x21] END_EVENT
  7: 0x0BA4 [0x00] END_REQSTACK()
```

### Event 850

#### Metadata

| Field        | Value      |
|--------------|------------|
| Entrypoint   | 0x0BA5     |
| Data Size    | 8499 bytes |
| Instructions | 1078       |

```
      00 01 02 03 04 05 06 07  08 09 0A 0B 0C 0D 0E 0F
      -- -- -- -- -- -- -- --  -- -- -- -- -- -- -- --
0BA0:                03 04 00  02 10 03 05 00 03 10 03       ...........
0BB0: 06 00 04 10 03 07 00 05  10 03 21 00 06 10 03 22  ..........!...."
0BC0: 00 07 10 4A F0 FF FF 7F  F8 FF FF 7F 4A F8 FF FF  ...J........J...
0BD0: 7F F0 FF FF 7F 02 04 00  54 80 80 E3 0B 1D 55 80  ........T.....U.
0BE0: 01 0D 0C 02 04 00 56 80  80 F1 0B 1D 57 80 01 0D  ......V.....W...
0BF0: 0C 02 04 00 58 80 80 FF  0B 1D 59 80 01 0D 0C 02  ....X.....Y.....
0C00: 04 00 5A 80 80 0D 0C 1D  5B 80 01 0D 0C 06 1C 00  ..Z.....[.......
0C10: 03 08 00 0A 80 02 08 00  09 80 02 99 0F 03 02 10  ................
0C20: 05 00 03 09 00 5C 80 02  07 00 09 80 00 34 0C 03  .....\.......4..
0C30: 09 00 5D 80 3E 21 00 5E  80 42 0C 3D 09 00 3A 80  ..].>!.^.B.=..:.
0C40: 0A 80 3E 21 00 41 80 50  0C 3D 09 00 3A 80 0A 80  ..>!.A.P.=..:...
0C50: 3E 21 00 5E 80 5E 0C 3D  09 00 3A 80 0A 80 3E 21  >!.^.^.=..:...>!
0C60: 00 41 80 6C 0C 3D 09 00  3A 80 0A 80 3E 21 00 41  .A.l.=..:...>!.A
0C70: 80 7A 0C 3D 09 00 3A 80  0A 80 03 1A 17 22 00 24  .z.=..:......".$
0C80: 5F 80 1C 00 09 00 25 02  00 10 09 80 00 9F 0C 03  _.....%.........
0C90: 1C 00 00 10 03 19 00 09  80 1A BB 1A 01 96 0F 02  ................
0CA0: 00 10 0A 80 00 B7 0C 03  1C 00 00 10 03 19 00 0A  ................
0CB0: 80 1A BB 1A 01 96 0F 02  00 10 20 80 00 CF 0C 03  .......... .....
0CC0: 1C 00 00 10 03 19 00 20  80 1A BB 1A 01 96 0F 02  ....... ........
0CD0: 00 10 60 80 00 E7 0C 03  1C 00 00 10 03 19 00 60  ..`............`
0CE0: 80 1A BB 1A 01 96 0F 02  00 10 1A 80 00 FF 0C 03  ................
0CF0: 1C 00 00 10 03 19 00 1A  80 1A BB 1A 01 96 0F 02  ................
0D00: 00 10 28 80 00 17 0D 03  1C 00 00 10 03 19 00 28  ..(............(
0D10: 80 1A BB 1A 01 96 0F 02  00 10 1E 80 00 2F 0D 03  ............./..
0D20: 1C 00 00 10 03 19 00 1E  80 1A BB 1A 01 96 0F 02  ................
0D30: 00 10 17 80 00 47 0D 03  1C 00 00 10 03 19 00 17  .....G..........
0D40: 80 1A BB 1A 01 96 0F 02  00 10 61 80 00 5F 0D 03  ..........a.._..
0D50: 1C 00 00 10 03 19 00 61  80 1A BB 1A 01 96 0F 02  .......a........
0D60: 00 10 62 80 00 77 0D 03  1C 00 00 10 03 19 00 62  ..b..w.........b
0D70: 80 1A BB 1A 01 96 0F 02  00 10 10 80 00 87 0D 03  ................
0D80: 1C 00 00 10 01 96 0F 02  00 10 3A 80 00 9A 0D 03  ..........:.....
0D90: 1C 00 00 10 1A D0 20 01  96 0F 02 00 10 63 80 00  ...... ......c..
0DA0: AD 0D 03 1C 00 00 10 1A  3A 23 01 96 0F 02 00 10  ........:#......
0DB0: 64 80 00 C0 0D 03 1C 00  00 10 1A 31 2B 01 96 0F  d..........1+...
0DC0: 02 00 10 24 80 00 88 0F  03 1C 00 00 10 02 04 00  ...$............
0DD0: 54 80 80 FD 0D 66 65 80  F8 FF FF 7F F8 FF FF 7F  T....fe.........
0DE0: 74 6C 6B 30 1C 0E 80 1D  66 80 23 66 65 80 F8 FF  tlk0....f.#fe...
0DF0: FF 7F F8 FF FF 7F 74 6C  6B 31 01 8D 0E 02 04 00  ......tlk1......
0E00: 56 80 80 2D 0E 66 62 80  F8 FF FF 7F F8 FF FF 7F  V..-.fb.........
0E10: 74 6C 6B 30 1C 0E 80 1D  67 80 23 66 62 80 F8 FF  tlk0....g.#fb...
0E20: FF 7F F8 FF FF 7F 74 6C  6B 31 01 8D 0E 02 04 00  ......tlk1......
0E30: 58 80 80 5D 0E 66 13 80  F8 FF FF 7F F8 FF FF 7F  X..].f..........
0E40: 74 6C 6B 30 1C 0E 80 1D  68 80 23 66 13 80 F8 FF  tlk0....h.#f....
0E50: FF 7F F8 FF FF 7F 74 6C  6B 31 01 8D 0E 02 04 00  ......tlk1......
0E60: 5A 80 80 8D 0E 66 69 80  F8 FF FF 7F F8 FF FF 7F  Z....fi.........
0E70: 74 6C 6B 30 1C 0E 80 1D  6A 80 23 66 69 80 F8 FF  tlk0....j.#fi...
0E80: FF 7F F8 FF FF 7F 74 6C  6B 31 01 8D 0E 1C 0E 80  ......tlk1......
0E90: 48 6B 80 23 48 6C 80 23  48 6D 80 23 48 6E 80 23  Hk.#Hl.#Hm.#Hn.#
0EA0: 48 6F 80 23 03 02 10 26  80 48 70 80 23 48 71 80  Ho.#...&.Hp.#Hq.
0EB0: 23 02 04 00 54 80 80 E5  0E 66 65 80 F8 FF FF 7F  #...T....fe.....
0EC0: F8 FF FF 7F 74 6C 6B 30  1C 0E 80 1D 72 80 23 1D  ....tlk0....r.#.
0ED0: 73 80 23 66 65 80 F8 FF  FF 7F F8 FF FF 7F 74 6C  s.#fe.........tl
0EE0: 6B 31 01 85 0F 02 04 00  56 80 80 19 0F 66 62 80  k1......V....fb.
0EF0: F8 FF FF 7F F8 FF FF 7F  74 6C 6B 30 1C 0E 80 1D  ........tlk0....
0F00: 74 80 23 1D 75 80 23 66  62 80 F8 FF FF 7F F8 FF  t.#.u.#fb.......
0F10: FF 7F 74 6C 6B 31 01 85  0F 02 04 00 58 80 80 51  ..tlk1......X..Q
