# 17764363 - PRODUCER

## Common Data

| Field            | Value                    |
|------------------|--------------------------|
| Zone             | Windurst Woods (ID: 241) |
| Block Size       | 7852 bytes               |
| Total Events     | 30                       |
| References Count | 177                      |

## List of Events

| Event ID                   | Entrypoint   |   Size |   Instructions |
|----------------------------|--------------|--------|----------------|
| [65535](#event-65535)      | 0x0000       |      1 |              1 |
| [11](#event-11)            | 0x0001       |    132 |             26 |
| [65535.1](#event-655351)   | 0x0085       |    246 |             44 |
| [65535.2](#event-655352)   | 0x017B       |    368 |             67 |
| [65535.3](#event-655353)   | 0x02EB       |    156 |             32 |
| [65535.4](#event-655354)   | 0x0387       |    132 |             30 |
| [65535.5](#event-655355)   | 0x040B       |    148 |             33 |
| [65535.6](#event-655356)   | 0x049F       |    132 |             30 |
| [65535.7](#event-655357)   | 0x0523       |    164 |             36 |
| [65535.8](#event-655358)   | 0x05C7       |    180 |             39 |
| [65535.9](#event-655359)   | 0x067B       |    116 |             27 |
| [65535.10](#event-6553510) | 0x06EF       |    116 |             27 |
| [65535.11](#event-6553511) | 0x0763       |    116 |             27 |
| [65535.12](#event-6553512) | 0x07D7       |    116 |             27 |
| [65535.13](#event-6553513) | 0x084B       |    132 |             30 |
| [65535.14](#event-6553514) | 0x08CF       |    112 |             25 |
| [65535.15](#event-6553515) | 0x093F       |    160 |             34 |
| [65535.16](#event-6553516) | 0x09DF       |    116 |             27 |
| [65535.17](#event-6553517) | 0x0A53       |    116 |             27 |
| [65535.18](#event-6553518) | 0x0AC7       |    116 |             27 |
| [65535.19](#event-6553519) | 0x0B3B       |     44 |             11 |
| [367](#event-367)          | 0x0B67       |   2059 |            279 |
| [368](#event-368)          | 0x1372       |    362 |             38 |
| [369](#event-369)          | 0x14DC       |    242 |             26 |
| [370](#event-370)          | 0x15CE       |    156 |             26 |
| [371](#event-371)          | 0x166A       |     96 |             12 |
| [372](#event-372)          | 0x16CA       |    218 |             21 |
| [373](#event-373)          | 0x17A4       |    198 |             19 |
| [374](#event-374)          | 0x186A       |    248 |             25 |
| [375](#event-375)          | 0x1962       |    507 |             46 |

## DAT References (imed_data)

|   Index | Hex Value   |   Dec Value |
|---------|-------------|-------------|
|       0 | 0x21C3      |        8643 |
|       1 | 0x0000      |           0 |
|       2 | 0x0001      |           1 |
|       3 | 0x0002      |           2 |
|       4 | 0x0003      |           3 |
|       5 | 0x0067      |         103 |
|       6 | 0x0004      |           4 |
|       7 | 0x0066      |         102 |
|       8 | 0x0005      |           5 |
|       9 | 0x0064      |         100 |
|      10 | 0x0006      |           6 |
|      11 | 0x21C4      |        8644 |
|      12 | 0x0007      |           7 |
|      13 | 0x0008      |           8 |
|      14 | 0x0009      |           9 |
|      15 | 0x000A      |          10 |
|      16 | 0x000B      |          11 |
|      17 | 0x000C      |          12 |
|      18 | 0x1A27      |        6695 |
|      19 | 0x000D      |          13 |
|      20 | 0x000E      |          14 |
|      21 | 0x000F      |          15 |
|      22 | 0x0010      |          16 |
|      23 | 0x005F      |          95 |
|      24 | 0x0011      |          17 |
|      25 | 0x00CD      |         205 |
|      26 | 0x0012      |          18 |
|      27 | 0x0063      |          99 |
|      28 | 0x0013      |          19 |
|      29 | 0x1A24      |        6692 |
|      30 | 0x1A38      |        6712 |
|      31 | 0x012C      |         300 |
|      32 | 0x012D      |         301 |
|      33 | 0x012E      |         302 |
|      34 | 0x012F      |         303 |
|      35 | 0x0130      |         304 |
|      36 | 0x0131      |         305 |
|      37 | 0x0132      |         306 |
|      38 | 0x0133      |         307 |
|      39 | 0x0134      |         308 |
|      40 | 0x1A28      |        6696 |
|      41 | 0x1A23      |        6691 |
|      42 | 0x1A29      |        6697 |
|      43 | 0x0014      |          20 |
|      44 | 0x006D      |         109 |
|      45 | 0x0015      |          21 |
|      46 | 0x0016      |          22 |
|      47 | 0x1A2A      |        6698 |
|      48 | 0x0017      |          23 |
|      49 | 0x0018      |          24 |
|      50 | 0x0019      |          25 |
|      51 | 0x001A      |          26 |
|      52 | 0x0060      |          96 |
|      53 | 0x001B      |          27 |
|      54 | 0x1A2B      |        6699 |
|      55 | 0x001C      |          28 |
|      56 | 0x001D      |          29 |
|      57 | 0x001E      |          30 |
|      58 | 0x0061      |          97 |
|      59 | 0x001F      |          31 |
|      60 | 0x0020      |          32 |
|      61 | 0x0021      |          33 |
|      62 | 0x0022      |          34 |
|      63 | 0x1A2C      |        6700 |
|      64 | 0x0025      |          37 |
|      65 | 0x0026      |          38 |
|      66 | 0x0027      |          39 |
|      67 | 0x0069      |         105 |
|      68 | 0x0028      |          40 |
|      69 | 0x006A      |         106 |
|      70 | 0x0029      |          41 |
|      71 | 0x002A      |          42 |
|      72 | 0x002B      |          43 |
|      73 | 0x1A2D      |        6701 |
|      74 | 0x002D      |          45 |
|      75 | 0x002E      |          46 |
|      76 | 0x002F      |          47 |
|      77 | 0x0030      |          48 |
|      78 | 0x006E      |         110 |
|      79 | 0x1A2F      |        6703 |
|      80 | 0x0032      |          50 |
|      81 | 0x0033      |          51 |
|      82 | 0x0034      |          52 |
|      83 | 0x0035      |          53 |
|      84 | 0x0036      |          54 |
|      85 | 0x1A30      |        6704 |
|      86 | 0x0037      |          55 |
|      87 | 0x0038      |          56 |
|      88 | 0x0039      |          57 |
|      89 | 0x003A      |          58 |
|      90 | 0x003B      |          59 |
|      91 | 0x1A33      |        6707 |
|      92 | 0x003C      |          60 |
|      93 | 0x003D      |          61 |
|      94 | 0x003E      |          62 |
|      95 | 0x003F      |          63 |
|      96 | 0x0040      |          64 |
|      97 | 0x1A34      |        6708 |
|      98 | 0x0041      |          65 |
|      99 | 0x0042      |          66 |
|     100 | 0x0043      |          67 |
|     101 | 0x0044      |          68 |
|     102 | 0x0045      |          69 |
|     103 | 0x006C      |         108 |
|     104 | 0x1A35      |        6709 |
|     105 | 0x0046      |          70 |
|     106 | 0x0070      |         112 |
|     107 | 0x0047      |          71 |
|     108 | 0x0048      |          72 |
|     109 | 0x0049      |          73 |
|     110 | 0x1A36      |        6710 |
|     111 | 0x004A      |          74 |
|     112 | 0x0071      |         113 |
|     113 | 0x004B      |          75 |
|     114 | 0x006B      |         107 |
|     115 | 0x006F      |         111 |
|     116 | 0x004C      |          76 |
|     117 | 0x004D      |          77 |
|     118 | 0x0072      |         114 |
|     119 | 0x1A37      |        6711 |
|     120 | 0x004E      |          78 |
|     121 | 0x004F      |          79 |
|     122 | 0x0050      |          80 |
|     123 | 0x0051      |          81 |
|     124 | 0x0052      |          82 |
|     125 | 0x1A31      |        6705 |
|     126 | 0x0053      |          83 |
|     127 | 0x0054      |          84 |
|     128 | 0x0055      |          85 |
|     129 | 0x0056      |          86 |
|     130 | 0x0057      |          87 |
|     131 | 0x1A32      |        6706 |
|     132 | 0x0058      |          88 |
|     133 | 0x0059      |          89 |
|     134 | 0x005A      |          90 |
|     135 | 0x005B      |          91 |
|     136 | 0x005C      |          92 |
|     137 | 0x1A2E      |        6702 |
|     138 | 0x005D      |          93 |
|     139 | 0x005E      |          94 |
|     140 | 0x0097      |         151 |
|     141 | 0xFFFD175F  |  4294776671 |
|     142 | 0x22EC3     |      143043 |
|     143 | 0xFFFFF6AF  |  4294964911 |
|     144 | 0x0DEE      |        3566 |
|     145 | 0x00EF      |         239 |
|     146 | 0x008B      |         139 |
|     147 | 0x00C8      |         200 |
|     148 | 0x1AA6      |        6822 |
|     149 | 0x0154      |         340 |
|     150 | 0x1AA7      |        6823 |
|     151 | 0x1AA8      |        6824 |
|     152 | 0x0078      |         120 |
|     153 | 0x1AA9      |        6825 |
|     154 | 0x1AAA      |        6826 |
|     155 | 0x1AAB      |        6827 |
|     156 | 0x0082      |         130 |
|     157 | 0x1AAC      |        6828 |
|     158 | 0x00B4      |         180 |
|     159 | 0x1AAD      |        6829 |
|     160 | 0x1AAE      |        6830 |
|     161 | 0x00F1      |         241 |
|     162 | 0x008D      |         141 |
|     163 | 0x06AD      |        1709 |
|     164 | 0x07BC      |        1980 |
|     165 | 0x2090      |        8336 |
|     166 | 0x2092      |        8338 |
|     167 | 0x2096      |        8342 |
|     168 | 0x20A0      |        8352 |
|     169 | 0x20A1      |        8353 |
|     170 | 0x20A3      |        8355 |
|     171 | 0x0190      |         400 |
|     172 | 0x20AB      |        8363 |
|     173 | 0x20AD      |        8365 |
|     174 | 0x20B9      |        8377 |
|     175 | 0x20BA      |        8378 |
|     176 | 0x07D0      |        2000 |

## String References

- **6691**: Abracadabra!
- **6692**: Oh no! Your Adventurers' certificate vanished!
- **6695**: GL$3~$3b$3V$3 $3$2HL6aH [$802838 [$E$3L$P11e$@1v/u1-2:$3J$3J$3VL$P10Sv/u1-3:$P15=%aL=_Iv/$1117995v/u2-2:$141L$s$P15{v/u2-3:$O$P11e [-$17v/u2-3:$P11<$17V1bv/u2-3:$P11<$17V2bv/u2-3:$P11<$17V1av/u2-3:$P11<$17V2av/u3-1:$P11N%'v/u3-2:$P10/$P13G]v/$4719165i%7%'?v/u5-1:$EcLl$4v/u5-2:$P10"$EL%JDE$P11RB$Rv/u2-3_609:3$17$4h)g$P16_AD+=v/u600:$3$3C$3I$3$2?aq$3t$3@[$3X$3g$3C$3$3p$3N$3gv/100000 gil, please/ZONEp<Player>j$P13xE\`$o=1FI7i/All reset!]
- **6696**: m101$3t$3$3O%'DiE$3U[$3}$3XH [@OK$3t$3$3O/START$3t$3$3O/{L%@$sA=$3t$3$3O/$2$P16@$3$sA=$3t$3$3O/$2$P139 [$5$P13n5=$3t$3$3O/END$P12<c$3t$3$3O/All reset!]
- **6697**: m102$3t$3$3O%'DiE$3U[$3}$3XH [@OK$3t$3$3O/START$3t$3$3O/{L%@$sA=$3t$3$3O/$2$P16@$3$sA=$3t$3$3O/$P11S$20;k&D$0q>h$3$1[$3v/$2$P139 [$5$3J$3J$3VI$P13n5=$3t$3$3O/END$P12<c$3t$3$3O/All reset!]
- **6698**: m103$3t$3$3O%'DiE$3U[$3}$3XH [@OK$3t$3$3O/START$3t$3$3O/$P122%$3M$3 [$3h$sA=$3t$3$3O/$3M$3f$3A$3X$sA=$3t$3$3O/$P15@L%@Lp)=/END$P12<c$3t$3$3O/All reset!]
- **6699**: m201$3t$3$3O%'DiE$3U[$3}$3XH [@OK$3t$3$3O/START$3t$3$3O/$P16ZL%@$sA=$3t$3$3O/\`f\`_GET$3t$3$3O/$3J$3MGET$3t$3$3O/$2$P16@$3$3C$3x$3$3g$I%9$3t$3$3O/$"$+$mL%F$3C$3x$3$3g$I%9$3t$3$3O/END$P12<c$3t$3$3O/All reset!]
- **6700**: m202$3t$3$3O%'DiE$3U[$3}$3XH [@OK$3t$3$3O/START$3t$3$3O/$(L%@$sA=$3t$3$3O/$3^$3$3$3M$P11e [,$P12J$8$P14s/$3^$3$3$3M$P11e [,$P12J(TIME6$1%q5{100$P15C)/$3p$3$3X$3e$3B$3i$P16&$8$P14s/$3p$3$3X$3e$3B$3i$P16&(TIME6$1%q5{100$P15C)/$141$/OK$3t$3$3O/END$P12<c$3t$3$3O/All reset!]
- **6701**: m203$3t$3$3O%'DiE$3U[$3}$3XH [@OK$3t$3$3O/START$3t$3$3O/$P13VL$3$sA=$3t$3$3O/END$P12<c$3t$3$3O/$3T$3$3h$3$3A$sAD+=/All reset!]
- **6702**: @m203_609$3t$3$3O%'DiE$3U[$3}$3XH [@OK$3t$3$3O/$P15P$P15{5)$3N$3$3A$5"]
- **6703**: @m203_1Bi1%q$P16Zj$3t$3$3O%'DiE$3U[$3}$3XH [@OK$3t$3$3O/@$3o$3X$3g$3D[$3N%L$22$Y$sA=$3t$3$3O/$201548$sA=$3t$3$3O/@$3M$3f$3A$3Xlv2$sA=$3t$3$3O/@END$P12<c$3t$3$3O/@All reset!]
- **6704**: @m203_2Bi2%q$P16Zj$3t$3$3O%'DiE$3U[$3}$3XH [@OK$3t$3$3O/@$3o$3X$3g$3D[$3N%L$22$Y$sA=$3t$3$3O/$201548$sA=$3t$3$3O/@$3M$3f$3A$3Xlv3$sA=$3t$3$3O/@END$P12<c$3t$3$3O/@All reset!]
- **6705**: m203_1A(1%q$P16Z)$3t$3$3O%'DiE$3U[$3}$3XH [@OK$3t$3$3O/$3T$3$3h$3$3A%L$22$Y$sA=$3t$3$3O"$7L$2p$hI$P13|j=>//$3M$3f$3A$3Xlv2E$2$P16@$2p$P14[_=>//END$P12<c$3t$3$3O/All reset!]
- **6706**: m203_2A(2%q$P16Z)$3t$3$3O%'DiE$3U[$3}$3XH [@OK$3t$3$3O/$3T$3$3h$3$3A%L$22$Y$sA=$3t$3$3O/$P13VL$3$sA=$3t$3$3O/$3M$3f$3A$3Xlv3$sA=$3t$3$3O/END$P12<c$3t$3$3O/All reset!]
- **6707**: m301$3t$3$3O%'DiE$3U[$3}$3XH [@OK$3t$3$3O/START$3t$3$3O/$P13VL$3$sA=$3t$3$3O/$3I$3Y$3g$3$3$4$sA=$3t$3$3O/END$P12<c$3t$3$3O/All reset!]
- **6708**: m302$3t$3$3O%'DiE$3U[$3}$3XH [@OK$3t$3$3O/START$3t$3$3O/$P13VL$3$sA=$3t$3$3O/$2$P16@$3Q$sA=$3t$3$3O/END$P12<c$3t$3$3O"%q$P16Z$/=$3t$3$3O/All reset!]
- **6709**: m303$3t$3$3O%'DiE$3U[$3}$3XH [@OK$3t$3$3O"02$3N$3$3A$5"/START$3t$3$3O/$P13VL$3$sA=$3t$3$3O/$3998273$3t$3$3O/END$P12<c$3t$3$3O/All reset!]
- **6710**: m501$3t$3$3O%'DiE$3U[$3}$3XH [@OK$3t$3$3O/OK$3t$3$3O(MS3-2$6423136ADH")/$P13VL$3$sA=$3t$3$3O/$P13VL$3$sA=/G$P12fA=$3t$3$3O/$3K$7540293/=$3t$3$3O/$3t$3F$3C$3$13sA=$3t$3$3O/END$P12<c$3t$3$3O/11E3-2p$s/=gci$2$P13!%pj/All reset!]
- **6711**: m502$3t$3$3O%'DiE$3U[$3}$3XH [@OK$3t$3$3O/START/$P13VL$3$sA=$3t$3$3O/$3Y$3$3@$3998273$3t$3$3O/END$P12<c$3t$3$3O/All reset!]
- **6712**: ex [u6-1:v$P12<$P11O/u6-2:v$P12<$P11O/u7-1:v$P12<$P11O/u7-2:v$P12<$P11O/u8-1:v$P12<$P11O/u8-2:v$P12<$P11O/u9-1:v$P12<$P11O/u9-2:v$P12<$P11O/u9-2:$6816365]
- **6822**: V $3P The Federation of Windurst... An ancient capital nurtured by the boughs of a great tree, blessed by magical waters, and protected by the moon and stars.
- **6823**: d $3TThere is a legend in this country. In a time forgotten, a people forced to wander by starvation and cold were led to this land by a wondrous star.
- **6824**: R $3TWhen that star returned to the heavens, it sent to the earth a spiritual medium, the first Star Sibyl, who could hear its voice. She promised Windurst glory and prosperity.
- **6825**: \\ $3TWith each passing eon, the people came to excel at magic more and more, giving Windurst far greater wisdom and power.
- **6826**: ^ $3TFive ministries, each specializing in a school of knowledge, became politically influential institutions. This elevated Windurst to become a city of academics.
- **6827**: a $3TIn recent years, new bonds were made with the roaming tribes of Mithra, causing Windurst to become even bigger than before.
- **6828**: W $3TBut the people's wish remains unchanged... Lasting peace... Eternal tranquility... Under the watch of the far-off stars.
- **6829**: $34 And now, a new star of hope has been borne to this earth...
- **6830**: ^ $34 What is about to begin here is an enduring tale, woven by that star...
- **8338**: First time in Windurst? [Yes./No.]
- **8342**: What do you want to do right now? [Head outside and battle./Go shopping./Gather information./Where am I? Who am I?]
- **8352**: Pay the tuition fee? [No way!/Well, er, okay...]
- **8378**: Ask for information on...? [Helping people./Monster patrol./Easy money./Looking for work.]
- **8643**: PRODUCER'S DEBUG MENU... [@OPENING EVENTS./MISSIONS./WARP./SAW OPENING EVENT./CHEAT THE FAME GAME./RESET ALL$26INITIALIZE./MissionEX.]
- **8644**: WARP TO...? [MANUSTERY1./MANUSTERY2./WEAVERS' GUILD./BONEWORKERS' GUILD./GOOD GOODS./AUCTION HOUSE./CHOCOBOSTABLES./CONSULATE OF SAN D'ORIA./EASTERN GATEHOUSE./APOTHECARY./MITHRA BOSS./CAT BURGLAR'S PAD./DHALMEL FARM.]

## Events

### Event 65535

#### Metadata

| Field        | Value   |
|--------------|---------|
| Entrypoint   | 0x0000  |
| Data Size    | 1 bytes |
| Instructions | 1       |

```
      00 01 02 03 04 05 06 07  08 09 0A 0B 0C 0D 0E 0F
      -- -- -- -- -- -- -- --  -- -- -- -- -- -- -- --
0000: 00                                                .               
```

#### Opcodes

```
  0: 0x0000 [0x00] END_REQSTACK()
```

### Event 11

#### Metadata

| Field        | Value     |
|--------------|-----------|
| Entrypoint   | 0x0001    |
| Data Size    | 132 bytes |
| Instructions | 26        |

```
      00 01 02 03 04 05 06 07  08 09 0A 0B 0C 0D 0E 0F
      -- -- -- -- -- -- -- --  -- -- -- -- -- -- -- --
0000:    24 00 80 01 80 01 80  25 02 00 10 01 80 00 1B   $......%.......
0010: 00 29 0E 0B 10 0F 01 15  01 81 00 02 00 10 02 80  .)..............
0020: 00 2D 00 29 0E 0B 10 0F  01 03 01 81 00 02 00 10  .-.)............
0030: 03 80 00 3F 00 29 0E 0B  10 0F 01 02 01 81 00 02  ...?.)..........
0040: 00 10 04 80 00 4F 00 03  01 10 05 80 01 81 00 02  .....O..........
0050: 00 10 06 80 00 5F 00 03  01 10 07 80 01 81 00 02  ....._..........
0060: 00 10 08 80 00 6F 00 03  01 10 09 80 01 81 00 02  .....o..........
0070: 00 10 0A 80 00 81 00 29  0E 0B 10 0F 01 04 01 81  .......)........
0080: 00 20 00 21 00                                    . .!.           
```

#### Opcodes

```
  0: 0x0001 [0x24] CREATE_DIALOG(message_id=8643*, default_option=0*, option_flags=0*)
    → "PRODUCER'S DEBUG MENU... [@OPENING EVENTS./MISSIONS./WARP./SAW OPENING EVENT./CHEAT THE FAME GAME./RESET ALL$26INITIALIZE./MissionEX.]"
  1: 0x0008 [0x25] WAIT_DIALOG_SELECT()
  2: 0x0009 [0x02] IF !(Work_Zone[0] == 0*) GOTO 0x001B
  3: 0x0011 [0x29] REQ_SET_WAIT(priority=0x0E, entity_id=PRODUCER (ID: 17764363/0x010F100B), tag_num=0x15)
  4: 0x0018 [0x01] GOTO 0x0081
  5: 0x001B [0x02] IF !(Work_Zone[0] == 1*) GOTO 0x002D
  6: 0x0023 [0x29] REQ_SET_WAIT(priority=0x0E, entity_id=PRODUCER (ID: 17764363/0x010F100B), tag_num=0x03)
  7: 0x002A [0x01] GOTO 0x0081
  8: 0x002D [0x02] IF !(Work_Zone[0] == 2*) GOTO 0x003F
  9: 0x0035 [0x29] REQ_SET_WAIT(priority=0x0E, entity_id=PRODUCER (ID: 17764363/0x010F100B), tag_num=0x02)
 10: 0x003C [0x01] GOTO 0x0081
 11: 0x003F [0x02] IF !(Work_Zone[0] == 3*) GOTO 0x004F
 12: 0x0047 [0x03] Work_Zone[1] = 103*
 13: 0x004C [0x01] GOTO 0x0081
 14: 0x004F [0x02] IF !(Work_Zone[0] == 4*) GOTO 0x005F
 15: 0x0057 [0x03] Work_Zone[1] = 102*
 16: 0x005C [0x01] GOTO 0x0081
 17: 0x005F [0x02] IF !(Work_Zone[0] == 5*) GOTO 0x006F
 18: 0x0067 [0x03] Work_Zone[1] = 100*
 19: 0x006C [0x01] GOTO 0x0081
 20: 0x006F [0x02] IF !(Work_Zone[0] == 6*) GOTO 0x0081
 21: 0x0077 [0x29] REQ_SET_WAIT(priority=0x0E, entity_id=PRODUCER (ID: 17764363/0x010F100B), tag_num=0x04)
 22: 0x007E [0x01] GOTO 0x0081

SUBROUTINE_0081:
 23: 0x0081 [0x20] SET_CLI_EVENT_UC_FLAG: Unlock player control
 24: 0x0083 [0x21] END_EVENT
 25: 0x0084 [0x00] END_REQSTACK()
```

### Event 65535.1

#### Metadata

| Field        | Value     |
|--------------|-----------|
| Entrypoint   | 0x0085    |
| Data Size    | 246 bytes |
| Instructions | 44        |

```
      00 01 02 03 04 05 06 07  08 09 0A 0B 0C 0D 0E 0F
      -- -- -- -- -- -- -- --  -- -- -- -- -- -- -- --
0080:                24 0B 80  01 80 01 80 25 02 00 10       $......%...
0090: 01 80 00 9F 00 29 09 F0  FF FF 7F 1A 01 77 01 02  .....).......w..
00A0: 00 10 02 80 00 B1 00 29  09 F0 FF FF 7F 1B 01 77  .......).......w
00B0: 01 02 00 10 03 80 00 C3  00 29 09 F0 FF FF 7F 1C  .........)......
00C0: 01 77 01 02 00 10 04 80  00 D5 00 29 09 F0 FF FF  .w.........)....
00D0: 7F 1D 01 77 01 02 00 10  06 80 00 E7 00 29 09 F0  ...w.........)..
00E0: FF FF 7F 1E 01 77 01 02  00 10 08 80 00 F9 00 29  .....w.........)
00F0: 09 F0 FF FF 7F 1F 01 77  01 02 00 10 0A 80 00 0B  .......w........
0100: 01 29 09 F0 FF FF 7F 20  01 77 01 02 00 10 0C 80  .)..... .w......
0110: 00 1D 01 29 09 F0 FF FF  7F 21 01 77 01 02 00 10  ...).....!.w....
0120: 0D 80 00 2F 01 29 09 F0  FF FF 7F 22 01 77 01 02  .../.).....".w..
0130: 00 10 0E 80 00 41 01 29  09 F0 FF FF 7F 23 01 77  .....A.).....#.w
0140: 01 02 00 10 0F 80 00 53  01 29 09 F0 FF FF 7F 24  .......S.).....$
0150: 01 77 01 02 00 10 10 80  00 65 01 29 09 F0 FF FF  .w.......e.)....
0160: 7F 25 01 77 01 02 00 10  11 80 00 77 01 29 09 F0  .%.w.......w.)..
0170: FF FF 7F 26 01 77 01 20  00 21 00                 ...&.w. .!.     
```

#### Opcodes

```
  0: 0x0085 [0x24] CREATE_DIALOG(message_id=8644*, default_option=0*, option_flags=0*)
    → "WARP TO...? [MANUSTERY1./MANUSTERY2./WEAVERS' GUILD./BONEWORKERS' GUILD./GOOD GOODS./AUCTION HOUSE./CHOCOBOSTABLES./CONSULATE OF SAN D'ORIA./EASTERN GATEHOUSE./APOTHECARY./MITHRA BOSS./CAT BURGLAR'S PAD./DHALMEL FARM.]"
  1: 0x008C [0x25] WAIT_DIALOG_SELECT()
  2: 0x008D [0x02] IF !(Work_Zone[0] == 0*) GOTO 0x009F
  3: 0x0095 [0x29] REQ_SET_WAIT(priority=0x09, entity_id=LocalPlayer, tag_num=0x1A)
  4: 0x009C [0x01] GOTO 0x0177
  5: 0x009F [0x02] IF !(Work_Zone[0] == 1*) GOTO 0x00B1
  6: 0x00A7 [0x29] REQ_SET_WAIT(priority=0x09, entity_id=LocalPlayer, tag_num=0x1B)
  7: 0x00AE [0x01] GOTO 0x0177
  8: 0x00B1 [0x02] IF !(Work_Zone[0] == 2*) GOTO 0x00C3
  9: 0x00B9 [0x29] REQ_SET_WAIT(priority=0x09, entity_id=LocalPlayer, tag_num=0x1C)
 10: 0x00C0 [0x01] GOTO 0x0177
 11: 0x00C3 [0x02] IF !(Work_Zone[0] == 3*) GOTO 0x00D5
 12: 0x00CB [0x29] REQ_SET_WAIT(priority=0x09, entity_id=LocalPlayer, tag_num=0x1D)
 13: 0x00D2 [0x01] GOTO 0x0177
 14: 0x00D5 [0x02] IF !(Work_Zone[0] == 4*) GOTO 0x00E7
 15: 0x00DD [0x29] REQ_SET_WAIT(priority=0x09, entity_id=LocalPlayer, tag_num=0x1E)
 16: 0x00E4 [0x01] GOTO 0x0177
 17: 0x00E7 [0x02] IF !(Work_Zone[0] == 5*) GOTO 0x00F9
 18: 0x00EF [0x29] REQ_SET_WAIT(priority=0x09, entity_id=LocalPlayer, tag_num=0x1F)
 19: 0x00F6 [0x01] GOTO 0x0177
 20: 0x00F9 [0x02] IF !(Work_Zone[0] == 6*) GOTO 0x010B
 21: 0x0101 [0x29] REQ_SET_WAIT(priority=0x09, entity_id=LocalPlayer, tag_num=0x20)
 22: 0x0108 [0x01] GOTO 0x0177
 23: 0x010B [0x02] IF !(Work_Zone[0] == 7*) GOTO 0x011D
 24: 0x0113 [0x29] REQ_SET_WAIT(priority=0x09, entity_id=LocalPlayer, tag_num=0x21)
 25: 0x011A [0x01] GOTO 0x0177
 26: 0x011D [0x02] IF !(Work_Zone[0] == 8*) GOTO 0x012F
 27: 0x0125 [0x29] REQ_SET_WAIT(priority=0x09, entity_id=LocalPlayer, tag_num=0x22)
 28: 0x012C [0x01] GOTO 0x0177
 29: 0x012F [0x02] IF !(Work_Zone[0] == 9*) GOTO 0x0141
 30: 0x0137 [0x29] REQ_SET_WAIT(priority=0x09, entity_id=LocalPlayer, tag_num=0x23)
 31: 0x013E [0x01] GOTO 0x0177
 32: 0x0141 [0x02] IF !(Work_Zone[0] == 10*) GOTO 0x0153
 33: 0x0149 [0x29] REQ_SET_WAIT(priority=0x09, entity_id=LocalPlayer, tag_num=0x24)
 34: 0x0150 [0x01] GOTO 0x0177
 35: 0x0153 [0x02] IF !(Work_Zone[0] == 11*) GOTO 0x0165
 36: 0x015B [0x29] REQ_SET_WAIT(priority=0x09, entity_id=LocalPlayer, tag_num=0x25)
 37: 0x0162 [0x01] GOTO 0x0177
 38: 0x0165 [0x02] IF !(Work_Zone[0] == 12*) GOTO 0x0177
 39: 0x016D [0x29] REQ_SET_WAIT(priority=0x09, entity_id=LocalPlayer, tag_num=0x26)
 40: 0x0174 [0x01] GOTO 0x0177

SUBROUTINE_0177:
 41: 0x0177 [0x20] SET_CLI_EVENT_UC_FLAG: Unlock player control
 42: 0x0179 [0x21] END_EVENT
 43: 0x017A [0x00] END_REQSTACK()
```

### Event 65535.2

#### Metadata

| Field        | Value     |
|--------------|-----------|
| Entrypoint   | 0x017B    |
| Data Size    | 368 bytes |
| Instructions | 67        |

```
      00 01 02 03 04 05 06 07  08 09 0A 0B 0C 0D 0E 0F
      -- -- -- -- -- -- -- --  -- -- -- -- -- -- -- --
0170:                                   24 12 80 01 80             $....
0180: 01 80 25 02 00 10 01 80  00 95 01 29 0A 0B 10 0F  ..%........)....
0190: 01 05 01 E7 02 02 00 10  02 80 00 A7 01 29 0A 0B  .............)..
01A0: 10 0F 01 06 01 E7 02 02  00 10 03 80 00 B9 01 29  ...............)
01B0: 0A 0B 10 0F 01 07 01 E7  02 02 00 10 04 80 00 CB  ................
01C0: 01 29 0A 0B 10 0F 01 08  01 E7 02 02 00 10 06 80  .)..............
01D0: 00 DD 01 29 0A 0B 10 0F  01 09 01 E7 02 02 00 10  ...)............
01E0: 08 80 00 EF 01 29 0A 0B  10 0F 01 0A 01 E7 02 02  .....)..........
01F0: 00 10 0A 80 00 01 02 29  0A 0B 10 0F 01 0B 01 E7  .......)........
0200: 02 02 00 10 0C 80 00 13  02 29 0A 0B 10 0F 01 0C  .........)......
0210: 01 E7 02 02 00 10 0D 80  00 25 02 29 0A 0B 10 0F  .........%.)....
0220: 01 12 01 E7 02 02 00 10  0E 80 00 37 02 29 0A 0B  ...........7.)..
0230: 10 0F 01 13 01 E7 02 02  00 10 0F 80 00 49 02 29  .............I.)
0240: 0A 0B 10 0F 01 0D 01 E7  02 02 00 10 10 80 00 5B  ...............[
0250: 02 29 0A 0B 10 0F 01 0E  01 E7 02 02 00 10 11 80  .)..............
0260: 00 6D 02 29 0A 0B 10 0F  01 0F 01 E7 02 02 00 10  .m.)............
0270: 13 80 00 7F 02 29 0A 0B  10 0F 01 10 01 E7 02 02  .....)..........
0280: 00 10 14 80 00 91 02 29  0A 0B 10 0F 01 11 01 E7  .......)........
0290: 02 02 00 10 15 80 00 A3  02 29 0A 0B 10 0F 01 14  .........)......
02A0: 01 E7 02 02 00 10 16 80  00 B3 02 03 01 10 17 80  ................
02B0: 01 E7 02 02 00 10 18 80  00 C3 02 03 01 10 19 80  ................
02C0: 01 E7 02 02 00 10 1A 80  00 D3 02 03 01 10 1B 80  ................
02D0: 01 E7 02 02 00 10 1C 80  00 E7 02 1D 1D 80 23 03  ..............#.
02E0: 01 10 09 80 01 E7 02 20  00 21 00                 ....... .!.     
```

#### Opcodes

```
  0: 0x017B [0x24] CREATE_DIALOG(message_id=6695*, default_option=0*, option_flags=0*)
    → "GL$3~$3b$3V$3 $3$2HL6aH [$802838 [$E$3L$P11e$@1v/u1-2:$3J$3J$3VL$P10Sv/u1-3:$P15=%aL=_Iv/$1117995v/u2-2:$141L$s$P15{v/u2-3:$O$P11e [-$17v/u2-3:$P11<$17V1bv/u2-3:$P11<$17V2bv/u2-3:$P11<$17V1av/u2-3:$P11<$17V2av/u3-1:$P11N%'v/u3-2:$P10/$P13G]v/$4719165i%7%'?v/u5-1:$EcLl$4v/u5-2:$P10"$EL%JDE$P11RB$Rv/u2-3_609:3$17$4h)g$P16_AD+=v/u600:$3$3C$3I$3$2?aq$3t$3@[$3X$3g$3C$3$3p$3N$3gv/100000 gil, please/ZONEp<Player>j$P13xE`$o=1FI7i/All reset!]"
  1: 0x0182 [0x25] WAIT_DIALOG_SELECT()
  2: 0x0183 [0x02] IF !(Work_Zone[0] == 0*) GOTO 0x0195
  3: 0x018B [0x29] REQ_SET_WAIT(priority=0x0A, entity_id=PRODUCER (ID: 17764363/0x010F100B), tag_num=0x05)
  4: 0x0192 [0x01] GOTO 0x02E7
  5: 0x0195 [0x02] IF !(Work_Zone[0] == 1*) GOTO 0x01A7
  6: 0x019D [0x29] REQ_SET_WAIT(priority=0x0A, entity_id=PRODUCER (ID: 17764363/0x010F100B), tag_num=0x06)
  7: 0x01A4 [0x01] GOTO 0x02E7
  8: 0x01A7 [0x02] IF !(Work_Zone[0] == 2*) GOTO 0x01B9
  9: 0x01AF [0x29] REQ_SET_WAIT(priority=0x0A, entity_id=PRODUCER (ID: 17764363/0x010F100B), tag_num=0x07)
 10: 0x01B6 [0x01] GOTO 0x02E7
 11: 0x01B9 [0x02] IF !(Work_Zone[0] == 3*) GOTO 0x01CB
 12: 0x01C1 [0x29] REQ_SET_WAIT(priority=0x0A, entity_id=PRODUCER (ID: 17764363/0x010F100B), tag_num=0x08)
 13: 0x01C8 [0x01] GOTO 0x02E7
 14: 0x01CB [0x02] IF !(Work_Zone[0] == 4*) GOTO 0x01DD
 15: 0x01D3 [0x29] REQ_SET_WAIT(priority=0x0A, entity_id=PRODUCER (ID: 17764363/0x010F100B), tag_num=0x09)
 16: 0x01DA [0x01] GOTO 0x02E7
 17: 0x01DD [0x02] IF !(Work_Zone[0] == 5*) GOTO 0x01EF
 18: 0x01E5 [0x29] REQ_SET_WAIT(priority=0x0A, entity_id=PRODUCER (ID: 17764363/0x010F100B), tag_num=0x0A)
 19: 0x01EC [0x01] GOTO 0x02E7
 20: 0x01EF [0x02] IF !(Work_Zone[0] == 6*) GOTO 0x0201
 21: 0x01F7 [0x29] REQ_SET_WAIT(priority=0x0A, entity_id=PRODUCER (ID: 17764363/0x010F100B), tag_num=0x0B)
 22: 0x01FE [0x01] GOTO 0x02E7
 23: 0x0201 [0x02] IF !(Work_Zone[0] == 7*) GOTO 0x0213
 24: 0x0209 [0x29] REQ_SET_WAIT(priority=0x0A, entity_id=PRODUCER (ID: 17764363/0x010F100B), tag_num=0x0C)
 25: 0x0210 [0x01] GOTO 0x02E7
 26: 0x0213 [0x02] IF !(Work_Zone[0] == 8*) GOTO 0x0225
 27: 0x021B [0x29] REQ_SET_WAIT(priority=0x0A, entity_id=PRODUCER (ID: 17764363/0x010F100B), tag_num=0x12)
 28: 0x0222 [0x01] GOTO 0x02E7
 29: 0x0225 [0x02] IF !(Work_Zone[0] == 9*) GOTO 0x0237
 30: 0x022D [0x29] REQ_SET_WAIT(priority=0x0A, entity_id=PRODUCER (ID: 17764363/0x010F100B), tag_num=0x13)
 31: 0x0234 [0x01] GOTO 0x02E7
 32: 0x0237 [0x02] IF !(Work_Zone[0] == 10*) GOTO 0x0249
 33: 0x023F [0x29] REQ_SET_WAIT(priority=0x0A, entity_id=PRODUCER (ID: 17764363/0x010F100B), tag_num=0x0D)
 34: 0x0246 [0x01] GOTO 0x02E7
 35: 0x0249 [0x02] IF !(Work_Zone[0] == 11*) GOTO 0x025B
 36: 0x0251 [0x29] REQ_SET_WAIT(priority=0x0A, entity_id=PRODUCER (ID: 17764363/0x010F100B), tag_num=0x0E)
 37: 0x0258 [0x01] GOTO 0x02E7
 38: 0x025B [0x02] IF !(Work_Zone[0] == 12*) GOTO 0x026D
 39: 0x0263 [0x29] REQ_SET_WAIT(priority=0x0A, entity_id=PRODUCER (ID: 17764363/0x010F100B), tag_num=0x0F)
 40: 0x026A [0x01] GOTO 0x02E7
 41: 0x026D [0x02] IF !(Work_Zone[0] == 13*) GOTO 0x027F
 42: 0x0275 [0x29] REQ_SET_WAIT(priority=0x0A, entity_id=PRODUCER (ID: 17764363/0x010F100B), tag_num=0x10)
 43: 0x027C [0x01] GOTO 0x02E7
 44: 0x027F [0x02] IF !(Work_Zone[0] == 14*) GOTO 0x0291
 45: 0x0287 [0x29] REQ_SET_WAIT(priority=0x0A, entity_id=PRODUCER (ID: 17764363/0x010F100B), tag_num=0x11)
 46: 0x028E [0x01] GOTO 0x02E7
 47: 0x0291 [0x02] IF !(Work_Zone[0] == 15*) GOTO 0x02A3
 48: 0x0299 [0x29] REQ_SET_WAIT(priority=0x0A, entity_id=PRODUCER (ID: 17764363/0x010F100B), tag_num=0x14)
 49: 0x02A0 [0x01] GOTO 0x02E7
 50: 0x02A3 [0x02] IF !(Work_Zone[0] == 16*) GOTO 0x02B3
 51: 0x02AB [0x03] Work_Zone[1] = 95*
 52: 0x02B0 [0x01] GOTO 0x02E7
 53: 0x02B3 [0x02] IF !(Work_Zone[0] == 17*) GOTO 0x02C3
 54: 0x02BB [0x03] Work_Zone[1] = 205*
 55: 0x02C0 [0x01] GOTO 0x02E7
 56: 0x02C3 [0x02] IF !(Work_Zone[0] == 18*) GOTO 0x02D3
 57: 0x02CB [0x03] Work_Zone[1] = 99*
 58: 0x02D0 [0x01] GOTO 0x02E7
 59: 0x02D3 [0x02] IF !(Work_Zone[0] == 19*) GOTO 0x02E7
 60: 0x02DB [0x1D] PRINT_EVENT_MESSAGE(message_id=6692*)
    → "Oh no! Your Adventurers' certificate vanished!"
 61: 0x02DE [0x23] WAIT_FOR_DIALOG_INTERACTION
 62: 0x02DF [0x03] Work_Zone[1] = 100*
 63: 0x02E4 [0x01] GOTO 0x02E7

SUBROUTINE_02E7:
 64: 0x02E7 [0x20] SET_CLI_EVENT_UC_FLAG: Unlock player control
 65: 0x02E9 [0x21] END_EVENT
 66: 0x02EA [0x00] END_REQSTACK()
```

### Event 65535.3

#### Metadata

| Field        | Value     |
|--------------|-----------|
| Entrypoint   | 0x02EB    |
| Data Size    | 156 bytes |
| Instructions | 32        |

```
      00 01 02 03 04 05 06 07  08 09 0A 0B 0C 0D 0E 0F
      -- -- -- -- -- -- -- --  -- -- -- -- -- -- -- --
02E0:                                   24 1E 80 01 80             $....
02F0: 01 80 25 02 00 10 01 80  00 03 03 03 01 10 1F 80  ..%.............
0300: 01 83 03 02 00 10 02 80  00 13 03 03 01 10 20 80  .............. .
0310: 01 83 03 02 00 10 03 80  00 23 03 03 01 10 21 80  .........#....!.
0320: 01 83 03 02 00 10 04 80  00 33 03 03 01 10 22 80  .........3....".
0330: 01 83 03 02 00 10 06 80  00 43 03 03 01 10 23 80  .........C....#.
0340: 01 83 03 02 00 10 08 80  00 53 03 03 01 10 24 80  .........S....$.
0350: 01 83 03 02 00 10 0A 80  00 63 03 03 01 10 25 80  .........c....%.
0360: 01 83 03 02 00 10 0C 80  00 73 03 03 01 10 26 80  .........s....&.
0370: 01 83 03 02 00 10 0D 80  00 83 03 03 01 10 27 80  ..............'.
0380: 01 83 03 20 00 21 00                              ... .!.         
```

#### Opcodes

```
  0: 0x02EB [0x24] CREATE_DIALOG(message_id=6712*, default_option=0*, option_flags=0*)
    → "ex [u6-1:v$P12<$P11O/u6-2:v$P12<$P11O/u7-1:v$P12<$P11O/u7-2:v$P12<$P11O/u8-1:v$P12<$P11O/u8-2:v$P12<$P11O/u9-1:v$P12<$P11O/u9-2:v$P12<$P11O/u9-2:$6816365]"
  1: 0x02F2 [0x25] WAIT_DIALOG_SELECT()
  2: 0x02F3 [0x02] IF !(Work_Zone[0] == 0*) GOTO 0x0303
  3: 0x02FB [0x03] Work_Zone[1] = 300*
  4: 0x0300 [0x01] GOTO 0x0383
  5: 0x0303 [0x02] IF !(Work_Zone[0] == 1*) GOTO 0x0313
  6: 0x030B [0x03] Work_Zone[1] = 301*
  7: 0x0310 [0x01] GOTO 0x0383
  8: 0x0313 [0x02] IF !(Work_Zone[0] == 2*) GOTO 0x0323
  9: 0x031B [0x03] Work_Zone[1] = 302*
 10: 0x0320 [0x01] GOTO 0x0383
 11: 0x0323 [0x02] IF !(Work_Zone[0] == 3*) GOTO 0x0333
 12: 0x032B [0x03] Work_Zone[1] = 303*
 13: 0x0330 [0x01] GOTO 0x0383
 14: 0x0333 [0x02] IF !(Work_Zone[0] == 4*) GOTO 0x0343
 15: 0x033B [0x03] Work_Zone[1] = 304*
 16: 0x0340 [0x01] GOTO 0x0383
 17: 0x0343 [0x02] IF !(Work_Zone[0] == 5*) GOTO 0x0353
 18: 0x034B [0x03] Work_Zone[1] = 305*
 19: 0x0350 [0x01] GOTO 0x0383
 20: 0x0353 [0x02] IF !(Work_Zone[0] == 6*) GOTO 0x0363
 21: 0x035B [0x03] Work_Zone[1] = 306*
 22: 0x0360 [0x01] GOTO 0x0383
 23: 0x0363 [0x02] IF !(Work_Zone[0] == 7*) GOTO 0x0373
 24: 0x036B [0x03] Work_Zone[1] = 307*
 25: 0x0370 [0x01] GOTO 0x0383
 26: 0x0373 [0x02] IF !(Work_Zone[0] == 8*) GOTO 0x0383
 27: 0x037B [0x03] Work_Zone[1] = 308*
 28: 0x0380 [0x01] GOTO 0x0383

SUBROUTINE_0383:
 29: 0x0383 [0x20] SET_CLI_EVENT_UC_FLAG: Unlock player control
 30: 0x0385 [0x21] END_EVENT
 31: 0x0386 [0x00] END_REQSTACK()
```

### Event 65535.4

#### Metadata

| Field        | Value     |
|--------------|-----------|
| Entrypoint   | 0x0387    |
| Data Size    | 132 bytes |
| Instructions | 30        |

```
      00 01 02 03 04 05 06 07  08 09 0A 0B 0C 0D 0E 0F
      -- -- -- -- -- -- -- --  -- -- -- -- -- -- -- --
0380:                      24  28 80 01 80 01 80 25 02         $(.....%.
0390: 00 10 01 80 00 A3 03 1D  29 80 23 03 01 10 10 80  ........).#.....
03A0: 01 07 04 02 00 10 02 80  00 B3 03 03 01 10 11 80  ................
03B0: 01 07 04 02 00 10 03 80  00 C3 03 03 01 10 13 80  ................
03C0: 01 07 04 02 00 10 04 80  00 D3 03 03 01 10 14 80  ................
03D0: 01 07 04 02 00 10 06 80  00 E3 03 03 01 10 15 80  ................
03E0: 01 07 04 02 00 10 08 80  00 F3 03 03 01 10 16 80  ................
03F0: 01 07 04 02 00 10 0A 80  00 07 04 1D 1D 80 23 03  ..............#.
0400: 01 10 09 80 01 07 04 20  00 21 00                 ....... .!.     
```

#### Opcodes

```
  0: 0x0387 [0x24] CREATE_DIALOG(message_id=6696*, default_option=0*, option_flags=0*)
    → "m101$3t$3$3O%'DiE$3U[$3}$3XH [@OK$3t$3$3O/START$3t$3$3O/{L%@$sA=$3t$3$3O/$2$P16@$3$sA=$3t$3$3O/$2$P139 [$5$P13n5=$3t$3$3O/END$P12<c$3t$3$3O/All reset!]"
  1: 0x038E [0x25] WAIT_DIALOG_SELECT()
  2: 0x038F [0x02] IF !(Work_Zone[0] == 0*) GOTO 0x03A3
  3: 0x0397 [0x1D] PRINT_EVENT_MESSAGE(message_id=6691*)
    → "Abracadabra!"
  4: 0x039A [0x23] WAIT_FOR_DIALOG_INTERACTION
  5: 0x039B [0x03] Work_Zone[1] = 11*
  6: 0x03A0 [0x01] GOTO 0x0407
  7: 0x03A3 [0x02] IF !(Work_Zone[0] == 1*) GOTO 0x03B3
  8: 0x03AB [0x03] Work_Zone[1] = 12*
  9: 0x03B0 [0x01] GOTO 0x0407
 10: 0x03B3 [0x02] IF !(Work_Zone[0] == 2*) GOTO 0x03C3
 11: 0x03BB [0x03] Work_Zone[1] = 13*
 12: 0x03C0 [0x01] GOTO 0x0407
 13: 0x03C3 [0x02] IF !(Work_Zone[0] == 3*) GOTO 0x03D3
 14: 0x03CB [0x03] Work_Zone[1] = 14*
 15: 0x03D0 [0x01] GOTO 0x0407
 16: 0x03D3 [0x02] IF !(Work_Zone[0] == 4*) GOTO 0x03E3
 17: 0x03DB [0x03] Work_Zone[1] = 15*
 18: 0x03E0 [0x01] GOTO 0x0407
 19: 0x03E3 [0x02] IF !(Work_Zone[0] == 5*) GOTO 0x03F3
 20: 0x03EB [0x03] Work_Zone[1] = 16*
 21: 0x03F0 [0x01] GOTO 0x0407
 22: 0x03F3 [0x02] IF !(Work_Zone[0] == 6*) GOTO 0x0407
 23: 0x03FB [0x1D] PRINT_EVENT_MESSAGE(message_id=6692*)
    → "Oh no! Your Adventurers' certificate vanished!"
 24: 0x03FE [0x23] WAIT_FOR_DIALOG_INTERACTION
 25: 0x03FF [0x03] Work_Zone[1] = 100*
 26: 0x0404 [0x01] GOTO 0x0407

SUBROUTINE_0407:
 27: 0x0407 [0x20] SET_CLI_EVENT_UC_FLAG: Unlock player control
 28: 0x0409 [0x21] END_EVENT
 29: 0x040A [0x00] END_REQSTACK()
```

### Event 65535.5

#### Metadata

| Field        | Value     |
|--------------|-----------|
| Entrypoint   | 0x040B    |
| Data Size    | 148 bytes |
| Instructions | 33        |

```
      00 01 02 03 04 05 06 07  08 09 0A 0B 0C 0D 0E 0F
      -- -- -- -- -- -- -- --  -- -- -- -- -- -- -- --
0400:                                   24 2A 80 01 80             $*...
0410: 01 80 25 02 00 10 01 80  00 27 04 1D 29 80 23 03  ..%......'..).#.
0420: 01 10 18 80 01 9B 04 02  00 10 02 80 00 37 04 03  .............7..
0430: 01 10 1A 80 01 9B 04 02  00 10 03 80 00 47 04 03  .............G..
0440: 01 10 1C 80 01 9B 04 02  00 10 04 80 00 57 04 03  .............W..
0450: 01 10 2B 80 01 9B 04 02  00 10 06 80 00 67 04 03  ..+..........g..
0460: 01 10 2C 80 01 9B 04 02  00 10 08 80 00 77 04 03  ..,..........w..
0470: 01 10 2D 80 01 9B 04 02  00 10 0A 80 00 87 04 03  ..-.............
0480: 01 10 2E 80 01 9B 04 02  00 10 0C 80 00 9B 04 1D  ................
0490: 1D 80 23 03 01 10 09 80  01 9B 04 20 00 21 00     ..#........ .!. 
```

#### Opcodes

```
  0: 0x040B [0x24] CREATE_DIALOG(message_id=6697*, default_option=0*, option_flags=0*)
    → "m102$3t$3$3O%'DiE$3U[$3}$3XH [@OK$3t$3$3O/START$3t$3$3O/{L%@$sA=$3t$3$3O/$2$P16@$3$sA=$3t$3$3O/$P11S$20;k&D$0q>h$3$1[$3v/$2$P139 [$5$3J$3J$3VI$P13n5=$3t$3$3O/END$P12<c$3t$3$3O/All reset!]"
  1: 0x0412 [0x25] WAIT_DIALOG_SELECT()
  2: 0x0413 [0x02] IF !(Work_Zone[0] == 0*) GOTO 0x0427
  3: 0x041B [0x1D] PRINT_EVENT_MESSAGE(message_id=6691*)
    → "Abracadabra!"
  4: 0x041E [0x23] WAIT_FOR_DIALOG_INTERACTION
  5: 0x041F [0x03] Work_Zone[1] = 17*
  6: 0x0424 [0x01] GOTO 0x049B
  7: 0x0427 [0x02] IF !(Work_Zone[0] == 1*) GOTO 0x0437
  8: 0x042F [0x03] Work_Zone[1] = 18*
  9: 0x0434 [0x01] GOTO 0x049B
 10: 0x0437 [0x02] IF !(Work_Zone[0] == 2*) GOTO 0x0447
 11: 0x043F [0x03] Work_Zone[1] = 19*
 12: 0x0444 [0x01] GOTO 0x049B
 13: 0x0447 [0x02] IF !(Work_Zone[0] == 3*) GOTO 0x0457
 14: 0x044F [0x03] Work_Zone[1] = 20*
 15: 0x0454 [0x01] GOTO 0x049B
 16: 0x0457 [0x02] IF !(Work_Zone[0] == 4*) GOTO 0x0467
 17: 0x045F [0x03] Work_Zone[1] = 109*
 18: 0x0464 [0x01] GOTO 0x049B
 19: 0x0467 [0x02] IF !(Work_Zone[0] == 5*) GOTO 0x0477
 20: 0x046F [0x03] Work_Zone[1] = 21*
 21: 0x0474 [0x01] GOTO 0x049B
 22: 0x0477 [0x02] IF !(Work_Zone[0] == 6*) GOTO 0x0487
 23: 0x047F [0x03] Work_Zone[1] = 22*
 24: 0x0484 [0x01] GOTO 0x049B
 25: 0x0487 [0x02] IF !(Work_Zone[0] == 7*) GOTO 0x049B
 26: 0x048F [0x1D] PRINT_EVENT_MESSAGE(message_id=6692*)
    → "Oh no! Your Adventurers' certificate vanished!"
 27: 0x0492 [0x23] WAIT_FOR_DIALOG_INTERACTION
 28: 0x0493 [0x03] Work_Zone[1] = 100*
 29: 0x0498 [0x01] GOTO 0x049B

SUBROUTINE_049B:
 30: 0x049B [0x20] SET_CLI_EVENT_UC_FLAG: Unlock player control
 31: 0x049D [0x21] END_EVENT
 32: 0x049E [0x00] END_REQSTACK()
```

### Event 65535.6

#### Metadata

| Field        | Value     |
|--------------|-----------|
| Entrypoint   | 0x049F    |
| Data Size    | 132 bytes |
| Instructions | 30        |

```
      00 01 02 03 04 05 06 07  08 09 0A 0B 0C 0D 0E 0F
      -- -- -- -- -- -- -- --  -- -- -- -- -- -- -- --
0490:                                               24                 $
04A0: 2F 80 01 80 01 80 25 02  00 10 01 80 00 BB 04 1D  /.....%.........
04B0: 29 80 23 03 01 10 30 80  01 1F 05 02 00 10 02 80  ).#...0.........
04C0: 00 CB 04 03 01 10 31 80  01 1F 05 02 00 10 03 80  ......1.........
04D0: 00 DB 04 03 01 10 32 80  01 1F 05 02 00 10 04 80  ......2.........
04E0: 00 EB 04 03 01 10 33 80  01 1F 05 02 00 10 06 80  ......3.........
04F0: 00 FB 04 03 01 10 34 80  01 1F 05 02 00 10 08 80  ......4.........
0500: 00 0B 05 03 01 10 35 80  01 1F 05 02 00 10 0A 80  ......5.........
0510: 00 1F 05 1D 1D 80 23 03  01 10 09 80 01 1F 05 20  ......#........ 
0520: 00 21 00                                          .!.             
```

#### Opcodes

```
  0: 0x049F [0x24] CREATE_DIALOG(message_id=6698*, default_option=0*, option_flags=0*)
    → "m103$3t$3$3O%'DiE$3U[$3}$3XH [@OK$3t$3$3O/START$3t$3$3O/$P122%$3M$3 [$3h$sA=$3t$3$3O/$3M$3f$3A$3X$sA=$3t$3$3O/$P15@L%@Lp)=/END$P12<c$3t$3$3O/All reset!]"
  1: 0x04A6 [0x25] WAIT_DIALOG_SELECT()
  2: 0x04A7 [0x02] IF !(Work_Zone[0] == 0*) GOTO 0x04BB
  3: 0x04AF [0x1D] PRINT_EVENT_MESSAGE(message_id=6691*)
    → "Abracadabra!"
  4: 0x04B2 [0x23] WAIT_FOR_DIALOG_INTERACTION
  5: 0x04B3 [0x03] Work_Zone[1] = 23*
  6: 0x04B8 [0x01] GOTO 0x051F
  7: 0x04BB [0x02] IF !(Work_Zone[0] == 1*) GOTO 0x04CB
  8: 0x04C3 [0x03] Work_Zone[1] = 24*
  9: 0x04C8 [0x01] GOTO 0x051F
 10: 0x04CB [0x02] IF !(Work_Zone[0] == 2*) GOTO 0x04DB
 11: 0x04D3 [0x03] Work_Zone[1] = 25*
 12: 0x04D8 [0x01] GOTO 0x051F
 13: 0x04DB [0x02] IF !(Work_Zone[0] == 3*) GOTO 0x04EB
 14: 0x04E3 [0x03] Work_Zone[1] = 26*
 15: 0x04E8 [0x01] GOTO 0x051F
 16: 0x04EB [0x02] IF !(Work_Zone[0] == 4*) GOTO 0x04FB
 17: 0x04F3 [0x03] Work_Zone[1] = 96*
 18: 0x04F8 [0x01] GOTO 0x051F
 19: 0x04FB [0x02] IF !(Work_Zone[0] == 5*) GOTO 0x050B
 20: 0x0503 [0x03] Work_Zone[1] = 27*
 21: 0x0508 [0x01] GOTO 0x051F
 22: 0x050B [0x02] IF !(Work_Zone[0] == 6*) GOTO 0x051F
 23: 0x0513 [0x1D] PRINT_EVENT_MESSAGE(message_id=6692*)
    → "Oh no! Your Adventurers' certificate vanished!"
 24: 0x0516 [0x23] WAIT_FOR_DIALOG_INTERACTION
 25: 0x0517 [0x03] Work_Zone[1] = 100*
 26: 0x051C [0x01] GOTO 0x051F

SUBROUTINE_051F:
 27: 0x051F [0x20] SET_CLI_EVENT_UC_FLAG: Unlock player control
 28: 0x0521 [0x21] END_EVENT
 29: 0x0522 [0x00] END_REQSTACK()
```

### Event 65535.7

#### Metadata

| Field        | Value     |
|--------------|-----------|
| Entrypoint   | 0x0523    |
| Data Size    | 164 bytes |
| Instructions | 36        |

```
      00 01 02 03 04 05 06 07  08 09 0A 0B 0C 0D 0E 0F
      -- -- -- -- -- -- -- --  -- -- -- -- -- -- -- --
0520:          24 36 80 01 80  01 80 25 02 00 10 01 80     $6.....%.....
0530: 00 3F 05 1D 29 80 23 03  01 10 37 80 01 C3 05 02  .?..).#...7.....
0540: 00 10 02 80 00 4F 05 03  01 10 38 80 01 C3 05 02  .....O....8.....
0550: 00 10 03 80 00 5F 05 03  01 10 39 80 01 C3 05 02  ....._....9.....
0560: 00 10 04 80 00 6F 05 03  01 10 3A 80 01 C3 05 02  .....o....:.....
0570: 00 10 06 80 00 7F 05 03  01 10 3B 80 01 C3 05 02  ..........;.....
0580: 00 10 08 80 00 8F 05 03  01 10 3C 80 01 C3 05 02  ..........<.....
0590: 00 10 0A 80 00 9F 05 03  01 10 3D 80 01 C3 05 02  ..........=.....
05A0: 00 10 0C 80 00 AF 05 03  01 10 3E 80 01 C3 05 02  ..........>.....
05B0: 00 10 0D 80 00 C3 05 1D  1D 80 23 03 01 10 09 80  ..........#.....
05C0: 01 C3 05 20 00 21 00                              ... .!.         
```

#### Opcodes

```
  0: 0x0523 [0x24] CREATE_DIALOG(message_id=6699*, default_option=0*, option_flags=0*)
    → "m201$3t$3$3O%'DiE$3U[$3}$3XH [@OK$3t$3$3O/START$3t$3$3O/$P16ZL%@$sA=$3t$3$3O/`f`_GET$3t$3$3O/$3J$3MGET$3t$3$3O/$2$P16@$3$3C$3x$3$3g$I%9$3t$3$3O/$"$+$mL%F$3C$3x$3$3g$I%9$3t$3$3O/END$P12<c$3t$3$3O/All reset!]"
  1: 0x052A [0x25] WAIT_DIALOG_SELECT()
  2: 0x052B [0x02] IF !(Work_Zone[0] == 0*) GOTO 0x053F
  3: 0x0533 [0x1D] PRINT_EVENT_MESSAGE(message_id=6691*)
    → "Abracadabra!"
  4: 0x0536 [0x23] WAIT_FOR_DIALOG_INTERACTION
  5: 0x0537 [0x03] Work_Zone[1] = 28*
  6: 0x053C [0x01] GOTO 0x05C3
  7: 0x053F [0x02] IF !(Work_Zone[0] == 1*) GOTO 0x054F
  8: 0x0547 [0x03] Work_Zone[1] = 29*
  9: 0x054C [0x01] GOTO 0x05C3
 10: 0x054F [0x02] IF !(Work_Zone[0] == 2*) GOTO 0x055F
 11: 0x0557 [0x03] Work_Zone[1] = 30*
 12: 0x055C [0x01] GOTO 0x05C3
 13: 0x055F [0x02] IF !(Work_Zone[0] == 3*) GOTO 0x056F
 14: 0x0567 [0x03] Work_Zone[1] = 97*
 15: 0x056C [0x01] GOTO 0x05C3
 16: 0x056F [0x02] IF !(Work_Zone[0] == 4*) GOTO 0x057F
 17: 0x0577 [0x03] Work_Zone[1] = 31*
 18: 0x057C [0x01] GOTO 0x05C3
 19: 0x057F [0x02] IF !(Work_Zone[0] == 5*) GOTO 0x058F
 20: 0x0587 [0x03] Work_Zone[1] = 32*
 21: 0x058C [0x01] GOTO 0x05C3
 22: 0x058F [0x02] IF !(Work_Zone[0] == 6*) GOTO 0x059F
 23: 0x0597 [0x03] Work_Zone[1] = 33*
 24: 0x059C [0x01] GOTO 0x05C3
 25: 0x059F [0x02] IF !(Work_Zone[0] == 7*) GOTO 0x05AF
 26: 0x05A7 [0x03] Work_Zone[1] = 34*
 27: 0x05AC [0x01] GOTO 0x05C3
 28: 0x05AF [0x02] IF !(Work_Zone[0] == 8*) GOTO 0x05C3
 29: 0x05B7 [0x1D] PRINT_EVENT_MESSAGE(message_id=6692*)
    → "Oh no! Your Adventurers' certificate vanished!"
 30: 0x05BA [0x23] WAIT_FOR_DIALOG_INTERACTION
 31: 0x05BB [0x03] Work_Zone[1] = 100*
 32: 0x05C0 [0x01] GOTO 0x05C3

SUBROUTINE_05C3:
 33: 0x05C3 [0x20] SET_CLI_EVENT_UC_FLAG: Unlock player control
 34: 0x05C5 [0x21] END_EVENT
 35: 0x05C6 [0x00] END_REQSTACK()
```

### Event 65535.8

#### Metadata

| Field        | Value     |
|--------------|-----------|
| Entrypoint   | 0x05C7    |
| Data Size    | 180 bytes |
| Instructions | 39        |

```
      00 01 02 03 04 05 06 07  08 09 0A 0B 0C 0D 0E 0F
      -- -- -- -- -- -- -- --  -- -- -- -- -- -- -- --
05C0:                      24  3F 80 01 80 01 80 25 02         $?.....%.
05D0: 00 10 01 80 00 E3 05 1D  29 80 23 03 01 10 40 80  ........).#...@.
05E0: 01 77 06 02 00 10 02 80  00 F3 05 03 01 10 41 80  .w............A.
05F0: 01 77 06 02 00 10 03 80  00 03 06 03 01 10 42 80  .w............B.
0600: 01 77 06 02 00 10 04 80  00 13 06 03 01 10 43 80  .w............C.
0610: 01 77 06 02 00 10 06 80  00 23 06 03 01 10 44 80  .w.......#....D.
0620: 01 77 06 02 00 10 08 80  00 33 06 03 01 10 45 80  .w.......3....E.
0630: 01 77 06 02 00 10 0A 80  00 43 06 03 01 10 46 80  .w.......C....F.
0640: 01 77 06 02 00 10 0C 80  00 53 06 03 01 10 47 80  .w.......S....G.
0650: 01 77 06 02 00 10 0D 80  00 63 06 03 01 10 48 80  .w.......c....H.
0660: 01 77 06 02 00 10 0E 80  00 77 06 1D 1D 80 23 03  .w.......w....#.
0670: 01 10 09 80 01 77 06 20  00 21 00                 .....w. .!.     
```

#### Opcodes

```
  0: 0x05C7 [0x24] CREATE_DIALOG(message_id=6700*, default_option=0*, option_flags=0*)
    → "m202$3t$3$3O%'DiE$3U[$3}$3XH [@OK$3t$3$3O/START$3t$3$3O/$(L%@$sA=$3t$3$3O/$3^$3$3$3M$P11e [,$P12J$8$P14s/$3^$3$3$3M$P11e [,$P12J(TIME6$1%q5{100$P15C)/$3p$3$3X$3e$3B$3i$P16&$8$P14s/$3p$3$3X$3e$3B$3i$P16&(TIME6$1%q5{100$P15C)/$141$/OK$3t$3$3O/END$P12<c$3t$3$3O/All reset!]"
  1: 0x05CE [0x25] WAIT_DIALOG_SELECT()
  2: 0x05CF [0x02] IF !(Work_Zone[0] == 0*) GOTO 0x05E3
  3: 0x05D7 [0x1D] PRINT_EVENT_MESSAGE(message_id=6691*)
    → "Abracadabra!"
  4: 0x05DA [0x23] WAIT_FOR_DIALOG_INTERACTION
  5: 0x05DB [0x03] Work_Zone[1] = 37*
  6: 0x05E0 [0x01] GOTO 0x0677
  7: 0x05E3 [0x02] IF !(Work_Zone[0] == 1*) GOTO 0x05F3
  8: 0x05EB [0x03] Work_Zone[1] = 38*
  9: 0x05F0 [0x01] GOTO 0x0677
 10: 0x05F3 [0x02] IF !(Work_Zone[0] == 2*) GOTO 0x0603
 11: 0x05FB [0x03] Work_Zone[1] = 39*
 12: 0x0600 [0x01] GOTO 0x0677
 13: 0x0603 [0x02] IF !(Work_Zone[0] == 3*) GOTO 0x0613
 14: 0x060B [0x03] Work_Zone[1] = 105*
 15: 0x0610 [0x01] GOTO 0x0677
 16: 0x0613 [0x02] IF !(Work_Zone[0] == 4*) GOTO 0x0623
 17: 0x061B [0x03] Work_Zone[1] = 40*
 18: 0x0620 [0x01] GOTO 0x0677
 19: 0x0623 [0x02] IF !(Work_Zone[0] == 5*) GOTO 0x0633
 20: 0x062B [0x03] Work_Zone[1] = 106*
 21: 0x0630 [0x01] GOTO 0x0677
 22: 0x0633 [0x02] IF !(Work_Zone[0] == 6*) GOTO 0x0643
 23: 0x063B [0x03] Work_Zone[1] = 41*
 24: 0x0640 [0x01] GOTO 0x0677
 25: 0x0643 [0x02] IF !(Work_Zone[0] == 7*) GOTO 0x0653
 26: 0x064B [0x03] Work_Zone[1] = 42*
 27: 0x0650 [0x01] GOTO 0x0677
 28: 0x0653 [0x02] IF !(Work_Zone[0] == 8*) GOTO 0x0663
 29: 0x065B [0x03] Work_Zone[1] = 43*
 30: 0x0660 [0x01] GOTO 0x0677
 31: 0x0663 [0x02] IF !(Work_Zone[0] == 9*) GOTO 0x0677
 32: 0x066B [0x1D] PRINT_EVENT_MESSAGE(message_id=6692*)
    → "Oh no! Your Adventurers' certificate vanished!"
 33: 0x066E [0x23] WAIT_FOR_DIALOG_INTERACTION
 34: 0x066F [0x03] Work_Zone[1] = 100*
 35: 0x0674 [0x01] GOTO 0x0677

SUBROUTINE_0677:
 36: 0x0677 [0x20] SET_CLI_EVENT_UC_FLAG: Unlock player control
 37: 0x0679 [0x21] END_EVENT
 38: 0x067A [0x00] END_REQSTACK()
```

### Event 65535.9

#### Metadata

| Field        | Value     |
|--------------|-----------|
| Entrypoint   | 0x067B    |
| Data Size    | 116 bytes |
| Instructions | 27        |

```
      00 01 02 03 04 05 06 07  08 09 0A 0B 0C 0D 0E 0F
      -- -- -- -- -- -- -- --  -- -- -- -- -- -- -- --
0670:                                   24 49 80 01 80             $I...
0680: 01 80 25 02 00 10 01 80  00 97 06 1D 29 80 23 03  ..%.........).#.
0690: 01 10 4A 80 01 EB 06 02  00 10 02 80 00 A7 06 03  ..J.............
06A0: 01 10 4B 80 01 EB 06 02  00 10 03 80 00 B7 06 03  ..K.............
06B0: 01 10 4C 80 01 EB 06 02  00 10 04 80 00 C7 06 03  ..L.............
06C0: 01 10 4D 80 01 EB 06 02  00 10 06 80 00 D7 06 03  ..M.............
06D0: 01 10 4E 80 01 EB 06 02  00 10 08 80 00 EB 06 1D  ..N.............
06E0: 1D 80 23 03 01 10 09 80  01 EB 06 20 00 21 00     ..#........ .!. 
```

#### Opcodes

```
  0: 0x067B [0x24] CREATE_DIALOG(message_id=6701*, default_option=0*, option_flags=0*)
    → "m203$3t$3$3O%'DiE$3U[$3}$3XH [@OK$3t$3$3O/START$3t$3$3O/$P13VL$3$sA=$3t$3$3O/END$P12<c$3t$3$3O/$3T$3$3h$3$3A$sAD+=/All reset!]"
  1: 0x0682 [0x25] WAIT_DIALOG_SELECT()
  2: 0x0683 [0x02] IF !(Work_Zone[0] == 0*) GOTO 0x0697
  3: 0x068B [0x1D] PRINT_EVENT_MESSAGE(message_id=6691*)
    → "Abracadabra!"
  4: 0x068E [0x23] WAIT_FOR_DIALOG_INTERACTION
  5: 0x068F [0x03] Work_Zone[1] = 45*
  6: 0x0694 [0x01] GOTO 0x06EB
  7: 0x0697 [0x02] IF !(Work_Zone[0] == 1*) GOTO 0x06A7
  8: 0x069F [0x03] Work_Zone[1] = 46*
  9: 0x06A4 [0x01] GOTO 0x06EB
 10: 0x06A7 [0x02] IF !(Work_Zone[0] == 2*) GOTO 0x06B7
 11: 0x06AF [0x03] Work_Zone[1] = 47*
 12: 0x06B4 [0x01] GOTO 0x06EB
 13: 0x06B7 [0x02] IF !(Work_Zone[0] == 3*) GOTO 0x06C7
 14: 0x06BF [0x03] Work_Zone[1] = 48*
 15: 0x06C4 [0x01] GOTO 0x06EB
 16: 0x06C7 [0x02] IF !(Work_Zone[0] == 4*) GOTO 0x06D7
 17: 0x06CF [0x03] Work_Zone[1] = 110*
 18: 0x06D4 [0x01] GOTO 0x06EB
 19: 0x06D7 [0x02] IF !(Work_Zone[0] == 5*) GOTO 0x06EB
 20: 0x06DF [0x1D] PRINT_EVENT_MESSAGE(message_id=6692*)
    → "Oh no! Your Adventurers' certificate vanished!"
 21: 0x06E2 [0x23] WAIT_FOR_DIALOG_INTERACTION
 22: 0x06E3 [0x03] Work_Zone[1] = 100*
 23: 0x06E8 [0x01] GOTO 0x06EB

SUBROUTINE_06EB:
 24: 0x06EB [0x20] SET_CLI_EVENT_UC_FLAG: Unlock player control
 25: 0x06ED [0x21] END_EVENT
 26: 0x06EE [0x00] END_REQSTACK()
```

### Event 65535.10

#### Metadata

| Field        | Value     |
|--------------|-----------|
| Entrypoint   | 0x06EF    |
| Data Size    | 116 bytes |
| Instructions | 27        |

```
      00 01 02 03 04 05 06 07  08 09 0A 0B 0C 0D 0E 0F
      -- -- -- -- -- -- -- --  -- -- -- -- -- -- -- --
06E0:                                               24                 $
06F0: 4F 80 01 80 01 80 25 02  00 10 01 80 00 0B 07 1D  O.....%.........
0700: 29 80 23 03 01 10 50 80  01 5F 07 02 00 10 02 80  ).#...P.._......
0710: 00 1B 07 03 01 10 51 80  01 5F 07 02 00 10 03 80  ......Q.._......
0720: 00 2B 07 03 01 10 52 80  01 5F 07 02 00 10 04 80  .+....R.._......
0730: 00 3B 07 03 01 10 53 80  01 5F 07 02 00 10 06 80  .;....S.._......
0740: 00 4B 07 03 01 10 54 80  01 5F 07 02 00 10 08 80  .K....T.._......
0750: 00 5F 07 1D 1D 80 23 03  01 10 09 80 01 5F 07 20  ._....#......_. 
0760: 00 21 00                                          .!.             
```

#### Opcodes

```
  0: 0x06EF [0x24] CREATE_DIALOG(message_id=6703*, default_option=0*, option_flags=0*)
    → "@m203_1Bi1%q$P16Zj$3t$3$3O%'DiE$3U[$3}$3XH [@OK$3t$3$3O/@$3o$3X$3g$3D[$3N%L$22$Y$sA=$3t$3$3O/$201548$sA=$3t$3$3O/@$3M$3f$3A$3Xlv2$sA=$3t$3$3O/@END$P12<c$3t$3$3O/@All reset!]"
  1: 0x06F6 [0x25] WAIT_DIALOG_SELECT()
  2: 0x06F7 [0x02] IF !(Work_Zone[0] == 0*) GOTO 0x070B
  3: 0x06FF [0x1D] PRINT_EVENT_MESSAGE(message_id=6691*)
    → "Abracadabra!"
  4: 0x0702 [0x23] WAIT_FOR_DIALOG_INTERACTION
  5: 0x0703 [0x03] Work_Zone[1] = 50*
  6: 0x0708 [0x01] GOTO 0x075F
  7: 0x070B [0x02] IF !(Work_Zone[0] == 1*) GOTO 0x071B
  8: 0x0713 [0x03] Work_Zone[1] = 51*
  9: 0x0718 [0x01] GOTO 0x075F
 10: 0x071B [0x02] IF !(Work_Zone[0] == 2*) GOTO 0x072B
 11: 0x0723 [0x03] Work_Zone[1] = 52*
 12: 0x0728 [0x01] GOTO 0x075F
 13: 0x072B [0x02] IF !(Work_Zone[0] == 3*) GOTO 0x073B
 14: 0x0733 [0x03] Work_Zone[1] = 53*
 15: 0x0738 [0x01] GOTO 0x075F
 16: 0x073B [0x02] IF !(Work_Zone[0] == 4*) GOTO 0x074B
 17: 0x0743 [0x03] Work_Zone[1] = 54*
 18: 0x0748 [0x01] GOTO 0x075F
 19: 0x074B [0x02] IF !(Work_Zone[0] == 5*) GOTO 0x075F
 20: 0x0753 [0x1D] PRINT_EVENT_MESSAGE(message_id=6692*)
    → "Oh no! Your Adventurers' certificate vanished!"
 21: 0x0756 [0x23] WAIT_FOR_DIALOG_INTERACTION
 22: 0x0757 [0x03] Work_Zone[1] = 100*
 23: 0x075C [0x01] GOTO 0x075F

SUBROUTINE_075F:
 24: 0x075F [0x20] SET_CLI_EVENT_UC_FLAG: Unlock player control
 25: 0x0761 [0x21] END_EVENT
 26: 0x0762 [0x00] END_REQSTACK()
```

### Event 65535.11

#### Metadata

| Field        | Value     |
|--------------|-----------|
| Entrypoint   | 0x0763    |
| Data Size    | 116 bytes |
| Instructions | 27        |

```
      00 01 02 03 04 05 06 07  08 09 0A 0B 0C 0D 0E 0F
      -- -- -- -- -- -- -- --  -- -- -- -- -- -- -- --
0760:          24 55 80 01 80  01 80 25 02 00 10 01 80     $U.....%.....
0770: 00 7F 07 1D 29 80 23 03  01 10 56 80 01 D3 07 02  ....).#...V.....
0780: 00 10 02 80 00 8F 07 03  01 10 57 80 01 D3 07 02  ..........W.....
0790: 00 10 03 80 00 9F 07 03  01 10 58 80 01 D3 07 02  ..........X.....
07A0: 00 10 04 80 00 AF 07 03  01 10 59 80 01 D3 07 02  ..........Y.....
07B0: 00 10 06 80 00 BF 07 03  01 10 5A 80 01 D3 07 02  ..........Z.....
07C0: 00 10 08 80 00 D3 07 1D  1D 80 23 03 01 10 09 80  ..........#.....
07D0: 01 D3 07 20 00 21 00                              ... .!.         
```

#### Opcodes

```
  0: 0x0763 [0x24] CREATE_DIALOG(message_id=6704*, default_option=0*, option_flags=0*)
    → "@m203_2Bi2%q$P16Zj$3t$3$3O%'DiE$3U[$3}$3XH [@OK$3t$3$3O/@$3o$3X$3g$3D[$3N%L$22$Y$sA=$3t$3$3O/$201548$sA=$3t$3$3O/@$3M$3f$3A$3Xlv3$sA=$3t$3$3O/@END$P12<c$3t$3$3O/@All reset!]"
  1: 0x076A [0x25] WAIT_DIALOG_SELECT()
  2: 0x076B [0x02] IF !(Work_Zone[0] == 0*) GOTO 0x077F
  3: 0x0773 [0x1D] PRINT_EVENT_MESSAGE(message_id=6691*)
    → "Abracadabra!"
  4: 0x0776 [0x23] WAIT_FOR_DIALOG_INTERACTION
  5: 0x0777 [0x03] Work_Zone[1] = 55*
  6: 0x077C [0x01] GOTO 0x07D3
  7: 0x077F [0x02] IF !(Work_Zone[0] == 1*) GOTO 0x078F
  8: 0x0787 [0x03] Work_Zone[1] = 56*
  9: 0x078C [0x01] GOTO 0x07D3
 10: 0x078F [0x02] IF !(Work_Zone[0] == 2*) GOTO 0x079F
 11: 0x0797 [0x03] Work_Zone[1] = 57*
 12: 0x079C [0x01] GOTO 0x07D3
 13: 0x079F [0x02] IF !(Work_Zone[0] == 3*) GOTO 0x07AF
 14: 0x07A7 [0x03] Work_Zone[1] = 58*
 15: 0x07AC [0x01] GOTO 0x07D3
 16: 0x07AF [0x02] IF !(Work_Zone[0] == 4*) GOTO 0x07BF
 17: 0x07B7 [0x03] Work_Zone[1] = 59*
 18: 0x07BC [0x01] GOTO 0x07D3
 19: 0x07BF [0x02] IF !(Work_Zone[0] == 5*) GOTO 0x07D3
 20: 0x07C7 [0x1D] PRINT_EVENT_MESSAGE(message_id=6692*)
    → "Oh no! Your Adventurers' certificate vanished!"
 21: 0x07CA [0x23] WAIT_FOR_DIALOG_INTERACTION
 22: 0x07CB [0x03] Work_Zone[1] = 100*
 23: 0x07D0 [0x01] GOTO 0x07D3

SUBROUTINE_07D3:
 24: 0x07D3 [0x20] SET_CLI_EVENT_UC_FLAG: Unlock player control
 25: 0x07D5 [0x21] END_EVENT
 26: 0x07D6 [0x00] END_REQSTACK()
```

### Event 65535.12

#### Metadata

| Field        | Value     |
|--------------|-----------|
| Entrypoint   | 0x07D7    |
| Data Size    | 116 bytes |
| Instructions | 27        |

```
      00 01 02 03 04 05 06 07  08 09 0A 0B 0C 0D 0E 0F
      -- -- -- -- -- -- -- --  -- -- -- -- -- -- -- --
07D0:                      24  5B 80 01 80 01 80 25 02         $[.....%.
07E0: 00 10 01 80 00 F3 07 1D  29 80 23 03 01 10 5C 80  ........).#...\.
07F0: 01 47 08 02 00 10 02 80  00 03 08 03 01 10 5D 80  .G............].
0800: 01 47 08 02 00 10 03 80  00 13 08 03 01 10 5E 80  .G............^.
0810: 01 47 08 02 00 10 04 80  00 23 08 03 01 10 5F 80  .G.......#...._.
0820: 01 47 08 02 00 10 06 80  00 33 08 03 01 10 60 80  .G.......3....`.
0830: 01 47 08 02 00 10 08 80  00 47 08 1D 1D 80 23 03  .G.......G....#.
0840: 01 10 09 80 01 47 08 20  00 21 00                 .....G. .!.     
```

#### Opcodes

```
  0: 0x07D7 [0x24] CREATE_DIALOG(message_id=6707*, default_option=0*, option_flags=0*)
    → "m301$3t$3$3O%'DiE$3U[$3}$3XH [@OK$3t$3$3O/START$3t$3$3O/$P13VL$3$sA=$3t$3$3O/$3I$3Y$3g$3$3$4$sA=$3t$3$3O/END$P12<c$3t$3$3O/All reset!]"
  1: 0x07DE [0x25] WAIT_DIALOG_SELECT()
  2: 0x07DF [0x02] IF !(Work_Zone[0] == 0*) GOTO 0x07F3
  3: 0x07E7 [0x1D] PRINT_EVENT_MESSAGE(message_id=6691*)
    → "Abracadabra!"
  4: 0x07EA [0x23] WAIT_FOR_DIALOG_INTERACTION
  5: 0x07EB [0x03] Work_Zone[1] = 60*
  6: 0x07F0 [0x01] GOTO 0x0847
  7: 0x07F3 [0x02] IF !(Work_Zone[0] == 1*) GOTO 0x0803
  8: 0x07FB [0x03] Work_Zone[1] = 61*
  9: 0x0800 [0x01] GOTO 0x0847
 10: 0x0803 [0x02] IF !(Work_Zone[0] == 2*) GOTO 0x0813
 11: 0x080B [0x03] Work_Zone[1] = 62*
 12: 0x0810 [0x01] GOTO 0x0847
 13: 0x0813 [0x02] IF !(Work_Zone[0] == 3*) GOTO 0x0823
 14: 0x081B [0x03] Work_Zone[1] = 63*
 15: 0x0820 [0x01] GOTO 0x0847
 16: 0x0823 [0x02] IF !(Work_Zone[0] == 4*) GOTO 0x0833
 17: 0x082B [0x03] Work_Zone[1] = 64*
 18: 0x0830 [0x01] GOTO 0x0847
 19: 0x0833 [0x02] IF !(Work_Zone[0] == 5*) GOTO 0x0847
 20: 0x083B [0x1D] PRINT_EVENT_MESSAGE(message_id=6692*)
    → "Oh no! Your Adventurers' certificate vanished!"
 21: 0x083E [0x23] WAIT_FOR_DIALOG_INTERACTION
 22: 0x083F [0x03] Work_Zone[1] = 100*
 23: 0x0844 [0x01] GOTO 0x0847

SUBROUTINE_0847:
 24: 0x0847 [0x20] SET_CLI_EVENT_UC_FLAG: Unlock player control
 25: 0x0849 [0x21] END_EVENT
 26: 0x084A [0x00] END_REQSTACK()
```

### Event 65535.13

#### Metadata

| Field        | Value     |
|--------------|-----------|
| Entrypoint   | 0x084B    |
| Data Size    | 132 bytes |
| Instructions | 30        |

```
      00 01 02 03 04 05 06 07  08 09 0A 0B 0C 0D 0E 0F
      -- -- -- -- -- -- -- --  -- -- -- -- -- -- -- --
0840:                                   24 61 80 01 80             $a...
0850: 01 80 25 02 00 10 01 80  00 67 08 1D 29 80 23 03  ..%......g..).#.
0860: 01 10 62 80 01 CB 08 02  00 10 02 80 00 77 08 03  ..b..........w..
0870: 01 10 63 80 01 CB 08 02  00 10 03 80 00 87 08 03  ..c.............
0880: 01 10 64 80 01 CB 08 02  00 10 04 80 00 97 08 03  ..d.............
0890: 01 10 65 80 01 CB 08 02  00 10 06 80 00 A7 08 03  ..e.............
08A0: 01 10 66 80 01 CB 08 02  00 10 08 80 00 B7 08 03  ..f.............
08B0: 01 10 67 80 01 CB 08 02  00 10 0A 80 00 CB 08 1D  ..g.............
08C0: 1D 80 23 03 01 10 09 80  01 CB 08 20 00 21 00     ..#........ .!. 
```

#### Opcodes

```
  0: 0x084B [0x24] CREATE_DIALOG(message_id=6708*, default_option=0*, option_flags=0*)
    → "m302$3t$3$3O%'DiE$3U[$3}$3XH [@OK$3t$3$3O/START$3t$3$3O/$P13VL$3$sA=$3t$3$3O/$2$P16@$3Q$sA=$3t$3$3O/END$P12<c$3t$3$3O"%q$P16Z$/=$3t$3$3O/All reset!]"
  1: 0x0852 [0x25] WAIT_DIALOG_SELECT()
  2: 0x0853 [0x02] IF !(Work_Zone[0] == 0*) GOTO 0x0867
  3: 0x085B [0x1D] PRINT_EVENT_MESSAGE(message_id=6691*)
    → "Abracadabra!"
  4: 0x085E [0x23] WAIT_FOR_DIALOG_INTERACTION
  5: 0x085F [0x03] Work_Zone[1] = 65*
  6: 0x0864 [0x01] GOTO 0x08CB
  7: 0x0867 [0x02] IF !(Work_Zone[0] == 1*) GOTO 0x0877
  8: 0x086F [0x03] Work_Zone[1] = 66*
  9: 0x0874 [0x01] GOTO 0x08CB
 10: 0x0877 [0x02] IF !(Work_Zone[0] == 2*) GOTO 0x0887
 11: 0x087F [0x03] Work_Zone[1] = 67*
 12: 0x0884 [0x01] GOTO 0x08CB
 13: 0x0887 [0x02] IF !(Work_Zone[0] == 3*) GOTO 0x0897
 14: 0x088F [0x03] Work_Zone[1] = 68*
 15: 0x0894 [0x01] GOTO 0x08CB
 16: 0x0897 [0x02] IF !(Work_Zone[0] == 4*) GOTO 0x08A7
 17: 0x089F [0x03] Work_Zone[1] = 69*
 18: 0x08A4 [0x01] GOTO 0x08CB
 19: 0x08A7 [0x02] IF !(Work_Zone[0] == 5*) GOTO 0x08B7
 20: 0x08AF [0x03] Work_Zone[1] = 108*
 21: 0x08B4 [0x01] GOTO 0x08CB
 22: 0x08B7 [0x02] IF !(Work_Zone[0] == 6*) GOTO 0x08CB
 23: 0x08BF [0x1D] PRINT_EVENT_MESSAGE(message_id=6692*)
    → "Oh no! Your Adventurers' certificate vanished!"
 24: 0x08C2 [0x23] WAIT_FOR_DIALOG_INTERACTION
 25: 0x08C3 [0x03] Work_Zone[1] = 100*
 26: 0x08C8 [0x01] GOTO 0x08CB

SUBROUTINE_08CB:
 27: 0x08CB [0x20] SET_CLI_EVENT_UC_FLAG: Unlock player control
 28: 0x08CD [0x21] END_EVENT
 29: 0x08CE [0x00] END_REQSTACK()
```

### Event 65535.14

#### Metadata

| Field        | Value     |
|--------------|-----------|
| Entrypoint   | 0x08CF    |
| Data Size    | 112 bytes |
| Instructions | 25        |

```
      00 01 02 03 04 05 06 07  08 09 0A 0B 0C 0D 0E 0F
      -- -- -- -- -- -- -- --  -- -- -- -- -- -- -- --
08C0:                                               24                 $
08D0: 68 80 01 80 01 80 25 02  00 10 01 80 00 E7 08 03  h.....%.........
08E0: 01 10 69 80 01 3B 09 02  00 10 02 80 00 F7 08 03  ..i..;..........
08F0: 01 10 6A 80 01 3B 09 02  00 10 03 80 00 07 09 03  ..j..;..........
0900: 01 10 6B 80 01 3B 09 02  00 10 04 80 00 17 09 03  ..k..;..........
0910: 01 10 6C 80 01 3B 09 02  00 10 06 80 00 27 09 03  ..l..;.......'..
0920: 01 10 6D 80 01 3B 09 02  00 10 08 80 00 3B 09 1D  ..m..;.......;..
0930: 1D 80 23 03 01 10 09 80  01 3B 09 20 00 21 00     ..#......;. .!. 
```

#### Opcodes

```
  0: 0x08CF [0x24] CREATE_DIALOG(message_id=6709*, default_option=0*, option_flags=0*)
    → "m303$3t$3$3O%'DiE$3U[$3}$3XH [@OK$3t$3$3O"02$3N$3$3A$5"/START$3t$3$3O/$P13VL$3$sA=$3t$3$3O/$3998273$3t$3$3O/END$P12<c$3t$3$3O/All reset!]"
  1: 0x08D6 [0x25] WAIT_DIALOG_SELECT()
  2: 0x08D7 [0x02] IF !(Work_Zone[0] == 0*) GOTO 0x08E7
  3: 0x08DF [0x03] Work_Zone[1] = 70*
  4: 0x08E4 [0x01] GOTO 0x093B
  5: 0x08E7 [0x02] IF !(Work_Zone[0] == 1*) GOTO 0x08F7
  6: 0x08EF [0x03] Work_Zone[1] = 112*
  7: 0x08F4 [0x01] GOTO 0x093B
  8: 0x08F7 [0x02] IF !(Work_Zone[0] == 2*) GOTO 0x0907
  9: 0x08FF [0x03] Work_Zone[1] = 71*
 10: 0x0904 [0x01] GOTO 0x093B
 11: 0x0907 [0x02] IF !(Work_Zone[0] == 3*) GOTO 0x0917
 12: 0x090F [0x03] Work_Zone[1] = 72*
 13: 0x0914 [0x01] GOTO 0x093B
 14: 0x0917 [0x02] IF !(Work_Zone[0] == 4*) GOTO 0x0927
 15: 0x091F [0x03] Work_Zone[1] = 73*
 16: 0x0924 [0x01] GOTO 0x093B
 17: 0x0927 [0x02] IF !(Work_Zone[0] == 5*) GOTO 0x093B
 18: 0x092F [0x1D] PRINT_EVENT_MESSAGE(message_id=6692*)
    → "Oh no! Your Adventurers' certificate vanished!"
 19: 0x0932 [0x23] WAIT_FOR_DIALOG_INTERACTION
 20: 0x0933 [0x03] Work_Zone[1] = 100*
 21: 0x0938 [0x01] GOTO 0x093B

SUBROUTINE_093B:
 22: 0x093B [0x20] SET_CLI_EVENT_UC_FLAG: Unlock player control
 23: 0x093D [0x21] END_EVENT
 24: 0x093E [0x00] END_REQSTACK()
```

### Event 65535.15

#### Metadata

| Field        | Value     |
|--------------|-----------|
| Entrypoint   | 0x093F    |
| Data Size    | 160 bytes |
| Instructions | 34        |

```
      00 01 02 03 04 05 06 07  08 09 0A 0B 0C 0D 0E 0F
      -- -- -- -- -- -- -- --  -- -- -- -- -- -- -- --
0930:                                               24                 $
0940: 6E 80 01 80 01 80 25 02  00 10 01 80 00 57 09 03  n.....%......W..
0950: 01 10 6F 80 01 DB 09 02  00 10 02 80 00 67 09 03  ..o..........g..
0960: 01 10 70 80 01 DB 09 02  00 10 03 80 00 77 09 03  ..p..........w..
0970: 01 10 71 80 01 DB 09 02  00 10 04 80 00 87 09 03  ..q.............
0980: 01 10 72 80 01 DB 09 02  00 10 06 80 00 97 09 03  ..r.............
0990: 01 10 73 80 01 DB 09 02  00 10 08 80 00 A7 09 03  ..s.............
09A0: 01 10 74 80 01 DB 09 02  00 10 0A 80 00 B7 09 03  ..t.............
09B0: 01 10 75 80 01 DB 09 02  00 10 0C 80 00 C7 09 03  ..u.............
09C0: 01 10 76 80 01 DB 09 02  00 10 0D 80 00 DB 09 1D  ..v.............
09D0: 1D 80 23 03 01 10 09 80  01 DB 09 20 00 21 00     ..#........ .!. 
```

#### Opcodes

```
  0: 0x093F [0x24] CREATE_DIALOG(message_id=6710*, default_option=0*, option_flags=0*)
    → "m501$3t$3$3O%'DiE$3U[$3}$3XH [@OK$3t$3$3O/OK$3t$3$3O(MS3-2$6423136ADH")/$P13VL$3$sA=$3t$3$3O/$P13VL$3$sA=/G$P12fA=$3t$3$3O/$3K$7540293/=$3t$3$3O/$3t$3F$3C$3$13sA=$3t$3$3O/END$P12<c$3t$3$3O/11E3-2p$s/=gci$2$P13!%pj/All reset!]"
  1: 0x0946 [0x25] WAIT_DIALOG_SELECT()
  2: 0x0947 [0x02] IF !(Work_Zone[0] == 0*) GOTO 0x0957
  3: 0x094F [0x03] Work_Zone[1] = 74*
  4: 0x0954 [0x01] GOTO 0x09DB
  5: 0x0957 [0x02] IF !(Work_Zone[0] == 1*) GOTO 0x0967
  6: 0x095F [0x03] Work_Zone[1] = 113*
  7: 0x0964 [0x01] GOTO 0x09DB
  8: 0x0967 [0x02] IF !(Work_Zone[0] == 2*) GOTO 0x0977
  9: 0x096F [0x03] Work_Zone[1] = 75*
 10: 0x0974 [0x01] GOTO 0x09DB
 11: 0x0977 [0x02] IF !(Work_Zone[0] == 3*) GOTO 0x0987
 12: 0x097F [0x03] Work_Zone[1] = 107*
 13: 0x0984 [0x01] GOTO 0x09DB
 14: 0x0987 [0x02] IF !(Work_Zone[0] == 4*) GOTO 0x0997
 15: 0x098F [0x03] Work_Zone[1] = 111*
 16: 0x0994 [0x01] GOTO 0x09DB
 17: 0x0997 [0x02] IF !(Work_Zone[0] == 5*) GOTO 0x09A7
 18: 0x099F [0x03] Work_Zone[1] = 76*
 19: 0x09A4 [0x01] GOTO 0x09DB
 20: 0x09A7 [0x02] IF !(Work_Zone[0] == 6*) GOTO 0x09B7
 21: 0x09AF [0x03] Work_Zone[1] = 77*
 22: 0x09B4 [0x01] GOTO 0x09DB
 23: 0x09B7 [0x02] IF !(Work_Zone[0] == 7*) GOTO 0x09C7
 24: 0x09BF [0x03] Work_Zone[1] = 114*
 25: 0x09C4 [0x01] GOTO 0x09DB
 26: 0x09C7 [0x02] IF !(Work_Zone[0] == 8*) GOTO 0x09DB
 27: 0x09CF [0x1D] PRINT_EVENT_MESSAGE(message_id=6692*)
    → "Oh no! Your Adventurers' certificate vanished!"
 28: 0x09D2 [0x23] WAIT_FOR_DIALOG_INTERACTION
 29: 0x09D3 [0x03] Work_Zone[1] = 100*
 30: 0x09D8 [0x01] GOTO 0x09DB

SUBROUTINE_09DB:
 31: 0x09DB [0x20] SET_CLI_EVENT_UC_FLAG: Unlock player control
 32: 0x09DD [0x21] END_EVENT
 33: 0x09DE [0x00] END_REQSTACK()
```

### Event 65535.16

#### Metadata

| Field        | Value     |
|--------------|-----------|
| Entrypoint   | 0x09DF    |
| Data Size    | 116 bytes |
| Instructions | 27        |

```
      00 01 02 03 04 05 06 07  08 09 0A 0B 0C 0D 0E 0F
      -- -- -- -- -- -- -- --  -- -- -- -- -- -- -- --
09D0:                                               24                 $
09E0: 77 80 01 80 01 80 25 02  00 10 01 80 00 FB 09 1D  w.....%.........
09F0: 29 80 23 03 01 10 78 80  01 4F 0A 02 00 10 02 80  ).#...x..O......
0A00: 00 0B 0A 03 01 10 79 80  01 4F 0A 02 00 10 03 80  ......y..O......
0A10: 00 1B 0A 03 01 10 7A 80  01 4F 0A 02 00 10 04 80  ......z..O......
0A20: 00 2B 0A 03 01 10 7B 80  01 4F 0A 02 00 10 06 80  .+....{..O......
0A30: 00 3B 0A 03 01 10 7C 80  01 4F 0A 02 00 10 08 80  .;....|..O......
0A40: 00 4F 0A 1D 1D 80 23 03  01 10 09 80 01 4F 0A 20  .O....#......O. 
0A50: 00 21 00                                          .!.             
```

#### Opcodes

```
  0: 0x09DF [0x24] CREATE_DIALOG(message_id=6711*, default_option=0*, option_flags=0*)
    → "m502$3t$3$3O%'DiE$3U[$3}$3XH [@OK$3t$3$3O/START/$P13VL$3$sA=$3t$3$3O/$3Y$3$3@$3998273$3t$3$3O/END$P12<c$3t$3$3O/All reset!]"
  1: 0x09E6 [0x25] WAIT_DIALOG_SELECT()
  2: 0x09E7 [0x02] IF !(Work_Zone[0] == 0*) GOTO 0x09FB
  3: 0x09EF [0x1D] PRINT_EVENT_MESSAGE(message_id=6691*)
    → "Abracadabra!"
  4: 0x09F2 [0x23] WAIT_FOR_DIALOG_INTERACTION
  5: 0x09F3 [0x03] Work_Zone[1] = 78*
  6: 0x09F8 [0x01] GOTO 0x0A4F
  7: 0x09FB [0x02] IF !(Work_Zone[0] == 1*) GOTO 0x0A0B
  8: 0x0A03 [0x03] Work_Zone[1] = 79*
  9: 0x0A08 [0x01] GOTO 0x0A4F
 10: 0x0A0B [0x02] IF !(Work_Zone[0] == 2*) GOTO 0x0A1B
 11: 0x0A13 [0x03] Work_Zone[1] = 80*
 12: 0x0A18 [0x01] GOTO 0x0A4F
 13: 0x0A1B [0x02] IF !(Work_Zone[0] == 3*) GOTO 0x0A2B
 14: 0x0A23 [0x03] Work_Zone[1] = 81*
 15: 0x0A28 [0x01] GOTO 0x0A4F
 16: 0x0A2B [0x02] IF !(Work_Zone[0] == 4*) GOTO 0x0A3B
 17: 0x0A33 [0x03] Work_Zone[1] = 82*
 18: 0x0A38 [0x01] GOTO 0x0A4F
 19: 0x0A3B [0x02] IF !(Work_Zone[0] == 5*) GOTO 0x0A4F
 20: 0x0A43 [0x1D] PRINT_EVENT_MESSAGE(message_id=6692*)
    → "Oh no! Your Adventurers' certificate vanished!"
 21: 0x0A46 [0x23] WAIT_FOR_DIALOG_INTERACTION
 22: 0x0A47 [0x03] Work_Zone[1] = 100*
 23: 0x0A4C [0x01] GOTO 0x0A4F

SUBROUTINE_0A4F:
 24: 0x0A4F [0x20] SET_CLI_EVENT_UC_FLAG: Unlock player control
 25: 0x0A51 [0x21] END_EVENT
 26: 0x0A52 [0x00] END_REQSTACK()
```

### Event 65535.17

#### Metadata

| Field        | Value     |
|--------------|-----------|
| Entrypoint   | 0x0A53    |
| Data Size    | 116 bytes |
| Instructions | 27        |

```
      00 01 02 03 04 05 06 07  08 09 0A 0B 0C 0D 0E 0F
      -- -- -- -- -- -- -- --  -- -- -- -- -- -- -- --
0A50:          24 7D 80 01 80  01 80 25 02 00 10 01 80     $}.....%.....
0A60: 00 6F 0A 1D 29 80 23 03  01 10 7E 80 01 C3 0A 02  .o..).#...~.....
0A70: 00 10 02 80 00 7F 0A 03  01 10 7F 80 01 C3 0A 02  ................
0A80: 00 10 03 80 00 8F 0A 03  01 10 80 80 01 C3 0A 02  ................
0A90: 00 10 04 80 00 9F 0A 03  01 10 81 80 01 C3 0A 02  ................
0AA0: 00 10 06 80 00 AF 0A 03  01 10 82 80 01 C3 0A 02  ................
0AB0: 00 10 08 80 00 C3 0A 1D  1D 80 23 03 01 10 09 80  ..........#.....
0AC0: 01 C3 0A 20 00 21 00                              ... .!.         
```

#### Opcodes

```
  0: 0x0A53 [0x24] CREATE_DIALOG(message_id=6705*, default_option=0*, option_flags=0*)
    → "m203_1A(1%q$P16Z)$3t$3$3O%'DiE$3U[$3}$3XH [@OK$3t$3$3O/$3T$3$3h$3$3A%L$22$Y$sA=$3t$3$3O"$7L$2p$hI$P13|j=>//$3M$3f$3A$3Xlv2E$2$P16@$2p$P14[_=>//END$P12<c$3t$3$3O/All reset!]"
  1: 0x0A5A [0x25] WAIT_DIALOG_SELECT()
  2: 0x0A5B [0x02] IF !(Work_Zone[0] == 0*) GOTO 0x0A6F
  3: 0x0A63 [0x1D] PRINT_EVENT_MESSAGE(message_id=6691*)
    → "Abracadabra!"
  4: 0x0A66 [0x23] WAIT_FOR_DIALOG_INTERACTION
  5: 0x0A67 [0x03] Work_Zone[1] = 83*
  6: 0x0A6C [0x01] GOTO 0x0AC3
  7: 0x0A6F [0x02] IF !(Work_Zone[0] == 1*) GOTO 0x0A7F
  8: 0x0A77 [0x03] Work_Zone[1] = 84*
  9: 0x0A7C [0x01] GOTO 0x0AC3
 10: 0x0A7F [0x02] IF !(Work_Zone[0] == 2*) GOTO 0x0A8F
 11: 0x0A87 [0x03] Work_Zone[1] = 85*
 12: 0x0A8C [0x01] GOTO 0x0AC3
 13: 0x0A8F [0x02] IF !(Work_Zone[0] == 3*) GOTO 0x0A9F
 14: 0x0A97 [0x03] Work_Zone[1] = 86*
 15: 0x0A9C [0x01] GOTO 0x0AC3
 16: 0x0A9F [0x02] IF !(Work_Zone[0] == 4*) GOTO 0x0AAF
 17: 0x0AA7 [0x03] Work_Zone[1] = 87*
 18: 0x0AAC [0x01] GOTO 0x0AC3
 19: 0x0AAF [0x02] IF !(Work_Zone[0] == 5*) GOTO 0x0AC3
 20: 0x0AB7 [0x1D] PRINT_EVENT_MESSAGE(message_id=6692*)
    → "Oh no! Your Adventurers' certificate vanished!"
 21: 0x0ABA [0x23] WAIT_FOR_DIALOG_INTERACTION
 22: 0x0ABB [0x03] Work_Zone[1] = 100*
 23: 0x0AC0 [0x01] GOTO 0x0AC3

SUBROUTINE_0AC3:
 24: 0x0AC3 [0x20] SET_CLI_EVENT_UC_FLAG: Unlock player control
 25: 0x0AC5 [0x21] END_EVENT
 26: 0x0AC6 [0x00] END_REQSTACK()
```

### Event 65535.18

#### Metadata

| Field        | Value     |
|--------------|-----------|
| Entrypoint   | 0x0AC7    |
| Data Size    | 116 bytes |
| Instructions | 27        |

```
      00 01 02 03 04 05 06 07  08 09 0A 0B 0C 0D 0E 0F
      -- -- -- -- -- -- -- --  -- -- -- -- -- -- -- --
0AC0:                      24  83 80 01 80 01 80 25 02         $......%.
0AD0: 00 10 01 80 00 E3 0A 1D  29 80 23 03 01 10 84 80  ........).#.....
0AE0: 01 37 0B 02 00 10 02 80  00 F3 0A 03 01 10 85 80  .7..............
0AF0: 01 37 0B 02 00 10 03 80  00 03 0B 03 01 10 86 80  .7..............
0B00: 01 37 0B 02 00 10 04 80  00 13 0B 03 01 10 87 80  .7..............
0B10: 01 37 0B 02 00 10 06 80  00 23 0B 03 01 10 88 80  .7.......#......
0B20: 01 37 0B 02 00 10 08 80  00 37 0B 1D 1D 80 23 03  .7.......7....#.
0B30: 01 10 09 80 01 37 0B 20  00 21 00                 .....7. .!.     
```

#### Opcodes

```
  0: 0x0AC7 [0x24] CREATE_DIALOG(message_id=6706*, default_option=0*, option_flags=0*)
    → "m203_2A(2%q$P16Z)$3t$3$3O%'DiE$3U[$3}$3XH [@OK$3t$3$3O/$3T$3$3h$3$3A%L$22$Y$sA=$3t$3$3O/$P13VL$3$sA=$3t$3$3O/$3M$3f$3A$3Xlv3$sA=$3t$3$3O/END$P12<c$3t$3$3O/All reset!]"
  1: 0x0ACE [0x25] WAIT_DIALOG_SELECT()
  2: 0x0ACF [0x02] IF !(Work_Zone[0] == 0*) GOTO 0x0AE3
  3: 0x0AD7 [0x1D] PRINT_EVENT_MESSAGE(message_id=6691*)
    → "Abracadabra!"
  4: 0x0ADA [0x23] WAIT_FOR_DIALOG_INTERACTION
  5: 0x0ADB [0x03] Work_Zone[1] = 88*
  6: 0x0AE0 [0x01] GOTO 0x0B37
  7: 0x0AE3 [0x02] IF !(Work_Zone[0] == 1*) GOTO 0x0AF3
  8: 0x0AEB [0x03] Work_Zone[1] = 89*
  9: 0x0AF0 [0x01] GOTO 0x0B37
 10: 0x0AF3 [0x02] IF !(Work_Zone[0] == 2*) GOTO 0x0B03
 11: 0x0AFB [0x03] Work_Zone[1] = 90*
 12: 0x0B00 [0x01] GOTO 0x0B37
 13: 0x0B03 [0x02] IF !(Work_Zone[0] == 3*) GOTO 0x0B13
 14: 0x0B0B [0x03] Work_Zone[1] = 91*
 15: 0x0B10 [0x01] GOTO 0x0B37
 16: 0x0B13 [0x02] IF !(Work_Zone[0] == 4*) GOTO 0x0B23
 17: 0x0B1B [0x03] Work_Zone[1] = 92*
 18: 0x0B20 [0x01] GOTO 0x0B37
 19: 0x0B23 [0x02] IF !(Work_Zone[0] == 5*) GOTO 0x0B37
 20: 0x0B2B [0x1D] PRINT_EVENT_MESSAGE(message_id=6692*)
    → "Oh no! Your Adventurers' certificate vanished!"
 21: 0x0B2E [0x23] WAIT_FOR_DIALOG_INTERACTION
 22: 0x0B2F [0x03] Work_Zone[1] = 100*
 23: 0x0B34 [0x01] GOTO 0x0B37

SUBROUTINE_0B37:
 24: 0x0B37 [0x20] SET_CLI_EVENT_UC_FLAG: Unlock player control
 25: 0x0B39 [0x21] END_EVENT
 26: 0x0B3A [0x00] END_REQSTACK()
```

### Event 65535.19

#### Metadata

| Field        | Value    |
|--------------|----------|
| Entrypoint   | 0x0B3B   |
| Data Size    | 44 bytes |
| Instructions | 11       |

```
      00 01 02 03 04 05 06 07  08 09 0A 0B 0C 0D 0E 0F
      -- -- -- -- -- -- -- --  -- -- -- -- -- -- -- --
0B30:                                   24 89 80 01 80             $....
0B40: 01 80 25 02 00 10 01 80  00 53 0B 03 01 10 8A 80  ..%......S......
0B50: 01 63 0B 02 00 10 02 80  00 63 0B 03 01 10 8B 80  .c.......c......
0B60: 01 63 0B 20 00 21 00                              .c. .!.         
```

#### Opcodes

```
  0: 0x0B3B [0x24] CREATE_DIALOG(message_id=6702*, default_option=0*, option_flags=0*)
    → "@m203_609$3t$3$3O%'DiE$3U[$3}$3XH [@OK$3t$3$3O/$P15P$P15{5)$3N$3$3A$5"]"
  1: 0x0B42 [0x25] WAIT_DIALOG_SELECT()
  2: 0x0B43 [0x02] IF !(Work_Zone[0] == 0*) GOTO 0x0B53
  3: 0x0B4B [0x03] Work_Zone[1] = 93*
  4: 0x0B50 [0x01] GOTO 0x0B63
  5: 0x0B53 [0x02] IF !(Work_Zone[0] == 1*) GOTO 0x0B63
  6: 0x0B5B [0x03] Work_Zone[1] = 94*
  7: 0x0B60 [0x01] GOTO 0x0B63

SUBROUTINE_0B63:
  8: 0x0B63 [0x20] SET_CLI_EVENT_UC_FLAG: Unlock player control
  9: 0x0B65 [0x21] END_EVENT
 10: 0x0B66 [0x00] END_REQSTACK()
```

### Event 367

#### Metadata

| Field        | Value      |
|--------------|------------|
| Entrypoint   | 0x0B67     |
| Data Size    | 2059 bytes |
| Instructions | 279        |

```
      00 01 02 03 04 05 06 07  08 09 0A 0B 0C 0D 0E 0F
      -- -- -- -- -- -- -- --  -- -- -- -- -- -- -- --
0B60:                      42  46 01 69 01 08 80 5C 00         BF.i...\.
0B70: 8C 80 5C 01 8C 80 37 8D  80 8E 80 8F 80 90 80 34  ..\...7........4
0B80: 91 80 77 01 80 01 80 1C  1F 80 45 92 80 F0 FF FF  ..w.......E.....
0B90: 7F F0 FF FF 7F 73 30 30  31 01 80 1C 39 80 45 93  .....s001...9.E.
0BA0: 80 F8 FF FF 7F F8 FF FF  7F 66 64 69 32 01 80 1C  .........fdi2...
0BB0: 7A 80 1C 69 80 67 7A 80  7A 80 48 94 80 23 45 93  z..i.gz.z.H..#E.
0BC0: 80 F8 FF FF 7F F8 FF FF  7F 66 64 6F 31 01 80 55  .........fdo1..U
0BD0: 92 80 F0 FF FF 7F F0 FF  FF 7F 73 30 30 31 45 92  ..........s001E.
0BE0: 80 F0 FF FF 7F F0 FF FF  7F 73 30 30 32 01 80 1C  .........s002...
0BF0: 02 80 45 93 80 F8 FF FF  7F F8 FF FF 7F 66 64 69  ..E..........fdi
0C00: 31 01 80 67 7A 80 95 80  48 96 80 23 1C 39 80 67  1..gz...H..#.9.g
0C10: 86 80 95 80 48 97 80 23  1C 15 80 45 93 80 F8 FF  ....H..#...E....
0C20: FF 7F F8 FF FF 7F 66 64  6F 31 01 80 55 92 80 F0  ......fdo1..U...
0C30: FF FF 7F F0 FF FF 7F 73  30 30 32 1C 5C 80 45 92  .......s002.\.E.
0C40: 80 F0 FF FF 7F F0 FF FF  7F 73 30 30 30 01 80 45  .........s000..E
0C50: 93 80 F8 FF FF 7F F8 FF  FF 7F 66 64 69 31 01 80  ..........fdi1..
0C60: 67 98 80 95 80 48 99 80  23 1C 39 80 67 86 80 95  g....H..#.9.g...
0C70: 80 48 9A 80 23 1C 39 80  45 93 80 F8 FF FF 7F F8  .H..#.9.E.......
0C80: FF FF 7F 66 64 6F 31 01  80 55 92 80 F0 FF FF 7F  ...fdo1..U......
0C90: F0 FF FF 7F 73 30 30 30  1C 5C 80 45 92 80 F0 FF  ....s000.\.E....
0CA0: FF 7F F0 FF FF 7F 73 30  30 35 01 80 45 93 80 F8  ......s005..E...
0CB0: FF FF 7F F8 FF FF 7F 66  64 69 31 01 80 67 09 80  .......fdi1..g..
0CC0: 95 80 1C 39 80 67 4E 80  95 80 48 9B 80 23 1C 39  ...9.gN...H..#.9
0CD0: 80 67 9C 80 95 80 48 9D  80 23 1C 39 80 45 93 80  .g....H..#.9.E..
0CE0: F0 FF FF 7F F0 FF FF 7F  66 64 6F 32 01 80 55 93  ........fdo2..U.
0CF0: 80 F0 FF FF 7F F0 FF FF  7F 66 64 6F 32 55 92 80  .........fdo2U..
0D00: F0 FF FF 7F F0 FF FF 7F  73 30 30 35 45 93 80 F0  ........s005E...
0D10: FF FF 7F F0 FF FF 7F 66  61 6F 31 01 80 1C 5C 80  .......fao1...\.
0D20: 67 86 80 9E 80 48 9F 80  45 93 80 F0 FF FF 7F F0  g....H..E.......
0D30: FF FF 7F 66 61 69 31 01  80 1C 9E 80 45 93 80 F0  ...fai1.....E...
0D40: FF FF 7F F0 FF FF 7F 66  61 6F 31 01 80 1C 98 80  .......fao1.....
0D50: 23 67 4E 80 9E 80 48 A0  80 45 93 80 F0 FF FF 7F  #gN...H..E......
0D60: F0 FF FF 7F 66 61 69 31  01 80 1C 9E 80 45 93 80  ....fai1.....E..
0D70: F0 FF FF 7F F0 FF FF 7F  66 61 6F 31 01 80 1C 98  ........fao1....
0D80: 80 23 68 69 00 08 80 45  92 80 F0 FF FF 7F F0 FF  .#hi...E........
0D90: FF 7F 73 30 30 33 01 80  45 93 80 F0 FF FF 7F F0  ..s003..E.......
0DA0: FF FF 7F 66 64 69 32 01  80 55 93 80 F0 FF FF 7F  ...fdi2..U......
0DB0: F0 FF FF 7F 66 64 69 32  78 35 A1 80 4E 00 F0 FF  ....fdi2x5..N...
0DC0: FF 7F 4E 00 0F 10 0F 01  79 00 0F 10 0F 01 F0 FF  ..N.....y.......
0DD0: FF 7F 80 F0 FF FF 7F 77  18 80 01 80 29 08 F0 FF  .......w....)...
0DE0: FF 7F 07 45 A2 80 F0 FF  FF 7F F0 FF FF 7F 73 30  ...E..........s0
0DF0: 31 33 01 80 1C 09 80 4E  00 81 10 0F 01 4E 00 82  13.....N.....N..
0E00: 10 0F 01 4E 00 83 10 0F  01 4E 00 84 10 0F 01 4E  ...N.....N.....N
0E10: 00 AB 10 0F 01 45 A2 80  F0 FF FF 7F F0 FF FF 7F  .....E..........
0E20: 73 30 30 33 01 80 27 0B  F0 FF FF 7F 2A 45 93 80  s003..'.....*E..
0E30: F0 FF FF 7F F0 FF FF 7F  66 61 69 31 01 80 55 A2  ........fai1..U.
0E40: 80 F0 FF FF 7F F0 FF FF  7F 73 30 30 33 45 A2 80  .........s003E..
0E50: F0 FF FF 7F F0 FF FF 7F  73 30 30 30 01 80 1C 50  ........s000...P
0E60: 80 2A 0B F0 FF FF 7F 4B  F0 FF FF 7F A3 80 1C 50  .*.....K.......P
0E70: 80 52 A2 80 F0 FF FF 7F  F0 FF FF 7F 73 30 30 30  .R..........s000
0E80: 45 A2 80 F0 FF FF 7F F0  FF FF 7F 73 30 30 31 01  E..........s001.
0E90: 80 4B F0 FF FF 7F A4 80  1C 5C 80 79 00 F0 FF FF  .K.......\.y....
0EA0: 7F 0F 10 0F 01 1C 5C 80  55 A2 80 F0 FF FF 7F F0  ......\.U.......
0EB0: FF FF 7F 73 30 30 31 4A  0F 10 0F 01 F0 FF FF 7F  ...s001J........
0EC0: 6F 76 0F 10 0F 01 1C 5C  80 29 0B 0F 10 0F 01 20  ov.....\.)..... 
0ED0: 45 A2 80 F0 FF FF 7F F0  FF FF 7F 73 30 30 32 01  E..........s002.
0EE0: 80 27 0B 0F 10 0F 01 1B  2B 0F 10 0F 01 A5 80 23  .'......+......#
0EF0: 2A 0B 0F 10 0F 01 29 08  0F 10 0F 01 01 29 0B 0F  *.....)......)..
0F00: 10 0F 01 21 52 A2 80 F0  FF FF 7F F0 FF FF 7F 73  ...!R..........s
0F10: 30 30 32 24 A6 80 01 80  01 80 25 02 00 10 01 80  002$......%.....
0F20: 00 2B 0F 03 01 00 02 80  01 3B 0F 02 00 10 02 80  .+.......;......
0F30: 00 3B 0F 03 01 00 01 80  01 3B 0F 45 A2 80 F0 FF  .;.......;.E....
0F40: FF 7F F0 FF FF 7F 73 30  31 33 01 80 29 08 0F 10  ......s013..)...
0F50: 0F 01 03 02 01 00 02 80  00 65 0F 29 0B 0F 10 0F  .........e.)....
0F60: 01 22 01 71 0F 29 0B 0F  10 0F 01 23 03 01 00 0D  .".q.).....#....
0F70: 80 29 08 0F 10 0F 01 04  29 08 0F 10 0F 01 05 29  .)......)......)
0F80: 0B 0F 10 0F 01 24 24 A7  80 01 80 01 00 25 02 00  .....$$......%..
0F90: 10 01 80 00 A5 0F 03 01  10 01 80 29 0D 0B 10 0F  ...........)....
0FA0: 01 16 01 EA 0F 02 00 10  02 80 00 BC 0F 03 01 10  ................
0FB0: 02 80 29 0D 0B 10 0F 01  17 01 EA 0F 02 00 10 03  ..).............
0FC0: 80 00 D3 0F 03 01 10 03  80 29 0D 0B 10 0F 01 18  .........)......
0FD0: 01 EA 0F 02 00 10 04 80  00 EA 0F 29 0D 0B 10 0F  ...........)....
0FE0: 01 1D 03 01 10 04 80 01  EA 0F 4A F0 FF FF 7F 0F  ..........J.....
0FF0: 10 0F 01 02 09 10 0D 80  00 0F 10 45 A2 80 F0 FF  ...........E....
1000: FF 7F F0 FF FF 7F 73 30  38 30 01 80 01 20 10 45  ......s080... .E
1010: A2 80 F0 FF FF 7F F0 FF  FF 7F 73 30 36 37 01 80  ..........s067..
1020: 29 08 0F 10 0F 01 05 29  0B 0F 10 0F 01 32 24 A8  )......).....2$.
1030: 80 01 80 01 80 25 02 00  10 01 80 00 7C 10 29 08  .....%......|.).
1040: 0F 10 0F 01 07 29 08 0F  10 0F 01 08 45 A2 80 F0  .....)......E...
1050: FF FF 7F F0 FF FF 7F 73  30 31 39 01 80 27 0B 0F  .......s019..'..
1060: 10 0F 01 1C 2B 0F 10 0F  01 A9 80 23 2A 0B 0F 10  ....+......#*...
1070: 0F 01 29 0B 0F 10 0F 01  33 01 AA 10 02 00 10 02  ..).....3.......
1080: 80 00 AA 10 29 08 0F 10  0F 01 07 29 08 0F 10 0F  ....)......)....
1090: 01 08 27 0B 0F 10 0F 01  1C 2B 0F 10 0F 01 AA 80  ..'......+......
10A0: 23 2A 0B 0F 10 0F 01 01  AA 10 5B AB 80 F8 FF FF  #*........[.....
10B0: 7F F8 FF FF 7F 79 6B 6F  31 29 0B 0C 10 0F 01 0D  .....yko1)......
10C0: 45 A2 80 F0 FF FF 7F F0  FF FF 7F 73 30 30 34 01  E..........s004.
10D0: 80 53 F8 FF FF 7F F8 FF  FF 7F 79 6B 6F 31 29 08  .S........yko1).
10E0: 0F 10 0F 01 09 27 0A 0C  10 0F 01 09 27 0A 0D 10  .....'......'...
10F0: 0F 01 0B 27 0A 0E 10 0F  01 04 4A 0F 10 0F 01 0C  ...'......J.....
1100: 10 0F 01 6F 76 0F 10 0F  01 1C 39 80 4A F0 FF FF  ...ov.....9.J...
1110: 7F 0C 10 0F 01 1C 50 80  4A F0 FF FF 7F 0C 10 0F  ......P.J.......
1120: 01 2A 0A 0C 10 0F 01 2A  0A 0D 10 0F 01 2A 0A 0E  .*.....*.....*..
1130: 10 0F 01 4A F0 FF FF 7F  0C 10 0F 01 29 08 0F 10  ...J........)...
1140: 0F 01 0A 52 A2 80 F0 FF  FF 7F F0 FF FF 7F 73 30  ...R..........s0
1150: 30 34 45 A2 80 F0 FF FF  7F F0 FF FF 7F 73 30 32  04E..........s02
1160: 32 01 80 29 0B 0C 10 0F  01 0E 45 A2 80 F0 FF FF  2..)......E.....
1170: 7F F0 FF FF 7F 73 30 32  30 01 80 29 08 0F 10 0F  .....s020..)....
1180: 01 0B 29 0B 0F 10 0F 01  34 29 08 0F 10 0F 01 0C  ..).....4)......
1190: 02 09 10 0D 80 00 AC 11  45 A2 80 F0 FF FF 7F F0  ........E.......
11A0: FF FF 7F 73 30 38 30 01  80 01 BD 11 45 A2 80 F0  ...s080.....E...
11B0: FF FF 7F F0 FF FF 7F 73  30 36 37 01 80 4A 0F 10  .......s067..J..
11C0: 0F 01 F0 FF FF 7F 6F 76  0F 10 0F 01 4A F0 FF FF  ......ov....J...
11D0: 7F 0F 10 0F 01 1C 39 80  29 08 0F 10 0F 01 01 29  ......9.)......)
11E0: 0B 0F 10 0F 01 35 29 08  0F 10 0F 01 02 29 08 0F  .....5)......)..
11F0: 10 0F 01 03 29 08 0F 10  0F 01 04 52 A2 80 F0 FF  ....)......R....
1200: FF 7F F0 FF FF 7F 73 30  30 33 27 0B 0F 10 0F 01  ......s003'.....
1210: 1D 1C 50 80 4A 0D 10 0F  01 0C 10 0F 01 6F 76 0D  ..P.J........ov.
1220: 10 0F 01 45 A2 80 F0 FF  FF 7F F0 FF FF 7F 73 30  ...E..........s0
1230: 32 33 01 80 29 0B 0C 10  0F 01 0F 27 0B 0C 10 0F  23..)......'....
1240: 01 0A 27 0B 0E 10 0F 01  05 27 0B 0D 10 0F 01 0C  ..'......'......
1250: 4A 0D 10 0F 01 0C 10 0F  01 6F 76 0D 10 0F 01 2B  J........ov....+
1260: 0E 10 0F 01 AC 80 23 52  A2 80 F0 FF FF 7F F0 FF  ......#R........
1270: FF 7F 73 30 32 33 45 A2  80 F0 FF FF 7F F0 FF FF  ..s023E.........
1280: 7F 73 30 32 35 01 80 2A  0B 0D 10 0F 01 4A F0 FF  .s025..*.....J..
1290: FF 7F 0D 10 0F 01 29 0B  0D 10 0F 01 11 45 A2 80  ......)......E..
12A0: F0 FF FF 7F F0 FF FF 7F  73 30 32 34 01 80 79 00  ........s024..y.
12B0: 0D 10 0F 01 F0 FF FF 7F  27 0B 0D 10 0F 01 0D 2B  ........'......+
12C0: 0D 10 0F 01 AD 80 23 2A  0B 0D 10 0F 01 4A F0 FF  ......#*.....J..
12D0: FF 7F 0D 10 0F 01 29 0B  0D 10 0F 01 12 52 A2 80  ......)......R..
12E0: F0 FF FF 7F F0 FF FF 7F  73 30 32 34 45 A2 80 F0  ........s024E...
12F0: FF FF 7F F0 FF FF 7F 73  30 36 36 01 80 79 00 F0  .......s066..y..
1300: FF FF 7F 0D 10 0F 01 7B  0D 10 0F 01 27 0B 0D 10  .......{....'...
1310: 0F 01 0E 1C 50 80 1C 50  80 4A F0 FF FF 7F 0D 10  ....P..P.J......
1320: 0F 01 45 93 80 F0 FF FF  7F F0 FF FF 7F 66 64 6F  ..E..........fdo
1330: 31 01 80 2A 0B 0C 10 0F  01 2A 0B 0E 10 0F 01 2A  1..*.....*.....*
1340: 0B 0D 10 0F 01 55 A2 80  F0 FF FF 7F F0 FF FF 7F  .....U..........
1350: 73 30 36 36 2A 0B 0F 10  0F 01 78 46 00 45 93 80  s066*.....xF.E..
1360: F0 FF FF 7F F0 FF FF 7F  66 64 69 31 01 80 20 00  ........fdi1.. .
1370: 21 00                                             !.              
```

#### Opcodes

```
  0: 0x0B67 [0x42] SET_CLI_EVENT_CANCEL_DATA()
  1: 0x0B68 [0x46] CAMERA_CONTROL: Disable user control
  2: 0x0B6A [0x69] SET_SOUND_VOLUME: Mute Master
  3: 0x0B6E [0x5C] MUSIC_CONTROL: Set Idle (Day) music to song 151*
  4: 0x0B72 [0x5C] MUSIC_CONTROL: Set Idle (Night) music to song 151*
  5: 0x0B76 [0x37] UPDATE_EVENT_POSITION_AND_DIR: x=-190.625*, z=143.043*, y=-2.385*, direction=313.4°*
  6: 0x0B7F [0x34] LOAD_UNLOAD_ZONE(zone_id=239*)
  7: 0x0B82 [0x77] SET_EVENT_TIME_WEATHER(hour=0*, weather=0*)
  8: 0x0B87 [0x1C] WAIT(300* ticks)
  9: 0x0B8A [0x45] LOAD_SCHEDULED_TASK: Load scheduler "s001" with entities [LocalPlayer, LocalPlayer], work=[139*, 0*]
 10: 0x0B9B [0x1C] WAIT(30* ticks)
 11: 0x0B9E [0x45] LOAD_SCHEDULED_TASK: Load scheduler "fdi2" with entities [EventEntity, EventEntity], work=[200*, 0*]
 12: 0x0BAF [0x1C] WAIT(80* ticks)
 13: 0x0BB2 [0x1C] WAIT(70* ticks)
 14: 0x0BB5 [0x67] HIDE_HUD_ELEMENTS(param1=0x807A, param2=0x807A)
 15: 0x0BBA [0x48] [System] [6822*]:
    → "V $3P The Federation of Windurst... An ancient capital nurtured by the boughs of a great tree, blessed by magical waters, and protected by the moon and stars."
 16: 0x0BBD [0x23] WAIT_FOR_DIALOG_INTERACTION
 17: 0x0BBE [0x45] LOAD_SCHEDULED_TASK: Load scheduler "fdo1" with entities [EventEntity, EventEntity], work=[200*, 0*]
 18: 0x0BCF [0x55] WAIT_LOAD_SCHEDULER: Wait for scheduler "s001" with entities [LocalPlayer, LocalPlayer], work=139*
 19: 0x0BDE [0x45] LOAD_SCHEDULED_TASK: Load scheduler "s002" with entities [LocalPlayer, LocalPlayer], work=[139*, 0*]
 20: 0x0BEF [0x1C] WAIT(1* ticks)
 21: 0x0BF2 [0x45] LOAD_SCHEDULED_TASK: Load scheduler "fdi1" with entities [EventEntity, EventEntity], work=[200*, 0*]
 22: 0x0C03 [0x67] HIDE_HUD_ELEMENTS(param1=0x807A, param2=0x8095)
 23: 0x0C08 [0x48] [System] [6823*]:
    → "d $3TThere is a legend in this country. In a time forgotten, a people forced to wander by starvation and cold were led to this land by a wondrous star."
 24: 0x0C0B [0x23] WAIT_FOR_DIALOG_INTERACTION
 25: 0x0C0C [0x1C] WAIT(30* ticks)
 26: 0x0C0F [0x67] HIDE_HUD_ELEMENTS(param1=0x8086, param2=0x8095)
 27: 0x0C14 [0x48] [System] [6824*]:
    → "R $3TWhen that star returned to the heavens, it sent to the earth a spiritual medium, the first Star Sibyl, who could hear its voice. She promised Windurst glory and prosperity."
 28: 0x0C17 [0x23] WAIT_FOR_DIALOG_INTERACTION
 29: 0x0C18 [0x1C] WAIT(15* ticks)
 30: 0x0C1B [0x45] LOAD_SCHEDULED_TASK: Load scheduler "fdo1" with entities [EventEntity, EventEntity], work=[200*, 0*]
 31: 0x0C2C [0x55] WAIT_LOAD_SCHEDULER: Wait for scheduler "s002" with entities [LocalPlayer, LocalPlayer], work=139*
 32: 0x0C3B [0x1C] WAIT(60* ticks)
 33: 0x0C3E [0x45] LOAD_SCHEDULED_TASK: Load scheduler "s000" with entities [LocalPlayer, LocalPlayer], work=[139*, 0*]
 34: 0x0C4F [0x45] LOAD_SCHEDULED_TASK: Load scheduler "fdi1" with entities [EventEntity, EventEntity], work=[200*, 0*]
 35: 0x0C60 [0x67] HIDE_HUD_ELEMENTS(param1=0x8098, param2=0x8095)
 36: 0x0C65 [0x48] [System] [6825*]:
    → "\ $3TWith each passing eon, the people came to excel at magic more and more, giving Windurst far greater wisdom and power."
 37: 0x0C68 [0x23] WAIT_FOR_DIALOG_INTERACTION
 38: 0x0C69 [0x1C] WAIT(30* ticks)
 39: 0x0C6C [0x67] HIDE_HUD_ELEMENTS(param1=0x8086, param2=0x8095)
 40: 0x0C71 [0x48] [System] [6826*]:
    → "^ $3TFive ministries, each specializing in a school of knowledge, became politically influential institutions. This elevated Windurst to become a city of academics."
 41: 0x0C74 [0x23] WAIT_FOR_DIALOG_INTERACTION
 42: 0x0C75 [0x1C] WAIT(30* ticks)
 43: 0x0C78 [0x45] LOAD_SCHEDULED_TASK: Load scheduler "fdo1" with entities [EventEntity, EventEntity], work=[200*, 0*]
 44: 0x0C89 [0x55] WAIT_LOAD_SCHEDULER: Wait for scheduler "s000" with entities [LocalPlayer, LocalPlayer], work=139*
 45: 0x0C98 [0x1C] WAIT(60* ticks)
 46: 0x0C9B [0x45] LOAD_SCHEDULED_TASK: Load scheduler "s005" with entities [LocalPlayer, LocalPlayer], work=[139*, 0*]
 47: 0x0CAC [0x45] LOAD_SCHEDULED_TASK: Load scheduler "fdi1" with entities [EventEntity, EventEntity], work=[200*, 0*]
 48: 0x0CBD [0x67] HIDE_HUD_ELEMENTS(param1=0x8009, param2=0x8095)
 49: 0x0CC2 [0x1C] WAIT(30* ticks)
 50: 0x0CC5 [0x67] HIDE_HUD_ELEMENTS(param1=0x804E, param2=0x8095)
 51: 0x0CCA [0x48] [System] [6827*]:
    → "a $3TIn recent years, new bonds were made with the roaming tribes of Mithra, causing Windurst to become even bigger than before."
 52: 0x0CCD [0x23] WAIT_FOR_DIALOG_INTERACTION
 53: 0x0CCE [0x1C] WAIT(30* ticks)
 54: 0x0CD1 [0x67] HIDE_HUD_ELEMENTS(param1=0x809C, param2=0x8095)
 55: 0x0CD6 [0x48] [System] [6828*]:
    → "W $3TBut the people's wish remains unchanged... Lasting peace... Eternal tranquility... Under the watch of the far-off stars."
 56: 0x0CD9 [0x23] WAIT_FOR_DIALOG_INTERACTION
 57: 0x0CDA [0x1C] WAIT(30* ticks)
 58: 0x0CDD [0x45] LOAD_SCHEDULED_TASK: Load scheduler "fdo2" with entities [LocalPlayer, LocalPlayer], work=[200*, 0*]
 59: 0x0CEE [0x55] WAIT_LOAD_SCHEDULER: Wait for scheduler "fdo2" with entities [LocalPlayer, LocalPlayer], work=200*
 60: 0x0CFD [0x55] WAIT_LOAD_SCHEDULER: Wait for scheduler "s005" with entities [LocalPlayer, LocalPlayer], work=139*
 61: 0x0D0C [0x45] LOAD_SCHEDULED_TASK: Load scheduler "fao1" with entities [LocalPlayer, LocalPlayer], work=[200*, 0*]
 62: 0x0D1D [0x1C] WAIT(60* ticks)
 63: 0x0D20 [0x67] HIDE_HUD_ELEMENTS(param1=0x8086, param2=0x809E)
 64: 0x0D25 [0x48] [System] [6829*]:
    → "$34 And now, a new star of hope has been borne to this earth..."
 65: 0x0D28 [0x45] LOAD_SCHEDULED_TASK: Load scheduler "fai1" with entities [LocalPlayer, LocalPlayer], work=[200*, 0*]
 66: 0x0D39 [0x1C] WAIT(180* ticks)
 67: 0x0D3C [0x45] LOAD_SCHEDULED_TASK: Load scheduler "fao1" with entities [LocalPlayer, LocalPlayer], work=[200*, 0*]
 68: 0x0D4D [0x1C] WAIT(120* ticks)
 69: 0x0D50 [0x23] WAIT_FOR_DIALOG_INTERACTION
 70: 0x0D51 [0x67] HIDE_HUD_ELEMENTS(param1=0x804E, param2=0x809E)
 71: 0x0D56 [0x48] [System] [6830*]:
    → "^ $34 What is about to begin here is an enduring tale, woven by that star..."
 72: 0x0D59 [0x45] LOAD_SCHEDULED_TASK: Load scheduler "fai1" with entities [LocalPlayer, LocalPlayer], work=[200*, 0*]
 73: 0x0D6A [0x1C] WAIT(180* ticks)
 74: 0x0D6D [0x45] LOAD_SCHEDULED_TASK: Load scheduler "fao1" with entities [LocalPlayer, LocalPlayer], work=[200*, 0*]
 75: 0x0D7E [0x1C] WAIT(120* ticks)
 76: 0x0D81 [0x23] WAIT_FOR_DIALOG_INTERACTION
 77: 0x0D82 [0x68] SHOW_HUD_ELEMENTS()
 78: 0x0D83 [0x69] SET_SOUND_VOLUME: Unmute Master
 79: 0x0D87 [0x45] LOAD_SCHEDULED_TASK: Load scheduler "s003" with entities [LocalPlayer, LocalPlayer], work=[139*, 0*]
 80: 0x0D98 [0x45] LOAD_SCHEDULED_TASK: Load scheduler "fdi2" with entities [LocalPlayer, LocalPlayer], work=[200*, 0*]
 81: 0x0DA9 [0x55] WAIT_LOAD_SCHEDULER: Wait for scheduler "fdi2" with entities [LocalPlayer, LocalPlayer], work=200*
 82: 0x0DB8 [0x78] ENABLE_GAME_TIMER_RESET_WEATHER()
 83: 0x0DB9 [0x35] LOAD_ZONE_NO_CLOSE(zone_id=241*)
 84: 0x0DBC [0x4E] SET_ENTITY_HIDE_FLAG: Show LocalPlayer
 85: 0x0DC2 [0x4E] SET_ENTITY_HIDE_FLAG: Show Nanaa Mihgo (ID: 17764367/0x010F100F)
 86: 0x0DC8 [0x79] Nanaa Mihgo (ID: 17764367/0x010F100F) looks at LocalPlayer (Basic look)
 87: 0x0DD2 [0x80] LOAD_WAIT(entity=LocalPlayer)
 88: 0x0DD7 [0x77] SET_EVENT_TIME_WEATHER(hour=17*, weather=0*)
 89: 0x0DDC [0x29] REQ_SET_WAIT(priority=0x08, entity_id=LocalPlayer, tag_num=0x07)
 90: 0x0DE3 [0x45] LOAD_SCHEDULED_TASK: Load scheduler "s013" with entities [LocalPlayer, LocalPlayer], work=[141*, 0*]
 91: 0x0DF4 [0x1C] WAIT(100* ticks)
 92: 0x0DF7 [0x4E] SET_ENTITY_HIDE_FLAG: Show Dhahih (ID: 17764481/0x010F1081)
 93: 0x0DFD [0x4E] SET_ENTITY_HIDE_FLAG: Show Dhakih (ID: 17764482/0x010F1082)
 94: 0x0E03 [0x4E] SET_ENTITY_HIDE_FLAG: Show Dhahah (ID: 17764483/0x010F1083)
 95: 0x0E09 [0x4E] SET_ENTITY_HIDE_FLAG: Show Dhakoh (ID: 17764484/0x010F1084)
 96: 0x0E0F [0x4E] SET_ENTITY_HIDE_FLAG: Show Jack of Spades (ID: 17764523/0x010F10AB)
 97: 0x0E15 [0x45] LOAD_SCHEDULED_TASK: Load scheduler "s003" with entities [LocalPlayer, LocalPlayer], work=[141*, 0*]
 98: 0x0E26 [0x27] REQ_SET(priority=0x0B, entity_id=LocalPlayer, tag_num=0x2A)
 99: 0x0E2D [0x45] LOAD_SCHEDULED_TASK: Load scheduler "fai1" with entities [LocalPlayer, LocalPlayer], work=[200*, 0*]
100: 0x0E3E [0x55] WAIT_LOAD_SCHEDULER: Wait for scheduler "s003" with entities [LocalPlayer, LocalPlayer], work=141*
101: 0x0E4D [0x45] LOAD_SCHEDULED_TASK: Load scheduler "s000" with entities [LocalPlayer, LocalPlayer], work=[141*, 0*]
102: 0x0E5E [0x1C] WAIT(50* ticks)
103: 0x0E61 [0x2A] GET_REQ_LEVEL(level=11, entity_id=LocalPlayer)
104: 0x0E67 [0x4B] UPDATE_ENTITY_YAW(entity=LocalPlayer, yaw=9.4°*)
105: 0x0E6E [0x1C] WAIT(50* ticks)
106: 0x0E71 [0x52] END_LOAD_SCHEDULER: End scheduler "s000" with entities [LocalPlayer, LocalPlayer], work=141*
107: 0x0E80 [0x45] LOAD_SCHEDULED_TASK: Load scheduler "s001" with entities [LocalPlayer, LocalPlayer], work=[141*, 0*]
108: 0x0E91 [0x4B] UPDATE_ENTITY_YAW(entity=LocalPlayer, yaw=10.9°*)
109: 0x0E98 [0x1C] WAIT(60* ticks)
110: 0x0E9B [0x79] LocalPlayer looks at Nanaa Mihgo (ID: 17764367/0x010F100F) (Basic look)
111: 0x0EA5 [0x1C] WAIT(60* ticks)
112: 0x0EA8 [0x55] WAIT_LOAD_SCHEDULER: Wait for scheduler "s001" with entities [LocalPlayer, LocalPlayer], work=141*
113: 0x0EB7 [0x4A] Nanaa Mihgo (ID: 17764367/0x010F100F) looks at LocalPlayer
114: 0x0EC0 [0x6F] WAIT_FRAME_DELAY: Yield until WaitTime reaches zero
115: 0x0EC1 [0x76] CHECK_ENTITY_RENDER_FLAGS: Wait until Nanaa Mihgo (ID: 17764367/0x010F100F) Render.Flags0 and Render.Flags3 conditions are met
116: 0x0EC6 [0x1C] WAIT(60* ticks)
117: 0x0EC9 [0x29] REQ_SET_WAIT(priority=0x0B, entity_id=Nanaa Mihgo (ID: 17764367/0x010F100F), tag_num=0x20)
118: 0x0ED0 [0x45] LOAD_SCHEDULED_TASK: Load scheduler "s002" with entities [LocalPlayer, LocalPlayer], work=[141*, 0*]
119: 0x0EE1 [0x27] REQ_SET(priority=0x0B, entity_id=Nanaa Mihgo (ID: 17764367/0x010F100F), tag_num=0x1B)
120: 0x0EE8 [0x2B] Nanaa Mihgo (ID: 17764367/0x010F100F) [8336*]:
    → "Hmm... You call yourself an adventurrrer? I guess if one stretches her imagination enough, you could almost look like one."
121: 0x0EEF [0x23] WAIT_FOR_DIALOG_INTERACTION
122: 0x0EF0 [0x2A] GET_REQ_LEVEL(level=11, entity_id=Nanaa Mihgo (ID: 17764367/0x010F100F))
123: 0x0EF6 [0x29] REQ_SET_WAIT(priority=0x08, entity_id=Nanaa Mihgo (ID: 17764367/0x010F100F), tag_num=0x01)
124: 0x0EFD [0x29] REQ_SET_WAIT(priority=0x0B, entity_id=Nanaa Mihgo (ID: 17764367/0x010F100F), tag_num=0x21)
125: 0x0F04 [0x52] END_LOAD_SCHEDULER: End scheduler "s002" with entities [LocalPlayer, LocalPlayer], work=141*
126: 0x0F13 [0x24] CREATE_DIALOG(message_id=8338*, default_option=0*, option_flags=0*)
    → "First time in Windurst? [Yes./No.]"
127: 0x0F1A [0x25] WAIT_DIALOG_SELECT()
128: 0x0F1B [0x02] IF !(Work_Zone[0] == 0*) GOTO 0x0F2B
129: 0x0F23 [0x03] ExtData[1]->WorkLocal[1] = 1*
130: 0x0F28 [0x01] GOTO 0x0F3B
131: 0x0F2B [0x02] IF !(Work_Zone[0] == 1*) GOTO 0x0F3B
132: 0x0F33 [0x03] ExtData[1]->WorkLocal[1] = 0*
133: 0x0F38 [0x01] GOTO 0x0F3B

SUBROUTINE_0F3B:
134: 0x0F3B [0x45] LOAD_SCHEDULED_TASK: Load scheduler "s013" with entities [LocalPlayer, LocalPlayer], work=[141*, 0*]
135: 0x0F4C [0x29] REQ_SET_WAIT(priority=0x08, entity_id=Nanaa Mihgo (ID: 17764367/0x010F100F), tag_num=0x03)
136: 0x0F53 [0x02] IF !(ExtData[1]->WorkLocal[1] == 1*) GOTO 0x0F65
137: 0x0F5B [0x29] REQ_SET_WAIT(priority=0x0B, entity_id=Nanaa Mihgo (ID: 17764367/0x010F100F), tag_num=0x22)
138: 0x0F62 [0x01] GOTO 0x0F71
139: 0x0F65 [0x29] REQ_SET_WAIT(priority=0x0B, entity_id=Nanaa Mihgo (ID: 17764367/0x010F100F), tag_num=0x23)
140: 0x0F6C [0x03] ExtData[1]->WorkLocal[1] = 8*

SUBROUTINE_0F71:
141: 0x0F71 [0x29] REQ_SET_WAIT(priority=0x08, entity_id=Nanaa Mihgo (ID: 17764367/0x010F100F), tag_num=0x04)
142: 0x0F78 [0x29] REQ_SET_WAIT(priority=0x08, entity_id=Nanaa Mihgo (ID: 17764367/0x010F100F), tag_num=0x05)
143: 0x0F7F [0x29] REQ_SET_WAIT(priority=0x0B, entity_id=Nanaa Mihgo (ID: 17764367/0x010F100F), tag_num=0x24)
144: 0x0F86 [0x24] CREATE_DIALOG(message_id=8342*, default_option=0*, option_flags=ExtData[1]->WorkLocal[1])
    → "What do you want to do right now? [Head outside and battle./Go shopping./Gather information./Where am I? Who am I?]"
145: 0x0F8D [0x25] WAIT_DIALOG_SELECT()
146: 0x0F8E [0x02] IF !(Work_Zone[0] == 0*) GOTO 0x0FA5
147: 0x0F96 [0x03] Work_Zone[1] = 0*
148: 0x0F9B [0x29] REQ_SET_WAIT(priority=0x0D, entity_id=PRODUCER (ID: 17764363/0x010F100B), tag_num=0x16)
149: 0x0FA2 [0x01] GOTO 0x0FEA
150: 0x0FA5 [0x02] IF !(Work_Zone[0] == 1*) GOTO 0x0FBC
151: 0x0FAD [0x03] Work_Zone[1] = 1*
152: 0x0FB2 [0x29] REQ_SET_WAIT(priority=0x0D, entity_id=PRODUCER (ID: 17764363/0x010F100B), tag_num=0x17)
153: 0x0FB9 [0x01] GOTO 0x0FEA
154: 0x0FBC [0x02] IF !(Work_Zone[0] == 2*) GOTO 0x0FD3
155: 0x0FC4 [0x03] Work_Zone[1] = 2*
156: 0x0FC9 [0x29] REQ_SET_WAIT(priority=0x0D, entity_id=PRODUCER (ID: 17764363/0x010F100B), tag_num=0x18)
157: 0x0FD0 [0x01] GOTO 0x0FEA
158: 0x0FD3 [0x02] IF !(Work_Zone[0] == 3*) GOTO 0x0FEA
159: 0x0FDB [0x29] REQ_SET_WAIT(priority=0x0D, entity_id=PRODUCER (ID: 17764363/0x010F100B), tag_num=0x1D)
160: 0x0FE2 [0x03] Work_Zone[1] = 3*
161: 0x0FE7 [0x01] GOTO 0x0FEA

SUBROUTINE_0FEA:
162: 0x0FEA [0x4A] LocalPlayer looks at Nanaa Mihgo (ID: 17764367/0x010F100F)
163: 0x0FF3 [0x02] IF !(Work_Zone[9] == 8*) GOTO 0x100F
164: 0x0FFB [0x45] LOAD_SCHEDULED_TASK: Load scheduler "s080" with entities [LocalPlayer, LocalPlayer], work=[141*, 0*]
165: 0x100C [0x01] GOTO 0x1020
166: 0x100F [0x45] LOAD_SCHEDULED_TASK: Load scheduler "s067" with entities [LocalPlayer, LocalPlayer], work=[141*, 0*]

SUBROUTINE_1020:
167: 0x1020 [0x29] REQ_SET_WAIT(priority=0x08, entity_id=Nanaa Mihgo (ID: 17764367/0x010F100F), tag_num=0x05)
168: 0x1027 [0x29] REQ_SET_WAIT(priority=0x0B, entity_id=Nanaa Mihgo (ID: 17764367/0x010F100F), tag_num=0x32)
169: 0x102E [0x24] CREATE_DIALOG(message_id=8352*, default_option=0*, option_flags=0*)
    → "Pay the tuition fee? [No way!/Well, er, okay...]"
170: 0x1035 [0x25] WAIT_DIALOG_SELECT()
171: 0x1036 [0x02] IF !(Work_Zone[0] == 0*) GOTO 0x107C
172: 0x103E [0x29] REQ_SET_WAIT(priority=0x08, entity_id=Nanaa Mihgo (ID: 17764367/0x010F100F), tag_num=0x07)
173: 0x1045 [0x29] REQ_SET_WAIT(priority=0x08, entity_id=Nanaa Mihgo (ID: 17764367/0x010F100F), tag_num=0x08)
174: 0x104C [0x45] LOAD_SCHEDULED_TASK: Load scheduler "s019" with entities [LocalPlayer, LocalPlayer], work=[141*, 0*]
175: 0x105D [0x27] REQ_SET(priority=0x0B, entity_id=Nanaa Mihgo (ID: 17764367/0x010F100F), tag_num=0x1C)
176: 0x1064 [0x2B] Nanaa Mihgo (ID: 17764367/0x010F100F) [8353*]:
    → "What!? You won't pay me even a simple compliment, despite my kindly assistance!? Don't you know basic adventurrrer's etiquette?"
177: 0x106B [0x23] WAIT_FOR_DIALOG_INTERACTION
178: 0x106C [0x2A] GET_REQ_LEVEL(level=11, entity_id=Nanaa Mihgo (ID: 17764367/0x010F100F))
179: 0x1072 [0x29] REQ_SET_WAIT(priority=0x0B, entity_id=Nanaa Mihgo (ID: 17764367/0x010F100F), tag_num=0x33)
180: 0x1079 [0x01] GOTO 0x10AA
181: 0x107C [0x02] IF !(Work_Zone[0] == 1*) GOTO 0x10AA
182: 0x1084 [0x29] REQ_SET_WAIT(priority=0x08, entity_id=Nanaa Mihgo (ID: 17764367/0x010F100F), tag_num=0x07)
183: 0x108B [0x29] REQ_SET_WAIT(priority=0x08, entity_id=Nanaa Mihgo (ID: 17764367/0x010F100F), tag_num=0x08)
184: 0x1092 [0x27] REQ_SET(priority=0x0B, entity_id=Nanaa Mihgo (ID: 17764367/0x010F100F), tag_num=0x1C)
185: 0x1099 [0x2B] Nanaa Mihgo (ID: 17764367/0x010F100F) [8355*]:
    → "You catch on quick, kid. I'm beginning to think I could like you."
186: 0x10A0 [0x23] WAIT_FOR_DIALOG_INTERACTION
187: 0x10A1 [0x2A] GET_REQ_LEVEL(level=11, entity_id=Nanaa Mihgo (ID: 17764367/0x010F100F))
188: 0x10A7 [0x01] GOTO 0x10AA

SUBROUTINE_10AA:
189: 0x10AA [0x5B] LOAD_EXT_SCHEDULER: Load scheduler "yko1" with entities [EventEntity, EventEntity], work=400*
190: 0x10B9 [0x29] REQ_SET_WAIT(priority=0x0B, entity_id=Kohlo-Lakolo (ID: 17764364/0x010F100C), tag_num=0x0D)
191: 0x10C0 [0x45] LOAD_SCHEDULED_TASK: Load scheduler "s004" with entities [LocalPlayer, LocalPlayer], work=[141*, 0*]
192: 0x10D1 [0x53] WAIT_SCHEDULER_TASK: Wait for scheduler "yko1" with entities [EventEntity, EventEntity]
193: 0x10DE [0x29] REQ_SET_WAIT(priority=0x08, entity_id=Nanaa Mihgo (ID: 17764367/0x010F100F), tag_num=0x09)
194: 0x10E5 [0x27] REQ_SET(priority=0x0A, entity_id=Kohlo-Lakolo (ID: 17764364/0x010F100C), tag_num=0x09)
195: 0x10EC [0x27] REQ_SET(priority=0x0A, entity_id=Papo-Hopo (ID: 17764365/0x010F100D), tag_num=0x0B)
196: 0x10F3 [0x27] REQ_SET(priority=0x0A, entity_id=Gomada-Vulmada (ID: 17764366/0x010F100E), tag_num=0x04)
197: 0x10FA [0x4A] Nanaa Mihgo (ID: 17764367/0x010F100F) looks at Kohlo-Lakolo (ID: 17764364/0x010F100C)
198: 0x1103 [0x6F] WAIT_FRAME_DELAY: Yield until WaitTime reaches zero
199: 0x1104 [0x76] CHECK_ENTITY_RENDER_FLAGS: Wait until Nanaa Mihgo (ID: 17764367/0x010F100F) Render.Flags0 and Render.Flags3 conditions are met
200: 0x1109 [0x1C] WAIT(30* ticks)
201: 0x110C [0x4A] LocalPlayer looks at Kohlo-Lakolo (ID: 17764364/0x010F100C)
202: 0x1115 [0x1C] WAIT(50* ticks)
203: 0x1118 [0x4A] LocalPlayer looks at Kohlo-Lakolo (ID: 17764364/0x010F100C)
204: 0x1121 [0x2A] GET_REQ_LEVEL(level=10, entity_id=Kohlo-Lakolo (ID: 17764364/0x010F100C))
205: 0x1127 [0x2A] GET_REQ_LEVEL(level=10, entity_id=Papo-Hopo (ID: 17764365/0x010F100D))
206: 0x112D [0x2A] GET_REQ_LEVEL(level=10, entity_id=Gomada-Vulmada (ID: 17764366/0x010F100E))
207: 0x1133 [0x4A] LocalPlayer looks at Kohlo-Lakolo (ID: 17764364/0x010F100C)
208: 0x113C [0x29] REQ_SET_WAIT(priority=0x08, entity_id=Nanaa Mihgo (ID: 17764367/0x010F100F), tag_num=0x0A)
209: 0x1143 [0x52] END_LOAD_SCHEDULER: End scheduler "s004" with entities [LocalPlayer, LocalPlayer], work=141*
210: 0x1152 [0x45] LOAD_SCHEDULED_TASK: Load scheduler "s022" with entities [LocalPlayer, LocalPlayer], work=[141*, 0*]
211: 0x1163 [0x29] REQ_SET_WAIT(priority=0x0B, entity_id=Kohlo-Lakolo (ID: 17764364/0x010F100C), tag_num=0x0E)
212: 0x116A [0x45] LOAD_SCHEDULED_TASK: Load scheduler "s020" with entities [LocalPlayer, LocalPlayer], work=[141*, 0*]
213: 0x117B [0x29] REQ_SET_WAIT(priority=0x08, entity_id=Nanaa Mihgo (ID: 17764367/0x010F100F), tag_num=0x0B)
