# 17764535

## Common Data

| Field            | Value                    |
|------------------|--------------------------|
| Zone             | Windurst Woods (ID: 241) |
| Block Size       | 1900 bytes               |
| Total Events     | 7                        |
| References Count | 56                       |

## List of Events

| Event ID                 | Entrypoint   |   Size |   Instructions |
|--------------------------|--------------|--------|----------------|
| [65535](#event-65535)    | 0x0000       |      1 |              1 |
| [11](#event-11)          | 0x0001       |      1 |              1 |
| [65535.1](#event-655351) | 0x0002       |     43 |              6 |
| [65535.2](#event-655352) | 0x002D       |     33 |              3 |
| [65535.3](#event-655353) | 0x004E       |     33 |              3 |
| [367](#event-367)        | 0x006F       |      1 |              1 |
| [839](#event-839)        | 0x0070       |   1519 |            171 |

## DAT References (imed_data)

|   Index | Hex Value   |   Dec Value |
|---------|-------------|-------------|
|       0 | 0x00C8      |         200 |
|       1 | 0x0000      |           0 |
|       2 | 0x0078      |         120 |
|       3 | 0x001B      |          27 |
|       4 | 0x3B43      |       15171 |
|       5 | 0x3B44      |       15172 |
|       6 | 0x0001      |           1 |
|       7 | 0x00F1      |         241 |
|       8 | 0x001E      |          30 |
|       9 | 0x0009      |           9 |
|      10 | 0x16156     |       90454 |
|      11 | 0xFFFF7FBF  |  4294934463 |
|      12 | 0x3B45      |       15173 |
|      13 | 0x00A0      |         160 |
|      14 | 0x3912      |       14610 |
|      15 | 0xFFFFB8C5  |  4294949061 |
|      16 | 0xFFFF1706  |  4294907654 |
|      17 | 0x06D5      |        1749 |
|      18 | 0x000E      |          14 |
|      19 | 0xFFFFB959  |  4294949209 |
|      20 | 0xFFFF249E  |  4294911134 |
|      21 | 0x0ABD      |        2749 |
|      22 | 0x0468      |        1128 |
|      23 | 0x0214      |         532 |
|      24 | 0x000F      |          15 |
|      25 | 0x0096      |         150 |
|      26 | 0x0028      |          40 |
|      27 | 0x3569      |       13673 |
|      28 | 0x356A      |       13674 |
|      29 | 0x356B      |       13675 |
|      30 | 0x356C      |       13676 |
|      31 | 0x356D      |       13677 |
|      32 | 0x356E      |       13678 |
|      33 | 0x356F      |       13679 |
|      34 | 0x3570      |       13680 |
|      35 | 0x2202      |        8706 |
|      36 | 0x2203      |        8707 |
|      37 | 0x3571      |       13681 |
|      38 | 0x3572      |       13682 |
|      39 | 0x002A      |          42 |
|      40 | 0x3573      |       13683 |
|      41 | 0x3574      |       13684 |
|      42 | 0x0022      |          34 |
|      43 | 0x3575      |       13685 |
|      44 | 0x3576      |       13686 |
|      45 | 0x3577      |       13687 |
|      46 | 0x0050      |          80 |
|      47 | 0x3578      |       13688 |
|      48 | 0x3579      |       13689 |
|      49 | 0x357A      |       13690 |
|      50 | 0x0032      |          50 |
|      51 | 0x357B      |       13691 |
|      52 | 0x357C      |       13692 |
|      53 | 0x0030      |          48 |
|      54 | 0x357D      |       13693 |
|      55 | 0x357E      |       13694 |

## String References

- **14610**: @@
- **15171**: You are now able to enjoy a new storyline, Seekers of Adoulin.
- **15172**: Start Seekers of Adoulin? [Yes (View cutscene)./Maybe later.]
- **15173**: Examine the Tales' Beginning in Northern San d'Oria, Bastok Markets, or Windurst Woods when you wish to start Seekers of Adoulin.

## Events

### Event 65535

#### Metadata

| Field        | Value   |
|--------------|---------|
| Entrypoint   | 0x0000  |
| Data Size    | 1 bytes |
| Instructions | 1       |

```
      00 01 02 03 04 05 06 07  08 09 0A 0B 0C 0D 0E 0F
      -- -- -- -- -- -- -- --  -- -- -- -- -- -- -- --
0000: 00                                                .               
```

#### Opcodes

```
  0: 0x0000 [0x00] END_REQSTACK()
```

### Event 11

#### Metadata

| Field        | Value   |
|--------------|---------|
| Entrypoint   | 0x0001  |
| Data Size    | 1 bytes |
| Instructions | 1       |

```
      00 01 02 03 04 05 06 07  08 09 0A 0B 0C 0D 0E 0F
      -- -- -- -- -- -- -- --  -- -- -- -- -- -- -- --
0000:    00                                              .              
```

#### Opcodes

```
  0: 0x0001 [0x00] END_REQSTACK()
```

### Event 65535.1

#### Metadata

| Field        | Value    |
|--------------|----------|
| Entrypoint   | 0x0002   |
| Data Size    | 43 bytes |
| Instructions | 6        |

```
      00 01 02 03 04 05 06 07  08 09 0A 0B 0C 0D 0E 0F
      -- -- -- -- -- -- -- --  -- -- -- -- -- -- -- --
0000:       45 00 80 F8 FF FF  7F F8 FF FF 7F 66 64 6F    E..........fdo
0010: 32 01 80 1C 02 80 46 00  1C 02 80 45 00 80 F8 FF  2.....F....E....
0020: FF 7F F8 FF FF 7F 66 64  69 32 01 80 00           ......fdi2...   
```

#### Opcodes

```
  0: 0x0002 [0x45] LOAD_SCHEDULED_TASK: Load scheduler "fdo2" with entities [EventEntity, EventEntity], work=[200*, 0*]
  1: 0x0013 [0x1C] WAIT(120* ticks)
  2: 0x0016 [0x46] CAMERA_CONTROL: Restore default settings
  3: 0x0018 [0x1C] WAIT(120* ticks)
  4: 0x001B [0x45] LOAD_SCHEDULED_TASK: Load scheduler "fdi2" with entities [EventEntity, EventEntity], work=[200*, 0*]
  5: 0x002C [0x00] END_REQSTACK()
```

### Event 65535.2

#### Metadata

| Field        | Value    |
|--------------|----------|
| Entrypoint   | 0x002D   |
| Data Size    | 33 bytes |
| Instructions | 3        |

```
      00 01 02 03 04 05 06 07  08 09 0A 0B 0C 0D 0E 0F
      -- -- -- -- -- -- -- --  -- -- -- -- -- -- -- --
0020:                                         45 00 80               E..
0030: F0 FF FF 7F F0 FF FF 7F  66 64 69 30 01 80 55 00  ........fdi0..U.
0040: 80 F0 FF FF 7F F0 FF FF  7F 66 64 69 30 00        .........fdi0.  
```

#### Opcodes

```
  0: 0x002D [0x45] LOAD_SCHEDULED_TASK: Load scheduler "fdi0" with entities [LocalPlayer, LocalPlayer], work=[200*, 0*]
  1: 0x003E [0x55] WAIT_LOAD_SCHEDULER: Wait for scheduler "fdi0" with entities [LocalPlayer, LocalPlayer], work=200*
  2: 0x004D [0x00] END_REQSTACK()
```

### Event 65535.3

#### Metadata

| Field        | Value    |
|--------------|----------|
| Entrypoint   | 0x004E   |
| Data Size    | 33 bytes |
| Instructions | 3        |

```
      00 01 02 03 04 05 06 07  08 09 0A 0B 0C 0D 0E 0F
      -- -- -- -- -- -- -- --  -- -- -- -- -- -- -- --
0040:                                            45 00                E.
0050: 80 F0 FF FF 7F F0 FF FF  7F 66 64 6F 30 01 80 55  .........fdo0..U
0060: 00 80 F0 FF FF 7F F0 FF  FF 7F 66 64 6F 30 00     ..........fdo0. 
```

#### Opcodes

```
  0: 0x004E [0x45] LOAD_SCHEDULED_TASK: Load scheduler "fdo0" with entities [LocalPlayer, LocalPlayer], work=[200*, 0*]
  1: 0x005F [0x55] WAIT_LOAD_SCHEDULER: Wait for scheduler "fdo0" with entities [LocalPlayer, LocalPlayer], work=200*
  2: 0x006E [0x00] END_REQSTACK()
```

### Event 367

#### Metadata

| Field        | Value   |
|--------------|---------|
| Entrypoint   | 0x006F  |
| Data Size    | 1 bytes |
| Instructions | 1       |

```
      00 01 02 03 04 05 06 07  08 09 0A 0B 0C 0D 0E 0F
      -- -- -- -- -- -- -- --  -- -- -- -- -- -- -- --
0060:                                               00                 .
```

#### Opcodes

```
  0: 0x006F [0x00] END_REQSTACK()
```

### Event 839

#### Metadata

| Field        | Value      |
|--------------|------------|
| Entrypoint   | 0x0070     |
| Data Size    | 1519 bytes |
| Instructions | 170        |

```
      00 01 02 03 04 05 06 07  08 09 0A 0B 0C 0D 0E 0F
      -- -- -- -- -- -- -- --  -- -- -- -- -- -- -- --
0070: 42 45 00 80 F8 FF FF 7F  F8 FF FF 7F 66 64 6F 31  BE..........fdo1
0080: 01 80 55 00 80 F8 FF FF  7F F8 FF FF 7F 66 64 6F  ..U..........fdo
0090: 31 46 01 38 03 80 4E 00  F0 FF FF 7F 03 01 10 01  1F.8..N.........
00A0: 80 43 00 43 01 03 00 00  04 10 02 05 10 01 80 00  .C.C............
00B0: 21 01 48 04 80 24 05 80  06 80 01 80 25 02 00 10  !.H..$......%...
00C0: 01 80 00 CD 00 03 01 10  06 80 01 21 01 02 00 10  ...........!....
00D0: 06 80 00 21 01 03 01 10  01 80 02 00 00 06 80 00  ...!............
00E0: 05 01 8D 07 80 06 80 1C  08 80 B8 07 80 01 80 09  ................
00F0: 80 0A 80 0B 80 54 61 6C  65 73 27 42 65 67 69 6E  .....Tales'Begin
0100: 6E 69 6E 67 00 48 0C 80  23 1C 0D 80 02 00 00 06  ning.H..#.......
0110: 80 00 15 01 8A 1C 08 80  48 0E 80 01 4A 06 01 21  ........H...J..!
0120: 01 92 01 B3 10 0F 01 92  01 B4 10 0F 01 BA B3 10  ................
0130: 0F 01 0F 80 10 80 11 80  12 80 BA F0 FF FF 7F 13  ................
0140: 80 14 80 15 80 16 80 80  B3 10 0F 01 80 B4 10 0F  ................
0150: 01 80 F0 FF FF 7F 4A B3  10 0F 01 B4 10 0F 01 4A  ......J........J
0160: F0 FF FF 7F B3 10 0F 01  45 17 80 F8 FF FF 7F F8  ........E.......
0170: FF FF 7F 73 31 34 32 01  80 1C 18 80 45 00 80 F8  ...s142.....E...
0180: FF FF 7F F8 FF FF 7F 66  64 69 31 01 80 1C 19 80  .......fdi1.....
0190: 66 1A 80 B3 10 0F 01 B3  10 0F 01 74 6C 6B 30 52  f..........tlk0R
01A0: 17 80 F8 FF FF 7F F8 FF  FF 7F 73 31 34 32 45 17  ..........s142E.
01B0: 80 F8 FF FF 7F F8 FF FF  7F 73 31 34 33 01 80 2B  .........s143..+
01C0: B3 10 0F 01 1B 80 23 66  1A 80 B3 10 0F 01 B3 10  ......#f........
01D0: 0F 01 74 6C 6B 31 2B B4  10 0F 01 1C 80 23 52 17  ..tlk1+......#R.
01E0: 80 F8 FF FF 7F F8 FF FF  7F 73 31 34 33 45 17 80  .........s143E..
01F0: F8 FF FF 7F F8 FF FF 7F  73 31 34 34 01 80 66 1A  ........s144..f.
0200: 80 B3 10 0F 01 B3 10 0F  01 64 69 73 30 2B B3 10  .........dis0+..
0210: 0F 01 1D 80 23 66 1A 80  B3 10 0F 01 B3 10 0F 01  ....#f..........
0220: 69 72 6F 30 2B B3 10 0F  01 1E 80 23 66 1A 80 B3  iro0+......#f...
0230: 10 0F 01 B3 10 0F 01 73  79 75 30 1C 18 80 52 17  .......syu0...R.
0240: 80 F8 FF FF 7F F8 FF FF  7F 73 31 34 34 45 17 80  .........s144E..
0250: F8 FF FF 7F F8 FF FF 7F  73 31 34 35 01 80 2B B3  ........s145..+.
0260: 10 0F 01 1F 80 23 52 17  80 F8 FF FF 7F F8 FF FF  .....#R.........
0270: 7F 73 31 34 35 45 17 80  F8 FF FF 7F F8 FF FF 7F  .s145E..........
0280: 73 31 34 36 01 80 66 1A  80 B3 10 0F 01 B3 10 0F  s146..f.........
0290: 01 70 6F 69 30 2B B3 10  0F 01 20 80 23 52 17 80  .poi0+.... .#R..
02A0: F8 FF FF 7F F8 FF FF 7F  73 31 34 36 45 17 80 F8  ........s146E...
02B0: FF FF 7F F8 FF FF 7F 73  31 34 37 01 80 66 1A 80  .......s147..f..
02C0: B3 10 0F 01 B3 10 0F 01  77 61 69 30 2B B3 10 0F  ........wai0+...
02D0: 01 21 80 23 52 17 80 F8  FF FF 7F F8 FF FF 7F 73  .!.#R..........s
02E0: 31 34 37 45 17 80 F8 FF  FF 7F F8 FF FF 7F 73 31  147E..........s1
02F0: 34 38 01 80 66 1A 80 B3  10 0F 01 B3 10 0F 01 74  48..f..........t
0300: 6C 6B 30 2B B3 10 0F 01  22 80 23 66 1A 80 B3 10  lk0+....".#f....
0310: 0F 01 B3 10 0F 01 74 6C  6B 31 52 17 80 F8 FF FF  ......tlk1R.....
0320: 7F F8 FF FF 7F 73 31 34  38 45 17 80 F8 FF FF 7F  .....s148E......
0330: F8 FF FF 7F 73 31 34 39  01 80 2B B4 10 0F 01 23  ....s149..+....#
0340: 80 23 52 17 80 F8 FF FF  7F F8 FF FF 7F 73 31 34  .#R..........s14
0350: 39 45 17 80 F8 FF FF 7F  F8 FF FF 7F 73 31 35 30  9E..........s150
0360: 01 80 66 1A 80 B3 10 0F  01 B3 10 0F 01 64 69 73  ..f..........dis
0370: 30 2B B3 10 0F 01 24 80  23 52 17 80 F8 FF FF 7F  0+....$.#R......
0380: F8 FF FF 7F 73 31 35 30  45 17 80 F8 FF FF 7F F8  ....s150E.......
0390: FF FF 7F 73 31 35 31 01  80 79 00 B4 10 0F 01 F0  ...s151..y......
03A0: FF FF 7F 2B B4 10 0F 01  25 80 23 2B B3 10 0F 01  ...+....%.#+....
03B0: 26 80 23 52 17 80 F8 FF  FF 7F F8 FF FF 7F 73 31  &.#R..........s1
03C0: 35 31 45 17 80 F8 FF FF  7F F8 FF FF 7F 73 31 35  51E..........s15
03D0: 32 01 80 4A B3 10 0F 01  F0 FF FF 7F 1C 08 80 66  2..J...........f
03E0: 27 80 B3 10 0F 01 B3 10  0F 01 62 69 6B 30 2B B3  '.........bik0+.
03F0: 10 0F 01 28 80 23 55 17  80 F8 FF FF 7F F8 FF FF  ...(.#U.........
0400: 7F 73 31 35 32 45 17 80  F8 FF FF 7F F8 FF FF 7F  .s152E..........
0410: 73 31 35 33 01 80 66 27  80 B3 10 0F 01 B3 10 0F  s153..f'........
0420: 01 62 69 6B 31 2B B3 10  0F 01 29 80 23 66 2A 80  .bik1+....).#f*.
0430: B3 10 0F 01 B3 10 0F 01  74 6C 62 30 2B B3 10 0F  ........tlb0+...
0440: 01 2B 80 23 66 2A 80 B3  10 0F 01 B3 10 0F 01 74  .+.#f*.........t
0450: 6C 62 31 52 17 80 F8 FF  FF 7F F8 FF FF 7F 73 31  lb1R..........s1
0460: 35 33 45 17 80 F8 FF FF  7F F8 FF FF 7F 73 31 35  53E..........s15
0470: 34 01 80 2B B4 10 0F 01  2C 80 23 66 1A 80 B3 10  4..+....,.#f....
0480: 0F 01 B3 10 0F 01 74 6C  6B 30 2B B3 10 0F 01 2D  ......tlk0+....-
0490: 80 23 66 1A 80 B3 10 0F  01 B3 10 0F 01 74 6C 6B  .#f..........tlk
04A0: 31 52 17 80 F8 FF FF 7F  F8 FF FF 7F 73 31 35 34  1R..........s154
04B0: 45 17 80 F8 FF FF 7F F8  FF FF 7F 73 31 35 35 01  E..........s155.
04C0: 80 27 05 F0 FF FF 7F 73  1C 2E 80 27 05 F0 FF FF  .'.....s...'....
04D0: 7F 74 1C 1A 80 66 1A 80  B3 10 0F 01 B3 10 0F 01  .t...f..........
04E0: 74 68 6B 31 2B B3 10 0F  01 2F 80 23 52 17 80 F8  thk1+..../.#R...
04F0: FF FF 7F F8 FF FF 7F 73  31 35 35 45 17 80 F8 FF  .......s155E....
0500: FF 7F F8 FF FF 7F 73 31  35 36 01 80 2B B4 10 0F  ......s156..+...
0510: 01 30 80 23 52 17 80 F8  FF FF 7F F8 FF FF 7F 73  .0.#R..........s
0520: 31 35 36 45 17 80 F8 FF  FF 7F F8 FF FF 7F 73 31  156E..........s1
0530: 35 37 01 80 66 1A 80 B3  10 0F 01 B3 10 0F 01 74  57..f..........t
0540: 68 6B 32 1C 08 80 4A B3  10 0F 01 B4 10 0F 01 1C  hk2...J.........
0550: 08 80 66 1A 80 B3 10 0F  01 B3 10 0F 01 64 69 73  ..f..........dis
0560: 30 2B B3 10 0F 01 31 80  23 4A B4 10 0F 01 F0 FF  0+....1.#J......
0570: FF 7F 79 00 B4 10 0F 01  B3 10 0F 01 1C 08 80 66  ..y............f
0580: 32 80 B4 10 0F 01 B4 10  0F 01 74 6C 6B 30 2B B4  2.........tlk0+.
0590: 10 0F 01 33 80 23 66 32  80 B4 10 0F 01 B4 10 0F  ...3.#f2........
05A0: 01 74 6C 6B 32 52 17 80  F8 FF FF 7F F8 FF FF 7F  .tlk2R..........
05B0: 73 31 35 37 45 17 80 F8  FF FF 7F F8 FF FF 7F 73  s157E..........s
05C0: 31 35 38 01 80 2B B3 10  0F 01 34 80 23 52 17 80  158..+....4.#R..
05D0: F8 FF FF 7F F8 FF FF 7F  73 31 35 38 45 17 80 F8  ........s158E...
05E0: FF FF 7F F8 FF FF 7F 73  31 35 39 01 80 66 35 80  .......s159..f5.
05F0: B4 10 0F 01 B4 10 0F 01  74 6C 63 30 2B B4 10 0F  ........tlc0+...
0600: 01 36 80 23 66 1A 80 B3  10 0F 01 B3 10 0F 01 69  .6.#f..........i
0610: 72 6F 30 2B B3 10 0F 01  37 80 23 45 00 80 F8 FF  ro0+....7.#E....
0620: FF 7F F8 FF FF 7F 66 64  6F 31 01 80 55 00 80 F8  ......fdo1..U...
0630: FF FF 7F F8 FF FF 7F 66  64 6F 31 52 17 80 F8 FF  .......fdo1R....
0640: FF 7F F8 FF FF 7F 73 31  35 39 46 00 45 00 80 F8  ......s159F.E...
0650: FF FF 7F F8 FF FF 7F 66  64 69 32 01 80 21 00     .......fdi2..!. 
```

#### Opcodes

```
  0: 0x0070 [0x42] SET_CLI_EVENT_CANCEL_DATA()
  1: 0x0071 [0x45] LOAD_SCHEDULED_TASK: Load scheduler "fdo1" with entities [EventEntity, EventEntity], work=[200*, 0*]
  2: 0x0082 [0x55] WAIT_LOAD_SCHEDULER: Wait for scheduler "fdo1" with entities [EventEntity, EventEntity], work=200*
  3: 0x0091 [0x46] CAMERA_CONTROL: Disable user control
  4: 0x0093 [0x38] SET_CLIENT_EVENT_MODE(mode=27*)
  5: 0x0096 [0x4E] SET_ENTITY_HIDE_FLAG: Show LocalPlayer
  6: 0x009C [0x03] Work_Zone[1] = 0*
  7: 0x00A1 [0x43] SEND_EVENT_UPDATE: Send pending tag to server (packet 0x005B)
  8: 0x00A3 [0x43] SEND_EVENT_UPDATE: Check pending flag (skip if not pending)
  9: 0x00A5 [0x03] ExtData[1]->WorkLocal[0] = Work_Zone[4]
 10: 0x00AA [0x02] IF !(Work_Zone[5] == 0*) GOTO 0x0121
 11: 0x00B2 [0x48] [System] [15171*]:
    → "You are now able to enjoy a new storyline, Seekers of Adoulin."
 12: 0x00B5 [0x24] CREATE_DIALOG(message_id=15172*, default_option=1*, option_flags=0*)
    → "Start Seekers of Adoulin? [Yes (View cutscene)./Maybe later.]"
 13: 0x00BC [0x25] WAIT_DIALOG_SELECT()
 14: 0x00BD [0x02] IF !(Work_Zone[0] == 0*) GOTO 0x00CD
 15: 0x00C5 [0x03] Work_Zone[1] = 1*
 16: 0x00CA [0x01] GOTO 0x0121
 17: 0x00CD [0x02] IF !(Work_Zone[0] == 1*) GOTO 0x0121
 18: 0x00D5 [0x03] Work_Zone[1] = 0*
 19: 0x00DA [0x02] IF !(ExtData[1]->WorkLocal[0] == 1*) GOTO 0x0105
 20: 0x00E2 [0x8D] OPEN_MAP_WITH_PROPERTIES(map_id=241*, properties=1*)
 21: 0x00E7 [0x1C] WAIT(30* ticks)
 22: 0x00EA [0xB8] MAP_ADD_MARKER_WITH_NAME(zone=241*, submap=0*, marker_id=9*, x_pos=90.454*, y_pos=-32.833*, marker_name="Tales'Beginning")
 23: 0x0105 [0x48] [System] [15173*]:
    → "Examine the Tales' Beginning in Northern San d'Oria, Bastok Markets, or Windurst Woods when you wish to start Seekers of Adoulin."
 24: 0x0108 [0x23] WAIT_FOR_DIALOG_INTERACTION
 25: 0x0109 [0x1C] WAIT(160* ticks)
 26: 0x010C [0x02] IF !(ExtData[1]->WorkLocal[0] == 1*) GOTO 0x0115
 27: 0x0114 [0x8A] CLOSE_MAP()
 28: 0x0115 [0x1C] WAIT(30* ticks)
 29: 0x0118 [0x48] [System] [14610*]:
    → "@@"
 30: 0x011B [0x01] GOTO 0x064A

SUBROUTINE_0121:
 31: 0x0121 [0x92] Soni-Muni (ID: 17764531/0x010F10B3)->Render.Flags3 ^= 0x01
 32: 0x0127 [0x92] Gottah Maporushanoh (ID: 17764532/0x010F10B4)->Render.Flags3 ^= 0x01
 33: 0x012D [0xBA] SET_ENTITY_POSITION(entity_id=Soni-Muni (ID: 17764531/0x010F10B3), pos_x=-18.235*, pos_z=-59.642*, pos_y=1.749*, direction=1.2°*)
 34: 0x013A [0xBA] SET_ENTITY_POSITION(entity_id=LocalPlayer, pos_x=-18.087*, pos_z=-56.162*, pos_y=2.749*, direction=99.1°*)
 35: 0x0147 [0x80] LOAD_WAIT(entity=Soni-Muni (ID: 17764531/0x010F10B3))
 36: 0x014C [0x80] LOAD_WAIT(entity=Gottah Maporushanoh (ID: 17764532/0x010F10B4))
 37: 0x0151 [0x80] LOAD_WAIT(entity=LocalPlayer)
 38: 0x0156 [0x4A] Soni-Muni (ID: 17764531/0x010F10B3) looks at Gottah Maporushanoh (ID: 17764532/0x010F10B4)
 39: 0x015F [0x4A] LocalPlayer looks at Soni-Muni (ID: 17764531/0x010F10B3)
 40: 0x0168 [0x45] LOAD_SCHEDULED_TASK: Load scheduler "s142" with entities [EventEntity, EventEntity], work=[532*, 0*]
 41: 0x0179 [0x1C] WAIT(15* ticks)
 42: 0x017C [0x45] LOAD_SCHEDULED_TASK: Load scheduler "fdi1" with entities [EventEntity, EventEntity], work=[200*, 0*]
 43: 0x018D [0x1C] WAIT(150* ticks)
 44: 0x0190 [0x66] LOAD_EXT_SCHEDULER_MAIN: Load scheduler "tlk0" with entities [Soni-Muni (ID: 17764531/0x010F10B3), Soni-Muni (ID: 17764531/0x010F10B3)], work=40*
 45: 0x019F [0x52] END_LOAD_SCHEDULER: End scheduler "s142" with entities [EventEntity, EventEntity], work=532*
 46: 0x01AE [0x45] LOAD_SCHEDULED_TASK: Load scheduler "s143" with entities [EventEntity, EventEntity], work=[532*, 0*]
 47: 0x01BF [0x2B] Soni-Muni (ID: 17764531/0x010F10B3) [13673*]:
    → "Oi, Gottah! I reckon it be time to get our arses in geary-wear and what have you."
 48: 0x01C6 [0x23] WAIT_FOR_DIALOG_INTERACTION
 49: 0x01C7 [0x66] LOAD_EXT_SCHEDULER_MAIN: Load scheduler "tlk1" with entities [Soni-Muni (ID: 17764531/0x010F10B3), Soni-Muni (ID: 17764531/0x010F10B3)], work=40*
 50: 0x01D6 [0x2B] Gottah Maporushanoh (ID: 17764532/0x010F10B4) [13674*]:
    → "Whateverrr..."
 51: 0x01DD [0x23] WAIT_FOR_DIALOG_INTERACTION
 52: 0x01DE [0x52] END_LOAD_SCHEDULER: End scheduler "s143" with entities [EventEntity, EventEntity], work=532*
 53: 0x01ED [0x45] LOAD_SCHEDULED_TASK: Load scheduler "s144" with entities [EventEntity, EventEntity], work=[532*, 0*]
 54: 0x01FE [0x66] LOAD_EXT_SCHEDULER_MAIN: Load scheduler "dis0" with entities [Soni-Muni (ID: 17764531/0x010F10B3), Soni-Muni (ID: 17764531/0x010F10B3)], work=40*
 55: 0x020D [0x2B] Soni-Muni (ID: 17764531/0x010F10B3) [13675*]:
    → "What now, matey? "Whatever"? Why so unenthusiastic? I'm hearin' that somewhere people're lookin' for some plank-bravin' pioneers."
 56: 0x0214 [0x23] WAIT_FOR_DIALOG_INTERACTION
 57: 0x0215 [0x66] LOAD_EXT_SCHEDULER_MAIN: Load scheduler "iro0" with entities [Soni-Muni (ID: 17764531/0x010F10B3), Soni-Muni (ID: 17764531/0x010F10B3)], work=40*
 58: 0x0224 [0x2B] Soni-Muni (ID: 17764531/0x010F10B3) [13676*]:
    → "Would you fancy thataru! Pioneers in these here modern times! I can feel the ol' adventurer spirit just pourin'-wourin' up inside o' me! Picture it!"
 59: 0x022B [0x23] WAIT_FOR_DIALOG_INTERACTION
 60: 0x022C [0x66] LOAD_EXT_SCHEDULER_MAIN: Load scheduler "syu0" with entities [Soni-Muni (ID: 17764531/0x010F10B3), Soni-Muni (ID: 17764531/0x010F10B3)], work=40*
 61: 0x023B [0x1C] WAIT(15* ticks)
 62: 0x023E [0x52] END_LOAD_SCHEDULER: End scheduler "s144" with entities [EventEntity, EventEntity], work=532*
 63: 0x024D [0x45] LOAD_SCHEDULED_TASK: Load scheduler "s145" with entities [EventEntity, EventEntity], work=[532*, 0*]
 64: 0x025E [0x2B] Soni-Muni (ID: 17764531/0x010F10B3) [13677*]:
    → "Unknown lands!"
 65: 0x0265 [0x23] WAIT_FOR_DIALOG_INTERACTION
 66: 0x0266 [0x52] END_LOAD_SCHEDULER: End scheduler "s145" with entities [EventEntity, EventEntity], work=532*
 67: 0x0275 [0x45] LOAD_SCHEDULED_TASK: Load scheduler "s146" with entities [EventEntity, EventEntity], work=[532*, 0*]
 68: 0x0286 [0x66] LOAD_EXT_SCHEDULER_MAIN: Load scheduler "poi0" with entities [Soni-Muni (ID: 17764531/0x010F10B3), Soni-Muni (ID: 17764531/0x010F10B3)], work=40*
 69: 0x0295 [0x2B] Soni-Muni (ID: 17764531/0x010F10B3) [13678*]:
    → "Ancientaru ruins!"
 70: 0x029C [0x23] WAIT_FOR_DIALOG_INTERACTION
 71: 0x029D [0x52] END_LOAD_SCHEDULER: End scheduler "s146" with entities [EventEntity, EventEntity], work=532*
 72: 0x02AC [0x45] LOAD_SCHEDULED_TASK: Load scheduler "s147" with entities [EventEntity, EventEntity], work=[532*, 0*]
 73: 0x02BD [0x66] LOAD_EXT_SCHEDULER_MAIN: Load scheduler "wai0" with entities [Soni-Muni (ID: 17764531/0x010F10B3), Soni-Muni (ID: 17764531/0x010F10B3)], work=40*
 74: 0x02CC [0x2B] Soni-Muni (ID: 17764531/0x010F10B3) [13679*]:
    → "Phantasmical natives!"
 75: 0x02D3 [0x23] WAIT_FOR_DIALOG_INTERACTION
 76: 0x02D4 [0x52] END_LOAD_SCHEDULER: End scheduler "s147" with entities [EventEntity, EventEntity], work=532*
 77: 0x02E3 [0x45] LOAD_SCHEDULED_TASK: Load scheduler "s148" with entities [EventEntity, EventEntity], work=[532*, 0*]
 78: 0x02F4 [0x66] LOAD_EXT_SCHEDULER_MAIN: Load scheduler "tlk0" with entities [Soni-Muni (ID: 17764531/0x010F10B3), Soni-Muni (ID: 17764531/0x010F10B3)], work=40*
 79: 0x0303 [0x2B] Soni-Muni (ID: 17764531/0x010F10B3) [13680*]:
    → "C'mon, Gottah, don't that just beaty-weat all?"
 80: 0x030A [0x23] WAIT_FOR_DIALOG_INTERACTION
 81: 0x030B [0x66] LOAD_EXT_SCHEDULER_MAIN: Load scheduler "tlk1" with entities [Soni-Muni (ID: 17764531/0x010F10B3), Soni-Muni (ID: 17764531/0x010F10B3)], work=40*
 82: 0x031A [0x52] END_LOAD_SCHEDULER: End scheduler "s148" with entities [EventEntity, EventEntity], work=532*
 83: 0x0329 [0x45] LOAD_SCHEDULED_TASK: Load scheduler "s149" with entities [EventEntity, EventEntity], work=[532*, 0*]
 84: 0x033A [0x2B] Gottah Maporushanoh (ID: 17764532/0x010F10B4) [8706*]:
    → "Ho-hum..."
 85: 0x0341 [0x23] WAIT_FOR_DIALOG_INTERACTION
 86: 0x0342 [0x52] END_LOAD_SCHEDULER: End scheduler "s149" with entities [EventEntity, EventEntity], work=532*
 87: 0x0351 [0x45] LOAD_SCHEDULED_TASK: Load scheduler "s150" with entities [EventEntity, EventEntity], work=[532*, 0*]
 88: 0x0362 [0x66] LOAD_EXT_SCHEDULER_MAIN: Load scheduler "dis0" with entities [Soni-Muni (ID: 17764531/0x010F10B3), Soni-Muni (ID: 17764531/0x010F10B3)], work=40*
 89: 0x0371 [0x2B] Soni-Muni (ID: 17764531/0x010F10B3) [8707*]:
    → "Oi, oi! Don't be givin' me no "ho-hums" there, chum! Don't you feel anythin' anywhere in that heart of yours?"
 90: 0x0378 [0x23] WAIT_FOR_DIALOG_INTERACTION
 91: 0x0379 [0x52] END_LOAD_SCHEDULER: End scheduler "s150" with entities [EventEntity, EventEntity], work=532*
 92: 0x0388 [0x45] LOAD_SCHEDULED_TASK: Load scheduler "s151" with entities [EventEntity, EventEntity], work=[532*, 0*]
 93: 0x0399 [0x79] Gottah Maporushanoh (ID: 17764532/0x010F10B4) looks at LocalPlayer (Basic look)
 94: 0x03A3 [0x2B] Gottah Maporushanoh (ID: 17764532/0x010F10B4) [13681*]:
    → "Pioneerrring might be fun, but come back to reality for a minute. How long are you going to ignore that adventurer over there?"
 95: 0x03AA [0x23] WAIT_FOR_DIALOG_INTERACTION
 96: 0x03AB [0x2B] Soni-Muni (ID: 17764531/0x010F10B3) [13682*]:
    → "Huh?"
 97: 0x03B2 [0x23] WAIT_FOR_DIALOG_INTERACTION
 98: 0x03B3 [0x52] END_LOAD_SCHEDULER: End scheduler "s151" with entities [EventEntity, EventEntity], work=532*
 99: 0x03C2 [0x45] LOAD_SCHEDULED_TASK: Load scheduler "s152" with entities [EventEntity, EventEntity], work=[532*, 0*]
100: 0x03D3 [0x4A] Soni-Muni (ID: 17764531/0x010F10B3) looks at LocalPlayer
101: 0x03DC [0x1C] WAIT(30* ticks)
102: 0x03DF [0x66] LOAD_EXT_SCHEDULER_MAIN: Load scheduler "bik0" with entities [Soni-Muni (ID: 17764531/0x010F10B3), Soni-Muni (ID: 17764531/0x010F10B3)], work=42*
103: 0x03EE [0x2B] Soni-Muni (ID: 17764531/0x010F10B3) [13683*]:
    → "Wh-when did you sauntaru over here!?"
104: 0x03F5 [0x23] WAIT_FOR_DIALOG_INTERACTION
105: 0x03F6 [0x55] WAIT_LOAD_SCHEDULER: Wait for scheduler "s152" with entities [EventEntity, EventEntity], work=532*
106: 0x0405 [0x45] LOAD_SCHEDULED_TASK: Load scheduler "s153" with entities [EventEntity, EventEntity], work=[532*, 0*]
107: 0x0416 [0x66] LOAD_EXT_SCHEDULER_MAIN: Load scheduler "bik1" with entities [Soni-Muni (ID: 17764531/0x010F10B3), Soni-Muni (ID: 17764531/0x010F10B3)], work=42*
108: 0x0425 [0x2B] Soni-Muni (ID: 17764531/0x010F10B3) [13684*]:
    → "You want to know more about this whole pioneerin' giggy-wig?"
109: 0x042C [0x23] WAIT_FOR_DIALOG_INTERACTION
110: 0x042D [0x66] LOAD_EXT_SCHEDULER_MAIN: Load scheduler "tlb0" with entities [Soni-Muni (ID: 17764531/0x010F10B3), Soni-Muni (ID: 17764531/0x010F10B3)], work=34*
111: 0x043C [0x2B] Soni-Muni (ID: 17764531/0x010F10B3) [13685*]:
    → "To be honest, we don't know a right bit about it either. Stuff about crossin' the ocean and headin' westaru, doin' somethin'-or-other for whosy-whatsit."
112: 0x0443 [0x23] WAIT_FOR_DIALOG_INTERACTION
113: 0x0444 [0x66] LOAD_EXT_SCHEDULER_MAIN: Load scheduler "tlb1" with entities [Soni-Muni (ID: 17764531/0x010F10B3), Soni-Muni (ID: 17764531/0x010F10B3)], work=34*
114: 0x0453 [0x52] END_LOAD_SCHEDULER: End scheduler "s153" with entities [EventEntity, EventEntity], work=532*
115: 0x0462 [0x45] LOAD_SCHEDULED_TASK: Load scheduler "s154" with entities [EventEntity, EventEntity], work=[532*, 0*]
116: 0x0473 [0x2B] Gottah Maporushanoh (ID: 17764532/0x010F10B4) [13686*]:
    → "Adoulin."
117: 0x047A [0x23] WAIT_FOR_DIALOG_INTERACTION
118: 0x047B [0x66] LOAD_EXT_SCHEDULER_MAIN: Load scheduler "tlk0" with entities [Soni-Muni (ID: 17764531/0x010F10B3), Soni-Muni (ID: 17764531/0x010F10B3)], work=40*
119: 0x048A [0x2B] Soni-Muni (ID: 17764531/0x010F10B3) [13687*]:
    → "Yeah, that be it! Adoulin has started a tremendous pioneer mission and is in need of'n extra pair of hands or two. Lookin' for mighty fine adventarus like yourself."
120: 0x0491 [0x23] WAIT_FOR_DIALOG_INTERACTION
121: 0x0492 [0x66] LOAD_EXT_SCHEDULER_MAIN: Load scheduler "tlk1" with entities [Soni-Muni (ID: 17764531/0x010F10B3), Soni-Muni (ID: 17764531/0x010F10B3)], work=40*
122: 0x04A1 [0x52] END_LOAD_SCHEDULER: End scheduler "s154" with entities [EventEntity, EventEntity], work=532*
123: 0x04B0 [0x45] LOAD_SCHEDULED_TASK: Load scheduler "s155" with entities [EventEntity, EventEntity], work=[532*, 0*]
124: 0x04C1 [0x27] REQ_SET(priority=0x05, entity_id=LocalPlayer, tag_num=0x73)
125: 0x04C8 [0x1C] WAIT(80* ticks)
126: 0x04CB [0x27] REQ_SET(priority=0x05, entity_id=LocalPlayer, tag_num=0x74)
127: 0x04D2 [0x1C] WAIT(40* ticks)
128: 0x04D5 [0x66] LOAD_EXT_SCHEDULER_MAIN: Load scheduler "thk1" with entities [Soni-Muni (ID: 17764531/0x010F10B3), Soni-Muni (ID: 17764531/0x010F10B3)], work=40*
129: 0x04E4 [0x2B] Soni-Muni (ID: 17764531/0x010F10B3) [13688*]:
    → ""Where can I apply?""
130: 0x04EB [0x23] WAIT_FOR_DIALOG_INTERACTION
131: 0x04EC [0x52] END_LOAD_SCHEDULER: End scheduler "s155" with entities [EventEntity, EventEntity], work=532*
132: 0x04FB [0x45] LOAD_SCHEDULED_TASK: Load scheduler "s156" with entities [EventEntity, EventEntity], work=[532*, 0*]
133: 0x050C [0x2B] Gottah Maporushanoh (ID: 17764532/0x010F10B4) [13689*]:
    → "The Jeuno Chamberrr of Commerce and Industry."
134: 0x0513 [0x23] WAIT_FOR_DIALOG_INTERACTION
135: 0x0514 [0x52] END_LOAD_SCHEDULER: End scheduler "s156" with entities [EventEntity, EventEntity], work=532*
136: 0x0523 [0x45] LOAD_SCHEDULED_TASK: Load scheduler "s157" with entities [EventEntity, EventEntity], work=[532*, 0*]
137: 0x0534 [0x66] LOAD_EXT_SCHEDULER_MAIN: Load scheduler "thk2" with entities [Soni-Muni (ID: 17764531/0x010F10B3), Soni-Muni (ID: 17764531/0x010F10B3)], work=40*
138: 0x0543 [0x1C] WAIT(30* ticks)
139: 0x0546 [0x4A] Soni-Muni (ID: 17764531/0x010F10B3) looks at Gottah Maporushanoh (ID: 17764532/0x010F10B4)
140: 0x054F [0x1C] WAIT(30* ticks)
141: 0x0552 [0x66] LOAD_EXT_SCHEDULER_MAIN: Load scheduler "dis0" with entities [Soni-Muni (ID: 17764531/0x010F10B3), Soni-Muni (ID: 17764531/0x010F10B3)], work=40*
142: 0x0561 [0x2B] Soni-Muni (ID: 17764531/0x010F10B3) [13690*]:
    → "Gottah, you're right knowledgeable about this. Who exactly did you talky-walk to to receive such information? An' what else ye got stowin' away in that head o' yers?"
143: 0x0568 [0x23] WAIT_FOR_DIALOG_INTERACTION
144: 0x0569 [0x4A] Gottah Maporushanoh (ID: 17764532/0x010F10B4) looks at LocalPlayer
145: 0x0572 [0x79] Gottah Maporushanoh (ID: 17764532/0x010F10B4) looks at Soni-Muni (ID: 17764531/0x010F10B3) (Basic look)
146: 0x057C [0x1C] WAIT(30* ticks)
147: 0x057F [0x66] LOAD_EXT_SCHEDULER_MAIN: Load scheduler "tlk0" with entities [Gottah Maporushanoh (ID: 17764532/0x010F10B4), Gottah Maporushanoh (ID: 17764532/0x010F10B4)], work=50*
148: 0x058E [0x2B] Gottah Maporushanoh (ID: 17764532/0x010F10B4) [13691*]:
    → "They're holding some kind o' test. Adoulin wildlands are evidently like nothing you've ever seen, so they need to make sure adventurerrrs can handle it."
149: 0x0595 [0x23] WAIT_FOR_DIALOG_INTERACTION
150: 0x0596 [0x66] LOAD_EXT_SCHEDULER_MAIN: Load scheduler "tlk2" with entities [Gottah Maporushanoh (ID: 17764532/0x010F10B4), Gottah Maporushanoh (ID: 17764532/0x010F10B4)], work=50*
151: 0x05A5 [0x52] END_LOAD_SCHEDULER: End scheduler "s157" with entities [EventEntity, EventEntity], work=532*
152: 0x05B4 [0x45] LOAD_SCHEDULED_TASK: Load scheduler "s158" with entities [EventEntity, EventEntity], work=[532*, 0*]
153: 0x05C5 [0x2B] Soni-Muni (ID: 17764531/0x010F10B3) [13692*]:
    → "A testaru...to prove they can handle it..."
154: 0x05CC [0x23] WAIT_FOR_DIALOG_INTERACTION
155: 0x05CD [0x52] END_LOAD_SCHEDULER: End scheduler "s158" with entities [EventEntity, EventEntity], work=532*
156: 0x05DC [0x45] LOAD_SCHEDULED_TASK: Load scheduler "s159" with entities [EventEntity, EventEntity], work=[532*, 0*]
157: 0x05ED [0x66] LOAD_EXT_SCHEDULER_MAIN: Load scheduler "tlc0" with entities [Gottah Maporushanoh (ID: 17764532/0x010F10B4), Gottah Maporushanoh (ID: 17764532/0x010F10B4)], work=48*
158: 0x05FC [0x2B] Gottah Maporushanoh (ID: 17764532/0x010F10B4) [13693*]:
    → "That means our only job be to put adventurers on the right courrrse, matey. We ain't fit enough to fight."
159: 0x0603 [0x23] WAIT_FOR_DIALOG_INTERACTION
160: 0x0604 [0x66] LOAD_EXT_SCHEDULER_MAIN: Load scheduler "iro0" with entities [Soni-Muni (ID: 17764531/0x010F10B3), Soni-Muni (ID: 17764531/0x010F10B3)], work=40*
161: 0x0613 [0x2B] Soni-Muni (ID: 17764531/0x010F10B3) [13694*]:
    → "Gottah, you wanker! That's why I be tellin' you we gotta keep trainin'!"
162: 0x061A [0x23] WAIT_FOR_DIALOG_INTERACTION
163: 0x061B [0x45] LOAD_SCHEDULED_TASK: Load scheduler "fdo1" with entities [EventEntity, EventEntity], work=[200*, 0*]
164: 0x062C [0x55] WAIT_LOAD_SCHEDULER: Wait for scheduler "fdo1" with entities [EventEntity, EventEntity], work=200*
165: 0x063B [0x52] END_LOAD_SCHEDULER: End scheduler "s159" with entities [EventEntity, EventEntity], work=532*

SUBROUTINE_064A:
166: 0x064A [0x46] CAMERA_CONTROL: Restore default settings
167: 0x064C [0x45] LOAD_SCHEDULED_TASK: Load scheduler "fdi2" with entities [EventEntity, EventEntity], work=[200*, 0*]
168: 0x065D [0x21] END_EVENT
169: 0x065E [0x00] END_REQSTACK()
```

#### Data or dead code:

```
# Dead code (unreachable instructions):
     0x011E [0x01] GOTO 0x0121
```
