# 17764471 - Muhk Johldy

## Common Data

| Field            | Value                    |
|------------------|--------------------------|
| Zone             | Windurst Woods (ID: 241) |
| Block Size       | 568 bytes                |
| Total Events     | 30                       |
| References Count | 34                       |

## List of Events

| Event ID                 | Entrypoint   |   Size |   Instructions |
|--------------------------|--------------|--------|----------------|
| [65535](#event-65535)    | 0x0000       |      1 |              1 |
| [339](#event-339)        | 0x0001       |     19 |             10 |
| [346](#event-346)        | 0x0014       |     19 |             10 |
| [349](#event-349)        | 0x0027       |     19 |             10 |
| [351](#event-351)        | 0x003A       |      1 |              1 |
| [357](#event-357)        | 0x003B       |      1 |              1 |
| [353](#event-353)        | 0x003C       |     19 |             10 |
| [359](#event-359)        | 0x004F       |     19 |             10 |
| [527](#event-527)        | 0x0062       |      6 |              2 |
| [523](#event-523)        | 0x0068       |      1 |              1 |
| [525](#event-525)        | 0x0069       |     19 |             10 |
| [529](#event-529)        | 0x007C       |     19 |             10 |
| [531](#event-531)        | 0x008F       |      1 |              1 |
| [537](#event-537)        | 0x0090       |      1 |              1 |
| [535](#event-535)        | 0x0091       |      1 |              1 |
| [533](#event-533)        | 0x0092       |     19 |             10 |
| [539](#event-539)        | 0x00A5       |     19 |             10 |
| [541](#event-541)        | 0x00B8       |      1 |              1 |
| [546](#event-546)        | 0x00B9       |      1 |              1 |
| [65535.1](#event-655351) | 0x00BA       |     10 |              2 |
| [543](#event-543)        | 0x00C4       |     19 |             10 |
| [548](#event-548)        | 0x00D7       |     19 |             10 |
| [639](#event-639)        | 0x00EA       |     19 |             10 |
| [643](#event-643)        | 0x00FD       |     19 |             10 |
| [661](#event-661)        | 0x0110       |      1 |              1 |
| [664](#event-664)        | 0x0111       |      1 |              1 |
| [666](#event-666)        | 0x0112       |      1 |              1 |
| [686](#event-686)        | 0x0113       |      7 |              2 |
| [65535.2](#event-655352) | 0x011A       |     10 |              2 |
| [869](#event-869)        | 0x0124       |      1 |              1 |

## DAT References (imed_data)

|   Index | Hex Value   |   Dec Value |
|---------|-------------|-------------|
|       0 | 0x203C      |        8252 |
|       1 | 0x203D      |        8253 |
|       2 | 0x204A      |        8266 |
|       3 | 0x204B      |        8267 |
|       4 | 0x2050      |        8272 |
|       5 | 0x2051      |        8273 |
|       6 | 0x205C      |        8284 |
|       7 | 0x205D      |        8285 |
|       8 | 0x206A      |        8298 |
|       9 | 0x206B      |        8299 |
|      10 | 0x22DA      |        8922 |
|      11 | 0x22DB      |        8923 |
|      12 | 0x22F9      |        8953 |
|      13 | 0x22FA      |        8954 |
|      14 | 0x2459      |        9305 |
|      15 | 0x245A      |        9306 |
|      16 | 0x2478      |        9336 |
|      17 | 0x2479      |        9337 |
|      18 | 0x1D59E     |      120222 |
|      19 | 0x18A2B     |      100907 |
|      20 | 0xFFFFF15B  |  4294963547 |
|      21 | 0x0400      |        1024 |
|      22 | 0x248D      |        9357 |
|      23 | 0x248E      |        9358 |
|      24 | 0x24AE      |        9390 |
|      25 | 0x24AF      |        9391 |
|      26 | 0x25D1      |        9681 |
|      27 | 0x25D2      |        9682 |
|      28 | 0x25F7      |        9719 |
|      29 | 0x25F8      |        9720 |
|      30 | 0x1D4C0     |      120000 |
|      31 | 0x16F30     |       94000 |
|      32 | 0xFFFFF15A  |  4294963546 |
|      33 | 0x0720      |        1824 |

## String References

- **8252**: Please do not botherrr us now. We are in the midst of offerrring our prayers for a great hunt.
- **8253**: We rangers must show gratitude for naturrre's blessings as we carry out the hunt. For we too are part of Mother Nature's grrreater scheme...
- **8266**: We have received worrrd from Rakoh Buuma, captain of the eastern gatehouse.
- **8267**: We are afraid it is ratherrr ill news. Nothing good happens on days when the wind blows warrrm.
- **8272**: Why? Why is it that my hearrrtbeat will not settle down?
- **8273**: Lo! The chieftainness appearrrs to be sensing something. What is going to happen next?
- **8284**: The fanged king of the beasts is one of the grrreat tigers. It is a fearsome monster with swift feet and awesome power. Its teeth are very light yet extremely strong, perrrfect for making the best arrowheads.
- **8285**: From long ago they have dwelled on the Sauromugue Champaign, and we have learrrned much from them.
- **8298**: Why do you suppose people lost their fangs? Perrrhaps it was because people stopped listening to nature's voice.
- **8299**: That weapon you hold in your hands is but a temporrrary manifestation of a fang. Your true fangs exist within your hearrrt!
- **8922**: A Mithran Tracker from the homeland has arrived.
- **8923**: It's been decades since... The sin will not be forgiven. Even if what happened was destiny...
- **8953**: The Mithran Tracker has come from the homeland of our people.
- **8954**: There was another time, twenty years ago, when a Mithran Tracker arrived from across the seas. However, that was not the same Mithra that was here a moment ago.
- **9305**: Twenty years prrrevious, there was a sinner who escaped from her prrrison and fled to this continent.
- **9306**: There are few Mithra in Windurst who know of her tale. It is a low point in our historrry, and not a thing that is often spoke of...
- **9336**: We Mithra receive the blessing of the earth in creating the chieftainness's bow.
- **9337**: Chieftainness Perih Vashai received the blessing of this land when she made the Azure Bow.
- **9357**: The chieftainness wishes Semih Lafihna to see the trrruth with her own eyes.
- **9358**: Everything becomes clear when you choose to see of your own free will. "Will" represents the eye of the spirit. As a ranger, the vision of your spirit must not become clouded...
- **9390**: All of the children taken in by Heavens Tower lost their mothers. Under normal circumstances, they would be sent to our homeland to be cared for by other Mithra.
- **9391**: You rrrealize why they were not sent to the homeland, don't you? The chieftainness wished to watch over the growth of her child, Semih Lafihna...Even if it meant being despised...
- **9681**: There is no need for panic. We alrrready have details on the enemy's army within our grrrasp.
- **9682**: We have done more than simply glare at the Yagudo these past twenty years.
- **9719**: There was a place in Kazham where you could feel the power of the land.
- **9720**: Twenty years ago that same grrreat energy overflowed from the plains of Sarutabaruta. All of our trrroubles began with the loss of that power.

## Events

### Event 65535

#### Metadata

| Field        | Value   |
|--------------|---------|
| Entrypoint   | 0x0000  |
| Data Size    | 1 bytes |
| Instructions | 1       |

```
      00 01 02 03 04 05 06 07  08 09 0A 0B 0C 0D 0E 0F
      -- -- -- -- -- -- -- --  -- -- -- -- -- -- -- --
0000: 00                                                .               
```

#### Opcodes

```
  0: 0x0000 [0x00] END_REQSTACK()
```

### Event 339

#### Metadata

| Field        | Value    |
|--------------|----------|
| Entrypoint   | 0x0001   |
| Data Size    | 19 bytes |
| Instructions | 10       |

```
      00 01 02 03 04 05 06 07  08 09 0A 0B 0C 0D 0E 0F
      -- -- -- -- -- -- -- --  -- -- -- -- -- -- -- --
0000:    1E F0 FF FF 7F 6F 70  1D 00 80 23 1D 01 80 23   .....op...#...#
0010: 20 00 21 00                                        .!.            
```

#### Opcodes

```
  0: 0x0001 [0x1E] EventEntity looks at LocalPlayer and starts talking
  1: 0x0006 [0x6F] WAIT_FRAME_DELAY: Yield until WaitTime reaches zero
  2: 0x0007 [0x70] WAIT_ENTITY_RENDER_FLAG: Wait while EventEntity->Render.Flags3 bit 2 is set (cancel turn if not)
  3: 0x0008 [0x1D] PRINT_EVENT_MESSAGE(message_id=8252*)
    → "Please do not botherrr us now. We are in the midst of offerrring our prayers for a great hunt."
  4: 0x000B [0x23] WAIT_FOR_DIALOG_INTERACTION
  5: 0x000C [0x1D] PRINT_EVENT_MESSAGE(message_id=8253*)
    → "We rangers must show gratitude for naturrre's blessings as we carry out the hunt. For we too are part of Mother Nature's grrreater scheme..."
  6: 0x000F [0x23] WAIT_FOR_DIALOG_INTERACTION
  7: 0x0010 [0x20] SET_CLI_EVENT_UC_FLAG: Unlock player control
  8: 0x0012 [0x21] END_EVENT
  9: 0x0013 [0x00] END_REQSTACK()
```

### Event 346

#### Metadata

| Field        | Value    |
|--------------|----------|
| Entrypoint   | 0x0014   |
| Data Size    | 19 bytes |
| Instructions | 10       |

```
      00 01 02 03 04 05 06 07  08 09 0A 0B 0C 0D 0E 0F
      -- -- -- -- -- -- -- --  -- -- -- -- -- -- -- --
0010:             1E F0 FF FF  7F 6F 70 1D 02 80 23 1D      .....op...#.
0020: 03 80 23 20 00 21 00                              ..# .!.         
```

#### Opcodes

```
  0: 0x0014 [0x1E] EventEntity looks at LocalPlayer and starts talking
  1: 0x0019 [0x6F] WAIT_FRAME_DELAY: Yield until WaitTime reaches zero
  2: 0x001A [0x70] WAIT_ENTITY_RENDER_FLAG: Wait while EventEntity->Render.Flags3 bit 2 is set (cancel turn if not)
  3: 0x001B [0x1D] PRINT_EVENT_MESSAGE(message_id=8266*)
    → "We have received worrrd from Rakoh Buuma, captain of the eastern gatehouse."
  4: 0x001E [0x23] WAIT_FOR_DIALOG_INTERACTION
  5: 0x001F [0x1D] PRINT_EVENT_MESSAGE(message_id=8267*)
    → "We are afraid it is ratherrr ill news. Nothing good happens on days when the wind blows warrrm."
  6: 0x0022 [0x23] WAIT_FOR_DIALOG_INTERACTION
  7: 0x0023 [0x20] SET_CLI_EVENT_UC_FLAG: Unlock player control
  8: 0x0025 [0x21] END_EVENT
  9: 0x0026 [0x00] END_REQSTACK()
```

### Event 349

#### Metadata

| Field        | Value    |
|--------------|----------|
| Entrypoint   | 0x0027   |
| Data Size    | 19 bytes |
| Instructions | 10       |

```
      00 01 02 03 04 05 06 07  08 09 0A 0B 0C 0D 0E 0F
      -- -- -- -- -- -- -- --  -- -- -- -- -- -- -- --
0020:                      1E  F0 FF FF 7F 6F 70 1D 04         .....op..
0030: 80 23 1D 05 80 23 20 00  21 00                    .#...# .!.      
```

#### Opcodes

```
  0: 0x0027 [0x1E] EventEntity looks at LocalPlayer and starts talking
  1: 0x002C [0x6F] WAIT_FRAME_DELAY: Yield until WaitTime reaches zero
  2: 0x002D [0x70] WAIT_ENTITY_RENDER_FLAG: Wait while EventEntity->Render.Flags3 bit 2 is set (cancel turn if not)
  3: 0x002E [0x1D] PRINT_EVENT_MESSAGE(message_id=8272*)
    → "Why? Why is it that my hearrrtbeat will not settle down?"
  4: 0x0031 [0x23] WAIT_FOR_DIALOG_INTERACTION
  5: 0x0032 [0x1D] PRINT_EVENT_MESSAGE(message_id=8273*)
    → "Lo! The chieftainness appearrrs to be sensing something. What is going to happen next?"
  6: 0x0035 [0x23] WAIT_FOR_DIALOG_INTERACTION
  7: 0x0036 [0x20] SET_CLI_EVENT_UC_FLAG: Unlock player control
  8: 0x0038 [0x21] END_EVENT
  9: 0x0039 [0x00] END_REQSTACK()
```

### Event 351

#### Metadata

| Field        | Value   |
|--------------|---------|
| Entrypoint   | 0x003A  |
| Data Size    | 1 bytes |
| Instructions | 1       |

```
      00 01 02 03 04 05 06 07  08 09 0A 0B 0C 0D 0E 0F
      -- -- -- -- -- -- -- --  -- -- -- -- -- -- -- --
0030:                                00                           .     
```

#### Opcodes

```
  0: 0x003A [0x00] END_REQSTACK()
```

### Event 357

#### Metadata

| Field        | Value   |
|--------------|---------|
| Entrypoint   | 0x003B  |
| Data Size    | 1 bytes |
| Instructions | 1       |

```
      00 01 02 03 04 05 06 07  08 09 0A 0B 0C 0D 0E 0F
      -- -- -- -- -- -- -- --  -- -- -- -- -- -- -- --
0030:                                   00                         .    
```

#### Opcodes

```
  0: 0x003B [0x00] END_REQSTACK()
```

### Event 353

#### Metadata

| Field        | Value    |
|--------------|----------|
| Entrypoint   | 0x003C   |
| Data Size    | 19 bytes |
| Instructions | 10       |

```
      00 01 02 03 04 05 06 07  08 09 0A 0B 0C 0D 0E 0F
      -- -- -- -- -- -- -- --  -- -- -- -- -- -- -- --
0030:                                      1E F0 FF FF              ....
0040: 7F 6F 70 1D 06 80 23 1D  07 80 23 20 00 21 00     .op...#...# .!. 
```

#### Opcodes

```
  0: 0x003C [0x1E] EventEntity looks at LocalPlayer and starts talking
  1: 0x0041 [0x6F] WAIT_FRAME_DELAY: Yield until WaitTime reaches zero
  2: 0x0042 [0x70] WAIT_ENTITY_RENDER_FLAG: Wait while EventEntity->Render.Flags3 bit 2 is set (cancel turn if not)
  3: 0x0043 [0x1D] PRINT_EVENT_MESSAGE(message_id=8284*)
    → "The fanged king of the beasts is one of the grrreat tigers. It is a fearsome monster with swift feet and awesome power. Its teeth are very light yet extremely strong, perrrfect for making the best arrowheads."
  4: 0x0046 [0x23] WAIT_FOR_DIALOG_INTERACTION
  5: 0x0047 [0x1D] PRINT_EVENT_MESSAGE(message_id=8285*)
    → "From long ago they have dwelled on the Sauromugue Champaign, and we have learrrned much from them."
  6: 0x004A [0x23] WAIT_FOR_DIALOG_INTERACTION
  7: 0x004B [0x20] SET_CLI_EVENT_UC_FLAG: Unlock player control
  8: 0x004D [0x21] END_EVENT
  9: 0x004E [0x00] END_REQSTACK()
```

### Event 359

#### Metadata

| Field        | Value    |
|--------------|----------|
| Entrypoint   | 0x004F   |
| Data Size    | 19 bytes |
| Instructions | 10       |

```
      00 01 02 03 04 05 06 07  08 09 0A 0B 0C 0D 0E 0F
      -- -- -- -- -- -- -- --  -- -- -- -- -- -- -- --
0040:                                               1E                 .
0050: F0 FF FF 7F 6F 70 1D 08  80 23 1D 09 80 23 20 00  ....op...#...# .
0060: 21 00                                             !.              
```

#### Opcodes

```
  0: 0x004F [0x1E] EventEntity looks at LocalPlayer and starts talking
  1: 0x0054 [0x6F] WAIT_FRAME_DELAY: Yield until WaitTime reaches zero
  2: 0x0055 [0x70] WAIT_ENTITY_RENDER_FLAG: Wait while EventEntity->Render.Flags3 bit 2 is set (cancel turn if not)
  3: 0x0056 [0x1D] PRINT_EVENT_MESSAGE(message_id=8298*)
    → "Why do you suppose people lost their fangs? Perrrhaps it was because people stopped listening to nature's voice."
  4: 0x0059 [0x23] WAIT_FOR_DIALOG_INTERACTION
  5: 0x005A [0x1D] PRINT_EVENT_MESSAGE(message_id=8299*)
    → "That weapon you hold in your hands is but a temporrrary manifestation of a fang. Your true fangs exist within your hearrrt!"
  6: 0x005D [0x23] WAIT_FOR_DIALOG_INTERACTION
  7: 0x005E [0x20] SET_CLI_EVENT_UC_FLAG: Unlock player control
  8: 0x0060 [0x21] END_EVENT
  9: 0x0061 [0x00] END_REQSTACK()
```

### Event 527

#### Metadata

| Field        | Value   |
|--------------|---------|
| Entrypoint   | 0x0062  |
| Data Size    | 6 bytes |
| Instructions | 2       |

```
      00 01 02 03 04 05 06 07  08 09 0A 0B 0C 0D 0E 0F
      -- -- -- -- -- -- -- --  -- -- -- -- -- -- -- --
0060:       1E 76 10 0F 01 00                             .v....        
```

#### Opcodes

```
  0: 0x0062 [0x1E] EventEntity looks at Perih Vashai (ID: 17764470/0x010F1076) and starts talking
  1: 0x0067 [0x00] END_REQSTACK()
```

### Event 523

#### Metadata

| Field        | Value   |
|--------------|---------|
| Entrypoint   | 0x0068  |
| Data Size    | 1 bytes |
| Instructions | 1       |

```
      00 01 02 03 04 05 06 07  08 09 0A 0B 0C 0D 0E 0F
      -- -- -- -- -- -- -- --  -- -- -- -- -- -- -- --
0060:                          00                               .       
```

#### Opcodes

```
  0: 0x0068 [0x00] END_REQSTACK()
```

### Event 525

#### Metadata

| Field        | Value    |
|--------------|----------|
| Entrypoint   | 0x0069   |
| Data Size    | 19 bytes |
| Instructions | 10       |

```
      00 01 02 03 04 05 06 07  08 09 0A 0B 0C 0D 0E 0F
      -- -- -- -- -- -- -- --  -- -- -- -- -- -- -- --
0060:                             1E F0 FF FF 7F 6F 70           .....op
0070: 1D 0A 80 23 1D 0B 80 23  20 00 21 00              ...#...# .!.    
```

#### Opcodes

```
  0: 0x0069 [0x1E] EventEntity looks at LocalPlayer and starts talking
  1: 0x006E [0x6F] WAIT_FRAME_DELAY: Yield until WaitTime reaches zero
  2: 0x006F [0x70] WAIT_ENTITY_RENDER_FLAG: Wait while EventEntity->Render.Flags3 bit 2 is set (cancel turn if not)
  3: 0x0070 [0x1D] PRINT_EVENT_MESSAGE(message_id=8922*)
    → "A Mithran Tracker from the homeland has arrived."
  4: 0x0073 [0x23] WAIT_FOR_DIALOG_INTERACTION
  5: 0x0074 [0x1D] PRINT_EVENT_MESSAGE(message_id=8923*)
    → "It's been decades since... The sin will not be forgiven. Even if what happened was destiny..."
  6: 0x0077 [0x23] WAIT_FOR_DIALOG_INTERACTION
  7: 0x0078 [0x20] SET_CLI_EVENT_UC_FLAG: Unlock player control
  8: 0x007A [0x21] END_EVENT
  9: 0x007B [0x00] END_REQSTACK()
```

### Event 529

#### Metadata

| Field        | Value    |
|--------------|----------|
| Entrypoint   | 0x007C   |
| Data Size    | 19 bytes |
| Instructions | 10       |

```
      00 01 02 03 04 05 06 07  08 09 0A 0B 0C 0D 0E 0F
      -- -- -- -- -- -- -- --  -- -- -- -- -- -- -- --
0070:                                      1E F0 FF FF              ....
0080: 7F 6F 70 1D 0C 80 23 1D  0D 80 23 20 00 21 00     .op...#...# .!. 
```

#### Opcodes

```
  0: 0x007C [0x1E] EventEntity looks at LocalPlayer and starts talking
  1: 0x0081 [0x6F] WAIT_FRAME_DELAY: Yield until WaitTime reaches zero
  2: 0x0082 [0x70] WAIT_ENTITY_RENDER_FLAG: Wait while EventEntity->Render.Flags3 bit 2 is set (cancel turn if not)
  3: 0x0083 [0x1D] PRINT_EVENT_MESSAGE(message_id=8953*)
    → "The Mithran Tracker has come from the homeland of our people."
  4: 0x0086 [0x23] WAIT_FOR_DIALOG_INTERACTION
  5: 0x0087 [0x1D] PRINT_EVENT_MESSAGE(message_id=8954*)
    → "There was another time, twenty years ago, when a Mithran Tracker arrived from across the seas. However, that was not the same Mithra that was here a moment ago."
  6: 0x008A [0x23] WAIT_FOR_DIALOG_INTERACTION
  7: 0x008B [0x20] SET_CLI_EVENT_UC_FLAG: Unlock player control
  8: 0x008D [0x21] END_EVENT
  9: 0x008E [0x00] END_REQSTACK()
```

### Event 531

#### Metadata

| Field        | Value   |
|--------------|---------|
| Entrypoint   | 0x008F  |
| Data Size    | 1 bytes |
| Instructions | 1       |

```
      00 01 02 03 04 05 06 07  08 09 0A 0B 0C 0D 0E 0F
      -- -- -- -- -- -- -- --  -- -- -- -- -- -- -- --
0080:                                               00                 .
```

#### Opcodes

```
  0: 0x008F [0x00] END_REQSTACK()
```

### Event 537

#### Metadata

| Field        | Value   |
|--------------|---------|
| Entrypoint   | 0x0090  |
| Data Size    | 1 bytes |
| Instructions | 1       |

```
      00 01 02 03 04 05 06 07  08 09 0A 0B 0C 0D 0E 0F
      -- -- -- -- -- -- -- --  -- -- -- -- -- -- -- --
0090: 00                                                .               
```

#### Opcodes

```
  0: 0x0090 [0x00] END_REQSTACK()
```

### Event 535

#### Metadata

| Field        | Value   |
|--------------|---------|
| Entrypoint   | 0x0091  |
| Data Size    | 1 bytes |
| Instructions | 1       |

```
      00 01 02 03 04 05 06 07  08 09 0A 0B 0C 0D 0E 0F
      -- -- -- -- -- -- -- --  -- -- -- -- -- -- -- --
0090:    00                                              .              
```

#### Opcodes

```
  0: 0x0091 [0x00] END_REQSTACK()
```

### Event 533

#### Metadata

| Field        | Value    |
|--------------|----------|
| Entrypoint   | 0x0092   |
| Data Size    | 19 bytes |
| Instructions | 10       |

```
      00 01 02 03 04 05 06 07  08 09 0A 0B 0C 0D 0E 0F
      -- -- -- -- -- -- -- --  -- -- -- -- -- -- -- --
0090:       1E F0 FF FF 7F 6F  70 1D 0E 80 23 1D 0F 80    .....op...#...
00A0: 23 20 00 21 00                                    # .!.           
```

#### Opcodes

```
  0: 0x0092 [0x1E] EventEntity looks at LocalPlayer and starts talking
  1: 0x0097 [0x6F] WAIT_FRAME_DELAY: Yield until WaitTime reaches zero
  2: 0x0098 [0x70] WAIT_ENTITY_RENDER_FLAG: Wait while EventEntity->Render.Flags3 bit 2 is set (cancel turn if not)
  3: 0x0099 [0x1D] PRINT_EVENT_MESSAGE(message_id=9305*)
    → "Twenty years prrrevious, there was a sinner who escaped from her prrrison and fled to this continent."
  4: 0x009C [0x23] WAIT_FOR_DIALOG_INTERACTION
  5: 0x009D [0x1D] PRINT_EVENT_MESSAGE(message_id=9306*)
    → "There are few Mithra in Windurst who know of her tale. It is a low point in our historrry, and not a thing that is often spoke of..."
  6: 0x00A0 [0x23] WAIT_FOR_DIALOG_INTERACTION
  7: 0x00A1 [0x20] SET_CLI_EVENT_UC_FLAG: Unlock player control
  8: 0x00A3 [0x21] END_EVENT
  9: 0x00A4 [0x00] END_REQSTACK()
```

### Event 539

#### Metadata

| Field        | Value    |
|--------------|----------|
| Entrypoint   | 0x00A5   |
| Data Size    | 19 bytes |
| Instructions | 10       |

```
      00 01 02 03 04 05 06 07  08 09 0A 0B 0C 0D 0E 0F
      -- -- -- -- -- -- -- --  -- -- -- -- -- -- -- --
00A0:                1E F0 FF  FF 7F 6F 70 1D 10 80 23       .....op...#
00B0: 1D 11 80 23 20 00 21 00                           ...# .!.        
```

#### Opcodes

```
  0: 0x00A5 [0x1E] EventEntity looks at LocalPlayer and starts talking
  1: 0x00AA [0x6F] WAIT_FRAME_DELAY: Yield until WaitTime reaches zero
  2: 0x00AB [0x70] WAIT_ENTITY_RENDER_FLAG: Wait while EventEntity->Render.Flags3 bit 2 is set (cancel turn if not)
  3: 0x00AC [0x1D] PRINT_EVENT_MESSAGE(message_id=9336*)
    → "We Mithra receive the blessing of the earth in creating the chieftainness's bow."
  4: 0x00AF [0x23] WAIT_FOR_DIALOG_INTERACTION
  5: 0x00B0 [0x1D] PRINT_EVENT_MESSAGE(message_id=9337*)
    → "Chieftainness Perih Vashai received the blessing of this land when she made the Azure Bow."
  6: 0x00B3 [0x23] WAIT_FOR_DIALOG_INTERACTION
  7: 0x00B4 [0x20] SET_CLI_EVENT_UC_FLAG: Unlock player control
  8: 0x00B6 [0x21] END_EVENT
  9: 0x00B7 [0x00] END_REQSTACK()
```

### Event 541

#### Metadata

| Field        | Value   |
|--------------|---------|
| Entrypoint   | 0x00B8  |
| Data Size    | 1 bytes |
| Instructions | 1       |

```
      00 01 02 03 04 05 06 07  08 09 0A 0B 0C 0D 0E 0F
      -- -- -- -- -- -- -- --  -- -- -- -- -- -- -- --
00B0:                          00                               .       
```

#### Opcodes

```
  0: 0x00B8 [0x00] END_REQSTACK()
```

### Event 546

#### Metadata

| Field        | Value   |
|--------------|---------|
| Entrypoint   | 0x00B9  |
| Data Size    | 1 bytes |
| Instructions | 1       |

```
      00 01 02 03 04 05 06 07  08 09 0A 0B 0C 0D 0E 0F
      -- -- -- -- -- -- -- --  -- -- -- -- -- -- -- --
00B0:                             00                             .      
```

#### Opcodes

```
  0: 0x00B9 [0x00] END_REQSTACK()
```

### Event 65535.1

#### Metadata

| Field        | Value    |
|--------------|----------|
| Entrypoint   | 0x00BA   |
| Data Size    | 10 bytes |
| Instructions | 2        |

```
      00 01 02 03 04 05 06 07  08 09 0A 0B 0C 0D 0E 0F
      -- -- -- -- -- -- -- --  -- -- -- -- -- -- -- --
00B0:                                37 12 80 13 80 14            7.....
00C0: 80 15 80 00                                       ....            
```

#### Opcodes

```
  0: 0x00BA [0x37] UPDATE_EVENT_POSITION_AND_DIR: x=120.222*, z=100.907*, y=-3.749*, direction=90.0°*
  1: 0x00C3 [0x00] END_REQSTACK()
```

### Event 543

#### Metadata

| Field        | Value    |
|--------------|----------|
| Entrypoint   | 0x00C4   |
| Data Size    | 19 bytes |
| Instructions | 10       |

```
      00 01 02 03 04 05 06 07  08 09 0A 0B 0C 0D 0E 0F
      -- -- -- -- -- -- -- --  -- -- -- -- -- -- -- --
00C0:             1E F0 FF FF  7F 6F 70 1D 16 80 23 1D      .....op...#.
00D0: 17 80 23 20 00 21 00                              ..# .!.         
```

#### Opcodes

```
  0: 0x00C4 [0x1E] EventEntity looks at LocalPlayer and starts talking
  1: 0x00C9 [0x6F] WAIT_FRAME_DELAY: Yield until WaitTime reaches zero
  2: 0x00CA [0x70] WAIT_ENTITY_RENDER_FLAG: Wait while EventEntity->Render.Flags3 bit 2 is set (cancel turn if not)
  3: 0x00CB [0x1D] PRINT_EVENT_MESSAGE(message_id=9357*)
    → "The chieftainness wishes Semih Lafihna to see the trrruth with her own eyes."
  4: 0x00CE [0x23] WAIT_FOR_DIALOG_INTERACTION
  5: 0x00CF [0x1D] PRINT_EVENT_MESSAGE(message_id=9358*)
    → "Everything becomes clear when you choose to see of your own free will. "Will" represents the eye of the spirit. As a ranger, the vision of your spirit must not become clouded..."
  6: 0x00D2 [0x23] WAIT_FOR_DIALOG_INTERACTION
  7: 0x00D3 [0x20] SET_CLI_EVENT_UC_FLAG: Unlock player control
  8: 0x00D5 [0x21] END_EVENT
  9: 0x00D6 [0x00] END_REQSTACK()
```

### Event 548

#### Metadata

| Field        | Value    |
|--------------|----------|
| Entrypoint   | 0x00D7   |
| Data Size    | 19 bytes |
| Instructions | 10       |

```
      00 01 02 03 04 05 06 07  08 09 0A 0B 0C 0D 0E 0F
      -- -- -- -- -- -- -- --  -- -- -- -- -- -- -- --
00D0:                      1E  F0 FF FF 7F 6F 70 1D 18         .....op..
00E0: 80 23 1D 19 80 23 20 00  21 00                    .#...# .!.      
```

#### Opcodes

```
  0: 0x00D7 [0x1E] EventEntity looks at LocalPlayer and starts talking
  1: 0x00DC [0x6F] WAIT_FRAME_DELAY: Yield until WaitTime reaches zero
  2: 0x00DD [0x70] WAIT_ENTITY_RENDER_FLAG: Wait while EventEntity->Render.Flags3 bit 2 is set (cancel turn if not)
  3: 0x00DE [0x1D] PRINT_EVENT_MESSAGE(message_id=9390*)
    → "All of the children taken in by Heavens Tower lost their mothers. Under normal circumstances, they would be sent to our homeland to be cared for by other Mithra."
  4: 0x00E1 [0x23] WAIT_FOR_DIALOG_INTERACTION
  5: 0x00E2 [0x1D] PRINT_EVENT_MESSAGE(message_id=9391*)
    → "You rrrealize why they were not sent to the homeland, don't you? The chieftainness wished to watch over the growth of her child, Semih Lafihna...Even if it meant being despised..."
  6: 0x00E5 [0x23] WAIT_FOR_DIALOG_INTERACTION
  7: 0x00E6 [0x20] SET_CLI_EVENT_UC_FLAG: Unlock player control
  8: 0x00E8 [0x21] END_EVENT
  9: 0x00E9 [0x00] END_REQSTACK()
```

### Event 639

#### Metadata

| Field        | Value    |
|--------------|----------|
| Entrypoint   | 0x00EA   |
| Data Size    | 19 bytes |
| Instructions | 10       |

```
      00 01 02 03 04 05 06 07  08 09 0A 0B 0C 0D 0E 0F
      -- -- -- -- -- -- -- --  -- -- -- -- -- -- -- --
00E0:                                1E F0 FF FF 7F 6F            .....o
00F0: 70 1D 1A 80 23 1D 1B 80  23 20 00 21 00           p...#...# .!.   
```

#### Opcodes

```
  0: 0x00EA [0x1E] EventEntity looks at LocalPlayer and starts talking
  1: 0x00EF [0x6F] WAIT_FRAME_DELAY: Yield until WaitTime reaches zero
  2: 0x00F0 [0x70] WAIT_ENTITY_RENDER_FLAG: Wait while EventEntity->Render.Flags3 bit 2 is set (cancel turn if not)
  3: 0x00F1 [0x1D] PRINT_EVENT_MESSAGE(message_id=9681*)
    → "There is no need for panic. We alrrready have details on the enemy's army within our grrrasp."
  4: 0x00F4 [0x23] WAIT_FOR_DIALOG_INTERACTION
  5: 0x00F5 [0x1D] PRINT_EVENT_MESSAGE(message_id=9682*)
    → "We have done more than simply glare at the Yagudo these past twenty years."
  6: 0x00F8 [0x23] WAIT_FOR_DIALOG_INTERACTION
  7: 0x00F9 [0x20] SET_CLI_EVENT_UC_FLAG: Unlock player control
  8: 0x00FB [0x21] END_EVENT
  9: 0x00FC [0x00] END_REQSTACK()
```

### Event 643

#### Metadata

| Field        | Value    |
|--------------|----------|
| Entrypoint   | 0x00FD   |
| Data Size    | 19 bytes |
| Instructions | 10       |

```
      00 01 02 03 04 05 06 07  08 09 0A 0B 0C 0D 0E 0F
      -- -- -- -- -- -- -- --  -- -- -- -- -- -- -- --
00F0:                                         1E F0 FF               ...
0100: FF 7F 6F 70 1D 1C 80 23  1D 1D 80 23 20 00 21 00  ..op...#...# .!.
```

#### Opcodes

```
  0: 0x00FD [0x1E] EventEntity looks at LocalPlayer and starts talking
  1: 0x0102 [0x6F] WAIT_FRAME_DELAY: Yield until WaitTime reaches zero
  2: 0x0103 [0x70] WAIT_ENTITY_RENDER_FLAG: Wait while EventEntity->Render.Flags3 bit 2 is set (cancel turn if not)
  3: 0x0104 [0x1D] PRINT_EVENT_MESSAGE(message_id=9719*)
    → "There was a place in Kazham where you could feel the power of the land."
  4: 0x0107 [0x23] WAIT_FOR_DIALOG_INTERACTION
  5: 0x0108 [0x1D] PRINT_EVENT_MESSAGE(message_id=9720*)
    → "Twenty years ago that same grrreat energy overflowed from the plains of Sarutabaruta. All of our trrroubles began with the loss of that power."
  6: 0x010B [0x23] WAIT_FOR_DIALOG_INTERACTION
  7: 0x010C [0x20] SET_CLI_EVENT_UC_FLAG: Unlock player control
  8: 0x010E [0x21] END_EVENT
  9: 0x010F [0x00] END_REQSTACK()
```

### Event 661

#### Metadata

| Field        | Value   |
|--------------|---------|
| Entrypoint   | 0x0110  |
| Data Size    | 1 bytes |
| Instructions | 1       |

```
      00 01 02 03 04 05 06 07  08 09 0A 0B 0C 0D 0E 0F
      -- -- -- -- -- -- -- --  -- -- -- -- -- -- -- --
0110: 00                                                .               
```

#### Opcodes

```
  0: 0x0110 [0x00] END_REQSTACK()
```

### Event 664

#### Metadata

| Field        | Value   |
|--------------|---------|
| Entrypoint   | 0x0111  |
| Data Size    | 1 bytes |
| Instructions | 1       |

```
      00 01 02 03 04 05 06 07  08 09 0A 0B 0C 0D 0E 0F
      -- -- -- -- -- -- -- --  -- -- -- -- -- -- -- --
0110:    00                                              .              
```

#### Opcodes

```
  0: 0x0111 [0x00] END_REQSTACK()
```

### Event 666

#### Metadata

| Field        | Value   |
|--------------|---------|
| Entrypoint   | 0x0112  |
| Data Size    | 1 bytes |
| Instructions | 1       |

```
      00 01 02 03 04 05 06 07  08 09 0A 0B 0C 0D 0E 0F
      -- -- -- -- -- -- -- --  -- -- -- -- -- -- -- --
0110:       00                                            .             
```

#### Opcodes

```
  0: 0x0112 [0x00] END_REQSTACK()
```

### Event 686

#### Metadata

| Field        | Value   |
|--------------|---------|
| Entrypoint   | 0x0113  |
| Data Size    | 7 bytes |
| Instructions | 2       |

```
      00 01 02 03 04 05 06 07  08 09 0A 0B 0C 0D 0E 0F
      -- -- -- -- -- -- -- --  -- -- -- -- -- -- -- --
0110:          94 01 F8 FF FF  7F 00                       .......      
```

#### Opcodes

```
  0: 0x0113 [0x94] EventEntity->Render.Flags3 ^= 0x01
  1: 0x0119 [0x00] END_REQSTACK()
```

### Event 65535.2

#### Metadata

| Field        | Value    |
|--------------|----------|
| Entrypoint   | 0x011A   |
| Data Size    | 10 bytes |
| Instructions | 2        |

```
      00 01 02 03 04 05 06 07  08 09 0A 0B 0C 0D 0E 0F
      -- -- -- -- -- -- -- --  -- -- -- -- -- -- -- --
0110:                                37 1E 80 1F 80 20            7.... 
0120: 80 21 80 00                                       .!..            
```

#### Opcodes

```
  0: 0x011A [0x37] UPDATE_EVENT_POSITION_AND_DIR: x=120.000*, z=94.000*, y=-3.750*, direction=160.3°*
  1: 0x0123 [0x00] END_REQSTACK()
```

### Event 869

#### Metadata

| Field        | Value   |
|--------------|---------|
| Entrypoint   | 0x0124  |
| Data Size    | 1 bytes |
| Instructions | 1       |

```
      00 01 02 03 04 05 06 07  08 09 0A 0B 0C 0D 0E 0F
      -- -- -- -- -- -- -- --  -- -- -- -- -- -- -- --
0120:             00                                        .           
```

#### Opcodes

```
  0: 0x0124 [0x00] END_REQSTACK()
```
