# 17764427

## Common Data

| Field            | Value                    |
|------------------|--------------------------|
| Zone             | Windurst Woods (ID: 241) |
| Block Size       | 1808 bytes               |
| Total Events     | 36                       |
| References Count | 166                      |

## List of Events

| Event ID                   | Entrypoint   |   Size |   Instructions |
|----------------------------|--------------|--------|----------------|
| [65535](#event-65535)      | 0x0000       |      1 |              1 |
| [746](#event-746)          | 0x0001       |      1 |              1 |
| [742](#event-742)          | 0x0002       |      1 |              1 |
| [65535.1](#event-655351)   | 0x0003       |     11 |              3 |
| [65535.2](#event-655352)   | 0x000E       |     25 |              3 |
| [65535.3](#event-655353)   | 0x0027       |     15 |              2 |
| [65535.4](#event-655354)   | 0x0036       |     12 |              3 |
| [65535.5](#event-655355)   | 0x0042       |     10 |              2 |
| [65535.6](#event-655356)   | 0x004C       |    131 |             26 |
| [65535.7](#event-655357)   | 0x00CF       |    131 |             26 |
| [65535.8](#event-655358)   | 0x0152       |     10 |              2 |
| [65535.9](#event-655359)   | 0x015C       |     14 |              4 |
| [65535.10](#event-6553510) | 0x016A       |     11 |              3 |
| [65535.11](#event-6553511) | 0x0175       |     11 |              3 |
| [65535.12](#event-6553512) | 0x0180       |     11 |              3 |
| [65535.13](#event-6553513) | 0x018B       |     14 |              4 |
| [65535.14](#event-6553514) | 0x0199       |     10 |              2 |
| [65535.15](#event-6553515) | 0x01A3       |     10 |              2 |
| [65535.16](#event-6553516) | 0x01AD       |     19 |              5 |
| [65535.17](#event-6553517) | 0x01C0       |     10 |              2 |
| [65535.18](#event-6553518) | 0x01CA       |     19 |              5 |
| [65535.19](#event-6553519) | 0x01DD       |     10 |              2 |
| [65535.20](#event-6553520) | 0x01E7       |     19 |              5 |
| [65535.21](#event-6553521) | 0x01FA       |     10 |              2 |
| [65535.22](#event-6553522) | 0x0204       |     84 |             18 |
| [776](#event-776)          | 0x0258       |      1 |              1 |
| [65535.23](#event-6553523) | 0x0259       |     15 |              3 |
| [65535.24](#event-6553524) | 0x0268       |     48 |             11 |
| [65535.25](#event-6553525) | 0x0298       |      6 |              2 |
| [65535.26](#event-6553526) | 0x029E       |     15 |              3 |
| [65535.27](#event-6553527) | 0x02AD       |     80 |             18 |
| [65535.28](#event-6553528) | 0x02FD       |     67 |             15 |
| [65535.29](#event-6553529) | 0x0340       |     14 |              4 |
| [65535.30](#event-6553530) | 0x034E       |     51 |             11 |
| [65535.31](#event-6553531) | 0x0381       |     15 |              3 |
| [65535.32](#event-6553532) | 0x0390       |     69 |             15 |

## DAT References (imed_data)

|   Index | Hex Value   |   Dec Value |
|---------|-------------|-------------|
|       0 | 0x0001      |           1 |
|       1 | 0xFFFFD026  |  4294955046 |
|       2 | 0xFFFE38C2  |  4294850754 |
|       3 | 0xFFFFFED4  |  4294966996 |
|       4 | 0x0C0C      |        3084 |
|       5 | 0x1E1D1     |      123345 |
|       6 | 0xFFFE7448  |  4294865992 |
|       7 | 0xFFFFEC78  |  4294962296 |
|       8 | 0x0D2B      |        3371 |
|       9 | 0x0046      |          70 |
|      10 | 0x1EC63     |      126051 |
|      11 | 0xFFFE75F9  |  4294866425 |
|      12 | 0x1F133     |      127283 |
|      13 | 0xFFFE6C8E  |  4294864014 |
|      14 | 0x1EA21     |      125473 |
|      15 | 0xFFFE6447  |  4294861895 |
|      16 | 0x1E0C1     |      123073 |
|      17 | 0xFFFE59DF  |  4294859231 |
|      18 | 0x1E499     |      124057 |
|      19 | 0xFFFE5044  |  4294856772 |
|      20 | 0x1ED76     |      126326 |
|      21 | 0xFFFE5055  |  4294856789 |
|      22 | 0x1F4D1     |      128209 |
|      23 | 0xFFFE5989  |  4294859145 |
|      24 | 0x1EAE7     |      125671 |
|      25 | 0xFFFE622D  |  4294861357 |
|      26 | 0x1DC90     |      122000 |
|      27 | 0xFFFE69C0  |  4294863296 |
|      28 | 0x0000      |           0 |
|      29 | 0x1D8A1     |      120993 |
|      30 | 0xFFFE429C  |  4294853276 |
|      31 | 0xFFFFEC79  |  4294962297 |
|      32 | 0x0C2A      |        3114 |
|      33 | 0x1D957     |      121175 |
|      34 | 0xFFFE4958  |  4294855000 |
|      35 | 0x1DA38     |      121400 |
|      36 | 0xFFFE5132  |  4294857010 |
|      37 | 0x1DA0E     |      121358 |
|      38 | 0xFFFE5945  |  4294859077 |
|      39 | 0x1DAB5     |      121525 |
|      40 | 0xFFFE6203  |  4294861315 |
|      41 | 0x1F568     |      128360 |
|      42 | 0xFFFE5787  |  4294858631 |
|      43 | 0xFFFD1AA4  |  4294777508 |
|      44 | 0xFFFA446D  |  4294591597 |
|      45 | 0xFFFFFE0D  |  4294966797 |
|      46 | 0x017B      |         379 |
|      47 | 0xFFFF816F  |  4294934895 |
|      48 | 0xFFFDED64  |  4294831460 |
|      49 | 0xFFFFFEBD  |  4294966973 |
|      50 | 0x0635      |        1589 |
|      51 | 0x000F      |          15 |
|      52 | 0xFFFFA0EE  |  4294942958 |
|      53 | 0xFFFDF61D  |  4294833693 |
|      54 | 0x04C0      |        1216 |
|      55 | 0x20CE9     |      134377 |
|      56 | 0xFFFD7A1A  |  4294801946 |
|      57 | 0xFFFFD53A  |  4294956346 |
|      58 | 0x0048      |          72 |
|      59 | 0x22540     |      140608 |
|      60 | 0xFFFD7ACC  |  4294802124 |
|      61 | 0xFFFFCE55  |  4294954581 |
|      62 | 0xA1589     |      660873 |
|      63 | 0xFFF9BB5B  |  4294556507 |
|      64 | 0x021A      |         538 |
|      65 | 0x03C0      |         960 |
|      66 | 0xA1769     |      661353 |
|      67 | 0xFFF9A75A  |  4294551386 |
|      68 | 0x018E      |         398 |
|      69 | 0xFFFEF6FA  |  4294899450 |
|      70 | 0xFFF86AB6  |  4294470326 |
|      71 | 0xFFFFEB5A  |  4294962010 |
|      72 | 0x0C41      |        3137 |
|      73 | 0xFFFEFE4E  |  4294901326 |
|      74 | 0xFFF8E38E  |  4294501262 |
|      75 | 0xFFFFEFE4  |  4294963172 |
|      76 | 0xFFFEF8C4  |  4294899908 |
|      77 | 0xFFF94E5F  |  4294528607 |
|      78 | 0xFFFFF254  |  4294963796 |
|      79 | 0xFFFF0E68  |  4294905448 |
|      80 | 0xFFF99696  |  4294547094 |
|      81 | 0xFFFF669C  |  4294928028 |
|      82 | 0xFFF9AC50  |  4294552656 |
|      83 | 0xFFFFED1C  |  4294962460 |
|      84 | 0xFFF6C3EF  |  4294362095 |
|      85 | 0x93FF1     |      606193 |
|      86 | 0x00A7      |         167 |
|      87 | 0x0179      |         377 |
|      88 | 0x0002      |           2 |
|      89 | 0xFFF6C0EC  |  4294361324 |
|      90 | 0x945D1     |      607697 |
|      91 | 0x0004      |           4 |
|      92 | 0xFFF6B7E2  |  4294359010 |
|      93 | 0x94244     |      606788 |
|      94 | 0xFFFFFFC0  |  4294967232 |
|      95 | 0x003C      |          60 |
|      96 | 0xFFF6BED4  |  4294360788 |
|      97 | 0x946D6     |      607958 |
|      98 | 0xFFFFFFCF  |  4294967247 |
|      99 | 0xFFF6D7C0  |  4294367168 |
|     100 | 0x8EF6A     |      585578 |
|     101 | 0x0274      |         628 |
|     102 | 0x011C      |         284 |
|     103 | 0xFFF6D0CA  |  4294365386 |
|     104 | 0x8F7DF     |      587743 |
|     105 | 0x0112      |         274 |
|     106 | 0xFFF6D779  |  4294367097 |
|     107 | 0x8FCC2     |      588994 |
|     108 | 0x015B      |         347 |
|     109 | 0xFFF6DB55  |  4294368085 |
|     110 | 0x8F169     |      586089 |
|     111 | 0x024A      |         586 |
|     112 | 0xFFF6DAA1  |  4294367905 |
|     113 | 0x8E6CF     |      583375 |
|     114 | 0x033E      |         830 |
|     115 | 0x001E      |          30 |
|     116 | 0x0C58      |        3160 |
|     117 | 0x0078      |         120 |
|     118 | 0xFFF6D069  |  4294365289 |
|     119 | 0x8F7F4     |      587764 |
|     120 | 0x010C      |         268 |
|     121 | 0x0154      |         340 |
|     122 | 0x002D      |          45 |
|     123 | 0xFFF6DB01  |  4294368001 |
|     124 | 0x90356     |      590678 |
|     125 | 0x0108      |         264 |
|     126 | 0x03BF      |         959 |
|     127 | 0xFFF6C73F  |  4294362943 |
|     128 | 0x8F234     |      586292 |
|     129 | 0x008A      |         138 |
|     130 | 0x0025      |          37 |
|     131 | 0x00F0      |         240 |
|     132 | 0xFFF6D6F8  |  4294366968 |
|     133 | 0x8E30A     |      582410 |
|     134 | 0x0322      |         802 |
|     135 | 0x0BD3      |        3027 |
|     136 | 0xFFF6DB94  |  4294368148 |
|     137 | 0x8FCF3     |      589043 |
|     138 | 0x0159      |         345 |
|     139 | 0xFFF6C79F  |  4294363039 |
|     140 | 0x8F34D     |      586573 |
|     141 | 0x0039      |          57 |
|     142 | 0xFFF6CB4A  |  4294363978 |
|     143 | 0x8FAEF     |      588527 |
|     144 | 0x00C4      |         196 |
|     145 | 0xFFF6D269  |  4294365801 |
|     146 | 0x8F138     |      586040 |
|     147 | 0x01F0      |         496 |
|     148 | 0xFFF6CEAA  |  4294364842 |
|     149 | 0x8FA2D     |      588333 |
|     150 | 0x00F7      |         247 |
|     151 | 0xFFF6CA0E  |  4294363662 |
|     152 | 0x8EFB9     |      585657 |
|     153 | 0x0090      |         144 |
|     154 | 0xFFF6CECB  |  4294364875 |
|     155 | 0x8E418     |      582680 |
|     156 | 0x018C      |         396 |
|     157 | 0xFFF6DB79  |  4294368121 |
|     158 | 0x8E4F3     |      582899 |
|     159 | 0x0356      |         854 |
|     160 | 0xFFF6DE60  |  4294368864 |
|     161 | 0x8F7D9     |      587737 |
|     162 | 0x019A      |         410 |
|     163 | 0xFFF6D8AE  |  4294367406 |
|     164 | 0x8FE78     |      589432 |
|     165 | 0x0146      |         326 |

## Events

### Event 65535

#### Metadata

| Field        | Value   |
|--------------|---------|
| Entrypoint   | 0x0000  |
| Data Size    | 1 bytes |
| Instructions | 1       |

```
      00 01 02 03 04 05 06 07  08 09 0A 0B 0C 0D 0E 0F
      -- -- -- -- -- -- -- --  -- -- -- -- -- -- -- --
0000: 00                                                .               
```

#### Opcodes

```
  0: 0x0000 [0x00] END_REQSTACK()
```

### Event 746

#### Metadata

| Field        | Value   |
|--------------|---------|
| Entrypoint   | 0x0001  |
| Data Size    | 1 bytes |
| Instructions | 1       |

```
      00 01 02 03 04 05 06 07  08 09 0A 0B 0C 0D 0E 0F
      -- -- -- -- -- -- -- --  -- -- -- -- -- -- -- --
0000:    00                                              .              
```

#### Opcodes

```
  0: 0x0001 [0x00] END_REQSTACK()
```

### Event 742

#### Metadata

| Field        | Value   |
|--------------|---------|
| Entrypoint   | 0x0002  |
| Data Size    | 1 bytes |
| Instructions | 1       |

```
      00 01 02 03 04 05 06 07  08 09 0A 0B 0C 0D 0E 0F
      -- -- -- -- -- -- -- --  -- -- -- -- -- -- -- --
0000:       00                                            .             
```

#### Opcodes

```
  0: 0x0002 [0x00] END_REQSTACK()
```

### Event 65535.1

#### Metadata

| Field        | Value    |
|--------------|----------|
| Entrypoint   | 0x0003   |
| Data Size    | 11 bytes |
| Instructions | 3        |

```
      00 01 02 03 04 05 06 07  08 09 0A 0B 0C 0D 0E 0F
      -- -- -- -- -- -- -- --  -- -- -- -- -- -- -- --
0000:          B4 01 00 00 00  80 B5 00 00 00 00           ...........  
```

#### Opcodes

```
  0: 0x0003 [0xB4] UI_WINDOW_STRING_HANDLER(case=0x01 - Copy string from event strings table, work_offset=ExtData[1]->WorkLocal[0], string_index=1*)
  1: 0x0009 [0xB5] SET_EVENT_ENTITY_NAME: Change EventEntity name to ExtData[1]->WorkLocal[0]
  2: 0x000D [0x00] END_REQSTACK()
```

### Event 65535.2

#### Metadata

| Field        | Value    |
|--------------|----------|
| Entrypoint   | 0x000E   |
| Data Size    | 25 bytes |
| Instructions | 3        |

```
      00 01 02 03 04 05 06 07  08 09 0A 0B 0C 0D 0E 0F
      -- -- -- -- -- -- -- --  -- -- -- -- -- -- -- --
0000:                                            B4 00                ..
0010: 00 00 43 68 6F 63 6F 62  6F 00 00 00 00 00 00 00  ..Chocobo.......
0020: 00 00 B5 00 00 00 00                              .......         
```

#### Opcodes

```
  0: 0x000E [0xB4] UI_WINDOW_STRING_HANDLER(case=0x00 - Copy string from opcode, work_offset=ExtData[1]->WorkLocal[0], string="Chocobo")
  1: 0x0022 [0xB5] SET_EVENT_ENTITY_NAME: Change EventEntity name to ExtData[1]->WorkLocal[0]
  2: 0x0026 [0x00] END_REQSTACK()
```

### Event 65535.3

#### Metadata

| Field        | Value    |
|--------------|----------|
| Entrypoint   | 0x0027   |
| Data Size    | 15 bytes |
| Instructions | 2        |

```
      00 01 02 03 04 05 06 07  08 09 0A 0B 0C 0D 0E 0F
      -- -- -- -- -- -- -- --  -- -- -- -- -- -- -- --
0020:                      B6  0D 04 10 05 10 06 10 07         .........
0030: 10 08 10 09 10 00                                 ......          
```

#### Opcodes

```
  0: 0x0027 [0xB6] ENTITY_APPEARANCE_HANDLER(case=Look with Render flags, race=Work_Zone[4], face=Work_Zone[5], head=Work_Zone[6], body=Work_Zone[7], hands=Work_Zone[8], render_flags=0x1009)
  1: 0x0035 [0x00] END_REQSTACK()
```

### Event 65535.4

#### Metadata

| Field        | Value    |
|--------------|----------|
| Entrypoint   | 0x0036   |
| Data Size    | 12 bytes |
| Instructions | 3        |

```
      00 01 02 03 04 05 06 07  08 09 0A 0B 0C 0D 0E 0F
      -- -- -- -- -- -- -- --  -- -- -- -- -- -- -- --
0030:                   33 01  37 01 80 02 80 03 80 04        3.7.......
0040: 80 00                                             ..              
```

#### Opcodes

```
  0: 0x0036 [0x33] EventEntity->Render.Flags0 |= 0x200000 // Bit 21 (flag=0x01)
  1: 0x0038 [0x37] UPDATE_EVENT_POSITION_AND_DIR: x=-12.250*, z=-116.542*, y=-0.300*, direction=271.0°*
  2: 0x0041 [0x00] END_REQSTACK()
```

### Event 65535.5

#### Metadata

| Field        | Value    |
|--------------|----------|
| Entrypoint   | 0x0042   |
| Data Size    | 10 bytes |
| Instructions | 2        |

```
      00 01 02 03 04 05 06 07  08 09 0A 0B 0C 0D 0E 0F
      -- -- -- -- -- -- -- --  -- -- -- -- -- -- -- --
0040:       37 05 80 06 80 07  80 08 80 00                7.........    
```

#### Opcodes

```
  0: 0x0042 [0x37] UPDATE_EVENT_POSITION_AND_DIR: x=123.345*, z=-101.304*, y=-5.000*, direction=296.3°*
  1: 0x004B [0x00] END_REQSTACK()
```

### Event 65535.6

#### Metadata

| Field        | Value     |
|--------------|-----------|
| Entrypoint   | 0x004C    |
| Data Size    | 131 bytes |
| Instructions | 26        |

```
      00 01 02 03 04 05 06 07  08 09 0A 0B 0C 0D 0E 0F
      -- -- -- -- -- -- -- --  -- -- -- -- -- -- -- --
0040:                                      32 09 80 1F              2...
0050: 00 0A 80 0B 80 07 80 1F  01 1F 00 0C 80 0D 80 07  ................
0060: 80 1F 01 1F 00 0E 80 0F  80 07 80 1F 01 1F 00 10  ................
0070: 80 11 80 07 80 1F 01 1F  00 12 80 13 80 07 80 1F  ................
0080: 01 1F 00 14 80 15 80 07  80 1F 01 1F 00 16 80 17  ................
0090: 80 07 80 1F 01 1F 00 18  80 19 80 07 80 1F 01 1F  ................
00A0: 00 1A 80 1B 80 07 80 1F  01 1F 00 05 80 06 80 07  ................
00B0: 80 1F 01 02 4D 10 1C 80  00 C5 00 27 05 4B 10 0F  ....M......'.K..
00C0: 01 09 01 CE 00 37 1C 80  1C 80 1C 80 1C 80 00     .....7......... 
```

#### Opcodes

```
  0: 0x004C [0x32] ExtData[1]->MainSpeed = 70* * 0.1
  1: 0x004F [0x1F] MOVE_ENTITY: EventEntity moves to X=126.051*, Z=-100.871*, Y=-5.000*
  2: 0x0057 [0x1F] MOVE_ENTITY: Update entity position (mode=1)
  3: 0x0059 [0x1F] MOVE_ENTITY: EventEntity moves to X=127.283*, Z=-103.282*, Y=-5.000*
  4: 0x0061 [0x1F] MOVE_ENTITY: Update entity position (mode=1)
  5: 0x0063 [0x1F] MOVE_ENTITY: EventEntity moves to X=125.473*, Z=-105.401*, Y=-5.000*
  6: 0x006B [0x1F] MOVE_ENTITY: Update entity position (mode=1)
  7: 0x006D [0x1F] MOVE_ENTITY: EventEntity moves to X=123.073*, Z=-108.065*, Y=-5.000*
  8: 0x0075 [0x1F] MOVE_ENTITY: Update entity position (mode=1)
  9: 0x0077 [0x1F] MOVE_ENTITY: EventEntity moves to X=124.057*, Z=-110.524*, Y=-5.000*
 10: 0x007F [0x1F] MOVE_ENTITY: Update entity position (mode=1)
 11: 0x0081 [0x1F] MOVE_ENTITY: EventEntity moves to X=126.326*, Z=-110.507*, Y=-5.000*
 12: 0x0089 [0x1F] MOVE_ENTITY: Update entity position (mode=1)
 13: 0x008B [0x1F] MOVE_ENTITY: EventEntity moves to X=128.209*, Z=-108.151*, Y=-5.000*
 14: 0x0093 [0x1F] MOVE_ENTITY: Update entity position (mode=1)
 15: 0x0095 [0x1F] MOVE_ENTITY: EventEntity moves to X=125.671*, Z=-105.939*, Y=-5.000*
 16: 0x009D [0x1F] MOVE_ENTITY: Update entity position (mode=1)
 17: 0x009F [0x1F] MOVE_ENTITY: EventEntity moves to X=122.000*, Z=-104.000*, Y=-5.000*
 18: 0x00A7 [0x1F] MOVE_ENTITY: Update entity position (mode=1)
 19: 0x00A9 [0x1F] MOVE_ENTITY: EventEntity moves to X=123.345*, Z=-101.304*, Y=-5.000*
 20: 0x00B1 [0x1F] MOVE_ENTITY: Update entity position (mode=1)
 21: 0x00B3 [0x02] IF !(Work_Zone[77] == 0*) GOTO 0x00C5
 22: 0x00BB [0x27] REQ_SET(priority=0x05, entity_id=Unnamed NPC (ID: 17764427/0x010F104B), tag_num=0x09)
 23: 0x00C2 [0x01] GOTO 0x00CE
 24: 0x00C5 [0x37] UPDATE_EVENT_POSITION_AND_DIR: x=0.000*, z=0.000*, y=0.000*, direction=0.0°*

SUBROUTINE_00CE:
 25: 0x00CE [0x00] END_REQSTACK()
```

### Event 65535.7

#### Metadata

| Field        | Value     |
|--------------|-----------|
| Entrypoint   | 0x00CF    |
| Data Size    | 131 bytes |
| Instructions | 26        |

```
      00 01 02 03 04 05 06 07  08 09 0A 0B 0C 0D 0E 0F
      -- -- -- -- -- -- -- --  -- -- -- -- -- -- -- --
00C0:                                               32                 2
00D0: 09 80 1F 00 0A 80 0B 80  07 80 1F 01 1F 00 0C 80  ................
00E0: 0D 80 07 80 1F 01 1F 00  0E 80 0F 80 07 80 1F 01  ................
00F0: 1F 00 10 80 11 80 07 80  1F 01 1F 00 12 80 13 80  ................
0100: 07 80 1F 01 1F 00 14 80  15 80 07 80 1F 01 1F 00  ................
0110: 16 80 17 80 07 80 1F 01  1F 00 18 80 19 80 07 80  ................
0120: 1F 01 1F 00 1A 80 1B 80  07 80 1F 01 1F 00 05 80  ................
0130: 06 80 07 80 1F 01 02 4D  10 1C 80 00 48 01 27 05  .......M....H.'.
0140: 4B 10 0F 01 08 01 51 01  37 1C 80 1C 80 1C 80 1C  K.....Q.7.......
0150: 80 00                                             ..              
```

#### Opcodes

```
  0: 0x00CF [0x32] ExtData[1]->MainSpeed = 70* * 0.1
  1: 0x00D2 [0x1F] MOVE_ENTITY: EventEntity moves to X=126.051*, Z=-100.871*, Y=-5.000*
  2: 0x00DA [0x1F] MOVE_ENTITY: Update entity position (mode=1)
  3: 0x00DC [0x1F] MOVE_ENTITY: EventEntity moves to X=127.283*, Z=-103.282*, Y=-5.000*
  4: 0x00E4 [0x1F] MOVE_ENTITY: Update entity position (mode=1)
  5: 0x00E6 [0x1F] MOVE_ENTITY: EventEntity moves to X=125.473*, Z=-105.401*, Y=-5.000*
  6: 0x00EE [0x1F] MOVE_ENTITY: Update entity position (mode=1)
  7: 0x00F0 [0x1F] MOVE_ENTITY: EventEntity moves to X=123.073*, Z=-108.065*, Y=-5.000*
  8: 0x00F8 [0x1F] MOVE_ENTITY: Update entity position (mode=1)
  9: 0x00FA [0x1F] MOVE_ENTITY: EventEntity moves to X=124.057*, Z=-110.524*, Y=-5.000*
 10: 0x0102 [0x1F] MOVE_ENTITY: Update entity position (mode=1)
 11: 0x0104 [0x1F] MOVE_ENTITY: EventEntity moves to X=126.326*, Z=-110.507*, Y=-5.000*
 12: 0x010C [0x1F] MOVE_ENTITY: Update entity position (mode=1)
 13: 0x010E [0x1F] MOVE_ENTITY: EventEntity moves to X=128.209*, Z=-108.151*, Y=-5.000*
 14: 0x0116 [0x1F] MOVE_ENTITY: Update entity position (mode=1)
 15: 0x0118 [0x1F] MOVE_ENTITY: EventEntity moves to X=125.671*, Z=-105.939*, Y=-5.000*
 16: 0x0120 [0x1F] MOVE_ENTITY: Update entity position (mode=1)
 17: 0x0122 [0x1F] MOVE_ENTITY: EventEntity moves to X=122.000*, Z=-104.000*, Y=-5.000*
 18: 0x012A [0x1F] MOVE_ENTITY: Update entity position (mode=1)
 19: 0x012C [0x1F] MOVE_ENTITY: EventEntity moves to X=123.345*, Z=-101.304*, Y=-5.000*
 20: 0x0134 [0x1F] MOVE_ENTITY: Update entity position (mode=1)
 21: 0x0136 [0x02] IF !(Work_Zone[77] == 0*) GOTO 0x0148
 22: 0x013E [0x27] REQ_SET(priority=0x05, entity_id=Unnamed NPC (ID: 17764427/0x010F104B), tag_num=0x08)
 23: 0x0145 [0x01] GOTO 0x0151
 24: 0x0148 [0x37] UPDATE_EVENT_POSITION_AND_DIR: x=0.000*, z=0.000*, y=0.000*, direction=0.0°*

SUBROUTINE_0151:
 25: 0x0151 [0x00] END_REQSTACK()
```

### Event 65535.8

#### Metadata

| Field        | Value    |
|--------------|----------|
| Entrypoint   | 0x0152   |
| Data Size    | 10 bytes |
| Instructions | 2        |

```
      00 01 02 03 04 05 06 07  08 09 0A 0B 0C 0D 0E 0F
      -- -- -- -- -- -- -- --  -- -- -- -- -- -- -- --
0150:       37 1D 80 1E 80 1F  80 20 80 00                7...... ..    
```

#### Opcodes

```
  0: 0x0152 [0x37] UPDATE_EVENT_POSITION_AND_DIR: x=120.993*, z=-114.020*, y=-4.999*, direction=273.7°*
  1: 0x015B [0x00] END_REQSTACK()
```

### Event 65535.9

#### Metadata

| Field        | Value    |
|--------------|----------|
| Entrypoint   | 0x015C   |
| Data Size    | 14 bytes |
| Instructions | 4        |

```
      00 01 02 03 04 05 06 07  08 09 0A 0B 0C 0D 0E 0F
      -- -- -- -- -- -- -- --  -- -- -- -- -- -- -- --
0150:                                      32 09 80 1F              2...
0160: 00 21 80 22 80 1F 80 1F  01 00                    .!."......      
```

#### Opcodes

```
  0: 0x015C [0x32] ExtData[1]->MainSpeed = 70* * 0.1
  1: 0x015F [0x1F] MOVE_ENTITY: EventEntity moves to X=121.175*, Z=-112.296*, Y=-4.999*
  2: 0x0167 [0x1F] MOVE_ENTITY: Update entity position (mode=1)
  3: 0x0169 [0x00] END_REQSTACK()
```

### Event 65535.10

#### Metadata

| Field        | Value    |
|--------------|----------|
| Entrypoint   | 0x016A   |
| Data Size    | 11 bytes |
| Instructions | 3        |

```
      00 01 02 03 04 05 06 07  08 09 0A 0B 0C 0D 0E 0F
      -- -- -- -- -- -- -- --  -- -- -- -- -- -- -- --
0160:                                1F 00 23 80 24 80            ..#.$.
0170: 1F 80 1F 01 00                                    .....           
```

#### Opcodes

```
  0: 0x016A [0x1F] MOVE_ENTITY: EventEntity moves to X=121.400*, Z=-110.286*, Y=-4.999*
  1: 0x0172 [0x1F] MOVE_ENTITY: Update entity position (mode=1)
  2: 0x0174 [0x00] END_REQSTACK()
```

### Event 65535.11

#### Metadata

| Field        | Value    |
|--------------|----------|
| Entrypoint   | 0x0175   |
| Data Size    | 11 bytes |
| Instructions | 3        |

```
      00 01 02 03 04 05 06 07  08 09 0A 0B 0C 0D 0E 0F
      -- -- -- -- -- -- -- --  -- -- -- -- -- -- -- --
0170:                1F 00 25  80 26 80 1F 80 1F 01 00       ..%.&......
```

#### Opcodes

```
  0: 0x0175 [0x1F] MOVE_ENTITY: EventEntity moves to X=121.358*, Z=-108.219*, Y=-4.999*
  1: 0x017D [0x1F] MOVE_ENTITY: Update entity position (mode=1)
  2: 0x017F [0x00] END_REQSTACK()
```

### Event 65535.12

#### Metadata

| Field        | Value    |
|--------------|----------|
| Entrypoint   | 0x0180   |
| Data Size    | 11 bytes |
| Instructions | 3        |

```
      00 01 02 03 04 05 06 07  08 09 0A 0B 0C 0D 0E 0F
      -- -- -- -- -- -- -- --  -- -- -- -- -- -- -- --
0180: 1F 00 27 80 28 80 1F 80  1F 01 00                 ..'.(......     
```

#### Opcodes

```
  0: 0x0180 [0x1F] MOVE_ENTITY: EventEntity moves to X=121.525*, Z=-105.981*, Y=-4.999*
  1: 0x0188 [0x1F] MOVE_ENTITY: Update entity position (mode=1)
  2: 0x018A [0x00] END_REQSTACK()
```

### Event 65535.13

#### Metadata

| Field        | Value    |
|--------------|----------|
| Entrypoint   | 0x018B   |
| Data Size    | 14 bytes |
| Instructions | 4        |

```
      00 01 02 03 04 05 06 07  08 09 0A 0B 0C 0D 0E 0F
      -- -- -- -- -- -- -- --  -- -- -- -- -- -- -- --
0180:                                   32 09 80 1F 00             2....
0190: 29 80 2A 80 1F 80 1F 01  00                       ).*......       
```

#### Opcodes

```
  0: 0x018B [0x32] ExtData[1]->MainSpeed = 70* * 0.1
  1: 0x018E [0x1F] MOVE_ENTITY: EventEntity moves to X=128.360*, Z=-108.665*, Y=-4.999*
  2: 0x0196 [0x1F] MOVE_ENTITY: Update entity position (mode=1)
  3: 0x0198 [0x00] END_REQSTACK()
```

### Event 65535.14

#### Metadata

| Field        | Value    |
|--------------|----------|
| Entrypoint   | 0x0199   |
| Data Size    | 10 bytes |
| Instructions | 2        |

```
      00 01 02 03 04 05 06 07  08 09 0A 0B 0C 0D 0E 0F
      -- -- -- -- -- -- -- --  -- -- -- -- -- -- -- --
0190:                             37 2B 80 2C 80 2D 80           7+.,.-.
01A0: 2E 80 00                                          ...             
```

#### Opcodes

```
  0: 0x0199 [0x37] UPDATE_EVENT_POSITION_AND_DIR: x=-189.788*, z=-375.699*, y=-0.499*, direction=33.3°*
  1: 0x01A2 [0x00] END_REQSTACK()
```

### Event 65535.15

#### Metadata

| Field        | Value    |
|--------------|----------|
| Entrypoint   | 0x01A3   |
| Data Size    | 10 bytes |
| Instructions | 2        |

```
      00 01 02 03 04 05 06 07  08 09 0A 0B 0C 0D 0E 0F
      -- -- -- -- -- -- -- --  -- -- -- -- -- -- -- --
01A0:          37 2F 80 30 80  31 80 32 80 00              7/.0.1.2..   
```

#### Opcodes

```
  0: 0x01A3 [0x37] UPDATE_EVENT_POSITION_AND_DIR: x=-32.401*, z=-135.836*, y=-0.323*, direction=139.7°*
  1: 0x01AC [0x00] END_REQSTACK()
```

### Event 65535.16

#### Metadata

| Field        | Value    |
|--------------|----------|
| Entrypoint   | 0x01AD   |
| Data Size    | 19 bytes |
| Instructions | 5        |

```
      00 01 02 03 04 05 06 07  08 09 0A 0B 0C 0D 0E 0F
      -- -- -- -- -- -- -- --  -- -- -- -- -- -- -- --
01A0:                                         32 33 80               23.
01B0: 1F 00 34 80 35 80 36 80  1F 01 1E 4A 10 0F 01 00  ..4.5.6....J....
```

#### Opcodes

```
  0: 0x01AD [0x32] ExtData[1]->MainSpeed = 15* * 0.1
  1: 0x01B0 [0x1F] MOVE_ENTITY: EventEntity moves to X=-24.338*, Z=-133.603*, Y=1.216*
  2: 0x01B8 [0x1F] MOVE_ENTITY: Update entity position (mode=1)
  3: 0x01BA [0x1E] EventEntity looks at Unnamed NPC (ID: 17764426/0x010F104A) and starts talking
  4: 0x01BF [0x00] END_REQSTACK()
```

### Event 65535.17

#### Metadata

| Field        | Value    |
|--------------|----------|
| Entrypoint   | 0x01C0   |
| Data Size    | 10 bytes |
| Instructions | 2        |

```
      00 01 02 03 04 05 06 07  08 09 0A 0B 0C 0D 0E 0F
      -- -- -- -- -- -- -- --  -- -- -- -- -- -- -- --
01C0: 37 37 80 38 80 39 80 3A  80 00                    77.8.9.:..      
```

#### Opcodes

```
  0: 0x01C0 [0x37] UPDATE_EVENT_POSITION_AND_DIR: x=134.377*, z=-165.350*, y=-10.950*, direction=6.3°*
  1: 0x01C9 [0x00] END_REQSTACK()
```

### Event 65535.18

#### Metadata

| Field        | Value    |
|--------------|----------|
| Entrypoint   | 0x01CA   |
| Data Size    | 19 bytes |
| Instructions | 5        |

```
      00 01 02 03 04 05 06 07  08 09 0A 0B 0C 0D 0E 0F
      -- -- -- -- -- -- -- --  -- -- -- -- -- -- -- --
01C0:                                32 33 80 1F 00 3B            23...;
01D0: 80 3C 80 3D 80 1F 01 1E  4A 10 0F 01 00           .<.=....J....   
```

#### Opcodes

```
  0: 0x01CA [0x32] ExtData[1]->MainSpeed = 15* * 0.1
  1: 0x01CD [0x1F] MOVE_ENTITY: EventEntity moves to X=140.608*, Z=-165.172*, Y=-12.715*
  2: 0x01D5 [0x1F] MOVE_ENTITY: Update entity position (mode=1)
  3: 0x01D7 [0x1E] EventEntity looks at Unnamed NPC (ID: 17764426/0x010F104A) and starts talking
  4: 0x01DC [0x00] END_REQSTACK()
```

### Event 65535.19

#### Metadata

| Field        | Value    |
|--------------|----------|
| Entrypoint   | 0x01DD   |
| Data Size    | 10 bytes |
| Instructions | 2        |

```
      00 01 02 03 04 05 06 07  08 09 0A 0B 0C 0D 0E 0F
      -- -- -- -- -- -- -- --  -- -- -- -- -- -- -- --
01D0:                                         37 3E 80               7>.
01E0: 3F 80 40 80 41 80 00                              ?.@.A..         
```

#### Opcodes

```
  0: 0x01DD [0x37] UPDATE_EVENT_POSITION_AND_DIR: x=660.873*, z=-410.789*, y=0.538*, direction=84.4°*
  1: 0x01E6 [0x00] END_REQSTACK()
```

### Event 65535.20

#### Metadata

| Field        | Value    |
|--------------|----------|
| Entrypoint   | 0x01E7   |
| Data Size    | 19 bytes |
| Instructions | 5        |

```
      00 01 02 03 04 05 06 07  08 09 0A 0B 0C 0D 0E 0F
      -- -- -- -- -- -- -- --  -- -- -- -- -- -- -- --
01E0:                      32  33 80 1F 00 42 80 43 80         23...B.C.
01F0: 44 80 1F 01 1E 4A 10 0F  01 00                    D....J....      
```

#### Opcodes

```
  0: 0x01E7 [0x32] ExtData[1]->MainSpeed = 15* * 0.1
  1: 0x01EA [0x1F] MOVE_ENTITY: EventEntity moves to X=661.353*, Z=-415.910*, Y=0.398*
  2: 0x01F2 [0x1F] MOVE_ENTITY: Update entity position (mode=1)
  3: 0x01F4 [0x1E] EventEntity looks at Unnamed NPC (ID: 17764426/0x010F104A) and starts talking
  4: 0x01F9 [0x00] END_REQSTACK()
```

### Event 65535.21

#### Metadata

| Field        | Value    |
|--------------|----------|
| Entrypoint   | 0x01FA   |
| Data Size    | 10 bytes |
| Instructions | 2        |

```
      00 01 02 03 04 05 06 07  08 09 0A 0B 0C 0D 0E 0F
      -- -- -- -- -- -- -- --  -- -- -- -- -- -- -- --
01F0:                                37 45 80 46 80 47            7E.F.G
0200: 80 48 80 00                                       .H..            
```

#### Opcodes

```
  0: 0x01FA [0x37] UPDATE_EVENT_POSITION_AND_DIR: x=-67.846*, z=-496.970*, y=-5.286*, direction=275.7°*
  1: 0x0203 [0x00] END_REQSTACK()
```

### Event 65535.22

#### Metadata

| Field        | Value    |
|--------------|----------|
| Entrypoint   | 0x0204   |
| Data Size    | 84 bytes |
| Instructions | 18       |

```
      00 01 02 03 04 05 06 07  08 09 0A 0B 0C 0D 0E 0F
      -- -- -- -- -- -- -- --  -- -- -- -- -- -- -- --
0200:             32 09 80 1F  00 49 80 4A 80 4B 80 1F      2....I.J.K..
0210: 01 1F 00 4C 80 4D 80 4E  80 1F 01 1F 00 4F 80 50  ...L.M.N.....O.P
0220: 80 4E 80 1F 01 1F 00 51  80 52 80 53 80 1F 01 1F  .N.....Q.R.S....
0230: 00 4F 80 50 80 4E 80 1F  01 1F 00 4C 80 4D 80 4E  .O.P.N.....L.M.N
0240: 80 1F 01 1F 00 49 80 4A  80 4B 80 1F 01 1F 00 45  .....I.J.K.....E
0250: 80 46 80 47 80 1F 01 00                           .F.G....        
```

#### Opcodes

```
  0: 0x0204 [0x32] ExtData[1]->MainSpeed = 70* * 0.1
  1: 0x0207 [0x1F] MOVE_ENTITY: EventEntity moves to X=-65.970*, Z=-466.034*, Y=-4.124*
  2: 0x020F [0x1F] MOVE_ENTITY: Update entity position (mode=1)
  3: 0x0211 [0x1F] MOVE_ENTITY: EventEntity moves to X=-67.388*, Z=-438.689*, Y=-3.500*
  4: 0x0219 [0x1F] MOVE_ENTITY: Update entity position (mode=1)
  5: 0x021B [0x1F] MOVE_ENTITY: EventEntity moves to X=-61.848*, Z=-420.202*, Y=-3.500*
  6: 0x0223 [0x1F] MOVE_ENTITY: Update entity position (mode=1)
  7: 0x0225 [0x1F] MOVE_ENTITY: EventEntity moves to X=-39.268*, Z=-414.640*, Y=-4.836*
  8: 0x022D [0x1F] MOVE_ENTITY: Update entity position (mode=1)
  9: 0x022F [0x1F] MOVE_ENTITY: EventEntity moves to X=-61.848*, Z=-420.202*, Y=-3.500*
 10: 0x0237 [0x1F] MOVE_ENTITY: Update entity position (mode=1)
 11: 0x0239 [0x1F] MOVE_ENTITY: EventEntity moves to X=-67.388*, Z=-438.689*, Y=-3.500*
 12: 0x0241 [0x1F] MOVE_ENTITY: Update entity position (mode=1)
 13: 0x0243 [0x1F] MOVE_ENTITY: EventEntity moves to X=-65.970*, Z=-466.034*, Y=-4.124*
 14: 0x024B [0x1F] MOVE_ENTITY: Update entity position (mode=1)
 15: 0x024D [0x1F] MOVE_ENTITY: EventEntity moves to X=-67.846*, Z=-496.970*, Y=-5.286*
 16: 0x0255 [0x1F] MOVE_ENTITY: Update entity position (mode=1)
 17: 0x0257 [0x00] END_REQSTACK()
```

### Event 776

#### Metadata

| Field        | Value   |
|--------------|---------|
| Entrypoint   | 0x0258  |
| Data Size    | 1 bytes |
| Instructions | 1       |

```
      00 01 02 03 04 05 06 07  08 09 0A 0B 0C 0D 0E 0F
      -- -- -- -- -- -- -- --  -- -- -- -- -- -- -- --
0250:                          00                               .       
```

#### Opcodes

```
  0: 0x0258 [0x00] END_REQSTACK()
```

### Event 65535.23

#### Metadata

| Field        | Value    |
|--------------|----------|
| Entrypoint   | 0x0259   |
| Data Size    | 15 bytes |
| Instructions | 3        |

```
      00 01 02 03 04 05 06 07  08 09 0A 0B 0C 0D 0E 0F
      -- -- -- -- -- -- -- --  -- -- -- -- -- -- -- --
0250:                             37 54 80 55 80 56 80           7T.U.V.
0260: 57 80 03 04 00 1C 80 00                           W.......        
```

#### Opcodes

```
  0: 0x0259 [0x37] UPDATE_EVENT_POSITION_AND_DIR: x=-605.201*, z=606.193*, y=0.167*, direction=33.1°*
  1: 0x0262 [0x03] ExtData[1]->WorkLocal[4] = 0*
  2: 0x0267 [0x00] END_REQSTACK()
```

### Event 65535.24

#### Metadata

| Field        | Value    |
|--------------|----------|
| Entrypoint   | 0x0268   |
| Data Size    | 48 bytes |
| Instructions | 11       |

```
      00 01 02 03 04 05 06 07  08 09 0A 0B 0C 0D 0E 0F
      -- -- -- -- -- -- -- --  -- -- -- -- -- -- -- --
0260:                          02 04 00 58 80 01 97 02          ...X....
0270: 32 33 80 1F 00 59 80 5A  80 5B 80 1F 01 1F 00 5C  23...Y.Z.[.....\
0280: 80 5D 80 5E 80 1F 01 1C  5F 80 1F 00 60 80 61 80  .].^...._...`.a.
0290: 62 80 1F 01 01 68 02 00                           b....h..        
```

#### Opcodes

```
  0: 0x0268 [0x02] IF !(ExtData[1]->WorkLocal[4] == 2*) GOTO 0x0297
  1: 0x0270 [0x32] ExtData[1]->MainSpeed = 15* * 0.1
  2: 0x0273 [0x1F] MOVE_ENTITY: EventEntity moves to X=-605.972*, Z=607.697*, Y=0.004*
  3: 0x027B [0x1F] MOVE_ENTITY: Update entity position (mode=1)
  4: 0x027D [0x1F] MOVE_ENTITY: EventEntity moves to X=-608.286*, Z=606.788*, Y=-0.064*
  5: 0x0285 [0x1F] MOVE_ENTITY: Update entity position (mode=1)
  6: 0x0287 [0x1C] WAIT(60* ticks)
  7: 0x028A [0x1F] MOVE_ENTITY: EventEntity moves to X=-606.508*, Z=607.958*, Y=-0.049*
  8: 0x0292 [0x1F] MOVE_ENTITY: Update entity position (mode=1)
  9: 0x0294 [0x01] GOTO 0x0268
 10: 0x0297 [0x00] END_REQSTACK()
```

### Event 65535.25

#### Metadata

| Field        | Value   |
|--------------|---------|
| Entrypoint   | 0x0298  |
| Data Size    | 6 bytes |
| Instructions | 2       |

```
      00 01 02 03 04 05 06 07  08 09 0A 0B 0C 0D 0E 0F
      -- -- -- -- -- -- -- --  -- -- -- -- -- -- -- --
0290:                          03 04 00 58 80 00                ...X..  
```

#### Opcodes

```
  0: 0x0298 [0x03] ExtData[1]->WorkLocal[4] = 2*
  1: 0x029D [0x00] END_REQSTACK()
```

### Event 65535.26

#### Metadata

| Field        | Value    |
|--------------|----------|
| Entrypoint   | 0x029E   |
| Data Size    | 15 bytes |
| Instructions | 3        |

```
      00 01 02 03 04 05 06 07  08 09 0A 0B 0C 0D 0E 0F
      -- -- -- -- -- -- -- --  -- -- -- -- -- -- -- --
0290:                                            37 63                7c
02A0: 80 64 80 65 80 66 80 80  F8 FF FF 7F 00           .d.e.f.......   
```

#### Opcodes

```
  0: 0x029E [0x37] UPDATE_EVENT_POSITION_AND_DIR: x=-600.128*, z=585.578*, y=0.628*, direction=25.0°*
  1: 0x02A7 [0x80] LOAD_WAIT(entity=EventEntity)
  2: 0x02AC [0x00] END_REQSTACK()
```

### Event 65535.27

#### Metadata

| Field        | Value    |
|--------------|----------|
| Entrypoint   | 0x02AD   |
| Data Size    | 80 bytes |
| Instructions | 18       |

```
      00 01 02 03 04 05 06 07  08 09 0A 0B 0C 0D 0E 0F
      -- -- -- -- -- -- -- --  -- -- -- -- -- -- -- --
02A0:                                         32 33 80               23.
02B0: 1F 00 67 80 68 80 69 80  1F 01 1F 00 6A 80 6B 80  ..g.h.i.....j.k.
02C0: 6C 80 1F 01 1F 00 6D 80  6E 80 6F 80 1F 01 1F 00  l.....m.n.o.....
02D0: 70 80 71 80 72 80 1F 01  1C 73 80 4B 4B 10 0F 01  p.q.r....s.KK...
02E0: 74 80 1C 75 80 1F 00 76  80 77 80 78 80 1F 01 1C  t..u...v.w.x....
02F0: 73 80 4B 4B 10 0F 01 79  80 1C 73 80 00           s.KK...y..s..   
```

#### Opcodes

```
  0: 0x02AD [0x32] ExtData[1]->MainSpeed = 15* * 0.1
  1: 0x02B0 [0x1F] MOVE_ENTITY: EventEntity moves to X=-601.910*, Z=587.743*, Y=0.274*
  2: 0x02B8 [0x1F] MOVE_ENTITY: Update entity position (mode=1)
  3: 0x02BA [0x1F] MOVE_ENTITY: EventEntity moves to X=-600.199*, Z=588.994*, Y=0.347*
  4: 0x02C2 [0x1F] MOVE_ENTITY: Update entity position (mode=1)
  5: 0x02C4 [0x1F] MOVE_ENTITY: EventEntity moves to X=-599.211*, Z=586.089*, Y=0.586*
  6: 0x02CC [0x1F] MOVE_ENTITY: Update entity position (mode=1)
  7: 0x02CE [0x1F] MOVE_ENTITY: EventEntity moves to X=-599.391*, Z=583.375*, Y=0.830*
  8: 0x02D6 [0x1F] MOVE_ENTITY: Update entity position (mode=1)
  9: 0x02D8 [0x1C] WAIT(30* ticks)
 10: 0x02DB [0x4B] UPDATE_ENTITY_YAW(entity=Unnamed NPC (ID: 17764427/0x010F104B), yaw=17.4°*)
 11: 0x02E2 [0x1C] WAIT(120* ticks)
 12: 0x02E5 [0x1F] MOVE_ENTITY: EventEntity moves to X=-602.007*, Z=587.764*, Y=0.268*
 13: 0x02ED [0x1F] MOVE_ENTITY: Update entity position (mode=1)
 14: 0x02EF [0x1C] WAIT(30* ticks)
 15: 0x02F2 [0x4B] UPDATE_ENTITY_YAW(entity=Unnamed NPC (ID: 17764427/0x010F104B), yaw=1.9°*)
 16: 0x02F9 [0x1C] WAIT(30* ticks)
 17: 0x02FC [0x00] END_REQSTACK()
```

### Event 65535.28

#### Metadata

| Field        | Value    |
|--------------|----------|
| Entrypoint   | 0x02FD   |
| Data Size    | 67 bytes |
| Instructions | 15       |

```
      00 01 02 03 04 05 06 07  08 09 0A 0B 0C 0D 0E 0F
      -- -- -- -- -- -- -- --  -- -- -- -- -- -- -- --
02F0:                                         32 7A 80               2z.
0300: 1F 00 7B 80 7C 80 7D 80  1F 01 4B 4B 10 0F 01 7E  ..{.|.}...KK...~
0310: 80 1C 5F 80 1F 00 7F 80  80 80 81 80 1F 01 4B 4B  .._...........KK
0320: 10 0F 01 82 80 1C 83 80  1F 00 84 80 85 80 86 80  ................
0330: 1F 01 1C 73 80 4B 4B 10  0F 01 87 80 1C 5F 80 00  ...s.KK......_..
```

#### Opcodes

```
  0: 0x02FD [0x32] ExtData[1]->MainSpeed = 45* * 0.1
  1: 0x0300 [0x1F] MOVE_ENTITY: EventEntity moves to X=-599.295*, Z=590.678*, Y=0.264*
  2: 0x0308 [0x1F] MOVE_ENTITY: Update entity position (mode=1)
  3: 0x030A [0x4B] UPDATE_ENTITY_YAW(entity=Unnamed NPC (ID: 17764427/0x010F104B), yaw=5.3°*)
  4: 0x0311 [0x1C] WAIT(60* ticks)
  5: 0x0314 [0x1F] MOVE_ENTITY: EventEntity moves to X=-604.353*, Z=586.292*, Y=0.138*
  6: 0x031C [0x1F] MOVE_ENTITY: Update entity position (mode=1)
  7: 0x031E [0x4B] UPDATE_ENTITY_YAW(entity=Unnamed NPC (ID: 17764427/0x010F104B), yaw=0.2°*)
  8: 0x0325 [0x1C] WAIT(240* ticks)
  9: 0x0328 [0x1F] MOVE_ENTITY: EventEntity moves to X=-600.328*, Z=582.410*, Y=0.802*
 10: 0x0330 [0x1F] MOVE_ENTITY: Update entity position (mode=1)
 11: 0x0332 [0x1C] WAIT(30* ticks)
 12: 0x0335 [0x4B] UPDATE_ENTITY_YAW(entity=Unnamed NPC (ID: 17764427/0x010F104B), yaw=16.6°*)
 13: 0x033C [0x1C] WAIT(60* ticks)
 14: 0x033F [0x00] END_REQSTACK()
```

### Event 65535.29

#### Metadata

| Field        | Value    |
|--------------|----------|
| Entrypoint   | 0x0340   |
| Data Size    | 14 bytes |
| Instructions | 4        |

```
      00 01 02 03 04 05 06 07  08 09 0A 0B 0C 0D 0E 0F
      -- -- -- -- -- -- -- --  -- -- -- -- -- -- -- --
0340: 32 7A 80 1F 00 88 80 89  80 8A 80 1F 01 00        2z............  
```

#### Opcodes

```
  0: 0x0340 [0x32] ExtData[1]->MainSpeed = 45* * 0.1
  1: 0x0343 [0x1F] MOVE_ENTITY: EventEntity moves to X=-599.148*, Z=589.043*, Y=0.345*
  2: 0x034B [0x1F] MOVE_ENTITY: Update entity position (mode=1)
  3: 0x034D [0x00] END_REQSTACK()
```

### Event 65535.30

#### Metadata

| Field        | Value    |
|--------------|----------|
| Entrypoint   | 0x034E   |
| Data Size    | 51 bytes |
| Instructions | 11       |

```
      00 01 02 03 04 05 06 07  08 09 0A 0B 0C 0D 0E 0F
      -- -- -- -- -- -- -- --  -- -- -- -- -- -- -- --
0340:                                            32 7A                2z
0350: 80 1F 00 8B 80 8C 80 8D  80 1F 01 1F 00 8E 80 8F  ................
0360: 80 90 80 1F 01 1F 00 91  80 92 80 93 80 1F 01 1E  ................
0370: 4A 10 0F 01 1C 73 80 4A  4A 10 0F 01 4B 10 0F 01  J....s.JJ...K...
0380: 00                                                .               
```

#### Opcodes

```
  0: 0x034E [0x32] ExtData[1]->MainSpeed = 45* * 0.1
  1: 0x0351 [0x1F] MOVE_ENTITY: EventEntity moves to X=-604.257*, Z=586.573*, Y=0.057*
  2: 0x0359 [0x1F] MOVE_ENTITY: Update entity position (mode=1)
  3: 0x035B [0x1F] MOVE_ENTITY: EventEntity moves to X=-603.318*, Z=588.527*, Y=0.196*
  4: 0x0363 [0x1F] MOVE_ENTITY: Update entity position (mode=1)
  5: 0x0365 [0x1F] MOVE_ENTITY: EventEntity moves to X=-601.495*, Z=586.040*, Y=0.496*
  6: 0x036D [0x1F] MOVE_ENTITY: Update entity position (mode=1)
  7: 0x036F [0x1E] EventEntity looks at Unnamed NPC (ID: 17764426/0x010F104A) and starts talking
  8: 0x0374 [0x1C] WAIT(30* ticks)
  9: 0x0377 [0x4A] Unnamed NPC (ID: 17764426/0x010F104A) looks at Unnamed NPC (ID: 17764427/0x010F104B)
 10: 0x0380 [0x00] END_REQSTACK()
```

### Event 65535.31

#### Metadata

| Field        | Value    |
|--------------|----------|
| Entrypoint   | 0x0381   |
| Data Size    | 15 bytes |
| Instructions | 3        |

```
      00 01 02 03 04 05 06 07  08 09 0A 0B 0C 0D 0E 0F
      -- -- -- -- -- -- -- --  -- -- -- -- -- -- -- --
0380:    37 76 80 77 80 78 80  66 80 80 F8 FF FF 7F 00   7v.w.x.f.......
```

#### Opcodes

```
  0: 0x0381 [0x37] UPDATE_EVENT_POSITION_AND_DIR: x=-602.007*, z=587.764*, y=0.268*, direction=25.0°*
  1: 0x038A [0x80] LOAD_WAIT(entity=EventEntity)
  2: 0x038F [0x00] END_REQSTACK()
```

### Event 65535.32

#### Metadata

| Field        | Value    |
|--------------|----------|
| Entrypoint   | 0x0390   |
| Data Size    | 69 bytes |
| Instructions | 15       |

```
      00 01 02 03 04 05 06 07  08 09 0A 0B 0C 0D 0E 0F
      -- -- -- -- -- -- -- --  -- -- -- -- -- -- -- --
0390: 32 7A 80 1F 00 94 80 95  80 96 80 1F 01 1F 00 97  2z..............
03A0: 80 98 80 99 80 1F 01 1F  00 9A 80 9B 80 9C 80 1F  ................
03B0: 01 1F 00 9D 80 9E 80 9F  80 1F 01 1F 00 A0 80 A1  ................
03C0: 80 A2 80 1F 01 1F 00 A3  80 A4 80 A5 80 1F 01 1E  ................
03D0: 4A 10 0F 01 00                                    J....           
```

#### Opcodes

```
  0: 0x0390 [0x32] ExtData[1]->MainSpeed = 45* * 0.1
  1: 0x0393 [0x1F] MOVE_ENTITY: EventEntity moves to X=-602.454*, Z=588.333*, Y=0.247*
  2: 0x039B [0x1F] MOVE_ENTITY: Update entity position (mode=1)
  3: 0x039D [0x1F] MOVE_ENTITY: EventEntity moves to X=-603.634*, Z=585.657*, Y=0.144*
  4: 0x03A5 [0x1F] MOVE_ENTITY: Update entity position (mode=1)
  5: 0x03A7 [0x1F] MOVE_ENTITY: EventEntity moves to X=-602.421*, Z=582.680*, Y=0.396*
  6: 0x03AF [0x1F] MOVE_ENTITY: Update entity position (mode=1)
  7: 0x03B1 [0x1F] MOVE_ENTITY: EventEntity moves to X=-599.175*, Z=582.899*, Y=0.854*
  8: 0x03B9 [0x1F] MOVE_ENTITY: Update entity position (mode=1)
  9: 0x03BB [0x1F] MOVE_ENTITY: EventEntity moves to X=-598.432*, Z=587.737*, Y=0.410*
 10: 0x03C3 [0x1F] MOVE_ENTITY: Update entity position (mode=1)
 11: 0x03C5 [0x1F] MOVE_ENTITY: EventEntity moves to X=-599.890*, Z=589.432*, Y=0.326*
 12: 0x03CD [0x1F] MOVE_ENTITY: Update entity position (mode=1)
 13: 0x03CF [0x1E] EventEntity looks at Unnamed NPC (ID: 17764426/0x010F104A) and starts talking
 14: 0x03D4 [0x00] END_REQSTACK()
```
