# 17764586

## Common Data

| Field            | Value                    |
|------------------|--------------------------|
| Zone             | Windurst Woods (ID: 241) |
| Block Size       | 4504 bytes               |
| Total Events     | 2                        |
| References Count | 83                       |

## List of Events

| Event ID              | Entrypoint   |   Size |   Instructions |
|-----------------------|--------------|--------|----------------|
| [65535](#event-65535) | 0x0000       |      1 |              1 |
| [686](#event-686)     | 0x0001       |   4146 |            520 |

## DAT References (imed_data)

|   Index | Hex Value   |   Dec Value |
|---------|-------------|-------------|
|       0 | 0x0000      |           0 |
|       1 | 0x0078      |         120 |
|       2 | 0x00C8      |         200 |
|       3 | 0x003C      |          60 |
|       4 | 0x0013      |          19 |
|       5 | 0x005A      |          90 |
|       6 | 0x0080      |         128 |
|       7 | 0x26E6      |        9958 |
|       8 | 0x0005      |           5 |
|       9 | 0x0006      |           6 |
|      10 | 0x0008      |           8 |
|      11 | 0x0028      |          40 |
|      12 | 0x0F20      |        3872 |
|      13 | 0x26E7      |        9959 |
|      14 | 0x26E8      |        9960 |
|      15 | 0x26E9      |        9961 |
|      16 | 0x26EA      |        9962 |
|      17 | 0x00E7      |         231 |
|      18 | 0x0064      |         100 |
|      19 | 0x26EB      |        9963 |
|      20 | 0x26EC      |        9964 |
|      21 | 0x26ED      |        9965 |
|      22 | 0x26EE      |        9966 |
|      23 | 0x26EF      |        9967 |
|      24 | 0x26F0      |        9968 |
|      25 | 0x26F1      |        9969 |
|      26 | 0x26F2      |        9970 |
|      27 | 0x26F3      |        9971 |
|      28 | 0x26F4      |        9972 |
|      29 | 0x26F5      |        9973 |
|      30 | 0x26F6      |        9974 |
|      31 | 0x26F7      |        9975 |
|      32 | 0x26F8      |        9976 |
|      33 | 0x26F9      |        9977 |
|      34 | 0x26FA      |        9978 |
|      35 | 0x26FB      |        9979 |
|      36 | 0x26FC      |        9980 |
|      37 | 0x26FD      |        9981 |
|      38 | 0x26FE      |        9982 |
|      39 | 0x26FF      |        9983 |
|      40 | 0x2700      |        9984 |
|      41 | 0x2701      |        9985 |
|      42 | 0x2702      |        9986 |
|      43 | 0x2703      |        9987 |
|      44 | 0x2704      |        9988 |
|      45 | 0x2705      |        9989 |
|      46 | 0x2706      |        9990 |
|      47 | 0x2707      |        9991 |
|      48 | 0x2708      |        9992 |
|      49 | 0x2709      |        9993 |
|      50 | 0x270A      |        9994 |
|      51 | 0x270B      |        9995 |
|      52 | 0x270C      |        9996 |
|      53 | 0x270D      |        9997 |
|      54 | 0x270E      |        9998 |
|      55 | 0x270F      |        9999 |
|      56 | 0x2710      |       10000 |
|      57 | 0x2711      |       10001 |
|      58 | 0x2712      |       10002 |
|      59 | 0x2713      |       10003 |
|      60 | 0x2714      |       10004 |
|      61 | 0x2715      |       10005 |
|      62 | 0x007B      |         123 |
|      63 | 0x0014      |          20 |
|      64 | 0x0046      |          70 |
|      65 | 0x2716      |       10006 |
|      66 | 0x2717      |       10007 |
|      67 | 0x2718      |       10008 |
|      68 | 0x2719      |       10009 |
|      69 | 0x271A      |       10010 |
|      70 | 0x271B      |       10011 |
|      71 | 0x271C      |       10012 |
|      72 | 0x271D      |       10013 |
|      73 | 0x271E      |       10014 |
|      74 | 0x271F      |       10015 |
|      75 | 0x2720      |       10016 |
|      76 | 0x2721      |       10017 |
|      77 | 0x2722      |       10018 |
|      78 | 0x2723      |       10019 |
|      79 | 0x2724      |       10020 |
|      80 | 0x2725      |       10021 |
|      81 | 0x0032      |          50 |
|      82 | 0x0097      |         151 |

## Events

### Event 65535

#### Metadata

| Field        | Value   |
|--------------|---------|
| Entrypoint   | 0x0000  |
| Data Size    | 1 bytes |
| Instructions | 1       |

```
      00 01 02 03 04 05 06 07  08 09 0A 0B 0C 0D 0E 0F
      -- -- -- -- -- -- -- --  -- -- -- -- -- -- -- --
0000: 00                                                .               
```

#### Opcodes

```
  0: 0x0000 [0x00] END_REQSTACK()
```

### Event 686

#### Metadata

| Field        | Value      |
|--------------|------------|
| Entrypoint   | 0x0001     |
| Data Size    | 4146 bytes |
| Instructions | 520        |

```
      00 01 02 03 04 05 06 07  08 09 0A 0B 0C 0D 0E 0F
      -- -- -- -- -- -- -- --  -- -- -- -- -- -- -- --
0000:    20 01 42 46 01 5D 00  80 01 80 45 02 80 F8 FF    .BF.]....E....
0010: FF 7F F8 FF FF 7F 66 64  6F 31 00 80 1C 03 80 38  ......fdo1.....8
0020: 04 80 29 08 F0 FF FF 7F  07 29 08 F0 FF FF 7F 04  ..)......)......
0030: 4E 00 EB 10 0F 01 80 EB  10 0F 01 29 0B EB 10 0F  N..........)....
0040: 01 3F 29 0B F0 FF FF 7F  46 79 00 F0 FF FF 7F 76  .?).....Fy.....v
0050: 10 0F 01 92 01 77 10 0F  01 92 01 78 10 0F 01 92  .....w.....x....
0060: 01 76 10 0F 01 1C 05 80  45 06 80 F8 FF FF 7F F8  .v......E.......
0070: FF FF 7F 73 30 34 35 00  80 45 02 80 F8 FF FF 7F  ...s045..E......
0080: F8 FF FF 7F 66 64 69 31  00 80 2B 76 10 0F 01 07  ....fdi1..+v....
0090: 80 23 52 06 80 F8 FF FF  7F F8 FF FF 7F 73 30 34  .#R..........s04
00A0: 35 02 09 10 08 80 00 BD  00 45 06 80 F8 FF FF 7F  5........E......
00B0: F8 FF FF 7F 73 30 37 38  00 80 01 06 01 02 09 10  ....s078........
00C0: 09 80 00 D9 00 45 06 80  F8 FF FF 7F F8 FF FF 7F  .....E..........
00D0: 73 30 37 38 00 80 01 06  01 02 09 10 0A 80 00 F5  s078............
00E0: 00 45 06 80 F8 FF FF 7F  F8 FF FF 7F 73 30 38 37  .E..........s087
00F0: 00 80 01 06 01 45 06 80  F8 FF FF 7F F8 FF FF 7F  .....E..........
0100: 73 30 34 36 00 80 27 0B  EB 10 0F 01 40 1C 0B 80  s046..'.....@...
0110: 4B F0 FF FF 7F 0C 80 79  00 F0 FF FF 7F EB 10 0F  K......y........
0120: 01 2B EB 10 0F 01 0D 80  23 2A 0B EB 10 0F 01 02  .+......#*......
0130: 09 10 08 80 00 49 01 52  06 80 F8 FF FF 7F F8 FF  .....I.R........
0140: FF 7F 73 30 37 38 01 8C  01 02 09 10 09 80 00 63  ..s078.........c
0150: 01 52 06 80 F8 FF FF 7F  F8 FF FF 7F 73 30 37 38  .R..........s078
0160: 01 8C 01 02 09 10 0A 80  00 7D 01 52 06 80 F8 FF  .........}.R....
0170: FF 7F F8 FF FF 7F 73 30  38 37 01 8C 01 52 06 80  ......s087...R..
0180: F8 FF FF 7F F8 FF FF 7F  73 30 34 36 45 02 80 F0  ........s046E...
0190: FF FF 7F F0 FF FF 7F 6F  76 6C 31 00 80 45 06 80  .......ovl1..E..
01A0: F8 FF FF 7F F8 FF FF 7F  73 30 34 37 00 80 2B EB  ........s047..+.
01B0: 10 0F 01 0E 80 23 2B EB  10 0F 01 0F 80 23 29 0B  .....#+......#).
01C0: F0 FF FF 7F 47 52 06 80  F8 FF FF 7F F8 FF FF 7F  ....GR..........
01D0: 73 30 34 37 45 06 80 F8  FF FF 7F F8 FF FF 7F 73  s047E..........s
01E0: 30 34 38 00 80 79 00 76  10 0F 01 EB 10 0F 01 79  048..y.v.......y
01F0: 00 EB 10 0F 01 76 10 0F  01 27 0B EB 10 0F 01 41  .....v...'.....A
0200: 2B EB 10 0F 01 10 80 23  2A 0B EB 10 0F 01 45 02  +......#*.....E.
0210: 80 F8 FF FF 7F F8 FF FF  7F 66 64 6F 31 00 80 1C  .........fdo1...
0220: 03 80 52 06 80 F8 FF FF  7F F8 FF FF 7F 73 30 34  ..R..........s04
0230: 38 7B 76 10 0F 01 29 0B  EB 10 0F 01 42 29 0B F0  8{v...).....B)..
0240: FF FF 7F 48 79 00 EB 10  0F 01 76 10 0F 01 79 00  ...Hy.....v...y.
0250: F0 FF FF 7F 76 10 0F 01  29 0B 77 10 0F 01 1C 29  ....v...).w....)
0260: 0B 78 10 0F 01 1D 4A 77  10 0F 01 76 10 0F 01 4A  .x....Jw...v...J
0270: 78 10 0F 01 76 10 0F 01  6F 76 77 10 0F 01 6F 76  x...v...ovw...ov
0280: 78 10 0F 01 5C 00 11 80  5C 01 11 80 1C 12 80 45  x...\...\......E
0290: 06 80 F8 FF FF 7F F8 FF  FF 7F 73 30 34 39 00 80  ..........s049..
02A0: 45 02 80 F8 FF FF 7F F8  FF FF 7F 66 64 69 31 00  E..........fdi1.
02B0: 80 2B 76 10 0F 01 13 80  23 2B 76 10 0F 01 14 80  .+v.....#+v.....
02C0: 23 52 06 80 F8 FF FF 7F  F8 FF FF 7F 73 30 34 39  #R..........s049
02D0: 02 09 10 08 80 00 EC 02  45 06 80 F8 FF FF 7F F8  ........E.......
02E0: FF FF 7F 73 30 37 39 00  80 01 19 03 02 09 10 09  ...s079.........
02F0: 80 00 08 03 45 06 80 F8  FF FF 7F F8 FF FF 7F 73  ....E..........s
0300: 30 37 39 00 80 01 19 03  45 06 80 F8 FF FF 7F F8  079.....E.......
0310: FF FF 7F 73 30 35 30 00  80 4A EB 10 0F 01 76 10  ...s050..J....v.
0320: 0F 01 2B EB 10 0F 01 15  80 23 6F 76 EB 10 0F 01  ..+......#ov....
0330: 29 08 76 10 0F 01 0C 2B  76 10 0F 01 16 80 23 29  ).v....+v.....#)
0340: 08 76 10 0F 01 0D 29 08  EB 10 0F 01 0F 2B EB 10  .v....)......+..
0350: 0F 01 17 80 23 02 09 10  08 80 00 6F 03 52 06 80  ....#......o.R..
0360: F8 FF FF 7F F8 FF FF 7F  73 30 37 39 01 98 03 02  ........s079....
0370: 09 10 09 80 00 89 03 52  06 80 F8 FF FF 7F F8 FF  .......R........
0380: FF 7F 73 30 37 39 01 98  03 52 06 80 F8 FF FF 7F  ..s079...R......
0390: F8 FF FF 7F 73 30 35 30  45 06 80 F8 FF FF 7F F8  ....s050E.......
03A0: FF FF 7F 73 30 35 35 00  80 29 08 76 10 0F 01 05  ...s055..).v....
03B0: 29 08 EB 10 0F 01 10 29  08 EB 10 0F 01 11 2B 76  )......)......+v
03C0: 10 0F 01 18 80 23 29 08  76 10 0F 01 06 52 06 80  .....#).v....R..
03D0: F8 FF FF 7F F8 FF FF 7F  73 30 35 35 45 02 80 F0  ........s055E...
03E0: FF FF 7F F0 FF FF 7F 6F  76 6C 31 00 80 45 06 80  .......ovl1..E..
03F0: F8 FF FF 7F F8 FF FF 7F  73 30 35 34 00 80 2B 76  ........s054..+v
0400: 10 0F 01 19 80 23 2B 76  10 0F 01 1A 80 23 2B EB  .....#+v.....#+.
0410: 10 0F 01 1B 80 23 52 06  80 F8 FF FF 7F F8 FF FF  .....#R.........
0420: 7F 73 30 35 34 45 06 80  F8 FF FF 7F F8 FF FF 7F  .s054E..........
0430: 73 30 35 31 00 80 2B 76  10 0F 01 1C 80 23 2B 76  s051..+v.....#+v
0440: 10 0F 01 1D 80 23 29 08  EB 10 0F 01 12 52 06 80  .....#)......R..
0450: F8 FF FF 7F F8 FF FF 7F  73 30 35 31 02 09 10 08  ........s051....
0460: 80 00 78 04 45 06 80 F8  FF FF 7F F8 FF FF 7F 73  ..x.E..........s
0470: 30 38 30 00 80 01 A5 04  02 09 10 09 80 00 94 04  080.............
0480: 45 06 80 F8 FF FF 7F F8  FF FF 7F 73 30 38 30 00  E..........s080.
0490: 80 01 A5 04 45 06 80 F8  FF FF 7F F8 FF FF 7F 73  ....E..........s
04A0: 30 35 36 00 80 29 08 76  10 0F 01 07 2B 76 10 0F  056..).v....+v..
04B0: 01 1E 80 23 29 08 76 10  0F 01 08 29 08 EB 10 0F  ...#).v....)....
04C0: 01 0F 2B EB 10 0F 01 1F  80 23 2B EB 10 0F 01 20  ..+......#+.... 
04D0: 80 23 29 08 EB 10 0F 01  10 02 09 10 08 80 00 F3  .#).............
04E0: 04 52 06 80 F8 FF FF 7F  F8 FF FF 7F 73 30 38 30  .R..........s080
04F0: 01 1C 05 02 09 10 09 80  00 0D 05 52 06 80 F8 FF  ...........R....
0500: FF 7F F8 FF FF 7F 73 30  38 30 01 1C 05 52 06 80  ......s080...R..
0510: F8 FF FF 7F F8 FF FF 7F  73 30 35 36 45 06 80 F8  ........s056E...
0520: FF FF 7F F8 FF FF 7F 73  30 35 33 00 80 29 08 76  .......s053..).v
0530: 10 0F 01 01 2B 76 10 0F  01 21 80 23 29 08 76 10  ....+v...!.#).v.
0540: 0F 01 02 52 06 80 F8 FF  FF 7F F8 FF FF 7F 73 30  ...R..........s0
0550: 35 33 45 02 80 F0 FF FF  7F F0 FF FF 7F 6F 76 6C  53E..........ovl
0560: 31 00 80 45 06 80 F8 FF  FF 7F F8 FF FF 7F 73 30  1..E..........s0
0570: 35 37 00 80 29 08 EB 10  0F 01 11 2B EB 10 0F 01  57..)......+....
0580: 22 80 23 29 08 EB 10 0F  01 12 52 06 80 F8 FF FF  ".#)......R.....
0590: 7F F8 FF FF 7F 73 30 35  37 45 06 80 F8 FF FF 7F  .....s057E......
05A0: F8 FF FF 7F 73 30 35 38  00 80 29 08 76 10 0F 01  ....s058..).v...
05B0: 0E 2B 76 10 0F 01 23 80  23 29 08 76 10 0F 01 0F  .+v...#.#).v....
05C0: 2B 76 10 0F 01 24 80 23  52 06 80 F8 FF FF 7F F8  +v...$.#R.......
05D0: FF FF 7F 73 30 35 38 45  02 80 F0 FF FF 7F F0 FF  ...s058E........
05E0: FF 7F 6F 76 6C 31 00 80  45 06 80 F8 FF FF 7F F8  ..ovl1..E.......
05F0: FF FF 7F 73 30 35 39 00  80 2B 76 10 0F 01 25 80  ...s059..+v...%.
0600: 23 2B 76 10 0F 01 26 80  23 45 02 80 F0 FF FF 7F  #+v...&.#E......
0610: F0 FF FF 7F 66 64 6F 31  00 80 1C 03 80 2B 76 10  ....fdo1.....+v.
0620: 0F 01 27 80 23 52 06 80  F8 FF FF 7F F8 FF FF 7F  ..'.#R..........
0630: 73 30 35 39 02 09 10 08  80 00 50 06 45 06 80 F8  s059......P.E...
0640: FF FF 7F F8 FF FF 7F 73  30 38 31 00 80 01 7D 06  .......s081...}.
0650: 02 09 10 09 80 00 6C 06  45 06 80 F8 FF FF 7F F8  ......l.E.......
0660: FF FF 7F 73 30 38 31 00  80 01 7D 06 45 06 80 F8  ...s081...}.E...
0670: FF FF 7F F8 FF FF 7F 73  30 35 32 00 80 45 02 80  .......s052..E..
0680: F0 FF FF 7F F0 FF FF 7F  66 64 69 31 00 80 2B EB  ........fdi1..+.
0690: 10 0F 01 28 80 23 29 08  76 10 0F 01 0C 29 08 76  ...(.#).v....).v
06A0: 10 0F 01 0D 02 09 10 08  80 00 BE 06 52 06 80 F8  ............R...
06B0: FF FF 7F F8 FF FF 7F 73  30 38 31 01 E7 06 02 09  .......s081.....
06C0: 10 09 80 00 D8 06 52 06  80 F8 FF FF 7F F8 FF FF  ......R.........
06D0: 7F 73 30 38 31 01 E7 06  52 06 80 F8 FF FF 7F F8  .s081...R.......
06E0: FF FF 7F 73 30 35 32 45  06 80 F8 FF FF 7F F8 FF  ...s052E........
06F0: FF 7F 73 30 36 30 00 80  79 00 76 10 0F 01 F0 FF  ..s060..y.v.....
0700: FF 7F 2B 76 10 0F 01 29  80 23 29 08 76 10 0F 01  ..+v...).#).v...
0710: 01 2B 76 10 0F 01 2A 80  23 29 08 76 10 0F 01 02  .+v...*.#).v....
0720: 29 08 76 10 0F 01 03 2B  76 10 0F 01 2B 80 23 29  ).v....+v...+.#)
0730: 08 76 10 0F 01 04 52 06  80 F8 FF FF 7F F8 FF FF  .v....R.........
0740: 7F 73 30 36 30 45 06 80  F8 FF FF 7F F8 FF FF 7F  .s060E..........
0750: 73 30 36 31 00 80 7B 76  10 0F 01 29 08 76 10 0F  s061..{v...).v..
0760: 01 05 2B 76 10 0F 01 2C  80 23 2B 76 10 0F 01 2D  ..+v...,.#+v...-
0770: 80 23 29 08 76 10 0F 01  06 29 08 76 10 0F 01 07  .#).v....).v....
0780: 29 08 EB 10 0F 01 0F 2B  EB 10 0F 01 2E 80 23 29  )......+......#)
0790: 08 EB 10 0F 01 10 29 08  76 10 0F 01 08 52 06 80  ......).v....R..
07A0: F8 FF FF 7F F8 FF FF 7F  73 30 36 31 45 06 80 F8  ........s061E...
07B0: FF FF 7F F8 FF FF 7F 73  30 34 35 00 80 29 08 76  .......s045..).v
07C0: 10 0F 01 0E 2B 76 10 0F  01 2F 80 23 29 08 76 10  ....+v.../.#).v.
07D0: 0F 01 0F 2B 76 10 0F 01  30 80 23 2B 76 10 0F 01  ...+v...0.#+v...
07E0: 31 80 23 52 06 80 F8 FF  FF 7F F8 FF FF 7F 73 30  1.#R..........s0
07F0: 34 35 45 06 80 F8 FF FF  7F F8 FF FF 7F 73 30 36  45E..........s06
0800: 32 00 80 7C 00 EB 10 0F  01 29 08 EB 10 0F 01 11  2..|.....)......
0810: 2B EB 10 0F 01 32 80 23  29 08 EB 10 0F 01 12 7C  +....2.#)......|
0820: 01 EB 10 0F 01 7B 76 10  0F 01 2B 76 10 0F 01 33  .....{v...+v...3
0830: 80 23 52 06 80 F8 FF FF  7F F8 FF FF 7F 73 30 36  .#R..........s06
0840: 32 45 02 80 F0 FF FF 7F  F0 FF FF 7F 6F 76 6C 31  2E..........ovl1
0850: 00 80 45 06 80 F8 FF FF  7F F8 FF FF 7F 73 30 35  ..E..........s05
0860: 34 00 80 79 00 76 10 0F  01 EB 10 0F 01 2B 76 10  4..y.v.......+v.
0870: 0F 01 34 80 23 5D 00 80  01 80 45 02 80 F8 FF FF  ..4.#]....E.....
0880: 7F F8 FF FF 7F 66 64 6F  31 00 80 1C 01 80 52 06  .....fdo1.....R.
0890: 80 F8 FF FF 7F F8 FF FF  7F 73 30 35 34 7B EB 10  .........s054{..
08A0: 0F 01 7B F0 FF FF 7F 29  0B EB 10 0F 01 43 29 0B  ..{....).....C).
08B0: F0 FF FF 7F 49 29 0B EC  10 0F 01 48 27 0B EB 10  ....I).....H'...
08C0: 0F 01 44 27 0B F0 FF FF  7F 4A 02 09 10 08 80 00  ..D'.....J......
08D0: E6 08 45 06 80 F8 FF FF  7F F8 FF FF 7F 73 30 38  ..E..........s08
08E0: 32 00 80 01 2F 09 02 09  10 09 80 00 02 09 45 06  2.../.........E.
08F0: 80 F8 FF FF 7F F8 FF FF  7F 73 30 38 32 00 80 01  .........s082...
0900: 2F 09 02 09 10 0A 80 00  1E 09 45 06 80 F8 FF FF  /.........E.....
0910: 7F F8 FF FF 7F 73 30 38  38 00 80 01 2F 09 45 06  .....s088.../.E.
0920: 80 F8 FF FF 7F F8 FF FF  7F 73 30 36 33 00 80 45  .........s063..E
0930: 02 80 F8 FF FF 7F F8 FF  FF 7F 66 64 69 31 00 80  ..........fdi1..
0940: 2A 0B EB 10 0F 01 79 00  EB 10 0F 01 F0 FF FF 7F  *.....y.........
0950: 79 00 F0 FF FF 7F EB 10  0F 01 2B EB 10 0F 01 35  y.........+....5
0960: 80 23 2A 0B F0 FF FF 7F  4A F0 FF FF 7F EB 10 0F  .#*.....J.......
0970: 01 7B EB 10 0F 01 02 09  10 08 80 00 90 09 52 06  .{............R.
0980: 80 F8 FF FF 7F F8 FF FF  7F 73 30 38 32 01 D3 09  .........s082...
0990: 02 09 10 09 80 00 AA 09  52 06 80 F8 FF FF 7F F8  ........R.......
09A0: FF FF 7F 73 30 38 32 01  D3 09 02 09 10 0A 80 00  ...s082.........
09B0: C4 09 52 06 80 F8 FF FF  7F F8 FF FF 7F 73 30 38  ..R..........s08
09C0: 38 01 D3 09 52 06 80 F8  FF FF 7F F8 FF FF 7F 73  8...R..........s
09D0: 30 36 33 02 09 10 08 80  00 EF 09 45 06 80 F8 FF  063........E....
09E0: FF 7F F8 FF FF 7F 73 30  38 33 00 80 01 1C 0A 02  ......s083......
09F0: 09 10 09 80 00 0B 0A 45  06 80 F8 FF FF 7F F8 FF  .......E........
0A00: FF 7F 73 30 38 33 00 80  01 1C 0A 45 06 80 F8 FF  ..s083.....E....
0A10: FF 7F F8 FF FF 7F 73 30  36 35 00 80 29 08 EB 10  ......s065..)...
0A20: 0F 01 13 2B EB 10 0F 01  36 80 23 2B EB 10 0F 01  ...+....6.#+....
0A30: 37 80 23 29 08 EB 10 0F  01 14 02 09 10 08 80 00  7.#)............
0A40: 54 0A 52 06 80 F8 FF FF  7F F8 FF FF 7F 73 30 38  T.R..........s08
0A50: 33 01 7D 0A 02 09 10 09  80 00 6E 0A 52 06 80 F8  3.}.......n.R...
0A60: FF FF 7F F8 FF FF 7F 73  30 38 33 01 7D 0A 52 06  .......s083.}.R.
0A70: 80 F8 FF FF 7F F8 FF FF  7F 73 30 36 35 02 09 10  .........s065...
0A80: 08 80 00 99 0A 45 06 80  F8 FF FF 7F F8 FF FF 7F  .....E..........
0A90: 73 30 38 34 00 80 01 C6  0A 02 09 10 09 80 00 B5  s084............
0AA0: 0A 45 06 80 F8 FF FF 7F  F8 FF FF 7F 73 30 38 34  .E..........s084
0AB0: 00 80 01 C6 0A 45 06 80  F8 FF FF 7F F8 FF FF 7F  .....E..........
0AC0: 73 30 36 34 00 80 29 08  EB 10 0F 01 15 2B EB 10  s064..)......+..
0AD0: 0F 01 38 80 23 29 08 EB  10 0F 01 16 6F 76 F0 FF  ..8.#)......ov..
0AE0: FF 7F 79 00 EB 10 0F 01  EC 10 0F 01 2B EB 10 0F  ..y.........+...
0AF0: 01 39 80 23 02 09 10 08  80 00 0E 0B 52 06 80 F8  .9.#........R...
0B00: FF FF 7F F8 FF FF 7F 73  30 38 34 01 37 0B 02 09  .......s084.7...
0B10: 10 09 80 00 28 0B 52 06  80 F8 FF FF 7F F8 FF FF  ....(.R.........
0B20: 7F 73 30 38 34 01 37 0B  52 06 80 F8 FF FF 7F F8  .s084.7.R.......
0B30: FF FF 7F 73 30 36 34 02  09 10 08 80 00 53 0B 45  ...s064......S.E
0B40: 06 80 F8 FF FF 7F F8 FF  FF 7F 73 30 38 35 00 80  ..........s085..
0B50: 01 80 0B 02 09 10 09 80  00 6F 0B 45 06 80 F8 FF  .........o.E....
0B60: FF 7F F8 FF FF 7F 73 30  38 35 00 80 01 80 0B 45  ......s085.....E
0B70: 06 80 F8 FF FF 7F F8 FF  FF 7F 73 30 36 36 00 80  ..........s066..
0B80: 7B EB 10 0F 01 27 0B EB  10 0F 01 45 2B EB 10 0F  {....'.....E+...
0B90: 01 3A 80 23 2A 0B EB 10  0F 01 2B EB 10 0F 01 3B  .:.#*.....+....;
0BA0: 80 23 02 09 10 08 80 00  BC 0B 52 06 80 F8 FF FF  .#........R.....
0BB0: 7F F8 FF FF 7F 73 30 38  35 01 E5 0B 02 09 10 09  .....s085.......
0BC0: 80 00 D6 0B 52 06 80 F8  FF FF 7F F8 FF FF 7F 73  ....R..........s
0BD0: 30 38 35 01 E5 0B 52 06  80 F8 FF FF 7F F8 FF FF  085...R.........
0BE0: 7F 73 30 36 36 45 02 80  F0 FF FF 7F F0 FF FF 7F  .s066E..........
0BF0: 6F 76 6C 31 00 80 45 06  80 F8 FF FF 7F F8 FF FF  ovl1..E.........
0C00: 7F 73 30 36 37 00 80 4E  01 F0 FF FF 7F 4E 00 EC  .s067..N.....N..
0C10: 10 0F 01 2B EB 10 0F 01  3C 80 23 2B EB 10 0F 01  ...+....<.#+....
0C20: 3D 80 23 80 EC 10 0F 01  79 00 EC 10 0F 01 EB 10  =.#.....y.......
0C30: 0F 01 52 06 80 F8 FF FF  7F F8 FF FF 7F 73 30 36  ..R..........s06
0C40: 37 45 06 80 F8 FF FF 7F  F8 FF FF 7F 73 30 36 38  7E..........s068
0C50: 00 80 4E 00 F0 FF FF 7F  5C 00 3E 80 5C 01 3E 80  ..N.....\.>.\.>.
0C60: 79 00 F0 FF FF 7F EC 10  0F 01 27 0B EC 10 0F 01  y.........'.....
0C70: 49 1C 3F 80 4A EB 10 0F  01 EC 10 0F 01 1C 40 80  I.?.J.........@.
0C80: 4A F0 FF FF 7F EC 10 0F  01 29 08 EC 10 0F 01 4A  J........).....J
0C90: 2A 0B EC 10 0F 01 6F 76  EB 10 0F 01 52 06 80 F8  *.....ov....R...
0CA0: FF FF 7F F8 FF FF 7F 73  30 36 38 45 02 80 F0 FF  .......s068E....
0CB0: FF 7F F0 FF FF 7F 6F 76  6C 31 00 80 45 06 80 F8  ......ovl1..E...
0CC0: FF FF 7F F8 FF FF 7F 73  30 36 39 00 80 27 08 EC  .......s069..'..
0CD0: 10 0F 01 2E 2B EC 10 0F  01 41 80 23 2A 08 EC 10  ....+....A.#*...
0CE0: 0F 01 52 06 80 F8 FF FF  7F F8 FF FF 7F 73 30 36  ..R..........s06
0CF0: 39 45 02 80 F0 FF FF 7F  F0 FF FF 7F 6F 76 6C 31  9E..........ovl1
0D00: 00 80 45 06 80 F8 FF FF  7F F8 FF FF 7F 73 30 37  ..E..........s07
0D10: 31 00 80 2B EC 10 0F 01  42 80 23 29 08 EC 10 0F  1..+....B.#)....
0D20: 01 07 2B EC 10 0F 01 43  80 23 29 08 EC 10 0F 01  ..+....C.#).....
0D30: 08 2B EB 10 0F 01 44 80  23 52 06 80 F8 FF FF 7F  .+....D.#R......
0D40: F8 FF FF 7F 73 30 37 31  45 06 80 F8 FF FF 7F F8  ....s071E.......
0D50: FF FF 7F 73 30 37 35 00  80 27 08 EC 10 0F 01 4B  ...s075..'.....K
0D60: 2B EC 10 0F 01 45 80 23  2A 08 EC 10 0F 01 29 08  +....E.#*.....).
0D70: EC 10 0F 01 0D 2B EC 10  0F 01 46 80 23 29 08 EC  .....+....F.#)..
0D80: 10 0F 01 0E 52 06 80 F8  FF FF 7F F8 FF FF 7F 73  ....R..........s
0D90: 30 37 35 45 06 80 F8 FF  FF 7F F8 FF FF 7F 73 30  075E..........s0
0DA0: 37 32 00 80 27 08 EB 10  0F 01 1B 2B EB 10 0F 01  72..'......+....
0DB0: 47 80 23 2A 08 EB 10 0F  01 52 06 80 F8 FF FF 7F  G.#*.....R......
0DC0: F8 FF FF 7F 73 30 37 32  45 06 80 F8 FF FF 7F F8  ....s072E.......
0DD0: FF FF 7F 73 30 37 33 00  80 27 0B EC 10 0F 01 4C  ...s073..'.....L
0DE0: 2B EC 10 0F 01 48 80 23  2A 0B EC 10 0F 01 27 08  +....H.#*.....'.
0DF0: EC 10 0F 01 30 2B EC 10  0F 01 49 80 23 2A 08 EC  ....0+....I.#*..
0E00: 10 0F 01 52 06 80 F8 FF  FF 7F F8 FF FF 7F 73 30  ...R..........s0
0E10: 37 33 45 06 80 F8 FF FF  7F F8 FF FF 7F 73 30 37  73E..........s07
0E20: 30 00 80 4A EC 10 0F 01  EB 10 0F 01 6F 76 EC 10  0..J........ov..
0E30: 0F 01 29 08 EC 10 0F 01  01 2B EC 10 0F 01 4A 80  ..)......+....J.
0E40: 23 2B EC 10 0F 01 4B 80  23 29 08 EC 10 0F 01 02  #+....K.#)......
0E50: 52 06 80 F8 FF FF 7F F8  FF FF 7F 73 30 37 30 45  R..........s070E
0E60: 06 80 F8 FF FF 7F F8 FF  FF 7F 73 30 37 34 00 80  ..........s074..
0E70: 4A F0 FF FF 7F EC 10 0F  01 27 0B EB 10 0F 01 46  J........'.....F
0E80: 2B EB 10 0F 01 4C 80 23  2A 0B EB 10 0F 01 27 08  +....L.#*.....'.
0E90: EC 10 0F 01 2F 2B EC 10  0F 01 4D 80 23 2A 08 EC  ..../+....M.#*..
0EA0: 10 0F 01 6F 76 EC 10 0F  01 52 06 80 F8 FF FF 7F  ...ov....R......
0EB0: F8 FF FF 7F 73 30 37 34  02 09 10 08 80 00 D4 0E  ....s074........
0EC0: 45 06 80 F8 FF FF 7F F8  FF FF 7F 73 30 38 36 00  E..........s086.
0ED0: 80 01 01 0F 02 09 10 09  80 00 F0 0E 45 06 80 F8  ............E...
0EE0: FF FF 7F F8 FF FF 7F 73  30 38 36 00 80 01 01 0F  .......s086.....
0EF0: 45 06 80 F8 FF FF 7F F8  FF FF 7F 73 30 37 36 00  E..........s076.
0F00: 80 29 0B EC 10 0F 01 4D  79 00 F0 FF FF 7F EB 10  .).....My.......
0F10: 0F 01 7B EB 10 0F 01 27  0B EB 10 0F 01 47 2B EB  ..{....'.....G+.
0F20: 10 0F 01 4E 80 23 2A 0B  EB 10 0F 01 29 08 EB 10  ...N.#*.....)...
0F30: 0F 01 13 2B EB 10 0F 01  4F 80 23 29 08 EB 10 0F  ...+....O.#)....
0F40: 01 14 2B EB 10 0F 01 50  80 23 02 09 10 08 80 00  ..+....P.#......
0F50: 64 0F 52 06 80 F8 FF FF  7F F8 FF FF 7F 73 30 38  d.R..........s08
0F60: 36 01 8D 0F 02 09 10 09  80 00 7E 0F 52 06 80 F8  6.........~.R...
0F70: FF FF 7F F8 FF FF 7F 73  30 38 36 01 8D 0F 52 06  .......s086...R.
0F80: 80 F8 FF FF 7F F8 FF FF  7F 73 30 37 36 5D 00 80  .........s076]..
0F90: 02 80 45 06 80 F8 FF FF  7F F8 FF FF 7F 73 30 37  ..E..........s07
0FA0: 37 00 80 29 08 EB 10 0F  01 15 29 08 EB 10 0F 01  7..)......).....
0FB0: 16 4A F0 FF FF 7F EB 10  0F 01 27 0B EB 10 0F 01  .J........'.....
0FC0: 48 27 0B EC 10 0F 01 4E  1C 51 80 4A F0 FF FF 7F  H'.....N.Q.J....
0FD0: EB 10 0F 01 1C 01 80 45  02 80 F0 FF FF 7F F0 FF  .......E........
0FE0: FF 7F 66 64 6F 31 00 80  1C 03 80 52 06 80 F8 FF  ..fdo1.....R....
0FF0: FF 7F F8 FF FF 7F 73 30  37 37 2A 0B EB 10 0F 01  ......s077*.....
1000: 2A 0B EC 10 0F 01 5C 00  52 80 5C 01 52 80 1C 12  *.....\.R.\.R...
1010: 80 4E 00 F0 FF FF 7F 80  F0 FF FF 7F 46 00 45 02  .N..........F.E.
1020: 80 F0 FF FF 7F F0 FF FF  7F 66 64 69 31 00 80 20  .........fdi1.. 
1030: 00 21 00                                          .!.             
```

#### Opcodes

```
  0: 0x0001 [0x20] SET_CLI_EVENT_UC_FLAG: Lock player control
  1: 0x0003 [0x42] SET_CLI_EVENT_CANCEL_DATA()
  2: 0x0004 [0x46] CAMERA_CONTROL: Disable user control
  3: 0x0006 [0x5D] SET_MUSIC_VOLUME(volume=0*, fade_time=120*)
  4: 0x000B [0x45] LOAD_SCHEDULED_TASK: Load scheduler "fdo1" with entities [EventEntity, EventEntity], work=[200*, 0*]
  5: 0x001C [0x1C] WAIT(60* ticks)
  6: 0x001F [0x38] SET_CLIENT_EVENT_MODE(mode=19*)
  7: 0x0022 [0x29] REQ_SET_WAIT(priority=0x08, entity_id=LocalPlayer, tag_num=0x07)
  8: 0x0029 [0x29] REQ_SET_WAIT(priority=0x08, entity_id=LocalPlayer, tag_num=0x04)
  9: 0x0030 [0x4E] SET_ENTITY_HIDE_FLAG: Show Louverance (ID: 17764587/0x010F10EB)
 10: 0x0036 [0x80] LOAD_WAIT(entity=Louverance (ID: 17764587/0x010F10EB))
 11: 0x003B [0x29] REQ_SET_WAIT(priority=0x0B, entity_id=Louverance (ID: 17764587/0x010F10EB), tag_num=0x3F)
 12: 0x0042 [0x29] REQ_SET_WAIT(priority=0x0B, entity_id=LocalPlayer, tag_num=0x46)
 13: 0x0049 [0x79] LocalPlayer looks at Perih Vashai (ID: 17764470/0x010F1076) (Basic look)
 14: 0x0053 [0x92] Muhk Johldy (ID: 17764471/0x010F1077)->Render.Flags3 ^= 0x01
 15: 0x0059 [0x92] Kapeh Myohrye (ID: 17764472/0x010F1078)->Render.Flags3 ^= 0x01
 16: 0x005F [0x92] Perih Vashai (ID: 17764470/0x010F1076)->Render.Flags3 ^= 0x01
 17: 0x0065 [0x1C] WAIT(90* ticks)
 18: 0x0068 [0x45] LOAD_SCHEDULED_TASK: Load scheduler "s045" with entities [EventEntity, EventEntity], work=[128*, 0*]
 19: 0x0079 [0x45] LOAD_SCHEDULED_TASK: Load scheduler "fdi1" with entities [EventEntity, EventEntity], work=[200*, 0*]
 20: 0x008A [0x2B] Perih Vashai (ID: 17764470/0x010F1076) [9958*]:
    → "You wish to hear of Al'Taieu, adventurer?"
 21: 0x0091 [0x23] WAIT_FOR_DIALOG_INTERACTION
 22: 0x0092 [0x52] END_LOAD_SCHEDULER: End scheduler "s045" with entities [EventEntity, EventEntity], work=128*
 23: 0x00A1 [0x02] IF !(Work_Zone[9] == 5*) GOTO 0x00BD
 24: 0x00A9 [0x45] LOAD_SCHEDULED_TASK: Load scheduler "s078" with entities [EventEntity, EventEntity], work=[128*, 0*]
 25: 0x00BA [0x01] GOTO 0x0106
 26: 0x00BD [0x02] IF !(Work_Zone[9] == 6*) GOTO 0x00D9
 27: 0x00C5 [0x45] LOAD_SCHEDULED_TASK: Load scheduler "s078" with entities [EventEntity, EventEntity], work=[128*, 0*]
 28: 0x00D6 [0x01] GOTO 0x0106
 29: 0x00D9 [0x02] IF !(Work_Zone[9] == 8*) GOTO 0x00F5
 30: 0x00E1 [0x45] LOAD_SCHEDULED_TASK: Load scheduler "s087" with entities [EventEntity, EventEntity], work=[128*, 0*]
 31: 0x00F2 [0x01] GOTO 0x0106
 32: 0x00F5 [0x45] LOAD_SCHEDULED_TASK: Load scheduler "s046" with entities [EventEntity, EventEntity], work=[128*, 0*]

SUBROUTINE_0106:
 33: 0x0106 [0x27] REQ_SET(priority=0x0B, entity_id=Louverance (ID: 17764587/0x010F10EB), tag_num=0x40)
 34: 0x010D [0x1C] WAIT(40* ticks)
 35: 0x0110 [0x4B] UPDATE_ENTITY_YAW(entity=LocalPlayer, yaw=21.3°*)
 36: 0x0117 [0x79] LocalPlayer looks at Louverance (ID: 17764587/0x010F10EB) (Basic look)
 37: 0x0121 [0x2B] Louverance (ID: 17764587/0x010F10EB) [9959*]:
    → "A moment. To ask questions in such a blunt manner does not befit a [lady/gentleman]."
 38: 0x0128 [0x23] WAIT_FOR_DIALOG_INTERACTION
 39: 0x0129 [0x2A] GET_REQ_LEVEL(level=11, entity_id=Louverance (ID: 17764587/0x010F10EB))
 40: 0x012F [0x02] IF !(Work_Zone[9] == 5*) GOTO 0x0149
 41: 0x0137 [0x52] END_LOAD_SCHEDULER: End scheduler "s078" with entities [EventEntity, EventEntity], work=128*
 42: 0x0146 [0x01] GOTO 0x018C
 43: 0x0149 [0x02] IF !(Work_Zone[9] == 6*) GOTO 0x0163
 44: 0x0151 [0x52] END_LOAD_SCHEDULER: End scheduler "s078" with entities [EventEntity, EventEntity], work=128*
 45: 0x0160 [0x01] GOTO 0x018C
 46: 0x0163 [0x02] IF !(Work_Zone[9] == 8*) GOTO 0x017D
 47: 0x016B [0x52] END_LOAD_SCHEDULER: End scheduler "s087" with entities [EventEntity, EventEntity], work=128*
 48: 0x017A [0x01] GOTO 0x018C
 49: 0x017D [0x52] END_LOAD_SCHEDULER: End scheduler "s046" with entities [EventEntity, EventEntity], work=128*

SUBROUTINE_018C:
 50: 0x018C [0x45] LOAD_SCHEDULED_TASK: Load scheduler "ovl1" with entities [LocalPlayer, LocalPlayer], work=[200*, 0*]
 51: 0x019D [0x45] LOAD_SCHEDULED_TASK: Load scheduler "s047" with entities [EventEntity, EventEntity], work=[128*, 0*]
 52: 0x01AE [0x2B] Louverance (ID: 17764587/0x010F10EB) [9960*]:
    → "My most humble apologies for the intrusion, Chieftainness Perih Vashai."
 53: 0x01B5 [0x23] WAIT_FOR_DIALOG_INTERACTION
 54: 0x01B6 [0x2B] Louverance (ID: 17764587/0x010F10EB) [9961*]:
    → "My name is Louverance N Mistalle. To save the people of Vana'diel, I seek the truth that hides behind the veil of history."
 55: 0x01BD [0x23] WAIT_FOR_DIALOG_INTERACTION
 56: 0x01BE [0x29] REQ_SET_WAIT(priority=0x0B, entity_id=LocalPlayer, tag_num=0x47)
 57: 0x01C5 [0x52] END_LOAD_SCHEDULER: End scheduler "s047" with entities [EventEntity, EventEntity], work=128*
 58: 0x01D4 [0x45] LOAD_SCHEDULED_TASK: Load scheduler "s048" with entities [EventEntity, EventEntity], work=[128*, 0*]
 59: 0x01E5 [0x79] Perih Vashai (ID: 17764470/0x010F1076) looks at Louverance (ID: 17764587/0x010F10EB) (Basic look)
 60: 0x01EF [0x79] Louverance (ID: 17764587/0x010F10EB) looks at Perih Vashai (ID: 17764470/0x010F1076) (Basic look)
 61: 0x01F9 [0x27] REQ_SET(priority=0x0B, entity_id=Louverance (ID: 17764587/0x010F10EB), tag_num=0x41)
 62: 0x0200 [0x2B] Louverance (ID: 17764587/0x010F10EB) [9962*]:
    → "A time of apocalypse is at hand. I beg you for the guiding knowledge of ages, passed down through the Mithran race..."
 63: 0x0207 [0x23] WAIT_FOR_DIALOG_INTERACTION
 64: 0x0208 [0x2A] GET_REQ_LEVEL(level=11, entity_id=Louverance (ID: 17764587/0x010F10EB))
 65: 0x020E [0x45] LOAD_SCHEDULED_TASK: Load scheduler "fdo1" with entities [EventEntity, EventEntity], work=[200*, 0*]
 66: 0x021F [0x1C] WAIT(60* ticks)
 67: 0x0222 [0x52] END_LOAD_SCHEDULER: End scheduler "s048" with entities [EventEntity, EventEntity], work=128*
 68: 0x0231 [0x7B] Perih Vashai (ID: 17764470/0x010F1076) stops talking
 69: 0x0236 [0x29] REQ_SET_WAIT(priority=0x0B, entity_id=Louverance (ID: 17764587/0x010F10EB), tag_num=0x42)
 70: 0x023D [0x29] REQ_SET_WAIT(priority=0x0B, entity_id=LocalPlayer, tag_num=0x48)
 71: 0x0244 [0x79] Louverance (ID: 17764587/0x010F10EB) looks at Perih Vashai (ID: 17764470/0x010F1076) (Basic look)
 72: 0x024E [0x79] LocalPlayer looks at Perih Vashai (ID: 17764470/0x010F1076) (Basic look)
 73: 0x0258 [0x29] REQ_SET_WAIT(priority=0x0B, entity_id=Muhk Johldy (ID: 17764471/0x010F1077), tag_num=0x1C)
 74: 0x025F [0x29] REQ_SET_WAIT(priority=0x0B, entity_id=Kapeh Myohrye (ID: 17764472/0x010F1078), tag_num=0x1D)
 75: 0x0266 [0x4A] Muhk Johldy (ID: 17764471/0x010F1077) looks at Perih Vashai (ID: 17764470/0x010F1076)
 76: 0x026F [0x4A] Kapeh Myohrye (ID: 17764472/0x010F1078) looks at Perih Vashai (ID: 17764470/0x010F1076)
 77: 0x0278 [0x6F] WAIT_FRAME_DELAY: Yield until WaitTime reaches zero
 78: 0x0279 [0x76] CHECK_ENTITY_RENDER_FLAGS: Wait until Muhk Johldy (ID: 17764471/0x010F1077) Render.Flags0 and Render.Flags3 conditions are met
 79: 0x027E [0x6F] WAIT_FRAME_DELAY: Yield until WaitTime reaches zero
 80: 0x027F [0x76] CHECK_ENTITY_RENDER_FLAGS: Wait until Kapeh Myohrye (ID: 17764472/0x010F1078) Render.Flags0 and Render.Flags3 conditions are met
 81: 0x0284 [0x5C] MUSIC_CONTROL: Set Idle (Day) music to song 231*
 82: 0x0288 [0x5C] MUSIC_CONTROL: Set Idle (Night) music to song 231*
 83: 0x028C [0x1C] WAIT(100* ticks)
 84: 0x028F [0x45] LOAD_SCHEDULED_TASK: Load scheduler "s049" with entities [EventEntity, EventEntity], work=[128*, 0*]
 85: 0x02A0 [0x45] LOAD_SCHEDULED_TASK: Load scheduler "fdi1" with entities [EventEntity, EventEntity], work=[200*, 0*]
 86: 0x02B1 [0x2B] Perih Vashai (ID: 17764470/0x010F1076) [9963*]:
    → "I understand your situation. However, I know nothing of the city painted in that picture."
 87: 0x02B8 [0x23] WAIT_FOR_DIALOG_INTERACTION
 88: 0x02B9 [0x2B] Perih Vashai (ID: 17764470/0x010F1076) [9964*]:
    → "Even if you were to ask the Mithran Trrrackers, I doubt they would have an answer for you. They are on a journey to fulfill an important duty."
 89: 0x02C0 [0x23] WAIT_FOR_DIALOG_INTERACTION
 90: 0x02C1 [0x52] END_LOAD_SCHEDULER: End scheduler "s049" with entities [EventEntity, EventEntity], work=128*
 91: 0x02D0 [0x02] IF !(Work_Zone[9] == 5*) GOTO 0x02EC
 92: 0x02D8 [0x45] LOAD_SCHEDULED_TASK: Load scheduler "s079" with entities [EventEntity, EventEntity], work=[128*, 0*]
 93: 0x02E9 [0x01] GOTO 0x0319
 94: 0x02EC [0x02] IF !(Work_Zone[9] == 6*) GOTO 0x0308
 95: 0x02F4 [0x45] LOAD_SCHEDULED_TASK: Load scheduler "s079" with entities [EventEntity, EventEntity], work=[128*, 0*]
 96: 0x0305 [0x01] GOTO 0x0319
 97: 0x0308 [0x45] LOAD_SCHEDULED_TASK: Load scheduler "s050" with entities [EventEntity, EventEntity], work=[128*, 0*]

SUBROUTINE_0319:
 98: 0x0319 [0x4A] Louverance (ID: 17764587/0x010F10EB) looks at Perih Vashai (ID: 17764470/0x010F1076)
 99: 0x0322 [0x2B] Louverance (ID: 17764587/0x010F10EB) [9965*]:
    → "...? If I may be so bold, are the Mithran Trackers following the scent of some grave crime?"
100: 0x0329 [0x23] WAIT_FOR_DIALOG_INTERACTION
101: 0x032A [0x6F] WAIT_FRAME_DELAY: Yield until WaitTime reaches zero
102: 0x032B [0x76] CHECK_ENTITY_RENDER_FLAGS: Wait until Louverance (ID: 17764587/0x010F10EB) Render.Flags0 and Render.Flags3 conditions are met
103: 0x0330 [0x29] REQ_SET_WAIT(priority=0x08, entity_id=Perih Vashai (ID: 17764470/0x010F1076), tag_num=0x0C)
104: 0x0337 [0x2B] Perih Vashai (ID: 17764470/0x010F1076) [9966*]:
    → "Yes. They came to demand atonement for the sins of the Tavnazian cardinal."
105: 0x033E [0x23] WAIT_FOR_DIALOG_INTERACTION
106: 0x033F [0x29] REQ_SET_WAIT(priority=0x08, entity_id=Perih Vashai (ID: 17764470/0x010F1076), tag_num=0x0D)
107: 0x0346 [0x29] REQ_SET_WAIT(priority=0x08, entity_id=Louverance (ID: 17764587/0x010F10EB), tag_num=0x0F)
108: 0x034D [0x2B] Louverance (ID: 17764587/0x010F10EB) [9967*]:
    → "The cardinal? What crime could she have committed?"
109: 0x0354 [0x23] WAIT_FOR_DIALOG_INTERACTION
110: 0x0355 [0x02] IF !(Work_Zone[9] == 5*) GOTO 0x036F
111: 0x035D [0x52] END_LOAD_SCHEDULER: End scheduler "s079" with entities [EventEntity, EventEntity], work=128*
112: 0x036C [0x01] GOTO 0x0398
113: 0x036F [0x02] IF !(Work_Zone[9] == 6*) GOTO 0x0389
114: 0x0377 [0x52] END_LOAD_SCHEDULER: End scheduler "s079" with entities [EventEntity, EventEntity], work=128*
115: 0x0386 [0x01] GOTO 0x0398
116: 0x0389 [0x52] END_LOAD_SCHEDULER: End scheduler "s050" with entities [EventEntity, EventEntity], work=128*

SUBROUTINE_0398:
117: 0x0398 [0x45] LOAD_SCHEDULED_TASK: Load scheduler "s055" with entities [EventEntity, EventEntity], work=[128*, 0*]
118: 0x03A9 [0x29] REQ_SET_WAIT(priority=0x08, entity_id=Perih Vashai (ID: 17764470/0x010F1076), tag_num=0x05)
119: 0x03B0 [0x29] REQ_SET_WAIT(priority=0x08, entity_id=Louverance (ID: 17764587/0x010F10EB), tag_num=0x10)
120: 0x03B7 [0x29] REQ_SET_WAIT(priority=0x08, entity_id=Louverance (ID: 17764587/0x010F10EB), tag_num=0x11)
121: 0x03BE [0x2B] Perih Vashai (ID: 17764470/0x010F1076) [9968*]:
    → "Strrrangely enough, her sins are related to the picture you speak of."
122: 0x03C5 [0x23] WAIT_FOR_DIALOG_INTERACTION
123: 0x03C6 [0x29] REQ_SET_WAIT(priority=0x08, entity_id=Perih Vashai (ID: 17764470/0x010F1076), tag_num=0x06)
124: 0x03CD [0x52] END_LOAD_SCHEDULER: End scheduler "s055" with entities [EventEntity, EventEntity], work=128*
125: 0x03DC [0x45] LOAD_SCHEDULED_TASK: Load scheduler "ovl1" with entities [LocalPlayer, LocalPlayer], work=[200*, 0*]
126: 0x03ED [0x45] LOAD_SCHEDULED_TASK: Load scheduler "s054" with entities [EventEntity, EventEntity], work=[128*, 0*]
127: 0x03FE [0x2B] Perih Vashai (ID: 17764470/0x010F1076) [9969*]:
    → "That picture was stolen from the Temple of Uggalepih."
128: 0x0405 [0x23] WAIT_FOR_DIALOG_INTERACTION
129: 0x0406 [0x2B] Perih Vashai (ID: 17764470/0x010F1076) [9970*]:
    → "A Mithran Trrracker traveled to Tavnazia to recover it, but was instead presented with a deal by the cardinal."
130: 0x040D [0x23] WAIT_FOR_DIALOG_INTERACTION
131: 0x040E [0x2B] Louverance (ID: 17764587/0x010F10EB) [9971*]:
    → "A deal?"
132: 0x0415 [0x23] WAIT_FOR_DIALOG_INTERACTION
133: 0x0416 [0x52] END_LOAD_SCHEDULER: End scheduler "s054" with entities [EventEntity, EventEntity], work=128*
134: 0x0425 [0x45] LOAD_SCHEDULED_TASK: Load scheduler "s051" with entities [EventEntity, EventEntity], work=[128*, 0*]
135: 0x0436 [0x2B] Perih Vashai (ID: 17764470/0x010F1076) [9972*]:
    → "The cardinal apparently knew everything about the legend rrrecited by the Mithra, and the duty that it entails."
136: 0x043D [0x23] WAIT_FOR_DIALOG_INTERACTION
137: 0x043E [0x2B] Perih Vashai (ID: 17764470/0x010F1076) [9973*]:
    → "She also stated that the means to carry out that duty had been prepared in Tavnazia."
138: 0x0445 [0x23] WAIT_FOR_DIALOG_INTERACTION
139: 0x0446 [0x29] REQ_SET_WAIT(priority=0x08, entity_id=Louverance (ID: 17764587/0x010F10EB), tag_num=0x12)
140: 0x044D [0x52] END_LOAD_SCHEDULER: End scheduler "s051" with entities [EventEntity, EventEntity], work=128*
141: 0x045C [0x02] IF !(Work_Zone[9] == 5*) GOTO 0x0478
142: 0x0464 [0x45] LOAD_SCHEDULED_TASK: Load scheduler "s080" with entities [EventEntity, EventEntity], work=[128*, 0*]
143: 0x0475 [0x01] GOTO 0x04A5
144: 0x0478 [0x02] IF !(Work_Zone[9] == 6*) GOTO 0x0494
145: 0x0480 [0x45] LOAD_SCHEDULED_TASK: Load scheduler "s080" with entities [EventEntity, EventEntity], work=[128*, 0*]
146: 0x0491 [0x01] GOTO 0x04A5
147: 0x0494 [0x45] LOAD_SCHEDULED_TASK: Load scheduler "s056" with entities [EventEntity, EventEntity], work=[128*, 0*]

SUBROUTINE_04A5:
148: 0x04A5 [0x29] REQ_SET_WAIT(priority=0x08, entity_id=Perih Vashai (ID: 17764470/0x010F1076), tag_num=0x07)
149: 0x04AC [0x2B] Perih Vashai (ID: 17764470/0x010F1076) [9974*]:
    → "The trrracker had no choice but to accept the deal. The fate of Vana'diel's people was placed in the hands of the cardinal."
150: 0x04B3 [0x23] WAIT_FOR_DIALOG_INTERACTION
151: 0x04B4 [0x29] REQ_SET_WAIT(priority=0x08, entity_id=Perih Vashai (ID: 17764470/0x010F1076), tag_num=0x08)
152: 0x04BB [0x29] REQ_SET_WAIT(priority=0x08, entity_id=Louverance (ID: 17764587/0x010F10EB), tag_num=0x0F)
153: 0x04C2 [0x2B] Louverance (ID: 17764587/0x010F10EB) [9975*]:
    → "Chieftainness, indulge me if you will."
154: 0x04C9 [0x23] WAIT_FOR_DIALOG_INTERACTION
155: 0x04CA [0x2B] Louverance (ID: 17764587/0x010F10EB) [9976*]:
    → "What is this legend, and what of the duty it reveals? What had your people intended to do?"
156: 0x04D1 [0x23] WAIT_FOR_DIALOG_INTERACTION
157: 0x04D2 [0x29] REQ_SET_WAIT(priority=0x08, entity_id=Louverance (ID: 17764587/0x010F10EB), tag_num=0x10)
158: 0x04D9 [0x02] IF !(Work_Zone[9] == 5*) GOTO 0x04F3
159: 0x04E1 [0x52] END_LOAD_SCHEDULER: End scheduler "s080" with entities [EventEntity, EventEntity], work=128*
160: 0x04F0 [0x01] GOTO 0x051C
161: 0x04F3 [0x02] IF !(Work_Zone[9] == 6*) GOTO 0x050D
162: 0x04FB [0x52] END_LOAD_SCHEDULER: End scheduler "s080" with entities [EventEntity, EventEntity], work=128*
163: 0x050A [0x01] GOTO 0x051C
164: 0x050D [0x52] END_LOAD_SCHEDULER: End scheduler "s056" with entities [EventEntity, EventEntity], work=128*

SUBROUTINE_051C:
165: 0x051C [0x45] LOAD_SCHEDULED_TASK: Load scheduler "s053" with entities [EventEntity, EventEntity], work=[128*, 0*]
166: 0x052D [0x29] REQ_SET_WAIT(priority=0x08, entity_id=Perih Vashai (ID: 17764470/0x010F1076), tag_num=0x01)
167: 0x0534 [0x2B] Perih Vashai (ID: 17764470/0x010F1076) [9977*]:
    → "That duty was given to the Mithra by the ancient race depicted in the picture. A duty to awaken the sleeping gods..."
168: 0x053B [0x23] WAIT_FOR_DIALOG_INTERACTION
169: 0x053C [0x29] REQ_SET_WAIT(priority=0x08, entity_id=Perih Vashai (ID: 17764470/0x010F1076), tag_num=0x02)
170: 0x0543 [0x52] END_LOAD_SCHEDULER: End scheduler "s053" with entities [EventEntity, EventEntity], work=128*
171: 0x0552 [0x45] LOAD_SCHEDULED_TASK: Load scheduler "ovl1" with entities [LocalPlayer, LocalPlayer], work=[200*, 0*]
172: 0x0563 [0x45] LOAD_SCHEDULED_TASK: Load scheduler "s057" with entities [EventEntity, EventEntity], work=[128*, 0*]
173: 0x0574 [0x29] REQ_SET_WAIT(priority=0x08, entity_id=Louverance (ID: 17764587/0x010F10EB), tag_num=0x11)
174: 0x057B [0x2B] Louverance (ID: 17764587/0x010F10EB) [9978*]:
    → "The sleeping gods...!?"
175: 0x0582 [0x23] WAIT_FOR_DIALOG_INTERACTION
176: 0x0583 [0x29] REQ_SET_WAIT(priority=0x08, entity_id=Louverance (ID: 17764587/0x010F10EB), tag_num=0x12)
177: 0x058A [0x52] END_LOAD_SCHEDULER: End scheduler "s057" with entities [EventEntity, EventEntity], work=128*
178: 0x0599 [0x45] LOAD_SCHEDULED_TASK: Load scheduler "s058" with entities [EventEntity, EventEntity], work=[128*, 0*]
179: 0x05AA [0x29] REQ_SET_WAIT(priority=0x08, entity_id=Perih Vashai (ID: 17764470/0x010F1076), tag_num=0x0E)
180: 0x05B1 [0x2B] Perih Vashai (ID: 17764470/0x010F1076) [9979*]:
    → "Surely you have heard the tale of the ancient rrrace that wounded Vana'diel by opening the Gates of Paradise?"
181: 0x05B8 [0x23] WAIT_FOR_DIALOG_INTERACTION
182: 0x05B9 [0x29] REQ_SET_WAIT(priority=0x08, entity_id=Perih Vashai (ID: 17764470/0x010F1076), tag_num=0x0F)
183: 0x05C0 [0x2B] Perih Vashai (ID: 17764470/0x010F1076) [9980*]:
    → "The Emptiness that poured from that wound tried to swallow everything in its path: the mountains, the seas, the skies, the forests, even life itself."
184: 0x05C7 [0x23] WAIT_FOR_DIALOG_INTERACTION
185: 0x05C8 [0x52] END_LOAD_SCHEDULER: End scheduler "s058" with entities [EventEntity, EventEntity], work=128*
186: 0x05D7 [0x45] LOAD_SCHEDULED_TASK: Load scheduler "ovl1" with entities [LocalPlayer, LocalPlayer], work=[200*, 0*]
187: 0x05E8 [0x45] LOAD_SCHEDULED_TASK: Load scheduler "s059" with entities [EventEntity, EventEntity], work=[128*, 0*]
188: 0x05F9 [0x2B] Perih Vashai (ID: 17764470/0x010F1076) [9981*]:
    → "The living beings of Vana'diel decided to use the tears that Altana had shed to cleanse the world."
189: 0x0600 [0x23] WAIT_FOR_DIALOG_INTERACTION
190: 0x0601 [0x2B] Perih Vashai (ID: 17764470/0x010F1076) [9982*]:
    → "However, a battle erupted between the king of people and the king of dragons over the fifth tear. A conflict that knew no end..."
191: 0x0608 [0x23] WAIT_FOR_DIALOG_INTERACTION
192: 0x0609 [0x45] LOAD_SCHEDULED_TASK: Load scheduler "fdo1" with entities [LocalPlayer, LocalPlayer], work=[200*, 0*]
193: 0x061A [0x1C] WAIT(60* ticks)
194: 0x061D [0x2B] Perih Vashai (ID: 17764470/0x010F1076) [9983*]:
    → "The people that survived used the power of the sleeping gods to heal the wounded land."
195: 0x0624 [0x23] WAIT_FOR_DIALOG_INTERACTION
196: 0x0625 [0x52] END_LOAD_SCHEDULER: End scheduler "s059" with entities [EventEntity, EventEntity], work=128*
197: 0x0634 [0x02] IF !(Work_Zone[9] == 5*) GOTO 0x0650
198: 0x063C [0x45] LOAD_SCHEDULED_TASK: Load scheduler "s081" with entities [EventEntity, EventEntity], work=[128*, 0*]
199: 0x064D [0x01] GOTO 0x067D
200: 0x0650 [0x02] IF !(Work_Zone[9] == 6*) GOTO 0x066C
201: 0x0658 [0x45] LOAD_SCHEDULED_TASK: Load scheduler "s081" with entities [EventEntity, EventEntity], work=[128*, 0*]
202: 0x0669 [0x01] GOTO 0x067D
203: 0x066C [0x45] LOAD_SCHEDULED_TASK: Load scheduler "s052" with entities [EventEntity, EventEntity], work=[128*, 0*]

SUBROUTINE_067D:
204: 0x067D [0x45] LOAD_SCHEDULED_TASK: Load scheduler "fdi1" with entities [LocalPlayer, LocalPlayer], work=[200*, 0*]
205: 0x068E [0x2B] Louverance (ID: 17764587/0x010F10EB) [9984*]:
    → "And that is the legend told by the Mithra?"
206: 0x0695 [0x23] WAIT_FOR_DIALOG_INTERACTION
207: 0x0696 [0x29] REQ_SET_WAIT(priority=0x08, entity_id=Perih Vashai (ID: 17764470/0x010F1076), tag_num=0x0C)
208: 0x069D [0x29] REQ_SET_WAIT(priority=0x08, entity_id=Perih Vashai (ID: 17764470/0x010F1076), tag_num=0x0D)
209: 0x06A4 [0x02] IF !(Work_Zone[9] == 5*) GOTO 0x06BE
210: 0x06AC [0x52] END_LOAD_SCHEDULER: End scheduler "s081" with entities [EventEntity, EventEntity], work=128*
211: 0x06BB [0x01] GOTO 0x06E7
212: 0x06BE [0x02] IF !(Work_Zone[9] == 6*) GOTO 0x06D8
213: 0x06C6 [0x52] END_LOAD_SCHEDULER: End scheduler "s081" with entities [EventEntity, EventEntity], work=128*
214: 0x06D5 [0x01] GOTO 0x06E7
215: 0x06D8 [0x52] END_LOAD_SCHEDULER: End scheduler "s052" with entities [EventEntity, EventEntity], work=128*

SUBROUTINE_06E7:
216: 0x06E7 [0x45] LOAD_SCHEDULED_TASK: Load scheduler "s060" with entities [EventEntity, EventEntity], work=[128*, 0*]
217: 0x06F8 [0x79] Perih Vashai (ID: 17764470/0x010F1076) looks at LocalPlayer (Basic look)
218: 0x0702 [0x2B] Perih Vashai (ID: 17764470/0x010F1076) [9985*]:
    → "Adventurer. In your trrravels you would have seen the giant, glowing crystals that lie hidden far away from civilization."
219: 0x0709 [0x23] WAIT_FOR_DIALOG_INTERACTION
220: 0x070A [0x29] REQ_SET_WAIT(priority=0x08, entity_id=Perih Vashai (ID: 17764470/0x010F1076), tag_num=0x01)
221: 0x0711 [0x2B] Perih Vashai (ID: 17764470/0x010F1076) [9986*]:
    → "Those crystals are the rrresting places of the gods."
222: 0x0718 [0x23] WAIT_FOR_DIALOG_INTERACTION
223: 0x0719 [0x29] REQ_SET_WAIT(priority=0x08, entity_id=Perih Vashai (ID: 17764470/0x010F1076), tag_num=0x02)
224: 0x0720 [0x29] REQ_SET_WAIT(priority=0x08, entity_id=Perih Vashai (ID: 17764470/0x010F1076), tag_num=0x03)
225: 0x0727 [0x2B] Perih Vashai (ID: 17764470/0x010F1076) [9987*]:
    → "Slumbering within are the immortal beings who were called forth to heal the land in the age of legend."
226: 0x072E [0x23] WAIT_FOR_DIALOG_INTERACTION
227: 0x072F [0x29] REQ_SET_WAIT(priority=0x08, entity_id=Perih Vashai (ID: 17764470/0x010F1076), tag_num=0x04)
228: 0x0736 [0x52] END_LOAD_SCHEDULER: End scheduler "s060" with entities [EventEntity, EventEntity], work=128*
229: 0x0745 [0x45] LOAD_SCHEDULED_TASK: Load scheduler "s061" with entities [EventEntity, EventEntity], work=[128*, 0*]
230: 0x0756 [0x7B] Perih Vashai (ID: 17764470/0x010F1076) stops talking
231: 0x075B [0x29] REQ_SET_WAIT(priority=0x08, entity_id=Perih Vashai (ID: 17764470/0x010F1076), tag_num=0x05)
232: 0x0762 [0x2B] Perih Vashai (ID: 17764470/0x010F1076) [9988*]:
    → "The wounded land of Vana'diel bleeds forth dreaded Emptiness..."
233: 0x0769 [0x23] WAIT_FOR_DIALOG_INTERACTION
234: 0x076A [0x2B] Perih Vashai (ID: 17764470/0x010F1076) [9989*]:
    → "It is now time for us to awaken the sleeping deities, and mend our sufferrring world."
235: 0x0771 [0x23] WAIT_FOR_DIALOG_INTERACTION
236: 0x0772 [0x29] REQ_SET_WAIT(priority=0x08, entity_id=Perih Vashai (ID: 17764470/0x010F1076), tag_num=0x06)
237: 0x0779 [0x29] REQ_SET_WAIT(priority=0x08, entity_id=Perih Vashai (ID: 17764470/0x010F1076), tag_num=0x07)
238: 0x0780 [0x29] REQ_SET_WAIT(priority=0x08, entity_id=Louverance (ID: 17764587/0x010F10EB), tag_num=0x0F)
239: 0x0787 [0x2B] Louverance (ID: 17764587/0x010F10EB) [9990*]:
    → "And this is the role that the cardinal attempted to fill? But how...?"
240: 0x078E [0x23] WAIT_FOR_DIALOG_INTERACTION
241: 0x078F [0x29] REQ_SET_WAIT(priority=0x08, entity_id=Louverance (ID: 17764587/0x010F10EB), tag_num=0x10)
242: 0x0796 [0x29] REQ_SET_WAIT(priority=0x08, entity_id=Perih Vashai (ID: 17764470/0x010F1076), tag_num=0x08)
243: 0x079D [0x52] END_LOAD_SCHEDULER: End scheduler "s061" with entities [EventEntity, EventEntity], work=128*
244: 0x07AC [0x45] LOAD_SCHEDULED_TASK: Load scheduler "s045" with entities [EventEntity, EventEntity], work=[128*, 0*]
245: 0x07BD [0x29] REQ_SET_WAIT(priority=0x08, entity_id=Perih Vashai (ID: 17764470/0x010F1076), tag_num=0x0E)
246: 0x07C4 [0x2B] Perih Vashai (ID: 17764470/0x010F1076) [9991*]:
    → "That has not yet been rrrevealed to me."
247: 0x07CB [0x23] WAIT_FOR_DIALOG_INTERACTION
248: 0x07CC [0x29] REQ_SET_WAIT(priority=0x08, entity_id=Perih Vashai (ID: 17764470/0x010F1076), tag_num=0x0F)
249: 0x07D3 [0x2B] Perih Vashai (ID: 17764470/0x010F1076) [9992*]:
    → "But if you must learn the answer to that question, you should ask the Tavnazian theologian who was a survivor of the Great War."
250: 0x07DA [0x23] WAIT_FOR_DIALOG_INTERACTION
251: 0x07DB [0x2B] Perih Vashai (ID: 17764470/0x010F1076) [9993*]:
    → "Before she is punished for that crrrime..."
252: 0x07E2 [0x23] WAIT_FOR_DIALOG_INTERACTION
253: 0x07E3 [0x52] END_LOAD_SCHEDULER: End scheduler "s045" with entities [EventEntity, EventEntity], work=128*
254: 0x07F2 [0x45] LOAD_SCHEDULED_TASK: Load scheduler "s062" with entities [EventEntity, EventEntity], work=[128*, 0*]
255: 0x0803 [0x7C] Louverance (ID: 17764587/0x010F10EB)->Render.Flags2 |= 0x00
256: 0x0809 [0x29] REQ_SET_WAIT(priority=0x08, entity_id=Louverance (ID: 17764587/0x010F10EB), tag_num=0x11)
257: 0x0810 [0x2B] Louverance (ID: 17764587/0x010F10EB) [9994*]:
    → "...!"
258: 0x0817 [0x23] WAIT_FOR_DIALOG_INTERACTION
259: 0x0818 [0x29] REQ_SET_WAIT(priority=0x08, entity_id=Louverance (ID: 17764587/0x010F10EB), tag_num=0x12)
260: 0x081F [0x7C] Louverance (ID: 17764587/0x010F10EB)->Render.Flags2 |= 0x01
261: 0x0825 [0x7B] Perih Vashai (ID: 17764470/0x010F1076) stops talking
262: 0x082A [0x2B] Perih Vashai (ID: 17764470/0x010F1076) [9995*]:
    → "Do you need further explanation? The Mithran sin hunters never forgive a crime. The sin does not die with the sinner."
263: 0x0831 [0x23] WAIT_FOR_DIALOG_INTERACTION
264: 0x0832 [0x52] END_LOAD_SCHEDULER: End scheduler "s062" with entities [EventEntity, EventEntity], work=128*
265: 0x0841 [0x45] LOAD_SCHEDULED_TASK: Load scheduler "ovl1" with entities [LocalPlayer, LocalPlayer], work=[200*, 0*]
266: 0x0852 [0x45] LOAD_SCHEDULED_TASK: Load scheduler "s054" with entities [EventEntity, EventEntity], work=[128*, 0*]
267: 0x0863 [0x79] Perih Vashai (ID: 17764470/0x010F1076) looks at Louverance (ID: 17764587/0x010F10EB) (Basic look)
268: 0x086D [0x2B] Perih Vashai (ID: 17764470/0x010F1076) [9996*]:
    → "Be careful with your actions. It is not our place to judge your sins, but in time, your sins may come to judge you."
269: 0x0874 [0x23] WAIT_FOR_DIALOG_INTERACTION
270: 0x0875 [0x5D] SET_MUSIC_VOLUME(volume=0*, fade_time=120*)
271: 0x087A [0x45] LOAD_SCHEDULED_TASK: Load scheduler "fdo1" with entities [EventEntity, EventEntity], work=[200*, 0*]
272: 0x088B [0x1C] WAIT(120* ticks)
273: 0x088E [0x52] END_LOAD_SCHEDULER: End scheduler "s054" with entities [EventEntity, EventEntity], work=128*
274: 0x089D [0x7B] Louverance (ID: 17764587/0x010F10EB) stops talking
275: 0x08A2 [0x7B] LocalPlayer stops talking
276: 0x08A7 [0x29] REQ_SET_WAIT(priority=0x0B, entity_id=Louverance (ID: 17764587/0x010F10EB), tag_num=0x43)
277: 0x08AE [0x29] REQ_SET_WAIT(priority=0x0B, entity_id=LocalPlayer, tag_num=0x49)
278: 0x08B5 [0x29] REQ_SET_WAIT(priority=0x0B, entity_id=Honoi-Gomoi (ID: 17764588/0x010F10EC), tag_num=0x48)
279: 0x08BC [0x27] REQ_SET(priority=0x0B, entity_id=Louverance (ID: 17764587/0x010F10EB), tag_num=0x44)
280: 0x08C3 [0x27] REQ_SET(priority=0x0B, entity_id=LocalPlayer, tag_num=0x4A)
281: 0x08CA [0x02] IF !(Work_Zone[9] == 5*) GOTO 0x08E6
282: 0x08D2 [0x45] LOAD_SCHEDULED_TASK: Load scheduler "s082" with entities [EventEntity, EventEntity], work=[128*, 0*]
283: 0x08E3 [0x01] GOTO 0x092F
284: 0x08E6 [0x02] IF !(Work_Zone[9] == 6*) GOTO 0x0902
285: 0x08EE [0x45] LOAD_SCHEDULED_TASK: Load scheduler "s082" with entities [EventEntity, EventEntity], work=[128*, 0*]
286: 0x08FF [0x01] GOTO 0x092F
287: 0x0902 [0x02] IF !(Work_Zone[9] == 8*) GOTO 0x091E
288: 0x090A [0x45] LOAD_SCHEDULED_TASK: Load scheduler "s088" with entities [EventEntity, EventEntity], work=[128*, 0*]
289: 0x091B [0x01] GOTO 0x092F
290: 0x091E [0x45] LOAD_SCHEDULED_TASK: Load scheduler "s063" with entities [EventEntity, EventEntity], work=[128*, 0*]

SUBROUTINE_092F:
291: 0x092F [0x45] LOAD_SCHEDULED_TASK: Load scheduler "fdi1" with entities [EventEntity, EventEntity], work=[200*, 0*]
292: 0x0940 [0x2A] GET_REQ_LEVEL(level=11, entity_id=Louverance (ID: 17764587/0x010F10EB))
293: 0x0946 [0x79] Louverance (ID: 17764587/0x010F10EB) looks at LocalPlayer (Basic look)
294: 0x0950 [0x79] LocalPlayer looks at Louverance (ID: 17764587/0x010F10EB) (Basic look)
295: 0x095A [0x2B] Louverance (ID: 17764587/0x010F10EB) [9997*]:
    → "What do you make of her words, <Player>?"
296: 0x0961 [0x23] WAIT_FOR_DIALOG_INTERACTION
297: 0x0962 [0x2A] GET_REQ_LEVEL(level=11, entity_id=LocalPlayer)
298: 0x0968 [0x4A] LocalPlayer looks at Louverance (ID: 17764587/0x010F10EB)
299: 0x0971 [0x7B] Louverance (ID: 17764587/0x010F10EB) stops talking
300: 0x0976 [0x02] IF !(Work_Zone[9] == 5*) GOTO 0x0990
301: 0x097E [0x52] END_LOAD_SCHEDULER: End scheduler "s082" with entities [EventEntity, EventEntity], work=128*
302: 0x098D [0x01] GOTO 0x09D3
303: 0x0990 [0x02] IF !(Work_Zone[9] == 6*) GOTO 0x09AA
304: 0x0998 [0x52] END_LOAD_SCHEDULER: End scheduler "s082" with entities [EventEntity, EventEntity], work=128*
305: 0x09A7 [0x01] GOTO 0x09D3
306: 0x09AA [0x02] IF !(Work_Zone[9] == 8*) GOTO 0x09C4
307: 0x09B2 [0x52] END_LOAD_SCHEDULER: End scheduler "s088" with entities [EventEntity, EventEntity], work=128*
308: 0x09C1 [0x01] GOTO 0x09D3
309: 0x09C4 [0x52] END_LOAD_SCHEDULER: End scheduler "s063" with entities [EventEntity, EventEntity], work=128*

SUBROUTINE_09D3:
310: 0x09D3 [0x02] IF !(Work_Zone[9] == 5*) GOTO 0x09EF
311: 0x09DB [0x45] LOAD_SCHEDULED_TASK: Load scheduler "s083" with entities [EventEntity, EventEntity], work=[128*, 0*]
312: 0x09EC [0x01] GOTO 0x0A1C
313: 0x09EF [0x02] IF !(Work_Zone[9] == 6*) GOTO 0x0A0B
314: 0x09F7 [0x45] LOAD_SCHEDULED_TASK: Load scheduler "s083" with entities [EventEntity, EventEntity], work=[128*, 0*]
315: 0x0A08 [0x01] GOTO 0x0A1C
316: 0x0A0B [0x45] LOAD_SCHEDULED_TASK: Load scheduler "s065" with entities [EventEntity, EventEntity], work=[128*, 0*]

SUBROUTINE_0A1C:
317: 0x0A1C [0x29] REQ_SET_WAIT(priority=0x08, entity_id=Louverance (ID: 17764587/0x010F10EB), tag_num=0x13)
318: 0x0A23 [0x2B] Louverance (ID: 17764587/0x010F10EB) [9998*]:
    → "The theology of the Mithra veers quite dramatically from that of the San d'Orian Cathedral in several respects."
319: 0x0A2A [0x23] WAIT_FOR_DIALOG_INTERACTION
320: 0x0A2B [0x2B] Louverance (ID: 17764587/0x010F10EB) [9999*]:
    → "The legend concerning the five tears of Altana is especially at odds with what the Elvaan believe..."
321: 0x0A32 [0x23] WAIT_FOR_DIALOG_INTERACTION
322: 0x0A33 [0x29] REQ_SET_WAIT(priority=0x08, entity_id=Louverance (ID: 17764587/0x010F10EB), tag_num=0x14)
323: 0x0A3A [0x02] IF !(Work_Zone[9] == 5*) GOTO 0x0A54
324: 0x0A42 [0x52] END_LOAD_SCHEDULER: End scheduler "s083" with entities [EventEntity, EventEntity], work=128*
325: 0x0A51 [0x01] GOTO 0x0A7D
326: 0x0A54 [0x02] IF !(Work_Zone[9] == 6*) GOTO 0x0A6E
327: 0x0A5C [0x52] END_LOAD_SCHEDULER: End scheduler "s083" with entities [EventEntity, EventEntity], work=128*
328: 0x0A6B [0x01] GOTO 0x0A7D
329: 0x0A6E [0x52] END_LOAD_SCHEDULER: End scheduler "s065" with entities [EventEntity, EventEntity], work=128*

SUBROUTINE_0A7D:
330: 0x0A7D [0x02] IF !(Work_Zone[9] == 5*) GOTO 0x0A99
331: 0x0A85 [0x45] LOAD_SCHEDULED_TASK: Load scheduler "s084" with entities [EventEntity, EventEntity], work=[128*, 0*]
332: 0x0A96 [0x01] GOTO 0x0AC6
333: 0x0A99 [0x02] IF !(Work_Zone[9] == 6*) GOTO 0x0AB5
334: 0x0AA1 [0x45] LOAD_SCHEDULED_TASK: Load scheduler "s084" with entities [EventEntity, EventEntity], work=[128*, 0*]
335: 0x0AB2 [0x01] GOTO 0x0AC6
336: 0x0AB5 [0x45] LOAD_SCHEDULED_TASK: Load scheduler "s064" with entities [EventEntity, EventEntity], work=[128*, 0*]

SUBROUTINE_0AC6:
337: 0x0AC6 [0x29] REQ_SET_WAIT(priority=0x08, entity_id=Louverance (ID: 17764587/0x010F10EB), tag_num=0x15)
338: 0x0ACD [0x2B] Louverance (ID: 17764587/0x010F10EB) [10000*]:
    → "That is why I warn you not to swallow her tale without question."
339: 0x0AD4 [0x23] WAIT_FOR_DIALOG_INTERACTION
340: 0x0AD5 [0x29] REQ_SET_WAIT(priority=0x08, entity_id=Louverance (ID: 17764587/0x010F10EB), tag_num=0x16)
341: 0x0ADC [0x6F] WAIT_FRAME_DELAY: Yield until WaitTime reaches zero
342: 0x0ADD [0x76] CHECK_ENTITY_RENDER_FLAGS: Wait until LocalPlayer Render.Flags0 and Render.Flags3 conditions are met
343: 0x0AE2 [0x79] Louverance (ID: 17764587/0x010F10EB) looks at Honoi-Gomoi (ID: 17764588/0x010F10EC) (Basic look)
344: 0x0AEC [0x2B] Louverance (ID: 17764587/0x010F10EB) [10001*]:
    → "Talk of legends aside, the chieftainness's description of the Emptiness that has appeared in every corner of Vana'diel is an indisputable truth."
345: 0x0AF3 [0x23] WAIT_FOR_DIALOG_INTERACTION
346: 0x0AF4 [0x02] IF !(Work_Zone[9] == 5*) GOTO 0x0B0E
347: 0x0AFC [0x52] END_LOAD_SCHEDULER: End scheduler "s084" with entities [EventEntity, EventEntity], work=128*
348: 0x0B0B [0x01] GOTO 0x0B37
349: 0x0B0E [0x02] IF !(Work_Zone[9] == 6*) GOTO 0x0B28
350: 0x0B16 [0x52] END_LOAD_SCHEDULER: End scheduler "s084" with entities [EventEntity, EventEntity], work=128*
351: 0x0B25 [0x01] GOTO 0x0B37
352: 0x0B28 [0x52] END_LOAD_SCHEDULER: End scheduler "s064" with entities [EventEntity, EventEntity], work=128*

SUBROUTINE_0B37:
353: 0x0B37 [0x02] IF !(Work_Zone[9] == 5*) GOTO 0x0B53
354: 0x0B3F [0x45] LOAD_SCHEDULED_TASK: Load scheduler "s085" with entities [EventEntity, EventEntity], work=[128*, 0*]
355: 0x0B50 [0x01] GOTO 0x0B80
356: 0x0B53 [0x02] IF !(Work_Zone[9] == 6*) GOTO 0x0B6F
357: 0x0B5B [0x45] LOAD_SCHEDULED_TASK: Load scheduler "s085" with entities [EventEntity, EventEntity], work=[128*, 0*]
358: 0x0B6C [0x01] GOTO 0x0B80
359: 0x0B6F [0x45] LOAD_SCHEDULED_TASK: Load scheduler "s066" with entities [EventEntity, EventEntity], work=[128*, 0*]

SUBROUTINE_0B80:
360: 0x0B80 [0x7B] Louverance (ID: 17764587/0x010F10EB) stops talking
361: 0x0B85 [0x27] REQ_SET(priority=0x0B, entity_id=Louverance (ID: 17764587/0x010F10EB), tag_num=0x45)
362: 0x0B8C [0x2B] Louverance (ID: 17764587/0x010F10EB) [10002*]:
    → "However, the Mithran Trackers are now chasing after the theologian, Prishe, and not Cardinal Mildaurion."
363: 0x0B93 [0x23] WAIT_FOR_DIALOG_INTERACTION
364: 0x0B94 [0x2A] GET_REQ_LEVEL(level=11, entity_id=Louverance (ID: 17764587/0x010F10EB))
365: 0x0B9A [0x2B] Louverance (ID: 17764587/0x010F10EB) [10003*]:
    → "Which would mean that even the trackers were unable to locate the whereabouts of the cardinal."
366: 0x0BA1 [0x23] WAIT_FOR_DIALOG_INTERACTION
367: 0x0BA2 [0x02] IF !(Work_Zone[9] == 5*) GOTO 0x0BBC
368: 0x0BAA [0x52] END_LOAD_SCHEDULER: End scheduler "s085" with entities [EventEntity, EventEntity], work=128*
369: 0x0BB9 [0x01] GOTO 0x0BE5
370: 0x0BBC [0x02] IF !(Work_Zone[9] == 6*) GOTO 0x0BD6
371: 0x0BC4 [0x52] END_LOAD_SCHEDULER: End scheduler "s085" with entities [EventEntity, EventEntity], work=128*
372: 0x0BD3 [0x01] GOTO 0x0BE5
373: 0x0BD6 [0x52] END_LOAD_SCHEDULER: End scheduler "s066" with entities [EventEntity, EventEntity], work=128*

SUBROUTINE_0BE5:
374: 0x0BE5 [0x45] LOAD_SCHEDULED_TASK: Load scheduler "ovl1" with entities [LocalPlayer, LocalPlayer], work=[200*, 0*]
375: 0x0BF6 [0x45] LOAD_SCHEDULED_TASK: Load scheduler "s067" with entities [EventEntity, EventEntity], work=[128*, 0*]
376: 0x0C07 [0x4E] SET_ENTITY_HIDE_FLAG: Hide LocalPlayer
377: 0x0C0D [0x4E] SET_ENTITY_HIDE_FLAG: Show Honoi-Gomoi (ID: 17764588/0x010F10EC)
378: 0x0C13 [0x2B] Louverance (ID: 17764587/0x010F10EB) [10004*]:
    → "Does this mean that the cardinal has already bid farewell to this world?"
379: 0x0C1A [0x23] WAIT_FOR_DIALOG_INTERACTION
380: 0x0C1B [0x2B] Louverance (ID: 17764587/0x010F10EB) [10005*]:
    → "Has my astonishing luck finally failed me...?"
381: 0x0C22 [0x23] WAIT_FOR_DIALOG_INTERACTION
382: 0x0C23 [0x80] LOAD_WAIT(entity=Honoi-Gomoi (ID: 17764588/0x010F10EC))
383: 0x0C28 [0x79] Honoi-Gomoi (ID: 17764588/0x010F10EC) looks at Louverance (ID: 17764587/0x010F10EB) (Basic look)
384: 0x0C32 [0x52] END_LOAD_SCHEDULER: End scheduler "s067" with entities [EventEntity, EventEntity], work=128*
385: 0x0C41 [0x45] LOAD_SCHEDULED_TASK: Load scheduler "s068" with entities [EventEntity, EventEntity], work=[128*, 0*]
386: 0x0C52 [0x4E] SET_ENTITY_HIDE_FLAG: Show LocalPlayer
387: 0x0C58 [0x5C] MUSIC_CONTROL: Set Idle (Day) music to song 123*
388: 0x0C5C [0x5C] MUSIC_CONTROL: Set Idle (Night) music to song 123*
389: 0x0C60 [0x79] LocalPlayer looks at Honoi-Gomoi (ID: 17764588/0x010F10EC) (Basic look)
390: 0x0C6A [0x27] REQ_SET(priority=0x0B, entity_id=Honoi-Gomoi (ID: 17764588/0x010F10EC), tag_num=0x49)
391: 0x0C71 [0x1C] WAIT(20* ticks)
392: 0x0C74 [0x4A] Louverance (ID: 17764587/0x010F10EB) looks at Honoi-Gomoi (ID: 17764588/0x010F10EC)
393: 0x0C7D [0x1C] WAIT(70* ticks)
394: 0x0C80 [0x4A] LocalPlayer looks at Honoi-Gomoi (ID: 17764588/0x010F10EC)
395: 0x0C89 [0x29] REQ_SET_WAIT(priority=0x08, entity_id=Honoi-Gomoi (ID: 17764588/0x010F10EC), tag_num=0x4A)
396: 0x0C90 [0x2A] GET_REQ_LEVEL(level=11, entity_id=Honoi-Gomoi (ID: 17764588/0x010F10EC))
397: 0x0C96 [0x6F] WAIT_FRAME_DELAY: Yield until WaitTime reaches zero
398: 0x0C97 [0x76] CHECK_ENTITY_RENDER_FLAGS: Wait until Louverance (ID: 17764587/0x010F10EB) Render.Flags0 and Render.Flags3 conditions are met
399: 0x0C9C [0x52] END_LOAD_SCHEDULER: End scheduler "s068" with entities [EventEntity, EventEntity], work=128*
400: 0x0CAB [0x45] LOAD_SCHEDULED_TASK: Load scheduler "ovl1" with entities [LocalPlayer, LocalPlayer], work=[200*, 0*]
401: 0x0CBC [0x45] LOAD_SCHEDULED_TASK: Load scheduler "s069" with entities [EventEntity, EventEntity], work=[128*, 0*]
402: 0x0CCD [0x27] REQ_SET(priority=0x08, entity_id=Honoi-Gomoi (ID: 17764588/0x010F10EC), tag_num=0x2E)
403: 0x0CD4 [0x2B] Honoi-Gomoi (ID: 17764588/0x010F10EC) [10006*]:
    → "It is nice to see you after so long, sir. I wonder if you remember old Honoi-Gomoi?"
404: 0x0CDB [0x23] WAIT_FOR_DIALOG_INTERACTION
405: 0x0CDC [0x2A] GET_REQ_LEVEL(level=8, entity_id=Honoi-Gomoi (ID: 17764588/0x010F10EC))
406: 0x0CE2 [0x52] END_LOAD_SCHEDULER: End scheduler "s069" with entities [EventEntity, EventEntity], work=128*
407: 0x0CF1 [0x45] LOAD_SCHEDULED_TASK: Load scheduler "ovl1" with entities [LocalPlayer, LocalPlayer], work=[200*, 0*]
408: 0x0D02 [0x45] LOAD_SCHEDULED_TASK: Load scheduler "s071" with entities [EventEntity, EventEntity], work=[128*, 0*]
409: 0x0D13 [0x2B] Honoi-Gomoi (ID: 17764588/0x010F10EC) [10007*]:
    → "I thought you might have informed me of your presence. I was mightaruly surprised to hear that you were in town."
410: 0x0D1A [0x23] WAIT_FOR_DIALOG_INTERACTION
411: 0x0D1B [0x29] REQ_SET_WAIT(priority=0x08, entity_id=Honoi-Gomoi (ID: 17764588/0x010F10EC), tag_num=0x07)
412: 0x0D22 [0x2B] Honoi-Gomoi (ID: 17764588/0x010F10EC) [10008*]:
    → "As always, your visits cause quite a stir..."
413: 0x0D29 [0x23] WAIT_FOR_DIALOG_INTERACTION
414: 0x0D2A [0x29] REQ_SET_WAIT(priority=0x08, entity_id=Honoi-Gomoi (ID: 17764588/0x010F10EC), tag_num=0x08)
415: 0x0D31 [0x2B] Louverance (ID: 17764587/0x010F10EB) [10009*]:
    → "..."
416: 0x0D38 [0x23] WAIT_FOR_DIALOG_INTERACTION
417: 0x0D39 [0x52] END_LOAD_SCHEDULER: End scheduler "s071" with entities [EventEntity, EventEntity], work=128*
418: 0x0D48 [0x45] LOAD_SCHEDULED_TASK: Load scheduler "s075" with entities [EventEntity, EventEntity], work=[128*, 0*]
419: 0x0D59 [0x27] REQ_SET(priority=0x08, entity_id=Honoi-Gomoi (ID: 17764588/0x010F10EC), tag_num=0x4B)
420: 0x0D60 [0x2B] Honoi-Gomoi (ID: 17764588/0x010F10EC) [10010*]:
    → "But I do babble-wabble on. Your subordinates bade me pass this on to you."
421: 0x0D67 [0x23] WAIT_FOR_DIALOG_INTERACTION
422: 0x0D68 [0x2A] GET_REQ_LEVEL(level=8, entity_id=Honoi-Gomoi (ID: 17764588/0x010F10EC))
423: 0x0D6E [0x29] REQ_SET_WAIT(priority=0x08, entity_id=Honoi-Gomoi (ID: 17764588/0x010F10EC), tag_num=0x0D)
424: 0x0D75 [0x2B] Honoi-Gomoi (ID: 17764588/0x010F10EC) [10011*]:
    → "It is an item that should help tremendously in your task."
425: 0x0D7C [0x23] WAIT_FOR_DIALOG_INTERACTION
426: 0x0D7D [0x29] REQ_SET_WAIT(priority=0x08, entity_id=Honoi-Gomoi (ID: 17764588/0x010F10EC), tag_num=0x0E)
427: 0x0D84 [0x52] END_LOAD_SCHEDULER: End scheduler "s075" with entities [EventEntity, EventEntity], work=128*
428: 0x0D93 [0x45] LOAD_SCHEDULED_TASK: Load scheduler "s072" with entities [EventEntity, EventEntity], work=[128*, 0*]
429: 0x0DA4 [0x27] REQ_SET(priority=0x08, entity_id=Louverance (ID: 17764587/0x010F10EB), tag_num=0x1B)
430: 0x0DAB [0x2B] Louverance (ID: 17764587/0x010F10EB) [10012*]:
    → "But this is...!"
431: 0x0DB2 [0x23] WAIT_FOR_DIALOG_INTERACTION
432: 0x0DB3 [0x2A] GET_REQ_LEVEL(level=8, entity_id=Louverance (ID: 17764587/0x010F10EB))
433: 0x0DB9 [0x52] END_LOAD_SCHEDULER: End scheduler "s072" with entities [EventEntity, EventEntity], work=128*
434: 0x0DC8 [0x45] LOAD_SCHEDULED_TASK: Load scheduler "s073" with entities [EventEntity, EventEntity], work=[128*, 0*]
435: 0x0DD9 [0x27] REQ_SET(priority=0x0B, entity_id=Honoi-Gomoi (ID: 17764588/0x010F10EC), tag_num=0x4C)
436: 0x0DE0 [0x2B] Honoi-Gomoi (ID: 17764588/0x010F10EC) [10013*]:
    → "Yes, indeed. It was broken when you crossed swords with that detestable Vukki."
437: 0x0DE7 [0x23] WAIT_FOR_DIALOG_INTERACTION
438: 0x0DE8 [0x2A] GET_REQ_LEVEL(level=11, entity_id=Honoi-Gomoi (ID: 17764588/0x010F10EC))
439: 0x0DEE [0x27] REQ_SET(priority=0x08, entity_id=Honoi-Gomoi (ID: 17764588/0x010F10EC), tag_num=0x30)
440: 0x0DF5 [0x2B] Honoi-Gomoi (ID: 17764588/0x010F10EC) [10014*]:
    → "I went to greataru lengths to have this repaired for you..."
441: 0x0DFC [0x23] WAIT_FOR_DIALOG_INTERACTION
442: 0x0DFD [0x2A] GET_REQ_LEVEL(level=8, entity_id=Honoi-Gomoi (ID: 17764588/0x010F10EC))
443: 0x0E03 [0x52] END_LOAD_SCHEDULER: End scheduler "s073" with entities [EventEntity, EventEntity], work=128*
444: 0x0E12 [0x45] LOAD_SCHEDULED_TASK: Load scheduler "s070" with entities [EventEntity, EventEntity], work=[128*, 0*]
445: 0x0E23 [0x4A] Honoi-Gomoi (ID: 17764588/0x010F10EC) looks at Louverance (ID: 17764587/0x010F10EB)
446: 0x0E2C [0x6F] WAIT_FRAME_DELAY: Yield until WaitTime reaches zero
447: 0x0E2D [0x76] CHECK_ENTITY_RENDER_FLAGS: Wait until Honoi-Gomoi (ID: 17764588/0x010F10EC) Render.Flags0 and Render.Flags3 conditions are met
448: 0x0E32 [0x29] REQ_SET_WAIT(priority=0x08, entity_id=Honoi-Gomoi (ID: 17764588/0x010F10EC), tag_num=0x01)
449: 0x0E39 [0x2B] Honoi-Gomoi (ID: 17764588/0x010F10EC) [10015*]:
    → "What's more, I finally made progress on the task you entrusted to me so long ago."
450: 0x0E40 [0x23] WAIT_FOR_DIALOG_INTERACTION
451: 0x0E41 [0x2B] Honoi-Gomoi (ID: 17764588/0x010F10EC) [10016*]:
    → "That despicable bounty hunter that caused you so much trouble, "Goldmane"..."
452: 0x0E48 [0x23] WAIT_FOR_DIALOG_INTERACTION
453: 0x0E49 [0x29] REQ_SET_WAIT(priority=0x08, entity_id=Honoi-Gomoi (ID: 17764588/0x010F10EC), tag_num=0x02)
454: 0x0E50 [0x52] END_LOAD_SCHEDULER: End scheduler "s070" with entities [EventEntity, EventEntity], work=128*
455: 0x0E5F [0x45] LOAD_SCHEDULED_TASK: Load scheduler "s074" with entities [EventEntity, EventEntity], work=[128*, 0*]
456: 0x0E70 [0x4A] LocalPlayer looks at Honoi-Gomoi (ID: 17764588/0x010F10EC)
457: 0x0E79 [0x27] REQ_SET(priority=0x0B, entity_id=Louverance (ID: 17764587/0x010F10EB), tag_num=0x46)
458: 0x0E80 [0x2B] Louverance (ID: 17764587/0x010F10EB) [10017*]:
    → "You have information?"
459: 0x0E87 [0x23] WAIT_FOR_DIALOG_INTERACTION
460: 0x0E88 [0x2A] GET_REQ_LEVEL(level=11, entity_id=Louverance (ID: 17764587/0x010F10EB))
461: 0x0E8E [0x27] REQ_SET(priority=0x08, entity_id=Honoi-Gomoi (ID: 17764588/0x010F10EC), tag_num=0x2F)
462: 0x0E95 [0x2B] Honoi-Gomoi (ID: 17764588/0x010F10EC) [10018*]:
    → "Yes. According to some Mithran pirates, the rascal has purchased a small, desertarued island south of Mhaura..."
463: 0x0E9C [0x23] WAIT_FOR_DIALOG_INTERACTION
464: 0x0E9D [0x2A] GET_REQ_LEVEL(level=8, entity_id=Honoi-Gomoi (ID: 17764588/0x010F10EC))
465: 0x0EA3 [0x6F] WAIT_FRAME_DELAY: Yield until WaitTime reaches zero
466: 0x0EA4 [0x76] CHECK_ENTITY_RENDER_FLAGS: Wait until Honoi-Gomoi (ID: 17764588/0x010F10EC) Render.Flags0 and Render.Flags3 conditions are met
467: 0x0EA9 [0x52] END_LOAD_SCHEDULER: End scheduler "s074" with entities [EventEntity, EventEntity], work=128*
468: 0x0EB8 [0x02] IF !(Work_Zone[9] == 5*) GOTO 0x0ED4
469: 0x0EC0 [0x45] LOAD_SCHEDULED_TASK: Load scheduler "s086" with entities [EventEntity, EventEntity], work=[128*, 0*]
470: 0x0ED1 [0x01] GOTO 0x0F01
471: 0x0ED4 [0x02] IF !(Work_Zone[9] == 6*) GOTO 0x0EF0
472: 0x0EDC [0x45] LOAD_SCHEDULED_TASK: Load scheduler "s086" with entities [EventEntity, EventEntity], work=[128*, 0*]
473: 0x0EED [0x01] GOTO 0x0F01
474: 0x0EF0 [0x45] LOAD_SCHEDULED_TASK: Load scheduler "s076" with entities [EventEntity, EventEntity], work=[128*, 0*]

SUBROUTINE_0F01:
475: 0x0F01 [0x29] REQ_SET_WAIT(priority=0x0B, entity_id=Honoi-Gomoi (ID: 17764588/0x010F10EC), tag_num=0x4D)
476: 0x0F08 [0x79] LocalPlayer looks at Louverance (ID: 17764587/0x010F10EB) (Basic look)
477: 0x0F12 [0x7B] Louverance (ID: 17764587/0x010F10EB) stops talking
478: 0x0F17 [0x27] REQ_SET(priority=0x0B, entity_id=Louverance (ID: 17764587/0x010F10EB), tag_num=0x47)
479: 0x0F1E [0x2B] Louverance (ID: 17764587/0x010F10EB) [10019*]:
    → "I see. My luck has not forsaken me after all..."
480: 0x0F25 [0x23] WAIT_FOR_DIALOG_INTERACTION
481: 0x0F26 [0x2A] GET_REQ_LEVEL(level=11, entity_id=Louverance (ID: 17764587/0x010F10EB))
482: 0x0F2C [0x29] REQ_SET_WAIT(priority=0x08, entity_id=Louverance (ID: 17764587/0x010F10EB), tag_num=0x13)
483: 0x0F33 [0x2B] Louverance (ID: 17764587/0x010F10EB) [10020*]:
    → "<Player>. I ask that you leave the rest of this task to me, alone."
484: 0x0F3A [0x23] WAIT_FOR_DIALOG_INTERACTION
485: 0x0F3B [0x29] REQ_SET_WAIT(priority=0x08, entity_id=Louverance (ID: 17764587/0x010F10EB), tag_num=0x14)
486: 0x0F42 [0x2B] Louverance (ID: 17764587/0x010F10EB) [10021*]:
    → "My incredible luck does not extend to those around me. It may prove to be more of a hindrance than a help. Until next we meet..."
487: 0x0F49 [0x23] WAIT_FOR_DIALOG_INTERACTION
488: 0x0F4A [0x02] IF !(Work_Zone[9] == 5*) GOTO 0x0F64
489: 0x0F52 [0x52] END_LOAD_SCHEDULER: End scheduler "s086" with entities [EventEntity, EventEntity], work=128*
490: 0x0F61 [0x01] GOTO 0x0F8D
491: 0x0F64 [0x02] IF !(Work_Zone[9] == 6*) GOTO 0x0F7E
492: 0x0F6C [0x52] END_LOAD_SCHEDULER: End scheduler "s086" with entities [EventEntity, EventEntity], work=128*
493: 0x0F7B [0x01] GOTO 0x0F8D
494: 0x0F7E [0x52] END_LOAD_SCHEDULER: End scheduler "s076" with entities [EventEntity, EventEntity], work=128*

SUBROUTINE_0F8D:
495: 0x0F8D [0x5D] SET_MUSIC_VOLUME(volume=0*, fade_time=200*)
496: 0x0F92 [0x45] LOAD_SCHEDULED_TASK: Load scheduler "s077" with entities [EventEntity, EventEntity], work=[128*, 0*]
497: 0x0FA3 [0x29] REQ_SET_WAIT(priority=0x08, entity_id=Louverance (ID: 17764587/0x010F10EB), tag_num=0x15)
498: 0x0FAA [0x29] REQ_SET_WAIT(priority=0x08, entity_id=Louverance (ID: 17764587/0x010F10EB), tag_num=0x16)
499: 0x0FB1 [0x4A] LocalPlayer looks at Louverance (ID: 17764587/0x010F10EB)
500: 0x0FBA [0x27] REQ_SET(priority=0x0B, entity_id=Louverance (ID: 17764587/0x010F10EB), tag_num=0x48)
501: 0x0FC1 [0x27] REQ_SET(priority=0x0B, entity_id=Honoi-Gomoi (ID: 17764588/0x010F10EC), tag_num=0x4E)
502: 0x0FC8 [0x1C] WAIT(50* ticks)
503: 0x0FCB [0x4A] LocalPlayer looks at Louverance (ID: 17764587/0x010F10EB)
504: 0x0FD4 [0x1C] WAIT(120* ticks)
505: 0x0FD7 [0x45] LOAD_SCHEDULED_TASK: Load scheduler "fdo1" with entities [LocalPlayer, LocalPlayer], work=[200*, 0*]
506: 0x0FE8 [0x1C] WAIT(60* ticks)
507: 0x0FEB [0x52] END_LOAD_SCHEDULER: End scheduler "s077" with entities [EventEntity, EventEntity], work=128*
508: 0x0FFA [0x2A] GET_REQ_LEVEL(level=11, entity_id=Louverance (ID: 17764587/0x010F10EB))
509: 0x1000 [0x2A] GET_REQ_LEVEL(level=11, entity_id=Honoi-Gomoi (ID: 17764588/0x010F10EC))
510: 0x1006 [0x5C] MUSIC_CONTROL: Set Idle (Day) music to song 151*
511: 0x100A [0x5C] MUSIC_CONTROL: Set Idle (Night) music to song 151*
512: 0x100E [0x1C] WAIT(100* ticks)
513: 0x1011 [0x4E] SET_ENTITY_HIDE_FLAG: Show LocalPlayer
514: 0x1017 [0x80] LOAD_WAIT(entity=LocalPlayer)
515: 0x101C [0x46] CAMERA_CONTROL: Restore default settings
516: 0x101E [0x45] LOAD_SCHEDULED_TASK: Load scheduler "fdi1" with entities [LocalPlayer, LocalPlayer], work=[200*, 0*]
517: 0x102F [0x20] SET_CLI_EVENT_UC_FLAG: Unlock player control
518: 0x1031 [0x21] END_EVENT
519: 0x1032 [0x00] END_REQSTACK()
```
