# 17764443 - Shaty-Monty

## Common Data

| Field            | Value                    |
|------------------|--------------------------|
| Zone             | Windurst Woods (ID: 241) |
| Block Size       | 38704 bytes              |
| Total Events     | 4                        |
| References Count | 186                      |

## List of Events

| Event ID              | Entrypoint   |   Size |   Instructions |
|-----------------------|--------------|--------|----------------|
| [65535](#event-65535) | 0x0000       |      1 |              1 |
| [767](#event-767)     | 0x0001       |     75 |             17 |
| [775](#event-775)     | 0x004C       |    255 |             57 |
| [776](#event-776)     | 0x014B       |  37597 |           5751 |

## DAT References (imed_data)

|   Index | Hex Value   |   Dec Value |
|---------|-------------|-------------|
|       0 | 0x001E      |          30 |
|       1 | 0x2EFB      |       12027 |
|       2 | 0x0031      |          49 |
|       3 | 0x2EFC      |       12028 |
|       4 | 0x2EFD      |       12029 |
|       5 | 0x2EFE      |       12030 |
|       6 | 0x2EFF      |       12031 |
|       7 | 0x2F00      |       12032 |
|       8 | 0x2F01      |       12033 |
|       9 | 0x0000      |           0 |
|      10 | 0x2F02      |       12034 |
|      11 | 0x2F03      |       12035 |
|      12 | 0x2F04      |       12036 |
|      13 | 0x2F05      |       12037 |
|      14 | 0x2F06      |       12038 |
|      15 | 0x0001      |           1 |
|      16 | 0x2F07      |       12039 |
|      17 | 0x2F08      |       12040 |
|      18 | 0x2F09      |       12041 |
|      19 | 0x2F0A      |       12042 |
|      20 | 0x0002      |           2 |
|      21 | 0x2F0B      |       12043 |
|      22 | 0x2F0C      |       12044 |
|      23 | 0x2F0D      |       12045 |
|      24 | 0x2F0E      |       12046 |
|      25 | 0x2F0F      |       12047 |
|      26 | 0x2F10      |       12048 |
|      27 | 0x0003      |           3 |
|      28 | 0x2F11      |       12049 |
|      29 | 0x2F12      |       12050 |
|      30 | 0x0007      |           7 |
|      31 | 0x0015      |          21 |
|      32 | 0x2F16      |       12054 |
|      33 | 0x003D      |          61 |
|      34 | 0x0016      |          22 |
|      35 | 0x0017      |          23 |
|      36 | 0x003E      |          62 |
|      37 | 0x0004      |           4 |
|      38 | 0x0018      |          24 |
|      39 | 0x003F      |          63 |
|      40 | 0x0005      |           5 |
|      41 | 0x0019      |          25 |
|      42 | 0x0040      |          64 |
|      43 | 0x0006      |           6 |
|      44 | 0x001A      |          26 |
|      45 | 0x0041      |          65 |
|      46 | 0x2F15      |       12053 |
|      47 | 0x2F54      |       12116 |
|      48 | 0x2F50      |       12112 |
|      49 | 0x2F51      |       12113 |
|      50 | 0x2F52      |       12114 |
|      51 | 0x2F53      |       12115 |
|      52 | 0x2F13      |       12051 |
|      53 | 0x0078      |         120 |
|      54 | 0x00C8      |         200 |
|      55 | 0x001B      |          27 |
|      56 | 0x0066      |         102 |
|      57 | 0x0081      |         129 |
|      58 | 0x00C2      |         194 |
|      59 | 0x003C      |          60 |
|      60 | 0x2F17      |       12055 |
|      61 | 0x2F18      |       12056 |
|      62 | 0x2F1C      |       12060 |
|      63 | 0x2F1D      |       12061 |
|      64 | 0x2F1E      |       12062 |
|      65 | 0x2F1F      |       12063 |
|      66 | 0x2F20      |       12064 |
|      67 | 0x0009      |           9 |
|      68 | 0x0030      |          48 |
|      69 | 0x00E6      |         230 |
|      70 | 0x001C      |          28 |
|      71 | 0x0010      |          16 |
|      72 | 0x2F22      |       12066 |
|      73 | 0x2F23      |       12067 |
|      74 | 0x0038      |          56 |
|      75 | 0x0020      |          32 |
|      76 | 0x2F2A      |       12074 |
|      77 | 0x001F      |          31 |
|      78 | 0x0021      |          33 |
|      79 | 0x0022      |          34 |
|      80 | 0x0023      |          35 |
|      81 | 0x0024      |          36 |
|      82 | 0x2F48      |       12104 |
|      83 | 0x2F49      |       12105 |
|      84 | 0x2F4A      |       12106 |
|      85 | 0x2F4B      |       12107 |
|      86 | 0x2F4F      |       12111 |
|      87 | 0x00F1      |         241 |
|      88 | 0x0097      |         151 |
|      89 | 0x2F2B      |       12075 |
|      90 | 0x2F2C      |       12076 |
|      91 | 0x2F2D      |       12077 |
|      92 | 0x2F2E      |       12078 |
|      93 | 0x2F2F      |       12079 |
|      94 | 0x2F30      |       12080 |
|      95 | 0x0008      |           8 |
|      96 | 0x000F      |          15 |
|      97 | 0x2F31      |       12081 |
|      98 | 0x2F32      |       12082 |
|      99 | 0x2F33      |       12083 |
|     100 | 0x2F34      |       12084 |
|     101 | 0x2F35      |       12085 |
|     102 | 0x000D      |          13 |
|     103 | 0x2F36      |       12086 |
|     104 | 0x2F37      |       12087 |
|     105 | 0x2F39      |       12089 |
|     106 | 0x2F38      |       12088 |
|     107 | 0x2F3B      |       12091 |
|     108 | 0x2F3C      |       12092 |
|     109 | 0x2F3A      |       12090 |
|     110 | 0x2F3D      |       12093 |
|     111 | 0x2F3E      |       12094 |
|     112 | 0x000A      |          10 |
|     113 | 0x2F3F      |       12095 |
|     114 | 0x000B      |          11 |
|     115 | 0x2F40      |       12096 |
|     116 | 0x000C      |          12 |
|     117 | 0x2F41      |       12097 |
|     118 | 0x2F42      |       12098 |
|     119 | 0x2F43      |       12099 |
|     120 | 0x2F44      |       12100 |
|     121 | 0x2F45      |       12101 |
|     122 | 0x2F46      |       12102 |
|     123 | 0x2F47      |       12103 |
|     124 | 0x0596      |        1430 |
|     125 | 0x0368      |         872 |
|     126 | 0x00E0      |         224 |
|     127 | 0x2F19      |       12057 |
|     128 | 0x036B      |         875 |
|     129 | 0x2F1A      |       12058 |
|     130 | 0x00DE      |         222 |
|     131 | 0x2F1B      |       12059 |
|     132 | 0x2F21      |       12065 |
|     133 | 0x00F0      |         240 |
|     134 | 0x2F25      |       12069 |
|     135 | 0x036C      |         876 |
|     136 | 0x00B4      |         180 |
|     137 | 0x2F24      |       12068 |
|     138 | 0x00DF      |         223 |
|     139 | 0x0090      |         144 |
|     140 | 0x0060      |          96 |
|     141 | 0x0862      |        2146 |
|     142 | 0x2F26      |       12070 |
|     143 | 0x2F27      |       12071 |
|     144 | 0x2F28      |       12072 |
|     145 | 0x2F29      |       12073 |
|     146 | 0x2F4E      |       12110 |
|     147 | 0x2F4C      |       12108 |
|     148 | 0x00C9      |         201 |
|     149 | 0x2F4D      |       12109 |
|     150 | 0x002A      |          42 |
|     151 | 0x002B      |          43 |
|     152 | 0x002C      |          44 |
|     153 | 0x002D      |          45 |
|     154 | 0x002E      |          46 |
|     155 | 0x0029      |          41 |
|     156 | 0x0063      |          99 |
|     157 | 0x0046      |          70 |
|     158 | 0x0032      |          50 |
|     159 | 0x0033      |          51 |
|     160 | 0x0034      |          52 |
|     161 | 0x0035      |          53 |
|     162 | 0x0036      |          54 |
|     163 | 0x0037      |          55 |
|     164 | 0x0047      |          71 |
|     165 | 0x0048      |          72 |
|     166 | 0x0049      |          73 |
|     167 | 0x004A      |          74 |
|     168 | 0x004B      |          75 |
|     169 | 0x0065      |         101 |
|     170 | 0x0067      |         103 |
|     171 | 0x0068      |         104 |
|     172 | 0x0069      |         105 |
|     173 | 0x000E      |          14 |
|     174 | 0x07CC      |        1996 |
|     175 | 0x07CD      |        1997 |
|     176 | 0x07CE      |        1998 |
|     177 | 0x07CF      |        1999 |
|     178 | 0x07D0      |        2000 |
|     179 | 0x07D1      |        2001 |
|     180 | 0x07D2      |        2002 |
|     181 | 0x005B      |          91 |
|     182 | 0x005C      |          92 |
|     183 | 0x005D      |          93 |
|     184 | 0x005E      |          94 |
|     185 | 0x005F      |          95 |

## String References

- **12027**: Greetings. I am a journeyman trainer from the VCS, and I have been sent to this town to promote knowledge exchange between chocobo owners.
- **12028**: We believe that the best way to promote interaction between owners is through interaction between chocobos.
- **12029**: And after countless VCS conferences, we recently agreed on the establishment of a new program--
- **12030**: Kamp Kweh!
- **12031**: Breeders need only possess a chocobo to join. Please speak with me again if you are interested.
- **12032**: I can answer your questions regarding Kamp Kweh?
- **12033**: What would you like to know? [What exactly is Kamp Kweh?/How do I sign up?/Are there any restrictions?/Nothing at all.]
- **12034**: Kamp Kweh is a place where fellow breeders can bring their chocobos to interact with each other.
- **12035**: At the camp, owners can check the status of their companions' animals...
- **12036**: ...as well as confirm breeding compatibility.
- **12037**: However, please note that any results from these tests are merely estimates, and may not fully reflect the actual condition of an animal.
- **12038**: Our wish is that through the various camp activities we offer, your chocobo will have the opportunity to improve its skills.
- **12039**: Only adventurers who are currently raising a chocobo can participate.
- **12040**: Owners can enroll their animals once they have hatched.
- **12041**: To begin, adventurers should first form a party of those who wish to participate, and then come talk to me or any of the other VCS journeyman trainers stationed throughout Vana'diel.
- **12042**: Please note that only up to six chocobos can attend the camp at one time, so do not come as an alliance.
- **12043**: We refuse admission to the following:
- **12044**: 1. Any owners who have not checked up on their chocobos recently. Those who feel that they may have been neglecting their animal may want to visit the stables before attempting to participate.
- **12045**: 2. Chocobos who are sleeping or have run away.
- **12046**: 3. Chocobos who have yet to be named.
- **12047**: 4. Party members who are too far away from the stables.
- **12048**: We would not think of leading a chocobo away from its pen when the owner was not present.
- **12049**: Welcome back. Have you come to enroll in Kamp Kweh?
- **12050**: Enroll? [Yes./No.]
- **12051**: I see. If you wish to participate in the future, feel free to contact me or one of my companions.
- **12053**: None of the other members of your party possess chocobos able to participate in camp activities. Please confirm their conditions and speak with me again when everything is in order.
- **12054**: None of your party members are close enough to the stables to participate in camp activities. Please speak with me again when everyone has assembled.
- **12055**: Now that we have arrived, we can begin.
- **12056**: What do you wish to do? [Call your chocobo./Let it play with others./Check the chocobos' vitals./Check mating compatibility./Nothing.]
- **12060**: $0 seems relaxed.
- **12061**: $0 seems excited.
- **12062**: $0 seems pleased.
- **12063**: $0 seems distressed.
- **12064**: $0 seems happy.
- **12065**: $0 looks like it wants to play with you as well.
- **12066**: Which chocobo? [$1./$2./$3./$4./$5./Quit.]
- **12067**: Something unexpected has arisen... I'm sorry, but I cannot allow your chocobos to play together.
- **12068**: The two seem to be getting along just fine.
- **12069**: The elder of the two seems to be treating the other as a younger $0[brother/sister].
- **12070**: Your chocobo's strength has slightly improved.
- **12071**: Your chocobo has become slightly more patient.
- **12072**: Your chocobo has become slightly more intelligent.
- **12073**: Your chocobo has become slightly more receptive.
- **12074**: Which chocobo? [$0./$1./$2./$3./$4./$5./Quit.]
- **12075**: The vitals of $0? Let me see...
- **12076**: Owner: %3
- **12077**: Home Stable: [ /San d'Oria/Bastok/Windurst]
- **12078**: Days Raised: $6
- **12079**: Gender: $0[Male/Female]
- **12080**: Strength: [Poor/Substandard/A bit deficient/Average/Better than average/Impressive/Outstanding/First-class]
- **12081**: Endurance: [Poor/Substandard/A bit deficient/Average/Better than average/Impressive/Outstanding/First-class]
- **12082**: Discernment: [Poor/Substandard/A bit deficient/Average/Better than average/Impressive/Outstanding/First-class]
- **12083**: Receptivity: [Poor/Substandard/A bit deficient/Average/Better than average/Impressive/Outstanding/First-class]
- **12084**: Affection towards %3: [None/Able to endure company/Slightly enjoys company/Likes/Likes pretty well/Likes a lot/Wants to be with all the time/Regards as parent].
- **12085**: Nourishment: [Starving/Quite hungry/A little hungry/Neither hungry nor full/Neither hungry nor full/Almost full/Quite full/Completely full]
- **12086**: Current Health Condition: Stable
- **12087**: Other Health Conditions: Slightly injured leg due to overuse
- **12088**: Other Health Conditions: Upset stomach due to overfeeding
- **12089**: Other Health Conditions: Slight cold
- **12090**: Other Health Conditions: Serious illness
- **12091**: Other Health Conditions: Depression due to lack of affection
- **12092**: Other Health Conditions: Is receiving sufficient attention
- **12093**: Other Health Conditions: Bored and restless
- **12094**: Other Conditions: Spoiled
- **12095**: Other Conditions: In love
- **12096**: Other Health Conditions: Cries all night
- **12097**: Other Health Conditions: Bursting with vitality
- **12098**: Other Health Conditions: Sparkling with intelligence
- **12099**: Personality: [Very easygoing/Rather ill-tempered/Very patient chocobo/Quite sensitive/Rather enigmatic]
- **12100**: Weather: Likes: [Clear days/Hot, sunny days/Rainy days/Sandstorms/Windy days/Snowy days/Thunderstorms/Auroras/Dark days/ /Cloudy days] Dislikes: [Nothing/Rainy days/Thunderstorms/Windy days/Snowy days/Clear days/Sandstorms/Dark days/Auroras].
- **12101**: Abilities: None
- **12102**: Abilities: [--/Gallop/Canter/Burrow/Bore/Auto-Regen/Treasure Finder]
- **12103**: Abilities: [--/Gallop/Canter/Burrow/Bore/Auto-Regen/Treasure Finder] and [--/Gallop/Canter/Burrow/Bore/Auto-Regen/Treasure Finder]
- **12104**: Which chocobo? [$1./$2./$3./$4./$5./Quit.]
- **12105**: Please remember, I can only check the compatibility of your chocobo and another once a day (Earth time).
- **12106**: Continue? [Yes./No.]
- **12107**: These two chocobos are of the same gender. I cannot check their compatibility.
- **12108**: If $0 and $1 were to mate...
- **12109**: I hope $0 grows up soon.
- **12110**: I hope they both grow up soon.
- **12111**: I'm certain I told you that I can only check the compatibility of your chocobo and another once a day (Earth time). Please keep that in mind.
- **12112**: I'm sorry, but your chocobo must step forth from the cozy refines of its egg before taking part in camp activities.
- **12113**: I'm sorry, but your chocobo's current condition prohibits it from taking part in camp activities. Please come back when the problem is solved.
- **12114**: I'm sorry, but it seems you haven't checked in on your chocobo for an extended period of time. Please visit the stables and speak with me again.
- **12115**: I'm sorry, but your chocobo does not yet have a name. Please give it a good one and speak with me again.
- **12116**: I'm sorry, but you haven't been taking care of your chocobo. Please attend to it and speak with me again.

## Events

### Event 65535

#### Metadata

| Field        | Value   |
|--------------|---------|
| Entrypoint   | 0x0000  |
| Data Size    | 1 bytes |
| Instructions | 1       |

```
      00 01 02 03 04 05 06 07  08 09 0A 0B 0C 0D 0E 0F
      -- -- -- -- -- -- -- --  -- -- -- -- -- -- -- --
0000: 00                                                .               
```

#### Opcodes

```
  0: 0x0000 [0x00] END_REQSTACK()
```

### Event 767

#### Metadata

| Field        | Value    |
|--------------|----------|
| Entrypoint   | 0x0001   |
| Data Size    | 75 bytes |
| Instructions | 17       |

```
      00 01 02 03 04 05 06 07  08 09 0A 0B 0C 0D 0E 0F
      -- -- -- -- -- -- -- --  -- -- -- -- -- -- -- --
0000:    1E F0 FF FF 7F 1C 00  80 1D 01 80 23 66 02 80   ...........#f..
0010: F8 FF FF 7F F8 FF FF 7F  74 6C 6B 30 1D 03 80 23  ........tlk0...#
0020: 1D 04 80 23 66 02 80 F8  FF FF 7F F8 FF FF 7F 74  ...#f..........t
0030: 6C 6B 31 1D 05 80 23 66  02 80 F8 FF FF 7F F8 FF  lk1...#f........
0040: FF 7F 74 6C 6B 30 1D 06  80 23 21 00              ..tlk0...#!.    
```

#### Opcodes

```
  0: 0x0001 [0x1E] EventEntity looks at LocalPlayer and starts talking
  1: 0x0006 [0x1C] WAIT(30* ticks)
  2: 0x0009 [0x1D] PRINT_EVENT_MESSAGE(message_id=12027*)
    → "Greetings. I am a journeyman trainer from the VCS, and I have been sent to this town to promote knowledge exchange between chocobo owners."
  3: 0x000C [0x23] WAIT_FOR_DIALOG_INTERACTION
  4: 0x000D [0x66] LOAD_EXT_SCHEDULER_MAIN: Load scheduler "tlk0" with entities [EventEntity, EventEntity], work=49*
  5: 0x001C [0x1D] PRINT_EVENT_MESSAGE(message_id=12028*)
    → "We believe that the best way to promote interaction between owners is through interaction between chocobos."
  6: 0x001F [0x23] WAIT_FOR_DIALOG_INTERACTION
  7: 0x0020 [0x1D] PRINT_EVENT_MESSAGE(message_id=12029*)
    → "And after countless VCS conferences, we recently agreed on the establishment of a new program--"
  8: 0x0023 [0x23] WAIT_FOR_DIALOG_INTERACTION
  9: 0x0024 [0x66] LOAD_EXT_SCHEDULER_MAIN: Load scheduler "tlk1" with entities [EventEntity, EventEntity], work=49*
 10: 0x0033 [0x1D] PRINT_EVENT_MESSAGE(message_id=12030*)
    → "Kamp Kweh!"
 11: 0x0036 [0x23] WAIT_FOR_DIALOG_INTERACTION
 12: 0x0037 [0x66] LOAD_EXT_SCHEDULER_MAIN: Load scheduler "tlk0" with entities [EventEntity, EventEntity], work=49*
 13: 0x0046 [0x1D] PRINT_EVENT_MESSAGE(message_id=12031*)
    → "Breeders need only possess a chocobo to join. Please speak with me again if you are interested."
 14: 0x0049 [0x23] WAIT_FOR_DIALOG_INTERACTION
 15: 0x004A [0x21] END_EVENT
 16: 0x004B [0x00] END_REQSTACK()
```

### Event 775

#### Metadata

| Field        | Value     |
|--------------|-----------|
| Entrypoint   | 0x004C    |
| Data Size    | 255 bytes |
| Instructions | 22        |

```
      00 01 02 03 04 05 06 07  08 09 0A 0B 0C 0D 0E 0F
      -- -- -- -- -- -- -- --  -- -- -- -- -- -- -- --
0040:                                      1E F0 FF FF              ....
0050: 7F 1C 00 80 1D 07 80 23  24 08 80 09 80 09 80 25  .......#$......%
0060: 02 00 10 09 80 00 A0 00  66 02 80 F8 FF FF 7F F8  ........f.......
0070: FF FF 7F 74 6C 6B 30 1D  0A 80 23 1D 0B 80 23 1D  ...tlk0...#...#.
0080: 0C 80 23 1D 0D 80 23 66  02 80 F8 FF FF 7F F8 FF  ..#...#f........
0090: FF 7F 74 6C 6B 31 1D 0E  80 23 01 58 00 01 49 01  ..tlk1...#.X..I.
00A0: 02 00 10 0F 80 00 DC 00  66 02 80 F8 FF FF 7F F8  ........f.......
00B0: FF FF 7F 74 6C 6B 30 1D  10 80 23 1D 11 80 23 1D  ...tlk0...#...#.
00C0: 12 80 23 66 02 80 F8 FF  FF 7F F8 FF FF 7F 74 6C  ..#f..........tl
00D0: 6B 31 1D 13 80 23 01 58  00 01 49 01 02 00 10 14  k1...#.X..I.....
00E0: 80 00 3E 01 66 02 80 F8  FF FF 7F F8 FF FF 7F 74  ..>.f..........t
00F0: 6C 6B 30 1D 15 80 23 1D  16 80 23 1D 17 80 23 66  lk0...#...#...#f
0100: 02 80 F8 FF FF 7F F8 FF  FF 7F 74 6C 6B 31 1D 18  ..........tlk1..
0110: 80 23 66 02 80 F8 FF FF  7F F8 FF FF 7F 74 6C 6B  .#f..........tlk
0120: 30 1D 19 80 23 66 02 80  F8 FF FF 7F F8 FF FF 7F  0...#f..........
0130: 74 6C 6B 31 1D 1A 80 23  01 58 00 01 49 01 02 00  tlk1...#.X..I...
0140: 10 1B 80 00 49 01 01 49  01 21 00                 ....I..I.!.     
```

#### Opcodes

```
  0: 0x004C [0x1E] EventEntity looks at LocalPlayer and starts talking
  1: 0x0051 [0x1C] WAIT(30* ticks)
  2: 0x0054 [0x1D] PRINT_EVENT_MESSAGE(message_id=12032*)
    → "I can answer your questions regarding Kamp Kweh?"
  3: 0x0057 [0x23] WAIT_FOR_DIALOG_INTERACTION
  4: 0x0058 [0x24] CREATE_DIALOG(message_id=12033*, default_option=0*, option_flags=0*)
    → "What would you like to know? [What exactly is Kamp Kweh?/How do I sign up?/Are there any restrictions?/Nothing at all.]"
  5: 0x005F [0x25] WAIT_DIALOG_SELECT()
  6: 0x0060 [0x02] IF !(Work_Zone[0] == 0*) GOTO 0x00A0
  7: 0x0068 [0x66] LOAD_EXT_SCHEDULER_MAIN: Load scheduler "tlk0" with entities [EventEntity, EventEntity], work=49*
  8: 0x0077 [0x1D] PRINT_EVENT_MESSAGE(message_id=12034*)
    → "Kamp Kweh is a place where fellow breeders can bring their chocobos to interact with each other."
  9: 0x007A [0x23] WAIT_FOR_DIALOG_INTERACTION
 10: 0x007B [0x1D] PRINT_EVENT_MESSAGE(message_id=12035*)
    → "At the camp, owners can check the status of their companions' animals..."
 11: 0x007E [0x23] WAIT_FOR_DIALOG_INTERACTION
 12: 0x007F [0x1D] PRINT_EVENT_MESSAGE(message_id=12036*)
    → "...as well as confirm breeding compatibility."
 13: 0x0082 [0x23] WAIT_FOR_DIALOG_INTERACTION
 14: 0x0083 [0x1D] PRINT_EVENT_MESSAGE(message_id=12037*)
    → "However, please note that any results from these tests are merely estimates, and may not fully reflect the actual condition of an animal."
 15: 0x0086 [0x23] WAIT_FOR_DIALOG_INTERACTION
 16: 0x0087 [0x66] LOAD_EXT_SCHEDULER_MAIN: Load scheduler "tlk1" with entities [EventEntity, EventEntity], work=49*
 17: 0x0096 [0x1D] PRINT_EVENT_MESSAGE(message_id=12038*)
    → "Our wish is that through the various camp activities we offer, your chocobo will have the opportunity to improve its skills."
 18: 0x0099 [0x23] WAIT_FOR_DIALOG_INTERACTION
 19: 0x009A [0x01] GOTO 0x0058

SUBROUTINE_0149:
 20: 0x0149 [0x21] END_EVENT
 21: 0x014A [0x00] END_REQSTACK()
```

#### Data or dead code:

```
# Dead code (unreachable instructions):
     0x009D [0x01] GOTO 0x0149
     0x00D9 [0x01] GOTO 0x0149
     0x013B [0x01] GOTO 0x0149
```

### Event 776

#### Metadata

| Field        | Value       |
|--------------|-------------|
| Entrypoint   | 0x014B      |
| Data Size    | 37597 bytes |
| Instructions | 5362        |

```
      00 01 02 03 04 05 06 07  08 09 0A 0B 0C 0D 0E 0F
      -- -- -- -- -- -- -- --  -- -- -- -- -- -- -- --
0140:                                   1E F0 FF FF 7F             .....
0150: 1D 1C 80 23 24 1D 80 09  80 09 80 25 02 00 10 09  ...#$......%....
0160: 80 00 98 04 42 03 08 00  09 80 03 01 10 0F 80 43  ....B..........C
0170: 00 43 01 03 01 00 08 10  02 02 10 1E 80 00 37 04  .C............7.
0180: 02 01 00 09 80 02 30 04  03 00 00 0F 80 03 02 10  ......0.........
0190: 0F 80 1A 0D 8B 03 01 10  1F 80 43 00 43 01 02 09  ..........C.C...
01A0: 10 09 80 00 B2 01 1D 20  80 23 03 01 00 09 80 01  ....... .#......
01B0: E1 01 B4 01 17 00 09 80  03 01 10 21 80 43 00 43  ...........!.C.C
01C0: 01 C3 09 80 17 00 02 10  02 02 00 1B 80 05 DA 01  ................
01D0: 27 05 44 10 0F 01 07 01  E1 01 27 05 4A 10 0F 01  '.D.......'.J...
01E0: 05 03 00 00 14 80 03 02  10 14 80 1A 0D 8B 02 08  ................
01F0: 00 09 80 00 45 02 03 01  10 22 80 43 00 43 01 02  ....E....".C.C..
0200: 09 10 09 80 00 13 02 1D  20 80 23 03 01 00 09 80  ........ .#.....
0210: 01 42 02 B4 01 17 00 09  80 03 01 10 21 80 43 00  .B..........!.C.
0220: 43 01 C3 0F 80 17 00 03  10 02 03 00 1B 80 05 3B  C..............;
0230: 02 27 05 45 10 0F 01 03  01 42 02 27 05 4B 10 0F  .'.E.....B.'.K..
0240: 01 03 01 4E 02 1D 20 80  23 03 01 00 09 80 02 01  ...N.. .#.......
0250: 00 0F 80 02 22 04 03 00  00 1B 80 03 02 10 1B 80  ...."...........
0260: 1A 0D 8B 02 08 00 09 80  00 BA 02 03 01 10 23 80  ..............#.
0270: 43 00 43 01 02 09 10 09  80 00 88 02 1D 20 80 23  C.C.......... .#
0280: 03 01 00 09 80 01 B7 02  B4 01 17 00 09 80 03 01  ................
0290: 10 24 80 43 00 43 01 C3  14 80 17 00 03 10 02 04  .$.C.C..........
02A0: 00 1B 80 05 B0 02 27 05  46 10 0F 01 04 01 B7 02  ......'.F.......
02B0: 27 05 4C 10 0F 01 04 01  C3 02 1D 20 80 23 03 01  '.L........ .#..
02C0: 00 09 80 02 01 00 14 80  02 22 04 03 00 00 25 80  ........."....%.
02D0: 03 02 10 25 80 1A 0D 8B  02 08 00 09 80 00 2F 03  ...%........../.
02E0: 03 01 10 26 80 43 00 43  01 02 09 10 09 80 00 FD  ...&.C.C........
02F0: 02 1D 20 80 23 03 01 00  09 80 01 2C 03 B4 01 17  .. .#......,....
0300: 00 09 80 03 01 10 27 80  43 00 43 01 C3 1B 80 17  ......'.C.C.....
0310: 00 03 10 02 05 00 1B 80  05 25 03 27 05 47 10 0F  .........%.'.G..
0320: 01 04 01 2C 03 27 05 4D  10 0F 01 04 01 38 03 1D  ...,.'.M.....8..
0330: 20 80 23 03 01 00 09 80  02 01 00 1B 80 02 22 04   .#...........".
0340: 03 00 00 28 80 03 02 10  28 80 1A 0D 8B 02 08 00  ...(....(.......
0350: 09 80 00 A4 03 03 01 10  29 80 43 00 43 01 02 09  ........).C.C...
0360: 10 09 80 00 72 03 1D 20  80 23 03 01 00 09 80 01  ....r.. .#......
0370: A1 03 B4 01 17 00 09 80  03 01 10 2A 80 43 00 43  ...........*.C.C
0380: 01 C3 25 80 17 00 03 10  02 06 00 1B 80 05 9A 03  ..%.............
0390: 27 05 48 10 0F 01 04 01  A1 03 27 05 4E 10 0F 01  '.H.......'.N...
03A0: 04 01 AD 03 1D 20 80 23  03 01 00 09 80 02 01 00  ..... .#........
03B0: 25 80 02 22 04 03 00 00  2B 80 03 02 10 2B 80 1A  %.."....+....+..
03C0: 0D 8B 02 08 00 09 80 00  19 04 03 01 10 2C 80 43  .............,.C
03D0: 00 43 01 02 09 10 09 80  00 E7 03 1D 20 80 23 03  .C.......... .#.
03E0: 01 00 09 80 01 16 04 B4  01 17 00 09 80 03 01 10  ................
03F0: 2D 80 43 00 43 01 C3 28  80 17 00 03 10 02 07 00  -.C.C..(........
0400: 1B 80 05 0F 04 27 05 49  10 0F 01 01 01 16 04 27  .....'.I.......'
0410: 05 4F 10 0F 01 01 01 22  04 1D 20 80 23 03 01 00  .O.....".. .#...
0420: 09 80 02 01 00 09 80 01  2D 04 1A A9 04 01 34 04  ........-.....4.
0430: 1D 2E 80 23 01 95 04 02  02 10 2B 80 80 46 04 1D  ...#......+..F..
0440: 2F 80 23 01 95 04 02 02  10 0F 80 80 55 04 1D 30  /.#.........U..0
0450: 80 23 01 95 04 02 02 10  14 80 80 64 04 1D 31 80  .#.........d..1.
0460: 23 01 95 04 02 02 10 1B  80 80 73 04 1D 31 80 23  #.........s..1.#
0470: 01 95 04 02 02 10 25 80  80 82 04 1D 32 80 23 01  ......%.....2.#.
0480: 95 04 02 02 10 28 80 80  91 04 1D 33 80 23 01 95  .....(.....3.#..
0490: 04 1D 20 80 23 01 A7 04  02 00 10 0F 80 00 A7 04  .. .#...........
04A0: 1D 34 80 23 01 A7 04 21  00 03 0C 00 09 80 5D 09  .4.#...!......].
04B0: 80 35 80 45 36 80 F8 FF  FF 7F F8 FF FF 7F 66 64  .5.E6.........fd
04C0: 6F 31 09 80 55 36 80 F8  FF FF 7F F8 FF FF 7F 66  o1..U6.........f
04D0: 64 6F 31 46 01 38 37 80  83 0A 00 AA 0A 00 0A 00  do1F.87.........
04E0: 0A 00 0A 00 0A 00 09 00  0A 00 0A 00 1C 0F 80 34  ...............4
04F0: 38 80 77 09 00 0F 80 1C  0F 80 5C 00 39 80 5C 01  8.w.......\.9.\.
0500: 39 80 03 0A 00 09 80 92  01 44 10 0F 01 92 01 45  9........D.....E
0510: 10 0F 01 92 01 46 10 0F  01 92 01 47 10 0F 01 92  .....F.....G....
0520: 01 48 10 0F 01 92 01 49  10 0F 01 92 01 4A 10 0F  .H.....I.....J..
0530: 01 92 01 4B 10 0F 01 92  01 4C 10 0F 01 92 01 4D  ...K.....L.....M
0540: 10 0F 01 92 01 4E 10 0F  01 92 01 4F 10 0F 01 02  .....N.....O....
0550: 02 00 14 80 80 6D 05 27  05 44 10 0F 01 31 80 44  .....m.'.D...1.D
0560: 10 0F 01 27 05 44 10 0F  01 32 01 9E 05 02 02 00  ...'.D...2......
0570: 1B 80 80 8B 05 27 05 44  10 0F 01 31 80 44 10 0F  .....'.D...1.D..
0580: 01 27 05 44 10 0F 01 33  01 9E 05 27 05 4A 10 0F  .'.D...3...'.J..
0590: 01 30 80 4A 10 0F 01 27  05 4A 10 0F 01 31 02 00  .0.J...'.J...1..
05A0: 00 14 80 80 F8 05 02 03  00 14 80 80 C4 05 27 05  ..............'.
05B0: 45 10 0F 01 26 80 45 10  0F 01 27 05 45 10 0F 01  E...&.E...'.E...
05C0: 27 01 F5 05 02 03 00 1B  80 80 E2 05 27 05 45 10  '...........'.E.
05D0: 0F 01 26 80 45 10 0F 01  27 05 45 10 0F 01 28 01  ..&.E...'.E...(.
05E0: F5 05 27 05 4B 10 0F 01  1A 80 4B 10 0F 01 27 05  ..'.K.....K...'.
05F0: 4B 10 0F 01 1B 01 76 0A  02 00 00 1B 80 80 A1 06  K.....v.........
0600: 02 03 00 14 80 80 1E 06  27 05 45 10 0F 01 26 80  ........'.E...&.
0610: 45 10 0F 01 27 05 45 10  0F 01 27 01 4F 06 02 03  E...'.E...'.O...
0620: 00 1B 80 80 3C 06 27 05  45 10 0F 01 26 80 45 10  ....<.'.E...&.E.
0630: 0F 01 27 05 45 10 0F 01  28 01 4F 06 27 05 4B 10  ..'.E...(.O.'.K.
0640: 0F 01 1A 80 4B 10 0F 01  27 05 4B 10 0F 01 1B 02  ....K...'.K.....
0650: 04 00 14 80 80 6D 06 27  05 46 10 0F 01 11 80 46  .....m.'.F.....F
0660: 10 0F 01 27 05 46 10 0F  01 12 01 9E 06 02 04 00  ...'.F..........
0670: 1B 80 80 8B 06 27 05 46  10 0F 01 11 80 46 10 0F  .....'.F.....F..
0680: 01 27 05 46 10 0F 01 13  01 9E 06 27 05 4C 10 0F  .'.F.......'.L..
0690: 01 10 80 4C 10 0F 01 27  05 4C 10 0F 01 11 01 76  ...L...'.L.....v
06A0: 0A 02 00 00 25 80 80 99  07 02 03 00 14 80 80 C7  ....%...........
06B0: 06 27 05 45 10 0F 01 26  80 45 10 0F 01 27 05 45  .'.E...&.E...'.E
06C0: 10 0F 01 27 01 F8 06 02  03 00 1B 80 80 E5 06 27  ...'...........'
06D0: 05 45 10 0F 01 26 80 45  10 0F 01 27 05 45 10 0F  .E...&.E...'.E..
06E0: 01 28 01 F8 06 27 05 4B  10 0F 01 1A 80 4B 10 0F  .(...'.K.....K..
06F0: 01 27 05 4B 10 0F 01 1B  02 04 00 14 80 80 16 07  .'.K............
0700: 27 05 46 10 0F 01 11 80  46 10 0F 01 27 05 46 10  '.F.....F...'.F.
0710: 0F 01 12 01 47 07 02 04  00 1B 80 80 34 07 27 05  ....G.......4.'.
0720: 46 10 0F 01 11 80 46 10  0F 01 27 05 46 10 0F 01  F.....F...'.F...
0730: 13 01 47 07 27 05 4C 10  0F 01 10 80 4C 10 0F 01  ..G.'.L.....L...
0740: 27 05 4C 10 0F 01 11 02  05 00 14 80 80 65 07 27  '.L..........e.'
0750: 05 47 10 0F 01 11 80 47  10 0F 01 27 05 47 10 0F  .G.....G...'.G..
0760: 01 12 01 96 07 02 05 00  1B 80 80 83 07 27 05 47  .............'.G
0770: 10 0F 01 11 80 47 10 0F  01 27 05 47 10 0F 01 13  .....G...'.G....
0780: 01 96 07 27 05 4D 10 0F  01 10 80 4D 10 0F 01 27  ...'.M.....M...'
0790: 05 4D 10 0F 01 11 01 76  0A 02 00 00 28 80 80 E0  .M.....v....(...
07A0: 08 02 03 00 14 80 80 BF  07 27 05 45 10 0F 01 26  .........'.E...&
07B0: 80 45 10 0F 01 27 05 45  10 0F 01 27 01 F0 07 02  .E...'.E...'....
07C0: 03 00 1B 80 80 DD 07 27  05 45 10 0F 01 26 80 45  .......'.E...&.E
07D0: 10 0F 01 27 05 45 10 0F  01 28 01 F0 07 27 05 4B  ...'.E...(...'.K
07E0: 10 0F 01 1A 80 4B 10 0F  01 27 05 4B 10 0F 01 1B  .....K...'.K....
07F0: 02 04 00 14 80 80 0E 08  27 05 46 10 0F 01 11 80  ........'.F.....
0800: 46 10 0F 01 27 05 46 10  0F 01 12 01 3F 08 02 04  F...'.F.....?...
0810: 00 1B 80 80 2C 08 27 05  46 10 0F 01 11 80 46 10  ....,.'.F.....F.
0820: 0F 01 27 05 46 10 0F 01  13 01 3F 08 27 05 4C 10  ..'.F.....?.'.L.
0830: 0F 01 10 80 4C 10 0F 01  27 05 4C 10 0F 01 11 02  ....L...'.L.....
0840: 05 00 14 80 80 5D 08 27  05 47 10 0F 01 11 80 47  .....].'.G.....G
0850: 10 0F 01 27 05 47 10 0F  01 12 01 8E 08 02 05 00  ...'.G..........
0860: 1B 80 80 7B 08 27 05 47  10 0F 01 11 80 47 10 0F  ...{.'.G.....G..
0870: 01 27 05 47 10 0F 01 13  01 8E 08 27 05 4D 10 0F  .'.G.......'.M..
0880: 01 10 80 4D 10 0F 01 27  05 4D 10 0F 01 11 02 06  ...M...'.M......
0890: 00 14 80 80 AC 08 27 05  48 10 0F 01 0F 80 48 10  ......'.H.....H.
08A0: 0F 01 27 05 48 10 0F 01  10 01 DD 08 02 06 00 1B  ..'.H...........
08B0: 80 80 CA 08 27 05 48 10  0F 01 0F 80 48 10 0F 01  ....'.H.....H...
08C0: 27 05 48 10 0F 01 11 01  DD 08 27 05 4E 10 0F 01  '.H.......'.N...
08D0: 0F 80 4E 10 0F 01 27 05  4E 10 0F 01 10 01 76 0A  ..N...'.N.....v.
08E0: 02 00 00 2B 80 80 76 0A  02 03 00 14 80 80 06 09  ...+..v.........
08F0: 27 05 45 10 0F 01 26 80  45 10 0F 01 27 05 45 10  '.E...&.E...'.E.
0900: 0F 01 27 01 37 09 02 03  00 1B 80 80 24 09 27 05  ..'.7.......$.'.
0910: 45 10 0F 01 26 80 45 10  0F 01 27 05 45 10 0F 01  E...&.E...'.E...
0920: 28 01 37 09 27 05 4B 10  0F 01 1A 80 4B 10 0F 01  (.7.'.K.....K...
0930: 27 05 4B 10 0F 01 1B 02  04 00 14 80 80 55 09 27  '.K..........U.'
0940: 05 46 10 0F 01 11 80 46  10 0F 01 27 05 46 10 0F  .F.....F...'.F..
0950: 01 12 01 86 09 02 04 00  1B 80 80 73 09 27 05 46  ...........s.'.F
0960: 10 0F 01 11 80 46 10 0F  01 27 05 46 10 0F 01 13  .....F...'.F....
0970: 01 86 09 27 05 4C 10 0F  01 10 80 4C 10 0F 01 27  ...'.L.....L...'
0980: 05 4C 10 0F 01 11 02 05  00 14 80 80 A4 09 27 05  .L............'.
0990: 47 10 0F 01 11 80 47 10  0F 01 27 05 47 10 0F 01  G.....G...'.G...
09A0: 12 01 D5 09 02 05 00 1B  80 80 C2 09 27 05 47 10  ............'.G.
09B0: 0F 01 11 80 47 10 0F 01  27 05 47 10 0F 01 13 01  ....G...'.G.....
09C0: D5 09 27 05 4D 10 0F 01  10 80 4D 10 0F 01 27 05  ..'.M.....M...'.
09D0: 4D 10 0F 01 11 02 06 00  14 80 80 F3 09 27 05 48  M............'.H
09E0: 10 0F 01 0F 80 48 10 0F  01 27 05 48 10 0F 01 10  .....H...'.H....
09F0: 01 24 0A 02 06 00 1B 80  80 11 0A 27 05 48 10 0F  .$.........'.H..
0A00: 01 0F 80 48 10 0F 01 27  05 48 10 0F 01 11 01 24  ...H...'.H.....$
0A10: 0A 27 05 4E 10 0F 01 0F  80 4E 10 0F 01 27 05 4E  .'.N.....N...'.N
0A20: 10 0F 01 10 02 07 00 14  80 80 42 0A 27 05 49 10  ..........B.'.I.
0A30: 0F 01 04 80 49 10 0F 01  27 05 49 10 0F 01 05 01  ....I...'.I.....
0A40: 73 0A 02 07 00 1B 80 80  60 0A 27 05 49 10 0F 01  s.......`.'.I...
0A50: 04 80 49 10 0F 01 27 05  49 10 0F 01 06 01 73 0A  ..I...'.I.....s.
0A60: 27 05 4F 10 0F 01 04 80  4F 10 0F 01 27 05 4F 10  '.O.....O...'.O.
0A70: 0F 01 05 01 76 0A 45 3A  80 F8 FF FF 7F F8 FF FF  ....v.E:........
0A80: 7F 73 31 39 30 09 80 1C  3B 80 45 36 80 F8 FF FF  .s190...;.E6....
0A90: 7F F8 FF FF 7F 66 64 69  31 09 80 1C 3B 80 02 0A  .....fdi1...;...
0AA0: 00 09 80 00 AA 0A 1D 3C  80 23 24 3D 80 09 80 09  .......<.#$=....
0AB0: 80 25 02 00 10 09 80 00  74 0B 03 01 10 02 80 43  .%......t......C
0AC0: 00 43 01 1A DB 15 02 02  10 09 80 80 D9 0A 03 02  .C..............
0AD0: 10 09 80 48 3E 80 01 25  0B 02 02 10 0F 80 80 EC  ...H>..%........
0AE0: 0A 03 02 10 09 80 48 3F  80 01 25 0B 02 02 10 14  ......H?..%.....
0AF0: 80 80 FF 0A 03 02 10 09  80 48 40 80 01 25 0B 02  .........H@..%..
0B00: 02 10 1B 80 80 12 0B 03  02 10 09 80 48 41 80 01  ............HA..
0B10: 25 0B 02 02 10 25 80 80  25 0B 03 02 10 09 80 48  %....%..%......H
0B20: 42 80 01 25 0B 23 03 01  10 43 80 43 00 43 01 03  B..%.#...C.C.C..
0B30: 01 10 44 80 43 00 43 01  02 02 10 45 80 04 43 0B  ..D.C.C....E..C.
0B40: 1A C4 16 02 02 00 14 80  80 55 0B 27 05 44 10 0F  .........U.'.D..
0B50: 01 32 01 6E 0B 02 02 00  1B 80 80 67 0B 27 05 44  .2.n.......g.'.D
0B60: 10 0F 01 33 01 6E 0B 27  05 4A 10 0F 01 31 01 AA  ...3.n.'.J...1..
0B70: 0A 01 12 13 02 00 10 0F  80 00 5C 0D 02 00 00 14  ..........\.....
0B80: 80 80 8C 0B 03 0C 00 00  80 01 CC 0B 02 00 00 1B  ................
0B90: 80 80 9C 0B 03 0C 00 46  80 01 CC 0B 02 00 00 25  .......F.......%
0BA0: 80 80 AC 0B 03 0C 00 26  80 01 CC 0B 02 00 00 28  .......&.......(
0BB0: 80 80 BC 0B 03 0C 00 47  80 01 CC 0B 02 00 00 2B  .......G.......+
0BC0: 80 80 CC 0B 03 0C 00 09  80 01 CC 0B 03 03 10 0F  ................
0BD0: 80 03 04 10 14 80 03 05  10 1B 80 03 06 10 25 80  ..............%.
0BE0: 03 07 10 28 80 24 48 80  09 80 0C 00 25 02 00 10  ...(.$H.....%...
0BF0: 09 80 00 33 0C 1A DB 8A  02 09 10 09 80 00 26 0C  ...3..........&.
0C00: 03 09 00 0F 80 1A 4B 88  1A D1 88 02 16 00 0F 80  ......K.........
0C10: 00 1C 0C 1A 88 89 1A 14  17 01 23 0C 1D 49 80 23  ..........#..I.#
0C20: 01 7C 0B 01 2D 0C 1D 49  80 23 01 7C 0B 01 4F 05  .|..-..I.#.|..O.
0C30: 01 59 0D 02 00 10 0F 80  00 79 0C 1A E5 8A 02 09  .Y.......y......
0C40: 10 09 80 00 6C 0C 03 09  00 14 80 1A 4B 88 1A D1  ....l.......K...
0C50: 88 02 16 00 0F 80 00 62  0C 1A 88 89 1A 14 17 01  .......b........
0C60: 69 0C 1D 49 80 23 01 7C  0B 01 73 0C 1D 49 80 23  i..I.#.|..s..I.#
0C70: 01 7C 0B 01 4F 05 01 59  0D 02 00 10 14 80 00 BF  .|..O..Y........
0C80: 0C 1A EF 8A 02 09 10 09  80 00 B2 0C 03 09 00 1B  ................
0C90: 80 1A 4B 88 1A D1 88 02  16 00 0F 80 00 A8 0C 1A  ..K.............
0CA0: 88 89 1A 14 17 01 AF 0C  1D 49 80 23 01 7C 0B 01  .........I.#.|..
0CB0: B9 0C 1D 49 80 23 01 7C  0B 01 4F 05 01 59 0D 02  ...I.#.|..O..Y..
0CC0: 00 10 1B 80 00 05 0D 1A  F9 8A 02 09 10 09 80 00  ................
0CD0: F8 0C 03 09 00 25 80 1A  4B 88 1A D1 88 02 16 00  .....%..K.......
0CE0: 0F 80 00 EE 0C 1A 88 89  1A 14 17 01 F5 0C 1D 49  ...............I
0CF0: 80 23 01 7C 0B 01 FF 0C  1D 49 80 23 01 7C 0B 01  .#.|.....I.#.|..
0D00: 4F 05 01 59 0D 02 00 10  25 80 00 4B 0D 1A 03 8B  O..Y....%..K....
0D10: 02 09 10 09 80 00 3E 0D  03 09 00 28 80 1A 4B 88  ......>....(..K.
0D20: 1A D1 88 02 16 00 0F 80  00 34 0D 1A 88 89 1A 14  .........4......
0D30: 17 01 3B 0D 1D 49 80 23  01 7C 0B 01 45 0D 1D 49  ..;..I.#.|..E..I
0D40: 80 23 01 7C 0B 01 4F 05  01 59 0D 02 00 10 28 80  .#.|..O..Y....(.
0D50: 00 59 0D 01 AA 0A 01 59  0D 01 12 13 02 00 10 14  .Y.....Y........
0D60: 80 00 68 0F 02 00 00 14  80 80 74 0D 03 0C 00 3B  ..h.......t....;
0D70: 80 01 B4 0D 02 00 00 1B  80 80 84 0D 03 0C 00 4A  ...............J
0D80: 80 01 B4 0D 02 00 00 25  80 80 94 0D 03 0C 00 44  .......%.......D
0D90: 80 01 B4 0D 02 00 00 28  80 80 A4 0D 03 0C 00 4B  .......(.......K
0DA0: 80 01 B4 0D 02 00 00 2B  80 80 B4 0D 03 0C 00 09  .......+........
0DB0: 80 01 B4 0D 03 02 10 09  80 03 03 10 0F 80 03 04  ................
0DC0: 10 14 80 03 05 10 1B 80  03 06 10 25 80 03 07 10  ...........%....
0DD0: 28 80 24 4C 80 09 80 0C  00 25 02 00 10 09 80 00  (.$L.....%......
0DE0: F9 0D 03 01 10 4D 80 43  00 43 01 03 09 00 09 80  .....M.C.C......
0DF0: 1A 38 81 01 4F 05 01 65  0F 02 00 10 0F 80 00 3F  .8..O..e.......?
0E00: 0E 1A DB 8A 02 09 10 09  80 00 32 0E 03 01 10 4B  ..........2....K
0E10: 80 43 00 43 01 02 09 10  09 80 00 27 0E 1D 49 80  .C.C.......'..I.
0E20: 23 01 64 0D 01 2F 0E 03  09 00 0F 80 1A 59 82 01  #.d../.......Y..
0E30: 39 0E 1D 49 80 23 01 64  0D 01 4F 05 01 65 0F 02  9..I.#.d..O..e..
0E40: 00 10 14 80 00 85 0E 1A  E5 8A 02 09 10 09 80 00  ................
0E50: 78 0E 03 01 10 4E 80 43  00 43 01 02 09 10 09 80  x....N.C.C......
0E60: 00 6D 0E 1D 49 80 23 01  64 0D 01 75 0E 03 09 00  .m..I.#.d..u....
0E70: 14 80 1A 7D 83 01 7F 0E  1D 49 80 23 01 64 0D 01  ...}.....I.#.d..
0E80: 4F 05 01 65 0F 02 00 10  1B 80 00 CB 0E 1A EF 8A  O..e............
0E90: 02 09 10 09 80 00 BE 0E  03 01 10 4F 80 43 00 43  ...........O.C.C
0EA0: 01 02 09 10 09 80 00 B3  0E 1D 49 80 23 01 64 0D  ..........I.#.d.
0EB0: 01 BB 0E 03 09 00 1B 80  1A A1 84 01 C5 0E 1D 49  ...............I
0EC0: 80 23 01 64 0D 01 4F 05  01 65 0F 02 00 10 25 80  .#.d..O..e....%.
0ED0: 00 11 0F 1A F9 8A 02 09  10 09 80 00 04 0F 03 01  ................
0EE0: 10 50 80 43 00 43 01 02  09 10 09 80 00 F9 0E 1D  .P.C.C..........
0EF0: 49 80 23 01 64 0D 01 01  0F 03 09 00 25 80 1A C5  I.#.d.......%...
0F00: 85 01 0B 0F 1D 49 80 23  01 64 0D 01 4F 05 01 65  .....I.#.d..O..e
0F10: 0F 02 00 10 28 80 00 57  0F 1A 03 8B 02 09 10 09  ....(..W........
0F20: 80 00 4A 0F 03 01 10 51  80 43 00 43 01 02 09 10  ..J....Q.C.C....
0F30: 09 80 00 3F 0F 1D 49 80  23 01 64 0D 01 47 0F 03  ...?..I.#.d..G..
0F40: 09 00 28 80 1A E9 86 01  51 0F 1D 49 80 23 01 64  ..(.....Q..I.#.d
0F50: 0D 01 4F 05 01 65 0F 02  00 10 2B 80 00 65 0F 01  ..O..e....+..e..
0F60: AA 0A 01 65 0F 01 12 13  02 00 10 1B 80 00 12 13  ...e............
0F70: 02 00 00 14 80 80 80 0F  03 0C 00 00 80 01 C0 0F  ................
0F80: 02 00 00 1B 80 80 90 0F  03 0C 00 46 80 01 C0 0F  ...........F....
0F90: 02 00 00 25 80 80 A0 0F  03 0C 00 26 80 01 C0 0F  ...%.......&....
0FA0: 02 00 00 28 80 80 B0 0F  03 0C 00 47 80 01 C0 0F  ...(.......G....
0FB0: 02 00 00 2B 80 80 C0 0F  03 0C 00 09 80 01 C0 0F  ...+............
0FC0: 03 03 10 0F 80 03 04 10  14 80 03 05 10 1B 80 03  ................
0FD0: 06 10 25 80 03 07 10 28  80 24 52 80 09 80 0C 00  ..%....(.$R.....
0FE0: 25 02 00 10 09 80 00 81  10 1D 53 80 23 24 54 80  %.........S.#$T.
0FF0: 0F 80 09 80 25 02 00 10  09 80 00 70 10 1A DB 8A  ....%......p....
1000: 02 09 10 09 80 00 66 10  03 01 10 21 80 43 00 43  ......f....!.C.C
1010: 01 02 02 10 03 10 00 23  10 1D 55 80 23 01 70 0F  .......#..U.#.p.
1020: 01 63 10 03 09 00 0F 80  1A 86 8A 02 09 10 09 80  .c..............
1030: 00 3D 10 1D 49 80 23 01  70 0F 01 63 10 03 0B 00  .=..I.#.p..c....
1040: 02 10 03 01 10 1E 80 43  00 43 01 02 02 10 0F 80  .......C.C......
1050: 00 5C 10 1A 45 5B 01 4F  05 01 63 10 1D 56 80 23  .\..E[.O..c..V.#
1060: 01 AA 0A 01 6D 10 1D 49  80 23 01 70 0F 01 7E 10  ....m..I.#.p..~.
1070: 02 00 10 0F 80 00 7E 10  01 70 0F 01 7E 10 01 0F  ......~..p..~...
1080: 13 02 00 10 0F 80 00 21  11 1D 53 80 23 24 54 80  .......!..S.#$T.
1090: 0F 80 09 80 25 02 00 10  09 80 00 10 11 1A E5 8A  ....%...........
10A0: 02 09 10 09 80 00 06 11  03 01 10 24 80 43 00 43  ...........$.C.C
10B0: 01 02 02 10 03 10 00 C3  10 1D 55 80 23 01 70 0F  ..........U.#.p.
10C0: 01 03 11 03 09 00 14 80  1A 86 8A 02 09 10 09 80  ................
10D0: 00 DD 10 1D 49 80 23 01  70 0F 01 03 11 03 0B 00  ....I.#.p.......
10E0: 02 10 03 01 10 1E 80 43  00 43 01 02 02 10 0F 80  .......C.C......
10F0: 00 FC 10 1A 45 5B 01 4F  05 01 03 11 1D 56 80 23  ....E[.O.....V.#
1100: 01 AA 0A 01 0D 11 1D 49  80 23 01 70 0F 01 1E 11  .......I.#.p....
1110: 02 00 10 0F 80 00 1E 11  01 70 0F 01 1E 11 01 0F  .........p......
1120: 13 02 00 10 14 80 00 C1  11 1D 53 80 23 24 54 80  ..........S.#$T.
1130: 0F 80 09 80 25 02 00 10  09 80 00 B0 11 1A EF 8A  ....%...........
1140: 02 09 10 09 80 00 A6 11  03 01 10 27 80 43 00 43  ...........'.C.C
1150: 01 02 02 10 03 10 00 63  11 1D 55 80 23 01 70 0F  .......c..U.#.p.
1160: 01 A3 11 03 09 00 1B 80  1A 86 8A 02 09 10 09 80  ................
1170: 00 7D 11 1D 49 80 23 01  70 0F 01 A3 11 03 0B 00  .}..I.#.p.......
1180: 02 10 03 01 10 1E 80 43  00 43 01 02 02 10 0F 80  .......C.C......
1190: 00 9C 11 1A 45 5B 01 4F  05 01 A3 11 1D 56 80 23  ....E[.O.....V.#
11A0: 01 AA 0A 01 AD 11 1D 49  80 23 01 70 0F 01 BE 11  .......I.#.p....
11B0: 02 00 10 0F 80 00 BE 11  01 70 0F 01 BE 11 01 0F  .........p......
11C0: 13 02 00 10 1B 80 00 61  12 1D 53 80 23 24 54 80  .......a..S.#$T.
11D0: 0F 80 09 80 25 02 00 10  09 80 00 50 12 1A F9 8A  ....%......P....
11E0: 02 09 10 09 80 00 46 12  03 01 10 2A 80 43 00 43  ......F....*.C.C
11F0: 01 02 02 10 03 10 00 03  12 1D 55 80 23 01 70 0F  ..........U.#.p.
1200: 01 43 12 03 09 00 25 80  1A 86 8A 02 09 10 09 80  .C....%.........
1210: 00 1D 12 1D 49 80 23 01  70 0F 01 43 12 03 0B 00  ....I.#.p..C....
1220: 02 10 03 01 10 1E 80 43  00 43 01 02 02 10 0F 80  .......C.C......
1230: 00 3C 12 1A 45 5B 01 4F  05 01 43 12 1D 56 80 23  .<..E[.O..C..V.#
1240: 01 AA 0A 01 4D 12 1D 49  80 23 01 70 0F 01 5E 12  ....M..I.#.p..^.
1250: 02 00 10 0F 80 00 5E 12  01 70 0F 01 5E 12 01 0F  ......^..p..^...
1260: 13 02 00 10 25 80 00 01  13 1D 53 80 23 24 54 80  ....%.....S.#$T.
1270: 0F 80 09 80 25 02 00 10  09 80 00 F0 12 1A 03 8B  ....%...........
1280: 02 09 10 09 80 00 E6 12  03 01 10 2D 80 43 00 43  ...........-.C.C
1290: 01 02 02 10 03 10 00 A3  12 1D 55 80 23 01 70 0F  ..........U.#.p.
12A0: 01 E3 12 03 09 00 28 80  1A 86 8A 02 09 10 09 80  ......(.........
12B0: 00 BD 12 1D 49 80 23 01  70 0F 01 E3 12 03 0B 00  ....I.#.p.......
12C0: 02 10 03 01 10 1E 80 43  00 43 01 02 02 10 0F 80  .......C.C......
12D0: 00 DC 12 1A 45 5B 01 4F  05 01 E3 12 1D 56 80 23  ....E[.O.....V.#
12E0: 01 AA 0A 01 ED 12 1D 49  80 23 01 70 0F 01 FE 12  .......I.#.p....
12F0: 02 00 10 0F 80 00 FE 12  01 70 0F 01 FE 12 01 0F  .........p......
1300: 13 02 00 10 28 80 00 0F  13 01 AA 0A 01 0F 13 01  ....(...........
1310: 12 13 5D 09 80 35 80 45  36 80 F8 FF FF 7F F8 FF  ..]..5.E6.......
1320: FF 7F 66 64 6F 31 09 80  55 36 80 F8 FF FF 7F F8  ..fdo1..U6......
1330: FF FF 7F 66 64 6F 31 52  3A 80 F8 FF FF 7F F8 FF  ...fdo1R:.......
1340: FF 7F 73 31 39 30 4E 01  44 10 0F 01 2F 01 44 10  ..s190N.D.../.D.
1350: 0F 01 4E 01 45 10 0F 01  2F 01 45 10 0F 01 4E 01  ..N.E.../.E...N.
1360: 46 10 0F 01 2F 01 46 10  0F 01 4E 01 47 10 0F 01  F.../.F...N.G...
1370: 2F 01 47 10 0F 01 4E 01  48 10 0F 01 2F 01 48 10  /.G...N.H.../.H.
1380: 0F 01 4E 01 49 10 0F 01  2F 01 49 10 0F 01 4E 01  ..N.I.../.I...N.
1390: 4A 10 0F 01 2F 01 4A 10  0F 01 4E 01 4B 10 0F 01  J.../.J...N.K...
13A0: 2F 01 4B 10 0F 01 4E 01  4C 10 0F 01 2F 01 4C 10  /.K...N.L.../.L.
13B0: 0F 01 4E 01 4D 10 0F 01  2F 01 4D 10 0F 01 4E 01  ..N.M.../.M...N.
13C0: 4E 10 0F 01 2F 01 4E 10  0F 01 4E 01 4F 10 0F 01  N.../.N...N.O...
13D0: 2F 01 4F 10 0F 01 29 05  43 10 0F 01 25 80 F8 FF  /.O...).C...%...
13E0: FF 7F 35 57 80 78 1C 0F  80 22 00 5C 00 58 80 5C  ..5W.x...".\.X.\
13F0: 01 58 80 46 00 1C 3B 80  45 36 80 F8 FF FF 7F F8  .X.F..;.E6......
1400: FF FF 7F 66 64 69 31 09  80 1B 03 02 10 09 00 1D  ...fdi1.........
1410: 59 80 23 1D 5A 80 23 03  02 10 09 00 1D 5B 80 23  Y.#.Z.#......[.#
1420: 1D 5C 80 23 03 02 10 09  00 1D 5D 80 23 03 02 17  .\.#......].#...
1430: 03 10 41 09 80 1E 80 02  17 02 10 1D 5E 80 23 41  ..A.........^.#A
1440: 5F 80 60 80 02 17 02 10  1D 61 80 23 41 47 80 23  _.`......a.#AG.#
1450: 80 02 17 02 10 1D 62 80  23 41 26 80 4D 80 02 17  ......b.#A&.M...
1460: 02 10 1D 63 80 23 03 02  17 04 10 41 09 80 1E 80  ...c.#.....A....
1470: 02 17 03 10 03 02 10 09  00 1D 64 80 23 41 47 80  ..........d.#AG.
1480: 23 80 02 17 03 10 03 02  10 09 00 1D 65 80 23 03  #...........e.#.
1490: 02 17 06 10 41 09 80 66  80 02 17 02 10 02 02 10  ....A..f........
14A0: 09 80 00 AE 14 03 02 10  09 00 1D 67 80 23 3E 02  ...........g.#>.
14B0: 17 09 80 BE 14 03 02 10  09 00 1D 68 80 23 3E 02  ...........h.#>.
14C0: 17 0F 80 CE 14 03 02 10  09 00 1D 69 80 23 3E 02  ...........i.#>.
14D0: 17 14 80 DE 14 03 02 10  09 00 1D 6A 80 23 3E 02  ...........j.#>.
14E0: 17 1B 80 EE 14 03 02 10  09 00 1D 6B 80 23 3E 02  ...........k.#>.
14F0: 17 25 80 FE 14 03 02 10  09 00 1D 6C 80 23 3E 02  .%.........l.#>.
1500: 17 2B 80 0E 15 03 02 10  09 00 1D 6D 80 23 3E 02  .+.........m.#>.
1510: 17 1E 80 1E 15 03 02 10  09 00 1D 6E 80 23 3E 02  ...........n.#>.
1520: 17 5F 80 2E 15 03 02 10  09 00 1D 6F 80 23 3E 02  ._.........o.#>.
1530: 17 70 80 3E 15 03 02 10  09 00 1D 71 80 23 3E 02  .p.>.......q.#>.
1540: 17 72 80 4E 15 03 02 10  09 00 1D 73 80 23 3E 02  .r.N.......s.#>.
1550: 17 74 80 5E 15 03 02 10  09 00 1D 75 80 23 3E 02  .t.^.......u.#>.
1560: 17 66 80 6E 15 03 02 10  09 00 1D 76 80 23 03 02  .f.n.......v.#..
1570: 17 05 10 41 09 80 1B 80  02 17 03 10 03 02 10 09  ...A............
1580: 00 1D 77 80 23 41 25 80  1E 80 02 17 03 10 03 02  ..w.#A%.........
1590: 10 09 00 1D 78 80 23 41  5F 80 72 80 02 17 03 10  ....x.#A_.r.....
15A0: 41 74 80 60 80 02 17 04  10 02 03 10 09 80 00 BD  At.`............
15B0: 15 03 02 10 09 00 1D 79  80 23 01 DA 15 02 04 10  .......y.#......
15C0: 09 80 00 D1 15 03 02 10  09 00 1D 7A 80 23 01 DA  ...........z.#..
15D0: 15 03 02 10 09 00 1D 7B  80 23 1B 02 02 00 14 80  .......{.#......
15E0: 80 2D 16 27 03 44 10 0F  01 34 2A 05 44 10 0F 01  .-.'.D...4*.D...
15F0: 4B 44 10 0F 01 7C 80 1C  3B 80 27 05 44 10 0F 01  KD...|..;.'.D...
1600: 35 5B 7D 80 44 10 0F 01  44 10 0F 01 68 69 30 37  5[}.D...D...hi07
1610: 1C 28 80 5B 7E 80 44 10  0F 01 44 10 0F 01 31 30  .(.[~.D...D...10
1620: 30 35 2B 44 10 0F 01 7F  80 23 01 C3 16 02 02 00  05+D.....#......
1630: 1B 80 80 7F 16 27 03 44  10 0F 01 34 2A 05 44 10  .....'.D...4*.D.
1640: 0F 01 4B 44 10 0F 01 7C  80 1C 3B 80 27 05 44 10  ..KD...|..;.'.D.
1650: 0F 01 35 5B 80 80 44 10  0F 01 44 10 0F 01 6B 75  ..5[..D...D...ku
1660: 65 30 1C 3B 80 5B 7E 80  44 10 0F 01 44 10 0F 01  e0.;.[~.D...D...
1670: 31 30 30 39 2B 44 10 0F  01 81 80 23 01 C3 16 27  1009+D.....#...'
1680: 03 4A 10 0F 01 32 2A 05  4A 10 0F 01 4B 4A 10 0F  .J...2*.J...KJ..
1690: 01 7C 80 1C 3B 80 27 05  4A 10 0F 01 33 5B 82 80  .|..;.'.J...3[..
16A0: 4A 10 0F 01 4A 10 0F 01  6A 6F 79 30 5B 7E 80 4A  J...J...joy0[~.J
16B0: 10 0F 01 4A 10 0F 01 31  30 31 31 2B 4A 10 0F 01  ...J...1011+J...
16C0: 83 80 23 1B 02 02 00 14  80 80 DE 16 5B 7E 80 44  ..#.........[~.D
16D0: 10 0F 01 44 10 0F 01 31  30 30 35 01 07 17 02 02  ...D...1005.....
16E0: 00 1B 80 80 F8 16 5B 7E  80 44 10 0F 01 44 10 0F  ......[~.D...D..
16F0: 01 31 30 30 39 01 07 17  5B 7E 80 4A 10 0F 01 4A  .1009...[~.J...J
1700: 10 0F 01 31 30 31 31 1C  3B 80 03 02 10 09 80 48  ...1011.;......H
1710: 84 80 23 1B 45 36 80 F8  FF FF 7F F8 FF FF 7F 66  ..#.E6.........f
1720: 64 6F 31 09 80 55 36 80  F8 FF FF 7F F8 FF FF 7F  do1..U6.........
1730: 66 64 6F 31 52 3A 80 F8  FF FF 7F F8 FF FF 7F 73  fdo1R:.........s
1740: 31 39 30 02 02 00 14 80  80 5B 17 27 03 44 10 0F  190......[.'.D..
1750: 01 34 2A 05 44 10 0F 01  01 80 17 02 02 00 1B 80  .4*.D...........
1760: 80 73 17 27 03 44 10 0F  01 34 2A 05 44 10 0F 01  .s.'.D...4*.D...
1770: 01 80 17 27 03 4A 10 0F  01 32 2A 05 4A 10 0F 01  ...'.J...2*.J...
1780: 02 0E 00 09 80 00 7C 3A  02 13 00 09 80 00 2D 1E  ......|:......-.
1790: 02 09 00 0F 80 80 69 18  02 03 00 14 80 80 DA 17  ......i.........
17A0: 27 03 45 10 0F 01 29 2A  05 45 10 0F 01 27 05 45  '.E...)*.E...'.E
17B0: 10 0F 01 2A 02 02 00 1B  80 80 C6 17 27 05 44 10  ...*........'.D.
17C0: 0F 01 39 01 CD 17 27 05  4A 10 0F 01 35 1A 37 58  ..9...'.J...5.7X
17D0: 27 05 45 10 0F 01 2B 01  5D 18 02 03 00 1B 80 80  '.E...+.].......
17E0: 38 18 27 03 45 10 0F 01  29 2A 05 45 10 0F 01 02  8.'.E...)*.E....
17F0: 02 00 14 80 80 16 18 27  05 45 10 0F 01 2D 27 05  .......'.E...-'.
1800: 44 10 0F 01 36 27 05 44  10 0F 01 37 27 05 45 10  D...6'.D...7'.E.
1810: 0F 01 2E 01 35 18 27 05  45 10 0F 01 2A 27 05 4A  ....5.'.E...*'.J
1820: 10 0F 01 35 27 05 4A 10  0F 01 36 1C 35 80 27 05  ...5'.J...6.5.'.
1830: 45 10 0F 01 2C 01 5D 18  27 03 4B 10 0F 01 1C 2A  E...,.].'.K....*
1840: 05 4B 10 0F 01 27 05 4B  10 0F 01 22 27 05 44 10  .K...'.K..."'.D.
1850: 0F 01 36 27 05 4B 10 0F  01 1E 1A 51 58 03 01 10  ..6'.K.....QX...
1860: 21 80 43 00 43 01 01 CD  1B 02 09 00 14 80 80 42  !.C.C..........B
1870: 19 02 04 00 14 80 80 B3  18 27 03 46 10 0F 01 14  .........'.F....
1880: 2A 05 46 10 0F 01 27 05  46 10 0F 01 15 02 02 00  *.F...'.F.......
1890: 1B 80 80 9F 18 27 05 44  10 0F 01 39 01 A6 18 27  .....'.D...9...'
18A0: 05 4A 10 0F 01 35 1A 37  58 27 05 46 10 0F 01 16  .J...5.7X'.F....
18B0: 01 36 19 02 04 00 1B 80  80 11 19 27 03 46 10 0F  .6.........'.F..
18C0: 01 14 2A 05 46 10 0F 01  02 02 00 14 80 80 EF 18  ..*.F...........
18D0: 27 05 46 10 0F 01 18 27  05 44 10 0F 01 36 27 05  '.F....'.D...6'.
18E0: 44 10 0F 01 37 27 05 46  10 0F 01 19 01 0E 19 27  D...7'.F.......'
18F0: 05 46 10 0F 01 15 27 05  4A 10 0F 01 35 27 05 4A  .F....'.J...5'.J
1900: 10 0F 01 36 1C 35 80 27  05 46 10 0F 01 17 01 36  ...6.5.'.F.....6
1910: 19 27 03 4C 10 0F 01 12  2A 05 4C 10 0F 01 27 05  .'.L....*.L...'.
1920: 4C 10 0F 01 18 27 05 44  10 0F 01 36 27 05 4C 10  L....'.D...6'.L.
1930: 0F 01 14 1A 51 58 03 01  10 24 80 43 00 43 01 01  ....QX...$.C.C..
1940: CD 1B 02 09 00 1B 80 80  1B 1A 02 05 00 14 80 80  ................
1950: 8C 19 27 03 47 10 0F 01  14 2A 05 47 10 0F 01 27  ..'.G....*.G...'
1960: 05 47 10 0F 01 15 02 02  00 1B 80 80 78 19 27 05  .G..........x.'.
1970: 44 10 0F 01 39 01 7F 19  27 05 4A 10 0F 01 35 1A  D...9...'.J...5.
1980: 37 58 27 05 47 10 0F 01  16 01 0F 1A 02 05 00 1B  7X'.G...........
1990: 80 80 EA 19 27 03 47 10  0F 01 14 2A 05 47 10 0F  ....'.G....*.G..
19A0: 01 02 02 00 14 80 80 C8  19 27 05 47 10 0F 01 18  .........'.G....
19B0: 27 05 44 10 0F 01 36 27  05 44 10 0F 01 37 27 05  '.D...6'.D...7'.
19C0: 47 10 0F 01 19 01 E7 19  27 05 47 10 0F 01 15 27  G.......'.G....'
19D0: 05 4A 10 0F 01 35 27 05  4A 10 0F 01 36 1C 35 80  .J...5'.J...6.5.
19E0: 27 05 47 10 0F 01 17 01  0F 1A 27 03 4D 10 0F 01  '.G.......'.M...
19F0: 12 2A 05 4D 10 0F 01 27  05 4D 10 0F 01 18 27 05  .*.M...'.M....'.
1A00: 44 10 0F 01 36 27 05 4D  10 0F 01 14 1A 51 58 03  D...6'.M.....QX.
1A10: 01 10 27 80 43 00 43 01  01 CD 1B 02 09 00 25 80  ..'.C.C.......%.
1A20: 80 F4 1A 02 06 00 14 80  80 65 1A 27 03 48 10 0F  .........e.'.H..
1A30: 01 12 2A 05 48 10 0F 01  27 05 48 10 0F 01 13 02  ..*.H...'.H.....
1A40: 02 00 1B 80 80 51 1A 27  05 44 10 0F 01 39 01 58  .....Q.'.D...9.X
1A50: 1A 27 05 4A 10 0F 01 35  1A 37 58 27 05 48 10 0F  .'.J...5.7X'.H..
1A60: 01 14 01 E8 1A 02 06 00  1B 80 80 C3 1A 27 03 48  .............'.H
1A70: 10 0F 01 12 2A 05 48 10  0F 01 02 02 00 14 80 80  ....*.H.........
1A80: A1 1A 27 05 48 10 0F 01  16 27 05 44 10 0F 01 36  ..'.H....'.D...6
1A90: 27 05 44 10 0F 01 37 27  05 48 10 0F 01 17 01 C0  '.D...7'.H......
1AA0: 1A 27 05 48 10 0F 01 13  27 05 4A 10 0F 01 35 27  .'.H....'.J...5'
1AB0: 05 4A 10 0F 01 36 1C 35  80 27 05 48 10 0F 01 15  .J...6.5.'.H....
1AC0: 01 E8 1A 27 03 4E 10 0F  01 11 2A 05 4E 10 0F 01  ...'.N....*.N...
1AD0: 27 05 4E 10 0F 01 17 27  05 44 10 0F 01 36 27 05  '.N....'.D...6'.
1AE0: 4E 10 0F 01 13 1A 51 58  03 01 10 2A 80 43 00 43  N.....QX...*.C.C
1AF0: 01 01 CD 1B 02 09 00 28  80 80 CD 1B 02 07 00 14  .......(........
1B00: 80 80 3E 1B 27 03 49 10  0F 01 07 2A 05 49 10 0F  ..>.'.I....*.I..
1B10: 01 27 05 49 10 0F 01 08  02 02 00 1B 80 80 2A 1B  .'.I..........*.
1B20: 27 05 44 10 0F 01 39 01  31 1B 27 05 4A 10 0F 01  '.D...9.1.'.J...
1B30: 35 1A 37 58 27 05 49 10  0F 01 09 01 C1 1B 02 07  5.7X'.I.........
1B40: 00 1B 80 80 9C 1B 27 03  49 10 0F 01 07 2A 05 49  ......'.I....*.I
1B50: 10 0F 01 02 02 00 14 80  80 7A 1B 27 05 49 10 0F  .........z.'.I..
1B60: 01 0B 27 05 44 10 0F 01  36 27 05 44 10 0F 01 37  ..'.D...6'.D...7
1B70: 27 05 49 10 0F 01 0C 01  99 1B 27 05 49 10 0F 01  '.I.......'.I...
1B80: 08 27 05 4A 10 0F 01 35  27 05 4A 10 0F 01 36 1C  .'.J...5'.J...6.
1B90: 35 80 27 05 49 10 0F 01  0A 01 C1 1B 27 03 4F 10  5.'.I.......'.O.
1BA0: 0F 01 06 2A 05 4F 10 0F  01 27 05 4F 10 0F 01 0C  ...*.O...'.O....
1BB0: 27 05 44 10 0F 01 36 27  05 4F 10 0F 01 08 1A 51  '.D...6'.O.....Q
1BC0: 58 03 01 10 2D 80 43 00  43 01 01 CD 1B 45 3A 80  X...-.C.C....E:.
1BD0: F8 FF FF 7F F8 FF FF 7F  73 31 39 31 09 80 1C 3B  ........s191...;
1BE0: 80 45 36 80 F8 FF FF 7F  F8 FF FF 7F 66 64 69 31  .E6.........fdi1
1BF0: 09 80 1C 85 80 02 02 10  03 10 00 05 1C 03 02 10  ................
1C00: 09 80 01 1A 1C 02 02 10  09 80 00 15 1C 03 02 10  ................
1C10: 09 80 01 1A 1C 03 02 10  09 00 1D 86 80 23 02 14  .............#..
1C20: 00 09 80 00 51 1C 02 02  00 14 80 80 37 1C 2A 05  ....Q.......7.*.
1C30: 44 10 0F 01 01 4E 1C 02  02 00 1B 80 80 48 1C 2A  D....N.......H.*
1C40: 05 44 10 0F 01 01 4E 1C  2A 05 4A 10 0F 01 1A C4  .D....N.*.J.....
1C50: 59 45 36 80 F8 FF FF 7F  F8 FF FF 7F 66 64 6F 31  YE6.........fdo1
1C60: 09 80 55 36 80 F8 FF FF  7F F8 FF FF 7F 66 64 6F  ..U6.........fdo
1C70: 31 52 3A 80 F8 FF FF 7F  F8 FF FF 7F 73 31 39 31  1R:.........s191
1C80: 02 14 00 0F 80 00 2D 1E  02 02 00 14 80 80 A0 1C  ......-.........
1C90: 27 03 44 10 0F 01 34 2A  05 44 10 0F 01 01 C5 1C  '.D...4*.D......
1CA0: 02 02 00 1B 80 80 B8 1C  27 03 44 10 0F 01 34 2A  ........'.D...4*
1CB0: 05 44 10 0F 01 01 C5 1C  27 03 4A 10 0F 01 32 2A  .D......'.J...2*
1CC0: 05 4A 10 0F 01 02 09 00  0F 80 80 0D 1D 02 03 00  .J..............
1CD0: 14 80 80 E5 1C 27 03 45  10 0F 01 29 2A 05 45 10  .....'.E...)*.E.
1CE0: 0F 01 01 0A 1D 02 03 00  1B 80 80 FD 1C 27 03 45  .............'.E
1CF0: 10 0F 01 29 2A 05 45 10  0F 01 01 0A 1D 27 03 4B  ...)*.E......'.K
1D00: 10 0F 01 1C 2A 05 4B 10  0F 01 01 2D 1E 02 09 00  ....*.K....-....
1D10: 14 80 80 55 1D 02 04 00  14 80 80 2D 1D 27 03 46  ...U.......-.'.F
1D20: 10 0F 01 14 2A 05 46 10  0F 01 01 52 1D 02 04 00  ....*.F....R....
1D30: 1B 80 80 45 1D 27 03 46  10 0F 01 14 2A 05 46 10  ...E.'.F....*.F.
1D40: 0F 01 01 52 1D 27 03 4C  10 0F 01 12 2A 05 4C 10  ...R.'.L....*.L.
1D50: 0F 01 01 2D 1E 02 09 00  1B 80 80 9D 1D 02 05 00  ...-............
1D60: 14 80 80 75 1D 27 03 47  10 0F 01 14 2A 05 47 10  ...u.'.G....*.G.
1D70: 0F 01 01 9A 1D 02 05 00  1B 80 80 8D 1D 27 03 47  .............'.G
1D80: 10 0F 01 14 2A 05 47 10  0F 01 01 9A 1D 27 03 4D  ....*.G......'.M
1D90: 10 0F 01 12 2A 05 4D 10  0F 01 01 2D 1E 02 09 00  ....*.M....-....
1DA0: 25 80 80 E5 1D 02 06 00  14 80 80 BD 1D 27 03 48  %............'.H
1DB0: 10 0F 01 12 2A 05 48 10  0F 01 01 E2 1D 02 06 00  ....*.H.........
1DC0: 1B 80 80 D5 1D 27 03 48  10 0F 01 12 2A 05 48 10  .....'.H....*.H.
1DD0: 0F 01 01 E2 1D 27 03 4E  10 0F 01 11 2A 05 4E 10  .....'.N....*.N.
1DE0: 0F 01 01 2D 1E 02 09 00  28 80 80 2D 1E 02 07 00  ...-....(..-....
1DF0: 14 80 80 05 1E 27 03 49  10 0F 01 07 2A 05 49 10  .....'.I....*.I.
1E00: 0F 01 01 2A 1E 02 07 00  1B 80 80 1D 1E 27 03 49  ...*.........'.I
1E10: 10 0F 01 07 2A 05 49 10  0F 01 01 2A 1E 27 03 4F  ....*.I....*.'.O
1E20: 10 0F 01 06 2A 05 4F 10  0F 01 01 2D 1E 02 13 00  ....*.O....-....
1E30: 0F 80 00 37 2F 02 09 00  0F 80 80 82 21 02 03 00  ...7/.......!...
1E40: 14 80 80 15 1F 27 03 45  10 0F 01 29 2A 05 45 10  .....'.E...)*.E.
1E50: 0F 01 27 05 45 10 0F 01  2A 02 02 00 1B 80 80 80  ..'.E...*.......
1E60: 1E 27 05 44 10 0F 01 39  1C 00 80 4A 45 10 0F 01  .'.D...9...JE...
1E70: 44 10 0F 01 4A 44 10 0F  01 45 10 0F 01 01 9C 1E  D...JD...E......
1E80: 27 05 4A 10 0F 01 35 1C  00 80 4A 45 10 0F 01 4A  '.J...5...JE...J
1E90: 10 0F 01 4A 4A 10 0F 01  45 10 0F 01 45 3A 80 F8  ...JJ...E...E:..
1EA0: FF FF 7F F8 FF FF 7F 73  31 39 32 09 80 1C 3B 80  .......s192...;.
1EB0: 45 36 80 F8 FF FF 7F F8  FF FF 7F 66 64 69 31 09  E6.........fdi1.
1EC0: 80 1C 3B 80 1A 79 58 5B  7D 80 45 10 0F 01 45 10  ..;..yX[}.E...E.
1ED0: 0F 01 68 69 30 39 1C 3B  80 5B 7E 80 45 10 0F 01  ..hi09.;.[~.E...
1EE0: 45 10 0F 01 31 30 30 35  1C 35 80 1A 79 58 1C 3B  E...1005.5..yX.;
1EF0: 80 5B 7D 80 45 10 0F 01  45 10 0F 01 68 69 30 37  .[}.E...E...hi07
1F00: 1C 28 80 5B 7E 80 45 10  0F 01 45 10 0F 01 31 30  .(.[~.E...E...10
1F10: 30 35 01 76 21 02 03 00  1B 80 80 DC 20 27 03 45  05.v!....... '.E
1F20: 10 0F 01 29 2A 05 45 10  0F 01 02 02 00 14 80 80  ...)*.E.........
1F30: 0A 20 27 05 44 10 0F 01  36 27 05 45 10 0F 01 2D  . '.D...6'.E...-
1F40: 1C 00 80 4A 45 10 0F 01  44 10 0F 01 4A 44 10 0F  ...JE...D...JD..
1F50: 01 45 10 0F 01 45 3A 80  F8 FF FF 7F F8 FF FF 7F  .E...E:.........
1F60: 73 32 30 38 09 80 1C 3B  80 45 36 80 F8 FF FF 7F  s208...;.E6.....
1F70: F8 FF FF 7F 66 64 69 31  09 80 1C 3B 80 5B 87 80  ....fdi1...;.[..
1F80: 45 10 0F 01 45 10 0F 01  6A 6F 79 30 1C 3B 80 5B  E...E...joy0.;.[
1F90: 7E 80 45 10 0F 01 45 10  0F 01 31 30 30 38 5B 7D  ~.E...E...1008[}
1FA0: 80 44 10 0F 01 44 10 0F  01 68 69 30 39 1C 3B 80  .D...D...hi09.;.
1FB0: 5B 7E 80 44 10 0F 01 44  10 0F 01 31 30 30 35 1C  [~.D...D...1005.
1FC0: 88 80 5B 87 80 45 10 0F  01 45 10 0F 01 6A 6F 79  ..[..E...E...joy
1FD0: 30 1C 3B 80 5B 7E 80 45  10 0F 01 45 10 0F 01 31  0.;.[~.E...E...1
1FE0: 30 30 38 1C 3B 80 5B 7D  80 44 10 0F 01 44 10 0F  008.;.[}.D...D..
1FF0: 01 68 69 30 37 1C 28 80  5B 7E 80 44 10 0F 01 44  .hi07.(.[~.D...D
2000: 10 0F 01 31 30 30 35 01  D9 20 27 05 45 10 0F 01  ...1005.. '.E...
2010: 2A 27 05 4A 10 0F 01 35  1C 00 80 4A 45 10 0F 01  *'.J...5...JE...
2020: 4A 10 0F 01 4A 4A 10 0F  01 45 10 0F 01 45 3A 80  J...JJ...E...E:.
2030: F8 FF FF 7F F8 FF FF 7F  73 31 39 32 09 80 1C 3B  ........s192...;
2040: 80 45 36 80 F8 FF FF 7F  F8 FF FF 7F 66 64 69 31  .E6.........fdi1
2050: 09 80 1C 3B 80 5B 82 80  4A 10 0F 01 4A 10 0F 01  ...;.[..J...J...
2060: 6A 6F 79 30 5B 7E 80 4A  10 0F 01 4A 10 0F 01 31  joy0[~.J...J...1
2070: 30 31 31 1C 35 80 5B 80  80 45 10 0F 01 45 10 0F  011.5.[..E...E..
2080: 01 6B 75 65 30 1C 3B 80  5B 7E 80 45 10 0F 01 45  .kue0.;.[~.E...E
2090: 10 0F 01 31 30 30 39 5B  82 80 4A 10 0F 01 4A 10  ...1009[..J...J.
20A0: 0F 01 6A 6F 79 30 5B 7E  80 4A 10 0F 01 4A 10 0F  ..joy0[~.J...J..
20B0: 01 31 30 31 31 1C 35 80  5B 87 80 45 10 0F 01 45  .1011.5.[..E...E
20C0: 10 0F 01 6A 6F 79 30 1C  3B 80 5B 7E 80 45 10 0F  ...joy0.;.[~.E..
20D0: 01 45 10 0F 01 31 30 30  38 01 76 21 27 03 4B 10  .E...1008.v!'.K.
20E0: 0F 01 1C 2A 05 4B 10 0F  01 27 05 4B 10 0F 01 22  ...*.K...'.K..."
20F0: 27 05 44 10 0F 01 36 1C  00 80 4A 4B 10 0F 01 44  '.D...6...JK...D
2100: 10 0F 01 4A 44 10 0F 01  4B 10 0F 01 45 3A 80 F8  ...JD...K...E:..
2110: FF FF 7F F8 FF FF 7F 73  31 39 32 09 80 1C 60 80  .......s192...`.
2120: 45 36 80 F8 FF FF 7F F8  FF FF 7F 66 64 69 31 09  E6.........fdi1.
2130: 80 1C 3B 80 5B 82 80 4B  10 0F 01 4B 10 0F 01 6A  ..;.[..K...K...j
2140: 6F 79 30 5B 7E 80 4B 10  0F 01 4B 10 0F 01 31 30  oy0[~.K...K...10
2150: 31 31 1A C7 58 5B 82 80  4B 10 0F 01 4B 10 0F 01  11..X[..K...K...
2160: 6A 6F 79 30 5B 7E 80 4B  10 0F 01 4B 10 0F 01 31  joy0[~.K...K...1
2170: 30 31 31 1A 23 59 03 01  10 21 80 43 00 43 01 01  011.#Y...!.C.C..
2180: C2 2E 02 09 00 14 80 80  D2 24 02 04 00 14 80 80  .........$......
2190: 65 22 27 03 46 10 0F 01  14 2A 05 46 10 0F 01 27  e"'.F....*.F...'
21A0: 05 46 10 0F 01 15 02 02  00 1B 80 80 CD 21 27 05  .F...........!'.
21B0: 44 10 0F 01 39 1C 00 80  4A 46 10 0F 01 44 10 0F  D...9...JF...D..
21C0: 01 4A 44 10 0F 01 46 10  0F 01 01 E9 21 27 05 4A  .JD...F.....!'.J
21D0: 10 0F 01 35 1C 00 80 4A  46 10 0F 01 4A 10 0F 01  ...5...JF...J...
21E0: 4A 4A 10 0F 01 46 10 0F  01 45 3A 80 F8 FF FF 7F  JJ...F...E:.....
21F0: F8 FF FF 7F 73 31 39 32  09 80 1C 60 80 45 36 80  ....s192...`.E6.
2200: F8 FF FF 7F F8 FF FF 7F  66 64 69 31 09 80 1C 3B  ........fdi1...;
2210: 80 1A 79 58 5B 7D 80 46  10 0F 01 46 10 0F 01 68  ..yX[}.F...F...h
2220: 69 30 39 1C 3B 80 5B 7E  80 46 10 0F 01 46 10 0F  i09.;.[~.F...F..
2230: 01 31 30 30 35 1C 35 80  1A 79 58 1C 3B 80 5B 7D  .1005.5..yX.;.[}
2240: 80 46 10 0F 01 46 10 0F  01 68 69 30 37 1C 28 80  .F...F...hi07.(.
2250: 5B 7E 80 46 10 0F 01 46  10 0F 01 31 30 30 35 1A  [~.F...F...1005.
2260: 79 58 01 C6 24 02 04 00  1B 80 80 2C 24 27 03 46  yX..$......,$'.F
2270: 10 0F 01 14 2A 05 46 10  0F 01 02 02 00 14 80 80  ....*.F.........
2280: 5A 23 27 05 46 10 0F 01  18 27 05 44 10 0F 01 36  Z#'.F....'.D...6
2290: 1C 00 80 4A 46 10 0F 01  44 10 0F 01 4A 44 10 0F  ...JF...D...JD..
22A0: 01 46 10 0F 01 45 3A 80  F8 FF FF 7F F8 FF FF 7F  .F...E:.........
22B0: 73 32 30 38 09 80 1C 60  80 45 36 80 F8 FF FF 7F  s208...`.E6.....
22C0: F8 FF FF 7F 66 64 69 31  09 80 1C 3B 80 5B 87 80  ....fdi1...;.[..
22D0: 46 10 0F 01 46 10 0F 01  6A 6F 79 30 1C 3B 80 5B  F...F...joy0.;.[
22E0: 7E 80 46 10 0F 01 46 10  0F 01 31 30 30 38 5B 7D  ~.F...F...1008[}
22F0: 80 44 10 0F 01 44 10 0F  01 68 69 30 39 1C 3B 80  .D...D...hi09.;.
2300: 5B 7E 80 44 10 0F 01 44  10 0F 01 31 30 30 35 1C  [~.D...D...1005.
2310: 88 80 5B 87 80 46 10 0F  01 46 10 0F 01 6A 6F 79  ..[..F...F...joy
2320: 30 1C 3B 80 5B 7E 80 46  10 0F 01 46 10 0F 01 31  0.;.[~.F...F...1
2330: 30 30 38 1C 3B 80 5B 7D  80 44 10 0F 01 44 10 0F  008.;.[}.D...D..
2340: 01 68 69 30 37 1C 28 80  5B 7E 80 44 10 0F 01 44  .hi07.(.[~.D...D
2350: 10 0F 01 31 30 30 35 01  29 24 27 05 46 10 0F 01  ...1005.)$'.F...
2360: 15 27 05 4A 10 0F 01 35  1C 00 80 4A 46 10 0F 01  .'.J...5...JF...
2370: 4A 10 0F 01 4A 4A 10 0F  01 46 10 0F 01 45 3A 80  J...JJ...F...E:.
2380: F8 FF FF 7F F8 FF FF 7F  73 31 39 32 09 80 1C 60  ........s192...`
2390: 80 45 36 80 F8 FF FF 7F  F8 FF FF 7F 66 64 69 31  .E6.........fdi1
23A0: 09 80 1C 3B 80 5B 82 80  4A 10 0F 01 4A 10 0F 01  ...;.[..J...J...
23B0: 6A 6F 79 30 5B 7E 80 4A  10 0F 01 4A 10 0F 01 31  joy0[~.J...J...1
23C0: 30 31 31 1C 35 80 5B 80  80 46 10 0F 01 46 10 0F  011.5.[..F...F..
23D0: 01 6B 75 65 30 1C 3B 80  5B 7E 80 46 10 0F 01 46  .kue0.;.[~.F...F
23E0: 10 0F 01 31 30 30 39 5B  82 80 4A 10 0F 01 4A 10  ...1009[..J...J.
23F0: 0F 01 6A 6F 79 30 5B 7E  80 4A 10 0F 01 4A 10 0F  ..joy0[~.J...J..
2400: 01 31 30 31 31 1C 35 80  5B 87 80 46 10 0F 01 46  .1011.5.[..F...F
2410: 10 0F 01 6A 6F 79 30 1C  3B 80 5B 7E 80 46 10 0F  ...joy0.;.[~.F..
2420: 01 46 10 0F 01 31 30 30  38 01 C6 24 27 03 4C 10  .F...1008..$'.L.
2430: 0F 01 12 2A 05 4C 10 0F  01 27 05 4C 10 0F 01 18  ...*.L...'.L....
2440: 27 05 44 10 0F 01 36 1C  00 80 4A 4C 10 0F 01 44  '.D...6...JL...D
2450: 10 0F 01 4A 44 10 0F 01  4C 10 0F 01 45 3A 80 F8  ...JD...L...E:..
2460: FF FF 7F F8 FF FF 7F 73  31 39 32 09 80 1C 60 80  .......s192...`.
2470: 45 36 80 F8 FF FF 7F F8  FF FF 7F 66 64 69 31 09  E6.........fdi1.
2480: 80 1C 3B 80 5B 82 80 4C  10 0F 01 4C 10 0F 01 6A  ..;.[..L...L...j
2490: 6F 79 30 5B 7E 80 4C 10  0F 01 4C 10 0F 01 31 30  oy0[~.L...L...10
24A0: 31 31 1A C7 58 5B 82 80  4C 10 0F 01 4C 10 0F 01  11..X[..L...L...
24B0: 6A 6F 79 30 5B 7E 80 4C  10 0F 01 4C 10 0F 01 31  joy0[~.L...L...1
24C0: 30 31 31 1A 23 59 03 01  10 24 80 43 00 43 01 01  011.#Y...$.C.C..
24D0: C2 2E 02 09 00 1B 80 80  22 28 02 05 00 14 80 80  ........"(......
24E0: B5 25 27 03 47 10 0F 01  14 2A 05 47 10 0F 01 27  .%'.G....*.G...'
24F0: 05 47 10 0F 01 15 02 02  00 1B 80 80 1D 25 27 05  .G...........%'.
2500: 44 10 0F 01 39 1C 00 80  4A 47 10 0F 01 44 10 0F  D...9...JG...D..
2510: 01 4A 44 10 0F 01 47 10  0F 01 01 39 25 27 05 4A  .JD...G....9%'.J
2520: 10 0F 01 35 1C 00 80 4A  47 10 0F 01 4A 10 0F 01  ...5...JG...J...
2530: 4A 4A 10 0F 01 47 10 0F  01 45 3A 80 F8 FF FF 7F  JJ...G...E:.....
2540: F8 FF FF 7F 73 31 39 32  09 80 1C 60 80 45 36 80  ....s192...`.E6.
2550: F8 FF FF 7F F8 FF FF 7F  66 64 69 31 09 80 1C 3B  ........fdi1...;
2560: 80 1A 79 58 5B 7D 80 47  10 0F 01 47 10 0F 01 68  ..yX[}.G...G...h
2570: 69 30 39 1C 3B 80 5B 7E  80 47 10 0F 01 47 10 0F  i09.;.[~.G...G..
2580: 01 31 30 30 35 1C 35 80  1A 79 58 1C 3B 80 5B 7D  .1005.5..yX.;.[}
2590: 80 47 10 0F 01 47 10 0F  01 68 69 30 37 1C 28 80  .G...G...hi07.(.
25A0: 5B 7E 80 47 10 0F 01 47  10 0F 01 31 30 30 35 1A  [~.G...G...1005.
25B0: 79 58 01 16 28 02 05 00  1B 80 80 7C 27 27 03 47  yX..(......|''.G
25C0: 10 0F 01 14 2A 05 47 10  0F 01 02 02 00 14 80 80  ....*.G.........
25D0: AA 26 27 05 47 10 0F 01  18 27 05 44 10 0F 01 36  .&'.G....'.D...6
25E0: 1C 00 80 4A 47 10 0F 01  44 10 0F 01 4A 44 10 0F  ...JG...D...JD..
25F0: 01 47 10 0F 01 45 3A 80  F8 FF FF 7F F8 FF FF 7F  .G...E:.........
2600: 73 32 30 38 09 80 1C 60  80 45 36 80 F8 FF FF 7F  s208...`.E6.....
2610: F8 FF FF 7F 66 64 69 31  09 80 1C 3B 80 5B 87 80  ....fdi1...;.[..
2620: 47 10 0F 01 47 10 0F 01  6A 6F 79 30 1C 3B 80 5B  G...G...joy0.;.[
2630: 7E 80 47 10 0F 01 47 10  0F 01 31 30 30 38 5B 7D  ~.G...G...1008[}
2640: 80 44 10 0F 01 44 10 0F  01 68 69 30 39 1C 3B 80  .D...D...hi09.;.
2650: 5B 7E 80 44 10 0F 01 44  10 0F 01 31 30 30 35 1C  [~.D...D...1005.
2660: 88 80 5B 87 80 47 10 0F  01 47 10 0F 01 6A 6F 79  ..[..G...G...joy
2670: 30 1C 3B 80 5B 7E 80 47  10 0F 01 47 10 0F 01 31  0.;.[~.G...G...1
2680: 30 30 38 1C 3B 80 5B 7D  80 44 10 0F 01 44 10 0F  008.;.[}.D...D..
2690: 01 68 69 30 37 1C 28 80  5B 7E 80 44 10 0F 01 44  .hi07.(.[~.D...D
26A0: 10 0F 01 31 30 30 35 01  79 27 27 05 47 10 0F 01  ...1005.y''.G...
26B0: 15 27 05 4A 10 0F 01 35  1C 00 80 4A 47 10 0F 01  .'.J...5...JG...
26C0: 4A 10 0F 01 4A 4A 10 0F  01 47 10 0F 01 45 3A 80  J...JJ...G...E:.
26D0: F8 FF FF 7F F8 FF FF 7F  73 31 39 32 09 80 1C 60  ........s192...`
26E0: 80 45 36 80 F8 FF FF 7F  F8 FF FF 7F 66 64 69 31  .E6.........fdi1
26F0: 09 80 1C 3B 80 5B 82 80  4A 10 0F 01 4A 10 0F 01  ...;.[..J...J...
2700: 6A 6F 79 30 5B 7E 80 4A  10 0F 01 4A 10 0F 01 31  joy0[~.J...J...1
2710: 30 31 31 1C 35 80 5B 80  80 47 10 0F 01 47 10 0F  011.5.[..G...G..
2720: 01 6B 75 65 30 1C 3B 80  5B 7E 80 47 10 0F 01 47  .kue0.;.[~.G...G
2730: 10 0F 01 31 30 30 39 5B  82 80 4A 10 0F 01 4A 10  ...1009[..J...J.
2740: 0F 01 6A 6F 79 30 5B 7E  80 4A 10 0F 01 4A 10 0F  ..joy0[~.J...J..
2750: 01 31 30 31 31 1C 35 80  5B 87 80 47 10 0F 01 47  .1011.5.[..G...G
2760: 10 0F 01 6A 6F 79 30 1C  3B 80 5B 7E 80 47 10 0F  ...joy0.;.[~.G..
2770: 01 47 10 0F 01 31 30 30  38 01 16 28 27 03 4D 10  .G...1008..('.M.
2780: 0F 01 12 2A 05 4D 10 0F  01 27 05 4D 10 0F 01 18  ...*.M...'.M....
2790: 27 05 44 10 0F 01 36 1C  00 80 4A 4D 10 0F 01 44  '.D...6...JM...D
27A0: 10 0F 01 4A 44 10 0F 01  4D 10 0F 01 45 3A 80 F8  ...JD...M...E:..
27B0: FF FF 7F F8 FF FF 7F 73  31 39 32 09 80 1C 60 80  .......s192...`.
27C0: 45 36 80 F8 FF FF 7F F8  FF FF 7F 66 64 69 31 09  E6.........fdi1.
27D0: 80 1C 3B 80 5B 82 80 4D  10 0F 01 4D 10 0F 01 6A  ..;.[..M...M...j
27E0: 6F 79 30 5B 7E 80 4D 10  0F 01 4D 10 0F 01 31 30  oy0[~.M...M...10
27F0: 31 31 1A C7 58 5B 82 80  4D 10 0F 01 4D 10 0F 01  11..X[..M...M...
2800: 6A 6F 79 30 5B 7E 80 4D  10 0F 01 4D 10 0F 01 31  joy0[~.M...M...1
2810: 30 31 31 1A 23 59 03 01  10 27 80 43 00 43 01 01  011.#Y...'.C.C..
2820: C2 2E 02 09 00 25 80 80  72 2B 02 06 00 14 80 80  .....%..r+......
2830: 05 29 27 03 48 10 0F 01  12 2A 05 48 10 0F 01 27  .)'.H....*.H...'
2840: 05 48 10 0F 01 13 02 02  00 1B 80 80 6D 28 27 05  .H..........m('.
2850: 44 10 0F 01 39 1C 00 80  4A 48 10 0F 01 44 10 0F  D...9...JH...D..
2860: 01 4A 44 10 0F 01 48 10  0F 01 01 89 28 27 05 4A  .JD...H.....('.J
2870: 10 0F 01 35 1C 00 80 4A  48 10 0F 01 4A 10 0F 01  ...5...JH...J...
2880: 4A 4A 10 0F 01 48 10 0F  01 45 3A 80 F8 FF FF 7F  JJ...H...E:.....
2890: F8 FF FF 7F 73 31 39 32  09 80 1C 60 80 45 36 80  ....s192...`.E6.
28A0: F8 FF FF 7F F8 FF FF 7F  66 64 69 31 09 80 1C 3B  ........fdi1...;
28B0: 80 1A 79 58 5B 7D 80 48  10 0F 01 48 10 0F 01 68  ..yX[}.H...H...h
28C0: 69 30 39 1C 3B 80 5B 7E  80 48 10 0F 01 48 10 0F  i09.;.[~.H...H..
28D0: 01 31 30 30 35 1C 35 80  1A 79 58 1C 3B 80 5B 7D  .1005.5..yX.;.[}
28E0: 80 48 10 0F 01 48 10 0F  01 68 69 30 37 1C 28 80  .H...H...hi07.(.
28F0: 5B 7E 80 48 10 0F 01 48  10 0F 01 31 30 30 35 1A  [~.H...H...1005.
2900: 79 58 01 66 2B 02 06 00  1B 80 80 CC 2A 27 03 48  yX.f+.......*'.H
2910: 10 0F 01 12 2A 05 48 10  0F 01 02 02 00 14 80 80  ....*.H.........
2920: FA 29 27 05 48 10 0F 01  16 27 05 44 10 0F 01 36  .)'.H....'.D...6
2930: 1C 00 80 4A 48 10 0F 01  44 10 0F 01 4A 44 10 0F  ...JH...D...JD..
2940: 01 48 10 0F 01 45 3A 80  F8 FF FF 7F F8 FF FF 7F  .H...E:.........
2950: 73 32 30 38 09 80 1C 60  80 45 36 80 F8 FF FF 7F  s208...`.E6.....
2960: F8 FF FF 7F 66 64 69 31  09 80 1C 3B 80 5B 87 80  ....fdi1...;.[..
2970: 48 10 0F 01 48 10 0F 01  6A 6F 79 30 1C 3B 80 5B  H...H...joy0.;.[
2980: 7E 80 48 10 0F 01 48 10  0F 01 31 30 30 38 5B 7D  ~.H...H...1008[}
2990: 80 44 10 0F 01 44 10 0F  01 68 69 30 39 1C 3B 80  .D...D...hi09.;.
29A0: 5B 7E 80 44 10 0F 01 44  10 0F 01 31 30 30 35 1C  [~.D...D...1005.
29B0: 88 80 5B 87 80 48 10 0F  01 48 10 0F 01 6A 6F 79  ..[..H...H...joy
29C0: 30 1C 3B 80 5B 7E 80 48  10 0F 01 48 10 0F 01 31  0.;.[~.H...H...1
29D0: 30 30 38 1C 3B 80 5B 7D  80 44 10 0F 01 44 10 0F  008.;.[}.D...D..
29E0: 01 68 69 30 37 1C 28 80  5B 7E 80 44 10 0F 01 44  .hi07.(.[~.D...D
29F0: 10 0F 01 31 30 30 35 01  C9 2A 27 05 48 10 0F 01  ...1005..*'.H...
2A00: 13 27 05 4A 10 0F 01 35  1C 00 80 4A 48 10 0F 01  .'.J...5...JH...
2A10: 4A 10 0F 01 4A 4A 10 0F  01 48 10 0F 01 45 3A 80  J...JJ...H...E:.
2A20: F8 FF FF 7F F8 FF FF 7F  73 31 39 32 09 80 1C 60  ........s192...`
2A30: 80 45 36 80 F8 FF FF 7F  F8 FF FF 7F 66 64 69 31  .E6.........fdi1
2A40: 09 80 1C 3B 80 5B 82 80  4A 10 0F 01 4A 10 0F 01  ...;.[..J...J...
2A50: 6A 6F 79 30 5B 7E 80 4A  10 0F 01 4A 10 0F 01 31  joy0[~.J...J...1
2A60: 30 31 31 1C 35 80 5B 80  80 48 10 0F 01 48 10 0F  011.5.[..H...H..
2A70: 01 6B 75 65 30 1C 3B 80  5B 7E 80 48 10 0F 01 48  .kue0.;.[~.H...H
2A80: 10 0F 01 31 30 30 39 5B  82 80 4A 10 0F 01 4A 10  ...1009[..J...J.
2A90: 0F 01 6A 6F 79 30 5B 7E  80 4A 10 0F 01 4A 10 0F  ..joy0[~.J...J..
2AA0: 01 31 30 31 31 1C 35 80  5B 87 80 48 10 0F 01 48  .1011.5.[..H...H
2AB0: 10 0F 01 6A 6F 79 30 1C  3B 80 5B 7E 80 48 10 0F  ...joy0.;.[~.H..
2AC0: 01 48 10 0F 01 31 30 30  38 01 66 2B 27 03 4E 10  .H...1008.f+'.N.
2AD0: 0F 01 11 2A 05 4E 10 0F  01 27 05 4E 10 0F 01 17  ...*.N...'.N....
2AE0: 27 05 44 10 0F 01 36 1C  00 80 4A 4E 10 0F 01 44  '.D...6...JN...D
2AF0: 10 0F 01 4A 44 10 0F 01  4E 10 0F 01 45 3A 80 F8  ...JD...N...E:..
2B00: FF FF 7F F8 FF FF 7F 73  31 39 32 09 80 1C 60 80  .......s192...`.
2B10: 45 36 80 F8 FF FF 7F F8  FF FF 7F 66 64 69 31 09  E6.........fdi1.
2B20: 80 1C 3B 80 5B 82 80 4E  10 0F 01 4E 10 0F 01 6A  ..;.[..N...N...j
2B30: 6F 79 30 5B 7E 80 4E 10  0F 01 4E 10 0F 01 31 30  oy0[~.N...N...10
2B40: 31 31 1A C7 58 5B 82 80  4E 10 0F 01 4E 10 0F 01  11..X[..N...N...
2B50: 6A 6F 79 30 5B 7E 80 4E  10 0F 01 4E 10 0F 01 31  joy0[~.N...N...1
2B60: 30 31 31 1A 23 59 03 01  10 2A 80 43 00 43 01 01  011.#Y...*.C.C..
2B70: C2 2E 02 09 00 28 80 80  C2 2E 02 07 00 14 80 80  .....(..........
2B80: 55 2C 27 03 49 10 0F 01  07 2A 05 49 10 0F 01 27  U,'.I....*.I...'
2B90: 05 49 10 0F 01 08 02 02  00 1B 80 80 BD 2B 27 05  .I...........+'.
2BA0: 44 10 0F 01 39 1C 00 80  4A 49 10 0F 01 44 10 0F  D...9...JI...D..
2BB0: 01 4A 44 10 0F 01 49 10  0F 01 01 D9 2B 27 05 4A  .JD...I.....+'.J
2BC0: 10 0F 01 35 1C 00 80 4A  49 10 0F 01 4A 10 0F 01  ...5...JI...J...
2BD0: 4A 4A 10 0F 01 49 10 0F  01 45 3A 80 F8 FF FF 7F  JJ...I...E:.....
2BE0: F8 FF FF 7F 73 31 39 32  09 80 1C 60 80 45 36 80  ....s192...`.E6.
2BF0: F8 FF FF 7F F8 FF FF 7F  66 64 69 31 09 80 1C 3B  ........fdi1...;
2C00: 80 1A 79 58 5B 7D 80 49  10 0F 01 49 10 0F 01 68  ..yX[}.I...I...h
2C10: 69 30 39 1C 3B 80 5B 7E  80 49 10 0F 01 49 10 0F  i09.;.[~.I...I..
2C20: 01 31 30 30 35 1C 35 80  1A 79 58 1C 3B 80 5B 7D  .1005.5..yX.;.[}
2C30: 80 49 10 0F 01 49 10 0F  01 68 69 30 37 1C 28 80  .I...I...hi07.(.
2C40: 5B 7E 80 49 10 0F 01 49  10 0F 01 31 30 30 35 1A  [~.I...I...1005.
2C50: 79 58 01 B6 2E 02 07 00  1B 80 80 1C 2E 27 03 49  yX...........'.I
2C60: 10 0F 01 07 2A 05 49 10  0F 01 02 02 00 14 80 80  ....*.I.........
2C70: 4A 2D 27 05 49 10 0F 01  0B 27 05 44 10 0F 01 36  J-'.I....'.D...6
2C80: 1C 00 80 4A 49 10 0F 01  44 10 0F 01 4A 44 10 0F  ...JI...D...JD..
2C90: 01 49 10 0F 01 45 3A 80  F8 FF FF 7F F8 FF FF 7F  .I...E:.........
2CA0: 73 32 30 38 09 80 1C 60  80 45 36 80 F8 FF FF 7F  s208...`.E6.....
2CB0: F8 FF FF 7F 66 64 69 31  09 80 1C 3B 80 5B 87 80  ....fdi1...;.[..
2CC0: 49 10 0F 01 49 10 0F 01  6A 6F 79 30 1C 3B 80 5B  I...I...joy0.;.[
2CD0: 7E 80 49 10 0F 01 49 10  0F 01 31 30 30 38 5B 7D  ~.I...I...1008[}
2CE0: 80 44 10 0F 01 44 10 0F  01 68 69 30 39 1C 3B 80  .D...D...hi09.;.
2CF0: 5B 7E 80 44 10 0F 01 44  10 0F 01 31 30 30 35 1C  [~.D...D...1005.
2D00: 88 80 5B 87 80 49 10 0F  01 49 10 0F 01 6A 6F 79  ..[..I...I...joy
2D10: 30 1C 3B 80 5B 7E 80 49  10 0F 01 49 10 0F 01 31  0.;.[~.I...I...1
2D20: 30 30 38 1C 3B 80 5B 7D  80 44 10 0F 01 44 10 0F  008.;.[}.D...D..
2D30: 01 68 69 30 37 1C 28 80  5B 7E 80 44 10 0F 01 44  .hi07.(.[~.D...D
2D40: 10 0F 01 31 30 30 35 01  19 2E 27 05 49 10 0F 01  ...1005...'.I...
2D50: 08 27 05 4A 10 0F 01 35  1C 00 80 4A 49 10 0F 01  .'.J...5...JI...
2D60: 4A 10 0F 01 4A 4A 10 0F  01 49 10 0F 01 45 3A 80  J...JJ...I...E:.
2D70: F8 FF FF 7F F8 FF FF 7F  73 31 39 32 09 80 1C 60  ........s192...`
2D80: 80 45 36 80 F8 FF FF 7F  F8 FF FF 7F 66 64 69 31  .E6.........fdi1
2D90: 09 80 1C 3B 80 5B 82 80  4A 10 0F 01 4A 10 0F 01  ...;.[..J...J...
2DA0: 6A 6F 79 30 5B 7E 80 4A  10 0F 01 4A 10 0F 01 31  joy0[~.J...J...1
2DB0: 30 31 31 1C 35 80 5B 80  80 49 10 0F 01 49 10 0F  011.5.[..I...I..
2DC0: 01 6B 75 65 30 1C 3B 80  5B 7E 80 49 10 0F 01 49  .kue0.;.[~.I...I
2DD0: 10 0F 01 31 30 30 39 5B  82 80 4A 10 0F 01 4A 10  ...1009[..J...J.
2DE0: 0F 01 6A 6F 79 30 5B 7E  80 4A 10 0F 01 4A 10 0F  ..joy0[~.J...J..
2DF0: 01 31 30 31 31 1C 35 80  5B 87 80 49 10 0F 01 49  .1011.5.[..I...I
2E00: 10 0F 01 6A 6F 79 30 1C  3B 80 5B 7E 80 49 10 0F  ...joy0.;.[~.I..
2E10: 01 49 10 0F 01 31 30 30  38 01 B6 2E 27 03 4F 10  .I...1008...'.O.
2E20: 0F 01 06 2A 05 4F 10 0F  01 27 05 4F 10 0F 01 0C  ...*.O...'.O....
2E30: 27 05 44 10 0F 01 36 1C  00 80 4A 4F 10 0F 01 44  '.D...6...JO...D
2E40: 10 0F 01 4A 44 10 0F 01  4F 10 0F 01 45 3A 80 F8  ...JD...O...E:..
2E50: FF FF 7F F8 FF FF 7F 73  31 39 32 09 80 1C 60 80  .......s192...`.
2E60: 45 36 80 F8 FF FF 7F F8  FF FF 7F 66 64 69 31 09  E6.........fdi1.
2E70: 80 1C 3B 80 5B 82 80 4F  10 0F 01 4F 10 0F 01 6A  ..;.[..O...O...j
2E80: 6F 79 30 5B 7E 80 4F 10  0F 01 4F 10 0F 01 31 30  oy0[~.O...O...10
2E90: 31 31 1A C7 58 5B 82 80  4F 10 0F 01 4F 10 0F 01  11..X[..O...O...
2EA0: 6A 6F 79 30 5B 7E 80 4F  10 0F 01 4F 10 0F 01 31  joy0[~.O...O...1
2EB0: 30 31 31 1A 23 59 03 01  10 2D 80 43 00 43 01 01  011.#Y...-.C.C..
2EC0: C2 2E 1C 85 80 02 02 10  03 10 00 D5 2E 03 02 10  ................
2ED0: 09 80 01 EA 2E 02 02 10  09 80 00 E5 2E 03 02 10  ................
2EE0: 09 80 01 EA 2E 03 02 10  09 00 1D 86 80 23 02 14  .............#..
2EF0: 00 09 80 00 F9 2E 1A C4  59 45 36 80 F8 FF FF 7F  ........YE6.....
2F00: F8 FF FF 7F 66 64 6F 31  09 80 55 36 80 F8 FF FF  ....fdo1..U6....
2F10: 7F F8 FF FF 7F 66 64 6F  31 52 3A 80 F8 FF FF 7F  .....fdo1R:.....
2F20: F8 FF FF 7F 73 31 39 32  52 3A 80 F8 FF FF 7F F8  ....s192R:......
2F30: FF FF 7F 73 32 30 38 02  13 00 14 80 00 7C 3A 02  ...s208......|:.
2F40: 09 00 0F 80 80 15 31 02  03 00 14 80 80 DB 2F 27  ......1......./'
2F50: 03 45 10 0F 01 29 2A 05  45 10 0F 01 27 05 45 10  .E...)*.E...'.E.
2F60: 0F 01 2A 02 02 00 1B 80  80 8A 2F 27 05 44 10 0F  ..*......./'.D..
2F70: 01 39 1C 00 80 4A 44 10  0F 01 45 10 0F 01 4A 45  .9...JD...E...JE
2F80: 10 0F 01 44 10 0F 01 01  A6 2F 27 05 4A 10 0F 01  ...D...../'.J...
2F90: 35 1C 00 80 4A 4A 10 0F  01 45 10 0F 01 4A 45 10  5...JJ...E...JE.
2FA0: 0F 01 4A 10 0F 01 45 3A  80 F8 FF FF 7F F8 FF FF  ..J...E:........
2FB0: 7F 73 32 30 30 09 80 1C  3B 80 45 36 80 F8 FF FF  .s200...;.E6....
2FC0: 7F F8 FF FF 7F 66 64 69  31 09 80 1C 3B 80 27 05  .....fdi1...;.'.
2FD0: 45 10 0F 01 2F 1A 82 59  01 09 31 02 03 00 1B 80  E.../..Y..1.....
2FE0: 80 AD 30 27 03 45 10 0F  01 29 2A 05 45 10 0F 01  ..0'.E...)*.E...
2FF0: 02 02 00 14 80 80 4E 30  27 05 45 10 0F 01 2D 27  ......N0'.E...-'
3000: 05 44 10 0F 01 36 1C 00  80 4A 44 10 0F 01 45 10  .D...6...JD...E.
3010: 0F 01 45 3A 80 F8 FF FF  7F F8 FF FF 7F 73 32 30  ..E:.........s20
3020: 30 09 80 1C 3B 80 45 36  80 F8 FF FF 7F F8 FF FF  0...;.E6........
3030: 7F 66 64 69 31 09 80 1C  3B 80 27 05 44 10 0F 01  .fdi1...;.'.D...
3040: 3B 1C 3B 80 27 05 45 10  0F 01 31 01 AA 30 27 05  ;.;.'.E...1..0'.
3050: 45 10 0F 01 2A 27 05 4A  10 0F 01 35 1C 00 80 4A  E...*'.J...5...J
3060: 4A 10 0F 01 45 10 0F 01  4A 45 10 0F 01 4A 10 0F  J...E...JE...J..
3070: 01 45 3A 80 F8 FF FF 7F  F8 FF FF 7F 73 32 30 30  .E:.........s200
3080: 09 80 1C 3B 80 45 36 80  F8 FF FF 7F F8 FF FF 7F  ...;.E6.........
3090: 66 64 69 31 09 80 1C 3B  80 27 05 45 10 0F 01 30  fdi1...;.'.E...0
30A0: 1C 35 80 27 05 4A 10 0F  01 37 01 09 31 27 03 4B  .5.'.J...7..1'.K
30B0: 10 0F 01 1C 2A 05 4B 10  0F 01 27 05 4B 10 0F 01  ....*.K...'.K...
30C0: 22 27 05 44 10 0F 01 36  1C 00 80 4A 44 10 0F 01  "'.D...6...JD...
30D0: 4B 10 0F 01 45 3A 80 F8  FF FF 7F F8 FF FF 7F 73  K...E:.........s
30E0: 32 30 30 09 80 1C 3B 80  45 36 80 F8 FF FF 7F F8  200...;.E6......
30F0: FF FF 7F 66 64 69 31 09  80 1C 3B 80 1A 9F 59 1C  ...fdi1...;...Y.
3100: 35 80 27 05 4B 10 0F 01  1F 03 01 10 21 80 43 00  5.'.K.......!.C.
3110: 43 01 01 6D 38 02 09 00  14 80 80 EB 32 02 04 00  C..m8.......2...
3120: 14 80 80 B1 31 27 03 46  10 0F 01 14 2A 05 46 10  ....1'.F....*.F.
3130: 0F 01 27 05 46 10 0F 01  15 02 02 00 1B 80 80 60  ..'.F..........`
3140: 31 27 05 44 10 0F 01 39  1C 00 80 4A 44 10 0F 01  1'.D...9...JD...
3150: 46 10 0F 01 4A 46 10 0F  01 44 10 0F 01 01 7C 31  F...JF...D....|1
3160: 27 05 4A 10 0F 01 35 1C  00 80 4A 4A 10 0F 01 46  '.J...5...JJ...F
3170: 10 0F 01 4A 46 10 0F 01  4A 10 0F 01 45 3A 80 F8  ...JF...J...E:..
3180: FF FF 7F F8 FF FF 7F 73  32 30 30 09 80 1C 3B 80  .......s200...;.
3190: 45 36 80 F8 FF FF 7F F8  FF FF 7F 66 64 69 31 09  E6.........fdi1.
31A0: 80 1C 3B 80 27 05 46 10  0F 01 1A 1A 82 59 01 DF  ..;.'.F......Y..
31B0: 32 02 04 00 1B 80 80 83  32 27 03 46 10 0F 01 14  2.......2'.F....
31C0: 2A 05 46 10 0F 01 02 02  00 14 80 80 24 32 27 05  *.F.........$2'.
31D0: 46 10 0F 01 18 27 05 44  10 0F 01 36 1C 00 80 4A  F....'.D...6...J
31E0: 44 10 0F 01 46 10 0F 01  45 3A 80 F8 FF FF 7F F8  D...F...E:......
31F0: FF FF 7F 73 32 30 30 09  80 1C 3B 80 45 36 80 F8  ...s200...;.E6..
3200: FF FF 7F F8 FF FF 7F 66  64 69 31 09 80 1C 3B 80  .......fdi1...;.
3210: 27 05 44 10 0F 01 3B 1C  3B 80 27 05 46 10 0F 01  '.D...;.;.'.F...
3220: 1C 01 80 32 27 05 46 10  0F 01 15 27 05 4A 10 0F  ...2'.F....'.J..
3230: 01 35 1C 00 80 4A 4A 10  0F 01 46 10 0F 01 4A 46  .5...JJ...F...JF
3240: 10 0F 01 4A 10 0F 01 45  3A 80 F8 FF FF 7F F8 FF  ...J...E:.......
3250: FF 7F 73 32 30 30 09 80  1C 3B 80 45 36 80 F8 FF  ..s200...;.E6...
3260: FF 7F F8 FF FF 7F 66 64  69 31 09 80 1C 3B 80 27  ......fdi1...;.'
3270: 05 46 10 0F 01 1B 1C 35  80 27 05 4A 10 0F 01 37  .F.....5.'.J...7
3280: 01 DF 32 27 03 4C 10 0F  01 12 2A 05 4C 10 0F 01  ..2'.L....*.L...
3290: 27 05 4C 10 0F 01 18 27  05 44 10 0F 01 36 1C 00  '.L....'.D...6..
32A0: 80 4A 44 10 0F 01 4C 10  0F 01 45 3A 80 F8 FF FF  .JD...L...E:....
32B0: 7F F8 FF FF 7F 73 32 30  30 09 80 1C 3B 80 45 36  .....s200...;.E6
32C0: 80 F8 FF FF 7F F8 FF FF  7F 66 64 69 31 09 80 1C  .........fdi1...
32D0: 3B 80 1A 9F 59 1C 35 80  27 05 4C 10 0F 01 15 03  ;...Y.5.'.L.....
32E0: 01 10 24 80 43 00 43 01  01 6D 38 02 09 00 1B 80  ..$.C.C..m8.....
32F0: 80 C1 34 02 05 00 14 80  80 87 33 27 03 47 10 0F  ..4.......3'.G..
3300: 01 14 2A 05 47 10 0F 01  27 05 47 10 0F 01 15 02  ..*.G...'.G.....
3310: 02 00 1B 80 80 36 33 27  05 44 10 0F 01 39 1C 00  .....63'.D...9..
3320: 80 4A 44 10 0F 01 47 10  0F 01 4A 47 10 0F 01 44  .JD...G...JG...D
3330: 10 0F 01 01 52 33 27 05  4A 10 0F 01 35 1C 00 80  ....R3'.J...5...
3340: 4A 4A 10 0F 01 47 10 0F  01 4A 47 10 0F 01 4A 10  JJ...G...JG...J.
3350: 0F 01 45 3A 80 F8 FF FF  7F F8 FF FF 7F 73 32 30  ..E:.........s20
3360: 30 09 80 1C 3B 80 45 36  80 F8 FF FF 7F F8 FF FF  0...;.E6........
3370: 7F 66 64 69 31 09 80 1C  3B 80 27 05 47 10 0F 01  .fdi1...;.'.G...
3380: 1A 1A 82 59 01 B5 34 02  05 00 1B 80 80 59 34 27  ...Y..4......Y4'
3390: 03 47 10 0F 01 14 2A 05  47 10 0F 01 02 02 00 14  .G....*.G.......
33A0: 80 80 FA 33 27 05 47 10  0F 01 18 27 05 44 10 0F  ...3'.G....'.D..
33B0: 01 36 1C 00 80 4A 44 10  0F 01 47 10 0F 01 45 3A  .6...JD...G...E:
33C0: 80 F8 FF FF 7F F8 FF FF  7F 73 32 30 30 09 80 1C  .........s200...
33D0: 3B 80 45 36 80 F8 FF FF  7F F8 FF FF 7F 66 64 69  ;.E6.........fdi
33E0: 31 09 80 1C 3B 80 27 05  44 10 0F 01 3B 1C 3B 80  1...;.'.D...;.;.
33F0: 27 05 47 10 0F 01 1C 01  56 34 27 05 47 10 0F 01  '.G.....V4'.G...
3400: 15 27 05 4A 10 0F 01 35  1C 00 80 4A 4A 10 0F 01  .'.J...5...JJ...
3410: 47 10 0F 01 4A 47 10 0F  01 4A 10 0F 01 45 3A 80  G...JG...J...E:.
3420: F8 FF FF 7F F8 FF FF 7F  73 32 30 30 09 80 1C 3B  ........s200...;
3430: 80 45 36 80 F8 FF FF 7F  F8 FF FF 7F 66 64 69 31  .E6.........fdi1
3440: 09 80 1C 3B 80 27 05 47  10 0F 01 1B 1C 35 80 27  ...;.'.G.....5.'
3450: 05 4A 10 0F 01 37 01 B5  34 27 03 4D 10 0F 01 12  .J...7..4'.M....
3460: 2A 05 4D 10 0F 01 27 05  4D 10 0F 01 18 27 05 44  *.M...'.M....'.D
3470: 10 0F 01 36 1C 00 80 4A  44 10 0F 01 4D 10 0F 01  ...6...JD...M...
3480: 45 3A 80 F8 FF FF 7F F8  FF FF 7F 73 32 30 30 09  E:.........s200.
3490: 80 1C 3B 80 45 36 80 F8  FF FF 7F F8 FF FF 7F 66  ..;.E6.........f
34A0: 64 69 31 09 80 1C 3B 80  1A 9F 59 1C 35 80 27 05  di1...;...Y.5.'.
34B0: 4D 10 0F 01 15 03 01 10  27 80 43 00 43 01 01 6D  M.......'.C.C..m
34C0: 38 02 09 00 25 80 80 97  36 02 06 00 14 80 80 5D  8...%...6......]
34D0: 35 27 03 48 10 0F 01 12  2A 05 48 10 0F 01 27 05  5'.H....*.H...'.
34E0: 48 10 0F 01 13 02 02 00  1B 80 80 0C 35 27 05 44  H...........5'.D
34F0: 10 0F 01 39 1C 00 80 4A  44 10 0F 01 48 10 0F 01  ...9...JD...H...
3500: 4A 48 10 0F 01 44 10 0F  01 01 28 35 27 05 4A 10  JH...D....(5'.J.
3510: 0F 01 35 1C 00 80 4A 4A  10 0F 01 48 10 0F 01 4A  ..5...JJ...H...J
3520: 48 10 0F 01 4A 10 0F 01  45 3A 80 F8 FF FF 7F F8  H...J...E:......
3530: FF FF 7F 73 32 30 30 09  80 1C 3B 80 45 36 80 F8  ...s200...;.E6..
3540: FF FF 7F F8 FF FF 7F 66  64 69 31 09 80 1C 3B 80  .......fdi1...;.
3550: 27 05 48 10 0F 01 18 1A  82 59 01 8B 36 02 06 00  '.H......Y..6...
3560: 1B 80 80 2F 36 27 03 48  10 0F 01 12 2A 05 48 10  .../6'.H....*.H.
3570: 0F 01 02 02 00 14 80 80  D0 35 27 05 48 10 0F 01  .........5'.H...
3580: 16 27 05 44 10 0F 01 36  1C 00 80 4A 44 10 0F 01  .'.D...6...JD...
3590: 48 10 0F 01 45 3A 80 F8  FF FF 7F F8 FF FF 7F 73  H...E:.........s
35A0: 32 30 30 09 80 1C 3B 80  45 36 80 F8 FF FF 7F F8  200...;.E6......
35B0: FF FF 7F 66 64 69 31 09  80 1C 3B 80 27 05 44 10  ...fdi1...;.'.D.
35C0: 0F 01 3B 1C 3B 80 27 05  48 10 0F 01 1A 01 2C 36  ..;.;.'.H.....,6
35D0: 27 05 48 10 0F 01 13 27  05 4A 10 0F 01 35 1C 00  '.H....'.J...5..
35E0: 80 4A 4A 10 0F 01 48 10  0F 01 4A 48 10 0F 01 4A  .JJ...H...JH...J
35F0: 10 0F 01 45 3A 80 F8 FF  FF 7F F8 FF FF 7F 73 32  ...E:.........s2
3600: 30 30 09 80 1C 3B 80 45  36 80 F8 FF FF 7F F8 FF  00...;.E6.......
3610: FF 7F 66 64 69 31 09 80  1C 3B 80 27 05 48 10 0F  ..fdi1...;.'.H..
3620: 01 19 1C 35 80 27 05 4A  10 0F 01 37 01 8B 36 27  ...5.'.J...7..6'
3630: 03 4E 10 0F 01 11 2A 05  4E 10 0F 01 27 05 4E 10  .N....*.N...'.N.
3640: 0F 01 17 27 05 44 10 0F  01 36 1C 00 80 4A 44 10  ...'.D...6...JD.
3650: 0F 01 4E 10 0F 01 45 3A  80 F8 FF FF 7F F8 FF FF  ..N...E:........
3660: 7F 73 32 30 30 09 80 1C  3B 80 45 36 80 F8 FF FF  .s200...;.E6....
3670: 7F F8 FF FF 7F 66 64 69  31 09 80 1C 3B 80 1A 9F  .....fdi1...;...
3680: 59 1C 35 80 27 05 4E 10  0F 01 14 03 01 10 2A 80  Y.5.'.N.......*.
3690: 43 00 43 01 01 6D 38 02  09 00 28 80 80 6D 38 02  C.C..m8...(..m8.
36A0: 07 00 14 80 80 33 37 27  03 49 10 0F 01 07 2A 05  .....37'.I....*.
36B0: 49 10 0F 01 27 05 49 10  0F 01 08 02 02 00 1B 80  I...'.I.........
36C0: 80 E2 36 27 05 44 10 0F  01 39 1C 00 80 4A 44 10  ..6'.D...9...JD.
36D0: 0F 01 49 10 0F 01 4A 49  10 0F 01 44 10 0F 01 01  ..I...JI...D....
36E0: FE 36 27 05 4A 10 0F 01  35 1C 00 80 4A 4A 10 0F  .6'.J...5...JJ..
36F0: 01 49 10 0F 01 4A 49 10  0F 01 4A 10 0F 01 45 3A  .I...JI...J...E:
3700: 80 F8 FF FF 7F F8 FF FF  7F 73 32 30 30 09 80 1C  .........s200...
3710: 3B 80 45 36 80 F8 FF FF  7F F8 FF FF 7F 66 64 69  ;.E6.........fdi
3720: 31 09 80 1C 3B 80 27 05  49 10 0F 01 0D 1A 82 59  1...;.'.I......Y
3730: 01 61 38 02 07 00 1B 80  80 05 38 27 03 49 10 0F  .a8.......8'.I..
3740: 01 07 2A 05 49 10 0F 01  02 02 00 14 80 80 A6 37  ..*.I..........7
3750: 27 05 49 10 0F 01 0B 27  05 44 10 0F 01 36 1C 00  '.I....'.D...6..
3760: 80 4A 44 10 0F 01 49 10  0F 01 45 3A 80 F8 FF FF  .JD...I...E:....
3770: 7F F8 FF FF 7F 73 32 30  30 09 80 1C 3B 80 45 36  .....s200...;.E6
3780: 80 F8 FF FF 7F F8 FF FF  7F 66 64 69 31 09 80 1C  .........fdi1...
3790: 3B 80 27 05 44 10 0F 01  3B 1C 3B 80 27 05 49 10  ;.'.D...;.;.'.I.
37A0: 0F 01 0F 01 02 38 27 05  49 10 0F 01 08 27 05 4A  .....8'.I....'.J
37B0: 10 0F 01 35 1C 00 80 4A  4A 10 0F 01 49 10 0F 01  ...5...JJ...I...
37C0: 4A 49 10 0F 01 4A 10 0F  01 45 3A 80 F8 FF FF 7F  JI...J...E:.....
37D0: F8 FF FF 7F 73 32 30 30  09 80 1C 3B 80 45 36 80  ....s200...;.E6.
37E0: F8 FF FF 7F F8 FF FF 7F  66 64 69 31 09 80 1C 3B  ........fdi1...;
37F0: 80 27 05 49 10 0F 01 0E  1C 35 80 27 05 4A 10 0F  .'.I.....5.'.J..
3800: 01 37 01 61 38 27 03 4F  10 0F 01 06 2A 05 4F 10  .7.a8'.O....*.O.
3810: 0F 01 27 05 4F 10 0F 01  0C 27 05 44 10 0F 01 36  ..'.O....'.D...6
3820: 1C 00 80 4A 44 10 0F 01  4F 10 0F 01 45 3A 80 F8  ...JD...O...E:..
3830: FF FF 7F F8 FF FF 7F 73  32 30 30 09 80 1C 3B 80  .......s200...;.
3840: 45 36 80 F8 FF FF 7F F8  FF FF 7F 66 64 69 31 09  E6.........fdi1.
3850: 80 1C 3B 80 1A 9F 59 1C  35 80 27 05 4F 10 0F 01  ..;...Y.5.'.O...
3860: 09 03 01 10 2D 80 43 00  43 01 01 6D 38 02 02 10  ....-.C.C..m8...
3870: 03 10 00 7D 38 03 02 10  09 80 01 92 38 02 02 10  ...}8.......8...
3880: 09 80 00 8D 38 03 02 10  09 80 01 92 38 03 02 10  ....8.......8...
3890: 09 00 1D 86 80 23 02 14  00 09 80 00 1E 39 02 02  .....#.......9..
38A0: 00 14 80 80 04 39 2A 05  44 10 0F 01 02 09 00 0F  .....9*.D.......
38B0: 80 80 BD 38 2A 05 4B 10  0F 01 01 01 39 02 09 00  ...8*.K.....9...
38C0: 14 80 80 CE 38 2A 05 4C  10 0F 01 01 01 39 02 09  ....8*.L.....9..
38D0: 00 1B 80 80 DF 38 2A 05  4D 10 0F 01 01 01 39 02  .....8*.M.....9.
38E0: 09 00 25 80 80 F0 38 2A  05 4E 10 0F 01 01 01 39  ..%...8*.N.....9
38F0: 02 09 00 28 80 80 01 39  2A 05 4F 10 0F 01 01 01  ...(...9*.O.....
3900: 39 01 1B 39 02 02 00 1B  80 80 15 39 2A 05 44 10  9..9.......9*.D.
3910: 0F 01 01 1B 39 2A 05 4A  10 0F 01 1A C4 59 45 36  ....9*.J.....YE6
3920: 80 F8 FF FF 7F F8 FF FF  7F 66 64 6F 31 09 80 55  .........fdo1..U
3930: 36 80 F8 FF FF 7F F8 FF  FF 7F 66 64 6F 31 52 3A  6.........fdo1R:
3940: 80 F8 FF FF 7F F8 FF FF  7F 73 31 39 33 02 14 00  .........s193...
3950: 0F 80 00 7C 3A 02 02 00  14 80 80 66 39 2A 05 44  ...|:......f9*.D
3960: 10 0F 01 01 7D 39 02 02  00 1B 80 80 77 39 2A 05  ....}9......w9*.
3970: 44 10 0F 01 01 7D 39 2A  05 4A 10 0F 01 02 09 00  D....}9*.J......
3980: 0F 80 80 B0 39 02 03 00  14 80 80 96 39 2A 05 45  ....9.......9*.E
3990: 10 0F 01 01 AD 39 02 03  00 1B 80 80 A7 39 2A 05  .....9.......9*.
39A0: 45 10 0F 01 01 AD 39 2A  05 4B 10 0F 01 01 7C 3A  E.....9*.K....|:
39B0: 02 09 00 14 80 80 E3 39  02 04 00 14 80 80 C9 39  .......9.......9
39C0: 2A 05 46 10 0F 01 01 E0  39 02 04 00 1B 80 80 DA  *.F.....9.......
39D0: 39 2A 05 46 10 0F 01 01  E0 39 2A 05 4C 10 0F 01  9*.F.....9*.L...
39E0: 01 7C 3A 02 09 00 1B 80  80 16 3A 02 05 00 14 80  .|:.......:.....
39F0: 80 FC 39 2A 05 47 10 0F  01 01 13 3A 02 05 00 1B  ..9*.G.....:....
3A00: 80 80 0D 3A 2A 05 47 10  0F 01 01 13 3A 2A 05 4D  ...:*.G.....:*.M
3A10: 10 0F 01 01 7C 3A 02 09  00 25 80 80 49 3A 02 06  ....|:...%..I:..
3A20: 00 14 80 80 2F 3A 2A 05  48 10 0F 01 01 46 3A 02  ..../:*.H....F:.
3A30: 06 00 1B 80 80 40 3A 2A  05 48 10 0F 01 01 46 3A  .....@:*.H....F:
3A40: 2A 05 4E 10 0F 01 01 7C  3A 02 09 00 28 80 80 7C  *.N....|:...(..|
3A50: 3A 02 07 00 14 80 80 62  3A 2A 05 49 10 0F 01 01  :......b:*.I....
3A60: 79 3A 02 07 00 1B 80 80  73 3A 2A 05 49 10 0F 01  y:......s:*.I...
3A70: 01 79 3A 2A 05 4F 10 0F  01 01 7C 3A 02 0E 00 0F  .y:*.O....|:....
3A80: 80 00 2C 58 02 02 00 14  80 80 96 3A 27 05 44 10  ..,X.......:'.D.
3A90: 0F 01 36 01 AF 3A 02 02  00 1B 80 80 A8 3A 27 05  ..6..:.......:'.
3AA0: 44 10 0F 01 36 01 AF 3A  27 05 4A 10 0F 01 34 02  D...6..:'.J...4.
3AB0: 13 00 09 80 00 C0 45 02  09 00 0F 80 80 A3 3C 02  ......E.......<.
3AC0: 03 00 14 80 80 63 3B 27  03 45 10 0F 01 29 2A 05  .....c;'.E...)*.
3AD0: 45 10 0F 01 27 05 45 10  0F 01 2D 4A 45 10 0F 01  E...'.E...-JE...
3AE0: 44 10 0F 01 4A 44 10 0F  01 45 10 0F 01 45 3A 80  D...JD...E...E:.
3AF0: F8 FF FF 7F F8 FF FF 7F  73 31 39 31 09 80 1C 60  ........s191...`
3B00: 80 45 36 80 F8 FF FF 7F  F8 FF FF 7F 66 64 69 31  .E6.........fdi1
3B10: 09 80 1C 3B 80 27 05 45  10 0F 01 32 1C 3B 80 29  ...;.'.E...2.;.)
3B20: 05 44 10 0F 01 3E 4A 44  10 0F 01 45 10 0F 01 1C  .D...>JD...E....
3B30: 3B 80 4A 45 10 0F 01 44  10 0F 01 1C 3B 80 27 05  ;.JE...D....;.'.
3B40: 44 10 0F 01 3F 2A 05 45  10 0F 01 27 05 45 10 0F  D...?*.E...'.E..
3B50: 01 33 02 14 00 09 80 00  60 3B 2A 05 45 10 0F 01  .3......`;*.E...
3B60: 01 A0 3C 02 03 00 1B 80  80 07 3C 27 03 45 10 0F  ..<.......<'.E..
3B70: 01 29 2A 05 45 10 0F 01  27 05 45 10 0F 01 2D 4A  .)*.E...'.E...-J
3B80: 45 10 0F 01 44 10 0F 01  4A 44 10 0F 01 45 10 0F  E...D...JD...E..
3B90: 01 45 3A 80 F8 FF FF 7F  F8 FF FF 7F 73 31 39 31  .E:.........s191
3BA0: 09 80 1C 60 80 45 36 80  F8 FF FF 7F F8 FF FF 7F  ...`.E6.........
3BB0: 66 64 69 31 09 80 1C 3B  80 27 05 45 10 0F 01 34  fdi1...;.'.E...4
3BC0: 1C 3B 80 29 05 44 10 0F  01 40 4A 44 10 0F 01 45  .;.).D...@JD...E
3BD0: 10 0F 01 1C 3B 80 4A 45  10 0F 01 44 10 0F 01 1C  ....;.JE...D....
3BE0: 3B 80 27 05 44 10 0F 01  41 2A 05 45 10 0F 01 27  ;.'.D...A*.E...'
3BF0: 05 45 10 0F 01 35 02 14  00 09 80 00 04 3C 2A 05  .E...5.......<*.
3C00: 45 10 0F 01 01 A0 3C 27  03 4B 10 0F 01 1C 2A 05  E.....<'.K....*.
3C10: 4B 10 0F 01 27 05 4B 10  0F 01 22 4A 4B 10 0F 01  K...'.K..."JK...
3C20: 4A 10 0F 01 4A 4A 10 0F  01 4B 10 0F 01 45 3A 80  J...JJ...K...E:.
3C30: F8 FF FF 7F F8 FF FF 7F  73 31 39 31 09 80 1C 3B  ........s191...;
3C40: 80 45 36 80 F8 FF FF 7F  F8 FF FF 7F 66 64 69 31  .E6.........fdi1
3C50: 09 80 1C 3B 80 27 05 4B  10 0F 01 20 1C 3B 80 29  ...;.'.K... .;.)
3C60: 05 4A 10 0F 01 38 4A 4A  10 0F 01 4B 10 0F 01 1C  .J...8JJ...K....
3C70: 3B 80 4A 4B 10 0F 01 4A  10 0F 01 1C 3B 80 27 05  ;.JK...J....;.'.
3C80: 4A 10 0F 01 39 2A 05 4B  10 0F 01 27 05 4B 10 0F  J...9*.K...'.K..
3C90: 01 21 02 14 00 09 80 00  A0 3C 2A 05 4B 10 0F 01  .!.......<*.K...
3CA0: 01 53 44 02 09 00 14 80  80 8F 3E 02 04 00 14 80  .SD.......>.....
3CB0: 80 4F 3D 27 03 46 10 0F  01 14 2A 05 46 10 0F 01  .O='.F....*.F...
3CC0: 27 05 46 10 0F 01 18 4A  46 10 0F 01 44 10 0F 01  '.F....JF...D...
3CD0: 4A 44 10 0F 01 46 10 0F  01 45 3A 80 F8 FF FF 7F  JD...F...E:.....
3CE0: F8 FF FF 7F 73 31 39 31  09 80 1C 60 80 45 36 80  ....s191...`.E6.
3CF0: F8 FF FF 7F F8 FF FF 7F  66 64 69 31 09 80 1C 3B  ........fdi1...;
3D00: 80 27 05 46 10 0F 01 1D  1C 3B 80 29 05 44 10 0F  .'.F.....;.).D..
3D10: 01 3E 4A 44 10 0F 01 46  10 0F 01 1C 3B 80 4A 46  .>JD...F....;.JF
3D20: 10 0F 01 44 10 0F 01 1C  3B 80 27 05 44 10 0F 01  ...D....;.'.D...
3D30: 3F 2A 05 46 10 0F 01 27  05 46 10 0F 01 1E 02 14  ?*.F...'.F......
3D40: 00 09 80 00 4C 3D 2A 05  46 10 0F 01 01 8C 3E 02  ....L=*.F.....>.
3D50: 04 00 1B 80 80 F3 3D 27  03 46 10 0F 01 14 2A 05  ......='.F....*.
3D60: 46 10 0F 01 27 05 46 10  0F 01 18 4A 46 10 0F 01  F...'.F....JF...
3D70: 44 10 0F 01 4A 44 10 0F  01 46 10 0F 01 45 3A 80  D...JD...F...E:.
3D80: F8 FF FF 7F F8 FF FF 7F  73 31 39 31 09 80 1C 60  ........s191...`
3D90: 80 45 36 80 F8 FF FF 7F  F8 FF FF 7F 66 64 69 31  .E6.........fdi1
3DA0: 09 80 1C 3B 80 27 05 46  10 0F 01 1F 1C 3B 80 29  ...;.'.F.....;.)
3DB0: 05 44 10 0F 01 40 4A 44  10 0F 01 46 10 0F 01 1C  .D...@JD...F....
3DC0: 3B 80 4A 46 10 0F 01 44  10 0F 01 1C 3B 80 27 05  ;.JF...D....;.'.
3DD0: 44 10 0F 01 41 2A 05 46  10 0F 01 27 05 46 10 0F  D...A*.F...'.F..
3DE0: 01 20 02 14 00 09 80 00  F0 3D 2A 05 46 10 0F 01  . .......=*.F...
3DF0: 01 8C 3E 27 03 4C 10 0F  01 12 2A 05 4C 10 0F 01  ..>'.L....*.L...
3E00: 27 05 4C 10 0F 01 18 4A  4C 10 0F 01 4A 10 0F 01  '.L....JL...J...
3E10: 4A 4A 10 0F 01 4C 10 0F  01 45 3A 80 F8 FF FF 7F  JJ...L...E:.....
3E20: F8 FF FF 7F 73 31 39 31  09 80 1C 60 80 45 36 80  ....s191...`.E6.
3E30: F8 FF FF 7F F8 FF FF 7F  66 64 69 31 09 80 1C 3B  ........fdi1...;
3E40: 80 27 05 4C 10 0F 01 16  1C 3B 80 29 05 4A 10 0F  .'.L.....;.).J..
3E50: 01 38 4A 4A 10 0F 01 4C  10 0F 01 1C 3B 80 4A 4C  .8JJ...L....;.JL
3E60: 10 0F 01 4A 10 0F 01 1C  3B 80 27 05 4A 10 0F 01  ...J....;.'.J...
3E70: 39 2A 05 4C 10 0F 01 27  05 4C 10 0F 01 17 02 14  9*.L...'.L......
3E80: 00 09 80 00 8C 3E 2A 05  4C 10 0F 01 01 53 44 02  .....>*.L....SD.
3E90: 09 00 1B 80 80 7B 40 02  05 00 14 80 80 3B 3F 27  .....{@......;?'
3EA0: 03 47 10 0F 01 14 2A 05  47 10 0F 01 27 05 47 10  .G....*.G...'.G.
3EB0: 0F 01 18 4A 47 10 0F 01  44 10 0F 01 4A 44 10 0F  ...JG...D...JD..
3EC0: 01 47 10 0F 01 45 3A 80  F8 FF FF 7F F8 FF FF 7F  .G...E:.........
3ED0: 73 31 39 31 09 80 1C 60  80 45 36 80 F8 FF FF 7F  s191...`.E6.....
3EE0: F8 FF FF 7F 66 64 69 31  09 80 1C 3B 80 27 05 47  ....fdi1...;.'.G
3EF0: 10 0F 01 1D 1C 3B 80 29  05 44 10 0F 01 3E 4A 44  .....;.).D...>JD
3F00: 10 0F 01 47 10 0F 01 1C  3B 80 4A 47 10 0F 01 44  ...G....;.JG...D
3F10: 10 0F 01 1C 3B 80 27 05  44 10 0F 01 3F 2A 05 47  ....;.'.D...?*.G
3F20: 10 0F 01 27 05 47 10 0F  01 1E 02 14 00 09 80 00  ...'.G..........
3F30: 38 3F 2A 05 47 10 0F 01  01 78 40 02 05 00 1B 80  8?*.G....x@.....
3F40: 80 DF 3F 27 03 47 10 0F  01 14 2A 05 47 10 0F 01  ..?'.G....*.G...
3F50: 27 05 47 10 0F 01 18 4A  47 10 0F 01 44 10 0F 01  '.G....JG...D...
3F60: 4A 44 10 0F 01 47 10 0F  01 45 3A 80 F8 FF FF 7F  JD...G...E:.....
3F70: F8 FF FF 7F 73 31 39 31  09 80 1C 60 80 45 36 80  ....s191...`.E6.
3F80: F8 FF FF 7F F8 FF FF 7F  66 64 69 31 09 80 1C 3B  ........fdi1...;
3F90: 80 27 05 47 10 0F 01 1F  1C 3B 80 29 05 44 10 0F  .'.G.....;.).D..
3FA0: 01 40 4A 44 10 0F 01 47  10 0F 01 1C 3B 80 4A 47  .@JD...G....;.JG
3FB0: 10 0F 01 44 10 0F 01 1C  3B 80 27 05 44 10 0F 01  ...D....;.'.D...
3FC0: 41 2A 05 47 10 0F 01 27  05 47 10 0F 01 20 02 14  A*.G...'.G... ..
3FD0: 00 09 80 00 DC 3F 2A 05  47 10 0F 01 01 78 40 27  .....?*.G....x@'
3FE0: 03 4D 10 0F 01 12 2A 05  4D 10 0F 01 27 05 4D 10  .M....*.M...'.M.
3FF0: 0F 01 18 4A 4D 10 0F 01  4A 10 0F 01 4A 4A 10 0F  ...JM...J...JJ..
4000: 01 4D 10 0F 01 45 3A 80  F8 FF FF 7F F8 FF FF 7F  .M...E:.........
4010: 73 31 39 31 09 80 1C 60  80 45 36 80 F8 FF FF 7F  s191...`.E6.....
4020: F8 FF FF 7F 66 64 69 31  09 80 1C 3B 80 27 05 4D  ....fdi1...;.'.M
4030: 10 0F 01 16 1C 3B 80 29  05 4A 10 0F 01 38 4A 4A  .....;.).J...8JJ
4040: 10 0F 01 4D 10 0F 01 1C  3B 80 4A 4D 10 0F 01 4A  ...M....;.JM...J
4050: 10 0F 01 1C 3B 80 27 05  4A 10 0F 01 39 2A 05 4D  ....;.'.J...9*.M
4060: 10 0F 01 27 05 4D 10 0F  01 17 02 14 00 09 80 00  ...'.M..........
4070: 78 40 2A 05 4D 10 0F 01  01 53 44 02 09 00 25 80  x@*.M....SD...%.
4080: 80 67 42 02 06 00 14 80  80 27 41 27 03 48 10 0F  .gB......'A'.H..
4090: 01 12 2A 05 48 10 0F 01  27 05 48 10 0F 01 16 4A  ..*.H...'.H....J
40A0: 48 10 0F 01 44 10 0F 01  4A 44 10 0F 01 48 10 0F  H...D...JD...H..
40B0: 01 45 3A 80 F8 FF FF 7F  F8 FF FF 7F 73 31 39 31  .E:.........s191
40C0: 09 80 1C 60 80 45 36 80  F8 FF FF 7F F8 FF FF 7F  ...`.E6.........
40D0: 66 64 69 31 09 80 1C 3B  80 27 05 48 10 0F 01 1B  fdi1...;.'.H....
40E0: 1C 3B 80 29 05 44 10 0F  01 3E 4A 44 10 0F 01 48  .;.).D...>JD...H
40F0: 10 0F 01 1C 3B 80 4A 48  10 0F 01 44 10 0F 01 1C  ....;.JH...D....
4100: 3B 80 27 05 44 10 0F 01  3F 2A 05 48 10 0F 01 27  ;.'.D...?*.H...'
4110: 05 48 10 0F 01 1C 02 14  00 09 80 00 24 41 2A 05  .H..........$A*.
4120: 48 10 0F 01 01 64 42 02  06 00 1B 80 80 CB 41 27  H....dB.......A'
4130: 03 48 10 0F 01 12 2A 05  48 10 0F 01 27 05 48 10  .H....*.H...'.H.
4140: 0F 01 16 4A 48 10 0F 01  44 10 0F 01 4A 44 10 0F  ...JH...D...JD..
4150: 01 48 10 0F 01 45 3A 80  F8 FF FF 7F F8 FF FF 7F  .H...E:.........
4160: 73 31 39 31 09 80 1C 60  80 45 36 80 F8 FF FF 7F  s191...`.E6.....
4170: F8 FF FF 7F 66 64 69 31  09 80 1C 3B 80 27 05 48  ....fdi1...;.'.H
4180: 10 0F 01 1D 1C 3B 80 29  05 44 10 0F 01 40 4A 44  .....;.).D...@JD
4190: 10 0F 01 48 10 0F 01 1C  3B 80 4A 48 10 0F 01 44  ...H....;.JH...D
41A0: 10 0F 01 1C 3B 80 27 05  44 10 0F 01 41 2A 05 48  ....;.'.D...A*.H
41B0: 10 0F 01 27 05 48 10 0F  01 1E 02 14 00 09 80 00  ...'.H..........
41C0: C8 41 2A 05 48 10 0F 01  01 64 42 27 03 4E 10 0F  .A*.H....dB'.N..
41D0: 01 11 2A 05 4E 10 0F 01  27 05 4E 10 0F 01 17 4A  ..*.N...'.N....J
41E0: 4E 10 0F 01 4A 10 0F 01  4A 4A 10 0F 01 4E 10 0F  N...J...JJ...N..
41F0: 01 45 3A 80 F8 FF FF 7F  F8 FF FF 7F 73 31 39 31  .E:.........s191
4200: 09 80 1C 60 80 45 36 80  F8 FF FF 7F F8 FF FF 7F  ...`.E6.........
4210: 66 64 69 31 09 80 1C 3B  80 27 05 4E 10 0F 01 15  fdi1...;.'.N....
4220: 1C 3B 80 29 05 4A 10 0F  01 38 4A 4A 10 0F 01 4E  .;.).J...8JJ...N
4230: 10 0F 01 1C 3B 80 4A 4E  10 0F 01 4A 10 0F 01 1C  ....;.JN...J....
4240: 3B 80 27 05 4A 10 0F 01  39 2A 05 4E 10 0F 01 27  ;.'.J...9*.N...'
4250: 05 4E 10 0F 01 16 02 14  00 09 80 00 64 42 2A 05  .N..........dB*.
4260: 4E 10 0F 01 01 53 44 02  09 00 28 80 80 53 44 02  N....SD...(..SD.
4270: 07 00 14 80 80 13 43 27  03 49 10 0F 01 07 2A 05  ......C'.I....*.
4280: 49 10 0F 01 27 05 49 10  0F 01 0B 4A 49 10 0F 01  I...'.I....JI...
4290: 44 10 0F 01 4A 44 10 0F  01 49 10 0F 01 45 3A 80  D...JD...I...E:.
42A0: F8 FF FF 7F F8 FF FF 7F  73 31 39 31 09 80 1C 60  ........s191...`
42B0: 80 45 36 80 F8 FF FF 7F  F8 FF FF 7F 66 64 69 31  .E6.........fdi1
42C0: 09 80 1C 3B 80 27 05 49  10 0F 01 10 1C 3B 80 29  ...;.'.I.....;.)
42D0: 05 44 10 0F 01 3E 4A 44  10 0F 01 49 10 0F 01 1C  .D...>JD...I....
42E0: 3B 80 4A 49 10 0F 01 44  10 0F 01 1C 3B 80 27 05  ;.JI...D....;.'.
42F0: 44 10 0F 01 3F 2A 05 49  10 0F 01 27 05 49 10 0F  D...?*.I...'.I..
4300: 01 11 02 14 00 09 80 00  10 43 2A 05 49 10 0F 01  .........C*.I...
4310: 01 50 44 02 07 00 1B 80  80 B7 43 27 03 49 10 0F  .PD.......C'.I..
4320: 01 07 2A 05 49 10 0F 01  27 05 49 10 0F 01 0B 4A  ..*.I...'.I....J
4330: 49 10 0F 01 44 10 0F 01  4A 44 10 0F 01 49 10 0F  I...D...JD...I..
4340: 01 45 3A 80 F8 FF FF 7F  F8 FF FF 7F 73 31 39 31  .E:.........s191
4350: 09 80 1C 60 80 45 36 80  F8 FF FF 7F F8 FF FF 7F  ...`.E6.........
4360: 66 64 69 31 09 80 1C 3B  80 27 05 49 10 0F 01 12  fdi1...;.'.I....
4370: 1C 3B 80 29 05 44 10 0F  01 40 4A 44 10 0F 01 49  .;.).D...@JD...I
4380: 10 0F 01 1C 3B 80 4A 49  10 0F 01 44 10 0F 01 1C  ....;.JI...D....
