# 17764533 - Gioh Ajihri

## Common Data

| Field            | Value                    |
|------------------|--------------------------|
| Zone             | Windurst Woods (ID: 241) |
| Block Size       | 1232 bytes               |
| Total Events     | 23                       |
| References Count | 44                       |

## List of Events

| Event ID                   | Entrypoint   |   Size |   Instructions |
|----------------------------|--------------|--------|----------------|
| [65535](#event-65535)      | 0x0000       |      1 |              1 |
| [65535.1](#event-655351)   | 0x0001       |     16 |              2 |
| [65535.2](#event-655352)   | 0x0011       |      9 |              3 |
| [65535.3](#event-655353)   | 0x001A       |     16 |              2 |
| [65535.4](#event-655354)   | 0x002A       |     14 |              2 |
| [65535.5](#event-655355)   | 0x0038       |     16 |              2 |
| [65535.6](#event-655356)   | 0x0048       |     14 |              2 |
| [65535.7](#event-655357)   | 0x0056       |      9 |              3 |
| [424](#event-424)          | 0x005F       |     36 |             13 |
| [87](#event-87)            | 0x0083       |     36 |             13 |
| [487](#event-487)          | 0x00A7       |    182 |             32 |
| [65535.8](#event-655358)   | 0x015D       |      5 |              3 |
| [65535.9](#event-655359)   | 0x0162       |      9 |              5 |
| [65535.10](#event-6553510) | 0x016B       |      9 |              5 |
| [488](#event-488)          | 0x0174       |     36 |             13 |
| [490](#event-490)          | 0x0198       |     81 |             19 |
| [491](#event-491)          | 0x01E9       |     36 |             13 |
| [493](#event-493)          | 0x020D       |     33 |             12 |
| [550](#event-550)          | 0x022E       |     37 |             14 |
| [551](#event-551)          | 0x0253       |     99 |             30 |
| [552](#event-552)          | 0x02B6       |     32 |             11 |
| [555](#event-555)          | 0x02D6       |     47 |             12 |
| [556](#event-556)          | 0x0305       |    173 |             46 |

## DAT References (imed_data)

|   Index | Hex Value   |   Dec Value |
|---------|-------------|-------------|
|       0 | 0x0167      |         359 |
|       1 | 0x001E      |          30 |
|       2 | 0x214D      |        8525 |
|       3 | 0x214E      |        8526 |
|       4 | 0x1DBC      |        7612 |
|       5 | 0x1DBD      |        7613 |
|       6 | 0x220F      |        8719 |
|       7 | 0x2211      |        8721 |
|       8 | 0x2212      |        8722 |
|       9 | 0x2214      |        8724 |
|      10 | 0x2215      |        8725 |
|      11 | 0x2216      |        8726 |
|      12 | 0x2217      |        8727 |
|      13 | 0x2219      |        8729 |
|      14 | 0x221A      |        8730 |
|      15 | 0x00C9      |         201 |
|      16 | 0x0000      |           0 |
|      17 | 0x221B      |        8731 |
|      18 | 0x221C      |        8732 |
|      19 | 0x2220      |        8736 |
|      20 | 0x2221      |        8737 |
|      21 | 0x24B2      |        9394 |
|      22 | 0x24B3      |        9395 |
|      23 | 0x24B4      |        9396 |
|      24 | 0x24B5      |        9397 |
|      25 | 0x24B6      |        9398 |
|      26 | 0x24B7      |        9399 |
|      27 | 0x24B8      |        9400 |
|      28 | 0x24B9      |        9401 |
|      29 | 0x24BA      |        9402 |
|      30 | 0x24BB      |        9403 |
|      31 | 0x24BC      |        9404 |
|      32 | 0x24BD      |        9405 |
|      33 | 0x24C0      |        9408 |
|      34 | 0x24C1      |        9409 |
|      35 | 0x24C2      |        9410 |
|      36 | 0x0001      |           1 |
|      37 | 0x2E63      |       11875 |
|      38 | 0x0002      |           2 |
|      39 | 0x2E82      |       11906 |
|      40 | 0x2E83      |       11907 |
|      41 | 0x2E84      |       11908 |
|      42 | 0x2E96      |       11926 |
|      43 | 0x2E97      |       11927 |

## String References

- **7612**: Trying to win Nanaa Mihgo over is a waste of time! The most she will do is rrreturn your kindness with hostility.
- **7613**: Looking at her, I rrrealize it's not a person's birth, but their upbringing, that determines who they become.
- **8525**: Perih Vashai is a Mithran heroine who rrrendered great service during the war twenty years ago.
- **8526**: She lost a great many things back then, but never did she lose her pride or break her pledge. It just goes to show that physical strength is not the sole rrrequisite to be a hero.
- **8719**: That's no rrreal surprise. As far as Semih Lafihna is concerned, her Mithran heritage is of no consequence in her position in Tarutaru society. Why, she may as well have been born a Tarutaru.
- **8721**: Nothing rrreally would change... But that is a matter which is out of our paws...
- **8722**: Out of honor for our old chieftainness, we must help in the preparations to crown Semih Lafihna as the new chieftainness.
- **8724**: Yes, let's... Excuse me, [sir/miss]... You wouldn't be intending to hunt monsters in the Meriphataud Mountains any time soon, would you?
- **8725**: If you happen to come upon $1, could you please hand it over to us? Oh, and please don't ask why, just do it as a favor for us. Thank you!
- **8726**: Excuse me [sir/miss]... You wouldn't be intending to hunt monsters in the Meriphataud Mountains any time soon, would you?
- **8727**: If you happen to come upon $1, could you please hand it over to us? Oh, and please don't ask why, just do it as a favor for us. Thank you!
- **8729**: Oh good, you found one. Here, I'll give you this as a sign of our appreciation...
- **8730**: (I just hope it can fit that other gem properly...)
- **8731**: Deep in the Meriphataud Mountains, there is a bastion of the Yagudo called Castle Oztroja. It is a place where terrific wars were fought.
- **8732**: Innumerable Mithran fighters were felled there. This $1 belonged to one of those fallen warriors.
- **8736**: Hello again, adventurer. May I again make the same rrrequest as I did before.? I'd like you to search for $1 in the Meriphataud Mountains.
- **8737**: I'll pay a good price for any that you find. Once you find one, please bring it back to me as promptly as you can.
- **9394**: Ho there, adventurer. Have you come to take on the search for the $1?
- **9395**: There's actually no longer a need for it... But we should honor the brave warriors who brought about this time of peace.
- **9396**: Well, if you find any, bring them here the same as usual.
- **9397**: Ah, you've arrived. With your help, Semih Lafihna has become a little more rrreceptive to the words of the chieftainness.
- **9398**: Now we have some peace around here. Especially since the Mithran Tracker has returned home convinced of the fate of the sinner's daughter.
- **9399**: Hmmm? You also went to Eldieme Necropolis to confirm her death?
- **9400**: Heh-heh-heh. That wasn't the rrremains of the daughter. It was the final rrresting place of her mother, Nhev Befrathi.
- **9401**: We had another adventurer like you find a set of ownerless-earrings. We placed them in the necropolis long before you got there.
- **9402**: Chieftainness Perih Vashai had predicted that another Mithran Tracker would show up eventually.
- **9403**: But if you do happen to find any $1 in the Meriphataud Mountains, bring them here. I'll buy them from you.
- **9404**: They belonged to the Mithran warriors responsible for bringing about this time of peace. They should be properly honored.
- **9405**: If you ever find any $1 in the Meriphataud Mountains, bring them back here. I will buy them from you to honor the fallen.
- **9408**: You found some? Here, take this with my thanks.
- **9409**: Hello, adventurer. If you find any $1, bring them here to me.
- **9410**: Let us honor the Mithran warriors who fell in the Meriphataud Mountains.
- **11875**: Ask if this person is the chick's owner? [Yes./No.]
- **11906**: You've got my chocobo!?
- **11907**: I couldn't find the little puffball no matter how harrrd I looked for him. I was sure he was filling the belly of some black-hearted monster about now!
- **11908**: Thank you! You're rrraising a chocobo too, right? I know a good story you can use...
- **11926**: You say you've got my chocobo?
- **11927**: I'm a rrranger, so I know how terrifying monsters can be. I would never take my eyes off a poor defenseless chocobo while we're on a walk! You must have the wrrrong person.

## Events

### Event 65535

#### Metadata

| Field        | Value   |
|--------------|---------|
| Entrypoint   | 0x0000  |
| Data Size    | 1 bytes |
| Instructions | 1       |

```
      00 01 02 03 04 05 06 07  08 09 0A 0B 0C 0D 0E 0F
      -- -- -- -- -- -- -- --  -- -- -- -- -- -- -- --
0000: 00                                                .               
```

#### Opcodes

```
  0: 0x0000 [0x00] END_REQSTACK()
```

### Event 65535.1

#### Metadata

| Field        | Value    |
|--------------|----------|
| Entrypoint   | 0x0001   |
| Data Size    | 16 bytes |
| Instructions | 2        |

```
      00 01 02 03 04 05 06 07  08 09 0A 0B 0C 0D 0E 0F
      -- -- -- -- -- -- -- --  -- -- -- -- -- -- -- --
0000:    5B 00 80 F8 FF FF 7F  F8 FF FF 7F 74 6C 6B 30   [..........tlk0
0010: 00                                                .               
```

#### Opcodes

```
  0: 0x0001 [0x5B] LOAD_EXT_SCHEDULER: Load scheduler "tlk0" with entities [EventEntity, EventEntity], work=359*
  1: 0x0010 [0x00] END_REQSTACK()
```

### Event 65535.2

#### Metadata

| Field        | Value   |
|--------------|---------|
| Entrypoint   | 0x0011  |
| Data Size    | 9 bytes |
| Instructions | 3       |

```
      00 01 02 03 04 05 06 07  08 09 0A 0B 0C 0D 0E 0F
      -- -- -- -- -- -- -- --  -- -- -- -- -- -- -- --
0010:    5E 69 64 6C 30 1C 01  80 00                     ^idl0....      
```

#### Opcodes

```
  0: 0x0011 [0x5E] EventEntity goes idle (kills current action) (animation: "idl0")
  1: 0x0016 [0x1C] WAIT(30* ticks)
  2: 0x0019 [0x00] END_REQSTACK()
```

### Event 65535.3

#### Metadata

| Field        | Value    |
|--------------|----------|
| Entrypoint   | 0x001A   |
| Data Size    | 16 bytes |
| Instructions | 2        |

```
      00 01 02 03 04 05 06 07  08 09 0A 0B 0C 0D 0E 0F
      -- -- -- -- -- -- -- --  -- -- -- -- -- -- -- --
0010:                                5B 00 80 F8 FF FF            [.....
0020: 7F F8 FF FF 7F 74 68 6B  31 00                    .....thk1.      
```

#### Opcodes

```
  0: 0x001A [0x5B] LOAD_EXT_SCHEDULER: Load scheduler "thk1" with entities [EventEntity, EventEntity], work=359*
  1: 0x0029 [0x00] END_REQSTACK()
```

### Event 65535.4

#### Metadata

| Field        | Value    |
|--------------|----------|
| Entrypoint   | 0x002A   |
| Data Size    | 14 bytes |
| Instructions | 2        |

```
      00 01 02 03 04 05 06 07  08 09 0A 0B 0C 0D 0E 0F
      -- -- -- -- -- -- -- --  -- -- -- -- -- -- -- --
0020:                                53 F8 FF FF 7F F8            S.....
0030: FF FF 7F 74 68 6B 31 00                           ...thk1.        
```

#### Opcodes

```
  0: 0x002A [0x53] WAIT_SCHEDULER_TASK: Wait for scheduler "thk1" with entities [EventEntity, EventEntity]
  1: 0x0037 [0x00] END_REQSTACK()
```

### Event 65535.5

#### Metadata

| Field        | Value    |
|--------------|----------|
| Entrypoint   | 0x0038   |
| Data Size    | 16 bytes |
| Instructions | 2        |

```
      00 01 02 03 04 05 06 07  08 09 0A 0B 0C 0D 0E 0F
      -- -- -- -- -- -- -- --  -- -- -- -- -- -- -- --
0030:                          5B 00 80 F8 FF FF 7F F8          [.......
0040: FF FF 7F 74 68 6B 32 00                           ...thk2.        
```

#### Opcodes

```
  0: 0x0038 [0x5B] LOAD_EXT_SCHEDULER: Load scheduler "thk2" with entities [EventEntity, EventEntity], work=359*
  1: 0x0047 [0x00] END_REQSTACK()
```

### Event 65535.6

#### Metadata

| Field        | Value    |
|--------------|----------|
| Entrypoint   | 0x0048   |
| Data Size    | 14 bytes |
| Instructions | 2        |

```
      00 01 02 03 04 05 06 07  08 09 0A 0B 0C 0D 0E 0F
      -- -- -- -- -- -- -- --  -- -- -- -- -- -- -- --
0040:                          53 F8 FF FF 7F F8 FF FF          S.......
0050: 7F 74 68 6B 32 00                                 .thk2.          
```

#### Opcodes

```
  0: 0x0048 [0x53] WAIT_SCHEDULER_TASK: Wait for scheduler "thk2" with entities [EventEntity, EventEntity]
  1: 0x0055 [0x00] END_REQSTACK()
```

### Event 65535.7

#### Metadata

| Field        | Value   |
|--------------|---------|
| Entrypoint   | 0x0056  |
| Data Size    | 9 bytes |
| Instructions | 3       |

```
      00 01 02 03 04 05 06 07  08 09 0A 0B 0C 0D 0E 0F
      -- -- -- -- -- -- -- --  -- -- -- -- -- -- -- --
0050:                   5E 69  64 6C 30 1C 01 80 00           ^idl0.... 
```

#### Opcodes

```
  0: 0x0056 [0x5E] EventEntity goes idle (kills current action) (animation: "idl0")
  1: 0x005B [0x1C] WAIT(30* ticks)
  2: 0x005E [0x00] END_REQSTACK()
```

### Event 424

#### Metadata

| Field        | Value    |
|--------------|----------|
| Entrypoint   | 0x005F   |
| Data Size    | 36 bytes |
| Instructions | 13       |

```
      00 01 02 03 04 05 06 07  08 09 0A 0B 0C 0D 0E 0F
      -- -- -- -- -- -- -- --  -- -- -- -- -- -- -- --
0050:                                               1E                 .
0060: F0 FF FF 7F 6F 70 29 08  B5 10 0F 01 01 1D 02 80  ....op).........
0070: 23 1D 03 80 23 29 08 B5  10 0F 01 02 1A 26 03 20  #...#).......&. 
0080: 00 21 00                                          .!.             
```

#### Opcodes

```
  0: 0x005F [0x1E] EventEntity looks at LocalPlayer and starts talking
  1: 0x0064 [0x6F] WAIT_FRAME_DELAY: Yield until WaitTime reaches zero
  2: 0x0065 [0x70] WAIT_ENTITY_RENDER_FLAG: Wait while EventEntity->Render.Flags3 bit 2 is set (cancel turn if not)
  3: 0x0066 [0x29] REQ_SET_WAIT(priority=0x08, entity_id=Gioh Ajihri (ID: 17764533/0x010F10B5), tag_num=0x01)
  4: 0x006D [0x1D] PRINT_EVENT_MESSAGE(message_id=8525*)
    → "Perih Vashai is a Mithran heroine who rrrendered great service during the war twenty years ago."
  5: 0x0070 [0x23] WAIT_FOR_DIALOG_INTERACTION
  6: 0x0071 [0x1D] PRINT_EVENT_MESSAGE(message_id=8526*)
    → "She lost a great many things back then, but never did she lose her pride or break her pledge. It just goes to show that physical strength is not the sole rrrequisite to be a hero."
  7: 0x0074 [0x23] WAIT_FOR_DIALOG_INTERACTION
  8: 0x0075 [0x29] REQ_SET_WAIT(priority=0x08, entity_id=Gioh Ajihri (ID: 17764533/0x010F10B5), tag_num=0x02)
  9: 0x007C [0x1A] CALL_SUBROUTINE(address=0x0326)
 10: 0x007F [0x20] SET_CLI_EVENT_UC_FLAG: Unlock player control
 11: 0x0081 [0x21] END_EVENT
 12: 0x0082 [0x00] END_REQSTACK()
```

### Event 87

#### Metadata

| Field        | Value    |
|--------------|----------|
| Entrypoint   | 0x0083   |
| Data Size    | 36 bytes |
| Instructions | 13       |

```
      00 01 02 03 04 05 06 07  08 09 0A 0B 0C 0D 0E 0F
      -- -- -- -- -- -- -- --  -- -- -- -- -- -- -- --
0080:          1E F0 FF FF 7F  6F 70 29 08 B5 10 0F 01     .....op).....
0090: 01 1D 04 80 23 1D 05 80  23 29 08 B5 10 0F 01 02  ....#...#)......
00A0: 1A 26 03 20 00 21 00                              .&. .!.         
```

#### Opcodes

```
  0: 0x0083 [0x1E] EventEntity looks at LocalPlayer and starts talking
  1: 0x0088 [0x6F] WAIT_FRAME_DELAY: Yield until WaitTime reaches zero
  2: 0x0089 [0x70] WAIT_ENTITY_RENDER_FLAG: Wait while EventEntity->Render.Flags3 bit 2 is set (cancel turn if not)
  3: 0x008A [0x29] REQ_SET_WAIT(priority=0x08, entity_id=Gioh Ajihri (ID: 17764533/0x010F10B5), tag_num=0x01)
  4: 0x0091 [0x1D] PRINT_EVENT_MESSAGE(message_id=7612*)
    → "Trying to win Nanaa Mihgo over is a waste of time! The most she will do is rrreturn your kindness with hostility."
  5: 0x0094 [0x23] WAIT_FOR_DIALOG_INTERACTION
  6: 0x0095 [0x1D] PRINT_EVENT_MESSAGE(message_id=7613*)
    → "Looking at her, I rrrealize it's not a person's birth, but their upbringing, that determines who they become."
  7: 0x0098 [0x23] WAIT_FOR_DIALOG_INTERACTION
  8: 0x0099 [0x29] REQ_SET_WAIT(priority=0x08, entity_id=Gioh Ajihri (ID: 17764533/0x010F10B5), tag_num=0x02)
  9: 0x00A0 [0x1A] CALL_SUBROUTINE(address=0x0326)
 10: 0x00A3 [0x20] SET_CLI_EVENT_UC_FLAG: Unlock player control
 11: 0x00A5 [0x21] END_EVENT
 12: 0x00A6 [0x00] END_REQSTACK()
```

### Event 487

#### Metadata

| Field        | Value     |
|--------------|-----------|
| Entrypoint   | 0x00A7    |
| Data Size    | 182 bytes |
| Instructions | 32        |

```
      00 01 02 03 04 05 06 07  08 09 0A 0B 0C 0D 0E 0F
      -- -- -- -- -- -- -- --  -- -- -- -- -- -- -- --
00A0:                      4A  B6 10 0F 01 B5 10 0F 01         J........
00B0: 4A B5 10 0F 01 B6 10 0F  01 6F 76 B6 10 0F 01 29  J........ov....)
00C0: 08 B6 10 0F 01 01 29 0B  B6 10 0F 01 07 29 08 B6  ......)......)..
00D0: 10 0F 01 02 6F 76 B5 10  0F 01 29 08 B5 10 0F 01  ....ov....).....
00E0: 03 29 0B B5 10 0F 01 0B  29 08 B5 10 0F 01 04 29  .)......)......)
00F0: 08 B6 10 0F 01 01 29 0B  B6 10 0F 01 08 29 08 B6  ......)......)..
0100: 10 0F 01 02 29 08 B5 10  0F 01 05 29 0B B5 10 0F  ....)......)....
0110: 01 0C 29 08 B5 10 0F 01  06 79 00 B6 10 0F 01 F0  ..)......y......
0120: FF FF 7F 29 08 B6 10 0F  01 01 29 0B B6 10 0F 01  ...)......).....
0130: 09 29 08 B6 10 0F 01 02  1E F0 FF FF 7F 6F 70 29  .)...........op)
0140: 08 B5 10 0F 01 01 29 0B  B5 10 0F 01 0D 29 08 B5  ......)......)..
0150: 10 0F 01 02 7B B6 10 0F  01 20 00 21 00           ....{.... .!.   
```

#### Opcodes

```
  0: 0x00A7 [0x4A] Wani Casdohry (ID: 17764534/0x010F10B6) looks at Gioh Ajihri (ID: 17764533/0x010F10B5)
  1: 0x00B0 [0x4A] Gioh Ajihri (ID: 17764533/0x010F10B5) looks at Wani Casdohry (ID: 17764534/0x010F10B6)
  2: 0x00B9 [0x6F] WAIT_FRAME_DELAY: Yield until WaitTime reaches zero
  3: 0x00BA [0x76] CHECK_ENTITY_RENDER_FLAGS: Wait until Wani Casdohry (ID: 17764534/0x010F10B6) Render.Flags0 and Render.Flags3 conditions are met
  4: 0x00BF [0x29] REQ_SET_WAIT(priority=0x08, entity_id=Wani Casdohry (ID: 17764534/0x010F10B6), tag_num=0x01)
  5: 0x00C6 [0x29] REQ_SET_WAIT(priority=0x0B, entity_id=Wani Casdohry (ID: 17764534/0x010F10B6), tag_num=0x07)
  6: 0x00CD [0x29] REQ_SET_WAIT(priority=0x08, entity_id=Wani Casdohry (ID: 17764534/0x010F10B6), tag_num=0x02)
  7: 0x00D4 [0x6F] WAIT_FRAME_DELAY: Yield until WaitTime reaches zero
  8: 0x00D5 [0x76] CHECK_ENTITY_RENDER_FLAGS: Wait until Gioh Ajihri (ID: 17764533/0x010F10B5) Render.Flags0 and Render.Flags3 conditions are met
  9: 0x00DA [0x29] REQ_SET_WAIT(priority=0x08, entity_id=Gioh Ajihri (ID: 17764533/0x010F10B5), tag_num=0x03)
 10: 0x00E1 [0x29] REQ_SET_WAIT(priority=0x0B, entity_id=Gioh Ajihri (ID: 17764533/0x010F10B5), tag_num=0x0B)
 11: 0x00E8 [0x29] REQ_SET_WAIT(priority=0x08, entity_id=Gioh Ajihri (ID: 17764533/0x010F10B5), tag_num=0x04)
 12: 0x00EF [0x29] REQ_SET_WAIT(priority=0x08, entity_id=Wani Casdohry (ID: 17764534/0x010F10B6), tag_num=0x01)
 13: 0x00F6 [0x29] REQ_SET_WAIT(priority=0x0B, entity_id=Wani Casdohry (ID: 17764534/0x010F10B6), tag_num=0x08)
 14: 0x00FD [0x29] REQ_SET_WAIT(priority=0x08, entity_id=Wani Casdohry (ID: 17764534/0x010F10B6), tag_num=0x02)
 15: 0x0104 [0x29] REQ_SET_WAIT(priority=0x08, entity_id=Gioh Ajihri (ID: 17764533/0x010F10B5), tag_num=0x05)
 16: 0x010B [0x29] REQ_SET_WAIT(priority=0x0B, entity_id=Gioh Ajihri (ID: 17764533/0x010F10B5), tag_num=0x0C)
 17: 0x0112 [0x29] REQ_SET_WAIT(priority=0x08, entity_id=Gioh Ajihri (ID: 17764533/0x010F10B5), tag_num=0x06)
 18: 0x0119 [0x79] Wani Casdohry (ID: 17764534/0x010F10B6) looks at LocalPlayer (Basic look)
 19: 0x0123 [0x29] REQ_SET_WAIT(priority=0x08, entity_id=Wani Casdohry (ID: 17764534/0x010F10B6), tag_num=0x01)
 20: 0x012A [0x29] REQ_SET_WAIT(priority=0x0B, entity_id=Wani Casdohry (ID: 17764534/0x010F10B6), tag_num=0x09)
 21: 0x0131 [0x29] REQ_SET_WAIT(priority=0x08, entity_id=Wani Casdohry (ID: 17764534/0x010F10B6), tag_num=0x02)
 22: 0x0138 [0x1E] EventEntity looks at LocalPlayer and starts talking
 23: 0x013D [0x6F] WAIT_FRAME_DELAY: Yield until WaitTime reaches zero
 24: 0x013E [0x70] WAIT_ENTITY_RENDER_FLAG: Wait while EventEntity->Render.Flags3 bit 2 is set (cancel turn if not)
 25: 0x013F [0x29] REQ_SET_WAIT(priority=0x08, entity_id=Gioh Ajihri (ID: 17764533/0x010F10B5), tag_num=0x01)
 26: 0x0146 [0x29] REQ_SET_WAIT(priority=0x0B, entity_id=Gioh Ajihri (ID: 17764533/0x010F10B5), tag_num=0x0D)
 27: 0x014D [0x29] REQ_SET_WAIT(priority=0x08, entity_id=Gioh Ajihri (ID: 17764533/0x010F10B5), tag_num=0x02)
 28: 0x0154 [0x7B] Wani Casdohry (ID: 17764534/0x010F10B6) stops talking
 29: 0x0159 [0x20] SET_CLI_EVENT_UC_FLAG: Unlock player control
 30: 0x015B [0x21] END_EVENT
 31: 0x015C [0x00] END_REQSTACK()
```

### Event 65535.8

#### Metadata

| Field        | Value   |
|--------------|---------|
| Entrypoint   | 0x015D  |
| Data Size    | 5 bytes |
| Instructions | 3       |

```
      00 01 02 03 04 05 06 07  08 09 0A 0B 0C 0D 0E 0F
      -- -- -- -- -- -- -- --  -- -- -- -- -- -- -- --
0150:                                         1D 06 80               ...
0160: 23 00                                             #.              
```

#### Opcodes

```
  0: 0x015D [0x1D] PRINT_EVENT_MESSAGE(message_id=8719*)
    → "That's no rrreal surprise. As far as Semih Lafihna is concerned, her Mithran heritage is of no consequence in her position in Tarutaru society. Why, she may as well have been born a Tarutaru."
  1: 0x0160 [0x23] WAIT_FOR_DIALOG_INTERACTION
  2: 0x0161 [0x00] END_REQSTACK()
```

### Event 65535.9

#### Metadata

| Field        | Value   |
|--------------|---------|
| Entrypoint   | 0x0162  |
| Data Size    | 9 bytes |
| Instructions | 5       |

```
      00 01 02 03 04 05 06 07  08 09 0A 0B 0C 0D 0E 0F
      -- -- -- -- -- -- -- --  -- -- -- -- -- -- -- --
0160:       1D 07 80 23 1D 08  80 23 00                   ...#...#.     
```

#### Opcodes

```
  0: 0x0162 [0x1D] PRINT_EVENT_MESSAGE(message_id=8721*)
    → "Nothing rrreally would change... But that is a matter which is out of our paws..."
  1: 0x0165 [0x23] WAIT_FOR_DIALOG_INTERACTION
  2: 0x0166 [0x1D] PRINT_EVENT_MESSAGE(message_id=8722*)
    → "Out of honor for our old chieftainness, we must help in the preparations to crown Semih Lafihna as the new chieftainness."
  3: 0x0169 [0x23] WAIT_FOR_DIALOG_INTERACTION
  4: 0x016A [0x00] END_REQSTACK()
```

### Event 65535.10

#### Metadata

| Field        | Value   |
|--------------|---------|
| Entrypoint   | 0x016B  |
| Data Size    | 9 bytes |
| Instructions | 5       |

```
      00 01 02 03 04 05 06 07  08 09 0A 0B 0C 0D 0E 0F
      -- -- -- -- -- -- -- --  -- -- -- -- -- -- -- --
0160:                                   1D 09 80 23 1D             ...#.
0170: 0A 80 23 00                                       ..#.            
```

#### Opcodes

```
  0: 0x016B [0x1D] PRINT_EVENT_MESSAGE(message_id=8724*)
    → "Yes, let's... Excuse me, [sir/miss]... You wouldn't be intending to hunt monsters in the Meriphataud Mountains any time soon, would you?"
  1: 0x016E [0x23] WAIT_FOR_DIALOG_INTERACTION
  2: 0x016F [0x1D] PRINT_EVENT_MESSAGE(message_id=8725*)
    → "If you happen to come upon $1, could you please hand it over to us? Oh, and please don't ask why, just do it as a favor for us. Thank you!"
  3: 0x0172 [0x23] WAIT_FOR_DIALOG_INTERACTION
  4: 0x0173 [0x00] END_REQSTACK()
```

### Event 488

#### Metadata

| Field        | Value    |
|--------------|----------|
| Entrypoint   | 0x0174   |
| Data Size    | 36 bytes |
| Instructions | 13       |

```
      00 01 02 03 04 05 06 07  08 09 0A 0B 0C 0D 0E 0F
      -- -- -- -- -- -- -- --  -- -- -- -- -- -- -- --
0170:             1E F0 FF FF  7F 6F 70 29 08 B5 10 0F      .....op)....
0180: 01 01 1D 0B 80 23 1D 0C  80 23 29 08 B5 10 0F 01  .....#...#).....
0190: 02 1A 26 03 20 00 21 00                           ..&. .!.        
```

#### Opcodes

```
  0: 0x0174 [0x1E] EventEntity looks at LocalPlayer and starts talking
  1: 0x0179 [0x6F] WAIT_FRAME_DELAY: Yield until WaitTime reaches zero
  2: 0x017A [0x70] WAIT_ENTITY_RENDER_FLAG: Wait while EventEntity->Render.Flags3 bit 2 is set (cancel turn if not)
  3: 0x017B [0x29] REQ_SET_WAIT(priority=0x08, entity_id=Gioh Ajihri (ID: 17764533/0x010F10B5), tag_num=0x01)
  4: 0x0182 [0x1D] PRINT_EVENT_MESSAGE(message_id=8726*)
    → "Excuse me [sir/miss]... You wouldn't be intending to hunt monsters in the Meriphataud Mountains any time soon, would you?"
  5: 0x0185 [0x23] WAIT_FOR_DIALOG_INTERACTION
  6: 0x0186 [0x1D] PRINT_EVENT_MESSAGE(message_id=8727*)
    → "If you happen to come upon $1, could you please hand it over to us? Oh, and please don't ask why, just do it as a favor for us. Thank you!"
  7: 0x0189 [0x23] WAIT_FOR_DIALOG_INTERACTION
  8: 0x018A [0x29] REQ_SET_WAIT(priority=0x08, entity_id=Gioh Ajihri (ID: 17764533/0x010F10B5), tag_num=0x02)
  9: 0x0191 [0x1A] CALL_SUBROUTINE(address=0x0326)
 10: 0x0194 [0x20] SET_CLI_EVENT_UC_FLAG: Unlock player control
 11: 0x0196 [0x21] END_EVENT
 12: 0x0197 [0x00] END_REQSTACK()
```

### Event 490

#### Metadata

| Field        | Value    |
|--------------|----------|
| Entrypoint   | 0x0198   |
| Data Size    | 81 bytes |
| Instructions | 19       |

```
      00 01 02 03 04 05 06 07  08 09 0A 0B 0C 0D 0E 0F
      -- -- -- -- -- -- -- --  -- -- -- -- -- -- -- --
0190:                          20 01 42 1E F0 FF FF 7F           .B.....
01A0: 6F 70 29 08 B5 10 0F 01  01 1D 0D 80 23 29 08 B5  op).........#)..
01B0: 10 0F 01 02 29 08 B5 10  0F 01 03 1D 0E 80 23 29  ....).........#)
01C0: 08 B5 10 0F 01 04 29 08  B5 10 0F 01 05 29 08 B5  ......)......)..
01D0: 10 0F 01 06 45 0F 80 F0  FF FF 7F F0 FF FF 7F 71  ....E..........q
01E0: 73 74 63 10 80 20 00 21  00                       stc.. .!.       
```

#### Opcodes

```
  0: 0x0198 [0x20] SET_CLI_EVENT_UC_FLAG: Lock player control
  1: 0x019A [0x42] SET_CLI_EVENT_CANCEL_DATA()
  2: 0x019B [0x1E] EventEntity looks at LocalPlayer and starts talking
  3: 0x01A0 [0x6F] WAIT_FRAME_DELAY: Yield until WaitTime reaches zero
  4: 0x01A1 [0x70] WAIT_ENTITY_RENDER_FLAG: Wait while EventEntity->Render.Flags3 bit 2 is set (cancel turn if not)
  5: 0x01A2 [0x29] REQ_SET_WAIT(priority=0x08, entity_id=Gioh Ajihri (ID: 17764533/0x010F10B5), tag_num=0x01)
  6: 0x01A9 [0x1D] PRINT_EVENT_MESSAGE(message_id=8729*)
    → "Oh good, you found one. Here, I'll give you this as a sign of our appreciation..."
  7: 0x01AC [0x23] WAIT_FOR_DIALOG_INTERACTION
  8: 0x01AD [0x29] REQ_SET_WAIT(priority=0x08, entity_id=Gioh Ajihri (ID: 17764533/0x010F10B5), tag_num=0x02)
  9: 0x01B4 [0x29] REQ_SET_WAIT(priority=0x08, entity_id=Gioh Ajihri (ID: 17764533/0x010F10B5), tag_num=0x03)
 10: 0x01BB [0x1D] PRINT_EVENT_MESSAGE(message_id=8730*)
    → "(I just hope it can fit that other gem properly...)"
 11: 0x01BE [0x23] WAIT_FOR_DIALOG_INTERACTION
 12: 0x01BF [0x29] REQ_SET_WAIT(priority=0x08, entity_id=Gioh Ajihri (ID: 17764533/0x010F10B5), tag_num=0x04)
 13: 0x01C6 [0x29] REQ_SET_WAIT(priority=0x08, entity_id=Gioh Ajihri (ID: 17764533/0x010F10B5), tag_num=0x05)
 14: 0x01CD [0x29] REQ_SET_WAIT(priority=0x08, entity_id=Gioh Ajihri (ID: 17764533/0x010F10B5), tag_num=0x06)
 15: 0x01D4 [0x45] LOAD_SCHEDULED_TASK: Load scheduler "qstc" with entities [LocalPlayer, LocalPlayer], work=[201*, 0*]
 16: 0x01E5 [0x20] SET_CLI_EVENT_UC_FLAG: Unlock player control
 17: 0x01E7 [0x21] END_EVENT
 18: 0x01E8 [0x00] END_REQSTACK()
```

### Event 491

#### Metadata

| Field        | Value    |
|--------------|----------|
| Entrypoint   | 0x01E9   |
| Data Size    | 36 bytes |
| Instructions | 13       |

```
      00 01 02 03 04 05 06 07  08 09 0A 0B 0C 0D 0E 0F
      -- -- -- -- -- -- -- --  -- -- -- -- -- -- -- --
01E0:                             1E F0 FF FF 7F 6F 70           .....op
01F0: 29 08 B5 10 0F 01 01 1D  11 80 23 1D 12 80 23 29  ).........#...#)
0200: 08 B5 10 0F 01 02 1A 26  03 20 00 21 00           .......&. .!.   
```

#### Opcodes

```
  0: 0x01E9 [0x1E] EventEntity looks at LocalPlayer and starts talking
  1: 0x01EE [0x6F] WAIT_FRAME_DELAY: Yield until WaitTime reaches zero
  2: 0x01EF [0x70] WAIT_ENTITY_RENDER_FLAG: Wait while EventEntity->Render.Flags3 bit 2 is set (cancel turn if not)
  3: 0x01F0 [0x29] REQ_SET_WAIT(priority=0x08, entity_id=Gioh Ajihri (ID: 17764533/0x010F10B5), tag_num=0x01)
  4: 0x01F7 [0x1D] PRINT_EVENT_MESSAGE(message_id=8731*)
    → "Deep in the Meriphataud Mountains, there is a bastion of the Yagudo called Castle Oztroja. It is a place where terrific wars were fought."
  5: 0x01FA [0x23] WAIT_FOR_DIALOG_INTERACTION
  6: 0x01FB [0x1D] PRINT_EVENT_MESSAGE(message_id=8732*)
    → "Innumerable Mithran fighters were felled there. This $1 belonged to one of those fallen warriors."
  7: 0x01FE [0x23] WAIT_FOR_DIALOG_INTERACTION
  8: 0x01FF [0x29] REQ_SET_WAIT(priority=0x08, entity_id=Gioh Ajihri (ID: 17764533/0x010F10B5), tag_num=0x02)
  9: 0x0206 [0x1A] CALL_SUBROUTINE(address=0x0326)
 10: 0x0209 [0x20] SET_CLI_EVENT_UC_FLAG: Unlock player control
 11: 0x020B [0x21] END_EVENT
 12: 0x020C [0x00] END_REQSTACK()
```

### Event 493

#### Metadata

| Field        | Value    |
|--------------|----------|
| Entrypoint   | 0x020D   |
| Data Size    | 33 bytes |
| Instructions | 12       |

```
      00 01 02 03 04 05 06 07  08 09 0A 0B 0C 0D 0E 0F
      -- -- -- -- -- -- -- --  -- -- -- -- -- -- -- --
0200:                                         1E F0 FF               ...
0210: FF 7F 6F 70 29 08 B5 10  0F 01 01 1D 13 80 23 1D  ..op).........#.
0220: 14 80 23 29 08 B5 10 0F  01 02 20 00 21 00        ..#)...... .!.  
```

#### Opcodes

```
  0: 0x020D [0x1E] EventEntity looks at LocalPlayer and starts talking
  1: 0x0212 [0x6F] WAIT_FRAME_DELAY: Yield until WaitTime reaches zero
  2: 0x0213 [0x70] WAIT_ENTITY_RENDER_FLAG: Wait while EventEntity->Render.Flags3 bit 2 is set (cancel turn if not)
  3: 0x0214 [0x29] REQ_SET_WAIT(priority=0x08, entity_id=Gioh Ajihri (ID: 17764533/0x010F10B5), tag_num=0x01)
  4: 0x021B [0x1D] PRINT_EVENT_MESSAGE(message_id=8736*)
    → "Hello again, adventurer. May I again make the same rrrequest as I did before.? I'd like you to search for $1 in the Meriphataud Mountains."
  5: 0x021E [0x23] WAIT_FOR_DIALOG_INTERACTION
  6: 0x021F [0x1D] PRINT_EVENT_MESSAGE(message_id=8737*)
    → "I'll pay a good price for any that you find. Once you find one, please bring it back to me as promptly as you can."
  7: 0x0222 [0x23] WAIT_FOR_DIALOG_INTERACTION
  8: 0x0223 [0x29] REQ_SET_WAIT(priority=0x08, entity_id=Gioh Ajihri (ID: 17764533/0x010F10B5), tag_num=0x02)
  9: 0x022A [0x20] SET_CLI_EVENT_UC_FLAG: Unlock player control
 10: 0x022C [0x21] END_EVENT
 11: 0x022D [0x00] END_REQSTACK()
```

### Event 550

#### Metadata

| Field        | Value    |
|--------------|----------|
| Entrypoint   | 0x022E   |
| Data Size    | 37 bytes |
| Instructions | 14       |

```
      00 01 02 03 04 05 06 07  08 09 0A 0B 0C 0D 0E 0F
      -- -- -- -- -- -- -- --  -- -- -- -- -- -- -- --
0220:                                            1E F0                ..
0230: FF FF 7F 6F 70 29 08 B5  10 0F 01 01 1D 15 80 23  ...op).........#
0240: 1D 16 80 23 1D 17 80 23  29 08 B5 10 0F 01 02 20  ...#...#)...... 
0250: 00 21 00                                          .!.             
```

#### Opcodes

```
  0: 0x022E [0x1E] EventEntity looks at LocalPlayer and starts talking
  1: 0x0233 [0x6F] WAIT_FRAME_DELAY: Yield until WaitTime reaches zero
  2: 0x0234 [0x70] WAIT_ENTITY_RENDER_FLAG: Wait while EventEntity->Render.Flags3 bit 2 is set (cancel turn if not)
  3: 0x0235 [0x29] REQ_SET_WAIT(priority=0x08, entity_id=Gioh Ajihri (ID: 17764533/0x010F10B5), tag_num=0x01)
  4: 0x023C [0x1D] PRINT_EVENT_MESSAGE(message_id=9394*)
    → "Ho there, adventurer. Have you come to take on the search for the $1?"
  5: 0x023F [0x23] WAIT_FOR_DIALOG_INTERACTION
  6: 0x0240 [0x1D] PRINT_EVENT_MESSAGE(message_id=9395*)
    → "There's actually no longer a need for it... But we should honor the brave warriors who brought about this time of peace."
  7: 0x0243 [0x23] WAIT_FOR_DIALOG_INTERACTION
  8: 0x0244 [0x1D] PRINT_EVENT_MESSAGE(message_id=9396*)
    → "Well, if you find any, bring them here the same as usual."
  9: 0x0247 [0x23] WAIT_FOR_DIALOG_INTERACTION
 10: 0x0248 [0x29] REQ_SET_WAIT(priority=0x08, entity_id=Gioh Ajihri (ID: 17764533/0x010F10B5), tag_num=0x02)
 11: 0x024F [0x20] SET_CLI_EVENT_UC_FLAG: Unlock player control
 12: 0x0251 [0x21] END_EVENT
 13: 0x0252 [0x00] END_REQSTACK()
```

### Event 551

#### Metadata

| Field        | Value    |
|--------------|----------|
| Entrypoint   | 0x0253   |
| Data Size    | 99 bytes |
| Instructions | 30       |

```
      00 01 02 03 04 05 06 07  08 09 0A 0B 0C 0D 0E 0F
      -- -- -- -- -- -- -- --  -- -- -- -- -- -- -- --
0250:          1E F0 FF FF 7F  6F 70 29 08 B5 10 0F 01     .....op).....
0260: 01 1D 18 80 23 1D 19 80  23 29 08 B5 10 0F 01 02  ....#...#)......
0270: 1D 1A 80 23 1D 1B 80 23  29 08 B5 10 0F 01 01 1D  ...#...#).......
0280: 1C 80 23 1D 1D 80 23 29  08 B5 10 0F 01 02 29 08  ..#...#)......).
0290: B5 10 0F 01 03 1D 1E 80  23 29 08 B5 10 0F 01 04  ........#)......
02A0: 29 08 B5 10 0F 01 05 1D  1F 80 23 29 08 B5 10 0F  ).........#)....
02B0: 01 06 20 00 21 00                                 .. .!.          
```

#### Opcodes

```
  0: 0x0253 [0x1E] EventEntity looks at LocalPlayer and starts talking
  1: 0x0258 [0x6F] WAIT_FRAME_DELAY: Yield until WaitTime reaches zero
  2: 0x0259 [0x70] WAIT_ENTITY_RENDER_FLAG: Wait while EventEntity->Render.Flags3 bit 2 is set (cancel turn if not)
  3: 0x025A [0x29] REQ_SET_WAIT(priority=0x08, entity_id=Gioh Ajihri (ID: 17764533/0x010F10B5), tag_num=0x01)
  4: 0x0261 [0x1D] PRINT_EVENT_MESSAGE(message_id=9397*)
    → "Ah, you've arrived. With your help, Semih Lafihna has become a little more rrreceptive to the words of the chieftainness."
  5: 0x0264 [0x23] WAIT_FOR_DIALOG_INTERACTION
  6: 0x0265 [0x1D] PRINT_EVENT_MESSAGE(message_id=9398*)
    → "Now we have some peace around here. Especially since the Mithran Tracker has returned home convinced of the fate of the sinner's daughter."
  7: 0x0268 [0x23] WAIT_FOR_DIALOG_INTERACTION
  8: 0x0269 [0x29] REQ_SET_WAIT(priority=0x08, entity_id=Gioh Ajihri (ID: 17764533/0x010F10B5), tag_num=0x02)
  9: 0x0270 [0x1D] PRINT_EVENT_MESSAGE(message_id=9399*)
    → "Hmmm? You also went to Eldieme Necropolis to confirm her death?"
 10: 0x0273 [0x23] WAIT_FOR_DIALOG_INTERACTION
 11: 0x0274 [0x1D] PRINT_EVENT_MESSAGE(message_id=9400*)
    → "Heh-heh-heh. That wasn't the rrremains of the daughter. It was the final rrresting place of her mother, Nhev Befrathi."
 12: 0x0277 [0x23] WAIT_FOR_DIALOG_INTERACTION
 13: 0x0278 [0x29] REQ_SET_WAIT(priority=0x08, entity_id=Gioh Ajihri (ID: 17764533/0x010F10B5), tag_num=0x01)
 14: 0x027F [0x1D] PRINT_EVENT_MESSAGE(message_id=9401*)
    → "We had another adventurer like you find a set of ownerless-earrings. We placed them in the necropolis long before you got there."
 15: 0x0282 [0x23] WAIT_FOR_DIALOG_INTERACTION
 16: 0x0283 [0x1D] PRINT_EVENT_MESSAGE(message_id=9402*)
    → "Chieftainness Perih Vashai had predicted that another Mithran Tracker would show up eventually."
 17: 0x0286 [0x23] WAIT_FOR_DIALOG_INTERACTION
 18: 0x0287 [0x29] REQ_SET_WAIT(priority=0x08, entity_id=Gioh Ajihri (ID: 17764533/0x010F10B5), tag_num=0x02)
 19: 0x028E [0x29] REQ_SET_WAIT(priority=0x08, entity_id=Gioh Ajihri (ID: 17764533/0x010F10B5), tag_num=0x03)
 20: 0x0295 [0x1D] PRINT_EVENT_MESSAGE(message_id=9403*)
    → "But if you do happen to find any $1 in the Meriphataud Mountains, bring them here. I'll buy them from you."
 21: 0x0298 [0x23] WAIT_FOR_DIALOG_INTERACTION
 22: 0x0299 [0x29] REQ_SET_WAIT(priority=0x08, entity_id=Gioh Ajihri (ID: 17764533/0x010F10B5), tag_num=0x04)
 23: 0x02A0 [0x29] REQ_SET_WAIT(priority=0x08, entity_id=Gioh Ajihri (ID: 17764533/0x010F10B5), tag_num=0x05)
 24: 0x02A7 [0x1D] PRINT_EVENT_MESSAGE(message_id=9404*)
    → "They belonged to the Mithran warriors responsible for bringing about this time of peace. They should be properly honored."
 25: 0x02AA [0x23] WAIT_FOR_DIALOG_INTERACTION
 26: 0x02AB [0x29] REQ_SET_WAIT(priority=0x08, entity_id=Gioh Ajihri (ID: 17764533/0x010F10B5), tag_num=0x06)
 27: 0x02B2 [0x20] SET_CLI_EVENT_UC_FLAG: Unlock player control
 28: 0x02B4 [0x21] END_EVENT
 29: 0x02B5 [0x00] END_REQSTACK()
```

### Event 552

#### Metadata

| Field        | Value    |
|--------------|----------|
| Entrypoint   | 0x02B6   |
| Data Size    | 32 bytes |
| Instructions | 11       |

```
      00 01 02 03 04 05 06 07  08 09 0A 0B 0C 0D 0E 0F
      -- -- -- -- -- -- -- --  -- -- -- -- -- -- -- --
02B0:                   1E F0  FF FF 7F 6F 70 29 08 B5        .....op)..
02C0: 10 0F 01 01 1D 20 80 23  29 08 B5 10 0F 01 02 1A  ..... .#).......
02D0: 26 03 20 00 21 00                                 &. .!.          
```

#### Opcodes

```
  0: 0x02B6 [0x1E] EventEntity looks at LocalPlayer and starts talking
  1: 0x02BB [0x6F] WAIT_FRAME_DELAY: Yield until WaitTime reaches zero
  2: 0x02BC [0x70] WAIT_ENTITY_RENDER_FLAG: Wait while EventEntity->Render.Flags3 bit 2 is set (cancel turn if not)
  3: 0x02BD [0x29] REQ_SET_WAIT(priority=0x08, entity_id=Gioh Ajihri (ID: 17764533/0x010F10B5), tag_num=0x01)
  4: 0x02C4 [0x1D] PRINT_EVENT_MESSAGE(message_id=9405*)
    → "If you ever find any $1 in the Meriphataud Mountains, bring them back here. I will buy them from you to honor the fallen."
  5: 0x02C7 [0x23] WAIT_FOR_DIALOG_INTERACTION
  6: 0x02C8 [0x29] REQ_SET_WAIT(priority=0x08, entity_id=Gioh Ajihri (ID: 17764533/0x010F10B5), tag_num=0x02)
  7: 0x02CF [0x1A] CALL_SUBROUTINE(address=0x0326)
  8: 0x02D2 [0x20] SET_CLI_EVENT_UC_FLAG: Unlock player control
  9: 0x02D4 [0x21] END_EVENT
 10: 0x02D5 [0x00] END_REQSTACK()
```

### Event 555

#### Metadata

| Field        | Value    |
|--------------|----------|
| Entrypoint   | 0x02D6   |
| Data Size    | 47 bytes |
| Instructions | 12       |

```
      00 01 02 03 04 05 06 07  08 09 0A 0B 0C 0D 0E 0F
      -- -- -- -- -- -- -- --  -- -- -- -- -- -- -- --
02D0:                   42 1E  F0 FF FF 7F 6F 70 29 08        B.....op).
02E0: B5 10 0F 01 01 1D 21 80  23 29 08 B5 10 0F 01 02  ......!.#)......
02F0: 45 0F 80 F0 FF FF 7F F0  FF FF 7F 71 73 74 63 10  E..........qstc.
0300: 80 20 00 21 00                                    . .!.           
```

#### Opcodes

```
  0: 0x02D6 [0x42] SET_CLI_EVENT_CANCEL_DATA()
  1: 0x02D7 [0x1E] EventEntity looks at LocalPlayer and starts talking
  2: 0x02DC [0x6F] WAIT_FRAME_DELAY: Yield until WaitTime reaches zero
  3: 0x02DD [0x70] WAIT_ENTITY_RENDER_FLAG: Wait while EventEntity->Render.Flags3 bit 2 is set (cancel turn if not)
  4: 0x02DE [0x29] REQ_SET_WAIT(priority=0x08, entity_id=Gioh Ajihri (ID: 17764533/0x010F10B5), tag_num=0x01)
  5: 0x02E5 [0x1D] PRINT_EVENT_MESSAGE(message_id=9408*)
    → "You found some? Here, take this with my thanks."
  6: 0x02E8 [0x23] WAIT_FOR_DIALOG_INTERACTION
  7: 0x02E9 [0x29] REQ_SET_WAIT(priority=0x08, entity_id=Gioh Ajihri (ID: 17764533/0x010F10B5), tag_num=0x02)
  8: 0x02F0 [0x45] LOAD_SCHEDULED_TASK: Load scheduler "qstc" with entities [LocalPlayer, LocalPlayer], work=[201*, 0*]
  9: 0x0301 [0x20] SET_CLI_EVENT_UC_FLAG: Unlock player control
 10: 0x0303 [0x21] END_EVENT
 11: 0x0304 [0x00] END_REQSTACK()
```

### Event 556

#### Metadata

| Field        | Value     |
|--------------|-----------|
| Entrypoint   | 0x0305    |
| Data Size    | 173 bytes |
| Instructions | 12        |

```
      00 01 02 03 04 05 06 07  08 09 0A 0B 0C 0D 0E 0F
      -- -- -- -- -- -- -- --  -- -- -- -- -- -- -- --
0300:                1E F0 FF  FF 7F 6F 70 29 08 B5 10       .....op)...
0310: 0F 01 01 1D 22 80 23 1D  23 80 23 29 08 B5 10 0F  ....".#.#.#)....
0320: 01 02 20 00 21 00 03 01  10 24 80 43 00 43 01 02  .. .!....$.C.C..
0330: 04 10 10 80 00 3F 03 03  01 10 10 80 01 B1 03 42  .....?.........B
0340: 24 25 80 24 80 10 80 25  02 00 10 10 80 00 A1 03  $%.$...%........
0350: 1E F0 FF FF 7F 1C 01 80  03 01 10 26 80 43 00 43  ...........&.C.C
0360: 01 02 04 10 24 80 00 87  03 1D 27 80 23 5B 00 80  ....$.....'.#[..
0370: F8 FF FF 7F F8 FF FF 7F  74 6C 6B 30 1D 28 80 23  ........tlk0.(.#
0380: 1D 29 80 23 01 9E 03 1D  2A 80 23 5B 00 80 F8 FF  .).#....*.#[....
0390: FF 7F F8 FF FF 7F 74 6C  6B 30 1D 2B 80 23 01 B1  ......tlk0.+.#..
03A0: 03 02 00 10 24 80 00 B1  03 03 01 10 10 80 01 B1  ....$...........
03B0: 03 1B                                             ..              
```

#### Opcodes

```
  0: 0x0305 [0x1E] EventEntity looks at LocalPlayer and starts talking
  1: 0x030A [0x6F] WAIT_FRAME_DELAY: Yield until WaitTime reaches zero
  2: 0x030B [0x70] WAIT_ENTITY_RENDER_FLAG: Wait while EventEntity->Render.Flags3 bit 2 is set (cancel turn if not)
  3: 0x030C [0x29] REQ_SET_WAIT(priority=0x08, entity_id=Gioh Ajihri (ID: 17764533/0x010F10B5), tag_num=0x01)
  4: 0x0313 [0x1D] PRINT_EVENT_MESSAGE(message_id=9409*)
    → "Hello, adventurer. If you find any $1, bring them here to me."
  5: 0x0316 [0x23] WAIT_FOR_DIALOG_INTERACTION
  6: 0x0317 [0x1D] PRINT_EVENT_MESSAGE(message_id=9410*)
    → "Let us honor the Mithran warriors who fell in the Meriphataud Mountains."
  7: 0x031A [0x23] WAIT_FOR_DIALOG_INTERACTION
  8: 0x031B [0x29] REQ_SET_WAIT(priority=0x08, entity_id=Gioh Ajihri (ID: 17764533/0x010F10B5), tag_num=0x02)
  9: 0x0322 [0x20] SET_CLI_EVENT_UC_FLAG: Unlock player control
 10: 0x0324 [0x21] END_EVENT
 11: 0x0325 [0x00] END_REQSTACK()
```

#### Data or dead code:

```
# Dead code (unreachable instructions):
     0x0326 [0x03] Work_Zone[1] = 1*
     0x032B [0x43] SEND_EVENT_UPDATE: Send pending tag to server (packet 0x005B)
     0x032D [0x43] SEND_EVENT_UPDATE: Check pending flag (skip if not pending)
     0x032F [0x02] IF !(Work_Zone[4] == 0*) GOTO 0x033F
     0x0337 [0x03] Work_Zone[1] = 0*
     0x033C [0x01] GOTO 0x03B1
     0x033F [0x42] SET_CLI_EVENT_CANCEL_DATA()
     0x0340 [0x24] CREATE_DIALOG(message_id=11875*, default_option=1*, option_flags=0*)
    → "Ask if this person is the chick's owner? [Yes./No.]"
     0x0347 [0x25] WAIT_DIALOG_SELECT()
     0x0348 [0x02] IF !(Work_Zone[0] == 0*) GOTO 0x03A1
     0x0350 [0x1E] EventEntity looks at LocalPlayer and starts talking
     0x0355 [0x1C] WAIT(30* ticks)
     0x0358 [0x03] Work_Zone[1] = 2*
     0x035D [0x43] SEND_EVENT_UPDATE: Send pending tag to server (packet 0x005B)
     0x035F [0x43] SEND_EVENT_UPDATE: Check pending flag (skip if not pending)
     0x0361 [0x02] IF !(Work_Zone[4] == 1*) GOTO 0x0387
     0x0369 [0x1D] PRINT_EVENT_MESSAGE(message_id=11906*)
    → "You've got my chocobo!?"
     0x036C [0x23] WAIT_FOR_DIALOG_INTERACTION
     0x036D [0x5B] LOAD_EXT_SCHEDULER: Load scheduler "tlk0" with entities [EventEntity, EventEntity], work=359*
     0x037C [0x1D] PRINT_EVENT_MESSAGE(message_id=11907*)
    → "I couldn't find the little puffball no matter how harrrd I looked for him. I was sure he was filling the belly of some black-hearted monster about now!"
     0x037F [0x23] WAIT_FOR_DIALOG_INTERACTION
     0x0380 [0x1D] PRINT_EVENT_MESSAGE(message_id=11908*)
    → "Thank you! You're rrraising a chocobo too, right? I know a good story you can use..."
     0x0383 [0x23] WAIT_FOR_DIALOG_INTERACTION
     0x0384 [0x01] GOTO 0x039E
     0x0387 [0x1D] PRINT_EVENT_MESSAGE(message_id=11926*)
    → "You say you've got my chocobo?"
     0x038A [0x23] WAIT_FOR_DIALOG_INTERACTION
     0x038B [0x5B] LOAD_EXT_SCHEDULER: Load scheduler "tlk0" with entities [EventEntity, EventEntity], work=359*
     0x039A [0x1D] PRINT_EVENT_MESSAGE(message_id=11927*)
    → "I'm a rrranger, so I know how terrifying monsters can be. I would never take my eyes off a poor defenseless chocobo while we're on a walk! You must have the wrrrong person."
     0x039D [0x23] WAIT_FOR_DIALOG_INTERACTION
     0x039E [0x01] GOTO 0x03B1
     0x03A1 [0x02] IF !(Work_Zone[0] == 1*) GOTO 0x03B1
     0x03A9 [0x03] Work_Zone[1] = 0*
     0x03AE [0x01] GOTO 0x03B1
     0x03B1 [0x1B] RETURN
```
