# 17764574 - Shikaree M

## Common Data

| Field            | Value                    |
|------------------|--------------------------|
| Zone             | Windurst Woods (ID: 241) |
| Block Size       | 812 bytes                |
| Total Events     | 45                       |
| References Count | 54                       |

## List of Events

| Event ID                   | Entrypoint   |   Size |   Instructions |
|----------------------------|--------------|--------|----------------|
| [65535](#event-65535)      | 0x0000       |      1 |              1 |
| [65535.1](#event-655351)   | 0x0001       |     16 |              2 |
| [65535.2](#event-655352)   | 0x0011       |     22 |              4 |
| [65535.3](#event-655353)   | 0x0027       |     16 |              2 |
| [65535.4](#event-655354)   | 0x0037       |     14 |              2 |
| [65535.5](#event-655355)   | 0x0045       |      9 |              3 |
| [527](#event-527)          | 0x004E       |      1 |              1 |
| [65535.6](#event-655356)   | 0x004F       |     14 |              4 |
| [65535.7](#event-655357)   | 0x005D       |     14 |              4 |
| [65535.8](#event-655358)   | 0x006B       |     14 |              4 |
| [65535.9](#event-655359)   | 0x0079       |     23 |              6 |
| [65535.10](#event-6553510) | 0x0090       |      5 |              3 |
| [65535.11](#event-6553511) | 0x0095       |      5 |              3 |
| [65535.12](#event-6553512) | 0x009A       |      5 |              3 |
| [65535.13](#event-6553513) | 0x009F       |      9 |              5 |
| [65535.14](#event-6553514) | 0x00A8       |      5 |              3 |
| [65535.15](#event-6553515) | 0x00AD       |     10 |              2 |
| [65535.16](#event-6553516) | 0x00B7       |     10 |              2 |
| [65535.17](#event-6553517) | 0x00C1       |     29 |              7 |
| [65535.18](#event-6553518) | 0x00DE       |     14 |              4 |
| [65535.19](#event-6553519) | 0x00EC       |     14 |              4 |
| [535](#event-535)          | 0x00FA       |      1 |              1 |
| [65535.20](#event-6553520) | 0x00FB       |      5 |              3 |
| [65535.21](#event-6553521) | 0x0100       |      5 |              3 |
| [65535.22](#event-6553522) | 0x0105       |      5 |              3 |
| [65535.23](#event-6553523) | 0x010A       |      5 |              3 |
| [537](#event-537)          | 0x010F       |      1 |              1 |
| [65535.24](#event-6553524) | 0x0110       |      5 |              3 |
| [65535.25](#event-6553525) | 0x0115       |      5 |              3 |
| [65535.26](#event-6553526) | 0x011A       |      5 |              3 |
| [65535.27](#event-6553527) | 0x011F       |      5 |              3 |
| [65535.28](#event-6553528) | 0x0124       |      5 |              3 |
| [65535.29](#event-6553529) | 0x0129       |      5 |              3 |
| [65535.30](#event-6553530) | 0x012E       |      5 |              3 |
| [65535.31](#event-6553531) | 0x0133       |      5 |              3 |
| [65535.32](#event-6553532) | 0x0138       |      5 |              3 |
| [546](#event-546)          | 0x013D       |      1 |              1 |
| [65535.33](#event-6553533) | 0x013E       |     10 |              2 |
| [65535.34](#event-6553534) | 0x0148       |     29 |              7 |
| [65535.35](#event-6553535) | 0x0165       |     16 |              5 |
| [65535.36](#event-6553536) | 0x0175       |      5 |              3 |
| [65535.37](#event-6553537) | 0x017A       |      5 |              3 |
| [65535.38](#event-6553538) | 0x017F       |      5 |              3 |
| [65535.39](#event-6553539) | 0x0184       |      5 |              3 |
| [65535.40](#event-6553540) | 0x0189       |      5 |              3 |

## DAT References (imed_data)

|   Index | Hex Value   |   Dec Value |
|---------|-------------|-------------|
|       0 | 0x0167      |         359 |
|       1 | 0x001E      |          30 |
|       2 | 0x0165      |         357 |
|       3 | 0x000D      |          13 |
|       4 | 0x1CB2E     |      117550 |
|       5 | 0x1709E     |       94366 |
|       6 | 0xFFFFF15B  |  4294963547 |
|       7 | 0x1CB48     |      117576 |
|       8 | 0x16BA8     |       93096 |
|       9 | 0x1CACB     |      117451 |
|      10 | 0x1980A     |      104458 |
|      11 | 0xFFFFEF66  |  4294963046 |
|      12 | 0x1C3BD     |      115645 |
|      13 | 0x19B29     |      105257 |
|      14 | 0x22E0      |        8928 |
|      15 | 0x22E3      |        8931 |
|      16 | 0x22E5      |        8933 |
|      17 | 0x22E6      |        8934 |
|      18 | 0x22E7      |        8935 |
|      19 | 0x22E9      |        8937 |
|      20 | 0x0426      |        1062 |
|      21 | 0x1CA43     |      117315 |
|      22 | 0x16B83     |       93059 |
|      23 | 0x02FE      |         766 |
|      24 | 0x1CD58     |      118104 |
|      25 | 0x16BD8     |       93144 |
|      26 | 0x1CCFB     |      118011 |
|      27 | 0x18DCD     |      101837 |
|      28 | 0x245E      |        9310 |
|      29 | 0x245F      |        9311 |
|      30 | 0x2460      |        9312 |
|      31 | 0x2465      |        9317 |
|      32 | 0x246B      |        9323 |
|      33 | 0x246D      |        9325 |
|      34 | 0x246E      |        9326 |
|      35 | 0x246F      |        9327 |
|      36 | 0x2470      |        9328 |
|      37 | 0x2471      |        9329 |
|      38 | 0x2473      |        9331 |
|      39 | 0x2474      |        9332 |
|      40 | 0x2475      |        9333 |
|      41 | 0x1CF04     |      118532 |
|      42 | 0x166B3     |       91827 |
|      43 | 0x0613      |        1555 |
|      44 | 0x1C993     |      117139 |
|      45 | 0x16CDB     |       93403 |
|      46 | 0x1C900     |      116992 |
|      47 | 0x19601     |      103937 |
|      48 | 0xFFFFEF67  |  4294963047 |
|      49 | 0x2493      |        9363 |
|      50 | 0x2494      |        9364 |
|      51 | 0x2496      |        9366 |
|      52 | 0x2498      |        9368 |
|      53 | 0x2499      |        9369 |

## String References

- **8928**: Chieftainness Perih Vashai, I apologize for this interruption.
- **8931**: Attempt to rrreturn the past to dust if you will, but it will avail you naught. Dust is swept up by the wind, its scent carried on. The scent of my quarry.
- **8933**: Be that as it may, the loss of the Bow of Light does not sit well with me.
- **8934**: I will speak bluntly. Perih Vashai, I believe you strrruck some kind of deal with the sinner.
- **8935**: Your daughter's age was close to that of the sinner's. Is it possible you sympathized with their plight?
- **8937**: As I'm sure you are well aware, I won't be leaving this land until I have hunted down the sinner. I will enlighten the people of the Outlands on the evils of hiding sin.
- **9310**: After learning the location of the daughter's final rrresting place, we trrraveled to a place known as the Eldieme Necropolis.
- **9311**: There, we found $1. Piecing togetherrr everything I have heard, I believe it must belong to the sinner's daughter.
- **9312**: However, one problem rrremains. Where is the other half of the stone? Where is the grrrave of the mother?
- **9317**: Well, I will leave this task to you. Rrreturn here as soon as you find the $2.
- **9323**: You found it... Yes, it's a perrrfect match with Syu Befrathi's $1.
- **9325**: However, while this adventurer was perrrforming [his/her] task, I was busy talking with an important witness.
- **9326**: This witness claims that the use of a shining bow was rrresponsible for your loss of sight.
- **9327**: The witness also mentioned that the prisoners of Oztroja were saved by a bow that loosed arrows of light so dazzling, the Yagudo were struck blind. This could only describe the Bow of Light.
- **9328**: It is time for the truth to be known. You are concealing the Bow of Light, aren't you? Have you been seduced by its powerrr, Perih Vashai?
- **9329**: Even for one who is blind, surely you can see this has gone on long enough!
- **9331**: Very well. It is said that you are not one to run and hide.
- **9332**: I am in no hurry. Let us leave it at this for now.
- **9333**: And this, adventurer, I give to you. May you always be on the side of justice.
- **9363**: I now have the Bow of Light in my possession. The magicite that gave this bow its cursed power has been rrreturned to the land where it belongs.
- **9364**: I wish to express my heartfelt grrratitude to you, Semih Lafihna, for rrretrieving it from the wilds of the Northlands.
- **9366**: I see. I have much to thank you for.
- **9368**: It is $1. Please take them as a symbol of my rrrespect for your skill as a ranger.
- **9369**: And so, Chieftainness Perih Vashai, I leave this land behind me to begin my next hunt.

## Events

### Event 65535

#### Metadata

| Field        | Value   |
|--------------|---------|
| Entrypoint   | 0x0000  |
| Data Size    | 1 bytes |
| Instructions | 1       |

```
      00 01 02 03 04 05 06 07  08 09 0A 0B 0C 0D 0E 0F
      -- -- -- -- -- -- -- --  -- -- -- -- -- -- -- --
0000: 00                                                .               
```

#### Opcodes

```
  0: 0x0000 [0x00] END_REQSTACK()
```

### Event 65535.1

#### Metadata

| Field        | Value    |
|--------------|----------|
| Entrypoint   | 0x0001   |
| Data Size    | 16 bytes |
| Instructions | 2        |

```
      00 01 02 03 04 05 06 07  08 09 0A 0B 0C 0D 0E 0F
      -- -- -- -- -- -- -- --  -- -- -- -- -- -- -- --
0000:    5B 00 80 F8 FF FF 7F  F8 FF FF 7F 74 6C 6B 30   [..........tlk0
0010: 00                                                .               
```

#### Opcodes

```
  0: 0x0001 [0x5B] LOAD_EXT_SCHEDULER: Load scheduler "tlk0" with entities [EventEntity, EventEntity], work=359*
  1: 0x0010 [0x00] END_REQSTACK()
```

### Event 65535.2

#### Metadata

| Field        | Value    |
|--------------|----------|
| Entrypoint   | 0x0011   |
| Data Size    | 22 bytes |
| Instructions | 4        |

```
      00 01 02 03 04 05 06 07  08 09 0A 0B 0C 0D 0E 0F
      -- -- -- -- -- -- -- --  -- -- -- -- -- -- -- --
0010:    53 F8 FF FF 7F F8 FF  FF 7F 74 6C 6B 30 5E 69   S........tlk0^i
0020: 64 6C 30 1C 01 80 00                              dl0....         
```

#### Opcodes

```
  0: 0x0011 [0x53] WAIT_SCHEDULER_TASK: Wait for scheduler "tlk0" with entities [EventEntity, EventEntity]
  1: 0x001E [0x5E] EventEntity goes idle (kills current action) (animation: "idl0")
  2: 0x0023 [0x1C] WAIT(30* ticks)
  3: 0x0026 [0x00] END_REQSTACK()
```

### Event 65535.3

#### Metadata

| Field        | Value    |
|--------------|----------|
| Entrypoint   | 0x0027   |
| Data Size    | 16 bytes |
| Instructions | 2        |

```
      00 01 02 03 04 05 06 07  08 09 0A 0B 0C 0D 0E 0F
      -- -- -- -- -- -- -- --  -- -- -- -- -- -- -- --
0020:                      5B  02 80 F8 FF FF 7F F8 FF         [........
0030: FF 7F 70 61 73 30 00                              ..pas0.         
```

#### Opcodes

```
  0: 0x0027 [0x5B] LOAD_EXT_SCHEDULER: Load scheduler "pas0" with entities [EventEntity, EventEntity], work=357*
  1: 0x0036 [0x00] END_REQSTACK()
```

### Event 65535.4

#### Metadata

| Field        | Value    |
|--------------|----------|
| Entrypoint   | 0x0037   |
| Data Size    | 14 bytes |
| Instructions | 2        |

```
      00 01 02 03 04 05 06 07  08 09 0A 0B 0C 0D 0E 0F
      -- -- -- -- -- -- -- --  -- -- -- -- -- -- -- --
0030:                      53  F8 FF FF 7F F8 FF FF 7F         S........
0040: 70 61 73 30 00                                    pas0.           
```

#### Opcodes

```
  0: 0x0037 [0x53] WAIT_SCHEDULER_TASK: Wait for scheduler "pas0" with entities [EventEntity, EventEntity]
  1: 0x0044 [0x00] END_REQSTACK()
```

### Event 65535.5

#### Metadata

| Field        | Value   |
|--------------|---------|
| Entrypoint   | 0x0045  |
| Data Size    | 9 bytes |
| Instructions | 3       |

```
      00 01 02 03 04 05 06 07  08 09 0A 0B 0C 0D 0E 0F
      -- -- -- -- -- -- -- --  -- -- -- -- -- -- -- --
0040:                5E 69 64  6C 30 1C 01 80 00             ^idl0....  
```

#### Opcodes

```
  0: 0x0045 [0x5E] EventEntity goes idle (kills current action) (animation: "idl0")
  1: 0x004A [0x1C] WAIT(30* ticks)
  2: 0x004D [0x00] END_REQSTACK()
```

### Event 527

#### Metadata

| Field        | Value   |
|--------------|---------|
| Entrypoint   | 0x004E  |
| Data Size    | 1 bytes |
| Instructions | 1       |

```
      00 01 02 03 04 05 06 07  08 09 0A 0B 0C 0D 0E 0F
      -- -- -- -- -- -- -- --  -- -- -- -- -- -- -- --
0040:                                            00                   . 
```

#### Opcodes

```
  0: 0x004E [0x00] END_REQSTACK()
```

### Event 65535.6

#### Metadata

| Field        | Value    |
|--------------|----------|
| Entrypoint   | 0x004F   |
| Data Size    | 14 bytes |
| Instructions | 4        |

```
      00 01 02 03 04 05 06 07  08 09 0A 0B 0C 0D 0E 0F
      -- -- -- -- -- -- -- --  -- -- -- -- -- -- -- --
0040:                                               32                 2
0050: 03 80 1F 00 04 80 05 80  06 80 1F 01 00           .............   
```

#### Opcodes

```
  0: 0x004F [0x32] ExtData[1]->MainSpeed = 13* * 0.1
  1: 0x0052 [0x1F] MOVE_ENTITY: EventEntity moves to X=117.550*, Z=94.366*, Y=-3.749*
  2: 0x005A [0x1F] MOVE_ENTITY: Update entity position (mode=1)
  3: 0x005C [0x00] END_REQSTACK()
```

### Event 65535.7

#### Metadata

| Field        | Value    |
|--------------|----------|
| Entrypoint   | 0x005D   |
| Data Size    | 14 bytes |
| Instructions | 4        |

```
      00 01 02 03 04 05 06 07  08 09 0A 0B 0C 0D 0E 0F
      -- -- -- -- -- -- -- --  -- -- -- -- -- -- -- --
0050:                                         32 03 80               2..
0060: 1F 00 07 80 08 80 06 80  1F 01 00                 ...........     
```

#### Opcodes

```
  0: 0x005D [0x32] ExtData[1]->MainSpeed = 13* * 0.1
  1: 0x0060 [0x1F] MOVE_ENTITY: EventEntity moves to X=117.576*, Z=93.096*, Y=-3.749*
  2: 0x0068 [0x1F] MOVE_ENTITY: Update entity position (mode=1)
  3: 0x006A [0x00] END_REQSTACK()
```

### Event 65535.8

#### Metadata

| Field        | Value    |
|--------------|----------|
| Entrypoint   | 0x006B   |
| Data Size    | 14 bytes |
| Instructions | 4        |

```
      00 01 02 03 04 05 06 07  08 09 0A 0B 0C 0D 0E 0F
      -- -- -- -- -- -- -- --  -- -- -- -- -- -- -- --
0060:                                   32 03 80 1F 00             2....
0070: 04 80 05 80 06 80 1F 01  00                       .........       
```

#### Opcodes

```
  0: 0x006B [0x32] ExtData[1]->MainSpeed = 13* * 0.1
  1: 0x006E [0x1F] MOVE_ENTITY: EventEntity moves to X=117.550*, Z=94.366*, Y=-3.749*
  2: 0x0076 [0x1F] MOVE_ENTITY: Update entity position (mode=1)
  3: 0x0078 [0x00] END_REQSTACK()
```

### Event 65535.9

#### Metadata

| Field        | Value    |
|--------------|----------|
| Entrypoint   | 0x0079   |
| Data Size    | 23 bytes |
| Instructions | 6        |

```
      00 01 02 03 04 05 06 07  08 09 0A 0B 0C 0D 0E 0F
      -- -- -- -- -- -- -- --  -- -- -- -- -- -- -- --
0070:                             1F 00 09 80 0A 80 0B           .......
0080: 80 1F 01 1F 00 0C 80 0D  80 0B 80 1F 01 22 01 00  ............."..
```

#### Opcodes

```
  0: 0x0079 [0x1F] MOVE_ENTITY: EventEntity moves to X=117.451*, Z=104.458*, Y=-4.250*
  1: 0x0081 [0x1F] MOVE_ENTITY: Update entity position (mode=1)
  2: 0x0083 [0x1F] MOVE_ENTITY: EventEntity moves to X=115.645*, Z=105.257*, Y=-4.250*
  3: 0x008B [0x1F] MOVE_ENTITY: Update entity position (mode=1)
  4: 0x008D [0x22] ENTITY_HIDE_FLAG(enabled=0x01)
  5: 0x008F [0x00] END_REQSTACK()
```

### Event 65535.10

#### Metadata

| Field        | Value   |
|--------------|---------|
| Entrypoint   | 0x0090  |
| Data Size    | 5 bytes |
| Instructions | 3       |

```
      00 01 02 03 04 05 06 07  08 09 0A 0B 0C 0D 0E 0F
      -- -- -- -- -- -- -- --  -- -- -- -- -- -- -- --
0090: 1D 0E 80 23 00                                    ...#.           
```

#### Opcodes

```
  0: 0x0090 [0x1D] PRINT_EVENT_MESSAGE(message_id=8928*)
    → "Chieftainness Perih Vashai, I apologize for this interruption."
  1: 0x0093 [0x23] WAIT_FOR_DIALOG_INTERACTION
  2: 0x0094 [0x00] END_REQSTACK()
```

### Event 65535.11

#### Metadata

| Field        | Value   |
|--------------|---------|
| Entrypoint   | 0x0095  |
| Data Size    | 5 bytes |
| Instructions | 3       |

```
      00 01 02 03 04 05 06 07  08 09 0A 0B 0C 0D 0E 0F
      -- -- -- -- -- -- -- --  -- -- -- -- -- -- -- --
0090:                1D 0F 80  23 00                         ...#.      
```

#### Opcodes

```
  0: 0x0095 [0x1D] PRINT_EVENT_MESSAGE(message_id=8931*)
    → "Attempt to rrreturn the past to dust if you will, but it will avail you naught. Dust is swept up by the wind, its scent carried on. The scent of my quarry."
  1: 0x0098 [0x23] WAIT_FOR_DIALOG_INTERACTION
  2: 0x0099 [0x00] END_REQSTACK()
```

### Event 65535.12

#### Metadata

| Field        | Value   |
|--------------|---------|
| Entrypoint   | 0x009A  |
| Data Size    | 5 bytes |
| Instructions | 3       |

```
      00 01 02 03 04 05 06 07  08 09 0A 0B 0C 0D 0E 0F
      -- -- -- -- -- -- -- --  -- -- -- -- -- -- -- --
0090:                                1D 10 80 23 00               ...#. 
```

#### Opcodes

```
  0: 0x009A [0x1D] PRINT_EVENT_MESSAGE(message_id=8933*)
    → "Be that as it may, the loss of the Bow of Light does not sit well with me."
  1: 0x009D [0x23] WAIT_FOR_DIALOG_INTERACTION
  2: 0x009E [0x00] END_REQSTACK()
```

### Event 65535.13

#### Metadata

| Field        | Value   |
|--------------|---------|
| Entrypoint   | 0x009F  |
| Data Size    | 9 bytes |
| Instructions | 5       |

```
      00 01 02 03 04 05 06 07  08 09 0A 0B 0C 0D 0E 0F
      -- -- -- -- -- -- -- --  -- -- -- -- -- -- -- --
0090:                                               1D                 .
00A0: 11 80 23 1D 12 80 23 00                           ..#...#.        
```

#### Opcodes

```
  0: 0x009F [0x1D] PRINT_EVENT_MESSAGE(message_id=8934*)
    → "I will speak bluntly. Perih Vashai, I believe you strrruck some kind of deal with the sinner."
  1: 0x00A2 [0x23] WAIT_FOR_DIALOG_INTERACTION
  2: 0x00A3 [0x1D] PRINT_EVENT_MESSAGE(message_id=8935*)
    → "Your daughter's age was close to that of the sinner's. Is it possible you sympathized with their plight?"
  3: 0x00A6 [0x23] WAIT_FOR_DIALOG_INTERACTION
  4: 0x00A7 [0x00] END_REQSTACK()
```

### Event 65535.14

#### Metadata

| Field        | Value   |
|--------------|---------|
| Entrypoint   | 0x00A8  |
| Data Size    | 5 bytes |
| Instructions | 3       |

```
      00 01 02 03 04 05 06 07  08 09 0A 0B 0C 0D 0E 0F
      -- -- -- -- -- -- -- --  -- -- -- -- -- -- -- --
00A0:                          1D 13 80 23 00                   ...#.   
```

#### Opcodes

```
  0: 0x00A8 [0x1D] PRINT_EVENT_MESSAGE(message_id=8937*)
    → "As I'm sure you are well aware, I won't be leaving this land until I have hunted down the sinner. I will enlighten the people of the Outlands on the evils of hiding sin."
  1: 0x00AB [0x23] WAIT_FOR_DIALOG_INTERACTION
  2: 0x00AC [0x00] END_REQSTACK()
```

### Event 65535.15

#### Metadata

| Field        | Value    |
|--------------|----------|
| Entrypoint   | 0x00AD   |
| Data Size    | 10 bytes |
| Instructions | 2        |

```
      00 01 02 03 04 05 06 07  08 09 0A 0B 0C 0D 0E 0F
      -- -- -- -- -- -- -- --  -- -- -- -- -- -- -- --
00A0:                                         37 04 80               7..
00B0: 05 80 06 80 14 80 00                              .......         
```

#### Opcodes

```
  0: 0x00AD [0x37] UPDATE_EVENT_POSITION_AND_DIR: x=117.550*, z=94.366*, y=-3.749*, direction=93.3°*
  1: 0x00B6 [0x00] END_REQSTACK()
```

### Event 65535.16

#### Metadata

| Field        | Value    |
|--------------|----------|
| Entrypoint   | 0x00B7   |
| Data Size    | 10 bytes |
| Instructions | 2        |

```
      00 01 02 03 04 05 06 07  08 09 0A 0B 0C 0D 0E 0F
      -- -- -- -- -- -- -- --  -- -- -- -- -- -- -- --
00B0:                      37  15 80 16 80 06 80 17 80         7........
00C0: 00                                                .               
```

#### Opcodes

```
  0: 0x00B7 [0x37] UPDATE_EVENT_POSITION_AND_DIR: x=117.315*, z=93.059*, y=-3.749*, direction=67.3°*
  1: 0x00C0 [0x00] END_REQSTACK()
```

### Event 65535.17

#### Metadata

| Field        | Value    |
|--------------|----------|
| Entrypoint   | 0x00C1   |
| Data Size    | 29 bytes |
| Instructions | 7        |

```
      00 01 02 03 04 05 06 07  08 09 0A 0B 0C 0D 0E 0F
      -- -- -- -- -- -- -- --  -- -- -- -- -- -- -- --
00C0:    32 03 80 1F 00 18 80  19 80 06 80 1F 01 6F 29   2............o)
00D0: 08 DE 10 0F 01 03 29 08  DE 10 0F 01 04 00        ......).......  
```

#### Opcodes

```
  0: 0x00C1 [0x32] ExtData[1]->MainSpeed = 13* * 0.1
  1: 0x00C4 [0x1F] MOVE_ENTITY: EventEntity moves to X=118.104*, Z=93.144*, Y=-3.749*
  2: 0x00CC [0x1F] MOVE_ENTITY: Update entity position (mode=1)
  3: 0x00CE [0x6F] WAIT_FRAME_DELAY: Yield until WaitTime reaches zero
  4: 0x00CF [0x29] REQ_SET_WAIT(priority=0x08, entity_id=Shikaree M (ID: 17764574/0x010F10DE), tag_num=0x03)
  5: 0x00D6 [0x29] REQ_SET_WAIT(priority=0x08, entity_id=Shikaree M (ID: 17764574/0x010F10DE), tag_num=0x04)
  6: 0x00DD [0x00] END_REQSTACK()
```

### Event 65535.18

#### Metadata

| Field        | Value    |
|--------------|----------|
| Entrypoint   | 0x00DE   |
| Data Size    | 14 bytes |
| Instructions | 4        |

```
      00 01 02 03 04 05 06 07  08 09 0A 0B 0C 0D 0E 0F
      -- -- -- -- -- -- -- --  -- -- -- -- -- -- -- --
00D0:                                            32 03                2.
00E0: 80 1F 00 15 80 05 80 06  80 1F 01 00              ............    
```

#### Opcodes

```
  0: 0x00DE [0x32] ExtData[1]->MainSpeed = 13* * 0.1
  1: 0x00E1 [0x1F] MOVE_ENTITY: EventEntity moves to X=117.315*, Z=94.366*, Y=-3.749*
  2: 0x00E9 [0x1F] MOVE_ENTITY: Update entity position (mode=1)
  3: 0x00EB [0x00] END_REQSTACK()
```

### Event 65535.19

#### Metadata

| Field        | Value    |
|--------------|----------|
| Entrypoint   | 0x00EC   |
| Data Size    | 14 bytes |
| Instructions | 4        |

```
      00 01 02 03 04 05 06 07  08 09 0A 0B 0C 0D 0E 0F
      -- -- -- -- -- -- -- --  -- -- -- -- -- -- -- --
00E0:                                      32 03 80 1F              2...
00F0: 00 1A 80 1B 80 06 80 1F  01 00                    ..........      
```

#### Opcodes

```
  0: 0x00EC [0x32] ExtData[1]->MainSpeed = 13* * 0.1
  1: 0x00EF [0x1F] MOVE_ENTITY: EventEntity moves to X=118.011*, Z=101.837*, Y=-3.749*
  2: 0x00F7 [0x1F] MOVE_ENTITY: Update entity position (mode=1)
  3: 0x00F9 [0x00] END_REQSTACK()
```

### Event 535

#### Metadata

| Field        | Value   |
|--------------|---------|
| Entrypoint   | 0x00FA  |
| Data Size    | 1 bytes |
| Instructions | 1       |

```
      00 01 02 03 04 05 06 07  08 09 0A 0B 0C 0D 0E 0F
      -- -- -- -- -- -- -- --  -- -- -- -- -- -- -- --
00F0:                                00                           .     
```

#### Opcodes

```
  0: 0x00FA [0x00] END_REQSTACK()
```

### Event 65535.20

#### Metadata

| Field        | Value   |
|--------------|---------|
| Entrypoint   | 0x00FB  |
| Data Size    | 5 bytes |
| Instructions | 3       |

```
      00 01 02 03 04 05 06 07  08 09 0A 0B 0C 0D 0E 0F
      -- -- -- -- -- -- -- --  -- -- -- -- -- -- -- --
00F0:                                   1D 1C 80 23 00             ...#.
```

#### Opcodes

```
  0: 0x00FB [0x1D] PRINT_EVENT_MESSAGE(message_id=9310*)
    → "After learning the location of the daughter's final rrresting place, we trrraveled to a place known as the Eldieme Necropolis."
  1: 0x00FE [0x23] WAIT_FOR_DIALOG_INTERACTION
  2: 0x00FF [0x00] END_REQSTACK()
```

### Event 65535.21

#### Metadata

| Field        | Value   |
|--------------|---------|
| Entrypoint   | 0x0100  |
| Data Size    | 5 bytes |
| Instructions | 3       |

```
      00 01 02 03 04 05 06 07  08 09 0A 0B 0C 0D 0E 0F
      -- -- -- -- -- -- -- --  -- -- -- -- -- -- -- --
0100: 1D 1D 80 23 00                                    ...#.           
```

#### Opcodes

```
  0: 0x0100 [0x1D] PRINT_EVENT_MESSAGE(message_id=9311*)
    → "There, we found $1. Piecing togetherrr everything I have heard, I believe it must belong to the sinner's daughter."
  1: 0x0103 [0x23] WAIT_FOR_DIALOG_INTERACTION
  2: 0x0104 [0x00] END_REQSTACK()
```

### Event 65535.22

#### Metadata

| Field        | Value   |
|--------------|---------|
| Entrypoint   | 0x0105  |
| Data Size    | 5 bytes |
| Instructions | 3       |

```
      00 01 02 03 04 05 06 07  08 09 0A 0B 0C 0D 0E 0F
      -- -- -- -- -- -- -- --  -- -- -- -- -- -- -- --
0100:                1D 1E 80  23 00                         ...#.      
```

#### Opcodes

```
  0: 0x0105 [0x1D] PRINT_EVENT_MESSAGE(message_id=9312*)
    → "However, one problem rrremains. Where is the other half of the stone? Where is the grrrave of the mother?"
  1: 0x0108 [0x23] WAIT_FOR_DIALOG_INTERACTION
  2: 0x0109 [0x00] END_REQSTACK()
```

### Event 65535.23

#### Metadata

| Field        | Value   |
|--------------|---------|
| Entrypoint   | 0x010A  |
| Data Size    | 5 bytes |
| Instructions | 3       |

```
      00 01 02 03 04 05 06 07  08 09 0A 0B 0C 0D 0E 0F
      -- -- -- -- -- -- -- --  -- -- -- -- -- -- -- --
0100:                                1D 1F 80 23 00               ...#. 
```

#### Opcodes

```
  0: 0x010A [0x1D] PRINT_EVENT_MESSAGE(message_id=9317*)
    → "Well, I will leave this task to you. Rrreturn here as soon as you find the $2."
  1: 0x010D [0x23] WAIT_FOR_DIALOG_INTERACTION
  2: 0x010E [0x00] END_REQSTACK()
```

### Event 537

#### Metadata

| Field        | Value   |
|--------------|---------|
| Entrypoint   | 0x010F  |
| Data Size    | 1 bytes |
| Instructions | 1       |

```
      00 01 02 03 04 05 06 07  08 09 0A 0B 0C 0D 0E 0F
      -- -- -- -- -- -- -- --  -- -- -- -- -- -- -- --
0100:                                               00                 .
```

#### Opcodes

```
  0: 0x010F [0x00] END_REQSTACK()
```

### Event 65535.24

#### Metadata

| Field        | Value   |
|--------------|---------|
| Entrypoint   | 0x0110  |
| Data Size    | 5 bytes |
| Instructions | 3       |

```
      00 01 02 03 04 05 06 07  08 09 0A 0B 0C 0D 0E 0F
      -- -- -- -- -- -- -- --  -- -- -- -- -- -- -- --
0110: 1D 20 80 23 00                                    . .#.           
```

#### Opcodes

```
  0: 0x0110 [0x1D] PRINT_EVENT_MESSAGE(message_id=9323*)
    → "You found it... Yes, it's a perrrfect match with Syu Befrathi's $1."
  1: 0x0113 [0x23] WAIT_FOR_DIALOG_INTERACTION
  2: 0x0114 [0x00] END_REQSTACK()
```

### Event 65535.25

#### Metadata

| Field        | Value   |
|--------------|---------|
| Entrypoint   | 0x0115  |
| Data Size    | 5 bytes |
| Instructions | 3       |

```
      00 01 02 03 04 05 06 07  08 09 0A 0B 0C 0D 0E 0F
      -- -- -- -- -- -- -- --  -- -- -- -- -- -- -- --
0110:                1D 21 80  23 00                         .!.#.      
```

#### Opcodes

```
  0: 0x0115 [0x1D] PRINT_EVENT_MESSAGE(message_id=9325*)
    → "However, while this adventurer was perrrforming [his/her] task, I was busy talking with an important witness."
  1: 0x0118 [0x23] WAIT_FOR_DIALOG_INTERACTION
  2: 0x0119 [0x00] END_REQSTACK()
```

### Event 65535.26

#### Metadata

| Field        | Value   |
|--------------|---------|
| Entrypoint   | 0x011A  |
| Data Size    | 5 bytes |
| Instructions | 3       |

```
      00 01 02 03 04 05 06 07  08 09 0A 0B 0C 0D 0E 0F
      -- -- -- -- -- -- -- --  -- -- -- -- -- -- -- --
0110:                                1D 22 80 23 00               .".#. 
```

#### Opcodes

```
  0: 0x011A [0x1D] PRINT_EVENT_MESSAGE(message_id=9326*)
    → "This witness claims that the use of a shining bow was rrresponsible for your loss of sight."
  1: 0x011D [0x23] WAIT_FOR_DIALOG_INTERACTION
  2: 0x011E [0x00] END_REQSTACK()
```

### Event 65535.27

#### Metadata

| Field        | Value   |
|--------------|---------|
| Entrypoint   | 0x011F  |
| Data Size    | 5 bytes |
| Instructions | 3       |

```
      00 01 02 03 04 05 06 07  08 09 0A 0B 0C 0D 0E 0F
      -- -- -- -- -- -- -- --  -- -- -- -- -- -- -- --
0110:                                               1D                 .
0120: 23 80 23 00                                       #.#.            
```

#### Opcodes

```
  0: 0x011F [0x1D] PRINT_EVENT_MESSAGE(message_id=9327*)
    → "The witness also mentioned that the prisoners of Oztroja were saved by a bow that loosed arrows of light so dazzling, the Yagudo were struck blind. This could only describe the Bow of Light."
  1: 0x0122 [0x23] WAIT_FOR_DIALOG_INTERACTION
  2: 0x0123 [0x00] END_REQSTACK()
```

### Event 65535.28

#### Metadata

| Field        | Value   |
|--------------|---------|
| Entrypoint   | 0x0124  |
| Data Size    | 5 bytes |
| Instructions | 3       |

```
      00 01 02 03 04 05 06 07  08 09 0A 0B 0C 0D 0E 0F
      -- -- -- -- -- -- -- --  -- -- -- -- -- -- -- --
0120:             1D 24 80 23  00                           .$.#.       
```

#### Opcodes

```
  0: 0x0124 [0x1D] PRINT_EVENT_MESSAGE(message_id=9328*)
    → "It is time for the truth to be known. You are concealing the Bow of Light, aren't you? Have you been seduced by its powerrr, Perih Vashai?"
  1: 0x0127 [0x23] WAIT_FOR_DIALOG_INTERACTION
  2: 0x0128 [0x00] END_REQSTACK()
```

### Event 65535.29

#### Metadata

| Field        | Value   |
|--------------|---------|
| Entrypoint   | 0x0129  |
| Data Size    | 5 bytes |
| Instructions | 3       |

```
      00 01 02 03 04 05 06 07  08 09 0A 0B 0C 0D 0E 0F
      -- -- -- -- -- -- -- --  -- -- -- -- -- -- -- --
0120:                             1D 25 80 23 00                 .%.#.  
```

#### Opcodes

```
  0: 0x0129 [0x1D] PRINT_EVENT_MESSAGE(message_id=9329*)
    → "Even for one who is blind, surely you can see this has gone on long enough!"
  1: 0x012C [0x23] WAIT_FOR_DIALOG_INTERACTION
  2: 0x012D [0x00] END_REQSTACK()
```

### Event 65535.30

#### Metadata

| Field        | Value   |
|--------------|---------|
| Entrypoint   | 0x012E  |
| Data Size    | 5 bytes |
| Instructions | 3       |

```
      00 01 02 03 04 05 06 07  08 09 0A 0B 0C 0D 0E 0F
      -- -- -- -- -- -- -- --  -- -- -- -- -- -- -- --
0120:                                            1D 26                .&
0130: 80 23 00                                          .#.             
```

#### Opcodes

```
  0: 0x012E [0x1D] PRINT_EVENT_MESSAGE(message_id=9331*)
    → "Very well. It is said that you are not one to run and hide."
  1: 0x0131 [0x23] WAIT_FOR_DIALOG_INTERACTION
  2: 0x0132 [0x00] END_REQSTACK()
```

### Event 65535.31

#### Metadata

| Field        | Value   |
|--------------|---------|
| Entrypoint   | 0x0133  |
| Data Size    | 5 bytes |
| Instructions | 3       |

```
      00 01 02 03 04 05 06 07  08 09 0A 0B 0C 0D 0E 0F
      -- -- -- -- -- -- -- --  -- -- -- -- -- -- -- --
0130:          1D 27 80 23 00                              .'.#.        
```

#### Opcodes

```
  0: 0x0133 [0x1D] PRINT_EVENT_MESSAGE(message_id=9332*)
    → "I am in no hurry. Let us leave it at this for now."
  1: 0x0136 [0x23] WAIT_FOR_DIALOG_INTERACTION
  2: 0x0137 [0x00] END_REQSTACK()
```

### Event 65535.32

#### Metadata

| Field        | Value   |
|--------------|---------|
| Entrypoint   | 0x0138  |
| Data Size    | 5 bytes |
| Instructions | 3       |

```
      00 01 02 03 04 05 06 07  08 09 0A 0B 0C 0D 0E 0F
      -- -- -- -- -- -- -- --  -- -- -- -- -- -- -- --
0130:                          1D 28 80 23 00                   .(.#.   
```

#### Opcodes

```
  0: 0x0138 [0x1D] PRINT_EVENT_MESSAGE(message_id=9333*)
    → "And this, adventurer, I give to you. May you always be on the side of justice."
  1: 0x013B [0x23] WAIT_FOR_DIALOG_INTERACTION
  2: 0x013C [0x00] END_REQSTACK()
```

### Event 546

#### Metadata

| Field        | Value   |
|--------------|---------|
| Entrypoint   | 0x013D  |
| Data Size    | 1 bytes |
| Instructions | 1       |

```
      00 01 02 03 04 05 06 07  08 09 0A 0B 0C 0D 0E 0F
      -- -- -- -- -- -- -- --  -- -- -- -- -- -- -- --
0130:                                         00                     .  
```

#### Opcodes

```
  0: 0x013D [0x00] END_REQSTACK()
```

### Event 65535.33

#### Metadata

| Field        | Value    |
|--------------|----------|
| Entrypoint   | 0x013E   |
| Data Size    | 10 bytes |
| Instructions | 2        |

```
      00 01 02 03 04 05 06 07  08 09 0A 0B 0C 0D 0E 0F
      -- -- -- -- -- -- -- --  -- -- -- -- -- -- -- --
0130:                                            37 29                7)
0140: 80 2A 80 06 80 2B 80 00                           .*...+..        
```

#### Opcodes

```
  0: 0x013E [0x37] UPDATE_EVENT_POSITION_AND_DIR: x=118.532*, z=91.827*, y=-3.749*, direction=136.7°*
  1: 0x0147 [0x00] END_REQSTACK()
```

### Event 65535.34

#### Metadata

| Field        | Value    |
|--------------|----------|
| Entrypoint   | 0x0148   |
| Data Size    | 29 bytes |
| Instructions | 7        |

```
      00 01 02 03 04 05 06 07  08 09 0A 0B 0C 0D 0E 0F
      -- -- -- -- -- -- -- --  -- -- -- -- -- -- -- --
0140:                          32 03 80 1F 00 2C 80 2D          2....,.-
0150: 80 06 80 1F 01 6F 29 08  DE 10 0F 01 03 29 08 DE  .....o)......)..
0160: 10 0F 01 04 00                                    .....           
```

#### Opcodes

```
  0: 0x0148 [0x32] ExtData[1]->MainSpeed = 13* * 0.1
  1: 0x014B [0x1F] MOVE_ENTITY: EventEntity moves to X=117.139*, Z=93.403*, Y=-3.749*
  2: 0x0153 [0x1F] MOVE_ENTITY: Update entity position (mode=1)
  3: 0x0155 [0x6F] WAIT_FRAME_DELAY: Yield until WaitTime reaches zero
  4: 0x0156 [0x29] REQ_SET_WAIT(priority=0x08, entity_id=Shikaree M (ID: 17764574/0x010F10DE), tag_num=0x03)
  5: 0x015D [0x29] REQ_SET_WAIT(priority=0x08, entity_id=Shikaree M (ID: 17764574/0x010F10DE), tag_num=0x04)
  6: 0x0164 [0x00] END_REQSTACK()
```

### Event 65535.35

#### Metadata

| Field        | Value    |
|--------------|----------|
| Entrypoint   | 0x0165   |
| Data Size    | 16 bytes |
| Instructions | 5        |

```
      00 01 02 03 04 05 06 07  08 09 0A 0B 0C 0D 0E 0F
      -- -- -- -- -- -- -- --  -- -- -- -- -- -- -- --
0160:                32 03 80  1F 00 2E 80 2F 80 30 80       2....../.0.
0170: 1F 01 22 01 00                                    .."..           
```

#### Opcodes

```
  0: 0x0165 [0x32] ExtData[1]->MainSpeed = 13* * 0.1
  1: 0x0168 [0x1F] MOVE_ENTITY: EventEntity moves to X=116.992*, Z=103.937*, Y=-4.249*
  2: 0x0170 [0x1F] MOVE_ENTITY: Update entity position (mode=1)
  3: 0x0172 [0x22] ENTITY_HIDE_FLAG(enabled=0x01)
  4: 0x0174 [0x00] END_REQSTACK()
```

### Event 65535.36

#### Metadata

| Field        | Value   |
|--------------|---------|
| Entrypoint   | 0x0175  |
| Data Size    | 5 bytes |
| Instructions | 3       |

```
      00 01 02 03 04 05 06 07  08 09 0A 0B 0C 0D 0E 0F
      -- -- -- -- -- -- -- --  -- -- -- -- -- -- -- --
0170:                1D 31 80  23 00                         .1.#.      
```

#### Opcodes

```
  0: 0x0175 [0x1D] PRINT_EVENT_MESSAGE(message_id=9363*)
    → "I now have the Bow of Light in my possession. The magicite that gave this bow its cursed power has been rrreturned to the land where it belongs."
  1: 0x0178 [0x23] WAIT_FOR_DIALOG_INTERACTION
  2: 0x0179 [0x00] END_REQSTACK()
```

### Event 65535.37

#### Metadata

| Field        | Value   |
|--------------|---------|
| Entrypoint   | 0x017A  |
| Data Size    | 5 bytes |
| Instructions | 3       |

```
      00 01 02 03 04 05 06 07  08 09 0A 0B 0C 0D 0E 0F
      -- -- -- -- -- -- -- --  -- -- -- -- -- -- -- --
0170:                                1D 32 80 23 00               .2.#. 
```

#### Opcodes

```
  0: 0x017A [0x1D] PRINT_EVENT_MESSAGE(message_id=9364*)
    → "I wish to express my heartfelt grrratitude to you, Semih Lafihna, for rrretrieving it from the wilds of the Northlands."
  1: 0x017D [0x23] WAIT_FOR_DIALOG_INTERACTION
  2: 0x017E [0x00] END_REQSTACK()
```

### Event 65535.38

#### Metadata

| Field        | Value   |
|--------------|---------|
| Entrypoint   | 0x017F  |
| Data Size    | 5 bytes |
| Instructions | 3       |

```
      00 01 02 03 04 05 06 07  08 09 0A 0B 0C 0D 0E 0F
      -- -- -- -- -- -- -- --  -- -- -- -- -- -- -- --
0170:                                               1D                 .
0180: 33 80 23 00                                       3.#.            
```

#### Opcodes

```
  0: 0x017F [0x1D] PRINT_EVENT_MESSAGE(message_id=9366*)
    → "I see. I have much to thank you for."
  1: 0x0182 [0x23] WAIT_FOR_DIALOG_INTERACTION
  2: 0x0183 [0x00] END_REQSTACK()
```

### Event 65535.39

#### Metadata

| Field        | Value   |
|--------------|---------|
| Entrypoint   | 0x0184  |
| Data Size    | 5 bytes |
| Instructions | 3       |

```
      00 01 02 03 04 05 06 07  08 09 0A 0B 0C 0D 0E 0F
      -- -- -- -- -- -- -- --  -- -- -- -- -- -- -- --
0180:             1D 34 80 23  00                           .4.#.       
```

#### Opcodes

```
  0: 0x0184 [0x1D] PRINT_EVENT_MESSAGE(message_id=9368*)
    → "It is $1. Please take them as a symbol of my rrrespect for your skill as a ranger."
  1: 0x0187 [0x23] WAIT_FOR_DIALOG_INTERACTION
  2: 0x0188 [0x00] END_REQSTACK()
```

### Event 65535.40

#### Metadata

| Field        | Value   |
|--------------|---------|
| Entrypoint   | 0x0189  |
| Data Size    | 5 bytes |
| Instructions | 3       |

```
      00 01 02 03 04 05 06 07  08 09 0A 0B 0C 0D 0E 0F
      -- -- -- -- -- -- -- --  -- -- -- -- -- -- -- --
0180:                             1D 35 80 23 00                 .5.#.  
```

#### Opcodes

```
  0: 0x0189 [0x1D] PRINT_EVENT_MESSAGE(message_id=9369*)
    → "And so, Chieftainness Perih Vashai, I leave this land behind me to begin my next hunt."
  1: 0x018C [0x23] WAIT_FOR_DIALOG_INTERACTION
  2: 0x018D [0x00] END_REQSTACK()
```
