# 17764424

## Common Data

| Field            | Value                    |
|------------------|--------------------------|
| Zone             | Windurst Woods (ID: 241) |
| Block Size       | 1872 bytes               |
| Total Events     | 34                       |
| References Count | 145                      |

## List of Events

| Event ID                   | Entrypoint   |   Size |   Instructions |
|----------------------------|--------------|--------|----------------|
| [65535](#event-65535)      | 0x0000       |      1 |              1 |
| [746](#event-746)          | 0x0001       |      1 |              1 |
| [742](#event-742)          | 0x0002       |      1 |              1 |
| [65535.1](#event-655351)   | 0x0003       |      5 |              2 |
| [65535.2](#event-655352)   | 0x0008       |     11 |              3 |
| [65535.3](#event-655353)   | 0x0013       |     10 |              2 |
| [65535.4](#event-655354)   | 0x001D       |    131 |             26 |
| [65535.5](#event-655355)   | 0x00A0       |    131 |             26 |
| [65535.6](#event-655356)   | 0x0123       |     10 |              2 |
| [65535.7](#event-655357)   | 0x012D       |     14 |              4 |
| [65535.8](#event-655358)   | 0x013B       |     11 |              3 |
| [65535.9](#event-655359)   | 0x0146       |     11 |              3 |
| [65535.10](#event-6553510) | 0x0151       |     11 |              3 |
| [65535.11](#event-6553511) | 0x015C       |     14 |              4 |
| [776](#event-776)          | 0x016A       |      1 |              1 |
| [65535.12](#event-6553512) | 0x016B       |     15 |              3 |
| [65535.13](#event-6553513) | 0x017A       |     45 |             10 |
| [65535.14](#event-6553514) | 0x01A7       |     45 |             10 |
| [65535.15](#event-6553515) | 0x01D4       |      6 |              2 |
| [65535.16](#event-6553516) | 0x01DA       |     15 |              3 |
| [65535.17](#event-6553517) | 0x01E9       |     54 |             12 |
| [65535.18](#event-6553518) | 0x021F       |     66 |             16 |
| [65535.19](#event-6553519) | 0x0261       |     15 |              3 |
| [65535.20](#event-6553520) | 0x0270       |     73 |             17 |
| [65535.21](#event-6553521) | 0x02B9       |     50 |             12 |
| [65535.22](#event-6553522) | 0x02EB       |     50 |             12 |
| [65535.23](#event-6553523) | 0x031D       |     67 |             15 |
| [65535.24](#event-6553524) | 0x0360       |     14 |              4 |
| [65535.25](#event-6553525) | 0x036E       |     51 |             11 |
| [65535.26](#event-6553526) | 0x03A1       |     14 |              4 |
| [65535.27](#event-6553527) | 0x03AF       |     51 |             11 |
| [65535.28](#event-6553528) | 0x03E2       |     59 |             13 |
| [65535.29](#event-6553529) | 0x041D       |     69 |             15 |
| [65535.30](#event-6553530) | 0x0462       |     15 |              3 |

## DAT References (imed_data)

|   Index | Hex Value   |   Dec Value |
|---------|-------------|-------------|
|       0 | 0x0000      |           0 |
|       1 | 0x1EA21     |      125473 |
|       2 | 0xFFFE6447  |  4294861895 |
|       3 | 0xFFFFEC78  |  4294962296 |
|       4 | 0x0610      |        1552 |
|       5 | 0x0039      |          57 |
|       6 | 0x1E0C1     |      123073 |
|       7 | 0xFFFE59DF  |  4294859231 |
|       8 | 0x1E499     |      124057 |
|       9 | 0xFFFE5044  |  4294856772 |
|      10 | 0x1ED76     |      126326 |
|      11 | 0xFFFE5055  |  4294856789 |
|      12 | 0x1F4D1     |      128209 |
|      13 | 0xFFFE5989  |  4294859145 |
|      14 | 0x1EAE7     |      125671 |
|      15 | 0xFFFE622D  |  4294861357 |
|      16 | 0x1DC90     |      122000 |
|      17 | 0xFFFE69C0  |  4294863296 |
|      18 | 0x1E1D1     |      123345 |
|      19 | 0xFFFE7448  |  4294865992 |
|      20 | 0x1EC63     |      126051 |
|      21 | 0xFFFE75F9  |  4294866425 |
|      22 | 0x1F133     |      127283 |
|      23 | 0xFFFE6C8E  |  4294864014 |
|      24 | 0x1EE3F     |      126527 |
|      25 | 0xFFFE47FD  |  4294854653 |
|      26 | 0xFFFFEC79  |  4294962297 |
|      27 | 0x0AAE      |        2734 |
|      28 | 0x1EEB7     |      126647 |
|      29 | 0xFFFE53E0  |  4294857696 |
|      30 | 0x1EF63     |      126819 |
|      31 | 0xFFFE625C  |  4294861404 |
|      32 | 0x1F028     |      127016 |
|      33 | 0xFFFE7172  |  4294865266 |
|      34 | 0x1EB88     |      125832 |
|      35 | 0xFFFE7CA3  |  4294868131 |
|      36 | 0x1FFB4     |      130996 |
|      37 | 0xFFFE6ADE  |  4294863582 |
|      38 | 0xFFF6D458  |  4294366296 |
|      39 | 0x94AE8     |      609000 |
|      40 | 0x00F7      |         247 |
|      41 | 0x003C      |          60 |
|      42 | 0x0002      |           2 |
|      43 | 0x000A      |          10 |
|      44 | 0xFFF6E0F7  |  4294369527 |
|      45 | 0x94851     |      608337 |
|      46 | 0x00D7      |         215 |
|      47 | 0xFFF6D937  |  4294367543 |
|      48 | 0x949C5     |      608709 |
|      49 | 0x00E9      |         233 |
|      50 | 0xFFF6CB82  |  4294364034 |
|      51 | 0x9409F     |      606367 |
|      52 | 0x0074      |         116 |
|      53 | 0x0013      |          19 |
|      54 | 0xFFF6D7C0  |  4294367168 |
|      55 | 0x8EF6A     |      585578 |
|      56 | 0x0274      |         628 |
|      57 | 0x011C      |         284 |
|      58 | 0xFFF6D0CA  |  4294365386 |
|      59 | 0x8F7DF     |      587743 |
|      60 | 0x0112      |         274 |
|      61 | 0xFFF6D779  |  4294367097 |
|      62 | 0x8FCC2     |      588994 |
|      63 | 0x015B      |         347 |
|      64 | 0xFFF6DB55  |  4294368085 |
|      65 | 0x8F169     |      586089 |
|      66 | 0x024A      |         586 |
|      67 | 0xFFF6DAA1  |  4294367905 |
|      68 | 0x8E6CF     |      583375 |
|      69 | 0x033E      |         830 |
|      70 | 0x001E      |          30 |
|      71 | 0xFFF6D3B3  |  4294366131 |
|      72 | 0x8F340     |      586560 |
|      73 | 0x01D0      |         464 |
|      74 | 0x0101      |         257 |
|      75 | 0x0078      |         120 |
|      76 | 0xFFF6D069  |  4294365289 |
|      77 | 0x8F7F4     |      587764 |
|      78 | 0x010C      |         268 |
|      79 | 0xFFF6D763  |  4294367075 |
|      80 | 0x8FB0E     |      588558 |
|      81 | 0x0171      |         369 |
|      82 | 0xFFF6CFE0  |  4294365152 |
|      83 | 0x8F449     |      586825 |
|      84 | 0x0178      |         376 |
|      85 | 0x0862      |        2146 |
|      86 | 0xFFF6D8AC  |  4294367404 |
|      87 | 0x8FABD     |      588477 |
|      88 | 0x0175      |         373 |
|      89 | 0xFFF6DB01  |  4294368001 |
|      90 | 0x90356     |      590678 |
|      91 | 0x0108      |         264 |
|      92 | 0x03BF      |         959 |
|      93 | 0xFFF6C73F  |  4294362943 |
|      94 | 0x8F234     |      586292 |
|      95 | 0x008A      |         138 |
|      96 | 0x0025      |          37 |
|      97 | 0x00F0      |         240 |
|      98 | 0xFFF6D6F8  |  4294366968 |
|      99 | 0x8E30A     |      582410 |
|     100 | 0x0322      |         802 |
|     101 | 0x0BD3      |        3027 |
|     102 | 0xFFF6DB94  |  4294368148 |
|     103 | 0x8FCF3     |      589043 |
|     104 | 0x0159      |         345 |
|     105 | 0xFFF6C79F  |  4294363039 |
|     106 | 0x8F34D     |      586573 |
|     107 | 0xFFF6CB4A  |  4294363978 |
|     108 | 0x8FAEF     |      588527 |
|     109 | 0x00C4      |         196 |
|     110 | 0xFFF6D269  |  4294365801 |
|     111 | 0x8F138     |      586040 |
|     112 | 0x01F0      |         496 |
|     113 | 0xFFF6D2EF  |  4294365935 |
|     114 | 0x8EB3B     |      584507 |
|     115 | 0x021E      |         542 |
|     116 | 0xFFF6D6A2  |  4294366882 |
|     117 | 0x8E8B3     |      583859 |
|     118 | 0x02C0      |         704 |
|     119 | 0xFFF6DAB0  |  4294367920 |
|     120 | 0x8EE3C     |      585276 |
|     121 | 0x029C      |         668 |
|     122 | 0xFFF6DC30  |  4294368304 |
|     123 | 0x8F5FC     |      587260 |
|     124 | 0x01D4      |         468 |
|     125 | 0xFFF6D87A  |  4294367354 |
|     126 | 0x8F6D2     |      587474 |
|     127 | 0x01BF      |         447 |
|     128 | 0xFFF6CEAA  |  4294364842 |
|     129 | 0x8FA2D     |      588333 |
|     130 | 0xFFF6CA0E  |  4294363662 |
|     131 | 0x8EFB9     |      585657 |
|     132 | 0x0090      |         144 |
|     133 | 0xFFF6CECB  |  4294364875 |
|     134 | 0x8E418     |      582680 |
|     135 | 0x018C      |         396 |
|     136 | 0xFFF6DB79  |  4294368121 |
|     137 | 0x8E4F3     |      582899 |
|     138 | 0x0356      |         854 |
|     139 | 0xFFF6DE60  |  4294368864 |
|     140 | 0x8F7D9     |      587737 |
|     141 | 0x019A      |         410 |
|     142 | 0xFFF6D8AE  |  4294367406 |
|     143 | 0x8FE78     |      589432 |
|     144 | 0x0146      |         326 |

## Events

### Event 65535

#### Metadata

| Field        | Value   |
|--------------|---------|
| Entrypoint   | 0x0000  |
| Data Size    | 1 bytes |
| Instructions | 1       |

```
      00 01 02 03 04 05 06 07  08 09 0A 0B 0C 0D 0E 0F
      -- -- -- -- -- -- -- --  -- -- -- -- -- -- -- --
0000: 00                                                .               
```

#### Opcodes

```
  0: 0x0000 [0x00] END_REQSTACK()
```

### Event 746

#### Metadata

| Field        | Value   |
|--------------|---------|
| Entrypoint   | 0x0001  |
| Data Size    | 1 bytes |
| Instructions | 1       |

```
      00 01 02 03 04 05 06 07  08 09 0A 0B 0C 0D 0E 0F
      -- -- -- -- -- -- -- --  -- -- -- -- -- -- -- --
0000:    00                                              .              
```

#### Opcodes

```
  0: 0x0001 [0x00] END_REQSTACK()
```

### Event 742

#### Metadata

| Field        | Value   |
|--------------|---------|
| Entrypoint   | 0x0002  |
| Data Size    | 1 bytes |
| Instructions | 1       |

```
      00 01 02 03 04 05 06 07  08 09 0A 0B 0C 0D 0E 0F
      -- -- -- -- -- -- -- --  -- -- -- -- -- -- -- --
0000:       00                                            .             
```

#### Opcodes

```
  0: 0x0002 [0x00] END_REQSTACK()
```

### Event 65535.1

#### Metadata

| Field        | Value   |
|--------------|---------|
| Entrypoint   | 0x0003  |
| Data Size    | 5 bytes |
| Instructions | 2       |

```
      00 01 02 03 04 05 06 07  08 09 0A 0B 0C 0D 0E 0F
      -- -- -- -- -- -- -- --  -- -- -- -- -- -- -- --
0000:          B6 00 04 10 00                              .....        
```

#### Opcodes

```
  0: 0x0003 [0xB6] ENTITY_APPEARANCE_HANDLER(case=Hair style, value=Work_Zone[4])
  1: 0x0007 [0x00] END_REQSTACK()
```

### Event 65535.2

#### Metadata

| Field        | Value    |
|--------------|----------|
| Entrypoint   | 0x0008   |
| Data Size    | 11 bytes |
| Instructions | 3        |

```
      00 01 02 03 04 05 06 07  08 09 0A 0B 0C 0D 0E 0F
      -- -- -- -- -- -- -- --  -- -- -- -- -- -- -- --
0000:                          B4 01 00 00 00 80 B5 00          ........
0010: 00 00 00                                          ...             
```

#### Opcodes

```
  0: 0x0008 [0xB4] UI_WINDOW_STRING_HANDLER(case=0x01 - Copy string from event strings table, work_offset=ExtData[1]->WorkLocal[0], string_index=0*)
  1: 0x000E [0xB5] SET_EVENT_ENTITY_NAME: Change EventEntity name to ExtData[1]->WorkLocal[0]
  2: 0x0012 [0x00] END_REQSTACK()
```

### Event 65535.3

#### Metadata

| Field        | Value    |
|--------------|----------|
| Entrypoint   | 0x0013   |
| Data Size    | 10 bytes |
| Instructions | 2        |

```
      00 01 02 03 04 05 06 07  08 09 0A 0B 0C 0D 0E 0F
      -- -- -- -- -- -- -- --  -- -- -- -- -- -- -- --
0010:          37 01 80 02 80  03 80 04 80 00              7.........   
```

#### Opcodes

```
  0: 0x0013 [0x37] UPDATE_EVENT_POSITION_AND_DIR: x=125.473*, z=-105.401*, y=-5.000*, direction=136.4°*
  1: 0x001C [0x00] END_REQSTACK()
```

### Event 65535.4

#### Metadata

| Field        | Value     |
|--------------|-----------|
| Entrypoint   | 0x001D    |
| Data Size    | 131 bytes |
| Instructions | 26        |

```
      00 01 02 03 04 05 06 07  08 09 0A 0B 0C 0D 0E 0F
      -- -- -- -- -- -- -- --  -- -- -- -- -- -- -- --
0010:                                         32 05 80               2..
0020: 1F 00 06 80 07 80 03 80  1F 01 1F 00 08 80 09 80  ................
0030: 03 80 1F 01 1F 00 0A 80  0B 80 03 80 1F 01 1F 00  ................
0040: 0C 80 0D 80 03 80 1F 01  1F 00 0E 80 0F 80 03 80  ................
0050: 1F 01 1F 00 10 80 11 80  03 80 1F 01 1F 00 12 80  ................
0060: 13 80 03 80 1F 01 1F 00  14 80 15 80 03 80 1F 01  ................
0070: 1F 00 16 80 17 80 03 80  1F 01 1F 00 01 80 02 80  ................
0080: 03 80 1F 01 02 4D 10 00  80 00 96 00 27 05 48 10  .....M......'.H.
0090: 0F 01 07 01 9F 00 37 00  80 00 80 00 80 00 80 00  ......7.........
```

#### Opcodes

```
  0: 0x001D [0x32] ExtData[1]->MainSpeed = 57* * 0.1
  1: 0x0020 [0x1F] MOVE_ENTITY: EventEntity moves to X=123.073*, Z=-108.065*, Y=-5.000*
  2: 0x0028 [0x1F] MOVE_ENTITY: Update entity position (mode=1)
  3: 0x002A [0x1F] MOVE_ENTITY: EventEntity moves to X=124.057*, Z=-110.524*, Y=-5.000*
  4: 0x0032 [0x1F] MOVE_ENTITY: Update entity position (mode=1)
  5: 0x0034 [0x1F] MOVE_ENTITY: EventEntity moves to X=126.326*, Z=-110.507*, Y=-5.000*
  6: 0x003C [0x1F] MOVE_ENTITY: Update entity position (mode=1)
  7: 0x003E [0x1F] MOVE_ENTITY: EventEntity moves to X=128.209*, Z=-108.151*, Y=-5.000*
  8: 0x0046 [0x1F] MOVE_ENTITY: Update entity position (mode=1)
  9: 0x0048 [0x1F] MOVE_ENTITY: EventEntity moves to X=125.671*, Z=-105.939*, Y=-5.000*
 10: 0x0050 [0x1F] MOVE_ENTITY: Update entity position (mode=1)
 11: 0x0052 [0x1F] MOVE_ENTITY: EventEntity moves to X=122.000*, Z=-104.000*, Y=-5.000*
 12: 0x005A [0x1F] MOVE_ENTITY: Update entity position (mode=1)
 13: 0x005C [0x1F] MOVE_ENTITY: EventEntity moves to X=123.345*, Z=-101.304*, Y=-5.000*
 14: 0x0064 [0x1F] MOVE_ENTITY: Update entity position (mode=1)
 15: 0x0066 [0x1F] MOVE_ENTITY: EventEntity moves to X=126.051*, Z=-100.871*, Y=-5.000*
 16: 0x006E [0x1F] MOVE_ENTITY: Update entity position (mode=1)
 17: 0x0070 [0x1F] MOVE_ENTITY: EventEntity moves to X=127.283*, Z=-103.282*, Y=-5.000*
 18: 0x0078 [0x1F] MOVE_ENTITY: Update entity position (mode=1)
 19: 0x007A [0x1F] MOVE_ENTITY: EventEntity moves to X=125.473*, Z=-105.401*, Y=-5.000*
 20: 0x0082 [0x1F] MOVE_ENTITY: Update entity position (mode=1)
 21: 0x0084 [0x02] IF !(Work_Zone[77] == 0*) GOTO 0x0096
 22: 0x008C [0x27] REQ_SET(priority=0x05, entity_id=Unnamed NPC (ID: 17764424/0x010F1048), tag_num=0x07)
 23: 0x0093 [0x01] GOTO 0x009F
 24: 0x0096 [0x37] UPDATE_EVENT_POSITION_AND_DIR: x=0.000*, z=0.000*, y=0.000*, direction=0.0°*

SUBROUTINE_009F:
 25: 0x009F [0x00] END_REQSTACK()
```

### Event 65535.5

#### Metadata

| Field        | Value     |
|--------------|-----------|
| Entrypoint   | 0x00A0    |
| Data Size    | 131 bytes |
| Instructions | 26        |

```
      00 01 02 03 04 05 06 07  08 09 0A 0B 0C 0D 0E 0F
      -- -- -- -- -- -- -- --  -- -- -- -- -- -- -- --
00A0: 32 05 80 1F 00 06 80 07  80 03 80 1F 01 1F 00 08  2...............
00B0: 80 09 80 03 80 1F 01 1F  00 0A 80 0B 80 03 80 1F  ................
00C0: 01 1F 00 0C 80 0D 80 03  80 1F 01 1F 00 0E 80 0F  ................
00D0: 80 03 80 1F 01 1F 00 10  80 11 80 03 80 1F 01 1F  ................
00E0: 00 12 80 13 80 03 80 1F  01 1F 00 14 80 15 80 03  ................
00F0: 80 1F 01 1F 00 16 80 17  80 03 80 1F 01 1F 00 01  ................
0100: 80 02 80 03 80 1F 01 02  4D 10 00 80 00 19 01 27  ........M......'
0110: 05 48 10 0F 01 06 01 22  01 37 00 80 00 80 00 80  .H.....".7......
0120: 00 80 00                                          ...             
```

#### Opcodes

```
  0: 0x00A0 [0x32] ExtData[1]->MainSpeed = 57* * 0.1
  1: 0x00A3 [0x1F] MOVE_ENTITY: EventEntity moves to X=123.073*, Z=-108.065*, Y=-5.000*
  2: 0x00AB [0x1F] MOVE_ENTITY: Update entity position (mode=1)
  3: 0x00AD [0x1F] MOVE_ENTITY: EventEntity moves to X=124.057*, Z=-110.524*, Y=-5.000*
  4: 0x00B5 [0x1F] MOVE_ENTITY: Update entity position (mode=1)
  5: 0x00B7 [0x1F] MOVE_ENTITY: EventEntity moves to X=126.326*, Z=-110.507*, Y=-5.000*
  6: 0x00BF [0x1F] MOVE_ENTITY: Update entity position (mode=1)
  7: 0x00C1 [0x1F] MOVE_ENTITY: EventEntity moves to X=128.209*, Z=-108.151*, Y=-5.000*
  8: 0x00C9 [0x1F] MOVE_ENTITY: Update entity position (mode=1)
  9: 0x00CB [0x1F] MOVE_ENTITY: EventEntity moves to X=125.671*, Z=-105.939*, Y=-5.000*
 10: 0x00D3 [0x1F] MOVE_ENTITY: Update entity position (mode=1)
 11: 0x00D5 [0x1F] MOVE_ENTITY: EventEntity moves to X=122.000*, Z=-104.000*, Y=-5.000*
 12: 0x00DD [0x1F] MOVE_ENTITY: Update entity position (mode=1)
 13: 0x00DF [0x1F] MOVE_ENTITY: EventEntity moves to X=123.345*, Z=-101.304*, Y=-5.000*
 14: 0x00E7 [0x1F] MOVE_ENTITY: Update entity position (mode=1)
 15: 0x00E9 [0x1F] MOVE_ENTITY: EventEntity moves to X=126.051*, Z=-100.871*, Y=-5.000*
 16: 0x00F1 [0x1F] MOVE_ENTITY: Update entity position (mode=1)
 17: 0x00F3 [0x1F] MOVE_ENTITY: EventEntity moves to X=127.283*, Z=-103.282*, Y=-5.000*
 18: 0x00FB [0x1F] MOVE_ENTITY: Update entity position (mode=1)
 19: 0x00FD [0x1F] MOVE_ENTITY: EventEntity moves to X=125.473*, Z=-105.401*, Y=-5.000*
 20: 0x0105 [0x1F] MOVE_ENTITY: Update entity position (mode=1)
 21: 0x0107 [0x02] IF !(Work_Zone[77] == 0*) GOTO 0x0119
 22: 0x010F [0x27] REQ_SET(priority=0x05, entity_id=Unnamed NPC (ID: 17764424/0x010F1048), tag_num=0x06)
 23: 0x0116 [0x01] GOTO 0x0122
 24: 0x0119 [0x37] UPDATE_EVENT_POSITION_AND_DIR: x=0.000*, z=0.000*, y=0.000*, direction=0.0°*

SUBROUTINE_0122:
 25: 0x0122 [0x00] END_REQSTACK()
```

### Event 65535.6

#### Metadata

| Field        | Value    |
|--------------|----------|
| Entrypoint   | 0x0123   |
| Data Size    | 10 bytes |
| Instructions | 2        |

```
      00 01 02 03 04 05 06 07  08 09 0A 0B 0C 0D 0E 0F
      -- -- -- -- -- -- -- --  -- -- -- -- -- -- -- --
0120:          37 18 80 19 80  1A 80 1B 80 00              7.........   
```

#### Opcodes

```
  0: 0x0123 [0x37] UPDATE_EVENT_POSITION_AND_DIR: x=126.527*, z=-112.643*, y=-4.999*, direction=240.3°*
  1: 0x012C [0x00] END_REQSTACK()
```

### Event 65535.7

#### Metadata

| Field        | Value    |
|--------------|----------|
| Entrypoint   | 0x012D   |
| Data Size    | 14 bytes |
| Instructions | 4        |

```
      00 01 02 03 04 05 06 07  08 09 0A 0B 0C 0D 0E 0F
      -- -- -- -- -- -- -- --  -- -- -- -- -- -- -- --
0120:                                         32 05 80               2..
0130: 1F 00 1C 80 1D 80 1A 80  1F 01 00                 ...........     
```

#### Opcodes

```
  0: 0x012D [0x32] ExtData[1]->MainSpeed = 57* * 0.1
  1: 0x0130 [0x1F] MOVE_ENTITY: EventEntity moves to X=126.647*, Z=-109.600*, Y=-4.999*
  2: 0x0138 [0x1F] MOVE_ENTITY: Update entity position (mode=1)
  3: 0x013A [0x00] END_REQSTACK()
```

### Event 65535.8

#### Metadata

| Field        | Value    |
|--------------|----------|
| Entrypoint   | 0x013B   |
| Data Size    | 11 bytes |
| Instructions | 3        |

```
      00 01 02 03 04 05 06 07  08 09 0A 0B 0C 0D 0E 0F
      -- -- -- -- -- -- -- --  -- -- -- -- -- -- -- --
0130:                                   1F 00 1E 80 1F             .....
0140: 80 1A 80 1F 01 00                                 ......          
```

#### Opcodes

```
  0: 0x013B [0x1F] MOVE_ENTITY: EventEntity moves to X=126.819*, Z=-105.892*, Y=-4.999*
  1: 0x0143 [0x1F] MOVE_ENTITY: Update entity position (mode=1)
  2: 0x0145 [0x00] END_REQSTACK()
```

### Event 65535.9

#### Metadata

| Field        | Value    |
|--------------|----------|
| Entrypoint   | 0x0146   |
| Data Size    | 11 bytes |
| Instructions | 3        |

```
      00 01 02 03 04 05 06 07  08 09 0A 0B 0C 0D 0E 0F
      -- -- -- -- -- -- -- --  -- -- -- -- -- -- -- --
0140:                   1F 00  20 80 21 80 1A 80 1F 01        .. .!.....
0150: 00                                                .               
```

#### Opcodes

```
  0: 0x0146 [0x1F] MOVE_ENTITY: EventEntity moves to X=127.016*, Z=-102.030*, Y=-4.999*
  1: 0x014E [0x1F] MOVE_ENTITY: Update entity position (mode=1)
  2: 0x0150 [0x00] END_REQSTACK()
```

### Event 65535.10

#### Metadata

| Field        | Value    |
|--------------|----------|
| Entrypoint   | 0x0151   |
| Data Size    | 11 bytes |
| Instructions | 3        |

```
      00 01 02 03 04 05 06 07  08 09 0A 0B 0C 0D 0E 0F
      -- -- -- -- -- -- -- --  -- -- -- -- -- -- -- --
0150:    1F 00 22 80 23 80 1A  80 1F 01 00               ..".#......    
```

#### Opcodes

```
  0: 0x0151 [0x1F] MOVE_ENTITY: EventEntity moves to X=125.832*, Z=-99.165*, Y=-4.999*
  1: 0x0159 [0x1F] MOVE_ENTITY: Update entity position (mode=1)
  2: 0x015B [0x00] END_REQSTACK()
```

### Event 65535.11

#### Metadata

| Field        | Value    |
|--------------|----------|
| Entrypoint   | 0x015C   |
| Data Size    | 14 bytes |
| Instructions | 4        |

```
      00 01 02 03 04 05 06 07  08 09 0A 0B 0C 0D 0E 0F
      -- -- -- -- -- -- -- --  -- -- -- -- -- -- -- --
0150:                                      32 05 80 1F              2...
0160: 00 24 80 25 80 1A 80 1F  01 00                    .$.%......      
```

#### Opcodes

```
  0: 0x015C [0x32] ExtData[1]->MainSpeed = 57* * 0.1
  1: 0x015F [0x1F] MOVE_ENTITY: EventEntity moves to X=130.996*, Z=-103.714*, Y=-4.999*
  2: 0x0167 [0x1F] MOVE_ENTITY: Update entity position (mode=1)
  3: 0x0169 [0x00] END_REQSTACK()
```

### Event 776

#### Metadata

| Field        | Value   |
|--------------|---------|
| Entrypoint   | 0x016A  |
| Data Size    | 1 bytes |
| Instructions | 1       |

```
      00 01 02 03 04 05 06 07  08 09 0A 0B 0C 0D 0E 0F
      -- -- -- -- -- -- -- --  -- -- -- -- -- -- -- --
0160:                                00                           .     
```

#### Opcodes

```
  0: 0x016A [0x00] END_REQSTACK()
```

### Event 65535.12

#### Metadata

| Field        | Value    |
|--------------|----------|
| Entrypoint   | 0x016B   |
| Data Size    | 15 bytes |
| Instructions | 3        |

```
      00 01 02 03 04 05 06 07  08 09 0A 0B 0C 0D 0E 0F
      -- -- -- -- -- -- -- --  -- -- -- -- -- -- -- --
0160:                                   37 26 80 27 80             7&.'.
0170: 28 80 29 80 03 04 00 00  80 00                    (.).......      
```

#### Opcodes

```
  0: 0x016B [0x37] UPDATE_EVENT_POSITION_AND_DIR: x=-601.000*, z=609.000*, y=0.247*, direction=5.3°*
  1: 0x0174 [0x03] ExtData[1]->WorkLocal[4] = 0*
  2: 0x0179 [0x00] END_REQSTACK()
```

### Event 65535.13

#### Metadata

| Field        | Value    |
|--------------|----------|
| Entrypoint   | 0x017A   |
| Data Size    | 45 bytes |
| Instructions | 10       |

```
      00 01 02 03 04 05 06 07  08 09 0A 0B 0C 0D 0E 0F
      -- -- -- -- -- -- -- --  -- -- -- -- -- -- -- --
0170:                                02 04 00 2A 80 01            ...*..
0180: A6 01 32 2B 80 1F 00 2C  80 2D 80 2E 80 1F 01 1F  ..2+...,.-......
0190: 00 2F 80 30 80 31 80 1F  01 1F 00 32 80 33 80 34  ./.0.1.....2.3.4
01A0: 80 1F 01 01 7A 01 00                              ....z..         
```

#### Opcodes

```
  0: 0x017A [0x02] IF !(ExtData[1]->WorkLocal[4] == 2*) GOTO 0x01A6
  1: 0x0182 [0x32] ExtData[1]->MainSpeed = 10* * 0.1
  2: 0x0185 [0x1F] MOVE_ENTITY: EventEntity moves to X=-597.769*, Z=608.337*, Y=0.215*
  3: 0x018D [0x1F] MOVE_ENTITY: Update entity position (mode=1)
  4: 0x018F [0x1F] MOVE_ENTITY: EventEntity moves to X=-599.753*, Z=608.709*, Y=0.233*
  5: 0x0197 [0x1F] MOVE_ENTITY: Update entity position (mode=1)
  6: 0x0199 [0x1F] MOVE_ENTITY: EventEntity moves to X=-603.262*, Z=606.367*, Y=0.116*
  7: 0x01A1 [0x1F] MOVE_ENTITY: Update entity position (mode=1)
  8: 0x01A3 [0x01] GOTO 0x017A
  9: 0x01A6 [0x00] END_REQSTACK()
```

### Event 65535.14

#### Metadata

| Field        | Value    |
|--------------|----------|
| Entrypoint   | 0x01A7   |
| Data Size    | 45 bytes |
| Instructions | 10       |

```
      00 01 02 03 04 05 06 07  08 09 0A 0B 0C 0D 0E 0F
      -- -- -- -- -- -- -- --  -- -- -- -- -- -- -- --
01A0:                      02  04 00 2A 80 01 D3 01 32         ...*....2
01B0: 35 80 1F 00 2C 80 2D 80  2E 80 1F 01 1F 00 2F 80  5...,.-......./.
01C0: 30 80 31 80 1F 01 1F 00  32 80 33 80 34 80 1F 01  0.1.....2.3.4...
01D0: 01 A7 01 00                                       ....            
```

#### Opcodes

```
  0: 0x01A7 [0x02] IF !(ExtData[1]->WorkLocal[4] == 2*) GOTO 0x01D3
  1: 0x01AF [0x32] ExtData[1]->MainSpeed = 19* * 0.1
  2: 0x01B2 [0x1F] MOVE_ENTITY: EventEntity moves to X=-597.769*, Z=608.337*, Y=0.215*
  3: 0x01BA [0x1F] MOVE_ENTITY: Update entity position (mode=1)
  4: 0x01BC [0x1F] MOVE_ENTITY: EventEntity moves to X=-599.753*, Z=608.709*, Y=0.233*
  5: 0x01C4 [0x1F] MOVE_ENTITY: Update entity position (mode=1)
  6: 0x01C6 [0x1F] MOVE_ENTITY: EventEntity moves to X=-603.262*, Z=606.367*, Y=0.116*
  7: 0x01CE [0x1F] MOVE_ENTITY: Update entity position (mode=1)
  8: 0x01D0 [0x01] GOTO 0x01A7
  9: 0x01D3 [0x00] END_REQSTACK()
```

### Event 65535.15

#### Metadata

| Field        | Value   |
|--------------|---------|
| Entrypoint   | 0x01D4  |
| Data Size    | 6 bytes |
| Instructions | 2       |

```
      00 01 02 03 04 05 06 07  08 09 0A 0B 0C 0D 0E 0F
      -- -- -- -- -- -- -- --  -- -- -- -- -- -- -- --
01D0:             03 04 00 2A  80 00                        ...*..      
```

#### Opcodes

```
  0: 0x01D4 [0x03] ExtData[1]->WorkLocal[4] = 2*
  1: 0x01D9 [0x00] END_REQSTACK()
```

### Event 65535.16

#### Metadata

| Field        | Value    |
|--------------|----------|
| Entrypoint   | 0x01DA   |
| Data Size    | 15 bytes |
| Instructions | 3        |

```
      00 01 02 03 04 05 06 07  08 09 0A 0B 0C 0D 0E 0F
      -- -- -- -- -- -- -- --  -- -- -- -- -- -- -- --
01D0:                                37 36 80 37 80 38            76.7.8
01E0: 80 39 80 80 F8 FF FF 7F  00                       .9.......       
```

#### Opcodes

```
  0: 0x01DA [0x37] UPDATE_EVENT_POSITION_AND_DIR: x=-600.128*, z=585.578*, y=0.628*, direction=25.0°*
  1: 0x01E3 [0x80] LOAD_WAIT(entity=EventEntity)
  2: 0x01E8 [0x00] END_REQSTACK()
```

### Event 65535.17

#### Metadata

| Field        | Value    |
|--------------|----------|
| Entrypoint   | 0x01E9   |
| Data Size    | 54 bytes |
| Instructions | 12       |

```
      00 01 02 03 04 05 06 07  08 09 0A 0B 0C 0D 0E 0F
      -- -- -- -- -- -- -- --  -- -- -- -- -- -- -- --
01E0:                             32 2B 80 1F 00 3A 80           2+...:.
01F0: 3B 80 3C 80 1F 01 1F 00  3D 80 3E 80 3F 80 1F 01  ;.<.....=.>.?...
0200: 1F 00 40 80 41 80 42 80  1F 01 1F 00 43 80 44 80  ..@.A.B.....C.D.
0210: 45 80 1F 01 1F 00 36 80  37 80 38 80 1F 01 00     E.....6.7.8.... 
```

#### Opcodes

```
  0: 0x01E9 [0x32] ExtData[1]->MainSpeed = 10* * 0.1
  1: 0x01EC [0x1F] MOVE_ENTITY: EventEntity moves to X=-601.910*, Z=587.743*, Y=0.274*
  2: 0x01F4 [0x1F] MOVE_ENTITY: Update entity position (mode=1)
  3: 0x01F6 [0x1F] MOVE_ENTITY: EventEntity moves to X=-600.199*, Z=588.994*, Y=0.347*
  4: 0x01FE [0x1F] MOVE_ENTITY: Update entity position (mode=1)
  5: 0x0200 [0x1F] MOVE_ENTITY: EventEntity moves to X=-599.211*, Z=586.089*, Y=0.586*
  6: 0x0208 [0x1F] MOVE_ENTITY: Update entity position (mode=1)
  7: 0x020A [0x1F] MOVE_ENTITY: EventEntity moves to X=-599.391*, Z=583.375*, Y=0.830*
  8: 0x0212 [0x1F] MOVE_ENTITY: Update entity position (mode=1)
  9: 0x0214 [0x1F] MOVE_ENTITY: EventEntity moves to X=-600.128*, Z=585.578*, Y=0.628*
 10: 0x021C [0x1F] MOVE_ENTITY: Update entity position (mode=1)
 11: 0x021E [0x00] END_REQSTACK()
```

### Event 65535.18

#### Metadata

| Field        | Value    |
|--------------|----------|
| Entrypoint   | 0x021F   |
| Data Size    | 66 bytes |
| Instructions | 16       |

```
      00 01 02 03 04 05 06 07  08 09 0A 0B 0C 0D 0E 0F
      -- -- -- -- -- -- -- --  -- -- -- -- -- -- -- --
0210:                                               32                 2
0220: 35 80 1F 00 3A 80 3B 80  3C 80 1F 01 1C 46 80 1F  5...:.;.<....F..
0230: 00 3D 80 3E 80 3F 80 1F  01 1C 46 80 1F 00 40 80  .=.>.?....F...@.
0240: 41 80 42 80 1F 01 1C 46  80 1F 00 43 80 44 80 45  A.B....F...C.D.E
0250: 80 1F 01 1C 46 80 1F 00  36 80 37 80 38 80 1F 01  ....F...6.7.8...
0260: 00                                                .               
```

#### Opcodes

```
  0: 0x021F [0x32] ExtData[1]->MainSpeed = 19* * 0.1
  1: 0x0222 [0x1F] MOVE_ENTITY: EventEntity moves to X=-601.910*, Z=587.743*, Y=0.274*
  2: 0x022A [0x1F] MOVE_ENTITY: Update entity position (mode=1)
  3: 0x022C [0x1C] WAIT(30* ticks)
  4: 0x022F [0x1F] MOVE_ENTITY: EventEntity moves to X=-600.199*, Z=588.994*, Y=0.347*
  5: 0x0237 [0x1F] MOVE_ENTITY: Update entity position (mode=1)
  6: 0x0239 [0x1C] WAIT(30* ticks)
  7: 0x023C [0x1F] MOVE_ENTITY: EventEntity moves to X=-599.211*, Z=586.089*, Y=0.586*
  8: 0x0244 [0x1F] MOVE_ENTITY: Update entity position (mode=1)
  9: 0x0246 [0x1C] WAIT(30* ticks)
 10: 0x0249 [0x1F] MOVE_ENTITY: EventEntity moves to X=-599.391*, Z=583.375*, Y=0.830*
 11: 0x0251 [0x1F] MOVE_ENTITY: Update entity position (mode=1)
 12: 0x0253 [0x1C] WAIT(30* ticks)
 13: 0x0256 [0x1F] MOVE_ENTITY: EventEntity moves to X=-600.128*, Z=585.578*, Y=0.628*
 14: 0x025E [0x1F] MOVE_ENTITY: Update entity position (mode=1)
 15: 0x0260 [0x00] END_REQSTACK()
```

### Event 65535.19

#### Metadata

| Field        | Value    |
|--------------|----------|
| Entrypoint   | 0x0261   |
| Data Size    | 15 bytes |
| Instructions | 3        |

```
      00 01 02 03 04 05 06 07  08 09 0A 0B 0C 0D 0E 0F
      -- -- -- -- -- -- -- --  -- -- -- -- -- -- -- --
0260:    37 47 80 48 80 49 80  4A 80 80 F8 FF FF 7F 00   7G.H.I.J.......
```

#### Opcodes

```
  0: 0x0261 [0x37] UPDATE_EVENT_POSITION_AND_DIR: x=-601.165*, z=586.560*, y=0.464*, direction=22.6°*
  1: 0x026A [0x80] LOAD_WAIT(entity=EventEntity)
  2: 0x026F [0x00] END_REQSTACK()
```

### Event 65535.20

#### Metadata

| Field        | Value    |
|--------------|----------|
| Entrypoint   | 0x0270   |
| Data Size    | 73 bytes |
| Instructions | 17       |

```
      00 01 02 03 04 05 06 07  08 09 0A 0B 0C 0D 0E 0F
      -- -- -- -- -- -- -- --  -- -- -- -- -- -- -- --
0270: 32 35 80 1F 00 3A 80 3B  80 3C 80 1F 01 1F 00 3D  25...:.;.<.....=
0280: 80 3E 80 3F 80 1F 01 1F  00 40 80 41 80 42 80 1F  .>.?.....@.A.B..
0290: 01 1F 00 43 80 44 80 45  80 1F 01 1C 46 80 1E 44  ...C.D.E....F..D
02A0: 10 0F 01 1C 4B 80 1F 00  4C 80 4D 80 4E 80 1F 01  ....K...L.M.N...
02B0: 1C 46 80 1E 44 10 0F 01  00                       .F..D....       
```

#### Opcodes

```
  0: 0x0270 [0x32] ExtData[1]->MainSpeed = 19* * 0.1
  1: 0x0273 [0x1F] MOVE_ENTITY: EventEntity moves to X=-601.910*, Z=587.743*, Y=0.274*
  2: 0x027B [0x1F] MOVE_ENTITY: Update entity position (mode=1)
  3: 0x027D [0x1F] MOVE_ENTITY: EventEntity moves to X=-600.199*, Z=588.994*, Y=0.347*
  4: 0x0285 [0x1F] MOVE_ENTITY: Update entity position (mode=1)
  5: 0x0287 [0x1F] MOVE_ENTITY: EventEntity moves to X=-599.211*, Z=586.089*, Y=0.586*
  6: 0x028F [0x1F] MOVE_ENTITY: Update entity position (mode=1)
  7: 0x0291 [0x1F] MOVE_ENTITY: EventEntity moves to X=-599.391*, Z=583.375*, Y=0.830*
  8: 0x0299 [0x1F] MOVE_ENTITY: Update entity position (mode=1)
  9: 0x029B [0x1C] WAIT(30* ticks)
 10: 0x029E [0x1E] EventEntity looks at Unnamed NPC (ID: 17764420/0x010F1044) and starts talking
 11: 0x02A3 [0x1C] WAIT(120* ticks)
 12: 0x02A6 [0x1F] MOVE_ENTITY: EventEntity moves to X=-602.007*, Z=587.764*, Y=0.268*
 13: 0x02AE [0x1F] MOVE_ENTITY: Update entity position (mode=1)
 14: 0x02B0 [0x1C] WAIT(30* ticks)
 15: 0x02B3 [0x1E] EventEntity looks at Unnamed NPC (ID: 17764420/0x010F1044) and starts talking
 16: 0x02B8 [0x00] END_REQSTACK()
```

### Event 65535.21

#### Metadata

| Field        | Value    |
|--------------|----------|
| Entrypoint   | 0x02B9   |
| Data Size    | 50 bytes |
| Instructions | 12       |

```
      00 01 02 03 04 05 06 07  08 09 0A 0B 0C 0D 0E 0F
      -- -- -- -- -- -- -- --  -- -- -- -- -- -- -- --
02B0:                             32 2B 80 1F 00 4F 80           2+...O.
02C0: 50 80 51 80 1F 01 1C 29  80 1F 00 52 80 53 80 54  P.Q....)...R.S.T
02D0: 80 1F 01 1C 29 80 1F 00  36 80 37 80 38 80 1F 01  ....)...6.7.8...
02E0: 4B 48 10 0F 01 55 80 1C  29 80 00                 KH...U..)..     
```

#### Opcodes

```
  0: 0x02B9 [0x32] ExtData[1]->MainSpeed = 10* * 0.1
  1: 0x02BC [0x1F] MOVE_ENTITY: EventEntity moves to X=-600.221*, Z=588.558*, Y=0.369*
  2: 0x02C4 [0x1F] MOVE_ENTITY: Update entity position (mode=1)
  3: 0x02C6 [0x1C] WAIT(60* ticks)
  4: 0x02C9 [0x1F] MOVE_ENTITY: EventEntity moves to X=-602.144*, Z=586.825*, Y=0.376*
  5: 0x02D1 [0x1F] MOVE_ENTITY: Update entity position (mode=1)
  6: 0x02D3 [0x1C] WAIT(60* ticks)
  7: 0x02D6 [0x1F] MOVE_ENTITY: EventEntity moves to X=-600.128*, Z=585.578*, Y=0.628*
  8: 0x02DE [0x1F] MOVE_ENTITY: Update entity position (mode=1)
  9: 0x02E0 [0x4B] UPDATE_ENTITY_YAW(entity=Unnamed NPC (ID: 17764424/0x010F1048), yaw=11.8°*)
 10: 0x02E7 [0x1C] WAIT(60* ticks)
 11: 0x02EA [0x00] END_REQSTACK()
```

### Event 65535.22

#### Metadata

| Field        | Value    |
|--------------|----------|
| Entrypoint   | 0x02EB   |
| Data Size    | 50 bytes |
| Instructions | 12       |

```
      00 01 02 03 04 05 06 07  08 09 0A 0B 0C 0D 0E 0F
      -- -- -- -- -- -- -- --  -- -- -- -- -- -- -- --
02E0:                                   32 35 80 1F 00             25...
02F0: 56 80 57 80 58 80 1F 01  1C 29 80 1F 00 52 80 53  V.W.X....)...R.S
0300: 80 54 80 1F 01 1C 29 80  1F 00 36 80 37 80 38 80  .T....)...6.7.8.
0310: 1F 01 4B 48 10 0F 01 55  80 1C 29 80 00           ..KH...U..)..   
```

#### Opcodes

```
  0: 0x02EB [0x32] ExtData[1]->MainSpeed = 19* * 0.1
  1: 0x02EE [0x1F] MOVE_ENTITY: EventEntity moves to X=-599.892*, Z=588.477*, Y=0.373*
  2: 0x02F6 [0x1F] MOVE_ENTITY: Update entity position (mode=1)
  3: 0x02F8 [0x1C] WAIT(60* ticks)
  4: 0x02FB [0x1F] MOVE_ENTITY: EventEntity moves to X=-602.144*, Z=586.825*, Y=0.376*
  5: 0x0303 [0x1F] MOVE_ENTITY: Update entity position (mode=1)
  6: 0x0305 [0x1C] WAIT(60* ticks)
  7: 0x0308 [0x1F] MOVE_ENTITY: EventEntity moves to X=-600.128*, Z=585.578*, Y=0.628*
  8: 0x0310 [0x1F] MOVE_ENTITY: Update entity position (mode=1)
  9: 0x0312 [0x4B] UPDATE_ENTITY_YAW(entity=Unnamed NPC (ID: 17764424/0x010F1048), yaw=11.8°*)
 10: 0x0319 [0x1C] WAIT(60* ticks)
 11: 0x031C [0x00] END_REQSTACK()
```

### Event 65535.23

#### Metadata

| Field        | Value    |
|--------------|----------|
| Entrypoint   | 0x031D   |
| Data Size    | 67 bytes |
| Instructions | 15       |

```
      00 01 02 03 04 05 06 07  08 09 0A 0B 0C 0D 0E 0F
      -- -- -- -- -- -- -- --  -- -- -- -- -- -- -- --
0310:                                         32 05 80               2..
0320: 1F 00 59 80 5A 80 5B 80  1F 01 4B 48 10 0F 01 5C  ..Y.Z.[...KH...\
0330: 80 1C 29 80 1F 00 5D 80  5E 80 5F 80 1F 01 4B 48  ..)...].^._...KH
0340: 10 0F 01 60 80 1C 61 80  1F 00 62 80 63 80 64 80  ...`..a...b.c.d.
0350: 1F 01 1C 46 80 4B 48 10  0F 01 65 80 1C 29 80 00  ...F.KH...e..)..
```

#### Opcodes

```
  0: 0x031D [0x32] ExtData[1]->MainSpeed = 57* * 0.1
  1: 0x0320 [0x1F] MOVE_ENTITY: EventEntity moves to X=-599.295*, Z=590.678*, Y=0.264*
  2: 0x0328 [0x1F] MOVE_ENTITY: Update entity position (mode=1)
  3: 0x032A [0x4B] UPDATE_ENTITY_YAW(entity=Unnamed NPC (ID: 17764424/0x010F1048), yaw=5.3°*)
  4: 0x0331 [0x1C] WAIT(60* ticks)
  5: 0x0334 [0x1F] MOVE_ENTITY: EventEntity moves to X=-604.353*, Z=586.292*, Y=0.138*
  6: 0x033C [0x1F] MOVE_ENTITY: Update entity position (mode=1)
  7: 0x033E [0x4B] UPDATE_ENTITY_YAW(entity=Unnamed NPC (ID: 17764424/0x010F1048), yaw=0.2°*)
  8: 0x0345 [0x1C] WAIT(240* ticks)
  9: 0x0348 [0x1F] MOVE_ENTITY: EventEntity moves to X=-600.328*, Z=582.410*, Y=0.802*
 10: 0x0350 [0x1F] MOVE_ENTITY: Update entity position (mode=1)
 11: 0x0352 [0x1C] WAIT(30* ticks)
 12: 0x0355 [0x4B] UPDATE_ENTITY_YAW(entity=Unnamed NPC (ID: 17764424/0x010F1048), yaw=16.6°*)
 13: 0x035C [0x1C] WAIT(60* ticks)
 14: 0x035F [0x00] END_REQSTACK()
```

### Event 65535.24

#### Metadata

| Field        | Value    |
|--------------|----------|
| Entrypoint   | 0x0360   |
| Data Size    | 14 bytes |
| Instructions | 4        |

```
      00 01 02 03 04 05 06 07  08 09 0A 0B 0C 0D 0E 0F
      -- -- -- -- -- -- -- --  -- -- -- -- -- -- -- --
0360: 32 2B 80 1F 00 66 80 67  80 68 80 1F 01 00        2+...f.g.h....  
```

#### Opcodes

```
  0: 0x0360 [0x32] ExtData[1]->MainSpeed = 10* * 0.1
  1: 0x0363 [0x1F] MOVE_ENTITY: EventEntity moves to X=-599.148*, Z=589.043*, Y=0.345*
  2: 0x036B [0x1F] MOVE_ENTITY: Update entity position (mode=1)
  3: 0x036D [0x00] END_REQSTACK()
```

### Event 65535.25

#### Metadata

| Field        | Value    |
|--------------|----------|
| Entrypoint   | 0x036E   |
| Data Size    | 51 bytes |
| Instructions | 11       |

```
      00 01 02 03 04 05 06 07  08 09 0A 0B 0C 0D 0E 0F
      -- -- -- -- -- -- -- --  -- -- -- -- -- -- -- --
0360:                                            32 2B                2+
0370: 80 1F 00 69 80 6A 80 05  80 1F 01 1F 00 6B 80 6C  ...i.j.......k.l
0380: 80 6D 80 1F 01 1F 00 6E  80 6F 80 70 80 1F 01 1E  .m.....n.o.p....
0390: 44 10 0F 01 1C 46 80 4A  44 10 0F 01 45 10 0F 01  D....F.JD...E...
03A0: 00                                                .               
```

#### Opcodes

```
  0: 0x036E [0x32] ExtData[1]->MainSpeed = 10* * 0.1
  1: 0x0371 [0x1F] MOVE_ENTITY: EventEntity moves to X=-604.257*, Z=586.573*, Y=0.057*
  2: 0x0379 [0x1F] MOVE_ENTITY: Update entity position (mode=1)
  3: 0x037B [0x1F] MOVE_ENTITY: EventEntity moves to X=-603.318*, Z=588.527*, Y=0.196*
  4: 0x0383 [0x1F] MOVE_ENTITY: Update entity position (mode=1)
  5: 0x0385 [0x1F] MOVE_ENTITY: EventEntity moves to X=-601.495*, Z=586.040*, Y=0.496*
  6: 0x038D [0x1F] MOVE_ENTITY: Update entity position (mode=1)
  7: 0x038F [0x1E] EventEntity looks at Unnamed NPC (ID: 17764420/0x010F1044) and starts talking
  8: 0x0394 [0x1C] WAIT(30* ticks)
  9: 0x0397 [0x4A] Unnamed NPC (ID: 17764420/0x010F1044) looks at Unnamed NPC (ID: 17764421/0x010F1045)
 10: 0x03A0 [0x00] END_REQSTACK()
```

### Event 65535.26

#### Metadata

| Field        | Value    |
|--------------|----------|
| Entrypoint   | 0x03A1   |
| Data Size    | 14 bytes |
| Instructions | 4        |

```
      00 01 02 03 04 05 06 07  08 09 0A 0B 0C 0D 0E 0F
      -- -- -- -- -- -- -- --  -- -- -- -- -- -- -- --
03A0:    32 05 80 1F 00 66 80  67 80 68 80 1F 01 00      2....f.g.h.... 
```

#### Opcodes

```
  0: 0x03A1 [0x32] ExtData[1]->MainSpeed = 57* * 0.1
  1: 0x03A4 [0x1F] MOVE_ENTITY: EventEntity moves to X=-599.148*, Z=589.043*, Y=0.345*
  2: 0x03AC [0x1F] MOVE_ENTITY: Update entity position (mode=1)
  3: 0x03AE [0x00] END_REQSTACK()
```

### Event 65535.27

#### Metadata

| Field        | Value    |
|--------------|----------|
| Entrypoint   | 0x03AF   |
| Data Size    | 51 bytes |
| Instructions | 11       |

```
      00 01 02 03 04 05 06 07  08 09 0A 0B 0C 0D 0E 0F
      -- -- -- -- -- -- -- --  -- -- -- -- -- -- -- --
03A0:                                               32                 2
03B0: 05 80 1F 00 69 80 6A 80  05 80 1F 01 1F 00 6B 80  ....i.j.......k.
03C0: 6C 80 6D 80 1F 01 1F 00  6E 80 6F 80 70 80 1F 01  l.m.....n.o.p...
03D0: 1E 44 10 0F 01 1C 46 80  4A 44 10 0F 01 48 10 0F  .D....F.JD...H..
03E0: 01 00                                             ..              
```

#### Opcodes

```
  0: 0x03AF [0x32] ExtData[1]->MainSpeed = 57* * 0.1
  1: 0x03B2 [0x1F] MOVE_ENTITY: EventEntity moves to X=-604.257*, Z=586.573*, Y=0.057*
  2: 0x03BA [0x1F] MOVE_ENTITY: Update entity position (mode=1)
  3: 0x03BC [0x1F] MOVE_ENTITY: EventEntity moves to X=-603.318*, Z=588.527*, Y=0.196*
  4: 0x03C4 [0x1F] MOVE_ENTITY: Update entity position (mode=1)
  5: 0x03C6 [0x1F] MOVE_ENTITY: EventEntity moves to X=-601.495*, Z=586.040*, Y=0.496*
  6: 0x03CE [0x1F] MOVE_ENTITY: Update entity position (mode=1)
  7: 0x03D0 [0x1E] EventEntity looks at Unnamed NPC (ID: 17764420/0x010F1044) and starts talking
  8: 0x03D5 [0x1C] WAIT(30* ticks)
  9: 0x03D8 [0x4A] Unnamed NPC (ID: 17764420/0x010F1044) looks at Unnamed NPC (ID: 17764424/0x010F1048)
 10: 0x03E1 [0x00] END_REQSTACK()
```

### Event 65535.28

#### Metadata

| Field        | Value    |
|--------------|----------|
| Entrypoint   | 0x03E2   |
| Data Size    | 59 bytes |
| Instructions | 13       |

```
      00 01 02 03 04 05 06 07  08 09 0A 0B 0C 0D 0E 0F
      -- -- -- -- -- -- -- --  -- -- -- -- -- -- -- --
03E0:       32 2B 80 1F 00 71  80 72 80 73 80 1F 01 1F    2+...q.r.s....
03F0: 00 74 80 75 80 76 80 1F  01 1F 00 77 80 78 80 79  .t.u.v.....w.x.y
0400: 80 1F 01 1F 00 7A 80 7B  80 7C 80 1F 01 1F 00 7D  .....z.{.|.....}
0410: 80 7E 80 7F 80 1F 01 1E  44 10 0F 01 00           .~......D....   
```

#### Opcodes

```
  0: 0x03E2 [0x32] ExtData[1]->MainSpeed = 10* * 0.1
  1: 0x03E5 [0x1F] MOVE_ENTITY: EventEntity moves to X=-601.361*, Z=584.507*, Y=0.542*
  2: 0x03ED [0x1F] MOVE_ENTITY: Update entity position (mode=1)
  3: 0x03EF [0x1F] MOVE_ENTITY: EventEntity moves to X=-600.414*, Z=583.859*, Y=0.704*
  4: 0x03F7 [0x1F] MOVE_ENTITY: Update entity position (mode=1)
  5: 0x03F9 [0x1F] MOVE_ENTITY: EventEntity moves to X=-599.376*, Z=585.276*, Y=0.668*
  6: 0x0401 [0x1F] MOVE_ENTITY: Update entity position (mode=1)
  7: 0x0403 [0x1F] MOVE_ENTITY: EventEntity moves to X=-598.992*, Z=587.260*, Y=0.468*
  8: 0x040B [0x1F] MOVE_ENTITY: Update entity position (mode=1)
  9: 0x040D [0x1F] MOVE_ENTITY: EventEntity moves to X=-599.942*, Z=587.474*, Y=0.447*
 10: 0x0415 [0x1F] MOVE_ENTITY: Update entity position (mode=1)
 11: 0x0417 [0x1E] EventEntity looks at Unnamed NPC (ID: 17764420/0x010F1044) and starts talking
 12: 0x041C [0x00] END_REQSTACK()
```

### Event 65535.29

#### Metadata

| Field        | Value    |
|--------------|----------|
| Entrypoint   | 0x041D   |
| Data Size    | 69 bytes |
| Instructions | 15       |

```
      00 01 02 03 04 05 06 07  08 09 0A 0B 0C 0D 0E 0F
      -- -- -- -- -- -- -- --  -- -- -- -- -- -- -- --
0410:                                         32 05 80               2..
0420: 1F 00 80 80 81 80 28 80  1F 01 1F 00 82 80 83 80  ......(.........
0430: 84 80 1F 01 1F 00 85 80  86 80 87 80 1F 01 1F 00  ................
0440: 88 80 89 80 8A 80 1F 01  1F 00 8B 80 8C 80 8D 80  ................
0450: 1F 01 1F 00 8E 80 8F 80  90 80 1F 01 1E 44 10 0F  .............D..
0460: 01 00                                             ..              
```

#### Opcodes

```
  0: 0x041D [0x32] ExtData[1]->MainSpeed = 57* * 0.1
  1: 0x0420 [0x1F] MOVE_ENTITY: EventEntity moves to X=-602.454*, Z=588.333*, Y=0.247*
  2: 0x0428 [0x1F] MOVE_ENTITY: Update entity position (mode=1)
  3: 0x042A [0x1F] MOVE_ENTITY: EventEntity moves to X=-603.634*, Z=585.657*, Y=0.144*
  4: 0x0432 [0x1F] MOVE_ENTITY: Update entity position (mode=1)
  5: 0x0434 [0x1F] MOVE_ENTITY: EventEntity moves to X=-602.421*, Z=582.680*, Y=0.396*
  6: 0x043C [0x1F] MOVE_ENTITY: Update entity position (mode=1)
  7: 0x043E [0x1F] MOVE_ENTITY: EventEntity moves to X=-599.175*, Z=582.899*, Y=0.854*
  8: 0x0446 [0x1F] MOVE_ENTITY: Update entity position (mode=1)
  9: 0x0448 [0x1F] MOVE_ENTITY: EventEntity moves to X=-598.432*, Z=587.737*, Y=0.410*
 10: 0x0450 [0x1F] MOVE_ENTITY: Update entity position (mode=1)
 11: 0x0452 [0x1F] MOVE_ENTITY: EventEntity moves to X=-599.890*, Z=589.432*, Y=0.326*
 12: 0x045A [0x1F] MOVE_ENTITY: Update entity position (mode=1)
 13: 0x045C [0x1E] EventEntity looks at Unnamed NPC (ID: 17764420/0x010F1044) and starts talking
 14: 0x0461 [0x00] END_REQSTACK()
```

### Event 65535.30

#### Metadata

| Field        | Value    |
|--------------|----------|
| Entrypoint   | 0x0462   |
| Data Size    | 15 bytes |
| Instructions | 3        |

```
      00 01 02 03 04 05 06 07  08 09 0A 0B 0C 0D 0E 0F
      -- -- -- -- -- -- -- --  -- -- -- -- -- -- -- --
0460:       37 4C 80 4D 80 4E  80 39 80 80 F8 FF FF 7F    7L.M.N.9......
0470: 00                                                .               
```

#### Opcodes

```
  0: 0x0462 [0x37] UPDATE_EVENT_POSITION_AND_DIR: x=-602.007*, z=587.764*, y=0.268*, direction=25.0°*
  1: 0x046B [0x80] LOAD_WAIT(entity=EventEntity)
  2: 0x0470 [0x00] END_REQSTACK()
```
