# 17764368 - Rakoh Buuma

## Common Data

| Field            | Value                    |
|------------------|--------------------------|
| Zone             | Windurst Woods (ID: 241) |
| Block Size       | 8704 bytes               |
| Total Events     | 105                      |
| References Count | 174                      |

## List of Events

| Event ID                   | Entrypoint   |   Size |   Instructions |
|----------------------------|--------------|--------|----------------|
| [65535](#event-65535)      | 0x0000       |      1 |              1 |
| [65535.1](#event-655351)   | 0x0001       |     16 |              2 |
| [65535.2](#event-655352)   | 0x0011       |     42 |              4 |
| [65535.3](#event-655353)   | 0x003B       |     16 |              2 |
| [65535.4](#event-655354)   | 0x004B       |     14 |              2 |
| [65535.5](#event-655355)   | 0x0059       |     16 |              2 |
| [65535.6](#event-655356)   | 0x0069       |     14 |              2 |
| [65535.7](#event-655357)   | 0x0077       |     16 |              2 |
| [65535.8](#event-655358)   | 0x0087       |     14 |              2 |
| [65535.9](#event-655359)   | 0x0095       |     22 |              3 |
| [65535.10](#event-6553510) | 0x00AB       |     14 |              2 |
| [65535.11](#event-6553511) | 0x00B9       |     16 |              2 |
| [65535.12](#event-6553512) | 0x00C9       |     20 |              3 |
| [65535.13](#event-6553513) | 0x00DD       |     16 |              2 |
| [65535.14](#event-6553514) | 0x00ED       |     14 |              2 |
| [65535.15](#event-6553515) | 0x00FB       |     16 |              2 |
| [65535.16](#event-6553516) | 0x010B       |     14 |              2 |
| [65535.17](#event-6553517) | 0x0119       |     16 |              2 |
| [65535.18](#event-6553518) | 0x0129       |     14 |              2 |
| [65535.19](#event-6553519) | 0x0137       |     16 |              2 |
| [65535.20](#event-6553520) | 0x0147       |     14 |              2 |
| [65535.21](#event-6553521) | 0x0155       |      9 |              3 |
| [65535.22](#event-6553522) | 0x015E       |     56 |              8 |
| [112](#event-112)          | 0x0196       |     33 |             12 |
| [113](#event-113)          | 0x01B7       |     29 |             10 |
| [105](#event-105)          | 0x01D4       |     33 |             12 |
| [114](#event-114)          | 0x01F5       |    539 |             96 |
| [65535.23](#event-6553523) | 0x0410       |     42 |             11 |
| [848](#event-848)          | 0x043A       |      1 |              1 |
| [876](#event-876)          | 0x043B       |      1 |              1 |
| [121](#event-121)          | 0x043C       |    232 |             33 |
| [120](#event-120)          | 0x0524       |     47 |              9 |
| [65535.24](#event-6553524) | 0x0553       |    104 |             17 |
| [122](#event-122)          | 0x05BB       |    325 |             44 |
| [123](#event-123)          | 0x0700       |    251 |             35 |
| [65535.25](#event-6553525) | 0x07FB       |     23 |              7 |
| [65535.26](#event-6553526) | 0x0812       |      9 |              5 |
| [65535.27](#event-6553527) | 0x081B       |     37 |              9 |
| [65535.28](#event-6553528) | 0x0840       |     19 |              5 |
| [65535.29](#event-6553529) | 0x0853       |     19 |              5 |
| [65535.30](#event-6553530) | 0x0866       |     23 |              7 |
| [65535.31](#event-6553531) | 0x087D       |     33 |              7 |
| [65535.32](#event-6553532) | 0x089E       |     23 |              7 |
| [65535.33](#event-6553533) | 0x08B5       |      9 |              5 |
| [127](#event-127)          | 0x08BE       |     33 |             12 |
| [129](#event-129)          | 0x08DF       |     33 |             12 |
| [132](#event-132)          | 0x0900       |    167 |             28 |
| [65535.34](#event-6553534) | 0x09A7       |     23 |              7 |
| [65535.35](#event-6553535) | 0x09BE       |     37 |              9 |
| [65535.36](#event-6553536) | 0x09E3       |      5 |              3 |
| [136](#event-136)          | 0x09E8       |     33 |             12 |
| [149](#event-149)          | 0x0A09       |    224 |             31 |
| [65535.37](#event-6553537) | 0x0AE9       |     19 |              5 |
| [65535.38](#event-6553538) | 0x0AFC       |     23 |              7 |
| [65535.39](#event-6553539) | 0x0B13       |     23 |              7 |
| [65535.40](#event-6553540) | 0x0B2A       |     23 |              7 |
| [65535.41](#event-6553541) | 0x0B41       |     33 |              7 |
| [150](#event-150)          | 0x0B62       |     47 |             14 |
| [154](#event-154)          | 0x0B91       |    259 |             39 |
| [65535.42](#event-6553542) | 0x0C94       |     19 |              5 |
| [155](#event-155)          | 0x0CA7       |     29 |             10 |
| [159](#event-159)          | 0x0CC4       |    176 |             28 |
| [65535.43](#event-6553543) | 0x0D74       |     41 |             11 |
| [65535.44](#event-6553544) | 0x0D9D       |     19 |              5 |
| [160](#event-160)          | 0x0DB0       |     65 |             18 |
| [472](#event-472)          | 0x0DF1       |    191 |             29 |
| [65535.45](#event-6553545) | 0x0EB0       |     23 |              7 |
| [65535.46](#event-6553546) | 0x0EC7       |     23 |              7 |
| [473](#event-473)          | 0x0EDE       |     33 |             12 |
| [176](#event-176)          | 0x0EFF       |    118 |             19 |
| [65535.47](#event-6553547) | 0x0F75       |     19 |              5 |
| [65535.48](#event-6553548) | 0x0F88       |     33 |              7 |
| [177](#event-177)          | 0x0FA9       |     29 |             10 |
| [181](#event-181)          | 0x0FC6       |    111 |             18 |
| [65535.49](#event-6553549) | 0x1035       |     55 |             13 |
| [182](#event-182)          | 0x106C       |     33 |             12 |
| [186](#event-186)          | 0x108D       |    130 |             25 |
| [188](#event-188)          | 0x110F       |     33 |             12 |
| [187](#event-187)          | 0x1130       |    133 |             26 |
| [192](#event-192)          | 0x11B5       |    140 |             25 |
| [193](#event-193)          | 0x1241       |     33 |             12 |
| [197](#event-197)          | 0x1262       |     33 |             12 |
| [198](#event-198)          | 0x1283       |     33 |             12 |
| [205](#event-205)          | 0x12A4       |    182 |             30 |
| [206](#event-206)          | 0x135A       |     33 |             12 |
| [210](#event-210)          | 0x137B       |    127 |             25 |
| [211](#event-211)          | 0x13FA       |     33 |             12 |
| [557](#event-557)          | 0x141B       |    236 |             34 |
| [558](#event-558)          | 0x1507       |     47 |             14 |
| [562](#event-562)          | 0x1536       |    222 |             32 |
| [563](#event-563)          | 0x1614       |     47 |             14 |
| [568](#event-568)          | 0x1643       |    274 |             38 |
| [569](#event-569)          | 0x1755       |     33 |             12 |
| [573](#event-573)          | 0x1776       |    281 |             39 |
| [574](#event-574)          | 0x188F       |     61 |             16 |
| [578](#event-578)          | 0x18CC       |    250 |             36 |
| [579](#event-579)          | 0x19C6       |     33 |             12 |
| [583](#event-583)          | 0x19E7       |    296 |             42 |
| [584](#event-584)          | 0x1B0F       |     59 |             16 |
| [613](#event-613)          | 0x1B4A       |    175 |             29 |
| [614](#event-614)          | 0x1BF9       |     33 |             12 |
| [624](#event-624)          | 0x1C1A       |    230 |             36 |
| [625](#event-625)          | 0x1D00       |     33 |             12 |
| [651](#event-651)          | 0x1D21       |     47 |             14 |
| [632](#event-632)          | 0x1D50       |     66 |             19 |

## DAT References (imed_data)

|   Index | Hex Value   |   Dec Value |
|---------|-------------|-------------|
|       0 | 0x0166      |         358 |
|       1 | 0x016C      |         364 |
|       2 | 0x0168      |         360 |
|       3 | 0x001E      |          30 |
|       4 | 0x00C8      |         200 |
|       5 | 0x0000      |           0 |
|       6 | 0x003C      |          60 |
|       7 | 0x0D01      |        3329 |
|       8 | 0x1DF3      |        7667 |
|       9 | 0x1DF4      |        7668 |
|      10 | 0x1DF5      |        7669 |
|      11 | 0x1DE7      |        7655 |
|      12 | 0x1DE8      |        7656 |
|      13 | 0x1DF6      |        7670 |
|      14 | 0x001F      |          31 |
|      15 | 0x0001      |           1 |
|      16 | 0x0002      |           2 |
|      17 | 0x0003      |           3 |
|      18 | 0x0004      |           4 |
|      19 | 0x0005      |           5 |
|      20 | 0x000A      |          10 |
|      21 | 0x000B      |          11 |
|      22 | 0x000C      |          12 |
|      23 | 0x000E      |          14 |
|      24 | 0x000F      |          15 |
|      25 | 0x0010      |          16 |
|      26 | 0x0011      |          17 |
|      27 | 0x0012      |          18 |
|      28 | 0x0013      |          19 |
|      29 | 0x0014      |          20 |
|      30 | 0x0015      |          21 |
|      31 | 0x0016      |          22 |
|      32 | 0x0017      |          23 |
|      33 | 0x1A5D      |        6749 |
|      34 | 0x008D      |         141 |
|      35 | 0x1E05      |        7685 |
|      36 | 0x1E0E      |        7694 |
|      37 | 0x0008      |           8 |
|      38 | 0x1DFF      |        7679 |
|      39 | 0x1E00      |        7680 |
|      40 | 0x1E01      |        7681 |
|      41 | 0x1E02      |        7682 |
|      42 | 0x1E03      |        7683 |
|      43 | 0x1E04      |        7684 |
|      44 | 0x1E10      |        7696 |
|      45 | 0x1E06      |        7686 |
|      46 | 0x1E0C      |        7692 |
|      47 | 0x1E0D      |        7693 |
|      48 | 0x1E0F      |        7695 |
|      49 | 0x1E11      |        7697 |
|      50 | 0x1E12      |        7698 |
|      51 | 0x1E18      |        7704 |
|      52 | 0x1E19      |        7705 |
|      53 | 0x1E20      |        7712 |
|      54 | 0x1E21      |        7713 |
|      55 | 0x1E22      |        7714 |
|      56 | 0x1E23      |        7715 |
|      57 | 0x1E2A      |        7722 |
|      58 | 0x0691      |        1681 |
|      59 | 0x1E28      |        7720 |
|      60 | 0x1E29      |        7721 |
|      61 | 0x1E2B      |        7723 |
|      62 | 0x1E2C      |        7724 |
|      63 | 0x1E2D      |        7725 |
|      64 | 0x1E34      |        7732 |
|      65 | 0x1E35      |        7733 |
|      66 | 0x1E65      |        7781 |
|      67 | 0x1E66      |        7782 |
|      68 | 0x1E67      |        7783 |
|      69 | 0x1E68      |        7784 |
|      70 | 0x1E69      |        7785 |
|      71 | 0x1E6A      |        7786 |
|      72 | 0x1E6B      |        7787 |
|      73 | 0x1E6C      |        7788 |
|      74 | 0x1E6D      |        7789 |
|      75 | 0x1E6E      |        7790 |
|      76 | 0x1E77      |        7799 |
|      77 | 0x1E78      |        7800 |
|      78 | 0x1E79      |        7801 |
|      79 | 0x00C9      |         201 |
|      80 | 0x1E76      |        7798 |
|      81 | 0x1E83      |        7811 |
|      82 | 0x1E80      |        7808 |
|      83 | 0x1E81      |        7809 |
|      84 | 0x1E82      |        7810 |
|      85 | 0x1E84      |        7812 |
|      86 | 0x1E85      |        7813 |
|      87 | 0x1E86      |        7814 |
|      88 | 0x1E87      |        7815 |
|      89 | 0x21DF      |        8671 |
|      90 | 0x21DD      |        8669 |
|      91 | 0x21DE      |        8670 |
|      92 | 0x21E0      |        8672 |
|      93 | 0x21E1      |        8673 |
|      94 | 0x21E2      |        8674 |
|      95 | 0x21E3      |        8675 |
|      96 | 0x1EAA      |        7850 |
|      97 | 0x1EAB      |        7851 |
|      98 | 0x1EAC      |        7852 |
|      99 | 0x1EB2      |        7858 |
|     100 | 0x1EB3      |        7859 |
|     101 | 0x1EB4      |        7860 |
|     102 | 0x1EB5      |        7861 |
|     103 | 0x1EB6      |        7862 |
|     104 | 0x1EBD      |        7869 |
|     105 | 0x1EBE      |        7870 |
|     106 | 0x1EBF      |        7871 |
|     107 | 0x1EC2      |        7874 |
|     108 | 0x1EC3      |        7875 |
|     109 | 0x1EC0      |        7872 |
|     110 | 0x1EC1      |        7873 |
|     111 | 0x1ECA      |        7882 |
|     112 | 0x1ECB      |        7883 |
|     113 | 0x1ECC      |        7884 |
|     114 | 0x1ECD      |        7885 |
|     115 | 0x1ED4      |        7892 |
|     116 | 0x1ED5      |        7893 |
|     117 | 0x1ED6      |        7894 |
|     118 | 0x1ED7      |        7895 |
|     119 | 0x1EE1      |        7905 |
|     120 | 0x1EE2      |        7906 |
|     121 | 0x1EE3      |        7907 |
|     122 | 0x1EE4      |        7908 |
|     123 | 0x1EE5      |        7909 |
|     124 | 0x1EEC      |        7916 |
|     125 | 0x1EED      |        7917 |
|     126 | 0x1EEE      |        7918 |
|     127 | 0x1EEF      |        7919 |
|     128 | 0x24C9      |        9417 |
|     129 | 0x24CA      |        9418 |
|     130 | 0x24CB      |        9419 |
|     131 | 0x24CC      |        9420 |
|     132 | 0x24D4      |        9428 |
|     133 | 0x24D5      |        9429 |
|     134 | 0x24D6      |        9430 |
|     135 | 0x24D7      |        9431 |
|     136 | 0x24DE      |        9438 |
|     137 | 0x24DF      |        9439 |
|     138 | 0x24E0      |        9440 |
|     139 | 0x24E1      |        9441 |
|     140 | 0x24E2      |        9442 |
|     141 | 0x24E9      |        9449 |
|     142 | 0x24EA      |        9450 |
|     143 | 0x24EB      |        9451 |
|     144 | 0x24EC      |        9452 |
|     145 | 0x24ED      |        9453 |
|     146 | 0x24F4      |        9460 |
|     147 | 0x24F5      |        9461 |
|     148 | 0x24F6      |        9462 |
|     149 | 0x24F7      |        9463 |
|     150 | 0x24F8      |        9464 |
|     151 | 0x2501      |        9473 |
|     152 | 0x2502      |        9474 |
|     153 | 0x0007      |           7 |
|     154 | 0x2503      |        9475 |
|     155 | 0x007F      |         127 |
|     156 | 0x0006      |           6 |
|     157 | 0x2504      |        9476 |
|     158 | 0x2505      |        9477 |
|     159 | 0x2563      |        9571 |
|     160 | 0x2564      |        9572 |
|     161 | 0x2565      |        9573 |
|     162 | 0x2566      |        9574 |
|     163 | 0x25B2      |        9650 |
|     164 | 0x25B3      |        9651 |
|     165 | 0x25B4      |        9652 |
|     166 | 0x25B5      |        9653 |
|     167 | 0x25B6      |        9654 |
|     168 | 0x25B7      |        9655 |
|     169 | 0x25B8      |        9656 |
|     170 | 0x25B9      |        9657 |
|     171 | 0x25DD      |        9693 |
|     172 | 0x25DE      |        9694 |
|     173 | 0x25DF      |        9695 |

## String References

- **6749**: Accept this mission? [Yes./No.]
- **7655**: This is the eastern gatehouse--a gathering place for the guards who do the rrrounds of Windurst Woods.
- **7656**: If you're after a map of Windurst, then head to the opening back up there. There's a Mithra merchant selling them there.
- **7667**: You cannot accept more than one mission at a time.
- **7668**: Please complete your current mission before applying for the next.
- **7669**: The missions we are currently able to offer you at the eastern gatehouse are as follows...
- **7670**: Which mission will you accept? [The Horutoto Ruins Experiment./The Heart of the Matter./The Price of Peace./Lost for Words./A Testing Time./The Three Kingdoms./Mission 2-3-1A./Mission 2-3-1B./Mission 2-3-2A./Mission 2-3-2B./To Each His Own Right./Written in the Stars./A New Journey./Magicite./The Final Seal./The Shadow Awaits./Full Moon Fountain./Saintly Invitation./The Sixth Ministry./Awakening of the Gods./Vain./The Jester Who'd Be King./Doll of the Dead./Moon Reading./Dummy11./Dummy12./Dummy13./Dummy14./Dummy15./Dummy16./Dummy17./Decline mission.]
- **7679**: This is the eastern gatehouse--a gathering place for the guards who do the rrrounds of Windurst Woods.
- **7680**: To expel those who would subvert the law and order of Windurst Woods... To protect the Mithra populace from all manner of threats and dangers... That is the job of us guards.
- **7681**: But lately, ferocious monsters are on the increase, and the beastmen are rrruining nature as they please, so our job is becoming all the more hectic.
- **7682**: If you are a citizen of Windurst, then perhaps you may lend us a helping hand from time to time in order to protect the peace of our fair town.
- **7683**: For instance, you could try to do some missions...special tasks issued on behalf of the Federation of Windurst...
- **7684**: But first, you might prefer to listen to our explanation of the rrrole of gatehouses before you decide...
- **7685**: Hear explanation of gatehouses? [Hear! Hear!/Turn a deaf ear.]
- **7686**: Good, then allow us to explain. Sola Jaab, would you like to do the honors?
- **7692**: So how about it? If you consider yourself a model citizen of Windurst, I rrrecommend you serve your country by trying your hand at missions.
- **7693**: The very rrreason that you came to Windurst in the first place was because you wanted to make something out of yourself, wasn't it?
- **7694**: Receive a mission? [Accept./Decline.]
- **7695**: Well, I guess there's little more to say than "Maybe next time," eh?
- **7696**: So you don't need to know about gatehouses, eh? I don't suppose you'll be interested in taking on any missions, then...?
- **7697**: Well said! That heartfelt rrreply is your first great step towards making Windurst a better place.
- **7698**: So, without further delay, let's issue you your first mission. Do either of you have just the rrright mission for [him/her]?
- **7704**: Good. Carry out that mission! The Orastery is the ministry that rrruns a Mage Academy to improve the military's magic abilities.
- **7705**: To get to the Orastery, you have to go to the port area by heading back west from this gate. Your country is counting on you!
- **7712**: The details of the mission will be explained when you meet with the Orastery's minister. I can't say he's the most pleasant of people, but at least he has guts.
- **7713**: Do us proud!
- **7714**: Good job! Glad to see you made it back alive! I trust the mission wasn't too dangerous.
- **7715**: Allocating rrrank points according to your efforts...has enabled you to go up to rrrank two! Congratulations!
- **7720**: You've come just at the rrright time. The Manustery just up the rrroad there is asking for help in making automaton guards at the Cardian workshop.
- **7721**: Seeing as the Cardian workshop is rrright next door, you can hardly turn this mission down, can you?
- **7722**: Accept this mission? [Accept./Decline.]
- **7723**: Ask the staff at the Cardian workshop for the details.
- **7724**: The Manustery's Cardian workshop is straight back down that rrroad there, on the right-hand side of the Bomingo Round.
- **7725**: Rrreally? Too bad, then.
- **7732**: I'm sure the Minister of the Manustery will fill you in on the details of your mission.
- **7733**: Cardians come in useful when you're after quantity over quality. Anyway, carry out your mission well--at least it'll help us keep the peace with our neighborhood ministry!
- **7781**: So, have these missions helped in making you stronger? Perhaps you're about rrready for a mission that involves the Yagudo beastmen.
- **7782**: On the other side of West Sarutabaruta is a place called Giddeus--the home of the Yagudo.
- **7783**: You know the Yagudo, don't you? They are the beastmen who for ever so long have rrravaged the grasslands of Sarutabaruta.
- **7784**: But the current Star Sibyl took it upon herself to try and make amicable rrrelations with the damned enemy...
- **7785**: As a rrresult, we have to pay tribute to the Yagudo with food offerings as a sign of our friendship. That's the crux of this mission.
- **7786**: First, you are to go to the Rrrhinostery's biological laboratory in Windurst Waters. The rrresearchers there will provide you with today's food offering for the Yagudo.
- **7787**: The rrresearchers will tell you what you are to do next.
- **7788**: This is an important mission issued by Heavens Tower, or more specifically, the Star Sibyl herself. Control your hatred of the beastmen and fulfill this mission as best as you can!
- **7789**: Grrr... Dammit! How long do we have to go on paying tribute to scavengers who could double-cross us at any time?
- **7790**: Anyway, you had better head on over to the Rrrhinostery in Windurst Waters, and pick up the food offering that the rrresearchers there have prepared for you to offer at Giddeus.
- **7798**: So you completed the mission...? Then I shall be rrrecommending you for promotion to rrrank two.
- **7799**: I suggest you try your hand at conquests now, as you'll need to gain more rrrank points before we can issue you further missions.
- **7800**: You can gain the rrrank points you need from participating in the rrregional conquests. Ask the War Warlock guard in charge of conquests over there for further information...
- **7801**: See you around.
- **7808**: Have you ever been to the Optistery's Library of Magic in Windurst Waters?
- **7809**: Looks like they're in a spot of trouble there, as they are urgently asking for any able adventurer we have on hand to go help them out.
- **7810**: How about it, then? If you feel you're up to it, why don't you volunteer to help the Optistery out?
- **7811**: Accept Mission? [Accept./Decline.]
- **7812**: Then proceed to the Optistery's Library of Magic immediately. It's on the north side of Windurst Waters--the building that the rrroad to the north gatehouse rrruns through.
- **7813**: The Library of Magic is northwest of here in Windurst Waters--the area furthest away from Windurst Woods.
- **7814**: The library lends out books if you're interested in them... Not that I've ever been there myself.
- **7815**: I hear they have a problem with people taking out books and never rrreturning them. Grrr... Those Tarutaru are such easy game!
- **7850**: You came at just the rrright time. We just rrreceived a rrrequest for help in a large-scale mission from Heavens Tower, but we're short of adventurers to dispatch just now.
- **7851**: The secretary of Heavens Tower will explain what this mission entails. Proceed there immediately.
- **7852**: Heavens Tower is north of here in Windurst Walls. You should have the details explained to you by the secretary there.
- **7858**: Ah, <Player>! Heavens Tower is hailing you!
- **7859**: Why, the head Sibyl Guard herself, Semih Lafihna, came asking for you! Seems your activities in all three nations have become your ticket to move up in the world, eh?
- **7860**: Anyway, you should hurry on over to Heavens Tower. She's as strict on herself as she is on others!
- **7861**: Semih Lafihna, eh? I don't know why, but I'm just not fond of that girl.
- **7862**: Anyway, get a move on to Heavens Tower. She's strict on herself and on others!
- **7869**: This mission has been issued by the head lady-in-waiting of Heavens Tower, Zubaba.
- **7870**: Not that I know much about her myself, but Zubaba has been serving as head lady-in-waiting since the current Star Sibyl was a child...
- **7871**: She's not a character you dare keep waiting. I rrrecommend you hurry on over to Heavens Tower. If you fulfill a mission from the head lady-in-waiting well enough, it's bound to improve your rrreputation.
- **7872**: This mission has been issued by the head lady-in-waiting, Zubaba.
- **7873**: Seems that they were impressed by your efforts in your previous mission. If you want to keep in their good books, I suggest you rrrush on over to Heavens Tower.
- **7874**: The head lady-in-waiting, Zubaba, is expecting you at Heavens Tower. Please proceed there immediately!
- **7875**: If you complete this mission well, it's bound to improve your rrreputation. Do a good job, you hear?
- **7882**: We have a formal writ of summons from Heavens Tower for you. One with a special star emblem on it signifies it is officially a mission of the utmost importance.
- **7883**: It rrreads that you, <Player>, are to "make yourself present at the Planetarium of Heavens Tower with precipitate haste." This is supposedly the greatest honor a citizen of Windurst can have.
- **7884**: For a formal writ of summons to be issued from Heavens Tower means an extremely important announcement will be made.
- **7885**: This also means you are no longer just a simple adventurer, my friend. Keep your wits about you! We'd like to escort you to your meeting, but alas, we are unable to rrright now.
- **7892**: You haven't heard? An emergency order has been issued to the guards and a select few adventurers deemed most loyal to Windurst.
- **7893**: The issuance of missions has been halted, pending further notice from Heavens Tower. Please stand by until then.
- **7894**: You haven't heard? An emergency order has been issued to the guards and a select few adventurers deemed most loyal to Windurst.
- **7895**: The issuance of missions has been halted pending further notice from Heavens Tower. Please stand by until then.
- **7905**: An emergency mission addressed to you has been issued once again from Heavens Tower.
- **7906**: You had better hurry to Heavens Tower and rrreceive your exact orders there. Seems as though you shall be traveling to the ends of Vana'diel.
- **7907**: The ancient rrruins of Fei'Yin...? I thought it was just the subject of fairy tales...
- **7908**: Have you rrreceived your exact orders yet? If not, then you had better hurry on over to Heavens Tower to rrreceive them. Sounds like you'll be traveling to the ends of Vana'diel.
- **7909**: The ancient rrruins of Fei'Yin...? I thought it was just the stuff of fairy tales...
- **7916**: I just rrreceived word that the conference of ministers has ended.
- **7917**: Together with that announcement came another $3 addressed to you. You had better rrrush on over to Heavens Tower again.
- **7918**: I've rrreceived word that the conference of ministers has ended.
- **7919**: Together with that announcement came $6 addressed to you. You had better rrrush to Heavens Tower.
- **8669**: How about this for a mission? The School of Magic, conducted by the Aurastery, is seeking an able adventurer to help them out.
- **8670**: However, it seems that this mission will rrrequire several days of hard effort. What do you think? Will you give it a try?
- **8671**: Accept the mission? [Accept./Decline.]
- **8672**: The Aurastery's School of Magic is on the eastern side of Windurst Waters. Just head north from Windurst Waters's rrresidential area entrance.
- **8673**: The school is full of children striving to become tomorrow's politicians and scholars. Putting up with them is a greater test of endurance than any mission I can issue you!
- **8674**: The Aurastery's School of Magic is on the eastern side of Windurst Waters. Just head north from Windurst Waters's rrresidential area entrance.
- **8675**: The school is full of children striving to become tomorrow's politicians and scholars. Putting up with them is a greater test of endurance than any mission I can issue you!
- **9417**: Ajido-Marujido... Minister of the Orastery and head of the Mage Academy. This mission has been issued by him.
- **9418**: It says here that you should head to the Orastery right away. There's nothing written about the nature of the mission, but...it's a direct order from the ministerrr. You should hurry along.
- **9419**: ...This is a mission ordered by Ajido-Marujido, head of the Mage Academy. He wants you to head to the Orastery rrright away.
- **9420**: The mission parameters are strictly confidential... I wonder what he'll ask of you?
- **9428**: You have been summoned to Heavens Tower by order of the Star Sibyl.
- **9429**: Could this be rrrelated to the arrest of Minister Ajido-Marujido by the Sibyl Guards? You will probably be interrogated on the details of your previous mission. Make haste to Heavens Tower.
- **9430**: You have been summoned to Heavens Tower by order of the Star Sibyl.
- **9431**: ...Ah yes, if you happen to meet with Semih Lafihna, tell her this: No matter what the Star Sibyl says, we Mithra will follow the path of our beliefs.
- **9438**: Now that the Sibyl Guards are checking all the missions, it really gets my hackles up.
- **9439**: Well, leaving all that aside, your next mission comes from the Optistery. They are rrrequesting assistance with tidying up the book vault.
- **9440**: The Optistery must have been happy with your past performance to ask for you by name.
- **9441**: Go to the Optistery and talk to the minister for the details of your mission.
- **9442**: ...Oh, it's a little late, but... Congratulations on rrreaching rrrank seven.
- **9449**: This is a mission issued by the Rrrhinostery.
- **9450**: The Rrrhinostery wishes your help in a certain matter. Speak with the rrresearcher Leepe-Hoppe for the full details. He can be found on the second floor of the Rrrhinostery.
- **9451**: I have a feeling something bad has happened. I hope you're able to straighten things out for them.
- **9452**: This mission entails helping out the Rrrhinostery. Speak with the rrresearcher Leepe-Hoppe for the full details. He can be found on the second floor of the Rrrhinostery.
- **9453**: The Sibyl Guards had nothing to say about this mission. Does this mean the Rrrhinostery is considered above suspicion? Or does it mean that something more sinister already has their full attention?
- **9460**: Before I explain your mission, I wish to congratulate you.
- **9461**: Well done on rrreaching rrrank eight. There aren't many people who can make it this far.
- **9462**: Rrright, down to brass tacks. Your next mission is from the Aurastery. You can get the details from the teachers at the School of Magic.
- **9463**: The School of Magic is another name for the Aurastery. The teachers there will explain your mission objectives.
- **9464**: Rrrecently, there have been rrrumors of feral Cardians gathering at the magic towers of the Horutoto Ruins. You wouldn't know anything about that, would you?
- **9473**: This mission has not been officially approved. However, all of the gatehouse guards have agreed to ask you to perform this task.
- **9474**: Go to the Manustery and assist Minister Apururu. Those are your orders.
- **9475**: I don't think I need to tell you this, but don't tell anyone about this mission. Be especially careful of that Semih Lafihna. She has a habit of picking up on rrrumors from the most unlikely places.
- **9476**: Don't make me rrrepeat myself. Head to the Manustery and talk with Minister Apururu. This is your mission.
- **9477**: Keep your orders to yourself, and be especially careful that Semih Lafihna doesn't get wind of what you're doing.
- **9571**: Have you heard? Ajido-Marujido has rrregained consciousness.
- **9572**: Word of these goings-on has yet to rrreach Heavens Tower, so keep up the charade on your way to the Manustery.
- **9573**: Ajido-Marujido had been in a coma since collapsing in the Dark Dungeon, rrright?
- **9574**: He would probably be dead by now if no one had gone to save him. What an awful place.
- **9650**: Do you know what's going on, <Player>? Ajido-Marujido has been pardoned for his crimes, and the guards have escaped any disciplinary action, despite our insubordination...
- **9651**: Has something happened within Heavens Tower? They've sent us another mission for you.
- **9652**: According to the mission statement, the Yagudo have proposed a rrrevision to the peace treaty...
- **9653**: ... I'm well aware I shouldn't be poking my nose where it doesn't belong, but my Mithran instincts are making my tail twitch.
- **9654**: Heavens Tower has rrrequested your presence. The Yagudo have sent a proposal to the Star Sibyl asking for a rrrevision of the peace treaty.
- **9655**: The Star Sibyl is more likely to keep the peace, rrrather than object to any of the Yagudo's rrridiculous demands...
- **9656**: ... Naturally, I have been informed of Semih Lafihna's report to Chieftainness Perih Vashai.
- **9657**: Let us worry about the Yagudo--You just keep your mind on the task you have been given. Are we clear?
- **9693**: You have done your utmost for Windurst these many months. As the Captain of the Windurst Woods guards, I formally extend to you our gratitude and friendship.
- **9694**: If I had my way, you would be permanently stationed in Windurst. However, I know that your adventurer's blood would never allow you to settle down for long.
- **9695**: Be sure to come back and visit on occasion, though, and bring us tales and aromas of the new lands you pass through on your travels.

## Events

### Event 65535

#### Metadata

| Field        | Value   |
|--------------|---------|
| Entrypoint   | 0x0000  |
| Data Size    | 1 bytes |
| Instructions | 1       |

```
      00 01 02 03 04 05 06 07  08 09 0A 0B 0C 0D 0E 0F
      -- -- -- -- -- -- -- --  -- -- -- -- -- -- -- --
0000: 00                                                .               
```

#### Opcodes

```
  0: 0x0000 [0x00] END_REQSTACK()
```

### Event 65535.1

#### Metadata

| Field        | Value    |
|--------------|----------|
| Entrypoint   | 0x0001   |
| Data Size    | 16 bytes |
| Instructions | 2        |

```
      00 01 02 03 04 05 06 07  08 09 0A 0B 0C 0D 0E 0F
      -- -- -- -- -- -- -- --  -- -- -- -- -- -- -- --
0000:    5B 00 80 F8 FF FF 7F  F8 FF FF 7F 74 6C 6B 31   [..........tlk1
0010: 00                                                .               
```

#### Opcodes

```
  0: 0x0001 [0x5B] LOAD_EXT_SCHEDULER: Load scheduler "tlk1" with entities [EventEntity, EventEntity], work=358*
  1: 0x0010 [0x00] END_REQSTACK()
```

### Event 65535.2

#### Metadata

| Field        | Value    |
|--------------|----------|
| Entrypoint   | 0x0011   |
| Data Size    | 42 bytes |
| Instructions | 4        |

```
      00 01 02 03 04 05 06 07  08 09 0A 0B 0C 0D 0E 0F
      -- -- -- -- -- -- -- --  -- -- -- -- -- -- -- --
0010:    53 F8 FF FF 7F F8 FF  FF 7F 74 6C 6B 31 5B 00   S........tlk1[.
0020: 80 F8 FF FF 7F F8 FF FF  7F 74 6C 6B 32 53 F8 FF  .........tlk2S..
0030: FF 7F F8 FF FF 7F 74 6C  6B 32 00                 ......tlk2.     
```

#### Opcodes

```
  0: 0x0011 [0x53] WAIT_SCHEDULER_TASK: Wait for scheduler "tlk1" with entities [EventEntity, EventEntity]
  1: 0x001E [0x5B] LOAD_EXT_SCHEDULER: Load scheduler "tlk2" with entities [EventEntity, EventEntity], work=358*
  2: 0x002D [0x53] WAIT_SCHEDULER_TASK: Wait for scheduler "tlk2" with entities [EventEntity, EventEntity]
  3: 0x003A [0x00] END_REQSTACK()
```

### Event 65535.3

#### Metadata

| Field        | Value    |
|--------------|----------|
| Entrypoint   | 0x003B   |
| Data Size    | 16 bytes |
| Instructions | 2        |

```
      00 01 02 03 04 05 06 07  08 09 0A 0B 0C 0D 0E 0F
      -- -- -- -- -- -- -- --  -- -- -- -- -- -- -- --
0030:                                   5B 01 80 F8 FF             [....
0040: FF 7F F8 FF FF 7F 74 6C  62 30 00                 ......tlb0.     
```

#### Opcodes

```
  0: 0x003B [0x5B] LOAD_EXT_SCHEDULER: Load scheduler "tlb0" with entities [EventEntity, EventEntity], work=364*
  1: 0x004A [0x00] END_REQSTACK()
```

### Event 65535.4

#### Metadata

| Field        | Value    |
|--------------|----------|
| Entrypoint   | 0x004B   |
| Data Size    | 14 bytes |
| Instructions | 2        |

```
      00 01 02 03 04 05 06 07  08 09 0A 0B 0C 0D 0E 0F
      -- -- -- -- -- -- -- --  -- -- -- -- -- -- -- --
0040:                                   53 F8 FF FF 7F             S....
0050: F8 FF FF 7F 74 6C 62 30  00                       ....tlb0.       
```

#### Opcodes

```
  0: 0x004B [0x53] WAIT_SCHEDULER_TASK: Wait for scheduler "tlb0" with entities [EventEntity, EventEntity]
  1: 0x0058 [0x00] END_REQSTACK()
```

### Event 65535.5

#### Metadata

| Field        | Value    |
|--------------|----------|
| Entrypoint   | 0x0059   |
| Data Size    | 16 bytes |
| Instructions | 2        |

```
      00 01 02 03 04 05 06 07  08 09 0A 0B 0C 0D 0E 0F
      -- -- -- -- -- -- -- --  -- -- -- -- -- -- -- --
0050:                             5B 01 80 F8 FF FF 7F           [......
0060: F8 FF FF 7F 74 6C 62 31  00                       ....tlb1.       
```

#### Opcodes

```
  0: 0x0059 [0x5B] LOAD_EXT_SCHEDULER: Load scheduler "tlb1" with entities [EventEntity, EventEntity], work=364*
  1: 0x0068 [0x00] END_REQSTACK()
```

### Event 65535.6

#### Metadata

| Field        | Value    |
|--------------|----------|
| Entrypoint   | 0x0069   |
| Data Size    | 14 bytes |
| Instructions | 2        |

```
      00 01 02 03 04 05 06 07  08 09 0A 0B 0C 0D 0E 0F
      -- -- -- -- -- -- -- --  -- -- -- -- -- -- -- --
0060:                             53 F8 FF FF 7F F8 FF           S......
0070: FF 7F 74 6C 62 31 00                              ..tlb1.         
```

#### Opcodes

```
  0: 0x0069 [0x53] WAIT_SCHEDULER_TASK: Wait for scheduler "tlb1" with entities [EventEntity, EventEntity]
  1: 0x0076 [0x00] END_REQSTACK()
```

### Event 65535.7

#### Metadata

| Field        | Value    |
|--------------|----------|
| Entrypoint   | 0x0077   |
| Data Size    | 16 bytes |
| Instructions | 2        |

```
      00 01 02 03 04 05 06 07  08 09 0A 0B 0C 0D 0E 0F
      -- -- -- -- -- -- -- --  -- -- -- -- -- -- -- --
0070:                      5B  00 80 F8 FF FF 7F F8 FF         [........
0080: FF 7F 6B 77 69 30 00                              ..kwi0.         
```

#### Opcodes

```
  0: 0x0077 [0x5B] LOAD_EXT_SCHEDULER: Load scheduler "kwi0" with entities [EventEntity, EventEntity], work=358*
  1: 0x0086 [0x00] END_REQSTACK()
```

### Event 65535.8

#### Metadata

| Field        | Value    |
|--------------|----------|
| Entrypoint   | 0x0087   |
| Data Size    | 14 bytes |
| Instructions | 2        |

```
      00 01 02 03 04 05 06 07  08 09 0A 0B 0C 0D 0E 0F
      -- -- -- -- -- -- -- --  -- -- -- -- -- -- -- --
0080:                      53  F8 FF FF 7F F8 FF FF 7F         S........
0090: 6B 77 69 30 00                                    kwi0.           
```

#### Opcodes

```
  0: 0x0087 [0x53] WAIT_SCHEDULER_TASK: Wait for scheduler "kwi0" with entities [EventEntity, EventEntity]
  1: 0x0094 [0x00] END_REQSTACK()
```

### Event 65535.9

#### Metadata

| Field        | Value    |
|--------------|----------|
| Entrypoint   | 0x0095   |
| Data Size    | 22 bytes |
| Instructions | 3        |

```
      00 01 02 03 04 05 06 07  08 09 0A 0B 0C 0D 0E 0F
      -- -- -- -- -- -- -- --  -- -- -- -- -- -- -- --
0090:                81 00 F8  FF FF 7F 5B 00 80 F8 FF       ......[....
00A0: FF 7F F8 FF FF 7F 74 68  6B 31 00                 ......thk1.     
```

#### Opcodes

```
  0: 0x0095 [0x81] SET_ENTITY_BLINKING(blink_flag=0x00, entity=EventEntity)
  1: 0x009B [0x5B] LOAD_EXT_SCHEDULER: Load scheduler "thk1" with entities [EventEntity, EventEntity], work=358*
  2: 0x00AA [0x00] END_REQSTACK()
```

### Event 65535.10

#### Metadata

| Field        | Value    |
|--------------|----------|
| Entrypoint   | 0x00AB   |
| Data Size    | 14 bytes |
| Instructions | 2        |

```
      00 01 02 03 04 05 06 07  08 09 0A 0B 0C 0D 0E 0F
      -- -- -- -- -- -- -- --  -- -- -- -- -- -- -- --
00A0:                                   53 F8 FF FF 7F             S....
00B0: F8 FF FF 7F 74 68 6B 31  00                       ....thk1.       
```

#### Opcodes

```
  0: 0x00AB [0x53] WAIT_SCHEDULER_TASK: Wait for scheduler "thk1" with entities [EventEntity, EventEntity]
  1: 0x00B8 [0x00] END_REQSTACK()
```

### Event 65535.11

#### Metadata

| Field        | Value    |
|--------------|----------|
| Entrypoint   | 0x00B9   |
| Data Size    | 16 bytes |
| Instructions | 2        |

```
      00 01 02 03 04 05 06 07  08 09 0A 0B 0C 0D 0E 0F
      -- -- -- -- -- -- -- --  -- -- -- -- -- -- -- --
00B0:                             5B 00 80 F8 FF FF 7F           [......
00C0: F8 FF FF 7F 74 68 6B 32  00                       ....thk2.       
```

#### Opcodes

```
  0: 0x00B9 [0x5B] LOAD_EXT_SCHEDULER: Load scheduler "thk2" with entities [EventEntity, EventEntity], work=358*
  1: 0x00C8 [0x00] END_REQSTACK()
```

### Event 65535.12

#### Metadata

| Field        | Value    |
|--------------|----------|
| Entrypoint   | 0x00C9   |
| Data Size    | 20 bytes |
| Instructions | 3        |

```
      00 01 02 03 04 05 06 07  08 09 0A 0B 0C 0D 0E 0F
      -- -- -- -- -- -- -- --  -- -- -- -- -- -- -- --
00C0:                             53 F8 FF FF 7F F8 FF           S......
00D0: FF 7F 74 68 6B 32 81 01  F8 FF FF 7F 00           ..thk2.......   
```

#### Opcodes

```
  0: 0x00C9 [0x53] WAIT_SCHEDULER_TASK: Wait for scheduler "thk2" with entities [EventEntity, EventEntity]
  1: 0x00D6 [0x81] SET_ENTITY_BLINKING(blink_flag=0x01, entity=EventEntity)
  2: 0x00DC [0x00] END_REQSTACK()
```

### Event 65535.13

#### Metadata

| Field        | Value    |
|--------------|----------|
| Entrypoint   | 0x00DD   |
| Data Size    | 16 bytes |
| Instructions | 2        |

```
      00 01 02 03 04 05 06 07  08 09 0A 0B 0C 0D 0E 0F
      -- -- -- -- -- -- -- --  -- -- -- -- -- -- -- --
00D0:                                         5B 00 80               [..
00E0: F8 FF FF 7F F8 FF FF 7F  73 69 73 30 00           ........sis0.   
```

#### Opcodes

```
  0: 0x00DD [0x5B] LOAD_EXT_SCHEDULER: Load scheduler "sis0" with entities [EventEntity, EventEntity], work=358*
  1: 0x00EC [0x00] END_REQSTACK()
```

### Event 65535.14

#### Metadata

| Field        | Value    |
|--------------|----------|
| Entrypoint   | 0x00ED   |
| Data Size    | 14 bytes |
| Instructions | 2        |

```
      00 01 02 03 04 05 06 07  08 09 0A 0B 0C 0D 0E 0F
      -- -- -- -- -- -- -- --  -- -- -- -- -- -- -- --
00E0:                                         53 F8 FF               S..
00F0: FF 7F F8 FF FF 7F 73 69  73 30 00                 ......sis0.     
```

#### Opcodes

```
  0: 0x00ED [0x53] WAIT_SCHEDULER_TASK: Wait for scheduler "sis0" with entities [EventEntity, EventEntity]
  1: 0x00FA [0x00] END_REQSTACK()
```

### Event 65535.15

#### Metadata

| Field        | Value    |
|--------------|----------|
| Entrypoint   | 0x00FB   |
| Data Size    | 16 bytes |
| Instructions | 2        |

```
      00 01 02 03 04 05 06 07  08 09 0A 0B 0C 0D 0E 0F
      -- -- -- -- -- -- -- --  -- -- -- -- -- -- -- --
00F0:                                   5B 01 80 F8 FF             [....
0100: FF 7F F8 FF FF 7F 70 6F  69 30 00                 ......poi0.     
```

#### Opcodes

```
  0: 0x00FB [0x5B] LOAD_EXT_SCHEDULER: Load scheduler "poi0" with entities [EventEntity, EventEntity], work=364*
  1: 0x010A [0x00] END_REQSTACK()
```

### Event 65535.16

#### Metadata

| Field        | Value    |
|--------------|----------|
| Entrypoint   | 0x010B   |
| Data Size    | 14 bytes |
| Instructions | 2        |

```
      00 01 02 03 04 05 06 07  08 09 0A 0B 0C 0D 0E 0F
      -- -- -- -- -- -- -- --  -- -- -- -- -- -- -- --
0100:                                   53 F8 FF FF 7F             S....
0110: F8 FF FF 7F 70 6F 69 30  00                       ....poi0.       
```

#### Opcodes

```
  0: 0x010B [0x53] WAIT_SCHEDULER_TASK: Wait for scheduler "poi0" with entities [EventEntity, EventEntity]
  1: 0x0118 [0x00] END_REQSTACK()
```

### Event 65535.17

#### Metadata

| Field        | Value    |
|--------------|----------|
| Entrypoint   | 0x0119   |
| Data Size    | 16 bytes |
| Instructions | 2        |

```
      00 01 02 03 04 05 06 07  08 09 0A 0B 0C 0D 0E 0F
      -- -- -- -- -- -- -- --  -- -- -- -- -- -- -- --
0110:                             5B 02 80 F8 FF FF 7F           [......
0120: F8 FF FF 7F 70 6F 69 31  00                       ....poi1.       
```

#### Opcodes

```
  0: 0x0119 [0x5B] LOAD_EXT_SCHEDULER: Load scheduler "poi1" with entities [EventEntity, EventEntity], work=360*
  1: 0x0128 [0x00] END_REQSTACK()
```

### Event 65535.18

#### Metadata

| Field        | Value    |
|--------------|----------|
| Entrypoint   | 0x0129   |
| Data Size    | 14 bytes |
| Instructions | 2        |

```
      00 01 02 03 04 05 06 07  08 09 0A 0B 0C 0D 0E 0F
      -- -- -- -- -- -- -- --  -- -- -- -- -- -- -- --
0120:                             53 F8 FF FF 7F F8 FF           S......
0130: FF 7F 70 6F 69 31 00                              ..poi1.         
```

#### Opcodes

```
  0: 0x0129 [0x53] WAIT_SCHEDULER_TASK: Wait for scheduler "poi1" with entities [EventEntity, EventEntity]
  1: 0x0136 [0x00] END_REQSTACK()
```

### Event 65535.19

#### Metadata

| Field        | Value    |
|--------------|----------|
| Entrypoint   | 0x0137   |
| Data Size    | 16 bytes |
| Instructions | 2        |

```
      00 01 02 03 04 05 06 07  08 09 0A 0B 0C 0D 0E 0F
      -- -- -- -- -- -- -- --  -- -- -- -- -- -- -- --
0130:                      5B  02 80 F8 FF FF 7F F8 FF         [........
0140: FF 7F 70 6F 69 33 00                              ..poi3.         
```

#### Opcodes

```
  0: 0x0137 [0x5B] LOAD_EXT_SCHEDULER: Load scheduler "poi3" with entities [EventEntity, EventEntity], work=360*
  1: 0x0146 [0x00] END_REQSTACK()
```

### Event 65535.20

#### Metadata

| Field        | Value    |
|--------------|----------|
| Entrypoint   | 0x0147   |
| Data Size    | 14 bytes |
| Instructions | 2        |

```
      00 01 02 03 04 05 06 07  08 09 0A 0B 0C 0D 0E 0F
      -- -- -- -- -- -- -- --  -- -- -- -- -- -- -- --
0140:                      53  F8 FF FF 7F F8 FF FF 7F         S........
0150: 70 6F 69 33 00                                    poi3.           
```

#### Opcodes

```
  0: 0x0147 [0x53] WAIT_SCHEDULER_TASK: Wait for scheduler "poi3" with entities [EventEntity, EventEntity]
  1: 0x0154 [0x00] END_REQSTACK()
```

### Event 65535.21

#### Metadata

| Field        | Value   |
|--------------|---------|
| Entrypoint   | 0x0155  |
| Data Size    | 9 bytes |
| Instructions | 3       |

```
      00 01 02 03 04 05 06 07  08 09 0A 0B 0C 0D 0E 0F
      -- -- -- -- -- -- -- --  -- -- -- -- -- -- -- --
0150:                5E 69 64  6C 30 1C 03 80 00             ^idl0....  
```

#### Opcodes

```
  0: 0x0155 [0x5E] EventEntity goes idle (kills current action) (animation: "idl0")
  1: 0x015A [0x1C] WAIT(30* ticks)
  2: 0x015D [0x00] END_REQSTACK()
```

### Event 65535.22

#### Metadata

| Field        | Value    |
|--------------|----------|
| Entrypoint   | 0x015E   |
| Data Size    | 56 bytes |
| Instructions | 8        |

```
      00 01 02 03 04 05 06 07  08 09 0A 0B 0C 0D 0E 0F
      -- -- -- -- -- -- -- --  -- -- -- -- -- -- -- --
0150:                                            45 04                E.
0160: 80 F8 FF FF 7F F8 FF FF  7F 66 64 6F 31 05 80 1C  .........fdo1...
0170: 06 80 4B 12 10 0F 01 07  80 4E 00 F0 FF FF 7F 46  ..K......N.....F
0180: 00 1C 06 80 45 04 80 F8  FF FF 7F F8 FF FF 7F 66  ....E..........f
0190: 64 69 31 05 80 00                                 di1...          
```

#### Opcodes

```
  0: 0x015E [0x45] LOAD_SCHEDULED_TASK: Load scheduler "fdo1" with entities [EventEntity, EventEntity], work=[200*, 0*]
  1: 0x016F [0x1C] WAIT(60* ticks)
  2: 0x0172 [0x4B] UPDATE_ENTITY_YAW(entity=Sola Jaab (ID: 17764370/0x010F1012), yaw=18.3°*)
  3: 0x0179 [0x4E] SET_ENTITY_HIDE_FLAG: Show LocalPlayer
  4: 0x017F [0x46] CAMERA_CONTROL: Restore default settings
  5: 0x0181 [0x1C] WAIT(60* ticks)
  6: 0x0184 [0x45] LOAD_SCHEDULED_TASK: Load scheduler "fdi1" with entities [EventEntity, EventEntity], work=[200*, 0*]
  7: 0x0195 [0x00] END_REQSTACK()
```

### Event 112

#### Metadata

| Field        | Value    |
|--------------|----------|
| Entrypoint   | 0x0196   |
| Data Size    | 33 bytes |
| Instructions | 12       |

```
      00 01 02 03 04 05 06 07  08 09 0A 0B 0C 0D 0E 0F
      -- -- -- -- -- -- -- --  -- -- -- -- -- -- -- --
0190:                   1E F0  FF FF 7F 6F 70 29 08 10        .....op)..
01A0: 10 0F 01 01 1D 08 80 23  1D 09 80 23 29 08 10 10  .......#...#)...
01B0: 0F 01 02 20 00 21 00                              ... .!.         
```

#### Opcodes

```
  0: 0x0196 [0x1E] EventEntity looks at LocalPlayer and starts talking
  1: 0x019B [0x6F] WAIT_FRAME_DELAY: Yield until WaitTime reaches zero
  2: 0x019C [0x70] WAIT_ENTITY_RENDER_FLAG: Wait while EventEntity->Render.Flags3 bit 2 is set (cancel turn if not)
  3: 0x019D [0x29] REQ_SET_WAIT(priority=0x08, entity_id=Rakoh Buuma (ID: 17764368/0x010F1010), tag_num=0x01)
  4: 0x01A4 [0x1D] PRINT_EVENT_MESSAGE(message_id=7667*)
    → "You cannot accept more than one mission at a time."
  5: 0x01A7 [0x23] WAIT_FOR_DIALOG_INTERACTION
  6: 0x01A8 [0x1D] PRINT_EVENT_MESSAGE(message_id=7668*)
    → "Please complete your current mission before applying for the next."
  7: 0x01AB [0x23] WAIT_FOR_DIALOG_INTERACTION
  8: 0x01AC [0x29] REQ_SET_WAIT(priority=0x08, entity_id=Rakoh Buuma (ID: 17764368/0x010F1010), tag_num=0x02)
  9: 0x01B3 [0x20] SET_CLI_EVENT_UC_FLAG: Unlock player control
 10: 0x01B5 [0x21] END_EVENT
 11: 0x01B6 [0x00] END_REQSTACK()
```

### Event 113

#### Metadata

| Field        | Value    |
|--------------|----------|
| Entrypoint   | 0x01B7   |
| Data Size    | 29 bytes |
| Instructions | 10       |

```
      00 01 02 03 04 05 06 07  08 09 0A 0B 0C 0D 0E 0F
      -- -- -- -- -- -- -- --  -- -- -- -- -- -- -- --
01B0:                      1E  F0 FF FF 7F 6F 70 29 08         .....op).
01C0: 10 10 0F 01 01 1D 0A 80  23 29 08 10 10 0F 01 02  ........#)......
01D0: 20 00 21 00                                        .!.            
```

#### Opcodes

```
  0: 0x01B7 [0x1E] EventEntity looks at LocalPlayer and starts talking
  1: 0x01BC [0x6F] WAIT_FRAME_DELAY: Yield until WaitTime reaches zero
  2: 0x01BD [0x70] WAIT_ENTITY_RENDER_FLAG: Wait while EventEntity->Render.Flags3 bit 2 is set (cancel turn if not)
  3: 0x01BE [0x29] REQ_SET_WAIT(priority=0x08, entity_id=Rakoh Buuma (ID: 17764368/0x010F1010), tag_num=0x01)
  4: 0x01C5 [0x1D] PRINT_EVENT_MESSAGE(message_id=7669*)
    → "The missions we are currently able to offer you at the eastern gatehouse are as follows..."
  5: 0x01C8 [0x23] WAIT_FOR_DIALOG_INTERACTION
  6: 0x01C9 [0x29] REQ_SET_WAIT(priority=0x08, entity_id=Rakoh Buuma (ID: 17764368/0x010F1010), tag_num=0x02)
  7: 0x01D0 [0x20] SET_CLI_EVENT_UC_FLAG: Unlock player control
  8: 0x01D2 [0x21] END_EVENT
  9: 0x01D3 [0x00] END_REQSTACK()
```

### Event 105

#### Metadata

| Field        | Value    |
|--------------|----------|
| Entrypoint   | 0x01D4   |
| Data Size    | 33 bytes |
| Instructions | 12       |

```
      00 01 02 03 04 05 06 07  08 09 0A 0B 0C 0D 0E 0F
      -- -- -- -- -- -- -- --  -- -- -- -- -- -- -- --
01D0:             1E F0 FF FF  7F 6F 70 29 08 10 10 0F      .....op)....
01E0: 01 01 1D 0B 80 23 1D 0C  80 23 29 08 10 10 0F 01  .....#...#).....
01F0: 15 20 00 21 00                                    . .!.           
```

#### Opcodes

```
  0: 0x01D4 [0x1E] EventEntity looks at LocalPlayer and starts talking
  1: 0x01D9 [0x6F] WAIT_FRAME_DELAY: Yield until WaitTime reaches zero
  2: 0x01DA [0x70] WAIT_ENTITY_RENDER_FLAG: Wait while EventEntity->Render.Flags3 bit 2 is set (cancel turn if not)
  3: 0x01DB [0x29] REQ_SET_WAIT(priority=0x08, entity_id=Rakoh Buuma (ID: 17764368/0x010F1010), tag_num=0x01)
  4: 0x01E2 [0x1D] PRINT_EVENT_MESSAGE(message_id=7655*)
    → "This is the eastern gatehouse--a gathering place for the guards who do the rrrounds of Windurst Woods."
  5: 0x01E5 [0x23] WAIT_FOR_DIALOG_INTERACTION
  6: 0x01E6 [0x1D] PRINT_EVENT_MESSAGE(message_id=7656*)
    → "If you're after a map of Windurst, then head to the opening back up there. There's a Mithra merchant selling them there."
  7: 0x01E9 [0x23] WAIT_FOR_DIALOG_INTERACTION
  8: 0x01EA [0x29] REQ_SET_WAIT(priority=0x08, entity_id=Rakoh Buuma (ID: 17764368/0x010F1010), tag_num=0x15)
  9: 0x01F1 [0x20] SET_CLI_EVENT_UC_FLAG: Unlock player control
 10: 0x01F3 [0x21] END_EVENT
 11: 0x01F4 [0x00] END_REQSTACK()
```

### Event 114

#### Metadata

| Field        | Value     |
|--------------|-----------|
| Entrypoint   | 0x01F5    |
| Data Size    | 539 bytes |
| Instructions | 95        |

```
      00 01 02 03 04 05 06 07  08 09 0A 0B 0C 0D 0E 0F
      -- -- -- -- -- -- -- --  -- -- -- -- -- -- -- --
01F0:                29 08 F0  FF FF 7F 07 1E F0 FF FF       )..........
0200: 7F 6F 70 1D 0A 80 23 24  0D 80 0E 80 02 10 25 02  .op...#$......%.
0210: 00 10 0F 80 00 28 02 29  0E 10 10 0F 01 1B 29 0E  .....(.)......).
0220: 10 10 0F 01 2E 01 E3 03  02 00 10 10 80 00 41 02  ..............A.
0230: 29 0E 10 10 0F 01 1B 29  0E 10 10 0F 01 33 01 E3  )......).....3..
0240: 03 02 00 10 11 80 00 5A  02 29 0E 10 10 0F 01 1B  .......Z.)......
0250: 29 0E 10 10 0F 01 3D 01  E3 03 02 00 10 12 80 00  ).....=.........
0260: 73 02 29 0E 10 10 0F 01  1B 29 0E 10 10 0F 01 41  s.)......).....A
0270: 01 E3 03 02 00 10 13 80  00 8C 02 29 0E 10 10 0F  ...........)....
0280: 01 1B 29 0E 10 10 0F 01  45 01 E3 03 02 00 10 14  ..).....E.......
0290: 80 00 A5 02 29 0E 10 10  0F 01 1B 29 0E 10 10 0F  ....)......)....
02A0: 01 49 01 E3 03 02 00 10  15 80 00 D0 02 29 0E 10  .I...........)..
02B0: 10 0F 01 1B 02 04 10 05  80 00 C6 02 29 0E 10 10  ............)...
02C0: 0F 01 4C 01 CD 02 29 0E  10 10 0F 01 4E 01 E3 03  ..L...).....N...
02D0: 02 00 10 16 80 00 E9 02  29 0E 10 10 0F 01 1B 29  ........)......)
02E0: 0E 10 10 0F 01 4F 01 E3  03 02 00 10 17 80 00 02  .....O..........
02F0: 03 29 0E 10 10 0F 01 1B  29 0E 10 10 0F 01 53 01  .)......).....S.
0300: E3 03 02 00 10 18 80 00  1B 03 29 0E 10 10 0F 01  ..........).....
0310: 1B 29 0E 10 10 0F 01 55  01 E3 03 02 00 10 19 80  .).....U........
0320: 00 34 03 29 0E 10 10 0F  01 1B 29 0E 10 10 0F 01  .4.)......).....
0330: 57 01 E3 03 02 00 10 1A  80 00 4D 03 29 0E 10 10  W.........M.)...
0340: 0F 01 1B 29 0E 10 10 0F  01 59 01 E3 03 02 00 10  ...).....Y......
0350: 1B 80 00 66 03 29 0E 10  10 0F 01 1B 29 0E 10 10  ...f.)......)...
0360: 0F 01 5B 01 E3 03 02 00  10 1C 80 00 7F 03 29 0E  ..[...........).
0370: 10 10 0F 01 1B 29 0E 10  10 0F 01 5D 01 E3 03 02  .....).....]....
0380: 00 10 1D 80 00 98 03 29  0E 10 10 0F 01 1B 29 0E  .......)......).
0390: 10 10 0F 01 5F 01 E3 03  02 00 10 1E 80 00 B1 03  ...._...........
03A0: 29 0E 10 10 0F 01 1B 29  0E 10 10 0F 01 61 01 E3  )......).....a..
03B0: 03 02 00 10 1F 80 00 CA  03 29 0E 10 10 0F 01 1B  .........)......
03C0: 29 0E 10 10 0F 01 63 01  E3 03 02 00 10 20 80 00  ).....c...... ..
03D0: E3 03 29 0E 10 10 0F 01  1B 29 0E 10 10 0F 01 65  ..)......).....e
03E0: 01 E3 03 03 01 10 00 10  02 01 10 0E 80 01 0C 04  ................
03F0: 24 21 80 05 80 05 80 25  02 00 10 0F 80 00 0C 04  $!.....%........
0400: 03 01 10 0E 80 20 00 21  00 01 0C 04 20 00 21 00  ..... .!.... .!.
```

#### Opcodes

```
  0: 0x01F5 [0x29] REQ_SET_WAIT(priority=0x08, entity_id=LocalPlayer, tag_num=0x07)
  1: 0x01FC [0x1E] EventEntity looks at LocalPlayer and starts talking
  2: 0x0201 [0x6F] WAIT_FRAME_DELAY: Yield until WaitTime reaches zero
  3: 0x0202 [0x70] WAIT_ENTITY_RENDER_FLAG: Wait while EventEntity->Render.Flags3 bit 2 is set (cancel turn if not)
  4: 0x0203 [0x1D] PRINT_EVENT_MESSAGE(message_id=7669*)
    → "The missions we are currently able to offer you at the eastern gatehouse are as follows..."
  5: 0x0206 [0x23] WAIT_FOR_DIALOG_INTERACTION
  6: 0x0207 [0x24] CREATE_DIALOG(message_id=7670*, default_option=31*, option_flags=Work_Zone[2])
    → "Which mission will you accept? [The Horutoto Ruins Experiment./The Heart of the Matter./The Price of Peace./Lost for Words./A Testing Time./The Three Kingdoms./Mission 2-3-1A./Mission 2-3-1B./Mission 2-3-2A./Mission 2-3-2B./To Each His Own Right./Written in the Stars./A New Journey./Magicite./The Final Seal./The Shadow Awaits./Full Moon Fountain./Saintly Invitation./The Sixth Ministry./Awakening of the Gods./Vain./The Jester Who'd Be King./Doll of the Dead./Moon Reading./Dummy11./Dummy12./Dummy13./Dummy14./Dummy15./Dummy16./Dummy17./Decline mission.]"
  7: 0x020E [0x25] WAIT_DIALOG_SELECT()
  8: 0x020F [0x02] IF !(Work_Zone[0] == 1*) GOTO 0x0228
  9: 0x0217 [0x29] REQ_SET_WAIT(priority=0x0E, entity_id=Rakoh Buuma (ID: 17764368/0x010F1010), tag_num=0x1B)
 10: 0x021E [0x29] REQ_SET_WAIT(priority=0x0E, entity_id=Rakoh Buuma (ID: 17764368/0x010F1010), tag_num=0x2E)
 11: 0x0225 [0x01] GOTO 0x03E3
 12: 0x0228 [0x02] IF !(Work_Zone[0] == 2*) GOTO 0x0241
 13: 0x0230 [0x29] REQ_SET_WAIT(priority=0x0E, entity_id=Rakoh Buuma (ID: 17764368/0x010F1010), tag_num=0x1B)
 14: 0x0237 [0x29] REQ_SET_WAIT(priority=0x0E, entity_id=Rakoh Buuma (ID: 17764368/0x010F1010), tag_num=0x33)
 15: 0x023E [0x01] GOTO 0x03E3
 16: 0x0241 [0x02] IF !(Work_Zone[0] == 3*) GOTO 0x025A
 17: 0x0249 [0x29] REQ_SET_WAIT(priority=0x0E, entity_id=Rakoh Buuma (ID: 17764368/0x010F1010), tag_num=0x1B)
 18: 0x0250 [0x29] REQ_SET_WAIT(priority=0x0E, entity_id=Rakoh Buuma (ID: 17764368/0x010F1010), tag_num=0x3D)
 19: 0x0257 [0x01] GOTO 0x03E3
 20: 0x025A [0x02] IF !(Work_Zone[0] == 4*) GOTO 0x0273
 21: 0x0262 [0x29] REQ_SET_WAIT(priority=0x0E, entity_id=Rakoh Buuma (ID: 17764368/0x010F1010), tag_num=0x1B)
 22: 0x0269 [0x29] REQ_SET_WAIT(priority=0x0E, entity_id=Rakoh Buuma (ID: 17764368/0x010F1010), tag_num=0x41)
 23: 0x0270 [0x01] GOTO 0x03E3
 24: 0x0273 [0x02] IF !(Work_Zone[0] == 5*) GOTO 0x028C
 25: 0x027B [0x29] REQ_SET_WAIT(priority=0x0E, entity_id=Rakoh Buuma (ID: 17764368/0x010F1010), tag_num=0x1B)
 26: 0x0282 [0x29] REQ_SET_WAIT(priority=0x0E, entity_id=Rakoh Buuma (ID: 17764368/0x010F1010), tag_num=0x45)
 27: 0x0289 [0x01] GOTO 0x03E3
 28: 0x028C [0x02] IF !(Work_Zone[0] == 10*) GOTO 0x02A5
 29: 0x0294 [0x29] REQ_SET_WAIT(priority=0x0E, entity_id=Rakoh Buuma (ID: 17764368/0x010F1010), tag_num=0x1B)
 30: 0x029B [0x29] REQ_SET_WAIT(priority=0x0E, entity_id=Rakoh Buuma (ID: 17764368/0x010F1010), tag_num=0x49)
 31: 0x02A2 [0x01] GOTO 0x03E3
 32: 0x02A5 [0x02] IF !(Work_Zone[0] == 11*) GOTO 0x02D0
 33: 0x02AD [0x29] REQ_SET_WAIT(priority=0x0E, entity_id=Rakoh Buuma (ID: 17764368/0x010F1010), tag_num=0x1B)
 34: 0x02B4 [0x02] IF !(Work_Zone[4] == 0*) GOTO 0x02C6
 35: 0x02BC [0x29] REQ_SET_WAIT(priority=0x0E, entity_id=Rakoh Buuma (ID: 17764368/0x010F1010), tag_num=0x4C)
 36: 0x02C3 [0x01] GOTO 0x02CD
 37: 0x02C6 [0x29] REQ_SET_WAIT(priority=0x0E, entity_id=Rakoh Buuma (ID: 17764368/0x010F1010), tag_num=0x4E)

SUBROUTINE_02CD:
 38: 0x02CD [0x01] GOTO 0x03E3
 39: 0x02D0 [0x02] IF !(Work_Zone[0] == 12*) GOTO 0x02E9
 40: 0x02D8 [0x29] REQ_SET_WAIT(priority=0x0E, entity_id=Rakoh Buuma (ID: 17764368/0x010F1010), tag_num=0x1B)
 41: 0x02DF [0x29] REQ_SET_WAIT(priority=0x0E, entity_id=Rakoh Buuma (ID: 17764368/0x010F1010), tag_num=0x4F)
 42: 0x02E6 [0x01] GOTO 0x03E3
 43: 0x02E9 [0x02] IF !(Work_Zone[0] == 14*) GOTO 0x0302
 44: 0x02F1 [0x29] REQ_SET_WAIT(priority=0x0E, entity_id=Rakoh Buuma (ID: 17764368/0x010F1010), tag_num=0x1B)
 45: 0x02F8 [0x29] REQ_SET_WAIT(priority=0x0E, entity_id=Rakoh Buuma (ID: 17764368/0x010F1010), tag_num=0x53)
 46: 0x02FF [0x01] GOTO 0x03E3
 47: 0x0302 [0x02] IF !(Work_Zone[0] == 15*) GOTO 0x031B
 48: 0x030A [0x29] REQ_SET_WAIT(priority=0x0E, entity_id=Rakoh Buuma (ID: 17764368/0x010F1010), tag_num=0x1B)
 49: 0x0311 [0x29] REQ_SET_WAIT(priority=0x0E, entity_id=Rakoh Buuma (ID: 17764368/0x010F1010), tag_num=0x55)
 50: 0x0318 [0x01] GOTO 0x03E3
 51: 0x031B [0x02] IF !(Work_Zone[0] == 16*) GOTO 0x0334
 52: 0x0323 [0x29] REQ_SET_WAIT(priority=0x0E, entity_id=Rakoh Buuma (ID: 17764368/0x010F1010), tag_num=0x1B)
 53: 0x032A [0x29] REQ_SET_WAIT(priority=0x0E, entity_id=Rakoh Buuma (ID: 17764368/0x010F1010), tag_num=0x57)
 54: 0x0331 [0x01] GOTO 0x03E3
 55: 0x0334 [0x02] IF !(Work_Zone[0] == 17*) GOTO 0x034D
 56: 0x033C [0x29] REQ_SET_WAIT(priority=0x0E, entity_id=Rakoh Buuma (ID: 17764368/0x010F1010), tag_num=0x1B)
 57: 0x0343 [0x29] REQ_SET_WAIT(priority=0x0E, entity_id=Rakoh Buuma (ID: 17764368/0x010F1010), tag_num=0x59)
 58: 0x034A [0x01] GOTO 0x03E3
 59: 0x034D [0x02] IF !(Work_Zone[0] == 18*) GOTO 0x0366
 60: 0x0355 [0x29] REQ_SET_WAIT(priority=0x0E, entity_id=Rakoh Buuma (ID: 17764368/0x010F1010), tag_num=0x1B)
 61: 0x035C [0x29] REQ_SET_WAIT(priority=0x0E, entity_id=Rakoh Buuma (ID: 17764368/0x010F1010), tag_num=0x5B)
 62: 0x0363 [0x01] GOTO 0x03E3
 63: 0x0366 [0x02] IF !(Work_Zone[0] == 19*) GOTO 0x037F
 64: 0x036E [0x29] REQ_SET_WAIT(priority=0x0E, entity_id=Rakoh Buuma (ID: 17764368/0x010F1010), tag_num=0x1B)
 65: 0x0375 [0x29] REQ_SET_WAIT(priority=0x0E, entity_id=Rakoh Buuma (ID: 17764368/0x010F1010), tag_num=0x5D)
 66: 0x037C [0x01] GOTO 0x03E3
 67: 0x037F [0x02] IF !(Work_Zone[0] == 20*) GOTO 0x0398
 68: 0x0387 [0x29] REQ_SET_WAIT(priority=0x0E, entity_id=Rakoh Buuma (ID: 17764368/0x010F1010), tag_num=0x1B)
 69: 0x038E [0x29] REQ_SET_WAIT(priority=0x0E, entity_id=Rakoh Buuma (ID: 17764368/0x010F1010), tag_num=0x5F)
 70: 0x0395 [0x01] GOTO 0x03E3
 71: 0x0398 [0x02] IF !(Work_Zone[0] == 21*) GOTO 0x03B1
 72: 0x03A0 [0x29] REQ_SET_WAIT(priority=0x0E, entity_id=Rakoh Buuma (ID: 17764368/0x010F1010), tag_num=0x1B)
 73: 0x03A7 [0x29] REQ_SET_WAIT(priority=0x0E, entity_id=Rakoh Buuma (ID: 17764368/0x010F1010), tag_num=0x61)
 74: 0x03AE [0x01] GOTO 0x03E3
 75: 0x03B1 [0x02] IF !(Work_Zone[0] == 22*) GOTO 0x03CA
 76: 0x03B9 [0x29] REQ_SET_WAIT(priority=0x0E, entity_id=Rakoh Buuma (ID: 17764368/0x010F1010), tag_num=0x1B)
 77: 0x03C0 [0x29] REQ_SET_WAIT(priority=0x0E, entity_id=Rakoh Buuma (ID: 17764368/0x010F1010), tag_num=0x63)
 78: 0x03C7 [0x01] GOTO 0x03E3
 79: 0x03CA [0x02] IF !(Work_Zone[0] == 23*) GOTO 0x03E3
 80: 0x03D2 [0x29] REQ_SET_WAIT(priority=0x0E, entity_id=Rakoh Buuma (ID: 17764368/0x010F1010), tag_num=0x1B)
 81: 0x03D9 [0x29] REQ_SET_WAIT(priority=0x0E, entity_id=Rakoh Buuma (ID: 17764368/0x010F1010), tag_num=0x65)
 82: 0x03E0 [0x01] GOTO 0x03E3

SUBROUTINE_03E3:
 83: 0x03E3 [0x03] Work_Zone[1] = Work_Zone[0]
 84: 0x03E8 [0x02] IF !(Work_Zone[1] == 31*) GOTO 0x040C
 85: 0x03F0 [0x24] CREATE_DIALOG(message_id=6749*, default_option=0*, option_flags=0*)
    → "Accept this mission? [Yes./No.]"
 86: 0x03F7 [0x25] WAIT_DIALOG_SELECT()
 87: 0x03F8 [0x02] IF !(Work_Zone[0] == 1*) GOTO 0x040C
 88: 0x0400 [0x03] Work_Zone[1] = 31*
 89: 0x0405 [0x20] SET_CLI_EVENT_UC_FLAG: Unlock player control
 90: 0x0407 [0x21] END_EVENT
 91: 0x0408 [0x00] END_REQSTACK()

SUBROUTINE_040C:
 92: 0x040C [0x20] SET_CLI_EVENT_UC_FLAG: Unlock player control
 93: 0x040E [0x21] END_EVENT
 94: 0x040F [0x00] END_REQSTACK()
```

#### Data or dead code:

```
# Dead code (unreachable instructions):
     0x0409 [0x01] GOTO 0x040C
```

### Event 65535.23

#### Metadata

| Field        | Value    |
|--------------|----------|
| Entrypoint   | 0x0410   |
| Data Size    | 42 bytes |
| Instructions | 10       |

```
      00 01 02 03 04 05 06 07  08 09 0A 0B 0C 0D 0E 0F
      -- -- -- -- -- -- -- --  -- -- -- -- -- -- -- --
0410: 03 01 10 00 10 02 01 10  0E 80 01 39 04 24 21 80  ...........9.$!.
0420: 05 80 05 80 25 02 00 10  0F 80 00 39 04 03 01 10  ....%......9....
0430: 0E 80 20 00 21 00 01 39  04 00                    .. .!..9..      
```

#### Opcodes

```
  0: 0x0410 [0x03] Work_Zone[1] = Work_Zone[0]
  1: 0x0415 [0x02] IF !(Work_Zone[1] == 31*) GOTO 0x0439
  2: 0x041D [0x24] CREATE_DIALOG(message_id=6749*, default_option=0*, option_flags=0*)
    → "Accept this mission? [Yes./No.]"
  3: 0x0424 [0x25] WAIT_DIALOG_SELECT()
  4: 0x0425 [0x02] IF !(Work_Zone[0] == 1*) GOTO 0x0439
  5: 0x042D [0x03] Work_Zone[1] = 31*
  6: 0x0432 [0x20] SET_CLI_EVENT_UC_FLAG: Unlock player control
  7: 0x0434 [0x21] END_EVENT
  8: 0x0435 [0x00] END_REQSTACK()

SUBROUTINE_0439:
  9: 0x0439 [0x00] END_REQSTACK()
```

#### Data or dead code:

```
# Dead code (unreachable instructions):
     0x0436 [0x01] GOTO 0x0439
```

### Event 848

#### Metadata

| Field        | Value   |
|--------------|---------|
| Entrypoint   | 0x043A  |
| Data Size    | 1 bytes |
| Instructions | 1       |

```
      00 01 02 03 04 05 06 07  08 09 0A 0B 0C 0D 0E 0F
      -- -- -- -- -- -- -- --  -- -- -- -- -- -- -- --
0430:                                00                           .     
```

#### Opcodes

```
  0: 0x043A [0x00] END_REQSTACK()
```

### Event 876

#### Metadata

| Field        | Value   |
|--------------|---------|
| Entrypoint   | 0x043B  |
| Data Size    | 1 bytes |
| Instructions | 1       |

```
      00 01 02 03 04 05 06 07  08 09 0A 0B 0C 0D 0E 0F
      -- -- -- -- -- -- -- --  -- -- -- -- -- -- -- --
0430:                                   00                         .    
```

#### Opcodes

```
  0: 0x043B [0x00] END_REQSTACK()
```

### Event 121

#### Metadata

| Field        | Value     |
|--------------|-----------|
| Entrypoint   | 0x043C    |
| Data Size    | 232 bytes |
| Instructions | 33        |

```
      00 01 02 03 04 05 06 07  08 09 0A 0B 0C 0D 0E 0F
      -- -- -- -- -- -- -- --  -- -- -- -- -- -- -- --
0430:                                      42 46 01 45              BF.E
0440: 04 80 F8 FF FF 7F F8 FF  FF 7F 66 64 6F 31 05 80  ..........fdo1..
0450: 1C 06 80 38 11 80 29 08  F0 FF FF 7F 07 4E 01 F0  ...8..)......N..
0460: FF FF 7F 45 22 80 10 10  0F 01 10 10 0F 01 73 30  ...E".........s0
0470: 30 35 05 80 29 0D 10 10  0F 01 1F 4A 10 10 0F 01  05..)......J....
0480: F0 FF FF 7F 6F 76 10 10  0F 01 45 04 80 F8 FF FF  ....ov....E.....
0490: 7F F8 FF FF 7F 66 64 69  31 05 80 29 0B 10 10 0F  .....fdi1..)....
04A0: 01 23 45 22 80 10 10 0F  01 10 10 0F 01 73 30 30  .#E".........s00
04B0: 36 05 80 4E 00 F0 FF FF  7F 29 0B 10 10 0F 01 24  6..N.....).....$
04C0: 52 22 80 10 10 0F 01 10  10 0F 01 73 30 30 36 4E  R".........s006N
04D0: 01 F0 FF FF 7F 45 22 80  10 10 0F 01 10 10 0F 01  .....E".........
04E0: 73 30 30 35 05 80 29 0B  10 10 0F 01 25 24 23 80  s005..).....%$#.
04F0: 05 80 05 80 25 02 00 10  05 80 00 07 05 29 0D 10  ....%........)..
0500: 10 0F 01 21 01 19 05 02  00 10 0F 80 00 19 05 29  ...!...........)
0510: 0D 10 10 0F 01 20 01 19  05 29 08 10 10 0F 01 16  ..... ...)......
0520: 20 00 21 00                                        .!.            
```

#### Opcodes

```
  0: 0x043C [0x42] SET_CLI_EVENT_CANCEL_DATA()
  1: 0x043D [0x46] CAMERA_CONTROL: Disable user control
  2: 0x043F [0x45] LOAD_SCHEDULED_TASK: Load scheduler "fdo1" with entities [EventEntity, EventEntity], work=[200*, 0*]
  3: 0x0450 [0x1C] WAIT(60* ticks)
  4: 0x0453 [0x38] SET_CLIENT_EVENT_MODE(mode=3*)
  5: 0x0456 [0x29] REQ_SET_WAIT(priority=0x08, entity_id=LocalPlayer, tag_num=0x07)
  6: 0x045D [0x4E] SET_ENTITY_HIDE_FLAG: Hide LocalPlayer
  7: 0x0463 [0x45] LOAD_SCHEDULED_TASK: Load scheduler "s005" with entities [Rakoh Buuma (ID: 17764368/0x010F1010), Rakoh Buuma (ID: 17764368/0x010F1010)], work=[141*, 0*]
  8: 0x0474 [0x29] REQ_SET_WAIT(priority=0x0D, entity_id=Rakoh Buuma (ID: 17764368/0x010F1010), tag_num=0x1F)
  9: 0x047B [0x4A] Rakoh Buuma (ID: 17764368/0x010F1010) looks at LocalPlayer
 10: 0x0484 [0x6F] WAIT_FRAME_DELAY: Yield until WaitTime reaches zero
 11: 0x0485 [0x76] CHECK_ENTITY_RENDER_FLAGS: Wait until Rakoh Buuma (ID: 17764368/0x010F1010) Render.Flags0 and Render.Flags3 conditions are met
 12: 0x048A [0x45] LOAD_SCHEDULED_TASK: Load scheduler "fdi1" with entities [EventEntity, EventEntity], work=[200*, 0*]
 13: 0x049B [0x29] REQ_SET_WAIT(priority=0x0B, entity_id=Rakoh Buuma (ID: 17764368/0x010F1010), tag_num=0x23)
 14: 0x04A2 [0x45] LOAD_SCHEDULED_TASK: Load scheduler "s006" with entities [Rakoh Buuma (ID: 17764368/0x010F1010), Rakoh Buuma (ID: 17764368/0x010F1010)], work=[141*, 0*]
 15: 0x04B3 [0x4E] SET_ENTITY_HIDE_FLAG: Show LocalPlayer
 16: 0x04B9 [0x29] REQ_SET_WAIT(priority=0x0B, entity_id=Rakoh Buuma (ID: 17764368/0x010F1010), tag_num=0x24)
 17: 0x04C0 [0x52] END_LOAD_SCHEDULER: End scheduler "s006" with entities [Rakoh Buuma (ID: 17764368/0x010F1010), Rakoh Buuma (ID: 17764368/0x010F1010)], work=141*
 18: 0x04CF [0x4E] SET_ENTITY_HIDE_FLAG: Hide LocalPlayer
 19: 0x04D5 [0x45] LOAD_SCHEDULED_TASK: Load scheduler "s005" with entities [Rakoh Buuma (ID: 17764368/0x010F1010), Rakoh Buuma (ID: 17764368/0x010F1010)], work=[141*, 0*]
 20: 0x04E6 [0x29] REQ_SET_WAIT(priority=0x0B, entity_id=Rakoh Buuma (ID: 17764368/0x010F1010), tag_num=0x25)
 21: 0x04ED [0x24] CREATE_DIALOG(message_id=7685*, default_option=0*, option_flags=0*)
    → "Hear explanation of gatehouses? [Hear! Hear!/Turn a deaf ear.]"
 22: 0x04F4 [0x25] WAIT_DIALOG_SELECT()
 23: 0x04F5 [0x02] IF !(Work_Zone[0] == 0*) GOTO 0x0507
 24: 0x04FD [0x29] REQ_SET_WAIT(priority=0x0D, entity_id=Rakoh Buuma (ID: 17764368/0x010F1010), tag_num=0x21)
 25: 0x0504 [0x01] GOTO 0x0519
 26: 0x0507 [0x02] IF !(Work_Zone[0] == 1*) GOTO 0x0519
 27: 0x050F [0x29] REQ_SET_WAIT(priority=0x0D, entity_id=Rakoh Buuma (ID: 17764368/0x010F1010), tag_num=0x20)
 28: 0x0516 [0x01] GOTO 0x0519

SUBROUTINE_0519:
 29: 0x0519 [0x29] REQ_SET_WAIT(priority=0x08, entity_id=Rakoh Buuma (ID: 17764368/0x010F1010), tag_num=0x16)
 30: 0x0520 [0x20] SET_CLI_EVENT_UC_FLAG: Unlock player control
 31: 0x0522 [0x21] END_EVENT
 32: 0x0523 [0x00] END_REQSTACK()
```

### Event 120

#### Metadata

| Field        | Value    |
|--------------|----------|
| Entrypoint   | 0x0524   |
| Data Size    | 47 bytes |
| Instructions | 9        |

```
      00 01 02 03 04 05 06 07  08 09 0A 0B 0C 0D 0E 0F
      -- -- -- -- -- -- -- --  -- -- -- -- -- -- -- --
0520:             29 0B F0 FF  FF 7F 2B 4A F0 FF FF 7F      ).....+J....
0530: 10 10 0F 01 4A 11 10 0F  01 F0 FF FF 7F 6F 76 11  ....J........ov.
0540: 10 0F 01 4A 12 10 0F 01  F0 FF FF 7F 6F 76 12 10  ...J........ov..
0550: 0F 01 00                                          ...             
```

#### Opcodes

```
  0: 0x0524 [0x29] REQ_SET_WAIT(priority=0x0B, entity_id=LocalPlayer, tag_num=0x2B)
  1: 0x052B [0x4A] LocalPlayer looks at Rakoh Buuma (ID: 17764368/0x010F1010)
  2: 0x0534 [0x4A] Tih Pikeh (ID: 17764369/0x010F1011) looks at LocalPlayer
  3: 0x053D [0x6F] WAIT_FRAME_DELAY: Yield until WaitTime reaches zero
  4: 0x053E [0x76] CHECK_ENTITY_RENDER_FLAGS: Wait until Tih Pikeh (ID: 17764369/0x010F1011) Render.Flags0 and Render.Flags3 conditions are met
  5: 0x0543 [0x4A] Sola Jaab (ID: 17764370/0x010F1012) looks at LocalPlayer
  6: 0x054C [0x6F] WAIT_FRAME_DELAY: Yield until WaitTime reaches zero
  7: 0x054D [0x76] CHECK_ENTITY_RENDER_FLAGS: Wait until Sola Jaab (ID: 17764370/0x010F1012) Render.Flags0 and Render.Flags3 conditions are met
  8: 0x0552 [0x00] END_REQSTACK()
```

### Event 65535.24

#### Metadata

| Field        | Value     |
|--------------|-----------|
| Entrypoint   | 0x0553    |
| Data Size    | 104 bytes |
| Instructions | 17        |

```
      00 01 02 03 04 05 06 07  08 09 0A 0B 0C 0D 0E 0F
      -- -- -- -- -- -- -- --  -- -- -- -- -- -- -- --
0550:          45 22 80 10 10  0F 01 10 10 0F 01 73 30     E".........s0
0560: 30 35 05 80 4E 00 F0 FF  FF 7F 1E F0 FF FF 7F 6F  05..N..........o
0570: 70 29 0A 10 10 0F 01 26  24 24 80 05 80 05 80 25  p).....&$$.....%
0580: 02 00 10 05 80 00 92 05  29 0A 10 10 0F 01 22 01  ........).....".
0590: BA 05 02 00 10 0F 80 00  BA 05 45 22 80 10 10 0F  ..........E"....
05A0: 01 10 10 0F 01 73 30 30  35 05 80 29 0A 10 10 0F  .....s005..)....
05B0: 01 29 03 01 10 0E 80 01  BA 05 00                 .).........     
```

#### Opcodes

```
  0: 0x0553 [0x45] LOAD_SCHEDULED_TASK: Load scheduler "s005" with entities [Rakoh Buuma (ID: 17764368/0x010F1010), Rakoh Buuma (ID: 17764368/0x010F1010)], work=[141*, 0*]
  1: 0x0564 [0x4E] SET_ENTITY_HIDE_FLAG: Show LocalPlayer
  2: 0x056A [0x1E] EventEntity looks at LocalPlayer and starts talking
  3: 0x056F [0x6F] WAIT_FRAME_DELAY: Yield until WaitTime reaches zero
  4: 0x0570 [0x70] WAIT_ENTITY_RENDER_FLAG: Wait while EventEntity->Render.Flags3 bit 2 is set (cancel turn if not)
  5: 0x0571 [0x29] REQ_SET_WAIT(priority=0x0A, entity_id=Rakoh Buuma (ID: 17764368/0x010F1010), tag_num=0x26)
  6: 0x0578 [0x24] CREATE_DIALOG(message_id=7694*, default_option=0*, option_flags=0*)
    → "Receive a mission? [Accept./Decline.]"
  7: 0x057F [0x25] WAIT_DIALOG_SELECT()
  8: 0x0580 [0x02] IF !(Work_Zone[0] == 0*) GOTO 0x0592
  9: 0x0588 [0x29] REQ_SET_WAIT(priority=0x0A, entity_id=Rakoh Buuma (ID: 17764368/0x010F1010), tag_num=0x22)
 10: 0x058F [0x01] GOTO 0x05BA
 11: 0x0592 [0x02] IF !(Work_Zone[0] == 1*) GOTO 0x05BA
 12: 0x059A [0x45] LOAD_SCHEDULED_TASK: Load scheduler "s005" with entities [Rakoh Buuma (ID: 17764368/0x010F1010), Rakoh Buuma (ID: 17764368/0x010F1010)], work=[141*, 0*]
 13: 0x05AB [0x29] REQ_SET_WAIT(priority=0x0A, entity_id=Rakoh Buuma (ID: 17764368/0x010F1010), tag_num=0x29)
 14: 0x05B2 [0x03] Work_Zone[1] = 31*
 15: 0x05B7 [0x01] GOTO 0x05BA

SUBROUTINE_05BA:
 16: 0x05BA [0x00] END_REQSTACK()
```

### Event 122

#### Metadata

| Field        | Value     |
|--------------|-----------|
| Entrypoint   | 0x05BB    |
| Data Size    | 325 bytes |
| Instructions | 44        |

```
      00 01 02 03 04 05 06 07  08 09 0A 0B 0C 0D 0E 0F
      -- -- -- -- -- -- -- --  -- -- -- -- -- -- -- --
05B0:                                   1E F0 FF FF 7F             .....
05C0: 6F 70 45 22 80 10 10 0F  01 10 10 0F 01 73 30 36  opE".........s06
05D0: 33 05 80 4E 00 F0 FF FF  7F 79 00 10 10 0F 01 12  3..N.....y......
05E0: 10 0F 01 29 0A 10 10 0F  01 27 4A 12 10 0F 01 10  ...).....'J.....
05F0: 10 0F 01 6F 76 12 10 0F  01 1C 03 80 4A F0 FF FF  ...ov.......J...
0600: 7F 12 10 0F 01 29 0A 12  10 0F 01 11 7B 12 10 0F  .....)......{...
0610: 01 4A 12 10 0F 01 F0 FF  FF 7F 6F 76 12 10 0F 01  .J........ov....
0620: 52 22 80 10 10 0F 01 10  10 0F 01 73 30 36 33 45  R".........s063E
0630: 22 80 10 10 0F 01 10 10  0F 01 73 30 36 34 05 80  ".........s064..
0640: 1C 03 80 29 0A 12 10 0F  01 12 52 22 80 10 10 0F  ...)......R"....
0650: 01 10 10 0F 01 73 30 36  34 45 22 80 10 10 0F 01  .....s064E".....
0660: 10 10 0F 01 73 30 36 38  05 80 29 0A 12 10 0F 01  ....s068..).....
0670: 13 02 09 10 25 80 00 8D  06 45 22 80 10 10 0F 01  ....%....E".....
0680: 10 10 0F 01 73 30 38 33  05 80 01 9E 06 45 22 80  ....s083.....E".
0690: 10 10 0F 01 10 10 0F 01  73 30 36 35 05 80 4A 10  ........s065..J.
06A0: 10 0F 01 F0 FF FF 7F 6F  76 10 10 0F 01 4A F0 FF  .......ov....J..
06B0: FF 7F 10 10 0F 01 29 0A  10 10 0F 01 28 24 24 80  ......).....($$.
06C0: 05 80 05 80 25 02 00 10  05 80 00 D7 06 29 0A 10  ....%........)..
06D0: 10 0F 01 22 01 FF 06 02  00 10 0F 80 00 FF 06 45  ..."...........E
06E0: 22 80 10 10 0F 01 10 10  0F 01 73 30 30 35 05 80  ".........s005..
06F0: 29 0A 10 10 0F 01 29 03  01 10 0E 80 01 FF 06 00  ).....).........
```

#### Opcodes

```
  0: 0x05BB [0x1E] EventEntity looks at LocalPlayer and starts talking
  1: 0x05C0 [0x6F] WAIT_FRAME_DELAY: Yield until WaitTime reaches zero
  2: 0x05C1 [0x70] WAIT_ENTITY_RENDER_FLAG: Wait while EventEntity->Render.Flags3 bit 2 is set (cancel turn if not)
  3: 0x05C2 [0x45] LOAD_SCHEDULED_TASK: Load scheduler "s063" with entities [Rakoh Buuma (ID: 17764368/0x010F1010), Rakoh Buuma (ID: 17764368/0x010F1010)], work=[141*, 0*]
  4: 0x05D3 [0x4E] SET_ENTITY_HIDE_FLAG: Show LocalPlayer
  5: 0x05D9 [0x79] Rakoh Buuma (ID: 17764368/0x010F1010) looks at Sola Jaab (ID: 17764370/0x010F1012) (Basic look)
  6: 0x05E3 [0x29] REQ_SET_WAIT(priority=0x0A, entity_id=Rakoh Buuma (ID: 17764368/0x010F1010), tag_num=0x27)
  7: 0x05EA [0x4A] Sola Jaab (ID: 17764370/0x010F1012) looks at Rakoh Buuma (ID: 17764368/0x010F1010)
  8: 0x05F3 [0x6F] WAIT_FRAME_DELAY: Yield until WaitTime reaches zero
  9: 0x05F4 [0x76] CHECK_ENTITY_RENDER_FLAGS: Wait until Sola Jaab (ID: 17764370/0x010F1012) Render.Flags0 and Render.Flags3 conditions are met
 10: 0x05F9 [0x1C] WAIT(30* ticks)
 11: 0x05FC [0x4A] LocalPlayer looks at Sola Jaab (ID: 17764370/0x010F1012)
 12: 0x0605 [0x29] REQ_SET_WAIT(priority=0x0A, entity_id=Sola Jaab (ID: 17764370/0x010F1012), tag_num=0x11)
 13: 0x060C [0x7B] Sola Jaab (ID: 17764370/0x010F1012) stops talking
 14: 0x0611 [0x4A] Sola Jaab (ID: 17764370/0x010F1012) looks at LocalPlayer
 15: 0x061A [0x6F] WAIT_FRAME_DELAY: Yield until WaitTime reaches zero
 16: 0x061B [0x76] CHECK_ENTITY_RENDER_FLAGS: Wait until Sola Jaab (ID: 17764370/0x010F1012) Render.Flags0 and Render.Flags3 conditions are met
 17: 0x0620 [0x52] END_LOAD_SCHEDULER: End scheduler "s063" with entities [Rakoh Buuma (ID: 17764368/0x010F1010), Rakoh Buuma (ID: 17764368/0x010F1010)], work=141*
 18: 0x062F [0x45] LOAD_SCHEDULED_TASK: Load scheduler "s064" with entities [Rakoh Buuma (ID: 17764368/0x010F1010), Rakoh Buuma (ID: 17764368/0x010F1010)], work=[141*, 0*]
 19: 0x0640 [0x1C] WAIT(30* ticks)
 20: 0x0643 [0x29] REQ_SET_WAIT(priority=0x0A, entity_id=Sola Jaab (ID: 17764370/0x010F1012), tag_num=0x12)
 21: 0x064A [0x52] END_LOAD_SCHEDULER: End scheduler "s064" with entities [Rakoh Buuma (ID: 17764368/0x010F1010), Rakoh Buuma (ID: 17764368/0x010F1010)], work=141*
 22: 0x0659 [0x45] LOAD_SCHEDULED_TASK: Load scheduler "s068" with entities [Rakoh Buuma (ID: 17764368/0x010F1010), Rakoh Buuma (ID: 17764368/0x010F1010)], work=[141*, 0*]
 23: 0x066A [0x29] REQ_SET_WAIT(priority=0x0A, entity_id=Sola Jaab (ID: 17764370/0x010F1012), tag_num=0x13)
 24: 0x0671 [0x02] IF !(Work_Zone[9] == 8*) GOTO 0x068D
 25: 0x0679 [0x45] LOAD_SCHEDULED_TASK: Load scheduler "s083" with entities [Rakoh Buuma (ID: 17764368/0x010F1010), Rakoh Buuma (ID: 17764368/0x010F1010)], work=[141*, 0*]
 26: 0x068A [0x01] GOTO 0x069E
 27: 0x068D [0x45] LOAD_SCHEDULED_TASK: Load scheduler "s065" with entities [Rakoh Buuma (ID: 17764368/0x010F1010), Rakoh Buuma (ID: 17764368/0x010F1010)], work=[141*, 0*]

SUBROUTINE_069E:
 28: 0x069E [0x4A] Rakoh Buuma (ID: 17764368/0x010F1010) looks at LocalPlayer
 29: 0x06A7 [0x6F] WAIT_FRAME_DELAY: Yield until WaitTime reaches zero
 30: 0x06A8 [0x76] CHECK_ENTITY_RENDER_FLAGS: Wait until Rakoh Buuma (ID: 17764368/0x010F1010) Render.Flags0 and Render.Flags3 conditions are met
 31: 0x06AD [0x4A] LocalPlayer looks at Rakoh Buuma (ID: 17764368/0x010F1010)
 32: 0x06B6 [0x29] REQ_SET_WAIT(priority=0x0A, entity_id=Rakoh Buuma (ID: 17764368/0x010F1010), tag_num=0x28)
 33: 0x06BD [0x24] CREATE_DIALOG(message_id=7694*, default_option=0*, option_flags=0*)
    → "Receive a mission? [Accept./Decline.]"
 34: 0x06C4 [0x25] WAIT_DIALOG_SELECT()
 35: 0x06C5 [0x02] IF !(Work_Zone[0] == 0*) GOTO 0x06D7
 36: 0x06CD [0x29] REQ_SET_WAIT(priority=0x0A, entity_id=Rakoh Buuma (ID: 17764368/0x010F1010), tag_num=0x22)
 37: 0x06D4 [0x01] GOTO 0x06FF
 38: 0x06D7 [0x02] IF !(Work_Zone[0] == 1*) GOTO 0x06FF
 39: 0x06DF [0x45] LOAD_SCHEDULED_TASK: Load scheduler "s005" with entities [Rakoh Buuma (ID: 17764368/0x010F1010), Rakoh Buuma (ID: 17764368/0x010F1010)], work=[141*, 0*]
 40: 0x06F0 [0x29] REQ_SET_WAIT(priority=0x0A, entity_id=Rakoh Buuma (ID: 17764368/0x010F1010), tag_num=0x29)
 41: 0x06F7 [0x03] Work_Zone[1] = 31*
 42: 0x06FC [0x01] GOTO 0x06FF

SUBROUTINE_06FF:
 43: 0x06FF [0x00] END_REQSTACK()
```

### Event 123

#### Metadata

| Field        | Value     |
|--------------|-----------|
| Entrypoint   | 0x0700    |
| Data Size    | 251 bytes |
| Instructions | 35        |

```
      00 01 02 03 04 05 06 07  08 09 0A 0B 0C 0D 0E 0F
      -- -- -- -- -- -- -- --  -- -- -- -- -- -- -- --
0700: 1E F0 FF FF 7F 6F 70 4E  01 F0 FF FF 7F 45 22 80  .....opN.....E".
0710: 10 10 0F 01 10 10 0F 01  73 30 30 35 05 80 29 08  ........s005..).
0720: F0 FF FF 7F 05 29 09 10  10 0F 01 2A 29 09 13 10  .....).....*)...
0730: 0F 01 10 45 22 80 10 10  0F 01 10 10 0F 01 73 30  ...E".........s0
0740: 30 37 05 80 4E 00 F0 FF  FF 7F 4A F0 FF FF 7F 13  07..N.....J.....
0750: 10 0F 01 4A 10 10 0F 01  13 10 0F 01 6F 76 10 10  ...J........ov..
0760: 0F 01 4A 12 10 0F 01 13  10 0F 01 6F 76 12 10 0F  ..J........ov...
0770: 01 29 09 13 10 0F 01 0E  52 22 80 10 10 0F 01 10  .)......R"......
0780: 10 0F 01 73 30 30 37 45  22 80 10 10 0F 01 10 10  ...s007E".......
0790: 0F 01 73 30 38 31 05 80  29 08 13 10 0F 01 03 29  ..s081..)......)
07A0: 09 13 10 0F 01 11 7B 10  10 0F 01 4A 10 10 0F 01  ......{....J....
07B0: F0 FF FF 7F 6F 76 10 10  0F 01 4E 01 F0 FF FF 7F  ....ov....N.....
07C0: 45 22 80 10 10 0F 01 10  10 0F 01 73 30 30 35 05  E".........s005.
07D0: 80 4A F0 FF FF 7F 10 10  0F 01 29 08 13 10 0F 01  .J........).....
07E0: 05 27 09 13 10 0F 01 0F  29 09 10 10 0F 01 2B 2A  .'......).....+*
07F0: 09 13 10 0F 01 03 01 10  0F 80 00                 ...........     
```

#### Opcodes

```
  0: 0x0700 [0x1E] EventEntity looks at LocalPlayer and starts talking
  1: 0x0705 [0x6F] WAIT_FRAME_DELAY: Yield until WaitTime reaches zero
  2: 0x0706 [0x70] WAIT_ENTITY_RENDER_FLAG: Wait while EventEntity->Render.Flags3 bit 2 is set (cancel turn if not)
  3: 0x0707 [0x4E] SET_ENTITY_HIDE_FLAG: Hide LocalPlayer
  4: 0x070D [0x45] LOAD_SCHEDULED_TASK: Load scheduler "s005" with entities [Rakoh Buuma (ID: 17764368/0x010F1010), Rakoh Buuma (ID: 17764368/0x010F1010)], work=[141*, 0*]
  5: 0x071E [0x29] REQ_SET_WAIT(priority=0x08, entity_id=LocalPlayer, tag_num=0x05)
  6: 0x0725 [0x29] REQ_SET_WAIT(priority=0x09, entity_id=Rakoh Buuma (ID: 17764368/0x010F1010), tag_num=0x2A)
  7: 0x072C [0x29] REQ_SET_WAIT(priority=0x09, entity_id=Miiri-Wohri (ID: 17764371/0x010F1013), tag_num=0x10)
  8: 0x0733 [0x45] LOAD_SCHEDULED_TASK: Load scheduler "s007" with entities [Rakoh Buuma (ID: 17764368/0x010F1010), Rakoh Buuma (ID: 17764368/0x010F1010)], work=[141*, 0*]
  9: 0x0744 [0x4E] SET_ENTITY_HIDE_FLAG: Show LocalPlayer
 10: 0x074A [0x4A] LocalPlayer looks at Miiri-Wohri (ID: 17764371/0x010F1013)
 11: 0x0753 [0x4A] Rakoh Buuma (ID: 17764368/0x010F1010) looks at Miiri-Wohri (ID: 17764371/0x010F1013)
 12: 0x075C [0x6F] WAIT_FRAME_DELAY: Yield until WaitTime reaches zero
 13: 0x075D [0x76] CHECK_ENTITY_RENDER_FLAGS: Wait until Rakoh Buuma (ID: 17764368/0x010F1010) Render.Flags0 and Render.Flags3 conditions are met
 14: 0x0762 [0x4A] Sola Jaab (ID: 17764370/0x010F1012) looks at Miiri-Wohri (ID: 17764371/0x010F1013)
 15: 0x076B [0x6F] WAIT_FRAME_DELAY: Yield until WaitTime reaches zero
 16: 0x076C [0x76] CHECK_ENTITY_RENDER_FLAGS: Wait until Sola Jaab (ID: 17764370/0x010F1012) Render.Flags0 and Render.Flags3 conditions are met
 17: 0x0771 [0x29] REQ_SET_WAIT(priority=0x09, entity_id=Miiri-Wohri (ID: 17764371/0x010F1013), tag_num=0x0E)
 18: 0x0778 [0x52] END_LOAD_SCHEDULER: End scheduler "s007" with entities [Rakoh Buuma (ID: 17764368/0x010F1010), Rakoh Buuma (ID: 17764368/0x010F1010)], work=141*
 19: 0x0787 [0x45] LOAD_SCHEDULED_TASK: Load scheduler "s081" with entities [Rakoh Buuma (ID: 17764368/0x010F1010), Rakoh Buuma (ID: 17764368/0x010F1010)], work=[141*, 0*]
 20: 0x0798 [0x29] REQ_SET_WAIT(priority=0x08, entity_id=Miiri-Wohri (ID: 17764371/0x010F1013), tag_num=0x03)
 21: 0x079F [0x29] REQ_SET_WAIT(priority=0x09, entity_id=Miiri-Wohri (ID: 17764371/0x010F1013), tag_num=0x11)
 22: 0x07A6 [0x7B] Rakoh Buuma (ID: 17764368/0x010F1010) stops talking
 23: 0x07AB [0x4A] Rakoh Buuma (ID: 17764368/0x010F1010) looks at LocalPlayer
 24: 0x07B4 [0x6F] WAIT_FRAME_DELAY: Yield until WaitTime reaches zero
 25: 0x07B5 [0x76] CHECK_ENTITY_RENDER_FLAGS: Wait until Rakoh Buuma (ID: 17764368/0x010F1010) Render.Flags0 and Render.Flags3 conditions are met
 26: 0x07BA [0x4E] SET_ENTITY_HIDE_FLAG: Hide LocalPlayer
 27: 0x07C0 [0x45] LOAD_SCHEDULED_TASK: Load scheduler "s005" with entities [Rakoh Buuma (ID: 17764368/0x010F1010), Rakoh Buuma (ID: 17764368/0x010F1010)], work=[141*, 0*]
 28: 0x07D1 [0x4A] LocalPlayer looks at Rakoh Buuma (ID: 17764368/0x010F1010)
 29: 0x07DA [0x29] REQ_SET_WAIT(priority=0x08, entity_id=Miiri-Wohri (ID: 17764371/0x010F1013), tag_num=0x05)
 30: 0x07E1 [0x27] REQ_SET(priority=0x09, entity_id=Miiri-Wohri (ID: 17764371/0x010F1013), tag_num=0x0F)
 31: 0x07E8 [0x29] REQ_SET_WAIT(priority=0x09, entity_id=Rakoh Buuma (ID: 17764368/0x010F1010), tag_num=0x2B)
 32: 0x07EF [0x2A] GET_REQ_LEVEL(level=9, entity_id=Miiri-Wohri (ID: 17764371/0x010F1013))
 33: 0x07F5 [0x03] Work_Zone[1] = 1*
 34: 0x07FA [0x00] END_REQSTACK()
```

### Event 65535.25

#### Metadata

| Field        | Value    |
|--------------|----------|
| Entrypoint   | 0x07FB   |
| Data Size    | 23 bytes |
| Instructions | 7        |

```
      00 01 02 03 04 05 06 07  08 09 0A 0B 0C 0D 0E 0F
      -- -- -- -- -- -- -- --  -- -- -- -- -- -- -- --
07F0:                                   29 08 10 10 0F             )....
0800: 01 01 1D 26 80 23 1D 27  80 23 29 08 10 10 0F 01  ...&.#.'.#).....
0810: 02 00                                             ..              
```

#### Opcodes

```
  0: 0x07FB [0x29] REQ_SET_WAIT(priority=0x08, entity_id=Rakoh Buuma (ID: 17764368/0x010F1010), tag_num=0x01)
  1: 0x0802 [0x1D] PRINT_EVENT_MESSAGE(message_id=7679*)
    → "This is the eastern gatehouse--a gathering place for the guards who do the rrrounds of Windurst Woods."
  2: 0x0805 [0x23] WAIT_FOR_DIALOG_INTERACTION
  3: 0x0806 [0x1D] PRINT_EVENT_MESSAGE(message_id=7680*)
    → "To expel those who would subvert the law and order of Windurst Woods... To protect the Mithra populace from all manner of threats and dangers... That is the job of us guards."
  4: 0x0809 [0x23] WAIT_FOR_DIALOG_INTERACTION
  5: 0x080A [0x29] REQ_SET_WAIT(priority=0x08, entity_id=Rakoh Buuma (ID: 17764368/0x010F1010), tag_num=0x02)
  6: 0x0811 [0x00] END_REQSTACK()
```

### Event 65535.26

#### Metadata

| Field        | Value   |
|--------------|---------|
| Entrypoint   | 0x0812  |
| Data Size    | 9 bytes |
| Instructions | 5       |

```
      00 01 02 03 04 05 06 07  08 09 0A 0B 0C 0D 0E 0F
      -- -- -- -- -- -- -- --  -- -- -- -- -- -- -- --
0810:       1D 28 80 23 1D 29  80 23 00                   .(.#.).#.     
```

#### Opcodes

```
  0: 0x0812 [0x1D] PRINT_EVENT_MESSAGE(message_id=7681*)
    → "But lately, ferocious monsters are on the increase, and the beastmen are rrruining nature as they please, so our job is becoming all the more hectic."
  1: 0x0815 [0x23] WAIT_FOR_DIALOG_INTERACTION
  2: 0x0816 [0x1D] PRINT_EVENT_MESSAGE(message_id=7682*)
    → "If you are a citizen of Windurst, then perhaps you may lend us a helping hand from time to time in order to protect the peace of our fair town."
  3: 0x0819 [0x23] WAIT_FOR_DIALOG_INTERACTION
  4: 0x081A [0x00] END_REQSTACK()
```

### Event 65535.27

#### Metadata

| Field        | Value    |
|--------------|----------|
| Entrypoint   | 0x081B   |
| Data Size    | 37 bytes |
| Instructions | 9        |

```
      00 01 02 03 04 05 06 07  08 09 0A 0B 0C 0D 0E 0F
      -- -- -- -- -- -- -- --  -- -- -- -- -- -- -- --
0810:                                   29 08 10 10 0F             )....
0820: 01 03 1D 2A 80 23 1D 2B  80 23 29 08 10 10 0F 01  ...*.#.+.#).....
0830: 04 29 08 10 10 0F 01 05  29 08 10 10 0F 01 06 00  .)......).......
```

#### Opcodes

```
  0: 0x081B [0x29] REQ_SET_WAIT(priority=0x08, entity_id=Rakoh Buuma (ID: 17764368/0x010F1010), tag_num=0x03)
  1: 0x0822 [0x1D] PRINT_EVENT_MESSAGE(message_id=7683*)
    → "For instance, you could try to do some missions...special tasks issued on behalf of the Federation of Windurst..."
  2: 0x0825 [0x23] WAIT_FOR_DIALOG_INTERACTION
  3: 0x0826 [0x1D] PRINT_EVENT_MESSAGE(message_id=7684*)
    → "But first, you might prefer to listen to our explanation of the rrrole of gatehouses before you decide..."
  4: 0x0829 [0x23] WAIT_FOR_DIALOG_INTERACTION
  5: 0x082A [0x29] REQ_SET_WAIT(priority=0x08, entity_id=Rakoh Buuma (ID: 17764368/0x010F1010), tag_num=0x04)
  6: 0x0831 [0x29] REQ_SET_WAIT(priority=0x08, entity_id=Rakoh Buuma (ID: 17764368/0x010F1010), tag_num=0x05)
  7: 0x0838 [0x29] REQ_SET_WAIT(priority=0x08, entity_id=Rakoh Buuma (ID: 17764368/0x010F1010), tag_num=0x06)
  8: 0x083F [0x00] END_REQSTACK()
```

### Event 65535.28

#### Metadata

| Field        | Value    |
|--------------|----------|
| Entrypoint   | 0x0840   |
| Data Size    | 19 bytes |
| Instructions | 5        |

```
      00 01 02 03 04 05 06 07  08 09 0A 0B 0C 0D 0E 0F
      -- -- -- -- -- -- -- --  -- -- -- -- -- -- -- --
0840: 29 08 10 10 0F 01 01 1D  2C 80 23 29 08 10 10 0F  ).......,.#)....
0850: 01 02 00                                          ...             
```

#### Opcodes

```
  0: 0x0840 [0x29] REQ_SET_WAIT(priority=0x08, entity_id=Rakoh Buuma (ID: 17764368/0x010F1010), tag_num=0x01)
  1: 0x0847 [0x1D] PRINT_EVENT_MESSAGE(message_id=7696*)
    → "So you don't need to know about gatehouses, eh? I don't suppose you'll be interested in taking on any missions, then...?"
  2: 0x084A [0x23] WAIT_FOR_DIALOG_INTERACTION
  3: 0x084B [0x29] REQ_SET_WAIT(priority=0x08, entity_id=Rakoh Buuma (ID: 17764368/0x010F1010), tag_num=0x02)
  4: 0x0852 [0x00] END_REQSTACK()
```

### Event 65535.29

#### Metadata

| Field        | Value    |
|--------------|----------|
| Entrypoint   | 0x0853   |
| Data Size    | 19 bytes |
| Instructions | 5        |

```
      00 01 02 03 04 05 06 07  08 09 0A 0B 0C 0D 0E 0F
      -- -- -- -- -- -- -- --  -- -- -- -- -- -- -- --
0850:          29 08 10 10 0F  01 01 1D 2D 80 23 29 08     ).......-.#).
0860: 10 10 0F 01 02 00                                 ......          
```

#### Opcodes

```
  0: 0x0853 [0x29] REQ_SET_WAIT(priority=0x08, entity_id=Rakoh Buuma (ID: 17764368/0x010F1010), tag_num=0x01)
  1: 0x085A [0x1D] PRINT_EVENT_MESSAGE(message_id=7686*)
    → "Good, then allow us to explain. Sola Jaab, would you like to do the honors?"
  2: 0x085D [0x23] WAIT_FOR_DIALOG_INTERACTION
  3: 0x085E [0x29] REQ_SET_WAIT(priority=0x08, entity_id=Rakoh Buuma (ID: 17764368/0x010F1010), tag_num=0x02)
  4: 0x0865 [0x00] END_REQSTACK()
```

### Event 65535.30

#### Metadata

| Field        | Value    |
|--------------|----------|
| Entrypoint   | 0x0866   |
| Data Size    | 23 bytes |
| Instructions | 7        |

```
      00 01 02 03 04 05 06 07  08 09 0A 0B 0C 0D 0E 0F
      -- -- -- -- -- -- -- --  -- -- -- -- -- -- -- --
0860:                   29 08  10 10 0F 01 01 1D 2E 80        ).........
0870: 23 1D 2F 80 23 29 08 10  10 0F 01 02 00           #./.#).......   
```

#### Opcodes

```
  0: 0x0866 [0x29] REQ_SET_WAIT(priority=0x08, entity_id=Rakoh Buuma (ID: 17764368/0x010F1010), tag_num=0x01)
  1: 0x086D [0x1D] PRINT_EVENT_MESSAGE(message_id=7692*)
    → "So how about it? If you consider yourself a model citizen of Windurst, I rrrecommend you serve your country by trying your hand at missions."
  2: 0x0870 [0x23] WAIT_FOR_DIALOG_INTERACTION
  3: 0x0871 [0x1D] PRINT_EVENT_MESSAGE(message_id=7693*)
    → "The very rrreason that you came to Windurst in the first place was because you wanted to make something out of yourself, wasn't it?"
  4: 0x0874 [0x23] WAIT_FOR_DIALOG_INTERACTION
  5: 0x0875 [0x29] REQ_SET_WAIT(priority=0x08, entity_id=Rakoh Buuma (ID: 17764368/0x010F1010), tag_num=0x02)
  6: 0x087C [0x00] END_REQSTACK()
```

### Event 65535.31

#### Metadata

| Field        | Value    |
|--------------|----------|
| Entrypoint   | 0x087D   |
| Data Size    | 33 bytes |
| Instructions | 7        |

```
      00 01 02 03 04 05 06 07  08 09 0A 0B 0C 0D 0E 0F
      -- -- -- -- -- -- -- --  -- -- -- -- -- -- -- --
0870:                                         29 08 10               )..
0880: 10 0F 01 03 1D 30 80 23  29 08 10 10 0F 01 04 29  .....0.#)......)
0890: 08 10 10 0F 01 05 29 08  10 10 0F 01 06 00        ......).......  
```

#### Opcodes

```
  0: 0x087D [0x29] REQ_SET_WAIT(priority=0x08, entity_id=Rakoh Buuma (ID: 17764368/0x010F1010), tag_num=0x03)
  1: 0x0884 [0x1D] PRINT_EVENT_MESSAGE(message_id=7695*)
    → "Well, I guess there's little more to say than "Maybe next time," eh?"
  2: 0x0887 [0x23] WAIT_FOR_DIALOG_INTERACTION
  3: 0x0888 [0x29] REQ_SET_WAIT(priority=0x08, entity_id=Rakoh Buuma (ID: 17764368/0x010F1010), tag_num=0x04)
  4: 0x088F [0x29] REQ_SET_WAIT(priority=0x08, entity_id=Rakoh Buuma (ID: 17764368/0x010F1010), tag_num=0x05)
  5: 0x0896 [0x29] REQ_SET_WAIT(priority=0x08, entity_id=Rakoh Buuma (ID: 17764368/0x010F1010), tag_num=0x06)
  6: 0x089D [0x00] END_REQSTACK()
```

### Event 65535.32

#### Metadata

| Field        | Value    |
|--------------|----------|
| Entrypoint   | 0x089E   |
| Data Size    | 23 bytes |
| Instructions | 7        |

```
      00 01 02 03 04 05 06 07  08 09 0A 0B 0C 0D 0E 0F
      -- -- -- -- -- -- -- --  -- -- -- -- -- -- -- --
0890:                                            29 08                ).
08A0: 10 10 0F 01 01 1D 31 80  23 1D 32 80 23 29 08 10  ......1.#.2.#)..
08B0: 10 0F 01 02 00                                    .....           
```

#### Opcodes

```
  0: 0x089E [0x29] REQ_SET_WAIT(priority=0x08, entity_id=Rakoh Buuma (ID: 17764368/0x010F1010), tag_num=0x01)
  1: 0x08A5 [0x1D] PRINT_EVENT_MESSAGE(message_id=7697*)
    → "Well said! That heartfelt rrreply is your first great step towards making Windurst a better place."
  2: 0x08A8 [0x23] WAIT_FOR_DIALOG_INTERACTION
  3: 0x08A9 [0x1D] PRINT_EVENT_MESSAGE(message_id=7698*)
    → "So, without further delay, let's issue you your first mission. Do either of you have just the rrright mission for [him/her]?"
  4: 0x08AC [0x23] WAIT_FOR_DIALOG_INTERACTION
  5: 0x08AD [0x29] REQ_SET_WAIT(priority=0x08, entity_id=Rakoh Buuma (ID: 17764368/0x010F1010), tag_num=0x02)
  6: 0x08B4 [0x00] END_REQSTACK()
```

### Event 65535.33

#### Metadata

| Field        | Value   |
|--------------|---------|
| Entrypoint   | 0x08B5  |
| Data Size    | 9 bytes |
| Instructions | 5       |

```
      00 01 02 03 04 05 06 07  08 09 0A 0B 0C 0D 0E 0F
      -- -- -- -- -- -- -- --  -- -- -- -- -- -- -- --
08B0:                1D 33 80  23 1D 34 80 23 00             .3.#.4.#.  
```

#### Opcodes

```
  0: 0x08B5 [0x1D] PRINT_EVENT_MESSAGE(message_id=7704*)
    → "Good. Carry out that mission! The Orastery is the ministry that rrruns a Mage Academy to improve the military's magic abilities."
  1: 0x08B8 [0x23] WAIT_FOR_DIALOG_INTERACTION
  2: 0x08B9 [0x1D] PRINT_EVENT_MESSAGE(message_id=7705*)
    → "To get to the Orastery, you have to go to the port area by heading back west from this gate. Your country is counting on you!"
  3: 0x08BC [0x23] WAIT_FOR_DIALOG_INTERACTION
  4: 0x08BD [0x00] END_REQSTACK()
```

### Event 127

#### Metadata

| Field        | Value    |
|--------------|----------|
| Entrypoint   | 0x08BE   |
| Data Size    | 33 bytes |
| Instructions | 12       |

```
      00 01 02 03 04 05 06 07  08 09 0A 0B 0C 0D 0E 0F
      -- -- -- -- -- -- -- --  -- -- -- -- -- -- -- --
08B0:                                            1E F0                ..
08C0: FF FF 7F 6F 70 29 08 10  10 0F 01 01 1D 35 80 23  ...op).......5.#
08D0: 1D 36 80 23 29 08 10 10  0F 01 15 20 00 21 00     .6.#)...... .!. 
```

#### Opcodes

```
  0: 0x08BE [0x1E] EventEntity looks at LocalPlayer and starts talking
  1: 0x08C3 [0x6F] WAIT_FRAME_DELAY: Yield until WaitTime reaches zero
  2: 0x08C4 [0x70] WAIT_ENTITY_RENDER_FLAG: Wait while EventEntity->Render.Flags3 bit 2 is set (cancel turn if not)
  3: 0x08C5 [0x29] REQ_SET_WAIT(priority=0x08, entity_id=Rakoh Buuma (ID: 17764368/0x010F1010), tag_num=0x01)
  4: 0x08CC [0x1D] PRINT_EVENT_MESSAGE(message_id=7712*)
    → "The details of the mission will be explained when you meet with the Orastery's minister. I can't say he's the most pleasant of people, but at least he has guts."
  5: 0x08CF [0x23] WAIT_FOR_DIALOG_INTERACTION
  6: 0x08D0 [0x1D] PRINT_EVENT_MESSAGE(message_id=7713*)
    → "Do us proud!"
  7: 0x08D3 [0x23] WAIT_FOR_DIALOG_INTERACTION
  8: 0x08D4 [0x29] REQ_SET_WAIT(priority=0x08, entity_id=Rakoh Buuma (ID: 17764368/0x010F1010), tag_num=0x15)
  9: 0x08DB [0x20] SET_CLI_EVENT_UC_FLAG: Unlock player control
 10: 0x08DD [0x21] END_EVENT
 11: 0x08DE [0x00] END_REQSTACK()
```

### Event 129

#### Metadata

| Field        | Value    |
|--------------|----------|
| Entrypoint   | 0x08DF   |
| Data Size    | 33 bytes |
| Instructions | 12       |

```
      00 01 02 03 04 05 06 07  08 09 0A 0B 0C 0D 0E 0F
      -- -- -- -- -- -- -- --  -- -- -- -- -- -- -- --
08D0:                                               1E                 .
08E0: F0 FF FF 7F 6F 70 29 08  10 10 0F 01 01 1D 37 80  ....op).......7.
08F0: 23 1D 38 80 23 29 08 10  10 0F 01 15 20 00 21 00  #.8.#)...... .!.
```

#### Opcodes

```
  0: 0x08DF [0x1E] EventEntity looks at LocalPlayer and starts talking
  1: 0x08E4 [0x6F] WAIT_FRAME_DELAY: Yield until WaitTime reaches zero
  2: 0x08E5 [0x70] WAIT_ENTITY_RENDER_FLAG: Wait while EventEntity->Render.Flags3 bit 2 is set (cancel turn if not)
  3: 0x08E6 [0x29] REQ_SET_WAIT(priority=0x08, entity_id=Rakoh Buuma (ID: 17764368/0x010F1010), tag_num=0x01)
  4: 0x08ED [0x1D] PRINT_EVENT_MESSAGE(message_id=7714*)
    → "Good job! Glad to see you made it back alive! I trust the mission wasn't too dangerous."
  5: 0x08F0 [0x23] WAIT_FOR_DIALOG_INTERACTION
  6: 0x08F1 [0x1D] PRINT_EVENT_MESSAGE(message_id=7715*)
    → "Allocating rrrank points according to your efforts...has enabled you to go up to rrrank two! Congratulations!"
  7: 0x08F4 [0x23] WAIT_FOR_DIALOG_INTERACTION
  8: 0x08F5 [0x29] REQ_SET_WAIT(priority=0x08, entity_id=Rakoh Buuma (ID: 17764368/0x010F1010), tag_num=0x15)
  9: 0x08FC [0x20] SET_CLI_EVENT_UC_FLAG: Unlock player control
 10: 0x08FE [0x21] END_EVENT
 11: 0x08FF [0x00] END_REQSTACK()
```

### Event 132

#### Metadata

| Field        | Value     |
|--------------|-----------|
| Entrypoint   | 0x0900    |
| Data Size    | 167 bytes |
| Instructions | 28        |

```
      00 01 02 03 04 05 06 07  08 09 0A 0B 0C 0D 0E 0F
      -- -- -- -- -- -- -- --  -- -- -- -- -- -- -- --
0900: 42 46 01 45 04 80 F8 FF  FF 7F F8 FF FF 7F 66 64  BF.E..........fd
0910: 6F 31 05 80 1C 06 80 38  11 80 4E 01 F0 FF FF 7F  o1.....8..N.....
0920: 45 22 80 10 10 0F 01 10  10 0F 01 73 30 30 35 05  E".........s005.
0930: 80 29 0D 10 10 0F 01 1F  4A 10 10 0F 01 F0 FF FF  .)......J.......
0940: 7F 6F 76 10 10 0F 01 45  04 80 F8 FF FF 7F F8 FF  .ov....E........
0950: FF 7F 66 64 69 31 05 80  29 0B 10 10 0F 01 2F 24  ..fdi1..)...../$
0960: 39 80 05 80 05 80 25 02  00 10 05 80 00 85 09 4B  9.....%........K
0970: 10 10 0F 01 3A 80 29 0D  10 10 0F 01 30 03 01 10  ....:.).....0...
0980: 0F 80 01 9C 09 02 00 10  0F 80 00 9C 09 29 0D 10  .............)..
0990: 10 0F 01 31 03 01 10 0E  80 01 9C 09 29 08 10 10  ...1........)...
09A0: 0F 01 16 20 00 21 00                              ... .!.         
```

#### Opcodes

```
  0: 0x0900 [0x42] SET_CLI_EVENT_CANCEL_DATA()
  1: 0x0901 [0x46] CAMERA_CONTROL: Disable user control
  2: 0x0903 [0x45] LOAD_SCHEDULED_TASK: Load scheduler "fdo1" with entities [EventEntity, EventEntity], work=[200*, 0*]
  3: 0x0914 [0x1C] WAIT(60* ticks)
  4: 0x0917 [0x38] SET_CLIENT_EVENT_MODE(mode=3*)
  5: 0x091A [0x4E] SET_ENTITY_HIDE_FLAG: Hide LocalPlayer
  6: 0x0920 [0x45] LOAD_SCHEDULED_TASK: Load scheduler "s005" with entities [Rakoh Buuma (ID: 17764368/0x010F1010), Rakoh Buuma (ID: 17764368/0x010F1010)], work=[141*, 0*]
  7: 0x0931 [0x29] REQ_SET_WAIT(priority=0x0D, entity_id=Rakoh Buuma (ID: 17764368/0x010F1010), tag_num=0x1F)
  8: 0x0938 [0x4A] Rakoh Buuma (ID: 17764368/0x010F1010) looks at LocalPlayer
  9: 0x0941 [0x6F] WAIT_FRAME_DELAY: Yield until WaitTime reaches zero
 10: 0x0942 [0x76] CHECK_ENTITY_RENDER_FLAGS: Wait until Rakoh Buuma (ID: 17764368/0x010F1010) Render.Flags0 and Render.Flags3 conditions are met
 11: 0x0947 [0x45] LOAD_SCHEDULED_TASK: Load scheduler "fdi1" with entities [EventEntity, EventEntity], work=[200*, 0*]
 12: 0x0958 [0x29] REQ_SET_WAIT(priority=0x0B, entity_id=Rakoh Buuma (ID: 17764368/0x010F1010), tag_num=0x2F)
 13: 0x095F [0x24] CREATE_DIALOG(message_id=7722*, default_option=0*, option_flags=0*)
    → "Accept this mission? [Accept./Decline.]"
 14: 0x0966 [0x25] WAIT_DIALOG_SELECT()
 15: 0x0967 [0x02] IF !(Work_Zone[0] == 0*) GOTO 0x0985
