# 17764468 - Cha Lebagta

## Common Data

| Field            | Value                    |
|------------------|--------------------------|
| Zone             | Windurst Woods (ID: 241) |
| Block Size       | 724 bytes                |
| Total Events     | 25                       |
| References Count | 35                       |

## List of Events

| Event ID                 | Entrypoint   |   Size |   Instructions |
|--------------------------|--------------|--------|----------------|
| [65535](#event-65535)    | 0x0000       |      1 |              1 |
| [65535.1](#event-655351) | 0x0001       |     16 |              2 |
| [65535.2](#event-655352) | 0x0011       |      9 |              3 |
| [78](#event-78)          | 0x001A       |     33 |             12 |
| [85](#event-85)          | 0x003B       |     29 |             10 |
| [91](#event-91)          | 0x0058       |     33 |             12 |
| [97](#event-97)          | 0x0079       |     29 |             10 |
| [389](#event-389)        | 0x0096       |     29 |             10 |
| [168](#event-168)        | 0x00B3       |     37 |             14 |
| [172](#event-172)        | 0x00D8       |     29 |             10 |
| [175](#event-175)        | 0x00F5       |     33 |             12 |
| [501](#event-501)        | 0x0116       |     29 |             10 |
| [502](#event-502)        | 0x0133       |     29 |             10 |
| [504](#event-504)        | 0x0150       |      1 |              1 |
| [65535.3](#event-655353) | 0x0151       |     10 |              2 |
| [65535.4](#event-655354) | 0x015B       |     19 |              5 |
| [65535.5](#event-655355) | 0x016E       |      5 |              3 |
| [507](#event-507)        | 0x0173       |     19 |             10 |
| [511](#event-511)        | 0x0186       |     15 |              8 |
| [512](#event-512)        | 0x0195       |      1 |              1 |
| [516](#event-516)        | 0x0196       |      1 |              1 |
| [65535.6](#event-655356) | 0x0197       |      9 |              5 |
| [514](#event-514)        | 0x01A0       |     19 |             10 |
| [518](#event-518)        | 0x01B3       |     15 |              8 |
| [521](#event-521)        | 0x01C2       |     15 |              8 |

## DAT References (imed_data)

|   Index | Hex Value   |   Dec Value |
|---------|-------------|-------------|
|       0 | 0x0167      |         359 |
|       1 | 0x001E      |          30 |
|       2 | 0x1DAC      |        7596 |
|       3 | 0x1DAD      |        7597 |
|       4 | 0x1DB9      |        7609 |
|       5 | 0x1DC4      |        7620 |
|       6 | 0x1DC5      |        7621 |
|       7 | 0x1DD6      |        7638 |
|       8 | 0x20FC      |        8444 |
|       9 | 0x1E9C      |        7836 |
|      10 | 0x1E9D      |        7837 |
|      11 | 0x1E9E      |        7838 |
|      12 | 0x1EA4      |        7844 |
|      13 | 0x1EA8      |        7848 |
|      14 | 0x1EA9      |        7849 |
|      15 | 0x2279      |        8825 |
|      16 | 0x227E      |        8830 |
|      17 | 0xDC2B      |       56363 |
|      18 | 0x3A241     |      238145 |
|      19 | 0xFFFFEBBB  |  4294962107 |
|      20 | 0x0FDF      |        4063 |
|      21 | 0x000D      |          13 |
|      22 | 0xF230      |       62000 |
|      23 | 0x3A598     |      239000 |
|      24 | 0xFFFFED73  |  4294962547 |
|      25 | 0x229A      |        8858 |
|      26 | 0x22A0      |        8864 |
|      27 | 0x22A1      |        8865 |
|      28 | 0x22A8      |        8872 |
|      29 | 0x22B2      |        8882 |
|      30 | 0x22B3      |        8883 |
|      31 | 0x22BE      |        8894 |
|      32 | 0x22BF      |        8895 |
|      33 | 0x22CE      |        8910 |
|      34 | 0x22D1      |        8913 |

## String References

- **7596**: We only take orders from the top cat. When she says, "Jump!", we say, "How high?"...and we always land on our feet, of course.
- **7597**: Grrr... You don't seem to understand how harrrd being a member of her gang is, do you?
- **7609**: We crrrawled up to the top cat by taking her four $1 each. That's how she accepted us! You think you can match that?
- **7620**: Humph! You just did as I said and gave the top cat some $1, didn't you?
- **7621**: Well, that's just being a copycat! Don't think you're any better than us, or else fur will fly!
- **7638**: Seems the top cat herrrself can make mistakes sometimes. Picking pebbles from the pockets of passers-by... My ass-onance! She's got me talking-walking like a Tarutaru now!
- **7836**: Hah! If you want the book we found, then you'rrre in for some major wheeling and dealing with the top cat, arrren't you, now?
- **7837**: Why's that, you say? Well, even that greedy, rich merrrchant from Windurst Waters is... Oops!
- **7838**: Ignore what I just said. I'll make lute strings out of your guts if you tell anyone what I just let slip!
- **7844**: You should alrrready know this, but don't you dare tell anyone about the little deal we'll be making. You'll have a cat in hell's chance of living if you spill the beans on us.
- **7848**: I meowed her once, I meowed her a thousand times. We should stop putting our paws on anything that smells of Carrrdians.
- **7849**: I neverrr want to go through that sorrrt of thing again!
- **8444**: Oo\`h... Aa\`h... Ou\`ch...! I don't think our last burrrglary was such a good idea. The wounds where I was bitten by the you-know-what still ache, not to mention my back from carrying that heavy box I put it in.
- **8825**: Ahh, Jeuno... How long has it been since I last got my paws into the pockets of those bigwigs?
- **8830**: <Sigh> The top cat can surrre be difficult at times...
- **8858**: If the top cat says something is fishy, you better believe it!
- **8864**: Just a minute! I completely forgot. To climb the towerrr in Sauromugue Champaign, you need to have $1.
- **8865**: But even if you have one, you won't be getting up that tower if you're a fat cat!
- **8872**: Ow, I hurt... What use is beauty in thieving? My m-muscles are so sore!
- **8882**: Don't rrrush into anything just yet. There's something wrong. Vauderame hasn't made a move yet.
- **8883**: If he had made some sort of deal with the brigands, you would think they would get together somewhere first, then head off to get the treasure.
- **8894**: A nation with allegiance to San d'Oria, ruled by Marquis Altedour... It's supposed to lie farrr to the west of here...
- **8895**: Anyway, let's put the geography lesson aside and go pull the rrrug out from under the Tenshodo! Things have started to get interesting...
- **8910**: What's all the fuss about? You've brrroken the code!? Terrrific!
- **8913**: Thanks for looking after the top cat. If something happened to her, we'd just go back to being a couple of strrrays.

## Events

### Event 65535

#### Metadata

| Field        | Value   |
|--------------|---------|
| Entrypoint   | 0x0000  |
| Data Size    | 1 bytes |
| Instructions | 1       |

```
      00 01 02 03 04 05 06 07  08 09 0A 0B 0C 0D 0E 0F
      -- -- -- -- -- -- -- --  -- -- -- -- -- -- -- --
0000: 00                                                .               
```

#### Opcodes

```
  0: 0x0000 [0x00] END_REQSTACK()
```

### Event 65535.1

#### Metadata

| Field        | Value    |
|--------------|----------|
| Entrypoint   | 0x0001   |
| Data Size    | 16 bytes |
| Instructions | 2        |

```
      00 01 02 03 04 05 06 07  08 09 0A 0B 0C 0D 0E 0F
      -- -- -- -- -- -- -- --  -- -- -- -- -- -- -- --
0000:    5B 00 80 F8 FF FF 7F  F8 FF FF 7F 74 6C 6B 30   [..........tlk0
0010: 00                                                .               
```

#### Opcodes

```
  0: 0x0001 [0x5B] LOAD_EXT_SCHEDULER: Load scheduler "tlk0" with entities [EventEntity, EventEntity], work=359*
  1: 0x0010 [0x00] END_REQSTACK()
```

### Event 65535.2

#### Metadata

| Field        | Value   |
|--------------|---------|
| Entrypoint   | 0x0011  |
| Data Size    | 9 bytes |
| Instructions | 3       |

```
      00 01 02 03 04 05 06 07  08 09 0A 0B 0C 0D 0E 0F
      -- -- -- -- -- -- -- --  -- -- -- -- -- -- -- --
0010:    5E 69 64 6C 30 1C 01  80 00                     ^idl0....      
```

#### Opcodes

```
  0: 0x0011 [0x5E] EventEntity goes idle (kills current action) (animation: "idl0")
  1: 0x0016 [0x1C] WAIT(30* ticks)
  2: 0x0019 [0x00] END_REQSTACK()
```

### Event 78

#### Metadata

| Field        | Value    |
|--------------|----------|
| Entrypoint   | 0x001A   |
| Data Size    | 33 bytes |
| Instructions | 12       |

```
      00 01 02 03 04 05 06 07  08 09 0A 0B 0C 0D 0E 0F
      -- -- -- -- -- -- -- --  -- -- -- -- -- -- -- --
0010:                                1E F0 FF FF 7F 6F            .....o
0020: 70 29 08 74 10 0F 01 01  1D 02 80 23 1D 03 80 23  p).t.......#...#
0030: 29 08 74 10 0F 01 02 20  00 21 00                 ).t.... .!.     
```

#### Opcodes

```
  0: 0x001A [0x1E] EventEntity looks at LocalPlayer and starts talking
  1: 0x001F [0x6F] WAIT_FRAME_DELAY: Yield until WaitTime reaches zero
  2: 0x0020 [0x70] WAIT_ENTITY_RENDER_FLAG: Wait while EventEntity->Render.Flags3 bit 2 is set (cancel turn if not)
  3: 0x0021 [0x29] REQ_SET_WAIT(priority=0x08, entity_id=Cha Lebagta (ID: 17764468/0x010F1074), tag_num=0x01)
  4: 0x0028 [0x1D] PRINT_EVENT_MESSAGE(message_id=7596*)
    → "We only take orders from the top cat. When she says, "Jump!", we say, "How high?"...and we always land on our feet, of course."
  5: 0x002B [0x23] WAIT_FOR_DIALOG_INTERACTION
  6: 0x002C [0x1D] PRINT_EVENT_MESSAGE(message_id=7597*)
    → "Grrr... You don't seem to understand how harrrd being a member of her gang is, do you?"
  7: 0x002F [0x23] WAIT_FOR_DIALOG_INTERACTION
  8: 0x0030 [0x29] REQ_SET_WAIT(priority=0x08, entity_id=Cha Lebagta (ID: 17764468/0x010F1074), tag_num=0x02)
  9: 0x0037 [0x20] SET_CLI_EVENT_UC_FLAG: Unlock player control
 10: 0x0039 [0x21] END_EVENT
 11: 0x003A [0x00] END_REQSTACK()
```

### Event 85

#### Metadata

| Field        | Value    |
|--------------|----------|
| Entrypoint   | 0x003B   |
| Data Size    | 29 bytes |
| Instructions | 10       |

```
      00 01 02 03 04 05 06 07  08 09 0A 0B 0C 0D 0E 0F
      -- -- -- -- -- -- -- --  -- -- -- -- -- -- -- --
0030:                                   1E F0 FF FF 7F             .....
0040: 6F 70 29 08 74 10 0F 01  01 1D 04 80 23 29 08 74  op).t.......#).t
0050: 10 0F 01 02 20 00 21 00                           .... .!.        
```

#### Opcodes

```
  0: 0x003B [0x1E] EventEntity looks at LocalPlayer and starts talking
  1: 0x0040 [0x6F] WAIT_FRAME_DELAY: Yield until WaitTime reaches zero
  2: 0x0041 [0x70] WAIT_ENTITY_RENDER_FLAG: Wait while EventEntity->Render.Flags3 bit 2 is set (cancel turn if not)
  3: 0x0042 [0x29] REQ_SET_WAIT(priority=0x08, entity_id=Cha Lebagta (ID: 17764468/0x010F1074), tag_num=0x01)
  4: 0x0049 [0x1D] PRINT_EVENT_MESSAGE(message_id=7609*)
    → "We crrrawled up to the top cat by taking her four $1 each. That's how she accepted us! You think you can match that?"
  5: 0x004C [0x23] WAIT_FOR_DIALOG_INTERACTION
  6: 0x004D [0x29] REQ_SET_WAIT(priority=0x08, entity_id=Cha Lebagta (ID: 17764468/0x010F1074), tag_num=0x02)
  7: 0x0054 [0x20] SET_CLI_EVENT_UC_FLAG: Unlock player control
  8: 0x0056 [0x21] END_EVENT
  9: 0x0057 [0x00] END_REQSTACK()
```

### Event 91

#### Metadata

| Field        | Value    |
|--------------|----------|
| Entrypoint   | 0x0058   |
| Data Size    | 33 bytes |
| Instructions | 12       |

```
      00 01 02 03 04 05 06 07  08 09 0A 0B 0C 0D 0E 0F
      -- -- -- -- -- -- -- --  -- -- -- -- -- -- -- --
0050:                          1E F0 FF FF 7F 6F 70 29          .....op)
0060: 08 74 10 0F 01 01 1D 05  80 23 1D 06 80 23 29 08  .t.......#...#).
0070: 74 10 0F 01 02 20 00 21  00                       t.... .!.       
```

#### Opcodes

```
  0: 0x0058 [0x1E] EventEntity looks at LocalPlayer and starts talking
  1: 0x005D [0x6F] WAIT_FRAME_DELAY: Yield until WaitTime reaches zero
  2: 0x005E [0x70] WAIT_ENTITY_RENDER_FLAG: Wait while EventEntity->Render.Flags3 bit 2 is set (cancel turn if not)
  3: 0x005F [0x29] REQ_SET_WAIT(priority=0x08, entity_id=Cha Lebagta (ID: 17764468/0x010F1074), tag_num=0x01)
  4: 0x0066 [0x1D] PRINT_EVENT_MESSAGE(message_id=7620*)
    → "Humph! You just did as I said and gave the top cat some $1, didn't you?"
  5: 0x0069 [0x23] WAIT_FOR_DIALOG_INTERACTION
  6: 0x006A [0x1D] PRINT_EVENT_MESSAGE(message_id=7621*)
    → "Well, that's just being a copycat! Don't think you're any better than us, or else fur will fly!"
  7: 0x006D [0x23] WAIT_FOR_DIALOG_INTERACTION
  8: 0x006E [0x29] REQ_SET_WAIT(priority=0x08, entity_id=Cha Lebagta (ID: 17764468/0x010F1074), tag_num=0x02)
  9: 0x0075 [0x20] SET_CLI_EVENT_UC_FLAG: Unlock player control
 10: 0x0077 [0x21] END_EVENT
 11: 0x0078 [0x00] END_REQSTACK()
```

### Event 97

#### Metadata

| Field        | Value    |
|--------------|----------|
| Entrypoint   | 0x0079   |
| Data Size    | 29 bytes |
| Instructions | 10       |

```
      00 01 02 03 04 05 06 07  08 09 0A 0B 0C 0D 0E 0F
      -- -- -- -- -- -- -- --  -- -- -- -- -- -- -- --
0070:                             1E F0 FF FF 7F 6F 70           .....op
0080: 29 08 74 10 0F 01 01 1D  07 80 23 29 08 74 10 0F  ).t.......#).t..
0090: 01 02 20 00 21 00                                 .. .!.          
```

#### Opcodes

```
  0: 0x0079 [0x1E] EventEntity looks at LocalPlayer and starts talking
  1: 0x007E [0x6F] WAIT_FRAME_DELAY: Yield until WaitTime reaches zero
  2: 0x007F [0x70] WAIT_ENTITY_RENDER_FLAG: Wait while EventEntity->Render.Flags3 bit 2 is set (cancel turn if not)
  3: 0x0080 [0x29] REQ_SET_WAIT(priority=0x08, entity_id=Cha Lebagta (ID: 17764468/0x010F1074), tag_num=0x01)
  4: 0x0087 [0x1D] PRINT_EVENT_MESSAGE(message_id=7638*)
    → "Seems the top cat herrrself can make mistakes sometimes. Picking pebbles from the pockets of passers-by... My ass-onance! She's got me talking-walking like a Tarutaru now!"
  5: 0x008A [0x23] WAIT_FOR_DIALOG_INTERACTION
  6: 0x008B [0x29] REQ_SET_WAIT(priority=0x08, entity_id=Cha Lebagta (ID: 17764468/0x010F1074), tag_num=0x02)
  7: 0x0092 [0x20] SET_CLI_EVENT_UC_FLAG: Unlock player control
  8: 0x0094 [0x21] END_EVENT
  9: 0x0095 [0x00] END_REQSTACK()
```

### Event 389

#### Metadata

| Field        | Value    |
|--------------|----------|
| Entrypoint   | 0x0096   |
| Data Size    | 29 bytes |
| Instructions | 10       |

```
      00 01 02 03 04 05 06 07  08 09 0A 0B 0C 0D 0E 0F
      -- -- -- -- -- -- -- --  -- -- -- -- -- -- -- --
0090:                   1E F0  FF FF 7F 6F 70 29 08 74        .....op).t
00A0: 10 0F 01 01 1D 08 80 23  29 08 74 10 0F 01 02 20  .......#).t.... 
00B0: 00 21 00                                          .!.             
```

#### Opcodes

```
  0: 0x0096 [0x1E] EventEntity looks at LocalPlayer and starts talking
  1: 0x009B [0x6F] WAIT_FRAME_DELAY: Yield until WaitTime reaches zero
  2: 0x009C [0x70] WAIT_ENTITY_RENDER_FLAG: Wait while EventEntity->Render.Flags3 bit 2 is set (cancel turn if not)
  3: 0x009D [0x29] REQ_SET_WAIT(priority=0x08, entity_id=Cha Lebagta (ID: 17764468/0x010F1074), tag_num=0x01)
  4: 0x00A4 [0x1D] PRINT_EVENT_MESSAGE(message_id=8444*)
    → "Oo`h... Aa`h... Ou`ch...! I don't think our last burrrglary was such a good idea. The wounds where I was bitten by the you-know-what still ache, not to mention my back from carrying that heavy box I put it in."
  5: 0x00A7 [0x23] WAIT_FOR_DIALOG_INTERACTION
  6: 0x00A8 [0x29] REQ_SET_WAIT(priority=0x08, entity_id=Cha Lebagta (ID: 17764468/0x010F1074), tag_num=0x02)
  7: 0x00AF [0x20] SET_CLI_EVENT_UC_FLAG: Unlock player control
  8: 0x00B1 [0x21] END_EVENT
  9: 0x00B2 [0x00] END_REQSTACK()
```

### Event 168

#### Metadata

| Field        | Value    |
|--------------|----------|
| Entrypoint   | 0x00B3   |
| Data Size    | 37 bytes |
| Instructions | 14       |

```
      00 01 02 03 04 05 06 07  08 09 0A 0B 0C 0D 0E 0F
      -- -- -- -- -- -- -- --  -- -- -- -- -- -- -- --
00B0:          1E F0 FF FF 7F  6F 70 29 08 74 10 0F 01     .....op).t...
00C0: 01 1D 09 80 23 1D 0A 80  23 1D 0B 80 23 29 08 74  ....#...#...#).t
00D0: 10 0F 01 02 20 00 21 00                           .... .!.        
```

#### Opcodes

```
  0: 0x00B3 [0x1E] EventEntity looks at LocalPlayer and starts talking
  1: 0x00B8 [0x6F] WAIT_FRAME_DELAY: Yield until WaitTime reaches zero
  2: 0x00B9 [0x70] WAIT_ENTITY_RENDER_FLAG: Wait while EventEntity->Render.Flags3 bit 2 is set (cancel turn if not)
  3: 0x00BA [0x29] REQ_SET_WAIT(priority=0x08, entity_id=Cha Lebagta (ID: 17764468/0x010F1074), tag_num=0x01)
  4: 0x00C1 [0x1D] PRINT_EVENT_MESSAGE(message_id=7836*)
    → "Hah! If you want the book we found, then you'rrre in for some major wheeling and dealing with the top cat, arrren't you, now?"
  5: 0x00C4 [0x23] WAIT_FOR_DIALOG_INTERACTION
  6: 0x00C5 [0x1D] PRINT_EVENT_MESSAGE(message_id=7837*)
    → "Why's that, you say? Well, even that greedy, rich merrrchant from Windurst Waters is... Oops!"
  7: 0x00C8 [0x23] WAIT_FOR_DIALOG_INTERACTION
  8: 0x00C9 [0x1D] PRINT_EVENT_MESSAGE(message_id=7838*)
    → "Ignore what I just said. I'll make lute strings out of your guts if you tell anyone what I just let slip!"
  9: 0x00CC [0x23] WAIT_FOR_DIALOG_INTERACTION
 10: 0x00CD [0x29] REQ_SET_WAIT(priority=0x08, entity_id=Cha Lebagta (ID: 17764468/0x010F1074), tag_num=0x02)
 11: 0x00D4 [0x20] SET_CLI_EVENT_UC_FLAG: Unlock player control
 12: 0x00D6 [0x21] END_EVENT
 13: 0x00D7 [0x00] END_REQSTACK()
```

### Event 172

#### Metadata

| Field        | Value    |
|--------------|----------|
| Entrypoint   | 0x00D8   |
| Data Size    | 29 bytes |
| Instructions | 10       |

```
      00 01 02 03 04 05 06 07  08 09 0A 0B 0C 0D 0E 0F
      -- -- -- -- -- -- -- --  -- -- -- -- -- -- -- --
00D0:                          1E F0 FF FF 7F 6F 70 29          .....op)
00E0: 08 74 10 0F 01 01 1D 0C  80 23 29 08 74 10 0F 01  .t.......#).t...
00F0: 02 20 00 21 00                                    . .!.           
```

#### Opcodes

```
  0: 0x00D8 [0x1E] EventEntity looks at LocalPlayer and starts talking
  1: 0x00DD [0x6F] WAIT_FRAME_DELAY: Yield until WaitTime reaches zero
  2: 0x00DE [0x70] WAIT_ENTITY_RENDER_FLAG: Wait while EventEntity->Render.Flags3 bit 2 is set (cancel turn if not)
  3: 0x00DF [0x29] REQ_SET_WAIT(priority=0x08, entity_id=Cha Lebagta (ID: 17764468/0x010F1074), tag_num=0x01)
  4: 0x00E6 [0x1D] PRINT_EVENT_MESSAGE(message_id=7844*)
    → "You should alrrready know this, but don't you dare tell anyone about the little deal we'll be making. You'll have a cat in hell's chance of living if you spill the beans on us."
  5: 0x00E9 [0x23] WAIT_FOR_DIALOG_INTERACTION
  6: 0x00EA [0x29] REQ_SET_WAIT(priority=0x08, entity_id=Cha Lebagta (ID: 17764468/0x010F1074), tag_num=0x02)
  7: 0x00F1 [0x20] SET_CLI_EVENT_UC_FLAG: Unlock player control
  8: 0x00F3 [0x21] END_EVENT
  9: 0x00F4 [0x00] END_REQSTACK()
```

### Event 175

#### Metadata

| Field        | Value    |
|--------------|----------|
| Entrypoint   | 0x00F5   |
| Data Size    | 33 bytes |
| Instructions | 12       |

```
      00 01 02 03 04 05 06 07  08 09 0A 0B 0C 0D 0E 0F
      -- -- -- -- -- -- -- --  -- -- -- -- -- -- -- --
00F0:                1E F0 FF  FF 7F 6F 70 29 08 74 10       .....op).t.
0100: 0F 01 01 1D 0D 80 23 1D  0E 80 23 29 08 74 10 0F  ......#...#).t..
0110: 01 02 20 00 21 00                                 .. .!.          
```

#### Opcodes

```
  0: 0x00F5 [0x1E] EventEntity looks at LocalPlayer and starts talking
  1: 0x00FA [0x6F] WAIT_FRAME_DELAY: Yield until WaitTime reaches zero
  2: 0x00FB [0x70] WAIT_ENTITY_RENDER_FLAG: Wait while EventEntity->Render.Flags3 bit 2 is set (cancel turn if not)
  3: 0x00FC [0x29] REQ_SET_WAIT(priority=0x08, entity_id=Cha Lebagta (ID: 17764468/0x010F1074), tag_num=0x01)
  4: 0x0103 [0x1D] PRINT_EVENT_MESSAGE(message_id=7848*)
    → "I meowed her once, I meowed her a thousand times. We should stop putting our paws on anything that smells of Carrrdians."
  5: 0x0106 [0x23] WAIT_FOR_DIALOG_INTERACTION
  6: 0x0107 [0x1D] PRINT_EVENT_MESSAGE(message_id=7849*)
    → "I neverrr want to go through that sorrrt of thing again!"
  7: 0x010A [0x23] WAIT_FOR_DIALOG_INTERACTION
  8: 0x010B [0x29] REQ_SET_WAIT(priority=0x08, entity_id=Cha Lebagta (ID: 17764468/0x010F1074), tag_num=0x02)
  9: 0x0112 [0x20] SET_CLI_EVENT_UC_FLAG: Unlock player control
 10: 0x0114 [0x21] END_EVENT
 11: 0x0115 [0x00] END_REQSTACK()
```

### Event 501

#### Metadata

| Field        | Value    |
|--------------|----------|
| Entrypoint   | 0x0116   |
| Data Size    | 29 bytes |
| Instructions | 10       |

```
      00 01 02 03 04 05 06 07  08 09 0A 0B 0C 0D 0E 0F
      -- -- -- -- -- -- -- --  -- -- -- -- -- -- -- --
0110:                   1E F0  FF FF 7F 6F 70 29 08 74        .....op).t
0120: 10 0F 01 01 1D 0F 80 23  29 08 74 10 0F 01 02 20  .......#).t.... 
0130: 00 21 00                                          .!.             
```

#### Opcodes

```
  0: 0x0116 [0x1E] EventEntity looks at LocalPlayer and starts talking
  1: 0x011B [0x6F] WAIT_FRAME_DELAY: Yield until WaitTime reaches zero
  2: 0x011C [0x70] WAIT_ENTITY_RENDER_FLAG: Wait while EventEntity->Render.Flags3 bit 2 is set (cancel turn if not)
  3: 0x011D [0x29] REQ_SET_WAIT(priority=0x08, entity_id=Cha Lebagta (ID: 17764468/0x010F1074), tag_num=0x01)
  4: 0x0124 [0x1D] PRINT_EVENT_MESSAGE(message_id=8825*)
    → "Ahh, Jeuno... How long has it been since I last got my paws into the pockets of those bigwigs?"
  5: 0x0127 [0x23] WAIT_FOR_DIALOG_INTERACTION
  6: 0x0128 [0x29] REQ_SET_WAIT(priority=0x08, entity_id=Cha Lebagta (ID: 17764468/0x010F1074), tag_num=0x02)
  7: 0x012F [0x20] SET_CLI_EVENT_UC_FLAG: Unlock player control
  8: 0x0131 [0x21] END_EVENT
  9: 0x0132 [0x00] END_REQSTACK()
```

### Event 502

#### Metadata

| Field        | Value    |
|--------------|----------|
| Entrypoint   | 0x0133   |
| Data Size    | 29 bytes |
| Instructions | 10       |

```
      00 01 02 03 04 05 06 07  08 09 0A 0B 0C 0D 0E 0F
      -- -- -- -- -- -- -- --  -- -- -- -- -- -- -- --
0130:          1E F0 FF FF 7F  6F 70 29 08 74 10 0F 01     .....op).t...
0140: 01 1D 10 80 23 29 08 74  10 0F 01 02 20 00 21 00  ....#).t.... .!.
```

#### Opcodes

```
  0: 0x0133 [0x1E] EventEntity looks at LocalPlayer and starts talking
  1: 0x0138 [0x6F] WAIT_FRAME_DELAY: Yield until WaitTime reaches zero
  2: 0x0139 [0x70] WAIT_ENTITY_RENDER_FLAG: Wait while EventEntity->Render.Flags3 bit 2 is set (cancel turn if not)
  3: 0x013A [0x29] REQ_SET_WAIT(priority=0x08, entity_id=Cha Lebagta (ID: 17764468/0x010F1074), tag_num=0x01)
  4: 0x0141 [0x1D] PRINT_EVENT_MESSAGE(message_id=8830*)
    → "<Sigh> The top cat can surrre be difficult at times..."
  5: 0x0144 [0x23] WAIT_FOR_DIALOG_INTERACTION
  6: 0x0145 [0x29] REQ_SET_WAIT(priority=0x08, entity_id=Cha Lebagta (ID: 17764468/0x010F1074), tag_num=0x02)
  7: 0x014C [0x20] SET_CLI_EVENT_UC_FLAG: Unlock player control
  8: 0x014E [0x21] END_EVENT
  9: 0x014F [0x00] END_REQSTACK()
```

### Event 504

#### Metadata

| Field        | Value   |
|--------------|---------|
| Entrypoint   | 0x0150  |
| Data Size    | 1 bytes |
| Instructions | 1       |

```
      00 01 02 03 04 05 06 07  08 09 0A 0B 0C 0D 0E 0F
      -- -- -- -- -- -- -- --  -- -- -- -- -- -- -- --
0150: 00                                                .               
```

#### Opcodes

```
  0: 0x0150 [0x00] END_REQSTACK()
```

### Event 65535.3

#### Metadata

| Field        | Value    |
|--------------|----------|
| Entrypoint   | 0x0151   |
| Data Size    | 10 bytes |
| Instructions | 2        |

```
      00 01 02 03 04 05 06 07  08 09 0A 0B 0C 0D 0E 0F
      -- -- -- -- -- -- -- --  -- -- -- -- -- -- -- --
0150:    37 11 80 12 80 13 80  14 80 00                  7.........     
```

#### Opcodes

```
  0: 0x0151 [0x37] UPDATE_EVENT_POSITION_AND_DIR: x=56.363*, z=238.145*, y=-5.189*, direction=357.1°*
  1: 0x015A [0x00] END_REQSTACK()
```

### Event 65535.4

#### Metadata

| Field        | Value    |
|--------------|----------|
| Entrypoint   | 0x015B   |
| Data Size    | 19 bytes |
| Instructions | 5        |

```
      00 01 02 03 04 05 06 07  08 09 0A 0B 0C 0D 0E 0F
      -- -- -- -- -- -- -- --  -- -- -- -- -- -- -- --
0150:                                   32 15 80 1F 00             2....
0160: 16 80 17 80 18 80 1F 01  1E 72 10 0F 01 00        .........r....  
```

#### Opcodes

```
  0: 0x015B [0x32] ExtData[1]->MainSpeed = 13* * 0.1
  1: 0x015E [0x1F] MOVE_ENTITY: EventEntity moves to X=62.000*, Z=239.000*, Y=-4.749*
  2: 0x0166 [0x1F] MOVE_ENTITY: Update entity position (mode=1)
  3: 0x0168 [0x1E] EventEntity looks at Nanaa Mihgo (ID: 17764466/0x010F1072) and starts talking
  4: 0x016D [0x00] END_REQSTACK()
```

### Event 65535.5

#### Metadata

| Field        | Value   |
|--------------|---------|
| Entrypoint   | 0x016E  |
| Data Size    | 5 bytes |
| Instructions | 3       |

```
      00 01 02 03 04 05 06 07  08 09 0A 0B 0C 0D 0E 0F
      -- -- -- -- -- -- -- --  -- -- -- -- -- -- -- --
0160:                                            1D 19                ..
0170: 80 23 00                                          .#.             
```

#### Opcodes

```
  0: 0x016E [0x1D] PRINT_EVENT_MESSAGE(message_id=8858*)
    → "If the top cat says something is fishy, you better believe it!"
  1: 0x0171 [0x23] WAIT_FOR_DIALOG_INTERACTION
  2: 0x0172 [0x00] END_REQSTACK()
```

### Event 507

#### Metadata

| Field        | Value    |
|--------------|----------|
| Entrypoint   | 0x0173   |
| Data Size    | 19 bytes |
| Instructions | 10       |

```
      00 01 02 03 04 05 06 07  08 09 0A 0B 0C 0D 0E 0F
      -- -- -- -- -- -- -- --  -- -- -- -- -- -- -- --
0170:          1E F0 FF FF 7F  6F 70 1D 1A 80 23 1D 1B     .....op...#..
0180: 80 23 20 00 21 00                                 .# .!.          
```

#### Opcodes

```
  0: 0x0173 [0x1E] EventEntity looks at LocalPlayer and starts talking
  1: 0x0178 [0x6F] WAIT_FRAME_DELAY: Yield until WaitTime reaches zero
  2: 0x0179 [0x70] WAIT_ENTITY_RENDER_FLAG: Wait while EventEntity->Render.Flags3 bit 2 is set (cancel turn if not)
  3: 0x017A [0x1D] PRINT_EVENT_MESSAGE(message_id=8864*)
    → "Just a minute! I completely forgot. To climb the towerrr in Sauromugue Champaign, you need to have $1."
  4: 0x017D [0x23] WAIT_FOR_DIALOG_INTERACTION
  5: 0x017E [0x1D] PRINT_EVENT_MESSAGE(message_id=8865*)
    → "But even if you have one, you won't be getting up that tower if you're a fat cat!"
  6: 0x0181 [0x23] WAIT_FOR_DIALOG_INTERACTION
  7: 0x0182 [0x20] SET_CLI_EVENT_UC_FLAG: Unlock player control
  8: 0x0184 [0x21] END_EVENT
  9: 0x0185 [0x00] END_REQSTACK()
```

### Event 511

#### Metadata

| Field        | Value    |
|--------------|----------|
| Entrypoint   | 0x0186   |
| Data Size    | 15 bytes |
| Instructions | 8        |

```
      00 01 02 03 04 05 06 07  08 09 0A 0B 0C 0D 0E 0F
      -- -- -- -- -- -- -- --  -- -- -- -- -- -- -- --
0180:                   1E F0  FF FF 7F 6F 70 1D 1C 80        .....op...
0190: 23 20 00 21 00                                    # .!.           
```

#### Opcodes

```
  0: 0x0186 [0x1E] EventEntity looks at LocalPlayer and starts talking
  1: 0x018B [0x6F] WAIT_FRAME_DELAY: Yield until WaitTime reaches zero
  2: 0x018C [0x70] WAIT_ENTITY_RENDER_FLAG: Wait while EventEntity->Render.Flags3 bit 2 is set (cancel turn if not)
  3: 0x018D [0x1D] PRINT_EVENT_MESSAGE(message_id=8872*)
    → "Ow, I hurt... What use is beauty in thieving? My m-muscles are so sore!"
  4: 0x0190 [0x23] WAIT_FOR_DIALOG_INTERACTION
  5: 0x0191 [0x20] SET_CLI_EVENT_UC_FLAG: Unlock player control
  6: 0x0193 [0x21] END_EVENT
  7: 0x0194 [0x00] END_REQSTACK()
```

### Event 512

#### Metadata

| Field        | Value   |
|--------------|---------|
| Entrypoint   | 0x0195  |
| Data Size    | 1 bytes |
| Instructions | 1       |

```
      00 01 02 03 04 05 06 07  08 09 0A 0B 0C 0D 0E 0F
      -- -- -- -- -- -- -- --  -- -- -- -- -- -- -- --
0190:                00                                      .          
```

#### Opcodes

```
  0: 0x0195 [0x00] END_REQSTACK()
```

### Event 516

#### Metadata

| Field        | Value   |
|--------------|---------|
| Entrypoint   | 0x0196  |
| Data Size    | 1 bytes |
| Instructions | 1       |

```
      00 01 02 03 04 05 06 07  08 09 0A 0B 0C 0D 0E 0F
      -- -- -- -- -- -- -- --  -- -- -- -- -- -- -- --
0190:                   00                                    .         
```

#### Opcodes

```
  0: 0x0196 [0x00] END_REQSTACK()
```

### Event 65535.6

#### Metadata

| Field        | Value   |
|--------------|---------|
| Entrypoint   | 0x0197  |
| Data Size    | 9 bytes |
| Instructions | 5       |

```
      00 01 02 03 04 05 06 07  08 09 0A 0B 0C 0D 0E 0F
      -- -- -- -- -- -- -- --  -- -- -- -- -- -- -- --
0190:                      1D  1D 80 23 1D 1E 80 23 00         ...#...#.
```

#### Opcodes

```
  0: 0x0197 [0x1D] PRINT_EVENT_MESSAGE(message_id=8882*)
    → "Don't rrrush into anything just yet. There's something wrong. Vauderame hasn't made a move yet."
  1: 0x019A [0x23] WAIT_FOR_DIALOG_INTERACTION
  2: 0x019B [0x1D] PRINT_EVENT_MESSAGE(message_id=8883*)
    → "If he had made some sort of deal with the brigands, you would think they would get together somewhere first, then head off to get the treasure."
  3: 0x019E [0x23] WAIT_FOR_DIALOG_INTERACTION
  4: 0x019F [0x00] END_REQSTACK()
```

### Event 514

#### Metadata

| Field        | Value    |
|--------------|----------|
| Entrypoint   | 0x01A0   |
| Data Size    | 19 bytes |
| Instructions | 10       |

```
      00 01 02 03 04 05 06 07  08 09 0A 0B 0C 0D 0E 0F
      -- -- -- -- -- -- -- --  -- -- -- -- -- -- -- --
01A0: 1E F0 FF FF 7F 6F 70 1D  1F 80 23 1D 20 80 23 20  .....op...#. .# 
01B0: 00 21 00                                          .!.             
```

#### Opcodes

```
  0: 0x01A0 [0x1E] EventEntity looks at LocalPlayer and starts talking
  1: 0x01A5 [0x6F] WAIT_FRAME_DELAY: Yield until WaitTime reaches zero
  2: 0x01A6 [0x70] WAIT_ENTITY_RENDER_FLAG: Wait while EventEntity->Render.Flags3 bit 2 is set (cancel turn if not)
  3: 0x01A7 [0x1D] PRINT_EVENT_MESSAGE(message_id=8894*)
    → "A nation with allegiance to San d'Oria, ruled by Marquis Altedour... It's supposed to lie farrr to the west of here..."
  4: 0x01AA [0x23] WAIT_FOR_DIALOG_INTERACTION
  5: 0x01AB [0x1D] PRINT_EVENT_MESSAGE(message_id=8895*)
    → "Anyway, let's put the geography lesson aside and go pull the rrrug out from under the Tenshodo! Things have started to get interesting..."
  6: 0x01AE [0x23] WAIT_FOR_DIALOG_INTERACTION
  7: 0x01AF [0x20] SET_CLI_EVENT_UC_FLAG: Unlock player control
  8: 0x01B1 [0x21] END_EVENT
  9: 0x01B2 [0x00] END_REQSTACK()
```

### Event 518

#### Metadata

| Field        | Value    |
|--------------|----------|
| Entrypoint   | 0x01B3   |
| Data Size    | 15 bytes |
| Instructions | 8        |

```
      00 01 02 03 04 05 06 07  08 09 0A 0B 0C 0D 0E 0F
      -- -- -- -- -- -- -- --  -- -- -- -- -- -- -- --
01B0:          1E F0 FF FF 7F  6F 70 1D 21 80 23 20 00     .....op.!.# .
01C0: 21 00                                             !.              
```

#### Opcodes

```
  0: 0x01B3 [0x1E] EventEntity looks at LocalPlayer and starts talking
  1: 0x01B8 [0x6F] WAIT_FRAME_DELAY: Yield until WaitTime reaches zero
  2: 0x01B9 [0x70] WAIT_ENTITY_RENDER_FLAG: Wait while EventEntity->Render.Flags3 bit 2 is set (cancel turn if not)
  3: 0x01BA [0x1D] PRINT_EVENT_MESSAGE(message_id=8910*)
    → "What's all the fuss about? You've brrroken the code!? Terrrific!"
  4: 0x01BD [0x23] WAIT_FOR_DIALOG_INTERACTION
  5: 0x01BE [0x20] SET_CLI_EVENT_UC_FLAG: Unlock player control
  6: 0x01C0 [0x21] END_EVENT
  7: 0x01C1 [0x00] END_REQSTACK()
```

### Event 521

#### Metadata

| Field        | Value    |
|--------------|----------|
| Entrypoint   | 0x01C2   |
| Data Size    | 15 bytes |
| Instructions | 8        |

```
      00 01 02 03 04 05 06 07  08 09 0A 0B 0C 0D 0E 0F
      -- -- -- -- -- -- -- --  -- -- -- -- -- -- -- --
01C0:       1E F0 FF FF 7F 6F  70 1D 22 80 23 20 00 21    .....op.".# .!
01D0: 00                                                .               
```

#### Opcodes

```
  0: 0x01C2 [0x1E] EventEntity looks at LocalPlayer and starts talking
  1: 0x01C7 [0x6F] WAIT_FRAME_DELAY: Yield until WaitTime reaches zero
  2: 0x01C8 [0x70] WAIT_ENTITY_RENDER_FLAG: Wait while EventEntity->Render.Flags3 bit 2 is set (cancel turn if not)
  3: 0x01C9 [0x1D] PRINT_EVENT_MESSAGE(message_id=8913*)
    → "Thanks for looking after the top cat. If something happened to her, we'd just go back to being a couple of strrrays."
  4: 0x01CC [0x23] WAIT_FOR_DIALOG_INTERACTION
  5: 0x01CD [0x20] SET_CLI_EVENT_UC_FLAG: Unlock player control
  6: 0x01CF [0x21] END_EVENT
  7: 0x01D0 [0x00] END_REQSTACK()
```
