# 17764442

## Common Data

| Field            | Value                    |
|------------------|--------------------------|
| Zone             | Windurst Woods (ID: 241) |
| Block Size       | 17140 bytes              |
| Total Events     | 149                      |
| References Count | 203                      |

## List of Events

| Event ID                     | Entrypoint   |   Size |   Instructions |
|------------------------------|--------------|--------|----------------|
| [65535](#event-65535)        | 0x0000       |      1 |              1 |
| [746](#event-746)            | 0x0001       |      1 |              1 |
| [742](#event-742)            | 0x0002       |      1 |              1 |
| [65535.1](#event-655351)     | 0x0003       |     12 |              3 |
| [65535.2](#event-655352)     | 0x000F       |      3 |              2 |
| [65535.3](#event-655353)     | 0x0012       |     10 |              2 |
| [766](#event-766)            | 0x001C       |    308 |             37 |
| [65535.4](#event-655354)     | 0x0150       |    184 |             24 |
| [65535.5](#event-655355)     | 0x0208       |     71 |             12 |
| [65535.6](#event-655356)     | 0x024F       |    129 |             15 |
| [65535.7](#event-655357)     | 0x02D0       |    190 |             20 |
| [65535.8](#event-655358)     | 0x038E       |    244 |             29 |
| [65535.9](#event-655359)     | 0x0482       |    311 |             33 |
| [65535.10](#event-6553510)   | 0x05B9       |    104 |             14 |
| [65535.11](#event-6553511)   | 0x0621       |    186 |             22 |
| [65535.12](#event-6553512)   | 0x06DB       |    166 |             18 |
| [65535.13](#event-6553513)   | 0x0781       |    176 |             20 |
| [65535.14](#event-6553514)   | 0x0831       |     98 |             15 |
| [65535.15](#event-6553515)   | 0x0893       |    191 |             27 |
| [65535.16](#event-6553516)   | 0x0952       |    180 |             20 |
| [65535.17](#event-6553517)   | 0x0A06       |    186 |             27 |
| [65535.18](#event-6553518)   | 0x0AC0       |    165 |             19 |
| [65535.19](#event-6553519)   | 0x0B65       |    165 |             19 |
| [65535.20](#event-6553520)   | 0x0C0A       |    165 |             19 |
| [65535.21](#event-6553521)   | 0x0CAF       |    193 |             25 |
| [65535.22](#event-6553522)   | 0x0D70       |    165 |             19 |
| [65535.23](#event-6553523)   | 0x0E15       |    165 |             19 |
| [65535.24](#event-6553524)   | 0x0EBA       |    165 |             19 |
| [65535.25](#event-6553525)   | 0x0F5F       |    165 |             19 |
| [65535.26](#event-6553526)   | 0x1004       |    165 |             19 |
| [65535.27](#event-6553527)   | 0x10A9       |    165 |             19 |
| [65535.28](#event-6553528)   | 0x114E       |    165 |             19 |
| [65535.29](#event-6553529)   | 0x11F3       |    173 |             21 |
| [65535.30](#event-6553530)   | 0x12A0       |    165 |             19 |
| [65535.31](#event-6553531)   | 0x1345       |    170 |             20 |
| [65535.32](#event-6553532)   | 0x13EF       |     60 |             11 |
| [65535.33](#event-6553533)   | 0x142B       |    472 |             64 |
| [65535.34](#event-6553534)   | 0x1603       |    188 |             22 |
| [65535.35](#event-6553535)   | 0x16BF       |    279 |             32 |
| [65535.36](#event-6553536)   | 0x17D6       |    198 |             20 |
| [65535.37](#event-6553537)   | 0x189C       |    324 |             36 |
| [65535.38](#event-6553538)   | 0x19E0       |    147 |             17 |
| [65535.39](#event-6553539)   | 0x1A73       |    331 |             42 |
| [65535.40](#event-6553540)   | 0x1BBE       |    235 |             25 |
| [65535.41](#event-6553541)   | 0x1CA9       |    296 |             30 |
| [65535.42](#event-6553542)   | 0x1DD1       |    245 |             23 |
| [65535.43](#event-6553543)   | 0x1EC6       |    367 |             41 |
| [65535.44](#event-6553544)   | 0x2035       |     88 |             12 |
| [65535.45](#event-6553545)   | 0x208D       |     66 |             13 |
| [65535.46](#event-6553546)   | 0x20CF       |    367 |             43 |
| [65535.47](#event-6553547)   | 0x223E       |     75 |             11 |
| [65535.48](#event-6553548)   | 0x2289       |    140 |             18 |
| [65535.49](#event-6553549)   | 0x2315       |    152 |             19 |
| [65535.50](#event-6553550)   | 0x23AD       |    154 |             19 |
| [65535.51](#event-6553551)   | 0x2447       |     99 |             12 |
| [65535.52](#event-6553552)   | 0x24AA       |    141 |             20 |
| [65535.53](#event-6553553)   | 0x2537       |    205 |             31 |
| [65535.54](#event-6553554)   | 0x2604       |    196 |             29 |
| [65535.55](#event-6553555)   | 0x26C8       |     57 |             11 |
| [65535.56](#event-6553556)   | 0x2701       |    103 |             13 |
| [65535.57](#event-6553557)   | 0x2768       |     74 |             14 |
| [65535.58](#event-6553558)   | 0x27B2       |     65 |             11 |
| [65535.59](#event-6553559)   | 0x27F3       |     48 |             10 |
| [65535.60](#event-6553560)   | 0x2823       |     48 |             10 |
| [65535.61](#event-6553561)   | 0x2853       |     48 |             10 |
| [65535.62](#event-6553562)   | 0x2883       |     74 |             14 |
| [65535.63](#event-6553563)   | 0x28CD       |    103 |             13 |
| [65535.64](#event-6553564)   | 0x2934       |     79 |             14 |
| [65535.65](#event-6553565)   | 0x2983       |     79 |             14 |
| [65535.66](#event-6553566)   | 0x29D2       |    110 |             17 |
| [65535.67](#event-6553567)   | 0x2A40       |     79 |             13 |
| [65535.68](#event-6553568)   | 0x2A8F       |     53 |             11 |
| [65535.69](#event-6553569)   | 0x2AC4       |     53 |             11 |
| [65535.70](#event-6553570)   | 0x2AF9       |     53 |             11 |
| [65535.71](#event-6553571)   | 0x2B2E       |    145 |             21 |
| [65535.72](#event-6553572)   | 0x2BBF       |     92 |             16 |
| [65535.73](#event-6553573)   | 0x2C1B       |     84 |             14 |
| [65535.74](#event-6553574)   | 0x2C6F       |     74 |             13 |
| [65535.75](#event-6553575)   | 0x2CB9       |    156 |             20 |
| [65535.76](#event-6553576)   | 0x2D55       |    119 |             14 |
| [65535.77](#event-6553577)   | 0x2DCC       |    146 |             20 |
| [65535.78](#event-6553578)   | 0x2E5E       |    189 |             23 |
| [65535.79](#event-6553579)   | 0x2F1B       |    186 |             30 |
| [65535.80](#event-6553580)   | 0x2FD5       |    138 |             19 |
| [65535.81](#event-6553581)   | 0x305F       |     10 |              2 |
| [65535.82](#event-6553582)   | 0x3069       |     10 |              2 |
| [65535.83](#event-6553583)   | 0x3073       |     10 |              2 |
| [65535.84](#event-6553584)   | 0x307D       |     10 |              2 |
| [65535.85](#event-6553585)   | 0x3087       |     10 |              2 |
| [65535.86](#event-6553586)   | 0x3091       |     10 |              2 |
| [65535.87](#event-6553587)   | 0x309B       |     60 |              9 |
| [65535.88](#event-6553588)   | 0x30D7       |     66 |             11 |
| [65535.89](#event-6553589)   | 0x3119       |     66 |             11 |
| [65535.90](#event-6553590)   | 0x315B       |     66 |             11 |
| [65535.91](#event-6553591)   | 0x319D       |     66 |             11 |
| [65535.92](#event-6553592)   | 0x31DF       |     66 |             11 |
| [65535.93](#event-6553593)   | 0x3221       |     66 |             11 |
| [65535.94](#event-6553594)   | 0x3263       |     66 |             11 |
| [65535.95](#event-6553595)   | 0x32A5       |     66 |             11 |
| [65535.96](#event-6553596)   | 0x32E7       |     23 |              7 |
| [65535.97](#event-6553597)   | 0x32FE       |     15 |              5 |
| [65535.98](#event-6553598)   | 0x330D       |     15 |              5 |
| [65535.99](#event-6553599)   | 0x331C       |     15 |              5 |
| [65535.100](#event-65535100) | 0x332B       |     23 |              7 |
| [65535.101](#event-65535101) | 0x3342       |     15 |              5 |
| [65535.102](#event-65535102) | 0x3351       |     15 |              5 |
| [65535.103](#event-65535103) | 0x3360       |      9 |              3 |
| [65535.104](#event-65535104) | 0x3369       |     15 |              5 |
| [65535.105](#event-65535105) | 0x3378       |     15 |              5 |
| [65535.106](#event-65535106) | 0x3387       |     15 |              5 |
| [65535.107](#event-65535107) | 0x3396       |      9 |              3 |
| [65535.108](#event-65535108) | 0x339F       |     15 |              5 |
| [65535.109](#event-65535109) | 0x33AE       |     15 |              5 |
| [65535.110](#event-65535110) | 0x33BD       |     15 |              5 |
| [65535.111](#event-65535111) | 0x33CC       |     15 |              5 |
| [65535.112](#event-65535112) | 0x33DB       |     15 |              5 |
| [65535.113](#event-65535113) | 0x33EA       |     15 |              5 |
| [65535.114](#event-65535114) | 0x33F9       |      9 |              3 |
| [65535.115](#event-65535115) | 0x3402       |     66 |             11 |
| [65535.116](#event-65535116) | 0x3444       |     68 |             11 |
| [65535.117](#event-65535117) | 0x3488       |     68 |             11 |
| [65535.118](#event-65535118) | 0x34CC       |     66 |             11 |
| [65535.119](#event-65535119) | 0x350E       |     66 |             11 |
| [65535.120](#event-65535120) | 0x3550       |     66 |             11 |
| [65535.121](#event-65535121) | 0x3592       |     66 |             11 |
| [65535.122](#event-65535122) | 0x35D4       |     68 |             11 |
| [65535.123](#event-65535123) | 0x3618       |     66 |             11 |
| [65535.124](#event-65535124) | 0x365A       |     66 |             11 |
| [65535.125](#event-65535125) | 0x369C       |     82 |             15 |
| [65535.126](#event-65535126) | 0x36EE       |     66 |             11 |
| [65535.127](#event-65535127) | 0x3730       |     66 |             11 |
| [65535.128](#event-65535128) | 0x3772       |     66 |             11 |
| [65535.129](#event-65535129) | 0x37B4       |     66 |             11 |
| [65535.130](#event-65535130) | 0x37F6       |     66 |             11 |
| [65535.131](#event-65535131) | 0x3838       |     66 |             11 |
| [65535.132](#event-65535132) | 0x387A       |     66 |             11 |
| [65535.133](#event-65535133) | 0x38BC       |     66 |             11 |
| [65535.134](#event-65535134) | 0x38FE       |     66 |             11 |
| [65535.135](#event-65535135) | 0x3940       |     66 |             11 |
| [65535.136](#event-65535136) | 0x3982       |     66 |             11 |
| [65535.137](#event-65535137) | 0x39C4       |     66 |             11 |
| [65535.138](#event-65535138) | 0x3A06       |     66 |             11 |
| [65535.139](#event-65535139) | 0x3A48       |     66 |             11 |
| [65535.140](#event-65535140) | 0x3A8A       |     68 |             11 |
| [65535.141](#event-65535141) | 0x3ACE       |     66 |             11 |
| [65535.142](#event-65535142) | 0x3B10       |    115 |             23 |
| [752](#event-752)            | 0x3B83       |    332 |             80 |
| [760](#event-760)            | 0x3CCF       |    139 |             34 |
| [751](#event-751)            | 0x3D5A       |     10 |              4 |

## DAT References (imed_data)

|   Index | Hex Value   |   Dec Value |
|---------|-------------|-------------|
|       0 | 0xFFFFD2A8  |  4294955688 |
|       1 | 0xFFFE37C2  |  4294850498 |
|       2 | 0xFFFFFDA8  |  4294966696 |
|       3 | 0x022F      |         559 |
|       4 | 0xFFFFE73A  |  4294960954 |
|       5 | 0xFFFE61AD  |  4294861229 |
|       6 | 0x0577      |        1399 |
|       7 | 0x01C5      |         453 |
|       8 | 0x0000      |           0 |
|       9 | 0x00C8      |         200 |
|      10 | 0x001B      |          27 |
|      11 | 0x01A5      |         421 |
|      12 | 0x00C5      |         197 |
|      13 | 0x003C      |          60 |
|      14 | 0x0031      |          49 |
|      15 | 0x2DAE      |       11694 |
|      16 | 0x2DAF      |       11695 |
|      17 | 0x00F1      |         241 |
|      18 | 0x0001      |           1 |
|      19 | 0x00FE      |         254 |
|      20 | 0x3CAD      |       15533 |
|      21 | 0x2CCE      |       11470 |
|      22 | 0x007C      |         124 |
|      23 | 0x001E      |          30 |
|      24 | 0x2CE1      |       11489 |
|      25 | 0x0368      |         872 |
|      26 | 0x00C9      |         201 |
|      27 | 0x00E0      |         224 |
|      28 | 0x001A      |          26 |
|      29 | 0x0007      |           7 |
|      30 | 0x00DE      |         222 |
|      31 | 0x0078      |         120 |
|      32 | 0x2CE3      |       11491 |
|      33 | 0x00C6      |         198 |
|      34 | 0x00EB      |         235 |
|      35 | 0x2CC3      |       11459 |
|      36 | 0x0326      |         806 |
|      37 | 0x2CC4      |       11460 |
|      38 | 0x2CC0      |       11456 |
|      39 | 0x2CC1      |       11457 |
|      40 | 0x2CF6      |       11510 |
|      41 | 0x2CF9      |       11513 |
|      42 | 0x2CFA      |       11514 |
|      43 | 0x2CBC      |       11452 |
|      44 | 0x2CBD      |       11453 |
|      45 | 0x2CBE      |       11454 |
|      46 | 0x2CBF      |       11455 |
|      47 | 0x2DB9      |       11705 |
|      48 | 0x2CE5      |       11493 |
|      49 | 0x2CE7      |       11495 |
|      50 | 0x2CE9      |       11497 |
|      51 | 0x2CEB      |       11499 |
|      52 | 0x2CEC      |       11500 |
|      53 | 0x0020      |          32 |
|      54 | 0x2CED      |       11501 |
|      55 | 0x2CEF      |       11503 |
|      56 | 0x2D01      |       11521 |
|      57 | 0x2D03      |       11523 |
|      58 | 0x2CF1      |       11505 |
|      59 | 0x2CF3      |       11507 |
|      60 | 0x2CF5      |       11509 |
|      61 | 0x2CF7      |       11511 |
|      62 | 0x2CFB      |       11515 |
|      63 | 0x2CFC      |       11516 |
|      64 | 0x2CFF      |       11519 |
|      65 | 0x2CC2      |       11458 |
|      66 | 0x0088      |         136 |
|      67 | 0x00C7      |         199 |
|      68 | 0x2DEF      |       11759 |
|      69 | 0x2D09      |       11529 |
|      70 | 0x00FF      |         255 |
|      71 | 0x036C      |         876 |
|      72 | 0x2D0A      |       11530 |
|      73 | 0x2DF0      |       11760 |
|      74 | 0x2DF1      |       11761 |
|      75 | 0x0003      |           3 |
|      76 | 0x2DF2      |       11762 |
|      77 | 0x036B      |         875 |
|      78 | 0x2DF8      |       11768 |
|      79 | 0x2DF9      |       11769 |
|      80 | 0x2DFA      |       11770 |
|      81 | 0x2DFB      |       11771 |
|      82 | 0x2D0B      |       11531 |
|      83 | 0x2DF6      |       11766 |
|      84 | 0x2DF7      |       11767 |
|      85 | 0x2DF3      |       11763 |
|      86 | 0x2DF4      |       11764 |
|      87 | 0x2DF5      |       11765 |
|      88 | 0x00DF      |         223 |
|      89 | 0x0090      |         144 |
|      90 | 0x0002      |           2 |
|      91 | 0x00FD      |         253 |
|      92 | 0x2E2B      |       11819 |
|      93 | 0x2E2C      |       11820 |
|      94 | 0x0005      |           5 |
|      95 | 0x2E2D      |       11821 |
|      96 | 0x2E2E      |       11822 |
|      97 | 0x2E2F      |       11823 |
|      98 | 0x2E30      |       11824 |
|      99 | 0x2E31      |       11825 |
|     100 | 0x2D0D      |       11533 |
|     101 | 0x2D0E      |       11534 |
|     102 | 0x0096      |         150 |
|     103 | 0x2D10      |       11536 |
|     104 | 0x2D12      |       11538 |
|     105 | 0x000F      |          15 |
|     106 | 0x0004      |           4 |
|     107 | 0x2D13      |       11539 |
|     108 | 0x2D14      |       11540 |
|     109 | 0x2D16      |       11542 |
|     110 | 0x0064      |         100 |
|     111 | 0x0009      |           9 |
|     112 | 0x00DC      |         220 |
|     113 | 0xFFFF2C0A  |  4294913034 |
|     114 | 0xFFF84503  |  4294460675 |
|     115 | 0xFFFFEC78  |  4294962296 |
|     116 | 0x07EE      |        2030 |
|     117 | 0xFFFEE793  |  4294895507 |
|     118 | 0xFFF55DB6  |  4294270390 |
|     119 | 0x1DC4      |        7620 |
|     120 | 0x0122      |         290 |
|     121 | 0xFFFFC515  |  4294952213 |
|     122 | 0xFFFDC550  |  4294821200 |
|     123 | 0x05DB      |        1499 |
|     124 | 0x01FB      |         507 |
|     125 | 0xFFFF8C40  |  4294937664 |
|     126 | 0xFFF70BC7  |  4294380487 |
|     127 | 0x7322      |       29474 |
|     128 | 0x00FA      |         250 |
|     129 | 0x24485     |      148613 |
|     130 | 0xFFFD7BCE  |  4294802382 |
|     131 | 0xFFFFC7C0  |  4294952896 |
|     132 | 0x0ED3      |        3795 |
|     133 | 0xA0D96     |      658838 |
|     134 | 0xFFF992B4  |  4294546100 |
|     135 | 0xFFFFFF29  |  4294967081 |
|     136 | 0x058C      |        1420 |
|     137 | 0x2D0F      |       11535 |
|     138 | 0x2D11      |       11537 |
|     139 | 0x2D15      |       11541 |
|     140 | 0x2D17      |       11543 |
|     141 | 0x2D18      |       11544 |
|     142 | 0x2D19      |       11545 |
|     143 | 0x2D1A      |       11546 |
|     144 | 0x2D1B      |       11547 |
|     145 | 0x2D1C      |       11548 |
|     146 | 0x2D1D      |       11549 |
|     147 | 0x2D1E      |       11550 |
|     148 | 0x2D21      |       11553 |
|     149 | 0x2D20      |       11552 |
|     150 | 0x2D22      |       11554 |
|     151 | 0x2D23      |       11555 |
|     152 | 0x2D25      |       11557 |
|     153 | 0x2D24      |       11556 |
|     154 | 0x2D26      |       11558 |
|     155 | 0x2D28      |       11560 |
|     156 | 0x2D27      |       11559 |
|     157 | 0x2D29      |       11561 |
|     158 | 0x2D2A      |       11562 |
|     159 | 0x2D0C      |       11532 |
|     160 | 0x0216      |         534 |
|     161 | 0x2CE4      |       11492 |
|     162 | 0x0899      |        2201 |
|     163 | 0x2CE6      |       11494 |
|     164 | 0x2CE8      |       11496 |
|     165 | 0x2CEA      |       11498 |
|     166 | 0x2CEE      |       11502 |
|     167 | 0x2CF0      |       11504 |
|     168 | 0x2CF2      |       11506 |
|     169 | 0x2CF4      |       11508 |
|     170 | 0x2CF8      |       11512 |
|     171 | 0x2CFD      |       11517 |
|     172 | 0x2D00      |       11520 |
|     173 | 0x2D02      |       11522 |
|     174 | 0x28EB      |       10475 |
|     175 | 0x2D8A      |       11658 |
|     176 | 0x2D8B      |       11659 |
|     177 | 0x2969      |       10601 |
|     178 | 0x01DF      |         479 |
|     179 | 0x001F      |          31 |
|     180 | 0x2D8C      |       11660 |
|     181 | 0x4E20      |       20000 |
|     182 | 0x2D8D      |       11661 |
|     183 | 0x2D8E      |       11662 |
|     184 | 0x2970      |       10608 |
|     185 | 0x2D8F      |       11663 |
|     186 | 0x00DD      |         221 |
|     187 | 0x012C      |         300 |
|     188 | 0x2D83      |       11651 |
|     189 | 0x2D84      |       11652 |
|     190 | 0x2961      |       10593 |
|     191 | 0x01EF      |         495 |
|     192 | 0x2D90      |       11664 |
|     193 | 0x093E      |        2366 |
|     194 | 0x2D91      |       11665 |
|     195 | 0x2D95      |       11669 |
|     196 | 0x2D96      |       11670 |
|     197 | 0x01DC      |         476 |
|     198 | 0x2D92      |       11666 |
|     199 | 0x2974      |       10612 |
|     200 | 0x2D93      |       11667 |
|     201 | 0x2D94      |       11668 |
|     202 | 0x2D9F      |       11679 |

## String References

- **10475**: What would you like to do? [Receive your $0./Purchase $0./Ask for a chococard./Register to call your chocobo./----/----/----/----/----/----/----/----/----/----/----/----/----/----/----/----/----/----/----/----/----/----/----/----/----/----/----/Nothing.]
- **10593**: Purchase a chococard? ($0 gil each) [Yes./Not now.]
- **10601**: Register a chocobo? ($0 gil) [Yes./Not now.]
- **10608**: Purchase $0? ($1 gil) [Yes./Not now.]
- **10612**: Pay for a new whistle? ($1 gil) [Yes, please./Not yet.]
- **11705**: You obtain $6!

## Events

### Event 65535

#### Metadata

| Field        | Value   |
|--------------|---------|
| Entrypoint   | 0x0000  |
| Data Size    | 1 bytes |
| Instructions | 1       |

```
      00 01 02 03 04 05 06 07  08 09 0A 0B 0C 0D 0E 0F
      -- -- -- -- -- -- -- --  -- -- -- -- -- -- -- --
0000: 00                                                .               
```

#### Opcodes

```
  0: 0x0000 [0x00] END_REQSTACK()
```

### Event 746

#### Metadata

| Field        | Value   |
|--------------|---------|
| Entrypoint   | 0x0001  |
| Data Size    | 1 bytes |
| Instructions | 1       |

```
      00 01 02 03 04 05 06 07  08 09 0A 0B 0C 0D 0E 0F
      -- -- -- -- -- -- -- --  -- -- -- -- -- -- -- --
0000:    00                                              .              
```

#### Opcodes

```
  0: 0x0001 [0x00] END_REQSTACK()
```

### Event 742

#### Metadata

| Field        | Value   |
|--------------|---------|
| Entrypoint   | 0x0002  |
| Data Size    | 1 bytes |
| Instructions | 1       |

```
      00 01 02 03 04 05 06 07  08 09 0A 0B 0C 0D 0E 0F
      -- -- -- -- -- -- -- --  -- -- -- -- -- -- -- --
0000:       00                                            .             
```

#### Opcodes

```
  0: 0x0002 [0x00] END_REQSTACK()
```

### Event 65535.1

#### Metadata

| Field        | Value    |
|--------------|----------|
| Entrypoint   | 0x0003   |
| Data Size    | 12 bytes |
| Instructions | 3        |

```
      00 01 02 03 04 05 06 07  08 09 0A 0B 0C 0D 0E 0F
      -- -- -- -- -- -- -- --  -- -- -- -- -- -- -- --
0000:          33 01 37 00 80  01 80 02 80 03 80 00        3.7......... 
```

#### Opcodes

```
  0: 0x0003 [0x33] EventEntity->Render.Flags0 |= 0x200000 // Bit 21 (flag=0x01)
  1: 0x0005 [0x37] UPDATE_EVENT_POSITION_AND_DIR: x=-11.608*, z=-116.798*, y=-0.600*, direction=49.1°*
  2: 0x000E [0x00] END_REQSTACK()
```

### Event 65535.2

#### Metadata

| Field        | Value   |
|--------------|---------|
| Entrypoint   | 0x000F  |
| Data Size    | 3 bytes |
| Instructions | 2       |

```
      00 01 02 03 04 05 06 07  08 09 0A 0B 0C 0D 0E 0F
      -- -- -- -- -- -- -- --  -- -- -- -- -- -- -- --
0000:                                               33                 3
0010: 00 00                                             ..              
```

#### Opcodes

```
  0: 0x000F [0x33] EventEntity->Render.Flags0 &= ~ 0x200000 // Bit 21 (flag=0x00)
  1: 0x0011 [0x00] END_REQSTACK()
```

### Event 65535.3

#### Metadata

| Field        | Value    |
|--------------|----------|
| Entrypoint   | 0x0012   |
| Data Size    | 10 bytes |
| Instructions | 2        |

```
      00 01 02 03 04 05 06 07  08 09 0A 0B 0C 0D 0E 0F
      -- -- -- -- -- -- -- --  -- -- -- -- -- -- -- --
0010:       37 04 80 05 80 06  80 07 80 00                7.........    
```

#### Opcodes

```
  0: 0x0012 [0x37] UPDATE_EVENT_POSITION_AND_DIR: x=-6.342*, z=-106.067*, y=1.399*, direction=39.8°*
  1: 0x001B [0x00] END_REQSTACK()
```

### Event 766

#### Metadata

| Field        | Value     |
|--------------|-----------|
| Entrypoint   | 0x001C    |
| Data Size    | 308 bytes |
| Instructions | 37        |

```
      00 01 02 03 04 05 06 07  08 09 0A 0B 0C 0D 0E 0F
      -- -- -- -- -- -- -- --  -- -- -- -- -- -- -- --
0010:                                      42 03 01 10              B...
0020: 08 80 45 09 80 F8 FF FF  7F F8 FF FF 7F 66 64 6F  ..E..........fdo
0030: 31 08 80 55 09 80 F8 FF  FF 7F F8 FF FF 7F 66 64  1..U..........fd
0040: 6F 31 46 01 38 0A 80 75  00 0B 80 75 01 29 05 F0  o1F.8..u...u.)..
0050: FF FF 7F 4E 1E F0 FF FF  7F 4A F0 FF FF 7F 43 10  ...N.....J....C.
0060: 0F 01 02 02 10 08 80 00  AC 00 45 0C 80 F8 FF FF  ..........E.....
0070: 7F F8 FF FF 7F 73 32 34  37 08 80 1C 0D 80 45 09  .....s247.....E.
0080: 80 F8 FF FF 7F F8 FF FF  7F 66 64 69 31 08 80 1C  .........fdi1...
0090: 0D 80 66 0E 80 43 10 0F  01 43 10 0F 01 74 6C 6B  ..f..C...C...tlk
00A0: 30 2B 43 10 0F 01 0F 80  23 01 EB 00 45 0C 80 F8  0+C.....#...E...
00B0: FF FF 7F F8 FF FF 7F 73  32 34 38 08 80 1C 0D 80  .......s248.....
00C0: 45 09 80 F8 FF FF 7F F8  FF FF 7F 66 64 69 31 08  E..........fdi1.
00D0: 80 1C 0D 80 66 0E 80 43  10 0F 01 43 10 0F 01 74  ....f..C...C...t
00E0: 6C 6B 30 2B 43 10 0F 01  10 80 23 66 0E 80 43 10  lk0+C.....#f..C.
00F0: 0F 01 43 10 0F 01 74 6C  6B 31 45 09 80 F8 FF FF  ..C...tlk1E.....
0100: 7F F8 FF FF 7F 66 64 6F  31 08 80 55 09 80 F8 FF  .....fdo1..U....
0110: FF 7F F8 FF FF 7F 66 64  6F 31 52 0C 80 F8 FF FF  ......fdo1R.....
0120: 7F F8 FF FF 7F 73 32 34  37 52 0C 80 F8 FF FF 7F  .....s247R......
0130: F8 FF FF 7F 73 32 34 38  46 00 1C 0D 80 45 09 80  ....s248F....E..
0140: F8 FF FF 7F F8 FF FF 7F  66 64 69 31 08 80 21 00  ........fdi1..!.
```

#### Opcodes

```
  0: 0x001C [0x42] SET_CLI_EVENT_CANCEL_DATA()
  1: 0x001D [0x03] Work_Zone[1] = 0*
  2: 0x0022 [0x45] LOAD_SCHEDULED_TASK: Load scheduler "fdo1" with entities [EventEntity, EventEntity], work=[200*, 0*]
  3: 0x0033 [0x55] WAIT_LOAD_SCHEDULER: Wait for scheduler "fdo1" with entities [EventEntity, EventEntity], work=200*
  4: 0x0042 [0x46] CAMERA_CONTROL: Disable user control
  5: 0x0044 [0x38] SET_CLIENT_EVENT_MODE(mode=27*)
  6: 0x0047 [0x75] LOAD_ROOM(Load indoor room, room=421*)
  7: 0x004B [0x75] LOAD_ROOM(No action)
  8: 0x004D [0x29] REQ_SET_WAIT(priority=0x05, entity_id=LocalPlayer, tag_num=0x4E)
  9: 0x0054 [0x1E] EventEntity looks at LocalPlayer and starts talking
 10: 0x0059 [0x4A] LocalPlayer looks at Pulonono (ID: 17764419/0x010F1043)
 11: 0x0062 [0x02] IF !(Work_Zone[2] == 0*) GOTO 0x00AC
 12: 0x006A [0x45] LOAD_SCHEDULED_TASK: Load scheduler "s247" with entities [EventEntity, EventEntity], work=[197*, 0*]
 13: 0x007B [0x1C] WAIT(60* ticks)
 14: 0x007E [0x45] LOAD_SCHEDULED_TASK: Load scheduler "fdi1" with entities [EventEntity, EventEntity], work=[200*, 0*]
 15: 0x008F [0x1C] WAIT(60* ticks)
 16: 0x0092 [0x66] LOAD_EXT_SCHEDULER_MAIN: Load scheduler "tlk0" with entities [Pulonono (ID: 17764419/0x010F1043), Pulonono (ID: 17764419/0x010F1043)], work=49*
 17: 0x00A1 [0x2B] Pulonono (ID: 17764419/0x010F1043) [11694*]:
    → "The chick's owner came and picked it up not long ago. I'm glad we found its rightful home."
 18: 0x00A8 [0x23] WAIT_FOR_DIALOG_INTERACTION
 19: 0x00A9 [0x01] GOTO 0x00EB
 20: 0x00AC [0x45] LOAD_SCHEDULED_TASK: Load scheduler "s248" with entities [EventEntity, EventEntity], work=[197*, 0*]
 21: 0x00BD [0x1C] WAIT(60* ticks)
 22: 0x00C0 [0x45] LOAD_SCHEDULED_TASK: Load scheduler "fdi1" with entities [EventEntity, EventEntity], work=[200*, 0*]
 23: 0x00D1 [0x1C] WAIT(60* ticks)
 24: 0x00D4 [0x66] LOAD_EXT_SCHEDULER_MAIN: Load scheduler "tlk0" with entities [Pulonono (ID: 17764419/0x010F1043), Pulonono (ID: 17764419/0x010F1043)], work=49*
 25: 0x00E3 [0x2B] Pulonono (ID: 17764419/0x010F1043) [11695*]:
    → "I found the chick's owner and returned it to its home."
 26: 0x00EA [0x23] WAIT_FOR_DIALOG_INTERACTION

SUBROUTINE_00EB:
 27: 0x00EB [0x66] LOAD_EXT_SCHEDULER_MAIN: Load scheduler "tlk1" with entities [Pulonono (ID: 17764419/0x010F1043), Pulonono (ID: 17764419/0x010F1043)], work=49*
 28: 0x00FA [0x45] LOAD_SCHEDULED_TASK: Load scheduler "fdo1" with entities [EventEntity, EventEntity], work=[200*, 0*]
 29: 0x010B [0x55] WAIT_LOAD_SCHEDULER: Wait for scheduler "fdo1" with entities [EventEntity, EventEntity], work=200*
 30: 0x011A [0x52] END_LOAD_SCHEDULER: End scheduler "s247" with entities [EventEntity, EventEntity], work=197*
 31: 0x0129 [0x52] END_LOAD_SCHEDULER: End scheduler "s248" with entities [EventEntity, EventEntity], work=197*
 32: 0x0138 [0x46] CAMERA_CONTROL: Restore default settings
 33: 0x013A [0x1C] WAIT(60* ticks)
 34: 0x013D [0x45] LOAD_SCHEDULED_TASK: Load scheduler "fdi1" with entities [EventEntity, EventEntity], work=[200*, 0*]
 35: 0x014E [0x21] END_EVENT
 36: 0x014F [0x00] END_REQSTACK()
```

### Event 65535.4

#### Metadata

| Field        | Value     |
|--------------|-----------|
| Entrypoint   | 0x0150    |
| Data Size    | 184 bytes |
| Instructions | 24        |

```
      00 01 02 03 04 05 06 07  08 09 0A 0B 0C 0D 0E 0F
      -- -- -- -- -- -- -- --  -- -- -- -- -- -- -- --
0150: 35 11 80 78 75 00 0B 80  75 01 1C 12 80 22 00 29  5..xu...u....".)
0160: 05 F0 FF FF 7F 4E 29 05  43 10 0F 01 03 92 01 43  .....N).C......C
0170: 10 0F 01 4A F0 FF FF 7F  43 10 0F 01 4A 43 10 0F  ...J....C...JC..
0180: 01 F0 FF FF 7F 45 13 80  F8 FF FF 7F F8 FF FF 7F  .....E..........
0190: 73 31 31 39 08 80 1C 0D  80 45 09 80 F8 FF FF 7F  s119.....E......
01A0: F8 FF FF 7F 66 64 69 31  08 80 1C 0D 80 66 0E 80  ....fdi1.....f..
01B0: 43 10 0F 01 43 10 0F 01  74 6C 6B 30 03 02 10 14  C...C...tlk0....
01C0: 80 2B 43 10 0F 01 15 80  23 66 0E 80 43 10 0F 01  .+C.....#f..C...
01D0: 43 10 0F 01 74 6C 6B 31  45 09 80 F8 FF FF 7F F8  C...tlk1E.......
01E0: FF FF 7F 66 64 6F 31 08  80 55 09 80 F8 FF FF 7F  ...fdo1..U......
01F0: F8 FF FF 7F 66 64 6F 31  52 13 80 F8 FF FF 7F F8  ....fdo1R.......
0200: FF FF 7F 73 31 31 39 00                           ...s119.        
```

#### Opcodes

```
  0: 0x0150 [0x35] LOAD_ZONE_NO_CLOSE(zone_id=241*)
  1: 0x0153 [0x78] ENABLE_GAME_TIMER_RESET_WEATHER()
  2: 0x0154 [0x75] LOAD_ROOM(Load indoor room, room=421*)
  3: 0x0158 [0x75] LOAD_ROOM(No action)
  4: 0x015A [0x1C] WAIT(1* ticks)
  5: 0x015D [0x22] ENTITY_HIDE_FLAG(enabled=0x00)
  6: 0x015F [0x29] REQ_SET_WAIT(priority=0x05, entity_id=LocalPlayer, tag_num=0x4E)
  7: 0x0166 [0x29] REQ_SET_WAIT(priority=0x05, entity_id=Pulonono (ID: 17764419/0x010F1043), tag_num=0x03)
  8: 0x016D [0x92] Pulonono (ID: 17764419/0x010F1043)->Render.Flags3 ^= 0x01
  9: 0x0173 [0x4A] LocalPlayer looks at Pulonono (ID: 17764419/0x010F1043)
 10: 0x017C [0x4A] Pulonono (ID: 17764419/0x010F1043) looks at LocalPlayer
 11: 0x0185 [0x45] LOAD_SCHEDULED_TASK: Load scheduler "s119" with entities [EventEntity, EventEntity], work=[254*, 0*]
 12: 0x0196 [0x1C] WAIT(60* ticks)
 13: 0x0199 [0x45] LOAD_SCHEDULED_TASK: Load scheduler "fdi1" with entities [EventEntity, EventEntity], work=[200*, 0*]
 14: 0x01AA [0x1C] WAIT(60* ticks)
 15: 0x01AD [0x66] LOAD_EXT_SCHEDULER_MAIN: Load scheduler "tlk0" with entities [Pulonono (ID: 17764419/0x010F1043), Pulonono (ID: 17764419/0x010F1043)], work=49*
 16: 0x01BC [0x03] Work_Zone[2] = 15533*
 17: 0x01C1 [0x2B] Pulonono (ID: 17764419/0x010F1043) [11470*]:
    → "You'll need $0 in order to call it in the field. Sorry, but you have to go aaall the way to the chocobo stables in San d'Oria to get one!"
 18: 0x01C8 [0x23] WAIT_FOR_DIALOG_INTERACTION
 19: 0x01C9 [0x66] LOAD_EXT_SCHEDULER_MAIN: Load scheduler "tlk1" with entities [Pulonono (ID: 17764419/0x010F1043), Pulonono (ID: 17764419/0x010F1043)], work=49*
 20: 0x01D8 [0x45] LOAD_SCHEDULED_TASK: Load scheduler "fdo1" with entities [EventEntity, EventEntity], work=[200*, 0*]
 21: 0x01E9 [0x55] WAIT_LOAD_SCHEDULER: Wait for scheduler "fdo1" with entities [EventEntity, EventEntity], work=200*
 22: 0x01F8 [0x52] END_LOAD_SCHEDULER: End scheduler "s119" with entities [EventEntity, EventEntity], work=254*
 23: 0x0207 [0x00] END_REQSTACK()
```

### Event 65535.5

#### Metadata

| Field        | Value    |
|--------------|----------|
| Entrypoint   | 0x0208   |
| Data Size    | 71 bytes |
| Instructions | 12       |

```
      00 01 02 03 04 05 06 07  08 09 0A 0B 0C 0D 0E 0F
      -- -- -- -- -- -- -- --  -- -- -- -- -- -- -- --
0200:                          6B 63 68 69 30 4A 10 0F          kchi0J..
0210: 01 29 05 4A 10 0F 01 04  80 4A 10 0F 01 5C 00 16  .).J.....J...\..
0220: 80 5C 01 16 80 92 01 43  10 0F 01 29 05 43 10 0F  .\.....C...).C..
0230: 01 04 29 05 F0 FF FF 7F  6A 4A F0 FF FF 7F 43 10  ..).....jJ....C.
0240: 0F 01 4A 43 10 0F 01 F0  FF FF 7F 1C 17 80 00     ..JC........... 
```

#### Opcodes

```
  0: 0x0208 [0x6B] STOP_AND_IDLE: Unnamed NPC (ID: 17764426/0x010F104A) stops current action and resets to idle (animation="chi0")
  1: 0x0211 [0x29] REQ_SET_WAIT(priority=0x05, entity_id=Unnamed NPC (ID: 17764426/0x010F104A), tag_num=0x04)
  2: 0x0218 [0x80] LOAD_WAIT(entity=Unnamed NPC (ID: 17764426/0x010F104A))
  3: 0x021D [0x5C] MUSIC_CONTROL: Set Idle (Day) music to song 124*
  4: 0x0221 [0x5C] MUSIC_CONTROL: Set Idle (Night) music to song 124*
  5: 0x0225 [0x92] Pulonono (ID: 17764419/0x010F1043)->Render.Flags3 ^= 0x01
  6: 0x022B [0x29] REQ_SET_WAIT(priority=0x05, entity_id=Pulonono (ID: 17764419/0x010F1043), tag_num=0x04)
  7: 0x0232 [0x29] REQ_SET_WAIT(priority=0x05, entity_id=LocalPlayer, tag_num=0x6A)
  8: 0x0239 [0x4A] LocalPlayer looks at Pulonono (ID: 17764419/0x010F1043)
  9: 0x0242 [0x4A] Pulonono (ID: 17764419/0x010F1043) looks at LocalPlayer
 10: 0x024B [0x1C] WAIT(30* ticks)
 11: 0x024E [0x00] END_REQSTACK()
```

### Event 65535.6

#### Metadata

| Field        | Value     |
|--------------|-----------|
| Entrypoint   | 0x024F    |
| Data Size    | 129 bytes |
| Instructions | 15        |

```
      00 01 02 03 04 05 06 07  08 09 0A 0B 0C 0D 0E 0F
      -- -- -- -- -- -- -- --  -- -- -- -- -- -- -- --
0240:                                               45                 E
0250: 13 80 F8 FF FF 7F F8 FF  FF 7F 73 31 32 30 08 80  ..........s120..
0260: 1C 0D 80 45 09 80 F8 FF  FF 7F F8 FF FF 7F 66 64  ...E..........fd
0270: 69 31 08 80 1C 0D 80 66  0E 80 43 10 0F 01 43 10  i1.....f..C...C.
0280: 0F 01 74 6C 6B 30 1A 8D  3C 2B 43 10 0F 01 18 80  ..tlk0..<+C.....
0290: 23 1A 98 3C 66 0E 80 43  10 0F 01 43 10 0F 01 74  #..<f..C...C...t
02A0: 6C 6B 31 4A F0 FF FF 7F  4A 10 0F 01 1C 0D 80 52  lk1J....J......R
02B0: 13 80 F8 FF FF 7F F8 FF  FF 7F 73 31 32 30 45 13  ..........s120E.
02C0: 80 F8 FF FF 7F F8 FF FF  7F 73 31 32 31 08 80 00  .........s121...
```

#### Opcodes

```
  0: 0x024F [0x45] LOAD_SCHEDULED_TASK: Load scheduler "s120" with entities [EventEntity, EventEntity], work=[254*, 0*]
  1: 0x0260 [0x1C] WAIT(60* ticks)
  2: 0x0263 [0x45] LOAD_SCHEDULED_TASK: Load scheduler "fdi1" with entities [EventEntity, EventEntity], work=[200*, 0*]
  3: 0x0274 [0x1C] WAIT(60* ticks)
  4: 0x0277 [0x66] LOAD_EXT_SCHEDULER_MAIN: Load scheduler "tlk0" with entities [Pulonono (ID: 17764419/0x010F1043), Pulonono (ID: 17764419/0x010F1043)], work=49*
  5: 0x0286 [0x1A] CALL_SUBROUTINE(address=0x3C8D)
  6: 0x0289 [0x2B] Pulonono (ID: 17764419/0x010F1043) [11489*]:
    → "I'm sorry, but the time has come to part with $0! It will be transferred to one of the Vana'diel Chocobo Society farms."
  7: 0x0290 [0x23] WAIT_FOR_DIALOG_INTERACTION
  8: 0x0291 [0x1A] CALL_SUBROUTINE(address=0x3C98)
  9: 0x0294 [0x66] LOAD_EXT_SCHEDULER_MAIN: Load scheduler "tlk1" with entities [Pulonono (ID: 17764419/0x010F1043), Pulonono (ID: 17764419/0x010F1043)], work=49*
 10: 0x02A3 [0x4A] LocalPlayer looks at Unnamed NPC (ID: 17764426/0x010F104A)
 11: 0x02AC [0x1C] WAIT(60* ticks)
 12: 0x02AF [0x52] END_LOAD_SCHEDULER: End scheduler "s120" with entities [EventEntity, EventEntity], work=254*
 13: 0x02BE [0x45] LOAD_SCHEDULED_TASK: Load scheduler "s121" with entities [EventEntity, EventEntity], work=[254*, 0*]
 14: 0x02CF [0x00] END_REQSTACK()
```

### Event 65535.7

#### Metadata

| Field        | Value     |
|--------------|-----------|
| Entrypoint   | 0x02D0    |
| Data Size    | 190 bytes |
| Instructions | 20        |

```
      00 01 02 03 04 05 06 07  08 09 0A 0B 0C 0D 0E 0F
      -- -- -- -- -- -- -- --  -- -- -- -- -- -- -- --
02D0: 29 05 44 10 0F 01 04 80  44 10 0F 01 29 05 F0 FF  ).D.....D...)...
02E0: FF 7F 6B 5B 19 80 44 10  0F 01 44 10 0F 01 68 69  ..k[..D...D...hi
02F0: 30 32 4A F0 FF FF 7F 44  10 0F 01 45 13 80 F8 FF  02J....D...E....
0300: FF 7F F8 FF FF 7F 73 31  32 33 08 80 1C 0D 80 45  ......s123.....E
0310: 1A 80 F0 FF FF 7F F0 FF  FF 7F 77 68 69 31 08 80  ..........whi1..
0320: 55 1A 80 F0 FF FF 7F F0  FF FF 7F 77 68 69 31 6E  U..........whi1n
0330: F0 FF FF 7F 08 80 99 F0  FF FF 7F 1C 0D 80 5B 1B  ..............[.
0340: 80 44 10 0F 01 44 10 0F  01 31 30 30 37 1C 0D 80  .D...D...1007...
0350: 45 1A 80 F0 FF FF 7F F0  FF FF 7F 77 68 6F 31 08  E..........who1.
0360: 80 55 1A 80 F0 FF FF 7F  F0 FF FF 7F 77 68 6F 31  .U..........who1
0370: 52 13 80 F8 FF FF 7F F8  FF FF 7F 73 31 32 33 29  R..........s123)
0380: 05 F0 FF FF 7F 6C 29 05  43 10 0F 01 05 00        .....l).C.....  
```

#### Opcodes

```
  0: 0x02D0 [0x29] REQ_SET_WAIT(priority=0x05, entity_id=Unnamed NPC (ID: 17764420/0x010F1044), tag_num=0x04)
  1: 0x02D7 [0x80] LOAD_WAIT(entity=Unnamed NPC (ID: 17764420/0x010F1044))
  2: 0x02DC [0x29] REQ_SET_WAIT(priority=0x05, entity_id=LocalPlayer, tag_num=0x6B)
  3: 0x02E3 [0x5B] LOAD_EXT_SCHEDULER: Load scheduler "hi02" with entities [Unnamed NPC (ID: 17764420/0x010F1044), Unnamed NPC (ID: 17764420/0x010F1044)], work=872*
  4: 0x02F2 [0x4A] LocalPlayer looks at Unnamed NPC (ID: 17764420/0x010F1044)
  5: 0x02FB [0x45] LOAD_SCHEDULED_TASK: Load scheduler "s123" with entities [EventEntity, EventEntity], work=[254*, 0*]
  6: 0x030C [0x1C] WAIT(60* ticks)
  7: 0x030F [0x45] LOAD_SCHEDULED_TASK: Load scheduler "whi1" with entities [LocalPlayer, LocalPlayer], work=[201*, 0*]
  8: 0x0320 [0x55] WAIT_LOAD_SCHEDULER: Wait for scheduler "whi1" with entities [LocalPlayer, LocalPlayer], work=201*
  9: 0x032F [0x6E] LocalPlayer uses emote 0*
 10: 0x0336 [0x99] Wait for LocalPlayer animation to complete
 11: 0x033B [0x1C] WAIT(60* ticks)
 12: 0x033E [0x5B] LOAD_EXT_SCHEDULER: Load scheduler "1007" with entities [Unnamed NPC (ID: 17764420/0x010F1044), Unnamed NPC (ID: 17764420/0x010F1044)], work=224*
 13: 0x034D [0x1C] WAIT(60* ticks)
 14: 0x0350 [0x45] LOAD_SCHEDULED_TASK: Load scheduler "who1" with entities [LocalPlayer, LocalPlayer], work=[201*, 0*]
 15: 0x0361 [0x55] WAIT_LOAD_SCHEDULER: Wait for scheduler "who1" with entities [LocalPlayer, LocalPlayer], work=201*
 16: 0x0370 [0x52] END_LOAD_SCHEDULER: End scheduler "s123" with entities [EventEntity, EventEntity], work=254*
 17: 0x037F [0x29] REQ_SET_WAIT(priority=0x05, entity_id=LocalPlayer, tag_num=0x6C)
 18: 0x0386 [0x29] REQ_SET_WAIT(priority=0x05, entity_id=Pulonono (ID: 17764419/0x010F1043), tag_num=0x05)
 19: 0x038D [0x00] END_REQSTACK()
```

### Event 65535.8

#### Metadata

| Field        | Value     |
|--------------|-----------|
| Entrypoint   | 0x038E    |
| Data Size    | 244 bytes |
| Instructions | 29        |

```
      00 01 02 03 04 05 06 07  08 09 0A 0B 0C 0D 0E 0F
      -- -- -- -- -- -- -- --  -- -- -- -- -- -- -- --
0380:                                            29 05                ).
0390: 44 10 0F 01 09 4A F0 FF  FF 7F 44 10 0F 01 4A 43  D....J....D...JC
03A0: 10 0F 01 44 10 0F 01 1C  17 80 29 05 F0 FF FF 7F  ...D......).....
03B0: 6E 66 0E 80 43 10 0F 01  43 10 0F 01 73 68 61 30  nf..C...C...sha0
03C0: 45 13 80 F8 FF FF 7F F8  FF FF 7F 73 31 32 34 08  E..........s124.
03D0: 80 1C 0D 80 45 1A 80 F0  FF FF 7F F0 FF FF 7F 77  ....E..........w
03E0: 68 69 31 08 80 55 1A 80  F0 FF FF 7F F0 FF FF 7F  hi1..U..........
03F0: 77 68 69 31 4A 44 10 0F  01 43 10 0F 01 1C 0D 80  whi1JD...C......
0400: 4A 44 10 0F 01 F0 FF FF  7F 1C 0D 80 29 05 44 10  JD..........).D.
0410: 0F 01 0A 27 05 F0 FF FF  7F 6F 66 0E 80 43 10 0F  ...'.....of..C..
0420: 01 43 10 0F 01 73 68 61  31 1C 0D 80 6E 43 10 0F  .C...sha1...nC..
0430: 01 1C 80 99 43 10 0F 01  1C 0D 80 45 1A 80 F0 FF  ....C......E....
0440: FF 7F F0 FF FF 7F 77 68  6F 31 08 80 55 1A 80 F0  ......who1..U...
0450: FF FF 7F F0 FF FF 7F 77  68 6F 31 52 13 80 F8 FF  .......who1R....
0460: FF 7F F8 FF FF 7F 73 31  32 34 4E 01 44 10 0F 01  ......s124N.D...
0470: 2F 01 44 10 0F 01 2A 05  F0 FF FF 7F 03 02 10 12  /.D...*.........
0480: 80 00                                             ..              
```

#### Opcodes

```
  0: 0x038E [0x29] REQ_SET_WAIT(priority=0x05, entity_id=Unnamed NPC (ID: 17764420/0x010F1044), tag_num=0x09)
  1: 0x0395 [0x4A] LocalPlayer looks at Unnamed NPC (ID: 17764420/0x010F1044)
  2: 0x039E [0x4A] Pulonono (ID: 17764419/0x010F1043) looks at Unnamed NPC (ID: 17764420/0x010F1044)
  3: 0x03A7 [0x1C] WAIT(30* ticks)
  4: 0x03AA [0x29] REQ_SET_WAIT(priority=0x05, entity_id=LocalPlayer, tag_num=0x6E)
  5: 0x03B1 [0x66] LOAD_EXT_SCHEDULER_MAIN: Load scheduler "sha0" with entities [Pulonono (ID: 17764419/0x010F1043), Pulonono (ID: 17764419/0x010F1043)], work=49*
  6: 0x03C0 [0x45] LOAD_SCHEDULED_TASK: Load scheduler "s124" with entities [EventEntity, EventEntity], work=[254*, 0*]
  7: 0x03D1 [0x1C] WAIT(60* ticks)
  8: 0x03D4 [0x45] LOAD_SCHEDULED_TASK: Load scheduler "whi1" with entities [LocalPlayer, LocalPlayer], work=[201*, 0*]
  9: 0x03E5 [0x55] WAIT_LOAD_SCHEDULER: Wait for scheduler "whi1" with entities [LocalPlayer, LocalPlayer], work=201*
 10: 0x03F4 [0x4A] Unnamed NPC (ID: 17764420/0x010F1044) looks at Pulonono (ID: 17764419/0x010F1043)
 11: 0x03FD [0x1C] WAIT(60* ticks)
 12: 0x0400 [0x4A] Unnamed NPC (ID: 17764420/0x010F1044) looks at LocalPlayer
 13: 0x0409 [0x1C] WAIT(60* ticks)
 14: 0x040C [0x29] REQ_SET_WAIT(priority=0x05, entity_id=Unnamed NPC (ID: 17764420/0x010F1044), tag_num=0x0A)
 15: 0x0413 [0x27] REQ_SET(priority=0x05, entity_id=LocalPlayer, tag_num=0x6F)
 16: 0x041A [0x66] LOAD_EXT_SCHEDULER_MAIN: Load scheduler "sha1" with entities [Pulonono (ID: 17764419/0x010F1043), Pulonono (ID: 17764419/0x010F1043)], work=49*
 17: 0x0429 [0x1C] WAIT(60* ticks)
 18: 0x042C [0x6E] Pulonono (ID: 17764419/0x010F1043) uses emote 26*
 19: 0x0433 [0x99] Wait for Pulonono (ID: 17764419/0x010F1043) animation to complete
 20: 0x0438 [0x1C] WAIT(60* ticks)
 21: 0x043B [0x45] LOAD_SCHEDULED_TASK: Load scheduler "who1" with entities [LocalPlayer, LocalPlayer], work=[201*, 0*]
 22: 0x044C [0x55] WAIT_LOAD_SCHEDULER: Wait for scheduler "who1" with entities [LocalPlayer, LocalPlayer], work=201*
 23: 0x045B [0x52] END_LOAD_SCHEDULER: End scheduler "s124" with entities [EventEntity, EventEntity], work=254*
 24: 0x046A [0x4E] SET_ENTITY_HIDE_FLAG: Hide Unnamed NPC (ID: 17764420/0x010F1044)
 25: 0x0470 [0x2F] Unnamed NPC (ID: 17764420/0x010F1044)->Render.Flags0 |= 0x80000 // Bit 19
 26: 0x0476 [0x2A] GET_REQ_LEVEL(level=5, entity_id=LocalPlayer)
 27: 0x047C [0x03] Work_Zone[2] = 1*
 28: 0x0481 [0x00] END_REQSTACK()
```

### Event 65535.9

#### Metadata

| Field        | Value     |
|--------------|-----------|
| Entrypoint   | 0x0482    |
| Data Size    | 311 bytes |
| Instructions | 33        |

```
      00 01 02 03 04 05 06 07  08 09 0A 0B 0C 0D 0E 0F
      -- -- -- -- -- -- -- --  -- -- -- -- -- -- -- --
0480:       29 05 4A 10 0F 01  07 29 05 F0 FF FF 7F 6D    ).J....).....m
0490: 4A 4A 10 0F 01 F0 FF FF  7F 45 13 80 F8 FF FF 7F  JJ.......E......
04A0: F8 FF FF 7F 73 31 32 35  08 80 1C 0D 80 45 1A 80  ....s125.....E..
04B0: F0 FF FF 7F F0 FF FF 7F  77 68 69 31 08 80 55 1A  ........whi1..U.
04C0: 80 F0 FF FF 7F F0 FF FF  7F 77 68 69 31 27 05 F0  .........whi1'..
04D0: FF FF 7F 6E 2A 05 F0 FF  FF 7F 27 05 F0 FF FF 7F  ...n*.....'.....
04E0: 6F 2A 05 F0 FF FF 7F 4A  F0 FF FF 7F 4A 10 0F 01  o*.....J....J...
04F0: 1C 17 80 6E F0 FF FF 7F  1D 80 99 F0 FF FF 7F 1C  ...n............
0500: 0D 80 5B 1E 80 4A 10 0F  01 4A 10 0F 01 6A 6F 79  ..[..J...J...joy
0510: 30 5B 1B 80 4A 10 0F 01  4A 10 0F 01 31 30 31 31  0[..J...J...1011
0520: 1C 1F 80 45 1A 80 F0 FF  FF 7F F0 FF FF 7F 77 68  ...E..........wh
0530: 6F 31 08 80 55 1A 80 F0  FF FF 7F F0 FF FF 7F 77  o1..U..........w
0540: 68 6F 31 52 13 80 F8 FF  FF 7F F8 FF FF 7F 73 31  ho1R..........s1
0550: 32 35 29 05 4A 10 0F 01  04 80 4A 10 0F 01 29 05  25).J.....J...).
0560: 43 10 0F 01 04 29 05 F0  FF FF 7F 6A 4A F0 FF FF  C....).....jJ...
0570: 7F 4A 10 0F 01 45 13 80  F8 FF FF 7F F8 FF FF 7F  .J...E..........
0580: 73 31 32 32 08 80 1C 0D  80 45 1A 80 F0 FF FF 7F  s122.....E......
0590: F0 FF FF 7F 77 68 69 31  08 80 55 1A 80 F0 FF FF  ....whi1..U.....
05A0: 7F F0 FF FF 7F 77 68 69  31 66 0E 80 43 10 0F 01  .....whi1f..C...
05B0: 43 10 0F 01 74 6C 6B 30  00                       C...tlk0.       
```

#### Opcodes

```
  0: 0x0482 [0x29] REQ_SET_WAIT(priority=0x05, entity_id=Unnamed NPC (ID: 17764426/0x010F104A), tag_num=0x07)
  1: 0x0489 [0x29] REQ_SET_WAIT(priority=0x05, entity_id=LocalPlayer, tag_num=0x6D)
  2: 0x0490 [0x4A] Unnamed NPC (ID: 17764426/0x010F104A) looks at LocalPlayer
  3: 0x0499 [0x45] LOAD_SCHEDULED_TASK: Load scheduler "s125" with entities [EventEntity, EventEntity], work=[254*, 0*]
  4: 0x04AA [0x1C] WAIT(60* ticks)
  5: 0x04AD [0x45] LOAD_SCHEDULED_TASK: Load scheduler "whi1" with entities [LocalPlayer, LocalPlayer], work=[201*, 0*]
  6: 0x04BE [0x55] WAIT_LOAD_SCHEDULER: Wait for scheduler "whi1" with entities [LocalPlayer, LocalPlayer], work=201*
  7: 0x04CD [0x27] REQ_SET(priority=0x05, entity_id=LocalPlayer, tag_num=0x6E)
  8: 0x04D4 [0x2A] GET_REQ_LEVEL(level=5, entity_id=LocalPlayer)
  9: 0x04DA [0x27] REQ_SET(priority=0x05, entity_id=LocalPlayer, tag_num=0x6F)
 10: 0x04E1 [0x2A] GET_REQ_LEVEL(level=5, entity_id=LocalPlayer)
 11: 0x04E7 [0x4A] LocalPlayer looks at Unnamed NPC (ID: 17764426/0x010F104A)
 12: 0x04F0 [0x1C] WAIT(30* ticks)
 13: 0x04F3 [0x6E] LocalPlayer uses emote 7*
 14: 0x04FA [0x99] Wait for LocalPlayer animation to complete
 15: 0x04FF [0x1C] WAIT(60* ticks)
 16: 0x0502 [0x5B] LOAD_EXT_SCHEDULER: Load scheduler "joy0" with entities [Unnamed NPC (ID: 17764426/0x010F104A), Unnamed NPC (ID: 17764426/0x010F104A)], work=222*
 17: 0x0511 [0x5B] LOAD_EXT_SCHEDULER: Load scheduler "1011" with entities [Unnamed NPC (ID: 17764426/0x010F104A), Unnamed NPC (ID: 17764426/0x010F104A)], work=224*
 18: 0x0520 [0x1C] WAIT(120* ticks)
 19: 0x0523 [0x45] LOAD_SCHEDULED_TASK: Load scheduler "who1" with entities [LocalPlayer, LocalPlayer], work=[201*, 0*]
 20: 0x0534 [0x55] WAIT_LOAD_SCHEDULER: Wait for scheduler "who1" with entities [LocalPlayer, LocalPlayer], work=201*
 21: 0x0543 [0x52] END_LOAD_SCHEDULER: End scheduler "s125" with entities [EventEntity, EventEntity], work=254*
 22: 0x0552 [0x29] REQ_SET_WAIT(priority=0x05, entity_id=Unnamed NPC (ID: 17764426/0x010F104A), tag_num=0x04)
 23: 0x0559 [0x80] LOAD_WAIT(entity=Unnamed NPC (ID: 17764426/0x010F104A))
 24: 0x055E [0x29] REQ_SET_WAIT(priority=0x05, entity_id=Pulonono (ID: 17764419/0x010F1043), tag_num=0x04)
 25: 0x0565 [0x29] REQ_SET_WAIT(priority=0x05, entity_id=LocalPlayer, tag_num=0x6A)
 26: 0x056C [0x4A] LocalPlayer looks at Unnamed NPC (ID: 17764426/0x010F104A)
 27: 0x0575 [0x45] LOAD_SCHEDULED_TASK: Load scheduler "s122" with entities [EventEntity, EventEntity], work=[254*, 0*]
 28: 0x0586 [0x1C] WAIT(60* ticks)
 29: 0x0589 [0x45] LOAD_SCHEDULED_TASK: Load scheduler "whi1" with entities [LocalPlayer, LocalPlayer], work=[201*, 0*]
 30: 0x059A [0x55] WAIT_LOAD_SCHEDULER: Wait for scheduler "whi1" with entities [LocalPlayer, LocalPlayer], work=201*
 31: 0x05A9 [0x66] LOAD_EXT_SCHEDULER_MAIN: Load scheduler "tlk0" with entities [Pulonono (ID: 17764419/0x010F1043), Pulonono (ID: 17764419/0x010F1043)], work=49*
 32: 0x05B8 [0x00] END_REQSTACK()
```

### Event 65535.10

#### Metadata

| Field        | Value     |
|--------------|-----------|
| Entrypoint   | 0x05B9    |
| Data Size    | 104 bytes |
| Instructions | 14        |

```
      00 01 02 03 04 05 06 07  08 09 0A 0B 0C 0D 0E 0F
      -- -- -- -- -- -- -- --  -- -- -- -- -- -- -- --
05B0:                             66 0E 80 43 10 0F 01           f..C...
05C0: 43 10 0F 01 74 6C 6B 31  4A F0 FF FF 7F 43 10 0F  C...tlk1J....C..
05D0: 01 1A 8D 3C 2B 43 10 0F  01 20 80 23 1A 98 3C 5D  ...<+C... .#..<]
05E0: 08 80 1F 80 45 09 80 F8  FF FF 7F F8 FF FF 7F 66  ....E..........f
05F0: 64 6F 31 08 80 55 09 80  F8 FF FF 7F F8 FF FF 7F  do1..U..........
0600: 66 64 6F 31 52 13 80 F8  FF FF 7F F8 FF FF 7F 73  fdo1R..........s
0610: 31 32 32 78 4E 01 4A 10  0F 01 2F 01 4A 10 0F 01  122xN.J.../.J...
0620: 00                                                .               
```

#### Opcodes

```
  0: 0x05B9 [0x66] LOAD_EXT_SCHEDULER_MAIN: Load scheduler "tlk1" with entities [Pulonono (ID: 17764419/0x010F1043), Pulonono (ID: 17764419/0x010F1043)], work=49*
  1: 0x05C8 [0x4A] LocalPlayer looks at Pulonono (ID: 17764419/0x010F1043)
  2: 0x05D1 [0x1A] CALL_SUBROUTINE(address=0x3C8D)
  3: 0x05D4 [0x2B] Pulonono (ID: 17764419/0x010F1043) [11491*]:
    → "$0 will come to you whenever you call!"
  4: 0x05DB [0x23] WAIT_FOR_DIALOG_INTERACTION
  5: 0x05DC [0x1A] CALL_SUBROUTINE(address=0x3C98)
  6: 0x05DF [0x5D] SET_MUSIC_VOLUME(volume=0*, fade_time=120*)
  7: 0x05E4 [0x45] LOAD_SCHEDULED_TASK: Load scheduler "fdo1" with entities [EventEntity, EventEntity], work=[200*, 0*]
  8: 0x05F5 [0x55] WAIT_LOAD_SCHEDULER: Wait for scheduler "fdo1" with entities [EventEntity, EventEntity], work=200*
  9: 0x0604 [0x52] END_LOAD_SCHEDULER: End scheduler "s122" with entities [EventEntity, EventEntity], work=254*
 10: 0x0613 [0x78] ENABLE_GAME_TIMER_RESET_WEATHER()
 11: 0x0614 [0x4E] SET_ENTITY_HIDE_FLAG: Hide Unnamed NPC (ID: 17764426/0x010F104A)
 12: 0x061A [0x2F] Unnamed NPC (ID: 17764426/0x010F104A)->Render.Flags0 |= 0x80000 // Bit 19
 13: 0x0620 [0x00] END_REQSTACK()
```

### Event 65535.11

#### Metadata

| Field        | Value     |
|--------------|-----------|
| Entrypoint   | 0x0621    |
| Data Size    | 186 bytes |
| Instructions | 22        |

```
      00 01 02 03 04 05 06 07  08 09 0A 0B 0C 0D 0E 0F
      -- -- -- -- -- -- -- --  -- -- -- -- -- -- -- --
0620:    29 05 44 10 0F 01 05  80 44 10 0F 01 1C 17 80   ).D.....D......
0630: 5B 19 80 44 10 0F 01 44  10 0F 01 68 69 30 33 45  [..D...D...hi03E
0640: 21 80 F8 FF FF 7F F8 FF  FF 7F 73 31 37 34 08 80  !.........s174..
0650: 1C 0D 80 45 09 80 F8 FF  FF 7F F8 FF FF 7F 66 64  ...E..........fd
0660: 69 31 08 80 9F 22 80 44  10 0F 01 44 10 0F 01 73  i1...".D...D...s
0670: 74 72 30 08 80 1C 0D 80  1A 8D 3C 2B 43 10 0F 01  tr0.......<+C...
0680: 23 80 23 03 02 10 24 80  2B 43 10 0F 01 25 80 23  #.#...$.+C...%.#
0690: 45 09 80 F8 FF FF 7F F8  FF FF 7F 66 64 6F 31 08  E..........fdo1.
06A0: 80 55 09 80 F8 FF FF 7F  F8 FF FF 7F 66 64 6F 31  .U..........fdo1
06B0: 52 21 80 F8 FF FF 7F F8  FF FF 7F 73 31 37 34 9F  R!.........s174.
06C0: 22 80 44 10 0F 01 44 10  0F 01 73 74 6F 70 08 80  ".D...D...stop..
06D0: 6B 69 64 6C 30 44 10 0F  01 78 00                 kidl0D...x.     
```

#### Opcodes

```
  0: 0x0621 [0x29] REQ_SET_WAIT(priority=0x05, entity_id=Unnamed NPC (ID: 17764420/0x010F1044), tag_num=0x05)
  1: 0x0628 [0x80] LOAD_WAIT(entity=Unnamed NPC (ID: 17764420/0x010F1044))
  2: 0x062D [0x1C] WAIT(30* ticks)
  3: 0x0630 [0x5B] LOAD_EXT_SCHEDULER: Load scheduler "hi03" with entities [Unnamed NPC (ID: 17764420/0x010F1044), Unnamed NPC (ID: 17764420/0x010F1044)], work=872*
  4: 0x063F [0x45] LOAD_SCHEDULED_TASK: Load scheduler "s174" with entities [EventEntity, EventEntity], work=[198*, 0*]
  5: 0x0650 [0x1C] WAIT(60* ticks)
  6: 0x0653 [0x45] LOAD_SCHEDULED_TASK: Load scheduler "fdi1" with entities [EventEntity, EventEntity], work=[200*, 0*]
  7: 0x0664 [0x9F] LOAD_SCHEDULED_TASK_ALT: Load scheduler "str0" with entities [Unnamed NPC (ID: 17764420/0x010F1044), Unnamed NPC (ID: 17764420/0x010F1044)], work=[235*, 0*]
  8: 0x0675 [0x1C] WAIT(60* ticks)
  9: 0x0678 [0x1A] CALL_SUBROUTINE(address=0x3C8D)
 10: 0x067B [0x2B] Pulonono (ID: 17764419/0x010F1043) [11459*]:
    → "I haven't seen you around lately, so I gave the chick something myself to help it sleep better."
 11: 0x0682 [0x23] WAIT_FOR_DIALOG_INTERACTION
 12: 0x0683 [0x03] Work_Zone[2] = 806*
 13: 0x0688 [0x2B] Pulonono (ID: 17764419/0x010F1043) [11460*]:
    → "I'll get rid of this $3 for you. No need to thank me! I'm just that kind of gal!"
 14: 0x068F [0x23] WAIT_FOR_DIALOG_INTERACTION
 15: 0x0690 [0x45] LOAD_SCHEDULED_TASK: Load scheduler "fdo1" with entities [EventEntity, EventEntity], work=[200*, 0*]
 16: 0x06A1 [0x55] WAIT_LOAD_SCHEDULER: Wait for scheduler "fdo1" with entities [EventEntity, EventEntity], work=200*
 17: 0x06B0 [0x52] END_LOAD_SCHEDULER: End scheduler "s174" with entities [EventEntity, EventEntity], work=198*
 18: 0x06BF [0x9F] LOAD_SCHEDULED_TASK_ALT: Load scheduler "stop" with entities [Unnamed NPC (ID: 17764420/0x010F1044), Unnamed NPC (ID: 17764420/0x010F1044)], work=[235*, 0*]
 19: 0x06D0 [0x6B] STOP_AND_IDLE: Unnamed NPC (ID: 17764420/0x010F1044) stops current action and resets to idle (animation="idl0")
 20: 0x06D9 [0x78] ENABLE_GAME_TIMER_RESET_WEATHER()
 21: 0x06DA [0x00] END_REQSTACK()
```

### Event 65535.12

#### Metadata

| Field        | Value     |
|--------------|-----------|
| Entrypoint   | 0x06DB    |
| Data Size    | 166 bytes |
| Instructions | 18        |

```
      00 01 02 03 04 05 06 07  08 09 0A 0B 0C 0D 0E 0F
      -- -- -- -- -- -- -- --  -- -- -- -- -- -- -- --
06D0:                                   29 05 F0 FF FF             )....
06E0: 7F 4E 29 05 43 10 0F 01  03 4A F0 FF FF 7F 43 10  .N).C....J....C.
06F0: 0F 01 4A 43 10 0F 01 F0  FF FF 7F 45 13 80 F8 FF  ..JC.......E....
0700: FF 7F F8 FF FF 7F 73 31  33 31 08 80 1C 0D 80 45  ......s131.....E
0710: 09 80 F8 FF FF 7F F8 FF  FF 7F 66 64 69 31 08 80  ..........fdi1..
0720: 1C 0D 80 66 0E 80 43 10  0F 01 43 10 0F 01 74 6C  ...f..C...C...tl
0730: 6B 30 03 02 10 24 80 2B  43 10 0F 01 26 80 23 66  k0...$.+C...&.#f
0740: 0E 80 43 10 0F 01 43 10  0F 01 74 6C 6B 31 1C 17  ..C...C...tlk1..
0750: 80 45 09 80 F8 FF FF 7F  F8 FF FF 7F 66 64 6F 31  .E..........fdo1
0760: 08 80 55 09 80 F8 FF FF  7F F8 FF FF 7F 66 64 6F  ..U..........fdo
0770: 31 52 13 80 F8 FF FF 7F  F8 FF FF 7F 73 31 33 31  1R..........s131
0780: 00                                                .               
```

#### Opcodes

```
  0: 0x06DB [0x29] REQ_SET_WAIT(priority=0x05, entity_id=LocalPlayer, tag_num=0x4E)
  1: 0x06E2 [0x29] REQ_SET_WAIT(priority=0x05, entity_id=Pulonono (ID: 17764419/0x010F1043), tag_num=0x03)
  2: 0x06E9 [0x4A] LocalPlayer looks at Pulonono (ID: 17764419/0x010F1043)
  3: 0x06F2 [0x4A] Pulonono (ID: 17764419/0x010F1043) looks at LocalPlayer
  4: 0x06FB [0x45] LOAD_SCHEDULED_TASK: Load scheduler "s131" with entities [EventEntity, EventEntity], work=[254*, 0*]
  5: 0x070C [0x1C] WAIT(60* ticks)
  6: 0x070F [0x45] LOAD_SCHEDULED_TASK: Load scheduler "fdi1" with entities [EventEntity, EventEntity], work=[200*, 0*]
  7: 0x0720 [0x1C] WAIT(60* ticks)
  8: 0x0723 [0x66] LOAD_EXT_SCHEDULER_MAIN: Load scheduler "tlk0" with entities [Pulonono (ID: 17764419/0x010F1043), Pulonono (ID: 17764419/0x010F1043)], work=49*
  9: 0x0732 [0x03] Work_Zone[2] = 806*
 10: 0x0737 [0x2B] Pulonono (ID: 17764419/0x010F1043) [11456*]:
    → "That should be enough! Hand over the $3 now."
 11: 0x073E [0x23] WAIT_FOR_DIALOG_INTERACTION
 12: 0x073F [0x66] LOAD_EXT_SCHEDULER_MAIN: Load scheduler "tlk1" with entities [Pulonono (ID: 17764419/0x010F1043), Pulonono (ID: 17764419/0x010F1043)], work=49*
 13: 0x074E [0x1C] WAIT(30* ticks)
 14: 0x0751 [0x45] LOAD_SCHEDULED_TASK: Load scheduler "fdo1" with entities [EventEntity, EventEntity], work=[200*, 0*]
 15: 0x0762 [0x55] WAIT_LOAD_SCHEDULER: Wait for scheduler "fdo1" with entities [EventEntity, EventEntity], work=200*
 16: 0x0771 [0x52] END_LOAD_SCHEDULER: End scheduler "s131" with entities [EventEntity, EventEntity], work=254*
 17: 0x0780 [0x00] END_REQSTACK()
```

### Event 65535.13

#### Metadata

| Field        | Value     |
|--------------|-----------|
| Entrypoint   | 0x0781    |
| Data Size    | 176 bytes |
| Instructions | 20        |

```
      00 01 02 03 04 05 06 07  08 09 0A 0B 0C 0D 0E 0F
      -- -- -- -- -- -- -- --  -- -- -- -- -- -- -- --
0780:    29 05 44 10 0F 01 04  80 44 10 0F 01 1C 17 80   ).D.....D......
0790: 5B 19 80 44 10 0F 01 44  10 0F 01 68 69 30 32 45  [..D...D...hi02E
07A0: 21 80 F8 FF FF 7F F8 FF  FF 7F 73 31 37 39 08 80  !.........s179..
07B0: 45 21 80 F8 FF FF 7F F8  FF FF 7F 73 68 6E 61 08  E!.........shna.
07C0: 80 1C 0D 80 45 09 80 F8  FF FF 7F F8 FF FF 7F 66  ....E..........f
07D0: 64 69 31 08 80 1C 0D 80  1A 8D 3C 2B 43 10 0F 01  di1.......<+C...
07E0: 27 80 23 1A 98 3C 45 09  80 F8 FF FF 7F F8 FF FF  '.#..<E.........
07F0: 7F 66 64 6F 31 08 80 55  09 80 F8 FF FF 7F F8 FF  .fdo1..U........
0800: FF 7F 66 64 6F 31 52 21  80 F8 FF FF 7F F8 FF FF  ..fdo1R!........
0810: 7F 73 31 37 39 6B 69 64  6C 30 44 10 0F 01 45 21  .s179kidl0D...E!
0820: 80 F8 FF FF 7F F8 FF FF  7F 65 68 6E 61 08 80 78  .........ehna..x
0830: 00                                                .               
```

#### Opcodes

```
  0: 0x0781 [0x29] REQ_SET_WAIT(priority=0x05, entity_id=Unnamed NPC (ID: 17764420/0x010F1044), tag_num=0x04)
  1: 0x0788 [0x80] LOAD_WAIT(entity=Unnamed NPC (ID: 17764420/0x010F1044))
  2: 0x078D [0x1C] WAIT(30* ticks)
  3: 0x0790 [0x5B] LOAD_EXT_SCHEDULER: Load scheduler "hi02" with entities [Unnamed NPC (ID: 17764420/0x010F1044), Unnamed NPC (ID: 17764420/0x010F1044)], work=872*
  4: 0x079F [0x45] LOAD_SCHEDULED_TASK: Load scheduler "s179" with entities [EventEntity, EventEntity], work=[198*, 0*]
  5: 0x07B0 [0x45] LOAD_SCHEDULED_TASK: Load scheduler "shna" with entities [EventEntity, EventEntity], work=[198*, 0*]
  6: 0x07C1 [0x1C] WAIT(60* ticks)
  7: 0x07C4 [0x45] LOAD_SCHEDULED_TASK: Load scheduler "fdi1" with entities [EventEntity, EventEntity], work=[200*, 0*]
  8: 0x07D5 [0x1C] WAIT(60* ticks)
  9: 0x07D8 [0x1A] CALL_SUBROUTINE(address=0x3C8D)
 10: 0x07DB [0x2B] Pulonono (ID: 17764419/0x010F1043) [11457*]:
    → "Hm...yes...$0 should be able to sleep well with this..."
 11: 0x07E2 [0x23] WAIT_FOR_DIALOG_INTERACTION
 12: 0x07E3 [0x1A] CALL_SUBROUTINE(address=0x3C98)
 13: 0x07E6 [0x45] LOAD_SCHEDULED_TASK: Load scheduler "fdo1" with entities [EventEntity, EventEntity], work=[200*, 0*]
 14: 0x07F7 [0x55] WAIT_LOAD_SCHEDULER: Wait for scheduler "fdo1" with entities [EventEntity, EventEntity], work=200*
 15: 0x0806 [0x52] END_LOAD_SCHEDULER: End scheduler "s179" with entities [EventEntity, EventEntity], work=198*
 16: 0x0815 [0x6B] STOP_AND_IDLE: Unnamed NPC (ID: 17764420/0x010F1044) stops current action and resets to idle (animation="idl0")
 17: 0x081E [0x45] LOAD_SCHEDULED_TASK: Load scheduler "ehna" with entities [EventEntity, EventEntity], work=[198*, 0*]
 18: 0x082F [0x78] ENABLE_GAME_TIMER_RESET_WEATHER()
 19: 0x0830 [0x00] END_REQSTACK()
```

### Event 65535.14

#### Metadata

| Field        | Value    |
|--------------|----------|
| Entrypoint   | 0x0831   |
| Data Size    | 98 bytes |
| Instructions | 15       |

```
      00 01 02 03 04 05 06 07  08 09 0A 0B 0C 0D 0E 0F
      -- -- -- -- -- -- -- --  -- -- -- -- -- -- -- --
0830:    1C 0D 80 27 05 43 10  0F 01 0B 1A 8D 3C 2B 43   ...'.C......<+C
0840: 10 0F 01 28 80 23 1A 98  3C 2A 05 43 10 0F 01 45  ...(.#..<*.C...E
0850: 09 80 F8 FF FF 7F F8 FF  FF 7F 66 64 6F 31 08 80  ..........fdo1..
0860: 55 09 80 F8 FF FF 7F F8  FF FF 7F 66 64 6F 31 52  U..........fdo1R
0870: 21 80 F8 FF FF 7F F8 FF  FF 7F 73 31 38 37 2A 05  !.........s187*.
0880: 43 10 0F 01 78 4E 00 F0  FF FF 7F 29 05 43 10 0F  C...xN.....).C..
0890: 01 03 00                                          ...             
```

#### Opcodes

```
  0: 0x0831 [0x1C] WAIT(60* ticks)
  1: 0x0834 [0x27] REQ_SET(priority=0x05, entity_id=Pulonono (ID: 17764419/0x010F1043), tag_num=0x0B)
  2: 0x083B [0x1A] CALL_SUBROUTINE(address=0x3C8D)
  3: 0x083E [0x2B] Pulonono (ID: 17764419/0x010F1043) [11510*]:
    → "$0 is spoiled rotten! You should discipline it more often!"
  4: 0x0845 [0x23] WAIT_FOR_DIALOG_INTERACTION
  5: 0x0846 [0x1A] CALL_SUBROUTINE(address=0x3C98)
  6: 0x0849 [0x2A] GET_REQ_LEVEL(level=5, entity_id=Pulonono (ID: 17764419/0x010F1043))
  7: 0x084F [0x45] LOAD_SCHEDULED_TASK: Load scheduler "fdo1" with entities [EventEntity, EventEntity], work=[200*, 0*]
  8: 0x0860 [0x55] WAIT_LOAD_SCHEDULER: Wait for scheduler "fdo1" with entities [EventEntity, EventEntity], work=200*
  9: 0x086F [0x52] END_LOAD_SCHEDULER: End scheduler "s187" with entities [EventEntity, EventEntity], work=198*
 10: 0x087E [0x2A] GET_REQ_LEVEL(level=5, entity_id=Pulonono (ID: 17764419/0x010F1043))
 11: 0x0884 [0x78] ENABLE_GAME_TIMER_RESET_WEATHER()
 12: 0x0885 [0x4E] SET_ENTITY_HIDE_FLAG: Show LocalPlayer
 13: 0x088B [0x29] REQ_SET_WAIT(priority=0x05, entity_id=Pulonono (ID: 17764419/0x010F1043), tag_num=0x03)
 14: 0x0892 [0x00] END_REQSTACK()
```

### Event 65535.15

#### Metadata

| Field        | Value     |
|--------------|-----------|
| Entrypoint   | 0x0893    |
| Data Size    | 191 bytes |
| Instructions | 27        |

```
      00 01 02 03 04 05 06 07  08 09 0A 0B 0C 0D 0E 0F
      -- -- -- -- -- -- -- --  -- -- -- -- -- -- -- --
0890:          35 11 80 78 75  00 0B 80 75 01 1C 12 80     5..xu...u....
08A0: 22 00 29 05 F0 FF FF 7F  4E 80 43 10 0F 01 92 01  ".).....N.C.....
08B0: 43 10 0F 01 4A F0 FF FF  7F 43 10 0F 01 4A 43 10  C...J....C...JC.
08C0: 0F 01 F0 FF FF 7F 45 13  80 F8 FF FF 7F F8 FF FF  ......E.........
08D0: 7F 73 31 33 32 08 80 1C  0D 80 45 09 80 F8 FF FF  .s132.....E.....
08E0: 7F F8 FF FF 7F 66 64 69  31 08 80 1C 0D 80 66 0E  .....fdi1.....f.
08F0: 80 43 10 0F 01 43 10 0F  01 74 6C 6B 30 1A 8D 3C  .C...C...tlk0..<
0900: 2B 43 10 0F 01 29 80 23  66 0E 80 43 10 0F 01 43  +C...).#f..C...C
0910: 10 0F 01 74 6C 6B 31 2B  43 10 0F 01 2A 80 23 1A  ...tlk1+C...*.#.
0920: 98 3C 45 09 80 F8 FF FF  7F F8 FF FF 7F 66 64 6F  .<E..........fdo
0930: 31 08 80 55 09 80 F8 FF  FF 7F F8 FF FF 7F 66 64  1..U..........fd
0940: 6F 31 52 13 80 F8 FF FF  7F F8 FF FF 7F 73 31 33  o1R..........s13
0950: 32 00                                             2.              
```

#### Opcodes

```
  0: 0x0893 [0x35] LOAD_ZONE_NO_CLOSE(zone_id=241*)
  1: 0x0896 [0x78] ENABLE_GAME_TIMER_RESET_WEATHER()
  2: 0x0897 [0x75] LOAD_ROOM(Load indoor room, room=421*)
  3: 0x089B [0x75] LOAD_ROOM(No action)
  4: 0x089D [0x1C] WAIT(1* ticks)
  5: 0x08A0 [0x22] ENTITY_HIDE_FLAG(enabled=0x00)
  6: 0x08A2 [0x29] REQ_SET_WAIT(priority=0x05, entity_id=LocalPlayer, tag_num=0x4E)
  7: 0x08A9 [0x80] LOAD_WAIT(entity=Pulonono (ID: 17764419/0x010F1043))
  8: 0x08AE [0x92] Pulonono (ID: 17764419/0x010F1043)->Render.Flags3 ^= 0x01
  9: 0x08B4 [0x4A] LocalPlayer looks at Pulonono (ID: 17764419/0x010F1043)
 10: 0x08BD [0x4A] Pulonono (ID: 17764419/0x010F1043) looks at LocalPlayer
 11: 0x08C6 [0x45] LOAD_SCHEDULED_TASK: Load scheduler "s132" with entities [EventEntity, EventEntity], work=[254*, 0*]
 12: 0x08D7 [0x1C] WAIT(60* ticks)
 13: 0x08DA [0x45] LOAD_SCHEDULED_TASK: Load scheduler "fdi1" with entities [EventEntity, EventEntity], work=[200*, 0*]
 14: 0x08EB [0x1C] WAIT(60* ticks)
 15: 0x08EE [0x66] LOAD_EXT_SCHEDULER_MAIN: Load scheduler "tlk0" with entities [Pulonono (ID: 17764419/0x010F1043), Pulonono (ID: 17764419/0x010F1043)], work=49*
 16: 0x08FD [0x1A] CALL_SUBROUTINE(address=0x3C8D)
 17: 0x0900 [0x2B] Pulonono (ID: 17764419/0x010F1043) [11513*]:
    → "I think it just wants attention, though..."
 18: 0x0907 [0x23] WAIT_FOR_DIALOG_INTERACTION
 19: 0x0908 [0x66] LOAD_EXT_SCHEDULER_MAIN: Load scheduler "tlk1" with entities [Pulonono (ID: 17764419/0x010F1043), Pulonono (ID: 17764419/0x010F1043)], work=49*
 20: 0x0917 [0x2B] Pulonono (ID: 17764419/0x010F1043) [11514*]:
    → "It should come back if we wait a while."
 21: 0x091E [0x23] WAIT_FOR_DIALOG_INTERACTION
 22: 0x091F [0x1A] CALL_SUBROUTINE(address=0x3C98)
 23: 0x0922 [0x45] LOAD_SCHEDULED_TASK: Load scheduler "fdo1" with entities [EventEntity, EventEntity], work=[200*, 0*]
 24: 0x0933 [0x55] WAIT_LOAD_SCHEDULER: Wait for scheduler "fdo1" with entities [EventEntity, EventEntity], work=200*
 25: 0x0942 [0x52] END_LOAD_SCHEDULER: End scheduler "s132" with entities [EventEntity, EventEntity], work=254*
 26: 0x0951 [0x00] END_REQSTACK()
```

### Event 65535.16

#### Metadata

| Field        | Value     |
|--------------|-----------|
| Entrypoint   | 0x0952    |
| Data Size    | 180 bytes |
| Instructions | 20        |

```
      00 01 02 03 04 05 06 07  08 09 0A 0B 0C 0D 0E 0F
      -- -- -- -- -- -- -- --  -- -- -- -- -- -- -- --
0950:       29 05 44 10 0F 01  04 80 44 10 0F 01 1C 17    ).D.....D.....
0960: 80 5B 19 80 44 10 0F 01  44 10 0F 01 68 69 30 32  .[..D...D...hi02
0970: 45 21 80 F8 FF FF 7F F8  FF FF 7F 73 68 6E 61 08  E!.........shna.
0980: 80 45 21 80 F8 FF FF 7F  F8 FF FF 7F 73 31 37 39  .E!.........s179
0990: 08 80 1C 0D 80 45 09 80  F8 FF FF 7F F8 FF FF 7F  .....E..........
09A0: 66 64 69 31 08 80 1C 0D  80 1A 8D 3C 2B 43 10 0F  fdi1.......<+C..
09B0: 01 2B 80 23 2B 43 10 0F  01 2C 80 23 45 09 80 F8  .+.#+C...,.#E...
09C0: FF FF 7F F8 FF FF 7F 66  64 6F 31 08 80 55 09 80  .......fdo1..U..
09D0: F8 FF FF 7F F8 FF FF 7F  66 64 6F 31 52 21 80 F8  ........fdo1R!..
09E0: FF FF 7F F8 FF FF 7F 73  31 37 39 45 21 80 F8 FF  .......s179E!...
09F0: FF 7F F8 FF FF 7F 65 68  6E 61 08 80 6B 69 64 6C  ......ehna..kidl
0A00: 30 44 10 0F 01 00                                 0D....          
```

#### Opcodes

```
  0: 0x0952 [0x29] REQ_SET_WAIT(priority=0x05, entity_id=Unnamed NPC (ID: 17764420/0x010F1044), tag_num=0x04)
  1: 0x0959 [0x80] LOAD_WAIT(entity=Unnamed NPC (ID: 17764420/0x010F1044))
  2: 0x095E [0x1C] WAIT(30* ticks)
  3: 0x0961 [0x5B] LOAD_EXT_SCHEDULER: Load scheduler "hi02" with entities [Unnamed NPC (ID: 17764420/0x010F1044), Unnamed NPC (ID: 17764420/0x010F1044)], work=872*
  4: 0x0970 [0x45] LOAD_SCHEDULED_TASK: Load scheduler "shna" with entities [EventEntity, EventEntity], work=[198*, 0*]
  5: 0x0981 [0x45] LOAD_SCHEDULED_TASK: Load scheduler "s179" with entities [EventEntity, EventEntity], work=[198*, 0*]
  6: 0x0992 [0x1C] WAIT(60* ticks)
  7: 0x0995 [0x45] LOAD_SCHEDULED_TASK: Load scheduler "fdi1" with entities [EventEntity, EventEntity], work=[200*, 0*]
  8: 0x09A6 [0x1C] WAIT(60* ticks)
  9: 0x09A9 [0x1A] CALL_SUBROUTINE(address=0x3C8D)
 10: 0x09AC [0x2B] Pulonono (ID: 17764419/0x010F1043) [11452*]:
    → "Lately, $0 has been crying loud enough at night to wake the dead!"
 11: 0x09B3 [0x23] WAIT_FOR_DIALOG_INTERACTION
 12: 0x09B4 [0x2B] Pulonono (ID: 17764419/0x010F1043) [11453*]:
    → "I know chicks cry a lot, but this is the worst..."
 13: 0x09BB [0x23] WAIT_FOR_DIALOG_INTERACTION
 14: 0x09BC [0x45] LOAD_SCHEDULED_TASK: Load scheduler "fdo1" with entities [EventEntity, EventEntity], work=[200*, 0*]
 15: 0x09CD [0x55] WAIT_LOAD_SCHEDULER: Wait for scheduler "fdo1" with entities [EventEntity, EventEntity], work=200*
 16: 0x09DC [0x52] END_LOAD_SCHEDULER: End scheduler "s179" with entities [EventEntity, EventEntity], work=198*
 17: 0x09EB [0x45] LOAD_SCHEDULED_TASK: Load scheduler "ehna" with entities [EventEntity, EventEntity], work=[198*, 0*]
 18: 0x09FC [0x6B] STOP_AND_IDLE: Unnamed NPC (ID: 17764420/0x010F1044) stops current action and resets to idle (animation="idl0")
 19: 0x0A05 [0x00] END_REQSTACK()
```

### Event 65535.17

#### Metadata

| Field        | Value     |
|--------------|-----------|
| Entrypoint   | 0x0A06    |
| Data Size    | 186 bytes |
| Instructions | 27        |

```
      00 01 02 03 04 05 06 07  08 09 0A 0B 0C 0D 0E 0F
      -- -- -- -- -- -- -- --  -- -- -- -- -- -- -- --
0A00:                   35 11  80 78 75 00 0B 80 75 01        5..xu...u.
0A10: 1C 12 80 22 00 29 05 F0  FF FF 7F 4E 29 05 43 10  ...".).....N).C.
0A20: 0F 01 03 4A F0 FF FF 7F  43 10 0F 01 45 13 80 F8  ...J....C...E...
0A30: FF FF 7F F8 FF FF 7F 73  31 33 30 08 80 1C 0D 80  .......s130.....
0A40: 45 09 80 F8 FF FF 7F F8  FF FF 7F 66 64 69 31 08  E..........fdi1.
0A50: 80 1C 0D 80 66 0E 80 43  10 0F 01 43 10 0F 01 74  ....f..C...C...t
0A60: 6C 6B 30 03 02 10 24 80  2B 43 10 0F 01 2D 80 23  lk0...$.+C...-.#
0A70: 66 0E 80 43 10 0F 01 43  10 0F 01 74 6C 6B 31 1A  f..C...C...tlk1.
0A80: 8D 3C 2B 43 10 0F 01 2E  80 23 1A 98 3C 48 2F 80  .<+C.....#..<H/.
0A90: 45 09 80 F8 FF FF 7F F8  FF FF 7F 66 64 6F 31 08  E..........fdo1.
0AA0: 80 55 09 80 F8 FF FF 7F  F8 FF FF 7F 66 64 6F 31  .U..........fdo1
0AB0: 52 13 80 F8 FF FF 7F F8  FF FF 7F 73 31 33 30 00  R..........s130.
```

#### Opcodes

```
  0: 0x0A06 [0x35] LOAD_ZONE_NO_CLOSE(zone_id=241*)
  1: 0x0A09 [0x78] ENABLE_GAME_TIMER_RESET_WEATHER()
  2: 0x0A0A [0x75] LOAD_ROOM(Load indoor room, room=421*)
  3: 0x0A0E [0x75] LOAD_ROOM(No action)
  4: 0x0A10 [0x1C] WAIT(1* ticks)
  5: 0x0A13 [0x22] ENTITY_HIDE_FLAG(enabled=0x00)
  6: 0x0A15 [0x29] REQ_SET_WAIT(priority=0x05, entity_id=LocalPlayer, tag_num=0x4E)
  7: 0x0A1C [0x29] REQ_SET_WAIT(priority=0x05, entity_id=Pulonono (ID: 17764419/0x010F1043), tag_num=0x03)
  8: 0x0A23 [0x4A] LocalPlayer looks at Pulonono (ID: 17764419/0x010F1043)
  9: 0x0A2C [0x45] LOAD_SCHEDULED_TASK: Load scheduler "s130" with entities [EventEntity, EventEntity], work=[254*, 0*]
 10: 0x0A3D [0x1C] WAIT(60* ticks)
 11: 0x0A40 [0x45] LOAD_SCHEDULED_TASK: Load scheduler "fdi1" with entities [EventEntity, EventEntity], work=[200*, 0*]
 12: 0x0A51 [0x1C] WAIT(60* ticks)
 13: 0x0A54 [0x66] LOAD_EXT_SCHEDULER_MAIN: Load scheduler "tlk0" with entities [Pulonono (ID: 17764419/0x010F1043), Pulonono (ID: 17764419/0x010F1043)], work=49*
 14: 0x0A63 [0x03] Work_Zone[2] = 806*
 15: 0x0A68 [0x2B] Pulonono (ID: 17764419/0x010F1043) [11454*]:
    → "I know! Could you hold on to this $3 for a while?"
 16: 0x0A6F [0x23] WAIT_FOR_DIALOG_INTERACTION
 17: 0x0A70 [0x66] LOAD_EXT_SCHEDULER_MAIN: Load scheduler "tlk1" with entities [Pulonono (ID: 17764419/0x010F1043), Pulonono (ID: 17764419/0x010F1043)], work=49*
 18: 0x0A7F [0x1A] CALL_SUBROUTINE(address=0x3C8D)
 19: 0x0A82 [0x2B] Pulonono (ID: 17764419/0x010F1043) [11455*]:
    → "Having something with your scent and warmth on it should comfort the chick."
 20: 0x0A89 [0x23] WAIT_FOR_DIALOG_INTERACTION
 21: 0x0A8A [0x1A] CALL_SUBROUTINE(address=0x3C98)
 22: 0x0A8D [0x48] [System] [11705*]:
    → "You obtain $6!"
 23: 0x0A90 [0x45] LOAD_SCHEDULED_TASK: Load scheduler "fdo1" with entities [EventEntity, EventEntity], work=[200*, 0*]
 24: 0x0AA1 [0x55] WAIT_LOAD_SCHEDULER: Wait for scheduler "fdo1" with entities [EventEntity, EventEntity], work=200*
 25: 0x0AB0 [0x52] END_LOAD_SCHEDULER: End scheduler "s130" with entities [EventEntity, EventEntity], work=254*
 26: 0x0ABF [0x00] END_REQSTACK()
```

### Event 65535.18

#### Metadata

| Field        | Value     |
|--------------|-----------|
| Entrypoint   | 0x0AC0    |
| Data Size    | 165 bytes |
| Instructions | 19        |

```
      00 01 02 03 04 05 06 07  08 09 0A 0B 0C 0D 0E 0F
      -- -- -- -- -- -- -- --  -- -- -- -- -- -- -- --
0AC0: 29 05 F0 FF FF 7F 4E 29  05 43 10 0F 01 03 4A F0  ).....N).C....J.
0AD0: FF FF 7F 43 10 0F 01 4A  43 10 0F 01 F0 FF FF 7F  ...C...JC.......
0AE0: 45 13 80 F8 FF FF 7F F8  FF FF 7F 73 32 33 39 08  E..........s239.
0AF0: 80 1C 0D 80 45 09 80 F8  FF FF 7F F8 FF FF 7F 66  ....E..........f
0B00: 64 69 31 08 80 1C 0D 80  66 0E 80 43 10 0F 01 43  di1.....f..C...C
0B10: 10 0F 01 74 6C 6B 30 1A  8D 3C 2B 43 10 0F 01 30  ...tlk0..<+C...0
0B20: 80 23 1A 98 3C 66 0E 80  43 10 0F 01 43 10 0F 01  .#..<f..C...C...
0B30: 74 6C 6B 31 45 09 80 F8  FF FF 7F F8 FF FF 7F 66  tlk1E..........f
0B40: 64 6F 31 08 80 55 09 80  F8 FF FF 7F F8 FF FF 7F  do1..U..........
0B50: 66 64 6F 31 52 13 80 F8  FF FF 7F F8 FF FF 7F 73  fdo1R..........s
0B60: 32 33 39 78 00                                    239x.           
```

#### Opcodes

```
  0: 0x0AC0 [0x29] REQ_SET_WAIT(priority=0x05, entity_id=LocalPlayer, tag_num=0x4E)
  1: 0x0AC7 [0x29] REQ_SET_WAIT(priority=0x05, entity_id=Pulonono (ID: 17764419/0x010F1043), tag_num=0x03)
  2: 0x0ACE [0x4A] LocalPlayer looks at Pulonono (ID: 17764419/0x010F1043)
  3: 0x0AD7 [0x4A] Pulonono (ID: 17764419/0x010F1043) looks at LocalPlayer
  4: 0x0AE0 [0x45] LOAD_SCHEDULED_TASK: Load scheduler "s239" with entities [EventEntity, EventEntity], work=[254*, 0*]
  5: 0x0AF1 [0x1C] WAIT(60* ticks)
  6: 0x0AF4 [0x45] LOAD_SCHEDULED_TASK: Load scheduler "fdi1" with entities [EventEntity, EventEntity], work=[200*, 0*]
  7: 0x0B05 [0x1C] WAIT(60* ticks)
  8: 0x0B08 [0x66] LOAD_EXT_SCHEDULER_MAIN: Load scheduler "tlk0" with entities [Pulonono (ID: 17764419/0x010F1043), Pulonono (ID: 17764419/0x010F1043)], work=49*
  9: 0x0B17 [0x1A] CALL_SUBROUTINE(address=0x3C8D)
 10: 0x0B1A [0x2B] Pulonono (ID: 17764419/0x010F1043) [11493*]:
    → "$0's injury has completely healed!"
 11: 0x0B21 [0x23] WAIT_FOR_DIALOG_INTERACTION
 12: 0x0B22 [0x1A] CALL_SUBROUTINE(address=0x3C98)
 13: 0x0B25 [0x66] LOAD_EXT_SCHEDULER_MAIN: Load scheduler "tlk1" with entities [Pulonono (ID: 17764419/0x010F1043), Pulonono (ID: 17764419/0x010F1043)], work=49*
 14: 0x0B34 [0x45] LOAD_SCHEDULED_TASK: Load scheduler "fdo1" with entities [EventEntity, EventEntity], work=[200*, 0*]
 15: 0x0B45 [0x55] WAIT_LOAD_SCHEDULER: Wait for scheduler "fdo1" with entities [EventEntity, EventEntity], work=200*
 16: 0x0B54 [0x52] END_LOAD_SCHEDULER: End scheduler "s239" with entities [EventEntity, EventEntity], work=254*
 17: 0x0B63 [0x78] ENABLE_GAME_TIMER_RESET_WEATHER()
 18: 0x0B64 [0x00] END_REQSTACK()
```

### Event 65535.19

#### Metadata

| Field        | Value     |
|--------------|-----------|
| Entrypoint   | 0x0B65    |
| Data Size    | 165 bytes |
| Instructions | 19        |

```
      00 01 02 03 04 05 06 07  08 09 0A 0B 0C 0D 0E 0F
      -- -- -- -- -- -- -- --  -- -- -- -- -- -- -- --
0B60:                29 05 F0  FF FF 7F 4E 29 05 43 10       ).....N).C.
0B70: 0F 01 03 4A F0 FF FF 7F  43 10 0F 01 4A 43 10 0F  ...J....C...JC..
0B80: 01 F0 FF FF 7F 45 13 80  F8 FF FF 7F F8 FF FF 7F  .....E..........
0B90: 73 32 33 39 08 80 1C 0D  80 45 09 80 F8 FF FF 7F  s239.....E......
0BA0: F8 FF FF 7F 66 64 69 31  08 80 1C 0D 80 66 0E 80  ....fdi1.....f..
0BB0: 43 10 0F 01 43 10 0F 01  74 6C 6B 30 1A 8D 3C 2B  C...C...tlk0..<+
0BC0: 43 10 0F 01 31 80 23 1A  98 3C 66 0E 80 43 10 0F  C...1.#..<f..C..
0BD0: 01 43 10 0F 01 74 6C 6B  31 45 09 80 F8 FF FF 7F  .C...tlk1E......
0BE0: F8 FF FF 7F 66 64 6F 31  08 80 55 09 80 F8 FF FF  ....fdo1..U.....
0BF0: 7F F8 FF FF 7F 66 64 6F  31 52 13 80 F8 FF FF 7F  .....fdo1R......
0C00: F8 FF FF 7F 73 32 33 39  78 00                    ....s239x.      
```

#### Opcodes

```
  0: 0x0B65 [0x29] REQ_SET_WAIT(priority=0x05, entity_id=LocalPlayer, tag_num=0x4E)
  1: 0x0B6C [0x29] REQ_SET_WAIT(priority=0x05, entity_id=Pulonono (ID: 17764419/0x010F1043), tag_num=0x03)
  2: 0x0B73 [0x4A] LocalPlayer looks at Pulonono (ID: 17764419/0x010F1043)
  3: 0x0B7C [0x4A] Pulonono (ID: 17764419/0x010F1043) looks at LocalPlayer
  4: 0x0B85 [0x45] LOAD_SCHEDULED_TASK: Load scheduler "s239" with entities [EventEntity, EventEntity], work=[254*, 0*]
  5: 0x0B96 [0x1C] WAIT(60* ticks)
  6: 0x0B99 [0x45] LOAD_SCHEDULED_TASK: Load scheduler "fdi1" with entities [EventEntity, EventEntity], work=[200*, 0*]
  7: 0x0BAA [0x1C] WAIT(60* ticks)
  8: 0x0BAD [0x66] LOAD_EXT_SCHEDULER_MAIN: Load scheduler "tlk0" with entities [Pulonono (ID: 17764419/0x010F1043), Pulonono (ID: 17764419/0x010F1043)], work=49*
  9: 0x0BBC [0x1A] CALL_SUBROUTINE(address=0x3C8D)
 10: 0x0BBF [0x2B] Pulonono (ID: 17764419/0x010F1043) [11495*]:
    → "$0's illness has completely healed!"
 11: 0x0BC6 [0x23] WAIT_FOR_DIALOG_INTERACTION
 12: 0x0BC7 [0x1A] CALL_SUBROUTINE(address=0x3C98)
 13: 0x0BCA [0x66] LOAD_EXT_SCHEDULER_MAIN: Load scheduler "tlk1" with entities [Pulonono (ID: 17764419/0x010F1043), Pulonono (ID: 17764419/0x010F1043)], work=49*
 14: 0x0BD9 [0x45] LOAD_SCHEDULED_TASK: Load scheduler "fdo1" with entities [EventEntity, EventEntity], work=[200*, 0*]
 15: 0x0BEA [0x55] WAIT_LOAD_SCHEDULER: Wait for scheduler "fdo1" with entities [EventEntity, EventEntity], work=200*
 16: 0x0BF9 [0x52] END_LOAD_SCHEDULER: End scheduler "s239" with entities [EventEntity, EventEntity], work=254*
 17: 0x0C08 [0x78] ENABLE_GAME_TIMER_RESET_WEATHER()
 18: 0x0C09 [0x00] END_REQSTACK()
```

### Event 65535.20

#### Metadata

| Field        | Value     |
|--------------|-----------|
| Entrypoint   | 0x0C0A    |
| Data Size    | 165 bytes |
| Instructions | 19        |

```
      00 01 02 03 04 05 06 07  08 09 0A 0B 0C 0D 0E 0F
      -- -- -- -- -- -- -- --  -- -- -- -- -- -- -- --
0C00:                                29 05 F0 FF FF 7F            ).....
0C10: 4E 29 05 43 10 0F 01 03  4A F0 FF FF 7F 43 10 0F  N).C....J....C..
0C20: 01 4A 43 10 0F 01 F0 FF  FF 7F 45 13 80 F8 FF FF  .JC.......E.....
0C30: 7F F8 FF FF 7F 73 32 33  39 08 80 1C 0D 80 45 09  .....s239.....E.
0C40: 80 F8 FF FF 7F F8 FF FF  7F 66 64 69 31 08 80 1C  .........fdi1...
0C50: 0D 80 66 0E 80 43 10 0F  01 43 10 0F 01 74 6C 6B  ..f..C...C...tlk
0C60: 30 1A 8D 3C 2B 43 10 0F  01 32 80 23 1A 98 3C 66  0..<+C...2.#..<f
0C70: 0E 80 43 10 0F 01 43 10  0F 01 74 6C 6B 31 45 09  ..C...C...tlk1E.
0C80: 80 F8 FF FF 7F F8 FF FF  7F 66 64 6F 31 08 80 55  .........fdo1..U
0C90: 09 80 F8 FF FF 7F F8 FF  FF 7F 66 64 6F 31 52 13  ..........fdo1R.
0CA0: 80 F8 FF FF 7F F8 FF FF  7F 73 32 33 39 78 00     .........s239x. 
```

#### Opcodes

```
  0: 0x0C0A [0x29] REQ_SET_WAIT(priority=0x05, entity_id=LocalPlayer, tag_num=0x4E)
  1: 0x0C11 [0x29] REQ_SET_WAIT(priority=0x05, entity_id=Pulonono (ID: 17764419/0x010F1043), tag_num=0x03)
  2: 0x0C18 [0x4A] LocalPlayer looks at Pulonono (ID: 17764419/0x010F1043)
  3: 0x0C21 [0x4A] Pulonono (ID: 17764419/0x010F1043) looks at LocalPlayer
  4: 0x0C2A [0x45] LOAD_SCHEDULED_TASK: Load scheduler "s239" with entities [EventEntity, EventEntity], work=[254*, 0*]
  5: 0x0C3B [0x1C] WAIT(60* ticks)
  6: 0x0C3E [0x45] LOAD_SCHEDULED_TASK: Load scheduler "fdi1" with entities [EventEntity, EventEntity], work=[200*, 0*]
  7: 0x0C4F [0x1C] WAIT(60* ticks)
  8: 0x0C52 [0x66] LOAD_EXT_SCHEDULER_MAIN: Load scheduler "tlk0" with entities [Pulonono (ID: 17764419/0x010F1043), Pulonono (ID: 17764419/0x010F1043)], work=49*
  9: 0x0C61 [0x1A] CALL_SUBROUTINE(address=0x3C8D)
 10: 0x0C64 [0x2B] Pulonono (ID: 17764419/0x010F1043) [11497*]:
    → "$0 seems to have a stronger stomach these days!"
 11: 0x0C6B [0x23] WAIT_FOR_DIALOG_INTERACTION
 12: 0x0C6C [0x1A] CALL_SUBROUTINE(address=0x3C98)
 13: 0x0C6F [0x66] LOAD_EXT_SCHEDULER_MAIN: Load scheduler "tlk1" with entities [Pulonono (ID: 17764419/0x010F1043), Pulonono (ID: 17764419/0x010F1043)], work=49*
 14: 0x0C7E [0x45] LOAD_SCHEDULED_TASK: Load scheduler "fdo1" with entities [EventEntity, EventEntity], work=[200*, 0*]
 15: 0x0C8F [0x55] WAIT_LOAD_SCHEDULER: Wait for scheduler "fdo1" with entities [EventEntity, EventEntity], work=200*
 16: 0x0C9E [0x52] END_LOAD_SCHEDULER: End scheduler "s239" with entities [EventEntity, EventEntity], work=254*
 17: 0x0CAD [0x78] ENABLE_GAME_TIMER_RESET_WEATHER()
 18: 0x0CAE [0x00] END_REQSTACK()
```

### Event 65535.21

#### Metadata

| Field        | Value     |
|--------------|-----------|
| Entrypoint   | 0x0CAF    |
| Data Size    | 193 bytes |
| Instructions | 25        |

```
      00 01 02 03 04 05 06 07  08 09 0A 0B 0C 0D 0E 0F
      -- -- -- -- -- -- -- --  -- -- -- -- -- -- -- --
0CA0:                                               29                 )
0CB0: 05 F0 FF FF 7F 4E 29 05  43 10 0F 01 03 4A F0 FF  .....N).C....J..
0CC0: FF 7F 43 10 0F 01 4A 43  10 0F 01 F0 FF FF 7F 45  ..C...JC.......E
0CD0: 13 80 F8 FF FF 7F F8 FF  FF 7F 73 32 33 39 08 80  ..........s239..
0CE0: 1C 0D 80 45 09 80 F8 FF  FF 7F F8 FF FF 7F 66 64  ...E..........fd
0CF0: 69 31 08 80 1C 0D 80 66  0E 80 43 10 0F 01 43 10  i1.....f..C...C.
0D00: 0F 01 74 6C 6B 30 1A 8D  3C 2B 43 10 0F 01 33 80  ..tlk0..<+C...3.
0D10: 23 66 0E 80 43 10 0F 01  43 10 0F 01 74 6C 6B 31  #f..C...C...tlk1
0D20: 2B 43 10 0F 01 34 80 23  6E 43 10 0F 01 35 80 99  +C...4.#nC...5..
0D30: 43 10 0F 01 2B 43 10 0F  01 36 80 23 1A 98 3C 45  C...+C...6.#..<E
0D40: 09 80 F8 FF FF 7F F8 FF  FF 7F 66 64 6F 31 08 80  ..........fdo1..
0D50: 55 09 80 F8 FF FF 7F F8  FF FF 7F 66 64 6F 31 52  U..........fdo1R
0D60: 13 80 F8 FF FF 7F F8 FF  FF 7F 73 32 33 39 78 00  ..........s239x.
```

#### Opcodes

```
  0: 0x0CAF [0x29] REQ_SET_WAIT(priority=0x05, entity_id=LocalPlayer, tag_num=0x4E)
  1: 0x0CB6 [0x29] REQ_SET_WAIT(priority=0x05, entity_id=Pulonono (ID: 17764419/0x010F1043), tag_num=0x03)
  2: 0x0CBD [0x4A] LocalPlayer looks at Pulonono (ID: 17764419/0x010F1043)
  3: 0x0CC6 [0x4A] Pulonono (ID: 17764419/0x010F1043) looks at LocalPlayer
  4: 0x0CCF [0x45] LOAD_SCHEDULED_TASK: Load scheduler "s239" with entities [EventEntity, EventEntity], work=[254*, 0*]
  5: 0x0CE0 [0x1C] WAIT(60* ticks)
  6: 0x0CE3 [0x45] LOAD_SCHEDULED_TASK: Load scheduler "fdi1" with entities [EventEntity, EventEntity], work=[200*, 0*]
  7: 0x0CF4 [0x1C] WAIT(60* ticks)
  8: 0x0CF7 [0x66] LOAD_EXT_SCHEDULER_MAIN: Load scheduler "tlk0" with entities [Pulonono (ID: 17764419/0x010F1043), Pulonono (ID: 17764419/0x010F1043)], work=49*
  9: 0x0D06 [0x1A] CALL_SUBROUTINE(address=0x3C8D)
 10: 0x0D09 [0x2B] Pulonono (ID: 17764419/0x010F1043) [11499*]:
    → "$0 doesn't seem lonely anymore."
 11: 0x0D10 [0x23] WAIT_FOR_DIALOG_INTERACTION
 12: 0x0D11 [0x66] LOAD_EXT_SCHEDULER_MAIN: Load scheduler "tlk1" with entities [Pulonono (ID: 17764419/0x010F1043), Pulonono (ID: 17764419/0x010F1043)], work=49*
 13: 0x0D20 [0x2B] Pulonono (ID: 17764419/0x010F1043) [11500*]:
    → "Afraid it's stopped caring about you now?"
 14: 0x0D27 [0x23] WAIT_FOR_DIALOG_INTERACTION
 15: 0x0D28 [0x6E] Pulonono (ID: 17764419/0x010F1043) uses emote 32*
 16: 0x0D2F [0x99] Wait for Pulonono (ID: 17764419/0x010F1043) animation to complete
 17: 0x0D34 [0x2B] Pulonono (ID: 17764419/0x010F1043) [11501*]:
    → "Hey, don't look at me for an answer... I don't speak Chocobo, you know!"
 18: 0x0D3B [0x23] WAIT_FOR_DIALOG_INTERACTION
 19: 0x0D3C [0x1A] CALL_SUBROUTINE(address=0x3C98)
 20: 0x0D3F [0x45] LOAD_SCHEDULED_TASK: Load scheduler "fdo1" with entities [EventEntity, EventEntity], work=[200*, 0*]
 21: 0x0D50 [0x55] WAIT_LOAD_SCHEDULER: Wait for scheduler "fdo1" with entities [EventEntity, EventEntity], work=200*
 22: 0x0D5F [0x52] END_LOAD_SCHEDULER: End scheduler "s239" with entities [EventEntity, EventEntity], work=254*
 23: 0x0D6E [0x78] ENABLE_GAME_TIMER_RESET_WEATHER()
 24: 0x0D6F [0x00] END_REQSTACK()
```

### Event 65535.22

#### Metadata

| Field        | Value     |
|--------------|-----------|
| Entrypoint   | 0x0D70    |
| Data Size    | 165 bytes |
| Instructions | 19        |

```
      00 01 02 03 04 05 06 07  08 09 0A 0B 0C 0D 0E 0F
      -- -- -- -- -- -- -- --  -- -- -- -- -- -- -- --
0D70: 29 05 F0 FF FF 7F 4E 29  05 43 10 0F 01 03 4A F0  ).....N).C....J.
0D80: FF FF 7F 43 10 0F 01 4A  43 10 0F 01 F0 FF FF 7F  ...C...JC.......
0D90: 45 13 80 F8 FF FF 7F F8  FF FF 7F 73 32 33 39 08  E..........s239.
0DA0: 80 1C 0D 80 45 09 80 F8  FF FF 7F F8 FF FF 7F 66  ....E..........f
0DB0: 64 69 31 08 80 1C 0D 80  66 0E 80 43 10 0F 01 43  di1.....f..C...C
0DC0: 10 0F 01 74 6C 6B 30 1A  8D 3C 2B 43 10 0F 01 37  ...tlk0..<+C...7
0DD0: 80 23 1A 98 3C 66 0E 80  43 10 0F 01 43 10 0F 01  .#..<f..C...C...
0DE0: 74 6C 6B 31 45 09 80 F8  FF FF 7F F8 FF FF 7F 66  tlk1E..........f
0DF0: 64 6F 31 08 80 55 09 80  F8 FF FF 7F F8 FF FF 7F  do1..U..........
0E00: 66 64 6F 31 52 13 80 F8  FF FF 7F F8 FF FF 7F 73  fdo1R..........s
0E10: 32 33 39 78 00                                    239x.           
```

#### Opcodes

```
  0: 0x0D70 [0x29] REQ_SET_WAIT(priority=0x05, entity_id=LocalPlayer, tag_num=0x4E)
  1: 0x0D77 [0x29] REQ_SET_WAIT(priority=0x05, entity_id=Pulonono (ID: 17764419/0x010F1043), tag_num=0x03)
  2: 0x0D7E [0x4A] LocalPlayer looks at Pulonono (ID: 17764419/0x010F1043)
  3: 0x0D87 [0x4A] Pulonono (ID: 17764419/0x010F1043) looks at LocalPlayer
  4: 0x0D90 [0x45] LOAD_SCHEDULED_TASK: Load scheduler "s239" with entities [EventEntity, EventEntity], work=[254*, 0*]
  5: 0x0DA1 [0x1C] WAIT(60* ticks)
  6: 0x0DA4 [0x45] LOAD_SCHEDULED_TASK: Load scheduler "fdi1" with entities [EventEntity, EventEntity], work=[200*, 0*]
  7: 0x0DB5 [0x1C] WAIT(60* ticks)
  8: 0x0DB8 [0x66] LOAD_EXT_SCHEDULER_MAIN: Load scheduler "tlk0" with entities [Pulonono (ID: 17764419/0x010F1043), Pulonono (ID: 17764419/0x010F1043)], work=49*
  9: 0x0DC7 [0x1A] CALL_SUBROUTINE(address=0x3C8D)
 10: 0x0DCA [0x2B] Pulonono (ID: 17764419/0x010F1043) [11503*]:
    → "$0 seems to have had its fill and has calmed down."
 11: 0x0DD1 [0x23] WAIT_FOR_DIALOG_INTERACTION
 12: 0x0DD2 [0x1A] CALL_SUBROUTINE(address=0x3C98)
 13: 0x0DD5 [0x66] LOAD_EXT_SCHEDULER_MAIN: Load scheduler "tlk1" with entities [Pulonono (ID: 17764419/0x010F1043), Pulonono (ID: 17764419/0x010F1043)], work=49*
 14: 0x0DE4 [0x45] LOAD_SCHEDULED_TASK: Load scheduler "fdo1" with entities [EventEntity, EventEntity], work=[200*, 0*]
 15: 0x0DF5 [0x55] WAIT_LOAD_SCHEDULER: Wait for scheduler "fdo1" with entities [EventEntity, EventEntity], work=200*
 16: 0x0E04 [0x52] END_LOAD_SCHEDULER: End scheduler "s239" with entities [EventEntity, EventEntity], work=254*
 17: 0x0E13 [0x78] ENABLE_GAME_TIMER_RESET_WEATHER()
 18: 0x0E14 [0x00] END_REQSTACK()
```

### Event 65535.23

#### Metadata

| Field        | Value     |
|--------------|-----------|
| Entrypoint   | 0x0E15    |
| Data Size    | 165 bytes |
| Instructions | 19        |

```
      00 01 02 03 04 05 06 07  08 09 0A 0B 0C 0D 0E 0F
      -- -- -- -- -- -- -- --  -- -- -- -- -- -- -- --
0E10:                29 05 F0  FF FF 7F 4E 29 05 43 10       ).....N).C.
0E20: 0F 01 03 4A F0 FF FF 7F  43 10 0F 01 4A 43 10 0F  ...J....C...JC..
0E30: 01 F0 FF FF 7F 45 13 80  F8 FF FF 7F F8 FF FF 7F  .....E..........
0E40: 73 32 33 39 08 80 1C 0D  80 45 09 80 F8 FF FF 7F  s239.....E......
0E50: F8 FF FF 7F 66 64 69 31  08 80 1C 0D 80 66 0E 80  ....fdi1.....f..
0E60: 43 10 0F 01 43 10 0F 01  74 6C 6B 30 1A 8D 3C 2B  C...C...tlk0..<+
0E70: 43 10 0F 01 38 80 23 1A  98 3C 66 0E 80 43 10 0F  C...8.#..<f..C..
0E80: 01 43 10 0F 01 74 6C 6B  31 45 09 80 F8 FF FF 7F  .C...tlk1E......
0E90: F8 FF FF 7F 66 64 6F 31  08 80 55 09 80 F8 FF FF  ....fdo1..U.....
0EA0: 7F F8 FF FF 7F 66 64 6F  31 52 13 80 F8 FF FF 7F  .....fdo1R......
0EB0: F8 FF FF 7F 73 32 33 39  78 00                    ....s239x.      
```

#### Opcodes

```
  0: 0x0E15 [0x29] REQ_SET_WAIT(priority=0x05, entity_id=LocalPlayer, tag_num=0x4E)
  1: 0x0E1C [0x29] REQ_SET_WAIT(priority=0x05, entity_id=Pulonono (ID: 17764419/0x010F1043), tag_num=0x03)
  2: 0x0E23 [0x4A] LocalPlayer looks at Pulonono (ID: 17764419/0x010F1043)
  3: 0x0E2C [0x4A] Pulonono (ID: 17764419/0x010F1043) looks at LocalPlayer
  4: 0x0E35 [0x45] LOAD_SCHEDULED_TASK: Load scheduler "s239" with entities [EventEntity, EventEntity], work=[254*, 0*]
  5: 0x0E46 [0x1C] WAIT(60* ticks)
  6: 0x0E49 [0x45] LOAD_SCHEDULED_TASK: Load scheduler "fdi1" with entities [EventEntity, EventEntity], work=[200*, 0*]
  7: 0x0E5A [0x1C] WAIT(60* ticks)
  8: 0x0E5D [0x66] LOAD_EXT_SCHEDULER_MAIN: Load scheduler "tlk0" with entities [Pulonono (ID: 17764419/0x010F1043), Pulonono (ID: 17764419/0x010F1043)], work=49*
  9: 0x0E6C [0x1A] CALL_SUBROUTINE(address=0x3C8D)
 10: 0x0E6F [0x2B] Pulonono (ID: 17764419/0x010F1043) [11521*]:
    → "$0 has burned through that excess energy and calmed down a little."
 11: 0x0E76 [0x23] WAIT_FOR_DIALOG_INTERACTION
 12: 0x0E77 [0x1A] CALL_SUBROUTINE(address=0x3C98)
 13: 0x0E7A [0x66] LOAD_EXT_SCHEDULER_MAIN: Load scheduler "tlk1" with entities [Pulonono (ID: 17764419/0x010F1043), Pulonono (ID: 17764419/0x010F1043)], work=49*
 14: 0x0E89 [0x45] LOAD_SCHEDULED_TASK: Load scheduler "fdo1" with entities [EventEntity, EventEntity], work=[200*, 0*]
 15: 0x0E9A [0x55] WAIT_LOAD_SCHEDULER: Wait for scheduler "fdo1" with entities [EventEntity, EventEntity], work=200*
 16: 0x0EA9 [0x52] END_LOAD_SCHEDULER: End scheduler "s239" with entities [EventEntity, EventEntity], work=254*
 17: 0x0EB8 [0x78] ENABLE_GAME_TIMER_RESET_WEATHER()
 18: 0x0EB9 [0x00] END_REQSTACK()
```

### Event 65535.24

#### Metadata

| Field        | Value     |
|--------------|-----------|
| Entrypoint   | 0x0EBA    |
| Data Size    | 165 bytes |
| Instructions | 19        |

```
      00 01 02 03 04 05 06 07  08 09 0A 0B 0C 0D 0E 0F
      -- -- -- -- -- -- -- --  -- -- -- -- -- -- -- --
0EB0:                                29 05 F0 FF FF 7F            ).....
0EC0: 4E 29 05 43 10 0F 01 03  4A F0 FF FF 7F 43 10 0F  N).C....J....C..
0ED0: 01 4A 43 10 0F 01 F0 FF  FF 7F 45 13 80 F8 FF FF  .JC.......E.....
0EE0: 7F F8 FF FF 7F 73 32 33  39 08 80 1C 0D 80 45 09  .....s239.....E.
0EF0: 80 F8 FF FF 7F F8 FF FF  7F 66 64 69 31 08 80 1C  .........fdi1...
0F00: 0D 80 66 0E 80 43 10 0F  01 43 10 0F 01 74 6C 6B  ..f..C...C...tlk
0F10: 30 1A 8D 3C 2B 43 10 0F  01 39 80 23 1A 98 3C 66  0..<+C...9.#..<f
0F20: 0E 80 43 10 0F 01 43 10  0F 01 74 6C 6B 31 45 09  ..C...C...tlk1E.
0F30: 80 F8 FF FF 7F F8 FF FF  7F 66 64 6F 31 08 80 55  .........fdo1..U
0F40: 09 80 F8 FF FF 7F F8 FF  FF 7F 66 64 6F 31 52 13  ..........fdo1R.
0F50: 80 F8 FF FF 7F F8 FF FF  7F 73 32 33 39 78 00     .........s239x. 
```

#### Opcodes

```
  0: 0x0EBA [0x29] REQ_SET_WAIT(priority=0x05, entity_id=LocalPlayer, tag_num=0x4E)
  1: 0x0EC1 [0x29] REQ_SET_WAIT(priority=0x05, entity_id=Pulonono (ID: 17764419/0x010F1043), tag_num=0x03)
  2: 0x0EC8 [0x4A] LocalPlayer looks at Pulonono (ID: 17764419/0x010F1043)
  3: 0x0ED1 [0x4A] Pulonono (ID: 17764419/0x010F1043) looks at LocalPlayer
  4: 0x0EDA [0x45] LOAD_SCHEDULED_TASK: Load scheduler "s239" with entities [EventEntity, EventEntity], work=[254*, 0*]
  5: 0x0EEB [0x1C] WAIT(60* ticks)
  6: 0x0EEE [0x45] LOAD_SCHEDULED_TASK: Load scheduler "fdi1" with entities [EventEntity, EventEntity], work=[200*, 0*]
  7: 0x0EFF [0x1C] WAIT(60* ticks)
  8: 0x0F02 [0x66] LOAD_EXT_SCHEDULER_MAIN: Load scheduler "tlk0" with entities [Pulonono (ID: 17764419/0x010F1043), Pulonono (ID: 17764419/0x010F1043)], work=49*
  9: 0x0F11 [0x1A] CALL_SUBROUTINE(address=0x3C8D)
 10: 0x0F14 [0x2B] Pulonono (ID: 17764419/0x010F1043) [11523*]:
    → "$0 has burned through that excess mental energy and calmed down a little."
 11: 0x0F1B [0x23] WAIT_FOR_DIALOG_INTERACTION
 12: 0x0F1C [0x1A] CALL_SUBROUTINE(address=0x3C98)
 13: 0x0F1F [0x66] LOAD_EXT_SCHEDULER_MAIN: Load scheduler "tlk1" with entities [Pulonono (ID: 17764419/0x010F1043), Pulonono (ID: 17764419/0x010F1043)], work=49*
 14: 0x0F2E [0x45] LOAD_SCHEDULED_TASK: Load scheduler "fdo1" with entities [EventEntity, EventEntity], work=[200*, 0*]
 15: 0x0F3F [0x55] WAIT_LOAD_SCHEDULER: Wait for scheduler "fdo1" with entities [EventEntity, EventEntity], work=200*
 16: 0x0F4E [0x52] END_LOAD_SCHEDULER: End scheduler "s239" with entities [EventEntity, EventEntity], work=254*
 17: 0x0F5D [0x78] ENABLE_GAME_TIMER_RESET_WEATHER()
 18: 0x0F5E [0x00] END_REQSTACK()
```

### Event 65535.25

#### Metadata

| Field        | Value     |
|--------------|-----------|
| Entrypoint   | 0x0F5F    |
| Data Size    | 165 bytes |
| Instructions | 19        |

```
      00 01 02 03 04 05 06 07  08 09 0A 0B 0C 0D 0E 0F
      -- -- -- -- -- -- -- --  -- -- -- -- -- -- -- --
0F50:                                               29                 )
0F60: 05 F0 FF FF 7F 4E 29 05  43 10 0F 01 03 4A F0 FF  .....N).C....J..
0F70: FF 7F 43 10 0F 01 4A 43  10 0F 01 F0 FF FF 7F 45  ..C...JC.......E
0F80: 13 80 F8 FF FF 7F F8 FF  FF 7F 73 32 33 39 08 80  ..........s239..
0F90: 1C 0D 80 45 09 80 F8 FF  FF 7F F8 FF FF 7F 66 64  ...E..........fd
0FA0: 69 31 08 80 1C 0D 80 66  0E 80 43 10 0F 01 43 10  i1.....f..C...C.
0FB0: 0F 01 74 6C 6B 30 1A 8D  3C 2B 43 10 0F 01 3A 80  ..tlk0..<+C...:.
0FC0: 23 1A 98 3C 66 0E 80 43  10 0F 01 43 10 0F 01 74  #..<f..C...C...t
0FD0: 6C 6B 31 45 09 80 F8 FF  FF 7F F8 FF FF 7F 66 64  lk1E..........fd
0FE0: 6F 31 08 80 55 09 80 F8  FF FF 7F F8 FF FF 7F 66  o1..U..........f
0FF0: 64 6F 31 52 13 80 F8 FF  FF 7F F8 FF FF 7F 73 32  do1R..........s2
1000: 33 39 78 00                                       39x.            
```

#### Opcodes

```
  0: 0x0F5F [0x29] REQ_SET_WAIT(priority=0x05, entity_id=LocalPlayer, tag_num=0x4E)
  1: 0x0F66 [0x29] REQ_SET_WAIT(priority=0x05, entity_id=Pulonono (ID: 17764419/0x010F1043), tag_num=0x03)
  2: 0x0F6D [0x4A] LocalPlayer looks at Pulonono (ID: 17764419/0x010F1043)
  3: 0x0F76 [0x4A] Pulonono (ID: 17764419/0x010F1043) looks at LocalPlayer
  4: 0x0F7F [0x45] LOAD_SCHEDULED_TASK: Load scheduler "s239" with entities [EventEntity, EventEntity], work=[254*, 0*]
  5: 0x0F90 [0x1C] WAIT(60* ticks)
  6: 0x0F93 [0x45] LOAD_SCHEDULED_TASK: Load scheduler "fdi1" with entities [EventEntity, EventEntity], work=[200*, 0*]
  7: 0x0FA4 [0x1C] WAIT(60* ticks)
  8: 0x0FA7 [0x66] LOAD_EXT_SCHEDULER_MAIN: Load scheduler "tlk0" with entities [Pulonono (ID: 17764419/0x010F1043), Pulonono (ID: 17764419/0x010F1043)], work=49*
  9: 0x0FB6 [0x1A] CALL_SUBROUTINE(address=0x3C8D)
 10: 0x0FB9 [0x2B] Pulonono (ID: 17764419/0x010F1043) [11505*]:
    → "Wow...$0 has been waking up every morning lately!"
 11: 0x0FC0 [0x23] WAIT_FOR_DIALOG_INTERACTION
 12: 0x0FC1 [0x1A] CALL_SUBROUTINE(address=0x3C98)
 13: 0x0FC4 [0x66] LOAD_EXT_SCHEDULER_MAIN: Load scheduler "tlk1" with entities [Pulonono (ID: 17764419/0x010F1043), Pulonono (ID: 17764419/0x010F1043)], work=49*
 14: 0x0FD3 [0x45] LOAD_SCHEDULED_TASK: Load scheduler "fdo1" with entities [EventEntity, EventEntity], work=[200*, 0*]
 15: 0x0FE4 [0x55] WAIT_LOAD_SCHEDULER: Wait for scheduler "fdo1" with entities [EventEntity, EventEntity], work=200*
 16: 0x0FF3 [0x52] END_LOAD_SCHEDULER: End scheduler "s239" with entities [EventEntity, EventEntity], work=254*
 17: 0x1002 [0x78] ENABLE_GAME_TIMER_RESET_WEATHER()
 18: 0x1003 [0x00] END_REQSTACK()
```

### Event 65535.26

#### Metadata

| Field        | Value     |
|--------------|-----------|
| Entrypoint   | 0x1004    |
| Data Size    | 165 bytes |
| Instructions | 19        |

```
      00 01 02 03 04 05 06 07  08 09 0A 0B 0C 0D 0E 0F
      -- -- -- -- -- -- -- --  -- -- -- -- -- -- -- --
1000:             29 05 F0 FF  FF 7F 4E 29 05 43 10 0F      ).....N).C..
1010: 01 03 4A F0 FF FF 7F 43  10 0F 01 4A 43 10 0F 01  ..J....C...JC...
1020: F0 FF FF 7F 45 13 80 F8  FF FF 7F F8 FF FF 7F 73  ....E..........s
1030: 32 33 39 08 80 1C 0D 80  45 09 80 F8 FF FF 7F F8  239.....E.......
1040: FF FF 7F 66 64 69 31 08  80 1C 0D 80 66 0E 80 43  ...fdi1.....f..C
1050: 10 0F 01 43 10 0F 01 74  6C 6B 30 1A 8D 3C 2B 43  ...C...tlk0..<+C
1060: 10 0F 01 3B 80 23 1A 98  3C 66 0E 80 43 10 0F 01  ...;.#..<f..C...
1070: 43 10 0F 01 74 6C 6B 31  45 09 80 F8 FF FF 7F F8  C...tlk1E.......
1080: FF FF 7F 66 64 6F 31 08  80 55 09 80 F8 FF FF 7F  ...fdo1..U......
1090: F8 FF FF 7F 66 64 6F 31  52 13 80 F8 FF FF 7F F8  ....fdo1R.......
10A0: FF FF 7F 73 32 33 39 78  00                       ...s239x.       
```

#### Opcodes

```
  0: 0x1004 [0x29] REQ_SET_WAIT(priority=0x05, entity_id=LocalPlayer, tag_num=0x4E)
  1: 0x100B [0x29] REQ_SET_WAIT(priority=0x05, entity_id=Pulonono (ID: 17764419/0x010F1043), tag_num=0x03)
  2: 0x1012 [0x4A] LocalPlayer looks at Pulonono (ID: 17764419/0x010F1043)
  3: 0x101B [0x4A] Pulonono (ID: 17764419/0x010F1043) looks at LocalPlayer
  4: 0x1024 [0x45] LOAD_SCHEDULED_TASK: Load scheduler "s239" with entities [EventEntity, EventEntity], work=[254*, 0*]
  5: 0x1035 [0x1C] WAIT(60* ticks)
  6: 0x1038 [0x45] LOAD_SCHEDULED_TASK: Load scheduler "fdi1" with entities [EventEntity, EventEntity], work=[200*, 0*]
  7: 0x1049 [0x1C] WAIT(60* ticks)
  8: 0x104C [0x66] LOAD_EXT_SCHEDULER_MAIN: Load scheduler "tlk0" with entities [Pulonono (ID: 17764419/0x010F1043), Pulonono (ID: 17764419/0x010F1043)], work=49*
  9: 0x105B [0x1A] CALL_SUBROUTINE(address=0x3C8D)
 10: 0x105E [0x2B] Pulonono (ID: 17764419/0x010F1043) [11507*]:
    → "$0's fever has gone down."
 11: 0x1065 [0x23] WAIT_FOR_DIALOG_INTERACTION
 12: 0x1066 [0x1A] CALL_SUBROUTINE(address=0x3C98)
 13: 0x1069 [0x66] LOAD_EXT_SCHEDULER_MAIN: Load scheduler "tlk1" with entities [Pulonono (ID: 17764419/0x010F1043), Pulonono (ID: 17764419/0x010F1043)], work=49*
 14: 0x1078 [0x45] LOAD_SCHEDULED_TASK: Load scheduler "fdo1" with entities [EventEntity, EventEntity], work=[200*, 0*]
 15: 0x1089 [0x55] WAIT_LOAD_SCHEDULER: Wait for scheduler "fdo1" with entities [EventEntity, EventEntity], work=200*
 16: 0x1098 [0x52] END_LOAD_SCHEDULER: End scheduler "s239" with entities [EventEntity, EventEntity], work=254*
 17: 0x10A7 [0x78] ENABLE_GAME_TIMER_RESET_WEATHER()
 18: 0x10A8 [0x00] END_REQSTACK()
```

### Event 65535.27

#### Metadata

| Field        | Value     |
|--------------|-----------|
| Entrypoint   | 0x10A9    |
| Data Size    | 165 bytes |
| Instructions | 19        |

```
      00 01 02 03 04 05 06 07  08 09 0A 0B 0C 0D 0E 0F
      -- -- -- -- -- -- -- --  -- -- -- -- -- -- -- --
10A0:                             29 05 F0 FF FF 7F 4E           ).....N
10B0: 29 05 43 10 0F 01 03 4A  F0 FF FF 7F 43 10 0F 01  ).C....J....C...
10C0: 4A 43 10 0F 01 F0 FF FF  7F 45 13 80 F8 FF FF 7F  JC.......E......
10D0: F8 FF FF 7F 73 32 33 39  08 80 1C 0D 80 45 09 80  ....s239.....E..
10E0: F8 FF FF 7F F8 FF FF 7F  66 64 69 31 08 80 1C 0D  ........fdi1....
10F0: 80 66 0E 80 43 10 0F 01  43 10 0F 01 74 6C 6B 30  .f..C...C...tlk0
1100: 1A 8D 3C 2B 43 10 0F 01  3C 80 23 1A 98 3C 66 0E  ..<+C...<.#..<f.
1110: 80 43 10 0F 01 43 10 0F  01 74 6C 6B 31 45 09 80  .C...C...tlk1E..
1120: F8 FF FF 7F F8 FF FF 7F  66 64 6F 31 08 80 55 09  ........fdo1..U.
1130: 80 F8 FF FF 7F F8 FF FF  7F 66 64 6F 31 52 13 80  .........fdo1R..
1140: F8 FF FF 7F F8 FF FF 7F  73 32 33 39 78 00        ........s239x.  
```

#### Opcodes

```
  0: 0x10A9 [0x29] REQ_SET_WAIT(priority=0x05, entity_id=LocalPlayer, tag_num=0x4E)
  1: 0x10B0 [0x29] REQ_SET_WAIT(priority=0x05, entity_id=Pulonono (ID: 17764419/0x010F1043), tag_num=0x03)
  2: 0x10B7 [0x4A] LocalPlayer looks at Pulonono (ID: 17764419/0x010F1043)
  3: 0x10C0 [0x4A] Pulonono (ID: 17764419/0x010F1043) looks at LocalPlayer
  4: 0x10C9 [0x45] LOAD_SCHEDULED_TASK: Load scheduler "s239" with entities [EventEntity, EventEntity], work=[254*, 0*]
  5: 0x10DA [0x1C] WAIT(60* ticks)
  6: 0x10DD [0x45] LOAD_SCHEDULED_TASK: Load scheduler "fdi1" with entities [EventEntity, EventEntity], work=[200*, 0*]
  7: 0x10EE [0x1C] WAIT(60* ticks)
  8: 0x10F1 [0x66] LOAD_EXT_SCHEDULER_MAIN: Load scheduler "tlk0" with entities [Pulonono (ID: 17764419/0x010F1043), Pulonono (ID: 17764419/0x010F1043)], work=49*
  9: 0x1100 [0x1A] CALL_SUBROUTINE(address=0x3C8D)
 10: 0x1103 [0x2B] Pulonono (ID: 17764419/0x010F1043) [11509*]:
    → "$0 seems happier lately!"
 11: 0x110A [0x23] WAIT_FOR_DIALOG_INTERACTION
 12: 0x110B [0x1A] CALL_SUBROUTINE(address=0x3C98)
 13: 0x110E [0x66] LOAD_EXT_SCHEDULER_MAIN: Load scheduler "tlk1" with entities [Pulonono (ID: 17764419/0x010F1043), Pulonono (ID: 17764419/0x010F1043)], work=49*
 14: 0x111D [0x45] LOAD_SCHEDULED_TASK: Load scheduler "fdo1" with entities [EventEntity, EventEntity], work=[200*, 0*]
 15: 0x112E [0x55] WAIT_LOAD_SCHEDULER: Wait for scheduler "fdo1" with entities [EventEntity, EventEntity], work=200*
 16: 0x113D [0x52] END_LOAD_SCHEDULER: End scheduler "s239" with entities [EventEntity, EventEntity], work=254*
 17: 0x114C [0x78] ENABLE_GAME_TIMER_RESET_WEATHER()
 18: 0x114D [0x00] END_REQSTACK()
```

### Event 65535.28

#### Metadata

| Field        | Value     |
|--------------|-----------|
| Entrypoint   | 0x114E    |
| Data Size    | 165 bytes |
| Instructions | 19        |

```
      00 01 02 03 04 05 06 07  08 09 0A 0B 0C 0D 0E 0F
      -- -- -- -- -- -- -- --  -- -- -- -- -- -- -- --
1140:                                            29 05                ).
1150: F0 FF FF 7F 4E 29 05 43  10 0F 01 03 4A F0 FF FF  ....N).C....J...
1160: 7F 43 10 0F 01 4A 43 10  0F 01 F0 FF FF 7F 45 13  .C...JC.......E.
1170: 80 F8 FF FF 7F F8 FF FF  7F 73 32 33 39 08 80 1C  .........s239...
1180: 0D 80 45 09 80 F8 FF FF  7F F8 FF FF 7F 66 64 69  ..E..........fdi
1190: 31 08 80 1C 0D 80 66 0E  80 43 10 0F 01 43 10 0F  1.....f..C...C..
11A0: 01 74 6C 6B 30 1A 8D 3C  2B 43 10 0F 01 3D 80 23  .tlk0..<+C...=.#
11B0: 1A 98 3C 66 0E 80 43 10  0F 01 43 10 0F 01 74 6C  ..<f..C...C...tl
11C0: 6B 31 45 09 80 F8 FF FF  7F F8 FF FF 7F 66 64 6F  k1E..........fdo
11D0: 31 08 80 55 09 80 F8 FF  FF 7F F8 FF FF 7F 66 64  1..U..........fd
11E0: 6F 31 52 13 80 F8 FF FF  7F F8 FF FF 7F 73 32 33  o1R..........s23
