# 17764466 - Nanaa Mihgo

## Common Data

| Field            | Value                    |
|------------------|--------------------------|
| Zone             | Windurst Woods (ID: 241) |
| Block Size       | 11512 bytes              |
| Total Events     | 124                      |
| References Count | 202                      |

## List of Events

| Event ID                   | Entrypoint   |   Size |   Instructions |
|----------------------------|--------------|--------|----------------|
| [65535](#event-65535)      | 0x0000       |      1 |              1 |
| [65535.1](#event-655351)   | 0x0001       |     16 |              2 |
| [65535.2](#event-655352)   | 0x0011       |     14 |              2 |
| [65535.3](#event-655353)   | 0x001F       |     16 |              2 |
| [65535.4](#event-655354)   | 0x002F       |     14 |              2 |
| [65535.5](#event-655355)   | 0x003D       |     16 |              2 |
| [65535.6](#event-655356)   | 0x004D       |     14 |              2 |
| [65535.7](#event-655357)   | 0x005B       |     16 |              2 |
| [65535.8](#event-655358)   | 0x006B       |     14 |              2 |
| [65535.9](#event-655359)   | 0x0079       |     27 |              4 |
| [65535.10](#event-6553510) | 0x0094       |     14 |              2 |
| [65535.11](#event-6553511) | 0x00A2       |     16 |              2 |
| [65535.12](#event-6553512) | 0x00B2       |     20 |              3 |
| [65535.13](#event-6553513) | 0x00C6       |     16 |              2 |
| [65535.14](#event-6553514) | 0x00D6       |     14 |              2 |
| [65535.15](#event-6553515) | 0x00E4       |     16 |              2 |
| [65535.16](#event-6553516) | 0x00F4       |     14 |              2 |
| [65535.17](#event-6553517) | 0x0102       |     16 |              2 |
| [65535.18](#event-6553518) | 0x0112       |     14 |              2 |
| [65535.19](#event-6553519) | 0x0120       |     16 |              2 |
| [65535.20](#event-6553520) | 0x0130       |     14 |              2 |
| [65535.21](#event-6553521) | 0x013E       |     16 |              2 |
| [65535.22](#event-6553522) | 0x014E       |     14 |              2 |
| [65535.23](#event-6553523) | 0x015C       |     16 |              2 |
| [65535.24](#event-6553524) | 0x016C       |     14 |              2 |
| [65535.25](#event-6553525) | 0x017A       |     16 |              2 |
| [65535.26](#event-6553526) | 0x018A       |     14 |              2 |
| [65535.27](#event-6553527) | 0x0198       |     16 |              2 |
| [65535.28](#event-6553528) | 0x01A8       |     14 |              2 |
| [65535.29](#event-6553529) | 0x01B6       |      9 |              3 |
| [76](#event-76)            | 0x01BF       |     43 |             12 |
| [81](#event-81)            | 0x01EA       |     47 |             14 |
| [80](#event-80)            | 0x0219       |     46 |             11 |
| [65535.30](#event-6553530) | 0x0247       |      9 |              5 |
| [82](#event-82)            | 0x0250       |     43 |             12 |
| [92](#event-92)            | 0x027B       |     70 |             18 |
| [88](#event-88)            | 0x02C1       |     69 |             15 |
| [494](#event-494)          | 0x0306       |     66 |             16 |
| [65535.31](#event-6553531) | 0x0348       |      9 |              5 |
| [89](#event-89)            | 0x0351       |     47 |             14 |
| [93](#event-93)            | 0x0380       |     86 |             19 |
| [65535.32](#event-6553532) | 0x03D6       |     33 |              7 |
| [65535.33](#event-6553533) | 0x03F7       |     38 |             10 |
| [65535.34](#event-6553534) | 0x041D       |     37 |              9 |
| [65535.35](#event-6553535) | 0x0442       |      5 |              3 |
| [65535.36](#event-6553536) | 0x0447       |     33 |              7 |
| [94](#event-94)            | 0x0468       |     47 |             14 |
| [95](#event-95)            | 0x0497       |     47 |             14 |
| [98](#event-98)            | 0x04C6       |     18 |              7 |
| [65535.37](#event-6553537) | 0x04D8       |     37 |              9 |
| [99](#event-99)            | 0x04FD       |     47 |             14 |
| [387](#event-387)          | 0x052C       |     43 |             12 |
| [165](#event-165)          | 0x0557       |    253 |             38 |
| [65535.38](#event-6553538) | 0x0654       |     37 |              9 |
| [65535.39](#event-6553539) | 0x0679       |     37 |              9 |
| [65535.40](#event-6553540) | 0x069E       |      5 |              3 |
| [65535.41](#event-6553541) | 0x06A3       |      9 |              5 |
| [166](#event-166)          | 0x06AC       |     47 |             14 |
| [169](#event-169)          | 0x06DB       |    166 |             30 |
| [170](#event-170)          | 0x0781       |     47 |             14 |
| [173](#event-173)          | 0x07B0       |     43 |             12 |
| [496](#event-496)          | 0x07DB       |    337 |             48 |
| [65535.42](#event-6553542) | 0x092C       |      5 |              3 |
| [65535.43](#event-6553543) | 0x0931       |     19 |              5 |
| [65535.44](#event-6553544) | 0x0944       |     19 |              5 |
| [65535.45](#event-6553545) | 0x0957       |     19 |              5 |
| [497](#event-497)          | 0x096A       |     29 |             10 |
| [498](#event-498)          | 0x0987       |     47 |             14 |
| [503](#event-503)          | 0x09B6       |     33 |             12 |
| [504](#event-504)          | 0x09D7       |   1558 |            201 |
| [65535.46](#event-6553546) | 0x0FED       |      5 |              3 |
| [65535.47](#event-6553547) | 0x0FF2       |     19 |              5 |
| [65535.48](#event-6553548) | 0x1005       |     51 |             11 |
| [65535.49](#event-6553549) | 0x1038       |     19 |              5 |
| [65535.50](#event-6553550) | 0x104B       |      5 |              3 |
| [65535.51](#event-6553551) | 0x1050       |     19 |              5 |
| [65535.52](#event-6553552) | 0x1063       |     19 |              6 |
| [65535.53](#event-6553553) | 0x1076       |     33 |              7 |
| [65535.54](#event-6553554) | 0x1097       |      5 |              3 |
| [65535.55](#event-6553555) | 0x109C       |     23 |              7 |
| [65535.56](#event-6553556) | 0x10B3       |     19 |              5 |
| [65535.57](#event-6553557) | 0x10C6       |      5 |              3 |
| [65535.58](#event-6553558) | 0x10CB       |     19 |              5 |
| [65535.59](#event-6553559) | 0x10DE       |      5 |              3 |
| [65535.60](#event-6553560) | 0x10E3       |     33 |              7 |
| [65535.61](#event-6553561) | 0x1104       |     19 |              5 |
| [65535.62](#event-6553562) | 0x1117       |      5 |              3 |
| [505](#event-505)          | 0x111C       |     19 |             10 |
| [508](#event-508)          | 0x112F       |    349 |             53 |
| [65535.63](#event-6553563) | 0x128C       |     19 |              5 |
| [65535.64](#event-6553564) | 0x129F       |      5 |              3 |
| [65535.65](#event-6553565) | 0x12A4       |     19 |              5 |
| [65535.66](#event-6553566) | 0x12B7       |     19 |              5 |
| [509](#event-509)          | 0x12CA       |     15 |              8 |
| [512](#event-512)          | 0x12D9       |   1072 |            129 |
| [65535.67](#event-6553567) | 0x1709       |     19 |              5 |
| [65535.68](#event-6553568) | 0x171C       |     19 |              5 |
| [65535.69](#event-6553569) | 0x172F       |     19 |              5 |
| [65535.70](#event-6553570) | 0x1742       |     19 |              5 |
| [65535.71](#event-6553571) | 0x1755       |     19 |              5 |
| [65535.72](#event-6553572) | 0x1768       |      5 |              3 |
| [65535.73](#event-6553573) | 0x176D       |     19 |              5 |
| [65535.74](#event-6553574) | 0x1780       |      5 |              3 |
| [65535.75](#event-6553575) | 0x1785       |     19 |              5 |
| [65535.76](#event-6553576) | 0x1798       |      5 |              3 |
| [65535.77](#event-6553577) | 0x179D       |     23 |              7 |
| [65535.78](#event-6553578) | 0x17B4       |     19 |              5 |
| [65535.79](#event-6553579) | 0x17C7       |     23 |              7 |
| [65535.80](#event-6553580) | 0x17DE       |     19 |              5 |
| [513](#event-513)          | 0x17F1       |     15 |              8 |
| [516](#event-516)          | 0x1800       |   1041 |            134 |
| [65535.81](#event-6553581) | 0x1C11       |      5 |              3 |
| [65535.82](#event-6553582) | 0x1C16       |     17 |              5 |
| [65535.83](#event-6553583) | 0x1C27       |      5 |              3 |
| [65535.84](#event-6553584) | 0x1C2C       |     17 |              5 |
| [65535.85](#event-6553585) | 0x1C3D       |     33 |              7 |
| [65535.86](#event-6553586) | 0x1C5E       |     19 |              5 |
| [65535.87](#event-6553587) | 0x1C71       |     23 |              7 |
| [517](#event-517)          | 0x1C88       |     19 |             10 |
| [520](#event-520)          | 0x1C9B       |     15 |              8 |
| [598](#event-598)          | 0x1CAA       |     65 |             18 |
| [732](#event-732)          | 0x1CEB       |     53 |             13 |
| [865](#event-865)          | 0x1D20       |   2733 |            374 |
| [978](#event-978)          | 0x27CD       |      1 |              1 |

## DAT References (imed_data)

|   Index | Hex Value   |   Dec Value |
|---------|-------------|-------------|
|       0 | 0x0172      |         370 |
|       1 | 0x0166      |         358 |
|       2 | 0x0168      |         360 |
|       3 | 0x016C      |         364 |
|       4 | 0x0164      |         356 |
|       5 | 0x001E      |          30 |
|       6 | 0x1DA9      |        7593 |
|       7 | 0x1DB2      |        7602 |
|       8 | 0x1DB3      |        7603 |
|       9 | 0x1DB0      |        7600 |
|      10 | 0x1DB1      |        7601 |
|      11 | 0x1DB4      |        7604 |
|      12 | 0x1DC6      |        7622 |
|      13 | 0x1DC7      |        7623 |
|      14 | 0x00C9      |         201 |
|      15 | 0x0000      |           0 |
|      16 | 0x1998      |        6552 |
|      17 | 0x21EA      |        8682 |
|      18 | 0x1DBE      |        7614 |
|      19 | 0x1DBF      |        7615 |
|      20 | 0x1DC0      |        7616 |
|      21 | 0x1DC1      |        7617 |
|      22 | 0x1DCD      |        7629 |
|      23 | 0x0001      |           1 |
|      24 | 0x0002      |           2 |
|      25 | 0x1DC8      |        7624 |
|      26 | 0x1DC9      |        7625 |
|      27 | 0x1DCA      |        7626 |
|      28 | 0x1DCB      |        7627 |
|      29 | 0x1DCC      |        7628 |
|      30 | 0x1DCE      |        7630 |
|      31 | 0x1DCF      |        7631 |
|      32 | 0x1DD0      |        7632 |
|      33 | 0x1DD1      |        7633 |
|      34 | 0x1DD2      |        7634 |
|      35 | 0x1DD3      |        7635 |
|      36 | 0x1DD8      |        7640 |
|      37 | 0x1DD9      |        7641 |
|      38 | 0x20F9      |        8441 |
|      39 | 0x00C8      |         200 |
|      40 | 0x003C      |          60 |
|      41 | 0x0003      |           3 |
|      42 | 0x008D      |         141 |
|      43 | 0x1E94      |        7828 |
|      44 | 0x1E90      |        7824 |
|      45 | 0x1E91      |        7825 |
|      46 | 0x1E92      |        7826 |
|      47 | 0x1E93      |        7827 |
|      48 | 0x1E95      |        7829 |
|      49 | 0x1E96      |        7830 |
|      50 | 0x1E97      |        7831 |
|      51 | 0x1E98      |        7832 |
|      52 | 0x1E99      |        7833 |
|      53 | 0x1E9F      |        7839 |
|      54 | 0x1EA0      |        7840 |
|      55 | 0x1EA1      |        7841 |
|      56 | 0x1EA2      |        7842 |
|      57 | 0x1EA5      |        7845 |
|      58 | 0x0064      |         100 |
|      59 | 0x00A3      |         163 |
|      60 | 0x0005      |           5 |
|      61 | 0x0006      |           6 |
|      62 | 0x0097      |         151 |
|      63 | 0x2273      |        8819 |
|      64 | 0x2274      |        8820 |
|      65 | 0x2275      |        8821 |
|      66 | 0x2276      |        8822 |
|      67 | 0x2277      |        8823 |
|      68 | 0x227A      |        8826 |
|      69 | 0x227B      |        8827 |
|      70 | 0x227F      |        8831 |
|      71 | 0x2280      |        8832 |
|      72 | 0x007F      |         127 |
|      73 | 0x2283      |        8835 |
|      74 | 0x2284      |        8836 |
|      75 | 0x2289      |        8841 |
|      76 | 0x0008      |           8 |
|      77 | 0x0BB8      |        3000 |
|      78 | 0x2293      |        8851 |
|      79 | 0x2297      |        8855 |
|      80 | 0x048F      |        1167 |
|      81 | 0x2299      |        8857 |
|      82 | 0x229A      |        8858 |
|      83 | 0x2281      |        8833 |
|      84 | 0x2282      |        8834 |
|      85 | 0x2285      |        8837 |
|      86 | 0x2286      |        8838 |
|      87 | 0x2287      |        8839 |
|      88 | 0x2288      |        8840 |
|      89 | 0x228A      |        8842 |
|      90 | 0x228B      |        8843 |
|      91 | 0x228C      |        8844 |
|      92 | 0x228D      |        8845 |
|      93 | 0x228E      |        8846 |
|      94 | 0x228F      |        8847 |
|      95 | 0x2290      |        8848 |
|      96 | 0x2291      |        8849 |
|      97 | 0x2292      |        8850 |
|      98 | 0x2294      |        8852 |
|      99 | 0x2295      |        8853 |
|     100 | 0x2296      |        8854 |
|     101 | 0x2298      |        8856 |
|     102 | 0x229B      |        8859 |
|     103 | 0x229C      |        8860 |
|     104 | 0x229D      |        8861 |
|     105 | 0x0400      |        1024 |
|     106 | 0x22A2      |        8866 |
|     107 | 0x22A3      |        8867 |
|     108 | 0x22A4      |        8868 |
|     109 | 0x22A5      |        8869 |
|     110 | 0x22A6      |        8870 |
|     111 | 0x22B2      |        8882 |
|     112 | 0x22B3      |        8883 |
|     113 | 0x22A9      |        8873 |
|     114 | 0x22AA      |        8874 |
|     115 | 0x22AB      |        8875 |
|     116 | 0x22AC      |        8876 |
|     117 | 0x22AD      |        8877 |
|     118 | 0x22AE      |        8878 |
|     119 | 0x22AF      |        8879 |
|     120 | 0x22B0      |        8880 |
|     121 | 0x22B1      |        8881 |
|     122 | 0x22B6      |        8886 |
|     123 | 0x22B7      |        8887 |
|     124 | 0x22B8      |        8888 |
|     125 | 0x22B9      |        8889 |
|     126 | 0x22BA      |        8890 |
|     127 | 0x22BB      |        8891 |
|     128 | 0x22BC      |        8892 |
|     129 | 0x22BD      |        8893 |
|     130 | 0x00AA      |         170 |
|     131 | 0x22C5      |        8901 |
|     132 | 0x22C6      |        8902 |
|     133 | 0x0004      |           4 |
|     134 | 0x22C2      |        8898 |
|     135 | 0x22C3      |        8899 |
|     136 | 0x22C4      |        8900 |
|     137 | 0x0007      |           7 |
|     138 | 0x22C7      |        8903 |
|     139 | 0x22C8      |        8904 |
|     140 | 0x22C9      |        8905 |
|     141 | 0x22CA      |        8906 |
|     142 | 0x22CB      |        8907 |
|     143 | 0x22CC      |        8908 |
|     144 | 0x22CD      |        8909 |
|     145 | 0x22D0      |        8912 |
|     146 | 0x2555      |        9557 |
|     147 | 0x2556      |        9558 |
|     148 | 0x2557      |        9559 |
|     149 | 0x28B2      |       10418 |
|     150 | 0x28B6      |       10422 |
|     151 | 0x28B7      |       10423 |
|     152 | 0x28B8      |       10424 |
|     153 | 0x09C1      |        2497 |
|     154 | 0x368F      |       13967 |
|     155 | 0x3690      |       13968 |
|     156 | 0x3691      |       13969 |
|     157 | 0x3692      |       13970 |
|     158 | 0x001B      |          27 |
|     159 | 0xF42D      |       62509 |
|     160 | 0x3A94B     |      239947 |
|     161 | 0xFFFFED72  |  4294962546 |
|     162 | 0x0017      |          23 |
|     163 | 0x0274      |         628 |
|     164 | 0x000F      |          15 |
|     165 | 0x3693      |       13971 |
|     166 | 0x3694      |       13972 |
|     167 | 0x3696      |       13974 |
|     168 | 0x3697      |       13975 |
|     169 | 0x3698      |       13976 |
|     170 | 0x3699      |       13977 |
|     171 | 0x369A      |       13978 |
|     172 | 0x369B      |       13979 |
|     173 | 0x369C      |       13980 |
|     174 | 0x0032      |          50 |
|     175 | 0x369D      |       13981 |
|     176 | 0x369E      |       13982 |
|     177 | 0x369F      |       13983 |
|     178 | 0x36A0      |       13984 |
|     179 | 0x36A1      |       13985 |
|     180 | 0x36A2      |       13986 |
|     181 | 0x36A3      |       13987 |
|     182 | 0x36A4      |       13988 |
|     183 | 0x36A5      |       13989 |
|     184 | 0x36A6      |       13990 |
|     185 | 0x36A7      |       13991 |
|     186 | 0x36A8      |       13992 |
|     187 | 0x36A9      |       13993 |
|     188 | 0x36AA      |       13994 |
|     189 | 0x00AE      |         174 |
|     190 | 0x0096      |         150 |
|     191 | 0x0078      |         120 |
|     192 | 0xF848      |       63560 |
|     193 | 0x3AFEE     |      241646 |
|     194 | 0x0062      |          98 |
|     195 | 0x00B1      |         177 |
|     196 | 0x36AB      |       13995 |
|     197 | 0x0015      |          21 |
|     198 | 0x005A      |          90 |
|     199 | 0x36AC      |       13996 |
|     200 | 0x36AD      |       13997 |
|     201 | 0x3695      |       13973 |

## String References

- **6552**: Obtained $0 gil.
- **7593**: Can't you see I'm busy now? Give a girl a little brrreathing room, huh?
- **7600**: So, who do you think you arrre? You want to crrrawl up to me, do you?
- **7601**: Well, if you bring me a little something as a sign of your desire to be my frrriend, I might just considerrr the possibility...
- **7602**: Haven't I seen you somewhere beforrre? Weren't you the one running with those pack of brrrats from the port area?
- **7603**: So you've come to apologize, have you? Well, you had better bring me a little something to show your desire to be my frrriend! Then I'll consider whether to forrrgive you or not...
- **7604**: Well, if you want to be all chummy with me, you had better bring me a token offerrring firrrst. I'll be waiting... Hah!
- **7614**: Purrr... For you to bring me these implies my two followers out in front let the cat out of the bag.
- **7615**: Well, anyway, I'll accept these as a token of your esteem. And if you happen by any more of these, then give them to me, and I'll make it worrrth your while. Farewell now.
- **7616**: Just 'cause I accepted your token of esteem doesn't mean you can get away with murderrr!
- **7617**: You have to do things my way if you don't want me getting all catty on you! Now, goodbye and ta-ta!
- **7622**: Purrr... For you to bring me these implies my two followers out in front let the cat out of the bag.
- **7623**: Well, anyway, apology accepted. Just be more careful next time! And if you happen by any more of these, then hand them to me, and I'll make it worrrth your while. Farewell now.
- **7624**: Judging by its feel, I'd swear this is a prrrecious stone of some type, but I seem to be losing my instinct on this one...
- **7625**: Grrr... Who do you think you are? You shouldn't go sneaking around people's homes...you might be mistaken as a burglar!
- **7626**: But I'll let you off this time...that is, if you can tell me what this stone is!
- **7627**: As farrr as I can tell, it looks just like a plain rock, but it may be some kind of ore or something. I wonderrr...
- **7628**: Hey, that's it...! I have a little job for you! Carrre to go to the Goldsmiths' Guild in Bastok and ask them what in Vana'diel this is?
- **7629**: Agree to help? [Accept./Decline.]
- **7630**: Neverrr mind. I'll just throw this at...I mean, to...the kids who follow me around.
- **7631**: If it isn't worth much, then go ahead and sell it to the Goldsmiths' Guild. Just make sure you bring the prrroceeds back to me, okay?
- **7632**: Head over to the Goldsmiths' Guild in Bastok and ask them what that stone is.
- **7633**: If it isn't worrrth much, then sell it to the Goldsmiths' Guild. Just be sure you bring the proceeds from the sale back to me, okay?
- **7634**: So, did you make it to the Goldsmiths' Guild in Bastok? Good for you! And how much did you get for that lump of rrrock?
- **7635**: Oh...You didn't sell it? Well, go back to Bastok and sell it, then. Now, get going!
- **7640**: Ah! Don't tell me you sold off my rock for that dismal sum!
- **7641**: Grrr... If you hadn't sold it off, we could have received a bigger reward from that silly traveler for finding it... Oh well... It's no longer worth my bother.
- **7824**: You want to know if I have a "restrrricted book" in my possession, do you?
- **7825**: Where in Vana'diel did you hearrr that? You can never be too carrreful, you know.
- **7826**: Okay, I'll let you in on it. You're a second rank adventurer, arrren't you? Then allow me to ask you this little favor I have firrrst...
- **7827**: If you scratch my back, I'll scrrratch yours...so to speak. Do what I ask and I'll let you check the book I found. How about it, then?
- **7828**: Hear her favor? [Listen./Refuse.]
- **7829**: If that's how it is, then farrrewell, sucker.
- **7830**: Did you know that up in the Tahrongi Canyon, there is a serrries of caves known as the Maze of Shakhrami?
- **7831**: If you examine the rocks in those caves with this $3 harrrd enough, you should be able to find $6. I want you to brrring me one. Happy hunting!
- **7832**: In the Tahrongi Canyon, there is a serrries of caves called the Maze of Shakhrami.
- **7833**: If you examine the rocks in those caves with that $3 you have therrre, you should be able to find $6. I want you to brrring me one. No coral, no deal!
- **7839**: So, you came thrrrough with it? Here, I'll give you this key. We'll make the trrransaction at my hideout, deep in the Horutoto Ruins.
- **7840**: You go on ahead. I'll catch up with you therrre once I've finished up herrre!
- **7841**: We'll carry out our little trrransaction at my hideout, deep in the Horutoto Ruins.
- **7842**: You go ahead. I'll catch up with you therrre!
- **7845**: I can't stand the sight of you. Get out of herrre, and don't show yourrr face to me any time soon.
- **8441**: Can't you see I'm busy now? Give a girl a little brrreathing room, huh?
- **8682**: Oh, what a cleverrr little kitten you are. Herrre, I'll give you some pocket money from my kitty.
- **8819**: I was looking for you. It seems like you've been prrracticing to become a master thief.
- **8820**: Usually I don't mingle with my competition, but the Tenshodo has put out a call for able-bodied thieves.
- **8821**: The Tenshodo came to us, so don't even think of turning down their offer.
- **8822**: Well, I'll see you in Jeuno! As those little wizards say, ta-taru!
- **8823**: I'll see you at the Tenshodo headquarters in Jeuno.
- **8826**: You say you've already met up with the rrremains of Atarefaunet's band? Did they tell you anything?
- **8827**: The guy I talked to was acting like he was so much better than us. He sure rrrubbed my fur the wrrrong way.
- **8831**: The weapon you got... What's it like?
- **8832**: Getting such a fine weapon for such a cakewalk job... It's almost like stealing!
- **8833**: Ah, I've been looking for you. You know how we got those papers from the Tenshodo and delivered them individually?
- **8834**: Did you check the signature you got from the Atarefaunet member before giving the papers to Vauderame?
- **8836**: Did you see the signature? [Yes./No.]
- **8837**: Are you rrreally a thief? Un-be-liev-able!!
- **8838**: Let me tell you, then. The signature you got was a "V."
- **8839**: How do I know, you ask? I can tell what's written on a piece of paper just by touching it.
- **8840**: Ah! That's my little thief! ...So, what was the letter?
- **8841**: What was the signature? [T/A/V/I...forget.]
- **8842**: Rrright. The signature you got was a "V."
- **8843**: But the prrroblem is, the initial you got doesn't match the initial of the member's name, rrright?
- **8844**: The signature that I got didn't match either.
- **8845**: This didn't happen to only you and me. I also asked Esca of San d'Oria and Nbu Latteh of Bastok, and it was the same with them.
- **8846**: Doesn't all this seem just a little bit fishy? Doesn't it get your whiskers twitching?
- **8847**: After that task, I did some digging on Atarefaunet's band. It seems that the treasure from the last big heist they pulled off has yet to be found.
- **8848**: The way I see it, those signatures were some sort of code. To contact the rrremaining members of Atarefaunet's band after all this time just doesn't make sense otherwise.
- **8849**: Vauderame of the Tenshodo is searching for that treasure. So he threatens Atarefaunet's cutthroats, and collects the code letters...
- **8850**: I'm gonna collect the signatures from the other six members. Will you help me?
- **8851**: Help out? [Where do I sign?/I'll keep my paws out of this one...]
- **8852**: Scaredy-cat! You'll never become a world-famous thief at this rate...
- **8853**: Are you up for it?
- **8854**: Okay, take these. I made copies of the $3 you rrreceived before. Use them in the same way to get signatures from those brrrigands.
- **8856**: The last obstacle is finding the members' hideouts... At the moment, we know the location of two of the bandits, so why don't you go pay them a visit?
- **8859**: First things first! Get ahold of those signatures. Oh, and by the way, don't even think of drrropping this little errand halfway through...
- **8860**: The location of the hideouts are wrrritten on the $3, right?
- **8861**: Find the hideouts, and get those signatures. Go on, shoo!
- **8866**: Did you get those signatures? I have the last two rrright here.
- **8867**: Okay, eight letters... Let's put them together... V, Z, A, N, A, T, A, I... @
- **8868**: Hmm... If I put this here... Umm...
- **8869**: Huh? You still here? Here, take your loot and scoot. I'll let you know when I figure this out. Come and see me later.
- **8870**: Huh? You still here? Here, take your loot and scoot. I'll let you know when I figure this out. Come and see me later.
- **8873**: I finally figured out the code. All those letters we got from the Atarefaunet band...I know what they mean.
- **8874**: When I rrrearranged the order of the letters, I came out with "Tavnazia."
- **8875**: Tavnazia... In other words, the Tavnazian Marquisate. A nation to the west that was obliterated by the beastmen in the Great War.
- **8876**: Tavnazia pledged allegiance to San d'Oria and was ruled by Marquis Altedour. But after some investigation, I discovered some slightly more interesting facts.
- **8877**: Just before the nation was swarmed under by the beastmen, the knights of Tavnazia carried away the rrroyal treasure. However, the knights themselves were attacked by brigands and the treasure was stolen.
- **8878**: If you listen to the old thieves, they'll tell you it was the work of the Atarefaunet band. But since the leader of the band died, the truth is anybody's guess.
- **8879**: Isn't this exciting? The rrremaining members of the Atarefaunet band must hold the key to the location of the Tavnazian royal treasure!
- **8880**: Vauderame of the Tenshodo must be arranging a deal with them to get his greedy hands on the goods.
- **8881**: Now that I know his plans, I'll have to work my way into his circle and get my paws in the pie, too.
- **8886**: ...Hmm. A very mysterious character, indeed. Speaking of mysteries, there's one thing that I don't quite understand.
- **8887**: Why did the brigands send the word "Tavnazia" to Vauderame?
- **8888**: Surely he would have already known about the Tavnazian royal treasure before planning to meet with them.
- **8889**: ...That's it!
- **8890**: <Player>, I want you to go and ask these two thieves a question.
- **8891**: The person who wrote the papers from the Tenshodo, the name at the top...what was wrrritten there?
- **8892**: Quickly now! There's no time!
- **8893**: We'll deal with the rest, so hurry! Be on your way!
- **8898**: Did you get the information I asked for? Okay, let's put it all together and see what we have.
- **8899**: You've probably already noticed, but the name of the person who wrrrote the papers is different on each one. However, the contents are all exactly the same. A little odd, don't you think?
- **8900**: This must have some other meaning. If we lay out the letters that we both discovered, we have... D, L, E, L, O, R, E.
- **8902**: What was the signature? [M/Q/Blank/I forget]
- **8903**: Exactly. Your papers had a blank area where the signature should have been. So, rrrearranging the seven letters, we get...
- **8904**: If you keep playing the fool, I may have to bite you. Your papers had a blank area where the signature should have been. So, rrrearranging the seven letters, we get...
- **8905**: "Ordelle"!
- **8906**: We must hurry to Ordelle's Caves!
- **8907**: Vauderame used us to tell the bandits to gather at Ordelle's Caves.
- **8908**: We must hurry to Ordelle's Caves!
- **8909**: Vauderame used us to tell the bandits to gather at Ordelle's Caves.
- **8912**: It's great that we found the treasure... But I get the feeling there's something important I'm forgetting... What could it be...? Grrr, that's rrreally gonna annoy me...
- **9557**: There's a Windurst Waters merrrchant making a big fuss over a Mana Orb, you say?
- **9558**: Ahaha, serves him rrright! That old coot, Honoi-Gomoi, always trrrying to get what he wants by any means possible.
- **9559**: He seems terribly anxious to get his hands on that orb. Why don't you be a sporrrt and give it back? I promise I won't say anything.
- **10418**: <Player>'s badge flashes brightly.
- **10422**: Who do you think you arrre? Yeowrrr! Isn't that from Aht Urhgan?
- **10423**: I heard that land has heaps of trrreasure for the taking. A fishy story if I've everrr heard one. Don't you start believing it, too.
- **10424**: I know you wouldn't go out in search of treasure ahead of me, but get any ideas, and I'll carrrve you into a new pickling stone for Chamama, 'kay?
- **13967**: I'm a trrrifle busy these days. Be a good [boy/girrrl] and leave me be.
- **13968**: Ohhhhhh, what's this then? You've got $6? That must mean you're interrrested in Trust.
- **13969**: You can't possibly be serious. An unaccomplished adventurer wanting to summon my alter ego? Purrrposterous.
- **13970**: What, did you think we were [bosom buddies/ready to settle down and have a couple kittens]!? I don't have any feelings for you!
- **13971**: Ohhhhhh, what's this then? You've got $6? That must mean you're interrrested in Trust.
- **13972**: Attempt Trust magic with her? [Of course./No way.]
- **13973**: I have no time to play cat and mouse. If you've got nothing better to do, then scrrram.
- **13974**: Hmm...the question is, am I willing to try this out with you? The whole idea makes my whiskerrrs twitch.
- **13975**: Do you rrrealize how much pleading I had to do to get this scroll? The Jeuno Institute of Magical Studies is likely sick to death of my purring!
- **13976**: And they complained the whole time! "The more Nanaa Mihgos, the more troubles the world will face," they said. Bah!
- **13977**: I'll have you know, everything I've done has been purrrfectly justified...under my own code of conduct.
- **13978**: That's why I'm pondering whether to try this with you. If it fails, my clawing and scrrratching will have been for nothing.
- **13979**: I hate it when my efforrrts don't bear fruit.
- **13980**: You want me to think thoughts of trust, frrriendship, and sisterly love? <Sigh>
- **13981**: I rrremember the first time you came to Windurst, and we had that chance meeting that set everything in motion.
- **13982**: [I remember now. When/Furthermore, when] I found that sharp stone, you were an idiot and sold it to that damned visitorrr from Bastok.
- **13983**: [I remember now. We split that trrreasure trove belonging to Atarefaunet's Band./Not only that, who could forget that we split that trrreasure trove belonging to Atarefaunet's Band?]
- **13984**: To this day, I can still only rrremember bits and pieces of what happened.
- **13985**: [I'm absolutely sure you still recall/And I'm absolutely sure you still recall] that time. You know, with the people.
- **13986**: What was their name again? Oh, right. The Star Onion Brigade. Why you chose to side with a bunch of little miscrrreants rather than the big fish in the pond remains a mystery. I should have your hide for spoiling my once-in-a-lifetime opportunity!
- **13987**: While we're talking about frrriendship, I hear you possess a certain likeness of me.
- **13988**: [How disgusting!/What a purrrvert!]
- **13989**: Hahaha. I can't fault your taste, though. You picked verrry well.
- **13990**: [Remember/But there's more. Remember] that time you nearly shrrredded me to pieces?
- **13991**: Tussling with those Goblins was a fun rrride, to be sure...but sometimes my legs still hurt!
- **13992**: Urk. I've got no other choice but to try out this scrrroll...
- **13993**: You'll stand therrre until I give in, won't you? Let's get on with it, then.
- **13994**: Close your eyes...and think only pleasant thoughts of me.t
- **13995**: Wow, this Trrrust thing actually worked! I thought it was some kind of sick joke. Now, for my fee. 100,000 gil will do nicely, don't you agrrree?
- **13996**: Ahahaha! Gotcha!
- **13997**: Those robed nincompoops at the institute exprrressly forbid me from accepting any money for my troubles. Next time, though, it'll cost you! <Sigh> Why did I push so hard to try this, anyway?

## Events

### Event 65535

#### Metadata

| Field        | Value   |
|--------------|---------|
| Entrypoint   | 0x0000  |
| Data Size    | 1 bytes |
| Instructions | 1       |

```
      00 01 02 03 04 05 06 07  08 09 0A 0B 0C 0D 0E 0F
      -- -- -- -- -- -- -- --  -- -- -- -- -- -- -- --
0000: 00                                                .               
```

#### Opcodes

```
  0: 0x0000 [0x00] END_REQSTACK()
```

### Event 65535.1

#### Metadata

| Field        | Value    |
|--------------|----------|
| Entrypoint   | 0x0001   |
| Data Size    | 16 bytes |
| Instructions | 2        |

```
      00 01 02 03 04 05 06 07  08 09 0A 0B 0C 0D 0E 0F
      -- -- -- -- -- -- -- --  -- -- -- -- -- -- -- --
0000:    5B 00 80 F8 FF FF 7F  F8 FF FF 7F 74 6C 6B 30   [..........tlk0
0010: 00                                                .               
```

#### Opcodes

```
  0: 0x0001 [0x5B] LOAD_EXT_SCHEDULER: Load scheduler "tlk0" with entities [EventEntity, EventEntity], work=370*
  1: 0x0010 [0x00] END_REQSTACK()
```

### Event 65535.2

#### Metadata

| Field        | Value    |
|--------------|----------|
| Entrypoint   | 0x0011   |
| Data Size    | 14 bytes |
| Instructions | 2        |

```
      00 01 02 03 04 05 06 07  08 09 0A 0B 0C 0D 0E 0F
      -- -- -- -- -- -- -- --  -- -- -- -- -- -- -- --
0010:    53 F8 FF FF 7F F8 FF  FF 7F 74 6C 6B 30 00      S........tlk0. 
```

#### Opcodes

```
  0: 0x0011 [0x53] WAIT_SCHEDULER_TASK: Wait for scheduler "tlk0" with entities [EventEntity, EventEntity]
  1: 0x001E [0x00] END_REQSTACK()
```

### Event 65535.3

#### Metadata

| Field        | Value    |
|--------------|----------|
| Entrypoint   | 0x001F   |
| Data Size    | 16 bytes |
| Instructions | 2        |

```
      00 01 02 03 04 05 06 07  08 09 0A 0B 0C 0D 0E 0F
      -- -- -- -- -- -- -- --  -- -- -- -- -- -- -- --
0010:                                               5B                 [
0020: 00 80 F8 FF FF 7F F8 FF  FF 7F 74 6C 6B 31 00     ..........tlk1. 
```

#### Opcodes

```
  0: 0x001F [0x5B] LOAD_EXT_SCHEDULER: Load scheduler "tlk1" with entities [EventEntity, EventEntity], work=370*
  1: 0x002E [0x00] END_REQSTACK()
```

### Event 65535.4

#### Metadata

| Field        | Value    |
|--------------|----------|
| Entrypoint   | 0x002F   |
| Data Size    | 14 bytes |
| Instructions | 2        |

```
      00 01 02 03 04 05 06 07  08 09 0A 0B 0C 0D 0E 0F
      -- -- -- -- -- -- -- --  -- -- -- -- -- -- -- --
0020:                                               53                 S
0030: F8 FF FF 7F F8 FF FF 7F  74 6C 6B 31 00           ........tlk1.   
```

#### Opcodes

```
  0: 0x002F [0x53] WAIT_SCHEDULER_TASK: Wait for scheduler "tlk1" with entities [EventEntity, EventEntity]
  1: 0x003C [0x00] END_REQSTACK()
```

### Event 65535.5

#### Metadata

| Field        | Value    |
|--------------|----------|
| Entrypoint   | 0x003D   |
| Data Size    | 16 bytes |
| Instructions | 2        |

```
      00 01 02 03 04 05 06 07  08 09 0A 0B 0C 0D 0E 0F
      -- -- -- -- -- -- -- --  -- -- -- -- -- -- -- --
0030:                                         5B 00 80               [..
0040: F8 FF FF 7F F8 FF FF 7F  69 74 74 30 00           ........itt0.   
```

#### Opcodes

```
  0: 0x003D [0x5B] LOAD_EXT_SCHEDULER: Load scheduler "itt0" with entities [EventEntity, EventEntity], work=370*
  1: 0x004C [0x00] END_REQSTACK()
```

### Event 65535.6

#### Metadata

| Field        | Value    |
|--------------|----------|
| Entrypoint   | 0x004D   |
| Data Size    | 14 bytes |
| Instructions | 2        |

```
      00 01 02 03 04 05 06 07  08 09 0A 0B 0C 0D 0E 0F
      -- -- -- -- -- -- -- --  -- -- -- -- -- -- -- --
0040:                                         53 F8 FF               S..
0050: FF 7F F8 FF FF 7F 69 74  74 30 00                 ......itt0.     
```

#### Opcodes

```
  0: 0x004D [0x53] WAIT_SCHEDULER_TASK: Wait for scheduler "itt0" with entities [EventEntity, EventEntity]
  1: 0x005A [0x00] END_REQSTACK()
```

### Event 65535.7

#### Metadata

| Field        | Value    |
|--------------|----------|
| Entrypoint   | 0x005B   |
| Data Size    | 16 bytes |
| Instructions | 2        |

```
      00 01 02 03 04 05 06 07  08 09 0A 0B 0C 0D 0E 0F
      -- -- -- -- -- -- -- --  -- -- -- -- -- -- -- --
0050:                                   5B 01 80 F8 FF             [....
0060: FF 7F F8 FF FF 7F 69 74  74 31 00                 ......itt1.     
```

#### Opcodes

```
  0: 0x005B [0x5B] LOAD_EXT_SCHEDULER: Load scheduler "itt1" with entities [EventEntity, EventEntity], work=358*
  1: 0x006A [0x00] END_REQSTACK()
```

### Event 65535.8

#### Metadata

| Field        | Value    |
|--------------|----------|
| Entrypoint   | 0x006B   |
| Data Size    | 14 bytes |
| Instructions | 2        |

```
      00 01 02 03 04 05 06 07  08 09 0A 0B 0C 0D 0E 0F
      -- -- -- -- -- -- -- --  -- -- -- -- -- -- -- --
0060:                                   53 F8 FF FF 7F             S....
0070: F8 FF FF 7F 69 74 74 31  00                       ....itt1.       
```

#### Opcodes

```
  0: 0x006B [0x53] WAIT_SCHEDULER_TASK: Wait for scheduler "itt1" with entities [EventEntity, EventEntity]
  1: 0x0078 [0x00] END_REQSTACK()
```

### Event 65535.9

#### Metadata

| Field        | Value    |
|--------------|----------|
| Entrypoint   | 0x0079   |
| Data Size    | 27 bytes |
| Instructions | 4        |

```
      00 01 02 03 04 05 06 07  08 09 0A 0B 0C 0D 0E 0F
      -- -- -- -- -- -- -- --  -- -- -- -- -- -- -- --
0070:                             7B 0F 10 0F 01 81 00           {......
0080: F8 FF FF 7F 5B 00 80 F8  FF FF 7F F8 FF FF 7F 6E  ....[..........n
0090: 74 6F 30 00                                       to0.            
```

#### Opcodes

```
  0: 0x0079 [0x7B] Nanaa Mihgo (ID: 17764367/0x010F100F) stops talking
  1: 0x007E [0x81] SET_ENTITY_BLINKING(blink_flag=0x00, entity=EventEntity)
  2: 0x0084 [0x5B] LOAD_EXT_SCHEDULER: Load scheduler "nto0" with entities [EventEntity, EventEntity], work=370*
  3: 0x0093 [0x00] END_REQSTACK()
```

### Event 65535.10

#### Metadata

| Field        | Value    |
|--------------|----------|
| Entrypoint   | 0x0094   |
| Data Size    | 14 bytes |
| Instructions | 2        |

```
      00 01 02 03 04 05 06 07  08 09 0A 0B 0C 0D 0E 0F
      -- -- -- -- -- -- -- --  -- -- -- -- -- -- -- --
0090:             53 F8 FF FF  7F F8 FF FF 7F 6E 74 6F      S........nto
00A0: 30 00                                             0.              
```

#### Opcodes

```
  0: 0x0094 [0x53] WAIT_SCHEDULER_TASK: Wait for scheduler "nto0" with entities [EventEntity, EventEntity]
  1: 0x00A1 [0x00] END_REQSTACK()
```

### Event 65535.11

#### Metadata

| Field        | Value    |
|--------------|----------|
| Entrypoint   | 0x00A2   |
| Data Size    | 16 bytes |
| Instructions | 2        |

```
      00 01 02 03 04 05 06 07  08 09 0A 0B 0C 0D 0E 0F
      -- -- -- -- -- -- -- --  -- -- -- -- -- -- -- --
00A0:       5B 00 80 F8 FF FF  7F F8 FF FF 7F 6E 74 6F    [..........nto
00B0: 31 00                                             1.              
```

#### Opcodes

```
  0: 0x00A2 [0x5B] LOAD_EXT_SCHEDULER: Load scheduler "nto1" with entities [EventEntity, EventEntity], work=370*
  1: 0x00B1 [0x00] END_REQSTACK()
```

### Event 65535.12

#### Metadata

| Field        | Value    |
|--------------|----------|
| Entrypoint   | 0x00B2   |
| Data Size    | 20 bytes |
| Instructions | 3        |

```
      00 01 02 03 04 05 06 07  08 09 0A 0B 0C 0D 0E 0F
      -- -- -- -- -- -- -- --  -- -- -- -- -- -- -- --
00B0:       53 F8 FF FF 7F F8  FF FF 7F 6E 74 6F 31 81    S........nto1.
00C0: 01 F8 FF FF 7F 00                                 ......          
```

#### Opcodes

```
  0: 0x00B2 [0x53] WAIT_SCHEDULER_TASK: Wait for scheduler "nto1" with entities [EventEntity, EventEntity]
  1: 0x00BF [0x81] SET_ENTITY_BLINKING(blink_flag=0x01, entity=EventEntity)
  2: 0x00C5 [0x00] END_REQSTACK()
```

### Event 65535.13

#### Metadata

| Field        | Value    |
|--------------|----------|
| Entrypoint   | 0x00C6   |
| Data Size    | 16 bytes |
| Instructions | 2        |

```
      00 01 02 03 04 05 06 07  08 09 0A 0B 0C 0D 0E 0F
      -- -- -- -- -- -- -- --  -- -- -- -- -- -- -- --
00C0:                   5B 01  80 F8 FF FF 7F F8 FF FF        [.........
00D0: 7F 74 68 6B 31 00                                 .thk1.          
```

#### Opcodes

```
  0: 0x00C6 [0x5B] LOAD_EXT_SCHEDULER: Load scheduler "thk1" with entities [EventEntity, EventEntity], work=358*
  1: 0x00D5 [0x00] END_REQSTACK()
```

### Event 65535.14

#### Metadata

| Field        | Value    |
|--------------|----------|
| Entrypoint   | 0x00D6   |
| Data Size    | 14 bytes |
| Instructions | 2        |

```
      00 01 02 03 04 05 06 07  08 09 0A 0B 0C 0D 0E 0F
      -- -- -- -- -- -- -- --  -- -- -- -- -- -- -- --
00D0:                   53 F8  FF FF 7F F8 FF FF 7F 74        S........t
00E0: 68 6B 31 00                                       hk1.            
```

#### Opcodes

```
  0: 0x00D6 [0x53] WAIT_SCHEDULER_TASK: Wait for scheduler "thk1" with entities [EventEntity, EventEntity]
  1: 0x00E3 [0x00] END_REQSTACK()
```

### Event 65535.15

#### Metadata

| Field        | Value    |
|--------------|----------|
| Entrypoint   | 0x00E4   |
| Data Size    | 16 bytes |
| Instructions | 2        |

```
      00 01 02 03 04 05 06 07  08 09 0A 0B 0C 0D 0E 0F
      -- -- -- -- -- -- -- --  -- -- -- -- -- -- -- --
00E0:             5B 01 80 F8  FF FF 7F F8 FF FF 7F 74      [..........t
00F0: 68 6B 32 00                                       hk2.            
```

#### Opcodes

```
  0: 0x00E4 [0x5B] LOAD_EXT_SCHEDULER: Load scheduler "thk2" with entities [EventEntity, EventEntity], work=358*
  1: 0x00F3 [0x00] END_REQSTACK()
```

### Event 65535.16

#### Metadata

| Field        | Value    |
|--------------|----------|
| Entrypoint   | 0x00F4   |
| Data Size    | 14 bytes |
| Instructions | 2        |

```
      00 01 02 03 04 05 06 07  08 09 0A 0B 0C 0D 0E 0F
      -- -- -- -- -- -- -- --  -- -- -- -- -- -- -- --
00F0:             53 F8 FF FF  7F F8 FF FF 7F 74 68 6B      S........thk
0100: 32 00                                             2.              
```

#### Opcodes

```
  0: 0x00F4 [0x53] WAIT_SCHEDULER_TASK: Wait for scheduler "thk2" with entities [EventEntity, EventEntity]
  1: 0x0101 [0x00] END_REQSTACK()
```

### Event 65535.17

#### Metadata

| Field        | Value    |
|--------------|----------|
| Entrypoint   | 0x0102   |
| Data Size    | 16 bytes |
| Instructions | 2        |

```
      00 01 02 03 04 05 06 07  08 09 0A 0B 0C 0D 0E 0F
      -- -- -- -- -- -- -- --  -- -- -- -- -- -- -- --
0100:       5B 01 80 F8 FF FF  7F F8 FF FF 7F 70 6F 69    [..........poi
0110: 30 00                                             0.              
```

#### Opcodes

```
  0: 0x0102 [0x5B] LOAD_EXT_SCHEDULER: Load scheduler "poi0" with entities [EventEntity, EventEntity], work=358*
  1: 0x0111 [0x00] END_REQSTACK()
```

### Event 65535.18

#### Metadata

| Field        | Value    |
|--------------|----------|
| Entrypoint   | 0x0112   |
| Data Size    | 14 bytes |
| Instructions | 2        |

```
      00 01 02 03 04 05 06 07  08 09 0A 0B 0C 0D 0E 0F
      -- -- -- -- -- -- -- --  -- -- -- -- -- -- -- --
0110:       53 F8 FF FF 7F F8  FF FF 7F 70 6F 69 30 00    S........poi0.
```

#### Opcodes

```
  0: 0x0112 [0x53] WAIT_SCHEDULER_TASK: Wait for scheduler "poi0" with entities [EventEntity, EventEntity]
  1: 0x011F [0x00] END_REQSTACK()
```

### Event 65535.19

#### Metadata

| Field        | Value    |
|--------------|----------|
| Entrypoint   | 0x0120   |
| Data Size    | 16 bytes |
| Instructions | 2        |

```
      00 01 02 03 04 05 06 07  08 09 0A 0B 0C 0D 0E 0F
      -- -- -- -- -- -- -- --  -- -- -- -- -- -- -- --
0120: 5B 02 80 F8 FF FF 7F F8  FF FF 7F 70 6F 69 31 00  [..........poi1.
```

#### Opcodes

```
  0: 0x0120 [0x5B] LOAD_EXT_SCHEDULER: Load scheduler "poi1" with entities [EventEntity, EventEntity], work=360*
  1: 0x012F [0x00] END_REQSTACK()
```

### Event 65535.20

#### Metadata

| Field        | Value    |
|--------------|----------|
| Entrypoint   | 0x0130   |
| Data Size    | 14 bytes |
| Instructions | 2        |

```
      00 01 02 03 04 05 06 07  08 09 0A 0B 0C 0D 0E 0F
      -- -- -- -- -- -- -- --  -- -- -- -- -- -- -- --
0130: 53 F8 FF FF 7F F8 FF FF  7F 70 6F 69 31 00        S........poi1.  
```

#### Opcodes

```
  0: 0x0130 [0x53] WAIT_SCHEDULER_TASK: Wait for scheduler "poi1" with entities [EventEntity, EventEntity]
  1: 0x013D [0x00] END_REQSTACK()
```

### Event 65535.21

#### Metadata

| Field        | Value    |
|--------------|----------|
| Entrypoint   | 0x013E   |
| Data Size    | 16 bytes |
| Instructions | 2        |

```
      00 01 02 03 04 05 06 07  08 09 0A 0B 0C 0D 0E 0F
      -- -- -- -- -- -- -- --  -- -- -- -- -- -- -- --
0130:                                            5B 02                [.
0140: 80 F8 FF FF 7F F8 FF FF  7F 70 6F 69 33 00        .........poi3.  
```

#### Opcodes

```
  0: 0x013E [0x5B] LOAD_EXT_SCHEDULER: Load scheduler "poi3" with entities [EventEntity, EventEntity], work=360*
  1: 0x014D [0x00] END_REQSTACK()
```

### Event 65535.22

#### Metadata

| Field        | Value    |
|--------------|----------|
| Entrypoint   | 0x014E   |
| Data Size    | 14 bytes |
| Instructions | 2        |

```
      00 01 02 03 04 05 06 07  08 09 0A 0B 0C 0D 0E 0F
      -- -- -- -- -- -- -- --  -- -- -- -- -- -- -- --
0140:                                            53 F8                S.
0150: FF FF 7F F8 FF FF 7F 70  6F 69 33 00              .......poi3.    
```

#### Opcodes

```
  0: 0x014E [0x53] WAIT_SCHEDULER_TASK: Wait for scheduler "poi3" with entities [EventEntity, EventEntity]
  1: 0x015B [0x00] END_REQSTACK()
```

### Event 65535.23

#### Metadata

| Field        | Value    |
|--------------|----------|
| Entrypoint   | 0x015C   |
| Data Size    | 16 bytes |
| Instructions | 2        |

```
      00 01 02 03 04 05 06 07  08 09 0A 0B 0C 0D 0E 0F
      -- -- -- -- -- -- -- --  -- -- -- -- -- -- -- --
0150:                                      5B 02 80 F8              [...
0160: FF FF 7F F8 FF FF 7F 64  69 73 30 00              .......dis0.    
```

#### Opcodes

```
  0: 0x015C [0x5B] LOAD_EXT_SCHEDULER: Load scheduler "dis0" with entities [EventEntity, EventEntity], work=360*
  1: 0x016B [0x00] END_REQSTACK()
```

### Event 65535.24

#### Metadata

| Field        | Value    |
|--------------|----------|
| Entrypoint   | 0x016C   |
| Data Size    | 14 bytes |
| Instructions | 2        |

```
      00 01 02 03 04 05 06 07  08 09 0A 0B 0C 0D 0E 0F
      -- -- -- -- -- -- -- --  -- -- -- -- -- -- -- --
0160:                                      53 F8 FF FF              S...
0170: 7F F8 FF FF 7F 64 69 73  30 00                    .....dis0.      
```

#### Opcodes

```
  0: 0x016C [0x53] WAIT_SCHEDULER_TASK: Wait for scheduler "dis0" with entities [EventEntity, EventEntity]
  1: 0x0179 [0x00] END_REQSTACK()
```

### Event 65535.25

#### Metadata

| Field        | Value    |
|--------------|----------|
| Entrypoint   | 0x017A   |
| Data Size    | 16 bytes |
| Instructions | 2        |

```
      00 01 02 03 04 05 06 07  08 09 0A 0B 0C 0D 0E 0F
      -- -- -- -- -- -- -- --  -- -- -- -- -- -- -- --
0170:                                5B 03 80 F8 FF FF            [.....
0180: 7F F8 FF FF 7F 70 61 73  30 00                    .....pas0.      
```

#### Opcodes

```
  0: 0x017A [0x5B] LOAD_EXT_SCHEDULER: Load scheduler "pas0" with entities [EventEntity, EventEntity], work=364*
  1: 0x0189 [0x00] END_REQSTACK()
```

### Event 65535.26

#### Metadata

| Field        | Value    |
|--------------|----------|
| Entrypoint   | 0x018A   |
| Data Size    | 14 bytes |
| Instructions | 2        |

```
      00 01 02 03 04 05 06 07  08 09 0A 0B 0C 0D 0E 0F
      -- -- -- -- -- -- -- --  -- -- -- -- -- -- -- --
0180:                                53 F8 FF FF 7F F8            S.....
0190: FF FF 7F 70 61 73 30 00                           ...pas0.        
```

#### Opcodes

```
  0: 0x018A [0x53] WAIT_SCHEDULER_TASK: Wait for scheduler "pas0" with entities [EventEntity, EventEntity]
  1: 0x0197 [0x00] END_REQSTACK()
```

### Event 65535.27

#### Metadata

| Field        | Value    |
|--------------|----------|
| Entrypoint   | 0x0198   |
| Data Size    | 16 bytes |
| Instructions | 2        |

```
      00 01 02 03 04 05 06 07  08 09 0A 0B 0C 0D 0E 0F
      -- -- -- -- -- -- -- --  -- -- -- -- -- -- -- --
0190:                          5B 04 80 F8 FF FF 7F F8          [.......
01A0: FF FF 7F 74 6C 6B 30 00                           ...tlk0.        
```

#### Opcodes

```
  0: 0x0198 [0x5B] LOAD_EXT_SCHEDULER: Load scheduler "tlk0" with entities [EventEntity, EventEntity], work=356*
  1: 0x01A7 [0x00] END_REQSTACK()
```

### Event 65535.28

#### Metadata

| Field        | Value    |
|--------------|----------|
| Entrypoint   | 0x01A8   |
| Data Size    | 14 bytes |
| Instructions | 2        |

```
      00 01 02 03 04 05 06 07  08 09 0A 0B 0C 0D 0E 0F
      -- -- -- -- -- -- -- --  -- -- -- -- -- -- -- --
01A0:                          53 F8 FF FF 7F F8 FF FF          S.......
01B0: 7F 74 6C 6B 30 00                                 .tlk0.          
```

#### Opcodes

```
  0: 0x01A8 [0x53] WAIT_SCHEDULER_TASK: Wait for scheduler "tlk0" with entities [EventEntity, EventEntity]
  1: 0x01B5 [0x00] END_REQSTACK()
```

### Event 65535.29

#### Metadata

| Field        | Value   |
|--------------|---------|
| Entrypoint   | 0x01B6  |
| Data Size    | 9 bytes |
| Instructions | 3       |

```
      00 01 02 03 04 05 06 07  08 09 0A 0B 0C 0D 0E 0F
      -- -- -- -- -- -- -- --  -- -- -- -- -- -- -- --
01B0:                   5E 69  64 6C 30 1C 05 80 00           ^idl0.... 
```

#### Opcodes

```
  0: 0x01B6 [0x5E] EventEntity goes idle (kills current action) (animation: "idl0")
  1: 0x01BB [0x1C] WAIT(30* ticks)
  2: 0x01BE [0x00] END_REQSTACK()
```

### Event 76

#### Metadata

| Field        | Value    |
|--------------|----------|
| Entrypoint   | 0x01BF   |
| Data Size    | 43 bytes |
| Instructions | 12       |

```
      00 01 02 03 04 05 06 07  08 09 0A 0B 0C 0D 0E 0F
      -- -- -- -- -- -- -- --  -- -- -- -- -- -- -- --
01B0:                                               1E                 .
01C0: F0 FF FF 7F 6F 70 29 08  72 10 0F 01 01 1D 06 80  ....op).r.......
01D0: 23 29 08 72 10 0F 01 02  29 08 72 10 0F 01 03 29  #).r....).r....)
01E0: 08 72 10 0F 01 04 20 00  21 00                    .r.... .!.      
```

#### Opcodes

```
  0: 0x01BF [0x1E] EventEntity looks at LocalPlayer and starts talking
  1: 0x01C4 [0x6F] WAIT_FRAME_DELAY: Yield until WaitTime reaches zero
  2: 0x01C5 [0x70] WAIT_ENTITY_RENDER_FLAG: Wait while EventEntity->Render.Flags3 bit 2 is set (cancel turn if not)
  3: 0x01C6 [0x29] REQ_SET_WAIT(priority=0x08, entity_id=Nanaa Mihgo (ID: 17764466/0x010F1072), tag_num=0x01)
  4: 0x01CD [0x1D] PRINT_EVENT_MESSAGE(message_id=7593*)
     "Can't you see I'm busy now? Give a girl a little brrreathing room, huh?"
  5: 0x01D0 [0x23] WAIT_FOR_DIALOG_INTERACTION
  6: 0x01D1 [0x29] REQ_SET_WAIT(priority=0x08, entity_id=Nanaa Mihgo (ID: 17764466/0x010F1072), tag_num=0x02)
  7: 0x01D8 [0x29] REQ_SET_WAIT(priority=0x08, entity_id=Nanaa Mihgo (ID: 17764466/0x010F1072), tag_num=0x03)
  8: 0x01DF [0x29] REQ_SET_WAIT(priority=0x08, entity_id=Nanaa Mihgo (ID: 17764466/0x010F1072), tag_num=0x04)
  9: 0x01E6 [0x20] SET_CLI_EVENT_UC_FLAG: Unlock player control
 10: 0x01E8 [0x21] END_EVENT
 11: 0x01E9 [0x00] END_REQSTACK()
```

### Event 81

#### Metadata

| Field        | Value    |
|--------------|----------|
| Entrypoint   | 0x01EA   |
| Data Size    | 47 bytes |
| Instructions | 14       |

```
      00 01 02 03 04 05 06 07  08 09 0A 0B 0C 0D 0E 0F
      -- -- -- -- -- -- -- --  -- -- -- -- -- -- -- --
01E0:                                1E F0 FF FF 7F 6F            .....o
01F0: 70 29 08 72 10 0F 01 09  1D 07 80 23 29 08 72 10  p).r.......#).r.
0200: 0F 01 0A 29 08 72 10 0F  01 0B 1D 08 80 23 29 08  ...).r.......#).
0210: 72 10 0F 01 0C 20 00 21  00                       r.... .!.       
```

#### Opcodes

```
  0: 0x01EA [0x1E] EventEntity looks at LocalPlayer and starts talking
  1: 0x01EF [0x6F] WAIT_FRAME_DELAY: Yield until WaitTime reaches zero
  2: 0x01F0 [0x70] WAIT_ENTITY_RENDER_FLAG: Wait while EventEntity->Render.Flags3 bit 2 is set (cancel turn if not)
  3: 0x01F1 [0x29] REQ_SET_WAIT(priority=0x08, entity_id=Nanaa Mihgo (ID: 17764466/0x010F1072), tag_num=0x09)
  4: 0x01F8 [0x1D] PRINT_EVENT_MESSAGE(message_id=7602*)
     "Haven't I seen you somewhere beforrre? Weren't you the one running with those pack of brrrats from the port area?"
  5: 0x01FB [0x23] WAIT_FOR_DIALOG_INTERACTION
  6: 0x01FC [0x29] REQ_SET_WAIT(priority=0x08, entity_id=Nanaa Mihgo (ID: 17764466/0x010F1072), tag_num=0x0A)
  7: 0x0203 [0x29] REQ_SET_WAIT(priority=0x08, entity_id=Nanaa Mihgo (ID: 17764466/0x010F1072), tag_num=0x0B)
  8: 0x020A [0x1D] PRINT_EVENT_MESSAGE(message_id=7603*)
     "So you've come to apologize, have you? Well, you had better bring me a little something to show your desire to be my frrriend! Then I'll consider whether to forrrgive you or not..."
  9: 0x020D [0x23] WAIT_FOR_DIALOG_INTERACTION
 10: 0x020E [0x29] REQ_SET_WAIT(priority=0x08, entity_id=Nanaa Mihgo (ID: 17764466/0x010F1072), tag_num=0x0C)
 11: 0x0215 [0x20] SET_CLI_EVENT_UC_FLAG: Unlock player control
 12: 0x0217 [0x21] END_EVENT
 13: 0x0218 [0x00] END_REQSTACK()
```

### Event 80

#### Metadata

| Field        | Value    |
|--------------|----------|
| Entrypoint   | 0x0219   |
| Data Size    | 46 bytes |
| Instructions | 11       |

```
      00 01 02 03 04 05 06 07  08 09 0A 0B 0C 0D 0E 0F
      -- -- -- -- -- -- -- --  -- -- -- -- -- -- -- --
0210:                             1E F0 FF FF 7F 6F 70           .....op
0220: 29 08 72 10 0F 01 01 29  0B 72 10 0F 01 21 29 08  ).r....).r...!).
0230: 72 10 0F 01 02 29 08 72  10 0F 01 03 29 08 72 10  r....).r....).r.
0240: 0F 01 04 20 00 21 00                              ... .!.         
```

#### Opcodes

```
  0: 0x0219 [0x1E] EventEntity looks at LocalPlayer and starts talking
  1: 0x021E [0x6F] WAIT_FRAME_DELAY: Yield until WaitTime reaches zero
  2: 0x021F [0x70] WAIT_ENTITY_RENDER_FLAG: Wait while EventEntity->Render.Flags3 bit 2 is set (cancel turn if not)
  3: 0x0220 [0x29] REQ_SET_WAIT(priority=0x08, entity_id=Nanaa Mihgo (ID: 17764466/0x010F1072), tag_num=0x01)
  4: 0x0227 [0x29] REQ_SET_WAIT(priority=0x0B, entity_id=Nanaa Mihgo (ID: 17764466/0x010F1072), tag_num=0x21)
  5: 0x022E [0x29] REQ_SET_WAIT(priority=0x08, entity_id=Nanaa Mihgo (ID: 17764466/0x010F1072), tag_num=0x02)
  6: 0x0235 [0x29] REQ_SET_WAIT(priority=0x08, entity_id=Nanaa Mihgo (ID: 17764466/0x010F1072), tag_num=0x03)
  7: 0x023C [0x29] REQ_SET_WAIT(priority=0x08, entity_id=Nanaa Mihgo (ID: 17764466/0x010F1072), tag_num=0x04)
  8: 0x0243 [0x20] SET_CLI_EVENT_UC_FLAG: Unlock player control
  9: 0x0245 [0x21] END_EVENT
 10: 0x0246 [0x00] END_REQSTACK()
```

### Event 65535.30

#### Metadata

| Field        | Value   |
|--------------|---------|
| Entrypoint   | 0x0247  |
| Data Size    | 9 bytes |
| Instructions | 5       |

```
      00 01 02 03 04 05 06 07  08 09 0A 0B 0C 0D 0E 0F
      -- -- -- -- -- -- -- --  -- -- -- -- -- -- -- --
0240:                      1D  09 80 23 1D 0A 80 23 00         ...#...#.
```

#### Opcodes

```
  0: 0x0247 [0x1D] PRINT_EVENT_MESSAGE(message_id=7600*)
     "So, who do you think you arrre? You want to crrrawl up to me, do you?"
  1: 0x024A [0x23] WAIT_FOR_DIALOG_INTERACTION
  2: 0x024B [0x1D] PRINT_EVENT_MESSAGE(message_id=7601*)
     "Well, if you bring me a little something as a sign of your desire to be my frrriend, I might just considerrr the possibility..."
  3: 0x024E [0x23] WAIT_FOR_DIALOG_INTERACTION
  4: 0x024F [0x00] END_REQSTACK()
```

### Event 82

#### Metadata

| Field        | Value    |
|--------------|----------|
| Entrypoint   | 0x0250   |
| Data Size    | 43 bytes |
| Instructions | 12       |

```
      00 01 02 03 04 05 06 07  08 09 0A 0B 0C 0D 0E 0F
      -- -- -- -- -- -- -- --  -- -- -- -- -- -- -- --
0250: 1E F0 FF FF 7F 6F 70 29  08 72 10 0F 01 01 1D 0B  .....op).r......
0260: 80 23 29 08 72 10 0F 01  02 29 08 72 10 0F 01 03  .#).r....).r....
0270: 29 08 72 10 0F 01 04 20  00 21 00                 ).r.... .!.     
```

#### Opcodes

```
  0: 0x0250 [0x1E] EventEntity looks at LocalPlayer and starts talking
  1: 0x0255 [0x6F] WAIT_FRAME_DELAY: Yield until WaitTime reaches zero
  2: 0x0256 [0x70] WAIT_ENTITY_RENDER_FLAG: Wait while EventEntity->Render.Flags3 bit 2 is set (cancel turn if not)
  3: 0x0257 [0x29] REQ_SET_WAIT(priority=0x08, entity_id=Nanaa Mihgo (ID: 17764466/0x010F1072), tag_num=0x01)
  4: 0x025E [0x1D] PRINT_EVENT_MESSAGE(message_id=7604*)
     "Well, if you want to be all chummy with me, you had better bring me a token offerrring firrrst. I'll be waiting... Hah!"
  5: 0x0261 [0x23] WAIT_FOR_DIALOG_INTERACTION
  6: 0x0262 [0x29] REQ_SET_WAIT(priority=0x08, entity_id=Nanaa Mihgo (ID: 17764466/0x010F1072), tag_num=0x02)
  7: 0x0269 [0x29] REQ_SET_WAIT(priority=0x08, entity_id=Nanaa Mihgo (ID: 17764466/0x010F1072), tag_num=0x03)
  8: 0x0270 [0x29] REQ_SET_WAIT(priority=0x08, entity_id=Nanaa Mihgo (ID: 17764466/0x010F1072), tag_num=0x04)
  9: 0x0277 [0x20] SET_CLI_EVENT_UC_FLAG: Unlock player control
 10: 0x0279 [0x21] END_EVENT
 11: 0x027A [0x00] END_REQSTACK()
```

### Event 92

#### Metadata

| Field        | Value    |
|--------------|----------|
| Entrypoint   | 0x027B   |
| Data Size    | 70 bytes |
| Instructions | 18       |

```
      00 01 02 03 04 05 06 07  08 09 0A 0B 0C 0D 0E 0F
      -- -- -- -- -- -- -- --  -- -- -- -- -- -- -- --
0270:                                   20 01 42 1E F0              .B..
0280: FF FF 7F 6F 70 29 08 72  10 0F 01 01 1D 0C 80 23  ...op).r.......#
0290: 1D 0D 80 23 29 08 72 10  0F 01 02 29 08 72 10 0F  ...#).r....).r..
02A0: 01 03 29 08 72 10 0F 01  04 45 0E 80 F0 FF FF 7F  ..).r....E......
02B0: F0 FF FF 7F 71 73 74 63  0F 80 48 10 80 20 00 21  ....qstc..H.. .!
02C0: 00                                                .               
```

#### Opcodes

```
  0: 0x027B [0x20] SET_CLI_EVENT_UC_FLAG: Lock player control
  1: 0x027D [0x42] SET_CLI_EVENT_CANCEL_DATA()
  2: 0x027E [0x1E] EventEntity looks at LocalPlayer and starts talking
  3: 0x0283 [0x6F] WAIT_FRAME_DELAY: Yield until WaitTime reaches zero
  4: 0x0284 [0x70] WAIT_ENTITY_RENDER_FLAG: Wait while EventEntity->Render.Flags3 bit 2 is set (cancel turn if not)
  5: 0x0285 [0x29] REQ_SET_WAIT(priority=0x08, entity_id=Nanaa Mihgo (ID: 17764466/0x010F1072), tag_num=0x01)
  6: 0x028C [0x1D] PRINT_EVENT_MESSAGE(message_id=7622*)
     "Purrr... For you to bring me these implies my two followers out in front let the cat out of the bag."
  7: 0x028F [0x23] WAIT_FOR_DIALOG_INTERACTION
  8: 0x0290 [0x1D] PRINT_EVENT_MESSAGE(message_id=7623*)
     "Well, anyway, apology accepted. Just be more careful next time! And if you happen by any more of these, then hand them to me, and I'll make it worrrth your while. Farewell now."
  9: 0x0293 [0x23] WAIT_FOR_DIALOG_INTERACTION
 10: 0x0294 [0x29] REQ_SET_WAIT(priority=0x08, entity_id=Nanaa Mihgo (ID: 17764466/0x010F1072), tag_num=0x02)
 11: 0x029B [0x29] REQ_SET_WAIT(priority=0x08, entity_id=Nanaa Mihgo (ID: 17764466/0x010F1072), tag_num=0x03)
 12: 0x02A2 [0x29] REQ_SET_WAIT(priority=0x08, entity_id=Nanaa Mihgo (ID: 17764466/0x010F1072), tag_num=0x04)
 13: 0x02A9 [0x45] LOAD_SCHEDULED_TASK: Load scheduler "qstc" with entities [LocalPlayer, LocalPlayer], work=[201*, 0*]
 14: 0x02BA [0x48] [System] [6552*]:
     "Obtained $0 gil."
 15: 0x02BD [0x20] SET_CLI_EVENT_UC_FLAG: Unlock player control
 16: 0x02BF [0x21] END_EVENT
 17: 0x02C0 [0x00] END_REQSTACK()
```

### Event 88

#### Metadata

| Field        | Value    |
|--------------|----------|
| Entrypoint   | 0x02C1   |
| Data Size    | 69 bytes |
| Instructions | 15       |

```
      00 01 02 03 04 05 06 07  08 09 0A 0B 0C 0D 0E 0F
      -- -- -- -- -- -- -- --  -- -- -- -- -- -- -- --
02C0:    20 01 42 1E F0 FF FF  7F 6F 70 29 08 72 10 0F    .B.....op).r..
02D0: 01 01 29 0B 72 10 0F 01  26 29 08 72 10 0F 01 02  ..).r...&).r....
02E0: 29 08 72 10 0F 01 03 29  08 72 10 0F 01 04 45 0E  ).r....).r....E.
02F0: 80 F0 FF FF 7F F0 FF FF  7F 71 73 74 63 0F 80 48  .........qstc..H
0300: 10 80 20 00 21 00                                 .. .!.          
```

#### Opcodes

```
  0: 0x02C1 [0x20] SET_CLI_EVENT_UC_FLAG: Lock player control
  1: 0x02C3 [0x42] SET_CLI_EVENT_CANCEL_DATA()
  2: 0x02C4 [0x1E] EventEntity looks at LocalPlayer and starts talking
  3: 0x02C9 [0x6F] WAIT_FRAME_DELAY: Yield until WaitTime reaches zero
  4: 0x02CA [0x70] WAIT_ENTITY_RENDER_FLAG: Wait while EventEntity->Render.Flags3 bit 2 is set (cancel turn if not)
  5: 0x02CB [0x29] REQ_SET_WAIT(priority=0x08, entity_id=Nanaa Mihgo (ID: 17764466/0x010F1072), tag_num=0x01)
  6: 0x02D2 [0x29] REQ_SET_WAIT(priority=0x0B, entity_id=Nanaa Mihgo (ID: 17764466/0x010F1072), tag_num=0x26)
  7: 0x02D9 [0x29] REQ_SET_WAIT(priority=0x08, entity_id=Nanaa Mihgo (ID: 17764466/0x010F1072), tag_num=0x02)
  8: 0x02E0 [0x29] REQ_SET_WAIT(priority=0x08, entity_id=Nanaa Mihgo (ID: 17764466/0x010F1072), tag_num=0x03)
  9: 0x02E7 [0x29] REQ_SET_WAIT(priority=0x08, entity_id=Nanaa Mihgo (ID: 17764466/0x010F1072), tag_num=0x04)
 10: 0x02EE [0x45] LOAD_SCHEDULED_TASK: Load scheduler "qstc" with entities [LocalPlayer, LocalPlayer], work=[201*, 0*]
 11: 0x02FF [0x48] [System] [6552*]:
     "Obtained $0 gil."
 12: 0x0302 [0x20] SET_CLI_EVENT_UC_FLAG: Unlock player control
 13: 0x0304 [0x21] END_EVENT
 14: 0x0305 [0x00] END_REQSTACK()
```

### Event 494

#### Metadata

| Field        | Value    |
|--------------|----------|
| Entrypoint   | 0x0306   |
| Data Size    | 66 bytes |
| Instructions | 16       |

```
      00 01 02 03 04 05 06 07  08 09 0A 0B 0C 0D 0E 0F
      -- -- -- -- -- -- -- --  -- -- -- -- -- -- -- --
0300:                   20 01  42 1E F0 FF FF 7F 6F 70         .B.....op
0310: 29 08 72 10 0F 01 01 1D  11 80 23 29 08 72 10 0F  ).r.......#).r..
0320: 01 02 29 08 72 10 0F 01  03 29 08 72 10 0F 01 04  ..).r....).r....
0330: 45 0E 80 F0 FF FF 7F F0  FF FF 7F 71 73 74 63 0F  E..........qstc.
0340: 80 48 10 80 20 00 21 00                           .H.. .!.        
```

#### Opcodes

```
  0: 0x0306 [0x20] SET_CLI_EVENT_UC_FLAG: Lock player control
  1: 0x0308 [0x42] SET_CLI_EVENT_CANCEL_DATA()
  2: 0x0309 [0x1E] EventEntity looks at LocalPlayer and starts talking
  3: 0x030E [0x6F] WAIT_FRAME_DELAY: Yield until WaitTime reaches zero
  4: 0x030F [0x70] WAIT_ENTITY_RENDER_FLAG: Wait while EventEntity->Render.Flags3 bit 2 is set (cancel turn if not)
  5: 0x0310 [0x29] REQ_SET_WAIT(priority=0x08, entity_id=Nanaa Mihgo (ID: 17764466/0x010F1072), tag_num=0x01)
  6: 0x0317 [0x1D] PRINT_EVENT_MESSAGE(message_id=8682*)
     "Oh, what a cleverrr little kitten you are. Herrre, I'll give you some pocket money from my kitty."
  7: 0x031A [0x23] WAIT_FOR_DIALOG_INTERACTION
  8: 0x031B [0x29] REQ_SET_WAIT(priority=0x08, entity_id=Nanaa Mihgo (ID: 17764466/0x010F1072), tag_num=0x02)
  9: 0x0322 [0x29] REQ_SET_WAIT(priority=0x08, entity_id=Nanaa Mihgo (ID: 17764466/0x010F1072), tag_num=0x03)
 10: 0x0329 [0x29] REQ_SET_WAIT(priority=0x08, entity_id=Nanaa Mihgo (ID: 17764466/0x010F1072), tag_num=0x04)
 11: 0x0330 [0x45] LOAD_SCHEDULED_TASK: Load scheduler "qstc" with entities [LocalPlayer, LocalPlayer], work=[201*, 0*]
 12: 0x0341 [0x48] [System] [6552*]:
     "Obtained $0 gil."
 13: 0x0344 [0x20] SET_CLI_EVENT_UC_FLAG: Unlock player control
 14: 0x0346 [0x21] END_EVENT
 15: 0x0347 [0x00] END_REQSTACK()
```

### Event 65535.31

#### Metadata

| Field        | Value   |
|--------------|---------|
| Entrypoint   | 0x0348  |
| Data Size    | 9 bytes |
| Instructions | 5       |

```
      00 01 02 03 04 05 06 07  08 09 0A 0B 0C 0D 0E 0F
      -- -- -- -- -- -- -- --  -- -- -- -- -- -- -- --
0340:                          1D 12 80 23 1D 13 80 23          ...#...#
0350: 00                                                .               
```

#### Opcodes

```
  0: 0x0348 [0x1D] PRINT_EVENT_MESSAGE(message_id=7614*)
     "Purrr... For you to bring me these implies my two followers out in front let the cat out of the bag."
  1: 0x034B [0x23] WAIT_FOR_DIALOG_INTERACTION
  2: 0x034C [0x1D] PRINT_EVENT_MESSAGE(message_id=7615*)
     "Well, anyway, I'll accept these as a token of your esteem. And if you happen by any more of these, then give them to me, and I'll make it worrrth your while. Farewell now."
  3: 0x034F [0x23] WAIT_FOR_DIALOG_INTERACTION
  4: 0x0350 [0x00] END_REQSTACK()
```

### Event 89

#### Metadata

| Field        | Value    |
|--------------|----------|
| Entrypoint   | 0x0351   |
| Data Size    | 47 bytes |
| Instructions | 14       |

```
      00 01 02 03 04 05 06 07  08 09 0A 0B 0C 0D 0E 0F
      -- -- -- -- -- -- -- --  -- -- -- -- -- -- -- --
0350:    1E F0 FF FF 7F 6F 70  29 08 72 10 0F 01 01 1D   .....op).r.....
0360: 14 80 23 1D 15 80 23 29  08 72 10 0F 01 02 29 08  ..#...#).r....).
0370: 72 10 0F 01 03 29 08 72  10 0F 01 04 20 00 21 00  r....).r.... .!.
```

#### Opcodes

```
  0: 0x0351 [0x1E] EventEntity looks at LocalPlayer and starts talking
  1: 0x0356 [0x6F] WAIT_FRAME_DELAY: Yield until WaitTime reaches zero
  2: 0x0357 [0x70] WAIT_ENTITY_RENDER_FLAG: Wait while EventEntity->Render.Flags3 bit 2 is set (cancel turn if not)
  3: 0x0358 [0x29] REQ_SET_WAIT(priority=0x08, entity_id=Nanaa Mihgo (ID: 17764466/0x010F1072), tag_num=0x01)
  4: 0x035F [0x1D] PRINT_EVENT_MESSAGE(message_id=7616*)
     "Just 'cause I accepted your token of esteem doesn't mean you can get away with murderrr!"
  5: 0x0362 [0x23] WAIT_FOR_DIALOG_INTERACTION
  6: 0x0363 [0x1D] PRINT_EVENT_MESSAGE(message_id=7617*)
     "You have to do things my way if you don't want me getting all catty on you! Now, goodbye and ta-ta!"
  7: 0x0366 [0x23] WAIT_FOR_DIALOG_INTERACTION
  8: 0x0367 [0x29] REQ_SET_WAIT(priority=0x08, entity_id=Nanaa Mihgo (ID: 17764466/0x010F1072), tag_num=0x02)
  9: 0x036E [0x29] REQ_SET_WAIT(priority=0x08, entity_id=Nanaa Mihgo (ID: 17764466/0x010F1072), tag_num=0x03)
 10: 0x0375 [0x29] REQ_SET_WAIT(priority=0x08, entity_id=Nanaa Mihgo (ID: 17764466/0x010F1072), tag_num=0x04)
 11: 0x037C [0x20] SET_CLI_EVENT_UC_FLAG: Unlock player control
 12: 0x037E [0x21] END_EVENT
 13: 0x037F [0x00] END_REQSTACK()
```

### Event 93

#### Metadata

| Field        | Value    |
|--------------|----------|
| Entrypoint   | 0x0380   |
| Data Size    | 86 bytes |
| Instructions | 19       |

```
      00 01 02 03 04 05 06 07  08 09 0A 0B 0C 0D 0E 0F
      -- -- -- -- -- -- -- --  -- -- -- -- -- -- -- --
0380: 29 0B 72 10 0F 01 29 1E  F0 FF FF 7F 6F 70 29 0B  ).r...).....op).
0390: 72 10 0F 01 2A 29 0B 72  10 0F 01 2B 24 16 80 0F  r...*).r...+$...
03A0: 80 0F 80 25 02 00 10 0F  80 00 BB 03 03 01 10 17  ...%............
03B0: 80 29 0B 72 10 0F 01 2D  01 D2 03 02 00 10 17 80  .).r...-........
03C0: 00 D2 03 03 01 10 18 80  29 0B 72 10 0F 01 2C 01  ........).r...,.
03D0: D2 03 20 00 21 00                                 .. .!.          
```

#### Opcodes

```
  0: 0x0380 [0x29] REQ_SET_WAIT(priority=0x0B, entity_id=Nanaa Mihgo (ID: 17764466/0x010F1072), tag_num=0x29)
  1: 0x0387 [0x1E] EventEntity looks at LocalPlayer and starts talking
  2: 0x038C [0x6F] WAIT_FRAME_DELAY: Yield until WaitTime reaches zero
  3: 0x038D [0x70] WAIT_ENTITY_RENDER_FLAG: Wait while EventEntity->Render.Flags3 bit 2 is set (cancel turn if not)
  4: 0x038E [0x29] REQ_SET_WAIT(priority=0x0B, entity_id=Nanaa Mihgo (ID: 17764466/0x010F1072), tag_num=0x2A)
  5: 0x0395 [0x29] REQ_SET_WAIT(priority=0x0B, entity_id=Nanaa Mihgo (ID: 17764466/0x010F1072), tag_num=0x2B)
  6: 0x039C [0x24] CREATE_DIALOG(message_id=7629*, default_option=0*, option_flags=0*)
     "Agree to help? [Accept./Decline.]"
  7: 0x03A3 [0x25] WAIT_DIALOG_SELECT()
  8: 0x03A4 [0x02] IF !(Work_Zone[0] == 0*) GOTO 0x03BB
  9: 0x03AC [0x03] Work_Zone[1] = 1*
 10: 0x03B1 [0x29] REQ_SET_WAIT(priority=0x0B, entity_id=Nanaa Mihgo (ID: 17764466/0x010F1072), tag_num=0x2D)
 11: 0x03B8 [0x01] GOTO 0x03D2
 12: 0x03BB [0x02] IF !(Work_Zone[0] == 1*) GOTO 0x03D2
 13: 0x03C3 [0x03] Work_Zone[1] = 2*
 14: 0x03C8 [0x29] REQ_SET_WAIT(priority=0x0B, entity_id=Nanaa Mihgo (ID: 17764466/0x010F1072), tag_num=0x2C)
 15: 0x03CF [0x01] GOTO 0x03D2

SUBROUTINE_03D2:
 16: 0x03D2 [0x20] SET_CLI_EVENT_UC_FLAG: Unlock player control
 17: 0x03D4 [0x21] END_EVENT
 18: 0x03D5 [0x00] END_REQSTACK()
```

### Event 65535.32

#### Metadata

| Field        | Value    |
|--------------|----------|
| Entrypoint   | 0x03D6   |
| Data Size    | 33 bytes |
| Instructions | 7        |

```
      00 01 02 03 04 05 06 07  08 09 0A 0B 0C 0D 0E 0F
      -- -- -- -- -- -- -- --  -- -- -- -- -- -- -- --
03D0:                   29 08  72 10 0F 01 09 1D 19 80        ).r.......
03E0: 23 29 08 72 10 0F 01 0A  29 08 72 10 0F 01 0B 29  #).r....).r....)
03F0: 08 72 10 0F 01 0C 00                              .r.....         
```

#### Opcodes

```
  0: 0x03D6 [0x29] REQ_SET_WAIT(priority=0x08, entity_id=Nanaa Mihgo (ID: 17764466/0x010F1072), tag_num=0x09)
  1: 0x03DD [0x1D] PRINT_EVENT_MESSAGE(message_id=7624*)
     "Judging by its feel, I'd swear this is a prrrecious stone of some type, but I seem to be losing my instinct on this one..."
  2: 0x03E0 [0x23] WAIT_FOR_DIALOG_INTERACTION
  3: 0x03E1 [0x29] REQ_SET_WAIT(priority=0x08, entity_id=Nanaa Mihgo (ID: 17764466/0x010F1072), tag_num=0x0A)
  4: 0x03E8 [0x29] REQ_SET_WAIT(priority=0x08, entity_id=Nanaa Mihgo (ID: 17764466/0x010F1072), tag_num=0x0B)
  5: 0x03EF [0x29] REQ_SET_WAIT(priority=0x08, entity_id=Nanaa Mihgo (ID: 17764466/0x010F1072), tag_num=0x0C)
  6: 0x03F6 [0x00] END_REQSTACK()
```

### Event 65535.33

#### Metadata

| Field        | Value    |
|--------------|----------|
| Entrypoint   | 0x03F7   |
| Data Size    | 38 bytes |
| Instructions | 9        |

```
      00 01 02 03 04 05 06 07  08 09 0A 0B 0C 0D 0E 0F
      -- -- -- -- -- -- -- --  -- -- -- -- -- -- -- --
03F0:                      29  08 72 10 0F 01 05 1D 1A         ).r......
0400: 80 23 29 08 72 10 0F 01  06 29 08 72 10 0F 01 07  .#).r....).r....
0410: 1D 1B 80 23 29 08 72 10  0F 01 08 00 00           ...#).r......   
```

#### Opcodes

```
  0: 0x03F7 [0x29] REQ_SET_WAIT(priority=0x08, entity_id=Nanaa Mihgo (ID: 17764466/0x010F1072), tag_num=0x05)
  1: 0x03FE [0x1D] PRINT_EVENT_MESSAGE(message_id=7625*)
     "Grrr... Who do you think you are? You shouldn't go sneaking around people's homes...you might be mistaken as a burglar!"
  2: 0x0401 [0x23] WAIT_FOR_DIALOG_INTERACTION
  3: 0x0402 [0x29] REQ_SET_WAIT(priority=0x08, entity_id=Nanaa Mihgo (ID: 17764466/0x010F1072), tag_num=0x06)
  4: 0x0409 [0x29] REQ_SET_WAIT(priority=0x08, entity_id=Nanaa Mihgo (ID: 17764466/0x010F1072), tag_num=0x07)
  5: 0x0410 [0x1D] PRINT_EVENT_MESSAGE(message_id=7626*)
     "But I'll let you off this time...that is, if you can tell me what this stone is!"
  6: 0x0413 [0x23] WAIT_FOR_DIALOG_INTERACTION
  7: 0x0414 [0x29] REQ_SET_WAIT(priority=0x08, entity_id=Nanaa Mihgo (ID: 17764466/0x010F1072), tag_num=0x08)
  8: 0x041B [0x00] END_REQSTACK()
```

#### Data or dead code:

```
# Dead code (unreachable instructions):
     0x041C [0x00] END_REQSTACK()
```

### Event 65535.34

#### Metadata

| Field        | Value    |
|--------------|----------|
| Entrypoint   | 0x041D   |
| Data Size    | 37 bytes |
| Instructions | 9        |

```
      00 01 02 03 04 05 06 07  08 09 0A 0B 0C 0D 0E 0F
      -- -- -- -- -- -- -- --  -- -- -- -- -- -- -- --
0410:                                         29 08 72               ).r
0420: 10 0F 01 01 1D 1C 80 23  1D 1D 80 23 29 08 72 10  .......#...#).r.
0430: 0F 01 02 29 08 72 10 0F  01 03 29 08 72 10 0F 01  ...).r....).r...
0440: 04 00                                             ..              
```

#### Opcodes

```
  0: 0x041D [0x29] REQ_SET_WAIT(priority=0x08, entity_id=Nanaa Mihgo (ID: 17764466/0x010F1072), tag_num=0x01)
  1: 0x0424 [0x1D] PRINT_EVENT_MESSAGE(message_id=7627*)
     "As farrr as I can tell, it looks just like a plain rock, but it may be some kind of ore or something. I wonderrr..."
  2: 0x0427 [0x23] WAIT_FOR_DIALOG_INTERACTION
  3: 0x0428 [0x1D] PRINT_EVENT_MESSAGE(message_id=7628*)
     "Hey, that's it...! I have a little job for you! Carrre to go to the Goldsmiths' Guild in Bastok and ask them what in Vana'diel this is?"
  4: 0x042B [0x23] WAIT_FOR_DIALOG_INTERACTION
  5: 0x042C [0x29] REQ_SET_WAIT(priority=0x08, entity_id=Nanaa Mihgo (ID: 17764466/0x010F1072), tag_num=0x02)
  6: 0x0433 [0x29] REQ_SET_WAIT(priority=0x08, entity_id=Nanaa Mihgo (ID: 17764466/0x010F1072), tag_num=0x03)
  7: 0x043A [0x29] REQ_SET_WAIT(priority=0x08, entity_id=Nanaa Mihgo (ID: 17764466/0x010F1072), tag_num=0x04)
  8: 0x0441 [0x00] END_REQSTACK()
```

### Event 65535.35

#### Metadata

| Field        | Value   |
|--------------|---------|
| Entrypoint   | 0x0442  |
| Data Size    | 5 bytes |
| Instructions | 3       |

```
      00 01 02 03 04 05 06 07  08 09 0A 0B 0C 0D 0E 0F
      -- -- -- -- -- -- -- --  -- -- -- -- -- -- -- --
0440:       1D 1E 80 23 00                                ...#.         
```

#### Opcodes

```
  0: 0x0442 [0x1D] PRINT_EVENT_MESSAGE(message_id=7630*)
     "Neverrr mind. I'll just throw this at...I mean, to...the kids who follow me around."
  1: 0x0445 [0x23] WAIT_FOR_DIALOG_INTERACTION
  2: 0x0446 [0x00] END_REQSTACK()
```

### Event 65535.36

#### Metadata

| Field        | Value    |
|--------------|----------|
| Entrypoint   | 0x0447   |
| Data Size    | 33 bytes |
| Instructions | 7        |

```
      00 01 02 03 04 05 06 07  08 09 0A 0B 0C 0D 0E 0F
      -- -- -- -- -- -- -- --  -- -- -- -- -- -- -- --
0440:                      29  08 72 10 0F 01 01 1D 1F         ).r......
0450: 80 23 29 08 72 10 0F 01  02 29 08 72 10 0F 01 03  .#).r....).r....
0460: 29 08 72 10 0F 01 04 00                           ).r.....        
```

#### Opcodes

```
  0: 0x0447 [0x29] REQ_SET_WAIT(priority=0x08, entity_id=Nanaa Mihgo (ID: 17764466/0x010F1072), tag_num=0x01)
  1: 0x044E [0x1D] PRINT_EVENT_MESSAGE(message_id=7631*)
     "If it isn't worth much, then go ahead and sell it to the Goldsmiths' Guild. Just make sure you bring the prrroceeds back to me, okay?"
  2: 0x0451 [0x23] WAIT_FOR_DIALOG_INTERACTION
  3: 0x0452 [0x29] REQ_SET_WAIT(priority=0x08, entity_id=Nanaa Mihgo (ID: 17764466/0x010F1072), tag_num=0x02)
  4: 0x0459 [0x29] REQ_SET_WAIT(priority=0x08, entity_id=Nanaa Mihgo (ID: 17764466/0x010F1072), tag_num=0x03)
  5: 0x0460 [0x29] REQ_SET_WAIT(priority=0x08, entity_id=Nanaa Mihgo (ID: 17764466/0x010F1072), tag_num=0x04)
  6: 0x0467 [0x00] END_REQSTACK()
```

### Event 94

#### Metadata

| Field        | Value    |
|--------------|----------|
| Entrypoint   | 0x0468   |
| Data Size    | 47 bytes |
| Instructions | 14       |

```
      00 01 02 03 04 05 06 07  08 09 0A 0B 0C 0D 0E 0F
      -- -- -- -- -- -- -- --  -- -- -- -- -- -- -- --
0460:                          1E F0 FF FF 7F 6F 70 29          .....op)
0470: 08 72 10 0F 01 09 1D 20  80 23 1D 21 80 23 29 08  .r..... .#.!.#).
0480: 72 10 0F 01 0A 29 08 72  10 0F 01 0B 29 08 72 10  r....).r....).r.
0490: 0F 01 0C 20 00 21 00                              ... .!.         
```

#### Opcodes

```
  0: 0x0468 [0x1E] EventEntity looks at LocalPlayer and starts talking
  1: 0x046D [0x6F] WAIT_FRAME_DELAY: Yield until WaitTime reaches zero
  2: 0x046E [0x70] WAIT_ENTITY_RENDER_FLAG: Wait while EventEntity->Render.Flags3 bit 2 is set (cancel turn if not)
  3: 0x046F [0x29] REQ_SET_WAIT(priority=0x08, entity_id=Nanaa Mihgo (ID: 17764466/0x010F1072), tag_num=0x09)
  4: 0x0476 [0x1D] PRINT_EVENT_MESSAGE(message_id=7632*)
     "Head over to the Goldsmiths' Guild in Bastok and ask them what that stone is."
  5: 0x0479 [0x23] WAIT_FOR_DIALOG_INTERACTION
  6: 0x047A [0x1D] PRINT_EVENT_MESSAGE(message_id=7633*)
     "If it isn't worrrth much, then sell it to the Goldsmiths' Guild. Just be sure you bring the proceeds from the sale back to me, okay?"
  7: 0x047D [0x23] WAIT_FOR_DIALOG_INTERACTION
  8: 0x047E [0x29] REQ_SET_WAIT(priority=0x08, entity_id=Nanaa Mihgo (ID: 17764466/0x010F1072), tag_num=0x0A)
  9: 0x0485 [0x29] REQ_SET_WAIT(priority=0x08, entity_id=Nanaa Mihgo (ID: 17764466/0x010F1072), tag_num=0x0B)
 10: 0x048C [0x29] REQ_SET_WAIT(priority=0x08, entity_id=Nanaa Mihgo (ID: 17764466/0x010F1072), tag_num=0x0C)
 11: 0x0493 [0x20] SET_CLI_EVENT_UC_FLAG: Unlock player control
 12: 0x0495 [0x21] END_EVENT
 13: 0x0496 [0x00] END_REQSTACK()
```

### Event 95

#### Metadata

| Field        | Value    |
|--------------|----------|
| Entrypoint   | 0x0497   |
| Data Size    | 47 bytes |
| Instructions | 14       |

```
      00 01 02 03 04 05 06 07  08 09 0A 0B 0C 0D 0E 0F
      -- -- -- -- -- -- -- --  -- -- -- -- -- -- -- --
0490:                      1E  F0 FF FF 7F 6F 70 29 08         .....op).
04A0: 72 10 0F 01 09 1D 22 80  23 1D 23 80 23 29 08 72  r.....".#.#.#).r
04B0: 10 0F 01 0A 29 08 72 10  0F 01 0B 29 08 72 10 0F  ....).r....).r..
04C0: 01 0C 20 00 21 00                                 .. .!.          
```

#### Opcodes

```
  0: 0x0497 [0x1E] EventEntity looks at LocalPlayer and starts talking
  1: 0x049C [0x6F] WAIT_FRAME_DELAY: Yield until WaitTime reaches zero
  2: 0x049D [0x70] WAIT_ENTITY_RENDER_FLAG: Wait while EventEntity->Render.Flags3 bit 2 is set (cancel turn if not)
  3: 0x049E [0x29] REQ_SET_WAIT(priority=0x08, entity_id=Nanaa Mihgo (ID: 17764466/0x010F1072), tag_num=0x09)
  4: 0x04A5 [0x1D] PRINT_EVENT_MESSAGE(message_id=7634*)
     "So, did you make it to the Goldsmiths' Guild in Bastok? Good for you! And how much did you get for that lump of rrrock?"
  5: 0x04A8 [0x23] WAIT_FOR_DIALOG_INTERACTION
  6: 0x04A9 [0x1D] PRINT_EVENT_MESSAGE(message_id=7635*)
     "Oh...You didn't sell it? Well, go back to Bastok and sell it, then. Now, get going!"
  7: 0x04AC [0x23] WAIT_FOR_DIALOG_INTERACTION
  8: 0x04AD [0x29] REQ_SET_WAIT(priority=0x08, entity_id=Nanaa Mihgo (ID: 17764466/0x010F1072), tag_num=0x0A)
  9: 0x04B4 [0x29] REQ_SET_WAIT(priority=0x08, entity_id=Nanaa Mihgo (ID: 17764466/0x010F1072), tag_num=0x0B)
 10: 0x04BB [0x29] REQ_SET_WAIT(priority=0x08, entity_id=Nanaa Mihgo (ID: 17764466/0x010F1072), tag_num=0x0C)
 11: 0x04C2 [0x20] SET_CLI_EVENT_UC_FLAG: Unlock player control
 12: 0x04C4 [0x21] END_EVENT
 13: 0x04C5 [0x00] END_REQSTACK()
```

### Event 98

#### Metadata

| Field        | Value    |
|--------------|----------|
| Entrypoint   | 0x04C6   |
| Data Size    | 18 bytes |
| Instructions | 7        |

```
      00 01 02 03 04 05 06 07  08 09 0A 0B 0C 0D 0E 0F
      -- -- -- -- -- -- -- --  -- -- -- -- -- -- -- --
04C0:                   1E F0  FF FF 7F 6F 70 29 0B 72        .....op).r
04D0: 10 0F 01 31 20 00 21 00                           ...1 .!.        
```

#### Opcodes

```
  0: 0x04C6 [0x1E] EventEntity looks at LocalPlayer and starts talking
  1: 0x04CB [0x6F] WAIT_FRAME_DELAY: Yield until WaitTime reaches zero
  2: 0x04CC [0x70] WAIT_ENTITY_RENDER_FLAG: Wait while EventEntity->Render.Flags3 bit 2 is set (cancel turn if not)
  3: 0x04CD [0x29] REQ_SET_WAIT(priority=0x0B, entity_id=Nanaa Mihgo (ID: 17764466/0x010F1072), tag_num=0x31)
  4: 0x04D4 [0x20] SET_CLI_EVENT_UC_FLAG: Unlock player control
  5: 0x04D6 [0x21] END_EVENT
  6: 0x04D7 [0x00] END_REQSTACK()
```

### Event 65535.37

#### Metadata

| Field        | Value    |
|--------------|----------|
| Entrypoint   | 0x04D8   |
| Data Size    | 37 bytes |
| Instructions | 9        |

```
      00 01 02 03 04 05 06 07  08 09 0A 0B 0C 0D 0E 0F
      -- -- -- -- -- -- -- --  -- -- -- -- -- -- -- --
04D0:                          29 08 72 10 0F 01 01 1D          ).r.....
04E0: 24 80 23 1D 25 80 23 29  08 72 10 0F 01 02 29 08  $.#.%.#).r....).
04F0: 72 10 0F 01 03 29 08 72  10 0F 01 04 00           r....).r.....   
```

#### Opcodes

```
  0: 0x04D8 [0x29] REQ_SET_WAIT(priority=0x08, entity_id=Nanaa Mihgo (ID: 17764466/0x010F1072), tag_num=0x01)
  1: 0x04DF [0x1D] PRINT_EVENT_MESSAGE(message_id=7640*)
     "Ah! Don't tell me you sold off my rock for that dismal sum!"
  2: 0x04E2 [0x23] WAIT_FOR_DIALOG_INTERACTION
  3: 0x04E3 [0x1D] PRINT_EVENT_MESSAGE(message_id=7641*)
     "Grrr... If you hadn't sold it off, we could have received a bigger reward from that silly traveler for finding it... Oh well... It's no longer worth my bother."
  4: 0x04E6 [0x23] WAIT_FOR_DIALOG_INTERACTION
  5: 0x04E7 [0x29] REQ_SET_WAIT(priority=0x08, entity_id=Nanaa Mihgo (ID: 17764466/0x010F1072), tag_num=0x02)
  6: 0x04EE [0x29] REQ_SET_WAIT(priority=0x08, entity_id=Nanaa Mihgo (ID: 17764466/0x010F1072), tag_num=0x03)
  7: 0x04F5 [0x29] REQ_SET_WAIT(priority=0x08, entity_id=Nanaa Mihgo (ID: 17764466/0x010F1072), tag_num=0x04)
  8: 0x04FC [0x00] END_REQSTACK()
```

### Event 99

#### Metadata

| Field        | Value    |
|--------------|----------|
| Entrypoint   | 0x04FD   |
| Data Size    | 47 bytes |
| Instructions | 14       |

```
      00 01 02 03 04 05 06 07  08 09 0A 0B 0C 0D 0E 0F
      -- -- -- -- -- -- -- --  -- -- -- -- -- -- -- --
04F0:                                         1E F0 FF               ...
0500: FF 7F 6F 70 29 08 72 10  0F 01 01 1D 24 80 23 1D  ..op).r.....$.#.
0510: 25 80 23 29 08 72 10 0F  01 02 29 08 72 10 0F 01  %.#).r....).r...
0520: 03 29 08 72 10 0F 01 04  20 00 21 00              .).r.... .!.    
```

#### Opcodes

```
  0: 0x04FD [0x1E] EventEntity looks at LocalPlayer and starts talking
  1: 0x0502 [0x6F] WAIT_FRAME_DELAY: Yield until WaitTime reaches zero
  2: 0x0503 [0x70] WAIT_ENTITY_RENDER_FLAG: Wait while EventEntity->Render.Flags3 bit 2 is set (cancel turn if not)
  3: 0x0504 [0x29] REQ_SET_WAIT(priority=0x08, entity_id=Nanaa Mihgo (ID: 17764466/0x010F1072), tag_num=0x01)
  4: 0x050B [0x1D] PRINT_EVENT_MESSAGE(message_id=7640*)
     "Ah! Don't tell me you sold off my rock for that dismal sum!"
  5: 0x050E [0x23] WAIT_FOR_DIALOG_INTERACTION
  6: 0x050F [0x1D] PRINT_EVENT_MESSAGE(message_id=7641*)
     "Grrr... If you hadn't sold it off, we could have received a bigger reward from that silly traveler for finding it... Oh well... It's no longer worth my bother."
  7: 0x0512 [0x23] WAIT_FOR_DIALOG_INTERACTION
  8: 0x0513 [0x29] REQ_SET_WAIT(priority=0x08, entity_id=Nanaa Mihgo (ID: 17764466/0x010F1072), tag_num=0x02)
  9: 0x051A [0x29] REQ_SET_WAIT(priority=0x08, entity_id=Nanaa Mihgo (ID: 17764466/0x010F1072), tag_num=0x03)
 10: 0x0521 [0x29] REQ_SET_WAIT(priority=0x08, entity_id=Nanaa Mihgo (ID: 17764466/0x010F1072), tag_num=0x04)
 11: 0x0528 [0x20] SET_CLI_EVENT_UC_FLAG: Unlock player control
 12: 0x052A [0x21] END_EVENT
 13: 0x052B [0x00] END_REQSTACK()
```

### Event 387

#### Metadata

| Field        | Value    |
|--------------|----------|
| Entrypoint   | 0x052C   |
| Data Size    | 43 bytes |
| Instructions | 12       |

```
      00 01 02 03 04 05 06 07  08 09 0A 0B 0C 0D 0E 0F
      -- -- -- -- -- -- -- --  -- -- -- -- -- -- -- --
0520:                                      1E F0 FF FF              ....
0530: 7F 6F 70 29 08 72 10 0F  01 01 1D 26 80 23 29 08  .op).r.....&.#).
0540: 72 10 0F 01 02 29 08 72  10 0F 01 03 29 08 72 10  r....).r....).r.
0550: 0F 01 04 20 00 21 00                              ... .!.         
```

#### Opcodes

```
  0: 0x052C [0x1E] EventEntity looks at LocalPlayer and starts talking
  1: 0x0531 [0x6F] WAIT_FRAME_DELAY: Yield until WaitTime reaches zero
  2: 0x0532 [0x70] WAIT_ENTITY_RENDER_FLAG: Wait while EventEntity->Render.Flags3 bit 2 is set (cancel turn if not)
  3: 0x0533 [0x29] REQ_SET_WAIT(priority=0x08, entity_id=Nanaa Mihgo (ID: 17764466/0x010F1072), tag_num=0x01)
  4: 0x053A [0x1D] PRINT_EVENT_MESSAGE(message_id=8441*)
     "Can't you see I'm busy now? Give a girl a little brrreathing room, huh?"
  5: 0x053D [0x23] WAIT_FOR_DIALOG_INTERACTION
  6: 0x053E [0x29] REQ_SET_WAIT(priority=0x08, entity_id=Nanaa Mihgo (ID: 17764466/0x010F1072), tag_num=0x02)
  7: 0x0545 [0x29] REQ_SET_WAIT(priority=0x08, entity_id=Nanaa Mihgo (ID: 17764466/0x010F1072), tag_num=0x03)
  8: 0x054C [0x29] REQ_SET_WAIT(priority=0x08, entity_id=Nanaa Mihgo (ID: 17764466/0x010F1072), tag_num=0x04)
  9: 0x0553 [0x20] SET_CLI_EVENT_UC_FLAG: Unlock player control
 10: 0x0555 [0x21] END_EVENT
 11: 0x0556 [0x00] END_REQSTACK()
```

### Event 165

#### Metadata

| Field        | Value     |
|--------------|-----------|
| Entrypoint   | 0x0557    |
| Data Size    | 253 bytes |
| Instructions | 38        |

```
      00 01 02 03 04 05 06 07  08 09 0A 0B 0C 0D 0E 0F
      -- -- -- -- -- -- -- --  -- -- -- -- -- -- -- --
0550:                      42  46 01 1E F0 FF FF 7F 6F         BF......o
0560: 70 45 27 80 F8 FF FF 7F  F8 FF FF 7F 66 64 6F 31  pE'.........fdo1
0570: 0F 80 1C 28 80 38 29 80  4E 01 F0 FF FF 7F 29 0B  ...(.8).N.....).
0580: F0 FF FF 7F 2D 1E F0 FF  FF 7F 6F 70 45 2A 80 F8  ....-.....opE*..
0590: FF FF 7F F8 FF FF 7F 73  30 37 33 0F 80 45 27 80  .......s073..E'.
05A0: F8 FF FF 7F F8 FF FF 7F  66 64 69 31 0F 80 29 0B  ........fdi1..).
05B0: 72 10 0F 01 35 45 2A 80  F8 FF FF 7F F8 FF FF 7F  r...5E*.........
05C0: 73 30 37 35 0F 80 4E 00  F0 FF FF 7F 29 0B 72 10  s075..N.....).r.
05D0: 0F 01 36 52 2A 80 F8 FF  FF 7F F8 FF FF 7F 73 30  ..6R*.........s0
05E0: 37 35 24 2B 80 0F 80 0F  80 25 02 00 10 0F 80 00  75$+.....%......
05F0: 12 06 03 01 10 17 80 45  2A 80 F8 FF FF 7F F8 FF  .......E*.......
0600: FF 7F 73 30 37 34 0F 80  29 0B 72 10 0F 01 38 01  ..s074..).r...8.
0610: 29 06 02 00 10 17 80 00  29 06 03 01 10 18 80 29  ).......)......)
0620: 0B 72 10 0F 01 37 01 29  06 45 27 80 F8 FF FF 7F  .r...7.).E'.....
0630: F8 FF FF 7F 66 64 6F 31  0F 80 1C 28 80 46 00 45  ....fdo1...(.F.E
0640: 27 80 F8 FF FF 7F F8 FF  FF 7F 66 64 69 31 0F 80  '.........fdi1..
0650: 20 00 21 00                                        .!.            
```

#### Opcodes

```
  0: 0x0557 [0x42] SET_CLI_EVENT_CANCEL_DATA()
  1: 0x0558 [0x46] CAMERA_CONTROL: Disable user control
  2: 0x055A [0x1E] EventEntity looks at LocalPlayer and starts talking
  3: 0x055F [0x6F] WAIT_FRAME_DELAY: Yield until WaitTime reaches zero
  4: 0x0560 [0x70] WAIT_ENTITY_RENDER_FLAG: Wait while EventEntity->Render.Flags3 bit 2 is set (cancel turn if not)
  5: 0x0561 [0x45] LOAD_SCHEDULED_TASK: Load scheduler "fdo1" with entities [EventEntity, EventEntity], work=[200*, 0*]
  6: 0x0572 [0x1C] WAIT(60* ticks)
  7: 0x0575 [0x38] SET_CLIENT_EVENT_MODE(mode=3*)
  8: 0x0578 [0x4E] SET_ENTITY_HIDE_FLAG: Hide LocalPlayer
  9: 0x057E [0x29] REQ_SET_WAIT(priority=0x0B, entity_id=LocalPlayer, tag_num=0x2D)
 10: 0x0585 [0x1E] EventEntity looks at LocalPlayer and starts talking
 11: 0x058A [0x6F] WAIT_FRAME_DELAY: Yield until WaitTime reaches zero
 12: 0x058B [0x70] WAIT_ENTITY_RENDER_FLAG: Wait while EventEntity->Render.Flags3 bit 2 is set (cancel turn if not)
 13: 0x058C [0x45] LOAD_SCHEDULED_TASK: Load scheduler "s073" with entities [EventEntity, EventEntity], work=[141*, 0*]
 14: 0x059D [0x45] LOAD_SCHEDULED_TASK: Load scheduler "fdi1" with entities [EventEntity, EventEntity], work=[200*, 0*]
 15: 0x05AE [0x29] REQ_SET_WAIT(priority=0x0B, entity_id=Nanaa Mihgo (ID: 17764466/0x010F1072), tag_num=0x35)
 16: 0x05B5 [0x45] LOAD_SCHEDULED_TASK: Load scheduler "s075" with entities [EventEntity, EventEntity], work=[141*, 0*]
 17: 0x05C6 [0x4E] SET_ENTITY_HIDE_FLAG: Show LocalPlayer
 18: 0x05CC [0x29] REQ_SET_WAIT(priority=0x0B, entity_id=Nanaa Mihgo (ID: 17764466/0x010F1072), tag_num=0x36)
 19: 0x05D3 [0x52] END_LOAD_SCHEDULER: End scheduler "s075" with entities [EventEntity, EventEntity], work=141*
 20: 0x05E2 [0x24] CREATE_DIALOG(message_id=7828*, default_option=0*, option_flags=0*)
     "Hear her favor? [Listen./Refuse.]"
 21: 0x05E9 [0x25] WAIT_DIALOG_SELECT()
 22: 0x05EA [0x02] IF !(Work_Zone[0] == 0*) GOTO 0x0612
 23: 0x05F2 [0x03] Work_Zone[1] = 1*
 24: 0x05F7 [0x45] LOAD_SCHEDULED_TASK: Load scheduler "s074" with entities [EventEntity, EventEntity], work=[141*, 0*]
 25: 0x0608 [0x29] REQ_SET_WAIT(priority=0x0B, entity_id=Nanaa Mihgo (ID: 17764466/0x010F1072), tag_num=0x38)
 26: 0x060F [0x01] GOTO 0x0629
 27: 0x0612 [0x02] IF !(Work_Zone[0] == 1*) GOTO 0x0629
 28: 0x061A [0x03] Work_Zone[1] = 2*
 29: 0x061F [0x29] REQ_SET_WAIT(priority=0x0B, entity_id=Nanaa Mihgo (ID: 17764466/0x010F1072), tag_num=0x37)
 30: 0x0626 [0x01] GOTO 0x0629

SUBROUTINE_0629:
 31: 0x0629 [0x45] LOAD_SCHEDULED_TASK: Load scheduler "fdo1" with entities [EventEntity, EventEntity], work=[200*, 0*]
 32: 0x063A [0x1C] WAIT(60* ticks)
 33: 0x063D [0x46] CAMERA_CONTROL: Restore default settings
 34: 0x063F [0x45] LOAD_SCHEDULED_TASK: Load scheduler "fdi1" with entities [EventEntity, EventEntity], work=[200*, 0*]
 35: 0x0650 [0x20] SET_CLI_EVENT_UC_FLAG: Unlock player control
 36: 0x0652 [0x21] END_EVENT
 37: 0x0653 [0x00] END_REQSTACK()
```

### Event 65535.38

#### Metadata

| Field        | Value    |
|--------------|----------|
| Entrypoint   | 0x0654   |
| Data Size    | 37 bytes |
| Instructions | 9        |

```
      00 01 02 03 04 05 06 07  08 09 0A 0B 0C 0D 0E 0F
      -- -- -- -- -- -- -- --  -- -- -- -- -- -- -- --
0650:             29 08 72 10  0F 01 05 1D 2C 80 23 29      ).r.....,.#)
0660: 08 72 10 0F 01 06 29 08  72 10 0F 01 07 1D 2D 80  .r....).r.....-.
0670: 23 29 08 72 10 0F 01 08  00                       #).r.....       
```

#### Opcodes

```
  0: 0x0654 [0x29] REQ_SET_WAIT(priority=0x08, entity_id=Nanaa Mihgo (ID: 17764466/0x010F1072), tag_num=0x05)
  1: 0x065B [0x1D] PRINT_EVENT_MESSAGE(message_id=7824*)
     "You want to know if I have a "restrrricted book" in my possession, do you?"
  2: 0x065E [0x23] WAIT_FOR_DIALOG_INTERACTION
  3: 0x065F [0x29] REQ_SET_WAIT(priority=0x08, entity_id=Nanaa Mihgo (ID: 17764466/0x010F1072), tag_num=0x06)
  4: 0x0666 [0x29] REQ_SET_WAIT(priority=0x08, entity_id=Nanaa Mihgo (ID: 17764466/0x010F1072), tag_num=0x07)
  5: 0x066D [0x1D] PRINT_EVENT_MESSAGE(message_id=7825*)
     "Where in Vana'diel did you hearrr that? You can never be too carrreful, you know."
  6: 0x0670 [0x23] WAIT_FOR_DIALOG_INTERACTION
  7: 0x0671 [0x29] REQ_SET_WAIT(priority=0x08, entity_id=Nanaa Mihgo (ID: 17764466/0x010F1072), tag_num=0x08)
  8: 0x0678 [0x00] END_REQSTACK()
```

### Event 65535.39

#### Metadata

| Field        | Value    |
|--------------|----------|
| Entrypoint   | 0x0679   |
| Data Size    | 37 bytes |
| Instructions | 9        |

```
      00 01 02 03 04 05 06 07  08 09 0A 0B 0C 0D 0E 0F
      -- -- -- -- -- -- -- --  -- -- -- -- -- -- -- --
0670:                             29 08 72 10 0F 01 09           ).r....
0680: 1D 2E 80 23 29 08 72 10  0F 01 0A 29 08 72 10 0F  ...#).r....).r..
0690: 01 0B 1D 2F 80 23 29 08  72 10 0F 01 0C 00        .../.#).r.....  
```

#### Opcodes

```
  0: 0x0679 [0x29] REQ_SET_WAIT(priority=0x08, entity_id=Nanaa Mihgo (ID: 17764466/0x010F1072), tag_num=0x09)
  1: 0x0680 [0x1D] PRINT_EVENT_MESSAGE(message_id=7826*)
     "Okay, I'll let you in on it. You're a second rank adventurer, arrren't you? Then allow me to ask you this little favor I have firrrst..."
  2: 0x0683 [0x23] WAIT_FOR_DIALOG_INTERACTION
  3: 0x0684 [0x29] REQ_SET_WAIT(priority=0x08, entity_id=Nanaa Mihgo (ID: 17764466/0x010F1072), tag_num=0x0A)
  4: 0x068B [0x29] REQ_SET_WAIT(priority=0x08, entity_id=Nanaa Mihgo (ID: 17764466/0x010F1072), tag_num=0x0B)
  5: 0x0692 [0x1D] PRINT_EVENT_MESSAGE(message_id=7827*)
     "If you scratch my back, I'll scrrratch yours...so to speak. Do what I ask and I'll let you check the book I found. How about it, then?"
  6: 0x0695 [0x23] WAIT_FOR_DIALOG_INTERACTION
  7: 0x0696 [0x29] REQ_SET_WAIT(priority=0x08, entity_id=Nanaa Mihgo (ID: 17764466/0x010F1072), tag_num=0x0C)
  8: 0x069D [0x00] END_REQSTACK()
```

### Event 65535.40

#### Metadata

| Field        | Value   |
|--------------|---------|
| Entrypoint   | 0x069E  |
| Data Size    | 5 bytes |
| Instructions | 3       |

```
      00 01 02 03 04 05 06 07  08 09 0A 0B 0C 0D 0E 0F
      -- -- -- -- -- -- -- --  -- -- -- -- -- -- -- --
0690:                                            1D 30                .0
06A0: 80 23 00                                          .#.             
```

#### Opcodes

```
  0: 0x069E [0x1D] PRINT_EVENT_MESSAGE(message_id=7829*)
     "If that's how it is, then farrrewell, sucker."
  1: 0x06A1 [0x23] WAIT_FOR_DIALOG_INTERACTION
  2: 0x06A2 [0x00] END_REQSTACK()
```

### Event 65535.41

#### Metadata

| Field        | Value   |
|--------------|---------|
| Entrypoint   | 0x06A3  |
| Data Size    | 9 bytes |
| Instructions | 5       |

```
      00 01 02 03 04 05 06 07  08 09 0A 0B 0C 0D 0E 0F
      -- -- -- -- -- -- -- --  -- -- -- -- -- -- -- --
06A0:          1D 31 80 23 1D  32 80 23 00                 .1.#.2.#.    
```

#### Opcodes

```
  0: 0x06A3 [0x1D] PRINT_EVENT_MESSAGE(message_id=7830*)
     "Did you know that up in the Tahrongi Canyon, there is a serrries of caves known as the Maze of Shakhrami?"
  1: 0x06A6 [0x23] WAIT_FOR_DIALOG_INTERACTION
  2: 0x06A7 [0x1D] PRINT_EVENT_MESSAGE(message_id=7831*)
     "If you examine the rocks in those caves with this $3 harrrd enough, you should be able to find $6. I want you to brrring me one. Happy hunting!"
  3: 0x06AA [0x23] WAIT_FOR_DIALOG_INTERACTION
  4: 0x06AB [0x00] END_REQSTACK()
```

### Event 166

#### Metadata

| Field        | Value    |
|--------------|----------|
| Entrypoint   | 0x06AC   |
| Data Size    | 47 bytes |
| Instructions | 14       |

```
      00 01 02 03 04 05 06 07  08 09 0A 0B 0C 0D 0E 0F
      -- -- -- -- -- -- -- --  -- -- -- -- -- -- -- --
06A0:                                      1E F0 FF FF              ....
06B0: 7F 6F 70 29 08 72 10 0F  01 01 1D 33 80 23 1D 34  .op).r.....3.#.4
06C0: 80 23 29 08 72 10 0F 01  02 29 08 72 10 0F 01 03  .#).r....).r....
06D0: 29 08 72 10 0F 01 04 20  00 21 00                 ).r.... .!.     
```

#### Opcodes

```
  0: 0x06AC [0x1E] EventEntity looks at LocalPlayer and starts talking
  1: 0x06B1 [0x6F] WAIT_FRAME_DELAY: Yield until WaitTime reaches zero
  2: 0x06B2 [0x70] WAIT_ENTITY_RENDER_FLAG: Wait while EventEntity->Render.Flags3 bit 2 is set (cancel turn if not)
  3: 0x06B3 [0x29] REQ_SET_WAIT(priority=0x08, entity_id=Nanaa Mihgo (ID: 17764466/0x010F1072), tag_num=0x01)
  4: 0x06BA [0x1D] PRINT_EVENT_MESSAGE(message_id=7832*)
     "In the Tahrongi Canyon, there is a serrries of caves called the Maze of Shakhrami."
  5: 0x06BD [0x23] WAIT_FOR_DIALOG_INTERACTION
  6: 0x06BE [0x1D] PRINT_EVENT_MESSAGE(message_id=7833*)
     "If you examine the rocks in those caves with that $3 you have therrre, you should be able to find $6. I want you to brrring me one. No coral, no deal!"
  7: 0x06C1 [0x23] WAIT_FOR_DIALOG_INTERACTION
  8: 0x06C2 [0x29] REQ_SET_WAIT(priority=0x08, entity_id=Nanaa Mihgo (ID: 17764466/0x010F1072), tag_num=0x02)
  9: 0x06C9 [0x29] REQ_SET_WAIT(priority=0x08, entity_id=Nanaa Mihgo (ID: 17764466/0x010F1072), tag_num=0x03)
 10: 0x06D0 [0x29] REQ_SET_WAIT(priority=0x08, entity_id=Nanaa Mihgo (ID: 17764466/0x010F1072), tag_num=0x04)
 11: 0x06D7 [0x20] SET_CLI_EVENT_UC_FLAG: Unlock player control
 12: 0x06D9 [0x21] END_EVENT
 13: 0x06DA [0x00] END_REQSTACK()
```

### Event 169

#### Metadata

| Field        | Value     |
|--------------|-----------|
| Entrypoint   | 0x06DB    |
| Data Size    | 166 bytes |
| Instructions | 30        |

```
      00 01 02 03 04 05 06 07  08 09 0A 0B 0C 0D 0E 0F
      -- -- -- -- -- -- -- --  -- -- -- -- -- -- -- --
06D0:                                   42 46 01 1E F0             BF...
06E0: FF FF 7F 6F 70 45 27 80  F8 FF FF 7F F8 FF FF 7F  ...opE'.........
06F0: 66 64 6F 31 0F 80 1C 28  80 38 29 80 4E 01 F0 FF  fdo1...(.8).N...
0700: FF 7F 29 0B F0 FF FF 7F  2D 1E F0 FF FF 7F 6F 70  ..).....-.....op
0710: 45 2A 80 F8 FF FF 7F F8  FF FF 7F 73 30 37 33 0F  E*.........s073.
0720: 80 45 27 80 F8 FF FF 7F  F8 FF FF 7F 66 64 69 31  .E'.........fdi1
0730: 0F 80 29 08 72 10 0F 01  09 1D 35 80 23 29 08 72  ..).r.....5.#).r
0740: 10 0F 01 0A 29 08 72 10  0F 01 0B 1D 36 80 23 29  ....).r.....6.#)
0750: 08 72 10 0F 01 0C 45 27  80 F8 FF FF 7F F8 FF FF  .r....E'........
0760: 7F 66 64 6F 31 0F 80 1C  28 80 46 00 45 27 80 F8  .fdo1...(.F.E'..
0770: FF FF 7F F8 FF FF 7F 66  64 69 31 0F 80 20 00 21  .......fdi1.. .!
0780: 00                                                .               
```

#### Opcodes

```
  0: 0x06DB [0x42] SET_CLI_EVENT_CANCEL_DATA()
  1: 0x06DC [0x46] CAMERA_CONTROL: Disable user control
  2: 0x06DE [0x1E] EventEntity looks at LocalPlayer and starts talking
  3: 0x06E3 [0x6F] WAIT_FRAME_DELAY: Yield until WaitTime reaches zero
  4: 0x06E4 [0x70] WAIT_ENTITY_RENDER_FLAG: Wait while EventEntity->Render.Flags3 bit 2 is set (cancel turn if not)
  5: 0x06E5 [0x45] LOAD_SCHEDULED_TASK: Load scheduler "fdo1" with entities [EventEntity, EventEntity], work=[200*, 0*]
  6: 0x06F6 [0x1C] WAIT(60* ticks)
  7: 0x06F9 [0x38] SET_CLIENT_EVENT_MODE(mode=3*)
  8: 0x06FC [0x4E] SET_ENTITY_HIDE_FLAG: Hide LocalPlayer
  9: 0x0702 [0x29] REQ_SET_WAIT(priority=0x0B, entity_id=LocalPlayer, tag_num=0x2D)
 10: 0x0709 [0x1E] EventEntity looks at LocalPlayer and starts talking
 11: 0x070E [0x6F] WAIT_FRAME_DELAY: Yield until WaitTime reaches zero
 12: 0x070F [0x70] WAIT_ENTITY_RENDER_FLAG: Wait while EventEntity->Render.Flags3 bit 2 is set (cancel turn if not)
 13: 0x0710 [0x45] LOAD_SCHEDULED_TASK: Load scheduler "s073" with entities [EventEntity, EventEntity], work=[141*, 0*]
 14: 0x0721 [0x45] LOAD_SCHEDULED_TASK: Load scheduler "fdi1" with entities [EventEntity, EventEntity], work=[200*, 0*]
 15: 0x0732 [0x29] REQ_SET_WAIT(priority=0x08, entity_id=Nanaa Mihgo (ID: 17764466/0x010F1072), tag_num=0x09)
 16: 0x0739 [0x1D] PRINT_EVENT_MESSAGE(message_id=7839*)
     "So, you came thrrrough with it? Here, I'll give you this key. We'll make the trrransaction at my hideout, deep in the Horutoto Ruins."
