# 17764421

## Common Data

| Field            | Value                    |
|------------------|--------------------------|
| Zone             | Windurst Woods (ID: 241) |
| Block Size       | 2880 bytes               |
| Total Events     | 57                       |
| References Count | 234                      |

## List of Events

| Event ID                   | Entrypoint   |   Size |   Instructions |
|----------------------------|--------------|--------|----------------|
| [65535](#event-65535)      | 0x0000       |      1 |              1 |
| [746](#event-746)          | 0x0001       |      1 |              1 |
| [742](#event-742)          | 0x0002       |      1 |              1 |
| [65535.1](#event-655351)   | 0x0003       |     11 |              3 |
| [65535.2](#event-655352)   | 0x000E       |     25 |              3 |
| [65535.3](#event-655353)   | 0x0027       |      5 |              2 |
| [65535.4](#event-655354)   | 0x002C       |     10 |              2 |
| [65535.5](#event-655355)   | 0x0036       |    131 |             26 |
| [65535.6](#event-655356)   | 0x00B9       |    131 |             26 |
| [65535.7](#event-655357)   | 0x013C       |     10 |              2 |
| [65535.8](#event-655358)   | 0x0146       |     14 |              4 |
| [65535.9](#event-655359)   | 0x0154       |     11 |              3 |
| [65535.10](#event-6553510) | 0x015F       |     11 |              3 |
| [65535.11](#event-6553511) | 0x016A       |     11 |              3 |
| [65535.12](#event-6553512) | 0x0175       |     14 |              4 |
| [65535.13](#event-6553513) | 0x0183       |     10 |              2 |
| [65535.14](#event-6553514) | 0x018D       |     19 |              5 |
| [65535.15](#event-6553515) | 0x01A0       |     10 |              2 |
| [65535.16](#event-6553516) | 0x01AA       |     19 |              5 |
| [65535.17](#event-6553517) | 0x01BD       |     10 |              2 |
| [65535.18](#event-6553518) | 0x01C7       |     19 |              5 |
| [65535.19](#event-6553519) | 0x01DA       |     10 |              2 |
| [65535.20](#event-6553520) | 0x01E4       |    208 |             45 |
| [65535.21](#event-6553521) | 0x02B4       |     19 |              4 |
| [65535.22](#event-6553522) | 0x02C7       |     19 |              4 |
| [65535.23](#event-6553523) | 0x02DA       |     19 |              4 |
| [65535.24](#event-6553524) | 0x02ED       |     15 |              3 |
| [65535.25](#event-6553525) | 0x02FC       |     14 |              4 |
| [65535.26](#event-6553526) | 0x030A       |     19 |              5 |
| [65535.27](#event-6553527) | 0x031D       |     15 |              3 |
| [65535.28](#event-6553528) | 0x032C       |     14 |              4 |
| [65535.29](#event-6553529) | 0x033A       |     19 |              5 |
| [65535.30](#event-6553530) | 0x034D       |     15 |              3 |
| [65535.31](#event-6553531) | 0x035C       |     14 |              4 |
| [65535.32](#event-6553532) | 0x036A       |     19 |              5 |
| [65535.33](#event-6553533) | 0x037D       |     10 |              2 |
| [65535.34](#event-6553534) | 0x0387       |     14 |              4 |
| [776](#event-776)          | 0x0395       |      1 |              1 |
| [65535.35](#event-6553535) | 0x0396       |     15 |              3 |
| [65535.36](#event-6553536) | 0x03A5       |     48 |             11 |
| [65535.37](#event-6553537) | 0x03D5       |     48 |             11 |
| [65535.38](#event-6553538) | 0x0405       |      6 |              2 |
| [65535.39](#event-6553539) | 0x040B       |     15 |              3 |
| [65535.40](#event-6553540) | 0x041A       |     54 |             12 |
| [65535.41](#event-6553541) | 0x0450       |     66 |             16 |
| [65535.42](#event-6553542) | 0x0492       |     15 |              3 |
| [65535.43](#event-6553543) | 0x04A1       |     73 |             17 |
| [65535.44](#event-6553544) | 0x04EA       |     50 |             12 |
| [65535.45](#event-6553545) | 0x051C       |     50 |             12 |
| [65535.46](#event-6553546) | 0x054E       |     67 |             15 |
| [65535.47](#event-6553547) | 0x0591       |     14 |              4 |
| [65535.48](#event-6553548) | 0x059F       |     51 |             11 |
| [65535.49](#event-6553549) | 0x05D2       |     14 |              4 |
| [65535.50](#event-6553550) | 0x05E0       |     51 |             11 |
| [65535.51](#event-6553551) | 0x0613       |     59 |             13 |
| [65535.52](#event-6553552) | 0x064E       |     69 |             15 |
| [65535.53](#event-6553553) | 0x0693       |     15 |              3 |

## DAT References (imed_data)

|   Index | Hex Value   |   Dec Value |
|---------|-------------|-------------|
|       0 | 0x0001      |           1 |
|       1 | 0x1E1D1     |      123345 |
|       2 | 0xFFFE7448  |  4294865992 |
|       3 | 0xFFFFEC78  |  4294962296 |
|       4 | 0x0D2B      |        3371 |
|       5 | 0x0039      |          57 |
|       6 | 0x1EC63     |      126051 |
|       7 | 0xFFFE75F9  |  4294866425 |
|       8 | 0x1F133     |      127283 |
|       9 | 0xFFFE6C8E  |  4294864014 |
|      10 | 0x1EA21     |      125473 |
|      11 | 0xFFFE6447  |  4294861895 |
|      12 | 0x1E0C1     |      123073 |
|      13 | 0xFFFE59DF  |  4294859231 |
|      14 | 0x1E499     |      124057 |
|      15 | 0xFFFE5044  |  4294856772 |
|      16 | 0x1ED76     |      126326 |
|      17 | 0xFFFE5055  |  4294856789 |
|      18 | 0x1F4D1     |      128209 |
|      19 | 0xFFFE5989  |  4294859145 |
|      20 | 0x1EAE7     |      125671 |
|      21 | 0xFFFE622D  |  4294861357 |
|      22 | 0x1DC90     |      122000 |
|      23 | 0xFFFE69C0  |  4294863296 |
|      24 | 0x0000      |           0 |
|      25 | 0x1D8A1     |      120993 |
|      26 | 0xFFFE429C  |  4294853276 |
|      27 | 0xFFFFEC79  |  4294962297 |
|      28 | 0x0C2A      |        3114 |
|      29 | 0x1D957     |      121175 |
|      30 | 0xFFFE4958  |  4294855000 |
|      31 | 0x1DA38     |      121400 |
|      32 | 0xFFFE5132  |  4294857010 |
|      33 | 0x1DA0E     |      121358 |
|      34 | 0xFFFE5945  |  4294859077 |
|      35 | 0x1DAB5     |      121525 |
|      36 | 0xFFFE6203  |  4294861315 |
|      37 | 0x1F568     |      128360 |
|      38 | 0xFFFE5787  |  4294858631 |
|      39 | 0xFFFF180C  |  4294907916 |
|      40 | 0xFFF82C8A  |  4294454410 |
|      41 | 0xFFFFEB01  |  4294961921 |
|      42 | 0x0D1C      |        3356 |
|      43 | 0x000A      |          10 |
|      44 | 0xFFFF1B55  |  4294908757 |
|      45 | 0xFFF83E21  |  4294458913 |
|      46 | 0xFFFFEB34  |  4294961972 |
|      47 | 0xFFFF092F  |  4294904111 |
|      48 | 0xFFF5768F  |  4294276751 |
|      49 | 0x160B      |        5643 |
|      50 | 0x0446      |        1094 |
|      51 | 0x0013      |          19 |
|      52 | 0xFFFF0665  |  4294903397 |
|      53 | 0xFFF56363  |  4294271843 |
|      54 | 0x1BDD      |        7133 |
|      55 | 0xFFFF757F  |  4294931839 |
|      56 | 0xFFF6F9DF  |  4294375903 |
|      57 | 0x7AEE      |       31470 |
|      58 | 0x0D3F      |        3391 |
|      59 | 0xFFFF7A9A  |  4294933146 |
|      60 | 0xFFF704EE  |  4294378734 |
|      61 | 0x7992      |       31122 |
|      62 | 0xFFFFA112  |  4294942994 |
|      63 | 0xFFFEBB7B  |  4294884219 |
|      64 | 0x0BB7      |        2999 |
|      65 | 0x0060      |          96 |
|      66 | 0x0005      |           5 |
|      67 | 0x0003      |           3 |
|      68 | 0xFFFFC764  |  4294952804 |
|      69 | 0xFFFEBDA7  |  4294884775 |
|      70 | 0xFFFFE467  |  4294960231 |
|      71 | 0xFFFEDA60  |  4294892128 |
|      72 | 0xFFFFF425  |  4294964261 |
|      73 | 0xFFFEFFEC  |  4294901740 |
|      74 | 0xFFFFEBD0  |  4294962128 |
|      75 | 0xFFFF474D  |  4294920013 |
|      76 | 0x0B71      |        2929 |
|      77 | 0xFFFFBCC3  |  4294950083 |
|      78 | 0xFFFF4C30  |  4294921264 |
|      79 | 0x004D      |          77 |
|      80 | 0xFFFFB851  |  4294948945 |
|      81 | 0xFFFFF63D  |  4294964797 |
|      82 | 0x077C      |        1916 |
|      83 | 0x014C      |         332 |
|      84 | 0x063B      |        1595 |
|      85 | 0x109F7     |       68087 |
|      86 | 0x025B      |         603 |
|      87 | 0x00A6      |         166 |
|      88 | 0x21FDA     |      139226 |
|      89 | 0xFFFDFE4C  |  4294835788 |
|      90 | 0xFFFFEB7E  |  4294962046 |
|      91 | 0x0C7D      |        3197 |
|      92 | 0xFFFF222C  |  4294910508 |
|      93 | 0xFFF8395F  |  4294457695 |
|      94 | 0xFFFFEC0F  |  4294962191 |
|      95 | 0x01B7      |         439 |
|      96 | 0xFFFF0B5E  |  4294904670 |
|      97 | 0xFFF84298  |  4294460056 |
|      98 | 0xFFFFEA85  |  4294961797 |
|      99 | 0xFFFF1D87  |  4294909319 |
|     100 | 0xFFF84662  |  4294461026 |
|     101 | 0xFFFFEB7B  |  4294962043 |
|     102 | 0xFFFEB35E  |  4294882142 |
|     103 | 0xFFF56474  |  4294272116 |
|     104 | 0x1E7E      |        7806 |
|     105 | 0x0B08      |        2824 |
|     106 | 0xFFFEC64B  |  4294886987 |
|     107 | 0xFFF55382  |  4294267778 |
|     108 | 0x21C5      |        8645 |
|     109 | 0xFFFEB55B  |  4294882651 |
|     110 | 0xFFF55E0A  |  4294270474 |
|     111 | 0x1F92      |        8082 |
|     112 | 0xFFFF95E4  |  4294940132 |
|     113 | 0xFFFDB273  |  4294816371 |
|     114 | 0xFFFFFFFA  |  4294967290 |
|     115 | 0x0486      |        1158 |
|     116 | 0xFFFF88FF  |  4294936831 |
|     117 | 0xFFFDBD03  |  4294819075 |
|     118 | 0xFFFFFE0C  |  4294966796 |
|     119 | 0xFFFF9611  |  4294940177 |
|     120 | 0xFFFDC8F6  |  4294822134 |
|     121 | 0xFFFFFEBC  |  4294966972 |
|     122 | 0x1F68F     |      128655 |
|     123 | 0xFFFE14DA  |  4294841562 |
|     124 | 0x0CF2      |        3314 |
|     125 | 0x1FA31     |      129585 |
|     126 | 0xFFFE2491  |  4294845585 |
|     127 | 0xFFF6C3EF  |  4294362095 |
|     128 | 0x93FF1     |      606193 |
|     129 | 0x00A7      |         167 |
|     130 | 0x0179      |         377 |
|     131 | 0x0002      |           2 |
|     132 | 0xFFF6C0EC  |  4294361324 |
|     133 | 0x945D1     |      607697 |
|     134 | 0x0004      |           4 |
|     135 | 0xFFF6B7E2  |  4294359010 |
|     136 | 0x94244     |      606788 |
|     137 | 0xFFFFFFC0  |  4294967232 |
|     138 | 0x003C      |          60 |
|     139 | 0xFFF6BED4  |  4294360788 |
|     140 | 0x946D6     |      607958 |
|     141 | 0xFFFFFFCF  |  4294967247 |
|     142 | 0xFFF6D7C0  |  4294367168 |
|     143 | 0x8EF6A     |      585578 |
|     144 | 0x0274      |         628 |
|     145 | 0x011C      |         284 |
|     146 | 0xFFF6D0CA  |  4294365386 |
|     147 | 0x8F7DF     |      587743 |
|     148 | 0x0112      |         274 |
|     149 | 0xFFF6D779  |  4294367097 |
|     150 | 0x8FCC2     |      588994 |
|     151 | 0x015B      |         347 |
|     152 | 0xFFF6DB55  |  4294368085 |
|     153 | 0x8F169     |      586089 |
|     154 | 0x024A      |         586 |
|     155 | 0xFFF6DAA1  |  4294367905 |
|     156 | 0x8E6CF     |      583375 |
|     157 | 0x033E      |         830 |
|     158 | 0x001E      |          30 |
|     159 | 0xFFF6D3B3  |  4294366131 |
|     160 | 0x8F340     |      586560 |
|     161 | 0x01D0      |         464 |
|     162 | 0x0101      |         257 |
|     163 | 0x0078      |         120 |
|     164 | 0xFFF6D069  |  4294365289 |
|     165 | 0x8F7F4     |      587764 |
|     166 | 0x010C      |         268 |
|     167 | 0xFFF6D763  |  4294367075 |
|     168 | 0x8FB0E     |      588558 |
|     169 | 0x0171      |         369 |
|     170 | 0xFFF6CFE0  |  4294365152 |
|     171 | 0x8F449     |      586825 |
|     172 | 0x0178      |         376 |
|     173 | 0x0862      |        2146 |
|     174 | 0xFFF6D8AC  |  4294367404 |
|     175 | 0x8FABD     |      588477 |
|     176 | 0x0175      |         373 |
|     177 | 0xFFF6DB01  |  4294368001 |
|     178 | 0x90356     |      590678 |
|     179 | 0x0108      |         264 |
|     180 | 0x03BF      |         959 |
|     181 | 0xFFF6C73F  |  4294362943 |
|     182 | 0x8F234     |      586292 |
|     183 | 0x008A      |         138 |
|     184 | 0x0025      |          37 |
|     185 | 0x00F0      |         240 |
|     186 | 0xFFF6D6F8  |  4294366968 |
|     187 | 0x8E30A     |      582410 |
|     188 | 0x0322      |         802 |
|     189 | 0x0BD3      |        3027 |
|     190 | 0xFFF6DB94  |  4294368148 |
|     191 | 0x8FCF3     |      589043 |
|     192 | 0x0159      |         345 |
|     193 | 0xFFF6C79F  |  4294363039 |
|     194 | 0x8F34D     |      586573 |
|     195 | 0xFFF6CB4A  |  4294363978 |
|     196 | 0x8FAEF     |      588527 |
|     197 | 0x00C4      |         196 |
|     198 | 0xFFF6D269  |  4294365801 |
|     199 | 0x8F138     |      586040 |
|     200 | 0x01F0      |         496 |
|     201 | 0xFFF6D2EF  |  4294365935 |
|     202 | 0x8EB3B     |      584507 |
|     203 | 0x021E      |         542 |
|     204 | 0xFFF6D6A2  |  4294366882 |
|     205 | 0x8E8B3     |      583859 |
|     206 | 0x02C0      |         704 |
|     207 | 0xFFF6DAB0  |  4294367920 |
|     208 | 0x8EE3C     |      585276 |
|     209 | 0x029C      |         668 |
|     210 | 0xFFF6DC30  |  4294368304 |
|     211 | 0x8F5FC     |      587260 |
|     212 | 0x01D4      |         468 |
|     213 | 0xFFF6D87A  |  4294367354 |
|     214 | 0x8F6D2     |      587474 |
|     215 | 0x01BF      |         447 |
|     216 | 0xFFF6CEAA  |  4294364842 |
|     217 | 0x8FA2D     |      588333 |
|     218 | 0x00F7      |         247 |
|     219 | 0xFFF6CA0E  |  4294363662 |
|     220 | 0x8EFB9     |      585657 |
|     221 | 0x0090      |         144 |
|     222 | 0xFFF6CECB  |  4294364875 |
|     223 | 0x8E418     |      582680 |
|     224 | 0x018C      |         396 |
|     225 | 0xFFF6DB79  |  4294368121 |
|     226 | 0x8E4F3     |      582899 |
|     227 | 0x0356      |         854 |
|     228 | 0xFFF6DE60  |  4294368864 |
|     229 | 0x8F7D9     |      587737 |
|     230 | 0x019A      |         410 |
|     231 | 0xFFF6D8AE  |  4294367406 |
|     232 | 0x8FE78     |      589432 |
|     233 | 0x0146      |         326 |

## Events

### Event 65535

#### Metadata

| Field        | Value   |
|--------------|---------|
| Entrypoint   | 0x0000  |
| Data Size    | 1 bytes |
| Instructions | 1       |

```
      00 01 02 03 04 05 06 07  08 09 0A 0B 0C 0D 0E 0F
      -- -- -- -- -- -- -- --  -- -- -- -- -- -- -- --
0000: 00                                                .               
```

#### Opcodes

```
  0: 0x0000 [0x00] END_REQSTACK()
```

### Event 746

#### Metadata

| Field        | Value   |
|--------------|---------|
| Entrypoint   | 0x0001  |
| Data Size    | 1 bytes |
| Instructions | 1       |

```
      00 01 02 03 04 05 06 07  08 09 0A 0B 0C 0D 0E 0F
      -- -- -- -- -- -- -- --  -- -- -- -- -- -- -- --
0000:    00                                              .              
```

#### Opcodes

```
  0: 0x0001 [0x00] END_REQSTACK()
```

### Event 742

#### Metadata

| Field        | Value   |
|--------------|---------|
| Entrypoint   | 0x0002  |
| Data Size    | 1 bytes |
| Instructions | 1       |

```
      00 01 02 03 04 05 06 07  08 09 0A 0B 0C 0D 0E 0F
      -- -- -- -- -- -- -- --  -- -- -- -- -- -- -- --
0000:       00                                            .             
```

#### Opcodes

```
  0: 0x0002 [0x00] END_REQSTACK()
```

### Event 65535.1

#### Metadata

| Field        | Value    |
|--------------|----------|
| Entrypoint   | 0x0003   |
| Data Size    | 11 bytes |
| Instructions | 3        |

```
      00 01 02 03 04 05 06 07  08 09 0A 0B 0C 0D 0E 0F
      -- -- -- -- -- -- -- --  -- -- -- -- -- -- -- --
0000:          B4 01 00 00 00  80 B5 00 00 00 00           ...........  
```

#### Opcodes

```
  0: 0x0003 [0xB4] UI_WINDOW_STRING_HANDLER(case=0x01 - Copy string from event strings table, work_offset=ExtData[1]->WorkLocal[0], string_index=1*)
  1: 0x0009 [0xB5] SET_EVENT_ENTITY_NAME: Change EventEntity name to ExtData[1]->WorkLocal[0]
  2: 0x000D [0x00] END_REQSTACK()
```

### Event 65535.2

#### Metadata

| Field        | Value    |
|--------------|----------|
| Entrypoint   | 0x000E   |
| Data Size    | 25 bytes |
| Instructions | 3        |

```
      00 01 02 03 04 05 06 07  08 09 0A 0B 0C 0D 0E 0F
      -- -- -- -- -- -- -- --  -- -- -- -- -- -- -- --
0000:                                            B4 00                ..
0010: 00 00 43 68 6F 63 6F 62  6F 00 00 00 00 00 00 00  ..Chocobo.......
0020: 00 00 B5 00 00 00 00                              .......         
```

#### Opcodes

```
  0: 0x000E [0xB4] UI_WINDOW_STRING_HANDLER(case=0x00 - Copy string from opcode, work_offset=ExtData[1]->WorkLocal[0], string="Chocobo")
  1: 0x0022 [0xB5] SET_EVENT_ENTITY_NAME: Change EventEntity name to ExtData[1]->WorkLocal[0]
  2: 0x0026 [0x00] END_REQSTACK()
```

### Event 65535.3

#### Metadata

| Field        | Value   |
|--------------|---------|
| Entrypoint   | 0x0027  |
| Data Size    | 5 bytes |
| Instructions | 2       |

```
      00 01 02 03 04 05 06 07  08 09 0A 0B 0C 0D 0E 0F
      -- -- -- -- -- -- -- --  -- -- -- -- -- -- -- --
0020:                      B6  00 04 10 00                     .....    
```

#### Opcodes

```
  0: 0x0027 [0xB6] ENTITY_APPEARANCE_HANDLER(case=Hair style, value=Work_Zone[4])
  1: 0x002B [0x00] END_REQSTACK()
```

### Event 65535.4

#### Metadata

| Field        | Value    |
|--------------|----------|
| Entrypoint   | 0x002C   |
| Data Size    | 10 bytes |
| Instructions | 2        |

```
      00 01 02 03 04 05 06 07  08 09 0A 0B 0C 0D 0E 0F
      -- -- -- -- -- -- -- --  -- -- -- -- -- -- -- --
0020:                                      37 01 80 02              7...
0030: 80 03 80 04 80 00                                 ......          
```

#### Opcodes

```
  0: 0x002C [0x37] UPDATE_EVENT_POSITION_AND_DIR: x=123.345*, z=-101.304*, y=-5.000*, direction=296.3°*
  1: 0x0035 [0x00] END_REQSTACK()
```

### Event 65535.5

#### Metadata

| Field        | Value     |
|--------------|-----------|
| Entrypoint   | 0x0036    |
| Data Size    | 131 bytes |
| Instructions | 26        |

```
      00 01 02 03 04 05 06 07  08 09 0A 0B 0C 0D 0E 0F
      -- -- -- -- -- -- -- --  -- -- -- -- -- -- -- --
0030:                   32 05  80 1F 00 06 80 07 80 03        2.........
0040: 80 1F 01 1F 00 08 80 09  80 03 80 1F 01 1F 00 0A  ................
0050: 80 0B 80 03 80 1F 01 1F  00 0C 80 0D 80 03 80 1F  ................
0060: 01 1F 00 0E 80 0F 80 03  80 1F 01 1F 00 10 80 11  ................
0070: 80 03 80 1F 01 1F 00 12  80 13 80 03 80 1F 01 1F  ................
0080: 00 14 80 15 80 03 80 1F  01 1F 00 16 80 17 80 03  ................
0090: 80 1F 01 1F 00 01 80 02  80 03 80 1F 01 02 4D 10  ..............M.
00A0: 18 80 00 AF 00 27 05 45  10 0F 01 08 01 B8 00 37  .....'.E.......7
00B0: 18 80 18 80 18 80 18 80  00                       .........       
```

#### Opcodes

```
  0: 0x0036 [0x32] ExtData[1]->MainSpeed = 57* * 0.1
  1: 0x0039 [0x1F] MOVE_ENTITY: EventEntity moves to X=126.051*, Z=-100.871*, Y=-5.000*
  2: 0x0041 [0x1F] MOVE_ENTITY: Update entity position (mode=1)
  3: 0x0043 [0x1F] MOVE_ENTITY: EventEntity moves to X=127.283*, Z=-103.282*, Y=-5.000*
  4: 0x004B [0x1F] MOVE_ENTITY: Update entity position (mode=1)
  5: 0x004D [0x1F] MOVE_ENTITY: EventEntity moves to X=125.473*, Z=-105.401*, Y=-5.000*
  6: 0x0055 [0x1F] MOVE_ENTITY: Update entity position (mode=1)
  7: 0x0057 [0x1F] MOVE_ENTITY: EventEntity moves to X=123.073*, Z=-108.065*, Y=-5.000*
  8: 0x005F [0x1F] MOVE_ENTITY: Update entity position (mode=1)
  9: 0x0061 [0x1F] MOVE_ENTITY: EventEntity moves to X=124.057*, Z=-110.524*, Y=-5.000*
 10: 0x0069 [0x1F] MOVE_ENTITY: Update entity position (mode=1)
 11: 0x006B [0x1F] MOVE_ENTITY: EventEntity moves to X=126.326*, Z=-110.507*, Y=-5.000*
 12: 0x0073 [0x1F] MOVE_ENTITY: Update entity position (mode=1)
 13: 0x0075 [0x1F] MOVE_ENTITY: EventEntity moves to X=128.209*, Z=-108.151*, Y=-5.000*
 14: 0x007D [0x1F] MOVE_ENTITY: Update entity position (mode=1)
 15: 0x007F [0x1F] MOVE_ENTITY: EventEntity moves to X=125.671*, Z=-105.939*, Y=-5.000*
 16: 0x0087 [0x1F] MOVE_ENTITY: Update entity position (mode=1)
 17: 0x0089 [0x1F] MOVE_ENTITY: EventEntity moves to X=122.000*, Z=-104.000*, Y=-5.000*
 18: 0x0091 [0x1F] MOVE_ENTITY: Update entity position (mode=1)
 19: 0x0093 [0x1F] MOVE_ENTITY: EventEntity moves to X=123.345*, Z=-101.304*, Y=-5.000*
 20: 0x009B [0x1F] MOVE_ENTITY: Update entity position (mode=1)
 21: 0x009D [0x02] IF !(Work_Zone[77] == 0*) GOTO 0x00AF
 22: 0x00A5 [0x27] REQ_SET(priority=0x05, entity_id=Unnamed NPC (ID: 17764421/0x010F1045), tag_num=0x08)
 23: 0x00AC [0x01] GOTO 0x00B8
 24: 0x00AF [0x37] UPDATE_EVENT_POSITION_AND_DIR: x=0.000*, z=0.000*, y=0.000*, direction=0.0°*

SUBROUTINE_00B8:
 25: 0x00B8 [0x00] END_REQSTACK()
```

### Event 65535.6

#### Metadata

| Field        | Value     |
|--------------|-----------|
| Entrypoint   | 0x00B9    |
| Data Size    | 131 bytes |
| Instructions | 26        |

```
      00 01 02 03 04 05 06 07  08 09 0A 0B 0C 0D 0E 0F
      -- -- -- -- -- -- -- --  -- -- -- -- -- -- -- --
00B0:                             32 05 80 1F 00 06 80           2......
00C0: 07 80 03 80 1F 01 1F 00  08 80 09 80 03 80 1F 01  ................
00D0: 1F 00 0A 80 0B 80 03 80  1F 01 1F 00 0C 80 0D 80  ................
00E0: 03 80 1F 01 1F 00 0E 80  0F 80 03 80 1F 01 1F 00  ................
00F0: 10 80 11 80 03 80 1F 01  1F 00 12 80 13 80 03 80  ................
0100: 1F 01 1F 00 14 80 15 80  03 80 1F 01 1F 00 16 80  ................
0110: 17 80 03 80 1F 01 1F 00  01 80 02 80 03 80 1F 01  ................
0120: 02 4D 10 18 80 00 32 01  27 05 45 10 0F 01 07 01  .M....2.'.E.....
0130: 3B 01 37 18 80 18 80 18  80 18 80 00              ;.7.........    
```

#### Opcodes

```
  0: 0x00B9 [0x32] ExtData[1]->MainSpeed = 57* * 0.1
  1: 0x00BC [0x1F] MOVE_ENTITY: EventEntity moves to X=126.051*, Z=-100.871*, Y=-5.000*
  2: 0x00C4 [0x1F] MOVE_ENTITY: Update entity position (mode=1)
  3: 0x00C6 [0x1F] MOVE_ENTITY: EventEntity moves to X=127.283*, Z=-103.282*, Y=-5.000*
  4: 0x00CE [0x1F] MOVE_ENTITY: Update entity position (mode=1)
  5: 0x00D0 [0x1F] MOVE_ENTITY: EventEntity moves to X=125.473*, Z=-105.401*, Y=-5.000*
  6: 0x00D8 [0x1F] MOVE_ENTITY: Update entity position (mode=1)
  7: 0x00DA [0x1F] MOVE_ENTITY: EventEntity moves to X=123.073*, Z=-108.065*, Y=-5.000*
  8: 0x00E2 [0x1F] MOVE_ENTITY: Update entity position (mode=1)
  9: 0x00E4 [0x1F] MOVE_ENTITY: EventEntity moves to X=124.057*, Z=-110.524*, Y=-5.000*
 10: 0x00EC [0x1F] MOVE_ENTITY: Update entity position (mode=1)
 11: 0x00EE [0x1F] MOVE_ENTITY: EventEntity moves to X=126.326*, Z=-110.507*, Y=-5.000*
 12: 0x00F6 [0x1F] MOVE_ENTITY: Update entity position (mode=1)
 13: 0x00F8 [0x1F] MOVE_ENTITY: EventEntity moves to X=128.209*, Z=-108.151*, Y=-5.000*
 14: 0x0100 [0x1F] MOVE_ENTITY: Update entity position (mode=1)
 15: 0x0102 [0x1F] MOVE_ENTITY: EventEntity moves to X=125.671*, Z=-105.939*, Y=-5.000*
 16: 0x010A [0x1F] MOVE_ENTITY: Update entity position (mode=1)
 17: 0x010C [0x1F] MOVE_ENTITY: EventEntity moves to X=122.000*, Z=-104.000*, Y=-5.000*
 18: 0x0114 [0x1F] MOVE_ENTITY: Update entity position (mode=1)
 19: 0x0116 [0x1F] MOVE_ENTITY: EventEntity moves to X=123.345*, Z=-101.304*, Y=-5.000*
 20: 0x011E [0x1F] MOVE_ENTITY: Update entity position (mode=1)
 21: 0x0120 [0x02] IF !(Work_Zone[77] == 0*) GOTO 0x0132
 22: 0x0128 [0x27] REQ_SET(priority=0x05, entity_id=Unnamed NPC (ID: 17764421/0x010F1045), tag_num=0x07)
 23: 0x012F [0x01] GOTO 0x013B
 24: 0x0132 [0x37] UPDATE_EVENT_POSITION_AND_DIR: x=0.000*, z=0.000*, y=0.000*, direction=0.0°*

SUBROUTINE_013B:
 25: 0x013B [0x00] END_REQSTACK()
```

### Event 65535.7

#### Metadata

| Field        | Value    |
|--------------|----------|
| Entrypoint   | 0x013C   |
| Data Size    | 10 bytes |
| Instructions | 2        |

```
      00 01 02 03 04 05 06 07  08 09 0A 0B 0C 0D 0E 0F
      -- -- -- -- -- -- -- --  -- -- -- -- -- -- -- --
0130:                                      37 19 80 1A              7...
0140: 80 1B 80 1C 80 00                                 ......          
```

#### Opcodes

```
  0: 0x013C [0x37] UPDATE_EVENT_POSITION_AND_DIR: x=120.993*, z=-114.020*, y=-4.999*, direction=273.7°*
  1: 0x0145 [0x00] END_REQSTACK()
```

### Event 65535.8

#### Metadata

| Field        | Value    |
|--------------|----------|
| Entrypoint   | 0x0146   |
| Data Size    | 14 bytes |
| Instructions | 4        |

```
      00 01 02 03 04 05 06 07  08 09 0A 0B 0C 0D 0E 0F
      -- -- -- -- -- -- -- --  -- -- -- -- -- -- -- --
0140:                   32 05  80 1F 00 1D 80 1E 80 1B        2.........
0150: 80 1F 01 00                                       ....            
```

#### Opcodes

```
  0: 0x0146 [0x32] ExtData[1]->MainSpeed = 57* * 0.1
  1: 0x0149 [0x1F] MOVE_ENTITY: EventEntity moves to X=121.175*, Z=-112.296*, Y=-4.999*
  2: 0x0151 [0x1F] MOVE_ENTITY: Update entity position (mode=1)
  3: 0x0153 [0x00] END_REQSTACK()
```

### Event 65535.9

#### Metadata

| Field        | Value    |
|--------------|----------|
| Entrypoint   | 0x0154   |
| Data Size    | 11 bytes |
| Instructions | 3        |

```
      00 01 02 03 04 05 06 07  08 09 0A 0B 0C 0D 0E 0F
      -- -- -- -- -- -- -- --  -- -- -- -- -- -- -- --
0150:             1F 00 1F 80  20 80 1B 80 1F 01 00         .... ...... 
```

#### Opcodes

```
  0: 0x0154 [0x1F] MOVE_ENTITY: EventEntity moves to X=121.400*, Z=-110.286*, Y=-4.999*
  1: 0x015C [0x1F] MOVE_ENTITY: Update entity position (mode=1)
  2: 0x015E [0x00] END_REQSTACK()
```

### Event 65535.10

#### Metadata

| Field        | Value    |
|--------------|----------|
| Entrypoint   | 0x015F   |
| Data Size    | 11 bytes |
| Instructions | 3        |

```
      00 01 02 03 04 05 06 07  08 09 0A 0B 0C 0D 0E 0F
      -- -- -- -- -- -- -- --  -- -- -- -- -- -- -- --
0150:                                               1F                 .
0160: 00 21 80 22 80 1B 80 1F  01 00                    .!."......      
```

#### Opcodes

```
  0: 0x015F [0x1F] MOVE_ENTITY: EventEntity moves to X=121.358*, Z=-108.219*, Y=-4.999*
  1: 0x0167 [0x1F] MOVE_ENTITY: Update entity position (mode=1)
  2: 0x0169 [0x00] END_REQSTACK()
```

### Event 65535.11

#### Metadata

| Field        | Value    |
|--------------|----------|
| Entrypoint   | 0x016A   |
| Data Size    | 11 bytes |
| Instructions | 3        |

```
      00 01 02 03 04 05 06 07  08 09 0A 0B 0C 0D 0E 0F
      -- -- -- -- -- -- -- --  -- -- -- -- -- -- -- --
0160:                                1F 00 23 80 24 80            ..#.$.
0170: 1B 80 1F 01 00                                    .....           
```

#### Opcodes

```
  0: 0x016A [0x1F] MOVE_ENTITY: EventEntity moves to X=121.525*, Z=-105.981*, Y=-4.999*
  1: 0x0172 [0x1F] MOVE_ENTITY: Update entity position (mode=1)
  2: 0x0174 [0x00] END_REQSTACK()
```

### Event 65535.12

#### Metadata

| Field        | Value    |
|--------------|----------|
| Entrypoint   | 0x0175   |
| Data Size    | 14 bytes |
| Instructions | 4        |

```
      00 01 02 03 04 05 06 07  08 09 0A 0B 0C 0D 0E 0F
      -- -- -- -- -- -- -- --  -- -- -- -- -- -- -- --
0170:                32 05 80  1F 00 25 80 26 80 1B 80       2....%.&...
0180: 1F 01 00                                          ...             
```

#### Opcodes

```
  0: 0x0175 [0x32] ExtData[1]->MainSpeed = 57* * 0.1
  1: 0x0178 [0x1F] MOVE_ENTITY: EventEntity moves to X=128.360*, Z=-108.665*, Y=-4.999*
  2: 0x0180 [0x1F] MOVE_ENTITY: Update entity position (mode=1)
  3: 0x0182 [0x00] END_REQSTACK()
```

### Event 65535.13

#### Metadata

| Field        | Value    |
|--------------|----------|
| Entrypoint   | 0x0183   |
| Data Size    | 10 bytes |
| Instructions | 2        |

```
      00 01 02 03 04 05 06 07  08 09 0A 0B 0C 0D 0E 0F
      -- -- -- -- -- -- -- --  -- -- -- -- -- -- -- --
0180:          37 27 80 28 80  29 80 2A 80 00              7'.(.).*..   
```

#### Opcodes

```
  0: 0x0183 [0x37] UPDATE_EVENT_POSITION_AND_DIR: x=-59.380*, z=-512.886*, y=-5.375*, direction=295.0°*
  1: 0x018C [0x00] END_REQSTACK()
```

### Event 65535.14

#### Metadata

| Field        | Value    |
|--------------|----------|
| Entrypoint   | 0x018D   |
| Data Size    | 19 bytes |
| Instructions | 5        |

```
      00 01 02 03 04 05 06 07  08 09 0A 0B 0C 0D 0E 0F
      -- -- -- -- -- -- -- --  -- -- -- -- -- -- -- --
0180:                                         32 2B 80               2+.
0190: 1F 00 2C 80 2D 80 2E 80  1F 01 1E 44 10 0F 01 00  ..,.-......D....
```

#### Opcodes

```
  0: 0x018D [0x32] ExtData[1]->MainSpeed = 10* * 0.1
  1: 0x0190 [0x1F] MOVE_ENTITY: EventEntity moves to X=-58.539*, Z=-508.383*, Y=-5.324*
  2: 0x0198 [0x1F] MOVE_ENTITY: Update entity position (mode=1)
  3: 0x019A [0x1E] EventEntity looks at Unnamed NPC (ID: 17764420/0x010F1044) and starts talking
  4: 0x019F [0x00] END_REQSTACK()
```

### Event 65535.15

#### Metadata

| Field        | Value    |
|--------------|----------|
| Entrypoint   | 0x01A0   |
| Data Size    | 10 bytes |
| Instructions | 2        |

```
      00 01 02 03 04 05 06 07  08 09 0A 0B 0C 0D 0E 0F
      -- -- -- -- -- -- -- --  -- -- -- -- -- -- -- --
01A0: 37 2F 80 30 80 31 80 32  80 00                    7/.0.1.2..      
```

#### Opcodes

```
  0: 0x01A0 [0x37] UPDATE_EVENT_POSITION_AND_DIR: x=-63.185*, z=-690.545*, y=5.643*, direction=96.1°*
  1: 0x01A9 [0x00] END_REQSTACK()
```

### Event 65535.16

#### Metadata

| Field        | Value    |
|--------------|----------|
| Entrypoint   | 0x01AA   |
| Data Size    | 19 bytes |
| Instructions | 5        |

```
      00 01 02 03 04 05 06 07  08 09 0A 0B 0C 0D 0E 0F
      -- -- -- -- -- -- -- --  -- -- -- -- -- -- -- --
01A0:                                32 33 80 1F 00 34            23...4
01B0: 80 35 80 36 80 1F 01 1E  44 10 0F 01 00           .5.6....D....   
```

#### Opcodes

```
  0: 0x01AA [0x32] ExtData[1]->MainSpeed = 19* * 0.1
  1: 0x01AD [0x1F] MOVE_ENTITY: EventEntity moves to X=-63.899*, Z=-695.453*, Y=7.133*
  2: 0x01B5 [0x1F] MOVE_ENTITY: Update entity position (mode=1)
  3: 0x01B7 [0x1E] EventEntity looks at Unnamed NPC (ID: 17764420/0x010F1044) and starts talking
  4: 0x01BC [0x00] END_REQSTACK()
```

### Event 65535.17

#### Metadata

| Field        | Value    |
|--------------|----------|
| Entrypoint   | 0x01BD   |
| Data Size    | 10 bytes |
| Instructions | 2        |

```
      00 01 02 03 04 05 06 07  08 09 0A 0B 0C 0D 0E 0F
      -- -- -- -- -- -- -- --  -- -- -- -- -- -- -- --
01B0:                                         37 37 80               77.
01C0: 38 80 39 80 3A 80 00                              8.9.:..         
```

#### Opcodes

```
  0: 0x01BD [0x37] UPDATE_EVENT_POSITION_AND_DIR: x=-35.457*, z=-591.393*, y=31.470*, direction=298.0°*
  1: 0x01C6 [0x00] END_REQSTACK()
```

### Event 65535.18

#### Metadata

| Field        | Value    |
|--------------|----------|
| Entrypoint   | 0x01C7   |
| Data Size    | 19 bytes |
| Instructions | 5        |

```
      00 01 02 03 04 05 06 07  08 09 0A 0B 0C 0D 0E 0F
      -- -- -- -- -- -- -- --  -- -- -- -- -- -- -- --
01C0:                      32  33 80 1F 00 3B 80 3C 80         23...;.<.
01D0: 3D 80 1F 01 1E 44 10 0F  01 00                    =....D....      
```

#### Opcodes

```
  0: 0x01C7 [0x32] ExtData[1]->MainSpeed = 19* * 0.1
  1: 0x01CA [0x1F] MOVE_ENTITY: EventEntity moves to X=-34.150*, Z=-588.562*, Y=31.122*
  2: 0x01D2 [0x1F] MOVE_ENTITY: Update entity position (mode=1)
  3: 0x01D4 [0x1E] EventEntity looks at Unnamed NPC (ID: 17764420/0x010F1044) and starts talking
  4: 0x01D9 [0x00] END_REQSTACK()
```

### Event 65535.19

#### Metadata

| Field        | Value    |
|--------------|----------|
| Entrypoint   | 0x01DA   |
| Data Size    | 10 bytes |
| Instructions | 2        |

```
      00 01 02 03 04 05 06 07  08 09 0A 0B 0C 0D 0E 0F
      -- -- -- -- -- -- -- --  -- -- -- -- -- -- -- --
01D0:                                37 3E 80 3F 80 40            7>.?.@
01E0: 80 41 80 00                                       .A..            
```

#### Opcodes

```
  0: 0x01DA [0x37] UPDATE_EVENT_POSITION_AND_DIR: x=-24.302*, z=-83.077*, y=2.999*, direction=8.4°*
  1: 0x01E3 [0x00] END_REQSTACK()
```

### Event 65535.20

#### Metadata

| Field        | Value     |
|--------------|-----------|
| Entrypoint   | 0x01E4    |
| Data Size    | 208 bytes |
| Instructions | 45        |

```
      00 01 02 03 04 05 06 07  08 09 0A 0B 0C 0D 0E 0F
      -- -- -- -- -- -- -- --  -- -- -- -- -- -- -- --
01E0:             02 4C 10 18  80 80 F2 01 1C 42 80 01      .L.......B..
01F0: 00 02 02 4C 10 43 80 80  00 02 1C 42 80 01 00 02  ...L.C.....B....
0200: 32 05 80 1F 00 44 80 45  80 40 80 1F 01 02 4C 10  2....D.E.@....L.
0210: 18 80 80 1B 02 1C 2B 80  01 37 02 02 4C 10 00 80  ......+..7..L...
0220: 80 29 02 1C 42 80 01 37  02 02 4C 10 43 80 80 37  .)..B..7..L.C..7
0230: 02 1C 2B 80 01 37 02 1F  00 46 80 47 80 40 80 1F  ..+..7...F.G.@..
0240: 01 02 4C 10 18 80 80 4F  02 1C 2B 80 01 5D 02 02  ..L....O..+..]..
0250: 4C 10 43 80 80 5D 02 1C  2B 80 01 5D 02 1F 00 48  L.C..]..+..]...H
0260: 80 49 80 40 80 1F 01 02  4C 10 18 80 80 75 02 1C  .I.@....L....u..
0270: 2B 80 01 83 02 02 4C 10  43 80 80 83 02 1C 2B 80  +.....L.C.....+.
0280: 01 83 02 1F 00 4A 80 4B  80 4C 80 1F 01 02 4C 10  .....J.K.L....L.
0290: 18 80 80 9B 02 1C 42 80  01 A9 02 02 4C 10 43 80  ......B.....L.C.
02A0: 80 A9 02 1C 42 80 01 A9  02 1F 00 4D 80 4E 80 40  ....B......M.N.@
02B0: 80 1F 01 00                                       ....            
```

#### Opcodes

```
  0: 0x01E4 [0x02] IF !(Work_Zone[76] == 0*) GOTO 0x01F2
  1: 0x01EC [0x1C] WAIT(5* ticks)
  2: 0x01EF [0x01] GOTO 0x0200
  3: 0x01F2 [0x02] IF !(Work_Zone[76] == 3*) GOTO 0x0200
  4: 0x01FA [0x1C] WAIT(5* ticks)
  5: 0x01FD [0x01] GOTO 0x0200

SUBROUTINE_0200:
  6: 0x0200 [0x32] ExtData[1]->MainSpeed = 57* * 0.1
  7: 0x0203 [0x1F] MOVE_ENTITY: EventEntity moves to X=-14.492*, Z=-82.521*, Y=2.999*
  8: 0x020B [0x1F] MOVE_ENTITY: Update entity position (mode=1)
  9: 0x020D [0x02] IF !(Work_Zone[76] == 0*) GOTO 0x021B
 10: 0x0215 [0x1C] WAIT(10* ticks)
 11: 0x0218 [0x01] GOTO 0x0237
 12: 0x021B [0x02] IF !(Work_Zone[76] == 1*) GOTO 0x0229
 13: 0x0223 [0x1C] WAIT(5* ticks)
 14: 0x0226 [0x01] GOTO 0x0237
 15: 0x0229 [0x02] IF !(Work_Zone[76] == 3*) GOTO 0x0237
 16: 0x0231 [0x1C] WAIT(10* ticks)
 17: 0x0234 [0x01] GOTO 0x0237

SUBROUTINE_0237:
 18: 0x0237 [0x1F] MOVE_ENTITY: EventEntity moves to X=-7.065*, Z=-75.168*, Y=2.999*
 19: 0x023F [0x1F] MOVE_ENTITY: Update entity position (mode=1)
 20: 0x0241 [0x02] IF !(Work_Zone[76] == 0*) GOTO 0x024F
 21: 0x0249 [0x1C] WAIT(10* ticks)
 22: 0x024C [0x01] GOTO 0x025D
 23: 0x024F [0x02] IF !(Work_Zone[76] == 3*) GOTO 0x025D
 24: 0x0257 [0x1C] WAIT(10* ticks)
 25: 0x025A [0x01] GOTO 0x025D

SUBROUTINE_025D:
 26: 0x025D [0x1F] MOVE_ENTITY: EventEntity moves to X=-3.035*, Z=-65.556*, Y=2.999*
 27: 0x0265 [0x1F] MOVE_ENTITY: Update entity position (mode=1)
 28: 0x0267 [0x02] IF !(Work_Zone[76] == 0*) GOTO 0x0275
 29: 0x026F [0x1C] WAIT(10* ticks)
 30: 0x0272 [0x01] GOTO 0x0283
 31: 0x0275 [0x02] IF !(Work_Zone[76] == 3*) GOTO 0x0283
 32: 0x027D [0x1C] WAIT(10* ticks)
 33: 0x0280 [0x01] GOTO 0x0283

SUBROUTINE_0283:
 34: 0x0283 [0x1F] MOVE_ENTITY: EventEntity moves to X=-5.168*, Z=-47.283*, Y=2.929*
 35: 0x028B [0x1F] MOVE_ENTITY: Update entity position (mode=1)
 36: 0x028D [0x02] IF !(Work_Zone[76] == 0*) GOTO 0x029B
 37: 0x0295 [0x1C] WAIT(5* ticks)
 38: 0x0298 [0x01] GOTO 0x02A9
 39: 0x029B [0x02] IF !(Work_Zone[76] == 3*) GOTO 0x02A9
 40: 0x02A3 [0x1C] WAIT(5* ticks)
 41: 0x02A6 [0x01] GOTO 0x02A9

SUBROUTINE_02A9:
 42: 0x02A9 [0x1F] MOVE_ENTITY: EventEntity moves to X=-17.213*, Z=-46.032*, Y=2.999*
 43: 0x02B1 [0x1F] MOVE_ENTITY: Update entity position (mode=1)
 44: 0x02B3 [0x00] END_REQSTACK()
```

### Event 65535.21

#### Metadata

| Field        | Value    |
|--------------|----------|
| Entrypoint   | 0x02B4   |
| Data Size    | 19 bytes |
| Instructions | 4        |

```
      00 01 02 03 04 05 06 07  08 09 0A 0B 0C 0D 0E 0F
      -- -- -- -- -- -- -- --  -- -- -- -- -- -- -- --
02B0:             B6 00 4F 80  37 50 80 03 80 51 80 52      ..O.7P...Q.R
02C0: 80 80 F8 FF FF 7F 00                              .......         
```

#### Opcodes

```
  0: 0x02B4 [0xB6] ENTITY_APPEARANCE_HANDLER(case=Hair style, value=77*)
  1: 0x02B8 [0x37] UPDATE_EVENT_POSITION_AND_DIR: x=-18.351*, z=-5.000*, y=-2.499*, direction=168.4°*
  2: 0x02C1 [0x80] LOAD_WAIT(entity=EventEntity)
  3: 0x02C6 [0x00] END_REQSTACK()
```

### Event 65535.22

#### Metadata

| Field        | Value    |
|--------------|----------|
| Entrypoint   | 0x02C7   |
| Data Size    | 19 bytes |
| Instructions | 4        |

```
      00 01 02 03 04 05 06 07  08 09 0A 0B 0C 0D 0E 0F
      -- -- -- -- -- -- -- --  -- -- -- -- -- -- -- --
02C0:                      B6  00 53 80 37 54 80 55 80         ..S.7T.U.
02D0: 18 80 56 80 80 F8 FF FF  7F 00                    ..V.......      
```

#### Opcodes

```
  0: 0x02C7 [0xB6] ENTITY_APPEARANCE_HANDLER(case=Hair style, value=332*)
  1: 0x02CB [0x37] UPDATE_EVENT_POSITION_AND_DIR: x=1.595*, z=68.087*, y=0.000*, direction=53.0°*
  2: 0x02D4 [0x80] LOAD_WAIT(entity=EventEntity)
  3: 0x02D9 [0x00] END_REQSTACK()
```

### Event 65535.23

#### Metadata

| Field        | Value    |
|--------------|----------|
| Entrypoint   | 0x02DA   |
| Data Size    | 19 bytes |
| Instructions | 4        |

```
      00 01 02 03 04 05 06 07  08 09 0A 0B 0C 0D 0E 0F
      -- -- -- -- -- -- -- --  -- -- -- -- -- -- -- --
02D0:                                B6 00 57 80 37 58            ..W.7X
02E0: 80 59 80 5A 80 5B 80 80  F8 FF FF 7F 00           .Y.Z.[.......   
```

#### Opcodes

```
  0: 0x02DA [0xB6] ENTITY_APPEARANCE_HANDLER(case=Hair style, value=166*)
  1: 0x02DE [0x37] UPDATE_EVENT_POSITION_AND_DIR: x=139.226*, z=-131.508*, y=-5.250*, direction=281.0°*
  2: 0x02E7 [0x80] LOAD_WAIT(entity=EventEntity)
  3: 0x02EC [0x00] END_REQSTACK()
```

### Event 65535.24

#### Metadata

| Field        | Value    |
|--------------|----------|
| Entrypoint   | 0x02ED   |
| Data Size    | 15 bytes |
| Instructions | 3        |

```
      00 01 02 03 04 05 06 07  08 09 0A 0B 0C 0D 0E 0F
      -- -- -- -- -- -- -- --  -- -- -- -- -- -- -- --
02E0:                                         37 5C 80               7\.
02F0: 5D 80 5E 80 5F 80 80 F8  FF FF 7F 00              ].^._.......    
```

#### Opcodes

```
  0: 0x02ED [0x37] UPDATE_EVENT_POSITION_AND_DIR: x=-56.788*, z=-509.601*, y=-5.105*, direction=38.6°*
  1: 0x02F6 [0x80] LOAD_WAIT(entity=EventEntity)
  2: 0x02FB [0x00] END_REQSTACK()
```

### Event 65535.25

#### Metadata

| Field        | Value    |
|--------------|----------|
| Entrypoint   | 0x02FC   |
| Data Size    | 14 bytes |
| Instructions | 4        |

```
      00 01 02 03 04 05 06 07  08 09 0A 0B 0C 0D 0E 0F
      -- -- -- -- -- -- -- --  -- -- -- -- -- -- -- --
02F0:                                      32 2B 80 1F              2+..
0300: 00 60 80 61 80 62 80 1F  01 00                    .`.a.b....      
```

#### Opcodes

```
  0: 0x02FC [0x32] ExtData[1]->MainSpeed = 10* * 0.1
  1: 0x02FF [0x1F] MOVE_ENTITY: EventEntity moves to X=-62.626*, Z=-507.240*, Y=-5.499*
  2: 0x0307 [0x1F] MOVE_ENTITY: Update entity position (mode=1)
  3: 0x0309 [0x00] END_REQSTACK()
```

### Event 65535.26

#### Metadata

| Field        | Value    |
|--------------|----------|
| Entrypoint   | 0x030A   |
| Data Size    | 19 bytes |
| Instructions | 5        |

```
      00 01 02 03 04 05 06 07  08 09 0A 0B 0C 0D 0E 0F
      -- -- -- -- -- -- -- --  -- -- -- -- -- -- -- --
0300:                                32 2B 80 5A 00 63            2+.Z.c
0310: 80 64 80 65 80 5A 01 1E  44 10 0F 01 00           .d.e.Z..D....   
```

#### Opcodes

```
  0: 0x030A [0x32] ExtData[1]->MainSpeed = 10* * 0.1
  1: 0x030D [0x5A] UPDATE_EVENT_POSITION: Set EventEntity MovePosition to X=-57.977*, Z=-506.270*, Y=-5.253*
  2: 0x0315 [0x5A] UPDATE_EVENT_POSITION: Move EventEntity incrementally towards MovePosition
  3: 0x0317 [0x1E] EventEntity looks at Unnamed NPC (ID: 17764420/0x010F1044) and starts talking
  4: 0x031C [0x00] END_REQSTACK()
```

### Event 65535.27

#### Metadata

| Field        | Value    |
|--------------|----------|
| Entrypoint   | 0x031D   |
| Data Size    | 15 bytes |
| Instructions | 3        |

```
      00 01 02 03 04 05 06 07  08 09 0A 0B 0C 0D 0E 0F
      -- -- -- -- -- -- -- --  -- -- -- -- -- -- -- --
0310:                                         37 66 80               7f.
0320: 67 80 68 80 69 80 80 F8  FF FF 7F 00              g.h.i.......    
```

#### Opcodes

```
  0: 0x031D [0x37] UPDATE_EVENT_POSITION_AND_DIR: x=-85.154*, z=-695.180*, y=7.806*, direction=248.2°*
  1: 0x0326 [0x80] LOAD_WAIT(entity=EventEntity)
  2: 0x032B [0x00] END_REQSTACK()
```

### Event 65535.28

#### Metadata

| Field        | Value    |
|--------------|----------|
| Entrypoint   | 0x032C   |
| Data Size    | 14 bytes |
| Instructions | 4        |

```
      00 01 02 03 04 05 06 07  08 09 0A 0B 0C 0D 0E 0F
      -- -- -- -- -- -- -- --  -- -- -- -- -- -- -- --
0320:                                      32 2B 80 1F              2+..
0330: 00 6A 80 6B 80 6C 80 1F  01 00                    .j.k.l....      
```

#### Opcodes

```
  0: 0x032C [0x32] ExtData[1]->MainSpeed = 10* * 0.1
  1: 0x032F [0x1F] MOVE_ENTITY: EventEntity moves to X=-80.309*, Z=-699.518*, Y=8.645*
  2: 0x0337 [0x1F] MOVE_ENTITY: Update entity position (mode=1)
  3: 0x0339 [0x00] END_REQSTACK()
```

### Event 65535.29

#### Metadata

| Field        | Value    |
|--------------|----------|
| Entrypoint   | 0x033A   |
| Data Size    | 19 bytes |
| Instructions | 5        |

```
      00 01 02 03 04 05 06 07  08 09 0A 0B 0C 0D 0E 0F
      -- -- -- -- -- -- -- --  -- -- -- -- -- -- -- --
0330:                                32 2B 80 1F 00 6D            2+...m
0340: 80 6E 80 6F 80 1F 01 1E  44 10 0F 01 00           .n.o....D....   
```

#### Opcodes

```
  0: 0x033A [0x32] ExtData[1]->MainSpeed = 10* * 0.1
  1: 0x033D [0x1F] MOVE_ENTITY: EventEntity moves to X=-84.645*, Z=-696.822*, Y=8.082*
  2: 0x0345 [0x1F] MOVE_ENTITY: Update entity position (mode=1)
  3: 0x0347 [0x1E] EventEntity looks at Unnamed NPC (ID: 17764420/0x010F1044) and starts talking
  4: 0x034C [0x00] END_REQSTACK()
```

### Event 65535.30

#### Metadata

| Field        | Value    |
|--------------|----------|
| Entrypoint   | 0x034D   |
| Data Size    | 15 bytes |
| Instructions | 3        |

```
      00 01 02 03 04 05 06 07  08 09 0A 0B 0C 0D 0E 0F
      -- -- -- -- -- -- -- --  -- -- -- -- -- -- -- --
0340:                                         37 70 80               7p.
0350: 71 80 72 80 73 80 80 F8  FF FF 7F 00              q.r.s.......    
```

#### Opcodes

```
  0: 0x034D [0x37] UPDATE_EVENT_POSITION_AND_DIR: x=-27.164*, z=-150.925*, y=-0.006*, direction=101.8°*
  1: 0x0356 [0x80] LOAD_WAIT(entity=EventEntity)
  2: 0x035B [0x00] END_REQSTACK()
```

### Event 65535.31

#### Metadata

| Field        | Value    |
|--------------|----------|
| Entrypoint   | 0x035C   |
| Data Size    | 14 bytes |
| Instructions | 4        |

```
      00 01 02 03 04 05 06 07  08 09 0A 0B 0C 0D 0E 0F
      -- -- -- -- -- -- -- --  -- -- -- -- -- -- -- --
0350:                                      32 2B 80 1F              2+..
0360: 00 74 80 75 80 76 80 1F  01 00                    .t.u.v....      
```

#### Opcodes

```
  0: 0x035C [0x32] ExtData[1]->MainSpeed = 10* * 0.1
  1: 0x035F [0x1F] MOVE_ENTITY: EventEntity moves to X=-30.465*, Z=-148.221*, Y=-0.500*
  2: 0x0367 [0x1F] MOVE_ENTITY: Update entity position (mode=1)
  3: 0x0369 [0x00] END_REQSTACK()
```

### Event 65535.32

#### Metadata

| Field        | Value    |
|--------------|----------|
| Entrypoint   | 0x036A   |
| Data Size    | 19 bytes |
| Instructions | 5        |

```
      00 01 02 03 04 05 06 07  08 09 0A 0B 0C 0D 0E 0F
      -- -- -- -- -- -- -- --  -- -- -- -- -- -- -- --
0360:                                32 2B 80 1F 00 77            2+...w
0370: 80 78 80 79 80 1F 01 1E  4A 10 0F 01 00           .x.y....J....   
```

#### Opcodes

```
  0: 0x036A [0x32] ExtData[1]->MainSpeed = 10* * 0.1
  1: 0x036D [0x1F] MOVE_ENTITY: EventEntity moves to X=-27.119*, Z=-145.162*, Y=-0.324*
  2: 0x0375 [0x1F] MOVE_ENTITY: Update entity position (mode=1)
  3: 0x0377 [0x1E] EventEntity looks at Unnamed NPC (ID: 17764426/0x010F104A) and starts talking
  4: 0x037C [0x00] END_REQSTACK()
```

### Event 65535.33

#### Metadata

| Field        | Value    |
|--------------|----------|
| Entrypoint   | 0x037D   |
| Data Size    | 10 bytes |
| Instructions | 2        |

```
      00 01 02 03 04 05 06 07  08 09 0A 0B 0C 0D 0E 0F
      -- -- -- -- -- -- -- --  -- -- -- -- -- -- -- --
0370:                                         37 7A 80               7z.
0380: 7B 80 5A 80 7C 80 00                              {.Z.|..         
```

#### Opcodes

```
  0: 0x037D [0x37] UPDATE_EVENT_POSITION_AND_DIR: x=128.655*, z=-125.734*, y=-5.250*, direction=291.3°*
  1: 0x0386 [0x00] END_REQSTACK()
```

### Event 65535.34

#### Metadata

| Field        | Value    |
|--------------|----------|
| Entrypoint   | 0x0387   |
| Data Size    | 14 bytes |
| Instructions | 4        |

```
      00 01 02 03 04 05 06 07  08 09 0A 0B 0C 0D 0E 0F
      -- -- -- -- -- -- -- --  -- -- -- -- -- -- -- --
0380:                      32  2B 80 1F 00 7D 80 7E 80         2+...}.~.
0390: 5A 80 1F 01 00                                    Z....           
```

#### Opcodes

```
  0: 0x0387 [0x32] ExtData[1]->MainSpeed = 10* * 0.1
  1: 0x038A [0x1F] MOVE_ENTITY: EventEntity moves to X=129.585*, Z=-121.711*, Y=-5.250*
  2: 0x0392 [0x1F] MOVE_ENTITY: Update entity position (mode=1)
  3: 0x0394 [0x00] END_REQSTACK()
```

### Event 776

#### Metadata

| Field        | Value   |
|--------------|---------|
| Entrypoint   | 0x0395  |
| Data Size    | 1 bytes |
| Instructions | 1       |

```
      00 01 02 03 04 05 06 07  08 09 0A 0B 0C 0D 0E 0F
      -- -- -- -- -- -- -- --  -- -- -- -- -- -- -- --
0390:                00                                      .          
```

#### Opcodes

```
  0: 0x0395 [0x00] END_REQSTACK()
```

### Event 65535.35

#### Metadata

| Field        | Value    |
|--------------|----------|
| Entrypoint   | 0x0396   |
| Data Size    | 15 bytes |
| Instructions | 3        |

```
      00 01 02 03 04 05 06 07  08 09 0A 0B 0C 0D 0E 0F
      -- -- -- -- -- -- -- --  -- -- -- -- -- -- -- --
0390:                   37 7F  80 80 80 81 80 82 80 03        7.........
03A0: 04 00 18 80 00                                    .....           
```

#### Opcodes

```
  0: 0x0396 [0x37] UPDATE_EVENT_POSITION_AND_DIR: x=-605.201*, z=606.193*, y=0.167*, direction=33.1°*
  1: 0x039F [0x03] ExtData[1]->WorkLocal[4] = 0*
  2: 0x03A4 [0x00] END_REQSTACK()
```

### Event 65535.36

#### Metadata

| Field        | Value    |
|--------------|----------|
| Entrypoint   | 0x03A5   |
| Data Size    | 48 bytes |
| Instructions | 11       |

```
      00 01 02 03 04 05 06 07  08 09 0A 0B 0C 0D 0E 0F
      -- -- -- -- -- -- -- --  -- -- -- -- -- -- -- --
03A0:                02 04 00  83 80 01 D4 03 32 2B 80       ........2+.
03B0: 1F 00 84 80 85 80 86 80  1F 01 1F 00 87 80 88 80  ................
03C0: 89 80 1F 01 1C 8A 80 1F  00 8B 80 8C 80 8D 80 1F  ................
03D0: 01 01 A5 03 00                                    .....           
```

#### Opcodes

```
  0: 0x03A5 [0x02] IF !(ExtData[1]->WorkLocal[4] == 2*) GOTO 0x03D4
  1: 0x03AD [0x32] ExtData[1]->MainSpeed = 10* * 0.1
  2: 0x03B0 [0x1F] MOVE_ENTITY: EventEntity moves to X=-605.972*, Z=607.697*, Y=0.004*
  3: 0x03B8 [0x1F] MOVE_ENTITY: Update entity position (mode=1)
  4: 0x03BA [0x1F] MOVE_ENTITY: EventEntity moves to X=-608.286*, Z=606.788*, Y=-0.064*
  5: 0x03C2 [0x1F] MOVE_ENTITY: Update entity position (mode=1)
  6: 0x03C4 [0x1C] WAIT(60* ticks)
  7: 0x03C7 [0x1F] MOVE_ENTITY: EventEntity moves to X=-606.508*, Z=607.958*, Y=-0.049*
  8: 0x03CF [0x1F] MOVE_ENTITY: Update entity position (mode=1)
  9: 0x03D1 [0x01] GOTO 0x03A5
 10: 0x03D4 [0x00] END_REQSTACK()
```

### Event 65535.37

#### Metadata

| Field        | Value    |
|--------------|----------|
| Entrypoint   | 0x03D5   |
| Data Size    | 48 bytes |
| Instructions | 11       |

```
      00 01 02 03 04 05 06 07  08 09 0A 0B 0C 0D 0E 0F
      -- -- -- -- -- -- -- --  -- -- -- -- -- -- -- --
03D0:                02 04 00  83 80 01 04 04 32 33 80       ........23.
03E0: 1F 00 84 80 85 80 86 80  1F 01 1F 00 87 80 88 80  ................
03F0: 89 80 1F 01 1C 8A 80 1F  00 8B 80 8C 80 8D 80 1F  ................
0400: 01 01 D5 03 00                                    .....           
```

#### Opcodes

```
  0: 0x03D5 [0x02] IF !(ExtData[1]->WorkLocal[4] == 2*) GOTO 0x0404
  1: 0x03DD [0x32] ExtData[1]->MainSpeed = 19* * 0.1
  2: 0x03E0 [0x1F] MOVE_ENTITY: EventEntity moves to X=-605.972*, Z=607.697*, Y=0.004*
  3: 0x03E8 [0x1F] MOVE_ENTITY: Update entity position (mode=1)
  4: 0x03EA [0x1F] MOVE_ENTITY: EventEntity moves to X=-608.286*, Z=606.788*, Y=-0.064*
  5: 0x03F2 [0x1F] MOVE_ENTITY: Update entity position (mode=1)
  6: 0x03F4 [0x1C] WAIT(60* ticks)
  7: 0x03F7 [0x1F] MOVE_ENTITY: EventEntity moves to X=-606.508*, Z=607.958*, Y=-0.049*
  8: 0x03FF [0x1F] MOVE_ENTITY: Update entity position (mode=1)
  9: 0x0401 [0x01] GOTO 0x03D5
 10: 0x0404 [0x00] END_REQSTACK()
```

### Event 65535.38

#### Metadata

| Field        | Value   |
|--------------|---------|
| Entrypoint   | 0x0405  |
| Data Size    | 6 bytes |
| Instructions | 2       |

```
      00 01 02 03 04 05 06 07  08 09 0A 0B 0C 0D 0E 0F
      -- -- -- -- -- -- -- --  -- -- -- -- -- -- -- --
0400:                03 04 00  83 80 00                      ......     
```

#### Opcodes

```
  0: 0x0405 [0x03] ExtData[1]->WorkLocal[4] = 2*
  1: 0x040A [0x00] END_REQSTACK()
```

### Event 65535.39

#### Metadata

| Field        | Value    |
|--------------|----------|
| Entrypoint   | 0x040B   |
| Data Size    | 15 bytes |
| Instructions | 3        |

```
      00 01 02 03 04 05 06 07  08 09 0A 0B 0C 0D 0E 0F
      -- -- -- -- -- -- -- --  -- -- -- -- -- -- -- --
0400:                                   37 8E 80 8F 80             7....
0410: 90 80 91 80 80 F8 FF FF  7F 00                    ..........      
```

#### Opcodes

```
  0: 0x040B [0x37] UPDATE_EVENT_POSITION_AND_DIR: x=-600.128*, z=585.578*, y=0.628*, direction=25.0°*
  1: 0x0414 [0x80] LOAD_WAIT(entity=EventEntity)
  2: 0x0419 [0x00] END_REQSTACK()
```

### Event 65535.40

#### Metadata

| Field        | Value    |
|--------------|----------|
| Entrypoint   | 0x041A   |
| Data Size    | 54 bytes |
| Instructions | 12       |

```
      00 01 02 03 04 05 06 07  08 09 0A 0B 0C 0D 0E 0F
      -- -- -- -- -- -- -- --  -- -- -- -- -- -- -- --
0410:                                32 2B 80 1F 00 92            2+....
0420: 80 93 80 94 80 1F 01 1F  00 95 80 96 80 97 80 1F  ................
0430: 01 1F 00 98 80 99 80 9A  80 1F 01 1F 00 9B 80 9C  ................
0440: 80 9D 80 1F 01 1F 00 8E  80 8F 80 90 80 1F 01 00  ................
```

#### Opcodes

```
  0: 0x041A [0x32] ExtData[1]->MainSpeed = 10* * 0.1
  1: 0x041D [0x1F] MOVE_ENTITY: EventEntity moves to X=-601.910*, Z=587.743*, Y=0.274*
  2: 0x0425 [0x1F] MOVE_ENTITY: Update entity position (mode=1)
  3: 0x0427 [0x1F] MOVE_ENTITY: EventEntity moves to X=-600.199*, Z=588.994*, Y=0.347*
  4: 0x042F [0x1F] MOVE_ENTITY: Update entity position (mode=1)
  5: 0x0431 [0x1F] MOVE_ENTITY: EventEntity moves to X=-599.211*, Z=586.089*, Y=0.586*
  6: 0x0439 [0x1F] MOVE_ENTITY: Update entity position (mode=1)
  7: 0x043B [0x1F] MOVE_ENTITY: EventEntity moves to X=-599.391*, Z=583.375*, Y=0.830*
  8: 0x0443 [0x1F] MOVE_ENTITY: Update entity position (mode=1)
  9: 0x0445 [0x1F] MOVE_ENTITY: EventEntity moves to X=-600.128*, Z=585.578*, Y=0.628*
 10: 0x044D [0x1F] MOVE_ENTITY: Update entity position (mode=1)
 11: 0x044F [0x00] END_REQSTACK()
```

### Event 65535.41

#### Metadata

| Field        | Value    |
|--------------|----------|
| Entrypoint   | 0x0450   |
| Data Size    | 66 bytes |
| Instructions | 16       |

```
      00 01 02 03 04 05 06 07  08 09 0A 0B 0C 0D 0E 0F
      -- -- -- -- -- -- -- --  -- -- -- -- -- -- -- --
0450: 32 33 80 1F 00 92 80 93  80 94 80 1F 01 1C 9E 80  23..............
0460: 1F 00 95 80 96 80 97 80  1F 01 1C 9E 80 1F 00 98  ................
0470: 80 99 80 9A 80 1F 01 1C  9E 80 1F 00 9B 80 9C 80  ................
0480: 9D 80 1F 01 1C 9E 80 1F  00 8E 80 8F 80 90 80 1F  ................
0490: 01 00                                             ..              
```

#### Opcodes

```
  0: 0x0450 [0x32] ExtData[1]->MainSpeed = 19* * 0.1
  1: 0x0453 [0x1F] MOVE_ENTITY: EventEntity moves to X=-601.910*, Z=587.743*, Y=0.274*
  2: 0x045B [0x1F] MOVE_ENTITY: Update entity position (mode=1)
  3: 0x045D [0x1C] WAIT(30* ticks)
  4: 0x0460 [0x1F] MOVE_ENTITY: EventEntity moves to X=-600.199*, Z=588.994*, Y=0.347*
  5: 0x0468 [0x1F] MOVE_ENTITY: Update entity position (mode=1)
  6: 0x046A [0x1C] WAIT(30* ticks)
  7: 0x046D [0x1F] MOVE_ENTITY: EventEntity moves to X=-599.211*, Z=586.089*, Y=0.586*
  8: 0x0475 [0x1F] MOVE_ENTITY: Update entity position (mode=1)
  9: 0x0477 [0x1C] WAIT(30* ticks)
 10: 0x047A [0x1F] MOVE_ENTITY: EventEntity moves to X=-599.391*, Z=583.375*, Y=0.830*
 11: 0x0482 [0x1F] MOVE_ENTITY: Update entity position (mode=1)
 12: 0x0484 [0x1C] WAIT(30* ticks)
 13: 0x0487 [0x1F] MOVE_ENTITY: EventEntity moves to X=-600.128*, Z=585.578*, Y=0.628*
 14: 0x048F [0x1F] MOVE_ENTITY: Update entity position (mode=1)
 15: 0x0491 [0x00] END_REQSTACK()
```

### Event 65535.42

#### Metadata

| Field        | Value    |
|--------------|----------|
| Entrypoint   | 0x0492   |
| Data Size    | 15 bytes |
| Instructions | 3        |

```
      00 01 02 03 04 05 06 07  08 09 0A 0B 0C 0D 0E 0F
      -- -- -- -- -- -- -- --  -- -- -- -- -- -- -- --
0490:       37 9F 80 A0 80 A1  80 A2 80 80 F8 FF FF 7F    7.............
04A0: 00                                                .               
```

#### Opcodes

```
  0: 0x0492 [0x37] UPDATE_EVENT_POSITION_AND_DIR: x=-601.165*, z=586.560*, y=0.464*, direction=22.6°*
  1: 0x049B [0x80] LOAD_WAIT(entity=EventEntity)
  2: 0x04A0 [0x00] END_REQSTACK()
```

### Event 65535.43

#### Metadata

| Field        | Value    |
|--------------|----------|
| Entrypoint   | 0x04A1   |
| Data Size    | 73 bytes |
| Instructions | 17       |

```
      00 01 02 03 04 05 06 07  08 09 0A 0B 0C 0D 0E 0F
      -- -- -- -- -- -- -- --  -- -- -- -- -- -- -- --
04A0:    32 33 80 1F 00 92 80  93 80 94 80 1F 01 1F 00   23.............
04B0: 95 80 96 80 97 80 1F 01  1F 00 98 80 99 80 9A 80  ................
04C0: 1F 01 1F 00 9B 80 9C 80  9D 80 1F 01 1C 9E 80 1E  ................
04D0: 44 10 0F 01 1C A3 80 1F  00 A4 80 A5 80 A6 80 1F  D...............
04E0: 01 1C 9E 80 1E 44 10 0F  01 00                    .....D....      
```

#### Opcodes

```
  0: 0x04A1 [0x32] ExtData[1]->MainSpeed = 19* * 0.1
  1: 0x04A4 [0x1F] MOVE_ENTITY: EventEntity moves to X=-601.910*, Z=587.743*, Y=0.274*
  2: 0x04AC [0x1F] MOVE_ENTITY: Update entity position (mode=1)
  3: 0x04AE [0x1F] MOVE_ENTITY: EventEntity moves to X=-600.199*, Z=588.994*, Y=0.347*
  4: 0x04B6 [0x1F] MOVE_ENTITY: Update entity position (mode=1)
  5: 0x04B8 [0x1F] MOVE_ENTITY: EventEntity moves to X=-599.211*, Z=586.089*, Y=0.586*
  6: 0x04C0 [0x1F] MOVE_ENTITY: Update entity position (mode=1)
  7: 0x04C2 [0x1F] MOVE_ENTITY: EventEntity moves to X=-599.391*, Z=583.375*, Y=0.830*
  8: 0x04CA [0x1F] MOVE_ENTITY: Update entity position (mode=1)
  9: 0x04CC [0x1C] WAIT(30* ticks)
 10: 0x04CF [0x1E] EventEntity looks at Unnamed NPC (ID: 17764420/0x010F1044) and starts talking
 11: 0x04D4 [0x1C] WAIT(120* ticks)
 12: 0x04D7 [0x1F] MOVE_ENTITY: EventEntity moves to X=-602.007*, Z=587.764*, Y=0.268*
 13: 0x04DF [0x1F] MOVE_ENTITY: Update entity position (mode=1)
 14: 0x04E1 [0x1C] WAIT(30* ticks)
 15: 0x04E4 [0x1E] EventEntity looks at Unnamed NPC (ID: 17764420/0x010F1044) and starts talking
 16: 0x04E9 [0x00] END_REQSTACK()
```

### Event 65535.44

#### Metadata

| Field        | Value    |
|--------------|----------|
| Entrypoint   | 0x04EA   |
| Data Size    | 50 bytes |
| Instructions | 12       |

```
      00 01 02 03 04 05 06 07  08 09 0A 0B 0C 0D 0E 0F
      -- -- -- -- -- -- -- --  -- -- -- -- -- -- -- --
04E0:                                32 2B 80 1F 00 A7            2+....
04F0: 80 A8 80 A9 80 1F 01 1C  8A 80 1F 00 AA 80 AB 80  ................
0500: AC 80 1F 01 1C 8A 80 1F  00 8E 80 8F 80 90 80 1F  ................
0510: 01 4B 45 10 0F 01 AD 80  1C 8A 80 00              .KE.........    
```

#### Opcodes

```
  0: 0x04EA [0x32] ExtData[1]->MainSpeed = 10* * 0.1
  1: 0x04ED [0x1F] MOVE_ENTITY: EventEntity moves to X=-600.221*, Z=588.558*, Y=0.369*
  2: 0x04F5 [0x1F] MOVE_ENTITY: Update entity position (mode=1)
  3: 0x04F7 [0x1C] WAIT(60* ticks)
  4: 0x04FA [0x1F] MOVE_ENTITY: EventEntity moves to X=-602.144*, Z=586.825*, Y=0.376*
  5: 0x0502 [0x1F] MOVE_ENTITY: Update entity position (mode=1)
  6: 0x0504 [0x1C] WAIT(60* ticks)
  7: 0x0507 [0x1F] MOVE_ENTITY: EventEntity moves to X=-600.128*, Z=585.578*, Y=0.628*
  8: 0x050F [0x1F] MOVE_ENTITY: Update entity position (mode=1)
  9: 0x0511 [0x4B] UPDATE_ENTITY_YAW(entity=Unnamed NPC (ID: 17764421/0x010F1045), yaw=11.8°*)
 10: 0x0518 [0x1C] WAIT(60* ticks)
 11: 0x051B [0x00] END_REQSTACK()
```

### Event 65535.45

#### Metadata

| Field        | Value    |
|--------------|----------|
| Entrypoint   | 0x051C   |
| Data Size    | 50 bytes |
| Instructions | 12       |

```
      00 01 02 03 04 05 06 07  08 09 0A 0B 0C 0D 0E 0F
      -- -- -- -- -- -- -- --  -- -- -- -- -- -- -- --
0510:                                      32 33 80 1F              23..
0520: 00 AE 80 AF 80 B0 80 1F  01 1C 8A 80 1F 00 AA 80  ................
0530: AB 80 AC 80 1F 01 1C 8A  80 1F 00 8E 80 8F 80 90  ................
0540: 80 1F 01 4B 45 10 0F 01  AD 80 1C 8A 80 00        ...KE.........  
```

#### Opcodes

```
  0: 0x051C [0x32] ExtData[1]->MainSpeed = 19* * 0.1
  1: 0x051F [0x1F] MOVE_ENTITY: EventEntity moves to X=-599.892*, Z=588.477*, Y=0.373*
  2: 0x0527 [0x1F] MOVE_ENTITY: Update entity position (mode=1)
  3: 0x0529 [0x1C] WAIT(60* ticks)
  4: 0x052C [0x1F] MOVE_ENTITY: EventEntity moves to X=-602.144*, Z=586.825*, Y=0.376*
  5: 0x0534 [0x1F] MOVE_ENTITY: Update entity position (mode=1)
  6: 0x0536 [0x1C] WAIT(60* ticks)
  7: 0x0539 [0x1F] MOVE_ENTITY: EventEntity moves to X=-600.128*, Z=585.578*, Y=0.628*
  8: 0x0541 [0x1F] MOVE_ENTITY: Update entity position (mode=1)
  9: 0x0543 [0x4B] UPDATE_ENTITY_YAW(entity=Unnamed NPC (ID: 17764421/0x010F1045), yaw=11.8°*)
 10: 0x054A [0x1C] WAIT(60* ticks)
 11: 0x054D [0x00] END_REQSTACK()
```

### Event 65535.46

#### Metadata

| Field        | Value    |
|--------------|----------|
| Entrypoint   | 0x054E   |
| Data Size    | 67 bytes |
| Instructions | 15       |

```
      00 01 02 03 04 05 06 07  08 09 0A 0B 0C 0D 0E 0F
      -- -- -- -- -- -- -- --  -- -- -- -- -- -- -- --
0540:                                            32 05                2.
0550: 80 1F 00 B1 80 B2 80 B3  80 1F 01 4B 45 10 0F 01  ...........KE...
0560: B4 80 1C 8A 80 1F 00 B5  80 B6 80 B7 80 1F 01 4B  ...............K
0570: 45 10 0F 01 B8 80 1C B9  80 1F 00 BA 80 BB 80 BC  E...............
0580: 80 1F 01 1C 9E 80 4B 45  10 0F 01 BD 80 1C 8A 80  ......KE........
0590: 00                                                .               
```

#### Opcodes

```
  0: 0x054E [0x32] ExtData[1]->MainSpeed = 57* * 0.1
  1: 0x0551 [0x1F] MOVE_ENTITY: EventEntity moves to X=-599.295*, Z=590.678*, Y=0.264*
  2: 0x0559 [0x1F] MOVE_ENTITY: Update entity position (mode=1)
  3: 0x055B [0x4B] UPDATE_ENTITY_YAW(entity=Unnamed NPC (ID: 17764421/0x010F1045), yaw=5.3°*)
  4: 0x0562 [0x1C] WAIT(60* ticks)
  5: 0x0565 [0x1F] MOVE_ENTITY: EventEntity moves to X=-604.353*, Z=586.292*, Y=0.138*
  6: 0x056D [0x1F] MOVE_ENTITY: Update entity position (mode=1)
  7: 0x056F [0x4B] UPDATE_ENTITY_YAW(entity=Unnamed NPC (ID: 17764421/0x010F1045), yaw=0.2°*)
  8: 0x0576 [0x1C] WAIT(240* ticks)
  9: 0x0579 [0x1F] MOVE_ENTITY: EventEntity moves to X=-600.328*, Z=582.410*, Y=0.802*
 10: 0x0581 [0x1F] MOVE_ENTITY: Update entity position (mode=1)
 11: 0x0583 [0x1C] WAIT(30* ticks)
 12: 0x0586 [0x4B] UPDATE_ENTITY_YAW(entity=Unnamed NPC (ID: 17764421/0x010F1045), yaw=16.6°*)
 13: 0x058D [0x1C] WAIT(60* ticks)
 14: 0x0590 [0x00] END_REQSTACK()
```

### Event 65535.47

#### Metadata

| Field        | Value    |
|--------------|----------|
| Entrypoint   | 0x0591   |
| Data Size    | 14 bytes |
| Instructions | 4        |

```
      00 01 02 03 04 05 06 07  08 09 0A 0B 0C 0D 0E 0F
      -- -- -- -- -- -- -- --  -- -- -- -- -- -- -- --
0590:    32 2B 80 1F 00 BE 80  BF 80 C0 80 1F 01 00      2+............ 
```

#### Opcodes

```
  0: 0x0591 [0x32] ExtData[1]->MainSpeed = 10* * 0.1
  1: 0x0594 [0x1F] MOVE_ENTITY: EventEntity moves to X=-599.148*, Z=589.043*, Y=0.345*
  2: 0x059C [0x1F] MOVE_ENTITY: Update entity position (mode=1)
  3: 0x059E [0x00] END_REQSTACK()
```

### Event 65535.48

#### Metadata

| Field        | Value    |
|--------------|----------|
| Entrypoint   | 0x059F   |
| Data Size    | 51 bytes |
| Instructions | 11       |

```
      00 01 02 03 04 05 06 07  08 09 0A 0B 0C 0D 0E 0F
      -- -- -- -- -- -- -- --  -- -- -- -- -- -- -- --
0590:                                               32                 2
05A0: 2B 80 1F 00 C1 80 C2 80  05 80 1F 01 1F 00 C3 80  +...............
05B0: C4 80 C5 80 1F 01 1F 00  C6 80 C7 80 C8 80 1F 01  ................
05C0: 1E 44 10 0F 01 1C 9E 80  4A 44 10 0F 01 45 10 0F  .D......JD...E..
05D0: 01 00                                             ..              
```

#### Opcodes

```
  0: 0x059F [0x32] ExtData[1]->MainSpeed = 10* * 0.1
  1: 0x05A2 [0x1F] MOVE_ENTITY: EventEntity moves to X=-604.257*, Z=586.573*, Y=0.057*
  2: 0x05AA [0x1F] MOVE_ENTITY: Update entity position (mode=1)
  3: 0x05AC [0x1F] MOVE_ENTITY: EventEntity moves to X=-603.318*, Z=588.527*, Y=0.196*
  4: 0x05B4 [0x1F] MOVE_ENTITY: Update entity position (mode=1)
  5: 0x05B6 [0x1F] MOVE_ENTITY: EventEntity moves to X=-601.495*, Z=586.040*, Y=0.496*
  6: 0x05BE [0x1F] MOVE_ENTITY: Update entity position (mode=1)
  7: 0x05C0 [0x1E] EventEntity looks at Unnamed NPC (ID: 17764420/0x010F1044) and starts talking
  8: 0x05C5 [0x1C] WAIT(30* ticks)
  9: 0x05C8 [0x4A] Unnamed NPC (ID: 17764420/0x010F1044) looks at Unnamed NPC (ID: 17764421/0x010F1045)
 10: 0x05D1 [0x00] END_REQSTACK()
```

### Event 65535.49

#### Metadata

| Field        | Value    |
|--------------|----------|
| Entrypoint   | 0x05D2   |
| Data Size    | 14 bytes |
| Instructions | 4        |

```
      00 01 02 03 04 05 06 07  08 09 0A 0B 0C 0D 0E 0F
      -- -- -- -- -- -- -- --  -- -- -- -- -- -- -- --
05D0:       32 05 80 1F 00 BE  80 BF 80 C0 80 1F 01 00    2.............
```

#### Opcodes

```
  0: 0x05D2 [0x32] ExtData[1]->MainSpeed = 57* * 0.1
  1: 0x05D5 [0x1F] MOVE_ENTITY: EventEntity moves to X=-599.148*, Z=589.043*, Y=0.345*
  2: 0x05DD [0x1F] MOVE_ENTITY: Update entity position (mode=1)
  3: 0x05DF [0x00] END_REQSTACK()
```

### Event 65535.50

#### Metadata

| Field        | Value    |
|--------------|----------|
| Entrypoint   | 0x05E0   |
| Data Size    | 51 bytes |
| Instructions | 11       |

```
      00 01 02 03 04 05 06 07  08 09 0A 0B 0C 0D 0E 0F
      -- -- -- -- -- -- -- --  -- -- -- -- -- -- -- --
05E0: 32 05 80 1F 00 C1 80 C2  80 05 80 1F 01 1F 00 C3  2...............
05F0: 80 C4 80 C5 80 1F 01 1F  00 C6 80 C7 80 C8 80 1F  ................
0600: 01 1E 44 10 0F 01 1C 9E  80 4A 44 10 0F 01 45 10  ..D......JD...E.
0610: 0F 01 00                                          ...             
```

#### Opcodes

```
  0: 0x05E0 [0x32] ExtData[1]->MainSpeed = 57* * 0.1
  1: 0x05E3 [0x1F] MOVE_ENTITY: EventEntity moves to X=-604.257*, Z=586.573*, Y=0.057*
  2: 0x05EB [0x1F] MOVE_ENTITY: Update entity position (mode=1)
  3: 0x05ED [0x1F] MOVE_ENTITY: EventEntity moves to X=-603.318*, Z=588.527*, Y=0.196*
  4: 0x05F5 [0x1F] MOVE_ENTITY: Update entity position (mode=1)
  5: 0x05F7 [0x1F] MOVE_ENTITY: EventEntity moves to X=-601.495*, Z=586.040*, Y=0.496*
  6: 0x05FF [0x1F] MOVE_ENTITY: Update entity position (mode=1)
  7: 0x0601 [0x1E] EventEntity looks at Unnamed NPC (ID: 17764420/0x010F1044) and starts talking
  8: 0x0606 [0x1C] WAIT(30* ticks)
  9: 0x0609 [0x4A] Unnamed NPC (ID: 17764420/0x010F1044) looks at Unnamed NPC (ID: 17764421/0x010F1045)
 10: 0x0612 [0x00] END_REQSTACK()
```

### Event 65535.51

#### Metadata

| Field        | Value    |
|--------------|----------|
| Entrypoint   | 0x0613   |
| Data Size    | 59 bytes |
| Instructions | 13       |

```
      00 01 02 03 04 05 06 07  08 09 0A 0B 0C 0D 0E 0F
      -- -- -- -- -- -- -- --  -- -- -- -- -- -- -- --
0610:          32 2B 80 1F 00  C9 80 CA 80 CB 80 1F 01     2+...........
0620: 1F 00 CC 80 CD 80 CE 80  1F 01 1F 00 CF 80 D0 80  ................
0630: D1 80 1F 01 1F 00 D2 80  D3 80 D4 80 1F 01 1F 00  ................
0640: D5 80 D6 80 D7 80 1F 01  1E 44 10 0F 01 00        .........D....  
```

#### Opcodes

```
  0: 0x0613 [0x32] ExtData[1]->MainSpeed = 10* * 0.1
  1: 0x0616 [0x1F] MOVE_ENTITY: EventEntity moves to X=-601.361*, Z=584.507*, Y=0.542*
  2: 0x061E [0x1F] MOVE_ENTITY: Update entity position (mode=1)
  3: 0x0620 [0x1F] MOVE_ENTITY: EventEntity moves to X=-600.414*, Z=583.859*, Y=0.704*
  4: 0x0628 [0x1F] MOVE_ENTITY: Update entity position (mode=1)
  5: 0x062A [0x1F] MOVE_ENTITY: EventEntity moves to X=-599.376*, Z=585.276*, Y=0.668*
  6: 0x0632 [0x1F] MOVE_ENTITY: Update entity position (mode=1)
  7: 0x0634 [0x1F] MOVE_ENTITY: EventEntity moves to X=-598.992*, Z=587.260*, Y=0.468*
  8: 0x063C [0x1F] MOVE_ENTITY: Update entity position (mode=1)
  9: 0x063E [0x1F] MOVE_ENTITY: EventEntity moves to X=-599.942*, Z=587.474*, Y=0.447*
 10: 0x0646 [0x1F] MOVE_ENTITY: Update entity position (mode=1)
 11: 0x0648 [0x1E] EventEntity looks at Unnamed NPC (ID: 17764420/0x010F1044) and starts talking
 12: 0x064D [0x00] END_REQSTACK()
```

### Event 65535.52

#### Metadata

| Field        | Value    |
|--------------|----------|
| Entrypoint   | 0x064E   |
| Data Size    | 69 bytes |
| Instructions | 15       |

```
      00 01 02 03 04 05 06 07  08 09 0A 0B 0C 0D 0E 0F
      -- -- -- -- -- -- -- --  -- -- -- -- -- -- -- --
0640:                                            32 05                2.
0650: 80 1F 00 D8 80 D9 80 DA  80 1F 01 1F 00 DB 80 DC  ................
0660: 80 DD 80 1F 01 1F 00 DE  80 DF 80 E0 80 1F 01 1F  ................
0670: 00 E1 80 E2 80 E3 80 1F  01 1F 00 E4 80 E5 80 E6  ................
0680: 80 1F 01 1F 00 E7 80 E8  80 E9 80 1F 01 1E 44 10  ..............D.
0690: 0F 01 00                                          ...             
```

#### Opcodes

```
  0: 0x064E [0x32] ExtData[1]->MainSpeed = 57* * 0.1
  1: 0x0651 [0x1F] MOVE_ENTITY: EventEntity moves to X=-602.454*, Z=588.333*, Y=0.247*
  2: 0x0659 [0x1F] MOVE_ENTITY: Update entity position (mode=1)
  3: 0x065B [0x1F] MOVE_ENTITY: EventEntity moves to X=-603.634*, Z=585.657*, Y=0.144*
  4: 0x0663 [0x1F] MOVE_ENTITY: Update entity position (mode=1)
  5: 0x0665 [0x1F] MOVE_ENTITY: EventEntity moves to X=-602.421*, Z=582.680*, Y=0.396*
  6: 0x066D [0x1F] MOVE_ENTITY: Update entity position (mode=1)
  7: 0x066F [0x1F] MOVE_ENTITY: EventEntity moves to X=-599.175*, Z=582.899*, Y=0.854*
  8: 0x0677 [0x1F] MOVE_ENTITY: Update entity position (mode=1)
  9: 0x0679 [0x1F] MOVE_ENTITY: EventEntity moves to X=-598.432*, Z=587.737*, Y=0.410*
 10: 0x0681 [0x1F] MOVE_ENTITY: Update entity position (mode=1)
 11: 0x0683 [0x1F] MOVE_ENTITY: EventEntity moves to X=-599.890*, Z=589.432*, Y=0.326*
 12: 0x068B [0x1F] MOVE_ENTITY: Update entity position (mode=1)
 13: 0x068D [0x1E] EventEntity looks at Unnamed NPC (ID: 17764420/0x010F1044) and starts talking
 14: 0x0692 [0x00] END_REQSTACK()
```

### Event 65535.53

#### Metadata

| Field        | Value    |
|--------------|----------|
| Entrypoint   | 0x0693   |
| Data Size    | 15 bytes |
| Instructions | 3        |

```
      00 01 02 03 04 05 06 07  08 09 0A 0B 0C 0D 0E 0F
      -- -- -- -- -- -- -- --  -- -- -- -- -- -- -- --
0690:          37 A4 80 A5 80  A6 80 91 80 80 F8 FF FF     7............
06A0: 7F 00                                             ..              
```

#### Opcodes

```
  0: 0x0693 [0x37] UPDATE_EVENT_POSITION_AND_DIR: x=-602.007*, z=587.764*, y=0.268*, direction=25.0°*
  1: 0x069C [0x80] LOAD_WAIT(entity=EventEntity)
  2: 0x06A1 [0x00] END_REQSTACK()
```
