# 17764627 - Chabobo

## Common Data

| Field            | Value                    |
|------------------|--------------------------|
| Zone             | Windurst Woods (ID: 241) |
| Block Size       | 10952 bytes              |
| Total Events     | 5                        |
| References Count | 173                      |

## List of Events

| Event ID              | Entrypoint   |   Size |   Instructions |
|-----------------------|--------------|--------|----------------|
| [65535](#event-65535) | 0x0000       |      1 |              1 |
| [840](#event-840)     | 0x0001       |    564 |             89 |
| [841](#event-841)     | 0x0235       |   3531 |            571 |
| [842](#event-842)     | 0x1000       |   2227 |            350 |
| [843](#event-843)     | 0x18B3       |   3900 |            623 |

## DAT References (imed_data)

|   Index | Hex Value   |   Dec Value |
|---------|-------------|-------------|
|       0 | 0x0002      |           2 |
|       1 | 0x0001      |           1 |
|       2 | 0x00C8      |         200 |
|       3 | 0x0000      |           0 |
|       4 | 0x0004      |           4 |
|       5 | 0x001E      |          30 |
|       6 | 0x0028      |          40 |
|       7 | 0x3567      |       13671 |
|       8 | 0x354E      |       13646 |
|       9 | 0x354F      |       13647 |
|      10 | 0x0003      |           3 |
|      11 | 0x3551      |       13649 |
|      12 | 0x003C      |          60 |
|      13 | 0x001F      |          31 |
|      14 | 0x353A      |       13626 |
|      15 | 0x3537      |       13623 |
|      16 | 0x3538      |       13624 |
|      17 | 0x3539      |       13625 |
|      18 | 0x353B      |       13627 |
|      19 | 0x353C      |       13628 |
|      20 | 0x353D      |       13629 |
|      21 | 0x353E      |       13630 |
|      22 | 0x001B      |          27 |
|      23 | 0x000F      |          15 |
|      24 | 0xFFFFAC04  |  4294945796 |
|      25 | 0xFFFF38C8  |  4294916296 |
|      26 | 0x0BB8      |        3000 |
|      27 | 0x07FF      |        2047 |
|      28 | 0xFFFF62F8  |  4294927096 |
|      29 | 0xFFFF3BE8  |  4294917096 |
|      30 | 0x0FFF      |        4095 |
|      31 | 0xFFFF30F8  |  4294914296 |
|      32 | 0x0066      |         102 |
|      33 | 0x0081      |         129 |
|      34 | 0xFFFFEA84  |  4294961796 |
|      35 | 0x1D4C      |        7500 |
|      36 | 0x004C      |          76 |
|      37 | 0x0078      |         120 |
|      38 | 0x3552      |       13650 |
|      39 | 0x00B4      |         180 |
|      40 | 0xFFFFFE01  |  4294966785 |
|      41 | 0x353F      |       13631 |
|      42 | 0x3540      |       13632 |
|      43 | 0x0020      |          32 |
|      44 | 0x3541      |       13633 |
|      45 | 0x0005      |           5 |
|      46 | 0x0006      |           6 |
|      47 | 0x3542      |       13634 |
|      48 | 0x3543      |       13635 |
|      49 | 0x0097      |         151 |
|      50 | 0x1D0D8     |      119000 |
|      51 | 0xFFFE64DE  |  4294862046 |
|      52 | 0xFFFFEC78  |  4294962296 |
|      53 | 0xFFFFFC18  |  4294966296 |
|      54 | 0x0008      |           8 |
|      55 | 0x0010      |          16 |
|      56 | 0x03E8      |        1000 |
|      57 | 0x00DC      |         220 |
|      58 | 0x0007      |           7 |
|      59 | 0x0009      |           9 |
|      60 | 0x000A      |          10 |
|      61 | 0x000B      |          11 |
|      62 | 0x000C      |          12 |
|      63 | 0x000D      |          13 |
|      64 | 0x000E      |          14 |
|      65 | 0x0011      |          17 |
|      66 | 0x0012      |          18 |
|      67 | 0x0013      |          19 |
|      68 | 0x0014      |          20 |
|      69 | 0x0015      |          21 |
|      70 | 0x0016      |          22 |
|      71 | 0x0017      |          23 |
|      72 | 0x0018      |          24 |
|      73 | 0x3548      |       13640 |
|      74 | 0x3549      |       13641 |
|      75 | 0x354A      |       13642 |
|      76 | 0x354B      |       13643 |
|      77 | 0x354C      |       13644 |
|      78 | 0x354D      |       13645 |
|      79 | 0x3545      |       13637 |
|      80 | 0x11C1      |        4545 |
|      81 | 0x15E5      |        5605 |
|      82 | 0x15E6      |        5606 |
|      83 | 0x3546      |       13638 |
|      84 | 0x3547      |       13639 |
|      85 | 0x3544      |       13636 |
|      86 | 0x15E7      |        5607 |
|      87 | 0x15E8      |        5608 |
|      88 | 0x3550      |       13648 |
|      89 | 0x04E2      |        1250 |
|      90 | 0xFFFF4098  |  4294918296 |
|      91 | 0xFFFFFF06  |  4294967046 |
|      92 | 0xFFFF3CB0  |  4294917296 |
|      93 | 0x1A5E      |        6750 |
|      94 | 0xFFFF4A5C  |  4294920796 |
|      95 | 0x03FF      |        1023 |
|      96 | 0xFFFFD026  |  4294955046 |
|      97 | 0xFFFFFF9C  |  4294967196 |
|      98 | 0xFFFFED72  |  4294962546 |
|      99 | 0xFFFFF736  |  4294965046 |
|     100 | 0xFFFF441C  |  4294919196 |
|     101 | 0xFFFFE890  |  4294961296 |
|     102 | 0xFFFF4480  |  4294919296 |
|     103 | 0x0E92      |        3730 |
|     104 | 0xFFFFFC01  |  4294966273 |
|     105 | 0xFFFFEB7E  |  4294962046 |
|     106 | 0xFFFFF15A  |  4294963546 |
|     107 | 0xFFFFF448  |  4294964296 |
|     108 | 0x02EE      |         750 |
|     109 | 0xFFFFF060  |  4294963296 |
|     110 | 0xFFFFF34E  |  4294964046 |
|     111 | 0xFFFFF63C  |  4294964796 |
|     112 | 0xFFFFF92A  |  4294965546 |
|     113 | 0x0064      |         100 |
|     114 | 0x05DC      |        1500 |
|     115 | 0x07D0      |        2000 |
|     116 | 0x1E46      |        7750 |
|     117 | 0xFFFFDCD8  |  4294958296 |
|     118 | 0xFFFFE0C0  |  4294959296 |
|     119 | 0x1F40      |        8000 |
|     120 | 0x3553      |       13651 |
|     121 | 0x3554      |       13652 |
|     122 | 0x3555      |       13653 |
|     123 | 0x3568      |       13672 |
|     124 | 0x3558      |       13656 |
|     125 | 0x3559      |       13657 |
|     126 | 0x00FA      |         250 |
|     127 | 0x3556      |       13654 |
|     128 | 0x3557      |       13655 |
|     129 | 0x355D      |       13661 |
|     130 | 0x355A      |       13658 |
|     131 | 0x355B      |       13659 |
|     132 | 0x355C      |       13660 |
|     133 | 0xFFFF7F18  |  4294934296 |
|     134 | 0xFFFEFE30  |  4294901296 |
|     135 | 0x0BFF      |        3071 |
|     136 | 0xFFFF8CC4  |  4294937796 |
|     137 | 0xFFFF0BDC  |  4294904796 |
|     138 | 0xFFFF4D7C  |  4294921596 |
|     139 | 0xFFFF2B1C  |  4294912796 |
|     140 | 0xFFFF3EA4  |  4294917796 |
|     141 | 0xFFFFFE0C  |  4294966796 |
|     142 | 0xFFFF6F78  |  4294930296 |
|     143 | 0xFFFF0218  |  4294902296 |
|     144 | 0x0E88      |        3720 |
|     145 | 0xFFFF15A0  |  4294907296 |
|     146 | 0xFFFFFFC4  |  4294967236 |
|     147 | 0xFFFF5420  |  4294923296 |
|     148 | 0x01F4      |         500 |
|     149 | 0xFFFF6B90  |  4294929296 |
|     150 | 0xFFFF67A8  |  4294928296 |
|     151 | 0xFFFF63C0  |  4294927296 |
|     152 | 0xFFFF5FD8  |  4294926296 |
|     153 | 0xFFFF5BF0  |  4294925296 |
|     154 | 0xFFFF5808  |  4294924296 |
|     155 | 0x2328      |        9000 |
|     156 | 0x09C4      |        2500 |
|     157 | 0xFFFFD8F0  |  4294957296 |
|     158 | 0x355E      |       13662 |
|     159 | 0x355F      |       13663 |
|     160 | 0xFFFFFFCE  |  4294967246 |
|     161 | 0x0032      |          50 |
|     162 | 0x3560      |       13664 |
|     163 | 0x3561      |       13665 |
|     164 | 0xFFFFE2B4  |  4294959796 |
|     165 | 0xFFFFF830  |  4294965296 |
|     166 | 0x0088      |         136 |
|     167 | 0x3562      |       13666 |
|     168 | 0x3563      |       13667 |
|     169 | 0x00FB      |         251 |
|     170 | 0x3564      |       13668 |
|     171 | 0x3566      |       13670 |
|     172 | 0x3565      |       13669 |

## String References

- **13623**: A fair day to you, kind [sir/madam]! I am [Niscoliette/Prycillia/Chabobo], assistant to Atelloune. I suppose that makes me assistant to the assistant of his eminence, the great Professor Clavauert!
- **13624**: We have made a fascinating discovery--chocobos, just like humans, are capable of falling in love!
- **13625**: And you, my friend, come at the most fortuitous of times. How would you like to help me, erm...spur on the emotions of lovelorn chocobos?
- **13626**: Too hoo hoo, came to lend your aid once more? (More data for my thesis...splendid!)
- **13627**: Up for some chocobo matchmaking? [I'm always up for a new experience!/It'll only "breed" contempt.]
- **13628**: Splendiferous! And just so we're clear, this is all for the benefit of the chocobos. I wouldn't even THINK of using you for my own research gains!
- **13629**: Is that so? I guess winning battles of the flesh doesn't mean you can win battles of the heart. Amateur.
- **13630**: If you change your mind, you know where to find me. (<Sigh> I'll have to actually do my own research for once.)
- **13631**: So, what's the first way into someone's heart? Presents! First, you'll need to search for and "dig up" a tantalizing gift!
- **13632**: You've only got $0 tries. Remember, the more gifts you give to chocobos, the more easily they swoon. Such simple creatures.
- **13633**: Select a [row/column]. (Attempt No. $1) [No. 1./No. 2./No. 3./No. 4./No. 5./Reselect row./Abandon this endeavor.]
- **13634**: Truly let it wither on the vine? [Love. Bah./No! We must cultivate!]
- **13635**: How callous! All I wanted was to bring in dat...I mean bring darling chocobos together as soul mates!
- **13638**: The chocobo has unearthed $2!
- **13639**: $2! Way to show me how it's done! [/What a wonderful gift!/This'll make the best present ever!t]
- **13641**: You didn't find anything.
- **13642**: Why, it's like the locations of these presents change depending on the day! Hmm? "Why do I know these things?" Silly, I'm a scholar!
- **13643**: It's gotta be related to the day of the week. Call it women's intuition!
- **13644**: Oh, come on! Cupid's arrows are supposed to strike true, not go tumbling to the ground!
- **13645**: The chocobo whimpers in despair.
- **13646**: Maybe he'll perk up a bit later? Why don't you give it another go then?
- **13647**: You know what I do when I'm depressed? Eat some sweets. Maybe this poor fella just needs to eat something to cheer him up.
- **13648**: Now that we've got a present, it's time for step two!
- **13649**: Well, well, just what have you brought me? Oh, yes, this will do nicely. Our chocobo friend will be back up and kweh-ing in no time!
- **13650**: The chocobo has a special twinkle in his eye.
- **13651**: Next up: sweet nothings! Can't win the affections of the fairer sex without a silver tongue!
- **13652**: Though they may not be able to comprehend your words, the language of love is universal!
- **13653**: You've got a total of $0 chances. Think of it like speed dating! The glibber your jibe, the more they swoon!
- **13654**: The chocobo is completely smitten!
- **13655**: Absolutely perfect! You're no stranger to love, that's for sure!
- **13656**: What's this? No sweet nothings? Yes, yes, I know that true love needs no words, but when a romance is still budding, you've got to give it your all! Or...would you rather call it quits?
- **13657**: Most wondrous! Now that report of mine will be...<cough> Excuse me. What? Why are you looking at me like that? Quick, out with the magical phrase!
- **13658**: The chocobo blinks and cocks his head to one side.
- **13659**: Hmm... Maybe if you didn't beat around the bush? Try telling it like it is.
- **13660**: Maybe these baby chocobos can provide some kind of hint?
- **13661**: Now that you've found just the right words, it's time to take things to the next level!
- **13662**: According to my volumes of data, it seems [you two have a chilly relationship, but don't give up yet!/you're on the cusp of winning its heart./you two are on fire! You might as well get hitched!]
- **13663**: Speed! Luck! Come on, [hon/sweetie], love isn't a battlefield, it's a race!
- **13664**: Which route to pursue? [Route 1. [(Taken by rival.)//]/Route 2. [/(Taken by rival.)/]/Route 3. [//(Taken by rival.)]/Cast your fate to Lady Luck!/Give up...at this late stage.]
- **13665**: Route $0 has already been selected by your rival.
- **13666**: Let's get this party started!
- **13667**: Aw, you poor thing, looks like you chose the wrong path to love.
- **13668**: W-wow! What a turn of events! Love knows no bounds, as the saying goes! Just wait until the profess... I mean, uh, good going!
- **13669**: After all that hard work you did with your lovely present and those three magic words... Maybe love is all about luck and timing after all.
- **13670**: Well done! My little cupid has veritable wings sprouting from [his/her] back! The more love, the more data...dates! Dates they will go on!
- **13671**: With all you've done for me...err, the chocobos, it's only fair that I give you a little something in return. A token of my appreciation, if you will. Of course, you're welcome to come back any time!
- **13672**: STEP2_DEBUGF%0.

## Events

### Event 65535

#### Metadata

| Field        | Value   |
|--------------|---------|
| Entrypoint   | 0x0000  |
| Data Size    | 1 bytes |
| Instructions | 1       |

```
      00 01 02 03 04 05 06 07  08 09 0A 0B 0C 0D 0E 0F
      -- -- -- -- -- -- -- --  -- -- -- -- -- -- -- --
0000: 00                                                .               
```

#### Opcodes

```
  0: 0x0000 [0x00] END_REQSTACK()
```

### Event 840

#### Metadata

| Field        | Value     |
|--------------|-----------|
| Entrypoint   | 0x0001    |
| Data Size    | 564 bytes |
| Instructions | 89        |

```
      00 01 02 03 04 05 06 07  08 09 0A 0B 0C 0D 0E 0F
      -- -- -- -- -- -- -- --  -- -- -- -- -- -- -- --
0000:    03 03 10 00 80 06 01  10 02 08 10 01 80 00 39   ..............9
0010: 00 42 45 02 80 F8 FF FF  7F F8 FF FF 7F 66 64 6F  .BE..........fdo
0020: 31 03 80 55 02 80 F8 FF  FF 7F F8 FF FF 7F 66 64  1..U..........fd
0030: 6F 31 03 01 10 04 80 30  21 3E 02 10 01 80 8D 00  o1.....0!>......
0040: 42 1E F0 FF FF 7F 1C 05  80 66 06 80 F8 FF FF 7F  B........f......
0050: F8 FF FF 7F 74 6C 6B 30  1D 07 80 23 66 06 80 F8  ....tlk0...#f...
0060: FF FF 7F F8 FF FF 7F 74  6C 6B 31 66 06 80 F8 FF  .......tlk1f....
0070: FF 7F F8 FF FF 7F 70 61  73 30 53 F8 FF FF 7F F8  ......pas0S.....
0080: FF FF 7F 70 61 73 30 03  01 10 00 80 21 3E 02 10  ...pas0.....!>..
0090: 00 80 E1 00 1E F0 FF FF  7F 1C 05 80 66 06 80 F8  ............f...
00A0: FF FF 7F F8 FF FF 7F 74  6C 6B 30 1D 08 80 23 66  .......tlk0...#f
00B0: 06 80 F8 FF FF 7F F8 FF  FF 7F 74 6C 6B 31 66 06  ..........tlk1f.
00C0: 80 F8 FF FF 7F F8 FF FF  7F 74 68 6B 31 1D 09 80  .........thk1...
00D0: 23 66 06 80 F8 FF FF 7F  F8 FF FF 7F 74 68 6B 32  #f..........thk2
00E0: 21 3E 02 10 0A 80 41 01  42 1E F0 FF FF 7F 1C 05  !>....A.B.......
00F0: 80 66 06 80 F8 FF FF 7F  F8 FF FF 7F 74 6C 6B 30  .f..........tlk0
0100: 1D 0B 80 23 66 06 80 F8  FF FF 7F F8 FF FF 7F 74  ...#f..........t
0110: 6C 6B 31 1C 0C 80 45 02  80 F8 FF FF 7F F8 FF FF  lk1...E.........
0120: 7F 66 64 6F 31 03 80 55  02 80 F8 FF FF 7F F8 FF  .fdo1..U........
0130: FF 7F 66 64 6F 31 03 01  10 0A 80 30 69 01 0D 80  ..fdo1.....0i...
0140: 21 1E F0 FF FF 7F 1C 05  80 66 06 80 F8 FF FF 7F  !........f......
0150: F8 FF FF 7F 74 6C 6B 30  3E 02 10 03 80 66 01 1D  ....tlk0>....f..
0160: 0E 80 23 01 72 01 1D 0F  80 23 1D 10 80 23 1D 11  ..#.r....#...#..
0170: 80 23 66 06 80 F8 FF FF  7F F8 FF FF 7F 74 6C 6B  .#f..........tlk
0180: 31 24 12 80 03 80 03 80  25 02 00 10 03 80 00 E4  1$......%.......
0190: 01 42 66 06 80 F8 FF FF  7F F8 FF FF 7F 74 6C 6B  .Bf..........tlk
01A0: 30 1D 13 80 23 66 06 80  F8 FF FF 7F F8 FF FF 7F  0...#f..........
01B0: 74 6C 6B 31 1C 0C 80 45  02 80 F8 FF FF 7F F8 FF  tlk1...E........
01C0: FF 7F 66 64 6F 31 03 80  55 02 80 F8 FF FF 7F F8  ..fdo1..U.......
01D0: FF FF 7F 66 64 6F 31 03  01 10 01 80 69 01 0D 80  ...fdo1.....i...
01E0: 30 01 33 02 02 00 10 01  80 00 33 02 66 06 80 F8  0.3.......3.f...
01F0: FF FF 7F F8 FF FF 7F 74  68 6B 31 1D 14 80 23 66  .......thk1...#f
0200: 06 80 F8 FF FF 7F F8 FF  FF 7F 74 68 6B 32 66 06  ..........thk2f.
0210: 80 F8 FF FF 7F F8 FF FF  7F 74 6C 6B 30 1D 15 80  .........tlk0...
0220: 23 66 06 80 F8 FF FF 7F  F8 FF FF 7F 74 6C 6B 31  #f..........tlk1
0230: 01 33 02 21 00                                    .3.!.           
```

#### Opcodes

```
  0: 0x0001 [0x03] Work_Zone[3] = 2*
  1: 0x0006 [0x06] Work_Zone[1] = 0
  2: 0x0009 [0x02] IF !(Work_Zone[8] == 1*) GOTO 0x0039
  3: 0x0011 [0x42] SET_CLI_EVENT_CANCEL_DATA()
  4: 0x0012 [0x45] LOAD_SCHEDULED_TASK: Load scheduler "fdo1" with entities [EventEntity, EventEntity], work=[200*, 0*]
  5: 0x0023 [0x55] WAIT_LOAD_SCHEDULER: Wait for scheduler "fdo1" with entities [EventEntity, EventEntity], work=200*
  6: 0x0032 [0x03] Work_Zone[1] = 4*
  7: 0x0037 [0x30] SET_UCOFF_CONTINUE_ZERO()
  8: 0x0038 [0x21] END_EVENT
  9: 0x0039 [0x3E] IF !(Work_Zone[2] bit 1*) GOTO 0x008D
 10: 0x0040 [0x42] SET_CLI_EVENT_CANCEL_DATA()
 11: 0x0041 [0x1E] EventEntity looks at LocalPlayer and starts talking
 12: 0x0046 [0x1C] WAIT(30* ticks)
 13: 0x0049 [0x66] LOAD_EXT_SCHEDULER_MAIN: Load scheduler "tlk0" with entities [EventEntity, EventEntity], work=40*
 14: 0x0058 [0x1D] PRINT_EVENT_MESSAGE(message_id=13671*)
    → "With all you've done for me...err, the chocobos, it's only fair that I give you a little something in return. A token of my appreciation, if you will. Of course, you're welcome to come back any time!"
 15: 0x005B [0x23] WAIT_FOR_DIALOG_INTERACTION
 16: 0x005C [0x66] LOAD_EXT_SCHEDULER_MAIN: Load scheduler "tlk1" with entities [EventEntity, EventEntity], work=40*
 17: 0x006B [0x66] LOAD_EXT_SCHEDULER_MAIN: Load scheduler "pas0" with entities [EventEntity, EventEntity], work=40*
 18: 0x007A [0x53] WAIT_SCHEDULER_TASK: Wait for scheduler "pas0" with entities [EventEntity, EventEntity]
 19: 0x0087 [0x03] Work_Zone[1] = 2*
 20: 0x008C [0x21] END_EVENT
 21: 0x008D [0x3E] IF !(Work_Zone[2] bit 2*) GOTO 0x00E1
 22: 0x0094 [0x1E] EventEntity looks at LocalPlayer and starts talking
 23: 0x0099 [0x1C] WAIT(30* ticks)
 24: 0x009C [0x66] LOAD_EXT_SCHEDULER_MAIN: Load scheduler "tlk0" with entities [EventEntity, EventEntity], work=40*
 25: 0x00AB [0x1D] PRINT_EVENT_MESSAGE(message_id=13646*)
    → "Maybe he'll perk up a bit later? Why don't you give it another go then?"
 26: 0x00AE [0x23] WAIT_FOR_DIALOG_INTERACTION
 27: 0x00AF [0x66] LOAD_EXT_SCHEDULER_MAIN: Load scheduler "tlk1" with entities [EventEntity, EventEntity], work=40*
 28: 0x00BE [0x66] LOAD_EXT_SCHEDULER_MAIN: Load scheduler "thk1" with entities [EventEntity, EventEntity], work=40*
 29: 0x00CD [0x1D] PRINT_EVENT_MESSAGE(message_id=13647*)
    → "You know what I do when I'm depressed? Eat some sweets. Maybe this poor fella just needs to eat something to cheer him up."
 30: 0x00D0 [0x23] WAIT_FOR_DIALOG_INTERACTION
 31: 0x00D1 [0x66] LOAD_EXT_SCHEDULER_MAIN: Load scheduler "thk2" with entities [EventEntity, EventEntity], work=40*
 32: 0x00E0 [0x21] END_EVENT
 33: 0x00E1 [0x3E] IF !(Work_Zone[2] bit 3*) GOTO 0x0141
 34: 0x00E8 [0x42] SET_CLI_EVENT_CANCEL_DATA()
 35: 0x00E9 [0x1E] EventEntity looks at LocalPlayer and starts talking
 36: 0x00EE [0x1C] WAIT(30* ticks)
 37: 0x00F1 [0x66] LOAD_EXT_SCHEDULER_MAIN: Load scheduler "tlk0" with entities [EventEntity, EventEntity], work=40*
 38: 0x0100 [0x1D] PRINT_EVENT_MESSAGE(message_id=13649*)
    → "Well, well, just what have you brought me? Oh, yes, this will do nicely. Our chocobo friend will be back up and kweh-ing in no time!"
 39: 0x0103 [0x23] WAIT_FOR_DIALOG_INTERACTION
 40: 0x0104 [0x66] LOAD_EXT_SCHEDULER_MAIN: Load scheduler "tlk1" with entities [EventEntity, EventEntity], work=40*
 41: 0x0113 [0x1C] WAIT(60* ticks)
 42: 0x0116 [0x45] LOAD_SCHEDULED_TASK: Load scheduler "fdo1" with entities [EventEntity, EventEntity], work=[200*, 0*]
 43: 0x0127 [0x55] WAIT_LOAD_SCHEDULER: Wait for scheduler "fdo1" with entities [EventEntity, EventEntity], work=200*
 44: 0x0136 [0x03] Work_Zone[1] = 3*
 45: 0x013B [0x30] SET_UCOFF_CONTINUE_ZERO()
 46: 0x013C [0x69] SET_SOUND_VOLUME: Mute Effects/Zone/Master
 47: 0x0140 [0x21] END_EVENT
 48: 0x0141 [0x1E] EventEntity looks at LocalPlayer and starts talking
 49: 0x0146 [0x1C] WAIT(30* ticks)
 50: 0x0149 [0x66] LOAD_EXT_SCHEDULER_MAIN: Load scheduler "tlk0" with entities [EventEntity, EventEntity], work=40*
 51: 0x0158 [0x3E] IF !(Work_Zone[2] bit 0*) GOTO 0x0166
 52: 0x015F [0x1D] PRINT_EVENT_MESSAGE(message_id=13626*)
    → "Too hoo hoo, came to lend your aid once more? (More data for my thesis...splendid!)"
 53: 0x0162 [0x23] WAIT_FOR_DIALOG_INTERACTION
 54: 0x0163 [0x01] GOTO 0x0172
 55: 0x0166 [0x1D] PRINT_EVENT_MESSAGE(message_id=13623*)
    → "A fair day to you, kind [sir/madam]! I am [Niscoliette/Prycillia/Chabobo], assistant to Atelloune. I suppose that makes me assistant to the assistant of his eminence, the great Professor Clavauert!"
 56: 0x0169 [0x23] WAIT_FOR_DIALOG_INTERACTION
 57: 0x016A [0x1D] PRINT_EVENT_MESSAGE(message_id=13624*)
    → "We have made a fascinating discovery--chocobos, just like humans, are capable of falling in love!"
 58: 0x016D [0x23] WAIT_FOR_DIALOG_INTERACTION
 59: 0x016E [0x1D] PRINT_EVENT_MESSAGE(message_id=13625*)
    → "And you, my friend, come at the most fortuitous of times. How would you like to help me, erm...spur on the emotions of lovelorn chocobos?"
 60: 0x0171 [0x23] WAIT_FOR_DIALOG_INTERACTION

SUBROUTINE_0172:
 61: 0x0172 [0x66] LOAD_EXT_SCHEDULER_MAIN: Load scheduler "tlk1" with entities [EventEntity, EventEntity], work=40*
 62: 0x0181 [0x24] CREATE_DIALOG(message_id=13627*, default_option=0*, option_flags=0*)
    → "Up for some chocobo matchmaking? [I'm always up for a new experience!/It'll only "breed" contempt.]"
 63: 0x0188 [0x25] WAIT_DIALOG_SELECT()
 64: 0x0189 [0x02] IF !(Work_Zone[0] == 0*) GOTO 0x01E4
 65: 0x0191 [0x42] SET_CLI_EVENT_CANCEL_DATA()
 66: 0x0192 [0x66] LOAD_EXT_SCHEDULER_MAIN: Load scheduler "tlk0" with entities [EventEntity, EventEntity], work=40*
 67: 0x01A1 [0x1D] PRINT_EVENT_MESSAGE(message_id=13628*)
    → "Splendiferous! And just so we're clear, this is all for the benefit of the chocobos. I wouldn't even THINK of using you for my own research gains!"
 68: 0x01A4 [0x23] WAIT_FOR_DIALOG_INTERACTION
 69: 0x01A5 [0x66] LOAD_EXT_SCHEDULER_MAIN: Load scheduler "tlk1" with entities [EventEntity, EventEntity], work=40*
 70: 0x01B4 [0x1C] WAIT(60* ticks)
 71: 0x01B7 [0x45] LOAD_SCHEDULED_TASK: Load scheduler "fdo1" with entities [EventEntity, EventEntity], work=[200*, 0*]
 72: 0x01C8 [0x55] WAIT_LOAD_SCHEDULER: Wait for scheduler "fdo1" with entities [EventEntity, EventEntity], work=200*
 73: 0x01D7 [0x03] Work_Zone[1] = 1*
 74: 0x01DC [0x69] SET_SOUND_VOLUME: Mute Effects/Zone/Master
 75: 0x01E0 [0x30] SET_UCOFF_CONTINUE_ZERO()
 76: 0x01E1 [0x01] GOTO 0x0233
 77: 0x01E4 [0x02] IF !(Work_Zone[0] == 1*) GOTO 0x0233
 78: 0x01EC [0x66] LOAD_EXT_SCHEDULER_MAIN: Load scheduler "thk1" with entities [EventEntity, EventEntity], work=40*
 79: 0x01FB [0x1D] PRINT_EVENT_MESSAGE(message_id=13629*)
    → "Is that so? I guess winning battles of the flesh doesn't mean you can win battles of the heart. Amateur."
 80: 0x01FE [0x23] WAIT_FOR_DIALOG_INTERACTION
 81: 0x01FF [0x66] LOAD_EXT_SCHEDULER_MAIN: Load scheduler "thk2" with entities [EventEntity, EventEntity], work=40*
 82: 0x020E [0x66] LOAD_EXT_SCHEDULER_MAIN: Load scheduler "tlk0" with entities [EventEntity, EventEntity], work=40*
 83: 0x021D [0x1D] PRINT_EVENT_MESSAGE(message_id=13630*)
    → "If you change your mind, you know where to find me. (<Sigh> I'll have to actually do my own research for once.)"
 84: 0x0220 [0x23] WAIT_FOR_DIALOG_INTERACTION
 85: 0x0221 [0x66] LOAD_EXT_SCHEDULER_MAIN: Load scheduler "tlk1" with entities [EventEntity, EventEntity], work=40*
 86: 0x0230 [0x01] GOTO 0x0233

SUBROUTINE_0233:
 87: 0x0233 [0x21] END_EVENT
 88: 0x0234 [0x00] END_REQSTACK()
```

### Event 841

#### Metadata

| Field        | Value      |
|--------------|------------|
| Entrypoint   | 0x0235     |
| Data Size    | 3531 bytes |
| Instructions | 510        |

```
      00 01 02 03 04 05 06 07  08 09 0A 0B 0C 0D 0E 0F
      -- -- -- -- -- -- -- --  -- -- -- -- -- -- -- --
0230:                42 69 00  0D 80 03 12 00 08 10 03       Bi.........
0240: 0E 00 80 7F 03 0F 00 82  7F 03 10 00 81 7F 03 11  ................
0250: 00 83 7F 06 01 10 92 01  F8 FF FF 7F 46 01 38 16  ............F.8.
0260: 80 77 17 80 03 80 37 18  80 19 80 1A 80 1B 80 1E  .w....7.........
0270: F8 FF FF 7F 2F 00 14 11  0F 01 4E 00 14 11 0F 01  ..../.....N.....
0280: 28 80 14 11 0F 01 04 BA  14 11 0F 01 1C 80 1D 80  (...............
0290: 1A 80 1E 80 2F 00 19 11  0F 01 4E 00 19 11 0F 01  ..../.....N.....
02A0: 2F 00 1A 11 0F 01 4E 00  1A 11 0F 01 2F 00 1B 11  /.....N...../...
02B0: 0F 01 4E 00 1B 11 0F 01  2F 00 1C 11 0F 01 4E 00  ..N...../.....N.
02C0: 1C 11 0F 01 2F 00 1D 11  0F 01 4E 00 1D 11 0F 01  ..../.....N.....
02D0: 2F 00 1E 11 0F 01 4E 00  1E 11 0F 01 2F 00 1F 11  /.....N...../...
02E0: 0F 01 4E 00 1F 11 0F 01  2F 00 20 11 0F 01 4E 00  ..N...../. ...N.
02F0: 20 11 0F 01 2F 00 21 11  0F 01 4E 00 21 11 0F 01   .../.!...N.!...
0300: 2F 00 22 11 0F 01 4E 00  22 11 0F 01 2F 00 23 11  /."...N.".../.#.
0310: 0F 01 4E 00 23 11 0F 01  2F 00 24 11 0F 01 4E 00  ..N.#.../.$...N.
0320: 24 11 0F 01 2F 00 25 11  0F 01 4E 00 25 11 0F 01  $.../.%...N.%...
0330: 2F 00 26 11 0F 01 4E 00  26 11 0F 01 2F 00 27 11  /.&...N.&.../.'.
0340: 0F 01 4E 00 27 11 0F 01  2F 00 28 11 0F 01 4E 00  ..N.'.../.(...N.
0350: 28 11 0F 01 2F 00 29 11  0F 01 4E 00 29 11 0F 01  (.../.)...N.)...
0360: 2F 00 2A 11 0F 01 4E 00  2A 11 0F 01 2F 00 2B 11  /.*...N.*.../.+.
0370: 0F 01 4E 00 2B 11 0F 01  2F 00 2C 11 0F 01 4E 00  ..N.+.../.,...N.
0380: 2C 11 0F 01 2F 00 2D 11  0F 01 4E 00 2D 11 0F 01  ,.../.-...N.-...
0390: 2F 00 2E 11 0F 01 4E 00  2E 11 0F 01 2F 00 2F 11  /.....N....././.
03A0: 0F 01 4E 00 2F 11 0F 01  2F 00 30 11 0F 01 4E 00  ..N./.../.0...N.
03B0: 30 11 0F 01 2F 00 31 11  0F 01 4E 00 31 11 0F 01  0.../.1...N.1...
03C0: 29 80 19 11 0F 01 04 29  80 1A 11 0F 01 04 29 80  )......)......).
03D0: 1B 11 0F 01 04 29 80 1C  11 0F 01 04 29 80 1D 11  .....)......)...
03E0: 0F 01 04 29 80 1E 11 0F  01 04 BA F0 FF FF 7F 18  ...)............
03F0: 80 1F 80 1A 80 1B 80 45  20 80 F8 FF FF 7F F8 FF  .......E .......
0400: FF 7F 73 30 31 32 03 80  1C 05 80 02 12 00 01 80  ..s012..........
0410: 00 16 04 01 1F 04 5C 00  21 80 5C 01 21 80 9A 45  ......\.!.\.!..E
0420: 02 80 F8 FF FF 7F F8 FF  FF 7F 66 64 69 31 03 80  ..........fdi1..
0430: 55 02 80 F8 FF FF 7F F8  FF FF 7F 66 64 69 30 1C  U..........fdi0.
0440: 0C 80 06 05 00 03 06 00  18 80 03 09 00 1B 80 07  ................
0450: 06 00 22 80 1F 00 06 00  19 80 1A 80 1F 01 39 09  .."...........9.
0460: 00 03 00 17 18 80 07 00  17 22 80 03 01 17 1F 80  ........."......
0470: 03 02 17 1A 80 03 03 17  1B 80 28 80 F0 FF FF 7F  ..........(.....
0480: 72 03 0A 00 1C 80 07 0A  00 23 80 03 00 17 0A 00  r........#......
0490: 03 01 17 1D 80 03 02 17  1A 80 29 80 14 11 0F 01  ..........).....
04A0: 05 1C 0C 80 3E 02 10 0A  80 C8 04 AD 00 24 80 F8  ....>........$..
04B0: FF FF 7F 14 11 0F 01 1C  25 80 28 80 14 11 0F 01  ........%.(.....
04C0: 07 48 26 80 23 01 CF 04  28 80 14 11 0F 01 07 1C  .H&.#...(.......
04D0: 27 80 07 09 00 28 80 39  09 00 6F 70 66 06 80 F8  '....(.9..opf...
04E0: FF FF 7F F8 FF FF 7F 74  6C 6B 30 1D 29 80 23 03  .......tlk0.).#.
04F0: 02 10 0A 80 1D 2A 80 23  66 06 80 F8 FF FF 7F F8  .....*.#f.......
0500: FF FF 7F 74 6C 6B 31 03  03 10 03 80 06 03 00 06  ...tlk1.........
0510: 04 00 03 03 17 0D 00 1C  05 80 03 02 00 2B 80 03  .............+..
0520: 02 10 03 80 0B 03 10 24  2C 80 03 80 02 00 25 02  .......$,.....%.
0530: 00 10 03 80 00 3F 05 03  03 00 03 80 01 58 06 02  .....?.......X..
0540: 00 10 01 80 00 4F 05 03  03 00 01 80 01 58 06 02  .....O.......X..
0550: 00 10 00 80 00 5F 05 03  03 00 00 80 01 58 06 02  ....._.......X..
0560: 00 10 0A 80 00 6F 05 03  03 00 0A 80 01 58 06 02  .....o.......X..
0570: 00 10 04 80 00 7F 05 03  03 00 04 80 01 58 06 02  .............X..
0580: 00 10 2D 80 00 8A 05 01  58 06 02 00 10 2E 80 00  ..-.....X.......
0590: 58 06 24 2F 80 01 80 03  80 25 02 00 10 03 80 00  X.$/.....%......
05A0: 44 06 66 06 80 F8 FF FF  7F F8 FF FF 7F 64 69 73  D.f..........dis
05B0: 30 1D 30 80 23 45 02 80  F8 FF FF 7F F8 FF FF 7F  0.0.#E..........
05C0: 66 64 6F 31 03 80 55 02  80 F8 FF FF 7F F8 FF FF  fdo1..U.........
05D0: 7F 66 64 6F 31 BA F0 FF  FF 7F 0E 00 0F 00 10 00  .fdo1...........
05E0: 11 00 5C 00 31 80 5C 01  31 80 52 20 80 F8 FF FF  ..\.1.\.1.R ....
05F0: 7F F8 FF FF 7F 73 30 31  32 37 32 80 33 80 34 80  .....s01272.3.4.
0600: 03 80 1E F0 FF FF 7F 6F  70 78 38 03 80 46 00 45  .......opx8..F.E
0610: 02 80 F8 FF FF 7F F8 FF  FF 7F 66 64 69 31 03 80  ..........fdi1..
0620: 55 02 80 F8 FF FF 7F F8  FF FF 7F 66 64 69 30 1C  U..........fdi0.
0630: 0C 80 02 12 00 01 80 00  3B 06 21 03 01 10 0A 80  ........;.!.....
0640: 21 01 55 06 02 00 10 01  80 00 55 06 0C 03 10 01  !.U.......U.....
0650: 17 05 01 55 06 01 58 06  1C 05 80 03 00 00 03 00  ...U..X.........
0660: 14 00 00 2D 80 07 00 00  04 00 1A 0B 0E 6F 76 F0  ...-.........ov.
0670: FF FF 7F 6E F0 FF FF 7F  03 80 99 F0 FF FF 7F 59  ...n...........Y
0680: 06 F0 FF FF 7F 1C 25 80  03 0B 00 1D 80 03 00 00  ......%.........
0690: 35 80 14 00 00 03 00 07  0B 00 00 00 03 00 17 0A  5...............
06A0: 00 03 01 17 0B 00 29 80  14 11 0F 01 05 29 80 14  ......)......)..
06B0: 11 0F 01 06 1C 0C 80 03  02 00 03 80 03 02 10 01  ................
06C0: 80 24 2C 80 03 80 02 00  25 02 00 10 03 80 00 D9  .$,.....%.......
06D0: 06 03 04 00 03 80 01 FA  07 02 00 10 01 80 00 E9  ................
06E0: 06 03 04 00 01 80 01 FA  07 02 00 10 00 80 00 F9  ................
06F0: 06 03 04 00 00 80 01 FA  07 02 00 10 0A 80 00 09  ................
0700: 07 03 04 00 0A 80 01 FA  07 02 00 10 04 80 00 19  ................
0710: 07 03 04 00 04 80 01 FA  07 02 00 10 2D 80 00 2F  ............-../
0720: 07 03 03 00 03 80 0C 03  10 01 17 05 01 FA 07 02  ................
0730: 00 10 2E 80 00 FA 07 24  2F 80 01 80 03 80 25 02  .......$/.....%.
0740: 00 10 03 80 00 E9 07 66  06 80 F8 FF FF 7F F8 FF  .......f........
0750: FF 7F 64 69 73 30 1D 30  80 23 45 02 80 F8 FF FF  ..dis0.0.#E.....
0760: 7F F8 FF FF 7F 66 64 6F  31 03 80 55 02 80 F8 FF  .....fdo1..U....
0770: FF 7F F8 FF FF 7F 66 64  6F 31 BA F0 FF FF 7F 0E  ......fdo1......
0780: 00 0F 00 10 00 11 00 5C  00 31 80 5C 01 31 80 52  .......\.1.\.1.R
0790: 20 80 F8 FF FF 7F F8 FF  FF 7F 73 30 31 32 37 32   .........s01272
07A0: 80 33 80 34 80 03 80 1E  F0 FF FF 7F 6F 70 78 38  .3.4........opx8
07B0: 03 80 46 00 45 02 80 F8  FF FF 7F F8 FF FF 7F 66  ..F.E..........f
07C0: 64 69 31 03 80 55 02 80  F8 FF FF 7F F8 FF FF 7F  di1..U..........
07D0: 66 64 69 30 1C 0C 80 02  12 00 01 80 00 E0 07 21  fdi0...........!
07E0: 03 01 10 0A 80 21 01 F7  07 02 00 10 01 80 00 F7  .....!..........
07F0: 07 01 B7 06 01 F7 07 01  FA 07 40 03 80 0A 80 01  ..........@.....
0800: 10 03 80 03 00 00 03 00  14 00 00 2D 80 07 00 00  ...........-....
0810: 04 00 40 04 80 36 80 01  10 00 00 1A 0B 0E 6F 76  ..@..6........ov
0820: F0 FF FF 7F 6E F0 FF FF  7F 37 80 99 F0 FF FF 7F  ....n....7......
0830: 59 06 F0 FF FF 7F 1C 25  80 03 0A 00 1C 80 07 0A  Y......%........
0840: 00 23 80 03 00 00 38 80  14 00 00 04 00 07 0A 00  .#....8.........
0850: 00 00 03 00 17 0A 00 29  80 14 11 0F 01 05 29 80  .......)......).
0860: 14 11 0F 01 06 1C 0C 80  5B 39 80 14 11 0F 01 14  ........[9......
0870: 11 0F 01 74 6F 6E 30 53  14 11 0F 01 14 11 0F 01  ...ton0S........
0880: 74 6F 6E 30 5B 39 80 14  11 0F 01 14 11 0F 01 74  ton0[9.........t
0890: 6F 6E 31 1C 0C 80 41 04  80 36 80 01 10 00 00 02  on1...A..6......
08A0: 00 00 03 80 80 B7 08 2C  19 11 0F 01 19 11 0F 01  .......,........
08B0: 6B 65 73 75 01 F7 0A 02  00 00 01 80 80 CF 08 2C  kesu...........,
08C0: 1A 11 0F 01 1A 11 0F 01  6B 65 73 75 01 F7 0A 02  ........kesu....
08D0: 00 00 00 80 80 E7 08 2C  1B 11 0F 01 1B 11 0F 01  .......,........
08E0: 6B 65 73 75 01 F7 0A 02  00 00 0A 80 80 FF 08 2C  kesu...........,
08F0: 1C 11 0F 01 1C 11 0F 01  6B 65 73 75 01 F7 0A 02  ........kesu....
0900: 00 00 04 80 80 17 09 2C  1D 11 0F 01 1D 11 0F 01  .......,........
0910: 6B 65 73 75 01 F7 0A 02  00 00 2D 80 80 2F 09 2C  kesu......-../.,
0920: 1E 11 0F 01 1E 11 0F 01  6B 65 73 75 01 F7 0A 02  ........kesu....
0930: 00 00 2E 80 80 47 09 2C  1F 11 0F 01 1F 11 0F 01  .....G.,........
0940: 6B 65 73 75 01 F7 0A 02  00 00 3A 80 80 5F 09 2C  kesu......:.._.,
0950: 20 11 0F 01 20 11 0F 01  6B 65 73 75 01 F7 0A 02   ... ...kesu....
0960: 00 00 36 80 80 77 09 2C  21 11 0F 01 21 11 0F 01  ..6..w.,!...!...
0970: 6B 65 73 75 01 F7 0A 02  00 00 3B 80 80 8F 09 2C  kesu......;....,
0980: 22 11 0F 01 22 11 0F 01  6B 65 73 75 01 F7 0A 02  "..."...kesu....
0990: 00 00 3C 80 80 A7 09 2C  23 11 0F 01 23 11 0F 01  ..<....,#...#...
09A0: 6B 65 73 75 01 F7 0A 02  00 00 3D 80 80 BF 09 2C  kesu......=....,
09B0: 24 11 0F 01 24 11 0F 01  6B 65 73 75 01 F7 0A 02  $...$...kesu....
09C0: 00 00 3E 80 80 D7 09 2C  25 11 0F 01 25 11 0F 01  ..>....,%...%...
09D0: 6B 65 73 75 01 F7 0A 02  00 00 3F 80 80 EF 09 2C  kesu......?....,
09E0: 26 11 0F 01 26 11 0F 01  6B 65 73 75 01 F7 0A 02  &...&...kesu....
09F0: 00 00 40 80 80 07 0A 2C  27 11 0F 01 27 11 0F 01  ..@....,'...'...
0A00: 6B 65 73 75 01 F7 0A 02  00 00 17 80 80 1F 0A 2C  kesu...........,
0A10: 28 11 0F 01 28 11 0F 01  6B 65 73 75 01 F7 0A 02  (...(...kesu....
0A20: 00 00 37 80 80 37 0A 2C  29 11 0F 01 29 11 0F 01  ..7..7.,)...)...
0A30: 6B 65 73 75 01 F7 0A 02  00 00 41 80 80 4F 0A 2C  kesu......A..O.,
0A40: 2A 11 0F 01 2A 11 0F 01  6B 65 73 75 01 F7 0A 02  *...*...kesu....
0A50: 00 00 42 80 80 67 0A 2C  2B 11 0F 01 2B 11 0F 01  ..B..g.,+...+...
0A60: 6B 65 73 75 01 F7 0A 02  00 00 43 80 80 7F 0A 2C  kesu......C....,
0A70: 2C 11 0F 01 2C 11 0F 01  6B 65 73 75 01 F7 0A 02  ,...,...kesu....
0A80: 00 00 44 80 80 97 0A 2C  2D 11 0F 01 2D 11 0F 01  ..D....,-...-...
0A90: 6B 65 73 75 01 F7 0A 02  00 00 45 80 80 AF 0A 2C  kesu......E....,
0AA0: 2E 11 0F 01 2E 11 0F 01  6B 65 73 75 01 F7 0A 02  ........kesu....
0AB0: 00 00 46 80 80 C7 0A 2C  2F 11 0F 01 2F 11 0F 01  ..F....,/.../...
0AC0: 6B 65 73 75 01 F7 0A 02  00 00 47 80 80 DF 0A 2C  kesu......G....,
0AD0: 30 11 0F 01 30 11 0F 01  6B 65 73 75 01 F7 0A 02  0...0...kesu....
0AE0: 00 00 48 80 80 F7 0A 2C  31 11 0F 01 31 11 0F 01  ..H....,1...1...
0AF0: 6B 65 73 75 01 F7 0A 43  00 43 01 02 02 10 03 80  kesu...C.C......
0B00: 80 F6 0B 0B 05 00 2B 14  11 0F 01 49 80 23 48 4A  ......+....I.#HJ
0B10: 80 23 1C 0C 80 02 05 00  01 80 80 42 0B 66 06 80  .#.........B.f..
0B20: F8 FF FF 7F F8 FF FF 7F  74 68 6B 31 1D 4B 80 23  ........thk1.K.#
0B30: 66 06 80 F8 FF FF 7F F8  FF FF 7F 74 68 6B 32 01  f..........thk2.
0B40: F3 0B 02 05 00 00 80 80  6F 0B 66 06 80 F8 FF FF  ........o.f.....
0B50: 7F F8 FF FF 7F 74 68 6B  31 1D 4C 80 23 66 06 80  .....thk1.L.#f..
0B60: F8 FF FF 7F F8 FF FF 7F  74 68 6B 32 01 F3 0B 02  ........thk2....
0B70: 05 00 0A 80 80 F3 0B 66  06 80 F8 FF FF 7F F8 FF  .......f........
0B80: FF 7F 64 69 73 30 1D 4D  80 23 6E F0 FF FF 7F 43  ..dis0.M.#n....C
0B90: 80 99 F0 FF FF 7F 99 F0  FF FF 7F 28 80 14 11 0F  ...........(....
0BA0: 01 09 48 4E 80 23 1C 0C  80 66 06 80 F8 FF FF 7F  ..HN.#...f......
0BB0: F8 FF FF 7F 74 6C 6B 30  1D 08 80 23 66 06 80 F8  ....tlk0...#f...
0BC0: FF FF 7F F8 FF FF 7F 74  6C 6B 31 66 06 80 F8 FF  .......tlk1f....
0BD0: FF 7F F8 FF FF 7F 74 68  6B 31 1D 09 80 23 66 06  ......thk1...#f.
0BE0: 80 F8 FF FF 7F F8 FF FF  7F 74 68 6B 32 1C 0C 80  .........thk2...
0BF0: 01 F3 0B 01 F4 0C 02 02  10 01 80 80 7D 0C 28 80  ............}.(.
0C00: 14 11 0F 01 07 2B 14 11  0F 01 4F 80 23 1C 0C 80  .....+....O.#...
0C10: 13 00 00 00 80 02 00 00  03 80 80 25 0C 03 04 10  ...........%....
0C20: 50 80 01 45 0C 02 00 00  01 80 80 35 0C 03 04 10  P..E.......5....
0C30: 51 80 01 45 0C 02 00 00  00 80 80 45 0C 03 04 10  Q..E.......E....
0C40: 52 80 01 45 0C 48 53 80  23 6E F8 FF FF 7F 3F 80  R..E.HS.#n....?.
0C50: 99 F8 FF FF 7F 1C 25 80  66 06 80 F8 FF FF 7F F8  ......%.f.......
0C60: FF FF 7F 74 6C 6B 30 1D  54 80 23 66 06 80 F8 FF  ...tlk0.T.#f....
0C70: FF 7F F8 FF FF 7F 74 6C  6B 31 01 F4 0C 02 02 10  ......tlk1......
0C80: 00 80 80 F4 0C 28 80 14  11 0F 01 07 2B 14 11 0F  .....(......+...
0C90: 01 55 80 23 1C 0C 80 13  00 00 01 80 02 00 00 03  .U.#............
0CA0: 80 80 AC 0C 03 04 10 56  80 01 BC 0C 02 00 00 01  .......V........
0CB0: 80 80 BC 0C 03 04 10 57  80 01 BC 0C 48 53 80 23  .......W....HS.#
0CC0: 6E F8 FF FF 7F 3D 80 99  F8 FF FF 7F 1C 25 80 66  n....=.......%.f
0CD0: 06 80 F8 FF FF 7F F8 FF  FF 7F 74 6C 6B 30 1D 54  ..........tlk0.T
0CE0: 80 23 66 06 80 F8 FF FF  7F F8 FF FF 7F 74 6C 6B  .#f..........tlk
0CF0: 31 01 F4 0C 02 03 10 0A  80 04 07 0E 02 04 10 03  1...............
0D00: 80 02 78 0D 66 06 80 F8  FF FF 7F F8 FF FF 7F 74  ..x.f..........t
0D10: 6C 6B 30 1D 58 80 23 66  06 80 F8 FF FF 7F F8 FF  lk0.X.#f........
0D20: FF 7F 74 6C 6B 31 6E F0  FF FF 7F 3D 80 99 F0 FF  ..tlk1n....=....
0D30: FF 7F 99 F0 FF FF 7F 28  80 14 11 0F 01 07 1C 27  .......(.......'
0D40: 80 02 12 00 01 80 00 4A  0D 21 45 02 80 F8 FF FF  .......J.!E.....
0D50: 7F F8 FF FF 7F 66 64 6F  31 03 80 55 02 80 F8 FF  .....fdo1..U....
0D60: FF 7F F8 FF FF 7F 66 64  6F 31 03 01 10 00 80 30  ......fdo1.....0
0D70: 69 01 0D 80 21 01 04 0E  45 02 80 F8 FF FF 7F F8  i...!...E.......
0D80: FF FF 7F 66 64 6F 31 03  80 55 02 80 F8 FF FF 7F  ...fdo1..U......
0D90: F8 FF FF 7F 66 64 6F 31  BA F0 FF FF 7F 0E 00 0F  ....fdo1........
0DA0: 00 10 00 11 00 5C 00 31  80 5C 01 31 80 52 20 80  .....\.1.\.1.R .
0DB0: F8 FF FF 7F F8 FF FF 7F  73 30 31 32 37 32 80 33  ........s01272.3
0DC0: 80 34 80 03 80 1E F0 FF  FF 7F 6F 70 78 38 03 80  .4........opx8..
0DD0: 46 00 45 02 80 F8 FF FF  7F F8 FF FF 7F 66 64 69  F.E..........fdi
0DE0: 31 03 80 55 02 80 F8 FF  FF 7F F8 FF FF 7F 66 64  1..U..........fd
0DF0: 69 30 1C 0C 80 02 12 00  01 80 00 FE 0D 21 03 01  i0...........!..
0E00: 10 01 80 21 01 0A 0E 01  17 05 00 02 00 00 03 80  ...!............
0E10: 80 1F 0E 4A F0 FF FF 7F  19 11 0F 01 01 FF 0F 02  ...J............
0E20: 00 00 01 80 80 33 0E 4A  F0 FF FF 7F 1A 11 0F 01  .....3.J........
0E30: 01 FF 0F 02 00 00 00 80  80 47 0E 4A F0 FF FF 7F  .........G.J....
0E40: 1B 11 0F 01 01 FF 0F 02  00 00 0A 80 80 5B 0E 4A  .............[.J
0E50: F0 FF FF 7F 1C 11 0F 01  01 FF 0F 02 00 00 04 80  ................
0E60: 80 6F 0E 4A F0 FF FF 7F  1D 11 0F 01 01 FF 0F 02  .o.J............
0E70: 00 00 2D 80 80 83 0E 4A  F0 FF FF 7F 1E 11 0F 01  ..-....J........
0E80: 01 FF 0F 02 00 00 2E 80  80 97 0E 4A F0 FF FF 7F  ...........J....
0E90: 1F 11 0F 01 01 FF 0F 02  00 00 3A 80 80 AB 0E 4A  ..........:....J
0EA0: F0 FF FF 7F 20 11 0F 01  01 FF 0F 02 00 00 36 80  .... .........6.
0EB0: 80 BF 0E 4A F0 FF FF 7F  21 11 0F 01 01 FF 0F 02  ...J....!.......
0EC0: 00 00 3B 80 80 D3 0E 4A  F0 FF FF 7F 22 11 0F 01  ..;....J...."...
0ED0: 01 FF 0F 02 00 00 3C 80  80 E7 0E 4A F0 FF FF 7F  ......<....J....
0EE0: 23 11 0F 01 01 FF 0F 02  00 00 3D 80 80 FB 0E 4A  #.........=....J
0EF0: F0 FF FF 7F 24 11 0F 01  01 FF 0F 02 00 00 3E 80  ....$.........>.
0F00: 80 0F 0F 4A F0 FF FF 7F  25 11 0F 01 01 FF 0F 02  ...J....%.......
0F10: 00 00 3F 80 80 23 0F 4A  F0 FF FF 7F 26 11 0F 01  ..?..#.J....&...
0F20: 01 FF 0F 02 00 00 40 80  80 37 0F 4A F0 FF FF 7F  ......@..7.J....
0F30: 27 11 0F 01 01 FF 0F 02  00 00 17 80 80 4B 0F 4A  '............K.J
0F40: F0 FF FF 7F 28 11 0F 01  01 FF 0F 02 00 00 37 80  ....(.........7.
0F50: 80 5F 0F 4A F0 FF FF 7F  29 11 0F 01 01 FF 0F 02  ._.J....).......
0F60: 00 00 41 80 80 73 0F 4A  F0 FF FF 7F 2A 11 0F 01  ..A..s.J....*...
0F70: 01 FF 0F 02 00 00 42 80  80 87 0F 4A F0 FF FF 7F  ......B....J....
0F80: 2B 11 0F 01 01 FF 0F 02  00 00 43 80 80 9B 0F 4A  +.........C....J
0F90: F0 FF FF 7F 2C 11 0F 01  01 FF 0F 02 00 00 44 80  ....,.........D.
0FA0: 80 AF 0F 4A F0 FF FF 7F  2D 11 0F 01 01 FF 0F 02  ...J....-.......
0FB0: 00 00 45 80 80 C3 0F 4A  F0 FF FF 7F 2E 11 0F 01  ..E....J........
0FC0: 01 FF 0F 02 00 00 46 80  80 D7 0F 4A F0 FF FF 7F  ......F....J....
0FD0: 2F 11 0F 01 01 FF 0F 02  00 00 47 80 80 EB 0F 4A  /.........G....J
0FE0: F0 FF FF 7F 30 11 0F 01  01 FF 0F 02 00 00 48 80  ....0.........H.
0FF0: 80 FF 0F 4A F0 FF FF 7F  31 11 0F 01 01 FF 0F 1B  ...J....1.......
```

#### Opcodes

```
  0: 0x0235 [0x42] SET_CLI_EVENT_CANCEL_DATA()
  1: 0x0236 [0x69] SET_SOUND_VOLUME: Unmute Effects/Zone/Master
  2: 0x023A [0x03] ExtData[1]->WorkLocal[18] = Work_Zone[8]
  3: 0x023F [0x03] ExtData[1]->WorkLocal[14] = LocalPlayer->LocalPosition.LocalX * 1000.0
  4: 0x0244 [0x03] ExtData[1]->WorkLocal[15] = LocalPlayer->LocalPosition.LocalY * 1000.0
  5: 0x0249 [0x03] ExtData[1]->WorkLocal[16] = LocalPlayer->LocalPosition.LocalZ * 1000.0
  6: 0x024E [0x03] ExtData[1]->WorkLocal[17] = enDirCli(LocalPlayer->LocalPosition.Unknown0000) * 4096.0 * 0.15915963
  7: 0x0253 [0x06] Work_Zone[1] = 0
  8: 0x0256 [0x92] EventEntity->Render.Flags3 ^= 0x01
  9: 0x025C [0x46] CAMERA_CONTROL: Disable user control
 10: 0x025E [0x38] SET_CLIENT_EVENT_MODE(mode=27*)
 11: 0x0261 [0x77] SET_EVENT_TIME_WEATHER(hour=15*, weather=0*)
 12: 0x0266 [0x37] UPDATE_EVENT_POSITION_AND_DIR: x=-21.500*, z=-51.000*, y=3.000*, direction=179.9°*
 13: 0x026F [0x1E] EventEntity looks at EventEntity and starts talking
 14: 0x0274 [0x2F] Chocobo (ID: 17764628/0x010F1114)->Render.Flags0 &= ~0x80000 // Bit 19
 15: 0x027A [0x4E] SET_ENTITY_HIDE_FLAG: Show Chocobo (ID: 17764628/0x010F1114)
 16: 0x0280 [0x28] REQ_SET_WITH_CONDITIONS(priority=0x80, target_entity=Chocobo (ID: 17764628/0x010F1114), tag_num=0x04)
 17: 0x0287 [0xBA] SET_ENTITY_POSITION(entity_id=Chocobo (ID: 17764628/0x010F1114), pos_x=-40.200*, pos_z=-50.200*, pos_y=3.000*, direction=359.9°*)
 18: 0x0294 [0x2F] Q (ID: 17764633/0x010F1119)->Render.Flags0 &= ~0x80000 // Bit 19
 19: 0x029A [0x4E] SET_ENTITY_HIDE_FLAG: Show Q (ID: 17764633/0x010F1119)
 20: 0x02A0 [0x2F] W (ID: 17764634/0x010F111A)->Render.Flags0 &= ~0x80000 // Bit 19
 21: 0x02A6 [0x4E] SET_ENTITY_HIDE_FLAG: Show W (ID: 17764634/0x010F111A)
 22: 0x02AC [0x2F] R (ID: 17764635/0x010F111B)->Render.Flags0 &= ~0x80000 // Bit 19
 23: 0x02B2 [0x4E] SET_ENTITY_HIDE_FLAG: Show R (ID: 17764635/0x010F111B)
 24: 0x02B8 [0x2F] T (ID: 17764636/0x010F111C)->Render.Flags0 &= ~0x80000 // Bit 19
 25: 0x02BE [0x4E] SET_ENTITY_HIDE_FLAG: Show T (ID: 17764636/0x010F111C)
 26: 0x02C4 [0x2F] P (ID: 17764637/0x010F111D)->Render.Flags0 &= ~0x80000 // Bit 19
 27: 0x02CA [0x4E] SET_ENTITY_HIDE_FLAG: Show P (ID: 17764637/0x010F111D)
 28: 0x02D0 [0x2F] A (ID: 17764638/0x010F111E)->Render.Flags0 &= ~0x80000 // Bit 19
 29: 0x02D6 [0x4E] SET_ENTITY_HIDE_FLAG: Show A (ID: 17764638/0x010F111E)
 30: 0x02DC [0x2F] S (ID: 17764639/0x010F111F)->Render.Flags0 &= ~0x80000 // Bit 19
 31: 0x02E2 [0x4E] SET_ENTITY_HIDE_FLAG: Show S (ID: 17764639/0x010F111F)
 32: 0x02E8 [0x2F] D (ID: 17764640/0x010F1120)->Render.Flags0 &= ~0x80000 // Bit 19
 33: 0x02EE [0x4E] SET_ENTITY_HIDE_FLAG: Show D (ID: 17764640/0x010F1120)
 34: 0x02F4 [0x2F] F (ID: 17764641/0x010F1121)->Render.Flags0 &= ~0x80000 // Bit 19
 35: 0x02FA [0x4E] SET_ENTITY_HIDE_FLAG: Show F (ID: 17764641/0x010F1121)
 36: 0x0300 [0x2F] G (ID: 17764642/0x010F1122)->Render.Flags0 &= ~0x80000 // Bit 19
 37: 0x0306 [0x4E] SET_ENTITY_HIDE_FLAG: Show G (ID: 17764642/0x010F1122)
 38: 0x030C [0x2F] H (ID: 17764643/0x010F1123)->Render.Flags0 &= ~0x80000 // Bit 19
 39: 0x0312 [0x4E] SET_ENTITY_HIDE_FLAG: Show H (ID: 17764643/0x010F1123)
 40: 0x0318 [0x2F] J (ID: 17764644/0x010F1124)->Render.Flags0 &= ~0x80000 // Bit 19
 41: 0x031E [0x4E] SET_ENTITY_HIDE_FLAG: Show J (ID: 17764644/0x010F1124)
 42: 0x0324 [0x2F] K (ID: 17764645/0x010F1125)->Render.Flags0 &= ~0x80000 // Bit 19
 43: 0x032A [0x4E] SET_ENTITY_HIDE_FLAG: Show K (ID: 17764645/0x010F1125)
 44: 0x0330 [0x2F] Z (ID: 17764646/0x010F1126)->Render.Flags0 &= ~0x80000 // Bit 19
 45: 0x0336 [0x4E] SET_ENTITY_HIDE_FLAG: Show Z (ID: 17764646/0x010F1126)
 46: 0x033C [0x2F] X (ID: 17764647/0x010F1127)->Render.Flags0 &= ~0x80000 // Bit 19
 47: 0x0342 [0x4E] SET_ENTITY_HIDE_FLAG: Show X (ID: 17764647/0x010F1127)
 48: 0x0348 [0x2F] C (ID: 17764648/0x010F1128)->Render.Flags0 &= ~0x80000 // Bit 19
 49: 0x034E [0x4E] SET_ENTITY_HIDE_FLAG: Show C (ID: 17764648/0x010F1128)
 50: 0x0354 [0x2F] B (ID: 17764649/0x010F1129)->Render.Flags0 &= ~0x80000 // Bit 19
 51: 0x035A [0x4E] SET_ENTITY_HIDE_FLAG: Show B (ID: 17764649/0x010F1129)
 52: 0x0360 [0x2F] N (ID: 17764650/0x010F112A)->Render.Flags0 &= ~0x80000 // Bit 19
 53: 0x0366 [0x4E] SET_ENTITY_HIDE_FLAG: Show N (ID: 17764650/0x010F112A)
 54: 0x036C [0x2F] M (ID: 17764651/0x010F112B)->Render.Flags0 &= ~0x80000 // Bit 19
 55: 0x0372 [0x4E] SET_ENTITY_HIDE_FLAG: Show M (ID: 17764651/0x010F112B)
 56: 0x0378 [0x2F] Unnamed NPC (ID: 17764652/0x010F112C)->Render.Flags0 &= ~0x80000 // Bit 19
 57: 0x037E [0x4E] SET_ENTITY_HIDE_FLAG: Show Unnamed NPC (ID: 17764652/0x010F112C)
 58: 0x0384 [0x2F] Unnamed NPC (ID: 17764653/0x010F112D)->Render.Flags0 &= ~0x80000 // Bit 19
 59: 0x038A [0x4E] SET_ENTITY_HIDE_FLAG: Show Unnamed NPC (ID: 17764653/0x010F112D)
 60: 0x0390 [0x2F] C (ID: 17764654/0x010F112E)->Render.Flags0 &= ~0x80000 // Bit 19
 61: 0x0396 [0x4E] SET_ENTITY_HIDE_FLAG: Show C (ID: 17764654/0x010F112E)
 62: 0x039C [0x2F] Unnamed NPC (ID: 17764655/0x010F112F)->Render.Flags0 &= ~0x80000 // Bit 19
 63: 0x03A2 [0x4E] SET_ENTITY_HIDE_FLAG: Show Unnamed NPC (ID: 17764655/0x010F112F)
 64: 0x03A8 [0x2F] Unnamed NPC (ID: 17764656/0x010F1130)->Render.Flags0 &= ~0x80000 // Bit 19
 65: 0x03AE [0x4E] SET_ENTITY_HIDE_FLAG: Show Unnamed NPC (ID: 17764656/0x010F1130)
 66: 0x03B4 [0x2F] Unnamed NPC (ID: 17764657/0x010F1131)->Render.Flags0 &= ~0x80000 // Bit 19
 67: 0x03BA [0x4E] SET_ENTITY_HIDE_FLAG: Show Unnamed NPC (ID: 17764657/0x010F1131)
 68: 0x03C0 [0x29] REQ_SET_WAIT(priority=0x80, entity_id=Q (ID: 17764633/0x010F1119), tag_num=0x04)
 69: 0x03C7 [0x29] REQ_SET_WAIT(priority=0x80, entity_id=W (ID: 17764634/0x010F111A), tag_num=0x04)
 70: 0x03CE [0x29] REQ_SET_WAIT(priority=0x80, entity_id=R (ID: 17764635/0x010F111B), tag_num=0x04)
 71: 0x03D5 [0x29] REQ_SET_WAIT(priority=0x80, entity_id=T (ID: 17764636/0x010F111C), tag_num=0x04)
 72: 0x03DC [0x29] REQ_SET_WAIT(priority=0x80, entity_id=P (ID: 17764637/0x010F111D), tag_num=0x04)
 73: 0x03E3 [0x29] REQ_SET_WAIT(priority=0x80, entity_id=A (ID: 17764638/0x010F111E), tag_num=0x04)
 74: 0x03EA [0xBA] SET_ENTITY_POSITION(entity_id=LocalPlayer, pos_x=-21.500*, pos_z=-53.000*, pos_y=3.000*, direction=179.9°*)
 75: 0x03F7 [0x45] LOAD_SCHEDULED_TASK: Load scheduler "s012" with entities [EventEntity, EventEntity], work=[102*, 0*]
 76: 0x0408 [0x1C] WAIT(30* ticks)
 77: 0x040B [0x02] IF !(ExtData[1]->WorkLocal[18] == 1*) GOTO 0x0416
 78: 0x0413 [0x01] GOTO 0x041F
 79: 0x0416 [0x5C] MUSIC_CONTROL: Set Idle (Day) music to song 129*
 80: 0x041A [0x5C] MUSIC_CONTROL: Set Idle (Night) music to song 129*
 81: 0x041E [0x9A] WAIT_MUSIC_SERVER()

SUBROUTINE_041F:
 82: 0x041F [0x45] LOAD_SCHEDULED_TASK: Load scheduler "fdi1" with entities [EventEntity, EventEntity], work=[200*, 0*]
 83: 0x0430 [0x55] WAIT_LOAD_SCHEDULER: Wait for scheduler "fdi0" with entities [EventEntity, EventEntity], work=200*
 84: 0x043F [0x1C] WAIT(60* ticks)
 85: 0x0442 [0x06] ExtData[1]->WorkLocal[5] = 0
 86: 0x0445 [0x03] ExtData[1]->WorkLocal[6] = 4294945796*
 87: 0x044A [0x03] ExtData[1]->WorkLocal[9] = 2047*
 88: 0x044F [0x07] ExtData[1]->WorkLocal[6] += 4294961796*
 89: 0x0454 [0x1F] MOVE_ENTITY: EventEntity moves to X=ExtData[1]->WorkLocal[6], Z=-51.000*, Y=3.000*
 90: 0x045C [0x1F] MOVE_ENTITY: Update entity position (mode=1)
 91: 0x045E [0x39] SET_ENTITY_DIRECTION(direction=ExtData[1]->WorkLocal[9])
 92: 0x0461 [0x03] Work_Zone_1700[0] = 4294945796*
 93: 0x0466 [0x07] Work_Zone_1700[0] += 4294961796*
 94: 0x046B [0x03] Work_Zone_1700[1] = 4294914296*
 95: 0x0470 [0x03] Work_Zone_1700[2] = 3000*
 96: 0x0475 [0x03] Work_Zone_1700[3] = 2047*
 97: 0x047A [0x28] REQ_SET_WITH_CONDITIONS(priority=0x80, target_entity=LocalPlayer, tag_num=0x72)
 98: 0x0481 [0x03] ExtData[1]->WorkLocal[10] = 4294927096*
 99: 0x0486 [0x07] ExtData[1]->WorkLocal[10] += 7500*
100: 0x048B [0x03] Work_Zone_1700[0] = ExtData[1]->WorkLocal[10]
101: 0x0490 [0x03] Work_Zone_1700[1] = 4294917096*
102: 0x0495 [0x03] Work_Zone_1700[2] = 3000*
103: 0x049A [0x29] REQ_SET_WAIT(priority=0x80, entity_id=Chocobo (ID: 17764628/0x010F1114), tag_num=0x05)
104: 0x04A1 [0x1C] WAIT(60* ticks)
105: 0x04A4 [0x3E] IF !(Work_Zone[2] bit 3*) GOTO 0x04C8
106: 0x04AB [0xAD] DUAL_ENTITY_SCHEDULER_HANDLER: Execute sub-case 0 with entities [EventEntity, Chocobo (ID: 17764628/0x010F1114)], work=76*
107: 0x04B7 [0x1C] WAIT(120* ticks)
108: 0x04BA [0x28] REQ_SET_WITH_CONDITIONS(priority=0x80, target_entity=Chocobo (ID: 17764628/0x010F1114), tag_num=0x07)
109: 0x04C1 [0x48] [System] [13650*]:
    → "The chocobo has a special twinkle in his eye."
110: 0x04C4 [0x23] WAIT_FOR_DIALOG_INTERACTION
111: 0x04C5 [0x01] GOTO 0x04CF
112: 0x04C8 [0x28] REQ_SET_WITH_CONDITIONS(priority=0x80, target_entity=Chocobo (ID: 17764628/0x010F1114), tag_num=0x07)

SUBROUTINE_04CF:
113: 0x04CF [0x1C] WAIT(180* ticks)
114: 0x04D2 [0x07] ExtData[1]->WorkLocal[9] += 4294966785*
115: 0x04D7 [0x39] SET_ENTITY_DIRECTION(direction=ExtData[1]->WorkLocal[9])
116: 0x04DA [0x6F] WAIT_FRAME_DELAY: Yield until WaitTime reaches zero
117: 0x04DB [0x70] WAIT_ENTITY_RENDER_FLAG: Wait while EventEntity->Render.Flags3 bit 2 is set (cancel turn if not)
118: 0x04DC [0x66] LOAD_EXT_SCHEDULER_MAIN: Load scheduler "tlk0" with entities [EventEntity, EventEntity], work=40*
119: 0x04EB [0x1D] PRINT_EVENT_MESSAGE(message_id=13631*)
    → "So, what's the first way into someone's heart? Presents! First, you'll need to search for and "dig up" a tantalizing gift!"
120: 0x04EE [0x23] WAIT_FOR_DIALOG_INTERACTION
121: 0x04EF [0x03] Work_Zone[2] = 3*
122: 0x04F4 [0x1D] PRINT_EVENT_MESSAGE(message_id=13632*)
    → "You've only got $0 tries. Remember, the more gifts you give to chocobos, the more easily they swoon. Such simple creatures."
123: 0x04F7 [0x23] WAIT_FOR_DIALOG_INTERACTION
124: 0x04F8 [0x66] LOAD_EXT_SCHEDULER_MAIN: Load scheduler "tlk1" with entities [EventEntity, EventEntity], work=40*
125: 0x0507 [0x03] Work_Zone[3] = 0*
126: 0x050C [0x06] ExtData[1]->WorkLocal[3] = 0
127: 0x050F [0x06] ExtData[1]->WorkLocal[4] = 0
128: 0x0512 [0x03] Work_Zone_1700[3] = ExtData[1]->WorkLocal[13]

SUBROUTINE_0517:
129: 0x0517 [0x1C] WAIT(30* ticks)
130: 0x051A [0x03] ExtData[1]->WorkLocal[2] = 32*
131: 0x051F [0x03] Work_Zone[2] = 0*
132: 0x0524 [0x0B] Work_Zone[3]++
133: 0x0527 [0x24] CREATE_DIALOG(message_id=13633*, default_option=0*, option_flags=ExtData[1]->WorkLocal[2])
    → "Select a [row/column]. (Attempt No. $1) [No. 1./No. 2./No. 3./No. 4./No. 5./Reselect row./Abandon this endeavor.]"
134: 0x052E [0x25] WAIT_DIALOG_SELECT()
135: 0x052F [0x02] IF !(Work_Zone[0] == 0*) GOTO 0x053F
136: 0x0537 [0x03] ExtData[1]->WorkLocal[3] = 0*
137: 0x053C [0x01] GOTO 0x0658
138: 0x053F [0x02] IF !(Work_Zone[0] == 1*) GOTO 0x054F
139: 0x0547 [0x03] ExtData[1]->WorkLocal[3] = 1*
140: 0x054C [0x01] GOTO 0x0658
141: 0x054F [0x02] IF !(Work_Zone[0] == 2*) GOTO 0x055F
142: 0x0557 [0x03] ExtData[1]->WorkLocal[3] = 2*
143: 0x055C [0x01] GOTO 0x0658
144: 0x055F [0x02] IF !(Work_Zone[0] == 3*) GOTO 0x056F
145: 0x0567 [0x03] ExtData[1]->WorkLocal[3] = 3*
146: 0x056C [0x01] GOTO 0x0658
147: 0x056F [0x02] IF !(Work_Zone[0] == 4*) GOTO 0x057F
148: 0x0577 [0x03] ExtData[1]->WorkLocal[3] = 4*
149: 0x057C [0x01] GOTO 0x0658
150: 0x057F [0x02] IF !(Work_Zone[0] == 5*) GOTO 0x058A
151: 0x0587 [0x01] GOTO 0x0658
152: 0x058A [0x02] IF !(Work_Zone[0] == 6*) GOTO 0x0658
153: 0x0592 [0x24] CREATE_DIALOG(message_id=13634*, default_option=1*, option_flags=0*)
    → "Truly let it wither on the vine? [Love. Bah./No! We must cultivate!]"
154: 0x0599 [0x25] WAIT_DIALOG_SELECT()
155: 0x059A [0x02] IF !(Work_Zone[0] == 0*) GOTO 0x0644
156: 0x05A2 [0x66] LOAD_EXT_SCHEDULER_MAIN: Load scheduler "dis0" with entities [EventEntity, EventEntity], work=40*
157: 0x05B1 [0x1D] PRINT_EVENT_MESSAGE(message_id=13635*)
    → "How callous! All I wanted was to bring in dat...I mean bring darling chocobos together as soul mates!"
158: 0x05B4 [0x23] WAIT_FOR_DIALOG_INTERACTION
159: 0x05B5 [0x45] LOAD_SCHEDULED_TASK: Load scheduler "fdo1" with entities [EventEntity, EventEntity], work=[200*, 0*]
160: 0x05C6 [0x55] WAIT_LOAD_SCHEDULER: Wait for scheduler "fdo1" with entities [EventEntity, EventEntity], work=200*
161: 0x05D5 [0xBA] SET_ENTITY_POSITION(entity_id=LocalPlayer, pos_x=ExtData[1]->WorkLocal[14], pos_z=ExtData[1]->WorkLocal[15], pos_y=ExtData[1]->WorkLocal[16], direction=ExtData[1]->WorkLocal[17])
162: 0x05E2 [0x5C] MUSIC_CONTROL: Set Idle (Day) music to song 151*
163: 0x05E6 [0x5C] MUSIC_CONTROL: Set Idle (Night) music to song 151*
164: 0x05EA [0x52] END_LOAD_SCHEDULER: End scheduler "s012" with entities [EventEntity, EventEntity], work=102*
165: 0x05F9 [0x37] UPDATE_EVENT_POSITION_AND_DIR: x=119.000*, z=-105.250*, y=-5.000*, direction=0.0°*
166: 0x0602 [0x1E] EventEntity looks at LocalPlayer and starts talking
167: 0x0607 [0x6F] WAIT_FRAME_DELAY: Yield until WaitTime reaches zero
168: 0x0608 [0x70] WAIT_ENTITY_RENDER_FLAG: Wait while EventEntity->Render.Flags3 bit 2 is set (cancel turn if not)
169: 0x0609 [0x78] ENABLE_GAME_TIMER_RESET_WEATHER()
170: 0x060A [0x38] SET_CLIENT_EVENT_MODE(mode=0*)
171: 0x060D [0x46] CAMERA_CONTROL: Restore default settings
172: 0x060F [0x45] LOAD_SCHEDULED_TASK: Load scheduler "fdi1" with entities [EventEntity, EventEntity], work=[200*, 0*]
173: 0x0620 [0x55] WAIT_LOAD_SCHEDULER: Wait for scheduler "fdi0" with entities [EventEntity, EventEntity], work=200*
174: 0x062F [0x1C] WAIT(60* ticks)
175: 0x0632 [0x02] IF !(ExtData[1]->WorkLocal[18] == 1*) GOTO 0x063B
176: 0x063A [0x21] END_EVENT
177: 0x063B [0x03] Work_Zone[1] = 3*
178: 0x0640 [0x21] END_EVENT

SUBROUTINE_0655:
179: 0x0655 [0x01] GOTO 0x0658

SUBROUTINE_0658:
180: 0x0658 [0x1C] WAIT(30* ticks)
181: 0x065B [0x03] ExtData[1]->WorkLocal[0] = ExtData[1]->WorkLocal[3]
182: 0x0660 [0x14] ExtData[1]->WorkLocal[0] *= 5*
183: 0x0665 [0x07] ExtData[1]->WorkLocal[0] += ExtData[1]->WorkLocal[4]
184: 0x066A [0x1A] CALL_SUBROUTINE(address=0x0E0B)
185: 0x066D [0x6F] WAIT_FRAME_DELAY: Yield until WaitTime reaches zero
186: 0x066E [0x76] CHECK_ENTITY_RENDER_FLAGS: Wait until LocalPlayer Render.Flags0 and Render.Flags3 conditions are met
187: 0x0673 [0x6E] LocalPlayer uses emote 0*
188: 0x067A [0x99] Wait for LocalPlayer animation to complete
189: 0x067F [0x59] UPDATE_ENTITY_DATA: Check if LocalPlayer is performing moving action
190: 0x0685 [0x1C] WAIT(120* ticks)
191: 0x0688 [0x03] ExtData[1]->WorkLocal[11] = 4294917096*
192: 0x068D [0x03] ExtData[1]->WorkLocal[0] = 4294966296*
193: 0x0692 [0x14] ExtData[1]->WorkLocal[0] *= ExtData[1]->WorkLocal[3]
194: 0x0697 [0x07] ExtData[1]->WorkLocal[11] += ExtData[1]->WorkLocal[0]
195: 0x069C [0x03] Work_Zone_1700[0] = ExtData[1]->WorkLocal[10]
196: 0x06A1 [0x03] Work_Zone_1700[1] = ExtData[1]->WorkLocal[11]
197: 0x06A6 [0x29] REQ_SET_WAIT(priority=0x80, entity_id=Chocobo (ID: 17764628/0x010F1114), tag_num=0x05)
198: 0x06AD [0x29] REQ_SET_WAIT(priority=0x80, entity_id=Chocobo (ID: 17764628/0x010F1114), tag_num=0x06)
199: 0x06B4 [0x1C] WAIT(60* ticks)

SUBROUTINE_06B7:
200: 0x06B7 [0x03] ExtData[1]->WorkLocal[2] = 0*
201: 0x06BC [0x03] Work_Zone[2] = 1*
202: 0x06C1 [0x24] CREATE_DIALOG(message_id=13633*, default_option=0*, option_flags=ExtData[1]->WorkLocal[2])
    → "Select a [row/column]. (Attempt No. $1) [No. 1./No. 2./No. 3./No. 4./No. 5./Reselect row./Abandon this endeavor.]"
203: 0x06C8 [0x25] WAIT_DIALOG_SELECT()
204: 0x06C9 [0x02] IF !(Work_Zone[0] == 0*) GOTO 0x06D9
205: 0x06D1 [0x03] ExtData[1]->WorkLocal[4] = 0*
206: 0x06D6 [0x01] GOTO 0x07FA
207: 0x06D9 [0x02] IF !(Work_Zone[0] == 1*) GOTO 0x06E9
208: 0x06E1 [0x03] ExtData[1]->WorkLocal[4] = 1*
209: 0x06E6 [0x01] GOTO 0x07FA
210: 0x06E9 [0x02] IF !(Work_Zone[0] == 2*) GOTO 0x06F9
211: 0x06F1 [0x03] ExtData[1]->WorkLocal[4] = 2*
212: 0x06F6 [0x01] GOTO 0x07FA
213: 0x06F9 [0x02] IF !(Work_Zone[0] == 3*) GOTO 0x0709
214: 0x0701 [0x03] ExtData[1]->WorkLocal[4] = 3*
215: 0x0706 [0x01] GOTO 0x07FA
216: 0x0709 [0x02] IF !(Work_Zone[0] == 4*) GOTO 0x0719
217: 0x0711 [0x03] ExtData[1]->WorkLocal[4] = 4*
218: 0x0716 [0x01] GOTO 0x07FA
219: 0x0719 [0x02] IF !(Work_Zone[0] == 5*) GOTO 0x072F
220: 0x0721 [0x03] ExtData[1]->WorkLocal[3] = 0*
221: 0x0726 [0x0C] Work_Zone[3]--
222: 0x0729 [0x01] GOTO 0x0517

SUBROUTINE_07F7:
223: 0x07F7 [0x01] GOTO 0x07FA

SUBROUTINE_07FA:
224: 0x07FA [0x40] SET_BIT_WORK_RANGE(start_bit=0*, end_bit=3*, target=Work_Zone[1], source=0*)
225: 0x0803 [0x03] ExtData[1]->WorkLocal[0] = ExtData[1]->WorkLocal[3]
226: 0x0808 [0x14] ExtData[1]->WorkLocal[0] *= 5*
227: 0x080D [0x07] ExtData[1]->WorkLocal[0] += ExtData[1]->WorkLocal[4]
228: 0x0812 [0x40] SET_BIT_WORK_RANGE(start_bit=4*, end_bit=8*, target=Work_Zone[1], source=ExtData[1]->WorkLocal[0])
229: 0x081B [0x1A] CALL_SUBROUTINE(address=0x0E0B)
230: 0x081E [0x6F] WAIT_FRAME_DELAY: Yield until WaitTime reaches zero
231: 0x081F [0x76] CHECK_ENTITY_RENDER_FLAGS: Wait until LocalPlayer Render.Flags0 and Render.Flags3 conditions are met
232: 0x0824 [0x6E] LocalPlayer uses emote 16*
233: 0x082B [0x99] Wait for LocalPlayer animation to complete
234: 0x0830 [0x59] UPDATE_ENTITY_DATA: Check if LocalPlayer is performing moving action
235: 0x0836 [0x1C] WAIT(120* ticks)
236: 0x0839 [0x03] ExtData[1]->WorkLocal[10] = 4294927096*
237: 0x083E [0x07] ExtData[1]->WorkLocal[10] += 7500*
238: 0x0843 [0x03] ExtData[1]->WorkLocal[0] = 1000*
239: 0x0848 [0x14] ExtData[1]->WorkLocal[0] *= ExtData[1]->WorkLocal[4]
240: 0x084D [0x07] ExtData[1]->WorkLocal[10] += ExtData[1]->WorkLocal[0]
241: 0x0852 [0x03] Work_Zone_1700[0] = ExtData[1]->WorkLocal[10]
242: 0x0857 [0x29] REQ_SET_WAIT(priority=0x80, entity_id=Chocobo (ID: 17764628/0x010F1114), tag_num=0x05)
243: 0x085E [0x29] REQ_SET_WAIT(priority=0x80, entity_id=Chocobo (ID: 17764628/0x010F1114), tag_num=0x06)
244: 0x0865 [0x1C] WAIT(60* ticks)
245: 0x0868 [0x5B] LOAD_EXT_SCHEDULER: Load scheduler "ton0" with entities [Chocobo (ID: 17764628/0x010F1114), Chocobo (ID: 17764628/0x010F1114)], work=220*
246: 0x0877 [0x53] WAIT_SCHEDULER_TASK: Wait for scheduler "ton0" with entities [Chocobo (ID: 17764628/0x010F1114), Chocobo (ID: 17764628/0x010F1114)]
247: 0x0884 [0x5B] LOAD_EXT_SCHEDULER: Load scheduler "ton1" with entities [Chocobo (ID: 17764628/0x010F1114), Chocobo (ID: 17764628/0x010F1114)], work=220*
248: 0x0893 [0x1C] WAIT(60* ticks)
249: 0x0896 [0x41] ExtData[1]->WorkLocal[0] = Work_Zone[1] (bits 4*-8*)
250: 0x089F [0x02] IF !(ExtData[1]->WorkLocal[0] == 0*) GOTO 0x08B7
251: 0x08A7 [0x2C] CREATE_SCHEDULER_TASK: Create scheduler "kesu" with entities [Q (ID: 17764633/0x010F1119), Q (ID: 17764633/0x010F1119)]
252: 0x08B4 [0x01] GOTO 0x0AF7
253: 0x08B7 [0x02] IF !(ExtData[1]->WorkLocal[0] == 1*) GOTO 0x08CF
254: 0x08BF [0x2C] CREATE_SCHEDULER_TASK: Create scheduler "kesu" with entities [W (ID: 17764634/0x010F111A), W (ID: 17764634/0x010F111A)]
255: 0x08CC [0x01] GOTO 0x0AF7
256: 0x08CF [0x02] IF !(ExtData[1]->WorkLocal[0] == 2*) GOTO 0x08E7
257: 0x08D7 [0x2C] CREATE_SCHEDULER_TASK: Create scheduler "kesu" with entities [R (ID: 17764635/0x010F111B), R (ID: 17764635/0x010F111B)]
258: 0x08E4 [0x01] GOTO 0x0AF7
259: 0x08E7 [0x02] IF !(ExtData[1]->WorkLocal[0] == 3*) GOTO 0x08FF
260: 0x08EF [0x2C] CREATE_SCHEDULER_TASK: Create scheduler "kesu" with entities [T (ID: 17764636/0x010F111C), T (ID: 17764636/0x010F111C)]
261: 0x08FC [0x01] GOTO 0x0AF7
262: 0x08FF [0x02] IF !(ExtData[1]->WorkLocal[0] == 4*) GOTO 0x0917
263: 0x0907 [0x2C] CREATE_SCHEDULER_TASK: Create scheduler "kesu" with entities [P (ID: 17764637/0x010F111D), P (ID: 17764637/0x010F111D)]
264: 0x0914 [0x01] GOTO 0x0AF7
265: 0x0917 [0x02] IF !(ExtData[1]->WorkLocal[0] == 5*) GOTO 0x092F
266: 0x091F [0x2C] CREATE_SCHEDULER_TASK: Create scheduler "kesu" with entities [A (ID: 17764638/0x010F111E), A (ID: 17764638/0x010F111E)]
267: 0x092C [0x01] GOTO 0x0AF7
268: 0x092F [0x02] IF !(ExtData[1]->WorkLocal[0] == 6*) GOTO 0x0947
269: 0x0937 [0x2C] CREATE_SCHEDULER_TASK: Create scheduler "kesu" with entities [S (ID: 17764639/0x010F111F), S (ID: 17764639/0x010F111F)]
270: 0x0944 [0x01] GOTO 0x0AF7
271: 0x0947 [0x02] IF !(ExtData[1]->WorkLocal[0] == 7*) GOTO 0x095F
272: 0x094F [0x2C] CREATE_SCHEDULER_TASK: Create scheduler "kesu" with entities [D (ID: 17764640/0x010F1120), D (ID: 17764640/0x010F1120)]
273: 0x095C [0x01] GOTO 0x0AF7
274: 0x095F [0x02] IF !(ExtData[1]->WorkLocal[0] == 8*) GOTO 0x0977
275: 0x0967 [0x2C] CREATE_SCHEDULER_TASK: Create scheduler "kesu" with entities [F (ID: 17764641/0x010F1121), F (ID: 17764641/0x010F1121)]
276: 0x0974 [0x01] GOTO 0x0AF7
277: 0x0977 [0x02] IF !(ExtData[1]->WorkLocal[0] == 9*) GOTO 0x098F
278: 0x097F [0x2C] CREATE_SCHEDULER_TASK: Create scheduler "kesu" with entities [G (ID: 17764642/0x010F1122), G (ID: 17764642/0x010F1122)]
279: 0x098C [0x01] GOTO 0x0AF7
280: 0x098F [0x02] IF !(ExtData[1]->WorkLocal[0] == 10*) GOTO 0x09A7
281: 0x0997 [0x2C] CREATE_SCHEDULER_TASK: Create scheduler "kesu" with entities [H (ID: 17764643/0x010F1123), H (ID: 17764643/0x010F1123)]
282: 0x09A4 [0x01] GOTO 0x0AF7
283: 0x09A7 [0x02] IF !(ExtData[1]->WorkLocal[0] == 11*) GOTO 0x09BF
284: 0x09AF [0x2C] CREATE_SCHEDULER_TASK: Create scheduler "kesu" with entities [J (ID: 17764644/0x010F1124), J (ID: 17764644/0x010F1124)]
285: 0x09BC [0x01] GOTO 0x0AF7
286: 0x09BF [0x02] IF !(ExtData[1]->WorkLocal[0] == 12*) GOTO 0x09D7
287: 0x09C7 [0x2C] CREATE_SCHEDULER_TASK: Create scheduler "kesu" with entities [K (ID: 17764645/0x010F1125), K (ID: 17764645/0x010F1125)]
288: 0x09D4 [0x01] GOTO 0x0AF7
289: 0x09D7 [0x02] IF !(ExtData[1]->WorkLocal[0] == 13*) GOTO 0x09EF
290: 0x09DF [0x2C] CREATE_SCHEDULER_TASK: Create scheduler "kesu" with entities [Z (ID: 17764646/0x010F1126), Z (ID: 17764646/0x010F1126)]
291: 0x09EC [0x01] GOTO 0x0AF7
292: 0x09EF [0x02] IF !(ExtData[1]->WorkLocal[0] == 14*) GOTO 0x0A07
293: 0x09F7 [0x2C] CREATE_SCHEDULER_TASK: Create scheduler "kesu" with entities [X (ID: 17764647/0x010F1127), X (ID: 17764647/0x010F1127)]
294: 0x0A04 [0x01] GOTO 0x0AF7
295: 0x0A07 [0x02] IF !(ExtData[1]->WorkLocal[0] == 15*) GOTO 0x0A1F
296: 0x0A0F [0x2C] CREATE_SCHEDULER_TASK: Create scheduler "kesu" with entities [C (ID: 17764648/0x010F1128), C (ID: 17764648/0x010F1128)]
297: 0x0A1C [0x01] GOTO 0x0AF7
298: 0x0A1F [0x02] IF !(ExtData[1]->WorkLocal[0] == 16*) GOTO 0x0A37
299: 0x0A27 [0x2C] CREATE_SCHEDULER_TASK: Create scheduler "kesu" with entities [B (ID: 17764649/0x010F1129), B (ID: 17764649/0x010F1129)]
300: 0x0A34 [0x01] GOTO 0x0AF7
301: 0x0A37 [0x02] IF !(ExtData[1]->WorkLocal[0] == 17*) GOTO 0x0A4F
302: 0x0A3F [0x2C] CREATE_SCHEDULER_TASK: Create scheduler "kesu" with entities [N (ID: 17764650/0x010F112A), N (ID: 17764650/0x010F112A)]
303: 0x0A4C [0x01] GOTO 0x0AF7
304: 0x0A4F [0x02] IF !(ExtData[1]->WorkLocal[0] == 18*) GOTO 0x0A67
305: 0x0A57 [0x2C] CREATE_SCHEDULER_TASK: Create scheduler "kesu" with entities [M (ID: 17764651/0x010F112B), M (ID: 17764651/0x010F112B)]
306: 0x0A64 [0x01] GOTO 0x0AF7
307: 0x0A67 [0x02] IF !(ExtData[1]->WorkLocal[0] == 19*) GOTO 0x0A7F
308: 0x0A6F [0x2C] CREATE_SCHEDULER_TASK: Create scheduler "kesu" with entities [Unnamed NPC (ID: 17764652/0x010F112C), Unnamed NPC (ID: 17764652/0x010F112C)]
309: 0x0A7C [0x01] GOTO 0x0AF7
310: 0x0A7F [0x02] IF !(ExtData[1]->WorkLocal[0] == 20*) GOTO 0x0A97
311: 0x0A87 [0x2C] CREATE_SCHEDULER_TASK: Create scheduler "kesu" with entities [Unnamed NPC (ID: 17764653/0x010F112D), Unnamed NPC (ID: 17764653/0x010F112D)]
312: 0x0A94 [0x01] GOTO 0x0AF7
313: 0x0A97 [0x02] IF !(ExtData[1]->WorkLocal[0] == 21*) GOTO 0x0AAF
314: 0x0A9F [0x2C] CREATE_SCHEDULER_TASK: Create scheduler "kesu" with entities [C (ID: 17764654/0x010F112E), C (ID: 17764654/0x010F112E)]
315: 0x0AAC [0x01] GOTO 0x0AF7
316: 0x0AAF [0x02] IF !(ExtData[1]->WorkLocal[0] == 22*) GOTO 0x0AC7
317: 0x0AB7 [0x2C] CREATE_SCHEDULER_TASK: Create scheduler "kesu" with entities [Unnamed NPC (ID: 17764655/0x010F112F), Unnamed NPC (ID: 17764655/0x010F112F)]
318: 0x0AC4 [0x01] GOTO 0x0AF7
319: 0x0AC7 [0x02] IF !(ExtData[1]->WorkLocal[0] == 23*) GOTO 0x0ADF
320: 0x0ACF [0x2C] CREATE_SCHEDULER_TASK: Create scheduler "kesu" with entities [Unnamed NPC (ID: 17764656/0x010F1130), Unnamed NPC (ID: 17764656/0x010F1130)]
321: 0x0ADC [0x01] GOTO 0x0AF7
322: 0x0ADF [0x02] IF !(ExtData[1]->WorkLocal[0] == 24*) GOTO 0x0AF7
323: 0x0AE7 [0x2C] CREATE_SCHEDULER_TASK: Create scheduler "kesu" with entities [Unnamed NPC (ID: 17764657/0x010F1131), Unnamed NPC (ID: 17764657/0x010F1131)]
324: 0x0AF4 [0x01] GOTO 0x0AF7

SUBROUTINE_0AF7:
325: 0x0AF7 [0x43] SEND_EVENT_UPDATE: Send pending tag to server (packet 0x005B)
326: 0x0AF9 [0x43] SEND_EVENT_UPDATE: Check pending flag (skip if not pending)
327: 0x0AFB [0x02] IF !(Work_Zone[2] == 0*) GOTO 0x0BF6
328: 0x0B03 [0x0B] ExtData[1]->WorkLocal[5]++
329: 0x0B06 [0x2B] Chocobo (ID: 17764628/0x010F1114) [13640*]:
    → "..."
330: 0x0B0D [0x23] WAIT_FOR_DIALOG_INTERACTION
331: 0x0B0E [0x48] [System] [13641*]:
    → "You didn't find anything."
332: 0x0B11 [0x23] WAIT_FOR_DIALOG_INTERACTION
333: 0x0B12 [0x1C] WAIT(60* ticks)
334: 0x0B15 [0x02] IF !(ExtData[1]->WorkLocal[5] == 1*) GOTO 0x0B42
335: 0x0B1D [0x66] LOAD_EXT_SCHEDULER_MAIN: Load scheduler "thk1" with entities [EventEntity, EventEntity], work=40*
336: 0x0B2C [0x1D] PRINT_EVENT_MESSAGE(message_id=13642*)
    → "Why, it's like the locations of these presents change depending on the day! Hmm? "Why do I know these things?" Silly, I'm a scholar!"
337: 0x0B2F [0x23] WAIT_FOR_DIALOG_INTERACTION
338: 0x0B30 [0x66] LOAD_EXT_SCHEDULER_MAIN: Load scheduler "thk2" with entities [EventEntity, EventEntity], work=40*
339: 0x0B3F [0x01] GOTO 0x0BF3
340: 0x0B42 [0x02] IF !(ExtData[1]->WorkLocal[5] == 2*) GOTO 0x0B6F
341: 0x0B4A [0x66] LOAD_EXT_SCHEDULER_MAIN: Load scheduler "thk1" with entities [EventEntity, EventEntity], work=40*
342: 0x0B59 [0x1D] PRINT_EVENT_MESSAGE(message_id=13643*)
    → "It's gotta be related to the day of the week. Call it women's intuition!"
343: 0x0B5C [0x23] WAIT_FOR_DIALOG_INTERACTION
344: 0x0B5D [0x66] LOAD_EXT_SCHEDULER_MAIN: Load scheduler "thk2" with entities [EventEntity, EventEntity], work=40*
345: 0x0B6C [0x01] GOTO 0x0BF3
346: 0x0B6F [0x02] IF !(ExtData[1]->WorkLocal[5] == 3*) GOTO 0x0BF3
347: 0x0B77 [0x66] LOAD_EXT_SCHEDULER_MAIN: Load scheduler "dis0" with entities [EventEntity, EventEntity], work=40*
348: 0x0B86 [0x1D] PRINT_EVENT_MESSAGE(message_id=13644*)
    → "Oh, come on! Cupid's arrows are supposed to strike true, not go tumbling to the ground!"
349: 0x0B89 [0x23] WAIT_FOR_DIALOG_INTERACTION
350: 0x0B8A [0x6E] LocalPlayer uses emote 19*
351: 0x0B91 [0x99] Wait for LocalPlayer animation to complete
352: 0x0B96 [0x99] Wait for LocalPlayer animation to complete
353: 0x0B9B [0x28] REQ_SET_WITH_CONDITIONS(priority=0x80, target_entity=Chocobo (ID: 17764628/0x010F1114), tag_num=0x09)
354: 0x0BA2 [0x48] [System] [13645*]:
    → "The chocobo whimpers in despair."
355: 0x0BA5 [0x23] WAIT_FOR_DIALOG_INTERACTION
356: 0x0BA6 [0x1C] WAIT(60* ticks)
357: 0x0BA9 [0x66] LOAD_EXT_SCHEDULER_MAIN: Load scheduler "tlk0" with entities [EventEntity, EventEntity], work=40*
358: 0x0BB8 [0x1D] PRINT_EVENT_MESSAGE(message_id=13646*)
    → "Maybe he'll perk up a bit later? Why don't you give it another go then?"
359: 0x0BBB [0x23] WAIT_FOR_DIALOG_INTERACTION
360: 0x0BBC [0x66] LOAD_EXT_SCHEDULER_MAIN: Load scheduler "tlk1" with entities [EventEntity, EventEntity], work=40*
361: 0x0BCB [0x66] LOAD_EXT_SCHEDULER_MAIN: Load scheduler "thk1" with entities [EventEntity, EventEntity], work=40*
362: 0x0BDA [0x1D] PRINT_EVENT_MESSAGE(message_id=13647*)
    → "You know what I do when I'm depressed? Eat some sweets. Maybe this poor fella just needs to eat something to cheer him up."
363: 0x0BDD [0x23] WAIT_FOR_DIALOG_INTERACTION
364: 0x0BDE [0x66] LOAD_EXT_SCHEDULER_MAIN: Load scheduler "thk2" with entities [EventEntity, EventEntity], work=40*
365: 0x0BED [0x1C] WAIT(60* ticks)
366: 0x0BF0 [0x01] GOTO 0x0BF3

SUBROUTINE_0BF3:
367: 0x0BF3 [0x01] GOTO 0x0CF4
368: 0x0BF6 [0x02] IF !(Work_Zone[2] == 1*) GOTO 0x0C7D
369: 0x0BFE [0x28] REQ_SET_WITH_CONDITIONS(priority=0x80, target_entity=Chocobo (ID: 17764628/0x010F1114), tag_num=0x07)
370: 0x0C05 [0x2B] Chocobo (ID: 17764628/0x010F1114) [13637*]:
    → "Kw--Kweeeh!"
371: 0x0C0C [0x23] WAIT_FOR_DIALOG_INTERACTION
372: 0x0C0D [0x1C] WAIT(60* ticks)
373: 0x0C10 [0x13] ExtData[1]->WorkLocal[0] = rand() % 2*
374: 0x0C15 [0x02] IF !(ExtData[1]->WorkLocal[0] == 0*) GOTO 0x0C25
375: 0x0C1D [0x03] Work_Zone[4] = 4545*
376: 0x0C22 [0x01] GOTO 0x0C45
377: 0x0C25 [0x02] IF !(ExtData[1]->WorkLocal[0] == 1*) GOTO 0x0C35
378: 0x0C2D [0x03] Work_Zone[4] = 5605*
379: 0x0C32 [0x01] GOTO 0x0C45
380: 0x0C35 [0x02] IF !(ExtData[1]->WorkLocal[0] == 2*) GOTO 0x0C45
381: 0x0C3D [0x03] Work_Zone[4] = 5606*
382: 0x0C42 [0x01] GOTO 0x0C45

SUBROUTINE_0C45:
383: 0x0C45 [0x48] [System] [13638*]:
    → "The chocobo has unearthed $2!"
384: 0x0C48 [0x23] WAIT_FOR_DIALOG_INTERACTION
385: 0x0C49 [0x6E] EventEntity uses emote 13*
386: 0x0C50 [0x99] Wait for EventEntity animation to complete
387: 0x0C55 [0x1C] WAIT(120* ticks)
388: 0x0C58 [0x66] LOAD_EXT_SCHEDULER_MAIN: Load scheduler "tlk0" with entities [EventEntity, EventEntity], work=40*
389: 0x0C67 [0x1D] PRINT_EVENT_MESSAGE(message_id=13639*)
    → "$2! Way to show me how it's done! [/What a wonderful gift!/This'll make the best present ever!t]"
390: 0x0C6A [0x23] WAIT_FOR_DIALOG_INTERACTION
391: 0x0C6B [0x66] LOAD_EXT_SCHEDULER_MAIN: Load scheduler "tlk1" with entities [EventEntity, EventEntity], work=40*
392: 0x0C7A [0x01] GOTO 0x0CF4
393: 0x0C7D [0x02] IF !(Work_Zone[2] == 2*) GOTO 0x0CF4
394: 0x0C85 [0x28] REQ_SET_WITH_CONDITIONS(priority=0x80, target_entity=Chocobo (ID: 17764628/0x010F1114), tag_num=0x07)
395: 0x0C8C [0x2B] Chocobo (ID: 17764628/0x010F1114) [13636*]:
    → "Kweeeeeeeeeeeeh! (Wowow!)"
396: 0x0C93 [0x23] WAIT_FOR_DIALOG_INTERACTION
397: 0x0C94 [0x1C] WAIT(60* ticks)
398: 0x0C97 [0x13] ExtData[1]->WorkLocal[0] = rand() % 1*
399: 0x0C9C [0x02] IF !(ExtData[1]->WorkLocal[0] == 0*) GOTO 0x0CAC
400: 0x0CA4 [0x03] Work_Zone[4] = 5607*
401: 0x0CA9 [0x01] GOTO 0x0CBC
402: 0x0CAC [0x02] IF !(ExtData[1]->WorkLocal[0] == 1*) GOTO 0x0CBC
403: 0x0CB4 [0x03] Work_Zone[4] = 5608*
404: 0x0CB9 [0x01] GOTO 0x0CBC

SUBROUTINE_0CBC:
405: 0x0CBC [0x48] [System] [13638*]:
    → "The chocobo has unearthed $2!"
406: 0x0CBF [0x23] WAIT_FOR_DIALOG_INTERACTION
407: 0x0CC0 [0x6E] EventEntity uses emote 11*
408: 0x0CC7 [0x99] Wait for EventEntity animation to complete
409: 0x0CCC [0x1C] WAIT(120* ticks)
410: 0x0CCF [0x66] LOAD_EXT_SCHEDULER_MAIN: Load scheduler "tlk0" with entities [EventEntity, EventEntity], work=40*
411: 0x0CDE [0x1D] PRINT_EVENT_MESSAGE(message_id=13639*)
    → "$2! Way to show me how it's done! [/What a wonderful gift!/This'll make the best present ever!t]"
412: 0x0CE1 [0x23] WAIT_FOR_DIALOG_INTERACTION
413: 0x0CE2 [0x66] LOAD_EXT_SCHEDULER_MAIN: Load scheduler "tlk1" with entities [EventEntity, EventEntity], work=40*
414: 0x0CF1 [0x01] GOTO 0x0CF4

SUBROUTINE_0CF4:
415: 0x0CF4 [0x02] IF !(Work_Zone[3] < 3*) GOTO 0x0E07
416: 0x0CFC [0x02] IF !(Work_Zone[4] <= 0*) GOTO 0x0D78
417: 0x0D04 [0x66] LOAD_EXT_SCHEDULER_MAIN: Load scheduler "tlk0" with entities [EventEntity, EventEntity], work=40*
418: 0x0D13 [0x1D] PRINT_EVENT_MESSAGE(message_id=13648*)
    → "Now that we've got a present, it's time for step two!"
419: 0x0D16 [0x23] WAIT_FOR_DIALOG_INTERACTION
420: 0x0D17 [0x66] LOAD_EXT_SCHEDULER_MAIN: Load scheduler "tlk1" with entities [EventEntity, EventEntity], work=40*
421: 0x0D26 [0x6E] LocalPlayer uses emote 11*
422: 0x0D2D [0x99] Wait for LocalPlayer animation to complete
423: 0x0D32 [0x99] Wait for LocalPlayer animation to complete
424: 0x0D37 [0x28] REQ_SET_WITH_CONDITIONS(priority=0x80, target_entity=Chocobo (ID: 17764628/0x010F1114), tag_num=0x07)
425: 0x0D3E [0x1C] WAIT(180* ticks)
426: 0x0D41 [0x02] IF !(ExtData[1]->WorkLocal[18] == 1*) GOTO 0x0D4A
427: 0x0D49 [0x21] END_EVENT
428: 0x0D4A [0x45] LOAD_SCHEDULED_TASK: Load scheduler "fdo1" with entities [EventEntity, EventEntity], work=[200*, 0*]
429: 0x0D5B [0x55] WAIT_LOAD_SCHEDULER: Wait for scheduler "fdo1" with entities [EventEntity, EventEntity], work=200*
430: 0x0D6A [0x03] Work_Zone[1] = 2*
431: 0x0D6F [0x30] SET_UCOFF_CONTINUE_ZERO()
432: 0x0D70 [0x69] SET_SOUND_VOLUME: Mute Effects/Zone/Master
433: 0x0D74 [0x21] END_EVENT

SUBROUTINE_0E0B:
434: 0x0E0B [0x02] IF !(ExtData[1]->WorkLocal[0] == 0*) GOTO 0x0E1F
435: 0x0E13 [0x4A] LocalPlayer looks at Q (ID: 17764633/0x010F1119)
436: 0x0E1C [0x01] GOTO 0x0FFF
437: 0x0E1F [0x02] IF !(ExtData[1]->WorkLocal[0] == 1*) GOTO 0x0E33
438: 0x0E27 [0x4A] LocalPlayer looks at W (ID: 17764634/0x010F111A)
439: 0x0E30 [0x01] GOTO 0x0FFF
440: 0x0E33 [0x02] IF !(ExtData[1]->WorkLocal[0] == 2*) GOTO 0x0E47
441: 0x0E3B [0x4A] LocalPlayer looks at R (ID: 17764635/0x010F111B)
442: 0x0E44 [0x01] GOTO 0x0FFF
443: 0x0E47 [0x02] IF !(ExtData[1]->WorkLocal[0] == 3*) GOTO 0x0E5B
444: 0x0E4F [0x4A] LocalPlayer looks at T (ID: 17764636/0x010F111C)
445: 0x0E58 [0x01] GOTO 0x0FFF
446: 0x0E5B [0x02] IF !(ExtData[1]->WorkLocal[0] == 4*) GOTO 0x0E6F
447: 0x0E63 [0x4A] LocalPlayer looks at P (ID: 17764637/0x010F111D)
448: 0x0E6C [0x01] GOTO 0x0FFF
449: 0x0E6F [0x02] IF !(ExtData[1]->WorkLocal[0] == 5*) GOTO 0x0E83
450: 0x0E77 [0x4A] LocalPlayer looks at A (ID: 17764638/0x010F111E)
451: 0x0E80 [0x01] GOTO 0x0FFF
452: 0x0E83 [0x02] IF !(ExtData[1]->WorkLocal[0] == 6*) GOTO 0x0E97
453: 0x0E8B [0x4A] LocalPlayer looks at S (ID: 17764639/0x010F111F)
454: 0x0E94 [0x01] GOTO 0x0FFF
455: 0x0E97 [0x02] IF !(ExtData[1]->WorkLocal[0] == 7*) GOTO 0x0EAB
456: 0x0E9F [0x4A] LocalPlayer looks at D (ID: 17764640/0x010F1120)
457: 0x0EA8 [0x01] GOTO 0x0FFF
458: 0x0EAB [0x02] IF !(ExtData[1]->WorkLocal[0] == 8*) GOTO 0x0EBF
459: 0x0EB3 [0x4A] LocalPlayer looks at F (ID: 17764641/0x010F1121)
460: 0x0EBC [0x01] GOTO 0x0FFF
461: 0x0EBF [0x02] IF !(ExtData[1]->WorkLocal[0] == 9*) GOTO 0x0ED3
462: 0x0EC7 [0x4A] LocalPlayer looks at G (ID: 17764642/0x010F1122)
463: 0x0ED0 [0x01] GOTO 0x0FFF
464: 0x0ED3 [0x02] IF !(ExtData[1]->WorkLocal[0] == 10*) GOTO 0x0EE7
465: 0x0EDB [0x4A] LocalPlayer looks at H (ID: 17764643/0x010F1123)
466: 0x0EE4 [0x01] GOTO 0x0FFF
467: 0x0EE7 [0x02] IF !(ExtData[1]->WorkLocal[0] == 11*) GOTO 0x0EFB
468: 0x0EEF [0x4A] LocalPlayer looks at J (ID: 17764644/0x010F1124)
469: 0x0EF8 [0x01] GOTO 0x0FFF
470: 0x0EFB [0x02] IF !(ExtData[1]->WorkLocal[0] == 12*) GOTO 0x0F0F
471: 0x0F03 [0x4A] LocalPlayer looks at K (ID: 17764645/0x010F1125)
472: 0x0F0C [0x01] GOTO 0x0FFF
473: 0x0F0F [0x02] IF !(ExtData[1]->WorkLocal[0] == 13*) GOTO 0x0F23
474: 0x0F17 [0x4A] LocalPlayer looks at Z (ID: 17764646/0x010F1126)
475: 0x0F20 [0x01] GOTO 0x0FFF
476: 0x0F23 [0x02] IF !(ExtData[1]->WorkLocal[0] == 14*) GOTO 0x0F37
477: 0x0F2B [0x4A] LocalPlayer looks at X (ID: 17764647/0x010F1127)
478: 0x0F34 [0x01] GOTO 0x0FFF
479: 0x0F37 [0x02] IF !(ExtData[1]->WorkLocal[0] == 15*) GOTO 0x0F4B
480: 0x0F3F [0x4A] LocalPlayer looks at C (ID: 17764648/0x010F1128)
481: 0x0F48 [0x01] GOTO 0x0FFF
482: 0x0F4B [0x02] IF !(ExtData[1]->WorkLocal[0] == 16*) GOTO 0x0F5F
483: 0x0F53 [0x4A] LocalPlayer looks at B (ID: 17764649/0x010F1129)
484: 0x0F5C [0x01] GOTO 0x0FFF
485: 0x0F5F [0x02] IF !(ExtData[1]->WorkLocal[0] == 17*) GOTO 0x0F73
486: 0x0F67 [0x4A] LocalPlayer looks at N (ID: 17764650/0x010F112A)
487: 0x0F70 [0x01] GOTO 0x0FFF
488: 0x0F73 [0x02] IF !(ExtData[1]->WorkLocal[0] == 18*) GOTO 0x0F87
489: 0x0F7B [0x4A] LocalPlayer looks at M (ID: 17764651/0x010F112B)
490: 0x0F84 [0x01] GOTO 0x0FFF
491: 0x0F87 [0x02] IF !(ExtData[1]->WorkLocal[0] == 19*) GOTO 0x0F9B
492: 0x0F8F [0x4A] LocalPlayer looks at Unnamed NPC (ID: 17764652/0x010F112C)
493: 0x0F98 [0x01] GOTO 0x0FFF
494: 0x0F9B [0x02] IF !(ExtData[1]->WorkLocal[0] == 20*) GOTO 0x0FAF
495: 0x0FA3 [0x4A] LocalPlayer looks at Unnamed NPC (ID: 17764653/0x010F112D)
496: 0x0FAC [0x01] GOTO 0x0FFF
497: 0x0FAF [0x02] IF !(ExtData[1]->WorkLocal[0] == 21*) GOTO 0x0FC3
498: 0x0FB7 [0x4A] LocalPlayer looks at C (ID: 17764654/0x010F112E)
499: 0x0FC0 [0x01] GOTO 0x0FFF
500: 0x0FC3 [0x02] IF !(ExtData[1]->WorkLocal[0] == 22*) GOTO 0x0FD7
501: 0x0FCB [0x4A] LocalPlayer looks at Unnamed NPC (ID: 17764655/0x010F112F)
502: 0x0FD4 [0x01] GOTO 0x0FFF
503: 0x0FD7 [0x02] IF !(ExtData[1]->WorkLocal[0] == 23*) GOTO 0x0FEB
504: 0x0FDF [0x4A] LocalPlayer looks at Unnamed NPC (ID: 17764656/0x010F1130)
505: 0x0FE8 [0x01] GOTO 0x0FFF
506: 0x0FEB [0x02] IF !(ExtData[1]->WorkLocal[0] == 24*) GOTO 0x0FFF
507: 0x0FF3 [0x4A] LocalPlayer looks at Unnamed NPC (ID: 17764657/0x010F1131)
508: 0x0FFC [0x01] GOTO 0x0FFF

SUBROUTINE_0FFF:
509: 0x0FFF [0x1B] RETURN
```

#### Data or dead code:

```
# Dead code (unreachable instructions):
     0x0641 [0x01] GOTO 0x0655
     0x0652 [0x01] GOTO 0x0655
# Dead code (unreachable instructions):
     0x072C [0x01] GOTO 0x07FA
     0x07E6 [0x01] GOTO 0x07F7
     0x07F4 [0x01] GOTO 0x07F7
# Dead code (unreachable instructions):
     0x0D75 [0x01] GOTO 0x0E04
     0x0E04 [0x01] GOTO 0x0E0A
     0x0E0A [0x00] END_REQSTACK()
```

### Event 842

#### Metadata

| Field        | Value      |
|--------------|------------|
| Entrypoint   | 0x1000     |
| Data Size    | 2227 bytes |
| Instructions | 275        |

```
      00 01 02 03 04 05 06 07  08 09 0A 0B 0C 0D 0E 0F
      -- -- -- -- -- -- -- --  -- -- -- -- -- -- -- --
1000: 42 69 00 0D 80 03 12 00  08 10 9C 13 00 03 0E 00  Bi..............
1010: 80 7F 03 0F 00 82 7F 03  10 00 81 7F 03 11 00 83  ................
1020: 7F 02 13 00 04 80 00 36  10 03 14 00 59 80 03 15  .......6....Y...
1030: 00 5A 80 01 40 10 03 14  00 5B 80 03 15 00 5C 80  .Z..@....[....\.
1040: 02 13 00 0A 80 00 48 10  06 01 10 92 01 F8 FF FF  ......H.........
1050: 7F 46 01 38 16 80 77 17  80 03 80 37 5D 80 5E 80  .F.8..w....7].^.
1060: 1A 80 5F 80 1E F8 FF FF  7F 2F 00 14 11 0F 01 4E  .._....../.....N
1070: 00 14 11 0F 01 28 80 14  11 0F 01 04 BA 14 11 0F  .....(..........
1080: 01 60 80 5E 80 1A 80 5F  80 2F 00 32 11 0F 01 4E  .`.^..._./.2...N
1090: 00 32 11 0F 01 2F 00 33  11 0F 01 4E 00 33 11 0F  .2.../.3...N.3..
10A0: 01 2F 00 34 11 0F 01 4E  00 34 11 0F 01 2F 00 35  ./.4...N.4.../.5
10B0: 11 0F 01 4E 00 35 11 0F  01 2F 00 36 11 0F 01 4E  ...N.5.../.6...N
10C0: 00 36 11 0F 01 2F 00 37  11 0F 01 4E 00 37 11 0F  .6.../.7...N.7..
10D0: 01 02 13 00 0A 80 00 F3  10 03 00 00 5C 80 07 00  ............\...
10E0: 00 61 80 BA 37 11 0F 01  62 80 00 00 1A 80 5F 80  .a..7...b....._.
10F0: 01 00 11 BA 37 11 0F 01  63 80 64 80 1A 80 5F 80  ....7...c.d..._.
1100: 2F 00 38 11 0F 01 4E 00  38 11 0F 01 2F 00 19 11  /.8...N.8.../...
1110: 0F 01 4E 00 19 11 0F 01  2F 00 1A 11 0F 01 4E 00  ..N...../.....N.
1120: 1A 11 0F 01 2F 00 1B 11  0F 01 4E 00 1B 11 0F 01  ..../.....N.....
1130: 2F 00 1C 11 0F 01 4E 00  1C 11 0F 01 2F 00 1D 11  /.....N...../...
1140: 0F 01 4E 00 1D 11 0F 01  2F 00 1E 11 0F 01 4E 00  ..N...../.....N.
1150: 1E 11 0F 01 2F 00 1F 11  0F 01 4E 00 1F 11 0F 01  ..../.....N.....
1160: 2F 00 20 11 0F 01 4E 00  20 11 0F 01 2F 00 21 11  /. ...N. .../.!.
1170: 0F 01 4E 00 21 11 0F 01  2F 00 22 11 0F 01 4E 00  ..N.!.../."...N.
1180: 22 11 0F 01 2F 00 23 11  0F 01 4E 00 23 11 0F 01  ".../.#...N.#...
1190: 2F 00 24 11 0F 01 4E 00  24 11 0F 01 2F 00 25 11  /.$...N.$.../.%.
11A0: 0F 01 4E 00 25 11 0F 01  2F 00 26 11 0F 01 4E 00  ..N.%.../.&...N.
11B0: 26 11 0F 01 2F 00 27 11  0F 01 4E 00 27 11 0F 01  &.../.'...N.'...
11C0: 2F 00 28 11 0F 01 4E 00  28 11 0F 01 2F 00 29 11  /.(...N.(.../.).
11D0: 0F 01 4E 00 29 11 0F 01  2F 00 2A 11 0F 01 4E 00  ..N.).../.*...N.
11E0: 2A 11 0F 01 2F 00 2B 11  0F 01 4E 00 2B 11 0F 01  *.../.+...N.+...
11F0: 02 13 00 0A 80 00 1C 12  2F 00 2C 11 0F 01 4E 00  ......../.,...N.
1200: 2C 11 0F 01 2F 00 2D 11  0F 01 4E 00 2D 11 0F 01  ,.../.-...N.-...
1210: 2F 00 2E 11 0F 01 4E 00  2E 11 0F 01 BA 19 11 0F  /.....N.........
1220: 01 65 80 66 80 67 80 68  80 BA 1A 11 0F 01 69 80  .e.f.g.h......i.
1230: 66 80 67 80 68 80 BA 1B  11 0F 01 6A 80 66 80 67  f.g.h......j.f.g
1240: 80 68 80 BA 1C 11 0F 01  6B 80 66 80 67 80 68 80  .h......k.f.g.h.
1250: BA 1D 11 0F 01 6C 80 66  80 67 80 68 80 BA 1E 11  .....l.f.g.h....
1260: 0F 01 22 80 5A 80 67 80  68 80 BA 1F 11 0F 01 62  ..".Z.g.h......b
1270: 80 5A 80 67 80 68 80 BA  20 11 0F 01 6D 80 5A 80  .Z.g.h.. ...m.Z.
1280: 67 80 68 80 BA 21 11 0F  01 6E 80 5A 80 67 80 68  g.h..!...n.Z.g.h
1290: 80 BA 22 11 0F 01 6F 80  5A 80 67 80 68 80 BA 23  .."...o.Z.g.h..#
12A0: 11 0F 01 70 80 5A 80 67  80 68 80 BA 24 11 0F 01  ...p.Z.g.h..$...
12B0: 35 80 5A 80 67 80 68 80  BA 25 11 0F 01 5B 80 5A  5.Z.g.h..%...[.Z
12C0: 80 67 80 68 80 02 13 00  0A 80 00 E7 12 03 00 00  .g.h............
12D0: 64 80 07 00 00 71 80 BA  26 11 0F 01 63 80 00 00  d....q..&...c...
12E0: 67 80 68 80 01 F4 12 BA  26 11 0F 01 62 80 5C 80  g.h.....&...b.\.
12F0: 67 80 68 80 BA 27 11 0F  01 6D 80 5C 80 67 80 68  g.h..'...m.\.g.h
1300: 80 BA 28 11 0F 01 6E 80  5C 80 67 80 68 80 BA 29  ..(...n.\.g.h..)
1310: 11 0F 01 70 80 5C 80 67  80 68 80 BA 2A 11 0F 01  ...p.\.g.h..*...
1320: 35 80 5C 80 67 80 68 80  BA 2B 11 0F 01 14 00 15  5.\.g.h..+......
1330: 00 67 80 68 80 02 13 00  0A 80 00 64 13 BA 2C 11  .g.h.......d..,.
1340: 0F 01 72 80 66 80 67 80  68 80 BA 2D 11 0F 01 59  ..r.f.g.h..-...Y
1350: 80 5A 80 67 80 68 80 BA  2E 11 0F 01 73 80 5A 80  .Z.g.h......s.Z.
1360: 67 80 68 80 4A F0 FF FF  7F F0 FF FF 7F BA F0 FF  g.h.J...........
1370: FF 7F 74 80 5E 80 1A 80  5F 80 80 32 11 0F 01 80  ..t.^..._..2....
1380: 33 11 0F 01 80 34 11 0F  01 80 35 11 0F 01 80 36  3....4....5....6
1390: 11 0F 01 80 37 11 0F 01  80 38 11 0F 01 80 19 11  ....7....8......
13A0: 0F 01 80 1A 11 0F 01 80  1B 11 0F 01 80 1C 11 0F  ................
13B0: 01 80 1D 11 0F 01 80 1E  11 0F 01 80 1F 11 0F 01  ................
13C0: 80 20 11 0F 01 80 21 11  0F 01 80 22 11 0F 01 80  . ....!...."....
13D0: 23 11 0F 01 80 24 11 0F  01 80 25 11 0F 01 80 26  #....$....%....&
13E0: 11 0F 01 80 27 11 0F 01  80 28 11 0F 01 80 29 11  ....'....(....).
13F0: 0F 01 80 2A 11 0F 01 80  2B 11 0F 01 02 13 00 0A  ...*....+.......
1400: 80 00 13 14 80 2C 11 0F  01 80 2D 11 0F 01 80 2E  .....,....-.....
1410: 11 0F 01 45 20 80 F8 FF  FF 7F F8 FF FF 7F 73 30  ...E .........s0
1420: 31 33 03 80 45 02 80 F8  FF FF 7F F8 FF FF 7F 66  13..E..........f
1430: 64 69 31 03 80 55 02 80  F8 FF FF 7F F8 FF FF 7F  di1..U..........
1440: 66 64 69 30 1C 0C 80 03  06 00 5D 80 03 09 00 5F  fdi0......]...._
1450: 80 07 06 00 75 80 1F 00  06 00 5E 80 1A 80 1F 01  ....u.....^.....
1460: 39 09 00 03 00 17 74 80  07 00 17 76 80 03 01 17  9.....t....v....
1470: 5E 80 03 02 17 1A 80 03  03 17 5F 80 28 80 F0 FF  ^........._.(...
1480: FF 7F 72 03 0A 00 60 80  07 0A 00 77 80 03 00 17  ..r...`....w....
1490: 0A 00 03 01 17 5E 80 03  02 17 1A 80 29 80 14 11  .....^......)...
14A0: 0F 01 05 03 03 17 5F 80  28 80 14 11 0F 01 06 1C  ......_.(.......
14B0: 0C 80 28 80 14 11 0F 01  07 1C 27 80 66 06 80 F8  ..(.......'.f...
14C0: FF FF 7F F8 FF FF 7F 74  6C 6B 30 1D 78 80 23 1D  .......tlk0.x.#.
14D0: 79 80 23 03 02 10 0A 80  1D 7A 80 23 66 06 80 F8  y.#......z.#f...
14E0: FF FF 7F F8 FF FF 7F 74  6C 6B 31 28 80 39 11 0F  .......tlk1(.9..
14F0: 01 03 1C 0C 80 71 00 71  01 71 02 02 12 00 01 80  .....q.q.q......
1500: 00 07 15 48 7B 80 23 02  12 00 04 80 00 13 15 48  ...H{.#........H
1510: 7B 80 23 02 02 10 03 80  80 04 16 66 06 80 F8 FF  {.#........f....
1520: FF 7F F8 FF FF 7F 74 68  6B 31 1D 7C 80 23 66 06  ......thk1.|.#f.
1530: 80 F8 FF FF 7F F8 FF FF  7F 74 68 6B 32 24 2F 80  .........thk2$/.
1540: 01 80 03 80 25 02 00 10  03 80 00 EF 15 66 06 80  ....%........f..
1550: F8 FF FF 7F F8 FF FF 7F  64 69 73 30 1D 30 80 23  ........dis0.0.#
1560: 45 02 80 F8 FF FF 7F F8  FF FF 7F 66 64 6F 31 03  E..........fdo1.
1570: 80 55 02 80 F8 FF FF 7F  F8 FF FF 7F 66 64 6F 31  .U..........fdo1
1580: BA F0 FF FF 7F 0E 00 0F  00 10 00 11 00 5C 00 31  .............\.1
1590: 80 5C 01 31 80 52 20 80  F8 FF FF 7F F8 FF FF 7F  .\.1.R .........
15A0: 73 31 33 00 37 32 80 33  80 34 80 03 80 1E F0 FF  s13.72.3.4......
15B0: FF 7F 6F 70 78 38 03 80  46 00 45 02 80 F8 FF FF  ..opx8..F.E.....
15C0: 7F F8 FF FF 7F 66 64 69  31 03 80 55 02 80 F8 FF  .....fdi1..U....
15D0: FF 7F F8 FF FF 7F 66 64  69 30 1C 0C 80 02 12 00  ......fdi0......
15E0: 01 80 00 E6 15 21 03 01  10 0A 80 21 01 01 16 02  .....!.....!....
15F0: 00 10 01 80 00 01 16 1D  7D 80 23 01 F2 14 01 01  ........}.#.....
1600: 16 01 B2 18 02 02 10 01  80 80 01 17 AD 04 7E 80  ..............~.
1610: F0 FF FF 7F F0 FF FF 7F  1C 0C 80 6E F0 FF FF 7F  ...........n....
1620: 3C 80 99 F0 FF FF 7F 1C  27 80 7A 00 39 11 0F 01  <.......'.z.9...
1630: 28 80 14 11 0F 01 07 2B  14 11 0F 01 4F 80 23 1C  (......+....O.#.
1640: 0C 80 48 7F 80 23 1C 0C  80 6E F8 FF FF 7F 3D 80  ..H..#...n....=.
1650: 99 F8 FF FF 7F 1C 25 80  66 06 80 F8 FF FF 7F F8  ......%.f.......
1660: FF FF 7F 74 6C 6B 30 1D  80 80 23 1D 81 80 23 66  ...tlk0...#...#f
1670: 06 80 F8 FF FF 7F F8 FF  FF 7F 74 6C 6B 31 6E F0  ..........tlk1n.
1680: FF FF 7F 3D 80 99 F0 FF  FF 7F 99 F0 FF FF 7F 28  ...=...........(
1690: 80 14 11 0F 01 07 27 80  32 11 0F 01 04 27 80 33  ......'.2....'.3
16A0: 11 0F 01 04 27 80 34 11  0F 01 04 27 80 35 11 0F  ....'.4....'.5..
16B0: 01 02 27 80 36 11 0F 01  02 27 80 37 11 0F 01 02  ..'.6....'.7....
16C0: 27 80 38 11 0F 01 02 1C  27 80 02 12 00 01 80 00  '.8.....'.......
16D0: D3 16 21 45 02 80 F8 FF  FF 7F F8 FF FF 7F 66 64  ..!E..........fd
16E0: 6F 31 03 80 55 02 80 F8  FF FF 7F F8 FF FF 7F 66  o1..U..........f
16F0: 64 6F 31 03 01 10 00 80  30 69 01 0D 80 21 01 B2  do1.....0i...!..
1700: 18 02 02 10 00 80 80 B2  18 AD 04 7E 80 F0 FF FF  ...........~....
1710: 7F F0 FF FF 7F 1C 0C 80  6E F0 FF FF 7F 3C 80 99  ........n....<..
1720: F0 FF FF 7F 1C 27 80 2B  14 11 0F 01 49 80 23 1C  .....'.+....I.#.
1730: 0C 80 48 82 80 23 1C 0C  80 02 03 10 01 80 80 69  ..H..#.........i
1740: 17 66 06 80 F8 FF FF 7F  F8 FF FF 7F 74 68 6B 31  .f..........thk1
1750: 1D 83 80 23 66 06 80 F8  FF FF 7F F8 FF FF 7F 74  ...#f..........t
1760: 68 6B 32 01 F2 14 01 AF  18 02 03 10 00 80 80 99  hk2.............
1770: 17 66 06 80 F8 FF FF 7F  F8 FF FF 7F 74 68 6B 31  .f..........thk1
1780: 1D 84 80 23 66 06 80 F8  FF FF 7F F8 FF FF 7F 74  ...#f..........t
1790: 68 6B 32 01 F2 14 01 AF  18 02 03 10 0A 80 80 AF  hk2.............
17A0: 18 7A 00 39 11 0F 01 66  06 80 F8 FF FF 7F F8 FF  .z.9...f........
17B0: FF 7F 64 69 73 30 1D 4D  80 23 6E F0 FF FF 7F 43  ..dis0.M.#n....C
17C0: 80 99 F0 FF FF 7F 99 F0  FF FF 7F 28 80 14 11 0F  ...........(....
17D0: 01 09 48 4E 80 23 1C 0C  80 66 06 80 F8 FF FF 7F  ..HN.#...f......
17E0: F8 FF FF 7F 74 6C 6B 30  1D 08 80 23 66 06 80 F8  ....tlk0...#f...
17F0: FF FF 7F F8 FF FF 7F 74  6C 6B 31 66 06 80 F8 FF  .......tlk1f....
1800: FF 7F F8 FF FF 7F 74 68  6B 31 1D 09 80 23 66 06  ......thk1...#f.
1810: 80 F8 FF FF 7F F8 FF FF  7F 74 68 6B 32 1C 0C 80  .........thk2...
1820: 45 02 80 F8 FF FF 7F F8  FF FF 7F 66 64 6F 31 03  E..........fdo1.
1830: 80 55 02 80 F8 FF FF 7F  F8 FF FF 7F 66 64 6F 31  .U..........fdo1
1840: BA F0 FF FF 7F 0E 00 0F  00 10 00 11 00 5C 00 31  .............\.1
1850: 80 5C 01 31 80 52 20 80  F8 FF FF 7F F8 FF FF 7F  .\.1.R .........
1860: 73 31 33 00 37 32 80 33  80 34 80 03 80 1E F0 FF  s13.72.3.4......
1870: FF 7F 6F 70 78 38 03 80  46 00 45 02 80 F8 FF FF  ..opx8..F.E.....
1880: 7F F8 FF FF 7F 66 64 69  31 03 80 55 02 80 F8 FF  .....fdi1..U....
1890: FF 7F F8 FF FF 7F 66 64  69 30 1C 0C 80 02 12 00  ......fdi0......
18A0: 01 80 00 A6 18 21 03 01  10 01 80 21 01 AF 18 01  .....!.....!....
18B0: B2 18 00                                          ...             
```

#### Opcodes

```
  0: 0x1000 [0x42] SET_CLI_EVENT_CANCEL_DATA()
  1: 0x1001 [0x69] SET_SOUND_VOLUME: Unmute Effects/Zone/Master
  2: 0x1005 [0x03] ExtData[1]->WorkLocal[18] = Work_Zone[8]
  3: 0x100A [0x9C] STORE_CLIENT_LANGUAGE_ID(result=0x13)
  4: 0x100D [0x03] ExtData[1]->WorkLocal[14] = LocalPlayer->LocalPosition.LocalX * 1000.0
  5: 0x1012 [0x03] ExtData[1]->WorkLocal[15] = LocalPlayer->LocalPosition.LocalY * 1000.0
  6: 0x1017 [0x03] ExtData[1]->WorkLocal[16] = LocalPlayer->LocalPosition.LocalZ * 1000.0
  7: 0x101C [0x03] ExtData[1]->WorkLocal[17] = enDirCli(LocalPlayer->LocalPosition.Unknown0000) * 4096.0 * 0.15915963
  8: 0x1021 [0x02] IF !(ExtData[1]->WorkLocal[19] == 4*) GOTO 0x1036
  9: 0x1029 [0x03] ExtData[1]->WorkLocal[20] = 1250*
 10: 0x102E [0x03] ExtData[1]->WorkLocal[21] = 4294918296*
 11: 0x1033 [0x01] GOTO 0x1040
 12: 0x1036 [0x03] ExtData[1]->WorkLocal[20] = 4294967046*
 13: 0x103B [0x03] ExtData[1]->WorkLocal[21] = 4294917296*

SUBROUTINE_1040:
 14: 0x1040 [0x02] IF !(ExtData[1]->WorkLocal[19] == 3*) GOTO 0x1048
 15: 0x1048 [0x06] Work_Zone[1] = 0
 16: 0x104B [0x92] EventEntity->Render.Flags3 ^= 0x01
 17: 0x1051 [0x46] CAMERA_CONTROL: Disable user control
 18: 0x1053 [0x38] SET_CLIENT_EVENT_MODE(mode=27*)
 19: 0x1056 [0x77] SET_EVENT_TIME_WEATHER(hour=15*, weather=0*)
 20: 0x105B [0x37] UPDATE_EVENT_POSITION_AND_DIR: x=6.750*, z=-46.500*, y=3.000*, direction=89.9°*
 21: 0x1064 [0x1E] EventEntity looks at EventEntity and starts talking
 22: 0x1069 [0x2F] Chocobo (ID: 17764628/0x010F1114)->Render.Flags0 &= ~0x80000 // Bit 19
 23: 0x106F [0x4E] SET_ENTITY_HIDE_FLAG: Show Chocobo (ID: 17764628/0x010F1114)
 24: 0x1075 [0x28] REQ_SET_WITH_CONDITIONS(priority=0x80, target_entity=Chocobo (ID: 17764628/0x010F1114), tag_num=0x04)
 25: 0x107C [0xBA] SET_ENTITY_POSITION(entity_id=Chocobo (ID: 17764628/0x010F1114), pos_x=-12.250*, pos_z=-46.500*, pos_y=3.000*, direction=89.9°*)
 26: 0x1089 [0x2F] I (ID: 17764658/0x010F1132)->Render.Flags0 &= ~0x80000 // Bit 19
 27: 0x108F [0x4E] SET_ENTITY_HIDE_FLAG: Show I (ID: 17764658/0x010F1132)
 28: 0x1095 [0x2F] L (ID: 17764659/0x010F1133)->Render.Flags0 &= ~0x80000 // Bit 19
 29: 0x109B [0x4E] SET_ENTITY_HIDE_FLAG: Show L (ID: 17764659/0x010F1133)
 30: 0x10A1 [0x2F] O (ID: 17764660/0x010F1134)->Render.Flags0 &= ~0x80000 // Bit 19
 31: 0x10A7 [0x4E] SET_ENTITY_HIDE_FLAG: Show O (ID: 17764660/0x010F1134)
 32: 0x10AD [0x2F] V (ID: 17764661/0x010F1135)->Render.Flags0 &= ~0x80000 // Bit 19
 33: 0x10B3 [0x4E] SET_ENTITY_HIDE_FLAG: Show V (ID: 17764661/0x010F1135)
 34: 0x10B9 [0x2F] E (ID: 17764662/0x010F1136)->Render.Flags0 &= ~0x80000 // Bit 19
 35: 0x10BF [0x4E] SET_ENTITY_HIDE_FLAG: Show E (ID: 17764662/0x010F1136)
 36: 0x10C5 [0x2F] Y (ID: 17764663/0x010F1137)->Render.Flags0 &= ~0x80000 // Bit 19
 37: 0x10CB [0x4E] SET_ENTITY_HIDE_FLAG: Show Y (ID: 17764663/0x010F1137)
 38: 0x10D1 [0x02] IF !(ExtData[1]->WorkLocal[19] == 3*) GOTO 0x10F3
 39: 0x10D9 [0x03] ExtData[1]->WorkLocal[0] = 4294917296*
 40: 0x10DE [0x07] ExtData[1]->WorkLocal[0] += 4294967196*
 41: 0x10E3 [0xBA] SET_ENTITY_POSITION(entity_id=Y (ID: 17764663/0x010F1137), pos_x=-4.750*, pos_z=ExtData[1]->WorkLocal[0], pos_y=3.000*, direction=89.9°*)
 42: 0x10F0 [0x01] GOTO 0x1100
 43: 0x10F3 [0xBA] SET_ENTITY_POSITION(entity_id=Y (ID: 17764663/0x010F1137), pos_x=-2.250*, pos_z=-48.100*, pos_y=3.000*, direction=89.9°*)

SUBROUTINE_1100:
 44: 0x1100 [0x2F] U (ID: 17764664/0x010F1138)->Render.Flags0 &= ~0x80000 // Bit 19
 45: 0x1106 [0x4E] SET_ENTITY_HIDE_FLAG: Show U (ID: 17764664/0x010F1138)
 46: 0x110C [0x2F] Q (ID: 17764633/0x010F1119)->Render.Flags0 &= ~0x80000 // Bit 19
 47: 0x1112 [0x4E] SET_ENTITY_HIDE_FLAG: Show Q (ID: 17764633/0x010F1119)
 48: 0x1118 [0x2F] W (ID: 17764634/0x010F111A)->Render.Flags0 &= ~0x80000 // Bit 19
 49: 0x111E [0x4E] SET_ENTITY_HIDE_FLAG: Show W (ID: 17764634/0x010F111A)
 50: 0x1124 [0x2F] R (ID: 17764635/0x010F111B)->Render.Flags0 &= ~0x80000 // Bit 19
 51: 0x112A [0x4E] SET_ENTITY_HIDE_FLAG: Show R (ID: 17764635/0x010F111B)
 52: 0x1130 [0x2F] T (ID: 17764636/0x010F111C)->Render.Flags0 &= ~0x80000 // Bit 19
 53: 0x1136 [0x4E] SET_ENTITY_HIDE_FLAG: Show T (ID: 17764636/0x010F111C)
 54: 0x113C [0x2F] P (ID: 17764637/0x010F111D)->Render.Flags0 &= ~0x80000 // Bit 19
 55: 0x1142 [0x4E] SET_ENTITY_HIDE_FLAG: Show P (ID: 17764637/0x010F111D)
 56: 0x1148 [0x2F] A (ID: 17764638/0x010F111E)->Render.Flags0 &= ~0x80000 // Bit 19
 57: 0x114E [0x4E] SET_ENTITY_HIDE_FLAG: Show A (ID: 17764638/0x010F111E)
 58: 0x1154 [0x2F] S (ID: 17764639/0x010F111F)->Render.Flags0 &= ~0x80000 // Bit 19
 59: 0x115A [0x4E] SET_ENTITY_HIDE_FLAG: Show S (ID: 17764639/0x010F111F)
 60: 0x1160 [0x2F] D (ID: 17764640/0x010F1120)->Render.Flags0 &= ~0x80000 // Bit 19
 61: 0x1166 [0x4E] SET_ENTITY_HIDE_FLAG: Show D (ID: 17764640/0x010F1120)
 62: 0x116C [0x2F] F (ID: 17764641/0x010F1121)->Render.Flags0 &= ~0x80000 // Bit 19
 63: 0x1172 [0x4E] SET_ENTITY_HIDE_FLAG: Show F (ID: 17764641/0x010F1121)
 64: 0x1178 [0x2F] G (ID: 17764642/0x010F1122)->Render.Flags0 &= ~0x80000 // Bit 19
 65: 0x117E [0x4E] SET_ENTITY_HIDE_FLAG: Show G (ID: 17764642/0x010F1122)
 66: 0x1184 [0x2F] H (ID: 17764643/0x010F1123)->Render.Flags0 &= ~0x80000 // Bit 19
 67: 0x118A [0x4E] SET_ENTITY_HIDE_FLAG: Show H (ID: 17764643/0x010F1123)
 68: 0x1190 [0x2F] J (ID: 17764644/0x010F1124)->Render.Flags0 &= ~0x80000 // Bit 19
 69: 0x1196 [0x4E] SET_ENTITY_HIDE_FLAG: Show J (ID: 17764644/0x010F1124)
 70: 0x119C [0x2F] K (ID: 17764645/0x010F1125)->Render.Flags0 &= ~0x80000 // Bit 19
 71: 0x11A2 [0x4E] SET_ENTITY_HIDE_FLAG: Show K (ID: 17764645/0x010F1125)
 72: 0x11A8 [0x2F] Z (ID: 17764646/0x010F1126)->Render.Flags0 &= ~0x80000 // Bit 19
 73: 0x11AE [0x4E] SET_ENTITY_HIDE_FLAG: Show Z (ID: 17764646/0x010F1126)
 74: 0x11B4 [0x2F] X (ID: 17764647/0x010F1127)->Render.Flags0 &= ~0x80000 // Bit 19
 75: 0x11BA [0x4E] SET_ENTITY_HIDE_FLAG: Show X (ID: 17764647/0x010F1127)
 76: 0x11C0 [0x2F] C (ID: 17764648/0x010F1128)->Render.Flags0 &= ~0x80000 // Bit 19
 77: 0x11C6 [0x4E] SET_ENTITY_HIDE_FLAG: Show C (ID: 17764648/0x010F1128)
 78: 0x11CC [0x2F] B (ID: 17764649/0x010F1129)->Render.Flags0 &= ~0x80000 // Bit 19
 79: 0x11D2 [0x4E] SET_ENTITY_HIDE_FLAG: Show B (ID: 17764649/0x010F1129)
 80: 0x11D8 [0x2F] N (ID: 17764650/0x010F112A)->Render.Flags0 &= ~0x80000 // Bit 19
 81: 0x11DE [0x4E] SET_ENTITY_HIDE_FLAG: Show N (ID: 17764650/0x010F112A)
 82: 0x11E4 [0x2F] M (ID: 17764651/0x010F112B)->Render.Flags0 &= ~0x80000 // Bit 19
 83: 0x11EA [0x4E] SET_ENTITY_HIDE_FLAG: Show M (ID: 17764651/0x010F112B)
 84: 0x11F0 [0x02] IF !(ExtData[1]->WorkLocal[19] == 3*) GOTO 0x121C
 85: 0x11F8 [0x2F] Unnamed NPC (ID: 17764652/0x010F112C)->Render.Flags0 &= ~0x80000 // Bit 19
 86: 0x11FE [0x4E] SET_ENTITY_HIDE_FLAG: Show Unnamed NPC (ID: 17764652/0x010F112C)
 87: 0x1204 [0x2F] Unnamed NPC (ID: 17764653/0x010F112D)->Render.Flags0 &= ~0x80000 // Bit 19
 88: 0x120A [0x4E] SET_ENTITY_HIDE_FLAG: Show Unnamed NPC (ID: 17764653/0x010F112D)
 89: 0x1210 [0x2F] C (ID: 17764654/0x010F112E)->Render.Flags0 &= ~0x80000 // Bit 19
 90: 0x1216 [0x4E] SET_ENTITY_HIDE_FLAG: Show C (ID: 17764654/0x010F112E)
 91: 0x121C [0xBA] SET_ENTITY_POSITION(entity_id=Q (ID: 17764633/0x010F1119), pos_x=-6.000*, pos_z=-48.000*, pos_y=3.730*, direction=377476129.3°*)
 92: 0x1229 [0xBA] SET_ENTITY_POSITION(entity_id=W (ID: 17764634/0x010F111A), pos_x=-5.250*, pos_z=-48.000*, pos_y=3.730*, direction=377476129.3°*)
 93: 0x1236 [0xBA] SET_ENTITY_POSITION(entity_id=R (ID: 17764635/0x010F111B), pos_x=-3.750*, pos_z=-48.000*, pos_y=3.730*, direction=377476129.3°*)
 94: 0x1243 [0xBA] SET_ENTITY_POSITION(entity_id=T (ID: 17764636/0x010F111C), pos_x=-3.000*, pos_z=-48.000*, pos_y=3.730*, direction=377476129.3°*)
 95: 0x1250 [0xBA] SET_ENTITY_POSITION(entity_id=P (ID: 17764637/0x010F111D), pos_x=0.750*, pos_z=-48.000*, pos_y=3.730*, direction=377476129.3°*)
 96: 0x125D [0xBA] SET_ENTITY_POSITION(entity_id=A (ID: 17764638/0x010F111E), pos_x=-5.500*, pos_z=-49.000*, pos_y=3.730*, direction=377476129.3°*)
 97: 0x126A [0xBA] SET_ENTITY_POSITION(entity_id=S (ID: 17764639/0x010F111F), pos_x=-4.750*, pos_z=-49.000*, pos_y=3.730*, direction=377476129.3°*)
 98: 0x1277 [0xBA] SET_ENTITY_POSITION(entity_id=D (ID: 17764640/0x010F1120), pos_x=-4.000*, pos_z=-49.000*, pos_y=3.730*, direction=377476129.3°*)
 99: 0x1284 [0xBA] SET_ENTITY_POSITION(entity_id=F (ID: 17764641/0x010F1121), pos_x=-3.250*, pos_z=-49.000*, pos_y=3.730*, direction=377476129.3°*)
100: 0x1291 [0xBA] SET_ENTITY_POSITION(entity_id=G (ID: 17764642/0x010F1122), pos_x=-2.500*, pos_z=-49.000*, pos_y=3.730*, direction=377476129.3°*)
101: 0x129E [0xBA] SET_ENTITY_POSITION(entity_id=H (ID: 17764643/0x010F1123), pos_x=-1.750*, pos_z=-49.000*, pos_y=3.730*, direction=377476129.3°*)
102: 0x12AB [0xBA] SET_ENTITY_POSITION(entity_id=J (ID: 17764644/0x010F1124), pos_x=-1.000*, pos_z=-49.000*, pos_y=3.730*, direction=377476129.3°*)
103: 0x12B8 [0xBA] SET_ENTITY_POSITION(entity_id=K (ID: 17764645/0x010F1125), pos_x=-0.250*, pos_z=-49.000*, pos_y=3.730*, direction=377476129.3°*)
104: 0x12C5 [0x02] IF !(ExtData[1]->WorkLocal[19] == 3*) GOTO 0x12E7
105: 0x12CD [0x03] ExtData[1]->WorkLocal[0] = 4294919196*
106: 0x12D2 [0x07] ExtData[1]->WorkLocal[0] += 100*
107: 0x12D7 [0xBA] SET_ENTITY_POSITION(entity_id=Z (ID: 17764646/0x010F1126), pos_x=-2.250*, pos_z=ExtData[1]->WorkLocal[0], pos_y=3.730*, direction=377476129.3°*)
108: 0x12E4 [0x01] GOTO 0x12F4
109: 0x12E7 [0xBA] SET_ENTITY_POSITION(entity_id=Z (ID: 17764646/0x010F1126), pos_x=-4.750*, pos_z=-50.000*, pos_y=3.730*, direction=377476129.3°*)

SUBROUTINE_12F4:
110: 0x12F4 [0xBA] SET_ENTITY_POSITION(entity_id=X (ID: 17764647/0x010F1127), pos_x=-4.000*, pos_z=-50.000*, pos_y=3.730*, direction=377476129.3°*)
111: 0x1301 [0xBA] SET_ENTITY_POSITION(entity_id=C (ID: 17764648/0x010F1128), pos_x=-3.250*, pos_z=-50.000*, pos_y=3.730*, direction=377476129.3°*)
112: 0x130E [0xBA] SET_ENTITY_POSITION(entity_id=B (ID: 17764649/0x010F1129), pos_x=-1.750*, pos_z=-50.000*, pos_y=3.730*, direction=377476129.3°*)
113: 0x131B [0xBA] SET_ENTITY_POSITION(entity_id=N (ID: 17764650/0x010F112A), pos_x=-1.000*, pos_z=-50.000*, pos_y=3.730*, direction=377476129.3°*)
114: 0x1328 [0xBA] SET_ENTITY_POSITION(entity_id=M (ID: 17764651/0x010F112B), pos_x=ExtData[1]->WorkLocal[20], pos_z=ExtData[1]->WorkLocal[21], pos_y=3.730*, direction=377476129.3°*)
115: 0x1335 [0x02] IF !(ExtData[1]->WorkLocal[19] == 3*) GOTO 0x1364
116: 0x133D [0xBA] SET_ENTITY_POSITION(entity_id=Unnamed NPC (ID: 17764652/0x010F112C), pos_x=1.500*, pos_z=-48.000*, pos_y=3.730*, direction=377476129.3°*)
117: 0x134A [0xBA] SET_ENTITY_POSITION(entity_id=Unnamed NPC (ID: 17764653/0x010F112D), pos_x=1.250*, pos_z=-49.000*, pos_y=3.730*, direction=377476129.3°*)
118: 0x1357 [0xBA] SET_ENTITY_POSITION(entity_id=C (ID: 17764654/0x010F112E), pos_x=2.000*, pos_z=-49.000*, pos_y=3.730*, direction=377476129.3°*)
119: 0x1364 [0x4A] LocalPlayer looks at LocalPlayer
120: 0x136D [0xBA] SET_ENTITY_POSITION(entity_id=LocalPlayer, pos_x=7.750*, pos_z=-46.500*, pos_y=3.000*, direction=89.9°*)
121: 0x137A [0x80] LOAD_WAIT(entity=I (ID: 17764658/0x010F1132))
122: 0x137F [0x80] LOAD_WAIT(entity=L (ID: 17764659/0x010F1133))
123: 0x1384 [0x80] LOAD_WAIT(entity=O (ID: 17764660/0x010F1134))
124: 0x1389 [0x80] LOAD_WAIT(entity=V (ID: 17764661/0x010F1135))
125: 0x138E [0x80] LOAD_WAIT(entity=E (ID: 17764662/0x010F1136))
126: 0x1393 [0x80] LOAD_WAIT(entity=Y (ID: 17764663/0x010F1137))
127: 0x1398 [0x80] LOAD_WAIT(entity=U (ID: 17764664/0x010F1138))
128: 0x139D [0x80] LOAD_WAIT(entity=Q (ID: 17764633/0x010F1119))
129: 0x13A2 [0x80] LOAD_WAIT(entity=W (ID: 17764634/0x010F111A))
130: 0x13A7 [0x80] LOAD_WAIT(entity=R (ID: 17764635/0x010F111B))
131: 0x13AC [0x80] LOAD_WAIT(entity=T (ID: 17764636/0x010F111C))
132: 0x13B1 [0x80] LOAD_WAIT(entity=P (ID: 17764637/0x010F111D))
