# 17764375 - Kororo

## Common Data

| Field            | Value                    |
|------------------|--------------------------|
| Zone             | Windurst Woods (ID: 241) |
| Block Size       | 2068 bytes               |
| Total Events     | 59                       |
| References Count | 64                       |

## List of Events

| Event ID                   | Entrypoint   |   Size |   Instructions |
|----------------------------|--------------|--------|----------------|
| [65535](#event-65535)      | 0x0000       |      1 |              1 |
| [65535.1](#event-655351)   | 0x0001       |     16 |              2 |
| [65535.2](#event-655352)   | 0x0011       |     22 |              4 |
| [65535.3](#event-655353)   | 0x0027       |     16 |              2 |
| [65535.4](#event-655354)   | 0x0037       |     14 |              2 |
| [65535.5](#event-655355)   | 0x0045       |     16 |              2 |
| [65535.6](#event-655356)   | 0x0055       |     14 |              2 |
| [65535.7](#event-655357)   | 0x0063       |     16 |              2 |
| [65535.8](#event-655358)   | 0x0073       |     14 |              2 |
| [65535.9](#event-655359)   | 0x0081       |     16 |              2 |
| [65535.10](#event-6553510) | 0x0091       |     14 |              2 |
| [65535.11](#event-6553511) | 0x009F       |     16 |              2 |
| [65535.12](#event-6553512) | 0x00AF       |     14 |              2 |
| [65535.13](#event-6553513) | 0x00BD       |     16 |              2 |
| [65535.14](#event-6553514) | 0x00CD       |     22 |              4 |
| [65535.15](#event-6553515) | 0x00E3       |     16 |              2 |
| [65535.16](#event-6553516) | 0x00F3       |     14 |              2 |
| [65535.17](#event-6553517) | 0x0101       |     24 |              4 |
| [65535.18](#event-6553518) | 0x0119       |     14 |              2 |
| [65535.19](#event-6553519) | 0x0127       |      9 |              3 |
| [277](#event-277)          | 0x0130       |     36 |             13 |
| [141](#event-141)          | 0x0154       |     36 |             13 |
| [148](#event-148)          | 0x0178       |     36 |             13 |
| [291](#event-291)          | 0x019C       |     36 |             13 |
| [295](#event-295)          | 0x01C0       |      1 |              1 |
| [65535.20](#event-6553520) | 0x01C1       |     19 |              5 |
| [296](#event-296)          | 0x01D4       |     32 |             11 |
| [298](#event-298)          | 0x01F4       |     86 |             19 |
| [65535.21](#event-6553521) | 0x024A       |     23 |              7 |
| [65535.22](#event-6553522) | 0x0261       |     23 |              7 |
| [65535.23](#event-6553523) | 0x0278       |     22 |              6 |
| [65535.24](#event-6553524) | 0x028E       |     62 |             14 |
| [65535.25](#event-6553525) | 0x02CC       |     19 |              5 |
| [299](#event-299)          | 0x02DF       |     36 |             13 |
| [303](#event-303)          | 0x0303       |     71 |             19 |
| [65535.26](#event-6553526) | 0x034A       |     19 |              5 |
| [65535.27](#event-6553527) | 0x035D       |      5 |              3 |
| [65535.28](#event-6553528) | 0x0362       |     23 |              7 |
| [304](#event-304)          | 0x0379       |     36 |             13 |
| [312](#event-312)          | 0x039D       |     36 |             13 |
| [317](#event-317)          | 0x03C1       |     36 |             13 |
| [394](#event-394)          | 0x03E5       |     36 |             13 |
| [399](#event-399)          | 0x0409       |     36 |             13 |
| [319](#event-319)          | 0x042D       |      1 |              1 |
| [321](#event-321)          | 0x042E       |     36 |             13 |
| [331](#event-331)          | 0x0452       |     36 |             13 |
| [604](#event-604)          | 0x0476       |     50 |             15 |
| [608](#event-608)          | 0x04A8       |     64 |             17 |
| [137](#event-137)          | 0x04E8       |      1 |              1 |
| [143](#event-143)          | 0x04E9       |      1 |              1 |
| [145](#event-145)          | 0x04EA       |      1 |              1 |
| [588](#event-588)          | 0x04EB       |      1 |              1 |
| [590](#event-590)          | 0x04EC       |      1 |              1 |
| [621](#event-621)          | 0x04ED       |      3 |              2 |
| [619](#event-619)          | 0x04F0       |      3 |              2 |
| [620](#event-620)          | 0x04F3       |      1 |              1 |
| [600](#event-600)          | 0x04F4       |      1 |              1 |
| [649](#event-649)          | 0x04F5       |     68 |             19 |
| [650](#event-650)          | 0x0539       |    223 |             54 |

## DAT References (imed_data)

|   Index | Hex Value   |   Dec Value |
|---------|-------------|-------------|
|       0 | 0x0028      |          40 |
|       1 | 0x001E      |          30 |
|       2 | 0x002A      |          42 |
|       3 | 0x1F77      |        8055 |
|       4 | 0x1F78      |        8056 |
|       5 | 0x1E50      |        7760 |
|       6 | 0x1E51      |        7761 |
|       7 | 0x1E63      |        7779 |
|       8 | 0x1E64      |        7780 |
|       9 | 0x1F98      |        8088 |
|      10 | 0x1F99      |        8089 |
|      11 | 0x1FAB      |        8107 |
|      12 | 0x1FAC      |        8108 |
|      13 | 0x1FB3      |        8115 |
|      14 | 0x0000      |           0 |
|      15 | 0x0001      |           1 |
|      16 | 0x0002      |           2 |
|      17 | 0x1FAF      |        8111 |
|      18 | 0x1FB0      |        8112 |
|      19 | 0x1FB1      |        8113 |
|      20 | 0x1FB2      |        8114 |
|      21 | 0x1FB4      |        8116 |
|      22 | 0x1FB5      |        8117 |
|      23 | 0x1FB6      |        8118 |
|      24 | 0x1FB7      |        8119 |
|      25 | 0x1FB8      |        8120 |
|      26 | 0x1FB9      |        8121 |
|      27 | 0x1FBA      |        8122 |
|      28 | 0x1FC1      |        8129 |
|      29 | 0x1FC3      |        8131 |
|      30 | 0x1FC2      |        8130 |
|      31 | 0x00C9      |         201 |
|      32 | 0x1FC4      |        8132 |
|      33 | 0x1FC5      |        8133 |
|      34 | 0x1FC6      |        8134 |
|      35 | 0x1FE3      |        8163 |
|      36 | 0x1FE4      |        8164 |
|      37 | 0x1FEF      |        8175 |
|      38 | 0x1FF0      |        8176 |
|      39 | 0x2112      |        8466 |
|      40 | 0x2113      |        8467 |
|      41 | 0x211D      |        8477 |
|      42 | 0x211E      |        8478 |
|      43 | 0x2002      |        8194 |
|      44 | 0x2003      |        8195 |
|      45 | 0x2029      |        8233 |
|      46 | 0x202A      |        8234 |
|      47 | 0x2536      |        9526 |
|      48 | 0x2537      |        9527 |
|      49 | 0x2553      |        9555 |
|      50 | 0x2554      |        9556 |
|      51 | 0x25C5      |        9669 |
|      52 | 0x25C6      |        9670 |
|      53 | 0x25C7      |        9671 |
|      54 | 0x25EB      |        9707 |
|      55 | 0x25EC      |        9708 |
|      56 | 0x25ED      |        9709 |
|      57 | 0x2E60      |       11872 |
|      58 | 0x0003      |           3 |
|      59 | 0x2E7C      |       11900 |
|      60 | 0x2E7D      |       11901 |
|      61 | 0x2E7E      |       11902 |
|      62 | 0x2E91      |       11921 |
|      63 | 0x2E92      |       11922 |

## String References

- **7760**: The reason that the life span of Cardians has become shortenedy is that the quality of the Mana Orbs has worsenedy.
- **7761**: Just when the monsters are growing strongery and we need more Cardians than ever before, too... I'd hate to think what lies aheady if things go on like this...
- **7779**: It's said that underneath the southwesterny tower of the Horutoto Ruins is the graveyardy where the souls of the thrown away Cardians lingery.
- **7780**: Minister Apururu once saidy that saving the souls of such automatonys is the responsibility of the Manustery.
- **8055**: I'm still newy around here, so they won't let me helpy out in creating Cardians yet.
- **8056**: But I so want to hurry up and test my strengthy. I bet I can make a really-weally strong Cardian!
- **8088**: Mister Kopuro-Popuro mixes and matches the magicky he casts on Cardians in order to animatey them.
- **8089**: The life-bringing magicky used on Cardians is extremely difficult to do. Wow, I hope if I keep practicing hard enoughy, I'll also be able to performy all sorts of variations of that magicky just like he does.
- **8107**: Don't go teachying that kiddy strange wordies! It's practically impossible to make Cardians forgety something once they memorizey it!
- **8108**: That Spare Oney there is but a newborny Cardian! So he memorizes anythingy and everythingy without reservation.
- **8111**: Hey, you therey! Remember that Cardiany you taught a silly greeting to the other day?
- **8112**: That poor Cardiany just wouldn't forgety the words you taughty it.
- **8113**: Seeing as it was you who taughty the poor thingy an inappropriate greeting, you should take responsibility for your actions and teachy him a correct way of greeting otheries!
- **8114**: If somethingy's not done, he'll have to livey in embarrassment as a poorly-trained Cardian for the resty of his days. Wouldn't that be a pity-wity?
- **8115**: Think it's pitiable? [Yes, that's sad./Not really...]
- **8116**: You inhumane brutey! Have you no feelingies?
- **8117**: As Cardians grow up and rise in ranky, their names changey. So, that Spare Cardian you spoke to backy then has a different namey that goes with the position he filledy.
- **8118**: I think his namey is now Five of something-or-othery...?
- **8119**: Well, I don't knowy...!? Their names changey so much, it's practically impossible to keep tracky of who's who!
- **8120**: Anyway, try going aroundy and talking to the Cardians of each suit with the namey "Five," and use the greeting you taught him as a signy to tell him apart from the otheries.
- **8121**: The Cardian whose lifey you ruined by teaching him a silly greeting should now be named Five of something-or-othery...?
- **8122**: Anyway, try going aroundy and talking to the Cardians of each suit with the namey "Five," and use the greeting you taught him as a signy to tell him apart from the otheries.
- **8129**: So, did you findy him...? What do you meany, he's outsidey of town? Eh? He's that far away from towny?
- **8130**: What's he doing in such a dangerous placey? We'd better hurry and send someone out to bring him backy! Here...takey this as a little thank-you for finding himy!
- **8131**: If he stays outside of towny too long, there's a chance people might mistakey him for one of those feral Cardians and killy him!
- **8132**: What's he doing in such a dangerous placey? We'd better hurry and send someone out to bring him backy!
- **8133**: If he stays outside of towny too long, there's a chance people might mistakey him for one of those feral Cardians and killy him!
- **8134**: What's he doing in such a dangerous placey? We'd better hurry and send someone out to bring him backy!
- **8163**: We've decided to go aheady with our Legendary Plan B--to make and sell special charmies that protect people who travel by nighty.
- **8164**: The best thingy is that they don't require any special magicky--so long as we have the right materialies, they are easy to makey!
- **8175**: It just goes to showy...if you have a fingery in more than one pie, you're going to get your fingers burnedy...
- **8176**: That was a good lessony in the nature of businessy. There are pitfalls in diversification after all.
- **8194**: No mattery how many times you experience it, saying our last goodbyes to our Cardian kiddies is a sorrowful thingy.
- **8195**: <sniff> It's all the more painfuly when it is a Cardiany you breathed life into and raised with your own handies. <sob> Waaah!
- **8233**: Ice in the shapey of a tear... Ice that didn't melty until it touched the handies of Boizo-Naizo... There are many unexplainable mysteries in this worldy.
- **8234**: Say... I wondery if Cardians can cry? There is no such devicey built into them to enabley them to, though...
- **8466**: The magic that we use to breathe life into the automaton dollies can be very dangerousy if used incorrectly.
- **8467**: It hasn't been as thoroughly researched or perfected as black or white magicy. Often its very use puts the caster herselfy in dangery.
- **8477**: Ooh, scary-warey! Don'ty you go disturbingy Minister Apururu now!
- **8478**: The magic needed to breathe lifey into a Cardian are all very delicate operationies. She has to keepy her concentration, she does!
- **9526**: "Rules were made to be broken." That way of thinking got Minister Ajido-Marujido thrown in the slammer-wammer.
- **9527**: And now his younger sister, Minister Apururu, has taken up the motto: "Jails were made to be broken."
- **9555**: I can'taru believe there was a jailbreaky! Minister Apururu is so cooly!
- **9556**: But I get the feelingy there was someone along to help her... It went just a little too well for one of Minister Apururu's schemeys.
- **9669**: Minister Apururu has been up late every night, researchingy the old Cardians made by Zonpa-Zippa.
- **9670**: It's really very simple if you wanted to disabley the old Cardians. All you would have to do is searchy out Minister Zonpa-Zippa and takey him out of the picture...
- **9671**: Wa-wa-wait! That justaru slippedy out! I don'taru want to go to the Dark Dungeon!
- **9707**: Minister Apururu is still studying the Cardians builty by her father, Zonpa-Zippa.
- **9708**: With all the queasy-weasy experiments detailed in the previous minister's notes, though, I don'taru thinky Minister Apururu really wants to read through them...
- **9709**: Maybe she's foundy some clues on how to stop those Cardians. Don't give up, Minister Apururu!
- **11872**: Ask if this person is the chick's owner? [Yes./No.]
- **11900**: My chocobo's in your care, is she?
- **11901**: Oh, how should I thanky you? A friendy for life? A million-billion hugs? ...I know! How about a story to tell your chocobo?
- **11902**: Cardians and chocobos... They're both fantastically fantastic!
- **11921**: You say you've got my chocobo?
- **11922**: I may not be able to animatey a Cardian yet, but I have confidencey in my chocobo-raising skills! You must have the wrong person.

## Events

### Event 65535

#### Metadata

| Field        | Value   |
|--------------|---------|
| Entrypoint   | 0x0000  |
| Data Size    | 1 bytes |
| Instructions | 1       |

```
      00 01 02 03 04 05 06 07  08 09 0A 0B 0C 0D 0E 0F
      -- -- -- -- -- -- -- --  -- -- -- -- -- -- -- --
0000: 00                                                .               
```

#### Opcodes

```
  0: 0x0000 [0x00] END_REQSTACK()
```

### Event 65535.1

#### Metadata

| Field        | Value    |
|--------------|----------|
| Entrypoint   | 0x0001   |
| Data Size    | 16 bytes |
| Instructions | 2        |

```
      00 01 02 03 04 05 06 07  08 09 0A 0B 0C 0D 0E 0F
      -- -- -- -- -- -- -- --  -- -- -- -- -- -- -- --
0000:    66 00 80 F8 FF FF 7F  F8 FF FF 7F 74 6C 6B 30   f..........tlk0
0010: 00                                                .               
```

#### Opcodes

```
  0: 0x0001 [0x66] LOAD_EXT_SCHEDULER_MAIN: Load scheduler "tlk0" with entities [EventEntity, EventEntity], work=40*
  1: 0x0010 [0x00] END_REQSTACK()
```

### Event 65535.2

#### Metadata

| Field        | Value    |
|--------------|----------|
| Entrypoint   | 0x0011   |
| Data Size    | 22 bytes |
| Instructions | 4        |

```
      00 01 02 03 04 05 06 07  08 09 0A 0B 0C 0D 0E 0F
      -- -- -- -- -- -- -- --  -- -- -- -- -- -- -- --
0010:    53 F8 FF FF 7F F8 FF  FF 7F 74 6C 6B 30 5E 69   S........tlk0^i
0020: 64 6C 30 1C 01 80 00                              dl0....         
```

#### Opcodes

```
  0: 0x0011 [0x53] WAIT_SCHEDULER_TASK: Wait for scheduler "tlk0" with entities [EventEntity, EventEntity]
  1: 0x001E [0x5E] EventEntity goes idle (kills current action) (animation: "idl0")
  2: 0x0023 [0x1C] WAIT(30* ticks)
  3: 0x0026 [0x00] END_REQSTACK()
```

### Event 65535.3

#### Metadata

| Field        | Value    |
|--------------|----------|
| Entrypoint   | 0x0027   |
| Data Size    | 16 bytes |
| Instructions | 2        |

```
      00 01 02 03 04 05 06 07  08 09 0A 0B 0C 0D 0E 0F
      -- -- -- -- -- -- -- --  -- -- -- -- -- -- -- --
0020:                      66  00 80 F8 FF FF 7F F8 FF         f........
0030: FF 7F 74 68 6B 31 00                              ..thk1.         
```

#### Opcodes

```
  0: 0x0027 [0x66] LOAD_EXT_SCHEDULER_MAIN: Load scheduler "thk1" with entities [EventEntity, EventEntity], work=40*
  1: 0x0036 [0x00] END_REQSTACK()
```

### Event 65535.4

#### Metadata

| Field        | Value    |
|--------------|----------|
| Entrypoint   | 0x0037   |
| Data Size    | 14 bytes |
| Instructions | 2        |

```
      00 01 02 03 04 05 06 07  08 09 0A 0B 0C 0D 0E 0F
      -- -- -- -- -- -- -- --  -- -- -- -- -- -- -- --
0030:                      53  F8 FF FF 7F F8 FF FF 7F         S........
0040: 74 68 6B 31 00                                    thk1.           
```

#### Opcodes

```
  0: 0x0037 [0x53] WAIT_SCHEDULER_TASK: Wait for scheduler "thk1" with entities [EventEntity, EventEntity]
  1: 0x0044 [0x00] END_REQSTACK()
```

### Event 65535.5

#### Metadata

| Field        | Value    |
|--------------|----------|
| Entrypoint   | 0x0045   |
| Data Size    | 16 bytes |
| Instructions | 2        |

```
      00 01 02 03 04 05 06 07  08 09 0A 0B 0C 0D 0E 0F
      -- -- -- -- -- -- -- --  -- -- -- -- -- -- -- --
0040:                66 00 80  F8 FF FF 7F F8 FF FF 7F       f..........
0050: 74 68 6B 32 00                                    thk2.           
```

#### Opcodes

```
  0: 0x0045 [0x66] LOAD_EXT_SCHEDULER_MAIN: Load scheduler "thk2" with entities [EventEntity, EventEntity], work=40*
  1: 0x0054 [0x00] END_REQSTACK()
```

### Event 65535.6

#### Metadata

| Field        | Value    |
|--------------|----------|
| Entrypoint   | 0x0055   |
| Data Size    | 14 bytes |
| Instructions | 2        |

```
      00 01 02 03 04 05 06 07  08 09 0A 0B 0C 0D 0E 0F
      -- -- -- -- -- -- -- --  -- -- -- -- -- -- -- --
0050:                53 F8 FF  FF 7F F8 FF FF 7F 74 68       S........th
0060: 6B 32 00                                          k2.             
```

#### Opcodes

```
  0: 0x0055 [0x53] WAIT_SCHEDULER_TASK: Wait for scheduler "thk2" with entities [EventEntity, EventEntity]
  1: 0x0062 [0x00] END_REQSTACK()
```

### Event 65535.7

#### Metadata

| Field        | Value    |
|--------------|----------|
| Entrypoint   | 0x0063   |
| Data Size    | 16 bytes |
| Instructions | 2        |

```
      00 01 02 03 04 05 06 07  08 09 0A 0B 0C 0D 0E 0F
      -- -- -- -- -- -- -- --  -- -- -- -- -- -- -- --
0060:          66 00 80 F8 FF  FF 7F F8 FF FF 7F 65 68     f..........eh
0070: 6E 31 00                                          n1.             
```

#### Opcodes

```
  0: 0x0063 [0x66] LOAD_EXT_SCHEDULER_MAIN: Load scheduler "ehn1" with entities [EventEntity, EventEntity], work=40*
  1: 0x0072 [0x00] END_REQSTACK()
```

### Event 65535.8

#### Metadata

| Field        | Value    |
|--------------|----------|
| Entrypoint   | 0x0073   |
| Data Size    | 14 bytes |
| Instructions | 2        |

```
      00 01 02 03 04 05 06 07  08 09 0A 0B 0C 0D 0E 0F
      -- -- -- -- -- -- -- --  -- -- -- -- -- -- -- --
0070:          53 F8 FF FF 7F  F8 FF FF 7F 65 68 6E 31     S........ehn1
0080: 00                                                .               
```

#### Opcodes

```
  0: 0x0073 [0x53] WAIT_SCHEDULER_TASK: Wait for scheduler "ehn1" with entities [EventEntity, EventEntity]
  1: 0x0080 [0x00] END_REQSTACK()
```

### Event 65535.9

#### Metadata

| Field        | Value    |
|--------------|----------|
| Entrypoint   | 0x0081   |
| Data Size    | 16 bytes |
| Instructions | 2        |

```
      00 01 02 03 04 05 06 07  08 09 0A 0B 0C 0D 0E 0F
      -- -- -- -- -- -- -- --  -- -- -- -- -- -- -- --
0080:    66 00 80 F8 FF FF 7F  F8 FF FF 7F 70 6F 69 30   f..........poi0
0090: 00                                                .               
```

#### Opcodes

```
  0: 0x0081 [0x66] LOAD_EXT_SCHEDULER_MAIN: Load scheduler "poi0" with entities [EventEntity, EventEntity], work=40*
  1: 0x0090 [0x00] END_REQSTACK()
```

### Event 65535.10

#### Metadata

| Field        | Value    |
|--------------|----------|
| Entrypoint   | 0x0091   |
| Data Size    | 14 bytes |
| Instructions | 2        |

```
      00 01 02 03 04 05 06 07  08 09 0A 0B 0C 0D 0E 0F
      -- -- -- -- -- -- -- --  -- -- -- -- -- -- -- --
0090:    53 F8 FF FF 7F F8 FF  FF 7F 70 6F 69 30 00      S........poi0. 
```

#### Opcodes

```
  0: 0x0091 [0x53] WAIT_SCHEDULER_TASK: Wait for scheduler "poi0" with entities [EventEntity, EventEntity]
  1: 0x009E [0x00] END_REQSTACK()
```

### Event 65535.11

#### Metadata

| Field        | Value    |
|--------------|----------|
| Entrypoint   | 0x009F   |
| Data Size    | 16 bytes |
| Instructions | 2        |

```
      00 01 02 03 04 05 06 07  08 09 0A 0B 0C 0D 0E 0F
      -- -- -- -- -- -- -- --  -- -- -- -- -- -- -- --
0090:                                               66                 f
00A0: 00 80 F8 FF FF 7F F8 FF  FF 7F 69 72 6F 30 00     ..........iro0. 
```

#### Opcodes

```
  0: 0x009F [0x66] LOAD_EXT_SCHEDULER_MAIN: Load scheduler "iro0" with entities [EventEntity, EventEntity], work=40*
  1: 0x00AE [0x00] END_REQSTACK()
```

### Event 65535.12

#### Metadata

| Field        | Value    |
|--------------|----------|
| Entrypoint   | 0x00AF   |
| Data Size    | 14 bytes |
| Instructions | 2        |

```
      00 01 02 03 04 05 06 07  08 09 0A 0B 0C 0D 0E 0F
      -- -- -- -- -- -- -- --  -- -- -- -- -- -- -- --
00A0:                                               53                 S
00B0: F8 FF FF 7F F8 FF FF 7F  69 72 6F 30 00           ........iro0.   
```

#### Opcodes

```
  0: 0x00AF [0x53] WAIT_SCHEDULER_TASK: Wait for scheduler "iro0" with entities [EventEntity, EventEntity]
  1: 0x00BC [0x00] END_REQSTACK()
```

### Event 65535.13

#### Metadata

| Field        | Value    |
|--------------|----------|
| Entrypoint   | 0x00BD   |
| Data Size    | 16 bytes |
| Instructions | 2        |

```
      00 01 02 03 04 05 06 07  08 09 0A 0B 0C 0D 0E 0F
      -- -- -- -- -- -- -- --  -- -- -- -- -- -- -- --
00B0:                                         66 00 80               f..
00C0: F8 FF FF 7F F8 FF FF 7F  7A 69 74 30 00           ........zit0.   
```

#### Opcodes

```
  0: 0x00BD [0x66] LOAD_EXT_SCHEDULER_MAIN: Load scheduler "zit0" with entities [EventEntity, EventEntity], work=40*
  1: 0x00CC [0x00] END_REQSTACK()
```

### Event 65535.14

#### Metadata

| Field        | Value    |
|--------------|----------|
| Entrypoint   | 0x00CD   |
| Data Size    | 22 bytes |
| Instructions | 4        |

```
      00 01 02 03 04 05 06 07  08 09 0A 0B 0C 0D 0E 0F
      -- -- -- -- -- -- -- --  -- -- -- -- -- -- -- --
00C0:                                         53 F8 FF               S..
00D0: FF 7F F8 FF FF 7F 7A 69  74 30 5E 69 64 6C 30 1C  ......zit0^idl0.
00E0: 01 80 00                                          ...             
```

#### Opcodes

```
  0: 0x00CD [0x53] WAIT_SCHEDULER_TASK: Wait for scheduler "zit0" with entities [EventEntity, EventEntity]
  1: 0x00DA [0x5E] EventEntity goes idle (kills current action) (animation: "idl0")
  2: 0x00DF [0x1C] WAIT(30* ticks)
  3: 0x00E2 [0x00] END_REQSTACK()
```

### Event 65535.15

#### Metadata

| Field        | Value    |
|--------------|----------|
| Entrypoint   | 0x00E3   |
| Data Size    | 16 bytes |
| Instructions | 2        |

```
      00 01 02 03 04 05 06 07  08 09 0A 0B 0C 0D 0E 0F
      -- -- -- -- -- -- -- --  -- -- -- -- -- -- -- --
00E0:          66 00 80 F8 FF  FF 7F F8 FF FF 7F 64 69     f..........di
00F0: 73 30 00                                          s0.             
```

#### Opcodes

```
  0: 0x00E3 [0x66] LOAD_EXT_SCHEDULER_MAIN: Load scheduler "dis0" with entities [EventEntity, EventEntity], work=40*
  1: 0x00F2 [0x00] END_REQSTACK()
```

### Event 65535.16

#### Metadata

| Field        | Value    |
|--------------|----------|
| Entrypoint   | 0x00F3   |
| Data Size    | 14 bytes |
| Instructions | 2        |

```
      00 01 02 03 04 05 06 07  08 09 0A 0B 0C 0D 0E 0F
      -- -- -- -- -- -- -- --  -- -- -- -- -- -- -- --
00F0:          53 F8 FF FF 7F  F8 FF FF 7F 64 69 73 30     S........dis0
0100: 00                                                .               
```

#### Opcodes

```
  0: 0x00F3 [0x53] WAIT_SCHEDULER_TASK: Wait for scheduler "dis0" with entities [EventEntity, EventEntity]
  1: 0x0100 [0x00] END_REQSTACK()
```

### Event 65535.17

#### Metadata

| Field        | Value    |
|--------------|----------|
| Entrypoint   | 0x0101   |
| Data Size    | 24 bytes |
| Instructions | 4        |

```
      00 01 02 03 04 05 06 07  08 09 0A 0B 0C 0D 0E 0F
      -- -- -- -- -- -- -- --  -- -- -- -- -- -- -- --
0100:    66 02 80 F8 FF FF 7F  F8 FF FF 7F 62 69 6B 30   f..........bik0
0110: 5E 69 64 6C 30 1C 01 80  00                       ^idl0....       
```

#### Opcodes

```
  0: 0x0101 [0x66] LOAD_EXT_SCHEDULER_MAIN: Load scheduler "bik0" with entities [EventEntity, EventEntity], work=42*
  1: 0x0110 [0x5E] EventEntity goes idle (kills current action) (animation: "idl0")
  2: 0x0115 [0x1C] WAIT(30* ticks)
  3: 0x0118 [0x00] END_REQSTACK()
```

### Event 65535.18

#### Metadata

| Field        | Value    |
|--------------|----------|
| Entrypoint   | 0x0119   |
| Data Size    | 14 bytes |
| Instructions | 2        |

```
      00 01 02 03 04 05 06 07  08 09 0A 0B 0C 0D 0E 0F
      -- -- -- -- -- -- -- --  -- -- -- -- -- -- -- --
0110:                             53 F8 FF FF 7F F8 FF           S......
0120: FF 7F 62 69 6B 30 00                              ..bik0.         
```

#### Opcodes

```
  0: 0x0119 [0x53] WAIT_SCHEDULER_TASK: Wait for scheduler "bik0" with entities [EventEntity, EventEntity]
  1: 0x0126 [0x00] END_REQSTACK()
```

### Event 65535.19

#### Metadata

| Field        | Value   |
|--------------|---------|
| Entrypoint   | 0x0127  |
| Data Size    | 9 bytes |
| Instructions | 3       |

```
      00 01 02 03 04 05 06 07  08 09 0A 0B 0C 0D 0E 0F
      -- -- -- -- -- -- -- --  -- -- -- -- -- -- -- --
0120:                      5E  69 64 6C 30 1C 01 80 00         ^idl0....
```

#### Opcodes

```
  0: 0x0127 [0x5E] EventEntity goes idle (kills current action) (animation: "idl0")
  1: 0x012C [0x1C] WAIT(30* ticks)
  2: 0x012F [0x00] END_REQSTACK()
```

### Event 277

#### Metadata

| Field        | Value    |
|--------------|----------|
| Entrypoint   | 0x0130   |
| Data Size    | 36 bytes |
| Instructions | 13       |

```
      00 01 02 03 04 05 06 07  08 09 0A 0B 0C 0D 0E 0F
      -- -- -- -- -- -- -- --  -- -- -- -- -- -- -- --
0130: 1E F0 FF FF 7F 6F 70 29  08 17 10 0F 01 01 1D 03  .....op)........
0140: 80 23 1D 04 80 23 29 08  17 10 0F 01 02 1A 7D 05  .#...#).......}.
0150: 20 00 21 00                                        .!.            
```

#### Opcodes

```
  0: 0x0130 [0x1E] EventEntity looks at LocalPlayer and starts talking
  1: 0x0135 [0x6F] WAIT_FRAME_DELAY: Yield until WaitTime reaches zero
  2: 0x0136 [0x70] WAIT_ENTITY_RENDER_FLAG: Wait while EventEntity->Render.Flags3 bit 2 is set (cancel turn if not)
  3: 0x0137 [0x29] REQ_SET_WAIT(priority=0x08, entity_id=Kororo (ID: 17764375/0x010F1017), tag_num=0x01)
  4: 0x013E [0x1D] PRINT_EVENT_MESSAGE(message_id=8055*)
    → "I'm still newy around here, so they won't let me helpy out in creating Cardians yet."
  5: 0x0141 [0x23] WAIT_FOR_DIALOG_INTERACTION
  6: 0x0142 [0x1D] PRINT_EVENT_MESSAGE(message_id=8056*)
    → "But I so want to hurry up and test my strengthy. I bet I can make a really-weally strong Cardian!"
  7: 0x0145 [0x23] WAIT_FOR_DIALOG_INTERACTION
  8: 0x0146 [0x29] REQ_SET_WAIT(priority=0x08, entity_id=Kororo (ID: 17764375/0x010F1017), tag_num=0x02)
  9: 0x014D [0x1A] CALL_SUBROUTINE(address=0x057D)
 10: 0x0150 [0x20] SET_CLI_EVENT_UC_FLAG: Unlock player control
 11: 0x0152 [0x21] END_EVENT
 12: 0x0153 [0x00] END_REQSTACK()
```

### Event 141

#### Metadata

| Field        | Value    |
|--------------|----------|
| Entrypoint   | 0x0154   |
| Data Size    | 36 bytes |
| Instructions | 13       |

```
      00 01 02 03 04 05 06 07  08 09 0A 0B 0C 0D 0E 0F
      -- -- -- -- -- -- -- --  -- -- -- -- -- -- -- --
0150:             1E F0 FF FF  7F 6F 70 29 08 17 10 0F      .....op)....
0160: 01 01 1D 05 80 23 1D 06  80 23 29 08 17 10 0F 01  .....#...#).....
0170: 02 1A 7D 05 20 00 21 00                           ..}. .!.        
```

#### Opcodes

```
  0: 0x0154 [0x1E] EventEntity looks at LocalPlayer and starts talking
  1: 0x0159 [0x6F] WAIT_FRAME_DELAY: Yield until WaitTime reaches zero
  2: 0x015A [0x70] WAIT_ENTITY_RENDER_FLAG: Wait while EventEntity->Render.Flags3 bit 2 is set (cancel turn if not)
  3: 0x015B [0x29] REQ_SET_WAIT(priority=0x08, entity_id=Kororo (ID: 17764375/0x010F1017), tag_num=0x01)
  4: 0x0162 [0x1D] PRINT_EVENT_MESSAGE(message_id=7760*)
    → "The reason that the life span of Cardians has become shortenedy is that the quality of the Mana Orbs has worsenedy."
  5: 0x0165 [0x23] WAIT_FOR_DIALOG_INTERACTION
  6: 0x0166 [0x1D] PRINT_EVENT_MESSAGE(message_id=7761*)
    → "Just when the monsters are growing strongery and we need more Cardians than ever before, too... I'd hate to think what lies aheady if things go on like this..."
  7: 0x0169 [0x23] WAIT_FOR_DIALOG_INTERACTION
  8: 0x016A [0x29] REQ_SET_WAIT(priority=0x08, entity_id=Kororo (ID: 17764375/0x010F1017), tag_num=0x02)
  9: 0x0171 [0x1A] CALL_SUBROUTINE(address=0x057D)
 10: 0x0174 [0x20] SET_CLI_EVENT_UC_FLAG: Unlock player control
 11: 0x0176 [0x21] END_EVENT
 12: 0x0177 [0x00] END_REQSTACK()
```

### Event 148

#### Metadata

| Field        | Value    |
|--------------|----------|
| Entrypoint   | 0x0178   |
| Data Size    | 36 bytes |
| Instructions | 13       |

```
      00 01 02 03 04 05 06 07  08 09 0A 0B 0C 0D 0E 0F
      -- -- -- -- -- -- -- --  -- -- -- -- -- -- -- --
0170:                          1E F0 FF FF 7F 6F 70 29          .....op)
0180: 08 17 10 0F 01 01 1D 07  80 23 1D 08 80 23 29 08  .........#...#).
0190: 17 10 0F 01 02 1A 7D 05  20 00 21 00              ......}. .!.    
```

#### Opcodes

```
  0: 0x0178 [0x1E] EventEntity looks at LocalPlayer and starts talking
  1: 0x017D [0x6F] WAIT_FRAME_DELAY: Yield until WaitTime reaches zero
  2: 0x017E [0x70] WAIT_ENTITY_RENDER_FLAG: Wait while EventEntity->Render.Flags3 bit 2 is set (cancel turn if not)
  3: 0x017F [0x29] REQ_SET_WAIT(priority=0x08, entity_id=Kororo (ID: 17764375/0x010F1017), tag_num=0x01)
  4: 0x0186 [0x1D] PRINT_EVENT_MESSAGE(message_id=7779*)
    → "It's said that underneath the southwesterny tower of the Horutoto Ruins is the graveyardy where the souls of the thrown away Cardians lingery."
  5: 0x0189 [0x23] WAIT_FOR_DIALOG_INTERACTION
  6: 0x018A [0x1D] PRINT_EVENT_MESSAGE(message_id=7780*)
    → "Minister Apururu once saidy that saving the souls of such automatonys is the responsibility of the Manustery."
  7: 0x018D [0x23] WAIT_FOR_DIALOG_INTERACTION
  8: 0x018E [0x29] REQ_SET_WAIT(priority=0x08, entity_id=Kororo (ID: 17764375/0x010F1017), tag_num=0x02)
  9: 0x0195 [0x1A] CALL_SUBROUTINE(address=0x057D)
 10: 0x0198 [0x20] SET_CLI_EVENT_UC_FLAG: Unlock player control
 11: 0x019A [0x21] END_EVENT
 12: 0x019B [0x00] END_REQSTACK()
```

### Event 291

#### Metadata

| Field        | Value    |
|--------------|----------|
| Entrypoint   | 0x019C   |
| Data Size    | 36 bytes |
| Instructions | 13       |

```
      00 01 02 03 04 05 06 07  08 09 0A 0B 0C 0D 0E 0F
      -- -- -- -- -- -- -- --  -- -- -- -- -- -- -- --
0190:                                      1E F0 FF FF              ....
01A0: 7F 6F 70 29 08 17 10 0F  01 01 1D 09 80 23 1D 0A  .op).........#..
01B0: 80 23 29 08 17 10 0F 01  02 1A 7D 05 20 00 21 00  .#).......}. .!.
```

#### Opcodes

```
  0: 0x019C [0x1E] EventEntity looks at LocalPlayer and starts talking
  1: 0x01A1 [0x6F] WAIT_FRAME_DELAY: Yield until WaitTime reaches zero
  2: 0x01A2 [0x70] WAIT_ENTITY_RENDER_FLAG: Wait while EventEntity->Render.Flags3 bit 2 is set (cancel turn if not)
  3: 0x01A3 [0x29] REQ_SET_WAIT(priority=0x08, entity_id=Kororo (ID: 17764375/0x010F1017), tag_num=0x01)
  4: 0x01AA [0x1D] PRINT_EVENT_MESSAGE(message_id=8088*)
    → "Mister Kopuro-Popuro mixes and matches the magicky he casts on Cardians in order to animatey them."
  5: 0x01AD [0x23] WAIT_FOR_DIALOG_INTERACTION
  6: 0x01AE [0x1D] PRINT_EVENT_MESSAGE(message_id=8089*)
    → "The life-bringing magicky used on Cardians is extremely difficult to do. Wow, I hope if I keep practicing hard enoughy, I'll also be able to performy all sorts of variations of that magicky just like he does."
  7: 0x01B1 [0x23] WAIT_FOR_DIALOG_INTERACTION
  8: 0x01B2 [0x29] REQ_SET_WAIT(priority=0x08, entity_id=Kororo (ID: 17764375/0x010F1017), tag_num=0x02)
  9: 0x01B9 [0x1A] CALL_SUBROUTINE(address=0x057D)
 10: 0x01BC [0x20] SET_CLI_EVENT_UC_FLAG: Unlock player control
 11: 0x01BE [0x21] END_EVENT
 12: 0x01BF [0x00] END_REQSTACK()
```

### Event 295

#### Metadata

| Field        | Value   |
|--------------|---------|
| Entrypoint   | 0x01C0  |
| Data Size    | 1 bytes |
| Instructions | 1       |

```
      00 01 02 03 04 05 06 07  08 09 0A 0B 0C 0D 0E 0F
      -- -- -- -- -- -- -- --  -- -- -- -- -- -- -- --
01C0: 00                                                .               
```

#### Opcodes

```
  0: 0x01C0 [0x00] END_REQSTACK()
```

### Event 65535.20

#### Metadata

| Field        | Value    |
|--------------|----------|
| Entrypoint   | 0x01C1   |
| Data Size    | 19 bytes |
| Instructions | 5        |

```
      00 01 02 03 04 05 06 07  08 09 0A 0B 0C 0D 0E 0F
      -- -- -- -- -- -- -- --  -- -- -- -- -- -- -- --
01C0:    29 08 17 10 0F 01 0B  1D 0B 80 23 29 08 17 10   ).........#)...
01D0: 0F 01 0C 00                                       ....            
```

#### Opcodes

```
  0: 0x01C1 [0x29] REQ_SET_WAIT(priority=0x08, entity_id=Kororo (ID: 17764375/0x010F1017), tag_num=0x0B)
  1: 0x01C8 [0x1D] PRINT_EVENT_MESSAGE(message_id=8107*)
    → "Don't go teachying that kiddy strange wordies! It's practically impossible to make Cardians forgety something once they memorizey it!"
  2: 0x01CB [0x23] WAIT_FOR_DIALOG_INTERACTION
  3: 0x01CC [0x29] REQ_SET_WAIT(priority=0x08, entity_id=Kororo (ID: 17764375/0x010F1017), tag_num=0x0C)
  4: 0x01D3 [0x00] END_REQSTACK()
```

### Event 296

#### Metadata

| Field        | Value    |
|--------------|----------|
| Entrypoint   | 0x01D4   |
| Data Size    | 32 bytes |
| Instructions | 11       |

```
      00 01 02 03 04 05 06 07  08 09 0A 0B 0C 0D 0E 0F
      -- -- -- -- -- -- -- --  -- -- -- -- -- -- -- --
01D0:             1E F0 FF FF  7F 6F 70 29 08 17 10 0F      .....op)....
01E0: 01 01 1D 0C 80 23 29 08  17 10 0F 01 02 1A 7D 05  .....#).......}.
01F0: 20 00 21 00                                        .!.            
```

#### Opcodes

```
  0: 0x01D4 [0x1E] EventEntity looks at LocalPlayer and starts talking
  1: 0x01D9 [0x6F] WAIT_FRAME_DELAY: Yield until WaitTime reaches zero
  2: 0x01DA [0x70] WAIT_ENTITY_RENDER_FLAG: Wait while EventEntity->Render.Flags3 bit 2 is set (cancel turn if not)
  3: 0x01DB [0x29] REQ_SET_WAIT(priority=0x08, entity_id=Kororo (ID: 17764375/0x010F1017), tag_num=0x01)
  4: 0x01E2 [0x1D] PRINT_EVENT_MESSAGE(message_id=8108*)
    → "That Spare Oney there is but a newborny Cardian! So he memorizes anythingy and everythingy without reservation."
  5: 0x01E5 [0x23] WAIT_FOR_DIALOG_INTERACTION
  6: 0x01E6 [0x29] REQ_SET_WAIT(priority=0x08, entity_id=Kororo (ID: 17764375/0x010F1017), tag_num=0x02)
  7: 0x01ED [0x1A] CALL_SUBROUTINE(address=0x057D)
  8: 0x01F0 [0x20] SET_CLI_EVENT_UC_FLAG: Unlock player control
  9: 0x01F2 [0x21] END_EVENT
 10: 0x01F3 [0x00] END_REQSTACK()
```

### Event 298

#### Metadata

| Field        | Value    |
|--------------|----------|
| Entrypoint   | 0x01F4   |
| Data Size    | 86 bytes |
| Instructions | 19       |

```
      00 01 02 03 04 05 06 07  08 09 0A 0B 0C 0D 0E 0F
      -- -- -- -- -- -- -- --  -- -- -- -- -- -- -- --
01F0:             1E F0 FF FF  7F 6F 70 29 0B 17 10 0F      .....op)....
0200: 01 1C 29 0B 17 10 0F 01  1D 24 0D 80 0E 80 0E 80  ..)......$......
0210: 25 02 00 10 0E 80 00 2F  02 03 01 10 0F 80 29 0B  %....../......).
0220: 17 10 0F 01 1F 29 0B 17  10 0F 01 20 01 46 02 02  .....)..... .F..
0230: 00 10 0F 80 00 46 02 03  01 10 10 80 29 0B 17 10  .....F......)...
0240: 0F 01 1E 01 46 02 20 00  21 00                    ....F. .!.      
```

#### Opcodes

```
  0: 0x01F4 [0x1E] EventEntity looks at LocalPlayer and starts talking
  1: 0x01F9 [0x6F] WAIT_FRAME_DELAY: Yield until WaitTime reaches zero
  2: 0x01FA [0x70] WAIT_ENTITY_RENDER_FLAG: Wait while EventEntity->Render.Flags3 bit 2 is set (cancel turn if not)
  3: 0x01FB [0x29] REQ_SET_WAIT(priority=0x0B, entity_id=Kororo (ID: 17764375/0x010F1017), tag_num=0x1C)
  4: 0x0202 [0x29] REQ_SET_WAIT(priority=0x0B, entity_id=Kororo (ID: 17764375/0x010F1017), tag_num=0x1D)
  5: 0x0209 [0x24] CREATE_DIALOG(message_id=8115*, default_option=0*, option_flags=0*)
    → "Think it's pitiable? [Yes, that's sad./Not really...]"
  6: 0x0210 [0x25] WAIT_DIALOG_SELECT()
  7: 0x0211 [0x02] IF !(Work_Zone[0] == 0*) GOTO 0x022F
  8: 0x0219 [0x03] Work_Zone[1] = 1*
  9: 0x021E [0x29] REQ_SET_WAIT(priority=0x0B, entity_id=Kororo (ID: 17764375/0x010F1017), tag_num=0x1F)
 10: 0x0225 [0x29] REQ_SET_WAIT(priority=0x0B, entity_id=Kororo (ID: 17764375/0x010F1017), tag_num=0x20)
 11: 0x022C [0x01] GOTO 0x0246
 12: 0x022F [0x02] IF !(Work_Zone[0] == 1*) GOTO 0x0246
 13: 0x0237 [0x03] Work_Zone[1] = 2*
 14: 0x023C [0x29] REQ_SET_WAIT(priority=0x0B, entity_id=Kororo (ID: 17764375/0x010F1017), tag_num=0x1E)
 15: 0x0243 [0x01] GOTO 0x0246

SUBROUTINE_0246:
 16: 0x0246 [0x20] SET_CLI_EVENT_UC_FLAG: Unlock player control
 17: 0x0248 [0x21] END_EVENT
 18: 0x0249 [0x00] END_REQSTACK()
```

### Event 65535.21

#### Metadata

| Field        | Value    |
|--------------|----------|
| Entrypoint   | 0x024A   |
| Data Size    | 23 bytes |
| Instructions | 7        |

```
      00 01 02 03 04 05 06 07  08 09 0A 0B 0C 0D 0E 0F
      -- -- -- -- -- -- -- --  -- -- -- -- -- -- -- --
0240:                                29 08 17 10 0F 01            ).....
0250: 01 1D 11 80 23 1D 12 80  23 29 08 17 10 0F 01 02  ....#...#)......
0260: 00                                                .               
```

#### Opcodes

```
  0: 0x024A [0x29] REQ_SET_WAIT(priority=0x08, entity_id=Kororo (ID: 17764375/0x010F1017), tag_num=0x01)
  1: 0x0251 [0x1D] PRINT_EVENT_MESSAGE(message_id=8111*)
    → "Hey, you therey! Remember that Cardiany you taught a silly greeting to the other day?"
  2: 0x0254 [0x23] WAIT_FOR_DIALOG_INTERACTION
  3: 0x0255 [0x1D] PRINT_EVENT_MESSAGE(message_id=8112*)
    → "That poor Cardiany just wouldn't forgety the words you taughty it."
  4: 0x0258 [0x23] WAIT_FOR_DIALOG_INTERACTION
  5: 0x0259 [0x29] REQ_SET_WAIT(priority=0x08, entity_id=Kororo (ID: 17764375/0x010F1017), tag_num=0x02)
  6: 0x0260 [0x00] END_REQSTACK()
```

### Event 65535.22

#### Metadata

| Field        | Value    |
|--------------|----------|
| Entrypoint   | 0x0261   |
| Data Size    | 23 bytes |
| Instructions | 7        |

```
      00 01 02 03 04 05 06 07  08 09 0A 0B 0C 0D 0E 0F
      -- -- -- -- -- -- -- --  -- -- -- -- -- -- -- --
0260:    29 08 17 10 0F 01 01  1D 13 80 23 1D 14 80 23   ).........#...#
0270: 29 08 17 10 0F 01 02 00                           ).......        
```

#### Opcodes

```
  0: 0x0261 [0x29] REQ_SET_WAIT(priority=0x08, entity_id=Kororo (ID: 17764375/0x010F1017), tag_num=0x01)
  1: 0x0268 [0x1D] PRINT_EVENT_MESSAGE(message_id=8113*)
    → "Seeing as it was you who taughty the poor thingy an inappropriate greeting, you should take responsibility for your actions and teachy him a correct way of greeting otheries!"
  2: 0x026B [0x23] WAIT_FOR_DIALOG_INTERACTION
  3: 0x026C [0x1D] PRINT_EVENT_MESSAGE(message_id=8114*)
    → "If somethingy's not done, he'll have to livey in embarrassment as a poorly-trained Cardian for the resty of his days. Wouldn't that be a pity-wity?"
  4: 0x026F [0x23] WAIT_FOR_DIALOG_INTERACTION
  5: 0x0270 [0x29] REQ_SET_WAIT(priority=0x08, entity_id=Kororo (ID: 17764375/0x010F1017), tag_num=0x02)
  6: 0x0277 [0x00] END_REQSTACK()
```

### Event 65535.23

#### Metadata

| Field        | Value    |
|--------------|----------|
| Entrypoint   | 0x0278   |
| Data Size    | 22 bytes |
| Instructions | 6        |

```
      00 01 02 03 04 05 06 07  08 09 0A 0B 0C 0D 0E 0F
      -- -- -- -- -- -- -- --  -- -- -- -- -- -- -- --
0270:                          29 08 17 10 0F 01 0B 1D          ).......
0280: 15 80 23 29 08 17 10 0F  01 0C 1A 7D 05 00        ..#).......}..  
```

#### Opcodes

```
  0: 0x0278 [0x29] REQ_SET_WAIT(priority=0x08, entity_id=Kororo (ID: 17764375/0x010F1017), tag_num=0x0B)
  1: 0x027F [0x1D] PRINT_EVENT_MESSAGE(message_id=8116*)
    → "You inhumane brutey! Have you no feelingies?"
  2: 0x0282 [0x23] WAIT_FOR_DIALOG_INTERACTION
  3: 0x0283 [0x29] REQ_SET_WAIT(priority=0x08, entity_id=Kororo (ID: 17764375/0x010F1017), tag_num=0x0C)
  4: 0x028A [0x1A] CALL_SUBROUTINE(address=0x057D)
  5: 0x028D [0x00] END_REQSTACK()
```

### Event 65535.24

#### Metadata

| Field        | Value    |
|--------------|----------|
| Entrypoint   | 0x028E   |
| Data Size    | 62 bytes |
| Instructions | 14       |

```
      00 01 02 03 04 05 06 07  08 09 0A 0B 0C 0D 0E 0F
      -- -- -- -- -- -- -- --  -- -- -- -- -- -- -- --
0280:                                            29 08                ).
0290: 17 10 0F 01 01 1D 16 80  23 29 08 17 10 0F 01 02  ........#)......
02A0: 29 08 17 10 0F 01 03 1D  17 80 23 29 08 17 10 0F  ).........#)....
02B0: 01 05 29 08 17 10 0F 01  06 29 08 17 10 0F 01 0D  ..)......)......
02C0: 1D 18 80 23 29 08 17 10  0F 01 0E 00              ...#).......    
```

#### Opcodes

```
  0: 0x028E [0x29] REQ_SET_WAIT(priority=0x08, entity_id=Kororo (ID: 17764375/0x010F1017), tag_num=0x01)
  1: 0x0295 [0x1D] PRINT_EVENT_MESSAGE(message_id=8117*)
    → "As Cardians grow up and rise in ranky, their names changey. So, that Spare Cardian you spoke to backy then has a different namey that goes with the position he filledy."
  2: 0x0298 [0x23] WAIT_FOR_DIALOG_INTERACTION
  3: 0x0299 [0x29] REQ_SET_WAIT(priority=0x08, entity_id=Kororo (ID: 17764375/0x010F1017), tag_num=0x02)
  4: 0x02A0 [0x29] REQ_SET_WAIT(priority=0x08, entity_id=Kororo (ID: 17764375/0x010F1017), tag_num=0x03)
  5: 0x02A7 [0x1D] PRINT_EVENT_MESSAGE(message_id=8118*)
    → "I think his namey is now Five of something-or-othery...?"
  6: 0x02AA [0x23] WAIT_FOR_DIALOG_INTERACTION
  7: 0x02AB [0x29] REQ_SET_WAIT(priority=0x08, entity_id=Kororo (ID: 17764375/0x010F1017), tag_num=0x05)
  8: 0x02B2 [0x29] REQ_SET_WAIT(priority=0x08, entity_id=Kororo (ID: 17764375/0x010F1017), tag_num=0x06)
  9: 0x02B9 [0x29] REQ_SET_WAIT(priority=0x08, entity_id=Kororo (ID: 17764375/0x010F1017), tag_num=0x0D)
 10: 0x02C0 [0x1D] PRINT_EVENT_MESSAGE(message_id=8119*)
    → "Well, I don't knowy...!? Their names changey so much, it's practically impossible to keep tracky of who's who!"
 11: 0x02C3 [0x23] WAIT_FOR_DIALOG_INTERACTION
 12: 0x02C4 [0x29] REQ_SET_WAIT(priority=0x08, entity_id=Kororo (ID: 17764375/0x010F1017), tag_num=0x0E)
 13: 0x02CB [0x00] END_REQSTACK()
```

### Event 65535.25

#### Metadata

| Field        | Value    |
|--------------|----------|
| Entrypoint   | 0x02CC   |
| Data Size    | 19 bytes |
| Instructions | 5        |

```
      00 01 02 03 04 05 06 07  08 09 0A 0B 0C 0D 0E 0F
      -- -- -- -- -- -- -- --  -- -- -- -- -- -- -- --
02C0:                                      29 08 17 10              )...
02D0: 0F 01 09 1D 19 80 23 29  08 17 10 0F 01 0A 00     ......#)....... 
```

#### Opcodes

```
  0: 0x02CC [0x29] REQ_SET_WAIT(priority=0x08, entity_id=Kororo (ID: 17764375/0x010F1017), tag_num=0x09)
  1: 0x02D3 [0x1D] PRINT_EVENT_MESSAGE(message_id=8120*)
    → "Anyway, try going aroundy and talking to the Cardians of each suit with the namey "Five," and use the greeting you taught him as a signy to tell him apart from the otheries."
  2: 0x02D6 [0x23] WAIT_FOR_DIALOG_INTERACTION
  3: 0x02D7 [0x29] REQ_SET_WAIT(priority=0x08, entity_id=Kororo (ID: 17764375/0x010F1017), tag_num=0x0A)
  4: 0x02DE [0x00] END_REQSTACK()
```

### Event 299

#### Metadata

| Field        | Value    |
|--------------|----------|
| Entrypoint   | 0x02DF   |
| Data Size    | 36 bytes |
| Instructions | 13       |

```
      00 01 02 03 04 05 06 07  08 09 0A 0B 0C 0D 0E 0F
      -- -- -- -- -- -- -- --  -- -- -- -- -- -- -- --
02D0:                                               1E                 .
02E0: F0 FF FF 7F 6F 70 29 08  17 10 0F 01 01 1D 1A 80  ....op).........
02F0: 23 1D 1B 80 23 29 08 17  10 0F 01 02 1A 7D 05 20  #...#).......}. 
0300: 00 21 00                                          .!.             
```

#### Opcodes

```
  0: 0x02DF [0x1E] EventEntity looks at LocalPlayer and starts talking
  1: 0x02E4 [0x6F] WAIT_FRAME_DELAY: Yield until WaitTime reaches zero
  2: 0x02E5 [0x70] WAIT_ENTITY_RENDER_FLAG: Wait while EventEntity->Render.Flags3 bit 2 is set (cancel turn if not)
  3: 0x02E6 [0x29] REQ_SET_WAIT(priority=0x08, entity_id=Kororo (ID: 17764375/0x010F1017), tag_num=0x01)
  4: 0x02ED [0x1D] PRINT_EVENT_MESSAGE(message_id=8121*)
    → "The Cardian whose lifey you ruined by teaching him a silly greeting should now be named Five of something-or-othery...?"
  5: 0x02F0 [0x23] WAIT_FOR_DIALOG_INTERACTION
  6: 0x02F1 [0x1D] PRINT_EVENT_MESSAGE(message_id=8122*)
    → "Anyway, try going aroundy and talking to the Cardians of each suit with the namey "Five," and use the greeting you taught him as a signy to tell him apart from the otheries."
  7: 0x02F4 [0x23] WAIT_FOR_DIALOG_INTERACTION
  8: 0x02F5 [0x29] REQ_SET_WAIT(priority=0x08, entity_id=Kororo (ID: 17764375/0x010F1017), tag_num=0x02)
  9: 0x02FC [0x1A] CALL_SUBROUTINE(address=0x057D)
 10: 0x02FF [0x20] SET_CLI_EVENT_UC_FLAG: Unlock player control
 11: 0x0301 [0x21] END_EVENT
 12: 0x0302 [0x00] END_REQSTACK()
```

### Event 303

#### Metadata

| Field        | Value    |
|--------------|----------|
| Entrypoint   | 0x0303   |
| Data Size    | 71 bytes |
| Instructions | 19       |

```
      00 01 02 03 04 05 06 07  08 09 0A 0B 0C 0D 0E 0F
      -- -- -- -- -- -- -- --  -- -- -- -- -- -- -- --
0300:          20 01 42 1E F0  FF FF 7F 6F 70 29 08 17      .B.....op)..
0310: 10 0F 01 01 1D 1C 80 23  29 08 17 10 0F 01 02 1D  .......#).......
0320: 1D 80 23 29 08 17 10 0F  01 01 1D 1E 80 23 29 08  ..#).........#).
0330: 17 10 0F 01 02 45 1F 80  F0 FF FF 7F F0 FF FF 7F  .....E..........
0340: 71 73 74 63 0E 80 20 00  21 00                    qstc.. .!.      
```

#### Opcodes

```
  0: 0x0303 [0x20] SET_CLI_EVENT_UC_FLAG: Lock player control
  1: 0x0305 [0x42] SET_CLI_EVENT_CANCEL_DATA()
  2: 0x0306 [0x1E] EventEntity looks at LocalPlayer and starts talking
  3: 0x030B [0x6F] WAIT_FRAME_DELAY: Yield until WaitTime reaches zero
  4: 0x030C [0x70] WAIT_ENTITY_RENDER_FLAG: Wait while EventEntity->Render.Flags3 bit 2 is set (cancel turn if not)
  5: 0x030D [0x29] REQ_SET_WAIT(priority=0x08, entity_id=Kororo (ID: 17764375/0x010F1017), tag_num=0x01)
  6: 0x0314 [0x1D] PRINT_EVENT_MESSAGE(message_id=8129*)
    → "So, did you findy him...? What do you meany, he's outsidey of town? Eh? He's that far away from towny?"
  7: 0x0317 [0x23] WAIT_FOR_DIALOG_INTERACTION
  8: 0x0318 [0x29] REQ_SET_WAIT(priority=0x08, entity_id=Kororo (ID: 17764375/0x010F1017), tag_num=0x02)
  9: 0x031F [0x1D] PRINT_EVENT_MESSAGE(message_id=8131*)
    → "If he stays outside of towny too long, there's a chance people might mistakey him for one of those feral Cardians and killy him!"
 10: 0x0322 [0x23] WAIT_FOR_DIALOG_INTERACTION
 11: 0x0323 [0x29] REQ_SET_WAIT(priority=0x08, entity_id=Kororo (ID: 17764375/0x010F1017), tag_num=0x01)
 12: 0x032A [0x1D] PRINT_EVENT_MESSAGE(message_id=8130*)
    → "What's he doing in such a dangerous placey? We'd better hurry and send someone out to bring him backy! Here...takey this as a little thank-you for finding himy!"
 13: 0x032D [0x23] WAIT_FOR_DIALOG_INTERACTION
 14: 0x032E [0x29] REQ_SET_WAIT(priority=0x08, entity_id=Kororo (ID: 17764375/0x010F1017), tag_num=0x02)
 15: 0x0335 [0x45] LOAD_SCHEDULED_TASK: Load scheduler "qstc" with entities [LocalPlayer, LocalPlayer], work=[201*, 0*]
 16: 0x0346 [0x20] SET_CLI_EVENT_UC_FLAG: Unlock player control
 17: 0x0348 [0x21] END_EVENT
 18: 0x0349 [0x00] END_REQSTACK()
```

### Event 65535.26

#### Metadata

| Field        | Value    |
|--------------|----------|
| Entrypoint   | 0x034A   |
| Data Size    | 19 bytes |
| Instructions | 5        |

```
      00 01 02 03 04 05 06 07  08 09 0A 0B 0C 0D 0E 0F
      -- -- -- -- -- -- -- --  -- -- -- -- -- -- -- --
0340:                                29 08 17 10 0F 01            ).....
0350: 01 1D 1C 80 23 29 08 17  10 0F 01 02 00           ....#).......   
```

#### Opcodes

```
  0: 0x034A [0x29] REQ_SET_WAIT(priority=0x08, entity_id=Kororo (ID: 17764375/0x010F1017), tag_num=0x01)
  1: 0x0351 [0x1D] PRINT_EVENT_MESSAGE(message_id=8129*)
    → "So, did you findy him...? What do you meany, he's outsidey of town? Eh? He's that far away from towny?"
  2: 0x0354 [0x23] WAIT_FOR_DIALOG_INTERACTION
  3: 0x0355 [0x29] REQ_SET_WAIT(priority=0x08, entity_id=Kororo (ID: 17764375/0x010F1017), tag_num=0x02)
  4: 0x035C [0x00] END_REQSTACK()
```

### Event 65535.27

#### Metadata

| Field        | Value   |
|--------------|---------|
| Entrypoint   | 0x035D  |
| Data Size    | 5 bytes |
| Instructions | 3       |

```
      00 01 02 03 04 05 06 07  08 09 0A 0B 0C 0D 0E 0F
      -- -- -- -- -- -- -- --  -- -- -- -- -- -- -- --
0350:                                         1D 1E 80               ...
0360: 23 00                                             #.              
```

#### Opcodes

```
  0: 0x035D [0x1D] PRINT_EVENT_MESSAGE(message_id=8130*)
    → "What's he doing in such a dangerous placey? We'd better hurry and send someone out to bring him backy! Here...takey this as a little thank-you for finding himy!"
  1: 0x0360 [0x23] WAIT_FOR_DIALOG_INTERACTION
  2: 0x0361 [0x00] END_REQSTACK()
```

### Event 65535.28

#### Metadata

| Field        | Value    |
|--------------|----------|
| Entrypoint   | 0x0362   |
| Data Size    | 23 bytes |
| Instructions | 7        |

```
      00 01 02 03 04 05 06 07  08 09 0A 0B 0C 0D 0E 0F
      -- -- -- -- -- -- -- --  -- -- -- -- -- -- -- --
0360:       29 08 17 10 0F 01  01 1D 1D 80 23 1D 20 80    ).........#. .
0370: 23 29 08 17 10 0F 01 02  00                       #).......       
```

#### Opcodes

```
  0: 0x0362 [0x29] REQ_SET_WAIT(priority=0x08, entity_id=Kororo (ID: 17764375/0x010F1017), tag_num=0x01)
  1: 0x0369 [0x1D] PRINT_EVENT_MESSAGE(message_id=8131*)
    → "If he stays outside of towny too long, there's a chance people might mistakey him for one of those feral Cardians and killy him!"
  2: 0x036C [0x23] WAIT_FOR_DIALOG_INTERACTION
  3: 0x036D [0x1D] PRINT_EVENT_MESSAGE(message_id=8132*)
    → "What's he doing in such a dangerous placey? We'd better hurry and send someone out to bring him backy!"
  4: 0x0370 [0x23] WAIT_FOR_DIALOG_INTERACTION
  5: 0x0371 [0x29] REQ_SET_WAIT(priority=0x08, entity_id=Kororo (ID: 17764375/0x010F1017), tag_num=0x02)
  6: 0x0378 [0x00] END_REQSTACK()
```

### Event 304

#### Metadata

| Field        | Value    |
|--------------|----------|
| Entrypoint   | 0x0379   |
| Data Size    | 36 bytes |
| Instructions | 13       |

```
      00 01 02 03 04 05 06 07  08 09 0A 0B 0C 0D 0E 0F
      -- -- -- -- -- -- -- --  -- -- -- -- -- -- -- --
0370:                             1E F0 FF FF 7F 6F 70           .....op
0380: 29 08 17 10 0F 01 01 1D  21 80 23 1D 22 80 23 29  ).......!.#.".#)
0390: 08 17 10 0F 01 02 1A 7D  05 20 00 21 00           .......}. .!.   
```

#### Opcodes

```
  0: 0x0379 [0x1E] EventEntity looks at LocalPlayer and starts talking
  1: 0x037E [0x6F] WAIT_FRAME_DELAY: Yield until WaitTime reaches zero
  2: 0x037F [0x70] WAIT_ENTITY_RENDER_FLAG: Wait while EventEntity->Render.Flags3 bit 2 is set (cancel turn if not)
  3: 0x0380 [0x29] REQ_SET_WAIT(priority=0x08, entity_id=Kororo (ID: 17764375/0x010F1017), tag_num=0x01)
  4: 0x0387 [0x1D] PRINT_EVENT_MESSAGE(message_id=8133*)
    → "If he stays outside of towny too long, there's a chance people might mistakey him for one of those feral Cardians and killy him!"
  5: 0x038A [0x23] WAIT_FOR_DIALOG_INTERACTION
  6: 0x038B [0x1D] PRINT_EVENT_MESSAGE(message_id=8134*)
    → "What's he doing in such a dangerous placey? We'd better hurry and send someone out to bring him backy!"
  7: 0x038E [0x23] WAIT_FOR_DIALOG_INTERACTION
  8: 0x038F [0x29] REQ_SET_WAIT(priority=0x08, entity_id=Kororo (ID: 17764375/0x010F1017), tag_num=0x02)
  9: 0x0396 [0x1A] CALL_SUBROUTINE(address=0x057D)
 10: 0x0399 [0x20] SET_CLI_EVENT_UC_FLAG: Unlock player control
 11: 0x039B [0x21] END_EVENT
 12: 0x039C [0x00] END_REQSTACK()
```

### Event 312

#### Metadata

| Field        | Value    |
|--------------|----------|
| Entrypoint   | 0x039D   |
| Data Size    | 36 bytes |
| Instructions | 13       |

```
      00 01 02 03 04 05 06 07  08 09 0A 0B 0C 0D 0E 0F
      -- -- -- -- -- -- -- --  -- -- -- -- -- -- -- --
0390:                                         1E F0 FF               ...
03A0: FF 7F 6F 70 29 08 17 10  0F 01 01 1D 23 80 23 1D  ..op).......#.#.
03B0: 24 80 23 29 08 17 10 0F  01 02 1A 7D 05 20 00 21  $.#).......}. .!
03C0: 00                                                .               
```

#### Opcodes

```
  0: 0x039D [0x1E] EventEntity looks at LocalPlayer and starts talking
  1: 0x03A2 [0x6F] WAIT_FRAME_DELAY: Yield until WaitTime reaches zero
  2: 0x03A3 [0x70] WAIT_ENTITY_RENDER_FLAG: Wait while EventEntity->Render.Flags3 bit 2 is set (cancel turn if not)
  3: 0x03A4 [0x29] REQ_SET_WAIT(priority=0x08, entity_id=Kororo (ID: 17764375/0x010F1017), tag_num=0x01)
  4: 0x03AB [0x1D] PRINT_EVENT_MESSAGE(message_id=8163*)
    → "We've decided to go aheady with our Legendary Plan B--to make and sell special charmies that protect people who travel by nighty."
  5: 0x03AE [0x23] WAIT_FOR_DIALOG_INTERACTION
  6: 0x03AF [0x1D] PRINT_EVENT_MESSAGE(message_id=8164*)
    → "The best thingy is that they don't require any special magicky--so long as we have the right materialies, they are easy to makey!"
  7: 0x03B2 [0x23] WAIT_FOR_DIALOG_INTERACTION
  8: 0x03B3 [0x29] REQ_SET_WAIT(priority=0x08, entity_id=Kororo (ID: 17764375/0x010F1017), tag_num=0x02)
  9: 0x03BA [0x1A] CALL_SUBROUTINE(address=0x057D)
 10: 0x03BD [0x20] SET_CLI_EVENT_UC_FLAG: Unlock player control
 11: 0x03BF [0x21] END_EVENT
 12: 0x03C0 [0x00] END_REQSTACK()
```

### Event 317

#### Metadata

| Field        | Value    |
|--------------|----------|
| Entrypoint   | 0x03C1   |
| Data Size    | 36 bytes |
| Instructions | 13       |

```
      00 01 02 03 04 05 06 07  08 09 0A 0B 0C 0D 0E 0F
      -- -- -- -- -- -- -- --  -- -- -- -- -- -- -- --
03C0:    1E F0 FF FF 7F 6F 70  29 08 17 10 0F 01 01 1D   .....op).......
03D0: 25 80 23 1D 26 80 23 29  08 17 10 0F 01 02 1A 7D  %.#.&.#).......}
03E0: 05 20 00 21 00                                    . .!.           
```

#### Opcodes

```
  0: 0x03C1 [0x1E] EventEntity looks at LocalPlayer and starts talking
  1: 0x03C6 [0x6F] WAIT_FRAME_DELAY: Yield until WaitTime reaches zero
  2: 0x03C7 [0x70] WAIT_ENTITY_RENDER_FLAG: Wait while EventEntity->Render.Flags3 bit 2 is set (cancel turn if not)
  3: 0x03C8 [0x29] REQ_SET_WAIT(priority=0x08, entity_id=Kororo (ID: 17764375/0x010F1017), tag_num=0x01)
  4: 0x03CF [0x1D] PRINT_EVENT_MESSAGE(message_id=8175*)
    → "It just goes to showy...if you have a fingery in more than one pie, you're going to get your fingers burnedy..."
  5: 0x03D2 [0x23] WAIT_FOR_DIALOG_INTERACTION
  6: 0x03D3 [0x1D] PRINT_EVENT_MESSAGE(message_id=8176*)
    → "That was a good lessony in the nature of businessy. There are pitfalls in diversification after all."
  7: 0x03D6 [0x23] WAIT_FOR_DIALOG_INTERACTION
  8: 0x03D7 [0x29] REQ_SET_WAIT(priority=0x08, entity_id=Kororo (ID: 17764375/0x010F1017), tag_num=0x02)
  9: 0x03DE [0x1A] CALL_SUBROUTINE(address=0x057D)
 10: 0x03E1 [0x20] SET_CLI_EVENT_UC_FLAG: Unlock player control
 11: 0x03E3 [0x21] END_EVENT
 12: 0x03E4 [0x00] END_REQSTACK()
```

### Event 394

#### Metadata

| Field        | Value    |
|--------------|----------|
| Entrypoint   | 0x03E5   |
| Data Size    | 36 bytes |
| Instructions | 13       |

```
      00 01 02 03 04 05 06 07  08 09 0A 0B 0C 0D 0E 0F
      -- -- -- -- -- -- -- --  -- -- -- -- -- -- -- --
03E0:                1E F0 FF  FF 7F 6F 70 29 08 17 10       .....op)...
03F0: 0F 01 01 1D 27 80 23 1D  28 80 23 29 08 17 10 0F  ....'.#.(.#)....
0400: 01 02 1A 7D 05 20 00 21  00                       ...}. .!.       
```

#### Opcodes

```
  0: 0x03E5 [0x1E] EventEntity looks at LocalPlayer and starts talking
  1: 0x03EA [0x6F] WAIT_FRAME_DELAY: Yield until WaitTime reaches zero
  2: 0x03EB [0x70] WAIT_ENTITY_RENDER_FLAG: Wait while EventEntity->Render.Flags3 bit 2 is set (cancel turn if not)
  3: 0x03EC [0x29] REQ_SET_WAIT(priority=0x08, entity_id=Kororo (ID: 17764375/0x010F1017), tag_num=0x01)
  4: 0x03F3 [0x1D] PRINT_EVENT_MESSAGE(message_id=8466*)
    → "The magic that we use to breathe life into the automaton dollies can be very dangerousy if used incorrectly."
  5: 0x03F6 [0x23] WAIT_FOR_DIALOG_INTERACTION
  6: 0x03F7 [0x1D] PRINT_EVENT_MESSAGE(message_id=8467*)
    → "It hasn't been as thoroughly researched or perfected as black or white magicy. Often its very use puts the caster herselfy in dangery."
  7: 0x03FA [0x23] WAIT_FOR_DIALOG_INTERACTION
  8: 0x03FB [0x29] REQ_SET_WAIT(priority=0x08, entity_id=Kororo (ID: 17764375/0x010F1017), tag_num=0x02)
  9: 0x0402 [0x1A] CALL_SUBROUTINE(address=0x057D)
 10: 0x0405 [0x20] SET_CLI_EVENT_UC_FLAG: Unlock player control
 11: 0x0407 [0x21] END_EVENT
 12: 0x0408 [0x00] END_REQSTACK()
```

### Event 399

#### Metadata

| Field        | Value    |
|--------------|----------|
| Entrypoint   | 0x0409   |
| Data Size    | 36 bytes |
| Instructions | 13       |

```
      00 01 02 03 04 05 06 07  08 09 0A 0B 0C 0D 0E 0F
      -- -- -- -- -- -- -- --  -- -- -- -- -- -- -- --
0400:                             1E F0 FF FF 7F 6F 70           .....op
0410: 29 08 17 10 0F 01 01 1D  29 80 23 1D 2A 80 23 29  ).......).#.*.#)
0420: 08 17 10 0F 01 02 1A 7D  05 20 00 21 00           .......}. .!.   
```

#### Opcodes

```
  0: 0x0409 [0x1E] EventEntity looks at LocalPlayer and starts talking
  1: 0x040E [0x6F] WAIT_FRAME_DELAY: Yield until WaitTime reaches zero
  2: 0x040F [0x70] WAIT_ENTITY_RENDER_FLAG: Wait while EventEntity->Render.Flags3 bit 2 is set (cancel turn if not)
  3: 0x0410 [0x29] REQ_SET_WAIT(priority=0x08, entity_id=Kororo (ID: 17764375/0x010F1017), tag_num=0x01)
  4: 0x0417 [0x1D] PRINT_EVENT_MESSAGE(message_id=8477*)
    → "Ooh, scary-warey! Don'ty you go disturbingy Minister Apururu now!"
  5: 0x041A [0x23] WAIT_FOR_DIALOG_INTERACTION
  6: 0x041B [0x1D] PRINT_EVENT_MESSAGE(message_id=8478*)
    → "The magic needed to breathe lifey into a Cardian are all very delicate operationies. She has to keepy her concentration, she does!"
  7: 0x041E [0x23] WAIT_FOR_DIALOG_INTERACTION
  8: 0x041F [0x29] REQ_SET_WAIT(priority=0x08, entity_id=Kororo (ID: 17764375/0x010F1017), tag_num=0x02)
  9: 0x0426 [0x1A] CALL_SUBROUTINE(address=0x057D)
 10: 0x0429 [0x20] SET_CLI_EVENT_UC_FLAG: Unlock player control
 11: 0x042B [0x21] END_EVENT
 12: 0x042C [0x00] END_REQSTACK()
```

### Event 319

#### Metadata

| Field        | Value   |
|--------------|---------|
| Entrypoint   | 0x042D  |
| Data Size    | 1 bytes |
| Instructions | 1       |

```
      00 01 02 03 04 05 06 07  08 09 0A 0B 0C 0D 0E 0F
      -- -- -- -- -- -- -- --  -- -- -- -- -- -- -- --
0420:                                         00                     .  
```

#### Opcodes

```
  0: 0x042D [0x00] END_REQSTACK()
```

### Event 321

#### Metadata

| Field        | Value    |
|--------------|----------|
| Entrypoint   | 0x042E   |
| Data Size    | 36 bytes |
| Instructions | 13       |

```
      00 01 02 03 04 05 06 07  08 09 0A 0B 0C 0D 0E 0F
      -- -- -- -- -- -- -- --  -- -- -- -- -- -- -- --
0420:                                            1E F0                ..
0430: FF FF 7F 6F 70 29 08 17  10 0F 01 01 1D 2B 80 23  ...op).......+.#
0440: 1D 2C 80 23 29 08 17 10  0F 01 02 1A 7D 05 20 00  .,.#).......}. .
0450: 21 00                                             !.              
```

#### Opcodes

```
  0: 0x042E [0x1E] EventEntity looks at LocalPlayer and starts talking
  1: 0x0433 [0x6F] WAIT_FRAME_DELAY: Yield until WaitTime reaches zero
  2: 0x0434 [0x70] WAIT_ENTITY_RENDER_FLAG: Wait while EventEntity->Render.Flags3 bit 2 is set (cancel turn if not)
  3: 0x0435 [0x29] REQ_SET_WAIT(priority=0x08, entity_id=Kororo (ID: 17764375/0x010F1017), tag_num=0x01)
  4: 0x043C [0x1D] PRINT_EVENT_MESSAGE(message_id=8194*)
    → "No mattery how many times you experience it, saying our last goodbyes to our Cardian kiddies is a sorrowful thingy."
  5: 0x043F [0x23] WAIT_FOR_DIALOG_INTERACTION
  6: 0x0440 [0x1D] PRINT_EVENT_MESSAGE(message_id=8195*)
    → "<sniff> It's all the more painfuly when it is a Cardiany you breathed life into and raised with your own handies. <sob> Waaah!"
  7: 0x0443 [0x23] WAIT_FOR_DIALOG_INTERACTION
  8: 0x0444 [0x29] REQ_SET_WAIT(priority=0x08, entity_id=Kororo (ID: 17764375/0x010F1017), tag_num=0x02)
  9: 0x044B [0x1A] CALL_SUBROUTINE(address=0x057D)
 10: 0x044E [0x20] SET_CLI_EVENT_UC_FLAG: Unlock player control
 11: 0x0450 [0x21] END_EVENT
 12: 0x0451 [0x00] END_REQSTACK()
```

### Event 331

#### Metadata

| Field        | Value    |
|--------------|----------|
| Entrypoint   | 0x0452   |
| Data Size    | 36 bytes |
| Instructions | 13       |

```
      00 01 02 03 04 05 06 07  08 09 0A 0B 0C 0D 0E 0F
      -- -- -- -- -- -- -- --  -- -- -- -- -- -- -- --
0450:       1E F0 FF FF 7F 6F  70 29 08 17 10 0F 01 01    .....op)......
0460: 1D 2D 80 23 1D 2E 80 23  29 08 17 10 0F 01 02 1A  .-.#...#).......
0470: 7D 05 20 00 21 00                                 }. .!.          
```

#### Opcodes

```
  0: 0x0452 [0x1E] EventEntity looks at LocalPlayer and starts talking
  1: 0x0457 [0x6F] WAIT_FRAME_DELAY: Yield until WaitTime reaches zero
  2: 0x0458 [0x70] WAIT_ENTITY_RENDER_FLAG: Wait while EventEntity->Render.Flags3 bit 2 is set (cancel turn if not)
  3: 0x0459 [0x29] REQ_SET_WAIT(priority=0x08, entity_id=Kororo (ID: 17764375/0x010F1017), tag_num=0x01)
  4: 0x0460 [0x1D] PRINT_EVENT_MESSAGE(message_id=8233*)
    → "Ice in the shapey of a tear... Ice that didn't melty until it touched the handies of Boizo-Naizo... There are many unexplainable mysteries in this worldy."
  5: 0x0463 [0x23] WAIT_FOR_DIALOG_INTERACTION
  6: 0x0464 [0x1D] PRINT_EVENT_MESSAGE(message_id=8234*)
    → "Say... I wondery if Cardians can cry? There is no such devicey built into them to enabley them to, though..."
  7: 0x0467 [0x23] WAIT_FOR_DIALOG_INTERACTION
  8: 0x0468 [0x29] REQ_SET_WAIT(priority=0x08, entity_id=Kororo (ID: 17764375/0x010F1017), tag_num=0x02)
  9: 0x046F [0x1A] CALL_SUBROUTINE(address=0x057D)
 10: 0x0472 [0x20] SET_CLI_EVENT_UC_FLAG: Unlock player control
 11: 0x0474 [0x21] END_EVENT
 12: 0x0475 [0x00] END_REQSTACK()
```

### Event 604

#### Metadata

| Field        | Value    |
|--------------|----------|
| Entrypoint   | 0x0476   |
| Data Size    | 50 bytes |
| Instructions | 15       |

```
      00 01 02 03 04 05 06 07  08 09 0A 0B 0C 0D 0E 0F
      -- -- -- -- -- -- -- --  -- -- -- -- -- -- -- --
0470:                   1E F0  FF FF 7F 6F 70 29 08 17        .....op)..
0480: 10 0F 01 01 1D 2F 80 23  29 08 17 10 0F 01 02 29  ...../.#)......)
0490: 08 17 10 0F 01 0F 1D 30  80 23 29 08 17 10 0F 01  .......0.#).....
04A0: 10 1A 7D 05 20 00 21 00                           ..}. .!.        
```

#### Opcodes

```
  0: 0x0476 [0x1E] EventEntity looks at LocalPlayer and starts talking
  1: 0x047B [0x6F] WAIT_FRAME_DELAY: Yield until WaitTime reaches zero
  2: 0x047C [0x70] WAIT_ENTITY_RENDER_FLAG: Wait while EventEntity->Render.Flags3 bit 2 is set (cancel turn if not)
  3: 0x047D [0x29] REQ_SET_WAIT(priority=0x08, entity_id=Kororo (ID: 17764375/0x010F1017), tag_num=0x01)
  4: 0x0484 [0x1D] PRINT_EVENT_MESSAGE(message_id=9526*)
    → ""Rules were made to be broken." That way of thinking got Minister Ajido-Marujido thrown in the slammer-wammer."
  5: 0x0487 [0x23] WAIT_FOR_DIALOG_INTERACTION
  6: 0x0488 [0x29] REQ_SET_WAIT(priority=0x08, entity_id=Kororo (ID: 17764375/0x010F1017), tag_num=0x02)
  7: 0x048F [0x29] REQ_SET_WAIT(priority=0x08, entity_id=Kororo (ID: 17764375/0x010F1017), tag_num=0x0F)
  8: 0x0496 [0x1D] PRINT_EVENT_MESSAGE(message_id=9527*)
    → "And now his younger sister, Minister Apururu, has taken up the motto: "Jails were made to be broken.""
  9: 0x0499 [0x23] WAIT_FOR_DIALOG_INTERACTION
 10: 0x049A [0x29] REQ_SET_WAIT(priority=0x08, entity_id=Kororo (ID: 17764375/0x010F1017), tag_num=0x10)
 11: 0x04A1 [0x1A] CALL_SUBROUTINE(address=0x057D)
 12: 0x04A4 [0x20] SET_CLI_EVENT_UC_FLAG: Unlock player control
 13: 0x04A6 [0x21] END_EVENT
 14: 0x04A7 [0x00] END_REQSTACK()
```

### Event 608

#### Metadata

| Field        | Value    |
|--------------|----------|
| Entrypoint   | 0x04A8   |
| Data Size    | 64 bytes |
| Instructions | 17       |

```
      00 01 02 03 04 05 06 07  08 09 0A 0B 0C 0D 0E 0F
      -- -- -- -- -- -- -- --  -- -- -- -- -- -- -- --
04A0:                          1E F0 FF FF 7F 6F 70 29          .....op)
04B0: 08 17 10 0F 01 11 1D 31  80 23 29 08 17 10 0F 01  .......1.#).....
04C0: 12 29 08 17 10 0F 01 03  1D 32 80 23 29 08 17 10  .).......2.#)...
04D0: 0F 01 04 29 08 17 10 0F  01 05 29 08 17 10 0F 01  ...)......).....
04E0: 06 1A 7D 05 20 00 21 00                           ..}. .!.        
```

#### Opcodes

```
  0: 0x04A8 [0x1E] EventEntity looks at LocalPlayer and starts talking
  1: 0x04AD [0x6F] WAIT_FRAME_DELAY: Yield until WaitTime reaches zero
  2: 0x04AE [0x70] WAIT_ENTITY_RENDER_FLAG: Wait while EventEntity->Render.Flags3 bit 2 is set (cancel turn if not)
  3: 0x04AF [0x29] REQ_SET_WAIT(priority=0x08, entity_id=Kororo (ID: 17764375/0x010F1017), tag_num=0x11)
  4: 0x04B6 [0x1D] PRINT_EVENT_MESSAGE(message_id=9555*)
    → "I can'taru believe there was a jailbreaky! Minister Apururu is so cooly!"
  5: 0x04B9 [0x23] WAIT_FOR_DIALOG_INTERACTION
  6: 0x04BA [0x29] REQ_SET_WAIT(priority=0x08, entity_id=Kororo (ID: 17764375/0x010F1017), tag_num=0x12)
  7: 0x04C1 [0x29] REQ_SET_WAIT(priority=0x08, entity_id=Kororo (ID: 17764375/0x010F1017), tag_num=0x03)
  8: 0x04C8 [0x1D] PRINT_EVENT_MESSAGE(message_id=9556*)
    → "But I get the feelingy there was someone along to help her... It went just a little too well for one of Minister Apururu's schemeys."
  9: 0x04CB [0x23] WAIT_FOR_DIALOG_INTERACTION
 10: 0x04CC [0x29] REQ_SET_WAIT(priority=0x08, entity_id=Kororo (ID: 17764375/0x010F1017), tag_num=0x04)
 11: 0x04D3 [0x29] REQ_SET_WAIT(priority=0x08, entity_id=Kororo (ID: 17764375/0x010F1017), tag_num=0x05)
 12: 0x04DA [0x29] REQ_SET_WAIT(priority=0x08, entity_id=Kororo (ID: 17764375/0x010F1017), tag_num=0x06)
 13: 0x04E1 [0x1A] CALL_SUBROUTINE(address=0x057D)
 14: 0x04E4 [0x20] SET_CLI_EVENT_UC_FLAG: Unlock player control
 15: 0x04E6 [0x21] END_EVENT
 16: 0x04E7 [0x00] END_REQSTACK()
```

### Event 137

#### Metadata

| Field        | Value   |
|--------------|---------|
| Entrypoint   | 0x04E8  |
| Data Size    | 1 bytes |
| Instructions | 1       |

```
      00 01 02 03 04 05 06 07  08 09 0A 0B 0C 0D 0E 0F
      -- -- -- -- -- -- -- --  -- -- -- -- -- -- -- --
04E0:                          00                               .       
```

#### Opcodes

```
  0: 0x04E8 [0x00] END_REQSTACK()
```

### Event 143

#### Metadata

| Field        | Value   |
|--------------|---------|
| Entrypoint   | 0x04E9  |
| Data Size    | 1 bytes |
| Instructions | 1       |

```
      00 01 02 03 04 05 06 07  08 09 0A 0B 0C 0D 0E 0F
      -- -- -- -- -- -- -- --  -- -- -- -- -- -- -- --
04E0:                             00                             .      
```

#### Opcodes

```
  0: 0x04E9 [0x00] END_REQSTACK()
```

### Event 145

#### Metadata

| Field        | Value   |
|--------------|---------|
| Entrypoint   | 0x04EA  |
| Data Size    | 1 bytes |
| Instructions | 1       |

```
      00 01 02 03 04 05 06 07  08 09 0A 0B 0C 0D 0E 0F
      -- -- -- -- -- -- -- --  -- -- -- -- -- -- -- --
04E0:                                00                           .     
```

#### Opcodes

```
  0: 0x04EA [0x00] END_REQSTACK()
```

### Event 588

#### Metadata

| Field        | Value   |
|--------------|---------|
| Entrypoint   | 0x04EB  |
| Data Size    | 1 bytes |
| Instructions | 1       |

```
      00 01 02 03 04 05 06 07  08 09 0A 0B 0C 0D 0E 0F
      -- -- -- -- -- -- -- --  -- -- -- -- -- -- -- --
04E0:                                   00                         .    
```

#### Opcodes

```
  0: 0x04EB [0x00] END_REQSTACK()
```

### Event 590

#### Metadata

| Field        | Value   |
|--------------|---------|
| Entrypoint   | 0x04EC  |
| Data Size    | 1 bytes |
| Instructions | 1       |

```
      00 01 02 03 04 05 06 07  08 09 0A 0B 0C 0D 0E 0F
      -- -- -- -- -- -- -- --  -- -- -- -- -- -- -- --
04E0:                                      00                       .   
```

#### Opcodes

```
  0: 0x04EC [0x00] END_REQSTACK()
```

### Event 621

#### Metadata

| Field        | Value   |
|--------------|---------|
| Entrypoint   | 0x04ED  |
| Data Size    | 3 bytes |
| Instructions | 2       |

```
      00 01 02 03 04 05 06 07  08 09 0A 0B 0C 0D 0E 0F
      -- -- -- -- -- -- -- --  -- -- -- -- -- -- -- --
04E0:                                         22 01 00               "..
```

#### Opcodes

```
  0: 0x04ED [0x22] ENTITY_HIDE_FLAG(enabled=0x01)
  1: 0x04EF [0x00] END_REQSTACK()
```

### Event 619

#### Metadata

| Field        | Value   |
|--------------|---------|
| Entrypoint   | 0x04F0  |
| Data Size    | 3 bytes |
| Instructions | 2       |

```
      00 01 02 03 04 05 06 07  08 09 0A 0B 0C 0D 0E 0F
      -- -- -- -- -- -- -- --  -- -- -- -- -- -- -- --
04F0: 22 01 00                                          "..             
```

#### Opcodes

```
  0: 0x04F0 [0x22] ENTITY_HIDE_FLAG(enabled=0x01)
  1: 0x04F2 [0x00] END_REQSTACK()
```

### Event 620

#### Metadata

| Field        | Value   |
|--------------|---------|
| Entrypoint   | 0x04F3  |
| Data Size    | 1 bytes |
| Instructions | 1       |

```
      00 01 02 03 04 05 06 07  08 09 0A 0B 0C 0D 0E 0F
      -- -- -- -- -- -- -- --  -- -- -- -- -- -- -- --
04F0:          00                                          .            
```

#### Opcodes

```
  0: 0x04F3 [0x00] END_REQSTACK()
```

### Event 600

#### Metadata

| Field        | Value   |
|--------------|---------|
| Entrypoint   | 0x04F4  |
| Data Size    | 1 bytes |
| Instructions | 1       |

```
      00 01 02 03 04 05 06 07  08 09 0A 0B 0C 0D 0E 0F
      -- -- -- -- -- -- -- --  -- -- -- -- -- -- -- --
04F0:             00                                        .           
```

#### Opcodes

```
  0: 0x04F4 [0x00] END_REQSTACK()
```

### Event 649

#### Metadata

| Field        | Value    |
|--------------|----------|
| Entrypoint   | 0x04F5   |
| Data Size    | 68 bytes |
| Instructions | 19       |

```
      00 01 02 03 04 05 06 07  08 09 0A 0B 0C 0D 0E 0F
      -- -- -- -- -- -- -- --  -- -- -- -- -- -- -- --
04F0:                1E F0 FF  FF 7F 6F 70 29 08 17 10       .....op)...
0500: 0F 01 03 1D 33 80 23 29  08 17 10 0F 01 04 29 08  ....3.#)......).
0510: 17 10 0F 01 05 1D 34 80  23 29 08 17 10 0F 01 06  ......4.#)......
0520: 29 08 17 10 0F 01 11 1D  35 80 23 29 08 17 10 0F  ).......5.#)....
0530: 01 12 1A 7D 05 20 00 21  00                       ...}. .!.       
```

#### Opcodes

```
  0: 0x04F5 [0x1E] EventEntity looks at LocalPlayer and starts talking
  1: 0x04FA [0x6F] WAIT_FRAME_DELAY: Yield until WaitTime reaches zero
  2: 0x04FB [0x70] WAIT_ENTITY_RENDER_FLAG: Wait while EventEntity->Render.Flags3 bit 2 is set (cancel turn if not)
  3: 0x04FC [0x29] REQ_SET_WAIT(priority=0x08, entity_id=Kororo (ID: 17764375/0x010F1017), tag_num=0x03)
  4: 0x0503 [0x1D] PRINT_EVENT_MESSAGE(message_id=9669*)
    → "Minister Apururu has been up late every night, researchingy the old Cardians made by Zonpa-Zippa."
  5: 0x0506 [0x23] WAIT_FOR_DIALOG_INTERACTION
  6: 0x0507 [0x29] REQ_SET_WAIT(priority=0x08, entity_id=Kororo (ID: 17764375/0x010F1017), tag_num=0x04)
  7: 0x050E [0x29] REQ_SET_WAIT(priority=0x08, entity_id=Kororo (ID: 17764375/0x010F1017), tag_num=0x05)
  8: 0x0515 [0x1D] PRINT_EVENT_MESSAGE(message_id=9670*)
    → "It's really very simple if you wanted to disabley the old Cardians. All you would have to do is searchy out Minister Zonpa-Zippa and takey him out of the picture..."
  9: 0x0518 [0x23] WAIT_FOR_DIALOG_INTERACTION
 10: 0x0519 [0x29] REQ_SET_WAIT(priority=0x08, entity_id=Kororo (ID: 17764375/0x010F1017), tag_num=0x06)
 11: 0x0520 [0x29] REQ_SET_WAIT(priority=0x08, entity_id=Kororo (ID: 17764375/0x010F1017), tag_num=0x11)
 12: 0x0527 [0x1D] PRINT_EVENT_MESSAGE(message_id=9671*)
    → "Wa-wa-wait! That justaru slippedy out! I don'taru want to go to the Dark Dungeon!"
 13: 0x052A [0x23] WAIT_FOR_DIALOG_INTERACTION
 14: 0x052B [0x29] REQ_SET_WAIT(priority=0x08, entity_id=Kororo (ID: 17764375/0x010F1017), tag_num=0x12)
 15: 0x0532 [0x1A] CALL_SUBROUTINE(address=0x057D)
 16: 0x0535 [0x20] SET_CLI_EVENT_UC_FLAG: Unlock player control
 17: 0x0537 [0x21] END_EVENT
 18: 0x0538 [0x00] END_REQSTACK()
```

### Event 650

#### Metadata

| Field        | Value     |
|--------------|-----------|
| Entrypoint   | 0x0539    |
| Data Size    | 223 bytes |
| Instructions | 54        |

```
      00 01 02 03 04 05 06 07  08 09 0A 0B 0C 0D 0E 0F
      -- -- -- -- -- -- -- --  -- -- -- -- -- -- -- --
0530:                             1E F0 FF FF 7F 6F 70           .....op
0540: 29 08 17 10 0F 01 01 1D  36 80 23 29 08 17 10 0F  ).......6.#)....
0550: 01 02 29 08 17 10 0F 01  03 1D 37 80 23 29 08 17  ..).......7.#)..
0560: 10 0F 01 04 29 08 17 10  0F 01 05 1D 38 80 23 29  ....).......8.#)
0570: 08 17 10 0F 01 06 1A 7D  05 20 00 21 00 03 01 10  .......}. .!....
0580: 10 80 43 00 43 01 02 03  10 0E 80 00 96 05 03 01  ..C.C...........
0590: 10 10 80 01 17 06 42 24  39 80 0F 80 0E 80 25 02  ......B$9.....%.
05A0: 00 10 0E 80 00 07 06 1E  F0 FF FF 7F 1C 01 80 03  ................
05B0: 01 10 3A 80 43 00 43 01  02 03 10 0F 80 00 ED 05  ..:.C.C.........
05C0: 1D 3B 80 23 66 00 80 F8  FF FF 7F F8 FF FF 7F 74  .;.#f..........t
05D0: 6C 6B 30 1D 3C 80 23 66  00 80 F8 FF FF 7F F8 FF  lk0.<.#f........
05E0: FF 7F 74 6C 6B 31 1D 3D  80 23 01 04 06 1D 3E 80  ..tlk1.=.#....>.
05F0: 23 66 00 80 F8 FF FF 7F  F8 FF FF 7F 69 72 6F 30  #f..........iro0
0600: 1D 3F 80 23 01 17 06 02  00 10 0F 80 00 17 06 03  .?.#............
0610: 01 10 0E 80 01 17 06 1B                           ........        
```

#### Opcodes

```
  0: 0x0539 [0x1E] EventEntity looks at LocalPlayer and starts talking
  1: 0x053E [0x6F] WAIT_FRAME_DELAY: Yield until WaitTime reaches zero
  2: 0x053F [0x70] WAIT_ENTITY_RENDER_FLAG: Wait while EventEntity->Render.Flags3 bit 2 is set (cancel turn if not)
  3: 0x0540 [0x29] REQ_SET_WAIT(priority=0x08, entity_id=Kororo (ID: 17764375/0x010F1017), tag_num=0x01)
  4: 0x0547 [0x1D] PRINT_EVENT_MESSAGE(message_id=9707*)
    → "Minister Apururu is still studying the Cardians builty by her father, Zonpa-Zippa."
  5: 0x054A [0x23] WAIT_FOR_DIALOG_INTERACTION
  6: 0x054B [0x29] REQ_SET_WAIT(priority=0x08, entity_id=Kororo (ID: 17764375/0x010F1017), tag_num=0x02)
  7: 0x0552 [0x29] REQ_SET_WAIT(priority=0x08, entity_id=Kororo (ID: 17764375/0x010F1017), tag_num=0x03)
  8: 0x0559 [0x1D] PRINT_EVENT_MESSAGE(message_id=9708*)
    → "With all the queasy-weasy experiments detailed in the previous minister's notes, though, I don'taru thinky Minister Apururu really wants to read through them..."
  9: 0x055C [0x23] WAIT_FOR_DIALOG_INTERACTION
 10: 0x055D [0x29] REQ_SET_WAIT(priority=0x08, entity_id=Kororo (ID: 17764375/0x010F1017), tag_num=0x04)
 11: 0x0564 [0x29] REQ_SET_WAIT(priority=0x08, entity_id=Kororo (ID: 17764375/0x010F1017), tag_num=0x05)
 12: 0x056B [0x1D] PRINT_EVENT_MESSAGE(message_id=9709*)
    → "Maybe she's foundy some clues on how to stop those Cardians. Don't give up, Minister Apururu!"
 13: 0x056E [0x23] WAIT_FOR_DIALOG_INTERACTION
 14: 0x056F [0x29] REQ_SET_WAIT(priority=0x08, entity_id=Kororo (ID: 17764375/0x010F1017), tag_num=0x06)
 15: 0x0576 [0x1A] CALL_SUBROUTINE(address=0x057D)
 16: 0x0579 [0x20] SET_CLI_EVENT_UC_FLAG: Unlock player control
 17: 0x057B [0x21] END_EVENT
 18: 0x057C [0x00] END_REQSTACK()

SUBROUTINE_057D:
 19: 0x057D [0x03] Work_Zone[1] = 2*
 20: 0x0582 [0x43] SEND_EVENT_UPDATE: Send pending tag to server (packet 0x005B)
 21: 0x0584 [0x43] SEND_EVENT_UPDATE: Check pending flag (skip if not pending)
 22: 0x0586 [0x02] IF !(Work_Zone[3] == 0*) GOTO 0x0596
 23: 0x058E [0x03] Work_Zone[1] = 2*
 24: 0x0593 [0x01] GOTO 0x0617
 25: 0x0596 [0x42] SET_CLI_EVENT_CANCEL_DATA()
 26: 0x0597 [0x24] CREATE_DIALOG(message_id=11872*, default_option=1*, option_flags=0*)
    → "Ask if this person is the chick's owner? [Yes./No.]"
 27: 0x059E [0x25] WAIT_DIALOG_SELECT()
 28: 0x059F [0x02] IF !(Work_Zone[0] == 0*) GOTO 0x0607
 29: 0x05A7 [0x1E] EventEntity looks at LocalPlayer and starts talking
 30: 0x05AC [0x1C] WAIT(30* ticks)
 31: 0x05AF [0x03] Work_Zone[1] = 3*
 32: 0x05B4 [0x43] SEND_EVENT_UPDATE: Send pending tag to server (packet 0x005B)
 33: 0x05B6 [0x43] SEND_EVENT_UPDATE: Check pending flag (skip if not pending)
 34: 0x05B8 [0x02] IF !(Work_Zone[3] == 1*) GOTO 0x05ED
 35: 0x05C0 [0x1D] PRINT_EVENT_MESSAGE(message_id=11900*)
    → "My chocobo's in your care, is she?"
 36: 0x05C3 [0x23] WAIT_FOR_DIALOG_INTERACTION
 37: 0x05C4 [0x66] LOAD_EXT_SCHEDULER_MAIN: Load scheduler "tlk0" with entities [EventEntity, EventEntity], work=40*
 38: 0x05D3 [0x1D] PRINT_EVENT_MESSAGE(message_id=11901*)
    → "Oh, how should I thanky you? A friendy for life? A million-billion hugs? ...I know! How about a story to tell your chocobo?"
 39: 0x05D6 [0x23] WAIT_FOR_DIALOG_INTERACTION
 40: 0x05D7 [0x66] LOAD_EXT_SCHEDULER_MAIN: Load scheduler "tlk1" with entities [EventEntity, EventEntity], work=40*
 41: 0x05E6 [0x1D] PRINT_EVENT_MESSAGE(message_id=11902*)
    → "Cardians and chocobos... They're both fantastically fantastic!"
 42: 0x05E9 [0x23] WAIT_FOR_DIALOG_INTERACTION
 43: 0x05EA [0x01] GOTO 0x0604
 44: 0x05ED [0x1D] PRINT_EVENT_MESSAGE(message_id=11921*)
    → "You say you've got my chocobo?"
 45: 0x05F0 [0x23] WAIT_FOR_DIALOG_INTERACTION
 46: 0x05F1 [0x66] LOAD_EXT_SCHEDULER_MAIN: Load scheduler "iro0" with entities [EventEntity, EventEntity], work=40*
 47: 0x0600 [0x1D] PRINT_EVENT_MESSAGE(message_id=11922*)
    → "I may not be able to animatey a Cardian yet, but I have confidencey in my chocobo-raising skills! You must have the wrong person."
 48: 0x0603 [0x23] WAIT_FOR_DIALOG_INTERACTION

SUBROUTINE_0604:
 49: 0x0604 [0x01] GOTO 0x0617
 50: 0x0607 [0x02] IF !(Work_Zone[0] == 1*) GOTO 0x0617
 51: 0x060F [0x03] Work_Zone[1] = 0*
 52: 0x0614 [0x01] GOTO 0x0617

SUBROUTINE_0617:
 53: 0x0617 [0x1B] RETURN
```
