# 17764470 - Perih Vashai

## Common Data

| Field            | Value                    |
|------------------|--------------------------|
| Zone             | Windurst Woods (ID: 241) |
| Block Size       | 17044 bytes              |
| Total Events     | 93                       |
| References Count | 240                      |

## List of Events

| Event ID                   | Entrypoint   |   Size |   Instructions |
|----------------------------|--------------|--------|----------------|
| [65535](#event-65535)      | 0x0000       |      1 |              1 |
| [65535.1](#event-655351)   | 0x0001       |     16 |              2 |
| [65535.2](#event-655352)   | 0x0011       |     22 |              4 |
| [65535.3](#event-655353)   | 0x0027       |     16 |              2 |
| [65535.4](#event-655354)   | 0x0037       |     14 |              2 |
| [65535.5](#event-655355)   | 0x0045       |     16 |              2 |
| [65535.6](#event-655356)   | 0x0055       |     14 |              2 |
| [65535.7](#event-655357)   | 0x0063       |     16 |              2 |
| [65535.8](#event-655358)   | 0x0073       |     14 |              2 |
| [65535.9](#event-655359)   | 0x0081       |     16 |              2 |
| [65535.10](#event-6553510) | 0x0091       |     14 |              2 |
| [65535.11](#event-6553511) | 0x009F       |      9 |              3 |
| [65535.12](#event-6553512) | 0x00A8       |     16 |              2 |
| [65535.13](#event-6553513) | 0x00B8       |     14 |              2 |
| [65535.14](#event-6553514) | 0x00C6       |     16 |              2 |
| [65535.15](#event-6553515) | 0x00D6       |     14 |              2 |
| [338](#event-338)          | 0x00E4       |     45 |             12 |
| [345](#event-345)          | 0x0111       |     45 |             12 |
| [348](#event-348)          | 0x013E       |     45 |             12 |
| [351](#event-351)          | 0x016B       |    178 |             22 |
| [65535.16](#event-6553516) | 0x021D       |     37 |              9 |
| [65535.17](#event-6553517) | 0x0242       |     37 |              9 |
| [65535.18](#event-6553518) | 0x0267       |     37 |              9 |
| [352](#event-352)          | 0x028C       |     45 |             12 |
| [356](#event-356)          | 0x02B9       |     44 |             12 |
| [357](#event-357)          | 0x02E5       |    180 |             22 |
| [65535.19](#event-6553519) | 0x0399       |     37 |              9 |
| [65535.20](#event-6553520) | 0x03BE       |     19 |              5 |
| [358](#event-358)          | 0x03D1       |     45 |             12 |
| [523](#event-523)          | 0x03FE       |    216 |             30 |
| [65535.21](#event-6553521) | 0x04D6       |     23 |              7 |
| [65535.22](#event-6553522) | 0x04ED       |     19 |              5 |
| [65535.23](#event-6553523) | 0x0500       |     23 |              7 |
| [524](#event-524)          | 0x0517       |     17 |              8 |
| [527](#event-527)          | 0x0528       |   1554 |            170 |
| [65535.24](#event-6553524) | 0x0B3A       |      5 |              3 |
| [65535.25](#event-6553525) | 0x0B3F       |     19 |              5 |
| [65535.26](#event-6553526) | 0x0B52       |      5 |              3 |
| [65535.27](#event-6553527) | 0x0B57       |     17 |              5 |
| [65535.28](#event-6553528) | 0x0B68       |     19 |              5 |
| [65535.29](#event-6553529) | 0x0B7B       |      5 |              3 |
| [65535.30](#event-6553530) | 0x0B80       |     17 |              5 |
| [65535.31](#event-6553531) | 0x0B91       |      9 |              5 |
| [65535.32](#event-6553532) | 0x0B9A       |     19 |              5 |
| [528](#event-528)          | 0x0BAD       |     17 |              8 |
| [531](#event-531)          | 0x0BBE       |    274 |             36 |
| [65535.33](#event-6553533) | 0x0CD0       |      5 |              3 |
| [65535.34](#event-6553534) | 0x0CD5       |      5 |              3 |
| [65535.35](#event-6553535) | 0x0CDA       |      5 |              3 |
| [65535.36](#event-6553536) | 0x0CDF       |      5 |              3 |
| [532](#event-532)          | 0x0CE4       |     17 |              8 |
| [535](#event-535)          | 0x0CF5       |    884 |             99 |
| [65535.37](#event-6553537) | 0x1069       |      5 |              3 |
| [65535.38](#event-6553538) | 0x106E       |      9 |              5 |
| [65535.39](#event-6553539) | 0x1077       |      9 |              5 |
| [65535.40](#event-6553540) | 0x1080       |      9 |              5 |
| [536](#event-536)          | 0x1089       |     21 |             10 |
| [537](#event-537)          | 0x109E       |   1066 |            127 |
| [65535.41](#event-6553541) | 0x14C8       |      5 |              3 |
| [65535.42](#event-6553542) | 0x14CD       |     17 |              5 |
| [538](#event-538)          | 0x14DE       |     17 |              8 |
| [541](#event-541)          | 0x14EF       |    699 |             79 |
| [65535.43](#event-6553543) | 0x17AA       |      5 |              3 |
| [65535.44](#event-6553544) | 0x17AF       |      5 |              3 |
| [65535.45](#event-6553545) | 0x17B4       |      5 |              3 |
| [65535.46](#event-6553546) | 0x17B9       |      9 |              5 |
| [65535.47](#event-6553547) | 0x17C2       |      5 |              3 |
| [542](#event-542)          | 0x17C7       |     17 |              8 |
| [545](#event-545)          | 0x17D8       |     17 |              8 |
| [546](#event-546)          | 0x17E9       |   1789 |            197 |
| [65535.48](#event-6553548) | 0x1EE6       |      5 |              3 |
| [65535.49](#event-6553549) | 0x1EEB       |      5 |              3 |
| [65535.50](#event-6553550) | 0x1EF0       |      5 |              3 |
| [65535.51](#event-6553551) | 0x1EF5       |      5 |              3 |
| [65535.52](#event-6553552) | 0x1EFA       |      5 |              3 |
| [65535.53](#event-6553553) | 0x1EFF       |      5 |              3 |
| [65535.54](#event-6553554) | 0x1F04       |      5 |              3 |
| [65535.55](#event-6553555) | 0x1F09       |      5 |              3 |
| [65535.56](#event-6553556) | 0x1F0E       |      5 |              3 |
| [65535.57](#event-6553557) | 0x1F13       |      5 |              3 |
| [547](#event-547)          | 0x1F18       |     17 |              8 |
| [638](#event-638)          | 0x1F29       |     25 |             12 |
| [642](#event-642)          | 0x1F42       |     44 |             16 |
| [661](#event-661)          | 0x1F6E       |    423 |             60 |
| [662](#event-662)          | 0x2115       |    127 |             35 |
| [663](#event-663)          | 0x2194       |     12 |              7 |
| [664](#event-664)          | 0x21A0       |    323 |             47 |
| [665](#event-665)          | 0x22E3       |      8 |              5 |
| [666](#event-666)          | 0x22EB       |    286 |             42 |
| [686](#event-686)          | 0x2409       |      7 |              2 |
| [687](#event-687)          | 0x2410       |     12 |              7 |
| [869](#event-869)          | 0x241C       |   6394 |            816 |
| [870](#event-870)          | 0x3D16       |     57 |             15 |

## DAT References (imed_data)

|   Index | Hex Value   |   Dec Value |
|---------|-------------|-------------|
|       0 | 0x00AF      |         175 |
|       1 | 0x001E      |          30 |
|       2 | 0x00B0      |         176 |
|       3 | 0x203A      |        8250 |
|       4 | 0x203B      |        8251 |
|       5 | 0x2048      |        8264 |
|       6 | 0x2049      |        8265 |
|       7 | 0x204E      |        8270 |
|       8 | 0x204F      |        8271 |
|       9 | 0x00C8      |         200 |
|      10 | 0x0000      |           0 |
|      11 | 0x003C      |          60 |
|      12 | 0x0003      |           3 |
|      13 | 0x008D      |         141 |
|      14 | 0x2054      |        8276 |
|      15 | 0x2055      |        8277 |
|      16 | 0x2056      |        8278 |
|      17 | 0x2057      |        8279 |
|      18 | 0x2058      |        8280 |
|      19 | 0x2059      |        8281 |
|      20 | 0x205A      |        8282 |
|      21 | 0x205B      |        8283 |
|      22 | 0x2063      |        8291 |
|      23 | 0x00C9      |         201 |
|      24 | 0x2064      |        8292 |
|      25 | 0x2065      |        8293 |
|      26 | 0x2066      |        8294 |
|      27 | 0x2068      |        8296 |
|      28 | 0x2069      |        8297 |
|      29 | 0x009F      |         159 |
|      30 | 0x007F      |         127 |
|      31 | 0x0001      |           1 |
|      32 | 0x0097      |         151 |
|      33 | 0x22D3      |        8915 |
|      34 | 0x22D4      |        8916 |
|      35 | 0x22D5      |        8917 |
|      36 | 0x22D6      |        8918 |
|      37 | 0x22D7      |        8919 |
|      38 | 0x22D8      |        8920 |
|      39 | 0x22D9      |        8921 |
|      40 | 0x0050      |          80 |
|      41 | 0x22DF      |        8927 |
|      42 | 0x00A1      |         161 |
|      43 | 0x000A      |          10 |
|      44 | 0x0831      |        2097 |
|      45 | 0x0078      |         120 |
|      46 | 0x0096      |         150 |
|      47 | 0x22E0      |        8928 |
|      48 | 0x22E2      |        8930 |
|      49 | 0x22E3      |        8931 |
|      50 | 0x0005      |           5 |
|      51 | 0x0006      |           6 |
|      52 | 0x22E9      |        8937 |
|      53 | 0x0014      |          20 |
|      54 | 0x22EA      |        8938 |
|      55 | 0x0064      |         100 |
|      56 | 0x22DE      |        8926 |
|      57 | 0x22E1      |        8929 |
|      58 | 0x22E4      |        8932 |
|      59 | 0x22E8      |        8936 |
|      60 | 0x22EC      |        8940 |
|      61 | 0x22EE      |        8942 |
|      62 | 0x22F1      |        8945 |
|      63 | 0x22F4      |        8948 |
|      64 | 0x22F5      |        8949 |
|      65 | 0x22F6      |        8950 |
|      66 | 0x22F7      |        8951 |
|      67 | 0x22F8      |        8952 |
|      68 | 0x2453      |        9299 |
|      69 | 0x2454      |        9300 |
|      70 | 0x2455      |        9301 |
|      71 | 0x2456      |        9302 |
|      72 | 0x2457      |        9303 |
|      73 | 0x2458      |        9304 |
|      74 | 0x0008      |           8 |
|      75 | 0x245D      |        9309 |
|      76 | 0x2461      |        9313 |
|      77 | 0x2462      |        9314 |
|      78 | 0x2463      |        9315 |
|      79 | 0x2464      |        9316 |
|      80 | 0x2466      |        9318 |
|      81 | 0x2467      |        9319 |
|      82 | 0x2468      |        9320 |
|      83 | 0x2469      |        9321 |
|      84 | 0x246A      |        9322 |
|      85 | 0x012C      |         300 |
|      86 | 0x2473      |        9331 |
|      87 | 0x2475      |        9333 |
|      88 | 0x246C      |        9324 |
|      89 | 0x2472      |        9330 |
|      90 | 0x2476      |        9334 |
|      91 | 0x2477      |        9335 |
|      92 | 0x247D      |        9341 |
|      93 | 0x247C      |        9340 |
|      94 | 0x247E      |        9342 |
|      95 | 0x2484      |        9348 |
|      96 | 0x2488      |        9352 |
|      97 | 0x2489      |        9353 |
|      98 | 0x248A      |        9354 |
|      99 | 0x248B      |        9355 |
|     100 | 0x248C      |        9356 |
|     101 | 0x2491      |        9361 |
|     102 | 0x2492      |        9362 |
|     103 | 0x00D6      |         214 |
|     104 | 0x2497      |        9367 |
|     105 | 0x249C      |        9372 |
|     106 | 0x0BDC      |        3036 |
|     107 | 0x24AA      |        9386 |
|     108 | 0x24AB      |        9387 |
|     109 | 0x249B      |        9371 |
|     110 | 0x249D      |        9373 |
|     111 | 0x249F      |        9375 |
|     112 | 0x24A0      |        9376 |
|     113 | 0x24A1      |        9377 |
|     114 | 0x24A2      |        9378 |
|     115 | 0x24A3      |        9379 |
|     116 | 0x24A5      |        9381 |
|     117 | 0x24A6      |        9382 |
|     118 | 0x24A8      |        9384 |
|     119 | 0x24AC      |        9388 |
|     120 | 0x24AD      |        9389 |
|     121 | 0x25CD      |        9677 |
|     122 | 0x25CE      |        9678 |
|     123 | 0x25CF      |        9679 |
|     124 | 0x25D0      |        9680 |
|     125 | 0x25F2      |        9714 |
|     126 | 0x25F3      |        9715 |
|     127 | 0x25F4      |        9716 |
|     128 | 0x25F5      |        9717 |
|     129 | 0x25F6      |        9718 |
|     130 | 0x0015      |          21 |
|     131 | 0x260D      |        9741 |
|     132 | 0x260E      |        9742 |
|     133 | 0x260F      |        9743 |
|     134 | 0x2610      |        9744 |
|     135 | 0x2611      |        9745 |
|     136 | 0x2612      |        9746 |
|     137 | 0x2613      |        9747 |
|     138 | 0x2618      |        9752 |
|     139 | 0x2614      |        9748 |
|     140 | 0x0002      |           2 |
|     141 | 0x2615      |        9749 |
|     142 | 0x2616      |        9750 |
|     143 | 0x2617      |        9751 |
|     144 | 0x0004      |           4 |
|     145 | 0x2619      |        9753 |
|     146 | 0x261A      |        9754 |
|     147 | 0x261B      |        9755 |
|     148 | 0x261C      |        9756 |
|     149 | 0x261D      |        9757 |
|     150 | 0x261E      |        9758 |
|     151 | 0x2620      |        9760 |
|     152 | 0x2621      |        9761 |
|     153 | 0x2622      |        9762 |
|     154 | 0x2726      |       10022 |
|     155 | 0x2727      |       10023 |
|     156 | 0x0190      |         400 |
|     157 | 0x0013      |          19 |
|     158 | 0x02A4      |         676 |
|     159 | 0x3723      |       14115 |
|     160 | 0x3724      |       14116 |
|     161 | 0x3727      |       14119 |
|     162 | 0x3728      |       14120 |
|     163 | 0x3729      |       14121 |
|     164 | 0x00A0      |         160 |
|     165 | 0x005A      |          90 |
|     166 | 0x007C      |         124 |
|     167 | 0x372B      |       14123 |
|     168 | 0x372C      |       14124 |
|     169 | 0x372D      |       14125 |
|     170 | 0x372E      |       14126 |
|     171 | 0x372F      |       14127 |
|     172 | 0x3730      |       14128 |
|     173 | 0x3731      |       14129 |
|     174 | 0x0007      |           7 |
|     175 | 0x372A      |       14122 |
|     176 | 0x09C1      |        2497 |
|     177 | 0x3732      |       14130 |
|     178 | 0x3733      |       14131 |
|     179 | 0x3734      |       14132 |
|     180 | 0x3735      |       14133 |
|     181 | 0x3736      |       14134 |
|     182 | 0x3737      |       14135 |
|     183 | 0x3738      |       14136 |
|     184 | 0x3739      |       14137 |
|     185 | 0x373A      |       14138 |
|     186 | 0x0752      |        1874 |
|     187 | 0x373B      |       14139 |
|     188 | 0x373C      |       14140 |
|     189 | 0x373E      |       14142 |
|     190 | 0x373F      |       14143 |
|     191 | 0x373D      |       14141 |
|     192 | 0x3740      |       14144 |
|     193 | 0x3741      |       14145 |
|     194 | 0x3742      |       14146 |
|     195 | 0x0028      |          40 |
|     196 | 0x0032      |          50 |
|     197 | 0x3743      |       14147 |
|     198 | 0x3744      |       14148 |
|     199 | 0x3745      |       14149 |
|     200 | 0x0E13      |        3603 |
|     201 | 0x3746      |       14150 |
|     202 | 0x3747      |       14151 |
|     203 | 0x3748      |       14152 |
|     204 | 0x00EA      |         234 |
|     205 | 0x3749      |       14153 |
|     206 | 0x374A      |       14154 |
|     207 | 0x374B      |       14155 |
|     208 | 0x374C      |       14156 |
|     209 | 0x374D      |       14157 |
|     210 | 0x0080      |         128 |
|     211 | 0x374E      |       14158 |
|     212 | 0x374F      |       14159 |
|     213 | 0x3750      |       14160 |
|     214 | 0x3751      |       14161 |
|     215 | 0x3752      |       14162 |
|     216 | 0x3753      |       14163 |
|     217 | 0x3754      |       14164 |
|     218 | 0x3755      |       14165 |
|     219 | 0x3756      |       14166 |
|     220 | 0x3757      |       14167 |
|     221 | 0x3758      |       14168 |
|     222 | 0x3759      |       14169 |
|     223 | 0x375A      |       14170 |
|     224 | 0x375B      |       14171 |
|     225 | 0x375C      |       14172 |
|     226 | 0xFFFFF830  |  4294965296 |
|     227 | 0x375D      |       14173 |
|     228 | 0x375E      |       14174 |
|     229 | 0x1492      |        5266 |
|     230 | 0x375F      |       14175 |
|     231 | 0x3760      |       14176 |
|     232 | 0x00AE      |         174 |
|     233 | 0x0BB8      |        3000 |
|     234 | 0x00B1      |         177 |
|     235 | 0x3761      |       14177 |
|     236 | 0x3762      |       14178 |
|     237 | 0x3763      |       14179 |
|     238 | 0x3726      |       14118 |
|     239 | 0x3725      |       14117 |

## String References

- **8250**: In Mother Nature, there is nothing that is without purrrpose...nothing is wasted. Both you and I are here for some rrreason.
- **8251**: One should never waste naturrre's gifts, and never take a life, no matter how small, without properrr cause. That is the hunting code we rangers are sworn to uphold.
- **8264**: Have you hearrrd, adventurer? Our world is once again in an uproarrr.
- **8265**: We are on the path to great wars and the spilling of much blood. If those times do indeed come, I shall be forrrced to hand the bow of the chieftainness on to a Mithra who has found a new road to walk, one who has new drrreams for her people.
- **8270**: Have you hearrrd, adventurer? There appears to have been a grrreat battle far off in the Northlands.
- **8271**: I assume the worrrld will quiet down for a while now. However, the hearts of the Mithra will continue to clamorrr, for we Mithra know that nothing has rrreally ended at all.
- **8276**: In Mother Nature, there is nothing that is without purrrpose...nothing is wasted. Both you and I are here for some rrreason.
- **8277**: One should never waste naturrre's gifts, and never take a life, no matter how small, without properrr cause. That is the hunting code we rangers are sworn to uphold.
- **8278**: Have you, my child, trod on many a land, drunk from many a rrrainfall, fought many a fine battle, and lived to see many a dawn?
- **8279**: Then truly I say unto you, unless you are apprrroved by the earth and the sky, how is it that you can say you are accepted by Mother Nature?
- **8280**: If you so desire to submit yourself to the laws of naturrre, my child, then go, meet with the fanged king of the beasts, and bring back one of his grrreat teeth.
- **8281**: Listen to the voice of nature and wait for nature to run herrr course. If nature accepts us, then even we who lack fangs will be perrrmitted to hunt as her rangers.
- **8282**: My child, if you desire to submit yourself to the laws of naturrre, then go, meet with the fanged king of the beasts, and bring back one of his grrreat teeth.
- **8283**: Listen to the voice of nature and wait for nature to run herrr course. If nature accepts us, then even we who lack fangs will be perrrmitted to hunt as her rangers.
- **8291**: Why, my child, did you cause yet anotherrr of nature's wonderrrs to die meaninglessly? It is useless to even try and explain this fang's meaning to one such as you.
- **8292**: For the hunterrr, the fangs are not just a tool vital for existence, but also a witness to its death. If the fanged one loses its fangs, it can no longerrr live. Yet when the fanged one dies, only its fangs rrremain.
- **8293**: To hunt like the fanged one, you must live by the fang and die leaving only the fang behind.
- **8294**: Onto you, our new ranger, I bestow the witness of the life and death of the grrreat fanged one...
- **8296**: The one unto whom Mother Nature has bestowed her fangs must neverrr fight without reason.
- **8297**: Glorrry to the fangs of the fanged one. Listen to the voice of nature and follow her courrrse. The sky and earrrth shall tell you the time to fight and the time to die.
- **8915**: So you have come, my fellow ranger. I thank the winds for your safe return.
- **8916**: I have a task for you. It is said that adventurers follow the winds, traveling far and wide across Vana'diel.
- **8917**: I wish for you to meet with Sibyl Guard Semih Lafihna with all haste. Give her this. She should rrreturn here with you.
- **8918**: Currently, Semih Lafihna is conducting an investigation in a place called Ranguemont Pass, located on the western continent.
- **8919**: There is little time. ...The blessing of the winds go with you.
- **8920**: Find Semih Lafihna and give her the earring. She should rrreturn here with you.
- **8921**: Currently, Semih Lafihna is conducting an investigation in a place called Ranguemont Pass, located on the western continent. May the winds protect and guide you, adventurer.
- **8926**: I see you were able to find Semih Lafihna...
- **8929**: ...You are the Mithran Tracker, I prrresume?
- **8932**: I will tell you once morrre. I have no rrreason to hide the past. The bearer of the bow does not oppose the trrruth.
- **8936**: ......
- **8940**: Yes, but do not seek to hinder her. She is here to see justice done, and serves nature as we do.
- **8942**: Do you doubt it...? I see, you were questioned by the Tracker.
- **8945**: ......
- **8948**: <Player>. You see us in troubled times. On occasion, even the Mithra fight amongst themselves.
- **8949**: I feel that your talents will become necessary before this struggle comes to an end. Will you promise to lend us your strrrength in our time of need?
- **8950**: Take this as a symbol of your pledge. May the path cleared by the wind always lie before you.
- **8951**: <Player>. You see us in troubled times. On occasion, even the Mithra fight amongst themselves.
- **8952**: I feel that your talents will become necessary before this struggle comes to an end. Will you promise to lend us your strrrength in our time of need?
- **9299**: Have the winds sent you to me once more...?
- **9300**: I have just had word that one who knows of the fate of the sinner's daughter can be found in the Blacksmiths' Guild of Mhaura.
- **9301**: Upon hearing this, the Mithran Tracker immediately set off on her way. I wish for you to also travel to Mhaura and meet with this perrrson.
- **9302**: You have your task. The blessing of the winds upon you.
- **9303**: I have learned that one who knows of the fate of the sinner's daughter can be found in the Blacksmiths' Guild of Mhaura.
- **9304**: Upon hearing this, the Mithran Tracker immediately set off on her way. I wish for you to also travel to Mhaura and meet with this perrrson.
- **9309**: You have rrreturned. ...And the Mithran Tracker with you.
- **9313**: We were unable to discover the mother's body.
- **9314**: Since she was held captive in the prison of Castle Oztroja, her rrremains should lie there still.
- **9315**: It is said that the King of Oztroja forces prrrisoners to fight his Yagudo in a hall on the highest level of the castle. The bodies of the fallen are then supposedly thrrrown into a large pond.
- **9316**: If you search the pond thorrroughly, you may find what you are looking for...
- **9318**: I must apologize, adventurer. I would like to send a parrrty of warriors to aid you, but we do not have permission from Heavens Tower to enter Castle Oztroja.
- **9319**: The blessing of the earth upon you.
- **9320**: In the time of the Great War, the warriors held in Oztroja were forced to fight with Yagudo in a hall on the castle's highest floor.
- **9321**: The fallen warriors were then thrrrown into a large pond on the upper levels.
- **9322**: I believe the $2 that fits with the $1 of Syu Befrathi can be found there... However, the talents of a ranger will be needed to discover it.
- **9324**: I'm impressed. Tales of mighty adventurers are often little more than exaggerated rumor.
- **9330**: ......
- **9334**: ...The Bow of Light. Thirty years have passed since its creation. And all it has brought us is death and misfortune.
- **9335**: This all started when we came to this continent. The elders called this place the Forbidden Land, and were opposed to the crossing. It all started here...
- **9340**: ...? The one who follows you here...
- **9342**: ...And what might that be, Semih Lafihna? You wish to ask me about the lost Bow of Light?
- **9348**: Semih Lafihna, I swear on the Azure Bow. You are not the sinner's daughter.
- **9352**: I meant to tell you after all this was over, but I see I have no choice.
- **9353**: Go to Mhaura and meet with Koh Lenbalalako.
- **9354**: If you take the $1 I entrrrusted to this adventurer, she will talk with you.
- **9355**: Once Semih Lafihna meets with Koh Lenbalalako of Mhaura, she will understand.
- **9356**: I would like you to follow her to Mhaura. She will need your strrrength to help bring an end to this tale.
- **9361**: So, you will follow Semih and trrravel to the Northland?
- **9362**: The Northlands are a place of death that we Mithra avoid above all others. It is a land that rrrobs us of the blessing and grace of nature. May the winds watch over you.
- **9371**: ...Hmmm, the Tracker's real task here was most likely the destruction of the Bow of Light.
- **9373**: I don't know for certain, but the homeland was definitely more concerned with the Bow of Light than the sinner's daughter.
- **9375**: ...... Magicite rrresembles crystals. Or rather, the power contained in magicite is similar to, or perhaps greater than, that contained in crystals.
- **9376**: But both are unnatural creations. The powerrr of magicite is an ominous, cursed energy. It is a manifestation of evil that we cannot tolerrrate.
- **9377**: The Chieftainness of the Fire Tribe, Nhev Befrathi, knew this. And after seeing the bow for ourselves, the Mithran Tracker and I knew it too.
- **9378**: That crystal calls to those of Mithran blood. It awakens feelings of envy, of jealousy. It darkens the nature of the heart.
- **9379**: Nhev Befrathi and her daughter, however, had the strength to rrresist its influence. Even though they used the bow, the light in their hearts rrremained.
- **9381**: Yes. I saw the power of that bow and closed my eyes to it.
- **9382**: You desire nothing in a world where you see nothing. There is nothing to be afraid of.
- **9384**: But for that, I twisted the path you were to walk. To save Syu Befrathi, I erased the existence of my own daughter...
- **9388**: Occasionally, you too should try seeing the world through closed eyes.
- **9389**: What is there, in your inner world? ...Who do you see?
- **9677**: ...I have heard from Semih Lafihna that a time of rrreckoning has come to this land.
- **9678**: We Mithra have always known that the world is but a sharrrd of a greater power.
- **9679**: The abundant life and light born from that sharrrd, that single destiny...
- **9680**: ...Leave the Yagudo to us. We will not fall against the tides of evil. You, too, must make your stand.
- **9714**: It has rrreturned. The great power that belongs to this land...
- **9715**: I have come to realize that the world exists to help us find a way to bridge the gaps between the races.
- **9716**: And we people are here to fill the emptiness that is borrrn in that world.
- **9717**: Let us move forward to a new future. When you lose sight of tomorrow, just lie upon the earrrth, hear the voice of the wind, and gaze into the endless sky.
- **9718**: ...Adventurer. I prrray that the Windurst that lives in my heart will bloom in your heart as well.
- **9741**: Hmmm. Has it all become clear, my fledgling arrrcher?
- **9742**: Do you know where your place is? The time for the hunt? The prey your arrows should seek?
- **9743**: Do you everrr experience moments of hesitation? It is that confusion that sends your arrows wide of the mark.
- **9744**: Take this untrrried bow. It is kindrrred to the slender sapling. As a young tree is bent by the fury of a storrrm, so will this bow's path be warped by your indecision.
- **9745**: Now, my fledgling arrrcher. Go forth and overcome the winds of doubt that taunt your arrow's flight. Trrrain until the sapling bow has become a steady oak in your hands.
- **9746**: What trrroubles you, my fledgling arrrcher? Do you seek counsel in some matter?
- **9747**: What trrroubles youH [I have no questions./I lost the $1.../I give in to the winds.]
- **9748**: To lose your bow is to lose yourself. If you forget who you are and what you strrrive for, your future holds only stagnation.
- **9749**: My fledgling arrrcher, were you unable to master the doubt within you...?
- **9750**: Give in to your doubt? [Yes, I cannot go on./No, I will try harrrder.]
- **9751**: That is a pity indeed. You must set the bow free by your own hand. The withered branch rrreturns to the earth. This is the way of nature.
- **9752**: When you feel the bow no longer rrresponds to your inner conflict, rrreturn it here to me.
- **9753**: The bow still appears to rrretain the greenness of youth, and your doubt has yet to be rrresolved.
- **9754**: There is no need for haste. The sapling grrrows slowly into the forest giant.
- **9755**: This bow is no longer the sapling I gave you. It has become a mighty tree, grown straight and strong and true.
- **9756**: You have grown as well, my fledgling arrrcher. It is time to test the new maturity of your archery.
- **9757**: I have prrrepared a battlefield for you at Cape Teriggan. Use this map to find your foe and bring back the $3 to prove your victorrry.
- **9758**: Cape Teriggan is the battlefield where you will test your newfound maturrrity. Was there anotherrr matter you wished to discuss?
- **9760**: It appears your arrows flew fast and true. I will imparrrt to you a technique worthy of your rrresolve.
- **9761**: With strrrength comes potential for new abilities.
- **9762**: Do you see, my arrrcher? Strength is the grrreat trunk of the tree, and the rrresultant skills its many branches.
- **10022**: Adventurer, I would advise against traveling with that Elvaan. He has a dark, dark past.
- **10023**: If one does not cleanse oneself of that darkness, it will rrreturn to haunt them. That is Mother Nature's way...

## Events

### Event 65535

#### Metadata

| Field        | Value   |
|--------------|---------|
| Entrypoint   | 0x0000  |
| Data Size    | 1 bytes |
| Instructions | 1       |

```
      00 01 02 03 04 05 06 07  08 09 0A 0B 0C 0D 0E 0F
      -- -- -- -- -- -- -- --  -- -- -- -- -- -- -- --
0000: 00                                                .               
```

#### Opcodes

```
  0: 0x0000 [0x00] END_REQSTACK()
```

### Event 65535.1

#### Metadata

| Field        | Value    |
|--------------|----------|
| Entrypoint   | 0x0001   |
| Data Size    | 16 bytes |
| Instructions | 2        |

```
      00 01 02 03 04 05 06 07  08 09 0A 0B 0C 0D 0E 0F
      -- -- -- -- -- -- -- --  -- -- -- -- -- -- -- --
0000:    5B 00 80 F8 FF FF 7F  F8 FF FF 7F 74 6C 6B 30   [..........tlk0
0010: 00                                                .               
```

#### Opcodes

```
  0: 0x0001 [0x5B] LOAD_EXT_SCHEDULER: Load scheduler "tlk0" with entities [EventEntity, EventEntity], work=175*
  1: 0x0010 [0x00] END_REQSTACK()
```

### Event 65535.2

#### Metadata

| Field        | Value    |
|--------------|----------|
| Entrypoint   | 0x0011   |
| Data Size    | 22 bytes |
| Instructions | 4        |

```
      00 01 02 03 04 05 06 07  08 09 0A 0B 0C 0D 0E 0F
      -- -- -- -- -- -- -- --  -- -- -- -- -- -- -- --
0010:    53 F8 FF FF 7F F8 FF  FF 7F 74 6C 6B 30 5E 69   S........tlk0^i
0020: 64 6C 30 1C 01 80 00                              dl0....         
```

#### Opcodes

```
  0: 0x0011 [0x53] WAIT_SCHEDULER_TASK: Wait for scheduler "tlk0" with entities [EventEntity, EventEntity]
  1: 0x001E [0x5E] EventEntity goes idle (kills current action) (animation: "idl0")
  2: 0x0023 [0x1C] WAIT(30* ticks)
  3: 0x0026 [0x00] END_REQSTACK()
```

### Event 65535.3

#### Metadata

| Field        | Value    |
|--------------|----------|
| Entrypoint   | 0x0027   |
| Data Size    | 16 bytes |
| Instructions | 2        |

```
      00 01 02 03 04 05 06 07  08 09 0A 0B 0C 0D 0E 0F
      -- -- -- -- -- -- -- --  -- -- -- -- -- -- -- --
0020:                      5B  00 80 F8 FF FF 7F F8 FF         [........
0030: FF 7F 74 6C 6B 31 00                              ..tlk1.         
```

#### Opcodes

```
  0: 0x0027 [0x5B] LOAD_EXT_SCHEDULER: Load scheduler "tlk1" with entities [EventEntity, EventEntity], work=175*
  1: 0x0036 [0x00] END_REQSTACK()
```

### Event 65535.4

#### Metadata

| Field        | Value    |
|--------------|----------|
| Entrypoint   | 0x0037   |
| Data Size    | 14 bytes |
| Instructions | 2        |

```
      00 01 02 03 04 05 06 07  08 09 0A 0B 0C 0D 0E 0F
      -- -- -- -- -- -- -- --  -- -- -- -- -- -- -- --
0030:                      53  F8 FF FF 7F F8 FF FF 7F         S........
0040: 74 6C 6B 31 00                                    tlk1.           
```

#### Opcodes

```
  0: 0x0037 [0x53] WAIT_SCHEDULER_TASK: Wait for scheduler "tlk1" with entities [EventEntity, EventEntity]
  1: 0x0044 [0x00] END_REQSTACK()
```

### Event 65535.5

#### Metadata

| Field        | Value    |
|--------------|----------|
| Entrypoint   | 0x0045   |
| Data Size    | 16 bytes |
| Instructions | 2        |

```
      00 01 02 03 04 05 06 07  08 09 0A 0B 0C 0D 0E 0F
      -- -- -- -- -- -- -- --  -- -- -- -- -- -- -- --
0040:                5B 00 80  F8 FF FF 7F F8 FF FF 7F       [..........
0050: 69 64 61 30 00                                    ida0.           
```

#### Opcodes

```
  0: 0x0045 [0x5B] LOAD_EXT_SCHEDULER: Load scheduler "ida0" with entities [EventEntity, EventEntity], work=175*
  1: 0x0054 [0x00] END_REQSTACK()
```

### Event 65535.6

#### Metadata

| Field        | Value    |
|--------------|----------|
| Entrypoint   | 0x0055   |
| Data Size    | 14 bytes |
| Instructions | 2        |

```
      00 01 02 03 04 05 06 07  08 09 0A 0B 0C 0D 0E 0F
      -- -- -- -- -- -- -- --  -- -- -- -- -- -- -- --
0050:                53 F8 FF  FF 7F F8 FF FF 7F 69 64       S........id
0060: 61 30 00                                          a0.             
```

#### Opcodes

```
  0: 0x0055 [0x53] WAIT_SCHEDULER_TASK: Wait for scheduler "ida0" with entities [EventEntity, EventEntity]
  1: 0x0062 [0x00] END_REQSTACK()
```

### Event 65535.7

#### Metadata

| Field        | Value    |
|--------------|----------|
| Entrypoint   | 0x0063   |
| Data Size    | 16 bytes |
| Instructions | 2        |

```
      00 01 02 03 04 05 06 07  08 09 0A 0B 0C 0D 0E 0F
      -- -- -- -- -- -- -- --  -- -- -- -- -- -- -- --
0060:          5B 00 80 F8 FF  FF 7F F8 FF FF 7F 69 64     [..........id
0070: 61 31 00                                          a1.             
```

#### Opcodes

```
  0: 0x0063 [0x5B] LOAD_EXT_SCHEDULER: Load scheduler "ida1" with entities [EventEntity, EventEntity], work=175*
  1: 0x0072 [0x00] END_REQSTACK()
```

### Event 65535.8

#### Metadata

| Field        | Value    |
|--------------|----------|
| Entrypoint   | 0x0073   |
| Data Size    | 14 bytes |
| Instructions | 2        |

```
      00 01 02 03 04 05 06 07  08 09 0A 0B 0C 0D 0E 0F
      -- -- -- -- -- -- -- --  -- -- -- -- -- -- -- --
0070:          53 F8 FF FF 7F  F8 FF FF 7F 69 64 61 31     S........ida1
0080: 00                                                .               
```

#### Opcodes

```
  0: 0x0073 [0x53] WAIT_SCHEDULER_TASK: Wait for scheduler "ida1" with entities [EventEntity, EventEntity]
  1: 0x0080 [0x00] END_REQSTACK()
```

### Event 65535.9

#### Metadata

| Field        | Value    |
|--------------|----------|
| Entrypoint   | 0x0081   |
| Data Size    | 16 bytes |
| Instructions | 2        |

```
      00 01 02 03 04 05 06 07  08 09 0A 0B 0C 0D 0E 0F
      -- -- -- -- -- -- -- --  -- -- -- -- -- -- -- --
0080:    5B 00 80 F8 FF FF 7F  F8 FF FF 7F 70 61 73 30   [..........pas0
0090: 00                                                .               
```

#### Opcodes

```
  0: 0x0081 [0x5B] LOAD_EXT_SCHEDULER: Load scheduler "pas0" with entities [EventEntity, EventEntity], work=175*
  1: 0x0090 [0x00] END_REQSTACK()
```

### Event 65535.10

#### Metadata

| Field        | Value    |
|--------------|----------|
| Entrypoint   | 0x0091   |
| Data Size    | 14 bytes |
| Instructions | 2        |

```
      00 01 02 03 04 05 06 07  08 09 0A 0B 0C 0D 0E 0F
      -- -- -- -- -- -- -- --  -- -- -- -- -- -- -- --
0090:    53 F8 FF FF 7F F8 FF  FF 7F 70 61 73 30 00      S........pas0. 
```

#### Opcodes

```
  0: 0x0091 [0x53] WAIT_SCHEDULER_TASK: Wait for scheduler "pas0" with entities [EventEntity, EventEntity]
  1: 0x009E [0x00] END_REQSTACK()
```

### Event 65535.11

#### Metadata

| Field        | Value   |
|--------------|---------|
| Entrypoint   | 0x009F  |
| Data Size    | 9 bytes |
| Instructions | 3       |

```
      00 01 02 03 04 05 06 07  08 09 0A 0B 0C 0D 0E 0F
      -- -- -- -- -- -- -- --  -- -- -- -- -- -- -- --
0090:                                               5E                 ^
00A0: 69 64 6C 30 1C 01 80 00                           idl0....        
```

#### Opcodes

```
  0: 0x009F [0x5E] EventEntity goes idle (kills current action) (animation: "idl0")
  1: 0x00A4 [0x1C] WAIT(30* ticks)
  2: 0x00A7 [0x00] END_REQSTACK()
```

### Event 65535.12

#### Metadata

| Field        | Value    |
|--------------|----------|
| Entrypoint   | 0x00A8   |
| Data Size    | 16 bytes |
| Instructions | 2        |

```
      00 01 02 03 04 05 06 07  08 09 0A 0B 0C 0D 0E 0F
      -- -- -- -- -- -- -- --  -- -- -- -- -- -- -- --
00A0:                          5B 02 80 F8 FF FF 7F F8          [.......
00B0: FF FF 7F 79 65 73 30 00                           ...yes0.        
```

#### Opcodes

```
  0: 0x00A8 [0x5B] LOAD_EXT_SCHEDULER: Load scheduler "yes0" with entities [EventEntity, EventEntity], work=176*
  1: 0x00B7 [0x00] END_REQSTACK()
```

### Event 65535.13

#### Metadata

| Field        | Value    |
|--------------|----------|
| Entrypoint   | 0x00B8   |
| Data Size    | 14 bytes |
| Instructions | 2        |

```
      00 01 02 03 04 05 06 07  08 09 0A 0B 0C 0D 0E 0F
      -- -- -- -- -- -- -- --  -- -- -- -- -- -- -- --
00B0:                          53 F8 FF FF 7F F8 FF FF          S.......
00C0: 7F 79 65 73 30 00                                 .yes0.          
```

#### Opcodes

```
  0: 0x00B8 [0x53] WAIT_SCHEDULER_TASK: Wait for scheduler "yes0" with entities [EventEntity, EventEntity]
  1: 0x00C5 [0x00] END_REQSTACK()
```

### Event 65535.14

#### Metadata

| Field        | Value    |
|--------------|----------|
| Entrypoint   | 0x00C6   |
| Data Size    | 16 bytes |
| Instructions | 2        |

```
      00 01 02 03 04 05 06 07  08 09 0A 0B 0C 0D 0E 0F
      -- -- -- -- -- -- -- --  -- -- -- -- -- -- -- --
00C0:                   5B 02  80 F8 FF FF 7F F8 FF FF        [.........
00D0: 7F 6E 6F 30 30 00                                 .no00.          
```

#### Opcodes

```
  0: 0x00C6 [0x5B] LOAD_EXT_SCHEDULER: Load scheduler "no00" with entities [EventEntity, EventEntity], work=176*
  1: 0x00D5 [0x00] END_REQSTACK()
```

### Event 65535.15

#### Metadata

| Field        | Value    |
|--------------|----------|
| Entrypoint   | 0x00D6   |
| Data Size    | 14 bytes |
| Instructions | 2        |

```
      00 01 02 03 04 05 06 07  08 09 0A 0B 0C 0D 0E 0F
      -- -- -- -- -- -- -- --  -- -- -- -- -- -- -- --
00D0:                   53 F8  FF FF 7F F8 FF FF 7F 6E        S........n
00E0: 6F 30 30 00                                       o00.            
```

#### Opcodes

```
  0: 0x00D6 [0x53] WAIT_SCHEDULER_TASK: Wait for scheduler "no00" with entities [EventEntity, EventEntity]
  1: 0x00E3 [0x00] END_REQSTACK()
```

### Event 338

#### Metadata

| Field        | Value    |
|--------------|----------|
| Entrypoint   | 0x00E4   |
| Data Size    | 45 bytes |
| Instructions | 12       |

```
      00 01 02 03 04 05 06 07  08 09 0A 0B 0C 0D 0E 0F
      -- -- -- -- -- -- -- --  -- -- -- -- -- -- -- --
00E0:             29 08 76 10  0F 01 01 1D 03 80 23 1D      ).v.......#.
00F0: 04 80 23 29 08 76 10 0F  01 02 7B 76 10 0F 01 29  ..#).v....{v...)
0100: 08 76 10 0F 01 03 29 08  76 10 0F 01 04 20 00 21  .v....).v.... .!
0110: 00                                                .               
```

#### Opcodes

```
  0: 0x00E4 [0x29] REQ_SET_WAIT(priority=0x08, entity_id=Perih Vashai (ID: 17764470/0x010F1076), tag_num=0x01)
  1: 0x00EB [0x1D] PRINT_EVENT_MESSAGE(message_id=8250*)
    → "In Mother Nature, there is nothing that is without purrrpose...nothing is wasted. Both you and I are here for some rrreason."
  2: 0x00EE [0x23] WAIT_FOR_DIALOG_INTERACTION
  3: 0x00EF [0x1D] PRINT_EVENT_MESSAGE(message_id=8251*)
    → "One should never waste naturrre's gifts, and never take a life, no matter how small, without properrr cause. That is the hunting code we rangers are sworn to uphold."
  4: 0x00F2 [0x23] WAIT_FOR_DIALOG_INTERACTION
  5: 0x00F3 [0x29] REQ_SET_WAIT(priority=0x08, entity_id=Perih Vashai (ID: 17764470/0x010F1076), tag_num=0x02)
  6: 0x00FA [0x7B] Perih Vashai (ID: 17764470/0x010F1076) stops talking
  7: 0x00FF [0x29] REQ_SET_WAIT(priority=0x08, entity_id=Perih Vashai (ID: 17764470/0x010F1076), tag_num=0x03)
  8: 0x0106 [0x29] REQ_SET_WAIT(priority=0x08, entity_id=Perih Vashai (ID: 17764470/0x010F1076), tag_num=0x04)
  9: 0x010D [0x20] SET_CLI_EVENT_UC_FLAG: Unlock player control
 10: 0x010F [0x21] END_EVENT
 11: 0x0110 [0x00] END_REQSTACK()
```

### Event 345

#### Metadata

| Field        | Value    |
|--------------|----------|
| Entrypoint   | 0x0111   |
| Data Size    | 45 bytes |
| Instructions | 12       |

```
      00 01 02 03 04 05 06 07  08 09 0A 0B 0C 0D 0E 0F
      -- -- -- -- -- -- -- --  -- -- -- -- -- -- -- --
0110:    29 08 76 10 0F 01 01  1D 05 80 23 1D 06 80 23   ).v.......#...#
0120: 29 08 76 10 0F 01 02 7B  76 10 0F 01 29 08 76 10  ).v....{v...).v.
0130: 0F 01 03 29 08 76 10 0F  01 04 20 00 21 00        ...).v.... .!.  
```

#### Opcodes

```
  0: 0x0111 [0x29] REQ_SET_WAIT(priority=0x08, entity_id=Perih Vashai (ID: 17764470/0x010F1076), tag_num=0x01)
  1: 0x0118 [0x1D] PRINT_EVENT_MESSAGE(message_id=8264*)
    → "Have you hearrrd, adventurer? Our world is once again in an uproarrr."
  2: 0x011B [0x23] WAIT_FOR_DIALOG_INTERACTION
  3: 0x011C [0x1D] PRINT_EVENT_MESSAGE(message_id=8265*)
    → "We are on the path to great wars and the spilling of much blood. If those times do indeed come, I shall be forrrced to hand the bow of the chieftainness on to a Mithra who has found a new road to walk, one who has new drrreams for her people."
  4: 0x011F [0x23] WAIT_FOR_DIALOG_INTERACTION
  5: 0x0120 [0x29] REQ_SET_WAIT(priority=0x08, entity_id=Perih Vashai (ID: 17764470/0x010F1076), tag_num=0x02)
  6: 0x0127 [0x7B] Perih Vashai (ID: 17764470/0x010F1076) stops talking
  7: 0x012C [0x29] REQ_SET_WAIT(priority=0x08, entity_id=Perih Vashai (ID: 17764470/0x010F1076), tag_num=0x03)
  8: 0x0133 [0x29] REQ_SET_WAIT(priority=0x08, entity_id=Perih Vashai (ID: 17764470/0x010F1076), tag_num=0x04)
  9: 0x013A [0x20] SET_CLI_EVENT_UC_FLAG: Unlock player control
 10: 0x013C [0x21] END_EVENT
 11: 0x013D [0x00] END_REQSTACK()
```

### Event 348

#### Metadata

| Field        | Value    |
|--------------|----------|
| Entrypoint   | 0x013E   |
| Data Size    | 45 bytes |
| Instructions | 12       |

```
      00 01 02 03 04 05 06 07  08 09 0A 0B 0C 0D 0E 0F
      -- -- -- -- -- -- -- --  -- -- -- -- -- -- -- --
0130:                                            29 08                ).
0140: 76 10 0F 01 01 1D 07 80  23 1D 08 80 23 29 08 76  v.......#...#).v
0150: 10 0F 01 02 7B 76 10 0F  01 29 08 76 10 0F 01 03  ....{v...).v....
0160: 29 08 76 10 0F 01 04 20  00 21 00                 ).v.... .!.     
```

#### Opcodes

```
  0: 0x013E [0x29] REQ_SET_WAIT(priority=0x08, entity_id=Perih Vashai (ID: 17764470/0x010F1076), tag_num=0x01)
  1: 0x0145 [0x1D] PRINT_EVENT_MESSAGE(message_id=8270*)
    → "Have you hearrrd, adventurer? There appears to have been a grrreat battle far off in the Northlands."
  2: 0x0148 [0x23] WAIT_FOR_DIALOG_INTERACTION
  3: 0x0149 [0x1D] PRINT_EVENT_MESSAGE(message_id=8271*)
    → "I assume the worrrld will quiet down for a while now. However, the hearts of the Mithra will continue to clamorrr, for we Mithra know that nothing has rrreally ended at all."
  4: 0x014C [0x23] WAIT_FOR_DIALOG_INTERACTION
  5: 0x014D [0x29] REQ_SET_WAIT(priority=0x08, entity_id=Perih Vashai (ID: 17764470/0x010F1076), tag_num=0x02)
  6: 0x0154 [0x7B] Perih Vashai (ID: 17764470/0x010F1076) stops talking
  7: 0x0159 [0x29] REQ_SET_WAIT(priority=0x08, entity_id=Perih Vashai (ID: 17764470/0x010F1076), tag_num=0x03)
  8: 0x0160 [0x29] REQ_SET_WAIT(priority=0x08, entity_id=Perih Vashai (ID: 17764470/0x010F1076), tag_num=0x04)
  9: 0x0167 [0x20] SET_CLI_EVENT_UC_FLAG: Unlock player control
 10: 0x0169 [0x21] END_EVENT
 11: 0x016A [0x00] END_REQSTACK()
```

### Event 351

#### Metadata

| Field        | Value     |
|--------------|-----------|
| Entrypoint   | 0x016B    |
| Data Size    | 178 bytes |
| Instructions | 22        |

```
      00 01 02 03 04 05 06 07  08 09 0A 0B 0C 0D 0E 0F
      -- -- -- -- -- -- -- --  -- -- -- -- -- -- -- --
0160:                                   20 01 42 46 01              .BF.
0170: 45 09 80 F0 FF FF 7F F0  FF FF 7F 66 64 6F 31 0A  E..........fdo1.
0180: 80 1C 0B 80 38 0C 80 29  0B F0 FF FF 7F 36 45 0D  ....8..).....6E.
0190: 80 F0 FF FF 7F F0 FF FF  7F 73 30 37 37 0A 80 45  .........s077..E
01A0: 09 80 F0 FF FF 7F F0 FF  FF 7F 66 64 69 31 0A 80  ..........fdi1..
01B0: 29 0B 76 10 0F 01 15 52  0D 80 F0 FF FF 7F F0 FF  ).v....R........
01C0: FF 7F 73 30 37 37 45 0D  80 F0 FF FF 7F F0 FF FF  ..s077E.........
01D0: 7F 73 30 37 38 0A 80 29  0B 76 10 0F 01 16 7B 76  .s078..).v....{v
01E0: 10 0F 01 45 09 80 F0 FF  FF 7F F0 FF FF 7F 66 64  ...E..........fd
01F0: 6F 31 0A 80 1C 0B 80 52  0D 80 F0 FF FF 7F F0 FF  o1.....R........
0200: FF 7F 73 30 37 38 46 00  45 09 80 F0 FF FF 7F F0  ..s078F.E.......
0210: FF FF 7F 66 64 69 31 0A  80 20 00 21 00           ...fdi1.. .!.   
```

#### Opcodes

```
  0: 0x016B [0x20] SET_CLI_EVENT_UC_FLAG: Lock player control
  1: 0x016D [0x42] SET_CLI_EVENT_CANCEL_DATA()
  2: 0x016E [0x46] CAMERA_CONTROL: Disable user control
  3: 0x0170 [0x45] LOAD_SCHEDULED_TASK: Load scheduler "fdo1" with entities [LocalPlayer, LocalPlayer], work=[200*, 0*]
  4: 0x0181 [0x1C] WAIT(60* ticks)
  5: 0x0184 [0x38] SET_CLIENT_EVENT_MODE(mode=3*)
  6: 0x0187 [0x29] REQ_SET_WAIT(priority=0x0B, entity_id=LocalPlayer, tag_num=0x36)
  7: 0x018E [0x45] LOAD_SCHEDULED_TASK: Load scheduler "s077" with entities [LocalPlayer, LocalPlayer], work=[141*, 0*]
  8: 0x019F [0x45] LOAD_SCHEDULED_TASK: Load scheduler "fdi1" with entities [LocalPlayer, LocalPlayer], work=[200*, 0*]
  9: 0x01B0 [0x29] REQ_SET_WAIT(priority=0x0B, entity_id=Perih Vashai (ID: 17764470/0x010F1076), tag_num=0x15)
 10: 0x01B7 [0x52] END_LOAD_SCHEDULER: End scheduler "s077" with entities [LocalPlayer, LocalPlayer], work=141*
 11: 0x01C6 [0x45] LOAD_SCHEDULED_TASK: Load scheduler "s078" with entities [LocalPlayer, LocalPlayer], work=[141*, 0*]
 12: 0x01D7 [0x29] REQ_SET_WAIT(priority=0x0B, entity_id=Perih Vashai (ID: 17764470/0x010F1076), tag_num=0x16)
 13: 0x01DE [0x7B] Perih Vashai (ID: 17764470/0x010F1076) stops talking
 14: 0x01E3 [0x45] LOAD_SCHEDULED_TASK: Load scheduler "fdo1" with entities [LocalPlayer, LocalPlayer], work=[200*, 0*]
 15: 0x01F4 [0x1C] WAIT(60* ticks)
 16: 0x01F7 [0x52] END_LOAD_SCHEDULER: End scheduler "s078" with entities [LocalPlayer, LocalPlayer], work=141*
 17: 0x0206 [0x46] CAMERA_CONTROL: Restore default settings
 18: 0x0208 [0x45] LOAD_SCHEDULED_TASK: Load scheduler "fdi1" with entities [LocalPlayer, LocalPlayer], work=[200*, 0*]
 19: 0x0219 [0x20] SET_CLI_EVENT_UC_FLAG: Unlock player control
 20: 0x021B [0x21] END_EVENT
 21: 0x021C [0x00] END_REQSTACK()
```

### Event 65535.16

#### Metadata

| Field        | Value    |
|--------------|----------|
| Entrypoint   | 0x021D   |
| Data Size    | 37 bytes |
| Instructions | 9        |

```
      00 01 02 03 04 05 06 07  08 09 0A 0B 0C 0D 0E 0F
      -- -- -- -- -- -- -- --  -- -- -- -- -- -- -- --
0210:                                         29 08 76               ).v
0220: 10 0F 01 01 1D 0E 80 23  1D 0F 80 23 29 08 76 10  .......#...#).v.
0230: 0F 01 02 29 08 76 10 0F  01 03 29 08 76 10 0F 01  ...).v....).v...
0240: 04 00                                             ..              
```

#### Opcodes

```
  0: 0x021D [0x29] REQ_SET_WAIT(priority=0x08, entity_id=Perih Vashai (ID: 17764470/0x010F1076), tag_num=0x01)
  1: 0x0224 [0x1D] PRINT_EVENT_MESSAGE(message_id=8276*)
    → "In Mother Nature, there is nothing that is without purrrpose...nothing is wasted. Both you and I are here for some rrreason."
  2: 0x0227 [0x23] WAIT_FOR_DIALOG_INTERACTION
  3: 0x0228 [0x1D] PRINT_EVENT_MESSAGE(message_id=8277*)
    → "One should never waste naturrre's gifts, and never take a life, no matter how small, without properrr cause. That is the hunting code we rangers are sworn to uphold."
  4: 0x022B [0x23] WAIT_FOR_DIALOG_INTERACTION
  5: 0x022C [0x29] REQ_SET_WAIT(priority=0x08, entity_id=Perih Vashai (ID: 17764470/0x010F1076), tag_num=0x02)
  6: 0x0233 [0x29] REQ_SET_WAIT(priority=0x08, entity_id=Perih Vashai (ID: 17764470/0x010F1076), tag_num=0x03)
  7: 0x023A [0x29] REQ_SET_WAIT(priority=0x08, entity_id=Perih Vashai (ID: 17764470/0x010F1076), tag_num=0x04)
  8: 0x0241 [0x00] END_REQSTACK()
```

### Event 65535.17

#### Metadata

| Field        | Value    |
|--------------|----------|
| Entrypoint   | 0x0242   |
| Data Size    | 37 bytes |
| Instructions | 9        |

```
      00 01 02 03 04 05 06 07  08 09 0A 0B 0C 0D 0E 0F
      -- -- -- -- -- -- -- --  -- -- -- -- -- -- -- --
0240:       29 08 76 10 0F 01  05 1D 10 80 23 1D 11 80    ).v.......#...
0250: 23 29 08 76 10 0F 01 06  29 08 76 10 0F 01 07 29  #).v....).v....)
0260: 08 76 10 0F 01 08 00                              .v.....         
```

#### Opcodes

```
  0: 0x0242 [0x29] REQ_SET_WAIT(priority=0x08, entity_id=Perih Vashai (ID: 17764470/0x010F1076), tag_num=0x05)
  1: 0x0249 [0x1D] PRINT_EVENT_MESSAGE(message_id=8278*)
    → "Have you, my child, trod on many a land, drunk from many a rrrainfall, fought many a fine battle, and lived to see many a dawn?"
  2: 0x024C [0x23] WAIT_FOR_DIALOG_INTERACTION
  3: 0x024D [0x1D] PRINT_EVENT_MESSAGE(message_id=8279*)
    → "Then truly I say unto you, unless you are apprrroved by the earth and the sky, how is it that you can say you are accepted by Mother Nature?"
  4: 0x0250 [0x23] WAIT_FOR_DIALOG_INTERACTION
  5: 0x0251 [0x29] REQ_SET_WAIT(priority=0x08, entity_id=Perih Vashai (ID: 17764470/0x010F1076), tag_num=0x06)
  6: 0x0258 [0x29] REQ_SET_WAIT(priority=0x08, entity_id=Perih Vashai (ID: 17764470/0x010F1076), tag_num=0x07)
  7: 0x025F [0x29] REQ_SET_WAIT(priority=0x08, entity_id=Perih Vashai (ID: 17764470/0x010F1076), tag_num=0x08)
  8: 0x0266 [0x00] END_REQSTACK()
```

### Event 65535.18

#### Metadata

| Field        | Value    |
|--------------|----------|
| Entrypoint   | 0x0267   |
| Data Size    | 37 bytes |
| Instructions | 9        |

```
      00 01 02 03 04 05 06 07  08 09 0A 0B 0C 0D 0E 0F
      -- -- -- -- -- -- -- --  -- -- -- -- -- -- -- --
0260:                      29  08 76 10 0F 01 01 1D 12         ).v......
0270: 80 23 1D 13 80 23 29 08  76 10 0F 01 02 29 08 76  .#...#).v....).v
0280: 10 0F 01 03 29 08 76 10  0F 01 04 00              ....).v.....    
```

#### Opcodes

```
  0: 0x0267 [0x29] REQ_SET_WAIT(priority=0x08, entity_id=Perih Vashai (ID: 17764470/0x010F1076), tag_num=0x01)
  1: 0x026E [0x1D] PRINT_EVENT_MESSAGE(message_id=8280*)
    → "If you so desire to submit yourself to the laws of naturrre, my child, then go, meet with the fanged king of the beasts, and bring back one of his grrreat teeth."
  2: 0x0271 [0x23] WAIT_FOR_DIALOG_INTERACTION
  3: 0x0272 [0x1D] PRINT_EVENT_MESSAGE(message_id=8281*)
    → "Listen to the voice of nature and wait for nature to run herrr course. If nature accepts us, then even we who lack fangs will be perrrmitted to hunt as her rangers."
  4: 0x0275 [0x23] WAIT_FOR_DIALOG_INTERACTION
  5: 0x0276 [0x29] REQ_SET_WAIT(priority=0x08, entity_id=Perih Vashai (ID: 17764470/0x010F1076), tag_num=0x02)
  6: 0x027D [0x29] REQ_SET_WAIT(priority=0x08, entity_id=Perih Vashai (ID: 17764470/0x010F1076), tag_num=0x03)
  7: 0x0284 [0x29] REQ_SET_WAIT(priority=0x08, entity_id=Perih Vashai (ID: 17764470/0x010F1076), tag_num=0x04)
  8: 0x028B [0x00] END_REQSTACK()
```

### Event 352

#### Metadata

| Field        | Value    |
|--------------|----------|
| Entrypoint   | 0x028C   |
| Data Size    | 45 bytes |
| Instructions | 12       |

```
      00 01 02 03 04 05 06 07  08 09 0A 0B 0C 0D 0E 0F
      -- -- -- -- -- -- -- --  -- -- -- -- -- -- -- --
0280:                                      29 08 76 10              ).v.
0290: 0F 01 01 1D 14 80 23 1D  15 80 23 29 08 76 10 0F  ......#...#).v..
02A0: 01 02 29 08 76 10 0F 01  03 29 08 76 10 0F 01 04  ..).v....).v....
02B0: 7B 76 10 0F 01 20 00 21  00                       {v... .!.       
```

#### Opcodes

```
  0: 0x028C [0x29] REQ_SET_WAIT(priority=0x08, entity_id=Perih Vashai (ID: 17764470/0x010F1076), tag_num=0x01)
  1: 0x0293 [0x1D] PRINT_EVENT_MESSAGE(message_id=8282*)
    → "My child, if you desire to submit yourself to the laws of naturrre, then go, meet with the fanged king of the beasts, and bring back one of his grrreat teeth."
  2: 0x0296 [0x23] WAIT_FOR_DIALOG_INTERACTION
  3: 0x0297 [0x1D] PRINT_EVENT_MESSAGE(message_id=8283*)
    → "Listen to the voice of nature and wait for nature to run herrr course. If nature accepts us, then even we who lack fangs will be perrrmitted to hunt as her rangers."
  4: 0x029A [0x23] WAIT_FOR_DIALOG_INTERACTION
  5: 0x029B [0x29] REQ_SET_WAIT(priority=0x08, entity_id=Perih Vashai (ID: 17764470/0x010F1076), tag_num=0x02)
  6: 0x02A2 [0x29] REQ_SET_WAIT(priority=0x08, entity_id=Perih Vashai (ID: 17764470/0x010F1076), tag_num=0x03)
  7: 0x02A9 [0x29] REQ_SET_WAIT(priority=0x08, entity_id=Perih Vashai (ID: 17764470/0x010F1076), tag_num=0x04)
  8: 0x02B0 [0x7B] Perih Vashai (ID: 17764470/0x010F1076) stops talking
  9: 0x02B5 [0x20] SET_CLI_EVENT_UC_FLAG: Unlock player control
 10: 0x02B7 [0x21] END_EVENT
 11: 0x02B8 [0x00] END_REQSTACK()
```

### Event 356

#### Metadata

| Field        | Value    |
|--------------|----------|
| Entrypoint   | 0x02B9   |
| Data Size    | 44 bytes |
| Instructions | 12       |

```
      00 01 02 03 04 05 06 07  08 09 0A 0B 0C 0D 0E 0F
      -- -- -- -- -- -- -- --  -- -- -- -- -- -- -- --
02B0:                             20 01 42 29 08 76 10            .B).v.
02C0: 0F 01 05 1D 16 80 23 29  08 76 10 0F 01 06 29 08  ......#).v....).
02D0: 76 10 0F 01 07 29 08 76  10 0F 01 08 7B 76 10 0F  v....).v....{v..
02E0: 01 20 00 21 00                                    . .!.           
```

#### Opcodes

```
  0: 0x02B9 [0x20] SET_CLI_EVENT_UC_FLAG: Lock player control
  1: 0x02BB [0x42] SET_CLI_EVENT_CANCEL_DATA()
  2: 0x02BC [0x29] REQ_SET_WAIT(priority=0x08, entity_id=Perih Vashai (ID: 17764470/0x010F1076), tag_num=0x05)
  3: 0x02C3 [0x1D] PRINT_EVENT_MESSAGE(message_id=8291*)
    → "Why, my child, did you cause yet anotherrr of nature's wonderrrs to die meaninglessly? It is useless to even try and explain this fang's meaning to one such as you."
  4: 0x02C6 [0x23] WAIT_FOR_DIALOG_INTERACTION
  5: 0x02C7 [0x29] REQ_SET_WAIT(priority=0x08, entity_id=Perih Vashai (ID: 17764470/0x010F1076), tag_num=0x06)
  6: 0x02CE [0x29] REQ_SET_WAIT(priority=0x08, entity_id=Perih Vashai (ID: 17764470/0x010F1076), tag_num=0x07)
  7: 0x02D5 [0x29] REQ_SET_WAIT(priority=0x08, entity_id=Perih Vashai (ID: 17764470/0x010F1076), tag_num=0x08)
  8: 0x02DC [0x7B] Perih Vashai (ID: 17764470/0x010F1076) stops talking
  9: 0x02E1 [0x20] SET_CLI_EVENT_UC_FLAG: Unlock player control
 10: 0x02E3 [0x21] END_EVENT
 11: 0x02E4 [0x00] END_REQSTACK()
```

### Event 357

#### Metadata

| Field        | Value     |
|--------------|-----------|
| Entrypoint   | 0x02E5    |
| Data Size    | 180 bytes |
| Instructions | 22        |

```
      00 01 02 03 04 05 06 07  08 09 0A 0B 0C 0D 0E 0F
      -- -- -- -- -- -- -- --  -- -- -- -- -- -- -- --
02E0:                20 01 42  46 01 45 09 80 F0 FF FF        .BF.E.....
02F0: 7F F0 FF FF 7F 66 64 6F  31 0A 80 1C 0B 80 38 0C  .....fdo1.....8.
0300: 80 29 0B F0 FF FF 7F 36  45 0D 80 F0 FF FF 7F F0  .).....6E.......
0310: FF FF 7F 73 30 37 37 0A  80 45 09 80 F0 FF FF 7F  ...s077..E......
0320: F0 FF FF 7F 66 64 69 31  0A 80 29 0B 76 10 0F 01  ....fdi1..).v...
0330: 1A 52 0D 80 F0 FF FF 7F  F0 FF FF 7F 73 30 37 37  .R..........s077
0340: 45 0D 80 F0 FF FF 7F F0  FF FF 7F 73 30 37 39 0A  E..........s079.
0350: 80 29 0B 76 10 0F 01 1B  7B 76 10 0F 01 45 09 80  .).v....{v...E..
0360: F0 FF FF 7F F0 FF FF 7F  66 64 6F 31 0A 80 1C 0B  ........fdo1....
0370: 80 46 00 45 09 80 F0 FF  FF 7F F0 FF FF 7F 66 64  .F.E..........fd
0380: 69 31 0A 80 45 17 80 F0  FF FF 7F F0 FF FF 7F 71  i1..E..........q
0390: 73 74 63 0A 80 20 00 21  00                       stc.. .!.       
```

#### Opcodes

```
  0: 0x02E5 [0x20] SET_CLI_EVENT_UC_FLAG: Lock player control
  1: 0x02E7 [0x42] SET_CLI_EVENT_CANCEL_DATA()
  2: 0x02E8 [0x46] CAMERA_CONTROL: Disable user control
  3: 0x02EA [0x45] LOAD_SCHEDULED_TASK: Load scheduler "fdo1" with entities [LocalPlayer, LocalPlayer], work=[200*, 0*]
  4: 0x02FB [0x1C] WAIT(60* ticks)
  5: 0x02FE [0x38] SET_CLIENT_EVENT_MODE(mode=3*)
  6: 0x0301 [0x29] REQ_SET_WAIT(priority=0x0B, entity_id=LocalPlayer, tag_num=0x36)
  7: 0x0308 [0x45] LOAD_SCHEDULED_TASK: Load scheduler "s077" with entities [LocalPlayer, LocalPlayer], work=[141*, 0*]
  8: 0x0319 [0x45] LOAD_SCHEDULED_TASK: Load scheduler "fdi1" with entities [LocalPlayer, LocalPlayer], work=[200*, 0*]
  9: 0x032A [0x29] REQ_SET_WAIT(priority=0x0B, entity_id=Perih Vashai (ID: 17764470/0x010F1076), tag_num=0x1A)
 10: 0x0331 [0x52] END_LOAD_SCHEDULER: End scheduler "s077" with entities [LocalPlayer, LocalPlayer], work=141*
 11: 0x0340 [0x45] LOAD_SCHEDULED_TASK: Load scheduler "s079" with entities [LocalPlayer, LocalPlayer], work=[141*, 0*]
 12: 0x0351 [0x29] REQ_SET_WAIT(priority=0x0B, entity_id=Perih Vashai (ID: 17764470/0x010F1076), tag_num=0x1B)
 13: 0x0358 [0x7B] Perih Vashai (ID: 17764470/0x010F1076) stops talking
 14: 0x035D [0x45] LOAD_SCHEDULED_TASK: Load scheduler "fdo1" with entities [LocalPlayer, LocalPlayer], work=[200*, 0*]
 15: 0x036E [0x1C] WAIT(60* ticks)
 16: 0x0371 [0x46] CAMERA_CONTROL: Restore default settings
 17: 0x0373 [0x45] LOAD_SCHEDULED_TASK: Load scheduler "fdi1" with entities [LocalPlayer, LocalPlayer], work=[200*, 0*]
 18: 0x0384 [0x45] LOAD_SCHEDULED_TASK: Load scheduler "qstc" with entities [LocalPlayer, LocalPlayer], work=[201*, 0*]
 19: 0x0395 [0x20] SET_CLI_EVENT_UC_FLAG: Unlock player control
 20: 0x0397 [0x21] END_EVENT
 21: 0x0398 [0x00] END_REQSTACK()
```

### Event 65535.19

#### Metadata

| Field        | Value    |
|--------------|----------|
| Entrypoint   | 0x0399   |
| Data Size    | 37 bytes |
| Instructions | 9        |

```
      00 01 02 03 04 05 06 07  08 09 0A 0B 0C 0D 0E 0F
      -- -- -- -- -- -- -- --  -- -- -- -- -- -- -- --
0390:                             29 08 76 10 0F 01 05           ).v....
03A0: 1D 18 80 23 1D 19 80 23  29 08 76 10 0F 01 06 29  ...#...#).v....)
03B0: 08 76 10 0F 01 07 29 08  76 10 0F 01 08 00        .v....).v.....  
```

#### Opcodes

```
  0: 0x0399 [0x29] REQ_SET_WAIT(priority=0x08, entity_id=Perih Vashai (ID: 17764470/0x010F1076), tag_num=0x05)
  1: 0x03A0 [0x1D] PRINT_EVENT_MESSAGE(message_id=8292*)
    → "For the hunterrr, the fangs are not just a tool vital for existence, but also a witness to its death. If the fanged one loses its fangs, it can no longerrr live. Yet when the fanged one dies, only its fangs rrremain."
  2: 0x03A3 [0x23] WAIT_FOR_DIALOG_INTERACTION
  3: 0x03A4 [0x1D] PRINT_EVENT_MESSAGE(message_id=8293*)
    → "To hunt like the fanged one, you must live by the fang and die leaving only the fang behind."
  4: 0x03A7 [0x23] WAIT_FOR_DIALOG_INTERACTION
  5: 0x03A8 [0x29] REQ_SET_WAIT(priority=0x08, entity_id=Perih Vashai (ID: 17764470/0x010F1076), tag_num=0x06)
  6: 0x03AF [0x29] REQ_SET_WAIT(priority=0x08, entity_id=Perih Vashai (ID: 17764470/0x010F1076), tag_num=0x07)
  7: 0x03B6 [0x29] REQ_SET_WAIT(priority=0x08, entity_id=Perih Vashai (ID: 17764470/0x010F1076), tag_num=0x08)
  8: 0x03BD [0x00] END_REQSTACK()
```

### Event 65535.20

#### Metadata

| Field        | Value    |
|--------------|----------|
| Entrypoint   | 0x03BE   |
| Data Size    | 19 bytes |
| Instructions | 5        |

```
      00 01 02 03 04 05 06 07  08 09 0A 0B 0C 0D 0E 0F
      -- -- -- -- -- -- -- --  -- -- -- -- -- -- -- --
03B0:                                            29 08                ).
03C0: 76 10 0F 01 09 1D 1A 80  23 29 08 76 10 0F 01 0A  v.......#).v....
03D0: 00                                                .               
```

#### Opcodes

```
  0: 0x03BE [0x29] REQ_SET_WAIT(priority=0x08, entity_id=Perih Vashai (ID: 17764470/0x010F1076), tag_num=0x09)
  1: 0x03C5 [0x1D] PRINT_EVENT_MESSAGE(message_id=8294*)
    → "Onto you, our new ranger, I bestow the witness of the life and death of the grrreat fanged one..."
  2: 0x03C8 [0x23] WAIT_FOR_DIALOG_INTERACTION
  3: 0x03C9 [0x29] REQ_SET_WAIT(priority=0x08, entity_id=Perih Vashai (ID: 17764470/0x010F1076), tag_num=0x0A)
  4: 0x03D0 [0x00] END_REQSTACK()
```

### Event 358

#### Metadata

| Field        | Value    |
|--------------|----------|
| Entrypoint   | 0x03D1   |
| Data Size    | 45 bytes |
| Instructions | 12       |

```
      00 01 02 03 04 05 06 07  08 09 0A 0B 0C 0D 0E 0F
      -- -- -- -- -- -- -- --  -- -- -- -- -- -- -- --
03D0:    29 08 76 10 0F 01 01  1D 1B 80 23 1D 1C 80 23   ).v.......#...#
03E0: 29 08 76 10 0F 01 02 7B  76 10 0F 01 29 08 76 10  ).v....{v...).v.
03F0: 0F 01 03 29 08 76 10 0F  01 04 20 00 21 00        ...).v.... .!.  
```

#### Opcodes

```
  0: 0x03D1 [0x29] REQ_SET_WAIT(priority=0x08, entity_id=Perih Vashai (ID: 17764470/0x010F1076), tag_num=0x01)
  1: 0x03D8 [0x1D] PRINT_EVENT_MESSAGE(message_id=8296*)
    → "The one unto whom Mother Nature has bestowed her fangs must neverrr fight without reason."
  2: 0x03DB [0x23] WAIT_FOR_DIALOG_INTERACTION
  3: 0x03DC [0x1D] PRINT_EVENT_MESSAGE(message_id=8297*)
    → "Glorrry to the fangs of the fanged one. Listen to the voice of nature and follow her courrrse. The sky and earrrth shall tell you the time to fight and the time to die."
  4: 0x03DF [0x23] WAIT_FOR_DIALOG_INTERACTION
  5: 0x03E0 [0x29] REQ_SET_WAIT(priority=0x08, entity_id=Perih Vashai (ID: 17764470/0x010F1076), tag_num=0x02)
  6: 0x03E7 [0x7B] Perih Vashai (ID: 17764470/0x010F1076) stops talking
  7: 0x03EC [0x29] REQ_SET_WAIT(priority=0x08, entity_id=Perih Vashai (ID: 17764470/0x010F1076), tag_num=0x03)
  8: 0x03F3 [0x29] REQ_SET_WAIT(priority=0x08, entity_id=Perih Vashai (ID: 17764470/0x010F1076), tag_num=0x04)
  9: 0x03FA [0x20] SET_CLI_EVENT_UC_FLAG: Unlock player control
 10: 0x03FC [0x21] END_EVENT
 11: 0x03FD [0x00] END_REQSTACK()
```

### Event 523

#### Metadata

| Field        | Value     |
|--------------|-----------|
| Entrypoint   | 0x03FE    |
| Data Size    | 216 bytes |
| Instructions | 30        |

```
      00 01 02 03 04 05 06 07  08 09 0A 0B 0C 0D 0E 0F
      -- -- -- -- -- -- -- --  -- -- -- -- -- -- -- --
03F0:                                            20 01                 .
0400: 42 46 01 5D 0A 80 09 80  45 09 80 F0 FF FF 7F F0  BF.]....E.......
0410: FF FF 7F 66 64 6F 31 0A  80 1C 09 80 38 0C 80 29  ...fdo1.....8..)
0420: 0B F0 FF FF 7F 36 5C 00  1D 80 5C 01 1D 80 5D 1E  .....6\...\...].
0430: 80 1F 80 45 0D 80 F0 FF  FF 7F F0 FF FF 7F 73 30  ...E..........s0
0440: 37 37 0A 80 45 09 80 F0  FF FF 7F F0 FF FF 7F 66  77..E..........f
0450: 64 69 31 0A 80 29 0B 76  10 0F 01 1E 52 0D 80 F0  di1..).v....R...
0460: FF FF 7F F0 FF FF 7F 73  30 37 37 45 0D 80 F0 FF  .......s077E....
0470: FF 7F F0 FF FF 7F 73 30  37 38 0A 80 29 0B 76 10  ......s078..).v.
0480: 0F 01 1F 29 0B 76 10 0F  01 20 5D 0A 80 09 80 45  ...).v... ]....E
0490: 09 80 F0 FF FF 7F F0 FF  FF 7F 66 64 6F 31 0A 80  ..........fdo1..
04A0: 1C 09 80 52 0D 80 F0 FF  FF 7F F0 FF FF 7F 73 30  ...R..........s0
04B0: 37 38 5C 00 20 80 5C 01  20 80 5D 1E 80 1F 80 46  78\. .\. .]....F
04C0: 00 45 09 80 F0 FF FF 7F  F0 FF FF 7F 66 64 69 31  .E..........fdi1
04D0: 0A 80 20 00 21 00                                 .. .!.          
```

#### Opcodes

```
  0: 0x03FE [0x20] SET_CLI_EVENT_UC_FLAG: Lock player control
  1: 0x0400 [0x42] SET_CLI_EVENT_CANCEL_DATA()
  2: 0x0401 [0x46] CAMERA_CONTROL: Disable user control
  3: 0x0403 [0x5D] SET_MUSIC_VOLUME(volume=0*, fade_time=200*)
  4: 0x0408 [0x45] LOAD_SCHEDULED_TASK: Load scheduler "fdo1" with entities [LocalPlayer, LocalPlayer], work=[200*, 0*]
  5: 0x0419 [0x1C] WAIT(200* ticks)
  6: 0x041C [0x38] SET_CLIENT_EVENT_MODE(mode=3*)
  7: 0x041F [0x29] REQ_SET_WAIT(priority=0x0B, entity_id=LocalPlayer, tag_num=0x36)
  8: 0x0426 [0x5C] MUSIC_CONTROL: Set Idle (Day) music to song 159*
  9: 0x042A [0x5C] MUSIC_CONTROL: Set Idle (Night) music to song 159*
 10: 0x042E [0x5D] SET_MUSIC_VOLUME(volume=127*, fade_time=1*)
 11: 0x0433 [0x45] LOAD_SCHEDULED_TASK: Load scheduler "s077" with entities [LocalPlayer, LocalPlayer], work=[141*, 0*]
 12: 0x0444 [0x45] LOAD_SCHEDULED_TASK: Load scheduler "fdi1" with entities [LocalPlayer, LocalPlayer], work=[200*, 0*]
 13: 0x0455 [0x29] REQ_SET_WAIT(priority=0x0B, entity_id=Perih Vashai (ID: 17764470/0x010F1076), tag_num=0x1E)
 14: 0x045C [0x52] END_LOAD_SCHEDULER: End scheduler "s077" with entities [LocalPlayer, LocalPlayer], work=141*
 15: 0x046B [0x45] LOAD_SCHEDULED_TASK: Load scheduler "s078" with entities [LocalPlayer, LocalPlayer], work=[141*, 0*]
 16: 0x047C [0x29] REQ_SET_WAIT(priority=0x0B, entity_id=Perih Vashai (ID: 17764470/0x010F1076), tag_num=0x1F)
 17: 0x0483 [0x29] REQ_SET_WAIT(priority=0x0B, entity_id=Perih Vashai (ID: 17764470/0x010F1076), tag_num=0x20)
 18: 0x048A [0x5D] SET_MUSIC_VOLUME(volume=0*, fade_time=200*)
 19: 0x048F [0x45] LOAD_SCHEDULED_TASK: Load scheduler "fdo1" with entities [LocalPlayer, LocalPlayer], work=[200*, 0*]
 20: 0x04A0 [0x1C] WAIT(200* ticks)
 21: 0x04A3 [0x52] END_LOAD_SCHEDULER: End scheduler "s078" with entities [LocalPlayer, LocalPlayer], work=141*
 22: 0x04B2 [0x5C] MUSIC_CONTROL: Set Idle (Day) music to song 151*
 23: 0x04B6 [0x5C] MUSIC_CONTROL: Set Idle (Night) music to song 151*
 24: 0x04BA [0x5D] SET_MUSIC_VOLUME(volume=127*, fade_time=1*)
 25: 0x04BF [0x46] CAMERA_CONTROL: Restore default settings
 26: 0x04C1 [0x45] LOAD_SCHEDULED_TASK: Load scheduler "fdi1" with entities [LocalPlayer, LocalPlayer], work=[200*, 0*]
 27: 0x04D2 [0x20] SET_CLI_EVENT_UC_FLAG: Unlock player control
 28: 0x04D4 [0x21] END_EVENT
 29: 0x04D5 [0x00] END_REQSTACK()
```

### Event 65535.21

#### Metadata

| Field        | Value    |
|--------------|----------|
| Entrypoint   | 0x04D6   |
| Data Size    | 23 bytes |
| Instructions | 7        |

```
      00 01 02 03 04 05 06 07  08 09 0A 0B 0C 0D 0E 0F
      -- -- -- -- -- -- -- --  -- -- -- -- -- -- -- --
04D0:                   1D 21  80 23 29 08 76 10 0F 01        .!.#).v...
04E0: 01 1D 22 80 23 29 08 76  10 0F 01 02 00           ..".#).v.....   
```

#### Opcodes

```
  0: 0x04D6 [0x1D] PRINT_EVENT_MESSAGE(message_id=8915*)
    → "So you have come, my fellow ranger. I thank the winds for your safe return."
  1: 0x04D9 [0x23] WAIT_FOR_DIALOG_INTERACTION
  2: 0x04DA [0x29] REQ_SET_WAIT(priority=0x08, entity_id=Perih Vashai (ID: 17764470/0x010F1076), tag_num=0x01)
  3: 0x04E1 [0x1D] PRINT_EVENT_MESSAGE(message_id=8916*)
    → "I have a task for you. It is said that adventurers follow the winds, traveling far and wide across Vana'diel."
  4: 0x04E4 [0x23] WAIT_FOR_DIALOG_INTERACTION
  5: 0x04E5 [0x29] REQ_SET_WAIT(priority=0x08, entity_id=Perih Vashai (ID: 17764470/0x010F1076), tag_num=0x02)
  6: 0x04EC [0x00] END_REQSTACK()
```

### Event 65535.22

#### Metadata

| Field        | Value    |
|--------------|----------|
| Entrypoint   | 0x04ED   |
| Data Size    | 19 bytes |
| Instructions | 5        |

```
      00 01 02 03 04 05 06 07  08 09 0A 0B 0C 0D 0E 0F
      -- -- -- -- -- -- -- --  -- -- -- -- -- -- -- --
04E0:                                         29 08 76               ).v
04F0: 10 0F 01 09 1D 23 80 23  29 08 76 10 0F 01 0A 00  .....#.#).v.....
```

#### Opcodes

```
  0: 0x04ED [0x29] REQ_SET_WAIT(priority=0x08, entity_id=Perih Vashai (ID: 17764470/0x010F1076), tag_num=0x09)
  1: 0x04F4 [0x1D] PRINT_EVENT_MESSAGE(message_id=8917*)
    → "I wish for you to meet with Sibyl Guard Semih Lafihna with all haste. Give her this. She should rrreturn here with you."
  2: 0x04F7 [0x23] WAIT_FOR_DIALOG_INTERACTION
  3: 0x04F8 [0x29] REQ_SET_WAIT(priority=0x08, entity_id=Perih Vashai (ID: 17764470/0x010F1076), tag_num=0x0A)
  4: 0x04FF [0x00] END_REQSTACK()
```

### Event 65535.23

#### Metadata

| Field        | Value    |
|--------------|----------|
| Entrypoint   | 0x0500   |
| Data Size    | 23 bytes |
| Instructions | 7        |

```
      00 01 02 03 04 05 06 07  08 09 0A 0B 0C 0D 0E 0F
      -- -- -- -- -- -- -- --  -- -- -- -- -- -- -- --
0500: 29 08 76 10 0F 01 01 1D  24 80 23 1D 25 80 23 29  ).v.....$.#.%.#)
0510: 08 76 10 0F 01 02 00                              .v.....         
```

#### Opcodes

```
  0: 0x0500 [0x29] REQ_SET_WAIT(priority=0x08, entity_id=Perih Vashai (ID: 17764470/0x010F1076), tag_num=0x01)
  1: 0x0507 [0x1D] PRINT_EVENT_MESSAGE(message_id=8918*)
    → "Currently, Semih Lafihna is conducting an investigation in a place called Ranguemont Pass, located on the western continent."
  2: 0x050A [0x23] WAIT_FOR_DIALOG_INTERACTION
  3: 0x050B [0x1D] PRINT_EVENT_MESSAGE(message_id=8919*)
    → "There is little time. ...The blessing of the winds go with you."
  4: 0x050E [0x23] WAIT_FOR_DIALOG_INTERACTION
  5: 0x050F [0x29] REQ_SET_WAIT(priority=0x08, entity_id=Perih Vashai (ID: 17764470/0x010F1076), tag_num=0x02)
  6: 0x0516 [0x00] END_REQSTACK()
```

### Event 524

#### Metadata

| Field        | Value    |
|--------------|----------|
| Entrypoint   | 0x0517   |
| Data Size    | 17 bytes |
| Instructions | 8        |

```
      00 01 02 03 04 05 06 07  08 09 0A 0B 0C 0D 0E 0F
      -- -- -- -- -- -- -- --  -- -- -- -- -- -- -- --
0510:                      7B  76 10 0F 01 1D 26 80 23         {v....&.#
0520: 1D 27 80 23 20 00 21 00                           .'.# .!.        
```

#### Opcodes

```
  0: 0x0517 [0x7B] Perih Vashai (ID: 17764470/0x010F1076) stops talking
  1: 0x051C [0x1D] PRINT_EVENT_MESSAGE(message_id=8920*)
    → "Find Semih Lafihna and give her the earring. She should rrreturn here with you."
  2: 0x051F [0x23] WAIT_FOR_DIALOG_INTERACTION
  3: 0x0520 [0x1D] PRINT_EVENT_MESSAGE(message_id=8921*)
    → "Currently, Semih Lafihna is conducting an investigation in a place called Ranguemont Pass, located on the western continent. May the winds protect and guide you, adventurer."
  4: 0x0523 [0x23] WAIT_FOR_DIALOG_INTERACTION
  5: 0x0524 [0x20] SET_CLI_EVENT_UC_FLAG: Unlock player control
  6: 0x0526 [0x21] END_EVENT
  7: 0x0527 [0x00] END_REQSTACK()
```

### Event 527

#### Metadata

| Field        | Value      |
|--------------|------------|
| Entrypoint   | 0x0528     |
| Data Size    | 1554 bytes |
| Instructions | 170        |

```
      00 01 02 03 04 05 06 07  08 09 0A 0B 0C 0D 0E 0F
      -- -- -- -- -- -- -- --  -- -- -- -- -- -- -- --
0520:                          20 01 42 46 01 5D 0A 80           .BF.]..
0530: 09 80 45 09 80 F0 FF FF  7F F0 FF FF 7F 66 64 6F  ..E..........fdo
0540: 31 0A 80 1C 09 80 38 0C  80 29 0B F0 FF FF 7F 36  1.....8..).....6
0550: 4E 00 DE 10 0F 01 80 DE  10 0F 01 45 0D 80 F0 FF  N..........E....
0560: FF 7F F0 FF FF 7F 73 30  37 37 0A 80 45 09 80 F0  ......s077..E...
0570: FF FF 7F F0 FF FF 7F 66  64 69 31 0A 80 29 0B 76  .......fdi1..).v
0580: 10 0F 01 23 1C 28 80 79  00 76 10 0F 01 DE 10 0F  ...#.(.y.v......
0590: 01 2B 76 10 0F 01 29 80  23 5C 00 2A 80 5C 01 2A  .+v...).#\.*.\.*
05A0: 80 5D 1E 80 1F 80 27 0B  DE 10 0F 01 07 1C 2B 80  .]....'.......+.
05B0: 52 0D 80 F0 FF FF 7F F0  FF FF 7F 73 30 37 37 45  R..........s077E
05C0: 0D 80 F0 FF FF 7F F0 FF  FF 7F 73 31 30 34 0A 80  ..........s104..
05D0: 29 0B F0 FF FF 7F 39 4B  F0 FF FF 7F 2C 80 79 00  ).....9K....,.y.
05E0: F0 FF FF 7F DE 10 0F 01  1C 2D 80 52 0D 80 F0 FF  .........-.R....
05F0: FF 7F F0 FF FF 7F 73 31  30 34 45 09 80 F0 FF FF  ......s104E.....
0600: 7F F0 FF FF 7F 6F 76 6C  31 0A 80 45 0D 80 F0 FF  .....ovl1..E....
0610: FF 7F F0 FF FF 7F 73 31  30 35 0A 80 1C 2E 80 52  ......s105.....R
0620: 0D 80 F0 FF FF 7F F0 FF  FF 7F 73 31 30 35 45 09  ..........s105E.
0630: 80 F0 FF FF 7F F0 FF FF  7F 6F 76 6C 31 0A 80 45  .........ovl1..E
0640: 0D 80 F0 FF FF 7F F0 FF  FF 7F 73 31 30 36 0A 80  ..........s106..
0650: 2B DE 10 0F 01 2F 80 23  29 0B 76 10 0F 01 24 52  +..../.#).v...$R
0660: 0D 80 F0 FF FF 7F F0 FF  FF 7F 73 31 30 36 45 0D  ..........s106E.
0670: 80 F0 FF FF 7F F0 FF FF  7F 73 31 31 39 0A 80 2B  .........s119..+
0680: 76 10 0F 01 30 80 23 2A  0B DE 10 0F 01 45 0D 80  v...0.#*.....E..
0690: F0 FF FF 7F F0 FF FF 7F  73 31 30 37 0A 80 27 0B  ........s107..'.
06A0: DE 10 0F 01 08 2B DE 10  0F 01 31 80 23 2A 0B DE  .....+....1.#*..
06B0: 10 0F 01 52 0D 80 F0 FF  FF 7F F0 FF FF 7F 73 31  ...R..........s1
06C0: 30 37 45 0D 80 F0 FF FF  7F F0 FF FF 7F 73 31 30  07E..........s10
06D0: 38 0A 80 29 0B 76 10 0F  01 25 52 0D 80 F0 FF FF  8..).v...%R.....
06E0: 7F F0 FF FF 7F 73 31 30  38 45 0D 80 F0 FF FF 7F  .....s108E......
06F0: F0 FF FF 7F 73 31 30 39  0A 80 29 0B DE 10 0F 01  ....s109..).....
0700: 0D 52 0D 80 F0 FF FF 7F  F0 FF FF 7F 73 31 30 39  .R..........s109
0710: 03 02 10 87 7F 02 02 10  32 80 00 31 07 45 0D 80  ........2..1.E..
0720: F0 FF FF 7F F0 FF FF 7F  73 31 34 39 0A 80 01 5E  ........s149...^
0730: 07 02 02 10 33 80 00 4D  07 45 0D 80 F0 FF FF 7F  ....3..M.E......
0740: F0 FF FF 7F 73 31 34 39  0A 80 01 5E 07 45 0D 80  ....s149...^.E..
0750: F0 FF FF 7F F0 FF FF 7F  73 31 31 30 0A 80 79 00  ........s110..y.
0760: F0 FF FF 7F DE 10 0F 01  29 0B DE 10 0F 01 0E 79  ........)......y
0770: 00 F0 FF FF 7F 76 10 0F  01 29 0B 76 10 0F 01 26  .....v...).v...&
0780: 02 02 10 32 80 00 9A 07  52 0D 80 F0 FF FF 7F F0  ...2....R.......
0790: FF FF 7F 73 31 34 39 01  C3 07 02 02 10 33 80 00  ...s149......3..
07A0: B4 07 52 0D 80 F0 FF FF  7F F0 FF FF 7F 73 31 34  ..R..........s14
07B0: 39 01 C3 07 52 0D 80 F0  FF FF 7F F0 FF FF 7F 73  9...R..........s
07C0: 31 31 30 45 0D 80 F0 FF  FF 7F F0 FF FF 7F 73 31  110E..........s1
07D0: 31 31 0A 80 79 00 F0 FF  FF 7F DE 10 0F 01 27 0B  11..y.........'.
07E0: DE 10 0F 01 09 4E 00 DD  10 0F 01 2B DE 10 0F 01  .....N.....+....
07F0: 34 80 23 2A 0B DE 10 0F  01 80 DD 10 0F 01 79 00  4.#*..........y.
0800: DD 10 0F 01 DE 10 0F 01  52 0D 80 F0 FF FF 7F F0  ........R.......
0810: FF FF 7F 73 31 31 31 45  0D 80 F0 FF FF 7F F0 FF  ...s111E........
0820: FF 7F 73 31 31 32 0A 80  27 0B DE 10 0F 01 0A 27  ..s112..'......'
0830: 0B DD 10 0F 01 23 1C 2D  80 79 00 F0 FF FF 7F DD  .....#.-.y......
0840: 10 0F 01 5D 0A 80 09 80  45 09 80 F0 FF FF 7F F0  ...]....E.......
0850: FF FF 7F 66 64 6F 31 0A  80 1C 09 80 7B DD 10 0F  ...fdo1.....{...
0860: 01 7B 76 10 0F 01 2A 0B  DD 10 0F 01 2A 0B DE 10  .{v...*.....*...
0870: 0F 01 5C 00 1D 80 5C 01  1D 80 5D 1E 80 1F 80 52  ..\...\...]....R
0880: 0D 80 F0 FF FF 7F F0 FF  FF 7F 73 31 31 32 27 0B  ..........s112'.
0890: DD 10 0F 01 24 1C 35 80  45 0D 80 F0 FF FF 7F F0  ....$.5.E.......
08A0: FF FF 7F 73 31 31 37 0A  80 45 09 80 F0 FF FF 7F  ...s117..E......
08B0: F0 FF FF 7F 66 64 69 31  0A 80 2B DD 10 0F 01 36  ....fdi1..+....6
08C0: 80 23 2A 0B DD 10 0F 01  79 00 DD 10 0F 01 DE 10  .#*.....y.......
08D0: 0F 01 29 0B DD 10 0F 01  26 52 0D 80 F0 FF FF 7F  ..).....&R......
08E0: F0 FF FF 7F 73 31 31 37  45 0D 80 F0 FF FF 7F F0  ....s117E.......
08F0: FF FF 7F 73 30 37 37 0A  80 29 0B 76 10 0F 01 27  ...s077..).v...'
0900: 52 0D 80 F0 FF FF 7F F0  FF FF 7F 73 30 37 37 45  R..........s077E
0910: 0D 80 F0 FF FF 7F F0 FF  FF 7F 73 31 31 33 0A 80  ..........s113..
0920: 29 0B DD 10 0F 01 27 29  0B 76 10 0F 01 28 52 0D  ).....').v...(R.
0930: 80 F0 FF FF 7F F0 FF FF  7F 73 31 31 33 45 0D 80  .........s113E..
0940: F0 FF FF 7F F0 FF FF 7F  73 30 37 38 0A 80 29 0B  ........s078..).
0950: DD 10 0F 01 28 52 0D 80  F0 FF FF 7F F0 FF FF 7F  ....(R..........
0960: 73 30 37 38 45 0D 80 F0  FF FF 7F F0 FF FF 7F 73  s078E..........s
0970: 31 30 38 0A 80 4A F0 FF  FF 7F DD 10 0F 01 29 0B  108..J........).
0980: 76 10 0F 01 29 6F 76 F0  FF FF 7F 45 0D 80 F0 FF  v...)ov....E....
0990: FF 7F F0 FF FF 7F 73 31  31 38 0A 80 29 0B DD 10  ......s118..)...
09A0: 0F 01 29 52 0D 80 F0 FF  FF 7F F0 FF FF 7F 73 31  ..)R..........s1
09B0: 31 38 45 0D 80 F0 FF FF  7F F0 FF FF 7F 73 31 31  18E..........s11
09C0: 34 0A 80 29 0B DD 10 0F  01 2A 52 0D 80 F0 FF FF  4..).....*R.....
09D0: 7F F0 FF FF 7F 73 31 31  34 45 0D 80 F0 FF FF 7F  .....s114E......
09E0: F0 FF FF 7F 73 31 31 35  0A 80 27 0B DD 10 0F 01  ....s115..'.....
09F0: 25 55 0D 80 F0 FF FF 7F  F0 FF FF 7F 73 31 31 35  %U..........s115
0A00: 45 09 80 F0 FF FF 7F F0  FF FF 7F 6F 76 6C 31 0A  E..........ovl1.
0A10: 80 03 02 10 87 7F 02 02  10 32 80 00 32 0A 45 0D  .........2..2.E.
0A20: 80 F0 FF FF 7F F0 FF FF  7F 73 31 34 38 0A 80 01  .........s148...
0A30: 5F 0A 02 02 10 33 80 00  4E 0A 45 0D 80 F0 FF FF  _....3..N.E.....
0A40: 7F F0 FF FF 7F 73 31 34  38 0A 80 01 5F 0A 45 0D  .....s148..._.E.
0A50: 80 F0 FF FF 7F F0 FF FF  7F 73 31 31 36 0A 80 1C  .........s116...
0A60: 37 80 4A F0 FF FF 7F 76  10 0F 01 79 00 76 10 0F  7.J....v...y.v..
0A70: 01 F0 FF FF 7F 29 0B 76  10 0F 01 2A 02 02 10 32  .....).v...*...2
0A80: 80 00 96 0A 52 0D 80 F0  FF FF 7F F0 FF FF 7F 73  ....R..........s
0A90: 31 34 38 01 BF 0A 02 02  10 33 80 00 B0 0A 52 0D  148......3....R.
0AA0: 80 F0 FF FF 7F F0 FF FF  7F 73 31 34 38 01 BF 0A  .........s148...
0AB0: 52 0D 80 F0 FF FF 7F F0  FF FF 7F 73 31 31 36 45  R..........s116E
0AC0: 0D 80 F0 FF FF 7F F0 FF  FF 7F 73 30 37 37 0A 80  ..........s077..
0AD0: 29 0B 76 10 0F 01 2B 5D  0A 80 09 80 45 09 80 F0  ).v...+]....E...
0AE0: FF FF 7F F0 FF FF 7F 66  64 6F 31 0A 80 1C 09 80  .......fdo1.....
0AF0: 2A 0B DD 10 0F 01 52 0D  80 F0 FF FF 7F F0 FF FF  *.....R.........
0B00: 7F 73 30 37 38 5C 00 20  80 5C 01 20 80 5D 1E 80  .s078\. .\. .]..
0B10: 1F 80 46 00 45 09 80 F0  FF FF 7F F0 FF FF 7F 66  ..F.E..........f
0B20: 64 69 31 0A 80 45 17 80  F0 FF FF 7F F0 FF FF 7F  di1..E..........
0B30: 71 73 74 63 0A 80 20 00  21 00                    qstc.. .!.      
```

#### Opcodes

```
  0: 0x0528 [0x20] SET_CLI_EVENT_UC_FLAG: Lock player control
  1: 0x052A [0x42] SET_CLI_EVENT_CANCEL_DATA()
  2: 0x052B [0x46] CAMERA_CONTROL: Disable user control
  3: 0x052D [0x5D] SET_MUSIC_VOLUME(volume=0*, fade_time=200*)
  4: 0x0532 [0x45] LOAD_SCHEDULED_TASK: Load scheduler "fdo1" with entities [LocalPlayer, LocalPlayer], work=[200*, 0*]
  5: 0x0543 [0x1C] WAIT(200* ticks)
  6: 0x0546 [0x38] SET_CLIENT_EVENT_MODE(mode=3*)
  7: 0x0549 [0x29] REQ_SET_WAIT(priority=0x0B, entity_id=LocalPlayer, tag_num=0x36)
  8: 0x0550 [0x4E] SET_ENTITY_HIDE_FLAG: Show Shikaree M (ID: 17764574/0x010F10DE)
  9: 0x0556 [0x80] LOAD_WAIT(entity=Shikaree M (ID: 17764574/0x010F10DE))
 10: 0x055B [0x45] LOAD_SCHEDULED_TASK: Load scheduler "s077" with entities [LocalPlayer, LocalPlayer], work=[141*, 0*]
 11: 0x056C [0x45] LOAD_SCHEDULED_TASK: Load scheduler "fdi1" with entities [LocalPlayer, LocalPlayer], work=[200*, 0*]
 12: 0x057D [0x29] REQ_SET_WAIT(priority=0x0B, entity_id=Perih Vashai (ID: 17764470/0x010F1076), tag_num=0x23)
 13: 0x0584 [0x1C] WAIT(80* ticks)
 14: 0x0587 [0x79] Perih Vashai (ID: 17764470/0x010F1076) looks at Shikaree M (ID: 17764574/0x010F10DE) (Basic look)
 15: 0x0591 [0x2B] Perih Vashai (ID: 17764470/0x010F1076) [8927*]:
    → "...Just a moment... That prrresence..."
 16: 0x0598 [0x23] WAIT_FOR_DIALOG_INTERACTION
 17: 0x0599 [0x5C] MUSIC_CONTROL: Set Idle (Day) music to song 161*
 18: 0x059D [0x5C] MUSIC_CONTROL: Set Idle (Night) music to song 161*
 19: 0x05A1 [0x5D] SET_MUSIC_VOLUME(volume=127*, fade_time=1*)
 20: 0x05A6 [0x27] REQ_SET(priority=0x0B, entity_id=Shikaree M (ID: 17764574/0x010F10DE), tag_num=0x07)
 21: 0x05AD [0x1C] WAIT(10* ticks)
 22: 0x05B0 [0x52] END_LOAD_SCHEDULER: End scheduler "s077" with entities [LocalPlayer, LocalPlayer], work=141*
 23: 0x05BF [0x45] LOAD_SCHEDULED_TASK: Load scheduler "s104" with entities [LocalPlayer, LocalPlayer], work=[141*, 0*]
 24: 0x05D0 [0x29] REQ_SET_WAIT(priority=0x0B, entity_id=LocalPlayer, tag_num=0x39)
 25: 0x05D7 [0x4B] UPDATE_ENTITY_YAW(entity=LocalPlayer, yaw=11.5°*)
 26: 0x05DE [0x79] LocalPlayer looks at Shikaree M (ID: 17764574/0x010F10DE) (Basic look)
 27: 0x05E8 [0x1C] WAIT(120* ticks)
 28: 0x05EB [0x52] END_LOAD_SCHEDULER: End scheduler "s104" with entities [LocalPlayer, LocalPlayer], work=141*
 29: 0x05FA [0x45] LOAD_SCHEDULED_TASK: Load scheduler "ovl1" with entities [LocalPlayer, LocalPlayer], work=[200*, 0*]
 30: 0x060B [0x45] LOAD_SCHEDULED_TASK: Load scheduler "s105" with entities [LocalPlayer, LocalPlayer], work=[141*, 0*]
 31: 0x061C [0x1C] WAIT(150* ticks)
 32: 0x061F [0x52] END_LOAD_SCHEDULER: End scheduler "s105" with entities [LocalPlayer, LocalPlayer], work=141*
 33: 0x062E [0x45] LOAD_SCHEDULED_TASK: Load scheduler "ovl1" with entities [LocalPlayer, LocalPlayer], work=[200*, 0*]
 34: 0x063F [0x45] LOAD_SCHEDULED_TASK: Load scheduler "s106" with entities [LocalPlayer, LocalPlayer], work=[141*, 0*]
 35: 0x0650 [0x2B] Shikaree M (ID: 17764574/0x010F10DE) [8928*]:
    → "Chieftainness Perih Vashai, I apologize for this interruption."
 36: 0x0657 [0x23] WAIT_FOR_DIALOG_INTERACTION
 37: 0x0658 [0x29] REQ_SET_WAIT(priority=0x0B, entity_id=Perih Vashai (ID: 17764470/0x010F1076), tag_num=0x24)
 38: 0x065F [0x52] END_LOAD_SCHEDULER: End scheduler "s106" with entities [LocalPlayer, LocalPlayer], work=141*
 39: 0x066E [0x45] LOAD_SCHEDULED_TASK: Load scheduler "s119" with entities [LocalPlayer, LocalPlayer], work=[141*, 0*]
 40: 0x067F [0x2B] Perih Vashai (ID: 17764470/0x010F1076) [8930*]:
    → "If your visit concerns the sinner's daughter, we are prrresently focusing all our efforts on finding the one who can confirm her passing."
 41: 0x0686 [0x23] WAIT_FOR_DIALOG_INTERACTION
 42: 0x0687 [0x2A] GET_REQ_LEVEL(level=11, entity_id=Shikaree M (ID: 17764574/0x010F10DE))
 43: 0x068D [0x45] LOAD_SCHEDULED_TASK: Load scheduler "s107" with entities [LocalPlayer, LocalPlayer], work=[141*, 0*]
 44: 0x069E [0x27] REQ_SET(priority=0x0B, entity_id=Shikaree M (ID: 17764574/0x010F10DE), tag_num=0x08)
 45: 0x06A5 [0x2B] Shikaree M (ID: 17764574/0x010F10DE) [8931*]:
    → "Attempt to rrreturn the past to dust if you will, but it will avail you naught. Dust is swept up by the wind, its scent carried on. The scent of my quarry."
 46: 0x06AC [0x23] WAIT_FOR_DIALOG_INTERACTION
 47: 0x06AD [0x2A] GET_REQ_LEVEL(level=11, entity_id=Shikaree M (ID: 17764574/0x010F10DE))
 48: 0x06B3 [0x52] END_LOAD_SCHEDULER: End scheduler "s107" with entities [LocalPlayer, LocalPlayer], work=141*
 49: 0x06C2 [0x45] LOAD_SCHEDULED_TASK: Load scheduler "s108" with entities [LocalPlayer, LocalPlayer], work=[141*, 0*]
 50: 0x06D3 [0x29] REQ_SET_WAIT(priority=0x0B, entity_id=Perih Vashai (ID: 17764470/0x010F1076), tag_num=0x25)
 51: 0x06DA [0x52] END_LOAD_SCHEDULER: End scheduler "s108" with entities [LocalPlayer, LocalPlayer], work=141*
 52: 0x06E9 [0x45] LOAD_SCHEDULED_TASK: Load scheduler "s109" with entities [LocalPlayer, LocalPlayer], work=[141*, 0*]
 53: 0x06FA [0x29] REQ_SET_WAIT(priority=0x0B, entity_id=Shikaree M (ID: 17764574/0x010F10DE), tag_num=0x0D)
 54: 0x0701 [0x52] END_LOAD_SCHEDULER: End scheduler "s109" with entities [LocalPlayer, LocalPlayer], work=141*
 55: 0x0710 [0x03] Work_Zone[2] = LocalPlayer->Race
 56: 0x0715 [0x02] IF !(Work_Zone[2] == 5*) GOTO 0x0731
 57: 0x071D [0x45] LOAD_SCHEDULED_TASK: Load scheduler "s149" with entities [LocalPlayer, LocalPlayer], work=[141*, 0*]
 58: 0x072E [0x01] GOTO 0x075E
 59: 0x0731 [0x02] IF !(Work_Zone[2] == 6*) GOTO 0x074D
 60: 0x0739 [0x45] LOAD_SCHEDULED_TASK: Load scheduler "s149" with entities [LocalPlayer, LocalPlayer], work=[141*, 0*]
 61: 0x074A [0x01] GOTO 0x075E
 62: 0x074D [0x45] LOAD_SCHEDULED_TASK: Load scheduler "s110" with entities [LocalPlayer, LocalPlayer], work=[141*, 0*]

SUBROUTINE_075E:
 63: 0x075E [0x79] LocalPlayer looks at Shikaree M (ID: 17764574/0x010F10DE) (Basic look)
 64: 0x0768 [0x29] REQ_SET_WAIT(priority=0x0B, entity_id=Shikaree M (ID: 17764574/0x010F10DE), tag_num=0x0E)
 65: 0x076F [0x79] LocalPlayer looks at Perih Vashai (ID: 17764470/0x010F1076) (Basic look)
 66: 0x0779 [0x29] REQ_SET_WAIT(priority=0x0B, entity_id=Perih Vashai (ID: 17764470/0x010F1076), tag_num=0x26)
 67: 0x0780 [0x02] IF !(Work_Zone[2] == 5*) GOTO 0x079A
 68: 0x0788 [0x52] END_LOAD_SCHEDULER: End scheduler "s149" with entities [LocalPlayer, LocalPlayer], work=141*
 69: 0x0797 [0x01] GOTO 0x07C3
 70: 0x079A [0x02] IF !(Work_Zone[2] == 6*) GOTO 0x07B4
 71: 0x07A2 [0x52] END_LOAD_SCHEDULER: End scheduler "s149" with entities [LocalPlayer, LocalPlayer], work=141*
 72: 0x07B1 [0x01] GOTO 0x07C3
 73: 0x07B4 [0x52] END_LOAD_SCHEDULER: End scheduler "s110" with entities [LocalPlayer, LocalPlayer], work=141*

SUBROUTINE_07C3:
 74: 0x07C3 [0x45] LOAD_SCHEDULED_TASK: Load scheduler "s111" with entities [LocalPlayer, LocalPlayer], work=[141*, 0*]
 75: 0x07D4 [0x79] LocalPlayer looks at Shikaree M (ID: 17764574/0x010F10DE) (Basic look)
 76: 0x07DE [0x27] REQ_SET(priority=0x0B, entity_id=Shikaree M (ID: 17764574/0x010F10DE), tag_num=0x09)
 77: 0x07E5 [0x4E] SET_ENTITY_HIDE_FLAG: Show Semih Lafihna (ID: 17764573/0x010F10DD)
 78: 0x07EB [0x2B] Shikaree M (ID: 17764574/0x010F10DE) [8937*]:
    → "As I'm sure you are well aware, I won't be leaving this land until I have hunted down the sinner. I will enlighten the people of the Outlands on the evils of hiding sin."
 79: 0x07F2 [0x23] WAIT_FOR_DIALOG_INTERACTION
 80: 0x07F3 [0x2A] GET_REQ_LEVEL(level=11, entity_id=Shikaree M (ID: 17764574/0x010F10DE))
 81: 0x07F9 [0x80] LOAD_WAIT(entity=Semih Lafihna (ID: 17764573/0x010F10DD))
 82: 0x07FE [0x79] Semih Lafihna (ID: 17764573/0x010F10DD) looks at Shikaree M (ID: 17764574/0x010F10DE) (Basic look)
 83: 0x0808 [0x52] END_LOAD_SCHEDULER: End scheduler "s111" with entities [LocalPlayer, LocalPlayer], work=141*
 84: 0x0817 [0x45] LOAD_SCHEDULED_TASK: Load scheduler "s112" with entities [LocalPlayer, LocalPlayer], work=[141*, 0*]
 85: 0x0828 [0x27] REQ_SET(priority=0x0B, entity_id=Shikaree M (ID: 17764574/0x010F10DE), tag_num=0x0A)
 86: 0x082F [0x27] REQ_SET(priority=0x0B, entity_id=Semih Lafihna (ID: 17764573/0x010F10DD), tag_num=0x23)
 87: 0x0836 [0x1C] WAIT(120* ticks)
 88: 0x0839 [0x79] LocalPlayer looks at Semih Lafihna (ID: 17764573/0x010F10DD) (Basic look)
 89: 0x0843 [0x5D] SET_MUSIC_VOLUME(volume=0*, fade_time=200*)
 90: 0x0848 [0x45] LOAD_SCHEDULED_TASK: Load scheduler "fdo1" with entities [LocalPlayer, LocalPlayer], work=[200*, 0*]
 91: 0x0859 [0x1C] WAIT(200* ticks)
 92: 0x085C [0x7B] Semih Lafihna (ID: 17764573/0x010F10DD) stops talking
 93: 0x0861 [0x7B] Perih Vashai (ID: 17764470/0x010F1076) stops talking
 94: 0x0866 [0x2A] GET_REQ_LEVEL(level=11, entity_id=Semih Lafihna (ID: 17764573/0x010F10DD))
 95: 0x086C [0x2A] GET_REQ_LEVEL(level=11, entity_id=Shikaree M (ID: 17764574/0x010F10DE))
 96: 0x0872 [0x5C] MUSIC_CONTROL: Set Idle (Day) music to song 159*
 97: 0x0876 [0x5C] MUSIC_CONTROL: Set Idle (Night) music to song 159*
 98: 0x087A [0x5D] SET_MUSIC_VOLUME(volume=127*, fade_time=1*)
 99: 0x087F [0x52] END_LOAD_SCHEDULER: End scheduler "s112" with entities [LocalPlayer, LocalPlayer], work=141*
100: 0x088E [0x27] REQ_SET(priority=0x0B, entity_id=Semih Lafihna (ID: 17764573/0x010F10DD), tag_num=0x24)
101: 0x0895 [0x1C] WAIT(20* ticks)
102: 0x0898 [0x45] LOAD_SCHEDULED_TASK: Load scheduler "s117" with entities [LocalPlayer, LocalPlayer], work=[141*, 0*]
103: 0x08A9 [0x45] LOAD_SCHEDULED_TASK: Load scheduler "fdi1" with entities [LocalPlayer, LocalPlayer], work=[200*, 0*]
104: 0x08BA [0x2B] Semih Lafihna (ID: 17764573/0x010F10DD) [8938*]:
    → "Chieftainness Perih Vashai!"
105: 0x08C1 [0x23] WAIT_FOR_DIALOG_INTERACTION
106: 0x08C2 [0x2A] GET_REQ_LEVEL(level=11, entity_id=Semih Lafihna (ID: 17764573/0x010F10DD))
107: 0x08C8 [0x79] Semih Lafihna (ID: 17764573/0x010F10DD) looks at Shikaree M (ID: 17764574/0x010F10DE) (Basic look)
108: 0x08D2 [0x29] REQ_SET_WAIT(priority=0x0B, entity_id=Semih Lafihna (ID: 17764573/0x010F10DD), tag_num=0x26)
109: 0x08D9 [0x52] END_LOAD_SCHEDULER: End scheduler "s117" with entities [LocalPlayer, LocalPlayer], work=141*
110: 0x08E8 [0x45] LOAD_SCHEDULED_TASK: Load scheduler "s077" with entities [LocalPlayer, LocalPlayer], work=[141*, 0*]
111: 0x08F9 [0x29] REQ_SET_WAIT(priority=0x0B, entity_id=Perih Vashai (ID: 17764470/0x010F1076), tag_num=0x27)
112: 0x0900 [0x52] END_LOAD_SCHEDULER: End scheduler "s077" with entities [LocalPlayer, LocalPlayer], work=141*
113: 0x090F [0x45] LOAD_SCHEDULED_TASK: Load scheduler "s113" with entities [LocalPlayer, LocalPlayer], work=[141*, 0*]
114: 0x0920 [0x29] REQ_SET_WAIT(priority=0x0B, entity_id=Semih Lafihna (ID: 17764573/0x010F10DD), tag_num=0x27)
115: 0x0927 [0x29] REQ_SET_WAIT(priority=0x0B, entity_id=Perih Vashai (ID: 17764470/0x010F1076), tag_num=0x28)
116: 0x092E [0x52] END_LOAD_SCHEDULER: End scheduler "s113" with entities [LocalPlayer, LocalPlayer], work=141*
117: 0x093D [0x45] LOAD_SCHEDULED_TASK: Load scheduler "s078" with entities [LocalPlayer, LocalPlayer], work=[141*, 0*]
118: 0x094E [0x29] REQ_SET_WAIT(priority=0x0B, entity_id=Semih Lafihna (ID: 17764573/0x010F10DD), tag_num=0x28)
119: 0x0955 [0x52] END_LOAD_SCHEDULER: End scheduler "s078" with entities [LocalPlayer, LocalPlayer], work=141*
120: 0x0964 [0x45] LOAD_SCHEDULED_TASK: Load scheduler "s108" with entities [LocalPlayer, LocalPlayer], work=[141*, 0*]
121: 0x0975 [0x4A] LocalPlayer looks at Semih Lafihna (ID: 17764573/0x010F10DD)
122: 0x097E [0x29] REQ_SET_WAIT(priority=0x0B, entity_id=Perih Vashai (ID: 17764470/0x010F1076), tag_num=0x29)
123: 0x0985 [0x6F] WAIT_FRAME_DELAY: Yield until WaitTime reaches zero
124: 0x0986 [0x76] CHECK_ENTITY_RENDER_FLAGS: Wait until LocalPlayer Render.Flags0 and Render.Flags3 conditions are met
125: 0x098B [0x45] LOAD_SCHEDULED_TASK: Load scheduler "s118" with entities [LocalPlayer, LocalPlayer], work=[141*, 0*]
126: 0x099C [0x29] REQ_SET_WAIT(priority=0x0B, entity_id=Semih Lafihna (ID: 17764573/0x010F10DD), tag_num=0x29)
127: 0x09A3 [0x52] END_LOAD_SCHEDULER: End scheduler "s118" with entities [LocalPlayer, LocalPlayer], work=141*
128: 0x09B2 [0x45] LOAD_SCHEDULED_TASK: Load scheduler "s114" with entities [LocalPlayer, LocalPlayer], work=[141*, 0*]
129: 0x09C3 [0x29] REQ_SET_WAIT(priority=0x0B, entity_id=Semih Lafihna (ID: 17764573/0x010F10DD), tag_num=0x2A)
130: 0x09CA [0x52] END_LOAD_SCHEDULER: End scheduler "s114" with entities [LocalPlayer, LocalPlayer], work=141*
131: 0x09D9 [0x45] LOAD_SCHEDULED_TASK: Load scheduler "s115" with entities [LocalPlayer, LocalPlayer], work=[141*, 0*]
132: 0x09EA [0x27] REQ_SET(priority=0x0B, entity_id=Semih Lafihna (ID: 17764573/0x010F10DD), tag_num=0x25)
133: 0x09F1 [0x55] WAIT_LOAD_SCHEDULER: Wait for scheduler "s115" with entities [LocalPlayer, LocalPlayer], work=141*
134: 0x0A00 [0x45] LOAD_SCHEDULED_TASK: Load scheduler "ovl1" with entities [LocalPlayer, LocalPlayer], work=[200*, 0*]
135: 0x0A11 [0x03] Work_Zone[2] = LocalPlayer->Race
136: 0x0A16 [0x02] IF !(Work_Zone[2] == 5*) GOTO 0x0A32
137: 0x0A1E [0x45] LOAD_SCHEDULED_TASK: Load scheduler "s148" with entities [LocalPlayer, LocalPlayer], work=[141*, 0*]
138: 0x0A2F [0x01] GOTO 0x0A5F
139: 0x0A32 [0x02] IF !(Work_Zone[2] == 6*) GOTO 0x0A4E
140: 0x0A3A [0x45] LOAD_SCHEDULED_TASK: Load scheduler "s148" with entities [LocalPlayer, LocalPlayer], work=[141*, 0*]
141: 0x0A4B [0x01] GOTO 0x0A5F
142: 0x0A4E [0x45] LOAD_SCHEDULED_TASK: Load scheduler "s116" with entities [LocalPlayer, LocalPlayer], work=[141*, 0*]

SUBROUTINE_0A5F:
143: 0x0A5F [0x1C] WAIT(100* ticks)
144: 0x0A62 [0x4A] LocalPlayer looks at Perih Vashai (ID: 17764470/0x010F1076)
145: 0x0A6B [0x79] Perih Vashai (ID: 17764470/0x010F1076) looks at LocalPlayer (Basic look)
146: 0x0A75 [0x29] REQ_SET_WAIT(priority=0x0B, entity_id=Perih Vashai (ID: 17764470/0x010F1076), tag_num=0x2A)
147: 0x0A7C [0x02] IF !(Work_Zone[2] == 5*) GOTO 0x0A96
148: 0x0A84 [0x52] END_LOAD_SCHEDULER: End scheduler "s148" with entities [LocalPlayer, LocalPlayer], work=141*
149: 0x0A93 [0x01] GOTO 0x0ABF
150: 0x0A96 [0x02] IF !(Work_Zone[2] == 6*) GOTO 0x0AB0
151: 0x0A9E [0x52] END_LOAD_SCHEDULER: End scheduler "s148" with entities [LocalPlayer, LocalPlayer], work=141*
152: 0x0AAD [0x01] GOTO 0x0ABF
153: 0x0AB0 [0x52] END_LOAD_SCHEDULER: End scheduler "s116" with entities [LocalPlayer, LocalPlayer], work=141*

SUBROUTINE_0ABF:
154: 0x0ABF [0x45] LOAD_SCHEDULED_TASK: Load scheduler "s077" with entities [LocalPlayer, LocalPlayer], work=[141*, 0*]
155: 0x0AD0 [0x29] REQ_SET_WAIT(priority=0x0B, entity_id=Perih Vashai (ID: 17764470/0x010F1076), tag_num=0x2B)
156: 0x0AD7 [0x5D] SET_MUSIC_VOLUME(volume=0*, fade_time=200*)
157: 0x0ADC [0x45] LOAD_SCHEDULED_TASK: Load scheduler "fdo1" with entities [LocalPlayer, LocalPlayer], work=[200*, 0*]
158: 0x0AED [0x1C] WAIT(200* ticks)
159: 0x0AF0 [0x2A] GET_REQ_LEVEL(level=11, entity_id=Semih Lafihna (ID: 17764573/0x010F10DD))
160: 0x0AF6 [0x52] END_LOAD_SCHEDULER: End scheduler "s078" with entities [LocalPlayer, LocalPlayer], work=141*
161: 0x0B05 [0x5C] MUSIC_CONTROL: Set Idle (Day) music to song 151*
162: 0x0B09 [0x5C] MUSIC_CONTROL: Set Idle (Night) music to song 151*
163: 0x0B0D [0x5D] SET_MUSIC_VOLUME(volume=127*, fade_time=1*)
164: 0x0B12 [0x46] CAMERA_CONTROL: Restore default settings
165: 0x0B14 [0x45] LOAD_SCHEDULED_TASK: Load scheduler "fdi1" with entities [LocalPlayer, LocalPlayer], work=[200*, 0*]
166: 0x0B25 [0x45] LOAD_SCHEDULED_TASK: Load scheduler "qstc" with entities [LocalPlayer, LocalPlayer], work=[201*, 0*]
167: 0x0B36 [0x20] SET_CLI_EVENT_UC_FLAG: Unlock player control
168: 0x0B38 [0x21] END_EVENT
169: 0x0B39 [0x00] END_REQSTACK()
```

### Event 65535.24

#### Metadata

| Field        | Value   |
|--------------|---------|
| Entrypoint   | 0x0B3A  |
| Data Size    | 5 bytes |
| Instructions | 3       |

```
      00 01 02 03 04 05 06 07  08 09 0A 0B 0C 0D 0E 0F
      -- -- -- -- -- -- -- --  -- -- -- -- -- -- -- --
0B30:                                1D 38 80 23 00               .8.#. 
```

#### Opcodes

```
  0: 0x0B3A [0x1D] PRINT_EVENT_MESSAGE(message_id=8926*)
    → "I see you were able to find Semih Lafihna..."
  1: 0x0B3D [0x23] WAIT_FOR_DIALOG_INTERACTION
  2: 0x0B3E [0x00] END_REQSTACK()
```

### Event 65535.25

#### Metadata

| Field        | Value    |
|--------------|----------|
| Entrypoint   | 0x0B3F   |
| Data Size    | 19 bytes |
| Instructions | 5        |

```
      00 01 02 03 04 05 06 07  08 09 0A 0B 0C 0D 0E 0F
      -- -- -- -- -- -- -- --  -- -- -- -- -- -- -- --
0B30:                                               29                 )
0B40: 08 76 10 0F 01 01 1D 39  80 23 29 08 76 10 0F 01  .v.....9.#).v...
0B50: 02 00                                             ..              
```

#### Opcodes

```
  0: 0x0B3F [0x29] REQ_SET_WAIT(priority=0x08, entity_id=Perih Vashai (ID: 17764470/0x010F1076), tag_num=0x01)
  1: 0x0B46 [0x1D] PRINT_EVENT_MESSAGE(message_id=8929*)
    → "...You are the Mithran Tracker, I prrresume?"
  2: 0x0B49 [0x23] WAIT_FOR_DIALOG_INTERACTION
  3: 0x0B4A [0x29] REQ_SET_WAIT(priority=0x08, entity_id=Perih Vashai (ID: 17764470/0x010F1076), tag_num=0x02)
  4: 0x0B51 [0x00] END_REQSTACK()
```

### Event 65535.26

#### Metadata

| Field        | Value   |
|--------------|---------|
| Entrypoint   | 0x0B52  |
| Data Size    | 5 bytes |
| Instructions | 3       |

```
      00 01 02 03 04 05 06 07  08 09 0A 0B 0C 0D 0E 0F
      -- -- -- -- -- -- -- --  -- -- -- -- -- -- -- --
0B50:       1D 3A 80 23 00                                .:.#.         
```

#### Opcodes

```
  0: 0x0B52 [0x1D] PRINT_EVENT_MESSAGE(message_id=8932*)
    → "I will tell you once morrre. I have no rrreason to hide the past. The bearer of the bow does not oppose the trrruth."
  1: 0x0B55 [0x23] WAIT_FOR_DIALOG_INTERACTION
  2: 0x0B56 [0x00] END_REQSTACK()
```

### Event 65535.27

#### Metadata

| Field        | Value    |
|--------------|----------|
| Entrypoint   | 0x0B57   |
| Data Size    | 17 bytes |
| Instructions | 5        |

```
      00 01 02 03 04 05 06 07  08 09 0A 0B 0C 0D 0E 0F
      -- -- -- -- -- -- -- --  -- -- -- -- -- -- -- --
0B50:                      7C  00 F8 FF FF 7F 1D 3B 80         |......;.
0B60: 23 7C 01 F8 FF FF 7F 00                           #|......        
```

#### Opcodes

```
  0: 0x0B57 [0x7C] EventEntity->Render.Flags2 |= 0x00
  1: 0x0B5D [0x1D] PRINT_EVENT_MESSAGE(message_id=8936*)
    → "......"
  2: 0x0B60 [0x23] WAIT_FOR_DIALOG_INTERACTION
  3: 0x0B61 [0x7C] EventEntity->Render.Flags2 |= 0x01
  4: 0x0B67 [0x00] END_REQSTACK()
```

### Event 65535.28

#### Metadata

| Field        | Value    |
|--------------|----------|
| Entrypoint   | 0x0B68   |
| Data Size    | 19 bytes |
| Instructions | 5        |

```
      00 01 02 03 04 05 06 07  08 09 0A 0B 0C 0D 0E 0F
      -- -- -- -- -- -- -- --  -- -- -- -- -- -- -- --
0B60:                          29 08 76 10 0F 01 01 1D          ).v.....
0B70: 3C 80 23 29 08 76 10 0F  01 02 00                 <.#).v.....     
```

#### Opcodes

```
  0: 0x0B68 [0x29] REQ_SET_WAIT(priority=0x08, entity_id=Perih Vashai (ID: 17764470/0x010F1076), tag_num=0x01)
  1: 0x0B6F [0x1D] PRINT_EVENT_MESSAGE(message_id=8940*)
    → "Yes, but do not seek to hinder her. She is here to see justice done, and serves nature as we do."
  2: 0x0B72 [0x23] WAIT_FOR_DIALOG_INTERACTION
  3: 0x0B73 [0x29] REQ_SET_WAIT(priority=0x08, entity_id=Perih Vashai (ID: 17764470/0x010F1076), tag_num=0x02)
  4: 0x0B7A [0x00] END_REQSTACK()
```

### Event 65535.29

#### Metadata

| Field        | Value   |
|--------------|---------|
| Entrypoint   | 0x0B7B  |
| Data Size    | 5 bytes |
| Instructions | 3       |

```
      00 01 02 03 04 05 06 07  08 09 0A 0B 0C 0D 0E 0F
      -- -- -- -- -- -- -- --  -- -- -- -- -- -- -- --
0B70:                                   1D 3D 80 23 00             .=.#.
```

#### Opcodes

```
  0: 0x0B7B [0x1D] PRINT_EVENT_MESSAGE(message_id=8942*)
    → "Do you doubt it...? I see, you were questioned by the Tracker."
  1: 0x0B7E [0x23] WAIT_FOR_DIALOG_INTERACTION
  2: 0x0B7F [0x00] END_REQSTACK()
```

### Event 65535.30

#### Metadata

| Field        | Value    |
|--------------|----------|
| Entrypoint   | 0x0B80   |
| Data Size    | 17 bytes |
| Instructions | 5        |

```
      00 01 02 03 04 05 06 07  08 09 0A 0B 0C 0D 0E 0F
      -- -- -- -- -- -- -- --  -- -- -- -- -- -- -- --
0B80: 7C 00 F8 FF FF 7F 1D 3E  80 23 7C 01 F8 FF FF 7F  |......>.#|.....
0B90: 00                                                .               
```

#### Opcodes

```
  0: 0x0B80 [0x7C] EventEntity->Render.Flags2 |= 0x00
  1: 0x0B86 [0x1D] PRINT_EVENT_MESSAGE(message_id=8945*)
    → "......"
  2: 0x0B89 [0x23] WAIT_FOR_DIALOG_INTERACTION
  3: 0x0B8A [0x7C] EventEntity->Render.Flags2 |= 0x01
  4: 0x0B90 [0x00] END_REQSTACK()
```

### Event 65535.31

#### Metadata

| Field        | Value   |
|--------------|---------|
| Entrypoint   | 0x0B91  |
| Data Size    | 9 bytes |
| Instructions | 5       |

```
