# 17764724

## Common Data

| Field            | Value                    |
|------------------|--------------------------|
| Zone             | Windurst Woods (ID: 241) |
| Block Size       | 148 bytes                |
| Total Events     | 5                        |
| References Count | 11                       |

## List of Events

| Event ID                 | Entrypoint   |   Size |   Instructions |
|--------------------------|--------------|--------|----------------|
| [65535](#event-65535)    | 0x0000       |      1 |              1 |
| [801](#event-801)        | 0x0001       |      1 |              1 |
| [65535.1](#event-655351) | 0x0002       |     21 |              5 |
| [65535.2](#event-655352) | 0x0017       |     21 |              5 |
| [65535.3](#event-655353) | 0x002C       |     21 |              5 |

## DAT References (imed_data)

|   Index | Hex Value   |   Dec Value |
|---------|-------------|-------------|
|       0 | 0x0050      |          80 |
|       1 | 0xFFFFFDB6  |  4294966710 |
|       2 | 0xFFFECD0A  |  4294888714 |
|       3 | 0x0BB7      |        2999 |
|       4 | 0x0CD9      |        3289 |
|       5 | 0x03C1      |         961 |
|       6 | 0xFFFECB68  |  4294888296 |
|       7 | 0x0CFE      |        3326 |
|       8 | 0xFFFFF6CC  |  4294964940 |
|       9 | 0xFFFECF4C  |  4294889292 |
|      10 | 0x0C8E      |        3214 |

## Events

### Event 65535

#### Metadata

| Field        | Value   |
|--------------|---------|
| Entrypoint   | 0x0000  |
| Data Size    | 1 bytes |
| Instructions | 1       |

```
      00 01 02 03 04 05 06 07  08 09 0A 0B 0C 0D 0E 0F
      -- -- -- -- -- -- -- --  -- -- -- -- -- -- -- --
0000: 00                                                .               
```

#### Opcodes

```
  0: 0x0000 [0x00] END_REQSTACK()
```

### Event 801

#### Metadata

| Field        | Value   |
|--------------|---------|
| Entrypoint   | 0x0001  |
| Data Size    | 1 bytes |
| Instructions | 1       |

```
      00 01 02 03 04 05 06 07  08 09 0A 0B 0C 0D 0E 0F
      -- -- -- -- -- -- -- --  -- -- -- -- -- -- -- --
0000:    00                                              .              
```

#### Opcodes

```
  0: 0x0001 [0x00] END_REQSTACK()
```

### Event 65535.1

#### Metadata

| Field        | Value    |
|--------------|----------|
| Entrypoint   | 0x0002   |
| Data Size    | 21 bytes |
| Instructions | 5        |

```
      00 01 02 03 04 05 06 07  08 09 0A 0B 0C 0D 0E 0F
      -- -- -- -- -- -- -- --  -- -- -- -- -- -- -- --
0000:       32 00 80 1F 00 01  80 02 80 03 80 1F 01 4B    2............K
0010: 74 11 0F 01 04 80 00                              t......         
```

#### Opcodes

```
  0: 0x0002 [0x32] ExtData[1]->MainSpeed = 80* * 0.1
  1: 0x0005 [0x1F] MOVE_ENTITY: EventEntity moves to X=-0.586*, Z=-78.582*, Y=2.999*
  2: 0x000D [0x1F] MOVE_ENTITY: Update entity position (mode=1)
  3: 0x000F [0x4B] UPDATE_ENTITY_YAW(entity=Unnamed NPC (ID: 17764724/0x010F1174), yaw=18.1°*)
  4: 0x0016 [0x00] END_REQSTACK()
```

### Event 65535.2

#### Metadata

| Field        | Value    |
|--------------|----------|
| Entrypoint   | 0x0017   |
| Data Size    | 21 bytes |
| Instructions | 5        |

```
      00 01 02 03 04 05 06 07  08 09 0A 0B 0C 0D 0E 0F
      -- -- -- -- -- -- -- --  -- -- -- -- -- -- -- --
0010:                      32  00 80 1F 00 05 80 06 80         2........
0020: 03 80 1F 01 4B 74 11 0F  01 07 80 00              ....Kt......    
```

#### Opcodes

```
  0: 0x0017 [0x32] ExtData[1]->MainSpeed = 80* * 0.1
  1: 0x001A [0x1F] MOVE_ENTITY: EventEntity moves to X=0.961*, Z=-79.000*, Y=2.999*
  2: 0x0022 [0x1F] MOVE_ENTITY: Update entity position (mode=1)
  3: 0x0024 [0x4B] UPDATE_ENTITY_YAW(entity=Unnamed NPC (ID: 17764724/0x010F1174), yaw=18.3°*)
  4: 0x002B [0x00] END_REQSTACK()
```

### Event 65535.3

#### Metadata

| Field        | Value    |
|--------------|----------|
| Entrypoint   | 0x002C   |
| Data Size    | 21 bytes |
| Instructions | 5        |

```
      00 01 02 03 04 05 06 07  08 09 0A 0B 0C 0D 0E 0F
      -- -- -- -- -- -- -- --  -- -- -- -- -- -- -- --
0020:                                      32 00 80 1F              2...
0030: 00 08 80 09 80 03 80 1F  01 4B 74 11 0F 01 0A 80  .........Kt.....
0040: 00                                                .               
```

#### Opcodes

```
  0: 0x002C [0x32] ExtData[1]->MainSpeed = 80* * 0.1
  1: 0x002F [0x1F] MOVE_ENTITY: EventEntity moves to X=-2.356*, Z=-78.004*, Y=2.999*
  2: 0x0037 [0x1F] MOVE_ENTITY: Update entity position (mode=1)
  3: 0x0039 [0x4B] UPDATE_ENTITY_YAW(entity=Unnamed NPC (ID: 17764724/0x010F1174), yaw=17.7°*)
  4: 0x0040 [0x00] END_REQSTACK()
```
