# 17764728

## Common Data

| Field            | Value                    |
|------------------|--------------------------|
| Zone             | Windurst Woods (ID: 241) |
| Block Size       | 336 bytes                |
| Total Events     | 3                        |
| References Count | 20                       |

## List of Events

| Event ID                 | Entrypoint   |   Size |   Instructions |
|--------------------------|--------------|--------|----------------|
| [65535](#event-65535)    | 0x0000       |      1 |              1 |
| [801](#event-801)        | 0x0001       |      3 |              2 |
| [65535.1](#event-655351) | 0x0004       |    224 |             42 |

## DAT References (imed_data)

|   Index | Hex Value   |   Dec Value |
|---------|-------------|-------------|
|       0 | 0x0000      |           0 |
|       1 | 0x0001      |           1 |
|       2 | 0x0078      |         120 |
|       3 | 0x0002      |           2 |
|       4 | 0x005A      |          90 |
|       5 | 0x0096      |         150 |
|       6 | 0x001E      |          30 |
|       7 | 0x0028      |          40 |
|       8 | 0x0032      |          50 |
|       9 | 0x000A      |          10 |
|      10 | 0x000C      |          12 |
|      11 | 0xFFFFFFCA  |  4294967242 |
|      12 | 0xFFFED290  |  4294890128 |
|      13 | 0x0BB7      |        2999 |
|      14 | 0x00E0      |         224 |
|      15 | 0xFFFFFC61  |  4294966369 |
|      16 | 0xFFFEC956  |  4294887766 |
|      17 | 0x0620      |        1568 |
|      18 | 0xFFFEE5C9  |  4294895049 |
|      19 | 0x0478      |        1144 |

## Events

### Event 65535

#### Metadata

| Field        | Value   |
|--------------|---------|
| Entrypoint   | 0x0000  |
| Data Size    | 1 bytes |
| Instructions | 1       |

```
      00 01 02 03 04 05 06 07  08 09 0A 0B 0C 0D 0E 0F
      -- -- -- -- -- -- -- --  -- -- -- -- -- -- -- --
0000: 00                                                .               
```

#### Opcodes

```
  0: 0x0000 [0x00] END_REQSTACK()
```

### Event 801

#### Metadata

| Field        | Value   |
|--------------|---------|
| Entrypoint   | 0x0001  |
| Data Size    | 3 bytes |
| Instructions | 2       |

```
      00 01 02 03 04 05 06 07  08 09 0A 0B 0C 0D 0E 0F
      -- -- -- -- -- -- -- --  -- -- -- -- -- -- -- --
0000:    61 00 00                                        a..            
```

#### Opcodes

```
  0: 0x0001 [0x61] EventEntity->Render.Flags2 &= ~0x00000001
  1: 0x0003 [0x00] END_REQSTACK()
```

### Event 65535.1

#### Metadata

| Field        | Value     |
|--------------|-----------|
| Entrypoint   | 0x0004    |
| Data Size    | 224 bytes |
| Instructions | 42        |

```
      00 01 02 03 04 05 06 07  08 09 0A 0B 0C 0D 0E 0F
      -- -- -- -- -- -- -- --  -- -- -- -- -- -- -- --
0000:             02 50 10 00  80 00 E3 00 02 56 10 01      .P.......V..
0010: 80 00 17 00 1C 02 80 13  00 00 03 80 02 58 10 00  .............X..
0020: 80 00 51 00 02 00 00 00  80 80 32 00 1C 04 80 01  ..Q.......2.....
0030: 4E 00 02 00 00 01 80 80  40 00 1C 02 80 01 4E 00  N.......@.....N.
0040: 02 00 00 03 80 80 4E 00  1C 05 80 01 4E 00 01 7B  ......N.....N..{
0050: 00 02 00 00 00 80 80 5F  00 1C 06 80 01 7B 00 02  ......._.....{..
0060: 00 00 01 80 80 6D 00 1C  07 80 01 7B 00 02 00 00  .....m.....{....
0070: 03 80 80 7B 00 1C 08 80  01 7B 00 27 05 73 11 0F  ...{.....{.'.s..
0080: 01 05 02 58 10 00 80 00  90 00 32 09 80 01 93 00  ...X......2.....
0090: 32 0A 80 1F 00 0B 80 0C  80 0D 80 1F 01 02 4F 10  2.............O.
00A0: 01 80 00 C4 00 02 52 10  00 80 00 C1 00 5B 0E 80  ......R......[..
00B0: 74 11 0F 01 74 11 0F 01  31 30 31 31 07 51 10 01  t...t...1011.Q..
00C0: 80 01 CE 00 1F 00 0F 80  10 80 0D 80 1F 01 BA 78  ...............x
00D0: 11 0F 01 11 80 12 80 0D  80 13 80 80 78 11 0F 01  ............x...
00E0: 01 04 00 00                                       ....            
```

#### Opcodes

```
  0: 0x0004 [0x02] IF !(Work_Zone[80] == 0*) GOTO 0x00E3
  1: 0x000C [0x02] IF !(Work_Zone[86] == 1*) GOTO 0x0017
  2: 0x0014 [0x1C] WAIT(120* ticks)
  3: 0x0017 [0x13] ExtData[1]->WorkLocal[0] = rand() % 2*
  4: 0x001C [0x02] IF !(Work_Zone[88] == 0*) GOTO 0x0051
  5: 0x0024 [0x02] IF !(ExtData[1]->WorkLocal[0] == 0*) GOTO 0x0032
  6: 0x002C [0x1C] WAIT(90* ticks)
  7: 0x002F [0x01] GOTO 0x004E
  8: 0x0032 [0x02] IF !(ExtData[1]->WorkLocal[0] == 1*) GOTO 0x0040
  9: 0x003A [0x1C] WAIT(120* ticks)
 10: 0x003D [0x01] GOTO 0x004E
 11: 0x0040 [0x02] IF !(ExtData[1]->WorkLocal[0] == 2*) GOTO 0x004E
 12: 0x0048 [0x1C] WAIT(150* ticks)
 13: 0x004B [0x01] GOTO 0x004E

SUBROUTINE_004E:
 14: 0x004E [0x01] GOTO 0x007B
 15: 0x0051 [0x02] IF !(ExtData[1]->WorkLocal[0] == 0*) GOTO 0x005F
 16: 0x0059 [0x1C] WAIT(30* ticks)
 17: 0x005C [0x01] GOTO 0x007B
 18: 0x005F [0x02] IF !(ExtData[1]->WorkLocal[0] == 1*) GOTO 0x006D
 19: 0x0067 [0x1C] WAIT(40* ticks)
 20: 0x006A [0x01] GOTO 0x007B
 21: 0x006D [0x02] IF !(ExtData[1]->WorkLocal[0] == 2*) GOTO 0x007B
 22: 0x0075 [0x1C] WAIT(50* ticks)
 23: 0x0078 [0x01] GOTO 0x007B

SUBROUTINE_007B:
 24: 0x007B [0x27] REQ_SET(priority=0x05, entity_id=Unnamed NPC (ID: 17764723/0x010F1173), tag_num=0x05)
 25: 0x0082 [0x02] IF !(Work_Zone[88] == 0*) GOTO 0x0090
 26: 0x008A [0x32] ExtData[1]->MainSpeed = 10* * 0.1
 27: 0x008D [0x01] GOTO 0x0093
 28: 0x0090 [0x32] ExtData[1]->MainSpeed = 12* * 0.1

SUBROUTINE_0093:
 29: 0x0093 [0x1F] MOVE_ENTITY: EventEntity moves to X=-0.054*, Z=-77.168*, Y=2.999*
 30: 0x009B [0x1F] MOVE_ENTITY: Update entity position (mode=1)
 31: 0x009D [0x02] IF !(Work_Zone[79] == 1*) GOTO 0x00C4
 32: 0x00A5 [0x02] IF !(Work_Zone[82] == 0*) GOTO 0x00C1
 33: 0x00AD [0x5B] LOAD_EXT_SCHEDULER: Load scheduler "1011" with entities [Unnamed NPC (ID: 17764724/0x010F1174), Unnamed NPC (ID: 17764724/0x010F1174)], work=224*
 34: 0x00BC [0x07] Work_Zone[81] += 1*
 35: 0x00C1 [0x01] GOTO 0x00CE
 36: 0x00C4 [0x1F] MOVE_ENTITY: EventEntity moves to X=-0.927*, Z=-79.530*, Y=2.999*
 37: 0x00CC [0x1F] MOVE_ENTITY: Update entity position (mode=1)

SUBROUTINE_00CE:
 38: 0x00CE [0xBA] SET_ENTITY_POSITION(entity_id=Unnamed NPC (ID: 17764728/0x010F1178), pos_x=1.568*, pos_z=-72.247*, pos_y=2.999*, direction=100.5°*)
 39: 0x00DB [0x80] LOAD_WAIT(entity=Unnamed NPC (ID: 17764728/0x010F1178))
 40: 0x00E0 [0x01] GOTO 0x0004
 41: 0x00E3 [0x00] END_REQSTACK()
```
