# 17764369 - Tih Pikeh

## Common Data

| Field            | Value                    |
|------------------|--------------------------|
| Zone             | Windurst Woods (ID: 241) |
| Block Size       | 1576 bytes               |
| Total Events     | 42                       |
| References Count | 61                       |

## List of Events

| Event ID                 | Entrypoint   |   Size |   Instructions |
|--------------------------|--------------|--------|----------------|
| [65535](#event-65535)    | 0x0000       |      1 |              1 |
| [65535.1](#event-655351) | 0x0001       |     16 |              2 |
| [65535.2](#event-655352) | 0x0011       |      1 |              1 |
| [65535.3](#event-655353) | 0x0012       |     22 |              3 |
| [65535.4](#event-655354) | 0x0028       |     14 |              2 |
| [65535.5](#event-655355) | 0x0036       |     16 |              2 |
| [65535.6](#event-655356) | 0x0046       |     20 |              3 |
| [65535.7](#event-655357) | 0x005A       |      9 |              3 |
| [106](#event-106)        | 0x0063       |     33 |             12 |
| [108](#event-108)        | 0x0084       |     29 |             10 |
| [119](#event-119)        | 0x00A1       |     33 |             12 |
| [848](#event-848)        | 0x00C2       |      1 |              1 |
| [876](#event-876)        | 0x00C3       |      1 |              1 |
| [114](#event-114)        | 0x00C4       |      1 |              1 |
| [121](#event-121)        | 0x00C5       |      1 |              1 |
| [126](#event-126)        | 0x00C6       |     33 |             12 |
| [131](#event-131)        | 0x00E7       |     40 |             13 |
| [135](#event-135)        | 0x010F       |     33 |             12 |
| [152](#event-152)        | 0x0130       |     37 |             14 |
| [156](#event-156)        | 0x0155       |     33 |             12 |
| [163](#event-163)        | 0x0176       |     33 |             12 |
| [164](#event-164)        | 0x0197       |     43 |             12 |
| [476](#event-476)        | 0x01C2       |     33 |             12 |
| [179](#event-179)        | 0x01E3       |     29 |             10 |
| [183](#event-183)        | 0x0200       |     33 |             12 |
| [189](#event-189)        | 0x0221       |     33 |             12 |
| [194](#event-194)        | 0x0242       |     33 |             12 |
| [199](#event-199)        | 0x0263       |     33 |             12 |
| [207](#event-207)        | 0x0284       |     33 |             12 |
| [212](#event-212)        | 0x02A5       |     33 |             12 |
| [215](#event-215)        | 0x02C6       |     33 |             12 |
| [594](#event-594)        | 0x02E7       |     33 |             12 |
| [559](#event-559)        | 0x0308       |     33 |             12 |
| [566](#event-566)        | 0x0329       |     47 |             14 |
| [572](#event-572)        | 0x0358       |     33 |             12 |
| [577](#event-577)        | 0x0379       |     33 |             12 |
| [582](#event-582)        | 0x039A       |     33 |             12 |
| [587](#event-587)        | 0x03BB       |     45 |             14 |
| [617](#event-617)        | 0x03E8       |     33 |             12 |
| [631](#event-631)        | 0x0409       |     33 |             12 |
| [628](#event-628)        | 0x042A       |     47 |             14 |
| [635](#event-635)        | 0x0459       |     33 |             12 |

## DAT References (imed_data)

|   Index | Hex Value   |   Dec Value |
|---------|-------------|-------------|
|       0 | 0x0032      |          50 |
|       1 | 0x001E      |          30 |
|       2 | 0x1DE9      |        7657 |
|       3 | 0x1DEA      |        7658 |
|       4 | 0x1DEC      |        7660 |
|       5 | 0x1DFD      |        7677 |
|       6 | 0x1DFE      |        7678 |
|       7 | 0x1E1E      |        7710 |
|       8 | 0x1E1F      |        7711 |
|       9 | 0x1E26      |        7718 |
|      10 | 0x1E27      |        7719 |
|      11 | 0x1E32      |        7730 |
|      12 | 0x1E33      |        7731 |
|      13 | 0x1E71      |        7793 |
|      14 | 0x1E72      |        7794 |
|      15 | 0x1E73      |        7795 |
|      16 | 0x1E7A      |        7802 |
|      17 | 0x1E7B      |        7803 |
|      18 | 0x1E8D      |        7821 |
|      19 | 0x1E8E      |        7822 |
|      20 | 0x1E8F      |        7823 |
|      21 | 0x21E8      |        8680 |
|      22 | 0x21E9      |        8681 |
|      23 | 0x1EAF      |        7855 |
|      24 | 0x1EB7      |        7863 |
|      25 | 0x1EB8      |        7864 |
|      26 | 0x1EC4      |        7876 |
|      27 | 0x1EC5      |        7877 |
|      28 | 0x1ECE      |        7886 |
|      29 | 0x1ECF      |        7887 |
|      30 | 0x1ED8      |        7896 |
|      31 | 0x1ED9      |        7897 |
|      32 | 0x1EE6      |        7910 |
|      33 | 0x1EE7      |        7911 |
|      34 | 0x1EF0      |        7920 |
|      35 | 0x1EF1      |        7921 |
|      36 | 0x1EF6      |        7926 |
|      37 | 0x1EF7      |        7927 |
|      38 | 0x24C3      |        9411 |
|      39 | 0x24C4      |        9412 |
|      40 | 0x24CD      |        9421 |
|      41 | 0x24CE      |        9422 |
|      42 | 0x24DC      |        9436 |
|      43 | 0x24DD      |        9437 |
|      44 | 0x24E7      |        9447 |
|      45 | 0x24E8      |        9448 |
|      46 | 0x24F2      |        9458 |
|      47 | 0x24F3      |        9459 |
|      48 | 0x24FF      |        9471 |
|      49 | 0x2500      |        9472 |
|      50 | 0x250A      |        9482 |
|      51 | 0x0006      |           6 |
|      52 | 0x250B      |        9483 |
|      53 | 0x256B      |        9579 |
|      54 | 0x256C      |        9580 |
|      55 | 0x25AC      |        9644 |
|      56 | 0x25AD      |        9645 |
|      57 | 0x25BF      |        9663 |
|      58 | 0x25C0      |        9664 |
|      59 | 0x25E5      |        9701 |
|      60 | 0x25E6      |        9702 |

## String References

- **7657**: How arrre you\`? I'm fine, as always...I think.
- **7658**: We've been having a spot of trouble because of those Yagudo beastmen, but Captain Rakoh Buuma's on hand, so things are underrr control...I think.
- **7660**: He\`y, you seem to be from another country...I think. If you'rrre looking for the Consulate of [San d'Oria/Bastok], then it's [in this area/west of here]...[across the Bomingo Round/in Port Windurst].
- **7677**: That Meeri-Wohri is a clumsy little nerrrvous wreck, y'know?
- **7678**: One day, I awoke from a cat nap wherrre I was having this dream about eating a Mithkabob, only to find I was chewing on the little guy's leg! I hope I didn't hurrrt him...to\`o much.
- **7710**: You'rrre not s'posed to go straight to them magical towers, y'know? You'rrre s'posed to go to the O\`rastery first...I think.
- **7711**: The Orastery is in charge of the Mage Academy, y'know? That's where the Tarutaru practice their spells all day in order to perrrfect them. It's the big building in the port area...I think.
- **7718**: Missions are all verrry well and good, but you should also try some quests too...I think!
- **7719**: Speaking to the townsfolk and trrrying to help them with their problems... It can be very beneficial, y'know!
- **7730**: Go right down that road therrre, and when you come out into the round, you'll see a larrrge building up on your right...I think. Well, that's the Manustery's Cardian workshop, y'know?
- **7731**: To find the entrances to the building, you may have to walk around the place a bit. But it's not enough to get you lost or anything...well, at least that's what I think.
- **7793**: I just don't underrrstand why the Tarutaru fear those Yagudo.
- **7794**: Like, wasn't it because of that old Shadow Lorrrd that they nearly lost the war twenty years ago?
- **7795**: With him dead and burrried, even if we were to have an all-out war with the Yagudo, we'd still come out on top...I think.
- **7802**: Grrr... You went ahead and fulfilled that mission, huh? That means we gave the lazy Yagudo nourrrishment to make them stronger...I think.
- **7803**: Captain Rakoh Buuma also disagrrrees with the Star Sibyl on this, y'know? We should just rrrefuse to hand out this mission from now on...I think.
- **7821**: You'rrre going to the library, huh? That reminds me...I have a book overdue there...I think.
- **7822**: What? You want to know what book I borrrrowed? Well, I'm not telling, so there!
- **7823**: (Don't ask me what book I took out. It's not like I actually read them... They'rrre way over my reading age.)
- **7855**: Once you accept this mission, you won't be coming back here any time soon, y'know. And just when I was almost getting to like you...I think.
- **7863**: Oh, so look who gets to meet Semih Lafihna...
- **7864**: Everyone always arrrgues over who's the better archer, Captain Rakoh Buuma or Semih Lafihna, y'know. But Captain Buuma is the best, of courrrse...well, at least that's what I think.
- **7876**: Tarutaru girls all want to become ladies-in-waiting, y'know? Like, what's wrrrong with them?
- **7877**: Perrrhaps it's similar to how little Mithra girls go through a stage where they all want to grow up to become Huntresses of the Sun...I think.
- **7886**: What's going on? What's this starrr emblem thingo? I don't underrrstand...I think.
- **7887**: Miiri-Wohri's been carrying on all excitedly there by himself, y'know? I don't get it at all!
- **7896**: Did you hearrr? Did you hearrr? Captain Rakoh Buuma was called to the Mage Academy, y'know?
- **7897**: It's an emergency situation, so the captains of each of the fourrr guardhouses were asked to assemble. Sounds like they had a secrrret meeting or something...I think.
- **7910**: What does our trrribal leader think of all this...I wonder?
- **7911**: When the emergency situation arrrose, did the Star Sibyl inform our tribal leader? ...I don't know. I hope Heavens Tower didn't give our tribal leader the cold shoulder. I'd never forrrgive them for that!
- **7920**: It's extrrremely rare for the five ministries to suddenly hold a meeting, y'know?
- **7921**: It's prrractically impossible to gather the ministers of the five ministries together, so they usually announce these things months in advance...I think.
- **7926**: The ministerrr of the Orastery just went out through that gate, y'know?
- **7927**: Maybe it has something to do with that starrr emblem letter from Heavens Tower...I think? I wonderrr what is written in those letters?
- **8680**: Come to think of it...therrre is a Mithra girl in the advanced class of the School of Magic, y'know?
- **8681**: She's the firrrst Mithra to make it into the advanced class...y'know? Someone should give herrr a pat on the back, I think.
- **9411**: Captain Rakoh Buuma was sooo angrrry, y'know? She was saying something like, "Lately the guards of Windurst Woods have rrreally been slacking off! Slacking off completely!"...I think.
- **9412**: Now that the airship route to the southern continent has been reopened, there might be some trrrouble amongst the Mithra of Windurst...I think. ...Gotta stay alert, y'know?
- **9421**: Where did she hear about it, I wonder...? Semih Lafihna, she like, totally wanted to know everything about this mission from Ajido-Marujido.
- **9422**: She seemed kinda on edge, y'know? Even Captain Buuma, who like, totally hates Semih, was like, "Oh, okay, this is what the mission is about,"...or something like that.
- **9436**: I always thought Heavens Tower just did, y'know, prophecies and stuff. But the Star Sibyl rrreally, like, lays down the law when she has to.
- **9437**: What did the Orastery minister get up to, anyway? I mean, what's under that crumbly old tower, like, y'know?
- **9447**: You know the Minister of the Manustery...Miss Apururu? She doesn't like, y'know, smile as much as she used to.
- **9448**: Even when she does smile, it's like, not rrreally a smile, y'know? I'm a girrrl, too. I know these things... I think.
- **9458**: Have you ever been to the southern continent? There are lots of, like, rrreally rrrare plants and stuff... I think.
- **9459**: We use those plants to make, y'know, medicine and weapons and stuff like that. We Mithra are, like, children of nature, y'know?
- **9471**: The Principal of the School of Magic is Professor Koru-Moru, y'know? But, like, a few years back, there was a different guy doing the job, y'know?
- **9472**: What's really weird is that you don't hear anything about that guy. Tarutaru are, like, totally into their rumors, so I thought it was kinda strange.
- **9482**: Miiri-Wohri is, like, totally freaked about this mission.
- **9483**: But even if we, like, y'know, get found out and stuff, they'll just throw us all into the dungeon for a couple of days. It'll be like a sleepover!
- **9579**: Heavens Tower is gonna, like, totally notice that the Dark Dungeon is empty at any time now.
- **9580**: We Mithra are born with, you know, a sixth sense and stuff. You can bet that Semih Lafihna's tail is totally twitching right now.
- **9644**: I just saw Ajido-Marujido leaving the Manustery in, like, full view...
- **9645**: Should he be, y'know, walking around outside and stuff? Shouldn't he be using, like, some sorta invisibility spell thingy?
- **9663**: Even though you, like, totally trrrashed the beastmen's boss guy, the Yagudo still act like they're tougher than us.
- **9664**: Something fishy's going on. It's like, the Yagudo are prrreying on our weaknesses...or something like that. You're, y'know, all important and stuff, so you should know what's going on, rrright?
- **9701**: It could be just my imagination, but I feel like, y'know, all the Mithra in Windurst have finally become united in spirrrit.
- **9702**: I also feel that we've become, like, buddies with all the little Tarutaru. And you, of course, <Player>. You're, like, my hero!

## Events

### Event 65535

#### Metadata

| Field        | Value   |
|--------------|---------|
| Entrypoint   | 0x0000  |
| Data Size    | 1 bytes |
| Instructions | 1       |

```
      00 01 02 03 04 05 06 07  08 09 0A 0B 0C 0D 0E 0F
      -- -- -- -- -- -- -- --  -- -- -- -- -- -- -- --
0000: 00                                                .               
```

#### Opcodes

```
  0: 0x0000 [0x00] END_REQSTACK()
```

### Event 65535.1

#### Metadata

| Field        | Value    |
|--------------|----------|
| Entrypoint   | 0x0001   |
| Data Size    | 16 bytes |
| Instructions | 2        |

```
      00 01 02 03 04 05 06 07  08 09 0A 0B 0C 0D 0E 0F
      -- -- -- -- -- -- -- --  -- -- -- -- -- -- -- --
0000:    66 00 80 F8 FF FF 7F  F8 FF FF 7F 74 6C 6B 30   f..........tlk0
0010: 00                                                .               
```

#### Opcodes

```
  0: 0x0001 [0x66] LOAD_EXT_SCHEDULER_MAIN: Load scheduler "tlk0" with entities [EventEntity, EventEntity], work=50*
  1: 0x0010 [0x00] END_REQSTACK()
```

### Event 65535.2

#### Metadata

| Field        | Value   |
|--------------|---------|
| Entrypoint   | 0x0011  |
| Data Size    | 1 bytes |
| Instructions | 1       |

```
      00 01 02 03 04 05 06 07  08 09 0A 0B 0C 0D 0E 0F
      -- -- -- -- -- -- -- --  -- -- -- -- -- -- -- --
0010:    00                                              .              
```

#### Opcodes

```
  0: 0x0011 [0x00] END_REQSTACK()
```

### Event 65535.3

#### Metadata

| Field        | Value    |
|--------------|----------|
| Entrypoint   | 0x0012   |
| Data Size    | 22 bytes |
| Instructions | 3        |

```
      00 01 02 03 04 05 06 07  08 09 0A 0B 0C 0D 0E 0F
      -- -- -- -- -- -- -- --  -- -- -- -- -- -- -- --
0010:       81 00 F8 FF FF 7F  66 00 80 F8 FF FF 7F F8    ......f.......
0020: FF FF 7F 74 68 6B 31 00                           ...thk1.        
```

#### Opcodes

```
  0: 0x0012 [0x81] SET_ENTITY_BLINKING(blink_flag=0x00, entity=EventEntity)
  1: 0x0018 [0x66] LOAD_EXT_SCHEDULER_MAIN: Load scheduler "thk1" with entities [EventEntity, EventEntity], work=50*
  2: 0x0027 [0x00] END_REQSTACK()
```

### Event 65535.4

#### Metadata

| Field        | Value    |
|--------------|----------|
| Entrypoint   | 0x0028   |
| Data Size    | 14 bytes |
| Instructions | 2        |

```
      00 01 02 03 04 05 06 07  08 09 0A 0B 0C 0D 0E 0F
      -- -- -- -- -- -- -- --  -- -- -- -- -- -- -- --
0020:                          53 F8 FF FF 7F F8 FF FF          S.......
0030: 7F 74 68 6B 31 00                                 .thk1.          
```

#### Opcodes

```
  0: 0x0028 [0x53] WAIT_SCHEDULER_TASK: Wait for scheduler "thk1" with entities [EventEntity, EventEntity]
  1: 0x0035 [0x00] END_REQSTACK()
```

### Event 65535.5

#### Metadata

| Field        | Value    |
|--------------|----------|
| Entrypoint   | 0x0036   |
| Data Size    | 16 bytes |
| Instructions | 2        |

```
      00 01 02 03 04 05 06 07  08 09 0A 0B 0C 0D 0E 0F
      -- -- -- -- -- -- -- --  -- -- -- -- -- -- -- --
0030:                   66 00  80 F8 FF FF 7F F8 FF FF        f.........
0040: 7F 74 68 6B 32 00                                 .thk2.          
```

#### Opcodes

```
  0: 0x0036 [0x66] LOAD_EXT_SCHEDULER_MAIN: Load scheduler "thk2" with entities [EventEntity, EventEntity], work=50*
  1: 0x0045 [0x00] END_REQSTACK()
```

### Event 65535.6

#### Metadata

| Field        | Value    |
|--------------|----------|
| Entrypoint   | 0x0046   |
| Data Size    | 20 bytes |
| Instructions | 3        |

```
      00 01 02 03 04 05 06 07  08 09 0A 0B 0C 0D 0E 0F
      -- -- -- -- -- -- -- --  -- -- -- -- -- -- -- --
0040:                   53 F8  FF FF 7F F8 FF FF 7F 74        S........t
0050: 68 6B 32 81 01 F8 FF FF  7F 00                    hk2.......      
```

#### Opcodes

```
  0: 0x0046 [0x53] WAIT_SCHEDULER_TASK: Wait for scheduler "thk2" with entities [EventEntity, EventEntity]
  1: 0x0053 [0x81] SET_ENTITY_BLINKING(blink_flag=0x01, entity=EventEntity)
  2: 0x0059 [0x00] END_REQSTACK()
```

### Event 65535.7

#### Metadata

| Field        | Value   |
|--------------|---------|
| Entrypoint   | 0x005A  |
| Data Size    | 9 bytes |
| Instructions | 3       |

```
      00 01 02 03 04 05 06 07  08 09 0A 0B 0C 0D 0E 0F
      -- -- -- -- -- -- -- --  -- -- -- -- -- -- -- --
0050:                                5E 69 64 6C 30 1C            ^idl0.
0060: 01 80 00                                          ...             
```

#### Opcodes

```
  0: 0x005A [0x5E] EventEntity goes idle (kills current action) (animation: "idl0")
  1: 0x005F [0x1C] WAIT(30* ticks)
  2: 0x0062 [0x00] END_REQSTACK()
```

### Event 106

#### Metadata

| Field        | Value    |
|--------------|----------|
| Entrypoint   | 0x0063   |
| Data Size    | 33 bytes |
| Instructions | 12       |

```
      00 01 02 03 04 05 06 07  08 09 0A 0B 0C 0D 0E 0F
      -- -- -- -- -- -- -- --  -- -- -- -- -- -- -- --
0060:          1E F0 FF FF 7F  6F 70 29 08 11 10 0F 01     .....op).....
0070: 01 1D 02 80 23 1D 03 80  23 29 08 11 10 0F 01 07  ....#...#)......
0080: 20 00 21 00                                        .!.            
```

#### Opcodes

```
  0: 0x0063 [0x1E] EventEntity looks at LocalPlayer and starts talking
  1: 0x0068 [0x6F] WAIT_FRAME_DELAY: Yield until WaitTime reaches zero
  2: 0x0069 [0x70] WAIT_ENTITY_RENDER_FLAG: Wait while EventEntity->Render.Flags3 bit 2 is set (cancel turn if not)
  3: 0x006A [0x29] REQ_SET_WAIT(priority=0x08, entity_id=Tih Pikeh (ID: 17764369/0x010F1011), tag_num=0x01)
  4: 0x0071 [0x1D] PRINT_EVENT_MESSAGE(message_id=7657*)
    → "How arrre you`? I'm fine, as always...I think."
  5: 0x0074 [0x23] WAIT_FOR_DIALOG_INTERACTION
  6: 0x0075 [0x1D] PRINT_EVENT_MESSAGE(message_id=7658*)
    → "We've been having a spot of trouble because of those Yagudo beastmen, but Captain Rakoh Buuma's on hand, so things are underrr control...I think."
  7: 0x0078 [0x23] WAIT_FOR_DIALOG_INTERACTION
  8: 0x0079 [0x29] REQ_SET_WAIT(priority=0x08, entity_id=Tih Pikeh (ID: 17764369/0x010F1011), tag_num=0x07)
  9: 0x0080 [0x20] SET_CLI_EVENT_UC_FLAG: Unlock player control
 10: 0x0082 [0x21] END_EVENT
 11: 0x0083 [0x00] END_REQSTACK()
```

### Event 108

#### Metadata

| Field        | Value    |
|--------------|----------|
| Entrypoint   | 0x0084   |
| Data Size    | 29 bytes |
| Instructions | 10       |

```
      00 01 02 03 04 05 06 07  08 09 0A 0B 0C 0D 0E 0F
      -- -- -- -- -- -- -- --  -- -- -- -- -- -- -- --
0080:             1E F0 FF FF  7F 6F 70 29 08 11 10 0F      .....op)....
0090: 01 01 1D 04 80 23 29 08  11 10 0F 01 07 20 00 21  .....#)...... .!
00A0: 00                                                .               
```

#### Opcodes

```
  0: 0x0084 [0x1E] EventEntity looks at LocalPlayer and starts talking
  1: 0x0089 [0x6F] WAIT_FRAME_DELAY: Yield until WaitTime reaches zero
  2: 0x008A [0x70] WAIT_ENTITY_RENDER_FLAG: Wait while EventEntity->Render.Flags3 bit 2 is set (cancel turn if not)
  3: 0x008B [0x29] REQ_SET_WAIT(priority=0x08, entity_id=Tih Pikeh (ID: 17764369/0x010F1011), tag_num=0x01)
  4: 0x0092 [0x1D] PRINT_EVENT_MESSAGE(message_id=7660*)
    → "He`y, you seem to be from another country...I think. If you'rrre looking for the Consulate of [San d'Oria/Bastok], then it's [in this area/west of here]...[across the Bomingo Round/in Port Windurst]."
  5: 0x0095 [0x23] WAIT_FOR_DIALOG_INTERACTION
  6: 0x0096 [0x29] REQ_SET_WAIT(priority=0x08, entity_id=Tih Pikeh (ID: 17764369/0x010F1011), tag_num=0x07)
  7: 0x009D [0x20] SET_CLI_EVENT_UC_FLAG: Unlock player control
  8: 0x009F [0x21] END_EVENT
  9: 0x00A0 [0x00] END_REQSTACK()
```

### Event 119

#### Metadata

| Field        | Value    |
|--------------|----------|
| Entrypoint   | 0x00A1   |
| Data Size    | 33 bytes |
| Instructions | 12       |

```
      00 01 02 03 04 05 06 07  08 09 0A 0B 0C 0D 0E 0F
      -- -- -- -- -- -- -- --  -- -- -- -- -- -- -- --
00A0:    1E F0 FF FF 7F 6F 70  29 08 11 10 0F 01 01 1D   .....op).......
00B0: 05 80 23 1D 06 80 23 29  08 11 10 0F 01 07 20 00  ..#...#)...... .
00C0: 21 00                                             !.              
```

#### Opcodes

```
  0: 0x00A1 [0x1E] EventEntity looks at LocalPlayer and starts talking
  1: 0x00A6 [0x6F] WAIT_FRAME_DELAY: Yield until WaitTime reaches zero
  2: 0x00A7 [0x70] WAIT_ENTITY_RENDER_FLAG: Wait while EventEntity->Render.Flags3 bit 2 is set (cancel turn if not)
  3: 0x00A8 [0x29] REQ_SET_WAIT(priority=0x08, entity_id=Tih Pikeh (ID: 17764369/0x010F1011), tag_num=0x01)
  4: 0x00AF [0x1D] PRINT_EVENT_MESSAGE(message_id=7677*)
    → "That Meeri-Wohri is a clumsy little nerrrvous wreck, y'know?"
  5: 0x00B2 [0x23] WAIT_FOR_DIALOG_INTERACTION
  6: 0x00B3 [0x1D] PRINT_EVENT_MESSAGE(message_id=7678*)
    → "One day, I awoke from a cat nap wherrre I was having this dream about eating a Mithkabob, only to find I was chewing on the little guy's leg! I hope I didn't hurrrt him...to`o much."
  7: 0x00B6 [0x23] WAIT_FOR_DIALOG_INTERACTION
  8: 0x00B7 [0x29] REQ_SET_WAIT(priority=0x08, entity_id=Tih Pikeh (ID: 17764369/0x010F1011), tag_num=0x07)
  9: 0x00BE [0x20] SET_CLI_EVENT_UC_FLAG: Unlock player control
 10: 0x00C0 [0x21] END_EVENT
 11: 0x00C1 [0x00] END_REQSTACK()
```

### Event 848

#### Metadata

| Field        | Value   |
|--------------|---------|
| Entrypoint   | 0x00C2  |
| Data Size    | 1 bytes |
| Instructions | 1       |

```
      00 01 02 03 04 05 06 07  08 09 0A 0B 0C 0D 0E 0F
      -- -- -- -- -- -- -- --  -- -- -- -- -- -- -- --
00C0:       00                                            .             
```

#### Opcodes

```
  0: 0x00C2 [0x00] END_REQSTACK()
```

### Event 876

#### Metadata

| Field        | Value   |
|--------------|---------|
| Entrypoint   | 0x00C3  |
| Data Size    | 1 bytes |
| Instructions | 1       |

```
      00 01 02 03 04 05 06 07  08 09 0A 0B 0C 0D 0E 0F
      -- -- -- -- -- -- -- --  -- -- -- -- -- -- -- --
00C0:          00                                          .            
```

#### Opcodes

```
  0: 0x00C3 [0x00] END_REQSTACK()
```

### Event 114

#### Metadata

| Field        | Value   |
|--------------|---------|
| Entrypoint   | 0x00C4  |
| Data Size    | 1 bytes |
| Instructions | 1       |

```
      00 01 02 03 04 05 06 07  08 09 0A 0B 0C 0D 0E 0F
      -- -- -- -- -- -- -- --  -- -- -- -- -- -- -- --
00C0:             00                                        .           
```

#### Opcodes

```
  0: 0x00C4 [0x00] END_REQSTACK()
```

### Event 121

#### Metadata

| Field        | Value   |
|--------------|---------|
| Entrypoint   | 0x00C5  |
| Data Size    | 1 bytes |
| Instructions | 1       |

```
      00 01 02 03 04 05 06 07  08 09 0A 0B 0C 0D 0E 0F
      -- -- -- -- -- -- -- --  -- -- -- -- -- -- -- --
00C0:                00                                      .          
```

#### Opcodes

```
  0: 0x00C5 [0x00] END_REQSTACK()
```

### Event 126

#### Metadata

| Field        | Value    |
|--------------|----------|
| Entrypoint   | 0x00C6   |
| Data Size    | 33 bytes |
| Instructions | 12       |

```
      00 01 02 03 04 05 06 07  08 09 0A 0B 0C 0D 0E 0F
      -- -- -- -- -- -- -- --  -- -- -- -- -- -- -- --
00C0:                   1E F0  FF FF 7F 6F 70 29 08 11        .....op)..
00D0: 10 0F 01 01 1D 07 80 23  1D 08 80 23 29 08 11 10  .......#...#)...
00E0: 0F 01 07 20 00 21 00                              ... .!.         
```

#### Opcodes

```
  0: 0x00C6 [0x1E] EventEntity looks at LocalPlayer and starts talking
  1: 0x00CB [0x6F] WAIT_FRAME_DELAY: Yield until WaitTime reaches zero
  2: 0x00CC [0x70] WAIT_ENTITY_RENDER_FLAG: Wait while EventEntity->Render.Flags3 bit 2 is set (cancel turn if not)
  3: 0x00CD [0x29] REQ_SET_WAIT(priority=0x08, entity_id=Tih Pikeh (ID: 17764369/0x010F1011), tag_num=0x01)
  4: 0x00D4 [0x1D] PRINT_EVENT_MESSAGE(message_id=7710*)
    → "You'rrre not s'posed to go straight to them magical towers, y'know? You'rrre s'posed to go to the O`rastery first...I think."
  5: 0x00D7 [0x23] WAIT_FOR_DIALOG_INTERACTION
  6: 0x00D8 [0x1D] PRINT_EVENT_MESSAGE(message_id=7711*)
    → "The Orastery is in charge of the Mage Academy, y'know? That's where the Tarutaru practice their spells all day in order to perrrfect them. It's the big building in the port area...I think."
  7: 0x00DB [0x23] WAIT_FOR_DIALOG_INTERACTION
  8: 0x00DC [0x29] REQ_SET_WAIT(priority=0x08, entity_id=Tih Pikeh (ID: 17764369/0x010F1011), tag_num=0x07)
  9: 0x00E3 [0x20] SET_CLI_EVENT_UC_FLAG: Unlock player control
 10: 0x00E5 [0x21] END_EVENT
 11: 0x00E6 [0x00] END_REQSTACK()
```

### Event 131

#### Metadata

| Field        | Value    |
|--------------|----------|
| Entrypoint   | 0x00E7   |
| Data Size    | 40 bytes |
| Instructions | 13       |

```
      00 01 02 03 04 05 06 07  08 09 0A 0B 0C 0D 0E 0F
      -- -- -- -- -- -- -- --  -- -- -- -- -- -- -- --
00E0:                      1E  F0 FF FF 7F 6F 70 29 08         .....op).
00F0: F0 FF FF 7F 05 29 08 11  10 0F 01 01 1D 09 80 23  .....).........#
0100: 1D 0A 80 23 29 08 11 10  0F 01 07 20 00 21 00     ...#)...... .!. 
```

#### Opcodes

```
  0: 0x00E7 [0x1E] EventEntity looks at LocalPlayer and starts talking
  1: 0x00EC [0x6F] WAIT_FRAME_DELAY: Yield until WaitTime reaches zero
  2: 0x00ED [0x70] WAIT_ENTITY_RENDER_FLAG: Wait while EventEntity->Render.Flags3 bit 2 is set (cancel turn if not)
  3: 0x00EE [0x29] REQ_SET_WAIT(priority=0x08, entity_id=LocalPlayer, tag_num=0x05)
  4: 0x00F5 [0x29] REQ_SET_WAIT(priority=0x08, entity_id=Tih Pikeh (ID: 17764369/0x010F1011), tag_num=0x01)
  5: 0x00FC [0x1D] PRINT_EVENT_MESSAGE(message_id=7718*)
    → "Missions are all verrry well and good, but you should also try some quests too...I think!"
  6: 0x00FF [0x23] WAIT_FOR_DIALOG_INTERACTION
  7: 0x0100 [0x1D] PRINT_EVENT_MESSAGE(message_id=7719*)
    → "Speaking to the townsfolk and trrrying to help them with their problems... It can be very beneficial, y'know!"
  8: 0x0103 [0x23] WAIT_FOR_DIALOG_INTERACTION
  9: 0x0104 [0x29] REQ_SET_WAIT(priority=0x08, entity_id=Tih Pikeh (ID: 17764369/0x010F1011), tag_num=0x07)
 10: 0x010B [0x20] SET_CLI_EVENT_UC_FLAG: Unlock player control
 11: 0x010D [0x21] END_EVENT
 12: 0x010E [0x00] END_REQSTACK()
```

### Event 135

#### Metadata

| Field        | Value    |
|--------------|----------|
| Entrypoint   | 0x010F   |
| Data Size    | 33 bytes |
| Instructions | 12       |

```
      00 01 02 03 04 05 06 07  08 09 0A 0B 0C 0D 0E 0F
      -- -- -- -- -- -- -- --  -- -- -- -- -- -- -- --
0100:                                               1E                 .
0110: F0 FF FF 7F 6F 70 29 08  11 10 0F 01 01 1D 0B 80  ....op).........
0120: 23 1D 0C 80 23 29 08 11  10 0F 01 07 20 00 21 00  #...#)...... .!.
```

#### Opcodes

```
  0: 0x010F [0x1E] EventEntity looks at LocalPlayer and starts talking
  1: 0x0114 [0x6F] WAIT_FRAME_DELAY: Yield until WaitTime reaches zero
  2: 0x0115 [0x70] WAIT_ENTITY_RENDER_FLAG: Wait while EventEntity->Render.Flags3 bit 2 is set (cancel turn if not)
  3: 0x0116 [0x29] REQ_SET_WAIT(priority=0x08, entity_id=Tih Pikeh (ID: 17764369/0x010F1011), tag_num=0x01)
  4: 0x011D [0x1D] PRINT_EVENT_MESSAGE(message_id=7730*)
    → "Go right down that road therrre, and when you come out into the round, you'll see a larrrge building up on your right...I think. Well, that's the Manustery's Cardian workshop, y'know?"
  5: 0x0120 [0x23] WAIT_FOR_DIALOG_INTERACTION
  6: 0x0121 [0x1D] PRINT_EVENT_MESSAGE(message_id=7731*)
    → "To find the entrances to the building, you may have to walk around the place a bit. But it's not enough to get you lost or anything...well, at least that's what I think."
  7: 0x0124 [0x23] WAIT_FOR_DIALOG_INTERACTION
  8: 0x0125 [0x29] REQ_SET_WAIT(priority=0x08, entity_id=Tih Pikeh (ID: 17764369/0x010F1011), tag_num=0x07)
  9: 0x012C [0x20] SET_CLI_EVENT_UC_FLAG: Unlock player control
 10: 0x012E [0x21] END_EVENT
 11: 0x012F [0x00] END_REQSTACK()
```

### Event 152

#### Metadata

| Field        | Value    |
|--------------|----------|
| Entrypoint   | 0x0130   |
| Data Size    | 37 bytes |
| Instructions | 14       |

```
      00 01 02 03 04 05 06 07  08 09 0A 0B 0C 0D 0E 0F
      -- -- -- -- -- -- -- --  -- -- -- -- -- -- -- --
0130: 1E F0 FF FF 7F 6F 70 29  08 11 10 0F 01 01 1D 0D  .....op)........
0140: 80 23 1D 0E 80 23 1D 0F  80 23 29 08 11 10 0F 01  .#...#...#).....
0150: 07 20 00 21 00                                    . .!.           
```

#### Opcodes

```
  0: 0x0130 [0x1E] EventEntity looks at LocalPlayer and starts talking
  1: 0x0135 [0x6F] WAIT_FRAME_DELAY: Yield until WaitTime reaches zero
  2: 0x0136 [0x70] WAIT_ENTITY_RENDER_FLAG: Wait while EventEntity->Render.Flags3 bit 2 is set (cancel turn if not)
  3: 0x0137 [0x29] REQ_SET_WAIT(priority=0x08, entity_id=Tih Pikeh (ID: 17764369/0x010F1011), tag_num=0x01)
  4: 0x013E [0x1D] PRINT_EVENT_MESSAGE(message_id=7793*)
    → "I just don't underrrstand why the Tarutaru fear those Yagudo."
  5: 0x0141 [0x23] WAIT_FOR_DIALOG_INTERACTION
  6: 0x0142 [0x1D] PRINT_EVENT_MESSAGE(message_id=7794*)
    → "Like, wasn't it because of that old Shadow Lorrrd that they nearly lost the war twenty years ago?"
  7: 0x0145 [0x23] WAIT_FOR_DIALOG_INTERACTION
  8: 0x0146 [0x1D] PRINT_EVENT_MESSAGE(message_id=7795*)
    → "With him dead and burrried, even if we were to have an all-out war with the Yagudo, we'd still come out on top...I think."
  9: 0x0149 [0x23] WAIT_FOR_DIALOG_INTERACTION
 10: 0x014A [0x29] REQ_SET_WAIT(priority=0x08, entity_id=Tih Pikeh (ID: 17764369/0x010F1011), tag_num=0x07)
 11: 0x0151 [0x20] SET_CLI_EVENT_UC_FLAG: Unlock player control
 12: 0x0153 [0x21] END_EVENT
 13: 0x0154 [0x00] END_REQSTACK()
```

### Event 156

#### Metadata

| Field        | Value    |
|--------------|----------|
| Entrypoint   | 0x0155   |
| Data Size    | 33 bytes |
| Instructions | 12       |

```
      00 01 02 03 04 05 06 07  08 09 0A 0B 0C 0D 0E 0F
      -- -- -- -- -- -- -- --  -- -- -- -- -- -- -- --
0150:                1E F0 FF  FF 7F 6F 70 29 08 11 10       .....op)...
0160: 0F 01 01 1D 10 80 23 1D  11 80 23 29 08 11 10 0F  ......#...#)....
0170: 01 07 20 00 21 00                                 .. .!.          
```

#### Opcodes

```
  0: 0x0155 [0x1E] EventEntity looks at LocalPlayer and starts talking
  1: 0x015A [0x6F] WAIT_FRAME_DELAY: Yield until WaitTime reaches zero
  2: 0x015B [0x70] WAIT_ENTITY_RENDER_FLAG: Wait while EventEntity->Render.Flags3 bit 2 is set (cancel turn if not)
  3: 0x015C [0x29] REQ_SET_WAIT(priority=0x08, entity_id=Tih Pikeh (ID: 17764369/0x010F1011), tag_num=0x01)
  4: 0x0163 [0x1D] PRINT_EVENT_MESSAGE(message_id=7802*)
    → "Grrr... You went ahead and fulfilled that mission, huh? That means we gave the lazy Yagudo nourrrishment to make them stronger...I think."
  5: 0x0166 [0x23] WAIT_FOR_DIALOG_INTERACTION
  6: 0x0167 [0x1D] PRINT_EVENT_MESSAGE(message_id=7803*)
    → "Captain Rakoh Buuma also disagrrrees with the Star Sibyl on this, y'know? We should just rrrefuse to hand out this mission from now on...I think."
  7: 0x016A [0x23] WAIT_FOR_DIALOG_INTERACTION
  8: 0x016B [0x29] REQ_SET_WAIT(priority=0x08, entity_id=Tih Pikeh (ID: 17764369/0x010F1011), tag_num=0x07)
  9: 0x0172 [0x20] SET_CLI_EVENT_UC_FLAG: Unlock player control
 10: 0x0174 [0x21] END_EVENT
 11: 0x0175 [0x00] END_REQSTACK()
```

### Event 163

#### Metadata

| Field        | Value    |
|--------------|----------|
| Entrypoint   | 0x0176   |
| Data Size    | 33 bytes |
| Instructions | 12       |

```
      00 01 02 03 04 05 06 07  08 09 0A 0B 0C 0D 0E 0F
      -- -- -- -- -- -- -- --  -- -- -- -- -- -- -- --
0170:                   1E F0  FF FF 7F 6F 70 29 08 11        .....op)..
0180: 10 0F 01 01 1D 12 80 23  1D 13 80 23 29 08 11 10  .......#...#)...
0190: 0F 01 07 20 00 21 00                              ... .!.         
```

#### Opcodes

```
  0: 0x0176 [0x1E] EventEntity looks at LocalPlayer and starts talking
  1: 0x017B [0x6F] WAIT_FRAME_DELAY: Yield until WaitTime reaches zero
  2: 0x017C [0x70] WAIT_ENTITY_RENDER_FLAG: Wait while EventEntity->Render.Flags3 bit 2 is set (cancel turn if not)
  3: 0x017D [0x29] REQ_SET_WAIT(priority=0x08, entity_id=Tih Pikeh (ID: 17764369/0x010F1011), tag_num=0x01)
  4: 0x0184 [0x1D] PRINT_EVENT_MESSAGE(message_id=7821*)
    → "You'rrre going to the library, huh? That reminds me...I have a book overdue there...I think."
  5: 0x0187 [0x23] WAIT_FOR_DIALOG_INTERACTION
  6: 0x0188 [0x1D] PRINT_EVENT_MESSAGE(message_id=7822*)
    → "What? You want to know what book I borrrrowed? Well, I'm not telling, so there!"
  7: 0x018B [0x23] WAIT_FOR_DIALOG_INTERACTION
  8: 0x018C [0x29] REQ_SET_WAIT(priority=0x08, entity_id=Tih Pikeh (ID: 17764369/0x010F1011), tag_num=0x07)
  9: 0x0193 [0x20] SET_CLI_EVENT_UC_FLAG: Unlock player control
 10: 0x0195 [0x21] END_EVENT
 11: 0x0196 [0x00] END_REQSTACK()
```

### Event 164

#### Metadata

| Field        | Value    |
|--------------|----------|
| Entrypoint   | 0x0197   |
| Data Size    | 43 bytes |
| Instructions | 12       |

```
      00 01 02 03 04 05 06 07  08 09 0A 0B 0C 0D 0E 0F
      -- -- -- -- -- -- -- --  -- -- -- -- -- -- -- --
0190:                      1E  F0 FF FF 7F 6F 70 29 08         .....op).
01A0: 11 10 0F 01 03 1D 14 80  23 29 08 11 10 0F 01 04  ........#)......
01B0: 29 08 11 10 0F 01 05 29  08 11 10 0F 01 06 20 00  )......)...... .
01C0: 21 00                                             !.              
```

#### Opcodes

```
  0: 0x0197 [0x1E] EventEntity looks at LocalPlayer and starts talking
  1: 0x019C [0x6F] WAIT_FRAME_DELAY: Yield until WaitTime reaches zero
  2: 0x019D [0x70] WAIT_ENTITY_RENDER_FLAG: Wait while EventEntity->Render.Flags3 bit 2 is set (cancel turn if not)
  3: 0x019E [0x29] REQ_SET_WAIT(priority=0x08, entity_id=Tih Pikeh (ID: 17764369/0x010F1011), tag_num=0x03)
  4: 0x01A5 [0x1D] PRINT_EVENT_MESSAGE(message_id=7823*)
    → "(Don't ask me what book I took out. It's not like I actually read them... They'rrre way over my reading age.)"
  5: 0x01A8 [0x23] WAIT_FOR_DIALOG_INTERACTION
  6: 0x01A9 [0x29] REQ_SET_WAIT(priority=0x08, entity_id=Tih Pikeh (ID: 17764369/0x010F1011), tag_num=0x04)
  7: 0x01B0 [0x29] REQ_SET_WAIT(priority=0x08, entity_id=Tih Pikeh (ID: 17764369/0x010F1011), tag_num=0x05)
  8: 0x01B7 [0x29] REQ_SET_WAIT(priority=0x08, entity_id=Tih Pikeh (ID: 17764369/0x010F1011), tag_num=0x06)
  9: 0x01BE [0x20] SET_CLI_EVENT_UC_FLAG: Unlock player control
 10: 0x01C0 [0x21] END_EVENT
 11: 0x01C1 [0x00] END_REQSTACK()
```

### Event 476

#### Metadata

| Field        | Value    |
|--------------|----------|
| Entrypoint   | 0x01C2   |
| Data Size    | 33 bytes |
| Instructions | 12       |

```
      00 01 02 03 04 05 06 07  08 09 0A 0B 0C 0D 0E 0F
      -- -- -- -- -- -- -- --  -- -- -- -- -- -- -- --
01C0:       1E F0 FF FF 7F 6F  70 29 08 11 10 0F 01 01    .....op)......
01D0: 1D 15 80 23 1D 16 80 23  29 08 11 10 0F 01 07 20  ...#...#)...... 
01E0: 00 21 00                                          .!.             
```

#### Opcodes

```
  0: 0x01C2 [0x1E] EventEntity looks at LocalPlayer and starts talking
  1: 0x01C7 [0x6F] WAIT_FRAME_DELAY: Yield until WaitTime reaches zero
  2: 0x01C8 [0x70] WAIT_ENTITY_RENDER_FLAG: Wait while EventEntity->Render.Flags3 bit 2 is set (cancel turn if not)
  3: 0x01C9 [0x29] REQ_SET_WAIT(priority=0x08, entity_id=Tih Pikeh (ID: 17764369/0x010F1011), tag_num=0x01)
  4: 0x01D0 [0x1D] PRINT_EVENT_MESSAGE(message_id=8680*)
    → "Come to think of it...therrre is a Mithra girl in the advanced class of the School of Magic, y'know?"
  5: 0x01D3 [0x23] WAIT_FOR_DIALOG_INTERACTION
  6: 0x01D4 [0x1D] PRINT_EVENT_MESSAGE(message_id=8681*)
    → "She's the firrrst Mithra to make it into the advanced class...y'know? Someone should give herrr a pat on the back, I think."
  7: 0x01D7 [0x23] WAIT_FOR_DIALOG_INTERACTION
  8: 0x01D8 [0x29] REQ_SET_WAIT(priority=0x08, entity_id=Tih Pikeh (ID: 17764369/0x010F1011), tag_num=0x07)
  9: 0x01DF [0x20] SET_CLI_EVENT_UC_FLAG: Unlock player control
 10: 0x01E1 [0x21] END_EVENT
 11: 0x01E2 [0x00] END_REQSTACK()
```

### Event 179

#### Metadata

| Field        | Value    |
|--------------|----------|
| Entrypoint   | 0x01E3   |
| Data Size    | 29 bytes |
| Instructions | 10       |

```
      00 01 02 03 04 05 06 07  08 09 0A 0B 0C 0D 0E 0F
      -- -- -- -- -- -- -- --  -- -- -- -- -- -- -- --
01E0:          1E F0 FF FF 7F  6F 70 29 08 11 10 0F 01     .....op).....
01F0: 01 1D 17 80 23 29 08 11  10 0F 01 07 20 00 21 00  ....#)...... .!.
```

#### Opcodes

```
  0: 0x01E3 [0x1E] EventEntity looks at LocalPlayer and starts talking
  1: 0x01E8 [0x6F] WAIT_FRAME_DELAY: Yield until WaitTime reaches zero
  2: 0x01E9 [0x70] WAIT_ENTITY_RENDER_FLAG: Wait while EventEntity->Render.Flags3 bit 2 is set (cancel turn if not)
  3: 0x01EA [0x29] REQ_SET_WAIT(priority=0x08, entity_id=Tih Pikeh (ID: 17764369/0x010F1011), tag_num=0x01)
  4: 0x01F1 [0x1D] PRINT_EVENT_MESSAGE(message_id=7855*)
    → "Once you accept this mission, you won't be coming back here any time soon, y'know. And just when I was almost getting to like you...I think."
  5: 0x01F4 [0x23] WAIT_FOR_DIALOG_INTERACTION
  6: 0x01F5 [0x29] REQ_SET_WAIT(priority=0x08, entity_id=Tih Pikeh (ID: 17764369/0x010F1011), tag_num=0x07)
  7: 0x01FC [0x20] SET_CLI_EVENT_UC_FLAG: Unlock player control
  8: 0x01FE [0x21] END_EVENT
  9: 0x01FF [0x00] END_REQSTACK()
```

### Event 183

#### Metadata

| Field        | Value    |
|--------------|----------|
| Entrypoint   | 0x0200   |
| Data Size    | 33 bytes |
| Instructions | 12       |

```
      00 01 02 03 04 05 06 07  08 09 0A 0B 0C 0D 0E 0F
      -- -- -- -- -- -- -- --  -- -- -- -- -- -- -- --
0200: 1E F0 FF FF 7F 6F 70 29  08 11 10 0F 01 01 1D 18  .....op)........
0210: 80 23 1D 19 80 23 29 08  11 10 0F 01 07 20 00 21  .#...#)...... .!
0220: 00                                                .               
```

#### Opcodes

```
  0: 0x0200 [0x1E] EventEntity looks at LocalPlayer and starts talking
  1: 0x0205 [0x6F] WAIT_FRAME_DELAY: Yield until WaitTime reaches zero
  2: 0x0206 [0x70] WAIT_ENTITY_RENDER_FLAG: Wait while EventEntity->Render.Flags3 bit 2 is set (cancel turn if not)
  3: 0x0207 [0x29] REQ_SET_WAIT(priority=0x08, entity_id=Tih Pikeh (ID: 17764369/0x010F1011), tag_num=0x01)
  4: 0x020E [0x1D] PRINT_EVENT_MESSAGE(message_id=7863*)
    → "Oh, so look who gets to meet Semih Lafihna..."
  5: 0x0211 [0x23] WAIT_FOR_DIALOG_INTERACTION
  6: 0x0212 [0x1D] PRINT_EVENT_MESSAGE(message_id=7864*)
    → "Everyone always arrrgues over who's the better archer, Captain Rakoh Buuma or Semih Lafihna, y'know. But Captain Buuma is the best, of courrrse...well, at least that's what I think."
  7: 0x0215 [0x23] WAIT_FOR_DIALOG_INTERACTION
  8: 0x0216 [0x29] REQ_SET_WAIT(priority=0x08, entity_id=Tih Pikeh (ID: 17764369/0x010F1011), tag_num=0x07)
  9: 0x021D [0x20] SET_CLI_EVENT_UC_FLAG: Unlock player control
 10: 0x021F [0x21] END_EVENT
 11: 0x0220 [0x00] END_REQSTACK()
```

### Event 189

#### Metadata

| Field        | Value    |
|--------------|----------|
| Entrypoint   | 0x0221   |
| Data Size    | 33 bytes |
| Instructions | 12       |

```
      00 01 02 03 04 05 06 07  08 09 0A 0B 0C 0D 0E 0F
      -- -- -- -- -- -- -- --  -- -- -- -- -- -- -- --
0220:    1E F0 FF FF 7F 6F 70  29 08 11 10 0F 01 01 1D   .....op).......
0230: 1A 80 23 1D 1B 80 23 29  08 11 10 0F 01 07 20 00  ..#...#)...... .
0240: 21 00                                             !.              
```

#### Opcodes

```
  0: 0x0221 [0x1E] EventEntity looks at LocalPlayer and starts talking
  1: 0x0226 [0x6F] WAIT_FRAME_DELAY: Yield until WaitTime reaches zero
  2: 0x0227 [0x70] WAIT_ENTITY_RENDER_FLAG: Wait while EventEntity->Render.Flags3 bit 2 is set (cancel turn if not)
  3: 0x0228 [0x29] REQ_SET_WAIT(priority=0x08, entity_id=Tih Pikeh (ID: 17764369/0x010F1011), tag_num=0x01)
  4: 0x022F [0x1D] PRINT_EVENT_MESSAGE(message_id=7876*)
    → "Tarutaru girls all want to become ladies-in-waiting, y'know? Like, what's wrrrong with them?"
  5: 0x0232 [0x23] WAIT_FOR_DIALOG_INTERACTION
  6: 0x0233 [0x1D] PRINT_EVENT_MESSAGE(message_id=7877*)
    → "Perrrhaps it's similar to how little Mithra girls go through a stage where they all want to grow up to become Huntresses of the Sun...I think."
  7: 0x0236 [0x23] WAIT_FOR_DIALOG_INTERACTION
  8: 0x0237 [0x29] REQ_SET_WAIT(priority=0x08, entity_id=Tih Pikeh (ID: 17764369/0x010F1011), tag_num=0x07)
  9: 0x023E [0x20] SET_CLI_EVENT_UC_FLAG: Unlock player control
 10: 0x0240 [0x21] END_EVENT
 11: 0x0241 [0x00] END_REQSTACK()
```

### Event 194

#### Metadata

| Field        | Value    |
|--------------|----------|
| Entrypoint   | 0x0242   |
| Data Size    | 33 bytes |
| Instructions | 12       |

```
      00 01 02 03 04 05 06 07  08 09 0A 0B 0C 0D 0E 0F
      -- -- -- -- -- -- -- --  -- -- -- -- -- -- -- --
0240:       1E F0 FF FF 7F 6F  70 29 08 11 10 0F 01 01    .....op)......
0250: 1D 1C 80 23 1D 1D 80 23  29 08 11 10 0F 01 07 20  ...#...#)...... 
0260: 00 21 00                                          .!.             
```

#### Opcodes

```
  0: 0x0242 [0x1E] EventEntity looks at LocalPlayer and starts talking
  1: 0x0247 [0x6F] WAIT_FRAME_DELAY: Yield until WaitTime reaches zero
  2: 0x0248 [0x70] WAIT_ENTITY_RENDER_FLAG: Wait while EventEntity->Render.Flags3 bit 2 is set (cancel turn if not)
  3: 0x0249 [0x29] REQ_SET_WAIT(priority=0x08, entity_id=Tih Pikeh (ID: 17764369/0x010F1011), tag_num=0x01)
  4: 0x0250 [0x1D] PRINT_EVENT_MESSAGE(message_id=7886*)
    → "What's going on? What's this starrr emblem thingo? I don't underrrstand...I think."
  5: 0x0253 [0x23] WAIT_FOR_DIALOG_INTERACTION
  6: 0x0254 [0x1D] PRINT_EVENT_MESSAGE(message_id=7887*)
    → "Miiri-Wohri's been carrying on all excitedly there by himself, y'know? I don't get it at all!"
  7: 0x0257 [0x23] WAIT_FOR_DIALOG_INTERACTION
  8: 0x0258 [0x29] REQ_SET_WAIT(priority=0x08, entity_id=Tih Pikeh (ID: 17764369/0x010F1011), tag_num=0x07)
  9: 0x025F [0x20] SET_CLI_EVENT_UC_FLAG: Unlock player control
 10: 0x0261 [0x21] END_EVENT
 11: 0x0262 [0x00] END_REQSTACK()
```

### Event 199

#### Metadata

| Field        | Value    |
|--------------|----------|
| Entrypoint   | 0x0263   |
| Data Size    | 33 bytes |
| Instructions | 12       |

```
      00 01 02 03 04 05 06 07  08 09 0A 0B 0C 0D 0E 0F
      -- -- -- -- -- -- -- --  -- -- -- -- -- -- -- --
0260:          1E F0 FF FF 7F  6F 70 29 08 11 10 0F 01     .....op).....
0270: 01 1D 1E 80 23 1D 1F 80  23 29 08 11 10 0F 01 07  ....#...#)......
0280: 20 00 21 00                                        .!.            
```

#### Opcodes

```
  0: 0x0263 [0x1E] EventEntity looks at LocalPlayer and starts talking
  1: 0x0268 [0x6F] WAIT_FRAME_DELAY: Yield until WaitTime reaches zero
  2: 0x0269 [0x70] WAIT_ENTITY_RENDER_FLAG: Wait while EventEntity->Render.Flags3 bit 2 is set (cancel turn if not)
  3: 0x026A [0x29] REQ_SET_WAIT(priority=0x08, entity_id=Tih Pikeh (ID: 17764369/0x010F1011), tag_num=0x01)
  4: 0x0271 [0x1D] PRINT_EVENT_MESSAGE(message_id=7896*)
    → "Did you hearrr? Did you hearrr? Captain Rakoh Buuma was called to the Mage Academy, y'know?"
  5: 0x0274 [0x23] WAIT_FOR_DIALOG_INTERACTION
  6: 0x0275 [0x1D] PRINT_EVENT_MESSAGE(message_id=7897*)
    → "It's an emergency situation, so the captains of each of the fourrr guardhouses were asked to assemble. Sounds like they had a secrrret meeting or something...I think."
  7: 0x0278 [0x23] WAIT_FOR_DIALOG_INTERACTION
  8: 0x0279 [0x29] REQ_SET_WAIT(priority=0x08, entity_id=Tih Pikeh (ID: 17764369/0x010F1011), tag_num=0x07)
  9: 0x0280 [0x20] SET_CLI_EVENT_UC_FLAG: Unlock player control
 10: 0x0282 [0x21] END_EVENT
 11: 0x0283 [0x00] END_REQSTACK()
```

### Event 207

#### Metadata

| Field        | Value    |
|--------------|----------|
| Entrypoint   | 0x0284   |
| Data Size    | 33 bytes |
| Instructions | 12       |

```
      00 01 02 03 04 05 06 07  08 09 0A 0B 0C 0D 0E 0F
      -- -- -- -- -- -- -- --  -- -- -- -- -- -- -- --
0280:             1E F0 FF FF  7F 6F 70 29 08 11 10 0F      .....op)....
0290: 01 01 1D 20 80 23 1D 21  80 23 29 08 11 10 0F 01  ... .#.!.#).....
02A0: 07 20 00 21 00                                    . .!.           
```

#### Opcodes

```
  0: 0x0284 [0x1E] EventEntity looks at LocalPlayer and starts talking
  1: 0x0289 [0x6F] WAIT_FRAME_DELAY: Yield until WaitTime reaches zero
  2: 0x028A [0x70] WAIT_ENTITY_RENDER_FLAG: Wait while EventEntity->Render.Flags3 bit 2 is set (cancel turn if not)
  3: 0x028B [0x29] REQ_SET_WAIT(priority=0x08, entity_id=Tih Pikeh (ID: 17764369/0x010F1011), tag_num=0x01)
  4: 0x0292 [0x1D] PRINT_EVENT_MESSAGE(message_id=7910*)
    → "What does our trrribal leader think of all this...I wonder?"
  5: 0x0295 [0x23] WAIT_FOR_DIALOG_INTERACTION
  6: 0x0296 [0x1D] PRINT_EVENT_MESSAGE(message_id=7911*)
    → "When the emergency situation arrrose, did the Star Sibyl inform our tribal leader? ...I don't know. I hope Heavens Tower didn't give our tribal leader the cold shoulder. I'd never forrrgive them for that!"
  7: 0x0299 [0x23] WAIT_FOR_DIALOG_INTERACTION
  8: 0x029A [0x29] REQ_SET_WAIT(priority=0x08, entity_id=Tih Pikeh (ID: 17764369/0x010F1011), tag_num=0x07)
  9: 0x02A1 [0x20] SET_CLI_EVENT_UC_FLAG: Unlock player control
 10: 0x02A3 [0x21] END_EVENT
 11: 0x02A4 [0x00] END_REQSTACK()
```

### Event 212

#### Metadata

| Field        | Value    |
|--------------|----------|
| Entrypoint   | 0x02A5   |
| Data Size    | 33 bytes |
| Instructions | 12       |

```
      00 01 02 03 04 05 06 07  08 09 0A 0B 0C 0D 0E 0F
      -- -- -- -- -- -- -- --  -- -- -- -- -- -- -- --
02A0:                1E F0 FF  FF 7F 6F 70 29 08 11 10       .....op)...
02B0: 0F 01 01 1D 22 80 23 1D  23 80 23 29 08 11 10 0F  ....".#.#.#)....
02C0: 01 07 20 00 21 00                                 .. .!.          
```

#### Opcodes

```
  0: 0x02A5 [0x1E] EventEntity looks at LocalPlayer and starts talking
  1: 0x02AA [0x6F] WAIT_FRAME_DELAY: Yield until WaitTime reaches zero
  2: 0x02AB [0x70] WAIT_ENTITY_RENDER_FLAG: Wait while EventEntity->Render.Flags3 bit 2 is set (cancel turn if not)
  3: 0x02AC [0x29] REQ_SET_WAIT(priority=0x08, entity_id=Tih Pikeh (ID: 17764369/0x010F1011), tag_num=0x01)
  4: 0x02B3 [0x1D] PRINT_EVENT_MESSAGE(message_id=7920*)
    → "It's extrrremely rare for the five ministries to suddenly hold a meeting, y'know?"
  5: 0x02B6 [0x23] WAIT_FOR_DIALOG_INTERACTION
  6: 0x02B7 [0x1D] PRINT_EVENT_MESSAGE(message_id=7921*)
    → "It's prrractically impossible to gather the ministers of the five ministries together, so they usually announce these things months in advance...I think."
  7: 0x02BA [0x23] WAIT_FOR_DIALOG_INTERACTION
  8: 0x02BB [0x29] REQ_SET_WAIT(priority=0x08, entity_id=Tih Pikeh (ID: 17764369/0x010F1011), tag_num=0x07)
  9: 0x02C2 [0x20] SET_CLI_EVENT_UC_FLAG: Unlock player control
 10: 0x02C4 [0x21] END_EVENT
 11: 0x02C5 [0x00] END_REQSTACK()
```

### Event 215

#### Metadata

| Field        | Value    |
|--------------|----------|
| Entrypoint   | 0x02C6   |
| Data Size    | 33 bytes |
| Instructions | 12       |

```
      00 01 02 03 04 05 06 07  08 09 0A 0B 0C 0D 0E 0F
      -- -- -- -- -- -- -- --  -- -- -- -- -- -- -- --
02C0:                   1E F0  FF FF 7F 6F 70 29 08 11        .....op)..
02D0: 10 0F 01 01 1D 24 80 23  1D 25 80 23 29 08 11 10  .....$.#.%.#)...
02E0: 0F 01 07 20 00 21 00                              ... .!.         
```

#### Opcodes

```
  0: 0x02C6 [0x1E] EventEntity looks at LocalPlayer and starts talking
  1: 0x02CB [0x6F] WAIT_FRAME_DELAY: Yield until WaitTime reaches zero
  2: 0x02CC [0x70] WAIT_ENTITY_RENDER_FLAG: Wait while EventEntity->Render.Flags3 bit 2 is set (cancel turn if not)
  3: 0x02CD [0x29] REQ_SET_WAIT(priority=0x08, entity_id=Tih Pikeh (ID: 17764369/0x010F1011), tag_num=0x01)
  4: 0x02D4 [0x1D] PRINT_EVENT_MESSAGE(message_id=7926*)
    → "The ministerrr of the Orastery just went out through that gate, y'know?"
  5: 0x02D7 [0x23] WAIT_FOR_DIALOG_INTERACTION
  6: 0x02D8 [0x1D] PRINT_EVENT_MESSAGE(message_id=7927*)
    → "Maybe it has something to do with that starrr emblem letter from Heavens Tower...I think? I wonderrr what is written in those letters?"
  7: 0x02DB [0x23] WAIT_FOR_DIALOG_INTERACTION
  8: 0x02DC [0x29] REQ_SET_WAIT(priority=0x08, entity_id=Tih Pikeh (ID: 17764369/0x010F1011), tag_num=0x07)
  9: 0x02E3 [0x20] SET_CLI_EVENT_UC_FLAG: Unlock player control
 10: 0x02E5 [0x21] END_EVENT
 11: 0x02E6 [0x00] END_REQSTACK()
```

### Event 594

#### Metadata

| Field        | Value    |
|--------------|----------|
| Entrypoint   | 0x02E7   |
| Data Size    | 33 bytes |
| Instructions | 12       |

```
      00 01 02 03 04 05 06 07  08 09 0A 0B 0C 0D 0E 0F
      -- -- -- -- -- -- -- --  -- -- -- -- -- -- -- --
02E0:                      1E  F0 FF FF 7F 6F 70 29 08         .....op).
02F0: 11 10 0F 01 01 1D 26 80  23 1D 27 80 23 29 08 11  ......&.#.'.#)..
0300: 10 0F 01 07 20 00 21 00                           .... .!.        
```

#### Opcodes

```
  0: 0x02E7 [0x1E] EventEntity looks at LocalPlayer and starts talking
  1: 0x02EC [0x6F] WAIT_FRAME_DELAY: Yield until WaitTime reaches zero
  2: 0x02ED [0x70] WAIT_ENTITY_RENDER_FLAG: Wait while EventEntity->Render.Flags3 bit 2 is set (cancel turn if not)
  3: 0x02EE [0x29] REQ_SET_WAIT(priority=0x08, entity_id=Tih Pikeh (ID: 17764369/0x010F1011), tag_num=0x01)
  4: 0x02F5 [0x1D] PRINT_EVENT_MESSAGE(message_id=9411*)
    → "Captain Rakoh Buuma was sooo angrrry, y'know? She was saying something like, "Lately the guards of Windurst Woods have rrreally been slacking off! Slacking off completely!"...I think."
  5: 0x02F8 [0x23] WAIT_FOR_DIALOG_INTERACTION
  6: 0x02F9 [0x1D] PRINT_EVENT_MESSAGE(message_id=9412*)
    → "Now that the airship route to the southern continent has been reopened, there might be some trrrouble amongst the Mithra of Windurst...I think. ...Gotta stay alert, y'know?"
  7: 0x02FC [0x23] WAIT_FOR_DIALOG_INTERACTION
  8: 0x02FD [0x29] REQ_SET_WAIT(priority=0x08, entity_id=Tih Pikeh (ID: 17764369/0x010F1011), tag_num=0x07)
  9: 0x0304 [0x20] SET_CLI_EVENT_UC_FLAG: Unlock player control
 10: 0x0306 [0x21] END_EVENT
 11: 0x0307 [0x00] END_REQSTACK()
```

### Event 559

#### Metadata

| Field        | Value    |
|--------------|----------|
| Entrypoint   | 0x0308   |
| Data Size    | 33 bytes |
| Instructions | 12       |

```
      00 01 02 03 04 05 06 07  08 09 0A 0B 0C 0D 0E 0F
      -- -- -- -- -- -- -- --  -- -- -- -- -- -- -- --
0300:                          1E F0 FF FF 7F 6F 70 29          .....op)
0310: 08 11 10 0F 01 01 1D 28  80 23 1D 29 80 23 29 08  .......(.#.).#).
0320: 11 10 0F 01 07 20 00 21  00                       ..... .!.       
```

#### Opcodes

```
  0: 0x0308 [0x1E] EventEntity looks at LocalPlayer and starts talking
  1: 0x030D [0x6F] WAIT_FRAME_DELAY: Yield until WaitTime reaches zero
  2: 0x030E [0x70] WAIT_ENTITY_RENDER_FLAG: Wait while EventEntity->Render.Flags3 bit 2 is set (cancel turn if not)
  3: 0x030F [0x29] REQ_SET_WAIT(priority=0x08, entity_id=Tih Pikeh (ID: 17764369/0x010F1011), tag_num=0x01)
  4: 0x0316 [0x1D] PRINT_EVENT_MESSAGE(message_id=9421*)
    → "Where did she hear about it, I wonder...? Semih Lafihna, she like, totally wanted to know everything about this mission from Ajido-Marujido."
  5: 0x0319 [0x23] WAIT_FOR_DIALOG_INTERACTION
  6: 0x031A [0x1D] PRINT_EVENT_MESSAGE(message_id=9422*)
    → "She seemed kinda on edge, y'know? Even Captain Buuma, who like, totally hates Semih, was like, "Oh, okay, this is what the mission is about,"...or something like that."
  7: 0x031D [0x23] WAIT_FOR_DIALOG_INTERACTION
  8: 0x031E [0x29] REQ_SET_WAIT(priority=0x08, entity_id=Tih Pikeh (ID: 17764369/0x010F1011), tag_num=0x07)
  9: 0x0325 [0x20] SET_CLI_EVENT_UC_FLAG: Unlock player control
 10: 0x0327 [0x21] END_EVENT
 11: 0x0328 [0x00] END_REQSTACK()
```

### Event 566

#### Metadata

| Field        | Value    |
|--------------|----------|
| Entrypoint   | 0x0329   |
| Data Size    | 47 bytes |
| Instructions | 14       |

```
      00 01 02 03 04 05 06 07  08 09 0A 0B 0C 0D 0E 0F
      -- -- -- -- -- -- -- --  -- -- -- -- -- -- -- --
0320:                             1E F0 FF FF 7F 6F 70           .....op
0330: 29 08 11 10 0F 01 03 1D  2A 80 23 29 08 11 10 0F  ).......*.#)....
0340: 01 04 29 08 11 10 0F 01  05 1D 2B 80 23 29 08 11  ..).......+.#)..
0350: 10 0F 01 06 20 00 21 00                           .... .!.        
```

#### Opcodes

```
  0: 0x0329 [0x1E] EventEntity looks at LocalPlayer and starts talking
  1: 0x032E [0x6F] WAIT_FRAME_DELAY: Yield until WaitTime reaches zero
  2: 0x032F [0x70] WAIT_ENTITY_RENDER_FLAG: Wait while EventEntity->Render.Flags3 bit 2 is set (cancel turn if not)
  3: 0x0330 [0x29] REQ_SET_WAIT(priority=0x08, entity_id=Tih Pikeh (ID: 17764369/0x010F1011), tag_num=0x03)
  4: 0x0337 [0x1D] PRINT_EVENT_MESSAGE(message_id=9436*)
    → "I always thought Heavens Tower just did, y'know, prophecies and stuff. But the Star Sibyl rrreally, like, lays down the law when she has to."
  5: 0x033A [0x23] WAIT_FOR_DIALOG_INTERACTION
  6: 0x033B [0x29] REQ_SET_WAIT(priority=0x08, entity_id=Tih Pikeh (ID: 17764369/0x010F1011), tag_num=0x04)
  7: 0x0342 [0x29] REQ_SET_WAIT(priority=0x08, entity_id=Tih Pikeh (ID: 17764369/0x010F1011), tag_num=0x05)
  8: 0x0349 [0x1D] PRINT_EVENT_MESSAGE(message_id=9437*)
    → "What did the Orastery minister get up to, anyway? I mean, what's under that crumbly old tower, like, y'know?"
  9: 0x034C [0x23] WAIT_FOR_DIALOG_INTERACTION
 10: 0x034D [0x29] REQ_SET_WAIT(priority=0x08, entity_id=Tih Pikeh (ID: 17764369/0x010F1011), tag_num=0x06)
 11: 0x0354 [0x20] SET_CLI_EVENT_UC_FLAG: Unlock player control
 12: 0x0356 [0x21] END_EVENT
 13: 0x0357 [0x00] END_REQSTACK()
```

### Event 572

#### Metadata

| Field        | Value    |
|--------------|----------|
| Entrypoint   | 0x0358   |
| Data Size    | 33 bytes |
| Instructions | 12       |

```
      00 01 02 03 04 05 06 07  08 09 0A 0B 0C 0D 0E 0F
      -- -- -- -- -- -- -- --  -- -- -- -- -- -- -- --
0350:                          1E F0 FF FF 7F 6F 70 29          .....op)
0360: 08 11 10 0F 01 01 1D 2C  80 23 1D 2D 80 23 29 08  .......,.#.-.#).
0370: 11 10 0F 01 07 20 00 21  00                       ..... .!.       
```

#### Opcodes

```
  0: 0x0358 [0x1E] EventEntity looks at LocalPlayer and starts talking
  1: 0x035D [0x6F] WAIT_FRAME_DELAY: Yield until WaitTime reaches zero
  2: 0x035E [0x70] WAIT_ENTITY_RENDER_FLAG: Wait while EventEntity->Render.Flags3 bit 2 is set (cancel turn if not)
  3: 0x035F [0x29] REQ_SET_WAIT(priority=0x08, entity_id=Tih Pikeh (ID: 17764369/0x010F1011), tag_num=0x01)
  4: 0x0366 [0x1D] PRINT_EVENT_MESSAGE(message_id=9447*)
    → "You know the Minister of the Manustery...Miss Apururu? She doesn't like, y'know, smile as much as she used to."
  5: 0x0369 [0x23] WAIT_FOR_DIALOG_INTERACTION
  6: 0x036A [0x1D] PRINT_EVENT_MESSAGE(message_id=9448*)
    → "Even when she does smile, it's like, not rrreally a smile, y'know? I'm a girrrl, too. I know these things... I think."
  7: 0x036D [0x23] WAIT_FOR_DIALOG_INTERACTION
  8: 0x036E [0x29] REQ_SET_WAIT(priority=0x08, entity_id=Tih Pikeh (ID: 17764369/0x010F1011), tag_num=0x07)
  9: 0x0375 [0x20] SET_CLI_EVENT_UC_FLAG: Unlock player control
 10: 0x0377 [0x21] END_EVENT
 11: 0x0378 [0x00] END_REQSTACK()
```

### Event 577

#### Metadata

| Field        | Value    |
|--------------|----------|
| Entrypoint   | 0x0379   |
| Data Size    | 33 bytes |
| Instructions | 12       |

```
      00 01 02 03 04 05 06 07  08 09 0A 0B 0C 0D 0E 0F
      -- -- -- -- -- -- -- --  -- -- -- -- -- -- -- --
0370:                             1E F0 FF FF 7F 6F 70           .....op
0380: 29 08 11 10 0F 01 01 1D  2E 80 23 1D 2F 80 23 29  ).........#./.#)
0390: 08 11 10 0F 01 07 20 00  21 00                    ...... .!.      
```

#### Opcodes

```
  0: 0x0379 [0x1E] EventEntity looks at LocalPlayer and starts talking
  1: 0x037E [0x6F] WAIT_FRAME_DELAY: Yield until WaitTime reaches zero
  2: 0x037F [0x70] WAIT_ENTITY_RENDER_FLAG: Wait while EventEntity->Render.Flags3 bit 2 is set (cancel turn if not)
  3: 0x0380 [0x29] REQ_SET_WAIT(priority=0x08, entity_id=Tih Pikeh (ID: 17764369/0x010F1011), tag_num=0x01)
  4: 0x0387 [0x1D] PRINT_EVENT_MESSAGE(message_id=9458*)
    → "Have you ever been to the southern continent? There are lots of, like, rrreally rrrare plants and stuff... I think."
  5: 0x038A [0x23] WAIT_FOR_DIALOG_INTERACTION
  6: 0x038B [0x1D] PRINT_EVENT_MESSAGE(message_id=9459*)
    → "We use those plants to make, y'know, medicine and weapons and stuff like that. We Mithra are, like, children of nature, y'know?"
  7: 0x038E [0x23] WAIT_FOR_DIALOG_INTERACTION
  8: 0x038F [0x29] REQ_SET_WAIT(priority=0x08, entity_id=Tih Pikeh (ID: 17764369/0x010F1011), tag_num=0x07)
  9: 0x0396 [0x20] SET_CLI_EVENT_UC_FLAG: Unlock player control
 10: 0x0398 [0x21] END_EVENT
 11: 0x0399 [0x00] END_REQSTACK()
```

### Event 582

#### Metadata

| Field        | Value    |
|--------------|----------|
| Entrypoint   | 0x039A   |
| Data Size    | 33 bytes |
| Instructions | 12       |

```
      00 01 02 03 04 05 06 07  08 09 0A 0B 0C 0D 0E 0F
      -- -- -- -- -- -- -- --  -- -- -- -- -- -- -- --
0390:                                1E F0 FF FF 7F 6F            .....o
03A0: 70 29 08 11 10 0F 01 01  1D 30 80 23 1D 31 80 23  p).......0.#.1.#
03B0: 29 08 11 10 0F 01 07 20  00 21 00                 )...... .!.     
```

#### Opcodes

```
  0: 0x039A [0x1E] EventEntity looks at LocalPlayer and starts talking
  1: 0x039F [0x6F] WAIT_FRAME_DELAY: Yield until WaitTime reaches zero
  2: 0x03A0 [0x70] WAIT_ENTITY_RENDER_FLAG: Wait while EventEntity->Render.Flags3 bit 2 is set (cancel turn if not)
  3: 0x03A1 [0x29] REQ_SET_WAIT(priority=0x08, entity_id=Tih Pikeh (ID: 17764369/0x010F1011), tag_num=0x01)
  4: 0x03A8 [0x1D] PRINT_EVENT_MESSAGE(message_id=9471*)
    → "The Principal of the School of Magic is Professor Koru-Moru, y'know? But, like, a few years back, there was a different guy doing the job, y'know?"
  5: 0x03AB [0x23] WAIT_FOR_DIALOG_INTERACTION
  6: 0x03AC [0x1D] PRINT_EVENT_MESSAGE(message_id=9472*)
    → "What's really weird is that you don't hear anything about that guy. Tarutaru are, like, totally into their rumors, so I thought it was kinda strange."
  7: 0x03AF [0x23] WAIT_FOR_DIALOG_INTERACTION
  8: 0x03B0 [0x29] REQ_SET_WAIT(priority=0x08, entity_id=Tih Pikeh (ID: 17764369/0x010F1011), tag_num=0x07)
  9: 0x03B7 [0x20] SET_CLI_EVENT_UC_FLAG: Unlock player control
 10: 0x03B9 [0x21] END_EVENT
 11: 0x03BA [0x00] END_REQSTACK()
```

### Event 587

#### Metadata

| Field        | Value    |
|--------------|----------|
| Entrypoint   | 0x03BB   |
| Data Size    | 45 bytes |
| Instructions | 14       |

```
      00 01 02 03 04 05 06 07  08 09 0A 0B 0C 0D 0E 0F
      -- -- -- -- -- -- -- --  -- -- -- -- -- -- -- --
03B0:                                   1E F0 FF FF 7F             .....
03C0: 6F 70 29 08 11 10 0F 01  01 1D 32 80 23 29 08 11  op).......2.#)..
03D0: 10 0F 01 07 6E F8 FF FF  7F 33 80 99 F8 FF FF 7F  ....n....3......
03E0: 1D 34 80 23 20 00 21 00                           .4.# .!.        
```

#### Opcodes

```
  0: 0x03BB [0x1E] EventEntity looks at LocalPlayer and starts talking
  1: 0x03C0 [0x6F] WAIT_FRAME_DELAY: Yield until WaitTime reaches zero
  2: 0x03C1 [0x70] WAIT_ENTITY_RENDER_FLAG: Wait while EventEntity->Render.Flags3 bit 2 is set (cancel turn if not)
  3: 0x03C2 [0x29] REQ_SET_WAIT(priority=0x08, entity_id=Tih Pikeh (ID: 17764369/0x010F1011), tag_num=0x01)
  4: 0x03C9 [0x1D] PRINT_EVENT_MESSAGE(message_id=9482*)
    → "Miiri-Wohri is, like, totally freaked about this mission."
  5: 0x03CC [0x23] WAIT_FOR_DIALOG_INTERACTION
  6: 0x03CD [0x29] REQ_SET_WAIT(priority=0x08, entity_id=Tih Pikeh (ID: 17764369/0x010F1011), tag_num=0x07)
  7: 0x03D4 [0x6E] EventEntity uses emote 6*
  8: 0x03DB [0x99] Wait for EventEntity animation to complete
  9: 0x03E0 [0x1D] PRINT_EVENT_MESSAGE(message_id=9483*)
    → "But even if we, like, y'know, get found out and stuff, they'll just throw us all into the dungeon for a couple of days. It'll be like a sleepover!"
 10: 0x03E3 [0x23] WAIT_FOR_DIALOG_INTERACTION
 11: 0x03E4 [0x20] SET_CLI_EVENT_UC_FLAG: Unlock player control
 12: 0x03E6 [0x21] END_EVENT
 13: 0x03E7 [0x00] END_REQSTACK()
```

### Event 617

#### Metadata

| Field        | Value    |
|--------------|----------|
| Entrypoint   | 0x03E8   |
| Data Size    | 33 bytes |
| Instructions | 12       |

```
      00 01 02 03 04 05 06 07  08 09 0A 0B 0C 0D 0E 0F
      -- -- -- -- -- -- -- --  -- -- -- -- -- -- -- --
03E0:                          1E F0 FF FF 7F 6F 70 29          .....op)
03F0: 08 11 10 0F 01 01 1D 35  80 23 1D 36 80 23 29 08  .......5.#.6.#).
0400: 11 10 0F 01 02 20 00 21  00                       ..... .!.       
```

#### Opcodes

```
  0: 0x03E8 [0x1E] EventEntity looks at LocalPlayer and starts talking
  1: 0x03ED [0x6F] WAIT_FRAME_DELAY: Yield until WaitTime reaches zero
  2: 0x03EE [0x70] WAIT_ENTITY_RENDER_FLAG: Wait while EventEntity->Render.Flags3 bit 2 is set (cancel turn if not)
  3: 0x03EF [0x29] REQ_SET_WAIT(priority=0x08, entity_id=Tih Pikeh (ID: 17764369/0x010F1011), tag_num=0x01)
  4: 0x03F6 [0x1D] PRINT_EVENT_MESSAGE(message_id=9579*)
    → "Heavens Tower is gonna, like, totally notice that the Dark Dungeon is empty at any time now."
  5: 0x03F9 [0x23] WAIT_FOR_DIALOG_INTERACTION
  6: 0x03FA [0x1D] PRINT_EVENT_MESSAGE(message_id=9580*)
    → "We Mithra are born with, you know, a sixth sense and stuff. You can bet that Semih Lafihna's tail is totally twitching right now."
  7: 0x03FD [0x23] WAIT_FOR_DIALOG_INTERACTION
  8: 0x03FE [0x29] REQ_SET_WAIT(priority=0x08, entity_id=Tih Pikeh (ID: 17764369/0x010F1011), tag_num=0x02)
  9: 0x0405 [0x20] SET_CLI_EVENT_UC_FLAG: Unlock player control
 10: 0x0407 [0x21] END_EVENT
 11: 0x0408 [0x00] END_REQSTACK()
```

### Event 631

#### Metadata

| Field        | Value    |
|--------------|----------|
| Entrypoint   | 0x0409   |
| Data Size    | 33 bytes |
| Instructions | 12       |

```
      00 01 02 03 04 05 06 07  08 09 0A 0B 0C 0D 0E 0F
      -- -- -- -- -- -- -- --  -- -- -- -- -- -- -- --
0400:                             1E F0 FF FF 7F 6F 70           .....op
0410: 29 08 11 10 0F 01 01 1D  37 80 23 1D 38 80 23 29  ).......7.#.8.#)
0420: 08 11 10 0F 01 02 20 00  21 00                    ...... .!.      
```

#### Opcodes

```
  0: 0x0409 [0x1E] EventEntity looks at LocalPlayer and starts talking
  1: 0x040E [0x6F] WAIT_FRAME_DELAY: Yield until WaitTime reaches zero
  2: 0x040F [0x70] WAIT_ENTITY_RENDER_FLAG: Wait while EventEntity->Render.Flags3 bit 2 is set (cancel turn if not)
  3: 0x0410 [0x29] REQ_SET_WAIT(priority=0x08, entity_id=Tih Pikeh (ID: 17764369/0x010F1011), tag_num=0x01)
  4: 0x0417 [0x1D] PRINT_EVENT_MESSAGE(message_id=9644*)
    → "I just saw Ajido-Marujido leaving the Manustery in, like, full view..."
  5: 0x041A [0x23] WAIT_FOR_DIALOG_INTERACTION
  6: 0x041B [0x1D] PRINT_EVENT_MESSAGE(message_id=9645*)
    → "Should he be, y'know, walking around outside and stuff? Shouldn't he be using, like, some sorta invisibility spell thingy?"
  7: 0x041E [0x23] WAIT_FOR_DIALOG_INTERACTION
  8: 0x041F [0x29] REQ_SET_WAIT(priority=0x08, entity_id=Tih Pikeh (ID: 17764369/0x010F1011), tag_num=0x02)
  9: 0x0426 [0x20] SET_CLI_EVENT_UC_FLAG: Unlock player control
 10: 0x0428 [0x21] END_EVENT
 11: 0x0429 [0x00] END_REQSTACK()
```

### Event 628

#### Metadata

| Field        | Value    |
|--------------|----------|
| Entrypoint   | 0x042A   |
| Data Size    | 47 bytes |
| Instructions | 14       |

```
      00 01 02 03 04 05 06 07  08 09 0A 0B 0C 0D 0E 0F
      -- -- -- -- -- -- -- --  -- -- -- -- -- -- -- --
0420:                                1E F0 FF FF 7F 6F            .....o
0430: 70 29 08 11 10 0F 01 03  1D 39 80 23 29 08 11 10  p).......9.#)...
0440: 0F 01 04 29 08 11 10 0F  01 05 1D 3A 80 23 29 08  ...).......:.#).
0450: 11 10 0F 01 06 20 00 21  00                       ..... .!.       
```

#### Opcodes

```
  0: 0x042A [0x1E] EventEntity looks at LocalPlayer and starts talking
  1: 0x042F [0x6F] WAIT_FRAME_DELAY: Yield until WaitTime reaches zero
  2: 0x0430 [0x70] WAIT_ENTITY_RENDER_FLAG: Wait while EventEntity->Render.Flags3 bit 2 is set (cancel turn if not)
  3: 0x0431 [0x29] REQ_SET_WAIT(priority=0x08, entity_id=Tih Pikeh (ID: 17764369/0x010F1011), tag_num=0x03)
  4: 0x0438 [0x1D] PRINT_EVENT_MESSAGE(message_id=9663*)
    → "Even though you, like, totally trrrashed the beastmen's boss guy, the Yagudo still act like they're tougher than us."
  5: 0x043B [0x23] WAIT_FOR_DIALOG_INTERACTION
  6: 0x043C [0x29] REQ_SET_WAIT(priority=0x08, entity_id=Tih Pikeh (ID: 17764369/0x010F1011), tag_num=0x04)
  7: 0x0443 [0x29] REQ_SET_WAIT(priority=0x08, entity_id=Tih Pikeh (ID: 17764369/0x010F1011), tag_num=0x05)
  8: 0x044A [0x1D] PRINT_EVENT_MESSAGE(message_id=9664*)
    → "Something fishy's going on. It's like, the Yagudo are prrreying on our weaknesses...or something like that. You're, y'know, all important and stuff, so you should know what's going on, rrright?"
  9: 0x044D [0x23] WAIT_FOR_DIALOG_INTERACTION
 10: 0x044E [0x29] REQ_SET_WAIT(priority=0x08, entity_id=Tih Pikeh (ID: 17764369/0x010F1011), tag_num=0x06)
 11: 0x0455 [0x20] SET_CLI_EVENT_UC_FLAG: Unlock player control
 12: 0x0457 [0x21] END_EVENT
 13: 0x0458 [0x00] END_REQSTACK()
```

### Event 635

#### Metadata

| Field        | Value    |
|--------------|----------|
| Entrypoint   | 0x0459   |
| Data Size    | 33 bytes |
| Instructions | 12       |

```
      00 01 02 03 04 05 06 07  08 09 0A 0B 0C 0D 0E 0F
      -- -- -- -- -- -- -- --  -- -- -- -- -- -- -- --
0450:                             1E F0 FF FF 7F 6F 70           .....op
0460: 29 08 11 10 0F 01 01 1D  3B 80 23 1D 3C 80 23 29  ).......;.#.<.#)
0470: 08 11 10 0F 01 02 20 00  21 00                    ...... .!.      
```

#### Opcodes

```
  0: 0x0459 [0x1E] EventEntity looks at LocalPlayer and starts talking
  1: 0x045E [0x6F] WAIT_FRAME_DELAY: Yield until WaitTime reaches zero
  2: 0x045F [0x70] WAIT_ENTITY_RENDER_FLAG: Wait while EventEntity->Render.Flags3 bit 2 is set (cancel turn if not)
  3: 0x0460 [0x29] REQ_SET_WAIT(priority=0x08, entity_id=Tih Pikeh (ID: 17764369/0x010F1011), tag_num=0x01)
  4: 0x0467 [0x1D] PRINT_EVENT_MESSAGE(message_id=9701*)
    → "It could be just my imagination, but I feel like, y'know, all the Mithra in Windurst have finally become united in spirrrit."
  5: 0x046A [0x23] WAIT_FOR_DIALOG_INTERACTION
  6: 0x046B [0x1D] PRINT_EVENT_MESSAGE(message_id=9702*)
    → "I also feel that we've become, like, buddies with all the little Tarutaru. And you, of course, <Player>. You're, like, my hero!"
  7: 0x046E [0x23] WAIT_FOR_DIALOG_INTERACTION
  8: 0x046F [0x29] REQ_SET_WAIT(priority=0x08, entity_id=Tih Pikeh (ID: 17764369/0x010F1011), tag_num=0x02)
  9: 0x0476 [0x20] SET_CLI_EVENT_UC_FLAG: Unlock player control
 10: 0x0478 [0x21] END_EVENT
 11: 0x0479 [0x00] END_REQSTACK()
```
