# 17764721 - Rokor-Makor

## Common Data

| Field            | Value                    |
|------------------|--------------------------|
| Zone             | Windurst Woods (ID: 241) |
| Block Size       | 2024 bytes               |
| Total Events     | 2                        |
| References Count | 62                       |

## List of Events

| Event ID              | Entrypoint   |   Size |   Instructions |
|-----------------------|--------------|--------|----------------|
| [65535](#event-65535) | 0x0000       |      1 |              1 |
| [801](#event-801)     | 0x0001       |   1749 |            327 |

## DAT References (imed_data)

|   Index | Hex Value   |   Dec Value |
|---------|-------------|-------------|
|       0 | 0x0000      |           0 |
|       1 | 0x0008      |           8 |
|       2 | 0x33E2      |       13282 |
|       3 | 0x0001      |           1 |
|       4 | 0x33F4      |       13300 |
|       5 | 0x0002      |           2 |
|       6 | 0x33F5      |       13301 |
|       7 | 0x33E4      |       13284 |
|       8 | 0x33F6      |       13302 |
|       9 | 0x33F7      |       13303 |
|      10 | 0x33F8      |       13304 |
|      11 | 0x33F9      |       13305 |
|      12 | 0x33FA      |       13306 |
|      13 | 0x000A      |          10 |
|      14 | 0x33E7      |       13287 |
|      15 | 0x33E8      |       13288 |
|      16 | 0x0012      |          18 |
|      17 | 0x0013      |          19 |
|      18 | 0x33E9      |       13289 |
|      19 | 0x0003      |           3 |
|      20 | 0x33E3      |       13283 |
|      21 | 0x33E5      |       13285 |
|      22 | 0x33E6      |       13286 |
|      23 | 0x00C8      |         200 |
|      24 | 0x001B      |          27 |
|      25 | 0x000C      |          12 |
|      26 | 0xFFFFFDB6  |  4294966710 |
|      27 | 0xFFFECD0A  |  4294888714 |
|      28 | 0x0BB7      |        2999 |
|      29 | 0x0CD9      |        3289 |
|      30 | 0x0620      |        1568 |
|      31 | 0xFFFEE5C9  |  4294895049 |
|      32 | 0x0478      |        1144 |
|      33 | 0x111C      |        4380 |
|      34 | 0xFFFEE20E  |  4294894094 |
|      35 | 0x0450      |        1104 |
|      36 | 0xFFFFF9F2  |  4294965746 |
|      37 | 0xFFFEEA9A  |  4294896282 |
|      38 | 0x073D      |        1853 |
|      39 | 0xFFFEE738  |  4294895416 |
|      40 | 0x11EF      |        4591 |
|      41 | 0xFFFEE3F0  |  4294894576 |
|      42 | 0xFFFFFAD4  |  4294965972 |
|      43 | 0xFFFEEC5E  |  4294896734 |
|      44 | 0xFFFFFEFE  |  4294967038 |
|      45 | 0xFFFED017  |  4294889495 |
|      46 | 0x0CE8      |        3304 |
|      47 | 0x003C      |          60 |
|      48 | 0x0151      |         337 |
|      49 | 0x000F      |          15 |
|      50 | 0x33EA      |       13290 |
|      51 | 0x33EF      |       13295 |
|      52 | 0x33F0      |       13296 |
|      53 | 0x33EE      |       13294 |
|      54 | 0x0014      |          20 |
|      55 | 0x33EB      |       13291 |
|      56 | 0x33EC      |       13292 |
|      57 | 0x0009      |           9 |
|      58 | 0x33ED      |       13293 |
|      59 | 0x0023      |          35 |
|      60 | 0x0011      |          17 |
|      61 | 0x33FD      |       13309 |

## String References

- **13282**: Hellooo! Welcome to the Chocobo Chick Catchery!
- **13283**: What would you like to do? [Learn how to play./Check current high score./Have a go!/Nothing.]
- **13284**: Catch as many chicks as you can by moving the chocobo left and rightaru. But make sure you don't pick up any mandragoras by mistakey-wake! That'll mean the end of the game!
- **13285**: You need to catch at leastaru 20 chicks in one minute to clear the game.
- **13286**: Current high score: $0 [chick/chicks]. Record holder: %0.
- **13287**: It's $0 gil to play.
- **13288**: Play the game? (You have $0 gil.) [Play./Don't play.]
- **13289**: Thank you, and good luck!
- **13290**: Move which direction? [Right./Left.]
- **13291**: [Excellentaru!/Awww...] You caught $2 [chick/chicks].
- **13292**: Well, whataru do you know? It's a new record!
- **13293**: Here's your hard-earned prize.
- **13294**: I'll see you again.
- **13295**: Ahhh! A premature exitaru!
- **13296**: You're not supposed to catch mandragoras.
- **13300**: Phew...is it just me, or is it getting hot in here? Man, you look greataru in that outfit! You should try playing the game in hard mode!
- **13301**: What would you like to do? [Learn how to play./Check current high score./Play normal mode./Try hard mode./Nothing.]
- **13302**: In normal mode, you need to catch only 20 chicks in one minute to clear the game.
- **13303**: But it's no cakewalk in hard mode. You'll need at leastaru 35!
- **13304**: Check high score for which mode? [Normal mode./Hard mode./Don't check.]
- **13305**: Normal mode high score: $0 [chick/chicks]. Record holder: %0.
- **13306**: Hard mode high score: $1 [chick/chicks]. Record holder: %1.
- **13309**: You're on fire, adventurer! A red-hotaru display like that deserves a cool, cool prize. Here you go!

## Events

### Event 65535

#### Metadata

| Field        | Value   |
|--------------|---------|
| Entrypoint   | 0x0000  |
| Data Size    | 1 bytes |
| Instructions | 1       |

```
      00 01 02 03 04 05 06 07  08 09 0A 0B 0C 0D 0E 0F
      -- -- -- -- -- -- -- --  -- -- -- -- -- -- -- --
0000: 00                                                .               
```

#### Opcodes

```
  0: 0x0000 [0x00] END_REQSTACK()
```

### Event 801

#### Metadata

| Field        | Value      |
|--------------|------------|
| Entrypoint   | 0x0001     |
| Data Size    | 1749 bytes |
| Instructions | 279        |

```
      00 01 02 03 04 05 06 07  08 09 0A 0B 0C 0D 0E 0F
      -- -- -- -- -- -- -- --  -- -- -- -- -- -- -- --
0000:    42 03 00 00 00 80 03  01 00 00 80 03 58 10 00   B...........X..
0010: 80 03 04 00 00 80 38 01  80 03 02 00 02 10 03 03  ......8.........
0020: 00 03 10 03 04 00 05 10  1E F0 FF FF 7F 1D 02 80  ................
0030: 23 02 04 10 03 80 00 92  01 03 02 10 8B 7F 1D 04  #...............
0040: 80 23 02 02 00 00 80 00  57 00 02 03 00 00 80 00  .#......W.......
0050: 57 00 03 00 00 05 80 24  06 80 00 80 00 00 25 02  W......$......%.
0060: 00 10 00 80 00 79 00 1D  07 80 23 1D 08 80 23 1D  .....y....#...#.
0070: 09 80 23 01 57 00 01 8F  01 02 00 10 03 80 00 E2  ..#.W...........
0080: 00 02 02 00 00 80 00 99  00 02 03 00 00 80 01 96  ................
0090: 00 03 01 00 03 80 01 A6  00 02 03 00 00 80 00 A6  ................
00A0: 00 03 01 00 05 80 24 0A  80 00 80 01 00 25 02 00  ......$......%..
00B0: 10 00 80 00 C5 00 03 02  10 02 00 1D 0B 80 23 01  ..............#.
00C0: A6 00 01 DC 00 02 00 10  03 80 00 DC 00 03 03 10  ................
00D0: 03 00 1D 0C 80 23 01 A6  00 01 DC 00 01 57 00 01  .....#.......W..
00E0: 8F 01 02 00 10 05 80 00  36 01 03 02 10 0D 80 1D  ........6.......
00F0: 0E 80 23 03 01 10 03 80  43 00 43 01 24 0F 80 03  ..#.....C.C.$...
0100: 80 00 80 25 02 00 10 03  80 00 12 01 01 57 00 01  ...%.........W..
0110: 12 01 03 01 10 05 80 43  00 43 01 02 02 10 03 80  .......C.C......
0120: 00 33 01 40 10 80 11 80  01 10 03 80 1D 12 80 23  .3.@...........#
0130: 1A 2A 02 01 8F 01 02 00  10 13 80 00 8F 01 03 02  .*..............
0140: 10 0D 80 1D 0E 80 23 03  01 10 03 80 43 00 43 01  ......#.....C.C.
0150: 24 0F 80 03 80 00 80 25  02 00 10 03 80 00 66 01  $......%......f.
0160: 01 57 00 01 66 01 03 01  10 05 80 43 00 43 01 03  .W..f......C.C..
0170: 58 10 03 80 02 02 10 03  80 00 8C 01 40 10 80 11  X...........@...
0180: 80 01 10 03 80 1D 12 80  23 1A 2A 02 01 8F 01 01  ........#.*.....
0190: 28 02 02 02 00 00 80 00  9F 01 03 00 00 05 80 24  (..............$
01A0: 14 80 00 80 00 00 25 02  00 10 00 80 00 BD 01 1D  ......%.........
01B0: 07 80 23 1D 15 80 23 01  9F 01 01 28 02 02 00 10  ..#...#....(....
01C0: 03 80 00 D4 01 03 02 10  02 00 1D 16 80 23 01 9F  .............#..
01D0: 01 01 28 02 02 00 10 05  80 00 28 02 03 02 10 0D  ..(.......(.....
01E0: 80 1D 0E 80 23 03 01 10  03 80 43 00 43 01 24 0F  ....#.....C.C.$.
01F0: 80 03 80 00 80 25 02 00  10 03 80 00 04 02 01 9F  .....%..........
0200: 01 01 04 02 03 01 10 05  80 43 00 43 01 02 02 10  .........C.C....
0210: 03 80 00 25 02 40 10 80  11 80 01 10 03 80 1D 12  ...%.@..........
0220: 80 23 1A 2A 02 01 28 02  21 00 45 17 80 F8 FF FF  .#.*..(.!.E.....
0230: 7F F8 FF FF 7F 66 64 6F  31 00 80 55 17 80 F8 FF  .....fdo1..U....
0240: FF 7F F8 FF FF 7F 66 64  6F 31 46 01 38 18 80 77  ......fdo1F.8..w
0250: 19 80 00 80 2F 00 74 11  0F 01 4E 00 74 11 0F 01  ..../.t...N.t...
0260: 2F 00 75 11 0F 01 4E 00  75 11 0F 01 2F 00 76 11  /.u...N.u.../.v.
0270: 0F 01 4E 00 76 11 0F 01  2F 00 77 11 0F 01 4E 00  ..N.v.../.w...N.
0280: 77 11 0F 01 2F 00 78 11  0F 01 4E 00 78 11 0F 01  w.../.x...N.x...
0290: 2F 00 79 11 0F 01 4E 00  79 11 0F 01 2F 00 7A 11  /.y...N.y.../.z.
02A0: 0F 01 4E 00 7A 11 0F 01  2F 00 7E 11 0F 01 4E 00  ..N.z.../.~...N.
02B0: 7E 11 0F 01 2F 00 7F 11  0F 01 4E 00 7F 11 0F 01  ~.../.....N.....
02C0: 2F 00 80 11 0F 01 4E 00  80 11 0F 01 2F 00 73 11  /.....N...../.s.
02D0: 0F 01 4E 00 73 11 0F 01  2F 00 72 11 0F 01 BA 74  ..N.s.../.r....t
02E0: 11 0F 01 1A 80 1B 80 1C  80 1D 80 BA 75 11 0F 01  ............u...
02F0: 1E 80 1F 80 1C 80 20 80  BA 76 11 0F 01 21 80 22  ...... ..v...!."
0300: 80 1C 80 23 80 BA 77 11  0F 01 24 80 25 80 1C 80  ...#..w...$.%...
0310: 23 80 BA 78 11 0F 01 1E  80 1F 80 1C 80 20 80 BA  #..x......... ..
0320: 79 11 0F 01 21 80 22 80  1C 80 23 80 BA 7A 11 0F  y...!."...#..z..
0330: 01 24 80 25 80 1C 80 23  80 BA 7E 11 0F 01 26 80  .$.%...#..~...&.
0340: 27 80 1C 80 20 80 BA 7F  11 0F 01 28 80 29 80 1C  '... ......(.)..
0350: 80 23 80 BA 80 11 0F 01  2A 80 2B 80 1C 80 23 80  .#......*.+...#.
0360: BA 73 11 0F 01 2C 80 2D  80 1C 80 2E 80 80 73 11  .s...,.-......s.
0370: 0F 01 27 05 73 11 0F 01  02 80 74 11 0F 01 80 75  ..'.s.....t....u
0380: 11 0F 01 80 76 11 0F 01  80 77 11 0F 01 80 78 11  ....v....w....x.
0390: 0F 01 80 79 11 0F 01 80  7A 11 0F 01 80 7E 11 0F  ...y....z....~..
03A0: 01 80 7F 11 0F 01 80 80  11 0F 01 02 58 10 03 80  ............X...
03B0: 00 0D 04 2F 00 7B 11 0F  01 4E 00 7B 11 0F 01 2F  .../.{...N.{.../
03C0: 00 7C 11 0F 01 4E 00 7C  11 0F 01 2F 00 7D 11 0F  .|...N.|.../.}..
03D0: 01 4E 00 7D 11 0F 01 BA  7B 11 0F 01 1E 80 1F 80  .N.}....{.......
03E0: 1C 80 20 80 BA 7C 11 0F  01 21 80 22 80 1C 80 23  .. ..|...!."...#
03F0: 80 BA 7D 11 0F 01 24 80  25 80 1C 80 23 80 80 7B  ..}...$.%...#..{
0400: 11 0F 01 80 7C 11 0F 01  80 7D 11 0F 01 03 4F 10  ....|....}....O.
0410: 03 80 03 50 10 00 80 03  51 10 00 80 03 52 10 00  ...P....Q....R..
0420: 80 03 00 00 00 80 03 54  10 00 80 03 55 10 00 80  .......T....U...
0430: 03 56 10 00 80 03 57 10  00 80 1C 2F 80 2C 73 11  .V....W..../.,s.
0440: 0F 01 73 11 0F 01 73 70  30 31 45 30 80 F8 FF FF  ..s...sp01E0....
0450: 7F F8 FF FF 7F 73 30 30  30 00 80 1C 31 80 45 17  .....s000...1.E.
0460: 80 F8 FF FF 7F F8 FF FF  7F 66 64 69 31 00 80 27  .........fdi1..'
0470: 05 75 11 0F 01 02 27 05  76 11 0F 01 02 27 05 77  .u....'.v....'.w
0480: 11 0F 01 02 27 05 78 11  0F 01 02 27 05 79 11 0F  ....'.x....'.y..
0490: 01 02 27 05 7A 11 0F 01  02 02 58 10 03 80 00 B6  ..'.z.....X.....
04A0: 04 27 05 7B 11 0F 01 02  27 05 7C 11 0F 01 02 27  .'.{....'.|....'
04B0: 05 7D 11 0F 01 02 27 05  7E 11 0F 01 02 27 05 7F  .}....'.~....'..
04C0: 11 0F 01 02 27 05 80 11  0F 01 02 27 05 72 11 0F  ....'......'.r..
04D0: 01 02 03 53 10 00 80 02  52 10 00 80 00 80 05 24  ...S....R......$
04E0: 32 80 00 80 00 00 25 02  00 10 00 80 00 32 05 02  2.....%......2..
04F0: 53 10 00 80 00 2F 05 02  4F 10 00 80 00 0E 05 29  S..../..O......)
0500: 05 74 11 0F 01 02 03 00  00 00 80 01 1D 05 02 4F  .t.............O
0510: 10 03 80 00 1D 05 29 05  74 11 0F 01 03 07 4F 10  ......).t.....O.
0520: 03 80 02 4F 10 05 80 00  2F 05 03 00 00 03 80 01  ...O..../.......
0530: 7D 05 02 00 10 03 80 00  7D 05 02 53 10 00 80 00  }.......}..S....
0540: 7A 05 02 4F 10 05 80 00  59 05 29 05 74 11 0F 01  z..O....Y.).t...
0550: 02 03 00 00 00 80 01 68  05 02 4F 10 03 80 00 68  .......h..O....h
0560: 05 29 05 74 11 0F 01 04  08 4F 10 03 80 02 4F 10  .).t.....O....O.
0570: 00 80 00 7A 05 03 00 00  05 80 01 7D 05 01 D7 04  ...z.......}....
0580: 45 17 80 F8 FF FF 7F F8  FF FF 7F 66 64 6F 31 00  E..........fdo1.
0590: 80 55 17 80 F8 FF FF 7F  F8 FF FF 7F 66 64 6F 31  .U..........fdo1
05A0: 02 52 10 05 80 00 BD 05  45 30 80 F8 FF FF 7F F8  .R......E0......
05B0: FF FF 7F 6F 77 72 69 00  80 1D 33 80 23 52 30 80  ...owri...3.#R0.
05C0: F8 FF FF 7F F8 FF FF 7F  73 30 30 30 78 03 50 10  ........s000x.P.
05D0: 03 80 38 00 80 46 00 1C  2F 80 45 17 80 F8 FF FF  ..8..F../.E.....
05E0: 7F F8 FF FF 7F 66 64 69  30 00 80 55 17 80 F8 FF  .....fdi0..U....
05F0: FF 7F F8 FF FF 7F 66 64  69 30 02 52 10 05 80 00  ......fdi0.R....
0600: 0D 06 1D 34 80 23 1D 35  80 23 01 D5 06 02 58 10  ...4.#.5.#....X.
0610: 00 80 00 6F 06 02 51 10  36 80 04 55 06 03 02 10  ...o..Q.6..U....
0620: 00 80 03 03 10 8B 7F 03  04 10 51 10 1D 37 80 23  ..........Q..7.#
0630: 02 02 00 51 10 03 45 06  1D 38 80 23 40 05 80 39  ...Q..E..8.#@..9
0640: 80 01 10 51 10 1D 3A 80  23 40 00 80 03 80 01 10  ...Q..:.#@......
0650: 00 80 01 6C 06 03 02 10  03 80 03 03 10 8B 7F 03  ...l............
0660: 04 10 51 10 1D 37 80 23  1D 35 80 23 01 D5 06 02  ..Q..7.#.5.#....
0670: 51 10 3B 80 04 BE 06 03  02 10 00 80 03 03 10 8B  Q.;.............
0680: 7F 03 04 10 51 10 1D 37  80 23 02 03 00 51 10 03  ....Q..7.#...Q..
0690: 9F 06 1D 38 80 23 40 0D  80 3C 80 01 10 51 10 02  ...8.#@..<...Q..
06A0: 04 00 00 80 00 AE 06 1D  3D 80 23 01 B2 06 1D 3A  ........=.#....:
06B0: 80 23 40 00 80 03 80 01  10 03 80 01 D5 06 03 02  .#@.............
06C0: 10 03 80 03 03 10 8B 7F  03 04 10 51 10 1D 37 80  ...........Q..7.
06D0: 23 1D 35 80 23 1B                                 #.5.#.          
```

#### Opcodes

```
  0: 0x0001 [0x42] SET_CLI_EVENT_CANCEL_DATA()
  1: 0x0002 [0x03] ExtData[1]->WorkLocal[0] = 0*
  2: 0x0007 [0x03] ExtData[1]->WorkLocal[1] = 0*
  3: 0x000C [0x03] Work_Zone[88] = 0*
  4: 0x0011 [0x03] ExtData[1]->WorkLocal[4] = 0*
  5: 0x0016 [0x38] SET_CLIENT_EVENT_MODE(mode=8*)
  6: 0x0019 [0x03] ExtData[1]->WorkLocal[2] = Work_Zone[2]
  7: 0x001E [0x03] ExtData[1]->WorkLocal[3] = Work_Zone[3]
  8: 0x0023 [0x03] ExtData[1]->WorkLocal[4] = Work_Zone[5]
  9: 0x0028 [0x1E] EventEntity looks at LocalPlayer and starts talking
 10: 0x002D [0x1D] PRINT_EVENT_MESSAGE(message_id=13282*)
    → "Hellooo! Welcome to the Chocobo Chick Catchery!"
 11: 0x0030 [0x23] WAIT_FOR_DIALOG_INTERACTION
 12: 0x0031 [0x02] IF !(Work_Zone[4] == 1*) GOTO 0x0192
 13: 0x0039 [0x03] Work_Zone[2] = (LocalPlayer->Render.Flags01 >> 25) & 1
 14: 0x003E [0x1D] PRINT_EVENT_MESSAGE(message_id=13300*)
    → "Phew...is it just me, or is it getting hot in here? Man, you look greataru in that outfit! You should try playing the game in hard mode!"
 15: 0x0041 [0x23] WAIT_FOR_DIALOG_INTERACTION
 16: 0x0042 [0x02] IF !(ExtData[1]->WorkLocal[2] == 0*) GOTO 0x0057
 17: 0x004A [0x02] IF !(ExtData[1]->WorkLocal[3] == 0*) GOTO 0x0057
 18: 0x0052 [0x03] ExtData[1]->WorkLocal[0] = 2*
 19: 0x0057 [0x24] CREATE_DIALOG(message_id=13301*, default_option=0*, option_flags=ExtData[1]->WorkLocal[0])
    → "What would you like to do? [Learn how to play./Check current high score./Play normal mode./Try hard mode./Nothing.]"
 20: 0x005E [0x25] WAIT_DIALOG_SELECT()
 21: 0x005F [0x02] IF !(Work_Zone[0] == 0*) GOTO 0x0079
 22: 0x0067 [0x1D] PRINT_EVENT_MESSAGE(message_id=13284*)
    → "Catch as many chicks as you can by moving the chocobo left and rightaru. But make sure you don't pick up any mandragoras by mistakey-wake! That'll mean the end of the game!"
 23: 0x006A [0x23] WAIT_FOR_DIALOG_INTERACTION
 24: 0x006B [0x1D] PRINT_EVENT_MESSAGE(message_id=13302*)
    → "In normal mode, you need to catch only 20 chicks in one minute to clear the game."
 25: 0x006E [0x23] WAIT_FOR_DIALOG_INTERACTION
 26: 0x006F [0x1D] PRINT_EVENT_MESSAGE(message_id=13303*)
    → "But it's no cakewalk in hard mode. You'll need at leastaru 35!"
 27: 0x0072 [0x23] WAIT_FOR_DIALOG_INTERACTION
 28: 0x0073 [0x01] GOTO 0x0057

SUBROUTINE_00A6:
 29: 0x00A6 [0x24] CREATE_DIALOG(message_id=13304*, default_option=0*, option_flags=ExtData[1]->WorkLocal[1])
    → "Check high score for which mode? [Normal mode./Hard mode./Don't check.]"
 30: 0x00AD [0x25] WAIT_DIALOG_SELECT()
 31: 0x00AE [0x02] IF !(Work_Zone[0] == 0*) GOTO 0x00C5
 32: 0x00B6 [0x03] Work_Zone[2] = ExtData[1]->WorkLocal[2]
 33: 0x00BB [0x1D] PRINT_EVENT_MESSAGE(message_id=13305*)
    → "Normal mode high score: $0 [chick/chicks]. Record holder: %0."
 34: 0x00BE [0x23] WAIT_FOR_DIALOG_INTERACTION
 35: 0x00BF [0x01] GOTO 0x00A6

SUBROUTINE_00DC:
 36: 0x00DC [0x01] GOTO 0x0057

SUBROUTINE_0112:
 37: 0x0112 [0x03] Work_Zone[1] = 2*
 38: 0x0117 [0x43] SEND_EVENT_UPDATE: Send pending tag to server (packet 0x005B)
 39: 0x0119 [0x43] SEND_EVENT_UPDATE: Check pending flag (skip if not pending)
 40: 0x011B [0x02] IF !(Work_Zone[2] == 1*) GOTO 0x0133
 41: 0x0123 [0x40] SET_BIT_WORK_RANGE(start_bit=18*, end_bit=19*, target=Work_Zone[1], source=1*)
 42: 0x012C [0x1D] PRINT_EVENT_MESSAGE(message_id=13289*)
    → "Thank you, and good luck!"
 43: 0x012F [0x23] WAIT_FOR_DIALOG_INTERACTION
 44: 0x0130 [0x1A] CALL_SUBROUTINE(address=0x022A)
 45: 0x0133 [0x01] GOTO 0x018F
 46: 0x0136 [0x02] IF !(Work_Zone[0] == 3*) GOTO 0x018F
 47: 0x013E [0x03] Work_Zone[2] = 10*
 48: 0x0143 [0x1D] PRINT_EVENT_MESSAGE(message_id=13287*)
    → "It's $0 gil to play."
 49: 0x0146 [0x23] WAIT_FOR_DIALOG_INTERACTION
 50: 0x0147 [0x03] Work_Zone[1] = 1*
 51: 0x014C [0x43] SEND_EVENT_UPDATE: Send pending tag to server (packet 0x005B)
 52: 0x014E [0x43] SEND_EVENT_UPDATE: Check pending flag (skip if not pending)
 53: 0x0150 [0x24] CREATE_DIALOG(message_id=13288*, default_option=1*, option_flags=0*)
    → "Play the game? (You have $0 gil.) [Play./Don't play.]"
 54: 0x0157 [0x25] WAIT_DIALOG_SELECT()
 55: 0x0158 [0x02] IF !(Work_Zone[0] == 1*) GOTO 0x0166
 56: 0x0160 [0x01] GOTO 0x0057

SUBROUTINE_0166:
 57: 0x0166 [0x03] Work_Zone[1] = 2*
 58: 0x016B [0x43] SEND_EVENT_UPDATE: Send pending tag to server (packet 0x005B)
 59: 0x016D [0x43] SEND_EVENT_UPDATE: Check pending flag (skip if not pending)
 60: 0x016F [0x03] Work_Zone[88] = 1*
 61: 0x0174 [0x02] IF !(Work_Zone[2] == 1*) GOTO 0x018C
 62: 0x017C [0x40] SET_BIT_WORK_RANGE(start_bit=18*, end_bit=19*, target=Work_Zone[1], source=1*)
 63: 0x0185 [0x1D] PRINT_EVENT_MESSAGE(message_id=13289*)
    → "Thank you, and good luck!"
 64: 0x0188 [0x23] WAIT_FOR_DIALOG_INTERACTION
 65: 0x0189 [0x1A] CALL_SUBROUTINE(address=0x022A)
 66: 0x018C [0x01] GOTO 0x018F

SUBROUTINE_018F:
 67: 0x018F [0x01] GOTO 0x0228
 68: 0x0192 [0x02] IF !(ExtData[1]->WorkLocal[2] == 0*) GOTO 0x019F
 69: 0x019A [0x03] ExtData[1]->WorkLocal[0] = 2*

SUBROUTINE_019F:
 70: 0x019F [0x24] CREATE_DIALOG(message_id=13283*, default_option=0*, option_flags=ExtData[1]->WorkLocal[0])
    → "What would you like to do? [Learn how to play./Check current high score./Have a go!/Nothing.]"
 71: 0x01A6 [0x25] WAIT_DIALOG_SELECT()
 72: 0x01A7 [0x02] IF !(Work_Zone[0] == 0*) GOTO 0x01BD
 73: 0x01AF [0x1D] PRINT_EVENT_MESSAGE(message_id=13284*)
    → "Catch as many chicks as you can by moving the chocobo left and rightaru. But make sure you don't pick up any mandragoras by mistakey-wake! That'll mean the end of the game!"
 74: 0x01B2 [0x23] WAIT_FOR_DIALOG_INTERACTION
 75: 0x01B3 [0x1D] PRINT_EVENT_MESSAGE(message_id=13285*)
    → "You need to catch at leastaru 20 chicks in one minute to clear the game."
 76: 0x01B6 [0x23] WAIT_FOR_DIALOG_INTERACTION
 77: 0x01B7 [0x01] GOTO 0x019F

SUBROUTINE_0204:
 78: 0x0204 [0x03] Work_Zone[1] = 2*
 79: 0x0209 [0x43] SEND_EVENT_UPDATE: Send pending tag to server (packet 0x005B)
 80: 0x020B [0x43] SEND_EVENT_UPDATE: Check pending flag (skip if not pending)
 81: 0x020D [0x02] IF !(Work_Zone[2] == 1*) GOTO 0x0225
 82: 0x0215 [0x40] SET_BIT_WORK_RANGE(start_bit=18*, end_bit=19*, target=Work_Zone[1], source=1*)
 83: 0x021E [0x1D] PRINT_EVENT_MESSAGE(message_id=13289*)
    → "Thank you, and good luck!"
 84: 0x0221 [0x23] WAIT_FOR_DIALOG_INTERACTION
 85: 0x0222 [0x1A] CALL_SUBROUTINE(address=0x022A)
 86: 0x0225 [0x01] GOTO 0x0228

SUBROUTINE_0228:
 87: 0x0228 [0x21] END_EVENT
 88: 0x0229 [0x00] END_REQSTACK()

SUBROUTINE_022A:
 89: 0x022A [0x45] LOAD_SCHEDULED_TASK: Load scheduler "fdo1" with entities [EventEntity, EventEntity], work=[200*, 0*]
 90: 0x023B [0x55] WAIT_LOAD_SCHEDULER: Wait for scheduler "fdo1" with entities [EventEntity, EventEntity], work=200*
 91: 0x024A [0x46] CAMERA_CONTROL: Disable user control
 92: 0x024C [0x38] SET_CLIENT_EVENT_MODE(mode=27*)
 93: 0x024F [0x77] SET_EVENT_TIME_WEATHER(hour=12*, weather=0*)
 94: 0x0254 [0x2F] Unnamed NPC (ID: 17764724/0x010F1174)->Render.Flags0 &= ~0x80000 // Bit 19
 95: 0x025A [0x4E] SET_ENTITY_HIDE_FLAG: Show Unnamed NPC (ID: 17764724/0x010F1174)
 96: 0x0260 [0x2F] Unnamed NPC (ID: 17764725/0x010F1175)->Render.Flags0 &= ~0x80000 // Bit 19
 97: 0x0266 [0x4E] SET_ENTITY_HIDE_FLAG: Show Unnamed NPC (ID: 17764725/0x010F1175)
 98: 0x026C [0x2F] Unnamed NPC (ID: 17764726/0x010F1176)->Render.Flags0 &= ~0x80000 // Bit 19
 99: 0x0272 [0x4E] SET_ENTITY_HIDE_FLAG: Show Unnamed NPC (ID: 17764726/0x010F1176)
100: 0x0278 [0x2F] Unnamed NPC (ID: 17764727/0x010F1177)->Render.Flags0 &= ~0x80000 // Bit 19
101: 0x027E [0x4E] SET_ENTITY_HIDE_FLAG: Show Unnamed NPC (ID: 17764727/0x010F1177)
102: 0x0284 [0x2F] Unnamed NPC (ID: 17764728/0x010F1178)->Render.Flags0 &= ~0x80000 // Bit 19
103: 0x028A [0x4E] SET_ENTITY_HIDE_FLAG: Show Unnamed NPC (ID: 17764728/0x010F1178)
104: 0x0290 [0x2F] Unnamed NPC (ID: 17764729/0x010F1179)->Render.Flags0 &= ~0x80000 // Bit 19
105: 0x0296 [0x4E] SET_ENTITY_HIDE_FLAG: Show Unnamed NPC (ID: 17764729/0x010F1179)
106: 0x029C [0x2F] Unnamed NPC (ID: 17764730/0x010F117A)->Render.Flags0 &= ~0x80000 // Bit 19
107: 0x02A2 [0x4E] SET_ENTITY_HIDE_FLAG: Show Unnamed NPC (ID: 17764730/0x010F117A)
108: 0x02A8 [0x2F] Unnamed NPC (ID: 17764734/0x010F117E)->Render.Flags0 &= ~0x80000 // Bit 19
109: 0x02AE [0x4E] SET_ENTITY_HIDE_FLAG: Show Unnamed NPC (ID: 17764734/0x010F117E)
110: 0x02B4 [0x2F] Unnamed NPC (ID: 17764735/0x010F117F)->Render.Flags0 &= ~0x80000 // Bit 19
111: 0x02BA [0x4E] SET_ENTITY_HIDE_FLAG: Show Unnamed NPC (ID: 17764735/0x010F117F)
112: 0x02C0 [0x2F] Unnamed NPC (ID: 17764736/0x010F1180)->Render.Flags0 &= ~0x80000 // Bit 19
113: 0x02C6 [0x4E] SET_ENTITY_HIDE_FLAG: Show Unnamed NPC (ID: 17764736/0x010F1180)
114: 0x02CC [0x2F] Unnamed NPC (ID: 17764723/0x010F1173)->Render.Flags0 &= ~0x80000 // Bit 19
115: 0x02D2 [0x4E] SET_ENTITY_HIDE_FLAG: Show Unnamed NPC (ID: 17764723/0x010F1173)
116: 0x02D8 [0x2F] Unnamed NPC (ID: 17764722/0x010F1172)->Render.Flags0 &= ~0x80000 // Bit 19
117: 0x02DE [0xBA] SET_ENTITY_POSITION(entity_id=Unnamed NPC (ID: 17764724/0x010F1174), pos_x=-0.586*, pos_z=-78.582*, pos_y=2.999*, direction=289.1°*)
118: 0x02EB [0xBA] SET_ENTITY_POSITION(entity_id=Unnamed NPC (ID: 17764725/0x010F1175), pos_x=1.568*, pos_z=-72.247*, pos_y=2.999*, direction=100.5°*)
119: 0x02F8 [0xBA] SET_ENTITY_POSITION(entity_id=Unnamed NPC (ID: 17764726/0x010F1176), pos_x=4.380*, pos_z=-73.202*, pos_y=2.999*, direction=97.0°*)
120: 0x0305 [0xBA] SET_ENTITY_POSITION(entity_id=Unnamed NPC (ID: 17764727/0x010F1177), pos_x=-1.550*, pos_z=-71.014*, pos_y=2.999*, direction=97.0°*)
121: 0x0312 [0xBA] SET_ENTITY_POSITION(entity_id=Unnamed NPC (ID: 17764728/0x010F1178), pos_x=1.568*, pos_z=-72.247*, pos_y=2.999*, direction=100.5°*)
122: 0x031F [0xBA] SET_ENTITY_POSITION(entity_id=Unnamed NPC (ID: 17764729/0x010F1179), pos_x=4.380*, pos_z=-73.202*, pos_y=2.999*, direction=97.0°*)
123: 0x032C [0xBA] SET_ENTITY_POSITION(entity_id=Unnamed NPC (ID: 17764730/0x010F117A), pos_x=-1.550*, pos_z=-71.014*, pos_y=2.999*, direction=97.0°*)
124: 0x0339 [0xBA] SET_ENTITY_POSITION(entity_id=Unnamed NPC (ID: 17764734/0x010F117E), pos_x=1.853*, pos_z=-71.880*, pos_y=2.999*, direction=100.5°*)
125: 0x0346 [0xBA] SET_ENTITY_POSITION(entity_id=Unnamed NPC (ID: 17764735/0x010F117F), pos_x=4.591*, pos_z=-72.720*, pos_y=2.999*, direction=97.0°*)
126: 0x0353 [0xBA] SET_ENTITY_POSITION(entity_id=Unnamed NPC (ID: 17764736/0x010F1180), pos_x=-1.324*, pos_z=-70.562*, pos_y=2.999*, direction=97.0°*)
127: 0x0360 [0xBA] SET_ENTITY_POSITION(entity_id=Unnamed NPC (ID: 17764723/0x010F1173), pos_x=-0.258*, pos_z=-77.801*, pos_y=2.999*, direction=290.4°*)
128: 0x036D [0x80] LOAD_WAIT(entity=Unnamed NPC (ID: 17764723/0x010F1173))
129: 0x0372 [0x27] REQ_SET(priority=0x05, entity_id=Unnamed NPC (ID: 17764723/0x010F1173), tag_num=0x02)
130: 0x0379 [0x80] LOAD_WAIT(entity=Unnamed NPC (ID: 17764724/0x010F1174))
131: 0x037E [0x80] LOAD_WAIT(entity=Unnamed NPC (ID: 17764725/0x010F1175))
132: 0x0383 [0x80] LOAD_WAIT(entity=Unnamed NPC (ID: 17764726/0x010F1176))
133: 0x0388 [0x80] LOAD_WAIT(entity=Unnamed NPC (ID: 17764727/0x010F1177))
134: 0x038D [0x80] LOAD_WAIT(entity=Unnamed NPC (ID: 17764728/0x010F1178))
135: 0x0392 [0x80] LOAD_WAIT(entity=Unnamed NPC (ID: 17764729/0x010F1179))
136: 0x0397 [0x80] LOAD_WAIT(entity=Unnamed NPC (ID: 17764730/0x010F117A))
137: 0x039C [0x80] LOAD_WAIT(entity=Unnamed NPC (ID: 17764734/0x010F117E))
138: 0x03A1 [0x80] LOAD_WAIT(entity=Unnamed NPC (ID: 17764735/0x010F117F))
139: 0x03A6 [0x80] LOAD_WAIT(entity=Unnamed NPC (ID: 17764736/0x010F1180))
140: 0x03AB [0x02] IF !(Work_Zone[88] == 1*) GOTO 0x040D
141: 0x03B3 [0x2F] Unnamed NPC (ID: 17764731/0x010F117B)->Render.Flags0 &= ~0x80000 // Bit 19
142: 0x03B9 [0x4E] SET_ENTITY_HIDE_FLAG: Show Unnamed NPC (ID: 17764731/0x010F117B)
143: 0x03BF [0x2F] Unnamed NPC (ID: 17764732/0x010F117C)->Render.Flags0 &= ~0x80000 // Bit 19
144: 0x03C5 [0x4E] SET_ENTITY_HIDE_FLAG: Show Unnamed NPC (ID: 17764732/0x010F117C)
145: 0x03CB [0x2F] Unnamed NPC (ID: 17764733/0x010F117D)->Render.Flags0 &= ~0x80000 // Bit 19
146: 0x03D1 [0x4E] SET_ENTITY_HIDE_FLAG: Show Unnamed NPC (ID: 17764733/0x010F117D)
147: 0x03D7 [0xBA] SET_ENTITY_POSITION(entity_id=Unnamed NPC (ID: 17764731/0x010F117B), pos_x=1.568*, pos_z=-72.247*, pos_y=2.999*, direction=100.5°*)
148: 0x03E4 [0xBA] SET_ENTITY_POSITION(entity_id=Unnamed NPC (ID: 17764732/0x010F117C), pos_x=4.380*, pos_z=-73.202*, pos_y=2.999*, direction=97.0°*)
149: 0x03F1 [0xBA] SET_ENTITY_POSITION(entity_id=Unnamed NPC (ID: 17764733/0x010F117D), pos_x=-1.550*, pos_z=-71.014*, pos_y=2.999*, direction=97.0°*)
150: 0x03FE [0x80] LOAD_WAIT(entity=Unnamed NPC (ID: 17764731/0x010F117B))
151: 0x0403 [0x80] LOAD_WAIT(entity=Unnamed NPC (ID: 17764732/0x010F117C))
152: 0x0408 [0x80] LOAD_WAIT(entity=Unnamed NPC (ID: 17764733/0x010F117D))
153: 0x040D [0x03] Work_Zone[79] = 1*
154: 0x0412 [0x03] Work_Zone[80] = 0*
155: 0x0417 [0x03] Work_Zone[81] = 0*
156: 0x041C [0x03] Work_Zone[82] = 0*
157: 0x0421 [0x03] ExtData[1]->WorkLocal[0] = 0*
158: 0x0426 [0x03] Work_Zone[84] = 0*
159: 0x042B [0x03] Work_Zone[85] = 0*
160: 0x0430 [0x03] Work_Zone[86] = 0*
161: 0x0435 [0x03] Work_Zone[87] = 0*
162: 0x043A [0x1C] WAIT(60* ticks)
163: 0x043D [0x2C] CREATE_SCHEDULER_TASK: Create scheduler "sp01" with entities [Unnamed NPC (ID: 17764723/0x010F1173), Unnamed NPC (ID: 17764723/0x010F1173)]
164: 0x044A [0x45] LOAD_SCHEDULED_TASK: Load scheduler "s000" with entities [EventEntity, EventEntity], work=[337*, 0*]
165: 0x045B [0x1C] WAIT(15* ticks)
166: 0x045E [0x45] LOAD_SCHEDULED_TASK: Load scheduler "fdi1" with entities [EventEntity, EventEntity], work=[200*, 0*]
167: 0x046F [0x27] REQ_SET(priority=0x05, entity_id=Unnamed NPC (ID: 17764725/0x010F1175), tag_num=0x02)
168: 0x0476 [0x27] REQ_SET(priority=0x05, entity_id=Unnamed NPC (ID: 17764726/0x010F1176), tag_num=0x02)
169: 0x047D [0x27] REQ_SET(priority=0x05, entity_id=Unnamed NPC (ID: 17764727/0x010F1177), tag_num=0x02)
170: 0x0484 [0x27] REQ_SET(priority=0x05, entity_id=Unnamed NPC (ID: 17764728/0x010F1178), tag_num=0x02)
171: 0x048B [0x27] REQ_SET(priority=0x05, entity_id=Unnamed NPC (ID: 17764729/0x010F1179), tag_num=0x02)
172: 0x0492 [0x27] REQ_SET(priority=0x05, entity_id=Unnamed NPC (ID: 17764730/0x010F117A), tag_num=0x02)
173: 0x0499 [0x02] IF !(Work_Zone[88] == 1*) GOTO 0x04B6
174: 0x04A1 [0x27] REQ_SET(priority=0x05, entity_id=Unnamed NPC (ID: 17764731/0x010F117B), tag_num=0x02)
175: 0x04A8 [0x27] REQ_SET(priority=0x05, entity_id=Unnamed NPC (ID: 17764732/0x010F117C), tag_num=0x02)
176: 0x04AF [0x27] REQ_SET(priority=0x05, entity_id=Unnamed NPC (ID: 17764733/0x010F117D), tag_num=0x02)
177: 0x04B6 [0x27] REQ_SET(priority=0x05, entity_id=Unnamed NPC (ID: 17764734/0x010F117E), tag_num=0x02)
178: 0x04BD [0x27] REQ_SET(priority=0x05, entity_id=Unnamed NPC (ID: 17764735/0x010F117F), tag_num=0x02)
179: 0x04C4 [0x27] REQ_SET(priority=0x05, entity_id=Unnamed NPC (ID: 17764736/0x010F1180), tag_num=0x02)
180: 0x04CB [0x27] REQ_SET(priority=0x05, entity_id=Unnamed NPC (ID: 17764722/0x010F1172), tag_num=0x02)
181: 0x04D2 [0x03] Work_Zone[83] = 0*

SUBROUTINE_04D7:
182: 0x04D7 [0x02] IF !(Work_Zone[82] == 0*) GOTO 0x0580
183: 0x04DF [0x24] CREATE_DIALOG(message_id=13290*, default_option=0*, option_flags=ExtData[1]->WorkLocal[0])
    → "Move which direction? [Right./Left.]"
184: 0x04E6 [0x25] WAIT_DIALOG_SELECT()
185: 0x04E7 [0x02] IF !(Work_Zone[0] == 0*) GOTO 0x0532
186: 0x04EF [0x02] IF !(Work_Zone[83] == 0*) GOTO 0x052F
187: 0x04F7 [0x02] IF !(Work_Zone[79] == 0*) GOTO 0x050E
188: 0x04FF [0x29] REQ_SET_WAIT(priority=0x05, entity_id=Unnamed NPC (ID: 17764724/0x010F1174), tag_num=0x02)
189: 0x0506 [0x03] ExtData[1]->WorkLocal[0] = 0*
190: 0x050B [0x01] GOTO 0x051D
191: 0x050E [0x02] IF !(Work_Zone[79] == 1*) GOTO 0x051D
192: 0x0516 [0x29] REQ_SET_WAIT(priority=0x05, entity_id=Unnamed NPC (ID: 17764724/0x010F1174), tag_num=0x03)

SUBROUTINE_051D:
193: 0x051D [0x07] Work_Zone[79] += 1*
194: 0x0522 [0x02] IF !(Work_Zone[79] == 2*) GOTO 0x052F
195: 0x052A [0x03] ExtData[1]->WorkLocal[0] = 1*
196: 0x052F [0x01] GOTO 0x057D
197: 0x0532 [0x02] IF !(Work_Zone[0] == 1*) GOTO 0x057D
198: 0x053A [0x02] IF !(Work_Zone[83] == 0*) GOTO 0x057A
199: 0x0542 [0x02] IF !(Work_Zone[79] == 2*) GOTO 0x0559
200: 0x054A [0x29] REQ_SET_WAIT(priority=0x05, entity_id=Unnamed NPC (ID: 17764724/0x010F1174), tag_num=0x02)
201: 0x0551 [0x03] ExtData[1]->WorkLocal[0] = 0*
202: 0x0556 [0x01] GOTO 0x0568
203: 0x0559 [0x02] IF !(Work_Zone[79] == 1*) GOTO 0x0568
204: 0x0561 [0x29] REQ_SET_WAIT(priority=0x05, entity_id=Unnamed NPC (ID: 17764724/0x010F1174), tag_num=0x04)

SUBROUTINE_0568:
205: 0x0568 [0x08] Work_Zone[79] -= 1*
206: 0x056D [0x02] IF !(Work_Zone[79] == 0*) GOTO 0x057A
207: 0x0575 [0x03] ExtData[1]->WorkLocal[0] = 2*
208: 0x057A [0x01] GOTO 0x057D

SUBROUTINE_057D:
209: 0x057D [0x01] GOTO 0x04D7
210: 0x0580 [0x45] LOAD_SCHEDULED_TASK: Load scheduler "fdo1" with entities [EventEntity, EventEntity], work=[200*, 0*]
211: 0x0591 [0x55] WAIT_LOAD_SCHEDULER: Wait for scheduler "fdo1" with entities [EventEntity, EventEntity], work=200*
212: 0x05A0 [0x02] IF !(Work_Zone[82] == 2*) GOTO 0x05BD
213: 0x05A8 [0x45] LOAD_SCHEDULED_TASK: Load scheduler "owri" with entities [EventEntity, EventEntity], work=[337*, 0*]
214: 0x05B9 [0x1D] PRINT_EVENT_MESSAGE(message_id=13295*)
    → "Ahhh! A premature exitaru!"
215: 0x05BC [0x23] WAIT_FOR_DIALOG_INTERACTION
216: 0x05BD [0x52] END_LOAD_SCHEDULER: End scheduler "s000" with entities [EventEntity, EventEntity], work=337*
217: 0x05CC [0x78] ENABLE_GAME_TIMER_RESET_WEATHER()
218: 0x05CD [0x03] Work_Zone[80] = 1*
219: 0x05D2 [0x38] SET_CLIENT_EVENT_MODE(mode=0*)
220: 0x05D5 [0x46] CAMERA_CONTROL: Restore default settings
221: 0x05D7 [0x1C] WAIT(60* ticks)
222: 0x05DA [0x45] LOAD_SCHEDULED_TASK: Load scheduler "fdi0" with entities [EventEntity, EventEntity], work=[200*, 0*]
223: 0x05EB [0x55] WAIT_LOAD_SCHEDULER: Wait for scheduler "fdi0" with entities [EventEntity, EventEntity], work=200*
224: 0x05FA [0x02] IF !(Work_Zone[82] == 2*) GOTO 0x060D
225: 0x0602 [0x1D] PRINT_EVENT_MESSAGE(message_id=13296*)
    → "You're not supposed to catch mandragoras."
226: 0x0605 [0x23] WAIT_FOR_DIALOG_INTERACTION
227: 0x0606 [0x1D] PRINT_EVENT_MESSAGE(message_id=13294*)
    → "I'll see you again."
228: 0x0609 [0x23] WAIT_FOR_DIALOG_INTERACTION
229: 0x060A [0x01] GOTO 0x06D5
230: 0x060D [0x02] IF !(Work_Zone[88] == 0*) GOTO 0x066F
231: 0x0615 [0x02] IF !(Work_Zone[81] < 20*) GOTO 0x0655
232: 0x061D [0x03] Work_Zone[2] = 0*
233: 0x0622 [0x03] Work_Zone[3] = (LocalPlayer->Render.Flags01 >> 25) & 1
234: 0x0627 [0x03] Work_Zone[4] = Work_Zone[81]
235: 0x062C [0x1D] PRINT_EVENT_MESSAGE(message_id=13291*)
    → "[Excellentaru!/Awww...] You caught $2 [chick/chicks]."
236: 0x062F [0x23] WAIT_FOR_DIALOG_INTERACTION
237: 0x0630 [0x02] IF !(ExtData[1]->WorkLocal[2] >= Work_Zone[81]) GOTO 0x0645
238: 0x0638 [0x1D] PRINT_EVENT_MESSAGE(message_id=13292*)
    → "Well, whataru do you know? It's a new record!"
239: 0x063B [0x23] WAIT_FOR_DIALOG_INTERACTION
240: 0x063C [0x40] SET_BIT_WORK_RANGE(start_bit=2*, end_bit=9*, target=Work_Zone[1], source=Work_Zone[81])
241: 0x0645 [0x1D] PRINT_EVENT_MESSAGE(message_id=13293*)
    → "Here's your hard-earned prize."
242: 0x0648 [0x23] WAIT_FOR_DIALOG_INTERACTION
243: 0x0649 [0x40] SET_BIT_WORK_RANGE(start_bit=0*, end_bit=1*, target=Work_Zone[1], source=0*)
244: 0x0652 [0x01] GOTO 0x066C
245: 0x0655 [0x03] Work_Zone[2] = 1*
246: 0x065A [0x03] Work_Zone[3] = (LocalPlayer->Render.Flags01 >> 25) & 1
247: 0x065F [0x03] Work_Zone[4] = Work_Zone[81]
248: 0x0664 [0x1D] PRINT_EVENT_MESSAGE(message_id=13291*)
    → "[Excellentaru!/Awww...] You caught $2 [chick/chicks]."
249: 0x0667 [0x23] WAIT_FOR_DIALOG_INTERACTION
250: 0x0668 [0x1D] PRINT_EVENT_MESSAGE(message_id=13294*)
    → "I'll see you again."
251: 0x066B [0x23] WAIT_FOR_DIALOG_INTERACTION

SUBROUTINE_066C:
252: 0x066C [0x01] GOTO 0x06D5
253: 0x066F [0x02] IF !(Work_Zone[81] < 35*) GOTO 0x06BE
254: 0x0677 [0x03] Work_Zone[2] = 0*
255: 0x067C [0x03] Work_Zone[3] = (LocalPlayer->Render.Flags01 >> 25) & 1
256: 0x0681 [0x03] Work_Zone[4] = Work_Zone[81]
257: 0x0686 [0x1D] PRINT_EVENT_MESSAGE(message_id=13291*)
    → "[Excellentaru!/Awww...] You caught $2 [chick/chicks]."
258: 0x0689 [0x23] WAIT_FOR_DIALOG_INTERACTION
259: 0x068A [0x02] IF !(ExtData[1]->WorkLocal[3] >= Work_Zone[81]) GOTO 0x069F
260: 0x0692 [0x1D] PRINT_EVENT_MESSAGE(message_id=13292*)
    → "Well, whataru do you know? It's a new record!"
261: 0x0695 [0x23] WAIT_FOR_DIALOG_INTERACTION
262: 0x0696 [0x40] SET_BIT_WORK_RANGE(start_bit=10*, end_bit=17*, target=Work_Zone[1], source=Work_Zone[81])
263: 0x069F [0x02] IF !(ExtData[1]->WorkLocal[4] == 0*) GOTO 0x06AE
264: 0x06A7 [0x1D] PRINT_EVENT_MESSAGE(message_id=13309*)
    → "You're on fire, adventurer! A red-hotaru display like that deserves a cool, cool prize. Here you go!"
265: 0x06AA [0x23] WAIT_FOR_DIALOG_INTERACTION
266: 0x06AB [0x01] GOTO 0x06B2
267: 0x06AE [0x1D] PRINT_EVENT_MESSAGE(message_id=13293*)
    → "Here's your hard-earned prize."
268: 0x06B1 [0x23] WAIT_FOR_DIALOG_INTERACTION

SUBROUTINE_06B2:
269: 0x06B2 [0x40] SET_BIT_WORK_RANGE(start_bit=0*, end_bit=1*, target=Work_Zone[1], source=1*)
270: 0x06BB [0x01] GOTO 0x06D5
271: 0x06BE [0x03] Work_Zone[2] = 1*
272: 0x06C3 [0x03] Work_Zone[3] = (LocalPlayer->Render.Flags01 >> 25) & 1
273: 0x06C8 [0x03] Work_Zone[4] = Work_Zone[81]
274: 0x06CD [0x1D] PRINT_EVENT_MESSAGE(message_id=13291*)
    → "[Excellentaru!/Awww...] You caught $2 [chick/chicks]."
275: 0x06D0 [0x23] WAIT_FOR_DIALOG_INTERACTION
276: 0x06D1 [0x1D] PRINT_EVENT_MESSAGE(message_id=13294*)
    → "I'll see you again."
277: 0x06D4 [0x23] WAIT_FOR_DIALOG_INTERACTION

SUBROUTINE_06D5:
278: 0x06D5 [0x1B] RETURN
```

#### Data or dead code:

```
# Dead code (unreachable instructions):
     0x0076 [0x01] GOTO 0x018F
# Dead code (unreachable instructions):
     0x00C2 [0x01] GOTO 0x00DC
     0x00D9 [0x01] GOTO 0x00DC
# Dead code (unreachable instructions):
     0x00DF [0x01] GOTO 0x018F
     0x010F [0x01] GOTO 0x0112
# Dead code (unreachable instructions):
     0x0163 [0x01] GOTO 0x0166
# Dead code (unreachable instructions):
     0x01BA [0x01] GOTO 0x0228
     0x01D1 [0x01] GOTO 0x0228
     0x0201 [0x01] GOTO 0x0204
```
