# 17764467 - Bopa Greso

## Common Data

| Field            | Value                    |
|------------------|--------------------------|
| Zone             | Windurst Woods (ID: 241) |
| Block Size       | 872 bytes                |
| Total Events     | 28                       |
| References Count | 39                       |

## List of Events

| Event ID                 | Entrypoint   |   Size |   Instructions |
|--------------------------|--------------|--------|----------------|
| [65535](#event-65535)    | 0x0000       |      1 |              1 |
| [65535.1](#event-655351) | 0x0001       |     16 |              2 |
| [65535.2](#event-655352) | 0x0011       |     22 |              4 |
| [65535.3](#event-655353) | 0x0027       |     16 |              2 |
| [65535.4](#event-655354) | 0x0037       |     14 |              2 |
| [65535.5](#event-655355) | 0x0045       |      9 |              3 |
| [77](#event-77)          | 0x004E       |     33 |             12 |
| [84](#event-84)          | 0x006F       |     33 |             12 |
| [90](#event-90)          | 0x0090       |     33 |             12 |
| [96](#event-96)          | 0x00B1       |     33 |             12 |
| [388](#event-388)        | 0x00D2       |     33 |             12 |
| [167](#event-167)        | 0x00F3       |     33 |             12 |
| [171](#event-171)        | 0x0114       |     29 |             10 |
| [174](#event-174)        | 0x0131       |     33 |             12 |
| [499](#event-499)        | 0x0152       |     29 |             10 |
| [500](#event-500)        | 0x016F       |     33 |             12 |
| [504](#event-504)        | 0x0190       |      1 |              1 |
| [65535.6](#event-655356) | 0x0191       |     10 |              2 |
| [65535.7](#event-655357) | 0x019B       |     21 |              7 |
| [65535.8](#event-655358) | 0x01B0       |      5 |              3 |
| [506](#event-506)        | 0x01B5       |     19 |             10 |
| [510](#event-510)        | 0x01C8       |     15 |              8 |
| [512](#event-512)        | 0x01D7       |      1 |              1 |
| [516](#event-516)        | 0x01D8       |      1 |              1 |
| [65535.9](#event-655359) | 0x01D9       |     23 |              7 |
| [515](#event-515)        | 0x01F0       |     33 |             12 |
| [519](#event-519)        | 0x0211       |     29 |             10 |
| [522](#event-522)        | 0x022E       |     29 |             10 |

## DAT References (imed_data)

|   Index | Hex Value   |   Dec Value |
|---------|-------------|-------------|
|       0 | 0x0167      |         359 |
|       1 | 0x001E      |          30 |
|       2 | 0x0165      |         357 |
|       3 | 0x1DAA      |        7594 |
|       4 | 0x1DAB      |        7595 |
|       5 | 0x1DB7      |        7607 |
|       6 | 0x1DB8      |        7608 |
|       7 | 0x1DC2      |        7618 |
|       8 | 0x1DC3      |        7619 |
|       9 | 0x1DD4      |        7636 |
|      10 | 0x1DD5      |        7637 |
|      11 | 0x20FA      |        8442 |
|      12 | 0x20FB      |        8443 |
|      13 | 0x1E9A      |        7834 |
|      14 | 0x1E9B      |        7835 |
|      15 | 0x1EA3      |        7843 |
|      16 | 0x1EA6      |        7846 |
|      17 | 0x1EA7      |        7847 |
|      18 | 0x2278      |        8824 |
|      19 | 0x227C      |        8828 |
|      20 | 0x227D      |        8829 |
|      21 | 0xDE67      |       56935 |
|      22 | 0x3A522     |      238882 |
|      23 | 0xFFFFEC4D  |  4294962253 |
|      24 | 0x010C      |         268 |
|      25 | 0x000D      |          13 |
|      26 | 0xF2F8      |       62200 |
|      27 | 0x3A78C     |      239500 |
|      28 | 0xFFFFED72  |  4294962546 |
|      29 | 0x2299      |        8857 |
|      30 | 0x229E      |        8862 |
|      31 | 0x229F      |        8863 |
|      32 | 0x22A7      |        8871 |
|      33 | 0x22B4      |        8884 |
|      34 | 0x22B5      |        8885 |
|      35 | 0x22C0      |        8896 |
|      36 | 0x22C1      |        8897 |
|      37 | 0x22CF      |        8911 |
|      38 | 0x22D2      |        8914 |

## String References

- **7594**: Heh-heh-heh... I wouldn't wander around this area unless you have good reason to... It could be dangerrrous!
- **7595**: Haven't you ever heard the name of "Nanaa Mihgo"? Well, this is herrr house!
- **7607**: What? You want to make frrriends with Nanaa Mihgo? Well, you've got no chance of that right now, have you?
- **7608**: If you want to run with the top cat, you'll have to be the right kind of rogue firrrst!
- **7618**: $1 are illegal contraband, so they naturally fetch a high price through the properrr channels.
- **7619**: So curious little catspaws like you are more than welcome! With your help, we'll make a killing!
- **7636**: Well, if we've only learned one thing, it's this--it's farrr better to set our sights on the travelers in the port area.
- **7637**: The travelers in Windurst Woods are all merchants who keep their guard up, or the occasional idiot who carries around a strange rock as if it's a precious jewel. Not worth the efforrrt, is it?
- **7834**: You also want that book we found, don't you? Then you'll be needing something to trade the top cat with!
- **7835**: Heh-heh-heh... We don't deal in cold, hard gil, you know? We much preferrr small and pretty valuables...
- **7843**: I'm surprrrised you were able to find what we wanted. Now I can harrrdly wait to join the top cat in making the deal with you. Heh-heh-heh...
- **7846**: Some Carrrdians were carrying several larrrge boxes out of the Priming Gate in Windurst Walls.
- **7847**: It was fun pulling a swift one on them, but it wasn't worrrth the trouble. Don't you darrre say crime doesn't pay!
- **8442**: You did put the you-know-what into a metal box and sink it in the sea as we were told to, didn't you?
- **8443**: You've got a cat's chance in hell of getting me to steal something like that again! Next time, you do the stealing, and I do the sinking, okay?
- **8824**: The Tenshodo is one of the biggest dealers of merchandise in all of Vana'diel. An adventurer like you has surely heard of it.
- **8828**: You don't hearrr the name Atarefaunet around these parts that often. I heard that he was pretty famous in the west, though.
- **8829**: At the time, Atarefaunet's band was loaded with the best of the best. They say that some of the memberrrs were even professional killers, so you had better watch your back.
- **8857**: We tailed them to their hideouts. Herrre, I wrote the locations down for you.
- **8862**: From what I saw, to meet with the member in the Goblin store in Jeuno, you have to try your hand at a game of chance.
- **8863**: Esca was furrrious at being forced to play over and over just because of her bad luck. Are you feeling lucky?
- **8871**: We had our troubles, too. The member I went after told me, "Thieves need to be fleet on their feet." I had to chase that villain around for hourrrs.
- **8884**: Vauderame is a man of many secrets.
- **8885**: Nobody really knows his background, and he loses us every time we try to tail him. There's something dangerous about that man.
- **8896**: Vauderame is a very mysterrrious character. He's been in the Tenshodo for ten years, quietly building up his current standing.
- **8897**: I get the sense that he's made a deliberrrate effort to rrreach a position that allows him to move freely while keeping a low profile.
- **8911**: Atarefaunet's band is rumored to contain prrrofessional killers, so keep on your toes and keep out of sight. They're a dangerrrous bunch.
- **8914**: When I checked at the Tenshodo, Vauderame was nowhere to be found. It's like he just popped out of existence...

## Events

### Event 65535

#### Metadata

| Field        | Value   |
|--------------|---------|
| Entrypoint   | 0x0000  |
| Data Size    | 1 bytes |
| Instructions | 1       |

```
      00 01 02 03 04 05 06 07  08 09 0A 0B 0C 0D 0E 0F
      -- -- -- -- -- -- -- --  -- -- -- -- -- -- -- --
0000: 00                                                .               
```

#### Opcodes

```
  0: 0x0000 [0x00] END_REQSTACK()
```

### Event 65535.1

#### Metadata

| Field        | Value    |
|--------------|----------|
| Entrypoint   | 0x0001   |
| Data Size    | 16 bytes |
| Instructions | 2        |

```
      00 01 02 03 04 05 06 07  08 09 0A 0B 0C 0D 0E 0F
      -- -- -- -- -- -- -- --  -- -- -- -- -- -- -- --
0000:    5B 00 80 F8 FF FF 7F  F8 FF FF 7F 74 6C 6B 30   [..........tlk0
0010: 00                                                .               
```

#### Opcodes

```
  0: 0x0001 [0x5B] LOAD_EXT_SCHEDULER: Load scheduler "tlk0" with entities [EventEntity, EventEntity], work=359*
  1: 0x0010 [0x00] END_REQSTACK()
```

### Event 65535.2

#### Metadata

| Field        | Value    |
|--------------|----------|
| Entrypoint   | 0x0011   |
| Data Size    | 22 bytes |
| Instructions | 4        |

```
      00 01 02 03 04 05 06 07  08 09 0A 0B 0C 0D 0E 0F
      -- -- -- -- -- -- -- --  -- -- -- -- -- -- -- --
0010:    53 F8 FF FF 7F F8 FF  FF 7F 74 6C 6B 30 5E 69   S........tlk0^i
0020: 64 6C 30 1C 01 80 00                              dl0....         
```

#### Opcodes

```
  0: 0x0011 [0x53] WAIT_SCHEDULER_TASK: Wait for scheduler "tlk0" with entities [EventEntity, EventEntity]
  1: 0x001E [0x5E] EventEntity goes idle (kills current action) (animation: "idl0")
  2: 0x0023 [0x1C] WAIT(30* ticks)
  3: 0x0026 [0x00] END_REQSTACK()
```

### Event 65535.3

#### Metadata

| Field        | Value    |
|--------------|----------|
| Entrypoint   | 0x0027   |
| Data Size    | 16 bytes |
| Instructions | 2        |

```
      00 01 02 03 04 05 06 07  08 09 0A 0B 0C 0D 0E 0F
      -- -- -- -- -- -- -- --  -- -- -- -- -- -- -- --
0020:                      5B  02 80 F8 FF FF 7F F8 FF         [........
0030: FF 7F 70 61 73 30 00                              ..pas0.         
```

#### Opcodes

```
  0: 0x0027 [0x5B] LOAD_EXT_SCHEDULER: Load scheduler "pas0" with entities [EventEntity, EventEntity], work=357*
  1: 0x0036 [0x00] END_REQSTACK()
```

### Event 65535.4

#### Metadata

| Field        | Value    |
|--------------|----------|
| Entrypoint   | 0x0037   |
| Data Size    | 14 bytes |
| Instructions | 2        |

```
      00 01 02 03 04 05 06 07  08 09 0A 0B 0C 0D 0E 0F
      -- -- -- -- -- -- -- --  -- -- -- -- -- -- -- --
0030:                      53  F8 FF FF 7F F8 FF FF 7F         S........
0040: 70 61 73 30 00                                    pas0.           
```

#### Opcodes

```
  0: 0x0037 [0x53] WAIT_SCHEDULER_TASK: Wait for scheduler "pas0" with entities [EventEntity, EventEntity]
  1: 0x0044 [0x00] END_REQSTACK()
```

### Event 65535.5

#### Metadata

| Field        | Value   |
|--------------|---------|
| Entrypoint   | 0x0045  |
| Data Size    | 9 bytes |
| Instructions | 3       |

```
      00 01 02 03 04 05 06 07  08 09 0A 0B 0C 0D 0E 0F
      -- -- -- -- -- -- -- --  -- -- -- -- -- -- -- --
0040:                5E 69 64  6C 30 1C 01 80 00             ^idl0....  
```

#### Opcodes

```
  0: 0x0045 [0x5E] EventEntity goes idle (kills current action) (animation: "idl0")
  1: 0x004A [0x1C] WAIT(30* ticks)
  2: 0x004D [0x00] END_REQSTACK()
```

### Event 77

#### Metadata

| Field        | Value    |
|--------------|----------|
| Entrypoint   | 0x004E   |
| Data Size    | 33 bytes |
| Instructions | 12       |

```
      00 01 02 03 04 05 06 07  08 09 0A 0B 0C 0D 0E 0F
      -- -- -- -- -- -- -- --  -- -- -- -- -- -- -- --
0040:                                            1E F0                ..
0050: FF FF 7F 6F 70 29 08 73  10 0F 01 01 1D 03 80 23  ...op).s.......#
0060: 1D 04 80 23 29 08 73 10  0F 01 05 20 00 21 00     ...#).s.... .!. 
```

#### Opcodes

```
  0: 0x004E [0x1E] EventEntity looks at LocalPlayer and starts talking
  1: 0x0053 [0x6F] WAIT_FRAME_DELAY: Yield until WaitTime reaches zero
  2: 0x0054 [0x70] WAIT_ENTITY_RENDER_FLAG: Wait while EventEntity->Render.Flags3 bit 2 is set (cancel turn if not)
  3: 0x0055 [0x29] REQ_SET_WAIT(priority=0x08, entity_id=Bopa Greso (ID: 17764467/0x010F1073), tag_num=0x01)
  4: 0x005C [0x1D] PRINT_EVENT_MESSAGE(message_id=7594*)
    → "Heh-heh-heh... I wouldn't wander around this area unless you have good reason to... It could be dangerrrous!"
  5: 0x005F [0x23] WAIT_FOR_DIALOG_INTERACTION
  6: 0x0060 [0x1D] PRINT_EVENT_MESSAGE(message_id=7595*)
    → "Haven't you ever heard the name of "Nanaa Mihgo"? Well, this is herrr house!"
  7: 0x0063 [0x23] WAIT_FOR_DIALOG_INTERACTION
  8: 0x0064 [0x29] REQ_SET_WAIT(priority=0x08, entity_id=Bopa Greso (ID: 17764467/0x010F1073), tag_num=0x05)
  9: 0x006B [0x20] SET_CLI_EVENT_UC_FLAG: Unlock player control
 10: 0x006D [0x21] END_EVENT
 11: 0x006E [0x00] END_REQSTACK()
```

### Event 84

#### Metadata

| Field        | Value    |
|--------------|----------|
| Entrypoint   | 0x006F   |
| Data Size    | 33 bytes |
| Instructions | 12       |

```
      00 01 02 03 04 05 06 07  08 09 0A 0B 0C 0D 0E 0F
      -- -- -- -- -- -- -- --  -- -- -- -- -- -- -- --
0060:                                               1E                 .
0070: F0 FF FF 7F 6F 70 29 08  73 10 0F 01 01 1D 05 80  ....op).s.......
0080: 23 1D 06 80 23 29 08 73  10 0F 01 05 20 00 21 00  #...#).s.... .!.
```

#### Opcodes

```
  0: 0x006F [0x1E] EventEntity looks at LocalPlayer and starts talking
  1: 0x0074 [0x6F] WAIT_FRAME_DELAY: Yield until WaitTime reaches zero
  2: 0x0075 [0x70] WAIT_ENTITY_RENDER_FLAG: Wait while EventEntity->Render.Flags3 bit 2 is set (cancel turn if not)
  3: 0x0076 [0x29] REQ_SET_WAIT(priority=0x08, entity_id=Bopa Greso (ID: 17764467/0x010F1073), tag_num=0x01)
  4: 0x007D [0x1D] PRINT_EVENT_MESSAGE(message_id=7607*)
    → "What? You want to make frrriends with Nanaa Mihgo? Well, you've got no chance of that right now, have you?"
  5: 0x0080 [0x23] WAIT_FOR_DIALOG_INTERACTION
  6: 0x0081 [0x1D] PRINT_EVENT_MESSAGE(message_id=7608*)
    → "If you want to run with the top cat, you'll have to be the right kind of rogue firrrst!"
  7: 0x0084 [0x23] WAIT_FOR_DIALOG_INTERACTION
  8: 0x0085 [0x29] REQ_SET_WAIT(priority=0x08, entity_id=Bopa Greso (ID: 17764467/0x010F1073), tag_num=0x05)
  9: 0x008C [0x20] SET_CLI_EVENT_UC_FLAG: Unlock player control
 10: 0x008E [0x21] END_EVENT
 11: 0x008F [0x00] END_REQSTACK()
```

### Event 90

#### Metadata

| Field        | Value    |
|--------------|----------|
| Entrypoint   | 0x0090   |
| Data Size    | 33 bytes |
| Instructions | 12       |

```
      00 01 02 03 04 05 06 07  08 09 0A 0B 0C 0D 0E 0F
      -- -- -- -- -- -- -- --  -- -- -- -- -- -- -- --
0090: 1E F0 FF FF 7F 6F 70 29  08 73 10 0F 01 01 1D 07  .....op).s......
00A0: 80 23 1D 08 80 23 29 08  73 10 0F 01 05 20 00 21  .#...#).s.... .!
00B0: 00                                                .               
```

#### Opcodes

```
  0: 0x0090 [0x1E] EventEntity looks at LocalPlayer and starts talking
  1: 0x0095 [0x6F] WAIT_FRAME_DELAY: Yield until WaitTime reaches zero
  2: 0x0096 [0x70] WAIT_ENTITY_RENDER_FLAG: Wait while EventEntity->Render.Flags3 bit 2 is set (cancel turn if not)
  3: 0x0097 [0x29] REQ_SET_WAIT(priority=0x08, entity_id=Bopa Greso (ID: 17764467/0x010F1073), tag_num=0x01)
  4: 0x009E [0x1D] PRINT_EVENT_MESSAGE(message_id=7618*)
    → "$1 are illegal contraband, so they naturally fetch a high price through the properrr channels."
  5: 0x00A1 [0x23] WAIT_FOR_DIALOG_INTERACTION
  6: 0x00A2 [0x1D] PRINT_EVENT_MESSAGE(message_id=7619*)
    → "So curious little catspaws like you are more than welcome! With your help, we'll make a killing!"
  7: 0x00A5 [0x23] WAIT_FOR_DIALOG_INTERACTION
  8: 0x00A6 [0x29] REQ_SET_WAIT(priority=0x08, entity_id=Bopa Greso (ID: 17764467/0x010F1073), tag_num=0x05)
  9: 0x00AD [0x20] SET_CLI_EVENT_UC_FLAG: Unlock player control
 10: 0x00AF [0x21] END_EVENT
 11: 0x00B0 [0x00] END_REQSTACK()
```

### Event 96

#### Metadata

| Field        | Value    |
|--------------|----------|
| Entrypoint   | 0x00B1   |
| Data Size    | 33 bytes |
| Instructions | 12       |

```
      00 01 02 03 04 05 06 07  08 09 0A 0B 0C 0D 0E 0F
      -- -- -- -- -- -- -- --  -- -- -- -- -- -- -- --
00B0:    1E F0 FF FF 7F 6F 70  29 08 73 10 0F 01 01 1D   .....op).s.....
00C0: 09 80 23 1D 0A 80 23 29  08 73 10 0F 01 05 20 00  ..#...#).s.... .
00D0: 21 00                                             !.              
```

#### Opcodes

```
  0: 0x00B1 [0x1E] EventEntity looks at LocalPlayer and starts talking
  1: 0x00B6 [0x6F] WAIT_FRAME_DELAY: Yield until WaitTime reaches zero
  2: 0x00B7 [0x70] WAIT_ENTITY_RENDER_FLAG: Wait while EventEntity->Render.Flags3 bit 2 is set (cancel turn if not)
  3: 0x00B8 [0x29] REQ_SET_WAIT(priority=0x08, entity_id=Bopa Greso (ID: 17764467/0x010F1073), tag_num=0x01)
  4: 0x00BF [0x1D] PRINT_EVENT_MESSAGE(message_id=7636*)
    → "Well, if we've only learned one thing, it's this--it's farrr better to set our sights on the travelers in the port area."
  5: 0x00C2 [0x23] WAIT_FOR_DIALOG_INTERACTION
  6: 0x00C3 [0x1D] PRINT_EVENT_MESSAGE(message_id=7637*)
    → "The travelers in Windurst Woods are all merchants who keep their guard up, or the occasional idiot who carries around a strange rock as if it's a precious jewel. Not worth the efforrrt, is it?"
  7: 0x00C6 [0x23] WAIT_FOR_DIALOG_INTERACTION
  8: 0x00C7 [0x29] REQ_SET_WAIT(priority=0x08, entity_id=Bopa Greso (ID: 17764467/0x010F1073), tag_num=0x05)
  9: 0x00CE [0x20] SET_CLI_EVENT_UC_FLAG: Unlock player control
 10: 0x00D0 [0x21] END_EVENT
 11: 0x00D1 [0x00] END_REQSTACK()
```

### Event 388

#### Metadata

| Field        | Value    |
|--------------|----------|
| Entrypoint   | 0x00D2   |
| Data Size    | 33 bytes |
| Instructions | 12       |

```
      00 01 02 03 04 05 06 07  08 09 0A 0B 0C 0D 0E 0F
      -- -- -- -- -- -- -- --  -- -- -- -- -- -- -- --
00D0:       1E F0 FF FF 7F 6F  70 29 08 73 10 0F 01 01    .....op).s....
00E0: 1D 0B 80 23 1D 0C 80 23  29 08 73 10 0F 01 05 20  ...#...#).s.... 
00F0: 00 21 00                                          .!.             
```

#### Opcodes

```
  0: 0x00D2 [0x1E] EventEntity looks at LocalPlayer and starts talking
  1: 0x00D7 [0x6F] WAIT_FRAME_DELAY: Yield until WaitTime reaches zero
  2: 0x00D8 [0x70] WAIT_ENTITY_RENDER_FLAG: Wait while EventEntity->Render.Flags3 bit 2 is set (cancel turn if not)
  3: 0x00D9 [0x29] REQ_SET_WAIT(priority=0x08, entity_id=Bopa Greso (ID: 17764467/0x010F1073), tag_num=0x01)
  4: 0x00E0 [0x1D] PRINT_EVENT_MESSAGE(message_id=8442*)
    → "You did put the you-know-what into a metal box and sink it in the sea as we were told to, didn't you?"
  5: 0x00E3 [0x23] WAIT_FOR_DIALOG_INTERACTION
  6: 0x00E4 [0x1D] PRINT_EVENT_MESSAGE(message_id=8443*)
    → "You've got a cat's chance in hell of getting me to steal something like that again! Next time, you do the stealing, and I do the sinking, okay?"
  7: 0x00E7 [0x23] WAIT_FOR_DIALOG_INTERACTION
  8: 0x00E8 [0x29] REQ_SET_WAIT(priority=0x08, entity_id=Bopa Greso (ID: 17764467/0x010F1073), tag_num=0x05)
  9: 0x00EF [0x20] SET_CLI_EVENT_UC_FLAG: Unlock player control
 10: 0x00F1 [0x21] END_EVENT
 11: 0x00F2 [0x00] END_REQSTACK()
```

### Event 167

#### Metadata

| Field        | Value    |
|--------------|----------|
| Entrypoint   | 0x00F3   |
| Data Size    | 33 bytes |
| Instructions | 12       |

```
      00 01 02 03 04 05 06 07  08 09 0A 0B 0C 0D 0E 0F
      -- -- -- -- -- -- -- --  -- -- -- -- -- -- -- --
00F0:          1E F0 FF FF 7F  6F 70 29 08 73 10 0F 01     .....op).s...
0100: 01 1D 0D 80 23 1D 0E 80  23 29 08 73 10 0F 01 05  ....#...#).s....
0110: 20 00 21 00                                        .!.            
```

#### Opcodes

```
  0: 0x00F3 [0x1E] EventEntity looks at LocalPlayer and starts talking
  1: 0x00F8 [0x6F] WAIT_FRAME_DELAY: Yield until WaitTime reaches zero
  2: 0x00F9 [0x70] WAIT_ENTITY_RENDER_FLAG: Wait while EventEntity->Render.Flags3 bit 2 is set (cancel turn if not)
  3: 0x00FA [0x29] REQ_SET_WAIT(priority=0x08, entity_id=Bopa Greso (ID: 17764467/0x010F1073), tag_num=0x01)
  4: 0x0101 [0x1D] PRINT_EVENT_MESSAGE(message_id=7834*)
    → "You also want that book we found, don't you? Then you'll be needing something to trade the top cat with!"
  5: 0x0104 [0x23] WAIT_FOR_DIALOG_INTERACTION
  6: 0x0105 [0x1D] PRINT_EVENT_MESSAGE(message_id=7835*)
    → "Heh-heh-heh... We don't deal in cold, hard gil, you know? We much preferrr small and pretty valuables..."
  7: 0x0108 [0x23] WAIT_FOR_DIALOG_INTERACTION
  8: 0x0109 [0x29] REQ_SET_WAIT(priority=0x08, entity_id=Bopa Greso (ID: 17764467/0x010F1073), tag_num=0x05)
  9: 0x0110 [0x20] SET_CLI_EVENT_UC_FLAG: Unlock player control
 10: 0x0112 [0x21] END_EVENT
 11: 0x0113 [0x00] END_REQSTACK()
```

### Event 171

#### Metadata

| Field        | Value    |
|--------------|----------|
| Entrypoint   | 0x0114   |
| Data Size    | 29 bytes |
| Instructions | 10       |

```
      00 01 02 03 04 05 06 07  08 09 0A 0B 0C 0D 0E 0F
      -- -- -- -- -- -- -- --  -- -- -- -- -- -- -- --
0110:             1E F0 FF FF  7F 6F 70 29 08 73 10 0F      .....op).s..
0120: 01 01 1D 0F 80 23 29 08  73 10 0F 01 05 20 00 21  .....#).s.... .!
0130: 00                                                .               
```

#### Opcodes

```
  0: 0x0114 [0x1E] EventEntity looks at LocalPlayer and starts talking
  1: 0x0119 [0x6F] WAIT_FRAME_DELAY: Yield until WaitTime reaches zero
  2: 0x011A [0x70] WAIT_ENTITY_RENDER_FLAG: Wait while EventEntity->Render.Flags3 bit 2 is set (cancel turn if not)
  3: 0x011B [0x29] REQ_SET_WAIT(priority=0x08, entity_id=Bopa Greso (ID: 17764467/0x010F1073), tag_num=0x01)
  4: 0x0122 [0x1D] PRINT_EVENT_MESSAGE(message_id=7843*)
    → "I'm surprrrised you were able to find what we wanted. Now I can harrrdly wait to join the top cat in making the deal with you. Heh-heh-heh..."
  5: 0x0125 [0x23] WAIT_FOR_DIALOG_INTERACTION
  6: 0x0126 [0x29] REQ_SET_WAIT(priority=0x08, entity_id=Bopa Greso (ID: 17764467/0x010F1073), tag_num=0x05)
  7: 0x012D [0x20] SET_CLI_EVENT_UC_FLAG: Unlock player control
  8: 0x012F [0x21] END_EVENT
  9: 0x0130 [0x00] END_REQSTACK()
```

### Event 174

#### Metadata

| Field        | Value    |
|--------------|----------|
| Entrypoint   | 0x0131   |
| Data Size    | 33 bytes |
| Instructions | 12       |

```
      00 01 02 03 04 05 06 07  08 09 0A 0B 0C 0D 0E 0F
      -- -- -- -- -- -- -- --  -- -- -- -- -- -- -- --
0130:    1E F0 FF FF 7F 6F 70  29 08 73 10 0F 01 01 1D   .....op).s.....
0140: 10 80 23 1D 11 80 23 29  08 73 10 0F 01 05 20 00  ..#...#).s.... .
0150: 21 00                                             !.              
```

#### Opcodes

```
  0: 0x0131 [0x1E] EventEntity looks at LocalPlayer and starts talking
  1: 0x0136 [0x6F] WAIT_FRAME_DELAY: Yield until WaitTime reaches zero
  2: 0x0137 [0x70] WAIT_ENTITY_RENDER_FLAG: Wait while EventEntity->Render.Flags3 bit 2 is set (cancel turn if not)
  3: 0x0138 [0x29] REQ_SET_WAIT(priority=0x08, entity_id=Bopa Greso (ID: 17764467/0x010F1073), tag_num=0x01)
  4: 0x013F [0x1D] PRINT_EVENT_MESSAGE(message_id=7846*)
    → "Some Carrrdians were carrying several larrrge boxes out of the Priming Gate in Windurst Walls."
  5: 0x0142 [0x23] WAIT_FOR_DIALOG_INTERACTION
  6: 0x0143 [0x1D] PRINT_EVENT_MESSAGE(message_id=7847*)
    → "It was fun pulling a swift one on them, but it wasn't worrrth the trouble. Don't you darrre say crime doesn't pay!"
  7: 0x0146 [0x23] WAIT_FOR_DIALOG_INTERACTION
  8: 0x0147 [0x29] REQ_SET_WAIT(priority=0x08, entity_id=Bopa Greso (ID: 17764467/0x010F1073), tag_num=0x05)
  9: 0x014E [0x20] SET_CLI_EVENT_UC_FLAG: Unlock player control
 10: 0x0150 [0x21] END_EVENT
 11: 0x0151 [0x00] END_REQSTACK()
```

### Event 499

#### Metadata

| Field        | Value    |
|--------------|----------|
| Entrypoint   | 0x0152   |
| Data Size    | 29 bytes |
| Instructions | 10       |

```
      00 01 02 03 04 05 06 07  08 09 0A 0B 0C 0D 0E 0F
      -- -- -- -- -- -- -- --  -- -- -- -- -- -- -- --
0150:       1E F0 FF FF 7F 6F  70 29 08 73 10 0F 01 01    .....op).s....
0160: 1D 12 80 23 29 08 73 10  0F 01 05 20 00 21 00     ...#).s.... .!. 
```

#### Opcodes

```
  0: 0x0152 [0x1E] EventEntity looks at LocalPlayer and starts talking
  1: 0x0157 [0x6F] WAIT_FRAME_DELAY: Yield until WaitTime reaches zero
  2: 0x0158 [0x70] WAIT_ENTITY_RENDER_FLAG: Wait while EventEntity->Render.Flags3 bit 2 is set (cancel turn if not)
  3: 0x0159 [0x29] REQ_SET_WAIT(priority=0x08, entity_id=Bopa Greso (ID: 17764467/0x010F1073), tag_num=0x01)
  4: 0x0160 [0x1D] PRINT_EVENT_MESSAGE(message_id=8824*)
    → "The Tenshodo is one of the biggest dealers of merchandise in all of Vana'diel. An adventurer like you has surely heard of it."
  5: 0x0163 [0x23] WAIT_FOR_DIALOG_INTERACTION
  6: 0x0164 [0x29] REQ_SET_WAIT(priority=0x08, entity_id=Bopa Greso (ID: 17764467/0x010F1073), tag_num=0x05)
  7: 0x016B [0x20] SET_CLI_EVENT_UC_FLAG: Unlock player control
  8: 0x016D [0x21] END_EVENT
  9: 0x016E [0x00] END_REQSTACK()
```

### Event 500

#### Metadata

| Field        | Value    |
|--------------|----------|
| Entrypoint   | 0x016F   |
| Data Size    | 33 bytes |
| Instructions | 12       |

```
      00 01 02 03 04 05 06 07  08 09 0A 0B 0C 0D 0E 0F
      -- -- -- -- -- -- -- --  -- -- -- -- -- -- -- --
0160:                                               1E                 .
0170: F0 FF FF 7F 6F 70 29 08  73 10 0F 01 01 1D 13 80  ....op).s.......
0180: 23 1D 14 80 23 29 08 73  10 0F 01 05 20 00 21 00  #...#).s.... .!.
```

#### Opcodes

```
  0: 0x016F [0x1E] EventEntity looks at LocalPlayer and starts talking
  1: 0x0174 [0x6F] WAIT_FRAME_DELAY: Yield until WaitTime reaches zero
  2: 0x0175 [0x70] WAIT_ENTITY_RENDER_FLAG: Wait while EventEntity->Render.Flags3 bit 2 is set (cancel turn if not)
  3: 0x0176 [0x29] REQ_SET_WAIT(priority=0x08, entity_id=Bopa Greso (ID: 17764467/0x010F1073), tag_num=0x01)
  4: 0x017D [0x1D] PRINT_EVENT_MESSAGE(message_id=8828*)
    → "You don't hearrr the name Atarefaunet around these parts that often. I heard that he was pretty famous in the west, though."
  5: 0x0180 [0x23] WAIT_FOR_DIALOG_INTERACTION
  6: 0x0181 [0x1D] PRINT_EVENT_MESSAGE(message_id=8829*)
    → "At the time, Atarefaunet's band was loaded with the best of the best. They say that some of the memberrrs were even professional killers, so you had better watch your back."
  7: 0x0184 [0x23] WAIT_FOR_DIALOG_INTERACTION
  8: 0x0185 [0x29] REQ_SET_WAIT(priority=0x08, entity_id=Bopa Greso (ID: 17764467/0x010F1073), tag_num=0x05)
  9: 0x018C [0x20] SET_CLI_EVENT_UC_FLAG: Unlock player control
 10: 0x018E [0x21] END_EVENT
 11: 0x018F [0x00] END_REQSTACK()
```

### Event 504

#### Metadata

| Field        | Value   |
|--------------|---------|
| Entrypoint   | 0x0190  |
| Data Size    | 1 bytes |
| Instructions | 1       |

```
      00 01 02 03 04 05 06 07  08 09 0A 0B 0C 0D 0E 0F
      -- -- -- -- -- -- -- --  -- -- -- -- -- -- -- --
0190: 00                                                .               
```

#### Opcodes

```
  0: 0x0190 [0x00] END_REQSTACK()
```

### Event 65535.6

#### Metadata

| Field        | Value    |
|--------------|----------|
| Entrypoint   | 0x0191   |
| Data Size    | 10 bytes |
| Instructions | 2        |

```
      00 01 02 03 04 05 06 07  08 09 0A 0B 0C 0D 0E 0F
      -- -- -- -- -- -- -- --  -- -- -- -- -- -- -- --
0190:    37 15 80 16 80 17 80  18 80 00                  7.........     
```

#### Opcodes

```
  0: 0x0191 [0x37] UPDATE_EVENT_POSITION_AND_DIR: x=56.935*, z=238.882*, y=-5.043*, direction=23.6°*
  1: 0x019A [0x00] END_REQSTACK()
```

### Event 65535.7

#### Metadata

| Field        | Value    |
|--------------|----------|
| Entrypoint   | 0x019B   |
| Data Size    | 21 bytes |
| Instructions | 7        |

```
      00 01 02 03 04 05 06 07  08 09 0A 0B 0C 0D 0E 0F
      -- -- -- -- -- -- -- --  -- -- -- -- -- -- -- --
0190:                                   32 19 80 1F 00             2....
01A0: 1A 80 1B 80 1C 80 1F 01  1E 72 10 0F 01 6F 70 00  .........r...op.
```

#### Opcodes

```
  0: 0x019B [0x32] ExtData[1]->MainSpeed = 13* * 0.1
  1: 0x019E [0x1F] MOVE_ENTITY: EventEntity moves to X=62.200*, Z=239.500*, Y=-4.750*
  2: 0x01A6 [0x1F] MOVE_ENTITY: Update entity position (mode=1)
  3: 0x01A8 [0x1E] EventEntity looks at Nanaa Mihgo (ID: 17764466/0x010F1072) and starts talking
  4: 0x01AD [0x6F] WAIT_FRAME_DELAY: Yield until WaitTime reaches zero
  5: 0x01AE [0x70] WAIT_ENTITY_RENDER_FLAG: Wait while EventEntity->Render.Flags3 bit 2 is set (cancel turn if not)
  6: 0x01AF [0x00] END_REQSTACK()
```

### Event 65535.8

#### Metadata

| Field        | Value   |
|--------------|---------|
| Entrypoint   | 0x01B0  |
| Data Size    | 5 bytes |
| Instructions | 3       |

```
      00 01 02 03 04 05 06 07  08 09 0A 0B 0C 0D 0E 0F
      -- -- -- -- -- -- -- --  -- -- -- -- -- -- -- --
01B0: 1D 1D 80 23 00                                    ...#.           
```

#### Opcodes

```
  0: 0x01B0 [0x1D] PRINT_EVENT_MESSAGE(message_id=8857*)
    → "We tailed them to their hideouts. Herrre, I wrote the locations down for you."
  1: 0x01B3 [0x23] WAIT_FOR_DIALOG_INTERACTION
  2: 0x01B4 [0x00] END_REQSTACK()
```

### Event 506

#### Metadata

| Field        | Value    |
|--------------|----------|
| Entrypoint   | 0x01B5   |
| Data Size    | 19 bytes |
| Instructions | 10       |

```
      00 01 02 03 04 05 06 07  08 09 0A 0B 0C 0D 0E 0F
      -- -- -- -- -- -- -- --  -- -- -- -- -- -- -- --
01B0:                1E F0 FF  FF 7F 6F 70 1D 1E 80 23       .....op...#
01C0: 1D 1F 80 23 20 00 21 00                           ...# .!.        
```

#### Opcodes

```
  0: 0x01B5 [0x1E] EventEntity looks at LocalPlayer and starts talking
  1: 0x01BA [0x6F] WAIT_FRAME_DELAY: Yield until WaitTime reaches zero
  2: 0x01BB [0x70] WAIT_ENTITY_RENDER_FLAG: Wait while EventEntity->Render.Flags3 bit 2 is set (cancel turn if not)
  3: 0x01BC [0x1D] PRINT_EVENT_MESSAGE(message_id=8862*)
    → "From what I saw, to meet with the member in the Goblin store in Jeuno, you have to try your hand at a game of chance."
  4: 0x01BF [0x23] WAIT_FOR_DIALOG_INTERACTION
  5: 0x01C0 [0x1D] PRINT_EVENT_MESSAGE(message_id=8863*)
    → "Esca was furrrious at being forced to play over and over just because of her bad luck. Are you feeling lucky?"
  6: 0x01C3 [0x23] WAIT_FOR_DIALOG_INTERACTION
  7: 0x01C4 [0x20] SET_CLI_EVENT_UC_FLAG: Unlock player control
  8: 0x01C6 [0x21] END_EVENT
  9: 0x01C7 [0x00] END_REQSTACK()
```

### Event 510

#### Metadata

| Field        | Value    |
|--------------|----------|
| Entrypoint   | 0x01C8   |
| Data Size    | 15 bytes |
| Instructions | 8        |

```
      00 01 02 03 04 05 06 07  08 09 0A 0B 0C 0D 0E 0F
      -- -- -- -- -- -- -- --  -- -- -- -- -- -- -- --
01C0:                          1E F0 FF FF 7F 6F 70 1D          .....op.
01D0: 20 80 23 20 00 21 00                               .# .!.         
```

#### Opcodes

```
  0: 0x01C8 [0x1E] EventEntity looks at LocalPlayer and starts talking
  1: 0x01CD [0x6F] WAIT_FRAME_DELAY: Yield until WaitTime reaches zero
  2: 0x01CE [0x70] WAIT_ENTITY_RENDER_FLAG: Wait while EventEntity->Render.Flags3 bit 2 is set (cancel turn if not)
  3: 0x01CF [0x1D] PRINT_EVENT_MESSAGE(message_id=8871*)
    → "We had our troubles, too. The member I went after told me, "Thieves need to be fleet on their feet." I had to chase that villain around for hourrrs."
  4: 0x01D2 [0x23] WAIT_FOR_DIALOG_INTERACTION
  5: 0x01D3 [0x20] SET_CLI_EVENT_UC_FLAG: Unlock player control
  6: 0x01D5 [0x21] END_EVENT
  7: 0x01D6 [0x00] END_REQSTACK()
```

### Event 512

#### Metadata

| Field        | Value   |
|--------------|---------|
| Entrypoint   | 0x01D7  |
| Data Size    | 1 bytes |
| Instructions | 1       |

```
      00 01 02 03 04 05 06 07  08 09 0A 0B 0C 0D 0E 0F
      -- -- -- -- -- -- -- --  -- -- -- -- -- -- -- --
01D0:                      00                                  .        
```

#### Opcodes

```
  0: 0x01D7 [0x00] END_REQSTACK()
```

### Event 516

#### Metadata

| Field        | Value   |
|--------------|---------|
| Entrypoint   | 0x01D8  |
| Data Size    | 1 bytes |
| Instructions | 1       |

```
      00 01 02 03 04 05 06 07  08 09 0A 0B 0C 0D 0E 0F
      -- -- -- -- -- -- -- --  -- -- -- -- -- -- -- --
01D0:                          00                               .       
```

#### Opcodes

```
  0: 0x01D8 [0x00] END_REQSTACK()
```

### Event 65535.9

#### Metadata

| Field        | Value    |
|--------------|----------|
| Entrypoint   | 0x01D9   |
| Data Size    | 23 bytes |
| Instructions | 7        |

```
      00 01 02 03 04 05 06 07  08 09 0A 0B 0C 0D 0E 0F
      -- -- -- -- -- -- -- --  -- -- -- -- -- -- -- --
01D0:                             29 08 73 10 0F 01 01           ).s....
01E0: 1D 21 80 23 1D 22 80 23  29 08 73 10 0F 01 02 00  .!.#.".#).s.....
```

#### Opcodes

```
  0: 0x01D9 [0x29] REQ_SET_WAIT(priority=0x08, entity_id=Bopa Greso (ID: 17764467/0x010F1073), tag_num=0x01)
  1: 0x01E0 [0x1D] PRINT_EVENT_MESSAGE(message_id=8884*)
    → "Vauderame is a man of many secrets."
  2: 0x01E3 [0x23] WAIT_FOR_DIALOG_INTERACTION
  3: 0x01E4 [0x1D] PRINT_EVENT_MESSAGE(message_id=8885*)
    → "Nobody really knows his background, and he loses us every time we try to tail him. There's something dangerous about that man."
  4: 0x01E7 [0x23] WAIT_FOR_DIALOG_INTERACTION
  5: 0x01E8 [0x29] REQ_SET_WAIT(priority=0x08, entity_id=Bopa Greso (ID: 17764467/0x010F1073), tag_num=0x02)
  6: 0x01EF [0x00] END_REQSTACK()
```

### Event 515

#### Metadata

| Field        | Value    |
|--------------|----------|
| Entrypoint   | 0x01F0   |
| Data Size    | 33 bytes |
| Instructions | 12       |

```
      00 01 02 03 04 05 06 07  08 09 0A 0B 0C 0D 0E 0F
      -- -- -- -- -- -- -- --  -- -- -- -- -- -- -- --
01F0: 1E F0 FF FF 7F 6F 70 29  08 73 10 0F 01 01 1D 23  .....op).s.....#
0200: 80 23 1D 24 80 23 29 08  73 10 0F 01 02 20 00 21  .#.$.#).s.... .!
0210: 00                                                .               
```

#### Opcodes

```
  0: 0x01F0 [0x1E] EventEntity looks at LocalPlayer and starts talking
  1: 0x01F5 [0x6F] WAIT_FRAME_DELAY: Yield until WaitTime reaches zero
  2: 0x01F6 [0x70] WAIT_ENTITY_RENDER_FLAG: Wait while EventEntity->Render.Flags3 bit 2 is set (cancel turn if not)
  3: 0x01F7 [0x29] REQ_SET_WAIT(priority=0x08, entity_id=Bopa Greso (ID: 17764467/0x010F1073), tag_num=0x01)
  4: 0x01FE [0x1D] PRINT_EVENT_MESSAGE(message_id=8896*)
    → "Vauderame is a very mysterrrious character. He's been in the Tenshodo for ten years, quietly building up his current standing."
  5: 0x0201 [0x23] WAIT_FOR_DIALOG_INTERACTION
  6: 0x0202 [0x1D] PRINT_EVENT_MESSAGE(message_id=8897*)
    → "I get the sense that he's made a deliberrrate effort to rrreach a position that allows him to move freely while keeping a low profile."
  7: 0x0205 [0x23] WAIT_FOR_DIALOG_INTERACTION
  8: 0x0206 [0x29] REQ_SET_WAIT(priority=0x08, entity_id=Bopa Greso (ID: 17764467/0x010F1073), tag_num=0x02)
  9: 0x020D [0x20] SET_CLI_EVENT_UC_FLAG: Unlock player control
 10: 0x020F [0x21] END_EVENT
 11: 0x0210 [0x00] END_REQSTACK()
```

### Event 519

#### Metadata

| Field        | Value    |
|--------------|----------|
| Entrypoint   | 0x0211   |
| Data Size    | 29 bytes |
| Instructions | 10       |

```
      00 01 02 03 04 05 06 07  08 09 0A 0B 0C 0D 0E 0F
      -- -- -- -- -- -- -- --  -- -- -- -- -- -- -- --
0210:    1E F0 FF FF 7F 6F 70  29 08 73 10 0F 01 01 1D   .....op).s.....
0220: 25 80 23 29 08 73 10 0F  01 02 20 00 21 00        %.#).s.... .!.  
```

#### Opcodes

```
  0: 0x0211 [0x1E] EventEntity looks at LocalPlayer and starts talking
  1: 0x0216 [0x6F] WAIT_FRAME_DELAY: Yield until WaitTime reaches zero
  2: 0x0217 [0x70] WAIT_ENTITY_RENDER_FLAG: Wait while EventEntity->Render.Flags3 bit 2 is set (cancel turn if not)
  3: 0x0218 [0x29] REQ_SET_WAIT(priority=0x08, entity_id=Bopa Greso (ID: 17764467/0x010F1073), tag_num=0x01)
  4: 0x021F [0x1D] PRINT_EVENT_MESSAGE(message_id=8911*)
    → "Atarefaunet's band is rumored to contain prrrofessional killers, so keep on your toes and keep out of sight. They're a dangerrrous bunch."
  5: 0x0222 [0x23] WAIT_FOR_DIALOG_INTERACTION
  6: 0x0223 [0x29] REQ_SET_WAIT(priority=0x08, entity_id=Bopa Greso (ID: 17764467/0x010F1073), tag_num=0x02)
  7: 0x022A [0x20] SET_CLI_EVENT_UC_FLAG: Unlock player control
  8: 0x022C [0x21] END_EVENT
  9: 0x022D [0x00] END_REQSTACK()
```

### Event 522

#### Metadata

| Field        | Value    |
|--------------|----------|
| Entrypoint   | 0x022E   |
| Data Size    | 29 bytes |
| Instructions | 10       |

```
      00 01 02 03 04 05 06 07  08 09 0A 0B 0C 0D 0E 0F
      -- -- -- -- -- -- -- --  -- -- -- -- -- -- -- --
0220:                                            1E F0                ..
0230: FF FF 7F 6F 70 29 08 73  10 0F 01 01 1D 26 80 23  ...op).s.....&.#
0240: 29 08 73 10 0F 01 02 20  00 21 00                 ).s.... .!.     
```

#### Opcodes

```
  0: 0x022E [0x1E] EventEntity looks at LocalPlayer and starts talking
  1: 0x0233 [0x6F] WAIT_FRAME_DELAY: Yield until WaitTime reaches zero
  2: 0x0234 [0x70] WAIT_ENTITY_RENDER_FLAG: Wait while EventEntity->Render.Flags3 bit 2 is set (cancel turn if not)
  3: 0x0235 [0x29] REQ_SET_WAIT(priority=0x08, entity_id=Bopa Greso (ID: 17764467/0x010F1073), tag_num=0x01)
  4: 0x023C [0x1D] PRINT_EVENT_MESSAGE(message_id=8914*)
    → "When I checked at the Tenshodo, Vauderame was nowhere to be found. It's like he just popped out of existence..."
  5: 0x023F [0x23] WAIT_FOR_DIALOG_INTERACTION
  6: 0x0240 [0x29] REQ_SET_WAIT(priority=0x08, entity_id=Bopa Greso (ID: 17764467/0x010F1073), tag_num=0x02)
  7: 0x0247 [0x20] SET_CLI_EVENT_UC_FLAG: Unlock player control
  8: 0x0249 [0x21] END_EVENT
  9: 0x024A [0x00] END_REQSTACK()
```
