# 17764763 - Rokor-Makor

## Common Data

| Field            | Value                    |
|------------------|--------------------------|
| Zone             | Windurst Woods (ID: 241) |
| Block Size       | 3540 bytes               |
| Total Events     | 2                        |
| References Count | 68                       |

## List of Events

| Event ID              | Entrypoint   |   Size |   Instructions |
|-----------------------|--------------|--------|----------------|
| [65535](#event-65535) | 0x0000       |      1 |              1 |
| [838](#event-838)     | 0x0001       |   3240 |            566 |

## DAT References (imed_data)

|   Index | Hex Value   |   Dec Value |
|---------|-------------|-------------|
|       0 | 0x0000      |           0 |
|       1 | 0x0001      |           1 |
|       2 | 0x351E      |       13598 |
|       3 | 0x351F      |       13599 |
|       4 | 0x0002      |           2 |
|       5 | 0x0003      |           3 |
|       6 | 0x3520      |       13600 |
|       7 | 0x3521      |       13601 |
|       8 | 0x3522      |       13602 |
|       9 | 0x3523      |       13603 |
|      10 | 0x3524      |       13604 |
|      11 | 0x0019      |          25 |
|      12 | 0x0F2F      |        3887 |
|      13 | 0x61A8      |       25000 |
|      14 | 0x3528      |       13608 |
|      15 | 0x3529      |       13609 |
|      16 | 0x0014      |          20 |
|      17 | 0x0018      |          24 |
|      18 | 0x0007      |           7 |
|      19 | 0x000A      |          10 |
|      20 | 0x3525      |       13605 |
|      21 | 0x3526      |       13606 |
|      22 | 0x3527      |       13607 |
|      23 | 0x00C8      |         200 |
|      24 | 0x001B      |          27 |
|      25 | 0x000C      |          12 |
|      26 | 0x0005      |           5 |
|      27 | 0x008C      |         140 |
|      28 | 0x007A      |         122 |
|      29 | 0x00F3      |         243 |
|      30 | 0x01C1      |         449 |
|      31 | 0x000D      |          13 |
|      32 | 0x0008      |           8 |
|      33 | 0x0368      |         872 |
|      34 | 0x00B4      |         180 |
|      35 | 0x003C      |          60 |
|      36 | 0x0066      |         102 |
|      37 | 0x001E      |          30 |
|      38 | 0x0081      |         129 |
|      39 | 0x352A      |       13610 |
|      40 | 0x003E      |          62 |
|      41 | 0x0004      |           4 |
|      42 | 0x001F      |          31 |
|      43 | 0x0013      |          19 |
|      44 | 0x3530      |       13616 |
|      45 | 0x000B      |          11 |
|      46 | 0x000F      |          15 |
|      47 | 0x0010      |          16 |
|      48 | 0x0016      |          22 |
|      49 | 0x0017      |          23 |
|      50 | 0x0006      |           6 |
|      51 | 0x0009      |           9 |
|      52 | 0x352F      |       13615 |
|      53 | 0x352B      |       13611 |
|      54 | 0x0097      |         151 |
|      55 | 0x3539      |       13625 |
|      56 | 0x0600      |        1536 |
|      57 | 0x07C0      |        1984 |
|      58 | 0x352E      |       13614 |
|      59 | 0x3531      |       13617 |
|      60 | 0x00F0      |         240 |
|      61 | 0x3534      |       13620 |
|      62 | 0x3536      |       13622 |
|      63 | 0x01AA      |         426 |
|      64 | 0x3535      |       13621 |
|      65 | 0x3537      |       13623 |
|      66 | 0x3533      |       13619 |
|      67 | 0x3538      |       13624 |

## String References

- **13598**: Merry Starlight, and welcome to the job guessing-wessing booth!
- **13599**: Look at those mighty warm mittens! How'd you like to try something super-duper difficult?
- **13600**: What's your pleasure? [Hear an explanation of the game./[Play/Play the simple version]./[/Play the advanced version.]/I lost my synthesis materials./Not interested in playing, thank you.]
- **13601**: Your task, if you choose to acceptaru it, is to guess what the jobs of a group of Tarutaru are.
- **13602**: There will be more jobs to guess in the advanced version. Can't have things being too easy-weasy!
- **13603**: If you guess correctaru, you'll score a critical-witical hit (CH). If you're wrong, but there's another Tarutaru with that job, you'll score a hitaru. Each time I'll tell you the total number.
- **13604**: If you correctly guess all five jobs, you win! If you can't completaru the game within ten tries, you lose!
- **13605**: All the thrilly-wills you can comprehend for the small fee of $1 gil per play! What do you say?
- **13606**: Test your skills? (You currently have $1 gil.) [You bet!/I'm not so sure...]
- **13607**: Greataru choice!
- **13608**: Well...all right. But just because I likey-wike your face. I'll part with this $0 for $1 gil.
- **13609**: Would you like to purchase this material? [Yes./No.]
- **13610**: Select which Tarutaru's job? (attempt #$1) [Tarutaru 1: [Not set/WAR/MNK/WHM/BLM/RDM/THF/PLD/DRK/BST/BRD/RNG]./Tarutaru 2: [Not set/WAR/MNK/WHM/BLM/RDM/THF/PLD/DRK/BST/BRD/RNG]./Tarutaru 3: [Not set/WAR/MNK/WHM/BLM/RDM/THF/PLD/DRK/BST/BRD/RNG]./Tarutaru 4: [Not set/WAR/MNK/WHM/BLM/RDM/THF/PLD/DRK/BST/BRD/RNG]./Tarutaru 5: [Not set/WAR/MNK/WHM/BLM/RDM/THF/PLD/DRK/BST/BRD/RNG]./See if this one is correct!/View previous guesses./Give up.]
- **13611**: Completely give up? [Yes./No.]
- **13614**: Which job would you like to set? (Tarutaru $1) [WAR./MNK./WHM./BLM./RDM./THF./PLD./DRK./BST./BRD./RNG./Back.]
- **13615**: -------------------------------
- **13616**: Try No. $2: [/WAR/MNK/WHM/BLM/RDM/THF/PLD/DRK/BST/BRD/RNG], [/WAR/MNK/WHM/BLM/RDM/THF/PLD/DRK/BST/BRD/RNG], [/WAR/MNK/WHM/BLM/RDM/THF/PLD/DRK/BST/BRD/RNG], [/WAR/MNK/WHM/BLM/RDM/THF/PLD/DRK/BST/BRD/RNG], [/WAR/MNK/WHM/BLM/RDM/THF/PLD/DRK/BST/BRD/RNG] - CHF$3 / HF$4
- **13617**: Correct answers: [/WAR/MNK/WHM/BLM/RDM/THF/PLD/DRK/BST/BRD/RNG], [/WAR/MNK/WHM/BLM/RDM/THF/PLD/DRK/BST/BRD/RNG], [/WAR/MNK/WHM/BLM/RDM/THF/PLD/DRK/BST/BRD/RNG], [/WAR/MNK/WHM/BLM/RDM/THF/PLD/DRK/BST/BRD/RNG], [/WAR/MNK/WHM/BLM/RDM/THF/PLD/DRK/BST/BRD/RNG].
- **13619**: What an eagle-weagle eye you've got there! As they say, to the victaru go the spoils!
- **13620**: Way to fightaru through adversity and come out on top! In honor of your momentous accomplishment, here's a spectacular-wacular prize!
- **13621**: I mustaru warn you, though, that alone won't amount to much. You'll need to combiney-wine it with the prizes from the other nations if you want to reap all the benefitarus it has to offer.
- **13622**: Oho, wait a second-wecond--your collection is completaru?! Now it's time to reapy-weap what you've sown and synthesize them!
- **13623**: Lucky for you I'm feeling generous today. If you like music, you'll simply-wimply love this. After you synthesize your prizey-wise, sit back in your Mog House and get ready to lose yourself in the soothing notarus of reverie.
- **13624**: Tough luck! You've exceeded the ten try limitaru. Consider-wider giving it another go!
- **13625**: I suppose this jobby-wob was too tough for you, but don't hesitate to try again!

## Events

### Event 65535

#### Metadata

| Field        | Value   |
|--------------|---------|
| Entrypoint   | 0x0000  |
| Data Size    | 1 bytes |
| Instructions | 1       |

```
      00 01 02 03 04 05 06 07  08 09 0A 0B 0C 0D 0E 0F
      -- -- -- -- -- -- -- --  -- -- -- -- -- -- -- --
0000: 00                                                .               
```

#### Opcodes

```
  0: 0x0000 [0x00] END_REQSTACK()
```

### Event 838

#### Metadata

| Field        | Value      |
|--------------|------------|
| Entrypoint   | 0x0001     |
| Data Size    | 3240 bytes |
| Instructions | 499        |

```
      00 01 02 03 04 05 06 07  08 09 0A 0B 0C 0D 0E 0F
      -- -- -- -- -- -- -- --  -- -- -- -- -- -- -- --
0000:    06 08 10 06 09 10 06  00 17 06 01 17 06 02 17   ...............
0010: 3E 02 10 00 80 1D 00 05  12 00 01 20 00 06 12 00  >.......... ....
0020: 3E 02 10 01 80 2D 00 05  13 00 01 30 00 06 13 00  >....-.....0....
0030: 1E F0 FF FF 7F 1D 02 80  23 02 12 00 01 80 00 4A  ........#......J
0040: 00 03 03 10 8B 7F 1D 03  80 23 02 12 00 00 80 00  .........#......
0050: 5F 00 3C 05 00 04 80 01  80 06 02 10 01 69 00 3D  _.<..........i.=
0060: 05 00 04 80 01 80 05 02  10 02 13 00 00 80 00 7B  ...............{
0070: 00 3C 05 00 05 80 01 80  01 82 00 3D 05 00 05 80  .<.........=....
0080: 01 80 24 06 80 00 80 05  00 25 02 00 10 00 80 00  ..$......%......
0090: B0 00 1D 07 80 23 02 12  00 01 80 00 A2 00 1D 08  .....#..........
00A0: 80 23 1D 09 80 23 1D 0A  80 23 01 4A 00 01 21 01  .#...#...#.J..!.
00B0: 02 00 10 01 80 00 C5 00  3D 01 10 0B 80 01 80 1A  ........=.......
00C0: 23 01 01 21 01 02 00 10  04 80 00 DA 00 3C 01 10  #..!.........<..
00D0: 0B 80 01 80 1A 23 01 01  21 01 02 00 10 05 80 00  .....#..!.......
00E0: 21 01 03 02 10 0C 80 03  03 10 0D 80 1D 0E 80 23  !..............#
00F0: 24 0F 80 01 80 00 80 25  02 00 10 00 80 00 10 01  $......%........
0100: 40 10 80 11 80 01 10 12  80 43 00 43 01 01 1E 01  @........C.C....
0110: 02 00 10 01 80 00 1E 01  01 4A 00 01 1E 01 01 21  .........J.....!
0120: 01 21 00 03 03 10 13 80  1D 14 80 23 40 10 80 11  .!.........#@...
0130: 80 01 10 01 80 43 00 43  01 24 15 80 01 80 00 80  .....C.C.$......
0140: 25 02 00 10 00 80 00 5A  01 42 40 10 80 11 80 01  %......Z.B@.....
0150: 10 04 80 43 00 43 01 01  68 01 02 00 10 01 80 00  ...C.C..h.......
0160: 68 01 01 4A 00 01 68 01  02 03 10 01 80 00 84 01  h..J..h.........
0170: 40 10 80 11 80 01 10 05  80 43 00 43 01 1D 16 80  @........C.C....
0180: 23 1A 85 01 1B 45 17 80  F8 FF FF 7F F8 FF FF 7F  #....E..........
0190: 66 64 6F 31 00 80 55 17  80 F8 FF FF 7F F8 FF FF  fdo1..U.........
01A0: 7F 66 64 6F 31 46 01 38  18 80 77 19 80 00 80 22  .fdo1F.8..w...."
01B0: 01 2F 00 9C 11 0F 01 4E  00 9C 11 0F 01 2F 00 9D  ./.....N...../..
01C0: 11 0F 01 4E 00 9D 11 0F  01 2F 00 9E 11 0F 01 4E  ...N...../.....N
01D0: 00 9E 11 0F 01 2F 00 9F  11 0F 01 4E 00 9F 11 0F  ...../.....N....
01E0: 01 2F 00 A0 11 0F 01 4E  00 A0 11 0F 01 7A 02 9C  ./.....N.....z..
01F0: 11 0F 01 B6 0B 1A 80 01  80 1B 80 1B 80 1C 80 1D  ................
0200: 80 1B 80 1E 80 00 80 7A  02 9D 11 0F 01 B6 0B 1A  .......z........
0210: 80 04 80 1B 80 1B 80 1C  80 1D 80 1B 80 1E 80 00  ................
0220: 80 7A 02 9E 11 0F 01 B6  0B 1A 80 1F 80 1B 80 1B  .z..............
0230: 80 1C 80 1D 80 1B 80 1E  80 00 80 7A 02 9F 11 0F  ...........z....
0240: 01 B6 0B 1A 80 12 80 1B  80 1B 80 1C 80 1D 80 1B  ................
0250: 80 1E 80 00 80 7A 02 A0  11 0F 01 B6 0B 1A 80 20  .....z......... 
0260: 80 1B 80 1B 80 1C 80 1D  80 1B 80 1E 80 00 80 7A  ...............z
0270: 03 2F 00 A7 11 0F 01 4E  00 A7 11 0F 01 2F 00 A8  ./.....N...../..
0280: 11 0F 01 4E 00 A8 11 0F  01 2F 00 A9 11 0F 01 4E  ...N...../.....N
0290: 00 A9 11 0F 01 2F 00 AA  11 0F 01 4E 00 AA 11 0F  ...../.....N....
02A0: 01 2F 00 A1 11 0F 01 4E  00 A1 11 0F 01 2F 00 A2  ./.....N...../..
02B0: 11 0F 01 4E 00 A2 11 0F  01 2F 00 A3 11 0F 01 4E  ...N...../.....N
02C0: 00 A3 11 0F 01 2F 00 A4  11 0F 01 4E 00 A4 11 0F  ...../.....N....
02D0: 01 2C A1 11 0F 01 A1 11  0F 01 73 69 74 31 2C A2  .,........sit1,.
02E0: 11 0F 01 A2 11 0F 01 73  69 74 31 2C A3 11 0F 01  .......sit1,....
02F0: A3 11 0F 01 73 69 74 31  2C A4 11 0F 01 A4 11 0F  ....sit1,.......
0300: 01 73 69 74 31 2F 00 A5  11 0F 01 4E 00 A5 11 0F  .sit1/.....N....
0310: 01 2F 00 A6 11 0F 01 4E  00 A6 11 0F 01 5B 21 80  ./.....N.....[!.
0320: A5 11 0F 01 A5 11 0F 01  68 69 30 32 1C 13 80 5B  ........hi02...[
0330: 21 80 A6 11 0F 01 A6 11  0F 01 68 69 30 32 80 9C  !.........hi02..
0340: 11 0F 01 80 9D 11 0F 01  80 9E 11 0F 01 80 9F 11  ................
0350: 0F 01 80 A0 11 0F 01 80  A7 11 0F 01 80 A8 11 0F  ................
0360: 01 80 A9 11 0F 01 80 AA  11 0F 01 80 A1 11 0F 01  ................
0370: 80 A2 11 0F 01 80 A3 11  0F 01 80 A4 11 0F 01 80  ................
0380: A5 11 0F 01 80 A6 11 0F  01 41 04 80 05 80 02 10  .........A......
0390: 00 00 02 00 00 04 80 00  A0 03 1C 22 80 01 A3 03  ..........."....
03A0: 1C 23 80 45 24 80 F8 FF  FF 7F F8 FF FF 7F 73 30  .#.E$.........s0
03B0: 30 33 00 80 1C 25 80 5C  00 26 80 5C 01 26 80 45  03...%.\.&.\.&.E
03C0: 17 80 F8 FF FF 7F F8 FF  FF 7F 66 64 69 31 00 80  ..........fdi1..
03D0: 1C 23 80 06 08 00 06 06  00 03 03 10 04 10 0B 03  .#..............
03E0: 10 1A 28 0A 24 27 80 06  00 00 80 25 02 00 10 00  ..(.$'.....%....
03F0: 80 00 52 04 03 06 00 00  10 03 07 00 08 10 1A E1  ..R.............
0400: 08 41 02 00 03 00 08 00  08 10 7A 02 9C 11 0F 01  .A........z.....
0410: 02 08 10 00 80 00 2F 04  B6 0B 1A 80 01 80 1B 80  ....../.........
0420: 1B 80 1C 80 1D 80 1B 80  1E 80 00 80 01 4D 04 14  .............M..
0430: 08 10 04 80 07 08 10 28  80 B6 0B 1A 80 01 80 08  .......(........
0440: 10 08 10 08 10 08 10 08  10 1E 80 00 80 7A 03 01  .............z..
0450: DD 08 02 00 10 01 80 00  B8 04 03 06 00 00 10 03  ................
0460: 07 00 09 10 1A E1 08 41  02 00 03 00 08 00 09 10  .......A........
0470: 7A 02 9D 11 0F 01 02 09  10 00 80 00 95 04 B6 0B  z...............
0480: 1A 80 04 80 1B 80 1B 80  1C 80 1D 80 1B 80 1E 80  ................
0490: 00 80 01 B3 04 14 09 10  04 80 07 09 10 28 80 B6  .............(..
04A0: 0B 1A 80 04 80 09 10 09  10 09 10 09 10 09 10 1E  ................
04B0: 80 00 80 7A 03 01 DD 08  02 00 10 04 80 00 1E 05  ...z............
04C0: 03 06 00 00 10 03 07 00  00 17 1A E1 08 41 02 00  .............A..
04D0: 03 00 08 00 00 17 7A 02  9E 11 0F 01 02 00 17 00  ......z.........
04E0: 80 00 FB 04 B6 0B 1A 80  1F 80 1B 80 1B 80 1C 80  ................
04F0: 1D 80 1B 80 1E 80 00 80  01 19 05 14 00 17 04 80  ................
0500: 07 00 17 28 80 B6 0B 1A  80 1F 80 00 17 00 17 00  ...(............
0510: 17 00 17 00 17 1E 80 00  80 7A 03 01 DD 08 02 00  .........z......
0520: 10 05 80 00 84 05 03 06  00 00 10 03 07 00 01 17  ................
0530: 1A E1 08 41 02 00 03 00  08 00 01 17 7A 02 9F 11  ...A........z...
0540: 0F 01 02 01 17 00 80 00  61 05 B6 0B 1A 80 12 80  ........a.......
0550: 1B 80 1B 80 1C 80 1D 80  1B 80 1E 80 00 80 01 7F  ................
0560: 05 14 01 17 04 80 07 01  17 28 80 B6 0B 1A 80 12  .........(......
0570: 80 01 17 01 17 01 17 01  17 01 17 1E 80 00 80 7A  ...............z
0580: 03 01 DD 08 02 00 10 29  80 00 EA 05 03 06 00 00  .......)........
0590: 10 03 07 00 02 17 1A E1  08 41 02 00 03 00 08 00  .........A......
05A0: 02 17 7A 02 A0 11 0F 01  02 02 17 00 80 00 C7 05  ..z.............
05B0: B6 0B 1A 80 20 80 1B 80  1B 80 1C 80 1D 80 1B 80  .... ...........
05C0: 1E 80 00 80 01 E5 05 14  02 17 04 80 07 02 17 28  ...............(
05D0: 80 B6 0B 1A 80 20 80 02  17 02 17 02 17 02 17 02  ..... ..........
05E0: 17 1E 80 00 80 7A 03 01  DD 08 02 00 10 1A 80 00  .....z..........
05F0: 18 07 03 06 00 00 80 41  10 80 11 80 08 00 00 00  .......A........
0600: 02 00 00 2A 80 01 18 06  40 10 80 11 80 01 10 1A  ...*....@.......
0610: 80 43 00 43 01 01 15 07  40 10 80 11 80 01 10 29  .C.C....@......)
0620: 80 41 00 80 2B 80 08 00  00 00 40 00 80 2B 80 01  .A..+.....@..+..
0630: 10 00 00 43 00 43 01 03  03 17 08 10 1A 28 0A 48  ...C.C.......(.H
0640: 2C 80 23 40 00 80 05 80  00 00 08 10 40 29 80 12  ,.#@........@)..
0650: 80 00 00 09 10 40 20 80  2D 80 00 00 00 17 40 19  .....@ .-.....@.
0660: 80 2E 80 00 00 01 17 40  2F 80 2B 80 00 00 02 17  .......@/.+.....
0670: 40 10 80 30 80 00 00 05  10 40 31 80 0B 80 00 00  @..0.....@1.....
0680: 06 10 02 04 10 01 80 80  92 06 03 09 00 00 00 01  ................
0690: 12 07 02 04 10 04 80 80  A2 06 03 0A 00 00 00 01  ................
06A0: 12 07 02 04 10 05 80 80  B2 06 03 0B 00 00 00 01  ................
06B0: 12 07 02 04 10 29 80 80  C2 06 03 0C 00 00 00 01  .....)..........
06C0: 12 07 02 04 10 1A 80 80  D2 06 03 0D 00 00 00 01  ................
06D0: 12 07 02 04 10 32 80 80  E2 06 03 0E 00 00 00 01  .....2..........
06E0: 12 07 02 04 10 12 80 80  F2 06 03 0F 00 00 00 01  ................
06F0: 12 07 02 04 10 20 80 80  02 07 03 10 00 00 00 01  ..... ..........
0700: 12 07 02 04 10 33 80 80  12 07 03 11 00 00 00 01  .....3..........
0710: 12 07 1A 56 0A 01 DD 08  02 00 10 32 80 00 38 08  ...V.......2..8.
0720: 03 06 00 00 80 02 04 10  00 80 00 3D 07 40 10 80  ...........=.@..
0730: 11 80 01 10 32 80 43 00  43 01 01 35 08 03 04 00  ....2.C.C..5....
0740: 01 80 03 00 00 04 10 48  34 80 23 02 04 00 00 00  .......H4.#.....
0750: 05 31 08 02 04 00 01 80  80 63 07 03 01 00 09 00  .1.......c......
0760: 01 E3 07 02 04 00 04 80  80 73 07 03 01 00 0A 00  .........s......
0770: 01 E3 07 02 04 00 05 80  80 83 07 03 01 00 0B 00  ................
0780: 01 E3 07 02 04 00 29 80  80 93 07 03 01 00 0C 00  ......).........
0790: 01 E3 07 02 04 00 1A 80  80 A3 07 03 01 00 0D 00  ................
07A0: 01 E3 07 02 04 00 32 80  80 B3 07 03 01 00 0E 00  ......2.........
07B0: 01 E3 07 02 04 00 12 80  80 C3 07 03 01 00 0F 00  ................
07C0: 01 E3 07 02 04 00 20 80  80 D3 07 03 01 00 10 00  ...... .........
07D0: 01 E3 07 02 04 00 33 80  80 E3 07 03 01 00 11 00  ......3.........
07E0: 01 E3 07 41 00 80 05 80  01 00 08 10 41 29 80 12  ...A........A)..
07F0: 80 01 00 09 10 41 20 80  2D 80 01 00 00 17 41 19  .....A .-.....A.
0800: 80 2E 80 01 00 01 17 41  2F 80 2B 80 01 00 02 17  .......A/.+.....
0810: 41 10 80 30 80 01 00 05  10 41 31 80 0B 80 01 00  A..0.....A1.....
0820: 06 10 03 04 10 04 00 48  2C 80 23 0B 04 00 01 4B  .......H,.#....K
0830: 07 48 34 80 23 01 DD 08  02 00 10 12 80 00 DD 08  .H4.#...........
0840: 24 35 80 01 80 00 80 25  02 00 10 00 80 00 C7 08  $5.....%........
0850: 45 17 80 F8 FF FF 7F F8  FF FF 7F 66 64 6F 31 00  E..........fdo1.
0860: 80 55 17 80 F8 FF FF 7F  F8 FF FF 7F 66 64 6F 31  .U..........fdo1
0870: 22 00 5C 00 36 80 5C 01  36 80 52 24 80 F8 FF FF  ".\.6.\.6.R$....
0880: 7F F8 FF FF 7F 73 30 30  33 78 38 00 80 46 00 1C  .....s003x8..F..
0890: 23 80 45 17 80 F8 FF FF  7F F8 FF FF 7F 66 64 69  #.E..........fdi
08A0: 30 00 80 55 17 80 F8 FF  FF 7F F8 FF FF 7F 66 64  0..U..........fd
08B0: 69 30 1C 23 80 1E F0 FF  FF 7F 03 03 10 8B 7F 1D  i0.#............
08C0: 37 80 23 21 01 DA 08 02  00 10 01 80 00 DA 08 03  7.#!............
08D0: 06 00 00 80 01 D9 03 01  DA 08 01 DD 08 01 D9 03  ................
08E0: 1B 03 03 10 06 00 0B 03  10 3E 07 10 00 80 F8 08  .........>......
08F0: 03 05 00 38 80 01 FD 08  03 05 00 39 80 0C 07 00  ...8.......9....
0900: 24 3A 80 07 00 05 00 25  02 00 10 00 80 00 1B 09  $:.....%........
0910: 03 07 00 01 80 1A F9 09  01 F8 09 02 00 10 01 80  ................
0920: 00 2E 09 03 07 00 04 80  1A F9 09 01 F8 09 02 00  ................
0930: 10 04 80 00 41 09 03 07  00 05 80 1A F9 09 01 F8  ....A...........
0940: 09 02 00 10 05 80 00 54  09 03 07 00 29 80 1A F9  .......T....)...
0950: 09 01 F8 09 02 00 10 29  80 00 67 09 03 07 00 1A  .......)..g.....
0960: 80 1A F9 09 01 F8 09 02  00 10 1A 80 00 7A 09 03  .............z..
0970: 07 00 32 80 1A F9 09 01  F8 09 02 00 10 32 80 00  ..2..........2..
0980: 8D 09 03 07 00 12 80 1A  F9 09 01 F8 09 02 00 10  ................
0990: 12 80 00 A0 09 03 07 00  20 80 1A F9 09 01 F8 09  ........ .......
09A0: 02 00 10 20 80 00 B3 09  03 07 00 33 80 1A F9 09  ... .......3....
09B0: 01 F8 09 02 00 10 33 80  00 C6 09 03 07 00 13 80  ......3.........
09C0: 1A F9 09 01 F8 09 02 00  10 13 80 00 D9 09 03 07  ................
09D0: 00 2D 80 1A F9 09 01 F8  09 02 00 10 2D 80 00 F8  .-..........-...
09E0: 09 03 02 00 06 00 14 02  00 29 80 03 03 00 02 00  .........)......
09F0: 07 03 00 05 80 01 F8 09  1B 03 02 00 06 00 14 02  ................
0A00: 00 29 80 03 03 00 02 00  07 03 00 05 80 40 02 00  .)...........@..
0A10: 03 00 08 00 07 00 03 00  00 06 00 07 00 00 10 80  ................
0A20: 3C 08 00 00 00 01 80 1B  41 00 80 05 80 08 00 08  <.......A.......
0A30: 10 41 29 80 12 80 08 00  09 10 41 20 80 2D 80 08  .A).......A .-..
0A40: 00 00 17 41 19 80 2E 80  08 00 01 17 41 2F 80 2B  ...A........A/.+
0A50: 80 08 00 02 17 1B 02 05  10 1A 80 00 D2 0B 41 00  ..............A.
0A60: 80 05 80 03 17 08 10 41  29 80 12 80 03 17 09 10  .......A).......
0A70: 41 20 80 2D 80 03 17 00  17 41 19 80 2E 80 03 17  A .-.....A......
0A80: 01 17 41 2F 80 2B 80 03  17 02 17 48 34 80 23 48  ..A/.+.....H4.#H
0A90: 3B 80 23 48 34 80 23 27  80 A1 11 0F 01 02 27 80  ;.#H4.#'......'.
0AA0: A2 11 0F 01 02 27 80 A3  11 0F 01 02 27 80 A4 11  .....'......'...
0AB0: 0F 01 02 1C 23 80 27 80  9C 11 0F 01 02 27 80 9D  ....#.'......'..
0AC0: 11 0F 01 02 27 80 9E 11  0F 01 02 27 80 9F 11 0F  ....'......'....
0AD0: 01 02 27 80 A0 11 0F 01  02 27 80 A7 11 0F 01 02  ..'......'......
0AE0: 27 80 A8 11 0F 01 02 27  80 A9 11 0F 01 02 27 80  '......'......'.
0AF0: AA 11 0F 01 02 1C 23 80  5B 21 80 A5 11 0F 01 A5  ......#.[!......
0B00: 11 0F 01 68 69 30 37 5B  21 80 A6 11 0F 01 A6 11  ...hi07[!.......
0B10: 0F 01 68 69 30 37 1C 3C  80 45 17 80 F8 FF FF 7F  ..hi07.<.E......
0B20: F8 FF FF 7F 66 64 6F 31  00 80 55 17 80 F8 FF FF  ....fdo1..U.....
0B30: 7F F8 FF FF 7F 66 64 6F  31 22 00 5C 00 36 80 5C  .....fdo1".\.6.\
0B40: 01 36 80 52 24 80 F8 FF  FF 7F F8 FF FF 7F 73 30  .6.R$.........s0
0B50: 30 33 78 38 00 80 46 00  1C 23 80 45 17 80 F8 FF  03x8..F..#.E....
0B60: FF 7F F8 FF FF 7F 66 64  69 30 00 80 55 17 80 F8  ......fdi0..U...
0B70: FF FF 7F F8 FF FF 7F 66  64 69 30 1C 23 80 1E F0  .......fdi0.#...
0B80: FF FF 7F 3E 07 10 00 80  CA 0B 03 03 10 8B 7F 1D  ...>............
0B90: 3D 80 23 3E 07 10 05 80  9D 0B 01 C7 0B 41 01 80  =.#>.........A..
0BA0: 05 80 07 10 00 00 02 00  00 05 80 00 B5 0B 1D 3E  ...............>
0BB0: 80 23 01 BE 0B 03 03 10  3F 80 1D 40 80 23 03 03  .#......?..@.#..
0BC0: 10 3F 80 1D 41 80 23 01  CE 0B 1D 42 80 23 21 01  .?..A.#....B.#!.
0BD0: A8 0C 02 04 10 13 80 00  A8 0C 41 00 80 05 80 03  ..........A.....
0BE0: 17 08 10 41 29 80 12 80  03 17 09 10 41 20 80 2D  ...A).......A .-
0BF0: 80 03 17 00 17 41 19 80  2E 80 03 17 01 17 41 2F  .....A........A/
0C00: 80 2B 80 03 17 02 17 48  34 80 23 48 3B 80 23 48  .+.....H4.#H;.#H
0C10: 34 80 23 27 80 9C 11 0F  01 03 27 80 9D 11 0F 01  4.#'......'.....
0C20: 03 27 80 9E 11 0F 01 03  27 80 9F 11 0F 01 03 27  .'......'......'
0C30: 80 A0 11 0F 01 03 1C 3C  80 45 17 80 F8 FF FF 7F  .......<.E......
0C40: F8 FF FF 7F 66 64 6F 31  00 80 55 17 80 F8 FF FF  ....fdo1..U.....
0C50: 7F F8 FF FF 7F 66 64 6F  31 22 00 5C 00 36 80 5C  .....fdo1".\.6.\
0C60: 01 36 80 52 24 80 F8 FF  FF 7F F8 FF FF 7F 73 30  .6.R$.........s0
0C70: 30 33 78 38 00 80 46 00  1C 23 80 45 17 80 F8 FF  03x8..F..#.E....
0C80: FF 7F F8 FF FF 7F 66 64  69 30 00 80 55 17 80 F8  ......fdi0..U...
0C90: FF FF 7F F8 FF FF 7F 66  64 69 30 1C 23 80 1E F0  .......fdi0.#...
0CA0: FF FF 7F 1D 43 80 23 21  1B                       ....C.#!.       
```

#### Opcodes

```
  0: 0x0001 [0x06] Work_Zone[8] = 0
  1: 0x0004 [0x06] Work_Zone[9] = 0
  2: 0x0007 [0x06] Work_Zone_1700[0] = 0
  3: 0x000A [0x06] Work_Zone_1700[1] = 0
  4: 0x000D [0x06] Work_Zone_1700[2] = 0
  5: 0x0010 [0x3E] IF !(Work_Zone[2] bit 0*) GOTO 0x001D
  6: 0x0017 [0x05] ExtData[1]->WorkLocal[18] = 1
  7: 0x001A [0x01] GOTO 0x0020
  8: 0x001D [0x06] ExtData[1]->WorkLocal[18] = 0

SUBROUTINE_0020:
  9: 0x0020 [0x3E] IF !(Work_Zone[2] bit 1*) GOTO 0x002D
 10: 0x0027 [0x05] ExtData[1]->WorkLocal[19] = 1
 11: 0x002A [0x01] GOTO 0x0030
 12: 0x002D [0x06] ExtData[1]->WorkLocal[19] = 0

SUBROUTINE_0030:
 13: 0x0030 [0x1E] EventEntity looks at LocalPlayer and starts talking
 14: 0x0035 [0x1D] PRINT_EVENT_MESSAGE(message_id=13598*)
    → "Merry Starlight, and welcome to the job guessing-wessing booth!"
 15: 0x0038 [0x23] WAIT_FOR_DIALOG_INTERACTION
 16: 0x0039 [0x02] IF !(ExtData[1]->WorkLocal[18] == 1*) GOTO 0x004A
 17: 0x0041 [0x03] Work_Zone[3] = (LocalPlayer->Render.Flags01 >> 25) & 1
 18: 0x0046 [0x1D] PRINT_EVENT_MESSAGE(message_id=13599*)
    → "Look at those mighty warm mittens! How'd you like to try something super-duper difficult?"
 19: 0x0049 [0x23] WAIT_FOR_DIALOG_INTERACTION

SUBROUTINE_004A:
 20: 0x004A [0x02] IF !(ExtData[1]->WorkLocal[18] == 0*) GOTO 0x005F
 21: 0x0052 [0x3C] SET_BIT_FLAG_CONDITIONAL(target_work_offset=ExtData[1]->WorkLocal[5], bit_index_work_offset=2*, condition_work_offset=1*)
 22: 0x0059 [0x06] Work_Zone[2] = 0
 23: 0x005C [0x01] GOTO 0x0069
 24: 0x005F [0x3D] CLEAR_BIT_FLAG_CONDITIONAL(target_work_offset=ExtData[1]->WorkLocal[5], bit_index_work_offset=2*, condition_work_offset=1*)
 25: 0x0066 [0x05] Work_Zone[2] = 1

SUBROUTINE_0069:
 26: 0x0069 [0x02] IF !(ExtData[1]->WorkLocal[19] == 0*) GOTO 0x007B
 27: 0x0071 [0x3C] SET_BIT_FLAG_CONDITIONAL(target_work_offset=ExtData[1]->WorkLocal[5], bit_index_work_offset=3*, condition_work_offset=1*)
 28: 0x0078 [0x01] GOTO 0x0082
 29: 0x007B [0x3D] CLEAR_BIT_FLAG_CONDITIONAL(target_work_offset=ExtData[1]->WorkLocal[5], bit_index_work_offset=3*, condition_work_offset=1*)

SUBROUTINE_0082:
 30: 0x0082 [0x24] CREATE_DIALOG(message_id=13600*, default_option=0*, option_flags=ExtData[1]->WorkLocal[5])
    → "What's your pleasure? [Hear an explanation of the game./[Play/Play the simple version]./[/Play the advanced version.]/I lost my synthesis materials./Not interested in playing, thank you.]"
 31: 0x0089 [0x25] WAIT_DIALOG_SELECT()
 32: 0x008A [0x02] IF !(Work_Zone[0] == 0*) GOTO 0x00B0
 33: 0x0092 [0x1D] PRINT_EVENT_MESSAGE(message_id=13601*)
    → "Your task, if you choose to acceptaru it, is to guess what the jobs of a group of Tarutaru are."
 34: 0x0095 [0x23] WAIT_FOR_DIALOG_INTERACTION
 35: 0x0096 [0x02] IF !(ExtData[1]->WorkLocal[18] == 1*) GOTO 0x00A2
 36: 0x009E [0x1D] PRINT_EVENT_MESSAGE(message_id=13602*)
    → "There will be more jobs to guess in the advanced version. Can't have things being too easy-weasy!"
 37: 0x00A1 [0x23] WAIT_FOR_DIALOG_INTERACTION
 38: 0x00A2 [0x1D] PRINT_EVENT_MESSAGE(message_id=13603*)
    → "If you guess correctaru, you'll score a critical-witical hit (CH). If you're wrong, but there's another Tarutaru with that job, you'll score a hitaru. Each time I'll tell you the total number."
 39: 0x00A5 [0x23] WAIT_FOR_DIALOG_INTERACTION
 40: 0x00A6 [0x1D] PRINT_EVENT_MESSAGE(message_id=13604*)
    → "If you correctly guess all five jobs, you win! If you can't completaru the game within ten tries, you lose!"
 41: 0x00A9 [0x23] WAIT_FOR_DIALOG_INTERACTION
 42: 0x00AA [0x01] GOTO 0x004A

SUBROUTINE_011E:
 43: 0x011E [0x01] GOTO 0x0121

SUBROUTINE_0121:
 44: 0x0121 [0x21] END_EVENT
 45: 0x0122 [0x00] END_REQSTACK()

SUBROUTINE_0123:
 46: 0x0123 [0x03] Work_Zone[3] = 10*
 47: 0x0128 [0x1D] PRINT_EVENT_MESSAGE(message_id=13605*)
    → "All the thrilly-wills you can comprehend for the small fee of $1 gil per play! What do you say?"
 48: 0x012B [0x23] WAIT_FOR_DIALOG_INTERACTION
 49: 0x012C [0x40] SET_BIT_WORK_RANGE(start_bit=20*, end_bit=24*, target=Work_Zone[1], source=1*)
 50: 0x0135 [0x43] SEND_EVENT_UPDATE: Send pending tag to server (packet 0x005B)
 51: 0x0137 [0x43] SEND_EVENT_UPDATE: Check pending flag (skip if not pending)
 52: 0x0139 [0x24] CREATE_DIALOG(message_id=13606*, default_option=1*, option_flags=0*)
    → "Test your skills? (You currently have $1 gil.) [You bet!/I'm not so sure...]"
 53: 0x0140 [0x25] WAIT_DIALOG_SELECT()
 54: 0x0141 [0x02] IF !(Work_Zone[0] == 0*) GOTO 0x015A
 55: 0x0149 [0x42] SET_CLI_EVENT_CANCEL_DATA()
 56: 0x014A [0x40] SET_BIT_WORK_RANGE(start_bit=20*, end_bit=24*, target=Work_Zone[1], source=2*)
 57: 0x0153 [0x43] SEND_EVENT_UPDATE: Send pending tag to server (packet 0x005B)
 58: 0x0155 [0x43] SEND_EVENT_UPDATE: Check pending flag (skip if not pending)
 59: 0x0157 [0x01] GOTO 0x0168
 60: 0x015A [0x02] IF !(Work_Zone[0] == 1*) GOTO 0x0168
 61: 0x0162 [0x01] GOTO 0x004A

SUBROUTINE_0168:
 62: 0x0168 [0x02] IF !(Work_Zone[3] == 1*) GOTO 0x0184
 63: 0x0170 [0x40] SET_BIT_WORK_RANGE(start_bit=20*, end_bit=24*, target=Work_Zone[1], source=3*)
 64: 0x0179 [0x43] SEND_EVENT_UPDATE: Send pending tag to server (packet 0x005B)
 65: 0x017B [0x43] SEND_EVENT_UPDATE: Check pending flag (skip if not pending)
 66: 0x017D [0x1D] PRINT_EVENT_MESSAGE(message_id=13607*)
    → "Greataru choice!"
 67: 0x0180 [0x23] WAIT_FOR_DIALOG_INTERACTION
 68: 0x0181 [0x1A] CALL_SUBROUTINE(address=0x0185)
 69: 0x0184 [0x1B] RETURN

SUBROUTINE_0185:
 70: 0x0185 [0x45] LOAD_SCHEDULED_TASK: Load scheduler "fdo1" with entities [EventEntity, EventEntity], work=[200*, 0*]
 71: 0x0196 [0x55] WAIT_LOAD_SCHEDULER: Wait for scheduler "fdo1" with entities [EventEntity, EventEntity], work=200*
 72: 0x01A5 [0x46] CAMERA_CONTROL: Disable user control
 73: 0x01A7 [0x38] SET_CLIENT_EVENT_MODE(mode=27*)
 74: 0x01AA [0x77] SET_EVENT_TIME_WEATHER(hour=12*, weather=0*)
 75: 0x01AF [0x22] ENTITY_HIDE_FLAG(enabled=0x01)
 76: 0x01B1 [0x2F] Unnamed NPC (ID: 17764764/0x010F119C)->Render.Flags0 &= ~0x80000 // Bit 19
 77: 0x01B7 [0x4E] SET_ENTITY_HIDE_FLAG: Show Unnamed NPC (ID: 17764764/0x010F119C)
 78: 0x01BD [0x2F] Unnamed NPC (ID: 17764765/0x010F119D)->Render.Flags0 &= ~0x80000 // Bit 19
 79: 0x01C3 [0x4E] SET_ENTITY_HIDE_FLAG: Show Unnamed NPC (ID: 17764765/0x010F119D)
 80: 0x01C9 [0x2F] Unnamed NPC (ID: 17764766/0x010F119E)->Render.Flags0 &= ~0x80000 // Bit 19
 81: 0x01CF [0x4E] SET_ENTITY_HIDE_FLAG: Show Unnamed NPC (ID: 17764766/0x010F119E)
 82: 0x01D5 [0x2F] Unnamed NPC (ID: 17764767/0x010F119F)->Render.Flags0 &= ~0x80000 // Bit 19
 83: 0x01DB [0x4E] SET_ENTITY_HIDE_FLAG: Show Unnamed NPC (ID: 17764767/0x010F119F)
 84: 0x01E1 [0x2F] Unnamed NPC (ID: 17764768/0x010F11A0)->Render.Flags0 &= ~0x80000 // Bit 19
 85: 0x01E7 [0x4E] SET_ENTITY_HIDE_FLAG: Show Unnamed NPC (ID: 17764768/0x010F11A0)
 86: 0x01ED [0x7A] VM_CONTROL: Share ExtData with Unnamed NPC (ID: 17764764/0x010F119C)
 87: 0x01F3 [0xB6] ENTITY_APPEARANCE_HANDLER(case=Full entity look, race=5*, hair=1*, head=140*, body=140*, hands=122*, legs=243*, feet=140*, main=449*, sub=0*)
 88: 0x0207 [0x7A] VM_CONTROL: Share ExtData with Unnamed NPC (ID: 17764765/0x010F119D)
 89: 0x020D [0xB6] ENTITY_APPEARANCE_HANDLER(case=Full entity look, race=5*, hair=2*, head=140*, body=140*, hands=122*, legs=243*, feet=140*, main=449*, sub=0*)
 90: 0x0221 [0x7A] VM_CONTROL: Share ExtData with Unnamed NPC (ID: 17764766/0x010F119E)
 91: 0x0227 [0xB6] ENTITY_APPEARANCE_HANDLER(case=Full entity look, race=5*, hair=13*, head=140*, body=140*, hands=122*, legs=243*, feet=140*, main=449*, sub=0*)
 92: 0x023B [0x7A] VM_CONTROL: Share ExtData with Unnamed NPC (ID: 17764767/0x010F119F)
 93: 0x0241 [0xB6] ENTITY_APPEARANCE_HANDLER(case=Full entity look, race=5*, hair=7*, head=140*, body=140*, hands=122*, legs=243*, feet=140*, main=449*, sub=0*)
 94: 0x0255 [0x7A] VM_CONTROL: Share ExtData with Unnamed NPC (ID: 17764768/0x010F11A0)
 95: 0x025B [0xB6] ENTITY_APPEARANCE_HANDLER(case=Full entity look, race=5*, hair=8*, head=140*, body=140*, hands=122*, legs=243*, feet=140*, main=449*, sub=0*)
 96: 0x026F [0x7A] VM_CONTROL: Unshare ExtData (restore original)
 97: 0x0271 [0x2F] Unnamed NPC (ID: 17764775/0x010F11A7)->Render.Flags0 &= ~0x80000 // Bit 19
 98: 0x0277 [0x4E] SET_ENTITY_HIDE_FLAG: Show Unnamed NPC (ID: 17764775/0x010F11A7)
 99: 0x027D [0x2F] Unnamed NPC (ID: 17764776/0x010F11A8)->Render.Flags0 &= ~0x80000 // Bit 19
100: 0x0283 [0x4E] SET_ENTITY_HIDE_FLAG: Show Unnamed NPC (ID: 17764776/0x010F11A8)
101: 0x0289 [0x2F] Unnamed NPC (ID: 17764777/0x010F11A9)->Render.Flags0 &= ~0x80000 // Bit 19
102: 0x028F [0x4E] SET_ENTITY_HIDE_FLAG: Show Unnamed NPC (ID: 17764777/0x010F11A9)
103: 0x0295 [0x2F] Unnamed NPC (ID: 17764778/0x010F11AA)->Render.Flags0 &= ~0x80000 // Bit 19
104: 0x029B [0x4E] SET_ENTITY_HIDE_FLAG: Show Unnamed NPC (ID: 17764778/0x010F11AA)
105: 0x02A1 [0x2F] Unnamed NPC (ID: 17764769/0x010F11A1)->Render.Flags0 &= ~0x80000 // Bit 19
106: 0x02A7 [0x4E] SET_ENTITY_HIDE_FLAG: Show Unnamed NPC (ID: 17764769/0x010F11A1)
107: 0x02AD [0x2F] Unnamed NPC (ID: 17764770/0x010F11A2)->Render.Flags0 &= ~0x80000 // Bit 19
108: 0x02B3 [0x4E] SET_ENTITY_HIDE_FLAG: Show Unnamed NPC (ID: 17764770/0x010F11A2)
109: 0x02B9 [0x2F] Unnamed NPC (ID: 17764771/0x010F11A3)->Render.Flags0 &= ~0x80000 // Bit 19
110: 0x02BF [0x4E] SET_ENTITY_HIDE_FLAG: Show Unnamed NPC (ID: 17764771/0x010F11A3)
111: 0x02C5 [0x2F] Unnamed NPC (ID: 17764772/0x010F11A4)->Render.Flags0 &= ~0x80000 // Bit 19
112: 0x02CB [0x4E] SET_ENTITY_HIDE_FLAG: Show Unnamed NPC (ID: 17764772/0x010F11A4)
113: 0x02D1 [0x2C] CREATE_SCHEDULER_TASK: Create scheduler "sit1" with entities [Unnamed NPC (ID: 17764769/0x010F11A1), Unnamed NPC (ID: 17764769/0x010F11A1)]
114: 0x02DE [0x2C] CREATE_SCHEDULER_TASK: Create scheduler "sit1" with entities [Unnamed NPC (ID: 17764770/0x010F11A2), Unnamed NPC (ID: 17764770/0x010F11A2)]
115: 0x02EB [0x2C] CREATE_SCHEDULER_TASK: Create scheduler "sit1" with entities [Unnamed NPC (ID: 17764771/0x010F11A3), Unnamed NPC (ID: 17764771/0x010F11A3)]
116: 0x02F8 [0x2C] CREATE_SCHEDULER_TASK: Create scheduler "sit1" with entities [Unnamed NPC (ID: 17764772/0x010F11A4), Unnamed NPC (ID: 17764772/0x010F11A4)]
117: 0x0305 [0x2F] Unnamed NPC (ID: 17764773/0x010F11A5)->Render.Flags0 &= ~0x80000 // Bit 19
118: 0x030B [0x4E] SET_ENTITY_HIDE_FLAG: Show Unnamed NPC (ID: 17764773/0x010F11A5)
119: 0x0311 [0x2F] Unnamed NPC (ID: 17764774/0x010F11A6)->Render.Flags0 &= ~0x80000 // Bit 19
120: 0x0317 [0x4E] SET_ENTITY_HIDE_FLAG: Show Unnamed NPC (ID: 17764774/0x010F11A6)
121: 0x031D [0x5B] LOAD_EXT_SCHEDULER: Load scheduler "hi02" with entities [Unnamed NPC (ID: 17764773/0x010F11A5), Unnamed NPC (ID: 17764773/0x010F11A5)], work=872*
122: 0x032C [0x1C] WAIT(10* ticks)
123: 0x032F [0x5B] LOAD_EXT_SCHEDULER: Load scheduler "hi02" with entities [Unnamed NPC (ID: 17764774/0x010F11A6), Unnamed NPC (ID: 17764774/0x010F11A6)], work=872*
124: 0x033E [0x80] LOAD_WAIT(entity=Unnamed NPC (ID: 17764764/0x010F119C))
125: 0x0343 [0x80] LOAD_WAIT(entity=Unnamed NPC (ID: 17764765/0x010F119D))
126: 0x0348 [0x80] LOAD_WAIT(entity=Unnamed NPC (ID: 17764766/0x010F119E))
127: 0x034D [0x80] LOAD_WAIT(entity=Unnamed NPC (ID: 17764767/0x010F119F))
128: 0x0352 [0x80] LOAD_WAIT(entity=Unnamed NPC (ID: 17764768/0x010F11A0))
129: 0x0357 [0x80] LOAD_WAIT(entity=Unnamed NPC (ID: 17764775/0x010F11A7))
130: 0x035C [0x80] LOAD_WAIT(entity=Unnamed NPC (ID: 17764776/0x010F11A8))
131: 0x0361 [0x80] LOAD_WAIT(entity=Unnamed NPC (ID: 17764777/0x010F11A9))
132: 0x0366 [0x80] LOAD_WAIT(entity=Unnamed NPC (ID: 17764778/0x010F11AA))
133: 0x036B [0x80] LOAD_WAIT(entity=Unnamed NPC (ID: 17764769/0x010F11A1))
134: 0x0370 [0x80] LOAD_WAIT(entity=Unnamed NPC (ID: 17764770/0x010F11A2))
135: 0x0375 [0x80] LOAD_WAIT(entity=Unnamed NPC (ID: 17764771/0x010F11A3))
136: 0x037A [0x80] LOAD_WAIT(entity=Unnamed NPC (ID: 17764772/0x010F11A4))
137: 0x037F [0x80] LOAD_WAIT(entity=Unnamed NPC (ID: 17764773/0x010F11A5))
138: 0x0384 [0x80] LOAD_WAIT(entity=Unnamed NPC (ID: 17764774/0x010F11A6))
139: 0x0389 [0x41] ExtData[1]->WorkLocal[0] = Work_Zone[2] (bits 2*-3*)
140: 0x0392 [0x02] IF !(ExtData[1]->WorkLocal[0] == 2*) GOTO 0x03A0
141: 0x039A [0x1C] WAIT(180* ticks)
142: 0x039D [0x01] GOTO 0x03A3
143: 0x03A0 [0x1C] WAIT(60* ticks)

SUBROUTINE_03A3:
144: 0x03A3 [0x45] LOAD_SCHEDULED_TASK: Load scheduler "s003" with entities [EventEntity, EventEntity], work=[102*, 0*]
145: 0x03B4 [0x1C] WAIT(30* ticks)
146: 0x03B7 [0x5C] MUSIC_CONTROL: Set Idle (Day) music to song 129*
147: 0x03BB [0x5C] MUSIC_CONTROL: Set Idle (Night) music to song 129*
148: 0x03BF [0x45] LOAD_SCHEDULED_TASK: Load scheduler "fdi1" with entities [EventEntity, EventEntity], work=[200*, 0*]
149: 0x03D0 [0x1C] WAIT(60* ticks)
150: 0x03D3 [0x06] ExtData[1]->WorkLocal[8] = 0
151: 0x03D6 [0x06] ExtData[1]->WorkLocal[6] = 0

SUBROUTINE_03D9:
152: 0x03D9 [0x03] Work_Zone[3] = Work_Zone[4]
153: 0x03DE [0x0B] Work_Zone[3]++
154: 0x03E1 [0x1A] CALL_SUBROUTINE(address=0x0A28)
155: 0x03E4 [0x24] CREATE_DIALOG(message_id=13610*, default_option=ExtData[1]->WorkLocal[6], option_flags=0*)
    → "Select which Tarutaru's job? (attempt #$1) [Tarutaru 1: [Not set/WAR/MNK/WHM/BLM/RDM/THF/PLD/DRK/BST/BRD/RNG]./Tarutaru 2: [Not set/WAR/MNK/WHM/BLM/RDM/THF/PLD/DRK/BST/BRD/RNG]./Tarutaru 3: [Not set/WAR/MNK/WHM/BLM/RDM/THF/PLD/DRK/BST/BRD/RNG]./Tarutaru 4: [Not set/WAR/MNK/WHM/BLM/RDM/THF/PLD/DRK/BST/BRD/RNG]./Tarutaru 5: [Not set/WAR/MNK/WHM/BLM/RDM/THF/PLD/DRK/BST/BRD/RNG]./See if this one is correct!/View previous guesses./Give up.]"
156: 0x03EB [0x25] WAIT_DIALOG_SELECT()
157: 0x03EC [0x02] IF !(Work_Zone[0] == 0*) GOTO 0x0452
158: 0x03F4 [0x03] ExtData[1]->WorkLocal[6] = Work_Zone[0]
159: 0x03F9 [0x03] ExtData[1]->WorkLocal[7] = Work_Zone[8]
160: 0x03FE [0x1A] CALL_SUBROUTINE(address=0x08E1)
161: 0x0401 [0x41] Work_Zone[8] = ExtData[1]->WorkLocal[8] (bits ExtData[1]->WorkLocal[2]-ExtData[1]->WorkLocal[3])
162: 0x040A [0x7A] VM_CONTROL: Share ExtData with Unnamed NPC (ID: 17764764/0x010F119C)
163: 0x0410 [0x02] IF !(Work_Zone[8] == 0*) GOTO 0x042F
164: 0x0418 [0xB6] ENTITY_APPEARANCE_HANDLER(case=Full entity look, race=5*, hair=1*, head=140*, body=140*, hands=122*, legs=243*, feet=140*, main=449*, sub=0*)
165: 0x042C [0x01] GOTO 0x044D
166: 0x042F [0x14] Work_Zone[8] *= 2*
167: 0x0434 [0x07] Work_Zone[8] += 62*
168: 0x0439 [0xB6] ENTITY_APPEARANCE_HANDLER(case=Full entity look, race=5*, hair=1*, head=Work_Zone[8], body=Work_Zone[8], hands=Work_Zone[8], legs=Work_Zone[8], feet=Work_Zone[8], main=449*, sub=0*)

SUBROUTINE_044D:
169: 0x044D [0x7A] VM_CONTROL: Unshare ExtData (restore original)
170: 0x044F [0x01] GOTO 0x08DD
171: 0x0452 [0x02] IF !(Work_Zone[0] == 1*) GOTO 0x04B8
172: 0x045A [0x03] ExtData[1]->WorkLocal[6] = Work_Zone[0]
173: 0x045F [0x03] ExtData[1]->WorkLocal[7] = Work_Zone[9]
174: 0x0464 [0x1A] CALL_SUBROUTINE(address=0x08E1)
175: 0x0467 [0x41] Work_Zone[9] = ExtData[1]->WorkLocal[8] (bits ExtData[1]->WorkLocal[2]-ExtData[1]->WorkLocal[3])
176: 0x0470 [0x7A] VM_CONTROL: Share ExtData with Unnamed NPC (ID: 17764765/0x010F119D)
177: 0x0476 [0x02] IF !(Work_Zone[9] == 0*) GOTO 0x0495
178: 0x047E [0xB6] ENTITY_APPEARANCE_HANDLER(case=Full entity look, race=5*, hair=2*, head=140*, body=140*, hands=122*, legs=243*, feet=140*, main=449*, sub=0*)
179: 0x0492 [0x01] GOTO 0x04B3
180: 0x0495 [0x14] Work_Zone[9] *= 2*
181: 0x049A [0x07] Work_Zone[9] += 62*
182: 0x049F [0xB6] ENTITY_APPEARANCE_HANDLER(case=Full entity look, race=5*, hair=2*, head=Work_Zone[9], body=Work_Zone[9], hands=Work_Zone[9], legs=Work_Zone[9], feet=Work_Zone[9], main=449*, sub=0*)

SUBROUTINE_04B3:
183: 0x04B3 [0x7A] VM_CONTROL: Unshare ExtData (restore original)
184: 0x04B5 [0x01] GOTO 0x08DD
185: 0x04B8 [0x02] IF !(Work_Zone[0] == 2*) GOTO 0x051E
186: 0x04C0 [0x03] ExtData[1]->WorkLocal[6] = Work_Zone[0]
187: 0x04C5 [0x03] ExtData[1]->WorkLocal[7] = Work_Zone_1700[0]
188: 0x04CA [0x1A] CALL_SUBROUTINE(address=0x08E1)
189: 0x04CD [0x41] Work_Zone_1700[0] = ExtData[1]->WorkLocal[8] (bits ExtData[1]->WorkLocal[2]-ExtData[1]->WorkLocal[3])
190: 0x04D6 [0x7A] VM_CONTROL: Share ExtData with Unnamed NPC (ID: 17764766/0x010F119E)
191: 0x04DC [0x02] IF !(Work_Zone_1700[0] == 0*) GOTO 0x04FB
192: 0x04E4 [0xB6] ENTITY_APPEARANCE_HANDLER(case=Full entity look, race=5*, hair=13*, head=140*, body=140*, hands=122*, legs=243*, feet=140*, main=449*, sub=0*)
193: 0x04F8 [0x01] GOTO 0x0519
194: 0x04FB [0x14] Work_Zone_1700[0] *= 2*
195: 0x0500 [0x07] Work_Zone_1700[0] += 62*
196: 0x0505 [0xB6] ENTITY_APPEARANCE_HANDLER(case=Full entity look, race=5*, hair=13*, head=Work_Zone_1700[0], body=Work_Zone_1700[0], hands=Work_Zone_1700[0], legs=Work_Zone_1700[0], feet=Work_Zone_1700[0], main=449*, sub=0*)

SUBROUTINE_0519:
197: 0x0519 [0x7A] VM_CONTROL: Unshare ExtData (restore original)
198: 0x051B [0x01] GOTO 0x08DD
199: 0x051E [0x02] IF !(Work_Zone[0] == 3*) GOTO 0x0584
200: 0x0526 [0x03] ExtData[1]->WorkLocal[6] = Work_Zone[0]
201: 0x052B [0x03] ExtData[1]->WorkLocal[7] = Work_Zone_1700[1]
202: 0x0530 [0x1A] CALL_SUBROUTINE(address=0x08E1)
203: 0x0533 [0x41] Work_Zone_1700[1] = ExtData[1]->WorkLocal[8] (bits ExtData[1]->WorkLocal[2]-ExtData[1]->WorkLocal[3])
204: 0x053C [0x7A] VM_CONTROL: Share ExtData with Unnamed NPC (ID: 17764767/0x010F119F)
205: 0x0542 [0x02] IF !(Work_Zone_1700[1] == 0*) GOTO 0x0561
206: 0x054A [0xB6] ENTITY_APPEARANCE_HANDLER(case=Full entity look, race=5*, hair=7*, head=140*, body=140*, hands=122*, legs=243*, feet=140*, main=449*, sub=0*)
207: 0x055E [0x01] GOTO 0x057F
208: 0x0561 [0x14] Work_Zone_1700[1] *= 2*
209: 0x0566 [0x07] Work_Zone_1700[1] += 62*
210: 0x056B [0xB6] ENTITY_APPEARANCE_HANDLER(case=Full entity look, race=5*, hair=7*, head=Work_Zone_1700[1], body=Work_Zone_1700[1], hands=Work_Zone_1700[1], legs=Work_Zone_1700[1], feet=Work_Zone_1700[1], main=449*, sub=0*)

SUBROUTINE_057F:
211: 0x057F [0x7A] VM_CONTROL: Unshare ExtData (restore original)
212: 0x0581 [0x01] GOTO 0x08DD
213: 0x0584 [0x02] IF !(Work_Zone[0] == 4*) GOTO 0x05EA
214: 0x058C [0x03] ExtData[1]->WorkLocal[6] = Work_Zone[0]
215: 0x0591 [0x03] ExtData[1]->WorkLocal[7] = Work_Zone_1700[2]
216: 0x0596 [0x1A] CALL_SUBROUTINE(address=0x08E1)
217: 0x0599 [0x41] Work_Zone_1700[2] = ExtData[1]->WorkLocal[8] (bits ExtData[1]->WorkLocal[2]-ExtData[1]->WorkLocal[3])
218: 0x05A2 [0x7A] VM_CONTROL: Share ExtData with Unnamed NPC (ID: 17764768/0x010F11A0)
219: 0x05A8 [0x02] IF !(Work_Zone_1700[2] == 0*) GOTO 0x05C7
220: 0x05B0 [0xB6] ENTITY_APPEARANCE_HANDLER(case=Full entity look, race=5*, hair=8*, head=140*, body=140*, hands=122*, legs=243*, feet=140*, main=449*, sub=0*)
221: 0x05C4 [0x01] GOTO 0x05E5
222: 0x05C7 [0x14] Work_Zone_1700[2] *= 2*
223: 0x05CC [0x07] Work_Zone_1700[2] += 62*
224: 0x05D1 [0xB6] ENTITY_APPEARANCE_HANDLER(case=Full entity look, race=5*, hair=8*, head=Work_Zone_1700[2], body=Work_Zone_1700[2], hands=Work_Zone_1700[2], legs=Work_Zone_1700[2], feet=Work_Zone_1700[2], main=449*, sub=0*)

SUBROUTINE_05E5:
225: 0x05E5 [0x7A] VM_CONTROL: Unshare ExtData (restore original)
226: 0x05E7 [0x01] GOTO 0x08DD
227: 0x05EA [0x02] IF !(Work_Zone[0] == 5*) GOTO 0x0718
228: 0x05F2 [0x03] ExtData[1]->WorkLocal[6] = 0*
229: 0x05F7 [0x41] ExtData[1]->WorkLocal[0] = ExtData[1]->WorkLocal[8] (bits 20*-24*)
230: 0x0600 [0x02] IF !(ExtData[1]->WorkLocal[0] == 31*) GOTO 0x0618
231: 0x0608 [0x40] SET_BIT_WORK_RANGE(start_bit=20*, end_bit=24*, target=Work_Zone[1], source=5*)
232: 0x0611 [0x43] SEND_EVENT_UPDATE: Send pending tag to server (packet 0x005B)
233: 0x0613 [0x43] SEND_EVENT_UPDATE: Check pending flag (skip if not pending)
234: 0x0615 [0x01] GOTO 0x0715
235: 0x0618 [0x40] SET_BIT_WORK_RANGE(start_bit=20*, end_bit=24*, target=Work_Zone[1], source=4*)
236: 0x0621 [0x41] ExtData[1]->WorkLocal[0] = ExtData[1]->WorkLocal[8] (bits 0*-19*)
237: 0x062A [0x40] SET_BIT_WORK_RANGE(start_bit=0*, end_bit=19*, target=Work_Zone[1], source=ExtData[1]->WorkLocal[0])
238: 0x0633 [0x43] SEND_EVENT_UPDATE: Send pending tag to server (packet 0x005B)
239: 0x0635 [0x43] SEND_EVENT_UPDATE: Check pending flag (skip if not pending)
240: 0x0637 [0x03] Work_Zone_1700[3] = Work_Zone[8]
241: 0x063C [0x1A] CALL_SUBROUTINE(address=0x0A28)
242: 0x063F [0x48] [System] [13616*]:
    → "Try No. $2: [/WAR/MNK/WHM/BLM/RDM/THF/PLD/DRK/BST/BRD/RNG], [/WAR/MNK/WHM/BLM/RDM/THF/PLD/DRK/BST/BRD/RNG], [/WAR/MNK/WHM/BLM/RDM/THF/PLD/DRK/BST/BRD/RNG], [/WAR/MNK/WHM/BLM/RDM/THF/PLD/DRK/BST/BRD/RNG], [/WAR/MNK/WHM/BLM/RDM/THF/PLD/DRK/BST/BRD/RNG] - CHF$3 / HF$4"
243: 0x0642 [0x23] WAIT_FOR_DIALOG_INTERACTION
244: 0x0643 [0x40] SET_BIT_WORK_RANGE(start_bit=0*, end_bit=3*, target=ExtData[1]->WorkLocal[0], source=Work_Zone[8])
245: 0x064C [0x40] SET_BIT_WORK_RANGE(start_bit=4*, end_bit=7*, target=ExtData[1]->WorkLocal[0], source=Work_Zone[9])
246: 0x0655 [0x40] SET_BIT_WORK_RANGE(start_bit=8*, end_bit=11*, target=ExtData[1]->WorkLocal[0], source=Work_Zone_1700[0])
247: 0x065E [0x40] SET_BIT_WORK_RANGE(start_bit=12*, end_bit=15*, target=ExtData[1]->WorkLocal[0], source=Work_Zone_1700[1])
248: 0x0667 [0x40] SET_BIT_WORK_RANGE(start_bit=16*, end_bit=19*, target=ExtData[1]->WorkLocal[0], source=Work_Zone_1700[2])
249: 0x0670 [0x40] SET_BIT_WORK_RANGE(start_bit=20*, end_bit=22*, target=ExtData[1]->WorkLocal[0], source=Work_Zone[5])
250: 0x0679 [0x40] SET_BIT_WORK_RANGE(start_bit=23*, end_bit=25*, target=ExtData[1]->WorkLocal[0], source=Work_Zone[6])
251: 0x0682 [0x02] IF !(Work_Zone[4] == 1*) GOTO 0x0692
252: 0x068A [0x03] ExtData[1]->WorkLocal[9] = ExtData[1]->WorkLocal[0]
253: 0x068F [0x01] GOTO 0x0712
254: 0x0692 [0x02] IF !(Work_Zone[4] == 2*) GOTO 0x06A2
255: 0x069A [0x03] ExtData[1]->WorkLocal[10] = ExtData[1]->WorkLocal[0]
256: 0x069F [0x01] GOTO 0x0712
257: 0x06A2 [0x02] IF !(Work_Zone[4] == 3*) GOTO 0x06B2
258: 0x06AA [0x03] ExtData[1]->WorkLocal[11] = ExtData[1]->WorkLocal[0]
259: 0x06AF [0x01] GOTO 0x0712
260: 0x06B2 [0x02] IF !(Work_Zone[4] == 4*) GOTO 0x06C2
261: 0x06BA [0x03] ExtData[1]->WorkLocal[12] = ExtData[1]->WorkLocal[0]
262: 0x06BF [0x01] GOTO 0x0712
263: 0x06C2 [0x02] IF !(Work_Zone[4] == 5*) GOTO 0x06D2
264: 0x06CA [0x03] ExtData[1]->WorkLocal[13] = ExtData[1]->WorkLocal[0]
265: 0x06CF [0x01] GOTO 0x0712
266: 0x06D2 [0x02] IF !(Work_Zone[4] == 6*) GOTO 0x06E2
267: 0x06DA [0x03] ExtData[1]->WorkLocal[14] = ExtData[1]->WorkLocal[0]
268: 0x06DF [0x01] GOTO 0x0712
269: 0x06E2 [0x02] IF !(Work_Zone[4] == 7*) GOTO 0x06F2
270: 0x06EA [0x03] ExtData[1]->WorkLocal[15] = ExtData[1]->WorkLocal[0]
271: 0x06EF [0x01] GOTO 0x0712
272: 0x06F2 [0x02] IF !(Work_Zone[4] == 8*) GOTO 0x0702
273: 0x06FA [0x03] ExtData[1]->WorkLocal[16] = ExtData[1]->WorkLocal[0]
274: 0x06FF [0x01] GOTO 0x0712
275: 0x0702 [0x02] IF !(Work_Zone[4] == 9*) GOTO 0x0712
276: 0x070A [0x03] ExtData[1]->WorkLocal[17] = ExtData[1]->WorkLocal[0]
277: 0x070F [0x01] GOTO 0x0712

SUBROUTINE_0712:
278: 0x0712 [0x1A] CALL_SUBROUTINE(address=0x0A56)

SUBROUTINE_0715:
279: 0x0715 [0x01] GOTO 0x08DD
280: 0x0718 [0x02] IF !(Work_Zone[0] == 6*) GOTO 0x0838
281: 0x0720 [0x03] ExtData[1]->WorkLocal[6] = 0*
282: 0x0725 [0x02] IF !(Work_Zone[4] == 0*) GOTO 0x073D
283: 0x072D [0x40] SET_BIT_WORK_RANGE(start_bit=20*, end_bit=24*, target=Work_Zone[1], source=6*)
284: 0x0736 [0x43] SEND_EVENT_UPDATE: Send pending tag to server (packet 0x005B)
285: 0x0738 [0x43] SEND_EVENT_UPDATE: Check pending flag (skip if not pending)
286: 0x073A [0x01] GOTO 0x0835
287: 0x073D [0x03] ExtData[1]->WorkLocal[4] = 1*
288: 0x0742 [0x03] ExtData[1]->WorkLocal[0] = Work_Zone[4]
289: 0x0747 [0x48] [System] [13615*]:
    → "-------------------------------"
290: 0x074A [0x23] WAIT_FOR_DIALOG_INTERACTION

SUBROUTINE_074B:
291: 0x074B [0x02] IF !(ExtData[1]->WorkLocal[4] > ExtData[1]->WorkLocal[0]) GOTO 0x0831
292: 0x0753 [0x02] IF !(ExtData[1]->WorkLocal[4] == 1*) GOTO 0x0763
293: 0x075B [0x03] ExtData[1]->WorkLocal[1] = ExtData[1]->WorkLocal[9]
294: 0x0760 [0x01] GOTO 0x07E3
295: 0x0763 [0x02] IF !(ExtData[1]->WorkLocal[4] == 2*) GOTO 0x0773
296: 0x076B [0x03] ExtData[1]->WorkLocal[1] = ExtData[1]->WorkLocal[10]
297: 0x0770 [0x01] GOTO 0x07E3
298: 0x0773 [0x02] IF !(ExtData[1]->WorkLocal[4] == 3*) GOTO 0x0783
299: 0x077B [0x03] ExtData[1]->WorkLocal[1] = ExtData[1]->WorkLocal[11]
300: 0x0780 [0x01] GOTO 0x07E3
301: 0x0783 [0x02] IF !(ExtData[1]->WorkLocal[4] == 4*) GOTO 0x0793
302: 0x078B [0x03] ExtData[1]->WorkLocal[1] = ExtData[1]->WorkLocal[12]
303: 0x0790 [0x01] GOTO 0x07E3
304: 0x0793 [0x02] IF !(ExtData[1]->WorkLocal[4] == 5*) GOTO 0x07A3
305: 0x079B [0x03] ExtData[1]->WorkLocal[1] = ExtData[1]->WorkLocal[13]
306: 0x07A0 [0x01] GOTO 0x07E3
307: 0x07A3 [0x02] IF !(ExtData[1]->WorkLocal[4] == 6*) GOTO 0x07B3
308: 0x07AB [0x03] ExtData[1]->WorkLocal[1] = ExtData[1]->WorkLocal[14]
309: 0x07B0 [0x01] GOTO 0x07E3
310: 0x07B3 [0x02] IF !(ExtData[1]->WorkLocal[4] == 7*) GOTO 0x07C3
311: 0x07BB [0x03] ExtData[1]->WorkLocal[1] = ExtData[1]->WorkLocal[15]
312: 0x07C0 [0x01] GOTO 0x07E3
313: 0x07C3 [0x02] IF !(ExtData[1]->WorkLocal[4] == 8*) GOTO 0x07D3
314: 0x07CB [0x03] ExtData[1]->WorkLocal[1] = ExtData[1]->WorkLocal[16]
315: 0x07D0 [0x01] GOTO 0x07E3
316: 0x07D3 [0x02] IF !(ExtData[1]->WorkLocal[4] == 9*) GOTO 0x07E3
317: 0x07DB [0x03] ExtData[1]->WorkLocal[1] = ExtData[1]->WorkLocal[17]
318: 0x07E0 [0x01] GOTO 0x07E3

SUBROUTINE_07E3:
319: 0x07E3 [0x41] Work_Zone[8] = ExtData[1]->WorkLocal[1] (bits 0*-3*)
320: 0x07EC [0x41] Work_Zone[9] = ExtData[1]->WorkLocal[1] (bits 4*-7*)
321: 0x07F5 [0x41] Work_Zone_1700[0] = ExtData[1]->WorkLocal[1] (bits 8*-11*)
322: 0x07FE [0x41] Work_Zone_1700[1] = ExtData[1]->WorkLocal[1] (bits 12*-15*)
323: 0x0807 [0x41] Work_Zone_1700[2] = ExtData[1]->WorkLocal[1] (bits 16*-19*)
324: 0x0810 [0x41] Work_Zone[5] = ExtData[1]->WorkLocal[1] (bits 20*-22*)
325: 0x0819 [0x41] Work_Zone[6] = ExtData[1]->WorkLocal[1] (bits 23*-25*)
326: 0x0822 [0x03] Work_Zone[4] = ExtData[1]->WorkLocal[4]
327: 0x0827 [0x48] [System] [13616*]:
    → "Try No. $2: [/WAR/MNK/WHM/BLM/RDM/THF/PLD/DRK/BST/BRD/RNG], [/WAR/MNK/WHM/BLM/RDM/THF/PLD/DRK/BST/BRD/RNG], [/WAR/MNK/WHM/BLM/RDM/THF/PLD/DRK/BST/BRD/RNG], [/WAR/MNK/WHM/BLM/RDM/THF/PLD/DRK/BST/BRD/RNG], [/WAR/MNK/WHM/BLM/RDM/THF/PLD/DRK/BST/BRD/RNG] - CHF$3 / HF$4"
328: 0x082A [0x23] WAIT_FOR_DIALOG_INTERACTION
329: 0x082B [0x0B] ExtData[1]->WorkLocal[4]++
330: 0x082E [0x01] GOTO 0x074B
331: 0x0831 [0x48] [System] [13615*]:
    → "-------------------------------"
332: 0x0834 [0x23] WAIT_FOR_DIALOG_INTERACTION

SUBROUTINE_0835:
333: 0x0835 [0x01] GOTO 0x08DD
334: 0x0838 [0x02] IF !(Work_Zone[0] == 7*) GOTO 0x08DD
335: 0x0840 [0x24] CREATE_DIALOG(message_id=13611*, default_option=1*, option_flags=0*)
    → "Completely give up? [Yes./No.]"
336: 0x0847 [0x25] WAIT_DIALOG_SELECT()
337: 0x0848 [0x02] IF !(Work_Zone[0] == 0*) GOTO 0x08C7
338: 0x0850 [0x45] LOAD_SCHEDULED_TASK: Load scheduler "fdo1" with entities [EventEntity, EventEntity], work=[200*, 0*]
339: 0x0861 [0x55] WAIT_LOAD_SCHEDULER: Wait for scheduler "fdo1" with entities [EventEntity, EventEntity], work=200*
340: 0x0870 [0x22] ENTITY_HIDE_FLAG(enabled=0x00)
341: 0x0872 [0x5C] MUSIC_CONTROL: Set Idle (Day) music to song 151*
342: 0x0876 [0x5C] MUSIC_CONTROL: Set Idle (Night) music to song 151*
343: 0x087A [0x52] END_LOAD_SCHEDULER: End scheduler "s003" with entities [EventEntity, EventEntity], work=102*
344: 0x0889 [0x78] ENABLE_GAME_TIMER_RESET_WEATHER()
345: 0x088A [0x38] SET_CLIENT_EVENT_MODE(mode=0*)
346: 0x088D [0x46] CAMERA_CONTROL: Restore default settings
347: 0x088F [0x1C] WAIT(60* ticks)
348: 0x0892 [0x45] LOAD_SCHEDULED_TASK: Load scheduler "fdi0" with entities [EventEntity, EventEntity], work=[200*, 0*]
349: 0x08A3 [0x55] WAIT_LOAD_SCHEDULER: Wait for scheduler "fdi0" with entities [EventEntity, EventEntity], work=200*
350: 0x08B2 [0x1C] WAIT(60* ticks)
351: 0x08B5 [0x1E] EventEntity looks at LocalPlayer and starts talking
352: 0x08BA [0x03] Work_Zone[3] = (LocalPlayer->Render.Flags01 >> 25) & 1
353: 0x08BF [0x1D] PRINT_EVENT_MESSAGE(message_id=13625*)
    → "I suppose this jobby-wob was too tough for you, but don't hesitate to try again!"
354: 0x08C2 [0x23] WAIT_FOR_DIALOG_INTERACTION
355: 0x08C3 [0x21] END_EVENT

SUBROUTINE_08DA:
356: 0x08DA [0x01] GOTO 0x08DD

SUBROUTINE_08DD:
357: 0x08DD [0x01] GOTO 0x03D9

SUBROUTINE_08E1:
358: 0x08E1 [0x03] Work_Zone[3] = ExtData[1]->WorkLocal[6]
359: 0x08E6 [0x0B] Work_Zone[3]++
360: 0x08E9 [0x3E] IF !(Work_Zone[7] bit 0*) GOTO 0x08F8
361: 0x08F0 [0x03] ExtData[1]->WorkLocal[5] = 1536*
362: 0x08F5 [0x01] GOTO 0x08FD
363: 0x08F8 [0x03] ExtData[1]->WorkLocal[5] = 1984*

SUBROUTINE_08FD:
364: 0x08FD [0x0C] ExtData[1]->WorkLocal[7]--
365: 0x0900 [0x24] CREATE_DIALOG(message_id=13614*, default_option=ExtData[1]->WorkLocal[7], option_flags=ExtData[1]->WorkLocal[5])
    → "Which job would you like to set? (Tarutaru $1) [WAR./MNK./WHM./BLM./RDM./THF./PLD./DRK./BST./BRD./RNG./Back.]"
366: 0x0907 [0x25] WAIT_DIALOG_SELECT()
367: 0x0908 [0x02] IF !(Work_Zone[0] == 0*) GOTO 0x091B
368: 0x0910 [0x03] ExtData[1]->WorkLocal[7] = 1*
369: 0x0915 [0x1A] CALL_SUBROUTINE(address=0x09F9)
370: 0x0918 [0x01] GOTO 0x09F8
371: 0x091B [0x02] IF !(Work_Zone[0] == 1*) GOTO 0x092E
372: 0x0923 [0x03] ExtData[1]->WorkLocal[7] = 2*
373: 0x0928 [0x1A] CALL_SUBROUTINE(address=0x09F9)
374: 0x092B [0x01] GOTO 0x09F8
375: 0x092E [0x02] IF !(Work_Zone[0] == 2*) GOTO 0x0941
376: 0x0936 [0x03] ExtData[1]->WorkLocal[7] = 3*
377: 0x093B [0x1A] CALL_SUBROUTINE(address=0x09F9)
378: 0x093E [0x01] GOTO 0x09F8
379: 0x0941 [0x02] IF !(Work_Zone[0] == 3*) GOTO 0x0954
380: 0x0949 [0x03] ExtData[1]->WorkLocal[7] = 4*
381: 0x094E [0x1A] CALL_SUBROUTINE(address=0x09F9)
382: 0x0951 [0x01] GOTO 0x09F8
383: 0x0954 [0x02] IF !(Work_Zone[0] == 4*) GOTO 0x0967
384: 0x095C [0x03] ExtData[1]->WorkLocal[7] = 5*
385: 0x0961 [0x1A] CALL_SUBROUTINE(address=0x09F9)
386: 0x0964 [0x01] GOTO 0x09F8
387: 0x0967 [0x02] IF !(Work_Zone[0] == 5*) GOTO 0x097A
388: 0x096F [0x03] ExtData[1]->WorkLocal[7] = 6*
389: 0x0974 [0x1A] CALL_SUBROUTINE(address=0x09F9)
390: 0x0977 [0x01] GOTO 0x09F8
391: 0x097A [0x02] IF !(Work_Zone[0] == 6*) GOTO 0x098D
392: 0x0982 [0x03] ExtData[1]->WorkLocal[7] = 7*
393: 0x0987 [0x1A] CALL_SUBROUTINE(address=0x09F9)
394: 0x098A [0x01] GOTO 0x09F8
395: 0x098D [0x02] IF !(Work_Zone[0] == 7*) GOTO 0x09A0
396: 0x0995 [0x03] ExtData[1]->WorkLocal[7] = 8*
397: 0x099A [0x1A] CALL_SUBROUTINE(address=0x09F9)
398: 0x099D [0x01] GOTO 0x09F8
399: 0x09A0 [0x02] IF !(Work_Zone[0] == 8*) GOTO 0x09B3
400: 0x09A8 [0x03] ExtData[1]->WorkLocal[7] = 9*
401: 0x09AD [0x1A] CALL_SUBROUTINE(address=0x09F9)
402: 0x09B0 [0x01] GOTO 0x09F8
403: 0x09B3 [0x02] IF !(Work_Zone[0] == 9*) GOTO 0x09C6
404: 0x09BB [0x03] ExtData[1]->WorkLocal[7] = 10*
405: 0x09C0 [0x1A] CALL_SUBROUTINE(address=0x09F9)
406: 0x09C3 [0x01] GOTO 0x09F8
407: 0x09C6 [0x02] IF !(Work_Zone[0] == 10*) GOTO 0x09D9
408: 0x09CE [0x03] ExtData[1]->WorkLocal[7] = 11*
409: 0x09D3 [0x1A] CALL_SUBROUTINE(address=0x09F9)
410: 0x09D6 [0x01] GOTO 0x09F8
411: 0x09D9 [0x02] IF !(Work_Zone[0] == 11*) GOTO 0x09F8
412: 0x09E1 [0x03] ExtData[1]->WorkLocal[2] = ExtData[1]->WorkLocal[6]
413: 0x09E6 [0x14] ExtData[1]->WorkLocal[2] *= 4*
414: 0x09EB [0x03] ExtData[1]->WorkLocal[3] = ExtData[1]->WorkLocal[2]
415: 0x09F0 [0x07] ExtData[1]->WorkLocal[3] += 3*
416: 0x09F5 [0x01] GOTO 0x09F8

SUBROUTINE_09F8:
417: 0x09F8 [0x1B] RETURN

SUBROUTINE_09F9:
418: 0x09F9 [0x03] ExtData[1]->WorkLocal[2] = ExtData[1]->WorkLocal[6]
419: 0x09FE [0x14] ExtData[1]->WorkLocal[2] *= 4*
420: 0x0A03 [0x03] ExtData[1]->WorkLocal[3] = ExtData[1]->WorkLocal[2]
421: 0x0A08 [0x07] ExtData[1]->WorkLocal[3] += 3*
422: 0x0A0D [0x40] SET_BIT_WORK_RANGE(start_bit=ExtData[1]->WorkLocal[2], end_bit=ExtData[1]->WorkLocal[3], target=ExtData[1]->WorkLocal[8], source=ExtData[1]->WorkLocal[7])
423: 0x0A16 [0x03] ExtData[1]->WorkLocal[0] = ExtData[1]->WorkLocal[6]
424: 0x0A1B [0x07] ExtData[1]->WorkLocal[0] += 20*
425: 0x0A20 [0x3C] SET_BIT_FLAG_CONDITIONAL(target_work_offset=ExtData[1]->WorkLocal[8], bit_index_work_offset=ExtData[1]->WorkLocal[0], condition_work_offset=1*)
426: 0x0A27 [0x1B] RETURN

SUBROUTINE_0A28:
427: 0x0A28 [0x41] Work_Zone[8] = ExtData[1]->WorkLocal[8] (bits 0*-3*)
428: 0x0A31 [0x41] Work_Zone[9] = ExtData[1]->WorkLocal[8] (bits 4*-7*)
429: 0x0A3A [0x41] Work_Zone_1700[0] = ExtData[1]->WorkLocal[8] (bits 8*-11*)
430: 0x0A43 [0x41] Work_Zone_1700[1] = ExtData[1]->WorkLocal[8] (bits 12*-15*)
431: 0x0A4C [0x41] Work_Zone_1700[2] = ExtData[1]->WorkLocal[8] (bits 16*-19*)
432: 0x0A55 [0x1B] RETURN

SUBROUTINE_0A56:
433: 0x0A56 [0x02] IF !(Work_Zone[5] == 5*) GOTO 0x0BD2
434: 0x0A5E [0x41] Work_Zone[8] = Work_Zone_1700[3] (bits 0*-3*)
435: 0x0A67 [0x41] Work_Zone[9] = Work_Zone_1700[3] (bits 4*-7*)
436: 0x0A70 [0x41] Work_Zone_1700[0] = Work_Zone_1700[3] (bits 8*-11*)
437: 0x0A79 [0x41] Work_Zone_1700[1] = Work_Zone_1700[3] (bits 12*-15*)
438: 0x0A82 [0x41] Work_Zone_1700[2] = Work_Zone_1700[3] (bits 16*-19*)
439: 0x0A8B [0x48] [System] [13615*]:
    → "-------------------------------"
440: 0x0A8E [0x23] WAIT_FOR_DIALOG_INTERACTION
441: 0x0A8F [0x48] [System] [13617*]:
    → "Correct answers: [/WAR/MNK/WHM/BLM/RDM/THF/PLD/DRK/BST/BRD/RNG], [/WAR/MNK/WHM/BLM/RDM/THF/PLD/DRK/BST/BRD/RNG], [/WAR/MNK/WHM/BLM/RDM/THF/PLD/DRK/BST/BRD/RNG], [/WAR/MNK/WHM/BLM/RDM/THF/PLD/DRK/BST/BRD/RNG], [/WAR/MNK/WHM/BLM/RDM/THF/PLD/DRK/BST/BRD/RNG]."
442: 0x0A92 [0x23] WAIT_FOR_DIALOG_INTERACTION
443: 0x0A93 [0x48] [System] [13615*]:
    → "-------------------------------"
444: 0x0A96 [0x23] WAIT_FOR_DIALOG_INTERACTION
445: 0x0A97 [0x27] REQ_SET(priority=0x80, entity_id=Unnamed NPC (ID: 17764769/0x010F11A1), tag_num=0x02)
446: 0x0A9E [0x27] REQ_SET(priority=0x80, entity_id=Unnamed NPC (ID: 17764770/0x010F11A2), tag_num=0x02)
447: 0x0AA5 [0x27] REQ_SET(priority=0x80, entity_id=Unnamed NPC (ID: 17764771/0x010F11A3), tag_num=0x02)
448: 0x0AAC [0x27] REQ_SET(priority=0x80, entity_id=Unnamed NPC (ID: 17764772/0x010F11A4), tag_num=0x02)
449: 0x0AB3 [0x1C] WAIT(60* ticks)
450: 0x0AB6 [0x27] REQ_SET(priority=0x80, entity_id=Unnamed NPC (ID: 17764764/0x010F119C), tag_num=0x02)
451: 0x0ABD [0x27] REQ_SET(priority=0x80, entity_id=Unnamed NPC (ID: 17764765/0x010F119D), tag_num=0x02)
452: 0x0AC4 [0x27] REQ_SET(priority=0x80, entity_id=Unnamed NPC (ID: 17764766/0x010F119E), tag_num=0x02)
453: 0x0ACB [0x27] REQ_SET(priority=0x80, entity_id=Unnamed NPC (ID: 17764767/0x010F119F), tag_num=0x02)
454: 0x0AD2 [0x27] REQ_SET(priority=0x80, entity_id=Unnamed NPC (ID: 17764768/0x010F11A0), tag_num=0x02)
455: 0x0AD9 [0x27] REQ_SET(priority=0x80, entity_id=Unnamed NPC (ID: 17764775/0x010F11A7), tag_num=0x02)
456: 0x0AE0 [0x27] REQ_SET(priority=0x80, entity_id=Unnamed NPC (ID: 17764776/0x010F11A8), tag_num=0x02)
457: 0x0AE7 [0x27] REQ_SET(priority=0x80, entity_id=Unnamed NPC (ID: 17764777/0x010F11A9), tag_num=0x02)
458: 0x0AEE [0x27] REQ_SET(priority=0x80, entity_id=Unnamed NPC (ID: 17764778/0x010F11AA), tag_num=0x02)
459: 0x0AF5 [0x1C] WAIT(60* ticks)
460: 0x0AF8 [0x5B] LOAD_EXT_SCHEDULER: Load scheduler "hi07" with entities [Unnamed NPC (ID: 17764773/0x010F11A5), Unnamed NPC (ID: 17764773/0x010F11A5)], work=872*
461: 0x0B07 [0x5B] LOAD_EXT_SCHEDULER: Load scheduler "hi07" with entities [Unnamed NPC (ID: 17764774/0x010F11A6), Unnamed NPC (ID: 17764774/0x010F11A6)], work=872*
462: 0x0B16 [0x1C] WAIT(240* ticks)
463: 0x0B19 [0x45] LOAD_SCHEDULED_TASK: Load scheduler "fdo1" with entities [EventEntity, EventEntity], work=[200*, 0*]
464: 0x0B2A [0x55] WAIT_LOAD_SCHEDULER: Wait for scheduler "fdo1" with entities [EventEntity, EventEntity], work=200*
465: 0x0B39 [0x22] ENTITY_HIDE_FLAG(enabled=0x00)
466: 0x0B3B [0x5C] MUSIC_CONTROL: Set Idle (Day) music to song 151*
467: 0x0B3F [0x5C] MUSIC_CONTROL: Set Idle (Night) music to song 151*
468: 0x0B43 [0x52] END_LOAD_SCHEDULER: End scheduler "s003" with entities [EventEntity, EventEntity], work=102*
469: 0x0B52 [0x78] ENABLE_GAME_TIMER_RESET_WEATHER()
470: 0x0B53 [0x38] SET_CLIENT_EVENT_MODE(mode=0*)
471: 0x0B56 [0x46] CAMERA_CONTROL: Restore default settings
472: 0x0B58 [0x1C] WAIT(60* ticks)
473: 0x0B5B [0x45] LOAD_SCHEDULED_TASK: Load scheduler "fdi0" with entities [EventEntity, EventEntity], work=[200*, 0*]
474: 0x0B6C [0x55] WAIT_LOAD_SCHEDULER: Wait for scheduler "fdi0" with entities [EventEntity, EventEntity], work=200*
475: 0x0B7B [0x1C] WAIT(60* ticks)
476: 0x0B7E [0x1E] EventEntity looks at LocalPlayer and starts talking
477: 0x0B83 [0x3E] IF !(Work_Zone[7] bit 0*) GOTO 0x0BCA
478: 0x0B8A [0x03] Work_Zone[3] = (LocalPlayer->Render.Flags01 >> 25) & 1
479: 0x0B8F [0x1D] PRINT_EVENT_MESSAGE(message_id=13620*)
    → "Way to fightaru through adversity and come out on top! In honor of your momentous accomplishment, here's a spectacular-wacular prize!"
480: 0x0B92 [0x23] WAIT_FOR_DIALOG_INTERACTION
481: 0x0B93 [0x3E] IF !(Work_Zone[7] bit 3*) GOTO 0x0B9D
482: 0x0B9A [0x01] GOTO 0x0BC7
483: 0x0B9D [0x41] ExtData[1]->WorkLocal[0] = Work_Zone[7] (bits 1*-3*)
484: 0x0BA6 [0x02] IF !(ExtData[1]->WorkLocal[0] == 3*) GOTO 0x0BB5
485: 0x0BAE [0x1D] PRINT_EVENT_MESSAGE(message_id=13622*)
    → "Oho, wait a second-wecond--your collection is completaru?! Now it's time to reapy-weap what you've sown and synthesize them!"
486: 0x0BB1 [0x23] WAIT_FOR_DIALOG_INTERACTION
487: 0x0BB2 [0x01] GOTO 0x0BBE
488: 0x0BB5 [0x03] Work_Zone[3] = 426*
489: 0x0BBA [0x1D] PRINT_EVENT_MESSAGE(message_id=13621*)
    → "I mustaru warn you, though, that alone won't amount to much. You'll need to combiney-wine it with the prizes from the other nations if you want to reap all the benefitarus it has to offer."
490: 0x0BBD [0x23] WAIT_FOR_DIALOG_INTERACTION

SUBROUTINE_0BBE:
491: 0x0BBE [0x03] Work_Zone[3] = 426*
492: 0x0BC3 [0x1D] PRINT_EVENT_MESSAGE(message_id=13623*)
    → "Lucky for you I'm feeling generous today. If you like music, you'll simply-wimply love this. After you synthesize your prizey-wise, sit back in your Mog House and get ready to lose yourself in the soothing notarus of reverie."
493: 0x0BC6 [0x23] WAIT_FOR_DIALOG_INTERACTION

SUBROUTINE_0BC7:
494: 0x0BC7 [0x01] GOTO 0x0BCE
495: 0x0BCA [0x1D] PRINT_EVENT_MESSAGE(message_id=13619*)
    → "What an eagle-weagle eye you've got there! As they say, to the victaru go the spoils!"
496: 0x0BCD [0x23] WAIT_FOR_DIALOG_INTERACTION

SUBROUTINE_0BCE:
497: 0x0BCE [0x21] END_EVENT

SUBROUTINE_0CA8:
498: 0x0CA8 [0x1B] RETURN
```

#### Data or dead code:

```
# Dead code (unreachable instructions):
     0x00AD [0x01] GOTO 0x0121
     0x011B [0x01] GOTO 0x011E
# Dead code (unreachable instructions):
     0x0165 [0x01] GOTO 0x0168
# Dead code (unreachable instructions):
     0x08C4 [0x01] GOTO 0x08DA
     0x08D7 [0x01] GOTO 0x08DA
# Dead code (unreachable instructions):
     0x08E0 [0x1B] RETURN
# Dead code (unreachable instructions):
     0x0BCF [0x01] GOTO 0x0CA8
```
