# 17764577 - Ajido-Marujido

## Common Data

| Field            | Value                    |
|------------------|--------------------------|
| Zone             | Windurst Woods (ID: 241) |
| Block Size       | 1192 bytes               |
| Total Events     | 54                       |
| References Count | 42                       |

## List of Events

| Event ID                   | Entrypoint   |   Size |   Instructions |
|----------------------------|--------------|--------|----------------|
| [65535](#event-65535)      | 0x0000       |      1 |              1 |
| [65535.1](#event-655351)   | 0x0001       |     16 |              2 |
| [65535.2](#event-655352)   | 0x0011       |     14 |              2 |
| [65535.3](#event-655353)   | 0x001F       |     16 |              2 |
| [65535.4](#event-655354)   | 0x002F       |     14 |              2 |
| [65535.5](#event-655355)   | 0x003D       |     16 |              2 |
| [65535.6](#event-655356)   | 0x004D       |     14 |              2 |
| [65535.7](#event-655357)   | 0x005B       |     16 |              2 |
| [65535.8](#event-655358)   | 0x006B       |     14 |              2 |
| [65535.9](#event-655359)   | 0x0079       |     16 |              2 |
| [65535.10](#event-6553510) | 0x0089       |     14 |              2 |
| [65535.11](#event-6553511) | 0x0097       |     16 |              2 |
| [65535.12](#event-6553512) | 0x00A7       |     14 |              2 |
| [65535.13](#event-6553513) | 0x00B5       |     16 |              2 |
| [65535.14](#event-6553514) | 0x00C5       |     14 |              2 |
| [65535.15](#event-6553515) | 0x00D3       |     16 |              2 |
| [65535.16](#event-6553516) | 0x00E3       |     14 |              2 |
| [65535.17](#event-6553517) | 0x00F1       |     16 |              2 |
| [65535.18](#event-6553518) | 0x0101       |     14 |              2 |
| [65535.19](#event-6553519) | 0x010F       |     16 |              2 |
| [65535.20](#event-6553520) | 0x011F       |     22 |              4 |
| [65535.21](#event-6553521) | 0x0135       |     16 |              2 |
| [65535.22](#event-6553522) | 0x0145       |     14 |              2 |
| [65535.23](#event-6553523) | 0x0153       |      9 |              3 |
| [65535.24](#event-6553524) | 0x015C       |     16 |              2 |
| [65535.25](#event-6553525) | 0x016C       |     14 |              2 |
| [65535.26](#event-6553526) | 0x017A       |     22 |              3 |
| [65535.27](#event-6553527) | 0x0190       |     20 |              3 |
| [65535.28](#event-6553528) | 0x01A4       |     16 |              2 |
| [65535.29](#event-6553529) | 0x01B4       |     14 |              2 |
| [65535.30](#event-6553530) | 0x01C2       |     22 |              3 |
| [65535.31](#event-6553531) | 0x01D8       |     20 |              3 |
| [65535.32](#event-6553532) | 0x01EC       |     16 |              2 |
| [65535.33](#event-6553533) | 0x01FC       |     14 |              2 |
| [65535.34](#event-6553534) | 0x020A       |     16 |              2 |
| [65535.35](#event-6553535) | 0x021A       |     14 |              2 |
| [65535.36](#event-6553536) | 0x0228       |     16 |              2 |
| [65535.37](#event-6553537) | 0x0238       |     14 |              2 |
| [619](#event-619)          | 0x0246       |      1 |              1 |
| [65535.38](#event-6553538) | 0x0247       |     10 |              2 |
| [65535.39](#event-6553539) | 0x0251       |     15 |              5 |
| [65535.40](#event-6553540) | 0x0260       |     14 |              4 |
| [65535.41](#event-6553541) | 0x026E       |     14 |              4 |
| [65535.42](#event-6553542) | 0x027C       |     33 |              7 |
| [65535.43](#event-6553543) | 0x029D       |      5 |              3 |
| [621](#event-621)          | 0x02A2       |      1 |              1 |
| [65535.44](#event-6553544) | 0x02A3       |     10 |              2 |
| [65535.45](#event-6553545) | 0x02AD       |     15 |              5 |
| [65535.46](#event-6553546) | 0x02BC       |     15 |              5 |
| [65535.47](#event-6553547) | 0x02CB       |     16 |              5 |
| [65535.48](#event-6553548) | 0x02DB       |     17 |              5 |
| [866](#event-866)          | 0x02EC       |      1 |              1 |
| [65535.49](#event-6553549) | 0x02ED       |     14 |              4 |
| [65535.50](#event-6553550) | 0x02FB       |     26 |              6 |

## DAT References (imed_data)

|   Index | Hex Value   |   Dec Value |
|---------|-------------|-------------|
|       0 | 0x00A5      |         165 |
|       1 | 0x0151      |         337 |
|       2 | 0x0155      |         341 |
|       3 | 0x001E      |          30 |
|       4 | 0x00A6      |         166 |
|       5 | 0x00A8      |         168 |
|       6 | 0x0036      |          54 |
|       7 | 0x0F8C      |        3980 |
|       8 | 0xFFFFB598  |  4294948248 |
|       9 | 0xFFFFF15B  |  4294963547 |
|      10 | 0x07B0      |        1968 |
|      11 | 0x000D      |          13 |
|      12 | 0x08A6      |        2214 |
|      13 | 0xFFFFB54A  |  4294948170 |
|      14 | 0x0028      |          40 |
|      15 | 0x00CD      |         205 |
|      16 | 0xFFFFB4CD  |  4294948045 |
|      17 | 0xFFFFF1FA  |  4294963706 |
|      18 | 0xFFFFB204  |  4294947332 |
|      19 | 0xFFFFC2C8  |  4294951624 |
|      20 | 0xFFFFA95A  |  4294945114 |
|      21 | 0xFFFFF542  |  4294964546 |
|      22 | 0x07A1      |        1953 |
|      23 | 0xFFFFA42D  |  4294943789 |
|      24 | 0xFFFFA5CB  |  4294944203 |
|      25 | 0xFFFFF543  |  4294964547 |
|      26 | 0xFFFF8951  |  4294936913 |
|      27 | 0xFFFFD39A  |  4294955930 |
|      28 | 0xFFFFF63C  |  4294964796 |
|      29 | 0x2570      |        9584 |
|      30 | 0xFFFFA2D6  |  4294943446 |
|      31 | 0x2A4F      |       10831 |
|      32 | 0x0FCB      |        4043 |
|      33 | 0xFFFFC519  |  4294952217 |
|      34 | 0x3120      |       12576 |
|      35 | 0xFFFFC198  |  4294951320 |
|      36 | 0x30EF      |       12527 |
|      37 | 0x259D      |        9629 |
|      38 | 0xFFFFBA1D  |  4294949405 |
|      39 | 0x2AF5      |       10997 |
|      40 | 0xFFFFC3B2  |  4294951858 |
|      41 | 0x3386      |       13190 |

## String References

- **9584**: Thanks to you, I was able to see all that was written in the Book of the Gods. We must act before Windurst is wiped off the face of Vana'diel...
- **9629**: ...

## Events

### Event 65535

#### Metadata

| Field        | Value   |
|--------------|---------|
| Entrypoint   | 0x0000  |
| Data Size    | 1 bytes |
| Instructions | 1       |

```
      00 01 02 03 04 05 06 07  08 09 0A 0B 0C 0D 0E 0F
      -- -- -- -- -- -- -- --  -- -- -- -- -- -- -- --
0000: 00                                                .               
```

#### Opcodes

```
  0: 0x0000 [0x00] END_REQSTACK()
```

### Event 65535.1

#### Metadata

| Field        | Value    |
|--------------|----------|
| Entrypoint   | 0x0001   |
| Data Size    | 16 bytes |
| Instructions | 2        |

```
      00 01 02 03 04 05 06 07  08 09 0A 0B 0C 0D 0E 0F
      -- -- -- -- -- -- -- --  -- -- -- -- -- -- -- --
0000:    5B 00 80 F8 FF FF 7F  F8 FF FF 7F 74 6C 6B 30   [..........tlk0
0010: 00                                                .               
```

#### Opcodes

```
  0: 0x0001 [0x5B] LOAD_EXT_SCHEDULER: Load scheduler "tlk0" with entities [EventEntity, EventEntity], work=165*
  1: 0x0010 [0x00] END_REQSTACK()
```

### Event 65535.2

#### Metadata

| Field        | Value    |
|--------------|----------|
| Entrypoint   | 0x0011   |
| Data Size    | 14 bytes |
| Instructions | 2        |

```
      00 01 02 03 04 05 06 07  08 09 0A 0B 0C 0D 0E 0F
      -- -- -- -- -- -- -- --  -- -- -- -- -- -- -- --
0010:    53 F8 FF FF 7F F8 FF  FF 7F 74 6C 6B 30 00      S........tlk0. 
```

#### Opcodes

```
  0: 0x0011 [0x53] WAIT_SCHEDULER_TASK: Wait for scheduler "tlk0" with entities [EventEntity, EventEntity]
  1: 0x001E [0x00] END_REQSTACK()
```

### Event 65535.3

#### Metadata

| Field        | Value    |
|--------------|----------|
| Entrypoint   | 0x001F   |
| Data Size    | 16 bytes |
| Instructions | 2        |

```
      00 01 02 03 04 05 06 07  08 09 0A 0B 0C 0D 0E 0F
      -- -- -- -- -- -- -- --  -- -- -- -- -- -- -- --
0010:                                               5B                 [
0020: 00 80 F8 FF FF 7F F8 FF  FF 7F 74 6C 6B 31 00     ..........tlk1. 
```

#### Opcodes

```
  0: 0x001F [0x5B] LOAD_EXT_SCHEDULER: Load scheduler "tlk1" with entities [EventEntity, EventEntity], work=165*
  1: 0x002E [0x00] END_REQSTACK()
```

### Event 65535.4

#### Metadata

| Field        | Value    |
|--------------|----------|
| Entrypoint   | 0x002F   |
| Data Size    | 14 bytes |
| Instructions | 2        |

```
      00 01 02 03 04 05 06 07  08 09 0A 0B 0C 0D 0E 0F
      -- -- -- -- -- -- -- --  -- -- -- -- -- -- -- --
0020:                                               53                 S
0030: F8 FF FF 7F F8 FF FF 7F  74 6C 6B 31 00           ........tlk1.   
```

#### Opcodes

```
  0: 0x002F [0x53] WAIT_SCHEDULER_TASK: Wait for scheduler "tlk1" with entities [EventEntity, EventEntity]
  1: 0x003C [0x00] END_REQSTACK()
```

### Event 65535.5

#### Metadata

| Field        | Value    |
|--------------|----------|
| Entrypoint   | 0x003D   |
| Data Size    | 16 bytes |
| Instructions | 2        |

```
      00 01 02 03 04 05 06 07  08 09 0A 0B 0C 0D 0E 0F
      -- -- -- -- -- -- -- --  -- -- -- -- -- -- -- --
0030:                                         5B 00 80               [..
0040: F8 FF FF 7F F8 FF FF 7F  6B 62 6B 30 00           ........kbk0.   
```

#### Opcodes

```
  0: 0x003D [0x5B] LOAD_EXT_SCHEDULER: Load scheduler "kbk0" with entities [EventEntity, EventEntity], work=165*
  1: 0x004C [0x00] END_REQSTACK()
```

### Event 65535.6

#### Metadata

| Field        | Value    |
|--------------|----------|
| Entrypoint   | 0x004D   |
| Data Size    | 14 bytes |
| Instructions | 2        |

```
      00 01 02 03 04 05 06 07  08 09 0A 0B 0C 0D 0E 0F
      -- -- -- -- -- -- -- --  -- -- -- -- -- -- -- --
0040:                                         53 F8 FF               S..
0050: FF 7F F8 FF FF 7F 6B 62  6B 30 00                 ......kbk0.     
```

#### Opcodes

```
  0: 0x004D [0x53] WAIT_SCHEDULER_TASK: Wait for scheduler "kbk0" with entities [EventEntity, EventEntity]
  1: 0x005A [0x00] END_REQSTACK()
```

### Event 65535.7

#### Metadata

| Field        | Value    |
|--------------|----------|
| Entrypoint   | 0x005B   |
| Data Size    | 16 bytes |
| Instructions | 2        |

```
      00 01 02 03 04 05 06 07  08 09 0A 0B 0C 0D 0E 0F
      -- -- -- -- -- -- -- --  -- -- -- -- -- -- -- --
0050:                                   5B 00 80 F8 FF             [....
0060: FF 7F F8 FF FF 7F 6B 62  6B 31 00                 ......kbk1.     
```

#### Opcodes

```
  0: 0x005B [0x5B] LOAD_EXT_SCHEDULER: Load scheduler "kbk1" with entities [EventEntity, EventEntity], work=165*
  1: 0x006A [0x00] END_REQSTACK()
```

### Event 65535.8

#### Metadata

| Field        | Value    |
|--------------|----------|
| Entrypoint   | 0x006B   |
| Data Size    | 14 bytes |
| Instructions | 2        |

```
      00 01 02 03 04 05 06 07  08 09 0A 0B 0C 0D 0E 0F
      -- -- -- -- -- -- -- --  -- -- -- -- -- -- -- --
0060:                                   53 F8 FF FF 7F             S....
0070: F8 FF FF 7F 6B 62 6B 31  00                       ....kbk1.       
```

#### Opcodes

```
  0: 0x006B [0x53] WAIT_SCHEDULER_TASK: Wait for scheduler "kbk1" with entities [EventEntity, EventEntity]
  1: 0x0078 [0x00] END_REQSTACK()
```

### Event 65535.9

#### Metadata

| Field        | Value    |
|--------------|----------|
| Entrypoint   | 0x0079   |
| Data Size    | 16 bytes |
| Instructions | 2        |

```
      00 01 02 03 04 05 06 07  08 09 0A 0B 0C 0D 0E 0F
      -- -- -- -- -- -- -- --  -- -- -- -- -- -- -- --
0070:                             5B 00 80 F8 FF FF 7F           [......
0080: F8 FF FF 7F 73 70 70 30  00                       ....spp0.       
```

#### Opcodes

```
  0: 0x0079 [0x5B] LOAD_EXT_SCHEDULER: Load scheduler "spp0" with entities [EventEntity, EventEntity], work=165*
  1: 0x0088 [0x00] END_REQSTACK()
```

### Event 65535.10

#### Metadata

| Field        | Value    |
|--------------|----------|
| Entrypoint   | 0x0089   |
| Data Size    | 14 bytes |
| Instructions | 2        |

```
      00 01 02 03 04 05 06 07  08 09 0A 0B 0C 0D 0E 0F
      -- -- -- -- -- -- -- --  -- -- -- -- -- -- -- --
0080:                             53 F8 FF FF 7F F8 FF           S......
0090: FF 7F 73 70 70 30 00                              ..spp0.         
```

#### Opcodes

```
  0: 0x0089 [0x53] WAIT_SCHEDULER_TASK: Wait for scheduler "spp0" with entities [EventEntity, EventEntity]
  1: 0x0096 [0x00] END_REQSTACK()
```

### Event 65535.11

#### Metadata

| Field        | Value    |
|--------------|----------|
| Entrypoint   | 0x0097   |
| Data Size    | 16 bytes |
| Instructions | 2        |

```
      00 01 02 03 04 05 06 07  08 09 0A 0B 0C 0D 0E 0F
      -- -- -- -- -- -- -- --  -- -- -- -- -- -- -- --
0090:                      5B  00 80 F8 FF FF 7F F8 FF         [........
00A0: FF 7F 73 70 70 31 00                              ..spp1.         
```

#### Opcodes

```
  0: 0x0097 [0x5B] LOAD_EXT_SCHEDULER: Load scheduler "spp1" with entities [EventEntity, EventEntity], work=165*
  1: 0x00A6 [0x00] END_REQSTACK()
```

### Event 65535.12

#### Metadata

| Field        | Value    |
|--------------|----------|
| Entrypoint   | 0x00A7   |
| Data Size    | 14 bytes |
| Instructions | 2        |

```
      00 01 02 03 04 05 06 07  08 09 0A 0B 0C 0D 0E 0F
      -- -- -- -- -- -- -- --  -- -- -- -- -- -- -- --
00A0:                      53  F8 FF FF 7F F8 FF FF 7F         S........
00B0: 73 70 70 31 00                                    spp1.           
```

#### Opcodes

```
  0: 0x00A7 [0x53] WAIT_SCHEDULER_TASK: Wait for scheduler "spp1" with entities [EventEntity, EventEntity]
  1: 0x00B4 [0x00] END_REQSTACK()
```

### Event 65535.13

#### Metadata

| Field        | Value    |
|--------------|----------|
| Entrypoint   | 0x00B5   |
| Data Size    | 16 bytes |
| Instructions | 2        |

```
      00 01 02 03 04 05 06 07  08 09 0A 0B 0C 0D 0E 0F
      -- -- -- -- -- -- -- --  -- -- -- -- -- -- -- --
00B0:                5B 01 80  F8 FF FF 7F F8 FF FF 7F       [..........
00C0: 74 68 6B 31 00                                    thk1.           
```

#### Opcodes

```
  0: 0x00B5 [0x5B] LOAD_EXT_SCHEDULER: Load scheduler "thk1" with entities [EventEntity, EventEntity], work=337*
  1: 0x00C4 [0x00] END_REQSTACK()
```

### Event 65535.14

#### Metadata

| Field        | Value    |
|--------------|----------|
| Entrypoint   | 0x00C5   |
| Data Size    | 14 bytes |
| Instructions | 2        |

```
      00 01 02 03 04 05 06 07  08 09 0A 0B 0C 0D 0E 0F
      -- -- -- -- -- -- -- --  -- -- -- -- -- -- -- --
00C0:                53 F8 FF  FF 7F F8 FF FF 7F 74 68       S........th
00D0: 6B 31 00                                          k1.             
```

#### Opcodes

```
  0: 0x00C5 [0x53] WAIT_SCHEDULER_TASK: Wait for scheduler "thk1" with entities [EventEntity, EventEntity]
  1: 0x00D2 [0x00] END_REQSTACK()
```

### Event 65535.15

#### Metadata

| Field        | Value    |
|--------------|----------|
| Entrypoint   | 0x00D3   |
| Data Size    | 16 bytes |
| Instructions | 2        |

```
      00 01 02 03 04 05 06 07  08 09 0A 0B 0C 0D 0E 0F
      -- -- -- -- -- -- -- --  -- -- -- -- -- -- -- --
00D0:          5B 01 80 F8 FF  FF 7F F8 FF FF 7F 74 68     [..........th
00E0: 6B 32 00                                          k2.             
```

#### Opcodes

```
  0: 0x00D3 [0x5B] LOAD_EXT_SCHEDULER: Load scheduler "thk2" with entities [EventEntity, EventEntity], work=337*
  1: 0x00E2 [0x00] END_REQSTACK()
```

### Event 65535.16

#### Metadata

| Field        | Value    |
|--------------|----------|
| Entrypoint   | 0x00E3   |
| Data Size    | 14 bytes |
| Instructions | 2        |

```
      00 01 02 03 04 05 06 07  08 09 0A 0B 0C 0D 0E 0F
      -- -- -- -- -- -- -- --  -- -- -- -- -- -- -- --
00E0:          53 F8 FF FF 7F  F8 FF FF 7F 74 68 6B 32     S........thk2
00F0: 00                                                .               
```

#### Opcodes

```
  0: 0x00E3 [0x53] WAIT_SCHEDULER_TASK: Wait for scheduler "thk2" with entities [EventEntity, EventEntity]
  1: 0x00F0 [0x00] END_REQSTACK()
```

### Event 65535.17

#### Metadata

| Field        | Value    |
|--------------|----------|
| Entrypoint   | 0x00F1   |
| Data Size    | 16 bytes |
| Instructions | 2        |

```
      00 01 02 03 04 05 06 07  08 09 0A 0B 0C 0D 0E 0F
      -- -- -- -- -- -- -- --  -- -- -- -- -- -- -- --
00F0:    5B 01 80 F8 FF FF 7F  F8 FF FF 7F 70 61 73 30   [..........pas0
0100: 00                                                .               
```

#### Opcodes

```
  0: 0x00F1 [0x5B] LOAD_EXT_SCHEDULER: Load scheduler "pas0" with entities [EventEntity, EventEntity], work=337*
  1: 0x0100 [0x00] END_REQSTACK()
```

### Event 65535.18

#### Metadata

| Field        | Value    |
|--------------|----------|
| Entrypoint   | 0x0101   |
| Data Size    | 14 bytes |
| Instructions | 2        |

```
      00 01 02 03 04 05 06 07  08 09 0A 0B 0C 0D 0E 0F
      -- -- -- -- -- -- -- --  -- -- -- -- -- -- -- --
0100:    53 F8 FF FF 7F F8 FF  FF 7F 70 61 73 30 00      S........pas0. 
```

#### Opcodes

```
  0: 0x0101 [0x53] WAIT_SCHEDULER_TASK: Wait for scheduler "pas0" with entities [EventEntity, EventEntity]
  1: 0x010E [0x00] END_REQSTACK()
```

### Event 65535.19

#### Metadata

| Field        | Value    |
|--------------|----------|
| Entrypoint   | 0x010F   |
| Data Size    | 16 bytes |
| Instructions | 2        |

```
      00 01 02 03 04 05 06 07  08 09 0A 0B 0C 0D 0E 0F
      -- -- -- -- -- -- -- --  -- -- -- -- -- -- -- --
0100:                                               5B                 [
0110: 02 80 F8 FF FF 7F F8 FF  FF 7F 62 69 6B 30 00     ..........bik0. 
```

#### Opcodes

```
  0: 0x010F [0x5B] LOAD_EXT_SCHEDULER: Load scheduler "bik0" with entities [EventEntity, EventEntity], work=341*
  1: 0x011E [0x00] END_REQSTACK()
```

### Event 65535.20

#### Metadata

| Field        | Value    |
|--------------|----------|
| Entrypoint   | 0x011F   |
| Data Size    | 22 bytes |
| Instructions | 4        |

```
      00 01 02 03 04 05 06 07  08 09 0A 0B 0C 0D 0E 0F
      -- -- -- -- -- -- -- --  -- -- -- -- -- -- -- --
0110:                                               53                 S
0120: F8 FF FF 7F F8 FF FF 7F  62 69 6B 30 5E 69 64 6C  ........bik0^idl
0130: 30 1C 03 80 00                                    0....           
```

#### Opcodes

```
  0: 0x011F [0x53] WAIT_SCHEDULER_TASK: Wait for scheduler "bik0" with entities [EventEntity, EventEntity]
  1: 0x012C [0x5E] EventEntity goes idle (kills current action) (animation: "idl0")
  2: 0x0131 [0x1C] WAIT(30* ticks)
  3: 0x0134 [0x00] END_REQSTACK()
```

### Event 65535.21

#### Metadata

| Field        | Value    |
|--------------|----------|
| Entrypoint   | 0x0135   |
| Data Size    | 16 bytes |
| Instructions | 2        |

```
      00 01 02 03 04 05 06 07  08 09 0A 0B 0C 0D 0E 0F
      -- -- -- -- -- -- -- --  -- -- -- -- -- -- -- --
0130:                5B 02 80  F8 FF FF 7F F8 FF FF 7F       [..........
0140: 73 68 6B 30 00                                    shk0.           
```

#### Opcodes

```
  0: 0x0135 [0x5B] LOAD_EXT_SCHEDULER: Load scheduler "shk0" with entities [EventEntity, EventEntity], work=341*
  1: 0x0144 [0x00] END_REQSTACK()
```

### Event 65535.22

#### Metadata

| Field        | Value    |
|--------------|----------|
| Entrypoint   | 0x0145   |
| Data Size    | 14 bytes |
| Instructions | 2        |

```
      00 01 02 03 04 05 06 07  08 09 0A 0B 0C 0D 0E 0F
      -- -- -- -- -- -- -- --  -- -- -- -- -- -- -- --
0140:                53 F8 FF  FF 7F F8 FF FF 7F 73 68       S........sh
0150: 6B 30 00                                          k0.             
```

#### Opcodes

```
  0: 0x0145 [0x53] WAIT_SCHEDULER_TASK: Wait for scheduler "shk0" with entities [EventEntity, EventEntity]
  1: 0x0152 [0x00] END_REQSTACK()
```

### Event 65535.23

#### Metadata

| Field        | Value   |
|--------------|---------|
| Entrypoint   | 0x0153  |
| Data Size    | 9 bytes |
| Instructions | 3       |

```
      00 01 02 03 04 05 06 07  08 09 0A 0B 0C 0D 0E 0F
      -- -- -- -- -- -- -- --  -- -- -- -- -- -- -- --
0150:          5E 69 64 6C 30  1C 03 80 00                 ^idl0....    
```

#### Opcodes

```
  0: 0x0153 [0x5E] EventEntity goes idle (kills current action) (animation: "idl0")
  1: 0x0158 [0x1C] WAIT(30* ticks)
  2: 0x015B [0x00] END_REQSTACK()
```

### Event 65535.24

#### Metadata

| Field        | Value    |
|--------------|----------|
| Entrypoint   | 0x015C   |
| Data Size    | 16 bytes |
| Instructions | 2        |

```
      00 01 02 03 04 05 06 07  08 09 0A 0B 0C 0D 0E 0F
      -- -- -- -- -- -- -- --  -- -- -- -- -- -- -- --
0150:                                      5B 04 80 F8              [...
0160: FF FF 7F F8 FF FF 7F 6B  73 77 30 00              .......ksw0.    
```

#### Opcodes

```
  0: 0x015C [0x5B] LOAD_EXT_SCHEDULER: Load scheduler "ksw0" with entities [EventEntity, EventEntity], work=166*
  1: 0x016B [0x00] END_REQSTACK()
```

### Event 65535.25

#### Metadata

| Field        | Value    |
|--------------|----------|
| Entrypoint   | 0x016C   |
| Data Size    | 14 bytes |
| Instructions | 2        |

```
      00 01 02 03 04 05 06 07  08 09 0A 0B 0C 0D 0E 0F
      -- -- -- -- -- -- -- --  -- -- -- -- -- -- -- --
0160:                                      53 F8 FF FF              S...
0170: 7F F8 FF FF 7F 6B 73 77  30 00                    .....ksw0.      
```

#### Opcodes

```
  0: 0x016C [0x53] WAIT_SCHEDULER_TASK: Wait for scheduler "ksw0" with entities [EventEntity, EventEntity]
  1: 0x0179 [0x00] END_REQSTACK()
```

### Event 65535.26

#### Metadata

| Field        | Value    |
|--------------|----------|
| Entrypoint   | 0x017A   |
| Data Size    | 22 bytes |
| Instructions | 3        |

```
      00 01 02 03 04 05 06 07  08 09 0A 0B 0C 0D 0E 0F
      -- -- -- -- -- -- -- --  -- -- -- -- -- -- -- --
0170:                                81 00 F8 FF FF 7F            ......
0180: 5B 04 80 F8 FF FF 7F F8  FF FF 7F 6B 73 74 30 00  [..........kst0.
```

#### Opcodes

```
  0: 0x017A [0x81] SET_ENTITY_BLINKING(blink_flag=0x00, entity=EventEntity)
  1: 0x0180 [0x5B] LOAD_EXT_SCHEDULER: Load scheduler "kst0" with entities [EventEntity, EventEntity], work=166*
  2: 0x018F [0x00] END_REQSTACK()
```

### Event 65535.27

#### Metadata

| Field        | Value    |
|--------------|----------|
| Entrypoint   | 0x0190   |
| Data Size    | 20 bytes |
| Instructions | 3        |

```
      00 01 02 03 04 05 06 07  08 09 0A 0B 0C 0D 0E 0F
      -- -- -- -- -- -- -- --  -- -- -- -- -- -- -- --
0190: 53 F8 FF FF 7F F8 FF FF  7F 6B 73 74 30 81 01 F8  S........kst0...
01A0: FF FF 7F 00                                       ....            
```

#### Opcodes

```
  0: 0x0190 [0x53] WAIT_SCHEDULER_TASK: Wait for scheduler "kst0" with entities [EventEntity, EventEntity]
  1: 0x019D [0x81] SET_ENTITY_BLINKING(blink_flag=0x01, entity=EventEntity)
  2: 0x01A3 [0x00] END_REQSTACK()
```

### Event 65535.28

#### Metadata

| Field        | Value    |
|--------------|----------|
| Entrypoint   | 0x01A4   |
| Data Size    | 16 bytes |
| Instructions | 2        |

```
      00 01 02 03 04 05 06 07  08 09 0A 0B 0C 0D 0E 0F
      -- -- -- -- -- -- -- --  -- -- -- -- -- -- -- --
01A0:             5B 04 80 F8  FF FF 7F F8 FF FF 7F 6B      [..........k
01B0: 73 74 31 00                                       st1.            
```

#### Opcodes

```
  0: 0x01A4 [0x5B] LOAD_EXT_SCHEDULER: Load scheduler "kst1" with entities [EventEntity, EventEntity], work=166*
  1: 0x01B3 [0x00] END_REQSTACK()
```

### Event 65535.29

#### Metadata

| Field        | Value    |
|--------------|----------|
| Entrypoint   | 0x01B4   |
| Data Size    | 14 bytes |
| Instructions | 2        |

```
      00 01 02 03 04 05 06 07  08 09 0A 0B 0C 0D 0E 0F
      -- -- -- -- -- -- -- --  -- -- -- -- -- -- -- --
01B0:             53 F8 FF FF  7F F8 FF FF 7F 6B 73 74      S........kst
01C0: 31 00                                             1.              
```

#### Opcodes

```
  0: 0x01B4 [0x53] WAIT_SCHEDULER_TASK: Wait for scheduler "kst1" with entities [EventEntity, EventEntity]
  1: 0x01C1 [0x00] END_REQSTACK()
```

### Event 65535.30

#### Metadata

| Field        | Value    |
|--------------|----------|
| Entrypoint   | 0x01C2   |
| Data Size    | 22 bytes |
| Instructions | 3        |

```
      00 01 02 03 04 05 06 07  08 09 0A 0B 0C 0D 0E 0F
      -- -- -- -- -- -- -- --  -- -- -- -- -- -- -- --
01C0:       81 00 F8 FF FF 7F  5B 04 80 F8 FF FF 7F F8    ......[.......
01D0: FF FF 7F 6B 75 70 30 00                           ...kup0.        
```

#### Opcodes

```
  0: 0x01C2 [0x81] SET_ENTITY_BLINKING(blink_flag=0x00, entity=EventEntity)
  1: 0x01C8 [0x5B] LOAD_EXT_SCHEDULER: Load scheduler "kup0" with entities [EventEntity, EventEntity], work=166*
  2: 0x01D7 [0x00] END_REQSTACK()
```

### Event 65535.31

#### Metadata

| Field        | Value    |
|--------------|----------|
| Entrypoint   | 0x01D8   |
| Data Size    | 20 bytes |
| Instructions | 3        |

```
      00 01 02 03 04 05 06 07  08 09 0A 0B 0C 0D 0E 0F
      -- -- -- -- -- -- -- --  -- -- -- -- -- -- -- --
01D0:                          53 F8 FF FF 7F F8 FF FF          S.......
01E0: 7F 6B 75 70 30 81 01 F8  FF FF 7F 00              .kup0.......    
```

#### Opcodes

```
  0: 0x01D8 [0x53] WAIT_SCHEDULER_TASK: Wait for scheduler "kup0" with entities [EventEntity, EventEntity]
  1: 0x01E5 [0x81] SET_ENTITY_BLINKING(blink_flag=0x01, entity=EventEntity)
  2: 0x01EB [0x00] END_REQSTACK()
```

### Event 65535.32

#### Metadata

| Field        | Value    |
|--------------|----------|
| Entrypoint   | 0x01EC   |
| Data Size    | 16 bytes |
| Instructions | 2        |

```
      00 01 02 03 04 05 06 07  08 09 0A 0B 0C 0D 0E 0F
      -- -- -- -- -- -- -- --  -- -- -- -- -- -- -- --
01E0:                                      5B 05 80 F8              [...
01F0: FF FF 7F F8 FF FF 7F 62  6B 79 30 00              .......bky0.    
```

#### Opcodes

```
  0: 0x01EC [0x5B] LOAD_EXT_SCHEDULER: Load scheduler "bky0" with entities [EventEntity, EventEntity], work=168*
  1: 0x01FB [0x00] END_REQSTACK()
```

### Event 65535.33

#### Metadata

| Field        | Value    |
|--------------|----------|
| Entrypoint   | 0x01FC   |
| Data Size    | 14 bytes |
| Instructions | 2        |

```
      00 01 02 03 04 05 06 07  08 09 0A 0B 0C 0D 0E 0F
      -- -- -- -- -- -- -- --  -- -- -- -- -- -- -- --
01F0:                                      53 F8 FF FF              S...
0200: 7F F8 FF FF 7F 62 6B 79  30 00                    .....bky0.      
```

#### Opcodes

```
  0: 0x01FC [0x53] WAIT_SCHEDULER_TASK: Wait for scheduler "bky0" with entities [EventEntity, EventEntity]
  1: 0x0209 [0x00] END_REQSTACK()
```

### Event 65535.34

#### Metadata

| Field        | Value    |
|--------------|----------|
| Entrypoint   | 0x020A   |
| Data Size    | 16 bytes |
| Instructions | 2        |

```
      00 01 02 03 04 05 06 07  08 09 0A 0B 0C 0D 0E 0F
      -- -- -- -- -- -- -- --  -- -- -- -- -- -- -- --
0200:                                5B 05 80 F8 FF FF            [.....
0210: 7F F8 FF FF 7F 62 6B 79  31 00                    .....bky1.      
```

#### Opcodes

```
  0: 0x020A [0x5B] LOAD_EXT_SCHEDULER: Load scheduler "bky1" with entities [EventEntity, EventEntity], work=168*
  1: 0x0219 [0x00] END_REQSTACK()
```

### Event 65535.35

#### Metadata

| Field        | Value    |
|--------------|----------|
| Entrypoint   | 0x021A   |
| Data Size    | 14 bytes |
| Instructions | 2        |

```
      00 01 02 03 04 05 06 07  08 09 0A 0B 0C 0D 0E 0F
      -- -- -- -- -- -- -- --  -- -- -- -- -- -- -- --
0210:                                53 F8 FF FF 7F F8            S.....
0220: FF FF 7F 62 6B 79 31 00                           ...bky1.        
```

#### Opcodes

```
  0: 0x021A [0x53] WAIT_SCHEDULER_TASK: Wait for scheduler "bky1" with entities [EventEntity, EventEntity]
  1: 0x0227 [0x00] END_REQSTACK()
```

### Event 65535.36

#### Metadata

| Field        | Value    |
|--------------|----------|
| Entrypoint   | 0x0228   |
| Data Size    | 16 bytes |
| Instructions | 2        |

```
      00 01 02 03 04 05 06 07  08 09 0A 0B 0C 0D 0E 0F
      -- -- -- -- -- -- -- --  -- -- -- -- -- -- -- --
0220:                          5B 06 80 F8 FF FF 7F F8          [.......
0230: FF FF 7F 62 6B 79 32 00                           ...bky2.        
```

#### Opcodes

```
  0: 0x0228 [0x5B] LOAD_EXT_SCHEDULER: Load scheduler "bky2" with entities [EventEntity, EventEntity], work=54*
  1: 0x0237 [0x00] END_REQSTACK()
```

### Event 65535.37

#### Metadata

| Field        | Value    |
|--------------|----------|
| Entrypoint   | 0x0238   |
| Data Size    | 14 bytes |
| Instructions | 2        |

```
      00 01 02 03 04 05 06 07  08 09 0A 0B 0C 0D 0E 0F
      -- -- -- -- -- -- -- --  -- -- -- -- -- -- -- --
0230:                          53 F8 FF FF 7F F8 FF FF          S.......
0240: 7F 62 6B 79 32 00                                 .bky2.          
```

#### Opcodes

```
  0: 0x0238 [0x53] WAIT_SCHEDULER_TASK: Wait for scheduler "bky2" with entities [EventEntity, EventEntity]
  1: 0x0245 [0x00] END_REQSTACK()
```

### Event 619

#### Metadata

| Field        | Value   |
|--------------|---------|
| Entrypoint   | 0x0246  |
| Data Size    | 1 bytes |
| Instructions | 1       |

```
      00 01 02 03 04 05 06 07  08 09 0A 0B 0C 0D 0E 0F
      -- -- -- -- -- -- -- --  -- -- -- -- -- -- -- --
0240:                   00                                    .         
```

#### Opcodes

```
  0: 0x0246 [0x00] END_REQSTACK()
```

### Event 65535.38

#### Metadata

| Field        | Value    |
|--------------|----------|
| Entrypoint   | 0x0247   |
| Data Size    | 10 bytes |
| Instructions | 2        |

```
      00 01 02 03 04 05 06 07  08 09 0A 0B 0C 0D 0E 0F
      -- -- -- -- -- -- -- --  -- -- -- -- -- -- -- --
0240:                      37  07 80 08 80 09 80 0A 80         7........
0250: 00                                                .               
```

#### Opcodes

```
  0: 0x0247 [0x37] UPDATE_EVENT_POSITION_AND_DIR: x=3.980*, z=-19.048*, y=-3.749*, direction=173.0°*
  1: 0x0250 [0x00] END_REQSTACK()
```

### Event 65535.39

#### Metadata

| Field        | Value    |
|--------------|----------|
| Entrypoint   | 0x0251   |
| Data Size    | 15 bytes |
| Instructions | 5        |

```
      00 01 02 03 04 05 06 07  08 09 0A 0B 0C 0D 0E 0F
      -- -- -- -- -- -- -- --  -- -- -- -- -- -- -- --
0250:    32 0B 80 1F 00 0C 80  0D 80 09 80 1F 01 6F 00   2............o.
```

#### Opcodes

```
  0: 0x0251 [0x32] ExtData[1]->MainSpeed = 13* * 0.1
  1: 0x0254 [0x1F] MOVE_ENTITY: EventEntity moves to X=2.214*, Z=-19.126*, Y=-3.749*
  2: 0x025C [0x1F] MOVE_ENTITY: Update entity position (mode=1)
  3: 0x025E [0x6F] WAIT_FRAME_DELAY: Yield until WaitTime reaches zero
  4: 0x025F [0x00] END_REQSTACK()
```

### Event 65535.40

#### Metadata

| Field        | Value    |
|--------------|----------|
| Entrypoint   | 0x0260   |
| Data Size    | 14 bytes |
| Instructions | 4        |

```
      00 01 02 03 04 05 06 07  08 09 0A 0B 0C 0D 0E 0F
      -- -- -- -- -- -- -- --  -- -- -- -- -- -- -- --
0260: 32 0E 80 1F 00 0F 80 10  80 09 80 1F 01 00        2.............  
```

#### Opcodes

```
  0: 0x0260 [0x32] ExtData[1]->MainSpeed = 40* * 0.1
  1: 0x0263 [0x1F] MOVE_ENTITY: EventEntity moves to X=0.205*, Z=-19.251*, Y=-3.749*
  2: 0x026B [0x1F] MOVE_ENTITY: Update entity position (mode=1)
  3: 0x026D [0x00] END_REQSTACK()
```

### Event 65535.41

#### Metadata

| Field        | Value    |
|--------------|----------|
| Entrypoint   | 0x026E   |
| Data Size    | 14 bytes |
| Instructions | 4        |

```
      00 01 02 03 04 05 06 07  08 09 0A 0B 0C 0D 0E 0F
      -- -- -- -- -- -- -- --  -- -- -- -- -- -- -- --
0260:                                            32 0E                2.
0270: 80 1F 00 11 80 12 80 09  80 1F 01 00              ............    
```

#### Opcodes

```
  0: 0x026E [0x32] ExtData[1]->MainSpeed = 40* * 0.1
  1: 0x0271 [0x1F] MOVE_ENTITY: EventEntity moves to X=-3.590*, Z=-19.964*, Y=-3.749*
  2: 0x0279 [0x1F] MOVE_ENTITY: Update entity position (mode=1)
  3: 0x027B [0x00] END_REQSTACK()
```

### Event 65535.42

#### Metadata

| Field        | Value    |
|--------------|----------|
| Entrypoint   | 0x027C   |
| Data Size    | 33 bytes |
| Instructions | 7        |

```
      00 01 02 03 04 05 06 07  08 09 0A 0B 0C 0D 0E 0F
      -- -- -- -- -- -- -- --  -- -- -- -- -- -- -- --
0270:                                      37 13 80 14              7...
0280: 80 15 80 16 80 32 0E 80  1F 00 17 80 18 80 19 80  .....2..........
0290: 1F 01 1F 00 1A 80 1B 80  1C 80 1F 01 00           .............   
```

#### Opcodes

```
  0: 0x027C [0x37] UPDATE_EVENT_POSITION_AND_DIR: x=-15.672*, z=-22.182*, y=-2.750*, direction=171.6°*
  1: 0x0285 [0x32] ExtData[1]->MainSpeed = 40* * 0.1
  2: 0x0288 [0x1F] MOVE_ENTITY: EventEntity moves to X=-23.507*, Z=-23.093*, Y=-2.749*
  3: 0x0290 [0x1F] MOVE_ENTITY: Update entity position (mode=1)
  4: 0x0292 [0x1F] MOVE_ENTITY: EventEntity moves to X=-30.383*, Z=-11.366*, Y=-2.500*
  5: 0x029A [0x1F] MOVE_ENTITY: Update entity position (mode=1)
  6: 0x029C [0x00] END_REQSTACK()
```

### Event 65535.43

#### Metadata

| Field        | Value   |
|--------------|---------|
| Entrypoint   | 0x029D  |
| Data Size    | 5 bytes |
| Instructions | 3       |

```
      00 01 02 03 04 05 06 07  08 09 0A 0B 0C 0D 0E 0F
      -- -- -- -- -- -- -- --  -- -- -- -- -- -- -- --
0290:                                         1D 1D 80               ...
02A0: 23 00                                             #.              
```

#### Opcodes

```
  0: 0x029D [0x1D] PRINT_EVENT_MESSAGE(message_id=9584*)
    → "Thanks to you, I was able to see all that was written in the Book of the Gods. We must act before Windurst is wiped off the face of Vana'diel..."
  1: 0x02A0 [0x23] WAIT_FOR_DIALOG_INTERACTION
  2: 0x02A1 [0x00] END_REQSTACK()
```

### Event 621

#### Metadata

| Field        | Value   |
|--------------|---------|
| Entrypoint   | 0x02A2  |
| Data Size    | 1 bytes |
| Instructions | 1       |

```
      00 01 02 03 04 05 06 07  08 09 0A 0B 0C 0D 0E 0F
      -- -- -- -- -- -- -- --  -- -- -- -- -- -- -- --
02A0:       00                                            .             
```

#### Opcodes

```
  0: 0x02A2 [0x00] END_REQSTACK()
```

### Event 65535.44

#### Metadata

| Field        | Value    |
|--------------|----------|
| Entrypoint   | 0x02A3   |
| Data Size    | 10 bytes |
| Instructions | 2        |

```
      00 01 02 03 04 05 06 07  08 09 0A 0B 0C 0D 0E 0F
      -- -- -- -- -- -- -- --  -- -- -- -- -- -- -- --
02A0:          37 1E 80 1F 80  1C 80 20 80 00              7...... ..   
```

#### Opcodes

```
  0: 0x02A3 [0x37] UPDATE_EVENT_POSITION_AND_DIR: x=-23.850*, z=10.831*, y=-2.500*, direction=355.3°*
  1: 0x02AC [0x00] END_REQSTACK()
```

### Event 65535.45

#### Metadata

| Field        | Value    |
|--------------|----------|
| Entrypoint   | 0x02AD   |
| Data Size    | 15 bytes |
| Instructions | 5        |

```
      00 01 02 03 04 05 06 07  08 09 0A 0B 0C 0D 0E 0F
      -- -- -- -- -- -- -- --  -- -- -- -- -- -- -- --
02A0:                                         32 0B 80               2..
02B0: 1F 00 21 80 22 80 19 80  1F 01 6F 00              ..!.".....o.    
```

#### Opcodes

```
  0: 0x02AD [0x32] ExtData[1]->MainSpeed = 13* * 0.1
  1: 0x02B0 [0x1F] MOVE_ENTITY: EventEntity moves to X=-15.079*, Z=12.576*, Y=-2.749*
  2: 0x02B8 [0x1F] MOVE_ENTITY: Update entity position (mode=1)
  3: 0x02BA [0x6F] WAIT_FRAME_DELAY: Yield until WaitTime reaches zero
  4: 0x02BB [0x00] END_REQSTACK()
```

### Event 65535.46

#### Metadata

| Field        | Value    |
|--------------|----------|
| Entrypoint   | 0x02BC   |
| Data Size    | 15 bytes |
| Instructions | 5        |

```
      00 01 02 03 04 05 06 07  08 09 0A 0B 0C 0D 0E 0F
      -- -- -- -- -- -- -- --  -- -- -- -- -- -- -- --
02B0:                                      32 0B 80 1F              2...
02C0: 00 23 80 24 80 19 80 1F  01 6F 00                 .#.$.....o.     
```

#### Opcodes

```
  0: 0x02BC [0x32] ExtData[1]->MainSpeed = 13* * 0.1
  1: 0x02BF [0x1F] MOVE_ENTITY: EventEntity moves to X=-15.976*, Z=12.527*, Y=-2.749*
  2: 0x02C7 [0x1F] MOVE_ENTITY: Update entity position (mode=1)
  3: 0x02C9 [0x6F] WAIT_FRAME_DELAY: Yield until WaitTime reaches zero
  4: 0x02CA [0x00] END_REQSTACK()
```

### Event 65535.47

#### Metadata

| Field        | Value    |
|--------------|----------|
| Entrypoint   | 0x02CB   |
| Data Size    | 16 bytes |
| Instructions | 5        |

```
      00 01 02 03 04 05 06 07  08 09 0A 0B 0C 0D 0E 0F
      -- -- -- -- -- -- -- --  -- -- -- -- -- -- -- --
02C0:                                   32 0E 80 1F 00             2....
02D0: 1E 80 1F 80 1C 80 1F 01  22 01 00                 ........"..     
```

#### Opcodes

```
  0: 0x02CB [0x32] ExtData[1]->MainSpeed = 40* * 0.1
  1: 0x02CE [0x1F] MOVE_ENTITY: EventEntity moves to X=-23.850*, Z=10.831*, Y=-2.500*
  2: 0x02D6 [0x1F] MOVE_ENTITY: Update entity position (mode=1)
  3: 0x02D8 [0x22] ENTITY_HIDE_FLAG(enabled=0x01)
  4: 0x02DA [0x00] END_REQSTACK()
```

### Event 65535.48

#### Metadata

| Field        | Value    |
|--------------|----------|
| Entrypoint   | 0x02DB   |
| Data Size    | 17 bytes |
| Instructions | 5        |

```
      00 01 02 03 04 05 06 07  08 09 0A 0B 0C 0D 0E 0F
      -- -- -- -- -- -- -- --  -- -- -- -- -- -- -- --
02D0:                                   7C 00 F8 FF FF             |....
02E0: 7F 1D 25 80 23 7C 01 F8  FF FF 7F 00              ..%.#|......    
```

#### Opcodes

```
  0: 0x02DB [0x7C] EventEntity->Render.Flags2 |= 0x00
  1: 0x02E1 [0x1D] PRINT_EVENT_MESSAGE(message_id=9629*)
    → "..."
  2: 0x02E4 [0x23] WAIT_FOR_DIALOG_INTERACTION
  3: 0x02E5 [0x7C] EventEntity->Render.Flags2 |= 0x01
  4: 0x02EB [0x00] END_REQSTACK()
```

### Event 866

#### Metadata

| Field        | Value   |
|--------------|---------|
| Entrypoint   | 0x02EC  |
| Data Size    | 1 bytes |
| Instructions | 1       |

```
      00 01 02 03 04 05 06 07  08 09 0A 0B 0C 0D 0E 0F
      -- -- -- -- -- -- -- --  -- -- -- -- -- -- -- --
02E0:                                      00                       .   
```

#### Opcodes

```
  0: 0x02EC [0x00] END_REQSTACK()
```

### Event 65535.49

#### Metadata

| Field        | Value    |
|--------------|----------|
| Entrypoint   | 0x02ED   |
| Data Size    | 14 bytes |
| Instructions | 4        |

```
      00 01 02 03 04 05 06 07  08 09 0A 0B 0C 0D 0E 0F
      -- -- -- -- -- -- -- --  -- -- -- -- -- -- -- --
02E0:                                         32 0B 80               2..
02F0: 1F 00 26 80 27 80 15 80  1F 01 00                 ..&.'......     
```

#### Opcodes

```
  0: 0x02ED [0x32] ExtData[1]->MainSpeed = 13* * 0.1
  1: 0x02F0 [0x1F] MOVE_ENTITY: EventEntity moves to X=-17.891*, Z=10.997*, Y=-2.750*
  2: 0x02F8 [0x1F] MOVE_ENTITY: Update entity position (mode=1)
  3: 0x02FA [0x00] END_REQSTACK()
```

### Event 65535.50

#### Metadata

| Field        | Value    |
|--------------|----------|
| Entrypoint   | 0x02FB   |
| Data Size    | 26 bytes |
| Instructions | 6        |

```
      00 01 02 03 04 05 06 07  08 09 0A 0B 0C 0D 0E 0F
      -- -- -- -- -- -- -- --  -- -- -- -- -- -- -- --
02F0:                                   32 0B 80 1F 00             2....
0300: 28 80 29 80 15 80 1F 01  4A E1 10 0F 01 14 10 0F  (.).....J.......
0310: 01 1C 03 80 00                                    .....           
```

#### Opcodes

```
  0: 0x02FB [0x32] ExtData[1]->MainSpeed = 13* * 0.1
  1: 0x02FE [0x1F] MOVE_ENTITY: EventEntity moves to X=-15.438*, Z=13.190*, Y=-2.750*
  2: 0x0306 [0x1F] MOVE_ENTITY: Update entity position (mode=1)
  3: 0x0308 [0x4A] Ajido-Marujido (ID: 17764577/0x010F10E1) looks at Apururu (ID: 17764372/0x010F1014)
  4: 0x0311 [0x1C] WAIT(30* ticks)
  5: 0x0314 [0x00] END_REQSTACK()
```
