# 17764367 - Nanaa Mihgo

## Common Data

| Field            | Value                    |
|------------------|--------------------------|
| Zone             | Windurst Woods (ID: 241) |
| Block Size       | 1432 bytes               |
| Total Events     | 75                       |
| References Count | 77                       |

## List of Events

| Event ID                   | Entrypoint   |   Size |   Instructions |
|----------------------------|--------------|--------|----------------|
| [65535](#event-65535)      | 0x0000       |      1 |              1 |
| [65535.1](#event-655351)   | 0x0001       |     16 |              2 |
| [65535.2](#event-655352)   | 0x0011       |     14 |              2 |
| [65535.3](#event-655353)   | 0x001F       |     16 |              2 |
| [65535.4](#event-655354)   | 0x002F       |     14 |              2 |
| [65535.5](#event-655355)   | 0x003D       |     21 |              3 |
| [65535.6](#event-655356)   | 0x0052       |     14 |              2 |
| [65535.7](#event-655357)   | 0x0060       |     16 |              2 |
| [65535.8](#event-655358)   | 0x0070       |     14 |              2 |
| [65535.9](#event-655359)   | 0x007E       |     16 |              2 |
| [65535.10](#event-6553510) | 0x008E       |     14 |              2 |
| [65535.11](#event-6553511) | 0x009C       |     16 |              2 |
| [65535.12](#event-6553512) | 0x00AC       |     14 |              2 |
| [65535.13](#event-6553513) | 0x00BA       |     16 |              2 |
| [65535.14](#event-6553514) | 0x00CA       |     14 |              2 |
| [65535.15](#event-6553515) | 0x00D8       |     16 |              2 |
| [65535.16](#event-6553516) | 0x00E8       |     14 |              2 |
| [65535.17](#event-6553517) | 0x00F6       |     16 |              2 |
| [65535.18](#event-6553518) | 0x0106       |     14 |              2 |
| [65535.19](#event-6553519) | 0x0114       |     29 |              3 |
| [65535.20](#event-6553520) | 0x0131       |     16 |              2 |
| [65535.21](#event-6553521) | 0x0141       |     14 |              2 |
| [65535.22](#event-6553522) | 0x014F       |     29 |              3 |
| [65535.23](#event-6553523) | 0x016C       |     16 |              2 |
| [65535.24](#event-6553524) | 0x017C       |     14 |              2 |
| [65535.25](#event-6553525) | 0x018A       |     29 |              3 |
| [65535.26](#event-6553526) | 0x01A7       |      9 |              3 |
| [65535.27](#event-6553527) | 0x01B0       |     15 |              5 |
| [65535.28](#event-6553528) | 0x01BF       |     43 |              7 |
| [65535.29](#event-6553529) | 0x01EA       |     35 |              9 |
| [11](#event-11)            | 0x020D       |      1 |              1 |
| [367](#event-367)          | 0x020E       |      1 |              1 |
| [65535.30](#event-6553530) | 0x020F       |      5 |              3 |
| [65535.31](#event-6553531) | 0x0214       |      5 |              3 |
| [65535.32](#event-6553532) | 0x0219       |      5 |              3 |
| [65535.33](#event-6553533) | 0x021E       |      5 |              3 |
| [65535.34](#event-6553534) | 0x0223       |      5 |              3 |
| [65535.35](#event-6553535) | 0x0228       |      5 |              3 |
| [65535.36](#event-6553536) | 0x022D       |      5 |              3 |
| [65535.37](#event-6553537) | 0x0232       |     18 |              5 |
| [65535.38](#event-6553538) | 0x0244       |      5 |              3 |
| [65535.39](#event-6553539) | 0x0249       |      5 |              3 |
| [65535.40](#event-6553540) | 0x024E       |      5 |              3 |
| [65535.41](#event-6553541) | 0x0253       |      5 |              3 |
| [65535.42](#event-6553542) | 0x0258       |      5 |              3 |
| [65535.43](#event-6553543) | 0x025D       |      5 |              3 |
| [65535.44](#event-6553544) | 0x0262       |      5 |              3 |
| [65535.45](#event-6553545) | 0x0267       |      5 |              3 |
| [65535.46](#event-6553546) | 0x026C       |      9 |              5 |
| [65535.47](#event-6553547) | 0x0275       |      5 |              3 |
| [65535.48](#event-6553548) | 0x027A       |      9 |              5 |
| [65535.49](#event-6553549) | 0x0283       |      5 |              3 |
| [65535.50](#event-6553550) | 0x0288       |      5 |              3 |
| [65535.51](#event-6553551) | 0x028D       |      9 |              5 |
| [65535.52](#event-6553552) | 0x0296       |      5 |              3 |
| [65535.53](#event-6553553) | 0x029B       |      5 |              3 |
| [65535.54](#event-6553554) | 0x02A0       |      9 |              5 |
| [65535.55](#event-6553555) | 0x02A9       |      5 |              3 |
| [65535.56](#event-6553556) | 0x02AE       |      5 |              3 |
| [65535.57](#event-6553557) | 0x02B3       |      5 |              3 |
| [65535.58](#event-6553558) | 0x02B8       |      9 |              5 |
| [65535.59](#event-6553559) | 0x02C1       |      9 |              5 |
| [65535.60](#event-6553560) | 0x02CA       |      9 |              5 |
| [65535.61](#event-6553561) | 0x02D3       |      5 |              3 |
| [65535.62](#event-6553562) | 0x02D8       |      5 |              3 |
| [65535.63](#event-6553563) | 0x02DD       |      9 |              5 |
| [65535.64](#event-6553564) | 0x02E6       |      9 |              5 |
| [65535.65](#event-6553565) | 0x02EF       |      5 |              3 |
| [65535.66](#event-6553566) | 0x02F4       |      9 |              5 |
| [65535.67](#event-6553567) | 0x02FD       |      9 |              5 |
| [65535.68](#event-6553568) | 0x0306       |      9 |              5 |
| [65535.69](#event-6553569) | 0x030F       |      5 |              3 |
| [65535.70](#event-6553570) | 0x0314       |      5 |              3 |
| [65535.71](#event-6553571) | 0x0319       |      9 |              5 |
| [65535.72](#event-6553572) | 0x0322       |      5 |              3 |

## DAT References (imed_data)

|   Index | Hex Value   |   Dec Value |
|---------|-------------|-------------|
|       0 | 0x0172      |         370 |
|       1 | 0x0190      |         400 |
|       2 | 0x0166      |         358 |
|       3 | 0x0034      |          52 |
|       4 | 0x0168      |         360 |
|       5 | 0x001E      |          30 |
|       6 | 0x000D      |          13 |
|       7 | 0x7196      |       29078 |
|       8 | 0xFFFF6F36  |  4294930230 |
|       9 | 0x07CF      |        1999 |
|      10 | 0x73A3      |       29603 |
|      11 | 0xFFFF6CC1  |  4294929601 |
|      12 | 0x0028      |          40 |
|      13 | 0x6275      |       25205 |
|      14 | 0xFFFF78EF  |  4294932719 |
|      15 | 0x4FAA      |       20394 |
|      16 | 0xFFFF8CAC  |  4294937772 |
|      17 | 0x0867      |        2151 |
|      18 | 0x4503      |       17667 |
|      19 | 0xFFFFA356  |  4294943574 |
|      20 | 0x065C      |        1628 |
|      21 | 0x208F      |        8335 |
|      22 | 0x2091      |        8337 |
|      23 | 0x2093      |        8339 |
|      24 | 0x2094      |        8340 |
|      25 | 0x2095      |        8341 |
|      26 | 0x20B1      |        8369 |
|      27 | 0x20B2      |        8370 |
|      28 | 0x20B3      |        8371 |
|      29 | 0x20B4      |        8372 |
|      30 | 0x20B6      |        8374 |
|      31 | 0x20B5      |        8373 |
|      32 | 0x20B7      |        8375 |
|      33 | 0x2097      |        8343 |
|      34 | 0x2098      |        8344 |
|      35 | 0x2099      |        8345 |
|      36 | 0x209A      |        8346 |
|      37 | 0x209B      |        8347 |
|      38 | 0x209C      |        8348 |
|      39 | 0x209D      |        8349 |
|      40 | 0x209E      |        8350 |
|      41 | 0x209F      |        8351 |
|      42 | 0x20A2      |        8354 |
|      43 | 0x20A7      |        8359 |
|      44 | 0x20A8      |        8360 |
|      45 | 0x20A9      |        8361 |
|      46 | 0x20B8      |        8376 |
|      47 | 0x20BB      |        8379 |
|      48 | 0x20BC      |        8380 |
|      49 | 0x20BD      |        8381 |
|      50 | 0x20BE      |        8382 |
|      51 | 0x20BF      |        8383 |
|      52 | 0x20C0      |        8384 |
|      53 | 0x20C1      |        8385 |
|      54 | 0x20C2      |        8386 |
|      55 | 0x20C3      |        8387 |
|      56 | 0x20C4      |        8388 |
|      57 | 0x20C5      |        8389 |
|      58 | 0x20C6      |        8390 |
|      59 | 0x20C7      |        8391 |
|      60 | 0x20C8      |        8392 |
|      61 | 0x20C9      |        8393 |
|      62 | 0x20CA      |        8394 |
|      63 | 0x20CB      |        8395 |
|      64 | 0x20CC      |        8396 |
|      65 | 0x20CD      |        8397 |
|      66 | 0x20CE      |        8398 |
|      67 | 0x20CF      |        8399 |
|      68 | 0x20D0      |        8400 |
|      69 | 0x20D1      |        8401 |
|      70 | 0x20D2      |        8402 |
|      71 | 0x20D3      |        8403 |
|      72 | 0x20D4      |        8404 |
|      73 | 0x20D5      |        8405 |
|      74 | 0x20D6      |        8406 |
|      75 | 0x20D7      |        8407 |
|      76 | 0x20D8      |        8408 |

## String References

- **8335**: What's up with you? Why are you standing there in a daze?
- **8337**: Let me take a stab in the darrrk and guess that this is your first time in Windurst.
- **8339**: Well then, welcome... Yes, welcome to peaceful old Windurrrst. Scaredy-cats who have been dumbed down by the peace are enthusiastically received here.
- **8340**: Good try... But if you're going to deceive people, you should at least learn how to lie properrrly.
- **8341**: Where are you heading? What brings you to town?
- **8343**: Grrr... You'rrre more hot-blooded than you look. I could almost come to like you.
- **8344**: But judging from your delicate appearrrance, I'd say you'd be lucky to beat a rarab, let alone a mandragorrra, out there in Sarutabaruta.
- **8345**: Oh, in case you didn't know, Sarutabaruta is the name of the grasslands that surround Windurst.
- **8346**: If you go back up that slope behind you and pass through the gatehouse, you will come to East Sarutabaruta.
- **8347**: Sarutabaruta is full of weak monsters, so even a newbie like you can try to hunt there.
- **8348**: But be warrrned. The furrrther you go away from town the strongerrr the monsters become, so keep an eye on your map.
- **8349**: Ask your fellow adventurers for details on the best way to fight or flee. I can't be botherrred telling you myself.
- **8350**: Well, I've helped you enough forrr today. I'm sure you get the idea.
- **8351**: Nanaa Mihgo's lesson on Windurst is overrr. I've discounted your tuition fee to a mere 1000 gil. Come on then, cough it up.
- **8354**: Show me how much you've got in your purrrse.
- **8359**: Grrr, not those S.O.B.'s again! I would've gotten away with it, if it weren't for you meddling kids!
- **8360**: Due to this disturrrbance, I'll have to end your lesson forrr today!
- **8361**: We'll continue anotherrr day, and that's when I'll collect my fee.
- **8369**: What the...? Shopping? Asking me's a waste of time.
- **8370**: I mean a waste of my time, not yourrrs! If you must ask, then all I can recommend is to head to Port Windurst.
- **8371**: To get there, head down the road on the otherrr side of this fountain round.
- **8372**: Once in the porrrt, head down to the wharves, where there are three boat-shaped shops. They house a magic shop, an armor shop, and a weapon shop.
- **8373**: If you're looking for shops in the Windurst Woods area, there's a general goods store far over on the otherrr side of those tents there. You'll find the Boneworkers' Guild and Weavers' Guild shops back behind therrre too!
- **8374**: And up behind the dhalmel farm, therrre's a Mithra apothecary.
- **8375**: You should know this already, but you can make money by selling the items that monsters drop after you defeat them. You can use the gil earrrned to buy whatever you want.
- **8376**: The best way to gather inforrrmation is to speak to all the townsfolk.
- **8379**: Why not try the Manustery's Cardian worrrkshop up there? You won't only be helping people, but Cardians as well.
- **8380**: Oh, Cardians are the magical automatons that function as the guarrrds of Windurst.
- **8381**: If you go in that workshop there, you'll see morrre of them than you probably want to.
- **8382**: Perrrsonally, I'd prefer if all the Cardians were rounded up and destroyed.
- **8383**: Hah! If therrre was such sweet talk of fast money, I'd have done it already.
- **8384**: But wait a second. Let me see... What could be suitable for a newbie like you...?
- **8385**: You know the Boneworrrkers' Guild to the south of here? If you diligently practice that trade skill, you might make some money out of synthesizing and selling items.
- **8386**: You'rrre not going to strike it rich right away, but it's a relatively easy way to make money. Hey, it's a start, right?
- **8387**: Norrrmally, I'd say, "Go out and slaughter those Yagudo beastmen"!
- **8388**: But the Tarutaru of Windurrrst like to keep the peace and are trying to be friends with the Yagudo.
- **8389**: So at this point, all I can recommend to you is the dhalmel farrrm.
- **8390**: If you head north from here, you'll see the long necks of the dhalmel sticking up over the farrrm's walkway. Inquire with the farrrmer. She's grateful for any help she can get.
- **8391**: Looking for worrrk, huh? Then head to one of the gatehouses.
- **8392**: There's one right behind you. The stone building there is the Eastern Gatehouse. It's swarrrming with those preening Mithra guards.
- **8393**: You can receive missions from the gatehouses if you're into volunteerrring for your country. Perrrsonally, I don't care much for it myself, so ask for details at the gatehouse.
- **8394**: Missions are tasks from and on behalf of the Federation of Windurst, and differrr from the requests for help from general townsfolk.
- **8395**: For instance, if you do so-and-so a mission, you are rewarrrded with a set number of rank points.
- **8396**: Collect enough rank points and your rank or position in this country will rise. But as far as I'm concerned, the rewards aren't worrrth the effort.
- **8397**: Hm? You don't know left from right? You poorrr thing.
- **8398**: This is Windurst Woods, the easternmost of the fourrr districts of Windurst.
- **8399**: Seeing as we're nearrr the Bomingo Round here, I'll use it as the starting point of my explanation.
- **8400**: Firrrst, if you head south from the round, there are several shops run by the local craftswomen.
- **8401**: There's the Weavers' Guild, which is the specialty of the Tarutaru, and there's the Boneworkers' Guild. which is more the Mithra's forte. These are the pride and joy of Windurst.
- **8402**: If you head north from the round, you'll find roads that lead to the dhalmel farm and Chocobo Stables. Just follow the sweet smell of naturrre.
- **8403**: Take the road norrrth, and you'll find an apothecary mixed among the Mithra Groves with the Mithra houses. Take the road south, and you'll find an auction house.
- **8404**: Compared to the other districts, there's hardly any Tarutaru buildings in Windurst Woods at all. However, the Manustery, one of the five ministries, is right therrre.
- **8405**: That building up high there is the Manustery's Cardian workshop. It's where those Cardian guards are manufacturrred.
- **8406**: Finally, heading west from the round will take you to Windurst's residential area.
- **8407**: If you're a citizen of Windurst, you can use one of the Mog Houses inside of therrre.
- **8408**: Ask the guards at the entrance there forrr the details.

## Events

### Event 65535

#### Metadata

| Field        | Value   |
|--------------|---------|
| Entrypoint   | 0x0000  |
| Data Size    | 1 bytes |
| Instructions | 1       |

```
      00 01 02 03 04 05 06 07  08 09 0A 0B 0C 0D 0E 0F
      -- -- -- -- -- -- -- --  -- -- -- -- -- -- -- --
0000: 00                                                .               
```

#### Opcodes

```
  0: 0x0000 [0x00] END_REQSTACK()
```

### Event 65535.1

#### Metadata

| Field        | Value    |
|--------------|----------|
| Entrypoint   | 0x0001   |
| Data Size    | 16 bytes |
| Instructions | 2        |

```
      00 01 02 03 04 05 06 07  08 09 0A 0B 0C 0D 0E 0F
      -- -- -- -- -- -- -- --  -- -- -- -- -- -- -- --
0000:    5B 00 80 F8 FF FF 7F  F8 FF FF 7F 74 6C 6B 30   [..........tlk0
0010: 00                                                .               
```

#### Opcodes

```
  0: 0x0001 [0x5B] LOAD_EXT_SCHEDULER: Load scheduler "tlk0" with entities [EventEntity, EventEntity], work=370*
  1: 0x0010 [0x00] END_REQSTACK()
```

### Event 65535.2

#### Metadata

| Field        | Value    |
|--------------|----------|
| Entrypoint   | 0x0011   |
| Data Size    | 14 bytes |
| Instructions | 2        |

```
      00 01 02 03 04 05 06 07  08 09 0A 0B 0C 0D 0E 0F
      -- -- -- -- -- -- -- --  -- -- -- -- -- -- -- --
0010:    53 F8 FF FF 7F F8 FF  FF 7F 74 6C 6B 30 00      S........tlk0. 
```

#### Opcodes

```
  0: 0x0011 [0x53] WAIT_SCHEDULER_TASK: Wait for scheduler "tlk0" with entities [EventEntity, EventEntity]
  1: 0x001E [0x00] END_REQSTACK()
```

### Event 65535.3

#### Metadata

| Field        | Value    |
|--------------|----------|
| Entrypoint   | 0x001F   |
| Data Size    | 16 bytes |
| Instructions | 2        |

```
      00 01 02 03 04 05 06 07  08 09 0A 0B 0C 0D 0E 0F
      -- -- -- -- -- -- -- --  -- -- -- -- -- -- -- --
0010:                                               5B                 [
0020: 00 80 F8 FF FF 7F F8 FF  FF 7F 74 6C 6B 31 00     ..........tlk1. 
```

#### Opcodes

```
  0: 0x001F [0x5B] LOAD_EXT_SCHEDULER: Load scheduler "tlk1" with entities [EventEntity, EventEntity], work=370*
  1: 0x002E [0x00] END_REQSTACK()
```

### Event 65535.4

#### Metadata

| Field        | Value    |
|--------------|----------|
| Entrypoint   | 0x002F   |
| Data Size    | 14 bytes |
| Instructions | 2        |

```
      00 01 02 03 04 05 06 07  08 09 0A 0B 0C 0D 0E 0F
      -- -- -- -- -- -- -- --  -- -- -- -- -- -- -- --
0020:                                               53                 S
0030: F8 FF FF 7F F8 FF FF 7F  74 6C 6B 31 00           ........tlk1.   
```

#### Opcodes

```
  0: 0x002F [0x53] WAIT_SCHEDULER_TASK: Wait for scheduler "tlk1" with entities [EventEntity, EventEntity]
  1: 0x003C [0x00] END_REQSTACK()
```

### Event 65535.5

#### Metadata

| Field        | Value    |
|--------------|----------|
| Entrypoint   | 0x003D   |
| Data Size    | 21 bytes |
| Instructions | 3        |

```
      00 01 02 03 04 05 06 07  08 09 0A 0B 0C 0D 0E 0F
      -- -- -- -- -- -- -- --  -- -- -- -- -- -- -- --
0030:                                         7B 0F 10               {..
0040: 0F 01 5B 00 80 F8 FF FF  7F F8 FF FF 7F 6E 74 6F  ..[..........nto
0050: 30 00                                             0.              
```

#### Opcodes

```
  0: 0x003D [0x7B] Nanaa Mihgo (ID: 17764367/0x010F100F) stops talking
  1: 0x0042 [0x5B] LOAD_EXT_SCHEDULER: Load scheduler "nto0" with entities [EventEntity, EventEntity], work=370*
  2: 0x0051 [0x00] END_REQSTACK()
```

### Event 65535.6

#### Metadata

| Field        | Value    |
|--------------|----------|
| Entrypoint   | 0x0052   |
| Data Size    | 14 bytes |
| Instructions | 2        |

```
      00 01 02 03 04 05 06 07  08 09 0A 0B 0C 0D 0E 0F
      -- -- -- -- -- -- -- --  -- -- -- -- -- -- -- --
0050:       53 F8 FF FF 7F F8  FF FF 7F 6E 74 6F 30 00    S........nto0.
```

#### Opcodes

```
  0: 0x0052 [0x53] WAIT_SCHEDULER_TASK: Wait for scheduler "nto0" with entities [EventEntity, EventEntity]
  1: 0x005F [0x00] END_REQSTACK()
```

### Event 65535.7

#### Metadata

| Field        | Value    |
|--------------|----------|
| Entrypoint   | 0x0060   |
| Data Size    | 16 bytes |
| Instructions | 2        |

```
      00 01 02 03 04 05 06 07  08 09 0A 0B 0C 0D 0E 0F
      -- -- -- -- -- -- -- --  -- -- -- -- -- -- -- --
0060: 5B 00 80 F8 FF FF 7F F8  FF FF 7F 6E 74 6F 31 00  [..........nto1.
```

#### Opcodes

```
  0: 0x0060 [0x5B] LOAD_EXT_SCHEDULER: Load scheduler "nto1" with entities [EventEntity, EventEntity], work=370*
  1: 0x006F [0x00] END_REQSTACK()
```

### Event 65535.8

#### Metadata

| Field        | Value    |
|--------------|----------|
| Entrypoint   | 0x0070   |
| Data Size    | 14 bytes |
| Instructions | 2        |

```
      00 01 02 03 04 05 06 07  08 09 0A 0B 0C 0D 0E 0F
      -- -- -- -- -- -- -- --  -- -- -- -- -- -- -- --
0070: 53 F8 FF FF 7F F8 FF FF  7F 6E 74 6F 31 00        S........nto1.  
```

#### Opcodes

```
  0: 0x0070 [0x53] WAIT_SCHEDULER_TASK: Wait for scheduler "nto1" with entities [EventEntity, EventEntity]
  1: 0x007D [0x00] END_REQSTACK()
```

### Event 65535.9

#### Metadata

| Field        | Value    |
|--------------|----------|
| Entrypoint   | 0x007E   |
| Data Size    | 16 bytes |
| Instructions | 2        |

```
      00 01 02 03 04 05 06 07  08 09 0A 0B 0C 0D 0E 0F
      -- -- -- -- -- -- -- --  -- -- -- -- -- -- -- --
0070:                                            5B 00                [.
0080: 80 F8 FF FF 7F F8 FF FF  7F 69 74 74 30 00        .........itt0.  
```

#### Opcodes

```
  0: 0x007E [0x5B] LOAD_EXT_SCHEDULER: Load scheduler "itt0" with entities [EventEntity, EventEntity], work=370*
  1: 0x008D [0x00] END_REQSTACK()
```

### Event 65535.10

#### Metadata

| Field        | Value    |
|--------------|----------|
| Entrypoint   | 0x008E   |
| Data Size    | 14 bytes |
| Instructions | 2        |

```
      00 01 02 03 04 05 06 07  08 09 0A 0B 0C 0D 0E 0F
      -- -- -- -- -- -- -- --  -- -- -- -- -- -- -- --
0080:                                            53 F8                S.
0090: FF FF 7F F8 FF FF 7F 69  74 74 30 00              .......itt0.    
```

#### Opcodes

```
  0: 0x008E [0x53] WAIT_SCHEDULER_TASK: Wait for scheduler "itt0" with entities [EventEntity, EventEntity]
  1: 0x009B [0x00] END_REQSTACK()
```

### Event 65535.11

#### Metadata

| Field        | Value    |
|--------------|----------|
| Entrypoint   | 0x009C   |
| Data Size    | 16 bytes |
| Instructions | 2        |

```
      00 01 02 03 04 05 06 07  08 09 0A 0B 0C 0D 0E 0F
      -- -- -- -- -- -- -- --  -- -- -- -- -- -- -- --
0090:                                      5B 00 80 F8              [...
00A0: FF FF 7F F8 FF FF 7F 69  74 74 31 00              .......itt1.    
```

#### Opcodes

```
  0: 0x009C [0x5B] LOAD_EXT_SCHEDULER: Load scheduler "itt1" with entities [EventEntity, EventEntity], work=370*
  1: 0x00AB [0x00] END_REQSTACK()
```

### Event 65535.12

#### Metadata

| Field        | Value    |
|--------------|----------|
| Entrypoint   | 0x00AC   |
| Data Size    | 14 bytes |
| Instructions | 2        |

```
      00 01 02 03 04 05 06 07  08 09 0A 0B 0C 0D 0E 0F
      -- -- -- -- -- -- -- --  -- -- -- -- -- -- -- --
00A0:                                      53 F8 FF FF              S...
00B0: 7F F8 FF FF 7F 69 74 74  31 00                    .....itt1.      
```

#### Opcodes

```
  0: 0x00AC [0x53] WAIT_SCHEDULER_TASK: Wait for scheduler "itt1" with entities [EventEntity, EventEntity]
  1: 0x00B9 [0x00] END_REQSTACK()
```

### Event 65535.13

#### Metadata

| Field        | Value    |
|--------------|----------|
| Entrypoint   | 0x00BA   |
| Data Size    | 16 bytes |
| Instructions | 2        |

```
      00 01 02 03 04 05 06 07  08 09 0A 0B 0C 0D 0E 0F
      -- -- -- -- -- -- -- --  -- -- -- -- -- -- -- --
00B0:                                5B 01 80 F8 FF FF            [.....
00C0: 7F F8 FF FF 7F 79 6B 6F  30 00                    .....yko0.      
```

#### Opcodes

```
  0: 0x00BA [0x5B] LOAD_EXT_SCHEDULER: Load scheduler "yko0" with entities [EventEntity, EventEntity], work=400*
  1: 0x00C9 [0x00] END_REQSTACK()
```

### Event 65535.14

#### Metadata

| Field        | Value    |
|--------------|----------|
| Entrypoint   | 0x00CA   |
| Data Size    | 14 bytes |
| Instructions | 2        |

```
      00 01 02 03 04 05 06 07  08 09 0A 0B 0C 0D 0E 0F
      -- -- -- -- -- -- -- --  -- -- -- -- -- -- -- --
00C0:                                53 F8 FF FF 7F F8            S.....
00D0: FF FF 7F 79 6B 6F 30 00                           ...yko0.        
```

#### Opcodes

```
  0: 0x00CA [0x53] WAIT_SCHEDULER_TASK: Wait for scheduler "yko0" with entities [EventEntity, EventEntity]
  1: 0x00D7 [0x00] END_REQSTACK()
```

### Event 65535.15

#### Metadata

| Field        | Value    |
|--------------|----------|
| Entrypoint   | 0x00D8   |
| Data Size    | 16 bytes |
| Instructions | 2        |

```
      00 01 02 03 04 05 06 07  08 09 0A 0B 0C 0D 0E 0F
      -- -- -- -- -- -- -- --  -- -- -- -- -- -- -- --
00D0:                          5B 01 80 F8 FF FF 7F F8          [.......
00E0: FF FF 7F 79 6B 6F 31 00                           ...yko1.        
```

#### Opcodes

```
  0: 0x00D8 [0x5B] LOAD_EXT_SCHEDULER: Load scheduler "yko1" with entities [EventEntity, EventEntity], work=400*
  1: 0x00E7 [0x00] END_REQSTACK()
```

### Event 65535.16

#### Metadata

| Field        | Value    |
|--------------|----------|
| Entrypoint   | 0x00E8   |
| Data Size    | 14 bytes |
| Instructions | 2        |

```
      00 01 02 03 04 05 06 07  08 09 0A 0B 0C 0D 0E 0F
      -- -- -- -- -- -- -- --  -- -- -- -- -- -- -- --
00E0:                          53 F8 FF FF 7F F8 FF FF          S.......
00F0: 7F 79 6B 6F 31 00                                 .yko1.          
```

#### Opcodes

```
  0: 0x00E8 [0x53] WAIT_SCHEDULER_TASK: Wait for scheduler "yko1" with entities [EventEntity, EventEntity]
  1: 0x00F5 [0x00] END_REQSTACK()
```

### Event 65535.17

#### Metadata

| Field        | Value    |
|--------------|----------|
| Entrypoint   | 0x00F6   |
| Data Size    | 16 bytes |
| Instructions | 2        |

```
      00 01 02 03 04 05 06 07  08 09 0A 0B 0C 0D 0E 0F
      -- -- -- -- -- -- -- --  -- -- -- -- -- -- -- --
00F0:                   5B 02  80 F8 FF FF 7F F8 FF FF        [.........
0100: 7F 74 68 6B 31 00                                 .thk1.          
```

#### Opcodes

```
  0: 0x00F6 [0x5B] LOAD_EXT_SCHEDULER: Load scheduler "thk1" with entities [EventEntity, EventEntity], work=358*
  1: 0x0105 [0x00] END_REQSTACK()
```

### Event 65535.18

#### Metadata

| Field        | Value    |
|--------------|----------|
| Entrypoint   | 0x0106   |
| Data Size    | 14 bytes |
| Instructions | 2        |

```
      00 01 02 03 04 05 06 07  08 09 0A 0B 0C 0D 0E 0F
      -- -- -- -- -- -- -- --  -- -- -- -- -- -- -- --
0100:                   53 F8  FF FF 7F F8 FF FF 7F 74        S........t
0110: 68 6B 31 00                                       hk1.            
```

#### Opcodes

```
  0: 0x0106 [0x53] WAIT_SCHEDULER_TASK: Wait for scheduler "thk1" with entities [EventEntity, EventEntity]
  1: 0x0113 [0x00] END_REQSTACK()
```

### Event 65535.19

#### Metadata

| Field        | Value    |
|--------------|----------|
| Entrypoint   | 0x0114   |
| Data Size    | 29 bytes |
| Instructions | 3        |

```
      00 01 02 03 04 05 06 07  08 09 0A 0B 0C 0D 0E 0F
      -- -- -- -- -- -- -- --  -- -- -- -- -- -- -- --
0110:             5B 02 80 F8  FF FF 7F F8 FF FF 7F 74      [..........t
0120: 68 6B 31 53 F8 FF FF 7F  F8 FF FF 7F 74 68 6B 31  hk1S........thk1
0130: 00                                                .               
```

#### Opcodes

```
  0: 0x0114 [0x5B] LOAD_EXT_SCHEDULER: Load scheduler "thk1" with entities [EventEntity, EventEntity], work=358*
  1: 0x0123 [0x53] WAIT_SCHEDULER_TASK: Wait for scheduler "thk1" with entities [EventEntity, EventEntity]
  2: 0x0130 [0x00] END_REQSTACK()
```

### Event 65535.20

#### Metadata

| Field        | Value    |
|--------------|----------|
| Entrypoint   | 0x0131   |
| Data Size    | 16 bytes |
| Instructions | 2        |

```
      00 01 02 03 04 05 06 07  08 09 0A 0B 0C 0D 0E 0F
      -- -- -- -- -- -- -- --  -- -- -- -- -- -- -- --
0130:    5B 02 80 F8 FF FF 7F  F8 FF FF 7F 74 68 6B 32   [..........thk2
0140: 00                                                .               
```

#### Opcodes

```
  0: 0x0131 [0x5B] LOAD_EXT_SCHEDULER: Load scheduler "thk2" with entities [EventEntity, EventEntity], work=358*
  1: 0x0140 [0x00] END_REQSTACK()
```

### Event 65535.21

#### Metadata

| Field        | Value    |
|--------------|----------|
| Entrypoint   | 0x0141   |
| Data Size    | 14 bytes |
| Instructions | 2        |

```
      00 01 02 03 04 05 06 07  08 09 0A 0B 0C 0D 0E 0F
      -- -- -- -- -- -- -- --  -- -- -- -- -- -- -- --
0140:    53 F8 FF FF 7F F8 FF  FF 7F 74 68 6B 32 00      S........thk2. 
```

#### Opcodes

```
  0: 0x0141 [0x53] WAIT_SCHEDULER_TASK: Wait for scheduler "thk2" with entities [EventEntity, EventEntity]
  1: 0x014E [0x00] END_REQSTACK()
```

### Event 65535.22

#### Metadata

| Field        | Value    |
|--------------|----------|
| Entrypoint   | 0x014F   |
| Data Size    | 29 bytes |
| Instructions | 3        |

```
      00 01 02 03 04 05 06 07  08 09 0A 0B 0C 0D 0E 0F
      -- -- -- -- -- -- -- --  -- -- -- -- -- -- -- --
0140:                                               5B                 [
0150: 02 80 F8 FF FF 7F F8 FF  FF 7F 70 6F 69 30 53 F8  ..........poi0S.
0160: FF FF 7F F8 FF FF 7F 74  68 6B 32 00              .......thk2.    
```

#### Opcodes

```
  0: 0x014F [0x5B] LOAD_EXT_SCHEDULER: Load scheduler "poi0" with entities [EventEntity, EventEntity], work=358*
  1: 0x015E [0x53] WAIT_SCHEDULER_TASK: Wait for scheduler "thk2" with entities [EventEntity, EventEntity]
  2: 0x016B [0x00] END_REQSTACK()
```

### Event 65535.23

#### Metadata

| Field        | Value    |
|--------------|----------|
| Entrypoint   | 0x016C   |
| Data Size    | 16 bytes |
| Instructions | 2        |

```
      00 01 02 03 04 05 06 07  08 09 0A 0B 0C 0D 0E 0F
      -- -- -- -- -- -- -- --  -- -- -- -- -- -- -- --
0160:                                      66 03 80 F8              f...
0170: FF FF 7F F8 FF FF 7F 70  6F 69 30 00              .......poi0.    
```

#### Opcodes

```
  0: 0x016C [0x66] LOAD_EXT_SCHEDULER_MAIN: Load scheduler "poi0" with entities [EventEntity, EventEntity], work=52*
  1: 0x017B [0x00] END_REQSTACK()
```

### Event 65535.24

#### Metadata

| Field        | Value    |
|--------------|----------|
| Entrypoint   | 0x017C   |
| Data Size    | 14 bytes |
| Instructions | 2        |

```
      00 01 02 03 04 05 06 07  08 09 0A 0B 0C 0D 0E 0F
      -- -- -- -- -- -- -- --  -- -- -- -- -- -- -- --
0170:                                      53 F8 FF FF              S...
0180: 7F F8 FF FF 7F 70 6F 69  30 00                    .....poi0.      
```

#### Opcodes

```
  0: 0x017C [0x53] WAIT_SCHEDULER_TASK: Wait for scheduler "poi0" with entities [EventEntity, EventEntity]
  1: 0x0189 [0x00] END_REQSTACK()
```

### Event 65535.25

#### Metadata

| Field        | Value    |
|--------------|----------|
| Entrypoint   | 0x018A   |
| Data Size    | 29 bytes |
| Instructions | 3        |

```
      00 01 02 03 04 05 06 07  08 09 0A 0B 0C 0D 0E 0F
      -- -- -- -- -- -- -- --  -- -- -- -- -- -- -- --
0180:                                5B 04 80 F8 FF FF            [.....
0190: 7F F8 FF FF 7F 70 6F 69  31 53 F8 FF FF 7F F8 FF  .....poi1S......
01A0: FF 7F 70 6F 69 30 00                              ..poi0.         
```

#### Opcodes

```
  0: 0x018A [0x5B] LOAD_EXT_SCHEDULER: Load scheduler "poi1" with entities [EventEntity, EventEntity], work=360*
  1: 0x0199 [0x53] WAIT_SCHEDULER_TASK: Wait for scheduler "poi0" with entities [EventEntity, EventEntity]
  2: 0x01A6 [0x00] END_REQSTACK()
```

### Event 65535.26

#### Metadata

| Field        | Value   |
|--------------|---------|
| Entrypoint   | 0x01A7  |
| Data Size    | 9 bytes |
| Instructions | 3       |

```
      00 01 02 03 04 05 06 07  08 09 0A 0B 0C 0D 0E 0F
      -- -- -- -- -- -- -- --  -- -- -- -- -- -- -- --
01A0:                      5E  69 64 6C 30 1C 05 80 00         ^idl0....
```

#### Opcodes

```
  0: 0x01A7 [0x5E] EventEntity goes idle (kills current action) (animation: "idl0")
  1: 0x01AC [0x1C] WAIT(30* ticks)
  2: 0x01AF [0x00] END_REQSTACK()
```

### Event 65535.27

#### Metadata

| Field        | Value    |
|--------------|----------|
| Entrypoint   | 0x01B0   |
| Data Size    | 15 bytes |
| Instructions | 5        |

```
      00 01 02 03 04 05 06 07  08 09 0A 0B 0C 0D 0E 0F
      -- -- -- -- -- -- -- --  -- -- -- -- -- -- -- --
01B0: 32 06 80 1F 00 07 80 08  80 09 80 1F 01 6F 00     2............o. 
```

#### Opcodes

```
  0: 0x01B0 [0x32] ExtData[1]->MainSpeed = 13* * 0.1
  1: 0x01B3 [0x1F] MOVE_ENTITY: EventEntity moves to X=29.078*, Z=-37.066*, Y=1.999*
  2: 0x01BB [0x1F] MOVE_ENTITY: Update entity position (mode=1)
  3: 0x01BD [0x6F] WAIT_FRAME_DELAY: Yield until WaitTime reaches zero
  4: 0x01BE [0x00] END_REQSTACK()
```

### Event 65535.28

#### Metadata

| Field        | Value    |
|--------------|----------|
| Entrypoint   | 0x01BF   |
| Data Size    | 43 bytes |
| Instructions | 7        |

```
      00 01 02 03 04 05 06 07  08 09 0A 0B 0C 0D 0E 0F
      -- -- -- -- -- -- -- --  -- -- -- -- -- -- -- --
01B0:                                               32                 2
01C0: 06 80 1F 00 0A 80 0B 80  09 80 1F 01 6F 5B 01 80  ............o[..
01D0: F8 FF FF 7F F8 FF FF 7F  79 6B 6F 30 53 F8 FF FF  ........yko0S...
01E0: 7F F8 FF FF 7F 79 6B 6F  30 00                    .....yko0.      
```

#### Opcodes

```
  0: 0x01BF [0x32] ExtData[1]->MainSpeed = 13* * 0.1
  1: 0x01C2 [0x1F] MOVE_ENTITY: EventEntity moves to X=29.603*, Z=-37.695*, Y=1.999*
  2: 0x01CA [0x1F] MOVE_ENTITY: Update entity position (mode=1)
  3: 0x01CC [0x6F] WAIT_FRAME_DELAY: Yield until WaitTime reaches zero
  4: 0x01CD [0x5B] LOAD_EXT_SCHEDULER: Load scheduler "yko0" with entities [EventEntity, EventEntity], work=400*
  5: 0x01DC [0x53] WAIT_SCHEDULER_TASK: Wait for scheduler "yko0" with entities [EventEntity, EventEntity]
  6: 0x01E9 [0x00] END_REQSTACK()
```

### Event 65535.29

#### Metadata

| Field        | Value    |
|--------------|----------|
| Entrypoint   | 0x01EA   |
| Data Size    | 35 bytes |
| Instructions | 9        |

```
      00 01 02 03 04 05 06 07  08 09 0A 0B 0C 0D 0E 0F
      -- -- -- -- -- -- -- --  -- -- -- -- -- -- -- --
01E0:                                32 0C 80 1F 00 0D            2.....
01F0: 80 0E 80 09 80 1F 01 1F  00 0F 80 10 80 11 80 1F  ................
0200: 01 1F 00 12 80 13 80 14  80 1F 01 6F 00           ...........o.   
```

#### Opcodes

```
  0: 0x01EA [0x32] ExtData[1]->MainSpeed = 40* * 0.1
  1: 0x01ED [0x1F] MOVE_ENTITY: EventEntity moves to X=25.205*, Z=-34.577*, Y=1.999*
  2: 0x01F5 [0x1F] MOVE_ENTITY: Update entity position (mode=1)
  3: 0x01F7 [0x1F] MOVE_ENTITY: EventEntity moves to X=20.394*, Z=-29.524*, Y=2.151*
  4: 0x01FF [0x1F] MOVE_ENTITY: Update entity position (mode=1)
  5: 0x0201 [0x1F] MOVE_ENTITY: EventEntity moves to X=17.667*, Z=-23.722*, Y=1.628*
  6: 0x0209 [0x1F] MOVE_ENTITY: Update entity position (mode=1)
  7: 0x020B [0x6F] WAIT_FRAME_DELAY: Yield until WaitTime reaches zero
  8: 0x020C [0x00] END_REQSTACK()
```

### Event 11

#### Metadata

| Field        | Value   |
|--------------|---------|
| Entrypoint   | 0x020D  |
| Data Size    | 1 bytes |
| Instructions | 1       |

```
      00 01 02 03 04 05 06 07  08 09 0A 0B 0C 0D 0E 0F
      -- -- -- -- -- -- -- --  -- -- -- -- -- -- -- --
0200:                                         00                     .  
```

#### Opcodes

```
  0: 0x020D [0x00] END_REQSTACK()
```

### Event 367

#### Metadata

| Field        | Value   |
|--------------|---------|
| Entrypoint   | 0x020E  |
| Data Size    | 1 bytes |
| Instructions | 1       |

```
      00 01 02 03 04 05 06 07  08 09 0A 0B 0C 0D 0E 0F
      -- -- -- -- -- -- -- --  -- -- -- -- -- -- -- --
0200:                                            00                   . 
```

#### Opcodes

```
  0: 0x020E [0x00] END_REQSTACK()
```

### Event 65535.30

#### Metadata

| Field        | Value   |
|--------------|---------|
| Entrypoint   | 0x020F  |
| Data Size    | 5 bytes |
| Instructions | 3       |

```
      00 01 02 03 04 05 06 07  08 09 0A 0B 0C 0D 0E 0F
      -- -- -- -- -- -- -- --  -- -- -- -- -- -- -- --
0200:                                               1D                 .
0210: 15 80 23 00                                       ..#.            
```

#### Opcodes

```
  0: 0x020F [0x1D] PRINT_EVENT_MESSAGE(message_id=8335*)
    → "What's up with you? Why are you standing there in a daze?"
  1: 0x0212 [0x23] WAIT_FOR_DIALOG_INTERACTION
  2: 0x0213 [0x00] END_REQSTACK()
```

### Event 65535.31

#### Metadata

| Field        | Value   |
|--------------|---------|
| Entrypoint   | 0x0214  |
| Data Size    | 5 bytes |
| Instructions | 3       |

```
      00 01 02 03 04 05 06 07  08 09 0A 0B 0C 0D 0E 0F
      -- -- -- -- -- -- -- --  -- -- -- -- -- -- -- --
0210:             1D 16 80 23  00                           ...#.       
```

#### Opcodes

```
  0: 0x0214 [0x1D] PRINT_EVENT_MESSAGE(message_id=8337*)
    → "Let me take a stab in the darrrk and guess that this is your first time in Windurst."
  1: 0x0217 [0x23] WAIT_FOR_DIALOG_INTERACTION
  2: 0x0218 [0x00] END_REQSTACK()
```

### Event 65535.32

#### Metadata

| Field        | Value   |
|--------------|---------|
| Entrypoint   | 0x0219  |
| Data Size    | 5 bytes |
| Instructions | 3       |

```
      00 01 02 03 04 05 06 07  08 09 0A 0B 0C 0D 0E 0F
      -- -- -- -- -- -- -- --  -- -- -- -- -- -- -- --
0210:                             1D 17 80 23 00                 ...#.  
```

#### Opcodes

```
  0: 0x0219 [0x1D] PRINT_EVENT_MESSAGE(message_id=8339*)
    → "Well then, welcome... Yes, welcome to peaceful old Windurrrst. Scaredy-cats who have been dumbed down by the peace are enthusiastically received here."
  1: 0x021C [0x23] WAIT_FOR_DIALOG_INTERACTION
  2: 0x021D [0x00] END_REQSTACK()
```

### Event 65535.33

#### Metadata

| Field        | Value   |
|--------------|---------|
| Entrypoint   | 0x021E  |
| Data Size    | 5 bytes |
| Instructions | 3       |

```
      00 01 02 03 04 05 06 07  08 09 0A 0B 0C 0D 0E 0F
      -- -- -- -- -- -- -- --  -- -- -- -- -- -- -- --
0210:                                            1D 18                ..
0220: 80 23 00                                          .#.             
```

#### Opcodes

```
  0: 0x021E [0x1D] PRINT_EVENT_MESSAGE(message_id=8340*)
    → "Good try... But if you're going to deceive people, you should at least learn how to lie properrrly."
  1: 0x0221 [0x23] WAIT_FOR_DIALOG_INTERACTION
  2: 0x0222 [0x00] END_REQSTACK()
```

### Event 65535.34

#### Metadata

| Field        | Value   |
|--------------|---------|
| Entrypoint   | 0x0223  |
| Data Size    | 5 bytes |
| Instructions | 3       |

```
      00 01 02 03 04 05 06 07  08 09 0A 0B 0C 0D 0E 0F
      -- -- -- -- -- -- -- --  -- -- -- -- -- -- -- --
0220:          1D 19 80 23 00                              ...#.        
```

#### Opcodes

```
  0: 0x0223 [0x1D] PRINT_EVENT_MESSAGE(message_id=8341*)
    → "Where are you heading? What brings you to town?"
  1: 0x0226 [0x23] WAIT_FOR_DIALOG_INTERACTION
  2: 0x0227 [0x00] END_REQSTACK()
```

### Event 65535.35

#### Metadata

| Field        | Value   |
|--------------|---------|
| Entrypoint   | 0x0228  |
| Data Size    | 5 bytes |
| Instructions | 3       |

```
      00 01 02 03 04 05 06 07  08 09 0A 0B 0C 0D 0E 0F
      -- -- -- -- -- -- -- --  -- -- -- -- -- -- -- --
0220:                          1D 1A 80 23 00                   ...#.   
```

#### Opcodes

```
  0: 0x0228 [0x1D] PRINT_EVENT_MESSAGE(message_id=8369*)
    → "What the...? Shopping? Asking me's a waste of time."
  1: 0x022B [0x23] WAIT_FOR_DIALOG_INTERACTION
  2: 0x022C [0x00] END_REQSTACK()
```

### Event 65535.36

#### Metadata

| Field        | Value   |
|--------------|---------|
| Entrypoint   | 0x022D  |
| Data Size    | 5 bytes |
| Instructions | 3       |

```
      00 01 02 03 04 05 06 07  08 09 0A 0B 0C 0D 0E 0F
      -- -- -- -- -- -- -- --  -- -- -- -- -- -- -- --
0220:                                         1D 1B 80               ...
0230: 23 00                                             #.              
```

#### Opcodes

```
  0: 0x022D [0x1D] PRINT_EVENT_MESSAGE(message_id=8370*)
    → "I mean a waste of my time, not yourrrs! If you must ask, then all I can recommend is to head to Port Windurst."
  1: 0x0230 [0x23] WAIT_FOR_DIALOG_INTERACTION
  2: 0x0231 [0x00] END_REQSTACK()
```

### Event 65535.37

#### Metadata

| Field        | Value    |
|--------------|----------|
| Entrypoint   | 0x0232   |
| Data Size    | 18 bytes |
| Instructions | 5        |

```
      00 01 02 03 04 05 06 07  08 09 0A 0B 0C 0D 0E 0F
      -- -- -- -- -- -- -- --  -- -- -- -- -- -- -- --
0230:       27 08 0F 10 0F 01  19 1D 1C 80 23 2A 08 0F    '.........#*..
0240: 10 0F 01 00                                       ....            
```

#### Opcodes

```
  0: 0x0232 [0x27] REQ_SET(priority=0x08, entity_id=Nanaa Mihgo (ID: 17764367/0x010F100F), tag_num=0x19)
  1: 0x0239 [0x1D] PRINT_EVENT_MESSAGE(message_id=8371*)
    → "To get there, head down the road on the otherrr side of this fountain round."
  2: 0x023C [0x23] WAIT_FOR_DIALOG_INTERACTION
  3: 0x023D [0x2A] GET_REQ_LEVEL(level=8, entity_id=Nanaa Mihgo (ID: 17764367/0x010F100F))
  4: 0x0243 [0x00] END_REQSTACK()
```

### Event 65535.38

#### Metadata

| Field        | Value   |
|--------------|---------|
| Entrypoint   | 0x0244  |
| Data Size    | 5 bytes |
| Instructions | 3       |

```
      00 01 02 03 04 05 06 07  08 09 0A 0B 0C 0D 0E 0F
      -- -- -- -- -- -- -- --  -- -- -- -- -- -- -- --
0240:             1D 1D 80 23  00                           ...#.       
```

#### Opcodes

```
  0: 0x0244 [0x1D] PRINT_EVENT_MESSAGE(message_id=8372*)
    → "Once in the porrrt, head down to the wharves, where there are three boat-shaped shops. They house a magic shop, an armor shop, and a weapon shop."
  1: 0x0247 [0x23] WAIT_FOR_DIALOG_INTERACTION
  2: 0x0248 [0x00] END_REQSTACK()
```

### Event 65535.39

#### Metadata

| Field        | Value   |
|--------------|---------|
| Entrypoint   | 0x0249  |
| Data Size    | 5 bytes |
| Instructions | 3       |

```
      00 01 02 03 04 05 06 07  08 09 0A 0B 0C 0D 0E 0F
      -- -- -- -- -- -- -- --  -- -- -- -- -- -- -- --
0240:                             1D 1E 80 23 00                 ...#.  
```

#### Opcodes

```
  0: 0x0249 [0x1D] PRINT_EVENT_MESSAGE(message_id=8374*)
    → "And up behind the dhalmel farm, therrre's a Mithra apothecary."
  1: 0x024C [0x23] WAIT_FOR_DIALOG_INTERACTION
  2: 0x024D [0x00] END_REQSTACK()
```

### Event 65535.40

#### Metadata

| Field        | Value   |
|--------------|---------|
| Entrypoint   | 0x024E  |
| Data Size    | 5 bytes |
| Instructions | 3       |

```
      00 01 02 03 04 05 06 07  08 09 0A 0B 0C 0D 0E 0F
      -- -- -- -- -- -- -- --  -- -- -- -- -- -- -- --
0240:                                            1D 1F                ..
0250: 80 23 00                                          .#.             
```

#### Opcodes

```
  0: 0x024E [0x1D] PRINT_EVENT_MESSAGE(message_id=8373*)
    → "If you're looking for shops in the Windurst Woods area, there's a general goods store far over on the otherrr side of those tents there. You'll find the Boneworkers' Guild and Weavers' Guild shops back behind therrre too!"
  1: 0x0251 [0x23] WAIT_FOR_DIALOG_INTERACTION
  2: 0x0252 [0x00] END_REQSTACK()
```

### Event 65535.41

#### Metadata

| Field        | Value   |
|--------------|---------|
| Entrypoint   | 0x0253  |
| Data Size    | 5 bytes |
| Instructions | 3       |

```
      00 01 02 03 04 05 06 07  08 09 0A 0B 0C 0D 0E 0F
      -- -- -- -- -- -- -- --  -- -- -- -- -- -- -- --
0250:          1D 20 80 23 00                              . .#.        
```

#### Opcodes

```
  0: 0x0253 [0x1D] PRINT_EVENT_MESSAGE(message_id=8375*)
    → "You should know this already, but you can make money by selling the items that monsters drop after you defeat them. You can use the gil earrrned to buy whatever you want."
  1: 0x0256 [0x23] WAIT_FOR_DIALOG_INTERACTION
  2: 0x0257 [0x00] END_REQSTACK()
```

### Event 65535.42

#### Metadata

| Field        | Value   |
|--------------|---------|
| Entrypoint   | 0x0258  |
| Data Size    | 5 bytes |
| Instructions | 3       |

```
      00 01 02 03 04 05 06 07  08 09 0A 0B 0C 0D 0E 0F
      -- -- -- -- -- -- -- --  -- -- -- -- -- -- -- --
0250:                          1D 21 80 23 00                   .!.#.   
```

#### Opcodes

```
  0: 0x0258 [0x1D] PRINT_EVENT_MESSAGE(message_id=8343*)
    → "Grrr... You'rrre more hot-blooded than you look. I could almost come to like you."
  1: 0x025B [0x23] WAIT_FOR_DIALOG_INTERACTION
  2: 0x025C [0x00] END_REQSTACK()
```

### Event 65535.43

#### Metadata

| Field        | Value   |
|--------------|---------|
| Entrypoint   | 0x025D  |
| Data Size    | 5 bytes |
| Instructions | 3       |

```
      00 01 02 03 04 05 06 07  08 09 0A 0B 0C 0D 0E 0F
      -- -- -- -- -- -- -- --  -- -- -- -- -- -- -- --
0250:                                         1D 22 80               .".
0260: 23 00                                             #.              
```

#### Opcodes

```
  0: 0x025D [0x1D] PRINT_EVENT_MESSAGE(message_id=8344*)
    → "But judging from your delicate appearrrance, I'd say you'd be lucky to beat a rarab, let alone a mandragorrra, out there in Sarutabaruta."
  1: 0x0260 [0x23] WAIT_FOR_DIALOG_INTERACTION
  2: 0x0261 [0x00] END_REQSTACK()
```

### Event 65535.44

#### Metadata

| Field        | Value   |
|--------------|---------|
| Entrypoint   | 0x0262  |
| Data Size    | 5 bytes |
| Instructions | 3       |

```
      00 01 02 03 04 05 06 07  08 09 0A 0B 0C 0D 0E 0F
      -- -- -- -- -- -- -- --  -- -- -- -- -- -- -- --
0260:       1D 23 80 23 00                                .#.#.         
```

#### Opcodes

```
  0: 0x0262 [0x1D] PRINT_EVENT_MESSAGE(message_id=8345*)
    → "Oh, in case you didn't know, Sarutabaruta is the name of the grasslands that surround Windurst."
  1: 0x0265 [0x23] WAIT_FOR_DIALOG_INTERACTION
  2: 0x0266 [0x00] END_REQSTACK()
```

### Event 65535.45

#### Metadata

| Field        | Value   |
|--------------|---------|
| Entrypoint   | 0x0267  |
| Data Size    | 5 bytes |
| Instructions | 3       |

```
      00 01 02 03 04 05 06 07  08 09 0A 0B 0C 0D 0E 0F
      -- -- -- -- -- -- -- --  -- -- -- -- -- -- -- --
0260:                      1D  24 80 23 00                     .$.#.    
```

#### Opcodes

```
  0: 0x0267 [0x1D] PRINT_EVENT_MESSAGE(message_id=8346*)
    → "If you go back up that slope behind you and pass through the gatehouse, you will come to East Sarutabaruta."
  1: 0x026A [0x23] WAIT_FOR_DIALOG_INTERACTION
  2: 0x026B [0x00] END_REQSTACK()
```

### Event 65535.46

#### Metadata

| Field        | Value   |
|--------------|---------|
| Entrypoint   | 0x026C  |
| Data Size    | 9 bytes |
| Instructions | 5       |

```
      00 01 02 03 04 05 06 07  08 09 0A 0B 0C 0D 0E 0F
      -- -- -- -- -- -- -- --  -- -- -- -- -- -- -- --
0260:                                      1D 25 80 23              .%.#
0270: 1D 26 80 23 00                                    .&.#.           
```

#### Opcodes

```
  0: 0x026C [0x1D] PRINT_EVENT_MESSAGE(message_id=8347*)
    → "Sarutabaruta is full of weak monsters, so even a newbie like you can try to hunt there."
  1: 0x026F [0x23] WAIT_FOR_DIALOG_INTERACTION
  2: 0x0270 [0x1D] PRINT_EVENT_MESSAGE(message_id=8348*)
    → "But be warrrned. The furrrther you go away from town the strongerrr the monsters become, so keep an eye on your map."
  3: 0x0273 [0x23] WAIT_FOR_DIALOG_INTERACTION
  4: 0x0274 [0x00] END_REQSTACK()
```

### Event 65535.47

#### Metadata

| Field        | Value   |
|--------------|---------|
| Entrypoint   | 0x0275  |
| Data Size    | 5 bytes |
| Instructions | 3       |

```
      00 01 02 03 04 05 06 07  08 09 0A 0B 0C 0D 0E 0F
      -- -- -- -- -- -- -- --  -- -- -- -- -- -- -- --
0270:                1D 27 80  23 00                         .'.#.      
```

#### Opcodes

```
  0: 0x0275 [0x1D] PRINT_EVENT_MESSAGE(message_id=8349*)
    → "Ask your fellow adventurers for details on the best way to fight or flee. I can't be botherrred telling you myself."
  1: 0x0278 [0x23] WAIT_FOR_DIALOG_INTERACTION
  2: 0x0279 [0x00] END_REQSTACK()
```

### Event 65535.48

#### Metadata

| Field        | Value   |
|--------------|---------|
| Entrypoint   | 0x027A  |
| Data Size    | 9 bytes |
| Instructions | 5       |

```
      00 01 02 03 04 05 06 07  08 09 0A 0B 0C 0D 0E 0F
      -- -- -- -- -- -- -- --  -- -- -- -- -- -- -- --
0270:                                1D 28 80 23 1D 29            .(.#.)
0280: 80 23 00                                          .#.             
```

#### Opcodes

```
  0: 0x027A [0x1D] PRINT_EVENT_MESSAGE(message_id=8350*)
    → "Well, I've helped you enough forrr today. I'm sure you get the idea."
  1: 0x027D [0x23] WAIT_FOR_DIALOG_INTERACTION
  2: 0x027E [0x1D] PRINT_EVENT_MESSAGE(message_id=8351*)
    → "Nanaa Mihgo's lesson on Windurst is overrr. I've discounted your tuition fee to a mere 1000 gil. Come on then, cough it up."
  3: 0x0281 [0x23] WAIT_FOR_DIALOG_INTERACTION
  4: 0x0282 [0x00] END_REQSTACK()
```

### Event 65535.49

#### Metadata

| Field        | Value   |
|--------------|---------|
| Entrypoint   | 0x0283  |
| Data Size    | 5 bytes |
| Instructions | 3       |

```
      00 01 02 03 04 05 06 07  08 09 0A 0B 0C 0D 0E 0F
      -- -- -- -- -- -- -- --  -- -- -- -- -- -- -- --
0280:          1D 2A 80 23 00                              .*.#.        
```

#### Opcodes

```
  0: 0x0283 [0x1D] PRINT_EVENT_MESSAGE(message_id=8354*)
    → "Show me how much you've got in your purrrse."
  1: 0x0286 [0x23] WAIT_FOR_DIALOG_INTERACTION
  2: 0x0287 [0x00] END_REQSTACK()
```

### Event 65535.50

#### Metadata

| Field        | Value   |
|--------------|---------|
| Entrypoint   | 0x0288  |
| Data Size    | 5 bytes |
| Instructions | 3       |

```
      00 01 02 03 04 05 06 07  08 09 0A 0B 0C 0D 0E 0F
      -- -- -- -- -- -- -- --  -- -- -- -- -- -- -- --
0280:                          1D 2B 80 23 00                   .+.#.   
```

#### Opcodes

```
  0: 0x0288 [0x1D] PRINT_EVENT_MESSAGE(message_id=8359*)
    → "Grrr, not those S.O.B.'s again! I would've gotten away with it, if it weren't for you meddling kids!"
  1: 0x028B [0x23] WAIT_FOR_DIALOG_INTERACTION
  2: 0x028C [0x00] END_REQSTACK()
```

### Event 65535.51

#### Metadata

| Field        | Value   |
|--------------|---------|
| Entrypoint   | 0x028D  |
| Data Size    | 9 bytes |
| Instructions | 5       |

```
      00 01 02 03 04 05 06 07  08 09 0A 0B 0C 0D 0E 0F
      -- -- -- -- -- -- -- --  -- -- -- -- -- -- -- --
0280:                                         1D 2C 80               .,.
0290: 23 1D 2D 80 23 00                                 #.-.#.          
```

#### Opcodes

```
  0: 0x028D [0x1D] PRINT_EVENT_MESSAGE(message_id=8360*)
    → "Due to this disturrrbance, I'll have to end your lesson forrr today!"
  1: 0x0290 [0x23] WAIT_FOR_DIALOG_INTERACTION
  2: 0x0291 [0x1D] PRINT_EVENT_MESSAGE(message_id=8361*)
    → "We'll continue anotherrr day, and that's when I'll collect my fee."
  3: 0x0294 [0x23] WAIT_FOR_DIALOG_INTERACTION
  4: 0x0295 [0x00] END_REQSTACK()
```

### Event 65535.52

#### Metadata

| Field        | Value   |
|--------------|---------|
| Entrypoint   | 0x0296  |
| Data Size    | 5 bytes |
| Instructions | 3       |

```
      00 01 02 03 04 05 06 07  08 09 0A 0B 0C 0D 0E 0F
      -- -- -- -- -- -- -- --  -- -- -- -- -- -- -- --
0290:                   1D 2E  80 23 00                       ...#.     
```

#### Opcodes

```
  0: 0x0296 [0x1D] PRINT_EVENT_MESSAGE(message_id=8376*)
    → "The best way to gather inforrrmation is to speak to all the townsfolk."
  1: 0x0299 [0x23] WAIT_FOR_DIALOG_INTERACTION
  2: 0x029A [0x00] END_REQSTACK()
```

### Event 65535.53

#### Metadata

| Field        | Value   |
|--------------|---------|
| Entrypoint   | 0x029B  |
| Data Size    | 5 bytes |
| Instructions | 3       |

```
      00 01 02 03 04 05 06 07  08 09 0A 0B 0C 0D 0E 0F
      -- -- -- -- -- -- -- --  -- -- -- -- -- -- -- --
0290:                                   1D 2F 80 23 00             ./.#.
```

#### Opcodes

```
  0: 0x029B [0x1D] PRINT_EVENT_MESSAGE(message_id=8379*)
    → "Why not try the Manustery's Cardian worrrkshop up there? You won't only be helping people, but Cardians as well."
  1: 0x029E [0x23] WAIT_FOR_DIALOG_INTERACTION
  2: 0x029F [0x00] END_REQSTACK()
```

### Event 65535.54

#### Metadata

| Field        | Value   |
|--------------|---------|
| Entrypoint   | 0x02A0  |
| Data Size    | 9 bytes |
| Instructions | 5       |

```
      00 01 02 03 04 05 06 07  08 09 0A 0B 0C 0D 0E 0F
      -- -- -- -- -- -- -- --  -- -- -- -- -- -- -- --
02A0: 1D 30 80 23 1D 31 80 23  00                       .0.#.1.#.       
```

#### Opcodes

```
  0: 0x02A0 [0x1D] PRINT_EVENT_MESSAGE(message_id=8380*)
    → "Oh, Cardians are the magical automatons that function as the guarrrds of Windurst."
  1: 0x02A3 [0x23] WAIT_FOR_DIALOG_INTERACTION
  2: 0x02A4 [0x1D] PRINT_EVENT_MESSAGE(message_id=8381*)
    → "If you go in that workshop there, you'll see morrre of them than you probably want to."
  3: 0x02A7 [0x23] WAIT_FOR_DIALOG_INTERACTION
  4: 0x02A8 [0x00] END_REQSTACK()
```

### Event 65535.55

#### Metadata

| Field        | Value   |
|--------------|---------|
| Entrypoint   | 0x02A9  |
| Data Size    | 5 bytes |
| Instructions | 3       |

```
      00 01 02 03 04 05 06 07  08 09 0A 0B 0C 0D 0E 0F
      -- -- -- -- -- -- -- --  -- -- -- -- -- -- -- --
02A0:                             1D 32 80 23 00                 .2.#.  
```

#### Opcodes

```
  0: 0x02A9 [0x1D] PRINT_EVENT_MESSAGE(message_id=8382*)
    → "Perrrsonally, I'd prefer if all the Cardians were rounded up and destroyed."
  1: 0x02AC [0x23] WAIT_FOR_DIALOG_INTERACTION
  2: 0x02AD [0x00] END_REQSTACK()
```

### Event 65535.56

#### Metadata

| Field        | Value   |
|--------------|---------|
| Entrypoint   | 0x02AE  |
| Data Size    | 5 bytes |
| Instructions | 3       |

```
      00 01 02 03 04 05 06 07  08 09 0A 0B 0C 0D 0E 0F
      -- -- -- -- -- -- -- --  -- -- -- -- -- -- -- --
02A0:                                            1D 33                .3
02B0: 80 23 00                                          .#.             
```

#### Opcodes

```
  0: 0x02AE [0x1D] PRINT_EVENT_MESSAGE(message_id=8383*)
    → "Hah! If therrre was such sweet talk of fast money, I'd have done it already."
  1: 0x02B1 [0x23] WAIT_FOR_DIALOG_INTERACTION
  2: 0x02B2 [0x00] END_REQSTACK()
```

### Event 65535.57

#### Metadata

| Field        | Value   |
|--------------|---------|
| Entrypoint   | 0x02B3  |
| Data Size    | 5 bytes |
| Instructions | 3       |

```
      00 01 02 03 04 05 06 07  08 09 0A 0B 0C 0D 0E 0F
      -- -- -- -- -- -- -- --  -- -- -- -- -- -- -- --
02B0:          1D 34 80 23 00                              .4.#.        
```

#### Opcodes

```
  0: 0x02B3 [0x1D] PRINT_EVENT_MESSAGE(message_id=8384*)
    → "But wait a second. Let me see... What could be suitable for a newbie like you...?"
  1: 0x02B6 [0x23] WAIT_FOR_DIALOG_INTERACTION
  2: 0x02B7 [0x00] END_REQSTACK()
```

### Event 65535.58

#### Metadata

| Field        | Value   |
|--------------|---------|
| Entrypoint   | 0x02B8  |
| Data Size    | 9 bytes |
| Instructions | 5       |

```
      00 01 02 03 04 05 06 07  08 09 0A 0B 0C 0D 0E 0F
      -- -- -- -- -- -- -- --  -- -- -- -- -- -- -- --
02B0:                          1D 35 80 23 1D 36 80 23          .5.#.6.#
02C0: 00                                                .               
```

#### Opcodes

```
  0: 0x02B8 [0x1D] PRINT_EVENT_MESSAGE(message_id=8385*)
    → "You know the Boneworrrkers' Guild to the south of here? If you diligently practice that trade skill, you might make some money out of synthesizing and selling items."
  1: 0x02BB [0x23] WAIT_FOR_DIALOG_INTERACTION
  2: 0x02BC [0x1D] PRINT_EVENT_MESSAGE(message_id=8386*)
    → "You'rrre not going to strike it rich right away, but it's a relatively easy way to make money. Hey, it's a start, right?"
  3: 0x02BF [0x23] WAIT_FOR_DIALOG_INTERACTION
  4: 0x02C0 [0x00] END_REQSTACK()
```

### Event 65535.59

#### Metadata

| Field        | Value   |
|--------------|---------|
| Entrypoint   | 0x02C1  |
| Data Size    | 9 bytes |
| Instructions | 5       |

```
      00 01 02 03 04 05 06 07  08 09 0A 0B 0C 0D 0E 0F
      -- -- -- -- -- -- -- --  -- -- -- -- -- -- -- --
02C0:    1D 37 80 23 1D 38 80  23 00                     .7.#.8.#.      
```

#### Opcodes

```
  0: 0x02C1 [0x1D] PRINT_EVENT_MESSAGE(message_id=8387*)
    → "Norrrmally, I'd say, "Go out and slaughter those Yagudo beastmen"!"
  1: 0x02C4 [0x23] WAIT_FOR_DIALOG_INTERACTION
  2: 0x02C5 [0x1D] PRINT_EVENT_MESSAGE(message_id=8388*)
    → "But the Tarutaru of Windurrrst like to keep the peace and are trying to be friends with the Yagudo."
  3: 0x02C8 [0x23] WAIT_FOR_DIALOG_INTERACTION
  4: 0x02C9 [0x00] END_REQSTACK()
```

### Event 65535.60

#### Metadata

| Field        | Value   |
|--------------|---------|
| Entrypoint   | 0x02CA  |
| Data Size    | 9 bytes |
| Instructions | 5       |

```
      00 01 02 03 04 05 06 07  08 09 0A 0B 0C 0D 0E 0F
      -- -- -- -- -- -- -- --  -- -- -- -- -- -- -- --
02C0:                                1D 39 80 23 1D 3A            .9.#.:
02D0: 80 23 00                                          .#.             
```

#### Opcodes

```
  0: 0x02CA [0x1D] PRINT_EVENT_MESSAGE(message_id=8389*)
    → "So at this point, all I can recommend to you is the dhalmel farrrm."
  1: 0x02CD [0x23] WAIT_FOR_DIALOG_INTERACTION
  2: 0x02CE [0x1D] PRINT_EVENT_MESSAGE(message_id=8390*)
    → "If you head north from here, you'll see the long necks of the dhalmel sticking up over the farrrm's walkway. Inquire with the farrrmer. She's grateful for any help she can get."
  3: 0x02D1 [0x23] WAIT_FOR_DIALOG_INTERACTION
  4: 0x02D2 [0x00] END_REQSTACK()
```

### Event 65535.61

#### Metadata

| Field        | Value   |
|--------------|---------|
| Entrypoint   | 0x02D3  |
| Data Size    | 5 bytes |
| Instructions | 3       |

```
      00 01 02 03 04 05 06 07  08 09 0A 0B 0C 0D 0E 0F
      -- -- -- -- -- -- -- --  -- -- -- -- -- -- -- --
02D0:          1D 3B 80 23 00                              .;.#.        
```

#### Opcodes

```
  0: 0x02D3 [0x1D] PRINT_EVENT_MESSAGE(message_id=8391*)
    → "Looking for worrrk, huh? Then head to one of the gatehouses."
  1: 0x02D6 [0x23] WAIT_FOR_DIALOG_INTERACTION
  2: 0x02D7 [0x00] END_REQSTACK()
```

### Event 65535.62

#### Metadata

| Field        | Value   |
|--------------|---------|
| Entrypoint   | 0x02D8  |
| Data Size    | 5 bytes |
| Instructions | 3       |

```
      00 01 02 03 04 05 06 07  08 09 0A 0B 0C 0D 0E 0F
      -- -- -- -- -- -- -- --  -- -- -- -- -- -- -- --
02D0:                          1D 3C 80 23 00                   .<.#.   
```

#### Opcodes

```
  0: 0x02D8 [0x1D] PRINT_EVENT_MESSAGE(message_id=8392*)
    → "There's one right behind you. The stone building there is the Eastern Gatehouse. It's swarrrming with those preening Mithra guards."
  1: 0x02DB [0x23] WAIT_FOR_DIALOG_INTERACTION
  2: 0x02DC [0x00] END_REQSTACK()
```

### Event 65535.63

#### Metadata

| Field        | Value   |
|--------------|---------|
| Entrypoint   | 0x02DD  |
| Data Size    | 9 bytes |
| Instructions | 5       |

```
      00 01 02 03 04 05 06 07  08 09 0A 0B 0C 0D 0E 0F
      -- -- -- -- -- -- -- --  -- -- -- -- -- -- -- --
02D0:                                         1D 3D 80               .=.
02E0: 23 1D 3E 80 23 00                                 #.>.#.          
```

#### Opcodes

```
  0: 0x02DD [0x1D] PRINT_EVENT_MESSAGE(message_id=8393*)
    → "You can receive missions from the gatehouses if you're into volunteerrring for your country. Perrrsonally, I don't care much for it myself, so ask for details at the gatehouse."
  1: 0x02E0 [0x23] WAIT_FOR_DIALOG_INTERACTION
  2: 0x02E1 [0x1D] PRINT_EVENT_MESSAGE(message_id=8394*)
    → "Missions are tasks from and on behalf of the Federation of Windurst, and differrr from the requests for help from general townsfolk."
  3: 0x02E4 [0x23] WAIT_FOR_DIALOG_INTERACTION
  4: 0x02E5 [0x00] END_REQSTACK()
```

### Event 65535.64

#### Metadata

| Field        | Value   |
|--------------|---------|
| Entrypoint   | 0x02E6  |
| Data Size    | 9 bytes |
| Instructions | 5       |

```
      00 01 02 03 04 05 06 07  08 09 0A 0B 0C 0D 0E 0F
      -- -- -- -- -- -- -- --  -- -- -- -- -- -- -- --
02E0:                   1D 3F  80 23 1D 40 80 23 00           .?.#.@.#. 
```

#### Opcodes

```
  0: 0x02E6 [0x1D] PRINT_EVENT_MESSAGE(message_id=8395*)
    → "For instance, if you do so-and-so a mission, you are rewarrrded with a set number of rank points."
  1: 0x02E9 [0x23] WAIT_FOR_DIALOG_INTERACTION
  2: 0x02EA [0x1D] PRINT_EVENT_MESSAGE(message_id=8396*)
    → "Collect enough rank points and your rank or position in this country will rise. But as far as I'm concerned, the rewards aren't worrrth the effort."
  3: 0x02ED [0x23] WAIT_FOR_DIALOG_INTERACTION
  4: 0x02EE [0x00] END_REQSTACK()
```

### Event 65535.65

#### Metadata

| Field        | Value   |
|--------------|---------|
| Entrypoint   | 0x02EF  |
| Data Size    | 5 bytes |
| Instructions | 3       |

```
      00 01 02 03 04 05 06 07  08 09 0A 0B 0C 0D 0E 0F
      -- -- -- -- -- -- -- --  -- -- -- -- -- -- -- --
02E0:                                               1D                 .
02F0: 41 80 23 00                                       A.#.            
```

#### Opcodes

```
  0: 0x02EF [0x1D] PRINT_EVENT_MESSAGE(message_id=8397*)
    → "Hm? You don't know left from right? You poorrr thing."
  1: 0x02F2 [0x23] WAIT_FOR_DIALOG_INTERACTION
  2: 0x02F3 [0x00] END_REQSTACK()
```

### Event 65535.66

#### Metadata

| Field        | Value   |
|--------------|---------|
| Entrypoint   | 0x02F4  |
| Data Size    | 9 bytes |
| Instructions | 5       |

```
      00 01 02 03 04 05 06 07  08 09 0A 0B 0C 0D 0E 0F
      -- -- -- -- -- -- -- --  -- -- -- -- -- -- -- --
02F0:             1D 42 80 23  1D 43 80 23 00               .B.#.C.#.   
```

#### Opcodes

```
  0: 0x02F4 [0x1D] PRINT_EVENT_MESSAGE(message_id=8398*)
    → "This is Windurst Woods, the easternmost of the fourrr districts of Windurst."
  1: 0x02F7 [0x23] WAIT_FOR_DIALOG_INTERACTION
  2: 0x02F8 [0x1D] PRINT_EVENT_MESSAGE(message_id=8399*)
    → "Seeing as we're nearrr the Bomingo Round here, I'll use it as the starting point of my explanation."
  3: 0x02FB [0x23] WAIT_FOR_DIALOG_INTERACTION
  4: 0x02FC [0x00] END_REQSTACK()
```

### Event 65535.67

#### Metadata

| Field        | Value   |
|--------------|---------|
| Entrypoint   | 0x02FD  |
| Data Size    | 9 bytes |
| Instructions | 5       |

```
      00 01 02 03 04 05 06 07  08 09 0A 0B 0C 0D 0E 0F
      -- -- -- -- -- -- -- --  -- -- -- -- -- -- -- --
02F0:                                         1D 44 80               .D.
0300: 23 1D 45 80 23 00                                 #.E.#.          
```

#### Opcodes

```
  0: 0x02FD [0x1D] PRINT_EVENT_MESSAGE(message_id=8400*)
    → "Firrrst, if you head south from the round, there are several shops run by the local craftswomen."
  1: 0x0300 [0x23] WAIT_FOR_DIALOG_INTERACTION
  2: 0x0301 [0x1D] PRINT_EVENT_MESSAGE(message_id=8401*)
    → "There's the Weavers' Guild, which is the specialty of the Tarutaru, and there's the Boneworkers' Guild. which is more the Mithra's forte. These are the pride and joy of Windurst."
  3: 0x0304 [0x23] WAIT_FOR_DIALOG_INTERACTION
  4: 0x0305 [0x00] END_REQSTACK()
```

### Event 65535.68

#### Metadata

| Field        | Value   |
|--------------|---------|
| Entrypoint   | 0x0306  |
| Data Size    | 9 bytes |
| Instructions | 5       |

```
      00 01 02 03 04 05 06 07  08 09 0A 0B 0C 0D 0E 0F
      -- -- -- -- -- -- -- --  -- -- -- -- -- -- -- --
0300:                   1D 46  80 23 1D 47 80 23 00           .F.#.G.#. 
```

#### Opcodes

```
  0: 0x0306 [0x1D] PRINT_EVENT_MESSAGE(message_id=8402*)
    → "If you head north from the round, you'll find roads that lead to the dhalmel farm and Chocobo Stables. Just follow the sweet smell of naturrre."
  1: 0x0309 [0x23] WAIT_FOR_DIALOG_INTERACTION
  2: 0x030A [0x1D] PRINT_EVENT_MESSAGE(message_id=8403*)
    → "Take the road norrrth, and you'll find an apothecary mixed among the Mithra Groves with the Mithra houses. Take the road south, and you'll find an auction house."
  3: 0x030D [0x23] WAIT_FOR_DIALOG_INTERACTION
  4: 0x030E [0x00] END_REQSTACK()
```

### Event 65535.69

#### Metadata

| Field        | Value   |
|--------------|---------|
| Entrypoint   | 0x030F  |
| Data Size    | 5 bytes |
| Instructions | 3       |

```
      00 01 02 03 04 05 06 07  08 09 0A 0B 0C 0D 0E 0F
      -- -- -- -- -- -- -- --  -- -- -- -- -- -- -- --
0300:                                               1D                 .
0310: 48 80 23 00                                       H.#.            
```

#### Opcodes

```
  0: 0x030F [0x1D] PRINT_EVENT_MESSAGE(message_id=8404*)
    → "Compared to the other districts, there's hardly any Tarutaru buildings in Windurst Woods at all. However, the Manustery, one of the five ministries, is right therrre."
  1: 0x0312 [0x23] WAIT_FOR_DIALOG_INTERACTION
  2: 0x0313 [0x00] END_REQSTACK()
```

### Event 65535.70

#### Metadata

| Field        | Value   |
|--------------|---------|
| Entrypoint   | 0x0314  |
| Data Size    | 5 bytes |
| Instructions | 3       |

```
      00 01 02 03 04 05 06 07  08 09 0A 0B 0C 0D 0E 0F
      -- -- -- -- -- -- -- --  -- -- -- -- -- -- -- --
0310:             1D 49 80 23  00                           .I.#.       
```

#### Opcodes

```
  0: 0x0314 [0x1D] PRINT_EVENT_MESSAGE(message_id=8405*)
    → "That building up high there is the Manustery's Cardian workshop. It's where those Cardian guards are manufacturrred."
  1: 0x0317 [0x23] WAIT_FOR_DIALOG_INTERACTION
  2: 0x0318 [0x00] END_REQSTACK()
```

### Event 65535.71

#### Metadata

| Field        | Value   |
|--------------|---------|
| Entrypoint   | 0x0319  |
| Data Size    | 9 bytes |
| Instructions | 5       |

```
      00 01 02 03 04 05 06 07  08 09 0A 0B 0C 0D 0E 0F
      -- -- -- -- -- -- -- --  -- -- -- -- -- -- -- --
0310:                             1D 4A 80 23 1D 4B 80           .J.#.K.
0320: 23 00                                             #.              
```

#### Opcodes

```
  0: 0x0319 [0x1D] PRINT_EVENT_MESSAGE(message_id=8406*)
    → "Finally, heading west from the round will take you to Windurst's residential area."
  1: 0x031C [0x23] WAIT_FOR_DIALOG_INTERACTION
  2: 0x031D [0x1D] PRINT_EVENT_MESSAGE(message_id=8407*)
    → "If you're a citizen of Windurst, you can use one of the Mog Houses inside of therrre."
  3: 0x0320 [0x23] WAIT_FOR_DIALOG_INTERACTION
  4: 0x0321 [0x00] END_REQSTACK()
```

### Event 65535.72

#### Metadata

| Field        | Value   |
|--------------|---------|
| Entrypoint   | 0x0322  |
| Data Size    | 5 bytes |
| Instructions | 3       |

```
      00 01 02 03 04 05 06 07  08 09 0A 0B 0C 0D 0E 0F
      -- -- -- -- -- -- -- --  -- -- -- -- -- -- -- --
0320:       1D 4C 80 23 00                                .L.#.         
```

#### Opcodes

```
  0: 0x0322 [0x1D] PRINT_EVENT_MESSAGE(message_id=8408*)
    → "Ask the guards at the entrance there forrr the details."
  1: 0x0325 [0x23] WAIT_FOR_DIALOG_INTERACTION
  2: 0x0326 [0x00] END_REQSTACK()
```
