# 17764723

## Common Data

| Field            | Value                    |
|------------------|--------------------------|
| Zone             | Windurst Woods (ID: 241) |
| Block Size       | 120 bytes                |
| Total Events     | 7                        |
| References Count | 3                        |

## List of Events

| Event ID                 | Entrypoint   |   Size |   Instructions |
|--------------------------|--------------|--------|----------------|
| [65535](#event-65535)    | 0x0000       |      1 |              1 |
| [801](#event-801)        | 0x0001       |      1 |              1 |
| [65535.1](#event-655351) | 0x0002       |      3 |              2 |
| [65535.2](#event-655352) | 0x0005       |     14 |              4 |
| [65535.3](#event-655353) | 0x0013       |     14 |              4 |
| [65535.4](#event-655354) | 0x0021       |     14 |              4 |
| [65535.5](#event-655355) | 0x002F       |     14 |              4 |

## DAT References (imed_data)

|   Index | Hex Value   |   Dec Value |
|---------|-------------|-------------|
|       0 | 0x0001      |           1 |
|       1 | 0x003C      |          60 |
|       2 | 0x0000      |           0 |

## Events

### Event 65535

#### Metadata

| Field        | Value   |
|--------------|---------|
| Entrypoint   | 0x0000  |
| Data Size    | 1 bytes |
| Instructions | 1       |

```
      00 01 02 03 04 05 06 07  08 09 0A 0B 0C 0D 0E 0F
      -- -- -- -- -- -- -- --  -- -- -- -- -- -- -- --
0000: 00                                                .               
```

#### Opcodes

```
  0: 0x0000 [0x00] END_REQSTACK()
```

### Event 801

#### Metadata

| Field        | Value   |
|--------------|---------|
| Entrypoint   | 0x0001  |
| Data Size    | 1 bytes |
| Instructions | 1       |

```
      00 01 02 03 04 05 06 07  08 09 0A 0B 0C 0D 0E 0F
      -- -- -- -- -- -- -- --  -- -- -- -- -- -- -- --
0000:    00                                              .              
```

#### Opcodes

```
  0: 0x0001 [0x00] END_REQSTACK()
```

### Event 65535.1

#### Metadata

| Field        | Value   |
|--------------|---------|
| Entrypoint   | 0x0002  |
| Data Size    | 3 bytes |
| Instructions | 2       |

```
      00 01 02 03 04 05 06 07  08 09 0A 0B 0C 0D 0E 0F
      -- -- -- -- -- -- -- --  -- -- -- -- -- -- -- --
0000:       A5 01 00                                      ...           
```

#### Opcodes

```
  0: 0x0002 [0xA5] EventEntity->Flags3.BallistaTeam |= 0x08  // Set bit 3 of BallistaTeam
  1: 0x0004 [0x00] END_REQSTACK()
```

### Event 65535.2

#### Metadata

| Field        | Value    |
|--------------|----------|
| Entrypoint   | 0x0005   |
| Data Size    | 14 bytes |
| Instructions | 4        |

```
      00 01 02 03 04 05 06 07  08 09 0A 0B 0C 0D 0E 0F
      -- -- -- -- -- -- -- --  -- -- -- -- -- -- -- --
0000:                03 54 10  00 80 1C 01 80 03 54 10       .T.......T.
0010: 02 80 00                                          ...             
```

#### Opcodes

```
  0: 0x0005 [0x03] Work_Zone[84] = 1*
  1: 0x000A [0x1C] WAIT(60* ticks)
  2: 0x000D [0x03] Work_Zone[84] = 0*
  3: 0x0012 [0x00] END_REQSTACK()
```

### Event 65535.3

#### Metadata

| Field        | Value    |
|--------------|----------|
| Entrypoint   | 0x0013   |
| Data Size    | 14 bytes |
| Instructions | 4        |

```
      00 01 02 03 04 05 06 07  08 09 0A 0B 0C 0D 0E 0F
      -- -- -- -- -- -- -- --  -- -- -- -- -- -- -- --
0010:          03 55 10 00 80  1C 01 80 03 55 10 02 80     .U.......U...
0020: 00                                                .               
```

#### Opcodes

```
  0: 0x0013 [0x03] Work_Zone[85] = 1*
  1: 0x0018 [0x1C] WAIT(60* ticks)
  2: 0x001B [0x03] Work_Zone[85] = 0*
  3: 0x0020 [0x00] END_REQSTACK()
```

### Event 65535.4

#### Metadata

| Field        | Value    |
|--------------|----------|
| Entrypoint   | 0x0021   |
| Data Size    | 14 bytes |
| Instructions | 4        |

```
      00 01 02 03 04 05 06 07  08 09 0A 0B 0C 0D 0E 0F
      -- -- -- -- -- -- -- --  -- -- -- -- -- -- -- --
0020:    03 56 10 00 80 1C 01  80 03 56 10 02 80 00      .V.......V.... 
```

#### Opcodes

```
  0: 0x0021 [0x03] Work_Zone[86] = 1*
  1: 0x0026 [0x1C] WAIT(60* ticks)
  2: 0x0029 [0x03] Work_Zone[86] = 0*
  3: 0x002E [0x00] END_REQSTACK()
```

### Event 65535.5

#### Metadata

| Field        | Value    |
|--------------|----------|
| Entrypoint   | 0x002F   |
| Data Size    | 14 bytes |
| Instructions | 4        |

```
      00 01 02 03 04 05 06 07  08 09 0A 0B 0C 0D 0E 0F
      -- -- -- -- -- -- -- --  -- -- -- -- -- -- -- --
0020:                                               03                 .
0030: 57 10 00 80 1C 01 80 03  57 10 02 80 00           W.......W....   
```

#### Opcodes

```
  0: 0x002F [0x03] Work_Zone[87] = 1*
  1: 0x0034 [0x1C] WAIT(60* ticks)
  2: 0x0037 [0x03] Work_Zone[87] = 0*
  3: 0x003C [0x00] END_REQSTACK()
```
