# 17764735

## Common Data

| Field            | Value                    |
|------------------|--------------------------|
| Zone             | Windurst Woods (ID: 241) |
| Block Size       | 380 bytes                |
| Total Events     | 3                        |
| References Count | 22                       |

## List of Events

| Event ID                 | Entrypoint   |   Size |   Instructions |
|--------------------------|--------------|--------|----------------|
| [65535](#event-65535)    | 0x0000       |      1 |              1 |
| [801](#event-801)        | 0x0001       |      3 |              2 |
| [65535.1](#event-655351) | 0x0004       |    257 |             49 |

## DAT References (imed_data)

|   Index | Hex Value   |   Dec Value |
|---------|-------------|-------------|
|       0 | 0x0000      |           0 |
|       1 | 0x0001      |           1 |
|       2 | 0x0078      |         120 |
|       3 | 0x0002      |           2 |
|       4 | 0x010E      |         270 |
|       5 | 0x00D2      |         210 |
|       6 | 0x005A      |          90 |
|       7 | 0x0064      |         100 |
|       8 | 0x0028      |          40 |
|       9 | 0x0082      |         130 |
|      10 | 0x00B4      |         180 |
|      11 | 0x000A      |          10 |
|      12 | 0x000C      |          12 |
|      13 | 0x0837      |        2103 |
|      14 | 0xFFFECF50  |  4294889296 |
|      15 | 0x0BB7      |        2999 |
|      16 | 0x00E0      |         224 |
|      17 | 0x03D2      |         978 |
|      18 | 0xFFFEC629  |  4294886953 |
|      19 | 0x11EF      |        4591 |
|      20 | 0xFFFEE3F0  |  4294894576 |
|      21 | 0x0450      |        1104 |

## Events

### Event 65535

#### Metadata

| Field        | Value   |
|--------------|---------|
| Entrypoint   | 0x0000  |
| Data Size    | 1 bytes |
| Instructions | 1       |

```
      00 01 02 03 04 05 06 07  08 09 0A 0B 0C 0D 0E 0F
      -- -- -- -- -- -- -- --  -- -- -- -- -- -- -- --
0000: 00                                                .               
```

#### Opcodes

```
  0: 0x0000 [0x00] END_REQSTACK()
```

### Event 801

#### Metadata

| Field        | Value   |
|--------------|---------|
| Entrypoint   | 0x0001  |
| Data Size    | 3 bytes |
| Instructions | 2       |

```
      00 01 02 03 04 05 06 07  08 09 0A 0B 0C 0D 0E 0F
      -- -- -- -- -- -- -- --  -- -- -- -- -- -- -- --
0000:    61 00 00                                        a..            
```

#### Opcodes

```
  0: 0x0001 [0x61] EventEntity->Render.Flags2 &= ~0x00000001
  1: 0x0003 [0x00] END_REQSTACK()
```

### Event 65535.1

#### Metadata

| Field        | Value     |
|--------------|-----------|
| Entrypoint   | 0x0004    |
| Data Size    | 257 bytes |
| Instructions | 49        |

```
      00 01 02 03 04 05 06 07  08 09 0A 0B 0C 0D 0E 0F
      -- -- -- -- -- -- -- --  -- -- -- -- -- -- -- --
0000:             02 50 10 00  80 00 04 01 02 55 10 01      .P.......U..
0010: 80 00 17 00 1C 02 80 13  00 00 03 80 02 58 10 00  .............X..
0020: 80 00 51 00 02 00 00 00  80 80 32 00 1C 04 80 01  ..Q.......2.....
0030: 4E 00 02 00 00 01 80 80  40 00 1C 05 80 01 4E 00  N.......@.....N.
0040: 02 00 00 03 80 80 4E 00  1C 06 80 01 4E 00 01 7B  ......N.....N..{
0050: 00 02 00 00 00 80 80 5F  00 1C 07 80 01 7B 00 02  ......._.....{..
0060: 00 00 01 80 80 6D 00 1C  08 80 01 7B 00 02 00 00  .....m.....{....
0070: 03 80 80 7B 00 1C 09 80  01 7B 00 02 54 10 01 80  ...{.....{..T...
0080: 00 86 00 1C 0A 80 27 03  73 11 0F 01 03 27 05 73  ......'.s....'.s
0090: 11 0F 01 04 02 58 10 00  80 00 A2 00 32 0B 80 01  .....X......2...
00A0: A5 00 32 0C 80 1F 00 0D  80 0E 80 0F 80 1F 01 02  ..2.............
00B0: 4F 10 03 80 00 E5 00 02  52 10 00 80 00 E2 00 5B  O.......R......[
00C0: 10 80 74 11 0F 01 74 11  0F 01 38 32 30 31 B4 0B  ..t...t...8201..
00D0: 03 53 10 01 80 B4 06 00  03 52 10 03 80 03 50 10  .S.......R....P.
00E0: 01 80 01 EF 00 1F 00 11  80 12 80 0F 80 1F 01 BA  ................
00F0: 7F 11 0F 01 13 80 14 80  0F 80 15 80 80 7F 11 0F  ................
0100: 01 01 04 00 00                                    .....           
```

#### Opcodes

```
  0: 0x0004 [0x02] IF !(Work_Zone[80] == 0*) GOTO 0x0104
  1: 0x000C [0x02] IF !(Work_Zone[85] == 1*) GOTO 0x0017
  2: 0x0014 [0x1C] WAIT(120* ticks)
  3: 0x0017 [0x13] ExtData[1]->WorkLocal[0] = rand() % 2*
  4: 0x001C [0x02] IF !(Work_Zone[88] == 0*) GOTO 0x0051
  5: 0x0024 [0x02] IF !(ExtData[1]->WorkLocal[0] == 0*) GOTO 0x0032
  6: 0x002C [0x1C] WAIT(270* ticks)
  7: 0x002F [0x01] GOTO 0x004E
  8: 0x0032 [0x02] IF !(ExtData[1]->WorkLocal[0] == 1*) GOTO 0x0040
  9: 0x003A [0x1C] WAIT(210* ticks)
 10: 0x003D [0x01] GOTO 0x004E
 11: 0x0040 [0x02] IF !(ExtData[1]->WorkLocal[0] == 2*) GOTO 0x004E
 12: 0x0048 [0x1C] WAIT(90* ticks)
 13: 0x004B [0x01] GOTO 0x004E

SUBROUTINE_004E:
 14: 0x004E [0x01] GOTO 0x007B
 15: 0x0051 [0x02] IF !(ExtData[1]->WorkLocal[0] == 0*) GOTO 0x005F
 16: 0x0059 [0x1C] WAIT(100* ticks)
 17: 0x005C [0x01] GOTO 0x007B
 18: 0x005F [0x02] IF !(ExtData[1]->WorkLocal[0] == 1*) GOTO 0x006D
 19: 0x0067 [0x1C] WAIT(40* ticks)
 20: 0x006A [0x01] GOTO 0x007B
 21: 0x006D [0x02] IF !(ExtData[1]->WorkLocal[0] == 2*) GOTO 0x007B
 22: 0x0075 [0x1C] WAIT(130* ticks)
 23: 0x0078 [0x01] GOTO 0x007B

SUBROUTINE_007B:
 24: 0x007B [0x02] IF !(Work_Zone[84] == 1*) GOTO 0x0086
 25: 0x0083 [0x1C] WAIT(180* ticks)
 26: 0x0086 [0x27] REQ_SET(priority=0x03, entity_id=Unnamed NPC (ID: 17764723/0x010F1173), tag_num=0x03)
 27: 0x008D [0x27] REQ_SET(priority=0x05, entity_id=Unnamed NPC (ID: 17764723/0x010F1173), tag_num=0x04)
 28: 0x0094 [0x02] IF !(Work_Zone[88] == 0*) GOTO 0x00A2
 29: 0x009C [0x32] ExtData[1]->MainSpeed = 10* * 0.1
 30: 0x009F [0x01] GOTO 0x00A5
 31: 0x00A2 [0x32] ExtData[1]->MainSpeed = 12* * 0.1

SUBROUTINE_00A5:
 32: 0x00A5 [0x1F] MOVE_ENTITY: EventEntity moves to X=2.103*, Z=-78.000*, Y=2.999*
 33: 0x00AD [0x1F] MOVE_ENTITY: Update entity position (mode=1)
 34: 0x00AF [0x02] IF !(Work_Zone[79] == 2*) GOTO 0x00E5
 35: 0x00B7 [0x02] IF !(Work_Zone[82] == 0*) GOTO 0x00E2
 36: 0x00BF [0x5B] LOAD_EXT_SCHEDULER: Load scheduler "8201" with entities [Unnamed NPC (ID: 17764724/0x010F1174), Unnamed NPC (ID: 17764724/0x010F1174)], work=224*
 37: 0x00CE [0xB4] UI_WINDOW_STRING_HANDLER(case=0x0B - Destroy event time window)
 38: 0x00D0 [0x03] Work_Zone[83] = 1*
 39: 0x00D5 [0xB4] UI_WINDOW_STRING_HANDLER(case=0x06 - Toggle query message flag, flag_value=0x00)
 40: 0x00D8 [0x03] Work_Zone[82] = 2*
 41: 0x00DD [0x03] Work_Zone[80] = 1*
 42: 0x00E2 [0x01] GOTO 0x00EF
 43: 0x00E5 [0x1F] MOVE_ENTITY: EventEntity moves to X=0.978*, Z=-80.343*, Y=2.999*
 44: 0x00ED [0x1F] MOVE_ENTITY: Update entity position (mode=1)

SUBROUTINE_00EF:
 45: 0x00EF [0xBA] SET_ENTITY_POSITION(entity_id=Unnamed NPC (ID: 17764735/0x010F117F), pos_x=4.591*, pos_z=-72.720*, pos_y=2.999*, direction=97.0°*)
 46: 0x00FC [0x80] LOAD_WAIT(entity=Unnamed NPC (ID: 17764735/0x010F117F))
 47: 0x0101 [0x01] GOTO 0x0004
 48: 0x0104 [0x00] END_REQSTACK()
```
