# 17764430

## Common Data

| Field            | Value                    |
|------------------|--------------------------|
| Zone             | Windurst Woods (ID: 241) |
| Block Size       | 1348 bytes               |
| Total Events     | 25                       |
| References Count | 119                      |

## List of Events

| Event ID                   | Entrypoint   |   Size |   Instructions |
|----------------------------|--------------|--------|----------------|
| [65535](#event-65535)      | 0x0000       |      1 |              1 |
| [746](#event-746)          | 0x0001       |      1 |              1 |
| [742](#event-742)          | 0x0002       |      1 |              1 |
| [65535.1](#event-655351)   | 0x0003       |     15 |              2 |
| [65535.2](#event-655352)   | 0x0012       |     11 |              3 |
| [65535.3](#event-655353)   | 0x001D       |     10 |              2 |
| [65535.4](#event-655354)   | 0x0027       |    131 |             26 |
| [65535.5](#event-655355)   | 0x00AA       |    131 |             26 |
| [65535.6](#event-655356)   | 0x012D       |     10 |              2 |
| [65535.7](#event-655357)   | 0x0137       |     14 |              4 |
| [65535.8](#event-655358)   | 0x0145       |     11 |              3 |
| [65535.9](#event-655359)   | 0x0150       |     11 |              3 |
| [65535.10](#event-6553510) | 0x015B       |     11 |              3 |
| [65535.11](#event-6553511) | 0x0166       |     14 |              4 |
| [776](#event-776)          | 0x0174       |      1 |              1 |
| [65535.12](#event-6553512) | 0x0175       |     15 |              3 |
| [65535.13](#event-6553513) | 0x0184       |     45 |             10 |
| [65535.14](#event-6553514) | 0x01B1       |      6 |              2 |
| [65535.15](#event-6553515) | 0x01B7       |     20 |              4 |
| [65535.16](#event-6553516) | 0x01CB       |     80 |             18 |
| [65535.17](#event-6553517) | 0x021B       |     67 |             15 |
| [65535.18](#event-6553518) | 0x025E       |     14 |              4 |
| [65535.19](#event-6553519) | 0x026C       |     51 |             11 |
| [65535.20](#event-6553520) | 0x029F       |     15 |              3 |
| [65535.21](#event-6553521) | 0x02AE       |     69 |             15 |

## DAT References (imed_data)

|   Index | Hex Value   |   Dec Value |
|---------|-------------|-------------|
|       0 | 0x0000      |           0 |
|       1 | 0x1EA21     |      125473 |
|       2 | 0xFFFE6447  |  4294861895 |
|       3 | 0xFFFFEC78  |  4294962296 |
|       4 | 0x0610      |        1552 |
|       5 | 0x0046      |          70 |
|       6 | 0x1E0C1     |      123073 |
|       7 | 0xFFFE59DF  |  4294859231 |
|       8 | 0x1E499     |      124057 |
|       9 | 0xFFFE5044  |  4294856772 |
|      10 | 0x1ED76     |      126326 |
|      11 | 0xFFFE5055  |  4294856789 |
|      12 | 0x1F4D1     |      128209 |
|      13 | 0xFFFE5989  |  4294859145 |
|      14 | 0x1EAE7     |      125671 |
|      15 | 0xFFFE622D  |  4294861357 |
|      16 | 0x1DC90     |      122000 |
|      17 | 0xFFFE69C0  |  4294863296 |
|      18 | 0x1E1D1     |      123345 |
|      19 | 0xFFFE7448  |  4294865992 |
|      20 | 0x1EC63     |      126051 |
|      21 | 0xFFFE75F9  |  4294866425 |
|      22 | 0x1F133     |      127283 |
|      23 | 0xFFFE6C8E  |  4294864014 |
|      24 | 0x1EE3F     |      126527 |
|      25 | 0xFFFE47FD  |  4294854653 |
|      26 | 0xFFFFEC79  |  4294962297 |
|      27 | 0x0AAE      |        2734 |
|      28 | 0x1EEB7     |      126647 |
|      29 | 0xFFFE53E0  |  4294857696 |
|      30 | 0x1EF63     |      126819 |
|      31 | 0xFFFE625C  |  4294861404 |
|      32 | 0x1F028     |      127016 |
|      33 | 0xFFFE7172  |  4294865266 |
|      34 | 0x1EB88     |      125832 |
|      35 | 0xFFFE7CA3  |  4294868131 |
|      36 | 0x1FFB4     |      130996 |
|      37 | 0xFFFE6ADE  |  4294863582 |
|      38 | 0xFFF6D458  |  4294366296 |
|      39 | 0x94AE8     |      609000 |
|      40 | 0x00F7      |         247 |
|      41 | 0x003C      |          60 |
|      42 | 0x0002      |           2 |
|      43 | 0x000F      |          15 |
|      44 | 0xFFF6E0F7  |  4294369527 |
|      45 | 0x94851     |      608337 |
|      46 | 0x00D7      |         215 |
|      47 | 0xFFF6D937  |  4294367543 |
|      48 | 0x949C5     |      608709 |
|      49 | 0x00E9      |         233 |
|      50 | 0xFFF6CB82  |  4294364034 |
|      51 | 0x9409F     |      606367 |
|      52 | 0x0074      |         116 |
|      53 | 0xFFF6D7C0  |  4294367168 |
|      54 | 0x8EF6A     |      585578 |
|      55 | 0x0274      |         628 |
|      56 | 0x011C      |         284 |
|      57 | 0xFFF6D0CA  |  4294365386 |
|      58 | 0x8F7DF     |      587743 |
|      59 | 0x0112      |         274 |
|      60 | 0xFFF6D779  |  4294367097 |
|      61 | 0x8FCC2     |      588994 |
|      62 | 0x015B      |         347 |
|      63 | 0xFFF6DB55  |  4294368085 |
|      64 | 0x8F169     |      586089 |
|      65 | 0x024A      |         586 |
|      66 | 0xFFF6DAA1  |  4294367905 |
|      67 | 0x8E6CF     |      583375 |
|      68 | 0x033E      |         830 |
|      69 | 0x001E      |          30 |
|      70 | 0x0C58      |        3160 |
|      71 | 0x0078      |         120 |
|      72 | 0xFFF6D069  |  4294365289 |
|      73 | 0x8F7F4     |      587764 |
|      74 | 0x010C      |         268 |
|      75 | 0x0154      |         340 |
|      76 | 0x002D      |          45 |
|      77 | 0xFFF6DB01  |  4294368001 |
|      78 | 0x90356     |      590678 |
|      79 | 0x0108      |         264 |
|      80 | 0x03BF      |         959 |
|      81 | 0xFFF6C73F  |  4294362943 |
|      82 | 0x8F234     |      586292 |
|      83 | 0x008A      |         138 |
|      84 | 0x0025      |          37 |
|      85 | 0x00F0      |         240 |
|      86 | 0xFFF6D6F8  |  4294366968 |
|      87 | 0x8E30A     |      582410 |
|      88 | 0x0322      |         802 |
|      89 | 0x0BD3      |        3027 |
|      90 | 0xFFF6DB94  |  4294368148 |
|      91 | 0x8FCF3     |      589043 |
|      92 | 0x0159      |         345 |
|      93 | 0xFFF6C79F  |  4294363039 |
|      94 | 0x8F34D     |      586573 |
|      95 | 0x0039      |          57 |
|      96 | 0xFFF6CB4A  |  4294363978 |
|      97 | 0x8FAEF     |      588527 |
|      98 | 0x00C4      |         196 |
|      99 | 0xFFF6D269  |  4294365801 |
|     100 | 0x8F138     |      586040 |
|     101 | 0x01F0      |         496 |
|     102 | 0xFFF6CEAA  |  4294364842 |
|     103 | 0x8FA2D     |      588333 |
|     104 | 0xFFF6CA0E  |  4294363662 |
|     105 | 0x8EFB9     |      585657 |
|     106 | 0x0090      |         144 |
|     107 | 0xFFF6CECB  |  4294364875 |
|     108 | 0x8E418     |      582680 |
|     109 | 0x018C      |         396 |
|     110 | 0xFFF6DB79  |  4294368121 |
|     111 | 0x8E4F3     |      582899 |
|     112 | 0x0356      |         854 |
|     113 | 0xFFF6DE60  |  4294368864 |
|     114 | 0x8F7D9     |      587737 |
|     115 | 0x019A      |         410 |
|     116 | 0xFFF6D8AE  |  4294367406 |
|     117 | 0x8FE78     |      589432 |
|     118 | 0x0146      |         326 |

## Events

### Event 65535

#### Metadata

| Field        | Value   |
|--------------|---------|
| Entrypoint   | 0x0000  |
| Data Size    | 1 bytes |
| Instructions | 1       |

```
      00 01 02 03 04 05 06 07  08 09 0A 0B 0C 0D 0E 0F
      -- -- -- -- -- -- -- --  -- -- -- -- -- -- -- --
0000: 00                                                .               
```

#### Opcodes

```
  0: 0x0000 [0x00] END_REQSTACK()
```

### Event 746

#### Metadata

| Field        | Value   |
|--------------|---------|
| Entrypoint   | 0x0001  |
| Data Size    | 1 bytes |
| Instructions | 1       |

```
      00 01 02 03 04 05 06 07  08 09 0A 0B 0C 0D 0E 0F
      -- -- -- -- -- -- -- --  -- -- -- -- -- -- -- --
0000:    00                                              .              
```

#### Opcodes

```
  0: 0x0001 [0x00] END_REQSTACK()
```

### Event 742

#### Metadata

| Field        | Value   |
|--------------|---------|
| Entrypoint   | 0x0002  |
| Data Size    | 1 bytes |
| Instructions | 1       |

```
      00 01 02 03 04 05 06 07  08 09 0A 0B 0C 0D 0E 0F
      -- -- -- -- -- -- -- --  -- -- -- -- -- -- -- --
0000:       00                                            .             
```

#### Opcodes

```
  0: 0x0002 [0x00] END_REQSTACK()
```

### Event 65535.1

#### Metadata

| Field        | Value    |
|--------------|----------|
| Entrypoint   | 0x0003   |
| Data Size    | 15 bytes |
| Instructions | 2        |

```
      00 01 02 03 04 05 06 07  08 09 0A 0B 0C 0D 0E 0F
      -- -- -- -- -- -- -- --  -- -- -- -- -- -- -- --
0000:          B6 0D 04 10 05  10 06 10 07 10 08 10 09     .............
0010: 10 00                                             ..              
```

#### Opcodes

```
  0: 0x0003 [0xB6] ENTITY_APPEARANCE_HANDLER(case=Look with Render flags, race=Work_Zone[4], face=Work_Zone[5], head=Work_Zone[6], body=Work_Zone[7], hands=Work_Zone[8], render_flags=0x1009)
  1: 0x0011 [0x00] END_REQSTACK()
```

### Event 65535.2

#### Metadata

| Field        | Value    |
|--------------|----------|
| Entrypoint   | 0x0012   |
| Data Size    | 11 bytes |
| Instructions | 3        |

```
      00 01 02 03 04 05 06 07  08 09 0A 0B 0C 0D 0E 0F
      -- -- -- -- -- -- -- --  -- -- -- -- -- -- -- --
0010:       B4 01 00 00 00 80  B5 00 00 00 00             ...........   
```

#### Opcodes

```
  0: 0x0012 [0xB4] UI_WINDOW_STRING_HANDLER(case=0x01 - Copy string from event strings table, work_offset=ExtData[1]->WorkLocal[0], string_index=0*)
  1: 0x0018 [0xB5] SET_EVENT_ENTITY_NAME: Change EventEntity name to ExtData[1]->WorkLocal[0]
  2: 0x001C [0x00] END_REQSTACK()
```

### Event 65535.3

#### Metadata

| Field        | Value    |
|--------------|----------|
| Entrypoint   | 0x001D   |
| Data Size    | 10 bytes |
| Instructions | 2        |

```
      00 01 02 03 04 05 06 07  08 09 0A 0B 0C 0D 0E 0F
      -- -- -- -- -- -- -- --  -- -- -- -- -- -- -- --
0010:                                         37 01 80               7..
0020: 02 80 03 80 04 80 00                              .......         
```

#### Opcodes

```
  0: 0x001D [0x37] UPDATE_EVENT_POSITION_AND_DIR: x=125.473*, z=-105.401*, y=-5.000*, direction=136.4°*
  1: 0x0026 [0x00] END_REQSTACK()
```

### Event 65535.4

#### Metadata

| Field        | Value     |
|--------------|-----------|
| Entrypoint   | 0x0027    |
| Data Size    | 131 bytes |
| Instructions | 26        |

```
      00 01 02 03 04 05 06 07  08 09 0A 0B 0C 0D 0E 0F
      -- -- -- -- -- -- -- --  -- -- -- -- -- -- -- --
0020:                      32  05 80 1F 00 06 80 07 80         2........
0030: 03 80 1F 01 1F 00 08 80  09 80 03 80 1F 01 1F 00  ................
0040: 0A 80 0B 80 03 80 1F 01  1F 00 0C 80 0D 80 03 80  ................
0050: 1F 01 1F 00 0E 80 0F 80  03 80 1F 01 1F 00 10 80  ................
0060: 11 80 03 80 1F 01 1F 00  12 80 13 80 03 80 1F 01  ................
0070: 1F 00 14 80 15 80 03 80  1F 01 1F 00 16 80 17 80  ................
0080: 03 80 1F 01 1F 00 01 80  02 80 03 80 1F 01 02 4D  ...............M
0090: 10 00 80 00 A0 00 27 05  4E 10 0F 01 07 01 A9 00  ......'.N.......
00A0: 37 00 80 00 80 00 80 00  80 00                    7.........      
```

#### Opcodes

```
  0: 0x0027 [0x32] ExtData[1]->MainSpeed = 70* * 0.1
  1: 0x002A [0x1F] MOVE_ENTITY: EventEntity moves to X=123.073*, Z=-108.065*, Y=-5.000*
  2: 0x0032 [0x1F] MOVE_ENTITY: Update entity position (mode=1)
  3: 0x0034 [0x1F] MOVE_ENTITY: EventEntity moves to X=124.057*, Z=-110.524*, Y=-5.000*
  4: 0x003C [0x1F] MOVE_ENTITY: Update entity position (mode=1)
  5: 0x003E [0x1F] MOVE_ENTITY: EventEntity moves to X=126.326*, Z=-110.507*, Y=-5.000*
  6: 0x0046 [0x1F] MOVE_ENTITY: Update entity position (mode=1)
  7: 0x0048 [0x1F] MOVE_ENTITY: EventEntity moves to X=128.209*, Z=-108.151*, Y=-5.000*
  8: 0x0050 [0x1F] MOVE_ENTITY: Update entity position (mode=1)
  9: 0x0052 [0x1F] MOVE_ENTITY: EventEntity moves to X=125.671*, Z=-105.939*, Y=-5.000*
 10: 0x005A [0x1F] MOVE_ENTITY: Update entity position (mode=1)
 11: 0x005C [0x1F] MOVE_ENTITY: EventEntity moves to X=122.000*, Z=-104.000*, Y=-5.000*
 12: 0x0064 [0x1F] MOVE_ENTITY: Update entity position (mode=1)
 13: 0x0066 [0x1F] MOVE_ENTITY: EventEntity moves to X=123.345*, Z=-101.304*, Y=-5.000*
 14: 0x006E [0x1F] MOVE_ENTITY: Update entity position (mode=1)
 15: 0x0070 [0x1F] MOVE_ENTITY: EventEntity moves to X=126.051*, Z=-100.871*, Y=-5.000*
 16: 0x0078 [0x1F] MOVE_ENTITY: Update entity position (mode=1)
 17: 0x007A [0x1F] MOVE_ENTITY: EventEntity moves to X=127.283*, Z=-103.282*, Y=-5.000*
 18: 0x0082 [0x1F] MOVE_ENTITY: Update entity position (mode=1)
 19: 0x0084 [0x1F] MOVE_ENTITY: EventEntity moves to X=125.473*, Z=-105.401*, Y=-5.000*
 20: 0x008C [0x1F] MOVE_ENTITY: Update entity position (mode=1)
 21: 0x008E [0x02] IF !(Work_Zone[77] == 0*) GOTO 0x00A0
 22: 0x0096 [0x27] REQ_SET(priority=0x05, entity_id=Unnamed NPC (ID: 17764430/0x010F104E), tag_num=0x07)
 23: 0x009D [0x01] GOTO 0x00A9
 24: 0x00A0 [0x37] UPDATE_EVENT_POSITION_AND_DIR: x=0.000*, z=0.000*, y=0.000*, direction=0.0°*

SUBROUTINE_00A9:
 25: 0x00A9 [0x00] END_REQSTACK()
```

### Event 65535.5

#### Metadata

| Field        | Value     |
|--------------|-----------|
| Entrypoint   | 0x00AA    |
| Data Size    | 131 bytes |
| Instructions | 26        |

```
      00 01 02 03 04 05 06 07  08 09 0A 0B 0C 0D 0E 0F
      -- -- -- -- -- -- -- --  -- -- -- -- -- -- -- --
00A0:                                32 05 80 1F 00 06            2.....
00B0: 80 07 80 03 80 1F 01 1F  00 08 80 09 80 03 80 1F  ................
00C0: 01 1F 00 0A 80 0B 80 03  80 1F 01 1F 00 0C 80 0D  ................
00D0: 80 03 80 1F 01 1F 00 0E  80 0F 80 03 80 1F 01 1F  ................
00E0: 00 10 80 11 80 03 80 1F  01 1F 00 12 80 13 80 03  ................
00F0: 80 1F 01 1F 00 14 80 15  80 03 80 1F 01 1F 00 16  ................
0100: 80 17 80 03 80 1F 01 1F  00 01 80 02 80 03 80 1F  ................
0110: 01 02 4D 10 00 80 00 23  01 27 05 4E 10 0F 01 06  ..M....#.'.N....
0120: 01 2C 01 37 00 80 00 80  00 80 00 80 00           .,.7.........   
```

#### Opcodes

```
  0: 0x00AA [0x32] ExtData[1]->MainSpeed = 70* * 0.1
  1: 0x00AD [0x1F] MOVE_ENTITY: EventEntity moves to X=123.073*, Z=-108.065*, Y=-5.000*
  2: 0x00B5 [0x1F] MOVE_ENTITY: Update entity position (mode=1)
  3: 0x00B7 [0x1F] MOVE_ENTITY: EventEntity moves to X=124.057*, Z=-110.524*, Y=-5.000*
  4: 0x00BF [0x1F] MOVE_ENTITY: Update entity position (mode=1)
  5: 0x00C1 [0x1F] MOVE_ENTITY: EventEntity moves to X=126.326*, Z=-110.507*, Y=-5.000*
  6: 0x00C9 [0x1F] MOVE_ENTITY: Update entity position (mode=1)
  7: 0x00CB [0x1F] MOVE_ENTITY: EventEntity moves to X=128.209*, Z=-108.151*, Y=-5.000*
  8: 0x00D3 [0x1F] MOVE_ENTITY: Update entity position (mode=1)
  9: 0x00D5 [0x1F] MOVE_ENTITY: EventEntity moves to X=125.671*, Z=-105.939*, Y=-5.000*
 10: 0x00DD [0x1F] MOVE_ENTITY: Update entity position (mode=1)
 11: 0x00DF [0x1F] MOVE_ENTITY: EventEntity moves to X=122.000*, Z=-104.000*, Y=-5.000*
 12: 0x00E7 [0x1F] MOVE_ENTITY: Update entity position (mode=1)
 13: 0x00E9 [0x1F] MOVE_ENTITY: EventEntity moves to X=123.345*, Z=-101.304*, Y=-5.000*
 14: 0x00F1 [0x1F] MOVE_ENTITY: Update entity position (mode=1)
 15: 0x00F3 [0x1F] MOVE_ENTITY: EventEntity moves to X=126.051*, Z=-100.871*, Y=-5.000*
 16: 0x00FB [0x1F] MOVE_ENTITY: Update entity position (mode=1)
 17: 0x00FD [0x1F] MOVE_ENTITY: EventEntity moves to X=127.283*, Z=-103.282*, Y=-5.000*
 18: 0x0105 [0x1F] MOVE_ENTITY: Update entity position (mode=1)
 19: 0x0107 [0x1F] MOVE_ENTITY: EventEntity moves to X=125.473*, Z=-105.401*, Y=-5.000*
 20: 0x010F [0x1F] MOVE_ENTITY: Update entity position (mode=1)
 21: 0x0111 [0x02] IF !(Work_Zone[77] == 0*) GOTO 0x0123
 22: 0x0119 [0x27] REQ_SET(priority=0x05, entity_id=Unnamed NPC (ID: 17764430/0x010F104E), tag_num=0x06)
 23: 0x0120 [0x01] GOTO 0x012C
 24: 0x0123 [0x37] UPDATE_EVENT_POSITION_AND_DIR: x=0.000*, z=0.000*, y=0.000*, direction=0.0°*

SUBROUTINE_012C:
 25: 0x012C [0x00] END_REQSTACK()
```

### Event 65535.6

#### Metadata

| Field        | Value    |
|--------------|----------|
| Entrypoint   | 0x012D   |
| Data Size    | 10 bytes |
| Instructions | 2        |

```
      00 01 02 03 04 05 06 07  08 09 0A 0B 0C 0D 0E 0F
      -- -- -- -- -- -- -- --  -- -- -- -- -- -- -- --
0120:                                         37 18 80               7..
0130: 19 80 1A 80 1B 80 00                              .......         
```

#### Opcodes

```
  0: 0x012D [0x37] UPDATE_EVENT_POSITION_AND_DIR: x=126.527*, z=-112.643*, y=-4.999*, direction=240.3°*
  1: 0x0136 [0x00] END_REQSTACK()
```

### Event 65535.7

#### Metadata

| Field        | Value    |
|--------------|----------|
| Entrypoint   | 0x0137   |
| Data Size    | 14 bytes |
| Instructions | 4        |

```
      00 01 02 03 04 05 06 07  08 09 0A 0B 0C 0D 0E 0F
      -- -- -- -- -- -- -- --  -- -- -- -- -- -- -- --
0130:                      32  05 80 1F 00 1C 80 1D 80         2........
0140: 1A 80 1F 01 00                                    .....           
```

#### Opcodes

```
  0: 0x0137 [0x32] ExtData[1]->MainSpeed = 70* * 0.1
  1: 0x013A [0x1F] MOVE_ENTITY: EventEntity moves to X=126.647*, Z=-109.600*, Y=-4.999*
  2: 0x0142 [0x1F] MOVE_ENTITY: Update entity position (mode=1)
  3: 0x0144 [0x00] END_REQSTACK()
```

### Event 65535.8

#### Metadata

| Field        | Value    |
|--------------|----------|
| Entrypoint   | 0x0145   |
| Data Size    | 11 bytes |
| Instructions | 3        |

```
      00 01 02 03 04 05 06 07  08 09 0A 0B 0C 0D 0E 0F
      -- -- -- -- -- -- -- --  -- -- -- -- -- -- -- --
0140:                1F 00 1E  80 1F 80 1A 80 1F 01 00       ...........
```

#### Opcodes

```
  0: 0x0145 [0x1F] MOVE_ENTITY: EventEntity moves to X=126.819*, Z=-105.892*, Y=-4.999*
  1: 0x014D [0x1F] MOVE_ENTITY: Update entity position (mode=1)
  2: 0x014F [0x00] END_REQSTACK()
```

### Event 65535.9

#### Metadata

| Field        | Value    |
|--------------|----------|
| Entrypoint   | 0x0150   |
| Data Size    | 11 bytes |
| Instructions | 3        |

```
      00 01 02 03 04 05 06 07  08 09 0A 0B 0C 0D 0E 0F
      -- -- -- -- -- -- -- --  -- -- -- -- -- -- -- --
0150: 1F 00 20 80 21 80 1A 80  1F 01 00                 .. .!......     
```

#### Opcodes

```
  0: 0x0150 [0x1F] MOVE_ENTITY: EventEntity moves to X=127.016*, Z=-102.030*, Y=-4.999*
  1: 0x0158 [0x1F] MOVE_ENTITY: Update entity position (mode=1)
  2: 0x015A [0x00] END_REQSTACK()
```

### Event 65535.10

#### Metadata

| Field        | Value    |
|--------------|----------|
| Entrypoint   | 0x015B   |
| Data Size    | 11 bytes |
| Instructions | 3        |

```
      00 01 02 03 04 05 06 07  08 09 0A 0B 0C 0D 0E 0F
      -- -- -- -- -- -- -- --  -- -- -- -- -- -- -- --
0150:                                   1F 00 22 80 23             ..".#
0160: 80 1A 80 1F 01 00                                 ......          
```

#### Opcodes

```
  0: 0x015B [0x1F] MOVE_ENTITY: EventEntity moves to X=125.832*, Z=-99.165*, Y=-4.999*
  1: 0x0163 [0x1F] MOVE_ENTITY: Update entity position (mode=1)
  2: 0x0165 [0x00] END_REQSTACK()
```

### Event 65535.11

#### Metadata

| Field        | Value    |
|--------------|----------|
| Entrypoint   | 0x0166   |
| Data Size    | 14 bytes |
| Instructions | 4        |

```
      00 01 02 03 04 05 06 07  08 09 0A 0B 0C 0D 0E 0F
      -- -- -- -- -- -- -- --  -- -- -- -- -- -- -- --
0160:                   32 05  80 1F 00 24 80 25 80 1A        2....$.%..
0170: 80 1F 01 00                                       ....            
```

#### Opcodes

```
  0: 0x0166 [0x32] ExtData[1]->MainSpeed = 70* * 0.1
  1: 0x0169 [0x1F] MOVE_ENTITY: EventEntity moves to X=130.996*, Z=-103.714*, Y=-4.999*
  2: 0x0171 [0x1F] MOVE_ENTITY: Update entity position (mode=1)
  3: 0x0173 [0x00] END_REQSTACK()
```

### Event 776

#### Metadata

| Field        | Value   |
|--------------|---------|
| Entrypoint   | 0x0174  |
| Data Size    | 1 bytes |
| Instructions | 1       |

```
      00 01 02 03 04 05 06 07  08 09 0A 0B 0C 0D 0E 0F
      -- -- -- -- -- -- -- --  -- -- -- -- -- -- -- --
0170:             00                                        .           
```

#### Opcodes

```
  0: 0x0174 [0x00] END_REQSTACK()
```

### Event 65535.12

#### Metadata

| Field        | Value    |
|--------------|----------|
| Entrypoint   | 0x0175   |
| Data Size    | 15 bytes |
| Instructions | 3        |

```
      00 01 02 03 04 05 06 07  08 09 0A 0B 0C 0D 0E 0F
      -- -- -- -- -- -- -- --  -- -- -- -- -- -- -- --
0170:                37 26 80  27 80 28 80 29 80 03 04       7&.'.(.)...
0180: 00 00 80 00                                       ....            
```

#### Opcodes

```
  0: 0x0175 [0x37] UPDATE_EVENT_POSITION_AND_DIR: x=-601.000*, z=609.000*, y=0.247*, direction=5.3°*
  1: 0x017E [0x03] ExtData[1]->WorkLocal[4] = 0*
  2: 0x0183 [0x00] END_REQSTACK()
```

### Event 65535.13

#### Metadata

| Field        | Value    |
|--------------|----------|
| Entrypoint   | 0x0184   |
| Data Size    | 45 bytes |
| Instructions | 10       |

```
      00 01 02 03 04 05 06 07  08 09 0A 0B 0C 0D 0E 0F
      -- -- -- -- -- -- -- --  -- -- -- -- -- -- -- --
0180:             02 04 00 2A  80 01 B0 01 32 2B 80 1F      ...*....2+..
0190: 00 2C 80 2D 80 2E 80 1F  01 1F 00 2F 80 30 80 31  .,.-......./.0.1
01A0: 80 1F 01 1F 00 32 80 33  80 34 80 1F 01 01 84 01  .....2.3.4......
01B0: 00                                                .               
```

#### Opcodes

```
  0: 0x0184 [0x02] IF !(ExtData[1]->WorkLocal[4] == 2*) GOTO 0x01B0
  1: 0x018C [0x32] ExtData[1]->MainSpeed = 15* * 0.1
  2: 0x018F [0x1F] MOVE_ENTITY: EventEntity moves to X=-597.769*, Z=608.337*, Y=0.215*
  3: 0x0197 [0x1F] MOVE_ENTITY: Update entity position (mode=1)
  4: 0x0199 [0x1F] MOVE_ENTITY: EventEntity moves to X=-599.753*, Z=608.709*, Y=0.233*
  5: 0x01A1 [0x1F] MOVE_ENTITY: Update entity position (mode=1)
  6: 0x01A3 [0x1F] MOVE_ENTITY: EventEntity moves to X=-603.262*, Z=606.367*, Y=0.116*
  7: 0x01AB [0x1F] MOVE_ENTITY: Update entity position (mode=1)
  8: 0x01AD [0x01] GOTO 0x0184
  9: 0x01B0 [0x00] END_REQSTACK()
```

### Event 65535.14

#### Metadata

| Field        | Value   |
|--------------|---------|
| Entrypoint   | 0x01B1  |
| Data Size    | 6 bytes |
| Instructions | 2       |

```
      00 01 02 03 04 05 06 07  08 09 0A 0B 0C 0D 0E 0F
      -- -- -- -- -- -- -- --  -- -- -- -- -- -- -- --
01B0:    03 04 00 2A 80 00                               ...*..         
```

#### Opcodes

```
  0: 0x01B1 [0x03] ExtData[1]->WorkLocal[4] = 2*
  1: 0x01B6 [0x00] END_REQSTACK()
```

### Event 65535.15

#### Metadata

| Field        | Value    |
|--------------|----------|
| Entrypoint   | 0x01B7   |
| Data Size    | 20 bytes |
| Instructions | 4        |

```
      00 01 02 03 04 05 06 07  08 09 0A 0B 0C 0D 0E 0F
      -- -- -- -- -- -- -- --  -- -- -- -- -- -- -- --
01B0:                      37  35 80 36 80 37 80 38 80         75.6.7.8.
01C0: 80 F8 FF FF 7F 03 04 00  00 80 00                 ...........     
```

#### Opcodes

```
  0: 0x01B7 [0x37] UPDATE_EVENT_POSITION_AND_DIR: x=-600.128*, z=585.578*, y=0.628*, direction=25.0°*
  1: 0x01C0 [0x80] LOAD_WAIT(entity=EventEntity)
  2: 0x01C5 [0x03] ExtData[1]->WorkLocal[4] = 0*
  3: 0x01CA [0x00] END_REQSTACK()
```

### Event 65535.16

#### Metadata

| Field        | Value    |
|--------------|----------|
| Entrypoint   | 0x01CB   |
| Data Size    | 80 bytes |
| Instructions | 18       |

```
      00 01 02 03 04 05 06 07  08 09 0A 0B 0C 0D 0E 0F
      -- -- -- -- -- -- -- --  -- -- -- -- -- -- -- --
01C0:                                   32 2B 80 1F 00             2+...
01D0: 39 80 3A 80 3B 80 1F 01  1F 00 3C 80 3D 80 3E 80  9.:.;.....<.=.>.
01E0: 1F 01 1F 00 3F 80 40 80  41 80 1F 01 1F 00 42 80  ....?.@.A.....B.
01F0: 43 80 44 80 1F 01 1C 45  80 4B 4E 10 0F 01 46 80  C.D....E.KN...F.
0200: 1C 47 80 1F 00 48 80 49  80 4A 80 1F 01 1C 45 80  .G...H.I.J....E.
0210: 4B 4E 10 0F 01 4B 80 1C  45 80 00                 KN...K..E..     
```

#### Opcodes

```
  0: 0x01CB [0x32] ExtData[1]->MainSpeed = 15* * 0.1
  1: 0x01CE [0x1F] MOVE_ENTITY: EventEntity moves to X=-601.910*, Z=587.743*, Y=0.274*
  2: 0x01D6 [0x1F] MOVE_ENTITY: Update entity position (mode=1)
  3: 0x01D8 [0x1F] MOVE_ENTITY: EventEntity moves to X=-600.199*, Z=588.994*, Y=0.347*
  4: 0x01E0 [0x1F] MOVE_ENTITY: Update entity position (mode=1)
  5: 0x01E2 [0x1F] MOVE_ENTITY: EventEntity moves to X=-599.211*, Z=586.089*, Y=0.586*
  6: 0x01EA [0x1F] MOVE_ENTITY: Update entity position (mode=1)
  7: 0x01EC [0x1F] MOVE_ENTITY: EventEntity moves to X=-599.391*, Z=583.375*, Y=0.830*
  8: 0x01F4 [0x1F] MOVE_ENTITY: Update entity position (mode=1)
  9: 0x01F6 [0x1C] WAIT(30* ticks)
 10: 0x01F9 [0x4B] UPDATE_ENTITY_YAW(entity=Unnamed NPC (ID: 17764430/0x010F104E), yaw=17.4°*)
 11: 0x0200 [0x1C] WAIT(120* ticks)
 12: 0x0203 [0x1F] MOVE_ENTITY: EventEntity moves to X=-602.007*, Z=587.764*, Y=0.268*
 13: 0x020B [0x1F] MOVE_ENTITY: Update entity position (mode=1)
 14: 0x020D [0x1C] WAIT(30* ticks)
 15: 0x0210 [0x4B] UPDATE_ENTITY_YAW(entity=Unnamed NPC (ID: 17764430/0x010F104E), yaw=1.9°*)
 16: 0x0217 [0x1C] WAIT(30* ticks)
 17: 0x021A [0x00] END_REQSTACK()
```

### Event 65535.17

#### Metadata

| Field        | Value    |
|--------------|----------|
| Entrypoint   | 0x021B   |
| Data Size    | 67 bytes |
| Instructions | 15       |

```
      00 01 02 03 04 05 06 07  08 09 0A 0B 0C 0D 0E 0F
      -- -- -- -- -- -- -- --  -- -- -- -- -- -- -- --
0210:                                   32 4C 80 1F 00             2L...
0220: 4D 80 4E 80 4F 80 1F 01  4B 4E 10 0F 01 50 80 1C  M.N.O...KN...P..
0230: 29 80 1F 00 51 80 52 80  53 80 1F 01 4B 4E 10 0F  )...Q.R.S...KN..
0240: 01 54 80 1C 55 80 1F 00  56 80 57 80 58 80 1F 01  .T..U...V.W.X...
0250: 1C 45 80 4B 4E 10 0F 01  59 80 1C 29 80 00        .E.KN...Y..)..  
```

#### Opcodes

```
  0: 0x021B [0x32] ExtData[1]->MainSpeed = 45* * 0.1
  1: 0x021E [0x1F] MOVE_ENTITY: EventEntity moves to X=-599.295*, Z=590.678*, Y=0.264*
  2: 0x0226 [0x1F] MOVE_ENTITY: Update entity position (mode=1)
  3: 0x0228 [0x4B] UPDATE_ENTITY_YAW(entity=Unnamed NPC (ID: 17764430/0x010F104E), yaw=5.3°*)
  4: 0x022F [0x1C] WAIT(60* ticks)
  5: 0x0232 [0x1F] MOVE_ENTITY: EventEntity moves to X=-604.353*, Z=586.292*, Y=0.138*
  6: 0x023A [0x1F] MOVE_ENTITY: Update entity position (mode=1)
  7: 0x023C [0x4B] UPDATE_ENTITY_YAW(entity=Unnamed NPC (ID: 17764430/0x010F104E), yaw=0.2°*)
  8: 0x0243 [0x1C] WAIT(240* ticks)
  9: 0x0246 [0x1F] MOVE_ENTITY: EventEntity moves to X=-600.328*, Z=582.410*, Y=0.802*
 10: 0x024E [0x1F] MOVE_ENTITY: Update entity position (mode=1)
 11: 0x0250 [0x1C] WAIT(30* ticks)
 12: 0x0253 [0x4B] UPDATE_ENTITY_YAW(entity=Unnamed NPC (ID: 17764430/0x010F104E), yaw=16.6°*)
 13: 0x025A [0x1C] WAIT(60* ticks)
 14: 0x025D [0x00] END_REQSTACK()
```

### Event 65535.18

#### Metadata

| Field        | Value    |
|--------------|----------|
| Entrypoint   | 0x025E   |
| Data Size    | 14 bytes |
| Instructions | 4        |

```
      00 01 02 03 04 05 06 07  08 09 0A 0B 0C 0D 0E 0F
      -- -- -- -- -- -- -- --  -- -- -- -- -- -- -- --
0250:                                            32 4C                2L
0260: 80 1F 00 5A 80 5B 80 5C  80 1F 01 00              ...Z.[.\....    
```

#### Opcodes

```
  0: 0x025E [0x32] ExtData[1]->MainSpeed = 45* * 0.1
  1: 0x0261 [0x1F] MOVE_ENTITY: EventEntity moves to X=-599.148*, Z=589.043*, Y=0.345*
  2: 0x0269 [0x1F] MOVE_ENTITY: Update entity position (mode=1)
  3: 0x026B [0x00] END_REQSTACK()
```

### Event 65535.19

#### Metadata

| Field        | Value    |
|--------------|----------|
| Entrypoint   | 0x026C   |
| Data Size    | 51 bytes |
| Instructions | 11       |

```
      00 01 02 03 04 05 06 07  08 09 0A 0B 0C 0D 0E 0F
      -- -- -- -- -- -- -- --  -- -- -- -- -- -- -- --
0260:                                      32 4C 80 1F              2L..
0270: 00 5D 80 5E 80 5F 80 1F  01 1F 00 60 80 61 80 62  .].^._.....`.a.b
0280: 80 1F 01 1F 00 63 80 64  80 65 80 1F 01 1E 4A 10  .....c.d.e....J.
0290: 0F 01 1C 45 80 4A 4A 10  0F 01 4E 10 0F 01 00     ...E.JJ...N.... 
```

#### Opcodes

```
  0: 0x026C [0x32] ExtData[1]->MainSpeed = 45* * 0.1
  1: 0x026F [0x1F] MOVE_ENTITY: EventEntity moves to X=-604.257*, Z=586.573*, Y=0.057*
  2: 0x0277 [0x1F] MOVE_ENTITY: Update entity position (mode=1)
  3: 0x0279 [0x1F] MOVE_ENTITY: EventEntity moves to X=-603.318*, Z=588.527*, Y=0.196*
  4: 0x0281 [0x1F] MOVE_ENTITY: Update entity position (mode=1)
  5: 0x0283 [0x1F] MOVE_ENTITY: EventEntity moves to X=-601.495*, Z=586.040*, Y=0.496*
  6: 0x028B [0x1F] MOVE_ENTITY: Update entity position (mode=1)
  7: 0x028D [0x1E] EventEntity looks at Unnamed NPC (ID: 17764426/0x010F104A) and starts talking
  8: 0x0292 [0x1C] WAIT(30* ticks)
  9: 0x0295 [0x4A] Unnamed NPC (ID: 17764426/0x010F104A) looks at Unnamed NPC (ID: 17764430/0x010F104E)
 10: 0x029E [0x00] END_REQSTACK()
```

### Event 65535.20

#### Metadata

| Field        | Value    |
|--------------|----------|
| Entrypoint   | 0x029F   |
| Data Size    | 15 bytes |
| Instructions | 3        |

```
      00 01 02 03 04 05 06 07  08 09 0A 0B 0C 0D 0E 0F
      -- -- -- -- -- -- -- --  -- -- -- -- -- -- -- --
0290:                                               37                 7
02A0: 48 80 49 80 4A 80 38 80  80 F8 FF FF 7F 00        H.I.J.8.......  
```

#### Opcodes

```
  0: 0x029F [0x37] UPDATE_EVENT_POSITION_AND_DIR: x=-602.007*, z=587.764*, y=0.268*, direction=25.0°*
  1: 0x02A8 [0x80] LOAD_WAIT(entity=EventEntity)
  2: 0x02AD [0x00] END_REQSTACK()
```

### Event 65535.21

#### Metadata

| Field        | Value    |
|--------------|----------|
| Entrypoint   | 0x02AE   |
| Data Size    | 69 bytes |
| Instructions | 15       |

```
      00 01 02 03 04 05 06 07  08 09 0A 0B 0C 0D 0E 0F
      -- -- -- -- -- -- -- --  -- -- -- -- -- -- -- --
02A0:                                            32 4C                2L
02B0: 80 1F 00 66 80 67 80 28  80 1F 01 1F 00 68 80 69  ...f.g.(.....h.i
02C0: 80 6A 80 1F 01 1F 00 6B  80 6C 80 6D 80 1F 01 1F  .j.....k.l.m....
02D0: 00 6E 80 6F 80 70 80 1F  01 1F 00 71 80 72 80 73  .n.o.p.....q.r.s
02E0: 80 1F 01 1F 00 74 80 75  80 76 80 1F 01 1E 4A 10  .....t.u.v....J.
02F0: 0F 01 00                                          ...             
```

#### Opcodes

```
  0: 0x02AE [0x32] ExtData[1]->MainSpeed = 45* * 0.1
  1: 0x02B1 [0x1F] MOVE_ENTITY: EventEntity moves to X=-602.454*, Z=588.333*, Y=0.247*
  2: 0x02B9 [0x1F] MOVE_ENTITY: Update entity position (mode=1)
  3: 0x02BB [0x1F] MOVE_ENTITY: EventEntity moves to X=-603.634*, Z=585.657*, Y=0.144*
  4: 0x02C3 [0x1F] MOVE_ENTITY: Update entity position (mode=1)
  5: 0x02C5 [0x1F] MOVE_ENTITY: EventEntity moves to X=-602.421*, Z=582.680*, Y=0.396*
  6: 0x02CD [0x1F] MOVE_ENTITY: Update entity position (mode=1)
  7: 0x02CF [0x1F] MOVE_ENTITY: EventEntity moves to X=-599.175*, Z=582.899*, Y=0.854*
  8: 0x02D7 [0x1F] MOVE_ENTITY: Update entity position (mode=1)
  9: 0x02D9 [0x1F] MOVE_ENTITY: EventEntity moves to X=-598.432*, Z=587.737*, Y=0.410*
 10: 0x02E1 [0x1F] MOVE_ENTITY: Update entity position (mode=1)
 11: 0x02E3 [0x1F] MOVE_ENTITY: EventEntity moves to X=-599.890*, Z=589.432*, Y=0.326*
 12: 0x02EB [0x1F] MOVE_ENTITY: Update entity position (mode=1)
 13: 0x02ED [0x1E] EventEntity looks at Unnamed NPC (ID: 17764426/0x010F104A) and starts talking
 14: 0x02F2 [0x00] END_REQSTACK()
```
