# 17764489 - Umumu

## Common Data

| Field            | Value                    |
|------------------|--------------------------|
| Zone             | Windurst Woods (ID: 241) |
| Block Size       | 548 bytes                |
| Total Events     | 13                       |
| References Count | 24                       |

## List of Events

| Event ID                 | Entrypoint   |   Size |   Instructions |
|--------------------------|--------------|--------|----------------|
| [65535](#event-65535)    | 0x0000       |      1 |              1 |
| [65535.1](#event-655351) | 0x0001       |     16 |              2 |
| [65535.2](#event-655352) | 0x0011       |     22 |              4 |
| [65535.3](#event-655353) | 0x0027       |      9 |              3 |
| [414](#event-414)        | 0x0030       |     40 |             13 |
| [381](#event-381)        | 0x0058       |     41 |             16 |
| [382](#event-382)        | 0x0081       |     33 |             12 |
| [383](#event-383)        | 0x00A2       |     33 |             12 |
| [385](#event-385)        | 0x00C3       |     33 |             12 |
| [386](#event-386)        | 0x00E4       |     33 |             12 |
| [390](#event-390)        | 0x0105       |     33 |             12 |
| [391](#event-391)        | 0x0126       |     33 |             12 |
| [731](#event-731)        | 0x0147       |     56 |             14 |

## DAT References (imed_data)

|   Index | Hex Value   |   Dec Value |
|---------|-------------|-------------|
|       0 | 0x0028      |          40 |
|       1 | 0x001E      |          30 |
|       2 | 0x2139      |        8505 |
|       3 | 0x213A      |        8506 |
|       4 | 0x20EB      |        8427 |
|       5 | 0x20EC      |        8428 |
|       6 | 0x20ED      |        8429 |
|       7 | 0x20EE      |        8430 |
|       8 | 0x20EF      |        8431 |
|       9 | 0x20F0      |        8432 |
|      10 | 0x20F1      |        8433 |
|      11 | 0x20F2      |        8434 |
|      12 | 0x20F5      |        8437 |
|      13 | 0x20F6      |        8438 |
|      14 | 0x20F7      |        8439 |
|      15 | 0x20F8      |        8440 |
|      16 | 0x20FD      |        8445 |
|      17 | 0x20FE      |        8446 |
|      18 | 0x20FF      |        8447 |
|      19 | 0x2100      |        8448 |
|      20 | 0x28B2      |       10418 |
|      21 | 0x28B3      |       10419 |
|      22 | 0x28B4      |       10420 |
|      23 | 0x28B5      |       10421 |

## String References

- **8427**: So...you've found me, huh? Yeah, I know, I know. Don't tell me--our editor, old Naiko-Paneiko, is all in a huff over wanting us to cough up our news scoops, rightaru?
- **8428**: Hmm... What should I do? You see, I have a great scoop, but haven't been able to confirm whether it is indeed true or notaru.
- **8429**: So I could let you just take it to him, but a good reporter should always double-check her sources, rightaru?
- **8430**: Say, perhaps you could check my story out, and go see if the facts match up before you submitaru it to him? Maybe you could also get a few other adventurers to help you out and serve as witnesses...?
- **8431**: To finish your job by confirming my news scoop, head into the depths of the eastern magic tower and find out whether the Cat Burglar's hideaway really does existaru there.
- **8432**: I don'taru suggest that you actually go inside her hideaway, as the Cat Burglar is bound to have dangerous traps and guards there. Just find the entrance to the place at the back of the Horutoto Ruins...then get the hell outta there!
- **8433**: I knew it! My sources were correctaru! Race on back to my editor with the scoop before someone else beats us to it!
- **8434**: This year's Pulitzer-Bulitzer Prize for journalism is in my pocket for sure! I'll make sure I thank you in my acceptance speech!
- **8437**: As I thoughtaru! I won this year's Pulitzer-Bulitzer Prize for journalism with my scoop on the Cat Burglar!
- **8438**: And it's all thanks to you for helping confirm that it was true. I really want to thank you more, but will this do...?
- **8439**: I can'taru wait to see our next exclusive issue.
- **8440**: My expos<Player>i will be the top story for sure. But I can'taru rest on my laurels. A good reporter has to keep following the truth, as no story ever really ends.
- **8445**: What do you mean, my scoop expos<Player>i has been stolen!?
- **8446**: That dirty, rotten, low-down Cat Burglar! She's made a preemptive strike so as not to be caught outaru. This is a cat-astrophe!
- **8447**: Looks like this week's edition of the Tarutaru Times's "Magic Paradise Weekly" is going to be canceled as well.
- **8448**: If I said it once, I've said it a thousand times... We should give up on using those silly magic dolls to deliver our stories. and go back to the tried and true method of newspapers and magazines! Our stories always end up never getting told.
- **8505**: Hmm...there's gotaru be some interesting stories floating around somewhere. Hey, you there, [mister/missy]...have you heard any juicy tidbits of information lately?
- **8506**: I was expecting there to be a fuss among the Mithra over who assumes the chieftainness's throne, but nah... I guess good stories don'taru come that easy.
- **10418**: <Player>'s badge flashes brightly.
- **10419**: This "Empire of Aht Urhgan" story is shaping up to be a big scoop! Then again, I still don'taru have enough information to write on it...
- **10420**: Anyway, it looks like they've haggled the price down on a bunch of decommissioned ships from Bastok to use in hauling mercenaries off to Aht Urhgan...
- **10421**: Those giantaru scraps of metal could sink any time, not to mention the scores of dangers awaiting on the open seas! The Near East obviously cares nothing for the mercenaries' lives.

## Events

### Event 65535

#### Metadata

| Field        | Value   |
|--------------|---------|
| Entrypoint   | 0x0000  |
| Data Size    | 1 bytes |
| Instructions | 1       |

```
      00 01 02 03 04 05 06 07  08 09 0A 0B 0C 0D 0E 0F
      -- -- -- -- -- -- -- --  -- -- -- -- -- -- -- --
0000: 00                                                .               
```

#### Opcodes

```
  0: 0x0000 [0x00] END_REQSTACK()
```

### Event 65535.1

#### Metadata

| Field        | Value    |
|--------------|----------|
| Entrypoint   | 0x0001   |
| Data Size    | 16 bytes |
| Instructions | 2        |

```
      00 01 02 03 04 05 06 07  08 09 0A 0B 0C 0D 0E 0F
      -- -- -- -- -- -- -- --  -- -- -- -- -- -- -- --
0000:    66 00 80 F8 FF FF 7F  F8 FF FF 7F 74 6C 6B 30   f..........tlk0
0010: 00                                                .               
```

#### Opcodes

```
  0: 0x0001 [0x66] LOAD_EXT_SCHEDULER_MAIN: Load scheduler "tlk0" with entities [EventEntity, EventEntity], work=40*
  1: 0x0010 [0x00] END_REQSTACK()
```

### Event 65535.2

#### Metadata

| Field        | Value    |
|--------------|----------|
| Entrypoint   | 0x0011   |
| Data Size    | 22 bytes |
| Instructions | 4        |

```
      00 01 02 03 04 05 06 07  08 09 0A 0B 0C 0D 0E 0F
      -- -- -- -- -- -- -- --  -- -- -- -- -- -- -- --
0010:    53 F8 FF FF 7F F8 FF  FF 7F 74 6C 6B 30 5E 69   S........tlk0^i
0020: 64 6C 30 1C 01 80 00                              dl0....         
```

#### Opcodes

```
  0: 0x0011 [0x53] WAIT_SCHEDULER_TASK: Wait for scheduler "tlk0" with entities [EventEntity, EventEntity]
  1: 0x001E [0x5E] EventEntity goes idle (kills current action) (animation: "idl0")
  2: 0x0023 [0x1C] WAIT(30* ticks)
  3: 0x0026 [0x00] END_REQSTACK()
```

### Event 65535.3

#### Metadata

| Field        | Value   |
|--------------|---------|
| Entrypoint   | 0x0027  |
| Data Size    | 9 bytes |
| Instructions | 3       |

```
      00 01 02 03 04 05 06 07  08 09 0A 0B 0C 0D 0E 0F
      -- -- -- -- -- -- -- --  -- -- -- -- -- -- -- --
0020:                      5E  69 64 6C 30 1C 01 80 00         ^idl0....
```

#### Opcodes

```
  0: 0x0027 [0x5E] EventEntity goes idle (kills current action) (animation: "idl0")
  1: 0x002C [0x1C] WAIT(30* ticks)
  2: 0x002F [0x00] END_REQSTACK()
```

### Event 414

#### Metadata

| Field        | Value    |
|--------------|----------|
| Entrypoint   | 0x0030   |
| Data Size    | 40 bytes |
| Instructions | 13       |

```
      00 01 02 03 04 05 06 07  08 09 0A 0B 0C 0D 0E 0F
      -- -- -- -- -- -- -- --  -- -- -- -- -- -- -- --
0030: 1E F0 FF FF 7F 6F 70 29  08 F0 FF FF 7F 04 29 08  .....op)......).
0040: 89 10 0F 01 01 1D 02 80  23 1D 03 80 23 29 08 89  ........#...#)..
0050: 10 0F 01 03 20 00 21 00                           .... .!.        
```

#### Opcodes

```
  0: 0x0030 [0x1E] EventEntity looks at LocalPlayer and starts talking
  1: 0x0035 [0x6F] WAIT_FRAME_DELAY: Yield until WaitTime reaches zero
  2: 0x0036 [0x70] WAIT_ENTITY_RENDER_FLAG: Wait while EventEntity->Render.Flags3 bit 2 is set (cancel turn if not)
  3: 0x0037 [0x29] REQ_SET_WAIT(priority=0x08, entity_id=LocalPlayer, tag_num=0x04)
  4: 0x003E [0x29] REQ_SET_WAIT(priority=0x08, entity_id=Umumu (ID: 17764489/0x010F1089), tag_num=0x01)
  5: 0x0045 [0x1D] PRINT_EVENT_MESSAGE(message_id=8505*)
    → "Hmm...there's gotaru be some interesting stories floating around somewhere. Hey, you there, [mister/missy]...have you heard any juicy tidbits of information lately?"
  6: 0x0048 [0x23] WAIT_FOR_DIALOG_INTERACTION
  7: 0x0049 [0x1D] PRINT_EVENT_MESSAGE(message_id=8506*)
    → "I was expecting there to be a fuss among the Mithra over who assumes the chieftainness's throne, but nah... I guess good stories don'taru come that easy."
  8: 0x004C [0x23] WAIT_FOR_DIALOG_INTERACTION
  9: 0x004D [0x29] REQ_SET_WAIT(priority=0x08, entity_id=Umumu (ID: 17764489/0x010F1089), tag_num=0x03)
 10: 0x0054 [0x20] SET_CLI_EVENT_UC_FLAG: Unlock player control
 11: 0x0056 [0x21] END_EVENT
 12: 0x0057 [0x00] END_REQSTACK()
```

### Event 381

#### Metadata

| Field        | Value    |
|--------------|----------|
| Entrypoint   | 0x0058   |
| Data Size    | 41 bytes |
| Instructions | 16       |

```
      00 01 02 03 04 05 06 07  08 09 0A 0B 0C 0D 0E 0F
      -- -- -- -- -- -- -- --  -- -- -- -- -- -- -- --
0050:                          1E F0 FF FF 7F 6F 70 29          .....op)
0060: 08 89 10 0F 01 01 1D 04  80 23 1D 05 80 23 1D 06  .........#...#..
0070: 80 23 1D 07 80 23 29 08  89 10 0F 01 03 20 00 21  .#...#)...... .!
0080: 00                                                .               
```

#### Opcodes

```
  0: 0x0058 [0x1E] EventEntity looks at LocalPlayer and starts talking
  1: 0x005D [0x6F] WAIT_FRAME_DELAY: Yield until WaitTime reaches zero
  2: 0x005E [0x70] WAIT_ENTITY_RENDER_FLAG: Wait while EventEntity->Render.Flags3 bit 2 is set (cancel turn if not)
  3: 0x005F [0x29] REQ_SET_WAIT(priority=0x08, entity_id=Umumu (ID: 17764489/0x010F1089), tag_num=0x01)
  4: 0x0066 [0x1D] PRINT_EVENT_MESSAGE(message_id=8427*)
    → "So...you've found me, huh? Yeah, I know, I know. Don't tell me--our editor, old Naiko-Paneiko, is all in a huff over wanting us to cough up our news scoops, rightaru?"
  5: 0x0069 [0x23] WAIT_FOR_DIALOG_INTERACTION
  6: 0x006A [0x1D] PRINT_EVENT_MESSAGE(message_id=8428*)
    → "Hmm... What should I do? You see, I have a great scoop, but haven't been able to confirm whether it is indeed true or notaru."
  7: 0x006D [0x23] WAIT_FOR_DIALOG_INTERACTION
  8: 0x006E [0x1D] PRINT_EVENT_MESSAGE(message_id=8429*)
    → "So I could let you just take it to him, but a good reporter should always double-check her sources, rightaru?"
  9: 0x0071 [0x23] WAIT_FOR_DIALOG_INTERACTION
 10: 0x0072 [0x1D] PRINT_EVENT_MESSAGE(message_id=8430*)
    → "Say, perhaps you could check my story out, and go see if the facts match up before you submitaru it to him? Maybe you could also get a few other adventurers to help you out and serve as witnesses...?"
 11: 0x0075 [0x23] WAIT_FOR_DIALOG_INTERACTION
 12: 0x0076 [0x29] REQ_SET_WAIT(priority=0x08, entity_id=Umumu (ID: 17764489/0x010F1089), tag_num=0x03)
 13: 0x007D [0x20] SET_CLI_EVENT_UC_FLAG: Unlock player control
 14: 0x007F [0x21] END_EVENT
 15: 0x0080 [0x00] END_REQSTACK()
```

### Event 382

#### Metadata

| Field        | Value    |
|--------------|----------|
| Entrypoint   | 0x0081   |
| Data Size    | 33 bytes |
| Instructions | 12       |

```
      00 01 02 03 04 05 06 07  08 09 0A 0B 0C 0D 0E 0F
      -- -- -- -- -- -- -- --  -- -- -- -- -- -- -- --
0080:    1E F0 FF FF 7F 6F 70  29 08 89 10 0F 01 01 1D   .....op).......
0090: 08 80 23 1D 09 80 23 29  08 89 10 0F 01 03 20 00  ..#...#)...... .
00A0: 21 00                                             !.              
```

#### Opcodes

```
  0: 0x0081 [0x1E] EventEntity looks at LocalPlayer and starts talking
  1: 0x0086 [0x6F] WAIT_FRAME_DELAY: Yield until WaitTime reaches zero
  2: 0x0087 [0x70] WAIT_ENTITY_RENDER_FLAG: Wait while EventEntity->Render.Flags3 bit 2 is set (cancel turn if not)
  3: 0x0088 [0x29] REQ_SET_WAIT(priority=0x08, entity_id=Umumu (ID: 17764489/0x010F1089), tag_num=0x01)
  4: 0x008F [0x1D] PRINT_EVENT_MESSAGE(message_id=8431*)
    → "To finish your job by confirming my news scoop, head into the depths of the eastern magic tower and find out whether the Cat Burglar's hideaway really does existaru there."
  5: 0x0092 [0x23] WAIT_FOR_DIALOG_INTERACTION
  6: 0x0093 [0x1D] PRINT_EVENT_MESSAGE(message_id=8432*)
    → "I don'taru suggest that you actually go inside her hideaway, as the Cat Burglar is bound to have dangerous traps and guards there. Just find the entrance to the place at the back of the Horutoto Ruins...then get the hell outta there!"
  7: 0x0096 [0x23] WAIT_FOR_DIALOG_INTERACTION
  8: 0x0097 [0x29] REQ_SET_WAIT(priority=0x08, entity_id=Umumu (ID: 17764489/0x010F1089), tag_num=0x03)
  9: 0x009E [0x20] SET_CLI_EVENT_UC_FLAG: Unlock player control
 10: 0x00A0 [0x21] END_EVENT
 11: 0x00A1 [0x00] END_REQSTACK()
```

### Event 383

#### Metadata

| Field        | Value    |
|--------------|----------|
| Entrypoint   | 0x00A2   |
| Data Size    | 33 bytes |
| Instructions | 12       |

```
      00 01 02 03 04 05 06 07  08 09 0A 0B 0C 0D 0E 0F
      -- -- -- -- -- -- -- --  -- -- -- -- -- -- -- --
00A0:       1E F0 FF FF 7F 6F  70 29 08 89 10 0F 01 01    .....op)......
00B0: 1D 0A 80 23 1D 0B 80 23  29 08 89 10 0F 01 03 20  ...#...#)...... 
00C0: 00 21 00                                          .!.             
```

#### Opcodes

```
  0: 0x00A2 [0x1E] EventEntity looks at LocalPlayer and starts talking
  1: 0x00A7 [0x6F] WAIT_FRAME_DELAY: Yield until WaitTime reaches zero
  2: 0x00A8 [0x70] WAIT_ENTITY_RENDER_FLAG: Wait while EventEntity->Render.Flags3 bit 2 is set (cancel turn if not)
  3: 0x00A9 [0x29] REQ_SET_WAIT(priority=0x08, entity_id=Umumu (ID: 17764489/0x010F1089), tag_num=0x01)
  4: 0x00B0 [0x1D] PRINT_EVENT_MESSAGE(message_id=8433*)
    → "I knew it! My sources were correctaru! Race on back to my editor with the scoop before someone else beats us to it!"
  5: 0x00B3 [0x23] WAIT_FOR_DIALOG_INTERACTION
  6: 0x00B4 [0x1D] PRINT_EVENT_MESSAGE(message_id=8434*)
    → "This year's Pulitzer-Bulitzer Prize for journalism is in my pocket for sure! I'll make sure I thank you in my acceptance speech!"
  7: 0x00B7 [0x23] WAIT_FOR_DIALOG_INTERACTION
  8: 0x00B8 [0x29] REQ_SET_WAIT(priority=0x08, entity_id=Umumu (ID: 17764489/0x010F1089), tag_num=0x03)
  9: 0x00BF [0x20] SET_CLI_EVENT_UC_FLAG: Unlock player control
 10: 0x00C1 [0x21] END_EVENT
 11: 0x00C2 [0x00] END_REQSTACK()
```

### Event 385

#### Metadata

| Field        | Value    |
|--------------|----------|
| Entrypoint   | 0x00C3   |
| Data Size    | 33 bytes |
| Instructions | 12       |

```
      00 01 02 03 04 05 06 07  08 09 0A 0B 0C 0D 0E 0F
      -- -- -- -- -- -- -- --  -- -- -- -- -- -- -- --
00C0:          1E F0 FF FF 7F  6F 70 29 08 89 10 0F 01     .....op).....
00D0: 01 1D 0C 80 23 1D 0D 80  23 29 08 89 10 0F 01 03  ....#...#)......
00E0: 20 00 21 00                                        .!.            
```

#### Opcodes

```
  0: 0x00C3 [0x1E] EventEntity looks at LocalPlayer and starts talking
  1: 0x00C8 [0x6F] WAIT_FRAME_DELAY: Yield until WaitTime reaches zero
  2: 0x00C9 [0x70] WAIT_ENTITY_RENDER_FLAG: Wait while EventEntity->Render.Flags3 bit 2 is set (cancel turn if not)
  3: 0x00CA [0x29] REQ_SET_WAIT(priority=0x08, entity_id=Umumu (ID: 17764489/0x010F1089), tag_num=0x01)
  4: 0x00D1 [0x1D] PRINT_EVENT_MESSAGE(message_id=8437*)
    → "As I thoughtaru! I won this year's Pulitzer-Bulitzer Prize for journalism with my scoop on the Cat Burglar!"
  5: 0x00D4 [0x23] WAIT_FOR_DIALOG_INTERACTION
  6: 0x00D5 [0x1D] PRINT_EVENT_MESSAGE(message_id=8438*)
    → "And it's all thanks to you for helping confirm that it was true. I really want to thank you more, but will this do...?"
  7: 0x00D8 [0x23] WAIT_FOR_DIALOG_INTERACTION
  8: 0x00D9 [0x29] REQ_SET_WAIT(priority=0x08, entity_id=Umumu (ID: 17764489/0x010F1089), tag_num=0x03)
  9: 0x00E0 [0x20] SET_CLI_EVENT_UC_FLAG: Unlock player control
 10: 0x00E2 [0x21] END_EVENT
 11: 0x00E3 [0x00] END_REQSTACK()
```

### Event 386

#### Metadata

| Field        | Value    |
|--------------|----------|
| Entrypoint   | 0x00E4   |
| Data Size    | 33 bytes |
| Instructions | 12       |

```
      00 01 02 03 04 05 06 07  08 09 0A 0B 0C 0D 0E 0F
      -- -- -- -- -- -- -- --  -- -- -- -- -- -- -- --
00E0:             1E F0 FF FF  7F 6F 70 29 08 89 10 0F      .....op)....
00F0: 01 01 1D 0E 80 23 1D 0F  80 23 29 08 89 10 0F 01  .....#...#).....
0100: 03 20 00 21 00                                    . .!.           
```

#### Opcodes

```
  0: 0x00E4 [0x1E] EventEntity looks at LocalPlayer and starts talking
  1: 0x00E9 [0x6F] WAIT_FRAME_DELAY: Yield until WaitTime reaches zero
  2: 0x00EA [0x70] WAIT_ENTITY_RENDER_FLAG: Wait while EventEntity->Render.Flags3 bit 2 is set (cancel turn if not)
  3: 0x00EB [0x29] REQ_SET_WAIT(priority=0x08, entity_id=Umumu (ID: 17764489/0x010F1089), tag_num=0x01)
  4: 0x00F2 [0x1D] PRINT_EVENT_MESSAGE(message_id=8439*)
    → "I can'taru wait to see our next exclusive issue."
  5: 0x00F5 [0x23] WAIT_FOR_DIALOG_INTERACTION
  6: 0x00F6 [0x1D] PRINT_EVENT_MESSAGE(message_id=8440*)
    → "My expos<Player>i will be the top story for sure. But I can'taru rest on my laurels. A good reporter has to keep following the truth, as no story ever really ends."
  7: 0x00F9 [0x23] WAIT_FOR_DIALOG_INTERACTION
  8: 0x00FA [0x29] REQ_SET_WAIT(priority=0x08, entity_id=Umumu (ID: 17764489/0x010F1089), tag_num=0x03)
  9: 0x0101 [0x20] SET_CLI_EVENT_UC_FLAG: Unlock player control
 10: 0x0103 [0x21] END_EVENT
 11: 0x0104 [0x00] END_REQSTACK()
```

### Event 390

#### Metadata

| Field        | Value    |
|--------------|----------|
| Entrypoint   | 0x0105   |
| Data Size    | 33 bytes |
| Instructions | 12       |

```
      00 01 02 03 04 05 06 07  08 09 0A 0B 0C 0D 0E 0F
      -- -- -- -- -- -- -- --  -- -- -- -- -- -- -- --
0100:                1E F0 FF  FF 7F 6F 70 29 08 89 10       .....op)...
0110: 0F 01 01 1D 10 80 23 1D  11 80 23 29 08 89 10 0F  ......#...#)....
0120: 01 03 20 00 21 00                                 .. .!.          
```

#### Opcodes

```
  0: 0x0105 [0x1E] EventEntity looks at LocalPlayer and starts talking
  1: 0x010A [0x6F] WAIT_FRAME_DELAY: Yield until WaitTime reaches zero
  2: 0x010B [0x70] WAIT_ENTITY_RENDER_FLAG: Wait while EventEntity->Render.Flags3 bit 2 is set (cancel turn if not)
  3: 0x010C [0x29] REQ_SET_WAIT(priority=0x08, entity_id=Umumu (ID: 17764489/0x010F1089), tag_num=0x01)
  4: 0x0113 [0x1D] PRINT_EVENT_MESSAGE(message_id=8445*)
    → "What do you mean, my scoop expos<Player>i has been stolen!?"
  5: 0x0116 [0x23] WAIT_FOR_DIALOG_INTERACTION
  6: 0x0117 [0x1D] PRINT_EVENT_MESSAGE(message_id=8446*)
    → "That dirty, rotten, low-down Cat Burglar! She's made a preemptive strike so as not to be caught outaru. This is a cat-astrophe!"
  7: 0x011A [0x23] WAIT_FOR_DIALOG_INTERACTION
  8: 0x011B [0x29] REQ_SET_WAIT(priority=0x08, entity_id=Umumu (ID: 17764489/0x010F1089), tag_num=0x03)
  9: 0x0122 [0x20] SET_CLI_EVENT_UC_FLAG: Unlock player control
 10: 0x0124 [0x21] END_EVENT
 11: 0x0125 [0x00] END_REQSTACK()
```

### Event 391

#### Metadata

| Field        | Value    |
|--------------|----------|
| Entrypoint   | 0x0126   |
| Data Size    | 33 bytes |
| Instructions | 12       |

```
      00 01 02 03 04 05 06 07  08 09 0A 0B 0C 0D 0E 0F
      -- -- -- -- -- -- -- --  -- -- -- -- -- -- -- --
0120:                   1E F0  FF FF 7F 6F 70 29 08 89        .....op)..
0130: 10 0F 01 01 1D 12 80 23  1D 13 80 23 29 08 89 10  .......#...#)...
0140: 0F 01 03 20 00 21 00                              ... .!.         
```

#### Opcodes

```
  0: 0x0126 [0x1E] EventEntity looks at LocalPlayer and starts talking
  1: 0x012B [0x6F] WAIT_FRAME_DELAY: Yield until WaitTime reaches zero
  2: 0x012C [0x70] WAIT_ENTITY_RENDER_FLAG: Wait while EventEntity->Render.Flags3 bit 2 is set (cancel turn if not)
  3: 0x012D [0x29] REQ_SET_WAIT(priority=0x08, entity_id=Umumu (ID: 17764489/0x010F1089), tag_num=0x01)
  4: 0x0134 [0x1D] PRINT_EVENT_MESSAGE(message_id=8447*)
    → "Looks like this week's edition of the Tarutaru Times's "Magic Paradise Weekly" is going to be canceled as well."
  5: 0x0137 [0x23] WAIT_FOR_DIALOG_INTERACTION
  6: 0x0138 [0x1D] PRINT_EVENT_MESSAGE(message_id=8448*)
    → "If I said it once, I've said it a thousand times... We should give up on using those silly magic dolls to deliver our stories. and go back to the tried and true method of newspapers and magazines! Our stories always end up never getting told."
  7: 0x013B [0x23] WAIT_FOR_DIALOG_INTERACTION
  8: 0x013C [0x29] REQ_SET_WAIT(priority=0x08, entity_id=Umumu (ID: 17764489/0x010F1089), tag_num=0x03)
  9: 0x0143 [0x20] SET_CLI_EVENT_UC_FLAG: Unlock player control
 10: 0x0145 [0x21] END_EVENT
 11: 0x0146 [0x00] END_REQSTACK()
```

### Event 731

#### Metadata

| Field        | Value    |
|--------------|----------|
| Entrypoint   | 0x0147   |
| Data Size    | 56 bytes |
| Instructions | 14       |

```
      00 01 02 03 04 05 06 07  08 09 0A 0B 0C 0D 0E 0F
      -- -- -- -- -- -- -- --  -- -- -- -- -- -- -- --
0140:                      42  48 14 80 1E F0 FF FF 7F         BH.......
0150: 1C 01 80 1D 15 80 23 66  00 80 F8 FF FF 7F F8 FF  ......#f........
0160: FF 7F 74 6C 6B 30 1D 16  80 23 1D 17 80 23 66 00  ..tlk0...#...#f.
0170: 80 F8 FF FF 7F F8 FF FF  7F 74 6C 6B 31 21 00     .........tlk1!. 
```

#### Opcodes

```
  0: 0x0147 [0x42] SET_CLI_EVENT_CANCEL_DATA()
  1: 0x0148 [0x48] [System] [10418*]:
    → "<Player>'s badge flashes brightly."
  2: 0x014B [0x1E] EventEntity looks at LocalPlayer and starts talking
  3: 0x0150 [0x1C] WAIT(30* ticks)
  4: 0x0153 [0x1D] PRINT_EVENT_MESSAGE(message_id=10419*)
    → "This "Empire of Aht Urhgan" story is shaping up to be a big scoop! Then again, I still don'taru have enough information to write on it..."
  5: 0x0156 [0x23] WAIT_FOR_DIALOG_INTERACTION
  6: 0x0157 [0x66] LOAD_EXT_SCHEDULER_MAIN: Load scheduler "tlk0" with entities [EventEntity, EventEntity], work=40*
  7: 0x0166 [0x1D] PRINT_EVENT_MESSAGE(message_id=10420*)
    → "Anyway, it looks like they've haggled the price down on a bunch of decommissioned ships from Bastok to use in hauling mercenaries off to Aht Urhgan..."
  8: 0x0169 [0x23] WAIT_FOR_DIALOG_INTERACTION
  9: 0x016A [0x1D] PRINT_EVENT_MESSAGE(message_id=10421*)
    → "Those giantaru scraps of metal could sink any time, not to mention the scores of dangers awaiting on the open seas! The Near East obviously cares nothing for the mercenaries' lives."
 10: 0x016D [0x23] WAIT_FOR_DIALOG_INTERACTION
 11: 0x016E [0x66] LOAD_EXT_SCHEDULER_MAIN: Load scheduler "tlk1" with entities [EventEntity, EventEntity], work=40*
 12: 0x017D [0x21] END_EVENT
 13: 0x017E [0x00] END_REQSTACK()
```
