# 17764472 - Kapeh Myohrye

## Common Data

| Field            | Value                    |
|------------------|--------------------------|
| Zone             | Windurst Woods (ID: 241) |
| Block Size       | 880 bytes                |
| Total Events     | 32                       |
| References Count | 49                       |

## List of Events

| Event ID                 | Entrypoint   |   Size |   Instructions |
|--------------------------|--------------|--------|----------------|
| [65535](#event-65535)    | 0x0000       |      1 |              1 |
| [340](#event-340)        | 0x0001       |     22 |             11 |
| [347](#event-347)        | 0x0017       |     22 |             11 |
| [350](#event-350)        | 0x002D       |     22 |             11 |
| [351](#event-351)        | 0x0043       |      1 |              1 |
| [357](#event-357)        | 0x0044       |      1 |              1 |
| [354](#event-354)        | 0x0045       |     26 |             13 |
| [355](#event-355)        | 0x005F       |     22 |             11 |
| [360](#event-360)        | 0x0075       |     19 |             10 |
| [527](#event-527)        | 0x0088       |      6 |              2 |
| [523](#event-523)        | 0x008E       |      1 |              1 |
| [526](#event-526)        | 0x008F       |     22 |             11 |
| [530](#event-530)        | 0x00A5       |     22 |             11 |
| [531](#event-531)        | 0x00BB       |      1 |              1 |
| [537](#event-537)        | 0x00BC       |      1 |              1 |
| [535](#event-535)        | 0x00BD       |      1 |              1 |
| [534](#event-534)        | 0x00BE       |     22 |             11 |
| [540](#event-540)        | 0x00D4       |     22 |             11 |
| [541](#event-541)        | 0x00EA       |      1 |              1 |
| [546](#event-546)        | 0x00EB       |      1 |              1 |
| [65535.1](#event-655351) | 0x00EC       |     10 |              2 |
| [544](#event-544)        | 0x00F6       |     22 |             11 |
| [549](#event-549)        | 0x010C       |     22 |             11 |
| [640](#event-640)        | 0x0122       |     22 |             11 |
| [644](#event-644)        | 0x0138       |     22 |             11 |
| [661](#event-661)        | 0x014E       |      1 |              1 |
| [664](#event-664)        | 0x014F       |      1 |              1 |
| [666](#event-666)        | 0x0150       |      1 |              1 |
| [686](#event-686)        | 0x0151       |      7 |              2 |
| [65535.2](#event-655352) | 0x0158       |    158 |             38 |
| [65535.3](#event-655353) | 0x01F6       |     34 |              4 |
| [869](#event-869)        | 0x0218       |      1 |              1 |

## DAT References (imed_data)

|   Index | Hex Value   |   Dec Value |
|---------|-------------|-------------|
|       0 | 0x203E      |        8254 |
|       1 | 0x203F      |        8255 |
|       2 | 0x204C      |        8268 |
|       3 | 0x204D      |        8269 |
|       4 | 0x2052      |        8274 |
|       5 | 0x2053      |        8275 |
|       6 | 0x205E      |        8286 |
|       7 | 0x205F      |        8287 |
|       8 | 0x2060      |        8288 |
|       9 | 0x2061      |        8289 |
|      10 | 0x2062      |        8290 |
|      11 | 0x206C      |        8300 |
|      12 | 0x206D      |        8301 |
|      13 | 0x22DC      |        8924 |
|      14 | 0x22DD      |        8925 |
|      15 | 0x22FB      |        8955 |
|      16 | 0x22FC      |        8956 |
|      17 | 0x245B      |        9307 |
|      18 | 0x245C      |        9308 |
|      19 | 0x247A      |        9338 |
|      20 | 0x247B      |        9339 |
|      21 | 0x1C3A4     |      115620 |
|      22 | 0x18B0D     |      101133 |
|      23 | 0xFFFFF15B  |  4294963547 |
|      24 | 0x0400      |        1024 |
|      25 | 0x248F      |        9359 |
|      26 | 0x2490      |        9360 |
|      27 | 0x24B0      |        9392 |
|      28 | 0x24B1      |        9393 |
|      29 | 0x25D3      |        9683 |
|      30 | 0x25D4      |        9684 |
|      31 | 0x25F9      |        9721 |
|      32 | 0x25FA      |        9722 |
|      33 | 0x1BF44     |      114500 |
|      34 | 0x16F30     |       94000 |
|      35 | 0x0180      |         384 |
|      36 | 0x0001      |           1 |
|      37 | 0x0000      |           0 |
|      38 | 0x2E60      |       11872 |
|      39 | 0x001E      |          30 |
|      40 | 0x0002      |           2 |
|      41 | 0x2E76      |       11894 |
|      42 | 0x0032      |          50 |
|      43 | 0x2E77      |       11895 |
|      44 | 0x2E78      |       11896 |
|      45 | 0x2E8D      |       11917 |
|      46 | 0x2E8E      |       11918 |
|      47 | 0x0034      |          52 |
|      48 | 0x003C      |          60 |

## String References

- **8254**: Have you everrr thought about how the food you eat each day arrives on your plate?
- **8255**: Yes. When we die, we too will be eaten by someone or something. In the end, we all returrrn to the earth to serve as nutrients for otherrr living things.
- **8268**: What we fearrr is about to happen is by no means certain. However, if our worst fears come to pass, then we will need a strong chieftainness who can rrraise the lands and lead our arrrmies.
- **8269**: We cannot ask this of our elderrrly chieftainness. Will we need to select a new leaderrr even while our current chieftainness still lives...?
- **8274**: No one is willing to say it out loud, but we all feel that something is about to occurrr.
- **8275**: It was exactly the same twenty years ago. There was a grrreat sense of loss back then, as if some grrrand presence had suddenly disappeared. But what was it that was lost?
- **8286**: What is it you want to learrrn from us, the people of nature?
- **8287**: While you say you want to leave some legacy for the futurrre, you plunderrr whatever you can here and now.
- **8288**: If you stopped for a moment and thought, you would rrrealize that at this rate you will have nothing left to give yourrr descendants.
- **8289**: Those who say they want to leave some legacy for the future, while plunderrring whatever they can here and now, live contrary to nature.
- **8290**: If they stopped for a moment and thought, they would rrrealize that at this rate they will have nothing left to give theirrr descendants.
- **8300**: There are no meaningless lives in this worrrld, yet there are a great numberrr of meaningless deaths.
- **8301**: Never forrrget, fanged one... Never forrrget the sinfulness and folly of causing an unnecessary death.
- **8924**: For Mithra, there are three laws that are inviolate.
- **8925**: The Mithran Tracker is the one who brings judgment for those sins. The family who perpetrated the sin is extinguished from the land, from the sky, from time itself.
- **8955**: For Mithra, there are three laws that are inviolate.
- **8956**: No matter how far we roam from the homeland, we cannot escape these laws. For those who break the laws of nature, only oblivion awaits.
- **9307**: There is little point in asking those of us who rrremember. We do not talk about it willingly.
- **9308**: We are of the trrribe to the south. The events that trrranspired among us at that time are taboo. That is all I can tell you.
- **9338**: The Bow of Light belongs to the Fire Tribe of the south. The arrows fired from that bow are said to be so powerrrful and so destrrructive, no enemy can stand before them.
- **9339**: But no matter how powerrrful a weapon is, our chieftainness would not take up that bow. Its use would contrrradict the code of the ranger.
- **9359**: The Mithran Tracker is unwavering in her search for the Bow of Light.
- **9360**: But, no matter how she tries to sway us, we will not betrrray our chieftainness. We have sworn to obey the chieftainness in all things.
- **9392**: We know what the chieftainness felt when she gave up her child for the sake of rrreturning the Bow of Light to its rrrightful place.
- **9393**: She had to abandon her rrrole as a mother in order to fulfil her duties as a chieftainness, and as a ranger. I wonder if Semih Lafihna understands this?
- **9683**: Several of our units are already concealed near the Yagudo strrronghold.
- **9684**: As soon as the enemy makes its move, we'll go straight for the thrrroat. I can almost see the panicked faces of those Yagudo wrrretches.
- **9721**: After the Great War, the Star Sibyl kept the truth of events from Chieftainness Perih Vashai.
- **9722**: Considering the nature of Tarutaru, this is not altogether an unusual occurrence. But considering how we fought and died beside them for this land, I can't help but feel betrrrayed.
- **11872**: Ask if this person is the chick's owner? [Yes./No.]
- **11894**: You've got my chocobo?
- **11895**: I've taught the little guy beforehand what to do if he meets up with a monster, so I was prrretty sure he'd be okay, but I was still a little worried.
- **11896**: Thanks for finding him. Let me thank you by teaching you a story your chocobo might like...
- **11917**: You say you've got my chocobo?
- **11918**: A rrranger like me would never lose sight of her chocobo!

## Events

### Event 65535

#### Metadata

| Field        | Value   |
|--------------|---------|
| Entrypoint   | 0x0000  |
| Data Size    | 1 bytes |
| Instructions | 1       |

```
      00 01 02 03 04 05 06 07  08 09 0A 0B 0C 0D 0E 0F
      -- -- -- -- -- -- -- --  -- -- -- -- -- -- -- --
0000: 00                                                .               
```

#### Opcodes

```
  0: 0x0000 [0x00] END_REQSTACK()
```

### Event 340

#### Metadata

| Field        | Value    |
|--------------|----------|
| Entrypoint   | 0x0001   |
| Data Size    | 22 bytes |
| Instructions | 11       |

```
      00 01 02 03 04 05 06 07  08 09 0A 0B 0C 0D 0E 0F
      -- -- -- -- -- -- -- --  -- -- -- -- -- -- -- --
0000:    1E F0 FF FF 7F 6F 70  1D 00 80 23 1D 01 80 23   .....op...#...#
0010: 1A 62 01 20 00 21 00                              .b. .!.         
```

#### Opcodes

```
  0: 0x0001 [0x1E] EventEntity looks at LocalPlayer and starts talking
  1: 0x0006 [0x6F] WAIT_FRAME_DELAY: Yield until WaitTime reaches zero
  2: 0x0007 [0x70] WAIT_ENTITY_RENDER_FLAG: Wait while EventEntity->Render.Flags3 bit 2 is set (cancel turn if not)
  3: 0x0008 [0x1D] PRINT_EVENT_MESSAGE(message_id=8254*)
    → "Have you everrr thought about how the food you eat each day arrives on your plate?"
  4: 0x000B [0x23] WAIT_FOR_DIALOG_INTERACTION
  5: 0x000C [0x1D] PRINT_EVENT_MESSAGE(message_id=8255*)
    → "Yes. When we die, we too will be eaten by someone or something. In the end, we all returrrn to the earth to serve as nutrients for otherrr living things."
  6: 0x000F [0x23] WAIT_FOR_DIALOG_INTERACTION
  7: 0x0010 [0x1A] CALL_SUBROUTINE(address=0x0162)
  8: 0x0013 [0x20] SET_CLI_EVENT_UC_FLAG: Unlock player control
  9: 0x0015 [0x21] END_EVENT
 10: 0x0016 [0x00] END_REQSTACK()
```

### Event 347

#### Metadata

| Field        | Value    |
|--------------|----------|
| Entrypoint   | 0x0017   |
| Data Size    | 22 bytes |
| Instructions | 11       |

```
      00 01 02 03 04 05 06 07  08 09 0A 0B 0C 0D 0E 0F
      -- -- -- -- -- -- -- --  -- -- -- -- -- -- -- --
0010:                      1E  F0 FF FF 7F 6F 70 1D 02         .....op..
0020: 80 23 1D 03 80 23 1A 62  01 20 00 21 00           .#...#.b. .!.   
```

#### Opcodes

```
  0: 0x0017 [0x1E] EventEntity looks at LocalPlayer and starts talking
  1: 0x001C [0x6F] WAIT_FRAME_DELAY: Yield until WaitTime reaches zero
  2: 0x001D [0x70] WAIT_ENTITY_RENDER_FLAG: Wait while EventEntity->Render.Flags3 bit 2 is set (cancel turn if not)
  3: 0x001E [0x1D] PRINT_EVENT_MESSAGE(message_id=8268*)
    → "What we fearrr is about to happen is by no means certain. However, if our worst fears come to pass, then we will need a strong chieftainness who can rrraise the lands and lead our arrrmies."
  4: 0x0021 [0x23] WAIT_FOR_DIALOG_INTERACTION
  5: 0x0022 [0x1D] PRINT_EVENT_MESSAGE(message_id=8269*)
    → "We cannot ask this of our elderrrly chieftainness. Will we need to select a new leaderrr even while our current chieftainness still lives...?"
  6: 0x0025 [0x23] WAIT_FOR_DIALOG_INTERACTION
  7: 0x0026 [0x1A] CALL_SUBROUTINE(address=0x0162)
  8: 0x0029 [0x20] SET_CLI_EVENT_UC_FLAG: Unlock player control
  9: 0x002B [0x21] END_EVENT
 10: 0x002C [0x00] END_REQSTACK()
```

### Event 350

#### Metadata

| Field        | Value    |
|--------------|----------|
| Entrypoint   | 0x002D   |
| Data Size    | 22 bytes |
| Instructions | 11       |

```
      00 01 02 03 04 05 06 07  08 09 0A 0B 0C 0D 0E 0F
      -- -- -- -- -- -- -- --  -- -- -- -- -- -- -- --
0020:                                         1E F0 FF               ...
0030: FF 7F 6F 70 1D 04 80 23  1D 05 80 23 1A 62 01 20  ..op...#...#.b. 
0040: 00 21 00                                          .!.             
```

#### Opcodes

```
  0: 0x002D [0x1E] EventEntity looks at LocalPlayer and starts talking
  1: 0x0032 [0x6F] WAIT_FRAME_DELAY: Yield until WaitTime reaches zero
  2: 0x0033 [0x70] WAIT_ENTITY_RENDER_FLAG: Wait while EventEntity->Render.Flags3 bit 2 is set (cancel turn if not)
  3: 0x0034 [0x1D] PRINT_EVENT_MESSAGE(message_id=8274*)
    → "No one is willing to say it out loud, but we all feel that something is about to occurrr."
  4: 0x0037 [0x23] WAIT_FOR_DIALOG_INTERACTION
  5: 0x0038 [0x1D] PRINT_EVENT_MESSAGE(message_id=8275*)
    → "It was exactly the same twenty years ago. There was a grrreat sense of loss back then, as if some grrrand presence had suddenly disappeared. But what was it that was lost?"
  6: 0x003B [0x23] WAIT_FOR_DIALOG_INTERACTION
  7: 0x003C [0x1A] CALL_SUBROUTINE(address=0x0162)
  8: 0x003F [0x20] SET_CLI_EVENT_UC_FLAG: Unlock player control
  9: 0x0041 [0x21] END_EVENT
 10: 0x0042 [0x00] END_REQSTACK()
```

### Event 351

#### Metadata

| Field        | Value   |
|--------------|---------|
| Entrypoint   | 0x0043  |
| Data Size    | 1 bytes |
| Instructions | 1       |

```
      00 01 02 03 04 05 06 07  08 09 0A 0B 0C 0D 0E 0F
      -- -- -- -- -- -- -- --  -- -- -- -- -- -- -- --
0040:          00                                          .            
```

#### Opcodes

```
  0: 0x0043 [0x00] END_REQSTACK()
```

### Event 357

#### Metadata

| Field        | Value   |
|--------------|---------|
| Entrypoint   | 0x0044  |
| Data Size    | 1 bytes |
| Instructions | 1       |

```
      00 01 02 03 04 05 06 07  08 09 0A 0B 0C 0D 0E 0F
      -- -- -- -- -- -- -- --  -- -- -- -- -- -- -- --
0040:             00                                        .           
```

#### Opcodes

```
  0: 0x0044 [0x00] END_REQSTACK()
```

### Event 354

#### Metadata

| Field        | Value    |
|--------------|----------|
| Entrypoint   | 0x0045   |
| Data Size    | 26 bytes |
| Instructions | 13       |

```
      00 01 02 03 04 05 06 07  08 09 0A 0B 0C 0D 0E 0F
      -- -- -- -- -- -- -- --  -- -- -- -- -- -- -- --
0040:                1E F0 FF  FF 7F 6F 70 1D 06 80 23       .....op...#
0050: 1D 07 80 23 1D 08 80 23  1A 62 01 20 00 21 00     ...#...#.b. .!. 
```

#### Opcodes

```
  0: 0x0045 [0x1E] EventEntity looks at LocalPlayer and starts talking
  1: 0x004A [0x6F] WAIT_FRAME_DELAY: Yield until WaitTime reaches zero
  2: 0x004B [0x70] WAIT_ENTITY_RENDER_FLAG: Wait while EventEntity->Render.Flags3 bit 2 is set (cancel turn if not)
  3: 0x004C [0x1D] PRINT_EVENT_MESSAGE(message_id=8286*)
    → "What is it you want to learrrn from us, the people of nature?"
  4: 0x004F [0x23] WAIT_FOR_DIALOG_INTERACTION
  5: 0x0050 [0x1D] PRINT_EVENT_MESSAGE(message_id=8287*)
    → "While you say you want to leave some legacy for the futurrre, you plunderrr whatever you can here and now."
  6: 0x0053 [0x23] WAIT_FOR_DIALOG_INTERACTION
  7: 0x0054 [0x1D] PRINT_EVENT_MESSAGE(message_id=8288*)
    → "If you stopped for a moment and thought, you would rrrealize that at this rate you will have nothing left to give yourrr descendants."
  8: 0x0057 [0x23] WAIT_FOR_DIALOG_INTERACTION
  9: 0x0058 [0x1A] CALL_SUBROUTINE(address=0x0162)
 10: 0x005B [0x20] SET_CLI_EVENT_UC_FLAG: Unlock player control
 11: 0x005D [0x21] END_EVENT
 12: 0x005E [0x00] END_REQSTACK()
```

### Event 355

#### Metadata

| Field        | Value    |
|--------------|----------|
| Entrypoint   | 0x005F   |
| Data Size    | 22 bytes |
| Instructions | 11       |

```
      00 01 02 03 04 05 06 07  08 09 0A 0B 0C 0D 0E 0F
      -- -- -- -- -- -- -- --  -- -- -- -- -- -- -- --
0050:                                               1E                 .
0060: F0 FF FF 7F 6F 70 1D 09  80 23 1D 0A 80 23 1A 62  ....op...#...#.b
0070: 01 20 00 21 00                                    . .!.           
```

#### Opcodes

```
  0: 0x005F [0x1E] EventEntity looks at LocalPlayer and starts talking
  1: 0x0064 [0x6F] WAIT_FRAME_DELAY: Yield until WaitTime reaches zero
  2: 0x0065 [0x70] WAIT_ENTITY_RENDER_FLAG: Wait while EventEntity->Render.Flags3 bit 2 is set (cancel turn if not)
  3: 0x0066 [0x1D] PRINT_EVENT_MESSAGE(message_id=8289*)
    → "Those who say they want to leave some legacy for the future, while plunderrring whatever they can here and now, live contrary to nature."
  4: 0x0069 [0x23] WAIT_FOR_DIALOG_INTERACTION
  5: 0x006A [0x1D] PRINT_EVENT_MESSAGE(message_id=8290*)
    → "If they stopped for a moment and thought, they would rrrealize that at this rate they will have nothing left to give theirrr descendants."
  6: 0x006D [0x23] WAIT_FOR_DIALOG_INTERACTION
  7: 0x006E [0x1A] CALL_SUBROUTINE(address=0x0162)
  8: 0x0071 [0x20] SET_CLI_EVENT_UC_FLAG: Unlock player control
  9: 0x0073 [0x21] END_EVENT
 10: 0x0074 [0x00] END_REQSTACK()
```

### Event 360

#### Metadata

| Field        | Value    |
|--------------|----------|
| Entrypoint   | 0x0075   |
| Data Size    | 19 bytes |
| Instructions | 10       |

```
      00 01 02 03 04 05 06 07  08 09 0A 0B 0C 0D 0E 0F
      -- -- -- -- -- -- -- --  -- -- -- -- -- -- -- --
0070:                1E F0 FF  FF 7F 6F 70 1D 0B 80 23       .....op...#
0080: 1D 0C 80 23 20 00 21 00                           ...# .!.        
```

#### Opcodes

```
  0: 0x0075 [0x1E] EventEntity looks at LocalPlayer and starts talking
  1: 0x007A [0x6F] WAIT_FRAME_DELAY: Yield until WaitTime reaches zero
  2: 0x007B [0x70] WAIT_ENTITY_RENDER_FLAG: Wait while EventEntity->Render.Flags3 bit 2 is set (cancel turn if not)
  3: 0x007C [0x1D] PRINT_EVENT_MESSAGE(message_id=8300*)
    → "There are no meaningless lives in this worrrld, yet there are a great numberrr of meaningless deaths."
  4: 0x007F [0x23] WAIT_FOR_DIALOG_INTERACTION
  5: 0x0080 [0x1D] PRINT_EVENT_MESSAGE(message_id=8301*)
    → "Never forrrget, fanged one... Never forrrget the sinfulness and folly of causing an unnecessary death."
  6: 0x0083 [0x23] WAIT_FOR_DIALOG_INTERACTION
  7: 0x0084 [0x20] SET_CLI_EVENT_UC_FLAG: Unlock player control
  8: 0x0086 [0x21] END_EVENT
  9: 0x0087 [0x00] END_REQSTACK()
```

### Event 527

#### Metadata

| Field        | Value   |
|--------------|---------|
| Entrypoint   | 0x0088  |
| Data Size    | 6 bytes |
| Instructions | 2       |

```
      00 01 02 03 04 05 06 07  08 09 0A 0B 0C 0D 0E 0F
      -- -- -- -- -- -- -- --  -- -- -- -- -- -- -- --
0080:                          1E 76 10 0F 01 00                .v....  
```

#### Opcodes

```
  0: 0x0088 [0x1E] EventEntity looks at Perih Vashai (ID: 17764470/0x010F1076) and starts talking
  1: 0x008D [0x00] END_REQSTACK()
```

### Event 523

#### Metadata

| Field        | Value   |
|--------------|---------|
| Entrypoint   | 0x008E  |
| Data Size    | 1 bytes |
| Instructions | 1       |

```
      00 01 02 03 04 05 06 07  08 09 0A 0B 0C 0D 0E 0F
      -- -- -- -- -- -- -- --  -- -- -- -- -- -- -- --
0080:                                            00                   . 
```

#### Opcodes

```
  0: 0x008E [0x00] END_REQSTACK()
```

### Event 526

#### Metadata

| Field        | Value    |
|--------------|----------|
| Entrypoint   | 0x008F   |
| Data Size    | 22 bytes |
| Instructions | 11       |

```
      00 01 02 03 04 05 06 07  08 09 0A 0B 0C 0D 0E 0F
      -- -- -- -- -- -- -- --  -- -- -- -- -- -- -- --
0080:                                               1E                 .
0090: F0 FF FF 7F 6F 70 1D 0D  80 23 1D 0E 80 23 1A 62  ....op...#...#.b
00A0: 01 20 00 21 00                                    . .!.           
```

#### Opcodes

```
  0: 0x008F [0x1E] EventEntity looks at LocalPlayer and starts talking
  1: 0x0094 [0x6F] WAIT_FRAME_DELAY: Yield until WaitTime reaches zero
  2: 0x0095 [0x70] WAIT_ENTITY_RENDER_FLAG: Wait while EventEntity->Render.Flags3 bit 2 is set (cancel turn if not)
  3: 0x0096 [0x1D] PRINT_EVENT_MESSAGE(message_id=8924*)
    → "For Mithra, there are three laws that are inviolate."
  4: 0x0099 [0x23] WAIT_FOR_DIALOG_INTERACTION
  5: 0x009A [0x1D] PRINT_EVENT_MESSAGE(message_id=8925*)
    → "The Mithran Tracker is the one who brings judgment for those sins. The family who perpetrated the sin is extinguished from the land, from the sky, from time itself."
  6: 0x009D [0x23] WAIT_FOR_DIALOG_INTERACTION
  7: 0x009E [0x1A] CALL_SUBROUTINE(address=0x0162)
  8: 0x00A1 [0x20] SET_CLI_EVENT_UC_FLAG: Unlock player control
  9: 0x00A3 [0x21] END_EVENT
 10: 0x00A4 [0x00] END_REQSTACK()
```

### Event 530

#### Metadata

| Field        | Value    |
|--------------|----------|
| Entrypoint   | 0x00A5   |
| Data Size    | 22 bytes |
| Instructions | 11       |

```
      00 01 02 03 04 05 06 07  08 09 0A 0B 0C 0D 0E 0F
      -- -- -- -- -- -- -- --  -- -- -- -- -- -- -- --
00A0:                1E F0 FF  FF 7F 6F 70 1D 0F 80 23       .....op...#
00B0: 1D 10 80 23 1A 62 01 20  00 21 00                 ...#.b. .!.     
```

#### Opcodes

```
  0: 0x00A5 [0x1E] EventEntity looks at LocalPlayer and starts talking
  1: 0x00AA [0x6F] WAIT_FRAME_DELAY: Yield until WaitTime reaches zero
  2: 0x00AB [0x70] WAIT_ENTITY_RENDER_FLAG: Wait while EventEntity->Render.Flags3 bit 2 is set (cancel turn if not)
  3: 0x00AC [0x1D] PRINT_EVENT_MESSAGE(message_id=8955*)
    → "For Mithra, there are three laws that are inviolate."
  4: 0x00AF [0x23] WAIT_FOR_DIALOG_INTERACTION
  5: 0x00B0 [0x1D] PRINT_EVENT_MESSAGE(message_id=8956*)
    → "No matter how far we roam from the homeland, we cannot escape these laws. For those who break the laws of nature, only oblivion awaits."
  6: 0x00B3 [0x23] WAIT_FOR_DIALOG_INTERACTION
  7: 0x00B4 [0x1A] CALL_SUBROUTINE(address=0x0162)
  8: 0x00B7 [0x20] SET_CLI_EVENT_UC_FLAG: Unlock player control
  9: 0x00B9 [0x21] END_EVENT
 10: 0x00BA [0x00] END_REQSTACK()
```

### Event 531

#### Metadata

| Field        | Value   |
|--------------|---------|
| Entrypoint   | 0x00BB  |
| Data Size    | 1 bytes |
| Instructions | 1       |

```
      00 01 02 03 04 05 06 07  08 09 0A 0B 0C 0D 0E 0F
      -- -- -- -- -- -- -- --  -- -- -- -- -- -- -- --
00B0:                                   00                         .    
```

#### Opcodes

```
  0: 0x00BB [0x00] END_REQSTACK()
```

### Event 537

#### Metadata

| Field        | Value   |
|--------------|---------|
| Entrypoint   | 0x00BC  |
| Data Size    | 1 bytes |
| Instructions | 1       |

```
      00 01 02 03 04 05 06 07  08 09 0A 0B 0C 0D 0E 0F
      -- -- -- -- -- -- -- --  -- -- -- -- -- -- -- --
00B0:                                      00                       .   
```

#### Opcodes

```
  0: 0x00BC [0x00] END_REQSTACK()
```

### Event 535

#### Metadata

| Field        | Value   |
|--------------|---------|
| Entrypoint   | 0x00BD  |
| Data Size    | 1 bytes |
| Instructions | 1       |

```
      00 01 02 03 04 05 06 07  08 09 0A 0B 0C 0D 0E 0F
      -- -- -- -- -- -- -- --  -- -- -- -- -- -- -- --
00B0:                                         00                     .  
```

#### Opcodes

```
  0: 0x00BD [0x00] END_REQSTACK()
```

### Event 534

#### Metadata

| Field        | Value    |
|--------------|----------|
| Entrypoint   | 0x00BE   |
| Data Size    | 22 bytes |
| Instructions | 11       |

```
      00 01 02 03 04 05 06 07  08 09 0A 0B 0C 0D 0E 0F
      -- -- -- -- -- -- -- --  -- -- -- -- -- -- -- --
00B0:                                            1E F0                ..
00C0: FF FF 7F 6F 70 1D 11 80  23 1D 12 80 23 1A 62 01  ...op...#...#.b.
00D0: 20 00 21 00                                        .!.            
```

#### Opcodes

```
  0: 0x00BE [0x1E] EventEntity looks at LocalPlayer and starts talking
  1: 0x00C3 [0x6F] WAIT_FRAME_DELAY: Yield until WaitTime reaches zero
  2: 0x00C4 [0x70] WAIT_ENTITY_RENDER_FLAG: Wait while EventEntity->Render.Flags3 bit 2 is set (cancel turn if not)
  3: 0x00C5 [0x1D] PRINT_EVENT_MESSAGE(message_id=9307*)
    → "There is little point in asking those of us who rrremember. We do not talk about it willingly."
  4: 0x00C8 [0x23] WAIT_FOR_DIALOG_INTERACTION
  5: 0x00C9 [0x1D] PRINT_EVENT_MESSAGE(message_id=9308*)
    → "We are of the trrribe to the south. The events that trrranspired among us at that time are taboo. That is all I can tell you."
  6: 0x00CC [0x23] WAIT_FOR_DIALOG_INTERACTION
  7: 0x00CD [0x1A] CALL_SUBROUTINE(address=0x0162)
  8: 0x00D0 [0x20] SET_CLI_EVENT_UC_FLAG: Unlock player control
  9: 0x00D2 [0x21] END_EVENT
 10: 0x00D3 [0x00] END_REQSTACK()
```

### Event 540

#### Metadata

| Field        | Value    |
|--------------|----------|
| Entrypoint   | 0x00D4   |
| Data Size    | 22 bytes |
| Instructions | 11       |

```
      00 01 02 03 04 05 06 07  08 09 0A 0B 0C 0D 0E 0F
      -- -- -- -- -- -- -- --  -- -- -- -- -- -- -- --
00D0:             1E F0 FF FF  7F 6F 70 1D 13 80 23 1D      .....op...#.
00E0: 14 80 23 1A 62 01 20 00  21 00                    ..#.b. .!.      
```

#### Opcodes

```
  0: 0x00D4 [0x1E] EventEntity looks at LocalPlayer and starts talking
  1: 0x00D9 [0x6F] WAIT_FRAME_DELAY: Yield until WaitTime reaches zero
  2: 0x00DA [0x70] WAIT_ENTITY_RENDER_FLAG: Wait while EventEntity->Render.Flags3 bit 2 is set (cancel turn if not)
  3: 0x00DB [0x1D] PRINT_EVENT_MESSAGE(message_id=9338*)
    → "The Bow of Light belongs to the Fire Tribe of the south. The arrows fired from that bow are said to be so powerrrful and so destrrructive, no enemy can stand before them."
  4: 0x00DE [0x23] WAIT_FOR_DIALOG_INTERACTION
  5: 0x00DF [0x1D] PRINT_EVENT_MESSAGE(message_id=9339*)
    → "But no matter how powerrrful a weapon is, our chieftainness would not take up that bow. Its use would contrrradict the code of the ranger."
  6: 0x00E2 [0x23] WAIT_FOR_DIALOG_INTERACTION
  7: 0x00E3 [0x1A] CALL_SUBROUTINE(address=0x0162)
  8: 0x00E6 [0x20] SET_CLI_EVENT_UC_FLAG: Unlock player control
  9: 0x00E8 [0x21] END_EVENT
 10: 0x00E9 [0x00] END_REQSTACK()
```

### Event 541

#### Metadata

| Field        | Value   |
|--------------|---------|
| Entrypoint   | 0x00EA  |
| Data Size    | 1 bytes |
| Instructions | 1       |

```
      00 01 02 03 04 05 06 07  08 09 0A 0B 0C 0D 0E 0F
      -- -- -- -- -- -- -- --  -- -- -- -- -- -- -- --
00E0:                                00                           .     
```

#### Opcodes

```
  0: 0x00EA [0x00] END_REQSTACK()
```

### Event 546

#### Metadata

| Field        | Value   |
|--------------|---------|
| Entrypoint   | 0x00EB  |
| Data Size    | 1 bytes |
| Instructions | 1       |

```
      00 01 02 03 04 05 06 07  08 09 0A 0B 0C 0D 0E 0F
      -- -- -- -- -- -- -- --  -- -- -- -- -- -- -- --
00E0:                                   00                         .    
```

#### Opcodes

```
  0: 0x00EB [0x00] END_REQSTACK()
```

### Event 65535.1

#### Metadata

| Field        | Value    |
|--------------|----------|
| Entrypoint   | 0x00EC   |
| Data Size    | 10 bytes |
| Instructions | 2        |

```
      00 01 02 03 04 05 06 07  08 09 0A 0B 0C 0D 0E 0F
      -- -- -- -- -- -- -- --  -- -- -- -- -- -- -- --
00E0:                                      37 15 80 16              7...
00F0: 80 17 80 18 80 00                                 ......          
```

#### Opcodes

```
  0: 0x00EC [0x37] UPDATE_EVENT_POSITION_AND_DIR: x=115.620*, z=101.133*, y=-3.749*, direction=90.0°*
  1: 0x00F5 [0x00] END_REQSTACK()
```

### Event 544

#### Metadata

| Field        | Value    |
|--------------|----------|
| Entrypoint   | 0x00F6   |
| Data Size    | 22 bytes |
| Instructions | 11       |

```
      00 01 02 03 04 05 06 07  08 09 0A 0B 0C 0D 0E 0F
      -- -- -- -- -- -- -- --  -- -- -- -- -- -- -- --
00F0:                   1E F0  FF FF 7F 6F 70 1D 19 80        .....op...
0100: 23 1D 1A 80 23 1A 62 01  20 00 21 00              #...#.b. .!.    
```

#### Opcodes

```
  0: 0x00F6 [0x1E] EventEntity looks at LocalPlayer and starts talking
  1: 0x00FB [0x6F] WAIT_FRAME_DELAY: Yield until WaitTime reaches zero
  2: 0x00FC [0x70] WAIT_ENTITY_RENDER_FLAG: Wait while EventEntity->Render.Flags3 bit 2 is set (cancel turn if not)
  3: 0x00FD [0x1D] PRINT_EVENT_MESSAGE(message_id=9359*)
    → "The Mithran Tracker is unwavering in her search for the Bow of Light."
  4: 0x0100 [0x23] WAIT_FOR_DIALOG_INTERACTION
  5: 0x0101 [0x1D] PRINT_EVENT_MESSAGE(message_id=9360*)
    → "But, no matter how she tries to sway us, we will not betrrray our chieftainness. We have sworn to obey the chieftainness in all things."
  6: 0x0104 [0x23] WAIT_FOR_DIALOG_INTERACTION
  7: 0x0105 [0x1A] CALL_SUBROUTINE(address=0x0162)
  8: 0x0108 [0x20] SET_CLI_EVENT_UC_FLAG: Unlock player control
  9: 0x010A [0x21] END_EVENT
 10: 0x010B [0x00] END_REQSTACK()
```

### Event 549

#### Metadata

| Field        | Value    |
|--------------|----------|
| Entrypoint   | 0x010C   |
| Data Size    | 22 bytes |
| Instructions | 11       |

```
      00 01 02 03 04 05 06 07  08 09 0A 0B 0C 0D 0E 0F
      -- -- -- -- -- -- -- --  -- -- -- -- -- -- -- --
0100:                                      1E F0 FF FF              ....
0110: 7F 6F 70 1D 1B 80 23 1D  1C 80 23 1A 62 01 20 00  .op...#...#.b. .
0120: 21 00                                             !.              
```

#### Opcodes

```
  0: 0x010C [0x1E] EventEntity looks at LocalPlayer and starts talking
  1: 0x0111 [0x6F] WAIT_FRAME_DELAY: Yield until WaitTime reaches zero
  2: 0x0112 [0x70] WAIT_ENTITY_RENDER_FLAG: Wait while EventEntity->Render.Flags3 bit 2 is set (cancel turn if not)
  3: 0x0113 [0x1D] PRINT_EVENT_MESSAGE(message_id=9392*)
    → "We know what the chieftainness felt when she gave up her child for the sake of rrreturning the Bow of Light to its rrrightful place."
  4: 0x0116 [0x23] WAIT_FOR_DIALOG_INTERACTION
  5: 0x0117 [0x1D] PRINT_EVENT_MESSAGE(message_id=9393*)
    → "She had to abandon her rrrole as a mother in order to fulfil her duties as a chieftainness, and as a ranger. I wonder if Semih Lafihna understands this?"
  6: 0x011A [0x23] WAIT_FOR_DIALOG_INTERACTION
  7: 0x011B [0x1A] CALL_SUBROUTINE(address=0x0162)
  8: 0x011E [0x20] SET_CLI_EVENT_UC_FLAG: Unlock player control
  9: 0x0120 [0x21] END_EVENT
 10: 0x0121 [0x00] END_REQSTACK()
```

### Event 640

#### Metadata

| Field        | Value    |
|--------------|----------|
| Entrypoint   | 0x0122   |
| Data Size    | 22 bytes |
| Instructions | 11       |

```
      00 01 02 03 04 05 06 07  08 09 0A 0B 0C 0D 0E 0F
      -- -- -- -- -- -- -- --  -- -- -- -- -- -- -- --
0120:       1E F0 FF FF 7F 6F  70 1D 1D 80 23 1D 1E 80    .....op...#...
0130: 23 1A 62 01 20 00 21 00                           #.b. .!.        
```

#### Opcodes

```
  0: 0x0122 [0x1E] EventEntity looks at LocalPlayer and starts talking
  1: 0x0127 [0x6F] WAIT_FRAME_DELAY: Yield until WaitTime reaches zero
  2: 0x0128 [0x70] WAIT_ENTITY_RENDER_FLAG: Wait while EventEntity->Render.Flags3 bit 2 is set (cancel turn if not)
  3: 0x0129 [0x1D] PRINT_EVENT_MESSAGE(message_id=9683*)
    → "Several of our units are already concealed near the Yagudo strrronghold."
  4: 0x012C [0x23] WAIT_FOR_DIALOG_INTERACTION
  5: 0x012D [0x1D] PRINT_EVENT_MESSAGE(message_id=9684*)
    → "As soon as the enemy makes its move, we'll go straight for the thrrroat. I can almost see the panicked faces of those Yagudo wrrretches."
  6: 0x0130 [0x23] WAIT_FOR_DIALOG_INTERACTION
  7: 0x0131 [0x1A] CALL_SUBROUTINE(address=0x0162)
  8: 0x0134 [0x20] SET_CLI_EVENT_UC_FLAG: Unlock player control
  9: 0x0136 [0x21] END_EVENT
 10: 0x0137 [0x00] END_REQSTACK()
```

### Event 644

#### Metadata

| Field        | Value    |
|--------------|----------|
| Entrypoint   | 0x0138   |
| Data Size    | 22 bytes |
| Instructions | 11       |

```
      00 01 02 03 04 05 06 07  08 09 0A 0B 0C 0D 0E 0F
      -- -- -- -- -- -- -- --  -- -- -- -- -- -- -- --
0130:                          1E F0 FF FF 7F 6F 70 1D          .....op.
0140: 1F 80 23 1D 20 80 23 1A  62 01 20 00 21 00        ..#. .#.b. .!.  
```

#### Opcodes

```
  0: 0x0138 [0x1E] EventEntity looks at LocalPlayer and starts talking
  1: 0x013D [0x6F] WAIT_FRAME_DELAY: Yield until WaitTime reaches zero
  2: 0x013E [0x70] WAIT_ENTITY_RENDER_FLAG: Wait while EventEntity->Render.Flags3 bit 2 is set (cancel turn if not)
  3: 0x013F [0x1D] PRINT_EVENT_MESSAGE(message_id=9721*)
    → "After the Great War, the Star Sibyl kept the truth of events from Chieftainness Perih Vashai."
  4: 0x0142 [0x23] WAIT_FOR_DIALOG_INTERACTION
  5: 0x0143 [0x1D] PRINT_EVENT_MESSAGE(message_id=9722*)
    → "Considering the nature of Tarutaru, this is not altogether an unusual occurrence. But considering how we fought and died beside them for this land, I can't help but feel betrrrayed."
  6: 0x0146 [0x23] WAIT_FOR_DIALOG_INTERACTION
  7: 0x0147 [0x1A] CALL_SUBROUTINE(address=0x0162)
  8: 0x014A [0x20] SET_CLI_EVENT_UC_FLAG: Unlock player control
  9: 0x014C [0x21] END_EVENT
 10: 0x014D [0x00] END_REQSTACK()
```

### Event 661

#### Metadata

| Field        | Value   |
|--------------|---------|
| Entrypoint   | 0x014E  |
| Data Size    | 1 bytes |
| Instructions | 1       |

```
      00 01 02 03 04 05 06 07  08 09 0A 0B 0C 0D 0E 0F
      -- -- -- -- -- -- -- --  -- -- -- -- -- -- -- --
0140:                                            00                   . 
```

#### Opcodes

```
  0: 0x014E [0x00] END_REQSTACK()
```

### Event 664

#### Metadata

| Field        | Value   |
|--------------|---------|
| Entrypoint   | 0x014F  |
| Data Size    | 1 bytes |
| Instructions | 1       |

```
      00 01 02 03 04 05 06 07  08 09 0A 0B 0C 0D 0E 0F
      -- -- -- -- -- -- -- --  -- -- -- -- -- -- -- --
0140:                                               00                 .
```

#### Opcodes

```
  0: 0x014F [0x00] END_REQSTACK()
```

### Event 666

#### Metadata

| Field        | Value   |
|--------------|---------|
| Entrypoint   | 0x0150  |
| Data Size    | 1 bytes |
| Instructions | 1       |

```
      00 01 02 03 04 05 06 07  08 09 0A 0B 0C 0D 0E 0F
      -- -- -- -- -- -- -- --  -- -- -- -- -- -- -- --
0150: 00                                                .               
```

#### Opcodes

```
  0: 0x0150 [0x00] END_REQSTACK()
```

### Event 686

#### Metadata

| Field        | Value   |
|--------------|---------|
| Entrypoint   | 0x0151  |
| Data Size    | 7 bytes |
| Instructions | 2       |

```
      00 01 02 03 04 05 06 07  08 09 0A 0B 0C 0D 0E 0F
      -- -- -- -- -- -- -- --  -- -- -- -- -- -- -- --
0150:    94 01 F8 FF FF 7F 00                            .......        
```

#### Opcodes

```
  0: 0x0151 [0x94] EventEntity->Render.Flags3 ^= 0x01
  1: 0x0157 [0x00] END_REQSTACK()
```

### Event 65535.2

#### Metadata

| Field        | Value     |
|--------------|-----------|
| Entrypoint   | 0x0158    |
| Data Size    | 158 bytes |
| Instructions | 2         |

```
      00 01 02 03 04 05 06 07  08 09 0A 0B 0C 0D 0E 0F
      -- -- -- -- -- -- -- --  -- -- -- -- -- -- -- --
0150:                          37 21 80 22 80 17 80 23          7!."...#
0160: 80 00 03 01 10 24 80 43  00 43 01 02 03 10 25 80  .....$.C.C....%.
0170: 00 7B 01 03 01 10 25 80  01 F4 01 42 24 26 80 24  .{....%....B$&.$
0180: 80 25 80 25 02 00 10 25  80 00 E4 01 1E F0 FF FF  .%.%...%........
0190: 7F 1C 27 80 03 01 10 28  80 43 00 43 01 02 03 10  ..'....(.C.C....
01A0: 24 80 00 D2 01 1D 29 80  23 66 2A 80 F8 FF FF 7F  $.....).#f*.....
01B0: F8 FF FF 7F 74 6C 6B 30  1D 2B 80 23 66 2A 80 F8  ....tlk0.+.#f*..
01C0: FF FF 7F F8 FF FF 7F 74  6C 6B 32 1D 2C 80 23 01  .......tlk2.,.#.
01D0: E1 01 1D 2D 80 23 27 05  78 10 0F 01 1E 1D 2E 80  ...-.#'.x.......
01E0: 23 01 F4 01 02 00 10 24  80 00 F4 01 03 01 10 25  #......$.......%
01F0: 80 01 F4 01 21 00                                 ....!.          
```

#### Opcodes

```
  0: 0x0158 [0x37] UPDATE_EVENT_POSITION_AND_DIR: x=114.500*, z=94.000*, y=-3.749*, direction=33.7°*
  1: 0x0161 [0x00] END_REQSTACK()
```

#### Data or dead code:

```
# Dead code (unreachable instructions):
     0x0162 [0x03] Work_Zone[1] = 1*
     0x0167 [0x43] SEND_EVENT_UPDATE: Send pending tag to server (packet 0x005B)
     0x0169 [0x43] SEND_EVENT_UPDATE: Check pending flag (skip if not pending)
     0x016B [0x02] IF !(Work_Zone[3] == 0*) GOTO 0x017B
     0x0173 [0x03] Work_Zone[1] = 0*
     0x0178 [0x01] GOTO 0x01F4
     0x017B [0x42] SET_CLI_EVENT_CANCEL_DATA()
     0x017C [0x24] CREATE_DIALOG(message_id=11872*, default_option=1*, option_flags=0*)
    → "Ask if this person is the chick's owner? [Yes./No.]"
     0x0183 [0x25] WAIT_DIALOG_SELECT()
     0x0184 [0x02] IF !(Work_Zone[0] == 0*) GOTO 0x01E4
     0x018C [0x1E] EventEntity looks at LocalPlayer and starts talking
     0x0191 [0x1C] WAIT(30* ticks)
     0x0194 [0x03] Work_Zone[1] = 2*
     0x0199 [0x43] SEND_EVENT_UPDATE: Send pending tag to server (packet 0x005B)
     0x019B [0x43] SEND_EVENT_UPDATE: Check pending flag (skip if not pending)
     0x019D [0x02] IF !(Work_Zone[3] == 1*) GOTO 0x01D2
     0x01A5 [0x1D] PRINT_EVENT_MESSAGE(message_id=11894*)
    → "You've got my chocobo?"
     0x01A8 [0x23] WAIT_FOR_DIALOG_INTERACTION
     0x01A9 [0x66] LOAD_EXT_SCHEDULER_MAIN: Load scheduler "tlk0" with entities [EventEntity, EventEntity], work=50*
     0x01B8 [0x1D] PRINT_EVENT_MESSAGE(message_id=11895*)
    → "I've taught the little guy beforehand what to do if he meets up with a monster, so I was prrretty sure he'd be okay, but I was still a little worried."
     0x01BB [0x23] WAIT_FOR_DIALOG_INTERACTION
     0x01BC [0x66] LOAD_EXT_SCHEDULER_MAIN: Load scheduler "tlk2" with entities [EventEntity, EventEntity], work=50*
     0x01CB [0x1D] PRINT_EVENT_MESSAGE(message_id=11896*)
    → "Thanks for finding him. Let me thank you by teaching you a story your chocobo might like..."
     0x01CE [0x23] WAIT_FOR_DIALOG_INTERACTION
     0x01CF [0x01] GOTO 0x01E1
     0x01D2 [0x1D] PRINT_EVENT_MESSAGE(message_id=11917*)
    → "You say you've got my chocobo?"
     0x01D5 [0x23] WAIT_FOR_DIALOG_INTERACTION
     0x01D6 [0x27] REQ_SET(priority=0x05, entity_id=Kapeh Myohrye (ID: 17764472/0x010F1078), tag_num=0x1E)
     0x01DD [0x1D] PRINT_EVENT_MESSAGE(message_id=11918*)
    → "A rrranger like me would never lose sight of her chocobo!"
     0x01E0 [0x23] WAIT_FOR_DIALOG_INTERACTION
     0x01E1 [0x01] GOTO 0x01F4
     0x01E4 [0x02] IF !(Work_Zone[0] == 1*) GOTO 0x01F4
     0x01EC [0x03] Work_Zone[1] = 0*
     0x01F1 [0x01] GOTO 0x01F4
     0x01F4 [0x21] END_EVENT
     0x01F5 [0x00] END_REQSTACK()
```

### Event 65535.3

#### Metadata

| Field        | Value    |
|--------------|----------|
| Entrypoint   | 0x01F6   |
| Data Size    | 34 bytes |
| Instructions | 4        |

```
      00 01 02 03 04 05 06 07  08 09 0A 0B 0C 0D 0E 0F
      -- -- -- -- -- -- -- --  -- -- -- -- -- -- -- --
01F0:                   66 2F  80 F8 FF FF 7F F8 FF FF        f/........
0200: 7F 74 6C 63 30 1C 30 80  66 2F 80 F8 FF FF 7F F8  .tlc0.0.f/......
0210: FF FF 7F 74 6C 63 31 00                           ...tlc1.        
```

#### Opcodes

```
  0: 0x01F6 [0x66] LOAD_EXT_SCHEDULER_MAIN: Load scheduler "tlc0" with entities [EventEntity, EventEntity], work=52*
  1: 0x0205 [0x1C] WAIT(60* ticks)
  2: 0x0208 [0x66] LOAD_EXT_SCHEDULER_MAIN: Load scheduler "tlc1" with entities [EventEntity, EventEntity], work=52*
  3: 0x0217 [0x00] END_REQSTACK()
```

### Event 869

#### Metadata

| Field        | Value   |
|--------------|---------|
| Entrypoint   | 0x0218  |
| Data Size    | 1 bytes |
| Instructions | 1       |

```
      00 01 02 03 04 05 06 07  08 09 0A 0B 0C 0D 0E 0F
      -- -- -- -- -- -- -- --  -- -- -- -- -- -- -- --
0210:                          00                               .       
```

#### Opcodes

```
  0: 0x0218 [0x00] END_REQSTACK()
```
