# 17764589 - Tesch Garanjy

## Common Data

| Field            | Value                    |
|------------------|--------------------------|
| Zone             | Windurst Woods (ID: 241) |
| Block Size       | 1192 bytes               |
| Total Events     | 3                        |
| References Count | 48                       |

## List of Events

| Event ID              | Entrypoint   |   Size |   Instructions |
|-----------------------|--------------|--------|----------------|
| [65535](#event-65535) | 0x0000       |      1 |              1 |
| [10028](#event-10028) | 0x0001       |    934 |            212 |
| [10027](#event-10027) | 0x03A7       |     37 |             12 |

## DAT References (imed_data)

|   Index | Hex Value   |   Dec Value |
|---------|-------------|-------------|
|       0 | 0x0000      |           0 |
|       1 | 0x2752      |       10066 |
|       2 | 0x2753      |       10067 |
|       3 | 0x2754      |       10068 |
|       4 | 0x0002      |           2 |
|       5 | 0x0001      |           1 |
|       6 | 0x2755      |       10069 |
|       7 | 0x2756      |       10070 |
|       8 | 0x40000000  |  1073741824 |
|       9 | 0x0003      |           3 |
|      10 | 0x0004      |           4 |
|      11 | 0x0005      |           5 |
|      12 | 0x003C      |          60 |
|      13 | 0x003A      |          58 |
|      14 | 0x0036      |          54 |
|      15 | 0x002E      |          46 |
|      16 | 0x001E      |          30 |
|      17 | 0x2759      |       10073 |
|      18 | 0x275A      |       10074 |
|      19 | 0x000F      |          15 |
|      20 | 0x275B      |       10075 |
|      21 | 0x0013      |          19 |
|      22 | 0x0059      |          89 |
|      23 | 0x001B      |          27 |
|      24 | 0x275C      |       10076 |
|      25 | 0x0009      |           9 |
|      26 | 0x000D      |          13 |
|      27 | 0x000E      |          14 |
|      28 | 0x002D      |          45 |
|      29 | 0x0014      |          20 |
|      30 | 0x2762      |       10082 |
|      31 | 0x0010      |          16 |
|      32 | 0x003B      |          59 |
|      33 | 0x002C      |          44 |
|      34 | 0x2769      |       10089 |
|      35 | 0x003E      |          62 |
|      36 | 0x0044      |          68 |
|      37 | 0x2760      |       10080 |
|      38 | 0x275E      |       10078 |
|      39 | 0x275F      |       10079 |
|      40 | 0x275D      |       10077 |
|      41 | 0x2761      |       10081 |
|      42 | 0x2765      |       10085 |
|      43 | 0x2763      |       10083 |
|      44 | 0x2764      |       10084 |
|      45 | 0xFFFFFFFF  |  4294967295 |
|      46 | 0x2767      |       10087 |
|      47 | 0x2766      |       10086 |

## String References

- **10066**: Hello, [sir/ma'am]. Have you ever found yourself throwing away items because your Mog Safe is overflowing with dusty sets of armor collected on your many adventures? My colleagues and I have heard the cries of our fellow adventurers and joined together to aid all those in need.
- **10067**: Trade me a full set, and for a small fee (payable on pickup) we will hold on to it, all the while protecting it from thieves, moths, and any/all acts of god and/or goddess.
- **10068**: Please be forewarned that we cannot store any high-quality equipment, and that the signatures on any pieces of collected armor will be lost.
- **10069**: How may I be of service today?
- **10070**: What to do... [Nothing./View list of storable armor sets./Have stored armor returned.]
- **10073**: [View which set?/Remove which set from storage?] [None./Level 24\`30 armor./Level 31\`40 armor./Level 41\`50 armor./Artifact armor/High level gear./Relic armor.]
- **10074**: [View which set?/Remove which set?] [None./Iron Chainmail./Shade Harness./Brass Scale Armor./Wool Robe./Eisenplatte Armor./Soil Gi./Seer's Tunic./Studded Armor./Centurion's Scale Mail./Mercenary Captain's Doublet./Garish Tunic./Noct Doublet.]
- **10075**: [View which set?/Remove which set?] [None./Custom Armor (Hume Male)./Custom Armor (Hume Female)./Magna Armor (Elvaan Male)./Magna Armor (Elvaan Female)./Wonder Armor (Tarutaru)./Savage Armor (Mithra)./Elder Armor (Galka)./Linen Cloak./Padded Armor./Silver Chainmail./Gambison./Iron Scale Armor./Cuir Armor./Velvet Robe./Opaline Dress./Royal Squire's Chainmail./Plate Armor./Combat Caster's Cloak./Argent Attire.]
- **10076**: [View which set?/Remove which set?] [None./Alumine Haubert./Carapace Armor./Banded Mail./Hara-Ate./Raptor Armor./Steel Scale Armor./Wool Gambison./Shinobi Gi./Mythril Plate Armor./Iron Musketeer's Cuirass./Tactician Magician's Cloak./White Cloak./Austere Robe./Crow Jupon.]
- **10077**: This set is comprised of the following items: #, $1, $2, $3, and $4.
- **10078**: This set is comprised of the following items: $1, $2, $3, and $4.
- **10079**: This set is comprised of the following items: #, $1, $3, and $4.
- **10080**: This set is comprised of the following items: $1, and $3.
- **10081**: A storage fee of $5 gil will be required upon pickup of this particular set.
- **10082**: [View which set?/Remove which set?] [None at this time./Fighter's Armor./Temple Attire./Healer's Attire./Wizard's Attire./Warlock's Armor./Rogue's Attire./Gallant Armor./Chaos Armor./Beast Armor./Choral Attire./Hunter's Attire./Myochin Armor./Ninja Garb./Drachen Armor./Evoker's Attire./Magus Attire./Corsair's Attire./Puppetry Attire./Dancer's Attire./Dancer's Attire./Scholar's Attire./Amir Armor Set./Pahluwan Armor Set./Yigit Armor Set.]
- **10083**: The storage fee for your armor comes to $5 gil.
- **10084**: Do you wish to pay the fee? [Not at this time./Yes.]
- **10085**: I am sorry, [sir/ma'am]. $5 gil is required before we can return your armor.
- **10086**: Very well, [sir/ma'am]. When you wish to have your armor returned, remember to present this claim slip along with the $5-gil storage fee at any of our five convenient pickup locations around Vana'diel.
- **10087**: Regulations do not allow adventurers to store more than one set of the same armor.
- **10089**: [View which set?/Remove which set?] [None at this time./Warrior's Armor./Melee Attire./Cleric's Attire./Sorcerer's Attire./Duelist's Armor./Assassin's Attire./Valor Armor./Abyss Armor./Monster Armor./Bard's Attire./Scout's Attire./Saotome Armor./Koga Garb./Wyrm Armor./Summoner's Attire./Mirage Attire./Commodore Attire./Pantin Attire./Etoile Attire./Argute Attire.]

## Events

### Event 65535

#### Metadata

| Field        | Value   |
|--------------|---------|
| Entrypoint   | 0x0000  |
| Data Size    | 1 bytes |
| Instructions | 1       |

```
      00 01 02 03 04 05 06 07  08 09 0A 0B 0C 0D 0E 0F
      -- -- -- -- -- -- -- --  -- -- -- -- -- -- -- --
0000: 00                                                .               
```

#### Opcodes

```
  0: 0x0000 [0x00] END_REQSTACK()
```

### Event 10028

#### Metadata

| Field        | Value     |
|--------------|-----------|
| Entrypoint   | 0x0001    |
| Data Size    | 934 bytes |
| Instructions | 157       |

```
      00 01 02 03 04 05 06 07  08 09 0A 0B 0C 0D 0E 0F
      -- -- -- -- -- -- -- --  -- -- -- -- -- -- -- --
0000:    1E F0 FF FF 7F 03 00  00 02 10 03 01 00 03 10   ...............
0010: 03 02 00 04 10 03 03 00  05 10 03 04 00 07 10 03  ................
0020: 05 00 06 10 06 06 00 02  00 00 00 80 00 62 00 02  .............b..
0030: 01 00 00 80 00 62 00 02  02 00 00 80 00 62 00 02  .....b.......b..
0040: 03 00 00 80 00 62 00 02  04 00 00 80 00 62 00 1D  .....b.......b..
0050: 01 80 23 1D 02 80 23 1D  03 80 23 3C 06 00 04 80  ..#...#...#<....
0060: 05 80 1D 06 80 23 24 07  80 00 80 06 00 25 02 00  .....#$......%..
0070: 10 00 80 00 80 00 03 01  10 08 80 21 00 01 28 01  ...........!..(.
0080: 02 00 10 05 80 00 93 00  06 06 00 03 09 10 00 80  ................
0090: 01 28 01 02 00 10 04 80  00 28 01 03 09 10 05 80  .(.......(......
00A0: 06 06 00 02 00 00 00 80  00 B2 00 3C 06 00 05 80  ...........<....
00B0: 05 80 02 01 00 00 80 00  C1 00 3C 06 00 04 80 05  ..........<.....
00C0: 80 02 02 00 00 80 00 D0  00 3C 06 00 09 80 05 80  .........<......
00D0: 02 03 00 00 80 00 DF 00  3C 06 00 0A 80 05 80 02  ........<.......
00E0: 04 00 00 80 00 EE 00 3C  06 00 0B 80 05 80 02 06  .......<........
00F0: 00 0C 80 00 F9 00 01 4A  01 02 06 00 0D 80 00 04  .......J........
0100: 01 01 8F 01 02 06 00 0E  80 00 0F 01 01 E4 01 02  ................
0110: 06 00 0F 80 00 1A 01 01  4C 02 02 06 00 10 80 00  ........L.......
0120: 25 01 01 C2 02 01 28 01  24 11 80 00 80 06 00 25  %.....(.$......%
0130: 02 00 10 00 80 00 42 01  03 01 10 08 80 21 00 01  ......B......!..
0140: 0F 03 02 00 10 05 80 00  87 01 02 09 10 00 80 00  ................
0150: 58 01 06 06 00 01 60 01  03 06 00 00 00 1A 95 03  X.....`.........
0160: 24 12 80 00 80 06 00 25  02 00 10 00 80 00 7A 01  $......%......z.
0170: 03 01 10 08 80 21 00 01  7A 01 03 01 10 00 10 07  .....!..z.......
0180: 01 10 13 80 01 0F 03 02  00 10 04 80 00 DC 01 02  ................
0190: 09 10 00 80 00 9D 01 06  06 00 01 A5 01 03 06 00  ................
01A0: 01 00 1A 95 03 24 14 80  00 80 06 00 25 02 00 10  .....$......%...
01B0: 00 80 00 BF 01 03 01 10  08 80 21 00 01 BF 01 02  ..........!.....
01C0: 00 10 15 80 00 CF 01 03  01 10 16 80 01 D9 01 03  ................
01D0: 01 10 00 10 07 01 10 17  80 01 0F 03 02 00 10 09  ................
01E0: 80 00 44 02 02 09 10 00  80 00 F2 01 06 06 00 01  ..D.............
01F0: FA 01 03 06 00 02 00 1A  95 03 24 18 80 00 80 06  ..........$.....
0200: 00 25 02 00 10 00 80 00  14 02 03 01 10 08 80 21  .%.............!
0210: 00 01 14 02 03 01 10 00  10 02 01 10 19 80 00 29  ...............)
0220: 02 03 01 10 1A 80 01 3C  02 02 01 10 19 80 02 3C  .......<.......<
0230: 02 02 01 10 1B 80 03 3C  02 0C 01 10 07 01 10 1C  .......<........
0240: 80 01 0F 03 02 00 10 0A  80 00 BA 02 02 09 10 00  ................
0250: 80 00 73 02 06 06 00 02  8B 7F 00 80 00 69 02 3C  ..s..........i.<
0260: 06 00 15 80 05 80 01 70  02 3C 06 00 1D 80 05 80  .......p.<......
0270: 01 7B 02 03 06 00 03 00  1A 95 03 24 1E 80 00 80  .{.........$....
0280: 06 00 25 02 00 10 00 80  00 95 02 03 01 10 08 80  ..%.............
0290: 21 00 01 95 02 03 01 10  00 10 02 01 10 1F 80 04  !...............
02A0: B7 02 02 01 10 15 80 04  B2 02 07 01 10 20 80 01  ............. ..
02B0: B7 02 07 01 10 21 80 01  0F 03 02 00 10 0B 80 00  .....!..........
02C0: 0F 03 02 09 10 00 80 00  D0 02 06 06 00 01 D8 02  ................
02D0: 03 06 00 04 00 1A 95 03  24 22 80 00 80 06 00 25  ........$".....%
02E0: 02 00 10 00 80 00 F2 02  03 01 10 08 80 21 00 01  .............!..
02F0: F2 02 03 01 10 00 10 02  00 10 1F 80 03 07 03 07  ................
0300: 01 10 23 80 01 0C 03 07  01 10 24 80 01 0F 03 42  ..#.......$....B
0310: 02 09 10 00 80 00 5B 03  43 00 43 01 02 02 10 00  ......[.C.C.....
0320: 80 00 3A 03 02 04 10 00  80 00 33 03 1D 25 80 23  ..:.......3..%.#
0330: 01 37 03 1D 26 80 23 01  4D 03 02 04 10 00 80 00  .7..&.#.M.......
0340: 49 03 1D 27 80 23 01 4D  03 1D 28 80 23 1D 29 80  I..'.#.M..(.#.).
0350: 23 03 01 10 08 80 21 00  01 93 03 43 00 43 01 02  #.....!....C.C..
0360: 05 00 07 10 03 75 03 1D  2A 80 23 03 01 10 08 80  .....u..*.#.....
0370: 21 00 01 93 03 1D 2B 80  23 24 2C 80 00 80 00 80  !.....+.#$,.....
0380: 25 02 00 10 00 80 00 93  03 03 01 10 08 80 21 00  %.............!.
0390: 01 93 03 21 00 10 06 00  05 80 0F 06 00 2D 80 3D  ...!.........-.=
03A0: 06 00 00 80 05 80 1B                              .......         
```

#### Opcodes

```
  0: 0x0001 [0x1E] EventEntity looks at LocalPlayer and starts talking
  1: 0x0006 [0x03] ExtData[1]->WorkLocal[0] = Work_Zone[2]
  2: 0x000B [0x03] ExtData[1]->WorkLocal[1] = Work_Zone[3]
  3: 0x0010 [0x03] ExtData[1]->WorkLocal[2] = Work_Zone[4]
  4: 0x0015 [0x03] ExtData[1]->WorkLocal[3] = Work_Zone[5]
  5: 0x001A [0x03] ExtData[1]->WorkLocal[4] = Work_Zone[7]
  6: 0x001F [0x03] ExtData[1]->WorkLocal[5] = Work_Zone[6]
  7: 0x0024 [0x06] ExtData[1]->WorkLocal[6] = 0
  8: 0x0027 [0x02] IF !(ExtData[1]->WorkLocal[0] == 0*) GOTO 0x0062
  9: 0x002F [0x02] IF !(ExtData[1]->WorkLocal[1] == 0*) GOTO 0x0062
 10: 0x0037 [0x02] IF !(ExtData[1]->WorkLocal[2] == 0*) GOTO 0x0062
 11: 0x003F [0x02] IF !(ExtData[1]->WorkLocal[3] == 0*) GOTO 0x0062
 12: 0x0047 [0x02] IF !(ExtData[1]->WorkLocal[4] == 0*) GOTO 0x0062
 13: 0x004F [0x1D] PRINT_EVENT_MESSAGE(message_id=10066*)
    → "Hello, [sir/ma'am]. Have you ever found yourself throwing away items because your Mog Safe is overflowing with dusty sets of armor collected on your many adventures? My colleagues and I have heard the cries of our fellow adventurers and joined together to aid all those in need."
 14: 0x0052 [0x23] WAIT_FOR_DIALOG_INTERACTION
 15: 0x0053 [0x1D] PRINT_EVENT_MESSAGE(message_id=10067*)
    → "Trade me a full set, and for a small fee (payable on pickup) we will hold on to it, all the while protecting it from thieves, moths, and any/all acts of god and/or goddess."
 16: 0x0056 [0x23] WAIT_FOR_DIALOG_INTERACTION
 17: 0x0057 [0x1D] PRINT_EVENT_MESSAGE(message_id=10068*)
    → "Please be forewarned that we cannot store any high-quality equipment, and that the signatures on any pieces of collected armor will be lost."
 18: 0x005A [0x23] WAIT_FOR_DIALOG_INTERACTION
 19: 0x005B [0x3C] SET_BIT_FLAG_CONDITIONAL(target_work_offset=ExtData[1]->WorkLocal[6], bit_index_work_offset=2*, condition_work_offset=1*)
 20: 0x0062 [0x1D] PRINT_EVENT_MESSAGE(message_id=10069*)
    → "How may I be of service today?"
 21: 0x0065 [0x23] WAIT_FOR_DIALOG_INTERACTION
 22: 0x0066 [0x24] CREATE_DIALOG(message_id=10070*, default_option=0*, option_flags=ExtData[1]->WorkLocal[6])
    → "What to do... [Nothing./View list of storable armor sets./Have stored armor returned.]"
 23: 0x006D [0x25] WAIT_DIALOG_SELECT()
 24: 0x006E [0x02] IF !(Work_Zone[0] == 0*) GOTO 0x0080
 25: 0x0076 [0x03] Work_Zone[1] = 1073741824*
 26: 0x007B [0x21] END_EVENT
 27: 0x007C [0x00] END_REQSTACK()

SUBROUTINE_0128:
 28: 0x0128 [0x24] CREATE_DIALOG(message_id=10073*, default_option=0*, option_flags=ExtData[1]->WorkLocal[6])
    → "[View which set?/Remove which set from storage?] [None./Level 24`30 armor./Level 31`40 armor./Level 41`50 armor./Artifact armor/High level gear./Relic armor.]"
 29: 0x012F [0x25] WAIT_DIALOG_SELECT()
 30: 0x0130 [0x02] IF !(Work_Zone[0] == 0*) GOTO 0x0142
 31: 0x0138 [0x03] Work_Zone[1] = 1073741824*
 32: 0x013D [0x21] END_EVENT
 33: 0x013E [0x00] END_REQSTACK()

SUBROUTINE_014A:
 34: 0x014A [0x02] IF !(Work_Zone[9] == 0*) GOTO 0x0158
 35: 0x0152 [0x06] ExtData[1]->WorkLocal[6] = 0
 36: 0x0155 [0x01] GOTO 0x0160
 37: 0x0158 [0x03] ExtData[1]->WorkLocal[6] = ExtData[1]->WorkLocal[0]
 38: 0x015D [0x1A] CALL_SUBROUTINE(address=0x0395)

SUBROUTINE_0160:
 39: 0x0160 [0x24] CREATE_DIALOG(message_id=10074*, default_option=0*, option_flags=ExtData[1]->WorkLocal[6])
    → "[View which set?/Remove which set?] [None./Iron Chainmail./Shade Harness./Brass Scale Armor./Wool Robe./Eisenplatte Armor./Soil Gi./Seer's Tunic./Studded Armor./Centurion's Scale Mail./Mercenary Captain's Doublet./Garish Tunic./Noct Doublet.]"
 40: 0x0167 [0x25] WAIT_DIALOG_SELECT()
 41: 0x0168 [0x02] IF !(Work_Zone[0] == 0*) GOTO 0x017A
 42: 0x0170 [0x03] Work_Zone[1] = 1073741824*
 43: 0x0175 [0x21] END_EVENT
 44: 0x0176 [0x00] END_REQSTACK()

SUBROUTINE_017A:
 45: 0x017A [0x03] Work_Zone[1] = Work_Zone[0]
 46: 0x017F [0x07] Work_Zone[1] += 15*
 47: 0x0184 [0x01] GOTO 0x030F
 48: 0x0187 [0x02] IF !(Work_Zone[0] == 2*) GOTO 0x01DC

SUBROUTINE_018F:
 49: 0x018F [0x02] IF !(Work_Zone[9] == 0*) GOTO 0x019D
 50: 0x0197 [0x06] ExtData[1]->WorkLocal[6] = 0
 51: 0x019A [0x01] GOTO 0x01A5
 52: 0x019D [0x03] ExtData[1]->WorkLocal[6] = ExtData[1]->WorkLocal[1]
 53: 0x01A2 [0x1A] CALL_SUBROUTINE(address=0x0395)

SUBROUTINE_01A5:
 54: 0x01A5 [0x24] CREATE_DIALOG(message_id=10075*, default_option=0*, option_flags=ExtData[1]->WorkLocal[6])
    → "[View which set?/Remove which set?] [None./Custom Armor (Hume Male)./Custom Armor (Hume Female)./Magna Armor (Elvaan Male)./Magna Armor (Elvaan Female)./Wonder Armor (Tarutaru)./Savage Armor (Mithra)./Elder Armor (Galka)./Linen Cloak./Padded Armor./Silver Chainmail./Gambison./Iron Scale Armor./Cuir Armor./Velvet Robe./Opaline Dress./Royal Squire's Chainmail./Plate Armor./Combat Caster's Cloak./Argent Attire.]"
 55: 0x01AC [0x25] WAIT_DIALOG_SELECT()
 56: 0x01AD [0x02] IF !(Work_Zone[0] == 0*) GOTO 0x01BF
 57: 0x01B5 [0x03] Work_Zone[1] = 1073741824*
 58: 0x01BA [0x21] END_EVENT
 59: 0x01BB [0x00] END_REQSTACK()

SUBROUTINE_01BF:
 60: 0x01BF [0x02] IF !(Work_Zone[0] == 19*) GOTO 0x01CF
 61: 0x01C7 [0x03] Work_Zone[1] = 89*
 62: 0x01CC [0x01] GOTO 0x01D9
 63: 0x01CF [0x03] Work_Zone[1] = Work_Zone[0]
 64: 0x01D4 [0x07] Work_Zone[1] += 27*

SUBROUTINE_01D9:
 65: 0x01D9 [0x01] GOTO 0x030F
 66: 0x01DC [0x02] IF !(Work_Zone[0] == 3*) GOTO 0x0244

SUBROUTINE_01E4:
 67: 0x01E4 [0x02] IF !(Work_Zone[9] == 0*) GOTO 0x01F2
 68: 0x01EC [0x06] ExtData[1]->WorkLocal[6] = 0
 69: 0x01EF [0x01] GOTO 0x01FA
 70: 0x01F2 [0x03] ExtData[1]->WorkLocal[6] = ExtData[1]->WorkLocal[2]
 71: 0x01F7 [0x1A] CALL_SUBROUTINE(address=0x0395)

SUBROUTINE_01FA:
 72: 0x01FA [0x24] CREATE_DIALOG(message_id=10076*, default_option=0*, option_flags=ExtData[1]->WorkLocal[6])
    → "[View which set?/Remove which set?] [None./Alumine Haubert./Carapace Armor./Banded Mail./Hara-Ate./Raptor Armor./Steel Scale Armor./Wool Gambison./Shinobi Gi./Mythril Plate Armor./Iron Musketeer's Cuirass./Tactician Magician's Cloak./White Cloak./Austere Robe./Crow Jupon.]"
 73: 0x0201 [0x25] WAIT_DIALOG_SELECT()
 74: 0x0202 [0x02] IF !(Work_Zone[0] == 0*) GOTO 0x0214
 75: 0x020A [0x03] Work_Zone[1] = 1073741824*
 76: 0x020F [0x21] END_EVENT
 77: 0x0210 [0x00] END_REQSTACK()

SUBROUTINE_0214:
 78: 0x0214 [0x03] Work_Zone[1] = Work_Zone[0]
 79: 0x0219 [0x02] IF !(Work_Zone[1] == 9*) GOTO 0x0229
 80: 0x0221 [0x03] Work_Zone[1] = 13*
 81: 0x0226 [0x01] GOTO 0x023C
 82: 0x0229 [0x02] IF !(Work_Zone[1] <= 9*) GOTO 0x023C
 83: 0x0231 [0x02] IF !(Work_Zone[1] >= 14*) GOTO 0x023C
 84: 0x0239 [0x0C] Work_Zone[1]--

SUBROUTINE_023C:
 85: 0x023C [0x07] Work_Zone[1] += 45*
 86: 0x0241 [0x01] GOTO 0x030F
 87: 0x0244 [0x02] IF !(Work_Zone[0] == 4*) GOTO 0x02BA

SUBROUTINE_024C:
 88: 0x024C [0x02] IF !(Work_Zone[9] == 0*) GOTO 0x0273
 89: 0x0254 [0x06] ExtData[1]->WorkLocal[6] = 0
 90: 0x0257 [0x02] IF !((LocalPlayer->Render.Flags01 >> 25) & 1 == 0*) GOTO 0x0269
 91: 0x025F [0x3C] SET_BIT_FLAG_CONDITIONAL(target_work_offset=ExtData[1]->WorkLocal[6], bit_index_work_offset=19*, condition_work_offset=1*)
 92: 0x0266 [0x01] GOTO 0x0270
 93: 0x0269 [0x3C] SET_BIT_FLAG_CONDITIONAL(target_work_offset=ExtData[1]->WorkLocal[6], bit_index_work_offset=20*, condition_work_offset=1*)

SUBROUTINE_0270:
 94: 0x0270 [0x01] GOTO 0x027B
 95: 0x0273 [0x03] ExtData[1]->WorkLocal[6] = ExtData[1]->WorkLocal[3]
 96: 0x0278 [0x1A] CALL_SUBROUTINE(address=0x0395)

SUBROUTINE_027B:
 97: 0x027B [0x24] CREATE_DIALOG(message_id=10082*, default_option=0*, option_flags=ExtData[1]->WorkLocal[6])
    → "[View which set?/Remove which set?] [None at this time./Fighter's Armor./Temple Attire./Healer's Attire./Wizard's Attire./Warlock's Armor./Rogue's Attire./Gallant Armor./Chaos Armor./Beast Armor./Choral Attire./Hunter's Attire./Myochin Armor./Ninja Garb./Drachen Armor./Evoker's Attire./Magus Attire./Corsair's Attire./Puppetry Attire./Dancer's Attire./Dancer's Attire./Scholar's Attire./Amir Armor Set./Pahluwan Armor Set./Yigit Armor Set.]"
 98: 0x0282 [0x25] WAIT_DIALOG_SELECT()
 99: 0x0283 [0x02] IF !(Work_Zone[0] == 0*) GOTO 0x0295
100: 0x028B [0x03] Work_Zone[1] = 1073741824*
101: 0x0290 [0x21] END_EVENT
102: 0x0291 [0x00] END_REQSTACK()

SUBROUTINE_0295:
103: 0x0295 [0x03] Work_Zone[1] = Work_Zone[0]
104: 0x029A [0x02] IF !(Work_Zone[1] < 16*) GOTO 0x02B7
105: 0x02A2 [0x02] IF !(Work_Zone[1] < 19*) GOTO 0x02B2
106: 0x02AA [0x07] Work_Zone[1] += 59*
107: 0x02AF [0x01] GOTO 0x02B7
108: 0x02B2 [0x07] Work_Zone[1] += 44*

SUBROUTINE_02B7:
109: 0x02B7 [0x01] GOTO 0x030F
110: 0x02BA [0x02] IF !(Work_Zone[0] == 5*) GOTO 0x030F

SUBROUTINE_02C2:
111: 0x02C2 [0x02] IF !(Work_Zone[9] == 0*) GOTO 0x02D0
112: 0x02CA [0x06] ExtData[1]->WorkLocal[6] = 0
113: 0x02CD [0x01] GOTO 0x02D8
114: 0x02D0 [0x03] ExtData[1]->WorkLocal[6] = ExtData[1]->WorkLocal[4]
115: 0x02D5 [0x1A] CALL_SUBROUTINE(address=0x0395)

SUBROUTINE_02D8:
116: 0x02D8 [0x24] CREATE_DIALOG(message_id=10089*, default_option=0*, option_flags=ExtData[1]->WorkLocal[6])
    → "[View which set?/Remove which set?] [None at this time./Warrior's Armor./Melee Attire./Cleric's Attire./Sorcerer's Attire./Duelist's Armor./Assassin's Attire./Valor Armor./Abyss Armor./Monster Armor./Bard's Attire./Scout's Attire./Saotome Armor./Koga Garb./Wyrm Armor./Summoner's Attire./Mirage Attire./Commodore Attire./Pantin Attire./Etoile Attire./Argute Attire.]"
117: 0x02DF [0x25] WAIT_DIALOG_SELECT()
118: 0x02E0 [0x02] IF !(Work_Zone[0] == 0*) GOTO 0x02F2
119: 0x02E8 [0x03] Work_Zone[1] = 1073741824*
120: 0x02ED [0x21] END_EVENT
121: 0x02EE [0x00] END_REQSTACK()

SUBROUTINE_02F2:
122: 0x02F2 [0x03] Work_Zone[1] = Work_Zone[0]
123: 0x02F7 [0x02] IF !(Work_Zone[0] >= 16*) GOTO 0x0307
124: 0x02FF [0x07] Work_Zone[1] += 62*
125: 0x0304 [0x01] GOTO 0x030C
126: 0x0307 [0x07] Work_Zone[1] += 68*

SUBROUTINE_030C:
127: 0x030C [0x01] GOTO 0x030F

SUBROUTINE_030F:
128: 0x030F [0x42] SET_CLI_EVENT_CANCEL_DATA()
129: 0x0310 [0x02] IF !(Work_Zone[9] == 0*) GOTO 0x035B
130: 0x0318 [0x43] SEND_EVENT_UPDATE: Send pending tag to server (packet 0x005B)
131: 0x031A [0x43] SEND_EVENT_UPDATE: Check pending flag (skip if not pending)
132: 0x031C [0x02] IF !(Work_Zone[2] == 0*) GOTO 0x033A
133: 0x0324 [0x02] IF !(Work_Zone[4] == 0*) GOTO 0x0333
134: 0x032C [0x1D] PRINT_EVENT_MESSAGE(message_id=10080*)
    → "This set is comprised of the following items: $1, and $3."
135: 0x032F [0x23] WAIT_FOR_DIALOG_INTERACTION
136: 0x0330 [0x01] GOTO 0x0337
137: 0x0333 [0x1D] PRINT_EVENT_MESSAGE(message_id=10078*)
    → "This set is comprised of the following items: $1, $2, $3, and $4."
138: 0x0336 [0x23] WAIT_FOR_DIALOG_INTERACTION

SUBROUTINE_0337:
139: 0x0337 [0x01] GOTO 0x034D
140: 0x033A [0x02] IF !(Work_Zone[4] == 0*) GOTO 0x0349
141: 0x0342 [0x1D] PRINT_EVENT_MESSAGE(message_id=10079*)
    → "This set is comprised of the following items: #, $1, $3, and $4."
142: 0x0345 [0x23] WAIT_FOR_DIALOG_INTERACTION
143: 0x0346 [0x01] GOTO 0x034D
144: 0x0349 [0x1D] PRINT_EVENT_MESSAGE(message_id=10077*)
    → "This set is comprised of the following items: #, $1, $2, $3, and $4."
145: 0x034C [0x23] WAIT_FOR_DIALOG_INTERACTION

SUBROUTINE_034D:
146: 0x034D [0x1D] PRINT_EVENT_MESSAGE(message_id=10081*)
    → "A storage fee of $5 gil will be required upon pickup of this particular set."
147: 0x0350 [0x23] WAIT_FOR_DIALOG_INTERACTION
148: 0x0351 [0x03] Work_Zone[1] = 1073741824*
149: 0x0356 [0x21] END_EVENT
150: 0x0357 [0x00] END_REQSTACK()

SUBROUTINE_0393:
151: 0x0393 [0x21] END_EVENT
152: 0x0394 [0x00] END_REQSTACK()

SUBROUTINE_0395:
153: 0x0395 [0x10] ExtData[1]->WorkLocal[6] <<= 1*
154: 0x039A [0x0F] ExtData[1]->WorkLocal[6] ^= 4294967295*
155: 0x039F [0x3D] CLEAR_BIT_FLAG_CONDITIONAL(target_work_offset=ExtData[1]->WorkLocal[6], bit_index_work_offset=0*, condition_work_offset=1*)
156: 0x03A6 [0x1B] RETURN
```

#### Data or dead code:

```
# Dead code (unreachable instructions):
     0x007D [0x01] GOTO 0x0128
# Dead code (unreachable instructions):
     0x013F [0x01] GOTO 0x030F
# Dead code (unreachable instructions):
     0x0177 [0x01] GOTO 0x017A
# Dead code (unreachable instructions):
     0x01BC [0x01] GOTO 0x01BF
# Dead code (unreachable instructions):
     0x0211 [0x01] GOTO 0x0214
# Dead code (unreachable instructions):
     0x0292 [0x01] GOTO 0x0295
# Dead code (unreachable instructions):
     0x02EF [0x01] GOTO 0x02F2
# Dead code (unreachable instructions):
     0x0358 [0x01] GOTO 0x0393
     0x0372 [0x01] GOTO 0x0393
     0x0390 [0x01] GOTO 0x0393
```

### Event 10027

#### Metadata

| Field        | Value    |
|--------------|----------|
| Entrypoint   | 0x03A7   |
| Data Size    | 37 bytes |
| Instructions | 12       |

```
      00 01 02 03 04 05 06 07  08 09 0A 0B 0C 0D 0E 0F
      -- -- -- -- -- -- -- --  -- -- -- -- -- -- -- --
03A0:                      42  1E F0 FF FF 7F 02 02 10         B........
03B0: 2D 80 00 C1 03 1D 2E 80  23 03 01 10 08 80 01 CA  -.......#.......
03C0: 03 1D 2F 80 23 03 01 10  02 10 21 00              ../.#.....!.    
```

#### Opcodes

```
  0: 0x03A7 [0x42] SET_CLI_EVENT_CANCEL_DATA()
  1: 0x03A8 [0x1E] EventEntity looks at LocalPlayer and starts talking
  2: 0x03AD [0x02] IF !(Work_Zone[2] == 4294967295*) GOTO 0x03C1
  3: 0x03B5 [0x1D] PRINT_EVENT_MESSAGE(message_id=10087*)
    → "Regulations do not allow adventurers to store more than one set of the same armor."
  4: 0x03B8 [0x23] WAIT_FOR_DIALOG_INTERACTION
  5: 0x03B9 [0x03] Work_Zone[1] = 1073741824*
  6: 0x03BE [0x01] GOTO 0x03CA
  7: 0x03C1 [0x1D] PRINT_EVENT_MESSAGE(message_id=10086*)
    → "Very well, [sir/ma'am]. When you wish to have your armor returned, remember to present this claim slip along with the $5-gil storage fee at any of our five convenient pickup locations around Vana'diel."
  8: 0x03C4 [0x23] WAIT_FOR_DIALOG_INTERACTION
  9: 0x03C5 [0x03] Work_Zone[1] = Work_Zone[2]

SUBROUTINE_03CA:
 10: 0x03CA [0x21] END_EVENT
 11: 0x03CB [0x00] END_REQSTACK()
```
