# 17764609 - Yonolala

## Common Data

| Field            | Value                    |
|------------------|--------------------------|
| Zone             | Windurst Woods (ID: 241) |
| Block Size       | 532 bytes                |
| Total Events     | 23                       |
| References Count | 11                       |

## List of Events

| Event ID                   | Entrypoint   |   Size |   Instructions |
|----------------------------|--------------|--------|----------------|
| [65535](#event-65535)      | 0x0000       |      1 |              1 |
| [878](#event-878)          | 0x0001       |      1 |              1 |
| [877](#event-877)          | 0x0002       |      1 |              1 |
| [874](#event-874)          | 0x0003       |      1 |              1 |
| [875](#event-875)          | 0x0004       |      1 |              1 |
| [876](#event-876)          | 0x0005       |      1 |              1 |
| [65535.1](#event-655351)   | 0x0006       |     13 |              3 |
| [65535.2](#event-655352)   | 0x0013       |     29 |              3 |
| [65535.3](#event-655353)   | 0x0030       |     29 |              3 |
| [65535.4](#event-655354)   | 0x004D       |     29 |              3 |
| [65535.5](#event-655355)   | 0x006A       |     29 |              3 |
| [65535.6](#event-655356)   | 0x0087       |     29 |              3 |
| [65535.7](#event-655357)   | 0x00A4       |     29 |              3 |
| [65535.8](#event-655358)   | 0x00C1       |     29 |              3 |
| [65535.9](#event-655359)   | 0x00DE       |     29 |              3 |
| [65535.10](#event-6553510) | 0x00FB       |     29 |              3 |
| [65535.11](#event-6553511) | 0x0118       |     29 |              3 |
| [65535.12](#event-6553512) | 0x0135       |     29 |              3 |
| [65535.13](#event-6553513) | 0x0152       |     19 |              5 |
| [65535.14](#event-6553514) | 0x0165       |     19 |              5 |
| [879](#event-879)          | 0x0178       |      1 |              1 |
| [880](#event-880)          | 0x0179       |      1 |              1 |
| [881](#event-881)          | 0x017A       |      1 |              1 |

## DAT References (imed_data)

|   Index | Hex Value   |   Dec Value |
|---------|-------------|-------------|
|       0 | 0x002D      |          45 |
|       1 | 0x0031      |          49 |
|       2 | 0x00BD      |         189 |
|       3 | 0x0028      |          40 |
|       4 | 0x0029      |          41 |
|       5 | 0x1818C     |       98700 |
|       6 | 0xFFFF9AA9  |  4294941353 |
|       7 | 0xFFFFEC78  |  4294962296 |
|       8 | 0x17CF0     |       97520 |
|       9 | 0xFFFFA1FA  |  4294943226 |
|      10 | 0xFFFFEB6A  |  4294962026 |

## Events

### Event 65535

#### Metadata

| Field        | Value   |
|--------------|---------|
| Entrypoint   | 0x0000  |
| Data Size    | 1 bytes |
| Instructions | 1       |

```
      00 01 02 03 04 05 06 07  08 09 0A 0B 0C 0D 0E 0F
      -- -- -- -- -- -- -- --  -- -- -- -- -- -- -- --
0000: 00                                                .               
```

#### Opcodes

```
  0: 0x0000 [0x00] END_REQSTACK()
```

### Event 878

#### Metadata

| Field        | Value   |
|--------------|---------|
| Entrypoint   | 0x0001  |
| Data Size    | 1 bytes |
| Instructions | 1       |

```
      00 01 02 03 04 05 06 07  08 09 0A 0B 0C 0D 0E 0F
      -- -- -- -- -- -- -- --  -- -- -- -- -- -- -- --
0000:    00                                              .              
```

#### Opcodes

```
  0: 0x0001 [0x00] END_REQSTACK()
```

### Event 877

#### Metadata

| Field        | Value   |
|--------------|---------|
| Entrypoint   | 0x0002  |
| Data Size    | 1 bytes |
| Instructions | 1       |

```
      00 01 02 03 04 05 06 07  08 09 0A 0B 0C 0D 0E 0F
      -- -- -- -- -- -- -- --  -- -- -- -- -- -- -- --
0000:       00                                            .             
```

#### Opcodes

```
  0: 0x0002 [0x00] END_REQSTACK()
```

### Event 874

#### Metadata

| Field        | Value   |
|--------------|---------|
| Entrypoint   | 0x0003  |
| Data Size    | 1 bytes |
| Instructions | 1       |

```
      00 01 02 03 04 05 06 07  08 09 0A 0B 0C 0D 0E 0F
      -- -- -- -- -- -- -- --  -- -- -- -- -- -- -- --
0000:          00                                          .            
```

#### Opcodes

```
  0: 0x0003 [0x00] END_REQSTACK()
```

### Event 875

#### Metadata

| Field        | Value   |
|--------------|---------|
| Entrypoint   | 0x0004  |
| Data Size    | 1 bytes |
| Instructions | 1       |

```
      00 01 02 03 04 05 06 07  08 09 0A 0B 0C 0D 0E 0F
      -- -- -- -- -- -- -- --  -- -- -- -- -- -- -- --
0000:             00                                        .           
```

#### Opcodes

```
  0: 0x0004 [0x00] END_REQSTACK()
```

### Event 876

#### Metadata

| Field        | Value   |
|--------------|---------|
| Entrypoint   | 0x0005  |
| Data Size    | 1 bytes |
| Instructions | 1       |

```
      00 01 02 03 04 05 06 07  08 09 0A 0B 0C 0D 0E 0F
      -- -- -- -- -- -- -- --  -- -- -- -- -- -- -- --
0000:                00                                      .          
```

#### Opcodes

```
  0: 0x0005 [0x00] END_REQSTACK()
```

### Event 65535.1

#### Metadata

| Field        | Value    |
|--------------|----------|
| Entrypoint   | 0x0006   |
| Data Size    | 13 bytes |
| Instructions | 3        |

```
      00 01 02 03 04 05 06 07  08 09 0A 0B 0C 0D 0E 0F
      -- -- -- -- -- -- -- --  -- -- -- -- -- -- -- --
0000:                   6B 69  64 6C 30 F8 FF FF 7F 1C        kidl0.....
0010: 00 80 00                                          ...             
```

#### Opcodes

```
  0: 0x0006 [0x6B] STOP_AND_IDLE: EventEntity stops current action and resets to idle (animation="idl0")
  1: 0x000F [0x1C] WAIT(45* ticks)
  2: 0x0012 [0x00] END_REQSTACK()
```

### Event 65535.2

#### Metadata

| Field        | Value    |
|--------------|----------|
| Entrypoint   | 0x0013   |
| Data Size    | 29 bytes |
| Instructions | 3        |

```
      00 01 02 03 04 05 06 07  08 09 0A 0B 0C 0D 0E 0F
      -- -- -- -- -- -- -- --  -- -- -- -- -- -- -- --
0010:          66 01 80 F8 FF  FF 7F F8 FF FF 7F 74 6C     f..........tl
0020: 6B 30 53 F8 FF FF 7F F8  FF FF 7F 74 6C 6B 30 00  k0S........tlk0.
```

#### Opcodes

```
  0: 0x0013 [0x66] LOAD_EXT_SCHEDULER_MAIN: Load scheduler "tlk0" with entities [EventEntity, EventEntity], work=49*
  1: 0x0022 [0x53] WAIT_SCHEDULER_TASK: Wait for scheduler "tlk0" with entities [EventEntity, EventEntity]
  2: 0x002F [0x00] END_REQSTACK()
```

### Event 65535.3

#### Metadata

| Field        | Value    |
|--------------|----------|
| Entrypoint   | 0x0030   |
| Data Size    | 29 bytes |
| Instructions | 3        |

```
      00 01 02 03 04 05 06 07  08 09 0A 0B 0C 0D 0E 0F
      -- -- -- -- -- -- -- --  -- -- -- -- -- -- -- --
0030: 66 01 80 F8 FF FF 7F F8  FF FF 7F 74 6C 6B 31 53  f..........tlk1S
0040: F8 FF FF 7F F8 FF FF 7F  74 6C 6B 31 00           ........tlk1.   
```

#### Opcodes

```
  0: 0x0030 [0x66] LOAD_EXT_SCHEDULER_MAIN: Load scheduler "tlk1" with entities [EventEntity, EventEntity], work=49*
  1: 0x003F [0x53] WAIT_SCHEDULER_TASK: Wait for scheduler "tlk1" with entities [EventEntity, EventEntity]
  2: 0x004C [0x00] END_REQSTACK()
```

### Event 65535.4

#### Metadata

| Field        | Value    |
|--------------|----------|
| Entrypoint   | 0x004D   |
| Data Size    | 29 bytes |
| Instructions | 3        |

```
      00 01 02 03 04 05 06 07  08 09 0A 0B 0C 0D 0E 0F
      -- -- -- -- -- -- -- --  -- -- -- -- -- -- -- --
0040:                                         66 01 80               f..
0050: F8 FF FF 7F F8 FF FF 7F  74 68 6B 31 53 F8 FF FF  ........thk1S...
0060: 7F F8 FF FF 7F 74 68 6B  31 00                    .....thk1.      
```

#### Opcodes

```
  0: 0x004D [0x66] LOAD_EXT_SCHEDULER_MAIN: Load scheduler "thk1" with entities [EventEntity, EventEntity], work=49*
  1: 0x005C [0x53] WAIT_SCHEDULER_TASK: Wait for scheduler "thk1" with entities [EventEntity, EventEntity]
  2: 0x0069 [0x00] END_REQSTACK()
```

### Event 65535.5

#### Metadata

| Field        | Value    |
|--------------|----------|
| Entrypoint   | 0x006A   |
| Data Size    | 29 bytes |
| Instructions | 3        |

```
      00 01 02 03 04 05 06 07  08 09 0A 0B 0C 0D 0E 0F
      -- -- -- -- -- -- -- --  -- -- -- -- -- -- -- --
0060:                                66 01 80 F8 FF FF            f.....
0070: 7F F8 FF FF 7F 74 68 6B  32 53 F8 FF FF 7F F8 FF  .....thk2S......
0080: FF 7F 74 68 6B 32 00                              ..thk2.         
```

#### Opcodes

```
  0: 0x006A [0x66] LOAD_EXT_SCHEDULER_MAIN: Load scheduler "thk2" with entities [EventEntity, EventEntity], work=49*
  1: 0x0079 [0x53] WAIT_SCHEDULER_TASK: Wait for scheduler "thk2" with entities [EventEntity, EventEntity]
  2: 0x0086 [0x00] END_REQSTACK()
```

### Event 65535.6

#### Metadata

| Field        | Value    |
|--------------|----------|
| Entrypoint   | 0x0087   |
| Data Size    | 29 bytes |
| Instructions | 3        |

```
      00 01 02 03 04 05 06 07  08 09 0A 0B 0C 0D 0E 0F
      -- -- -- -- -- -- -- --  -- -- -- -- -- -- -- --
0080:                      66  02 80 F8 FF FF 7F F8 FF         f........
0090: FF 7F 74 6C 6B 30 53 F8  FF FF 7F F8 FF FF 7F 74  ..tlk0S........t
00A0: 6C 6B 30 00                                       lk0.            
```

#### Opcodes

```
  0: 0x0087 [0x66] LOAD_EXT_SCHEDULER_MAIN: Load scheduler "tlk0" with entities [EventEntity, EventEntity], work=189*
  1: 0x0096 [0x53] WAIT_SCHEDULER_TASK: Wait for scheduler "tlk0" with entities [EventEntity, EventEntity]
  2: 0x00A3 [0x00] END_REQSTACK()
```

### Event 65535.7

#### Metadata

| Field        | Value    |
|--------------|----------|
| Entrypoint   | 0x00A4   |
| Data Size    | 29 bytes |
| Instructions | 3        |

```
      00 01 02 03 04 05 06 07  08 09 0A 0B 0C 0D 0E 0F
      -- -- -- -- -- -- -- --  -- -- -- -- -- -- -- --
00A0:             66 02 80 F8  FF FF 7F F8 FF FF 7F 74      f..........t
00B0: 6C 6B 31 53 F8 FF FF 7F  F8 FF FF 7F 74 6C 6B 31  lk1S........tlk1
00C0: 00                                                .               
```

#### Opcodes

```
  0: 0x00A4 [0x66] LOAD_EXT_SCHEDULER_MAIN: Load scheduler "tlk1" with entities [EventEntity, EventEntity], work=189*
  1: 0x00B3 [0x53] WAIT_SCHEDULER_TASK: Wait for scheduler "tlk1" with entities [EventEntity, EventEntity]
  2: 0x00C0 [0x00] END_REQSTACK()
```

### Event 65535.8

#### Metadata

| Field        | Value    |
|--------------|----------|
| Entrypoint   | 0x00C1   |
| Data Size    | 29 bytes |
| Instructions | 3        |

```
      00 01 02 03 04 05 06 07  08 09 0A 0B 0C 0D 0E 0F
      -- -- -- -- -- -- -- --  -- -- -- -- -- -- -- --
00C0:    66 03 80 F8 FF FF 7F  F8 FF FF 7F 73 79 75 30   f..........syu0
00D0: 53 F8 FF FF 7F F8 FF FF  7F 73 79 75 30 00        S........syu0.  
```

#### Opcodes

```
  0: 0x00C1 [0x66] LOAD_EXT_SCHEDULER_MAIN: Load scheduler "syu0" with entities [EventEntity, EventEntity], work=40*
  1: 0x00D0 [0x53] WAIT_SCHEDULER_TASK: Wait for scheduler "syu0" with entities [EventEntity, EventEntity]
  2: 0x00DD [0x00] END_REQSTACK()
```

### Event 65535.9

#### Metadata

| Field        | Value    |
|--------------|----------|
| Entrypoint   | 0x00DE   |
| Data Size    | 29 bytes |
| Instructions | 3        |

```
      00 01 02 03 04 05 06 07  08 09 0A 0B 0C 0D 0E 0F
      -- -- -- -- -- -- -- --  -- -- -- -- -- -- -- --
00D0:                                            66 03                f.
00E0: 80 F8 FF FF 7F F8 FF FF  7F 69 72 6F 30 53 F8 FF  .........iro0S..
00F0: FF 7F F8 FF FF 7F 69 72  6F 30 00                 ......iro0.     
```

#### Opcodes

```
  0: 0x00DE [0x66] LOAD_EXT_SCHEDULER_MAIN: Load scheduler "iro0" with entities [EventEntity, EventEntity], work=40*
  1: 0x00ED [0x53] WAIT_SCHEDULER_TASK: Wait for scheduler "iro0" with entities [EventEntity, EventEntity]
  2: 0x00FA [0x00] END_REQSTACK()
```

### Event 65535.10

#### Metadata

| Field        | Value    |
|--------------|----------|
| Entrypoint   | 0x00FB   |
| Data Size    | 29 bytes |
| Instructions | 3        |

```
      00 01 02 03 04 05 06 07  08 09 0A 0B 0C 0D 0E 0F
      -- -- -- -- -- -- -- --  -- -- -- -- -- -- -- --
00F0:                                   66 03 80 F8 FF             f....
0100: FF 7F F8 FF FF 7F 6D 6F  6A 30 53 F8 FF FF 7F F8  ......moj0S.....
0110: FF FF 7F 6D 6F 6A 30 00                           ...moj0.        
```

#### Opcodes

```
  0: 0x00FB [0x66] LOAD_EXT_SCHEDULER_MAIN: Load scheduler "moj0" with entities [EventEntity, EventEntity], work=40*
  1: 0x010A [0x53] WAIT_SCHEDULER_TASK: Wait for scheduler "moj0" with entities [EventEntity, EventEntity]
  2: 0x0117 [0x00] END_REQSTACK()
```

### Event 65535.11

#### Metadata

| Field        | Value    |
|--------------|----------|
| Entrypoint   | 0x0118   |
| Data Size    | 29 bytes |
| Instructions | 3        |

```
      00 01 02 03 04 05 06 07  08 09 0A 0B 0C 0D 0E 0F
      -- -- -- -- -- -- -- --  -- -- -- -- -- -- -- --
0110:                          66 03 80 F8 FF FF 7F F8          f.......
0120: FF FF 7F 67 6B 72 30 53  F8 FF FF 7F F8 FF FF 7F  ...gkr0S........
0130: 67 6B 72 30 00                                    gkr0.           
```

#### Opcodes

```
  0: 0x0118 [0x66] LOAD_EXT_SCHEDULER_MAIN: Load scheduler "gkr0" with entities [EventEntity, EventEntity], work=40*
  1: 0x0127 [0x53] WAIT_SCHEDULER_TASK: Wait for scheduler "gkr0" with entities [EventEntity, EventEntity]
  2: 0x0134 [0x00] END_REQSTACK()
```

### Event 65535.12

#### Metadata

| Field        | Value    |
|--------------|----------|
| Entrypoint   | 0x0135   |
| Data Size    | 29 bytes |
| Instructions | 3        |

```
      00 01 02 03 04 05 06 07  08 09 0A 0B 0C 0D 0E 0F
      -- -- -- -- -- -- -- --  -- -- -- -- -- -- -- --
0130:                66 04 80  F8 FF FF 7F F8 FF FF 7F       f..........
0140: 67 68 6E 31 53 F8 FF FF  7F F8 FF FF 7F 67 68 6E  ghn1S........ghn
0150: 31 00                                             1.              
```

#### Opcodes

```
  0: 0x0135 [0x66] LOAD_EXT_SCHEDULER_MAIN: Load scheduler "ghn1" with entities [EventEntity, EventEntity], work=41*
  1: 0x0144 [0x53] WAIT_SCHEDULER_TASK: Wait for scheduler "ghn1" with entities [EventEntity, EventEntity]
  2: 0x0151 [0x00] END_REQSTACK()
```

### Event 65535.13

#### Metadata

| Field        | Value    |
|--------------|----------|
| Entrypoint   | 0x0152   |
| Data Size    | 19 bytes |
| Instructions | 5        |

```
      00 01 02 03 04 05 06 07  08 09 0A 0B 0C 0D 0E 0F
      -- -- -- -- -- -- -- --  -- -- -- -- -- -- -- --
0150:       32 03 80 1F 00 05  80 06 80 07 80 1F 01 1E    2.............
0160: 02 11 0F 01 00                                    .....           
```

#### Opcodes

```
  0: 0x0152 [0x32] ExtData[1]->MainSpeed = 40* * 0.1
  1: 0x0155 [0x1F] MOVE_ENTITY: EventEntity moves to X=98.700*, Z=-25.943*, Y=-5.000*
  2: 0x015D [0x1F] MOVE_ENTITY: Update entity position (mode=1)
  3: 0x015F [0x1E] EventEntity looks at ??? (ID: 17764610/0x010F1102) and starts talking
  4: 0x0164 [0x00] END_REQSTACK()
```

### Event 65535.14

#### Metadata

| Field        | Value    |
|--------------|----------|
| Entrypoint   | 0x0165   |
| Data Size    | 19 bytes |
| Instructions | 5        |

```
      00 01 02 03 04 05 06 07  08 09 0A 0B 0C 0D 0E 0F
      -- -- -- -- -- -- -- --  -- -- -- -- -- -- -- --
0160:                32 03 80  1F 00 08 80 09 80 0A 80       2..........
0170: 1F 01 1E 02 11 0F 01 00                           ........        
```

#### Opcodes

```
  0: 0x0165 [0x32] ExtData[1]->MainSpeed = 40* * 0.1
  1: 0x0168 [0x1F] MOVE_ENTITY: EventEntity moves to X=97.520*, Z=-24.070*, Y=-5.270*
  2: 0x0170 [0x1F] MOVE_ENTITY: Update entity position (mode=1)
  3: 0x0172 [0x1E] EventEntity looks at ??? (ID: 17764610/0x010F1102) and starts talking
  4: 0x0177 [0x00] END_REQSTACK()
```

### Event 879

#### Metadata

| Field        | Value   |
|--------------|---------|
| Entrypoint   | 0x0178  |
| Data Size    | 1 bytes |
| Instructions | 1       |

```
      00 01 02 03 04 05 06 07  08 09 0A 0B 0C 0D 0E 0F
      -- -- -- -- -- -- -- --  -- -- -- -- -- -- -- --
0170:                          00                               .       
```

#### Opcodes

```
  0: 0x0178 [0x00] END_REQSTACK()
```

### Event 880

#### Metadata

| Field        | Value   |
|--------------|---------|
| Entrypoint   | 0x0179  |
| Data Size    | 1 bytes |
| Instructions | 1       |

```
      00 01 02 03 04 05 06 07  08 09 0A 0B 0C 0D 0E 0F
      -- -- -- -- -- -- -- --  -- -- -- -- -- -- -- --
0170:                             00                             .      
```

#### Opcodes

```
  0: 0x0179 [0x00] END_REQSTACK()
```

### Event 881

#### Metadata

| Field        | Value   |
|--------------|---------|
| Entrypoint   | 0x017A  |
| Data Size    | 1 bytes |
| Instructions | 1       |

```
      00 01 02 03 04 05 06 07  08 09 0A 0B 0C 0D 0E 0F
      -- -- -- -- -- -- -- --  -- -- -- -- -- -- -- --
0170:                                00                           .     
```

#### Opcodes

```
  0: 0x017A [0x00] END_REQSTACK()
```
