# 17764423

## Common Data

| Field            | Value                    |
|------------------|--------------------------|
| Zone             | Windurst Woods (ID: 241) |
| Block Size       | 1960 bytes               |
| Total Events     | 36                       |
| References Count | 156                      |

## List of Events

| Event ID                   | Entrypoint   |   Size |   Instructions |
|----------------------------|--------------|--------|----------------|
| [65535](#event-65535)      | 0x0000       |      1 |              1 |
| [746](#event-746)          | 0x0001       |      1 |              1 |
| [742](#event-742)          | 0x0002       |      1 |              1 |
| [65535.1](#event-655351)   | 0x0003       |      5 |              2 |
| [65535.2](#event-655352)   | 0x0008       |     11 |              3 |
| [65535.3](#event-655353)   | 0x0013       |     10 |              2 |
| [65535.4](#event-655354)   | 0x001D       |    131 |             26 |
| [65535.5](#event-655355)   | 0x00A0       |    131 |             26 |
| [65535.6](#event-655356)   | 0x0123       |     10 |              2 |
| [65535.7](#event-655357)   | 0x012D       |     14 |              4 |
| [65535.8](#event-655358)   | 0x013B       |     11 |              3 |
| [65535.9](#event-655359)   | 0x0146       |     11 |              3 |
| [65535.10](#event-6553510) | 0x0151       |     11 |              3 |
| [65535.11](#event-6553511) | 0x015C       |     14 |              4 |
| [65535.12](#event-6553512) | 0x016A       |     19 |              4 |
| [65535.13](#event-6553513) | 0x017D       |     19 |              4 |
| [776](#event-776)          | 0x0190       |      1 |              1 |
| [65535.14](#event-6553514) | 0x0191       |     15 |              3 |
| [65535.15](#event-6553515) | 0x01A0       |     45 |             10 |
| [65535.16](#event-6553516) | 0x01CD       |     45 |             10 |
| [65535.17](#event-6553517) | 0x01FA       |      6 |              2 |
| [65535.18](#event-6553518) | 0x0200       |     15 |              3 |
| [65535.19](#event-6553519) | 0x020F       |     54 |             12 |
| [65535.20](#event-6553520) | 0x0245       |     66 |             16 |
| [65535.21](#event-6553521) | 0x0287       |     15 |              3 |
| [65535.22](#event-6553522) | 0x0296       |     73 |             17 |
| [65535.23](#event-6553523) | 0x02DF       |     50 |             12 |
| [65535.24](#event-6553524) | 0x0311       |     50 |             12 |
| [65535.25](#event-6553525) | 0x0343       |     67 |             15 |
| [65535.26](#event-6553526) | 0x0386       |     14 |              4 |
| [65535.27](#event-6553527) | 0x0394       |     51 |             11 |
| [65535.28](#event-6553528) | 0x03C7       |     14 |              4 |
| [65535.29](#event-6553529) | 0x03D5       |     51 |             11 |
| [65535.30](#event-6553530) | 0x0408       |     59 |             13 |
| [65535.31](#event-6553531) | 0x0443       |     69 |             15 |
| [65535.32](#event-6553532) | 0x0488       |     15 |              3 |

## DAT References (imed_data)

|   Index | Hex Value   |   Dec Value |
|---------|-------------|-------------|
|       0 | 0x0000      |           0 |
|       1 | 0x1F133     |      127283 |
|       2 | 0xFFFE6C8E  |  4294864014 |
|       3 | 0xFFFFEC78  |  4294962296 |
|       4 | 0x041C      |        1052 |
|       5 | 0x0039      |          57 |
|       6 | 0x1EA21     |      125473 |
|       7 | 0xFFFE6447  |  4294861895 |
|       8 | 0x1E0C1     |      123073 |
|       9 | 0xFFFE59DF  |  4294859231 |
|      10 | 0x1E499     |      124057 |
|      11 | 0xFFFE5044  |  4294856772 |
|      12 | 0x1ED76     |      126326 |
|      13 | 0xFFFE5055  |  4294856789 |
|      14 | 0x1F4D1     |      128209 |
|      15 | 0xFFFE5989  |  4294859145 |
|      16 | 0x1EAE7     |      125671 |
|      17 | 0xFFFE622D  |  4294861357 |
|      18 | 0x1DC90     |      122000 |
|      19 | 0xFFFE69C0  |  4294863296 |
|      20 | 0x1E1D1     |      123345 |
|      21 | 0xFFFE7448  |  4294865992 |
|      22 | 0x1EC63     |      126051 |
|      23 | 0xFFFE75F9  |  4294866425 |
|      24 | 0x1E83E     |      124990 |
|      25 | 0xFFFE4398  |  4294853528 |
|      26 | 0xFFFFEC79  |  4294962297 |
|      27 | 0x0C2E      |        3118 |
|      28 | 0x0013      |          19 |
|      29 | 0x1E80A     |      124938 |
|      30 | 0xFFFE497F  |  4294855039 |
|      31 | 0x1E7F9     |      124921 |
|      32 | 0xFFFE4EBC  |  4294856380 |
|      33 | 0x1E7CA     |      124874 |
|      34 | 0xFFFE5398  |  4294857624 |
|      35 | 0x1E7B8     |      124856 |
|      36 | 0xFFFE5581  |  4294858113 |
|      37 | 0x1FB18     |      129816 |
|      38 | 0xFFFE5069  |  4294856809 |
|      39 | 0x00FC      |         252 |
|      40 | 0xFFFFB851  |  4294948945 |
|      41 | 0xFFFFE2B4  |  4294959796 |
|      42 | 0xFFFFF63D  |  4294964797 |
|      43 | 0x0800      |        2048 |
|      44 | 0x014C      |         332 |
|      45 | 0xFFFFB4D8  |  4294948056 |
|      46 | 0x1A475     |      107637 |
|      47 | 0x0CC2      |        3266 |
|      48 | 0xFFF6D458  |  4294366296 |
|      49 | 0x94B18     |      609048 |
|      50 | 0x00FA      |         250 |
|      51 | 0x09E7      |        2535 |
|      52 | 0x000A      |          10 |
|      53 | 0xFFF6CD5C  |  4294364508 |
|      54 | 0x95040     |      610368 |
|      55 | 0x013C      |         316 |
|      56 | 0xFFF6C2ED  |  4294361837 |
|      57 | 0x93B8C     |      605068 |
|      58 | 0x007B      |         123 |
|      59 | 0xFFF6CB21  |  4294363937 |
|      60 | 0x94810     |      608272 |
|      61 | 0x00D3      |         211 |
|      62 | 0x0002      |           2 |
|      63 | 0xFFF6D7C0  |  4294367168 |
|      64 | 0x8EF6A     |      585578 |
|      65 | 0x0274      |         628 |
|      66 | 0x011C      |         284 |
|      67 | 0xFFF6D0CA  |  4294365386 |
|      68 | 0x8F7DF     |      587743 |
|      69 | 0x0112      |         274 |
|      70 | 0xFFF6D779  |  4294367097 |
|      71 | 0x8FCC2     |      588994 |
|      72 | 0x015B      |         347 |
|      73 | 0xFFF6DB55  |  4294368085 |
|      74 | 0x8F169     |      586089 |
|      75 | 0x024A      |         586 |
|      76 | 0xFFF6DAA1  |  4294367905 |
|      77 | 0x8E6CF     |      583375 |
|      78 | 0x033E      |         830 |
|      79 | 0x001E      |          30 |
|      80 | 0xFFF6D3B3  |  4294366131 |
|      81 | 0x8F340     |      586560 |
|      82 | 0x01D0      |         464 |
|      83 | 0x0101      |         257 |
|      84 | 0x0078      |         120 |
|      85 | 0xFFF6D069  |  4294365289 |
|      86 | 0x8F7F4     |      587764 |
|      87 | 0x010C      |         268 |
|      88 | 0xFFF6D763  |  4294367075 |
|      89 | 0x8FB0E     |      588558 |
|      90 | 0x0171      |         369 |
|      91 | 0x003C      |          60 |
|      92 | 0xFFF6CFE0  |  4294365152 |
|      93 | 0x8F449     |      586825 |
|      94 | 0x0178      |         376 |
|      95 | 0x0862      |        2146 |
|      96 | 0xFFF6D8AC  |  4294367404 |
|      97 | 0x8FABD     |      588477 |
|      98 | 0x0175      |         373 |
|      99 | 0xFFF6DB01  |  4294368001 |
|     100 | 0x90356     |      590678 |
|     101 | 0x0108      |         264 |
|     102 | 0x03BF      |         959 |
|     103 | 0xFFF6C73F  |  4294362943 |
|     104 | 0x8F234     |      586292 |
|     105 | 0x008A      |         138 |
|     106 | 0x0025      |          37 |
|     107 | 0x00F0      |         240 |
|     108 | 0xFFF6D6F8  |  4294366968 |
|     109 | 0x8E30A     |      582410 |
|     110 | 0x0322      |         802 |
|     111 | 0x0BD3      |        3027 |
|     112 | 0xFFF6DB94  |  4294368148 |
|     113 | 0x8FCF3     |      589043 |
|     114 | 0x0159      |         345 |
|     115 | 0xFFF6C79F  |  4294363039 |
|     116 | 0x8F34D     |      586573 |
|     117 | 0xFFF6CB4A  |  4294363978 |
|     118 | 0x8FAEF     |      588527 |
|     119 | 0x00C4      |         196 |
|     120 | 0xFFF6D269  |  4294365801 |
|     121 | 0x8F138     |      586040 |
|     122 | 0x01F0      |         496 |
|     123 | 0xFFF6D2EF  |  4294365935 |
|     124 | 0x8EB3B     |      584507 |
|     125 | 0x021E      |         542 |
|     126 | 0xFFF6D6A2  |  4294366882 |
|     127 | 0x8E8B3     |      583859 |
|     128 | 0x02C0      |         704 |
|     129 | 0xFFF6DAB0  |  4294367920 |
|     130 | 0x8EE3C     |      585276 |
|     131 | 0x029C      |         668 |
|     132 | 0xFFF6DC30  |  4294368304 |
|     133 | 0x8F5FC     |      587260 |
|     134 | 0x01D4      |         468 |
|     135 | 0xFFF6D87A  |  4294367354 |
|     136 | 0x8F6D2     |      587474 |
|     137 | 0x01BF      |         447 |
|     138 | 0xFFF6CEAA  |  4294364842 |
|     139 | 0x8FA2D     |      588333 |
|     140 | 0x00F7      |         247 |
|     141 | 0xFFF6CA0E  |  4294363662 |
|     142 | 0x8EFB9     |      585657 |
|     143 | 0x0090      |         144 |
|     144 | 0xFFF6CECB  |  4294364875 |
|     145 | 0x8E418     |      582680 |
|     146 | 0x018C      |         396 |
|     147 | 0xFFF6DB79  |  4294368121 |
|     148 | 0x8E4F3     |      582899 |
|     149 | 0x0356      |         854 |
|     150 | 0xFFF6DE60  |  4294368864 |
|     151 | 0x8F7D9     |      587737 |
|     152 | 0x019A      |         410 |
|     153 | 0xFFF6D8AE  |  4294367406 |
|     154 | 0x8FE78     |      589432 |
|     155 | 0x0146      |         326 |

## Events

### Event 65535

#### Metadata

| Field        | Value   |
|--------------|---------|
| Entrypoint   | 0x0000  |
| Data Size    | 1 bytes |
| Instructions | 1       |

```
      00 01 02 03 04 05 06 07  08 09 0A 0B 0C 0D 0E 0F
      -- -- -- -- -- -- -- --  -- -- -- -- -- -- -- --
0000: 00                                                .               
```

#### Opcodes

```
  0: 0x0000 [0x00] END_REQSTACK()
```

### Event 746

#### Metadata

| Field        | Value   |
|--------------|---------|
| Entrypoint   | 0x0001  |
| Data Size    | 1 bytes |
| Instructions | 1       |

```
      00 01 02 03 04 05 06 07  08 09 0A 0B 0C 0D 0E 0F
      -- -- -- -- -- -- -- --  -- -- -- -- -- -- -- --
0000:    00                                              .              
```

#### Opcodes

```
  0: 0x0001 [0x00] END_REQSTACK()
```

### Event 742

#### Metadata

| Field        | Value   |
|--------------|---------|
| Entrypoint   | 0x0002  |
| Data Size    | 1 bytes |
| Instructions | 1       |

```
      00 01 02 03 04 05 06 07  08 09 0A 0B 0C 0D 0E 0F
      -- -- -- -- -- -- -- --  -- -- -- -- -- -- -- --
0000:       00                                            .             
```

#### Opcodes

```
  0: 0x0002 [0x00] END_REQSTACK()
```

### Event 65535.1

#### Metadata

| Field        | Value   |
|--------------|---------|
| Entrypoint   | 0x0003  |
| Data Size    | 5 bytes |
| Instructions | 2       |

```
      00 01 02 03 04 05 06 07  08 09 0A 0B 0C 0D 0E 0F
      -- -- -- -- -- -- -- --  -- -- -- -- -- -- -- --
0000:          B6 00 04 10 00                              .....        
```

#### Opcodes

```
  0: 0x0003 [0xB6] ENTITY_APPEARANCE_HANDLER(case=Hair style, value=Work_Zone[4])
  1: 0x0007 [0x00] END_REQSTACK()
```

### Event 65535.2

#### Metadata

| Field        | Value    |
|--------------|----------|
| Entrypoint   | 0x0008   |
| Data Size    | 11 bytes |
| Instructions | 3        |

```
      00 01 02 03 04 05 06 07  08 09 0A 0B 0C 0D 0E 0F
      -- -- -- -- -- -- -- --  -- -- -- -- -- -- -- --
0000:                          B4 01 00 00 00 80 B5 00          ........
0010: 00 00 00                                          ...             
```

#### Opcodes

```
  0: 0x0008 [0xB4] UI_WINDOW_STRING_HANDLER(case=0x01 - Copy string from event strings table, work_offset=ExtData[1]->WorkLocal[0], string_index=0*)
  1: 0x000E [0xB5] SET_EVENT_ENTITY_NAME: Change EventEntity name to ExtData[1]->WorkLocal[0]
  2: 0x0012 [0x00] END_REQSTACK()
```

### Event 65535.3

#### Metadata

| Field        | Value    |
|--------------|----------|
| Entrypoint   | 0x0013   |
| Data Size    | 10 bytes |
| Instructions | 2        |

```
      00 01 02 03 04 05 06 07  08 09 0A 0B 0C 0D 0E 0F
      -- -- -- -- -- -- -- --  -- -- -- -- -- -- -- --
0010:          37 01 80 02 80  03 80 04 80 00              7.........   
```

#### Opcodes

```
  0: 0x0013 [0x37] UPDATE_EVENT_POSITION_AND_DIR: x=127.283*, z=-103.282*, y=-5.000*, direction=92.5°*
  1: 0x001C [0x00] END_REQSTACK()
```

### Event 65535.4

#### Metadata

| Field        | Value     |
|--------------|-----------|
| Entrypoint   | 0x001D    |
| Data Size    | 131 bytes |
| Instructions | 26        |

```
      00 01 02 03 04 05 06 07  08 09 0A 0B 0C 0D 0E 0F
      -- -- -- -- -- -- -- --  -- -- -- -- -- -- -- --
0010:                                         32 05 80               2..
0020: 1F 00 06 80 07 80 03 80  1F 01 1F 00 08 80 09 80  ................
0030: 03 80 1F 01 1F 00 0A 80  0B 80 03 80 1F 01 1F 00  ................
0040: 0C 80 0D 80 03 80 1F 01  1F 00 0E 80 0F 80 03 80  ................
0050: 1F 01 1F 00 10 80 11 80  03 80 1F 01 1F 00 12 80  ................
0060: 13 80 03 80 1F 01 1F 00  14 80 15 80 03 80 1F 01  ................
0070: 1F 00 16 80 17 80 03 80  1F 01 1F 00 01 80 02 80  ................
0080: 03 80 1F 01 02 4D 10 00  80 00 96 00 27 05 47 10  .....M......'.G.
0090: 0F 01 07 01 9F 00 37 00  80 00 80 00 80 00 80 00  ......7.........
```

#### Opcodes

```
  0: 0x001D [0x32] ExtData[1]->MainSpeed = 57* * 0.1
  1: 0x0020 [0x1F] MOVE_ENTITY: EventEntity moves to X=125.473*, Z=-105.401*, Y=-5.000*
  2: 0x0028 [0x1F] MOVE_ENTITY: Update entity position (mode=1)
  3: 0x002A [0x1F] MOVE_ENTITY: EventEntity moves to X=123.073*, Z=-108.065*, Y=-5.000*
  4: 0x0032 [0x1F] MOVE_ENTITY: Update entity position (mode=1)
  5: 0x0034 [0x1F] MOVE_ENTITY: EventEntity moves to X=124.057*, Z=-110.524*, Y=-5.000*
  6: 0x003C [0x1F] MOVE_ENTITY: Update entity position (mode=1)
  7: 0x003E [0x1F] MOVE_ENTITY: EventEntity moves to X=126.326*, Z=-110.507*, Y=-5.000*
  8: 0x0046 [0x1F] MOVE_ENTITY: Update entity position (mode=1)
  9: 0x0048 [0x1F] MOVE_ENTITY: EventEntity moves to X=128.209*, Z=-108.151*, Y=-5.000*
 10: 0x0050 [0x1F] MOVE_ENTITY: Update entity position (mode=1)
 11: 0x0052 [0x1F] MOVE_ENTITY: EventEntity moves to X=125.671*, Z=-105.939*, Y=-5.000*
 12: 0x005A [0x1F] MOVE_ENTITY: Update entity position (mode=1)
 13: 0x005C [0x1F] MOVE_ENTITY: EventEntity moves to X=122.000*, Z=-104.000*, Y=-5.000*
 14: 0x0064 [0x1F] MOVE_ENTITY: Update entity position (mode=1)
 15: 0x0066 [0x1F] MOVE_ENTITY: EventEntity moves to X=123.345*, Z=-101.304*, Y=-5.000*
 16: 0x006E [0x1F] MOVE_ENTITY: Update entity position (mode=1)
 17: 0x0070 [0x1F] MOVE_ENTITY: EventEntity moves to X=126.051*, Z=-100.871*, Y=-5.000*
 18: 0x0078 [0x1F] MOVE_ENTITY: Update entity position (mode=1)
 19: 0x007A [0x1F] MOVE_ENTITY: EventEntity moves to X=127.283*, Z=-103.282*, Y=-5.000*
 20: 0x0082 [0x1F] MOVE_ENTITY: Update entity position (mode=1)
 21: 0x0084 [0x02] IF !(Work_Zone[77] == 0*) GOTO 0x0096
 22: 0x008C [0x27] REQ_SET(priority=0x05, entity_id=Unnamed NPC (ID: 17764423/0x010F1047), tag_num=0x07)
 23: 0x0093 [0x01] GOTO 0x009F
 24: 0x0096 [0x37] UPDATE_EVENT_POSITION_AND_DIR: x=0.000*, z=0.000*, y=0.000*, direction=0.0°*

SUBROUTINE_009F:
 25: 0x009F [0x00] END_REQSTACK()
```

### Event 65535.5

#### Metadata

| Field        | Value     |
|--------------|-----------|
| Entrypoint   | 0x00A0    |
| Data Size    | 131 bytes |
| Instructions | 26        |

```
      00 01 02 03 04 05 06 07  08 09 0A 0B 0C 0D 0E 0F
      -- -- -- -- -- -- -- --  -- -- -- -- -- -- -- --
00A0: 32 05 80 1F 00 06 80 07  80 03 80 1F 01 1F 00 08  2...............
00B0: 80 09 80 03 80 1F 01 1F  00 0A 80 0B 80 03 80 1F  ................
00C0: 01 1F 00 0C 80 0D 80 03  80 1F 01 1F 00 0E 80 0F  ................
00D0: 80 03 80 1F 01 1F 00 10  80 11 80 03 80 1F 01 1F  ................
00E0: 00 12 80 13 80 03 80 1F  01 1F 00 14 80 15 80 03  ................
00F0: 80 1F 01 1F 00 16 80 17  80 03 80 1F 01 1F 00 01  ................
0100: 80 02 80 03 80 1F 01 02  4D 10 00 80 00 19 01 27  ........M......'
0110: 05 47 10 0F 01 06 01 22  01 37 00 80 00 80 00 80  .G.....".7......
0120: 00 80 00                                          ...             
```

#### Opcodes

```
  0: 0x00A0 [0x32] ExtData[1]->MainSpeed = 57* * 0.1
  1: 0x00A3 [0x1F] MOVE_ENTITY: EventEntity moves to X=125.473*, Z=-105.401*, Y=-5.000*
  2: 0x00AB [0x1F] MOVE_ENTITY: Update entity position (mode=1)
  3: 0x00AD [0x1F] MOVE_ENTITY: EventEntity moves to X=123.073*, Z=-108.065*, Y=-5.000*
  4: 0x00B5 [0x1F] MOVE_ENTITY: Update entity position (mode=1)
  5: 0x00B7 [0x1F] MOVE_ENTITY: EventEntity moves to X=124.057*, Z=-110.524*, Y=-5.000*
  6: 0x00BF [0x1F] MOVE_ENTITY: Update entity position (mode=1)
  7: 0x00C1 [0x1F] MOVE_ENTITY: EventEntity moves to X=126.326*, Z=-110.507*, Y=-5.000*
  8: 0x00C9 [0x1F] MOVE_ENTITY: Update entity position (mode=1)
  9: 0x00CB [0x1F] MOVE_ENTITY: EventEntity moves to X=128.209*, Z=-108.151*, Y=-5.000*
 10: 0x00D3 [0x1F] MOVE_ENTITY: Update entity position (mode=1)
 11: 0x00D5 [0x1F] MOVE_ENTITY: EventEntity moves to X=125.671*, Z=-105.939*, Y=-5.000*
 12: 0x00DD [0x1F] MOVE_ENTITY: Update entity position (mode=1)
 13: 0x00DF [0x1F] MOVE_ENTITY: EventEntity moves to X=122.000*, Z=-104.000*, Y=-5.000*
 14: 0x00E7 [0x1F] MOVE_ENTITY: Update entity position (mode=1)
 15: 0x00E9 [0x1F] MOVE_ENTITY: EventEntity moves to X=123.345*, Z=-101.304*, Y=-5.000*
 16: 0x00F1 [0x1F] MOVE_ENTITY: Update entity position (mode=1)
 17: 0x00F3 [0x1F] MOVE_ENTITY: EventEntity moves to X=126.051*, Z=-100.871*, Y=-5.000*
 18: 0x00FB [0x1F] MOVE_ENTITY: Update entity position (mode=1)
 19: 0x00FD [0x1F] MOVE_ENTITY: EventEntity moves to X=127.283*, Z=-103.282*, Y=-5.000*
 20: 0x0105 [0x1F] MOVE_ENTITY: Update entity position (mode=1)
 21: 0x0107 [0x02] IF !(Work_Zone[77] == 0*) GOTO 0x0119
 22: 0x010F [0x27] REQ_SET(priority=0x05, entity_id=Unnamed NPC (ID: 17764423/0x010F1047), tag_num=0x06)
 23: 0x0116 [0x01] GOTO 0x0122
 24: 0x0119 [0x37] UPDATE_EVENT_POSITION_AND_DIR: x=0.000*, z=0.000*, y=0.000*, direction=0.0°*

SUBROUTINE_0122:
 25: 0x0122 [0x00] END_REQSTACK()
```

### Event 65535.6

#### Metadata

| Field        | Value    |
|--------------|----------|
| Entrypoint   | 0x0123   |
| Data Size    | 10 bytes |
| Instructions | 2        |

```
      00 01 02 03 04 05 06 07  08 09 0A 0B 0C 0D 0E 0F
      -- -- -- -- -- -- -- --  -- -- -- -- -- -- -- --
0120:          37 18 80 19 80  1A 80 1B 80 00              7.........   
```

#### Opcodes

```
  0: 0x0123 [0x37] UPDATE_EVENT_POSITION_AND_DIR: x=124.990*, z=-113.768*, y=-4.999*, direction=274.0°*
  1: 0x012C [0x00] END_REQSTACK()
```

### Event 65535.7

#### Metadata

| Field        | Value    |
|--------------|----------|
| Entrypoint   | 0x012D   |
| Data Size    | 14 bytes |
| Instructions | 4        |

```
      00 01 02 03 04 05 06 07  08 09 0A 0B 0C 0D 0E 0F
      -- -- -- -- -- -- -- --  -- -- -- -- -- -- -- --
0120:                                         32 1C 80               2..
0130: 1F 00 1D 80 1E 80 1A 80  1F 01 00                 ...........     
```

#### Opcodes

```
  0: 0x012D [0x32] ExtData[1]->MainSpeed = 19* * 0.1
  1: 0x0130 [0x1F] MOVE_ENTITY: EventEntity moves to X=124.938*, Z=-112.257*, Y=-4.999*
  2: 0x0138 [0x1F] MOVE_ENTITY: Update entity position (mode=1)
  3: 0x013A [0x00] END_REQSTACK()
```

### Event 65535.8

#### Metadata

| Field        | Value    |
|--------------|----------|
| Entrypoint   | 0x013B   |
| Data Size    | 11 bytes |
| Instructions | 3        |

```
      00 01 02 03 04 05 06 07  08 09 0A 0B 0C 0D 0E 0F
      -- -- -- -- -- -- -- --  -- -- -- -- -- -- -- --
0130:                                   1F 00 1F 80 20             .... 
0140: 80 1A 80 1F 01 00                                 ......          
```

#### Opcodes

```
  0: 0x013B [0x1F] MOVE_ENTITY: EventEntity moves to X=124.921*, Z=-110.916*, Y=-4.999*
  1: 0x0143 [0x1F] MOVE_ENTITY: Update entity position (mode=1)
  2: 0x0145 [0x00] END_REQSTACK()
```

### Event 65535.9

#### Metadata

| Field        | Value    |
|--------------|----------|
| Entrypoint   | 0x0146   |
| Data Size    | 11 bytes |
| Instructions | 3        |

```
      00 01 02 03 04 05 06 07  08 09 0A 0B 0C 0D 0E 0F
      -- -- -- -- -- -- -- --  -- -- -- -- -- -- -- --
0140:                   1F 00  21 80 22 80 1A 80 1F 01        ..!.".....
0150: 00                                                .               
```

#### Opcodes

```
  0: 0x0146 [0x1F] MOVE_ENTITY: EventEntity moves to X=124.874*, Z=-109.672*, Y=-4.999*
  1: 0x014E [0x1F] MOVE_ENTITY: Update entity position (mode=1)
  2: 0x0150 [0x00] END_REQSTACK()
```

### Event 65535.10

#### Metadata

| Field        | Value    |
|--------------|----------|
| Entrypoint   | 0x0151   |
| Data Size    | 11 bytes |
| Instructions | 3        |

```
      00 01 02 03 04 05 06 07  08 09 0A 0B 0C 0D 0E 0F
      -- -- -- -- -- -- -- --  -- -- -- -- -- -- -- --
0150:    1F 00 23 80 24 80 1A  80 1F 01 00               ..#.$......    
```

#### Opcodes

```
  0: 0x0151 [0x1F] MOVE_ENTITY: EventEntity moves to X=124.856*, Z=-109.183*, Y=-4.999*
  1: 0x0159 [0x1F] MOVE_ENTITY: Update entity position (mode=1)
  2: 0x015B [0x00] END_REQSTACK()
```

### Event 65535.11

#### Metadata

| Field        | Value    |
|--------------|----------|
| Entrypoint   | 0x015C   |
| Data Size    | 14 bytes |
| Instructions | 4        |

```
      00 01 02 03 04 05 06 07  08 09 0A 0B 0C 0D 0E 0F
      -- -- -- -- -- -- -- --  -- -- -- -- -- -- -- --
0150:                                      32 05 80 1F              2...
0160: 00 25 80 26 80 1A 80 1F  01 00                    .%.&......      
```

#### Opcodes

```
  0: 0x015C [0x32] ExtData[1]->MainSpeed = 57* * 0.1
  1: 0x015F [0x1F] MOVE_ENTITY: EventEntity moves to X=129.816*, Z=-110.487*, Y=-4.999*
  2: 0x0167 [0x1F] MOVE_ENTITY: Update entity position (mode=1)
  3: 0x0169 [0x00] END_REQSTACK()
```

### Event 65535.12

#### Metadata

| Field        | Value    |
|--------------|----------|
| Entrypoint   | 0x016A   |
| Data Size    | 19 bytes |
| Instructions | 4        |

```
      00 01 02 03 04 05 06 07  08 09 0A 0B 0C 0D 0E 0F
      -- -- -- -- -- -- -- --  -- -- -- -- -- -- -- --
0160:                                B6 00 27 80 37 28            ..'.7(
0170: 80 29 80 2A 80 2B 80 80  F8 FF FF 7F 00           .).*.+.......   
```

#### Opcodes

```
  0: 0x016A [0xB6] ENTITY_APPEARANCE_HANDLER(case=Hair style, value=252*)
  1: 0x016E [0x37] UPDATE_EVENT_POSITION_AND_DIR: x=-18.351*, z=-7.500*, y=-2.499*, direction=180.0°*
  2: 0x0177 [0x80] LOAD_WAIT(entity=EventEntity)
  3: 0x017C [0x00] END_REQSTACK()
```

### Event 65535.13

#### Metadata

| Field        | Value    |
|--------------|----------|
| Entrypoint   | 0x017D   |
| Data Size    | 19 bytes |
| Instructions | 4        |

```
      00 01 02 03 04 05 06 07  08 09 0A 0B 0C 0D 0E 0F
      -- -- -- -- -- -- -- --  -- -- -- -- -- -- -- --
0170:                                         B6 00 2C               ..,
0180: 80 37 2D 80 2E 80 00 80  2F 80 80 F8 FF FF 7F 00  .7-...../.......
```

#### Opcodes

```
  0: 0x017D [0xB6] ENTITY_APPEARANCE_HANDLER(case=Hair style, value=332*)
  1: 0x0181 [0x37] UPDATE_EVENT_POSITION_AND_DIR: x=-19.240*, z=107.637*, y=0.000*, direction=287.0°*
  2: 0x018A [0x80] LOAD_WAIT(entity=EventEntity)
  3: 0x018F [0x00] END_REQSTACK()
```

### Event 776

#### Metadata

| Field        | Value   |
|--------------|---------|
| Entrypoint   | 0x0190  |
| Data Size    | 1 bytes |
| Instructions | 1       |

```
      00 01 02 03 04 05 06 07  08 09 0A 0B 0C 0D 0E 0F
      -- -- -- -- -- -- -- --  -- -- -- -- -- -- -- --
0190: 00                                                .               
```

#### Opcodes

```
  0: 0x0190 [0x00] END_REQSTACK()
```

### Event 65535.14

#### Metadata

| Field        | Value    |
|--------------|----------|
| Entrypoint   | 0x0191   |
| Data Size    | 15 bytes |
| Instructions | 3        |

```
      00 01 02 03 04 05 06 07  08 09 0A 0B 0C 0D 0E 0F
      -- -- -- -- -- -- -- --  -- -- -- -- -- -- -- --
0190:    37 30 80 31 80 32 80  33 80 03 04 00 00 80 00   70.1.2.3.......
```

#### Opcodes

```
  0: 0x0191 [0x37] UPDATE_EVENT_POSITION_AND_DIR: x=-601.000*, z=609.048*, y=0.250*, direction=222.8°*
  1: 0x019A [0x03] ExtData[1]->WorkLocal[4] = 0*
  2: 0x019F [0x00] END_REQSTACK()
```

### Event 65535.15

#### Metadata

| Field        | Value    |
|--------------|----------|
| Entrypoint   | 0x01A0   |
| Data Size    | 45 bytes |
| Instructions | 10       |

```
      00 01 02 03 04 05 06 07  08 09 0A 0B 0C 0D 0E 0F
      -- -- -- -- -- -- -- --  -- -- -- -- -- -- -- --
01A0: 02 04 00 00 80 00 CC 01  32 34 80 1F 00 35 80 36  ........24...5.6
01B0: 80 37 80 1F 01 1F 00 38  80 39 80 3A 80 1F 01 1F  .7.....8.9.:....
01C0: 00 3B 80 3C 80 3D 80 1F  01 01 A0 01 00           .;.<.=.......   
```

#### Opcodes

```
  0: 0x01A0 [0x02] IF !(ExtData[1]->WorkLocal[4] == 0*) GOTO 0x01CC
  1: 0x01A8 [0x32] ExtData[1]->MainSpeed = 10* * 0.1
  2: 0x01AB [0x1F] MOVE_ENTITY: EventEntity moves to X=-602.788*, Z=610.368*, Y=0.316*
  3: 0x01B3 [0x1F] MOVE_ENTITY: Update entity position (mode=1)
  4: 0x01B5 [0x1F] MOVE_ENTITY: EventEntity moves to X=-605.459*, Z=605.068*, Y=0.123*
  5: 0x01BD [0x1F] MOVE_ENTITY: Update entity position (mode=1)
  6: 0x01BF [0x1F] MOVE_ENTITY: EventEntity moves to X=-603.359*, Z=608.272*, Y=0.211*
  7: 0x01C7 [0x1F] MOVE_ENTITY: Update entity position (mode=1)
  8: 0x01C9 [0x01] GOTO 0x01A0
  9: 0x01CC [0x00] END_REQSTACK()
```

### Event 65535.16

#### Metadata

| Field        | Value    |
|--------------|----------|
| Entrypoint   | 0x01CD   |
| Data Size    | 45 bytes |
| Instructions | 10       |

```
      00 01 02 03 04 05 06 07  08 09 0A 0B 0C 0D 0E 0F
      -- -- -- -- -- -- -- --  -- -- -- -- -- -- -- --
01C0:                                         02 04 00               ...
01D0: 3E 80 01 F9 01 32 1C 80  1F 00 35 80 36 80 37 80  >....2....5.6.7.
01E0: 1F 01 1F 00 38 80 39 80  3A 80 1F 01 1F 00 3B 80  ....8.9.:.....;.
01F0: 3C 80 3D 80 1F 01 01 CD  01 00                    <.=.......      
```

#### Opcodes

```
  0: 0x01CD [0x02] IF !(ExtData[1]->WorkLocal[4] == 2*) GOTO 0x01F9
  1: 0x01D5 [0x32] ExtData[1]->MainSpeed = 19* * 0.1
  2: 0x01D8 [0x1F] MOVE_ENTITY: EventEntity moves to X=-602.788*, Z=610.368*, Y=0.316*
  3: 0x01E0 [0x1F] MOVE_ENTITY: Update entity position (mode=1)
  4: 0x01E2 [0x1F] MOVE_ENTITY: EventEntity moves to X=-605.459*, Z=605.068*, Y=0.123*
  5: 0x01EA [0x1F] MOVE_ENTITY: Update entity position (mode=1)
  6: 0x01EC [0x1F] MOVE_ENTITY: EventEntity moves to X=-603.359*, Z=608.272*, Y=0.211*
  7: 0x01F4 [0x1F] MOVE_ENTITY: Update entity position (mode=1)
  8: 0x01F6 [0x01] GOTO 0x01CD
  9: 0x01F9 [0x00] END_REQSTACK()
```

### Event 65535.17

#### Metadata

| Field        | Value   |
|--------------|---------|
| Entrypoint   | 0x01FA  |
| Data Size    | 6 bytes |
| Instructions | 2       |

```
      00 01 02 03 04 05 06 07  08 09 0A 0B 0C 0D 0E 0F
      -- -- -- -- -- -- -- --  -- -- -- -- -- -- -- --
01F0:                                03 04 00 3E 80 00            ...>..
```

#### Opcodes

```
  0: 0x01FA [0x03] ExtData[1]->WorkLocal[4] = 2*
  1: 0x01FF [0x00] END_REQSTACK()
```

### Event 65535.18

#### Metadata

| Field        | Value    |
|--------------|----------|
| Entrypoint   | 0x0200   |
| Data Size    | 15 bytes |
| Instructions | 3        |

```
      00 01 02 03 04 05 06 07  08 09 0A 0B 0C 0D 0E 0F
      -- -- -- -- -- -- -- --  -- -- -- -- -- -- -- --
0200: 37 3F 80 40 80 41 80 42  80 80 F8 FF FF 7F 00     7?.@.A.B....... 
```

#### Opcodes

```
  0: 0x0200 [0x37] UPDATE_EVENT_POSITION_AND_DIR: x=-600.128*, z=585.578*, y=0.628*, direction=25.0°*
  1: 0x0209 [0x80] LOAD_WAIT(entity=EventEntity)
  2: 0x020E [0x00] END_REQSTACK()
```

### Event 65535.19

#### Metadata

| Field        | Value    |
|--------------|----------|
| Entrypoint   | 0x020F   |
| Data Size    | 54 bytes |
| Instructions | 12       |

```
      00 01 02 03 04 05 06 07  08 09 0A 0B 0C 0D 0E 0F
      -- -- -- -- -- -- -- --  -- -- -- -- -- -- -- --
0200:                                               32                 2
0210: 34 80 1F 00 43 80 44 80  45 80 1F 01 1F 00 46 80  4...C.D.E.....F.
0220: 47 80 48 80 1F 01 1F 00  49 80 4A 80 4B 80 1F 01  G.H.....I.J.K...
0230: 1F 00 4C 80 4D 80 4E 80  1F 01 1F 00 3F 80 40 80  ..L.M.N.....?.@.
0240: 41 80 1F 01 00                                    A....           
```

#### Opcodes

```
  0: 0x020F [0x32] ExtData[1]->MainSpeed = 10* * 0.1
  1: 0x0212 [0x1F] MOVE_ENTITY: EventEntity moves to X=-601.910*, Z=587.743*, Y=0.274*
  2: 0x021A [0x1F] MOVE_ENTITY: Update entity position (mode=1)
  3: 0x021C [0x1F] MOVE_ENTITY: EventEntity moves to X=-600.199*, Z=588.994*, Y=0.347*
  4: 0x0224 [0x1F] MOVE_ENTITY: Update entity position (mode=1)
  5: 0x0226 [0x1F] MOVE_ENTITY: EventEntity moves to X=-599.211*, Z=586.089*, Y=0.586*
  6: 0x022E [0x1F] MOVE_ENTITY: Update entity position (mode=1)
  7: 0x0230 [0x1F] MOVE_ENTITY: EventEntity moves to X=-599.391*, Z=583.375*, Y=0.830*
  8: 0x0238 [0x1F] MOVE_ENTITY: Update entity position (mode=1)
  9: 0x023A [0x1F] MOVE_ENTITY: EventEntity moves to X=-600.128*, Z=585.578*, Y=0.628*
 10: 0x0242 [0x1F] MOVE_ENTITY: Update entity position (mode=1)
 11: 0x0244 [0x00] END_REQSTACK()
```

### Event 65535.20

#### Metadata

| Field        | Value    |
|--------------|----------|
| Entrypoint   | 0x0245   |
| Data Size    | 66 bytes |
| Instructions | 16       |

```
      00 01 02 03 04 05 06 07  08 09 0A 0B 0C 0D 0E 0F
      -- -- -- -- -- -- -- --  -- -- -- -- -- -- -- --
0240:                32 1C 80  1F 00 43 80 44 80 45 80       2....C.D.E.
0250: 1F 01 1C 4F 80 1F 00 46  80 47 80 48 80 1F 01 1C  ...O...F.G.H....
0260: 4F 80 1F 00 49 80 4A 80  4B 80 1F 01 1C 4F 80 1F  O...I.J.K....O..
0270: 00 4C 80 4D 80 4E 80 1F  01 1C 4F 80 1F 00 3F 80  .L.M.N....O...?.
0280: 40 80 41 80 1F 01 00                              @.A....         
```

#### Opcodes

```
  0: 0x0245 [0x32] ExtData[1]->MainSpeed = 19* * 0.1
  1: 0x0248 [0x1F] MOVE_ENTITY: EventEntity moves to X=-601.910*, Z=587.743*, Y=0.274*
  2: 0x0250 [0x1F] MOVE_ENTITY: Update entity position (mode=1)
  3: 0x0252 [0x1C] WAIT(30* ticks)
  4: 0x0255 [0x1F] MOVE_ENTITY: EventEntity moves to X=-600.199*, Z=588.994*, Y=0.347*
  5: 0x025D [0x1F] MOVE_ENTITY: Update entity position (mode=1)
  6: 0x025F [0x1C] WAIT(30* ticks)
  7: 0x0262 [0x1F] MOVE_ENTITY: EventEntity moves to X=-599.211*, Z=586.089*, Y=0.586*
  8: 0x026A [0x1F] MOVE_ENTITY: Update entity position (mode=1)
  9: 0x026C [0x1C] WAIT(30* ticks)
 10: 0x026F [0x1F] MOVE_ENTITY: EventEntity moves to X=-599.391*, Z=583.375*, Y=0.830*
 11: 0x0277 [0x1F] MOVE_ENTITY: Update entity position (mode=1)
 12: 0x0279 [0x1C] WAIT(30* ticks)
 13: 0x027C [0x1F] MOVE_ENTITY: EventEntity moves to X=-600.128*, Z=585.578*, Y=0.628*
 14: 0x0284 [0x1F] MOVE_ENTITY: Update entity position (mode=1)
 15: 0x0286 [0x00] END_REQSTACK()
```

### Event 65535.21

#### Metadata

| Field        | Value    |
|--------------|----------|
| Entrypoint   | 0x0287   |
| Data Size    | 15 bytes |
| Instructions | 3        |

```
      00 01 02 03 04 05 06 07  08 09 0A 0B 0C 0D 0E 0F
      -- -- -- -- -- -- -- --  -- -- -- -- -- -- -- --
0280:                      37  50 80 51 80 52 80 53 80         7P.Q.R.S.
0290: 80 F8 FF FF 7F 00                                 ......          
```

#### Opcodes

```
  0: 0x0287 [0x37] UPDATE_EVENT_POSITION_AND_DIR: x=-601.165*, z=586.560*, y=0.464*, direction=22.6°*
  1: 0x0290 [0x80] LOAD_WAIT(entity=EventEntity)
  2: 0x0295 [0x00] END_REQSTACK()
```

### Event 65535.22

#### Metadata

| Field        | Value    |
|--------------|----------|
| Entrypoint   | 0x0296   |
| Data Size    | 73 bytes |
| Instructions | 17       |

```
      00 01 02 03 04 05 06 07  08 09 0A 0B 0C 0D 0E 0F
      -- -- -- -- -- -- -- --  -- -- -- -- -- -- -- --
0290:                   32 1C  80 1F 00 43 80 44 80 45        2....C.D.E
02A0: 80 1F 01 1F 00 46 80 47  80 48 80 1F 01 1F 00 49  .....F.G.H.....I
02B0: 80 4A 80 4B 80 1F 01 1F  00 4C 80 4D 80 4E 80 1F  .J.K.....L.M.N..
02C0: 01 1C 4F 80 1E 44 10 0F  01 1C 54 80 1F 00 55 80  ..O..D....T...U.
02D0: 56 80 57 80 1F 01 1C 4F  80 1E 44 10 0F 01 00     V.W....O..D.... 
```

#### Opcodes

```
  0: 0x0296 [0x32] ExtData[1]->MainSpeed = 19* * 0.1
  1: 0x0299 [0x1F] MOVE_ENTITY: EventEntity moves to X=-601.910*, Z=587.743*, Y=0.274*
  2: 0x02A1 [0x1F] MOVE_ENTITY: Update entity position (mode=1)
  3: 0x02A3 [0x1F] MOVE_ENTITY: EventEntity moves to X=-600.199*, Z=588.994*, Y=0.347*
  4: 0x02AB [0x1F] MOVE_ENTITY: Update entity position (mode=1)
  5: 0x02AD [0x1F] MOVE_ENTITY: EventEntity moves to X=-599.211*, Z=586.089*, Y=0.586*
  6: 0x02B5 [0x1F] MOVE_ENTITY: Update entity position (mode=1)
  7: 0x02B7 [0x1F] MOVE_ENTITY: EventEntity moves to X=-599.391*, Z=583.375*, Y=0.830*
  8: 0x02BF [0x1F] MOVE_ENTITY: Update entity position (mode=1)
  9: 0x02C1 [0x1C] WAIT(30* ticks)
 10: 0x02C4 [0x1E] EventEntity looks at Unnamed NPC (ID: 17764420/0x010F1044) and starts talking
 11: 0x02C9 [0x1C] WAIT(120* ticks)
 12: 0x02CC [0x1F] MOVE_ENTITY: EventEntity moves to X=-602.007*, Z=587.764*, Y=0.268*
 13: 0x02D4 [0x1F] MOVE_ENTITY: Update entity position (mode=1)
 14: 0x02D6 [0x1C] WAIT(30* ticks)
 15: 0x02D9 [0x1E] EventEntity looks at Unnamed NPC (ID: 17764420/0x010F1044) and starts talking
 16: 0x02DE [0x00] END_REQSTACK()
```

### Event 65535.23

#### Metadata

| Field        | Value    |
|--------------|----------|
| Entrypoint   | 0x02DF   |
| Data Size    | 50 bytes |
| Instructions | 12       |

```
      00 01 02 03 04 05 06 07  08 09 0A 0B 0C 0D 0E 0F
      -- -- -- -- -- -- -- --  -- -- -- -- -- -- -- --
02D0:                                               32                 2
02E0: 34 80 1F 00 58 80 59 80  5A 80 1F 01 1C 5B 80 1F  4...X.Y.Z....[..
02F0: 00 5C 80 5D 80 5E 80 1F  01 1C 5B 80 1F 00 3F 80  .\.].^....[...?.
0300: 40 80 41 80 1F 01 4B 47  10 0F 01 5F 80 1C 5B 80  @.A...KG..._..[.
0310: 00                                                .               
```

#### Opcodes

```
  0: 0x02DF [0x32] ExtData[1]->MainSpeed = 10* * 0.1
  1: 0x02E2 [0x1F] MOVE_ENTITY: EventEntity moves to X=-600.221*, Z=588.558*, Y=0.369*
  2: 0x02EA [0x1F] MOVE_ENTITY: Update entity position (mode=1)
  3: 0x02EC [0x1C] WAIT(60* ticks)
  4: 0x02EF [0x1F] MOVE_ENTITY: EventEntity moves to X=-602.144*, Z=586.825*, Y=0.376*
  5: 0x02F7 [0x1F] MOVE_ENTITY: Update entity position (mode=1)
  6: 0x02F9 [0x1C] WAIT(60* ticks)
  7: 0x02FC [0x1F] MOVE_ENTITY: EventEntity moves to X=-600.128*, Z=585.578*, Y=0.628*
  8: 0x0304 [0x1F] MOVE_ENTITY: Update entity position (mode=1)
  9: 0x0306 [0x4B] UPDATE_ENTITY_YAW(entity=Unnamed NPC (ID: 17764423/0x010F1047), yaw=11.8°*)
 10: 0x030D [0x1C] WAIT(60* ticks)
 11: 0x0310 [0x00] END_REQSTACK()
```

### Event 65535.24

#### Metadata

| Field        | Value    |
|--------------|----------|
| Entrypoint   | 0x0311   |
| Data Size    | 50 bytes |
| Instructions | 12       |

```
      00 01 02 03 04 05 06 07  08 09 0A 0B 0C 0D 0E 0F
      -- -- -- -- -- -- -- --  -- -- -- -- -- -- -- --
0310:    32 1C 80 1F 00 60 80  61 80 62 80 1F 01 1C 5B   2....`.a.b....[
0320: 80 1F 00 5C 80 5D 80 5E  80 1F 01 1C 5B 80 1F 00  ...\.].^....[...
0330: 3F 80 40 80 41 80 1F 01  4B 47 10 0F 01 5F 80 1C  ?.@.A...KG..._..
0340: 5B 80 00                                          [..             
```

#### Opcodes

```
  0: 0x0311 [0x32] ExtData[1]->MainSpeed = 19* * 0.1
  1: 0x0314 [0x1F] MOVE_ENTITY: EventEntity moves to X=-599.892*, Z=588.477*, Y=0.373*
  2: 0x031C [0x1F] MOVE_ENTITY: Update entity position (mode=1)
  3: 0x031E [0x1C] WAIT(60* ticks)
  4: 0x0321 [0x1F] MOVE_ENTITY: EventEntity moves to X=-602.144*, Z=586.825*, Y=0.376*
  5: 0x0329 [0x1F] MOVE_ENTITY: Update entity position (mode=1)
  6: 0x032B [0x1C] WAIT(60* ticks)
  7: 0x032E [0x1F] MOVE_ENTITY: EventEntity moves to X=-600.128*, Z=585.578*, Y=0.628*
  8: 0x0336 [0x1F] MOVE_ENTITY: Update entity position (mode=1)
  9: 0x0338 [0x4B] UPDATE_ENTITY_YAW(entity=Unnamed NPC (ID: 17764423/0x010F1047), yaw=11.8°*)
 10: 0x033F [0x1C] WAIT(60* ticks)
 11: 0x0342 [0x00] END_REQSTACK()
```

### Event 65535.25

#### Metadata

| Field        | Value    |
|--------------|----------|
| Entrypoint   | 0x0343   |
| Data Size    | 67 bytes |
| Instructions | 15       |

```
      00 01 02 03 04 05 06 07  08 09 0A 0B 0C 0D 0E 0F
      -- -- -- -- -- -- -- --  -- -- -- -- -- -- -- --
0340:          32 05 80 1F 00  63 80 64 80 65 80 1F 01     2....c.d.e...
0350: 4B 47 10 0F 01 66 80 1C  5B 80 1F 00 67 80 68 80  KG...f..[...g.h.
0360: 69 80 1F 01 4B 47 10 0F  01 6A 80 1C 6B 80 1F 00  i...KG...j..k...
0370: 6C 80 6D 80 6E 80 1F 01  1C 4F 80 4B 47 10 0F 01  l.m.n....O.KG...
0380: 6F 80 1C 5B 80 00                                 o..[..          
```

#### Opcodes

```
  0: 0x0343 [0x32] ExtData[1]->MainSpeed = 57* * 0.1
  1: 0x0346 [0x1F] MOVE_ENTITY: EventEntity moves to X=-599.295*, Z=590.678*, Y=0.264*
  2: 0x034E [0x1F] MOVE_ENTITY: Update entity position (mode=1)
  3: 0x0350 [0x4B] UPDATE_ENTITY_YAW(entity=Unnamed NPC (ID: 17764423/0x010F1047), yaw=5.3°*)
  4: 0x0357 [0x1C] WAIT(60* ticks)
  5: 0x035A [0x1F] MOVE_ENTITY: EventEntity moves to X=-604.353*, Z=586.292*, Y=0.138*
  6: 0x0362 [0x1F] MOVE_ENTITY: Update entity position (mode=1)
  7: 0x0364 [0x4B] UPDATE_ENTITY_YAW(entity=Unnamed NPC (ID: 17764423/0x010F1047), yaw=0.2°*)
  8: 0x036B [0x1C] WAIT(240* ticks)
  9: 0x036E [0x1F] MOVE_ENTITY: EventEntity moves to X=-600.328*, Z=582.410*, Y=0.802*
 10: 0x0376 [0x1F] MOVE_ENTITY: Update entity position (mode=1)
 11: 0x0378 [0x1C] WAIT(30* ticks)
 12: 0x037B [0x4B] UPDATE_ENTITY_YAW(entity=Unnamed NPC (ID: 17764423/0x010F1047), yaw=16.6°*)
 13: 0x0382 [0x1C] WAIT(60* ticks)
 14: 0x0385 [0x00] END_REQSTACK()
```

### Event 65535.26

#### Metadata

| Field        | Value    |
|--------------|----------|
| Entrypoint   | 0x0386   |
| Data Size    | 14 bytes |
| Instructions | 4        |

```
      00 01 02 03 04 05 06 07  08 09 0A 0B 0C 0D 0E 0F
      -- -- -- -- -- -- -- --  -- -- -- -- -- -- -- --
0380:                   32 34  80 1F 00 70 80 71 80 72        24...p.q.r
0390: 80 1F 01 00                                       ....            
```

#### Opcodes

```
  0: 0x0386 [0x32] ExtData[1]->MainSpeed = 10* * 0.1
  1: 0x0389 [0x1F] MOVE_ENTITY: EventEntity moves to X=-599.148*, Z=589.043*, Y=0.345*
  2: 0x0391 [0x1F] MOVE_ENTITY: Update entity position (mode=1)
  3: 0x0393 [0x00] END_REQSTACK()
```

### Event 65535.27

#### Metadata

| Field        | Value    |
|--------------|----------|
| Entrypoint   | 0x0394   |
| Data Size    | 51 bytes |
| Instructions | 11       |

```
      00 01 02 03 04 05 06 07  08 09 0A 0B 0C 0D 0E 0F
      -- -- -- -- -- -- -- --  -- -- -- -- -- -- -- --
0390:             32 34 80 1F  00 73 80 74 80 05 80 1F      24...s.t....
03A0: 01 1F 00 75 80 76 80 77  80 1F 01 1F 00 78 80 79  ...u.v.w.....x.y
03B0: 80 7A 80 1F 01 1E 44 10  0F 01 1C 4F 80 4A 44 10  .z....D....O.JD.
03C0: 0F 01 45 10 0F 01 00                              ..E....         
```

#### Opcodes

```
  0: 0x0394 [0x32] ExtData[1]->MainSpeed = 10* * 0.1
  1: 0x0397 [0x1F] MOVE_ENTITY: EventEntity moves to X=-604.257*, Z=586.573*, Y=0.057*
  2: 0x039F [0x1F] MOVE_ENTITY: Update entity position (mode=1)
  3: 0x03A1 [0x1F] MOVE_ENTITY: EventEntity moves to X=-603.318*, Z=588.527*, Y=0.196*
  4: 0x03A9 [0x1F] MOVE_ENTITY: Update entity position (mode=1)
  5: 0x03AB [0x1F] MOVE_ENTITY: EventEntity moves to X=-601.495*, Z=586.040*, Y=0.496*
  6: 0x03B3 [0x1F] MOVE_ENTITY: Update entity position (mode=1)
  7: 0x03B5 [0x1E] EventEntity looks at Unnamed NPC (ID: 17764420/0x010F1044) and starts talking
  8: 0x03BA [0x1C] WAIT(30* ticks)
  9: 0x03BD [0x4A] Unnamed NPC (ID: 17764420/0x010F1044) looks at Unnamed NPC (ID: 17764421/0x010F1045)
 10: 0x03C6 [0x00] END_REQSTACK()
```

### Event 65535.28

#### Metadata

| Field        | Value    |
|--------------|----------|
| Entrypoint   | 0x03C7   |
| Data Size    | 14 bytes |
| Instructions | 4        |

```
      00 01 02 03 04 05 06 07  08 09 0A 0B 0C 0D 0E 0F
      -- -- -- -- -- -- -- --  -- -- -- -- -- -- -- --
03C0:                      32  05 80 1F 00 70 80 71 80         2....p.q.
03D0: 72 80 1F 01 00                                    r....           
```

#### Opcodes

```
  0: 0x03C7 [0x32] ExtData[1]->MainSpeed = 57* * 0.1
  1: 0x03CA [0x1F] MOVE_ENTITY: EventEntity moves to X=-599.148*, Z=589.043*, Y=0.345*
  2: 0x03D2 [0x1F] MOVE_ENTITY: Update entity position (mode=1)
  3: 0x03D4 [0x00] END_REQSTACK()
```

### Event 65535.29

#### Metadata

| Field        | Value    |
|--------------|----------|
| Entrypoint   | 0x03D5   |
| Data Size    | 51 bytes |
| Instructions | 11       |

```
      00 01 02 03 04 05 06 07  08 09 0A 0B 0C 0D 0E 0F
      -- -- -- -- -- -- -- --  -- -- -- -- -- -- -- --
03D0:                32 05 80  1F 00 73 80 74 80 05 80       2....s.t...
03E0: 1F 01 1F 00 75 80 76 80  77 80 1F 01 1F 00 78 80  ....u.v.w.....x.
03F0: 79 80 7A 80 1F 01 1E 44  10 0F 01 1C 4F 80 4A 44  y.z....D....O.JD
0400: 10 0F 01 47 10 0F 01 00                           ...G....        
```

#### Opcodes

```
  0: 0x03D5 [0x32] ExtData[1]->MainSpeed = 57* * 0.1
  1: 0x03D8 [0x1F] MOVE_ENTITY: EventEntity moves to X=-604.257*, Z=586.573*, Y=0.057*
  2: 0x03E0 [0x1F] MOVE_ENTITY: Update entity position (mode=1)
  3: 0x03E2 [0x1F] MOVE_ENTITY: EventEntity moves to X=-603.318*, Z=588.527*, Y=0.196*
  4: 0x03EA [0x1F] MOVE_ENTITY: Update entity position (mode=1)
  5: 0x03EC [0x1F] MOVE_ENTITY: EventEntity moves to X=-601.495*, Z=586.040*, Y=0.496*
  6: 0x03F4 [0x1F] MOVE_ENTITY: Update entity position (mode=1)
  7: 0x03F6 [0x1E] EventEntity looks at Unnamed NPC (ID: 17764420/0x010F1044) and starts talking
  8: 0x03FB [0x1C] WAIT(30* ticks)
  9: 0x03FE [0x4A] Unnamed NPC (ID: 17764420/0x010F1044) looks at Unnamed NPC (ID: 17764423/0x010F1047)
 10: 0x0407 [0x00] END_REQSTACK()
```

### Event 65535.30

#### Metadata

| Field        | Value    |
|--------------|----------|
| Entrypoint   | 0x0408   |
| Data Size    | 59 bytes |
| Instructions | 13       |

```
      00 01 02 03 04 05 06 07  08 09 0A 0B 0C 0D 0E 0F
      -- -- -- -- -- -- -- --  -- -- -- -- -- -- -- --
0400:                          32 34 80 1F 00 7B 80 7C          24...{.|
0410: 80 7D 80 1F 01 1F 00 7E  80 7F 80 80 80 1F 01 1F  .}.....~........
0420: 00 81 80 82 80 83 80 1F  01 1F 00 84 80 85 80 86  ................
0430: 80 1F 01 1F 00 87 80 88  80 89 80 1F 01 1E 44 10  ..............D.
0440: 0F 01 00                                          ...             
```

#### Opcodes

```
  0: 0x0408 [0x32] ExtData[1]->MainSpeed = 10* * 0.1
  1: 0x040B [0x1F] MOVE_ENTITY: EventEntity moves to X=-601.361*, Z=584.507*, Y=0.542*
  2: 0x0413 [0x1F] MOVE_ENTITY: Update entity position (mode=1)
  3: 0x0415 [0x1F] MOVE_ENTITY: EventEntity moves to X=-600.414*, Z=583.859*, Y=0.704*
  4: 0x041D [0x1F] MOVE_ENTITY: Update entity position (mode=1)
  5: 0x041F [0x1F] MOVE_ENTITY: EventEntity moves to X=-599.376*, Z=585.276*, Y=0.668*
  6: 0x0427 [0x1F] MOVE_ENTITY: Update entity position (mode=1)
  7: 0x0429 [0x1F] MOVE_ENTITY: EventEntity moves to X=-598.992*, Z=587.260*, Y=0.468*
  8: 0x0431 [0x1F] MOVE_ENTITY: Update entity position (mode=1)
  9: 0x0433 [0x1F] MOVE_ENTITY: EventEntity moves to X=-599.942*, Z=587.474*, Y=0.447*
 10: 0x043B [0x1F] MOVE_ENTITY: Update entity position (mode=1)
 11: 0x043D [0x1E] EventEntity looks at Unnamed NPC (ID: 17764420/0x010F1044) and starts talking
 12: 0x0442 [0x00] END_REQSTACK()
```

### Event 65535.31

#### Metadata

| Field        | Value    |
|--------------|----------|
| Entrypoint   | 0x0443   |
| Data Size    | 69 bytes |
| Instructions | 15       |

```
      00 01 02 03 04 05 06 07  08 09 0A 0B 0C 0D 0E 0F
      -- -- -- -- -- -- -- --  -- -- -- -- -- -- -- --
0440:          32 05 80 1F 00  8A 80 8B 80 8C 80 1F 01     2............
0450: 1F 00 8D 80 8E 80 8F 80  1F 01 1F 00 90 80 91 80  ................
0460: 92 80 1F 01 1F 00 93 80  94 80 95 80 1F 01 1F 00  ................
0470: 96 80 97 80 98 80 1F 01  1F 00 99 80 9A 80 9B 80  ................
0480: 1F 01 1E 44 10 0F 01 00                           ...D....        
```

#### Opcodes

```
  0: 0x0443 [0x32] ExtData[1]->MainSpeed = 57* * 0.1
  1: 0x0446 [0x1F] MOVE_ENTITY: EventEntity moves to X=-602.454*, Z=588.333*, Y=0.247*
  2: 0x044E [0x1F] MOVE_ENTITY: Update entity position (mode=1)
  3: 0x0450 [0x1F] MOVE_ENTITY: EventEntity moves to X=-603.634*, Z=585.657*, Y=0.144*
  4: 0x0458 [0x1F] MOVE_ENTITY: Update entity position (mode=1)
  5: 0x045A [0x1F] MOVE_ENTITY: EventEntity moves to X=-602.421*, Z=582.680*, Y=0.396*
  6: 0x0462 [0x1F] MOVE_ENTITY: Update entity position (mode=1)
  7: 0x0464 [0x1F] MOVE_ENTITY: EventEntity moves to X=-599.175*, Z=582.899*, Y=0.854*
  8: 0x046C [0x1F] MOVE_ENTITY: Update entity position (mode=1)
  9: 0x046E [0x1F] MOVE_ENTITY: EventEntity moves to X=-598.432*, Z=587.737*, Y=0.410*
 10: 0x0476 [0x1F] MOVE_ENTITY: Update entity position (mode=1)
 11: 0x0478 [0x1F] MOVE_ENTITY: EventEntity moves to X=-599.890*, Z=589.432*, Y=0.326*
 12: 0x0480 [0x1F] MOVE_ENTITY: Update entity position (mode=1)
 13: 0x0482 [0x1E] EventEntity looks at Unnamed NPC (ID: 17764420/0x010F1044) and starts talking
 14: 0x0487 [0x00] END_REQSTACK()
```

### Event 65535.32

#### Metadata

| Field        | Value    |
|--------------|----------|
| Entrypoint   | 0x0488   |
| Data Size    | 15 bytes |
| Instructions | 3        |

```
      00 01 02 03 04 05 06 07  08 09 0A 0B 0C 0D 0E 0F
      -- -- -- -- -- -- -- --  -- -- -- -- -- -- -- --
0480:                          37 55 80 56 80 57 80 42          7U.V.W.B
0490: 80 80 F8 FF FF 7F 00                              .......         
```

#### Opcodes

```
  0: 0x0488 [0x37] UPDATE_EVENT_POSITION_AND_DIR: x=-602.007*, z=587.764*, y=0.268*, direction=25.0°*
  1: 0x0491 [0x80] LOAD_WAIT(entity=EventEntity)
  2: 0x0496 [0x00] END_REQSTACK()
```
