# 17764591 - Ibwam

## Common Data

| Field            | Value                    |
|------------------|--------------------------|
| Zone             | Windurst Woods (ID: 241) |
| Block Size       | 700 bytes                |
| Total Events     | 8                        |
| References Count | 33                       |

## List of Events

| Event ID              | Entrypoint   |   Size |   Instructions |
|-----------------------|--------------|--------|----------------|
| [65535](#event-65535) | 0x0000       |      1 |              1 |
| [736](#event-736)     | 0x0001       |    133 |             29 |
| [737](#event-737)     | 0x0086       |     44 |              8 |
| [738](#event-738)     | 0x00B2       |     19 |              7 |
| [739](#event-739)     | 0x00C5       |     96 |             18 |
| [740](#event-740)     | 0x0125       |     14 |              6 |
| [793](#event-793)     | 0x0133       |    108 |             22 |
| [794](#event-794)     | 0x019F       |    102 |             17 |

## DAT References (imed_data)

|   Index | Hex Value   |   Dec Value |
|---------|-------------|-------------|
|       0 | 0x28A2      |       10402 |
|       1 | 0x28A3      |       10403 |
|       2 | 0x0000      |           0 |
|       3 | 0x28A4      |       10404 |
|       4 | 0x0001      |           1 |
|       5 | 0x28A5      |       10405 |
|       6 | 0x02E9      |         745 |
|       7 | 0x28A6      |       10406 |
|       8 | 0x003C      |          60 |
|       9 | 0x28A7      |       10407 |
|      10 | 0x28A8      |       10408 |
|      11 | 0x28A9      |       10409 |
|      12 | 0x002D      |          45 |
|      13 | 0x28AA      |       10410 |
|      14 | 0x28AB      |       10411 |
|      15 | 0x28AC      |       10412 |
|      16 | 0x28AD      |       10413 |
|      17 | 0x28AE      |       10414 |
|      18 | 0x28AF      |       10415 |
|      19 | 0x00C9      |         201 |
|      20 | 0x28B1      |       10417 |
|      21 | 0x0014      |          20 |
|      22 | 0x3365      |       13157 |
|      23 | 0x3366      |       13158 |
|      24 | 0x3367      |       13159 |
|      25 | 0x012C      |         300 |
|      26 | 0x000A      |          10 |
|      27 | 0x3368      |       13160 |
|      28 | 0x3369      |       13161 |
|      29 | 0x336A      |       13162 |
|      30 | 0x007A      |         122 |
|      31 | 0x0104      |         260 |
|      32 | 0x00C8      |         200 |

## String References

- **10402**: Hey [mister/lady], hold it right there! Are you an "adventurer"?
- **10403**: 'Fess up. [Yes, I am./No way!]
- **10404**: That's what I thought! Here, put this on, quick! Heheh!
- **10405**: No way!? B-but...this would just look so good on you! Here, take it! Heheh!
- **10406**: Ibwam tacks the $3 on you while you aren't looking...
- **10407**: Now you're in style! See how this badge is shaped like a wildcat's head? That's the mark of our mercenary company, "Salaheem's Sentinels"!
- **10408**: Our company is highly renowned for its excellence in the Near East, where we're officially approved by the Empire! It's just that no one there wants to joi--um, what was I saying!? Oh yes, we are currently recruiting!
- **10409**: We'd give a hearty welcome to a rugged adventurer like you! Hey, why don't you go tell all your friends about us? Thanks! Go on now!
- **10410**: Hey, listen! Listen! People are showing interest in Salaheem's Sentinels! This is fantastic!
- **10411**: Shhh! I don't wanna say this out loud, but the wildcat's eyes on the $3 will shine brightly near people who have heard about Aht Urhgan!
- **10412**: <Player>! <Player>! We're swamped with inquiries about Salaheem's Sentinels now! This is stupendous! How can I thank you!?
- **10413**: Yikes! The wildcat's eyes are glazed over like a fish ripe for the carving... It must be all out of juice!
- **10414**: Ibwam snatches up your $3!
- **10415**: Here, I'll let you have this. It's a little present from me! You'll get a warm welcome when you come join our company in the Near East!
- **10417**: You're the master of promotion that everyone at our company is talking about! The next time you visit Al Zahbi, make sure you go to Salaheem's Sentinels.
- **13157**: Hey, I remember you! You're that [fellow/lady] that helped me round up all those new recruits...I think. I'm not that good with faces...
- **13158**: No wait, I remember now! You took one of our badges around Windurst and got people talking about the Sentinels...I think. You adventurers look so much alike...
- **13159**: Anyway, as a way to say thanks for all the help I think I recall you doing for us, the president herself has given me the OK to teleport you directly to Aht Urhgan Whitegate at any time you like!
- **13160**: All you have to do is trade me the tiny fee of $0 gil, and we can be on our way!
- **13161**: Alright, it looks like everything is in order.
- **13162**: Now hold on!

## Events

### Event 65535

#### Metadata

| Field        | Value   |
|--------------|---------|
| Entrypoint   | 0x0000  |
| Data Size    | 1 bytes |
| Instructions | 1       |

```
      00 01 02 03 04 05 06 07  08 09 0A 0B 0C 0D 0E 0F
      -- -- -- -- -- -- -- --  -- -- -- -- -- -- -- --
0000: 00                                                .               
```

#### Opcodes

```
  0: 0x0000 [0x00] END_REQSTACK()
```

### Event 736

#### Metadata

| Field        | Value     |
|--------------|-----------|
| Entrypoint   | 0x0001    |
| Data Size    | 133 bytes |
| Instructions | 29        |

```
      00 01 02 03 04 05 06 07  08 09 0A 0B 0C 0D 0E 0F
      -- -- -- -- -- -- -- --  -- -- -- -- -- -- -- --
0000:    42 1E F0 FF FF 7F 1D  00 80 23 24 01 80 02 80   B........#$....
0010: 02 80 25 02 00 10 02 80  00 31 00 66 02 80 F8 FF  ..%......1.f....
0020: FF 7F F8 FF FF 7F 70 61  73 30 1D 03 80 23 01 4F  ......pas0...#.O
0030: 00 02 00 10 04 80 00 4F  00 66 02 80 F8 FF FF 7F  .......O.f......
0040: F8 FF FF 7F 70 61 73 30  1D 05 80 23 01 4F 00 03  ....pas0...#.O..
0050: 02 10 06 80 48 07 80 1C  08 80 66 02 80 F8 FF FF  ....H.....f.....
0060: 7F F8 FF FF 7F 74 6C 6B  30 1D 09 80 23 1D 0A 80  .....tlk0...#...
0070: 23 66 02 80 F8 FF FF 7F  F8 FF FF 7F 74 65 6E 30  #f..........ten0
0080: 1D 0B 80 23 21 00                                 ...#!.          
```

#### Opcodes

```
  0: 0x0001 [0x42] SET_CLI_EVENT_CANCEL_DATA()
  1: 0x0002 [0x1E] EventEntity looks at LocalPlayer and starts talking
  2: 0x0007 [0x1D] PRINT_EVENT_MESSAGE(message_id=10402*)
    → "Hey [mister/lady], hold it right there! Are you an "adventurer"?"
  3: 0x000A [0x23] WAIT_FOR_DIALOG_INTERACTION
  4: 0x000B [0x24] CREATE_DIALOG(message_id=10403*, default_option=0*, option_flags=0*)
    → "'Fess up. [Yes, I am./No way!]"
  5: 0x0012 [0x25] WAIT_DIALOG_SELECT()
  6: 0x0013 [0x02] IF !(Work_Zone[0] == 0*) GOTO 0x0031
  7: 0x001B [0x66] LOAD_EXT_SCHEDULER_MAIN: Load scheduler "pas0" with entities [EventEntity, EventEntity], work=0*
  8: 0x002A [0x1D] PRINT_EVENT_MESSAGE(message_id=10404*)
    → "That's what I thought! Here, put this on, quick! Heheh!"
  9: 0x002D [0x23] WAIT_FOR_DIALOG_INTERACTION
 10: 0x002E [0x01] GOTO 0x004F
 11: 0x0031 [0x02] IF !(Work_Zone[0] == 1*) GOTO 0x004F
 12: 0x0039 [0x66] LOAD_EXT_SCHEDULER_MAIN: Load scheduler "pas0" with entities [EventEntity, EventEntity], work=0*
 13: 0x0048 [0x1D] PRINT_EVENT_MESSAGE(message_id=10405*)
    → "No way!? B-but...this would just look so good on you! Here, take it! Heheh!"
 14: 0x004B [0x23] WAIT_FOR_DIALOG_INTERACTION
 15: 0x004C [0x01] GOTO 0x004F

SUBROUTINE_004F:
 16: 0x004F [0x03] Work_Zone[2] = 745*
 17: 0x0054 [0x48] [System] [10406*]:
    → "Ibwam tacks the $3 on you while you aren't looking..."
 18: 0x0057 [0x1C] WAIT(60* ticks)
 19: 0x005A [0x66] LOAD_EXT_SCHEDULER_MAIN: Load scheduler "tlk0" with entities [EventEntity, EventEntity], work=0*
 20: 0x0069 [0x1D] PRINT_EVENT_MESSAGE(message_id=10407*)
    → "Now you're in style! See how this badge is shaped like a wildcat's head? That's the mark of our mercenary company, "Salaheem's Sentinels"!"
 21: 0x006C [0x23] WAIT_FOR_DIALOG_INTERACTION
 22: 0x006D [0x1D] PRINT_EVENT_MESSAGE(message_id=10408*)
    → "Our company is highly renowned for its excellence in the Near East, where we're officially approved by the Empire! It's just that no one there wants to joi--um, what was I saying!? Oh yes, we are currently recruiting!"
 23: 0x0070 [0x23] WAIT_FOR_DIALOG_INTERACTION
 24: 0x0071 [0x66] LOAD_EXT_SCHEDULER_MAIN: Load scheduler "ten0" with entities [EventEntity, EventEntity], work=0*
 25: 0x0080 [0x1D] PRINT_EVENT_MESSAGE(message_id=10409*)
    → "We'd give a hearty welcome to a rugged adventurer like you! Hey, why don't you go tell all your friends about us? Thanks! Go on now!"
 26: 0x0083 [0x23] WAIT_FOR_DIALOG_INTERACTION
 27: 0x0084 [0x21] END_EVENT
 28: 0x0085 [0x00] END_REQSTACK()
```

### Event 737

#### Metadata

| Field        | Value    |
|--------------|----------|
| Entrypoint   | 0x0086   |
| Data Size    | 44 bytes |
| Instructions | 8        |

```
      00 01 02 03 04 05 06 07  08 09 0A 0B 0C 0D 0E 0F
      -- -- -- -- -- -- -- --  -- -- -- -- -- -- -- --
0080:                   1E F0  FF FF 7F 1C 0C 80 66 02        ........f.
0090: 80 F8 FF FF 7F F8 FF FF  7F 74 6C 6B 30 1D 0D 80  .........tlk0...
00A0: 23 66 02 80 F8 FF FF 7F  F8 FF FF 7F 74 65 6E 30  #f..........ten0
00B0: 21 00                                             !.              
```

#### Opcodes

```
  0: 0x0086 [0x1E] EventEntity looks at LocalPlayer and starts talking
  1: 0x008B [0x1C] WAIT(45* ticks)
  2: 0x008E [0x66] LOAD_EXT_SCHEDULER_MAIN: Load scheduler "tlk0" with entities [EventEntity, EventEntity], work=0*
  3: 0x009D [0x1D] PRINT_EVENT_MESSAGE(message_id=10410*)
    → "Hey, listen! Listen! People are showing interest in Salaheem's Sentinels! This is fantastic!"
  4: 0x00A0 [0x23] WAIT_FOR_DIALOG_INTERACTION
  5: 0x00A1 [0x66] LOAD_EXT_SCHEDULER_MAIN: Load scheduler "ten0" with entities [EventEntity, EventEntity], work=0*
  6: 0x00B0 [0x21] END_EVENT
  7: 0x00B1 [0x00] END_REQSTACK()
```

### Event 738

#### Metadata

| Field        | Value    |
|--------------|----------|
| Entrypoint   | 0x00B2   |
| Data Size    | 19 bytes |
| Instructions | 7        |

```
      00 01 02 03 04 05 06 07  08 09 0A 0B 0C 0D 0E 0F
      -- -- -- -- -- -- -- --  -- -- -- -- -- -- -- --
00B0:       1E F0 FF FF 7F 1C  0C 80 03 02 10 06 80 1D    ..............
00C0: 0E 80 23 21 00                                    ..#!.           
```

#### Opcodes

```
  0: 0x00B2 [0x1E] EventEntity looks at LocalPlayer and starts talking
  1: 0x00B7 [0x1C] WAIT(45* ticks)
  2: 0x00BA [0x03] Work_Zone[2] = 745*
  3: 0x00BF [0x1D] PRINT_EVENT_MESSAGE(message_id=10411*)
    → "Shhh! I don't wanna say this out loud, but the wildcat's eyes on the $3 will shine brightly near people who have heard about Aht Urhgan!"
  4: 0x00C2 [0x23] WAIT_FOR_DIALOG_INTERACTION
  5: 0x00C3 [0x21] END_EVENT
  6: 0x00C4 [0x00] END_REQSTACK()
```

### Event 739

#### Metadata

| Field        | Value    |
|--------------|----------|
| Entrypoint   | 0x00C5   |
| Data Size    | 96 bytes |
| Instructions | 18       |

```
      00 01 02 03 04 05 06 07  08 09 0A 0B 0C 0D 0E 0F
      -- -- -- -- -- -- -- --  -- -- -- -- -- -- -- --
00C0:                42 1E F0  FF FF 7F 1C 0C 80 66 02       B........f.
00D0: 80 F8 FF FF 7F F8 FF FF  7F 74 6C 6B 30 1D 0F 80  .........tlk0...
00E0: 23 66 02 80 F8 FF FF 7F  F8 FF FF 7F 74 65 6E 30  #f..........ten0
00F0: 1D 10 80 23 03 02 10 06  80 48 11 80 66 02 80 F8  ...#.....H..f...
0100: FF FF 7F F8 FF FF 7F 70  61 73 30 1D 12 80 23 45  .......pas0...#E
0110: 13 80 F0 FF FF 7F F0 FF  FF 7F 71 73 74 63 02 80  ..........qstc..
0120: 1C 08 80 21 00                                    ...!.           
```

#### Opcodes

```
  0: 0x00C5 [0x42] SET_CLI_EVENT_CANCEL_DATA()
  1: 0x00C6 [0x1E] EventEntity looks at LocalPlayer and starts talking
  2: 0x00CB [0x1C] WAIT(45* ticks)
  3: 0x00CE [0x66] LOAD_EXT_SCHEDULER_MAIN: Load scheduler "tlk0" with entities [EventEntity, EventEntity], work=0*
  4: 0x00DD [0x1D] PRINT_EVENT_MESSAGE(message_id=10412*)
    → "<Player>! <Player>! We're swamped with inquiries about Salaheem's Sentinels now! This is stupendous! How can I thank you!?"
  5: 0x00E0 [0x23] WAIT_FOR_DIALOG_INTERACTION
  6: 0x00E1 [0x66] LOAD_EXT_SCHEDULER_MAIN: Load scheduler "ten0" with entities [EventEntity, EventEntity], work=0*
  7: 0x00F0 [0x1D] PRINT_EVENT_MESSAGE(message_id=10413*)
    → "Yikes! The wildcat's eyes are glazed over like a fish ripe for the carving... It must be all out of juice!"
  8: 0x00F3 [0x23] WAIT_FOR_DIALOG_INTERACTION
  9: 0x00F4 [0x03] Work_Zone[2] = 745*
 10: 0x00F9 [0x48] [System] [10414*]:
    → "Ibwam snatches up your $3!"
 11: 0x00FC [0x66] LOAD_EXT_SCHEDULER_MAIN: Load scheduler "pas0" with entities [EventEntity, EventEntity], work=0*
 12: 0x010B [0x1D] PRINT_EVENT_MESSAGE(message_id=10415*)
    → "Here, I'll let you have this. It's a little present from me! You'll get a warm welcome when you come join our company in the Near East!"
 13: 0x010E [0x23] WAIT_FOR_DIALOG_INTERACTION
 14: 0x010F [0x45] LOAD_SCHEDULED_TASK: Load scheduler "qstc" with entities [LocalPlayer, LocalPlayer], work=[201*, 0*]
 15: 0x0120 [0x1C] WAIT(60* ticks)
 16: 0x0123 [0x21] END_EVENT
 17: 0x0124 [0x00] END_REQSTACK()
```

### Event 740

#### Metadata

| Field        | Value    |
|--------------|----------|
| Entrypoint   | 0x0125   |
| Data Size    | 14 bytes |
| Instructions | 6        |

```
      00 01 02 03 04 05 06 07  08 09 0A 0B 0C 0D 0E 0F
      -- -- -- -- -- -- -- --  -- -- -- -- -- -- -- --
0120:                1E F0 FF  FF 7F 1C 0C 80 1D 14 80       ...........
0130: 23 21 00                                          #!.             
```

#### Opcodes

```
  0: 0x0125 [0x1E] EventEntity looks at LocalPlayer and starts talking
  1: 0x012A [0x1C] WAIT(45* ticks)
  2: 0x012D [0x1D] PRINT_EVENT_MESSAGE(message_id=10417*)
    → "You're the master of promotion that everyone at our company is talking about! The next time you visit Al Zahbi, make sure you go to Salaheem's Sentinels."
  3: 0x0130 [0x23] WAIT_FOR_DIALOG_INTERACTION
  4: 0x0131 [0x21] END_EVENT
  5: 0x0132 [0x00] END_REQSTACK()
```

### Event 793

#### Metadata

| Field        | Value     |
|--------------|-----------|
| Entrypoint   | 0x0133    |
| Data Size    | 108 bytes |
| Instructions | 22        |

```
      00 01 02 03 04 05 06 07  08 09 0A 0B 0C 0D 0E 0F
      -- -- -- -- -- -- -- --  -- -- -- -- -- -- -- --
0130:          1E F0 FF FF 7F  1C 0C 80 6E EF 10 0F 01     ........n....
0140: 15 80 99 EF 10 0F 01 1D  16 80 23 99 EF 10 0F 01  ..........#.....
0150: 66 02 80 F8 FF FF 7F F8  FF FF 7F 74 6C 6B 30 1D  f..........tlk0.
0160: 17 80 23 1D 18 80 23 03  02 10 19 80 66 02 80 F8  ..#...#.....f...
0170: FF FF 7F F8 FF FF 7F 74  65 6E 30 53 F8 FF FF 7F  .......ten0S....
0180: F8 FF FF 7F 74 65 6E 30  6E EF 10 0F 01 1A 80 99  ....ten0n.......
0190: EF 10 0F 01 1D 1B 80 23  99 EF 10 0F 01 21 00     .......#.....!. 
```

#### Opcodes

```
  0: 0x0133 [0x1E] EventEntity looks at LocalPlayer and starts talking
  1: 0x0138 [0x1C] WAIT(45* ticks)
  2: 0x013B [0x6E] Ibwam (ID: 17764591/0x010F10EF) uses emote 20*
  3: 0x0142 [0x99] Wait for Ibwam (ID: 17764591/0x010F10EF) animation to complete
  4: 0x0147 [0x1D] PRINT_EVENT_MESSAGE(message_id=13157*)
    → "Hey, I remember you! You're that [fellow/lady] that helped me round up all those new recruits...I think. I'm not that good with faces..."
  5: 0x014A [0x23] WAIT_FOR_DIALOG_INTERACTION
  6: 0x014B [0x99] Wait for Ibwam (ID: 17764591/0x010F10EF) animation to complete
  7: 0x0150 [0x66] LOAD_EXT_SCHEDULER_MAIN: Load scheduler "tlk0" with entities [EventEntity, EventEntity], work=0*
  8: 0x015F [0x1D] PRINT_EVENT_MESSAGE(message_id=13158*)
    → "No wait, I remember now! You took one of our badges around Windurst and got people talking about the Sentinels...I think. You adventurers look so much alike..."
  9: 0x0162 [0x23] WAIT_FOR_DIALOG_INTERACTION
 10: 0x0163 [0x1D] PRINT_EVENT_MESSAGE(message_id=13159*)
    → "Anyway, as a way to say thanks for all the help I think I recall you doing for us, the president herself has given me the OK to teleport you directly to Aht Urhgan Whitegate at any time you like!"
 11: 0x0166 [0x23] WAIT_FOR_DIALOG_INTERACTION
 12: 0x0167 [0x03] Work_Zone[2] = 300*
 13: 0x016C [0x66] LOAD_EXT_SCHEDULER_MAIN: Load scheduler "ten0" with entities [EventEntity, EventEntity], work=0*
 14: 0x017B [0x53] WAIT_SCHEDULER_TASK: Wait for scheduler "ten0" with entities [EventEntity, EventEntity]
 15: 0x0188 [0x6E] Ibwam (ID: 17764591/0x010F10EF) uses emote 10*
 16: 0x018F [0x99] Wait for Ibwam (ID: 17764591/0x010F10EF) animation to complete
 17: 0x0194 [0x1D] PRINT_EVENT_MESSAGE(message_id=13160*)
    → "All you have to do is trade me the tiny fee of $0 gil, and we can be on our way!"
 18: 0x0197 [0x23] WAIT_FOR_DIALOG_INTERACTION
 19: 0x0198 [0x99] Wait for Ibwam (ID: 17764591/0x010F10EF) animation to complete
 20: 0x019D [0x21] END_EVENT
 21: 0x019E [0x00] END_REQSTACK()
```

### Event 794

#### Metadata

| Field        | Value     |
|--------------|-----------|
| Entrypoint   | 0x019F    |
| Data Size    | 102 bytes |
| Instructions | 17        |

```
      00 01 02 03 04 05 06 07  08 09 0A 0B 0C 0D 0E 0F
      -- -- -- -- -- -- -- --  -- -- -- -- -- -- -- --
0190:                                               42                 B
01A0: 20 01 1E F0 FF FF 7F 1C  0C 80 66 02 80 F8 FF FF   .........f.....
01B0: 7F F8 FF FF 7F 74 6C 6B  30 1D 1C 80 23 66 02 80  .....tlk0...#f..
01C0: F8 FF FF 7F F8 FF FF 7F  74 65 6E 30 53 F8 FF FF  ........ten0S...
01D0: 7F F8 FF FF 7F 74 65 6E  30 1D 1D 80 03 01 10 04  .....ten0.......
01E0: 80 73 1E 80 EF 10 0F 01  F0 FF FF 7F 1C 1F 80 45  .s.............E
01F0: 20 80 F0 FF FF 7F F0 FF  FF 7F 66 64 6F 31 02 80   .........fdo1..
0200: 1C 08 80 21 00                                    ...!.           
```

#### Opcodes

```
  0: 0x019F [0x42] SET_CLI_EVENT_CANCEL_DATA()
  1: 0x01A0 [0x20] SET_CLI_EVENT_UC_FLAG: Lock player control
  2: 0x01A2 [0x1E] EventEntity looks at LocalPlayer and starts talking
  3: 0x01A7 [0x1C] WAIT(45* ticks)
  4: 0x01AA [0x66] LOAD_EXT_SCHEDULER_MAIN: Load scheduler "tlk0" with entities [EventEntity, EventEntity], work=0*
  5: 0x01B9 [0x1D] PRINT_EVENT_MESSAGE(message_id=13161*)
    → "Alright, it looks like everything is in order."
  6: 0x01BC [0x23] WAIT_FOR_DIALOG_INTERACTION
  7: 0x01BD [0x66] LOAD_EXT_SCHEDULER_MAIN: Load scheduler "ten0" with entities [EventEntity, EventEntity], work=0*
  8: 0x01CC [0x53] WAIT_SCHEDULER_TASK: Wait for scheduler "ten0" with entities [EventEntity, EventEntity]
  9: 0x01D9 [0x1D] PRINT_EVENT_MESSAGE(message_id=13162*)
    → "Now hold on!"
 10: 0x01DC [0x03] Work_Zone[1] = 1*
 11: 0x01E1 [0x73] Ibwam (ID: 17764591/0x010F10EF) casts magic 122* on LocalPlayer
 12: 0x01EC [0x1C] WAIT(260* ticks)
 13: 0x01EF [0x45] LOAD_SCHEDULED_TASK: Load scheduler "fdo1" with entities [LocalPlayer, LocalPlayer], work=[200*, 0*]
 14: 0x0200 [0x1C] WAIT(60* ticks)
 15: 0x0203 [0x21] END_EVENT
 16: 0x0204 [0x00] END_REQSTACK()
```
