# 17764370 - Sola Jaab

## Common Data

| Field            | Value                    |
|------------------|--------------------------|
| Zone             | Windurst Woods (ID: 241) |
| Block Size       | 1812 bytes               |
| Total Events     | 47                       |
| References Count | 67                       |

## List of Events

| Event ID                   | Entrypoint   |   Size |   Instructions |
|----------------------------|--------------|--------|----------------|
| [65535](#event-65535)      | 0x0000       |      1 |              1 |
| [65535.1](#event-655351)   | 0x0001       |     16 |              2 |
| [65535.2](#event-655352)   | 0x0011       |     42 |              4 |
| [65535.3](#event-655353)   | 0x003B       |     16 |              2 |
| [65535.4](#event-655354)   | 0x004B       |     14 |              2 |
| [65535.5](#event-655355)   | 0x0059       |     22 |              3 |
| [65535.6](#event-655356)   | 0x006F       |     14 |              2 |
| [65535.7](#event-655357)   | 0x007D       |     16 |              2 |
| [65535.8](#event-655358)   | 0x008D       |     20 |              3 |
| [65535.9](#event-655359)   | 0x00A1       |      9 |              3 |
| [109](#event-109)          | 0x00AA       |     33 |             12 |
| [110](#event-110)          | 0x00CB       |     29 |             10 |
| [117](#event-117)          | 0x00E8       |     29 |             10 |
| [848](#event-848)          | 0x0105       |      1 |              1 |
| [876](#event-876)          | 0x0106       |      1 |              1 |
| [114](#event-114)          | 0x0107       |      1 |              1 |
| [121](#event-121)          | 0x0108       |      1 |              1 |
| [65535.10](#event-6553510) | 0x0109       |     19 |              5 |
| [65535.11](#event-6553511) | 0x011C       |     16 |              6 |
| [65535.12](#event-6553512) | 0x012C       |     16 |              6 |
| [125](#event-125)          | 0x013C       |     33 |             12 |
| [130](#event-130)          | 0x015D       |     33 |             12 |
| [134](#event-134)          | 0x017E       |     33 |             12 |
| [153](#event-153)          | 0x019F       |     33 |             12 |
| [158](#event-158)          | 0x01C0       |     33 |             12 |
| [162](#event-162)          | 0x01E1       |     37 |             14 |
| [475](#event-475)          | 0x0206       |     33 |             12 |
| [180](#event-180)          | 0x0227       |     33 |             12 |
| [184](#event-184)          | 0x0248       |     33 |             12 |
| [190](#event-190)          | 0x0269       |     33 |             12 |
| [195](#event-195)          | 0x028A       |     33 |             12 |
| [200](#event-200)          | 0x02AB       |     33 |             12 |
| [208](#event-208)          | 0x02CC       |     33 |             12 |
| [213](#event-213)          | 0x02ED       |     33 |             12 |
| [216](#event-216)          | 0x030E       |     33 |             12 |
| [595](#event-595)          | 0x032F       |     33 |             12 |
| [560](#event-560)          | 0x0350       |     33 |             12 |
| [565](#event-565)          | 0x0371       |     61 |             16 |
| [571](#event-571)          | 0x03AE       |     61 |             16 |
| [576](#event-576)          | 0x03EB       |     33 |             12 |
| [581](#event-581)          | 0x040C       |     33 |             12 |
| [611](#event-611)          | 0x042D       |     33 |             12 |
| [586](#event-586)          | 0x044E       |     47 |             14 |
| [616](#event-616)          | 0x047D       |     47 |             14 |
| [630](#event-630)          | 0x04AC       |     47 |             14 |
| [627](#event-627)          | 0x04DB       |     47 |             14 |
| [634](#event-634)          | 0x050A       |     47 |             14 |

## DAT References (imed_data)

|   Index | Hex Value   |   Dec Value |
|---------|-------------|-------------|
|       0 | 0x0032      |          50 |
|       1 | 0x0008      |           8 |
|       2 | 0x001E      |          30 |
|       3 | 0x1DED      |        7661 |
|       4 | 0x1DEE      |        7662 |
|       5 | 0x1DEF      |        7663 |
|       6 | 0x1DFA      |        7674 |
|       7 | 0x1E07      |        7687 |
|       8 | 0x1E08      |        7688 |
|       9 | 0x1E09      |        7689 |
|      10 | 0x1E0A      |        7690 |
|      11 | 0x1E0B      |        7691 |
|      12 | 0x1E1C      |        7708 |
|      13 | 0x1E1D      |        7709 |
|      14 | 0x1E24      |        7716 |
|      15 | 0x1E25      |        7717 |
|      16 | 0x1E30      |        7728 |
|      17 | 0x1E31      |        7729 |
|      18 | 0x1E74      |        7796 |
|      19 | 0x1E75      |        7797 |
|      20 | 0x1E7E      |        7806 |
|      21 | 0x1E7F      |        7807 |
|      22 | 0x1E8A      |        7818 |
|      23 | 0x1E8B      |        7819 |
|      24 | 0x1E8C      |        7820 |
|      25 | 0x21E6      |        8678 |
|      26 | 0x21E7      |        8679 |
|      27 | 0x1EB0      |        7856 |
|      28 | 0x1EB1      |        7857 |
|      29 | 0x1EB9      |        7865 |
|      30 | 0x1EBA      |        7866 |
|      31 | 0x1EC6      |        7878 |
|      32 | 0x1EC7      |        7879 |
|      33 | 0x1ED0      |        7888 |
|      34 | 0x1ED1      |        7889 |
|      35 | 0x1EDA      |        7898 |
|      36 | 0x1EDB      |        7899 |
|      37 | 0x1EE8      |        7912 |
|      38 | 0x1EE9      |        7913 |
|      39 | 0x1EF2      |        7922 |
|      40 | 0x1EF3      |        7923 |
|      41 | 0x1EF8      |        7928 |
|      42 | 0x1EF9      |        7929 |
|      43 | 0x24C5      |        9413 |
|      44 | 0x24C6      |        9414 |
|      45 | 0x24CF      |        9423 |
|      46 | 0x24D0      |        9424 |
|      47 | 0x24DA      |        9434 |
|      48 | 0x24DB      |        9435 |
|      49 | 0x24E5      |        9445 |
|      50 | 0x24E6      |        9446 |
|      51 | 0x24F0      |        9456 |
|      52 | 0x24F1      |        9457 |
|      53 | 0x24FB      |        9467 |
|      54 | 0x24FC      |        9468 |
|      55 | 0x24FD      |        9469 |
|      56 | 0x24FE      |        9470 |
|      57 | 0x2508      |        9480 |
|      58 | 0x2509      |        9481 |
|      59 | 0x2569      |        9577 |
|      60 | 0x256A      |        9578 |
|      61 | 0x25AA      |        9642 |
|      62 | 0x25AB      |        9643 |
|      63 | 0x25BD      |        9661 |
|      64 | 0x25BE      |        9662 |
|      65 | 0x25E3      |        9699 |
|      66 | 0x25E4      |        9700 |

## String References

- **7661**: What are you staring at? Haven't you ever seen a Mithra beforrre?
- **7662**: Here in Windurst Woods, there arrre many Mithra. You'll soon get over it...
- **7663**: This is Windurst Woods, the Mithra part of town! We Mithra have to stick together, so feel welcome, frrriend!
- **7674**: This is the easterrrn gatehouse. Feel free to ask Captain Rakoh Buuma whenever you need a helping paw from Buuma's Boomerrrs! She's the grrreatest!
- **7687**: Roger, Captain Buuma! It would indeed be an honorrr...
- **7688**: Well, put simply, the gatehouses are where we guards worrrk and rest.
- **7689**: We also administer missions herrre--assignments for and on behalf of our country.
- **7690**: Missions differ from plain quests in that they are rendered as service to your country, so the government will award you rank points forrr each mission you accomplish.
- **7691**: Register enough points and your rank, or standing in society, will incrrrease.
- **7708**: The Horutoto Ruins are a bunch of old towerrrs out in Sarutabaruta.
- **7709**: But they're all falling to pieces now... It was the Tarutaru who destrrroyed them. They insist it was all due to the Great Warrr, but that just sounds like halfling half-truths to me.
- **7716**: Did you enjoy your little run-in with the ministerrr of the Orastery? Grrr... Oh, and were you able to meet his little sisterrr?
- **7717**: The Minister of the Orastery's sisterrr is named Apururu. You'd know if you met herrr. She's also the ministerrr of the Manustery.
- **7728**: Compared to us, Carrrdians are useless. They have no sense when it comes to fighting.
- **7729**: However, I'll say this about them...they have no fearrr of death. Even we Mithra aren't as darrring as they are. That could be a powerrrful advantage...
- **7796**: It's not like we're mindlessly opposed to a frrriendship pact with the Yagudo.
- **7797**: Those Yagudo don't keep their side of the barrrgain. We have the old saying of "never share a meal with those who do not keep their prrromises."
- **7806**: Even though you got promoted to rank two, you're still an underrrling. But don't be disappointed...
- **7807**: Underlings can get out of work without otherrr people complaining much. And you can also secretly eat some snacks too, if you're carrreful.
- **7818**: I've borrowed books from the Librarrry of Magic too, you know.
- **7819**: One time I took a book home to read, and as soon as I opened it a whole army of frrrogs came jumping out at me!
- **7820**: I borrowed as many books as I could following that, but never had a single frog pop out at me. Too bad, as they were really tasty frrrogs, too!
- **7856**: Once you go to another countrrry, you'll realize just how good old Windurst is.
- **7857**: The food is great, you can cat nap as much as you like, and turning up late is the norrrm. Everyone takes life easy herrre.
- **7865**: Sibyl Guards aren't loved by the Mithra as a whole verrry much. We don't like people who take on fancy titles and think they're betterrr than the rest of the tribe.
- **7866**: What's more, that Semih Lafihna is so serrrious and hard worrrking, her tail is so slim and shiny, and she's also such a know-it-all. Doesn't she just make you jealous?
- **7878**: I hear there are many ladies-in-waiting who serve the Star Sibyl on the second floorrr of Heavens Tower.
- **7879**: Sounds as though they do all the cleaning, washing and cooking there. Grrr...
- **7888**: I don't see how anyone can get so excited about a piece of paper. Paperrr's something that even goats eat. Totally worrrthless!
- **7889**: ...Actually, I'm only saying that 'cause I'm jealous. I wish I got one of them wrrrits too! That's so cool! You're so lucky!
- **7898**: Seems like something bad happened in the central towerrr of the Horutoto Ruins.
- **7899**: Semih Lafihna, the Sibyl Guard, had a black look on herrr face as she ran by here en route to the Horutoto Ruins. Then she came back a little while ago looking even angrierrr!
- **7912**: The talisman that disappeared from the Horutoto Ruins was supposed to have been separated between the three countrrries.
- **7913**: Windurst notified the other two countries immediately, so theirrr talismans should be safe. I'm sure they'll up the guard once they've hearrrd what happened.
- **7922**: The situation took a turn for the worrrse there, but it seems all-out warfarrre has been avoided.
- **7923**: Oops...but that was meant to be a secrrret. We're not allowed to tell people about you-know-who being resurrrrected, or how war was about to break out... It would be widespread panic.
- **7928**: The situation took a turn for the worrrse there, but it seems all-out warfarrre has been avoided.
- **7929**: Oops...but that was meant to be a secrrret. We're not allowed to tell people about you-know-who being resurrrrected, or how war was about to break out... It would be widespread panic.
- **8678**: Why would Tarutaru children everrr want to study at a School of Magic?
- **8679**: Grrr... I'd hate to be forrrced to sit in front of a desk all day. It sounds like a punishment to me.
- **9413**: Captain Rakoh Buuma has been fuming that the guards of Windurst Woods have "rrreally been slacking off, slacking off completely"!
- **9414**: I wonderrr if she found out about me fishing during patrol duty? I'm not gonna fish anymorrre! I'm gonna do my job properly!
- **9423**: Things are so easygoing herrre lately. It's nice to have some peace in Windurst for a change.
- **9424**: Up until now there have been so many heart-stopping incidents. Farrr too many. We should try and preserve this peace for a while.
- **9434**: What an uproarrr! There's been anotherrr incident!
- **9435**: ...But being a Tarutaru problem, it's probably nothing to get worked up about. He'll just get a slap on the wrist and a week in jail or something similarrr, I would think.
- **9445**: I despise cleaning, but I love those frog books.
- **9446**: If I were a rank seven adventurerrr being offered this mission... Rrr, what a dilemma!
- **9456**: We Mithra came to Windurst from a village far to the south.
- **9457**: ...I don't really rememberrr much about it, though. Just that it was always hot.
- **9467**: Let me see... ...You have [50/60/70/80/90/100] points!
- **9468**: What do I mean, [50/60/70/80/90/100] points? Ah, now that would be telling!
- **9469**: F...f...froggies!
- **9470**: Meow!
- **9480**: Things are getting exciting now! All the guards arrre in on this secret together!
- **9481**: I can hardly contain myself! But I won't let on to anyone. I'll just flick my tail and keep it in.
- **9577**: These Tarutaru sure can be a vicious little bunch.
- **9578**: We Mithra would neverrr leave someone anguishing in torment like that. Those who transgress against Mithran law are cut down cleanly and face-to-face by the Mithran Trackerrr.
- **9642**: ...... Grrr...
- **9643**: Captain Buuma said something that really upset me...! I'm in such a state, my furrr is starting to fall out...!
- **9661**: Captain Buuma was saying that our work might dry up completely after this next mission. If that happens, I'm gonna go hungry.
- **9662**: That's why I've started fishing again. I bought the most amazing fishing rod! It was so nice of Miiri-Wohri to lend me the money!
- **9699**: Fishing is fun, but I'm a Windurst Woods guard first and foremost! The safety of this city is my top priority!
- **9700**: Oh, and by the way, I finally learned your name. You're <Player>, right?

## Events

### Event 65535

#### Metadata

| Field        | Value   |
|--------------|---------|
| Entrypoint   | 0x0000  |
| Data Size    | 1 bytes |
| Instructions | 1       |

```
      00 01 02 03 04 05 06 07  08 09 0A 0B 0C 0D 0E 0F
      -- -- -- -- -- -- -- --  -- -- -- -- -- -- -- --
0000: 00                                                .               
```

#### Opcodes

```
  0: 0x0000 [0x00] END_REQSTACK()
```

### Event 65535.1

#### Metadata

| Field        | Value    |
|--------------|----------|
| Entrypoint   | 0x0001   |
| Data Size    | 16 bytes |
| Instructions | 2        |

```
      00 01 02 03 04 05 06 07  08 09 0A 0B 0C 0D 0E 0F
      -- -- -- -- -- -- -- --  -- -- -- -- -- -- -- --
0000:    66 00 80 F8 FF FF 7F  F8 FF FF 7F 74 6C 6B 30   f..........tlk0
0010: 00                                                .               
```

#### Opcodes

```
  0: 0x0001 [0x66] LOAD_EXT_SCHEDULER_MAIN: Load scheduler "tlk0" with entities [EventEntity, EventEntity], work=50*
  1: 0x0010 [0x00] END_REQSTACK()
```

### Event 65535.2

#### Metadata

| Field        | Value    |
|--------------|----------|
| Entrypoint   | 0x0011   |
| Data Size    | 42 bytes |
| Instructions | 4        |

```
      00 01 02 03 04 05 06 07  08 09 0A 0B 0C 0D 0E 0F
      -- -- -- -- -- -- -- --  -- -- -- -- -- -- -- --
0010:    53 F8 FF FF 7F F8 FF  FF 7F 74 6C 6B 30 66 00   S........tlk0f.
0020: 80 F8 FF FF 7F F8 FF FF  7F 74 6C 6B 32 53 F8 FF  .........tlk2S..
0030: FF 7F F8 FF FF 7F 74 6C  6B 32 00                 ......tlk2.     
```

#### Opcodes

```
  0: 0x0011 [0x53] WAIT_SCHEDULER_TASK: Wait for scheduler "tlk0" with entities [EventEntity, EventEntity]
  1: 0x001E [0x66] LOAD_EXT_SCHEDULER_MAIN: Load scheduler "tlk2" with entities [EventEntity, EventEntity], work=50*
  2: 0x002D [0x53] WAIT_SCHEDULER_TASK: Wait for scheduler "tlk2" with entities [EventEntity, EventEntity]
  3: 0x003A [0x00] END_REQSTACK()
```

### Event 65535.3

#### Metadata

| Field        | Value    |
|--------------|----------|
| Entrypoint   | 0x003B   |
| Data Size    | 16 bytes |
| Instructions | 2        |

```
      00 01 02 03 04 05 06 07  08 09 0A 0B 0C 0D 0E 0F
      -- -- -- -- -- -- -- --  -- -- -- -- -- -- -- --
0030:                                   66 01 80 F8 FF             f....
0040: FF 7F F8 FF FF 7F 75 72  65 30 00                 ......ure0.     
```

#### Opcodes

```
  0: 0x003B [0x66] LOAD_EXT_SCHEDULER_MAIN: Load scheduler "ure0" with entities [EventEntity, EventEntity], work=8*
  1: 0x004A [0x00] END_REQSTACK()
```

### Event 65535.4

#### Metadata

| Field        | Value    |
|--------------|----------|
| Entrypoint   | 0x004B   |
| Data Size    | 14 bytes |
| Instructions | 2        |

```
      00 01 02 03 04 05 06 07  08 09 0A 0B 0C 0D 0E 0F
      -- -- -- -- -- -- -- --  -- -- -- -- -- -- -- --
0040:                                   53 F8 FF FF 7F             S....
0050: F8 FF FF 7F 75 72 65 30  00                       ....ure0.       
```

#### Opcodes

```
  0: 0x004B [0x53] WAIT_SCHEDULER_TASK: Wait for scheduler "ure0" with entities [EventEntity, EventEntity]
  1: 0x0058 [0x00] END_REQSTACK()
```

### Event 65535.5

#### Metadata

| Field        | Value    |
|--------------|----------|
| Entrypoint   | 0x0059   |
| Data Size    | 22 bytes |
| Instructions | 3        |

```
      00 01 02 03 04 05 06 07  08 09 0A 0B 0C 0D 0E 0F
      -- -- -- -- -- -- -- --  -- -- -- -- -- -- -- --
0050:                             81 00 F8 FF FF 7F 66           ......f
0060: 00 80 F8 FF FF 7F F8 FF  FF 7F 74 68 6B 31 00     ..........thk1. 
```

#### Opcodes

```
  0: 0x0059 [0x81] SET_ENTITY_BLINKING(blink_flag=0x00, entity=EventEntity)
  1: 0x005F [0x66] LOAD_EXT_SCHEDULER_MAIN: Load scheduler "thk1" with entities [EventEntity, EventEntity], work=50*
  2: 0x006E [0x00] END_REQSTACK()
```

### Event 65535.6

#### Metadata

| Field        | Value    |
|--------------|----------|
| Entrypoint   | 0x006F   |
| Data Size    | 14 bytes |
| Instructions | 2        |

```
      00 01 02 03 04 05 06 07  08 09 0A 0B 0C 0D 0E 0F
      -- -- -- -- -- -- -- --  -- -- -- -- -- -- -- --
0060:                                               53                 S
0070: F8 FF FF 7F F8 FF FF 7F  74 68 6B 31 00           ........thk1.   
```

#### Opcodes

```
  0: 0x006F [0x53] WAIT_SCHEDULER_TASK: Wait for scheduler "thk1" with entities [EventEntity, EventEntity]
  1: 0x007C [0x00] END_REQSTACK()
```

### Event 65535.7

#### Metadata

| Field        | Value    |
|--------------|----------|
| Entrypoint   | 0x007D   |
| Data Size    | 16 bytes |
| Instructions | 2        |

```
      00 01 02 03 04 05 06 07  08 09 0A 0B 0C 0D 0E 0F
      -- -- -- -- -- -- -- --  -- -- -- -- -- -- -- --
0070:                                         66 00 80               f..
0080: F8 FF FF 7F F8 FF FF 7F  74 68 6B 32 00           ........thk2.   
```

#### Opcodes

```
  0: 0x007D [0x66] LOAD_EXT_SCHEDULER_MAIN: Load scheduler "thk2" with entities [EventEntity, EventEntity], work=50*
  1: 0x008C [0x00] END_REQSTACK()
```

### Event 65535.8

#### Metadata

| Field        | Value    |
|--------------|----------|
| Entrypoint   | 0x008D   |
| Data Size    | 20 bytes |
| Instructions | 3        |

```
      00 01 02 03 04 05 06 07  08 09 0A 0B 0C 0D 0E 0F
      -- -- -- -- -- -- -- --  -- -- -- -- -- -- -- --
0080:                                         53 F8 FF               S..
0090: FF 7F F8 FF FF 7F 74 68  6B 32 81 01 F8 FF FF 7F  ......thk2......
00A0: 00                                                .               
```

#### Opcodes

```
  0: 0x008D [0x53] WAIT_SCHEDULER_TASK: Wait for scheduler "thk2" with entities [EventEntity, EventEntity]
  1: 0x009A [0x81] SET_ENTITY_BLINKING(blink_flag=0x01, entity=EventEntity)
  2: 0x00A0 [0x00] END_REQSTACK()
```

### Event 65535.9

#### Metadata

| Field        | Value   |
|--------------|---------|
| Entrypoint   | 0x00A1  |
| Data Size    | 9 bytes |
| Instructions | 3       |

```
      00 01 02 03 04 05 06 07  08 09 0A 0B 0C 0D 0E 0F
      -- -- -- -- -- -- -- --  -- -- -- -- -- -- -- --
00A0:    5E 69 64 6C 30 1C 02  80 00                     ^idl0....      
```

#### Opcodes

```
  0: 0x00A1 [0x5E] EventEntity goes idle (kills current action) (animation: "idl0")
  1: 0x00A6 [0x1C] WAIT(30* ticks)
  2: 0x00A9 [0x00] END_REQSTACK()
```

### Event 109

#### Metadata

| Field        | Value    |
|--------------|----------|
| Entrypoint   | 0x00AA   |
| Data Size    | 33 bytes |
| Instructions | 12       |

```
      00 01 02 03 04 05 06 07  08 09 0A 0B 0C 0D 0E 0F
      -- -- -- -- -- -- -- --  -- -- -- -- -- -- -- --
00A0:                                1E F0 FF FF 7F 6F            .....o
00B0: 70 29 08 12 10 0F 01 01  1D 03 80 23 1D 04 80 23  p).........#...#
00C0: 29 08 12 10 0F 01 02 20  00 21 00                 )...... .!.     
```

#### Opcodes

```
  0: 0x00AA [0x1E] EventEntity looks at LocalPlayer and starts talking
  1: 0x00AF [0x6F] WAIT_FRAME_DELAY: Yield until WaitTime reaches zero
  2: 0x00B0 [0x70] WAIT_ENTITY_RENDER_FLAG: Wait while EventEntity->Render.Flags3 bit 2 is set (cancel turn if not)
  3: 0x00B1 [0x29] REQ_SET_WAIT(priority=0x08, entity_id=Sola Jaab (ID: 17764370/0x010F1012), tag_num=0x01)
  4: 0x00B8 [0x1D] PRINT_EVENT_MESSAGE(message_id=7661*)
    → "What are you staring at? Haven't you ever seen a Mithra beforrre?"
  5: 0x00BB [0x23] WAIT_FOR_DIALOG_INTERACTION
  6: 0x00BC [0x1D] PRINT_EVENT_MESSAGE(message_id=7662*)
    → "Here in Windurst Woods, there arrre many Mithra. You'll soon get over it..."
  7: 0x00BF [0x23] WAIT_FOR_DIALOG_INTERACTION
  8: 0x00C0 [0x29] REQ_SET_WAIT(priority=0x08, entity_id=Sola Jaab (ID: 17764370/0x010F1012), tag_num=0x02)
  9: 0x00C7 [0x20] SET_CLI_EVENT_UC_FLAG: Unlock player control
 10: 0x00C9 [0x21] END_EVENT
 11: 0x00CA [0x00] END_REQSTACK()
```

### Event 110

#### Metadata

| Field        | Value    |
|--------------|----------|
| Entrypoint   | 0x00CB   |
| Data Size    | 29 bytes |
| Instructions | 10       |

```
      00 01 02 03 04 05 06 07  08 09 0A 0B 0C 0D 0E 0F
      -- -- -- -- -- -- -- --  -- -- -- -- -- -- -- --
00C0:                                   1E F0 FF FF 7F             .....
00D0: 6F 70 29 08 12 10 0F 01  03 1D 05 80 23 29 08 12  op).........#)..
00E0: 10 0F 01 04 20 00 21 00                           .... .!.        
```

#### Opcodes

```
  0: 0x00CB [0x1E] EventEntity looks at LocalPlayer and starts talking
  1: 0x00D0 [0x6F] WAIT_FRAME_DELAY: Yield until WaitTime reaches zero
  2: 0x00D1 [0x70] WAIT_ENTITY_RENDER_FLAG: Wait while EventEntity->Render.Flags3 bit 2 is set (cancel turn if not)
  3: 0x00D2 [0x29] REQ_SET_WAIT(priority=0x08, entity_id=Sola Jaab (ID: 17764370/0x010F1012), tag_num=0x03)
  4: 0x00D9 [0x1D] PRINT_EVENT_MESSAGE(message_id=7663*)
    → "This is Windurst Woods, the Mithra part of town! We Mithra have to stick together, so feel welcome, frrriend!"
  5: 0x00DC [0x23] WAIT_FOR_DIALOG_INTERACTION
  6: 0x00DD [0x29] REQ_SET_WAIT(priority=0x08, entity_id=Sola Jaab (ID: 17764370/0x010F1012), tag_num=0x04)
  7: 0x00E4 [0x20] SET_CLI_EVENT_UC_FLAG: Unlock player control
  8: 0x00E6 [0x21] END_EVENT
  9: 0x00E7 [0x00] END_REQSTACK()
```

### Event 117

#### Metadata

| Field        | Value    |
|--------------|----------|
| Entrypoint   | 0x00E8   |
| Data Size    | 29 bytes |
| Instructions | 10       |

```
      00 01 02 03 04 05 06 07  08 09 0A 0B 0C 0D 0E 0F
      -- -- -- -- -- -- -- --  -- -- -- -- -- -- -- --
00E0:                          1E F0 FF FF 7F 6F 70 29          .....op)
00F0: 08 12 10 0F 01 01 1D 06  80 23 29 08 12 10 0F 01  .........#).....
0100: 02 20 00 21 00                                    . .!.           
```

#### Opcodes

```
  0: 0x00E8 [0x1E] EventEntity looks at LocalPlayer and starts talking
  1: 0x00ED [0x6F] WAIT_FRAME_DELAY: Yield until WaitTime reaches zero
  2: 0x00EE [0x70] WAIT_ENTITY_RENDER_FLAG: Wait while EventEntity->Render.Flags3 bit 2 is set (cancel turn if not)
  3: 0x00EF [0x29] REQ_SET_WAIT(priority=0x08, entity_id=Sola Jaab (ID: 17764370/0x010F1012), tag_num=0x01)
  4: 0x00F6 [0x1D] PRINT_EVENT_MESSAGE(message_id=7674*)
    → "This is the easterrrn gatehouse. Feel free to ask Captain Rakoh Buuma whenever you need a helping paw from Buuma's Boomerrrs! She's the grrreatest!"
  5: 0x00F9 [0x23] WAIT_FOR_DIALOG_INTERACTION
  6: 0x00FA [0x29] REQ_SET_WAIT(priority=0x08, entity_id=Sola Jaab (ID: 17764370/0x010F1012), tag_num=0x02)
  7: 0x0101 [0x20] SET_CLI_EVENT_UC_FLAG: Unlock player control
  8: 0x0103 [0x21] END_EVENT
  9: 0x0104 [0x00] END_REQSTACK()
```

### Event 848

#### Metadata

| Field        | Value   |
|--------------|---------|
| Entrypoint   | 0x0105  |
| Data Size    | 1 bytes |
| Instructions | 1       |

```
      00 01 02 03 04 05 06 07  08 09 0A 0B 0C 0D 0E 0F
      -- -- -- -- -- -- -- --  -- -- -- -- -- -- -- --
0100:                00                                      .          
```

#### Opcodes

```
  0: 0x0105 [0x00] END_REQSTACK()
```

### Event 876

#### Metadata

| Field        | Value   |
|--------------|---------|
| Entrypoint   | 0x0106  |
| Data Size    | 1 bytes |
| Instructions | 1       |

```
      00 01 02 03 04 05 06 07  08 09 0A 0B 0C 0D 0E 0F
      -- -- -- -- -- -- -- --  -- -- -- -- -- -- -- --
0100:                   00                                    .         
```

#### Opcodes

```
  0: 0x0106 [0x00] END_REQSTACK()
```

### Event 114

#### Metadata

| Field        | Value   |
|--------------|---------|
| Entrypoint   | 0x0107  |
| Data Size    | 1 bytes |
| Instructions | 1       |

```
      00 01 02 03 04 05 06 07  08 09 0A 0B 0C 0D 0E 0F
      -- -- -- -- -- -- -- --  -- -- -- -- -- -- -- --
0100:                      00                                  .        
```

#### Opcodes

```
  0: 0x0107 [0x00] END_REQSTACK()
```

### Event 121

#### Metadata

| Field        | Value   |
|--------------|---------|
| Entrypoint   | 0x0108  |
| Data Size    | 1 bytes |
| Instructions | 1       |

```
      00 01 02 03 04 05 06 07  08 09 0A 0B 0C 0D 0E 0F
      -- -- -- -- -- -- -- --  -- -- -- -- -- -- -- --
0100:                          00                               .       
```

#### Opcodes

```
  0: 0x0108 [0x00] END_REQSTACK()
```

### Event 65535.10

#### Metadata

| Field        | Value    |
|--------------|----------|
| Entrypoint   | 0x0109   |
| Data Size    | 19 bytes |
| Instructions | 5        |

```
      00 01 02 03 04 05 06 07  08 09 0A 0B 0C 0D 0E 0F
      -- -- -- -- -- -- -- --  -- -- -- -- -- -- -- --
0100:                             29 08 12 10 0F 01 01           )......
0110: 1D 07 80 23 29 08 12 10  0F 01 02 00              ...#).......    
```

#### Opcodes

```
  0: 0x0109 [0x29] REQ_SET_WAIT(priority=0x08, entity_id=Sola Jaab (ID: 17764370/0x010F1012), tag_num=0x01)
  1: 0x0110 [0x1D] PRINT_EVENT_MESSAGE(message_id=7687*)
    → "Roger, Captain Buuma! It would indeed be an honorrr..."
  2: 0x0113 [0x23] WAIT_FOR_DIALOG_INTERACTION
  3: 0x0114 [0x29] REQ_SET_WAIT(priority=0x08, entity_id=Sola Jaab (ID: 17764370/0x010F1012), tag_num=0x02)
  4: 0x011B [0x00] END_REQSTACK()
```

### Event 65535.11

#### Metadata

| Field        | Value    |
|--------------|----------|
| Entrypoint   | 0x011C   |
| Data Size    | 16 bytes |
| Instructions | 6        |

```
      00 01 02 03 04 05 06 07  08 09 0A 0B 0C 0D 0E 0F
      -- -- -- -- -- -- -- --  -- -- -- -- -- -- -- --
0110:                                      29 08 12 10              )...
0120: 0F 01 01 1D 08 80 23 1D  09 80 23 00              ......#...#.    
```

#### Opcodes

```
  0: 0x011C [0x29] REQ_SET_WAIT(priority=0x08, entity_id=Sola Jaab (ID: 17764370/0x010F1012), tag_num=0x01)
  1: 0x0123 [0x1D] PRINT_EVENT_MESSAGE(message_id=7688*)
    → "Well, put simply, the gatehouses are where we guards worrrk and rest."
  2: 0x0126 [0x23] WAIT_FOR_DIALOG_INTERACTION
  3: 0x0127 [0x1D] PRINT_EVENT_MESSAGE(message_id=7689*)
    → "We also administer missions herrre--assignments for and on behalf of our country."
  4: 0x012A [0x23] WAIT_FOR_DIALOG_INTERACTION
  5: 0x012B [0x00] END_REQSTACK()
```

### Event 65535.12

#### Metadata

| Field        | Value    |
|--------------|----------|
| Entrypoint   | 0x012C   |
| Data Size    | 16 bytes |
| Instructions | 6        |

```
      00 01 02 03 04 05 06 07  08 09 0A 0B 0C 0D 0E 0F
      -- -- -- -- -- -- -- --  -- -- -- -- -- -- -- --
0120:                                      1D 0A 80 23              ...#
0130: 1D 0B 80 23 29 08 12 10  0F 01 02 00              ...#).......    
```

#### Opcodes

```
  0: 0x012C [0x1D] PRINT_EVENT_MESSAGE(message_id=7690*)
    → "Missions differ from plain quests in that they are rendered as service to your country, so the government will award you rank points forrr each mission you accomplish."
  1: 0x012F [0x23] WAIT_FOR_DIALOG_INTERACTION
  2: 0x0130 [0x1D] PRINT_EVENT_MESSAGE(message_id=7691*)
    → "Register enough points and your rank, or standing in society, will incrrrease."
  3: 0x0133 [0x23] WAIT_FOR_DIALOG_INTERACTION
  4: 0x0134 [0x29] REQ_SET_WAIT(priority=0x08, entity_id=Sola Jaab (ID: 17764370/0x010F1012), tag_num=0x02)
  5: 0x013B [0x00] END_REQSTACK()
```

### Event 125

#### Metadata

| Field        | Value    |
|--------------|----------|
| Entrypoint   | 0x013C   |
| Data Size    | 33 bytes |
| Instructions | 12       |

```
      00 01 02 03 04 05 06 07  08 09 0A 0B 0C 0D 0E 0F
      -- -- -- -- -- -- -- --  -- -- -- -- -- -- -- --
0130:                                      1E F0 FF FF              ....
0140: 7F 6F 70 29 08 12 10 0F  01 01 1D 0C 80 23 1D 0D  .op).........#..
0150: 80 23 29 08 12 10 0F 01  02 20 00 21 00           .#)...... .!.   
```

#### Opcodes

```
  0: 0x013C [0x1E] EventEntity looks at LocalPlayer and starts talking
  1: 0x0141 [0x6F] WAIT_FRAME_DELAY: Yield until WaitTime reaches zero
  2: 0x0142 [0x70] WAIT_ENTITY_RENDER_FLAG: Wait while EventEntity->Render.Flags3 bit 2 is set (cancel turn if not)
  3: 0x0143 [0x29] REQ_SET_WAIT(priority=0x08, entity_id=Sola Jaab (ID: 17764370/0x010F1012), tag_num=0x01)
  4: 0x014A [0x1D] PRINT_EVENT_MESSAGE(message_id=7708*)
    → "The Horutoto Ruins are a bunch of old towerrrs out in Sarutabaruta."
  5: 0x014D [0x23] WAIT_FOR_DIALOG_INTERACTION
  6: 0x014E [0x1D] PRINT_EVENT_MESSAGE(message_id=7709*)
    → "But they're all falling to pieces now... It was the Tarutaru who destrrroyed them. They insist it was all due to the Great Warrr, but that just sounds like halfling half-truths to me."
  7: 0x0151 [0x23] WAIT_FOR_DIALOG_INTERACTION
  8: 0x0152 [0x29] REQ_SET_WAIT(priority=0x08, entity_id=Sola Jaab (ID: 17764370/0x010F1012), tag_num=0x02)
  9: 0x0159 [0x20] SET_CLI_EVENT_UC_FLAG: Unlock player control
 10: 0x015B [0x21] END_EVENT
 11: 0x015C [0x00] END_REQSTACK()
```

### Event 130

#### Metadata

| Field        | Value    |
|--------------|----------|
| Entrypoint   | 0x015D   |
| Data Size    | 33 bytes |
| Instructions | 12       |

```
      00 01 02 03 04 05 06 07  08 09 0A 0B 0C 0D 0E 0F
      -- -- -- -- -- -- -- --  -- -- -- -- -- -- -- --
0150:                                         1E F0 FF               ...
0160: FF 7F 6F 70 29 08 12 10  0F 01 01 1D 0E 80 23 1D  ..op).........#.
0170: 0F 80 23 29 08 12 10 0F  01 09 20 00 21 00        ..#)...... .!.  
```

#### Opcodes

```
  0: 0x015D [0x1E] EventEntity looks at LocalPlayer and starts talking
  1: 0x0162 [0x6F] WAIT_FRAME_DELAY: Yield until WaitTime reaches zero
  2: 0x0163 [0x70] WAIT_ENTITY_RENDER_FLAG: Wait while EventEntity->Render.Flags3 bit 2 is set (cancel turn if not)
  3: 0x0164 [0x29] REQ_SET_WAIT(priority=0x08, entity_id=Sola Jaab (ID: 17764370/0x010F1012), tag_num=0x01)
  4: 0x016B [0x1D] PRINT_EVENT_MESSAGE(message_id=7716*)
    → "Did you enjoy your little run-in with the ministerrr of the Orastery? Grrr... Oh, and were you able to meet his little sisterrr?"
  5: 0x016E [0x23] WAIT_FOR_DIALOG_INTERACTION
  6: 0x016F [0x1D] PRINT_EVENT_MESSAGE(message_id=7717*)
    → "The Minister of the Orastery's sisterrr is named Apururu. You'd know if you met herrr. She's also the ministerrr of the Manustery."
  7: 0x0172 [0x23] WAIT_FOR_DIALOG_INTERACTION
  8: 0x0173 [0x29] REQ_SET_WAIT(priority=0x08, entity_id=Sola Jaab (ID: 17764370/0x010F1012), tag_num=0x09)
  9: 0x017A [0x20] SET_CLI_EVENT_UC_FLAG: Unlock player control
 10: 0x017C [0x21] END_EVENT
 11: 0x017D [0x00] END_REQSTACK()
```

### Event 134

#### Metadata

| Field        | Value    |
|--------------|----------|
| Entrypoint   | 0x017E   |
| Data Size    | 33 bytes |
| Instructions | 12       |

```
      00 01 02 03 04 05 06 07  08 09 0A 0B 0C 0D 0E 0F
      -- -- -- -- -- -- -- --  -- -- -- -- -- -- -- --
0170:                                            1E F0                ..
0180: FF FF 7F 6F 70 29 08 12  10 0F 01 01 1D 10 80 23  ...op).........#
0190: 1D 11 80 23 29 08 12 10  0F 01 09 20 00 21 00     ...#)...... .!. 
```

#### Opcodes

```
  0: 0x017E [0x1E] EventEntity looks at LocalPlayer and starts talking
  1: 0x0183 [0x6F] WAIT_FRAME_DELAY: Yield until WaitTime reaches zero
  2: 0x0184 [0x70] WAIT_ENTITY_RENDER_FLAG: Wait while EventEntity->Render.Flags3 bit 2 is set (cancel turn if not)
  3: 0x0185 [0x29] REQ_SET_WAIT(priority=0x08, entity_id=Sola Jaab (ID: 17764370/0x010F1012), tag_num=0x01)
  4: 0x018C [0x1D] PRINT_EVENT_MESSAGE(message_id=7728*)
    → "Compared to us, Carrrdians are useless. They have no sense when it comes to fighting."
  5: 0x018F [0x23] WAIT_FOR_DIALOG_INTERACTION
  6: 0x0190 [0x1D] PRINT_EVENT_MESSAGE(message_id=7729*)
    → "However, I'll say this about them...they have no fearrr of death. Even we Mithra aren't as darrring as they are. That could be a powerrrful advantage..."
  7: 0x0193 [0x23] WAIT_FOR_DIALOG_INTERACTION
  8: 0x0194 [0x29] REQ_SET_WAIT(priority=0x08, entity_id=Sola Jaab (ID: 17764370/0x010F1012), tag_num=0x09)
  9: 0x019B [0x20] SET_CLI_EVENT_UC_FLAG: Unlock player control
 10: 0x019D [0x21] END_EVENT
 11: 0x019E [0x00] END_REQSTACK()
```

### Event 153

#### Metadata

| Field        | Value    |
|--------------|----------|
| Entrypoint   | 0x019F   |
| Data Size    | 33 bytes |
| Instructions | 12       |

```
      00 01 02 03 04 05 06 07  08 09 0A 0B 0C 0D 0E 0F
      -- -- -- -- -- -- -- --  -- -- -- -- -- -- -- --
0190:                                               1E                 .
01A0: F0 FF FF 7F 6F 70 29 08  12 10 0F 01 01 1D 12 80  ....op).........
01B0: 23 1D 13 80 23 29 08 12  10 0F 01 09 20 00 21 00  #...#)...... .!.
```

#### Opcodes

```
  0: 0x019F [0x1E] EventEntity looks at LocalPlayer and starts talking
  1: 0x01A4 [0x6F] WAIT_FRAME_DELAY: Yield until WaitTime reaches zero
  2: 0x01A5 [0x70] WAIT_ENTITY_RENDER_FLAG: Wait while EventEntity->Render.Flags3 bit 2 is set (cancel turn if not)
  3: 0x01A6 [0x29] REQ_SET_WAIT(priority=0x08, entity_id=Sola Jaab (ID: 17764370/0x010F1012), tag_num=0x01)
  4: 0x01AD [0x1D] PRINT_EVENT_MESSAGE(message_id=7796*)
    → "It's not like we're mindlessly opposed to a frrriendship pact with the Yagudo."
  5: 0x01B0 [0x23] WAIT_FOR_DIALOG_INTERACTION
  6: 0x01B1 [0x1D] PRINT_EVENT_MESSAGE(message_id=7797*)
    → "Those Yagudo don't keep their side of the barrrgain. We have the old saying of "never share a meal with those who do not keep their prrromises.""
  7: 0x01B4 [0x23] WAIT_FOR_DIALOG_INTERACTION
  8: 0x01B5 [0x29] REQ_SET_WAIT(priority=0x08, entity_id=Sola Jaab (ID: 17764370/0x010F1012), tag_num=0x09)
  9: 0x01BC [0x20] SET_CLI_EVENT_UC_FLAG: Unlock player control
 10: 0x01BE [0x21] END_EVENT
 11: 0x01BF [0x00] END_REQSTACK()
```

### Event 158

#### Metadata

| Field        | Value    |
|--------------|----------|
| Entrypoint   | 0x01C0   |
| Data Size    | 33 bytes |
| Instructions | 12       |

```
      00 01 02 03 04 05 06 07  08 09 0A 0B 0C 0D 0E 0F
      -- -- -- -- -- -- -- --  -- -- -- -- -- -- -- --
01C0: 1E F0 FF FF 7F 6F 70 29  08 12 10 0F 01 01 1D 14  .....op)........
01D0: 80 23 1D 15 80 23 29 08  12 10 0F 01 09 20 00 21  .#...#)...... .!
01E0: 00                                                .               
```

#### Opcodes

```
  0: 0x01C0 [0x1E] EventEntity looks at LocalPlayer and starts talking
  1: 0x01C5 [0x6F] WAIT_FRAME_DELAY: Yield until WaitTime reaches zero
  2: 0x01C6 [0x70] WAIT_ENTITY_RENDER_FLAG: Wait while EventEntity->Render.Flags3 bit 2 is set (cancel turn if not)
  3: 0x01C7 [0x29] REQ_SET_WAIT(priority=0x08, entity_id=Sola Jaab (ID: 17764370/0x010F1012), tag_num=0x01)
  4: 0x01CE [0x1D] PRINT_EVENT_MESSAGE(message_id=7806*)
    → "Even though you got promoted to rank two, you're still an underrrling. But don't be disappointed..."
  5: 0x01D1 [0x23] WAIT_FOR_DIALOG_INTERACTION
  6: 0x01D2 [0x1D] PRINT_EVENT_MESSAGE(message_id=7807*)
    → "Underlings can get out of work without otherrr people complaining much. And you can also secretly eat some snacks too, if you're carrreful."
  7: 0x01D5 [0x23] WAIT_FOR_DIALOG_INTERACTION
  8: 0x01D6 [0x29] REQ_SET_WAIT(priority=0x08, entity_id=Sola Jaab (ID: 17764370/0x010F1012), tag_num=0x09)
  9: 0x01DD [0x20] SET_CLI_EVENT_UC_FLAG: Unlock player control
 10: 0x01DF [0x21] END_EVENT
 11: 0x01E0 [0x00] END_REQSTACK()
```

### Event 162

#### Metadata

| Field        | Value    |
|--------------|----------|
| Entrypoint   | 0x01E1   |
| Data Size    | 37 bytes |
| Instructions | 14       |

```
      00 01 02 03 04 05 06 07  08 09 0A 0B 0C 0D 0E 0F
      -- -- -- -- -- -- -- --  -- -- -- -- -- -- -- --
01E0:    1E F0 FF FF 7F 6F 70  29 08 12 10 0F 01 01 1D   .....op).......
01F0: 16 80 23 1D 17 80 23 1D  18 80 23 29 08 12 10 0F  ..#...#...#)....
0200: 01 09 20 00 21 00                                 .. .!.          
```

#### Opcodes

```
  0: 0x01E1 [0x1E] EventEntity looks at LocalPlayer and starts talking
  1: 0x01E6 [0x6F] WAIT_FRAME_DELAY: Yield until WaitTime reaches zero
  2: 0x01E7 [0x70] WAIT_ENTITY_RENDER_FLAG: Wait while EventEntity->Render.Flags3 bit 2 is set (cancel turn if not)
  3: 0x01E8 [0x29] REQ_SET_WAIT(priority=0x08, entity_id=Sola Jaab (ID: 17764370/0x010F1012), tag_num=0x01)
  4: 0x01EF [0x1D] PRINT_EVENT_MESSAGE(message_id=7818*)
    → "I've borrowed books from the Librarrry of Magic too, you know."
  5: 0x01F2 [0x23] WAIT_FOR_DIALOG_INTERACTION
  6: 0x01F3 [0x1D] PRINT_EVENT_MESSAGE(message_id=7819*)
    → "One time I took a book home to read, and as soon as I opened it a whole army of frrrogs came jumping out at me!"
  7: 0x01F6 [0x23] WAIT_FOR_DIALOG_INTERACTION
  8: 0x01F7 [0x1D] PRINT_EVENT_MESSAGE(message_id=7820*)
    → "I borrowed as many books as I could following that, but never had a single frog pop out at me. Too bad, as they were really tasty frrrogs, too!"
  9: 0x01FA [0x23] WAIT_FOR_DIALOG_INTERACTION
 10: 0x01FB [0x29] REQ_SET_WAIT(priority=0x08, entity_id=Sola Jaab (ID: 17764370/0x010F1012), tag_num=0x09)
 11: 0x0202 [0x20] SET_CLI_EVENT_UC_FLAG: Unlock player control
 12: 0x0204 [0x21] END_EVENT
 13: 0x0205 [0x00] END_REQSTACK()
```

### Event 475

#### Metadata

| Field        | Value    |
|--------------|----------|
| Entrypoint   | 0x0206   |
| Data Size    | 33 bytes |
| Instructions | 12       |

```
      00 01 02 03 04 05 06 07  08 09 0A 0B 0C 0D 0E 0F
      -- -- -- -- -- -- -- --  -- -- -- -- -- -- -- --
0200:                   1E F0  FF FF 7F 6F 70 29 08 12        .....op)..
0210: 10 0F 01 01 1D 19 80 23  1D 1A 80 23 29 08 12 10  .......#...#)...
0220: 0F 01 09 20 00 21 00                              ... .!.         
```

#### Opcodes

```
  0: 0x0206 [0x1E] EventEntity looks at LocalPlayer and starts talking
  1: 0x020B [0x6F] WAIT_FRAME_DELAY: Yield until WaitTime reaches zero
  2: 0x020C [0x70] WAIT_ENTITY_RENDER_FLAG: Wait while EventEntity->Render.Flags3 bit 2 is set (cancel turn if not)
  3: 0x020D [0x29] REQ_SET_WAIT(priority=0x08, entity_id=Sola Jaab (ID: 17764370/0x010F1012), tag_num=0x01)
  4: 0x0214 [0x1D] PRINT_EVENT_MESSAGE(message_id=8678*)
    → "Why would Tarutaru children everrr want to study at a School of Magic?"
  5: 0x0217 [0x23] WAIT_FOR_DIALOG_INTERACTION
  6: 0x0218 [0x1D] PRINT_EVENT_MESSAGE(message_id=8679*)
    → "Grrr... I'd hate to be forrrced to sit in front of a desk all day. It sounds like a punishment to me."
  7: 0x021B [0x23] WAIT_FOR_DIALOG_INTERACTION
  8: 0x021C [0x29] REQ_SET_WAIT(priority=0x08, entity_id=Sola Jaab (ID: 17764370/0x010F1012), tag_num=0x09)
  9: 0x0223 [0x20] SET_CLI_EVENT_UC_FLAG: Unlock player control
 10: 0x0225 [0x21] END_EVENT
 11: 0x0226 [0x00] END_REQSTACK()
```

### Event 180

#### Metadata

| Field        | Value    |
|--------------|----------|
| Entrypoint   | 0x0227   |
| Data Size    | 33 bytes |
| Instructions | 12       |

```
      00 01 02 03 04 05 06 07  08 09 0A 0B 0C 0D 0E 0F
      -- -- -- -- -- -- -- --  -- -- -- -- -- -- -- --
0220:                      1E  F0 FF FF 7F 6F 70 29 08         .....op).
0230: 12 10 0F 01 01 1D 1B 80  23 1D 1C 80 23 29 08 12  ........#...#)..
0240: 10 0F 01 09 20 00 21 00                           .... .!.        
```

#### Opcodes

```
  0: 0x0227 [0x1E] EventEntity looks at LocalPlayer and starts talking
  1: 0x022C [0x6F] WAIT_FRAME_DELAY: Yield until WaitTime reaches zero
  2: 0x022D [0x70] WAIT_ENTITY_RENDER_FLAG: Wait while EventEntity->Render.Flags3 bit 2 is set (cancel turn if not)
  3: 0x022E [0x29] REQ_SET_WAIT(priority=0x08, entity_id=Sola Jaab (ID: 17764370/0x010F1012), tag_num=0x01)
  4: 0x0235 [0x1D] PRINT_EVENT_MESSAGE(message_id=7856*)
    → "Once you go to another countrrry, you'll realize just how good old Windurst is."
  5: 0x0238 [0x23] WAIT_FOR_DIALOG_INTERACTION
  6: 0x0239 [0x1D] PRINT_EVENT_MESSAGE(message_id=7857*)
    → "The food is great, you can cat nap as much as you like, and turning up late is the norrrm. Everyone takes life easy herrre."
  7: 0x023C [0x23] WAIT_FOR_DIALOG_INTERACTION
  8: 0x023D [0x29] REQ_SET_WAIT(priority=0x08, entity_id=Sola Jaab (ID: 17764370/0x010F1012), tag_num=0x09)
  9: 0x0244 [0x20] SET_CLI_EVENT_UC_FLAG: Unlock player control
 10: 0x0246 [0x21] END_EVENT
 11: 0x0247 [0x00] END_REQSTACK()
```

### Event 184

#### Metadata

| Field        | Value    |
|--------------|----------|
| Entrypoint   | 0x0248   |
| Data Size    | 33 bytes |
| Instructions | 12       |

```
      00 01 02 03 04 05 06 07  08 09 0A 0B 0C 0D 0E 0F
      -- -- -- -- -- -- -- --  -- -- -- -- -- -- -- --
0240:                          1E F0 FF FF 7F 6F 70 29          .....op)
0250: 08 12 10 0F 01 01 1D 1D  80 23 1D 1E 80 23 29 08  .........#...#).
0260: 12 10 0F 01 09 20 00 21  00                       ..... .!.       
```

#### Opcodes

```
  0: 0x0248 [0x1E] EventEntity looks at LocalPlayer and starts talking
  1: 0x024D [0x6F] WAIT_FRAME_DELAY: Yield until WaitTime reaches zero
  2: 0x024E [0x70] WAIT_ENTITY_RENDER_FLAG: Wait while EventEntity->Render.Flags3 bit 2 is set (cancel turn if not)
  3: 0x024F [0x29] REQ_SET_WAIT(priority=0x08, entity_id=Sola Jaab (ID: 17764370/0x010F1012), tag_num=0x01)
  4: 0x0256 [0x1D] PRINT_EVENT_MESSAGE(message_id=7865*)
    → "Sibyl Guards aren't loved by the Mithra as a whole verrry much. We don't like people who take on fancy titles and think they're betterrr than the rest of the tribe."
  5: 0x0259 [0x23] WAIT_FOR_DIALOG_INTERACTION
  6: 0x025A [0x1D] PRINT_EVENT_MESSAGE(message_id=7866*)
    → "What's more, that Semih Lafihna is so serrrious and hard worrrking, her tail is so slim and shiny, and she's also such a know-it-all. Doesn't she just make you jealous?"
  7: 0x025D [0x23] WAIT_FOR_DIALOG_INTERACTION
  8: 0x025E [0x29] REQ_SET_WAIT(priority=0x08, entity_id=Sola Jaab (ID: 17764370/0x010F1012), tag_num=0x09)
  9: 0x0265 [0x20] SET_CLI_EVENT_UC_FLAG: Unlock player control
 10: 0x0267 [0x21] END_EVENT
 11: 0x0268 [0x00] END_REQSTACK()
```

### Event 190

#### Metadata

| Field        | Value    |
|--------------|----------|
| Entrypoint   | 0x0269   |
| Data Size    | 33 bytes |
| Instructions | 12       |

```
      00 01 02 03 04 05 06 07  08 09 0A 0B 0C 0D 0E 0F
      -- -- -- -- -- -- -- --  -- -- -- -- -- -- -- --
0260:                             1E F0 FF FF 7F 6F 70           .....op
0270: 29 08 12 10 0F 01 01 1D  1F 80 23 1D 20 80 23 29  ).........#. .#)
0280: 08 12 10 0F 01 09 20 00  21 00                    ...... .!.      
```

#### Opcodes

```
  0: 0x0269 [0x1E] EventEntity looks at LocalPlayer and starts talking
  1: 0x026E [0x6F] WAIT_FRAME_DELAY: Yield until WaitTime reaches zero
  2: 0x026F [0x70] WAIT_ENTITY_RENDER_FLAG: Wait while EventEntity->Render.Flags3 bit 2 is set (cancel turn if not)
  3: 0x0270 [0x29] REQ_SET_WAIT(priority=0x08, entity_id=Sola Jaab (ID: 17764370/0x010F1012), tag_num=0x01)
  4: 0x0277 [0x1D] PRINT_EVENT_MESSAGE(message_id=7878*)
    → "I hear there are many ladies-in-waiting who serve the Star Sibyl on the second floorrr of Heavens Tower."
  5: 0x027A [0x23] WAIT_FOR_DIALOG_INTERACTION
  6: 0x027B [0x1D] PRINT_EVENT_MESSAGE(message_id=7879*)
    → "Sounds as though they do all the cleaning, washing and cooking there. Grrr..."
  7: 0x027E [0x23] WAIT_FOR_DIALOG_INTERACTION
  8: 0x027F [0x29] REQ_SET_WAIT(priority=0x08, entity_id=Sola Jaab (ID: 17764370/0x010F1012), tag_num=0x09)
  9: 0x0286 [0x20] SET_CLI_EVENT_UC_FLAG: Unlock player control
 10: 0x0288 [0x21] END_EVENT
 11: 0x0289 [0x00] END_REQSTACK()
```

### Event 195

#### Metadata

| Field        | Value    |
|--------------|----------|
| Entrypoint   | 0x028A   |
| Data Size    | 33 bytes |
| Instructions | 12       |

```
      00 01 02 03 04 05 06 07  08 09 0A 0B 0C 0D 0E 0F
      -- -- -- -- -- -- -- --  -- -- -- -- -- -- -- --
0280:                                1E F0 FF FF 7F 6F            .....o
0290: 70 29 08 12 10 0F 01 01  1D 21 80 23 1D 22 80 23  p).......!.#.".#
02A0: 29 08 12 10 0F 01 09 20  00 21 00                 )...... .!.     
```

#### Opcodes

```
  0: 0x028A [0x1E] EventEntity looks at LocalPlayer and starts talking
  1: 0x028F [0x6F] WAIT_FRAME_DELAY: Yield until WaitTime reaches zero
  2: 0x0290 [0x70] WAIT_ENTITY_RENDER_FLAG: Wait while EventEntity->Render.Flags3 bit 2 is set (cancel turn if not)
  3: 0x0291 [0x29] REQ_SET_WAIT(priority=0x08, entity_id=Sola Jaab (ID: 17764370/0x010F1012), tag_num=0x01)
  4: 0x0298 [0x1D] PRINT_EVENT_MESSAGE(message_id=7888*)
    → "I don't see how anyone can get so excited about a piece of paper. Paperrr's something that even goats eat. Totally worrrthless!"
  5: 0x029B [0x23] WAIT_FOR_DIALOG_INTERACTION
  6: 0x029C [0x1D] PRINT_EVENT_MESSAGE(message_id=7889*)
    → "...Actually, I'm only saying that 'cause I'm jealous. I wish I got one of them wrrrits too! That's so cool! You're so lucky!"
  7: 0x029F [0x23] WAIT_FOR_DIALOG_INTERACTION
  8: 0x02A0 [0x29] REQ_SET_WAIT(priority=0x08, entity_id=Sola Jaab (ID: 17764370/0x010F1012), tag_num=0x09)
  9: 0x02A7 [0x20] SET_CLI_EVENT_UC_FLAG: Unlock player control
 10: 0x02A9 [0x21] END_EVENT
 11: 0x02AA [0x00] END_REQSTACK()
```

### Event 200

#### Metadata

| Field        | Value    |
|--------------|----------|
| Entrypoint   | 0x02AB   |
| Data Size    | 33 bytes |
| Instructions | 12       |

```
      00 01 02 03 04 05 06 07  08 09 0A 0B 0C 0D 0E 0F
      -- -- -- -- -- -- -- --  -- -- -- -- -- -- -- --
02A0:                                   1E F0 FF FF 7F             .....
02B0: 6F 70 29 08 12 10 0F 01  01 1D 23 80 23 1D 24 80  op).......#.#.$.
02C0: 23 29 08 12 10 0F 01 09  20 00 21 00              #)...... .!.    
```

#### Opcodes

```
  0: 0x02AB [0x1E] EventEntity looks at LocalPlayer and starts talking
  1: 0x02B0 [0x6F] WAIT_FRAME_DELAY: Yield until WaitTime reaches zero
  2: 0x02B1 [0x70] WAIT_ENTITY_RENDER_FLAG: Wait while EventEntity->Render.Flags3 bit 2 is set (cancel turn if not)
  3: 0x02B2 [0x29] REQ_SET_WAIT(priority=0x08, entity_id=Sola Jaab (ID: 17764370/0x010F1012), tag_num=0x01)
  4: 0x02B9 [0x1D] PRINT_EVENT_MESSAGE(message_id=7898*)
    → "Seems like something bad happened in the central towerrr of the Horutoto Ruins."
  5: 0x02BC [0x23] WAIT_FOR_DIALOG_INTERACTION
  6: 0x02BD [0x1D] PRINT_EVENT_MESSAGE(message_id=7899*)
    → "Semih Lafihna, the Sibyl Guard, had a black look on herrr face as she ran by here en route to the Horutoto Ruins. Then she came back a little while ago looking even angrierrr!"
  7: 0x02C0 [0x23] WAIT_FOR_DIALOG_INTERACTION
  8: 0x02C1 [0x29] REQ_SET_WAIT(priority=0x08, entity_id=Sola Jaab (ID: 17764370/0x010F1012), tag_num=0x09)
  9: 0x02C8 [0x20] SET_CLI_EVENT_UC_FLAG: Unlock player control
 10: 0x02CA [0x21] END_EVENT
 11: 0x02CB [0x00] END_REQSTACK()
```

### Event 208

#### Metadata

| Field        | Value    |
|--------------|----------|
| Entrypoint   | 0x02CC   |
| Data Size    | 33 bytes |
| Instructions | 12       |

```
      00 01 02 03 04 05 06 07  08 09 0A 0B 0C 0D 0E 0F
      -- -- -- -- -- -- -- --  -- -- -- -- -- -- -- --
02C0:                                      1E F0 FF FF              ....
02D0: 7F 6F 70 29 08 12 10 0F  01 01 1D 25 80 23 1D 26  .op).......%.#.&
02E0: 80 23 29 08 12 10 0F 01  09 20 00 21 00           .#)...... .!.   
```

#### Opcodes

```
  0: 0x02CC [0x1E] EventEntity looks at LocalPlayer and starts talking
  1: 0x02D1 [0x6F] WAIT_FRAME_DELAY: Yield until WaitTime reaches zero
  2: 0x02D2 [0x70] WAIT_ENTITY_RENDER_FLAG: Wait while EventEntity->Render.Flags3 bit 2 is set (cancel turn if not)
  3: 0x02D3 [0x29] REQ_SET_WAIT(priority=0x08, entity_id=Sola Jaab (ID: 17764370/0x010F1012), tag_num=0x01)
  4: 0x02DA [0x1D] PRINT_EVENT_MESSAGE(message_id=7912*)
    → "The talisman that disappeared from the Horutoto Ruins was supposed to have been separated between the three countrrries."
  5: 0x02DD [0x23] WAIT_FOR_DIALOG_INTERACTION
  6: 0x02DE [0x1D] PRINT_EVENT_MESSAGE(message_id=7913*)
    → "Windurst notified the other two countries immediately, so theirrr talismans should be safe. I'm sure they'll up the guard once they've hearrrd what happened."
  7: 0x02E1 [0x23] WAIT_FOR_DIALOG_INTERACTION
  8: 0x02E2 [0x29] REQ_SET_WAIT(priority=0x08, entity_id=Sola Jaab (ID: 17764370/0x010F1012), tag_num=0x09)
  9: 0x02E9 [0x20] SET_CLI_EVENT_UC_FLAG: Unlock player control
 10: 0x02EB [0x21] END_EVENT
 11: 0x02EC [0x00] END_REQSTACK()
```

### Event 213

#### Metadata

| Field        | Value    |
|--------------|----------|
| Entrypoint   | 0x02ED   |
| Data Size    | 33 bytes |
| Instructions | 12       |

```
      00 01 02 03 04 05 06 07  08 09 0A 0B 0C 0D 0E 0F
      -- -- -- -- -- -- -- --  -- -- -- -- -- -- -- --
02E0:                                         1E F0 FF               ...
02F0: FF 7F 6F 70 29 08 12 10  0F 01 01 1D 27 80 23 1D  ..op).......'.#.
0300: 28 80 23 29 08 12 10 0F  01 09 20 00 21 00        (.#)...... .!.  
```

#### Opcodes

```
  0: 0x02ED [0x1E] EventEntity looks at LocalPlayer and starts talking
  1: 0x02F2 [0x6F] WAIT_FRAME_DELAY: Yield until WaitTime reaches zero
  2: 0x02F3 [0x70] WAIT_ENTITY_RENDER_FLAG: Wait while EventEntity->Render.Flags3 bit 2 is set (cancel turn if not)
  3: 0x02F4 [0x29] REQ_SET_WAIT(priority=0x08, entity_id=Sola Jaab (ID: 17764370/0x010F1012), tag_num=0x01)
  4: 0x02FB [0x1D] PRINT_EVENT_MESSAGE(message_id=7922*)
    → "The situation took a turn for the worrrse there, but it seems all-out warfarrre has been avoided."
  5: 0x02FE [0x23] WAIT_FOR_DIALOG_INTERACTION
  6: 0x02FF [0x1D] PRINT_EVENT_MESSAGE(message_id=7923*)
    → "Oops...but that was meant to be a secrrret. We're not allowed to tell people about you-know-who being resurrrrected, or how war was about to break out... It would be widespread panic."
  7: 0x0302 [0x23] WAIT_FOR_DIALOG_INTERACTION
  8: 0x0303 [0x29] REQ_SET_WAIT(priority=0x08, entity_id=Sola Jaab (ID: 17764370/0x010F1012), tag_num=0x09)
  9: 0x030A [0x20] SET_CLI_EVENT_UC_FLAG: Unlock player control
 10: 0x030C [0x21] END_EVENT
 11: 0x030D [0x00] END_REQSTACK()
```

### Event 216

#### Metadata

| Field        | Value    |
|--------------|----------|
| Entrypoint   | 0x030E   |
| Data Size    | 33 bytes |
| Instructions | 12       |

```
      00 01 02 03 04 05 06 07  08 09 0A 0B 0C 0D 0E 0F
      -- -- -- -- -- -- -- --  -- -- -- -- -- -- -- --
0300:                                            1E F0                ..
0310: FF FF 7F 6F 70 29 08 12  10 0F 01 01 1D 29 80 23  ...op).......).#
0320: 1D 2A 80 23 29 08 12 10  0F 01 09 20 00 21 00     .*.#)...... .!. 
```

#### Opcodes

```
  0: 0x030E [0x1E] EventEntity looks at LocalPlayer and starts talking
  1: 0x0313 [0x6F] WAIT_FRAME_DELAY: Yield until WaitTime reaches zero
  2: 0x0314 [0x70] WAIT_ENTITY_RENDER_FLAG: Wait while EventEntity->Render.Flags3 bit 2 is set (cancel turn if not)
  3: 0x0315 [0x29] REQ_SET_WAIT(priority=0x08, entity_id=Sola Jaab (ID: 17764370/0x010F1012), tag_num=0x01)
  4: 0x031C [0x1D] PRINT_EVENT_MESSAGE(message_id=7928*)
    → "The situation took a turn for the worrrse there, but it seems all-out warfarrre has been avoided."
  5: 0x031F [0x23] WAIT_FOR_DIALOG_INTERACTION
  6: 0x0320 [0x1D] PRINT_EVENT_MESSAGE(message_id=7929*)
    → "Oops...but that was meant to be a secrrret. We're not allowed to tell people about you-know-who being resurrrrected, or how war was about to break out... It would be widespread panic."
  7: 0x0323 [0x23] WAIT_FOR_DIALOG_INTERACTION
  8: 0x0324 [0x29] REQ_SET_WAIT(priority=0x08, entity_id=Sola Jaab (ID: 17764370/0x010F1012), tag_num=0x09)
  9: 0x032B [0x20] SET_CLI_EVENT_UC_FLAG: Unlock player control
 10: 0x032D [0x21] END_EVENT
 11: 0x032E [0x00] END_REQSTACK()
```

### Event 595

#### Metadata

| Field        | Value    |
|--------------|----------|
| Entrypoint   | 0x032F   |
| Data Size    | 33 bytes |
| Instructions | 12       |

```
      00 01 02 03 04 05 06 07  08 09 0A 0B 0C 0D 0E 0F
      -- -- -- -- -- -- -- --  -- -- -- -- -- -- -- --
0320:                                               1E                 .
0330: F0 FF FF 7F 6F 70 29 08  12 10 0F 01 01 1D 2B 80  ....op).......+.
0340: 23 1D 2C 80 23 29 08 12  10 0F 01 09 20 00 21 00  #.,.#)...... .!.
```

#### Opcodes

```
  0: 0x032F [0x1E] EventEntity looks at LocalPlayer and starts talking
  1: 0x0334 [0x6F] WAIT_FRAME_DELAY: Yield until WaitTime reaches zero
  2: 0x0335 [0x70] WAIT_ENTITY_RENDER_FLAG: Wait while EventEntity->Render.Flags3 bit 2 is set (cancel turn if not)
  3: 0x0336 [0x29] REQ_SET_WAIT(priority=0x08, entity_id=Sola Jaab (ID: 17764370/0x010F1012), tag_num=0x01)
  4: 0x033D [0x1D] PRINT_EVENT_MESSAGE(message_id=9413*)
    → "Captain Rakoh Buuma has been fuming that the guards of Windurst Woods have "rrreally been slacking off, slacking off completely"!"
  5: 0x0340 [0x23] WAIT_FOR_DIALOG_INTERACTION
  6: 0x0341 [0x1D] PRINT_EVENT_MESSAGE(message_id=9414*)
    → "I wonderrr if she found out about me fishing during patrol duty? I'm not gonna fish anymorrre! I'm gonna do my job properly!"
  7: 0x0344 [0x23] WAIT_FOR_DIALOG_INTERACTION
  8: 0x0345 [0x29] REQ_SET_WAIT(priority=0x08, entity_id=Sola Jaab (ID: 17764370/0x010F1012), tag_num=0x09)
  9: 0x034C [0x20] SET_CLI_EVENT_UC_FLAG: Unlock player control
 10: 0x034E [0x21] END_EVENT
 11: 0x034F [0x00] END_REQSTACK()
```

### Event 560

#### Metadata

| Field        | Value    |
|--------------|----------|
| Entrypoint   | 0x0350   |
| Data Size    | 33 bytes |
| Instructions | 12       |

```
      00 01 02 03 04 05 06 07  08 09 0A 0B 0C 0D 0E 0F
      -- -- -- -- -- -- -- --  -- -- -- -- -- -- -- --
0350: 1E F0 FF FF 7F 6F 70 29  08 12 10 0F 01 01 1D 2D  .....op).......-
0360: 80 23 1D 2E 80 23 29 08  12 10 0F 01 09 20 00 21  .#...#)...... .!
0370: 00                                                .               
```

#### Opcodes

```
  0: 0x0350 [0x1E] EventEntity looks at LocalPlayer and starts talking
  1: 0x0355 [0x6F] WAIT_FRAME_DELAY: Yield until WaitTime reaches zero
  2: 0x0356 [0x70] WAIT_ENTITY_RENDER_FLAG: Wait while EventEntity->Render.Flags3 bit 2 is set (cancel turn if not)
  3: 0x0357 [0x29] REQ_SET_WAIT(priority=0x08, entity_id=Sola Jaab (ID: 17764370/0x010F1012), tag_num=0x01)
  4: 0x035E [0x1D] PRINT_EVENT_MESSAGE(message_id=9423*)
    → "Things are so easygoing herrre lately. It's nice to have some peace in Windurst for a change."
  5: 0x0361 [0x23] WAIT_FOR_DIALOG_INTERACTION
  6: 0x0362 [0x1D] PRINT_EVENT_MESSAGE(message_id=9424*)
    → "Up until now there have been so many heart-stopping incidents. Farrr too many. We should try and preserve this peace for a while."
  7: 0x0365 [0x23] WAIT_FOR_DIALOG_INTERACTION
  8: 0x0366 [0x29] REQ_SET_WAIT(priority=0x08, entity_id=Sola Jaab (ID: 17764370/0x010F1012), tag_num=0x09)
  9: 0x036D [0x20] SET_CLI_EVENT_UC_FLAG: Unlock player control
 10: 0x036F [0x21] END_EVENT
 11: 0x0370 [0x00] END_REQSTACK()
```

### Event 565

#### Metadata

| Field        | Value    |
|--------------|----------|
| Entrypoint   | 0x0371   |
| Data Size    | 61 bytes |
| Instructions | 16       |

```
      00 01 02 03 04 05 06 07  08 09 0A 0B 0C 0D 0E 0F
      -- -- -- -- -- -- -- --  -- -- -- -- -- -- -- --
0370:    1E F0 FF FF 7F 6F 70  29 08 12 10 0F 01 03 1D   .....op).......
0380: 2F 80 23 29 08 12 10 0F  01 04 29 08 12 10 0F 01  /.#)......).....
0390: 05 1D 30 80 23 29 08 12  10 0F 01 06 29 08 12 10  ..0.#)......)...
03A0: 0F 01 07 29 08 12 10 0F  01 08 20 00 21 00        ...)...... .!.  
```

#### Opcodes

```
  0: 0x0371 [0x1E] EventEntity looks at LocalPlayer and starts talking
  1: 0x0376 [0x6F] WAIT_FRAME_DELAY: Yield until WaitTime reaches zero
  2: 0x0377 [0x70] WAIT_ENTITY_RENDER_FLAG: Wait while EventEntity->Render.Flags3 bit 2 is set (cancel turn if not)
  3: 0x0378 [0x29] REQ_SET_WAIT(priority=0x08, entity_id=Sola Jaab (ID: 17764370/0x010F1012), tag_num=0x03)
  4: 0x037F [0x1D] PRINT_EVENT_MESSAGE(message_id=9434*)
    → "What an uproarrr! There's been anotherrr incident!"
  5: 0x0382 [0x23] WAIT_FOR_DIALOG_INTERACTION
  6: 0x0383 [0x29] REQ_SET_WAIT(priority=0x08, entity_id=Sola Jaab (ID: 17764370/0x010F1012), tag_num=0x04)
  7: 0x038A [0x29] REQ_SET_WAIT(priority=0x08, entity_id=Sola Jaab (ID: 17764370/0x010F1012), tag_num=0x05)
  8: 0x0391 [0x1D] PRINT_EVENT_MESSAGE(message_id=9435*)
    → "...But being a Tarutaru problem, it's probably nothing to get worked up about. He'll just get a slap on the wrist and a week in jail or something similarrr, I would think."
  9: 0x0394 [0x23] WAIT_FOR_DIALOG_INTERACTION
 10: 0x0395 [0x29] REQ_SET_WAIT(priority=0x08, entity_id=Sola Jaab (ID: 17764370/0x010F1012), tag_num=0x06)
 11: 0x039C [0x29] REQ_SET_WAIT(priority=0x08, entity_id=Sola Jaab (ID: 17764370/0x010F1012), tag_num=0x07)
 12: 0x03A3 [0x29] REQ_SET_WAIT(priority=0x08, entity_id=Sola Jaab (ID: 17764370/0x010F1012), tag_num=0x08)
 13: 0x03AA [0x20] SET_CLI_EVENT_UC_FLAG: Unlock player control
 14: 0x03AC [0x21] END_EVENT
 15: 0x03AD [0x00] END_REQSTACK()
```

### Event 571

#### Metadata

| Field        | Value    |
|--------------|----------|
| Entrypoint   | 0x03AE   |
| Data Size    | 61 bytes |
| Instructions | 16       |

```
      00 01 02 03 04 05 06 07  08 09 0A 0B 0C 0D 0E 0F
      -- -- -- -- -- -- -- --  -- -- -- -- -- -- -- --
03A0:                                            1E F0                ..
03B0: FF FF 7F 6F 70 29 08 12  10 0F 01 01 1D 31 80 23  ...op).......1.#
03C0: 29 08 12 10 0F 01 09 29  08 12 10 0F 01 05 1D 32  )......).......2
03D0: 80 23 29 08 12 10 0F 01  06 29 08 12 10 0F 01 07  .#)......)......
03E0: 29 08 12 10 0F 01 08 20  00 21 00                 )...... .!.     
```

#### Opcodes

```
  0: 0x03AE [0x1E] EventEntity looks at LocalPlayer and starts talking
  1: 0x03B3 [0x6F] WAIT_FRAME_DELAY: Yield until WaitTime reaches zero
  2: 0x03B4 [0x70] WAIT_ENTITY_RENDER_FLAG: Wait while EventEntity->Render.Flags3 bit 2 is set (cancel turn if not)
  3: 0x03B5 [0x29] REQ_SET_WAIT(priority=0x08, entity_id=Sola Jaab (ID: 17764370/0x010F1012), tag_num=0x01)
  4: 0x03BC [0x1D] PRINT_EVENT_MESSAGE(message_id=9445*)
    → "I despise cleaning, but I love those frog books."
  5: 0x03BF [0x23] WAIT_FOR_DIALOG_INTERACTION
  6: 0x03C0 [0x29] REQ_SET_WAIT(priority=0x08, entity_id=Sola Jaab (ID: 17764370/0x010F1012), tag_num=0x09)
  7: 0x03C7 [0x29] REQ_SET_WAIT(priority=0x08, entity_id=Sola Jaab (ID: 17764370/0x010F1012), tag_num=0x05)
  8: 0x03CE [0x1D] PRINT_EVENT_MESSAGE(message_id=9446*)
    → "If I were a rank seven adventurerrr being offered this mission... Rrr, what a dilemma!"
  9: 0x03D1 [0x23] WAIT_FOR_DIALOG_INTERACTION
 10: 0x03D2 [0x29] REQ_SET_WAIT(priority=0x08, entity_id=Sola Jaab (ID: 17764370/0x010F1012), tag_num=0x06)
 11: 0x03D9 [0x29] REQ_SET_WAIT(priority=0x08, entity_id=Sola Jaab (ID: 17764370/0x010F1012), tag_num=0x07)
 12: 0x03E0 [0x29] REQ_SET_WAIT(priority=0x08, entity_id=Sola Jaab (ID: 17764370/0x010F1012), tag_num=0x08)
 13: 0x03E7 [0x20] SET_CLI_EVENT_UC_FLAG: Unlock player control
 14: 0x03E9 [0x21] END_EVENT
 15: 0x03EA [0x00] END_REQSTACK()
```

### Event 576

#### Metadata

| Field        | Value    |
|--------------|----------|
| Entrypoint   | 0x03EB   |
| Data Size    | 33 bytes |
| Instructions | 12       |

```
      00 01 02 03 04 05 06 07  08 09 0A 0B 0C 0D 0E 0F
      -- -- -- -- -- -- -- --  -- -- -- -- -- -- -- --
03E0:                                   1E F0 FF FF 7F             .....
03F0: 6F 70 29 08 12 10 0F 01  01 1D 33 80 23 1D 34 80  op).......3.#.4.
0400: 23 29 08 12 10 0F 01 09  20 00 21 00              #)...... .!.    
```

#### Opcodes

```
  0: 0x03EB [0x1E] EventEntity looks at LocalPlayer and starts talking
  1: 0x03F0 [0x6F] WAIT_FRAME_DELAY: Yield until WaitTime reaches zero
  2: 0x03F1 [0x70] WAIT_ENTITY_RENDER_FLAG: Wait while EventEntity->Render.Flags3 bit 2 is set (cancel turn if not)
  3: 0x03F2 [0x29] REQ_SET_WAIT(priority=0x08, entity_id=Sola Jaab (ID: 17764370/0x010F1012), tag_num=0x01)
  4: 0x03F9 [0x1D] PRINT_EVENT_MESSAGE(message_id=9456*)
    → "We Mithra came to Windurst from a village far to the south."
  5: 0x03FC [0x23] WAIT_FOR_DIALOG_INTERACTION
  6: 0x03FD [0x1D] PRINT_EVENT_MESSAGE(message_id=9457*)
    → "...I don't really rememberrr much about it, though. Just that it was always hot."
  7: 0x0400 [0x23] WAIT_FOR_DIALOG_INTERACTION
  8: 0x0401 [0x29] REQ_SET_WAIT(priority=0x08, entity_id=Sola Jaab (ID: 17764370/0x010F1012), tag_num=0x09)
  9: 0x0408 [0x20] SET_CLI_EVENT_UC_FLAG: Unlock player control
 10: 0x040A [0x21] END_EVENT
 11: 0x040B [0x00] END_REQSTACK()
```

### Event 581

#### Metadata

| Field        | Value    |
|--------------|----------|
| Entrypoint   | 0x040C   |
| Data Size    | 33 bytes |
| Instructions | 12       |

```
      00 01 02 03 04 05 06 07  08 09 0A 0B 0C 0D 0E 0F
      -- -- -- -- -- -- -- --  -- -- -- -- -- -- -- --
0400:                                      1E F0 FF FF              ....
0410: 7F 6F 70 29 08 12 10 0F  01 01 1D 35 80 23 1D 36  .op).......5.#.6
0420: 80 23 29 08 12 10 0F 01  09 20 00 21 00           .#)...... .!.   
```

#### Opcodes

```
  0: 0x040C [0x1E] EventEntity looks at LocalPlayer and starts talking
  1: 0x0411 [0x6F] WAIT_FRAME_DELAY: Yield until WaitTime reaches zero
  2: 0x0412 [0x70] WAIT_ENTITY_RENDER_FLAG: Wait while EventEntity->Render.Flags3 bit 2 is set (cancel turn if not)
  3: 0x0413 [0x29] REQ_SET_WAIT(priority=0x08, entity_id=Sola Jaab (ID: 17764370/0x010F1012), tag_num=0x01)
  4: 0x041A [0x1D] PRINT_EVENT_MESSAGE(message_id=9467*)
    → "Let me see... ...You have [50/60/70/80/90/100] points!"
  5: 0x041D [0x23] WAIT_FOR_DIALOG_INTERACTION
  6: 0x041E [0x1D] PRINT_EVENT_MESSAGE(message_id=9468*)
    → "What do I mean, [50/60/70/80/90/100] points? Ah, now that would be telling!"
  7: 0x0421 [0x23] WAIT_FOR_DIALOG_INTERACTION
  8: 0x0422 [0x29] REQ_SET_WAIT(priority=0x08, entity_id=Sola Jaab (ID: 17764370/0x010F1012), tag_num=0x09)
  9: 0x0429 [0x20] SET_CLI_EVENT_UC_FLAG: Unlock player control
 10: 0x042B [0x21] END_EVENT
 11: 0x042C [0x00] END_REQSTACK()
```

### Event 611

#### Metadata

| Field        | Value    |
|--------------|----------|
| Entrypoint   | 0x042D   |
| Data Size    | 33 bytes |
| Instructions | 12       |

```
      00 01 02 03 04 05 06 07  08 09 0A 0B 0C 0D 0E 0F
      -- -- -- -- -- -- -- --  -- -- -- -- -- -- -- --
0420:                                         1E F0 FF               ...
0430: FF 7F 6F 70 1D 37 80 23  29 08 12 10 0F 01 03 1D  ..op.7.#).......
0440: 38 80 23 29 08 12 10 0F  01 04 20 00 21 00        8.#)...... .!.  
```

#### Opcodes

```
  0: 0x042D [0x1E] EventEntity looks at LocalPlayer and starts talking
  1: 0x0432 [0x6F] WAIT_FRAME_DELAY: Yield until WaitTime reaches zero
  2: 0x0433 [0x70] WAIT_ENTITY_RENDER_FLAG: Wait while EventEntity->Render.Flags3 bit 2 is set (cancel turn if not)
  3: 0x0434 [0x1D] PRINT_EVENT_MESSAGE(message_id=9469*)
    → "F...f...froggies!"
  4: 0x0437 [0x23] WAIT_FOR_DIALOG_INTERACTION
  5: 0x0438 [0x29] REQ_SET_WAIT(priority=0x08, entity_id=Sola Jaab (ID: 17764370/0x010F1012), tag_num=0x03)
  6: 0x043F [0x1D] PRINT_EVENT_MESSAGE(message_id=9470*)
    → "Meow!"
  7: 0x0442 [0x23] WAIT_FOR_DIALOG_INTERACTION
  8: 0x0443 [0x29] REQ_SET_WAIT(priority=0x08, entity_id=Sola Jaab (ID: 17764370/0x010F1012), tag_num=0x04)
  9: 0x044A [0x20] SET_CLI_EVENT_UC_FLAG: Unlock player control
 10: 0x044C [0x21] END_EVENT
 11: 0x044D [0x00] END_REQSTACK()
```

### Event 586

#### Metadata

| Field        | Value    |
|--------------|----------|
| Entrypoint   | 0x044E   |
| Data Size    | 47 bytes |
| Instructions | 14       |

```
      00 01 02 03 04 05 06 07  08 09 0A 0B 0C 0D 0E 0F
      -- -- -- -- -- -- -- --  -- -- -- -- -- -- -- --
0440:                                            1E F0                ..
0450: FF FF 7F 6F 70 29 08 12  10 0F 01 03 1D 39 80 23  ...op).......9.#
0460: 29 08 12 10 0F 01 04 29  08 12 10 0F 01 03 1D 3A  )......).......:
0470: 80 23 29 08 12 10 0F 01  04 20 00 21 00           .#)...... .!.   
```

#### Opcodes

```
  0: 0x044E [0x1E] EventEntity looks at LocalPlayer and starts talking
  1: 0x0453 [0x6F] WAIT_FRAME_DELAY: Yield until WaitTime reaches zero
  2: 0x0454 [0x70] WAIT_ENTITY_RENDER_FLAG: Wait while EventEntity->Render.Flags3 bit 2 is set (cancel turn if not)
  3: 0x0455 [0x29] REQ_SET_WAIT(priority=0x08, entity_id=Sola Jaab (ID: 17764370/0x010F1012), tag_num=0x03)
  4: 0x045C [0x1D] PRINT_EVENT_MESSAGE(message_id=9480*)
    → "Things are getting exciting now! All the guards arrre in on this secret together!"
  5: 0x045F [0x23] WAIT_FOR_DIALOG_INTERACTION
  6: 0x0460 [0x29] REQ_SET_WAIT(priority=0x08, entity_id=Sola Jaab (ID: 17764370/0x010F1012), tag_num=0x04)
  7: 0x0467 [0x29] REQ_SET_WAIT(priority=0x08, entity_id=Sola Jaab (ID: 17764370/0x010F1012), tag_num=0x03)
  8: 0x046E [0x1D] PRINT_EVENT_MESSAGE(message_id=9481*)
    → "I can hardly contain myself! But I won't let on to anyone. I'll just flick my tail and keep it in."
  9: 0x0471 [0x23] WAIT_FOR_DIALOG_INTERACTION
 10: 0x0472 [0x29] REQ_SET_WAIT(priority=0x08, entity_id=Sola Jaab (ID: 17764370/0x010F1012), tag_num=0x04)
 11: 0x0479 [0x20] SET_CLI_EVENT_UC_FLAG: Unlock player control
 12: 0x047B [0x21] END_EVENT
 13: 0x047C [0x00] END_REQSTACK()
```

### Event 616

#### Metadata

| Field        | Value    |
|--------------|----------|
| Entrypoint   | 0x047D   |
| Data Size    | 47 bytes |
| Instructions | 14       |

```
      00 01 02 03 04 05 06 07  08 09 0A 0B 0C 0D 0E 0F
      -- -- -- -- -- -- -- --  -- -- -- -- -- -- -- --
0470:                                         1E F0 FF               ...
0480: FF 7F 6F 70 29 08 12 10  0F 01 05 1D 3B 80 23 29  ..op).......;.#)
0490: 08 12 10 0F 01 06 29 08  12 10 0F 01 07 1D 3C 80  ......).......<.
04A0: 23 29 08 12 10 0F 01 08  20 00 21 00              #)...... .!.    
```

#### Opcodes

```
  0: 0x047D [0x1E] EventEntity looks at LocalPlayer and starts talking
  1: 0x0482 [0x6F] WAIT_FRAME_DELAY: Yield until WaitTime reaches zero
  2: 0x0483 [0x70] WAIT_ENTITY_RENDER_FLAG: Wait while EventEntity->Render.Flags3 bit 2 is set (cancel turn if not)
  3: 0x0484 [0x29] REQ_SET_WAIT(priority=0x08, entity_id=Sola Jaab (ID: 17764370/0x010F1012), tag_num=0x05)
  4: 0x048B [0x1D] PRINT_EVENT_MESSAGE(message_id=9577*)
    → "These Tarutaru sure can be a vicious little bunch."
  5: 0x048E [0x23] WAIT_FOR_DIALOG_INTERACTION
  6: 0x048F [0x29] REQ_SET_WAIT(priority=0x08, entity_id=Sola Jaab (ID: 17764370/0x010F1012), tag_num=0x06)
  7: 0x0496 [0x29] REQ_SET_WAIT(priority=0x08, entity_id=Sola Jaab (ID: 17764370/0x010F1012), tag_num=0x07)
  8: 0x049D [0x1D] PRINT_EVENT_MESSAGE(message_id=9578*)
    → "We Mithra would neverrr leave someone anguishing in torment like that. Those who transgress against Mithran law are cut down cleanly and face-to-face by the Mithran Trackerrr."
  9: 0x04A0 [0x23] WAIT_FOR_DIALOG_INTERACTION
 10: 0x04A1 [0x29] REQ_SET_WAIT(priority=0x08, entity_id=Sola Jaab (ID: 17764370/0x010F1012), tag_num=0x08)
 11: 0x04A8 [0x20] SET_CLI_EVENT_UC_FLAG: Unlock player control
 12: 0x04AA [0x21] END_EVENT
 13: 0x04AB [0x00] END_REQSTACK()
```

### Event 630

#### Metadata

| Field        | Value    |
|--------------|----------|
| Entrypoint   | 0x04AC   |
| Data Size    | 47 bytes |
| Instructions | 14       |

```
      00 01 02 03 04 05 06 07  08 09 0A 0B 0C 0D 0E 0F
      -- -- -- -- -- -- -- --  -- -- -- -- -- -- -- --
04A0:                                      1E F0 FF FF              ....
04B0: 7F 6F 70 29 08 12 10 0F  01 05 1D 3D 80 23 29 08  .op).......=.#).
04C0: 12 10 0F 01 06 29 08 12  10 0F 01 07 1D 3E 80 23  .....).......>.#
04D0: 29 08 12 10 0F 01 08 20  00 21 00                 )...... .!.     
```

#### Opcodes

```
  0: 0x04AC [0x1E] EventEntity looks at LocalPlayer and starts talking
  1: 0x04B1 [0x6F] WAIT_FRAME_DELAY: Yield until WaitTime reaches zero
  2: 0x04B2 [0x70] WAIT_ENTITY_RENDER_FLAG: Wait while EventEntity->Render.Flags3 bit 2 is set (cancel turn if not)
  3: 0x04B3 [0x29] REQ_SET_WAIT(priority=0x08, entity_id=Sola Jaab (ID: 17764370/0x010F1012), tag_num=0x05)
  4: 0x04BA [0x1D] PRINT_EVENT_MESSAGE(message_id=9642*)
    → "...... Grrr..."
  5: 0x04BD [0x23] WAIT_FOR_DIALOG_INTERACTION
  6: 0x04BE [0x29] REQ_SET_WAIT(priority=0x08, entity_id=Sola Jaab (ID: 17764370/0x010F1012), tag_num=0x06)
  7: 0x04C5 [0x29] REQ_SET_WAIT(priority=0x08, entity_id=Sola Jaab (ID: 17764370/0x010F1012), tag_num=0x07)
  8: 0x04CC [0x1D] PRINT_EVENT_MESSAGE(message_id=9643*)
    → "Captain Buuma said something that really upset me...! I'm in such a state, my furrr is starting to fall out...!"
  9: 0x04CF [0x23] WAIT_FOR_DIALOG_INTERACTION
 10: 0x04D0 [0x29] REQ_SET_WAIT(priority=0x08, entity_id=Sola Jaab (ID: 17764370/0x010F1012), tag_num=0x08)
 11: 0x04D7 [0x20] SET_CLI_EVENT_UC_FLAG: Unlock player control
 12: 0x04D9 [0x21] END_EVENT
 13: 0x04DA [0x00] END_REQSTACK()
```

### Event 627

#### Metadata

| Field        | Value    |
|--------------|----------|
| Entrypoint   | 0x04DB   |
| Data Size    | 47 bytes |
| Instructions | 14       |

```
      00 01 02 03 04 05 06 07  08 09 0A 0B 0C 0D 0E 0F
      -- -- -- -- -- -- -- --  -- -- -- -- -- -- -- --
04D0:                                   1E F0 FF FF 7F             .....
04E0: 6F 70 29 08 12 10 0F 01  01 1D 3F 80 23 29 08 12  op).......?.#)..
04F0: 10 0F 01 02 29 08 12 10  0F 01 03 1D 40 80 23 29  ....).......@.#)
0500: 08 12 10 0F 01 04 20 00  21 00                    ...... .!.      
```

#### Opcodes

```
  0: 0x04DB [0x1E] EventEntity looks at LocalPlayer and starts talking
  1: 0x04E0 [0x6F] WAIT_FRAME_DELAY: Yield until WaitTime reaches zero
  2: 0x04E1 [0x70] WAIT_ENTITY_RENDER_FLAG: Wait while EventEntity->Render.Flags3 bit 2 is set (cancel turn if not)
  3: 0x04E2 [0x29] REQ_SET_WAIT(priority=0x08, entity_id=Sola Jaab (ID: 17764370/0x010F1012), tag_num=0x01)
  4: 0x04E9 [0x1D] PRINT_EVENT_MESSAGE(message_id=9661*)
    → "Captain Buuma was saying that our work might dry up completely after this next mission. If that happens, I'm gonna go hungry."
  5: 0x04EC [0x23] WAIT_FOR_DIALOG_INTERACTION
  6: 0x04ED [0x29] REQ_SET_WAIT(priority=0x08, entity_id=Sola Jaab (ID: 17764370/0x010F1012), tag_num=0x02)
  7: 0x04F4 [0x29] REQ_SET_WAIT(priority=0x08, entity_id=Sola Jaab (ID: 17764370/0x010F1012), tag_num=0x03)
  8: 0x04FB [0x1D] PRINT_EVENT_MESSAGE(message_id=9662*)
    → "That's why I've started fishing again. I bought the most amazing fishing rod! It was so nice of Miiri-Wohri to lend me the money!"
  9: 0x04FE [0x23] WAIT_FOR_DIALOG_INTERACTION
 10: 0x04FF [0x29] REQ_SET_WAIT(priority=0x08, entity_id=Sola Jaab (ID: 17764370/0x010F1012), tag_num=0x04)
 11: 0x0506 [0x20] SET_CLI_EVENT_UC_FLAG: Unlock player control
 12: 0x0508 [0x21] END_EVENT
 13: 0x0509 [0x00] END_REQSTACK()
```

### Event 634

#### Metadata

| Field        | Value    |
|--------------|----------|
| Entrypoint   | 0x050A   |
| Data Size    | 47 bytes |
| Instructions | 14       |

```
      00 01 02 03 04 05 06 07  08 09 0A 0B 0C 0D 0E 0F
      -- -- -- -- -- -- -- --  -- -- -- -- -- -- -- --
0500:                                1E F0 FF FF 7F 6F            .....o
0510: 70 29 08 12 10 0F 01 03  1D 41 80 23 29 08 12 10  p).......A.#)...
0520: 0F 01 04 29 08 12 10 0F  01 01 1D 42 80 23 29 08  ...).......B.#).
0530: 12 10 0F 01 02 20 00 21  00                       ..... .!.       
```

#### Opcodes

```
  0: 0x050A [0x1E] EventEntity looks at LocalPlayer and starts talking
  1: 0x050F [0x6F] WAIT_FRAME_DELAY: Yield until WaitTime reaches zero
  2: 0x0510 [0x70] WAIT_ENTITY_RENDER_FLAG: Wait while EventEntity->Render.Flags3 bit 2 is set (cancel turn if not)
  3: 0x0511 [0x29] REQ_SET_WAIT(priority=0x08, entity_id=Sola Jaab (ID: 17764370/0x010F1012), tag_num=0x03)
  4: 0x0518 [0x1D] PRINT_EVENT_MESSAGE(message_id=9699*)
    → "Fishing is fun, but I'm a Windurst Woods guard first and foremost! The safety of this city is my top priority!"
  5: 0x051B [0x23] WAIT_FOR_DIALOG_INTERACTION
  6: 0x051C [0x29] REQ_SET_WAIT(priority=0x08, entity_id=Sola Jaab (ID: 17764370/0x010F1012), tag_num=0x04)
  7: 0x0523 [0x29] REQ_SET_WAIT(priority=0x08, entity_id=Sola Jaab (ID: 17764370/0x010F1012), tag_num=0x01)
  8: 0x052A [0x1D] PRINT_EVENT_MESSAGE(message_id=9700*)
    → "Oh, and by the way, I finally learned your name. You're <Player>, right?"
  9: 0x052D [0x23] WAIT_FOR_DIALOG_INTERACTION
 10: 0x052E [0x29] REQ_SET_WAIT(priority=0x08, entity_id=Sola Jaab (ID: 17764370/0x010F1012), tag_num=0x02)
 11: 0x0535 [0x20] SET_CLI_EVENT_UC_FLAG: Unlock player control
 12: 0x0537 [0x21] END_EVENT
 13: 0x0538 [0x00] END_REQSTACK()
```
