# 0x7FFFFFF0 - Zone Events

## Common Data

| Field            | Value                    |
|------------------|--------------------------|
| Zone             | Windurst Woods (ID: 241) |
| Block Size       | 5256 bytes               |
| Total Events     | 137                      |
| References Count | 372                      |

## List of Events

| Event ID                     | Entrypoint   |   Size |   Instructions |
|------------------------------|--------------|--------|----------------|
| [65535](#event-65535)        | 0x0000       |      1 |              1 |
| [65535.1](#event-655351)     | 0x0001       |     10 |              2 |
| [65534](#event-65534)        | 0x000B       |      1 |              1 |
| [65535.2](#event-655352)     | 0x000C       |      1 |              1 |
| [65535.3](#event-655353)     | 0x000D       |      6 |              2 |
| [65535.4](#event-655354)     | 0x0013       |      6 |              2 |
| [65535.5](#event-655355)     | 0x0019       |      6 |              2 |
| [65535.6](#event-655356)     | 0x001F       |      6 |              2 |
| [65535.7](#event-655357)     | 0x0025       |     77 |              9 |
| [65535.8](#event-655358)     | 0x0072       |     29 |              5 |
| [65535.9](#event-655359)     | 0x008F       |     77 |              9 |
| [65535.10](#event-6553510)   | 0x00DC       |     29 |              5 |
| [65535.11](#event-6553511)   | 0x00F9       |     77 |              9 |
| [65535.12](#event-6553512)   | 0x0146       |     29 |              5 |
| [65535.13](#event-6553513)   | 0x0163       |    105 |             13 |
| [65535.14](#event-6553514)   | 0x01CC       |     13 |              3 |
| [31](#event-31)              | 0x01D9       |      1 |              1 |
| [32](#event-32)              | 0x01DA       |      1 |              1 |
| [33](#event-33)              | 0x01DB       |      1 |              1 |
| [34](#event-34)              | 0x01DC       |      1 |              1 |
| [35](#event-35)              | 0x01DD       |      1 |              1 |
| [36](#event-36)              | 0x01DE       |      1 |              1 |
| [37](#event-37)              | 0x01DF       |      1 |              1 |
| [38](#event-38)              | 0x01E0       |      1 |              1 |
| [39](#event-39)              | 0x01E1       |      1 |              1 |
| [40](#event-40)              | 0x01E2       |      1 |              1 |
| [65535.15](#event-6553515)   | 0x01E3       |     13 |              3 |
| [65535.16](#event-6553516)   | 0x01F0       |     13 |              3 |
| [65535.17](#event-6553517)   | 0x01FD       |     13 |              3 |
| [65535.18](#event-6553518)   | 0x020A       |     13 |              3 |
| [65535.19](#event-6553519)   | 0x0217       |     13 |              3 |
| [65535.20](#event-6553520)   | 0x0224       |     13 |              3 |
| [65535.21](#event-6553521)   | 0x0231       |     13 |              3 |
| [65535.22](#event-6553522)   | 0x023E       |     13 |              3 |
| [65535.23](#event-6553523)   | 0x024B       |     13 |              3 |
| [65535.24](#event-6553524)   | 0x0258       |     13 |              3 |
| [65535.25](#event-6553525)   | 0x0265       |     13 |              3 |
| [65535.26](#event-6553526)   | 0x0272       |     13 |              3 |
| [65535.27](#event-6553527)   | 0x027F       |     13 |              3 |
| [65535.28](#event-6553528)   | 0x028C       |     13 |              3 |
| [65535.29](#event-6553529)   | 0x0299       |      4 |              2 |
| [367](#event-367)            | 0x029D       |      1 |              1 |
| [65535.30](#event-6553530)   | 0x029E       |     27 |              7 |
| [65535.31](#event-6553531)   | 0x02B9       |     10 |              2 |
| [65535.32](#event-6553532)   | 0x02C3       |     10 |              2 |
| [65535.33](#event-6553533)   | 0x02CD       |     10 |              2 |
| [65535.34](#event-6553534)   | 0x02D7       |     10 |              2 |
| [65535.35](#event-6553535)   | 0x02E1       |     10 |              2 |
| [65535.36](#event-6553536)   | 0x02EB       |     10 |              2 |
| [65535.37](#event-6553537)   | 0x02F5       |     10 |              2 |
| [65535.38](#event-6553538)   | 0x02FF       |     10 |              2 |
| [65535.39](#event-6553539)   | 0x0309       |     10 |              2 |
| [65535.40](#event-6553540)   | 0x0313       |     10 |              2 |
| [65535.41](#event-6553541)   | 0x031D       |     28 |              6 |
| [65535.42](#event-6553542)   | 0x0339       |     10 |              2 |
| [65535.43](#event-6553543)   | 0x0343       |     10 |              2 |
| [65535.44](#event-6553544)   | 0x034D       |     10 |              2 |
| [65535.45](#event-6553545)   | 0x0357       |     10 |              2 |
| [65535.46](#event-6553546)   | 0x0361       |     10 |              2 |
| [65535.47](#event-6553547)   | 0x036B       |     10 |              2 |
| [65535.48](#event-6553548)   | 0x0375       |     10 |              2 |
| [65535.49](#event-6553549)   | 0x037F       |     11 |              3 |
| [65535.50](#event-6553550)   | 0x038A       |     53 |              5 |
| [65535.51](#event-6553551)   | 0x03BF       |     10 |              2 |
| [65535.52](#event-6553552)   | 0x03C9       |     14 |              4 |
| [65535.53](#event-6553553)   | 0x03D7       |     10 |              2 |
| [65535.54](#event-6553554)   | 0x03E1       |     10 |              2 |
| [65535.55](#event-6553555)   | 0x03EB       |     10 |              2 |
| [65535.56](#event-6553556)   | 0x03F5       |     87 |              7 |
| [65535.57](#event-6553557)   | 0x044C       |     10 |              2 |
| [65535.58](#event-6553558)   | 0x0456       |     50 |              8 |
| [65535.59](#event-6553559)   | 0x0488       |     10 |              2 |
| [65535.60](#event-6553560)   | 0x0492       |     30 |              5 |
| [65535.61](#event-6553561)   | 0x04B0       |     10 |              2 |
| [65535.62](#event-6553562)   | 0x04BA       |     28 |              8 |
| [65535.63](#event-6553563)   | 0x04D6       |     20 |              3 |
| [65535.64](#event-6553564)   | 0x04EA       |     20 |              3 |
| [747](#event-747)            | 0x04FE       |    249 |             30 |
| [65535.65](#event-6553565)   | 0x05F7       |     15 |              3 |
| [65535.66](#event-6553566)   | 0x0606       |     15 |              3 |
| [65535.67](#event-6553567)   | 0x0615       |     19 |              5 |
| [65535.68](#event-6553568)   | 0x0628       |     15 |              3 |
| [65535.69](#event-6553569)   | 0x0637       |     24 |              6 |
| [65535.70](#event-6553570)   | 0x064F       |     15 |              3 |
| [65535.71](#event-6553571)   | 0x065E       |     15 |              3 |
| [65535.72](#event-6553572)   | 0x066D       |     19 |              5 |
| [65535.73](#event-6553573)   | 0x0680       |     15 |              3 |
| [65535.74](#event-6553574)   | 0x068F       |     19 |              5 |
| [65535.75](#event-6553575)   | 0x06A2       |     15 |              3 |
| [65535.76](#event-6553576)   | 0x06B1       |     19 |              5 |
| [65535.77](#event-6553577)   | 0x06C4       |     15 |              3 |
| [65535.78](#event-6553578)   | 0x06D3       |     15 |              3 |
| [65535.79](#event-6553579)   | 0x06E2       |     15 |              3 |
| [65535.80](#event-6553580)   | 0x06F1       |     19 |              5 |
| [65535.81](#event-6553581)   | 0x0704       |     27 |              7 |
| [65535.82](#event-6553582)   | 0x071F       |     14 |              4 |
| [65535.83](#event-6553583)   | 0x072D       |     14 |              4 |
| [65535.84](#event-6553584)   | 0x073B       |     33 |              7 |
| [65535.85](#event-6553585)   | 0x075C       |     27 |              7 |
| [65535.86](#event-6553586)   | 0x0777       |     14 |              4 |
| [65535.87](#event-6553587)   | 0x0785       |     14 |              4 |
| [65535.88](#event-6553588)   | 0x0793       |     33 |              7 |
| [65535.89](#event-6553589)   | 0x07B4       |     27 |              7 |
| [65535.90](#event-6553590)   | 0x07CF       |     14 |              4 |
| [65535.91](#event-6553591)   | 0x07DD       |     10 |              2 |
| [65535.92](#event-6553592)   | 0x07E7       |     14 |              4 |
| [65535.93](#event-6553593)   | 0x07F5       |     15 |              3 |
| [65535.94](#event-6553594)   | 0x0804       |     15 |              3 |
| [65535.95](#event-6553595)   | 0x0813       |     15 |              3 |
| [65535.96](#event-6553596)   | 0x0822       |     15 |              3 |
| [65535.97](#event-6553597)   | 0x0831       |     37 |              5 |
| [65535.98](#event-6553598)   | 0x0856       |    185 |             37 |
| [65535.99](#event-6553599)   | 0x090F       |     41 |             10 |
| [65535.100](#event-65535100) | 0x0938       |      9 |              3 |
| [65535.101](#event-65535101) | 0x0941       |     14 |              4 |
| [65535.102](#event-65535102) | 0x094F       |     24 |              4 |
| [65535.103](#event-65535103) | 0x0967       |     24 |              4 |
| [65535.104](#event-65535104) | 0x097F       |    353 |             41 |
| [65535.105](#event-65535105) | 0x0AE0       |     14 |              4 |
| [65535.106](#event-65535106) | 0x0AEE       |      4 |              2 |
| [65535.107](#event-65535107) | 0x0AF2       |     14 |              4 |
| [65535.108](#event-65535108) | 0x0B00       |     10 |              2 |
| [65535.109](#event-65535109) | 0x0B0A       |     10 |              2 |
| [65535.110](#event-65535110) | 0x0B14       |     14 |              4 |
| [65535.111](#event-65535111) | 0x0B22       |     27 |              5 |
| [65535.112](#event-65535112) | 0x0B3D       |     37 |              5 |
| [65535.113](#event-65535113) | 0x0B62       |     37 |              5 |
| [65535.114](#event-65535114) | 0x0B87       |     15 |              5 |
| [65535.115](#event-65535115) | 0x0B96       |     41 |              9 |
| [65535.116](#event-65535116) | 0x0BBF       |     29 |              5 |
| [65535.117](#event-65535117) | 0x0BDC       |     24 |              4 |
| [65535.118](#event-65535118) | 0x0BF4       |     24 |              4 |
| [65535.119](#event-65535119) | 0x0C0C       |     42 |              6 |
| [65535.120](#event-65535120) | 0x0C36       |     27 |              3 |
| [65535.121](#event-65535121) | 0x0C51       |     27 |              3 |
| [65535.122](#event-65535122) | 0x0C6C       |      8 |              4 |
| [65535.123](#event-65535123) | 0x0C74       |     14 |              4 |

## DAT References (imed_data)

|   Index | Hex Value   |   Dec Value |
|---------|-------------|-------------|
|       0 | 0x009A      |         154 |
|       1 | 0xFFFFF98B  |  4294965643 |
|       2 | 0x0000      |           0 |
|       3 | 0x0B83      |        2947 |
|       4 | 0x000D      |          13 |
|       5 | 0x008D      |         141 |
|       6 | 0x21B44     |      138052 |
|       7 | 0xFFFDFD3D  |  4294835517 |
|       8 | 0xFFFFEB7E  |  4294962046 |
|       9 | 0x009B      |         155 |
|      10 | 0x220D2     |      139474 |
|      11 | 0xFFFDFD2A  |  4294835498 |
|      12 | 0x220CA     |      139466 |
|      13 | 0xFFFE0043  |  4294836291 |
|      14 | 0x21B1C     |      138012 |
|      15 | 0xFFFE1054  |  4294840404 |
|      16 | 0x0EBF      |        3775 |
|      17 | 0x220BE     |      139454 |
|      18 | 0xFFFE1015  |  4294840341 |
|      19 | 0x22175     |      139637 |
|      20 | 0xFFFE13D3  |  4294841299 |
|      21 | 0x21A20     |      137760 |
|      22 | 0xFFFE240D  |  4294845453 |
|      23 | 0x0FB3      |        4019 |
|      24 | 0x22127     |      139559 |
|      25 | 0xFFFE2443  |  4294845507 |
|      26 | 0x2220F     |      139791 |
|      27 | 0xFFFE263C  |  4294846012 |
|      28 | 0x001B      |          27 |
|      29 | 0x23156     |      143702 |
|      30 | 0xFFFE3095  |  4294848661 |
|      31 | 0x0BCD      |        3021 |
|      32 | 0x23197     |      143767 |
|      33 | 0xFFFE4B4C  |  4294855500 |
|      34 | 0x0050      |          80 |
|      35 | 0x00CA      |         202 |
|      36 | 0x00C8      |         200 |
|      37 | 0x24F48     |      151368 |
|      38 | 0xFFFE4D25  |  4294855973 |
|      39 | 0x0078      |         120 |
|      40 | 0x1CBBA     |      117690 |
|      41 | 0xFFFF6444  |  4294927428 |
|      42 | 0xFFFFEC79  |  4294962297 |
|      43 | 0x07B1      |        1969 |
|      44 | 0xFFFF8CCE  |  4294937806 |
|      45 | 0x178D      |        6029 |
|      46 | 0xFFFFF63D  |  4294964797 |
|      47 | 0x0CB5      |        3253 |
|      48 | 0xFFFFA727  |  4294944551 |
|      49 | 0xFFFFA464  |  4294943844 |
|      50 | 0xFFFFF543  |  4294964547 |
|      51 | 0x0054      |          84 |
|      52 | 0xFFFF3C69  |  4294917225 |
|      53 | 0xFFFE5A45  |  4294859333 |
|      54 | 0xFFFFFEF7  |  4294967031 |
|      55 | 0x0841      |        2113 |
|      56 | 0x07F4      |        2036 |
|      57 | 0xFFFDE5F3  |  4294829555 |
|      58 | 0x0880      |        2176 |
|      59 | 0x2C9C      |       11420 |
|      60 | 0xFFFD8FF8  |  4294807544 |
|      61 | 0xFFFFEF66  |  4294963046 |
|      62 | 0x004A      |          74 |
|      63 | 0xCDD1      |       52689 |
|      64 | 0xFFFDD343  |  4294824771 |
|      65 | 0xFFFFF70A  |  4294965002 |
|      66 | 0x0E16      |        3606 |
|      67 | 0x1FDDB     |      130523 |
|      68 | 0xFFFE6495  |  4294861973 |
|      69 | 0x0E47      |        3655 |
|      70 | 0xFFFF2505  |  4294911237 |
|      71 | 0xFFFF6125  |  4294926629 |
|      72 | 0x01F3      |         499 |
|      73 | 0x05AA      |        1450 |
|      74 | 0x1BF00     |      114432 |
|      75 | 0xFFFF9EFF  |  4294942463 |
|      76 | 0x0190      |         400 |
|      77 | 0x10896     |       67734 |
|      78 | 0xBA1C      |       47644 |
|      79 | 0xFFFFF061  |  4294963297 |
|      80 | 0x0381      |         897 |
|      81 | 0x1A749     |      108361 |
|      82 | 0x1AABD     |      109245 |
|      83 | 0x0C3E      |        3134 |
|      84 | 0xED3D      |       60733 |
|      85 | 0x3A155     |      237909 |
|      86 | 0xFFFFED73  |  4294962547 |
|      87 | 0x0EE3      |        3811 |
|      88 | 0x8237      |       33335 |
|      89 | 0x22068     |      139368 |
|      90 | 0x0DD5      |        3541 |
|      91 | 0x0007      |           7 |
|      92 | 0x0064      |         100 |
|      93 | 0x997D      |       39293 |
|      94 | 0xFFFF6E70  |  4294930032 |
|      95 | 0x00DC      |         220 |
|      96 | 0x0844      |        2116 |
|      97 | 0x76C6      |       30406 |
|      98 | 0xFFFF677C  |  4294928252 |
|      99 | 0x07CF      |        1999 |
|     100 | 0x000A      |          10 |
|     101 | 0x1A387     |      107399 |
|     102 | 0xFFFFA133  |  4294943027 |
|     103 | 0xFFFFEC78  |  4294962296 |
|     104 | 0x0F91      |        3985 |
|     105 | 0xFFFFD12C  |  4294955308 |
|     106 | 0x3472      |       13426 |
|     107 | 0x0CBC      |        3260 |
|     108 | 0xF2C7      |       62151 |
|     109 | 0x3A740     |      239424 |
|     110 | 0x0F95      |        3989 |
|     111 | 0xFFFF3412  |  4294915090 |
|     112 | 0xFFFF8DCA  |  4294938058 |
|     113 | 0x0DE7      |        3559 |
|     114 | 0xFFFFDC35  |  4294958133 |
|     115 | 0xFFFFA3AA  |  4294943658 |
|     116 | 0xFFFFF542  |  4294964546 |
|     117 | 0x05CB      |        1483 |
|     118 | 0xFFFFA102  |  4294942978 |
|     119 | 0xFFFFA59B  |  4294944155 |
|     120 | 0xFFFFF63C  |  4294964796 |
|     121 | 0x0F44      |        3908 |
|     122 | 0xFFFFEE25  |  4294962725 |
|     123 | 0xFFFFA8CD  |  4294944973 |
|     124 | 0xFFFFF15B  |  4294963547 |
|     125 | 0x0149      |         329 |
|     126 | 0xFFFFA6C5  |  4294944453 |
|     127 | 0x2B94      |       11156 |
|     128 | 0x0F85      |        3973 |
|     129 | 0xFFFFD997  |  4294957463 |
|     130 | 0xFFFF9F62  |  4294942562 |
|     131 | 0x0385      |         901 |
|     132 | 0xFFFFD20A  |  4294955530 |
|     133 | 0x36FA      |       14074 |
|     134 | 0x0859      |        2137 |
|     135 | 0x0F3B      |        3899 |
|     136 | 0x001E      |          30 |
|     137 | 0x03E8      |        1000 |
|     138 | 0x07D0      |        2000 |
|     139 | 0x1CADF     |      117471 |
|     140 | 0x16BF1     |       93169 |
|     141 | 0x0400      |        1024 |
|     142 | 0xFFFFB97C  |  4294949244 |
|     143 | 0xFFFF268F  |  4294911631 |
|     144 | 0x0ABD      |        2749 |
|     145 | 0x0439      |        1081 |
|     146 | 0xF81F      |       63519 |
|     147 | 0x3A8D7     |      239831 |
|     148 | 0x0F86      |        3974 |
|     149 | 0x1CF04     |      118532 |
|     150 | 0x166B3     |       91827 |
|     151 | 0x0613      |        1555 |
|     152 | 0x0745      |        1861 |
|     153 | 0x1C4B1     |      115889 |
|     154 | 0x16EEF     |       93935 |
|     155 | 0x00E4      |         228 |
|     156 | 0x1C321     |      115489 |
|     157 | 0x00F0      |         240 |
|     158 | 0x0D64      |        3428 |
|     159 | 0x00D6      |         214 |
|     160 | 0xFFFFED55  |  4294962517 |
|     161 | 0xFFFFB225  |  4294947365 |
|     162 | 0xFFFFF0B3  |  4294963379 |
|     163 | 0x0FEC      |        4076 |
|     164 | 0x028D      |         653 |
|     165 | 0xFFFFB385  |  4294947717 |
|     166 | 0x0111      |         273 |
|     167 | 0xFFFFB045  |  4294946885 |
|     168 | 0x0E20      |        3616 |
|     169 | 0xFFFFD0F9  |  4294955257 |
|     170 | 0x318E      |       12686 |
|     171 | 0x0BCA      |        3018 |
|     172 | 0xFFFFCD25  |  4294954277 |
|     173 | 0x2D55      |       11605 |
|     174 | 0x0CF2      |        3314 |
|     175 | 0x00FB      |         251 |
|     176 | 0x1CB06     |      117510 |
|     177 | 0x16745     |       91973 |
|     178 | 0x03D8      |         984 |
|     179 | 0x0003      |           3 |
|     180 | 0x1C8F5     |      116981 |
|     181 | 0x16ABB     |       92859 |
|     182 | 0x045E      |        1118 |
|     183 | 0x0008      |           8 |
|     184 | 0x1CB07     |      117511 |
|     185 | 0x169C8     |       92616 |
|     186 | 0x042B      |        1067 |
|     187 | 0x1C82C     |      116780 |
|     188 | 0x16AA2     |       92834 |
|     189 | 0x0F4F      |        3919 |
|     190 | 0x1C813     |      116755 |
|     191 | 0x16A5C     |       92764 |
|     192 | 0x032D      |         813 |
|     193 | 0x1C8DA     |      116954 |
|     194 | 0x16846     |       92230 |
|     195 | 0x02A8      |         680 |
|     196 | 0x1368C     |       79500 |
|     197 | 0x18830     |      100400 |
|     198 | 0xFFFFEF67  |  4294963047 |
|     199 | 0x079F      |        1951 |
|     200 | 0x12839     |       75833 |
|     201 | 0x04FB      |        1275 |
|     202 | 0xFFFF6F8F  |  4294930319 |
|     203 | 0xFFFE2DAD  |  4294847917 |
|     204 | 0xFFFFFB1E  |  4294966046 |
|     205 | 0x05EC      |        1516 |
|     206 | 0xFFFFEA19  |  4294961689 |
|     207 | 0xFFFDD3EE  |  4294824942 |
|     208 | 0xFFFFEB7F  |  4294962047 |
|     209 | 0x051F      |        1311 |
|     210 | 0x01A5      |         421 |
|     211 | 0x00FE      |         254 |
|     212 | 0x003C      |          60 |
|     213 | 0x2CD2      |       11474 |
|     214 | 0x0031      |          49 |
|     215 | 0x2CD3      |       11475 |
|     216 | 0x1FFEB     |      131051 |
|     217 | 0xFFFE2615  |  4294845973 |
|     218 | 0x0A10      |        2576 |
|     219 | 0xFFFEEDC6  |  4294897094 |
|     220 | 0xFFF84036  |  4294459446 |
|     221 | 0xFFFFEBFC  |  4294962172 |
|     222 | 0x0F0E      |        3854 |
|     223 | 0xFFFF21BE  |  4294910398 |
|     224 | 0xFFF84592  |  4294460818 |
|     225 | 0xFFFFEC02  |  4294962178 |
|     226 | 0xFFFEFCC2  |  4294900930 |
|     227 | 0xFFF56D3B  |  4294274363 |
|     228 | 0x19E0      |        6624 |
|     229 | 0x02E7      |         743 |
|     230 | 0xFFFF0DD7  |  4294905303 |
|     231 | 0xFFF553A0  |  4294267808 |
|     232 | 0x2321      |        8993 |
|     233 | 0x0122      |         290 |
|     234 | 0xFFFF85D4  |  4294936020 |
|     235 | 0xFFFE076C  |  4294838124 |
|     236 | 0x0074      |         116 |
|     237 | 0x01FB      |         507 |
|     238 | 0xFFFF61DF  |  4294926815 |
|     239 | 0xFFF6FF26  |  4294377254 |
|     240 | 0x7E27      |       32295 |
|     241 | 0x0E25      |        3621 |
|     242 | 0xFFFF7162  |  4294930786 |
|     243 | 0xFFF71119  |  4294381849 |
|     244 | 0x7F1A      |       32538 |
|     245 | 0x213AA     |      136106 |
|     246 | 0xFFFD56BD  |  4294792893 |
|     247 | 0xFFFFD208  |  4294955528 |
|     248 | 0x0E14      |        3604 |
|     249 | 0x2290B     |      141579 |
|     250 | 0xFFFD705B  |  4294799451 |
|     251 | 0xFFFFCD90  |  4294954384 |
|     252 | 0xA4860     |      673888 |
|     253 | 0xFFF9AE18  |  4294553112 |
|     254 | 0x0329      |         809 |
|     255 | 0x0759      |        1881 |
|     256 | 0xA2A4C     |      666188 |
|     257 | 0xFFF9AF3B  |  4294553403 |
|     258 | 0x031C      |         796 |
|     259 | 0xFFFF89A6  |  4294936998 |
|     260 | 0xFFFEC2BD  |  4294886077 |
|     261 | 0x0BB7      |        2999 |
|     262 | 0x0107      |         263 |
|     263 | 0xFFFFAEF8  |  4294946552 |
|     264 | 0xFFFF3CE4  |  4294917348 |
|     265 | 0x0C3A      |        3130 |
|     266 | 0xFFFEFBAA  |  4294900650 |
|     267 | 0xFFF858C8  |  4294465736 |
|     268 | 0xFFFFEA8E  |  4294961806 |
|     269 | 0x09FD      |        2557 |
|     270 | 0xFFFF1882  |  4294908034 |
|     271 | 0xFFF83FD5  |  4294459349 |
|     272 | 0xFFFFEADA  |  4294961882 |
|     273 | 0xFFFF1B9B  |  4294908827 |
|     274 | 0xFFF83C51  |  4294458449 |
|     275 | 0xFFFFEB3D  |  4294961981 |
|     276 | 0xFFFF07DA  |  4294903770 |
|     277 | 0xFFF84225  |  4294459941 |
|     278 | 0xFFFFEA85  |  4294961797 |
|     279 | 0xFFFF1EA7  |  4294909607 |
|     280 | 0xFFF85278  |  4294464120 |
|     281 | 0xFFFFEB31  |  4294961969 |
|     282 | 0xFFFF037A  |  4294902650 |
|     283 | 0xFFF554C0  |  4294268096 |
|     284 | 0x216D      |        8557 |
|     285 | 0xFFFEC64B  |  4294886987 |
|     286 | 0xFFF55382  |  4294267778 |
|     287 | 0x21C5      |        8645 |
|     288 | 0x0A83      |        2691 |
|     289 | 0xFFFEBC8C  |  4294884492 |
|     290 | 0xFFF55693  |  4294268563 |
|     291 | 0x2131      |        8497 |
|     292 | 0xFFFEB846  |  4294883398 |
|     293 | 0xFFF55B7B  |  4294269819 |
|     294 | 0x1FDA      |        8154 |
|     295 | 0x000F      |          15 |
|     296 | 0xFFFEAA92  |  4294879890 |
|     297 | 0xFFF5639A  |  4294271898 |
|     298 | 0x1F8D      |        8077 |
|     299 | 0xFFFF8995  |  4294936981 |
|     300 | 0xFFFDF13E  |  4294832446 |
|     301 | 0x003D      |          61 |
|     302 | 0xFFFF9108  |  4294938888 |
|     303 | 0xFFFDD6CD  |  4294825677 |
|     304 | 0xFFFFFF7F  |  4294967167 |
|     305 | 0x0418      |        1048 |
|     306 | 0xFFFF9692  |  4294940306 |
|     307 | 0xFFFDC47F  |  4294820991 |
|     308 | 0xFFFFFE75  |  4294966901 |
|     309 | 0xFFFF945E  |  4294939742 |
|     310 | 0xFFFDBF75  |  4294819701 |
|     311 | 0xFFFFFE24  |  4294966820 |
|     312 | 0xFFFF829F  |  4294935199 |
|     313 | 0xFFFDBC40  |  4294818880 |
|     314 | 0xFFFFFE0C  |  4294966796 |
|     315 | 0xFFFF936E  |  4294939502 |
|     316 | 0xFFFDCE35  |  4294823477 |
|     317 | 0xFFFFFF10  |  4294967056 |
|     318 | 0x1FCA5     |      130213 |
|     319 | 0xFFFE15DD  |  4294841821 |
|     320 | 0x0C94      |        3220 |
|     321 | 0x1FF47     |      130887 |
|     322 | 0xFFFE239B  |  4294845339 |
|     323 | 0xFFFFE5E5  |  4294960613 |
|     324 | 0xFFFE76B4  |  4294866612 |
|     325 | 0x0577      |        1399 |
|     326 | 0x0486      |        1158 |
|     327 | 0xFFFFCED6  |  4294954710 |
|     328 | 0xFFFE4194  |  4294853012 |
|     329 | 0x060C      |        1548 |
|     330 | 0x03D9      |         985 |
|     331 | 0x1403      |        5123 |
|     332 | 0xFFFE598D  |  4294859149 |
|     333 | 0x082F      |        2095 |
|     334 | 0xFFFFE586  |  4294960518 |
|     335 | 0xFFFE6A2A  |  4294863402 |
|     336 | 0x0C13      |        3091 |
|     337 | 0x0005      |           5 |
|     338 | 0x0001      |           1 |
|     339 | 0x0002      |           2 |
|     340 | 0x0009      |           9 |
|     341 | 0x0046      |          70 |
|     342 | 0x008C      |         140 |
|     343 | 0x00D2      |         210 |
|     344 | 0x0E10      |        3600 |
|     345 | 0x0013      |          19 |
|     346 | 0x001D      |          29 |
|     347 | 0x0004      |           4 |
|     348 | 0x0027      |          39 |
|     349 | 0x0006      |           6 |
|     350 | 0x003B      |          59 |
|     351 | 0x0045      |          69 |
|     352 | 0x154DB     |       87259 |
|     353 | 0xFFFF6864  |  4294928484 |
|     354 | 0xFFFFF0B6  |  4294963382 |
|     355 | 0x1D8F3     |      121075 |
|     356 | 0x19A1B     |      104987 |
|     357 | 0x0EDD      |        3805 |
|     358 | 0x1CD6C     |      118124 |
|     359 | 0x16B4B     |       93003 |
|     360 | 0x060E      |        1550 |
|     361 | 0x1DF2F     |      122671 |
|     362 | 0x1A274     |      107124 |
|     363 | 0x0028      |          40 |
|     364 | 0x2814C     |      164172 |
|     365 | 0x5118B     |      332171 |
|     366 | 0xFFFEA992  |  4294879634 |
|     367 | 0x27951     |      162129 |
|     368 | 0x510CC     |      331980 |
|     369 | 0xFFFEA9CB  |  4294879691 |
|     370 | 0x19400     |      103424 |
|     371 | 0xFFFF82C5  |  4294935237 |

## Events

### Event 65535

#### Metadata

| Field        | Value   |
|--------------|---------|
| Entrypoint   | 0x0000  |
| Data Size    | 1 bytes |
| Instructions | 1       |

```
      00 01 02 03 04 05 06 07  08 09 0A 0B 0C 0D 0E 0F
      -- -- -- -- -- -- -- --  -- -- -- -- -- -- -- --
0000: 00                                                .               
```

#### Opcodes

```
  0: 0x0000 [0x00] END_REQSTACK()
```

### Event 65535.1

#### Metadata

| Field        | Value    |
|--------------|----------|
| Entrypoint   | 0x0001   |
| Data Size    | 10 bytes |
| Instructions | 2        |

```
      00 01 02 03 04 05 06 07  08 09 0A 0B 0C 0D 0E 0F
      -- -- -- -- -- -- -- --  -- -- -- -- -- -- -- --
0000:    37 00 80 01 80 02 80  03 80 00                  7.........     
```

#### Opcodes

```
  0: 0x0001 [0x37] UPDATE_EVENT_POSITION_AND_DIR: x=0.154*, z=-1.653*, y=0.000*, direction=259.0°*
  1: 0x000A [0x00] END_REQSTACK()
```

### Event 65534

#### Metadata

| Field        | Value   |
|--------------|---------|
| Entrypoint   | 0x000B  |
| Data Size    | 1 bytes |
| Instructions | 1       |

```
      00 01 02 03 04 05 06 07  08 09 0A 0B 0C 0D 0E 0F
      -- -- -- -- -- -- -- --  -- -- -- -- -- -- -- --
0000:                                   00                         .    
```

#### Opcodes

```
  0: 0x000B [0x00] END_REQSTACK()
```

### Event 65535.2

#### Metadata

| Field        | Value   |
|--------------|---------|
| Entrypoint   | 0x000C  |
| Data Size    | 1 bytes |
| Instructions | 1       |

```
      00 01 02 03 04 05 06 07  08 09 0A 0B 0C 0D 0E 0F
      -- -- -- -- -- -- -- --  -- -- -- -- -- -- -- --
0000:                                      00                       .   
```

#### Opcodes

```
  0: 0x000C [0x00] END_REQSTACK()
```

### Event 65535.3

#### Metadata

| Field        | Value   |
|--------------|---------|
| Entrypoint   | 0x000D  |
| Data Size    | 6 bytes |
| Instructions | 2       |

```
      00 01 02 03 04 05 06 07  08 09 0A 0B 0C 0D 0E 0F
      -- -- -- -- -- -- -- --  -- -- -- -- -- -- -- --
0000:                                         03 02 10               ...
0010: 0B 7F 00                                          ...             
```

#### Opcodes

```
  0: 0x000D [0x03] Work_Zone[2] = (Entity->Render.Flags01 >> 25) & 1
  1: 0x0012 [0x00] END_REQSTACK()
```

### Event 65535.4

#### Metadata

| Field        | Value   |
|--------------|---------|
| Entrypoint   | 0x0013  |
| Data Size    | 6 bytes |
| Instructions | 2       |

```
      00 01 02 03 04 05 06 07  08 09 0A 0B 0C 0D 0E 0F
      -- -- -- -- -- -- -- --  -- -- -- -- -- -- -- --
0010:          03 03 10 0B 7F  00                          ......       
```

#### Opcodes

```
  0: 0x0013 [0x03] Work_Zone[3] = (Entity->Render.Flags01 >> 25) & 1
  1: 0x0018 [0x00] END_REQSTACK()
```

### Event 65535.5

#### Metadata

| Field        | Value   |
|--------------|---------|
| Entrypoint   | 0x0019  |
| Data Size    | 6 bytes |
| Instructions | 2       |

```
      00 01 02 03 04 05 06 07  08 09 0A 0B 0C 0D 0E 0F
      -- -- -- -- -- -- -- --  -- -- -- -- -- -- -- --
0010:                             03 09 10 0B 7F 00              ...... 
```

#### Opcodes

```
  0: 0x0019 [0x03] Work_Zone[9] = (Entity->Render.Flags01 >> 25) & 1
  1: 0x001E [0x00] END_REQSTACK()
```

### Event 65535.6

#### Metadata

| Field        | Value   |
|--------------|---------|
| Entrypoint   | 0x001F  |
| Data Size    | 6 bytes |
| Instructions | 2       |

```
      00 01 02 03 04 05 06 07  08 09 0A 0B 0C 0D 0E 0F
      -- -- -- -- -- -- -- --  -- -- -- -- -- -- -- --
0010:                                               03                 .
0020: 09 10 07 7F 00                                    .....           
```

#### Opcodes

```
  0: 0x001F [0x03] Work_Zone[9] = Entity->Race
  1: 0x0024 [0x00] END_REQSTACK()
```

### Event 65535.7

#### Metadata

| Field        | Value    |
|--------------|----------|
| Entrypoint   | 0x0025   |
| Data Size    | 77 bytes |
| Instructions | 9        |

```
      00 01 02 03 04 05 06 07  08 09 0A 0B 0C 0D 0E 0F
      -- -- -- -- -- -- -- --  -- -- -- -- -- -- -- --
0020:                32 04 80  45 05 80 F8 FF FF 7F F8       2..E.......
0030: FF FF 7F 73 30 38 34 02  80 37 06 80 07 80 08 80  ...s084..7......
0040: 09 80 1F 00 0A 80 0B 80  08 80 1F 01 52 05 80 F8  ............R...
0050: FF FF 7F F8 FF FF 7F 73  30 38 34 45 05 80 F8 FF  .......s084E....
0060: FF 7F F8 FF FF 7F 73 30  38 35 02 80 1E 3E 10 0F  ......s085...>..
0070: 01 00                                             ..              
```

#### Opcodes

```
  0: 0x0025 [0x32] ExtData[1]->MainSpeed = 13* * 0.1
  1: 0x0028 [0x45] LOAD_SCHEDULED_TASK: Load scheduler "s084" with entities [EventEntity, EventEntity], work=[141*, 0*]
  2: 0x0039 [0x37] UPDATE_EVENT_POSITION_AND_DIR: x=138.052*, z=-131.779*, y=-5.250*, direction=13.6°*
  3: 0x0042 [0x1F] MOVE_ENTITY: EventEntity moves to X=139.474*, Z=-131.798*, Y=-5.250*
  4: 0x004A [0x1F] MOVE_ENTITY: Update entity position (mode=1)
  5: 0x004C [0x52] END_LOAD_SCHEDULER: End scheduler "s084" with entities [EventEntity, EventEntity], work=141*
  6: 0x005B [0x45] LOAD_SCHEDULED_TASK: Load scheduler "s085" with entities [EventEntity, EventEntity], work=[141*, 0*]
  7: 0x006C [0x1E] EventEntity looks at Chocobo (ID: 17764414/0x010F103E) and starts talking
  8: 0x0071 [0x00] END_REQSTACK()
```

### Event 65535.8

#### Metadata

| Field        | Value    |
|--------------|----------|
| Entrypoint   | 0x0072   |
| Data Size    | 29 bytes |
| Instructions | 5        |

```
      00 01 02 03 04 05 06 07  08 09 0A 0B 0C 0D 0E 0F
      -- -- -- -- -- -- -- --  -- -- -- -- -- -- -- --
0070:       32 04 80 1F 00 0C  80 0D 80 08 80 1F 01 52    2............R
0080: 05 80 F8 FF FF 7F F8 FF  FF 7F 73 30 38 35 00     ..........s085. 
```

#### Opcodes

```
  0: 0x0072 [0x32] ExtData[1]->MainSpeed = 13* * 0.1
  1: 0x0075 [0x1F] MOVE_ENTITY: EventEntity moves to X=139.466*, Z=-131.005*, Y=-5.250*
  2: 0x007D [0x1F] MOVE_ENTITY: Update entity position (mode=1)
  3: 0x007F [0x52] END_LOAD_SCHEDULER: End scheduler "s085" with entities [EventEntity, EventEntity], work=141*
  4: 0x008E [0x00] END_REQSTACK()
```

### Event 65535.9

#### Metadata

| Field        | Value    |
|--------------|----------|
| Entrypoint   | 0x008F   |
| Data Size    | 77 bytes |
| Instructions | 9        |

```
      00 01 02 03 04 05 06 07  08 09 0A 0B 0C 0D 0E 0F
      -- -- -- -- -- -- -- --  -- -- -- -- -- -- -- --
0080:                                               32                 2
0090: 04 80 45 05 80 F8 FF FF  7F F8 FF FF 7F 73 30 38  ..E..........s08
00A0: 36 02 80 37 0E 80 0F 80  08 80 10 80 1F 00 11 80  6..7............
00B0: 12 80 08 80 1F 01 52 05  80 F8 FF FF 7F F8 FF FF  ......R.........
00C0: 7F 73 30 38 36 45 05 80  F8 FF FF 7F F8 FF FF 7F  .s086E..........
00D0: 73 30 38 37 02 80 1E 3F  10 0F 01 00              s087...?....    
```

#### Opcodes

```
  0: 0x008F [0x32] ExtData[1]->MainSpeed = 13* * 0.1
  1: 0x0092 [0x45] LOAD_SCHEDULED_TASK: Load scheduler "s086" with entities [EventEntity, EventEntity], work=[141*, 0*]
  2: 0x00A3 [0x37] UPDATE_EVENT_POSITION_AND_DIR: x=138.012*, z=-126.892*, y=-5.250*, direction=331.8°*
  3: 0x00AC [0x1F] MOVE_ENTITY: EventEntity moves to X=139.454*, Z=-126.955*, Y=-5.250*
  4: 0x00B4 [0x1F] MOVE_ENTITY: Update entity position (mode=1)
  5: 0x00B6 [0x52] END_LOAD_SCHEDULER: End scheduler "s086" with entities [EventEntity, EventEntity], work=141*
  6: 0x00C5 [0x45] LOAD_SCHEDULED_TASK: Load scheduler "s087" with entities [EventEntity, EventEntity], work=[141*, 0*]
  7: 0x00D6 [0x1E] EventEntity looks at Chocobo (ID: 17764415/0x010F103F) and starts talking
  8: 0x00DB [0x00] END_REQSTACK()
```

### Event 65535.10

#### Metadata

| Field        | Value    |
|--------------|----------|
| Entrypoint   | 0x00DC   |
| Data Size    | 29 bytes |
| Instructions | 5        |

```
      00 01 02 03 04 05 06 07  08 09 0A 0B 0C 0D 0E 0F
      -- -- -- -- -- -- -- --  -- -- -- -- -- -- -- --
00D0:                                      32 04 80 1F              2...
00E0: 00 13 80 14 80 08 80 1F  01 52 05 80 F8 FF FF 7F  .........R......
00F0: F8 FF FF 7F 73 30 38 37  00                       ....s087.       
```

#### Opcodes

```
  0: 0x00DC [0x32] ExtData[1]->MainSpeed = 13* * 0.1
  1: 0x00DF [0x1F] MOVE_ENTITY: EventEntity moves to X=139.637*, Z=-125.997*, Y=-5.250*
  2: 0x00E7 [0x1F] MOVE_ENTITY: Update entity position (mode=1)
  3: 0x00E9 [0x52] END_LOAD_SCHEDULER: End scheduler "s087" with entities [EventEntity, EventEntity], work=141*
  4: 0x00F8 [0x00] END_REQSTACK()
```

### Event 65535.11

#### Metadata

| Field        | Value    |
|--------------|----------|
| Entrypoint   | 0x00F9   |
| Data Size    | 77 bytes |
| Instructions | 9        |

```
      00 01 02 03 04 05 06 07  08 09 0A 0B 0C 0D 0E 0F
      -- -- -- -- -- -- -- --  -- -- -- -- -- -- -- --
00F0:                             32 04 80 45 05 80 F8           2..E...
0100: FF FF 7F F8 FF FF 7F 73  30 38 38 02 80 37 15 80  .......s088..7..
0110: 16 80 08 80 17 80 1F 00  18 80 19 80 08 80 1F 01  ................
0120: 52 05 80 F8 FF FF 7F F8  FF FF 7F 73 30 38 38 45  R..........s088E
0130: 05 80 F8 FF FF 7F F8 FF  FF 7F 73 30 38 39 02 80  ..........s089..
0140: 1E 40 10 0F 01 00                                 .@....          
```

#### Opcodes

```
  0: 0x00F9 [0x32] ExtData[1]->MainSpeed = 13* * 0.1
  1: 0x00FC [0x45] LOAD_SCHEDULED_TASK: Load scheduler "s088" with entities [EventEntity, EventEntity], work=[141*, 0*]
  2: 0x010D [0x37] UPDATE_EVENT_POSITION_AND_DIR: x=137.760*, z=-121.843*, y=-5.250*, direction=353.2°*
  3: 0x0116 [0x1F] MOVE_ENTITY: EventEntity moves to X=139.559*, Z=-121.789*, Y=-5.250*
  4: 0x011E [0x1F] MOVE_ENTITY: Update entity position (mode=1)
  5: 0x0120 [0x52] END_LOAD_SCHEDULER: End scheduler "s088" with entities [EventEntity, EventEntity], work=141*
  6: 0x012F [0x45] LOAD_SCHEDULED_TASK: Load scheduler "s089" with entities [EventEntity, EventEntity], work=[141*, 0*]
  7: 0x0140 [0x1E] EventEntity looks at Chocobo (ID: 17764416/0x010F1040) and starts talking
  8: 0x0145 [0x00] END_REQSTACK()
```

### Event 65535.12

#### Metadata

| Field        | Value    |
|--------------|----------|
| Entrypoint   | 0x0146   |
| Data Size    | 29 bytes |
| Instructions | 5        |

```
      00 01 02 03 04 05 06 07  08 09 0A 0B 0C 0D 0E 0F
      -- -- -- -- -- -- -- --  -- -- -- -- -- -- -- --
0140:                   32 04  80 1F 00 1A 80 1B 80 08        2.........
0150: 80 1F 01 52 05 80 F8 FF  FF 7F F8 FF FF 7F 73 30  ...R..........s0
0160: 38 39 00                                          89.             
```

#### Opcodes

```
  0: 0x0146 [0x32] ExtData[1]->MainSpeed = 13* * 0.1
  1: 0x0149 [0x1F] MOVE_ENTITY: EventEntity moves to X=139.791*, Z=-121.284*, Y=-5.250*
  2: 0x0151 [0x1F] MOVE_ENTITY: Update entity position (mode=1)
  3: 0x0153 [0x52] END_LOAD_SCHEDULER: End scheduler "s089" with entities [EventEntity, EventEntity], work=141*
  4: 0x0162 [0x00] END_REQSTACK()
```

### Event 65535.13

#### Metadata

| Field        | Value     |
|--------------|-----------|
| Entrypoint   | 0x0163    |
| Data Size    | 105 bytes |
| Instructions | 13        |

```
      00 01 02 03 04 05 06 07  08 09 0A 0B 0C 0D 0E 0F
      -- -- -- -- -- -- -- --  -- -- -- -- -- -- -- --
0160:          32 1C 80 37 1D  80 1E 80 08 80 1F 80 45     2..7........E
0170: 05 80 F8 FF FF 7F F8 FF  FF 7F 73 30 39 30 02 80  ..........s090..
0180: 1F 00 20 80 21 80 08 80  1F 01 32 22 80 52 05 80  .. .!.....2".R..
0190: F8 FF FF 7F F8 FF FF 7F  73 30 39 30 45 23 80 F0  ........s090E#..
01A0: FF FF 7F F0 FF FF 7F 63  30 30 69 02 80 45 24 80  .......c00i..E$.
01B0: F8 FF FF 7F F8 FF FF 7F  66 64 6F 31 02 80 1F 00  ........fdo1....
01C0: 25 80 26 80 08 80 1F 01  1C 27 80 00              %.&......'..    
```

#### Opcodes

```
  0: 0x0163 [0x32] ExtData[1]->MainSpeed = 27* * 0.1
  1: 0x0166 [0x37] UPDATE_EVENT_POSITION_AND_DIR: x=143.702*, z=-118.635*, y=-5.250*, direction=265.5°*
  2: 0x016F [0x45] LOAD_SCHEDULED_TASK: Load scheduler "s090" with entities [EventEntity, EventEntity], work=[141*, 0*]
  3: 0x0180 [0x1F] MOVE_ENTITY: EventEntity moves to X=143.767*, Z=-111.796*, Y=-5.250*
  4: 0x0188 [0x1F] MOVE_ENTITY: Update entity position (mode=1)
  5: 0x018A [0x32] ExtData[1]->MainSpeed = 80* * 0.1
  6: 0x018D [0x52] END_LOAD_SCHEDULER: End scheduler "s090" with entities [EventEntity, EventEntity], work=141*
  7: 0x019C [0x45] LOAD_SCHEDULED_TASK: Load scheduler "c00i" with entities [LocalPlayer, LocalPlayer], work=[202*, 0*]
  8: 0x01AD [0x45] LOAD_SCHEDULED_TASK: Load scheduler "fdo1" with entities [EventEntity, EventEntity], work=[200*, 0*]
  9: 0x01BE [0x1F] MOVE_ENTITY: EventEntity moves to X=151.368*, Z=-111.323*, Y=-5.250*
 10: 0x01C6 [0x1F] MOVE_ENTITY: Update entity position (mode=1)
 11: 0x01C8 [0x1C] WAIT(120* ticks)
 12: 0x01CB [0x00] END_REQSTACK()
```

### Event 65535.14

#### Metadata

| Field        | Value    |
|--------------|----------|
| Entrypoint   | 0x01CC   |
| Data Size    | 13 bytes |
| Instructions | 3        |

```
      00 01 02 03 04 05 06 07  08 09 0A 0B 0C 0D 0E 0F
      -- -- -- -- -- -- -- --  -- -- -- -- -- -- -- --
01C0:                                      47 00 28 80              G.(.
01D0: 29 80 2A 80 2B 80 47 01  00                       ).*.+.G..       
```

#### Opcodes

```
  0: 0x01CC [0x47] UPDATE_PLAYER_POS(117.690*, -39.868*, -4.999*, yaw=173.1°*)
  1: 0x01D6 [0x47] WAIT_PLAYER_POS_UPDATE
  2: 0x01D8 [0x00] END_REQSTACK()
```

### Event 31

#### Metadata

| Field        | Value   |
|--------------|---------|
| Entrypoint   | 0x01D9  |
| Data Size    | 1 bytes |
| Instructions | 1       |

```
      00 01 02 03 04 05 06 07  08 09 0A 0B 0C 0D 0E 0F
      -- -- -- -- -- -- -- --  -- -- -- -- -- -- -- --
01D0:                             00                             .      
```

#### Opcodes

```
  0: 0x01D9 [0x00] END_REQSTACK()
```

### Event 32

#### Metadata

| Field        | Value   |
|--------------|---------|
| Entrypoint   | 0x01DA  |
| Data Size    | 1 bytes |
| Instructions | 1       |

```
      00 01 02 03 04 05 06 07  08 09 0A 0B 0C 0D 0E 0F
      -- -- -- -- -- -- -- --  -- -- -- -- -- -- -- --
01D0:                                00                           .     
```

#### Opcodes

```
  0: 0x01DA [0x00] END_REQSTACK()
```

### Event 33

#### Metadata

| Field        | Value   |
|--------------|---------|
| Entrypoint   | 0x01DB  |
| Data Size    | 1 bytes |
| Instructions | 1       |

```
      00 01 02 03 04 05 06 07  08 09 0A 0B 0C 0D 0E 0F
      -- -- -- -- -- -- -- --  -- -- -- -- -- -- -- --
01D0:                                   00                         .    
```

#### Opcodes

```
  0: 0x01DB [0x00] END_REQSTACK()
```

### Event 34

#### Metadata

| Field        | Value   |
|--------------|---------|
| Entrypoint   | 0x01DC  |
| Data Size    | 1 bytes |
| Instructions | 1       |

```
      00 01 02 03 04 05 06 07  08 09 0A 0B 0C 0D 0E 0F
      -- -- -- -- -- -- -- --  -- -- -- -- -- -- -- --
01D0:                                      00                       .   
```

#### Opcodes

```
  0: 0x01DC [0x00] END_REQSTACK()
```

### Event 35

#### Metadata

| Field        | Value   |
|--------------|---------|
| Entrypoint   | 0x01DD  |
| Data Size    | 1 bytes |
| Instructions | 1       |

```
      00 01 02 03 04 05 06 07  08 09 0A 0B 0C 0D 0E 0F
      -- -- -- -- -- -- -- --  -- -- -- -- -- -- -- --
01D0:                                         00                     .  
```

#### Opcodes

```
  0: 0x01DD [0x00] END_REQSTACK()
```

### Event 36

#### Metadata

| Field        | Value   |
|--------------|---------|
| Entrypoint   | 0x01DE  |
| Data Size    | 1 bytes |
| Instructions | 1       |

```
      00 01 02 03 04 05 06 07  08 09 0A 0B 0C 0D 0E 0F
      -- -- -- -- -- -- -- --  -- -- -- -- -- -- -- --
01D0:                                            00                   . 
```

#### Opcodes

```
  0: 0x01DE [0x00] END_REQSTACK()
```

### Event 37

#### Metadata

| Field        | Value   |
|--------------|---------|
| Entrypoint   | 0x01DF  |
| Data Size    | 1 bytes |
| Instructions | 1       |

```
      00 01 02 03 04 05 06 07  08 09 0A 0B 0C 0D 0E 0F
      -- -- -- -- -- -- -- --  -- -- -- -- -- -- -- --
01D0:                                               00                 .
```

#### Opcodes

```
  0: 0x01DF [0x00] END_REQSTACK()
```

### Event 38

#### Metadata

| Field        | Value   |
|--------------|---------|
| Entrypoint   | 0x01E0  |
| Data Size    | 1 bytes |
| Instructions | 1       |

```
      00 01 02 03 04 05 06 07  08 09 0A 0B 0C 0D 0E 0F
      -- -- -- -- -- -- -- --  -- -- -- -- -- -- -- --
01E0: 00                                                .               
```

#### Opcodes

```
  0: 0x01E0 [0x00] END_REQSTACK()
```

### Event 39

#### Metadata

| Field        | Value   |
|--------------|---------|
| Entrypoint   | 0x01E1  |
| Data Size    | 1 bytes |
| Instructions | 1       |

```
      00 01 02 03 04 05 06 07  08 09 0A 0B 0C 0D 0E 0F
      -- -- -- -- -- -- -- --  -- -- -- -- -- -- -- --
01E0:    00                                              .              
```

#### Opcodes

```
  0: 0x01E1 [0x00] END_REQSTACK()
```

### Event 40

#### Metadata

| Field        | Value   |
|--------------|---------|
| Entrypoint   | 0x01E2  |
| Data Size    | 1 bytes |
| Instructions | 1       |

```
      00 01 02 03 04 05 06 07  08 09 0A 0B 0C 0D 0E 0F
      -- -- -- -- -- -- -- --  -- -- -- -- -- -- -- --
01E0:       00                                            .             
```

#### Opcodes

```
  0: 0x01E2 [0x00] END_REQSTACK()
```

### Event 65535.15

#### Metadata

| Field        | Value    |
|--------------|----------|
| Entrypoint   | 0x01E3   |
| Data Size    | 13 bytes |
| Instructions | 3        |

```
      00 01 02 03 04 05 06 07  08 09 0A 0B 0C 0D 0E 0F
      -- -- -- -- -- -- -- --  -- -- -- -- -- -- -- --
01E0:          47 00 2C 80 2D  80 2E 80 2F 80 47 01 00     G.,.-.../.G..
```

#### Opcodes

```
  0: 0x01E3 [0x47] UPDATE_PLAYER_POS(-29.490*, 6.029*, -2.499*, yaw=285.9°*)
  1: 0x01ED [0x47] WAIT_PLAYER_POS_UPDATE
  2: 0x01EF [0x00] END_REQSTACK()
```

### Event 65535.16

#### Metadata

| Field        | Value    |
|--------------|----------|
| Entrypoint   | 0x01F0   |
| Data Size    | 13 bytes |
| Instructions | 3        |

```
      00 01 02 03 04 05 06 07  08 09 0A 0B 0C 0D 0E 0F
      -- -- -- -- -- -- -- --  -- -- -- -- -- -- -- --
01F0: 47 00 30 80 31 80 32 80  33 80 47 01 00           G.0.1.2.3.G..   
```

#### Opcodes

```
  0: 0x01F0 [0x47] UPDATE_PLAYER_POS(-22.745*, -23.452*, -2.749*, yaw=7.4°*)
  1: 0x01FA [0x47] WAIT_PLAYER_POS_UPDATE
  2: 0x01FC [0x00] END_REQSTACK()
```

### Event 65535.17

#### Metadata

| Field        | Value    |
|--------------|----------|
| Entrypoint   | 0x01FD   |
| Data Size    | 13 bytes |
| Instructions | 3        |

```
      00 01 02 03 04 05 06 07  08 09 0A 0B 0C 0D 0E 0F
      -- -- -- -- -- -- -- --  -- -- -- -- -- -- -- --
01F0:                                         47 00 34               G.4
0200: 80 35 80 36 80 37 80 47  01 00                    .5.6.7.G..      
```

#### Opcodes

```
  0: 0x01FD [0x47] UPDATE_PLAYER_POS(-50.071*, -107.963*, -0.265*, yaw=185.7°*)
  1: 0x0207 [0x47] WAIT_PLAYER_POS_UPDATE
  2: 0x0209 [0x00] END_REQSTACK()
```

### Event 65535.18

#### Metadata

| Field        | Value    |
|--------------|----------|
| Entrypoint   | 0x020A   |
| Data Size    | 13 bytes |
| Instructions | 3        |

```
      00 01 02 03 04 05 06 07  08 09 0A 0B 0C 0D 0E 0F
      -- -- -- -- -- -- -- --  -- -- -- -- -- -- -- --
0200:                                47 00 38 80 39 80            G.8.9.
0210: 08 80 3A 80 47 01 00                              ..:.G..         
```

#### Opcodes

```
  0: 0x020A [0x47] UPDATE_PLAYER_POS(2.036*, -137.741*, -5.250*, yaw=191.2°*)
  1: 0x0214 [0x47] WAIT_PLAYER_POS_UPDATE
  2: 0x0216 [0x00] END_REQSTACK()
```

### Event 65535.19

#### Metadata

| Field        | Value    |
|--------------|----------|
| Entrypoint   | 0x0217   |
| Data Size    | 13 bytes |
| Instructions | 3        |

```
      00 01 02 03 04 05 06 07  08 09 0A 0B 0C 0D 0E 0F
      -- -- -- -- -- -- -- --  -- -- -- -- -- -- -- --
0210:                      47  00 3B 80 3C 80 3D 80 3E         G.;.<.=.>
0220: 80 47 01 00                                       .G..            
```

#### Opcodes

```
  0: 0x0217 [0x47] UPDATE_PLAYER_POS(11.420*, -159.752*, -4.250*, yaw=6.5°*)
  1: 0x0221 [0x47] WAIT_PLAYER_POS_UPDATE
  2: 0x0223 [0x00] END_REQSTACK()
```

### Event 65535.20

#### Metadata

| Field        | Value    |
|--------------|----------|
| Entrypoint   | 0x0224   |
| Data Size    | 13 bytes |
| Instructions | 3        |

```
      00 01 02 03 04 05 06 07  08 09 0A 0B 0C 0D 0E 0F
      -- -- -- -- -- -- -- --  -- -- -- -- -- -- -- --
0220:             47 00 3F 80  40 80 41 80 42 80 47 01      G.?.@.A.B.G.
0230: 00                                                .               
```

#### Opcodes

```
  0: 0x0224 [0x47] UPDATE_PLAYER_POS(52.689*, -142.525*, -2.294*, yaw=316.9°*)
  1: 0x022E [0x47] WAIT_PLAYER_POS_UPDATE
  2: 0x0230 [0x00] END_REQSTACK()
```

### Event 65535.21

#### Metadata

| Field        | Value    |
|--------------|----------|
| Entrypoint   | 0x0231   |
| Data Size    | 13 bytes |
| Instructions | 3        |

```
      00 01 02 03 04 05 06 07  08 09 0A 0B 0C 0D 0E 0F
      -- -- -- -- -- -- -- --  -- -- -- -- -- -- -- --
0230:    47 00 43 80 44 80 2A  80 45 80 47 01 00         G.C.D.*.E.G..  
```

#### Opcodes

```
  0: 0x0231 [0x47] UPDATE_PLAYER_POS(130.523*, -105.323*, -4.999*, yaw=321.2°*)
  1: 0x023B [0x47] WAIT_PLAYER_POS_UPDATE
  2: 0x023D [0x00] END_REQSTACK()
```

### Event 65535.22

#### Metadata

| Field        | Value    |
|--------------|----------|
| Entrypoint   | 0x023E   |
| Data Size    | 13 bytes |
| Instructions | 3        |

```
      00 01 02 03 04 05 06 07  08 09 0A 0B 0C 0D 0E 0F
      -- -- -- -- -- -- -- --  -- -- -- -- -- -- -- --
0230:                                            47 00                G.
0240: 46 80 47 80 48 80 49 80  47 01 00                 F.G.H.I.G..     
```

#### Opcodes

```
  0: 0x023E [0x47] UPDATE_PLAYER_POS(-56.059*, -40.667*, 0.499*, yaw=127.4°*)
  1: 0x0248 [0x47] WAIT_PLAYER_POS_UPDATE
  2: 0x024A [0x00] END_REQSTACK()
```

### Event 65535.23

#### Metadata

| Field        | Value    |
|--------------|----------|
| Entrypoint   | 0x024B   |
| Data Size    | 13 bytes |
| Instructions | 3        |

```
      00 01 02 03 04 05 06 07  08 09 0A 0B 0C 0D 0E 0F
      -- -- -- -- -- -- -- --  -- -- -- -- -- -- -- --
0240:                                   47 00 4A 80 4B             G.J.K
0250: 80 2A 80 4C 80 47 01 00                           .*.L.G..        
```

#### Opcodes

```
  0: 0x024B [0x47] UPDATE_PLAYER_POS(114.432*, -24.833*, -4.999*, yaw=35.2°*)
  1: 0x0255 [0x47] WAIT_PLAYER_POS_UPDATE
  2: 0x0257 [0x00] END_REQSTACK()
```

### Event 65535.24

#### Metadata

| Field        | Value    |
|--------------|----------|
| Entrypoint   | 0x0258   |
| Data Size    | 13 bytes |
| Instructions | 3        |

```
      00 01 02 03 04 05 06 07  08 09 0A 0B 0C 0D 0E 0F
      -- -- -- -- -- -- -- --  -- -- -- -- -- -- -- --
0250:                          47 00 4D 80 4E 80 4F 80          G.M.N.O.
0260: 50 80 47 01 00                                    P.G..           
```

#### Opcodes

```
  0: 0x0258 [0x47] UPDATE_PLAYER_POS(67.734*, 47.644*, -3.999*, yaw=78.8°*)
  1: 0x0262 [0x47] WAIT_PLAYER_POS_UPDATE
  2: 0x0264 [0x00] END_REQSTACK()
```

### Event 65535.25

#### Metadata

| Field        | Value    |
|--------------|----------|
| Entrypoint   | 0x0265   |
| Data Size    | 13 bytes |
| Instructions | 3        |

```
      00 01 02 03 04 05 06 07  08 09 0A 0B 0C 0D 0E 0F
      -- -- -- -- -- -- -- --  -- -- -- -- -- -- -- --
0260:                47 00 51  80 52 80 4F 80 53 80 47       G.Q.R.O.S.G
0270: 01 00                                             ..              
```

#### Opcodes

```
  0: 0x0265 [0x47] UPDATE_PLAYER_POS(108.361*, 109.245*, -3.999*, yaw=275.4°*)
  1: 0x026F [0x47] WAIT_PLAYER_POS_UPDATE
  2: 0x0271 [0x00] END_REQSTACK()
```

### Event 65535.26

#### Metadata

| Field        | Value    |
|--------------|----------|
| Entrypoint   | 0x0272   |
| Data Size    | 13 bytes |
| Instructions | 3        |

```
      00 01 02 03 04 05 06 07  08 09 0A 0B 0C 0D 0E 0F
      -- -- -- -- -- -- -- --  -- -- -- -- -- -- -- --
0270:       47 00 54 80 55 80  56 80 57 80 47 01 00       G.T.U.V.W.G.. 
```

#### Opcodes

```
  0: 0x0272 [0x47] UPDATE_PLAYER_POS(60.733*, 237.909*, -4.749*, yaw=334.9°*)
  1: 0x027C [0x47] WAIT_PLAYER_POS_UPDATE
  2: 0x027E [0x00] END_REQSTACK()
```

### Event 65535.27

#### Metadata

| Field        | Value    |
|--------------|----------|
| Entrypoint   | 0x027F   |
| Data Size    | 13 bytes |
| Instructions | 3        |

```
      00 01 02 03 04 05 06 07  08 09 0A 0B 0C 0D 0E 0F
      -- -- -- -- -- -- -- --  -- -- -- -- -- -- -- --
0270:                                               47                 G
0280: 00 58 80 59 80 08 80 5A  80 47 01 00              .X.Y...Z.G..    
```

#### Opcodes

```
  0: 0x027F [0x47] UPDATE_PLAYER_POS(33.335*, 139.368*, -5.250*, yaw=311.2°*)
  1: 0x0289 [0x47] WAIT_PLAYER_POS_UPDATE
  2: 0x028B [0x00] END_REQSTACK()
```

### Event 65535.28

#### Metadata

| Field        | Value    |
|--------------|----------|
| Entrypoint   | 0x028C   |
| Data Size    | 13 bytes |
| Instructions | 3        |

```
      00 01 02 03 04 05 06 07  08 09 0A 0B 0C 0D 0E 0F
      -- -- -- -- -- -- -- --  -- -- -- -- -- -- -- --
0280:                                      6E F0 FF FF              n...
0290: 7F 5B 80 99 F0 FF FF 7F  00                       .[.......       
```

#### Opcodes

```
  0: 0x028C [0x6E] LocalPlayer uses emote 7*
  1: 0x0293 [0x99] Wait for LocalPlayer animation to complete
  2: 0x0298 [0x00] END_REQSTACK()
```

### Event 65535.29

#### Metadata

| Field        | Value   |
|--------------|---------|
| Entrypoint   | 0x0299  |
| Data Size    | 4 bytes |
| Instructions | 2       |

```
      00 01 02 03 04 05 06 07  08 09 0A 0B 0C 0D 0E 0F
      -- -- -- -- -- -- -- --  -- -- -- -- -- -- -- --
0290:                             1C 5C 80 00                    .\..   
```

#### Opcodes

```
  0: 0x0299 [0x1C] WAIT(100* ticks)
  1: 0x029C [0x00] END_REQSTACK()
```

### Event 367

#### Metadata

| Field        | Value   |
|--------------|---------|
| Entrypoint   | 0x029D  |
| Data Size    | 1 bytes |
| Instructions | 1       |

```
      00 01 02 03 04 05 06 07  08 09 0A 0B 0C 0D 0E 0F
      -- -- -- -- -- -- -- --  -- -- -- -- -- -- -- --
0290:                                         00                     .  
```

#### Opcodes

```
  0: 0x029D [0x00] END_REQSTACK()
```

### Event 65535.30

#### Metadata

| Field        | Value    |
|--------------|----------|
| Entrypoint   | 0x029E   |
| Data Size    | 27 bytes |
| Instructions | 7        |

```
      00 01 02 03 04 05 06 07  08 09 0A 0B 0C 0D 0E 0F
      -- -- -- -- -- -- -- --  -- -- -- -- -- -- -- --
0290:                                            37 5D                7]
02A0: 80 5E 80 5F 80 60 80 32  04 80 1F 00 61 80 62 80  .^._.`.2....a.b.
02B0: 63 80 1F 01 6F 1C 64 80  00                       c...o.d..       
```

#### Opcodes

```
  0: 0x029E [0x37] UPDATE_EVENT_POSITION_AND_DIR: x=39.293*, z=-37.264*, y=0.220*, direction=186.0°*
  1: 0x02A7 [0x32] ExtData[1]->MainSpeed = 13* * 0.1
  2: 0x02AA [0x1F] MOVE_ENTITY: EventEntity moves to X=30.406*, Z=-39.044*, Y=1.999*
  3: 0x02B2 [0x1F] MOVE_ENTITY: Update entity position (mode=1)
  4: 0x02B4 [0x6F] WAIT_FRAME_DELAY: Yield until WaitTime reaches zero
  5: 0x02B5 [0x1C] WAIT(10* ticks)
  6: 0x02B8 [0x00] END_REQSTACK()
```

### Event 65535.31

#### Metadata

| Field        | Value    |
|--------------|----------|
| Entrypoint   | 0x02B9   |
| Data Size    | 10 bytes |
| Instructions | 2        |

```
      00 01 02 03 04 05 06 07  08 09 0A 0B 0C 0D 0E 0F
      -- -- -- -- -- -- -- --  -- -- -- -- -- -- -- --
02B0:                             37 65 80 66 80 67 80           7e.f.g.
02C0: 68 80 00                                          h..             
```

#### Opcodes

```
  0: 0x02B9 [0x37] UPDATE_EVENT_POSITION_AND_DIR: x=107.399*, z=-24.269*, y=-5.000*, direction=350.2°*
  1: 0x02C2 [0x00] END_REQSTACK()
```

### Event 65535.32

#### Metadata

| Field        | Value    |
|--------------|----------|
| Entrypoint   | 0x02C3   |
| Data Size    | 10 bytes |
| Instructions | 2        |

```
      00 01 02 03 04 05 06 07  08 09 0A 0B 0C 0D 0E 0F
      -- -- -- -- -- -- -- --  -- -- -- -- -- -- -- --
02C0:          37 69 80 6A 80  32 80 6B 80 00              7i.j.2.k..   
```

#### Opcodes

```
  0: 0x02C3 [0x37] UPDATE_EVENT_POSITION_AND_DIR: x=-11.988*, z=13.426*, y=-2.749*, direction=286.5°*
  1: 0x02CC [0x00] END_REQSTACK()
```

### Event 65535.33

#### Metadata

| Field        | Value    |
|--------------|----------|
| Entrypoint   | 0x02CD   |
| Data Size    | 10 bytes |
| Instructions | 2        |

```
      00 01 02 03 04 05 06 07  08 09 0A 0B 0C 0D 0E 0F
      -- -- -- -- -- -- -- --  -- -- -- -- -- -- -- --
02C0:                                         37 6C 80               7l.
02D0: 6D 80 56 80 6E 80 00                              m.V.n..         
```

#### Opcodes

```
  0: 0x02CD [0x37] UPDATE_EVENT_POSITION_AND_DIR: x=62.151*, z=239.424*, y=-4.749*, direction=350.6°*
  1: 0x02D6 [0x00] END_REQSTACK()
```

### Event 65535.34

#### Metadata

| Field        | Value    |
|--------------|----------|
| Entrypoint   | 0x02D7   |
| Data Size    | 10 bytes |
| Instructions | 2        |

```
      00 01 02 03 04 05 06 07  08 09 0A 0B 0C 0D 0E 0F
      -- -- -- -- -- -- -- --  -- -- -- -- -- -- -- --
02D0:                      37  6F 80 70 80 48 80 71 80         7o.p.H.q.
02E0: 00                                                .               
```

#### Opcodes

```
  0: 0x02D7 [0x37] UPDATE_EVENT_POSITION_AND_DIR: x=-52.206*, z=-29.238*, y=0.499*, direction=312.8°*
  1: 0x02E0 [0x00] END_REQSTACK()
```

### Event 65535.35

#### Metadata

| Field        | Value    |
|--------------|----------|
| Entrypoint   | 0x02E1   |
| Data Size    | 10 bytes |
| Instructions | 2        |

```
      00 01 02 03 04 05 06 07  08 09 0A 0B 0C 0D 0E 0F
      -- -- -- -- -- -- -- --  -- -- -- -- -- -- -- --
02E0:    37 72 80 73 80 74 80  75 80 00                  7r.s.t.u..     
```

#### Opcodes

```
  0: 0x02E1 [0x37] UPDATE_EVENT_POSITION_AND_DIR: x=-9.163*, z=-23.638*, y=-2.750*, direction=130.3°*
  1: 0x02EA [0x00] END_REQSTACK()
```

### Event 65535.36

#### Metadata

| Field        | Value    |
|--------------|----------|
| Entrypoint   | 0x02EB   |
| Data Size    | 10 bytes |
| Instructions | 2        |

```
      00 01 02 03 04 05 06 07  08 09 0A 0B 0C 0D 0E 0F
      -- -- -- -- -- -- -- --  -- -- -- -- -- -- -- --
02E0:                                   37 76 80 77 80             7v.w.
02F0: 78 80 79 80 00                                    x.y..           
```

#### Opcodes

```
  0: 0x02EB [0x37] UPDATE_EVENT_POSITION_AND_DIR: x=-24.318*, z=-23.141*, y=-2.500*, direction=343.5°*
  1: 0x02F4 [0x00] END_REQSTACK()
```

### Event 65535.37

#### Metadata

| Field        | Value    |
|--------------|----------|
| Entrypoint   | 0x02F5   |
| Data Size    | 10 bytes |
| Instructions | 2        |

```
      00 01 02 03 04 05 06 07  08 09 0A 0B 0C 0D 0E 0F
      -- -- -- -- -- -- -- --  -- -- -- -- -- -- -- --
02F0:                37 7A 80  7B 80 7C 80 7D 80 00          7z.{.|.}.. 
```

#### Opcodes

```
  0: 0x02F5 [0x37] UPDATE_EVENT_POSITION_AND_DIR: x=-4.571*, z=-22.323*, y=-3.749*, direction=28.9°*
  1: 0x02FE [0x00] END_REQSTACK()
```

### Event 65535.38

#### Metadata

| Field        | Value    |
|--------------|----------|
| Entrypoint   | 0x02FF   |
| Data Size    | 10 bytes |
| Instructions | 2        |

```
      00 01 02 03 04 05 06 07  08 09 0A 0B 0C 0D 0E 0F
      -- -- -- -- -- -- -- --  -- -- -- -- -- -- -- --
02F0:                                               37                 7
0300: 7E 80 7F 80 74 80 80 80  00                       ~...t....       
```

#### Opcodes

```
  0: 0x02FF [0x37] UPDATE_EVENT_POSITION_AND_DIR: x=-22.843*, z=11.156*, y=-2.750*, direction=349.2°*
  1: 0x0308 [0x00] END_REQSTACK()
```

### Event 65535.39

#### Metadata

| Field        | Value    |
|--------------|----------|
| Entrypoint   | 0x0309   |
| Data Size    | 10 bytes |
| Instructions | 2        |

```
      00 01 02 03 04 05 06 07  08 09 0A 0B 0C 0D 0E 0F
      -- -- -- -- -- -- -- --  -- -- -- -- -- -- -- --
0300:                             37 81 80 82 80 74 80           7....t.
0310: 83 80 00                                          ...             
```

#### Opcodes

```
  0: 0x0309 [0x37] UPDATE_EVENT_POSITION_AND_DIR: x=-9.833*, z=-24.734*, y=-2.750*, direction=79.2°*
  1: 0x0312 [0x00] END_REQSTACK()
```

### Event 65535.40

#### Metadata

| Field        | Value    |
|--------------|----------|
| Entrypoint   | 0x0313   |
| Data Size    | 10 bytes |
| Instructions | 2        |

```
      00 01 02 03 04 05 06 07  08 09 0A 0B 0C 0D 0E 0F
      -- -- -- -- -- -- -- --  -- -- -- -- -- -- -- --
0310:          37 84 80 85 80  74 80 86 80 00              7....t....   
```

#### Opcodes

```
  0: 0x0313 [0x37] UPDATE_EVENT_POSITION_AND_DIR: x=-11.766*, z=14.074*, y=-2.750*, direction=187.8°*
  1: 0x031C [0x00] END_REQSTACK()
```

### Event 65535.41

#### Metadata

| Field        | Value    |
|--------------|----------|
| Entrypoint   | 0x031D   |
| Data Size    | 28 bytes |
| Instructions | 6        |

```
      00 01 02 03 04 05 06 07  08 09 0A 0B 0C 0D 0E 0F
      -- -- -- -- -- -- -- --  -- -- -- -- -- -- -- --
0310:                                         4B F0 FF               K..
0320: FF 7F 87 80 1C 88 80 4B  F0 FF FF 7F 89 80 1C 88  .......K........
0330: 80 4B F0 FF FF 7F 8A 80  00                       .K.......       
```

#### Opcodes

```
  0: 0x031D [0x4B] UPDATE_ENTITY_YAW(entity=LocalPlayer, yaw=21.4°*)
  1: 0x0324 [0x1C] WAIT(30* ticks)
  2: 0x0327 [0x4B] UPDATE_ENTITY_YAW(entity=LocalPlayer, yaw=5.5°*)
  3: 0x032E [0x1C] WAIT(30* ticks)
  4: 0x0331 [0x4B] UPDATE_ENTITY_YAW(entity=LocalPlayer, yaw=11.0°*)
  5: 0x0338 [0x00] END_REQSTACK()
```

### Event 65535.42

#### Metadata

| Field        | Value    |
|--------------|----------|
| Entrypoint   | 0x0339   |
| Data Size    | 10 bytes |
| Instructions | 2        |

```
      00 01 02 03 04 05 06 07  08 09 0A 0B 0C 0D 0E 0F
      -- -- -- -- -- -- -- --  -- -- -- -- -- -- -- --
0330:                             37 8B 80 8C 80 7C 80           7....|.
0340: 8D 80 00                                          ...             
```

#### Opcodes

```
  0: 0x0339 [0x37] UPDATE_EVENT_POSITION_AND_DIR: x=117.471*, z=93.169*, y=-3.749*, direction=90.0°*
  1: 0x0342 [0x00] END_REQSTACK()
```

### Event 65535.43

#### Metadata

| Field        | Value    |
|--------------|----------|
| Entrypoint   | 0x0343   |
| Data Size    | 10 bytes |
| Instructions | 2        |

```
      00 01 02 03 04 05 06 07  08 09 0A 0B 0C 0D 0E 0F
      -- -- -- -- -- -- -- --  -- -- -- -- -- -- -- --
0340:          37 8E 80 8F 80  90 80 91 80 00              7.........   
```

#### Opcodes

```
  0: 0x0343 [0x37] UPDATE_EVENT_POSITION_AND_DIR: x=-18.052*, z=-55.665*, y=2.749*, direction=95.0°*
  1: 0x034C [0x00] END_REQSTACK()
```

### Event 65535.44

#### Metadata

| Field        | Value    |
|--------------|----------|
| Entrypoint   | 0x034D   |
| Data Size    | 10 bytes |
| Instructions | 2        |

```
      00 01 02 03 04 05 06 07  08 09 0A 0B 0C 0D 0E 0F
      -- -- -- -- -- -- -- --  -- -- -- -- -- -- -- --
0340:                                         37 92 80               7..
0350: 93 80 56 80 94 80 00                              ..V....         
```

#### Opcodes

```
  0: 0x034D [0x37] UPDATE_EVENT_POSITION_AND_DIR: x=63.519*, z=239.831*, y=-4.749*, direction=349.3°*
  1: 0x0356 [0x00] END_REQSTACK()
```

### Event 65535.45

#### Metadata

| Field        | Value    |
|--------------|----------|
| Entrypoint   | 0x0357   |
| Data Size    | 10 bytes |
| Instructions | 2        |

```
      00 01 02 03 04 05 06 07  08 09 0A 0B 0C 0D 0E 0F
      -- -- -- -- -- -- -- --  -- -- -- -- -- -- -- --
0350:                      37  95 80 96 80 7C 80 97 80         7....|...
0360: 00                                                .               
```

#### Opcodes

```
  0: 0x0357 [0x37] UPDATE_EVENT_POSITION_AND_DIR: x=118.532*, z=91.827*, y=-3.749*, direction=136.7°*
  1: 0x0360 [0x00] END_REQSTACK()
```

### Event 65535.46

#### Metadata

| Field        | Value    |
|--------------|----------|
| Entrypoint   | 0x0361   |
| Data Size    | 10 bytes |
| Instructions | 2        |

```
      00 01 02 03 04 05 06 07  08 09 0A 0B 0C 0D 0E 0F
      -- -- -- -- -- -- -- --  -- -- -- -- -- -- -- --
0360:    37 95 80 96 80 7C 80  98 80 00                  7....|....     
```

#### Opcodes

```
  0: 0x0361 [0x37] UPDATE_EVENT_POSITION_AND_DIR: x=118.532*, z=91.827*, y=-3.749*, direction=163.6°*
  1: 0x036A [0x00] END_REQSTACK()
```

### Event 65535.47

#### Metadata

| Field        | Value    |
|--------------|----------|
| Entrypoint   | 0x036B   |
| Data Size    | 10 bytes |
| Instructions | 2        |

```
      00 01 02 03 04 05 06 07  08 09 0A 0B 0C 0D 0E 0F
      -- -- -- -- -- -- -- --  -- -- -- -- -- -- -- --
0360:                                   37 99 80 9A 80             7....
0370: 7C 80 9B 80 00                                    |....           
```

#### Opcodes

```
  0: 0x036B [0x37] UPDATE_EVENT_POSITION_AND_DIR: x=115.889*, z=93.935*, y=-3.749*, direction=20.0°*
  1: 0x0374 [0x00] END_REQSTACK()
```

### Event 65535.48

#### Metadata

| Field        | Value    |
|--------------|----------|
| Entrypoint   | 0x0375   |
| Data Size    | 10 bytes |
| Instructions | 2        |

```
      00 01 02 03 04 05 06 07  08 09 0A 0B 0C 0D 0E 0F
      -- -- -- -- -- -- -- --  -- -- -- -- -- -- -- --
0370:                37 9C 80  9A 80 7C 80 9B 80 00          7....|.... 
```

#### Opcodes

```
  0: 0x0375 [0x37] UPDATE_EVENT_POSITION_AND_DIR: x=115.489*, z=93.935*, y=-3.749*, direction=20.0°*
  1: 0x037E [0x00] END_REQSTACK()
```

### Event 65535.49

#### Metadata

| Field        | Value    |
|--------------|----------|
| Entrypoint   | 0x037F   |
| Data Size    | 11 bytes |
| Instructions | 3        |

```
      00 01 02 03 04 05 06 07  08 09 0A 0B 0C 0D 0E 0F
      -- -- -- -- -- -- -- --  -- -- -- -- -- -- -- --
0370:                                               1C                 .
0380: 9D 80 4B F0 FF FF 7F 9E  80 00                    ..K.......      
```

#### Opcodes

```
  0: 0x037F [0x1C] WAIT(240* ticks)
  1: 0x0382 [0x4B] UPDATE_ENTITY_YAW(entity=LocalPlayer, yaw=18.8°*)
  2: 0x0389 [0x00] END_REQSTACK()
```

### Event 65535.50

#### Metadata

| Field        | Value    |
|--------------|----------|
| Entrypoint   | 0x038A   |
| Data Size    | 53 bytes |
| Instructions | 5        |

```
      00 01 02 03 04 05 06 07  08 09 0A 0B 0C 0D 0E 0F
      -- -- -- -- -- -- -- --  -- -- -- -- -- -- -- --
0380:                                45 9F 80 F8 FF FF            E.....
0390: 7F F8 FF FF 7F 73 30 32  35 02 80 1C 24 80 52 9F  .....s025...$.R.
03A0: 80 F8 FF FF 7F F8 FF FF  7F 73 30 32 35 45 9F 80  .........s025E..
03B0: F8 FF FF 7F F8 FF FF 7F  73 30 32 36 02 80 00     ........s026... 
```

#### Opcodes

```
  0: 0x038A [0x45] LOAD_SCHEDULED_TASK: Load scheduler "s025" with entities [EventEntity, EventEntity], work=[214*, 0*]
  1: 0x039B [0x1C] WAIT(200* ticks)
  2: 0x039E [0x52] END_LOAD_SCHEDULER: End scheduler "s025" with entities [EventEntity, EventEntity], work=214*
  3: 0x03AD [0x45] LOAD_SCHEDULED_TASK: Load scheduler "s026" with entities [EventEntity, EventEntity], work=[214*, 0*]
  4: 0x03BE [0x00] END_REQSTACK()
```

### Event 65535.51

#### Metadata

| Field        | Value    |
|--------------|----------|
| Entrypoint   | 0x03BF   |
| Data Size    | 10 bytes |
| Instructions | 2        |

```
      00 01 02 03 04 05 06 07  08 09 0A 0B 0C 0D 0E 0F
      -- -- -- -- -- -- -- --  -- -- -- -- -- -- -- --
03B0:                                               37                 7
03C0: A0 80 A1 80 A2 80 A3 80  00                       .........       
```

#### Opcodes

```
  0: 0x03BF [0x37] UPDATE_EVENT_POSITION_AND_DIR: x=-4.779*, z=-19.931*, y=-3.917*, direction=358.2°*
  1: 0x03C8 [0x00] END_REQSTACK()
```

### Event 65535.52

#### Metadata

| Field        | Value    |
|--------------|----------|
| Entrypoint   | 0x03C9   |
| Data Size    | 14 bytes |
| Instructions | 4        |

```
      00 01 02 03 04 05 06 07  08 09 0A 0B 0C 0D 0E 0F
      -- -- -- -- -- -- -- --  -- -- -- -- -- -- -- --
03C0:                             32 04 80 1F 00 A4 80           2......
03D0: A5 80 7C 80 1F 01 00                              ..|....         
```

#### Opcodes

```
  0: 0x03C9 [0x32] ExtData[1]->MainSpeed = 13* * 0.1
  1: 0x03CC [0x1F] MOVE_ENTITY: EventEntity moves to X=0.653*, Z=-19.579*, Y=-3.749*
  2: 0x03D4 [0x1F] MOVE_ENTITY: Update entity position (mode=1)
  3: 0x03D6 [0x00] END_REQSTACK()
```

### Event 65535.53

#### Metadata

| Field        | Value    |
|--------------|----------|
| Entrypoint   | 0x03D7   |
| Data Size    | 10 bytes |
| Instructions | 2        |

```
      00 01 02 03 04 05 06 07  08 09 0A 0B 0C 0D 0E 0F
      -- -- -- -- -- -- -- --  -- -- -- -- -- -- -- --
03D0:                      37  A6 80 A7 80 7C 80 A8 80         7....|...
03E0: 00                                                .               
```

#### Opcodes

```
  0: 0x03D7 [0x37] UPDATE_EVENT_POSITION_AND_DIR: x=0.273*, z=-20.411*, y=-3.749*, direction=317.8°*
  1: 0x03E0 [0x00] END_REQSTACK()
```

### Event 65535.54

#### Metadata

| Field        | Value    |
|--------------|----------|
| Entrypoint   | 0x03E1   |
| Data Size    | 10 bytes |
| Instructions | 2        |

```
      00 01 02 03 04 05 06 07  08 09 0A 0B 0C 0D 0E 0F
      -- -- -- -- -- -- -- --  -- -- -- -- -- -- -- --
03E0:    37 A9 80 AA 80 32 80  AB 80 00                  7....2....     
```

#### Opcodes

```
  0: 0x03E1 [0x37] UPDATE_EVENT_POSITION_AND_DIR: x=-12.039*, z=12.686*, y=-2.749*, direction=265.2°*
  1: 0x03EA [0x00] END_REQSTACK()
```

### Event 65535.55

#### Metadata

| Field        | Value    |
|--------------|----------|
| Entrypoint   | 0x03EB   |
| Data Size    | 10 bytes |
| Instructions | 2        |

```
      00 01 02 03 04 05 06 07  08 09 0A 0B 0C 0D 0E 0F
      -- -- -- -- -- -- -- --  -- -- -- -- -- -- -- --
03E0:                                   37 AC 80 AD 80             7....
03F0: 74 80 AE 80 00                                    t....           
```

#### Opcodes

```
  0: 0x03EB [0x37] UPDATE_EVENT_POSITION_AND_DIR: x=-13.019*, z=11.605*, y=-2.750*, direction=291.3°*
  1: 0x03F4 [0x00] END_REQSTACK()
```

### Event 65535.56

#### Metadata

| Field        | Value    |
|--------------|----------|
| Entrypoint   | 0x03F5   |
| Data Size    | 87 bytes |
| Instructions | 7        |

```
      00 01 02 03 04 05 06 07  08 09 0A 0B 0C 0D 0E 0F
      -- -- -- -- -- -- -- --  -- -- -- -- -- -- -- --
03F0:                45 24 80  F0 FF FF 7F F0 FF FF 7F       E$.........
0400: 6F 76 6C 31 02 80 45 24  80 F0 FF FF 7F F0 FF FF  ovl1..E$........
0410: 7F 62 6C 6F 6E 02 80 45  AF 80 F0 FF FF 7F F0 FF  .blon..E........
0420: FF 7F 73 30 39 36 02 80  1C 88 80 45 24 80 F0 FF  ..s096.....E$...
0430: FF 7F F0 FF FF 7F 62 6C  6F 66 02 80 52 AF 80 F0  ......blof..R...
0440: FF FF 7F F0 FF FF 7F 73  30 39 36 00              .......s096.    
```

#### Opcodes

```
  0: 0x03F5 [0x45] LOAD_SCHEDULED_TASK: Load scheduler "ovl1" with entities [LocalPlayer, LocalPlayer], work=[200*, 0*]
  1: 0x0406 [0x45] LOAD_SCHEDULED_TASK: Load scheduler "blon" with entities [LocalPlayer, LocalPlayer], work=[200*, 0*]
  2: 0x0417 [0x45] LOAD_SCHEDULED_TASK: Load scheduler "s096" with entities [LocalPlayer, LocalPlayer], work=[251*, 0*]
  3: 0x0428 [0x1C] WAIT(30* ticks)
  4: 0x042B [0x45] LOAD_SCHEDULED_TASK: Load scheduler "blof" with entities [LocalPlayer, LocalPlayer], work=[200*, 0*]
  5: 0x043C [0x52] END_LOAD_SCHEDULER: End scheduler "s096" with entities [LocalPlayer, LocalPlayer], work=251*
  6: 0x044B [0x00] END_REQSTACK()
```

### Event 65535.57

#### Metadata

| Field        | Value    |
|--------------|----------|
| Entrypoint   | 0x044C   |
| Data Size    | 10 bytes |
| Instructions | 2        |

```
      00 01 02 03 04 05 06 07  08 09 0A 0B 0C 0D 0E 0F
      -- -- -- -- -- -- -- --  -- -- -- -- -- -- -- --
0440:                                      37 B0 80 B1              7...
0450: 80 7C 80 B2 80 00                                 .|....          
```

#### Opcodes

```
  0: 0x044C [0x37] UPDATE_EVENT_POSITION_AND_DIR: x=117.510*, z=91.973*, y=-3.749*, direction=86.5°*
  1: 0x0455 [0x00] END_REQSTACK()
```

### Event 65535.58

#### Metadata

| Field        | Value    |
|--------------|----------|
| Entrypoint   | 0x0456   |
| Data Size    | 50 bytes |
| Instructions | 8        |

```
      00 01 02 03 04 05 06 07  08 09 0A 0B 0C 0D 0E 0F
      -- -- -- -- -- -- -- --  -- -- -- -- -- -- -- --
0450:                   02 09  10 B3 80 00 6A 04 37 B4        ......j.7.
0460: 80 B5 80 7C 80 B6 80 01  87 04 02 09 10 B7 80 00  ...|............
0470: 7E 04 37 B4 80 B5 80 7C  80 B6 80 01 87 04 37 B8  ~.7....|......7.
0480: 80 B9 80 7C 80 BA 80 00                           ...|....        
```

#### Opcodes

```
  0: 0x0456 [0x02] IF !(Work_Zone[9] == 3*) GOTO 0x046A
  1: 0x045E [0x37] UPDATE_EVENT_POSITION_AND_DIR: x=116.981*, z=92.859*, y=-3.749*, direction=98.3°*
  2: 0x0467 [0x01] GOTO 0x0487
  3: 0x046A [0x02] IF !(Work_Zone[9] == 8*) GOTO 0x047E
  4: 0x0472 [0x37] UPDATE_EVENT_POSITION_AND_DIR: x=116.981*, z=92.859*, y=-3.749*, direction=98.3°*
  5: 0x047B [0x01] GOTO 0x0487
  6: 0x047E [0x37] UPDATE_EVENT_POSITION_AND_DIR: x=117.511*, z=92.616*, y=-3.749*, direction=93.8°*

SUBROUTINE_0487:
  7: 0x0487 [0x00] END_REQSTACK()
```

### Event 65535.59

#### Metadata

| Field        | Value    |
|--------------|----------|
| Entrypoint   | 0x0488   |
| Data Size    | 10 bytes |
| Instructions | 2        |

```
      00 01 02 03 04 05 06 07  08 09 0A 0B 0C 0D 0E 0F
      -- -- -- -- -- -- -- --  -- -- -- -- -- -- -- --
0480:                          37 BB 80 BC 80 7C 80 BD          7....|..
0490: 80 00                                             ..              
```

#### Opcodes

```
  0: 0x0488 [0x37] UPDATE_EVENT_POSITION_AND_DIR: x=116.780*, z=92.834*, y=-3.749*, direction=344.4°*
  1: 0x0491 [0x00] END_REQSTACK()
```

### Event 65535.60

#### Metadata

| Field        | Value    |
|--------------|----------|
| Entrypoint   | 0x0492   |
| Data Size    | 30 bytes |
| Instructions | 5        |

```
      00 01 02 03 04 05 06 07  08 09 0A 0B 0C 0D 0E 0F
      -- -- -- -- -- -- -- --  -- -- -- -- -- -- -- --
0490:       02 09 10 B7 80 00  A6 04 37 BE 80 BF 80 7C    ........7....|
04A0: 80 C0 80 01 AF 04 37 C1  80 C2 80 7C 80 C3 80 00  ......7....|....
```

#### Opcodes

```
  0: 0x0492 [0x02] IF !(Work_Zone[9] == 8*) GOTO 0x04A6
  1: 0x049A [0x37] UPDATE_EVENT_POSITION_AND_DIR: x=116.755*, z=92.764*, y=-3.749*, direction=71.5°*
  2: 0x04A3 [0x01] GOTO 0x04AF
  3: 0x04A6 [0x37] UPDATE_EVENT_POSITION_AND_DIR: x=116.954*, z=92.230*, y=-3.749*, direction=59.8°*

SUBROUTINE_04AF:
  4: 0x04AF [0x00] END_REQSTACK()
```

### Event 65535.61

#### Metadata

| Field        | Value    |
|--------------|----------|
| Entrypoint   | 0x04B0   |
| Data Size    | 10 bytes |
| Instructions | 2        |

```
      00 01 02 03 04 05 06 07  08 09 0A 0B 0C 0D 0E 0F
      -- -- -- -- -- -- -- --  -- -- -- -- -- -- -- --
04B0: 37 C4 80 C5 80 C6 80 C7  80 00                    7.........      
```

#### Opcodes

```
  0: 0x04B0 [0x37] UPDATE_EVENT_POSITION_AND_DIR: x=79.500*, z=100.400*, y=-4.249*, direction=171.5°*
  1: 0x04B9 [0x00] END_REQSTACK()
```

### Event 65535.62

#### Metadata

| Field        | Value    |
|--------------|----------|
| Entrypoint   | 0x04BA   |
| Data Size    | 28 bytes |
| Instructions | 8        |

```
      00 01 02 03 04 05 06 07  08 09 0A 0B 0C 0D 0E 0F
      -- -- -- -- -- -- -- --  -- -- -- -- -- -- -- --
04B0:                                32 04 80 1F 00 C8            2.....
04C0: 80 C5 80 C6 80 1F 01 6F  4B F0 FF FF 7F C9 80 6F  .......oK......o
04D0: 76 F0 FF FF 7F 00                                 v.....          
```

#### Opcodes

```
  0: 0x04BA [0x32] ExtData[1]->MainSpeed = 13* * 0.1
  1: 0x04BD [0x1F] MOVE_ENTITY: EventEntity moves to X=75.833*, Z=100.400*, Y=-4.249*
  2: 0x04C5 [0x1F] MOVE_ENTITY: Update entity position (mode=1)
  3: 0x04C7 [0x6F] WAIT_FRAME_DELAY: Yield until WaitTime reaches zero
  4: 0x04C8 [0x4B] UPDATE_ENTITY_YAW(entity=LocalPlayer, yaw=7.0°*)
  5: 0x04CF [0x6F] WAIT_FRAME_DELAY: Yield until WaitTime reaches zero
  6: 0x04D0 [0x76] CHECK_ENTITY_RENDER_FLAGS: Wait until LocalPlayer Render.Flags0 and Render.Flags3 conditions are met
  7: 0x04D5 [0x00] END_REQSTACK()
```

### Event 65535.63

#### Metadata

| Field        | Value    |
|--------------|----------|
| Entrypoint   | 0x04D6   |
| Data Size    | 20 bytes |
| Instructions | 3        |

```
      00 01 02 03 04 05 06 07  08 09 0A 0B 0C 0D 0E 0F
      -- -- -- -- -- -- -- --  -- -- -- -- -- -- -- --
04D0:                   37 CA  80 CB 80 CC 80 CD 80 79        7........y
04E0: 00 F8 FF FF 7F 29 10 0F  01 00                    .....)....      
```

#### Opcodes

```
  0: 0x04D6 [0x37] UPDATE_EVENT_POSITION_AND_DIR: x=-36.977*, z=-119.379*, y=-1.250*, direction=133.2°*
  1: 0x04DF [0x79] EventEntity looks at Ponono (ID: 17764393/0x010F1029) (Basic look)
  2: 0x04E9 [0x00] END_REQSTACK()
```

### Event 65535.64

#### Metadata

| Field        | Value    |
|--------------|----------|
| Entrypoint   | 0x04EA   |
| Data Size    | 20 bytes |
| Instructions | 3        |

```
      00 01 02 03 04 05 06 07  08 09 0A 0B 0C 0D 0E 0F
      -- -- -- -- -- -- -- --  -- -- -- -- -- -- -- --
04E0:                                37 CE 80 CF 80 D0            7.....
04F0: 80 D1 80 79 00 F8 FF FF  7F 32 10 0F 01 00        ...y.....2....  
```

#### Opcodes

```
  0: 0x04EA [0x37] UPDATE_EVENT_POSITION_AND_DIR: x=-5.607*, z=-142.354*, y=-5.249*, direction=115.2°*
  1: 0x04F3 [0x79] EventEntity looks at Peshi Yohnts (ID: 17764402/0x010F1032) (Basic look)
  2: 0x04FD [0x00] END_REQSTACK()
```

### Event 747

#### Metadata

| Field        | Value     |
|--------------|-----------|
| Entrypoint   | 0x04FE    |
| Data Size    | 249 bytes |
| Instructions | 30        |

```
      00 01 02 03 04 05 06 07  08 09 0A 0B 0C 0D 0E 0F
      -- -- -- -- -- -- -- --  -- -- -- -- -- -- -- --
04F0:                                            42 75                Bu
0500: 00 D2 80 75 01 45 24 80  F8 FF FF 7F F8 FF FF 7F  ...u.E$.........
0510: 66 64 6F 31 02 80 55 24  80 F8 FF FF 7F F8 FF FF  fdo1..U$........
0520: 7F 66 64 6F 31 46 01 38  1C 80 92 01 43 10 0F 01  .fdo1F.8....C...
0530: 29 05 F0 FF FF 7F 4E 4A  F0 FF FF 7F 43 10 0F 01  ).....NJ....C...
0540: 4A 43 10 0F 01 F0 FF FF  7F 45 D3 80 F8 FF FF 7F  JC.......E......
0550: F8 FF FF 7F 73 31 31 30  02 80 1C D4 80 45 24 80  ....s110.....E$.
0560: F8 FF FF 7F F8 FF FF 7F  66 64 69 31 02 80 1C D4  ........fdi1....
0570: 80 2B 43 10 0F 01 D5 80  23 52 D3 80 F8 FF FF 7F  .+C.....#R......
0580: F8 FF FF 7F 73 31 31 30  45 D3 80 F8 FF FF 7F F8  ....s110E.......
0590: FF FF 7F 73 31 31 31 02  80 66 D6 80 43 10 0F 01  ...s111..f..C...
05A0: 43 10 0F 01 74 6C 6B 30  2B 43 10 0F 01 D7 80 23  C...tlk0+C.....#
05B0: 45 24 80 F8 FF FF 7F F8  FF FF 7F 66 64 6F 31 02  E$.........fdo1.
05C0: 80 55 24 80 F8 FF FF 7F  F8 FF FF 7F 66 64 6F 31  .U$.........fdo1
05D0: 52 D3 80 F8 FF FF 7F F8  FF FF 7F 73 31 31 31 46  R..........s111F
05E0: 00 1C D4 80 45 24 80 F8  FF FF 7F F8 FF FF 7F 66  ....E$.........f
05F0: 64 69 31 02 80 21 00                              di1..!.         
```

#### Opcodes

```
  0: 0x04FE [0x42] SET_CLI_EVENT_CANCEL_DATA()
  1: 0x04FF [0x75] LOAD_ROOM(Load indoor room, room=421*)
  2: 0x0503 [0x75] LOAD_ROOM(No action)
  3: 0x0505 [0x45] LOAD_SCHEDULED_TASK: Load scheduler "fdo1" with entities [EventEntity, EventEntity], work=[200*, 0*]
  4: 0x0516 [0x55] WAIT_LOAD_SCHEDULER: Wait for scheduler "fdo1" with entities [EventEntity, EventEntity], work=200*
  5: 0x0525 [0x46] CAMERA_CONTROL: Disable user control
  6: 0x0527 [0x38] SET_CLIENT_EVENT_MODE(mode=27*)
  7: 0x052A [0x92] Pulonono (ID: 17764419/0x010F1043)->Render.Flags3 ^= 0x01
  8: 0x0530 [0x29] REQ_SET_WAIT(priority=0x05, entity_id=LocalPlayer, tag_num=0x4E)
  9: 0x0537 [0x4A] LocalPlayer looks at Pulonono (ID: 17764419/0x010F1043)
 10: 0x0540 [0x4A] Pulonono (ID: 17764419/0x010F1043) looks at LocalPlayer
 11: 0x0549 [0x45] LOAD_SCHEDULED_TASK: Load scheduler "s110" with entities [EventEntity, EventEntity], work=[254*, 0*]
 12: 0x055A [0x1C] WAIT(60* ticks)
 13: 0x055D [0x45] LOAD_SCHEDULED_TASK: Load scheduler "fdi1" with entities [EventEntity, EventEntity], work=[200*, 0*]
 14: 0x056E [0x1C] WAIT(60* ticks)
 15: 0x0571 [0x2B] Pulonono (ID: 17764419/0x010F1043) [11474*]:
    → "So this is the egg you want to raise, is it?"
 16: 0x0578 [0x23] WAIT_FOR_DIALOG_INTERACTION
 17: 0x0579 [0x52] END_LOAD_SCHEDULER: End scheduler "s110" with entities [EventEntity, EventEntity], work=254*
 18: 0x0588 [0x45] LOAD_SCHEDULED_TASK: Load scheduler "s111" with entities [EventEntity, EventEntity], work=[254*, 0*]
 19: 0x0599 [0x66] LOAD_EXT_SCHEDULER_MAIN: Load scheduler "tlk0" with entities [Pulonono (ID: 17764419/0x010F1043), Pulonono (ID: 17764419/0x010F1043)], work=49*
 20: 0x05A8 [0x2B] Pulonono (ID: 17764419/0x010F1043) [11475*]:
    → "We'll take good care of it, then... This is going to be the greatest chocobo ever!"
 21: 0x05AF [0x23] WAIT_FOR_DIALOG_INTERACTION
 22: 0x05B0 [0x45] LOAD_SCHEDULED_TASK: Load scheduler "fdo1" with entities [EventEntity, EventEntity], work=[200*, 0*]
 23: 0x05C1 [0x55] WAIT_LOAD_SCHEDULER: Wait for scheduler "fdo1" with entities [EventEntity, EventEntity], work=200*
 24: 0x05D0 [0x52] END_LOAD_SCHEDULER: End scheduler "s111" with entities [EventEntity, EventEntity], work=254*
 25: 0x05DF [0x46] CAMERA_CONTROL: Restore default settings
 26: 0x05E1 [0x1C] WAIT(60* ticks)
 27: 0x05E4 [0x45] LOAD_SCHEDULED_TASK: Load scheduler "fdi1" with entities [EventEntity, EventEntity], work=[200*, 0*]
 28: 0x05F5 [0x21] END_EVENT
 29: 0x05F6 [0x00] END_REQSTACK()
```

### Event 65535.65

#### Metadata

| Field        | Value    |
|--------------|----------|
| Entrypoint   | 0x05F7   |
| Data Size    | 15 bytes |
| Instructions | 3        |

```
      00 01 02 03 04 05 06 07  08 09 0A 0B 0C 0D 0E 0F
      -- -- -- -- -- -- -- --  -- -- -- -- -- -- -- --
05F0:                      37  D8 80 D9 80 08 80 DA 80         7........
0600: 80 F8 FF FF 7F 00                                 ......          
```

#### Opcodes

```
  0: 0x05F7 [0x37] UPDATE_EVENT_POSITION_AND_DIR: x=131.051*, z=-121.323*, y=-5.250*, direction=226.4°*
  1: 0x0600 [0x80] LOAD_WAIT(entity=EventEntity)
  2: 0x0605 [0x00] END_REQSTACK()
```

### Event 65535.66

#### Metadata

| Field        | Value    |
|--------------|----------|
| Entrypoint   | 0x0606   |
| Data Size    | 15 bytes |
| Instructions | 3        |

```
      00 01 02 03 04 05 06 07  08 09 0A 0B 0C 0D 0E 0F
      -- -- -- -- -- -- -- --  -- -- -- -- -- -- -- --
0600:                   37 DB  80 DC 80 DD 80 DE 80 80        7.........
0610: F8 FF FF 7F 00                                    .....           
```

#### Opcodes

```
  0: 0x0606 [0x37] UPDATE_EVENT_POSITION_AND_DIR: x=-70.202*, z=-507.850*, y=-5.124*, direction=338.7°*
  1: 0x060F [0x80] LOAD_WAIT(entity=EventEntity)
  2: 0x0614 [0x00] END_REQSTACK()
```

### Event 65535.67

#### Metadata

| Field        | Value    |
|--------------|----------|
| Entrypoint   | 0x0615   |
| Data Size    | 19 bytes |
| Instructions | 5        |

```
      00 01 02 03 04 05 06 07  08 09 0A 0B 0C 0D 0E 0F
      -- -- -- -- -- -- -- --  -- -- -- -- -- -- -- --
0610:                32 04 80  1F 00 DF 80 E0 80 E1 80       2..........
0620: 1F 01 1E 44 10 0F 01 00                           ...D....        
```

#### Opcodes

```
  0: 0x0615 [0x32] ExtData[1]->MainSpeed = 13* * 0.1
  1: 0x0618 [0x1F] MOVE_ENTITY: EventEntity moves to X=-56.898*, Z=-506.478*, Y=-5.118*
  2: 0x0620 [0x1F] MOVE_ENTITY: Update entity position (mode=1)
  3: 0x0622 [0x1E] EventEntity looks at Unnamed NPC (ID: 17764420/0x010F1044) and starts talking
  4: 0x0627 [0x00] END_REQSTACK()
```

### Event 65535.68

#### Metadata

| Field        | Value    |
|--------------|----------|
| Entrypoint   | 0x0628   |
| Data Size    | 15 bytes |
| Instructions | 3        |

```
      00 01 02 03 04 05 06 07  08 09 0A 0B 0C 0D 0E 0F
      -- -- -- -- -- -- -- --  -- -- -- -- -- -- -- --
0620:                          37 E2 80 E3 80 E4 80 E5          7.......
0630: 80 80 F8 FF FF 7F 00                              .......         
```

#### Opcodes

```
  0: 0x0628 [0x37] UPDATE_EVENT_POSITION_AND_DIR: x=-66.366*, z=-692.933*, y=6.624*, direction=65.3°*
  1: 0x0631 [0x80] LOAD_WAIT(entity=EventEntity)
  2: 0x0636 [0x00] END_REQSTACK()
```

### Event 65535.69

#### Metadata

| Field        | Value    |
|--------------|----------|
| Entrypoint   | 0x0637   |
| Data Size    | 24 bytes |
| Instructions | 6        |

```
      00 01 02 03 04 05 06 07  08 09 0A 0B 0C 0D 0E 0F
      -- -- -- -- -- -- -- --  -- -- -- -- -- -- -- --
0630:                      32  04 80 1F 00 E6 80 E7 80         2........
0640: E8 80 1F 01 4B F0 FF FF  7F E9 80 1C D4 80 00     ....K.......... 
```

#### Opcodes

```
  0: 0x0637 [0x32] ExtData[1]->MainSpeed = 13* * 0.1
  1: 0x063A [0x1F] MOVE_ENTITY: EventEntity moves to X=-61.993*, Z=-699.488*, Y=8.993*
  2: 0x0642 [0x1F] MOVE_ENTITY: Update entity position (mode=1)
  3: 0x0644 [0x4B] UPDATE_ENTITY_YAW(entity=LocalPlayer, yaw=1.6°*)
  4: 0x064B [0x1C] WAIT(60* ticks)
  5: 0x064E [0x00] END_REQSTACK()
```

### Event 65535.70

#### Metadata

| Field        | Value    |
|--------------|----------|
| Entrypoint   | 0x064F   |
| Data Size    | 15 bytes |
| Instructions | 3        |

```
      00 01 02 03 04 05 06 07  08 09 0A 0B 0C 0D 0E 0F
      -- -- -- -- -- -- -- --  -- -- -- -- -- -- -- --
0640:                                               37                 7
0650: EA 80 EB 80 EC 80 ED 80  80 F8 FF FF 7F 00        ..............  
```

#### Opcodes

```
  0: 0x064F [0x37] UPDATE_EVENT_POSITION_AND_DIR: x=-31.276*, z=-129.172*, y=0.116*, direction=44.6°*
  1: 0x0658 [0x80] LOAD_WAIT(entity=EventEntity)
  2: 0x065D [0x00] END_REQSTACK()
```

### Event 65535.71

#### Metadata

| Field        | Value    |
|--------------|----------|
| Entrypoint   | 0x065E   |
| Data Size    | 15 bytes |
| Instructions | 3        |

```
      00 01 02 03 04 05 06 07  08 09 0A 0B 0C 0D 0E 0F
      -- -- -- -- -- -- -- --  -- -- -- -- -- -- -- --
0650:                                            37 EE                7.
0660: 80 EF 80 F0 80 F1 80 80  F8 FF FF 7F 00           .............   
```

#### Opcodes

```
  0: 0x065E [0x37] UPDATE_EVENT_POSITION_AND_DIR: x=-40.481*, z=-590.042*, y=32.295*, direction=318.2°*
  1: 0x0667 [0x80] LOAD_WAIT(entity=EventEntity)
  2: 0x066C [0x00] END_REQSTACK()
```

### Event 65535.72

#### Metadata

| Field        | Value    |
|--------------|----------|
| Entrypoint   | 0x066D   |
| Data Size    | 19 bytes |
| Instructions | 5        |

```
      00 01 02 03 04 05 06 07  08 09 0A 0B 0C 0D 0E 0F
      -- -- -- -- -- -- -- --  -- -- -- -- -- -- -- --
0660:                                         32 04 80               2..
0670: 1F 00 F2 80 F3 80 F4 80  1F 01 1E 44 10 0F 01 00  ...........D....
```

#### Opcodes

```
  0: 0x066D [0x32] ExtData[1]->MainSpeed = 13* * 0.1
  1: 0x0670 [0x1F] MOVE_ENTITY: EventEntity moves to X=-36.510*, Z=-585.447*, Y=32.538*
  2: 0x0678 [0x1F] MOVE_ENTITY: Update entity position (mode=1)
  3: 0x067A [0x1E] EventEntity looks at Unnamed NPC (ID: 17764420/0x010F1044) and starts talking
  4: 0x067F [0x00] END_REQSTACK()
```

### Event 65535.73

#### Metadata

| Field        | Value    |
|--------------|----------|
| Entrypoint   | 0x0680   |
| Data Size    | 15 bytes |
| Instructions | 3        |

```
      00 01 02 03 04 05 06 07  08 09 0A 0B 0C 0D 0E 0F
      -- -- -- -- -- -- -- --  -- -- -- -- -- -- -- --
0680: 37 F5 80 F6 80 F7 80 F8  80 80 F8 FF FF 7F 00     7.............. 
```

#### Opcodes

```
  0: 0x0680 [0x37] UPDATE_EVENT_POSITION_AND_DIR: x=136.106*, z=-174.403*, y=-11.768*, direction=316.7°*
  1: 0x0689 [0x80] LOAD_WAIT(entity=EventEntity)
  2: 0x068E [0x00] END_REQSTACK()
```

### Event 65535.74

#### Metadata

| Field        | Value    |
|--------------|----------|
| Entrypoint   | 0x068F   |
| Data Size    | 19 bytes |
| Instructions | 5        |

```
      00 01 02 03 04 05 06 07  08 09 0A 0B 0C 0D 0E 0F
      -- -- -- -- -- -- -- --  -- -- -- -- -- -- -- --
0680:                                               32                 2
0690: 04 80 1F 00 F9 80 FA 80  FB 80 1F 01 1E 4A 10 0F  .............J..
06A0: 01 00                                             ..              
```

#### Opcodes

```
  0: 0x068F [0x32] ExtData[1]->MainSpeed = 13* * 0.1
  1: 0x0692 [0x1F] MOVE_ENTITY: EventEntity moves to X=141.579*, Z=-167.845*, Y=-12.912*
  2: 0x069A [0x1F] MOVE_ENTITY: Update entity position (mode=1)
  3: 0x069C [0x1E] EventEntity looks at Unnamed NPC (ID: 17764426/0x010F104A) and starts talking
  4: 0x06A1 [0x00] END_REQSTACK()
```

### Event 65535.75

#### Metadata

| Field        | Value    |
|--------------|----------|
| Entrypoint   | 0x06A2   |
| Data Size    | 15 bytes |
| Instructions | 3        |

```
      00 01 02 03 04 05 06 07  08 09 0A 0B 0C 0D 0E 0F
      -- -- -- -- -- -- -- --  -- -- -- -- -- -- -- --
06A0:       37 FC 80 FD 80 FE  80 FF 80 80 F8 FF FF 7F    7.............
06B0: 00                                                .               
```

#### Opcodes

```
  0: 0x06A2 [0x37] UPDATE_EVENT_POSITION_AND_DIR: x=673.888*, z=-414.184*, y=0.809*, direction=165.3°*
  1: 0x06AB [0x80] LOAD_WAIT(entity=EventEntity)
  2: 0x06B0 [0x00] END_REQSTACK()
```

### Event 65535.76

#### Metadata

| Field        | Value    |
|--------------|----------|
| Entrypoint   | 0x06B1   |
| Data Size    | 19 bytes |
| Instructions | 5        |

```
      00 01 02 03 04 05 06 07  08 09 0A 0B 0C 0D 0E 0F
      -- -- -- -- -- -- -- --  -- -- -- -- -- -- -- --
06B0:    32 04 80 1F 00 00 81  01 81 02 81 1F 01 1E 4A   2.............J
06C0: 10 0F 01 00                                       ....            
```

#### Opcodes

```
  0: 0x06B1 [0x32] ExtData[1]->MainSpeed = 13* * 0.1
  1: 0x06B4 [0x1F] MOVE_ENTITY: EventEntity moves to X=666.188*, Z=-413.893*, Y=0.796*
  2: 0x06BC [0x1F] MOVE_ENTITY: Update entity position (mode=1)
  3: 0x06BE [0x1E] EventEntity looks at Unnamed NPC (ID: 17764426/0x010F104A) and starts talking
  4: 0x06C3 [0x00] END_REQSTACK()
```

### Event 65535.77

#### Metadata

| Field        | Value    |
|--------------|----------|
| Entrypoint   | 0x06C4   |
| Data Size    | 15 bytes |
| Instructions | 3        |

```
      00 01 02 03 04 05 06 07  08 09 0A 0B 0C 0D 0E 0F
      -- -- -- -- -- -- -- --  -- -- -- -- -- -- -- --
06C0:             37 03 81 04  81 05 81 06 81 80 F8 FF      7...........
06D0: FF 7F 00                                          ...             
```

#### Opcodes

```
  0: 0x06C4 [0x37] UPDATE_EVENT_POSITION_AND_DIR: x=-30.298*, z=-81.219*, y=2.999*, direction=23.1°*
  1: 0x06CD [0x80] LOAD_WAIT(entity=EventEntity)
  2: 0x06D2 [0x00] END_REQSTACK()
```

### Event 65535.78

#### Metadata

| Field        | Value    |
|--------------|----------|
| Entrypoint   | 0x06D3   |
| Data Size    | 15 bytes |
| Instructions | 3        |

```
      00 01 02 03 04 05 06 07  08 09 0A 0B 0C 0D 0E 0F
      -- -- -- -- -- -- -- --  -- -- -- -- -- -- -- --
06D0:          37 07 81 08 81  05 81 09 81 80 F8 FF FF     7............
06E0: 7F 00                                             ..              
```

#### Opcodes

```
  0: 0x06D3 [0x37] UPDATE_EVENT_POSITION_AND_DIR: x=-20.744*, z=-49.948*, y=2.999*, direction=275.1°*
  1: 0x06DC [0x80] LOAD_WAIT(entity=EventEntity)
  2: 0x06E1 [0x00] END_REQSTACK()
```

### Event 65535.79

#### Metadata

| Field        | Value    |
|--------------|----------|
| Entrypoint   | 0x06E2   |
| Data Size    | 15 bytes |
| Instructions | 3        |

```
      00 01 02 03 04 05 06 07  08 09 0A 0B 0C 0D 0E 0F
      -- -- -- -- -- -- -- --  -- -- -- -- -- -- -- --
06E0:       37 0A 81 0B 81 0C  81 0D 81 80 F8 FF FF 7F    7.............
06F0: 00                                                .               
```

#### Opcodes

```
  0: 0x06E2 [0x37] UPDATE_EVENT_POSITION_AND_DIR: x=-66.646*, z=-501.560*, y=-5.490*, direction=224.7°*
  1: 0x06EB [0x80] LOAD_WAIT(entity=EventEntity)
  2: 0x06F0 [0x00] END_REQSTACK()
```

### Event 65535.80

#### Metadata

| Field        | Value    |
|--------------|----------|
| Entrypoint   | 0x06F1   |
| Data Size    | 19 bytes |
| Instructions | 5        |

```
      00 01 02 03 04 05 06 07  08 09 0A 0B 0C 0D 0E 0F
      -- -- -- -- -- -- -- --  -- -- -- -- -- -- -- --
06F0:    32 04 80 1F 00 0E 81  0F 81 10 81 1F 01 1E 45   2.............E
0700: 10 0F 01 00                                       ....            
```

#### Opcodes

```
  0: 0x06F1 [0x32] ExtData[1]->MainSpeed = 13* * 0.1
  1: 0x06F4 [0x1F] MOVE_ENTITY: EventEntity moves to X=-59.262*, Z=-507.947*, Y=-5.414*
  2: 0x06FC [0x1F] MOVE_ENTITY: Update entity position (mode=1)
  3: 0x06FE [0x1E] EventEntity looks at Unnamed NPC (ID: 17764421/0x010F1045) and starts talking
  4: 0x0703 [0x00] END_REQSTACK()
```

### Event 65535.81

#### Metadata

| Field        | Value    |
|--------------|----------|
| Entrypoint   | 0x0704   |
| Data Size    | 27 bytes |
| Instructions | 7        |

```
      00 01 02 03 04 05 06 07  08 09 0A 0B 0C 0D 0E 0F
      -- -- -- -- -- -- -- --  -- -- -- -- -- -- -- --
0700:             32 04 80 1F  00 11 81 12 81 13 81 1F      2...........
0710: 01 1C 88 80 1F 00 14 81  15 81 16 81 1F 01 00     ............... 
```

#### Opcodes

```
  0: 0x0704 [0x32] ExtData[1]->MainSpeed = 13* * 0.1
  1: 0x0707 [0x1F] MOVE_ENTITY: EventEntity moves to X=-58.469*, Z=-508.847*, Y=-5.315*
  2: 0x070F [0x1F] MOVE_ENTITY: Update entity position (mode=1)
  3: 0x0711 [0x1C] WAIT(30* ticks)
  4: 0x0714 [0x1F] MOVE_ENTITY: EventEntity moves to X=-63.526*, Z=-507.355*, Y=-5.499*
  5: 0x071C [0x1F] MOVE_ENTITY: Update entity position (mode=1)
  6: 0x071E [0x00] END_REQSTACK()
```

### Event 65535.82

#### Metadata

| Field        | Value    |
|--------------|----------|
| Entrypoint   | 0x071F   |
| Data Size    | 14 bytes |
| Instructions | 4        |

```
      00 01 02 03 04 05 06 07  08 09 0A 0B 0C 0D 0E 0F
      -- -- -- -- -- -- -- --  -- -- -- -- -- -- -- --
0710:                                               32                 2
0720: 04 80 1F 00 17 81 18 81  19 81 1F 01 00           .............   
```

#### Opcodes

```
  0: 0x071F [0x32] ExtData[1]->MainSpeed = 13* * 0.1
  1: 0x0722 [0x1F] MOVE_ENTITY: EventEntity moves to X=-57.689*, Z=-503.176*, Y=-5.327*
  2: 0x072A [0x1F] MOVE_ENTITY: Update entity position (mode=1)
  3: 0x072C [0x00] END_REQSTACK()
```

### Event 65535.83

#### Metadata

| Field        | Value    |
|--------------|----------|
| Entrypoint   | 0x072D   |
| Data Size    | 14 bytes |
| Instructions | 4        |

```
      00 01 02 03 04 05 06 07  08 09 0A 0B 0C 0D 0E 0F
      -- -- -- -- -- -- -- --  -- -- -- -- -- -- -- --
0720:                                         32 04 80               2..
0730: 1F 00 1A 81 1B 81 1C 81  1F 01 00                 ...........     
```

#### Opcodes

```
  0: 0x072D [0x32] ExtData[1]->MainSpeed = 13* * 0.1
  1: 0x0730 [0x1F] MOVE_ENTITY: EventEntity moves to X=-64.646*, Z=-699.200*, Y=8.557*
  2: 0x0738 [0x1F] MOVE_ENTITY: Update entity position (mode=1)
  3: 0x073A [0x00] END_REQSTACK()
```

### Event 65535.84

#### Metadata

| Field        | Value    |
|--------------|----------|
| Entrypoint   | 0x073B   |
| Data Size    | 33 bytes |
| Instructions | 7        |

```
      00 01 02 03 04 05 06 07  08 09 0A 0B 0C 0D 0E 0F
      -- -- -- -- -- -- -- --  -- -- -- -- -- -- -- --
0730:                                   37 1D 81 1E 81             7....
0740: 1F 81 20 81 80 F8 FF FF  7F 32 04 80 1F 00 21 81  .. ......2....!.
0750: 22 81 23 81 1F 01 1E 45  10 0F 01 00              ".#....E....    
```

#### Opcodes

```
  0: 0x073B [0x37] UPDATE_EVENT_POSITION_AND_DIR: x=-80.309*, z=-699.518*, y=8.645*, direction=236.5°*
  1: 0x0744 [0x80] LOAD_WAIT(entity=EventEntity)
  2: 0x0749 [0x32] ExtData[1]->MainSpeed = 13* * 0.1
  3: 0x074C [0x1F] MOVE_ENTITY: EventEntity moves to X=-82.804*, Z=-698.733*, Y=8.497*
  4: 0x0754 [0x1F] MOVE_ENTITY: Update entity position (mode=1)
  5: 0x0756 [0x1E] EventEntity looks at Unnamed NPC (ID: 17764421/0x010F1045) and starts talking
  6: 0x075B [0x00] END_REQSTACK()
```

### Event 65535.85

#### Metadata

| Field        | Value    |
|--------------|----------|
| Entrypoint   | 0x075C   |
| Data Size    | 27 bytes |
| Instructions | 7        |

```
      00 01 02 03 04 05 06 07  08 09 0A 0B 0C 0D 0E 0F
      -- -- -- -- -- -- -- --  -- -- -- -- -- -- -- --
0750:                                      32 04 80 1F              2...
0760: 00 24 81 25 81 26 81 1F  01 1C 27 81 1F 00 1D 81  .$.%.&....'.....
0770: 1E 81 1F 81 1F 01 00                              .......         
```

#### Opcodes

```
  0: 0x075C [0x32] ExtData[1]->MainSpeed = 13* * 0.1
  1: 0x075F [0x1F] MOVE_ENTITY: EventEntity moves to X=-83.898*, Z=-697.477*, Y=8.154*
  2: 0x0767 [0x1F] MOVE_ENTITY: Update entity position (mode=1)
  3: 0x0769 [0x1C] WAIT(15* ticks)
  4: 0x076C [0x1F] MOVE_ENTITY: EventEntity moves to X=-80.309*, Z=-699.518*, Y=8.645*
  5: 0x0774 [0x1F] MOVE_ENTITY: Update entity position (mode=1)
  6: 0x0776 [0x00] END_REQSTACK()
```

### Event 65535.86

#### Metadata

| Field        | Value    |
|--------------|----------|
| Entrypoint   | 0x0777   |
| Data Size    | 14 bytes |
| Instructions | 4        |

```
      00 01 02 03 04 05 06 07  08 09 0A 0B 0C 0D 0E 0F
      -- -- -- -- -- -- -- --  -- -- -- -- -- -- -- --
0770:                      32  04 80 1F 00 28 81 29 81         2....(.).
0780: 2A 81 1F 01 00                                    *....           
```

#### Opcodes

```
  0: 0x0777 [0x32] ExtData[1]->MainSpeed = 13* * 0.1
  1: 0x077A [0x1F] MOVE_ENTITY: EventEntity moves to X=-87.406*, Z=-695.398*, Y=8.077*
  2: 0x0782 [0x1F] MOVE_ENTITY: Update entity position (mode=1)
  3: 0x0784 [0x00] END_REQSTACK()
```

### Event 65535.87

#### Metadata

| Field        | Value    |
|--------------|----------|
| Entrypoint   | 0x0785   |
| Data Size    | 14 bytes |
| Instructions | 4        |

```
      00 01 02 03 04 05 06 07  08 09 0A 0B 0C 0D 0E 0F
      -- -- -- -- -- -- -- --  -- -- -- -- -- -- -- --
0780:                32 04 80  1F 00 2B 81 2C 81 2D 81       2....+.,.-.
0790: 1F 01 00                                          ...             
```

#### Opcodes

```
  0: 0x0785 [0x32] ExtData[1]->MainSpeed = 13* * 0.1
  1: 0x0788 [0x1F] MOVE_ENTITY: EventEntity moves to X=-30.315*, Z=-134.850*, Y=0.061*
  2: 0x0790 [0x1F] MOVE_ENTITY: Update entity position (mode=1)
  3: 0x0792 [0x00] END_REQSTACK()
```

### Event 65535.88

#### Metadata

| Field        | Value    |
|--------------|----------|
| Entrypoint   | 0x0793   |
| Data Size    | 33 bytes |
| Instructions | 7        |

```
      00 01 02 03 04 05 06 07  08 09 0A 0B 0C 0D 0E 0F
      -- -- -- -- -- -- -- --  -- -- -- -- -- -- -- --
0790:          37 2E 81 2F 81  30 81 31 81 80 F8 FF FF     7../.0.1.....
07A0: 7F 32 04 80 1F 00 32 81  33 81 34 81 1F 01 1E 45  .2....2.3.4....E
07B0: 10 0F 01 00                                       ....            
```

#### Opcodes

```
  0: 0x0793 [0x37] UPDATE_EVENT_POSITION_AND_DIR: x=-28.408*, z=-141.619*, y=-0.129*, direction=92.1°*
  1: 0x079C [0x80] LOAD_WAIT(entity=EventEntity)
  2: 0x07A1 [0x32] ExtData[1]->MainSpeed = 13* * 0.1
  3: 0x07A4 [0x1F] MOVE_ENTITY: EventEntity moves to X=-26.990*, Z=-146.305*, Y=-0.395*
  4: 0x07AC [0x1F] MOVE_ENTITY: Update entity position (mode=1)
  5: 0x07AE [0x1E] EventEntity looks at Unnamed NPC (ID: 17764421/0x010F1045) and starts talking
  6: 0x07B3 [0x00] END_REQSTACK()
```

### Event 65535.89

#### Metadata

| Field        | Value    |
|--------------|----------|
| Entrypoint   | 0x07B4   |
| Data Size    | 27 bytes |
| Instructions | 7        |

```
      00 01 02 03 04 05 06 07  08 09 0A 0B 0C 0D 0E 0F
      -- -- -- -- -- -- -- --  -- -- -- -- -- -- -- --
07B0:             32 04 80 1F  00 35 81 36 81 37 81 1F      2....5.6.7..
07C0: 01 1C 88 80 1F 00 38 81  39 81 3A 81 1F 01 00     ......8.9.:.... 
```

#### Opcodes

```
  0: 0x07B4 [0x32] ExtData[1]->MainSpeed = 13* * 0.1
  1: 0x07B7 [0x1F] MOVE_ENTITY: EventEntity moves to X=-27.554*, Z=-147.595*, Y=-0.476*
  2: 0x07BF [0x1F] MOVE_ENTITY: Update entity position (mode=1)
  3: 0x07C1 [0x1C] WAIT(30* ticks)
  4: 0x07C4 [0x1F] MOVE_ENTITY: EventEntity moves to X=-32.097*, Z=-148.416*, Y=-0.500*
  5: 0x07CC [0x1F] MOVE_ENTITY: Update entity position (mode=1)
  6: 0x07CE [0x00] END_REQSTACK()
```

### Event 65535.90

#### Metadata

| Field        | Value    |
|--------------|----------|
| Entrypoint   | 0x07CF   |
| Data Size    | 14 bytes |
| Instructions | 4        |

```
      00 01 02 03 04 05 06 07  08 09 0A 0B 0C 0D 0E 0F
      -- -- -- -- -- -- -- --  -- -- -- -- -- -- -- --
07C0:                                               32                 2
07D0: 04 80 1F 00 3B 81 3C 81  3D 81 1F 01 00           ....;.<.=....   
```

#### Opcodes

```
  0: 0x07CF [0x32] ExtData[1]->MainSpeed = 13* * 0.1
  1: 0x07D2 [0x1F] MOVE_ENTITY: EventEntity moves to X=-27.794*, Z=-143.819*, Y=-0.240*
  2: 0x07DA [0x1F] MOVE_ENTITY: Update entity position (mode=1)
  3: 0x07DC [0x00] END_REQSTACK()
```

