# Event 202

## Metadata

| Field           | Value    |
|-----------------|----------|
| Event Index     | 13/18    |
| Offset          | 0x00E8   |
| Data Size       | 33 bytes |
| Calculated Size | 33 bytes |
| Instructions    | 12       |

```
      00 01 02 03 04 05 06 07  08 09 0A 0B 0C 0D 0E 0F
      -- -- -- -- -- -- -- --  -- -- -- -- -- -- -- --
00E0:                          1E F0 FF FF 7F 6F 70 29          .....op)
00F0: 08 28 20 0F 01 01 1D 07  80 23 1D 08 80 23 29 08  .( ......#...#).
0100: 28 20 0F 01 03 20 00 21  00                       ( ... .!.       
```

## Opcodes

```
  0: 0x00E8 [0x1E] EventEntity looks at LocalPlayer and starts talking
  1: 0x00ED [0x6F] WAIT_FRAME_DELAY: Yield until WaitTime reaches zero
  2: 0x00EE [0x70] WAIT_ENTITY_RENDER_FLAG: Wait while EventEntity->Render.Flags3 bit 2 is set (cancel turn if not)
  3: 0x00EF [0x29] REQ_SET_WAIT(priority=0x08, entity_id=Boycoco (ID: 17768488/0x010F2028), tag_num=0x01)
  4: 0x00F6 [0x1D] PRINT_EVENT_MESSAGE(message_id=450*)
    → "I finally realize why Rhinostery minister Rukususu has returned from her research in the Northlands.\u007F1\u0000\u0007"
  5: 0x00F9 [0x23] WAIT_FOR_DIALOG_INTERACTION
  6: 0x00FA [0x1D] PRINT_EVENT_MESSAGE(message_id=451*)
    → "She must have been investigating the Great War and found something out about the Shadow Lord.\u007F1\u0000\u0007"
  7: 0x00FD [0x23] WAIT_FOR_DIALOG_INTERACTION
  8: 0x00FE [0x29] REQ_SET_WAIT(priority=0x08, entity_id=Boycoco (ID: 17768488/0x010F2028), tag_num=0x03)
  9: 0x0105 [0x20] SET_CLI_EVENT_UC_FLAG: Unlock player control
 10: 0x0107 [0x21] END_EVENT
 11: 0x0108 [0x00] END_REQSTACK()
```
