# Event 223

## Metadata

| Field           | Value    |
|-----------------|----------|
| Event Index     | 14/18    |
| Offset          | 0x0109   |
| Data Size       | 33 bytes |
| Calculated Size | 33 bytes |
| Instructions    | 12       |

```
      00 01 02 03 04 05 06 07  08 09 0A 0B 0C 0D 0E 0F
      -- -- -- -- -- -- -- --  -- -- -- -- -- -- -- --
0100:                             1E F0 FF FF 7F 6F 70           .....op
0110: 29 08 28 20 0F 01 01 1D  09 80 23 1D 0A 80 23 29  ).( ......#...#)
0120: 08 28 20 0F 01 03 20 00  21 00                    .( ... .!.      
```

## Opcodes

```
  0: 0x0109 [0x1E] EventEntity looks at LocalPlayer and starts talking
  1: 0x010E [0x6F] WAIT_FRAME_DELAY: Yield until WaitTime reaches zero
  2: 0x010F [0x70] WAIT_ENTITY_RENDER_FLAG: Wait while EventEntity->Render.Flags3 bit 2 is set (cancel turn if not)
  3: 0x0110 [0x29] REQ_SET_WAIT(priority=0x08, entity_id=Boycoco (ID: 17768488/0x010F2028), tag_num=0x01)
  4: 0x0117 [0x1D] PRINT_EVENT_MESSAGE(message_id=497*)
    → "The Rhinostery minister, Lady Rukususu, has returned to the freezy-cold Northlands.\u007F1\u0000\u0007"
  5: 0x011A [0x23] WAIT_FOR_DIALOG_INTERACTION
  6: 0x011B [0x1D] PRINT_EVENT_MESSAGE(message_id=498*)
    → "She said something about investigating the reason why the Shadow Lord suddenly reappeared. I wonder what really happened up there...\u007F1\u0000\u0007"
  7: 0x011E [0x23] WAIT_FOR_DIALOG_INTERACTION
  8: 0x011F [0x29] REQ_SET_WAIT(priority=0x08, entity_id=Boycoco (ID: 17768488/0x010F2028), tag_num=0x03)
  9: 0x0126 [0x20] SET_CLI_EVENT_UC_FLAG: Unlock player control
 10: 0x0128 [0x21] END_EVENT
 11: 0x0129 [0x00] END_REQSTACK()
```
