# Event 337

## Metadata

| Field           | Value    |
|-----------------|----------|
| Event Index     | 16/18    |
| Offset          | 0x012B   |
| Data Size       | 33 bytes |
| Calculated Size | 33 bytes |
| Instructions    | 12       |

```
      00 01 02 03 04 05 06 07  08 09 0A 0B 0C 0D 0E 0F
      -- -- -- -- -- -- -- --  -- -- -- -- -- -- -- --
0120:                                   1E F0 FF FF 7F             .....
0130: 6F 70 29 08 28 20 0F 01  04 1D 0B 80 23 1D 0C 80  op).( ......#...
0140: 23 29 08 28 20 0F 01 05  20 00 21 00              #).( ... .!.    
```

## Opcodes

```
  0: 0x012B [0x1E] EventEntity looks at LocalPlayer and starts talking
  1: 0x0130 [0x6F] WAIT_FRAME_DELAY: Yield until WaitTime reaches zero
  2: 0x0131 [0x70] WAIT_ENTITY_RENDER_FLAG: Wait while EventEntity->Render.Flags3 bit 2 is set (cancel turn if not)
  3: 0x0132 [0x29] REQ_SET_WAIT(priority=0x08, entity_id=Boycoco (ID: 17768488/0x010F2028), tag_num=0x04)
  4: 0x0139 [0x1D] PRINT_EVENT_MESSAGE(message_id=8279*)
    → "What in the Star Sibyl's name is going on? Why has that frightening creature returned to Heavens Tower!?\u007F1\u0000\u0007"
  5: 0x013C [0x23] WAIT_FOR_DIALOG_INTERACTION
  6: 0x013D [0x1D] PRINT_EVENT_MESSAGE(message_id=8280*)
    → "We ladies-in-waiting could not even bear to be near it. It seemed its very breath would be enough to freezy-weeze your soul.\u007F1\u0000\u0007"
  7: 0x0140 [0x23] WAIT_FOR_DIALOG_INTERACTION
  8: 0x0141 [0x29] REQ_SET_WAIT(priority=0x08, entity_id=Boycoco (ID: 17768488/0x010F2028), tag_num=0x05)
  9: 0x0148 [0x20] SET_CLI_EVENT_UC_FLAG: Unlock player control
 10: 0x014A [0x21] END_EVENT
 11: 0x014B [0x00] END_REQSTACK()
```
