# Event 388

## Metadata

| Field           | Value    |
|-----------------|----------|
| Event Index     | 18/18    |
| Offset          | 0x016D   |
| Data Size       | 33 bytes |
| Calculated Size | 33 bytes |
| Instructions    | 12       |

```
      00 01 02 03 04 05 06 07  08 09 0A 0B 0C 0D 0E 0F
      -- -- -- -- -- -- -- --  -- -- -- -- -- -- -- --
0160:                                         1E F0 FF               ...
0170: FF 7F 6F 70 29 08 28 20  0F 01 01 1D 0F 80 23 1D  ..op).( ......#.
0180: 10 80 23 29 08 28 20 0F  01 02 20 00 21 00        ..#).( ... .!.  
```

## Opcodes

```
  0: 0x016D [0x1E] EventEntity looks at LocalPlayer and starts talking
  1: 0x0172 [0x6F] WAIT_FRAME_DELAY: Yield until WaitTime reaches zero
  2: 0x0173 [0x70] WAIT_ENTITY_RENDER_FLAG: Wait while EventEntity->Render.Flags3 bit 2 is set (cancel turn if not)
  3: 0x0174 [0x29] REQ_SET_WAIT(priority=0x08, entity_id=Boycoco (ID: 17768488/0x010F2028), tag_num=0x01)
  4: 0x017B [0x1D] PRINT_EVENT_MESSAGE(message_id=8509*)
    → "I once heard that even a tiny-winy prayer, if enough people believe in it, will grow into a great wish with enough strength to reach the stars...\u007F1\u0000\u0007"
  5: 0x017E [0x23] WAIT_FOR_DIALOG_INTERACTION
  6: 0x017F [0x1D] PRINT_EVENT_MESSAGE(message_id=8510*)
    → "I wonder if our simple prayer was enough? For the Star Sibyl's sake, we will keep on wishing and believing.\u007F1\u0000\u0007"
  7: 0x0182 [0x23] WAIT_FOR_DIALOG_INTERACTION
  8: 0x0183 [0x29] REQ_SET_WAIT(priority=0x08, entity_id=Boycoco (ID: 17768488/0x010F2028), tag_num=0x02)
  9: 0x018A [0x20] SET_CLI_EVENT_UC_FLAG: Unlock player control
 10: 0x018C [0x21] END_EVENT
 11: 0x018D [0x00] END_REQSTACK()
```
