# Event 283

## Metadata

| Field           | Value    |
|-----------------|----------|
| Event Index     | 7/8      |
| Offset          | 0x0230   |
| Data Size       | 46 bytes |
| Calculated Size | 46 bytes |
| Instructions    | 11       |

```
      00 01 02 03 04 05 06 07  08 09 0A 0B 0C 0D 0E 0F
      -- -- -- -- -- -- -- --  -- -- -- -- -- -- -- --
0230: 42 1E F0 FF FF 7F 6F 70  66 00 80 F8 FF FF 7F F8  B.....opf.......
0240: FF FF 7F 74 6C 6B 30 1D  15 80 23 66 00 80 F8 FF  ...tlk0...#f....
0250: FF 7F F8 FF FF 7F 74 6C  6B 31 20 00 21 00        ......tlk1 .!.  
```

## Opcodes

```
  0: 0x0230 [0x42] SET_CLI_EVENT_CANCEL_DATA()
  1: 0x0231 [0x1E] EventEntity looks at LocalPlayer and starts talking
  2: 0x0236 [0x6F] WAIT_FRAME_DELAY: Yield until WaitTime reaches zero
  3: 0x0237 [0x70] WAIT_ENTITY_RENDER_FLAG: Wait while EventEntity->Render.Flags3 bit 2 is set (cancel turn if not)
  4: 0x0238 [0x66] LOAD_EXT_SCHEDULER_MAIN: Load scheduler "tlk0" with entities [EventEntity, EventEntity], work=19*
  5: 0x0247 [0x1D] PRINT_EVENT_MESSAGE(message_id=8801*)
    → "Can I have a moment of your time?\u0007Oh...you seem a little preoccupied. Maybe when you're not so busy.\u007F1\u0000\u0007"
  6: 0x024A [0x23] WAIT_FOR_DIALOG_INTERACTION
  7: 0x024B [0x66] LOAD_EXT_SCHEDULER_MAIN: Load scheduler "tlk1" with entities [EventEntity, EventEntity], work=19*
  8: 0x025A [0x20] SET_CLI_EVENT_UC_FLAG: Unlock player control
  9: 0x025C [0x21] END_EVENT
 10: 0x025D [0x00] END_REQSTACK()
```
