# Event 684

## Metadata

| Field           | Value    |
|-----------------|----------|
| Event Index     | 10/15    |
| Offset          | 0x04C6   |
| Data Size       | 41 bytes |
| Calculated Size | 41 bytes |
| Instructions    | 9        |

```
      00 01 02 03 04 05 06 07  08 09 0A 0B 0C 0D 0E 0F
      -- -- -- -- -- -- -- --  -- -- -- -- -- -- -- --
04C0:                   1E F0  FF FF 7F 6F 70 5B 0B 80        .....op[..
04D0: F8 FF FF 7F F8 FF FF 7F  69 6E 6F 30 1D 0F 80 23  ........ino0...#
04E0: 53 F8 FF FF 7F F8 FF FF  7F 69 6E 6F 30 21 00     S........ino0!. 
```

## Opcodes

```
  0: 0x04C6 [0x1E] EventEntity looks at LocalPlayer and starts talking
  1: 0x04CB [0x6F] WAIT_FRAME_DELAY: Yield until WaitTime reaches zero
  2: 0x04CC [0x70] WAIT_ENTITY_RENDER_FLAG: Wait while EventEntity->Render.Flags3 bit 2 is set (cancel turn if not)
  3: 0x04CD [0x5B] LOAD_EXT_SCHEDULER: Load scheduler "ino0" with entities [EventEntity, EventEntity], work=25*
  4: 0x04DC [0x1D] PRINT_EVENT_MESSAGE(message_id=12177*)
    → "May Paradise open its gates to you.\u007F1\u0000\u0007"
  5: 0x04DF [0x23] WAIT_FOR_DIALOG_INTERACTION
  6: 0x04E0 [0x53] WAIT_SCHEDULER_TASK: Wait for scheduler "ino0" with entities [EventEntity, EventEntity]
  7: 0x04ED [0x21] END_EVENT
  8: 0x04EE [0x00] END_REQSTACK()
```
