# Event 163

## Metadata

| Field           | Value    |
|-----------------|----------|
| Event Index     | 4/5      |
| Offset          | 0x00D6   |
| Data Size       | 42 bytes |
| Calculated Size | 42 bytes |
| Instructions    | 12       |

```
      00 01 02 03 04 05 06 07  08 09 0A 0B 0C 0D 0E 0F
      -- -- -- -- -- -- -- --  -- -- -- -- -- -- -- --
00D0:                   03 02  10 02 80 03 03 10 03 80        ..........
00E0: 1E F0 FF FF 7F 6F 70 66  00 80 F8 FF FF 7F F8 FF  .....opf........
00F0: FF 7F 74 6C 6B 30 1D 12  80 23 1D 13 80 23 21 00  ..tlk0...#...#!.
```

## Opcodes

```
  0: 0x00D6 [0x03] Work_Zone[2] = 2874*
  1: 0x00DB [0x03] Work_Zone[3] = 2*
  2: 0x00E0 [0x1E] EventEntity looks at LocalPlayer and starts talking
  3: 0x00E5 [0x6F] WAIT_FRAME_DELAY: Yield until WaitTime reaches zero
  4: 0x00E6 [0x70] WAIT_ENTITY_RENDER_FLAG: Wait while EventEntity->Render.Flags3 bit 2 is set (cancel turn if not)
  5: 0x00E7 [0x66] LOAD_EXT_SCHEDULER_MAIN(work_offset=20*, entity1=EventEntity, entity2=EventEntity, action="tlk0")
  6: 0x00F6 [0x1D] PRINT_EVENT_MESSAGE(message_id=8061*)
    → "According to the tome of healing, 
\u0001 \u0001	)\u0002\u0001\u0000\u0000\u0002\u0000\u0000\u0000 are required to concoct the medicine.\u007F1\u0000\u0007"
  7: 0x00F9 [0x23] WAIT_FOR_DIALOG_INTERACTION
  8: 0x00FA [0x1D] PRINT_EVENT_MESSAGE(message_id=8062*)
    → "For the longest time, Curilla was the beating heart of our resistance effort. Bereft of her leadership and military prowess, our defenses may as well be made of clay. Our survival depends on your finding what we need!\u007F1\u0000\u0007"
  9: 0x00FD [0x23] WAIT_FOR_DIALOG_INTERACTION
 10: 0x00FE [0x21] END_EVENT
 11: 0x00FF [0x00] END_REQSTACK()
```
