# Event 46

## Metadata

| Field           | Value    |
|-----------------|----------|
| Event Index     | 19/24    |
| Offset          | 0x0BF0   |
| Data Size       | 53 bytes |
| Calculated Size | 53 bytes |
| Instructions    | 15       |

```
      00 01 02 03 04 05 06 07  08 09 0A 0B 0C 0D 0E 0F
      -- -- -- -- -- -- -- --  -- -- -- -- -- -- -- --
0BF0: 20 01 24 1A 80 01 80 02  80 25 02 00 10 02 80 00   .$......%......
0C00: 16 0C 42 43 00 43 01 03  01 10 01 80 29 01 F0 FF  ..BC.C......)...
0C10: FF 7F 13 01 21 0C 02 00  10 01 80 00 21 0C 01 21  ....!.......!..!
0C20: 0C 20 00 21 00                                    . .!.           
```

## Opcodes

```
  0: 0x0BF0 [0x20] SET_CLI_EVENT_UC_FLAG: Lock player control
  1: 0x0BF2 [0x24] CREATE_DIALOG(message_id=7229*, default_option=1*, option_flags=0*)
    → "Leave Promyvion?\u0007\u000BYes.\u0007No.\u007F1\u0000\u0007"
  2: 0x0BF9 [0x25] WAIT_DIALOG_SELECT()
  3: 0x0BFA [0x02] IF !(Work_Zone[0] == 0*) GOTO 0x0C16
  4: 0x0C02 [0x42] SET_CLI_EVENT_CANCEL_DATA()
  5: 0x0C03 [0x43] SEND_EVENT_UPDATE: Send pending tag to server (packet 0x005B)
  6: 0x0C05 [0x43] SEND_EVENT_UPDATE: Check pending flag (skip if not pending)
  7: 0x0C07 [0x03] Work_Zone[1] = 1*
  8: 0x0C0C [0x29] REQ_SET_WAIT(priority=0x01, entity_id=LocalPlayer, tag_num=0x13)
  9: 0x0C13 [0x01] GOTO 0x0C21
 10: 0x0C16 [0x02] IF !(Work_Zone[0] == 1*) GOTO 0x0C21
 11: 0x0C1E [0x01] GOTO 0x0C21

SUBROUTINE_0C21:
 12: 0x0C21 [0x20] SET_CLI_EVENT_UC_FLAG: Unlock player control
 13: 0x0C23 [0x21] END_EVENT
 14: 0x0C24 [0x00] END_REQSTACK()
```
