# Event 65535

## Metadata

| Field           | Value    |
|-----------------|----------|
| Event Index     | 16/16    |
| Offset          | 0x0151   |
| Data Size       | 70 bytes |
| Calculated Size | 70 bytes |
| Instructions    | 15       |

```
      00 01 02 03 04 05 06 07  08 09 0A 0B 0C 0D 0E 0F
      -- -- -- -- -- -- -- --  -- -- -- -- -- -- -- --
0150:    59 04 F8 FF FF 7F 2E  80 1F 00 2F 80 30 80 2B   Y........./.0.+
0160: 80 1F 01 1F 00 31 80 32  80 2B 80 1F 01 1F 00 33  .....1.2.+.....3
0170: 80 34 80 2B 80 1F 01 1F  00 35 80 36 80 2B 80 1F  .4.+.....5.6.+..
0180: 01 1F 00 37 80 38 80 14  80 1F 01 1F 00 39 80 3A  ...7.8.......9.:
0190: 80 14 80 1F 01 6F 00                              .....o.         
```

## Opcodes

```
  0: 0x0151 [0x59] UPDATE_ENTITY_DATA: Set EventEntity main speed = 15* * 0.1
  1: 0x0159 [0x1F] MOVE_ENTITY: EventEntity moves to X=3.147*, Z=48.267*, Y=-1.000*
  2: 0x0161 [0x1F] MOVE_ENTITY: Update entity position (mode=1)
  3: 0x0163 [0x1F] MOVE_ENTITY: EventEntity moves to X=0.600*, Z=46.702*, Y=-1.000*
  4: 0x016B [0x1F] MOVE_ENTITY: Update entity position (mode=1)
  5: 0x016D [0x1F] MOVE_ENTITY: EventEntity moves to X=-7.165*, Z=42.103*, Y=-1.000*
  6: 0x0175 [0x1F] MOVE_ENTITY: Update entity position (mode=1)
  7: 0x0177 [0x1F] MOVE_ENTITY: EventEntity moves to X=-13.731*, Z=40.612*, Y=-1.000*
  8: 0x017F [0x1F] MOVE_ENTITY: Update entity position (mode=1)
  9: 0x0181 [0x1F] MOVE_ENTITY: EventEntity moves to X=-28.406*, Z=41.015*, Y=-3.499*
 10: 0x0189 [0x1F] MOVE_ENTITY: Update entity position (mode=1)
 11: 0x018B [0x1F] MOVE_ENTITY: EventEntity moves to X=-42.495*, Z=43.396*, Y=-3.499*
 12: 0x0193 [0x1F] MOVE_ENTITY: Update entity position (mode=1)
 13: 0x0195 [0x6F] WAIT_FRAME_DELAY: Yield until WaitTime reaches zero
 14: 0x0196 [0x00] END_REQSTACK()
```
