# Event 522

## Metadata

| Field           | Value    |
|-----------------|----------|
| Event Index     | 5/14     |
| Offset          | 0x0009   |
| Data Size       | 54 bytes |
| Calculated Size | 54 bytes |
| Instructions    | 14       |

```
      00 01 02 03 04 05 06 07  08 09 0A 0B 0C 0D 0E 0F
      -- -- -- -- -- -- -- --  -- -- -- -- -- -- -- --
0000:                             1E F0 FF FF 7F 6F 70           .....op
0010: 66 00 80 0E 80 0E 01 0E  80 0E 01 74 6C 6B 30 1D  f..........tlk0.
0020: 01 80 23 1C 00 80 1D 02  80 23 5E 69 64 6C 30 1C  ..#......#^idl0.
0030: 00 80 21 00 03 02 10 03  80 03 03 10 04 80 1B     ..!............ 
```

## Opcodes

```
  0: 0x0009 [0x1E] EventEntity looks at LocalPlayer and starts talking
  1: 0x000E [0x6F] WAIT_FRAME_DELAY: Yield until WaitTime reaches zero
  2: 0x000F [0x70] WAIT_ENTITY_RENDER_FLAG: Wait while EventEntity->Render.Flags3 bit 2 is set (cancel turn if not)
  3: 0x0010 [0x66] LOAD_EXT_SCHEDULER_MAIN(work_offset=30*, entity1=Nogelle (ID: 17727502/0x010E800E), entity2=Nogelle (ID: 17727502/0x010E800E), action="tlk0")
  4: 0x001F [0x1D] PRINT_EVENT_MESSAGE(message_id=7455*)
    → "Welcome travelers! Come on in! Try the best beans in town!\u007F1\u0000\u0007"
  5: 0x0022 [0x23] WAIT_FOR_DIALOG_INTERACTION
  6: 0x0023 [0x1C] WAIT(30* ticks)
  7: 0x0026 [0x1D] PRINT_EVENT_MESSAGE(message_id=7456*)
    → "Try our famous bean cuisine, satisfaction guaranteed!\u007F1\u0000\u0007"
  8: 0x0029 [0x23] WAIT_FOR_DIALOG_INTERACTION
  9: 0x002A [0x5E] EventEntity goes idle (kills current action) (animation: "idl0")
 10: 0x002F [0x1C] WAIT(30* ticks)
 11: 0x0032 [0x21] END_EVENT
 12: 0x0033 [0x00] END_REQSTACK()
```

## Data or dead code:

```
# Data Section: 0x0034 (11 bytes)
     0x0034: 03 02 10 03 80 03 03 10 04 80 1B
```