# Event 654

## Metadata

| Field           | Value    |
|-----------------|----------|
| Event Index     | 16/92    |
| Offset          | 0x00DE   |
| Data Size       | 37 bytes |
| Calculated Size | 37 bytes |
| Instructions    | 11       |

```
      00 01 02 03 04 05 06 07  08 09 0A 0B 0C 0D 0E 0F
      -- -- -- -- -- -- -- --  -- -- -- -- -- -- -- --
00D0:                                            20 01                 .
00E0: 4A ED 01 05 01 F0 FF FF  7F 6F 76 ED 01 05 01 2B  J........ov....+
00F0: ED 01 05 01 0D 80 23 2B  ED 01 05 01 0E 80 23 20  ......#+......# 
0100: 00 21 00                                          .!.             
```

## Opcodes

```
  0: 0x00DE [0x20] SET_CLI_EVENT_UC_FLAG: Lock player control
  1: 0x00E0 [0x4A] Rongelouts N Distaud (ID: 17105389/0x010501ED) looks at LocalPlayer
  2: 0x00E9 [0x6F] WAIT_FRAME_DELAY: Yield until WaitTime reaches zero
  3: 0x00EA [0x76] CHECK_ENTITY_RENDER_FLAGS: Wait until Rongelouts N Distaud (ID: 17105389/0x010501ED) Render.Flags0 and Render.Flags3 conditions are met
  4: 0x00EF [0x2B] Rongelouts N Distaud (ID: 17105389/0x010501ED) [12298*]:
    → "All communication with the Marquisate has ceased since that unexplained occurrence...\u007F1\u0000\u0007"
  5: 0x00F6 [0x23] WAIT_FOR_DIALOG_INTERACTION
  6: 0x00F7 [0x2B] Rongelouts N Distaud (ID: 17105389/0x010501ED) [12299*]:
    → "Confound it! Had only we conclusive evidence, I would have stopped at nothing to prevent him from continuing on to Tavnazia!\u007F1\u0000\u0007"
  7: 0x00FE [0x23] WAIT_FOR_DIALOG_INTERACTION
  8: 0x00FF [0x20] SET_CLI_EVENT_UC_FLAG: Unlock player control
  9: 0x0101 [0x21] END_EVENT
 10: 0x0102 [0x00] END_REQSTACK()
```
