# Event 65535

## Metadata

| Field           | Value    |
|-----------------|----------|
| Event Index     | 44/92    |
| Offset          | 0x0298   |
| Data Size       | 69 bytes |
| Calculated Size | 69 bytes |
| Instructions    | 14       |

```
      00 01 02 03 04 05 06 07  08 09 0A 0B 0C 0D 0E 0F
      -- -- -- -- -- -- -- --  -- -- -- -- -- -- -- --
0290:                          7B F8 FF FF 7F 59 04 F8          {....Y..
02A0: FF FF 7F 07 80 1F 00 43  80 44 80 15 80 1F 01 1F  .......C.D......
02B0: 00 45 80 46 80 47 80 1F  01 1F 00 48 80 49 80 2F  .E.F.G.....H.I./
02C0: 80 1F 01 1F 00 4A 80 4B  80 2C 80 1F 01 6F 4A F8  .....J.K.,...oJ.
02D0: FF FF 7F AE 02 05 01 7B  F8 FF FF 7F 00           .......{.....   
```

## Opcodes

```
  0: 0x0298 [0x7B] EventEntity stops talking
  1: 0x029D [0x59] UPDATE_ENTITY_DATA: Set EventEntity main speed = 13* * 0.1
  2: 0x02A5 [0x1F] MOVE_ENTITY: EventEntity moves to X=89.928*, Z=112.069*, Y=0.000*
  3: 0x02AD [0x1F] MOVE_ENTITY: Update entity position (mode=1)
  4: 0x02AF [0x1F] MOVE_ENTITY: EventEntity moves to X=89.027*, Z=117.199*, Y=0.750*
  5: 0x02B7 [0x1F] MOVE_ENTITY: Update entity position (mode=1)
  6: 0x02B9 [0x1F] MOVE_ENTITY: EventEntity moves to X=88.920*, Z=117.934*, Y=0.999*
  7: 0x02C1 [0x1F] MOVE_ENTITY: Update entity position (mode=1)
  8: 0x02C3 [0x1F] MOVE_ENTITY: EventEntity moves to X=89.319*, Z=119.738*, Y=1.000*
  9: 0x02CB [0x1F] MOVE_ENTITY: Update entity position (mode=1)
 10: 0x02CD [0x6F] WAIT_FRAME_DELAY: Yield until WaitTime reaches zero
 11: 0x02CE [0x4A] EventEntity looks at Vestillet (ID: 17105582/0x010502AE)
 12: 0x02D7 [0x7B] EventEntity stops talking
 13: 0x02DC [0x00] END_REQSTACK()
```
