# Event 65535

## Metadata

| Field           | Value    |
|-----------------|----------|
| Event Index     | 48/92    |
| Offset          | 0x0302   |
| Data Size       | 58 bytes |
| Calculated Size | 58 bytes |
| Instructions    | 14       |

```
      00 01 02 03 04 05 06 07  08 09 0A 0B 0C 0D 0E 0F
      -- -- -- -- -- -- -- --  -- -- -- -- -- -- -- --
0300:       1C 4F 80 1C 50 80  6E 0E 03 05 01 51 80 99    .O..P.n....Q..
0310: 0E 03 05 01 1C 30 80 6E  12 03 05 01 51 80 99 12  .....0.n....Q...
0320: 03 05 01 1C 52 80 1C 53  80 6E 18 03 05 01 54 80  ....R..S.n....T.
0330: 99 18 03 05 01 1C 55 80  1C 4F 80 00              ......U..O..    
```

## Opcodes

```
  0: 0x0302 [0x1C] WAIT(180* ticks)
  1: 0x0305 [0x1C] WAIT(30* ticks)
  2: 0x0308 [0x6E] Leonoyne (ID: 17105678/0x0105030E) uses emote 7*
  3: 0x030F [0x99] Wait for Leonoyne (ID: 17105678/0x0105030E) animation to complete
  4: 0x0314 [0x1C] WAIT(60* ticks)
  5: 0x0317 [0x6E] Febrenard C Brunnaut (ID: 17105682/0x01050312) uses emote 7*
  6: 0x031E [0x99] Wait for Febrenard C Brunnaut (ID: 17105682/0x01050312) animation to complete
  7: 0x0323 [0x1C] WAIT(90* ticks)
  8: 0x0326 [0x1C] WAIT(80* ticks)
  9: 0x0329 [0x6E] 04 (ID: 17105688/0x01050318) uses emote 36*
 10: 0x0330 [0x99] Wait for 04 (ID: 17105688/0x01050318) animation to complete
 11: 0x0335 [0x1C] WAIT(100* ticks)
 12: 0x0338 [0x1C] WAIT(180* ticks)
 13: 0x033B [0x00] END_REQSTACK()
```
