# Event 65535

## Metadata

| Field           | Value    |
|-----------------|----------|
| Event Index     | 18/30    |
| Offset          | 0x00F3   |
| Data Size       | 67 bytes |
| Calculated Size | 67 bytes |
| Instructions    | 13       |

```
      00 01 02 03 04 05 06 07  08 09 0A 0B 0C 0D 0E 0F
      -- -- -- -- -- -- -- --  -- -- -- -- -- -- -- --
00F0:          6E C0 32 03 01  12 80 99 C0 32 03 01 1C     n.2......2...
0100: 1C 80 5B 1F 80 C1 32 03  01 C1 32 03 01 69 72 6F  ..[...2...2..iro
0110: 30 1C 20 80 1C 1C 80 1C  1D 80 6E C2 32 03 01 21  0. .......n.2..!
0120: 80 99 C2 32 03 01 1C 1E  80 6E C3 32 03 01 12 80  ...2.....n.2....
0130: 99 C3 32 03 01 00                                 ..2...          
```

## Opcodes

```
  0: 0x00F3 [0x6E] FAN3 (ID: 16986816/0x010332C0) uses emote 11*
  1: 0x00FA [0x99] Wait for FAN3 (ID: 16986816/0x010332C0) animation to complete
  2: 0x00FF [0x1C] WAIT(3* ticks)
  3: 0x0102 [0x5B] LOAD_EXT_SCHEDULER: Load scheduler "iro0" with entities [FAN4 (ID: 16986817/0x010332C1), FAN4 (ID: 16986817/0x010332C1)], work=1328*
  4: 0x0111 [0x1C] WAIT(4* ticks)
  5: 0x0114 [0x1C] WAIT(3* ticks)
  6: 0x0117 [0x1C] WAIT(2* ticks)
  7: 0x011A [0x6E] FAN7 (ID: 16986818/0x010332C2) uses emote 8*
  8: 0x0121 [0x99] Wait for FAN7 (ID: 16986818/0x010332C2) animation to complete
  9: 0x0126 [0x1C] WAIT(5* ticks)
 10: 0x0129 [0x6E] FAN8 (ID: 16986819/0x010332C3) uses emote 11*
 11: 0x0130 [0x99] Wait for FAN8 (ID: 16986819/0x010332C3) animation to complete
 12: 0x0135 [0x00] END_REQSTACK()
```
