# Event 678

## Metadata

| Field           | Value    |
|-----------------|----------|
| Event Index     | 3/8      |
| Offset          | 0x013B   |
| Data Size       | 46 bytes |
| Calculated Size | 46 bytes |
| Instructions    | 11       |

```
      00 01 02 03 04 05 06 07  08 09 0A 0B 0C 0D 0E 0F
      -- -- -- -- -- -- -- --  -- -- -- -- -- -- -- --
0130:                                   42 1E F0 FF FF             B....
0140: 7F 6F 70 66 00 80 F8 FF  FF 7F F8 FF FF 7F 74 6C  .opf..........tl
0150: 6B 30 1D 0E 80 23 66 00  80 F8 FF FF 7F F8 FF FF  k0...#f.........
0160: 7F 74 6C 6B 31 20 00 21  00                       .tlk1 .!.       
```

## Opcodes

```
  0: 0x013B [0x42] SET_CLI_EVENT_CANCEL_DATA()
  1: 0x013C [0x1E] EventEntity looks at LocalPlayer and starts talking
  2: 0x0141 [0x6F] WAIT_FRAME_DELAY: Yield until WaitTime reaches zero
  3: 0x0142 [0x70] WAIT_ENTITY_RENDER_FLAG: Wait while EventEntity->Render.Flags3 bit 2 is set (cancel turn if not)
  4: 0x0143 [0x66] LOAD_EXT_SCHEDULER_MAIN: Load scheduler "tlk0" with entities [EventEntity, EventEntity], work=30*
  5: 0x0152 [0x1D] PRINT_EVENT_MESSAGE(message_id=9278*)
    → "I'm glad they've run out of mulsum--it would completely ruin my diet!\u007F1\u0000\u0007"
  6: 0x0155 [0x23] WAIT_FOR_DIALOG_INTERACTION
  7: 0x0156 [0x66] LOAD_EXT_SCHEDULER_MAIN: Load scheduler "tlk1" with entities [EventEntity, EventEntity], work=30*
  8: 0x0165 [0x20] SET_CLI_EVENT_UC_FLAG: Unlock player control
  9: 0x0167 [0x21] END_EVENT
 10: 0x0168 [0x00] END_REQSTACK()
```
