# Event 679

## Metadata

| Field           | Value    |
|-----------------|----------|
| Event Index     | 4/8      |
| Offset          | 0x0169   |
| Data Size       | 46 bytes |
| Calculated Size | 46 bytes |
| Instructions    | 11       |

```
      00 01 02 03 04 05 06 07  08 09 0A 0B 0C 0D 0E 0F
      -- -- -- -- -- -- -- --  -- -- -- -- -- -- -- --
0160:                             42 1E F0 FF FF 7F 6F           B.....o
0170: 70 66 00 80 F8 FF FF 7F  F8 FF FF 7F 74 6C 6B 30  pf..........tlk0
0180: 1D 0F 80 23 66 00 80 F8  FF FF 7F F8 FF FF 7F 74  ...#f..........t
0190: 6C 6B 31 20 00 21 00                              lk1 .!.         
```

## Opcodes

```
  0: 0x0169 [0x42] SET_CLI_EVENT_CANCEL_DATA()
  1: 0x016A [0x1E] EventEntity looks at LocalPlayer and starts talking
  2: 0x016F [0x6F] WAIT_FRAME_DELAY: Yield until WaitTime reaches zero
  3: 0x0170 [0x70] WAIT_ENTITY_RENDER_FLAG: Wait while EventEntity->Render.Flags3 bit 2 is set (cancel turn if not)
  4: 0x0171 [0x66] LOAD_EXT_SCHEDULER_MAIN(work_offset=30*, entity1=EventEntity, entity2=EventEntity, action="tlk0")
  5: 0x0180 [0x1D] PRINT_EVENT_MESSAGE(message_id=9291*)
    → "Rojaireaut, our V.E.R.M.I.N. agent in the field, will be waiting with further instructions in the caves.\u007F1\u0000\u0007"
  6: 0x0183 [0x23] WAIT_FOR_DIALOG_INTERACTION
  7: 0x0184 [0x66] LOAD_EXT_SCHEDULER_MAIN(work_offset=30*, entity1=EventEntity, entity2=EventEntity, action="tlk1")
  8: 0x0193 [0x20] SET_CLI_EVENT_UC_FLAG: Unlock player control
  9: 0x0195 [0x21] END_EVENT
 10: 0x0196 [0x00] END_REQSTACK()
```
