# Event 680

## Metadata

| Field           | Value    |
|-----------------|----------|
| Event Index     | 5/8      |
| Offset          | 0x0197   |
| Data Size       | 46 bytes |
| Calculated Size | 46 bytes |
| Instructions    | 11       |

```
      00 01 02 03 04 05 06 07  08 09 0A 0B 0C 0D 0E 0F
      -- -- -- -- -- -- -- --  -- -- -- -- -- -- -- --
0190:                      42  1E F0 FF FF 7F 6F 70 66         B.....opf
01A0: 00 80 F8 FF FF 7F F8 FF  FF 7F 74 6C 6B 30 1D 0E  ..........tlk0..
01B0: 80 23 66 00 80 F8 FF FF  7F F8 FF FF 7F 74 6C 6B  .#f..........tlk
01C0: 31 20 00 21 00                                    1 .!.           
```

## Opcodes

```
  0: 0x0197 [0x42] SET_CLI_EVENT_CANCEL_DATA()
  1: 0x0198 [0x1E] EventEntity looks at LocalPlayer and starts talking
  2: 0x019D [0x6F] WAIT_FRAME_DELAY: Yield until WaitTime reaches zero
  3: 0x019E [0x70] WAIT_ENTITY_RENDER_FLAG: Wait while EventEntity->Render.Flags3 bit 2 is set (cancel turn if not)
  4: 0x019F [0x66] LOAD_EXT_SCHEDULER_MAIN(work_offset=30*, entity1=EventEntity, entity2=EventEntity, action="tlk0")
  5: 0x01AE [0x1D] PRINT_EVENT_MESSAGE(message_id=9278*)
    → "I'm glad they've run out of mulsum--it would completely ruin my diet!\u007F1\u0000\u0007"
  6: 0x01B1 [0x23] WAIT_FOR_DIALOG_INTERACTION
  7: 0x01B2 [0x66] LOAD_EXT_SCHEDULER_MAIN(work_offset=30*, entity1=EventEntity, entity2=EventEntity, action="tlk1")
  8: 0x01C1 [0x20] SET_CLI_EVENT_UC_FLAG: Unlock player control
  9: 0x01C3 [0x21] END_EVENT
 10: 0x01C4 [0x00] END_REQSTACK()
```
