# Event 125

## Metadata

| Field           | Value    |
|-----------------|----------|
| Event Index     | 23/41    |
| Offset          | 0x017A   |
| Data Size       | 33 bytes |
| Calculated Size | 33 bytes |
| Instructions    | 12       |

```
      00 01 02 03 04 05 06 07  08 09 0A 0B 0C 0D 0E 0F
      -- -- -- -- -- -- -- --  -- -- -- -- -- -- -- --
0170:                                1D 04 80 23 1E F0            ...#..
0180: FF FF 7F 6F 70 29 08 42  A0 0F 01 13 1D 05 80 23  ...op).B.......#
0190: 29 08 42 A0 0F 01 14 20  00 21 00                 ).B.... .!.     
```

## Opcodes

```
  0: 0x017A [0x1D] PRINT_EVENT_MESSAGE(message_id=10177*)
    → "...\u007F1\u0000\u0007"
  1: 0x017D [0x23] WAIT_FOR_DIALOG_INTERACTION
  2: 0x017E [0x1E] EventEntity looks at LocalPlayer and starts talking
  3: 0x0183 [0x6F] WAIT_FRAME_DELAY: Yield until WaitTime reaches zero
  4: 0x0184 [0x70] WAIT_ENTITY_RENDER_FLAG: Wait while EventEntity->Render.Flags3 bit 2 is set (cancel turn if not)
  5: 0x0185 [0x29] REQ_SET_WAIT(priority=0x08, entity_id=Mhebi Juhbily (ID: 17801282/0x010FA042), tag_num=0x13)
  6: 0x018C [0x1D] PRINT_EVENT_MESSAGE(message_id=10178*)
    → "You still herrre? Why don't you just get out of my face and let me sulk in peace!?\u007F1\u0000\u0007"
  7: 0x018F [0x23] WAIT_FOR_DIALOG_INTERACTION
  8: 0x0190 [0x29] REQ_SET_WAIT(priority=0x08, entity_id=Mhebi Juhbily (ID: 17801282/0x010FA042), tag_num=0x14)
  9: 0x0197 [0x20] SET_CLI_EVENT_UC_FLAG: Unlock player control
 10: 0x0199 [0x21] END_EVENT
 11: 0x019A [0x00] END_REQSTACK()
```
