# Event 77

## Metadata

| Field           | Value    |
|-----------------|----------|
| Event Index     | 11/15    |
| Offset          | 0x00F6   |
| Data Size       | 48 bytes |
| Calculated Size | 48 bytes |
| Instructions    | 10       |

```
      00 01 02 03 04 05 06 07  08 09 0A 0B 0C 0D 0E 0F
      -- -- -- -- -- -- -- --  -- -- -- -- -- -- -- --
00F0:                   1E F0  FF FF 7F 6F 70 5B 00 80        .....op[..
0100: F8 FF FF 7F F8 FF FF 7F  74 6C 6B 30 03 02 10 16  ........tlk0....
0110: 80 1D 19 80 23 5B 00 80  F8 FF FF 7F F8 FF FF 7F  ....#[..........
0120: 74 6C 6B 31 21 00                                 tlk1!.          
```

## Opcodes

```
  0: 0x00F6 [0x1E] EventEntity looks at LocalPlayer and starts talking
  1: 0x00FB [0x6F] WAIT_FRAME_DELAY: Yield until WaitTime reaches zero
  2: 0x00FC [0x70] WAIT_ENTITY_RENDER_FLAG: Wait while EventEntity->Render.Flags3 bit 2 is set (cancel turn if not)
  3: 0x00FD [0x5B] LOAD_EXT_SCHEDULER: Load scheduler "tlk0" with entities [EventEntity, EventEntity], work=75*
  4: 0x010C [0x03] Work_Zone[2] = 2384*
  5: 0x0111 [0x1D] PRINT_EVENT_MESSAGE(message_id=8128*)
    → "All I need is \u0001\u00056\u0002\u0000\u0000\u0000. Please?\u007F1\u0000\u0007"
  6: 0x0114 [0x23] WAIT_FOR_DIALOG_INTERACTION
  7: 0x0115 [0x5B] LOAD_EXT_SCHEDULER: Load scheduler "tlk1" with entities [EventEntity, EventEntity], work=75*
  8: 0x0124 [0x21] END_EVENT
  9: 0x0125 [0x00] END_REQSTACK()
```
