# Event 251

## Metadata

| Field           | Value    |
|-----------------|----------|
| Event Index     | 3/7      |
| Offset          | 0x0101   |
| Data Size       | 53 bytes |
| Calculated Size | 53 bytes |
| Instructions    | 14       |

```
      00 01 02 03 04 05 06 07  08 09 0A 0B 0C 0D 0E 0F
      -- -- -- -- -- -- -- --  -- -- -- -- -- -- -- --
0100:    1E F0 FF FF 7F 1C 01  80 66 02 80 F8 FF FF 7F   ........f......
0110: F8 FF FF 7F 74 6C 6B 30  1D 12 80 23 02 02 10 00  ....tlk0...#....
0120: 80 00 30 01 03 02 10 0C  80 1D 13 80 23 01 34 01  ..0.........#.4.
0130: 1D 14 80 23 21 00                                 ...#!.          
```

## Opcodes

```
  0: 0x0101 [0x1E] EventEntity looks at LocalPlayer and starts talking
  1: 0x0106 [0x1C] WAIT(30* ticks)
  2: 0x0109 [0x66] LOAD_EXT_SCHEDULER_MAIN: Load scheduler "tlk0" with entities [EventEntity, EventEntity], work=20*
  3: 0x0118 [0x1D] PRINT_EVENT_MESSAGE(message_id=8150*)
    → "The Teekesselchen is often seen prowling the area northwest of here.\u007F1\u0000\u0007"
  4: 0x011B [0x23] WAIT_FOR_DIALOG_INTERACTION
  5: 0x011C [0x02] IF !(Work_Zone[2] == 0*) GOTO 0x0130
  6: 0x0124 [0x03] Work_Zone[2] = 5445*
  7: 0x0129 [0x1D] PRINT_EVENT_MESSAGE(message_id=8151*)
    → "Your task is straightforward: defeat the beast with the aid of \u0001\u0005#\u0002\u0000\u0000\u0000.\u007F1\u0000\u0007"
  8: 0x012C [0x23] WAIT_FOR_DIALOG_INTERACTION
  9: 0x012D [0x01] GOTO 0x0134
 10: 0x0130 [0x1D] PRINT_EVENT_MESSAGE(message_id=8163*)
    → "Good luck, friend. I keenly await the inspiring details of your victory.\u007F1\u0000\u0007"
 11: 0x0133 [0x23] WAIT_FOR_DIALOG_INTERACTION
 12: 0x0134 [0x21] END_EVENT
 13: 0x0135 [0x00] END_REQSTACK()
```
