# Event 254

## Metadata

| Field           | Value    |
|-----------------|----------|
| Event Index     | 4/7      |
| Offset          | 0x0136   |
| Data Size       | 43 bytes |
| Calculated Size | 43 bytes |
| Instructions    | 11       |

```
      00 01 02 03 04 05 06 07  08 09 0A 0B 0C 0D 0E 0F
      -- -- -- -- -- -- -- --  -- -- -- -- -- -- -- --
0130:                   1E F0  FF FF 7F 1C 01 80 66 02        ........f.
0140: 80 F8 FF FF 7F F8 FF FF  7F 74 6C 6B 30 03 02 10  .........tlk0...
0150: 0C 80 1D 15 80 23 03 02  10 8B 7F 1D 16 80 23 21  .....#........#!
0160: 00                                                .               
```

## Opcodes

```
  0: 0x0136 [0x1E] EventEntity looks at LocalPlayer and starts talking
  1: 0x013B [0x1C] WAIT(30* ticks)
  2: 0x013E [0x66] LOAD_EXT_SCHEDULER_MAIN(work_offset=20*, entity1=EventEntity, entity2=EventEntity, action="tlk0")
  3: 0x014D [0x03] Work_Zone[2] = 5445*
  4: 0x0152 [0x1D] PRINT_EVENT_MESSAGE(message_id=8152*)
    → "Misplaced the \u0001\u0005#\u0002\u0000\u0000\u0000, you say?\u007F1\u0000\u0007"
  5: 0x0155 [0x23] WAIT_FOR_DIALOG_INTERACTION
  6: 0x0156 [0x03] Work_Zone[2] = (LocalPlayer->Render.Flags01 >> 25) & 1
  7: 0x015B [0x1D] PRINT_EVENT_MESSAGE(message_id=8153*)
    → "I will give you this replacement, but know that the draught can only be procured at great personal cost to myself.\u0007I must ask you to practice more caution in the future.\u007F1\u0000\u0007"
  8: 0x015E [0x23] WAIT_FOR_DIALOG_INTERACTION
  9: 0x015F [0x21] END_EVENT
 10: 0x0160 [0x00] END_REQSTACK()
```
