# Event 105

## Metadata

| Field           | Value    |
|-----------------|----------|
| Event Index     | 4/14     |
| Offset          | 0x000B   |
| Data Size       | 63 bytes |
| Calculated Size | 63 bytes |
| Instructions    | 15       |

```
      00 01 02 03 04 05 06 07  08 09 0A 0B 0C 0D 0E 0F
      -- -- -- -- -- -- -- --  -- -- -- -- -- -- -- --
0000:                                   46 01 42 20 01             F.B .
0010: 4C 1C 02 80 45 03 80 F8  FF FF 7F F8 FF FF 7F 66  L...E..........f
0020: 64 6F 31 04 80 1C 02 80  29 0B F0 FF FF 7F 26 4D  do1.....).....&M
0030: 1C 01 80 46 00 45 03 80  F8 FF FF 7F F8 FF FF 7F  ...F.E..........
0040: 66 64 69 31 04 80 20 00  21 00                    fdi1.. .!.      
```

## Opcodes

```
  0: 0x000B [0x46] CAMERA_CONTROL: Disable user control
  1: 0x000D [0x42] SET_CLI_EVENT_CANCEL_DATA()
  2: 0x000E [0x20] SET_CLI_EVENT_UC_FLAG: Lock player control
  3: 0x0010 [0x4C] EventEntity->StatusEvent = 8 // Open door
  4: 0x0011 [0x1C] WAIT(60* ticks)
  5: 0x0014 [0x45] LOAD_SCHEDULED_TASK(work_offset1=200*, entity1=EventEntity, entity2=EventEntity, scheduler_id="fdo1", work_offset2=0*)
  6: 0x0025 [0x1C] WAIT(60* ticks)
  7: 0x0028 [0x29] REQ_SET_WAIT(priority=0x0B, entity_id=LocalPlayer, tag_num=0x26)
  8: 0x002F [0x4D] EventEntity->StatusEvent = 9 // Close door
  9: 0x0030 [0x1C] WAIT(80* ticks)
 10: 0x0033 [0x46] CAMERA_CONTROL: Restore default settings
 11: 0x0035 [0x45] LOAD_SCHEDULED_TASK(work_offset1=200*, entity1=EventEntity, entity2=EventEntity, scheduler_id="fdi1", work_offset2=0*)
 12: 0x0046 [0x20] SET_CLI_EVENT_UC_FLAG: Unlock player control
 13: 0x0048 [0x21] END_EVENT
 14: 0x0049 [0x00] END_REQSTACK()
```
