# Event 106

## Metadata

| Field           | Value    |
|-----------------|----------|
| Event Index     | 5/14     |
| Offset          | 0x004A   |
| Data Size       | 63 bytes |
| Calculated Size | 63 bytes |
| Instructions    | 15       |

```
      00 01 02 03 04 05 06 07  08 09 0A 0B 0C 0D 0E 0F
      -- -- -- -- -- -- -- --  -- -- -- -- -- -- -- --
0040:                                46 01 42 20 01 4C            F.B .L
0050: 1C 02 80 45 03 80 F8 FF  FF 7F F8 FF FF 7F 66 64  ...E..........fd
0060: 6F 31 04 80 1C 02 80 29  0B F0 FF FF 7F 27 4D 1C  o1.....).....'M.
0070: 01 80 46 00 45 03 80 F8  FF FF 7F F8 FF FF 7F 66  ..F.E..........f
0080: 64 69 31 04 80 20 00 21  00                       di1.. .!.       
```

## Opcodes

```
  0: 0x004A [0x46] CAMERA_CONTROL: Disable user control
  1: 0x004C [0x42] SET_CLI_EVENT_CANCEL_DATA()
  2: 0x004D [0x20] SET_CLI_EVENT_UC_FLAG: Lock player control
  3: 0x004F [0x4C] EventEntity->StatusEvent = 8 // Open door
  4: 0x0050 [0x1C] WAIT(60* ticks)
  5: 0x0053 [0x45] LOAD_SCHEDULED_TASK: Load scheduler "fdo1" with entities [EventEntity, EventEntity], work=[200*, 0*]
  6: 0x0064 [0x1C] WAIT(60* ticks)
  7: 0x0067 [0x29] REQ_SET_WAIT(priority=0x0B, entity_id=LocalPlayer, tag_num=0x27)
  8: 0x006E [0x4D] EventEntity->StatusEvent = 9 // Close door
  9: 0x006F [0x1C] WAIT(80* ticks)
 10: 0x0072 [0x46] CAMERA_CONTROL: Restore default settings
 11: 0x0074 [0x45] LOAD_SCHEDULED_TASK: Load scheduler "fdi1" with entities [EventEntity, EventEntity], work=[200*, 0*]
 12: 0x0085 [0x20] SET_CLI_EVENT_UC_FLAG: Unlock player control
 13: 0x0087 [0x21] END_EVENT
 14: 0x0088 [0x00] END_REQSTACK()
```
