# Event 65535

## Metadata

| Field           | Value    |
|-----------------|----------|
| Event Index     | 11/28    |
| Offset          | 0x006D   |
| Data Size       | 33 bytes |
| Calculated Size | 33 bytes |
| Instructions    | 8        |

```
      00 01 02 03 04 05 06 07  08 09 0A 0B 0C 0D 0E 0F
      -- -- -- -- -- -- -- --  -- -- -- -- -- -- -- --
0060:                                         59 04 F8               Y..
0070: FF FF 7F 09 80 4B F8 FF  FF 7F 0A 80 6F 76 F8 FF  .....K......ov..
0080: FF 7F 1F 00 0B 80 0C 80  0D 80 1F 01 6F 00        ............o.  
```

## Opcodes

```
  0: 0x006D [0x59] UPDATE_ENTITY_DATA: Set EventEntity main speed = 13* * 0.1
  1: 0x0075 [0x4B] UPDATE_ENTITY_YAW(entity=EventEntity, yaw=0.85°*)
  2: 0x007C [0x6F] WAIT_FRAME_DELAY: Yield until WaitTime reaches zero
  3: 0x007D [0x76] CHECK_ENTITY_RENDER_FLAGS: Wait until EventEntity Render.Flags0 and Render.Flags3 conditions are met
  4: 0x0082 [0x1F] MOVE_ENTITY: EventEntity moves to X=-166.234*, Z=-39.546*, Y=-23.342*
  5: 0x008A [0x1F] MOVE_ENTITY: Update entity position (mode=1)
  6: 0x008C [0x6F] WAIT_FRAME_DELAY: Yield until WaitTime reaches zero
  7: 0x008D [0x00] END_REQSTACK()
```
