# Event 102

## Metadata

| Field           | Value    |
|-----------------|----------|
| Event Index     | 4/8      |
| Offset          | 0x0071   |
| Data Size       | 53 bytes |
| Calculated Size | 53 bytes |
| Instructions    | 12       |

```
      00 01 02 03 04 05 06 07  08 09 0A 0B 0C 0D 0E 0F
      -- -- -- -- -- -- -- --  -- -- -- -- -- -- -- --
0070:    20 01 42 1E F0 FF FF  7F 6F 70 5B 00 80 F8 FF    .B.....op[....
0080: FF 7F F8 FF FF 7F 74 6C  6B 30 1D 0A 80 23 03 01  ......tlk0...#..
0090: 10 0B 80 45 0C 80 F0 FF  FF 7F F0 FF FF 7F 71 73  ...E..........qs
00A0: 74 63 0D 80 21 00                                 tc..!.          
```

## Opcodes

```
  0: 0x0071 [0x20] SET_CLI_EVENT_UC_FLAG: Lock player control
  1: 0x0073 [0x42] SET_CLI_EVENT_CANCEL_DATA()
  2: 0x0074 [0x1E] EventEntity looks at LocalPlayer and starts talking
  3: 0x0079 [0x6F] WAIT_FRAME_DELAY: Yield until WaitTime reaches zero
  4: 0x007A [0x70] WAIT_ENTITY_RENDER_FLAG: Wait while EventEntity->Render.Flags3 bit 2 is set (cancel turn if not)
  5: 0x007B [0x5B] LOAD_EXT_SCHEDULER: Load scheduler "tlk0" with entities [EventEntity, EventEntity], work=65*
  6: 0x008A [0x1D] PRINT_EVENT_MESSAGE(message_id=6965*)
    → "Let's see what you've brought... \u007F\u0000\u0001\u0001\u0005%\u0002\u0001\u0000\u0000, eh? I'll give you 
\u0000 gil for them. Come back when you've dug up some more!\u007F1\u0000\u0007"
  7: 0x008D [0x23] WAIT_FOR_DIALOG_INTERACTION
  8: 0x008E [0x03] Work_Zone[1] = 91*
  9: 0x0093 [0x45] LOAD_SCHEDULED_TASK: Load scheduler "qstc" with entities [LocalPlayer, LocalPlayer], work=[201*, 0*]
 10: 0x00A4 [0x21] END_EVENT
 11: 0x00A5 [0x00] END_REQSTACK()
```
