# Event 105

## Metadata

| Field           | Value    |
|-----------------|----------|
| Event Index     | 6/8      |
| Offset          | 0x00C5   |
| Data Size       | 31 bytes |
| Calculated Size | 31 bytes |
| Instructions    | 10       |

```
      00 01 02 03 04 05 06 07  08 09 0A 0B 0C 0D 0E 0F
      -- -- -- -- -- -- -- --  -- -- -- -- -- -- -- --
00C0:                20 01 42  1E F0 FF FF 7F 6F 70 5B        .B.....op[
00D0: 00 80 F8 FF FF 7F F8 FF  FF 7F 74 6C 6B 30 1D 0F  ..........tlk0..
00E0: 80 23 21 00                                       .#!.            
```

## Opcodes

```
  0: 0x00C5 [0x20] SET_CLI_EVENT_UC_FLAG: Lock player control
  1: 0x00C7 [0x42] SET_CLI_EVENT_CANCEL_DATA()
  2: 0x00C8 [0x1E] EventEntity looks at LocalPlayer and starts talking
  3: 0x00CD [0x6F] WAIT_FRAME_DELAY: Yield until WaitTime reaches zero
  4: 0x00CE [0x70] WAIT_ENTITY_RENDER_FLAG: Wait while EventEntity->Render.Flags3 bit 2 is set (cancel turn if not)
  5: 0x00CF [0x5B] LOAD_EXT_SCHEDULER(work_offset=65*, entity1=EventEntity, entity2=EventEntity, action="tlk0")
  6: 0x00DE [0x1D] PRINT_EVENT_MESSAGE(message_id=6966*)
    → "Hmm? It seems like you can't carry anything else. Come back when you've lightened your load.\u007F1\u0000\u0007"
  7: 0x00E1 [0x23] WAIT_FOR_DIALOG_INTERACTION
  8: 0x00E2 [0x21] END_EVENT
  9: 0x00E3 [0x00] END_REQSTACK()
```
