# Event 65535

## Metadata

| Field           | Value    |
|-----------------|----------|
| Event Index     | 4/7      |
| Offset          | 0x006E   |
| Data Size       | 57 bytes |
| Calculated Size | 57 bytes |
| Instructions    | 8        |

```
      00 01 02 03 04 05 06 07  08 09 0A 0B 0C 0D 0E 0F
      -- -- -- -- -- -- -- --  -- -- -- -- -- -- -- --
0060:                                            5B 06                [.
0070: 80 3C 42 0A 01 3C 42 0A  01 74 6C 73 31 53 3C 42  .<B..<B..tls1S<B
0080: 0A 01 3C 42 0A 01 74 6C  73 31 59 01 3C 42 0A 01  ..<B..tls1Y.<B..
0090: 02 80 4A 3C 42 0A 01 3F  42 0A 01 7B 3C 42 0A 01  ..J<B..?B..{<B..
00A0: 6F 76 3C 42 0A 01 00                              ov<B...         
```

## Opcodes

```
  0: 0x006E [0x5B] LOAD_EXT_SCHEDULER(work_offset=1272*, entity1=Rahal (ID: 17449532/0x010A423C), entity2=Rahal (ID: 17449532/0x010A423C), action="tls1")
  1: 0x007D [0x53] WAIT_SCHEDULER_TASK(entity1=Rahal (ID: 17449532/0x010A423C), entity2=Rahal (ID: 17449532/0x010A423C), action_id="tls1")
  2: 0x008A [0x59] UPDATE_ENTITY_DATA: Set Rahal (ID: 17449532/0x010A423C) turn speed = 60*
  3: 0x0092 [0x4A] Rahal (ID: 17449532/0x010A423C) looks at Vailanice (ID: 17449535/0x010A423F)
  4: 0x009B [0x7B] Rahal (ID: 17449532/0x010A423C) stops talking
  5: 0x00A0 [0x6F] WAIT_FRAME_DELAY: Yield until WaitTime reaches zero
  6: 0x00A1 [0x76] CHECK_ENTITY_RENDER_FLAGS: Wait until Rahal (ID: 17449532/0x010A423C) Render.Flags0 and Render.Flags3 conditions are met
  7: 0x00A6 [0x00] END_REQSTACK()
```
