# Event 65535

## Metadata

| Field           | Value    |
|-----------------|----------|
| Event Index     | 6/7      |
| Offset          | 0x0109   |
| Data Size       | 60 bytes |
| Calculated Size | 60 bytes |
| Instructions    | 10       |

```
      00 01 02 03 04 05 06 07  08 09 0A 0B 0C 0D 0E 0F
      -- -- -- -- -- -- -- --  -- -- -- -- -- -- -- --
0100:                             59 01 40 42 0A 01 0A           Y.@B...
0110: 80 4B 40 42 0A 01 0B 80  7B 40 42 0A 01 6F 76 40  .K@B....{@B..ov@
0120: 42 0A 01 29 10 40 42 0A  01 08 29 10 40 42 0A 01  B..).@B...).@B..
0130: 09 7A 00 40 42 0A 01 BA  40 42 0A 01 0C 80 0D 80  .z.@B...@B......
0140: 0E 80 0F 80 00                                    .....           
```

## Opcodes

```
  0: 0x0109 [0x59] UPDATE_ENTITY_DATA: Set Thianond (ID: 17449536/0x010A4240) turn speed = 70*
  1: 0x0111 [0x4B] UPDATE_ENTITY_YAW(entity=Thianond (ID: 17449536/0x010A4240), yaw=6.45°*)
  2: 0x0118 [0x7B] Thianond (ID: 17449536/0x010A4240) stops talking
  3: 0x011D [0x6F] WAIT_FRAME_DELAY: Yield until WaitTime reaches zero
  4: 0x011E [0x76] CHECK_ENTITY_RENDER_FLAGS: Wait until Thianond (ID: 17449536/0x010A4240) Render.Flags0 and Render.Flags3 conditions are met
  5: 0x0123 [0x29] REQ_SET_WAIT(priority=0x10, entity_id=Thianond (ID: 17449536/0x010A4240), tag_num=0x08)
  6: 0x012A [0x29] REQ_SET_WAIT(priority=0x10, entity_id=Thianond (ID: 17449536/0x010A4240), tag_num=0x09)
  7: 0x0131 [0x7A] VM_CONTROL: Reset VM for Thianond (ID: 17449536/0x010A4240)
  8: 0x0137 [0xBA] SET_ENTITY_POSITION(entity_id=Thianond (ID: 17449536/0x010A4240), pos_x=-75.679*, pos_z=180.962*, pos_y=-0.078*, direction=176.7°*)
  9: 0x0144 [0x00] END_REQSTACK()
```
