# Event 65535

## Metadata

| Field           | Value    |
|-----------------|----------|
| Event Index     | 7/15     |
| Offset          | 0x0073   |
| Data Size       | 42 bytes |
| Calculated Size | 42 bytes |
| Instructions    | 6        |

```
      00 01 02 03 04 05 06 07  08 09 0A 0B 0C 0D 0E 0F
      -- -- -- -- -- -- -- --  -- -- -- -- -- -- -- --
0070:          9D 03 0B 80 09  00 00 80 9D 03 0B 80 0A     .............
0080: 00 07 80 9D 03 0B 80 0B  00 02 80 9D 03 0B 80 0C  ................
0090: 00 0C 80 37 09 00 0B 00  0A 00 0D 80 00           ...7.........   
```

## Opcodes

```
  0: 0x0073 [0x9D] 0* = Work_Zone[6*][ExtData[1]->WorkLocal[9]] // Via remapped space
  1: 0x007B [0x9D] 1* = Work_Zone[6*][ExtData[1]->WorkLocal[10]] // Via remapped space
  2: 0x0083 [0x9D] 2* = Work_Zone[6*][ExtData[1]->WorkLocal[11]] // Via remapped space
  3: 0x008B [0x9D] 3* = Work_Zone[6*][ExtData[1]->WorkLocal[12]] // Via remapped space
  4: 0x0093 [0x37] UPDATE_EVENT_POSITION_AND_DIR: x=ExtData[1]->WorkLocal[9], z=ExtData[1]->WorkLocal[11], y=ExtData[1]->WorkLocal[10], direction=184.9°*
  5: 0x009C [0x00] END_REQSTACK()
```
