# Event 15

## Metadata

| Field           | Value    |
|-----------------|----------|
| Event Index     | 20/26    |
| Offset          | 0x012F   |
| Data Size       | 46 bytes |
| Calculated Size | 46 bytes |
| Instructions    | 10       |

```
      00 01 02 03 04 05 06 07  08 09 0A 0B 0C 0D 0E 0F
      -- -- -- -- -- -- -- --  -- -- -- -- -- -- -- --
0120:                                               1E                 .
0130: F0 FF FF 7F 6F 70 66 2D  80 F5 20 03 01 F5 20 03  ....opf-.. ... .
0140: 01 74 6C 63 30 1D 2E 80  23 66 2D 80 F5 20 03 01  .tlc0...#f-.. ..
0150: F5 20 03 01 74 6C 63 31  1C 2F 80 21 00           . ..tlc1./.!.   
```

## Opcodes

```
  0: 0x012F [0x1E] EventEntity looks at LocalPlayer and starts talking
  1: 0x0134 [0x6F] WAIT_FRAME_DELAY: Yield until WaitTime reaches zero
  2: 0x0135 [0x70] WAIT_ENTITY_RENDER_FLAG: Wait while EventEntity->Render.Flags3 bit 2 is set (cancel turn if not)
  3: 0x0136 [0x66] LOAD_EXT_SCHEDULER_MAIN(work_offset=66*, entity1=Ahaadah (ID: 16982261/0x010320F5), entity2=Ahaadah (ID: 16982261/0x010320F5), action="tlc0")
  4: 0x0145 [0x1D] PRINT_EVENT_MESSAGE(message_id=4867*)
    → "Meet me at Port Al Zahbi towards the south of town. Tinga spends much of his time there, and a little performance may be enough to draw the attention of our little fugitive.\u007F1\u0000\u0007"
  5: 0x0148 [0x23] WAIT_FOR_DIALOG_INTERACTION
  6: 0x0149 [0x66] LOAD_EXT_SCHEDULER_MAIN(work_offset=66*, entity1=Ahaadah (ID: 16982261/0x010320F5), entity2=Ahaadah (ID: 16982261/0x010320F5), action="tlc1")
  7: 0x0158 [0x1C] WAIT(30* ticks)
  8: 0x015B [0x21] END_EVENT
  9: 0x015C [0x00] END_REQSTACK()
```
