# Event 16

## Metadata

| Field           | Value    |
|-----------------|----------|
| Event Index     | 21/26    |
| Offset          | 0x015D   |
| Data Size       | 46 bytes |
| Calculated Size | 46 bytes |
| Instructions    | 10       |

```
      00 01 02 03 04 05 06 07  08 09 0A 0B 0C 0D 0E 0F
      -- -- -- -- -- -- -- --  -- -- -- -- -- -- -- --
0150:                                         1E F0 FF               ...
0160: FF 7F 6F 70 66 30 80 F5  20 03 01 F5 20 03 01 74  ..opf0.. ... ..t
0170: 6C 6B 30 1D 31 80 23 66  30 80 F5 20 03 01 F5 20  lk0.1.#f0.. ... 
0180: 03 01 74 6C 6B 31 1C 2F  80 21 00                 ..tlk1./.!.     
```

## Opcodes

```
  0: 0x015D [0x1E] EventEntity looks at LocalPlayer and starts talking
  1: 0x0162 [0x6F] WAIT_FRAME_DELAY: Yield until WaitTime reaches zero
  2: 0x0163 [0x70] WAIT_ENTITY_RENDER_FLAG: Wait while EventEntity->Render.Flags3 bit 2 is set (cancel turn if not)
  3: 0x0164 [0x66] LOAD_EXT_SCHEDULER_MAIN(work_offset=20*, entity1=Ahaadah (ID: 16982261/0x010320F5), entity2=Ahaadah (ID: 16982261/0x010320F5), action="tlk0")
  4: 0x0173 [0x1D] PRINT_EVENT_MESSAGE(message_id=4868*)
    → "My apologies. I was accosted by a customer. Tinga should be running around the port somewhere. I shall join you in the chase momentarily.\u007F1\u0000\u0007"
  5: 0x0176 [0x23] WAIT_FOR_DIALOG_INTERACTION
  6: 0x0177 [0x66] LOAD_EXT_SCHEDULER_MAIN(work_offset=20*, entity1=Ahaadah (ID: 16982261/0x010320F5), entity2=Ahaadah (ID: 16982261/0x010320F5), action="tlk1")
  7: 0x0186 [0x1C] WAIT(30* ticks)
  8: 0x0189 [0x21] END_EVENT
  9: 0x018A [0x00] END_REQSTACK()
```
