# Event 41

## Metadata

| Field           | Value    |
|-----------------|----------|
| Event Index     | 7/10     |
| Offset          | 0x06AF   |
| Data Size       | 29 bytes |
| Calculated Size | 29 bytes |
| Instructions    | 11       |

```
      00 01 02 03 04 05 06 07  08 09 0A 0B 0C 0D 0E 0F
      -- -- -- -- -- -- -- --  -- -- -- -- -- -- -- --
06A0:                                               42                 B
06B0: 1E F0 FF FF 7F 1C 00 80  03 02 10 2D 80 03 03 10  ...........-....
06C0: 2E 80 1D 47 80 23 1D 48  80 23 21 00              ...G.#.H.#!.    
```

## Opcodes

```
  0: 0x06AF [0x42] SET_CLI_EVENT_CANCEL_DATA()
  1: 0x06B0 [0x1E] EventEntity looks at LocalPlayer and starts talking
  2: 0x06B5 [0x1C] WAIT(30* ticks)
  3: 0x06B8 [0x03] Work_Zone[2] = 2504*
  4: 0x06BD [0x03] Work_Zone[3] = 2505*
  5: 0x06C2 [0x1D] PRINT_EVENT_MESSAGE(message_id=12789*)
    → "Oof! The weight is incredible! These are exactly what Ghemp wanted. Thank you so much.\u007F1\u0000\u0007"
  6: 0x06C5 [0x23] WAIT_FOR_DIALOG_INTERACTION
  7: 0x06C6 [0x1D] PRINT_EVENT_MESSAGE(message_id=12790*)
    → "I'll deliver them to Ghemp immediately, and accept the reward on your behalf. Be sure to come back to collect it from me in a little while.\u007F1\u0000\u0007"
  8: 0x06C9 [0x23] WAIT_FOR_DIALOG_INTERACTION
  9: 0x06CA [0x21] END_EVENT
 10: 0x06CB [0x00] END_REQSTACK()
```
