# Event 65535

## Metadata

| Field           | Value    |
|-----------------|----------|
| Event Index     | 18/18    |
| Offset          | 0x015B   |
| Data Size       | 60 bytes |
| Calculated Size | 60 bytes |
| Instructions    | 10       |

```
      00 01 02 03 04 05 06 07  08 09 0A 0B 0C 0D 0E 0F
      -- -- -- -- -- -- -- --  -- -- -- -- -- -- -- --
0150:                                   32 11 80 1F 00             2....
0160: 2A 80 2B 80 0B 80 1F 01  6F 1C 2C 80 4A 19 40 0F  *.+.....o.,.J.@.
0170: 01 1A 40 0F 01 4A 13 40  0F 01 1A 40 0F 01 4A F0  ..@..J.@...@..J.
0180: FF FF 7F 1A 40 0F 01 5B  17 80 F8 FF FF 7F F8 FF  ....@..[........
0190: FF 7F 74 68 6B 31 00                              ..thk1.         
```

## Opcodes

```
  0: 0x015B [0x32] ExtData[1]->MainSpeed = 40* * 0.1
  1: 0x015E [0x1F] MOVE_ENTITY: EventEntity moves to X=-83.368*, Z=71.656*, Y=-1.200*
  2: 0x0166 [0x1F] MOVE_ENTITY: Update entity position (mode=1)
  3: 0x0168 [0x6F] WAIT_FRAME_DELAY: Yield until WaitTime reaches zero
  4: 0x0169 [0x1C] WAIT(10* ticks)
  5: 0x016C [0x4A] Albrecht (ID: 17776665/0x010F4019) looks at Alista (ID: 17776666/0x010F401A)
  6: 0x0175 [0x4A] Baudin (ID: 17776659/0x010F4013) looks at Alista (ID: 17776666/0x010F401A)
  7: 0x017E [0x4A] LocalPlayer looks at Alista (ID: 17776666/0x010F401A)
  8: 0x0187 [0x5B] LOAD_EXT_SCHEDULER: Load scheduler "thk1" with entities [EventEntity, EventEntity], work=80*
  9: 0x0196 [0x00] END_REQSTACK()
```
