# Event 65535

## Metadata

| Field           | Value    |
|-----------------|----------|
| Event Index     | 13/18    |
| Offset          | 0x00BF   |
| Data Size       | 55 bytes |
| Calculated Size | 55 bytes |
| Instructions    | 12       |

```
      00 01 02 03 04 05 06 07  08 09 0A 0B 0C 0D 0E 0F
      -- -- -- -- -- -- -- --  -- -- -- -- -- -- -- --
00B0:                                               22                 "
00C0: 00 32 00 80 1F 00 19 80  1A 80 1B 80 1F 01 4A F0  .2............J.
00D0: FF FF 7F 1A 40 0F 01 39  1C 80 1C 1D 80 1F 00 1E  ....@..9........
00E0: 80 1F 80 20 80 1F 01 4A  F0 FF FF 7F 1A 40 0F 01  ... ...J.....@..
00F0: 1E 13 40 0F 01 00                                 ..@...          
```

## Opcodes

```
  0: 0x00BF [0x22] ENTITY_HIDE_FLAG(enabled=0x00)
  1: 0x00C1 [0x32] ExtData[1]->MainSpeed = 13* * 0.1
  2: 0x00C4 [0x1F] MOVE_ENTITY: EventEntity moves to X=-73.161*, Z=80.060*, Y=-0.199*
  3: 0x00CC [0x1F] MOVE_ENTITY: Update entity position (mode=1)
  4: 0x00CE [0x4A] LocalPlayer looks at Alista (ID: 17776666/0x010F401A)
  5: 0x00D7 [0x39] SET_ENTITY_DIRECTION(direction=1.8°*)
  6: 0x00DA [0x1C] WAIT(60* ticks)
  7: 0x00DD [0x1F] MOVE_ENTITY: EventEntity moves to X=-75.611*, Z=79.812*, Y=-3.199*
  8: 0x00E5 [0x1F] MOVE_ENTITY: Update entity position (mode=1)
  9: 0x00E7 [0x4A] LocalPlayer looks at Alista (ID: 17776666/0x010F401A)
 10: 0x00F0 [0x1E] EventEntity looks at Baudin (ID: 17776659/0x010F4013) and starts talking
 11: 0x00F5 [0x00] END_REQSTACK()
```
