# Event 65535

## Metadata

| Field           | Value    |
|-----------------|----------|
| Event Index     | 21/25    |
| Offset          | 0x021B   |
| Data Size       | 67 bytes |
| Calculated Size | 67 bytes |
| Instructions    | 15       |

```
      00 01 02 03 04 05 06 07  08 09 0A 0B 0C 0D 0E 0F
      -- -- -- -- -- -- -- --  -- -- -- -- -- -- -- --
0210:                                   32 4C 80 1F 00             2L...
0220: 4D 80 4E 80 4F 80 1F 01  4B 4E 10 0F 01 50 80 1C  M.N.O...KN...P..
0230: 29 80 1F 00 51 80 52 80  53 80 1F 01 4B 4E 10 0F  )...Q.R.S...KN..
0240: 01 54 80 1C 55 80 1F 00  56 80 57 80 58 80 1F 01  .T..U...V.W.X...
0250: 1C 45 80 4B 4E 10 0F 01  59 80 1C 29 80 00        .E.KN...Y..)..  
```

## Opcodes

```
  0: 0x021B [0x32] ExtData[1]->MainSpeed = 45* * 0.1
  1: 0x021E [0x1F] MOVE_ENTITY: EventEntity moves to X=-599.295*, Z=590.678*, Y=0.264*
  2: 0x0226 [0x1F] MOVE_ENTITY: Update entity position (mode=1)
  3: 0x0228 [0x4B] UPDATE_ENTITY_YAW(entity=Unnamed NPC (ID: 17764430/0x010F104E), yaw=5.27°*)
  4: 0x022F [0x1C] WAIT(60* ticks)
  5: 0x0232 [0x1F] MOVE_ENTITY: EventEntity moves to X=-604.353*, Z=586.292*, Y=0.138*
  6: 0x023A [0x1F] MOVE_ENTITY: Update entity position (mode=1)
  7: 0x023C [0x4B] UPDATE_ENTITY_YAW(entity=Unnamed NPC (ID: 17764430/0x010F104E), yaw=0.20°*)
  8: 0x0243 [0x1C] WAIT(240* ticks)
  9: 0x0246 [0x1F] MOVE_ENTITY: EventEntity moves to X=-600.328*, Z=582.410*, Y=0.802*
 10: 0x024E [0x1F] MOVE_ENTITY: Update entity position (mode=1)
 11: 0x0250 [0x1C] WAIT(30* ticks)
 12: 0x0253 [0x4B] UPDATE_ENTITY_YAW(entity=Unnamed NPC (ID: 17764430/0x010F104E), yaw=16.63°*)
 13: 0x025A [0x1C] WAIT(60* ticks)
 14: 0x025D [0x00] END_REQSTACK()
```
