# Event 65535

## Metadata

| Field           | Value    |
|-----------------|----------|
| Event Index     | 23/25    |
| Offset          | 0x026C   |
| Data Size       | 51 bytes |
| Calculated Size | 51 bytes |
| Instructions    | 11       |

```
      00 01 02 03 04 05 06 07  08 09 0A 0B 0C 0D 0E 0F
      -- -- -- -- -- -- -- --  -- -- -- -- -- -- -- --
0260:                                      32 4C 80 1F              2L..
0270: 00 5D 80 5E 80 5F 80 1F  01 1F 00 60 80 61 80 62  .].^._.....`.a.b
0280: 80 1F 01 1F 00 63 80 64  80 65 80 1F 01 1E 4A 10  .....c.d.e....J.
0290: 0F 01 1C 45 80 4A 4A 10  0F 01 4E 10 0F 01 00     ...E.JJ...N.... 
```

## Opcodes

```
  0: 0x026C [0x32] ExtData[1]->MainSpeed = 45* * 0.1
  1: 0x026F [0x1F] MOVE_ENTITY: EventEntity moves to X=-604.257*, Z=586.573*, Y=0.057*
  2: 0x0277 [0x1F] MOVE_ENTITY: Update entity position (mode=1)
  3: 0x0279 [0x1F] MOVE_ENTITY: EventEntity moves to X=-603.318*, Z=588.527*, Y=0.196*
  4: 0x0281 [0x1F] MOVE_ENTITY: Update entity position (mode=1)
  5: 0x0283 [0x1F] MOVE_ENTITY: EventEntity moves to X=-601.495*, Z=586.040*, Y=0.496*
  6: 0x028B [0x1F] MOVE_ENTITY: Update entity position (mode=1)
  7: 0x028D [0x1E] EventEntity looks at Unnamed NPC (ID: 17764426/0x010F104A) and starts talking
  8: 0x0292 [0x1C] WAIT(30* ticks)
  9: 0x0295 [0x4A] Unnamed NPC (ID: 17764426/0x010F104A) looks at Unnamed NPC (ID: 17764430/0x010F104E)
 10: 0x029E [0x00] END_REQSTACK()
```
