# Event 65535

## Metadata

| Field           | Value    |
|-----------------|----------|
| Event Index     | 45/52    |
| Offset          | 0x02FD   |
| Data Size       | 46 bytes |
| Calculated Size | 46 bytes |
| Instructions    | 6        |

```
      00 01 02 03 04 05 06 07  08 09 0A 0B 0C 0D 0E 0F
      -- -- -- -- -- -- -- --  -- -- -- -- -- -- -- --
02F0:                                         C5 49 80               .I.
0300: D6 92 08 01 D6 92 08 01  73 30 30 30 00 80 1F 00  ........s000....
0310: 4D 80 4E 80 4F 80 1F 01  6F C5 49 80 D6 92 08 01  M.N.O...o.I.....
0320: D6 92 08 01 73 74 30 30  00 80 00                 ....st00...     
```

## Opcodes

```
  0: 0x02FD [0xC5] LOAD_SCHEDULED_TASK_ALT3: Load scheduler 0x80003030 for entities [Excenmille (ID: 17339094/0x010892D6), Excenmille (ID: 17339094/0x010892D6)], work=144*, param=12403
  1: 0x030E [0x1F] MOVE_ENTITY: EventEntity moves to X=244.083*, Z=-131.131*, Y=-16.675*
  2: 0x0316 [0x1F] MOVE_ENTITY: Update entity position (mode=1)
  3: 0x0318 [0x6F] WAIT_FRAME_DELAY: Yield until WaitTime reaches zero
  4: 0x0319 [0xC5] LOAD_SCHEDULED_TASK_ALT3: Load scheduler 0x80003030 for entities [Excenmille (ID: 17339094/0x010892D6), Excenmille (ID: 17339094/0x010892D6)], work=144*, param=29811
  5: 0x032A [0x00] END_REQSTACK()
```
