# Event 65535

## Metadata

| Field           | Value    |
|-----------------|----------|
| Event Index     | 30/52    |
| Offset          | 0x01E4   |
| Data Size       | 54 bytes |
| Calculated Size | 54 bytes |
| Instructions    | 8        |

```
      00 01 02 03 04 05 06 07  08 09 0A 0B 0C 0D 0E 0F
      -- -- -- -- -- -- -- --  -- -- -- -- -- -- -- --
01E0:             1F 00 2C 80  2D 80 00 80 1F 01 6F 7C      ..,.-.....o|
01F0: 00 D6 92 08 01 81 00 D6  92 08 01 5B 2E 80 D6 92  ...........[....
0200: 08 01 D6 92 08 01 66 69  30 30 5B 2F 80 D6 92 08  ......fi00[/....
0210: 01 D6 92 08 01 62 74 30  31 00                    .....bt01.      
```

## Opcodes

```
  0: 0x01E4 [0x1F] MOVE_ENTITY: EventEntity moves to X=39.749*, Z=312.536*, Y=0.000*
  1: 0x01EC [0x1F] MOVE_ENTITY: Update entity position (mode=1)
  2: 0x01EE [0x6F] WAIT_FRAME_DELAY: Yield until WaitTime reaches zero
  3: 0x01EF [0x7C] Excenmille (ID: 17339094/0x010892D6)->Render.Flags2 |= 0x00
  4: 0x01F5 [0x81] SET_ENTITY_BLINKING(blink_flag=0x00, entity=Excenmille (ID: 17339094/0x010892D6))
  5: 0x01FB [0x5B] LOAD_EXT_SCHEDULER(work_offset=1299*, entity1=Excenmille (ID: 17339094/0x010892D6), entity2=Excenmille (ID: 17339094/0x010892D6), action="fi00")
  6: 0x020A [0x5B] LOAD_EXT_SCHEDULER(work_offset=1405*, entity1=Excenmille (ID: 17339094/0x010892D6), entity2=Excenmille (ID: 17339094/0x010892D6), action="bt01")
  7: 0x0219 [0x00] END_REQSTACK()
```
