# Event 65535

## Metadata

| Field           | Value    |
|-----------------|----------|
| Event Index     | 41/52    |
| Offset          | 0x0284   |
| Data Size       | 63 bytes |
| Calculated Size | 63 bytes |
| Instructions    | 11       |

```
      00 01 02 03 04 05 06 07  08 09 0A 0B 0C 0D 0E 0F
      -- -- -- -- -- -- -- --  -- -- -- -- -- -- -- --
0280:             1F 00 40 80  41 80 42 80 1F 01 6F 4B      ..@.A.B...oK
0290: D6 92 08 01 43 80 6F 76  D6 92 08 01 7B D6 92 08  ....C.ov....{...
02A0: 01 5B 44 80 D6 92 08 01  D6 92 08 01 73 68 61 30  .[D.........sha0
02B0: 1C 0D 80 5B 45 80 D6 92  08 01 D6 92 08 01 73 68  ...[E.........sh
02C0: 62 30 00                                          b0.             
```

## Opcodes

```
  0: 0x0284 [0x1F] MOVE_ENTITY: EventEntity moves to X=184.500*, Z=163.002*, Y=-27.253*
  1: 0x028C [0x1F] MOVE_ENTITY: Update entity position (mode=1)
  2: 0x028E [0x6F] WAIT_FRAME_DELAY: Yield until WaitTime reaches zero
  3: 0x028F [0x4B] UPDATE_ENTITY_YAW(entity=Excenmille (ID: 17339094/0x010892D6), yaw=7.06°*)
  4: 0x0296 [0x6F] WAIT_FRAME_DELAY: Yield until WaitTime reaches zero
  5: 0x0297 [0x76] CHECK_ENTITY_RENDER_FLAGS: Wait until Excenmille (ID: 17339094/0x010892D6) Render.Flags0 and Render.Flags3 conditions are met
  6: 0x029C [0x7B] Excenmille (ID: 17339094/0x010892D6) stops talking
  7: 0x02A1 [0x5B] LOAD_EXT_SCHEDULER(work_offset=1301*, entity1=Excenmille (ID: 17339094/0x010892D6), entity2=Excenmille (ID: 17339094/0x010892D6), action="sha0")
  8: 0x02B0 [0x1C] WAIT(60* ticks)
  9: 0x02B3 [0x5B] LOAD_EXT_SCHEDULER(work_offset=2442*, entity1=Excenmille (ID: 17339094/0x010892D6), entity2=Excenmille (ID: 17339094/0x010892D6), action="shb0")
 10: 0x02C2 [0x00] END_REQSTACK()
```
