# 16830610

## Common Data

| Field            | Value                     |
|------------------|---------------------------|
| Zone             | Mine Shaft #2716 (ID: 13) |
| Block Size       | 15284 bytes               |
| Total Events     | 7                         |
| References Count | 285                       |

## List of Events

| Event ID              | Entrypoint   |   Size |   Instructions |
|-----------------------|--------------|--------|----------------|
| [65535](#event-65535) | 0x0000       |      1 |              1 |
| [0](#event-0)         | 0x0001       |    239 |             54 |
| [1](#event-1)         | 0x00F0       |   1475 |            191 |
| [2](#event-2)         | 0x06B3       |   3701 |            424 |
| [3](#event-3)         | 0x1528       |   3435 |            437 |
| [4](#event-4)         | 0x2293       |   3665 |            448 |
| [5](#event-5)         | 0x30E4       |   1582 |            193 |

## DAT References (imed_data)

|   Index | Hex Value   |   Dec Value |
|---------|-------------|-------------|
|       0 | 0x1E89      |        7817 |
|       1 | 0x0000      |           0 |
|       2 | 0x0001      |           1 |
|       3 | 0x0002      |           2 |
|       4 | 0x009D      |         157 |
|       5 | 0x1E8B      |        7819 |
|       6 | 0x0003      |           3 |
|       7 | 0x1E8C      |        7820 |
|       8 | 0x005A      |          90 |
|       9 | 0xFFF904D0  |  4294509776 |
|      10 | 0xFFFFDB06  |  4294957830 |
|      11 | 0x1D4BF     |      119999 |
|      12 | 0x0BEF      |        3055 |
|      13 | 0x005B      |          91 |
|      14 | 0x005C      |          92 |
|      15 | 0x1E8A      |        7818 |
|      16 | 0x0004      |           4 |
|      17 | 0x0013      |          19 |
|      18 | 0x000F      |          15 |
|      19 | 0x01A3      |         419 |
|      20 | 0x00DD      |         221 |
|      21 | 0x00B3      |         179 |
|      22 | 0x1DBA      |        7610 |
|      23 | 0x1DBB      |        7611 |
|      24 | 0x1DBC      |        7612 |
|      25 | 0x1DBD      |        7613 |
|      26 | 0x003C      |          60 |
|      27 | 0x1DBE      |        7614 |
|      28 | 0x1DBF      |        7615 |
|      29 | 0x1DC0      |        7616 |
|      30 | 0x002D      |          45 |
|      31 | 0x1DC1      |        7617 |
|      32 | 0x1DC2      |        7618 |
|      33 | 0x1DC3      |        7619 |
|      34 | 0x1DC4      |        7620 |
|      35 | 0x1DC5      |        7621 |
|      36 | 0x0045      |          69 |
|      37 | 0x1DC6      |        7622 |
|      38 | 0x1DC7      |        7623 |
|      39 | 0x1DC8      |        7624 |
|      40 | 0x1DC9      |        7625 |
|      41 | 0x001D      |          29 |
|      42 | 0x1DCA      |        7626 |
|      43 | 0x00DC      |         220 |
|      44 | 0x1DCB      |        7627 |
|      45 | 0x001E      |          30 |
|      46 | 0x1DCC      |        7628 |
|      47 | 0x1DCD      |        7629 |
|      48 | 0x1DCE      |        7630 |
|      49 | 0x0155      |         341 |
|      50 | 0x1DCF      |        7631 |
|      51 | 0x0150      |         336 |
|      52 | 0x1DD0      |        7632 |
|      53 | 0x1DD1      |        7633 |
|      54 | 0x01B9      |         441 |
|      55 | 0x01AF      |         431 |
|      56 | 0x0078      |         120 |
|      57 | 0x0096      |         150 |
|      58 | 0x1DD2      |        7634 |
|      59 | 0x00C8      |         200 |
|      60 | 0x01EA      |         490 |
|      61 | 0x1DD3      |        7635 |
|      62 | 0x1DD4      |        7636 |
|      63 | 0x1DD5      |        7637 |
|      64 | 0x1DD6      |        7638 |
|      65 | 0x00F0      |         240 |
|      66 | 0x0033      |          51 |
|      67 | 0x004B      |          75 |
|      68 | 0x01A0      |         416 |
|      69 | 0x0006      |           6 |
|      70 | 0x1DD7      |        7639 |
|      71 | 0x0151      |         337 |
|      72 | 0x1DD8      |        7640 |
|      73 | 0x1DD9      |        7641 |
|      74 | 0x1DDA      |        7642 |
|      75 | 0x1DDB      |        7643 |
|      76 | 0x00D8      |         216 |
|      77 | 0x01BA      |         442 |
|      78 | 0x01B0      |         432 |
|      79 | 0x1DDC      |        7644 |
|      80 | 0x1DDD      |        7645 |
|      81 | 0x1DDE      |        7646 |
|      82 | 0x1DDF      |        7647 |
|      83 | 0x1DE0      |        7648 |
|      84 | 0x1DE1      |        7649 |
|      85 | 0x1DE2      |        7650 |
|      86 | 0x0007      |           7 |
|      87 | 0x1DE3      |        7651 |
|      88 | 0x1DE4      |        7652 |
|      89 | 0x00D7      |         215 |
|      90 | 0x1DE5      |        7653 |
|      91 | 0x1DE6      |        7654 |
|      92 | 0x1DE7      |        7655 |
|      93 | 0x1DE9      |        7657 |
|      94 | 0x1DEA      |        7658 |
|      95 | 0x1DEB      |        7659 |
|      96 | 0x1DEC      |        7660 |
|      97 | 0x1DED      |        7661 |
|      98 | 0x1DEE      |        7662 |
|      99 | 0x0154      |         340 |
|     100 | 0x1DEF      |        7663 |
|     101 | 0x1DF0      |        7664 |
|     102 | 0x1DF1      |        7665 |
|     103 | 0x1DF2      |        7666 |
|     104 | 0x1DF3      |        7667 |
|     105 | 0x1DF4      |        7668 |
|     106 | 0x1DF5      |        7669 |
|     107 | 0x1DF6      |        7670 |
|     108 | 0x1DF7      |        7671 |
|     109 | 0x1DF8      |        7672 |
|     110 | 0x1DF9      |        7673 |
|     111 | 0x1DFA      |        7674 |
|     112 | 0x1DFB      |        7675 |
|     113 | 0x1DFC      |        7676 |
|     114 | 0x1DFD      |        7677 |
|     115 | 0x1DFE      |        7678 |
|     116 | 0x1DFF      |        7679 |
|     117 | 0x1E00      |        7680 |
|     118 | 0x1E01      |        7681 |
|     119 | 0x01ED      |         493 |
|     120 | 0x1E02      |        7682 |
|     121 | 0x01A1      |         417 |
|     122 | 0x1E03      |        7683 |
|     123 | 0x1E04      |        7684 |
|     124 | 0x1E05      |        7685 |
|     125 | 0x1E06      |        7686 |
|     126 | 0x1E07      |        7687 |
|     127 | 0x1E08      |        7688 |
|     128 | 0x1E09      |        7689 |
|     129 | 0x1E0A      |        7690 |
|     130 | 0x01EC      |         492 |
|     131 | 0x1E0B      |        7691 |
|     132 | 0x007A      |         122 |
|     133 | 0x1E0C      |        7692 |
|     134 | 0x1E0D      |        7693 |
|     135 | 0x1E0E      |        7694 |
|     136 | 0x1E0F      |        7695 |
|     137 | 0x1E10      |        7696 |
|     138 | 0x1E11      |        7697 |
|     139 | 0x1E12      |        7698 |
|     140 | 0x1E13      |        7699 |
|     141 | 0x1E14      |        7700 |
|     142 | 0x1E15      |        7701 |
|     143 | 0x1E16      |        7702 |
|     144 | 0x1E17      |        7703 |
|     145 | 0x1E18      |        7704 |
|     146 | 0x1E19      |        7705 |
|     147 | 0x1E1A      |        7706 |
|     148 | 0x1E1B      |        7707 |
|     149 | 0x1E1C      |        7708 |
|     150 | 0x1E1D      |        7709 |
|     151 | 0x1E1E      |        7710 |
|     152 | 0x1E1F      |        7711 |
|     153 | 0x1E20      |        7712 |
|     154 | 0x1E21      |        7713 |
|     155 | 0x1E22      |        7714 |
|     156 | 0x1E23      |        7715 |
|     157 | 0x1E24      |        7716 |
|     158 | 0x1E25      |        7717 |
|     159 | 0x1E26      |        7718 |
|     160 | 0x1E27      |        7719 |
|     161 | 0x1E28      |        7720 |
|     162 | 0x00B4      |         180 |
|     163 | 0x1E29      |        7721 |
|     164 | 0x001C      |          28 |
|     165 | 0x0014      |          20 |
|     166 | 0x00EC      |         236 |
|     167 | 0x1E2A      |        7722 |
|     168 | 0x1E2B      |        7723 |
|     169 | 0x1E2C      |        7724 |
|     170 | 0x1E2D      |        7725 |
|     171 | 0x1E2E      |        7726 |
|     172 | 0x1E2F      |        7727 |
|     173 | 0x021D      |         541 |
|     174 | 0x000C      |          12 |
|     175 | 0x1E30      |        7728 |
|     176 | 0x1E31      |        7729 |
|     177 | 0x1E32      |        7730 |
|     178 | 0x000D      |          13 |
|     179 | 0x00DA      |         218 |
|     180 | 0x1E33      |        7731 |
|     181 | 0x1E34      |        7732 |
|     182 | 0x1E35      |        7733 |
|     183 | 0x1E36      |        7734 |
|     184 | 0x1E37      |        7735 |
|     185 | 0x1E38      |        7736 |
|     186 | 0x1E39      |        7737 |
|     187 | 0x01EB      |         491 |
|     188 | 0x1E3A      |        7738 |
|     189 | 0x1E3B      |        7739 |
|     190 | 0x1E3C      |        7740 |
|     191 | 0x1E3D      |        7741 |
|     192 | 0x1E3E      |        7742 |
|     193 | 0x0080      |         128 |
|     194 | 0x1E3F      |        7743 |
|     195 | 0x1E40      |        7744 |
|     196 | 0x012C      |         300 |
|     197 | 0x1E41      |        7745 |
|     198 | 0x1E42      |        7746 |
|     199 | 0x1E43      |        7747 |
|     200 | 0x1E44      |        7748 |
|     201 | 0x009F      |         159 |
|     202 | 0x014A      |         330 |
|     203 | 0x1E45      |        7749 |
|     204 | 0x1E46      |        7750 |
|     205 | 0x1E47      |        7751 |
|     206 | 0x1E48      |        7752 |
|     207 | 0x1E49      |        7753 |
|     208 | 0x1E4A      |        7754 |
|     209 | 0x1E4B      |        7755 |
|     210 | 0x1E4C      |        7756 |
|     211 | 0x1E4D      |        7757 |
|     212 | 0x1E4E      |        7758 |
|     213 | 0x010E      |         270 |
|     214 | 0x1E4F      |        7759 |
|     215 | 0x1E50      |        7760 |
|     216 | 0xFFFEAA8E  |  4294879886 |
|     217 | 0x7A0D9     |      499929 |
|     218 | 0x2BF1F     |      179999 |
|     219 | 0x0800      |        2048 |
|     220 | 0x1E52      |        7762 |
|     221 | 0x1E51      |        7761 |
|     222 | 0x1E53      |        7763 |
|     223 | 0x1E54      |        7764 |
|     224 | 0x1E55      |        7765 |
|     225 | 0x0272      |         626 |
|     226 | 0x0281      |         641 |
|     227 | 0x1E56      |        7766 |
|     228 | 0x1E57      |        7767 |
|     229 | 0x1E58      |        7768 |
|     230 | 0x1E59      |        7769 |
|     231 | 0x1E5A      |        7770 |
|     232 | 0x1E5B      |        7771 |
|     233 | 0x1E5C      |        7772 |
|     234 | 0x026C      |         620 |
|     235 | 0x1E5D      |        7773 |
|     236 | 0x1E5E      |        7774 |
|     237 | 0x01A4      |         420 |
|     238 | 0x01A9      |         425 |
|     239 | 0x1E5F      |        7775 |
|     240 | 0x1E60      |        7776 |
|     241 | 0x1E61      |        7777 |
|     242 | 0x1E62      |        7778 |
|     243 | 0x1E63      |        7779 |
|     244 | 0x1E64      |        7780 |
|     245 | 0x1E65      |        7781 |
|     246 | 0x1E66      |        7782 |
|     247 | 0x1E67      |        7783 |
|     248 | 0x1E68      |        7784 |
|     249 | 0x1E69      |        7785 |
|     250 | 0x0299      |         665 |
|     251 | 0x1E6A      |        7786 |
|     252 | 0x1E6B      |        7787 |
|     253 | 0x01E1      |         481 |
|     254 | 0x0019      |          25 |
|     255 | 0x1E6C      |        7788 |
|     256 | 0x1E6D      |        7789 |
|     257 | 0x1E6E      |        7790 |
|     258 | 0x1E6F      |        7791 |
|     259 | 0x00F3      |         243 |
|     260 | 0x1E70      |        7792 |
|     261 | 0x1E71      |        7793 |
|     262 | 0x1E72      |        7794 |
|     263 | 0x1E73      |        7795 |
|     264 | 0x027A      |         634 |
|     265 | 0x1E74      |        7796 |
|     266 | 0x0270      |         624 |
|     267 | 0x1E75      |        7797 |
|     268 | 0x1E76      |        7798 |
|     269 | 0x1E77      |        7799 |
|     270 | 0x0079      |         121 |
|     271 | 0x009C      |         156 |
|     272 | 0x1EC9      |        7881 |
|     273 | 0x1ECA      |        7882 |
|     274 | 0x1ECB      |        7883 |
|     275 | 0x1ECC      |        7884 |
|     276 | 0x1ECD      |        7885 |
|     277 | 0x1ECE      |        7886 |
|     278 | 0x1ECF      |        7887 |
|     279 | 0x1ED1      |        7889 |
|     280 | 0x1ED0      |        7888 |
|     281 | 0x1ED2      |        7890 |
|     282 | 0x1ED3      |        7891 |
|     283 | 0x1ED4      |        7892 |
|     284 | 0x00C9      |         201 |

## String References

- **7817**: B$P10l$3f$3o$3b$3O%p$3$3j$3$5[ [$3L$3$3$3$3Z$3 [/$3$1[$3v/$3J$3$3$7$3C$3x$3$3g]
- **7818**: $3C$3x$3$3gp$P11I$P11p [$3{$3X$P11O/$3{$3Xc/$16$18/%s$P16E/$P122$P10.%p]
- **7819**: $3{$3^$3$97F$31V$P10i]\\7
- **7820**: $3W$3$3$3$3v$P10fp$P11I$P11p [$3{$3X$20%.]

## Events

### Event 65535

#### Metadata

| Field        | Value   |
|--------------|---------|
| Entrypoint   | 0x0000  |
| Data Size    | 1 bytes |
| Instructions | 1       |

```
      00 01 02 03 04 05 06 07  08 09 0A 0B 0C 0D 0E 0F
      -- -- -- -- -- -- -- --  -- -- -- -- -- -- -- --
0000: 00                                                .               
```

#### Opcodes

```
  0: 0x0000 [0x00] END_REQSTACK()
```

### Event 0

#### Metadata

| Field        | Value     |
|--------------|-----------|
| Entrypoint   | 0x0001    |
| Data Size    | 239 bytes |
| Instructions | 54        |

```
      00 01 02 03 04 05 06 07  08 09 0A 0B 0C 0D 0E 0F
      -- -- -- -- -- -- -- --  -- -- -- -- -- -- -- --
0000:    24 00 80 01 80 01 80  25 02 00 10 02 80 00 17   $......%.......
0010: 00 1A 47 00 01 45 00 02  00 10 03 80 00 37 00 45  ..G..E.......7.E
0020: 04 80 F0 FF FF 7F F0 FF  FF 7F 00 FE FE FE 01 80  ................
0030: 48 05 80 23 01 45 00 02  00 10 06 80 00 45 00 1A  H..#.E.......E..
0040: 8C 00 01 45 00 21 00 24  07 80 01 80 01 80 25 02  ...E.!.$......%.
0050: 00 10 01 80 00 6B 00 03  01 10 08 80 47 00 09 80  .....k......G...
0060: 0A 80 0B 80 0C 80 47 01  01 8B 00 02 00 10 02 80  ......G.........
0070: 00 7B 00 03 01 10 0D 80  01 8B 00 02 00 10 03 80  .{..............
0080: 00 8B 00 03 01 10 0E 80  01 8B 00 1B 5C 00 01 80  ............\...
0090: 5C 01 01 80 5C 02 01 80  5C 03 01 80 9A 46 01 24  \...\...\....F.$
00A0: 0F 80 01 80 01 80 25 02  00 10 01 80 00 B5 00 1A  ......%.........
00B0: F0 00 01 ED 00 02 00 10  02 80 00 C3 00 1A B3 06  ................
00C0: 01 ED 00 02 00 10 03 80  00 D1 00 1A 28 15 01 ED  ............(...
00D0: 00 02 00 10 06 80 00 DF  00 1A 93 22 01 ED 00 02  ..........."....
00E0: 00 10 10 80 00 ED 00 1A  E3 30 01 ED 00 46 00 1B  .........0...F..
```

#### Opcodes

```
  0: 0x0001 [0x24] CREATE_DIALOG(message_id=7817*, default_option=0*, option_flags=0*)
    → "B$P10l$3f$3o$3b$3O%p$3$3j$3$5[ [$3L$3$3$3$3Z$3 [/$3$1[$3v/$3J$3$3$7$3C$3x$3$3g]"
  1: 0x0008 [0x25] WAIT_DIALOG_SELECT()
  2: 0x0009 [0x02] IF !(Work_Zone[0] == 1*) GOTO 0x0017
  3: 0x0011 [0x1A] CALL_SUBROUTINE(address=0x0047)
  4: 0x0014 [0x01] GOTO 0x0045
  5: 0x0017 [0x02] IF !(Work_Zone[0] == 2*) GOTO 0x0037
  6: 0x001F [0x45] LOAD_SCHEDULED_TASK: Load scheduler 0xFEFEFE00 with entities [LocalPlayer, LocalPlayer], work=[157*, 0*]
  7: 0x0030 [0x48] [System] [7819*]:
    → "$3{$3^$3$97F$31V$P10i]\7"
  8: 0x0033 [0x23] WAIT_FOR_DIALOG_INTERACTION
  9: 0x0034 [0x01] GOTO 0x0045
 10: 0x0037 [0x02] IF !(Work_Zone[0] == 3*) GOTO 0x0045
 11: 0x003F [0x1A] CALL_SUBROUTINE(address=0x008C)
 12: 0x0042 [0x01] GOTO 0x0045

SUBROUTINE_0045:
 13: 0x0045 [0x21] END_EVENT
 14: 0x0046 [0x00] END_REQSTACK()

SUBROUTINE_0047:
 15: 0x0047 [0x24] CREATE_DIALOG(message_id=7820*, default_option=0*, option_flags=0*)
    → "$3W$3$3$3$3v$P10fp$P11I$P11p [$3{$3X$20%.]"
 16: 0x004E [0x25] WAIT_DIALOG_SELECT()
 17: 0x004F [0x02] IF !(Work_Zone[0] == 0*) GOTO 0x006B
 18: 0x0057 [0x03] Work_Zone[1] = 90*
 19: 0x005C [0x47] UPDATE_PLAYER_POS(-457.520*, -9.466*, 119.999*, yaw=268.5°*)
 20: 0x0066 [0x47] WAIT_PLAYER_POS_UPDATE
 21: 0x0068 [0x01] GOTO 0x008B
 22: 0x006B [0x02] IF !(Work_Zone[0] == 1*) GOTO 0x007B
 23: 0x0073 [0x03] Work_Zone[1] = 91*
 24: 0x0078 [0x01] GOTO 0x008B
 25: 0x007B [0x02] IF !(Work_Zone[0] == 2*) GOTO 0x008B
 26: 0x0083 [0x03] Work_Zone[1] = 92*
 27: 0x0088 [0x01] GOTO 0x008B

SUBROUTINE_008B:
 28: 0x008B [0x1B] RETURN

SUBROUTINE_008C:
 29: 0x008C [0x5C] MUSIC_CONTROL: Set Idle (Day) music to song 0*
 30: 0x0090 [0x5C] MUSIC_CONTROL: Set Idle (Night) music to song 0*
 31: 0x0094 [0x5C] MUSIC_CONTROL: Set Combat (Solo) music to song 0*
 32: 0x0098 [0x5C] MUSIC_CONTROL: Set Combat (Party) music to song 0*
 33: 0x009C [0x9A] WAIT_MUSIC_SERVER()
 34: 0x009D [0x46] CAMERA_CONTROL: Disable user control
 35: 0x009F [0x24] CREATE_DIALOG(message_id=7818*, default_option=0*, option_flags=0*)
    → "$3C$3x$3$3gp$P11I$P11p [$3{$3X$P11O/$3{$3Xc/$16$18/%s$P16E/$P122$P10.%p]"
 36: 0x00A6 [0x25] WAIT_DIALOG_SELECT()
 37: 0x00A7 [0x02] IF !(Work_Zone[0] == 0*) GOTO 0x00B5
 38: 0x00AF [0x1A] CALL_SUBROUTINE(address=0x00F0)
 39: 0x00B2 [0x01] GOTO 0x00ED
 40: 0x00B5 [0x02] IF !(Work_Zone[0] == 1*) GOTO 0x00C3
 41: 0x00BD [0x1A] CALL_SUBROUTINE(address=0x06B3)
 42: 0x00C0 [0x01] GOTO 0x00ED
 43: 0x00C3 [0x02] IF !(Work_Zone[0] == 2*) GOTO 0x00D1
 44: 0x00CB [0x1A] CALL_SUBROUTINE(address=0x1528)
 45: 0x00CE [0x01] GOTO 0x00ED
 46: 0x00D1 [0x02] IF !(Work_Zone[0] == 3*) GOTO 0x00DF
 47: 0x00D9 [0x1A] CALL_SUBROUTINE(address=0x2293)
 48: 0x00DC [0x01] GOTO 0x00ED
 49: 0x00DF [0x02] IF !(Work_Zone[0] == 4*) GOTO 0x00ED
 50: 0x00E7 [0x1A] CALL_SUBROUTINE(address=0x30E3)
 51: 0x00EA [0x01] GOTO 0x00ED

SUBROUTINE_00ED:
 52: 0x00ED [0x46] CAMERA_CONTROL: Restore default settings
 53: 0x00EF [0x1B] RETURN
```

### Event 1

#### Metadata

| Field        | Value      |
|--------------|------------|
| Entrypoint   | 0x00F0     |
| Data Size    | 1475 bytes |
| Instructions | 191        |

```
      00 01 02 03 04 05 06 07  08 09 0A 0B 0C 0D 0E 0F
      -- -- -- -- -- -- -- --  -- -- -- -- -- -- -- --
00F0: 42 1A E4 34 46 01 38 11  80 1C 12 80 79 00 F0 FF  B..4F.8.....y...
0100: FF 7F F0 FF FF 7F 27 10  97 D0 00 01 02 27 10 95  ......'......'..
0110: D0 00 01 04 27 10 96 D0  00 01 04 27 10 98 D0 00  ....'......'....
0120: 01 02 27 10 99 D0 00 01  02 27 10 9A D0 00 01 02  ..'......'......
0130: 27 10 9B D0 00 01 04 27  10 9C D0 00 01 04 27 10  '......'......'.
0140: 9D D0 00 01 04 27 10 9E  D0 00 01 04 27 10 9F D0  .....'......'...
0150: 00 01 04 92 01 95 D0 00  01 92 01 96 D0 00 01 92  ................
0160: 01 97 D0 00 01 92 01 98  D0 00 01 92 01 99 D0 00  ................
0170: 01 92 01 9A D0 00 01 92  01 9B D0 00 01 92 01 9C  ................
0180: D0 00 01 92 01 9D D0 00  01 92 01 9E D0 00 01 27  ...............'
0190: 10 F0 FF FF 7F 07 27 10  95 D0 00 01 0C 27 10 96  ......'......'..
01A0: D0 00 01 0D 27 10 97 D0  00 01 0D 27 10 98 D0 00  ....'......'....
01B0: 01 0C 27 10 99 D0 00 01  0C 27 10 9A D0 00 01 0C  ..'......'......
01C0: 27 10 9B D0 00 01 0D 27  10 9C D0 00 01 0D 27 10  '......'......'.
01D0: 9D D0 00 01 0D 27 10 9E  D0 00 01 0D 27 10 9F D0  .....'......'...
01E0: 00 01 0C 1C 12 80 80 F0  FF FF 7F 80 96 D0 00 01  ................
01F0: 80 9B D0 00 01 80 9C D0  00 01 80 9D D0 00 01 80  ................
0200: 9E D0 00 01 1C 12 80 27  10 93 D0 00 01 03 5B 13  .......'......[.
0210: 80 96 D0 00 01 96 D0 00  01 67 62 30 30 1C 12 80  .........gb00...
0220: 5C 00 14 80 5C 01 14 80  5C 02 14 80 5C 03 14 80  \...\...\...\...
0230: 9A 45 15 80 F0 FF FF 7F  F0 FF FF 7F 67 73 30 30  .E..........gs00
0240: 01 80 1A C3 34 55 15 80  F0 FF FF 7F F0 FF FF 7F  ....4U..........
0250: 67 73 30 30 45 15 80 F0  FF FF 7F F0 FF FF 7F 67  gs00E..........g
0260: 73 30 31 01 80 2B 9B D0  00 01 16 80 23 52 15 80  s01..+......#R..
0270: F0 FF FF 7F F0 FF FF 7F  67 73 30 31 45 15 80 F0  ........gs01E...
0280: FF FF 7F F0 FF FF 7F 67  73 30 32 01 80 2B 9C D0  .......gs02..+..
0290: 00 01 17 80 23 52 15 80  F0 FF FF 7F F0 FF FF 7F  ....#R..........
02A0: 67 73 30 32 45 15 80 F0  FF FF 7F F0 FF FF 7F 67  gs02E..........g
02B0: 73 30 33 01 80 2B 9D D0  00 01 18 80 23 52 15 80  s03..+......#R..
02C0: F0 FF FF 7F F0 FF FF 7F  67 73 30 33 45 15 80 F0  ........gs03E...
02D0: FF FF 7F F0 FF FF 7F 67  73 30 34 01 80 2B 9E D0  .......gs04..+..
02E0: 00 01 19 80 23 52 15 80  F0 FF FF 7F F0 FF FF 7F  ....#R..........
02F0: 67 73 30 34 45 15 80 F0  FF FF 7F F0 FF FF 7F 67  gs04E..........g
0300: 73 30 35 01 80 6B 69 64  6C 30 9B D0 00 01 6B 69  s05..kidl0....ki
0310: 64 6C 30 9C D0 00 01 6B  69 64 6C 30 9D D0 00 01  dl0....kidl0....
0320: 6B 69 64 6C 30 9E D0 00  01 1C 1A 80 2B 96 D0 00  kidl0.......+...
0330: 01 1B 80 23 52 15 80 F0  FF FF 7F F0 FF FF 7F 67  ...#R..........g
0340: 73 30 35 45 15 80 F0 FF  FF 7F F0 FF FF 7F 67 73  s05E..........gs
0350: 30 36 01 80 2B 96 D0 00  01 1C 80 23 27 10 97 D0  06..+......#'...
0360: 00 01 03 2B 94 D0 00 01  1D 80 23 5B 13 80 96 D0  ...+......#[....
0370: 00 01 96 D0 00 01 67 62  30 31 52 15 80 F0 FF FF  ......gb01R.....
0380: 7F F0 FF FF 7F 67 73 30  36 45 15 80 F0 FF FF 7F  .....gs06E......
0390: F0 FF FF 7F 67 73 30 37  01 80 4A F0 FF FF 7F 97  ....gs07..J.....
03A0: D0 00 01 55 15 80 F0 FF  FF 7F F0 FF FF 7F 67 73  ...U..........gs
03B0: 30 37 45 15 80 F0 FF FF  7F F0 FF FF 7F 67 73 30  07E..........gs0
03C0: 38 01 80 1C 1E 80 2B 97  D0 00 01 1F 80 23 6E 97  8.....+......#n.
03D0: D0 00 01 01 80 99 97 D0  00 01 2B 97 D0 00 01 20  ..........+.... 
03E0: 80 23 99 97 D0 00 01 52  15 80 F0 FF FF 7F F0 FF  .#.....R........
03F0: FF 7F 67 73 30 38 45 15  80 F0 FF FF 7F F0 FF FF  ..gs08E.........
0400: 7F 67 73 30 39 01 80 5B  13 80 96 D0 00 01 96 D0  .gs09..[........
0410: 00 01 67 62 30 32 1C 1A  80 2B 96 D0 00 01 21 80  ..gb02...+....!.
0420: 23 2B 97 D0 00 01 22 80  23 2B 97 D0 00 01 23 80  #+....".#+....#.
0430: 23 66 24 80 97 D0 00 01  97 D0 00 01 74 6C 6B 30  #f$.........tlk0
0440: 52 15 80 F0 FF FF 7F F0  FF FF 7F 67 73 30 39 45  R..........gs09E
0450: 15 80 F0 FF FF 7F F0 FF  FF 7F 67 73 31 30 01 80  ..........gs10..
0460: 27 10 96 D0 00 01 0E 2B  97 D0 00 01 25 80 23 2B  '......+....%.#+
0470: 97 D0 00 01 26 80 23 2B  97 D0 00 01 27 80 23 2B  ....&.#+....'.#+
0480: 97 D0 00 01 28 80 23 66  24 80 97 D0 00 01 97 D0  ....(.#f$.......
0490: 00 01 74 6C 6B 31 52 15  80 F0 FF FF 7F F0 FF FF  ..tlk1R.........
04A0: 7F 67 73 31 30 45 15 80  F0 FF FF 7F F0 FF FF 7F  .gs10E..........
04B0: 67 73 31 31 01 80 66 29  80 96 D0 00 01 96 D0 00  gs11..f)........
04C0: 01 74 6C 6B 30 2B 96 D0  00 01 2A 80 23 66 29 80  .tlk0+....*.#f).
04D0: 96 D0 00 01 96 D0 00 01  74 6C 6B 31 5C 00 2B 80  ........tlk1\.+.
04E0: 5C 01 2B 80 5C 02 2B 80  5C 03 2B 80 9A 27 10 98  \.+.\.+.\.+..'..
04F0: D0 00 01 0D 27 10 99 D0  00 01 0D 27 10 9A D0 00  ....'......'....
0500: 01 0D 52 15 80 F0 FF FF  7F F0 FF FF 7F 67 73 31  ..R..........gs1
0510: 31 45 15 80 F0 FF FF 7F  F0 FF FF 7F 67 73 31 32  1E..........gs12
0520: 01 80 2B 98 D0 00 01 2C  80 1C 2D 80 27 10 97 D0  ..+....,..-.'...
0530: 00 01 0E 2B 99 D0 00 01  2E 80 23 2B 97 D0 00 01  ...+......#+....
0540: 2F 80 23 52 15 80 F0 FF  FF 7F F0 FF FF 7F 67 73  /.#R..........gs
0550: 31 32 45 15 80 F0 FF FF  7F F0 FF FF 7F 67 73 31  12E..........gs1
0560: 33 01 80 2B 96 D0 00 01  30 80 23 52 15 80 F0 FF  3..+....0.#R....
0570: FF 7F F0 FF FF 7F 67 73  31 33 45 15 80 F0 FF FF  ......gs13E.....
0580: 7F F0 FF FF 7F 67 73 31  34 01 80 5B 31 80 9A D0  .....gs14..[1...
0590: 00 01 9A D0 00 01 62 69  6B 30 2B 9A D0 00 01 32  ......bik0+....2
05A0: 80 23 5B 33 80 99 D0 00  01 99 D0 00 01 69 72 6F  .#[3.........iro
05B0: 30 2B 99 D0 00 01 34 80  23 5B 31 80 9A D0 00 01  0+....4.#[1.....
05C0: 9A D0 00 01 62 69 6B 31  5B 33 80 98 D0 00 01 98  ....bik1[3......
05D0: D0 00 01 77 61 69 30 2B  98 D0 00 01 35 80 23 1C  ...wai0+....5.#.
05E0: 2D 80 5B 36 80 98 D0 00  01 98 D0 00 01 67 6F 67  -.[6.........gog
05F0: 6F 5B 36 80 99 D0 00 01  99 D0 00 01 67 6F 67 6F  o[6.........gogo
0600: 5B 37 80 9A D0 00 01 9A  D0 00 01 67 6F 67 6F 1C  [7.........gogo.
0610: 38 80 52 15 80 F0 FF FF  7F F0 FF FF 7F 67 73 31  8.R..........gs1
0620: 34 45 15 80 F0 FF FF 7F  F0 FF FF 7F 67 73 31 35  4E..........gs15
0630: 01 80 27 10 98 D0 00 01  0E 27 10 99 D0 00 01 0E  ..'......'......
0640: 27 10 9A D0 00 01 0E 1C  39 80 4A 97 D0 00 01 98  '.......9.J.....
0650: D0 00 01 4A F0 FF FF 7F  98 D0 00 01 79 00 96 D0  ...J........y...
0660: 00 01 F0 FF FF 7F 2B 96  D0 00 01 3A 80 23 52 15  ......+....:.#R.
0670: 80 F0 FF FF 7F F0 FF FF  7F 67 73 31 35 45 15 80  .........gs15E..
0680: F0 FF FF 7F F0 FF FF 7F  67 73 31 36 01 80 27 10  ........gs16..'.
0690: 96 D0 00 01 0F 1C 1A 80  1A E4 34 1C 2D 80 46 00  ..........4.-.F.
06A0: 45 3B 80 F0 FF FF 7F F0  FF FF 7F 66 64 69 32 01  E;.........fdi2.
06B0: 80 21 00                                          .!.             
```

#### Opcodes

```
  0: 0x00F0 [0x42] SET_CLI_EVENT_CANCEL_DATA()
  1: 0x00F1 [0x1A] CALL_SUBROUTINE(address=0x34E4)
  2: 0x00F4 [0x46] CAMERA_CONTROL: Disable user control
  3: 0x00F6 [0x38] SET_CLIENT_EVENT_MODE(mode=19*)
  4: 0x00F9 [0x1C] WAIT(15* ticks)
  5: 0x00FC [0x79] LocalPlayer looks at LocalPlayer (Basic look)
  6: 0x0106 [0x27] REQ_SET(priority=0x10, entity_id=Jabbos (ID: 16830615/0x0100D097), tag_num=0x02)
  7: 0x010D [0x27] REQ_SET(priority=0x10, entity_id=Selh'teus (ID: 16830613/0x0100D095), tag_num=0x04)
  8: 0x0114 [0x27] REQ_SET(priority=0x10, entity_id=Louverance (ID: 16830614/0x0100D096), tag_num=0x04)
  9: 0x011B [0x27] REQ_SET(priority=0x10, entity_id=Makki-Chebukki (ID: 16830616/0x0100D098), tag_num=0x02)
 10: 0x0122 [0x27] REQ_SET(priority=0x10, entity_id=Kukki-Chebukki (ID: 16830617/0x0100D099), tag_num=0x02)
 11: 0x0129 [0x27] REQ_SET(priority=0x10, entity_id=Cherukiki (ID: 16830618/0x0100D09A), tag_num=0x02)
 12: 0x0130 [0x27] REQ_SET(priority=0x10, entity_id=Chekochuk (ID: 16830619/0x0100D09B), tag_num=0x04)
 13: 0x0137 [0x27] REQ_SET(priority=0x10, entity_id=Movamuq (ID: 16830620/0x0100D09C), tag_num=0x04)
 14: 0x013E [0x27] REQ_SET(priority=0x10, entity_id=Trikotrak (ID: 16830621/0x0100D09D), tag_num=0x04)
 15: 0x0145 [0x27] REQ_SET(priority=0x10, entity_id=Swipostik (ID: 16830622/0x0100D09E), tag_num=0x04)
 16: 0x014C [0x27] REQ_SET(priority=0x10, entity_id=Unnamed NPC (ID: 16830623/0x0100D09F), tag_num=0x04)
 17: 0x0153 [0x92] Selh'teus (ID: 16830613/0x0100D095)->Render.Flags3 ^= 0x01
 18: 0x0159 [0x92] Louverance (ID: 16830614/0x0100D096)->Render.Flags3 ^= 0x01
 19: 0x015F [0x92] Jabbos (ID: 16830615/0x0100D097)->Render.Flags3 ^= 0x01
 20: 0x0165 [0x92] Makki-Chebukki (ID: 16830616/0x0100D098)->Render.Flags3 ^= 0x01
 21: 0x016B [0x92] Kukki-Chebukki (ID: 16830617/0x0100D099)->Render.Flags3 ^= 0x01
 22: 0x0171 [0x92] Cherukiki (ID: 16830618/0x0100D09A)->Render.Flags3 ^= 0x01
 23: 0x0177 [0x92] Chekochuk (ID: 16830619/0x0100D09B)->Render.Flags3 ^= 0x01
 24: 0x017D [0x92] Movamuq (ID: 16830620/0x0100D09C)->Render.Flags3 ^= 0x01
 25: 0x0183 [0x92] Trikotrak (ID: 16830621/0x0100D09D)->Render.Flags3 ^= 0x01
 26: 0x0189 [0x92] Swipostik (ID: 16830622/0x0100D09E)->Render.Flags3 ^= 0x01
 27: 0x018F [0x27] REQ_SET(priority=0x10, entity_id=LocalPlayer, tag_num=0x07)
 28: 0x0196 [0x27] REQ_SET(priority=0x10, entity_id=Selh'teus (ID: 16830613/0x0100D095), tag_num=0x0C)
 29: 0x019D [0x27] REQ_SET(priority=0x10, entity_id=Louverance (ID: 16830614/0x0100D096), tag_num=0x0D)
 30: 0x01A4 [0x27] REQ_SET(priority=0x10, entity_id=Jabbos (ID: 16830615/0x0100D097), tag_num=0x0D)
 31: 0x01AB [0x27] REQ_SET(priority=0x10, entity_id=Makki-Chebukki (ID: 16830616/0x0100D098), tag_num=0x0C)
 32: 0x01B2 [0x27] REQ_SET(priority=0x10, entity_id=Kukki-Chebukki (ID: 16830617/0x0100D099), tag_num=0x0C)
 33: 0x01B9 [0x27] REQ_SET(priority=0x10, entity_id=Cherukiki (ID: 16830618/0x0100D09A), tag_num=0x0C)
 34: 0x01C0 [0x27] REQ_SET(priority=0x10, entity_id=Chekochuk (ID: 16830619/0x0100D09B), tag_num=0x0D)
 35: 0x01C7 [0x27] REQ_SET(priority=0x10, entity_id=Movamuq (ID: 16830620/0x0100D09C), tag_num=0x0D)
 36: 0x01CE [0x27] REQ_SET(priority=0x10, entity_id=Trikotrak (ID: 16830621/0x0100D09D), tag_num=0x0D)
 37: 0x01D5 [0x27] REQ_SET(priority=0x10, entity_id=Swipostik (ID: 16830622/0x0100D09E), tag_num=0x0D)
 38: 0x01DC [0x27] REQ_SET(priority=0x10, entity_id=Unnamed NPC (ID: 16830623/0x0100D09F), tag_num=0x0C)
 39: 0x01E3 [0x1C] WAIT(15* ticks)
 40: 0x01E6 [0x80] LOAD_WAIT(entity=LocalPlayer)
 41: 0x01EB [0x80] LOAD_WAIT(entity=Louverance (ID: 16830614/0x0100D096))
 42: 0x01F0 [0x80] LOAD_WAIT(entity=Chekochuk (ID: 16830619/0x0100D09B))
 43: 0x01F5 [0x80] LOAD_WAIT(entity=Movamuq (ID: 16830620/0x0100D09C))
 44: 0x01FA [0x80] LOAD_WAIT(entity=Trikotrak (ID: 16830621/0x0100D09D))
 45: 0x01FF [0x80] LOAD_WAIT(entity=Swipostik (ID: 16830622/0x0100D09E))
 46: 0x0204 [0x1C] WAIT(15* ticks)
 47: 0x0207 [0x27] REQ_SET(priority=0x10, entity_id=Unnamed NPC (ID: 16830611/0x0100D093), tag_num=0x03)
 48: 0x020E [0x5B] LOAD_EXT_SCHEDULER: Load scheduler "gb00" with entities [Louverance (ID: 16830614/0x0100D096), Louverance (ID: 16830614/0x0100D096)], work=419*
 49: 0x021D [0x1C] WAIT(15* ticks)
 50: 0x0220 [0x5C] MUSIC_CONTROL: Set Idle (Day) music to song 221*
 51: 0x0224 [0x5C] MUSIC_CONTROL: Set Idle (Night) music to song 221*
 52: 0x0228 [0x5C] MUSIC_CONTROL: Set Combat (Solo) music to song 221*
 53: 0x022C [0x5C] MUSIC_CONTROL: Set Combat (Party) music to song 221*
 54: 0x0230 [0x9A] WAIT_MUSIC_SERVER()
 55: 0x0231 [0x45] LOAD_SCHEDULED_TASK: Load scheduler "gs00" with entities [LocalPlayer, LocalPlayer], work=[179*, 0*]
 56: 0x0242 [0x1A] CALL_SUBROUTINE(address=0x34C3)
 57: 0x0245 [0x55] WAIT_LOAD_SCHEDULER: Wait for scheduler "gs00" with entities [LocalPlayer, LocalPlayer], work=179*
 58: 0x0254 [0x45] LOAD_SCHEDULED_TASK: Load scheduler "gs01" with entities [LocalPlayer, LocalPlayer], work=[179*, 0*]
 59: 0x0265 [0x2B] Chekochuk (ID: 16830619/0x0100D09B) [7610*]:
    → "Promathia's Reborn! Promathia's Reborn! He's stronger than stupid Hume Hume! He's more powerful than ugly goddess goddess!"
 60: 0x026C [0x23] WAIT_FOR_DIALOG_INTERACTION
 61: 0x026D [0x52] END_LOAD_SCHEDULER: End scheduler "gs01" with entities [LocalPlayer, LocalPlayer], work=179*
 62: 0x027C [0x45] LOAD_SCHEDULED_TASK: Load scheduler "gs02" with entities [LocalPlayer, LocalPlayer], work=[179*, 0*]
 63: 0x028D [0x2B] Movamuq (ID: 16830620/0x0100D09C) [7611*]:
    → "Weee'll taaake hiiim! Mooobliiins dooon't breeeak prooomiiises! Weee'll taaake hiiim tooo spaaarkly plaaace!"
 64: 0x0294 [0x23] WAIT_FOR_DIALOG_INTERACTION
 65: 0x0295 [0x52] END_LOAD_SCHEDULER: End scheduler "gs02" with entities [LocalPlayer, LocalPlayer], work=179*
 66: 0x02A4 [0x45] LOAD_SCHEDULED_TASK: Load scheduler "gs03" with entities [LocalPlayer, LocalPlayer], work=[179*, 0*]
 67: 0x02B5 [0x2B] Trikotrak (ID: 16830621/0x0100D09D) [7612*]:
    → "Ys! Sprkly plc! Fr t th nrth! Undr wtr! Trmr csd cv t fll wth rcks..."
 68: 0x02BC [0x23] WAIT_FOR_DIALOG_INTERACTION
 69: 0x02BD [0x52] END_LOAD_SCHEDULER: End scheduler "gs03" with entities [LocalPlayer, LocalPlayer], work=179*
 70: 0x02CC [0x45] LOAD_SCHEDULED_TASK: Load scheduler "gs04" with entities [LocalPlayer, LocalPlayer], work=[179*, 0*]
 71: 0x02DD [0x2B] Swipostik (ID: 16830622/0x0100D09E) [7613*]:
    → "But's we's dig's! Moblins's don't's break's promises's! We's take's Promathia's to's sparkly's place's!"
 72: 0x02E4 [0x23] WAIT_FOR_DIALOG_INTERACTION
 73: 0x02E5 [0x52] END_LOAD_SCHEDULER: End scheduler "gs04" with entities [LocalPlayer, LocalPlayer], work=179*
 74: 0x02F4 [0x45] LOAD_SCHEDULED_TASK: Load scheduler "gs05" with entities [LocalPlayer, LocalPlayer], work=[179*, 0*]
 75: 0x0305 [0x6B] STOP_AND_IDLE: Chekochuk (ID: 16830619/0x0100D09B) stops current action and resets to idle (animation="idl0")
 76: 0x030E [0x6B] STOP_AND_IDLE: Movamuq (ID: 16830620/0x0100D09C) stops current action and resets to idle (animation="idl0")
 77: 0x0317 [0x6B] STOP_AND_IDLE: Trikotrak (ID: 16830621/0x0100D09D) stops current action and resets to idle (animation="idl0")
 78: 0x0320 [0x6B] STOP_AND_IDLE: Swipostik (ID: 16830622/0x0100D09E) stops current action and resets to idle (animation="idl0")
 79: 0x0329 [0x1C] WAIT(60* ticks)
 80: 0x032C [0x2B] Louverance (ID: 16830614/0x0100D096) [7614*]:
    → "I never imagined we would meet Selh'teus in this place..."
 81: 0x0333 [0x23] WAIT_FOR_DIALOG_INTERACTION
 82: 0x0334 [0x52] END_LOAD_SCHEDULER: End scheduler "gs05" with entities [LocalPlayer, LocalPlayer], work=179*
 83: 0x0343 [0x45] LOAD_SCHEDULED_TASK: Load scheduler "gs06" with entities [LocalPlayer, LocalPlayer], work=[179*, 0*]
 84: 0x0354 [0x2B] Louverance (ID: 16830614/0x0100D096) [7615*]:
    → "However, what could these creatures be jabbering about...?"
 85: 0x035B [0x23] WAIT_FOR_DIALOG_INTERACTION
 86: 0x035C [0x27] REQ_SET(priority=0x10, entity_id=Jabbos (ID: 16830615/0x0100D097), tag_num=0x03)
 87: 0x0363 [0x2B] ??? (ID: 16830612/0x0100D094) [7616*]:
    → "Shoooowaaaa...."
 88: 0x036A [0x23] WAIT_FOR_DIALOG_INTERACTION
 89: 0x036B [0x5B] LOAD_EXT_SCHEDULER: Load scheduler "gb01" with entities [Louverance (ID: 16830614/0x0100D096), Louverance (ID: 16830614/0x0100D096)], work=419*
 90: 0x037A [0x52] END_LOAD_SCHEDULER: End scheduler "gs06" with entities [LocalPlayer, LocalPlayer], work=179*
 91: 0x0389 [0x45] LOAD_SCHEDULED_TASK: Load scheduler "gs07" with entities [LocalPlayer, LocalPlayer], work=[179*, 0*]
 92: 0x039A [0x4A] LocalPlayer looks at Jabbos (ID: 16830615/0x0100D097)
 93: 0x03A3 [0x55] WAIT_LOAD_SCHEDULER: Wait for scheduler "gs07" with entities [LocalPlayer, LocalPlayer], work=179*
 94: 0x03B2 [0x45] LOAD_SCHEDULED_TASK: Load scheduler "gs08" with entities [LocalPlayer, LocalPlayer], work=[179*, 0*]
 95: 0x03C3 [0x1C] WAIT(45* ticks)
 96: 0x03C6 [0x2B] Jabbos (ID: 16830615/0x0100D097) [7617*]:
    → "Who are you...people...?"
 97: 0x03CD [0x23] WAIT_FOR_DIALOG_INTERACTION
 98: 0x03CE [0x6E] Jabbos (ID: 16830615/0x0100D097) uses emote 0*
 99: 0x03D5 [0x99] Wait for Jabbos (ID: 16830615/0x0100D097) animation to complete
100: 0x03DA [0x2B] Jabbos (ID: 16830615/0x0100D097) [7618*]:
    → "Do you know...who that boy...is?"
101: 0x03E1 [0x23] WAIT_FOR_DIALOG_INTERACTION
102: 0x03E2 [0x99] Wait for Jabbos (ID: 16830615/0x0100D097) animation to complete
103: 0x03E7 [0x52] END_LOAD_SCHEDULER: End scheduler "gs08" with entities [LocalPlayer, LocalPlayer], work=179*
104: 0x03F6 [0x45] LOAD_SCHEDULED_TASK: Load scheduler "gs09" with entities [LocalPlayer, LocalPlayer], work=[179*, 0*]
105: 0x0407 [0x5B] LOAD_EXT_SCHEDULER: Load scheduler "gb02" with entities [Louverance (ID: 16830614/0x0100D096), Louverance (ID: 16830614/0x0100D096)], work=419*
106: 0x0416 [0x1C] WAIT(60* ticks)
107: 0x0419 [0x2B] Louverance (ID: 16830614/0x0100D096) [7619*]:
    → "A Galka...?"
108: 0x0420 [0x23] WAIT_FOR_DIALOG_INTERACTION
109: 0x0421 [0x2B] Jabbos (ID: 16830615/0x0100D097) [7620*]:
    → "I am...Jabbos... I have lived...with the Moblins...for a long, long time..."
110: 0x0428 [0x23] WAIT_FOR_DIALOG_INTERACTION
111: 0x0429 [0x2B] Jabbos (ID: 16830615/0x0100D097) [7621*]:
    → "A long time...in peace..."
112: 0x0430 [0x23] WAIT_FOR_DIALOG_INTERACTION
113: 0x0431 [0x66] LOAD_EXT_SCHEDULER_MAIN: Load scheduler "tlk0" with entities [Jabbos (ID: 16830615/0x0100D097), Jabbos (ID: 16830615/0x0100D097)], work=69*
114: 0x0440 [0x52] END_LOAD_SCHEDULER: End scheduler "gs09" with entities [LocalPlayer, LocalPlayer], work=179*
115: 0x044F [0x45] LOAD_SCHEDULED_TASK: Load scheduler "gs10" with entities [LocalPlayer, LocalPlayer], work=[179*, 0*]
116: 0x0460 [0x27] REQ_SET(priority=0x10, entity_id=Louverance (ID: 16830614/0x0100D096), tag_num=0x0E)
117: 0x0467 [0x2B] Jabbos (ID: 16830615/0x0100D097) [7622*]:
    → "But lately... The Moblins...act strangely..."
118: 0x046E [0x23] WAIT_FOR_DIALOG_INTERACTION
119: 0x046F [0x2B] Jabbos (ID: 16830615/0x0100D097) [7623*]:
    → "They praise the Twilight...God... They attack...the children of Altana..."
120: 0x0476 [0x23] WAIT_FOR_DIALOG_INTERACTION
121: 0x0477 [0x2B] Jabbos (ID: 16830615/0x0100D097) [7624*]:
    → "But I'll...stop them... I promise... Moblins...don't break...promises..."
122: 0x047E [0x23] WAIT_FOR_DIALOG_INTERACTION
123: 0x047F [0x2B] Jabbos (ID: 16830615/0x0100D097) [7625*]:
    → "Now go... Leave...the rest to...me..."
124: 0x0486 [0x23] WAIT_FOR_DIALOG_INTERACTION
125: 0x0487 [0x66] LOAD_EXT_SCHEDULER_MAIN: Load scheduler "tlk1" with entities [Jabbos (ID: 16830615/0x0100D097), Jabbos (ID: 16830615/0x0100D097)], work=69*
126: 0x0496 [0x52] END_LOAD_SCHEDULER: End scheduler "gs10" with entities [LocalPlayer, LocalPlayer], work=179*
127: 0x04A5 [0x45] LOAD_SCHEDULED_TASK: Load scheduler "gs11" with entities [LocalPlayer, LocalPlayer], work=[179*, 0*]
128: 0x04B6 [0x66] LOAD_EXT_SCHEDULER_MAIN: Load scheduler "tlk0" with entities [Louverance (ID: 16830614/0x0100D096), Louverance (ID: 16830614/0x0100D096)], work=29*
129: 0x04C5 [0x2B] Louverance (ID: 16830614/0x0100D096) [7626*]:
    → "But..."
130: 0x04CC [0x23] WAIT_FOR_DIALOG_INTERACTION
131: 0x04CD [0x66] LOAD_EXT_SCHEDULER_MAIN: Load scheduler "tlk1" with entities [Louverance (ID: 16830614/0x0100D096), Louverance (ID: 16830614/0x0100D096)], work=29*
132: 0x04DC [0x5C] MUSIC_CONTROL: Set Idle (Day) music to song 220*
133: 0x04E0 [0x5C] MUSIC_CONTROL: Set Idle (Night) music to song 220*
134: 0x04E4 [0x5C] MUSIC_CONTROL: Set Combat (Solo) music to song 220*
135: 0x04E8 [0x5C] MUSIC_CONTROL: Set Combat (Party) music to song 220*
136: 0x04EC [0x9A] WAIT_MUSIC_SERVER()
137: 0x04ED [0x27] REQ_SET(priority=0x10, entity_id=Makki-Chebukki (ID: 16830616/0x0100D098), tag_num=0x0D)
138: 0x04F4 [0x27] REQ_SET(priority=0x10, entity_id=Kukki-Chebukki (ID: 16830617/0x0100D099), tag_num=0x0D)
139: 0x04FB [0x27] REQ_SET(priority=0x10, entity_id=Cherukiki (ID: 16830618/0x0100D09A), tag_num=0x0D)
140: 0x0502 [0x52] END_LOAD_SCHEDULER: End scheduler "gs11" with entities [LocalPlayer, LocalPlayer], work=179*
141: 0x0511 [0x45] LOAD_SCHEDULED_TASK: Load scheduler "gs12" with entities [LocalPlayer, LocalPlayer], work=[179*, 0*]
142: 0x0522 [0x2B] Makki-Chebukki (ID: 16830616/0x0100D098) [7627*]:
    → "Out of the way! Makki's coming through!"
143: 0x0529 [0x1C] WAIT(30* ticks)
144: 0x052C [0x27] REQ_SET(priority=0x10, entity_id=Jabbos (ID: 16830615/0x0100D097), tag_num=0x0E)
145: 0x0533 [0x2B] Kukki-Chebukki (ID: 16830617/0x0100D099) [7628*]:
    → "Out of the way! Kukki's coming through, too!"
146: 0x053A [0x23] WAIT_FOR_DIALOG_INTERACTION
147: 0x053B [0x2B] Jabbos (ID: 16830615/0x0100D097) [7629*]:
    → "!?"
148: 0x0542 [0x23] WAIT_FOR_DIALOG_INTERACTION
149: 0x0543 [0x52] END_LOAD_SCHEDULER: End scheduler "gs12" with entities [LocalPlayer, LocalPlayer], work=179*
150: 0x0552 [0x45] LOAD_SCHEDULED_TASK: Load scheduler "gs13" with entities [LocalPlayer, LocalPlayer], work=[179*, 0*]
151: 0x0563 [0x2B] Louverance (ID: 16830614/0x0100D096) [7630*]:
    → "Wait right there! Why, you are those pesky children from Tavnazia!"
152: 0x056A [0x23] WAIT_FOR_DIALOG_INTERACTION
153: 0x056B [0x52] END_LOAD_SCHEDULER: End scheduler "gs13" with entities [LocalPlayer, LocalPlayer], work=179*
154: 0x057A [0x45] LOAD_SCHEDULED_TASK: Load scheduler "gs14" with entities [LocalPlayer, LocalPlayer], work=[179*, 0*]
155: 0x058B [0x5B] LOAD_EXT_SCHEDULER: Load scheduler "bik0" with entities [Cherukiki (ID: 16830618/0x0100D09A), Cherukiki (ID: 16830618/0x0100D09A)], work=341*
156: 0x059A [0x2B] Cherukiki (ID: 16830618/0x0100D09A) [7631*]:
    → "Whoa! It's the funny-looking boy!"
157: 0x05A1 [0x23] WAIT_FOR_DIALOG_INTERACTION
158: 0x05A2 [0x5B] LOAD_EXT_SCHEDULER: Load scheduler "iro0" with entities [Kukki-Chebukki (ID: 16830617/0x0100D099), Kukki-Chebukki (ID: 16830617/0x0100D099)], work=336*
159: 0x05B1 [0x2B] Kukki-Chebukki (ID: 16830617/0x0100D099) [7632*]:
    → "Whoa! I told you we shouldn't have taken that shortcut!"
160: 0x05B8 [0x23] WAIT_FOR_DIALOG_INTERACTION
161: 0x05B9 [0x5B] LOAD_EXT_SCHEDULER: Load scheduler "bik1" with entities [Cherukiki (ID: 16830618/0x0100D09A), Cherukiki (ID: 16830618/0x0100D09A)], work=341*
162: 0x05C8 [0x5B] LOAD_EXT_SCHEDULER: Load scheduler "wai0" with entities [Makki-Chebukki (ID: 16830616/0x0100D098), Makki-Chebukki (ID: 16830616/0x0100D098)], work=336*
163: 0x05D7 [0x2B] Makki-Chebukki (ID: 16830616/0x0100D098) [7633*]:
    → "Whoa! Who cares? Let's catch him!"
164: 0x05DE [0x23] WAIT_FOR_DIALOG_INTERACTION
165: 0x05DF [0x1C] WAIT(30* ticks)
166: 0x05E2 [0x5B] LOAD_EXT_SCHEDULER: Load scheduler "gogo" with entities [Makki-Chebukki (ID: 16830616/0x0100D098), Makki-Chebukki (ID: 16830616/0x0100D098)], work=441*
167: 0x05F1 [0x5B] LOAD_EXT_SCHEDULER: Load scheduler "gogo" with entities [Kukki-Chebukki (ID: 16830617/0x0100D099), Kukki-Chebukki (ID: 16830617/0x0100D099)], work=441*
168: 0x0600 [0x5B] LOAD_EXT_SCHEDULER: Load scheduler "gogo" with entities [Cherukiki (ID: 16830618/0x0100D09A), Cherukiki (ID: 16830618/0x0100D09A)], work=431*
169: 0x060F [0x1C] WAIT(120* ticks)
170: 0x0612 [0x52] END_LOAD_SCHEDULER: End scheduler "gs14" with entities [LocalPlayer, LocalPlayer], work=179*
171: 0x0621 [0x45] LOAD_SCHEDULED_TASK: Load scheduler "gs15" with entities [LocalPlayer, LocalPlayer], work=[179*, 0*]
172: 0x0632 [0x27] REQ_SET(priority=0x10, entity_id=Makki-Chebukki (ID: 16830616/0x0100D098), tag_num=0x0E)
173: 0x0639 [0x27] REQ_SET(priority=0x10, entity_id=Kukki-Chebukki (ID: 16830617/0x0100D099), tag_num=0x0E)
174: 0x0640 [0x27] REQ_SET(priority=0x10, entity_id=Cherukiki (ID: 16830618/0x0100D09A), tag_num=0x0E)
175: 0x0647 [0x1C] WAIT(150* ticks)
176: 0x064A [0x4A] Jabbos (ID: 16830615/0x0100D097) looks at Makki-Chebukki (ID: 16830616/0x0100D098)
177: 0x0653 [0x4A] LocalPlayer looks at Makki-Chebukki (ID: 16830616/0x0100D098)
178: 0x065C [0x79] Louverance (ID: 16830614/0x0100D096) looks at LocalPlayer (Basic look)
179: 0x0666 [0x2B] Louverance (ID: 16830614/0x0100D096) [7634*]:
    → "<Player>! This is a perfect opportunity to take Selh'teus into custody. We cannot pass it up!"
180: 0x066D [0x23] WAIT_FOR_DIALOG_INTERACTION
181: 0x066E [0x52] END_LOAD_SCHEDULER: End scheduler "gs15" with entities [LocalPlayer, LocalPlayer], work=179*
182: 0x067D [0x45] LOAD_SCHEDULED_TASK: Load scheduler "gs16" with entities [LocalPlayer, LocalPlayer], work=[179*, 0*]
183: 0x068E [0x27] REQ_SET(priority=0x10, entity_id=Louverance (ID: 16830614/0x0100D096), tag_num=0x0F)
184: 0x0695 [0x1C] WAIT(60* ticks)
185: 0x0698 [0x1A] CALL_SUBROUTINE(address=0x34E4)
186: 0x069B [0x1C] WAIT(30* ticks)
187: 0x069E [0x46] CAMERA_CONTROL: Restore default settings
188: 0x06A0 [0x45] LOAD_SCHEDULED_TASK: Load scheduler "fdi2" with entities [LocalPlayer, LocalPlayer], work=[200*, 0*]
189: 0x06B1 [0x21] END_EVENT
190: 0x06B2 [0x00] END_REQSTACK()
```

### Event 2

#### Metadata

| Field        | Value      |
|--------------|------------|
| Entrypoint   | 0x06B3     |
| Data Size    | 3701 bytes |
| Instructions | 424        |

```
      00 01 02 03 04 05 06 07  08 09 0A 0B 0C 0D 0E 0F
      -- -- -- -- -- -- -- --  -- -- -- -- -- -- -- --
06B0:          42 1A E4 34 5C  00 2B 80 5C 01 2B 80 5C     B..4\.+.\.+.\
06C0: 02 2B 80 5C 03 2B 80 9A  46 01 38 11 80 1C 12 80  .+.\.+..F.8.....
06D0: 79 00 F0 FF FF 7F F0 FF  FF 7F 27 10 95 D0 00 01  y.........'.....
06E0: 02 27 10 96 D0 00 01 04  27 10 97 D0 00 01 02 27  .'......'......'
06F0: 10 98 D0 00 01 04 27 10  99 D0 00 01 04 27 10 9A  ......'......'..
0700: D0 00 01 04 27 10 9B D0  00 01 04 27 10 9C D0 00  ....'......'....
0710: 01 04 27 10 9D D0 00 01  04 27 10 9E D0 00 01 04  ..'......'......
0720: 27 10 A1 D0 00 01 04 27  10 A2 D0 00 01 02 92 01  '......'........
0730: 95 D0 00 01 92 01 96 D0  00 01 92 01 97 D0 00 01  ................
0740: 92 01 98 D0 00 01 92 01  99 D0 00 01 92 01 9A D0  ................
0750: 00 01 92 01 9B D0 00 01  92 01 9C D0 00 01 92 01  ................
0760: 9D D0 00 01 92 01 9E D0  00 01 27 10 F0 FF FF 7F  ..........'.....
0770: 08 27 10 96 D0 00 01 10  27 10 97 D0 00 01 0F 27  .'......'......'
0780: 10 98 D0 00 01 0F 27 10  99 D0 00 01 0F 27 10 9A  ......'......'..
0790: D0 00 01 0F 27 10 9B D0  00 01 0E 27 10 9C D0 00  ....'......'....
07A0: 01 0E 27 10 9D D0 00 01  0E 27 10 9E D0 00 01 0E  ..'......'......
07B0: 27 10 A1 D0 00 01 0B 27  10 A2 D0 00 01 0A 1C 12  '......'........
07C0: 80 80 F0 FF FF 7F 5B 3C  80 A1 D0 00 01 A1 D0 00  ......[<........
07D0: 01 00 FE FE FE 5B 3C 80  97 D0 00 01 97 D0 00 01  .....[<.........
07E0: 62 6F 6D 6C 5B 36 80 98  D0 00 01 98 D0 00 01 64  boml[6.........d
07F0: 66 6D 30 2C 9E D0 00 01  9E D0 00 01 63 6F 72 70  fm0,........corp
0800: 2C 9C D0 00 01 9C D0 00  01 63 6F 72 70 2C 9D D0  ,........corp,..
0810: 00 01 9D D0 00 01 63 6F  72 70 1C 12 80 45 15 80  ......corp...E..
0820: F0 FF FF 7F F0 FF FF 7F  65 78 30 30 01 80 1A C3  ........ex00....
0830: 34 1C 2D 80 2C 9B D0 00  01 9B D0 00 01 64 65 61  4.-.,........dea
0840: 64 55 15 80 F0 FF FF 7F  F0 FF FF 7F 65 78 30 30  dU..........ex00
0850: 45 15 80 F0 FF FF 7F F0  FF FF 7F 65 78 30 31 01  E..........ex01.
0860: 80 2B 98 D0 00 01 3D 80  23 5B 36 80 99 D0 00 01  .+....=.#[6.....
0870: 99 D0 00 01 64 66 6B 30  2B 99 D0 00 01 3E 80 23  ....dfk0+....>.#
0880: 52 15 80 F0 FF FF 7F F0  FF FF 7F 65 78 30 31 45  R..........ex01E
0890: 15 80 F0 FF FF 7F F0 FF  FF 7F 65 78 30 32 01 80  ..........ex02..
08A0: 5B 37 80 9A D0 00 01 9A  D0 00 01 75 73 69 30 2B  [7.........usi0+
08B0: 9A D0 00 01 3F 80 23 1A  E4 34 1C 2D 80 27 10 A1  ....?.#..4.-.'..
08C0: D0 00 01 0C 45 15 80 F0  FF FF 7F F0 FF FF 7F 67  ....E..........g
08D0: 74 30 30 01 80 1A C3 34  2B 97 D0 00 01 40 80 5B  t00....4+....@.[
08E0: 36 80 98 D0 00 01 98 D0  00 01 66 75 6B 30 5B 36  6.........fuk0[6
08F0: 80 99 D0 00 01 99 D0 00  01 66 75 6B 30 5B 37 80  .........fuk0[7.
0900: 9A D0 00 01 9A D0 00 01  66 75 6B 30 2A 10 A1 D0  ........fuk0*...
0910: 00 01 5D 01 80 41 80 45  15 80 F0 FF FF 7F F0 FF  ..]..A.E........
0920: FF 7F 67 74 30 31 01 80  9F 42 80 A1 D0 00 01 A2  ..gt01...B......
0930: D0 00 01 6D 61 69 6E 01  80 1C 43 80 52 15 80 F0  ...main...C.R...
0940: FF FF 7F F0 FF FF 7F 67  74 30 31 45 15 80 F0 FF  .......gt01E....
0950: FF 7F F0 FF FF 7F 67 74  30 32 01 80 27 10 93 D0  ......gt02..'...
0960: 00 01 02 5B 44 80 96 D0  00 01 96 D0 00 01 67 72  ...[D.........gr
0970: 64 30 45 15 80 F0 FF FF  7F F0 FF FF 7F 73 32 38  d0E..........s28
0980: 39 01 80 1C 45 80 5B 36  80 98 D0 00 01 98 D0 00  9...E.[6........
0990: 01 66 75 6B 31 5B 36 80  99 D0 00 01 99 D0 00 01  .fuk1[6.........
09A0: 66 75 6B 31 5B 37 80 9A  D0 00 01 9A D0 00 01 66  fuk1[7.........f
09B0: 75 6B 31 2B 98 D0 00 01  46 80 23 55 15 80 F0 FF  uk1+....F.#U....
09C0: FF 7F F0 FF FF 7F 67 74  30 32 1C 2D 80 1A E4 34  ......gt02.-...4
09D0: 1A 05 35 27 10 9F D0 00  01 04 27 10 F0 FF FF 7F  ..5'......'.....
09E0: 09 27 10 95 D0 00 01 0E  27 10 96 D0 00 01 11 27  .'......'......'
09F0: 10 97 D0 00 01 10 27 10  98 D0 00 01 10 27 10 99  ......'......'..
0A00: D0 00 01 10 27 10 9A D0  00 01 10 27 10 9B D0 00  ....'......'....
0A10: 01 0F 27 10 9C D0 00 01  0F 27 10 9D D0 00 01 0F  ..'......'......
0A20: 27 10 9E D0 00 01 0F 27  10 9F D0 00 01 0E 27 10  '......'......'.
0A30: 95 D0 00 01 03 1C 2D 80  5C 00 14 80 5C 01 14 80  ......-.\...\...
0A40: 5C 02 14 80 5C 03 14 80  9A 45 15 80 F0 FF FF 7F  \...\....E......
0A50: F0 FF FF 7F 67 30 30 30  01 80 45 3B 80 F0 FF FF  ....g000..E;....
0A60: 7F F0 FF FF 7F 66 64 69  32 01 80 1C 1A 80 5B 47  .....fdi2.....[G
0A70: 80 9A D0 00 01 9A D0 00  01 7A 69 74 30 2B 9A D0  .........zit0+..
0A80: 00 01 48 80 23 4A 9B D0  00 01 98 D0 00 01 52 15  ..H.#J........R.
0A90: 80 F0 FF FF 7F F0 FF FF  7F 67 30 30 30 45 15 80  .........g000E..
0AA0: F0 FF FF 7F F0 FF FF 7F  67 30 30 32 01 80 2B 9B  ........g002..+.
0AB0: D0 00 01 49 80 23 52 15  80 F0 FF FF 7F F0 FF FF  ...I.#R.........
0AC0: 7F 67 30 30 32 45 15 80  F0 FF FF 7F F0 FF FF 7F  .g002E..........
0AD0: 74 72 30 30 01 80 5B 33  80 99 D0 00 01 99 D0 00  tr00..[3........
0AE0: 01 69 72 6F 30 2B 99 D0  00 01 4A 80 23 5B 33 80  .iro0+....J.#[3.
0AF0: 98 D0 00 01 98 D0 00 01  73 79 75 30 2B 98 D0 00  ........syu0+...
0B00: 01 4B 80 23 5B 4C 80 9B  D0 00 01 9B D0 00 01 61  .K.#[L.........a
0B10: 6E 67 30 52 15 80 F0 FF  FF 7F F0 FF FF 7F 74 72  ng0R..........tr
0B20: 30 30 45 15 80 F0 FF FF  7F F0 FF FF 7F 67 62 30  00E..........gb0
0B30: 30 01 80 81 00 98 D0 00  01 81 00 99 D0 00 01 81  0...............
0B40: 00 9A D0 00 01 5B 4D 80  98 D0 00 01 98 D0 00 01  .....[M.........
0B50: 63 72 79 30 5B 4D 80 99  D0 00 01 99 D0 00 01 63  cry0[M.........c
0B60: 72 79 30 5B 4E 80 9A D0  00 01 9A D0 00 01 63 72  ry0[N.........cr
0B70: 79 30 2B 9B D0 00 01 4F  80 23 5B 4C 80 9B D0 00  y0+....O.#[L....
0B80: 01 9B D0 00 01 61 6E 67  31 66 29 80 96 D0 00 01  .....ang1f).....
0B90: 96 D0 00 01 74 68 6B 31  52 15 80 F0 FF FF 7F F0  ....thk1R.......
0BA0: FF FF 7F 67 62 30 30 45  15 80 F0 FF FF 7F F0 FF  ...gb00E........
0BB0: FF 7F 67 30 30 33 01 80  1C 2D 80 2B 96 D0 00 01  ..g003...-.+....
0BC0: 50 80 23 52 15 80 F0 FF  FF 7F F0 FF FF 7F 67 30  P.#R..........g0
0BD0: 30 33 45 15 80 F0 FF FF  7F F0 FF FF 7F 67 30 30  03E..........g00
0BE0: 34 01 80 29 10 97 D0 00  01 11 2B 97 D0 00 01 51  4..)......+....Q
0BF0: 80 23 4A 9B D0 00 01 97  D0 00 01 2B 9B D0 00 01  .#J........+....
0C00: 52 80 23 66 29 80 96 D0  00 01 96 D0 00 01 74 68  R.#f).........th
0C10: 6B 32 6E 97 D0 00 01 01  80 99 97 D0 00 01 52 15  k2n...........R.
0C20: 80 F0 FF FF 7F F0 FF FF  7F 67 30 30 34 45 15 80  .........g004E..
0C30: F0 FF FF 7F F0 FF FF 7F  67 30 30 35 01 80 79 00  ........g005..y.
0C40: 95 D0 00 01 97 D0 00 01  2B 97 D0 00 01 53 80 23  ........+....S.#
0C50: 99 97 D0 00 01 2B 97 D0  00 01 54 80 23 4A 9C D0  .....+....T.#J..
0C60: 00 01 97 D0 00 01 52 15  80 F0 FF FF 7F F0 FF FF  ......R.........
0C70: 7F 67 30 30 35 45 15 80  F0 FF FF 7F F0 FF FF 7F  .g005E..........
0C80: 67 30 30 36 01 80 2B 9C  D0 00 01 55 80 23 6E 97  g006..+....U.#n.
0C90: D0 00 01 56 80 99 97 D0  00 01 2B 97 D0 00 01 57  ...V......+....W
0CA0: 80 23 99 97 D0 00 01 52  15 80 F0 FF FF 7F F0 FF  .#.....R........
0CB0: FF 7F 67 30 30 36 45 15  80 F0 FF FF 7F F0 FF FF  ..g006E.........
0CC0: 7F 67 30 30 37 01 80 5B  4C 80 9E D0 00 01 9E D0  .g007..[L.......
0CD0: 00 01 66 75 6D 30 2B 9E  D0 00 01 58 80 23 52 15  ..fum0+....X.#R.
0CE0: 80 F0 FF FF 7F F0 FF FF  7F 67 30 30 37 45 15 80  .........g007E..
0CF0: F0 FF FF 7F F0 FF FF 7F  67 30 30 38 01 80 5B 59  ........g008..[Y
0D00: 80 9B D0 00 01 9B D0 00  01 74 6C 6B 30 2B 9B D0  .........tlk0+..
0D10: 00 01 5A 80 23 5B 59 80  9B D0 00 01 9B D0 00 01  ..Z.#[Y.........
0D20: 74 6C 6B 31 2B 9B D0 00  01 5B 80 23 52 15 80 F0  tlk1+....[.#R...
0D30: FF FF 7F F0 FF FF 7F 67  30 30 38 45 15 80 F0 FF  .......g008E....
0D40: FF 7F F0 FF FF 7F 67 30  30 39 01 80 6B 69 64 6C  ......g009..kidl
0D50: 30 9B D0 00 01 5B 4C 80  9E D0 00 01 9E D0 00 01  0....[L.........
0D60: 66 75 6D 31 2B 97 D0 00  01 5C 80 23 6B 69 64 6C  fum1+....\.#kidl
0D70: 30 98 D0 00 01 6B 69 64  6C 30 99 D0 00 01 6B 69  0....kidl0....ki
0D80: 64 6C 30 9A D0 00 01 81  01 98 D0 00 01 81 01 99  dl0.............
0D90: D0 00 01 81 01 9A D0 00  01 52 15 80 F0 FF FF 7F  .........R......
0DA0: F0 FF FF 7F 67 30 30 39  45 15 80 F0 FF FF 7F F0  ....g009E.......
0DB0: FF FF 7F 67 30 31 30 01  80 66 24 80 97 D0 00 01  ...g010..f$.....
0DC0: 97 D0 00 01 74 6C 6B 30  2B 97 D0 00 01 5D 80 23  ....tlk0+....].#
0DD0: 66 24 80 97 D0 00 01 97  D0 00 01 74 6C 6B 31 52  f$.........tlk1R
0DE0: 15 80 F0 FF FF 7F F0 FF  FF 7F 67 30 31 30 45 15  ..........g010E.
0DF0: 80 F0 FF FF 7F F0 FF FF  7F 67 30 31 31 01 80 5B  .........g011..[
0E00: 59 80 9B D0 00 01 9B D0  00 01 74 6C 6B 30 7B 95  Y.........tlk0{.
0E10: D0 00 01 2B 9B D0 00 01  5E 80 23 52 15 80 F0 FF  ...+....^.#R....
0E20: FF 7F F0 FF FF 7F 67 30  31 31 45 15 80 F0 FF FF  ......g011E.....
0E30: 7F F0 FF FF 7F 67 30 31  32 01 80 6B 69 64 6C 30  .....g012..kidl0
0E40: 9B D0 00 01 5B 4C 80 9D  D0 00 01 9D D0 00 01 66  ....[L.........f
0E50: 75 6D 30 2B 9D D0 00 01  5F 80 23 5B 4C 80 9C D0  um0+...._.#[L...
0E60: 00 01 9C D0 00 01 61 6E  67 30 2B 9C D0 00 01 60  ......ang0+....`
0E70: 80 23 2B 9C D0 00 01 61  80 23 2B 9C D0 00 01 62  .#+....a.#+....b
0E80: 80 23 5B 4C 80 9C D0 00  01 9C D0 00 01 61 6E 67  .#[L.........ang
0E90: 31 52 15 80 F0 FF FF 7F  F0 FF FF 7F 67 30 31 32  1R..........g012
0EA0: 45 15 80 F0 FF FF 7F F0  FF FF 7F 74 72 30 30 01  E..........tr00.
0EB0: 80 5B 63 80 98 D0 00 01  98 D0 00 01 62 69 6B 30  .[c.........bik0
0EC0: 2B 98 D0 00 01 64 80 23  5B 63 80 99 D0 00 01 99  +....d.#[c......
0ED0: D0 00 01 6D 73 75 30 5B  31 80 9A D0 00 01 9A D0  ...msu0[1.......
0EE0: 00 01 6D 73 75 30 2B 99  D0 00 01 65 80 23 52 15  ..msu0+....e.#R.
0EF0: 80 F0 FF FF 7F F0 FF FF  7F 74 72 30 30 45 15 80  .........tr00E..
0F00: F0 FF FF 7F F0 FF FF 7F  67 30 31 33 01 80 5B 63  ........g013..[c
0F10: 80 98 D0 00 01 98 D0 00  01 62 69 6B 31 5B 63 80  .........bik1[c.
0F20: 99 D0 00 01 99 D0 00 01  6D 73 75 31 5B 31 80 9A  ........msu1[1..
0F30: D0 00 01 9A D0 00 01 6D  73 75 31 4A 97 D0 00 01  .......msu1J....
0F40: 98 D0 00 01 4A 9B D0 00  01 98 D0 00 01 4A 9C D0  ....J........J..
0F50: 00 01 98 D0 00 01 5B 4C  80 9D D0 00 01 9D D0 00  ......[L........
0F60: 01 66 75 6D 31 2B 97 D0  00 01 66 80 23 52 15 80  .fum1+....f.#R..
0F70: F0 FF FF 7F F0 FF FF 7F  67 30 31 33 45 15 80 F0  ........g013E...
0F80: FF FF 7F F0 FF FF 7F 67  30 31 34 01 80 5B 4C 80  .......g014..[L.
0F90: 9B D0 00 01 9B D0 00 01  62 69 6B 30 2B 9B D0 00  ........bik0+...
0FA0: 01 67 80 23 52 15 80 F0  FF FF 7F F0 FF FF 7F 67  .g.#R..........g
0FB0: 30 31 34 45 15 80 F0 FF  FF 7F F0 FF FF 7F 67 30  014E..........g0
0FC0: 31 35 01 80 5B 4C 80 9C  D0 00 01 9C D0 00 01 62  15..[L.........b
0FD0: 69 6B 30 2B 9C D0 00 01  68 80 23 52 15 80 F0 FF  ik0+....h.#R....
0FE0: FF 7F F0 FF FF 7F 67 30  31 35 45 15 80 F0 FF FF  ......g015E.....
0FF0: 7F F0 FF FF 7F 74 72 30  31 01 80 5B 36 80 98 D0  .....tr01..[6...
1000: 00 01 98 D0 00 01 64 66  6D 30 2B 98 D0 00 01 69  ......dfm0+....i
1010: 80 23 5B 36 80 99 D0 00  01 99 D0 00 01 64 66 6B  .#[6.........dfk
1020: 30 2B 99 D0 00 01 6A 80  23 5B 37 80 9A D0 00 01  0+....j.#[7.....
1030: 9A D0 00 01 64 66 63 30  2B 9A D0 00 01 6B 80 23  ....dfc0+....k.#
1040: 52 15 80 F0 FF FF 7F F0  FF FF 7F 74 72 30 31 45  R..........tr01E
1050: 15 80 F0 FF FF 7F F0 FF  FF 7F 67 30 31 36 01 80  ..........g016..
1060: 4A 9C D0 00 01 95 D0 00  01 5B 4C 80 9B D0 00 01  J........[L.....
1070: 9B D0 00 01 6D 6D 6D 30  2B 9B D0 00 01 6C 80 23  ....mmm0+....l.#
1080: 52 15 80 F0 FF FF 7F F0  FF FF 7F 67 30 31 36 45  R..........g016E
1090: 15 80 F0 FF FF 7F F0 FF  FF 7F 67 30 31 37 01 80  ..........g017..
10A0: 5B 4C 80 9E D0 00 01 9E  D0 00 01 6D 6D 6D 30 2B  [L.........mmm0+
10B0: 9E D0 00 01 6D 80 23 5B  4C 80 9D D0 00 01 9D D0  ....m.#[L.......
10C0: 00 01 6D 6D 6D 30 2B 9D  D0 00 01 6E 80 23 5B 4C  ..mmm0+....n.#[L
10D0: 80 9D D0 00 01 9D D0 00  01 6D 6D 6D 31 27 10 95  .........mmm1'..
10E0: D0 00 01 0F 52 15 80 F0  FF FF 7F F0 FF FF 7F 67  ....R..........g
10F0: 30 31 37 45 15 80 F0 FF  FF 7F F0 FF FF 7F 67 30  017E..........g0
1100: 31 38 01 80 4A 97 D0 00  01 95 D0 00 01 1C 38 80  18..J.........8.
1110: 5B 4C 80 9C D0 00 01 9C  D0 00 01 62 69 6B 30 2B  [L.........bik0+
1120: 9C D0 00 01 6F 80 23 4A  9D D0 00 01 95 D0 00 01  ....o.#J........
1130: 5B 4C 80 9D D0 00 01 9D  D0 00 01 62 69 6B 30 2B  [L.........bik0+
1140: 9D D0 00 01 70 80 23 52  15 80 F0 FF FF 7F F0 FF  ....p.#R........
1150: FF 7F 67 30 31 38 45 15  80 F0 FF FF 7F F0 FF FF  ..g018E.........
1160: 7F 67 30 31 39 01 80 27  10 9B D0 00 01 10 27 10  .g019..'......'.
1170: 9D D0 00 01 10 1C 2D 80  27 10 9C D0 00 01 10 1C  ......-.'.......
1180: 2D 80 27 10 9E D0 00 01  10 1C 2D 80 5B 33 80 98  -.'.......-.[3..
1190: D0 00 01 98 D0 00 01 7A  69 74 30 5B 33 80 99 D0  .......zit0[3...
11A0: 00 01 99 D0 00 01 7A 69  74 30 5B 47 80 9A D0 00  ......zit0[G....
11B0: 01 9A D0 00 01 7A 69 74  30 55 15 80 F0 FF FF 7F  .....zit0U......
11C0: F0 FF FF 7F 67 30 31 39  45 15 80 F0 FF FF 7F F0  ....g019E.......
11D0: FF FF 7F 74 72 30 31 01  80 2B 98 D0 00 01 71 80  ...tr01..+....q.
11E0: 23 2B 9A D0 00 01 72 80  23 52 15 80 F0 FF FF 7F  #+....r.#R......
11F0: F0 FF FF 7F 74 72 30 31  45 15 80 F0 FF FF 7F F0  ....tr01E.......
1200: FF FF 7F 67 30 32 30 01  80 79 00 97 D0 00 01 98  ...g020..y......
1210: D0 00 01 27 10 97 D0 00  01 12 1C 1A 80 2B 97 D0  ...'.........+..
1220: 00 01 73 80 1C 38 80 7B  97 D0 00 01 1A E4 34 1C  ..s..8.{......4.
1230: 1A 80 45 15 80 F0 FF FF  7F F0 FF FF 7F 73 30 31  ..E..........s01
1240: 31 01 80 55 15 80 F0 FF  FF 7F F0 FF FF 7F 67 30  1..U..........g0
1250: 32 30 6C 95 D0 00 01 01  80 02 80 6C 9B D0 00 01  20l........l....
1260: 01 80 02 80 6C 9C D0 00  01 01 80 02 80 6C 9D D0  ....l........l..
1270: 00 01 01 80 02 80 6C 9E  D0 00 01 01 80 02 80 27  ......l........'
1280: 10 F0 FF FF 7F 0A 27 10  96 D0 00 01 12 27 10 97  ......'......'..
1290: D0 00 01 13 27 10 98 D0  00 01 11 27 10 99 D0 00  ....'......'....
12A0: 01 11 27 10 9A D0 00 01  11 27 10 9F D0 00 01 0F  ..'......'......
12B0: 1C 1A 80 79 00 F0 FF FF  7F 98 D0 00 01 79 00 96  ...y.........y..
12C0: D0 00 01 99 D0 00 01 45  3B 80 F0 FF FF 7F F0 FF  .......E;.......
12D0: FF 7F 66 64 69 32 01 80  45 15 80 F0 FF FF 7F F0  ..fdi2..E.......
12E0: FF FF 7F 67 30 32 31 01  80 1C 2D 80 5B 36 80 98  ...g021...-.[6..
12F0: D0 00 01 98 D0 00 01 67  6F 67 6F 5B 36 80 99 D0  .......gogo[6...
1300: 00 01 99 D0 00 01 67 6F  67 6F 5B 37 80 9A D0 00  ......gogo[7....
1310: 01 9A D0 00 01 67 6F 67  6F 1C 38 80 27 10 98 D0  .....gogo.8.'...
1320: 00 01 12 27 10 99 D0 00  01 12 27 10 9A D0 00 01  ...'......'.....
1330: 12 55 15 80 F0 FF FF 7F  F0 FF FF 7F 67 30 32 31  .U..........g021
1340: 45 15 80 F0 FF FF 7F F0  FF FF 7F 67 30 32 32 01  E..........g022.
1350: 80 1C 38 80 79 00 F0 FF  FF 7F 97 D0 00 01 79 00  ..8.y.........y.
1360: 96 D0 00 01 97 D0 00 01  2B 97 D0 00 01 74 80 23  ........+....t.#
1370: 55 15 80 F0 FF FF 7F F0  FF FF 7F 67 30 32 32 45  U..........g022E
1380: 15 80 F0 FF FF 7F F0 FF  FF 7F 67 30 32 37 01 80  ..........g027..
1390: 2B 97 D0 00 01 75 80 23  6E 97 D0 00 01 01 80 99  +....u.#n.......
13A0: 97 D0 00 01 2B 97 D0 00  01 76 80 23 99 97 D0 00  ....+....v.#....
13B0: 01 1C 12 80 52 15 80 F0  FF FF 7F F0 FF FF 7F 67  ....R..........g
13C0: 30 32 37 45 15 80 F0 FF  FF 7F F0 FF FF 7F 67 30  027E..........g0
13D0: 32 33 01 80 5B 77 80 97  D0 00 01 97 D0 00 01 61  23..[w.........a
13E0: 74 73 30 45 15 80 F0 FF  FF 7F F0 FF FF 7F 73 30  ts0E..........s0
13F0: 37 39 01 80 2B 97 D0 00  01 78 80 23 52 15 80 F0  79..+....x.#R...
1400: FF FF 7F F0 FF FF 7F 67  30 32 33 45 15 80 F0 FF  .......g023E....
1410: FF 7F F0 FF FF 7F 67 30  32 34 01 80 5B 79 80 96  ......g024..[y..
1420: D0 00 01 96 D0 00 01 73  69 6E 30 2B 96 D0 00 01  .......sin0+....
1430: 7A 80 23 1C 1E 80 2B 96  D0 00 01 7B 80 23 5B 44  z.#...+....{.#[D
1440: 80 96 D0 00 01 96 D0 00  01 75 74 61 6E 2B 96 D0  .........utan+..
1450: 00 01 7C 80 23 2B 96 D0  00 01 7D 80 23 52 15 80  ..|.#+....}.#R..
1460: F0 FF FF 7F F0 FF FF 7F  67 30 32 34 45 15 80 F0  ........g024E...
1470: FF FF 7F F0 FF FF 7F 67  30 32 35 01 80 5B 77 80  .......g025..[w.
1480: 97 D0 00 01 97 D0 00 01  61 74 65 30 45 15 80 F0  ........ate0E...
1490: FF FF 7F F0 FF FF 7F 73  30 38 30 01 80 1C 1A 80  .......s080.....
14A0: 2B 97 D0 00 01 7E 80 23  2B 97 D0 00 01 7F 80 23  +....~.#+......#
14B0: 52 15 80 F0 FF FF 7F F0  FF FF 7F 67 30 32 35 45  R..........g025E
14C0: 15 80 F0 FF FF 7F F0 FF  FF 7F 67 30 32 36 01 80  ..........g026..
14D0: 5B 44 80 96 D0 00 01 96  D0 00 01 68 61 70 79 2B  [D.........hapy+
14E0: 96 D0 00 01 80 80 23 79  00 96 D0 00 01 F0 FF FF  ......#y........
14F0: 7F 1C 1E 80 2B 96 D0 00  01 81 80 23 1A E4 34 1C  ....+......#..4.
1500: 2D 80 5C 00 01 80 5C 01  01 80 5C 02 01 80 5C 03  -.\...\...\...\.
1510: 01 80 9A 46 00 45 3B 80  F0 FF FF 7F F0 FF FF 7F  ...F.E;.........
1520: 66 64 69 32 01 80 21 00                           fdi2..!.        
```

#### Opcodes

```
  0: 0x06B3 [0x42] SET_CLI_EVENT_CANCEL_DATA()
  1: 0x06B4 [0x1A] CALL_SUBROUTINE(address=0x34E4)
  2: 0x06B7 [0x5C] MUSIC_CONTROL: Set Idle (Day) music to song 220*
  3: 0x06BB [0x5C] MUSIC_CONTROL: Set Idle (Night) music to song 220*
  4: 0x06BF [0x5C] MUSIC_CONTROL: Set Combat (Solo) music to song 220*
  5: 0x06C3 [0x5C] MUSIC_CONTROL: Set Combat (Party) music to song 220*
  6: 0x06C7 [0x9A] WAIT_MUSIC_SERVER()
  7: 0x06C8 [0x46] CAMERA_CONTROL: Disable user control
  8: 0x06CA [0x38] SET_CLIENT_EVENT_MODE(mode=19*)
  9: 0x06CD [0x1C] WAIT(15* ticks)
 10: 0x06D0 [0x79] LocalPlayer looks at LocalPlayer (Basic look)
 11: 0x06DA [0x27] REQ_SET(priority=0x10, entity_id=Selh'teus (ID: 16830613/0x0100D095), tag_num=0x02)
 12: 0x06E1 [0x27] REQ_SET(priority=0x10, entity_id=Louverance (ID: 16830614/0x0100D096), tag_num=0x04)
 13: 0x06E8 [0x27] REQ_SET(priority=0x10, entity_id=Jabbos (ID: 16830615/0x0100D097), tag_num=0x02)
 14: 0x06EF [0x27] REQ_SET(priority=0x10, entity_id=Makki-Chebukki (ID: 16830616/0x0100D098), tag_num=0x04)
 15: 0x06F6 [0x27] REQ_SET(priority=0x10, entity_id=Kukki-Chebukki (ID: 16830617/0x0100D099), tag_num=0x04)
 16: 0x06FD [0x27] REQ_SET(priority=0x10, entity_id=Cherukiki (ID: 16830618/0x0100D09A), tag_num=0x04)
 17: 0x0704 [0x27] REQ_SET(priority=0x10, entity_id=Chekochuk (ID: 16830619/0x0100D09B), tag_num=0x04)
 18: 0x070B [0x27] REQ_SET(priority=0x10, entity_id=Movamuq (ID: 16830620/0x0100D09C), tag_num=0x04)
 19: 0x0712 [0x27] REQ_SET(priority=0x10, entity_id=Trikotrak (ID: 16830621/0x0100D09D), tag_num=0x04)
 20: 0x0719 [0x27] REQ_SET(priority=0x10, entity_id=Swipostik (ID: 16830622/0x0100D09E), tag_num=0x04)
 21: 0x0720 [0x27] REQ_SET(priority=0x10, entity_id=Unnamed NPC (ID: 16830625/0x0100D0A1), tag_num=0x04)
 22: 0x0727 [0x27] REQ_SET(priority=0x10, entity_id=Unnamed NPC (ID: 16830626/0x0100D0A2), tag_num=0x02)
 23: 0x072E [0x92] Selh'teus (ID: 16830613/0x0100D095)->Render.Flags3 ^= 0x01
 24: 0x0734 [0x92] Louverance (ID: 16830614/0x0100D096)->Render.Flags3 ^= 0x01
 25: 0x073A [0x92] Jabbos (ID: 16830615/0x0100D097)->Render.Flags3 ^= 0x01
 26: 0x0740 [0x92] Makki-Chebukki (ID: 16830616/0x0100D098)->Render.Flags3 ^= 0x01
 27: 0x0746 [0x92] Kukki-Chebukki (ID: 16830617/0x0100D099)->Render.Flags3 ^= 0x01
 28: 0x074C [0x92] Cherukiki (ID: 16830618/0x0100D09A)->Render.Flags3 ^= 0x01
 29: 0x0752 [0x92] Chekochuk (ID: 16830619/0x0100D09B)->Render.Flags3 ^= 0x01
 30: 0x0758 [0x92] Movamuq (ID: 16830620/0x0100D09C)->Render.Flags3 ^= 0x01
 31: 0x075E [0x92] Trikotrak (ID: 16830621/0x0100D09D)->Render.Flags3 ^= 0x01
 32: 0x0764 [0x92] Swipostik (ID: 16830622/0x0100D09E)->Render.Flags3 ^= 0x01
 33: 0x076A [0x27] REQ_SET(priority=0x10, entity_id=LocalPlayer, tag_num=0x08)
 34: 0x0771 [0x27] REQ_SET(priority=0x10, entity_id=Louverance (ID: 16830614/0x0100D096), tag_num=0x10)
 35: 0x0778 [0x27] REQ_SET(priority=0x10, entity_id=Jabbos (ID: 16830615/0x0100D097), tag_num=0x0F)
 36: 0x077F [0x27] REQ_SET(priority=0x10, entity_id=Makki-Chebukki (ID: 16830616/0x0100D098), tag_num=0x0F)
 37: 0x0786 [0x27] REQ_SET(priority=0x10, entity_id=Kukki-Chebukki (ID: 16830617/0x0100D099), tag_num=0x0F)
 38: 0x078D [0x27] REQ_SET(priority=0x10, entity_id=Cherukiki (ID: 16830618/0x0100D09A), tag_num=0x0F)
 39: 0x0794 [0x27] REQ_SET(priority=0x10, entity_id=Chekochuk (ID: 16830619/0x0100D09B), tag_num=0x0E)
 40: 0x079B [0x27] REQ_SET(priority=0x10, entity_id=Movamuq (ID: 16830620/0x0100D09C), tag_num=0x0E)
 41: 0x07A2 [0x27] REQ_SET(priority=0x10, entity_id=Trikotrak (ID: 16830621/0x0100D09D), tag_num=0x0E)
 42: 0x07A9 [0x27] REQ_SET(priority=0x10, entity_id=Swipostik (ID: 16830622/0x0100D09E), tag_num=0x0E)
 43: 0x07B0 [0x27] REQ_SET(priority=0x10, entity_id=Unnamed NPC (ID: 16830625/0x0100D0A1), tag_num=0x0B)
 44: 0x07B7 [0x27] REQ_SET(priority=0x10, entity_id=Unnamed NPC (ID: 16830626/0x0100D0A2), tag_num=0x0A)
 45: 0x07BE [0x1C] WAIT(15* ticks)
 46: 0x07C1 [0x80] LOAD_WAIT(entity=LocalPlayer)
 47: 0x07C6 [0x5B] LOAD_EXT_SCHEDULER: Load scheduler 0xFEFEFE00 with entities [Unnamed NPC (ID: 16830625/0x0100D0A1), Unnamed NPC (ID: 16830625/0x0100D0A1)], work=490*
 48: 0x07D5 [0x5B] LOAD_EXT_SCHEDULER: Load scheduler "boml" with entities [Jabbos (ID: 16830615/0x0100D097), Jabbos (ID: 16830615/0x0100D097)], work=490*
 49: 0x07E4 [0x5B] LOAD_EXT_SCHEDULER: Load scheduler "dfm0" with entities [Makki-Chebukki (ID: 16830616/0x0100D098), Makki-Chebukki (ID: 16830616/0x0100D098)], work=441*
 50: 0x07F3 [0x2C] CREATE_SCHEDULER_TASK: Create scheduler "corp" with entities [Swipostik (ID: 16830622/0x0100D09E), Swipostik (ID: 16830622/0x0100D09E)]
 51: 0x0800 [0x2C] CREATE_SCHEDULER_TASK: Create scheduler "corp" with entities [Movamuq (ID: 16830620/0x0100D09C), Movamuq (ID: 16830620/0x0100D09C)]
 52: 0x080D [0x2C] CREATE_SCHEDULER_TASK: Create scheduler "corp" with entities [Trikotrak (ID: 16830621/0x0100D09D), Trikotrak (ID: 16830621/0x0100D09D)]
 53: 0x081A [0x1C] WAIT(15* ticks)
 54: 0x081D [0x45] LOAD_SCHEDULED_TASK: Load scheduler "ex00" with entities [LocalPlayer, LocalPlayer], work=[179*, 0*]
 55: 0x082E [0x1A] CALL_SUBROUTINE(address=0x34C3)
 56: 0x0831 [0x1C] WAIT(30* ticks)
 57: 0x0834 [0x2C] CREATE_SCHEDULER_TASK: Create scheduler "dead" with entities [Chekochuk (ID: 16830619/0x0100D09B), Chekochuk (ID: 16830619/0x0100D09B)]
 58: 0x0841 [0x55] WAIT_LOAD_SCHEDULER: Wait for scheduler "ex00" with entities [LocalPlayer, LocalPlayer], work=179*
 59: 0x0850 [0x45] LOAD_SCHEDULED_TASK: Load scheduler "ex01" with entities [LocalPlayer, LocalPlayer], work=[179*, 0*]
 60: 0x0861 [0x2B] Makki-Chebukki (ID: 16830616/0x0100D098) [7635*]:
    → "Is that all ya got?"
 61: 0x0868 [0x23] WAIT_FOR_DIALOG_INTERACTION
 62: 0x0869 [0x5B] LOAD_EXT_SCHEDULER: Load scheduler "dfk0" with entities [Kukki-Chebukki (ID: 16830617/0x0100D099), Kukki-Chebukki (ID: 16830617/0x0100D099)], work=441*
 63: 0x0878 [0x2B] Kukki-Chebukki (ID: 16830617/0x0100D099) [7636*]:
    → "I could beat you all with one hand!"
 64: 0x087F [0x23] WAIT_FOR_DIALOG_INTERACTION
 65: 0x0880 [0x52] END_LOAD_SCHEDULER: End scheduler "ex01" with entities [LocalPlayer, LocalPlayer], work=179*
 66: 0x088F [0x45] LOAD_SCHEDULED_TASK: Load scheduler "ex02" with entities [LocalPlayer, LocalPlayer], work=[179*, 0*]
 67: 0x08A0 [0x5B] LOAD_EXT_SCHEDULER: Load scheduler "usi0" with entities [Cherukiki (ID: 16830618/0x0100D09A), Cherukiki (ID: 16830618/0x0100D09A)], work=431*
 68: 0x08AF [0x2B] Cherukiki (ID: 16830618/0x0100D09A) [7637*]:
    → "It's time for the tickle torture!"
 69: 0x08B6 [0x23] WAIT_FOR_DIALOG_INTERACTION
 70: 0x08B7 [0x1A] CALL_SUBROUTINE(address=0x34E4)
 71: 0x08BA [0x1C] WAIT(30* ticks)
 72: 0x08BD [0x27] REQ_SET(priority=0x10, entity_id=Unnamed NPC (ID: 16830625/0x0100D0A1), tag_num=0x0C)
 73: 0x08C4 [0x45] LOAD_SCHEDULED_TASK: Load scheduler "gt00" with entities [LocalPlayer, LocalPlayer], work=[179*, 0*]
 74: 0x08D5 [0x1A] CALL_SUBROUTINE(address=0x34C3)
 75: 0x08D8 [0x2B] Jabbos (ID: 16830615/0x0100D097) [7638*]:
    → "Arrrrrrg! Stop right there!"
 76: 0x08DF [0x5B] LOAD_EXT_SCHEDULER: Load scheduler "fuk0" with entities [Makki-Chebukki (ID: 16830616/0x0100D098), Makki-Chebukki (ID: 16830616/0x0100D098)], work=441*
 77: 0x08EE [0x5B] LOAD_EXT_SCHEDULER: Load scheduler "fuk0" with entities [Kukki-Chebukki (ID: 16830617/0x0100D099), Kukki-Chebukki (ID: 16830617/0x0100D099)], work=441*
 78: 0x08FD [0x5B] LOAD_EXT_SCHEDULER: Load scheduler "fuk0" with entities [Cherukiki (ID: 16830618/0x0100D09A), Cherukiki (ID: 16830618/0x0100D09A)], work=431*
 79: 0x090C [0x2A] GET_REQ_LEVEL(level=16, entity_id=Unnamed NPC (ID: 16830625/0x0100D0A1))
 80: 0x0912 [0x5D] SET_MUSIC_VOLUME(volume=0*, fade_time=240*)
 81: 0x0917 [0x45] LOAD_SCHEDULED_TASK: Load scheduler "gt01" with entities [LocalPlayer, LocalPlayer], work=[179*, 0*]
 82: 0x0928 [0x9F] LOAD_SCHEDULED_TASK_ALT: Load scheduler "main" with entities [Unnamed NPC (ID: 16830625/0x0100D0A1), Unnamed NPC (ID: 16830626/0x0100D0A2)], work=[51*, 0*]
 83: 0x0939 [0x1C] WAIT(75* ticks)
 84: 0x093C [0x52] END_LOAD_SCHEDULER: End scheduler "gt01" with entities [LocalPlayer, LocalPlayer], work=179*
 85: 0x094B [0x45] LOAD_SCHEDULED_TASK: Load scheduler "gt02" with entities [LocalPlayer, LocalPlayer], work=[179*, 0*]
 86: 0x095C [0x27] REQ_SET(priority=0x10, entity_id=Unnamed NPC (ID: 16830611/0x0100D093), tag_num=0x02)
 87: 0x0963 [0x5B] LOAD_EXT_SCHEDULER: Load scheduler "grd0" with entities [Louverance (ID: 16830614/0x0100D096), Louverance (ID: 16830614/0x0100D096)], work=416*
 88: 0x0972 [0x45] LOAD_SCHEDULED_TASK: Load scheduler "s289" with entities [LocalPlayer, LocalPlayer], work=[179*, 0*]
 89: 0x0983 [0x1C] WAIT(6* ticks)
 90: 0x0986 [0x5B] LOAD_EXT_SCHEDULER: Load scheduler "fuk1" with entities [Makki-Chebukki (ID: 16830616/0x0100D098), Makki-Chebukki (ID: 16830616/0x0100D098)], work=441*
 91: 0x0995 [0x5B] LOAD_EXT_SCHEDULER: Load scheduler "fuk1" with entities [Kukki-Chebukki (ID: 16830617/0x0100D099), Kukki-Chebukki (ID: 16830617/0x0100D099)], work=441*
 92: 0x09A4 [0x5B] LOAD_EXT_SCHEDULER: Load scheduler "fuk1" with entities [Cherukiki (ID: 16830618/0x0100D09A), Cherukiki (ID: 16830618/0x0100D09A)], work=431*
 93: 0x09B3 [0x2B] Makki-Chebukki (ID: 16830616/0x0100D098) [7639*]:
    → "Hey!"
 94: 0x09BA [0x23] WAIT_FOR_DIALOG_INTERACTION
 95: 0x09BB [0x55] WAIT_LOAD_SCHEDULER: Wait for scheduler "gt02" with entities [LocalPlayer, LocalPlayer], work=179*
 96: 0x09CA [0x1C] WAIT(30* ticks)
 97: 0x09CD [0x1A] CALL_SUBROUTINE(address=0x34E4)
 98: 0x09D0 [0x1A] CALL_SUBROUTINE(address=0x3505)
 99: 0x09D3 [0x27] REQ_SET(priority=0x10, entity_id=Unnamed NPC (ID: 16830623/0x0100D09F), tag_num=0x04)
100: 0x09DA [0x27] REQ_SET(priority=0x10, entity_id=LocalPlayer, tag_num=0x09)
101: 0x09E1 [0x27] REQ_SET(priority=0x10, entity_id=Selh'teus (ID: 16830613/0x0100D095), tag_num=0x0E)
102: 0x09E8 [0x27] REQ_SET(priority=0x10, entity_id=Louverance (ID: 16830614/0x0100D096), tag_num=0x11)
103: 0x09EF [0x27] REQ_SET(priority=0x10, entity_id=Jabbos (ID: 16830615/0x0100D097), tag_num=0x10)
104: 0x09F6 [0x27] REQ_SET(priority=0x10, entity_id=Makki-Chebukki (ID: 16830616/0x0100D098), tag_num=0x10)
105: 0x09FD [0x27] REQ_SET(priority=0x10, entity_id=Kukki-Chebukki (ID: 16830617/0x0100D099), tag_num=0x10)
106: 0x0A04 [0x27] REQ_SET(priority=0x10, entity_id=Cherukiki (ID: 16830618/0x0100D09A), tag_num=0x10)
107: 0x0A0B [0x27] REQ_SET(priority=0x10, entity_id=Chekochuk (ID: 16830619/0x0100D09B), tag_num=0x0F)
108: 0x0A12 [0x27] REQ_SET(priority=0x10, entity_id=Movamuq (ID: 16830620/0x0100D09C), tag_num=0x0F)
109: 0x0A19 [0x27] REQ_SET(priority=0x10, entity_id=Trikotrak (ID: 16830621/0x0100D09D), tag_num=0x0F)
110: 0x0A20 [0x27] REQ_SET(priority=0x10, entity_id=Swipostik (ID: 16830622/0x0100D09E), tag_num=0x0F)
111: 0x0A27 [0x27] REQ_SET(priority=0x10, entity_id=Unnamed NPC (ID: 16830623/0x0100D09F), tag_num=0x0E)
112: 0x0A2E [0x27] REQ_SET(priority=0x10, entity_id=Selh'teus (ID: 16830613/0x0100D095), tag_num=0x03)
113: 0x0A35 [0x1C] WAIT(30* ticks)
114: 0x0A38 [0x5C] MUSIC_CONTROL: Set Idle (Day) music to song 221*
115: 0x0A3C [0x5C] MUSIC_CONTROL: Set Idle (Night) music to song 221*
116: 0x0A40 [0x5C] MUSIC_CONTROL: Set Combat (Solo) music to song 221*
117: 0x0A44 [0x5C] MUSIC_CONTROL: Set Combat (Party) music to song 221*
118: 0x0A48 [0x9A] WAIT_MUSIC_SERVER()
119: 0x0A49 [0x45] LOAD_SCHEDULED_TASK: Load scheduler "g000" with entities [LocalPlayer, LocalPlayer], work=[179*, 0*]
120: 0x0A5A [0x45] LOAD_SCHEDULED_TASK: Load scheduler "fdi2" with entities [LocalPlayer, LocalPlayer], work=[200*, 0*]
121: 0x0A6B [0x1C] WAIT(60* ticks)
122: 0x0A6E [0x5B] LOAD_EXT_SCHEDULER: Load scheduler "zit0" with entities [Cherukiki (ID: 16830618/0x0100D09A), Cherukiki (ID: 16830618/0x0100D09A)], work=337*
123: 0x0A7D [0x2B] Cherukiki (ID: 16830618/0x0100D09A) [7640*]:
    → "Hey! Hey! Let us outta here! Let us out!"
124: 0x0A84 [0x23] WAIT_FOR_DIALOG_INTERACTION
125: 0x0A85 [0x4A] Chekochuk (ID: 16830619/0x0100D09B) looks at Makki-Chebukki (ID: 16830616/0x0100D098)
126: 0x0A8E [0x52] END_LOAD_SCHEDULER: End scheduler "g000" with entities [LocalPlayer, LocalPlayer], work=179*
127: 0x0A9D [0x45] LOAD_SCHEDULED_TASK: Load scheduler "g002" with entities [LocalPlayer, LocalPlayer], work=[179*, 0*]
128: 0x0AAE [0x2B] Chekochuk (ID: 16830619/0x0100D09B) [7641*]:
    → "What's this this? Oooh! Three Tarutarutaru look tasty tasty!"
129: 0x0AB5 [0x23] WAIT_FOR_DIALOG_INTERACTION
130: 0x0AB6 [0x52] END_LOAD_SCHEDULER: End scheduler "g002" with entities [LocalPlayer, LocalPlayer], work=179*
131: 0x0AC5 [0x45] LOAD_SCHEDULED_TASK: Load scheduler "tr00" with entities [LocalPlayer, LocalPlayer], work=[179*, 0*]
132: 0x0AD6 [0x5B] LOAD_EXT_SCHEDULER: Load scheduler "iro0" with entities [Kukki-Chebukki (ID: 16830617/0x0100D099), Kukki-Chebukki (ID: 16830617/0x0100D099)], work=336*
133: 0x0AE5 [0x2B] Kukki-Chebukki (ID: 16830617/0x0100D099) [7642*]:
    → "We're delegates from Jeuno! You touch us, you're toast!"
134: 0x0AEC [0x23] WAIT_FOR_DIALOG_INTERACTION
135: 0x0AED [0x5B] LOAD_EXT_SCHEDULER: Load scheduler "syu0" with entities [Makki-Chebukki (ID: 16830616/0x0100D098), Makki-Chebukki (ID: 16830616/0x0100D098)], work=336*
136: 0x0AFC [0x2B] Makki-Chebukki (ID: 16830616/0x0100D098) [7643*]:
    → "We're delegates from Jeuno! If you don't let us delegate, you'll be toast!"
137: 0x0B03 [0x23] WAIT_FOR_DIALOG_INTERACTION
138: 0x0B04 [0x5B] LOAD_EXT_SCHEDULER: Load scheduler "ang0" with entities [Chekochuk (ID: 16830619/0x0100D09B), Chekochuk (ID: 16830619/0x0100D09B)], work=216*
139: 0x0B13 [0x52] END_LOAD_SCHEDULER: End scheduler "tr00" with entities [LocalPlayer, LocalPlayer], work=179*
140: 0x0B22 [0x45] LOAD_SCHEDULED_TASK: Load scheduler "gb00" with entities [LocalPlayer, LocalPlayer], work=[179*, 0*]
141: 0x0B33 [0x81] SET_ENTITY_BLINKING(blink_flag=0x00, entity=Makki-Chebukki (ID: 16830616/0x0100D098))
142: 0x0B39 [0x81] SET_ENTITY_BLINKING(blink_flag=0x00, entity=Kukki-Chebukki (ID: 16830617/0x0100D099))
143: 0x0B3F [0x81] SET_ENTITY_BLINKING(blink_flag=0x00, entity=Cherukiki (ID: 16830618/0x0100D09A))
144: 0x0B45 [0x5B] LOAD_EXT_SCHEDULER: Load scheduler "cry0" with entities [Makki-Chebukki (ID: 16830616/0x0100D098), Makki-Chebukki (ID: 16830616/0x0100D098)], work=442*
145: 0x0B54 [0x5B] LOAD_EXT_SCHEDULER: Load scheduler "cry0" with entities [Kukki-Chebukki (ID: 16830617/0x0100D099), Kukki-Chebukki (ID: 16830617/0x0100D099)], work=442*
146: 0x0B63 [0x5B] LOAD_EXT_SCHEDULER: Load scheduler "cry0" with entities [Cherukiki (ID: 16830618/0x0100D09A), Cherukiki (ID: 16830618/0x0100D09A)], work=432*
147: 0x0B72 [0x2B] Chekochuk (ID: 16830619/0x0100D09B) [7644*]:
    → "Shut up up! Shut up up up! Noisy Tarutarutaru give Moblin Moblins headache! Be quiet or I cut your throat throats!"
148: 0x0B79 [0x23] WAIT_FOR_DIALOG_INTERACTION
149: 0x0B7A [0x5B] LOAD_EXT_SCHEDULER: Load scheduler "ang1" with entities [Chekochuk (ID: 16830619/0x0100D09B), Chekochuk (ID: 16830619/0x0100D09B)], work=216*
150: 0x0B89 [0x66] LOAD_EXT_SCHEDULER_MAIN: Load scheduler "thk1" with entities [Louverance (ID: 16830614/0x0100D096), Louverance (ID: 16830614/0x0100D096)], work=29*
151: 0x0B98 [0x52] END_LOAD_SCHEDULER: End scheduler "gb00" with entities [LocalPlayer, LocalPlayer], work=179*
152: 0x0BA7 [0x45] LOAD_SCHEDULED_TASK: Load scheduler "g003" with entities [LocalPlayer, LocalPlayer], work=[179*, 0*]
153: 0x0BB8 [0x1C] WAIT(30* ticks)
154: 0x0BBB [0x2B] Louverance (ID: 16830614/0x0100D096) [7645*]:
    → "Delegates? You would not happen to have been sent here by Nag'molada, would you?"
155: 0x0BC2 [0x23] WAIT_FOR_DIALOG_INTERACTION
156: 0x0BC3 [0x52] END_LOAD_SCHEDULER: End scheduler "g003" with entities [LocalPlayer, LocalPlayer], work=179*
157: 0x0BD2 [0x45] LOAD_SCHEDULED_TASK: Load scheduler "g004" with entities [LocalPlayer, LocalPlayer], work=[179*, 0*]
158: 0x0BE3 [0x29] REQ_SET_WAIT(priority=0x10, entity_id=Jabbos (ID: 16830615/0x0100D097), tag_num=0x11)
159: 0x0BEA [0x2B] Jabbos (ID: 16830615/0x0100D097) [7646*]:
    → "Wait...everyone... Calm...down... Listen to...me..."
160: 0x0BF1 [0x23] WAIT_FOR_DIALOG_INTERACTION
161: 0x0BF2 [0x4A] Chekochuk (ID: 16830619/0x0100D09B) looks at Jabbos (ID: 16830615/0x0100D097)
162: 0x0BFB [0x2B] Chekochuk (ID: 16830619/0x0100D09B) [7647*]:
    → "Jabbo Jabbo! What do you want want!?"
163: 0x0C02 [0x23] WAIT_FOR_DIALOG_INTERACTION
164: 0x0C03 [0x66] LOAD_EXT_SCHEDULER_MAIN: Load scheduler "thk2" with entities [Louverance (ID: 16830614/0x0100D096), Louverance (ID: 16830614/0x0100D096)], work=29*
165: 0x0C12 [0x6E] Jabbos (ID: 16830615/0x0100D097) uses emote 0*
166: 0x0C19 [0x99] Wait for Jabbos (ID: 16830615/0x0100D097) animation to complete
167: 0x0C1E [0x52] END_LOAD_SCHEDULER: End scheduler "g004" with entities [LocalPlayer, LocalPlayer], work=179*
168: 0x0C2D [0x45] LOAD_SCHEDULED_TASK: Load scheduler "g005" with entities [LocalPlayer, LocalPlayer], work=[179*, 0*]
169: 0x0C3E [0x79] Selh'teus (ID: 16830613/0x0100D095) looks at Jabbos (ID: 16830615/0x0100D097) (Basic look)
170: 0x0C48 [0x2B] Jabbos (ID: 16830615/0x0100D097) [7648*]:
    → "That boy... He's... He's not Promathia..."
171: 0x0C4F [0x23] WAIT_FOR_DIALOG_INTERACTION
172: 0x0C50 [0x99] Wait for Jabbos (ID: 16830615/0x0100D097) animation to complete
173: 0x0C55 [0x2B] Jabbos (ID: 16830615/0x0100D097) [7649*]:
    → "He looks...nothing...like Promathia..."
174: 0x0C5C [0x23] WAIT_FOR_DIALOG_INTERACTION
175: 0x0C5D [0x4A] Movamuq (ID: 16830620/0x0100D09C) looks at Jabbos (ID: 16830615/0x0100D097)
176: 0x0C66 [0x52] END_LOAD_SCHEDULER: End scheduler "g005" with entities [LocalPlayer, LocalPlayer], work=179*
177: 0x0C75 [0x45] LOAD_SCHEDULED_TASK: Load scheduler "g006" with entities [LocalPlayer, LocalPlayer], work=[179*, 0*]
178: 0x0C86 [0x2B] Movamuq (ID: 16830620/0x0100D09C) [7650*]:
    → "Huuuh? Doooesn't looook liiike Prooomaaathiaaa? Yooou knooow whaaat heee looooks liiike?"
179: 0x0C8D [0x23] WAIT_FOR_DIALOG_INTERACTION
180: 0x0C8E [0x6E] Jabbos (ID: 16830615/0x0100D097) uses emote 7*
181: 0x0C95 [0x99] Wait for Jabbos (ID: 16830615/0x0100D097) animation to complete
182: 0x0C9A [0x2B] Jabbos (ID: 16830615/0x0100D097) [7651*]:
    → "Yes... I've seen Promathia... His statue..."
183: 0x0CA1 [0x23] WAIT_FOR_DIALOG_INTERACTION
184: 0x0CA2 [0x99] Wait for Jabbos (ID: 16830615/0x0100D097) animation to complete
185: 0x0CA7 [0x52] END_LOAD_SCHEDULER: End scheduler "g006" with entities [LocalPlayer, LocalPlayer], work=179*
186: 0x0CB6 [0x45] LOAD_SCHEDULED_TASK: Load scheduler "g007" with entities [LocalPlayer, LocalPlayer], work=[179*, 0*]
187: 0x0CC7 [0x5B] LOAD_EXT_SCHEDULER: Load scheduler "fum0" with entities [Swipostik (ID: 16830622/0x0100D09E), Swipostik (ID: 16830622/0x0100D09E)], work=216*
188: 0x0CD6 [0x2B] Swipostik (ID: 16830622/0x0100D09E) [7652*]:
    → "Statue's? Oh's! That's statue's! The's one's that's got's stolen's!"
189: 0x0CDD [0x23] WAIT_FOR_DIALOG_INTERACTION
190: 0x0CDE [0x52] END_LOAD_SCHEDULER: End scheduler "g007" with entities [LocalPlayer, LocalPlayer], work=179*
191: 0x0CED [0x45] LOAD_SCHEDULED_TASK: Load scheduler "g008" with entities [LocalPlayer, LocalPlayer], work=[179*, 0*]
192: 0x0CFE [0x5B] LOAD_EXT_SCHEDULER: Load scheduler "tlk0" with entities [Chekochuk (ID: 16830619/0x0100D09B), Chekochuk (ID: 16830619/0x0100D09B)], work=215*
193: 0x0D0D [0x2B] Chekochuk (ID: 16830619/0x0100D09B) [7653*]:
    → "Yeah, yeah! I saw it, too, too! It looked nothing like the boy boy!"
194: 0x0D14 [0x23] WAIT_FOR_DIALOG_INTERACTION
195: 0x0D15 [0x5B] LOAD_EXT_SCHEDULER: Load scheduler "tlk1" with entities [Chekochuk (ID: 16830619/0x0100D09B), Chekochuk (ID: 16830619/0x0100D09B)], work=215*
196: 0x0D24 [0x2B] Chekochuk (ID: 16830619/0x0100D09B) [7654*]:
    → "But, but... Boy boy used the dark dark power, just like legend says!"
197: 0x0D2B [0x23] WAIT_FOR_DIALOG_INTERACTION
198: 0x0D2C [0x52] END_LOAD_SCHEDULER: End scheduler "g008" with entities [LocalPlayer, LocalPlayer], work=179*
199: 0x0D3B [0x45] LOAD_SCHEDULED_TASK: Load scheduler "g009" with entities [LocalPlayer, LocalPlayer], work=[179*, 0*]
200: 0x0D4C [0x6B] STOP_AND_IDLE: Chekochuk (ID: 16830619/0x0100D09B) stops current action and resets to idle (animation="idl0")
201: 0x0D55 [0x5B] LOAD_EXT_SCHEDULER: Load scheduler "fum1" with entities [Swipostik (ID: 16830622/0x0100D09E), Swipostik (ID: 16830622/0x0100D09E)], work=216*
202: 0x0D64 [0x2B] Jabbos (ID: 16830615/0x0100D097) [7655*]:
    → "Yes... But there is no...crystal...on his chest... He can't...be the real...Promathia..."
203: 0x0D6B [0x23] WAIT_FOR_DIALOG_INTERACTION
204: 0x0D6C [0x6B] STOP_AND_IDLE: Makki-Chebukki (ID: 16830616/0x0100D098) stops current action and resets to idle (animation="idl0")
205: 0x0D75 [0x6B] STOP_AND_IDLE: Kukki-Chebukki (ID: 16830617/0x0100D099) stops current action and resets to idle (animation="idl0")
206: 0x0D7E [0x6B] STOP_AND_IDLE: Cherukiki (ID: 16830618/0x0100D09A) stops current action and resets to idle (animation="idl0")
207: 0x0D87 [0x81] SET_ENTITY_BLINKING(blink_flag=0x01, entity=Makki-Chebukki (ID: 16830616/0x0100D098))
208: 0x0D8D [0x81] SET_ENTITY_BLINKING(blink_flag=0x01, entity=Kukki-Chebukki (ID: 16830617/0x0100D099))
209: 0x0D93 [0x81] SET_ENTITY_BLINKING(blink_flag=0x01, entity=Cherukiki (ID: 16830618/0x0100D09A))
210: 0x0D99 [0x52] END_LOAD_SCHEDULER: End scheduler "g009" with entities [LocalPlayer, LocalPlayer], work=179*
211: 0x0DA8 [0x45] LOAD_SCHEDULED_TASK: Load scheduler "g010" with entities [LocalPlayer, LocalPlayer], work=[179*, 0*]
212: 0x0DB9 [0x66] LOAD_EXT_SCHEDULER_MAIN: Load scheduler "tlk0" with entities [Jabbos (ID: 16830615/0x0100D097), Jabbos (ID: 16830615/0x0100D097)], work=69*
213: 0x0DC8 [0x2B] Jabbos (ID: 16830615/0x0100D097) [7657*]:
    → "And you...weren't created by...Promathia...anyway..."
214: 0x0DCF [0x23] WAIT_FOR_DIALOG_INTERACTION
215: 0x0DD0 [0x66] LOAD_EXT_SCHEDULER_MAIN: Load scheduler "tlk1" with entities [Jabbos (ID: 16830615/0x0100D097), Jabbos (ID: 16830615/0x0100D097)], work=69*
216: 0x0DDF [0x52] END_LOAD_SCHEDULER: End scheduler "g010" with entities [LocalPlayer, LocalPlayer], work=179*
217: 0x0DEE [0x45] LOAD_SCHEDULED_TASK: Load scheduler "g011" with entities [LocalPlayer, LocalPlayer], work=[179*, 0*]
218: 0x0DFF [0x5B] LOAD_EXT_SCHEDULER: Load scheduler "tlk0" with entities [Chekochuk (ID: 16830619/0x0100D09B), Chekochuk (ID: 16830619/0x0100D09B)], work=215*
219: 0x0E0E [0x7B] Selh'teus (ID: 16830613/0x0100D095) stops talking
220: 0x0E13 [0x2B] Chekochuk (ID: 16830619/0x0100D09B) [7658*]:
    → "Jabbo Jabbo! Don't start start with that again!"
221: 0x0E1A [0x23] WAIT_FOR_DIALOG_INTERACTION
222: 0x0E1B [0x52] END_LOAD_SCHEDULER: End scheduler "g011" with entities [LocalPlayer, LocalPlayer], work=179*
223: 0x0E2A [0x45] LOAD_SCHEDULED_TASK: Load scheduler "g012" with entities [LocalPlayer, LocalPlayer], work=[179*, 0*]
224: 0x0E3B [0x6B] STOP_AND_IDLE: Chekochuk (ID: 16830619/0x0100D09B) stops current action and resets to idle (animation="idl0")
225: 0x0E44 [0x5B] LOAD_EXT_SCHEDULER: Load scheduler "fum0" with entities [Trikotrak (ID: 16830621/0x0100D09D), Trikotrak (ID: 16830621/0x0100D09D)], work=216*
226: 0x0E53 [0x2B] Trikotrak (ID: 16830621/0x0100D09D) [7659*]:
    → "Jbbs... Jbbs blv wrds f dwn gddss..."
227: 0x0E5A [0x23] WAIT_FOR_DIALOG_INTERACTION
228: 0x0E5B [0x5B] LOAD_EXT_SCHEDULER: Load scheduler "ang0" with entities [Movamuq (ID: 16830620/0x0100D09C), Movamuq (ID: 16830620/0x0100D09C)], work=216*
229: 0x0E6A [0x2B] Movamuq (ID: 16830620/0x0100D09C) [7660*]:
    → "Jaaabbooos iiis fooooled by baaad peeeople!"
230: 0x0E71 [0x23] WAIT_FOR_DIALOG_INTERACTION
231: 0x0E72 [0x2B] Movamuq (ID: 16830620/0x0100D09C) [7661*]:
    → "Baaad peeeople muuust paaay!"
232: 0x0E79 [0x23] WAIT_FOR_DIALOG_INTERACTION
233: 0x0E7A [0x2B] Movamuq (ID: 16830620/0x0100D09C) [7662*]:
    → "Leeeave theeem fooor taisai's diiinner!"
234: 0x0E81 [0x23] WAIT_FOR_DIALOG_INTERACTION
235: 0x0E82 [0x5B] LOAD_EXT_SCHEDULER: Load scheduler "ang1" with entities [Movamuq (ID: 16830620/0x0100D09C), Movamuq (ID: 16830620/0x0100D09C)], work=216*
236: 0x0E91 [0x52] END_LOAD_SCHEDULER: End scheduler "g012" with entities [LocalPlayer, LocalPlayer], work=179*
237: 0x0EA0 [0x45] LOAD_SCHEDULED_TASK: Load scheduler "tr00" with entities [LocalPlayer, LocalPlayer], work=[179*, 0*]
238: 0x0EB1 [0x5B] LOAD_EXT_SCHEDULER: Load scheduler "bik0" with entities [Makki-Chebukki (ID: 16830616/0x0100D098), Makki-Chebukki (ID: 16830616/0x0100D098)], work=340*
239: 0x0EC0 [0x2B] Makki-Chebukki (ID: 16830616/0x0100D098) [7663*]:
    → "Yikes! If you do that, we won't be able to trade you Promathia's staaatuuue!"
240: 0x0EC7 [0x23] WAIT_FOR_DIALOG_INTERACTION
241: 0x0EC8 [0x5B] LOAD_EXT_SCHEDULER: Load scheduler "msu0" with entities [Kukki-Chebukki (ID: 16830617/0x0100D099), Kukki-Chebukki (ID: 16830617/0x0100D099)], work=340*
242: 0x0ED7 [0x5B] LOAD_EXT_SCHEDULER: Load scheduler "msu0" with entities [Cherukiki (ID: 16830618/0x0100D09A), Cherukiki (ID: 16830618/0x0100D09A)], work=341*
243: 0x0EE6 [0x2B] Kukki-Chebukki (ID: 16830617/0x0100D099) [7664*]:
    → "No Promathia's staaatuuue!"
244: 0x0EED [0x23] WAIT_FOR_DIALOG_INTERACTION
245: 0x0EEE [0x52] END_LOAD_SCHEDULER: End scheduler "tr00" with entities [LocalPlayer, LocalPlayer], work=179*
246: 0x0EFD [0x45] LOAD_SCHEDULED_TASK: Load scheduler "g013" with entities [LocalPlayer, LocalPlayer], work=[179*, 0*]
247: 0x0F0E [0x5B] LOAD_EXT_SCHEDULER: Load scheduler "bik1" with entities [Makki-Chebukki (ID: 16830616/0x0100D098), Makki-Chebukki (ID: 16830616/0x0100D098)], work=340*
248: 0x0F1D [0x5B] LOAD_EXT_SCHEDULER: Load scheduler "msu1" with entities [Kukki-Chebukki (ID: 16830617/0x0100D099), Kukki-Chebukki (ID: 16830617/0x0100D099)], work=340*
249: 0x0F2C [0x5B] LOAD_EXT_SCHEDULER: Load scheduler "msu1" with entities [Cherukiki (ID: 16830618/0x0100D09A), Cherukiki (ID: 16830618/0x0100D09A)], work=341*
250: 0x0F3B [0x4A] Jabbos (ID: 16830615/0x0100D097) looks at Makki-Chebukki (ID: 16830616/0x0100D098)
251: 0x0F44 [0x4A] Chekochuk (ID: 16830619/0x0100D09B) looks at Makki-Chebukki (ID: 16830616/0x0100D098)
252: 0x0F4D [0x4A] Movamuq (ID: 16830620/0x0100D09C) looks at Makki-Chebukki (ID: 16830616/0x0100D098)
253: 0x0F56 [0x5B] LOAD_EXT_SCHEDULER: Load scheduler "fum1" with entities [Trikotrak (ID: 16830621/0x0100D09D), Trikotrak (ID: 16830621/0x0100D09D)], work=216*
254: 0x0F65 [0x2B] Jabbos (ID: 16830615/0x0100D097) [7665*]:
    → "Statue...?"
255: 0x0F6C [0x23] WAIT_FOR_DIALOG_INTERACTION
256: 0x0F6D [0x52] END_LOAD_SCHEDULER: End scheduler "g013" with entities [LocalPlayer, LocalPlayer], work=179*
257: 0x0F7C [0x45] LOAD_SCHEDULED_TASK: Load scheduler "g014" with entities [LocalPlayer, LocalPlayer], work=[179*, 0*]
258: 0x0F8D [0x5B] LOAD_EXT_SCHEDULER: Load scheduler "bik0" with entities [Chekochuk (ID: 16830619/0x0100D09B), Chekochuk (ID: 16830619/0x0100D09B)], work=216*
259: 0x0F9C [0x2B] Chekochuk (ID: 16830619/0x0100D09B) [7666*]:
    → "Tarutarutaru! You have statue statue of Twilight God God?"
260: 0x0FA3 [0x23] WAIT_FOR_DIALOG_INTERACTION
261: 0x0FA4 [0x52] END_LOAD_SCHEDULER: End scheduler "g014" with entities [LocalPlayer, LocalPlayer], work=179*
262: 0x0FB3 [0x45] LOAD_SCHEDULED_TASK: Load scheduler "g015" with entities [LocalPlayer, LocalPlayer], work=[179*, 0*]
263: 0x0FC4 [0x5B] LOAD_EXT_SCHEDULER: Load scheduler "bik0" with entities [Movamuq (ID: 16830620/0x0100D09C), Movamuq (ID: 16830620/0x0100D09C)], work=216*
264: 0x0FD3 [0x2B] Movamuq (ID: 16830620/0x0100D09C) [7667*]:
    → "Taaaruuuu! Yooou duuug uuup Prooomaaathiaaa staaatuuue!?"
265: 0x0FDA [0x23] WAIT_FOR_DIALOG_INTERACTION
266: 0x0FDB [0x52] END_LOAD_SCHEDULER: End scheduler "g015" with entities [LocalPlayer, LocalPlayer], work=179*
267: 0x0FEA [0x45] LOAD_SCHEDULED_TASK: Load scheduler "tr01" with entities [LocalPlayer, LocalPlayer], work=[179*, 0*]
268: 0x0FFB [0x5B] LOAD_EXT_SCHEDULER: Load scheduler "dfm0" with entities [Makki-Chebukki (ID: 16830616/0x0100D098), Makki-Chebukki (ID: 16830616/0x0100D098)], work=441*
269: 0x100A [0x2B] Makki-Chebukki (ID: 16830616/0x0100D098) [7668*]:
    → "Yeah! We know all about that white statue!"
270: 0x1011 [0x23] WAIT_FOR_DIALOG_INTERACTION
271: 0x1012 [0x5B] LOAD_EXT_SCHEDULER: Load scheduler "dfk0" with entities [Kukki-Chebukki (ID: 16830617/0x0100D099), Kukki-Chebukki (ID: 16830617/0x0100D099)], work=441*
272: 0x1021 [0x2B] Kukki-Chebukki (ID: 16830617/0x0100D099) [7669*]:
    → "Yeah! You want that statue, you trade us the boy!"
273: 0x1028 [0x23] WAIT_FOR_DIALOG_INTERACTION
274: 0x1029 [0x5B] LOAD_EXT_SCHEDULER: Load scheduler "dfc0" with entities [Cherukiki (ID: 16830618/0x0100D09A), Cherukiki (ID: 16830618/0x0100D09A)], work=431*
275: 0x1038 [0x2B] Cherukiki (ID: 16830618/0x0100D09A) [7670*]:
    → "Yeah! Trade us the boy!"
276: 0x103F [0x23] WAIT_FOR_DIALOG_INTERACTION
277: 0x1040 [0x52] END_LOAD_SCHEDULER: End scheduler "tr01" with entities [LocalPlayer, LocalPlayer], work=179*
278: 0x104F [0x45] LOAD_SCHEDULED_TASK: Load scheduler "g016" with entities [LocalPlayer, LocalPlayer], work=[179*, 0*]
279: 0x1060 [0x4A] Movamuq (ID: 16830620/0x0100D09C) looks at Selh'teus (ID: 16830613/0x0100D095)
280: 0x1069 [0x5B] LOAD_EXT_SCHEDULER: Load scheduler "mmm0" with entities [Chekochuk (ID: 16830619/0x0100D09B), Chekochuk (ID: 16830619/0x0100D09B)], work=216*
281: 0x1078 [0x2B] Chekochuk (ID: 16830619/0x0100D09B) [7671*]:
    → "Moblins want want the statue statue! It's written in Moblin legend legend!"
282: 0x107F [0x23] WAIT_FOR_DIALOG_INTERACTION
283: 0x1080 [0x52] END_LOAD_SCHEDULER: End scheduler "g016" with entities [LocalPlayer, LocalPlayer], work=179*
284: 0x108F [0x45] LOAD_SCHEDULED_TASK: Load scheduler "g017" with entities [LocalPlayer, LocalPlayer], work=[179*, 0*]
285: 0x10A0 [0x5B] LOAD_EXT_SCHEDULER: Load scheduler "mmm0" with entities [Swipostik (ID: 16830622/0x0100D09E), Swipostik (ID: 16830622/0x0100D09E)], work=216*
286: 0x10AF [0x2B] Swipostik (ID: 16830622/0x0100D09E) [7672*]:
    → "But's, we's can't's give's them's reincarnate's of's Promathia's!"
287: 0x10B6 [0x23] WAIT_FOR_DIALOG_INTERACTION
288: 0x10B7 [0x5B] LOAD_EXT_SCHEDULER: Load scheduler "mmm0" with entities [Trikotrak (ID: 16830621/0x0100D09D), Trikotrak (ID: 16830621/0x0100D09D)], work=216*
289: 0x10C6 [0x2B] Trikotrak (ID: 16830621/0x0100D09D) [7673*]:
    → "Bt, Prmth s strng! W gv hm t Trtr, myb h cn cm bck n hs wn!"
290: 0x10CD [0x23] WAIT_FOR_DIALOG_INTERACTION
291: 0x10CE [0x5B] LOAD_EXT_SCHEDULER: Load scheduler "mmm1" with entities [Trikotrak (ID: 16830621/0x0100D09D), Trikotrak (ID: 16830621/0x0100D09D)], work=216*
292: 0x10DD [0x27] REQ_SET(priority=0x10, entity_id=Selh'teus (ID: 16830613/0x0100D095), tag_num=0x0F)
293: 0x10E4 [0x52] END_LOAD_SCHEDULER: End scheduler "g017" with entities [LocalPlayer, LocalPlayer], work=179*
294: 0x10F3 [0x45] LOAD_SCHEDULED_TASK: Load scheduler "g018" with entities [LocalPlayer, LocalPlayer], work=[179*, 0*]
295: 0x1104 [0x4A] Jabbos (ID: 16830615/0x0100D097) looks at Selh'teus (ID: 16830613/0x0100D095)
296: 0x110D [0x1C] WAIT(120* ticks)
297: 0x1110 [0x5B] LOAD_EXT_SCHEDULER: Load scheduler "bik0" with entities [Movamuq (ID: 16830620/0x0100D09C), Movamuq (ID: 16830620/0x0100D09C)], work=216*
298: 0x111F [0x2B] Movamuq (ID: 16830620/0x0100D09C) [7674*]:
    → "!!! Prooomaaathiaaa's aaangry!"
299: 0x1126 [0x23] WAIT_FOR_DIALOG_INTERACTION
300: 0x1127 [0x4A] Trikotrak (ID: 16830621/0x0100D09D) looks at Selh'teus (ID: 16830613/0x0100D095)
301: 0x1130 [0x5B] LOAD_EXT_SCHEDULER: Load scheduler "bik0" with entities [Trikotrak (ID: 16830621/0x0100D09D), Trikotrak (ID: 16830621/0x0100D09D)], work=216*
302: 0x113F [0x2B] Trikotrak (ID: 16830621/0x0100D09D) [7675*]:
    → "!!! Prmth's gttng wy!"
303: 0x1146 [0x23] WAIT_FOR_DIALOG_INTERACTION
304: 0x1147 [0x52] END_LOAD_SCHEDULER: End scheduler "g018" with entities [LocalPlayer, LocalPlayer], work=179*
305: 0x1156 [0x45] LOAD_SCHEDULED_TASK: Load scheduler "g019" with entities [LocalPlayer, LocalPlayer], work=[179*, 0*]
306: 0x1167 [0x27] REQ_SET(priority=0x10, entity_id=Chekochuk (ID: 16830619/0x0100D09B), tag_num=0x10)
307: 0x116E [0x27] REQ_SET(priority=0x10, entity_id=Trikotrak (ID: 16830621/0x0100D09D), tag_num=0x10)
308: 0x1175 [0x1C] WAIT(30* ticks)
309: 0x1178 [0x27] REQ_SET(priority=0x10, entity_id=Movamuq (ID: 16830620/0x0100D09C), tag_num=0x10)
310: 0x117F [0x1C] WAIT(30* ticks)
311: 0x1182 [0x27] REQ_SET(priority=0x10, entity_id=Swipostik (ID: 16830622/0x0100D09E), tag_num=0x10)
312: 0x1189 [0x1C] WAIT(30* ticks)
313: 0x118C [0x5B] LOAD_EXT_SCHEDULER: Load scheduler "zit0" with entities [Makki-Chebukki (ID: 16830616/0x0100D098), Makki-Chebukki (ID: 16830616/0x0100D098)], work=336*
314: 0x119B [0x5B] LOAD_EXT_SCHEDULER: Load scheduler "zit0" with entities [Kukki-Chebukki (ID: 16830617/0x0100D099), Kukki-Chebukki (ID: 16830617/0x0100D099)], work=336*
315: 0x11AA [0x5B] LOAD_EXT_SCHEDULER: Load scheduler "zit0" with entities [Cherukiki (ID: 16830618/0x0100D09A), Cherukiki (ID: 16830618/0x0100D09A)], work=337*
316: 0x11B9 [0x55] WAIT_LOAD_SCHEDULER: Wait for scheduler "g019" with entities [LocalPlayer, LocalPlayer], work=179*
317: 0x11C8 [0x45] LOAD_SCHEDULED_TASK: Load scheduler "tr01" with entities [LocalPlayer, LocalPlayer], work=[179*, 0*]
318: 0x11D9 [0x2B] Makki-Chebukki (ID: 16830616/0x0100D098) [7676*]:
    → "Aaah! Wait wait wait wait! My reward's running away!"
319: 0x11E0 [0x23] WAIT_FOR_DIALOG_INTERACTION
320: 0x11E1 [0x2B] Cherukiki (ID: 16830618/0x0100D09A) [7677*]:
    → "Aaah! Open open open open! My reward's getting away!"
321: 0x11E8 [0x23] WAIT_FOR_DIALOG_INTERACTION
322: 0x11E9 [0x52] END_LOAD_SCHEDULER: End scheduler "tr01" with entities [LocalPlayer, LocalPlayer], work=179*
323: 0x11F8 [0x45] LOAD_SCHEDULED_TASK: Load scheduler "g020" with entities [LocalPlayer, LocalPlayer], work=[179*, 0*]
324: 0x1209 [0x79] Jabbos (ID: 16830615/0x0100D097) looks at Makki-Chebukki (ID: 16830616/0x0100D098) (Basic look)
325: 0x1213 [0x27] REQ_SET(priority=0x10, entity_id=Jabbos (ID: 16830615/0x0100D097), tag_num=0x12)
326: 0x121A [0x1C] WAIT(60* ticks)
327: 0x121D [0x2B] Jabbos (ID: 16830615/0x0100D097) [7678*]:
    → "Wait... I'll let...you out..."
328: 0x1224 [0x1C] WAIT(120* ticks)
329: 0x1227 [0x7B] Jabbos (ID: 16830615/0x0100D097) stops talking
330: 0x122C [0x1A] CALL_SUBROUTINE(address=0x34E4)
331: 0x122F [0x1C] WAIT(60* ticks)
332: 0x1232 [0x45] LOAD_SCHEDULED_TASK: Load scheduler "s011" with entities [LocalPlayer, LocalPlayer], work=[179*, 0*]
333: 0x1243 [0x55] WAIT_LOAD_SCHEDULER: Wait for scheduler "g020" with entities [LocalPlayer, LocalPlayer], work=179*
334: 0x1252 [0x6C] FADE_ENTITY_COLOR(entity_id=Selh'teus (ID: 16830613/0x0100D095), end_alpha=0*, fade_time=1*)
335: 0x125B [0x6C] FADE_ENTITY_COLOR(entity_id=Chekochuk (ID: 16830619/0x0100D09B), end_alpha=0*, fade_time=1*)
336: 0x1264 [0x6C] FADE_ENTITY_COLOR(entity_id=Movamuq (ID: 16830620/0x0100D09C), end_alpha=0*, fade_time=1*)
337: 0x126D [0x6C] FADE_ENTITY_COLOR(entity_id=Trikotrak (ID: 16830621/0x0100D09D), end_alpha=0*, fade_time=1*)
338: 0x1276 [0x6C] FADE_ENTITY_COLOR(entity_id=Swipostik (ID: 16830622/0x0100D09E), end_alpha=0*, fade_time=1*)
339: 0x127F [0x27] REQ_SET(priority=0x10, entity_id=LocalPlayer, tag_num=0x0A)
340: 0x1286 [0x27] REQ_SET(priority=0x10, entity_id=Louverance (ID: 16830614/0x0100D096), tag_num=0x12)
341: 0x128D [0x27] REQ_SET(priority=0x10, entity_id=Jabbos (ID: 16830615/0x0100D097), tag_num=0x13)
342: 0x1294 [0x27] REQ_SET(priority=0x10, entity_id=Makki-Chebukki (ID: 16830616/0x0100D098), tag_num=0x11)
343: 0x129B [0x27] REQ_SET(priority=0x10, entity_id=Kukki-Chebukki (ID: 16830617/0x0100D099), tag_num=0x11)
344: 0x12A2 [0x27] REQ_SET(priority=0x10, entity_id=Cherukiki (ID: 16830618/0x0100D09A), tag_num=0x11)
345: 0x12A9 [0x27] REQ_SET(priority=0x10, entity_id=Unnamed NPC (ID: 16830623/0x0100D09F), tag_num=0x0F)
346: 0x12B0 [0x1C] WAIT(60* ticks)
347: 0x12B3 [0x79] LocalPlayer looks at Makki-Chebukki (ID: 16830616/0x0100D098) (Basic look)
348: 0x12BD [0x79] Louverance (ID: 16830614/0x0100D096) looks at Kukki-Chebukki (ID: 16830617/0x0100D099) (Basic look)
349: 0x12C7 [0x45] LOAD_SCHEDULED_TASK: Load scheduler "fdi2" with entities [LocalPlayer, LocalPlayer], work=[200*, 0*]
350: 0x12D8 [0x45] LOAD_SCHEDULED_TASK: Load scheduler "g021" with entities [LocalPlayer, LocalPlayer], work=[179*, 0*]
351: 0x12E9 [0x1C] WAIT(30* ticks)
352: 0x12EC [0x5B] LOAD_EXT_SCHEDULER: Load scheduler "gogo" with entities [Makki-Chebukki (ID: 16830616/0x0100D098), Makki-Chebukki (ID: 16830616/0x0100D098)], work=441*
353: 0x12FB [0x5B] LOAD_EXT_SCHEDULER: Load scheduler "gogo" with entities [Kukki-Chebukki (ID: 16830617/0x0100D099), Kukki-Chebukki (ID: 16830617/0x0100D099)], work=441*
354: 0x130A [0x5B] LOAD_EXT_SCHEDULER: Load scheduler "gogo" with entities [Cherukiki (ID: 16830618/0x0100D09A), Cherukiki (ID: 16830618/0x0100D09A)], work=431*
355: 0x1319 [0x1C] WAIT(120* ticks)
356: 0x131C [0x27] REQ_SET(priority=0x10, entity_id=Makki-Chebukki (ID: 16830616/0x0100D098), tag_num=0x12)
357: 0x1323 [0x27] REQ_SET(priority=0x10, entity_id=Kukki-Chebukki (ID: 16830617/0x0100D099), tag_num=0x12)
358: 0x132A [0x27] REQ_SET(priority=0x10, entity_id=Cherukiki (ID: 16830618/0x0100D09A), tag_num=0x12)
359: 0x1331 [0x55] WAIT_LOAD_SCHEDULER: Wait for scheduler "g021" with entities [LocalPlayer, LocalPlayer], work=179*
360: 0x1340 [0x45] LOAD_SCHEDULED_TASK: Load scheduler "g022" with entities [LocalPlayer, LocalPlayer], work=[179*, 0*]
361: 0x1351 [0x1C] WAIT(120* ticks)
362: 0x1354 [0x79] LocalPlayer looks at Jabbos (ID: 16830615/0x0100D097) (Basic look)
363: 0x135E [0x79] Louverance (ID: 16830614/0x0100D096) looks at Jabbos (ID: 16830615/0x0100D097) (Basic look)
364: 0x1368 [0x2B] Jabbos (ID: 16830615/0x0100D097) [7679*]:
    → "Shhhooowaaa... Travelers... This place...is dangerous..."
365: 0x136F [0x23] WAIT_FOR_DIALOG_INTERACTION
366: 0x1370 [0x55] WAIT_LOAD_SCHEDULER: Wait for scheduler "g022" with entities [LocalPlayer, LocalPlayer], work=179*
367: 0x137F [0x45] LOAD_SCHEDULED_TASK: Load scheduler "g027" with entities [LocalPlayer, LocalPlayer], work=[179*, 0*]
368: 0x1390 [0x2B] Jabbos (ID: 16830615/0x0100D097) [7680*]:
    → "You...should leave...right away... The Moblins...are upset... Who knows...what they might...do..."
369: 0x1397 [0x23] WAIT_FOR_DIALOG_INTERACTION
370: 0x1398 [0x6E] Jabbos (ID: 16830615/0x0100D097) uses emote 0*
371: 0x139F [0x99] Wait for Jabbos (ID: 16830615/0x0100D097) animation to complete
372: 0x13A4 [0x2B] Jabbos (ID: 16830615/0x0100D097) [7681*]:
    → "There is...an exit...over there... Don't...look back... Run..."
373: 0x13AB [0x23] WAIT_FOR_DIALOG_INTERACTION
374: 0x13AC [0x99] Wait for Jabbos (ID: 16830615/0x0100D097) animation to complete
375: 0x13B1 [0x1C] WAIT(15* ticks)
376: 0x13B4 [0x52] END_LOAD_SCHEDULER: End scheduler "g027" with entities [LocalPlayer, LocalPlayer], work=179*
377: 0x13C3 [0x45] LOAD_SCHEDULED_TASK: Load scheduler "g023" with entities [LocalPlayer, LocalPlayer], work=[179*, 0*]
378: 0x13D4 [0x5B] LOAD_EXT_SCHEDULER: Load scheduler "ats0" with entities [Jabbos (ID: 16830615/0x0100D097), Jabbos (ID: 16830615/0x0100D097)], work=493*
379: 0x13E3 [0x45] LOAD_SCHEDULED_TASK: Load scheduler "s079" with entities [LocalPlayer, LocalPlayer], work=[179*, 0*]
380: 0x13F4 [0x2B] Jabbos (ID: 16830615/0x0100D097) [7682*]:
    → "And don't... Don't tell anyone...what you heard...or saw here... Don't..."
381: 0x13FB [0x23] WAIT_FOR_DIALOG_INTERACTION
382: 0x13FC [0x52] END_LOAD_SCHEDULER: End scheduler "g023" with entities [LocalPlayer, LocalPlayer], work=179*
383: 0x140B [0x45] LOAD_SCHEDULED_TASK: Load scheduler "g024" with entities [LocalPlayer, LocalPlayer], work=[179*, 0*]
384: 0x141C [0x5B] LOAD_EXT_SCHEDULER: Load scheduler "sin0" with entities [Louverance (ID: 16830614/0x0100D096), Louverance (ID: 16830614/0x0100D096)], work=417*
385: 0x142B [0x2B] Louverance (ID: 16830614/0x0100D096) [7683*]:
    → "I do not think that will be possible."
