# 16830653

## Common Data

| Field            | Value                     |
|------------------|---------------------------|
| Zone             | Mine Shaft #2716 (ID: 13) |
| Block Size       | 21696 bytes               |
| Total Events     | 4                         |
| References Count | 383                       |

## List of Events

| Event ID              | Entrypoint   |   Size |   Instructions |
|-----------------------|--------------|--------|----------------|
| [65535](#event-65535) | 0x0000       |    658 |             62 |
| [8](#event-8)         | 0x0292       |  11197 |           1500 |
| [32001](#event-32001) | 0x2E4F       |      1 |              1 |
| [12](#event-12)       | 0x2E50       |   8276 |           1111 |

## DAT References (imed_data)

|   Index | Hex Value   |   Dec Value |
|---------|-------------|-------------|
|       0 | 0x00C8      |         200 |
|       1 | 0x0000      |           0 |
|       2 | 0x00C9      |         201 |
|       3 | 0x0001      |           1 |
|       4 | 0x002D      |          45 |
|       5 | 0x0002      |           2 |
|       6 | 0x001E      |          30 |
|       7 | 0x00D7      |         215 |
|       8 | 0x012C      |         300 |
|       9 | 0x0093      |         147 |
|      10 | 0xFFF938C3  |  4294523075 |
|      11 | 0x8856      |       34902 |
|      12 | 0x1D6C3     |      120515 |
|      13 | 0x066D      |        1645 |
|      14 | 0xFFF91F48  |  4294516552 |
|      15 | 0x83C7      |       33735 |
|      16 | 0x1DC8F     |      121999 |
|      17 | 0x0688      |        1672 |
|      18 | 0xFFF92611  |  4294518289 |
|      19 | 0x719E      |       29086 |
|      20 | 0x06C6      |        1734 |
|      21 | 0xFFF8BFCE  |  4294492110 |
|      22 | 0x1249      |        4681 |
|      23 | 0x1D8E7     |      121063 |
|      24 | 0x0E6B      |        3691 |
|      25 | 0xFFF8D033  |  4294496307 |
|      26 | 0x1598      |        5528 |
|      27 | 0x0DFA      |        3578 |
|      28 | 0xFFF8C48C  |  4294493324 |
|      29 | 0x247B      |        9339 |
|      30 | 0x0DE0      |        3552 |
|      31 | 0xFFF93729  |  4294522665 |
|      32 | 0x120F      |        4623 |
|      33 | 0x1D8E6     |      121062 |
|      34 | 0x0A4A      |        2634 |
|      35 | 0xFFF9332C  |  4294521644 |
|      36 | 0x22EC      |        8940 |
|      37 | 0x0A57      |        2647 |
|      38 | 0xFFF925D4  |  4294518228 |
|      39 | 0x15CE      |        5582 |
|      40 | 0x0A4B      |        2635 |
|      41 | 0xFFF93247  |  4294521415 |
|      42 | 0x51E3      |       20963 |
|      43 | 0x0766      |        1894 |
|      44 | 0xFFF8FA37  |  4294507063 |
|      45 | 0x9E73      |       40563 |
|      46 | 0x1D36D     |      119661 |
|      47 | 0x0400      |        1024 |
|      48 | 0xFFF8FDFC  |  4294508028 |
|      49 | 0x9C7C      |       40060 |
|      50 | 0x1D364     |      119652 |
|      51 | 0xFFF8BF16  |  4294491926 |
|      52 | 0x89AC      |       35244 |
|      53 | 0x01F1      |         497 |
|      54 | 0xFFF8C883  |  4294494339 |
|      55 | 0x76E0      |       30432 |
|      56 | 0x0157      |         343 |
|      57 | 0xFFF8CE45  |  4294495813 |
|      58 | 0x8538      |       34104 |
|      59 | 0x01D7      |         471 |
|      60 | 0xFFF8F2F5  |  4294505205 |
|      61 | 0x8AD0      |       35536 |
|      62 | 0x1D8B3     |      121011 |
|      63 | 0xFFF8EA02  |  4294502914 |
|      64 | 0x798F      |       31119 |
|      65 | 0xFFF8F474  |  4294505588 |
|      66 | 0x7BC5      |       31685 |
|      67 | 0x1DC80     |      121984 |
|      68 | 0xFFF8B8A6  |  4294490278 |
|      69 | 0x4FC6      |       20422 |
|      70 | 0x1D82B     |      120875 |
|      71 | 0xFFF8C96A  |  4294494570 |
|      72 | 0x4757      |       18263 |
|      73 | 0x1DC87     |      121991 |
|      74 | 0xFFF8CA8A  |  4294494858 |
|      75 | 0x56C9      |       22217 |
|      76 | 0x1DC81     |      121985 |
|      77 | 0xFFF934AC  |  4294522028 |
|      78 | 0x3ABC      |       15036 |
|      79 | 0x07D4      |        2004 |
|      80 | 0xFFF8FAD4  |  4294507220 |
|      81 | 0xFFFF6B7B  |  4294929275 |
|      82 | 0x1D4BF     |      119999 |
|      83 | 0x0BCC      |        3020 |
|      84 | 0xFFF8EA52  |  4294502994 |
|      85 | 0x47EE      |       18414 |
|      86 | 0x1DD2B     |      122155 |
|      87 | 0xFFF8FB72  |  4294507378 |
|      88 | 0x4FC3      |       20419 |
|      89 | 0x1DCB0     |      122032 |
|      90 | 0xFFF909F8  |  4294511096 |
|      91 | 0x4723      |       18211 |
|      92 | 0x1DD5C     |      122204 |
|      93 | 0xFFFF5CC8  |  4294925512 |
|      94 | 0xFFF72651  |  4294387281 |
|      95 | 0xFFFE2B40  |  4294847296 |
|      96 | 0x0800      |        2048 |
|      97 | 0xFFF906CA  |  4294510282 |
|      98 | 0xFFFFFAF1  |  4294966001 |
|      99 | 0x0C3C      |        3132 |
|     100 | 0xFFF8F10C  |  4294504716 |
|     101 | 0xFFFF850D  |  4294935821 |
|     102 | 0x1D4B0     |      119984 |
|     103 | 0x0BDF      |        3039 |
|     104 | 0xFFF930E7  |  4294521063 |
|     105 | 0x5893      |       22675 |
|     106 | 0x0743      |        1859 |
|     107 | 0xFFF931DD  |  4294521309 |
|     108 | 0x496B      |       18795 |
|     109 | 0x0804      |        2052 |
|     110 | 0xFFF8EE17  |  4294503959 |
|     111 | 0xFFFFCF0F  |  4294954767 |
|     112 | 0x0CA9      |        3241 |
|     113 | 0xFFF8EF43  |  4294504259 |
|     114 | 0xFFFFFA82  |  4294965890 |
|     115 | 0x0BDD      |        3037 |
|     116 | 0xFFFF22C8  |  4294910664 |
|     117 | 0xFFF72621  |  4294387233 |
|     118 | 0x0FD4      |        4052 |
|     119 | 0x00E4      |         228 |
|     120 | 0x007F      |         127 |
|     121 | 0x003C      |          60 |
|     122 | 0x03A5      |         933 |
|     123 | 0x0078      |         120 |
|     124 | 0x0003      |           3 |
|     125 | 0x0004      |           4 |
|     126 | 0x0005      |           5 |
|     127 | 0x0006      |           6 |
|     128 | 0x0008      |           8 |
|     129 | 0x0032      |          50 |
|     130 | 0x1F10      |        7952 |
|     131 | 0x0046      |          70 |
|     132 | 0x0007      |           7 |
|     133 | 0x0064      |         100 |
|     134 | 0x1F11      |        7953 |
|     135 | 0x1F12      |        7954 |
|     136 | 0x005A      |          90 |
|     137 | 0x1F13      |        7955 |
|     138 | 0x1F14      |        7956 |
|     139 | 0x1F15      |        7957 |
|     140 | 0x1F16      |        7958 |
|     141 | 0x1F17      |        7959 |
|     142 | 0x1F18      |        7960 |
|     143 | 0x1F19      |        7961 |
|     144 | 0x1F1A      |        7962 |
|     145 | 0x1F1B      |        7963 |
|     146 | 0x1F1C      |        7964 |
|     147 | 0x1F1D      |        7965 |
|     148 | 0x1F1E      |        7966 |
|     149 | 0x1F1F      |        7967 |
|     150 | 0x1F20      |        7968 |
|     151 | 0x0FE5      |        4069 |
|     152 | 0x1F21      |        7969 |
|     153 | 0x1F22      |        7970 |
|     154 | 0x0028      |          40 |
|     155 | 0xFFF9069B  |  4294510235 |
|     156 | 0xFFFFAD18  |  4294946072 |
|     157 | 0x0B56      |        2902 |
|     158 | 0xFFF904C1  |  4294509761 |
|     159 | 0xFFFFB6A6  |  4294948518 |
|     160 | 0xFFF8FA4A  |  4294507082 |
|     161 | 0xFFFF8C6E  |  4294937710 |
|     162 | 0x0BBE      |        3006 |
|     163 | 0xFFF8EF1C  |  4294504220 |
|     164 | 0xFFFF9B26  |  4294941478 |
|     165 | 0x0C33      |        3123 |
|     166 | 0x00E8      |         232 |
|     167 | 0x1F23      |        7971 |
|     168 | 0x1F24      |        7972 |
|     169 | 0x1F25      |        7973 |
|     170 | 0x1F26      |        7974 |
|     171 | 0x1F27      |        7975 |
|     172 | 0x1F28      |        7976 |
|     173 | 0x1F29      |        7977 |
|     174 | 0x1F2A      |        7978 |
|     175 | 0x1F2B      |        7979 |
|     176 | 0x1F2C      |        7980 |
|     177 | 0x1F2D      |        7981 |
|     178 | 0x1F2E      |        7982 |
|     179 | 0x1F2F      |        7983 |
|     180 | 0x1F30      |        7984 |
|     181 | 0x1F31      |        7985 |
|     182 | 0x1F32      |        7986 |
|     183 | 0x1F33      |        7987 |
|     184 | 0x1F34      |        7988 |
|     185 | 0x0014      |          20 |
|     186 | 0x1F35      |        7989 |
|     187 | 0x1F36      |        7990 |
|     188 | 0x1F37      |        7991 |
|     189 | 0x1F38      |        7992 |
|     190 | 0x1F39      |        7993 |
|     191 | 0x1F3A      |        7994 |
|     192 | 0x1F3B      |        7995 |
|     193 | 0x1F3C      |        7996 |
|     194 | 0x1F3D      |        7997 |
|     195 | 0x1F3E      |        7998 |
|     196 | 0x0866      |        2150 |
|     197 | 0x1F3F      |        7999 |
|     198 | 0x000F      |          15 |
|     199 | 0x1F40      |        8000 |
|     200 | 0x1F41      |        8001 |
|     201 | 0x0096      |         150 |
|     202 | 0x1F42      |        8002 |
|     203 | 0x1F43      |        8003 |
|     204 | 0x1F44      |        8004 |
|     205 | 0x1F45      |        8005 |
|     206 | 0xFFF8D820  |  4294498336 |
|     207 | 0x473E      |       18238 |
|     208 | 0x1DC88     |      121992 |
|     209 | 0x0FF5      |        4085 |
|     210 | 0xFFF8DA7F  |  4294498943 |
|     211 | 0x56BC      |       22204 |
|     212 | 0x0FFF      |        4095 |
|     213 | 0x1F46      |        8006 |
|     214 | 0x0080      |         128 |
|     215 | 0x1F47      |        8007 |
|     216 | 0x1F48      |        8008 |
|     217 | 0x00E7      |         231 |
|     218 | 0x1F49      |        8009 |
|     219 | 0x1F4A      |        8010 |
|     220 | 0x1F4B      |        8011 |
|     221 | 0x1F4C      |        8012 |
|     222 | 0x1F4D      |        8013 |
|     223 | 0x1F4E      |        8014 |
|     224 | 0x1F4F      |        8015 |
|     225 | 0x1F50      |        8016 |
|     226 | 0x1F51      |        8017 |
|     227 | 0x1F52      |        8018 |
|     228 | 0x1F53      |        8019 |
|     229 | 0x1F54      |        8020 |
|     230 | 0x1F55      |        8021 |
|     231 | 0xFFF8FA77  |  4294507127 |
|     232 | 0x268F      |        9871 |
|     233 | 0x1F56      |        8022 |
|     234 | 0x004A      |          74 |
|     235 | 0x1F57      |        8023 |
|     236 | 0x1F58      |        8024 |
|     237 | 0x1F59      |        8025 |
|     238 | 0x00DC      |         220 |
|     239 | 0xFFF8B2DC  |  4294488796 |
|     240 | 0x9664      |       38500 |
|     241 | 0x1D8E4     |      121060 |
|     242 | 0x0200      |         512 |
|     243 | 0xFFF8CDE3  |  4294495715 |
|     244 | 0x6A86      |       27270 |
|     245 | 0x0AFE      |        2814 |
|     246 | 0xFFF8C8D2  |  4294494418 |
|     247 | 0x6643      |       26179 |
|     248 | 0x0AFF      |        2815 |
|     249 | 0xFFF8D5B6  |  4294497718 |
|     250 | 0x5FD8      |       24536 |
|     251 | 0xFFF8C36C  |  4294493036 |
|     252 | 0x76E6      |       30438 |
|     253 | 0xFFF8C9CD  |  4294494669 |
|     254 | 0x7E31      |       32305 |
|     255 | 0xFFF91484  |  4294513796 |
|     256 | 0x36B0      |       14000 |
|     257 | 0x138BE     |       80062 |
|     258 | 0x0A09      |        2569 |
|     259 | 0xFFF9203C  |  4294516796 |
|     260 | 0x2AF8      |       11000 |
|     261 | 0xFFF8FBA2  |  4294507426 |
|     262 | 0xFFFFDF96  |  4294958998 |
|     263 | 0x1D4C0     |      120000 |
|     264 | 0x001B      |          27 |
|     265 | 0x03A7      |         935 |
|     266 | 0xFFF8DE16  |  4294499862 |
|     267 | 0x32C3      |       12995 |
|     268 | 0x0B06      |        2822 |
|     269 | 0x1F7A      |        8058 |
|     270 | 0x07D5      |        2005 |
|     271 | 0x1F7B      |        8059 |
|     272 | 0x1F7C      |        8060 |
|     273 | 0x1F7D      |        8061 |
|     274 | 0x1F7E      |        8062 |
|     275 | 0x1F7F      |        8063 |
|     276 | 0x1F80      |        8064 |
|     277 | 0x1F81      |        8065 |
|     278 | 0x1F82      |        8066 |
|     279 | 0xFFF8C213  |  4294492691 |
|     280 | 0x8D2D      |       36141 |
|     281 | 0x0B82      |        2946 |
|     282 | 0xFFF8BB6B  |  4294490987 |
|     283 | 0x86FD      |       34557 |
|     284 | 0x0A6D      |        2669 |
|     285 | 0xFFF8CCF2  |  4294495474 |
|     286 | 0x753E      |       30014 |
|     287 | 0x0A0E      |        2574 |
|     288 | 0xFFF8BEF0  |  4294491888 |
|     289 | 0x8A02      |       35330 |
|     290 | 0xFFF8BECD  |  4294491853 |
|     291 | 0x8A1E      |       35358 |
|     292 | 0x060B      |        1547 |
|     293 | 0xFFF8D105  |  4294496517 |
|     294 | 0x8318      |       33560 |
|     295 | 0xFFF8C26D  |  4294492781 |
|     296 | 0x6EE3      |       28387 |
|     297 | 0x0553      |        1363 |
|     298 | 0x1F83      |        8067 |
|     299 | 0x1F84      |        8068 |
|     300 | 0x1F85      |        8069 |
|     301 | 0x1F86      |        8070 |
|     302 | 0x0015      |          21 |
|     303 | 0x1F87      |        8071 |
|     304 | 0xFFF8BAAC  |  4294490796 |
|     305 | 0x85F1      |       34289 |
|     306 | 0x0216      |         534 |
|     307 | 0x1F88      |        8072 |
|     308 | 0x1F89      |        8073 |
|     309 | 0x1F8A      |        8074 |
|     310 | 0x1F8B      |        8075 |
|     311 | 0x1F8C      |        8076 |
|     312 | 0x1F8D      |        8077 |
|     313 | 0x1F8E      |        8078 |
|     314 | 0x1F8F      |        8079 |
|     315 | 0x1F90      |        8080 |
|     316 | 0x1F91      |        8081 |
|     317 | 0x1F92      |        8082 |
|     318 | 0x1F93      |        8083 |
|     319 | 0x000A      |          10 |
|     320 | 0x1F94      |        8084 |
|     321 | 0x1F95      |        8085 |
|     322 | 0x1F96      |        8086 |
|     323 | 0x0208      |         520 |
|     324 | 0x1F97      |        8087 |
|     325 | 0x1F98      |        8088 |
|     326 | 0x1F99      |        8089 |
|     327 | 0x1F9A      |        8090 |
|     328 | 0x00D5      |         213 |
|     329 | 0x1F9B      |        8091 |
|     330 | 0x0026      |          38 |
|     331 | 0x1F9C      |        8092 |
|     332 | 0xFFF91290  |  4294513296 |
|     333 | 0x4268      |       17000 |
|     334 | 0x1F9D      |        8093 |
|     335 | 0x1F9E      |        8094 |
|     336 | 0x1F9F      |        8095 |
|     337 | 0x0072      |         114 |
|     338 | 0x1FA0      |        8096 |
|     339 | 0x1FA1      |        8097 |
|     340 | 0x1FA2      |        8098 |
|     341 | 0x1FA3      |        8099 |
|     342 | 0x1FA4      |        8100 |
|     343 | 0x1FA5      |        8101 |
|     344 | 0x1FA6      |        8102 |
|     345 | 0x1FA7      |        8103 |
|     346 | 0x1FA8      |        8104 |
|     347 | 0x1FA9      |        8105 |
|     348 | 0x1FAA      |        8106 |
|     349 | 0x1FAB      |        8107 |
|     350 | 0x1FAC      |        8108 |
|     351 | 0x1FAD      |        8109 |
|     352 | 0x1FAE      |        8110 |
|     353 | 0x1FAF      |        8111 |
|     354 | 0x1FB0      |        8112 |
|     355 | 0x1FB1      |        8113 |
|     356 | 0x1FB2      |        8114 |
|     357 | 0x1FB3      |        8115 |
|     358 | 0x1FB4      |        8116 |
|     359 | 0x1FB5      |        8117 |
|     360 | 0x1FB6      |        8118 |
|     361 | 0x1FB7      |        8119 |
|     362 | 0xFFF8C1CC  |  4294492620 |
|     363 | 0x78E5      |       30949 |
|     364 | 0x0573      |        1395 |
|     365 | 0x1FB8      |        8120 |
|     366 | 0x1FB9      |        8121 |
|     367 | 0x1FBA      |        8122 |
|     368 | 0x1FBB      |        8123 |
|     369 | 0x1FBC      |        8124 |
|     370 | 0x1FBD      |        8125 |
|     371 | 0x1FBE      |        8126 |
|     372 | 0x1FBF      |        8127 |
|     373 | 0x1FC0      |        8128 |
|     374 | 0x1FC1      |        8129 |
|     375 | 0x1FC2      |        8130 |
|     376 | 0x1FC3      |        8131 |
|     377 | 0x1FC4      |        8132 |
|     378 | 0x1FC5      |        8133 |
|     379 | 0x1FC6      |        8134 |
|     380 | 0x1FC7      |        8135 |
|     381 | 0x1FC8      |        8136 |
|     382 | 0x1FC9      |        8137 |

## String References

- **7965**: Can you defeat Chaos? [Of course I can!/Maybe not.../I don't know.]

## Events

### Event 65535

#### Metadata

| Field        | Value     |
|--------------|-----------|
| Entrypoint   | 0x0000    |
| Data Size    | 658 bytes |
| Instructions | 1         |

```
      00 01 02 03 04 05 06 07  08 09 0A 0B 0C 0D 0E 0F
      -- -- -- -- -- -- -- --  -- -- -- -- -- -- -- --
0000: 00 45 00 80 F0 FF FF 7F  F0 FF FF 7F 66 64 69 30  .E..........fdi0
0010: 01 80 55 00 80 F0 FF FF  7F F0 FF FF 7F 66 64 69  ..U..........fdi
0020: 30 1B 45 00 80 F0 FF FF  7F F0 FF FF 7F 66 64 6F  0.E..........fdo
0030: 30 01 80 55 00 80 F0 FF  FF 7F F0 FF FF 7F 66 64  0..U..........fd
0040: 6F 30 1B 45 00 80 F0 FF  FF 7F F0 FF FF 7F 66 64  o0.E..........fd
0050: 69 31 01 80 55 00 80 F0  FF FF 7F F0 FF FF 7F 66  i1..U..........f
0060: 64 69 31 1B 45 00 80 F0  FF FF 7F F0 FF FF 7F 66  di1.E..........f
0070: 64 6F 31 01 80 55 00 80  F0 FF FF 7F F0 FF FF 7F  do1..U..........
0080: 66 64 6F 31 1B 45 02 80  F0 FF FF 7F F0 FF FF 7F  fdo1.E..........
0090: 77 68 69 31 01 80 55 02  80 F0 FF FF 7F F0 FF FF  whi1..U.........
00A0: 7F 77 68 69 31 1B 45 02  80 F0 FF FF 7F F0 FF FF  .whi1.E.........
00B0: 7F 77 68 6F 31 01 80 55  02 80 F0 FF FF 7F F0 FF  .who1..U........
00C0: FF 7F 77 68 6F 31 1B 45  02 80 F0 FF FF 7F F0 FF  ..who1.E........
00D0: FF 7F 77 68 6F 32 01 80  55 02 80 F0 FF FF 7F F0  ..who2..U.......
00E0: FF FF 7F 77 68 6F 32 1B  45 02 80 F0 FF FF 7F F0  ...who2.E.......
00F0: FF FF 7F 77 68 6F 33 01  80 55 02 80 F0 FF FF 7F  ...who3..U......
0100: F0 FF FF 7F 77 68 6F 33  1B 62 03 80 F0 FF FF 7F  ....who3.b......
0110: F0 FF FF 7F 6D 61 69 6E  01 80 1C 04 80 45 00 80  ....main.....E..
0120: F0 FF FF 7F F0 FF FF 7F  66 64 6F 31 01 80 55 00  ........fdo1..U.
0130: 80 F0 FF FF 7F F0 FF FF  7F 66 64 6F 31 1B 45 00  .........fdo1.E.
0140: 80 F0 FF FF 7F F0 FF FF  7F 66 64 69 31 01 80 62  .........fdi1..b
0150: 05 80 F0 FF FF 7F F0 FF  FF 7F 6D 61 69 6E 01 80  ..........main..
0160: 1C 06 80 55 00 80 F0 FF  FF 7F F0 FF FF 7F 66 64  ...U..........fd
0170: 69 31 1B 45 00 80 F0 FF  FF 7F F0 FF FF 7F 62 6C  i1.E..........bl
0180: 6F 6E 01 80 45 02 80 F0  FF FF 7F F0 FF FF 7F 62  on..E..........b
0190: 6C 6F 6E 01 80 1B 45 02  80 F0 FF FF 7F F0 FF FF  lon...E.........
01A0: 7F 77 68 69 30 01 80 55  02 80 F0 FF FF 7F F0 FF  .whi0..U........
01B0: FF 7F 77 68 69 30 1B 45  02 80 F0 FF FF 7F F0 FF  ..whi0.E........
01C0: FF 7F 77 68 6F 30 01 80  55 02 80 F0 FF FF 7F F0  ..who0..U.......
01D0: FF FF 7F 77 68 6F 30 1B  45 07 80 F0 FF FF 7F F0  ...who0.E.......
01E0: FF FF 7F 65 66 6F 6E 01  80 55 07 80 F0 FF FF 7F  ...efon..U......
01F0: F0 FF FF 7F 65 66 6F 6E  1B 45 00 80 F0 FF FF 7F  ....efon.E......
0200: F0 FF FF 7F 66 64 69 73  01 80 1B 45 00 80 F0 FF  ....fdis...E....
0210: FF 7F F0 FF FF 7F 66 64  6F 73 01 80 55 00 80 F0  ......fdos..U...
0220: FF FF 7F F0 FF FF 7F 66  64 6F 73 1B 45 00 80 F0  .......fdos.E...
0230: FF FF 7F F0 FF FF 7F 66  64 69 66 01 80 1B 45 00  .......fdif...E.
0240: 80 F0 FF FF 7F F0 FF FF  7F 66 64 6F 66 01 80 55  .........fdof..U
0250: 00 80 F0 FF FF 7F F0 FF  FF 7F 66 64 6F 66 1B 45  ..........fdof.E
0260: 00 80 F0 FF FF 7F F0 FF  FF 7F 66 64 69 70 01 80  ..........fdip..
0270: 1B 45 00 80 F0 FF FF 7F  F0 FF FF 7F 66 64 6F 70  .E..........fdop
0280: 01 80 55 00 80 F0 FF FF  7F F0 FF FF 7F 66 64 6F  ..U..........fdo
0290: 70 1B                                             p.              
```

#### Opcodes

```
  0: 0x0000 [0x00] END_REQSTACK()
```

#### Data or dead code:

```
# Dead code (unreachable instructions):
     0x0001 [0x45] LOAD_SCHEDULED_TASK: Load scheduler "fdi0" with entities [LocalPlayer, LocalPlayer], work=[200*, 0*]
     0x0012 [0x55] WAIT_LOAD_SCHEDULER: Wait for scheduler "fdi0" with entities [LocalPlayer, LocalPlayer], work=200*
     0x0021 [0x1B] RETURN
     0x0022 [0x45] LOAD_SCHEDULED_TASK: Load scheduler "fdo0" with entities [LocalPlayer, LocalPlayer], work=[200*, 0*]
     0x0033 [0x55] WAIT_LOAD_SCHEDULER: Wait for scheduler "fdo0" with entities [LocalPlayer, LocalPlayer], work=200*
     0x0042 [0x1B] RETURN
     0x0043 [0x45] LOAD_SCHEDULED_TASK: Load scheduler "fdi1" with entities [LocalPlayer, LocalPlayer], work=[200*, 0*]
     0x0054 [0x55] WAIT_LOAD_SCHEDULER: Wait for scheduler "fdi1" with entities [LocalPlayer, LocalPlayer], work=200*
     0x0063 [0x1B] RETURN
     0x0064 [0x45] LOAD_SCHEDULED_TASK: Load scheduler "fdo1" with entities [LocalPlayer, LocalPlayer], work=[200*, 0*]
     0x0075 [0x55] WAIT_LOAD_SCHEDULER: Wait for scheduler "fdo1" with entities [LocalPlayer, LocalPlayer], work=200*
     0x0084 [0x1B] RETURN
     0x0085 [0x45] LOAD_SCHEDULED_TASK: Load scheduler "whi1" with entities [LocalPlayer, LocalPlayer], work=[201*, 0*]
     0x0096 [0x55] WAIT_LOAD_SCHEDULER: Wait for scheduler "whi1" with entities [LocalPlayer, LocalPlayer], work=201*
     0x00A5 [0x1B] RETURN
     0x00A6 [0x45] LOAD_SCHEDULED_TASK: Load scheduler "who1" with entities [LocalPlayer, LocalPlayer], work=[201*, 0*]
     0x00B7 [0x55] WAIT_LOAD_SCHEDULER: Wait for scheduler "who1" with entities [LocalPlayer, LocalPlayer], work=201*
     0x00C6 [0x1B] RETURN
     0x00C7 [0x45] LOAD_SCHEDULED_TASK: Load scheduler "who2" with entities [LocalPlayer, LocalPlayer], work=[201*, 0*]
     0x00D8 [0x55] WAIT_LOAD_SCHEDULER: Wait for scheduler "who2" with entities [LocalPlayer, LocalPlayer], work=201*
     0x00E7 [0x1B] RETURN
     0x00E8 [0x45] LOAD_SCHEDULED_TASK: Load scheduler "who3" with entities [LocalPlayer, LocalPlayer], work=[201*, 0*]
     0x00F9 [0x55] WAIT_LOAD_SCHEDULER: Wait for scheduler "who3" with entities [LocalPlayer, LocalPlayer], work=201*
     0x0108 [0x1B] RETURN
     0x0109 [0x62] LOAD_EVENT_SCHEDULER: Load scheduler "main" with entities [LocalPlayer, LocalPlayer], work=[1*, 0*]
     0x011A [0x1C] WAIT(45* ticks)
     0x011D [0x45] LOAD_SCHEDULED_TASK: Load scheduler "fdo1" with entities [LocalPlayer, LocalPlayer], work=[200*, 0*]
     0x012E [0x55] WAIT_LOAD_SCHEDULER: Wait for scheduler "fdo1" with entities [LocalPlayer, LocalPlayer], work=200*
     0x013D [0x1B] RETURN
     0x013E [0x45] LOAD_SCHEDULED_TASK: Load scheduler "fdi1" with entities [LocalPlayer, LocalPlayer], work=[200*, 0*]
     0x014F [0x62] LOAD_EVENT_SCHEDULER: Load scheduler "main" with entities [LocalPlayer, LocalPlayer], work=[2*, 0*]
     0x0160 [0x1C] WAIT(30* ticks)
     0x0163 [0x55] WAIT_LOAD_SCHEDULER: Wait for scheduler "fdi1" with entities [LocalPlayer, LocalPlayer], work=200*
     0x0172 [0x1B] RETURN
     0x0173 [0x45] LOAD_SCHEDULED_TASK: Load scheduler "blon" with entities [LocalPlayer, LocalPlayer], work=[200*, 0*]
     0x0184 [0x45] LOAD_SCHEDULED_TASK: Load scheduler "blon" with entities [LocalPlayer, LocalPlayer], work=[201*, 0*]
     0x0195 [0x1B] RETURN
     0x0196 [0x45] LOAD_SCHEDULED_TASK: Load scheduler "whi0" with entities [LocalPlayer, LocalPlayer], work=[201*, 0*]
     0x01A7 [0x55] WAIT_LOAD_SCHEDULER: Wait for scheduler "whi0" with entities [LocalPlayer, LocalPlayer], work=201*
     0x01B6 [0x1B] RETURN
     0x01B7 [0x45] LOAD_SCHEDULED_TASK: Load scheduler "who0" with entities [LocalPlayer, LocalPlayer], work=[201*, 0*]
     0x01C8 [0x55] WAIT_LOAD_SCHEDULER: Wait for scheduler "who0" with entities [LocalPlayer, LocalPlayer], work=201*
     0x01D7 [0x1B] RETURN
     0x01D8 [0x45] LOAD_SCHEDULED_TASK: Load scheduler "efon" with entities [LocalPlayer, LocalPlayer], work=[215*, 0*]
     0x01E9 [0x55] WAIT_LOAD_SCHEDULER: Wait for scheduler "efon" with entities [LocalPlayer, LocalPlayer], work=215*
     0x01F8 [0x1B] RETURN
     0x01F9 [0x45] LOAD_SCHEDULED_TASK: Load scheduler "fdis" with entities [LocalPlayer, LocalPlayer], work=[200*, 0*]
     0x020A [0x1B] RETURN
     0x020B [0x45] LOAD_SCHEDULED_TASK: Load scheduler "fdos" with entities [LocalPlayer, LocalPlayer], work=[200*, 0*]
     0x021C [0x55] WAIT_LOAD_SCHEDULER: Wait for scheduler "fdos" with entities [LocalPlayer, LocalPlayer], work=200*
     0x022B [0x1B] RETURN
     0x022C [0x45] LOAD_SCHEDULED_TASK: Load scheduler "fdif" with entities [LocalPlayer, LocalPlayer], work=[200*, 0*]
     0x023D [0x1B] RETURN
     0x023E [0x45] LOAD_SCHEDULED_TASK: Load scheduler "fdof" with entities [LocalPlayer, LocalPlayer], work=[200*, 0*]
     0x024F [0x55] WAIT_LOAD_SCHEDULER: Wait for scheduler "fdof" with entities [LocalPlayer, LocalPlayer], work=200*
     0x025E [0x1B] RETURN
     0x025F [0x45] LOAD_SCHEDULED_TASK: Load scheduler "fdip" with entities [LocalPlayer, LocalPlayer], work=[200*, 0*]
     0x0270 [0x1B] RETURN
     0x0271 [0x45] LOAD_SCHEDULED_TASK: Load scheduler "fdop" with entities [LocalPlayer, LocalPlayer], work=[200*, 0*]
     0x0282 [0x55] WAIT_LOAD_SCHEDULER: Wait for scheduler "fdop" with entities [LocalPlayer, LocalPlayer], work=200*
     0x0291 [0x1B] RETURN
```

### Event 8

#### Metadata

| Field        | Value       |
|--------------|-------------|
| Entrypoint   | 0x0292      |
| Data Size    | 11197 bytes |
| Instructions | 1500        |

```
      00 01 02 03 04 05 06 07  08 09 0A 0B 0C 0D 0E 0F
      -- -- -- -- -- -- -- --  -- -- -- -- -- -- -- --
0290:       03 01 00 01 80 5D  01 80 08 80 42 1A 64 00    .....]....B.d.
02A0: 46 01 38 09 80 2F 00 BE  D0 00 01 2F 00 BF D0 00  F.8../...../....
02B0: 01 2F 00 C0 D0 00 01 2F  00 C1 D0 00 01 2F 00 C2  ./...../...../..
02C0: D0 00 01 2F 00 C3 D0 00  01 2F 00 C4 D0 00 01 2F  .../...../...../
02D0: 00 C5 D0 00 01 2F 00 C6  D0 00 01 2F 00 C7 D0 00  ...../...../....
02E0: 01 2F 00 C8 D0 00 01 2F  00 C9 D0 00 01 2F 00 CA  ./...../...../..
02F0: D0 00 01 2F 00 CB D0 00  01 2F 00 CC D0 00 01 2F  .../...../...../
0300: 00 CD D0 00 01 2F 00 CE  D0 00 01 2F 00 CF D0 00  ...../...../....
0310: 01 2F 00 D0 D0 00 01 2F  00 D1 D0 00 01 2F 00 D2  ./...../...../..
0320: D0 00 01 2F 00 D3 D0 00  01 2F 00 D4 D0 00 01 2F  .../...../...../
0330: 00 D5 D0 00 01 2F 00 D6  D0 00 01 2F 00 D7 D0 00  ...../...../....
0340: 01 2F 00 97 D0 00 01 2F  00 9B D0 00 01 2F 00 9C  ./...../...../..
0350: D0 00 01 2F 00 9D D0 00  01 2F 00 9E D0 00 01 2F  .../...../...../
0360: 00 BA D0 00 01 2F 00 D8  D0 00 01 4E 00 BE D0 00  ...../.....N....
0370: 01 4E 00 BF D0 00 01 4E  00 C0 D0 00 01 4E 00 C1  .N.....N.....N..
0380: D0 00 01 4E 00 C2 D0 00  01 4E 00 C3 D0 00 01 4E  ...N.....N.....N
0390: 00 C4 D0 00 01 4E 00 C5  D0 00 01 4E 00 C6 D0 00  .....N.....N....
03A0: 01 4E 00 C7 D0 00 01 4E  00 C8 D0 00 01 4E 00 C9  .N.....N.....N..
03B0: D0 00 01 4E 00 CA D0 00  01 4E 00 CB D0 00 01 4E  ...N.....N.....N
03C0: 00 CC D0 00 01 4E 00 CD  D0 00 01 4E 00 CE D0 00  .....N.....N....
03D0: 01 4E 00 CF D0 00 01 4E  00 D0 D0 00 01 4E 00 D1  .N.....N.....N..
03E0: D0 00 01 4E 00 D2 D0 00  01 4E 00 D3 D0 00 01 4E  ...N.....N.....N
03F0: 00 D4 D0 00 01 4E 00 D5  D0 00 01 4E 00 D6 D0 00  .....N.....N....
0400: 01 4E 00 D7 D0 00 01 4E  00 97 D0 00 01 4E 00 9B  .N.....N.....N..
0410: D0 00 01 4E 00 9C D0 00  01 4E 00 9D D0 00 01 4E  ...N.....N.....N
0420: 00 9E D0 00 01 4E 00 BA  D0 00 01 4E 00 D8 D0 00  .....N.....N....
0430: 01 94 01 BE D0 00 01 94  01 BF D0 00 01 94 01 C0  ................
0440: D0 00 01 94 01 C1 D0 00  01 94 01 C2 D0 00 01 94  ................
0450: 01 C3 D0 00 01 94 01 C4  D0 00 01 94 01 C5 D0 00  ................
0460: 01 94 01 C6 D0 00 01 94  01 C7 D0 00 01 94 01 C8  ................
0470: D0 00 01 94 01 C9 D0 00  01 94 01 CA D0 00 01 94  ................
0480: 01 CB D0 00 01 94 01 CC  D0 00 01 94 01 CD D0 00  ................
0490: 01 94 01 CE D0 00 01 94  01 CF D0 00 01 94 01 D0  ................
04A0: D0 00 01 94 01 D1 D0 00  01 94 01 D2 D0 00 01 94  ................
04B0: 01 D3 D0 00 01 94 01 D4  D0 00 01 94 01 D5 D0 00  ................
04C0: 01 94 01 D6 D0 00 01 94  01 D7 D0 00 01 94 01 97  ................
04D0: D0 00 01 94 01 9B D0 00  01 94 01 9C D0 00 01 94  ................
04E0: 01 9D D0 00 01 94 01 9E  D0 00 01 94 01 BA D0 00  ................
04F0: 01 94 01 D8 D0 00 01 94  01 F0 FF FF 7F BA BE D0  ................
0500: 00 01 0A 80 0B 80 0C 80  0D 80 BA BF D0 00 01 0E  ................
0510: 80 0F 80 10 80 11 80 BA  C0 D0 00 01 12 80 13 80  ................
0520: 10 80 14 80 BA C1 D0 00  01 15 80 16 80 17 80 18  ................
0530: 80 BA C2 D0 00 01 19 80  1A 80 10 80 1B 80 BA C3  ................
0540: D0 00 01 1C 80 1D 80 10  80 1E 80 BA C4 D0 00 01  ................
0550: 1F 80 20 80 21 80 22 80  BA C5 D0 00 01 23 80 24  .. .!."......#.$
0560: 80 10 80 25 80 BA C6 D0  00 01 26 80 27 80 10 80  ...%......&.'...
0570: 28 80 BA C7 D0 00 01 29  80 2A 80 10 80 2B 80 59  (......).*...+.Y
0580: 05 C8 D0 00 01 01 BA C8  D0 00 01 2C 80 2D 80 2E  ...........,.-..
0590: 80 2F 80 59 05 C9 D0 00  01 01 BA C9 D0 00 01 30  ./.Y...........0
05A0: 80 31 80 32 80 2F 80 BA  CA D0 00 01 33 80 34 80  .1.2./......3.4.
05B0: 17 80 35 80 BA CB D0 00  01 36 80 37 80 10 80 38  ..5......6.7...8
05C0: 80 BA CC D0 00 01 39 80  3A 80 10 80 3B 80 BA CD  ......9.:...;...
05D0: D0 00 01 3C 80 3D 80 3E  80 2F 80 BA CE D0 00 01  ...<.=.>./......
05E0: 3F 80 40 80 10 80 2F 80  59 05 CF D0 00 01 01 BA  ?.@.../.Y.......
05F0: CF D0 00 01 41 80 42 80  43 80 2F 80 BA D0 D0 00  ....A.B.C./.....
0600: 01 44 80 45 80 46 80 01  80 BA D1 D0 00 01 47 80  .D.E.F........G.
0610: 48 80 49 80 01 80 BA D2  D0 00 01 4A 80 4B 80 4C  H.I........J.K.L
0620: 80 01 80 BA D3 D0 00 01  4D 80 4E 80 10 80 4F 80  ........M.N...O.
0630: BA D4 D0 00 01 50 80 51  80 52 80 53 80 BA D5 D0  .....P.Q.R.S....
0640: 00 01 54 80 55 80 56 80  2F 80 BA D6 D0 00 01 57  ..T.U.V./......W
0650: 80 58 80 59 80 2F 80 BA  D7 D0 00 01 5A 80 5B 80  .X.Y./......Z.[.
0660: 5C 80 2F 80 BA 97 D0 00  01 5D 80 5E 80 5F 80 60  \./......].^._.`
0670: 80 BA 9B D0 00 01 61 80  62 80 52 80 63 80 BA 9C  ......a.b.R.c...
0680: D0 00 01 64 80 65 80 66  80 67 80 BA 9D D0 00 01  ...d.e.f.g......
0690: 68 80 69 80 10 80 6A 80  BA 9E D0 00 01 6B 80 6C  h.i...j......k.l
06A0: 80 10 80 6D 80 BA BA D0  00 01 6E 80 6F 80 52 80  ...m......n.o.R.
06B0: 70 80 BA D8 D0 00 01 71  80 72 80 52 80 73 80 BA  p......q.r.R.s..
06C0: F0 FF FF 7F 74 80 75 80  5F 80 76 80 02 01 00 01  ....t.u._.v.....
06D0: 80 00 E2 06 5C 00 77 80  5C 01 77 80 9A 5D 78 80  ....\.w.\.w..]x.
06E0: 03 80 29 0F 8A D0 00 01  03 80 BE D0 00 01 80 BF  ..).............
06F0: D0 00 01 80 C0 D0 00 01  80 C1 D0 00 01 80 C2 D0  ................
0700: 00 01 80 C3 D0 00 01 80  C4 D0 00 01 80 C5 D0 00  ................
0710: 01 80 C6 D0 00 01 80 C7  D0 00 01 80 C8 D0 00 01  ................
0720: 80 C9 D0 00 01 80 CA D0  00 01 80 CB D0 00 01 80  ................
0730: CC D0 00 01 80 CD D0 00  01 80 CE D0 00 01 80 CF  ................
0740: D0 00 01 80 D0 D0 00 01  80 D1 D0 00 01 80 D2 D0  ................
0750: 00 01 80 D3 D0 00 01 80  D4 D0 00 01 80 D5 D0 00  ................
0760: 01 80 D6 D0 00 01 80 D7  D0 00 01 80 97 D0 00 01  ................
0770: 80 9B D0 00 01 80 9C D0  00 01 80 9D D0 00 01 80  ................
0780: 9E D0 00 01 80 BA D0 00  01 80 D8 D0 00 01 80 F0  ................
0790: FF FF 7F 29 0F D1 D0 00  01 28 29 0F F0 FF FF 7F  ...).....().....
07A0: 1D 29 0F C5 D0 00 01 6B  29 0F C6 D0 00 01 6B 29  .).....k).....k)
07B0: 0F CE D0 00 01 30 29 0F  CF D0 00 01 30 29 0F 97  .....0).....0)..
07C0: D0 00 01 3B 29 0F D2 D0  00 01 28 29 0F BF D0 00  ...;).....()....
07D0: 01 9C 29 0F C0 D0 00 01  9C 29 0F CB D0 00 01 0F  ..)......)......
07E0: 29 0F CC D0 00 01 0F 29  0F D7 D0 00 01 4C 29 0F  )......).....L).
07F0: D5 D0 00 01 02 29 0F D4  D0 00 01 4C 6C D4 D0 00  .....).....Ll...
0800: 01 01 80 03 80 6C D5 D0  00 01 01 80 03 80 6C D6  .....l........l.
0810: D0 00 01 01 80 03 80 6C  D7 D0 00 01 01 80 03 80  .......l........
0820: 2C CB D0 00 01 CB D0 00  01 73 73 73 6F 29 0F F0  ,........ssso)..
0830: FF FF 7F 1B 02 01 00 01  80 00 C2 11 1C 79 80 27  .............y.'
0840: 0F F0 FF FF 7F 22 45 7A  80 F8 FF FF 7F F8 FF FF  ....."Ez........
0850: 7F 73 30 30 30 01 80 1A  43 00 1C 7B 80 79 00 97  .s000...C..{.y..
0860: D0 00 01 F0 FF FF 7F 27  0F 97 D0 00 01 3C 52 7A  .......'.....<Rz
0870: 80 F8 FF FF 7F F8 FF FF  7F 73 30 30 30 02 09 10  .........s000...
0880: 7C 80 00 99 08 45 7A 80  F8 FF FF 7F F8 FF FF 7F  |....Ez.........
0890: 73 30 30 31 01 80 01 1A  09 02 09 10 7D 80 00 B5  s001........}...
08A0: 08 45 7A 80 F8 FF FF 7F  F8 FF FF 7F 73 30 30 31  .Ez.........s001
08B0: 01 80 01 1A 09 02 09 10  7E 80 00 D1 08 45 7A 80  ........~....Ez.
08C0: F8 FF FF 7F F8 FF FF 7F  73 30 31 36 01 80 01 1A  ........s016....
08D0: 09 02 09 10 7F 80 00 ED  08 45 7A 80 F8 FF FF 7F  .........Ez.....
08E0: F8 FF FF 7F 73 30 31 36  01 80 01 1A 09 02 09 10  ....s016........
08F0: 80 80 00 09 09 45 7A 80  F8 FF FF 7F F8 FF FF 7F  .....Ez.........
0900: 73 30 30 31 01 80 01 1A  09 45 7A 80 F8 FF FF 7F  s001.....Ez.....
0910: F8 FF FF 7F 73 30 32 31  01 80 1C 81 80 2A 0F F0  ....s021.....*..
0920: FF FF 7F 4A F0 FF FF 7F  97 D0 00 01 6F 76 F0 FF  ...J........ov..
0930: FF 7F 2B 97 D0 00 01 82  80 1C 83 80 6E F0 FF FF  ..+.........n...
0940: 7F 84 80 99 F0 FF FF 7F  1C 79 80 2A 0F 97 D0 00  .........y.*....
0950: 01 23 29 0F F0 FF FF 7F  20 1C 85 80 02 09 10 7C  .#)..... ......|
0960: 80 00 76 09 52 7A 80 F8  FF FF 7F F8 FF FF 7F 73  ..v.Rz.........s
0970: 30 30 31 01 ED 09 02 09  10 7D 80 00 90 09 52 7A  001......}....Rz
0980: 80 F8 FF FF 7F F8 FF FF  7F 73 30 30 31 01 ED 09  .........s001...
0990: 02 09 10 7E 80 00 AA 09  52 7A 80 F8 FF FF 7F F8  ...~....Rz......
09A0: FF FF 7F 73 30 31 36 01  ED 09 02 09 10 7F 80 00  ...s016.........
09B0: C4 09 52 7A 80 F8 FF FF  7F F8 FF FF 7F 73 30 31  ..Rz.........s01
09C0: 36 01 ED 09 02 09 10 80  80 00 DE 09 52 7A 80 F8  6...........Rz..
09D0: FF FF 7F F8 FF FF 7F 73  30 30 31 01 ED 09 52 7A  .......s001...Rz
09E0: 80 F8 FF FF 7F F8 FF FF  7F 73 30 32 31 45 7A 80  .........s021Ez.
09F0: F8 FF FF 7F F8 FF FF 7F  73 30 30 32 01 80 29 0F  ........s002..).
0A00: F0 FF FF 7F 21 2B 97 D0  00 01 86 80 23 6E 97 D0  ....!+......#n..
0A10: 00 01 84 80 99 97 D0 00  01 2B 97 D0 00 01 87 80  .........+......
0A20: 1C 88 80 23 52 7A 80 F8  FF FF 7F F8 FF FF 7F 73  ...#Rz.........s
0A30: 30 30 32 02 09 10 7E 80  00 4F 0A 45 7A 80 F8 FF  002...~..O.Ez...
0A40: FF 7F F8 FF FF 7F 73 30  31 37 01 80 01 7C 0A 02  ......s017...|..
0A50: 09 10 7F 80 00 6B 0A 45  7A 80 F8 FF FF 7F F8 FF  .....k.Ez.......
0A60: FF 7F 73 30 31 37 01 80  01 7C 0A 45 7A 80 F8 FF  ..s017...|.Ez...
0A70: FF 7F F8 FF FF 7F 73 30  30 33 01 80 29 0F 97 D0  ......s003..)...
0A80: 00 01 24 2B 97 D0 00 01  89 80 23 2B 97 D0 00 01  ..$+......#+....
0A90: 8A 80 23 29 0F 97 D0 00  01 25 29 0F 97 D0 00 01  ..#).....%).....
0AA0: 26 6E F0 FF FF 7F 84 80  99 F0 FF FF 7F 1C 85 80  &n..............
0AB0: 29 0F F0 FF FF 7F 20 1C  81 80 1A 64 00 29 0F 97  )..... ....d.)..
0AC0: D0 00 01 27 02 09 10 7E  80 00 DE 0A 52 7A 80 F8  ...'...~....Rz..
0AD0: FF FF 7F F8 FF FF 7F 73  30 31 37 01 07 0B 02 09  .......s017.....
0AE0: 10 7F 80 00 F8 0A 52 7A  80 F8 FF FF 7F F8 FF FF  ......Rz........
0AF0: 7F 73 30 31 37 01 07 0B  52 7A 80 F8 FF FF 7F F8  .s017...Rz......
0B00: FF FF 7F 73 30 30 33 45  7A 80 F8 FF FF 7F F8 FF  ...s003Ez.......
0B10: FF 7F 73 30 30 34 01 80  1A 43 00 1C 79 80 29 0F  ..s004...C..y.).
0B20: F0 FF FF 7F 21 1C 79 80  52 7A 80 F8 FF FF 7F F8  ....!.y.Rz......
0B30: FF FF 7F 73 30 30 34 45  7A 80 F8 FF FF 7F F8 FF  ...s004Ez.......
0B40: FF 7F 73 30 30 35 01 80  6E 97 D0 00 01 84 80 99  ..s005..n.......
0B50: 97 D0 00 01 2B 97 D0 00  01 8B 80 1C 7B 80 23 7B  ....+.......{.#{
0B60: 97 D0 00 01 27 0F 97 D0  00 01 3D 2B 97 D0 00 01  ....'.....=+....
0B70: 8C 80 1C 06 80 52 7A 80  F8 FF FF 7F F8 FF FF 7F  .....Rz.........
0B80: 73 30 30 35 02 09 10 7E  80 00 A0 0B 45 7A 80 F8  s005...~....Ez..
0B90: FF FF 7F F8 FF FF 7F 73  30 38 38 01 80 01 CD 0B  .......s088.....
0BA0: 02 09 10 7F 80 00 BC 0B  45 7A 80 F8 FF FF 7F F8  ........Ez......
0BB0: FF FF 7F 73 30 38 38 01  80 01 CD 0B 45 7A 80 F8  ...s088.....Ez..
0BC0: FF FF 7F F8 FF FF 7F 73  30 30 36 01 80 23 2A 0F  .......s006..#*.
0BD0: 97 D0 00 01 02 09 10 7E  80 00 EE 0B 52 7A 80 F8  .......~....Rz..
0BE0: FF FF 7F F8 FF FF 7F 73  30 38 38 01 17 0C 02 09  .......s088.....
0BF0: 10 7F 80 00 08 0C 52 7A  80 F8 FF FF 7F F8 FF FF  ......Rz........
0C00: 7F 73 30 38 38 01 17 0C  52 7A 80 F8 FF FF 7F F8  .s088...Rz......
0C10: FF FF 7F 73 30 30 36 45  7A 80 F8 FF FF 7F F8 FF  ...s006Ez.......
0C20: FF 7F 73 30 30 37 01 80  2B 97 D0 00 01 8D 80 23  ..s007..+......#
0C30: 52 7A 80 F8 FF FF 7F F8  FF FF 7F 73 30 30 37 02  Rz.........s007.
0C40: 09 10 7E 80 00 5B 0C 45  7A 80 F8 FF FF 7F F8 FF  ..~..[.Ez.......
0C50: FF 7F 73 30 31 38 01 80  01 88 0C 02 09 10 7F 80  ..s018..........
0C60: 00 77 0C 45 7A 80 F8 FF  FF 7F F8 FF FF 7F 73 30  .w.Ez.........s0
0C70: 31 38 01 80 01 88 0C 45  7A 80 F8 FF FF 7F F8 FF  18.....Ez.......
0C80: FF 7F 73 30 30 38 01 80  4A 97 D0 00 01 F0 FF FF  ..s008..J.......
0C90: 7F 6F 76 97 D0 00 01 2B  97 D0 00 01 8E 80 23 6E  .ov....+......#n
0CA0: F0 FF FF 7F 84 80 99 F0  FF FF 7F 1C 85 80 02 09  ................
0CB0: 10 7E 80 00 C8 0C 52 7A  80 F8 FF FF 7F F8 FF FF  .~....Rz........
0CC0: 7F 73 30 31 38 01 F1 0C  02 09 10 7F 80 00 E2 0C  .s018...........
0CD0: 52 7A 80 F8 FF FF 7F F8  FF FF 7F 73 30 31 38 01  Rz.........s018.
0CE0: F1 0C 52 7A 80 F8 FF FF  7F F8 FF FF 7F 73 30 30  ..Rz.........s00
0CF0: 38 45 7A 80 F8 FF FF 7F  F8 FF FF 7F 73 30 30 39  8Ez.........s009
0D00: 01 80 4A 97 D0 00 01 F0  FF FF 7F 6F 76 97 D0 00  ..J........ov...
0D10: 01 7B 97 D0 00 01 2B 97  D0 00 01 8F 80 6E 97 D0  .{....+......n..
0D20: 00 01 7F 80 99 97 D0 00  01 1C 7B 80 23 29 0F 97  ..........{.#)..
0D30: D0 00 01 24 2B 97 D0 00  01 90 80 23 29 0F 97 D0  ...$+......#)...
0D40: 00 01 25 52 7A 80 F8 FF  FF 7F F8 FF FF 7F 73 30  ..%Rz.........s0
0D50: 30 39 02 09 10 7C 80 00  6E 0D 45 7A 80 F8 FF FF  09...|..n.Ez....
0D60: 7F F8 FF FF 7F 73 30 31  30 01 80 01 EF 0D 02 09  .....s010.......
0D70: 10 7D 80 00 8A 0D 45 7A  80 F8 FF FF 7F F8 FF FF  .}....Ez........
0D80: 7F 73 30 31 30 01 80 01  EF 0D 02 09 10 7E 80 00  .s010........~..
0D90: A6 0D 45 7A 80 F8 FF FF  7F F8 FF FF 7F 73 30 31  ..Ez.........s01
0DA0: 39 01 80 01 EF 0D 02 09  10 7F 80 00 C2 0D 45 7A  9.............Ez
0DB0: 80 F8 FF FF 7F F8 FF FF  7F 73 30 31 39 01 80 01  .........s019...
0DC0: EF 0D 02 09 10 80 80 00  DE 0D 45 7A 80 F8 FF FF  ..........Ez....
0DD0: 7F F8 FF FF 7F 73 30 31  30 01 80 01 EF 0D 45 7A  .....s010.....Ez
0DE0: 80 F8 FF FF 7F F8 FF FF  7F 73 30 32 32 01 80 79  .........s022..y
0DF0: 00 97 D0 00 01 F0 FF FF  7F 29 0F 97 D0 00 01 26  .........).....&
0E00: 2B 97 D0 00 01 91 80 23  29 0F 97 D0 00 01 27 2B  +......#).....'+
0E10: 97 D0 00 01 92 80 6E 97  D0 00 01 01 80 99 97 D0  ......n.........
0E20: 00 01 1C 7B 80 23 24 93  80 01 80 01 80 25 02 00  ...{.#$......%..
0E30: 10 01 80 00 01 0F 6E F0  FF FF 7F 84 80 99 F0 FF  ......n.........
0E40: FF 7F 1C 79 80 02 09 10  7C 80 00 5F 0E 52 7A 80  ...y....|.._.Rz.
0E50: F8 FF FF 7F F8 FF FF 7F  73 30 31 30 01 D6 0E 02  ........s010....
0E60: 09 10 7D 80 00 79 0E 52  7A 80 F8 FF FF 7F F8 FF  ..}..y.Rz.......
0E70: FF 7F 73 30 31 30 01 D6  0E 02 09 10 7E 80 00 93  ..s010......~...
0E80: 0E 52 7A 80 F8 FF FF 7F  F8 FF FF 7F 73 30 31 39  .Rz.........s019
0E90: 01 D6 0E 02 09 10 7F 80  00 AD 0E 52 7A 80 F8 FF  ...........Rz...
0EA0: FF 7F F8 FF FF 7F 73 30  31 39 01 D6 0E 02 09 10  ......s019......
0EB0: 80 80 00 C7 0E 52 7A 80  F8 FF FF 7F F8 FF FF 7F  .....Rz.........
0EC0: 73 30 31 30 01 D6 0E 52  7A 80 F8 FF FF 7F F8 FF  s010...Rz.......
0ED0: FF 7F 73 30 32 32 45 7A  80 F8 FF FF 7F F8 FF FF  ..s022Ez........
0EE0: 7F 73 30 31 32 01 80 6E  97 D0 00 01 84 80 99 97  .s012..n........
0EF0: D0 00 01 2B 97 D0 00 01  94 80 1C 88 80 23 01 E3  ...+.........#..
0F00: 0F 6E F0 FF FF 7F 7F 80  99 F0 FF FF 7F 1C 85 80  .n..............
0F10: 02 09 10 7C 80 00 2A 0F  52 7A 80 F8 FF FF 7F F8  ...|..*.Rz......
0F20: FF FF 7F 73 30 31 30 01  A1 0F 02 09 10 7D 80 00  ...s010......}..
0F30: 44 0F 52 7A 80 F8 FF FF  7F F8 FF FF 7F 73 30 31  D.Rz.........s01
0F40: 30 01 A1 0F 02 09 10 7E  80 00 5E 0F 52 7A 80 F8  0......~..^.Rz..
0F50: FF FF 7F F8 FF FF 7F 73  30 31 39 01 A1 0F 02 09  .......s019.....
0F60: 10 7F 80 00 78 0F 52 7A  80 F8 FF FF 7F F8 FF FF  ....x.Rz........
0F70: 7F 73 30 31 39 01 A1 0F  02 09 10 80 80 00 92 0F  .s019...........
0F80: 52 7A 80 F8 FF FF 7F F8  FF FF 7F 73 30 31 30 01  Rz.........s010.
0F90: A1 0F 52 7A 80 F8 FF FF  7F F8 FF FF 7F 73 30 32  ..Rz.........s02
0FA0: 32 45 7A 80 F8 FF FF 7F  F8 FF FF 7F 73 30 31 32  2Ez.........s012
0FB0: 01 80 7B 97 D0 00 01 29  0F 97 D0 00 01 2A 2B 97  ..{....).....*+.
0FC0: D0 00 01 95 80 23 29 0F  97 D0 00 01 2B 29 0F 97  .....#).....+)..
0FD0: D0 00 01 2C 2B 97 D0 00  01 96 80 23 29 0F 97 D0  ...,+......#)...
0FE0: 00 01 2D 52 7A 80 F8 FF  FF 7F F8 FF FF 7F 73 30  ..-Rz.........s0
0FF0: 31 32 45 7A 80 F8 FF FF  7F F8 FF FF 7F 73 30 31  12Ez.........s01
1000: 31 01 80 7B 97 D0 00 01  4B 97 D0 00 01 97 80 6F  1..{....K......o
1010: 76 97 D0 00 01 6E 97 D0  00 01 01 80 99 97 D0 00  v....n..........
1020: 01 2B 97 D0 00 01 98 80  1C 06 80 7B F0 FF FF 7F  .+.........{....
1030: 1C 7B 80 23 52 7A 80 F8  FF FF 7F F8 FF FF 7F 73  .{.#Rz.........s
1040: 30 31 31 02 09 10 7C 80  00 5F 10 45 7A 80 F8 FF  011...|.._.Ez...
1050: FF 7F F8 FF FF 7F 73 30  31 33 01 80 01 C4 10 02  ......s013......
1060: 09 10 7E 80 00 7B 10 45  7A 80 F8 FF FF 7F F8 FF  ..~..{.Ez.......
1070: FF 7F 73 30 32 30 01 80  01 C4 10 02 09 10 7F 80  ..s020..........
1080: 00 97 10 45 7A 80 F8 FF  FF 7F F8 FF FF 7F 73 30  ...Ez.........s0
1090: 32 30 01 80 01 C4 10 02  09 10 80 80 00 B3 10 45  20.............E
10A0: 7A 80 F8 FF FF 7F F8 FF  FF 7F 73 30 31 33 01 80  z.........s013..
10B0: 01 C4 10 45 7A 80 F8 FF  FF 7F F8 FF FF 7F 73 30  ...Ez.........s0
10C0: 32 33 01 80 4A 97 D0 00  01 F0 FF FF 7F 6F 76 97  23..J........ov.
10D0: D0 00 01 2B 97 D0 00 01  99 80 1C 81 80 7B 97 D0  ...+.........{..
10E0: 00 01 79 00 F0 FF FF 7F  97 D0 00 01 23 27 0F 97  ..y.........#'..
10F0: D0 00 01 3E 02 09 10 7C  80 00 0E 11 52 7A 80 F8  ...>...|....Rz..
1100: FF FF 7F F8 FF FF 7F 73  30 31 33 01 6B 11 02 09  .......s013.k...
1110: 10 7E 80 00 28 11 52 7A  80 F8 FF FF 7F F8 FF FF  .~..(.Rz........
1120: 7F 73 30 32 30 01 6B 11  02 09 10 7F 80 00 42 11  .s020.k.......B.
1130: 52 7A 80 F8 FF FF 7F F8  FF FF 7F 73 30 32 30 01  Rz.........s020.
1140: 6B 11 02 09 10 80 80 00  5C 11 52 7A 80 F8 FF FF  k.......\.Rz....
1150: 7F F8 FF FF 7F 73 30 31  33 01 6B 11 52 7A 80 F8  .....s013.k.Rz..
1160: FF FF 7F F8 FF FF 7F 73  30 32 33 45 7A 80 F8 FF  .......s023Ez...
1170: FF 7F F8 FF FF 7F 73 30  31 34 01 80 4A F0 FF FF  ......s014..J...
1180: 7F 97 D0 00 01 6F 76 F0  FF FF 7F 1C 9A 80 27 0F  .....ov.......'.
1190: F0 FF FF 7F 24 1C 81 80  5D 01 80 08 80 1A 64 00  ....$...].....d.
11A0: 52 7A 80 F8 FF FF 7F F8  FF FF 7F 73 30 31 34 2A  Rz.........s014*
11B0: 0F 97 D0 00 01 2A 0F F0  FF FF 7F 29 0F 8A D0 00  .....*.....)....
11C0: 01 04 BA F0 FF FF 7F 9B  80 9C 80 52 80 9D 80 BA  ...........R....
11D0: 97 D0 00 01 9E 80 9F 80  52 80 9D 80 BA D4 D0 00  ........R.......
11E0: 01 A0 80 A1 80 52 80 A2  80 59 05 CF D0 00 01 01  .....R...Y......
11F0: BA CF D0 00 01 41 80 42  80 43 80 2F 80 BA 9C D0  .....A.B.C./....
1200: 00 01 A3 80 A4 80 52 80  A5 80 29 0F C0 D0 00 01  ......R...).....
1210: 55 02 01 00 03 80 05 5F  20 5C 00 A6 80 5C 01 A6  U......_ \...\..
1220: 80 9A 5D 78 80 03 80 45  7A 80 F8 FF FF 7F F8 FF  ..]x...Ez.......
1230: FF 7F 73 30 31 35 01 80  1A 43 00 1C 00 80 52 7A  ..s015...C....Rz
1240: 80 F8 FF FF 7F F8 FF FF  7F 73 30 31 35 45 7A 80  .........s015Ez.
1250: F8 FF FF 7F F8 FF FF 7F  73 30 32 34 01 80 1C 00  ........s024....
1260: 80 52 7A 80 F8 FF FF 7F  F8 FF FF 7F 73 30 32 34  .Rz.........s024
1270: 45 7A 80 F8 FF FF 7F F8  FF FF 7F 73 30 32 35 01  Ez.........s025.
1280: 80 4A C2 D0 00 01 C0 D0  00 01 4A C7 D0 00 01 C0  .J........J.....
1290: D0 00 01 4A BA D0 00 01  C0 D0 00 01 4A CF D0 00  ...J........J...
12A0: 01 C0 D0 00 01 4A CE D0  00 01 C0 D0 00 01 4A D3  .....J........J.
12B0: D0 00 01 C0 D0 00 01 45  7A 80 F8 FF FF 7F F8 FF  .......Ez.......
12C0: FF 7F 35 30 30 34 01 80  2B C0 D0 00 01 A7 80 23  ..5004..+......#
12D0: 2B C0 D0 00 01 A8 80 23  6F 76 C2 D0 00 01 6F 76  +......#ov....ov
12E0: C7 D0 00 01 6F 76 CE D0  00 01 6F 76 CF D0 00 01  ....ov....ov....
12F0: 6F 76 C0 D0 00 01 6F 76  D3 D0 00 01 52 7A 80 F8  ov....ov....Rz..
1300: FF FF 7F F8 FF FF 7F 73  30 32 35 45 7A 80 F8 FF  .......s025Ez...
1310: FF 7F F8 FF FF 7F 73 30  32 36 01 80 29 0F C0 D0  ......s026..)...
1320: 00 01 57 45 7A 80 F8 FF  FF 7F F8 FF FF 7F 35 30  ..WEz.........50
1330: 30 36 01 80 2B C0 D0 00  01 A9 80 23 29 0F C0 D0  06..+......#)...
1340: 00 01 58 52 7A 80 F8 FF  FF 7F F8 FF FF 7F 73 30  ..XRz.........s0
1350: 32 36 45 7A 80 F8 FF FF  7F F8 FF FF 7F 73 30 32  26Ez.........s02
1360: 37 01 80 29 0F C2 D0 00  01 0B 6B 69 64 6C 30 C0  7..)......kidl0.
1370: D0 00 01 4A D1 D0 00 01  C2 D0 00 01 4A D2 D0 00  ...J........J...
1380: 01 C2 D0 00 01 4A CB D0  00 01 D1 D0 00 01 4A CC  .....J........J.
1390: D0 00 01 D1 D0 00 01 45  7A 80 F8 FF FF 7F F8 FF  .......Ez.......
13A0: FF 7F 36 30 30 35 01 80  2B C2 D0 00 01 AA 80 23  ..6005..+......#
13B0: 2B C2 D0 00 01 AB 80 23  6F 76 D1 D0 00 01 6F 76  +......#ov....ov
13C0: D2 D0 00 01 6F 76 CB D0  00 01 6F 76 CC D0 00 01  ....ov....ov....
13D0: 29 0F D1 D0 00 01 17 52  7A 80 F8 FF FF 7F F8 FF  )......Rz.......
13E0: FF 7F 73 30 32 37 45 7A  80 F8 FF FF 7F F8 FF FF  ..s027Ez........
13F0: 7F 73 30 32 38 01 80 1C  03 80 6B 69 64 6C 30 C2  .s028.....kidl0.
1400: D0 00 01 4A C1 D0 00 01  D1 D0 00 01 4A C2 D0 00  ...J........J...
1410: 01 D1 D0 00 01 4A C3 D0  00 01 D1 D0 00 01 45 7A  .....J........Ez
1420: 80 F8 FF FF 7F F8 FF FF  7F 39 30 30 32 01 80 2B  .........9002..+
1430: D1 D0 00 01 AC 80 23 29  0F D1 D0 00 01 18 6F 76  ......#)......ov
1440: C1 D0 00 01 6F 76 C2 D0  00 01 6F 76 C3 D0 00 01  ....ov....ov....
1450: 29 0F C1 D0 00 01 0F 1C  03 80 29 0F C2 D0 00 01  ).........).....
1460: 0C 52 7A 80 F8 FF FF 7F  F8 FF FF 7F 73 30 32 38  .Rz.........s028
1470: 45 7A 80 F8 FF FF 7F F8  FF FF 7F 73 30 32 39 01  Ez.........s029.
1480: 80 1C 03 80 4B D1 D0 00  01 01 80 4B D2 D0 00 01  ....K......K....
1490: 01 80 45 7A 80 F8 FF FF  7F F8 FF FF 7F 36 30 30  ..Ez.........600
14A0: 37 01 80 2B C1 D0 00 01  AD 80 1C 06 80 4A C2 D0  7..+.........J..
14B0: 00 01 C1 D0 00 01 6F 76  C2 D0 00 01 23 6F 76 D1  ......ov....#ov.
14C0: D0 00 01 6F 76 D2 D0 00  01 52 7A 80 F8 FF FF 7F  ...ov....Rz.....
14D0: F8 FF FF 7F 73 30 32 39  45 7A 80 F8 FF FF 7F F8  ....s029Ez......
14E0: FF FF 7F 62 6C 6F 66 01  80 45 7A 80 F8 FF FF 7F  ...blof..Ez.....
14F0: F8 FF FF 7F 73 30 33 30  01 80 27 0F D1 D0 00 01  ....s030..'.....
1500: 2B 1C 03 80 4A CE D0 00  01 CF D0 00 01 4A CF D0  +...J........J..
1510: 00 01 CE D0 00 01 45 7A  80 F8 FF FF 7F F8 FF FF  ......Ez........
1520: 7F 39 30 30 31 01 80 2B  D1 D0 00 01 AE 80 23 2A  .9001..+......#*
1530: 0F D1 D0 00 01 6F 76 CE  D0 00 01 6F 76 CF D0 00  .....ov....ov...
1540: 01 7B CE D0 00 01 7B CF  D0 00 01 1C 03 80 29 0F  .{....{.......).
1550: CE D0 00 01 31 29 0F CF  D0 00 01 33 27 0F D2 D0  ....1).....3'...
1560: 00 01 2B 45 7A 80 F8 FF  FF 7F F8 FF FF 7F 31 35  ..+Ez.........15
1570: 30 34 01 80 2B D2 D0 00  01 AF 80 23 2A 0F D2 D0  04..+......#*...
1580: 00 01 1C 03 80 29 0F C1  D0 00 01 10 52 7A 80 F8  .....)......Rz..
1590: FF FF 7F F8 FF FF 7F 73  30 33 30 45 7A 80 F8 FF  .......s030Ez...
15A0: FF 7F F8 FF FF 7F 73 30  33 31 01 80 4A C7 D0 00  ......s031..J...
15B0: 01 CF D0 00 01 4A D3 D0  00 01 CF D0 00 01 4B CA  .....J........K.
15C0: D0 00 01 35 80 4B CB D0  00 01 38 80 4B CC D0 00  ...5.K....8.K...
15D0: 01 3B 80 29 0F CE D0 00  01 27 45 7A 80 F8 FF FF  .;.).....'Ez....
15E0: 7F F8 FF FF 7F 34 30 30  37 01 80 2B CE D0 00 01  .....4007..+....
15F0: B0 80 23 29 0F CE D0 00  01 28 29 0F CE D0 00 01  ..#).....().....
1600: 29 29 0F CF D0 00 01 0D  45 7A 80 F8 FF FF 7F F8  ))......Ez......
1610: FF FF 7F 34 30 30 32 01  80 2B CF D0 00 01 B1 80  ...4002..+......
1620: 23 29 0F CF D0 00 01 0E  29 0F CE D0 00 01 2A 29  #)......).....*)
1630: 0F CE D0 00 01 27 29 0F  CF D0 00 01 0F 6F 76 D3  .....')......ov.
1640: D0 00 01 6F 76 C7 D0 00  01 52 7A 80 F8 FF FF 7F  ...ov....Rz.....
1650: F8 FF FF 7F 73 30 33 31  45 7A 80 F8 FF FF 7F F8  ....s031Ez......
1660: FF FF 7F 73 30 33 32 01  80 7B D3 D0 00 01 29 0F  ...s032..{....).
1670: D3 D0 00 01 12 45 7A 80  F8 FF FF 7F F8 FF FF 7F  .....Ez.........
1680: 34 30 30 38 01 80 2B D3  D0 00 01 B2 80 1C 88 80  4008..+.........
1690: 29 0F D3 D0 00 01 13 29  0F CF D0 00 01 10 52 7A  )......)......Rz
16A0: 80 F8 FF FF 7F F8 FF FF  7F 73 30 33 32 45 7A 80  .........s032Ez.
16B0: F8 FF FF 7F F8 FF FF 7F  73 30 33 33 01 80 29 0F  ........s033..).
16C0: D0 D0 00 01 05 2B D0 D0  00 01 B3 80 45 7A 80 F8  .....+......Ez..
16D0: FF FF 7F F8 FF FF 7F 35  30 31 34 01 80 1C 88 80  .......5014.....
16E0: 52 7A 80 F8 FF FF 7F F8  FF FF 7F 73 30 33 33 45  Rz.........s033E
16F0: 7A 80 F8 FF FF 7F F8 FF  FF 7F 73 30 34 34 01 80  z.........s044..
1700: 23 29 0F CE D0 00 01 28  29 0F CE D0 00 01 29 45  #).....().....)E
1710: 7A 80 F8 FF FF 7F F8 FF  FF 7F 35 30 31 33 01 80  z.........5013..
1720: 2B D0 D0 00 01 B4 80 23  29 0F D0 D0 00 01 06 29  +......#)......)
1730: 0F D0 D0 00 01 07 52 7A  80 F8 FF FF 7F F8 FF FF  ......Rz........
1740: 7F 73 30 34 34 45 7A 80  F8 FF FF 7F F8 FF FF 7F  .s044Ez.........
1750: 73 30 33 34 01 80 29 0F  C5 D0 00 01 02 45 7A 80  s034..)......Ez.
1760: F8 FF FF 7F F8 FF FF 7F  34 30 31 33 01 80 2B C5  ........4013..+.
1770: D0 00 01 B5 80 23 29 0F  C5 D0 00 01 03 29 0F C5  .....#)......)..
1780: D0 00 01 04 29 0F D2 D0  00 01 1D 29 0F C6 D0 00  ....)......)....
1790: 01 02 45 7A 80 F8 FF FF  7F F8 FF FF 7F 34 30 30  ..Ez.........400
17A0: 38 01 80 2B C6 D0 00 01  B6 80 23 29 0F C6 D0 00  8..+......#)....
17B0: 01 03 29 0F D2 D0 00 01  1E 52 7A 80 F8 FF FF 7F  ..)......Rz.....
17C0: F8 FF FF 7F 73 30 33 34  45 7A 80 F8 FF FF 7F F8  ....s034Ez......
17D0: FF FF 7F 73 30 33 38 01  80 29 0F C6 D0 00 01 04  ...s038..)......
17E0: 4A CC D0 00 01 CA D0 00  01 29 0F D2 D0 00 01 1F  J........)......
17F0: 45 7A 80 F8 FF FF 7F F8  FF FF 7F 35 30 31 36 01  Ez.........5016.
1800: 80 2B D2 D0 00 01 B7 80  23 29 0F D2 D0 00 01 20  .+......#)..... 
1810: 29 0F D2 D0 00 01 21 6F  76 CC D0 00 01 29 0F C5  ).....!ov....)..
1820: D0 00 01 05 29 0F C6 D0  00 01 05 52 7A 80 F8 FF  ....)......Rz...
1830: FF 7F F8 FF FF 7F 73 30  33 38 45 7A 80 F8 FF FF  ......s038Ez....
1840: 7F F8 FF FF 7F 73 30 33  36 01 80 4A CB D0 00 01  .....s036..J....
1850: CA D0 00 01 29 0F CA D0  00 01 0C 45 7A 80 F8 FF  ....)......Ez...
1860: FF 7F F8 FF FF 7F 32 30  30 32 01 80 2B CA D0 00  ......2002..+...
1870: 01 B8 80 4A D0 D0 00 01  CA D0 00 01 1C 06 80 1C  ...J............
1880: B9 80 4A D1 D0 00 01 CA  D0 00 01 6F 76 D1 D0 00  ..J........ov...
1890: 01 4A D2 D0 00 01 CA D0  00 01 4A C2 D0 00 01 CA  .J........J.....
18A0: D0 00 01 6F 76 D2 D0 00  01 4A C3 D0 00 01 CA D0  ...ov....J......
18B0: 00 01 6F 76 D0 D0 00 01  23 6F 76 CB D0 00 01 52  ..ov....#ov....R
18C0: 7A 80 F8 FF FF 7F F8 FF  FF 7F 73 30 33 36 45 7A  z.........s036Ez
18D0: 80 F8 FF FF 7F F8 FF FF  7F 73 30 33 35 01 80 29  .........s035..)
18E0: 0F D0 D0 00 01 05 45 7A  80 F8 FF FF 7F F8 FF FF  ......Ez........
18F0: 7F 35 30 31 33 01 80 2B  D0 D0 00 01 BA 80 23 6F  .5013..+......#o
1900: 76 C2 D0 00 01 6F 76 C3  D0 00 01 45 7A 80 F8 FF  v....ov....Ez...
1910: FF 7F F8 FF FF 7F 35 30  31 36 01 80 2B D0 D0 00  ......5016..+...
1920: 01 BB 80 23 29 0F D0 D0  00 01 06 29 0F D0 D0 00  ...#)......)....
1930: 01 07 52 7A 80 F8 FF FF  7F F8 FF FF 7F 73 30 33  ..Rz.........s03
1940: 35 45 7A 80 F8 FF FF 7F  F8 FF FF 7F 73 30 33 39  5Ez.........s039
1950: 01 80 4A C1 D0 00 01 C4  D0 00 01 4A C2 D0 00 01  ..J........J....
1960: C4 D0 00 01 4A C3 D0 00  01 C4 D0 00 01 4A D3 D0  ....J........J..
1970: 00 01 C4 D0 00 01 4A BE  D0 00 01 C0 D0 00 01 4A  ......J........J
1980: BF D0 00 01 C4 D0 00 01  4A C0 D0 00 01 BE D0 00  ........J.......
1990: 01 29 0F C4 D0 00 01 20  45 7A 80 F8 FF FF 7F F8  .)..... Ez......
19A0: FF FF 7F 34 30 30 31 01  80 2B C4 D0 00 01 BC 80  ...4001..+......
19B0: 1C 79 80 52 7A 80 F8 FF  FF 7F F8 FF FF 7F 73 30  .y.Rz.........s0
19C0: 33 39 45 7A 80 F8 FF FF  7F F8 FF FF 7F 73 30 34  39Ez.........s04
19D0: 30 01 80 23 29 0F C4 D0  00 01 21 29 0F C4 D0 00  0..#).....!)....
19E0: 01 22 2B C4 D0 00 01 BD  80 23 29 0F D0 D0 00 01  ."+......#).....
19F0: 08 52 7A 80 F8 FF FF 7F  F8 FF FF 7F 73 30 34 30  .Rz.........s040
1A00: 45 7A 80 F8 FF FF 7F F8  FF FF 7F 73 30 34 31 01  Ez.........s041.
1A10: 80 45 7A 80 F8 FF FF 7F  F8 FF FF 7F 36 30 31 34  .Ez.........6014
1A20: 01 80 2B C1 D0 00 01 BE  80 1C 79 80 29 0F C4 D0  ..+.......y.)...
1A30: 00 01 23 4A C4 D0 00 01  C1 D0 00 01 1C B9 80 4A  ..#J...........J
1A40: C5 D0 00 01 C1 D0 00 01  4A C6 D0 00 01 C1 D0 00  ........J.......
1A50: 01 23 6F 76 C1 D0 00 01  6F 76 C2 D0 00 01 6F 76  .#ov....ov....ov
1A60: C3 D0 00 01 6F 76 BE D0  00 01 6F 76 BF D0 00 01  ....ov....ov....
1A70: 6F 76 C0 D0 00 01 6F 76  D3 D0 00 01 6F 76 C4 D0  ov....ov....ov..
1A80: 00 01 6F 76 C5 D0 00 01  6F 76 C6 D0 00 01 52 7A  ..ov....ov....Rz
1A90: 80 F8 FF FF 7F F8 FF FF  7F 73 30 34 31 45 7A 80  .........s041Ez.
1AA0: F8 FF FF 7F F8 FF FF 7F  73 30 34 32 01 80 4A BA  ........s042..J.
1AB0: D0 00 01 C4 D0 00 01 4A  D8 D0 00 01 C4 D0 00 01  .......J........
1AC0: 29 0F C4 D0 00 01 06 45  7A 80 F8 FF FF 7F F8 FF  )......Ez.......
1AD0: FF 7F 34 30 31 33 01 80  2B C4 D0 00 01 BF 80 23  ..4013..+......#
1AE0: 29 0F C4 D0 00 01 07 29  0F C4 D0 00 01 08 6F 76  )......)......ov
1AF0: BA D0 00 01 6F 76 D8 D0  00 01 52 7A 80 F8 FF FF  ....ov....Rz....
1B00: 7F F8 FF FF 7F 73 30 34  32 45 7A 80 F8 FF FF 7F  .....s042Ez.....
1B10: F8 FF FF 7F 73 30 34 33  01 80 29 0F BE D0 00 01  ....s043..).....
1B20: 33 45 7A 80 F8 FF FF 7F  F8 FF FF 7F 35 30 30 34  3Ez.........5004
1B30: 01 80 2B BE D0 00 01 C0  80 1C 06 80 6B 69 64 6C  ..+.........kidl
1B40: 30 D3 D0 00 01 23 29 0F  BE D0 00 01 34 29 0F C4  0....#).....4)..
1B50: D0 00 01 09 52 7A 80 F8  FF FF 7F F8 FF FF 7F 73  ....Rz.........s
1B60: 30 34 33 45 7A 80 F8 FF  FF 7F F8 FF FF 7F 73 30  043Ez.........s0
1B70: 35 31 01 80 1C 03 80 6B  69 64 6C 30 BE D0 00 01  51.....kidl0....
1B80: 4A BE D0 00 01 C4 D0 00  01 4A C0 D0 00 01 C4 D0  J........J......
1B90: 00 01 4A D3 D0 00 01 C4  D0 00 01 29 0F C4 D0 00  ..J........)....
1BA0: 01 02 45 7A 80 F8 FF FF  7F F8 FF FF 7F 34 30 30  ..Ez.........400
1BB0: 31 01 80 2B C4 D0 00 01  C1 80 23 2B C4 D0 00 01  1..+......#+....
1BC0: C2 80 23 6F 76 BE D0 00  01 6F 76 C0 D0 00 01 6F  ..#ov....ov....o
1BD0: 76 D3 D0 00 01 52 7A 80  F8 FF FF 7F F8 FF FF 7F  v....Rz.........
1BE0: 73 30 35 31 45 7A 80 F8  FF FF 7F F8 FF FF 7F 73  s051Ez.........s
1BF0: 30 35 35 01 80 1C 03 80  4B C1 D0 00 01 18 80 4B  055.....K......K
1C00: C2 D0 00 01 1B 80 4B C3  D0 00 01 1E 80 45 7A 80  ......K......Ez.
1C10: F8 FF FF 7F F8 FF FF 7F  35 30 30 34 01 80 2B BE  ........5004..+.
1C20: D0 00 01 C3 80 23 6F 76  C1 D0 00 01 6F 76 C2 D0  .....#ov....ov..
1C30: 00 01 6F 76 C3 D0 00 01  52 7A 80 F8 FF FF 7F F8  ..ov....Rz......
1C40: FF FF 7F 73 30 35 35 45  7A 80 F8 FF FF 7F F8 FF  ...s055Ez.......
1C50: FF 7F 73 30 34 35 01 80  1C 03 80 4B BE D0 00 01  ..s045.....K....
1C60: C4 80 4A BF D0 00 01 CD  D0 00 01 4A C0 D0 00 01  ..J........J....
1C70: CD D0 00 01 29 0F CA D0  00 01 01 45 7A 80 F8 FF  ....)......Ez...
1C80: FF 7F F8 FF FF 7F 32 30  30 32 01 80 2B CA D0 00  ......2002..+...
1C90: 01 C5 80 1C C6 80 4A C2  D0 00 01 CA D0 00 01 1C  ......J.........
1CA0: C6 80 4A C3 D0 00 01 CA  D0 00 01 1C 06 80 4A C1  ..J...........J.
1CB0: D0 00 01 CA D0 00 01 23  29 0F CD D0 00 01 2B 1C  .......#).....+.
1CC0: 06 80 6F 76 BE D0 00 01  6F 76 BF D0 00 01 6F 76  ..ov....ov....ov
1CD0: C0 D0 00 01 6F 76 C1 D0  00 01 6F 76 C2 D0 00 01  ....ov....ov....
1CE0: 6F 76 C3 D0 00 01 52 7A  80 F8 FF FF 7F F8 FF FF  ov....Rz........
1CF0: 7F 73 30 34 35 45 7A 80  F8 FF FF 7F F8 FF FF 7F  .s045Ez.........
1D00: 73 30 34 36 01 80 1C 79  80 45 7A 80 F8 FF FF 7F  s046...y.Ez.....
1D10: F8 FF FF 7F 34 30 30 37  01 80 2B CD D0 00 01 C7  ....4007..+.....
1D20: 80 23 29 0F CD D0 00 01  2C 52 7A 80 F8 FF FF 7F  .#).....,Rz.....
1D30: F8 FF FF 7F 73 30 34 36  45 7A 80 F8 FF FF 7F F8  ....s046Ez......
1D40: FF FF 7F 73 30 34 37 01  80 1C 03 80 6B 69 64 6C  ...s047.....kidl
1D50: 30 CD D0 00 01 4A D3 D0  00 01 BF D0 00 01 29 0F  0....J........).
1D60: BF D0 00 01 0D 45 7A 80  F8 FF FF 7F F8 FF FF 7F  .....Ez.........
1D70: 35 30 30 34 01 80 29 0F  BE D0 00 01 27 2B BE D0  5004..).....'+..
1D80: 00 01 C8 80 23 6F 76 D3  D0 00 01 52 7A 80 F8 FF  ....#ov....Rz...
1D90: FF 7F F8 FF FF 7F 73 30  34 37 45 7A 80 F8 FF FF  ......s047Ez....
1DA0: 7F F8 FF FF 7F 73 30 34  38 01 80 27 0F C8 D0 00  .....s048..'....
1DB0: 01 01 1C 06 80 4A CD D0  00 01 C8 D0 00 01 4A CE  .....J........J.
1DC0: D0 00 01 C8 D0 00 01 4A  CF D0 00 01 C8 D0 00 01  .......J........
1DD0: 4A CB D0 00 01 C8 D0 00  01 4A CC D0 00 01 C8 D0  J........J......
1DE0: 00 01 4A D0 D0 00 01 C8  D0 00 01 4A D1 D0 00 01  ..J........J....
1DF0: C8 D0 00 01 4A D2 D0 00  01 C8 D0 00 01 4A D3 D0  ....J........J..
1E00: 00 01 C8 D0 00 01 2A 0F  C8 D0 00 01 45 7A 80 F8  ......*.....Ez..
1E10: FF FF 7F F8 FF FF 7F 37  30 30 37 01 80 1C C9 80  .......7007.....
1E20: 6F 76 D1 D0 00 01 6F 76  D2 D0 00 01 6F 76 CD D0  ov....ov....ov..
1E30: 00 01 6F 76 CE D0 00 01  6F 76 CF D0 00 01 6F 76  ..ov....ov....ov
1E40: CB D0 00 01 6F 76 CC D0  00 01 6F 76 D3 D0 00 01  ....ov....ov....
1E50: 52 7A 80 F8 FF FF 7F F8  FF FF 7F 73 30 34 38 45  Rz.........s048E
1E60: 7A 80 F8 FF FF 7F F8 FF  FF 7F 73 30 35 32 01 80  z.........s052..
1E70: 29 0F C9 D0 00 01 03 45  7A 80 F8 FF FF 7F F8 FF  )......Ez.......
1E80: FF 7F 37 30 30 31 01 80  2B C9 D0 00 01 CA 80 23  ..7001..+......#
1E90: 4A C1 D0 00 01 C9 D0 00  01 4A C2 D0 00 01 C9 D0  J........J......
1EA0: 00 01 4A C3 D0 00 01 C9  D0 00 01 6B 69 64 6C 30  ..J........kidl0
1EB0: BE D0 00 01 52 7A 80 F8  FF FF 7F F8 FF FF 7F 73  ....Rz.........s
1EC0: 30 35 32 45 7A 80 F8 FF  FF 7F F8 FF FF 7F 73 30  052Ez.........s0
1ED0: 35 33 01 80 4A C7 D0 00  01 C9 D0 00 01 29 0F C8  53..J........)..
1EE0: D0 00 01 01 45 7A 80 F8  FF FF 7F F8 FF FF 7F 37  ....Ez.........7
1EF0: 30 30 37 01 80 1C 85 80  29 0F C9 D0 00 01 03 45  007.....)......E
1F00: 7A 80 F8 FF FF 7F F8 FF  FF 7F 37 30 30 31 01 80  z.........7001..
1F10: 2B C9 D0 00 01 CB 80 1C  88 80 52 7A 80 F8 FF FF  +.........Rz....
1F20: 7F F8 FF FF 7F 73 30 35  33 45 7A 80 F8 FF FF 7F  .....s053Ez.....
1F30: F8 FF FF 7F 73 30 35 38  01 80 1C 88 80 23 6F 76  ....s058.....#ov
1F40: C7 D0 00 01 6F 76 C1 D0  00 01 6F 76 C2 D0 00 01  ....ov....ov....
1F50: 6F 76 C3 D0 00 01 52 7A  80 F8 FF FF 7F F8 FF FF  ov....Rz........
1F60: 7F 73 30 35 38 45 7A 80  F8 FF FF 7F F8 FF FF 7F  .s058Ez.........
1F70: 73 30 34 39 01 80 6B 69  64 6C 30 BE D0 00 01 4A  s049..kidl0....J
1F80: BE D0 00 01 C1 D0 00 01  29 0F C1 D0 00 01 11 45  ........)......E
1F90: 7A 80 F8 FF FF 7F F8 FF  FF 7F 36 30 30 35 01 80  z.........6005..
1FA0: 2B C1 D0 00 01 CC 80 1C  81 80 45 7A 80 F8 FF FF  +.........Ez....
1FB0: 7F F8 FF FF 7F 36 30 31  34 01 80 1C 81 80 45 7A  .....6014.....Ez
1FC0: 80 F8 FF FF 7F F8 FF FF  7F 36 30 30 35 01 80 1C  .........6005...
1FD0: 81 80 45 7A 80 F8 FF FF  7F F8 FF FF 7F 36 30 30  ..Ez.........600
1FE0: 37 01 80 1C 81 80 45 7A  80 F8 FF FF 7F F8 FF FF  7.....Ez........
1FF0: 7F 36 30 31 34 01 80 23  6F 76 BE D0 00 01 52 7A  .6014..#ov....Rz
2000: 80 F8 FF FF 7F F8 FF FF  7F 73 30 34 39 45 7A 80  .........s049Ez.
2010: F8 FF FF 7F F8 FF FF 7F  73 30 35 30 01 80 29 0F  ........s050..).
2020: BE D0 00 01 65 2B BE D0  00 01 CD 80 1C 81 80 45  ....e+.........E
2030: 7A 80 F8 FF FF 7F F8 FF  FF 7F 35 30 30 34 01 80  z.........5004..
2040: 23 29 0F BE D0 00 01 66  5D 01 80 08 80 52 7A 80  #).....f]....Rz.
2050: F8 FF FF 7F F8 FF FF 7F  73 30 35 30 01 7C 20 BA  ........s050.| .
2060: D1 D0 00 01 CE 80 CF 80  D0 80 D1 80 BA D2 D0 00  ................
2070: 01 D2 80 D3 80 10 80 D4  80 1A 43 00 45 7A 80 F8  ..........C.Ez..
2080: FF FF 7F F8 FF FF 7F 73  30 35 34 01 80 1C 7B 80  .......s054...{.
2090: 52 7A 80 F8 FF FF 7F F8  FF FF 7F 73 30 35 34 45  Rz.........s054E
20A0: 7A 80 F8 FF FF 7F F8 FF  FF 7F 73 30 35 36 01 80  z.........s056..
20B0: 7B 97 D0 00 01 29 0F 97  D0 00 01 2A 1C 79 80 2B  {....).....*.y.+
20C0: 97 D0 00 01 D5 80 1C B9  80 4A F0 FF FF 7F 97 D0  .........J......
20D0: 00 01 6F 76 F0 FF FF 7F  23 29 0F 97 D0 00 01 2B  ..ov....#).....+
20E0: 29 0F C1 D0 00 01 12 52  7A 80 F8 FF FF 7F F8 FF  )......Rz.......
20F0: FF 7F 73 30 35 36 02 09  10 7E 80 00 12 21 45 7A  ..s056...~...!Ez
2100: 80 F8 FF FF 7F F8 FF FF  7F 73 30 38 34 01 80 01  .........s084...
2110: 3F 21 02 09 10 7F 80 00  2E 21 45 7A 80 F8 FF FF  ?!.......!Ez....
2120: 7F F8 FF FF 7F 73 30 38  34 01 80 01 3F 21 45 7A  .....s084...?!Ez
2130: 80 F8 FF FF 7F F8 FF FF  7F 73 30 35 37 01 80 29  .........s057..)
2140: 0F 97 D0 00 01 2C 29 0F  97 D0 00 01 2D 4A 97 D0  .....,).....-J..
2150: 00 01 F0 FF FF 7F 6F 76  97 D0 00 01 6C D4 D0 00  ......ov....l...
2160: 01 D6 80 03 80 29 0F 97  D0 00 01 24 2B 97 D0 00  .....).....$+...
2170: 01 D7 80 23 29 0F 97 D0  00 01 25 29 0F 97 D0 00  ...#).....%)....
2180: 01 26 2B 97 D0 00 01 D8  80 1C 06 80 29 0F 97 D0  .&+.........)...
2190: 00 01 27 02 09 10 7E 80  00 AD 21 52 7A 80 F8 FF  ..'...~...!Rz...
21A0: FF 7F F8 FF FF 7F 73 30  38 34 01 D6 21 02 09 10  ......s084..!...
21B0: 7F 80 00 C7 21 52 7A 80  F8 FF FF 7F F8 FF FF 7F  ....!Rz.........
21C0: 73 30 38 34 01 D6 21 52  7A 80 F8 FF FF 7F F8 FF  s084..!Rz.......
21D0: FF 7F 73 30 35 37 45 7A  80 F8 FF FF 7F F8 FF FF  ..s057Ez........
21E0: 7F 73 30 36 35 01 80 27  0F D4 D0 00 01 4F 79 00  .s065..'.....Oy.
21F0: 97 D0 00 01 D4 D0 00 01  23 5C 00 D9 80 5C 01 D9  ........#\...\..
2200: 80 5C 02 D9 80 5C 03 D9  80 9A 5D 78 80 03 80 4A  .\...\....]x...J
2210: F0 FF FF 7F D4 D0 00 01  6F 76 F0 FF FF 7F 4A F0  ........ov....J.
2220: FF FF 7F D4 D0 00 01 4A  9C D0 00 01 D4 D0 00 01  .......J........
2230: 1C 06 80 52 7A 80 F8 FF  FF 7F F8 FF FF 7F 73 30  ...Rz.........s0
2240: 36 35 45 7A 80 F8 FF FF  7F F8 FF FF 7F 73 30 36  65Ez.........s06
2250: 32 01 80 6F 76 9C D0 00  01 4A 9C D0 00 01 D4 D0  2..ov....J......
2260: 00 01 1C 06 80 6F 76 9C  D0 00 01 27 0F 9C D0 00  .....ov....'....
2270: 01 47 4A 97 D0 00 01 D4  D0 00 01 4A BA D0 00 01  .GJ........J....
2280: D4 D0 00 01 1C 06 80 6F  76 BA D0 00 01 29 0F BA  .......ov....)..
2290: D0 00 01 20 4A F0 FF FF  7F D4 D0 00 01 6F 76 F0  ... J........ov.
22A0: FF FF 7F 6F 76 97 D0 00  01 52 7A 80 F8 FF FF 7F  ...ov....Rz.....
22B0: F8 FF FF 7F 73 30 36 32  45 7A 80 F8 FF FF 7F F8  ....s062Ez......
22C0: FF FF 7F 73 30 36 30 01  80 4A 97 D0 00 01 D4 D0  ...s060..J......
22D0: 00 01 45 7A 80 F8 FF FF  7F F8 FF FF 7F 31 30 30  ..Ez.........100
22E0: 31 01 80 29 0F BA D0 00  01 21 29 0F BA D0 00 01  1..).....!).....
22F0: 22 29 0F BA D0 00 01 23  4A BA D0 00 01 D4 D0 00  ").....#J.......
2300: 01 6F 76 BA D0 00 01 1C  06 80 27 0F BA D0 00 01  .ov.......'.....
2310: 38 6F 76 F0 FF FF 7F 6F  76 97 D0 00 01 52 7A 80  8ov....ov....Rz.
2320: F8 FF FF 7F F8 FF FF 7F  73 30 36 30 45 7A 80 F8  ........s060Ez..
2330: FF FF 7F F8 FF FF 7F 73  30 33 37 01 80 4A D8 D0  .......s037..J..
2340: 00 01 D4 D0 00 01 2A 0F  D4 D0 00 01 27 0F D4 D0  ......*.....'...
2350: 00 01 50 27 0F 97 D0 00  01 3F 6F 76 D8 D0 00 01  ..P'.....?ov....
2360: 4A D8 D0 00 01 D4 D0 00  01 1C 85 80 6F 76 D8 D0  J...........ov..
2370: 00 01 27 0F F0 FF FF 7F  25 52 7A 80 F8 FF FF 7F  ..'.....%Rz.....
2380: F8 FF FF 7F 73 30 33 37  45 7A 80 F8 FF FF 7F F8  ....s037Ez......
2390: FF FF 7F 73 30 36 33 01  80 29 0F C6 D0 00 01 20  ...s063..)..... 
23A0: 4A D0 D0 00 01 D4 D0 00  01 4A D1 D0 00 01 D4 D0  J........J......
23B0: 00 01 4A D2 D0 00 01 D4  D0 00 01 4A CA D0 00 01  ..J........J....
23C0: D4 D0 00 01 4A CB D0 00  01 D4 D0 00 01 4A CC D0  ....J........J..
23D0: 00 01 D4 D0 00 01 4A D3  D0 00 01 D4 D0 00 01 29  ......J........)
23E0: 0F C5 D0 00 01 34 45 7A  80 F8 FF FF 7F F8 FF FF  .....4Ez........
23F0: 7F 34 30 31 33 01 80 2B  C5 D0 00 01 DA 80 1C 79  .4013..+.......y
2400: 80 4A C7 D0 00 01 D4 D0  00 01 2A 0F 9C D0 00 01  .J........*.....
2410: 6F 76 C7 D0 00 01 52 7A  80 F8 FF FF 7F F8 FF FF  ov....Rz........
2420: 7F 73 30 36 33 45 7A 80  F8 FF FF 7F F8 FF FF 7F  .s063Ez.........
2430: 73 30 36 34 01 80 29 0F  C7 D0 00 01 13 4A CD D0  s064..)......J..
2440: 00 01 D4 D0 00 01 4A CE  D0 00 01 D4 D0 00 01 4A  ......J........J
2450: CF D0 00 01 D4 D0 00 01  1C 06 80 45 7A 80 F8 FF  ...........Ez...
2460: FF 7F F8 FF FF 7F 31 30  30 31 01 80 2B C7 D0 00  ......1001..+...
2470: 01 DB 80 1C 79 80 6F 76  CD D0 00 01 6F 76 CE D0  ....y.ov....ov..
2480: 00 01 6F 76 CF D0 00 01  7B CE D0 00 01 7B CF D0  ..ov....{....{..
2490: 00 01 7B CD D0 00 01 52  7A 80 F8 FF FF 7F F8 FF  ..{....Rz.......
24A0: FF 7F 73 30 36 34 45 7A  80 F8 FF FF 7F F8 FF FF  ..s064Ez........
24B0: 7F 73 30 37 32 01 80 1C  03 80 4A D8 D0 00 01 D4  .s072.....J.....
24C0: D0 00 01 2A 0F D4 D0 00  01 29 0F D4 D0 00 01 35  ...*.....).....5
24D0: 2B D4 D0 00 01 DC 80 23  29 0F D4 D0 00 01 36 6F  +......#).....6o
24E0: 76 D0 D0 00 01 6F 76 D1  D0 00 01 6F 76 D2 D0 00  v....ov....ov...
24F0: 01 6F 76 D8 D0 00 01 29  0F D1 D0 00 01 27 1C 7E  .ov....).....'.~
2500: 80 52 7A 80 F8 FF FF 7F  F8 FF FF 7F 73 30 37 32  .Rz.........s072
2510: 45 7A 80 F8 FF FF 7F F8  FF FF 7F 73 30 36 36 01  Ez.........s066.
2520: 80 4A C5 D0 00 01 D4 D0  00 01 4A C6 D0 00 01 D4  .J........J.....
2530: D0 00 01 45 7A 80 F8 FF  FF 7F F8 FF FF 7F 39 30  ...Ez.........90
2540: 30 32 01 80 2B D1 D0 00  01 DD 80 23 6F 76 C5 D0  02..+......#ov..
2550: 00 01 6F 76 C6 D0 00 01  6F 76 C7 D0 00 01 2A 0F  ..ov....ov....*.
2560: 97 D0 00 01 2A 0F F0 FF  FF 7F 52 7A 80 F8 FF FF  ....*.....Rz....
2570: 7F F8 FF FF 7F 73 30 36  36 45 7A 80 F8 FF FF 7F  .....s066Ez.....
2580: F8 FF FF 7F 73 30 35 39  01 80 29 0F C5 D0 00 01  ....s059..).....
2590: 6A 29 0F C6 D0 00 01 6A  4A C1 D0 00 01 D4 D0 00  j).....jJ.......
25A0: 01 4A C2 D0 00 01 D4 D0  00 01 4A C3 D0 00 01 D4  .J........J.....
25B0: D0 00 01 29 0F BF D0 00  01 9B 29 0F C0 D0 00 01  ...)......).....
25C0: 9B 4A BE D0 00 01 D4 D0  00 01 4A BF D0 00 01 D4  .J........J.....
25D0: D0 00 01 4A C0 D0 00 01  D4 D0 00 01 29 0F D4 D0  ...J........)...
25E0: 00 01 35 2B D4 D0 00 01  DE 80 1C B9 80 29 0F 9B  ..5+.........)..
25F0: D0 00 01 2F 29 0F 9C D0  00 01 2F 29 0F 9B D0 00  .../)...../)....
2600: 01 30 29 0F 9C D0 00 01  30 23 29 0F D4 D0 00 01  .0).....0#).....
2610: 36 6F 76 C1 D0 00 01 6F  76 C2 D0 00 01 6F 76 C3  6ov....ov....ov.
2620: D0 00 01 6F 76 D3 D0 00  01 29 0F C3 D0 00 01 13  ...ov....)......
2630: 1C 7E 80 52 7A 80 F8 FF  FF 7F F8 FF FF 7F 73 30  .~.Rz.........s0
2640: 35 39 45 7A 80 F8 FF FF  7F F8 FF FF 7F 73 30 36  59Ez.........s06
2650: 31 01 80 7B BF D0 00 01  7B C0 D0 00 01 45 7A 80  1..{....{....Ez.
2660: F8 FF FF 7F F8 FF FF 7F  36 30 30 35 01 80 2B C3  ........6005..+.
2670: D0 00 01 DF 80 1C 88 80  45 7A 80 F8 FF FF 7F F8  ........Ez......
2680: FF FF 7F 36 30 30 37 01  80 1C 88 80 6F 76 BE D0  ...6007.....ov..
2690: 00 01 6F 76 BF D0 00 01  6F 76 C0 D0 00 01 45 7A  ..ov....ov....Ez
26A0: 80 F8 FF FF 7F F8 FF FF  7F 36 30 30 35 01 80 6F  .........6005..o
26B0: 76 CA D0 00 01 6F 76 CB  D0 00 01 6F 76 CC D0 00  v....ov....ov...
26C0: 01 52 7A 80 F8 FF FF 7F  F8 FF FF 7F 73 30 36 31  .Rz.........s061
26D0: 45 7A 80 F8 FF FF 7F F8  FF FF 7F 73 30 36 38 01  Ez.........s068.
26E0: 80 29 0F CE D0 00 01 2F  29 0F CF D0 00 01 2F 29  .)...../)...../)
26F0: 0F D2 D0 00 01 27 29 0F  CB D0 00 01 0E 29 0F CC  .....')......)..
2700: D0 00 01 0E 29 0F D4 D0  00 01 35 2B D4 D0 00 01  ....).....5+....
2710: E0 80 1C 79 80 29 0F 9D  D0 00 01 2F 29 0F 9E D0  ...y.)...../)...
2720: 00 01 2F 29 0F 9D D0 00  01 30 29 0F 9E D0 00 01  ../).....0).....
2730: 30 29 0F 97 D0 00 01 2E  23 52 7A 80 F8 FF FF 7F  0)......#Rz.....
2740: F8 FF FF 7F 73 30 36 38  45 7A 80 F8 FF FF 7F F8  ....s068Ez......
2750: FF FF 7F 73 30 37 36 01  80 45 7A 80 F8 FF FF 7F  ...s076..Ez.....
2760: F8 FF FF 7F 31 30 31 36  01 80 2B D4 D0 00 01 E1  ....1016..+.....
2770: 80 23 29 0F D4 D0 00 01  36 52 7A 80 F8 FF FF 7F  .#).....6Rz.....
2780: F8 FF FF 7F 73 30 37 36  45 7A 80 F8 FF FF 7F F8  ....s076Ez......
2790: FF FF 7F 73 30 36 37 01  80 45 7A 80 F8 FF FF 7F  ...s067..Ez.....
27A0: F8 FF FF 7F 38 31 36 30  01 80 29 0F D4 D0 00 01  ....8160..).....
27B0: 35 2B D4 D0 00 01 E2 80  23 1C 88 80 1C 88 80 29  5+......#......)
27C0: 0F D4 D0 00 01 36 52 7A  80 F8 FF FF 7F F8 FF FF  .....6Rz........
27D0: 7F 73 30 36 37 45 7A 80  F8 FF FF 7F F8 FF FF 7F  .s067Ez.........
27E0: 62 6C 6F 66 01 80 45 7A  80 F8 FF FF 7F F8 FF FF  blof..Ez........
27F0: 7F 73 30 36 39 01 80 29  0F BF D0 00 01 67 29 0F  .s069..).....g).
2800: C6 D0 00 01 6B 4A C6 D0  00 01 BA D0 00 01 6B 69  ....kJ........ki
2810: 64 6C 30 9B D0 00 01 45  7A 80 F8 FF FF 7F F8 FF  dl0....Ez.......
2820: FF 7F 35 30 30 34 01 80  2B BF D0 00 01 E3 80 23  ..5004..+......#
2830: 6F 76 C6 D0 00 01 52 7A  80 F8 FF FF 7F F8 FF FF  ov....Rz........
2840: 7F 73 30 36 39 45 7A 80  F8 FF FF 7F F8 FF FF 7F  .s069Ez.........
2850: 73 30 37 30 01 80 6B 69  64 6C 30 D4 D0 00 01 29  s070..kidl0....)
2860: 0F C6 D0 00 01 2E 2B C6  D0 00 01 E4 80 45 7A 80  ......+......Ez.
2870: F8 FF FF 7F F8 FF FF 7F  34 30 31 33 01 80 1C B9  ........4013....
2880: 80 79 00 9B D0 00 01 C6  D0 00 01 4A 9C D0 00 01  .y.........J....
2890: C6 D0 00 01 6F 76 9C D0  00 01 1C 79 80 4A 9B D0  ....ov.....y.J..
28A0: 00 01 9C D0 00 01 6F 76  9B D0 00 01 29 0F 9B D0  ......ov....)...
28B0: 00 01 1D 79 00 9C D0 00  01 9B D0 00 01 29 0F 9C  ...y.........)..
28C0: D0 00 01 39 23 1C 06 80  52 7A 80 F8 FF FF 7F F8  ...9#...Rz......
28D0: FF FF 7F 73 30 37 30 45  7A 80 F8 FF FF 7F F8 FF  ...s070Ez.......
28E0: FF 7F 73 30 37 33 01 80  27 0F BA D0 00 01 39 27  ..s073..'.....9'
28F0: 0F 9B D0 00 01 48 27 0E  D8 D0 00 01 04 29 0F 9C  .....H'......)..
2900: D0 00 01 3A 29 0F 9C D0  00 01 3B 29 0F 9C D0 00  ...:).....;)....
2910: 01 3C 4A D4 D0 00 01 BA  D0 00 01 6F 76 D4 D0 00  .<J........ov...
2920: 01 52 7A 80 F8 FF FF 7F  F8 FF FF 7F 73 30 37 33  .Rz.........s073
2930: 45 7A 80 F8 FF FF 7F F8  FF FF 7F 73 30 37 31 01  Ez.........s071.
2940: 80 2A 0F BA D0 00 01 2A  0F 9B D0 00 01 2A 0E D8  .*.....*.....*..
2950: D0 00 01 4A 9C D0 00 01  BA D0 00 01 29 0F BA D0  ...J........)...
2960: 00 01 28 2B BA D0 00 01  E5 80 23 29 0F BA D0 00  ..(+......#)....
2970: 01 29 6F 76 9C D0 00 01  52 7A 80 F8 FF FF 7F F8  .)ov....Rz......
2980: FF FF 7F 73 30 37 31 45  7A 80 F8 FF FF 7F F8 FF  ...s071Ez.......
2990: FF 7F 73 30 37 34 01 80  29 0F D4 D0 00 01 0B 2B  ..s074..)......+
29A0: D4 D0 00 01 E6 80 1C 06  80 1C 06 80 1C 06 80 BA  ................
29B0: D3 D0 00 01 E7 80 E8 80  43 80 2F 80 29 0F D3 D0  ........C./.)...
29C0: 00 01 6E 1C 03 80 52 7A  80 F8 FF FF 7F F8 FF FF  ..n...Rz........
29D0: 7F 73 30 37 34 45 7A 80  F8 FF FF 7F F8 FF FF 7F  .s074Ez.........
29E0: 73 30 38 31 01 80 45 7A  80 F8 FF FF 7F F8 FF FF  s081..Ez........
29F0: 7F 38 31 36 30 01 80 1C  88 80 29 0F BA D0 00 01  .8160.....).....
2A00: 20 1C 88 80 52 7A 80 F8  FF FF 7F F8 FF FF 7F 73   ...Rz.........s
2A10: 30 38 31 45 7A 80 F8 FF  FF 7F F8 FF FF 7F 73 30  081Ez.........s0
2A20: 37 37 01 80 45 7A 80 F8  FF FF 7F F8 FF FF 7F 38  77..Ez.........8
2A30: 31 36 30 01 80 29 0F 9C  D0 00 01 39 1C 88 80 23  160..).....9...#
2A40: 52 7A 80 F8 FF FF 7F F8  FF FF 7F 73 30 37 37 45  Rz.........s077E
2A50: 7A 80 F8 FF FF 7F F8 FF  FF 7F 62 6C 6F 66 01 80  z.........blof..
2A60: 45 7A 80 F8 FF FF 7F F8  FF FF 7F 73 30 38 30 01  Ez.........s080.
2A70: 80 29 0F D4 D0 00 01 0C  2B BA D0 00 01 E9 80 1C  .)......+.......
2A80: 06 80 29 0F BA D0 00 01  21 29 0F BA D0 00 01 1C  ..).....!)......
2A90: 1C 79 80 29 0F D4 D0 00  01 4B 1C 06 80 29 0F 9B  .y.).....K...)..
2AA0: D0 00 01 2F 29 0F 9C D0  00 01 2F 9F EA 80 D6 D0  .../)...../.....
2AB0: 00 01 D6 D0 00 01 6D 61  69 6E 01 80 1C 88 80 29  ......main.....)
2AC0: 0F 9B D0 00 01 30 29 0F  9C D0 00 01 30 52 7A 80  .....0).....0Rz.
2AD0: F8 FF FF 7F F8 FF FF 7F  73 30 38 30 45 7A 80 F8  ........s080Ez..
2AE0: FF FF 7F F8 FF FF 7F 73  30 37 38 01 80 9F EA 80  .......s078.....
2AF0: D7 D0 00 01 D7 D0 00 01  6D 61 69 6E 01 80 1C 88  ........main....
2B00: 80 29 0F D7 D0 00 01 4B  1C 79 80 52 7A 80 F8 FF  .).....K.y.Rz...
2B10: FF 7F F8 FF FF 7F 73 30  37 38 45 7A 80 F8 FF FF  ......s078Ez....
2B20: 7F F8 FF FF 7F 73 30 37  39 01 80 9F EA 80 D5 D0  .....s079.......
2B30: 00 01 D5 D0 00 01 6D 61  69 6E 01 80 2B D8 D0 00  ......main..+...
2B40: 01 EB 80 1C 88 80 29 0F  D5 D0 00 01 01 1C 79 80  ......).......y.
2B50: 52 7A 80 F8 FF FF 7F F8  FF FF 7F 73 30 37 39 02  Rz.........s079.
2B60: 09 10 7E 80 00 7B 2B 45  7A 80 F8 FF FF 7F F8 FF  ..~..{+Ez.......
2B70: FF 7F 73 30 38 35 01 80  01 A8 2B 02 09 10 7F 80  ..s085....+.....
2B80: 00 97 2B 45 7A 80 F8 FF  FF 7F F8 FF FF 7F 73 30  ..+Ez.........s0
2B90: 38 35 01 80 01 A8 2B 45  7A 80 F8 FF FF 7F F8 FF  85....+Ez.......
2BA0: FF 7F 73 30 37 35 01 80  5D 79 80 08 80 27 0F 97  ..s075..]y...'..
2BB0: D0 00 01 2E 2B 97 D0 00  01 EC 80 1C 06 80 29 0F  ....+.........).
2BC0: CE D0 00 01 30 29 0F CF  D0 00 01 30 23 2A 0F 97  ....0).....0#*..
2BD0: D0 00 01 02 09 10 7E 80  00 ED 2B 52 7A 80 F8 FF  ......~...+Rz...
2BE0: FF 7F F8 FF FF 7F 73 30  38 35 01 16 2C 02 09 10  ......s085..,...
2BF0: 7F 80 00 07 2C 52 7A 80  F8 FF FF 7F F8 FF FF 7F  ....,Rz.........
2C00: 73 30 38 35 01 16 2C 52  7A 80 F8 FF FF 7F F8 FF  s085..,Rz.......
2C10: FF 7F 73 30 37 35 02 09  10 7C 80 00 32 2C 45 7A  ..s075...|..2,Ez
2C20: 80 F8 FF FF 7F F8 FF FF  7F 73 30 38 32 01 80 01  .........s082...
2C30: 97 2C 02 09 10 7E 80 00  4E 2C 45 7A 80 F8 FF FF  .,...~..N,Ez....
2C40: 7F F8 FF FF 7F 73 30 38  36 01 80 01 97 2C 02 09  .....s086....,..
2C50: 10 7F 80 00 6A 2C 45 7A  80 F8 FF FF 7F F8 FF FF  ....j,Ez........
2C60: 7F 73 30 38 36 01 80 01  97 2C 02 09 10 80 80 00  .s086....,......
2C70: 86 2C 45 7A 80 F8 FF FF  7F F8 FF FF 7F 73 30 38  .,Ez.........s08
2C80: 32 01 80 01 97 2C 45 7A  80 F8 FF FF 7F F8 FF FF  2....,Ez........
2C90: 7F 73 30 38 37 01 80 4A  97 D0 00 01 F0 FF FF 7F  .s087..J........
2CA0: 6F 76 97 D0 00 01 4A F0  FF FF 7F 97 D0 00 01 2B  ov....J........+
2CB0: 97 D0 00 01 ED 80 23 6F  76 F0 FF FF 7F 29 0F 9B  ......#ov....)..
2CC0: D0 00 01 2B 6E F0 FF FF  7F 84 80 99 F0 FF FF 7F  ...+n...........
2CD0: 1C 79 80 02 09 10 7C 80  00 ED 2C 52 7A 80 F8 FF  .y....|...,Rz...
2CE0: FF 7F F8 FF FF 7F 73 30  38 32 01 4A 2D 02 09 10  ......s082.J-...
2CF0: 7E 80 00 07 2D 52 7A 80  F8 FF FF 7F F8 FF FF 7F  ~...-Rz.........
2D00: 73 30 38 36 01 4A 2D 02  09 10 7F 80 00 21 2D 52  s086.J-......!-R
2D10: 7A 80 F8 FF FF 7F F8 FF  FF 7F 73 30 38 36 01 4A  z.........s086.J
2D20: 2D 02 09 10 80 80 00 3B  2D 52 7A 80 F8 FF FF 7F  -......;-Rz.....
2D30: F8 FF FF 7F 73 30 38 32  01 4A 2D 52 7A 80 F8 FF  ....s082.J-Rz...
2D40: FF 7F F8 FF FF 7F 73 30  38 37 45 7A 80 F8 FF FF  ......s087Ez....
2D50: 7F F8 FF FF 7F 73 30 38  33 01 80 4A 97 D0 00 01  .....s083..J....
2D60: D4 D0 00 01 4A F0 FF FF  7F D4 D0 00 01 6F 76 97  ....J........ov.
2D70: D0 00 01 29 0F 97 D0 00  01 3A 5D 01 80 08 80 6F  ...).....:]....o
2D80: 76 F0 FF FF 7F 29 0F F0  FF FF 7F 1C 1C 88 80 1A  v....)..........
2D90: A6 00 1C 7B 80 1A 64 00  52 7A 80 F8 FF FF 7F F8  ...{..d.Rz......
2DA0: FF FF 7F 73 30 38 33 29  0F D1 D0 00 01 28 29 0F  ...s083).....().
2DB0: F0 FF FF 7F 1D 29 0F C5  D0 00 01 6B 29 0F C6 D0  .....).....k)...
2DC0: 00 01 6B 29 0F CE D0 00  01 30 29 0F CF D0 00 01  ..k).....0).....
2DD0: 30 29 0F 97 D0 00 01 3B  29 0F D2 D0 00 01 28 29  0).....;).....()
2DE0: 0F BF D0 00 01 9C 29 0F  C0 D0 00 01 9C 29 0F CB  ......)......)..
2DF0: D0 00 01 0F 29 0F CC D0  00 01 0F 29 0F D7 D0 00  ....)......)....
2E00: 01 4C 29 0F D5 D0 00 01  02 29 0F D4 D0 00 01 4C  .L)......).....L
2E10: 29 0F D3 D0 00 01 6F 1A  96 01 5C 00 01 80 5C 01  ).....o...\...\.
2E20: 01 80 5C 02 EE 80 5C 03  EE 80 9A 5D 78 80 03 80  ..\...\....]x...
2E30: 1C C6 80 AB 11 01 80 1C  03 80 46 00 45 00 80 F8  ..........F.E...
2E40: FF FF 7F F8 FF FF 7F 66  64 69 32 01 80 21 00     .......fdi2..!. 
```

#### Opcodes

```
  0: 0x0292 [0x03] ExtData[1]->WorkLocal[1] = 0*
  1: 0x0297 [0x5D] SET_MUSIC_VOLUME(volume=0*, fade_time=300*)
  2: 0x029C [0x42] SET_CLI_EVENT_CANCEL_DATA()
  3: 0x029D [0x1A] CALL_SUBROUTINE(address=0x0064)
  4: 0x02A0 [0x46] CAMERA_CONTROL: Disable user control
  5: 0x02A2 [0x38] SET_CLIENT_EVENT_MODE(mode=147*)
  6: 0x02A5 [0x2F] Overlord Bakgodek (ID: 16830654/0x0100D0BE)->Render.Flags0 &= ~0x80000 // Bit 19
  7: 0x02AB [0x2F] Orcish Hexspinner (ID: 16830655/0x0100D0BF)->Render.Flags0 &= ~0x80000 // Bit 19
  8: 0x02B1 [0x2F] Orcish Warlord (ID: 16830656/0x0100D0C0)->Render.Flags0 &= ~0x80000 // Bit 19
  9: 0x02B7 [0x2F] Za'Dha Adamantking (ID: 16830657/0x0100D0C1)->Render.Flags0 &= ~0x80000 // Bit 19
 10: 0x02BD [0x2F] Adaman Quadav (ID: 16830658/0x0100D0C2)->Render.Flags0 &= ~0x80000 // Bit 19
 11: 0x02C3 [0x2F] Ruby Quadav (ID: 16830659/0x0100D0C3)->Render.Flags0 &= ~0x80000 // Bit 19
 12: 0x02C9 [0x2F] Tzee Xicu the Manifest (ID: 16830660/0x0100D0C4)->Render.Flags0 &= ~0x80000 // Bit 19
 13: 0x02CF [0x2F] Yagudo High Priest (ID: 16830661/0x0100D0C5)->Render.Flags0 &= ~0x80000 // Bit 19
 14: 0x02D5 [0x2F] Yagudo Templar (ID: 16830662/0x0100D0C6)->Render.Flags0 &= ~0x80000 // Bit 19
 15: 0x02DB [0x2F] Muckvix (ID: 16830663/0x0100D0C7)->Render.Flags0 &= ~0x80000 // Bit 19
 16: 0x02E1 [0x2F] Bijoux (ID: 16830664/0x0100D0C8)->Render.Flags0 &= ~0x80000 // Bit 19
 17: 0x02E7 [0x2F] Apkallu Interpreter (ID: 16830665/0x0100D0C9)->Render.Flags0 &= ~0x80000 // Bit 19
 18: 0x02ED [0x2F] Ocean Sahagin (ID: 16830666/0x0100D0CA)->Render.Flags0 &= ~0x80000 // Bit 19
 19: 0x02F3 [0x2F] Abyss Sahagin (ID: 16830667/0x0100D0CB)->Render.Flags0 &= ~0x80000 // Bit 19
 20: 0x02F9 [0x2F] Coral Sahagin (ID: 16830668/0x0100D0CC)->Render.Flags0 &= ~0x80000 // Bit 19
 21: 0x02FF [0x2F] Medusa (ID: 16830669/0x0100D0CD)->Render.Flags0 &= ~0x80000 // Bit 19
 22: 0x0305 [0x2F] Stheno (ID: 16830670/0x0100D0CE)->Render.Flags0 &= ~0x80000 // Bit 19
 23: 0x030B [0x2F] Euryale (ID: 16830671/0x0100D0CF)->Render.Flags0 &= ~0x80000 // Bit 19
 24: 0x0311 [0x2F] Gulool Ja Ja (ID: 16830672/0x0100D0D0)->Render.Flags0 &= ~0x80000 // Bit 19
 25: 0x0317 [0x2F] Molaal Ja (ID: 16830673/0x0100D0D1)->Render.Flags0 &= ~0x80000 // Bit 19
 26: 0x031D [0x2F] Bakool Ja (ID: 16830674/0x0100D0D2)->Render.Flags0 &= ~0x80000 // Bit 19
 27: 0x0323 [0x2F] Reikuu (ID: 16830675/0x0100D0D3)->Render.Flags0 &= ~0x80000 // Bit 19
 28: 0x0329 [0x2F] Gloom Phantom (ID: 16830676/0x0100D0D4)->Render.Flags0 &= ~0x80000 // Bit 19
 29: 0x032F [0x2F] Awoken Vampyr Jarl (ID: 16830677/0x0100D0D5)->Render.Flags0 &= ~0x80000 // Bit 19
 30: 0x0335 [0x2F] Awoken Ariri Samariri (ID: 16830678/0x0100D0D6)->Render.Flags0 &= ~0x80000 // Bit 19
 31: 0x033B [0x2F] Awoken Hildesvini (ID: 16830679/0x0100D0D7)->Render.Flags0 &= ~0x80000 // Bit 19
 32: 0x0341 [0x2F] Jabbos (ID: 16830615/0x0100D097)->Render.Flags0 &= ~0x80000 // Bit 19
 33: 0x0347 [0x2F] Chekochuk (ID: 16830619/0x0100D09B)->Render.Flags0 &= ~0x80000 // Bit 19
 34: 0x034D [0x2F] Movamuq (ID: 16830620/0x0100D09C)->Render.Flags0 &= ~0x80000 // Bit 19
 35: 0x0353 [0x2F] Trikotrak (ID: 16830621/0x0100D09D)->Render.Flags0 &= ~0x80000 // Bit 19
 36: 0x0359 [0x2F] Swipostik (ID: 16830622/0x0100D09E)->Render.Flags0 &= ~0x80000 // Bit 19
 37: 0x035F [0x2F] Brakobrik (ID: 16830650/0x0100D0BA)->Render.Flags0 &= ~0x80000 // Bit 19
 38: 0x0365 [0x2F] Rakorok (ID: 16830680/0x0100D0D8)->Render.Flags0 &= ~0x80000 // Bit 19
 39: 0x036B [0x4E] SET_ENTITY_HIDE_FLAG: Show Overlord Bakgodek (ID: 16830654/0x0100D0BE)
 40: 0x0371 [0x4E] SET_ENTITY_HIDE_FLAG: Show Orcish Hexspinner (ID: 16830655/0x0100D0BF)
 41: 0x0377 [0x4E] SET_ENTITY_HIDE_FLAG: Show Orcish Warlord (ID: 16830656/0x0100D0C0)
 42: 0x037D [0x4E] SET_ENTITY_HIDE_FLAG: Show Za'Dha Adamantking (ID: 16830657/0x0100D0C1)
 43: 0x0383 [0x4E] SET_ENTITY_HIDE_FLAG: Show Adaman Quadav (ID: 16830658/0x0100D0C2)
 44: 0x0389 [0x4E] SET_ENTITY_HIDE_FLAG: Show Ruby Quadav (ID: 16830659/0x0100D0C3)
 45: 0x038F [0x4E] SET_ENTITY_HIDE_FLAG: Show Tzee Xicu the Manifest (ID: 16830660/0x0100D0C4)
 46: 0x0395 [0x4E] SET_ENTITY_HIDE_FLAG: Show Yagudo High Priest (ID: 16830661/0x0100D0C5)
 47: 0x039B [0x4E] SET_ENTITY_HIDE_FLAG: Show Yagudo Templar (ID: 16830662/0x0100D0C6)
 48: 0x03A1 [0x4E] SET_ENTITY_HIDE_FLAG: Show Muckvix (ID: 16830663/0x0100D0C7)
 49: 0x03A7 [0x4E] SET_ENTITY_HIDE_FLAG: Show Bijoux (ID: 16830664/0x0100D0C8)
 50: 0x03AD [0x4E] SET_ENTITY_HIDE_FLAG: Show Apkallu Interpreter (ID: 16830665/0x0100D0C9)
 51: 0x03B3 [0x4E] SET_ENTITY_HIDE_FLAG: Show Ocean Sahagin (ID: 16830666/0x0100D0CA)
 52: 0x03B9 [0x4E] SET_ENTITY_HIDE_FLAG: Show Abyss Sahagin (ID: 16830667/0x0100D0CB)
 53: 0x03BF [0x4E] SET_ENTITY_HIDE_FLAG: Show Coral Sahagin (ID: 16830668/0x0100D0CC)
 54: 0x03C5 [0x4E] SET_ENTITY_HIDE_FLAG: Show Medusa (ID: 16830669/0x0100D0CD)
 55: 0x03CB [0x4E] SET_ENTITY_HIDE_FLAG: Show Stheno (ID: 16830670/0x0100D0CE)
 56: 0x03D1 [0x4E] SET_ENTITY_HIDE_FLAG: Show Euryale (ID: 16830671/0x0100D0CF)
 57: 0x03D7 [0x4E] SET_ENTITY_HIDE_FLAG: Show Gulool Ja Ja (ID: 16830672/0x0100D0D0)
 58: 0x03DD [0x4E] SET_ENTITY_HIDE_FLAG: Show Molaal Ja (ID: 16830673/0x0100D0D1)
 59: 0x03E3 [0x4E] SET_ENTITY_HIDE_FLAG: Show Bakool Ja (ID: 16830674/0x0100D0D2)
 60: 0x03E9 [0x4E] SET_ENTITY_HIDE_FLAG: Show Reikuu (ID: 16830675/0x0100D0D3)
 61: 0x03EF [0x4E] SET_ENTITY_HIDE_FLAG: Show Gloom Phantom (ID: 16830676/0x0100D0D4)
 62: 0x03F5 [0x4E] SET_ENTITY_HIDE_FLAG: Show Awoken Vampyr Jarl (ID: 16830677/0x0100D0D5)
 63: 0x03FB [0x4E] SET_ENTITY_HIDE_FLAG: Show Awoken Ariri Samariri (ID: 16830678/0x0100D0D6)
 64: 0x0401 [0x4E] SET_ENTITY_HIDE_FLAG: Show Awoken Hildesvini (ID: 16830679/0x0100D0D7)
 65: 0x0407 [0x4E] SET_ENTITY_HIDE_FLAG: Show Jabbos (ID: 16830615/0x0100D097)
 66: 0x040D [0x4E] SET_ENTITY_HIDE_FLAG: Show Chekochuk (ID: 16830619/0x0100D09B)
 67: 0x0413 [0x4E] SET_ENTITY_HIDE_FLAG: Show Movamuq (ID: 16830620/0x0100D09C)
 68: 0x0419 [0x4E] SET_ENTITY_HIDE_FLAG: Show Trikotrak (ID: 16830621/0x0100D09D)
 69: 0x041F [0x4E] SET_ENTITY_HIDE_FLAG: Show Swipostik (ID: 16830622/0x0100D09E)
 70: 0x0425 [0x4E] SET_ENTITY_HIDE_FLAG: Show Brakobrik (ID: 16830650/0x0100D0BA)
 71: 0x042B [0x4E] SET_ENTITY_HIDE_FLAG: Show Rakorok (ID: 16830680/0x0100D0D8)
 72: 0x0431 [0x94] Overlord Bakgodek (ID: 16830654/0x0100D0BE)->Render.Flags3 ^= 0x01
 73: 0x0437 [0x94] Orcish Hexspinner (ID: 16830655/0x0100D0BF)->Render.Flags3 ^= 0x01
 74: 0x043D [0x94] Orcish Warlord (ID: 16830656/0x0100D0C0)->Render.Flags3 ^= 0x01
 75: 0x0443 [0x94] Za'Dha Adamantking (ID: 16830657/0x0100D0C1)->Render.Flags3 ^= 0x01
 76: 0x0449 [0x94] Adaman Quadav (ID: 16830658/0x0100D0C2)->Render.Flags3 ^= 0x01
 77: 0x044F [0x94] Ruby Quadav (ID: 16830659/0x0100D0C3)->Render.Flags3 ^= 0x01
 78: 0x0455 [0x94] Tzee Xicu the Manifest (ID: 16830660/0x0100D0C4)->Render.Flags3 ^= 0x01
 79: 0x045B [0x94] Yagudo High Priest (ID: 16830661/0x0100D0C5)->Render.Flags3 ^= 0x01
 80: 0x0461 [0x94] Yagudo Templar (ID: 16830662/0x0100D0C6)->Render.Flags3 ^= 0x01
 81: 0x0467 [0x94] Muckvix (ID: 16830663/0x0100D0C7)->Render.Flags3 ^= 0x01
 82: 0x046D [0x94] Bijoux (ID: 16830664/0x0100D0C8)->Render.Flags3 ^= 0x01
 83: 0x0473 [0x94] Apkallu Interpreter (ID: 16830665/0x0100D0C9)->Render.Flags3 ^= 0x01
 84: 0x0479 [0x94] Ocean Sahagin (ID: 16830666/0x0100D0CA)->Render.Flags3 ^= 0x01
 85: 0x047F [0x94] Abyss Sahagin (ID: 16830667/0x0100D0CB)->Render.Flags3 ^= 0x01
 86: 0x0485 [0x94] Coral Sahagin (ID: 16830668/0x0100D0CC)->Render.Flags3 ^= 0x01
 87: 0x048B [0x94] Medusa (ID: 16830669/0x0100D0CD)->Render.Flags3 ^= 0x01
 88: 0x0491 [0x94] Stheno (ID: 16830670/0x0100D0CE)->Render.Flags3 ^= 0x01
 89: 0x0497 [0x94] Euryale (ID: 16830671/0x0100D0CF)->Render.Flags3 ^= 0x01
 90: 0x049D [0x94] Gulool Ja Ja (ID: 16830672/0x0100D0D0)->Render.Flags3 ^= 0x01
 91: 0x04A3 [0x94] Molaal Ja (ID: 16830673/0x0100D0D1)->Render.Flags3 ^= 0x01
 92: 0x04A9 [0x94] Bakool Ja (ID: 16830674/0x0100D0D2)->Render.Flags3 ^= 0x01
 93: 0x04AF [0x94] Reikuu (ID: 16830675/0x0100D0D3)->Render.Flags3 ^= 0x01
 94: 0x04B5 [0x94] Gloom Phantom (ID: 16830676/0x0100D0D4)->Render.Flags3 ^= 0x01
 95: 0x04BB [0x94] Awoken Vampyr Jarl (ID: 16830677/0x0100D0D5)->Render.Flags3 ^= 0x01
 96: 0x04C1 [0x94] Awoken Ariri Samariri (ID: 16830678/0x0100D0D6)->Render.Flags3 ^= 0x01
 97: 0x04C7 [0x94] Awoken Hildesvini (ID: 16830679/0x0100D0D7)->Render.Flags3 ^= 0x01
 98: 0x04CD [0x94] Jabbos (ID: 16830615/0x0100D097)->Render.Flags3 ^= 0x01
 99: 0x04D3 [0x94] Chekochuk (ID: 16830619/0x0100D09B)->Render.Flags3 ^= 0x01
100: 0x04D9 [0x94] Movamuq (ID: 16830620/0x0100D09C)->Render.Flags3 ^= 0x01
101: 0x04DF [0x94] Trikotrak (ID: 16830621/0x0100D09D)->Render.Flags3 ^= 0x01
102: 0x04E5 [0x94] Swipostik (ID: 16830622/0x0100D09E)->Render.Flags3 ^= 0x01
103: 0x04EB [0x94] Brakobrik (ID: 16830650/0x0100D0BA)->Render.Flags3 ^= 0x01
104: 0x04F1 [0x94] Rakorok (ID: 16830680/0x0100D0D8)->Render.Flags3 ^= 0x01
105: 0x04F7 [0x94] LocalPlayer->Render.Flags3 ^= 0x01
106: 0x04FD [0xBA] SET_ENTITY_POSITION(entity_id=Overlord Bakgodek (ID: 16830654/0x0100D0BE), pos_x=-444.221*, pos_z=34.902*, pos_y=120.515*, direction=144.6*)
107: 0x050A [0xBA] SET_ENTITY_POSITION(entity_id=Orcish Hexspinner (ID: 16830655/0x0100D0BF), pos_x=-450.744*, pos_z=33.735*, pos_y=121.999*, direction=146.9*)
108: 0x0517 [0xBA] SET_ENTITY_POSITION(entity_id=Orcish Warlord (ID: 16830656/0x0100D0C0), pos_x=-449.007*, pos_z=29.086*, pos_y=121.999*, direction=152.4*)
109: 0x0524 [0xBA] SET_ENTITY_POSITION(entity_id=Za'Dha Adamantking (ID: 16830657/0x0100D0C1), pos_x=-475.186*, pos_z=4.681*, pos_y=121.063*, direction=324.4*)
110: 0x0531 [0xBA] SET_ENTITY_POSITION(entity_id=Adaman Quadav (ID: 16830658/0x0100D0C2), pos_x=-470.989*, pos_z=5.528*, pos_y=121.999*, direction=314.5*)
111: 0x053E [0xBA] SET_ENTITY_POSITION(entity_id=Ruby Quadav (ID: 16830659/0x0100D0C3), pos_x=-473.972*, pos_z=9.339*, pos_y=121.999*, direction=312.2*)
112: 0x054B [0xBA] SET_ENTITY_POSITION(entity_id=Tzee Xicu the Manifest (ID: 16830660/0x0100D0C4), pos_x=-444.631*, pos_z=4.623*, pos_y=121.062*, direction=231.5*)
113: 0x0558 [0xBA] SET_ENTITY_POSITION(entity_id=Yagudo High Priest (ID: 16830661/0x0100D0C5), pos_x=-445.652*, pos_z=8.940*, pos_y=121.999*, direction=232.6*)
114: 0x0565 [0xBA] SET_ENTITY_POSITION(entity_id=Yagudo Templar (ID: 16830662/0x0100D0C6), pos_x=-449.068*, pos_z=5.582*, pos_y=121.999*, direction=231.6*)
115: 0x0572 [0xBA] SET_ENTITY_POSITION(entity_id=Muckvix (ID: 16830663/0x0100D0C7), pos_x=-445.881*, pos_z=20.963*, pos_y=121.999*, direction=166.5*)
116: 0x057F [0x59] UPDATE_ENTITY_DATA: Bijoux (ID: 16830664/0x0100D0C8)->Render.Flags0 |= 0x200000
117: 0x0586 [0xBA] SET_ENTITY_POSITION(entity_id=Bijoux (ID: 16830664/0x0100D0C8), pos_x=-460.233*, pos_z=40.563*, pos_y=119.661*, direction=90.0*)
118: 0x0593 [0x59] UPDATE_ENTITY_DATA: Apkallu Interpreter (ID: 16830665/0x0100D0C9)->Render.Flags0 |= 0x200000
119: 0x059A [0xBA] SET_ENTITY_POSITION(entity_id=Apkallu Interpreter (ID: 16830665/0x0100D0C9), pos_x=-459.268*, pos_z=40.060*, pos_y=119.652*, direction=90.0*)
120: 0x05A7 [0xBA] SET_ENTITY_POSITION(entity_id=Ocean Sahagin (ID: 16830666/0x0100D0CA), pos_x=-475.370*, pos_z=35.244*, pos_y=121.063*, direction=43.7*)
121: 0x05B4 [0xBA] SET_ENTITY_POSITION(entity_id=Abyss Sahagin (ID: 16830667/0x0100D0CB), pos_x=-472.957*, pos_z=30.432*, pos_y=121.999*, direction=30.1*)
122: 0x05C1 [0xBA] SET_ENTITY_POSITION(entity_id=Coral Sahagin (ID: 16830668/0x0100D0CC), pos_x=-471.483*, pos_z=34.104*, pos_y=121.999*, direction=41.4*)
123: 0x05CE [0xBA] SET_ENTITY_POSITION(entity_id=Medusa (ID: 16830669/0x0100D0CD), pos_x=-462.091*, pos_z=35.536*, pos_y=121.011*, direction=90.0*)
124: 0x05DB [0xBA] SET_ENTITY_POSITION(entity_id=Stheno (ID: 16830670/0x0100D0CE), pos_x=-464.382*, pos_z=31.119*, pos_y=121.999*, direction=90.0*)
125: 0x05E8 [0x59] UPDATE_ENTITY_DATA: Euryale (ID: 16830671/0x0100D0CF)->Render.Flags0 |= 0x200000
126: 0x05EF [0xBA] SET_ENTITY_POSITION(entity_id=Euryale (ID: 16830671/0x0100D0CF), pos_x=-461.708*, pos_z=31.685*, pos_y=121.984*, direction=90.0*)
127: 0x05FC [0xBA] SET_ENTITY_POSITION(entity_id=Gulool Ja Ja (ID: 16830672/0x0100D0D0), pos_x=-477.018*, pos_z=20.422*, pos_y=120.875*, direction=0.0*)
128: 0x0609 [0xBA] SET_ENTITY_POSITION(entity_id=Molaal Ja (ID: 16830673/0x0100D0D1), pos_x=-472.726*, pos_z=18.263*, pos_y=121.991*, direction=0.0*)
129: 0x0616 [0xBA] SET_ENTITY_POSITION(entity_id=Bakool Ja (ID: 16830674/0x0100D0D2), pos_x=-472.438*, pos_z=22.217*, pos_y=121.985*, direction=0.0*)
130: 0x0623 [0xBA] SET_ENTITY_POSITION(entity_id=Reikuu (ID: 16830675/0x0100D0D3), pos_x=-445.268*, pos_z=15.036*, pos_y=121.999*, direction=176.1*)
131: 0x0630 [0xBA] SET_ENTITY_POSITION(entity_id=Gloom Phantom (ID: 16830676/0x0100D0D4), pos_x=-460.076*, pos_z=-38.021*, pos_y=119.999*, direction=265.4*)
132: 0x063D [0xBA] SET_ENTITY_POSITION(entity_id=Awoken Vampyr Jarl (ID: 16830677/0x0100D0D5), pos_x=-464.302*, pos_z=18.414*, pos_y=122.155*, direction=90.0*)
133: 0x064A [0xBA] SET_ENTITY_POSITION(entity_id=Awoken Ariri Samariri (ID: 16830678/0x0100D0D6), pos_x=-459.918*, pos_z=20.419*, pos_y=122.032*, direction=90.0*)
134: 0x0657 [0xBA] SET_ENTITY_POSITION(entity_id=Awoken Hildesvini (ID: 16830679/0x0100D0D7), pos_x=-456.200*, pos_z=18.211*, pos_y=122.204*, direction=90.0*)
135: 0x0664 [0xBA] SET_ENTITY_POSITION(entity_id=Jabbos (ID: 16830615/0x0100D097), pos_x=-41.784*, pos_z=-580.015*, pos_y=-120.000*, direction=180.0*)
136: 0x0671 [0xBA] SET_ENTITY_POSITION(entity_id=Chekochuk (ID: 16830619/0x0100D09B), pos_x=-457.014*, pos_z=-1.295*, pos_y=119.999*, direction=275.3*)
137: 0x067E [0xBA] SET_ENTITY_POSITION(entity_id=Movamuq (ID: 16830620/0x0100D09C), pos_x=-462.580*, pos_z=-31.475*, pos_y=119.984*, direction=267.1*)
138: 0x068B [0xBA] SET_ENTITY_POSITION(entity_id=Trikotrak (ID: 16830621/0x0100D09D), pos_x=-446.233*, pos_z=22.675*, pos_y=121.999*, direction=163.4*)
139: 0x0698 [0xBA] SET_ENTITY_POSITION(entity_id=Swipostik (ID: 16830622/0x0100D09E), pos_x=-445.987*, pos_z=18.795*, pos_y=121.999*, direction=180.3*)
140: 0x06A5 [0xBA] SET_ENTITY_POSITION(entity_id=Brakobrik (ID: 16830650/0x0100D0BA), pos_x=-463.337*, pos_z=-12.529*, pos_y=119.999*, direction=284.8*)
141: 0x06B2 [0xBA] SET_ENTITY_POSITION(entity_id=Rakorok (ID: 16830680/0x0100D0D8), pos_x=-463.037*, pos_z=-1.406*, pos_y=119.999*, direction=266.9*)
142: 0x06BF [0xBA] SET_ENTITY_POSITION(entity_id=LocalPlayer, pos_x=-56.632*, pos_z=-580.063*, pos_y=-120.000*, direction=356.1*)
143: 0x06CC [0x02] IF !(ExtData[1]->WorkLocal[1] == 0*) GOTO 0x06E2
144: 0x06D4 [0x5C] MUSIC_CONTROL: Set Idle (Day) music to song 228*
145: 0x06D8 [0x5C] MUSIC_CONTROL: Set Idle (Night) music to song 228*
146: 0x06DC [0x9A] WAIT_MUSIC_SERVER()
147: 0x06DD [0x5D] SET_MUSIC_VOLUME(volume=127*, fade_time=1*)
148: 0x06E2 [0x29] REQ_SET_WAIT(priority=0x0F, entity_id=Shaft Entrance (ID: 16830602/0x0100D08A), tag_num=0x03)
149: 0x06E9 [0x80] LOAD_WAIT(entity=Overlord Bakgodek (ID: 16830654/0x0100D0BE))
150: 0x06EE [0x80] LOAD_WAIT(entity=Orcish Hexspinner (ID: 16830655/0x0100D0BF))
151: 0x06F3 [0x80] LOAD_WAIT(entity=Orcish Warlord (ID: 16830656/0x0100D0C0))
152: 0x06F8 [0x80] LOAD_WAIT(entity=Za'Dha Adamantking (ID: 16830657/0x0100D0C1))
153: 0x06FD [0x80] LOAD_WAIT(entity=Adaman Quadav (ID: 16830658/0x0100D0C2))
154: 0x0702 [0x80] LOAD_WAIT(entity=Ruby Quadav (ID: 16830659/0x0100D0C3))
155: 0x0707 [0x80] LOAD_WAIT(entity=Tzee Xicu the Manifest (ID: 16830660/0x0100D0C4))
156: 0x070C [0x80] LOAD_WAIT(entity=Yagudo High Priest (ID: 16830661/0x0100D0C5))
157: 0x0711 [0x80] LOAD_WAIT(entity=Yagudo Templar (ID: 16830662/0x0100D0C6))
158: 0x0716 [0x80] LOAD_WAIT(entity=Muckvix (ID: 16830663/0x0100D0C7))
159: 0x071B [0x80] LOAD_WAIT(entity=Bijoux (ID: 16830664/0x0100D0C8))
160: 0x0720 [0x80] LOAD_WAIT(entity=Apkallu Interpreter (ID: 16830665/0x0100D0C9))
161: 0x0725 [0x80] LOAD_WAIT(entity=Ocean Sahagin (ID: 16830666/0x0100D0CA))
162: 0x072A [0x80] LOAD_WAIT(entity=Abyss Sahagin (ID: 16830667/0x0100D0CB))
163: 0x072F [0x80] LOAD_WAIT(entity=Coral Sahagin (ID: 16830668/0x0100D0CC))
164: 0x0734 [0x80] LOAD_WAIT(entity=Medusa (ID: 16830669/0x0100D0CD))
165: 0x0739 [0x80] LOAD_WAIT(entity=Stheno (ID: 16830670/0x0100D0CE))
166: 0x073E [0x80] LOAD_WAIT(entity=Euryale (ID: 16830671/0x0100D0CF))
167: 0x0743 [0x80] LOAD_WAIT(entity=Gulool Ja Ja (ID: 16830672/0x0100D0D0))
168: 0x0748 [0x80] LOAD_WAIT(entity=Molaal Ja (ID: 16830673/0x0100D0D1))
169: 0x074D [0x80] LOAD_WAIT(entity=Bakool Ja (ID: 16830674/0x0100D0D2))
170: 0x0752 [0x80] LOAD_WAIT(entity=Reikuu (ID: 16830675/0x0100D0D3))
171: 0x0757 [0x80] LOAD_WAIT(entity=Gloom Phantom (ID: 16830676/0x0100D0D4))
172: 0x075C [0x80] LOAD_WAIT(entity=Awoken Vampyr Jarl (ID: 16830677/0x0100D0D5))
173: 0x0761 [0x80] LOAD_WAIT(entity=Awoken Ariri Samariri (ID: 16830678/0x0100D0D6))
174: 0x0766 [0x80] LOAD_WAIT(entity=Awoken Hildesvini (ID: 16830679/0x0100D0D7))
175: 0x076B [0x80] LOAD_WAIT(entity=Jabbos (ID: 16830615/0x0100D097))
176: 0x0770 [0x80] LOAD_WAIT(entity=Chekochuk (ID: 16830619/0x0100D09B))
177: 0x0775 [0x80] LOAD_WAIT(entity=Movamuq (ID: 16830620/0x0100D09C))
178: 0x077A [0x80] LOAD_WAIT(entity=Trikotrak (ID: 16830621/0x0100D09D))
179: 0x077F [0x80] LOAD_WAIT(entity=Swipostik (ID: 16830622/0x0100D09E))
180: 0x0784 [0x80] LOAD_WAIT(entity=Brakobrik (ID: 16830650/0x0100D0BA))
181: 0x0789 [0x80] LOAD_WAIT(entity=Rakorok (ID: 16830680/0x0100D0D8))
182: 0x078E [0x80] LOAD_WAIT(entity=LocalPlayer)
183: 0x0793 [0x29] REQ_SET_WAIT(priority=0x0F, entity_id=Molaal Ja (ID: 16830673/0x0100D0D1), tag_num=0x28)
184: 0x079A [0x29] REQ_SET_WAIT(priority=0x0F, entity_id=LocalPlayer, tag_num=0x1D)
185: 0x07A1 [0x29] REQ_SET_WAIT(priority=0x0F, entity_id=Yagudo High Priest (ID: 16830661/0x0100D0C5), tag_num=0x6B)
186: 0x07A8 [0x29] REQ_SET_WAIT(priority=0x0F, entity_id=Yagudo Templar (ID: 16830662/0x0100D0C6), tag_num=0x6B)
187: 0x07AF [0x29] REQ_SET_WAIT(priority=0x0F, entity_id=Stheno (ID: 16830670/0x0100D0CE), tag_num=0x30)
188: 0x07B6 [0x29] REQ_SET_WAIT(priority=0x0F, entity_id=Euryale (ID: 16830671/0x0100D0CF), tag_num=0x30)
189: 0x07BD [0x29] REQ_SET_WAIT(priority=0x0F, entity_id=Jabbos (ID: 16830615/0x0100D097), tag_num=0x3B)
190: 0x07C4 [0x29] REQ_SET_WAIT(priority=0x0F, entity_id=Bakool Ja (ID: 16830674/0x0100D0D2), tag_num=0x28)
191: 0x07CB [0x29] REQ_SET_WAIT(priority=0x0F, entity_id=Orcish Hexspinner (ID: 16830655/0x0100D0BF), tag_num=0x9C)
192: 0x07D2 [0x29] REQ_SET_WAIT(priority=0x0F, entity_id=Orcish Warlord (ID: 16830656/0x0100D0C0), tag_num=0x9C)
193: 0x07D9 [0x29] REQ_SET_WAIT(priority=0x0F, entity_id=Abyss Sahagin (ID: 16830667/0x0100D0CB), tag_num=0x0F)
194: 0x07E0 [0x29] REQ_SET_WAIT(priority=0x0F, entity_id=Coral Sahagin (ID: 16830668/0x0100D0CC), tag_num=0x0F)
195: 0x07E7 [0x29] REQ_SET_WAIT(priority=0x0F, entity_id=Awoken Hildesvini (ID: 16830679/0x0100D0D7), tag_num=0x4C)
196: 0x07EE [0x29] REQ_SET_WAIT(priority=0x0F, entity_id=Awoken Vampyr Jarl (ID: 16830677/0x0100D0D5), tag_num=0x02)
197: 0x07F5 [0x29] REQ_SET_WAIT(priority=0x0F, entity_id=Gloom Phantom (ID: 16830676/0x0100D0D4), tag_num=0x4C)
198: 0x07FC [0x6C] FADE_ENTITY_COLOR(entity_id=Gloom Phantom (ID: 16830676/0x0100D0D4), end_alpha=0*, fade_time=1*)
199: 0x0805 [0x6C] FADE_ENTITY_COLOR(entity_id=Awoken Vampyr Jarl (ID: 16830677/0x0100D0D5), end_alpha=0*, fade_time=1*)
200: 0x080E [0x6C] FADE_ENTITY_COLOR(entity_id=Awoken Ariri Samariri (ID: 16830678/0x0100D0D6), end_alpha=0*, fade_time=1*)
201: 0x0817 [0x6C] FADE_ENTITY_COLOR(entity_id=Awoken Hildesvini (ID: 16830679/0x0100D0D7), end_alpha=0*, fade_time=1*)
202: 0x0820 [0x2C] CREATE_SCHEDULER_TASK: Create scheduler "ssso" with entities [Abyss Sahagin (ID: 16830667/0x0100D0CB), Abyss Sahagin (ID: 16830667/0x0100D0CB)]
203: 0x082D [0x29] REQ_SET_WAIT(priority=0x0F, entity_id=LocalPlayer, tag_num=0x1B)
204: 0x0834 [0x02] IF !(ExtData[1]->WorkLocal[1] == 0*) GOTO 0x11C2
205: 0x083C [0x1C] WAIT(60* ticks)
206: 0x083F [0x27] REQ_SET(priority=0x0F, entity_id=LocalPlayer, tag_num=0x22)
207: 0x0846 [0x45] LOAD_SCHEDULED_TASK: Load scheduler "s000" with entities [EventEntity, EventEntity], work=[933*, 0*]
208: 0x0857 [0x1A] CALL_SUBROUTINE(address=0x0043)
209: 0x085A [0x1C] WAIT(120* ticks)
210: 0x085D [0x79] Jabbos (ID: 16830615/0x0100D097) looks at LocalPlayer (Basic look)
211: 0x0867 [0x27] REQ_SET(priority=0x0F, entity_id=Jabbos (ID: 16830615/0x0100D097), tag_num=0x3C)
212: 0x086E [0x52] END_LOAD_SCHEDULER: End scheduler "s000" with entities [EventEntity, EventEntity], work=933*
213: 0x087D [0x02] IF !(Work_Zone[9] == 3*) GOTO 0x0899
214: 0x0885 [0x45] LOAD_SCHEDULED_TASK: Load scheduler "s001" with entities [EventEntity, EventEntity], work=[933*, 0*]
215: 0x0896 [0x01] GOTO 0x091A
216: 0x0899 [0x02] IF !(Work_Zone[9] == 4*) GOTO 0x08B5
217: 0x08A1 [0x45] LOAD_SCHEDULED_TASK: Load scheduler "s001" with entities [EventEntity, EventEntity], work=[933*, 0*]
218: 0x08B2 [0x01] GOTO 0x091A
219: 0x08B5 [0x02] IF !(Work_Zone[9] == 5*) GOTO 0x08D1
220: 0x08BD [0x45] LOAD_SCHEDULED_TASK: Load scheduler "s016" with entities [EventEntity, EventEntity], work=[933*, 0*]
221: 0x08CE [0x01] GOTO 0x091A
222: 0x08D1 [0x02] IF !(Work_Zone[9] == 6*) GOTO 0x08ED
223: 0x08D9 [0x45] LOAD_SCHEDULED_TASK: Load scheduler "s016" with entities [EventEntity, EventEntity], work=[933*, 0*]
224: 0x08EA [0x01] GOTO 0x091A
225: 0x08ED [0x02] IF !(Work_Zone[9] == 8*) GOTO 0x0909
226: 0x08F5 [0x45] LOAD_SCHEDULED_TASK: Load scheduler "s001" with entities [EventEntity, EventEntity], work=[933*, 0*]
227: 0x0906 [0x01] GOTO 0x091A
228: 0x0909 [0x45] LOAD_SCHEDULED_TASK: Load scheduler "s021" with entities [EventEntity, EventEntity], work=[933*, 0*]

SUBROUTINE_091A:
229: 0x091A [0x1C] WAIT(50* ticks)
230: 0x091D [0x2A] GET_REQ_LEVEL(level=15, entity_id=LocalPlayer)
231: 0x0923 [0x4A] LocalPlayer looks at Jabbos (ID: 16830615/0x0100D097)
232: 0x092C [0x6F] WAIT_FRAME_DELAY: Yield until WaitTime reaches zero
233: 0x092D [0x76] CHECK_ENTITY_RENDER_FLAGS: Wait until LocalPlayer Render.Flags0 and Render.Flags3 conditions are met
234: 0x0932 [0x2B] Jabbos (ID: 16830615/0x0100D097) [7952*]:
     "Wait... Is that you...<Player>?"
235: 0x0939 [0x1C] WAIT(70* ticks)
236: 0x093C [0x6E] LocalPlayer uses emote 7*
237: 0x0943 [0x99] Wait for LocalPlayer animation to complete
238: 0x0948 [0x1C] WAIT(60* ticks)
239: 0x094B [0x2A] GET_REQ_LEVEL(level=15, entity_id=Jabbos (ID: 16830615/0x0100D097))
240: 0x0951 [0x23] WAIT_FOR_DIALOG_INTERACTION
241: 0x0952 [0x29] REQ_SET_WAIT(priority=0x0F, entity_id=LocalPlayer, tag_num=0x20)
242: 0x0959 [0x1C] WAIT(100* ticks)
243: 0x095C [0x02] IF !(Work_Zone[9] == 3*) GOTO 0x0976
244: 0x0964 [0x52] END_LOAD_SCHEDULER: End scheduler "s001" with entities [EventEntity, EventEntity], work=933*
245: 0x0973 [0x01] GOTO 0x09ED
246: 0x0976 [0x02] IF !(Work_Zone[9] == 4*) GOTO 0x0990
247: 0x097E [0x52] END_LOAD_SCHEDULER: End scheduler "s001" with entities [EventEntity, EventEntity], work=933*
248: 0x098D [0x01] GOTO 0x09ED
249: 0x0990 [0x02] IF !(Work_Zone[9] == 5*) GOTO 0x09AA
250: 0x0998 [0x52] END_LOAD_SCHEDULER: End scheduler "s016" with entities [EventEntity, EventEntity], work=933*
251: 0x09A7 [0x01] GOTO 0x09ED
252: 0x09AA [0x02] IF !(Work_Zone[9] == 6*) GOTO 0x09C4
253: 0x09B2 [0x52] END_LOAD_SCHEDULER: End scheduler "s016" with entities [EventEntity, EventEntity], work=933*
254: 0x09C1 [0x01] GOTO 0x09ED
255: 0x09C4 [0x02] IF !(Work_Zone[9] == 8*) GOTO 0x09DE
