# 16830611

## Common Data

| Field            | Value                     |
|------------------|---------------------------|
| Zone             | Mine Shaft #2716 (ID: 13) |
| Block Size       | 884 bytes                 |
| Total Events     | 13                        |
| References Count | 16                        |

## List of Events

| Event ID                   | Entrypoint   |   Size |   Instructions |
|----------------------------|--------------|--------|----------------|
| [65535](#event-65535)      | 0x0000       |      1 |              1 |
| [65534](#event-65534)      | 0x0001       |      1 |              1 |
| [65535.1](#event-655351)   | 0x0002       |     19 |              3 |
| [65535.2](#event-655352)   | 0x0015       |     70 |              8 |
| [65535.3](#event-655353)   | 0x005B       |      9 |              3 |
| [65535.4](#event-655354)   | 0x0064       |     64 |              7 |
| [65535.5](#event-655355)   | 0x00A4       |     68 |             14 |
| [65535.6](#event-655356)   | 0x00E8       |    142 |             16 |
| [65535.7](#event-655357)   | 0x0176       |     73 |              9 |
| [65535.8](#event-655358)   | 0x01BF       |    235 |             31 |
| [65535.9](#event-655359)   | 0x02AA       |     10 |              2 |
| [65535.10](#event-6553510) | 0x02B4       |     34 |              4 |
| [65535.11](#event-6553511) | 0x02D6       |     24 |              4 |

## DAT References (imed_data)

|   Index | Hex Value   |   Dec Value |
|---------|-------------|-------------|
|       0 | 0x0080      |         128 |
|       1 | 0x0001      |           1 |
|       2 | 0x0000      |           0 |
|       3 | 0x00D8      |         216 |
|       4 | 0x0003      |           3 |
|       5 | 0x0064      |         100 |
|       6 | 0x01B0      |         432 |
|       7 | 0x01BA      |         442 |
|       8 | 0x0014      |          20 |
|       9 | 0x0006      |           6 |
|      10 | 0x000F      |          15 |
|      11 | 0x0009      |           9 |
|      12 | 0x001E      |          30 |
|      13 | 0x0002      |           2 |
|      14 | 0x00D7      |         215 |
|      15 | 0x00B4      |         180 |

## Events

### Event 65535

#### Metadata

| Field        | Value   |
|--------------|---------|
| Entrypoint   | 0x0000  |
| Data Size    | 1 bytes |
| Instructions | 1       |

```
      00 01 02 03 04 05 06 07  08 09 0A 0B 0C 0D 0E 0F
      -- -- -- -- -- -- -- --  -- -- -- -- -- -- -- --
0000: 00                                                .               
```

#### Opcodes

```
  0: 0x0000 [0x00] END_REQSTACK()
```

### Event 65534

#### Metadata

| Field        | Value   |
|--------------|---------|
| Entrypoint   | 0x0001  |
| Data Size    | 1 bytes |
| Instructions | 1       |

```
      00 01 02 03 04 05 06 07  08 09 0A 0B 0C 0D 0E 0F
      -- -- -- -- -- -- -- --  -- -- -- -- -- -- -- --
0000:    00                                              .              
```

#### Opcodes

```
  0: 0x0001 [0x00] END_REQSTACK()
```

### Event 65535.1

#### Metadata

| Field        | Value    |
|--------------|----------|
| Entrypoint   | 0x0002   |
| Data Size    | 19 bytes |
| Instructions | 3        |

```
      00 01 02 03 04 05 06 07  08 09 0A 0B 0C 0D 0E 0F
      -- -- -- -- -- -- -- --  -- -- -- -- -- -- -- --
0000:       6C 97 D0 00 01 00  80 01 80 6C A1 D0 00 01    l........l....
0010: 02 80 01 80 00                                    .....           
```

#### Opcodes

```
  0: 0x0002 [0x6C] FADE_ENTITY_COLOR(entity_id=Jabbos (ID: 16830615/0x0100D097), end_alpha=128*, fade_time=1*)
  1: 0x000B [0x6C] FADE_ENTITY_COLOR(entity_id=Unnamed NPC (ID: 16830625/0x0100D0A1), end_alpha=0*, fade_time=1*)
  2: 0x0014 [0x00] END_REQSTACK()
```

### Event 65535.2

#### Metadata

| Field        | Value    |
|--------------|----------|
| Entrypoint   | 0x0015   |
| Data Size    | 70 bytes |
| Instructions | 8        |

```
      00 01 02 03 04 05 06 07  08 09 0A 0B 0C 0D 0E 0F
      -- -- -- -- -- -- -- --  -- -- -- -- -- -- -- --
0010:                5B 03 80  9B D0 00 01 9B D0 00 01       [..........
0020: 68 61 70 30 1C 04 80 5B  03 80 9C D0 00 01 9C D0  hap0...[........
0030: 00 01 68 61 70 30 1C 04  80 5B 03 80 9D D0 00 01  ..hap0...[......
0040: 9D D0 00 01 68 61 70 30  1C 04 80 5B 03 80 9E D0  ....hap0...[....
0050: 00 01 9E D0 00 01 68 61  70 30 00                 ......hap0.     
```

#### Opcodes

```
  0: 0x0015 [0x5B] LOAD_EXT_SCHEDULER: Load scheduler "hap0" with entities [Chekochuk (ID: 16830619/0x0100D09B), Chekochuk (ID: 16830619/0x0100D09B)], work=216*
  1: 0x0024 [0x1C] WAIT(3* ticks)
  2: 0x0027 [0x5B] LOAD_EXT_SCHEDULER: Load scheduler "hap0" with entities [Movamuq (ID: 16830620/0x0100D09C), Movamuq (ID: 16830620/0x0100D09C)], work=216*
  3: 0x0036 [0x1C] WAIT(3* ticks)
  4: 0x0039 [0x5B] LOAD_EXT_SCHEDULER: Load scheduler "hap0" with entities [Trikotrak (ID: 16830621/0x0100D09D), Trikotrak (ID: 16830621/0x0100D09D)], work=216*
  5: 0x0048 [0x1C] WAIT(3* ticks)
  6: 0x004B [0x5B] LOAD_EXT_SCHEDULER: Load scheduler "hap0" with entities [Swipostik (ID: 16830622/0x0100D09E), Swipostik (ID: 16830622/0x0100D09E)], work=216*
  7: 0x005A [0x00] END_REQSTACK()
```

### Event 65535.3

#### Metadata

| Field        | Value   |
|--------------|---------|
| Entrypoint   | 0x005B  |
| Data Size    | 9 bytes |
| Instructions | 3       |

```
      00 01 02 03 04 05 06 07  08 09 0A 0B 0C 0D 0E 0F
      -- -- -- -- -- -- -- --  -- -- -- -- -- -- -- --
0050:                                   1C 05 80 7B 97             ...{.
0060: D0 00 01 00                                       ....            
```

#### Opcodes

```
  0: 0x005B [0x1C] WAIT(100* ticks)
  1: 0x005E [0x7B] Jabbos (ID: 16830615/0x0100D097) stops talking
  2: 0x0063 [0x00] END_REQSTACK()
```

### Event 65535.4

#### Metadata

| Field        | Value    |
|--------------|----------|
| Entrypoint   | 0x0064   |
| Data Size    | 64 bytes |
| Instructions | 7        |

```
      00 01 02 03 04 05 06 07  08 09 0A 0B 0C 0D 0E 0F
      -- -- -- -- -- -- -- --  -- -- -- -- -- -- -- --
0060:             81 00 9A D0  00 01 81 00 99 D0 00 01      ............
0070: 81 00 98 D0 00 01 5B 06  80 9A D0 00 01 9A D0 00  ......[.........
0080: 01 63 72 79 30 5B 07 80  99 D0 00 01 99 D0 00 01  .cry0[..........
0090: 63 72 79 30 5B 07 80 98  D0 00 01 98 D0 00 01 63  cry0[..........c
00A0: 72 79 30 00                                       ry0.            
```

#### Opcodes

```
  0: 0x0064 [0x81] SET_ENTITY_BLINKING(blink_flag=0x00, entity=Cherukiki (ID: 16830618/0x0100D09A))
  1: 0x006A [0x81] SET_ENTITY_BLINKING(blink_flag=0x00, entity=Kukki-Chebukki (ID: 16830617/0x0100D099))
  2: 0x0070 [0x81] SET_ENTITY_BLINKING(blink_flag=0x00, entity=Makki-Chebukki (ID: 16830616/0x0100D098))
  3: 0x0076 [0x5B] LOAD_EXT_SCHEDULER: Load scheduler "cry0" with entities [Cherukiki (ID: 16830618/0x0100D09A), Cherukiki (ID: 16830618/0x0100D09A)], work=432*
  4: 0x0085 [0x5B] LOAD_EXT_SCHEDULER: Load scheduler "cry0" with entities [Kukki-Chebukki (ID: 16830617/0x0100D099), Kukki-Chebukki (ID: 16830617/0x0100D099)], work=442*
  5: 0x0094 [0x5B] LOAD_EXT_SCHEDULER: Load scheduler "cry0" with entities [Makki-Chebukki (ID: 16830616/0x0100D098), Makki-Chebukki (ID: 16830616/0x0100D098)], work=442*
  6: 0x00A3 [0x00] END_REQSTACK()
```

### Event 65535.5

#### Metadata

| Field        | Value    |
|--------------|----------|
| Entrypoint   | 0x00A4   |
| Data Size    | 68 bytes |
| Instructions | 14       |

```
      00 01 02 03 04 05 06 07  08 09 0A 0B 0C 0D 0E 0F
      -- -- -- -- -- -- -- --  -- -- -- -- -- -- -- --
00A0:             27 10 A3 D0  00 01 0E 1C 08 80 27 10      '.........'.
00B0: F0 FF FF 7F 15 1C 09 80  27 10 A6 D0 00 01 0F 1C  ........'.......
00C0: 0A 80 27 10 A5 D0 00 01  0F 1C 09 80 27 10 A4 D0  ..'.........'...
00D0: 00 01 10 1C 0B 80 27 10  96 D0 00 01 1F 1C 0C 80  ......'.........
00E0: 27 10 97 D0 00 01 1E 00                           '.......        
```

#### Opcodes

```
  0: 0x00A4 [0x27] REQ_SET(priority=0x10, entity_id=Prishe (ID: 16830627/0x0100D0A3), tag_num=0x0E)
  1: 0x00AB [0x1C] WAIT(20* ticks)
  2: 0x00AE [0x27] REQ_SET(priority=0x10, entity_id=LocalPlayer, tag_num=0x15)
  3: 0x00B5 [0x1C] WAIT(6* ticks)
  4: 0x00B8 [0x27] REQ_SET(priority=0x10, entity_id=Shikaree Z (ID: 16830630/0x0100D0A6), tag_num=0x0F)
  5: 0x00BF [0x1C] WAIT(15* ticks)
  6: 0x00C2 [0x27] REQ_SET(priority=0x10, entity_id=Tenzen (ID: 16830629/0x0100D0A5), tag_num=0x0F)
  7: 0x00C9 [0x1C] WAIT(6* ticks)
  8: 0x00CC [0x27] REQ_SET(priority=0x10, entity_id=Ulmia (ID: 16830628/0x0100D0A4), tag_num=0x10)
  9: 0x00D3 [0x1C] WAIT(9* ticks)
 10: 0x00D6 [0x27] REQ_SET(priority=0x10, entity_id=Louverance (ID: 16830614/0x0100D096), tag_num=0x1F)
 11: 0x00DD [0x1C] WAIT(30* ticks)
 12: 0x00E0 [0x27] REQ_SET(priority=0x10, entity_id=Jabbos (ID: 16830615/0x0100D097), tag_num=0x1E)
 13: 0x00E7 [0x00] END_REQSTACK()
```

### Event 65535.6

#### Metadata

| Field        | Value     |
|--------------|-----------|
| Entrypoint   | 0x00E8    |
| Data Size    | 142 bytes |
| Instructions | 16        |

```
      00 01 02 03 04 05 06 07  08 09 0A 0B 0C 0D 0E 0F
      -- -- -- -- -- -- -- --  -- -- -- -- -- -- -- --
00E0:                          5B 03 80 9B D0 00 01 9B          [.......
00F0: D0 00 01 68 61 70 30 1C  04 80 5B 03 80 9C D0 00  ...hap0...[.....
0100: 01 9C D0 00 01 68 61 70  30 1C 04 80 5B 03 80 9D  .....hap0...[...
0110: D0 00 01 9D D0 00 01 68  61 70 30 1C 04 80 5B 03  .......hap0...[.
0120: 80 9E D0 00 01 9E D0 00  01 68 61 70 30 1C 04 80  .........hap0...
0130: 5B 03 80 A8 D0 00 01 A8  D0 00 01 68 61 70 30 1C  [..........hap0.
0140: 04 80 5B 03 80 A9 D0 00  01 A9 D0 00 01 68 61 70  ..[..........hap
0150: 30 1C 04 80 5B 03 80 AA  D0 00 01 AA D0 00 01 68  0...[..........h
0160: 61 70 30 1C 04 80 5B 03  80 AB D0 00 01 AB D0 00  ap0...[.........
0170: 01 68 61 70 30 00                                 .hap0.          
```

#### Opcodes

```
  0: 0x00E8 [0x5B] LOAD_EXT_SCHEDULER: Load scheduler "hap0" with entities [Chekochuk (ID: 16830619/0x0100D09B), Chekochuk (ID: 16830619/0x0100D09B)], work=216*
  1: 0x00F7 [0x1C] WAIT(3* ticks)
  2: 0x00FA [0x5B] LOAD_EXT_SCHEDULER: Load scheduler "hap0" with entities [Movamuq (ID: 16830620/0x0100D09C), Movamuq (ID: 16830620/0x0100D09C)], work=216*
  3: 0x0109 [0x1C] WAIT(3* ticks)
  4: 0x010C [0x5B] LOAD_EXT_SCHEDULER: Load scheduler "hap0" with entities [Trikotrak (ID: 16830621/0x0100D09D), Trikotrak (ID: 16830621/0x0100D09D)], work=216*
  5: 0x011B [0x1C] WAIT(3* ticks)
  6: 0x011E [0x5B] LOAD_EXT_SCHEDULER: Load scheduler "hap0" with entities [Swipostik (ID: 16830622/0x0100D09E), Swipostik (ID: 16830622/0x0100D09E)], work=216*
  7: 0x012D [0x1C] WAIT(3* ticks)
  8: 0x0130 [0x5B] LOAD_EXT_SCHEDULER: Load scheduler "hap0" with entities [5 (ID: 16830632/0x0100D0A8), 5 (ID: 16830632/0x0100D0A8)], work=216*
  9: 0x013F [0x1C] WAIT(3* ticks)
 10: 0x0142 [0x5B] LOAD_EXT_SCHEDULER: Load scheduler "hap0" with entities [6 (ID: 16830633/0x0100D0A9), 6 (ID: 16830633/0x0100D0A9)], work=216*
 11: 0x0151 [0x1C] WAIT(3* ticks)
 12: 0x0154 [0x5B] LOAD_EXT_SCHEDULER: Load scheduler "hap0" with entities [7 (ID: 16830634/0x0100D0AA), 7 (ID: 16830634/0x0100D0AA)], work=216*
 13: 0x0163 [0x1C] WAIT(3* ticks)
 14: 0x0166 [0x5B] LOAD_EXT_SCHEDULER: Load scheduler "hap0" with entities [8 (ID: 16830635/0x0100D0AB), 8 (ID: 16830635/0x0100D0AB)], work=216*
 15: 0x0175 [0x00] END_REQSTACK()
```

### Event 65535.7

#### Metadata

| Field        | Value    |
|--------------|----------|
| Entrypoint   | 0x0176   |
| Data Size    | 73 bytes |
| Instructions | 9        |

```
      00 01 02 03 04 05 06 07  08 09 0A 0B 0C 0D 0E 0F
      -- -- -- -- -- -- -- --  -- -- -- -- -- -- -- --
0170:                   4A 9B  D0 00 01 F0 FF FF 7F 4A        J........J
0180: 9C D0 00 01 F0 FF FF 7F  4A 9D D0 00 01 F0 FF FF  ........J.......
0190: 7F 4A 9E D0 00 01 F0 FF  FF 7F 4A A8 D0 00 01 F0  .J........J.....
01A0: FF FF 7F 4A A9 D0 00 01  F0 FF FF 7F 4A AA D0 00  ...J........J...
01B0: 01 F0 FF FF 7F 4A AB D0  00 01 F0 FF FF 7F 00     .....J......... 
```

#### Opcodes

```
  0: 0x0176 [0x4A] Chekochuk (ID: 16830619/0x0100D09B) looks at LocalPlayer
  1: 0x017F [0x4A] Movamuq (ID: 16830620/0x0100D09C) looks at LocalPlayer
  2: 0x0188 [0x4A] Trikotrak (ID: 16830621/0x0100D09D) looks at LocalPlayer
  3: 0x0191 [0x4A] Swipostik (ID: 16830622/0x0100D09E) looks at LocalPlayer
  4: 0x019A [0x4A] 5 (ID: 16830632/0x0100D0A8) looks at LocalPlayer
  5: 0x01A3 [0x4A] 6 (ID: 16830633/0x0100D0A9) looks at LocalPlayer
  6: 0x01AC [0x4A] 7 (ID: 16830634/0x0100D0AA) looks at LocalPlayer
  7: 0x01B5 [0x4A] 8 (ID: 16830635/0x0100D0AB) looks at LocalPlayer
  8: 0x01BE [0x00] END_REQSTACK()
```

### Event 65535.8

#### Metadata

| Field        | Value     |
|--------------|-----------|
| Entrypoint   | 0x01BF    |
| Data Size    | 235 bytes |
| Instructions | 31        |

```
      00 01 02 03 04 05 06 07  08 09 0A 0B 0C 0D 0E 0F
      -- -- -- -- -- -- -- --  -- -- -- -- -- -- -- --
01B0:                                               4A                 J
01C0: 9B D0 00 01 9D D0 00 01  1C 01 80 4A 9C D0 00 01  ...........J....
01D0: AA D0 00 01 1C 0D 80 4A  9D D0 00 01 B9 D0 00 01  .......J........
01E0: 1C 01 80 4A 9E D0 00 01  A9 D0 00 01 1C 04 80 4A  ...J...........J
01F0: A8 D0 00 01 A9 D0 00 01  1C 01 80 4A A9 D0 00 01  ...........J....
0200: 9E D0 00 01 1C 0D 80 4A  AA D0 00 01 9C D0 00 01  .......J........
0210: 1C 01 80 4A AB D0 00 01  AA D0 00 01 5B 03 80 9B  ...J........[...
0220: D0 00 01 9B D0 00 01 62  69 6B 30 1C 04 80 5B 03  .......bik0...[.
0230: 80 9C D0 00 01 9C D0 00  01 68 61 70 30 1C 04 80  .........hap0...
0240: 5B 0E 80 9D D0 00 01 9D  D0 00 01 74 6C 6B 31 1C  [..........tlk1.
0250: 04 80 5B 03 80 9E D0 00  01 9E D0 00 01 62 69 6B  ..[..........bik
0260: 30 1C 04 80 5B 03 80 A8  D0 00 01 A8 D0 00 01 6D  0...[..........m
0270: 6D 6D 30 1C 04 80 5B 0E  80 A9 D0 00 01 A9 D0 00  mm0...[.........
0280: 01 74 6C 6B 30 1C 04 80  5B 03 80 AA D0 00 01 AA  .tlk0...[.......
0290: D0 00 01 61 6E 67 30 1C  04 80 5B 0E 80 AB D0 00  ...ang0...[.....
02A0: 01 AB D0 00 01 74 6C 6B  30 00                    .....tlk0.      
```

#### Opcodes

```
  0: 0x01BF [0x4A] Chekochuk (ID: 16830619/0x0100D09B) looks at Trikotrak (ID: 16830621/0x0100D09D)
  1: 0x01C8 [0x1C] WAIT(1* ticks)
  2: 0x01CB [0x4A] Movamuq (ID: 16830620/0x0100D09C) looks at 7 (ID: 16830634/0x0100D0AA)
  3: 0x01D4 [0x1C] WAIT(2* ticks)
  4: 0x01D7 [0x4A] Trikotrak (ID: 16830621/0x0100D09D) looks at Twilotak (ID: 16830649/0x0100D0B9)
  5: 0x01E0 [0x1C] WAIT(1* ticks)
  6: 0x01E3 [0x4A] Swipostik (ID: 16830622/0x0100D09E) looks at 6 (ID: 16830633/0x0100D0A9)
  7: 0x01EC [0x1C] WAIT(3* ticks)
  8: 0x01EF [0x4A] 5 (ID: 16830632/0x0100D0A8) looks at 6 (ID: 16830633/0x0100D0A9)
  9: 0x01F8 [0x1C] WAIT(1* ticks)
 10: 0x01FB [0x4A] 6 (ID: 16830633/0x0100D0A9) looks at Swipostik (ID: 16830622/0x0100D09E)
 11: 0x0204 [0x1C] WAIT(2* ticks)
 12: 0x0207 [0x4A] 7 (ID: 16830634/0x0100D0AA) looks at Movamuq (ID: 16830620/0x0100D09C)
 13: 0x0210 [0x1C] WAIT(1* ticks)
 14: 0x0213 [0x4A] 8 (ID: 16830635/0x0100D0AB) looks at 7 (ID: 16830634/0x0100D0AA)
 15: 0x021C [0x5B] LOAD_EXT_SCHEDULER: Load scheduler "bik0" with entities [Chekochuk (ID: 16830619/0x0100D09B), Chekochuk (ID: 16830619/0x0100D09B)], work=216*
 16: 0x022B [0x1C] WAIT(3* ticks)
 17: 0x022E [0x5B] LOAD_EXT_SCHEDULER: Load scheduler "hap0" with entities [Movamuq (ID: 16830620/0x0100D09C), Movamuq (ID: 16830620/0x0100D09C)], work=216*
 18: 0x023D [0x1C] WAIT(3* ticks)
 19: 0x0240 [0x5B] LOAD_EXT_SCHEDULER: Load scheduler "tlk1" with entities [Trikotrak (ID: 16830621/0x0100D09D), Trikotrak (ID: 16830621/0x0100D09D)], work=215*
 20: 0x024F [0x1C] WAIT(3* ticks)
 21: 0x0252 [0x5B] LOAD_EXT_SCHEDULER: Load scheduler "bik0" with entities [Swipostik (ID: 16830622/0x0100D09E), Swipostik (ID: 16830622/0x0100D09E)], work=216*
 22: 0x0261 [0x1C] WAIT(3* ticks)
 23: 0x0264 [0x5B] LOAD_EXT_SCHEDULER: Load scheduler "mmm0" with entities [5 (ID: 16830632/0x0100D0A8), 5 (ID: 16830632/0x0100D0A8)], work=216*
 24: 0x0273 [0x1C] WAIT(3* ticks)
 25: 0x0276 [0x5B] LOAD_EXT_SCHEDULER: Load scheduler "tlk0" with entities [6 (ID: 16830633/0x0100D0A9), 6 (ID: 16830633/0x0100D0A9)], work=215*
 26: 0x0285 [0x1C] WAIT(3* ticks)
 27: 0x0288 [0x5B] LOAD_EXT_SCHEDULER: Load scheduler "ang0" with entities [7 (ID: 16830634/0x0100D0AA), 7 (ID: 16830634/0x0100D0AA)], work=216*
 28: 0x0297 [0x1C] WAIT(3* ticks)
 29: 0x029A [0x5B] LOAD_EXT_SCHEDULER: Load scheduler "tlk0" with entities [8 (ID: 16830635/0x0100D0AB), 8 (ID: 16830635/0x0100D0AB)], work=215*
 30: 0x02A9 [0x00] END_REQSTACK()
```

### Event 65535.9

#### Metadata

| Field        | Value    |
|--------------|----------|
| Entrypoint   | 0x02AA   |
| Data Size    | 10 bytes |
| Instructions | 2        |

```
      00 01 02 03 04 05 06 07  08 09 0A 0B 0C 0D 0E 0F
      -- -- -- -- -- -- -- --  -- -- -- -- -- -- -- --
02A0:                                6C BC D0 00 01 00            l.....
02B0: 80 0F 80 00                                       ....            
```

#### Opcodes

```
  0: 0x02AA [0x6C] FADE_ENTITY_COLOR(entity_id=Magriffon (ID: 16830652/0x0100D0BC), end_alpha=128*, fade_time=180*)
  1: 0x02B3 [0x00] END_REQSTACK()
```

### Event 65535.10

#### Metadata

| Field        | Value    |
|--------------|----------|
| Entrypoint   | 0x02B4   |
| Data Size    | 34 bytes |
| Instructions | 4        |

```
      00 01 02 03 04 05 06 07  08 09 0A 0B 0C 0D 0E 0F
      -- -- -- -- -- -- -- --  -- -- -- -- -- -- -- --
02B0:             1C 0C 80 5B  03 80 B7 D0 00 01 B7 D0      ...[........
02C0: 00 01 62 79 65 30 5B 03  80 B8 D0 00 01 B8 D0 00  ..bye0[.........
02D0: 01 62 79 65 30 00                                 .bye0.          
```

#### Opcodes

```
  0: 0x02B4 [0x1C] WAIT(30* ticks)
  1: 0x02B7 [0x5B] LOAD_EXT_SCHEDULER: Load scheduler "bye0" with entities [Pawnpix (ID: 16830647/0x0100D0B7), Pawnpix (ID: 16830647/0x0100D0B7)], work=216*
  2: 0x02C6 [0x5B] LOAD_EXT_SCHEDULER: Load scheduler "bye0" with entities [Stufstix (ID: 16830648/0x0100D0B8), Stufstix (ID: 16830648/0x0100D0B8)], work=216*
  3: 0x02D5 [0x00] END_REQSTACK()
```

### Event 65535.11

#### Metadata

| Field        | Value    |
|--------------|----------|
| Entrypoint   | 0x02D6   |
| Data Size    | 24 bytes |
| Instructions | 4        |

```
      00 01 02 03 04 05 06 07  08 09 0A 0B 0C 0D 0E 0F
      -- -- -- -- -- -- -- --  -- -- -- -- -- -- -- --
02D0:                   79 00  BC D0 00 01 F0 FF FF 7F        y.........
02E0: 1C 0C 80 79 00 BC D0 00  01 B8 D0 00 01 00        ...y..........  
```

#### Opcodes

```
  0: 0x02D6 [0x79] Magriffon (ID: 16830652/0x0100D0BC) looks at LocalPlayer (Basic look)
  1: 0x02E0 [0x1C] WAIT(30* ticks)
  2: 0x02E3 [0x79] Magriffon (ID: 16830652/0x0100D0BC) looks at Stufstix (ID: 16830648/0x0100D0B8) (Basic look)
  3: 0x02ED [0x00] END_REQSTACK()
```
