# 16830615 - Jabbos

## Common Data

| Field            | Value                     |
|------------------|---------------------------|
| Zone             | Mine Shaft #2716 (ID: 13) |
| Block Size       | 2068 bytes                |
| Total Events     | 87                        |
| References Count | 120                       |

## List of Events

| Event ID                   | Entrypoint   |   Size |   Instructions |
|----------------------------|--------------|--------|----------------|
| [65535](#event-65535)      | 0x0000       |      1 |              1 |
| [0](#event-0)              | 0x0001       |      1 |              1 |
| [65535.1](#event-655351)   | 0x0002       |     18 |              4 |
| [65535.2](#event-655352)   | 0x0014       |     10 |              2 |
| [65535.3](#event-655353)   | 0x001E       |      9 |              3 |
| [65535.4](#event-655354)   | 0x0027       |      9 |              3 |
| [65535.5](#event-655355)   | 0x0030       |     10 |              2 |
| [65535.6](#event-655356)   | 0x003A       |     10 |              2 |
| [1](#event-1)              | 0x0044       |      1 |              1 |
| [2](#event-2)              | 0x0045       |      1 |              1 |
| [3](#event-3)              | 0x0046       |      1 |              1 |
| [32000](#event-32000)      | 0x0047       |      1 |              1 |
| [32001](#event-32001)      | 0x0048       |      1 |              1 |
| [65535.7](#event-655357)   | 0x0049       |     10 |              2 |
| [65535.8](#event-655358)   | 0x0053       |     25 |              7 |
| [65535.9](#event-655359)   | 0x006C       |     10 |              2 |
| [65535.10](#event-6553510) | 0x0076       |     15 |              3 |
| [65535.11](#event-6553511) | 0x0085       |     15 |              5 |
| [65535.12](#event-6553512) | 0x0094       |     15 |              5 |
| [65535.13](#event-6553513) | 0x00A3       |     10 |              2 |
| [65535.14](#event-6553514) | 0x00AD       |     10 |              2 |
| [65535.15](#event-6553515) | 0x00B7       |     15 |              3 |
| [65535.16](#event-6553516) | 0x00C6       |     10 |              2 |
| [4](#event-4)              | 0x00D0       |      1 |              1 |
| [65535.17](#event-6553517) | 0x00D1       |     10 |              2 |
| [65535.18](#event-6553518) | 0x00DB       |     48 |              8 |
| [65535.19](#event-6553519) | 0x010B       |     50 |              8 |
| [65535.20](#event-6553520) | 0x013D       |     10 |              2 |
| [65535.21](#event-6553521) | 0x0147       |     10 |              2 |
| [65535.22](#event-6553522) | 0x0151       |     41 |              9 |
| [65535.23](#event-6553523) | 0x017A       |     35 |              9 |
| [7](#event-7)              | 0x019D       |      1 |              1 |
| [65535.24](#event-6553524) | 0x019E       |     12 |              3 |
| [65535.25](#event-6553525) | 0x01AA       |     27 |              8 |
| [65535.26](#event-6553526) | 0x01C5       |     12 |              4 |
| [65535.27](#event-6553527) | 0x01D1       |     21 |              5 |
| [65535.28](#event-6553528) | 0x01E6       |     16 |              2 |
| [65535.29](#event-6553529) | 0x01F6       |     14 |              2 |
| [65535.30](#event-6553530) | 0x0204       |     16 |              2 |
| [65535.31](#event-6553531) | 0x0214       |     14 |              2 |
| [65535.32](#event-6553532) | 0x0222       |     16 |              2 |
| [65535.33](#event-6553533) | 0x0232       |     14 |              2 |
| [65535.34](#event-6553534) | 0x0240       |     16 |              2 |
| [65535.35](#event-6553535) | 0x0250       |     14 |              2 |
| [65535.36](#event-6553536) | 0x025E       |     16 |              2 |
| [65535.37](#event-6553537) | 0x026E       |     14 |              2 |
| [65535.38](#event-6553538) | 0x027C       |     16 |              4 |
| [65535.39](#event-6553539) | 0x028C       |     16 |              4 |
| [65535.40](#event-6553540) | 0x029C       |     16 |              4 |
| [65535.41](#event-6553541) | 0x02AC       |     16 |              4 |
| [65535.42](#event-6553542) | 0x02BC       |     16 |              4 |
| [65535.43](#event-6553543) | 0x02CC       |     16 |              4 |
| [65535.44](#event-6553544) | 0x02DC       |     16 |              4 |
| [65535.45](#event-6553545) | 0x02EC       |     16 |              4 |
| [65535.46](#event-6553546) | 0x02FC       |     16 |              4 |
| [65535.47](#event-6553547) | 0x030C       |     16 |              4 |
| [65535.48](#event-6553548) | 0x031C       |      9 |              3 |
| [8](#event-8)              | 0x0325       |      7 |              2 |
| [65535.49](#event-6553549) | 0x032C       |      7 |              3 |
| [65535.50](#event-6553550) | 0x0333       |      7 |              3 |
| [65535.51](#event-6553551) | 0x033A       |     22 |              8 |
| [65535.52](#event-6553552) | 0x0350       |     15 |              5 |
| [65535.53](#event-6553553) | 0x035F       |     15 |              5 |
| [65535.54](#event-6553554) | 0x036E       |     15 |              5 |
| [65535.55](#event-6553555) | 0x037D       |     15 |              5 |
| [65535.56](#event-6553556) | 0x038C       |     15 |              5 |
| [65535.57](#event-6553557) | 0x039B       |     15 |              5 |
| [65535.58](#event-6553558) | 0x03AA       |     23 |              7 |
| [65535.59](#event-6553559) | 0x03C1       |     15 |              5 |
| [65535.60](#event-6553560) | 0x03D0       |      7 |              3 |
| [65535.61](#event-6553561) | 0x03D7       |      7 |              3 |
| [65535.62](#event-6553562) | 0x03DE       |     16 |              2 |
| [65535.63](#event-6553563) | 0x03EE       |     14 |              2 |
| [65535.64](#event-6553564) | 0x03FC       |     16 |              2 |
| [65535.65](#event-6553565) | 0x040C       |     14 |              2 |
| [65535.66](#event-6553566) | 0x041A       |     16 |              2 |
| [65535.67](#event-6553567) | 0x042A       |     14 |              2 |
| [65535.68](#event-6553568) | 0x0438       |     16 |              2 |
| [65535.69](#event-6553569) | 0x0448       |     14 |              2 |
| [65535.70](#event-6553570) | 0x0456       |     16 |              2 |
| [65535.71](#event-6553571) | 0x0466       |     14 |              2 |
| [65535.72](#event-6553572) | 0x0474       |     16 |              2 |
| [65535.73](#event-6553573) | 0x0484       |     14 |              2 |
| [12](#event-12)            | 0x0492       |      7 |              2 |
| [65535.74](#event-6553574) | 0x0499       |     15 |              5 |
| [65535.75](#event-6553575) | 0x04A8       |     15 |              5 |
| [65535.76](#event-6553576) | 0x04B7       |     15 |              5 |

## DAT References (imed_data)

|   Index | Hex Value   |   Dec Value |
|---------|-------------|-------------|
|       0 | 0x0000      |           0 |
|       1 | 0x0001      |           1 |
|       2 | 0x0080      |         128 |
|       3 | 0xFFF8F8C6  |  4294506694 |
|       4 | 0xFFFF7A04  |  4294932996 |
|       5 | 0x1D4BF     |      119999 |
|       6 | 0x0AB8      |        2744 |
|       7 | 0x000B      |          11 |
|       8 | 0xFFF90272  |  4294509170 |
|       9 | 0xFFFF812D  |  4294934829 |
|      10 | 0x1D4B0     |      119984 |
|      11 | 0x000F      |          15 |
|      12 | 0x05FA      |        1530 |
|      13 | 0xFFF8FB20  |  4294507296 |
|      14 | 0xFFFFF826  |  4294965286 |
|      15 | 0x0C07      |        3079 |
|      16 | 0xFFF8D010  |  4294496272 |
|      17 | 0x8394      |       33684 |
|      18 | 0x1DC8F     |      121999 |
|      19 | 0x02BA      |         698 |
|      20 | 0xFFF8D1E3  |  4294496739 |
|      21 | 0x7DB4      |       32180 |
|      22 | 0xFFF8C149  |  4294492489 |
|      23 | 0x7559      |       30041 |
|      24 | 0xFFF8CCCC  |  4294495436 |
|      25 | 0x7739      |       30521 |
|      26 | 0x02BC      |         700 |
|      27 | 0xFFF8DE59  |  4294499929 |
|      28 | 0x3059      |       12377 |
|      29 | 0x0BB6      |        2998 |
|      30 | 0xFFF8E668  |  4294501992 |
|      31 | 0x28AF      |       10415 |
|      32 | 0x02E9      |         745 |
|      33 | 0x450B      |       17675 |
|      34 | 0xFFFFF03D  |  4294963261 |
|      35 | 0x07CF      |        1999 |
|      36 | 0x0831      |        2097 |
|      37 | 0xFFF8FFF5  |  4294508533 |
|      38 | 0x1B77      |        7031 |
|      39 | 0x0C1C      |        3100 |
|      40 | 0x01EC      |         492 |
|      41 | 0x003C      |          60 |
|      42 | 0x0028      |          40 |
|      43 | 0xFFF9123E  |  4294513214 |
|      44 | 0x2797      |       10135 |
|      45 | 0x1DC80     |      121984 |
|      46 | 0xFFF92836  |  4294518838 |
|      47 | 0x13C9      |        5065 |
|      48 | 0x0003      |           3 |
|      49 | 0x009D      |         157 |
|      50 | 0x01ED      |         493 |
|      51 | 0xFFF929EE  |  4294519278 |
|      52 | 0x1EA7      |        7847 |
|      53 | 0x001E      |          30 |
|      54 | 0xFFF8FB98  |  4294507416 |
|      55 | 0x4CE2      |       19682 |
|      56 | 0x1DCAF     |      122031 |
|      57 | 0x0C1B      |        3099 |
|      58 | 0xFFF8ECB2  |  4294503602 |
|      59 | 0x4E08      |       19976 |
|      60 | 0xFFF8DA14  |  4294498836 |
|      61 | 0x1DC90     |      122000 |
|      62 | 0xFFF8E49D  |  4294501533 |
|      63 | 0x3C7D      |       15485 |
|      64 | 0x1DD5B     |      122203 |
|      65 | 0xFFF8F291  |  4294505105 |
|      66 | 0x1C04      |        7172 |
|      67 | 0xFFF8F682  |  4294506114 |
|      68 | 0xFFFFE04A  |  4294959178 |
|      69 | 0x1D4C0     |      120000 |
|      70 | 0xFFF8FAC2  |  4294507202 |
|      71 | 0x0845      |        2117 |
|      72 | 0x1D724     |      120612 |
|      73 | 0x0BD9      |        3033 |
|      74 | 0x000D      |          13 |
|      75 | 0x19DE      |        6622 |
|      76 | 0x1BC6      |        7110 |
|      77 | 0xFFF8FB35  |  4294507317 |
|      78 | 0x22F9      |        8953 |
|      79 | 0xFFF8F9A7  |  4294506919 |
|      80 | 0xFFFFE84F  |  4294961231 |
|      81 | 0x0045      |          69 |
|      82 | 0x0083      |         131 |
|      83 | 0x0015      |          21 |
|      84 | 0x0007      |           7 |
|      85 | 0x0006      |           6 |
|      86 | 0x000E      |          14 |
|      87 | 0x0004      |           4 |
|      88 | 0x0013      |          19 |
|      89 | 0x000C      |          12 |
|      90 | 0x001D      |          29 |
|      91 | 0xFFFF42B8  |  4294918840 |
|      92 | 0xFFF7260C  |  4294387212 |
|      93 | 0xFFFE2B40  |  4294847296 |
|      94 | 0xFFFF4AF1  |  4294920945 |
|      95 | 0xFFF725E4  |  4294387172 |
|      96 | 0xFFFF6844  |  4294928452 |
|      97 | 0xFFF72653  |  4294387283 |
|      98 | 0xFFF8FE72  |  4294508146 |
|      99 | 0xFFFFF21F  |  4294963743 |
|     100 | 0xFFF8F99C  |  4294506908 |
|     101 | 0x319F      |       12703 |
|     102 | 0xFFF8FDAF  |  4294507951 |
|     103 | 0x4383      |       17283 |
|     104 | 0x1DCB0     |      122032 |
|     105 | 0xFFF8D564  |  4294497636 |
|     106 | 0x4625      |       17957 |
|     107 | 0x1DC87     |      121991 |
|     108 | 0xFFFE519C  |  4294857116 |
|     109 | 0x79E8F     |      499343 |
|     110 | 0x2BF1F     |      179999 |
|     111 | 0xFFFEB10B  |  4294881547 |
|     112 | 0x79E7D     |      499325 |
|     113 | 0x00D1      |         209 |
|     114 | 0xFFF8CD82  |  4294495618 |
|     115 | 0x712A      |       28970 |
|     116 | 0xFFF8C88A  |  4294494346 |
|     117 | 0x7AEF      |       31471 |
|     118 | 0xFFF8E506  |  4294501638 |
|     119 | 0x2BA5      |       11173 |

## Events

### Event 65535

#### Metadata

| Field        | Value   |
|--------------|---------|
| Entrypoint   | 0x0000  |
| Data Size    | 1 bytes |
| Instructions | 1       |

```
      00 01 02 03 04 05 06 07  08 09 0A 0B 0C 0D 0E 0F
      -- -- -- -- -- -- -- --  -- -- -- -- -- -- -- --
0000: 00                                                .               
```

#### Opcodes

```
  0: 0x0000 [0x00] END_REQSTACK()
```

### Event 0

#### Metadata

| Field        | Value   |
|--------------|---------|
| Entrypoint   | 0x0001  |
| Data Size    | 1 bytes |
| Instructions | 1       |

```
      00 01 02 03 04 05 06 07  08 09 0A 0B 0C 0D 0E 0F
      -- -- -- -- -- -- -- --  -- -- -- -- -- -- -- --
0000:    00                                              .              
```

#### Opcodes

```
  0: 0x0001 [0x00] END_REQSTACK()
```

### Event 65535.1

#### Metadata

| Field        | Value    |
|--------------|----------|
| Entrypoint   | 0x0002   |
| Data Size    | 18 bytes |
| Instructions | 4        |

```
      00 01 02 03 04 05 06 07  08 09 0A 0B 0C 0D 0E 0F
      -- -- -- -- -- -- -- --  -- -- -- -- -- -- -- --
0000:       22 00 2F 00 F8 FF  FF 7F 6C F8 FF FF 7F 00    "./.....l.....
0010: 80 01 80 00                                       ....            
```

#### Opcodes

```
  0: 0x0002 [0x22] ENTITY_HIDE_FLAG(enabled=0x00)
  1: 0x0004 [0x2F] EventEntity->Render.Flags0 &= ~0x80000 // Bit 19
  2: 0x000A [0x6C] FADE_ENTITY_COLOR(entity_id=EventEntity, end_alpha=0*, fade_time=1*)
  3: 0x0013 [0x00] END_REQSTACK()
```

### Event 65535.2

#### Metadata

| Field        | Value    |
|--------------|----------|
| Entrypoint   | 0x0014   |
| Data Size    | 10 bytes |
| Instructions | 2        |

```
      00 01 02 03 04 05 06 07  08 09 0A 0B 0C 0D 0E 0F
      -- -- -- -- -- -- -- --  -- -- -- -- -- -- -- --
0010:             6C F8 FF FF  7F 02 80 01 80 00            l.........  
```

#### Opcodes

```
  0: 0x0014 [0x6C] FADE_ENTITY_COLOR(entity_id=EventEntity, end_alpha=128*, fade_time=1*)
  1: 0x001D [0x00] END_REQSTACK()
```

### Event 65535.3

#### Metadata

| Field        | Value   |
|--------------|---------|
| Entrypoint   | 0x001E  |
| Data Size    | 9 bytes |
| Instructions | 3       |

```
      00 01 02 03 04 05 06 07  08 09 0A 0B 0C 0D 0E 0F
      -- -- -- -- -- -- -- --  -- -- -- -- -- -- -- --
0010:                                            22 00                ".
0020: 2F 00 F8 FF FF 7F 00                              /......         
```

#### Opcodes

```
  0: 0x001E [0x22] ENTITY_HIDE_FLAG(enabled=0x00)
  1: 0x0020 [0x2F] EventEntity->Render.Flags0 &= ~0x80000 // Bit 19
  2: 0x0026 [0x00] END_REQSTACK()
```

### Event 65535.4

#### Metadata

| Field        | Value   |
|--------------|---------|
| Entrypoint   | 0x0027  |
| Data Size    | 9 bytes |
| Instructions | 3       |

```
      00 01 02 03 04 05 06 07  08 09 0A 0B 0C 0D 0E 0F
      -- -- -- -- -- -- -- --  -- -- -- -- -- -- -- --
0020:                      22  01 2F 01 F8 FF FF 7F 00         "./......
```

#### Opcodes

```
  0: 0x0027 [0x22] ENTITY_HIDE_FLAG(enabled=0x01)
  1: 0x0029 [0x2F] EventEntity->Render.Flags0 |= 0x80000 // Bit 19
  2: 0x002F [0x00] END_REQSTACK()
```

### Event 65535.5

#### Metadata

| Field        | Value    |
|--------------|----------|
| Entrypoint   | 0x0030   |
| Data Size    | 10 bytes |
| Instructions | 2        |

```
      00 01 02 03 04 05 06 07  08 09 0A 0B 0C 0D 0E 0F
      -- -- -- -- -- -- -- --  -- -- -- -- -- -- -- --
0030: 6C F8 FF FF 7F 00 80 01  80 00                    l.........      
```

#### Opcodes

```
  0: 0x0030 [0x6C] FADE_ENTITY_COLOR(entity_id=EventEntity, end_alpha=0*, fade_time=1*)
  1: 0x0039 [0x00] END_REQSTACK()
```

### Event 65535.6

#### Metadata

| Field        | Value    |
|--------------|----------|
| Entrypoint   | 0x003A   |
| Data Size    | 10 bytes |
| Instructions | 2        |

```
      00 01 02 03 04 05 06 07  08 09 0A 0B 0C 0D 0E 0F
      -- -- -- -- -- -- -- --  -- -- -- -- -- -- -- --
0030:                                6C F8 FF FF 7F 02            l.....
0040: 80 01 80 00                                       ....            
```

#### Opcodes

```
  0: 0x003A [0x6C] FADE_ENTITY_COLOR(entity_id=EventEntity, end_alpha=128*, fade_time=1*)
  1: 0x0043 [0x00] END_REQSTACK()
```

### Event 1

#### Metadata

| Field        | Value   |
|--------------|---------|
| Entrypoint   | 0x0044  |
| Data Size    | 1 bytes |
| Instructions | 1       |

```
      00 01 02 03 04 05 06 07  08 09 0A 0B 0C 0D 0E 0F
      -- -- -- -- -- -- -- --  -- -- -- -- -- -- -- --
0040:             00                                        .           
```

#### Opcodes

```
  0: 0x0044 [0x00] END_REQSTACK()
```

### Event 2

#### Metadata

| Field        | Value   |
|--------------|---------|
| Entrypoint   | 0x0045  |
| Data Size    | 1 bytes |
| Instructions | 1       |

```
      00 01 02 03 04 05 06 07  08 09 0A 0B 0C 0D 0E 0F
      -- -- -- -- -- -- -- --  -- -- -- -- -- -- -- --
0040:                00                                      .          
```

#### Opcodes

```
  0: 0x0045 [0x00] END_REQSTACK()
```

### Event 3

#### Metadata

| Field        | Value   |
|--------------|---------|
| Entrypoint   | 0x0046  |
| Data Size    | 1 bytes |
| Instructions | 1       |

```
      00 01 02 03 04 05 06 07  08 09 0A 0B 0C 0D 0E 0F
      -- -- -- -- -- -- -- --  -- -- -- -- -- -- -- --
0040:                   00                                    .         
```

#### Opcodes

```
  0: 0x0046 [0x00] END_REQSTACK()
```

### Event 32000

#### Metadata

| Field        | Value   |
|--------------|---------|
| Entrypoint   | 0x0047  |
| Data Size    | 1 bytes |
| Instructions | 1       |

```
      00 01 02 03 04 05 06 07  08 09 0A 0B 0C 0D 0E 0F
      -- -- -- -- -- -- -- --  -- -- -- -- -- -- -- --
0040:                      00                                  .        
```

#### Opcodes

```
  0: 0x0047 [0x00] END_REQSTACK()
```

### Event 32001

#### Metadata

| Field        | Value   |
|--------------|---------|
| Entrypoint   | 0x0048  |
| Data Size    | 1 bytes |
| Instructions | 1       |

```
      00 01 02 03 04 05 06 07  08 09 0A 0B 0C 0D 0E 0F
      -- -- -- -- -- -- -- --  -- -- -- -- -- -- -- --
0040:                          00                               .       
```

#### Opcodes

```
  0: 0x0048 [0x00] END_REQSTACK()
```

### Event 65535.7

#### Metadata

| Field        | Value    |
|--------------|----------|
| Entrypoint   | 0x0049   |
| Data Size    | 10 bytes |
| Instructions | 2        |

```
      00 01 02 03 04 05 06 07  08 09 0A 0B 0C 0D 0E 0F
      -- -- -- -- -- -- -- --  -- -- -- -- -- -- -- --
0040:                             37 03 80 04 80 05 80           7......
0050: 06 80 00                                          ...             
```

#### Opcodes

```
  0: 0x0049 [0x37] UPDATE_EVENT_POSITION_AND_DIR: x=-460.602*, z=-34.300*, y=119.999*, direction=241.2°*
  1: 0x0052 [0x00] END_REQSTACK()
```

### Event 65535.8

#### Metadata

| Field        | Value    |
|--------------|----------|
| Entrypoint   | 0x0053   |
| Data Size    | 25 bytes |
| Instructions | 7        |

```
      00 01 02 03 04 05 06 07  08 09 0A 0B 0C 0D 0E 0F
      -- -- -- -- -- -- -- --  -- -- -- -- -- -- -- --
0050:          32 07 80 1F 00  08 80 09 80 0A 80 1F 01     2............
0060: 6F 1C 0B 80 4B 97 D0 00  01 0C 80 00              o...K.......    
```

#### Opcodes

```
  0: 0x0053 [0x32] ExtData[1]->MainSpeed = 11* * 0.1
  1: 0x0056 [0x1F] MOVE_ENTITY: EventEntity moves to X=-458.126*, Z=-32.467*, Y=119.984*
  2: 0x005E [0x1F] MOVE_ENTITY: Update entity position (mode=1)
  3: 0x0060 [0x6F] WAIT_FRAME_DELAY: Yield until WaitTime reaches zero
  4: 0x0061 [0x1C] WAIT(15* ticks)
  5: 0x0064 [0x4B] UPDATE_ENTITY_YAW(entity=Jabbos (ID: 16830615/0x0100D097), yaw=8.4°*)
  6: 0x006B [0x00] END_REQSTACK()
```

### Event 65535.9

#### Metadata

| Field        | Value    |
|--------------|----------|
| Entrypoint   | 0x006C   |
| Data Size    | 10 bytes |
| Instructions | 2        |

```
      00 01 02 03 04 05 06 07  08 09 0A 0B 0C 0D 0E 0F
      -- -- -- -- -- -- -- --  -- -- -- -- -- -- -- --
0060:                                      37 0D 80 0E              7...
0070: 80 05 80 0F 80 00                                 ......          
```

#### Opcodes

```
  0: 0x006C [0x37] UPDATE_EVENT_POSITION_AND_DIR: x=-460.000*, z=-2.010*, y=119.999*, direction=270.6°*
  1: 0x0075 [0x00] END_REQSTACK()
```

### Event 65535.10

#### Metadata

| Field        | Value    |
|--------------|----------|
| Entrypoint   | 0x0076   |
| Data Size    | 15 bytes |
| Instructions | 3        |

```
      00 01 02 03 04 05 06 07  08 09 0A 0B 0C 0D 0E 0F
      -- -- -- -- -- -- -- --  -- -- -- -- -- -- -- --
0070:                   37 10  80 11 80 12 80 13 80 5E        7........^
0080: 69 64 6C 30 00                                    idl0.           
```

#### Opcodes

```
  0: 0x0076 [0x37] UPDATE_EVENT_POSITION_AND_DIR: x=-471.024*, z=33.684*, y=121.999*, direction=61.3°*
  1: 0x007F [0x5E] EventEntity goes idle (kills current action) (animation: "idl0")
  2: 0x0084 [0x00] END_REQSTACK()
```

### Event 65535.11

#### Metadata

| Field        | Value    |
|--------------|----------|
| Entrypoint   | 0x0085   |
| Data Size    | 15 bytes |
| Instructions | 5        |

```
      00 01 02 03 04 05 06 07  08 09 0A 0B 0C 0D 0E 0F
      -- -- -- -- -- -- -- --  -- -- -- -- -- -- -- --
0080:                32 07 80  1F 00 14 80 15 80 12 80       2..........
0090: 1F 01 6F 00                                       ..o.            
```

#### Opcodes

```
  0: 0x0085 [0x32] ExtData[1]->MainSpeed = 11* * 0.1
  1: 0x0088 [0x1F] MOVE_ENTITY: EventEntity moves to X=-470.557*, Z=32.180*, Y=121.999*
  2: 0x0090 [0x1F] MOVE_ENTITY: Update entity position (mode=1)
  3: 0x0092 [0x6F] WAIT_FRAME_DELAY: Yield until WaitTime reaches zero
  4: 0x0093 [0x00] END_REQSTACK()
```

### Event 65535.12

#### Metadata

| Field        | Value    |
|--------------|----------|
| Entrypoint   | 0x0094   |
| Data Size    | 15 bytes |
| Instructions | 5        |

```
      00 01 02 03 04 05 06 07  08 09 0A 0B 0C 0D 0E 0F
      -- -- -- -- -- -- -- --  -- -- -- -- -- -- -- --
0090:             32 07 80 1F  00 16 80 17 80 12 80 1F      2...........
00A0: 01 6F 00                                          .o.             
```

#### Opcodes

```
  0: 0x0094 [0x32] ExtData[1]->MainSpeed = 11* * 0.1
  1: 0x0097 [0x1F] MOVE_ENTITY: EventEntity moves to X=-474.807*, Z=30.041*, Y=121.999*
  2: 0x009F [0x1F] MOVE_ENTITY: Update entity position (mode=1)
  3: 0x00A1 [0x6F] WAIT_FRAME_DELAY: Yield until WaitTime reaches zero
  4: 0x00A2 [0x00] END_REQSTACK()
```

### Event 65535.13

#### Metadata

| Field        | Value    |
|--------------|----------|
| Entrypoint   | 0x00A3   |
| Data Size    | 10 bytes |
| Instructions | 2        |

```
      00 01 02 03 04 05 06 07  08 09 0A 0B 0C 0D 0E 0F
      -- -- -- -- -- -- -- --  -- -- -- -- -- -- -- --
00A0:          37 18 80 19 80  12 80 1A 80 00              7.........   
```

#### Opcodes

```
  0: 0x00A3 [0x37] UPDATE_EVENT_POSITION_AND_DIR: x=-471.860*, z=30.521*, y=121.999*, direction=61.5°*
  1: 0x00AC [0x00] END_REQSTACK()
```

### Event 65535.14

#### Metadata

| Field        | Value    |
|--------------|----------|
| Entrypoint   | 0x00AD   |
| Data Size    | 10 bytes |
| Instructions | 2        |

```
      00 01 02 03 04 05 06 07  08 09 0A 0B 0C 0D 0E 0F
      -- -- -- -- -- -- -- --  -- -- -- -- -- -- -- --
00A0:                                         37 1B 80               7..
00B0: 1C 80 12 80 1D 80 00                              .......         
```

#### Opcodes

```
  0: 0x00AD [0x37] UPDATE_EVENT_POSITION_AND_DIR: x=-467.367*, z=12.377*, y=121.999*, direction=263.5°*
  1: 0x00B6 [0x00] END_REQSTACK()
```

### Event 65535.15

#### Metadata

| Field        | Value    |
|--------------|----------|
| Entrypoint   | 0x00B7   |
| Data Size    | 15 bytes |
| Instructions | 3        |

```
      00 01 02 03 04 05 06 07  08 09 0A 0B 0C 0D 0E 0F
      -- -- -- -- -- -- -- --  -- -- -- -- -- -- -- --
00B0:                      37  1E 80 1F 80 12 80 20 80         7...... .
00C0: 5E 69 64 6C 30 00                                 ^idl0.          
```

#### Opcodes

```
  0: 0x00B7 [0x37] UPDATE_EVENT_POSITION_AND_DIR: x=-465.304*, z=10.415*, y=121.999*, direction=65.5°*
  1: 0x00C0 [0x5E] EventEntity goes idle (kills current action) (animation: "idl0")
  2: 0x00C5 [0x00] END_REQSTACK()
```

### Event 65535.16

#### Metadata

| Field        | Value    |
|--------------|----------|
| Entrypoint   | 0x00C6   |
| Data Size    | 10 bytes |
| Instructions | 2        |

```
      00 01 02 03 04 05 06 07  08 09 0A 0B 0C 0D 0E 0F
      -- -- -- -- -- -- -- --  -- -- -- -- -- -- -- --
00C0:                   37 21  80 22 80 23 80 24 80 00        7!.".#.$..
```

#### Opcodes

```
  0: 0x00C6 [0x37] UPDATE_EVENT_POSITION_AND_DIR: x=17.675*, z=-4.035*, y=1.999*, direction=184.3°*
  1: 0x00CF [0x00] END_REQSTACK()
```

### Event 4

#### Metadata

| Field        | Value   |
|--------------|---------|
| Entrypoint   | 0x00D0  |
| Data Size    | 1 bytes |
| Instructions | 1       |

```
      00 01 02 03 04 05 06 07  08 09 0A 0B 0C 0D 0E 0F
      -- -- -- -- -- -- -- --  -- -- -- -- -- -- -- --
00D0: 00                                                .               
```

#### Opcodes

```
  0: 0x00D0 [0x00] END_REQSTACK()
```

### Event 65535.17

#### Metadata

| Field        | Value    |
|--------------|----------|
| Entrypoint   | 0x00D1   |
| Data Size    | 10 bytes |
| Instructions | 2        |

```
      00 01 02 03 04 05 06 07  08 09 0A 0B 0C 0D 0E 0F
      -- -- -- -- -- -- -- --  -- -- -- -- -- -- -- --
00D0:    37 25 80 26 80 12 80  27 80 00                  7%.&...'..     
```

#### Opcodes

```
  0: 0x00D1 [0x37] UPDATE_EVENT_POSITION_AND_DIR: x=-458.763*, z=7.031*, y=121.999*, direction=272.5°*
  1: 0x00DA [0x00] END_REQSTACK()
```

### Event 65535.18

#### Metadata

| Field        | Value    |
|--------------|----------|
| Entrypoint   | 0x00DB   |
| Data Size    | 48 bytes |
| Instructions | 8        |

```
      00 01 02 03 04 05 06 07  08 09 0A 0B 0C 0D 0E 0F
      -- -- -- -- -- -- -- --  -- -- -- -- -- -- -- --
00D0:                                   5B 28 80 97 D0             [(...
00E0: 00 01 97 D0 00 01 67 62  63 31 1C 29 80 32 2A 80  ......gbc1.).2*.
00F0: 1F 00 2B 80 2C 80 2D 80  1F 01 6F 5B 28 80 97 D0  ..+.,.-...o[(...
0100: 00 01 97 D0 00 01 67 62  63 30 00                 ......gbc0.     
```

#### Opcodes

```
  0: 0x00DB [0x5B] LOAD_EXT_SCHEDULER: Load scheduler "gbc1" with entities [Jabbos (ID: 16830615/0x0100D097), Jabbos (ID: 16830615/0x0100D097)], work=492*
  1: 0x00EA [0x1C] WAIT(60* ticks)
  2: 0x00ED [0x32] ExtData[1]->MainSpeed = 40* * 0.1
  3: 0x00F0 [0x1F] MOVE_ENTITY: EventEntity moves to X=-454.082*, Z=10.135*, Y=121.984*
  4: 0x00F8 [0x1F] MOVE_ENTITY: Update entity position (mode=1)
  5: 0x00FA [0x6F] WAIT_FRAME_DELAY: Yield until WaitTime reaches zero
  6: 0x00FB [0x5B] LOAD_EXT_SCHEDULER: Load scheduler "gbc0" with entities [Jabbos (ID: 16830615/0x0100D097), Jabbos (ID: 16830615/0x0100D097)], work=492*
  7: 0x010A [0x00] END_REQSTACK()
```

### Event 65535.19

#### Metadata

| Field        | Value    |
|--------------|----------|
| Entrypoint   | 0x010B   |
| Data Size    | 50 bytes |
| Instructions | 8        |

```
      00 01 02 03 04 05 06 07  08 09 0A 0B 0C 0D 0E 0F
      -- -- -- -- -- -- -- --  -- -- -- -- -- -- -- --
0100:                                   32 2A 80 1F 00             2*...
0110: 2E 80 2F 80 12 80 1F 01  6F 1C 30 80 45 31 80 F0  ../.....o.0.E1..
0120: FF FF 7F F0 FF FF 7F 36  30 37 39 00 80 5B 32 80  .......6079..[2.
0130: 97 D0 00 01 97 D0 00 01  61 74 73 30 00           ........ats0.   
```

#### Opcodes

```
  0: 0x010B [0x32] ExtData[1]->MainSpeed = 40* * 0.1
  1: 0x010E [0x1F] MOVE_ENTITY: EventEntity moves to X=-448.458*, Z=5.065*, Y=121.999*
  2: 0x0116 [0x1F] MOVE_ENTITY: Update entity position (mode=1)
  3: 0x0118 [0x6F] WAIT_FRAME_DELAY: Yield until WaitTime reaches zero
  4: 0x0119 [0x1C] WAIT(3* ticks)
  5: 0x011C [0x45] LOAD_SCHEDULED_TASK: Load scheduler "6079" with entities [LocalPlayer, LocalPlayer], work=[157*, 0*]
  6: 0x012D [0x5B] LOAD_EXT_SCHEDULER: Load scheduler "ats0" with entities [Jabbos (ID: 16830615/0x0100D097), Jabbos (ID: 16830615/0x0100D097)], work=493*
  7: 0x013C [0x00] END_REQSTACK()
```

### Event 65535.20

#### Metadata

| Field        | Value    |
|--------------|----------|
| Entrypoint   | 0x013D   |
| Data Size    | 10 bytes |
| Instructions | 2        |

```
      00 01 02 03 04 05 06 07  08 09 0A 0B 0C 0D 0E 0F
      -- -- -- -- -- -- -- --  -- -- -- -- -- -- -- --
0130:                                         37 33 80               73.
0140: 34 80 2D 80 35 80 00                              4.-.5..         
```

#### Opcodes

```
  0: 0x013D [0x37] UPDATE_EVENT_POSITION_AND_DIR: x=-448.018*, z=7.847*, y=121.984*, direction=2.6°*
  1: 0x0146 [0x00] END_REQSTACK()
```

### Event 65535.21

#### Metadata

| Field        | Value    |
|--------------|----------|
| Entrypoint   | 0x0147   |
| Data Size    | 10 bytes |
| Instructions | 2        |

```
      00 01 02 03 04 05 06 07  08 09 0A 0B 0C 0D 0E 0F
      -- -- -- -- -- -- -- --  -- -- -- -- -- -- -- --
0140:                      37  36 80 37 80 38 80 39 80         76.7.8.9.
0150: 00                                                .               
```

#### Opcodes

```
  0: 0x0147 [0x37] UPDATE_EVENT_POSITION_AND_DIR: x=-459.880*, z=19.682*, y=122.031*, direction=272.4°*
  1: 0x0150 [0x00] END_REQSTACK()
```

### Event 65535.22

#### Metadata

| Field        | Value    |
|--------------|----------|
| Entrypoint   | 0x0151   |
| Data Size    | 41 bytes |
| Instructions | 9        |

```
      00 01 02 03 04 05 06 07  08 09 0A 0B 0C 0D 0E 0F
      -- -- -- -- -- -- -- --  -- -- -- -- -- -- -- --
0150:    32 2A 80 1F 00 3A 80  3B 80 38 80 1F 01 27 0F   2*...:.;.8...'.
0160: A3 D0 00 01 0D 1F 00 3C  80 3B 80 3D 80 1F 01 6F  .......<.;.=...o
0170: 4A A6 D0 00 01 97 D0 00  01 00                    J.........      
```

#### Opcodes

```
  0: 0x0151 [0x32] ExtData[1]->MainSpeed = 40* * 0.1
  1: 0x0154 [0x1F] MOVE_ENTITY: EventEntity moves to X=-463.694*, Z=19.976*, Y=122.031*
  2: 0x015C [0x1F] MOVE_ENTITY: Update entity position (mode=1)
  3: 0x015E [0x27] REQ_SET(priority=0x0F, entity_id=Prishe (ID: 16830627/0x0100D0A3), tag_num=0x0D)
  4: 0x0165 [0x1F] MOVE_ENTITY: EventEntity moves to X=-468.460*, Z=19.976*, Y=122.000*
  5: 0x016D [0x1F] MOVE_ENTITY: Update entity position (mode=1)
  6: 0x016F [0x6F] WAIT_FRAME_DELAY: Yield until WaitTime reaches zero
  7: 0x0170 [0x4A] Shikaree Z (ID: 16830630/0x0100D0A6) looks at Jabbos (ID: 16830615/0x0100D097)
  8: 0x0179 [0x00] END_REQSTACK()
```

### Event 65535.23

#### Metadata

| Field        | Value    |
|--------------|----------|
| Entrypoint   | 0x017A   |
| Data Size    | 35 bytes |
| Instructions | 9        |

```
      00 01 02 03 04 05 06 07  08 09 0A 0B 0C 0D 0E 0F
      -- -- -- -- -- -- -- --  -- -- -- -- -- -- -- --
0170:                                32 2A 80 1F 00 3E            2*...>
0180: 80 3F 80 40 80 1F 01 1F  00 41 80 42 80 12 80 1F  .?.@.....A.B....
0190: 01 1F 00 43 80 44 80 45  80 1F 01 6F 00           ...C.D.E...o.   
```

#### Opcodes

```
  0: 0x017A [0x32] ExtData[1]->MainSpeed = 40* * 0.1
  1: 0x017D [0x1F] MOVE_ENTITY: EventEntity moves to X=-465.763*, Z=15.485*, Y=122.203*
  2: 0x0185 [0x1F] MOVE_ENTITY: Update entity position (mode=1)
  3: 0x0187 [0x1F] MOVE_ENTITY: EventEntity moves to X=-462.191*, Z=7.172*, Y=121.999*
  4: 0x018F [0x1F] MOVE_ENTITY: Update entity position (mode=1)
  5: 0x0191 [0x1F] MOVE_ENTITY: EventEntity moves to X=-461.182*, Z=-8.118*, Y=120.000*
  6: 0x0199 [0x1F] MOVE_ENTITY: Update entity position (mode=1)
  7: 0x019B [0x6F] WAIT_FRAME_DELAY: Yield until WaitTime reaches zero
  8: 0x019C [0x00] END_REQSTACK()
```

### Event 7

#### Metadata

| Field        | Value   |
|--------------|---------|
| Entrypoint   | 0x019D  |
| Data Size    | 1 bytes |
| Instructions | 1       |

```
      00 01 02 03 04 05 06 07  08 09 0A 0B 0C 0D 0E 0F
      -- -- -- -- -- -- -- --  -- -- -- -- -- -- -- --
0190:                                         00                     .  
```

#### Opcodes

```
  0: 0x019D [0x00] END_REQSTACK()
```

### Event 65535.24

#### Metadata

| Field        | Value    |
|--------------|----------|
| Entrypoint   | 0x019E   |
| Data Size    | 12 bytes |
| Instructions | 3        |

```
      00 01 02 03 04 05 06 07  08 09 0A 0B 0C 0D 0E 0F
      -- -- -- -- -- -- -- --  -- -- -- -- -- -- -- --
0190:                                            33 01                3.
01A0: 37 46 80 47 80 48 80 49  80 00                    7F.G.H.I..      
```

#### Opcodes

```
  0: 0x019E [0x33] EventEntity->Render.Flags0 |= 0x200000 // Bit 21 (flag=0x01)
  1: 0x01A0 [0x37] UPDATE_EVENT_POSITION_AND_DIR: x=-460.094*, z=2.117*, y=120.612*, direction=266.6°*
  2: 0x01A9 [0x00] END_REQSTACK()
```

### Event 65535.25

#### Metadata

| Field        | Value    |
|--------------|----------|
| Entrypoint   | 0x01AA   |
| Data Size    | 27 bytes |
| Instructions | 8        |

```
      00 01 02 03 04 05 06 07  08 09 0A 0B 0C 0D 0E 0F
      -- -- -- -- -- -- -- --  -- -- -- -- -- -- -- --
01A0:                                33 00 32 4A 80 5A            3.2J.Z
01B0: 00 46 80 4B 80 12 80 5A  01 1F 00 46 80 4C 80 12  .F.K...Z...F.L..
01C0: 80 1F 01 6F 00                                    ...o.           
```

#### Opcodes

```
  0: 0x01AA [0x33] EventEntity->Render.Flags0 &= ~ 0x200000 // Bit 21 (flag=0x00)
  1: 0x01AC [0x32] ExtData[1]->MainSpeed = 13* * 0.1
  2: 0x01AF [0x5A] UPDATE_EVENT_POSITION: Set EventEntity MovePosition to X=-460.094*, Z=6.622*, Y=121.999*
  3: 0x01B7 [0x5A] UPDATE_EVENT_POSITION: Move EventEntity incrementally towards MovePosition
  4: 0x01B9 [0x1F] MOVE_ENTITY: EventEntity moves to X=-460.094*, Z=7.110*, Y=121.999*
  5: 0x01C1 [0x1F] MOVE_ENTITY: Update entity position (mode=1)
  6: 0x01C3 [0x6F] WAIT_FRAME_DELAY: Yield until WaitTime reaches zero
  7: 0x01C4 [0x00] END_REQSTACK()
```

### Event 65535.26

#### Metadata

| Field        | Value    |
|--------------|----------|
| Entrypoint   | 0x01C5   |
| Data Size    | 12 bytes |
| Instructions | 4        |

```
      00 01 02 03 04 05 06 07  08 09 0A 0B 0C 0D 0E 0F
      -- -- -- -- -- -- -- --  -- -- -- -- -- -- -- --
01C0:                1F 00 4D  80 4E 80 12 80 1F 01 6F       ..M.N.....o
01D0: 00                                                .               
```

#### Opcodes

```
  0: 0x01C5 [0x1F] MOVE_ENTITY: EventEntity moves to X=-459.979*, Z=8.953*, Y=121.999*
  1: 0x01CD [0x1F] MOVE_ENTITY: Update entity position (mode=1)
  2: 0x01CF [0x6F] WAIT_FRAME_DELAY: Yield until WaitTime reaches zero
  3: 0x01D0 [0x00] END_REQSTACK()
```

### Event 65535.27

#### Metadata

| Field        | Value    |
|--------------|----------|
| Entrypoint   | 0x01D1   |
| Data Size    | 21 bytes |
| Instructions | 5        |

```
      00 01 02 03 04 05 06 07  08 09 0A 0B 0C 0D 0E 0F
      -- -- -- -- -- -- -- --  -- -- -- -- -- -- -- --
01D0:    1F 00 4F 80 50 80 05  80 1F 01 6F 6C F8 FF FF   ..O.P.....ol...
01E0: 7F 00 80 01 80 00                                 ......          
```

#### Opcodes

```
  0: 0x01D1 [0x1F] MOVE_ENTITY: EventEntity moves to X=-460.377*, Z=-6.065*, Y=119.999*
  1: 0x01D9 [0x1F] MOVE_ENTITY: Update entity position (mode=1)
  2: 0x01DB [0x6F] WAIT_FRAME_DELAY: Yield until WaitTime reaches zero
  3: 0x01DC [0x6C] FADE_ENTITY_COLOR(entity_id=EventEntity, end_alpha=0*, fade_time=1*)
  4: 0x01E5 [0x00] END_REQSTACK()
```

### Event 65535.28

#### Metadata

| Field        | Value    |
|--------------|----------|
| Entrypoint   | 0x01E6   |
| Data Size    | 16 bytes |
| Instructions | 2        |

```
      00 01 02 03 04 05 06 07  08 09 0A 0B 0C 0D 0E 0F
      -- -- -- -- -- -- -- --  -- -- -- -- -- -- -- --
01E0:                   66 51  80 F8 FF FF 7F F8 FF FF        fQ........
01F0: 7F 74 6C 6B 30 00                                 .tlk0.          
```

#### Opcodes

```
  0: 0x01E6 [0x66] LOAD_EXT_SCHEDULER_MAIN: Load scheduler "tlk0" with entities [EventEntity, EventEntity], work=69*
  1: 0x01F5 [0x00] END_REQSTACK()
```

### Event 65535.29

#### Metadata

| Field        | Value    |
|--------------|----------|
| Entrypoint   | 0x01F6   |
| Data Size    | 14 bytes |
| Instructions | 2        |

```
      00 01 02 03 04 05 06 07  08 09 0A 0B 0C 0D 0E 0F
      -- -- -- -- -- -- -- --  -- -- -- -- -- -- -- --
01F0:                   53 F8  FF FF 7F F8 FF FF 7F 74        S........t
0200: 6C 6B 30 00                                       lk0.            
```

#### Opcodes

```
  0: 0x01F6 [0x53] WAIT_SCHEDULER_TASK: Wait for scheduler "tlk0" with entities [EventEntity, EventEntity]
  1: 0x0203 [0x00] END_REQSTACK()
```

### Event 65535.30

#### Metadata

| Field        | Value    |
|--------------|----------|
| Entrypoint   | 0x0204   |
| Data Size    | 16 bytes |
| Instructions | 2        |

```
      00 01 02 03 04 05 06 07  08 09 0A 0B 0C 0D 0E 0F
      -- -- -- -- -- -- -- --  -- -- -- -- -- -- -- --
0200:             66 51 80 F8  FF FF 7F F8 FF FF 7F 74      fQ.........t
0210: 6C 6B 31 00                                       lk1.            
```

#### Opcodes

```
  0: 0x0204 [0x66] LOAD_EXT_SCHEDULER_MAIN: Load scheduler "tlk1" with entities [EventEntity, EventEntity], work=69*
  1: 0x0213 [0x00] END_REQSTACK()
```

### Event 65535.31

#### Metadata

| Field        | Value    |
|--------------|----------|
| Entrypoint   | 0x0214   |
| Data Size    | 14 bytes |
| Instructions | 2        |

```
      00 01 02 03 04 05 06 07  08 09 0A 0B 0C 0D 0E 0F
      -- -- -- -- -- -- -- --  -- -- -- -- -- -- -- --
0210:             53 F8 FF FF  7F F8 FF FF 7F 74 6C 6B      S........tlk
0220: 31 00                                             1.              
```

#### Opcodes

```
  0: 0x0214 [0x53] WAIT_SCHEDULER_TASK: Wait for scheduler "tlk1" with entities [EventEntity, EventEntity]
  1: 0x0221 [0x00] END_REQSTACK()
```

### Event 65535.32

#### Metadata

| Field        | Value    |
|--------------|----------|
| Entrypoint   | 0x0222   |
| Data Size    | 16 bytes |
| Instructions | 2        |

```
      00 01 02 03 04 05 06 07  08 09 0A 0B 0C 0D 0E 0F
      -- -- -- -- -- -- -- --  -- -- -- -- -- -- -- --
0220:       66 52 80 F8 FF FF  7F F8 FF FF 7F 70 61 73    fR.........pas
0230: 30 00                                             0.              
```

#### Opcodes

```
  0: 0x0222 [0x66] LOAD_EXT_SCHEDULER_MAIN: Load scheduler "pas0" with entities [EventEntity, EventEntity], work=131*
  1: 0x0231 [0x00] END_REQSTACK()
```

### Event 65535.33

#### Metadata

| Field        | Value    |
|--------------|----------|
| Entrypoint   | 0x0232   |
| Data Size    | 14 bytes |
| Instructions | 2        |

```
      00 01 02 03 04 05 06 07  08 09 0A 0B 0C 0D 0E 0F
      -- -- -- -- -- -- -- --  -- -- -- -- -- -- -- --
0230:       53 F8 FF FF 7F F8  FF FF 7F 70 61 73 30 00    S........pas0.
```

#### Opcodes

```
  0: 0x0232 [0x53] WAIT_SCHEDULER_TASK: Wait for scheduler "pas0" with entities [EventEntity, EventEntity]
  1: 0x023F [0x00] END_REQSTACK()
```

### Event 65535.34

#### Metadata

| Field        | Value    |
|--------------|----------|
| Entrypoint   | 0x0240   |
| Data Size    | 16 bytes |
| Instructions | 2        |

```
      00 01 02 03 04 05 06 07  08 09 0A 0B 0C 0D 0E 0F
      -- -- -- -- -- -- -- --  -- -- -- -- -- -- -- --
0240: 66 51 80 F8 FF FF 7F F8  FF FF 7F 74 68 6B 31 00  fQ.........thk1.
```

#### Opcodes

```
  0: 0x0240 [0x66] LOAD_EXT_SCHEDULER_MAIN: Load scheduler "thk1" with entities [EventEntity, EventEntity], work=69*
  1: 0x024F [0x00] END_REQSTACK()
```

### Event 65535.35

#### Metadata

| Field        | Value    |
|--------------|----------|
| Entrypoint   | 0x0250   |
| Data Size    | 14 bytes |
| Instructions | 2        |

```
      00 01 02 03 04 05 06 07  08 09 0A 0B 0C 0D 0E 0F
      -- -- -- -- -- -- -- --  -- -- -- -- -- -- -- --
0250: 53 F8 FF FF 7F F8 FF FF  7F 74 68 6B 31 00        S........thk1.  
```

#### Opcodes

```
  0: 0x0250 [0x53] WAIT_SCHEDULER_TASK: Wait for scheduler "thk1" with entities [EventEntity, EventEntity]
  1: 0x025D [0x00] END_REQSTACK()
```

### Event 65535.36

#### Metadata

| Field        | Value    |
|--------------|----------|
| Entrypoint   | 0x025E   |
| Data Size    | 16 bytes |
| Instructions | 2        |

```
      00 01 02 03 04 05 06 07  08 09 0A 0B 0C 0D 0E 0F
      -- -- -- -- -- -- -- --  -- -- -- -- -- -- -- --
0250:                                            66 51                fQ
0260: 80 F8 FF FF 7F F8 FF FF  7F 74 68 6B 32 00        .........thk2.  
```

#### Opcodes

```
  0: 0x025E [0x66] LOAD_EXT_SCHEDULER_MAIN: Load scheduler "thk2" with entities [EventEntity, EventEntity], work=69*
  1: 0x026D [0x00] END_REQSTACK()
```

### Event 65535.37

#### Metadata

| Field        | Value    |
|--------------|----------|
| Entrypoint   | 0x026E   |
| Data Size    | 14 bytes |
| Instructions | 2        |

```
      00 01 02 03 04 05 06 07  08 09 0A 0B 0C 0D 0E 0F
      -- -- -- -- -- -- -- --  -- -- -- -- -- -- -- --
0260:                                            53 F8                S.
0270: FF FF 7F F8 FF FF 7F 74  68 6B 32 00              .......thk2.    
```

#### Opcodes

```
  0: 0x026E [0x53] WAIT_SCHEDULER_TASK: Wait for scheduler "thk2" with entities [EventEntity, EventEntity]
  1: 0x027B [0x00] END_REQSTACK()
```

### Event 65535.38

#### Metadata

| Field        | Value    |
|--------------|----------|
| Entrypoint   | 0x027C   |
| Data Size    | 16 bytes |
| Instructions | 4        |

```
      00 01 02 03 04 05 06 07  08 09 0A 0B 0C 0D 0E 0F
      -- -- -- -- -- -- -- --  -- -- -- -- -- -- -- --
0270:                                      6E F8 FF FF              n...
0280: 7F 53 80 99 F8 FF FF 7F  1C 29 80 00              .S.......)..    
```

#### Opcodes

```
  0: 0x027C [0x6E] EventEntity uses emote 21*
  1: 0x0283 [0x99] Wait for EventEntity animation to complete
  2: 0x0288 [0x1C] WAIT(60* ticks)
  3: 0x028B [0x00] END_REQSTACK()
```

### Event 65535.39

#### Metadata

| Field        | Value    |
|--------------|----------|
| Entrypoint   | 0x028C   |
| Data Size    | 16 bytes |
| Instructions | 4        |

```
      00 01 02 03 04 05 06 07  08 09 0A 0B 0C 0D 0E 0F
      -- -- -- -- -- -- -- --  -- -- -- -- -- -- -- --
0280:                                      6E F8 FF FF              n...
0290: 7F 54 80 99 F8 FF FF 7F  1C 29 80 00              .T.......)..    
```

#### Opcodes

```
  0: 0x028C [0x6E] EventEntity uses emote 7*
  1: 0x0293 [0x99] Wait for EventEntity animation to complete
  2: 0x0298 [0x1C] WAIT(60* ticks)
  3: 0x029B [0x00] END_REQSTACK()
```

### Event 65535.40

#### Metadata

| Field        | Value    |
|--------------|----------|
| Entrypoint   | 0x029C   |
| Data Size    | 16 bytes |
| Instructions | 4        |

```
      00 01 02 03 04 05 06 07  08 09 0A 0B 0C 0D 0E 0F
      -- -- -- -- -- -- -- --  -- -- -- -- -- -- -- --
0290:                                      6E F8 FF FF              n...
02A0: 7F 55 80 99 F8 FF FF 7F  1C 29 80 00              .U.......)..    
```

#### Opcodes

```
  0: 0x029C [0x6E] EventEntity uses emote 6*
  1: 0x02A3 [0x99] Wait for EventEntity animation to complete
  2: 0x02A8 [0x1C] WAIT(60* ticks)
  3: 0x02AB [0x00] END_REQSTACK()
```

### Event 65535.41

#### Metadata

| Field        | Value    |
|--------------|----------|
| Entrypoint   | 0x02AC   |
| Data Size    | 16 bytes |
| Instructions | 4        |

```
      00 01 02 03 04 05 06 07  08 09 0A 0B 0C 0D 0E 0F
      -- -- -- -- -- -- -- --  -- -- -- -- -- -- -- --
02A0:                                      6E F8 FF FF              n...
02B0: 7F 07 80 99 F8 FF FF 7F  1C 29 80 00              .........)..    
```

#### Opcodes

```
  0: 0x02AC [0x6E] EventEntity uses emote 11*
  1: 0x02B3 [0x99] Wait for EventEntity animation to complete
  2: 0x02B8 [0x1C] WAIT(60* ticks)
  3: 0x02BB [0x00] END_REQSTACK()
```

### Event 65535.42

#### Metadata

| Field        | Value    |
|--------------|----------|
| Entrypoint   | 0x02BC   |
| Data Size    | 16 bytes |
| Instructions | 4        |

```
      00 01 02 03 04 05 06 07  08 09 0A 0B 0C 0D 0E 0F
      -- -- -- -- -- -- -- --  -- -- -- -- -- -- -- --
02B0:                                      6E F8 FF FF              n...
02C0: 7F 56 80 99 F8 FF FF 7F  1C 29 80 00              .V.......)..    
```

#### Opcodes

```
  0: 0x02BC [0x6E] EventEntity uses emote 14*
  1: 0x02C3 [0x99] Wait for EventEntity animation to complete
  2: 0x02C8 [0x1C] WAIT(60* ticks)
  3: 0x02CB [0x00] END_REQSTACK()
```

### Event 65535.43

#### Metadata

| Field        | Value    |
|--------------|----------|
| Entrypoint   | 0x02CC   |
| Data Size    | 16 bytes |
| Instructions | 4        |

```
      00 01 02 03 04 05 06 07  08 09 0A 0B 0C 0D 0E 0F
      -- -- -- -- -- -- -- --  -- -- -- -- -- -- -- --
02C0:                                      6E F8 FF FF              n...
02D0: 7F 57 80 99 F8 FF FF 7F  1C 29 80 00              .W.......)..    
```

#### Opcodes

```
  0: 0x02CC [0x6E] EventEntity uses emote 4*
  1: 0x02D3 [0x99] Wait for EventEntity animation to complete
  2: 0x02D8 [0x1C] WAIT(60* ticks)
  3: 0x02DB [0x00] END_REQSTACK()
```

### Event 65535.44

#### Metadata

| Field        | Value    |
|--------------|----------|
| Entrypoint   | 0x02DC   |
| Data Size    | 16 bytes |
| Instructions | 4        |

```
      00 01 02 03 04 05 06 07  08 09 0A 0B 0C 0D 0E 0F
      -- -- -- -- -- -- -- --  -- -- -- -- -- -- -- --
02D0:                                      6E F8 FF FF              n...
02E0: 7F 58 80 99 F8 FF FF 7F  1C 29 80 00              .X.......)..    
```

#### Opcodes

```
  0: 0x02DC [0x6E] EventEntity uses emote 19*
  1: 0x02E3 [0x99] Wait for EventEntity animation to complete
  2: 0x02E8 [0x1C] WAIT(60* ticks)
  3: 0x02EB [0x00] END_REQSTACK()
```

### Event 65535.45

#### Metadata

| Field        | Value    |
|--------------|----------|
| Entrypoint   | 0x02EC   |
| Data Size    | 16 bytes |
| Instructions | 4        |

```
      00 01 02 03 04 05 06 07  08 09 0A 0B 0C 0D 0E 0F
      -- -- -- -- -- -- -- --  -- -- -- -- -- -- -- --
02E0:                                      6E F8 FF FF              n...
02F0: 7F 59 80 99 F8 FF FF 7F  1C 29 80 00              .Y.......)..    
```

#### Opcodes

```
  0: 0x02EC [0x6E] EventEntity uses emote 12*
  1: 0x02F3 [0x99] Wait for EventEntity animation to complete
  2: 0x02F8 [0x1C] WAIT(60* ticks)
  3: 0x02FB [0x00] END_REQSTACK()
```

### Event 65535.46

#### Metadata

| Field        | Value    |
|--------------|----------|
| Entrypoint   | 0x02FC   |
| Data Size    | 16 bytes |
| Instructions | 4        |

```
      00 01 02 03 04 05 06 07  08 09 0A 0B 0C 0D 0E 0F
      -- -- -- -- -- -- -- --  -- -- -- -- -- -- -- --
02F0:                                      6E F8 FF FF              n...
0300: 7F 59 80 99 F8 FF FF 7F  1C 29 80 00              .Y.......)..    
```

#### Opcodes

```
  0: 0x02FC [0x6E] EventEntity uses emote 12*
  1: 0x0303 [0x99] Wait for EventEntity animation to complete
  2: 0x0308 [0x1C] WAIT(60* ticks)
  3: 0x030B [0x00] END_REQSTACK()
```

### Event 65535.47

#### Metadata

| Field        | Value    |
|--------------|----------|
| Entrypoint   | 0x030C   |
| Data Size    | 16 bytes |
| Instructions | 4        |

```
      00 01 02 03 04 05 06 07  08 09 0A 0B 0C 0D 0E 0F
      -- -- -- -- -- -- -- --  -- -- -- -- -- -- -- --
0300:                                      6E F8 FF FF              n...
0310: 7F 5A 80 99 F8 FF FF 7F  1C 29 80 00              .Z.......)..    
```

#### Opcodes

```
  0: 0x030C [0x6E] EventEntity uses emote 29*
  1: 0x0313 [0x99] Wait for EventEntity animation to complete
  2: 0x0318 [0x1C] WAIT(60* ticks)
  3: 0x031B [0x00] END_REQSTACK()
```

### Event 65535.48

#### Metadata

| Field        | Value   |
|--------------|---------|
| Entrypoint   | 0x031C  |
| Data Size    | 9 bytes |
| Instructions | 3       |

```
      00 01 02 03 04 05 06 07  08 09 0A 0B 0C 0D 0E 0F
      -- -- -- -- -- -- -- --  -- -- -- -- -- -- -- --
0310:                                      5E 69 64 6C              ^idl
0320: 30 1C 29 80 00                                    0.)..           
```

#### Opcodes

```
  0: 0x031C [0x5E] EventEntity goes idle (kills current action) (animation: "idl0")
  1: 0x0321 [0x1C] WAIT(60* ticks)
  2: 0x0324 [0x00] END_REQSTACK()
```

### Event 8

#### Metadata

| Field        | Value   |
|--------------|---------|
| Entrypoint   | 0x0325  |
| Data Size    | 7 bytes |
| Instructions | 2       |

```
      00 01 02 03 04 05 06 07  08 09 0A 0B 0C 0D 0E 0F
      -- -- -- -- -- -- -- --  -- -- -- -- -- -- -- --
0320:                92 01 F8  FF FF 7F 00                   .......    
```

#### Opcodes

```
  0: 0x0325 [0x92] EventEntity->Render.Flags3 ^= 0x01
  1: 0x032B [0x00] END_REQSTACK()
```

### Event 65535.49

#### Metadata

| Field        | Value   |
|--------------|---------|
| Entrypoint   | 0x032C  |
| Data Size    | 7 bytes |
| Instructions | 3       |

```
      00 01 02 03 04 05 06 07  08 09 0A 0B 0C 0D 0E 0F
      -- -- -- -- -- -- -- --  -- -- -- -- -- -- -- --
0320:                                      AB 03 AC 01              ....
0330: 01 80 00                                          ...             
```

#### Opcodes

```
  0: 0x032C [0xAB] EventEntity->Render.Flags0 ^= 0x20000 // Toggle bit 17
  1: 0x032E [0xAC] EventEntity->StatusEvent = 1*
  2: 0x0332 [0x00] END_REQSTACK()
```

### Event 65535.50

#### Metadata

| Field        | Value   |
|--------------|---------|
| Entrypoint   | 0x0333  |
| Data Size    | 7 bytes |
| Instructions | 3       |

```
      00 01 02 03 04 05 06 07  08 09 0A 0B 0C 0D 0E 0F
      -- -- -- -- -- -- -- --  -- -- -- -- -- -- -- --
0330:          AC 01 00 80 AB  04 00                       .......      
```

#### Opcodes

```
  0: 0x0333 [0xAC] EventEntity->StatusEvent = 0*
  1: 0x0337 [0xAB] EventEntity->Render.Flags0 |= 0x40000 // Set bit 18
  2: 0x0339 [0x00] END_REQSTACK()
```

### Event 65535.51

#### Metadata

| Field        | Value    |
|--------------|----------|
| Entrypoint   | 0x033A   |
| Data Size    | 22 bytes |
| Instructions | 8        |

```
      00 01 02 03 04 05 06 07  08 09 0A 0B 0C 0D 0E 0F
      -- -- -- -- -- -- -- --  -- -- -- -- -- -- -- --
0330:                                32 4A 80 1F 00 5B            2J...[
0340: 80 5C 80 5D 80 1F 01 6F  1E F0 FF FF 7F 6F 70 00  .\.]...o.....op.
```

#### Opcodes

```
  0: 0x033A [0x32] ExtData[1]->MainSpeed = 13* * 0.1
  1: 0x033D [0x1F] MOVE_ENTITY: EventEntity moves to X=-48.456*, Z=-580.084*, Y=-120.000*
  2: 0x0345 [0x1F] MOVE_ENTITY: Update entity position (mode=1)
  3: 0x0347 [0x6F] WAIT_FRAME_DELAY: Yield until WaitTime reaches zero
  4: 0x0348 [0x1E] EventEntity looks at LocalPlayer and starts talking
  5: 0x034D [0x6F] WAIT_FRAME_DELAY: Yield until WaitTime reaches zero
  6: 0x034E [0x70] WAIT_ENTITY_RENDER_FLAG: Wait while EventEntity->Render.Flags3 bit 2 is set (cancel turn if not)
  7: 0x034F [0x00] END_REQSTACK()
```

### Event 65535.52

#### Metadata

| Field        | Value    |
|--------------|----------|
| Entrypoint   | 0x0350   |
| Data Size    | 15 bytes |
| Instructions | 5        |

```
      00 01 02 03 04 05 06 07  08 09 0A 0B 0C 0D 0E 0F
      -- -- -- -- -- -- -- --  -- -- -- -- -- -- -- --
0350: 32 4A 80 1F 00 5E 80 5F  80 5D 80 1F 01 6F 00     2J...^._.]...o. 
```

#### Opcodes

```
  0: 0x0350 [0x32] ExtData[1]->MainSpeed = 13* * 0.1
  1: 0x0353 [0x1F] MOVE_ENTITY: EventEntity moves to X=-46.351*, Z=-580.124*, Y=-120.000*
  2: 0x035B [0x1F] MOVE_ENTITY: Update entity position (mode=1)
  3: 0x035D [0x6F] WAIT_FRAME_DELAY: Yield until WaitTime reaches zero
  4: 0x035E [0x00] END_REQSTACK()
```

### Event 65535.53

#### Metadata

| Field        | Value    |
|--------------|----------|
| Entrypoint   | 0x035F   |
| Data Size    | 15 bytes |
| Instructions | 5        |

```
      00 01 02 03 04 05 06 07  08 09 0A 0B 0C 0D 0E 0F
      -- -- -- -- -- -- -- --  -- -- -- -- -- -- -- --
0350:                                               32                 2
0360: 4A 80 1F 00 60 80 61 80  5D 80 1F 01 6F 00        J...`.a.]...o.  
```

#### Opcodes

```
  0: 0x035F [0x32] ExtData[1]->MainSpeed = 13* * 0.1
  1: 0x0362 [0x1F] MOVE_ENTITY: EventEntity moves to X=-38.844*, Z=-580.013*, Y=-120.000*
  2: 0x036A [0x1F] MOVE_ENTITY: Update entity position (mode=1)
  3: 0x036C [0x6F] WAIT_FRAME_DELAY: Yield until WaitTime reaches zero
  4: 0x036D [0x00] END_REQSTACK()
```

### Event 65535.54

#### Metadata

| Field        | Value    |
|--------------|----------|
| Entrypoint   | 0x036E   |
| Data Size    | 15 bytes |
| Instructions | 5        |

```
      00 01 02 03 04 05 06 07  08 09 0A 0B 0C 0D 0E 0F
      -- -- -- -- -- -- -- --  -- -- -- -- -- -- -- --
0360:                                            32 2A                2*
0370: 80 1F 00 62 80 63 80 05  80 1F 01 6F 00           ...b.c.....o.   
```

#### Opcodes

```
  0: 0x036E [0x32] ExtData[1]->MainSpeed = 40* * 0.1
  1: 0x0371 [0x1F] MOVE_ENTITY: EventEntity moves to X=-459.150*, Z=-3.553*, Y=119.999*
  2: 0x0379 [0x1F] MOVE_ENTITY: Update entity position (mode=1)
  3: 0x037B [0x6F] WAIT_FRAME_DELAY: Yield until WaitTime reaches zero
  4: 0x037C [0x00] END_REQSTACK()
```

### Event 65535.55

#### Metadata

| Field        | Value    |
|--------------|----------|
| Entrypoint   | 0x037D   |
| Data Size    | 15 bytes |
| Instructions | 5        |

```
      00 01 02 03 04 05 06 07  08 09 0A 0B 0C 0D 0E 0F
      -- -- -- -- -- -- -- --  -- -- -- -- -- -- -- --
0370:                                         32 2A 80               2*.
0380: 1F 00 64 80 65 80 3D 80  1F 01 6F 00              ..d.e.=...o.    
```

#### Opcodes

```
  0: 0x037D [0x32] ExtData[1]->MainSpeed = 40* * 0.1
  1: 0x0380 [0x1F] MOVE_ENTITY: EventEntity moves to X=-460.388*, Z=12.703*, Y=122.000*
  2: 0x0388 [0x1F] MOVE_ENTITY: Update entity position (mode=1)
  3: 0x038A [0x6F] WAIT_FRAME_DELAY: Yield until WaitTime reaches zero
  4: 0x038B [0x00] END_REQSTACK()
```

### Event 65535.56

#### Metadata

| Field        | Value    |
|--------------|----------|
| Entrypoint   | 0x038C   |
| Data Size    | 15 bytes |
| Instructions | 5        |

```
      00 01 02 03 04 05 06 07  08 09 0A 0B 0C 0D 0E 0F
      -- -- -- -- -- -- -- --  -- -- -- -- -- -- -- --
0380:                                      32 4A 80 1F              2J..
0390: 00 66 80 67 80 68 80 1F  01 6F 00                 .f.g.h...o.     
```

#### Opcodes

```
  0: 0x038C [0x32] ExtData[1]->MainSpeed = 13* * 0.1
  1: 0x038F [0x1F] MOVE_ENTITY: EventEntity moves to X=-459.345*, Z=17.283*, Y=122.032*
  2: 0x0397 [0x1F] MOVE_ENTITY: Update entity position (mode=1)
  3: 0x0399 [0x6F] WAIT_FRAME_DELAY: Yield until WaitTime reaches zero
  4: 0x039A [0x00] END_REQSTACK()
```

### Event 65535.57

#### Metadata

| Field        | Value    |
|--------------|----------|
| Entrypoint   | 0x039B   |
| Data Size    | 15 bytes |
| Instructions | 5        |

```
      00 01 02 03 04 05 06 07  08 09 0A 0B 0C 0D 0E 0F
      -- -- -- -- -- -- -- --  -- -- -- -- -- -- -- --
0390:                                   32 4A 80 1F 00             2J...
03A0: 69 80 6A 80 6B 80 1F 01  6F 00                    i.j.k...o.      
```

#### Opcodes

```
  0: 0x039B [0x32] ExtData[1]->MainSpeed = 13* * 0.1
  1: 0x039E [0x1F] MOVE_ENTITY: EventEntity moves to X=-469.660*, Z=17.957*, Y=121.991*
  2: 0x03A6 [0x1F] MOVE_ENTITY: Update entity position (mode=1)
  3: 0x03A8 [0x6F] WAIT_FRAME_DELAY: Yield until WaitTime reaches zero
  4: 0x03A9 [0x00] END_REQSTACK()
```

### Event 65535.58

#### Metadata

| Field        | Value    |
|--------------|----------|
| Entrypoint   | 0x03AA   |
| Data Size    | 23 bytes |
| Instructions | 7        |

```
      00 01 02 03 04 05 06 07  08 09 0A 0B 0C 0D 0E 0F
      -- -- -- -- -- -- -- --  -- -- -- -- -- -- -- --
03A0:                                32 4A 80 1F 00 6C            2J...l
03B0: 80 6D 80 6E 80 1F 01 6F  1C 35 80 1E F0 FF FF 7F  .m.n...o.5......
03C0: 00                                                .               
```

#### Opcodes

```
  0: 0x03AA [0x32] ExtData[1]->MainSpeed = 13* * 0.1
  1: 0x03AD [0x1F] MOVE_ENTITY: EventEntity moves to X=-110.180*, Z=499.343*, Y=179.999*
  2: 0x03B5 [0x1F] MOVE_ENTITY: Update entity position (mode=1)
  3: 0x03B7 [0x6F] WAIT_FRAME_DELAY: Yield until WaitTime reaches zero
  4: 0x03B8 [0x1C] WAIT(30* ticks)
  5: 0x03BB [0x1E] EventEntity looks at LocalPlayer and starts talking
  6: 0x03C0 [0x00] END_REQSTACK()
```

### Event 65535.59

#### Metadata

| Field        | Value    |
|--------------|----------|
| Entrypoint   | 0x03C1   |
| Data Size    | 15 bytes |
| Instructions | 5        |

```
      00 01 02 03 04 05 06 07  08 09 0A 0B 0C 0D 0E 0F
      -- -- -- -- -- -- -- --  -- -- -- -- -- -- -- --
03C0:    32 4A 80 1F 00 6F 80  70 80 6E 80 1F 01 6F 00   2J...o.p.n...o.
```

#### Opcodes

```
  0: 0x03C1 [0x32] ExtData[1]->MainSpeed = 13* * 0.1
  1: 0x03C4 [0x1F] MOVE_ENTITY: EventEntity moves to X=-85.749*, Z=499.325*, Y=179.999*
  2: 0x03CC [0x1F] MOVE_ENTITY: Update entity position (mode=1)
  3: 0x03CE [0x6F] WAIT_FRAME_DELAY: Yield until WaitTime reaches zero
  4: 0x03CF [0x00] END_REQSTACK()
```

### Event 65535.60

#### Metadata

| Field        | Value   |
|--------------|---------|
| Entrypoint   | 0x03D0  |
| Data Size    | 7 bytes |
| Instructions | 3       |

```
      00 01 02 03 04 05 06 07  08 09 0A 0B 0C 0D 0E 0F
      -- -- -- -- -- -- -- --  -- -- -- -- -- -- -- --
03D0: AB 03 AC 01 01 80 00                              .......         
```

#### Opcodes

```
  0: 0x03D0 [0xAB] EventEntity->Render.Flags0 ^= 0x20000 // Toggle bit 17
  1: 0x03D2 [0xAC] EventEntity->StatusEvent = 1*
  2: 0x03D6 [0x00] END_REQSTACK()
```

### Event 65535.61

#### Metadata

| Field        | Value   |
|--------------|---------|
| Entrypoint   | 0x03D7  |
| Data Size    | 7 bytes |
| Instructions | 3       |

```
      00 01 02 03 04 05 06 07  08 09 0A 0B 0C 0D 0E 0F
      -- -- -- -- -- -- -- --  -- -- -- -- -- -- -- --
03D0:                      AC  01 00 80 AB 04 00               .......  
```

#### Opcodes

```
  0: 0x03D7 [0xAC] EventEntity->StatusEvent = 0*
  1: 0x03DB [0xAB] EventEntity->Render.Flags0 |= 0x40000 // Set bit 18
  2: 0x03DD [0x00] END_REQSTACK()
```

### Event 65535.62

#### Metadata

| Field        | Value    |
|--------------|----------|
| Entrypoint   | 0x03DE   |
| Data Size    | 16 bytes |
| Instructions | 2        |

```
      00 01 02 03 04 05 06 07  08 09 0A 0B 0C 0D 0E 0F
      -- -- -- -- -- -- -- --  -- -- -- -- -- -- -- --
03D0:                                            66 71                fq
03E0: 80 F8 FF FF 7F F8 FF FF  7F 74 6C 6B 30 00        .........tlk0.  
```

#### Opcodes

```
  0: 0x03DE [0x66] LOAD_EXT_SCHEDULER_MAIN: Load scheduler "tlk0" with entities [EventEntity, EventEntity], work=209*
  1: 0x03ED [0x00] END_REQSTACK()
```

### Event 65535.63

#### Metadata

| Field        | Value    |
|--------------|----------|
| Entrypoint   | 0x03EE   |
| Data Size    | 14 bytes |
| Instructions | 2        |

```
      00 01 02 03 04 05 06 07  08 09 0A 0B 0C 0D 0E 0F
      -- -- -- -- -- -- -- --  -- -- -- -- -- -- -- --
03E0:                                            53 F8                S.
03F0: FF FF 7F F8 FF FF 7F 74  6C 6B 30 00              .......tlk0.    
```

#### Opcodes

```
  0: 0x03EE [0x53] WAIT_SCHEDULER_TASK: Wait for scheduler "tlk0" with entities [EventEntity, EventEntity]
  1: 0x03FB [0x00] END_REQSTACK()
```

### Event 65535.64

#### Metadata

| Field        | Value    |
|--------------|----------|
| Entrypoint   | 0x03FC   |
| Data Size    | 16 bytes |
| Instructions | 2        |

```
      00 01 02 03 04 05 06 07  08 09 0A 0B 0C 0D 0E 0F
      -- -- -- -- -- -- -- --  -- -- -- -- -- -- -- --
03F0:                                      66 71 80 F8              fq..
0400: FF FF 7F F8 FF FF 7F 74  6C 6B 31 00              .......tlk1.    
```

#### Opcodes

```
  0: 0x03FC [0x66] LOAD_EXT_SCHEDULER_MAIN: Load scheduler "tlk1" with entities [EventEntity, EventEntity], work=209*
  1: 0x040B [0x00] END_REQSTACK()
```

### Event 65535.65

#### Metadata

| Field        | Value    |
|--------------|----------|
| Entrypoint   | 0x040C   |
| Data Size    | 14 bytes |
| Instructions | 2        |

```
      00 01 02 03 04 05 06 07  08 09 0A 0B 0C 0D 0E 0F
      -- -- -- -- -- -- -- --  -- -- -- -- -- -- -- --
0400:                                      53 F8 FF FF              S...
0410: 7F F8 FF FF 7F 74 6C 6B  31 00                    .....tlk1.      
```

#### Opcodes

```
  0: 0x040C [0x53] WAIT_SCHEDULER_TASK: Wait for scheduler "tlk1" with entities [EventEntity, EventEntity]
  1: 0x0419 [0x00] END_REQSTACK()
```

### Event 65535.66

#### Metadata

| Field        | Value    |
|--------------|----------|
| Entrypoint   | 0x041A   |
| Data Size    | 16 bytes |
| Instructions | 2        |

```
      00 01 02 03 04 05 06 07  08 09 0A 0B 0C 0D 0E 0F
      -- -- -- -- -- -- -- --  -- -- -- -- -- -- -- --
0410:                                66 51 80 F8 FF FF            fQ....
0420: 7F F8 FF FF 7F 73 68 61  30 00                    .....sha0.      
```

#### Opcodes

```
  0: 0x041A [0x66] LOAD_EXT_SCHEDULER_MAIN: Load scheduler "sha0" with entities [EventEntity, EventEntity], work=69*
  1: 0x0429 [0x00] END_REQSTACK()
```

### Event 65535.67

#### Metadata

| Field        | Value    |
|--------------|----------|
| Entrypoint   | 0x042A   |
| Data Size    | 14 bytes |
| Instructions | 2        |

```
      00 01 02 03 04 05 06 07  08 09 0A 0B 0C 0D 0E 0F
      -- -- -- -- -- -- -- --  -- -- -- -- -- -- -- --
0420:                                53 F8 FF FF 7F F8            S.....
0430: FF FF 7F 73 68 61 30 00                           ...sha0.        
```

#### Opcodes

```
  0: 0x042A [0x53] WAIT_SCHEDULER_TASK: Wait for scheduler "sha0" with entities [EventEntity, EventEntity]
  1: 0x0437 [0x00] END_REQSTACK()
```

### Event 65535.68

#### Metadata

| Field        | Value    |
|--------------|----------|
| Entrypoint   | 0x0438   |
| Data Size    | 16 bytes |
| Instructions | 2        |

```
      00 01 02 03 04 05 06 07  08 09 0A 0B 0C 0D 0E 0F
      -- -- -- -- -- -- -- --  -- -- -- -- -- -- -- --
0430:                          66 51 80 F8 FF FF 7F F8          fQ......
0440: FF FF 7F 73 68 61 31 00                           ...sha1.        
```

#### Opcodes

```
  0: 0x0438 [0x66] LOAD_EXT_SCHEDULER_MAIN: Load scheduler "sha1" with entities [EventEntity, EventEntity], work=69*
  1: 0x0447 [0x00] END_REQSTACK()
```

### Event 65535.69

#### Metadata

| Field        | Value    |
|--------------|----------|
| Entrypoint   | 0x0448   |
| Data Size    | 14 bytes |
| Instructions | 2        |

```
      00 01 02 03 04 05 06 07  08 09 0A 0B 0C 0D 0E 0F
      -- -- -- -- -- -- -- --  -- -- -- -- -- -- -- --
0440:                          53 F8 FF FF 7F F8 FF FF          S.......
0450: 7F 73 68 61 31 00                                 .sha1.          
```

#### Opcodes

```
  0: 0x0448 [0x53] WAIT_SCHEDULER_TASK: Wait for scheduler "sha1" with entities [EventEntity, EventEntity]
  1: 0x0455 [0x00] END_REQSTACK()
```

### Event 65535.70

#### Metadata

| Field        | Value    |
|--------------|----------|
| Entrypoint   | 0x0456   |
| Data Size    | 16 bytes |
| Instructions | 2        |

```
      00 01 02 03 04 05 06 07  08 09 0A 0B 0C 0D 0E 0F
      -- -- -- -- -- -- -- --  -- -- -- -- -- -- -- --
0450:                   66 51  80 F8 FF FF 7F F8 FF FF        fQ........
0460: 7F 73 69 72 30 00                                 .sir0.          
```

#### Opcodes

```
  0: 0x0456 [0x66] LOAD_EXT_SCHEDULER_MAIN: Load scheduler "sir0" with entities [EventEntity, EventEntity], work=69*
  1: 0x0465 [0x00] END_REQSTACK()
```

### Event 65535.71

#### Metadata

| Field        | Value    |
|--------------|----------|
| Entrypoint   | 0x0466   |
| Data Size    | 14 bytes |
| Instructions | 2        |

```
      00 01 02 03 04 05 06 07  08 09 0A 0B 0C 0D 0E 0F
      -- -- -- -- -- -- -- --  -- -- -- -- -- -- -- --
0460:                   53 F8  FF FF 7F F8 FF FF 7F 73        S........s
0470: 69 72 30 00                                       ir0.            
```

#### Opcodes

```
  0: 0x0466 [0x53] WAIT_SCHEDULER_TASK: Wait for scheduler "sir0" with entities [EventEntity, EventEntity]
  1: 0x0473 [0x00] END_REQSTACK()
```

### Event 65535.72

#### Metadata

| Field        | Value    |
|--------------|----------|
| Entrypoint   | 0x0474   |
| Data Size    | 16 bytes |
| Instructions | 2        |

```
      00 01 02 03 04 05 06 07  08 09 0A 0B 0C 0D 0E 0F
      -- -- -- -- -- -- -- --  -- -- -- -- -- -- -- --
0470:             66 51 80 F8  FF FF 7F F8 FF FF 7F 73      fQ.........s
0480: 69 72 31 00                                       ir1.            
```

#### Opcodes

```
  0: 0x0474 [0x66] LOAD_EXT_SCHEDULER_MAIN: Load scheduler "sir1" with entities [EventEntity, EventEntity], work=69*
  1: 0x0483 [0x00] END_REQSTACK()
```

### Event 65535.73

#### Metadata

| Field        | Value    |
|--------------|----------|
| Entrypoint   | 0x0484   |
| Data Size    | 14 bytes |
| Instructions | 2        |

```
      00 01 02 03 04 05 06 07  08 09 0A 0B 0C 0D 0E 0F
      -- -- -- -- -- -- -- --  -- -- -- -- -- -- -- --
0480:             53 F8 FF FF  7F F8 FF FF 7F 73 69 72      S........sir
0490: 31 00                                             1.              
```

#### Opcodes

```
  0: 0x0484 [0x53] WAIT_SCHEDULER_TASK: Wait for scheduler "sir1" with entities [EventEntity, EventEntity]
  1: 0x0491 [0x00] END_REQSTACK()
```

### Event 12

#### Metadata

| Field        | Value   |
|--------------|---------|
| Entrypoint   | 0x0492  |
| Data Size    | 7 bytes |
| Instructions | 2       |

```
      00 01 02 03 04 05 06 07  08 09 0A 0B 0C 0D 0E 0F
      -- -- -- -- -- -- -- --  -- -- -- -- -- -- -- --
0490:       92 01 F8 FF FF 7F  00                         .......       
```

#### Opcodes

```
  0: 0x0492 [0x92] EventEntity->Render.Flags3 ^= 0x01
  1: 0x0498 [0x00] END_REQSTACK()
```

### Event 65535.74

#### Metadata

| Field        | Value    |
|--------------|----------|
| Entrypoint   | 0x0499   |
| Data Size    | 15 bytes |
| Instructions | 5        |

```
      00 01 02 03 04 05 06 07  08 09 0A 0B 0C 0D 0E 0F
      -- -- -- -- -- -- -- --  -- -- -- -- -- -- -- --
0490:                             32 4A 80 1F 00 72 80           2J...r.
04A0: 73 80 12 80 1F 01 6F 00                           s.....o.        
```

#### Opcodes

```
  0: 0x0499 [0x32] ExtData[1]->MainSpeed = 13* * 0.1
  1: 0x049C [0x1F] MOVE_ENTITY: EventEntity moves to X=-471.678*, Z=28.970*, Y=121.999*
  2: 0x04A4 [0x1F] MOVE_ENTITY: Update entity position (mode=1)
  3: 0x04A6 [0x6F] WAIT_FRAME_DELAY: Yield until WaitTime reaches zero
  4: 0x04A7 [0x00] END_REQSTACK()
```

### Event 65535.75

#### Metadata

| Field        | Value    |
|--------------|----------|
| Entrypoint   | 0x04A8   |
| Data Size    | 15 bytes |
| Instructions | 5        |

```
      00 01 02 03 04 05 06 07  08 09 0A 0B 0C 0D 0E 0F
      -- -- -- -- -- -- -- --  -- -- -- -- -- -- -- --
04A0:                          32 4A 80 1F 00 74 80 75          2J...t.u
04B0: 80 12 80 1F 01 6F 00                              .....o.         
```

#### Opcodes

```
  0: 0x04A8 [0x32] ExtData[1]->MainSpeed = 13* * 0.1
  1: 0x04AB [0x1F] MOVE_ENTITY: EventEntity moves to X=-472.950*, Z=31.471*, Y=121.999*
  2: 0x04B3 [0x1F] MOVE_ENTITY: Update entity position (mode=1)
  3: 0x04B5 [0x6F] WAIT_FRAME_DELAY: Yield until WaitTime reaches zero
  4: 0x04B6 [0x00] END_REQSTACK()
```

### Event 65535.76

#### Metadata

| Field        | Value    |
|--------------|----------|
| Entrypoint   | 0x04B7   |
| Data Size    | 15 bytes |
| Instructions | 5        |

```
      00 01 02 03 04 05 06 07  08 09 0A 0B 0C 0D 0E 0F
      -- -- -- -- -- -- -- --  -- -- -- -- -- -- -- --
04B0:                      32  4A 80 1F 00 76 80 77 80         2J...v.w.
04C0: 3D 80 1F 01 6F 00                                 =...o.          
```

#### Opcodes

```
  0: 0x04B7 [0x32] ExtData[1]->MainSpeed = 13* * 0.1
  1: 0x04BA [0x1F] MOVE_ENTITY: EventEntity moves to X=-465.658*, Z=11.173*, Y=122.000*
  2: 0x04C2 [0x1F] MOVE_ENTITY: Update entity position (mode=1)
  3: 0x04C4 [0x6F] WAIT_FRAME_DELAY: Yield until WaitTime reaches zero
  4: 0x04C5 [0x00] END_REQSTACK()
```
