# 0x7FFFFFF0 - Zone Events

## Common Data

| Field            | Value                     |
|------------------|---------------------------|
| Zone             | Mine Shaft #2716 (ID: 13) |
| Block Size       | 26164 bytes               |
| Total Events     | 47                        |
| References Count | 626                       |

## List of Events

| Event ID                   | Entrypoint   |   Size |   Instructions |
|----------------------------|--------------|--------|----------------|
| [65535](#event-65535)      | 0x0000       |      1 |              1 |
| [65534](#event-65534)      | 0x0001       |      1 |              1 |
| [32000](#event-32000)      | 0x0002       |   2170 |            427 |
| [32002](#event-32002)      | 0x087C       |    494 |             83 |
| [32001](#event-32001)      | 0x0A6A       |   1033 |            179 |
| [32003](#event-32003)      | 0x0E73       |    435 |             77 |
| [32004](#event-32004)      | 0x1026       |  18205 |           2204 |
| [65535.1](#event-655351)   | 0x5743       |     10 |              2 |
| [65535.2](#event-655352)   | 0x574D       |     10 |              2 |
| [65535.3](#event-655353)   | 0x5757       |     12 |              3 |
| [65535.4](#event-655354)   | 0x5763       |     10 |              2 |
| [65535.5](#event-655355)   | 0x576D       |     10 |              2 |
| [65535.6](#event-655356)   | 0x5777       |     25 |              6 |
| [65535.7](#event-655357)   | 0x5790       |     10 |              2 |
| [65535.8](#event-655358)   | 0x579A       |     25 |              7 |
| [65535.9](#event-655359)   | 0x57B3       |     10 |              2 |
| [65535.10](#event-6553510) | 0x57BD       |     15 |              5 |
| [65535.11](#event-6553511) | 0x57CC       |     10 |              2 |
| [65535.12](#event-6553512) | 0x57D6       |     25 |              7 |
| [65535.13](#event-6553513) | 0x57EF       |     10 |              2 |
| [65535.14](#event-6553514) | 0x57F9       |     10 |              2 |
| [65535.15](#event-6553515) | 0x5803       |     35 |              9 |
| [65535.16](#event-6553516) | 0x5826       |     10 |              2 |
| [65535.17](#event-6553517) | 0x5830       |     10 |              2 |
| [65535.18](#event-6553518) | 0x583A       |     15 |              5 |
| [65535.19](#event-6553519) | 0x5849       |      1 |              1 |
| [65535.20](#event-6553520) | 0x584A       |    149 |             33 |
| [65535.21](#event-6553521) | 0x58DF       |      6 |              2 |
| [65535.22](#event-6553522) | 0x58E5       |      7 |              3 |
| [65535.23](#event-6553523) | 0x58EC       |      7 |              3 |
| [65535.24](#event-6553524) | 0x58F3       |     27 |              5 |
| [65535.25](#event-6553525) | 0x590E       |     42 |              6 |
| [65535.26](#event-6553526) | 0x5938       |     24 |              4 |
| [65535.27](#event-6553527) | 0x5950       |     24 |              4 |
| [65535.28](#event-6553528) | 0x5968       |     22 |              8 |
| [65535.29](#event-6553529) | 0x597E       |     22 |              8 |
| [65535.30](#event-6553530) | 0x5994       |     15 |              5 |
| [65535.31](#event-6553531) | 0x59A3       |     15 |              5 |
| [65535.32](#event-6553532) | 0x59B2       |     22 |              8 |
| [65535.33](#event-6553533) | 0x59C8       |     15 |              5 |
| [65535.34](#event-6553534) | 0x59D7       |     25 |              7 |
| [65535.35](#event-6553535) | 0x59F0       |    353 |             41 |
| [65535.36](#event-6553536) | 0x5B51       |      7 |              3 |
| [65535.37](#event-6553537) | 0x5B58       |      7 |              3 |
| [65535.38](#event-6553538) | 0x5B5F       |     15 |              5 |
| [65535.39](#event-6553539) | 0x5B6E       |     15 |              5 |
| [65535.40](#event-6553540) | 0x5B7D       |     32 |              7 |

## DAT References (imed_data)

|   Index | Hex Value   |   Dec Value |
|---------|-------------|-------------|
|       0 | 0x0000      |           0 |
|       1 | 0x000F      |          15 |
|       2 | 0x0010      |          16 |
|       3 | 0x001F      |          31 |
|       4 | 0xFFFFFFFF  |  4294967295 |
|       5 | 0x0001      |           1 |
|       6 | 0x1DB6      |        7606 |
|       7 | 0x1D0A      |        7434 |
|       8 | 0x0005      |           5 |
|       9 | 0x0002      |           2 |
|      10 | 0x0003      |           3 |
|      11 | 0x0004      |           4 |
|      12 | 0x1B9C      |        7068 |
|      13 | 0x00FF      |         255 |
|      14 | 0x00C8      |         200 |
|      15 | 0x0013      |          19 |
|      16 | 0x0008      |           8 |
|      17 | 0x0009      |           9 |
|      18 | 0x000B      |          11 |
|      19 | 0x1BA7      |        7079 |
|      20 | 0x1BA8      |        7080 |
|      21 | 0x1BA9      |        7081 |
|      22 | 0x1BAA      |        7082 |
|      23 | 0x1BCE      |        7118 |
|      24 | 0x0006      |           6 |
|      25 | 0x0012      |          18 |
|      26 | 0x0007      |           7 |
|      27 | 0x000A      |          10 |
|      28 | 0x000C      |          12 |
|      29 | 0x000D      |          13 |
|      30 | 0x000E      |          14 |
|      31 | 0x0011      |          17 |
|      32 | 0x0014      |          20 |
|      33 | 0x0015      |          21 |
|      34 | 0x0016      |          22 |
|      35 | 0x0017      |          23 |
|      36 | 0x0018      |          24 |
|      37 | 0x0019      |          25 |
|      38 | 0x001A      |          26 |
|      39 | 0x001B      |          27 |
|      40 | 0x001C      |          28 |
|      41 | 0x001D      |          29 |
|      42 | 0x001E      |          30 |
|      43 | 0x1D03      |        7427 |
|      44 | 0x1D08      |        7432 |
|      45 | 0x1D07      |        7431 |
|      46 | 0x003C      |          60 |
|      47 | 0x1DB4      |        7604 |
|      48 | 0x1DB3      |        7603 |
|      49 | 0x0064      |         100 |
|      50 | 0x1CEF      |        7407 |
|      51 | 0x00DC      |         220 |
|      52 | 0x1B9F      |        7071 |
|      53 | 0x00C9      |         201 |
|      54 | 0x1DB7      |        7607 |
|      55 | 0x1DB8      |        7608 |
|      56 | 0x1DB9      |        7609 |
|      57 | 0x00B4      |         180 |
|      58 | 0xFFF6C42B  |  4294362155 |
|      59 | 0x752B9     |      479929 |
|      60 | 0xFFFFA767  |  4294944615 |
|      61 | 0x03E0      |         992 |
|      62 | 0xFFFBFE43  |  4294704707 |
|      63 | 0x5C401     |      377857 |
|      64 | 0xFFFDE79F  |  4294829983 |
|      65 | 0x0D92      |        3474 |
|      66 | 0x47AC      |       18348 |
|      67 | 0x76E1C     |      486940 |
|      68 | 0xFFFC93B2  |  4294742962 |
|      69 | 0x00C2      |         194 |
|      70 | 0x388A9     |      231593 |
|      71 | 0x57E9E     |      360094 |
|      72 | 0xFFFD59FC  |  4294793724 |
|      73 | 0x0726      |        1830 |
|      74 | 0x872C0     |      553664 |
|      75 | 0x7FEA3     |      523939 |
|      76 | 0xFFFF6AC3  |  4294929091 |
|      77 | 0x0A65      |        2661 |
|      78 | 0xFFFEFCB3  |  4294900915 |
|      79 | 0xFFF726C7  |  4294387399 |
|      80 | 0xFFFE2B41  |  4294847297 |
|      81 | 0x0800      |        2048 |
|      82 | 0xFFF2A593  |  4294092179 |
|      83 | 0xFFFF548C  |  4294923404 |
|      84 | 0xFFFF442C  |  4294919212 |
|      85 | 0x0201      |         513 |
|      86 | 0xFFF478D5  |  4294211797 |
|      87 | 0x89AEB     |      563947 |
|      88 | 0xFFFE4A5D  |  4294855261 |
|      89 | 0x0DEF      |        3567 |
|      90 | 0x1E173     |      123251 |
|      91 | 0xB8221     |      754209 |
|      92 | 0xFFFD5FA4  |  4294795172 |
|      93 | 0x01B8      |         440 |
|      94 | 0xFFF81ECC  |  4294450892 |
|      95 | 0xFFF3BE05  |  4294163973 |
|      96 | 0x5E8E      |       24206 |
|      97 | 0x01B5      |         437 |
|      98 | 0x012C      |         300 |
|      99 | 0x0080      |         128 |
|     100 | 0xFFF690A7  |  4294348967 |
|     101 | 0xFFF62CE4  |  4294323428 |
|     102 | 0xFFFF9B33  |  4294941491 |
|     103 | 0x0EB1      |        3761 |
|     104 | 0xFFFAEE7D  |  4294635133 |
|     105 | 0xFFF941C6  |  4294525382 |
|     106 | 0xFFFE8CB1  |  4294872241 |
|     107 | 0x0EB0      |        3760 |
|     108 | 0xFFFFCF50  |  4294954832 |
|     109 | 0xFFF61B47  |  4294318919 |
|     110 | 0xFFFD07BB  |  4294772667 |
|     111 | 0x0EBA      |        3770 |
|     112 | 0x4EF35     |      323381 |
|     113 | 0xFFF93A6F  |  4294523503 |
|     114 | 0xFFFE5868  |  4294858856 |
|     115 | 0x0EA0      |        3744 |
|     116 | 0x92763     |      599907 |
|     117 | 0xFFF5AB97  |  4294290327 |
|     118 | 0xFFFFA837  |  4294944823 |
|     119 | 0x0EB3      |        3763 |
|     120 | 0xFFFEAA8E  |  4294879886 |
|     121 | 0x7A0D9     |      499929 |
|     122 | 0x2BF1F     |      179999 |
|     123 | 0x00A8      |         168 |
|     124 | 0x30D7B     |      200059 |
|     125 | 0xFFFFAA3A  |  4294945338 |
|     126 | 0xFFFFFF06  |  4294967046 |
|     127 | 0x0411      |        1041 |
|     128 | 0x00CA      |         202 |
|     129 | 0x837EC     |      538604 |
|     130 | 0x7A88C     |      501900 |
|     131 | 0xFFFFC98A  |  4294953354 |
|     132 | 0x0CBC      |        3260 |
|     133 | 0x00CB      |         203 |
|     134 | 0x870F5     |      553205 |
|     135 | 0x8FF41     |      589633 |
|     136 | 0xFFFFFFEB  |  4294967275 |
|     137 | 0x0587      |        1415 |
|     138 | 0x00D3      |         211 |
|     139 | 0x8AF88     |      569224 |
|     140 | 0x85E6E     |      548462 |
|     141 | 0x8FE5      |       36837 |
|     142 | 0x02A1      |         673 |
|     143 | 0x0024      |          36 |
|     144 | 0x1CF1      |        7409 |
|     145 | 0x1CF0      |        7408 |
|     146 | 0x1DB2      |        7602 |
|     147 | 0x1CF3      |        7411 |
|     148 | 0x1CF2      |        7410 |
|     149 | 0xFFFF1C56  |  4294909014 |
|     150 | 0xFFF72694  |  4294387348 |
|     151 | 0xFFFE2B40  |  4294847296 |
|     152 | 0x0FFC      |        4092 |
|     153 | 0x00B3      |         179 |
|     154 | 0xFFFF2F3F  |  4294913855 |
|     155 | 0xFFF726F4  |  4294387444 |
|     156 | 0xFFFF42A4  |  4294918820 |
|     157 | 0xFFF726A9  |  4294387369 |
|     158 | 0xFFF7E8A3  |  4294437027 |
|     159 | 0xFFFE7988  |  4294867336 |
|     160 | 0x1D4BF     |      119999 |
|     161 | 0x01A3      |         419 |
|     162 | 0x00DD      |         221 |
|     163 | 0x1DBA      |        7610 |
|     164 | 0x1DBB      |        7611 |
|     165 | 0x1DBC      |        7612 |
|     166 | 0x1DBD      |        7613 |
|     167 | 0x1DBE      |        7614 |
|     168 | 0x1DBF      |        7615 |
|     169 | 0x1DC0      |        7616 |
|     170 | 0x002D      |          45 |
|     171 | 0x1DC1      |        7617 |
|     172 | 0x1DC2      |        7618 |
|     173 | 0x1DC3      |        7619 |
|     174 | 0x1DC4      |        7620 |
|     175 | 0x1DC5      |        7621 |
|     176 | 0x0045      |          69 |
|     177 | 0x1DC6      |        7622 |
|     178 | 0x1DC7      |        7623 |
|     179 | 0x1DC8      |        7624 |
|     180 | 0x1DC9      |        7625 |
|     181 | 0x1DCA      |        7626 |
|     182 | 0x1DCB      |        7627 |
|     183 | 0x1DCC      |        7628 |
|     184 | 0x1DCD      |        7629 |
|     185 | 0x1DCE      |        7630 |
|     186 | 0x0155      |         341 |
|     187 | 0x1DCF      |        7631 |
|     188 | 0x0150      |         336 |
|     189 | 0x1DD0      |        7632 |
|     190 | 0x1DD1      |        7633 |
|     191 | 0x01B9      |         441 |
|     192 | 0x01AF      |         431 |
|     193 | 0x0078      |         120 |
|     194 | 0x0096      |         150 |
|     195 | 0x1DD2      |        7634 |
|     196 | 0xFFF8FBF3  |  4294507507 |
|     197 | 0x692F      |       26927 |
|     198 | 0x1DC8F     |      121999 |
|     199 | 0x0BF8      |        3064 |
|     200 | 0x0079      |         121 |
|     201 | 0x009C      |         156 |
|     202 | 0xFFF8FB88  |  4294507400 |
|     203 | 0x71A8      |       29096 |
|     204 | 0x7CFC      |       31996 |
|     205 | 0x00D7      |         215 |
|     206 | 0x1ED5      |        7893 |
|     207 | 0x1F0E      |        7950 |
|     208 | 0x005A      |          90 |
|     209 | 0x00D8      |         216 |
|     210 | 0x1ED6      |        7894 |
|     211 | 0x1ED7      |        7895 |
|     212 | 0x1ED8      |        7896 |
|     213 | 0x1ED9      |        7897 |
|     214 | 0x1EDA      |        7898 |
|     215 | 0x1EDC      |        7900 |
|     216 | 0x1EDB      |        7899 |
|     217 | 0x0093      |         147 |
|     218 | 0xFFF91F48  |  4294516552 |
|     219 | 0x83C7      |       33735 |
|     220 | 0x0688      |        1672 |
|     221 | 0xFFF93247  |  4294521415 |
|     222 | 0x51E3      |       20963 |
|     223 | 0x0766      |        1894 |
|     224 | 0xFFF8FB29  |  4294507305 |
|     225 | 0x9D56      |       40278 |
|     226 | 0x1D39F     |      119711 |
|     227 | 0x0400      |        1024 |
|     228 | 0xFFF8FDFC  |  4294508028 |
|     229 | 0x9C7C      |       40060 |
|     230 | 0x1D396     |      119702 |
|     231 | 0xFFF8C883  |  4294494339 |
|     232 | 0x76E0      |       30432 |
|     233 | 0x0157      |         343 |
|     234 | 0xFFF8CE45  |  4294495813 |
|     235 | 0x8538      |       34104 |
|     236 | 0x01D7      |         471 |
|     237 | 0xFFF934AC  |  4294522028 |
|     238 | 0x3ABC      |       15036 |
|     239 | 0x07D4      |        2004 |
|     240 | 0xFFF8FA98  |  4294507160 |
|     241 | 0x5C39      |       23609 |
|     242 | 0x1DCB0     |      122032 |
|     243 | 0x0354      |         852 |
|     244 | 0xFFF8EB48  |  4294503240 |
|     245 | 0x5FBF      |       24511 |
|     246 | 0x1DCF9     |      122105 |
|     247 | 0x02BE      |         702 |
|     248 | 0xFFF8EDAC  |  4294503852 |
|     249 | 0x56C7      |       22215 |
|     250 | 0x1DD5C     |      122204 |
|     251 | 0x0175      |         373 |
|     252 | 0xFFF90FB8  |  4294512568 |
|     253 | 0x6286      |       25222 |
|     254 | 0x1DCE4     |      122084 |
|     255 | 0x04BB      |        1211 |
|     256 | 0xFFF906CA  |  4294510282 |
|     257 | 0xFFFFFAF1  |  4294966001 |
|     258 | 0x0C3C      |        3132 |
|     259 | 0xFFF8FB3D  |  4294507325 |
|     260 | 0x1AD1      |        6865 |
|     261 | 0x0C4A      |        3146 |
|     262 | 0xFFF9161C  |  4294514204 |
|     263 | 0x7422      |       29730 |
|     264 | 0x0E5E      |        3678 |
|     265 | 0xFFF8EF3D  |  4294504253 |
|     266 | 0x6F33      |       28467 |
|     267 | 0x1DC90     |      122000 |
|     268 | 0x0BDC      |        3036 |
|     269 | 0xFFF8D3CD  |  4294497229 |
|     270 | 0x74D0      |       29904 |
|     271 | 0x09AC      |        2476 |
|     272 | 0xFFF8D49B  |  4294497435 |
|     273 | 0x4EC7      |       20167 |
|     274 | 0x07F4      |        2036 |
|     275 | 0xFFF8D415  |  4294497301 |
|     276 | 0x256B      |        9579 |
|     277 | 0x1DC87     |      121991 |
|     278 | 0x05FE      |        1534 |
|     279 | 0xFFF921D3  |  4294517203 |
|     280 | 0x28D5      |       10453 |
|     281 | 0x01E0      |         480 |
|     282 | 0xFFF8EE92  |  4294504082 |
|     283 | 0xFFFFFAA4  |  4294965924 |
|     284 | 0x0BDD      |        3037 |
|     285 | 0x04EE      |        1262 |
|     286 | 0x0A24      |        2596 |
|     287 | 0x04F2      |        1266 |
|     288 | 0x00E3      |         227 |
|     289 | 0x0C46      |        3142 |
|     290 | 0x0456      |        1110 |
|     291 | 0x00E2      |         226 |
|     292 | 0x02D8      |         728 |
|     293 | 0x033A      |         826 |
|     294 | 0x0383      |         899 |
|     295 | 0x033C      |         828 |
|     296 | 0x03CE      |         974 |
|     297 | 0x00FE      |         254 |
|     298 | 0xFFF938C3  |  4294523075 |
|     299 | 0x8856      |       34902 |
|     300 | 0x1D6C3     |      120515 |
|     301 | 0x066D      |        1645 |
|     302 | 0xFFF92611  |  4294518289 |
|     303 | 0x719E      |       29086 |
|     304 | 0x06C6      |        1734 |
|     305 | 0xFFF8BFCE  |  4294492110 |
|     306 | 0x1249      |        4681 |
|     307 | 0x1D8E7     |      121063 |
|     308 | 0x0E6B      |        3691 |
|     309 | 0xFFF8D033  |  4294496307 |
|     310 | 0x1598      |        5528 |
|     311 | 0x0DFA      |        3578 |
|     312 | 0xFFF8C48C  |  4294493324 |
|     313 | 0x247B      |        9339 |
|     314 | 0x0DE0      |        3552 |
|     315 | 0xFFF93729  |  4294522665 |
|     316 | 0x120F      |        4623 |
|     317 | 0x1D6F2     |      120562 |
|     318 | 0x0A4A      |        2634 |
|     319 | 0xFFF9332C  |  4294521644 |
|     320 | 0x22EC      |        8940 |
|     321 | 0x0A57      |        2647 |
|     322 | 0xFFF925D4  |  4294518228 |
|     323 | 0x15CE      |        5582 |
|     324 | 0x0A4B      |        2635 |
|     325 | 0xFFF8BF16  |  4294491926 |
|     326 | 0x89AC      |       35244 |
|     327 | 0x01F1      |         497 |
|     328 | 0xFFF8F2F5  |  4294505205 |
|     329 | 0x8AD0      |       35536 |
|     330 | 0x1D8B3     |      121011 |
|     331 | 0xFFF8EA02  |  4294502914 |
|     332 | 0x798F      |       31119 |
|     333 | 0xFFF8F8AA  |  4294506666 |
|     334 | 0x73B0      |       29616 |
|     335 | 0x1DC80     |      121984 |
|     336 | 0xFFF8B8A6  |  4294490278 |
|     337 | 0x4FC6      |       20422 |
|     338 | 0x1D82B     |      120875 |
|     339 | 0xFFF8C96A  |  4294494570 |
|     340 | 0x4757      |       18263 |
|     341 | 0xFFF8CA8A  |  4294494858 |
|     342 | 0x56C9      |       22217 |
|     343 | 0x1DC81     |      121985 |
|     344 | 0xFFF8F50F  |  4294505743 |
|     345 | 0x4D1C      |       19740 |
|     346 | 0x0C85      |        3205 |
|     347 | 0xFFF900BA  |  4294508730 |
|     348 | 0x4C06      |       19462 |
|     349 | 0x0AAA      |        2730 |
|     350 | 0xFFF8FA3E  |  4294507070 |
|     351 | 0x2E3F      |       11839 |
|     352 | 0x0113      |         275 |
|     353 | 0x007F      |         127 |
|     354 | 0x0386      |         902 |
|     355 | 0x021C      |         540 |
|     356 | 0x0023      |          35 |
|     357 | 0x1F5C      |        8028 |
|     358 | 0x0086      |         134 |
|     359 | 0x1F5D      |        8029 |
|     360 | 0x0866      |        2150 |
|     361 | 0x1F5E      |        8030 |
|     362 | 0x1F5F      |        8031 |
|     363 | 0xFFFE6DEC  |  4294864364 |
|     364 | 0x79E9B     |      499355 |
|     365 | 0x07E6      |        2022 |
|     366 | 0xFFFE846B  |  4294870123 |
|     367 | 0x7A346     |      500550 |
|     368 | 0x07F7      |        2039 |
|     369 | 0x1F0F      |        7951 |
|     370 | 0x1F60      |        8032 |
|     371 | 0x1F61      |        8033 |
|     372 | 0x1F62      |        8034 |
|     373 | 0x1F63      |        8035 |
|     374 | 0x1F64      |        8036 |
|     375 | 0x1F65      |        8037 |
|     376 | 0x1F66      |        8038 |
|     377 | 0x1F67      |        8039 |
|     378 | 0x1F68      |        8040 |
|     379 | 0x1F69      |        8041 |
|     380 | 0x1F6A      |        8042 |
|     381 | 0x1F6B      |        8043 |
|     382 | 0x1F6C      |        8044 |
|     383 | 0x1F6D      |        8045 |
|     384 | 0x1F6E      |        8046 |
|     385 | 0x1F6F      |        8047 |
|     386 | 0x1F70      |        8048 |
|     387 | 0x1F71      |        8049 |
|     388 | 0x1F72      |        8050 |
|     389 | 0x1F73      |        8051 |
|     390 | 0x1F74      |        8052 |
|     391 | 0x1F75      |        8053 |
|     392 | 0x1F76      |        8054 |
|     393 | 0x1F77      |        8055 |
|     394 | 0x1F78      |        8056 |
|     395 | 0x1F79      |        8057 |
|     396 | 0x00F0      |         240 |
|     397 | 0x01EA      |         490 |
|     398 | 0x1DD3      |        7635 |
|     399 | 0x1DD4      |        7636 |
|     400 | 0x1DD5      |        7637 |
|     401 | 0x1DD6      |        7638 |
|     402 | 0x0033      |          51 |
|     403 | 0x004B      |          75 |
|     404 | 0x01A0      |         416 |
|     405 | 0x1DD7      |        7639 |
|     406 | 0x0151      |         337 |
|     407 | 0x1DD8      |        7640 |
|     408 | 0x1DD9      |        7641 |
|     409 | 0x1DDA      |        7642 |
|     410 | 0x1DDB      |        7643 |
|     411 | 0x01BA      |         442 |
|     412 | 0x01B0      |         432 |
|     413 | 0x1DDC      |        7644 |
|     414 | 0x1DDD      |        7645 |
|     415 | 0x1DDE      |        7646 |
|     416 | 0x1DDF      |        7647 |
|     417 | 0x1DE0      |        7648 |
|     418 | 0x1DE1      |        7649 |
|     419 | 0x1DE2      |        7650 |
|     420 | 0x1DE3      |        7651 |
|     421 | 0x1DE4      |        7652 |
|     422 | 0x1DE5      |        7653 |
|     423 | 0x1DE6      |        7654 |
|     424 | 0x1DE7      |        7655 |
|     425 | 0x1DE9      |        7657 |
|     426 | 0x1DEA      |        7658 |
|     427 | 0x1DEB      |        7659 |
|     428 | 0x1DEC      |        7660 |
|     429 | 0x1DED      |        7661 |
|     430 | 0x1DEE      |        7662 |
|     431 | 0x0154      |         340 |
|     432 | 0x1DEF      |        7663 |
|     433 | 0x1DF0      |        7664 |
|     434 | 0x1DF1      |        7665 |
|     435 | 0x1DF2      |        7666 |
|     436 | 0x1DF3      |        7667 |
|     437 | 0x1DF4      |        7668 |
|     438 | 0x1DF5      |        7669 |
|     439 | 0x1DF6      |        7670 |
|     440 | 0x1DF7      |        7671 |
|     441 | 0x1DF8      |        7672 |
|     442 | 0x1DF9      |        7673 |
|     443 | 0x1DFA      |        7674 |
|     444 | 0x1DFB      |        7675 |
|     445 | 0x1DFC      |        7676 |
|     446 | 0x1DFD      |        7677 |
|     447 | 0x1DFE      |        7678 |
|     448 | 0x1DFF      |        7679 |
|     449 | 0x1E00      |        7680 |
|     450 | 0x1E01      |        7681 |
|     451 | 0x01ED      |         493 |
|     452 | 0x1E02      |        7682 |
|     453 | 0x01A1      |         417 |
|     454 | 0x1E03      |        7683 |
|     455 | 0x1E04      |        7684 |
|     456 | 0x1E05      |        7685 |
|     457 | 0x1E06      |        7686 |
|     458 | 0x1E07      |        7687 |
|     459 | 0x1E08      |        7688 |
|     460 | 0x1E09      |        7689 |
|     461 | 0x1E0A      |        7690 |
|     462 | 0xFFF8FF25  |  4294508325 |
|     463 | 0x4E08      |       19976 |
|     464 | 0x1DCAF     |      122031 |
|     465 | 0x0819      |        2073 |
|     466 | 0x1EDD      |        7901 |
|     467 | 0x1EDE      |        7902 |
|     468 | 0x1EE0      |        7904 |
|     469 | 0x1EDF      |        7903 |
|     470 | 0x1EE1      |        7905 |
|     471 | 0x1EE2      |        7906 |
|     472 | 0x1EE3      |        7907 |
|     473 | 0x1EE4      |        7908 |
|     474 | 0x1EE5      |        7909 |
|     475 | 0x1EE6      |        7910 |
|     476 | 0x1EE7      |        7911 |
|     477 | 0x1EE8      |        7912 |
|     478 | 0x1EEA      |        7914 |
|     479 | 0x1EE9      |        7913 |
|     480 | 0x1EEB      |        7915 |
|     481 | 0x1EEC      |        7916 |
|     482 | 0x1EED      |        7917 |
|     483 | 0x1EEE      |        7918 |
|     484 | 0x1EEF      |        7919 |
|     485 | 0x1EF0      |        7920 |
|     486 | 0x1EF2      |        7922 |
|     487 | 0x1EF1      |        7921 |
|     488 | 0xFFF8FB0D  |  4294507277 |
|     489 | 0x31D3      |       12755 |
|     490 | 0x2BF7      |       11255 |
|     491 | 0x009F      |         159 |
|     492 | 0x1EF3      |        7923 |
|     493 | 0x1EF5      |        7925 |
|     494 | 0x1EF6      |        7926 |
|     495 | 0x1EF4      |        7924 |
|     496 | 0x1EF7      |        7927 |
|     497 | 0x1EF8      |        7928 |
|     498 | 0x1EF9      |        7929 |
|     499 | 0x1EFA      |        7930 |
|     500 | 0x1EFB      |        7931 |
|     501 | 0x1EFC      |        7932 |
|     502 | 0x1EFD      |        7933 |
|     503 | 0x01EC      |         492 |
|     504 | 0x1F00      |        7936 |
|     505 | 0x1F01      |        7937 |
|     506 | 0x1F02      |        7938 |
|     507 | 0x1F03      |        7939 |
|     508 | 0x1EFE      |        7934 |
|     509 | 0x1EFF      |        7935 |
|     510 | 0x1F04      |        7940 |
|     511 | 0x1F05      |        7941 |
|     512 | 0x1F06      |        7942 |
|     513 | 0x1F07      |        7943 |
|     514 | 0x1F08      |        7944 |
|     515 | 0x1F09      |        7945 |
|     516 | 0x1F0A      |        7946 |
|     517 | 0x1F0B      |        7947 |
|     518 | 0x1F0D      |        7949 |
|     519 | 0x1F0C      |        7948 |
|     520 | 0x1B9D      |        7069 |
|     521 | 0xFFF7DFC4  |  4294434756 |
|     522 | 0xFFFE795C  |  4294867292 |
|     523 | 0x07FA      |        2042 |
|     524 | 0x0028      |          40 |
|     525 | 0xFFF7CCE8  |  4294429928 |
|     526 | 0xFFFE7914  |  4294867220 |
|     527 | 0xFFF7C364  |  4294427492 |
|     528 | 0xFFFE7916  |  4294867222 |
|     529 | 0x1D4B8     |      119992 |
|     530 | 0xFFFF3B91  |  4294917009 |
|     531 | 0xFFFE7949  |  4294867273 |
|     532 | 0x68E72     |      429682 |
|     533 | 0xFFFE794D  |  4294867277 |
|     534 | 0xFFF8EF2A  |  4294504234 |
|     535 | 0xFFFF8608  |  4294936072 |
|     536 | 0x0CC5      |        3269 |
|     537 | 0xFFF8F1C8  |  4294504904 |
|     538 | 0x34C4      |       13508 |
|     539 | 0x1DD18     |      122136 |
|     540 | 0x026B      |         619 |
|     541 | 0xFFF8AF0B  |  4294487819 |
|     542 | 0x90C4      |       37060 |
|     543 | 0x1D8E6     |      121062 |
|     544 | 0x0220      |         544 |
|     545 | 0xFFF8D050  |  4294496336 |
|     546 | 0x68F7      |       26871 |
|     547 | 0x0B5D      |        2909 |
|     548 | 0xFFF8F7B6  |  4294506422 |
|     549 | 0xFFFFE772  |  4294961010 |
|     550 | 0x0C05      |        3077 |
|     551 | 0xFFF8F58E  |  4294505870 |
|     552 | 0xFFFFFB07  |  4294966023 |
|     553 | 0xFFF8ECD9  |  4294503641 |
|     554 | 0x215B      |        8539 |
|     555 | 0x0A2F      |        2607 |
|     556 | 0xFFF8EDC0  |  4294503872 |
|     557 | 0x27E7      |       10215 |
|     558 | 0xFFF8E994  |  4294502804 |
|     559 | 0x2D1C      |       11548 |
|     560 | 0xFFF902CC  |  4294509260 |
|     561 | 0xFFFFAD7C  |  4294946172 |
|     562 | 0x1D4A4     |      119972 |
|     563 | 0x0C02      |        3074 |
|     564 | 0xFFF902CD  |  4294509261 |
|     565 | 0xFFFFF90E  |  4294965518 |
|     566 | 0xFFF90996  |  4294510998 |
|     567 | 0x26DB      |        9947 |
|     568 | 0x0089      |         137 |
|     569 | 0x0026      |          38 |
|     570 | 0xFFF90125  |  4294508837 |
|     571 | 0x2DB6      |       11702 |
|     572 | 0xFFF8E16B  |  4294500715 |
|     573 | 0x32A6      |       12966 |
|     574 | 0xFFF8F271  |  4294505073 |
|     575 | 0x28C7      |       10439 |
|     576 | 0x1DC88     |      121992 |
|     577 | 0x0DEE      |        3566 |
|     578 | 0xFFF8E9CC  |  4294502860 |
|     579 | 0x30EA      |       12522 |
|     580 | 0x0979      |        2425 |
|     581 | 0xFFF8F38D  |  4294505357 |
|     582 | 0x2067      |        8295 |
|     583 | 0xFFF8F7EA  |  4294506474 |
|     584 | 0x037A      |         890 |
|     585 | 0x1D5AE     |      120238 |
|     586 | 0xFFF8FAEC  |  4294507244 |
|     587 | 0xFFFFE435  |  4294960181 |
|     588 | 0x1D4C0     |      120000 |
|     589 | 0xFFF8FADF  |  4294507231 |
|     590 | 0xFFFFE271  |  4294959729 |
|     591 | 0x0C0D      |        3085 |
|     592 | 0xFFFFF030  |  4294963248 |
|     593 | 0x0046      |          70 |
|     594 | 0x008C      |         140 |
|     595 | 0x00D2      |         210 |
|     596 | 0xFFFF3509  |  4294915337 |
|     597 | 0xFFF72498  |  4294386840 |
|     598 | 0xFFFF3382  |  4294914946 |
|     599 | 0xFFF72F4E  |  4294389582 |
|     600 | 0xFFFF5C00  |  4294925312 |
|     601 | 0xFFF72667  |  4294387303 |
|     602 | 0xFFF9032D  |  4294509357 |
|     603 | 0xFFFFEF4F  |  4294963023 |
|     604 | 0xFFF8FA0A  |  4294507018 |
|     605 | 0xFFFFF976  |  4294965622 |
|     606 | 0xFFF8D176  |  4294496630 |
|     607 | 0x572D      |       22317 |
|     608 | 0x1DC78     |      121976 |
|     609 | 0xFFF8C960  |  4294494560 |
|     610 | 0x7BA2      |       31650 |
|     611 | 0xFFF8F6DC  |  4294506204 |
|     612 | 0x17EA      |        6122 |
|     613 | 0x1DBFD     |      121853 |
|     614 | 0x0095      |         149 |
|     615 | 0x00A9      |         169 |
|     616 | 0x00BD      |         189 |
|     617 | 0x00C7      |         199 |
|     618 | 0xFFF8E273  |  4294500979 |
|     619 | 0x4EBF      |       20159 |
|     620 | 0xFFFE5B73  |  4294859635 |
|     621 | 0x7A433     |      500787 |
|     622 | 0x2BF17     |      179991 |
|     623 | 0xFFFE5B7D  |  4294859645 |
|     624 | 0x7A5C6     |      501190 |
|     625 | 0x0228      |         552 |

## String References

- **7068**: Enter the battlefield? [Enter./Decline.]
- **7069**: Leave the battlefield? [Run away./Stay.]
- **7071**: You cannot enter the battlefield at present. Please wait a little longer.
- **7079**: You are cleared to enter the battlefield, but you cannot while party members are engaged in combat.
- **7080**: You are cleared to enter the battlefield, but you cannot while party members are engaged in combat.
- **7081**: You are cleared to enter the battlefield, but you cannot while party members are engaged in combat.
- **7082**: You are cleared to enter the battlefield, but you cannot while party members are engaged in combat.
- **7118**: You do not meet the requirements to enter the battlefield. Access is denied.
- **7407**: Skip the event? [Yes./No.]
- **7408**: Battlefield clear time: $3 second[/s]!
- **7409**: Battlefield clear time: $3 minute[/s], $2 second[/s]!
- **7410**: The current battlefield clear time record is $3 second[/s].
- **7411**: The current battlefield clear time record is $3 minute[/s] $2 second[/s].
- **7427**: Only $3 [member/members] have clearance to enter the battlefield. This room has reached its maximum capacity.
- **7431**: That record is held by $5 adventurers, including %0!
- **7432**: That record is held by %0!
- **7434**: Select difficulty. [Very difficult. (Level: ???)/Difficult. (Level: ???)/Normal. (Level: $18)/Easy. (Level: $17)/Very Easy. (Level: $16)/Leave.]
- **7602**: You have broken the clear time record for "[A Century of Hardship/Return to the Depths/Bionic Bug/Pulling the Strings/Automaton Assault/The Mobline Comedy/To Movalpolos!]"!
- **7603**: The current battlefield clear time record for "[A Century of Hardship/Return to the Depths/Bionic Bug/Pulling the Strings/Automaton Assault/The Mobline Comedy/To Movalpolos!]" is $3 second[/s].
- **7604**: The current battlefield clear time record for "[A Century of Hardship/Return to the Depths/Bionic Bug/Pulling the Strings/Automaton Assault/The Mobline Comedy/To Movalpolos!]" is $3 minute[/s] $2 second[/s].
- **7606**: Which battlefield will you enter? [None./A Century of Hardship./Return to the Depths./Bionic Bug./Pulling the Strings./Automaton Assault./The Mobline Comedy./To Movalpolos!././././././././././././././././././././././././.]
- **7607**: Level limit of 75. The experience point reward for this battlefield will be reduced for parties of seven or more members.
- **7608**: Level limit of 60. Restricted to one person. Support job abilities inaccessable for this battlefield.
- **7609**: Level limit of 60. The experience point reward for this battlefield will be reduced for parties of four or more members. Restricted to characters of the same race.
- **7950**: Hee, GoblinH [Uhuh./Um...?]
- **7951**: @@
- **8037**: Do you know Gloom Phantom? [Yes, I do./Sorry, I'm afraid not.]
- **8047**: What do you think? [I'm sure they're fine!/They don't look so good.../I have no idea.]

## Events

### Event 65535

#### Metadata

| Field        | Value   |
|--------------|---------|
| Entrypoint   | 0x0000  |
| Data Size    | 1 bytes |
| Instructions | 1       |

```
      00 01 02 03 04 05 06 07  08 09 0A 0B 0C 0D 0E 0F
      -- -- -- -- -- -- -- --  -- -- -- -- -- -- -- --
0000: 00                                                .               
```

#### Opcodes

```
  0: 0x0000 [0x00] END_REQSTACK()
```

### Event 65534

#### Metadata

| Field        | Value   |
|--------------|---------|
| Entrypoint   | 0x0001  |
| Data Size    | 1 bytes |
| Instructions | 1       |

```
      00 01 02 03 04 05 06 07  08 09 0A 0B 0C 0D 0E 0F
      -- -- -- -- -- -- -- --  -- -- -- -- -- -- -- --
0000:    00                                              .              
```

#### Opcodes

```
  0: 0x0001 [0x00] END_REQSTACK()
```

### Event 32000

#### Metadata

| Field        | Value      |
|--------------|------------|
| Entrypoint   | 0x0002     |
| Data Size    | 2170 bytes |
| Instructions | 294        |

```
      00 01 02 03 04 05 06 07  08 09 0A 0B 0C 0D 0E 0F
      -- -- -- -- -- -- -- --  -- -- -- -- -- -- -- --
0000:       20 01 79 00 F0 FF  FF 7F F0 FF FF 7F 03 02     .y...........
0010: 00 02 10 03 03 00 03 10  03 05 00 04 10 03 06 00  ................
0020: 05 10 03 0F 00 06 10 03  10 00 07 10 03 11 00 08  ................
0030: 10 41 00 80 01 80 09 10  07 00 41 02 80 03 80 09  .A........A.....
0040: 10 06 10 06 01 00 02 07  00 00 80 00 45 01 03 08  ............E...
0050: 00 04 80 0F 08 00 06 00  10 08 00 05 80 24 06 80  .............$..
0060: 00 80 08 00 25 02 00 10  00 80 00 73 00 01 2B 08  ....%......s..+.
0070: 01 45 01 03 03 00 00 10  0C 03 00 06 16 00 06 13  .E..............
0080: 00 3E 0F 00 03 00 21 01  06 0F 00 06 08 00 3E 11  .>....!.......>.
0090: 00 03 00 98 00 01 9F 00  3C 08 00 00 80 05 80 3E  ........<......>
00A0: 10 00 03 00 A9 00 01 B0  00 3C 08 00 05 80 05 80  .........<......
00B0: 1A 29 54 24 07 80 08 80  08 00 25 02 00 10 00 80  .)T$......%.....
00C0: 00 CB 00 03 0F 00 05 80  01 1E 01 02 00 10 05 80  ................
00D0: 00 DB 00 03 0F 00 09 80  01 1E 01 02 00 10 09 80  ................
00E0: 00 EB 00 03 0F 00 0A 80  01 1E 01 02 00 10 0A 80  ................
00F0: 00 FB 00 03 0F 00 0B 80  01 1E 01 02 00 10 0B 80  ................
0100: 00 0B 01 03 0F 00 08 80  01 1E 01 02 00 10 08 80  ................
0110: 00 19 01 01 2B 08 01 1E  01 03 0F 00 0A 80 01 45  ....+..........E
0120: 01 06 0F 00 1A 45 08 02  16 00 05 80 00 45 01 24  .....E.......E.$
0130: 0C 80 05 80 00 80 25 02  00 10 05 80 00 45 01 01  ......%......E..
0140: 2B 08 01 45 01 42 03 01  10 0D 80 43 00 43 01 06  +..E.B.....C.C..
0150: 01 10 45 0E 80 F0 FF FF  7F F0 FF FF 7F 66 64 6F  ..E..........fdo
0160: 31 00 80 55 0E 80 F0 FF  FF 7F F0 FF FF 7F 66 64  1..U..........fd
0170: 6F 31 3B F0 FF FF 7F 20  10 21 10 22 10 38 0F 80  o1;.... .!.".8..
0180: 02 07 00 05 80 00 9F 01  03 00 00 05 80 03 04 00  ................
0190: 03 00 03 02 00 00 80 03  1C 00 00 80 01 5F 05 03  ............._..
01A0: 00 00 05 80 02 00 00 0A  80 05 F4 07 02 00 80 05  ................
01B0: 80 00 B9 01 03 00 00 05  00 40 00 80 0A 80 01 10  .........@......
01C0: 00 00 40 0B 80 10 80 01  10 03 00 40 11 80 12 80  ..@........@....
01D0: 01 10 0F 00 06 02 10 06  03 10 06 04 10 1A C6 56  ...............V
01E0: 47 00 09 00 0A 00 0B 00  0C 00 47 01 03 04 00 03  G.........G.....
01F0: 10 03 02 00 04 10 03 1A  00 05 10 03 0D 00 06 10  ................
0200: 03 0E 00 07 10 03 1C 00  09 10 02 02 10 05 80 80  ................
0210: 15 02 01 E1 07 02 02 10  0B 80 80 5F 02 02 00 00  ..........._....
0220: 05 80 80 2C 02 48 13 80  23 01 59 02 02 00 00 09  ...,.H..#.Y.....
0230: 80 80 3B 02 48 14 80 23  01 59 02 02 00 00 0A 80  ..;.H..#.Y......
0240: 80 4A 02 48 15 80 23 01  59 02 02 00 00 0B 80 80  .J.H..#.Y.......
0250: 59 02 48 16 80 23 01 59  02 01 F8 07 01 E1 07 02  Y.H..#.Y........
0260: 02 10 08 80 80 71 02 48  17 80 23 01 F8 07 01 E1  .....q.H..#.....
0270: 07 02 02 10 18 80 80 73  04 02 04 00 00 80 80 89  .......s........
0280: 02 03 05 10 18 80 01 69  04 02 04 00 05 80 80 99  .......i........
0290: 02 03 05 10 18 80 01 69  04 02 04 00 09 80 80 A9  .......i........
02A0: 02 03 05 10 19 80 01 69  04 02 04 00 0A 80 80 B9  .......i........
02B0: 02 03 05 10 05 80 01 69  04 02 04 00 0B 80 80 C9  .......i........
02C0: 02 03 05 10 19 80 01 69  04 02 04 00 08 80 80 D9  .......i........
02D0: 02 03 05 10 18 80 01 69  04 02 04 00 18 80 80 E9  .......i........
02E0: 02 03 05 10 18 80 01 69  04 02 04 00 1A 80 80 F9  .......i........
02F0: 02 03 05 10 00 80 01 69  04 02 04 00 10 80 80 09  .......i........
0300: 03 03 05 10 00 80 01 69  04 02 04 00 11 80 80 19  .......i........
0310: 03 03 05 10 00 80 01 69  04 02 04 00 1B 80 80 29  .......i.......)
0320: 03 03 05 10 00 80 01 69  04 02 04 00 12 80 80 39  .......i.......9
0330: 03 03 05 10 00 80 01 69  04 02 04 00 1C 80 80 49  .......i.......I
0340: 03 03 05 10 00 80 01 69  04 02 04 00 1D 80 80 59  .......i.......Y
0350: 03 03 05 10 00 80 01 69  04 02 04 00 1E 80 80 69  .......i.......i
0360: 03 03 05 10 00 80 01 69  04 02 04 00 01 80 80 79  .......i.......y
0370: 03 03 05 10 00 80 01 69  04 02 04 00 02 80 80 89  .......i........
0380: 03 03 05 10 00 80 01 69  04 02 04 00 1F 80 80 99  .......i........
0390: 03 03 05 10 00 80 01 69  04 02 04 00 19 80 80 A9  .......i........
03A0: 03 03 05 10 00 80 01 69  04 02 04 00 0F 80 80 B9  .......i........
03B0: 03 03 05 10 00 80 01 69  04 02 04 00 20 80 80 C9  .......i.... ...
03C0: 03 03 05 10 00 80 01 69  04 02 04 00 21 80 80 D9  .......i....!...
03D0: 03 03 05 10 00 80 01 69  04 02 04 00 22 80 80 E9  .......i...."...
03E0: 03 03 05 10 00 80 01 69  04 02 04 00 23 80 80 F9  .......i....#...
03F0: 03 03 05 10 00 80 01 69  04 02 04 00 24 80 80 09  .......i....$...
0400: 04 03 05 10 00 80 01 69  04 02 04 00 25 80 80 19  .......i....%...
0410: 04 03 05 10 00 80 01 69  04 02 04 00 26 80 80 29  .......i....&..)
0420: 04 03 05 10 00 80 01 69  04 02 04 00 27 80 80 39  .......i....'..9
0430: 04 03 05 10 00 80 01 69  04 02 04 00 28 80 80 49  .......i....(..I
0440: 04 03 05 10 00 80 01 69  04 02 04 00 29 80 80 59  .......i....)..Y
0450: 04 03 05 10 00 80 01 69  04 02 04 00 2A 80 80 69  .......i....*..i
0460: 04 03 05 10 00 80 01 69  04 48 2B 80 23 01 F8 07  .......i.H+.#...
0470: 01 E1 07 02 02 10 0A 80  80 81 04 01 9F 01 01 E1  ................
0480: 07 02 02 10 09 80 80 E1  07 02 0D 00 00 80 01 15  ................
0490: 05 02 13 00 00 80 01 C9  04 03 05 10 1A 00 02 1A  ................
04A0: 00 00 80 02 A6 04 02 0D  00 05 80 05 B5 04 48 2C  ..............H,
04B0: 80 23 01 C6 04 03 06 10  0D 00 0C 06 10 03 07 10  .#..............
04C0: 0D 00 48 2D 80 23 01 15  05 03 05 10 1A 00 02 1A  ..H-.#..........
04D0: 00 00 80 02 F5 04 02 1A  00 2E 80 04 F1 04 3F 04  ..............?.
04E0: 10 05 10 2E 80 15 05 10  2E 80 48 2F 80 23 01 F5  ..........H/.#..
04F0: 04 48 30 80 23 02 0D 00  05 80 05 04 05 48 2C 80  .H0.#........H,.
0500: 23 01 15 05 03 06 10 0D  00 0C 06 10 03 07 10 0D  #...............
0510: 00 48 2D 80 23 03 03 00  04 00 03 14 00 31 80 07  .H-.#........1..
0520: 14 00 03 00 02 02 00 14  00 00 34 05 03 02 00 05  ..........4.....
0530: 80 01 39 05 03 02 00 00  80 02 02 00 00 80 00 5F  ..9............_
0540: 05 02 0E 00 05 80 00 5F  05 24 32 80 05 80 00 80  ......._.$2.....
0550: 25 02 00 10 00 80 00 5F  05 05 02 00 01 5F 05 06  %......_....._..
0560: 15 00 02 04 00 00 80 80  72 05 03 15 00 05 80 01  ........r.......
0570: 57 07 02 04 00 05 80 80  82 05 03 15 00 05 80 01  W...............
0580: 57 07 02 04 00 09 80 80  92 05 03 15 00 00 80 01  W...............
0590: 57 07 02 04 00 0A 80 80  A2 05 03 15 00 00 80 01  W...............
05A0: 57 07 02 04 00 0B 80 80  B2 05 03 15 00 00 80 01  W...............
05B0: 57 07 02 04 00 08 80 80  C2 05 03 15 00 00 80 01  W...............
05C0: 57 07 02 04 00 18 80 80  D2 05 03 15 00 00 80 01  W...............
05D0: 57 07 02 04 00 1A 80 80  E2 05 03 15 00 00 80 01  W...............
05E0: 57 07 02 04 00 10 80 80  F2 05 03 15 00 00 80 01  W...............
05F0: 57 07 02 04 00 11 80 80  02 06 03 15 00 00 80 01  W...............
0600: 57 07 02 04 00 1B 80 80  12 06 03 15 00 00 80 01  W...............
0610: 57 07 02 04 00 12 80 80  22 06 03 15 00 00 80 01  W.......".......
0620: 57 07 02 04 00 1C 80 80  32 06 03 15 00 00 80 01  W.......2.......
0630: 57 07 02 04 00 1D 80 80  42 06 03 15 00 00 80 01  W.......B.......
0640: 57 07 02 04 00 1E 80 80  52 06 03 15 00 00 80 01  W.......R.......
0650: 57 07 02 04 00 01 80 80  62 06 03 15 00 00 80 01  W.......b.......
0660: 57 07 02 04 00 02 80 80  72 06 03 15 00 00 80 01  W.......r.......
0670: 57 07 02 04 00 1F 80 80  82 06 03 15 00 00 80 01  W...............
0680: 57 07 02 04 00 19 80 80  92 06 03 15 00 00 80 01  W...............
0690: 57 07 02 04 00 0F 80 80  A2 06 03 15 00 00 80 01  W...............
06A0: 57 07 02 04 00 20 80 80  B2 06 03 15 00 00 80 01  W.... ..........
06B0: 57 07 02 04 00 21 80 80  C2 06 03 15 00 00 80 01  W....!..........
06C0: 57 07 02 04 00 22 80 80  D2 06 03 15 00 00 80 01  W...."..........
06D0: 57 07 02 04 00 23 80 80  E2 06 03 15 00 00 80 01  W....#..........
06E0: 57 07 02 04 00 24 80 80  F2 06 03 15 00 00 80 01  W....$..........
06F0: 57 07 02 04 00 25 80 80  02 07 03 15 00 00 80 01  W....%..........
0700: 57 07 02 04 00 26 80 80  12 07 03 15 00 00 80 01  W....&..........
0710: 57 07 02 04 00 27 80 80  22 07 03 15 00 00 80 01  W....'..".......
0720: 57 07 02 04 00 28 80 80  32 07 03 15 00 00 80 01  W....(..2.......
0730: 57 07 02 04 00 29 80 80  42 07 03 15 00 00 80 01  W....)..B.......
0740: 57 07 02 04 00 2A 80 80  52 07 03 15 00 00 80 01  W....*..R.......
0750: 57 07 03 15 00 00 80 02  02 00 05 80 00 72 07 5C  W............r.\
0760: 00 33 80 5C 01 33 80 5C  02 33 80 5C 03 33 80 01  .3.\.3.\.3.\.3..
0770: 8A 07 02 15 00 00 80 00  8A 07 5C 00 33 80 5C 01  ..........\.3.\.
0780: 33 80 5C 02 33 80 5C 03  33 80 02 02 00 00 80 00  3.\.3.\.3.......
0790: 98 07 1A 3F 10 01 D1 07  6C F0 FF FF 7F 00 80 05  ...?....l.......
07A0: 80 62 09 80 F0 FF FF 7F  F0 FF FF 7F 6D 61 69 6E  .b..........main
07B0: 00 80 45 0E 80 F0 FF FF  7F F0 FF FF 7F 6F 76 6C  ..E..........ovl
07C0: 31 00 80 46 02 12 00 02  12 00 00 80 00 D1 07 46  1..F...........F
07D0: 00 03 01 10 31 80 07 01  10 03 00 01 F8 07 01 E1  ....1...........
07E0: 07 0B 00 00 02 00 80 05  80 00 F1 07 03 00 00 0B  ................
07F0: 80 01 A4 01 48 34 80 23  45 35 80 F0 FF FF 7F F0  ....H4.#E5......
0800: FF FF 7F 77 68 69 31 00  80 45 0E 80 F0 FF FF 7F  ...whi1..E......
0810: F0 FF FF 7F 62 6C 6F 66  00 80 45 0E 80 F0 FF FF  ....blof..E.....
0820: 7F F0 FF FF 7F 66 64 69  30 00 80 02 07 00 05 80  .....fdi0.......
0830: 00 43 08 5C 00 00 80 5C  01 00 80 5C 02 33 80 5C  .C.\...\...\.3.\
0840: 03 33 80 21 00 02 03 00  09 80 80 57 08 48 36 80  .3.!.......W.H6.
0850: 23 05 16 00 01 7B 08 02  03 00 0A 80 80 69 08 48  #....{.......i.H
0860: 37 80 23 05 16 00 01 7B  08 02 03 00 0B 80 80 7B  7.#....{.......{
0870: 08 48 38 80 23 05 16 00  01 7B 08 1B              .H8.#....{..    
```

#### Opcodes

```
  0: 0x0002 [0x20] SET_CLI_EVENT_UC_FLAG: Lock player control
  1: 0x0004 [0x79] LocalPlayer looks at LocalPlayer (Basic look)
  2: 0x000E [0x03] ExtData[1]->WorkLocal[2] = Work_Zone[2]
  3: 0x0013 [0x03] ExtData[1]->WorkLocal[3] = Work_Zone[3]
  4: 0x0018 [0x03] ExtData[1]->WorkLocal[5] = Work_Zone[4]
  5: 0x001D [0x03] ExtData[1]->WorkLocal[6] = Work_Zone[5]
  6: 0x0022 [0x03] ExtData[1]->WorkLocal[15] = Work_Zone[6]
  7: 0x0027 [0x03] ExtData[1]->WorkLocal[16] = Work_Zone[7]
  8: 0x002C [0x03] ExtData[1]->WorkLocal[17] = Work_Zone[8]
  9: 0x0031 [0x41] ExtData[1]->WorkLocal[7] = Work_Zone[9] (bits 0*-15*)
 10: 0x003A [0x41] Work_Zone[6] = Work_Zone[9] (bits 16*-31*)
 11: 0x0043 [0x06] ExtData[1]->WorkLocal[1] = 0
 12: 0x0046 [0x02] IF !(ExtData[1]->WorkLocal[7] == 0*) GOTO 0x0145
 13: 0x004E [0x03] ExtData[1]->WorkLocal[8] = 4294967295*
 14: 0x0053 [0x0F] ExtData[1]->WorkLocal[8] ^= ExtData[1]->WorkLocal[6]
 15: 0x0058 [0x10] ExtData[1]->WorkLocal[8] <<= 1*
 16: 0x005D [0x24] CREATE_DIALOG(message_id=7606*, default_option=0*, option_flags=ExtData[1]->WorkLocal[8])
    → "Which battlefield will you enter? [None./A Century of Hardship./Return to the Depths./Bionic Bug./Pulling the Strings./Automaton Assault./The Mobline Comedy./To Movalpolos!././././././././././././././././././././././././.]"
 17: 0x0064 [0x25] WAIT_DIALOG_SELECT()
 18: 0x0065 [0x02] IF !(Work_Zone[0] == 0*) GOTO 0x0073
 19: 0x006D [0x01] GOTO 0x082B

SUBROUTINE_009F:
 20: 0x009F [0x3E] IF !(ExtData[1]->WorkLocal[16] bit ExtData[1]->WorkLocal[3]) GOTO 0x00A9
 21: 0x00A6 [0x01] GOTO 0x00B0
 22: 0x00A9 [0x3C] SET_BIT_FLAG_CONDITIONAL(target_work_offset=ExtData[1]->WorkLocal[8], bit_index_work_offset=1*, condition_work_offset=1*)

SUBROUTINE_00B0:
 23: 0x00B0 [0x1A] CALL_SUBROUTINE(address=0x5429)
 24: 0x00B3 [0x24] CREATE_DIALOG(message_id=7434*, default_option=5*, option_flags=ExtData[1]->WorkLocal[8])
    → "Select difficulty. [Very difficult. (Level: ???)/Difficult. (Level: ???)/Normal. (Level: $18)/Easy. (Level: $17)/Very Easy. (Level: $16)/Leave.]"
 25: 0x00BA [0x25] WAIT_DIALOG_SELECT()
 26: 0x00BB [0x02] IF !(Work_Zone[0] == 0*) GOTO 0x00CB
 27: 0x00C3 [0x03] ExtData[1]->WorkLocal[15] = 1*
 28: 0x00C8 [0x01] GOTO 0x011E
 29: 0x00CB [0x02] IF !(Work_Zone[0] == 1*) GOTO 0x00DB
 30: 0x00D3 [0x03] ExtData[1]->WorkLocal[15] = 2*
 31: 0x00D8 [0x01] GOTO 0x011E
 32: 0x00DB [0x02] IF !(Work_Zone[0] == 2*) GOTO 0x00EB
 33: 0x00E3 [0x03] ExtData[1]->WorkLocal[15] = 3*
 34: 0x00E8 [0x01] GOTO 0x011E
 35: 0x00EB [0x02] IF !(Work_Zone[0] == 3*) GOTO 0x00FB
 36: 0x00F3 [0x03] ExtData[1]->WorkLocal[15] = 4*
 37: 0x00F8 [0x01] GOTO 0x011E
 38: 0x00FB [0x02] IF !(Work_Zone[0] == 4*) GOTO 0x010B
 39: 0x0103 [0x03] ExtData[1]->WorkLocal[15] = 5*
 40: 0x0108 [0x01] GOTO 0x011E
 41: 0x010B [0x02] IF !(Work_Zone[0] == 5*) GOTO 0x0119
 42: 0x0113 [0x01] GOTO 0x082B

SUBROUTINE_011E:
 43: 0x011E [0x01] GOTO 0x0145
 44: 0x0121 [0x06] ExtData[1]->WorkLocal[15] = 0
 45: 0x0124 [0x1A] CALL_SUBROUTINE(address=0x0845)
 46: 0x0127 [0x02] IF !(ExtData[1]->WorkLocal[22] == 1*) GOTO 0x0145
 47: 0x012F [0x24] CREATE_DIALOG(message_id=7068*, default_option=1*, option_flags=0*)
    → "Enter the battlefield? [Enter./Decline.]"
 48: 0x0136 [0x25] WAIT_DIALOG_SELECT()
 49: 0x0137 [0x02] IF !(Work_Zone[0] == 1*) GOTO 0x0145
 50: 0x013F [0x01] GOTO 0x082B

SUBROUTINE_0145:
 51: 0x0145 [0x42] SET_CLI_EVENT_CANCEL_DATA()
 52: 0x0146 [0x03] Work_Zone[1] = 255*
 53: 0x014B [0x43] SEND_EVENT_UPDATE: Send pending tag to server (packet 0x005B)
 54: 0x014D [0x43] SEND_EVENT_UPDATE: Check pending flag (skip if not pending)
 55: 0x014F [0x06] Work_Zone[1] = 0
 56: 0x0152 [0x45] LOAD_SCHEDULED_TASK: Load scheduler "fdo1" with entities [LocalPlayer, LocalPlayer], work=[200*, 0*]
 57: 0x0163 [0x55] WAIT_LOAD_SCHEDULER: Wait for scheduler "fdo1" with entities [LocalPlayer, LocalPlayer], work=200*
 58: 0x0172 [0x3B] GET_ENTITY_POSITION(entity=LocalPlayer, x_destination=Work_Zone[32], y_destination=Work_Zone[33], z_destination=Work_Zone[34])
 59: 0x017D [0x38] SET_CLIENT_EVENT_MODE(mode=19*)
 60: 0x0180 [0x02] IF !(ExtData[1]->WorkLocal[7] == 1*) GOTO 0x019F
 61: 0x0188 [0x03] ExtData[1]->WorkLocal[0] = 1*
 62: 0x018D [0x03] ExtData[1]->WorkLocal[4] = ExtData[1]->WorkLocal[3]
 63: 0x0192 [0x03] ExtData[1]->WorkLocal[2] = 0*
 64: 0x0197 [0x03] ExtData[1]->WorkLocal[28] = 0*
 65: 0x019C [0x01] GOTO 0x055F

SUBROUTINE_019F:
 66: 0x019F [0x03] ExtData[1]->WorkLocal[0] = 1*

SUBROUTINE_01A4:
 67: 0x01A4 [0x02] IF !(ExtData[1]->WorkLocal[0] > 3*) GOTO 0x07F4
 68: 0x01AC [0x02] IF !(0* == 1*) GOTO 0x01B9
 69: 0x01B4 [0x03] ExtData[1]->WorkLocal[0] = ExtData[1]->WorkLocal[5]
 70: 0x01B9 [0x40] SET_BIT_WORK_RANGE(start_bit=0*, end_bit=3*, target=Work_Zone[1], source=ExtData[1]->WorkLocal[0])
 71: 0x01C2 [0x40] SET_BIT_WORK_RANGE(start_bit=4*, end_bit=8*, target=Work_Zone[1], source=ExtData[1]->WorkLocal[3])
 72: 0x01CB [0x40] SET_BIT_WORK_RANGE(start_bit=9*, end_bit=11*, target=Work_Zone[1], source=ExtData[1]->WorkLocal[15])
 73: 0x01D4 [0x06] Work_Zone[2] = 0
 74: 0x01D7 [0x06] Work_Zone[3] = 0
 75: 0x01DA [0x06] Work_Zone[4] = 0
 76: 0x01DD [0x1A] CALL_SUBROUTINE(address=0x56C6)
 77: 0x01E0 [0x47] UPDATE_PLAYER_POS(ExtData[1]->WorkLocal[9], ExtData[1]->WorkLocal[10], ExtData[1]->WorkLocal[11], yaw=ExtData[1]->WorkLocal[12])
 78: 0x01EA [0x47] WAIT_PLAYER_POS_UPDATE
 79: 0x01EC [0x03] ExtData[1]->WorkLocal[4] = Work_Zone[3]
 80: 0x01F1 [0x03] ExtData[1]->WorkLocal[2] = Work_Zone[4]
 81: 0x01F6 [0x03] ExtData[1]->WorkLocal[26] = Work_Zone[5]
 82: 0x01FB [0x03] ExtData[1]->WorkLocal[13] = Work_Zone[6]
 83: 0x0200 [0x03] ExtData[1]->WorkLocal[14] = Work_Zone[7]
 84: 0x0205 [0x03] ExtData[1]->WorkLocal[28] = Work_Zone[9]
 85: 0x020A [0x02] IF !(Work_Zone[2] == 1*) GOTO 0x0215
 86: 0x0212 [0x01] GOTO 0x07E1
 87: 0x0215 [0x02] IF !(Work_Zone[2] == 4*) GOTO 0x025F
 88: 0x021D [0x02] IF !(ExtData[1]->WorkLocal[0] == 1*) GOTO 0x022C
 89: 0x0225 [0x48] [System] [7079*]:
    → "You are cleared to enter the battlefield, but you cannot while party members are engaged in combat."
 90: 0x0228 [0x23] WAIT_FOR_DIALOG_INTERACTION
 91: 0x0229 [0x01] GOTO 0x0259
 92: 0x022C [0x02] IF !(ExtData[1]->WorkLocal[0] == 2*) GOTO 0x023B
 93: 0x0234 [0x48] [System] [7080*]:
    → "You are cleared to enter the battlefield, but you cannot while party members are engaged in combat."
 94: 0x0237 [0x23] WAIT_FOR_DIALOG_INTERACTION
 95: 0x0238 [0x01] GOTO 0x0259
 96: 0x023B [0x02] IF !(ExtData[1]->WorkLocal[0] == 3*) GOTO 0x024A
 97: 0x0243 [0x48] [System] [7081*]:
    → "You are cleared to enter the battlefield, but you cannot while party members are engaged in combat."
 98: 0x0246 [0x23] WAIT_FOR_DIALOG_INTERACTION
 99: 0x0247 [0x01] GOTO 0x0259
100: 0x024A [0x02] IF !(ExtData[1]->WorkLocal[0] == 4*) GOTO 0x0259
101: 0x0252 [0x48] [System] [7082*]:
    → "You are cleared to enter the battlefield, but you cannot while party members are engaged in combat."
102: 0x0255 [0x23] WAIT_FOR_DIALOG_INTERACTION
103: 0x0256 [0x01] GOTO 0x0259

SUBROUTINE_0259:
104: 0x0259 [0x01] GOTO 0x07F8

SUBROUTINE_0469:
105: 0x0469 [0x48] [System] [7427*]:
    → "Only $3 [member/members] have clearance to enter the battlefield. This room has reached its maximum capacity."
106: 0x046C [0x23] WAIT_FOR_DIALOG_INTERACTION
107: 0x046D [0x01] GOTO 0x07F8

SUBROUTINE_04C6:
108: 0x04C6 [0x01] GOTO 0x0515
109: 0x04C9 [0x03] Work_Zone[5] = ExtData[1]->WorkLocal[26]
110: 0x04CE [0x02] IF !(ExtData[1]->WorkLocal[26] <= 0*) GOTO 0x04F5
111: 0x04D6 [0x02] IF !(ExtData[1]->WorkLocal[26] < 60*) GOTO 0x04F1
112: 0x04DE [0x3F] Work_Zone[4] = Work_Zone[5] % 60*
113: 0x04E5 [0x15] Work_Zone[5] /= 60*
114: 0x04EA [0x48] [System] [7604*]:
    → "The current battlefield clear time record for "[A Century of Hardship/Return to the Depths/Bionic Bug/Pulling the Strings/Automaton Assault/The Mobline Comedy/To Movalpolos!]" is $3 minute[/s] $2 second[/s]."
115: 0x04ED [0x23] WAIT_FOR_DIALOG_INTERACTION
116: 0x04EE [0x01] GOTO 0x04F5
117: 0x04F1 [0x48] [System] [7603*]:
    → "The current battlefield clear time record for "[A Century of Hardship/Return to the Depths/Bionic Bug/Pulling the Strings/Automaton Assault/The Mobline Comedy/To Movalpolos!]" is $3 second[/s]."
118: 0x04F4 [0x23] WAIT_FOR_DIALOG_INTERACTION

SUBROUTINE_04F5:
119: 0x04F5 [0x02] IF !(ExtData[1]->WorkLocal[13] > 1*) GOTO 0x0504
120: 0x04FD [0x48] [System] [7432*]:
    → "That record is held by %0!"
121: 0x0500 [0x23] WAIT_FOR_DIALOG_INTERACTION
122: 0x0501 [0x01] GOTO 0x0515
123: 0x0504 [0x03] Work_Zone[6] = ExtData[1]->WorkLocal[13]
124: 0x0509 [0x0C] Work_Zone[6]--
125: 0x050C [0x03] Work_Zone[7] = ExtData[1]->WorkLocal[13]
126: 0x0511 [0x48] [System] [7431*]:
    → "That record is held by $5 adventurers, including %0!"
127: 0x0514 [0x23] WAIT_FOR_DIALOG_INTERACTION

SUBROUTINE_0515:
128: 0x0515 [0x03] ExtData[1]->WorkLocal[3] = ExtData[1]->WorkLocal[4]
129: 0x051A [0x03] ExtData[1]->WorkLocal[20] = 100*
130: 0x051F [0x07] ExtData[1]->WorkLocal[20] += ExtData[1]->WorkLocal[3]
131: 0x0524 [0x02] IF !(ExtData[1]->WorkLocal[2] == ExtData[1]->WorkLocal[20]) GOTO 0x0534
132: 0x052C [0x03] ExtData[1]->WorkLocal[2] = 1*
133: 0x0531 [0x01] GOTO 0x0539
134: 0x0534 [0x03] ExtData[1]->WorkLocal[2] = 0*

SUBROUTINE_0539:
135: 0x0539 [0x02] IF !(ExtData[1]->WorkLocal[2] == 0*) GOTO 0x055F
136: 0x0541 [0x02] IF !(ExtData[1]->WorkLocal[14] == 1*) GOTO 0x055F
137: 0x0549 [0x24] CREATE_DIALOG(message_id=7407*, default_option=1*, option_flags=0*)
    → "Skip the event? [Yes./No.]"
138: 0x0550 [0x25] WAIT_DIALOG_SELECT()
139: 0x0551 [0x02] IF !(Work_Zone[0] == 0*) GOTO 0x055F
140: 0x0559 [0x05] ExtData[1]->WorkLocal[2] = 1
141: 0x055C [0x01] GOTO 0x055F

SUBROUTINE_055F:
142: 0x055F [0x06] ExtData[1]->WorkLocal[21] = 0
143: 0x0562 [0x02] IF !(ExtData[1]->WorkLocal[4] == 0*) GOTO 0x0572
144: 0x056A [0x03] ExtData[1]->WorkLocal[21] = 1*
145: 0x056F [0x01] GOTO 0x0757
146: 0x0572 [0x02] IF !(ExtData[1]->WorkLocal[4] == 1*) GOTO 0x0582
147: 0x057A [0x03] ExtData[1]->WorkLocal[21] = 1*
148: 0x057F [0x01] GOTO 0x0757
149: 0x0582 [0x02] IF !(ExtData[1]->WorkLocal[4] == 2*) GOTO 0x0592
150: 0x058A [0x03] ExtData[1]->WorkLocal[21] = 0*
151: 0x058F [0x01] GOTO 0x0757
152: 0x0592 [0x02] IF !(ExtData[1]->WorkLocal[4] == 3*) GOTO 0x05A2
153: 0x059A [0x03] ExtData[1]->WorkLocal[21] = 0*
154: 0x059F [0x01] GOTO 0x0757
155: 0x05A2 [0x02] IF !(ExtData[1]->WorkLocal[4] == 4*) GOTO 0x05B2
156: 0x05AA [0x03] ExtData[1]->WorkLocal[21] = 0*
157: 0x05AF [0x01] GOTO 0x0757
158: 0x05B2 [0x02] IF !(ExtData[1]->WorkLocal[4] == 5*) GOTO 0x05C2
159: 0x05BA [0x03] ExtData[1]->WorkLocal[21] = 0*
160: 0x05BF [0x01] GOTO 0x0757
161: 0x05C2 [0x02] IF !(ExtData[1]->WorkLocal[4] == 6*) GOTO 0x05D2
162: 0x05CA [0x03] ExtData[1]->WorkLocal[21] = 0*
163: 0x05CF [0x01] GOTO 0x0757
164: 0x05D2 [0x02] IF !(ExtData[1]->WorkLocal[4] == 7*) GOTO 0x05E2
165: 0x05DA [0x03] ExtData[1]->WorkLocal[21] = 0*
166: 0x05DF [0x01] GOTO 0x0757
167: 0x05E2 [0x02] IF !(ExtData[1]->WorkLocal[4] == 8*) GOTO 0x05F2
168: 0x05EA [0x03] ExtData[1]->WorkLocal[21] = 0*
169: 0x05EF [0x01] GOTO 0x0757
170: 0x05F2 [0x02] IF !(ExtData[1]->WorkLocal[4] == 9*) GOTO 0x0602
171: 0x05FA [0x03] ExtData[1]->WorkLocal[21] = 0*
172: 0x05FF [0x01] GOTO 0x0757
173: 0x0602 [0x02] IF !(ExtData[1]->WorkLocal[4] == 10*) GOTO 0x0612
174: 0x060A [0x03] ExtData[1]->WorkLocal[21] = 0*
175: 0x060F [0x01] GOTO 0x0757
176: 0x0612 [0x02] IF !(ExtData[1]->WorkLocal[4] == 11*) GOTO 0x0622
177: 0x061A [0x03] ExtData[1]->WorkLocal[21] = 0*
178: 0x061F [0x01] GOTO 0x0757
179: 0x0622 [0x02] IF !(ExtData[1]->WorkLocal[4] == 12*) GOTO 0x0632
180: 0x062A [0x03] ExtData[1]->WorkLocal[21] = 0*
181: 0x062F [0x01] GOTO 0x0757
182: 0x0632 [0x02] IF !(ExtData[1]->WorkLocal[4] == 13*) GOTO 0x0642
183: 0x063A [0x03] ExtData[1]->WorkLocal[21] = 0*
184: 0x063F [0x01] GOTO 0x0757
185: 0x0642 [0x02] IF !(ExtData[1]->WorkLocal[4] == 14*) GOTO 0x0652
186: 0x064A [0x03] ExtData[1]->WorkLocal[21] = 0*
187: 0x064F [0x01] GOTO 0x0757
188: 0x0652 [0x02] IF !(ExtData[1]->WorkLocal[4] == 15*) GOTO 0x0662
189: 0x065A [0x03] ExtData[1]->WorkLocal[21] = 0*
190: 0x065F [0x01] GOTO 0x0757
191: 0x0662 [0x02] IF !(ExtData[1]->WorkLocal[4] == 16*) GOTO 0x0672
192: 0x066A [0x03] ExtData[1]->WorkLocal[21] = 0*
193: 0x066F [0x01] GOTO 0x0757
194: 0x0672 [0x02] IF !(ExtData[1]->WorkLocal[4] == 17*) GOTO 0x0682
195: 0x067A [0x03] ExtData[1]->WorkLocal[21] = 0*
196: 0x067F [0x01] GOTO 0x0757
197: 0x0682 [0x02] IF !(ExtData[1]->WorkLocal[4] == 18*) GOTO 0x0692
198: 0x068A [0x03] ExtData[1]->WorkLocal[21] = 0*
199: 0x068F [0x01] GOTO 0x0757
200: 0x0692 [0x02] IF !(ExtData[1]->WorkLocal[4] == 19*) GOTO 0x06A2
201: 0x069A [0x03] ExtData[1]->WorkLocal[21] = 0*
202: 0x069F [0x01] GOTO 0x0757
203: 0x06A2 [0x02] IF !(ExtData[1]->WorkLocal[4] == 20*) GOTO 0x06B2
204: 0x06AA [0x03] ExtData[1]->WorkLocal[21] = 0*
205: 0x06AF [0x01] GOTO 0x0757
206: 0x06B2 [0x02] IF !(ExtData[1]->WorkLocal[4] == 21*) GOTO 0x06C2
207: 0x06BA [0x03] ExtData[1]->WorkLocal[21] = 0*
208: 0x06BF [0x01] GOTO 0x0757
209: 0x06C2 [0x02] IF !(ExtData[1]->WorkLocal[4] == 22*) GOTO 0x06D2
210: 0x06CA [0x03] ExtData[1]->WorkLocal[21] = 0*
211: 0x06CF [0x01] GOTO 0x0757
212: 0x06D2 [0x02] IF !(ExtData[1]->WorkLocal[4] == 23*) GOTO 0x06E2
213: 0x06DA [0x03] ExtData[1]->WorkLocal[21] = 0*
214: 0x06DF [0x01] GOTO 0x0757
215: 0x06E2 [0x02] IF !(ExtData[1]->WorkLocal[4] == 24*) GOTO 0x06F2
216: 0x06EA [0x03] ExtData[1]->WorkLocal[21] = 0*
217: 0x06EF [0x01] GOTO 0x0757
218: 0x06F2 [0x02] IF !(ExtData[1]->WorkLocal[4] == 25*) GOTO 0x0702
219: 0x06FA [0x03] ExtData[1]->WorkLocal[21] = 0*
220: 0x06FF [0x01] GOTO 0x0757
221: 0x0702 [0x02] IF !(ExtData[1]->WorkLocal[4] == 26*) GOTO 0x0712
222: 0x070A [0x03] ExtData[1]->WorkLocal[21] = 0*
223: 0x070F [0x01] GOTO 0x0757
224: 0x0712 [0x02] IF !(ExtData[1]->WorkLocal[4] == 27*) GOTO 0x0722
225: 0x071A [0x03] ExtData[1]->WorkLocal[21] = 0*
226: 0x071F [0x01] GOTO 0x0757
227: 0x0722 [0x02] IF !(ExtData[1]->WorkLocal[4] == 28*) GOTO 0x0732
228: 0x072A [0x03] ExtData[1]->WorkLocal[21] = 0*
229: 0x072F [0x01] GOTO 0x0757
230: 0x0732 [0x02] IF !(ExtData[1]->WorkLocal[4] == 29*) GOTO 0x0742
231: 0x073A [0x03] ExtData[1]->WorkLocal[21] = 0*
232: 0x073F [0x01] GOTO 0x0757
233: 0x0742 [0x02] IF !(ExtData[1]->WorkLocal[4] == 30*) GOTO 0x0752
234: 0x074A [0x03] ExtData[1]->WorkLocal[21] = 0*
235: 0x074F [0x01] GOTO 0x0757
236: 0x0752 [0x03] ExtData[1]->WorkLocal[21] = 0*

SUBROUTINE_0757:
237: 0x0757 [0x02] IF !(ExtData[1]->WorkLocal[2] == 1*) GOTO 0x0772
238: 0x075F [0x5C] MUSIC_CONTROL: Set Idle (Day) music to song 220*
239: 0x0763 [0x5C] MUSIC_CONTROL: Set Idle (Night) music to song 220*
240: 0x0767 [0x5C] MUSIC_CONTROL: Set Combat (Solo) music to song 220*
241: 0x076B [0x5C] MUSIC_CONTROL: Set Combat (Party) music to song 220*
242: 0x076F [0x01] GOTO 0x078A
243: 0x0772 [0x02] IF !(ExtData[1]->WorkLocal[21] == 0*) GOTO 0x078A
244: 0x077A [0x5C] MUSIC_CONTROL: Set Idle (Day) music to song 220*
245: 0x077E [0x5C] MUSIC_CONTROL: Set Idle (Night) music to song 220*
246: 0x0782 [0x5C] MUSIC_CONTROL: Set Combat (Solo) music to song 220*
247: 0x0786 [0x5C] MUSIC_CONTROL: Set Combat (Party) music to song 220*

SUBROUTINE_078A:
248: 0x078A [0x02] IF !(ExtData[1]->WorkLocal[2] == 0*) GOTO 0x0798
249: 0x0792 [0x1A] CALL_SUBROUTINE(address=0x103F)
250: 0x0795 [0x01] GOTO 0x07D1
251: 0x0798 [0x6C] FADE_ENTITY_COLOR(entity_id=LocalPlayer, end_alpha=0*, fade_time=1*)
252: 0x07A1 [0x62] LOAD_EVENT_SCHEDULER: Load scheduler "main" with entities [LocalPlayer, LocalPlayer], work=[2*, 0*]
253: 0x07B2 [0x45] LOAD_SCHEDULED_TASK: Load scheduler "ovl1" with entities [LocalPlayer, LocalPlayer], work=[200*, 0*]
254: 0x07C3 [0x46] CAMERA_CONTROL: Query status
255: 0x07C5 [0x12] 0x0200 = rand()
256: 0x07C8 [0x12] ExtData[1]->WorkLocal[0] = rand()
257: 0x07CB [0x80] LOAD_WAIT(entity=Unknown NPC (ID: 1174917376/0x4607D100))
258: 0x07D0 [0x00] END_REQSTACK()

SUBROUTINE_07D1:
259: 0x07D1 [0x03] Work_Zone[1] = 100*
260: 0x07D6 [0x07] Work_Zone[1] += ExtData[1]->WorkLocal[3]
261: 0x07DB [0x01] GOTO 0x07F8

SUBROUTINE_07E1:
262: 0x07E1 [0x0B] ExtData[1]->WorkLocal[0]++
263: 0x07E4 [0x02] IF !(0* == 1*) GOTO 0x07F1
264: 0x07EC [0x03] ExtData[1]->WorkLocal[0] = 4*
265: 0x07F1 [0x01] GOTO 0x01A4
266: 0x07F4 [0x48] [System] [7071*]:
    → "You cannot enter the battlefield at present. Please wait a little longer."
267: 0x07F7 [0x23] WAIT_FOR_DIALOG_INTERACTION

SUBROUTINE_07F8:
268: 0x07F8 [0x45] LOAD_SCHEDULED_TASK: Load scheduler "whi1" with entities [LocalPlayer, LocalPlayer], work=[201*, 0*]
269: 0x0809 [0x45] LOAD_SCHEDULED_TASK: Load scheduler "blof" with entities [LocalPlayer, LocalPlayer], work=[200*, 0*]
270: 0x081A [0x45] LOAD_SCHEDULED_TASK: Load scheduler "fdi0" with entities [LocalPlayer, LocalPlayer], work=[200*, 0*]

SUBROUTINE_082B:
271: 0x082B [0x02] IF !(ExtData[1]->WorkLocal[7] == 1*) GOTO 0x0843
272: 0x0833 [0x5C] MUSIC_CONTROL: Set Idle (Day) music to song 0*
273: 0x0837 [0x5C] MUSIC_CONTROL: Set Idle (Night) music to song 0*
274: 0x083B [0x5C] MUSIC_CONTROL: Set Combat (Solo) music to song 220*
275: 0x083F [0x5C] MUSIC_CONTROL: Set Combat (Party) music to song 220*
276: 0x0843 [0x21] END_EVENT
277: 0x0844 [0x00] END_REQSTACK()

SUBROUTINE_0845:
278: 0x0845 [0x02] IF !(ExtData[1]->WorkLocal[3] == 2*) GOTO 0x0857
279: 0x084D [0x48] [System] [7607*]:
    → "Level limit of 75. The experience point reward for this battlefield will be reduced for parties of seven or more members."
280: 0x0850 [0x23] WAIT_FOR_DIALOG_INTERACTION
281: 0x0851 [0x05] ExtData[1]->WorkLocal[22] = 1
282: 0x0854 [0x01] GOTO 0x087B
283: 0x0857 [0x02] IF !(ExtData[1]->WorkLocal[3] == 3*) GOTO 0x0869
284: 0x085F [0x48] [System] [7608*]:
    → "Level limit of 60. Restricted to one person. Support job abilities inaccessable for this battlefield."
285: 0x0862 [0x23] WAIT_FOR_DIALOG_INTERACTION
286: 0x0863 [0x05] ExtData[1]->WorkLocal[22] = 1
287: 0x0866 [0x01] GOTO 0x087B
288: 0x0869 [0x02] IF !(ExtData[1]->WorkLocal[3] == 4*) GOTO 0x087B
289: 0x0871 [0x48] [System] [7609*]:
    → "Level limit of 60. The experience point reward for this battlefield will be reduced for parties of four or more members. Restricted to characters of the same race."
290: 0x0874 [0x23] WAIT_FOR_DIALOG_INTERACTION
291: 0x0875 [0x05] ExtData[1]->WorkLocal[22] = 1
292: 0x0878 [0x01] GOTO 0x087B

SUBROUTINE_087B:
293: 0x087B [0x1B] RETURN
```

#### Data or dead code:

```
# Dead code (unreachable instructions):
     0x0070 [0x01] GOTO 0x0145
# Dead code (unreachable instructions):
     0x0116 [0x01] GOTO 0x011E
# Dead code (unreachable instructions):
     0x0142 [0x01] GOTO 0x0145
# Dead code (unreachable instructions):
     0x025C [0x01] GOTO 0x07E1
     0x026E [0x01] GOTO 0x07E1
# Dead code (unreachable instructions):
     0x0470 [0x01] GOTO 0x07E1
     0x047E [0x01] GOTO 0x07E1
# Dead code (unreachable instructions):
     0x07DE [0x01] GOTO 0x07E1
```

### Event 32002

#### Metadata

| Field        | Value     |
|--------------|-----------|
| Entrypoint   | 0x087C    |
| Data Size    | 494 bytes |
| Instructions | 83        |

```
      00 01 02 03 04 05 06 07  08 09 0A 0B 0C 0D 0E 0F
      -- -- -- -- -- -- -- --  -- -- -- -- -- -- -- --
0870:                                      03 05 00 06              ....
0880: 10 03 21 00 07 10 03 20  00 08 10 20 01 42 3B F0  ..!.... ... .B;.
0890: FF FF 7F 20 10 21 10 22  10 3A F0 FF FF 7F 23 10  ... .!.".:....#.
08A0: 45 0E 80 F0 FF FF 7F F0  FF FF 7F 66 64 6F 31 00  E..........fdo1.
08B0: 80 55 0E 80 F0 FF FF 7F  F0 FF FF 7F 66 64 6F 31  .U..........fdo1
08C0: 02 00 80 05 80 00 27 09  02 05 00 05 80 80 DF 08  ......'.........
08D0: 47 00 00 80 00 80 00 80  00 80 47 01 01 24 09 02  G.........G..$..
08E0: 05 00 09 80 80 F6 08 47  00 00 80 00 80 00 80 00  .......G........
08F0: 80 47 01 01 24 09 02 05  00 0A 80 80 0D 09 47 00  .G..$.........G.
0900: 00 80 00 80 00 80 00 80  47 01 01 24 09 02 05 00  ........G..$....
0910: 0B 80 80 24 09 47 00 00  80 00 80 00 80 00 80 47  ...$.G.........G
0920: 01 01 24 09 01 30 0A 02  20 00 39 80 80 B1 09 02  ..$..0.. .9.....
0930: 21 00 00 80 80 46 09 47  00 3A 80 3B 80 3C 80 3D  !....F.G.:.;.<.=
0940: 80 47 01 01 AE 09 02 21  00 05 80 80 5D 09 47 00  .G.....!....].G.
0950: 3E 80 3F 80 40 80 41 80  47 01 01 AE 09 02 21 00  >.?.@.A.G.....!.
0960: 09 80 80 74 09 47 00 42  80 43 80 44 80 45 80 47  ...t.G.B.C.D.E.G
0970: 01 01 AE 09 02 21 00 0A  80 80 8B 09 47 00 46 80  .....!......G.F.
0980: 47 80 48 80 49 80 47 01  01 AE 09 02 21 00 0B 80  G.H.I.G.....!...
0990: 80 A2 09 47 00 4A 80 4B  80 4C 80 4D 80 47 01 01  ...G.J.K.L.M.G..
09A0: AE 09 47 00 4E 80 4F 80  50 80 51 80 47 01 01 30  ..G.N.O.P.Q.G..0
09B0: 0A 02 20 00 18 80 80 24  0A 02 21 00 05 80 80 D0  .. ....$..!.....
09C0: 09 47 00 52 80 53 80 54  80 55 80 47 01 01 21 0A  .G.R.S.T.U.G..!.
09D0: 02 21 00 09 80 80 E7 09  47 00 56 80 57 80 58 80  .!......G.V.W.X.
09E0: 59 80 47 01 01 21 0A 02  21 00 0A 80 80 FE 09 47  Y.G..!..!......G
09F0: 00 5A 80 5B 80 5C 80 5D  80 47 01 01 21 0A 02 21  .Z.[.\.].G..!..!
0A00: 00 0B 80 80 15 0A 47 00  5E 80 5F 80 60 80 61 80  ......G.^._.`.a.
0A10: 47 01 01 21 0A 47 00 4E  80 4F 80 50 80 51 80 47  G..!.G.N.O.P.Q.G
0A20: 01 01 30 0A 47 00 4E 80  4F 80 50 80 51 80 47 01  ..0.G.N.O.P.Q.G.
0A30: 38 0F 80 1A E2 53 45 35  80 F0 FF FF 7F F0 FF FF  8....SE5........
0A40: 7F 77 68 69 31 00 80 45  0E 80 F0 FF FF 7F F0 FF  .whi1..E........
0A50: FF 7F 62 6C 6F 66 00 80  5C 00 00 80 5C 01 00 80  ..blof..\...\...
0A60: 5C 02 33 80 5C 03 33 80  21 00                    \.3.\.3.!.      
```

#### Opcodes

```
  0: 0x087C [0x03] ExtData[1]->WorkLocal[5] = Work_Zone[6]
  1: 0x0881 [0x03] ExtData[1]->WorkLocal[33] = Work_Zone[7]
  2: 0x0886 [0x03] ExtData[1]->WorkLocal[32] = Work_Zone[8]
  3: 0x088B [0x20] SET_CLI_EVENT_UC_FLAG: Lock player control
  4: 0x088D [0x42] SET_CLI_EVENT_CANCEL_DATA()
  5: 0x088E [0x3B] GET_ENTITY_POSITION(entity=LocalPlayer, x_destination=Work_Zone[32], y_destination=Work_Zone[33], z_destination=Work_Zone[34])
  6: 0x0899 [0x3A] CONVERT_YAW_TO_BYTE(entity=LocalPlayer, result_destination=Work_Zone[35])
  7: 0x08A0 [0x45] LOAD_SCHEDULED_TASK: Load scheduler "fdo1" with entities [LocalPlayer, LocalPlayer], work=[200*, 0*]
  8: 0x08B1 [0x55] WAIT_LOAD_SCHEDULER: Wait for scheduler "fdo1" with entities [LocalPlayer, LocalPlayer], work=200*
  9: 0x08C0 [0x02] IF !(0* == 1*) GOTO 0x0927
 10: 0x08C8 [0x02] IF !(ExtData[1]->WorkLocal[5] == 1*) GOTO 0x08DF
 11: 0x08D0 [0x47] UPDATE_PLAYER_POS(0.000*, 0.000*, 0.000*, yaw=0.0°*)
 12: 0x08DA [0x47] WAIT_PLAYER_POS_UPDATE
 13: 0x08DC [0x01] GOTO 0x0924
 14: 0x08DF [0x02] IF !(ExtData[1]->WorkLocal[5] == 2*) GOTO 0x08F6
 15: 0x08E7 [0x47] UPDATE_PLAYER_POS(0.000*, 0.000*, 0.000*, yaw=0.0°*)
 16: 0x08F1 [0x47] WAIT_PLAYER_POS_UPDATE
 17: 0x08F3 [0x01] GOTO 0x0924
 18: 0x08F6 [0x02] IF !(ExtData[1]->WorkLocal[5] == 3*) GOTO 0x090D
 19: 0x08FE [0x47] UPDATE_PLAYER_POS(0.000*, 0.000*, 0.000*, yaw=0.0°*)
 20: 0x0908 [0x47] WAIT_PLAYER_POS_UPDATE
 21: 0x090A [0x01] GOTO 0x0924
 22: 0x090D [0x02] IF !(ExtData[1]->WorkLocal[5] == 4*) GOTO 0x0924
 23: 0x0915 [0x47] UPDATE_PLAYER_POS(0.000*, 0.000*, 0.000*, yaw=0.0°*)
 24: 0x091F [0x47] WAIT_PLAYER_POS_UPDATE
 25: 0x0921 [0x01] GOTO 0x0924

SUBROUTINE_0924:
 26: 0x0924 [0x01] GOTO 0x0A30
 27: 0x0927 [0x02] IF !(ExtData[1]->WorkLocal[32] == 180*) GOTO 0x09B1
 28: 0x092F [0x02] IF !(ExtData[1]->WorkLocal[33] == 0*) GOTO 0x0946
 29: 0x0937 [0x47] UPDATE_PLAYER_POS(-605.141*, 479.929*, -22.681*, yaw=87.2°*)
 30: 0x0941 [0x47] WAIT_PLAYER_POS_UPDATE
 31: 0x0943 [0x01] GOTO 0x09AE
 32: 0x0946 [0x02] IF !(ExtData[1]->WorkLocal[33] == 1*) GOTO 0x095D
 33: 0x094E [0x47] UPDATE_PLAYER_POS(-262.589*, 377.857*, -137.313*, yaw=305.3°*)
 34: 0x0958 [0x47] WAIT_PLAYER_POS_UPDATE
 35: 0x095A [0x01] GOTO 0x09AE
 36: 0x095D [0x02] IF !(ExtData[1]->WorkLocal[33] == 2*) GOTO 0x0974
 37: 0x0965 [0x47] UPDATE_PLAYER_POS(18.348*, 486.940*, -224.334*, yaw=17.1°*)
 38: 0x096F [0x47] WAIT_PLAYER_POS_UPDATE
 39: 0x0971 [0x01] GOTO 0x09AE
 40: 0x0974 [0x02] IF !(ExtData[1]->WorkLocal[33] == 3*) GOTO 0x098B
 41: 0x097C [0x47] UPDATE_PLAYER_POS(231.593*, 360.094*, -173.572*, yaw=160.8°*)
 42: 0x0986 [0x47] WAIT_PLAYER_POS_UPDATE
 43: 0x0988 [0x01] GOTO 0x09AE
 44: 0x098B [0x02] IF !(ExtData[1]->WorkLocal[33] == 4*) GOTO 0x09A2
 45: 0x0993 [0x47] UPDATE_PLAYER_POS(553.664*, 523.939*, -38.205*, yaw=233.9°*)
 46: 0x099D [0x47] WAIT_PLAYER_POS_UPDATE
 47: 0x099F [0x01] GOTO 0x09AE
 48: 0x09A2 [0x47] UPDATE_PLAYER_POS(-66.381*, -579.897*, -119.999*, yaw=180.0°*)
 49: 0x09AC [0x47] WAIT_PLAYER_POS_UPDATE

SUBROUTINE_09AE:
 50: 0x09AE [0x01] GOTO 0x0A30
 51: 0x09B1 [0x02] IF !(ExtData[1]->WorkLocal[32] == 6*) GOTO 0x0A24
 52: 0x09B9 [0x02] IF !(ExtData[1]->WorkLocal[33] == 1*) GOTO 0x09D0
 53: 0x09C1 [0x47] UPDATE_PLAYER_POS(-875.117*, -43.892*, -48.084*, yaw=45.1°*)
 54: 0x09CB [0x47] WAIT_PLAYER_POS_UPDATE
 55: 0x09CD [0x01] GOTO 0x0A21
 56: 0x09D0 [0x02] IF !(ExtData[1]->WorkLocal[33] == 2*) GOTO 0x09E7
 57: 0x09D8 [0x47] UPDATE_PLAYER_POS(-755.499*, 563.947*, -112.035*, yaw=313.5°*)
 58: 0x09E2 [0x47] WAIT_PLAYER_POS_UPDATE
 59: 0x09E4 [0x01] GOTO 0x0A21
 60: 0x09E7 [0x02] IF !(ExtData[1]->WorkLocal[33] == 3*) GOTO 0x09FE
 61: 0x09EF [0x47] UPDATE_PLAYER_POS(123.251*, 754.209*, -172.124*, yaw=38.7°*)
 62: 0x09F9 [0x47] WAIT_PLAYER_POS_UPDATE
 63: 0x09FB [0x01] GOTO 0x0A21
 64: 0x09FE [0x02] IF !(ExtData[1]->WorkLocal[33] == 4*) GOTO 0x0A15
 65: 0x0A06 [0x47] UPDATE_PLAYER_POS(-516.404*, -803.323*, 24.206*, yaw=38.4°*)
 66: 0x0A10 [0x47] WAIT_PLAYER_POS_UPDATE
 67: 0x0A12 [0x01] GOTO 0x0A21
 68: 0x0A15 [0x47] UPDATE_PLAYER_POS(-66.381*, -579.897*, -119.999*, yaw=180.0°*)
 69: 0x0A1F [0x47] WAIT_PLAYER_POS_UPDATE

SUBROUTINE_0A21:
 70: 0x0A21 [0x01] GOTO 0x0A30
 71: 0x0A24 [0x47] UPDATE_PLAYER_POS(-66.381*, -579.897*, -119.999*, yaw=180.0°*)
 72: 0x0A2E [0x47] WAIT_PLAYER_POS_UPDATE

SUBROUTINE_0A30:
 73: 0x0A30 [0x38] SET_CLIENT_EVENT_MODE(mode=19*)
 74: 0x0A33 [0x1A] CALL_SUBROUTINE(address=0x53E2)
 75: 0x0A36 [0x45] LOAD_SCHEDULED_TASK: Load scheduler "whi1" with entities [LocalPlayer, LocalPlayer], work=[201*, 0*]
 76: 0x0A47 [0x45] LOAD_SCHEDULED_TASK: Load scheduler "blof" with entities [LocalPlayer, LocalPlayer], work=[200*, 0*]
 77: 0x0A58 [0x5C] MUSIC_CONTROL: Set Idle (Day) music to song 0*
 78: 0x0A5C [0x5C] MUSIC_CONTROL: Set Idle (Night) music to song 0*
 79: 0x0A60 [0x5C] MUSIC_CONTROL: Set Combat (Solo) music to song 220*
 80: 0x0A64 [0x5C] MUSIC_CONTROL: Set Combat (Party) music to song 220*
 81: 0x0A68 [0x21] END_EVENT
 82: 0x0A69 [0x00] END_REQSTACK()
```

### Event 32001

#### Metadata

| Field        | Value      |
|--------------|------------|
| Entrypoint   | 0x0A6A     |
| Data Size    | 1033 bytes |
| Instructions | 177        |

```
      00 01 02 03 04 05 06 07  08 09 0A 0B 0C 0D 0E 0F
      -- -- -- -- -- -- -- --  -- -- -- -- -- -- -- --
0A60:                                79 00 F0 FF FF 7F            y.....
0A70: F0 FF FF 7F 03 21 00 02  10 03 1A 00 03 10 03 1B  .....!..........
0A80: 00 05 10 03 20 00 06 10  03 19 00 07 10 03 17 00  .... ...........
0A90: 08 10 02 17 00 0A 80 04  9F 0A 03 17 00 00 80 03  ................
0AA0: 1C 00 09 10 20 01 42 3B  F0 FF FF 7F 20 10 21 10  .... .B;.... .!.
0AB0: 22 10 3A F0 FF FF 7F 23  10 02 20 00 39 80 01 C4  ".:....#.. .9...
0AC0: 0A 1C 62 80 45 35 80 F0  FF FF 7F F0 FF FF 7F 77  ..b.E5.........w
0AD0: 68 69 31 00 80 45 0E 80  F0 FF FF 7F F0 FF FF 7F  hi1..E..........
0AE0: 62 6C 6F 66 00 80 45 0E  80 F0 FF FF 7F F0 FF FF  blof..E.........
0AF0: 7F 66 64 6F 31 00 80 55  0E 80 F0 FF FF 7F F0 FF  .fdo1..U........
0B00: FF 7F 66 64 6F 31 6C F0  FF FF 7F 63 80 05 80 06  ..fdo1l....c....
0B10: 01 10 02 17 00 00 80 03  1D 0B 01 6B 0C 02 20 00  ...........k.. .
0B20: 39 80 80 A7 0B 02 21 00  00 80 80 3C 0B 47 00 64  9.....!....<.G.d
0B30: 80 65 80 66 80 67 80 47  01 01 A4 0B 02 21 00 05  .e.f.g.G.....!..
0B40: 80 80 53 0B 47 00 68 80  69 80 6A 80 6B 80 47 01  ..S.G.h.i.j.k.G.
0B50: 01 A4 0B 02 21 00 09 80  80 6A 0B 47 00 6C 80 6D  ....!....j.G.l.m
0B60: 80 6E 80 6F 80 47 01 01  A4 0B 02 21 00 0A 80 80  .n.o.G.....!....
0B70: 81 0B 47 00 70 80 71 80  72 80 73 80 47 01 01 A4  ..G.p.q.r.s.G...
0B80: 0B 02 21 00 0B 80 80 98  0B 47 00 74 80 75 80 76  ..!......G.t.u.v
0B90: 80 77 80 47 01 01 A4 0B  47 00 78 80 79 80 7A 80  .w.G....G.x.y.z.
0BA0: 51 80 47 01 01 6B 0C 02  20 00 7B 80 80 D5 0B 02  Q.G..k.. .{.....
0BB0: 19 00 00 80 80 C6 0B 47  00 78 80 79 80 7A 80 51  .......G.x.y.z.Q
0BC0: 80 47 01 01 D2 0B 47 00  7C 80 7D 80 7E 80 7F 80  .G....G.|.}.~...
0BD0: 47 01 01 6B 0C 02 20 00  80 80 80 03 0C 02 19 00  G..k.. .........
0BE0: 0B 80 80 F4 0B 47 00 81  80 82 80 83 80 84 80 47  .....G.........G
0BF0: 01 01 00 0C 47 00 78 80  79 80 7A 80 51 80 47 01  ....G.x.y.z.Q.G.
0C00: 01 6B 0C 02 20 00 85 80  80 31 0C 02 19 00 0B 80  .k.. ....1......
0C10: 80 22 0C 47 00 86 80 87  80 88 80 89 80 47 01 01  .".G.........G..
0C20: 2E 0C 47 00 78 80 79 80  7A 80 51 80 47 01 01 6B  ..G.x.y.z.Q.G..k
0C30: 0C 02 20 00 8A 80 80 5F  0C 02 19 00 0A 80 80 50  .. ...._.......P
0C40: 0C 47 00 8B 80 8C 80 8D  80 8E 80 47 01 01 5C 0C  .G.........G..\.
0C50: 47 00 78 80 79 80 7A 80  51 80 47 01 01 6B 0C 47  G.x.y.z.Q.G..k.G
0C60: 00 78 80 79 80 7A 80 51  80 47 01 38 0F 80 02 17  .x.y.z.Q.G.8....
0C70: 00 09 80 00 79 0C 01 94  0C 02 17 00 05 80 00 44  ....y..........D
0C80: 0D 1C 01 80 24 32 80 05  80 00 80 25 02 00 10 00  ....$2.....%....
0C90: 80 00 44 0D 02 20 00 39  80 00 00 0D 02 21 00 00  ..D.. .9.....!..
0CA0: 80 80 AE 0C 36 64 80 65  80 66 80 01 FD 0C 02 21  ....6d.e.f.....!
0CB0: 00 05 80 80 C0 0C 36 68  80 69 80 6A 80 01 FD 0C  ......6h.i.j....
0CC0: 02 21 00 09 80 80 D2 0C  36 6C 80 6D 80 6E 80 01  .!......6l.m.n..
0CD0: FD 0C 02 21 00 0A 80 80  E4 0C 36 70 80 71 80 72  ...!......6p.q.r
0CE0: 80 01 FD 0C 02 21 00 0B  80 80 F6 0C 36 74 80 75  .....!......6t.u
0CF0: 80 76 80 01 FD 0C 36 78  80 79 80 7A 80 01 09 0D  .v....6x.y.z....
0D00: 37 78 80 79 80 7A 80 51  80 80 F0 FF FF 7F 62 09  7x.y.z.Q......b.
0D10: 80 F0 FF FF 7F F0 FF FF  7F 6D 61 69 6E 00 80 45  .........main..E
0D20: 0E 80 F0 FF FF 7F F0 FF  FF 7F 66 64 69 32 00 80  ..........fdi2..
0D30: 46 02 12 00 02 12 00 00  80 00 3E 0D 46 00 01 6B  F.........>.F..k
0D40: 0D 01 44 0D 02 17 00 04  80 04 5D 0D 5C 00 33 80  ..D.......].\.3.
0D50: 5C 01 33 80 5C 02 33 80  5C 03 33 80 9A 1A 14 1C  \.3.\.3.\.3.....
0D60: 02 17 00 00 80 03 6B 0D  01 0B 0E 02 20 00 8F 80  ......k..... ...
0D70: 80 76 0D 01 76 0D 02 20  00 1F 80 80 81 0D 01 0B  .v..v.. ........
0D80: 0E 02 20 00 0F 80 80 8C  0D 01 0B 0E 02 20 00 21  .. .......... .!
0D90: 80 80 97 0D 01 0B 0E 02  20 00 23 80 80 A2 0D 01  ........ .#.....
0DA0: 0B 0E 03 05 10 1B 00 02  05 10 00 80 02 0B 0E 02  ................
0DB0: 05 10 2E 80 04 CA 0D 3F  04 10 05 10 2E 80 15 05  .......?........
0DC0: 10 2E 80 48 90 80 23 01  CE 0D 48 91 80 23 02 1B  ...H..#...H..#..
0DD0: 00 1A 00 05 E2 0D 03 07  10 19 00 48 92 80 23 01  ...........H..#.
0DE0: 0B 0E 02 1A 00 2E 80 04  02 0E 03 05 10 1A 00 3F  ...............?
0DF0: 04 10 05 10 2E 80 15 05  10 2E 80 48 93 80 23 01  ...........H..#.
0E00: 0B 0E 03 05 10 1A 00 48  94 80 23 02 18 00 00 80  .......H..#.....
0E10: 00 23 0E 5C 00 00 80 5C  01 00 80 5C 02 33 80 5C  .#.\...\...\.3.\
0E20: 03 33 80 02 17 00 00 80  03 4C 0E 45 0E 80 F0 FF  .3.......L.E....
0E30: FF 7F F0 FF FF 7F 66 64  69 32 00 80 5C 00 00 80  ......fdi2..\...
0E40: 5C 01 00 80 5C 02 33 80  5C 03 33 80 06 18 00 45  \...\.3.\.3....E
0E50: 35 80 F0 FF FF 7F F0 FF  FF 7F 77 68 69 31 00 80  5.........whi1..
0E60: 45 0E 80 F0 FF FF 7F F0  FF FF 7F 62 6C 6F 66 00  E..........blof.
0E70: 80 21 00                                          .!.             
```

#### Opcodes

```
  0: 0x0A6A [0x79] LocalPlayer looks at LocalPlayer (Basic look)
  1: 0x0A74 [0x03] ExtData[1]->WorkLocal[33] = Work_Zone[2]
  2: 0x0A79 [0x03] ExtData[1]->WorkLocal[26] = Work_Zone[3]
  3: 0x0A7E [0x03] ExtData[1]->WorkLocal[27] = Work_Zone[5]
  4: 0x0A83 [0x03] ExtData[1]->WorkLocal[32] = Work_Zone[6]
  5: 0x0A88 [0x03] ExtData[1]->WorkLocal[25] = Work_Zone[7]
  6: 0x0A8D [0x03] ExtData[1]->WorkLocal[23] = Work_Zone[8]
  7: 0x0A92 [0x02] IF !(ExtData[1]->WorkLocal[23] < 3*) GOTO 0x0A9F
  8: 0x0A9A [0x03] ExtData[1]->WorkLocal[23] = 0*
  9: 0x0A9F [0x03] ExtData[1]->WorkLocal[28] = Work_Zone[9]
 10: 0x0AA4 [0x20] SET_CLI_EVENT_UC_FLAG: Lock player control
 11: 0x0AA6 [0x42] SET_CLI_EVENT_CANCEL_DATA()
 12: 0x0AA7 [0x3B] GET_ENTITY_POSITION(entity=LocalPlayer, x_destination=Work_Zone[32], y_destination=Work_Zone[33], z_destination=Work_Zone[34])
 13: 0x0AB2 [0x3A] CONVERT_YAW_TO_BYTE(entity=LocalPlayer, result_destination=Work_Zone[35])
 14: 0x0AB9 [0x02] IF !(ExtData[1]->WorkLocal[32] == 180*) GOTO 0x0AC4
 15: 0x0AC1 [0x1C] WAIT(300* ticks)
 16: 0x0AC4 [0x45] LOAD_SCHEDULED_TASK: Load scheduler "whi1" with entities [LocalPlayer, LocalPlayer], work=[201*, 0*]
 17: 0x0AD5 [0x45] LOAD_SCHEDULED_TASK: Load scheduler "blof" with entities [LocalPlayer, LocalPlayer], work=[200*, 0*]
 18: 0x0AE6 [0x45] LOAD_SCHEDULED_TASK: Load scheduler "fdo1" with entities [LocalPlayer, LocalPlayer], work=[200*, 0*]
 19: 0x0AF7 [0x55] WAIT_LOAD_SCHEDULER: Wait for scheduler "fdo1" with entities [LocalPlayer, LocalPlayer], work=200*
 20: 0x0B06 [0x6C] FADE_ENTITY_COLOR(entity_id=LocalPlayer, end_alpha=128*, fade_time=1*)
 21: 0x0B0F [0x06] Work_Zone[1] = 0
 22: 0x0B12 [0x02] IF !(ExtData[1]->WorkLocal[23] >= 0*) GOTO 0x0B1D
 23: 0x0B1A [0x01] GOTO 0x0C6B
 24: 0x0B1D [0x02] IF !(ExtData[1]->WorkLocal[32] == 180*) GOTO 0x0BA7
 25: 0x0B25 [0x02] IF !(ExtData[1]->WorkLocal[33] == 0*) GOTO 0x0B3C
 26: 0x0B2D [0x47] UPDATE_PLAYER_POS(-618.329*, -643.868*, -25.805*, yaw=330.5°*)
 27: 0x0B37 [0x47] WAIT_PLAYER_POS_UPDATE
 28: 0x0B39 [0x01] GOTO 0x0BA4
 29: 0x0B3C [0x02] IF !(ExtData[1]->WorkLocal[33] == 1*) GOTO 0x0B53
 30: 0x0B44 [0x47] UPDATE_PLAYER_POS(-332.163*, -441.914*, -95.055*, yaw=330.5°*)
 31: 0x0B4E [0x47] WAIT_PLAYER_POS_UPDATE
 32: 0x0B50 [0x01] GOTO 0x0BA4
 33: 0x0B53 [0x02] IF !(ExtData[1]->WorkLocal[33] == 2*) GOTO 0x0B6A
 34: 0x0B5B [0x47] UPDATE_PLAYER_POS(-12.464*, -648.377*, -194.629*, yaw=331.3°*)
 35: 0x0B65 [0x47] WAIT_PLAYER_POS_UPDATE
 36: 0x0B67 [0x01] GOTO 0x0BA4
 37: 0x0B6A [0x02] IF !(ExtData[1]->WorkLocal[33] == 3*) GOTO 0x0B81
 38: 0x0B72 [0x47] UPDATE_PLAYER_POS(323.381*, -443.793*, -108.440*, yaw=329.1°*)
 39: 0x0B7C [0x47] WAIT_PLAYER_POS_UPDATE
 40: 0x0B7E [0x01] GOTO 0x0BA4
 41: 0x0B81 [0x02] IF !(ExtData[1]->WorkLocal[33] == 4*) GOTO 0x0B98
 42: 0x0B89 [0x47] UPDATE_PLAYER_POS(599.907*, -676.969*, -22.473*, yaw=330.7°*)
 43: 0x0B93 [0x47] WAIT_PLAYER_POS_UPDATE
 44: 0x0B95 [0x01] GOTO 0x0BA4
 45: 0x0B98 [0x47] UPDATE_PLAYER_POS(-87.410*, 499.929*, 179.999*, yaw=180.0°*)
 46: 0x0BA2 [0x47] WAIT_PLAYER_POS_UPDATE

SUBROUTINE_0BA4:
 47: 0x0BA4 [0x01] GOTO 0x0C6B
 48: 0x0BA7 [0x02] IF !(ExtData[1]->WorkLocal[32] == 168*) GOTO 0x0BD5
 49: 0x0BAF [0x02] IF !(ExtData[1]->WorkLocal[25] == 0*) GOTO 0x0BC6
 50: 0x0BB7 [0x47] UPDATE_PLAYER_POS(-87.410*, 499.929*, 179.999*, yaw=180.0°*)
 51: 0x0BC1 [0x47] WAIT_PLAYER_POS_UPDATE
 52: 0x0BC3 [0x01] GOTO 0x0BD2
 53: 0x0BC6 [0x47] UPDATE_PLAYER_POS(200.059*, -21.958*, -0.250*, yaw=91.5°*)
 54: 0x0BD0 [0x47] WAIT_PLAYER_POS_UPDATE

SUBROUTINE_0BD2:
 55: 0x0BD2 [0x01] GOTO 0x0C6B
 56: 0x0BD5 [0x02] IF !(ExtData[1]->WorkLocal[32] == 202*) GOTO 0x0C03
 57: 0x0BDD [0x02] IF !(ExtData[1]->WorkLocal[25] == 4*) GOTO 0x0BF4
 58: 0x0BE5 [0x47] UPDATE_PLAYER_POS(538.604*, 501.900*, -13.942*, yaw=286.5°*)
 59: 0x0BEF [0x47] WAIT_PLAYER_POS_UPDATE
 60: 0x0BF1 [0x01] GOTO 0x0C00
 61: 0x0BF4 [0x47] UPDATE_PLAYER_POS(-87.410*, 499.929*, 179.999*, yaw=180.0°*)
 62: 0x0BFE [0x47] WAIT_PLAYER_POS_UPDATE

SUBROUTINE_0C00:
 63: 0x0C00 [0x01] GOTO 0x0C6B
 64: 0x0C03 [0x02] IF !(ExtData[1]->WorkLocal[32] == 203*) GOTO 0x0C31
 65: 0x0C0B [0x02] IF !(ExtData[1]->WorkLocal[25] == 4*) GOTO 0x0C22
 66: 0x0C13 [0x47] UPDATE_PLAYER_POS(553.205*, 589.633*, -0.021*, yaw=124.4°*)
 67: 0x0C1D [0x47] WAIT_PLAYER_POS_UPDATE
 68: 0x0C1F [0x01] GOTO 0x0C2E
 69: 0x0C22 [0x47] UPDATE_PLAYER_POS(-87.410*, 499.929*, 179.999*, yaw=180.0°*)
 70: 0x0C2C [0x47] WAIT_PLAYER_POS_UPDATE

SUBROUTINE_0C2E:
 71: 0x0C2E [0x01] GOTO 0x0C6B
 72: 0x0C31 [0x02] IF !(ExtData[1]->WorkLocal[32] == 211*) GOTO 0x0C5F
 73: 0x0C39 [0x02] IF !(ExtData[1]->WorkLocal[25] == 3*) GOTO 0x0C50
 74: 0x0C41 [0x47] UPDATE_PLAYER_POS(569.224*, 548.462*, 36.837*, yaw=59.1°*)
 75: 0x0C4B [0x47] WAIT_PLAYER_POS_UPDATE
 76: 0x0C4D [0x01] GOTO 0x0C5C
 77: 0x0C50 [0x47] UPDATE_PLAYER_POS(-87.410*, 499.929*, 179.999*, yaw=180.0°*)
 78: 0x0C5A [0x47] WAIT_PLAYER_POS_UPDATE

SUBROUTINE_0C5C:
 79: 0x0C5C [0x01] GOTO 0x0C6B
 80: 0x0C5F [0x47] UPDATE_PLAYER_POS(-87.410*, 499.929*, 179.999*, yaw=180.0°*)
 81: 0x0C69 [0x47] WAIT_PLAYER_POS_UPDATE

SUBROUTINE_0C6B:
 82: 0x0C6B [0x38] SET_CLIENT_EVENT_MODE(mode=19*)
 83: 0x0C6E [0x02] IF !(ExtData[1]->WorkLocal[23] == 2*) GOTO 0x0C79
 84: 0x0C76 [0x01] GOTO 0x0C94
 85: 0x0C79 [0x02] IF !(ExtData[1]->WorkLocal[23] == 1*) GOTO 0x0D44
 86: 0x0C81 [0x1C] WAIT(15* ticks)
 87: 0x0C84 [0x24] CREATE_DIALOG(message_id=7407*, default_option=1*, option_flags=0*)
    → "Skip the event? [Yes./No.]"
 88: 0x0C8B [0x25] WAIT_DIALOG_SELECT()
 89: 0x0C8C [0x02] IF !(Work_Zone[0] == 0*) GOTO 0x0D44

SUBROUTINE_0C94:
 90: 0x0C94 [0x02] IF !(ExtData[1]->WorkLocal[32] == 180*) GOTO 0x0D00
 91: 0x0C9C [0x02] IF !(ExtData[1]->WorkLocal[33] == 0*) GOTO 0x0CAE
 92: 0x0CA4 [0x36] SET_ENTITY_EVENT_POSITION(pos_x=-618.329*, pos_z=-643.868*, pos_y=-25.805*)
 93: 0x0CAB [0x01] GOTO 0x0CFD
 94: 0x0CAE [0x02] IF !(ExtData[1]->WorkLocal[33] == 1*) GOTO 0x0CC0
 95: 0x0CB6 [0x36] SET_ENTITY_EVENT_POSITION(pos_x=-332.163*, pos_z=-441.914*, pos_y=-95.055*)
 96: 0x0CBD [0x01] GOTO 0x0CFD
 97: 0x0CC0 [0x02] IF !(ExtData[1]->WorkLocal[33] == 2*) GOTO 0x0CD2
 98: 0x0CC8 [0x36] SET_ENTITY_EVENT_POSITION(pos_x=-12.464*, pos_z=-648.377*, pos_y=-194.629*)
 99: 0x0CCF [0x01] GOTO 0x0CFD
100: 0x0CD2 [0x02] IF !(ExtData[1]->WorkLocal[33] == 3*) GOTO 0x0CE4
101: 0x0CDA [0x36] SET_ENTITY_EVENT_POSITION(pos_x=323.381*, pos_z=-443.793*, pos_y=-108.440*)
102: 0x0CE1 [0x01] GOTO 0x0CFD
103: 0x0CE4 [0x02] IF !(ExtData[1]->WorkLocal[33] == 4*) GOTO 0x0CF6
104: 0x0CEC [0x36] SET_ENTITY_EVENT_POSITION(pos_x=599.907*, pos_z=-676.969*, pos_y=-22.473*)
105: 0x0CF3 [0x01] GOTO 0x0CFD
106: 0x0CF6 [0x36] SET_ENTITY_EVENT_POSITION(pos_x=-87.410*, pos_z=499.929*, pos_y=179.999*)

SUBROUTINE_0CFD:
107: 0x0CFD [0x01] GOTO 0x0D09
108: 0x0D00 [0x37] UPDATE_EVENT_POSITION_AND_DIR: x=-87.410*, z=499.929*, y=179.999*, direction=180.0°*

SUBROUTINE_0D09:
109: 0x0D09 [0x80] LOAD_WAIT(entity=LocalPlayer)
110: 0x0D0E [0x62] LOAD_EVENT_SCHEDULER: Load scheduler "main" with entities [LocalPlayer, LocalPlayer], work=[2*, 0*]
111: 0x0D1F [0x45] LOAD_SCHEDULED_TASK: Load scheduler "fdi2" with entities [LocalPlayer, LocalPlayer], work=[200*, 0*]
112: 0x0D30 [0x46] CAMERA_CONTROL: Query status
113: 0x0D32 [0x12] 0x0200 = rand()
114: 0x0D35 [0x12] ExtData[1]->WorkLocal[0] = rand()
115: 0x0D38 [0x80] LOAD_WAIT(entity=Unknown NPC (ID: 1175272960/0x460D3E00))
116: 0x0D3D [0x00] END_REQSTACK()

SUBROUTINE_0D44:
117: 0x0D44 [0x02] IF !(ExtData[1]->WorkLocal[23] < 4294967295*) GOTO 0x0D5D
118: 0x0D4C [0x5C] MUSIC_CONTROL: Set Idle (Day) music to song 220*
119: 0x0D50 [0x5C] MUSIC_CONTROL: Set Idle (Night) music to song 220*
120: 0x0D54 [0x5C] MUSIC_CONTROL: Set Combat (Solo) music to song 220*
121: 0x0D58 [0x5C] MUSIC_CONTROL: Set Combat (Party) music to song 220*
122: 0x0D5C [0x9A] WAIT_MUSIC_SERVER()
123: 0x0D5D [0x1A] CALL_SUBROUTINE(address=0x1C14)
124: 0x0D60 [0x02] IF !(ExtData[1]->WorkLocal[23] >= 0*) GOTO 0x0D6B
125: 0x0D68 [0x01] GOTO 0x0E0B

SUBROUTINE_0D6B:
126: 0x0D6B [0x02] IF !(ExtData[1]->WorkLocal[32] == 36*) GOTO 0x0D76
127: 0x0D73 [0x01] GOTO 0x0D76

SUBROUTINE_0D76:
128: 0x0D76 [0x02] IF !(ExtData[1]->WorkLocal[32] == 17*) GOTO 0x0D81
129: 0x0D7E [0x01] GOTO 0x0E0B
130: 0x0D81 [0x02] IF !(ExtData[1]->WorkLocal[32] == 19*) GOTO 0x0D8C
131: 0x0D89 [0x01] GOTO 0x0E0B
132: 0x0D8C [0x02] IF !(ExtData[1]->WorkLocal[32] == 21*) GOTO 0x0D97
133: 0x0D94 [0x01] GOTO 0x0E0B
134: 0x0D97 [0x02] IF !(ExtData[1]->WorkLocal[32] == 23*) GOTO 0x0DA2
135: 0x0D9F [0x01] GOTO 0x0E0B
136: 0x0DA2 [0x03] Work_Zone[5] = ExtData[1]->WorkLocal[27]
137: 0x0DA7 [0x02] IF !(Work_Zone[5] <= 0*) GOTO 0x0E0B
138: 0x0DAF [0x02] IF !(Work_Zone[5] < 60*) GOTO 0x0DCA
139: 0x0DB7 [0x3F] Work_Zone[4] = Work_Zone[5] % 60*
140: 0x0DBE [0x15] Work_Zone[5] /= 60*
141: 0x0DC3 [0x48] [System] [7409*]:
    → "Battlefield clear time: $3 minute[/s], $2 second[/s]!"
142: 0x0DC6 [0x23] WAIT_FOR_DIALOG_INTERACTION
143: 0x0DC7 [0x01] GOTO 0x0DCE
144: 0x0DCA [0x48] [System] [7408*]:
    → "Battlefield clear time: $3 second[/s]!"
145: 0x0DCD [0x23] WAIT_FOR_DIALOG_INTERACTION

SUBROUTINE_0DCE:
146: 0x0DCE [0x02] IF !(ExtData[1]->WorkLocal[27] > ExtData[1]->WorkLocal[26]) GOTO 0x0DE2
147: 0x0DD6 [0x03] Work_Zone[7] = ExtData[1]->WorkLocal[25]
148: 0x0DDB [0x48] [System] [7602*]:
    → "You have broken the clear time record for "[A Century of Hardship/Return to the Depths/Bionic Bug/Pulling the Strings/Automaton Assault/The Mobline Comedy/To Movalpolos!]"!"
149: 0x0DDE [0x23] WAIT_FOR_DIALOG_INTERACTION
150: 0x0DDF [0x01] GOTO 0x0E0B
151: 0x0DE2 [0x02] IF !(ExtData[1]->WorkLocal[26] < 60*) GOTO 0x0E02
152: 0x0DEA [0x03] Work_Zone[5] = ExtData[1]->WorkLocal[26]
153: 0x0DEF [0x3F] Work_Zone[4] = Work_Zone[5] % 60*
154: 0x0DF6 [0x15] Work_Zone[5] /= 60*
155: 0x0DFB [0x48] [System] [7411*]:
    → "The current battlefield clear time record is $3 minute[/s] $2 second[/s]."
156: 0x0DFE [0x23] WAIT_FOR_DIALOG_INTERACTION
157: 0x0DFF [0x01] GOTO 0x0E0B
158: 0x0E02 [0x03] Work_Zone[5] = ExtData[1]->WorkLocal[26]
159: 0x0E07 [0x48] [System] [7410*]:
    → "The current battlefield clear time record is $3 second[/s]."
160: 0x0E0A [0x23] WAIT_FOR_DIALOG_INTERACTION

SUBROUTINE_0E0B:
161: 0x0E0B [0x02] IF !(ExtData[1]->WorkLocal[24] == 0*) GOTO 0x0E23
162: 0x0E13 [0x5C] MUSIC_CONTROL: Set Idle (Day) music to song 0*
163: 0x0E17 [0x5C] MUSIC_CONTROL: Set Idle (Night) music to song 0*
164: 0x0E1B [0x5C] MUSIC_CONTROL: Set Combat (Solo) music to song 220*
165: 0x0E1F [0x5C] MUSIC_CONTROL: Set Combat (Party) music to song 220*
166: 0x0E23 [0x02] IF !(ExtData[1]->WorkLocal[23] >= 0*) GOTO 0x0E4C
167: 0x0E2B [0x45] LOAD_SCHEDULED_TASK: Load scheduler "fdi2" with entities [LocalPlayer, LocalPlayer], work=[200*, 0*]
168: 0x0E3C [0x5C] MUSIC_CONTROL: Set Idle (Day) music to song 0*
169: 0x0E40 [0x5C] MUSIC_CONTROL: Set Idle (Night) music to song 0*
170: 0x0E44 [0x5C] MUSIC_CONTROL: Set Combat (Solo) music to song 220*
171: 0x0E48 [0x5C] MUSIC_CONTROL: Set Combat (Party) music to song 220*
172: 0x0E4C [0x06] ExtData[1]->WorkLocal[24] = 0
173: 0x0E4F [0x45] LOAD_SCHEDULED_TASK: Load scheduler "whi1" with entities [LocalPlayer, LocalPlayer], work=[201*, 0*]
174: 0x0E60 [0x45] LOAD_SCHEDULED_TASK: Load scheduler "blof" with entities [LocalPlayer, LocalPlayer], work=[200*, 0*]
175: 0x0E71 [0x21] END_EVENT
176: 0x0E72 [0x00] END_REQSTACK()
```

#### Data or dead code:

```
# Dead code (unreachable instructions):
     0x0D3E [0x01] GOTO 0x0D6B
     0x0D41 [0x01] GOTO 0x0D44
```

### Event 32003

#### Metadata

| Field        | Value     |
|--------------|-----------|
| Entrypoint   | 0x0E73    |
| Data Size    | 435 bytes |
| Instructions | 77        |

```
      00 01 02 03 04 05 06 07  08 09 0A 0B 0C 0D 0E 0F
      -- -- -- -- -- -- -- --  -- -- -- -- -- -- -- --
0E70:          06 1D 00 06 1E  00 03 21 00 06 10 03 20     .......!.... 
0E80: 00 07 10 03 1F 00 08 10  06 01 10 1A 28 53 02 1D  ............(S..
0E90: 00 05 80 00 24 10 42 03  01 10 09 80 43 00 43 01  ....$.B.....C.C.
0EA0: 03 01 10 0A 80 43 00 43  01 1A 3F 53 02 1E 00 05  .....C.C..?S....
0EB0: 80 00 24 10 45 0E 80 F0  FF FF 7F F0 FF FF 7F 66  ..$.E..........f
0EC0: 64 6F 31 00 80 55 0E 80  F0 FF FF 7F F0 FF FF 7F  do1..U..........
0ED0: 66 64 6F 31 03 01 10 0B  80 02 20 00 39 80 80 63  fdo1...... .9..c
0EE0: 0F 02 21 00 00 80 80 F8  0E 47 00 3A 80 3B 80 3C  ..!......G.:.;.<
0EF0: 80 3D 80 47 01 01 60 0F  02 21 00 05 80 80 0F 0F  .=.G..`..!......
0F00: 47 00 3E 80 3F 80 40 80  41 80 47 01 01 60 0F 02  G.>.?.@.A.G..`..
0F10: 21 00 09 80 80 26 0F 47  00 42 80 43 80 44 80 45  !....&.G.B.C.D.E
0F20: 80 47 01 01 60 0F 02 21  00 0A 80 80 3D 0F 47 00  .G..`..!....=.G.
0F30: 46 80 47 80 48 80 49 80  47 01 01 60 0F 02 21 00  F.G.H.I.G..`..!.
0F40: 0B 80 80 54 0F 47 00 4A  80 4B 80 4C 80 4D 80 47  ...T.G.J.K.L.M.G
0F50: 01 01 60 0F 47 00 4E 80  4F 80 50 80 51 80 47 01  ..`.G.N.O.P.Q.G.
0F60: 01 E2 0F 02 20 00 18 80  80 D6 0F 02 1F 00 05 80  .... ...........
0F70: 80 82 0F 47 00 52 80 53  80 54 80 55 80 47 01 01  ...G.R.S.T.U.G..
0F80: D3 0F 02 1F 00 09 80 80  99 0F 47 00 56 80 57 80  ..........G.V.W.
0F90: 58 80 59 80 47 01 01 D3  0F 02 1F 00 0A 80 80 B0  X.Y.G...........
0FA0: 0F 47 00 5A 80 5B 80 5C  80 5D 80 47 01 01 D3 0F  .G.Z.[.\.].G....
0FB0: 02 1F 00 0B 80 80 C7 0F  47 00 5E 80 5F 80 60 80  ........G.^._.`.
0FC0: 61 80 47 01 01 D3 0F 47  00 4E 80 4F 80 50 80 51  a.G....G.N.O.P.Q
0FD0: 80 47 01 01 E2 0F 47 00  4E 80 4F 80 50 80 51 80  .G....G.N.O.P.Q.
0FE0: 47 01 38 0F 80 79 00 F0  FF FF 7F F0 FF FF 7F 1A  G.8..y..........
0FF0: 43 53 45 35 80 F0 FF FF  7F F0 FF FF 7F 77 68 69  CSE5.........whi
1000: 31 00 80 45 0E 80 F0 FF  FF 7F F0 FF FF 7F 62 6C  1..E..........bl
1010: 6F 66 00 80 5C 00 00 80  5C 01 00 80 5C 02 33 80  of..\...\...\.3.
1020: 5C 03 33 80 21 00                                 \.3.!.          
```

#### Opcodes

```
  0: 0x0E73 [0x06] ExtData[1]->WorkLocal[29] = 0
  1: 0x0E76 [0x06] ExtData[1]->WorkLocal[30] = 0
  2: 0x0E79 [0x03] ExtData[1]->WorkLocal[33] = Work_Zone[6]
  3: 0x0E7E [0x03] ExtData[1]->WorkLocal[32] = Work_Zone[7]
  4: 0x0E83 [0x03] ExtData[1]->WorkLocal[31] = Work_Zone[8]
  5: 0x0E88 [0x06] Work_Zone[1] = 0
  6: 0x0E8B [0x1A] CALL_SUBROUTINE(address=0x5328)
  7: 0x0E8E [0x02] IF !(ExtData[1]->WorkLocal[29] == 1*) GOTO 0x1024
  8: 0x0E96 [0x42] SET_CLI_EVENT_CANCEL_DATA()
  9: 0x0E97 [0x03] Work_Zone[1] = 2*
 10: 0x0E9C [0x43] SEND_EVENT_UPDATE: Send pending tag to server (packet 0x005B)
 11: 0x0E9E [0x43] SEND_EVENT_UPDATE: Check pending flag (skip if not pending)
 12: 0x0EA0 [0x03] Work_Zone[1] = 3*
 13: 0x0EA5 [0x43] SEND_EVENT_UPDATE: Send pending tag to server (packet 0x005B)
 14: 0x0EA7 [0x43] SEND_EVENT_UPDATE: Check pending flag (skip if not pending)
 15: 0x0EA9 [0x1A] CALL_SUBROUTINE(address=0x533F)
 16: 0x0EAC [0x02] IF !(ExtData[1]->WorkLocal[30] == 1*) GOTO 0x1024
 17: 0x0EB4 [0x45] LOAD_SCHEDULED_TASK: Load scheduler "fdo1" with entities [LocalPlayer, LocalPlayer], work=[200*, 0*]
 18: 0x0EC5 [0x55] WAIT_LOAD_SCHEDULER: Wait for scheduler "fdo1" with entities [LocalPlayer, LocalPlayer], work=200*
 19: 0x0ED4 [0x03] Work_Zone[1] = 4*
 20: 0x0ED9 [0x02] IF !(ExtData[1]->WorkLocal[32] == 180*) GOTO 0x0F63
 21: 0x0EE1 [0x02] IF !(ExtData[1]->WorkLocal[33] == 0*) GOTO 0x0EF8
 22: 0x0EE9 [0x47] UPDATE_PLAYER_POS(-605.141*, 479.929*, -22.681*, yaw=87.2°*)
 23: 0x0EF3 [0x47] WAIT_PLAYER_POS_UPDATE
 24: 0x0EF5 [0x01] GOTO 0x0F60
 25: 0x0EF8 [0x02] IF !(ExtData[1]->WorkLocal[33] == 1*) GOTO 0x0F0F
 26: 0x0F00 [0x47] UPDATE_PLAYER_POS(-262.589*, 377.857*, -137.313*, yaw=305.3°*)
 27: 0x0F0A [0x47] WAIT_PLAYER_POS_UPDATE
 28: 0x0F0C [0x01] GOTO 0x0F60
 29: 0x0F0F [0x02] IF !(ExtData[1]->WorkLocal[33] == 2*) GOTO 0x0F26
 30: 0x0F17 [0x47] UPDATE_PLAYER_POS(18.348*, 486.940*, -224.334*, yaw=17.1°*)
 31: 0x0F21 [0x47] WAIT_PLAYER_POS_UPDATE
 32: 0x0F23 [0x01] GOTO 0x0F60
 33: 0x0F26 [0x02] IF !(ExtData[1]->WorkLocal[33] == 3*) GOTO 0x0F3D
 34: 0x0F2E [0x47] UPDATE_PLAYER_POS(231.593*, 360.094*, -173.572*, yaw=160.8°*)
 35: 0x0F38 [0x47] WAIT_PLAYER_POS_UPDATE
 36: 0x0F3A [0x01] GOTO 0x0F60
 37: 0x0F3D [0x02] IF !(ExtData[1]->WorkLocal[33] == 4*) GOTO 0x0F54
 38: 0x0F45 [0x47] UPDATE_PLAYER_POS(553.664*, 523.939*, -38.205*, yaw=233.9°*)
 39: 0x0F4F [0x47] WAIT_PLAYER_POS_UPDATE
 40: 0x0F51 [0x01] GOTO 0x0F60
 41: 0x0F54 [0x47] UPDATE_PLAYER_POS(-66.381*, -579.897*, -119.999*, yaw=180.0°*)
 42: 0x0F5E [0x47] WAIT_PLAYER_POS_UPDATE

SUBROUTINE_0F60:
 43: 0x0F60 [0x01] GOTO 0x0FE2
 44: 0x0F63 [0x02] IF !(ExtData[1]->WorkLocal[32] == 6*) GOTO 0x0FD6
 45: 0x0F6B [0x02] IF !(ExtData[1]->WorkLocal[31] == 1*) GOTO 0x0F82
 46: 0x0F73 [0x47] UPDATE_PLAYER_POS(-875.117*, -43.892*, -48.084*, yaw=45.1°*)
 47: 0x0F7D [0x47] WAIT_PLAYER_POS_UPDATE
 48: 0x0F7F [0x01] GOTO 0x0FD3
 49: 0x0F82 [0x02] IF !(ExtData[1]->WorkLocal[31] == 2*) GOTO 0x0F99
 50: 0x0F8A [0x47] UPDATE_PLAYER_POS(-755.499*, 563.947*, -112.035*, yaw=313.5°*)
 51: 0x0F94 [0x47] WAIT_PLAYER_POS_UPDATE
 52: 0x0F96 [0x01] GOTO 0x0FD3
 53: 0x0F99 [0x02] IF !(ExtData[1]->WorkLocal[31] == 3*) GOTO 0x0FB0
 54: 0x0FA1 [0x47] UPDATE_PLAYER_POS(123.251*, 754.209*, -172.124*, yaw=38.7°*)
 55: 0x0FAB [0x47] WAIT_PLAYER_POS_UPDATE
 56: 0x0FAD [0x01] GOTO 0x0FD3
 57: 0x0FB0 [0x02] IF !(ExtData[1]->WorkLocal[31] == 4*) GOTO 0x0FC7
 58: 0x0FB8 [0x47] UPDATE_PLAYER_POS(-516.404*, -803.323*, 24.206*, yaw=38.4°*)
 59: 0x0FC2 [0x47] WAIT_PLAYER_POS_UPDATE
 60: 0x0FC4 [0x01] GOTO 0x0FD3
 61: 0x0FC7 [0x47] UPDATE_PLAYER_POS(-66.381*, -579.897*, -119.999*, yaw=180.0°*)
 62: 0x0FD1 [0x47] WAIT_PLAYER_POS_UPDATE

SUBROUTINE_0FD3:
 63: 0x0FD3 [0x01] GOTO 0x0FE2
 64: 0x0FD6 [0x47] UPDATE_PLAYER_POS(-66.381*, -579.897*, -119.999*, yaw=180.0°*)
 65: 0x0FE0 [0x47] WAIT_PLAYER_POS_UPDATE

SUBROUTINE_0FE2:
 66: 0x0FE2 [0x38] SET_CLIENT_EVENT_MODE(mode=19*)
 67: 0x0FE5 [0x79] LocalPlayer looks at LocalPlayer (Basic look)
 68: 0x0FEF [0x1A] CALL_SUBROUTINE(address=0x5343)
 69: 0x0FF2 [0x45] LOAD_SCHEDULED_TASK: Load scheduler "whi1" with entities [LocalPlayer, LocalPlayer], work=[201*, 0*]
 70: 0x1003 [0x45] LOAD_SCHEDULED_TASK: Load scheduler "blof" with entities [LocalPlayer, LocalPlayer], work=[200*, 0*]
 71: 0x1014 [0x5C] MUSIC_CONTROL: Set Idle (Day) music to song 0*
 72: 0x1018 [0x5C] MUSIC_CONTROL: Set Idle (Night) music to song 0*
 73: 0x101C [0x5C] MUSIC_CONTROL: Set Combat (Solo) music to song 220*
 74: 0x1020 [0x5C] MUSIC_CONTROL: Set Combat (Party) music to song 220*
 75: 0x1024 [0x21] END_EVENT
 76: 0x1025 [0x00] END_REQSTACK()
```

### Event 32004

#### Metadata

| Field        | Value       |
|--------------|-------------|
| Entrypoint   | 0x1026      |
| Data Size    | 18205 bytes |
| Instructions | 2           |

```
      00 01 02 03 04 05 06 07  08 09 0A 0B 0C 0D 0E 0F
      -- -- -- -- -- -- -- --  -- -- -- -- -- -- -- --
1020:                   21 00  24 0C 80 05 80 00 80 25        !.$......%
1030: 02 00 10 00 80 00 3E 10  05 01 00 01 3E 10 1B 1A  ......>.....>...
1040: 56 54 46 01 38 0F 80 79  00 F0 FF FF 7F F0 FF FF  VTF.8..y........
1050: 7F 02 03 00 00 80 80 BA  10 37 95 80 96 80 97 80  .........7......
1060: 98 80 45 99 80 F0 FF FF  7F F0 FF FF 7F 67 33 73  ..E..........g3s
1070: 30 00 80 1C 2A 80 27 10  8A D0 00 01 03 1A 77 54  0...*.'.......wT
1080: 1C 01 80 32 1D 80 1F 00  9A 80 9B 80 97 80 1F 01  ...2............
1090: 27 10 8A D0 00 01 04 1F  00 9C 80 9D 80 97 80 1F  '...............
10A0: 01 6F 1A 56 54 55 99 80  F0 FF FF 7F F0 FF FF 7F  .o.VTU..........
10B0: 67 33 73 30 1A 35 11 01  F3 10 02 03 00 05 80 80  g3s0.5..........
10C0: C8 10 1A E3 16 01 F3 10  02 03 00 18 80 80 F3 10  ................
10D0: 45 0E 80 F0 FF FF 7F F0  FF FF 7F 66 64 6F 31 00  E..........fdo1.
10E0: 80 55 0E 80 F0 FF FF 7F  F0 FF FF 7F 66 64 6F 31  .U..........fdo1
10F0: 01 F3 10 94 01 F0 FF FF  7F 79 00 F0 FF FF 7F F0  .........y......
1100: FF FF 7F 37 9E 80 9F 80  A0 80 00 80 45 99 80 F0  ...7........E...
1110: FF FF 7F F0 FF FF 7F 67  33 61 30 00 80 1C 2A 80  .......g3a0...*.
1120: 1A 72 55 55 99 80 F0 FF  FF 7F F0 FF FF 7F 67 33  .rUU..........g3
1130: 61 30 46 00 1B 27 10 97  D0 00 01 02 27 10 95 D0  a0F..'......'...
1140: 00 01 04 27 10 96 D0 00  01 04 27 10 98 D0 00 01  ...'......'.....
1150: 02 27 10 99 D0 00 01 02  27 10 9A D0 00 01 02 27  .'......'......'
1160: 10 9B D0 00 01 04 27 10  9C D0 00 01 04 27 10 9D  ......'......'..
1170: D0 00 01 04 27 10 9E D0  00 01 04 27 10 9F D0 00  ....'......'....
1180: 01 04 92 01 95 D0 00 01  92 01 96 D0 00 01 92 01  ................
1190: 97 D0 00 01 92 01 98 D0  00 01 92 01 99 D0 00 01  ................
11A0: 92 01 9A D0 00 01 92 01  9B D0 00 01 92 01 9C D0  ................
11B0: 00 01 92 01 9D D0 00 01  92 01 9E D0 00 01 27 10  ..............'.
11C0: F0 FF FF 7F 07 27 10 95  D0 00 01 0C 27 10 96 D0  .....'......'...
11D0: 00 01 0D 27 10 97 D0 00  01 0D 27 10 98 D0 00 01  ...'......'.....
11E0: 0C 27 10 99 D0 00 01 0C  27 10 9A D0 00 01 0C 27  .'......'......'
11F0: 10 9B D0 00 01 0D 27 10  9C D0 00 01 0D 27 10 9D  ......'......'..
1200: D0 00 01 0D 27 10 9E D0  00 01 0D 27 10 9F D0 00  ....'......'....
1210: 01 0C 1C 01 80 80 F0 FF  FF 7F 80 96 D0 00 01 80  ................
1220: 9B D0 00 01 80 9C D0 00  01 80 9D D0 00 01 80 9E  ................
1230: D0 00 01 1C 01 80 27 10  93 D0 00 01 03 5B A1 80  ......'......[..
1240: 96 D0 00 01 96 D0 00 01  67 62 30 30 1C 01 80 5C  ........gb00...\
1250: 00 A2 80 5C 01 A2 80 5C  02 A2 80 5C 03 A2 80 9A  ...\...\...\....
1260: 45 99 80 F0 FF FF 7F F0  FF FF 7F 67 73 30 30 00  E..........gs00.
1270: 80 1A 77 54 55 99 80 F0  FF FF 7F F0 FF FF 7F 67  ..wTU..........g
1280: 73 30 30 45 99 80 F0 FF  FF 7F F0 FF FF 7F 67 73  s00E..........gs
1290: 30 31 00 80 2B 9B D0 00  01 A3 80 23 52 99 80 F0  01..+......#R...
12A0: FF FF 7F F0 FF FF 7F 67  73 30 31 45 99 80 F0 FF  .......gs01E....
12B0: FF 7F F0 FF FF 7F 67 73  30 32 00 80 2B 9C D0 00  ......gs02..+...
12C0: 01 A4 80 23 52 99 80 F0  FF FF 7F F0 FF FF 7F 67  ...#R..........g
12D0: 73 30 32 45 99 80 F0 FF  FF 7F F0 FF FF 7F 67 73  s02E..........gs
12E0: 30 33 00 80 2B 9D D0 00  01 A5 80 23 52 99 80 F0  03..+......#R...
12F0: FF FF 7F F0 FF FF 7F 67  73 30 33 45 99 80 F0 FF  .......gs03E....
1300: FF 7F F0 FF FF 7F 67 73  30 34 00 80 2B 9E D0 00  ......gs04..+...
1310: 01 A6 80 23 52 99 80 F0  FF FF 7F F0 FF FF 7F 67  ...#R..........g
1320: 73 30 34 45 99 80 F0 FF  FF 7F F0 FF FF 7F 67 73  s04E..........gs
1330: 30 35 00 80 6B 69 64 6C  30 9B D0 00 01 6B 69 64  05..kidl0....kid
1340: 6C 30 9C D0 00 01 6B 69  64 6C 30 9D D0 00 01 6B  l0....kidl0....k
1350: 69 64 6C 30 9E D0 00 01  1C 2E 80 2B 96 D0 00 01  idl0.......+....
1360: A7 80 23 52 99 80 F0 FF  FF 7F F0 FF FF 7F 67 73  ..#R..........gs
1370: 30 35 45 99 80 F0 FF FF  7F F0 FF FF 7F 67 73 30  05E..........gs0
1380: 36 00 80 2B 96 D0 00 01  A8 80 23 27 10 97 D0 00  6..+......#'....
1390: 01 03 2B 94 D0 00 01 A9  80 23 5B A1 80 96 D0 00  ..+......#[.....
13A0: 01 96 D0 00 01 67 62 30  31 52 99 80 F0 FF FF 7F  .....gb01R......
13B0: F0 FF FF 7F 67 73 30 36  45 99 80 F0 FF FF 7F F0  ....gs06E.......
13C0: FF FF 7F 67 73 30 37 00  80 4A F0 FF FF 7F 97 D0  ...gs07..J......
13D0: 00 01 55 99 80 F0 FF FF  7F F0 FF FF 7F 67 73 30  ..U..........gs0
13E0: 37 45 99 80 F0 FF FF 7F  F0 FF FF 7F 67 73 30 38  7E..........gs08
13F0: 00 80 1C AA 80 2B 97 D0  00 01 AB 80 23 6E 97 D0  .....+......#n..
1400: 00 01 00 80 99 97 D0 00  01 2B 97 D0 00 01 AC 80  .........+......
1410: 23 99 97 D0 00 01 52 99  80 F0 FF FF 7F F0 FF FF  #.....R.........
1420: 7F 67 73 30 38 45 99 80  F0 FF FF 7F F0 FF FF 7F  .gs08E..........
1430: 67 73 30 39 00 80 5B A1  80 96 D0 00 01 96 D0 00  gs09..[.........
1440: 01 67 62 30 32 1C 2E 80  2B 96 D0 00 01 AD 80 23  .gb02...+......#
1450: 2B 97 D0 00 01 AE 80 23  2B 97 D0 00 01 AF 80 23  +......#+......#
1460: 66 B0 80 97 D0 00 01 97  D0 00 01 74 6C 6B 30 52  f..........tlk0R
1470: 99 80 F0 FF FF 7F F0 FF  FF 7F 67 73 30 39 45 99  ..........gs09E.
1480: 80 F0 FF FF 7F F0 FF FF  7F 67 73 31 30 00 80 27  .........gs10..'
1490: 10 96 D0 00 01 0E 2B 97  D0 00 01 B1 80 23 2B 97  ......+......#+.
14A0: D0 00 01 B2 80 23 2B 97  D0 00 01 B3 80 23 2B 97  .....#+......#+.
14B0: D0 00 01 B4 80 23 66 B0  80 97 D0 00 01 97 D0 00  .....#f.........
14C0: 01 74 6C 6B 31 52 99 80  F0 FF FF 7F F0 FF FF 7F  .tlk1R..........
14D0: 67 73 31 30 45 99 80 F0  FF FF 7F F0 FF FF 7F 67  gs10E..........g
14E0: 73 31 31 00 80 66 29 80  96 D0 00 01 96 D0 00 01  s11..f).........
14F0: 74 6C 6B 30 2B 96 D0 00  01 B5 80 23 66 29 80 96  tlk0+......#f)..
1500: D0 00 01 96 D0 00 01 74  6C 6B 31 5C 00 33 80 5C  .......tlk1\.3.\
1510: 01 33 80 5C 02 33 80 5C  03 33 80 9A 27 10 98 D0  .3.\.3.\.3..'...
1520: 00 01 0D 27 10 99 D0 00  01 0D 27 10 9A D0 00 01  ...'......'.....
1530: 0D 52 99 80 F0 FF FF 7F  F0 FF FF 7F 67 73 31 31  .R..........gs11
1540: 45 99 80 F0 FF FF 7F F0  FF FF 7F 67 73 31 32 00  E..........gs12.
1550: 80 2B 98 D0 00 01 B6 80  1C 2A 80 27 10 97 D0 00  .+.......*.'....
1560: 01 0E 2B 99 D0 00 01 B7  80 23 2B 97 D0 00 01 B8  ..+......#+.....
