# Event 48

## Metadata

| Field           | Value    |
|-----------------|----------|
| Event Index     | 6/12     |
| Offset          | 0x0005   |
| Data Size       | 66 bytes |
| Calculated Size | 66 bytes |
| Instructions    | 8        |

```
      00 01 02 03 04 05 06 07  08 09 0A 0B 0C 0D 0E 0F
      -- -- -- -- -- -- -- --  -- -- -- -- -- -- -- --
0000:                66 00 80  F8 FF FF 7F F8 FF FF 7F       f..........
0010: 74 68 6B 31 53 F8 FF FF  7F F8 FF FF 7F 74 68 6B  thk1S........thk
0020: 31 2B 27 72 05 01 01 80  23 66 00 80 F8 FF FF 7F  1+'r....#f......
0030: F8 FF FF 7F 74 68 6B 32  53 F8 FF FF 7F F8 FF FF  ....thk2S.......
0040: 7F 74 68 6B 32 21 00                              .thk2!.         
```

## Opcodes

```
  0: 0x0005 [0x66] LOAD_EXT_SCHEDULER_MAIN: Load scheduler "thk1" with entities [EventEntity, EventEntity], work=29*
  1: 0x0014 [0x53] WAIT_SCHEDULER_TASK: Wait for scheduler "thk1" with entities [EventEntity, EventEntity]
  2: 0x0021 [0x2B] Loussaire (ID: 17134119/0x01057227) [12202*]:
    → "Oh, what ever shall I do...\u0007The deadline for my discourse draws near and I have yet to even gather the proper materials.\u007F1\u0000\u0007"
  3: 0x0028 [0x23] WAIT_FOR_DIALOG_INTERACTION
  4: 0x0029 [0x66] LOAD_EXT_SCHEDULER_MAIN: Load scheduler "thk2" with entities [EventEntity, EventEntity], work=29*
  5: 0x0038 [0x53] WAIT_SCHEDULER_TASK: Wait for scheduler "thk2" with entities [EventEntity, EventEntity]
  6: 0x0045 [0x21] END_EVENT
  7: 0x0046 [0x00] END_REQSTACK()
```
