# Event 102

## Metadata

| Field           | Value    |
|-----------------|----------|
| Event Index     | 93/120   |
| Offset          | 0x2B34   |
| Data Size       | 42 bytes |
| Calculated Size | 42 bytes |
| Instructions    | 13       |

```
      00 01 02 03 04 05 06 07  08 09 0A 0B 0C 0D 0E 0F
      -- -- -- -- -- -- -- --  -- -- -- -- -- -- -- --
2B30:             20 01 42 1E  F0 FF FF 7F 6F 70 03 02       .B.....op..
2B40: 10 27 81 1D 2C 81 23 1D  2D 81 23 45 6B 80 F0 FF  .'..,.#.-.#Ek...
2B50: FF 7F F0 FF FF 7F 71 73  74 63 02 80 21 00        ......qstc..!.  
```

## Opcodes

```
  0: 0x2B34 [0x20] SET_CLI_EVENT_UC_FLAG: Lock player control
  1: 0x2B36 [0x42] SET_CLI_EVENT_CANCEL_DATA()
  2: 0x2B37 [0x1E] EventEntity looks at LocalPlayer and starts talking
  3: 0x2B3C [0x6F] WAIT_FRAME_DELAY: Yield until WaitTime reaches zero
  4: 0x2B3D [0x70] WAIT_ENTITY_RENDER_FLAG: Wait while EventEntity->Render.Flags3 bit 2 is set (cancel turn if not)
  5: 0x2B3E [0x03] Work_Zone[2] = 288*
  6: 0x2B43 [0x1D] PRINT_EVENT_MESSAGE(message_id=6822*)
    → "Ah, \u0001\u00053\u0002\u0000\u0000\u0000. These were used during the princes' ceremonies as well.\u007F1\u0000\u0007"
  7: 0x2B46 [0x23] WAIT_FOR_DIALOG_INTERACTION
  8: 0x2B47 [0x1D] PRINT_EVENT_MESSAGE(message_id=6823*)
    → "Tradition prohibits us from allowing you to attend the ceremony, but feel free to view it. The princess would be delighted at your presence.\u007F1\u0000\u0007"
  9: 0x2B4A [0x23] WAIT_FOR_DIALOG_INTERACTION
 10: 0x2B4B [0x45] LOAD_SCHEDULED_TASK: Load scheduler "qstc" with entities [LocalPlayer, LocalPlayer], work=[201*, 0*]
 11: 0x2B5C [0x21] END_EVENT
 12: 0x2B5D [0x00] END_REQSTACK()
```
