# Event 510

## Metadata

| Field           | Value    |
|-----------------|----------|
| Event Index     | 54/120   |
| Offset          | 0x27AE   |
| Data Size       | 36 bytes |
| Calculated Size | 36 bytes |
| Instructions    | 10       |

```
      00 01 02 03 04 05 06 07  08 09 0A 0B 0C 0D 0E 0F
      -- -- -- -- -- -- -- --  -- -- -- -- -- -- -- --
27A0:                                            1E F0                ..
27B0: FF FF 7F 6F 70 66 05 80  F8 FF FF 7F F8 FF FF 7F  ...opf..........
27C0: 74 6C 6B 30 1D 02 81 23  5E 69 64 6C 30 1C 3E 80  tlk0...#^idl0.>.
27D0: 21 00                                             !.              
```

## Opcodes

```
  0: 0x27AE [0x1E] EventEntity looks at LocalPlayer and starts talking
  1: 0x27B3 [0x6F] WAIT_FRAME_DELAY: Yield until WaitTime reaches zero
  2: 0x27B4 [0x70] WAIT_ENTITY_RENDER_FLAG: Wait while EventEntity->Render.Flags3 bit 2 is set (cancel turn if not)
  3: 0x27B5 [0x66] LOAD_EXT_SCHEDULER_MAIN: Load scheduler "tlk0" with entities [EventEntity, EventEntity], work=20*
  4: 0x27C4 [0x1D] PRINT_EVENT_MESSAGE(message_id=7115*)
    → "Get to Jeuno, and take that letter of introduction with you. Ambassador Jima is anxious to see you!\u007F1\u0000\u0007"
  5: 0x27C7 [0x23] WAIT_FOR_DIALOG_INTERACTION
  6: 0x27C8 [0x5E] EventEntity goes idle (kills current action) (animation: "idl0")
  7: 0x27CD [0x1C] WAIT(30* ticks)
  8: 0x27D0 [0x21] END_EVENT
  9: 0x27D1 [0x00] END_REQSTACK()
```
