# Event 549

## Metadata

| Field           | Value    |
|-----------------|----------|
| Event Index     | 61/120   |
| Offset          | 0x2968   |
| Data Size       | 33 bytes |
| Calculated Size | 33 bytes |
| Instructions    | 10       |

```
      00 01 02 03 04 05 06 07  08 09 0A 0B 0C 0D 0E 0F
      -- -- -- -- -- -- -- --  -- -- -- -- -- -- -- --
2960:                          42 1E F0 FF FF 7F 6F 70          B.....op
2970: 29 0B 07 90 0E 01 3D 29  0B 07 90 0E 01 3E 29 0B  ).....=).....>).
2980: 07 90 0E 01 3F 20 00 21  00                       ....? .!.       
```

## Opcodes

```
  0: 0x2968 [0x42] SET_CLI_EVENT_CANCEL_DATA()
  1: 0x2969 [0x1E] EventEntity looks at LocalPlayer and starts talking
  2: 0x296E [0x6F] WAIT_FRAME_DELAY: Yield until WaitTime reaches zero
  3: 0x296F [0x70] WAIT_ENTITY_RENDER_FLAG: Wait while EventEntity->Render.Flags3 bit 2 is set (cancel turn if not)
  4: 0x2970 [0x29] REQ_SET_WAIT(priority=0x0B, entity_id=Halver (ID: 17731591/0x010E9007), tag_num=0x3D)
  5: 0x2977 [0x29] REQ_SET_WAIT(priority=0x0B, entity_id=Halver (ID: 17731591/0x010E9007), tag_num=0x3E)
  6: 0x297E [0x29] REQ_SET_WAIT(priority=0x0B, entity_id=Halver (ID: 17731591/0x010E9007), tag_num=0x3F)
  7: 0x2985 [0x20] SET_CLI_EVENT_UC_FLAG: Unlock player control
  8: 0x2987 [0x21] END_EVENT
  9: 0x2988 [0x00] END_REQSTACK()
```
