# Event 565

## Metadata

| Field           | Value    |
|-----------------|----------|
| Event Index     | 99/120   |
| Offset          | 0x2BBE   |
| Data Size       | 48 bytes |
| Calculated Size | 48 bytes |
| Instructions    | 12       |

```
      00 01 02 03 04 05 06 07  08 09 0A 0B 0C 0D 0E 0F
      -- -- -- -- -- -- -- --  -- -- -- -- -- -- -- --
2BB0:                                            42 1E                B.
2BC0: F0 FF FF 7F 6F 70 66 05  80 F8 FF FF 7F F8 FF FF  ....opf.........
2BD0: 7F 74 6C 6B 30 1D 3A 81  23 66 05 80 F8 FF FF 7F  .tlk0.:.#f......
2BE0: F8 FF FF 7F 74 6C 6B 31  1D 3B 81 23 21 00        ....tlk1.;.#!.  
```

## Opcodes

```
  0: 0x2BBE [0x42] SET_CLI_EVENT_CANCEL_DATA()
  1: 0x2BBF [0x1E] EventEntity looks at LocalPlayer and starts talking
  2: 0x2BC4 [0x6F] WAIT_FRAME_DELAY: Yield until WaitTime reaches zero
  3: 0x2BC5 [0x70] WAIT_ENTITY_RENDER_FLAG: Wait while EventEntity->Render.Flags3 bit 2 is set (cancel turn if not)
  4: 0x2BC6 [0x66] LOAD_EXT_SCHEDULER_MAIN(work_offset=20*, entity1=EventEntity, entity2=EventEntity, action="tlk0")
  5: 0x2BD5 [0x1D] PRINT_EVENT_MESSAGE(message_id=8436*)
    → "\u0008.\u0007Arrangements for the meeting will be made in all haste.\u007F1\u0000\u0007"
  6: 0x2BD8 [0x23] WAIT_FOR_DIALOG_INTERACTION
  7: 0x2BD9 [0x66] LOAD_EXT_SCHEDULER_MAIN(work_offset=20*, entity1=EventEntity, entity2=EventEntity, action="tlk1")
  8: 0x2BE8 [0x1D] PRINT_EVENT_MESSAGE(message_id=8437*)
    → "Make your way to Jeuno as soon as your preparations are complete.\u007F1\u0000\u0007"
  9: 0x2BEB [0x23] WAIT_FOR_DIALOG_INTERACTION
 10: 0x2BEC [0x21] END_EVENT
 11: 0x2BED [0x00] END_REQSTACK()
```
