# Event 576

## Metadata

| Field           | Value    |
|-----------------|----------|
| Event Index     | 44/120   |
| Offset          | 0x226D   |
| Data Size       | 35 bytes |
| Calculated Size | 35 bytes |
| Instructions    | 12       |

```
      00 01 02 03 04 05 06 07  08 09 0A 0B 0C 0D 0E 0F
      -- -- -- -- -- -- -- --  -- -- -- -- -- -- -- --
2260:                                         42 03 0F               B..
2270: 00 08 10 03 0D 00 09 10  1E F0 FF FF 7F 6F 70 1D  .............op.
2280: DC 80 23 02 0D 00 12 80  00 8E 22 1A FC 2B 21 00  ..#......."..+!.
```

## Opcodes

```
  0: 0x226D [0x42] SET_CLI_EVENT_CANCEL_DATA()
  1: 0x226E [0x03] ExtData[1]->WorkLocal[15] = Work_Zone[8]
  2: 0x2273 [0x03] ExtData[1]->WorkLocal[13] = Work_Zone[9]
  3: 0x2278 [0x1E] EventEntity looks at LocalPlayer and starts talking
  4: 0x227D [0x6F] WAIT_FRAME_DELAY: Yield until WaitTime reaches zero
  5: 0x227E [0x70] WAIT_ENTITY_RENDER_FLAG: Wait while EventEntity->Render.Flags3 bit 2 is set (cancel turn if not)
  6: 0x227F [0x1D] PRINT_EVENT_MESSAGE(message_id=7064*)
    → "First you must visit the San d'Orian consulates in Bastok and Windurst. The consuls there will give you further orders.\u007F1\u0000\u0007"
  7: 0x2282 [0x23] WAIT_FOR_DIALOG_INTERACTION
  8: 0x2283 [0x02] IF !(ExtData[1]->WorkLocal[13] == 1*) GOTO 0x228E
  9: 0x228B [0x1A] CALL_SUBROUTINE(address=0x2BFC)
 10: 0x228E [0x21] END_EVENT
 11: 0x228F [0x00] END_REQSTACK()
```
