# Event 577

## Metadata

| Field           | Value    |
|-----------------|----------|
| Event Index     | 45/120   |
| Offset          | 0x2290   |
| Data Size       | 35 bytes |
| Calculated Size | 35 bytes |
| Instructions    | 12       |

```
      00 01 02 03 04 05 06 07  08 09 0A 0B 0C 0D 0E 0F
      -- -- -- -- -- -- -- --  -- -- -- -- -- -- -- --
2290: 42 03 0F 00 08 10 03 0D  00 09 10 1E F0 FF FF 7F  B...............
22A0: 6F 70 1D DD 80 23 02 0D  00 12 80 00 B1 22 1A FC  op...#......."..
22B0: 2B 21 00                                          +!.             
```

## Opcodes

```
  0: 0x2290 [0x42] SET_CLI_EVENT_CANCEL_DATA()
  1: 0x2291 [0x03] ExtData[1]->WorkLocal[15] = Work_Zone[8]
  2: 0x2296 [0x03] ExtData[1]->WorkLocal[13] = Work_Zone[9]
  3: 0x229B [0x1E] EventEntity looks at LocalPlayer and starts talking
  4: 0x22A0 [0x6F] WAIT_FRAME_DELAY: Yield until WaitTime reaches zero
  5: 0x22A1 [0x70] WAIT_ENTITY_RENDER_FLAG: Wait while EventEntity->Render.Flags3 bit 2 is set (cancel turn if not)
  6: 0x22A2 [0x1D] PRINT_EVENT_MESSAGE(message_id=7066*)
    → "You are within the walls of Chateau d'Oraguille, home of royalty. Conduct yourself accordingly.\u007F1\u0000\u0007"
  7: 0x22A5 [0x23] WAIT_FOR_DIALOG_INTERACTION
  8: 0x22A6 [0x02] IF !(ExtData[1]->WorkLocal[13] == 1*) GOTO 0x22B1
  9: 0x22AE [0x1A] CALL_SUBROUTINE(address=0x2BFC)
 10: 0x22B1 [0x21] END_EVENT
 11: 0x22B2 [0x00] END_REQSTACK()
```
