# Event 65535

## Metadata

| Field           | Value    |
|-----------------|----------|
| Event Index     | 7/11     |
| Offset          | 0x002A   |
| Data Size       | 54 bytes |
| Calculated Size | 54 bytes |
| Instructions    | 11       |

```
      00 01 02 03 04 05 06 07  08 09 0A 0B 0C 0D 0E 0F
      -- -- -- -- -- -- -- --  -- -- -- -- -- -- -- --
0020:                                92 01 F8 FF FF 7F            ......
0030: 4E 00 4A A0 0C 01 80 4A  A0 0C 01 6C F8 FF FF 7F  N.J....J...l....
0040: 02 80 03 80 33 01 37 04  80 05 80 06 80 07 80 1E  ....3.7.........
0050: F0 FF FF 7F 6F 70 6C F8  FF FF 7F 08 80 08 80 00  ....opl.........
```

## Opcodes

```
  0: 0x002A [0x92] EventEntity->Render.Flags3 ^= 0x01
  1: 0x0030 [0x4E] SET_ENTITY_HIDE_FLAG: Show Talking Doll (ID: 17604682/0x010CA04A)
  2: 0x0036 [0x80] LOAD_WAIT(entity=Talking Doll (ID: 17604682/0x010CA04A))
  3: 0x003B [0x6C] FADE_ENTITY_COLOR(entity_id=EventEntity, end_alpha=50*, fade_time=1*)
  4: 0x0044 [0x33] EventEntity->Render.Flags0 |= 0x200000 // Bit 21 (flag=0x01)
  5: 0x0046 [0x37] UPDATE_EVENT_POSITION_AND_DIR: x=20.956*, z=29.969*, y=-18.162*, direction=135.3°*
  6: 0x004F [0x1E] EventEntity looks at LocalPlayer and starts talking
  7: 0x0054 [0x6F] WAIT_FRAME_DELAY: Yield until WaitTime reaches zero
  8: 0x0055 [0x70] WAIT_ENTITY_RENDER_FLAG: Wait while EventEntity->Render.Flags3 bit 2 is set (cancel turn if not)
  9: 0x0056 [0x6C] FADE_ENTITY_COLOR(entity_id=EventEntity, end_alpha=120*, fade_time=120*)
 10: 0x005F [0x00] END_REQSTACK()
```
