# Event 65535

## Metadata

| Field           | Value    |
|-----------------|----------|
| Event Index     | 8/25     |
| Offset          | 0x0065   |
| Data Size       | 32 bytes |
| Calculated Size | 32 bytes |
| Instructions    | 8        |

```
      00 01 02 03 04 05 06 07  08 09 0A 0B 0C 0D 0E 0F
      -- -- -- -- -- -- -- --  -- -- -- -- -- -- -- --
0060:                1E 40 60  0E 01 6F 70 5B 00 80 F8       .@`..op[...
0070: FF FF 7F F8 FF FF 7F 74  6C 6B 30 1D 04 80 23 5E  .......tlk0...#^
0080: 69 64 6C 30 00                                    idl0.           
```

## Opcodes

```
  0: 0x0065 [0x1E] EventEntity looks at Balasiel (ID: 17719360/0x010E6040) and starts talking
  1: 0x006A [0x6F] WAIT_FRAME_DELAY: Yield until WaitTime reaches zero
  2: 0x006B [0x70] WAIT_ENTITY_RENDER_FLAG: Wait while EventEntity->Render.Flags3 bit 2 is set (cancel turn if not)
  3: 0x006C [0x5B] LOAD_EXT_SCHEDULER: Load scheduler "tlk0" with entities [EventEntity, EventEntity], work=75*
  4: 0x007B [0x1D] PRINT_EVENT_MESSAGE(message_id=8117*)
    → "So?\u007F1\u0000\u0007"
  5: 0x007E [0x23] WAIT_FOR_DIALOG_INTERACTION
  6: 0x007F [0x5E] EventEntity goes idle (kills current action) (animation: "idl0")
  7: 0x0084 [0x00] END_REQSTACK()
```
