# Event 65535

## Metadata

| Field           | Value    |
|-----------------|----------|
| Event Index     | 3/3      |
| Offset          | 0x0061   |
| Data Size       | 54 bytes |
| Calculated Size | 54 bytes |
| Instructions    | 10       |

```
      00 01 02 03 04 05 06 07  08 09 0A 0B 0C 0D 0E 0F
      -- -- -- -- -- -- -- --  -- -- -- -- -- -- -- --
0060:    27 00 BE 60 0A 01 04  1C 02 80 27 00 BF 60 0A   '..`......'..`.
0070: 01 04 1C 02 80 27 00 C0  60 0A 01 04 1C 02 80 29  .....'..`......)
0080: 00 C1 60 0A 01 04 2D BD  60 0A 01 BD 60 0A 01 66  ..`...-.`...`..f
0090: 75 65 64 1C 02 80 00                              ued....         
```

## Opcodes

```
  0: 0x0061 [0x27] REQ_SET(priority=0x00, entity_id=Unnamed NPC (ID: 17457342/0x010A60BE), tag_num=0x04)
  1: 0x0068 [0x1C] WAIT(60* ticks)
  2: 0x006B [0x27] REQ_SET(priority=0x00, entity_id=Unnamed NPC (ID: 17457343/0x010A60BF), tag_num=0x04)
  3: 0x0072 [0x1C] WAIT(60* ticks)
  4: 0x0075 [0x27] REQ_SET(priority=0x00, entity_id=Unnamed NPC (ID: 17457344/0x010A60C0), tag_num=0x04)
  5: 0x007C [0x1C] WAIT(60* ticks)
  6: 0x007F [0x29] REQ_SET_WAIT(priority=0x00, entity_id=Unnamed NPC (ID: 17457345/0x010A60C1), tag_num=0x04)
  7: 0x0086 [0x2D] CREATE_ZONE_SCHEDULER_TASK: Create scheduler "fued" with entities [Stone Plat (ID: 17457341/0x010A60BD), Stone Plat (ID: 17457341/0x010A60BD)]
  8: 0x0093 [0x1C] WAIT(60* ticks)
  9: 0x0096 [0x00] END_REQSTACK()
```
