# Event 295

## Metadata

| Field           | Value    |
|-----------------|----------|
| Event Index     | 79/91    |
| Offset          | 0x0545   |
| Data Size       | 49 bytes |
| Calculated Size | 49 bytes |
| Instructions    | 11       |

```
      00 01 02 03 04 05 06 07  08 09 0A 0B 0C 0D 0E 0F
      -- -- -- -- -- -- -- --  -- -- -- -- -- -- -- --
0540:                1E F0 FF  FF 7F 1D 33 80 23 66 1A       ......3.#f.
0550: 80 0E A0 01 01 0E A0 01  01 74 77 62 30 1D 34 80  .........twb0.4.
0560: 23 66 1A 80 0E A0 01 01  0E A0 01 01 74 77 62 31  #f..........twb1
0570: 1D 35 80 23 21 00                                 .5.#!.          
```

## Opcodes

```
  0: 0x0545 [0x1E] EventEntity looks at LocalPlayer and starts talking
  1: 0x054A [0x1D] PRINT_EVENT_MESSAGE(message_id=11020*)
    → "It's been kind of lonely without Ulmia or the boss around.\u007F1\u0000\u0007"
  2: 0x054D [0x23] WAIT_FOR_DIALOG_INTERACTION
  3: 0x054E [0x66] LOAD_EXT_SCHEDULER_MAIN: Load scheduler "twb0" with entities [Parelbriaux (ID: 16883726/0x0101A00E), Parelbriaux (ID: 16883726/0x0101A00E)], work=29*
  4: 0x055D [0x1D] PRINT_EVENT_MESSAGE(message_id=11021*)
    → "I sure hope nothing happens to Ulmia...\u007F1\u0000\u0007"
  5: 0x0560 [0x23] WAIT_FOR_DIALOG_INTERACTION
  6: 0x0561 [0x66] LOAD_EXT_SCHEDULER_MAIN: Load scheduler "twb1" with entities [Parelbriaux (ID: 16883726/0x0101A00E), Parelbriaux (ID: 16883726/0x0101A00E)], work=29*
  7: 0x0570 [0x1D] PRINT_EVENT_MESSAGE(message_id=11022*)
    → "And Prishe?\u0007Oh, I know nothing will happen to Prishe. There isn't a jam she hasn't been able to find her way out of!\u007F1\u0000\u0007"
  8: 0x0573 [0x23] WAIT_FOR_DIALOG_INTERACTION
  9: 0x0574 [0x21] END_EVENT
 10: 0x0575 [0x00] END_REQSTACK()
```
