# Event 566

## Metadata

| Field           | Value    |
|-----------------|----------|
| Event Index     | 5/7      |
| Offset          | 0x008C   |
| Data Size       | 52 bytes |
| Calculated Size | 52 bytes |
| Instructions    | 8        |

```
      00 01 02 03 04 05 06 07  08 09 0A 0B 0C 0D 0E 0F
      -- -- -- -- -- -- -- --  -- -- -- -- -- -- -- --
0080:                                      66 01 80 42              f..B
0090: 60 0E 01 42 60 0E 01 74  68 6B 31 1D 0A 80 23 66  `..B`..thk1...#f
00A0: 01 80 42 60 0E 01 42 60  0E 01 74 68 6B 32 53 42  ..B`..B`..thk2SB
00B0: 60 0E 01 42 60 0E 01 74  68 6B 32 1C 08 80 21 00  `..B`..thk2...!.
```

## Opcodes

```
  0: 0x008C [0x66] LOAD_EXT_SCHEDULER_MAIN(work_offset=20*, entity1=Chanpau (ID: 17719362/0x010E6042), entity2=Chanpau (ID: 17719362/0x010E6042), action="thk1")
  1: 0x009B [0x1D] PRINT_EVENT_MESSAGE(message_id=8153*)
    → "La-dee-dah, la-dee-dah... Sure am bored. Wish there was some work to do.\u007F1\u0000\u0007"
  2: 0x009E [0x23] WAIT_FOR_DIALOG_INTERACTION
  3: 0x009F [0x66] LOAD_EXT_SCHEDULER_MAIN(work_offset=20*, entity1=Chanpau (ID: 17719362/0x010E6042), entity2=Chanpau (ID: 17719362/0x010E6042), action="thk2")
  4: 0x00AE [0x53] WAIT_SCHEDULER_TASK(entity1=Chanpau (ID: 17719362/0x010E6042), entity2=Chanpau (ID: 17719362/0x010E6042), action_id="thk2")
  5: 0x00BB [0x1C] WAIT(30* ticks)
  6: 0x00BE [0x21] END_EVENT
  7: 0x00BF [0x00] END_REQSTACK()
```
