# Event 230

## Metadata

| Field           | Value    |
|-----------------|----------|
| Event Index     | 10/12    |
| Offset          | 0x00DF   |
| Data Size       | 23 bytes |
| Calculated Size | 23 bytes |
| Instructions    | 11       |

```
      00 01 02 03 04 05 06 07  08 09 0A 0B 0C 0D 0E 0F
      -- -- -- -- -- -- -- --  -- -- -- -- -- -- -- --
00D0:                                               1E                 .
00E0: F0 FF FF 7F 1D 1A 80 23  1D 16 80 23 1D 17 80 23  .......#...#...#
00F0: 1D 18 80 23 21 00                                 ...#!.          
```

## Opcodes

```
  0: 0x00DF [0x1E] EventEntity looks at LocalPlayer and starts talking
  1: 0x00E4 [0x1D] PRINT_EVENT_MESSAGE(message_id=7869*)
    → "You've returned.\u0007How about it? I trust you're an old hand with martellos by now?\u007F1\u0000\u0007"
  2: 0x00E7 [0x23] WAIT_FOR_DIALOG_INTERACTION
  3: 0x00E8 [0x1D] PRINT_EVENT_MESSAGE(message_id=7870*)
    → "We've tasked a dedicated machine outfitter with the supervision of all martello-related matters around camp.\u007F1\u0000\u0007"
  4: 0x00EB [0x23] WAIT_FOR_DIALOG_INTERACTION
  5: 0x00EC [0x1D] PRINT_EVENT_MESSAGE(message_id=7871*)
    → "Should you wish to assist further with replenishment and repair, I encourage you to seek him out.\u0007He will furnish you with the necessary materials, as well as due recompense upon your successful return.\u007F1\u0000\u0007"
  6: 0x00EF [0x23] WAIT_FOR_DIALOG_INTERACTION
  7: 0x00F0 [0x1D] PRINT_EVENT_MESSAGE(message_id=7872*)
    → "Mind you, you'll want to report back swiftly after finishing the job.\u0007We've far too much on our hands here to keep tabs on stragglers.\u007F1\u0000\u0007"
  8: 0x00F3 [0x23] WAIT_FOR_DIALOG_INTERACTION
  9: 0x00F4 [0x21] END_EVENT
 10: 0x00F5 [0x00] END_REQSTACK()
```
