# Event 6

## Metadata

| Field           | Value    |
|-----------------|----------|
| Event Index     | 3/10     |
| Offset          | 0x0007   |
| Data Size       | 62 bytes |
| Calculated Size | 62 bytes |
| Instructions    | 7        |

```
      00 01 02 03 04 05 06 07  08 09 0A 0B 0C 0D 0E 0F
      -- -- -- -- -- -- -- --  -- -- -- -- -- -- -- --
0000:                      22  01 37 00 80 01 80 02 80         ".7......
0010: 03 80 5B 04 80 F0 FF FF  7F F0 FF FF 7F 00 FE FE  ..[.............
0020: FE 62 05 80 F0 FF FF 7F  F0 FF FF 7F 00 FE FE FE  .b..............
0030: 06 80 2C F8 FF FF 7F F8  FF FF 7F 6B 69 6C 6C 5E  ..,........kill^
0040: 62 74 6C 30 00                                    btl0.           
```

## Opcodes

```
  0: 0x0007 [0x22] ENTITY_HIDE_FLAG(enabled=0x01)
  1: 0x0009 [0x37] UPDATE_EVENT_POSITION_AND_DIR: x=-0.030*, z=59.387*, y=6.289*, direction=90.0°*
  2: 0x0012 [0x5B] LOAD_EXT_SCHEDULER: Load scheduler 0xFEFEFE00 with entities [LocalPlayer, LocalPlayer], work=551*
  3: 0x0021 [0x62] LOAD_EVENT_SCHEDULER: Load scheduler 0xFEFEFE00 with entities [LocalPlayer, LocalPlayer], work=[78*, 0*]
  4: 0x0032 [0x2C] CREATE_SCHEDULER_TASK: Create scheduler "kill" with entities [EventEntity, EventEntity]
  5: 0x003F [0x5E] EventEntity goes idle (kills current action) (animation: "btl0")
  6: 0x0044 [0x00] END_REQSTACK()
```
