# Event 894

## Metadata

| Field           | Value    |
|-----------------|----------|
| Event Index     | 3/3      |
| Offset          | 0x0052   |
| Data Size       | 57 bytes |
| Calculated Size | 57 bytes |
| Instructions    | 9        |

```
      00 01 02 03 04 05 06 07  08 09 0A 0B 0C 0D 0E 0F
      -- -- -- -- -- -- -- --  -- -- -- -- -- -- -- --
0050:       4A 3B 61 0E 01 F0  FF FF 7F 66 00 80 F8 FF    J;a......f....
0060: FF 7F F8 FF FF 7F 74 77  61 30 2B 3B 61 0E 01 06  ......twa0+;a...
0070: 80 23 2B 3B 61 0E 01 07  80 23 66 00 80 F8 FF FF  .#+;a....#f.....
0080: 7F F8 FF FF 7F 74 77 61  31 21 00                 .....twa1!.     
```

## Opcodes

```
  0: 0x0052 [0x4A] Esmallegue (ID: 17719611/0x010E613B) looks at LocalPlayer
  1: 0x005B [0x66] LOAD_EXT_SCHEDULER_MAIN(work_offset=29*, entity1=EventEntity, entity2=EventEntity, action="twa0")
  2: 0x006A [0x2B] Esmallegue (ID: 17719611/0x010E613B) [13448*]:
    → "You there, adventurer!\u0007I wonder have you heard of the so-called \u00072Cavernous Maws\u00073?\u0007That is what many are calling the strange stone effigies appearing throughout Vana'diel.\u007F1\u0000\u0007"
  3: 0x0071 [0x23] WAIT_FOR_DIALOG_INTERACTION
  4: 0x0072 [0x2B] Esmallegue (ID: 17719611/0x010E613B) [13449*]:
    → "I don't know if it's true or not, but some say that it was the wicked rituals of Orcish mesmerizers on the stones that caused them to assume that wretched form.\u007F1\u0000\u0007"
  5: 0x0079 [0x23] WAIT_FOR_DIALOG_INTERACTION
  6: 0x007A [0x66] LOAD_EXT_SCHEDULER_MAIN(work_offset=29*, entity1=EventEntity, entity2=EventEntity, action="twa1")
  7: 0x0089 [0x21] END_EVENT
  8: 0x008A [0x00] END_REQSTACK()
```
