# Event 65535

## Metadata

| Field           | Value    |
|-----------------|----------|
| Event Index     | 92/109   |
| Offset          | 0x056B   |
| Data Size       | 56 bytes |
| Calculated Size | 56 bytes |
| Instructions    | 10       |

```
      00 01 02 03 04 05 06 07  08 09 0A 0B 0C 0D 0E 0F
      -- -- -- -- -- -- -- --  -- -- -- -- -- -- -- --
0560:                                   1F 00 B4 80 B5             .....
0570: 80 B6 80 1F 01 6F 4A C7  21 03 01 F0 FF FF 7F 4A  .....oJ.!......J
0580: F0 FF FF 7F D3 20 03 01  4A D3 20 03 01 C7 21 03  ..... ..J. ...!.
0590: 01 6F 70 5B B7 80 C7 21  03 01 C7 21 03 01 67 73  .op[...!...!..gs
05A0: 74 30 00                                          t0.             
```

## Opcodes

```
  0: 0x056B [0x1F] MOVE_ENTITY: EventEntity moves to X=-562.919*, Z=40.561*, Y=1.999*
  1: 0x0573 [0x1F] MOVE_ENTITY: Update entity position (mode=1)
  2: 0x0575 [0x6F] WAIT_FRAME_DELAY: Yield until WaitTime reaches zero
  3: 0x0576 [0x4A] Rongelouts (ID: 16982471/0x010321C7) looks at LocalPlayer
  4: 0x057F [0x4A] LocalPlayer looks at Falzum (ID: 16982227/0x010320D3)
  5: 0x0588 [0x4A] Falzum (ID: 16982227/0x010320D3) looks at Rongelouts (ID: 16982471/0x010321C7)
  6: 0x0591 [0x6F] WAIT_FRAME_DELAY: Yield until WaitTime reaches zero
  7: 0x0592 [0x70] WAIT_ENTITY_RENDER_FLAG: Wait while EventEntity->Render.Flags3 bit 2 is set (cancel turn if not)
  8: 0x0593 [0x5B] LOAD_EXT_SCHEDULER: Load scheduler "gst0" with entities [Rongelouts (ID: 16982471/0x010321C7), Rongelouts (ID: 16982471/0x010321C7)], work=1116*
  9: 0x05A2 [0x00] END_REQSTACK()
```
