# Event 65535

## Metadata

| Field           | Value    |
|-----------------|----------|
| Event Index     | 14/24    |
| Offset          | 0x01C9   |
| Data Size       | 31 bytes |
| Calculated Size | 31 bytes |
| Instructions    | 10       |

```
      00 01 02 03 04 05 06 07  08 09 0A 0B 0C 0D 0E 0F
      -- -- -- -- -- -- -- --  -- -- -- -- -- -- -- --
01C0:                             22 00 1C 16 80 37 17           "....7.
01D0: 80 18 80 19 80 1A 80 1F  00 1B 80 1C 80 19 80 1F  ................
01E0: 01 6F 39 1D 80 6F 70 00                           .o9..op.        
```

## Opcodes

```
  0: 0x01C9 [0x22] ENTITY_HIDE_FLAG(enabled=0x00)
  1: 0x01CB [0x1C] WAIT(270* ticks)
  2: 0x01CE [0x37] UPDATE_EVENT_POSITION_AND_DIR: x=20.517*, z=-75.086*, y=8.999*, direction=355.2°*
  3: 0x01D7 [0x1F] MOVE_ENTITY: EventEntity moves to X=25.256*, Z=-77.854*, Y=8.999*
  4: 0x01DF [0x1F] MOVE_ENTITY: Update entity position (mode=1)
  5: 0x01E1 [0x6F] WAIT_FRAME_DELAY: Yield until WaitTime reaches zero
  6: 0x01E2 [0x39] SET_ENTITY_DIRECTION(direction=15.9°*)
  7: 0x01E5 [0x6F] WAIT_FRAME_DELAY: Yield until WaitTime reaches zero
  8: 0x01E6 [0x70] WAIT_ENTITY_RENDER_FLAG: Wait while EventEntity->Render.Flags3 bit 2 is set (cancel turn if not)
  9: 0x01E7 [0x00] END_REQSTACK()
```
