# Event 66

## Metadata

| Field           | Value    |
|-----------------|----------|
| Event Index     | 3/24     |
| Offset          | 0x0005   |
| Data Size       | 41 bytes |
| Calculated Size | 41 bytes |
| Instructions    | 11       |

```
      00 01 02 03 04 05 06 07  08 09 0A 0B 0C 0D 0E 0F
      -- -- -- -- -- -- -- --  -- -- -- -- -- -- -- --
0000:                4A F0 FF  FF 7F F8 FF FF 7F 1E F0       J..........
0010: FF FF 7F 6F 70 66 01 80  F8 FF FF 7F F8 FF FF 7F  ...opf..........
0020: 74 6C 6B 30 1D 02 80 23  1D 03 80 23 21 00        tlk0...#...#!.  
```

## Opcodes

```
  0: 0x0005 [0x4A] LocalPlayer looks at EventEntity
  1: 0x000E [0x1E] EventEntity looks at LocalPlayer and starts talking
  2: 0x0013 [0x6F] WAIT_FRAME_DELAY: Yield until WaitTime reaches zero
  3: 0x0014 [0x70] WAIT_ENTITY_RENDER_FLAG: Wait while EventEntity->Render.Flags3 bit 2 is set (cancel turn if not)
  4: 0x0015 [0x66] LOAD_EXT_SCHEDULER_MAIN: Load scheduler "tlk0" with entities [EventEntity, EventEntity], work=60*
  5: 0x0024 [0x1D] PRINT_EVENT_MESSAGE(message_id=10050*)
    → "Delkfutt's Tower is on the island of Qufim. Scour the town for deals on gear, and remember that there's safety in numbers.\u007F1\u0000\u0007"
  6: 0x0027 [0x23] WAIT_FOR_DIALOG_INTERACTION
  7: 0x0028 [0x1D] PRINT_EVENT_MESSAGE(message_id=10051*)
    → "That place is full of monsters, so watch your back\u007F\u0005[, jack./.]\u007F1\u0000\u0007"
  8: 0x002B [0x23] WAIT_FOR_DIALOG_INTERACTION
  9: 0x002C [0x21] END_EVENT
 10: 0x002D [0x00] END_REQSTACK()
```
