# Event 65535

## Metadata

| Field           | Value    |
|-----------------|----------|
| Event Index     | 19/28    |
| Offset          | 0x03DE   |
| Data Size       | 48 bytes |
| Calculated Size | 48 bytes |
| Instructions    | 9        |

```
      00 01 02 03 04 05 06 07  08 09 0A 0B 0C 0D 0E 0F
      -- -- -- -- -- -- -- --  -- -- -- -- -- -- -- --
03D0:                                            79 00                y.
03E0: 85 62 06 01 F0 FF FF 7F  37 42 80 43 80 44 80 45  .b......7B.C.D.E
03F0: 80 32 18 80 1F 00 46 80  47 80 48 80 1F 01 1F 00  .2....F.G.H.....
0400: 49 80 4A 80 4B 80 1F 01  1E F0 FF FF 7F 00        I.J.K.........  
```

## Opcodes

```
  0: 0x03DE [0x79] Carbuncle (ID: 17195653/0x01066285) looks at LocalPlayer (Basic look)
  1: 0x03E8 [0x37] UPDATE_EVENT_POSITION_AND_DIR: x=-179.164*, z=254.423*, y=7.847*, direction=228.2°*
  2: 0x03F1 [0x32] ExtData[1]->MainSpeed = 40* * 0.1
  3: 0x03F4 [0x1F] MOVE_ENTITY: EventEntity moves to X=-177.504*, Z=253.563*, Y=7.887*
  4: 0x03FC [0x1F] MOVE_ENTITY: Update entity position (mode=1)
  5: 0x03FE [0x1F] MOVE_ENTITY: EventEntity moves to X=-176.067*, Z=253.840*, Y=7.876*
  6: 0x0406 [0x1F] MOVE_ENTITY: Update entity position (mode=1)
  7: 0x0408 [0x1E] EventEntity looks at LocalPlayer and starts talking
  8: 0x040D [0x00] END_REQSTACK()
```
