# Event 65535

## Metadata

| Field           | Value    |
|-----------------|----------|
| Event Index     | 16/28    |
| Offset          | 0x0360   |
| Data Size       | 43 bytes |
| Calculated Size | 43 bytes |
| Instructions    | 8        |

```
      00 01 02 03 04 05 06 07  08 09 0A 0B 0C 0D 0E 0F
      -- -- -- -- -- -- -- --  -- -- -- -- -- -- -- --
0360: 03 01 00 37 80 37 2C 80  2D 80 37 80 38 80 02 01  ...7.7,.-.7.8...
0370: 00 39 80 03 8A 03 37 2C  80 2D 80 01 00 38 80 1C  .9....7,.-...8..
0380: 3A 80 07 01 00 3B 80 01  6E 03 00                 :....;..n..     
```

## Opcodes

```
  0: 0x0360 [0x03] ExtData[1]->WorkLocal[1] = 4294946068*
  1: 0x0365 [0x37] UPDATE_EVENT_POSITION_AND_DIR: x=-171.930*, z=244.261*, y=-21.228*, direction=246.1°*
  2: 0x036E [0x02] IF !(ExtData[1]->WorkLocal[1] >= 4294954296*) GOTO 0x038A
  3: 0x0376 [0x37] UPDATE_EVENT_POSITION_AND_DIR: x=-171.930*, z=244.261*, y=ExtData[1]->WorkLocal[1], direction=246.1°*
  4: 0x037F [0x1C] WAIT(2* ticks)
  5: 0x0382 [0x07] ExtData[1]->WorkLocal[1] += 90*
  6: 0x0387 [0x01] GOTO 0x036E

SUBROUTINE_038A:
  7: 0x038A [0x00] END_REQSTACK()
```
