# Event 65535

## Metadata

| Field           | Value    |
|-----------------|----------|
| Event Index     | 12/15    |
| Offset          | 0x005F   |
| Data Size       | 52 bytes |
| Calculated Size | 52 bytes |
| Instructions    | 10       |

```
      00 01 02 03 04 05 06 07  08 09 0A 0B 0C 0D 0E 0F
      -- -- -- -- -- -- -- --  -- -- -- -- -- -- -- --
0050:                                               37                 7
0060: 03 80 04 80 05 80 06 80  32 07 80 1F 00 08 80 09  ........2.......
0070: 80 0A 80 1F 01 6F 1E 42  13 05 01 7B 4A 13 05 01  .....o.B...{J...
0080: 5B 0B 80 4A 13 05 01 4A  13 05 01 6D 73 64 30 1C  [..J...J...msd0.
0090: 0C 80 00                                          ...             
```

## Opcodes

```
  0: 0x005F [0x37] UPDATE_EVENT_POSITION_AND_DIR: x=127.132*, z=225.070*, y=-59.284*, direction=57.7°*
  1: 0x0068 [0x32] ExtData[1]->MainSpeed = 13* * 0.1
  2: 0x006B [0x1F] MOVE_ENTITY: EventEntity moves to X=128.000*, Z=223.509*, Y=-59.203*
  3: 0x0073 [0x1F] MOVE_ENTITY: Update entity position (mode=1)
  4: 0x0075 [0x6F] WAIT_FRAME_DELAY: Yield until WaitTime reaches zero
  5: 0x0076 [0x1E] EventEntity looks at Lilisette (ID: 17109826/0x01051342) and starts talking
  6: 0x007B [0x7B] Mayakov (ID: 17109834/0x0105134A) stops talking
  7: 0x0080 [0x5B] LOAD_EXT_SCHEDULER(work_offset=2173*, entity1=Mayakov (ID: 17109834/0x0105134A), entity2=Mayakov (ID: 17109834/0x0105134A), action="msd0")
  8: 0x008F [0x1C] WAIT(60* ticks)
  9: 0x0092 [0x00] END_REQSTACK()
```
