# Event 35

## Metadata

| Field           | Value    |
|-----------------|----------|
| Event Index     | 4/8      |
| Offset          | 0x0003   |
| Data Size       | 60 bytes |
| Calculated Size | 60 bytes |
| Instructions    | 10       |

```
      00 01 02 03 04 05 06 07  08 09 0A 0B 0C 0D 0E 0F
      -- -- -- -- -- -- -- --  -- -- -- -- -- -- -- --
0000:          1E F0 FF FF 7F  6F 76 F8 FF FF 7F 5B 00     .....ov....[.
0010: 80 F8 FF FF 7F F8 FF FF  7F 74 6C 6B 30 1D 01 80  .........tlk0...
0020: 23 5B 00 80 F8 FF FF 7F  F8 FF FF 7F 74 6C 6B 31  #[..........tlk1
0030: 53 F8 FF FF 7F F8 FF FF  7F 74 6C 6B 31 21 00     S........tlk1!. 
```

## Opcodes

```
  0: 0x0003 [0x1E] EventEntity looks at LocalPlayer and starts talking
  1: 0x0008 [0x6F] WAIT_FRAME_DELAY: Yield until WaitTime reaches zero
  2: 0x0009 [0x76] CHECK_ENTITY_RENDER_FLAGS: Wait until EventEntity Render.Flags0 and Render.Flags3 conditions are met
  3: 0x000E [0x5B] LOAD_EXT_SCHEDULER(work_offset=90*, entity1=EventEntity, entity2=EventEntity, action="tlk0")
  4: 0x001D [0x1D] PRINT_EVENT_MESSAGE(message_id=7605*)
    → "I've never lost a fight here. This town is full of wimps!\u007F1\u0000\u0007"
  5: 0x0020 [0x23] WAIT_FOR_DIALOG_INTERACTION
  6: 0x0021 [0x5B] LOAD_EXT_SCHEDULER(work_offset=90*, entity1=EventEntity, entity2=EventEntity, action="tlk1")
  7: 0x0030 [0x53] WAIT_SCHEDULER_TASK(entity1=EventEntity, entity2=EventEntity, action_id="tlk1")
  8: 0x003D [0x21] END_EVENT
  9: 0x003E [0x00] END_REQSTACK()
```
