# Event 77

## Metadata

| Field           | Value    |
|-----------------|----------|
| Event Index     | 7/8      |
| Offset          | 0x00BF   |
| Data Size       | 60 bytes |
| Calculated Size | 60 bytes |
| Instructions    | 10       |

```
      00 01 02 03 04 05 06 07  08 09 0A 0B 0C 0D 0E 0F
      -- -- -- -- -- -- -- --  -- -- -- -- -- -- -- --
00B0:                                               1E                 .
00C0: F0 FF FF 7F 6F 76 F8 FF  FF 7F 5B 00 80 F8 FF FF  ....ov....[.....
00D0: 7F F8 FF FF 7F 74 6C 6B  30 1D 06 80 23 5B 00 80  .....tlk0...#[..
00E0: F8 FF FF 7F F8 FF FF 7F  74 6C 6B 31 53 F8 FF FF  ........tlk1S...
00F0: 7F F8 FF FF 7F 74 6C 6B  31 21 00                 .....tlk1!.     
```

## Opcodes

```
  0: 0x00BF [0x1E] EventEntity looks at LocalPlayer and starts talking
  1: 0x00C4 [0x6F] WAIT_FRAME_DELAY: Yield until WaitTime reaches zero
  2: 0x00C5 [0x76] CHECK_ENTITY_RENDER_FLAGS: Wait until EventEntity Render.Flags0 and Render.Flags3 conditions are met
  3: 0x00CA [0x5B] LOAD_EXT_SCHEDULER: Load scheduler "tlk0" with entities [EventEntity, EventEntity], work=90*
  4: 0x00D9 [0x1D] PRINT_EVENT_MESSAGE(message_id=7610*)
    → "Panta never cries after he loses a fight, but he was bawling after he left the doctor's. Maybe he had a cavity?\u007F1\u0000\u0007"
  5: 0x00DC [0x23] WAIT_FOR_DIALOG_INTERACTION
  6: 0x00DD [0x5B] LOAD_EXT_SCHEDULER: Load scheduler "tlk1" with entities [EventEntity, EventEntity], work=90*
  7: 0x00EC [0x53] WAIT_SCHEDULER_TASK: Wait for scheduler "tlk1" with entities [EventEntity, EventEntity]
  8: 0x00F9 [0x21] END_EVENT
  9: 0x00FA [0x00] END_REQSTACK()
```
