# Event 65535

## Metadata

| Field           | Value    |
|-----------------|----------|
| Event Index     | 20/31    |
| Offset          | 0x00A9   |
| Data Size       | 68 bytes |
| Calculated Size | 68 bytes |
| Instructions    | 12       |

```
      00 01 02 03 04 05 06 07  08 09 0A 0B 0C 0D 0E 0F
      -- -- -- -- -- -- -- --  -- -- -- -- -- -- -- --
00A0:                             4A 17 01 10 01 F8 FF           J......
00B0: FF 7F 7B 17 01 10 01 1C  17 80 5B 15 80 F8 FF FF  ..{.......[.....
00C0: 7F F8 FF FF 7F 67 6F 73  30 1C 18 80 5B 19 80 17  .....gos0...[...
00D0: 01 10 01 17 01 10 01 67  72 65 30 1C 1A 80 32 00  .......gre0...2.
00E0: 80 1F 00 1B 80 1C 80 1D  80 1F 01 6F 00           ...........o.   
```

## Opcodes

```
  0: 0x00A9 [0x4A] Merleg (ID: 17826071/0x01100117) looks at EventEntity
  1: 0x00B2 [0x7B] Merleg (ID: 17826071/0x01100117) stops talking
  2: 0x00B7 [0x1C] WAIT(300* ticks)
  3: 0x00BA [0x5B] LOAD_EXT_SCHEDULER(work_offset=174*, entity1=EventEntity, entity2=EventEntity, action="gos0")
  4: 0x00C9 [0x1C] WAIT(240* ticks)
  5: 0x00CC [0x5B] LOAD_EXT_SCHEDULER(work_offset=65*, entity1=Merleg (ID: 17826071/0x01100117), entity2=Merleg (ID: 17826071/0x01100117), action="gre0")
  6: 0x00DB [0x1C] WAIT(90* ticks)
  7: 0x00DE [0x32] ExtData[1]->MainSpeed = 13* * 0.1
  8: 0x00E1 [0x1F] MOVE_ENTITY: EventEntity moves to X=50.882*, Z=143.518*, Y=31.999*
  9: 0x00E9 [0x1F] MOVE_ENTITY: Update entity position (mode=1)
 10: 0x00EB [0x6F] WAIT_FRAME_DELAY: Yield until WaitTime reaches zero
 11: 0x00EC [0x00] END_REQSTACK()
```
