# Event 541

## Metadata

| Field           | Value    |
|-----------------|----------|
| Event Index     | 5/5      |
| Offset          | 0x0064   |
| Data Size       | 41 bytes |
| Calculated Size | 41 bytes |
| Instructions    | 13       |

```
      00 01 02 03 04 05 06 07  08 09 0A 0B 0C 0D 0E 0F
      -- -- -- -- -- -- -- --  -- -- -- -- -- -- -- --
0060:             42 20 01 1E  F0 FF FF 7F 6F 70 66 00      B ......opf.
0070: 80 F8 FF FF 7F F8 FF FF  7F 74 6C 6B 30 1D 07 80  .........tlk0...
0080: 23 5E 69 64 6C 30 1C 02  80 20 00 21 00           #^idl0... .!.   
```

## Opcodes

```
  0: 0x0064 [0x42] SET_CLI_EVENT_CANCEL_DATA()
  1: 0x0065 [0x20] SET_CLI_EVENT_UC_FLAG: Lock player control
  2: 0x0067 [0x1E] EventEntity looks at LocalPlayer and starts talking
  3: 0x006C [0x6F] WAIT_FRAME_DELAY: Yield until WaitTime reaches zero
  4: 0x006D [0x70] WAIT_ENTITY_RENDER_FLAG: Wait while EventEntity->Render.Flags3 bit 2 is set (cancel turn if not)
  5: 0x006E [0x66] LOAD_EXT_SCHEDULER_MAIN(work_offset=20*, entity1=EventEntity, entity2=EventEntity, action="tlk0")
  6: 0x007D [0x1D] PRINT_EVENT_MESSAGE(message_id=7556*)
    → "Huh? I didn't order this! Here, take it back.\u007F1\u0000\u0007"
  7: 0x0080 [0x23] WAIT_FOR_DIALOG_INTERACTION
  8: 0x0081 [0x5E] EventEntity goes idle (kills current action) (animation: "idl0")
  9: 0x0086 [0x1C] WAIT(30* ticks)
 10: 0x0089 [0x20] SET_CLI_EVENT_UC_FLAG: Unlock player control
 11: 0x008B [0x21] END_EVENT
 12: 0x008C [0x00] END_REQSTACK()
```
