# Event 619

## Metadata

| Field           | Value    |
|-----------------|----------|
| Event Index     | 2/4      |
| Offset          | 0x0001   |
| Data Size       | 41 bytes |
| Calculated Size | 41 bytes |
| Instructions    | 7        |

```
      00 01 02 03 04 05 06 07  08 09 0A 0B 0C 0D 0E 0F
      -- -- -- -- -- -- -- --  -- -- -- -- -- -- -- --
0000:    1E F0 FF FF 7F 66 00  80 03 02 05 01 03 02 05   .....f.........
0010: 01 74 6C 6B 30 1D 01 80  23 66 00 80 03 02 05 01  .tlk0...#f......
0020: 03 02 05 01 74 6C 6B 31  21 00                    ....tlk1!.      
```

## Opcodes

```
  0: 0x0001 [0x1E] EventEntity looks at LocalPlayer and starts talking
  1: 0x0006 [0x66] LOAD_EXT_SCHEDULER_MAIN: Load scheduler "tlk0" with entities [Elnonde (ID: 17105411/0x01050203), Elnonde (ID: 17105411/0x01050203)], work=20*
  2: 0x0015 [0x1D] PRINT_EVENT_MESSAGE(message_id=12121*)
    → "I don't think any had imagined that the scattered beastmen would conspire to align with one another. And then to organize an offensive, of all things! There must be a great and evil charisma at work...\u007F1\u0000\u0007"
  3: 0x0018 [0x23] WAIT_FOR_DIALOG_INTERACTION
  4: 0x0019 [0x66] LOAD_EXT_SCHEDULER_MAIN: Load scheduler "tlk1" with entities [Elnonde (ID: 17105411/0x01050203), Elnonde (ID: 17105411/0x01050203)], work=20*
  5: 0x0028 [0x21] END_EVENT
  6: 0x0029 [0x00] END_REQSTACK()
```
