# Event 65535

## Metadata

| Field           | Value    |
|-----------------|----------|
| Event Index     | 13/18    |
| Offset          | 0x00C2   |
| Data Size       | 47 bytes |
| Calculated Size | 47 bytes |
| Instructions    | 10       |

```
      00 01 02 03 04 05 06 07  08 09 0A 0B 0C 0D 0E 0F
      -- -- -- -- -- -- -- --  -- -- -- -- -- -- -- --
00C0:       27 10 AC 72 05 01  0C 1C 0F 80 4B A6 72 05    '..r......K.r.
00D0: 01 10 80 1C 11 80 4B F0  FF FF 7F 12 80 1C 02 80  ......K.........
00E0: 4B A5 72 05 01 10 80 1C  06 80 2A 10 AC 72 05 01  K.r.......*..r..
00F0: 00                                                .               
```

## Opcodes

```
  0: 0x00C2 [0x27] REQ_SET(priority=0x10, entity_id=Zazarg (ID: 17134252/0x010572AC), tag_num=0x0C)
  1: 0x00C9 [0x1C] WAIT(65* ticks)
  2: 0x00CC [0x4B] UPDATE_ENTITY_YAW(entity=Halver M Borel (ID: 17134246/0x010572A6), yaw=20.87°*)
  3: 0x00D3 [0x1C] WAIT(15* ticks)
  4: 0x00D6 [0x4B] UPDATE_ENTITY_YAW(entity=LocalPlayer, yaw=20.32°*)
  5: 0x00DD [0x1C] WAIT(10* ticks)
  6: 0x00E0 [0x4B] UPDATE_ENTITY_YAW(entity=Lilisette (ID: 17134245/0x010572A5), yaw=20.87°*)
  7: 0x00E7 [0x1C] WAIT(30* ticks)
  8: 0x00EA [0x2A] GET_REQ_LEVEL(level=16, entity_id=Zazarg (ID: 17134252/0x010572AC))
  9: 0x00F0 [0x00] END_REQSTACK()
```
