# Event 65535

## Metadata

| Field           | Value    |
|-----------------|----------|
| Event Index     | 5/16     |
| Offset          | 0x0032   |
| Data Size       | 47 bytes |
| Calculated Size | 47 bytes |
| Instructions    | 8        |

```
      00 01 02 03 04 05 06 07  08 09 0A 0B 0C 0D 0E 0F
      -- -- -- -- -- -- -- --  -- -- -- -- -- -- -- --
0030:       BA C7 21 03 01 07  80 08 80 02 80 09 80 32    ..!..........2
0040: 04 80 79 00 C7 21 03 01  CB 21 03 01 1F 00 0A 80  ..y..!...!......
0050: 0B 80 02 80 1F 01 6F 4A  C7 21 03 01 CB 21 03 01  ......oJ.!...!..
0060: 00                                                .               
```

## Opcodes

```
  0: 0x0032 [0xBA] SET_ENTITY_POSITION(entity_id=Rongelouts (ID: 16982471/0x010321C7), pos_x=-566.133*, pos_z=38.132*, pos_y=1.999*, direction=113.6°*)
  1: 0x003F [0x32] ExtData[1]->MainSpeed = 13* * 0.1
  2: 0x0042 [0x79] Rongelouts (ID: 16982471/0x010321C7) looks at Neosaliat (ID: 16982475/0x010321CB) (Basic look)
  3: 0x004C [0x1F] MOVE_ENTITY: EventEntity moves to X=-565.935*, Z=42.681*, Y=1.999*
  4: 0x0054 [0x1F] MOVE_ENTITY: Update entity position (mode=1)
  5: 0x0056 [0x6F] WAIT_FRAME_DELAY: Yield until WaitTime reaches zero
  6: 0x0057 [0x4A] Rongelouts (ID: 16982471/0x010321C7) looks at Neosaliat (ID: 16982475/0x010321CB)
  7: 0x0060 [0x00] END_REQSTACK()
```
