# Event 65535

## Metadata

| Field           | Value    |
|-----------------|----------|
| Event Index     | 7/11     |
| Offset          | 0x004A   |
| Data Size       | 48 bytes |
| Calculated Size | 48 bytes |
| Instructions    | 12       |

```
      00 01 02 03 04 05 06 07  08 09 0A 0B 0C 0D 0E 0F
      -- -- -- -- -- -- -- --  -- -- -- -- -- -- -- --
0040:                                7B F8 FF FF 7F 1C            {.....
0050: 0D 80 32 0E 80 1F 00 0F  80 10 80 0B 80 1F 01 1F  ..2.............
0060: 00 11 80 12 80 13 80 1F  01 1F 00 14 80 15 80 07  ................
0070: 80 1F 01 6F 1E 21 E2 0B  01 00                    ...o.!....      
```

## Opcodes

```
  0: 0x004A [0x7B] EventEntity stops talking
  1: 0x004F [0x1C] WAIT(30* ticks)
  2: 0x0052 [0x32] ExtData[1]->MainSpeed = 40* * 0.1
  3: 0x0055 [0x1F] MOVE_ENTITY: EventEntity moves to X=-48.707*, Z=21.637*, Y=8.999*
  4: 0x005D [0x1F] MOVE_ENTITY: Update entity position (mode=1)
  5: 0x005F [0x1F] MOVE_ENTITY: EventEntity moves to X=-41.704*, Z=19.988*, Y=8.000*
  6: 0x0067 [0x1F] MOVE_ENTITY: Update entity position (mode=1)
  7: 0x0069 [0x1F] MOVE_ENTITY: EventEntity moves to X=-36.745*, Z=18.664*, Y=7.499*
  8: 0x0071 [0x1F] MOVE_ENTITY: Update entity position (mode=1)
  9: 0x0073 [0x6F] WAIT_FRAME_DELAY: Yield until WaitTime reaches zero
 10: 0x0074 [0x1E] EventEntity looks at Rahal (ID: 17556001/0x010BE221) and starts talking
 11: 0x0079 [0x00] END_REQSTACK()
```
