# 0x7FFFFFF0 - Zone Events

## Common Data

| Field            | Value                           |
|------------------|---------------------------------|
| Zone             | Ra'Kaznar Inner Court (ID: 276) |
| Block Size       | 4068 bytes                      |
| Total Events     | 54                              |
| References Count | 151                             |

## List of Events

| Event ID                   | Entrypoint   |   Size |   Instructions |
|----------------------------|--------------|--------|----------------|
| [65535](#event-65535)      | 0x0000       |      1 |              1 |
| [65534](#event-65534)      | 0x0001       |      1 |              1 |
| [65535.1](#event-655351)   | 0x0002       |      6 |              2 |
| [65535.2](#event-655352)   | 0x0008       |      6 |              2 |
| [65535.3](#event-655353)   | 0x000E       |      7 |              3 |
| [65535.4](#event-655354)   | 0x0015       |      7 |              3 |
| [10](#event-10)            | 0x001C       |     19 |              5 |
| [11](#event-11)            | 0x002F       |     19 |              5 |
| [12](#event-12)            | 0x0042       |     19 |              5 |
| [13](#event-13)            | 0x0055       |     19 |              5 |
| [14](#event-14)            | 0x0068       |     19 |              5 |
| [15](#event-15)            | 0x007B       |     19 |              5 |
| [16](#event-16)            | 0x008E       |     19 |              5 |
| [17](#event-17)            | 0x00A1       |     19 |              5 |
| [18](#event-18)            | 0x00B4       |     19 |              5 |
| [19](#event-19)            | 0x00C7       |     19 |              5 |
| [20](#event-20)            | 0x00DA       |     19 |              5 |
| [21](#event-21)            | 0x00ED       |    147 |             23 |
| [22](#event-22)            | 0x0180       |     19 |              5 |
| [23](#event-23)            | 0x0193       |     19 |              5 |
| [24](#event-24)            | 0x01A6       |     19 |              5 |
| [25](#event-25)            | 0x01B9       |     19 |              5 |
| [26](#event-26)            | 0x01CC       |     19 |              5 |
| [27](#event-27)            | 0x01DF       |     19 |              5 |
| [28](#event-28)            | 0x01F2       |     19 |              5 |
| [29](#event-29)            | 0x0205       |    147 |             23 |
| [8](#event-8)              | 0x0298       |     41 |              5 |
| [9](#event-9)              | 0x02C1       |    186 |             36 |
| [65535.5](#event-655355)   | 0x037B       |      6 |              2 |
| [65535.6](#event-655356)   | 0x0381       |      6 |              2 |
| [65535.7](#event-655357)   | 0x0387       |      6 |              2 |
| [65535.8](#event-655358)   | 0x038D       |      6 |              2 |
| [65535.9](#event-655359)   | 0x0393       |     27 |              3 |
| [65535.10](#event-6553510) | 0x03AE       |     24 |              4 |
| [65535.11](#event-6553511) | 0x03C6       |     24 |              4 |
| [65535.12](#event-6553512) | 0x03DE       |     37 |              5 |
| [65535.13](#event-6553513) | 0x0403       |     37 |              5 |
| [65535.14](#event-6553514) | 0x0428       |     27 |              5 |
| [65535.15](#event-6553515) | 0x0443       |     10 |              2 |
| [65535.16](#event-6553516) | 0x044D       |     14 |              4 |
| [65535.17](#event-6553517) | 0x045B       |     55 |             12 |
| [65535.18](#event-6553518) | 0x0492       |     10 |              2 |
| [65535.19](#event-6553519) | 0x049C       |     14 |              4 |
| [65535.20](#event-6553520) | 0x04AA       |     53 |             12 |
| [65535.21](#event-6553521) | 0x04DF       |      3 |              2 |
| [65535.22](#event-6553522) | 0x04E2       |     38 |              5 |
| [65535.23](#event-6553523) | 0x0508       |     38 |              5 |
| [65535.24](#event-6553524) | 0x052E       |     38 |              5 |
| [65535.25](#event-6553525) | 0x0554       |     37 |              5 |
| [65535.26](#event-6553526) | 0x0579       |     37 |              5 |
| [65535.27](#event-6553527) | 0x059E       |     42 |              6 |
| [5515](#event-5515)        | 0x05C8       |    233 |             53 |
| [5517](#event-5517)        | 0x06B1       |   1389 |            301 |
| [5504](#event-5504)        | 0x0C1E       |    128 |             14 |

## DAT References (imed_data)

|   Index | Hex Value   |   Dec Value |
|---------|-------------|-------------|
|       0 | 0x0001      |           1 |
|       1 | 0x0000      |           0 |
|       2 | 0x102CA0    |     1060000 |
|       3 | 0x42E50     |      274000 |
|       4 | 0x18542     |       99650 |
|       5 | 0x0C00      |        3072 |
|       6 | 0xFFFD40E0  |  4294787296 |
|       7 | 0x3C0F0     |      246000 |
|       8 | 0xFFF8ABA2  |  4294486946 |
|       9 | 0x0400      |        1024 |
|      10 | 0xD84F0     |      886000 |
|      11 | 0x493E0     |      300000 |
|      12 | 0x1D362     |      119650 |
|      13 | 0x0800      |        2048 |
|      14 | 0xFFFB0690  |  4294641296 |
|      15 | 0xFFF96EF2  |  4294536946 |
|      16 | 0x53020     |      340000 |
|      17 | 0x45D30     |      286000 |
|      18 | 0x13722     |       79650 |
|      19 | 0xFFF24460  |  4294067296 |
|      20 | 0x4CA90     |      314000 |
|      21 | 0xFFF83672  |  4294456946 |
|      22 | 0x7D7D0     |      514000 |
|      23 | 0xFFFC0860  |  4294707296 |
|      24 | 0xFFF47EB0  |  4294213296 |
|      25 | 0xF59B0     |     1006000 |
|      26 | 0xFFFCDB50  |  4294761296 |
|      27 | 0xFFF85D82  |  4294466946 |
|      28 | 0xE2130     |      926000 |
|      29 | 0xFFFF15A0  |  4294907296 |
|      30 | 0xFFFBA2D0  |  4294681296 |
|      31 | 0xFFF8D2B2  |  4294496946 |
|      32 | 0x00FE      |         254 |
|      33 | 0x000E      |          14 |
|      34 | 0x0014      |          20 |
|      35 | 0x00C8      |         200 |
|      36 | 0x00FF      |         255 |
|      37 | 0x57864     |      358500 |
|      38 | 0x186A0     |      100000 |
|      39 | 0x15D38     |       89400 |
|      40 | 0xFFF1FC1C  |  4294048796 |
|      41 | 0xFFF96DF8  |  4294536696 |
|      42 | 0xFFFE2564  |  4294845796 |
|      43 | 0x13628     |       79400 |
|      44 | 0xFFF1A820  |  4294027296 |
|      45 | 0xFFFD94DC  |  4294808796 |
|      46 | 0xFFF8F8C8  |  4294506696 |
|      47 | 0x668A0     |      420000 |
|      48 | 0xFFFC50A4  |  4294725796 |
|      49 | 0xFFF37CE0  |  4294147296 |
|      50 | 0xFFFBC01C  |  4294688796 |
|      51 | 0xFFF91FD8  |  4294516696 |
|      52 | 0xE0F9C     |      921500 |
|      53 | 0xFFFDDD20  |  4294827296 |
|      54 | 0xFFFBB464  |  4294685796 |
|      55 | 0xFFF946E8  |  4294526696 |
|      56 | 0x0002      |           2 |
|      57 | 0x008C      |         140 |
|      58 | 0x003C      |          60 |
|      59 | 0x00AA      |         170 |
|      60 | 0x0005      |           5 |
|      61 | 0x000A      |          10 |
|      62 | 0x0009      |           9 |
|      63 | 0x0046      |          70 |
|      64 | 0x00D2      |         210 |
|      65 | 0xFFF8FB20  |  4294507296 |
|      66 | 0x6D26      |       27942 |
|      67 | 0xFFFDDD82  |  4294827394 |
|      68 | 0x0425      |        1061 |
|      69 | 0x000D      |          13 |
|      70 | 0x49D4      |       18900 |
|      71 | 0xFFF5EDE0  |  4294307296 |
|      72 | 0x13880     |       80000 |
|      73 | 0x002D      |          45 |
|      74 | 0x13C68     |       81000 |
|      75 | 0x6D60      |       28000 |
|      76 | 0xFFFE2B40  |  4294847296 |
|      77 | 0xFFFFF800  |  4294965248 |
|      78 | 0x4AF5      |       19189 |
|      79 | 0x0026      |          38 |
|      80 | 0xFFFE2780  |  4294846336 |
|      81 | 0x0008      |           8 |
|      82 | 0x0007      |           7 |
|      83 | 0x0091      |         145 |
|      84 | 0x004F      |          79 |
|      85 | 0x004C      |          76 |
|      86 | 0x00C9      |         201 |
|      87 | 0x0018      |          24 |
|      88 | 0x0020      |          32 |
|      89 | 0x0030      |          48 |
|      90 | 0x0040      |          64 |
|      91 | 0x0003      |           3 |
|      92 | 0x001F      |          31 |
|      93 | 0xFFFFFFFF  |  4294967295 |
|      94 | 0x1E41      |        7745 |
|      95 | 0x40000000  |  1073741824 |
|      96 | 0x000B      |          11 |
|      97 | 0x000C      |          12 |
|      98 | 0x000F      |          15 |
|      99 | 0x0010      |          16 |
|     100 | 0x001D      |          29 |
|     101 | 0x0015      |          21 |
|     102 | 0x1E4E      |        7758 |
|     103 | 0x1E2D      |        7725 |
|     104 | 0x1E2E      |        7726 |
|     105 | 0x1E35      |        7733 |
|     106 | 0x1E30      |        7728 |
|     107 | 0x0B90      |        2960 |
|     108 | 0x1ED4      |        7892 |
|     109 | 0x0004      |           4 |
|     110 | 0x0006      |           6 |
|     111 | 0x1E4C      |        7756 |
|     112 | 0x1ED5      |        7893 |
|     113 | 0x1E4B      |        7755 |
|     114 | 0x1EE0      |        7904 |
|     115 | 0x1E32      |        7730 |
|     116 | 0x0078      |         120 |
|     117 | 0x0356      |         854 |
|     118 | 0x0103      |         259 |
|     119 | 0x1E3E      |        7742 |
|     120 | 0x035F      |         863 |
|     121 | 0x0360      |         864 |
|     122 | 0x0361      |         865 |
|     123 | 0x0362      |         866 |
|     124 | 0x0363      |         867 |
|     125 | 0x0364      |         868 |
|     126 | 0x0365      |         869 |
|     127 | 0x0366      |         870 |
|     128 | 0x0367      |         871 |
|     129 | 0x1E2F      |        7727 |
|     130 | 0x005A      |          90 |
|     131 | 0x0348      |         840 |
|     132 | 0x0349      |         841 |
|     133 | 0x034A      |         842 |
|     134 | 0x034B      |         843 |
|     135 | 0x034C      |         844 |
|     136 | 0x034D      |         845 |
|     137 | 0x034E      |         846 |
|     138 | 0x034F      |         847 |
|     139 | 0x0350      |         848 |
|     140 | 0x0351      |         849 |
|     141 | 0x0352      |         850 |
|     142 | 0x0353      |         851 |
|     143 | 0x0354      |         852 |
|     144 | 0x0355      |         853 |
|     145 | 0x0357      |         855 |
|     146 | 0x0384      |         900 |
|     147 | 0x0385      |         901 |
|     148 | 0x0108      |         264 |
|     149 | 0x010F      |         271 |
|     150 | 0x00E5      |         229 |

## String References

- **7725**: Only party members present with you in this area will be transported to [/this skirmish in ////this alluvion skirmish in /]$8.
- **7726**: Proceed? [Yes./No.]
- **7727**: Now entering [/a skirmish in ////an alluvion skirmish in /]$8.
- **7728**: You have chosen not to enter [/this skirmish in ////this alluvion skirmish in /]$8.
- **7730**: You cannot enter at this time. Please wait a moment and try again.
- **7733**: Your request for entry is being considered...
- **7742**: Now permeating the mists surrounding the [fracture/obscured domain].
- **7745**: Enter which battlefield? [None./Endeavoring to Awaken./Endeavoring to Awaken./ /Behind the Sluices./Stonewalled./The Gates./Saved by the Bell./Quiescence./The Charlatan./Yggdrasil Beckons./Yggdrasil Beckons./Watery Grave./Mistress of Ceremonies./A Barrel of Laughs./Sinister Reign./The Ygnas Directive 6./Skirmishes./[Fractures/Obscured Domains]./Alluvion skirmishes./The Silent Forest./Wind of Eternity./Phantasmic Heroes.]
- **7755**: Consume your $3 and send all [party/alliance] members to [Fractures/the obscured domain]?
- **7756**: Which battlefield will you enter? [None./Sinister Reign./Arciela.[/y$26z]/Darrcuiln.[/y$26z]/Ingrid.[/y$26z]/Morimar.[/y$26z]/Rosulatia.[/y$26z]/Teodor.[/y$26z]/Arciela II.[/y$26z]/Sajj'aka.[/y$26z]/August.[/y$26z]]
- **7758**: Entering [/Skrimish: ////Alluvion Skirmish: /]$8. Proceed?
- **7892**: Your $3 emits a strange pulse!
- **7893**: Now what? [Use the $3./Do nothing.]
- **7904**: Proceed? [Yes./No.]

## Events

### Event 65535

#### Metadata

| Field        | Value   |
|--------------|---------|
| Entrypoint   | 0x0000  |
| Data Size    | 1 bytes |
| Instructions | 1       |

```
      00 01 02 03 04 05 06 07  08 09 0A 0B 0C 0D 0E 0F
      -- -- -- -- -- -- -- --  -- -- -- -- -- -- -- --
0000: 00                                                .               
```

#### Opcodes

```
  0: 0x0000 [0x00] END_REQSTACK()
```

### Event 65534

#### Metadata

| Field        | Value   |
|--------------|---------|
| Entrypoint   | 0x0001  |
| Data Size    | 1 bytes |
| Instructions | 1       |

```
      00 01 02 03 04 05 06 07  08 09 0A 0B 0C 0D 0E 0F
      -- -- -- -- -- -- -- --  -- -- -- -- -- -- -- --
0000:    00                                              .              
```

#### Opcodes

```
  0: 0x0001 [0x00] END_REQSTACK()
```

### Event 65535.1

#### Metadata

| Field        | Value   |
|--------------|---------|
| Entrypoint   | 0x0002  |
| Data Size    | 6 bytes |
| Instructions | 2       |

```
      00 01 02 03 04 05 06 07  08 09 0A 0B 0C 0D 0E 0F
      -- -- -- -- -- -- -- --  -- -- -- -- -- -- -- --
0000:       03 02 10 07 7F 00                             ......        
```

#### Opcodes

```
  0: 0x0002 [0x03] Work_Zone[2] = Entity->Race
  1: 0x0007 [0x00] END_REQSTACK()
```

### Event 65535.2

#### Metadata

| Field        | Value   |
|--------------|---------|
| Entrypoint   | 0x0008  |
| Data Size    | 6 bytes |
| Instructions | 2       |

```
      00 01 02 03 04 05 06 07  08 09 0A 0B 0C 0D 0E 0F
      -- -- -- -- -- -- -- --  -- -- -- -- -- -- -- --
0000:                          03 02 10 0B 7F 00                ......  
```

#### Opcodes

```
  0: 0x0008 [0x03] Work_Zone[2] = (Entity->Render.Flags01 >> 25) & 1
  1: 0x000D [0x00] END_REQSTACK()
```

### Event 65535.3

#### Metadata

| Field        | Value   |
|--------------|---------|
| Entrypoint   | 0x000E  |
| Data Size    | 7 bytes |
| Instructions | 3       |

```
      00 01 02 03 04 05 06 07  08 09 0A 0B 0C 0D 0E 0F
      -- -- -- -- -- -- -- --  -- -- -- -- -- -- -- --
0000:                                            AB 03                ..
0010: AC 01 00 80 00                                    .....           
```

#### Opcodes

```
  0: 0x000E [0xAB] EventEntity->Render.Flags0 ^= 0x20000 // Toggle bit 17
  1: 0x0010 [0xAC] EventEntity->StatusEvent = 1*
  2: 0x0014 [0x00] END_REQSTACK()
```

### Event 65535.4

#### Metadata

| Field        | Value   |
|--------------|---------|
| Entrypoint   | 0x0015  |
| Data Size    | 7 bytes |
| Instructions | 3       |

```
      00 01 02 03 04 05 06 07  08 09 0A 0B 0C 0D 0E 0F
      -- -- -- -- -- -- -- --  -- -- -- -- -- -- -- --
0010:                AC 01 01  80 AB 04 00                   .......    
```

#### Opcodes

```
  0: 0x0015 [0xAC] EventEntity->StatusEvent = 0*
  1: 0x0019 [0xAB] EventEntity->Render.Flags0 |= 0x40000 // Set bit 18
  2: 0x001B [0x00] END_REQSTACK()
```

### Event 10

#### Metadata

| Field        | Value    |
|--------------|----------|
| Entrypoint   | 0x001C   |
| Data Size    | 19 bytes |
| Instructions | 5        |

```
      00 01 02 03 04 05 06 07  08 09 0A 0B 0C 0D 0E 0F
      -- -- -- -- -- -- -- --  -- -- -- -- -- -- -- --
0010:                                      1A 00 01 47              ...G
0020: 00 02 80 03 80 04 80 05  80 47 01 1A 45 01 00     .........G..E.. 
```

#### Opcodes

```
  0: 0x001C [0x1A] CALL_SUBROUTINE(address=0x0100)
  1: 0x001F [0x47] UPDATE_PLAYER_POS(1060.000*, 274.000*, 99.650*, yaw=270.0°*)
  2: 0x0029 [0x47] WAIT_PLAYER_POS_UPDATE
  3: 0x002B [0x1A] CALL_SUBROUTINE(address=0x0145)
  4: 0x002E [0x00] END_REQSTACK()
```

### Event 11

#### Metadata

| Field        | Value    |
|--------------|----------|
| Entrypoint   | 0x002F   |
| Data Size    | 19 bytes |
| Instructions | 5        |

```
      00 01 02 03 04 05 06 07  08 09 0A 0B 0C 0D 0E 0F
      -- -- -- -- -- -- -- --  -- -- -- -- -- -- -- --
0020:                                               1A                 .
0030: 00 01 47 00 06 80 07 80  08 80 09 80 47 01 1A 45  ..G.........G..E
0040: 01 00                                             ..              
```

#### Opcodes

```
  0: 0x002F [0x1A] CALL_SUBROUTINE(address=0x0100)
  1: 0x0032 [0x47] UPDATE_PLAYER_POS(-180.000*, 246.000*, -480.350*, yaw=90.0°*)
  2: 0x003C [0x47] WAIT_PLAYER_POS_UPDATE
  3: 0x003E [0x1A] CALL_SUBROUTINE(address=0x0145)
  4: 0x0041 [0x00] END_REQSTACK()
```

### Event 12

#### Metadata

| Field        | Value    |
|--------------|----------|
| Entrypoint   | 0x0042   |
| Data Size    | 19 bytes |
| Instructions | 5        |

```
      00 01 02 03 04 05 06 07  08 09 0A 0B 0C 0D 0E 0F
      -- -- -- -- -- -- -- --  -- -- -- -- -- -- -- --
0040:       1A 00 01 47 00 0A  80 0B 80 0C 80 0D 80 47    ...G.........G
0050: 01 1A 45 01 00                                    ..E..           
```

#### Opcodes

```
  0: 0x0042 [0x1A] CALL_SUBROUTINE(address=0x0100)
  1: 0x0045 [0x47] UPDATE_PLAYER_POS(886.000*, 300.000*, 119.650*, yaw=180.0°*)
  2: 0x004F [0x47] WAIT_PLAYER_POS_UPDATE
  3: 0x0051 [0x1A] CALL_SUBROUTINE(address=0x0145)
  4: 0x0054 [0x00] END_REQSTACK()
```

### Event 13

#### Metadata

| Field        | Value    |
|--------------|----------|
| Entrypoint   | 0x0055   |
| Data Size    | 19 bytes |
| Instructions | 5        |

```
      00 01 02 03 04 05 06 07  08 09 0A 0B 0C 0D 0E 0F
      -- -- -- -- -- -- -- --  -- -- -- -- -- -- -- --
0050:                1A 00 01  47 00 0E 80 0B 80 0F 80       ...G.......
0060: 01 80 47 01 1A 45 01 00                           ..G..E..        
```

#### Opcodes

```
  0: 0x0055 [0x1A] CALL_SUBROUTINE(address=0x0100)
  1: 0x0058 [0x47] UPDATE_PLAYER_POS(-326.000*, 300.000*, -430.350*, yaw=0.0°*)
  2: 0x0062 [0x47] WAIT_PLAYER_POS_UPDATE
  3: 0x0064 [0x1A] CALL_SUBROUTINE(address=0x0145)
  4: 0x0067 [0x00] END_REQSTACK()
```

### Event 14

#### Metadata

| Field        | Value    |
|--------------|----------|
| Entrypoint   | 0x0068   |
| Data Size    | 19 bytes |
| Instructions | 5        |

```
      00 01 02 03 04 05 06 07  08 09 0A 0B 0C 0D 0E 0F
      -- -- -- -- -- -- -- --  -- -- -- -- -- -- -- --
0060:                          1A 00 01 47 00 10 80 11          ...G....
0070: 80 12 80 09 80 47 01 1A  45 01 00                 .....G..E..     
```

#### Opcodes

```
  0: 0x0068 [0x1A] CALL_SUBROUTINE(address=0x0100)
  1: 0x006B [0x47] UPDATE_PLAYER_POS(340.000*, 286.000*, 79.650*, yaw=90.0°*)
  2: 0x0075 [0x47] WAIT_PLAYER_POS_UPDATE
  3: 0x0077 [0x1A] CALL_SUBROUTINE(address=0x0145)
  4: 0x007A [0x00] END_REQSTACK()
```

### Event 15

#### Metadata

| Field        | Value    |
|--------------|----------|
| Entrypoint   | 0x007B   |
| Data Size    | 19 bytes |
| Instructions | 5        |

```
      00 01 02 03 04 05 06 07  08 09 0A 0B 0C 0D 0E 0F
      -- -- -- -- -- -- -- --  -- -- -- -- -- -- -- --
0070:                                   1A 00 01 47 00             ...G.
0080: 13 80 14 80 15 80 05 80  47 01 1A 45 01 00        ........G..E..  
```

#### Opcodes

```
  0: 0x007B [0x1A] CALL_SUBROUTINE(address=0x0100)
  1: 0x007E [0x47] UPDATE_PLAYER_POS(-900.000*, 314.000*, -510.350*, yaw=270.0°*)
  2: 0x0088 [0x47] WAIT_PLAYER_POS_UPDATE
  3: 0x008A [0x1A] CALL_SUBROUTINE(address=0x0145)
  4: 0x008D [0x00] END_REQSTACK()
```

### Event 16

#### Metadata

| Field        | Value    |
|--------------|----------|
| Entrypoint   | 0x008E   |
| Data Size    | 19 bytes |
| Instructions | 5        |

```
      00 01 02 03 04 05 06 07  08 09 0A 0B 0C 0D 0E 0F
      -- -- -- -- -- -- -- --  -- -- -- -- -- -- -- --
0080:                                            1A 00                ..
0090: 01 47 00 16 80 17 80 12  80 01 80 47 01 1A 45 01  .G.........G..E.
00A0: 00                                                .               
```

#### Opcodes

```
  0: 0x008E [0x1A] CALL_SUBROUTINE(address=0x0100)
  1: 0x0091 [0x47] UPDATE_PLAYER_POS(514.000*, -260.000*, 79.650*, yaw=0.0°*)
  2: 0x009B [0x47] WAIT_PLAYER_POS_UPDATE
  3: 0x009D [0x1A] CALL_SUBROUTINE(address=0x0145)
  4: 0x00A0 [0x00] END_REQSTACK()
```

### Event 17

#### Metadata

| Field        | Value    |
|--------------|----------|
| Entrypoint   | 0x00A1   |
| Data Size    | 19 bytes |
| Instructions | 5        |

```
      00 01 02 03 04 05 06 07  08 09 0A 0B 0C 0D 0E 0F
      -- -- -- -- -- -- -- --  -- -- -- -- -- -- -- --
00A0:    1A 00 01 47 00 18 80  17 80 08 80 0D 80 47 01   ...G.........G.
00B0: 1A 45 01 00                                       .E..            
```

#### Opcodes

```
  0: 0x00A1 [0x1A] CALL_SUBROUTINE(address=0x0100)
  1: 0x00A4 [0x47] UPDATE_PLAYER_POS(-754.000*, -260.000*, -480.350*, yaw=180.0°*)
  2: 0x00AE [0x47] WAIT_PLAYER_POS_UPDATE
  3: 0x00B0 [0x1A] CALL_SUBROUTINE(address=0x0145)
  4: 0x00B3 [0x00] END_REQSTACK()
```

### Event 18

#### Metadata

| Field        | Value    |
|--------------|----------|
| Entrypoint   | 0x00B4   |
| Data Size    | 19 bytes |
| Instructions | 5        |

```
      00 01 02 03 04 05 06 07  08 09 0A 0B 0C 0D 0E 0F
      -- -- -- -- -- -- -- --  -- -- -- -- -- -- -- --
00B0:             1A 00 01 47  00 19 80 17 80 12 80 0D      ...G........
00C0: 80 47 01 1A 45 01 00                              .G..E..         
```

#### Opcodes

```
  0: 0x00B4 [0x1A] CALL_SUBROUTINE(address=0x0100)
  1: 0x00B7 [0x47] UPDATE_PLAYER_POS(1006.000*, -260.000*, 79.650*, yaw=180.0°*)
  2: 0x00C1 [0x47] WAIT_PLAYER_POS_UPDATE
  3: 0x00C3 [0x1A] CALL_SUBROUTINE(address=0x0145)
  4: 0x00C6 [0x00] END_REQSTACK()
```

### Event 19

#### Metadata

| Field        | Value    |
|--------------|----------|
| Entrypoint   | 0x00C7   |
| Data Size    | 19 bytes |
| Instructions | 5        |

```
      00 01 02 03 04 05 06 07  08 09 0A 0B 0C 0D 0E 0F
      -- -- -- -- -- -- -- --  -- -- -- -- -- -- -- --
00C0:                      1A  00 01 47 00 1A 80 17 80         ...G.....
00D0: 1B 80 01 80 47 01 1A 45  01 00                    ....G..E..      
```

#### Opcodes

```
  0: 0x00C7 [0x1A] CALL_SUBROUTINE(address=0x0100)
  1: 0x00CA [0x47] UPDATE_PLAYER_POS(-206.000*, -260.000*, -500.350*, yaw=0.0°*)
  2: 0x00D4 [0x47] WAIT_PLAYER_POS_UPDATE
  3: 0x00D6 [0x1A] CALL_SUBROUTINE(address=0x0145)
  4: 0x00D9 [0x00] END_REQSTACK()
```

### Event 20

#### Metadata

| Field        | Value    |
|--------------|----------|
| Entrypoint   | 0x00DA   |
| Data Size    | 19 bytes |
| Instructions | 5        |

```
      00 01 02 03 04 05 06 07  08 09 0A 0B 0C 0D 0E 0F
      -- -- -- -- -- -- -- --  -- -- -- -- -- -- -- --
00D0:                                1A 00 01 47 00 1C            ...G..
00E0: 80 1D 80 12 80 0D 80 47  01 1A 45 01 00           .......G..E..   
```

#### Opcodes

```
  0: 0x00DA [0x1A] CALL_SUBROUTINE(address=0x0100)
  1: 0x00DD [0x47] UPDATE_PLAYER_POS(926.000*, -60.000*, 79.650*, yaw=180.0°*)
  2: 0x00E7 [0x47] WAIT_PLAYER_POS_UPDATE
  3: 0x00E9 [0x1A] CALL_SUBROUTINE(address=0x0145)
  4: 0x00EC [0x00] END_REQSTACK()
```

### Event 21

#### Metadata

| Field        | Value     |
|--------------|-----------|
| Entrypoint   | 0x00ED    |
| Data Size    | 147 bytes |
| Instructions | 22        |

```
      00 01 02 03 04 05 06 07  08 09 0A 0B 0C 0D 0E 0F
      -- -- -- -- -- -- -- --  -- -- -- -- -- -- -- --
00E0:                                         1A 00 01               ...
00F0: 47 00 1E 80 1D 80 1F 80  01 80 47 01 1A 45 01 00  G.........G..E..
0100: 20 01 42 CD 20 80 F8 FF  FF 7F F0 FF FF 7F 73 30   .B. .........s0
0110: 30 30 01 80 1C 21 80 92  01 F0 FF FF 7F 1C 22 80  00...!........".
0120: 45 23 80 F0 FF FF 7F F0  FF FF 7F 66 64 6F 31 01  E#.........fdo1.
0130: 80 55 23 80 F0 FF FF 7F  F0 FF FF 7F 66 64 6F 31  .U#.........fdo1
0140: 43 00 43 01 1B 45 23 80  F0 FF FF 7F F0 FF FF 7F  C.C..E#.........
0150: 66 64 69 31 01 80 55 23  80 F0 FF FF 7F F0 FF FF  fdi1..U#........
0160: 7F 66 64 69 31 CD 24 80  F8 FF FF 7F F0 FF FF 7F  .fdi1.$.........
0170: 73 30 30 30 01 80 92 00  F0 FF FF 7F 20 00 21 1B  s000........ .!.
```

#### Opcodes

```
  0: 0x00ED [0x1A] CALL_SUBROUTINE(address=0x0100)
  1: 0x00F0 [0x47] UPDATE_PLAYER_POS(-286.000*, -60.000*, -470.350*, yaw=0.0°*)
  2: 0x00FA [0x47] WAIT_PLAYER_POS_UPDATE
  3: 0x00FC [0x1A] CALL_SUBROUTINE(address=0x0145)
  4: 0x00FF [0x00] END_REQSTACK()

SUBROUTINE_0100:
  5: 0x0100 [0x20] SET_CLI_EVENT_UC_FLAG: Lock player control
  6: 0x0102 [0x42] SET_CLI_EVENT_CANCEL_DATA()
  7: 0x0103 [0xCD] LOAD_SCHEDULED_TASK_ALT4: Load scheduler "s000" with entities [EventEntity, LocalPlayer], work=[254*, 0*]
  8: 0x0114 [0x1C] WAIT(14* ticks)
  9: 0x0117 [0x92] LocalPlayer->Render.Flags3 ^= 0x01
 10: 0x011D [0x1C] WAIT(20* ticks)
 11: 0x0120 [0x45] LOAD_SCHEDULED_TASK: Load scheduler "fdo1" with entities [LocalPlayer, LocalPlayer], work=[200*, 0*]
 12: 0x0131 [0x55] WAIT_LOAD_SCHEDULER: Wait for scheduler "fdo1" with entities [LocalPlayer, LocalPlayer], work=200*
 13: 0x0140 [0x43] SEND_EVENT_UPDATE: Send pending tag to server (packet 0x005B)
 14: 0x0142 [0x43] SEND_EVENT_UPDATE: Check pending flag (skip if not pending)
 15: 0x0144 [0x1B] RETURN

SUBROUTINE_0145:
 16: 0x0145 [0x45] LOAD_SCHEDULED_TASK: Load scheduler "fdi1" with entities [LocalPlayer, LocalPlayer], work=[200*, 0*]
 17: 0x0156 [0x55] WAIT_LOAD_SCHEDULER: Wait for scheduler "fdi1" with entities [LocalPlayer, LocalPlayer], work=200*
 18: 0x0165 [0xCD] LOAD_SCHEDULED_TASK_ALT4: Load scheduler "s000" with entities [EventEntity, LocalPlayer], work=[255*, 0*]
 19: 0x0176 [0x92] LocalPlayer->Render.Flags3 = Flags3  // No change (flag=0)
 20: 0x017C [0x20] SET_CLI_EVENT_UC_FLAG: Unlock player control
 21: 0x017E [0x21] END_EVENT
```

#### Data or dead code:

```
# Dead code (unreachable instructions):
     0x017F [0x1B] RETURN
```

### Event 22

#### Metadata

| Field        | Value    |
|--------------|----------|
| Entrypoint   | 0x0180   |
| Data Size    | 19 bytes |
| Instructions | 5        |

```
      00 01 02 03 04 05 06 07  08 09 0A 0B 0C 0D 0E 0F
      -- -- -- -- -- -- -- --  -- -- -- -- -- -- -- --
0180: 1A 18 02 47 00 25 80 26  80 27 80 01 80 47 01 1A  ...G.%.&.'...G..
0190: 5D 02 00                                          ]..             
```

#### Opcodes

```
  0: 0x0180 [0x1A] CALL_SUBROUTINE(address=0x0218)
  1: 0x0183 [0x47] UPDATE_PLAYER_POS(358.500*, 100.000*, 89.400*, yaw=0.0°*)
  2: 0x018D [0x47] WAIT_PLAYER_POS_UPDATE
  3: 0x018F [0x1A] CALL_SUBROUTINE(address=0x025D)
  4: 0x0192 [0x00] END_REQSTACK()
```

### Event 23

#### Metadata

| Field        | Value    |
|--------------|----------|
| Entrypoint   | 0x0193   |
| Data Size    | 19 bytes |
| Instructions | 5        |

```
      00 01 02 03 04 05 06 07  08 09 0A 0B 0C 0D 0E 0F
      -- -- -- -- -- -- -- --  -- -- -- -- -- -- -- --
0190:          1A 18 02 47 00  28 80 26 80 29 80 0D 80     ...G.(.&.)...
01A0: 47 01 1A 5D 02 00                                 G..]..          
```

#### Opcodes

```
  0: 0x0193 [0x1A] CALL_SUBROUTINE(address=0x0218)
  1: 0x0196 [0x47] UPDATE_PLAYER_POS(-918.500*, 100.000*, -430.600*, yaw=180.0°*)
  2: 0x01A0 [0x47] WAIT_PLAYER_POS_UPDATE
  3: 0x01A2 [0x1A] CALL_SUBROUTINE(address=0x025D)
  4: 0x01A5 [0x00] END_REQSTACK()
```

### Event 24

#### Metadata

| Field        | Value    |
|--------------|----------|
| Entrypoint   | 0x01A6   |
| Data Size    | 19 bytes |
| Instructions | 5        |

```
      00 01 02 03 04 05 06 07  08 09 0A 0B 0C 0D 0E 0F
      -- -- -- -- -- -- -- --  -- -- -- -- -- -- -- --
01A0:                   1A 18  02 47 00 0B 80 2A 80 2B        ...G...*.+
01B0: 80 05 80 47 01 1A 5D 02  00                       ...G..]..       
```

#### Opcodes

```
  0: 0x01A6 [0x1A] CALL_SUBROUTINE(address=0x0218)
  1: 0x01A9 [0x47] UPDATE_PLAYER_POS(300.000*, -121.500*, 79.400*, yaw=270.0°*)
  2: 0x01B3 [0x47] WAIT_PLAYER_POS_UPDATE
  3: 0x01B5 [0x1A] CALL_SUBROUTINE(address=0x025D)
  4: 0x01B8 [0x00] END_REQSTACK()
```

### Event 25

#### Metadata

| Field        | Value    |
|--------------|----------|
| Entrypoint   | 0x01B9   |
| Data Size    | 19 bytes |
| Instructions | 5        |

```
      00 01 02 03 04 05 06 07  08 09 0A 0B 0C 0D 0E 0F
      -- -- -- -- -- -- -- --  -- -- -- -- -- -- -- --
01B0:                             1A 18 02 47 00 2C 80           ...G.,.
01C0: 2D 80 2E 80 09 80 47 01  1A 5D 02 00              -.....G..]..    
```

#### Opcodes

```
  0: 0x01B9 [0x1A] CALL_SUBROUTINE(address=0x0218)
  1: 0x01BC [0x47] UPDATE_PLAYER_POS(-940.000*, -158.500*, -460.600*, yaw=90.0°*)
  2: 0x01C6 [0x47] WAIT_PLAYER_POS_UPDATE
  3: 0x01C8 [0x1A] CALL_SUBROUTINE(address=0x025D)
  4: 0x01CB [0x00] END_REQSTACK()
```

### Event 26

#### Metadata

| Field        | Value    |
|--------------|----------|
| Entrypoint   | 0x01CC   |
| Data Size    | 19 bytes |
| Instructions | 5        |

```
      00 01 02 03 04 05 06 07  08 09 0A 0B 0C 0D 0E 0F
      -- -- -- -- -- -- -- --  -- -- -- -- -- -- -- --
01C0:                                      1A 18 02 47              ...G
01D0: 00 2F 80 30 80 2B 80 05  80 47 01 1A 5D 02 00     ./.0.+...G..].. 
```

#### Opcodes

```
  0: 0x01CC [0x1A] CALL_SUBROUTINE(address=0x0218)
  1: 0x01CF [0x47] UPDATE_PLAYER_POS(420.000*, -241.500*, 79.400*, yaw=270.0°*)
  2: 0x01D9 [0x47] WAIT_PLAYER_POS_UPDATE
  3: 0x01DB [0x1A] CALL_SUBROUTINE(address=0x025D)
  4: 0x01DE [0x00] END_REQSTACK()
```

### Event 27

#### Metadata

| Field        | Value    |
|--------------|----------|
| Entrypoint   | 0x01DF   |
| Data Size    | 19 bytes |
| Instructions | 5        |

```
      00 01 02 03 04 05 06 07  08 09 0A 0B 0C 0D 0E 0F
      -- -- -- -- -- -- -- --  -- -- -- -- -- -- -- --
01D0:                                               1A                 .
01E0: 18 02 47 00 31 80 32 80  33 80 09 80 47 01 1A 5D  ..G.1.2.3...G..]
01F0: 02 00                                             ..              
```

#### Opcodes

```
  0: 0x01DF [0x1A] CALL_SUBROUTINE(address=0x0218)
  1: 0x01E2 [0x47] UPDATE_PLAYER_POS(-820.000*, -278.500*, -450.600*, yaw=90.0°*)
  2: 0x01EC [0x47] WAIT_PLAYER_POS_UPDATE
  3: 0x01EE [0x1A] CALL_SUBROUTINE(address=0x025D)
  4: 0x01F1 [0x00] END_REQSTACK()
```

### Event 28

#### Metadata

| Field        | Value    |
|--------------|----------|
| Entrypoint   | 0x01F2   |
| Data Size    | 19 bytes |
| Instructions | 5        |

```
      00 01 02 03 04 05 06 07  08 09 0A 0B 0C 0D 0E 0F
      -- -- -- -- -- -- -- --  -- -- -- -- -- -- -- --
01F0:       1A 18 02 47 00 34  80 35 80 27 80 0D 80 47    ...G.4.5.'...G
0200: 01 1A 5D 02 00                                    ..]..           
```

#### Opcodes

```
  0: 0x01F2 [0x1A] CALL_SUBROUTINE(address=0x0218)
  1: 0x01F5 [0x47] UPDATE_PLAYER_POS(921.500*, -140.000*, 89.400*, yaw=180.0°*)
  2: 0x01FF [0x47] WAIT_PLAYER_POS_UPDATE
  3: 0x0201 [0x1A] CALL_SUBROUTINE(address=0x025D)
  4: 0x0204 [0x00] END_REQSTACK()
```

### Event 29

#### Metadata

| Field        | Value     |
|--------------|-----------|
| Entrypoint   | 0x0205    |
| Data Size    | 147 bytes |
| Instructions | 22        |

```
      00 01 02 03 04 05 06 07  08 09 0A 0B 0C 0D 0E 0F
      -- -- -- -- -- -- -- --  -- -- -- -- -- -- -- --
0200:                1A 18 02  47 00 36 80 35 80 37 80       ...G.6.5.7.
0210: 01 80 47 01 1A 5D 02 00  20 01 42 D0 00 80 F8 FF  ..G..].. .B.....
0220: FF 7F F0 FF FF 7F 73 30  30 30 01 80 1C 21 80 92  ......s000...!..
0230: 01 F0 FF FF 7F 1C 22 80  45 23 80 F0 FF FF 7F F0  ......".E#......
0240: FF FF 7F 66 64 6F 31 01  80 55 23 80 F0 FF FF 7F  ...fdo1..U#.....
0250: F0 FF FF 7F 66 64 6F 31  43 00 43 01 1B 45 23 80  ....fdo1C.C..E#.
0260: F0 FF FF 7F F0 FF FF 7F  66 64 69 31 01 80 55 23  ........fdi1..U#
0270: 80 F0 FF FF 7F F0 FF FF  7F 66 64 69 31 D0 38 80  .........fdi1.8.
0280: F8 FF FF 7F F0 FF FF 7F  73 30 30 30 01 80 92 00  ........s000....
0290: F0 FF FF 7F 20 00 21 1B                           .... .!.        
```

#### Opcodes

```
  0: 0x0205 [0x1A] CALL_SUBROUTINE(address=0x0218)
  1: 0x0208 [0x47] UPDATE_PLAYER_POS(-281.500*, -140.000*, -440.600*, yaw=0.0°*)
  2: 0x0212 [0x47] WAIT_PLAYER_POS_UPDATE
  3: 0x0214 [0x1A] CALL_SUBROUTINE(address=0x025D)
  4: 0x0217 [0x00] END_REQSTACK()

SUBROUTINE_0218:
  5: 0x0218 [0x20] SET_CLI_EVENT_UC_FLAG: Lock player control
  6: 0x021A [0x42] SET_CLI_EVENT_CANCEL_DATA()
  7: 0x021B [0xD0] LOAD_SCHEDULED_TASK_ALT5: Load scheduler "s000" with entities [EventEntity, LocalPlayer], work=[1*, 0*]
  8: 0x022C [0x1C] WAIT(14* ticks)
  9: 0x022F [0x92] LocalPlayer->Render.Flags3 ^= 0x01
 10: 0x0235 [0x1C] WAIT(20* ticks)
 11: 0x0238 [0x45] LOAD_SCHEDULED_TASK: Load scheduler "fdo1" with entities [LocalPlayer, LocalPlayer], work=[200*, 0*]
 12: 0x0249 [0x55] WAIT_LOAD_SCHEDULER: Wait for scheduler "fdo1" with entities [LocalPlayer, LocalPlayer], work=200*
 13: 0x0258 [0x43] SEND_EVENT_UPDATE: Send pending tag to server (packet 0x005B)
 14: 0x025A [0x43] SEND_EVENT_UPDATE: Check pending flag (skip if not pending)
 15: 0x025C [0x1B] RETURN

SUBROUTINE_025D:
 16: 0x025D [0x45] LOAD_SCHEDULED_TASK: Load scheduler "fdi1" with entities [LocalPlayer, LocalPlayer], work=[200*, 0*]
 17: 0x026E [0x55] WAIT_LOAD_SCHEDULER: Wait for scheduler "fdi1" with entities [LocalPlayer, LocalPlayer], work=200*
 18: 0x027D [0xD0] LOAD_SCHEDULED_TASK_ALT5: Load scheduler "s000" with entities [EventEntity, LocalPlayer], work=[2*, 0*]
 19: 0x028E [0x92] LocalPlayer->Render.Flags3 = Flags3  // No change (flag=0)
 20: 0x0294 [0x20] SET_CLI_EVENT_UC_FLAG: Unlock player control
 21: 0x0296 [0x21] END_EVENT
```

#### Data or dead code:

```
# Dead code (unreachable instructions):
     0x0297 [0x1B] RETURN
```

### Event 8

#### Metadata

| Field        | Value    |
|--------------|----------|
| Entrypoint   | 0x0298   |
| Data Size    | 41 bytes |
| Instructions | 5        |

```
      00 01 02 03 04 05 06 07  08 09 0A 0B 0C 0D 0E 0F
      -- -- -- -- -- -- -- --  -- -- -- -- -- -- -- --
0290:                          62 00 80 F0 FF FF 7F F0          b.......
02A0: FF FF 7F 6D 61 69 6E 01  80 1C 39 80 45 23 80 F0  ...main...9.E#..
02B0: FF FF 7F F0 FF FF 7F 66  64 6F 31 01 80 1C 3A 80  .......fdo1...:.
02C0: 00                                                .               
```

#### Opcodes

```
  0: 0x0298 [0x62] LOAD_EVENT_SCHEDULER: Load scheduler "main" with entities [LocalPlayer, LocalPlayer], work=[1*, 0*]
  1: 0x02A9 [0x1C] WAIT(140* ticks)
  2: 0x02AC [0x45] LOAD_SCHEDULED_TASK: Load scheduler "fdo1" with entities [LocalPlayer, LocalPlayer], work=[200*, 0*]
  3: 0x02BD [0x1C] WAIT(60* ticks)
  4: 0x02C0 [0x00] END_REQSTACK()
```

### Event 9

#### Metadata

| Field        | Value     |
|--------------|-----------|
| Entrypoint   | 0x02C1    |
| Data Size    | 186 bytes |
| Instructions | 4         |

```
      00 01 02 03 04 05 06 07  08 09 0A 0B 0C 0D 0E 0F
      -- -- -- -- -- -- -- --  -- -- -- -- -- -- -- --
02C0:    45 23 80 F0 FF FF 7F  F0 FF FF 7F 66 64 69 31   E#.........fdi1
02D0: 01 80 62 38 80 F0 FF FF  7F F0 FF FF 7F 6D 61 69  ..b8.........mai
02E0: 6E 01 80 1C 3B 80 00 03  01 00 00 00 02 01 00 3C  n...;..........<
02F0: 80 05 FC 02 08 01 00 00  80 01 01 03 08 01 00 38  ...............8
0300: 80 14 01 00 3D 80 07 01  00 3E 80 1B 03 01 00 00  ....=....>......
0310: 00 02 01 00 3C 80 05 21  03 08 01 00 00 80 01 26  ....<..!.......&
0320: 03 08 01 00 38 80 14 01  00 3D 80 07 01 00 3F 80  ....8....=....?.
0330: 1B 03 01 00 00 00 02 01  00 3C 80 05 46 03 08 01  .........<..F...
0340: 00 00 80 01 4B 03 08 01  00 38 80 14 01 00 3D 80  ....K....8....=.
0350: 07 01 00 39 80 1B 03 01  00 00 00 02 01 00 3C 80  ...9..........<.
0360: 05 6B 03 08 01 00 00 80  01 70 03 08 01 00 38 80  .k.......p....8.
0370: 14 01 00 3D 80 07 01 00  40 80 1B                 ...=....@..     
```

#### Opcodes

```
  0: 0x02C1 [0x45] LOAD_SCHEDULED_TASK: Load scheduler "fdi1" with entities [LocalPlayer, LocalPlayer], work=[200*, 0*]
  1: 0x02D2 [0x62] LOAD_EVENT_SCHEDULER: Load scheduler "main" with entities [LocalPlayer, LocalPlayer], work=[2*, 0*]
  2: 0x02E3 [0x1C] WAIT(170* ticks)
  3: 0x02E6 [0x00] END_REQSTACK()
```

#### Data or dead code:

```
# Dead code (unreachable instructions):
     0x02E7 [0x03] ExtData[1]->WorkLocal[1] = ExtData[1]->WorkLocal[0]
     0x02EC [0x02] IF !(ExtData[1]->WorkLocal[1] > 5*) GOTO 0x02FC
     0x02F4 [0x08] ExtData[1]->WorkLocal[1] -= 1*
     0x02F9 [0x01] GOTO 0x0301
     0x02FC [0x08] ExtData[1]->WorkLocal[1] -= 2*
     0x0301 [0x14] ExtData[1]->WorkLocal[1] *= 10*
     0x0306 [0x07] ExtData[1]->WorkLocal[1] += 9*
     0x030B [0x1B] RETURN
     0x030C [0x03] ExtData[1]->WorkLocal[1] = ExtData[1]->WorkLocal[0]
     0x0311 [0x02] IF !(ExtData[1]->WorkLocal[1] > 5*) GOTO 0x0321
     0x0319 [0x08] ExtData[1]->WorkLocal[1] -= 1*
     0x031E [0x01] GOTO 0x0326
     0x0321 [0x08] ExtData[1]->WorkLocal[1] -= 2*
     0x0326 [0x14] ExtData[1]->WorkLocal[1] *= 10*
     0x032B [0x07] ExtData[1]->WorkLocal[1] += 70*
     0x0330 [0x1B] RETURN
     0x0331 [0x03] ExtData[1]->WorkLocal[1] = ExtData[1]->WorkLocal[0]
     0x0336 [0x02] IF !(ExtData[1]->WorkLocal[1] > 5*) GOTO 0x0346
     0x033E [0x08] ExtData[1]->WorkLocal[1] -= 1*
     0x0343 [0x01] GOTO 0x034B
     0x0346 [0x08] ExtData[1]->WorkLocal[1] -= 2*
     0x034B [0x14] ExtData[1]->WorkLocal[1] *= 10*
     0x0350 [0x07] ExtData[1]->WorkLocal[1] += 140*
     0x0355 [0x1B] RETURN
     0x0356 [0x03] ExtData[1]->WorkLocal[1] = ExtData[1]->WorkLocal[0]
     0x035B [0x02] IF !(ExtData[1]->WorkLocal[1] > 5*) GOTO 0x036B
     0x0363 [0x08] ExtData[1]->WorkLocal[1] -= 1*
     0x0368 [0x01] GOTO 0x0370
     0x036B [0x08] ExtData[1]->WorkLocal[1] -= 2*
     0x0370 [0x14] ExtData[1]->WorkLocal[1] *= 10*
     0x0375 [0x07] ExtData[1]->WorkLocal[1] += 210*
     0x037A [0x1B] RETURN
```

### Event 65535.5

#### Metadata

| Field        | Value   |
|--------------|---------|
| Entrypoint   | 0x037B  |
| Data Size    | 6 bytes |
| Instructions | 2       |

```
      00 01 02 03 04 05 06 07  08 09 0A 0B 0C 0D 0E 0F
      -- -- -- -- -- -- -- --  -- -- -- -- -- -- -- --
0370:                                   03 02 10 0B 7F             .....
0380: 00                                                .               
```

#### Opcodes

```
  0: 0x037B [0x03] Work_Zone[2] = (Entity->Render.Flags01 >> 25) & 1
  1: 0x0380 [0x00] END_REQSTACK()
```

### Event 65535.6

#### Metadata

| Field        | Value   |
|--------------|---------|
| Entrypoint   | 0x0381  |
| Data Size    | 6 bytes |
| Instructions | 2       |

```
      00 01 02 03 04 05 06 07  08 09 0A 0B 0C 0D 0E 0F
      -- -- -- -- -- -- -- --  -- -- -- -- -- -- -- --
0380:    03 02 10 07 7F 00                               ......         
```

#### Opcodes

```
  0: 0x0381 [0x03] Work_Zone[2] = Entity->Race
  1: 0x0386 [0x00] END_REQSTACK()
```

### Event 65535.7

#### Metadata

| Field        | Value   |
|--------------|---------|
| Entrypoint   | 0x0387  |
| Data Size    | 6 bytes |
| Instructions | 2       |

```
      00 01 02 03 04 05 06 07  08 09 0A 0B 0C 0D 0E 0F
      -- -- -- -- -- -- -- --  -- -- -- -- -- -- -- --
0380:                      03  09 10 07 7F 00                  ......   
```

#### Opcodes

```
  0: 0x0387 [0x03] Work_Zone[9] = Entity->Race
  1: 0x038C [0x00] END_REQSTACK()
```

### Event 65535.8

#### Metadata

| Field        | Value   |
|--------------|---------|
| Entrypoint   | 0x038D  |
| Data Size    | 6 bytes |
| Instructions | 2       |

```
      00 01 02 03 04 05 06 07  08 09 0A 0B 0C 0D 0E 0F
      -- -- -- -- -- -- -- --  -- -- -- -- -- -- -- --
0380:                                         03 02 10               ...
0390: 06 7F 00                                          ...             
```

#### Opcodes

```
  0: 0x038D [0x03] Work_Zone[2] = Entity->JobId (if LocalPlayer)
  1: 0x0392 [0x00] END_REQSTACK()
```

### Event 65535.9

#### Metadata

| Field        | Value    |
|--------------|----------|
| Entrypoint   | 0x0393   |
| Data Size    | 27 bytes |
| Instructions | 3        |

```
      00 01 02 03 04 05 06 07  08 09 0A 0B 0C 0D 0E 0F
      -- -- -- -- -- -- -- --  -- -- -- -- -- -- -- --
0390:          2C F8 FF FF 7F  F8 FF FF 7F 63 6F 72 70     ,........corp
03A0: 53 F8 FF FF 7F F8 FF FF  7F 63 6F 72 70 00        S........corp.  
```

#### Opcodes

```
  0: 0x0393 [0x2C] CREATE_SCHEDULER_TASK: Create scheduler "corp" with entities [EventEntity, EventEntity]
  1: 0x03A0 [0x53] WAIT_SCHEDULER_TASK: Wait for scheduler "corp" with entities [EventEntity, EventEntity]
  2: 0x03AD [0x00] END_REQSTACK()
```

### Event 65535.10

#### Metadata

| Field        | Value    |
|--------------|----------|
| Entrypoint   | 0x03AE   |
| Data Size    | 24 bytes |
| Instructions | 4        |

```
      00 01 02 03 04 05 06 07  08 09 0A 0B 0C 0D 0E 0F
      -- -- -- -- -- -- -- --  -- -- -- -- -- -- -- --
03A0:                                            03 00                ..
03B0: 00 07 7F 1A E7 02 66 01  00 F8 FF FF 7F F8 FF FF  ......f.........
03C0: 7F 74 6C 6B 30 00                                 .tlk0.          
```

#### Opcodes

```
  0: 0x03AE [0x03] ExtData[1]->WorkLocal[0] = Entity->Race
  1: 0x03B3 [0x1A] CALL_SUBROUTINE(address=0x02E7)
  2: 0x03B6 [0x66] LOAD_EXT_SCHEDULER_MAIN: Load scheduler "tlk0" with entities [EventEntity, EventEntity], work=ExtData[1]->WorkLocal[1]
  3: 0x03C5 [0x00] END_REQSTACK()
```

### Event 65535.11

#### Metadata

| Field        | Value    |
|--------------|----------|
| Entrypoint   | 0x03C6   |
| Data Size    | 24 bytes |
| Instructions | 4        |

```
      00 01 02 03 04 05 06 07  08 09 0A 0B 0C 0D 0E 0F
      -- -- -- -- -- -- -- --  -- -- -- -- -- -- -- --
03C0:                   03 00  00 07 7F 1A E7 02 66 01        ........f.
03D0: 00 F8 FF FF 7F F8 FF FF  7F 74 6C 6B 31 00        .........tlk1.  
```

#### Opcodes

```
  0: 0x03C6 [0x03] ExtData[1]->WorkLocal[0] = Entity->Race
  1: 0x03CB [0x1A] CALL_SUBROUTINE(address=0x02E7)
  2: 0x03CE [0x66] LOAD_EXT_SCHEDULER_MAIN: Load scheduler "tlk1" with entities [EventEntity, EventEntity], work=ExtData[1]->WorkLocal[1]
  3: 0x03DD [0x00] END_REQSTACK()
```

### Event 65535.12

#### Metadata

| Field        | Value    |
|--------------|----------|
| Entrypoint   | 0x03DE   |
| Data Size    | 37 bytes |
| Instructions | 5        |

```
      00 01 02 03 04 05 06 07  08 09 0A 0B 0C 0D 0E 0F
      -- -- -- -- -- -- -- --  -- -- -- -- -- -- -- --
03D0:                                            03 00                ..
03E0: 00 07 7F 1A E7 02 66 01  00 F8 FF FF 7F F8 FF FF  ......f.........
03F0: 7F 73 68 61 30 53 F8 FF  FF 7F F8 FF FF 7F 73 68  .sha0S........sh
0400: 61 30 00                                          a0.             
```

#### Opcodes

```
  0: 0x03DE [0x03] ExtData[1]->WorkLocal[0] = Entity->Race
  1: 0x03E3 [0x1A] CALL_SUBROUTINE(address=0x02E7)
  2: 0x03E6 [0x66] LOAD_EXT_SCHEDULER_MAIN: Load scheduler "sha0" with entities [EventEntity, EventEntity], work=ExtData[1]->WorkLocal[1]
  3: 0x03F5 [0x53] WAIT_SCHEDULER_TASK: Wait for scheduler "sha0" with entities [EventEntity, EventEntity]
  4: 0x0402 [0x00] END_REQSTACK()
```

### Event 65535.13

#### Metadata

| Field        | Value    |
|--------------|----------|
| Entrypoint   | 0x0403   |
| Data Size    | 37 bytes |
| Instructions | 5        |

```
      00 01 02 03 04 05 06 07  08 09 0A 0B 0C 0D 0E 0F
      -- -- -- -- -- -- -- --  -- -- -- -- -- -- -- --
0400:          03 00 00 07 7F  1A E7 02 66 01 00 F8 FF     ........f....
0410: FF 7F F8 FF FF 7F 73 68  61 31 53 F8 FF FF 7F F8  ......sha1S.....
0420: FF FF 7F 73 68 61 31 00                           ...sha1.        
```

#### Opcodes

```
  0: 0x0403 [0x03] ExtData[1]->WorkLocal[0] = Entity->Race
  1: 0x0408 [0x1A] CALL_SUBROUTINE(address=0x02E7)
  2: 0x040B [0x66] LOAD_EXT_SCHEDULER_MAIN: Load scheduler "sha1" with entities [EventEntity, EventEntity], work=ExtData[1]->WorkLocal[1]
  3: 0x041A [0x53] WAIT_SCHEDULER_TASK: Wait for scheduler "sha1" with entities [EventEntity, EventEntity]
  4: 0x0427 [0x00] END_REQSTACK()
```

### Event 65535.14

#### Metadata

| Field        | Value    |
|--------------|----------|
| Entrypoint   | 0x0428   |
| Data Size    | 27 bytes |
| Instructions | 5        |

```
      00 01 02 03 04 05 06 07  08 09 0A 0B 0C 0D 0E 0F
      -- -- -- -- -- -- -- --  -- -- -- -- -- -- -- --
0420:                          03 00 00 07 7F 1A 0C 03          ........
0430: 0B 01 00 66 01 00 F8 FF  FF 7F F8 FF FF 7F 70 61  ...f..........pa
0440: 73 30 00                                          s0.             
```

#### Opcodes

```
  0: 0x0428 [0x03] ExtData[1]->WorkLocal[0] = Entity->Race
  1: 0x042D [0x1A] CALL_SUBROUTINE(address=0x030C)
  2: 0x0430 [0x0B] ExtData[1]->WorkLocal[1]++
  3: 0x0433 [0x66] LOAD_EXT_SCHEDULER_MAIN: Load scheduler "pas0" with entities [EventEntity, EventEntity], work=ExtData[1]->WorkLocal[1]
  4: 0x0442 [0x00] END_REQSTACK()
```

### Event 65535.15

#### Metadata

| Field        | Value    |
|--------------|----------|
| Entrypoint   | 0x0443   |
| Data Size    | 10 bytes |
| Instructions | 2        |

```
      00 01 02 03 04 05 06 07  08 09 0A 0B 0C 0D 0E 0F
      -- -- -- -- -- -- -- --  -- -- -- -- -- -- -- --
0440:          37 41 80 42 80  43 80 44 80 00              7A.B.C.D..   
```

#### Opcodes

```
  0: 0x0443 [0x37] UPDATE_EVENT_POSITION_AND_DIR: x=-460.000*, z=27.942*, y=-139.902*, direction=93.2°*
  1: 0x044C [0x00] END_REQSTACK()
```

### Event 65535.16

#### Metadata

| Field        | Value    |
|--------------|----------|
| Entrypoint   | 0x044D   |
| Data Size    | 14 bytes |
| Instructions | 4        |

```
      00 01 02 03 04 05 06 07  08 09 0A 0B 0C 0D 0E 0F
      -- -- -- -- -- -- -- --  -- -- -- -- -- -- -- --
0440:                                         32 45 80               2E.
0450: 1F 00 46 80 47 80 48 80  1F 01 00                 ..F.G.H....     
```

#### Opcodes

```
  0: 0x044D [0x32] ExtData[1]->MainSpeed = 13* * 0.1
  1: 0x0450 [0x1F] MOVE_ENTITY: EventEntity moves to X=18.900*, Z=-660.000*, Y=80.000*
  2: 0x0458 [0x1F] MOVE_ENTITY: Update entity position (mode=1)
  3: 0x045A [0x00] END_REQSTACK()
```

### Event 65535.17

#### Metadata

| Field        | Value    |
|--------------|----------|
| Entrypoint   | 0x045B   |
| Data Size    | 55 bytes |
| Instructions | 12       |

```
      00 01 02 03 04 05 06 07  08 09 0A 0B 0C 0D 0E 0F
      -- -- -- -- -- -- -- --  -- -- -- -- -- -- -- --
0450:                                   33 01 03 02 00             3....
0460: 48 80 03 03 00 49 80 06  04 00 02 04 00 01 80 00  H....I..........
0470: 91 04 02 02 00 4A 80 02  7D 04 05 04 00 07 02 00  .....J..}.......
0480: 03 00 37 46 80 47 80 02  00 0D 80 1C 00 80 01 6A  ..7F.G.........j
0490: 04 00                                             ..              
```

#### Opcodes

```
  0: 0x045B [0x33] EventEntity->Render.Flags0 |= 0x200000 // Bit 21 (flag=0x01)
  1: 0x045D [0x03] ExtData[1]->WorkLocal[2] = 80000*
  2: 0x0462 [0x03] ExtData[1]->WorkLocal[3] = 45*
  3: 0x0467 [0x06] ExtData[1]->WorkLocal[4] = 0
  4: 0x046A [0x02] IF !(ExtData[1]->WorkLocal[4] == 0*) GOTO 0x0491
  5: 0x0472 [0x02] IF !(ExtData[1]->WorkLocal[2] <= 81000*) GOTO 0x047D
  6: 0x047A [0x05] ExtData[1]->WorkLocal[4] = 1
  7: 0x047D [0x07] ExtData[1]->WorkLocal[2] += ExtData[1]->WorkLocal[3]
  8: 0x0482 [0x37] UPDATE_EVENT_POSITION_AND_DIR: x=18.900*, z=-660.000*, y=ExtData[1]->WorkLocal[2], direction=180.0°*
  9: 0x048B [0x1C] WAIT(1* ticks)
 10: 0x048E [0x01] GOTO 0x046A
 11: 0x0491 [0x00] END_REQSTACK()
```

### Event 65535.18

#### Metadata

| Field        | Value    |
|--------------|----------|
| Entrypoint   | 0x0492   |
| Data Size    | 10 bytes |
| Instructions | 2        |

```
      00 01 02 03 04 05 06 07  08 09 0A 0B 0C 0D 0E 0F
      -- -- -- -- -- -- -- --  -- -- -- -- -- -- -- --
0490:       37 4B 80 47 80 4C  80 4D 80 00                7K.G.L.M..    
```

#### Opcodes

```
  0: 0x0492 [0x37] UPDATE_EVENT_POSITION_AND_DIR: x=28.000*, z=-660.000*, y=-120.000*, direction=377476039.2°*
  1: 0x049B [0x00] END_REQSTACK()
```

### Event 65535.19

#### Metadata

| Field        | Value    |
|--------------|----------|
| Entrypoint   | 0x049C   |
| Data Size    | 14 bytes |
| Instructions | 4        |

```
      00 01 02 03 04 05 06 07  08 09 0A 0B 0C 0D 0E 0F
      -- -- -- -- -- -- -- --  -- -- -- -- -- -- -- --
0490:                                      32 45 80 1F              2E..
04A0: 00 4E 80 47 80 4C 80 1F  01 00                    .N.G.L....      
```

#### Opcodes

```
  0: 0x049C [0x32] ExtData[1]->MainSpeed = 13* * 0.1
  1: 0x049F [0x1F] MOVE_ENTITY: EventEntity moves to X=19.189*, Z=-660.000*, Y=-120.000*
  2: 0x04A7 [0x1F] MOVE_ENTITY: Update entity position (mode=1)
  3: 0x04A9 [0x00] END_REQSTACK()
```

### Event 65535.20

#### Metadata

| Field        | Value    |
|--------------|----------|
| Entrypoint   | 0x04AA   |
| Data Size    | 53 bytes |
| Instructions | 12       |

```
      00 01 02 03 04 05 06 07  08 09 0A 0B 0C 0D 0E 0F
      -- -- -- -- -- -- -- --  -- -- -- -- -- -- -- --
04A0:                                33 01 03 02 00 4C            3....L
04B0: 80 03 03 00 4F 80 06 04  00 02 04 00 01 80 00 DE  ....O...........
04C0: 04 02 02 00 50 80 03 CC  04 05 04 00 08 02 00 03  ....P...........
04D0: 00 36 4E 80 47 80 02 00  1C 00 80 01 B9 04 00     .6N.G.......... 
```

#### Opcodes

```
  0: 0x04AA [0x33] EventEntity->Render.Flags0 |= 0x200000 // Bit 21 (flag=0x01)
  1: 0x04AC [0x03] ExtData[1]->WorkLocal[2] = 4294847296*
  2: 0x04B1 [0x03] ExtData[1]->WorkLocal[3] = 38*
  3: 0x04B6 [0x06] ExtData[1]->WorkLocal[4] = 0
  4: 0x04B9 [0x02] IF !(ExtData[1]->WorkLocal[4] == 0*) GOTO 0x04DE
  5: 0x04C1 [0x02] IF !(ExtData[1]->WorkLocal[2] >= 4294846336*) GOTO 0x04CC
  6: 0x04C9 [0x05] ExtData[1]->WorkLocal[4] = 1
  7: 0x04CC [0x08] ExtData[1]->WorkLocal[2] -= ExtData[1]->WorkLocal[3]
  8: 0x04D1 [0x36] SET_ENTITY_EVENT_POSITION(pos_x=19.189*, pos_z=-660.000*, pos_y=ExtData[1]->WorkLocal[2])
  9: 0x04D8 [0x1C] WAIT(1* ticks)
 10: 0x04DB [0x01] GOTO 0x04B9
 11: 0x04DE [0x00] END_REQSTACK()
```

### Event 65535.21

#### Metadata

| Field        | Value   |
|--------------|---------|
| Entrypoint   | 0x04DF  |
| Data Size    | 3 bytes |
| Instructions | 2       |

```
      00 01 02 03 04 05 06 07  08 09 0A 0B 0C 0D 0E 0F
      -- -- -- -- -- -- -- --  -- -- -- -- -- -- -- --
04D0:                                               33                 3
04E0: 00 00                                             ..              
```

#### Opcodes

```
  0: 0x04DF [0x33] EventEntity->Render.Flags0 &= ~ 0x200000 // Bit 21 (flag=0x00)
  1: 0x04E1 [0x00] END_REQSTACK()
```

### Event 65535.22

#### Metadata

| Field        | Value    |
|--------------|----------|
| Entrypoint   | 0x04E2   |
| Data Size    | 38 bytes |
| Instructions | 5        |

```
      00 01 02 03 04 05 06 07  08 09 0A 0B 0C 0D 0E 0F
      -- -- -- -- -- -- -- --  -- -- -- -- -- -- -- --
04E0:       22 00 2F 00 F8 FF  FF 7F B6 0B 51 80 52 80    "./.......Q.R.
04F0: 53 80 54 80 55 80 55 80  55 80 56 80 57 80 6C F8  S.T.U.U.U.V.W.l.
0500: FF FF 7F 58 80 00 80 00                           ...X....        
```

#### Opcodes

```
  0: 0x04E2 [0x22] ENTITY_HIDE_FLAG(enabled=0x00)
  1: 0x04E4 [0x2F] EventEntity->Render.Flags0 &= ~0x80000 // Bit 19
  2: 0x04EA [0xB6] ENTITY_APPEARANCE_HANDLER(case=Full entity look, race=8*, hair=7*, head=145*, body=79*, hands=76*, legs=76*, feet=76*, main=201*, sub=24*)
  3: 0x04FE [0x6C] FADE_ENTITY_COLOR(entity_id=EventEntity, end_alpha=32*, fade_time=1*)
  4: 0x0507 [0x00] END_REQSTACK()
```

### Event 65535.23

#### Metadata

| Field        | Value    |
|--------------|----------|
| Entrypoint   | 0x0508   |
| Data Size    | 38 bytes |
| Instructions | 5        |

```
      00 01 02 03 04 05 06 07  08 09 0A 0B 0C 0D 0E 0F
      -- -- -- -- -- -- -- --  -- -- -- -- -- -- -- --
0500:                          22 00 2F 00 F8 FF FF 7F          "./.....
0510: B6 0B 52 80 52 80 53 80  54 80 55 80 55 80 55 80  ..R.R.S.T.U.U.U.
0520: 56 80 57 80 6C F8 FF FF  7F 59 80 00 80 00        V.W.l....Y....  
```

#### Opcodes

```
  0: 0x0508 [0x22] ENTITY_HIDE_FLAG(enabled=0x00)
  1: 0x050A [0x2F] EventEntity->Render.Flags0 &= ~0x80000 // Bit 19
  2: 0x0510 [0xB6] ENTITY_APPEARANCE_HANDLER(case=Full entity look, race=7*, hair=7*, head=145*, body=79*, hands=76*, legs=76*, feet=76*, main=201*, sub=24*)
  3: 0x0524 [0x6C] FADE_ENTITY_COLOR(entity_id=EventEntity, end_alpha=48*, fade_time=1*)
  4: 0x052D [0x00] END_REQSTACK()
```

### Event 65535.24

#### Metadata

| Field        | Value    |
|--------------|----------|
| Entrypoint   | 0x052E   |
| Data Size    | 38 bytes |
| Instructions | 5        |

```
      00 01 02 03 04 05 06 07  08 09 0A 0B 0C 0D 0E 0F
      -- -- -- -- -- -- -- --  -- -- -- -- -- -- -- --
0520:                                            22 00                ".
0530: 2F 00 F8 FF FF 7F B6 0B  3C 80 52 80 53 80 54 80  /.......<.R.S.T.
0540: 55 80 55 80 55 80 56 80  57 80 6C F8 FF FF 7F 5A  U.U.U.V.W.l....Z
0550: 80 00 80 00                                       ....            
```

#### Opcodes

```
  0: 0x052E [0x22] ENTITY_HIDE_FLAG(enabled=0x00)
  1: 0x0530 [0x2F] EventEntity->Render.Flags0 &= ~0x80000 // Bit 19
  2: 0x0536 [0xB6] ENTITY_APPEARANCE_HANDLER(case=Full entity look, race=5*, hair=7*, head=145*, body=79*, hands=76*, legs=76*, feet=76*, main=201*, sub=24*)
  3: 0x054A [0x6C] FADE_ENTITY_COLOR(entity_id=EventEntity, end_alpha=64*, fade_time=1*)
  4: 0x0553 [0x00] END_REQSTACK()
```

### Event 65535.25

#### Metadata

| Field        | Value    |
|--------------|----------|
| Entrypoint   | 0x0554   |
| Data Size    | 37 bytes |
| Instructions | 5        |

```
      00 01 02 03 04 05 06 07  08 09 0A 0B 0C 0D 0E 0F
      -- -- -- -- -- -- -- --  -- -- -- -- -- -- -- --
0550:             03 00 00 07  7F 1A E7 02 66 01 00 F8      ........f...
0560: FF FF 7F F8 FF FF 7F 73  69 74 30 53 F8 FF FF 7F  .......sit0S....
0570: F8 FF FF 7F 73 69 74 30  00                       ....sit0.       
```

#### Opcodes

```
  0: 0x0554 [0x03] ExtData[1]->WorkLocal[0] = Entity->Race
  1: 0x0559 [0x1A] CALL_SUBROUTINE(address=0x02E7)
  2: 0x055C [0x66] LOAD_EXT_SCHEDULER_MAIN: Load scheduler "sit0" with entities [EventEntity, EventEntity], work=ExtData[1]->WorkLocal[1]
  3: 0x056B [0x53] WAIT_SCHEDULER_TASK: Wait for scheduler "sit0" with entities [EventEntity, EventEntity]
  4: 0x0578 [0x00] END_REQSTACK()
```

### Event 65535.26

#### Metadata

| Field        | Value    |
|--------------|----------|
| Entrypoint   | 0x0579   |
| Data Size    | 37 bytes |
| Instructions | 5        |

```
      00 01 02 03 04 05 06 07  08 09 0A 0B 0C 0D 0E 0F
      -- -- -- -- -- -- -- --  -- -- -- -- -- -- -- --
0570:                             03 00 00 07 7F 1A E7           .......
0580: 02 66 01 00 F8 FF FF 7F  F8 FF FF 7F 73 69 74 31  .f..........sit1
0590: 53 F8 FF FF 7F F8 FF FF  7F 73 69 74 31 00        S........sit1.  
```

#### Opcodes

```
  0: 0x0579 [0x03] ExtData[1]->WorkLocal[0] = Entity->Race
  1: 0x057E [0x1A] CALL_SUBROUTINE(address=0x02E7)
  2: 0x0581 [0x66] LOAD_EXT_SCHEDULER_MAIN: Load scheduler "sit1" with entities [EventEntity, EventEntity], work=ExtData[1]->WorkLocal[1]
  3: 0x0590 [0x53] WAIT_SCHEDULER_TASK: Wait for scheduler "sit1" with entities [EventEntity, EventEntity]
  4: 0x059D [0x00] END_REQSTACK()
```

### Event 65535.27

#### Metadata

| Field        | Value    |
|--------------|----------|
| Entrypoint   | 0x059E   |
| Data Size    | 42 bytes |
| Instructions | 6        |

```
      00 01 02 03 04 05 06 07  08 09 0A 0B 0C 0D 0E 0F
      -- -- -- -- -- -- -- --  -- -- -- -- -- -- -- --
0590:                                            03 00                ..
05A0: 00 07 7F 1A E7 02 66 01  00 F8 FF FF 7F F8 FF FF  ......f.........
05B0: 7F 74 6C 6B 30 1C 3A 80  66 01 00 F8 FF FF 7F F8  .tlk0.:.f.......
05C0: FF FF 7F 74 6C 6B 31 00                           ...tlk1.        
```

#### Opcodes

```
  0: 0x059E [0x03] ExtData[1]->WorkLocal[0] = Entity->Race
  1: 0x05A3 [0x1A] CALL_SUBROUTINE(address=0x02E7)
  2: 0x05A6 [0x66] LOAD_EXT_SCHEDULER_MAIN: Load scheduler "tlk0" with entities [EventEntity, EventEntity], work=ExtData[1]->WorkLocal[1]
  3: 0x05B5 [0x1C] WAIT(60* ticks)
  4: 0x05B8 [0x66] LOAD_EXT_SCHEDULER_MAIN: Load scheduler "tlk1" with entities [EventEntity, EventEntity], work=ExtData[1]->WorkLocal[1]
  5: 0x05C7 [0x00] END_REQSTACK()
```

### Event 5515

#### Metadata

| Field        | Value     |
|--------------|-----------|
| Entrypoint   | 0x05C8    |
| Data Size    | 233 bytes |
| Instructions | 52        |

```
      00 01 02 03 04 05 06 07  08 09 0A 0B 0C 0D 0E 0F
      -- -- -- -- -- -- -- --  -- -- -- -- -- -- -- --
05C0:                          42 03 13 00 5B 80 03 16          B...[...
05D0: 00 03 10 06 01 10 06 15  00 06 0A 00 06 0B 00 06  ................
05E0: 14 00 40 01 80 5C 80 14  00 5D 80 0F 14 00 16 00  ..@..\...]......
05F0: 10 14 00 00 80 24 5E 80  01 80 14 00 25 02 00 10  .....$^.....%...
0600: 01 80 00 0F 06 03 01 10  5F 80 21 00 01 0F 06 03  ........_.!.....
0610: 15 00 00 10 0C 15 00 9D  00 9E 0B 0A 00 15 00 40  ...............@
0620: 01 80 60 80 01 10 0A 00  40 61 80 62 80 01 10 01  ..`.....@a.b....
0630: 80 40 63 80 64 80 01 10  0B 00 03 11 00 01 10 06  .@c.d...........
0640: 08 00 05 0C 00 02 08 00  01 80 00 AF 06 9D 00 CE  ................
0650: 0B 02 10 15 00 03 03 10  13 00 02 15 00 65 80 00  .............e..
0660: 69 06 48 66 80 23 01 6D  06 48 67 80 23 24 68 80  i.Hf.#.m.Hg.#$h.
0670: 0C 00 01 80 25 02 00 10  01 80 00 89 06 06 0C 00  ....%...........
0680: 48 69 80 1A 35 08 01 AC  06 02 00 10 00 80 00 AC  Hi..5...........
0690: 06 03 01 10 5F 80 9D 00  CE 0B 02 10 15 00 03 03  ...._...........
06A0: 10 13 00 48 6A 80 05 08  00 01 AC 06 01 45 06 21  ...Hj........E.!
06B0: 00                                                .               
```

#### Opcodes

```
  0: 0x05C8 [0x42] SET_CLI_EVENT_CANCEL_DATA()
  1: 0x05C9 [0x03] ExtData[1]->WorkLocal[19] = 3*
  2: 0x05CE [0x03] ExtData[1]->WorkLocal[22] = Work_Zone[3]
  3: 0x05D3 [0x06] Work_Zone[1] = 0
  4: 0x05D6 [0x06] ExtData[1]->WorkLocal[21] = 0
  5: 0x05D9 [0x06] ExtData[1]->WorkLocal[10] = 0
  6: 0x05DC [0x06] ExtData[1]->WorkLocal[11] = 0
  7: 0x05DF [0x06] ExtData[1]->WorkLocal[20] = 0
  8: 0x05E2 [0x40] SET_BIT_WORK_RANGE(start_bit=0*, end_bit=31*, target=ExtData[1]->WorkLocal[20], source=4294967295*)
  9: 0x05EB [0x0F] ExtData[1]->WorkLocal[20] ^= ExtData[1]->WorkLocal[22]
 10: 0x05F0 [0x10] ExtData[1]->WorkLocal[20] <<= 1*
 11: 0x05F5 [0x24] CREATE_DIALOG(message_id=7745*, default_option=0*, option_flags=ExtData[1]->WorkLocal[20])
    → "Enter which battlefield? [None./Endeavoring to Awaken./Endeavoring to Awaken./ /Behind the Sluices./Stonewalled./The Gates./Saved by the Bell./Quiescence./The Charlatan./Yggdrasil Beckons./Yggdrasil Beckons./Watery Grave./Mistress of Ceremonies./A Barrel of Laughs./Sinister Reign./The Ygnas Directive 6./Skirmishes./[Fractures/Obscured Domains]./Alluvion skirmishes./The Silent Forest./Wind of Eternity./Phantasmic Heroes.]"
 12: 0x05FC [0x25] WAIT_DIALOG_SELECT()
 13: 0x05FD [0x02] IF !(Work_Zone[0] == 0*) GOTO 0x060F
 14: 0x0605 [0x03] Work_Zone[1] = 1073741824*
 15: 0x060A [0x21] END_EVENT
 16: 0x060B [0x00] END_REQSTACK()

SUBROUTINE_060F:
 17: 0x060F [0x03] ExtData[1]->WorkLocal[21] = Work_Zone[0]
 18: 0x0614 [0x0C] ExtData[1]->WorkLocal[21]--
 19: 0x0617 [0x9D] ExtData[1]->WorkLocal[10] = 0x0B9E[ExtData[1]->WorkLocal[21]] // Read WORD
 20: 0x061F [0x40] SET_BIT_WORK_RANGE(start_bit=0*, end_bit=11*, target=Work_Zone[1], source=ExtData[1]->WorkLocal[10])
 21: 0x0628 [0x40] SET_BIT_WORK_RANGE(start_bit=12*, end_bit=15*, target=Work_Zone[1], source=0*)
 22: 0x0631 [0x40] SET_BIT_WORK_RANGE(start_bit=16*, end_bit=29*, target=Work_Zone[1], source=ExtData[1]->WorkLocal[11])
 23: 0x063A [0x03] ExtData[1]->WorkLocal[17] = Work_Zone[1]
 24: 0x063F [0x06] ExtData[1]->WorkLocal[8] = 0
 25: 0x0642 [0x05] ExtData[1]->WorkLocal[12] = 1

SUBROUTINE_0645:
 26: 0x0645 [0x02] IF !(ExtData[1]->WorkLocal[8] == 0*) GOTO 0x06AF
 27: 0x064D [0x9D] Work_Zone[2] = 0x0BCE[ExtData[1]->WorkLocal[21]] // Read WORD
 28: 0x0655 [0x03] Work_Zone[3] = ExtData[1]->WorkLocal[19]
 29: 0x065A [0x02] IF !(ExtData[1]->WorkLocal[21] == 21*) GOTO 0x0669
 30: 0x0662 [0x48] [System] [7758*]:
    → "Entering [/Skrimish: ////Alluvion Skirmish: /]$8. Proceed?"
 31: 0x0665 [0x23] WAIT_FOR_DIALOG_INTERACTION
 32: 0x0666 [0x01] GOTO 0x066D
 33: 0x0669 [0x48] [System] [7725*]:
    → "Only party members present with you in this area will be transported to [/this skirmish in ////this alluvion skirmish in /]$8."
 34: 0x066C [0x23] WAIT_FOR_DIALOG_INTERACTION

SUBROUTINE_066D:
 35: 0x066D [0x24] CREATE_DIALOG(message_id=7726*, default_option=ExtData[1]->WorkLocal[12], option_flags=0*)
    → "Proceed? [Yes./No.]"
 36: 0x0674 [0x25] WAIT_DIALOG_SELECT()
 37: 0x0675 [0x02] IF !(Work_Zone[0] == 0*) GOTO 0x0689
 38: 0x067D [0x06] ExtData[1]->WorkLocal[12] = 0
 39: 0x0680 [0x48] [System] [7733*]:
    → "Your request for entry is being considered..."
 40: 0x0683 [0x1A] CALL_SUBROUTINE(address=0x0835)
 41: 0x0686 [0x01] GOTO 0x06AC
 42: 0x0689 [0x02] IF !(Work_Zone[0] == 1*) GOTO 0x06AC
 43: 0x0691 [0x03] Work_Zone[1] = 1073741824*
 44: 0x0696 [0x9D] Work_Zone[2] = 0x0BCE[ExtData[1]->WorkLocal[21]] // Read WORD
 45: 0x069E [0x03] Work_Zone[3] = ExtData[1]->WorkLocal[19]
 46: 0x06A3 [0x48] [System] [7728*]:
    → "You have chosen not to enter [/this skirmish in ////this alluvion skirmish in /]$8."
 47: 0x06A6 [0x05] ExtData[1]->WorkLocal[8] = 1
 48: 0x06A9 [0x01] GOTO 0x06AC

SUBROUTINE_06AC:
 49: 0x06AC [0x01] GOTO 0x0645
 50: 0x06AF [0x21] END_EVENT
 51: 0x06B0 [0x00] END_REQSTACK()
```

#### Data or dead code:

```
# Dead code (unreachable instructions):
     0x060C [0x01] GOTO 0x060F
```

### Event 5517

#### Metadata

| Field        | Value      |
|--------------|------------|
| Entrypoint   | 0x06B1     |
| Data Size    | 1389 bytes |
| Instructions | 271        |

```
      00 01 02 03 04 05 06 07  08 09 0A 0B 0C 0D 0E 0F
      -- -- -- -- -- -- -- --  -- -- -- -- -- -- -- --
06B0:    42 03 13 00 5B 80 06  01 10 06 15 00 06 0A 00   B...[..........
06C0: 06 0B 00 06 14 00 03 16  00 03 10 03 15 00 04 10  ................
06D0: 03 02 10 6B 80 48 6C 80  23 03 02 10 01 80 03 03  ...k.Hl.#.......
06E0: 10 01 80 03 04 10 01 80  03 05 10 01 80 03 06 10  ................
06F0: 01 80 03 07 10 01 80 03  08 10 01 80 03 09 10 01  ................
0700: 80 3E 15 00 01 80 0D 07  03 02 10 00 80 3E 15 00  .>...........>..
0710: 00 80 19 07 03 03 10 00  80 3E 15 00 38 80 25 07  .........>..8.%.
0720: 03 04 10 00 80 3E 15 00  5B 80 31 07 03 05 10 00  .....>..[.1.....
0730: 80 3E 15 00 6D 80 3D 07  03 06 10 00 80 3E 15 00  .>..m.=......>..
0740: 3C 80 49 07 03 07 10 00  80 3E 15 00 6E 80 55 07  <.I......>..n.U.
0750: 03 08 10 00 80 3E 15 00  52 80 61 07 03 09 10 00  .....>..R.a.....
0760: 80 3E 15 00 51 80 6D 07  03 00 17 00 80 24 6F 80  .>..Q.m......$o.
0770: 01 80 16 00 25 02 00 10  01 80 00 87 07 03 01 10  ....%...........
0780: 5F 80 21 00 01 87 07 02  00 10 00 80 04 B6 07 03  _.!.............
0790: 16 00 00 10 0C 16 00 03  02 10 6B 80 24 70 80 01  ..........k.$p..
07A0: 80 01 80 25 02 00 10 00  80 00 B6 07 03 01 10 5F  ...%..........._
07B0: 80 21 00 01 B6 07 9D 0A  FE 0B 0A 00 16 00 3D 80  .!............=.
07C0: 40 01 80 60 80 01 10 0A  00 40 61 80 62 80 01 10  @..`.....@a.b...
07D0: 01 80 40 63 80 64 80 01  10 0B 00 03 11 00 01 10  ..@c.d..........
07E0: 06 08 00 05 0C 00 02 08  00 01 80 00 33 08 03 02  ............3...
07F0: 10 6B 80 03 03 10 01 80  03 04 10 00 80 48 71 80  .k...........Hq.
0800: 23 24 72 80 00 80 01 80  25 02 00 10 01 80 00 1D  #$r.....%.......
0810: 08 06 0C 00 48 69 80 1A  35 08 01 30 08 02 00 10  ....Hi..5..0....
0820: 00 80 00 30 08 03 01 10  5F 80 05 08 00 01 30 08  ...0...._.....0.
0830: 01 E6 07 21 00 06 0D 00  06 10 00 06 0E 00 02 0D  ...!............
0840: 00 01 80 00 65 08 02 10  00 01 80 80 54 08 1A 66  ....e.......T..f
0850: 08 01 62 08 02 10 00 00  80 80 62 08 1A 27 09 01  ..b.......b..'..
0860: 62 08 01 3E 08 1B 03 01  10 11 00 40 61 80 62 80  b..>.......@a.b.
0870: 01 10 10 00 43 00 43 01  03 0F 00 09 10 03 01 10  ....C.C.........
0880: 01 80 02 0F 00 00 80 80  92 08 03 10 00 00 80 01  ................
0890: 26 09 02 0F 00 38 80 80  B8 08 0B 0E 00 02 0E 00  &....8..........
08A0: 3C 80 02 B2 08 05 0D 00  48 73 80 23 1C 3A 80 01  <.......Hs.#.:..
08B0: B5 08 1C 74 80 01 26 09  02 0F 00 5B 80 80 CE 08  ...t..&....[....
08C0: 03 01 10 5F 80 05 0D 00  05 08 00 01 26 09 02 0F  ..._........&...
08D0: 00 6D 80 80 E4 08 03 01  10 5F 80 05 0D 00 05 08  .m......._......
08E0: 00 01 26 09 02 0F 00 3C  80 80 FA 08 03 01 10 5F  ..&....<......._
08F0: 80 05 0D 00 05 08 00 01  26 09 02 0F 00 6E 80 80  ........&....n..
0900: 10 09 03 01 10 5F 80 05  0D 00 05 08 00 01 26 09  ....._........&.
0910: 02 0F 00 52 80 80 26 09  03 01 10 5F 80 05 0D 00  ...R..&...._....
0920: 05 08 00 01 26 09 1B 03  01 10 11 00 40 61 80 62  ....&.......@a.b
0930: 80 01 10 10 00 43 00 43  01 03 01 10 01 80 03 0F  .....C.C........
0940: 00 09 10 02 0F 00 5B 80  80 56 09 03 01 10 5F 80  ......[..V...._.
0950: 05 0D 00 01 9D 0B 02 0F  00 6D 80 80 6C 09 03 01  .........m..l...
0960: 10 5F 80 05 0D 00 05 08  00 01 9D 0B 02 0F 00 3C  ._.............<
0970: 80 80 82 09 03 01 10 5F  80 05 0D 00 05 08 00 01  ......._........
0980: 9D 0B 02 0F 00 6E 80 80  98 09 03 01 10 5F 80 05  .....n......._..
0990: 0D 00 05 08 00 01 9D 0B  02 0F 00 52 80 80 AE 09  ...........R....
09A0: 03 01 10 5F 80 05 0D 00  05 08 00 01 9D 0B 02 0F  ..._............
09B0: 00 51 80 80 3C 0B 02 0A  00 75 80 80 CF 09 03 02  .Q..<....u......
09C0: 10 76 80 03 03 10 00 80  48 77 80 23 01 BE 0A 02  .v......Hw.#....
09D0: 0A 00 78 80 80 E8 09 03  02 10 76 80 03 03 10 00  ..x.......v.....
09E0: 80 48 77 80 23 01 BE 0A  02 0A 00 79 80 80 01 0A  .Hw.#......y....
09F0: 03 02 10 76 80 03 03 10  00 80 48 77 80 23 01 BE  ...v......Hw.#..
0A00: 0A 02 0A 00 7A 80 80 1A  0A 03 02 10 76 80 03 03  ....z.......v...
0A10: 10 00 80 48 77 80 23 01  BE 0A 02 0A 00 7B 80 80  ...Hw.#......{..
0A20: 33 0A 03 02 10 76 80 03  03 10 00 80 48 77 80 23  3....v......Hw.#
0A30: 01 BE 0A 02 0A 00 7C 80  80 4C 0A 03 02 10 76 80  ......|..L....v.
0A40: 03 03 10 00 80 48 77 80  23 01 BE 0A 02 0A 00 7D  .....Hw.#......}
0A50: 80 80 65 0A 03 02 10 76  80 03 03 10 00 80 48 77  ..e....v......Hw
0A60: 80 23 01 BE 0A 02 0A 00  7E 80 80 7E 0A 03 02 10  .#......~..~....
0A70: 76 80 03 03 10 00 80 48  77 80 23 01 BE 0A 02 0A  v......Hw.#.....
0A80: 00 7F 80 80 97 0A 03 02  10 76 80 03 03 10 00 80  .........v......
0A90: 48 77 80 23 01 BE 0A 02  0A 00 80 80 80 B0 0A 03  Hw.#............
0AA0: 02 10 76 80 03 03 10 00  80 48 77 80 23 01 BE 0A  ..v......Hw.#...
0AB0: 03 02 10 76 80 03 03 10  13 00 48 81 80 23 62 00  ...v......H..#b.
0AC0: 80 F0 FF FF 7F F0 FF FF  7F 6D 61 69 6E 01 80 1C  .........main...
0AD0: 82 80 45 56 80 F0 FF FF  7F F0 FF FF 7F 77 68 6F  ..EV.........who
0AE0: 31 01 80 55 56 80 F0 FF  FF 7F F0 FF FF 7F 77 68  1..UV.........wh
0AF0: 6F 31 1C 49 80 45 23 80  F0 FF FF 7F F0 FF FF 7F  o1.I.E#.........
0B00: 66 64 6F 31 01 80 55 23  80 F0 FF FF 7F F0 FF FF  fdo1..U#........
0B10: 7F 66 64 6F 31 45 56 80  F0 FF FF 7F F0 FF FF 7F  .fdo1EV.........
0B20: 77 68 69 31 01 80 1C 62  80 30 05 0D 00 05 08 00  whi1...b.0......
0B30: 40 01 80 52 80 01 10 51  80 01 9D 0B 02 0F 00 3E  @..R...Q.......>
0B40: 80 80 4F 0B 03 01 10 5F  80 05 0D 00 01 9D 0B 02  ..O...._........
0B50: 0F 00 3D 80 80 65 0B 03  01 10 5F 80 05 0D 00 05  ..=..e...._.....
0B60: 08 00 01 9D 0B 02 0F 00  60 80 80 9D 0B 0B 0E 00  ........`.......
0B70: 02 0E 00 62 80 02 97 0B  03 01 10 11 00 40 61 80  ...b.........@a.
0B80: 62 80 01 10 38 80 43 00  43 01 05 0D 00 48 73 80  b...8.C.C....Hs.
0B90: 23 1C 3A 80 01 9A 0B 1C  74 80 01 9D 0B 1B 83 80  #.:.....t.......
0BA0: 84 80 85 80 86 80 87 80  88 80 89 80 8A 80 8B 80  ................
0BB0: 8C 80 8D 80 8E 80 8F 80  90 80 75 80 91 80 01 80  ..........u.....
0BC0: 01 80 01 80 92 80 92 80  93 80 01 80 01 80 76 80  ..............v.
0BD0: 76 80 94 80 76 80 95 80  95 80 94 80 76 80 76 80  v...v.......v.v.
0BE0: 94 80 95 80 76 80 94 80  76 80 76 80 94 80 01 80  ....v...v.v.....
0BF0: 01 80 01 80 94 80 94 80  96 80 01 80 01 80 75 80  ..............u.
0C00: 78 80 79 80 7A 80 7B 80  7C 80 7D 80 7E 80 7F 80  x.y.z.{.|.}.~...
0C10: 80 80 01 80 01 80 01 80  01 80 01 80 01 80        ..............  
```

#### Opcodes

```
  0: 0x06B1 [0x42] SET_CLI_EVENT_CANCEL_DATA()
  1: 0x06B2 [0x03] ExtData[1]->WorkLocal[19] = 3*
  2: 0x06B7 [0x06] Work_Zone[1] = 0
  3: 0x06BA [0x06] ExtData[1]->WorkLocal[21] = 0
  4: 0x06BD [0x06] ExtData[1]->WorkLocal[10] = 0
  5: 0x06C0 [0x06] ExtData[1]->WorkLocal[11] = 0
  6: 0x06C3 [0x06] ExtData[1]->WorkLocal[20] = 0
  7: 0x06C6 [0x03] ExtData[1]->WorkLocal[22] = Work_Zone[3]
  8: 0x06CB [0x03] ExtData[1]->WorkLocal[21] = Work_Zone[4]
  9: 0x06D0 [0x03] Work_Zone[2] = 2960*
 10: 0x06D5 [0x48] [System] [7892*]:
    → "Your $3 emits a strange pulse!"
 11: 0x06D8 [0x23] WAIT_FOR_DIALOG_INTERACTION
 12: 0x06D9 [0x03] Work_Zone[2] = 0*
 13: 0x06DE [0x03] Work_Zone[3] = 0*
 14: 0x06E3 [0x03] Work_Zone[4] = 0*
 15: 0x06E8 [0x03] Work_Zone[5] = 0*
 16: 0x06ED [0x03] Work_Zone[6] = 0*
 17: 0x06F2 [0x03] Work_Zone[7] = 0*
 18: 0x06F7 [0x03] Work_Zone[8] = 0*
 19: 0x06FC [0x03] Work_Zone[9] = 0*
 20: 0x0701 [0x3E] IF !(ExtData[1]->WorkLocal[21] bit 0*) GOTO 0x070D
 21: 0x0708 [0x03] Work_Zone[2] = 1*
 22: 0x070D [0x3E] IF !(ExtData[1]->WorkLocal[21] bit 1*) GOTO 0x0719
 23: 0x0714 [0x03] Work_Zone[3] = 1*
 24: 0x0719 [0x3E] IF !(ExtData[1]->WorkLocal[21] bit 2*) GOTO 0x0725
 25: 0x0720 [0x03] Work_Zone[4] = 1*
 26: 0x0725 [0x3E] IF !(ExtData[1]->WorkLocal[21] bit 3*) GOTO 0x0731
 27: 0x072C [0x03] Work_Zone[5] = 1*
 28: 0x0731 [0x3E] IF !(ExtData[1]->WorkLocal[21] bit 4*) GOTO 0x073D
 29: 0x0738 [0x03] Work_Zone[6] = 1*
 30: 0x073D [0x3E] IF !(ExtData[1]->WorkLocal[21] bit 5*) GOTO 0x0749
 31: 0x0744 [0x03] Work_Zone[7] = 1*
 32: 0x0749 [0x3E] IF !(ExtData[1]->WorkLocal[21] bit 6*) GOTO 0x0755
 33: 0x0750 [0x03] Work_Zone[8] = 1*
 34: 0x0755 [0x3E] IF !(ExtData[1]->WorkLocal[21] bit 7*) GOTO 0x0761
 35: 0x075C [0x03] Work_Zone[9] = 1*
 36: 0x0761 [0x3E] IF !(ExtData[1]->WorkLocal[21] bit 8*) GOTO 0x076D
 37: 0x0768 [0x03] Work_Zone_1700[0] = 1*
 38: 0x076D [0x24] CREATE_DIALOG(message_id=7756*, default_option=0*, option_flags=ExtData[1]->WorkLocal[22])
    → "Which battlefield will you enter? [None./Sinister Reign./Arciela.[/y$26z]/Darrcuiln.[/y$26z]/Ingrid.[/y$26z]/Morimar.[/y$26z]/Rosulatia.[/y$26z]/Teodor.[/y$26z]/Arciela II.[/y$26z]/Sajj'aka.[/y$26z]/August.[/y$26z]]"
 39: 0x0774 [0x25] WAIT_DIALOG_SELECT()
 40: 0x0775 [0x02] IF !(Work_Zone[0] == 0*) GOTO 0x0787
 41: 0x077D [0x03] Work_Zone[1] = 1073741824*
 42: 0x0782 [0x21] END_EVENT
 43: 0x0783 [0x00] END_REQSTACK()

SUBROUTINE_0787:
 44: 0x0787 [0x02] IF !(Work_Zone[0] < 1*) GOTO 0x07B6
 45: 0x078F [0x03] ExtData[1]->WorkLocal[22] = Work_Zone[0]
 46: 0x0794 [0x0C] ExtData[1]->WorkLocal[22]--
 47: 0x0797 [0x03] Work_Zone[2] = 2960*
 48: 0x079C [0x24] CREATE_DIALOG(message_id=7893*, default_option=0*, option_flags=0*)
    → "Now what? [Use the $3./Do nothing.]"
 49: 0x07A3 [0x25] WAIT_DIALOG_SELECT()
 50: 0x07A4 [0x02] IF !(Work_Zone[0] == 1*) GOTO 0x07B6
 51: 0x07AC [0x03] Work_Zone[1] = 1073741824*
 52: 0x07B1 [0x21] END_EVENT
 53: 0x07B2 [0x00] END_REQSTACK()

SUBROUTINE_07B6:
 54: 0x07B6 [0x9D] IF (0x0BFE) ExtData[1]->WorkLocal[22] = ExtData[1]->WorkLocal[10] // extra=0x803D
 55: 0x07C0 [0x40] SET_BIT_WORK_RANGE(start_bit=0*, end_bit=11*, target=Work_Zone[1], source=ExtData[1]->WorkLocal[10])
 56: 0x07C9 [0x40] SET_BIT_WORK_RANGE(start_bit=12*, end_bit=15*, target=Work_Zone[1], source=0*)
 57: 0x07D2 [0x40] SET_BIT_WORK_RANGE(start_bit=16*, end_bit=29*, target=Work_Zone[1], source=ExtData[1]->WorkLocal[11])
 58: 0x07DB [0x03] ExtData[1]->WorkLocal[17] = Work_Zone[1]
 59: 0x07E0 [0x06] ExtData[1]->WorkLocal[8] = 0
 60: 0x07E3 [0x05] ExtData[1]->WorkLocal[12] = 1

SUBROUTINE_07E6:
 61: 0x07E6 [0x02] IF !(ExtData[1]->WorkLocal[8] == 0*) GOTO 0x0833
 62: 0x07EE [0x03] Work_Zone[2] = 2960*
 63: 0x07F3 [0x03] Work_Zone[3] = 0*
 64: 0x07F8 [0x03] Work_Zone[4] = 1*
 65: 0x07FD [0x48] [System] [7755*]:
    → "Consume your $3 and send all [party/alliance] members to [Fractures/the obscured domain]?"
 66: 0x0800 [0x23] WAIT_FOR_DIALOG_INTERACTION
 67: 0x0801 [0x24] CREATE_DIALOG(message_id=7904*, default_option=1*, option_flags=0*)
    → "Proceed? [Yes./No.]"
 68: 0x0808 [0x25] WAIT_DIALOG_SELECT()
 69: 0x0809 [0x02] IF !(Work_Zone[0] == 0*) GOTO 0x081D
 70: 0x0811 [0x06] ExtData[1]->WorkLocal[12] = 0
 71: 0x0814 [0x48] [System] [7733*]:
    → "Your request for entry is being considered..."
 72: 0x0817 [0x1A] CALL_SUBROUTINE(address=0x0835)
 73: 0x081A [0x01] GOTO 0x0830
 74: 0x081D [0x02] IF !(Work_Zone[0] == 1*) GOTO 0x0830
 75: 0x0825 [0x03] Work_Zone[1] = 1073741824*
 76: 0x082A [0x05] ExtData[1]->WorkLocal[8] = 1
 77: 0x082D [0x01] GOTO 0x0830

SUBROUTINE_0830:
 78: 0x0830 [0x01] GOTO 0x07E6
 79: 0x0833 [0x21] END_EVENT
 80: 0x0834 [0x00] END_REQSTACK()

SUBROUTINE_0835:
 81: 0x0835 [0x06] ExtData[1]->WorkLocal[13] = 0
 82: 0x0838 [0x06] ExtData[1]->WorkLocal[16] = 0
 83: 0x083B [0x06] ExtData[1]->WorkLocal[14] = 0

SUBROUTINE_083E:
 84: 0x083E [0x02] IF !(ExtData[1]->WorkLocal[13] == 0*) GOTO 0x0865
 85: 0x0846 [0x02] IF !(ExtData[1]->WorkLocal[16] == 0*) GOTO 0x0854
 86: 0x084E [0x1A] CALL_SUBROUTINE(address=0x0866)
 87: 0x0851 [0x01] GOTO 0x0862
 88: 0x0854 [0x02] IF !(ExtData[1]->WorkLocal[16] == 1*) GOTO 0x0862
 89: 0x085C [0x1A] CALL_SUBROUTINE(address=0x0927)
 90: 0x085F [0x01] GOTO 0x0862

SUBROUTINE_0862:
 91: 0x0862 [0x01] GOTO 0x083E
 92: 0x0865 [0x1B] RETURN

SUBROUTINE_0866:
 93: 0x0866 [0x03] Work_Zone[1] = ExtData[1]->WorkLocal[17]
 94: 0x086B [0x40] SET_BIT_WORK_RANGE(start_bit=12*, end_bit=15*, target=Work_Zone[1], source=ExtData[1]->WorkLocal[16])
 95: 0x0874 [0x43] SEND_EVENT_UPDATE: Send pending tag to server (packet 0x005B)
 96: 0x0876 [0x43] SEND_EVENT_UPDATE: Check pending flag (skip if not pending)
 97: 0x0878 [0x03] ExtData[1]->WorkLocal[15] = Work_Zone[9]
 98: 0x087D [0x03] Work_Zone[1] = 0*
 99: 0x0882 [0x02] IF !(ExtData[1]->WorkLocal[15] == 1*) GOTO 0x0892
100: 0x088A [0x03] ExtData[1]->WorkLocal[16] = 1*
101: 0x088F [0x01] GOTO 0x0926
102: 0x0892 [0x02] IF !(ExtData[1]->WorkLocal[15] == 2*) GOTO 0x08B8
103: 0x089A [0x0B] ExtData[1]->WorkLocal[14]++
104: 0x089D [0x02] IF !(ExtData[1]->WorkLocal[14] <= 5*) GOTO 0x08B2
105: 0x08A5 [0x05] ExtData[1]->WorkLocal[13] = 1
106: 0x08A8 [0x48] [System] [7730*]:
    → "You cannot enter at this time. Please wait a moment and try again."
107: 0x08AB [0x23] WAIT_FOR_DIALOG_INTERACTION
108: 0x08AC [0x1C] WAIT(60* ticks)
109: 0x08AF [0x01] GOTO 0x08B5
110: 0x08B2 [0x1C] WAIT(120* ticks)

SUBROUTINE_08B5:
111: 0x08B5 [0x01] GOTO 0x0926
112: 0x08B8 [0x02] IF !(ExtData[1]->WorkLocal[15] == 3*) GOTO 0x08CE
113: 0x08C0 [0x03] Work_Zone[1] = 1073741824*
114: 0x08C5 [0x05] ExtData[1]->WorkLocal[13] = 1
115: 0x08C8 [0x05] ExtData[1]->WorkLocal[8] = 1
116: 0x08CB [0x01] GOTO 0x0926
117: 0x08CE [0x02] IF !(ExtData[1]->WorkLocal[15] == 4*) GOTO 0x08E4
118: 0x08D6 [0x03] Work_Zone[1] = 1073741824*
119: 0x08DB [0x05] ExtData[1]->WorkLocal[13] = 1
120: 0x08DE [0x05] ExtData[1]->WorkLocal[8] = 1
121: 0x08E1 [0x01] GOTO 0x0926
122: 0x08E4 [0x02] IF !(ExtData[1]->WorkLocal[15] == 5*) GOTO 0x08FA
123: 0x08EC [0x03] Work_Zone[1] = 1073741824*
124: 0x08F1 [0x05] ExtData[1]->WorkLocal[13] = 1
125: 0x08F4 [0x05] ExtData[1]->WorkLocal[8] = 1
126: 0x08F7 [0x01] GOTO 0x0926
127: 0x08FA [0x02] IF !(ExtData[1]->WorkLocal[15] == 6*) GOTO 0x0910
128: 0x0902 [0x03] Work_Zone[1] = 1073741824*
129: 0x0907 [0x05] ExtData[1]->WorkLocal[13] = 1
130: 0x090A [0x05] ExtData[1]->WorkLocal[8] = 1
131: 0x090D [0x01] GOTO 0x0926
132: 0x0910 [0x02] IF !(ExtData[1]->WorkLocal[15] == 7*) GOTO 0x0926
133: 0x0918 [0x03] Work_Zone[1] = 1073741824*
134: 0x091D [0x05] ExtData[1]->WorkLocal[13] = 1
135: 0x0920 [0x05] ExtData[1]->WorkLocal[8] = 1
136: 0x0923 [0x01] GOTO 0x0926

SUBROUTINE_0926:
137: 0x0926 [0x1B] RETURN

SUBROUTINE_0927:
138: 0x0927 [0x03] Work_Zone[1] = ExtData[1]->WorkLocal[17]
139: 0x092C [0x40] SET_BIT_WORK_RANGE(start_bit=12*, end_bit=15*, target=Work_Zone[1], source=ExtData[1]->WorkLocal[16])
140: 0x0935 [0x43] SEND_EVENT_UPDATE: Send pending tag to server (packet 0x005B)
141: 0x0937 [0x43] SEND_EVENT_UPDATE: Check pending flag (skip if not pending)
142: 0x0939 [0x03] Work_Zone[1] = 0*
143: 0x093E [0x03] ExtData[1]->WorkLocal[15] = Work_Zone[9]
144: 0x0943 [0x02] IF !(ExtData[1]->WorkLocal[15] == 3*) GOTO 0x0956
145: 0x094B [0x03] Work_Zone[1] = 1073741824*
146: 0x0950 [0x05] ExtData[1]->WorkLocal[13] = 1
147: 0x0953 [0x01] GOTO 0x0B9D
148: 0x0956 [0x02] IF !(ExtData[1]->WorkLocal[15] == 4*) GOTO 0x096C
149: 0x095E [0x03] Work_Zone[1] = 1073741824*
150: 0x0963 [0x05] ExtData[1]->WorkLocal[13] = 1
151: 0x0966 [0x05] ExtData[1]->WorkLocal[8] = 1
152: 0x0969 [0x01] GOTO 0x0B9D
153: 0x096C [0x02] IF !(ExtData[1]->WorkLocal[15] == 5*) GOTO 0x0982
154: 0x0974 [0x03] Work_Zone[1] = 1073741824*
155: 0x0979 [0x05] ExtData[1]->WorkLocal[13] = 1
156: 0x097C [0x05] ExtData[1]->WorkLocal[8] = 1
157: 0x097F [0x01] GOTO 0x0B9D
158: 0x0982 [0x02] IF !(ExtData[1]->WorkLocal[15] == 6*) GOTO 0x0998
159: 0x098A [0x03] Work_Zone[1] = 1073741824*
160: 0x098F [0x05] ExtData[1]->WorkLocal[13] = 1
161: 0x0992 [0x05] ExtData[1]->WorkLocal[8] = 1
162: 0x0995 [0x01] GOTO 0x0B9D
163: 0x0998 [0x02] IF !(ExtData[1]->WorkLocal[15] == 7*) GOTO 0x09AE
164: 0x09A0 [0x03] Work_Zone[1] = 1073741824*
165: 0x09A5 [0x05] ExtData[1]->WorkLocal[13] = 1
166: 0x09A8 [0x05] ExtData[1]->WorkLocal[8] = 1
167: 0x09AB [0x01] GOTO 0x0B9D
168: 0x09AE [0x02] IF !(ExtData[1]->WorkLocal[15] == 8*) GOTO 0x0B3C
169: 0x09B6 [0x02] IF !(ExtData[1]->WorkLocal[10] == 854*) GOTO 0x09CF
170: 0x09BE [0x03] Work_Zone[2] = 259*
171: 0x09C3 [0x03] Work_Zone[3] = 1*
172: 0x09C8 [0x48] [System] [7742*]:
    → "Now permeating the mists surrounding the [fracture/obscured domain]."
173: 0x09CB [0x23] WAIT_FOR_DIALOG_INTERACTION
174: 0x09CC [0x01] GOTO 0x0ABE
175: 0x09CF [0x02] IF !(ExtData[1]->WorkLocal[10] == 863*) GOTO 0x09E8
176: 0x09D7 [0x03] Work_Zone[2] = 259*
177: 0x09DC [0x03] Work_Zone[3] = 1*
178: 0x09E1 [0x48] [System] [7742*]:
    → "Now permeating the mists surrounding the [fracture/obscured domain]."
179: 0x09E4 [0x23] WAIT_FOR_DIALOG_INTERACTION
180: 0x09E5 [0x01] GOTO 0x0ABE
181: 0x09E8 [0x02] IF !(ExtData[1]->WorkLocal[10] == 864*) GOTO 0x0A01
182: 0x09F0 [0x03] Work_Zone[2] = 259*
183: 0x09F5 [0x03] Work_Zone[3] = 1*
184: 0x09FA [0x48] [System] [7742*]:
    → "Now permeating the mists surrounding the [fracture/obscured domain]."
185: 0x09FD [0x23] WAIT_FOR_DIALOG_INTERACTION
186: 0x09FE [0x01] GOTO 0x0ABE
187: 0x0A01 [0x02] IF !(ExtData[1]->WorkLocal[10] == 865*) GOTO 0x0A1A
188: 0x0A09 [0x03] Work_Zone[2] = 259*
189: 0x0A0E [0x03] Work_Zone[3] = 1*
190: 0x0A13 [0x48] [System] [7742*]:
    → "Now permeating the mists surrounding the [fracture/obscured domain]."
191: 0x0A16 [0x23] WAIT_FOR_DIALOG_INTERACTION
192: 0x0A17 [0x01] GOTO 0x0ABE
193: 0x0A1A [0x02] IF !(ExtData[1]->WorkLocal[10] == 866*) GOTO 0x0A33
194: 0x0A22 [0x03] Work_Zone[2] = 259*
195: 0x0A27 [0x03] Work_Zone[3] = 1*
196: 0x0A2C [0x48] [System] [7742*]:
    → "Now permeating the mists surrounding the [fracture/obscured domain]."
197: 0x0A2F [0x23] WAIT_FOR_DIALOG_INTERACTION
198: 0x0A30 [0x01] GOTO 0x0ABE
199: 0x0A33 [0x02] IF !(ExtData[1]->WorkLocal[10] == 867*) GOTO 0x0A4C
200: 0x0A3B [0x03] Work_Zone[2] = 259*
201: 0x0A40 [0x03] Work_Zone[3] = 1*
202: 0x0A45 [0x48] [System] [7742*]:
    → "Now permeating the mists surrounding the [fracture/obscured domain]."
203: 0x0A48 [0x23] WAIT_FOR_DIALOG_INTERACTION
204: 0x0A49 [0x01] GOTO 0x0ABE
205: 0x0A4C [0x02] IF !(ExtData[1]->WorkLocal[10] == 868*) GOTO 0x0A65
206: 0x0A54 [0x03] Work_Zone[2] = 259*
207: 0x0A59 [0x03] Work_Zone[3] = 1*
208: 0x0A5E [0x48] [System] [7742*]:
    → "Now permeating the mists surrounding the [fracture/obscured domain]."
209: 0x0A61 [0x23] WAIT_FOR_DIALOG_INTERACTION
210: 0x0A62 [0x01] GOTO 0x0ABE
211: 0x0A65 [0x02] IF !(ExtData[1]->WorkLocal[10] == 869*) GOTO 0x0A7E
212: 0x0A6D [0x03] Work_Zone[2] = 259*
213: 0x0A72 [0x03] Work_Zone[3] = 1*
214: 0x0A77 [0x48] [System] [7742*]:
    → "Now permeating the mists surrounding the [fracture/obscured domain]."
215: 0x0A7A [0x23] WAIT_FOR_DIALOG_INTERACTION
216: 0x0A7B [0x01] GOTO 0x0ABE
217: 0x0A7E [0x02] IF !(ExtData[1]->WorkLocal[10] == 870*) GOTO 0x0A97
218: 0x0A86 [0x03] Work_Zone[2] = 259*
219: 0x0A8B [0x03] Work_Zone[3] = 1*
220: 0x0A90 [0x48] [System] [7742*]:
    → "Now permeating the mists surrounding the [fracture/obscured domain]."
221: 0x0A93 [0x23] WAIT_FOR_DIALOG_INTERACTION
222: 0x0A94 [0x01] GOTO 0x0ABE
223: 0x0A97 [0x02] IF !(ExtData[1]->WorkLocal[10] == 871*) GOTO 0x0AB0
224: 0x0A9F [0x03] Work_Zone[2] = 259*
225: 0x0AA4 [0x03] Work_Zone[3] = 1*
226: 0x0AA9 [0x48] [System] [7742*]:
    → "Now permeating the mists surrounding the [fracture/obscured domain]."
227: 0x0AAC [0x23] WAIT_FOR_DIALOG_INTERACTION
228: 0x0AAD [0x01] GOTO 0x0ABE
229: 0x0AB0 [0x03] Work_Zone[2] = 259*
230: 0x0AB5 [0x03] Work_Zone[3] = ExtData[1]->WorkLocal[19]
231: 0x0ABA [0x48] [System] [7727*]:
    → "Now entering [/a skirmish in ////an alluvion skirmish in /]$8."
232: 0x0ABD [0x23] WAIT_FOR_DIALOG_INTERACTION

SUBROUTINE_0ABE:
233: 0x0ABE [0x62] LOAD_EVENT_SCHEDULER: Load scheduler "main" with entities [LocalPlayer, LocalPlayer], work=[1*, 0*]
234: 0x0ACF [0x1C] WAIT(90* ticks)
235: 0x0AD2 [0x45] LOAD_SCHEDULED_TASK: Load scheduler "who1" with entities [LocalPlayer, LocalPlayer], work=[201*, 0*]
236: 0x0AE3 [0x55] WAIT_LOAD_SCHEDULER: Wait for scheduler "who1" with entities [LocalPlayer, LocalPlayer], work=201*
237: 0x0AF2 [0x1C] WAIT(45* ticks)
238: 0x0AF5 [0x45] LOAD_SCHEDULED_TASK: Load scheduler "fdo1" with entities [LocalPlayer, LocalPlayer], work=[200*, 0*]
239: 0x0B06 [0x55] WAIT_LOAD_SCHEDULER: Wait for scheduler "fdo1" with entities [LocalPlayer, LocalPlayer], work=200*
240: 0x0B15 [0x45] LOAD_SCHEDULED_TASK: Load scheduler "whi1" with entities [LocalPlayer, LocalPlayer], work=[201*, 0*]
241: 0x0B26 [0x1C] WAIT(15* ticks)
242: 0x0B29 [0x30] SET_UCOFF_CONTINUE_ZERO()
243: 0x0B2A [0x05] ExtData[1]->WorkLocal[13] = 1
244: 0x0B2D [0x05] ExtData[1]->WorkLocal[8] = 1
245: 0x0B30 [0x40] SET_BIT_WORK_RANGE(start_bit=0*, end_bit=7*, target=Work_Zone[1], source=8*)
246: 0x0B39 [0x01] GOTO 0x0B9D
247: 0x0B3C [0x02] IF !(ExtData[1]->WorkLocal[15] == 9*) GOTO 0x0B4F
248: 0x0B44 [0x03] Work_Zone[1] = 1073741824*
249: 0x0B49 [0x05] ExtData[1]->WorkLocal[13] = 1
250: 0x0B4C [0x01] GOTO 0x0B9D
251: 0x0B4F [0x02] IF !(ExtData[1]->WorkLocal[15] == 10*) GOTO 0x0B65
252: 0x0B57 [0x03] Work_Zone[1] = 1073741824*
253: 0x0B5C [0x05] ExtData[1]->WorkLocal[13] = 1
254: 0x0B5F [0x05] ExtData[1]->WorkLocal[8] = 1
255: 0x0B62 [0x01] GOTO 0x0B9D
256: 0x0B65 [0x02] IF !(ExtData[1]->WorkLocal[15] == 11*) GOTO 0x0B9D
257: 0x0B6D [0x0B] ExtData[1]->WorkLocal[14]++
258: 0x0B70 [0x02] IF !(ExtData[1]->WorkLocal[14] <= 15*) GOTO 0x0B97
259: 0x0B78 [0x03] Work_Zone[1] = ExtData[1]->WorkLocal[17]
260: 0x0B7D [0x40] SET_BIT_WORK_RANGE(start_bit=12*, end_bit=15*, target=Work_Zone[1], source=2*)
261: 0x0B86 [0x43] SEND_EVENT_UPDATE: Send pending tag to server (packet 0x005B)
262: 0x0B88 [0x43] SEND_EVENT_UPDATE: Check pending flag (skip if not pending)
263: 0x0B8A [0x05] ExtData[1]->WorkLocal[13] = 1
264: 0x0B8D [0x48] [System] [7730*]:
    → "You cannot enter at this time. Please wait a moment and try again."
265: 0x0B90 [0x23] WAIT_FOR_DIALOG_INTERACTION
266: 0x0B91 [0x1C] WAIT(60* ticks)
267: 0x0B94 [0x01] GOTO 0x0B9A
268: 0x0B97 [0x1C] WAIT(120* ticks)

SUBROUTINE_0B9A:
269: 0x0B9A [0x01] GOTO 0x0B9D

SUBROUTINE_0B9D:
270: 0x0B9D [0x1B] RETURN
```

#### Data or dead code:

```
# Dead code (unreachable instructions):
     0x0784 [0x01] GOTO 0x0787
# Dead code (unreachable instructions):
     0x07B3 [0x01] GOTO 0x07B6
# Dead code (unreachable instructions):
     0x0B9E [0x83] References[1152] = GetGameTime()
     0x0BA1 [0x80] LOAD_WAIT(entity=Unknown NPC (ID: 2156298373/0x80868085))
     0x0BA6 [0x87] WORLD_PASS_HANDLER_A: Send world pass packet 0x1B (Para=0)
     0x0BA7 [0x80] LOAD_WAIT(entity=Unknown NPC (ID: 2156494984/0x80898088))
     0x0BAC [0x8A] CLOSE_MAP()
     0x0BAD [0x80] LOAD_WAIT(entity=Unknown NPC (ID: 2156691595/0x808C808B))
     0x0BB2 [0x8D] OPEN_MAP_WITH_PROPERTIES(map_id=References[3712], properties=References[3968])
     0x0BB7 [0x80] LOAD_WAIT(entity=Unknown NPC (ID: 2155184272/0x80758090))
     0x0BBC [0x91] ExtData[1]->MainSpeedBase = 0x0180 * 10.0
     0x0BBF [0x80] LOAD_WAIT(entity=Unknown NPC (ID: 2147581953/0x80018001))
     0x0BC4 [0x92] Unknown NPC (ID: 2157150354/0x80938092)->Render.Flags3 ^= 0x80
     0x0BCA [0x01] GOTO 0x0180
     0x0BCD [0x80] LOAD_WAIT(entity=Unknown NPC (ID: 2155249782/0x80768076))
     0x0BD2 [0x94] Unknown NPC (ID: 2157281398/0x80958076)->Render.Flags3 ^= 0x80
     0x0BD8 [0x95] SETUP_EVENT_NPC: Prepare NPC for event (Render.Flags3 = 0x9480)
     0x0BDB [0x80] LOAD_WAIT(entity=Unknown NPC (ID: 2155249782/0x80768076))
     0x0BE0 [0x94] Unknown NPC (ID: 2155249813/0x80768095)->Render.Flags3 ^= 0x80
     0x0BE6 [0x94] Unknown NPC (ID: 2155249782/0x80768076)->Render.Flags3 ^= 0x80
     0x0BEC [0x94] Unknown NPC (ID: 2147581953/0x80018001)->Render.Flags3 ^= 0x80
     0x0BF2 [0x01] GOTO 0x9480
     0x0BF5 [0x80] LOAD_WAIT(entity=Unknown NPC (ID: 2157346964/0x80968094))
     0x0BFA [0x01] GOTO 0x0180
     0x0BFD [0x80] LOAD_WAIT(entity=Unknown NPC (ID: 2155380853/0x80788075))
     0x0C02 [0x79] Unknown NPC (ID: 2155577466/0x807B807A) looks at Unknown NPC (ID: 2155708540/0x807D807C) (Unknown mode 128)
     0x0C0C [0x7E] CHOCOBO_MOUNT: Unknown mode 128
     0x0C12 [0x01] GOTO 0x0180
     0x0C15 [0x80] LOAD_WAIT(entity=Unknown NPC (ID: 2147581953/0x80018001))
     0x0C1A [0x01] GOTO 0x0180
```

### Event 5504

#### Metadata

| Field        | Value     |
|--------------|-----------|
| Entrypoint   | 0x0C1E    |
| Data Size    | 128 bytes |
| Instructions | 14        |

```
      00 01 02 03 04 05 06 07  08 09 0A 0B 0C 0D 0E 0F
      -- -- -- -- -- -- -- --  -- -- -- -- -- -- -- --
0C10:                                            42 45                BE
0C20: 23 80 F0 FF FF 7F F0 FF  FF 7F 66 64 6F 31 01 80  #.........fdo1..
0C30: 62 00 80 F0 FF FF 7F F0  FF FF 7F 6D 61 69 6E 01  b..........main.
0C40: 80 1C 82 80 45 56 80 F0  FF FF 7F F0 FF FF 7F 77  ....EV.........w
0C50: 68 6F 31 01 80 55 56 80  F0 FF FF 7F F0 FF FF 7F  ho1..UV.........
0C60: 77 68 6F 31 1C 49 80 45  23 80 F0 FF FF 7F F0 FF  who1.I.E#.......
0C70: FF 7F 66 64 6F 31 01 80  55 23 80 F0 FF FF 7F F0  ..fdo1..U#......
0C80: FF FF 7F 66 64 6F 31 45  56 80 F0 FF FF 7F F0 FF  ...fdo1EV.......
0C90: FF 7F 77 68 69 31 01 80  1C 62 80 30 21 00        ..whi1...b.0!.  
```

#### Opcodes

```
  0: 0x0C1E [0x42] SET_CLI_EVENT_CANCEL_DATA()
  1: 0x0C1F [0x45] LOAD_SCHEDULED_TASK: Load scheduler "fdo1" with entities [LocalPlayer, LocalPlayer], work=[200*, 0*]
  2: 0x0C30 [0x62] LOAD_EVENT_SCHEDULER: Load scheduler "main" with entities [LocalPlayer, LocalPlayer], work=[1*, 0*]
  3: 0x0C41 [0x1C] WAIT(90* ticks)
  4: 0x0C44 [0x45] LOAD_SCHEDULED_TASK: Load scheduler "who1" with entities [LocalPlayer, LocalPlayer], work=[201*, 0*]
  5: 0x0C55 [0x55] WAIT_LOAD_SCHEDULER: Wait for scheduler "who1" with entities [LocalPlayer, LocalPlayer], work=201*
  6: 0x0C64 [0x1C] WAIT(45* ticks)
  7: 0x0C67 [0x45] LOAD_SCHEDULED_TASK: Load scheduler "fdo1" with entities [LocalPlayer, LocalPlayer], work=[200*, 0*]
  8: 0x0C78 [0x55] WAIT_LOAD_SCHEDULER: Wait for scheduler "fdo1" with entities [LocalPlayer, LocalPlayer], work=200*
  9: 0x0C87 [0x45] LOAD_SCHEDULED_TASK: Load scheduler "whi1" with entities [LocalPlayer, LocalPlayer], work=[201*, 0*]
 10: 0x0C98 [0x1C] WAIT(15* ticks)
 11: 0x0C9B [0x30] SET_UCOFF_CONTINUE_ZERO()
 12: 0x0C9C [0x21] END_EVENT
 13: 0x0C9D [0x00] END_REQSTACK()
```
