# Event 5

## Metadata

| Field           | Value     |
|-----------------|-----------|
| Event Index     | 3/3       |
| Offset          | 0x0002    |
| Data Size       | 135 bytes |
| Calculated Size | 135 bytes |
| Instructions    | 10        |

```
      00 01 02 03 04 05 06 07  08 09 0A 0B 0C 0D 0E 0F
      -- -- -- -- -- -- -- --  -- -- -- -- -- -- -- --
0000:       42 5D 00 80 01 80  02 05 10 00 80 00 19 00    B]............
0010: A8 00 04 10 02 80 1C 03  80 89 04 10 8B 04 10 05  ................
0020: 10 02 10 03 10 3F 3F 3F  00 00 00 00 00 00 00 00  .....???........
0030: 00 00 00 00 00 45 04 80  F8 FF FF 7F F8 FF FF 7F  .....E..........
0040: 63 68 63 6F 00 80 48 05  80 23 02 06 10 02 80 00  chco..H..#......
0050: 67 00 45 06 80 F8 FF FF  7F F8 FF FF 7F 6E 61 6B  g.E..........nak
0060: 31 00 80 48 07 80 23 02  07 10 08 80 00 84 00 45  1..H..#........E
0070: 06 80 F8 FF FF 7F F8 FF  FF 7F 6E 61 6B 32 00 80  ..........nak2..
0080: 48 09 80 23 1C 02 80 21  00                       H..#...!.       
```

## Opcodes

```
  0: 0x0002 [0x42] SET_CLI_EVENT_CANCEL_DATA()
  1: 0x0003 [0x5D] SET_MUSIC_VOLUME(volume=0*, fade_time=60*)
  2: 0x0008 [0x02] IF !(Work_Zone[5] == 0*) GOTO 0x0019
  3: 0x0010 [0xA8] MAP_MARKER_CONTROL: Reset/unlock markers (no map display), zone=Work_Zone[4], marker=1*
  4: 0x0016 [0x1C] WAIT(15* ticks)
  5: 0x0019 [0x89] OPEN_MAP(map_id=0x00001004)
  6: 0x001C [0x8B] SET_EVENT_MARK: Add/update map marker on map Work_Zone[4] at (4.1, 4.1), index=Work_Zone[5], name=(no name)
  7: 0x0025 [0x3F] 0x3F3F = ExtData[1]->WorkLocal[0] % ExtData[1]->WorkLocal[0]
  8: 0x002C [0x00] END_REQSTACK()
```

## Data or dead code:

```
# Data Section: 0x002D (92 bytes)
     0x002D: 00 00 00 00 00 00 00 00 45 04 80 F8 FF FF 7F F8
     0x003D: FF FF 7F 63 68 63 6F 00 80 48 05 80 23 02 06 10
     0x004D: 02 80 00 67 00 45 06 80 F8 FF FF 7F F8 FF FF 7F
     0x005D: 6E 61 6B 31 00 80 48 07 80 23 02 07 10 08 80 00
     0x006D: 84 00 45 06 80 F8 FF FF 7F F8 FF FF 7F 6E 61 6B
     0x007D: 32 00 80 48 09 80 23 1C 02 80 21 00
```