# Event 65535

## Metadata

| Field           | Value    |
|-----------------|----------|
| Event Index     | 4/4      |
| Offset          | 0x004B   |
| Data Size       | 52 bytes |
| Calculated Size | 52 bytes |
| Instructions    | 6        |

```
      00 01 02 03 04 05 06 07  08 09 0A 0B 0C 0D 0E 0F
      -- -- -- -- -- -- -- --  -- -- -- -- -- -- -- --
0040:                                   5B 00 80 D0 91             [....
0050: 00 01 D0 91 00 01 61 74  61 30 1C 01 80 5B 00 80  ......ata0...[..
0060: CF 91 00 01 CF 91 00 01  61 74 62 30 1C 02 80 5B  ........atb0...[
0070: 00 80 CE 91 00 01 CE 91  00 01 61 74 61 30 00     ..........ata0. 
```

## Opcodes

```
  0: 0x004B [0x5B] LOAD_EXT_SCHEDULER: Load scheduler "ata0" with entities [Unnamed NPC (ID: 16814544/0x010091D0), Unnamed NPC (ID: 16814544/0x010091D0)], work=485*
  1: 0x005A [0x1C] WAIT(9* ticks)
  2: 0x005D [0x5B] LOAD_EXT_SCHEDULER: Load scheduler "atb0" with entities [Unnamed NPC (ID: 16814543/0x010091CF), Unnamed NPC (ID: 16814543/0x010091CF)], work=485*
  3: 0x006C [0x1C] WAIT(12* ticks)
  4: 0x006F [0x5B] LOAD_EXT_SCHEDULER: Load scheduler "ata0" with entities [Unnamed NPC (ID: 16814542/0x010091CE), Unnamed NPC (ID: 16814542/0x010091CE)], work=485*
  5: 0x007E [0x00] END_REQSTACK()
```
