# Event 5510

## Metadata

| Field           | Value     |
|-----------------|-----------|
| Event Index     | 3/19      |
| Offset          | 0x1603    |
| Data Size       | 662 bytes |
| Calculated Size | 662 bytes |
| Instructions    | 14        |

```
      00 01 02 03 04 05 06 07  08 09 0A 0B 0C 0D 0E 0F
      -- -- -- -- -- -- -- --  -- -- -- -- -- -- -- --
1600:          42 1E F0 FF FF  7F 02 02 10 3B 80 00 19     B........;...
1610: 16 03 04 10 01 80 01 1E  16 03 04 10 00 80 1D BF  ................
1620: 80 23 1D C0 80 23 2E 21  00 03 10 04 10 05 10 06  .#...#.!........
1630: 10 07 10 08 10 09 10 00  17 01 17 02 17 03 17 04  ................
1640: 17 05 17 06 17 07 17 08  17 09 17 0A 17 0B 17 0C  ................
1650: 17 0D 17 0E 17 0F 17 10  17 11 17 12 17 13 17 14  ................
1660: 17 15 17 16 17 17 17 18  17 19 17 1A 17 1B 17 1C  ................
1670: 17 1D 17 1E 17 1F 17 02  10 C1 80 C2 80 C3 80 C4  ................
1680: 80 C5 80 C6 80 C7 80 C8  80 C9 80 CA 80 CB 80 CC  ................
1690: 80 CD 80 CE 80 CF 80 D0  80 D1 80 D2 80 D3 80 D4  ................
16A0: 80 D5 80 D6 80 D7 80 D8  80 D9 80 DA 80 3C 80 01  .............<..
16B0: 80 01 80 01 80 01 80 01  80 C1 80 C2 80 C3 80 C4  ................
16C0: 80 C5 80 C6 80 C7 80 C8  80 C9 80 CA 80 CB 80 CC  ................
16D0: 80 CD 80 CE 80 CF 80 D0  80 D1 80 D2 80 D3 80 D4  ................
16E0: 80 D5 80 D6 80 D7 80 D8  80 D9 80 DA 80 01 80 01  ................
16F0: 80 01 80 01 80 01 80 01  80 37 80 02 80 00 80 37  .........7.....7
1700: 80 00 80 37 80 02 80 00  80 37 80 00 80 37 80 02  ...7.....7...7..
1710: 80 00 80 37 80 00 80 37  80 02 80 00 80 37 80 00  ...7...7.....7..
1720: 80 37 80 02 80 00 80 37  80 00 80 02 80 1E 80 01  .7.....7........
1730: 80 01 80 01 80 01 80 01  80 37 80 02 80 00 80 37  .........7.....7
1740: 80 00 80 37 80 02 80 00  80 37 80 00 80 37 80 02  ...7.....7...7..
1750: 80 00 80 37 80 00 80 37  80 02 80 00 80 37 80 00  ...7...7.....7..
1760: 80 37 80 02 80 00 80 37  80 00 80 02 80 01 80 01  .7.....7........
1770: 80 01 80 01 80 01 80 01  80 01 80 01 80 01 80 01  ................
1780: 80 DB 80 DC 80 01 80 01  80 01 80 01 80 01 80 01  ................
1790: 80 01 80 01 80 01 80 01  80 01 80 01 80 01 80 01  ................
17A0: 80 01 80 01 80 01 80 01  80 01 80 01 80 01 80 01  ................
17B0: 80 01 80 01 80 01 80 01  80 01 80 01 80 01 80 01  ................
17C0: 80 00 80 1D 80 01 80 01  80 01 80 01 80 01 80 01  ................
17D0: 80 01 80 01 80 01 80 01  80 01 80 01 80 01 80 01  ................
17E0: 80 01 80 01 80 01 80 01  80 01 80 01 80 01 80 01  ................
17F0: 80 01 80 01 80 01 80 01  80 DD 80 DE 80 DF 80 E0  ................
1800: 80 00 80 E1 80 E2 80 00  80 00 80 00 80 00 80 00  ................
1810: 80 00 80 00 80 00 80 00  80 00 80 00 80 00 80 00  ................
1820: 80 00 80 00 80 00 80 00  80 00 80 00 80 00 80 00  ................
1830: 80 00 80 00 80 00 80 00  80 02 80 1F 80 02 80 09  ................
1840: 80 00 80 00 80 1F 80 01  80 01 80 01 80 01 80 01  ................
1850: 80 01 80 01 80 01 80 01  80 01 80 01 80 01 80 01  ................
1860: 80 01 80 01 80 01 80 01  80 01 80 01 80 01 80 01  ................
1870: 80 01 80 01 80 01 80 01  80 B7 80 E3 80 E4 80 E5  ................
1880: 80 BB 80 01 80 01 80 01  80 01 80 E6 80 E7 80 E8  ................
1890: 80 E9 80 EA 80 01 80 01  80                       .........       
```

## Opcodes

```
  0: 0x1603 [0x42] SET_CLI_EVENT_CANCEL_DATA()
  1: 0x1604 [0x1E] EventEntity looks at LocalPlayer and starts talking
  2: 0x1609 [0x02] IF !(Work_Zone[2] == 4036*) GOTO 0x1619
  3: 0x1611 [0x03] Work_Zone[4] = 0*
  4: 0x1616 [0x01] GOTO 0x161E

SUBROUTINE_1619:
  5: 0x1619 [0x03] Work_Zone[4] = 1*
  6: 0x161E [0x1D] PRINT_EVENT_MESSAGE(message_id=12840*)
    → "Is that \u0001\u0001\u0001 \u0001\u0005$\u0002\u0000\u0000\u0000 I see? Here, let Granny keep ahold of any you got.\u007F1\u0000\u0007"
  7: 0x1621 [0x23] WAIT_FOR_DIALOG_INTERACTION
  8: 0x1622 [0x1D] PRINT_EVENT_MESSAGE(message_id=12841*)
    → "I'm holding a total of 
\u0001 \u0001	)\u0002\u0001\u0000\u0000\u0002\u0000\u0000\u0000 for you. Just speak up when you want to exchange them for some of my \u000C\u0002[armor/stuff].\u007F1\u0000\u0007"
  9: 0x1625 [0x23] WAIT_FOR_DIALOG_INTERACTION
 10: 0x1626 [0x2E] SET_CLI_EVENT_CANCEL_FLAGS()
 11: 0x1627 [0x21] END_EVENT
 12: 0x1628 [0x00] END_REQSTACK()
```

## Data or dead code:

```
# Data Section: 0x1629 (624 bytes)
     0x1629: 03 10 04 10 05 10 06 10 07 10 08 10 09 10 00 17
     0x1639: 01 17 02 17 03 17 04 17 05 17 06 17 07 17 08 17
     0x1649: 09 17 0A 17 0B 17 0C 17 0D 17 0E 17 0F 17 10 17
     0x1659: 11 17 12 17 13 17 14 17 15 17 16 17 17 17 18 17
     0x1669: 19 17 1A 17 1B 17 1C 17 1D 17 1E 17 1F 17 02 10
     0x1679: C1 80 C2 80 C3 80 C4 80 C5 80 C6 80 C7 80 C8 80
     0x1689: C9 80 CA 80 CB 80 CC 80 CD 80 CE 80 CF 80 D0 80
     0x1699: D1 80 D2 80 D3 80 D4 80 D5 80 D6 80 D7 80 D8 80
     0x16A9: D9 80 DA 80 3C 80 01 80 01 80 01 80 01 80 01 80
     0x16B9: C1 80 C2 80 C3 80 C4 80 C5 80 C6 80 C7 80 C8 80
     0x16C9: C9 80 CA 80 CB 80 CC 80 CD 80 CE 80 CF 80 D0 80
     0x16D9: D1 80 D2 80 D3 80 D4 80 D5 80 D6 80 D7 80 D8 80
     0x16E9: D9 80 DA 80 01 80 01 80 01 80 01 80 01 80 01 80
     0x16F9: 37 80 02 80 00 80 37 80 00 80 37 80 02 80 00 80
     0x1709: 37 80 00 80 37 80 02 80 00 80 37 80 00 80 37 80
     0x1719: 02 80 00 80 37 80 00 80 37 80 02 80 00 80 37 80
     0x1729: 00 80 02 80 1E 80 01 80 01 80 01 80 01 80 01 80
     0x1739: 37 80 02 80 00 80 37 80 00 80 37 80 02 80 00 80
     0x1749: 37 80 00 80 37 80 02 80 00 80 37 80 00 80 37 80
     0x1759: 02 80 00 80 37 80 00 80 37 80 02 80 00 80 37 80
     0x1769: 00 80 02 80 01 80 01 80 01 80 01 80 01 80 01 80
     0x1779: 01 80 01 80 01 80 01 80 DB 80 DC 80 01 80 01 80
     0x1789: 01 80 01 80 01 80 01 80 01 80 01 80 01 80 01 80
     0x1799: 01 80 01 80 01 80 01 80 01 80 01 80 01 80 01 80
     0x17A9: 01 80 01 80 01 80 01 80 01 80 01 80 01 80 01 80
     0x17B9: 01 80 01 80 01 80 01 80 00 80 1D 80 01 80 01 80
     0x17C9: 01 80 01 80 01 80 01 80 01 80 01 80 01 80 01 80
     0x17D9: 01 80 01 80 01 80 01 80 01 80 01 80 01 80 01 80
     0x17E9: 01 80 01 80 01 80 01 80 01 80 01 80 01 80 01 80
     0x17F9: DD 80 DE 80 DF 80 E0 80 00 80 E1 80 E2 80 00 80
     0x1809: 00 80 00 80 00 80 00 80 00 80 00 80 00 80 00 80
     0x1819: 00 80 00 80 00 80 00 80 00 80 00 80 00 80 00 80
     0x1829: 00 80 00 80 00 80 00 80 00 80 00 80 00 80 00 80
     0x1839: 02 80 1F 80 02 80 09 80 00 80 00 80 1F 80 01 80
     0x1849: 01 80 01 80 01 80 01 80 01 80 01 80 01 80 01 80
     0x1859: 01 80 01 80 01 80 01 80 01 80 01 80 01 80 01 80
     0x1869: 01 80 01 80 01 80 01 80 01 80 01 80 01 80 01 80
     0x1879: B7 80 E3 80 E4 80 E5 80 BB 80 01 80 01 80 01 80
     0x1889: 01 80 E6 80 E7 80 E8 80 E9 80 EA 80 01 80 01 80
```