# Event 101

## Metadata

| Field           | Value    |
|-----------------|----------|
| Event Index     | 4/4      |
| Offset          | 0x121F   |
| Data Size       | 21 bytes |
| Calculated Size | 21 bytes |
| Instructions    | 8        |

```
      00 01 02 03 04 05 06 07  08 09 0A 0B 0C 0D 0E 0F
      -- -- -- -- -- -- -- --  -- -- -- -- -- -- -- --
1210:                                               02                 .
1220: 02 10 04 80 00 2E 12 1D  5A 83 23 01 32 12 1D 5B  ........Z.#.2..[
1230: 83 23 21 00                                       .#!.            
```

## Opcodes

```
  0: 0x121F [0x02] IF !(Work_Zone[2] == 0*) GOTO 0x122E
  1: 0x1227 [0x1D] PRINT_EVENT_MESSAGE(message_id=7236*)
    → "Recently, an adventurer known as \u001C\u0000 came to see me about naming \u007F\u0005 [his/her] chocobo "\u001C\u0001."\u007F1\u0000\u0007"
  2: 0x122A [0x23] WAIT_FOR_DIALOG_INTERACTION
  3: 0x122B [0x01] GOTO 0x1232
  4: 0x122E [0x1D] PRINT_EVENT_MESSAGE(message_id=7237*)
    → "Recently, an adventurer known as \u001C\u0000 came to see me about putting the name "\u001C\u0001" on \u007F\u0005 [his/her] \u0001\u0005#\u0002\u0000\u0000\u0000.\u007F1\u0000\u0007"
  5: 0x1231 [0x23] WAIT_FOR_DIALOG_INTERACTION

SUBROUTINE_1232:
  6: 0x1232 [0x21] END_EVENT
  7: 0x1233 [0x00] END_REQSTACK()
```
