# Event 65535

## Metadata

| Field           | Value    |
|-----------------|----------|
| Event Index     | 68/80    |
| Offset          | 0x03EB   |
| Data Size       | 44 bytes |
| Calculated Size | 44 bytes |
| Instructions    | 9        |

```
      00 01 02 03 04 05 06 07  08 09 0A 0B 0C 0D 0E 0F
      -- -- -- -- -- -- -- --  -- -- -- -- -- -- -- --
03E0:                                   29 08 50 91 01             ).P..
03F0: 01 32 29 08 50 91 01 01  33 29 08 50 91 01 01 34  .2).P...3).P...4
0400: 29 08 50 91 01 01 35 32  16 80 1F 00 1E 80 1F 80  ).P...52........
0410: 20 80 1F 01 22 01 00                               ..."..         
```

## Opcodes

```
  0: 0x03EB [0x29] REQ_SET_WAIT(priority=0x08, entity_id=Tenzen (ID: 16879952/0x01019150), tag_num=0x32)
  1: 0x03F2 [0x29] REQ_SET_WAIT(priority=0x08, entity_id=Tenzen (ID: 16879952/0x01019150), tag_num=0x33)
  2: 0x03F9 [0x29] REQ_SET_WAIT(priority=0x08, entity_id=Tenzen (ID: 16879952/0x01019150), tag_num=0x34)
  3: 0x0400 [0x29] REQ_SET_WAIT(priority=0x08, entity_id=Tenzen (ID: 16879952/0x01019150), tag_num=0x35)
  4: 0x0407 [0x32] ExtData[1]->MainSpeed = 40* * 0.1
  5: 0x040A [0x1F] MOVE_ENTITY: EventEntity moves to X=-538.461*, Z=356.897*, Y=-29.500*
  6: 0x0412 [0x1F] MOVE_ENTITY: Update entity position (mode=1)
  7: 0x0414 [0x22] ENTITY_HIDE_FLAG(enabled=0x01)
  8: 0x0416 [0x00] END_REQSTACK()
```
