# Event 103

## Metadata

| Field           | Value    |
|-----------------|----------|
| Event Index     | 5/5      |
| Offset          | 0x0091   |
| Data Size       | 72 bytes |
| Calculated Size | 72 bytes |
| Instructions    | 13       |

```
      00 01 02 03 04 05 06 07  08 09 0A 0B 0C 0D 0E 0F
      -- -- -- -- -- -- -- --  -- -- -- -- -- -- -- --
0090:    42 20 01 03 08 10 01  80 03 09 10 02 80 1E F0   B .............
00A0: FF FF 7F 1C 03 80 66 04  80 F8 FF FF 7F F8 FF FF  ......f.........
00B0: 7F 70 61 73 30 1D 0A 80  23 53 F8 FF FF 7F F8 FF  .pas0...#S......
00C0: FF 7F 70 61 73 30 45 0B  80 F0 FF FF 7F F0 FF FF  ..pas0E.........
00D0: 7F 71 73 74 63 0C 80 21  00                       .qstc..!.       
```

## Opcodes

```
  0: 0x0091 [0x42] SET_CLI_EVENT_CANCEL_DATA()
  1: 0x0092 [0x20] SET_CLI_EVENT_UC_FLAG: Lock player control
  2: 0x0094 [0x03] Work_Zone[8] = 493*
  3: 0x0099 [0x03] Work_Zone[9] = 492*
  4: 0x009E [0x1E] EventEntity looks at LocalPlayer and starts talking
  5: 0x00A3 [0x1C] WAIT(10* ticks)
  6: 0x00A6 [0x66] LOAD_EXT_SCHEDULER_MAIN: Load scheduler "pas0" with entities [EventEntity, EventEntity], work=60*
  7: 0x00B5 [0x1D] PRINT_EVENT_MESSAGE(message_id=10808*)
    → "You got it! Thank the heavens!\u0007You saved my neck!\u0007Here, take this, you deserve it!\u007F1\u0000\u0007"
  8: 0x00B8 [0x23] WAIT_FOR_DIALOG_INTERACTION
  9: 0x00B9 [0x53] WAIT_SCHEDULER_TASK: Wait for scheduler "pas0" with entities [EventEntity, EventEntity]
 10: 0x00C6 [0x45] LOAD_SCHEDULED_TASK: Load scheduler "qstc" with entities [LocalPlayer, LocalPlayer], work=[201*, 0*]
 11: 0x00D7 [0x21] END_EVENT
 12: 0x00D8 [0x00] END_REQSTACK()
```
