# Event 65535

## Metadata

| Field           | Value    |
|-----------------|----------|
| Event Index     | 5/5      |
| Offset          | 0x0049   |
| Data Size       | 56 bytes |
| Calculated Size | 56 bytes |
| Instructions    | 13       |

```
      00 01 02 03 04 05 06 07  08 09 0A 0B 0C 0D 0E 0F
      -- -- -- -- -- -- -- --  -- -- -- -- -- -- -- --
0040:                             32 04 80 1F 00 0F 80           2......
0050: 10 80 02 80 1F 01 1F 00  11 80 12 80 13 80 1F 01  ................
0060: 1F 00 14 80 15 80 0D 80  1F 01 1F 00 16 80 17 80  ................
0070: 0D 80 1F 01 1F 00 18 80  19 80 0D 80 1F 01 22 01  ..............".
0080: 00                                                .               
```

## Opcodes

```
  0: 0x0049 [0x32] ExtData[1]->MainSpeed = 40* * 0.1
  1: 0x004C [0x1F] MOVE_ENTITY: EventEntity moves to X=-62.619*, Z=12.308*, Y=1.000*
  2: 0x0054 [0x1F] MOVE_ENTITY: Update entity position (mode=1)
  3: 0x0056 [0x1F] MOVE_ENTITY: EventEntity moves to X=-51.032*, Z=24.575*, Y=0.999*
  4: 0x005E [0x1F] MOVE_ENTITY: Update entity position (mode=1)
  5: 0x0060 [0x1F] MOVE_ENTITY: EventEntity moves to X=-29.528*, Z=37.451*, Y=0.000*
  6: 0x0068 [0x1F] MOVE_ENTITY: Update entity position (mode=1)
  7: 0x006A [0x1F] MOVE_ENTITY: EventEntity moves to X=-22.564*, Z=36.015*, Y=0.000*
  8: 0x0072 [0x1F] MOVE_ENTITY: Update entity position (mode=1)
  9: 0x0074 [0x1F] MOVE_ENTITY: EventEntity moves to X=-15.565*, Z=26.490*, Y=0.000*
 10: 0x007C [0x1F] MOVE_ENTITY: Update entity position (mode=1)
 11: 0x007E [0x22] ENTITY_HIDE_FLAG(enabled=0x01)
 12: 0x0080 [0x00] END_REQSTACK()
```
