# Event 343

## Metadata

| Field           | Value    |
|-----------------|----------|
| Event Index     | 11/11    |
| Offset          | 0x0223   |
| Data Size       | 56 bytes |
| Calculated Size | 56 bytes |
| Instructions    | 8        |

```
      00 01 02 03 04 05 06 07  08 09 0A 0B 0C 0D 0E 0F
      -- -- -- -- -- -- -- --  -- -- -- -- -- -- -- --
0220:          1E F0 FF FF 7F  6F 70 1D 1D 80 23 21 00     .....op...#!.
0230: 02 03 10 11 80 02 40 02  03 06 10 11 80 01 45 02  ......@.......E.
0240: 03 06 10 0F 80 02 04 10  11 80 02 55 02 03 07 10  ...........U....
0250: 11 80 01 5A 02 03 07 10  0F 80 1B                 ...Z.......     
```

## Opcodes

```
  0: 0x0223 [0x1E] EventEntity looks at LocalPlayer and starts talking
  1: 0x0228 [0x6F] WAIT_FRAME_DELAY: Yield until WaitTime reaches zero
  2: 0x0229 [0x70] WAIT_ENTITY_RENDER_FLAG: Wait while EventEntity->Render.Flags3 bit 2 is set (cancel turn if not)
  3: 0x022A [0x1D] PRINT_EVENT_MESSAGE(message_id=7952*)
    → "Perhaps it is time I...let go.\u0007Still, it is strange. In her sleep, she muttered, \u00072No need to thank me, but I'll take a grilled hare if you've gotaru one.\u00073\u0007Whatever could she have meant...?\u007F1\u0000\u0007"
  4: 0x022D [0x23] WAIT_FOR_DIALOG_INTERACTION
  5: 0x022E [0x21] END_EVENT
  6: 0x022F [0x00] END_REQSTACK()
```

## Data or dead code:

```
# Data Section: 0x0230 (43 bytes)
     0x0230: 02 03 10 11 80 02 40 02 03 06 10 11 80 01 45 02
     0x0240: 03 06 10 0F 80 02 04 10 11 80 02 55 02 03 07 10
     0x0250: 11 80 01 5A 02 03 07 10 0F 80 1B
```