# Event 138

## Metadata

| Field           | Value    |
|-----------------|----------|
| Event Index     | 12/12    |
| Offset          | 0x074D   |
| Data Size       | 49 bytes |
| Calculated Size | 49 bytes |
| Instructions    | 11       |

```
      00 01 02 03 04 05 06 07  08 09 0A 0B 0C 0D 0E 0F
      -- -- -- -- -- -- -- --  -- -- -- -- -- -- -- --
0740:                                         42 1E F0               B..
0750: FF FF 7F 03 01 10 16 80  43 00 43 01 1D 45 80 23  ........C.C..E.#
0760: 5B 00 80 04 52 09 01 04  52 09 01 70 61 73 30 53  [...R...R..pas0S
0770: 04 52 09 01 04 52 09 01  70 61 73 30 21 00        .R...R..pas0!.  
```

## Opcodes

```
  0: 0x074D [0x42] SET_CLI_EVENT_CANCEL_DATA()
  1: 0x074E [0x1E] EventEntity looks at LocalPlayer and starts talking
  2: 0x0753 [0x03] Work_Zone[1] = 10*
  3: 0x0758 [0x43] SEND_EVENT_UPDATE: Send pending tag to server (packet 0x005B)
  4: 0x075A [0x43] SEND_EVENT_UPDATE: Check pending flag (skip if not pending)
  5: 0x075C [0x1D] PRINT_EVENT_MESSAGE(message_id=7726*)
    → "Here's ya 
\u0002 \u0001	)\u0002\u0002\u0000\u0000\u0002\u0001\u0000\u0000, and I get ta pocket the \u0001\u0005#\u0002\u0000\u0000\u0000.\u007F1\u0000\u0007"
  6: 0x075F [0x23] WAIT_FOR_DIALOG_INTERACTION
  7: 0x0760 [0x5B] LOAD_EXT_SCHEDULER: Load scheduler "pas0" with entities [Lootblox (ID: 17388036/0x01095204), Lootblox (ID: 17388036/0x01095204)], work=215*
  8: 0x076F [0x53] WAIT_SCHEDULER_TASK: Wait for scheduler "pas0" with entities [Lootblox (ID: 17388036/0x01095204), Lootblox (ID: 17388036/0x01095204)]
  9: 0x077C [0x21] END_EVENT
 10: 0x077D [0x00] END_REQSTACK()
```
