# Event 153

## Metadata

| Field           | Value    |
|-----------------|----------|
| Event Index     | 8/12     |
| Offset          | 0x029A   |
| Data Size       | 55 bytes |
| Calculated Size | 55 bytes |
| Instructions    | 9        |

```
      00 01 02 03 04 05 06 07  08 09 0A 0B 0C 0D 0E 0F
      -- -- -- -- -- -- -- --  -- -- -- -- -- -- -- --
0290:                                42 1E F0 FF FF 7F            B.....
02A0: 5B 00 80 04 52 09 01 04  52 09 01 74 6C 6B 30 1D  [...R...R..tlk0.
02B0: 24 80 23 5B 00 80 04 52  09 01 04 52 09 01 70 61  $.#[...R...R..pa
02C0: 73 30 53 04 52 09 01 04  52 09 01 70 61 73 30 21  s0S.R...R..pas0!
02D0: 00                                                .               
```

## Opcodes

```
  0: 0x029A [0x42] SET_CLI_EVENT_CANCEL_DATA()
  1: 0x029B [0x1E] EventEntity looks at LocalPlayer and starts talking
  2: 0x02A0 [0x5B] LOAD_EXT_SCHEDULER(work_offset=215*, entity1=Lootblox (ID: 17388036/0x01095204), entity2=Lootblox (ID: 17388036/0x01095204), action="tlk0")
  3: 0x02AF [0x1D] PRINT_EVENT_MESSAGE(message_id=7620*)
    → "So you wanna make a deal here?\u0007Should be a good one for the both o' us.\u007F1\u0000\u0007"
  4: 0x02B2 [0x23] WAIT_FOR_DIALOG_INTERACTION
  5: 0x02B3 [0x5B] LOAD_EXT_SCHEDULER(work_offset=215*, entity1=Lootblox (ID: 17388036/0x01095204), entity2=Lootblox (ID: 17388036/0x01095204), action="pas0")
  6: 0x02C2 [0x53] WAIT_SCHEDULER_TASK(entity1=Lootblox (ID: 17388036/0x01095204), entity2=Lootblox (ID: 17388036/0x01095204), action_id="pas0")
  7: 0x02CF [0x21] END_EVENT
  8: 0x02D0 [0x00] END_REQSTACK()
```
