# Event 65535

## Metadata

| Field           | Value    |
|-----------------|----------|
| Event Index     | 7/10     |
| Offset          | 0x00C9   |
| Data Size       | 60 bytes |
| Calculated Size | 60 bytes |
| Instructions    | 14       |

```
      00 01 02 03 04 05 06 07  08 09 0A 0B 0C 0D 0E 0F
      -- -- -- -- -- -- -- --  -- -- -- -- -- -- -- --
00C0:                             32 0C 80 1F 00 14 80           2......
00D0: 15 80 12 80 1F 01 4B 50  10 0F 01 16 80 1C 17 80  ......KP........
00E0: 4B 50 10 0F 01 18 80 1C  17 80 32 0C 80 1F 00 19  KP........2.....
00F0: 80 1A 80 1B 80 1F 01 1C  17 80 1F 00 1C 80 1D 80  ................
0100: 12 80 1F 01 00                                    .....           
```

## Opcodes

```
  0: 0x00C9 [0x32] ExtData[1]->MainSpeed = 70* * 0.1
  1: 0x00CC [0x1F] MOVE_ENTITY: EventEntity moves to X=56.856*, Z=-181.343*, Y=0.499*
  2: 0x00D4 [0x1F] MOVE_ENTITY: Update entity position (mode=1)
  3: 0x00D6 [0x4B] UPDATE_ENTITY_YAW(entity=Unnamed NPC (ID: 17764432/0x010F1050), yaw=4.13°*)
  4: 0x00DD [0x1C] WAIT(60* ticks)
  5: 0x00E0 [0x4B] UPDATE_ENTITY_YAW(entity=Unnamed NPC (ID: 17764432/0x010F1050), yaw=17.66°*)
  6: 0x00E7 [0x1C] WAIT(60* ticks)
  7: 0x00EA [0x32] ExtData[1]->MainSpeed = 70* * 0.1
  8: 0x00ED [0x1F] MOVE_ENTITY: EventEntity moves to X=54.840*, Z=-171.586*, Y=0.449*
  9: 0x00F5 [0x1F] MOVE_ENTITY: Update entity position (mode=1)
 10: 0x00F7 [0x1C] WAIT(60* ticks)
 11: 0x00FA [0x1F] MOVE_ENTITY: EventEntity moves to X=64.337*, Z=-189.299*, Y=0.499*
 12: 0x0102 [0x1F] MOVE_ENTITY: Update entity position (mode=1)
 13: 0x0104 [0x00] END_REQSTACK()
```
