# Event 65535

## Metadata

| Field           | Value    |
|-----------------|----------|
| Event Index     | 16/17    |
| Offset          | 0x00B7   |
| Data Size       | 71 bytes |
| Calculated Size | 71 bytes |
| Instructions    | 15       |

```
      00 01 02 03 04 05 06 07  08 09 0A 0B 0C 0D 0E 0F
      -- -- -- -- -- -- -- --  -- -- -- -- -- -- -- --
00B0:                      59  01 F8 FF FF 7F 08 80 4B         Y.......K
00C0: F8 FF FF 7F 09 80 6F 76  F8 FF FF 7F 7B F8 FF FF  ......ov....{...
00D0: 7F 4B F8 FF FF 7F 0A 80  6F 76 F8 FF FF 7F 1C 0B  .K......ov......
00E0: 80 59 01 F8 FF FF 7F 0C  80 7B F8 FF FF 7F 4A F8  .Y.......{....J.
00F0: FF FF 7F F0 FF FF 7F 6F  76 F8 FF FF 7F 00        .......ov.....  
```

## Opcodes

```
  0: 0x00B7 [0x59] UPDATE_ENTITY_DATA: Set EventEntity turn speed = 50*
  1: 0x00BF [0x4B] UPDATE_ENTITY_YAW(entity=EventEntity, yaw=15.0°*)
  2: 0x00C6 [0x6F] WAIT_FRAME_DELAY: Yield until WaitTime reaches zero
  3: 0x00C7 [0x76] CHECK_ENTITY_RENDER_FLAGS: Wait until EventEntity Render.Flags0 and Render.Flags3 conditions are met
  4: 0x00CC [0x7B] EventEntity stops talking
  5: 0x00D1 [0x4B] UPDATE_ENTITY_YAW(entity=EventEntity, yaw=3.7°*)
  6: 0x00D8 [0x6F] WAIT_FRAME_DELAY: Yield until WaitTime reaches zero
  7: 0x00D9 [0x76] CHECK_ENTITY_RENDER_FLAGS: Wait until EventEntity Render.Flags0 and Render.Flags3 conditions are met
  8: 0x00DE [0x1C] WAIT(30* ticks)
  9: 0x00E1 [0x59] UPDATE_ENTITY_DATA: Set EventEntity turn speed = 100*
 10: 0x00E9 [0x7B] EventEntity stops talking
 11: 0x00EE [0x4A] EventEntity looks at LocalPlayer
 12: 0x00F7 [0x6F] WAIT_FRAME_DELAY: Yield until WaitTime reaches zero
 13: 0x00F8 [0x76] CHECK_ENTITY_RENDER_FLAGS: Wait until EventEntity Render.Flags0 and Render.Flags3 conditions are met
 14: 0x00FD [0x00] END_REQSTACK()
```
