# 16933561 - Apollyon Operator

## Common Data

| Field            | Value             |
|------------------|-------------------|
| Zone             | Apollyon (ID: 38) |
| Block Size       | 7204 bytes        |
| Total Events     | 3                 |
| References Count | 317               |

## List of Events

| Event ID              | Entrypoint   |   Size |   Instructions |
|-----------------------|--------------|--------|----------------|
| [65535](#event-65535) | 0x0000       |      1 |              1 |
| [129](#event-129)     | 0x0001       |    180 |             66 |
| [131](#event-131)     | 0x00B5       |   5727 |           1007 |

## DAT References (imed_data)

|   Index | Hex Value   |   Dec Value |
|---------|-------------|-------------|
|       0 | 0x0001      |           1 |
|       1 | 0x015F      |         351 |
|       2 | 0x1C4C      |        7244 |
|       3 | 0x1C5B      |        7259 |
|       4 | 0x1C5C      |        7260 |
|       5 | 0x1C4D      |        7245 |
|       6 | 0x1C4E      |        7246 |
|       7 | 0x1C4F      |        7247 |
|       8 | 0x1C50      |        7248 |
|       9 | 0x1C51      |        7249 |
|      10 | 0x1C52      |        7250 |
|      11 | 0x1C53      |        7251 |
|      12 | 0x1C54      |        7252 |
|      13 | 0x1C55      |        7253 |
|      14 | 0x1C56      |        7254 |
|      15 | 0x1C57      |        7255 |
|      16 | 0x1C58      |        7256 |
|      17 | 0x1C59      |        7257 |
|      18 | 0x0087      |         135 |
|      19 | 0x1C5D      |        7261 |
|      20 | 0x1C5F      |        7263 |
|      21 | 0x0000      |           0 |
|      22 | 0x0003      |           3 |
|      23 | 0x0077      |         119 |
|      24 | 0x1C5E      |        7262 |
|      25 | 0x1C5A      |        7258 |
|      26 | 0x2710      |       10000 |
|      27 | 0x1C65      |        7269 |
|      28 | 0x0076      |         118 |
|      29 | 0x1C61      |        7265 |
|      30 | 0x000A      |          10 |
|      31 | 0x0010      |          16 |
|      32 | 0x001F      |          31 |
|      33 | 0x1C62      |        7266 |
|      34 | 0x0002      |           2 |
|      35 | 0x1C66      |        7270 |
|      36 | 0x1C67      |        7271 |
|      37 | 0x1C68      |        7272 |
|      38 | 0x0005      |           5 |
|      39 | 0x0006      |           6 |
|      40 | 0x0007      |           7 |
|      41 | 0x0008      |           8 |
|      42 | 0x0009      |           9 |
|      43 | 0x0004      |           4 |
|      44 | 0x1C69      |        7273 |
|      45 | 0x1C6A      |        7274 |
|      46 | 0x000B      |          11 |
|      47 | 0x000C      |          12 |
|      48 | 0x000D      |          13 |
|      49 | 0x000E      |          14 |
|      50 | 0x000F      |          15 |
|      51 | 0x0011      |          17 |
|      52 | 0x0012      |          18 |
|      53 | 0x0013      |          19 |
|      54 | 0x0014      |          20 |
|      55 | 0x0015      |          21 |
|      56 | 0x0016      |          22 |
|      57 | 0x1C6C      |        7276 |
|      58 | 0x1C6D      |        7277 |
|      59 | 0x1C6E      |        7278 |
|      60 | 0x1C8F      |        7311 |
|      61 | 0x1C7A      |        7290 |
|      62 | 0x1C7B      |        7291 |
|      63 | 0x1C7C      |        7292 |
|      64 | 0x1C7D      |        7293 |
|      65 | 0x1C7E      |        7294 |
|      66 | 0x1C7F      |        7295 |
|      67 | 0x1C90      |        7312 |
|      68 | 0x1C91      |        7313 |
|      69 | 0x1C92      |        7314 |
|      70 | 0x1C93      |        7315 |
|      71 | 0x1C94      |        7316 |
|      72 | 0x1C83      |        7299 |
|      73 | 0x1C80      |        7296 |
|      74 | 0x1C81      |        7297 |
|      75 | 0x1C82      |        7298 |
|      76 | 0x270F      |        9999 |
|      77 | 0x1C96      |        7318 |
|      78 | 0x1C97      |        7319 |
|      79 | 0x1C98      |        7320 |
|      80 | 0x1C99      |        7321 |
|      81 | 0x1C9A      |        7322 |
|      82 | 0x1C9B      |        7323 |
|      83 | 0x4E20      |       20000 |
|      84 | 0x7530      |       30000 |
|      85 | 0x3A98      |       15000 |
|      86 | 0x61A8      |       25000 |
|      87 | 0x5B4F      |       23375 |
|      88 | 0x5B92      |       23442 |
|      89 | 0x5BD5      |       23509 |
|      90 | 0x5C18      |       23576 |
|      91 | 0x5C5B      |       23643 |
|      92 | 0x5D57      |       23895 |
|      93 | 0x5D84      |       23940 |
|      94 | 0x5DB1      |       23985 |
|      95 | 0x5DDE      |       24030 |
|      96 | 0x5E0B      |       24075 |
|      97 | 0x5B50      |       23376 |
|      98 | 0x5B93      |       23443 |
|      99 | 0x5BD6      |       23510 |
|     100 | 0x5C19      |       23577 |
|     101 | 0x5C5C      |       23644 |
|     102 | 0x5D58      |       23896 |
|     103 | 0x5D85      |       23941 |
|     104 | 0x5DB2      |       23986 |
|     105 | 0x5DDF      |       24031 |
|     106 | 0x5E0C      |       24076 |
|     107 | 0x5B51      |       23377 |
|     108 | 0x5B94      |       23444 |
|     109 | 0x5BD7      |       23511 |
|     110 | 0x5C1A      |       23578 |
|     111 | 0x5C5D      |       23645 |
|     112 | 0x5D59      |       23897 |
|     113 | 0x5D86      |       23942 |
|     114 | 0x5DB3      |       23987 |
|     115 | 0x5DE0      |       24032 |
|     116 | 0x5E0D      |       24077 |
|     117 | 0x5B52      |       23378 |
|     118 | 0x5B95      |       23445 |
|     119 | 0x5BD8      |       23512 |
|     120 | 0x5C1B      |       23579 |
|     121 | 0x5C5E      |       23646 |
|     122 | 0x5D5A      |       23898 |
|     123 | 0x5D87      |       23943 |
|     124 | 0x5DB4      |       23988 |
|     125 | 0x5DE1      |       24033 |
|     126 | 0x5E0E      |       24078 |
|     127 | 0x5B53      |       23379 |
|     128 | 0x5B96      |       23446 |
|     129 | 0x5BD9      |       23513 |
|     130 | 0x5C1C      |       23580 |
|     131 | 0x5C5F      |       23647 |
|     132 | 0x5D5B      |       23899 |
|     133 | 0x5D88      |       23944 |
|     134 | 0x5DB5      |       23989 |
|     135 | 0x5DE2      |       24034 |
|     136 | 0x5E0F      |       24079 |
|     137 | 0x5B54      |       23380 |
|     138 | 0x5B97      |       23447 |
|     139 | 0x5BDA      |       23514 |
|     140 | 0x5C1D      |       23581 |
|     141 | 0x5C60      |       23648 |
|     142 | 0x5D5C      |       23900 |
|     143 | 0x5D89      |       23945 |
|     144 | 0x5DB6      |       23990 |
|     145 | 0x5DE3      |       24035 |
|     146 | 0x5E10      |       24080 |
|     147 | 0x5B55      |       23381 |
|     148 | 0x5B98      |       23448 |
|     149 | 0x5BDB      |       23515 |
|     150 | 0x5C1E      |       23582 |
|     151 | 0x5C61      |       23649 |
|     152 | 0x5D5D      |       23901 |
|     153 | 0x5D8A      |       23946 |
|     154 | 0x5DB7      |       23991 |
|     155 | 0x5DE4      |       24036 |
|     156 | 0x5E11      |       24081 |
|     157 | 0x5B56      |       23382 |
|     158 | 0x5B99      |       23449 |
|     159 | 0x5BDC      |       23516 |
|     160 | 0x5C1F      |       23583 |
|     161 | 0x5C62      |       23650 |
|     162 | 0x5D5E      |       23902 |
|     163 | 0x5D8B      |       23947 |
|     164 | 0x5DB8      |       23992 |
|     165 | 0x5DE5      |       24037 |
|     166 | 0x5E12      |       24082 |
|     167 | 0x5B57      |       23383 |
|     168 | 0x5B9A      |       23450 |
|     169 | 0x5BDD      |       23517 |
|     170 | 0x5C20      |       23584 |
|     171 | 0x5C63      |       23651 |
|     172 | 0x5D5F      |       23903 |
|     173 | 0x5D8C      |       23948 |
|     174 | 0x5DB9      |       23993 |
|     175 | 0x5DE6      |       24038 |
|     176 | 0x5E13      |       24083 |
|     177 | 0x5B58      |       23384 |
|     178 | 0x5B9B      |       23451 |
|     179 | 0x5BDE      |       23518 |
|     180 | 0x5C21      |       23585 |
|     181 | 0x5C64      |       23652 |
|     182 | 0x5D60      |       23904 |
|     183 | 0x5D8D      |       23949 |
|     184 | 0x5DBA      |       23994 |
|     185 | 0x5DE7      |       24039 |
|     186 | 0x5E14      |       24084 |
|     187 | 0x5B59      |       23385 |
|     188 | 0x5B9C      |       23452 |
|     189 | 0x5BDF      |       23519 |
|     190 | 0x5C22      |       23586 |
|     191 | 0x5C65      |       23653 |
|     192 | 0x5D61      |       23905 |
|     193 | 0x5D8E      |       23950 |
|     194 | 0x5DBB      |       23995 |
|     195 | 0x5DE8      |       24040 |
|     196 | 0x5E15      |       24085 |
|     197 | 0x5B5A      |       23386 |
|     198 | 0x5B9D      |       23453 |
|     199 | 0x5BE0      |       23520 |
|     200 | 0x5C23      |       23587 |
|     201 | 0x5C66      |       23654 |
|     202 | 0x5D62      |       23906 |
|     203 | 0x5D8F      |       23951 |
|     204 | 0x5DBC      |       23996 |
|     205 | 0x5DE9      |       24041 |
|     206 | 0x5E16      |       24086 |
|     207 | 0x5B5B      |       23387 |
|     208 | 0x5B9E      |       23454 |
|     209 | 0x5BE1      |       23521 |
|     210 | 0x5C24      |       23588 |
|     211 | 0x5C67      |       23655 |
|     212 | 0x5D63      |       23907 |
|     213 | 0x5D90      |       23952 |
|     214 | 0x5DBD      |       23997 |
|     215 | 0x5DEA      |       24042 |
|     216 | 0x5E17      |       24087 |
|     217 | 0x5B5C      |       23388 |
|     218 | 0x5B9F      |       23455 |
|     219 | 0x5BE2      |       23522 |
|     220 | 0x5C25      |       23589 |
|     221 | 0x5C68      |       23656 |
|     222 | 0x5D64      |       23908 |
|     223 | 0x5D91      |       23953 |
|     224 | 0x5DBE      |       23998 |
|     225 | 0x5DEB      |       24043 |
|     226 | 0x5E18      |       24088 |
|     227 | 0x5B5D      |       23389 |
|     228 | 0x5BA0      |       23456 |
|     229 | 0x5BE3      |       23523 |
|     230 | 0x5C26      |       23590 |
|     231 | 0x5C69      |       23657 |
|     232 | 0x5D65      |       23909 |
|     233 | 0x5D92      |       23954 |
|     234 | 0x5DBF      |       23999 |
|     235 | 0x5DEC      |       24044 |
|     236 | 0x5E19      |       24089 |
|     237 | 0x5B5E      |       23390 |
|     238 | 0x5BA1      |       23457 |
|     239 | 0x5BE4      |       23524 |
|     240 | 0x5C27      |       23591 |
|     241 | 0x5C6A      |       23658 |
|     242 | 0x5D66      |       23910 |
|     243 | 0x5D93      |       23955 |
|     244 | 0x5DC0      |       24000 |
|     245 | 0x5DED      |       24045 |
|     246 | 0x5E1A      |       24090 |
|     247 | 0x5B5F      |       23391 |
|     248 | 0x5BA2      |       23458 |
|     249 | 0x5BE5      |       23525 |
|     250 | 0x5C28      |       23592 |
|     251 | 0x5C6B      |       23659 |
|     252 | 0x5D67      |       23911 |
|     253 | 0x5D94      |       23956 |
|     254 | 0x5DC1      |       24001 |
|     255 | 0x5DEE      |       24046 |
|     256 | 0x5E1B      |       24091 |
|     257 | 0x5B60      |       23392 |
|     258 | 0x5BA3      |       23459 |
|     259 | 0x5BE6      |       23526 |
|     260 | 0x5C29      |       23593 |
|     261 | 0x5C6C      |       23660 |
|     262 | 0x5D68      |       23912 |
|     263 | 0x5D95      |       23957 |
|     264 | 0x5DC2      |       24002 |
|     265 | 0x5DEF      |       24047 |
|     266 | 0x5E1C      |       24092 |
|     267 | 0x5B61      |       23393 |
|     268 | 0x5BA4      |       23460 |
|     269 | 0x5BE7      |       23527 |
|     270 | 0x5C2A      |       23594 |
|     271 | 0x5C6D      |       23661 |
|     272 | 0x5D69      |       23913 |
|     273 | 0x5D96      |       23958 |
|     274 | 0x5DC3      |       24003 |
|     275 | 0x5DF0      |       24048 |
|     276 | 0x5E1D      |       24093 |
|     277 | 0x5B62      |       23394 |
|     278 | 0x5BA5      |       23461 |
|     279 | 0x5BE8      |       23528 |
|     280 | 0x5C2B      |       23595 |
|     281 | 0x5C6E      |       23662 |
|     282 | 0x5D6A      |       23914 |
|     283 | 0x5D97      |       23959 |
|     284 | 0x5DC4      |       24004 |
|     285 | 0x5DF1      |       24049 |
|     286 | 0x5E1E      |       24094 |
|     287 | 0x5B63      |       23395 |
|     288 | 0x5BA6      |       23462 |
|     289 | 0x5BE9      |       23529 |
|     290 | 0x5C2C      |       23596 |
|     291 | 0x5C6F      |       23663 |
|     292 | 0x5D6B      |       23915 |
|     293 | 0x5D98      |       23960 |
|     294 | 0x5DC5      |       24005 |
|     295 | 0x5DF2      |       24050 |
|     296 | 0x5E1F      |       24095 |
|     297 | 0x5B64      |       23396 |
|     298 | 0x5BA7      |       23463 |
|     299 | 0x5BEA      |       23530 |
|     300 | 0x5C2D      |       23597 |
|     301 | 0x5C70      |       23664 |
|     302 | 0x5D6C      |       23916 |
|     303 | 0x5D99      |       23961 |
|     304 | 0x5DC6      |       24006 |
|     305 | 0x5DF3      |       24051 |
|     306 | 0x5E20      |       24096 |
|     307 | 0x5B65      |       23397 |
|     308 | 0x5BA8      |       23464 |
|     309 | 0x5BEB      |       23531 |
|     310 | 0x5C2E      |       23598 |
|     311 | 0x5C71      |       23665 |
|     312 | 0x5D6D      |       23917 |
|     313 | 0x5D9A      |       23962 |
|     314 | 0x5DC7      |       24007 |
|     315 | 0x5DF4      |       24052 |
|     316 | 0x5E21      |       24097 |

## String References

- **7244**: Welcome to Apollyon. Please present your $3.
- **7245**: ...Credentials not present. Authorizing new issuance.
- **7246**: Registration in progress...
- **7247**: Welcome to Apollyon. This place is designed for the generation of new life-forms.
- **7248**: NW/SW/NE/SE areas contain monsters for recording data in your $3.
- **7249**: Successfully recording data will permit you to open Apollyon Coffers.
- **7250**: You will also be authorized to collect a special currency called Apollyon Units.
- **7251**: Systems are only capable of recording data for each registrant up to five times per week (Earth time).
- **7252**: Apollyon Units can be used in the Apollyon Furnace.
- **7253**: Please use it to your advantage.
- **7254**: Special Limbus buffs known as Grace are also available to those who have deposited a sufficient amount of currency.
- **7255**: The more data, the stronger the Grace.
- **7256**: Your registration is now complete. Currently recording initial data in your $3.
- **7257**: Please set your initial monster level. The higher the level, the more precise the data we can gather.
- **7258**: Your $3 is now fully prepared. Glory to Zilart.
- **7259**: ...
- **7260**: ......
- **7261**: Enter a level value between 119 and $1 to be recorded in your $3.
- **7262**: "$1" has been recorded in your $3.
- **7263**: Enter 0 to cancel.
- **7265**: Increasing the level will reset your progress.
- **7266**: What will you do? [Change level and reset./Never mind.]
- **7269**: Inquire about what? [Level settings./Apollyon./Apollyon Units./The Apollyon Furnace./Equipment list./Grace./Notorious monsters./Treasure coffer timings./%./CN Opening.$1./Reforging.@/Nothing for now.]
- **7270**: Remaining Apollyon Units: $0. Total Apollyon Units: $1/$2.
- **7271**: The Apollyon Furnace uses data to enhance your equipment.
- **7272**: Inquire about which? [Pummeler's Armor./Anchorite Attire./Theophany Attire./Spaekona's Attire./Atrophy Armor./Pillager's Attire./Reverence Armor./Ignominy Armor./Totemic Armor./Brioso Attire./Orion Attire./Wakido Armor./Hachiya Armor./Vishap Armor./Convoker's Attire./Assimilator's Attire./Laksamana Attire./Foire Attire./Maxixi Attire./Academic's Attire./Geomancy Attire./Runeist Attire./Nothing for now.]
- **7274**: Reforging your item into $0 requires $1 and $2 Apollyon Units.
- **7276**: 3 effects: Accuracy+$1@Ranged Accuracy+$1@Magic Accuracy+$1.
- **7277**: $3 effects: BPALL+$3.
- **7278**: $3 effects: Max. HP+$5 EXP Loss Reduction: $6% MEXP Loss Reduction: $6%
- **7290**: I have generated new notorious monsters based on your data.
- **7291**: Here is a quick rundown.
- **7292**: 1: they do not take your set level into account.
- **7293**: 2: there are 22 types, but only 4 will appear on any given day (Earth time).
- **7294**: $0: vanquishing them affects the contents of the Apollyon Coffer obtainable four weeks later.
- **7295**: This should enable you to collect even more precise data.
- **7296**: The $0 changes form when one uses Apollyon Units.
- **7297**: It can produce special equipment.
- **7298**: The produced equipment can be further infused.
- **7299**: Notorious monster vanquishing information will affect Apollyon Coffers in $0 [days/hours/hour or less] (Earth time).
- **7311**: Do what? [Phase 1./Phase 2./@/Back.]
- **7312**: New notorious monsters have been created based on collected data aand registrant information.
- **7313**: Communicating data on new notorious monsters.
- **7314**: 2: Notorious monsters are classified into three categories.
- **7315**: 3: Notorious monster spawn conditions are divided into two sets.
- **7316**: 4: They spawn in CN, which opens when certain conditions are met.
- **7318**: Creating $0 based on registrant information.
- **7319**: Multiple $0 may by created from $1 and $2.
- **7320**: Created items can be used to unlock and reforge new equipment.
- **7321**: Up to $3 $0 can be changed into other types.
- **7322**: Reforged equipment attributes can be carried over to higher-tier equipmen of the same series and equipment slot.
- **7323**: However, the original equipment will be consumed in the process.

## Events

### Event 65535

#### Metadata

| Field        | Value   |
|--------------|---------|
| Entrypoint   | 0x0000  |
| Data Size    | 1 bytes |
| Instructions | 1       |

```
      00 01 02 03 04 05 06 07  08 09 0A 0B 0C 0D 0E 0F
      -- -- -- -- -- -- -- --  -- -- -- -- -- -- -- --
0000: 00                                                .               
```

#### Opcodes

```
  0: 0x0000 [0x00] END_REQSTACK()
```

### Event 129

#### Metadata

| Field        | Value     |
|--------------|-----------|
| Entrypoint   | 0x0001    |
| Data Size    | 180 bytes |
| Instructions | 66        |

```
      00 01 02 03 04 05 06 07  08 09 0A 0B 0C 0D 0E 0F
      -- -- -- -- -- -- -- --  -- -- -- -- -- -- -- --
0000:    1E F0 FF FF 7F 1C 00  80 03 02 10 01 80 1D 02   ...............
0010: 80 23 1D 03 80 23 1D 04  80 23 1D 05 80 23 1D 06  .#...#...#...#..
0020: 80 23 1D 07 80 23 1D 08  80 23 1D 09 80 23 1D 0A  .#...#...#...#..
0030: 80 23 1D 0B 80 23 1D 0C  80 23 1D 0D 80 23 1D 0E  .#...#...#...#..
0040: 80 23 1D 0F 80 23 1D 10  80 23 1D 11 80 23 03 03  .#...#...#...#..
0050: 10 12 80 1D 13 80 23 48  14 80 03 01 10 15 80 71  ......#H.......q
0060: 12 00 80 16 80 71 13 02  00 02 02 00 15 80 00 74  .....q.........t
0070: 00 01 B0 00 02 02 00 17  80 04 AD 00 02 02 00 12  ................
0080: 80 05 A7 00 42 03 02 10  01 80 03 03 10 02 00 03  ....B...........
0090: 01 10 02 00 1D 18 80 23  1D 03 80 23 1D 04 80 23  .......#...#...#
00A0: 1D 19 80 23 01 AA 00 01  4E 00 01 B0 00 01 4E 00  ...#....N.....N.
00B0: 2E 20 00 21 00                                    . .!.           
```

#### Opcodes

```
  0: 0x0001 [0x1E] EventEntity looks at LocalPlayer and starts talking
  1: 0x0006 [0x1C] WAIT(1* ticks)
  2: 0x0009 [0x03] Work_Zone[2] = 351*
  3: 0x000E [0x1D] PRINT_EVENT_MESSAGE(message_id=7244*)
    → "Welcome to Apollyon. Please present your $3."
  4: 0x0011 [0x23] WAIT_FOR_DIALOG_INTERACTION
  5: 0x0012 [0x1D] PRINT_EVENT_MESSAGE(message_id=7259*)
    → "..."
  6: 0x0015 [0x23] WAIT_FOR_DIALOG_INTERACTION
  7: 0x0016 [0x1D] PRINT_EVENT_MESSAGE(message_id=7260*)
    → "......"
  8: 0x0019 [0x23] WAIT_FOR_DIALOG_INTERACTION
  9: 0x001A [0x1D] PRINT_EVENT_MESSAGE(message_id=7245*)
    → "...Credentials not present. Authorizing new issuance."
 10: 0x001D [0x23] WAIT_FOR_DIALOG_INTERACTION
 11: 0x001E [0x1D] PRINT_EVENT_MESSAGE(message_id=7246*)
    → "Registration in progress..."
 12: 0x0021 [0x23] WAIT_FOR_DIALOG_INTERACTION
 13: 0x0022 [0x1D] PRINT_EVENT_MESSAGE(message_id=7247*)
    → "Welcome to Apollyon. This place is designed for the generation of new life-forms."
 14: 0x0025 [0x23] WAIT_FOR_DIALOG_INTERACTION
 15: 0x0026 [0x1D] PRINT_EVENT_MESSAGE(message_id=7248*)
    → "NW/SW/NE/SE areas contain monsters for recording data in your $3."
 16: 0x0029 [0x23] WAIT_FOR_DIALOG_INTERACTION
 17: 0x002A [0x1D] PRINT_EVENT_MESSAGE(message_id=7249*)
    → "Successfully recording data will permit you to open Apollyon Coffers."
 18: 0x002D [0x23] WAIT_FOR_DIALOG_INTERACTION
 19: 0x002E [0x1D] PRINT_EVENT_MESSAGE(message_id=7250*)
    → "You will also be authorized to collect a special currency called Apollyon Units."
 20: 0x0031 [0x23] WAIT_FOR_DIALOG_INTERACTION
 21: 0x0032 [0x1D] PRINT_EVENT_MESSAGE(message_id=7251*)
    → "Systems are only capable of recording data for each registrant up to five times per week (Earth time)."
 22: 0x0035 [0x23] WAIT_FOR_DIALOG_INTERACTION
 23: 0x0036 [0x1D] PRINT_EVENT_MESSAGE(message_id=7252*)
    → "Apollyon Units can be used in the Apollyon Furnace."
 24: 0x0039 [0x23] WAIT_FOR_DIALOG_INTERACTION
 25: 0x003A [0x1D] PRINT_EVENT_MESSAGE(message_id=7253*)
    → "Please use it to your advantage."
 26: 0x003D [0x23] WAIT_FOR_DIALOG_INTERACTION
 27: 0x003E [0x1D] PRINT_EVENT_MESSAGE(message_id=7254*)
    → "Special Limbus buffs known as Grace are also available to those who have deposited a sufficient amount of currency."
 28: 0x0041 [0x23] WAIT_FOR_DIALOG_INTERACTION
 29: 0x0042 [0x1D] PRINT_EVENT_MESSAGE(message_id=7255*)
    → "The more data, the stronger the Grace."
 30: 0x0045 [0x23] WAIT_FOR_DIALOG_INTERACTION
 31: 0x0046 [0x1D] PRINT_EVENT_MESSAGE(message_id=7256*)
    → "Your registration is now complete. Currently recording initial data in your $3."
 32: 0x0049 [0x23] WAIT_FOR_DIALOG_INTERACTION
 33: 0x004A [0x1D] PRINT_EVENT_MESSAGE(message_id=7257*)
    → "Please set your initial monster level. The higher the level, the more precise the data we can gather."
 34: 0x004D [0x23] WAIT_FOR_DIALOG_INTERACTION
 35: 0x004E [0x03] Work_Zone[3] = 135*
 36: 0x0053 [0x1D] PRINT_EVENT_MESSAGE(message_id=7261*)
    → "Enter a level value between 119 and $1 to be recorded in your $3."
 37: 0x0056 [0x23] WAIT_FOR_DIALOG_INTERACTION
 38: 0x0057 [0x48] [System] [7263*]:
    → "Enter 0 to cancel."
 39: 0x005A [0x03] Work_Zone[1] = 0*
 40: 0x005F [0x71] USER_INPUT_HANDLER: Open numerical input with params (work=[1*, 3*])
 41: 0x0065 [0x71] USER_INPUT_HANDLER: Process numerical input B (work=ExtData[1]->WorkLocal[2])
 42: 0x0069 [0x02] IF !(ExtData[1]->WorkLocal[2] == 0*) GOTO 0x0074
 43: 0x0071 [0x01] GOTO 0x00B0
 44: 0x0074 [0x02] IF !(ExtData[1]->WorkLocal[2] < 119*) GOTO 0x00AD
 45: 0x007C [0x02] IF !(ExtData[1]->WorkLocal[2] > 135*) GOTO 0x00A7
 46: 0x0084 [0x42] SET_CLI_EVENT_CANCEL_DATA()
 47: 0x0085 [0x03] Work_Zone[2] = 351*
 48: 0x008A [0x03] Work_Zone[3] = ExtData[1]->WorkLocal[2]
 49: 0x008F [0x03] Work_Zone[1] = ExtData[1]->WorkLocal[2]
 50: 0x0094 [0x1D] PRINT_EVENT_MESSAGE(message_id=7262*)
    → ""$1" has been recorded in your $3."
 51: 0x0097 [0x23] WAIT_FOR_DIALOG_INTERACTION
 52: 0x0098 [0x1D] PRINT_EVENT_MESSAGE(message_id=7259*)
    → "..."
 53: 0x009B [0x23] WAIT_FOR_DIALOG_INTERACTION
 54: 0x009C [0x1D] PRINT_EVENT_MESSAGE(message_id=7260*)
    → "......"
 55: 0x009F [0x23] WAIT_FOR_DIALOG_INTERACTION
 56: 0x00A0 [0x1D] PRINT_EVENT_MESSAGE(message_id=7258*)
    → "Your $3 is now fully prepared. Glory to Zilart."
 57: 0x00A3 [0x23] WAIT_FOR_DIALOG_INTERACTION
 58: 0x00A4 [0x01] GOTO 0x00AA
 59: 0x00A7 [0x01] GOTO 0x004E

SUBROUTINE_00AA:
 60: 0x00AA [0x01] GOTO 0x00B0
 61: 0x00AD [0x01] GOTO 0x004E

SUBROUTINE_00B0:
 62: 0x00B0 [0x2E] SET_CLI_EVENT_CANCEL_FLAGS()
 63: 0x00B1 [0x20] SET_CLI_EVENT_UC_FLAG: Unlock player control
 64: 0x00B3 [0x21] END_EVENT
 65: 0x00B4 [0x00] END_REQSTACK()
```

### Event 131

#### Metadata

| Field        | Value      |
|--------------|------------|
| Entrypoint   | 0x00B5     |
| Data Size    | 5727 bytes |
| Instructions | 387        |

```
      00 01 02 03 04 05 06 07  08 09 0A 0B 0C 0D 0E 0F
      -- -- -- -- -- -- -- --  -- -- -- -- -- -- -- --
00B0:                03 07 00  02 10 03 0D 00 03 10 03       ...........
00C0: 0E 00 04 10 1E F0 FF FF  7F 1C 00 80 03 03 00 15  ................
00D0: 80 03 04 00 15 80 03 05  00 15 80 03 06 00 15 80  ................
00E0: 03 02 10 1A 80 03 03 10  0D 00 24 1B 80 03 00 07  ..........$.....
00F0: 00 25 02 00 10 15 80 00  0C 02 03 03 00 00 10 03  .%..............
0100: 01 10 00 80 43 00 43 01  03 00 00 02 10 03 01 00  ....C.C.........
0110: 03 10 07 00 00 1C 80 03  02 10 01 80 03 03 10 12  ................
0120: 80 1D 13 80 23 48 14 80  02 01 00 15 80 00 33 01  ....#H........3.
0130: 01 36 01 48 1D 80 03 01  10 15 80 71 12 00 80 16  .6.H.......q....
0140: 80 71 13 02 00 02 02 00  15 80 00 50 01 01 09 02  .q.........P....
0150: 02 02 00 17 80 04 06 02  02 02 00 12 80 05 00 02  ................
0160: 42 02 01 00 15 80 00 8C  01 03 02 10 01 80 03 03  B...............
0170: 10 02 00 40 15 80 1E 80  01 10 00 80 40 1F 80 20  ...@........@.. 
0180: 80 01 10 02 00 1D 18 80  23 01 FD 01 02 02 00 00  ........#.......
0190: 00 02 DD 01 48 1D 80 24  21 80 00 80 15 80 25 02  ....H..$!.....%.
01A0: 00 10 15 80 00 CA 01 03  02 10 01 80 03 03 10 02  ................
01B0: 00 40 15 80 1E 80 01 10  00 80 40 1F 80 20 80 01  .@........@.. ..
01C0: 10 02 00 1D 18 80 23 01  DA 01 02 00 10 00 80 00  ......#.........
01D0: DA 01 03 01 10 15 80 01  DA 01 01 FD 01 03 02 10  ................
01E0: 01 80 03 03 10 02 00 40  15 80 1E 80 01 10 00 80  .......@........
01F0: 40 1F 80 20 80 01 10 02  00 1D 18 80 23 01 03 02  @.. ........#...
0200: 01 17 01 01 09 02 01 17  01 01 0F 14 02 00 10 00  ................
0210: 80 00 48 02 03 03 00 00  10 03 02 10 01 80 1D 07  ..H.............
0220: 80 23 1D 08 80 23 1D 09  80 23 1D 0A 80 23 1D 0B  .#...#...#...#..
0230: 80 23 1D 0C 80 23 1D 0D  80 23 1D 0E 80 23 1D 0F  .#...#...#...#..
0240: 80 23 01 E0 00 01 0F 14  02 00 10 22 80 00 68 02  .#........."..h.
0250: 03 03 00 00 10 03 01 10  16 80 43 00 43 01 1D 23  ..........C.C..#
0260: 80 23 01 E0 00 01 0F 14  02 00 10 16 80 00 07 12  .#..............
0270: 03 03 00 00 10 1D 24 80  23 24 25 80 04 00 15 80  ......$.#$%.....
0280: 25 02 00 10 15 80 00 2F  03 03 04 00 00 10 03 05  %....../........
0290: 00 15 80 9D 0A 33 14 02  10 26 80 1E 80 D4 03 15  .....3...&......
02A0: 80 02 10 9D 0A 33 14 03  10 27 80 1E 80 D4 03 00  .....3...'......
02B0: 80 03 10 9D 0A 33 14 04  10 28 80 1E 80 D4 03 22  .....3...(....."
02C0: 80 04 10 9D 0A 33 14 05  10 29 80 1E 80 D4 03 16  .....3...)......
02D0: 80 05 10 9D 0A 33 14 06  10 2A 80 1E 80 D4 03 2B  .....3...*.....+
02E0: 80 06 10 D4 02 2C 80 05  00 15 80 25 02 00 10 26  .....,.....%...&
02F0: 80 00 FA 02 01 79 02 01  2C 03 03 05 00 00 10 9D  .....y..,.......
0300: 0A 13 14 0B 00 00 10 26  80 03 02 10 0B 00 93 02  .......&........
0310: 10 9D 0A 33 14 03 10 00  10 1E 80 9D 0A 23 14 04  ...3.........#..
0320: 10 00 10 26 80 1D 2D 80  23 01 93 02 01 01 12 02  ...&..-.#.......
0330: 00 10 00 80 00 DD 03 03  04 00 00 10 03 05 00 15  ................
0340: 80 9D 0A 53 14 02 10 26  80 1E 80 D4 03 15 80 02  ...S...&........
0350: 10 9D 0A 53 14 03 10 27  80 1E 80 D4 03 00 80 03  ...S...'........
0360: 10 9D 0A 53 14 04 10 28  80 1E 80 D4 03 22 80 04  ...S...(....."..
0370: 10 9D 0A 53 14 05 10 29  80 1E 80 D4 03 16 80 05  ...S...)........
0380: 10 9D 0A 53 14 06 10 2A  80 1E 80 D4 03 2B 80 06  ...S...*.....+..
0390: 10 D4 02 2C 80 05 00 15  80 25 02 00 10 26 80 00  ...,.....%...&..
03A0: A8 03 01 79 02 01 DA 03  03 05 00 00 10 9D 0A 13  ...y............
03B0: 14 0B 00 00 10 26 80 03  02 10 0B 00 93 02 10 9D  .....&..........
03C0: 0A 53 14 03 10 00 10 1E  80 9D 0A 23 14 04 10 00  .S.........#....
03D0: 10 26 80 1D 2D 80 23 01  41 03 01 01 12 02 00 10  .&..-.#.A.......
03E0: 22 80 00 8B 04 03 04 00  00 10 03 05 00 15 80 9D  "...............
03F0: 0A 73 14 02 10 26 80 1E  80 D4 03 15 80 02 10 9D  .s...&..........
0400: 0A 73 14 03 10 27 80 1E  80 D4 03 00 80 03 10 9D  .s...'..........
0410: 0A 73 14 04 10 28 80 1E  80 D4 03 22 80 04 10 9D  .s...(....."....
0420: 0A 73 14 05 10 29 80 1E  80 D4 03 16 80 05 10 9D  .s...)..........
0430: 0A 73 14 06 10 2A 80 1E  80 D4 03 2B 80 06 10 D4  .s...*.....+....
0440: 02 2C 80 05 00 15 80 25  02 00 10 26 80 00 56 04  .,.....%...&..V.
0450: 01 79 02 01 88 04 03 05  00 00 10 9D 0A 13 14 0B  .y..............
0460: 00 00 10 26 80 03 02 10  0B 00 93 02 10 9D 0A 73  ...&...........s
0470: 14 03 10 00 10 1E 80 9D  0A 23 14 04 10 00 10 26  .........#.....&
0480: 80 1D 2D 80 23 01 EF 03  01 01 12 02 00 10 16 80  ..-.#...........
0490: 00 39 05 03 04 00 00 10  03 05 00 15 80 9D 0A 93  .9..............
04A0: 14 02 10 26 80 1E 80 D4  03 15 80 02 10 9D 0A 93  ...&............
04B0: 14 03 10 27 80 1E 80 D4  03 00 80 03 10 9D 0A 93  ...'............
04C0: 14 04 10 28 80 1E 80 D4  03 22 80 04 10 9D 0A 93  ...(....."......
04D0: 14 05 10 29 80 1E 80 D4  03 16 80 05 10 9D 0A 93  ...)............
04E0: 14 06 10 2A 80 1E 80 D4  03 2B 80 06 10 D4 02 2C  ...*.....+.....,
04F0: 80 05 00 15 80 25 02 00  10 26 80 00 04 05 01 79  .....%...&.....y
0500: 02 01 36 05 03 05 00 00  10 9D 0A 13 14 0B 00 00  ..6.............
0510: 10 26 80 03 02 10 0B 00  93 02 10 9D 0A 93 14 03  .&..............
0520: 10 00 10 1E 80 9D 0A 23  14 04 10 00 10 26 80 1D  .......#.....&..
0530: 2D 80 23 01 9D 04 01 01  12 02 00 10 2B 80 00 E7  -.#.........+...
0540: 05 03 04 00 00 10 03 05  00 15 80 9D 0A B3 14 02  ................
0550: 10 26 80 1E 80 D4 03 15  80 02 10 9D 0A B3 14 03  .&..............
0560: 10 27 80 1E 80 D4 03 00  80 03 10 9D 0A B3 14 04  .'..............
0570: 10 28 80 1E 80 D4 03 22  80 04 10 9D 0A B3 14 05  .(....."........
0580: 10 29 80 1E 80 D4 03 16  80 05 10 9D 0A B3 14 06  .)..............
0590: 10 2A 80 1E 80 D4 03 2B  80 06 10 D4 02 2C 80 05  .*.....+.....,..
05A0: 00 15 80 25 02 00 10 26  80 00 B2 05 01 79 02 01  ...%...&.....y..
05B0: E4 05 03 05 00 00 10 9D  0A 13 14 0B 00 00 10 26  ...............&
05C0: 80 03 02 10 0B 00 93 02  10 9D 0A B3 14 03 10 00  ................
05D0: 10 1E 80 9D 0A 23 14 04  10 00 10 26 80 1D 2D 80  .....#.....&..-.
05E0: 23 01 4B 05 01 01 12 02  00 10 26 80 00 95 06 03  #.K.......&.....
05F0: 04 00 00 10 03 05 00 15  80 9D 0A D3 14 02 10 26  ...............&
0600: 80 1E 80 D4 03 15 80 02  10 9D 0A D3 14 03 10 27  ...............'
0610: 80 1E 80 D4 03 00 80 03  10 9D 0A D3 14 04 10 28  ...............(
0620: 80 1E 80 D4 03 22 80 04  10 9D 0A D3 14 05 10 29  .....".........)
0630: 80 1E 80 D4 03 16 80 05  10 9D 0A D3 14 06 10 2A  ...............*
0640: 80 1E 80 D4 03 2B 80 06  10 D4 02 2C 80 05 00 15  .....+.....,....
0650: 80 25 02 00 10 26 80 00  60 06 01 79 02 01 92 06  .%...&..`..y....
0660: 03 05 00 00 10 9D 0A 13  14 0B 00 00 10 26 80 03  .............&..
0670: 02 10 0B 00 93 02 10 9D  0A D3 14 03 10 00 10 1E  ................
0680: 80 9D 0A 23 14 04 10 00  10 26 80 1D 2D 80 23 01  ...#.....&..-.#.
0690: F9 05 01 01 12 02 00 10  27 80 00 43 07 03 04 00  ........'..C....
06A0: 00 10 03 05 00 15 80 9D  0A F3 14 02 10 26 80 1E  .............&..
06B0: 80 D4 03 15 80 02 10 9D  0A F3 14 03 10 27 80 1E  .............'..
06C0: 80 D4 03 00 80 03 10 9D  0A F3 14 04 10 28 80 1E  .............(..
06D0: 80 D4 03 22 80 04 10 9D  0A F3 14 05 10 29 80 1E  ...".........)..
06E0: 80 D4 03 16 80 05 10 9D  0A F3 14 06 10 2A 80 1E  .............*..
06F0: 80 D4 03 2B 80 06 10 D4  02 2C 80 05 00 15 80 25  ...+.....,.....%
0700: 02 00 10 26 80 00 0E 07  01 79 02 01 40 07 03 05  ...&.....y..@...
0710: 00 00 10 9D 0A 13 14 0B  00 00 10 26 80 03 02 10  ...........&....
0720: 0B 00 93 02 10 9D 0A F3  14 03 10 00 10 1E 80 9D  ................
0730: 0A 23 14 04 10 00 10 26  80 1D 2D 80 23 01 A7 06  .#.....&..-.#...
0740: 01 01 12 02 00 10 28 80  00 F1 07 03 04 00 00 10  ......(.........
0750: 03 05 00 15 80 9D 0A 13  15 02 10 26 80 1E 80 D4  ...........&....
0760: 03 15 80 02 10 9D 0A 13  15 03 10 27 80 1E 80 D4  ...........'....
0770: 03 00 80 03 10 9D 0A 13  15 04 10 28 80 1E 80 D4  ...........(....
0780: 03 22 80 04 10 9D 0A 13  15 05 10 29 80 1E 80 D4  .".........)....
0790: 03 16 80 05 10 9D 0A 13  15 06 10 2A 80 1E 80 D4  ...........*....
07A0: 03 2B 80 06 10 D4 02 2C  80 05 00 15 80 25 02 00  .+.....,.....%..
07B0: 10 26 80 00 BC 07 01 79  02 01 EE 07 03 05 00 00  .&.....y........
07C0: 10 9D 0A 13 14 0B 00 00  10 26 80 03 02 10 0B 00  .........&......
07D0: 93 02 10 9D 0A 13 15 03  10 00 10 1E 80 9D 0A 23  ...............#
07E0: 14 04 10 00 10 26 80 1D  2D 80 23 01 55 07 01 01  .....&..-.#.U...
07F0: 12 02 00 10 29 80 00 9F  08 03 04 00 00 10 03 05  ....)...........
0800: 00 15 80 9D 0A 33 15 02  10 26 80 1E 80 D4 03 15  .....3...&......
0810: 80 02 10 9D 0A 33 15 03  10 27 80 1E 80 D4 03 00  .....3...'......
0820: 80 03 10 9D 0A 33 15 04  10 28 80 1E 80 D4 03 22  .....3...(....."
0830: 80 04 10 9D 0A 33 15 05  10 29 80 1E 80 D4 03 16  .....3...)......
0840: 80 05 10 9D 0A 33 15 06  10 2A 80 1E 80 D4 03 2B  .....3...*.....+
0850: 80 06 10 D4 02 2C 80 05  00 15 80 25 02 00 10 26  .....,.....%...&
0860: 80 00 6A 08 01 79 02 01  9C 08 03 05 00 00 10 9D  ..j..y..........
0870: 0A 13 14 0B 00 00 10 26  80 03 02 10 0B 00 93 02  .......&........
0880: 10 9D 0A 33 15 03 10 00  10 1E 80 9D 0A 23 14 04  ...3.........#..
0890: 10 00 10 26 80 1D 2D 80  23 01 03 08 01 01 12 02  ...&..-.#.......
08A0: 00 10 2A 80 00 4D 09 03  04 00 00 10 03 05 00 15  ..*..M..........
08B0: 80 9D 0A 53 15 02 10 26  80 1E 80 D4 03 15 80 02  ...S...&........
08C0: 10 9D 0A 53 15 03 10 27  80 1E 80 D4 03 00 80 03  ...S...'........
08D0: 10 9D 0A 53 15 04 10 28  80 1E 80 D4 03 22 80 04  ...S...(....."..
08E0: 10 9D 0A 53 15 05 10 29  80 1E 80 D4 03 16 80 05  ...S...)........
08F0: 10 9D 0A 53 15 06 10 2A  80 1E 80 D4 03 2B 80 06  ...S...*.....+..
0900: 10 D4 02 2C 80 05 00 15  80 25 02 00 10 26 80 00  ...,.....%...&..
0910: 18 09 01 79 02 01 4A 09  03 05 00 00 10 9D 0A 13  ...y..J.........
0920: 14 0B 00 00 10 26 80 03  02 10 0B 00 93 02 10 9D  .....&..........
0930: 0A 53 15 03 10 00 10 1E  80 9D 0A 23 14 04 10 00  .S.........#....
0940: 10 26 80 1D 2D 80 23 01  B1 08 01 01 12 02 00 10  .&..-.#.........
0950: 1E 80 00 FB 09 03 04 00  00 10 03 05 00 15 80 9D  ................
0960: 0A 73 15 02 10 26 80 1E  80 D4 03 15 80 02 10 9D  .s...&..........
0970: 0A 73 15 03 10 27 80 1E  80 D4 03 00 80 03 10 9D  .s...'..........
0980: 0A 73 15 04 10 28 80 1E  80 D4 03 22 80 04 10 9D  .s...(....."....
0990: 0A 73 15 05 10 29 80 1E  80 D4 03 16 80 05 10 9D  .s...)..........
09A0: 0A 73 15 06 10 2A 80 1E  80 D4 03 2B 80 06 10 D4  .s...*.....+....
09B0: 02 2C 80 05 00 15 80 25  02 00 10 26 80 00 C6 09  .,.....%...&....
09C0: 01 79 02 01 F8 09 03 05  00 00 10 9D 0A 13 14 0B  .y..............
09D0: 00 00 10 26 80 03 02 10  0B 00 93 02 10 9D 0A 73  ...&...........s
09E0: 15 03 10 00 10 1E 80 9D  0A 23 14 04 10 00 10 26  .........#.....&
09F0: 80 1D 2D 80 23 01 5F 09  01 01 12 02 00 10 2E 80  ..-.#._.........
0A00: 00 A9 0A 03 04 00 00 10  03 05 00 15 80 9D 0A 93  ................
0A10: 15 02 10 26 80 1E 80 D4  03 15 80 02 10 9D 0A 93  ...&............
0A20: 15 03 10 27 80 1E 80 D4  03 00 80 03 10 9D 0A 93  ...'............
0A30: 15 04 10 28 80 1E 80 D4  03 22 80 04 10 9D 0A 93  ...(....."......
0A40: 15 05 10 29 80 1E 80 D4  03 16 80 05 10 9D 0A 93  ...)............
0A50: 15 06 10 2A 80 1E 80 D4  03 2B 80 06 10 D4 02 2C  ...*.....+.....,
0A60: 80 05 00 15 80 25 02 00  10 26 80 00 74 0A 01 79  .....%...&..t..y
0A70: 02 01 A6 0A 03 05 00 00  10 9D 0A 13 14 0B 00 00  ................
0A80: 10 26 80 03 02 10 0B 00  93 02 10 9D 0A 93 15 03  .&..............
0A90: 10 00 10 1E 80 9D 0A 23  14 04 10 00 10 26 80 1D  .......#.....&..
0AA0: 2D 80 23 01 0D 0A 01 01  12 02 00 10 2F 80 00 57  -.#........./..W
0AB0: 0B 03 04 00 00 10 03 05  00 15 80 9D 0A B3 15 02  ................
0AC0: 10 26 80 1E 80 D4 03 15  80 02 10 9D 0A B3 15 03  .&..............
0AD0: 10 27 80 1E 80 D4 03 00  80 03 10 9D 0A B3 15 04  .'..............
0AE0: 10 28 80 1E 80 D4 03 22  80 04 10 9D 0A B3 15 05  .(....."........
0AF0: 10 29 80 1E 80 D4 03 16  80 05 10 9D 0A B3 15 06  .)..............
0B00: 10 2A 80 1E 80 D4 03 2B  80 06 10 D4 02 2C 80 05  .*.....+.....,..
0B10: 00 15 80 25 02 00 10 26  80 00 22 0B 01 79 02 01  ...%...&.."..y..
0B20: 54 0B 03 05 00 00 10 9D  0A 13 14 0B 00 00 10 26  T..............&
0B30: 80 03 02 10 0B 00 93 02  10 9D 0A B3 15 03 10 00  ................
0B40: 10 1E 80 9D 0A 23 14 04  10 00 10 26 80 1D 2D 80  .....#.....&..-.
0B50: 23 01 BB 0A 01 01 12 02  00 10 30 80 00 05 0C 03  #.........0.....
0B60: 04 00 00 10 03 05 00 15  80 9D 0A D3 15 02 10 26  ...............&
0B70: 80 1E 80 D4 03 15 80 02  10 9D 0A D3 15 03 10 27  ...............'
0B80: 80 1E 80 D4 03 00 80 03  10 9D 0A D3 15 04 10 28  ...............(
0B90: 80 1E 80 D4 03 22 80 04  10 9D 0A D3 15 05 10 29  .....".........)
0BA0: 80 1E 80 D4 03 16 80 05  10 9D 0A D3 15 06 10 2A  ...............*
0BB0: 80 1E 80 D4 03 2B 80 06  10 D4 02 2C 80 05 00 15  .....+.....,....
0BC0: 80 25 02 00 10 26 80 00  D0 0B 01 79 02 01 02 0C  .%...&.....y....
0BD0: 03 05 00 00 10 9D 0A 13  14 0B 00 00 10 26 80 03  .............&..
0BE0: 02 10 0B 00 93 02 10 9D  0A D3 15 03 10 00 10 1E  ................
0BF0: 80 9D 0A 23 14 04 10 00  10 26 80 1D 2D 80 23 01  ...#.....&..-.#.
0C00: 69 0B 01 01 12 02 00 10  31 80 00 B3 0C 03 04 00  i.......1.......
0C10: 00 10 03 05 00 15 80 9D  0A F3 15 02 10 26 80 1E  .............&..
0C20: 80 D4 03 15 80 02 10 9D  0A F3 15 03 10 27 80 1E  .............'..
0C30: 80 D4 03 00 80 03 10 9D  0A F3 15 04 10 28 80 1E  .............(..
0C40: 80 D4 03 22 80 04 10 9D  0A F3 15 05 10 29 80 1E  ...".........)..
0C50: 80 D4 03 16 80 05 10 9D  0A F3 15 06 10 2A 80 1E  .............*..
0C60: 80 D4 03 2B 80 06 10 D4  02 2C 80 05 00 15 80 25  ...+.....,.....%
0C70: 02 00 10 26 80 00 7E 0C  01 79 02 01 B0 0C 03 05  ...&..~..y......
0C80: 00 00 10 9D 0A 13 14 0B  00 00 10 26 80 03 02 10  ...........&....
0C90: 0B 00 93 02 10 9D 0A F3  15 03 10 00 10 1E 80 9D  ................
0CA0: 0A 23 14 04 10 00 10 26  80 1D 2D 80 23 01 17 0C  .#.....&..-.#...
0CB0: 01 01 12 02 00 10 32 80  00 61 0D 03 04 00 00 10  ......2..a......
0CC0: 03 05 00 15 80 9D 0A 13  16 02 10 26 80 1E 80 D4  ...........&....
0CD0: 03 15 80 02 10 9D 0A 13  16 03 10 27 80 1E 80 D4  ...........'....
0CE0: 03 00 80 03 10 9D 0A 13  16 04 10 28 80 1E 80 D4  ...........(....
0CF0: 03 22 80 04 10 9D 0A 13  16 05 10 29 80 1E 80 D4  .".........)....
0D00: 03 16 80 05 10 9D 0A 13  16 06 10 2A 80 1E 80 D4  ...........*....
0D10: 03 2B 80 06 10 D4 02 2C  80 05 00 15 80 25 02 00  .+.....,.....%..
0D20: 10 26 80 00 2C 0D 01 79  02 01 5E 0D 03 05 00 00  .&..,..y..^.....
0D30: 10 9D 0A 13 14 0B 00 00  10 26 80 03 02 10 0B 00  .........&......
0D40: 93 02 10 9D 0A 13 16 03  10 00 10 1E 80 9D 0A 23  ...............#
0D50: 14 04 10 00 10 26 80 1D  2D 80 23 01 C5 0C 01 01  .....&..-.#.....
0D60: 12 02 00 10 1F 80 00 0F  0E 03 04 00 00 10 03 05  ................
0D70: 00 15 80 9D 0A 33 16 02  10 26 80 1E 80 D4 03 15  .....3...&......
0D80: 80 02 10 9D 0A 33 16 03  10 27 80 1E 80 D4 03 00  .....3...'......
0D90: 80 03 10 9D 0A 33 16 04  10 28 80 1E 80 D4 03 22  .....3...(....."
0DA0: 80 04 10 9D 0A 33 16 05  10 29 80 1E 80 D4 03 16  .....3...)......
0DB0: 80 05 10 9D 0A 33 16 06  10 2A 80 1E 80 D4 03 2B  .....3...*.....+
0DC0: 80 06 10 D4 02 2C 80 05  00 15 80 25 02 00 10 26  .....,.....%...&
0DD0: 80 00 DA 0D 01 79 02 01  0C 0E 03 05 00 00 10 9D  .....y..........
0DE0: 0A 13 14 0B 00 00 10 26  80 03 02 10 0B 00 93 02  .......&........
0DF0: 10 9D 0A 33 16 03 10 00  10 1E 80 9D 0A 23 14 04  ...3.........#..
0E00: 10 00 10 26 80 1D 2D 80  23 01 73 0D 01 01 12 02  ...&..-.#.s.....
0E10: 00 10 33 80 00 BD 0E 03  04 00 00 10 03 05 00 15  ..3.............
0E20: 80 9D 0A 53 16 02 10 26  80 1E 80 D4 03 15 80 02  ...S...&........
0E30: 10 9D 0A 53 16 03 10 27  80 1E 80 D4 03 00 80 03  ...S...'........
0E40: 10 9D 0A 53 16 04 10 28  80 1E 80 D4 03 22 80 04  ...S...(....."..
0E50: 10 9D 0A 53 16 05 10 29  80 1E 80 D4 03 16 80 05  ...S...)........
0E60: 10 9D 0A 53 16 06 10 2A  80 1E 80 D4 03 2B 80 06  ...S...*.....+..
0E70: 10 D4 02 2C 80 05 00 15  80 25 02 00 10 26 80 00  ...,.....%...&..
0E80: 88 0E 01 79 02 01 BA 0E  03 05 00 00 10 9D 0A 13  ...y............
0E90: 14 0B 00 00 10 26 80 03  02 10 0B 00 93 02 10 9D  .....&..........
0EA0: 0A 53 16 03 10 00 10 1E  80 9D 0A 23 14 04 10 00  .S.........#....
0EB0: 10 26 80 1D 2D 80 23 01  21 0E 01 01 12 02 00 10  .&..-.#.!.......
0EC0: 34 80 00 E9 0F 03 04 00  00 10 03 05 00 15 80 03  4...............
0ED0: 01 10 26 80 43 00 43 01  03 0C 00 02 10 02 0C 00  ..&.C.C.........
0EE0: 15 80 00 38 0F 9D 0A 73  16 02 10 26 80 1E 80 D4  ...8...s...&....
0EF0: 03 15 80 02 10 9D 0A 73  16 03 10 27 80 1E 80 D4  .......s...'....
0F00: 03 00 80 03 10 9D 0A 73  16 04 10 28 80 1E 80 D4  .......s...(....
0F10: 03 22 80 04 10 9D 0A 73  16 05 10 29 80 1E 80 D4  .".....s...)....
0F20: 03 16 80 05 10 9D 0A 73  16 06 10 2A 80 1E 80 D4  .......s...*....
0F30: 03 2B 80 06 10 01 88 0F  9D 0A 93 16 02 10 26 80  .+............&.
0F40: 1E 80 D4 03 15 80 02 10  9D 0A 93 16 03 10 27 80  ..............'.
0F50: 1E 80 D4 03 00 80 03 10  9D 0A 93 16 04 10 28 80  ..............(.
0F60: 1E 80 D4 03 22 80 04 10  9D 0A 93 16 05 10 29 80  ....".........).
0F70: 1E 80 D4 03 16 80 05 10  9D 0A 93 16 06 10 2A 80  ..............*.
0F80: 1E 80 D4 03 2B 80 06 10  D4 02 2C 80 05 00 15 80  ....+.....,.....
0F90: 25 02 00 10 26 80 00 9F  0F 01 79 02 01 E6 0F 03  %...&.....y.....
0FA0: 05 00 00 10 9D 0A 13 14  0B 00 00 10 26 80 03 02  ............&...
0FB0: 10 0B 00 93 02 10 02 0C  00 15 80 00 CB 0F 9D 0A  ................
0FC0: 73 16 03 10 00 10 1E 80  01 D5 0F 9D 0A 93 16 03  s...............
0FD0: 10 00 10 1E 80 9D 0A 23  14 04 10 00 10 26 80 1D  .......#.....&..
0FE0: 2D 80 23 01 DD 0E 01 01  12 02 00 10 35 80 00 97  -.#.........5...
0FF0: 10 03 04 00 00 10 03 05  00 15 80 9D 0A B3 16 02  ................
1000: 10 26 80 1E 80 D4 03 15  80 02 10 9D 0A B3 16 03  .&..............
1010: 10 27 80 1E 80 D4 03 00  80 03 10 9D 0A B3 16 04  .'..............
1020: 10 28 80 1E 80 D4 03 22  80 04 10 9D 0A B3 16 05  .(....."........
1030: 10 29 80 1E 80 D4 03 16  80 05 10 9D 0A B3 16 06  .)..............
1040: 10 2A 80 1E 80 D4 03 2B  80 06 10 D4 02 2C 80 05  .*.....+.....,..
1050: 00 15 80 25 02 00 10 26  80 00 62 10 01 79 02 01  ...%...&..b..y..
1060: 94 10 03 05 00 00 10 9D  0A 13 14 0B 00 00 10 26  ...............&
1070: 80 03 02 10 0B 00 93 02  10 9D 0A B3 16 03 10 00  ................
1080: 10 1E 80 9D 0A 23 14 04  10 00 10 26 80 1D 2D 80  .....#.....&..-.
1090: 23 01 FB 0F 01 01 12 02  00 10 36 80 00 45 11 03  #.........6..E..
10A0: 04 00 00 10 03 05 00 15  80 9D 0A D3 16 02 10 26  ...............&
10B0: 80 1E 80 D4 03 15 80 02  10 9D 0A D3 16 03 10 27  ...............'
10C0: 80 1E 80 D4 03 00 80 03  10 9D 0A D3 16 04 10 28  ...............(
10D0: 80 1E 80 D4 03 22 80 04  10 9D 0A D3 16 05 10 29  .....".........)
10E0: 80 1E 80 D4 03 16 80 05  10 9D 0A D3 16 06 10 2A  ...............*
10F0: 80 1E 80 D4 03 2B 80 06  10 D4 02 2C 80 05 00 15  .....+.....,....
1100: 80 25 02 00 10 26 80 00  10 11 01 79 02 01 42 11  .%...&.....y..B.
1110: 03 05 00 00 10 9D 0A 13  14 0B 00 00 10 26 80 03  .............&..
1120: 02 10 0B 00 93 02 10 9D  0A D3 16 03 10 00 10 1E  ................
1130: 80 9D 0A 23 14 04 10 00  10 26 80 1D 2D 80 23 01  ...#.....&..-.#.
1140: A9 10 01 01 12 02 00 10  37 80 00 F3 11 03 04 00  ........7.......
1150: 00 10 03 05 00 15 80 9D  0A F3 16 02 10 26 80 1E  .............&..
1160: 80 D4 03 15 80 02 10 9D  0A F3 16 03 10 27 80 1E  .............'..
1170: 80 D4 03 00 80 03 10 9D  0A F3 16 04 10 28 80 1E  .............(..
1180: 80 D4 03 22 80 04 10 9D  0A F3 16 05 10 29 80 1E  ...".........)..
1190: 80 D4 03 16 80 05 10 9D  0A F3 16 06 10 2A 80 1E  .............*..
11A0: 80 D4 03 2B 80 06 10 D4  02 2C 80 05 00 15 80 25  ...+.....,.....%
11B0: 02 00 10 26 80 00 BE 11  01 79 02 01 F0 11 03 05  ...&.....y......
11C0: 00 00 10 9D 0A 13 14 0B  00 00 10 26 80 03 02 10  ...........&....
11D0: 0B 00 93 02 10 9D 0A F3  16 03 10 00 10 1E 80 9D  ................
11E0: 0A 23 14 04 10 00 10 26  80 1D 2D 80 23 01 57 11  .#.....&..-.#.W.
11F0: 01 01 12 02 00 10 38 80  00 01 12 01 E0 00 01 01  ......8.........
1200: 12 01 E0 00 01 0F 14 02  00 10 2B 80 00 1A 12 03  ..........+.....
1210: 03 00 00 10 01 79 02 01  0F 14 02 00 10 26 80 00  .....y.......&..
1220: 63 12 03 03 00 00 10 03  01 10 2B 80 43 00 43 01  c.........+.C.C.
1230: 02 02 10 15 80 00 3B 12  01 3F 12 1D 39 80 23 02  ......;..?..9.#.
1240: 04 10 15 80 00 4A 12 01  4E 12 1D 3A 80 23 02 06  .....J..N..:.#..
1250: 10 15 80 00 59 12 01 5D  12 1D 3B 80 23 01 E0 00  ....Y..]..;.#...
1260: 01 0F 14 02 00 10 27 80  00 0B 13 03 03 00 00 10  ......'.........
1270: 3C 08 00 22 80 00 80 24  3C 80 06 00 08 00 25 02  <.."...$<.....%.
1280: 00 10 15 80 00 AF 12 03  06 00 00 10 1D 3D 80 23  .............=.#
1290: 1D 3E 80 23 1D 3F 80 23  1D 40 80 23 03 02 10 16  .>.#.?.#.@.#....
12A0: 80 1D 41 80 23 1D 42 80  23 01 70 12 01 08 13 02  ..A.#.B.#.p.....
12B0: 00 10 00 80 00 E7 12 03  06 00 00 10 1D 43 80 23  .............C.#
12C0: 1D 44 80 23 1D 3F 80 23  1D 45 80 23 1D 46 80 23  .D.#.?.#.E.#.F.#
12D0: 1D 47 80 23 03 02 10 26  80 1D 41 80 23 1D 42 80  .G.#...&..A.#.B.
12E0: 23 01 70 12 01 08 13 02  00 10 22 80 00 FA 12 03  #.p.......".....
12F0: 06 00 00 10 01 70 12 01  08 13 02 00 10 16 80 00  .....p..........
1300: 08 13 01 E0 00 01 08 13  01 0F 14 02 00 10 28 80  ..............(.
1310: 00 2B 13 03 03 00 00 10  03 01 10 27 80 43 00 43  .+.........'.C.C
1320: 01 1D 48 80 23 01 E0 00  01 0F 14 02 00 10 29 80  ..H.#.........).
1330: 00 4F 13 03 03 00 00 10  03 02 10 1A 80 1D 49 80  .O............I.
1340: 23 1D 4A 80 23 1D 4B 80  23 01 E0 00 01 0F 14 02  #.J.#.K.#.......
1350: 00 10 2A 80 00 AD 13 03  03 00 00 10 03 01 10 28  ..*............(
1360: 80 43 00 43 01 03 0F 00  02 10 03 01 10 29 80 43  .C.C.........).C
1370: 00 43 01 03 01 10 2A 80  43 00 43 01 03 01 10 1E  .C....*.C.C.....
1380: 80 43 00 43 01 02 0F 00  26 80 04 96 13 03 01 10  .C.C....&.......
1390: 2E 80 43 00 43 01 02 0F  00 27 80 04 A7 13 03 01  ..C.C....'......
13A0: 10 2F 80 43 00 43 01 01  E0 00 01 0F 14 02 00 10  ./.C.C..........
13B0: 1E 80 00 E4 13 03 03 00  00 10 03 02 10 0D 00 03  ................
13C0: 03 10 4C 80 03 04 10 1A  80 1D 4D 80 23 1D 4E 80  ..L.......M.#.N.
13D0: 23 1D 4F 80 23 03 05 10  0E 00 1D 50 80 23 01 E0  #.O.#......P.#..
13E0: 00 01 0F 14 02 00 10 2E  80 00 FF 13 03 03 00 00  ................
13F0: 10 1D 51 80 23 1D 52 80  23 01 E0 00 01 0F 14 02  ..Q.#.R.#.......
1400: 00 10 2F 80 00 0F 14 03  01 10 15 80 01 0F 14 2E  ../.............
1410: 20 00 21 02 10 03 10 04  10 05 10 06 10 15 80 15   .!.............
1420: 80 15 80 53 80 54 80 55  80 56 80 1A 80 15 80 15  ...S.T.U.V......
1430: 80 15 80 57 80 58 80 59  80 5A 80 5B 80 5C 80 5D  ...W.X.Y.Z.[.\.]
1440: 80 5E 80 5F 80 60 80 15  80 15 80 15 80 15 80 15  .^._.`..........
1450: 80 15 80 61 80 62 80 63  80 64 80 65 80 66 80 67  ...a.b.c.d.e.f.g
1460: 80 68 80 69 80 6A 80 15  80 15 80 15 80 15 80 15  .h.i.j..........
1470: 80 15 80 6B 80 6C 80 6D  80 6E 80 6F 80 70 80 71  ...k.l.m.n.o.p.q
1480: 80 72 80 73 80 74 80 15  80 15 80 15 80 15 80 15  .r.s.t..........
1490: 80 15 80 75 80 76 80 77  80 78 80 79 80 7A 80 7B  ...u.v.w.x.y.z.{
14A0: 80 7C 80 7D 80 7E 80 15  80 15 80 15 80 15 80 15  .|.}.~..........
14B0: 80 15 80 7F 80 80 80 81  80 82 80 83 80 84 80 85  ................
14C0: 80 86 80 87 80 88 80 15  80 15 80 15 80 15 80 15  ................
14D0: 80 15 80 89 80 8A 80 8B  80 8C 80 8D 80 8E 80 8F  ................
14E0: 80 90 80 91 80 92 80 15  80 15 80 15 80 15 80 15  ................
14F0: 80 15 80 93 80 94 80 95  80 96 80 97 80 98 80 99  ................
1500: 80 9A 80 9B 80 9C 80 15  80 15 80 15 80 15 80 15  ................
1510: 80 15 80 9D 80 9E 80 9F  80 A0 80 A1 80 A2 80 A3  ................
1520: 80 A4 80 A5 80 A6 80 15  80 15 80 15 80 15 80 15  ................
1530: 80 15 80 A7 80 A8 80 A9  80 AA 80 AB 80 AC 80 AD  ................
1540: 80 AE 80 AF 80 B0 80 15  80 15 80 15 80 15 80 15  ................
1550: 80 15 80 B1 80 B2 80 B3  80 B4 80 B5 80 B6 80 B7  ................
1560: 80 B8 80 B9 80 BA 80 15  80 15 80 15 80 15 80 15  ................
1570: 80 15 80 BB 80 BC 80 BD  80 BE 80 BF 80 C0 80 C1  ................
1580: 80 C2 80 C3 80 C4 80 15  80 15 80 15 80 15 80 15  ................
1590: 80 15 80 C5 80 C6 80 C7  80 C8 80 C9 80 CA 80 CB  ................
15A0: 80 CC 80 CD 80 CE 80 15  80 15 80 15 80 15 80 15  ................
15B0: 80 15 80 CF 80 D0 80 D1  80 D2 80 D3 80 D4 80 D5  ................
15C0: 80 D6 80 D7 80 D8 80 15  80 15 80 15 80 15 80 15  ................
15D0: 80 15 80 D9 80 DA 80 DB  80 DC 80 DD 80 DE 80 DF  ................
15E0: 80 E0 80 E1 80 E2 80 15  80 15 80 15 80 15 80 15  ................
15F0: 80 15 80 E3 80 E4 80 E5  80 E6 80 E7 80 E8 80 E9  ................
1600: 80 EA 80 EB 80 EC 80 15  80 15 80 15 80 15 80 15  ................
1610: 80 15 80 ED 80 EE 80 EF  80 F0 80 F1 80 F2 80 F3  ................
1620: 80 F4 80 F5 80 F6 80 15  80 15 80 15 80 15 80 15  ................
1630: 80 15 80 F7 80 F8 80 F9  80 FA 80 FB 80 FC 80 FD  ................
1640: 80 FE 80 FF 80 00 81 15  80 15 80 15 80 15 80 15  ................
1650: 80 15 80 01 81 02 81 03  81 04 81 05 81 06 81 07  ................
1660: 81 08 81 09 81 0A 81 15  80 15 80 15 80 15 80 15  ................
1670: 80 15 80 0B 81 0C 81 0D  81 0E 81 0F 81 10 81 11  ................
1680: 81 12 81 13 81 14 81 15  80 15 80 15 80 15 80 15  ................
1690: 80 15 80 15 81 16 81 17  81 18 81 19 81 1A 81 1B  ................
16A0: 81 1C 81 1D 81 1E 81 15  80 15 80 15 80 15 80 15  ................
16B0: 80 15 80 1F 81 20 81 21  81 22 81 23 81 24 81 25  ..... .!.".#.$.%
16C0: 81 26 81 27 81 28 81 15  80 15 80 15 80 15 80 15  .&.'.(..........
16D0: 80 15 80 29 81 2A 81 2B  81 2C 81 2D 81 2E 81 2F  ...).*.+.,.-.../
16E0: 81 30 81 31 81 32 81 15  80 15 80 15 80 15 80 15  .0.1.2..........
16F0: 80 15 80 33 81 34 81 35  81 36 81 37 81 38 81 39  ...3.4.5.6.7.8.9
1700: 81 3A 81 3B 81 3C 81 15  80 15 80 15 80 15 80 15  .:.;.<..........
1710: 80 15 80 00                                       ....            
```

#### Opcodes

```
  0: 0x00B5 [0x03] ExtData[1]->WorkLocal[7] = Work_Zone[2]
  1: 0x00BA [0x03] ExtData[1]->WorkLocal[13] = Work_Zone[3]
  2: 0x00BF [0x03] ExtData[1]->WorkLocal[14] = Work_Zone[4]
  3: 0x00C4 [0x1E] EventEntity looks at LocalPlayer and starts talking
  4: 0x00C9 [0x1C] WAIT(1* ticks)
  5: 0x00CC [0x03] ExtData[1]->WorkLocal[3] = 0*
  6: 0x00D1 [0x03] ExtData[1]->WorkLocal[4] = 0*
  7: 0x00D6 [0x03] ExtData[1]->WorkLocal[5] = 0*
  8: 0x00DB [0x03] ExtData[1]->WorkLocal[6] = 0*
  9: 0x00E0 [0x03] Work_Zone[2] = 10000*
 10: 0x00E5 [0x03] Work_Zone[3] = ExtData[1]->WorkLocal[13]
 11: 0x00EA [0x24] CREATE_DIALOG(message_id=7269*, default_option=ExtData[1]->WorkLocal[3], option_flags=ExtData[1]->WorkLocal[7])
    → "Inquire about what? [Level settings./Apollyon./Apollyon Units./The Apollyon Furnace./Equipment list./Grace./Notorious monsters./Treasure coffer timings./%./CN Opening.$1./Reforging.@/Nothing for now.]"
 12: 0x00F1 [0x25] WAIT_DIALOG_SELECT()
 13: 0x00F2 [0x02] IF !(Work_Zone[0] == 0*) GOTO 0x020C
 14: 0x00FA [0x03] ExtData[1]->WorkLocal[3] = Work_Zone[0]
 15: 0x00FF [0x03] Work_Zone[1] = 1*
 16: 0x0104 [0x43] SEND_EVENT_UPDATE: Send pending tag to server (packet 0x005B)
 17: 0x0106 [0x43] SEND_EVENT_UPDATE: Check pending flag (skip if not pending)
 18: 0x0108 [0x03] ExtData[1]->WorkLocal[0] = Work_Zone[2]
 19: 0x010D [0x03] ExtData[1]->WorkLocal[1] = Work_Zone[3]
 20: 0x0112 [0x07] ExtData[1]->WorkLocal[0] += 118*
 21: 0x0117 [0x03] Work_Zone[2] = 351*
 22: 0x011C [0x03] Work_Zone[3] = 135*
 23: 0x0121 [0x1D] PRINT_EVENT_MESSAGE(message_id=7261*)
    → "Enter a level value between 119 and $1 to be recorded in your $3."
 24: 0x0124 [0x23] WAIT_FOR_DIALOG_INTERACTION
 25: 0x0125 [0x48] [System] [7263*]:
    → "Enter 0 to cancel."
 26: 0x0128 [0x02] IF !(ExtData[1]->WorkLocal[1] == 0*) GOTO 0x0133
 27: 0x0130 [0x01] GOTO 0x0136
 28: 0x0133 [0x48] [System] [7265*]:
    → "Increasing the level will reset your progress."

SUBROUTINE_0136:
 29: 0x0136 [0x03] Work_Zone[1] = 0*
 30: 0x013B [0x71] USER_INPUT_HANDLER: Open numerical input with params (work=[1*, 3*])
 31: 0x0141 [0x71] USER_INPUT_HANDLER: Process numerical input B (work=ExtData[1]->WorkLocal[2])
 32: 0x0145 [0x02] IF !(ExtData[1]->WorkLocal[2] == 0*) GOTO 0x0150
 33: 0x014D [0x01] GOTO 0x0209
 34: 0x0150 [0x02] IF !(ExtData[1]->WorkLocal[2] < 119*) GOTO 0x0206
 35: 0x0158 [0x02] IF !(ExtData[1]->WorkLocal[2] > 135*) GOTO 0x0200
 36: 0x0160 [0x42] SET_CLI_EVENT_CANCEL_DATA()
 37: 0x0161 [0x02] IF !(ExtData[1]->WorkLocal[1] == 0*) GOTO 0x018C
 38: 0x0169 [0x03] Work_Zone[2] = 351*
 39: 0x016E [0x03] Work_Zone[3] = ExtData[1]->WorkLocal[2]
 40: 0x0173 [0x40] SET_BIT_WORK_RANGE(start_bit=0*, end_bit=10*, target=Work_Zone[1], source=1*)
 41: 0x017C [0x40] SET_BIT_WORK_RANGE(start_bit=16*, end_bit=31*, target=Work_Zone[1], source=ExtData[1]->WorkLocal[2])
 42: 0x0185 [0x1D] PRINT_EVENT_MESSAGE(message_id=7262*)
    → ""$1" has been recorded in your $3."
 43: 0x0188 [0x23] WAIT_FOR_DIALOG_INTERACTION
 44: 0x0189 [0x01] GOTO 0x01FD
 45: 0x018C [0x02] IF !(ExtData[1]->WorkLocal[2] <= ExtData[1]->WorkLocal[0]) GOTO 0x01DD
 46: 0x0194 [0x48] [System] [7265*]:
    → "Increasing the level will reset your progress."
 47: 0x0197 [0x24] CREATE_DIALOG(message_id=7266*, default_option=1*, option_flags=0*)
    → "What will you do? [Change level and reset./Never mind.]"
 48: 0x019E [0x25] WAIT_DIALOG_SELECT()
 49: 0x019F [0x02] IF !(Work_Zone[0] == 0*) GOTO 0x01CA
 50: 0x01A7 [0x03] Work_Zone[2] = 351*
 51: 0x01AC [0x03] Work_Zone[3] = ExtData[1]->WorkLocal[2]
 52: 0x01B1 [0x40] SET_BIT_WORK_RANGE(start_bit=0*, end_bit=10*, target=Work_Zone[1], source=1*)
 53: 0x01BA [0x40] SET_BIT_WORK_RANGE(start_bit=16*, end_bit=31*, target=Work_Zone[1], source=ExtData[1]->WorkLocal[2])
 54: 0x01C3 [0x1D] PRINT_EVENT_MESSAGE(message_id=7262*)
    → ""$1" has been recorded in your $3."
 55: 0x01C6 [0x23] WAIT_FOR_DIALOG_INTERACTION
 56: 0x01C7 [0x01] GOTO 0x01DA
 57: 0x01CA [0x02] IF !(Work_Zone[0] == 1*) GOTO 0x01DA
 58: 0x01D2 [0x03] Work_Zone[1] = 0*
 59: 0x01D7 [0x01] GOTO 0x01DA

SUBROUTINE_01DA:
 60: 0x01DA [0x01] GOTO 0x01FD
 61: 0x01DD [0x03] Work_Zone[2] = 351*
 62: 0x01E2 [0x03] Work_Zone[3] = ExtData[1]->WorkLocal[2]
 63: 0x01E7 [0x40] SET_BIT_WORK_RANGE(start_bit=0*, end_bit=10*, target=Work_Zone[1], source=1*)
 64: 0x01F0 [0x40] SET_BIT_WORK_RANGE(start_bit=16*, end_bit=31*, target=Work_Zone[1], source=ExtData[1]->WorkLocal[2])
 65: 0x01F9 [0x1D] PRINT_EVENT_MESSAGE(message_id=7262*)
    → ""$1" has been recorded in your $3."
 66: 0x01FC [0x23] WAIT_FOR_DIALOG_INTERACTION

SUBROUTINE_01FD:
 67: 0x01FD [0x01] GOTO 0x0203
 68: 0x0200 [0x01] GOTO 0x0117

SUBROUTINE_0203:
 69: 0x0203 [0x01] GOTO 0x0209
 70: 0x0206 [0x01] GOTO 0x0117

SUBROUTINE_0209:
 71: 0x0209 [0x01] GOTO 0x140F
 72: 0x020C [0x02] IF !(Work_Zone[0] == 1*) GOTO 0x0248
 73: 0x0214 [0x03] ExtData[1]->WorkLocal[3] = Work_Zone[0]
 74: 0x0219 [0x03] Work_Zone[2] = 351*
 75: 0x021E [0x1D] PRINT_EVENT_MESSAGE(message_id=7247*)
    → "Welcome to Apollyon. This place is designed for the generation of new life-forms."
 76: 0x0221 [0x23] WAIT_FOR_DIALOG_INTERACTION
 77: 0x0222 [0x1D] PRINT_EVENT_MESSAGE(message_id=7248*)
    → "NW/SW/NE/SE areas contain monsters for recording data in your $3."
 78: 0x0225 [0x23] WAIT_FOR_DIALOG_INTERACTION
 79: 0x0226 [0x1D] PRINT_EVENT_MESSAGE(message_id=7249*)
    → "Successfully recording data will permit you to open Apollyon Coffers."
 80: 0x0229 [0x23] WAIT_FOR_DIALOG_INTERACTION
 81: 0x022A [0x1D] PRINT_EVENT_MESSAGE(message_id=7250*)
    → "You will also be authorized to collect a special currency called Apollyon Units."
 82: 0x022D [0x23] WAIT_FOR_DIALOG_INTERACTION
 83: 0x022E [0x1D] PRINT_EVENT_MESSAGE(message_id=7251*)
    → "Systems are only capable of recording data for each registrant up to five times per week (Earth time)."
 84: 0x0231 [0x23] WAIT_FOR_DIALOG_INTERACTION
 85: 0x0232 [0x1D] PRINT_EVENT_MESSAGE(message_id=7252*)
    → "Apollyon Units can be used in the Apollyon Furnace."
 86: 0x0235 [0x23] WAIT_FOR_DIALOG_INTERACTION
 87: 0x0236 [0x1D] PRINT_EVENT_MESSAGE(message_id=7253*)
    → "Please use it to your advantage."
 88: 0x0239 [0x23] WAIT_FOR_DIALOG_INTERACTION
 89: 0x023A [0x1D] PRINT_EVENT_MESSAGE(message_id=7254*)
    → "Special Limbus buffs known as Grace are also available to those who have deposited a sufficient amount of currency."
 90: 0x023D [0x23] WAIT_FOR_DIALOG_INTERACTION
 91: 0x023E [0x1D] PRINT_EVENT_MESSAGE(message_id=7255*)
    → "The more data, the stronger the Grace."
 92: 0x0241 [0x23] WAIT_FOR_DIALOG_INTERACTION
 93: 0x0242 [0x01] GOTO 0x00E0

SUBROUTINE_0279:
 94: 0x0279 [0x24] CREATE_DIALOG(message_id=7272*, default_option=ExtData[1]->WorkLocal[4], option_flags=0*)
    → "Inquire about which? [Pummeler's Armor./Anchorite Attire./Theophany Attire./Spaekona's Attire./Atrophy Armor./Pillager's Attire./Reverence Armor./Ignominy Armor./Totemic Armor./Brioso Attire./Orion Attire./Wakido Armor./Hachiya Armor./Vishap Armor./Convoker's Attire./Assimilator's Attire./Laksamana Attire./Foire Attire./Maxixi Attire./Academic's Attire./Geomancy Attire./Runeist Attire./Nothing for now.]"
 95: 0x0280 [0x25] WAIT_DIALOG_SELECT()
 96: 0x0281 [0x02] IF !(Work_Zone[0] == 0*) GOTO 0x032F
 97: 0x0289 [0x03] ExtData[1]->WorkLocal[4] = Work_Zone[0]
 98: 0x028E [0x03] ExtData[1]->WorkLocal[5] = 0*
 99: 0x0293 [0x9D] IF (0x1433) 5* = Work_Zone[2] // extra=0x801E
100: 0x029D [0xD4] MAP_QUERY_WINDOW: Prepare buffer configuration A (buffer=[15 80 02 10 9D 0A 33 14...])
101: 0x02BB [0x1E] EventEntity looks at Unknown NPC (ID: 570676352/0x2203D480) and starts talking
102: 0x02C0 [0x80] LOAD_WAIT(entity=Unknown NPC (ID: 178065412/0x0A9D1004))
103: 0x02C5 [0x33] EventEntity->Render.Flags0 &= ~ 0x200000 // Bit 21 (flag=0x14)
104: 0x02C7 [0x05] 0x2910 = 1
105: 0x02CA [0x80] LOAD_WAIT(entity=Unknown NPC (ID: 64258078/0x03D4801E))
106: 0x02CF [0x16] 0x0580 = sin(0x9D10) * 0x330A
107: 0x02D6 [0x14] Work_Zone[6] *= 9*
108: 0x02DB [0x1E] EventEntity looks at Unknown NPC (ID: 721671296/0x2B03D480) and starts talking
109: 0x02E0 [0x80] LOAD_WAIT(entity=Unknown NPC (ID: 47452166/0x02D41006))
110: 0x02E5 [0x2C] CREATE_SCHEDULER_TASK: Create scheduler 0x00802610 with entities [Unknown NPC (ID: 352322944/0x15000580), Unknown NPC (ID: 140672/0x00022580)]
111: 0x02F2 [0xFA] UNKNOWN_OPCODE_0xFA
112: 0x02F3 [0x02] IF !(0x7901 UNKNOWN_COND_12 0x0102) GOTO 0x0303
113: 0x02FB [0x05] ExtData[1]->WorkLocal[0] = 1
114: 0x02FE [0x10] 0x0A9D <<= 0x1413
115: 0x0303 [0x0B] ExtData[1]->WorkLocal[0]++
116: 0x0306 [0x10] 5* <<= 0x0203
117: 0x030B [0x10] ExtData[1]->WorkLocal[11] <<= 0x0293
118: 0x0310 [0x10] 0x0A9D <<= 0x1433
119: 0x0315 [0x03] ExtData[1]->WorkLocal[16] = 0x1E10
120: 0x031A [0x80] LOAD_WAIT(entity=Unknown NPC (ID: 337840797/0x14230A9D))
121: 0x031F [0x04] DEPRECATED_NOP(unused=0x10)
122: 0x0322 [0x10] 5* <<= 0x2D1D
123: 0x0327 [0x80] LOAD_WAIT(entity=Unknown NPC (ID: 43188515/0x02930123))
124: 0x032C [0x01] GOTO 0x1201
125: 0x032F [0x02] IF !(Work_Zone[0] == 1*) GOTO 0x03DD
126: 0x0337 [0x03] ExtData[1]->WorkLocal[4] = Work_Zone[0]
127: 0x033C [0x03] ExtData[1]->WorkLocal[5] = 0*

SUBROUTINE_0341:
128: 0x0341 [0x9D] IF (0x1453) 5* = Work_Zone[2] // extra=0x801E
129: 0x034B [0xD4] MAP_QUERY_WINDOW: Prepare buffer configuration A (buffer=[15 80 02 10 9D 0A 53 14...])
130: 0x0369 [0x1E] EventEntity looks at Unknown NPC (ID: 570676352/0x2203D480) and starts talking
131: 0x036E [0x80] LOAD_WAIT(entity=Unknown NPC (ID: 178065412/0x0A9D1004))
132: 0x0373 [0x53] WAIT_SCHEDULER_TASK: Wait for scheduler 0x05801603 with entities [Unknown NPC (ID: 688915732/0x29100514), Unknown NPC (ID: 3565166208/0xD4801E80)]
133: 0x0380 [0x10] 0x0A9D <<= 0x1453
134: 0x0385 [0x06] 0x2A10 = 0
135: 0x0388 [0x80] LOAD_WAIT(entity=Unknown NPC (ID: 64258078/0x03D4801E))
136: 0x038D [0x2B] Unknown NPC (ID: 3557820032/0xD4100680) [0x2C02]:
137: 0x0394 [0x80] LOAD_WAIT(entity=Unknown NPC (ID: 2148859909/0x80150005))
138: 0x0399 [0x25] WAIT_DIALOG_SELECT()
139: 0x039A [0x02] IF !(Work_Zone[0] == 5*) GOTO 0x03A8
140: 0x03A2 [0x01] GOTO 0x0279

SUBROUTINE_03DA:
141: 0x03DA [0x01] GOTO 0x1201
142: 0x03DD [0x02] IF !(Work_Zone[0] == 2*) GOTO 0x048B
143: 0x03E5 [0x03] ExtData[1]->WorkLocal[4] = Work_Zone[0]
144: 0x03EA [0x03] ExtData[1]->WorkLocal[5] = 0*

SUBROUTINE_03EF:
145: 0x03EF [0x9D] IF (0x1473) 5* = Work_Zone[2] // extra=0x801E
146: 0x03F9 [0xD4] MAP_QUERY_WINDOW: Prepare buffer configuration A (buffer=[15 80 02 10 9D 0A 73 14...])
147: 0x0417 [0x1E] EventEntity looks at Unknown NPC (ID: 570676352/0x2203D480) and starts talking
148: 0x041C [0x80] LOAD_WAIT(entity=Unknown NPC (ID: 178065412/0x0A9D1004))
149: 0x0421 [0x73] Unknown NPC (ID: 511715600/0x1E802910) casts magic 0x0514 on Unknown NPC (ID: 369349760/0x1603D480)
150: 0x042C [0x80] LOAD_WAIT(entity=Unknown NPC (ID: 178065413/0x0A9D1005))
151: 0x0431 [0x73] Unknown NPC (ID: 511715856/0x1E802A10) casts magic 0x0614 on Unknown NPC (ID: 721671296/0x2B03D480)
152: 0x043C [0x80] LOAD_WAIT(entity=Unknown NPC (ID: 47452166/0x02D41006))
153: 0x0441 [0x2C] CREATE_SCHEDULER_TASK: Create scheduler 0x00802610 with entities [Unknown NPC (ID: 352322944/0x15000580), Unknown NPC (ID: 140672/0x00022580)]
154: 0x044E [0x56] GET_ACTOR_INDEX_DEPRECATED(entity=0x00000104, unused_data=0x0279)
155: 0x0453 [0x01] GOTO 0x0488

SUBROUTINE_0488:
156: 0x0488 [0x01] GOTO 0x1201
157: 0x048B [0x02] IF !(Work_Zone[0] == 3*) GOTO 0x0539
158: 0x0493 [0x03] ExtData[1]->WorkLocal[4] = Work_Zone[0]
159: 0x0498 [0x03] ExtData[1]->WorkLocal[5] = 0*

SUBROUTINE_049D:
160: 0x049D [0x9D] IF (0x1493) 5* = Work_Zone[2] // extra=0x801E
161: 0x04A7 [0xD4] MAP_QUERY_WINDOW: Prepare buffer configuration A (buffer=[15 80 02 10 9D 0A 93 14...])
162: 0x04C5 [0x1E] EventEntity looks at Unknown NPC (ID: 570676352/0x2203D480) and starts talking
163: 0x04CA [0x80] LOAD_WAIT(entity=Unknown NPC (ID: 178065412/0x0A9D1004))
164: 0x04CF [0x93] DISPLAY_ITEM_INFO(item_id=0x0514)
165: 0x04D2 [0x10] 8* <<= 10*
166: 0x04D7 [0xD4] MAP_QUERY_WINDOW: Prepare buffer configuration A (buffer=[16 80 05 10 9D 0A 93 14...])
167: 0x04F5 [0x25] WAIT_DIALOG_SELECT()
168: 0x04F6 [0x02] IF !(Work_Zone[0] == 5*) GOTO 0x0504
169: 0x04FE [0x01] GOTO 0x0279

SUBROUTINE_054B:
170: 0x054B [0x9D] IF (0x14B3) 5* = Work_Zone[2] // extra=0x801E
171: 0x0555 [0xD4] MAP_QUERY_WINDOW: Prepare buffer configuration A (buffer=[15 80 02 10 9D 0A B3 14...])
172: 0x0573 [0x1E] EventEntity looks at Unknown NPC (ID: 570676352/0x2203D480) and starts talking
173: 0x0578 [0x80] LOAD_WAIT(entity=Unknown NPC (ID: 178065412/0x0A9D1004))
174: 0x057D [0xB3] RANKINGS_BOARD_HANDLER(case_type=0x14)
175: 0x057F [0x05] 0x2910 = 1
176: 0x0582 [0x80] LOAD_WAIT(entity=Unknown NPC (ID: 64258078/0x03D4801E))
177: 0x0587 [0x16] 0x0580 = sin(0x9D10) * 0xB30A
178: 0x058E [0x14] Work_Zone[6] *= 9*
179: 0x0593 [0x1E] EventEntity looks at Unknown NPC (ID: 721671296/0x2B03D480) and starts talking
180: 0x0598 [0x80] LOAD_WAIT(entity=Unknown NPC (ID: 47452166/0x02D41006))
181: 0x059D [0x2C] CREATE_SCHEDULER_TASK: Create scheduler 0x00802610 with entities [Unknown NPC (ID: 352322944/0x15000580), Unknown NPC (ID: 140672/0x00022580)]
182: 0x05AA [0xB2] DELIVERY_BOX_HANDLER(mode=0x05)
183: 0x05AC [0x01] GOTO 0x0279

SUBROUTINE_05F9:
184: 0x05F9 [0x9D] IF (0x14D3) 5* = Work_Zone[2] // extra=0x801E
185: 0x0603 [0xD4] MAP_QUERY_WINDOW: Prepare buffer configuration A (buffer=[15 80 02 10 9D 0A D3 14...])
186: 0x0621 [0x1E] EventEntity looks at Unknown NPC (ID: 570676352/0x2203D480) and starts talking
187: 0x0626 [0x80] LOAD_WAIT(entity=Unknown NPC (ID: 178065412/0x0A9D1004))
188: 0x062B [0xD3] CLEAR_ENTITY_MOTION_QUEUE(condition_flag=0x14, entity_server_id=0x80291005)
189: 0x0631 [0x1E] EventEntity looks at Unknown NPC (ID: 369349760/0x1603D480) and starts talking
190: 0x0636 [0x80] LOAD_WAIT(entity=Unknown NPC (ID: 178065413/0x0A9D1005))
191: 0x063B [0xD3] CLEAR_ENTITY_MOTION_QUEUE(condition_flag=0x14, entity_server_id=0x802A1006)
192: 0x0641 [0x1E] EventEntity looks at Unknown NPC (ID: 721671296/0x2B03D480) and starts talking
193: 0x0646 [0x80] LOAD_WAIT(entity=Unknown NPC (ID: 47452166/0x02D41006))
194: 0x064B [0x2C] CREATE_SCHEDULER_TASK: Create scheduler 0x00802610 with entities [Unknown NPC (ID: 352322944/0x15000580), Unknown NPC (ID: 140672/0x00022580)]
195: 0x0658 [0x60] ADJUST_RENDER_FLAGS1_MULTI: Deprecated mode 0x6 (no operation)
196: 0x065A [0x01] GOTO 0x0279

SUBROUTINE_06A7:
197: 0x06A7 [0x9D] IF (0x14F3) 5* = Work_Zone[2] // extra=0x801E
198: 0x06B1 [0xD4] MAP_QUERY_WINDOW: Prepare buffer configuration A (buffer=[15 80 02 10 9D 0A F3 14...])
199: 0x06CF [0x1E] EventEntity looks at Unknown NPC (ID: 570676352/0x2203D480) and starts talking
200: 0x06D4 [0x80] LOAD_WAIT(entity=Unknown NPC (ID: 178065412/0x0A9D1004))
201: 0x06D9 [0xF3] UNKNOWN_OPCODE_0xF3
202: 0x06DA [0x14] Work_Zone[5] *= 8*
203: 0x06DF [0x1E] EventEntity looks at Unknown NPC (ID: 369349760/0x1603D480) and starts talking
204: 0x06E4 [0x80] LOAD_WAIT(entity=Unknown NPC (ID: 178065413/0x0A9D1005))
205: 0x06E9 [0xF3] UNKNOWN_OPCODE_0xF3
206: 0x06EA [0x14] Work_Zone[6] *= 9*
207: 0x06EF [0x1E] EventEntity looks at Unknown NPC (ID: 721671296/0x2B03D480) and starts talking
208: 0x06F4 [0x80] LOAD_WAIT(entity=Unknown NPC (ID: 47452166/0x02D41006))
209: 0x06F9 [0x2C] CREATE_SCHEDULER_TASK: Create scheduler 0x00802610 with entities [Unknown NPC (ID: 352322944/0x15000580), Unknown NPC (ID: 140672/0x00022580)]
210: 0x0706 [0x0E] 0x0107 |= 0x0279
211: 0x070B [0x01] GOTO 0x0740

SUBROUTINE_0740:
212: 0x0740 [0x01] GOTO 0x1201
213: 0x0743 [0x02] IF !(Work_Zone[0] == 7*) GOTO 0x07F1
214: 0x074B [0x03] ExtData[1]->WorkLocal[4] = Work_Zone[0]
215: 0x0750 [0x03] ExtData[1]->WorkLocal[5] = 0*
216: 0x0755 [0x9D] IF (0x1513) 5* = Work_Zone[2] // extra=0x801E
217: 0x075F [0xD4] MAP_QUERY_WINDOW: Prepare buffer configuration A (buffer=[15 80 02 10 9D 0A 13 15...])
218: 0x077D [0x1E] EventEntity looks at Unknown NPC (ID: 570676352/0x2203D480) and starts talking
219: 0x0782 [0x80] LOAD_WAIT(entity=Unknown NPC (ID: 178065412/0x0A9D1004))
220: 0x0787 [0x13] 0x0515 = rand() % 0x2910
221: 0x078C [0x80] LOAD_WAIT(entity=Unknown NPC (ID: 64258078/0x03D4801E))
222: 0x0791 [0x16] 0x0580 = sin(0x9D10) * 0x130A
223: 0x0798 [0x15] Work_Zone[6] /= 9*
224: 0x079D [0x1E] EventEntity looks at Unknown NPC (ID: 721671296/0x2B03D480) and starts talking
225: 0x07A2 [0x80] LOAD_WAIT(entity=Unknown NPC (ID: 47452166/0x02D41006))
226: 0x07A7 [0x2C] CREATE_SCHEDULER_TASK: Create scheduler 0x00802610 with entities [Unknown NPC (ID: 352322944/0x15000580), Unknown NPC (ID: 140672/0x00022580)]
227: 0x07B4 [0xBC] WAIT_LOAD_SCHEDULER_ALT2: Wait for scheduler 0x0A9D1000 with entities [Unknown NPC (ID: 3993043577/0xEE010279), Unknown NPC (ID: 328455/0x00050307)], work=0x0107
228: 0x07C3 [0x13] 0x0B14 = rand() % ExtData[1]->WorkLocal[0]
229: 0x07C8 [0x10] 5* <<= 0x0203
230: 0x07CD [0x10] ExtData[1]->WorkLocal[11] <<= 0x0293
231: 0x07D2 [0x10] 0x0A9D <<= 0x1513
232: 0x07D7 [0x03] ExtData[1]->WorkLocal[16] = 0x1E10
233: 0x07DC [0x80] LOAD_WAIT(entity=Unknown NPC (ID: 337840797/0x14230A9D))
234: 0x07E1 [0x04] DEPRECATED_NOP(unused=0x10)
235: 0x07E4 [0x10] 5* <<= 0x2D1D
236: 0x07E9 [0x80] LOAD_WAIT(entity=Unknown NPC (ID: 123011363/0x07550123))
237: 0x07EE [0x01] GOTO 0x1201
238: 0x07F1 [0x02] IF !(Work_Zone[0] == 8*) GOTO 0x089F
239: 0x07F9 [0x03] ExtData[1]->WorkLocal[4] = Work_Zone[0]
240: 0x07FE [0x03] ExtData[1]->WorkLocal[5] = 0*
241: 0x0803 [0x9D] IF (0x1533) 5* = Work_Zone[2] // extra=0x801E
242: 0x080D [0xD4] MAP_QUERY_WINDOW: Prepare buffer configuration A (buffer=[15 80 02 10 9D 0A 33 15...])
243: 0x082B [0x1E] EventEntity looks at Unknown NPC (ID: 570676352/0x2203D480) and starts talking
244: 0x0830 [0x80] LOAD_WAIT(entity=Unknown NPC (ID: 178065412/0x0A9D1004))
245: 0x0835 [0x33] EventEntity->Render.Flags0 |= 0x200000 // Bit 21 (flag=0x15)
246: 0x0837 [0x05] 0x2910 = 1
247: 0x083A [0x80] LOAD_WAIT(entity=Unknown NPC (ID: 64258078/0x03D4801E))
248: 0x083F [0x16] 0x0580 = sin(0x9D10) * 0x330A
249: 0x0846 [0x15] Work_Zone[6] /= 9*
250: 0x084B [0x1E] EventEntity looks at Unknown NPC (ID: 721671296/0x2B03D480) and starts talking
251: 0x0850 [0x80] LOAD_WAIT(entity=Unknown NPC (ID: 47452166/0x02D41006))
252: 0x0855 [0x2C] CREATE_SCHEDULER_TASK: Create scheduler 0x00802610 with entities [Unknown NPC (ID: 352322944/0x15000580), Unknown NPC (ID: 140672/0x00022580)]
253: 0x0862 [0x6A] CHANGE_SOUND_VOLUME: Set 0x9C01 volume to 0x0108, fade_time=0x0279
254: 0x0869 [0x08] 0x0503 -= ExtData[1]->WorkLocal[0]
255: 0x086E [0x10] 0x0A9D <<= 0x1413
256: 0x0873 [0x0B] ExtData[1]->WorkLocal[0]++
257: 0x0876 [0x10] 5* <<= 0x0203
258: 0x087B [0x10] ExtData[1]->WorkLocal[11] <<= 0x0293
259: 0x0880 [0x10] 0x0A9D <<= 0x1533
260: 0x0885 [0x03] ExtData[1]->WorkLocal[16] = 0x1E10
261: 0x088A [0x80] LOAD_WAIT(entity=Unknown NPC (ID: 337840797/0x14230A9D))
262: 0x088F [0x04] DEPRECATED_NOP(unused=0x10)
263: 0x0892 [0x10] 5* <<= 0x2D1D
264: 0x0897 [0x80] LOAD_WAIT(entity=Unknown NPC (ID: 134414627/0x08030123))
265: 0x089C [0x01] GOTO 0x1201
266: 0x089F [0x02] IF !(Work_Zone[0] == 9*) GOTO 0x094D
267: 0x08A7 [0x03] ExtData[1]->WorkLocal[4] = Work_Zone[0]
268: 0x08AC [0x03] ExtData[1]->WorkLocal[5] = 0*

SUBROUTINE_08B1:
269: 0x08B1 [0x9D] IF (0x1553) 5* = Work_Zone[2] // extra=0x801E
270: 0x08BB [0xD4] MAP_QUERY_WINDOW: Prepare buffer configuration A (buffer=[15 80 02 10 9D 0A 53 15...])
271: 0x08D9 [0x1E] EventEntity looks at Unknown NPC (ID: 570676352/0x2203D480) and starts talking
272: 0x08DE [0x80] LOAD_WAIT(entity=Unknown NPC (ID: 178065412/0x0A9D1004))
273: 0x08E3 [0x53] WAIT_SCHEDULER_TASK: Wait for scheduler 0x05801603 with entities [Unknown NPC (ID: 688915733/0x29100515), Unknown NPC (ID: 3565166208/0xD4801E80)]
274: 0x08F0 [0x10] 0x0A9D <<= 0x1553
275: 0x08F5 [0x06] 0x2A10 = 0
276: 0x08F8 [0x80] LOAD_WAIT(entity=Unknown NPC (ID: 64258078/0x03D4801E))
277: 0x08FD [0x2B] Unknown NPC (ID: 3557820032/0xD4100680) [0x2C02]:
278: 0x0904 [0x80] LOAD_WAIT(entity=Unknown NPC (ID: 2148859909/0x80150005))
279: 0x0909 [0x25] WAIT_DIALOG_SELECT()
280: 0x090A [0x02] IF !(Work_Zone[0] == 5*) GOTO 0x0918
281: 0x0912 [0x01] GOTO 0x0279

SUBROUTINE_0A0D:
282: 0x0A0D [0x9D] IF (0x1593) 5* = Work_Zone[2] // extra=0x801E
283: 0x0A17 [0xD4] MAP_QUERY_WINDOW: Prepare buffer configuration A (buffer=[15 80 02 10 9D 0A 93 15...])
284: 0x0A35 [0x1E] EventEntity looks at Unknown NPC (ID: 570676352/0x2203D480) and starts talking
285: 0x0A3A [0x80] LOAD_WAIT(entity=Unknown NPC (ID: 178065412/0x0A9D1004))
286: 0x0A3F [0x93] DISPLAY_ITEM_INFO(item_id=0x0515)
287: 0x0A42 [0x10] 8* <<= 10*
288: 0x0A47 [0xD4] MAP_QUERY_WINDOW: Prepare buffer configuration A (buffer=[16 80 05 10 9D 0A 93 15...])
289: 0x0A65 [0x25] WAIT_DIALOG_SELECT()
290: 0x0A66 [0x02] IF !(Work_Zone[0] == 5*) GOTO 0x0A74
291: 0x0A6E [0x01] GOTO 0x0279

SUBROUTINE_0ABB:
292: 0x0ABB [0x9D] IF (0x15B3) 5* = Work_Zone[2] // extra=0x801E
293: 0x0AC5 [0xD4] MAP_QUERY_WINDOW: Prepare buffer configuration A (buffer=[15 80 02 10 9D 0A B3 15...])
294: 0x0AE3 [0x1E] EventEntity looks at Unknown NPC (ID: 570676352/0x2203D480) and starts talking
295: 0x0AE8 [0x80] LOAD_WAIT(entity=Unknown NPC (ID: 178065412/0x0A9D1004))
296: 0x0AED [0xB3] RANKINGS_BOARD_HANDLER(case_type=0x15)
297: 0x0AEF [0x05] 0x2910 = 1
298: 0x0AF2 [0x80] LOAD_WAIT(entity=Unknown NPC (ID: 64258078/0x03D4801E))
299: 0x0AF7 [0x16] 0x0580 = sin(0x9D10) * 0xB30A
300: 0x0AFE [0x15] Work_Zone[6] /= 9*
301: 0x0B03 [0x1E] EventEntity looks at Unknown NPC (ID: 721671296/0x2B03D480) and starts talking
302: 0x0B08 [0x80] LOAD_WAIT(entity=Unknown NPC (ID: 47452166/0x02D41006))
303: 0x0B0D [0x2C] CREATE_SCHEDULER_TASK: Create scheduler 0x00802610 with entities [Unknown NPC (ID: 352322944/0x15000580), Unknown NPC (ID: 140672/0x00022580)]
304: 0x0B1A [0x22] ENTITY_HIDE_FLAG(enabled=0x0B)
305: 0x0B1C [0x01] GOTO 0x0279

SUBROUTINE_0E21:
306: 0x0E21 [0x9D] IF (0x1653) 5* = Work_Zone[2] // extra=0x801E
307: 0x0E2B [0xD4] MAP_QUERY_WINDOW: Prepare buffer configuration A (buffer=[15 80 02 10 9D 0A 53 16...])
308: 0x0E49 [0x1E] EventEntity looks at Unknown NPC (ID: 570676352/0x2203D480) and starts talking
309: 0x0E4E [0x80] LOAD_WAIT(entity=Unknown NPC (ID: 178065412/0x0A9D1004))
310: 0x0E53 [0x53] WAIT_SCHEDULER_TASK: Wait for scheduler 0x05801603 with entities [Unknown NPC (ID: 688915734/0x29100516), Unknown NPC (ID: 3565166208/0xD4801E80)]
311: 0x0E60 [0x10] 0x0A9D <<= 0x1653
312: 0x0E65 [0x06] 0x2A10 = 0
313: 0x0E68 [0x80] LOAD_WAIT(entity=Unknown NPC (ID: 64258078/0x03D4801E))
314: 0x0E6D [0x2B] Unknown NPC (ID: 3557820032/0xD4100680) [0x2C02]:
315: 0x0E74 [0x80] LOAD_WAIT(entity=Unknown NPC (ID: 2148859909/0x80150005))
316: 0x0E79 [0x25] WAIT_DIALOG_SELECT()
317: 0x0E7A [0x02] IF !(Work_Zone[0] == 5*) GOTO 0x0E88
318: 0x0E82 [0x01] GOTO 0x0279

SUBROUTINE_10A9:
319: 0x10A9 [0x9D] IF (0x16D3) 5* = Work_Zone[2] // extra=0x801E
320: 0x10B3 [0xD4] MAP_QUERY_WINDOW: Prepare buffer configuration A (buffer=[15 80 02 10 9D 0A D3 16...])
321: 0x10D1 [0x1E] EventEntity looks at Unknown NPC (ID: 570676352/0x2203D480) and starts talking
322: 0x10D6 [0x80] LOAD_WAIT(entity=Unknown NPC (ID: 178065412/0x0A9D1004))
323: 0x10DB [0xD3] CLEAR_ENTITY_MOTION_QUEUE(condition_flag=0x16, entity_server_id=0x80291005)
324: 0x10E1 [0x1E] EventEntity looks at Unknown NPC (ID: 369349760/0x1603D480) and starts talking
325: 0x10E6 [0x80] LOAD_WAIT(entity=Unknown NPC (ID: 178065413/0x0A9D1005))
326: 0x10EB [0xD3] CLEAR_ENTITY_MOTION_QUEUE(condition_flag=0x16, entity_server_id=0x802A1006)
327: 0x10F1 [0x1E] EventEntity looks at Unknown NPC (ID: 721671296/0x2B03D480) and starts talking
328: 0x10F6 [0x80] LOAD_WAIT(entity=Unknown NPC (ID: 47452166/0x02D41006))
329: 0x10FB [0x2C] CREATE_SCHEDULER_TASK: Create scheduler 0x00802610 with entities [Unknown NPC (ID: 352322944/0x15000580), Unknown NPC (ID: 140672/0x00022580)]
330: 0x1108 [0x10] 0x0111 <<= 0x0279
331: 0x110D [0x01] GOTO 0x1142

SUBROUTINE_1142:
332: 0x1142 [0x01] GOTO 0x1201
333: 0x1145 [0x02] IF !(Work_Zone[0] == 21*) GOTO 0x11F3
334: 0x114D [0x03] ExtData[1]->WorkLocal[4] = Work_Zone[0]
335: 0x1152 [0x03] ExtData[1]->WorkLocal[5] = 0*

SUBROUTINE_1157:
336: 0x1157 [0x9D] IF (0x16F3) 5* = Work_Zone[2] // extra=0x801E
337: 0x1161 [0xD4] MAP_QUERY_WINDOW: Prepare buffer configuration A (buffer=[15 80 02 10 9D 0A F3 16...])
338: 0x117F [0x1E] EventEntity looks at Unknown NPC (ID: 570676352/0x2203D480) and starts talking
339: 0x1184 [0x80] LOAD_WAIT(entity=Unknown NPC (ID: 178065412/0x0A9D1004))
340: 0x1189 [0xF3] UNKNOWN_OPCODE_0xF3
341: 0x118A [0x16] Work_Zone[5] = sin(8*) * 10*
342: 0x1191 [0xD4] MAP_QUERY_WINDOW: Prepare buffer configuration A (buffer=[16 80 05 10 9D 0A F3 16...])
343: 0x11AF [0x25] WAIT_DIALOG_SELECT()
344: 0x11B0 [0x02] IF !(Work_Zone[0] == 5*) GOTO 0x11BE
345: 0x11B8 [0x01] GOTO 0x0279

SUBROUTINE_1201:
346: 0x1201 [0x01] GOTO 0x00E0

SUBROUTINE_123F:
347: 0x123F [0x02] IF !(Work_Zone[4] == 0*) GOTO 0x124A
348: 0x1247 [0x01] GOTO 0x124E
349: 0x124A [0x1D] PRINT_EVENT_MESSAGE(message_id=7277*)
    → "$3 effects: BPALL+$3."
350: 0x124D [0x23] WAIT_FOR_DIALOG_INTERACTION

SUBROUTINE_124E:
351: 0x124E [0x02] IF !(Work_Zone[6] == 0*) GOTO 0x1259
352: 0x1256 [0x01] GOTO 0x125D
353: 0x1259 [0x1D] PRINT_EVENT_MESSAGE(message_id=7278*)
    → "$3 effects: Max. HP+$5 EXP Loss Reduction: $6% MEXP Loss Reduction: $6%"
354: 0x125C [0x23] WAIT_FOR_DIALOG_INTERACTION

SUBROUTINE_125D:
355: 0x125D [0x01] GOTO 0x00E0

SUBROUTINE_1270:
356: 0x1270 [0x3C] SET_BIT_FLAG_CONDITIONAL(target_work_offset=ExtData[1]->WorkLocal[8], bit_index_work_offset=2*, condition_work_offset=1*)
357: 0x1277 [0x24] CREATE_DIALOG(message_id=7311*, default_option=ExtData[1]->WorkLocal[6], option_flags=ExtData[1]->WorkLocal[8])
    → "Do what? [Phase 1./Phase 2./@/Back.]"
358: 0x127E [0x25] WAIT_DIALOG_SELECT()
359: 0x127F [0x02] IF !(Work_Zone[0] == 0*) GOTO 0x12AF
360: 0x1287 [0x03] ExtData[1]->WorkLocal[6] = Work_Zone[0]
361: 0x128C [0x1D] PRINT_EVENT_MESSAGE(message_id=7290*)
    → "I have generated new notorious monsters based on your data."
362: 0x128F [0x23] WAIT_FOR_DIALOG_INTERACTION
363: 0x1290 [0x1D] PRINT_EVENT_MESSAGE(message_id=7291*)
    → "Here is a quick rundown."
364: 0x1293 [0x23] WAIT_FOR_DIALOG_INTERACTION
365: 0x1294 [0x1D] PRINT_EVENT_MESSAGE(message_id=7292*)
    → "1: they do not take your set level into account."
366: 0x1297 [0x23] WAIT_FOR_DIALOG_INTERACTION
367: 0x1298 [0x1D] PRINT_EVENT_MESSAGE(message_id=7293*)
    → "2: there are 22 types, but only 4 will appear on any given day (Earth time)."
368: 0x129B [0x23] WAIT_FOR_DIALOG_INTERACTION
369: 0x129C [0x03] Work_Zone[2] = 3*
370: 0x12A1 [0x1D] PRINT_EVENT_MESSAGE(message_id=7294*)
    → "$0: vanquishing them affects the contents of the Apollyon Coffer obtainable four weeks later."
371: 0x12A4 [0x23] WAIT_FOR_DIALOG_INTERACTION
372: 0x12A5 [0x1D] PRINT_EVENT_MESSAGE(message_id=7295*)
    → "This should enable you to collect even more precise data."
373: 0x12A8 [0x23] WAIT_FOR_DIALOG_INTERACTION
374: 0x12A9 [0x01] GOTO 0x1270

SUBROUTINE_1308:
375: 0x1308 [0x01] GOTO 0x140F
376: 0x130B [0x02] IF !(Work_Zone[0] == 7*) GOTO 0x132B
377: 0x1313 [0x03] ExtData[1]->WorkLocal[3] = Work_Zone[0]
378: 0x1318 [0x03] Work_Zone[1] = 6*
379: 0x131D [0x43] SEND_EVENT_UPDATE: Send pending tag to server (packet 0x005B)
380: 0x131F [0x43] SEND_EVENT_UPDATE: Check pending flag (skip if not pending)
381: 0x1321 [0x1D] PRINT_EVENT_MESSAGE(message_id=7299*)
    → "Notorious monster vanquishing information will affect Apollyon Coffers in $0 [days/hours/hour or less] (Earth time)."
382: 0x1324 [0x23] WAIT_FOR_DIALOG_INTERACTION
383: 0x1325 [0x01] GOTO 0x00E0

SUBROUTINE_140F:
384: 0x140F [0x2E] SET_CLI_EVENT_CANCEL_FLAGS()
385: 0x1410 [0x20] SET_CLI_EVENT_UC_FLAG: Unlock player control
386: 0x1412 [0x21] END_EVENT
```

#### Data or dead code:

```
# Dead code (unreachable instructions):
     0x0245 [0x01] GOTO 0x140F
     0x0265 [0x01] GOTO 0x140F
# Dead code (unreachable instructions):
     0x03A5 [0x01] GOTO 0x03DA
# Dead code (unreachable instructions):
     0x0456 [0x03] ExtData[1]->WorkLocal[5] = Work_Zone[0]
     0x045B [0x9D] IF (0x1413) Work_Zone[0] = ExtData[1]->WorkLocal[11] // extra=0x8026
     0x0465 [0x03] Work_Zone[2] = ExtData[1]->WorkLocal[11]
     0x046A [0x93] DISPLAY_ITEM_INFO(item_id=Work_Zone[2])
     0x046D [0x9D] IF (0x1473) Work_Zone[0] = Work_Zone[3] // extra=0x801E
     0x0477 [0x9D] IF (0x1423) Work_Zone[0] = Work_Zone[4] // extra=0x8026
     0x0481 [0x1D] PRINT_EVENT_MESSAGE(message_id=7274*)
    → "Reforging your item into $0 requires $1 and $2 Apollyon Units."
     0x0484 [0x23] WAIT_FOR_DIALOG_INTERACTION
     0x0485 [0x01] GOTO 0x03EF
# Dead code (unreachable instructions):
     0x0501 [0x01] GOTO 0x0536
     0x0536 [0x01] GOTO 0x1201
# Dead code (unreachable instructions):
     0x05AF [0x01] GOTO 0x05E4
     0x05B2 [0x03] ExtData[1]->WorkLocal[5] = Work_Zone[0]
     0x05B7 [0x9D] IF (0x1413) Work_Zone[0] = ExtData[1]->WorkLocal[11] // extra=0x8026
     0x05C1 [0x03] Work_Zone[2] = ExtData[1]->WorkLocal[11]
     0x05C6 [0x93] DISPLAY_ITEM_INFO(item_id=Work_Zone[2])
     0x05C9 [0x9D] IF (0x14B3) Work_Zone[0] = Work_Zone[3] // extra=0x801E
     0x05D3 [0x9D] IF (0x1423) Work_Zone[0] = Work_Zone[4] // extra=0x8026
     0x05DD [0x1D] PRINT_EVENT_MESSAGE(message_id=7274*)
    → "Reforging your item into $0 requires $1 and $2 Apollyon Units."
     0x05E0 [0x23] WAIT_FOR_DIALOG_INTERACTION
     0x05E1 [0x01] GOTO 0x054B
     0x05E4 [0x01] GOTO 0x1201
# Dead code (unreachable instructions):
     0x065D [0x01] GOTO 0x0692
     0x0660 [0x03] ExtData[1]->WorkLocal[5] = Work_Zone[0]
     0x0665 [0x9D] IF (0x1413) Work_Zone[0] = ExtData[1]->WorkLocal[11] // extra=0x8026
     0x066F [0x03] Work_Zone[2] = ExtData[1]->WorkLocal[11]
     0x0674 [0x93] DISPLAY_ITEM_INFO(item_id=Work_Zone[2])
     0x0677 [0x9D] IF (0x14D3) Work_Zone[0] = Work_Zone[3] // extra=0x801E
     0x0681 [0x9D] IF (0x1423) Work_Zone[0] = Work_Zone[4] // extra=0x8026
     0x068B [0x1D] PRINT_EVENT_MESSAGE(message_id=7274*)
    → "Reforging your item into $0 requires $1 and $2 Apollyon Units."
     0x068E [0x23] WAIT_FOR_DIALOG_INTERACTION
     0x068F [0x01] GOTO 0x05F9
     0x0692 [0x01] GOTO 0x1201
# Dead code (unreachable instructions):
     0x070E [0x03] ExtData[1]->WorkLocal[5] = Work_Zone[0]
     0x0713 [0x9D] IF (0x1413) Work_Zone[0] = ExtData[1]->WorkLocal[11] // extra=0x8026
     0x071D [0x03] Work_Zone[2] = ExtData[1]->WorkLocal[11]
     0x0722 [0x93] DISPLAY_ITEM_INFO(item_id=Work_Zone[2])
     0x0725 [0x9D] IF (0x14F3) Work_Zone[0] = Work_Zone[3] // extra=0x801E
     0x072F [0x9D] IF (0x1423) Work_Zone[0] = Work_Zone[4] // extra=0x8026
     0x0739 [0x1D] PRINT_EVENT_MESSAGE(message_id=7274*)
    → "Reforging your item into $0 requires $1 and $2 Apollyon Units."
     0x073C [0x23] WAIT_FOR_DIALOG_INTERACTION
     0x073D [0x01] GOTO 0x06A7
# Dead code (unreachable instructions):
     0x0915 [0x01] GOTO 0x094A
     0x094A [0x01] GOTO 0x1201
# Dead code (unreachable instructions):
     0x0A71 [0x01] GOTO 0x0AA6
     0x0AA6 [0x01] GOTO 0x1201
# Dead code (unreachable instructions):
     0x0B1F [0x01] GOTO 0x0B54
     0x0B22 [0x03] ExtData[1]->WorkLocal[5] = Work_Zone[0]
     0x0B27 [0x9D] IF (0x1413) Work_Zone[0] = ExtData[1]->WorkLocal[11] // extra=0x8026
     0x0B31 [0x03] Work_Zone[2] = ExtData[1]->WorkLocal[11]
     0x0B36 [0x93] DISPLAY_ITEM_INFO(item_id=Work_Zone[2])
     0x0B39 [0x9D] IF (0x15B3) Work_Zone[0] = Work_Zone[3] // extra=0x801E
     0x0B43 [0x9D] IF (0x1423) Work_Zone[0] = Work_Zone[4] // extra=0x8026
     0x0B4D [0x1D] PRINT_EVENT_MESSAGE(message_id=7274*)
    → "Reforging your item into $0 requires $1 and $2 Apollyon Units."
     0x0B50 [0x23] WAIT_FOR_DIALOG_INTERACTION
     0x0B51 [0x01] GOTO 0x0ABB
     0x0B54 [0x01] GOTO 0x1201
     0x0C89 [0x00] END_REQSTACK()
     0x0C8A [0x10] 5* <<= 0x0203
     0x0C8F [0x10] ExtData[1]->WorkLocal[11] <<= 0x0293
     0x0C94 [0x10] 0x0A9D <<= 0x15F3
     0x0C99 [0x03] ExtData[1]->WorkLocal[16] = 0x1E10
     0x0C9E [0x80] LOAD_WAIT(entity=Unknown NPC (ID: 337840797/0x14230A9D))
     0x0CA3 [0x04] DEPRECATED_NOP(unused=0x10)
     0x0CA6 [0x10] 5* <<= 0x2D1D
     0x0CAB [0x80] LOAD_WAIT(entity=Unknown NPC (ID: 202834211/0x0C170123))
     0x0CB0 [0x01] GOTO 0x1201
# Dead code (unreachable instructions):
     0x0E85 [0x01] GOTO 0x0EBA
     0x0EBA [0x01] GOTO 0x1201
     0x0FC5 [0x10] 10* <<= 0xD501
     0x0FCA [0x0F] 0x0A9D ^= 0x1693
     0x0FCF [0x03] ExtData[1]->WorkLocal[16] = 0x1E10
     0x0FD4 [0x80] LOAD_WAIT(entity=Unknown NPC (ID: 337840797/0x14230A9D))
     0x0FD9 [0x04] DEPRECATED_NOP(unused=0x10)
     0x0FDC [0x10] 5* <<= 0x2D1D
     0x0FE1 [0x80] LOAD_WAIT(entity=Unknown NPC (ID: 249364771/0x0EDD0123))
     0x0FE6 [0x01] GOTO 0x1201
# Dead code (unreachable instructions):
     0x1110 [0x03] ExtData[1]->WorkLocal[5] = Work_Zone[0]
     0x1115 [0x9D] IF (0x1413) Work_Zone[0] = ExtData[1]->WorkLocal[11] // extra=0x8026
     0x111F [0x03] Work_Zone[2] = ExtData[1]->WorkLocal[11]
     0x1124 [0x93] DISPLAY_ITEM_INFO(item_id=Work_Zone[2])
     0x1127 [0x9D] IF (0x16D3) Work_Zone[0] = Work_Zone[3] // extra=0x801E
     0x1131 [0x9D] IF (0x1423) Work_Zone[0] = Work_Zone[4] // extra=0x8026
     0x113B [0x1D] PRINT_EVENT_MESSAGE(message_id=7274*)
    → "Reforging your item into $0 requires $1 and $2 Apollyon Units."
     0x113E [0x23] WAIT_FOR_DIALOG_INTERACTION
     0x113F [0x01] GOTO 0x10A9
# Dead code (unreachable instructions):
     0x11BB [0x01] GOTO 0x11F0
     0x11F0 [0x01] GOTO 0x1201
     0x11FE [0x01] GOTO 0x1201
# Dead code (unreachable instructions):
     0x1204 [0x01] GOTO 0x140F
     0x1217 [0x01] GOTO 0x140F
# Dead code (unreachable instructions):
     0x1260 [0x01] GOTO 0x140F
# Dead code (unreachable instructions):
     0x12AC [0x01] GOTO 0x1308
     0x12E4 [0x01] GOTO 0x1308
     0x12F7 [0x01] GOTO 0x1308
     0x1305 [0x01] GOTO 0x1308
# Dead code (unreachable instructions):
     0x1328 [0x01] GOTO 0x140F
     0x134C [0x01] GOTO 0x140F
     0x13AA [0x01] GOTO 0x140F
     0x13E1 [0x01] GOTO 0x140F
     0x13FC [0x01] GOTO 0x140F
# Dead code (unreachable instructions):
     0x1413 [0x02] IF !(0x0310 == 0x0410) GOTO 0x1005
     0x141B [0x06] 0x1510 = 0
     0x141E [0x80] LOAD_WAIT(entity=Unknown NPC (ID: 2148892693/0x80158015))
     0x1423 [0x53] WAIT_SCHEDULER_TASK: Wait for scheduler 0x15801580 with entities [Unknown NPC (ID: 1434473600/0x55805480), Unknown NPC (ID: 444618368/0x1A805680)]
     0x1430 [0x80] LOAD_WAIT(entity=Unknown NPC (ID: 2153218069/0x80578015))
     0x1435 [0x58] YIELD_EVENT_VM()
     0x1436 [0x80] LOAD_WAIT(entity=Unknown NPC (ID: 2153414745/0x805A8059))
     0x143B [0x5B] LOAD_EXT_SCHEDULER: Load scheduler 0x15801580 with entities [Unknown NPC (ID: 1585470848/0x5E805D80), Unknown NPC (ID: 1619025792/0x60805F80)], work=0x5C80
     0x144A [0x80] LOAD_WAIT(entity=Unknown NPC (ID: 2148892693/0x80158015))
     0x144F [0x15] 0x1580 /= 0x6180
     0x1454 [0x80] LOAD_WAIT(entity=Unknown NPC (ID: 2154004578/0x80638062))
     0x1459 [0x64] CALCULATE_DISTANCE: 0x6580 = distance between point1(0x6680, 0x6780) and point2(0x6880, 0x6980)
     0x1464 [0x80] LOAD_WAIT(entity=Unknown NPC (ID: 2148892778/0x8015806A))
     0x1469 [0x15] 0x1580 /= 0x1580
     0x146E [0x80] LOAD_WAIT(entity=Unknown NPC (ID: 2148892693/0x80158015))
     0x1473 [0x6B] STOP_AND_IDLE: Unknown NPC (ID: 1870687872/0x6F806E80) stops current action and resets to idle (animation="lm")
     0x147C [0x80] LOAD_WAIT(entity=Unknown NPC (ID: 2154922096/0x80718070))
     0x1481 [0x72] LOAD_EVENT_WEATHER: Unknown mode 128, weather_id=24032*
     0x1485 [0x74] EventEntity->Render.Flags1 ^= 0x00
     0x1487 [0x15] 0x1580 /= 0x1580
     0x148C [0x80] LOAD_WAIT(entity=Unknown NPC (ID: 2148892693/0x80158015))
     0x1491 [0x15] 0x7580 /= 0x7680
     0x1496 [0x80] LOAD_WAIT(entity=Unknown NPC (ID: 2155380855/0x80788077))
     0x149B [0x79] Unknown NPC (ID: 2155577466/0x807B807A) looks at Unknown NPC (ID: 2155708540/0x807D807C) (Unknown mode 128)
     0x14A5 [0x7E] CHOCOBO_MOUNT: Unknown mode 128
     0x14AB [0x15] 0x1580 /= 0x1580
     0x14B0 [0x80] LOAD_WAIT(entity=Unknown NPC (ID: 2155839509/0x807F8015))
     0x14B5 [0x80] LOAD_WAIT(entity=Unknown NPC (ID: 2189459840/0x82808180))
     0x14BA [0x80] LOAD_WAIT(entity=Unknown NPC (ID: 2156167299/0x80848083))
     0x14BF [0x85] OPEN_MOOGLE_MENU()
     0x14C0 [0x80] LOAD_WAIT(entity=Unknown NPC (ID: 2156363910/0x80878086))
     0x14C5 [0x88] WORLD_PASS_HANDLER_B: Send world pass packet 0x1B (Para=1, sets RecFriendPassFlag)
     0x14C6 [0x80] LOAD_WAIT(entity=Unknown NPC (ID: 2148892693/0x80158015))
     0x14CB [0x15] 0x1580 /= 0x1580
     0x14D0 [0x80] LOAD_WAIT(entity=Unknown NPC (ID: 2156494869/0x80898015))
     0x14D5 [0x8A] CLOSE_MAP()
     0x14D6 [0x80] LOAD_WAIT(entity=Unknown NPC (ID: 2156691595/0x808C808B))
     0x14DB [0x8D] OPEN_MAP_WITH_PROPERTIES(map_id=References[3712], properties=References[3968])
     0x14E0 [0x80] LOAD_WAIT(entity=Unknown NPC (ID: 2157019280/0x80918090))
     0x14E5 [0x92] Unknown NPC (ID: 2148892693/0x80158015)->Render.Flags3 ^= 0x80
     0x14EB [0x15] 0x1580 /= 0x1580
     0x14F0 [0x80] LOAD_WAIT(entity=Unknown NPC (ID: 2157150229/0x80938015))
     0x14F5 [0x94] Unknown NPC (ID: 2157346965/0x80968095)->Render.Flags3 ^= 0x80
     0x14FB [0x97] SAVE_SET_WIND_VALUES(wind_base=0x9880, wind_width=0x9980)
     0x1500 [0x80] LOAD_WAIT(entity=Unknown NPC (ID: 2157674650/0x809B809A))
     0x1505 [0x9C] STORE_CLIENT_LANGUAGE_ID(result=0x1580)
     0x1508 [0x80] LOAD_WAIT(entity=Unknown NPC (ID: 2148892693/0x80158015))
     0x150D [0x15] 0x1580 /= 0x1580
     0x1512 [0x80] LOAD_WAIT(entity=Unknown NPC (ID: 2157871261/0x809E809D))
     0x1517 [0x9F] LOAD_SCHEDULED_TASK_ALT: Load scheduler 0xA680A580 with entities [Unknown NPC (ID: 2726338944/0xA280A180), Unknown NPC (ID: 2759893888/0xA480A380)], work=[0xA080, 0x1580]
     0x1528 [0x80] LOAD_WAIT(entity=Unknown NPC (ID: 2148892693/0x80158015))
     0x152D [0x15] 0x1580 /= 0x1580
     0x1532 [0x80] LOAD_WAIT(entity=Unknown NPC (ID: 2158526631/0x80A880A7))
     0x1537 [0xA9] DISABLE_GAME_TIME_SET_SPECIFIC(time_offset=0xAA80)
     0x153A [0x80] LOAD_WAIT(entity=Unknown NPC (ID: 2158788779/0x80AC80AB))
     0x153F [0xAD] DUAL_ENTITY_SCHEDULER_HANDLER: Execute sub-case 0 with entities [Unknown NPC (ID: 2159050927/0x80B080AF), Unknown NPC (ID: 2148892693/0x80158015)], work=23993*
     0x154B [0x15] 0x1580 /= 0x1580
     0x1550 [0x80] LOAD_WAIT(entity=Unknown NPC (ID: 2159116309/0x80B18015))
     0x1555 [0xB2] DELIVERY_BOX_HANDLER(mode=0x80)
     0x1557 [0xB3] RANKINGS_BOARD_HANDLER(case_type=0x80)
     0x1559 [0xB4] UI_WINDOW_STRING_HANDLER(case=0x80 - Unknown case 0x80)
     0x155B [0xB5] SET_EVENT_ENTITY_NAME: Change EventEntity name to "`]"*
     0x155F [0xB7] ENTITY_DATA_HANDLER: Unknown case 0x80 for Unknown NPC (ID: 2159640760/0x80B980B8)
     0x1567 [0x15] 0x1580 /= 0x1580
     0x156C [0x80] LOAD_WAIT(entity=Unknown NPC (ID: 2148892693/0x80158015))
     0x1571 [0x15] 0xBB80 /= 0xBC80
     0x1576 [0x80] LOAD_WAIT(entity=Unknown NPC (ID: 2159968445/0x80BE80BD))
     0x157B [0xBF] CHOCOBO_RACING_PARAMETER_GETTER(param_type=0x80)
     0x157D [0xC0] EventEntity->Render.Flags3 &= ~0x1000 // Clear bit 12
     0x1580 [0x80] LOAD_WAIT(entity=Unknown NPC (ID: 2160296130/0x80C380C2))
     0x1585 [0xC4] SCHEDULE_MAGIC_CASTING_ALT (arg=16): Unknown NPC (ID: 2148892693/0x80158015) casts magic 0* on Unknown NPC (ID: 2148892693/0x80158015)
     0x1591 [0x15] 0xC580 /= 0xC680
     0x1596 [0x80] LOAD_WAIT(entity=Unknown NPC (ID: 2160623815/0x80C880C7))
     0x159B [0xC9] ENABLE_GAME_TIMER()
     0x159C [0x80] LOAD_WAIT(entity=Unknown NPC (ID: 2160820426/0x80CB80CA))
     0x15A1 [0xCC] ITEM_INFO_WINDOW_HANDLER(case=0x80 - Unknown case 0x80)
     0x15A5 [0xCE] WAIT_LOAD_SCHEDULER_ALT4: Wait for scheduler 0xCF801580 with entities [Unknown NPC (ID: 360715648/0x15801580), Unknown NPC (ID: 360715648/0x15801580)], work=0x1580
     0x15B4 [0x80] LOAD_WAIT(entity=Unknown NPC (ID: 2161213648/0x80D180D0))
     0x15B9 [0xD2] END_LOAD_SCHEDULER_MAIN_ALT7: End scheduler 0x0000D880 with entities [Unknown NPC (ID: 3581990016/0xD580D480), Unknown NPC (ID: 3615544960/0xD780D680)], work=ExtData[1]->WorkLocal[21]
     0x15C8 [0x80] LOAD_WAIT(entity=Unknown NPC (ID: 2148892693/0x80158015))
     0x15CD [0x15] 0x1580 /= 0x1580
     0x15D2 [0x80] LOAD_WAIT(entity=Unknown NPC (ID: 2161803481/0x80DA80D9))
     0x15D7 [0xDB] UNKNOWN_0xDB
     0x15D8 [0x80] LOAD_WAIT(entity=Unknown NPC (ID: 2162000092/0x80DD80DC))
     0x15DD [0xDE] UNKNOWN_0xDE
     0x15DE [0x80] LOAD_WAIT(entity=Unknown NPC (ID: 2162196703/0x80E080DF))
     0x15E3 [0xE1] UNKNOWN_0xE1
     0x15E4 [0x80] LOAD_WAIT(entity=Unknown NPC (ID: 2148892898/0x801580E2))
     0x15E9 [0x15] 0x1580 /= 0x1580
     0x15EE [0x80] LOAD_WAIT(entity=Unknown NPC (ID: 2148892693/0x80158015))
     0x15F3 [0xE3] UNKNOWN_0xE3
     0x15F4 [0x80] LOAD_WAIT(entity=Unknown NPC (ID: 2162524388/0x80E580E4))
     0x15F9 [0xE6] UNKNOWN_0xE6
     0x15FA [0x80] LOAD_WAIT(entity=Unknown NPC (ID: 2162720999/0x80E880E7))
     0x15FF [0xE9] UNKNOWN_0xE9
     0x1600 [0x80] LOAD_WAIT(entity=Unknown NPC (ID: 2162917610/0x80EB80EA))
     0x1605 [0xEC] UNKNOWN_0xEC
     0x1606 [0x80] LOAD_WAIT(entity=Unknown NPC (ID: 2148892693/0x80158015))
     0x160B [0x15] 0x1580 /= 0x1580
     0x1610 [0x80] LOAD_WAIT(entity=Unknown NPC (ID: 2163048469/0x80ED8015))
     0x1615 [0xEE] UNKNOWN_0xEE
     0x1616 [0x80] LOAD_WAIT(entity=Unknown NPC (ID: 2163245295/0x80F080EF))
     0x161B [0xF1] UNKNOWN_0xF1
     0x161C [0x80] LOAD_WAIT(entity=Unknown NPC (ID: 2163441906/0x80F380F2))
     0x1621 [0xF4] UNKNOWN_0xF4
     0x1622 [0x80] LOAD_WAIT(entity=Unknown NPC (ID: 2163638517/0x80F680F5))
     0x1627 [0x15] 0x1580 /= 0x1580
     0x162C [0x80] LOAD_WAIT(entity=Unknown NPC (ID: 2148892693/0x80158015))
     0x1631 [0x15] 0xF780 /= 0xF880
     0x1636 [0x80] LOAD_WAIT(entity=Unknown NPC (ID: 2163900665/0x80FA80F9))
     0x163B [0xFB] UNKNOWN_0xFB
     0x163C [0x80] LOAD_WAIT(entity=Unknown NPC (ID: 2164097276/0x80FD80FC))
     0x1641 [0xFE] UNKNOWN_0xFE
     0x1642 [0x80] LOAD_WAIT(entity=Unknown NPC (ID: 2164293887/0x810080FF))
     0x1647 [0x15] 0x1580 /= 0x1580
     0x164C [0x80] LOAD_WAIT(entity=Unknown NPC (ID: 2148892693/0x80158015))
     0x1651 [0x15] 0x0180 /= 0x0281
     0x1656 [0x81] SET_ENTITY_BLINKING(blink_flag=0x03, entity=Unknown NPC (ID: 92341377/0x05810481))
     0x165C [0x81] SET_ENTITY_BLINKING(blink_flag=0x06, entity=Unknown NPC (ID: 142673793/0x08810781))
     0x1662 [0x81] SET_ENTITY_BLINKING(blink_flag=0x09, entity=Unknown NPC (ID: 360778369/0x15810A81))
     0x1668 [0x80] LOAD_WAIT(entity=Unknown NPC (ID: 2148892693/0x80158015))
     0x166D [0x15] 0x1580 /= 0x1580
     0x1672 [0x80] LOAD_WAIT(entity=Unknown NPC (ID: 2165080331/0x810C810B))
     0x1677 [0x0D] 0x0E81 &= 0x0F81
     0x167C [0x81] SET_ENTITY_BLINKING(blink_flag=0x10, entity=Unknown NPC (ID: 310448513/0x12811181))
     0x1682 [0x81] SET_ENTITY_BLINKING(blink_flag=0x13, entity=Unknown NPC (ID: 360780929/0x15811481))
     0x1688 [0x80] LOAD_WAIT(entity=Unknown NPC (ID: 2148892693/0x80158015))
     0x168D [0x15] 0x1580 /= 0x1580
     0x1692 [0x80] LOAD_WAIT(entity=Unknown NPC (ID: 2165735701/0x81168115))
     0x1697 [0x17] 0x1881 = cos(0x1981) * 0x1A81
     0x169E [0x81] SET_ENTITY_BLINKING(blink_flag=0x1B, entity=Unknown NPC (ID: 495000705/0x1D811C81))
     0x16A4 [0x81] SET_ENTITY_BLINKING(blink_flag=0x1E, entity=Unknown NPC (ID: 360715649/0x15801581))
     0x16AA [0x80] LOAD_WAIT(entity=Unknown NPC (ID: 2148892693/0x80158015))
     0x16AF [0x15] 0x1580 /= 0x1F80
     0x16B4 [0x81] SET_ENTITY_BLINKING(blink_flag=0x20, entity=Unknown NPC (ID: 578888065/0x22812181))
     0x16BA [0x81] SET_ENTITY_BLINKING(blink_flag=0x23, entity=Unknown NPC (ID: 629220481/0x25812481))
     0x16C0 [0x81] SET_ENTITY_BLINKING(blink_flag=0x26, entity=Unknown NPC (ID: 679552897/0x28812781))
     0x16C6 [0x81] SET_ENTITY_BLINKING(blink_flag=0x15, entity=Unknown NPC (ID: 360715648/0x15801580))
     0x16CC [0x80] LOAD_WAIT(entity=Unknown NPC (ID: 2148892693/0x80158015))
     0x16D1 [0x15] 0x2980 /= 0x2A81
     0x16D6 [0x81] SET_ENTITY_BLINKING(blink_flag=0x2B, entity=Unknown NPC (ID: 763440257/0x2D812C81))
     0x16DC [0x81] SET_ENTITY_BLINKING(blink_flag=0x2E, entity=Unknown NPC (ID: 813772673/0x30812F81))
     0x16E2 [0x81] SET_ENTITY_BLINKING(blink_flag=0x31, entity=Unknown NPC (ID: 360788609/0x15813281))
     0x16E8 [0x80] LOAD_WAIT(entity=Unknown NPC (ID: 2148892693/0x80158015))
     0x16ED [0x15] 0x1580 /= 0x1580
     0x16F2 [0x80] LOAD_WAIT(entity=Unknown NPC (ID: 2167701811/0x81348133))
     0x16F7 [0x35] LOAD_ZONE_NO_CLOSE(zone_id=0x3681)
     0x16FA [0x81] SET_ENTITY_BLINKING(blink_flag=0x37, entity=Unknown NPC (ID: 964769921/0x39813881))
     0x1700 [0x81] SET_ENTITY_BLINKING(blink_flag=0x3A, entity=Unknown NPC (ID: 1015102337/0x3C813B81))
     0x1706 [0x81] SET_ENTITY_BLINKING(blink_flag=0x15, entity=Unknown NPC (ID: 360715648/0x15801580))
     0x170C [0x80] LOAD_WAIT(entity=Unknown NPC (ID: 2148892693/0x80158015))
     0x1711 [0x00] END_REQSTACK()
```
