# 16933560 - Apollyon Operator

## Common Data

| Field            | Value             |
|------------------|-------------------|
| Zone             | Apollyon (ID: 38) |
| Block Size       | 6800 bytes        |
| Total Events     | 3                 |
| References Count | 303               |

## List of Events

| Event ID              | Entrypoint   |   Size |   Instructions |
|-----------------------|--------------|--------|----------------|
| [65535](#event-65535) | 0x0000       |      1 |              1 |
| [128](#event-128)     | 0x0001       |    180 |             66 |
| [130](#event-130)     | 0x00B5       |   5379 |            909 |

## DAT References (imed_data)

|   Index | Hex Value   |   Dec Value |
|---------|-------------|-------------|
|       0 | 0x0001      |           1 |
|       1 | 0x015F      |         351 |
|       2 | 0x1C4C      |        7244 |
|       3 | 0x1C5B      |        7259 |
|       4 | 0x1C5C      |        7260 |
|       5 | 0x1C4D      |        7245 |
|       6 | 0x1C4E      |        7246 |
|       7 | 0x1C4F      |        7247 |
|       8 | 0x1C50      |        7248 |
|       9 | 0x1C51      |        7249 |
|      10 | 0x1C52      |        7250 |
|      11 | 0x1C53      |        7251 |
|      12 | 0x1C54      |        7252 |
|      13 | 0x1C55      |        7253 |
|      14 | 0x1C56      |        7254 |
|      15 | 0x1C57      |        7255 |
|      16 | 0x1C58      |        7256 |
|      17 | 0x1C59      |        7257 |
|      18 | 0x0087      |         135 |
|      19 | 0x1C5D      |        7261 |
|      20 | 0x1C5F      |        7263 |
|      21 | 0x0000      |           0 |
|      22 | 0x0003      |           3 |
|      23 | 0x0077      |         119 |
|      24 | 0x1C5E      |        7262 |
|      25 | 0x1C5A      |        7258 |
|      26 | 0x2710      |       10000 |
|      27 | 0x1C65      |        7269 |
|      28 | 0x0076      |         118 |
|      29 | 0x1C61      |        7265 |
|      30 | 0x000A      |          10 |
|      31 | 0x0010      |          16 |
|      32 | 0x001F      |          31 |
|      33 | 0x1C62      |        7266 |
|      34 | 0x0002      |           2 |
|      35 | 0x1C66      |        7270 |
|      36 | 0x1C67      |        7271 |
|      37 | 0x1C68      |        7272 |
|      38 | 0x0005      |           5 |
|      39 | 0x0006      |           6 |
|      40 | 0x0007      |           7 |
|      41 | 0x0008      |           8 |
|      42 | 0x0009      |           9 |
|      43 | 0x0004      |           4 |
|      44 | 0x1C69      |        7273 |
|      45 | 0x1C6A      |        7274 |
|      46 | 0x000B      |          11 |
|      47 | 0x000C      |          12 |
|      48 | 0x000D      |          13 |
|      49 | 0x000E      |          14 |
|      50 | 0x000F      |          15 |
|      51 | 0x0011      |          17 |
|      52 | 0x0012      |          18 |
|      53 | 0x0013      |          19 |
|      54 | 0x0014      |          20 |
|      55 | 0x0015      |          21 |
|      56 | 0x0016      |          22 |
|      57 | 0x1C6C      |        7276 |
|      58 | 0x1C6D      |        7277 |
|      59 | 0x1C6E      |        7278 |
|      60 | 0x1C7A      |        7290 |
|      61 | 0x1C7B      |        7291 |
|      62 | 0x1C7C      |        7292 |
|      63 | 0x1C7D      |        7293 |
|      64 | 0x1C7E      |        7294 |
|      65 | 0x1C7F      |        7295 |
|      66 | 0x1C80      |        7296 |
|      67 | 0x1C81      |        7297 |
|      68 | 0x1C82      |        7298 |
|      69 | 0x4E20      |       20000 |
|      70 | 0x7530      |       30000 |
|      71 | 0x3A98      |       15000 |
|      72 | 0x61A8      |       25000 |
|      73 | 0x5B4F      |       23375 |
|      74 | 0x5B92      |       23442 |
|      75 | 0x5BD5      |       23509 |
|      76 | 0x5C18      |       23576 |
|      77 | 0x5C5B      |       23643 |
|      78 | 0x5D57      |       23895 |
|      79 | 0x5D84      |       23940 |
|      80 | 0x5DB1      |       23985 |
|      81 | 0x5DDE      |       24030 |
|      82 | 0x5E0B      |       24075 |
|      83 | 0x5B50      |       23376 |
|      84 | 0x5B93      |       23443 |
|      85 | 0x5BD6      |       23510 |
|      86 | 0x5C19      |       23577 |
|      87 | 0x5C5C      |       23644 |
|      88 | 0x5D58      |       23896 |
|      89 | 0x5D85      |       23941 |
|      90 | 0x5DB2      |       23986 |
|      91 | 0x5DDF      |       24031 |
|      92 | 0x5E0C      |       24076 |
|      93 | 0x5B51      |       23377 |
|      94 | 0x5B94      |       23444 |
|      95 | 0x5BD7      |       23511 |
|      96 | 0x5C1A      |       23578 |
|      97 | 0x5C5D      |       23645 |
|      98 | 0x5D59      |       23897 |
|      99 | 0x5D86      |       23942 |
|     100 | 0x5DB3      |       23987 |
|     101 | 0x5DE0      |       24032 |
|     102 | 0x5E0D      |       24077 |
|     103 | 0x5B52      |       23378 |
|     104 | 0x5B95      |       23445 |
|     105 | 0x5BD8      |       23512 |
|     106 | 0x5C1B      |       23579 |
|     107 | 0x5C5E      |       23646 |
|     108 | 0x5D5A      |       23898 |
|     109 | 0x5D87      |       23943 |
|     110 | 0x5DB4      |       23988 |
|     111 | 0x5DE1      |       24033 |
|     112 | 0x5E0E      |       24078 |
|     113 | 0x5B53      |       23379 |
|     114 | 0x5B96      |       23446 |
|     115 | 0x5BD9      |       23513 |
|     116 | 0x5C1C      |       23580 |
|     117 | 0x5C5F      |       23647 |
|     118 | 0x5D5B      |       23899 |
|     119 | 0x5D88      |       23944 |
|     120 | 0x5DB5      |       23989 |
|     121 | 0x5DE2      |       24034 |
|     122 | 0x5E0F      |       24079 |
|     123 | 0x5B54      |       23380 |
|     124 | 0x5B97      |       23447 |
|     125 | 0x5BDA      |       23514 |
|     126 | 0x5C1D      |       23581 |
|     127 | 0x5C60      |       23648 |
|     128 | 0x5D5C      |       23900 |
|     129 | 0x5D89      |       23945 |
|     130 | 0x5DB6      |       23990 |
|     131 | 0x5DE3      |       24035 |
|     132 | 0x5E10      |       24080 |
|     133 | 0x5B55      |       23381 |
|     134 | 0x5B98      |       23448 |
|     135 | 0x5BDB      |       23515 |
|     136 | 0x5C1E      |       23582 |
|     137 | 0x5C61      |       23649 |
|     138 | 0x5D5D      |       23901 |
|     139 | 0x5D8A      |       23946 |
|     140 | 0x5DB7      |       23991 |
|     141 | 0x5DE4      |       24036 |
|     142 | 0x5E11      |       24081 |
|     143 | 0x5B56      |       23382 |
|     144 | 0x5B99      |       23449 |
|     145 | 0x5BDC      |       23516 |
|     146 | 0x5C1F      |       23583 |
|     147 | 0x5C62      |       23650 |
|     148 | 0x5D5E      |       23902 |
|     149 | 0x5D8B      |       23947 |
|     150 | 0x5DB8      |       23992 |
|     151 | 0x5DE5      |       24037 |
|     152 | 0x5E12      |       24082 |
|     153 | 0x5B57      |       23383 |
|     154 | 0x5B9A      |       23450 |
|     155 | 0x5BDD      |       23517 |
|     156 | 0x5C20      |       23584 |
|     157 | 0x5C63      |       23651 |
|     158 | 0x5D5F      |       23903 |
|     159 | 0x5D8C      |       23948 |
|     160 | 0x5DB9      |       23993 |
|     161 | 0x5DE6      |       24038 |
|     162 | 0x5E13      |       24083 |
|     163 | 0x5B58      |       23384 |
|     164 | 0x5B9B      |       23451 |
|     165 | 0x5BDE      |       23518 |
|     166 | 0x5C21      |       23585 |
|     167 | 0x5C64      |       23652 |
|     168 | 0x5D60      |       23904 |
|     169 | 0x5D8D      |       23949 |
|     170 | 0x5DBA      |       23994 |
|     171 | 0x5DE7      |       24039 |
|     172 | 0x5E14      |       24084 |
|     173 | 0x5B59      |       23385 |
|     174 | 0x5B9C      |       23452 |
|     175 | 0x5BDF      |       23519 |
|     176 | 0x5C22      |       23586 |
|     177 | 0x5C65      |       23653 |
|     178 | 0x5D61      |       23905 |
|     179 | 0x5D8E      |       23950 |
|     180 | 0x5DBB      |       23995 |
|     181 | 0x5DE8      |       24040 |
|     182 | 0x5E15      |       24085 |
|     183 | 0x5B5A      |       23386 |
|     184 | 0x5B9D      |       23453 |
|     185 | 0x5BE0      |       23520 |
|     186 | 0x5C23      |       23587 |
|     187 | 0x5C66      |       23654 |
|     188 | 0x5D62      |       23906 |
|     189 | 0x5D8F      |       23951 |
|     190 | 0x5DBC      |       23996 |
|     191 | 0x5DE9      |       24041 |
|     192 | 0x5E16      |       24086 |
|     193 | 0x5B5B      |       23387 |
|     194 | 0x5B9E      |       23454 |
|     195 | 0x5BE1      |       23521 |
|     196 | 0x5C24      |       23588 |
|     197 | 0x5C67      |       23655 |
|     198 | 0x5D63      |       23907 |
|     199 | 0x5D90      |       23952 |
|     200 | 0x5DBD      |       23997 |
|     201 | 0x5DEA      |       24042 |
|     202 | 0x5E17      |       24087 |
|     203 | 0x5B5C      |       23388 |
|     204 | 0x5B9F      |       23455 |
|     205 | 0x5BE2      |       23522 |
|     206 | 0x5C25      |       23589 |
|     207 | 0x5C68      |       23656 |
|     208 | 0x5D64      |       23908 |
|     209 | 0x5D91      |       23953 |
|     210 | 0x5DBE      |       23998 |
|     211 | 0x5DEB      |       24043 |
|     212 | 0x5E18      |       24088 |
|     213 | 0x5B5D      |       23389 |
|     214 | 0x5BA0      |       23456 |
|     215 | 0x5BE3      |       23523 |
|     216 | 0x5C26      |       23590 |
|     217 | 0x5C69      |       23657 |
|     218 | 0x5D65      |       23909 |
|     219 | 0x5D92      |       23954 |
|     220 | 0x5DBF      |       23999 |
|     221 | 0x5DEC      |       24044 |
|     222 | 0x5E19      |       24089 |
|     223 | 0x5B5E      |       23390 |
|     224 | 0x5BA1      |       23457 |
|     225 | 0x5BE4      |       23524 |
|     226 | 0x5C27      |       23591 |
|     227 | 0x5C6A      |       23658 |
|     228 | 0x5D66      |       23910 |
|     229 | 0x5D93      |       23955 |
|     230 | 0x5DC0      |       24000 |
|     231 | 0x5DED      |       24045 |
|     232 | 0x5E1A      |       24090 |
|     233 | 0x5B5F      |       23391 |
|     234 | 0x5BA2      |       23458 |
|     235 | 0x5BE5      |       23525 |
|     236 | 0x5C28      |       23592 |
|     237 | 0x5C6B      |       23659 |
|     238 | 0x5D67      |       23911 |
|     239 | 0x5D94      |       23956 |
|     240 | 0x5DC1      |       24001 |
|     241 | 0x5DEE      |       24046 |
|     242 | 0x5E1B      |       24091 |
|     243 | 0x5B60      |       23392 |
|     244 | 0x5BA3      |       23459 |
|     245 | 0x5BE6      |       23526 |
|     246 | 0x5C29      |       23593 |
|     247 | 0x5C6C      |       23660 |
|     248 | 0x5D68      |       23912 |
|     249 | 0x5D95      |       23957 |
|     250 | 0x5DC2      |       24002 |
|     251 | 0x5DEF      |       24047 |
|     252 | 0x5E1C      |       24092 |
|     253 | 0x5B61      |       23393 |
|     254 | 0x5BA4      |       23460 |
|     255 | 0x5BE7      |       23527 |
|     256 | 0x5C2A      |       23594 |
|     257 | 0x5C6D      |       23661 |
|     258 | 0x5D69      |       23913 |
|     259 | 0x5D96      |       23958 |
|     260 | 0x5DC3      |       24003 |
|     261 | 0x5DF0      |       24048 |
|     262 | 0x5E1D      |       24093 |
|     263 | 0x5B62      |       23394 |
|     264 | 0x5BA5      |       23461 |
|     265 | 0x5BE8      |       23528 |
|     266 | 0x5C2B      |       23595 |
|     267 | 0x5C6E      |       23662 |
|     268 | 0x5D6A      |       23914 |
|     269 | 0x5D97      |       23959 |
|     270 | 0x5DC4      |       24004 |
|     271 | 0x5DF1      |       24049 |
|     272 | 0x5E1E      |       24094 |
|     273 | 0x5B63      |       23395 |
|     274 | 0x5BA6      |       23462 |
|     275 | 0x5BE9      |       23529 |
|     276 | 0x5C2C      |       23596 |
|     277 | 0x5C6F      |       23663 |
|     278 | 0x5D6B      |       23915 |
|     279 | 0x5D98      |       23960 |
|     280 | 0x5DC5      |       24005 |
|     281 | 0x5DF2      |       24050 |
|     282 | 0x5E1F      |       24095 |
|     283 | 0x5B64      |       23396 |
|     284 | 0x5BA7      |       23463 |
|     285 | 0x5BEA      |       23530 |
|     286 | 0x5C2D      |       23597 |
|     287 | 0x5C70      |       23664 |
|     288 | 0x5D6C      |       23916 |
|     289 | 0x5D99      |       23961 |
|     290 | 0x5DC6      |       24006 |
|     291 | 0x5DF3      |       24051 |
|     292 | 0x5E20      |       24096 |
|     293 | 0x5B65      |       23397 |
|     294 | 0x5BA8      |       23464 |
|     295 | 0x5BEB      |       23531 |
|     296 | 0x5C2E      |       23598 |
|     297 | 0x5C71      |       23665 |
|     298 | 0x5D6D      |       23917 |
|     299 | 0x5D9A      |       23962 |
|     300 | 0x5DC7      |       24007 |
|     301 | 0x5DF4      |       24052 |
|     302 | 0x5E21      |       24097 |

## String References

- **7244**: Welcome to Apollyon. Please present your $3.
- **7245**: ...Credentials not present. Authorizing new issuance.
- **7246**: Registration in progress...
- **7247**: Welcome to Apollyon. This place is designed for the generation of new life-forms.
- **7248**: NW/SW/NE/SE areas contain monsters for recording data in your $3.
- **7249**: Successfully recording data will permit you to open Apollyon Coffers.
- **7250**: You will also be authorized to collect a special currency called Apollyon Units.
- **7251**: Systems are only capable of recording data for each registrant up to five times per week (Earth time).
- **7252**: Apollyon Units can be used in the Apollyon Furnace.
- **7253**: Please use it to your advantage.
- **7254**: Special Limbus buffs known as Grace are also available to those who have deposited a sufficient amount of currency.
- **7255**: The more data, the stronger the Grace.
- **7256**: Your registration is now complete. Currently recording initial data in your $3.
- **7257**: Please set your initial monster level. The higher the level, the more precise the data we can gather.
- **7258**: Your $3 is now fully prepared. Glory to Zilart.
- **7259**: ...
- **7260**: ......
- **7261**: Enter a level value between 119 and $1 to be recorded in your $3.
- **7262**: "$1" has been recorded in your $3.
- **7263**: Enter 0 to cancel.
- **7265**: Increasing the level will reset your progress.
- **7266**: What will you do? [Change level and reset./Never mind.]
- **7269**: Inquire about what? [Level settings./Apollyon./Apollyon Units./The Apollyon Furnace./Equipment list./Grace./Notorious monsters./%./@/@/@/@/Nothing for now.]
- **7270**: Remaining Apollyon Units: $0. Total Apollyon Units: $1/$2.
- **7271**: The Apollyon Furnace uses data to enhance your equipment.
- **7272**: Inquire about which? [Pummeler's Armor./Anchorite Attire./Theophany Attire./Spaekona's Attire./Atrophy Armor./Pillager's Attire./Reverence Armor./Ignominy Armor./Totemic Armor./Brioso Attire./Orion Attire./Wakido Armor./Hachiya Armor./Vishap Armor./Convoker's Attire./Assimilator's Attire./Laksamana Attire./Foire Attire./Maxixi Attire./Academic's Attire./Geomancy Attire./Runeist Attire./Nothing for now.]
- **7274**: Reforging your item into $0 requires $1 and $2 Apollyon Units.
- **7276**: 3 effects: Accuracy+$1@Ranged Accuracy+$1@Magic Accuracy+$1.
- **7277**: $3 effects: BPALL+$3.
- **7278**: $3 effects: Max. HP+$5 EXP Loss Reduction: $6% MEXP Loss Reduction: $6%
- **7290**: I have generated new monsters based on your data.
- **7291**: Here is a quick rundown.
- **7292**: One: they do not take your set level into account.
- **7293**: Two: there are 22 types, but only 4 will appear on any given day (Earth time).
- **7294**: Three: vanquishing them affects the contents of the Apollyon Coffer obtainable four weeks later.
- **7295**: This should enable you to collect even more precise data.
- **7296**: The $0 changes form when one uses Apollyon Units.
- **7297**: It can produce special equipment.
- **7298**: The produced equipment can be further infused.

## Events

### Event 65535

#### Metadata

| Field        | Value   |
|--------------|---------|
| Entrypoint   | 0x0000  |
| Data Size    | 1 bytes |
| Instructions | 1       |

```
      00 01 02 03 04 05 06 07  08 09 0A 0B 0C 0D 0E 0F
      -- -- -- -- -- -- -- --  -- -- -- -- -- -- -- --
0000: 00                                                .               
```

#### Opcodes

```
  0: 0x0000 [0x00] END_REQSTACK()
```

### Event 128

#### Metadata

| Field        | Value     |
|--------------|-----------|
| Entrypoint   | 0x0001    |
| Data Size    | 180 bytes |
| Instructions | 66        |

```
      00 01 02 03 04 05 06 07  08 09 0A 0B 0C 0D 0E 0F
      -- -- -- -- -- -- -- --  -- -- -- -- -- -- -- --
0000:    1E F0 FF FF 7F 1C 00  80 03 02 10 01 80 1D 02   ...............
0010: 80 23 1D 03 80 23 1D 04  80 23 1D 05 80 23 1D 06  .#...#...#...#..
0020: 80 23 1D 07 80 23 1D 08  80 23 1D 09 80 23 1D 0A  .#...#...#...#..
0030: 80 23 1D 0B 80 23 1D 0C  80 23 1D 0D 80 23 1D 0E  .#...#...#...#..
0040: 80 23 1D 0F 80 23 1D 10  80 23 1D 11 80 23 03 03  .#...#...#...#..
0050: 10 12 80 1D 13 80 23 48  14 80 03 01 10 15 80 71  ......#H.......q
0060: 12 00 80 16 80 71 13 02  00 02 02 00 15 80 00 74  .....q.........t
0070: 00 01 B0 00 02 02 00 17  80 04 AD 00 02 02 00 12  ................
0080: 80 05 A7 00 42 03 02 10  01 80 03 03 10 02 00 03  ....B...........
0090: 01 10 02 00 1D 18 80 23  1D 03 80 23 1D 04 80 23  .......#...#...#
00A0: 1D 19 80 23 01 AA 00 01  4E 00 01 B0 00 01 4E 00  ...#....N.....N.
00B0: 2E 20 00 21 00                                    . .!.           
```

#### Opcodes

```
  0: 0x0001 [0x1E] EventEntity looks at LocalPlayer and starts talking
  1: 0x0006 [0x1C] WAIT(1* ticks)
  2: 0x0009 [0x03] Work_Zone[2] = 351*
  3: 0x000E [0x1D] PRINT_EVENT_MESSAGE(message_id=7244*)
    → "Welcome to Apollyon. Please present your $3."
  4: 0x0011 [0x23] WAIT_FOR_DIALOG_INTERACTION
  5: 0x0012 [0x1D] PRINT_EVENT_MESSAGE(message_id=7259*)
    → "..."
  6: 0x0015 [0x23] WAIT_FOR_DIALOG_INTERACTION
  7: 0x0016 [0x1D] PRINT_EVENT_MESSAGE(message_id=7260*)
    → "......"
  8: 0x0019 [0x23] WAIT_FOR_DIALOG_INTERACTION
  9: 0x001A [0x1D] PRINT_EVENT_MESSAGE(message_id=7245*)
    → "...Credentials not present. Authorizing new issuance."
 10: 0x001D [0x23] WAIT_FOR_DIALOG_INTERACTION
 11: 0x001E [0x1D] PRINT_EVENT_MESSAGE(message_id=7246*)
    → "Registration in progress..."
 12: 0x0021 [0x23] WAIT_FOR_DIALOG_INTERACTION
 13: 0x0022 [0x1D] PRINT_EVENT_MESSAGE(message_id=7247*)
    → "Welcome to Apollyon. This place is designed for the generation of new life-forms."
 14: 0x0025 [0x23] WAIT_FOR_DIALOG_INTERACTION
 15: 0x0026 [0x1D] PRINT_EVENT_MESSAGE(message_id=7248*)
    → "NW/SW/NE/SE areas contain monsters for recording data in your $3."
 16: 0x0029 [0x23] WAIT_FOR_DIALOG_INTERACTION
 17: 0x002A [0x1D] PRINT_EVENT_MESSAGE(message_id=7249*)
    → "Successfully recording data will permit you to open Apollyon Coffers."
 18: 0x002D [0x23] WAIT_FOR_DIALOG_INTERACTION
 19: 0x002E [0x1D] PRINT_EVENT_MESSAGE(message_id=7250*)
    → "You will also be authorized to collect a special currency called Apollyon Units."
 20: 0x0031 [0x23] WAIT_FOR_DIALOG_INTERACTION
 21: 0x0032 [0x1D] PRINT_EVENT_MESSAGE(message_id=7251*)
    → "Systems are only capable of recording data for each registrant up to five times per week (Earth time)."
 22: 0x0035 [0x23] WAIT_FOR_DIALOG_INTERACTION
 23: 0x0036 [0x1D] PRINT_EVENT_MESSAGE(message_id=7252*)
    → "Apollyon Units can be used in the Apollyon Furnace."
 24: 0x0039 [0x23] WAIT_FOR_DIALOG_INTERACTION
 25: 0x003A [0x1D] PRINT_EVENT_MESSAGE(message_id=7253*)
    → "Please use it to your advantage."
 26: 0x003D [0x23] WAIT_FOR_DIALOG_INTERACTION
 27: 0x003E [0x1D] PRINT_EVENT_MESSAGE(message_id=7254*)
    → "Special Limbus buffs known as Grace are also available to those who have deposited a sufficient amount of currency."
 28: 0x0041 [0x23] WAIT_FOR_DIALOG_INTERACTION
 29: 0x0042 [0x1D] PRINT_EVENT_MESSAGE(message_id=7255*)
    → "The more data, the stronger the Grace."
 30: 0x0045 [0x23] WAIT_FOR_DIALOG_INTERACTION
 31: 0x0046 [0x1D] PRINT_EVENT_MESSAGE(message_id=7256*)
    → "Your registration is now complete. Currently recording initial data in your $3."
 32: 0x0049 [0x23] WAIT_FOR_DIALOG_INTERACTION
 33: 0x004A [0x1D] PRINT_EVENT_MESSAGE(message_id=7257*)
    → "Please set your initial monster level. The higher the level, the more precise the data we can gather."
 34: 0x004D [0x23] WAIT_FOR_DIALOG_INTERACTION
 35: 0x004E [0x03] Work_Zone[3] = 135*
 36: 0x0053 [0x1D] PRINT_EVENT_MESSAGE(message_id=7261*)
    → "Enter a level value between 119 and $1 to be recorded in your $3."
 37: 0x0056 [0x23] WAIT_FOR_DIALOG_INTERACTION
 38: 0x0057 [0x48] [System] [7263*]:
    → "Enter 0 to cancel."
 39: 0x005A [0x03] Work_Zone[1] = 0*
 40: 0x005F [0x71] USER_INPUT_HANDLER: Open numerical input with params (work=[1*, 3*])
 41: 0x0065 [0x71] USER_INPUT_HANDLER: Process numerical input B (work=ExtData[1]->WorkLocal[2])
 42: 0x0069 [0x02] IF !(ExtData[1]->WorkLocal[2] == 0*) GOTO 0x0074
 43: 0x0071 [0x01] GOTO 0x00B0
 44: 0x0074 [0x02] IF !(ExtData[1]->WorkLocal[2] < 119*) GOTO 0x00AD
 45: 0x007C [0x02] IF !(ExtData[1]->WorkLocal[2] > 135*) GOTO 0x00A7
 46: 0x0084 [0x42] SET_CLI_EVENT_CANCEL_DATA()
 47: 0x0085 [0x03] Work_Zone[2] = 351*
 48: 0x008A [0x03] Work_Zone[3] = ExtData[1]->WorkLocal[2]
 49: 0x008F [0x03] Work_Zone[1] = ExtData[1]->WorkLocal[2]
 50: 0x0094 [0x1D] PRINT_EVENT_MESSAGE(message_id=7262*)
    → ""$1" has been recorded in your $3."
 51: 0x0097 [0x23] WAIT_FOR_DIALOG_INTERACTION
 52: 0x0098 [0x1D] PRINT_EVENT_MESSAGE(message_id=7259*)
    → "..."
 53: 0x009B [0x23] WAIT_FOR_DIALOG_INTERACTION
 54: 0x009C [0x1D] PRINT_EVENT_MESSAGE(message_id=7260*)
    → "......"
 55: 0x009F [0x23] WAIT_FOR_DIALOG_INTERACTION
 56: 0x00A0 [0x1D] PRINT_EVENT_MESSAGE(message_id=7258*)
    → "Your $3 is now fully prepared. Glory to Zilart."
 57: 0x00A3 [0x23] WAIT_FOR_DIALOG_INTERACTION
 58: 0x00A4 [0x01] GOTO 0x00AA
 59: 0x00A7 [0x01] GOTO 0x004E

SUBROUTINE_00AA:
 60: 0x00AA [0x01] GOTO 0x00B0
 61: 0x00AD [0x01] GOTO 0x004E

SUBROUTINE_00B0:
 62: 0x00B0 [0x2E] SET_CLI_EVENT_CANCEL_FLAGS()
 63: 0x00B1 [0x20] SET_CLI_EVENT_UC_FLAG: Unlock player control
 64: 0x00B3 [0x21] END_EVENT
 65: 0x00B4 [0x00] END_REQSTACK()
```

### Event 130

#### Metadata

| Field        | Value      |
|--------------|------------|
| Entrypoint   | 0x00B5     |
| Data Size    | 5379 bytes |
| Instructions | 342        |

```
      00 01 02 03 04 05 06 07  08 09 0A 0B 0C 0D 0E 0F
      -- -- -- -- -- -- -- --  -- -- -- -- -- -- -- --
00B0:                03 07 00  02 10 1E F0 FF FF 7F 1C       ...........
00C0: 00 80 03 03 00 15 80 03  04 00 15 80 03 05 00 15  ................
00D0: 80 03 06 00 15 80 03 02  10 1A 80 24 1B 80 03 00  ...........$....
00E0: 07 00 25 02 00 10 15 80  00 FD 01 03 03 00 00 10  ..%.............
00F0: 03 01 10 00 80 43 00 43  01 03 00 00 02 10 03 01  .....C.C........
0100: 00 03 10 07 00 00 1C 80  03 02 10 01 80 03 03 10  ................
0110: 12 80 1D 13 80 23 48 14  80 02 01 00 15 80 00 24  .....#H........$
0120: 01 01 27 01 48 1D 80 03  01 10 15 80 71 12 00 80  ..'.H.......q...
0130: 16 80 71 13 02 00 02 02  00 15 80 00 41 01 01 FA  ..q.........A...
0140: 01 02 02 00 17 80 04 F7  01 02 02 00 12 80 05 F1  ................
0150: 01 42 02 01 00 15 80 00  7D 01 03 02 10 01 80 03  .B......}.......
0160: 03 10 02 00 40 15 80 1E  80 01 10 00 80 40 1F 80  ....@........@..
0170: 20 80 01 10 02 00 1D 18  80 23 01 EE 01 02 02 00   ........#......
0180: 00 00 02 CE 01 48 1D 80  24 21 80 00 80 15 80 25  .....H..$!.....%
0190: 02 00 10 15 80 00 BB 01  03 02 10 01 80 03 03 10  ................
01A0: 02 00 40 15 80 1E 80 01  10 00 80 40 1F 80 20 80  ..@........@.. .
01B0: 01 10 02 00 1D 18 80 23  01 CB 01 02 00 10 00 80  .......#........
01C0: 00 CB 01 03 01 10 15 80  01 CB 01 01 EE 01 03 02  ................
01D0: 10 01 80 03 03 10 02 00  40 15 80 1E 80 01 10 00  ........@.......
01E0: 80 40 1F 80 20 80 01 10  02 00 1D 18 80 23 01 F4  .@.. ........#..
01F0: 01 01 08 01 01 FA 01 01  08 01 01 B3 12 02 00 10  ................
0200: 00 80 00 39 02 03 03 00  00 10 03 02 10 01 80 1D  ...9............
0210: 07 80 23 1D 08 80 23 1D  09 80 23 1D 0A 80 23 1D  ..#...#...#...#.
0220: 0B 80 23 1D 0C 80 23 1D  0D 80 23 1D 0E 80 23 1D  ..#...#...#...#.
0230: 0F 80 23 01 D6 00 01 B3  12 02 00 10 22 80 00 59  ..#........."..Y
0240: 02 03 03 00 00 10 03 01  10 16 80 43 00 43 01 1D  ...........C.C..
0250: 23 80 23 01 D6 00 01 B3  12 02 00 10 16 80 00 F8  #.#.............
0260: 11 03 03 00 00 10 1D 24  80 23 24 25 80 04 00 15  .......$.#$%....
0270: 80 25 02 00 10 15 80 00  20 03 03 04 00 00 10 03  .%...... .......
0280: 05 00 15 80 9D 0A D7 12  02 10 26 80 1E 80 D4 03  ..........&.....
0290: 15 80 02 10 9D 0A D7 12  03 10 27 80 1E 80 D4 03  ..........'.....
02A0: 00 80 03 10 9D 0A D7 12  04 10 28 80 1E 80 D4 03  ..........(.....
02B0: 22 80 04 10 9D 0A D7 12  05 10 29 80 1E 80 D4 03  ".........).....
02C0: 16 80 05 10 9D 0A D7 12  06 10 2A 80 1E 80 D4 03  ..........*.....
02D0: 2B 80 06 10 D4 02 2C 80  05 00 15 80 25 02 00 10  +.....,.....%...
02E0: 26 80 00 EB 02 01 6A 02  01 1D 03 03 05 00 00 10  &.....j.........
02F0: 9D 0A B7 12 0B 00 00 10  26 80 03 02 10 0B 00 93  ........&.......
0300: 02 10 9D 0A D7 12 03 10  00 10 1E 80 9D 0A C7 12  ................
0310: 04 10 00 10 26 80 1D 2D  80 23 01 84 02 01 F2 11  ....&..-.#......
0320: 02 00 10 00 80 00 CE 03  03 04 00 00 10 03 05 00  ................
0330: 15 80 9D 0A F7 12 02 10  26 80 1E 80 D4 03 15 80  ........&.......
0340: 02 10 9D 0A F7 12 03 10  27 80 1E 80 D4 03 00 80  ........'.......
0350: 03 10 9D 0A F7 12 04 10  28 80 1E 80 D4 03 22 80  ........(.....".
0360: 04 10 9D 0A F7 12 05 10  29 80 1E 80 D4 03 16 80  ........).......
0370: 05 10 9D 0A F7 12 06 10  2A 80 1E 80 D4 03 2B 80  ........*.....+.
0380: 06 10 D4 02 2C 80 05 00  15 80 25 02 00 10 26 80  ....,.....%...&.
0390: 00 99 03 01 6A 02 01 CB  03 03 05 00 00 10 9D 0A  ....j...........
03A0: B7 12 0B 00 00 10 26 80  03 02 10 0B 00 93 02 10  ......&.........
03B0: 9D 0A F7 12 03 10 00 10  1E 80 9D 0A C7 12 04 10  ................
03C0: 00 10 26 80 1D 2D 80 23  01 32 03 01 F2 11 02 00  ..&..-.#.2......
03D0: 10 22 80 00 7C 04 03 04  00 00 10 03 05 00 15 80  ."..|...........
03E0: 9D 0A 17 13 02 10 26 80  1E 80 D4 03 15 80 02 10  ......&.........
03F0: 9D 0A 17 13 03 10 27 80  1E 80 D4 03 00 80 03 10  ......'.........
0400: 9D 0A 17 13 04 10 28 80  1E 80 D4 03 22 80 04 10  ......(....."...
0410: 9D 0A 17 13 05 10 29 80  1E 80 D4 03 16 80 05 10  ......).........
0420: 9D 0A 17 13 06 10 2A 80  1E 80 D4 03 2B 80 06 10  ......*.....+...
0430: D4 02 2C 80 05 00 15 80  25 02 00 10 26 80 00 47  ..,.....%...&..G
0440: 04 01 6A 02 01 79 04 03  05 00 00 10 9D 0A B7 12  ..j..y..........
0450: 0B 00 00 10 26 80 03 02  10 0B 00 93 02 10 9D 0A  ....&...........
0460: 17 13 03 10 00 10 1E 80  9D 0A C7 12 04 10 00 10  ................
0470: 26 80 1D 2D 80 23 01 E0  03 01 F2 11 02 00 10 16  &..-.#..........
0480: 80 00 2A 05 03 04 00 00  10 03 05 00 15 80 9D 0A  ..*.............
0490: 37 13 02 10 26 80 1E 80  D4 03 15 80 02 10 9D 0A  7...&...........
04A0: 37 13 03 10 27 80 1E 80  D4 03 00 80 03 10 9D 0A  7...'...........
04B0: 37 13 04 10 28 80 1E 80  D4 03 22 80 04 10 9D 0A  7...(.....".....
04C0: 37 13 05 10 29 80 1E 80  D4 03 16 80 05 10 9D 0A  7...)...........
04D0: 37 13 06 10 2A 80 1E 80  D4 03 2B 80 06 10 D4 02  7...*.....+.....
04E0: 2C 80 05 00 15 80 25 02  00 10 26 80 00 F5 04 01  ,.....%...&.....
04F0: 6A 02 01 27 05 03 05 00  00 10 9D 0A B7 12 0B 00  j..'............
0500: 00 10 26 80 03 02 10 0B  00 93 02 10 9D 0A 37 13  ..&...........7.
0510: 03 10 00 10 1E 80 9D 0A  C7 12 04 10 00 10 26 80  ..............&.
0520: 1D 2D 80 23 01 8E 04 01  F2 11 02 00 10 2B 80 00  .-.#.........+..
0530: D8 05 03 04 00 00 10 03  05 00 15 80 9D 0A 57 13  ..............W.
0540: 02 10 26 80 1E 80 D4 03  15 80 02 10 9D 0A 57 13  ..&...........W.
0550: 03 10 27 80 1E 80 D4 03  00 80 03 10 9D 0A 57 13  ..'...........W.
0560: 04 10 28 80 1E 80 D4 03  22 80 04 10 9D 0A 57 13  ..(.....".....W.
0570: 05 10 29 80 1E 80 D4 03  16 80 05 10 9D 0A 57 13  ..)...........W.
0580: 06 10 2A 80 1E 80 D4 03  2B 80 06 10 D4 02 2C 80  ..*.....+.....,.
0590: 05 00 15 80 25 02 00 10  26 80 00 A3 05 01 6A 02  ....%...&.....j.
05A0: 01 D5 05 03 05 00 00 10  9D 0A B7 12 0B 00 00 10  ................
05B0: 26 80 03 02 10 0B 00 93  02 10 9D 0A 57 13 03 10  &...........W...
05C0: 00 10 1E 80 9D 0A C7 12  04 10 00 10 26 80 1D 2D  ............&..-
05D0: 80 23 01 3C 05 01 F2 11  02 00 10 26 80 00 86 06  .#.<.......&....
05E0: 03 04 00 00 10 03 05 00  15 80 9D 0A 77 13 02 10  ............w...
05F0: 26 80 1E 80 D4 03 15 80  02 10 9D 0A 77 13 03 10  &...........w...
0600: 27 80 1E 80 D4 03 00 80  03 10 9D 0A 77 13 04 10  '...........w...
0610: 28 80 1E 80 D4 03 22 80  04 10 9D 0A 77 13 05 10  (.....".....w...
0620: 29 80 1E 80 D4 03 16 80  05 10 9D 0A 77 13 06 10  )...........w...
0630: 2A 80 1E 80 D4 03 2B 80  06 10 D4 02 2C 80 05 00  *.....+.....,...
0640: 15 80 25 02 00 10 26 80  00 51 06 01 6A 02 01 83  ..%...&..Q..j...
0650: 06 03 05 00 00 10 9D 0A  B7 12 0B 00 00 10 26 80  ..............&.
0660: 03 02 10 0B 00 93 02 10  9D 0A 77 13 03 10 00 10  ..........w.....
0670: 1E 80 9D 0A C7 12 04 10  00 10 26 80 1D 2D 80 23  ..........&..-.#
0680: 01 EA 05 01 F2 11 02 00  10 27 80 00 34 07 03 04  .........'..4...
0690: 00 00 10 03 05 00 15 80  9D 0A 97 13 02 10 26 80  ..............&.
06A0: 1E 80 D4 03 15 80 02 10  9D 0A 97 13 03 10 27 80  ..............'.
06B0: 1E 80 D4 03 00 80 03 10  9D 0A 97 13 04 10 28 80  ..............(.
06C0: 1E 80 D4 03 22 80 04 10  9D 0A 97 13 05 10 29 80  ....".........).
06D0: 1E 80 D4 03 16 80 05 10  9D 0A 97 13 06 10 2A 80  ..............*.
06E0: 1E 80 D4 03 2B 80 06 10  D4 02 2C 80 05 00 15 80  ....+.....,.....
06F0: 25 02 00 10 26 80 00 FF  06 01 6A 02 01 31 07 03  %...&.....j..1..
0700: 05 00 00 10 9D 0A B7 12  0B 00 00 10 26 80 03 02  ............&...
0710: 10 0B 00 93 02 10 9D 0A  97 13 03 10 00 10 1E 80  ................
0720: 9D 0A C7 12 04 10 00 10  26 80 1D 2D 80 23 01 98  ........&..-.#..
0730: 06 01 F2 11 02 00 10 28  80 00 E2 07 03 04 00 00  .......(........
0740: 10 03 05 00 15 80 9D 0A  B7 13 02 10 26 80 1E 80  ............&...
0750: D4 03 15 80 02 10 9D 0A  B7 13 03 10 27 80 1E 80  ............'...
0760: D4 03 00 80 03 10 9D 0A  B7 13 04 10 28 80 1E 80  ............(...
0770: D4 03 22 80 04 10 9D 0A  B7 13 05 10 29 80 1E 80  ..".........)...
0780: D4 03 16 80 05 10 9D 0A  B7 13 06 10 2A 80 1E 80  ............*...
0790: D4 03 2B 80 06 10 D4 02  2C 80 05 00 15 80 25 02  ..+.....,.....%.
07A0: 00 10 26 80 00 AD 07 01  6A 02 01 DF 07 03 05 00  ..&.....j.......
07B0: 00 10 9D 0A B7 12 0B 00  00 10 26 80 03 02 10 0B  ..........&.....
07C0: 00 93 02 10 9D 0A B7 13  03 10 00 10 1E 80 9D 0A  ................
07D0: C7 12 04 10 00 10 26 80  1D 2D 80 23 01 46 07 01  ......&..-.#.F..
07E0: F2 11 02 00 10 29 80 00  90 08 03 04 00 00 10 03  .....)..........
07F0: 05 00 15 80 9D 0A D7 13  02 10 26 80 1E 80 D4 03  ..........&.....
0800: 15 80 02 10 9D 0A D7 13  03 10 27 80 1E 80 D4 03  ..........'.....
0810: 00 80 03 10 9D 0A D7 13  04 10 28 80 1E 80 D4 03  ..........(.....
0820: 22 80 04 10 9D 0A D7 13  05 10 29 80 1E 80 D4 03  ".........).....
0830: 16 80 05 10 9D 0A D7 13  06 10 2A 80 1E 80 D4 03  ..........*.....
0840: 2B 80 06 10 D4 02 2C 80  05 00 15 80 25 02 00 10  +.....,.....%...
0850: 26 80 00 5B 08 01 6A 02  01 8D 08 03 05 00 00 10  &..[..j.........
0860: 9D 0A B7 12 0B 00 00 10  26 80 03 02 10 0B 00 93  ........&.......
0870: 02 10 9D 0A D7 13 03 10  00 10 1E 80 9D 0A C7 12  ................
0880: 04 10 00 10 26 80 1D 2D  80 23 01 F4 07 01 F2 11  ....&..-.#......
0890: 02 00 10 2A 80 00 3E 09  03 04 00 00 10 03 05 00  ...*..>.........
08A0: 15 80 9D 0A F7 13 02 10  26 80 1E 80 D4 03 15 80  ........&.......
08B0: 02 10 9D 0A F7 13 03 10  27 80 1E 80 D4 03 00 80  ........'.......
08C0: 03 10 9D 0A F7 13 04 10  28 80 1E 80 D4 03 22 80  ........(.....".
08D0: 04 10 9D 0A F7 13 05 10  29 80 1E 80 D4 03 16 80  ........).......
08E0: 05 10 9D 0A F7 13 06 10  2A 80 1E 80 D4 03 2B 80  ........*.....+.
08F0: 06 10 D4 02 2C 80 05 00  15 80 25 02 00 10 26 80  ....,.....%...&.
0900: 00 09 09 01 6A 02 01 3B  09 03 05 00 00 10 9D 0A  ....j..;........
0910: B7 12 0B 00 00 10 26 80  03 02 10 0B 00 93 02 10  ......&.........
0920: 9D 0A F7 13 03 10 00 10  1E 80 9D 0A C7 12 04 10  ................
0930: 00 10 26 80 1D 2D 80 23  01 A2 08 01 F2 11 02 00  ..&..-.#........
0940: 10 1E 80 00 EC 09 03 04  00 00 10 03 05 00 15 80  ................
0950: 9D 0A 17 14 02 10 26 80  1E 80 D4 03 15 80 02 10  ......&.........
0960: 9D 0A 17 14 03 10 27 80  1E 80 D4 03 00 80 03 10  ......'.........
0970: 9D 0A 17 14 04 10 28 80  1E 80 D4 03 22 80 04 10  ......(....."...
0980: 9D 0A 17 14 05 10 29 80  1E 80 D4 03 16 80 05 10  ......).........
0990: 9D 0A 17 14 06 10 2A 80  1E 80 D4 03 2B 80 06 10  ......*.....+...
09A0: D4 02 2C 80 05 00 15 80  25 02 00 10 26 80 00 B7  ..,.....%...&...
09B0: 09 01 6A 02 01 E9 09 03  05 00 00 10 9D 0A B7 12  ..j.............
09C0: 0B 00 00 10 26 80 03 02  10 0B 00 93 02 10 9D 0A  ....&...........
09D0: 17 14 03 10 00 10 1E 80  9D 0A C7 12 04 10 00 10  ................
09E0: 26 80 1D 2D 80 23 01 50  09 01 F2 11 02 00 10 2E  &..-.#.P........
09F0: 80 00 9A 0A 03 04 00 00  10 03 05 00 15 80 9D 0A  ................
0A00: 37 14 02 10 26 80 1E 80  D4 03 15 80 02 10 9D 0A  7...&...........
0A10: 37 14 03 10 27 80 1E 80  D4 03 00 80 03 10 9D 0A  7...'...........
0A20: 37 14 04 10 28 80 1E 80  D4 03 22 80 04 10 9D 0A  7...(.....".....
0A30: 37 14 05 10 29 80 1E 80  D4 03 16 80 05 10 9D 0A  7...)...........
0A40: 37 14 06 10 2A 80 1E 80  D4 03 2B 80 06 10 D4 02  7...*.....+.....
0A50: 2C 80 05 00 15 80 25 02  00 10 26 80 00 65 0A 01  ,.....%...&..e..
0A60: 6A 02 01 97 0A 03 05 00  00 10 9D 0A B7 12 0B 00  j...............
0A70: 00 10 26 80 03 02 10 0B  00 93 02 10 9D 0A 37 14  ..&...........7.
0A80: 03 10 00 10 1E 80 9D 0A  C7 12 04 10 00 10 26 80  ..............&.
0A90: 1D 2D 80 23 01 FE 09 01  F2 11 02 00 10 2F 80 00  .-.#........./..
0AA0: 48 0B 03 04 00 00 10 03  05 00 15 80 9D 0A 57 14  H.............W.
0AB0: 02 10 26 80 1E 80 D4 03  15 80 02 10 9D 0A 57 14  ..&...........W.
0AC0: 03 10 27 80 1E 80 D4 03  00 80 03 10 9D 0A 57 14  ..'...........W.
0AD0: 04 10 28 80 1E 80 D4 03  22 80 04 10 9D 0A 57 14  ..(.....".....W.
0AE0: 05 10 29 80 1E 80 D4 03  16 80 05 10 9D 0A 57 14  ..)...........W.
0AF0: 06 10 2A 80 1E 80 D4 03  2B 80 06 10 D4 02 2C 80  ..*.....+.....,.
0B00: 05 00 15 80 25 02 00 10  26 80 00 13 0B 01 6A 02  ....%...&.....j.
0B10: 01 45 0B 03 05 00 00 10  9D 0A B7 12 0B 00 00 10  .E..............
0B20: 26 80 03 02 10 0B 00 93  02 10 9D 0A 57 14 03 10  &...........W...
0B30: 00 10 1E 80 9D 0A C7 12  04 10 00 10 26 80 1D 2D  ............&..-
0B40: 80 23 01 AC 0A 01 F2 11  02 00 10 30 80 00 F6 0B  .#.........0....
0B50: 03 04 00 00 10 03 05 00  15 80 9D 0A 77 14 02 10  ............w...
0B60: 26 80 1E 80 D4 03 15 80  02 10 9D 0A 77 14 03 10  &...........w...
0B70: 27 80 1E 80 D4 03 00 80  03 10 9D 0A 77 14 04 10  '...........w...
0B80: 28 80 1E 80 D4 03 22 80  04 10 9D 0A 77 14 05 10  (.....".....w...
0B90: 29 80 1E 80 D4 03 16 80  05 10 9D 0A 77 14 06 10  )...........w...
0BA0: 2A 80 1E 80 D4 03 2B 80  06 10 D4 02 2C 80 05 00  *.....+.....,...
0BB0: 15 80 25 02 00 10 26 80  00 C1 0B 01 6A 02 01 F3  ..%...&.....j...
0BC0: 0B 03 05 00 00 10 9D 0A  B7 12 0B 00 00 10 26 80  ..............&.
0BD0: 03 02 10 0B 00 93 02 10  9D 0A 77 14 03 10 00 10  ..........w.....
0BE0: 1E 80 9D 0A C7 12 04 10  00 10 26 80 1D 2D 80 23  ..........&..-.#
0BF0: 01 5A 0B 01 F2 11 02 00  10 31 80 00 A4 0C 03 04  .Z.......1......
0C00: 00 00 10 03 05 00 15 80  9D 0A 97 14 02 10 26 80  ..............&.
0C10: 1E 80 D4 03 15 80 02 10  9D 0A 97 14 03 10 27 80  ..............'.
0C20: 1E 80 D4 03 00 80 03 10  9D 0A 97 14 04 10 28 80  ..............(.
0C30: 1E 80 D4 03 22 80 04 10  9D 0A 97 14 05 10 29 80  ....".........).
0C40: 1E 80 D4 03 16 80 05 10  9D 0A 97 14 06 10 2A 80  ..............*.
0C50: 1E 80 D4 03 2B 80 06 10  D4 02 2C 80 05 00 15 80  ....+.....,.....
0C60: 25 02 00 10 26 80 00 6F  0C 01 6A 02 01 A1 0C 03  %...&..o..j.....
0C70: 05 00 00 10 9D 0A B7 12  0B 00 00 10 26 80 03 02  ............&...
0C80: 10 0B 00 93 02 10 9D 0A  97 14 03 10 00 10 1E 80  ................
0C90: 9D 0A C7 12 04 10 00 10  26 80 1D 2D 80 23 01 08  ........&..-.#..
0CA0: 0C 01 F2 11 02 00 10 32  80 00 52 0D 03 04 00 00  .......2..R.....
0CB0: 10 03 05 00 15 80 9D 0A  B7 14 02 10 26 80 1E 80  ............&...
0CC0: D4 03 15 80 02 10 9D 0A  B7 14 03 10 27 80 1E 80  ............'...
0CD0: D4 03 00 80 03 10 9D 0A  B7 14 04 10 28 80 1E 80  ............(...
0CE0: D4 03 22 80 04 10 9D 0A  B7 14 05 10 29 80 1E 80  ..".........)...
0CF0: D4 03 16 80 05 10 9D 0A  B7 14 06 10 2A 80 1E 80  ............*...
0D00: D4 03 2B 80 06 10 D4 02  2C 80 05 00 15 80 25 02  ..+.....,.....%.
0D10: 00 10 26 80 00 1D 0D 01  6A 02 01 4F 0D 03 05 00  ..&.....j..O....
0D20: 00 10 9D 0A B7 12 0B 00  00 10 26 80 03 02 10 0B  ..........&.....
0D30: 00 93 02 10 9D 0A B7 14  03 10 00 10 1E 80 9D 0A  ................
0D40: C7 12 04 10 00 10 26 80  1D 2D 80 23 01 B6 0C 01  ......&..-.#....
0D50: F2 11 02 00 10 1F 80 00  00 0E 03 04 00 00 10 03  ................
0D60: 05 00 15 80 9D 0A D7 14  02 10 26 80 1E 80 D4 03  ..........&.....
0D70: 15 80 02 10 9D 0A D7 14  03 10 27 80 1E 80 D4 03  ..........'.....
0D80: 00 80 03 10 9D 0A D7 14  04 10 28 80 1E 80 D4 03  ..........(.....
0D90: 22 80 04 10 9D 0A D7 14  05 10 29 80 1E 80 D4 03  ".........).....
0DA0: 16 80 05 10 9D 0A D7 14  06 10 2A 80 1E 80 D4 03  ..........*.....
0DB0: 2B 80 06 10 D4 02 2C 80  05 00 15 80 25 02 00 10  +.....,.....%...
0DC0: 26 80 00 CB 0D 01 6A 02  01 FD 0D 03 05 00 00 10  &.....j.........
0DD0: 9D 0A B7 12 0B 00 00 10  26 80 03 02 10 0B 00 93  ........&.......
0DE0: 02 10 9D 0A D7 14 03 10  00 10 1E 80 9D 0A C7 12  ................
0DF0: 04 10 00 10 26 80 1D 2D  80 23 01 64 0D 01 F2 11  ....&..-.#.d....
0E00: 02 00 10 33 80 00 AE 0E  03 04 00 00 10 03 05 00  ...3............
0E10: 15 80 9D 0A F7 14 02 10  26 80 1E 80 D4 03 15 80  ........&.......
0E20: 02 10 9D 0A F7 14 03 10  27 80 1E 80 D4 03 00 80  ........'.......
0E30: 03 10 9D 0A F7 14 04 10  28 80 1E 80 D4 03 22 80  ........(.....".
0E40: 04 10 9D 0A F7 14 05 10  29 80 1E 80 D4 03 16 80  ........).......
0E50: 05 10 9D 0A F7 14 06 10  2A 80 1E 80 D4 03 2B 80  ........*.....+.
0E60: 06 10 D4 02 2C 80 05 00  15 80 25 02 00 10 26 80  ....,.....%...&.
0E70: 00 79 0E 01 6A 02 01 AB  0E 03 05 00 00 10 9D 0A  .y..j...........
0E80: B7 12 0B 00 00 10 26 80  03 02 10 0B 00 93 02 10  ......&.........
0E90: 9D 0A F7 14 03 10 00 10  1E 80 9D 0A C7 12 04 10  ................
0EA0: 00 10 26 80 1D 2D 80 23  01 12 0E 01 F2 11 02 00  ..&..-.#........
0EB0: 10 34 80 00 DA 0F 03 04  00 00 10 03 05 00 15 80  .4..............
0EC0: 03 01 10 26 80 43 00 43  01 03 0C 00 02 10 02 0C  ...&.C.C........
0ED0: 00 15 80 00 29 0F 9D 0A  17 15 02 10 26 80 1E 80  ....).......&...
0EE0: D4 03 15 80 02 10 9D 0A  17 15 03 10 27 80 1E 80  ............'...
0EF0: D4 03 00 80 03 10 9D 0A  17 15 04 10 28 80 1E 80  ............(...
0F00: D4 03 22 80 04 10 9D 0A  17 15 05 10 29 80 1E 80  ..".........)...
0F10: D4 03 16 80 05 10 9D 0A  17 15 06 10 2A 80 1E 80  ............*...
0F20: D4 03 2B 80 06 10 01 79  0F 9D 0A 37 15 02 10 26  ..+....y...7...&
0F30: 80 1E 80 D4 03 15 80 02  10 9D 0A 37 15 03 10 27  ...........7...'
0F40: 80 1E 80 D4 03 00 80 03  10 9D 0A 37 15 04 10 28  ...........7...(
0F50: 80 1E 80 D4 03 22 80 04  10 9D 0A 37 15 05 10 29  .....".....7...)
0F60: 80 1E 80 D4 03 16 80 05  10 9D 0A 37 15 06 10 2A  ...........7...*
0F70: 80 1E 80 D4 03 2B 80 06  10 D4 02 2C 80 05 00 15  .....+.....,....
0F80: 80 25 02 00 10 26 80 00  90 0F 01 6A 02 01 D7 0F  .%...&.....j....
0F90: 03 05 00 00 10 9D 0A B7  12 0B 00 00 10 26 80 03  .............&..
0FA0: 02 10 0B 00 93 02 10 02  0C 00 15 80 00 BC 0F 9D  ................
0FB0: 0A 17 15 03 10 00 10 1E  80 01 C6 0F 9D 0A 37 15  ..............7.
0FC0: 03 10 00 10 1E 80 9D 0A  C7 12 04 10 00 10 26 80  ..............&.
0FD0: 1D 2D 80 23 01 CE 0E 01  F2 11 02 00 10 35 80 00  .-.#.........5..
0FE0: 88 10 03 04 00 00 10 03  05 00 15 80 9D 0A 57 15  ..............W.
0FF0: 02 10 26 80 1E 80 D4 03  15 80 02 10 9D 0A 57 15  ..&...........W.
1000: 03 10 27 80 1E 80 D4 03  00 80 03 10 9D 0A 57 15  ..'...........W.
1010: 04 10 28 80 1E 80 D4 03  22 80 04 10 9D 0A 57 15  ..(.....".....W.
1020: 05 10 29 80 1E 80 D4 03  16 80 05 10 9D 0A 57 15  ..)...........W.
1030: 06 10 2A 80 1E 80 D4 03  2B 80 06 10 D4 02 2C 80  ..*.....+.....,.
1040: 05 00 15 80 25 02 00 10  26 80 00 53 10 01 6A 02  ....%...&..S..j.
1050: 01 85 10 03 05 00 00 10  9D 0A B7 12 0B 00 00 10  ................
1060: 26 80 03 02 10 0B 00 93  02 10 9D 0A 57 15 03 10  &...........W...
1070: 00 10 1E 80 9D 0A C7 12  04 10 00 10 26 80 1D 2D  ............&..-
1080: 80 23 01 EC 0F 01 F2 11  02 00 10 36 80 00 36 11  .#.........6..6.
1090: 03 04 00 00 10 03 05 00  15 80 9D 0A 77 15 02 10  ............w...
10A0: 26 80 1E 80 D4 03 15 80  02 10 9D 0A 77 15 03 10  &...........w...
10B0: 27 80 1E 80 D4 03 00 80  03 10 9D 0A 77 15 04 10  '...........w...
10C0: 28 80 1E 80 D4 03 22 80  04 10 9D 0A 77 15 05 10  (.....".....w...
10D0: 29 80 1E 80 D4 03 16 80  05 10 9D 0A 77 15 06 10  )...........w...
10E0: 2A 80 1E 80 D4 03 2B 80  06 10 D4 02 2C 80 05 00  *.....+.....,...
10F0: 15 80 25 02 00 10 26 80  00 01 11 01 6A 02 01 33  ..%...&.....j..3
1100: 11 03 05 00 00 10 9D 0A  B7 12 0B 00 00 10 26 80  ..............&.
1110: 03 02 10 0B 00 93 02 10  9D 0A 77 15 03 10 00 10  ..........w.....
1120: 1E 80 9D 0A C7 12 04 10  00 10 26 80 1D 2D 80 23  ..........&..-.#
1130: 01 9A 10 01 F2 11 02 00  10 37 80 00 E4 11 03 04  .........7......
1140: 00 00 10 03 05 00 15 80  9D 0A 97 15 02 10 26 80  ..............&.
1150: 1E 80 D4 03 15 80 02 10  9D 0A 97 15 03 10 27 80  ..............'.
1160: 1E 80 D4 03 00 80 03 10  9D 0A 97 15 04 10 28 80  ..............(.
1170: 1E 80 D4 03 22 80 04 10  9D 0A 97 15 05 10 29 80  ....".........).
1180: 1E 80 D4 03 16 80 05 10  9D 0A 97 15 06 10 2A 80  ..............*.
1190: 1E 80 D4 03 2B 80 06 10  D4 02 2C 80 05 00 15 80  ....+.....,.....
11A0: 25 02 00 10 26 80 00 AF  11 01 6A 02 01 E1 11 03  %...&.....j.....
11B0: 05 00 00 10 9D 0A B7 12  0B 00 00 10 26 80 03 02  ............&...
11C0: 10 0B 00 93 02 10 9D 0A  97 15 03 10 00 10 1E 80  ................
11D0: 9D 0A C7 12 04 10 00 10  26 80 1D 2D 80 23 01 48  ........&..-.#.H
11E0: 11 01 F2 11 02 00 10 38  80 00 F2 11 01 D6 00 01  .......8........
11F0: F2 11 01 D6 00 01 B3 12  02 00 10 2B 80 00 0B 12  ...........+....
1200: 03 03 00 00 10 01 6A 02  01 B3 12 02 00 10 26 80  ......j.......&.
1210: 00 54 12 03 03 00 00 10  03 01 10 2B 80 43 00 43  .T.........+.C.C
1220: 01 02 02 10 15 80 00 2C  12 01 30 12 1D 39 80 23  .......,..0..9.#
1230: 02 04 10 15 80 00 3B 12  01 3F 12 1D 3A 80 23 02  ......;..?..:.#.
1240: 06 10 15 80 00 4A 12 01  4E 12 1D 3B 80 23 01 D6  .....J..N..;.#..
1250: 00 01 B3 12 02 00 10 27  80 00 7F 12 03 03 00 00  .......'........
1260: 10 1D 3C 80 23 1D 3D 80  23 1D 3E 80 23 1D 3F 80  ..<.#.=.#.>.#.?.
1270: 23 1D 40 80 23 1D 41 80  23 01 D6 00 01 B3 12 02  #.@.#.A.#.......
1280: 00 10 28 80 00 A3 12 03  03 00 00 10 03 02 10 1A  ..(.............
1290: 80 1D 42 80 23 1D 43 80  23 1D 44 80 23 01 D6 00  ..B.#.C.#.D.#...
12A0: 01 B3 12 02 00 10 2F 80  00 B3 12 03 01 10 15 80  ....../.........
12B0: 01 B3 12 2E 20 00 21 02  10 03 10 04 10 05 10 06  .... .!.........
12C0: 10 15 80 15 80 15 80 45  80 46 80 47 80 48 80 1A  .......E.F.G.H..
12D0: 80 15 80 15 80 15 80 49  80 4A 80 4B 80 4C 80 4D  .......I.J.K.L.M
12E0: 80 4E 80 4F 80 50 80 51  80 52 80 15 80 15 80 15  .N.O.P.Q.R......
12F0: 80 15 80 15 80 15 80 53  80 54 80 55 80 56 80 57  .......S.T.U.V.W
1300: 80 58 80 59 80 5A 80 5B  80 5C 80 15 80 15 80 15  .X.Y.Z.[.\......
1310: 80 15 80 15 80 15 80 5D  80 5E 80 5F 80 60 80 61  .......].^._.`.a
1320: 80 62 80 63 80 64 80 65  80 66 80 15 80 15 80 15  .b.c.d.e.f......
1330: 80 15 80 15 80 15 80 67  80 68 80 69 80 6A 80 6B  .......g.h.i.j.k
1340: 80 6C 80 6D 80 6E 80 6F  80 70 80 15 80 15 80 15  .l.m.n.o.p......
1350: 80 15 80 15 80 15 80 71  80 72 80 73 80 74 80 75  .......q.r.s.t.u
1360: 80 76 80 77 80 78 80 79  80 7A 80 15 80 15 80 15  .v.w.x.y.z......
1370: 80 15 80 15 80 15 80 7B  80 7C 80 7D 80 7E 80 7F  .......{.|.}.~..
1380: 80 80 80 81 80 82 80 83  80 84 80 15 80 15 80 15  ................
1390: 80 15 80 15 80 15 80 85  80 86 80 87 80 88 80 89  ................
13A0: 80 8A 80 8B 80 8C 80 8D  80 8E 80 15 80 15 80 15  ................
13B0: 80 15 80 15 80 15 80 8F  80 90 80 91 80 92 80 93  ................
13C0: 80 94 80 95 80 96 80 97  80 98 80 15 80 15 80 15  ................
13D0: 80 15 80 15 80 15 80 99  80 9A 80 9B 80 9C 80 9D  ................
13E0: 80 9E 80 9F 80 A0 80 A1  80 A2 80 15 80 15 80 15  ................
13F0: 80 15 80 15 80 15 80 A3  80 A4 80 A5 80 A6 80 A7  ................
1400: 80 A8 80 A9 80 AA 80 AB  80 AC 80 15 80 15 80 15  ................
1410: 80 15 80 15 80 15 80 AD  80 AE 80 AF 80 B0 80 B1  ................
1420: 80 B2 80 B3 80 B4 80 B5  80 B6 80 15 80 15 80 15  ................
1430: 80 15 80 15 80 15 80 B7  80 B8 80 B9 80 BA 80 BB  ................
1440: 80 BC 80 BD 80 BE 80 BF  80 C0 80 15 80 15 80 15  ................
1450: 80 15 80 15 80 15 80 C1  80 C2 80 C3 80 C4 80 C5  ................
1460: 80 C6 80 C7 80 C8 80 C9  80 CA 80 15 80 15 80 15  ................
1470: 80 15 80 15 80 15 80 CB  80 CC 80 CD 80 CE 80 CF  ................
1480: 80 D0 80 D1 80 D2 80 D3  80 D4 80 15 80 15 80 15  ................
1490: 80 15 80 15 80 15 80 D5  80 D6 80 D7 80 D8 80 D9  ................
14A0: 80 DA 80 DB 80 DC 80 DD  80 DE 80 15 80 15 80 15  ................
14B0: 80 15 80 15 80 15 80 DF  80 E0 80 E1 80 E2 80 E3  ................
14C0: 80 E4 80 E5 80 E6 80 E7  80 E8 80 15 80 15 80 15  ................
14D0: 80 15 80 15 80 15 80 E9  80 EA 80 EB 80 EC 80 ED  ................
14E0: 80 EE 80 EF 80 F0 80 F1  80 F2 80 15 80 15 80 15  ................
14F0: 80 15 80 15 80 15 80 F3  80 F4 80 F5 80 F6 80 F7  ................
1500: 80 F8 80 F9 80 FA 80 FB  80 FC 80 15 80 15 80 15  ................
1510: 80 15 80 15 80 15 80 FD  80 FE 80 FF 80 00 81 01  ................
1520: 81 02 81 03 81 04 81 05  81 06 81 15 80 15 80 15  ................
1530: 80 15 80 15 80 15 80 07  81 08 81 09 81 0A 81 0B  ................
1540: 81 0C 81 0D 81 0E 81 0F  81 10 81 15 80 15 80 15  ................
1550: 80 15 80 15 80 15 80 11  81 12 81 13 81 14 81 15  ................
1560: 81 16 81 17 81 18 81 19  81 1A 81 15 80 15 80 15  ................
1570: 80 15 80 15 80 15 80 1B  81 1C 81 1D 81 1E 81 1F  ................
1580: 81 20 81 21 81 22 81 23  81 24 81 15 80 15 80 15  . .!.".#.$......
1590: 80 15 80 15 80 15 80 25  81 26 81 27 81 28 81 29  .......%.&.'.(.)
15A0: 81 2A 81 2B 81 2C 81 2D  81 2E 81 15 80 15 80 15  .*.+.,.-........
15B0: 80 15 80 15 80 15 80 00                           ........        
```

#### Opcodes

```
  0: 0x00B5 [0x03] ExtData[1]->WorkLocal[7] = Work_Zone[2]
  1: 0x00BA [0x1E] EventEntity looks at LocalPlayer and starts talking
  2: 0x00BF [0x1C] WAIT(1* ticks)
  3: 0x00C2 [0x03] ExtData[1]->WorkLocal[3] = 0*
  4: 0x00C7 [0x03] ExtData[1]->WorkLocal[4] = 0*
  5: 0x00CC [0x03] ExtData[1]->WorkLocal[5] = 0*
  6: 0x00D1 [0x03] ExtData[1]->WorkLocal[6] = 0*
  7: 0x00D6 [0x03] Work_Zone[2] = 10000*
  8: 0x00DB [0x24] CREATE_DIALOG(message_id=7269*, default_option=ExtData[1]->WorkLocal[3], option_flags=ExtData[1]->WorkLocal[7])
    → "Inquire about what? [Level settings./Apollyon./Apollyon Units./The Apollyon Furnace./Equipment list./Grace./Notorious monsters./%./@/@/@/@/Nothing for now.]"
  9: 0x00E2 [0x25] WAIT_DIALOG_SELECT()
 10: 0x00E3 [0x02] IF !(Work_Zone[0] == 0*) GOTO 0x01FD
 11: 0x00EB [0x03] ExtData[1]->WorkLocal[3] = Work_Zone[0]
 12: 0x00F0 [0x03] Work_Zone[1] = 1*
 13: 0x00F5 [0x43] SEND_EVENT_UPDATE: Send pending tag to server (packet 0x005B)
 14: 0x00F7 [0x43] SEND_EVENT_UPDATE: Check pending flag (skip if not pending)
 15: 0x00F9 [0x03] ExtData[1]->WorkLocal[0] = Work_Zone[2]
 16: 0x00FE [0x03] ExtData[1]->WorkLocal[1] = Work_Zone[3]
 17: 0x0103 [0x07] ExtData[1]->WorkLocal[0] += 118*
 18: 0x0108 [0x03] Work_Zone[2] = 351*
 19: 0x010D [0x03] Work_Zone[3] = 135*
 20: 0x0112 [0x1D] PRINT_EVENT_MESSAGE(message_id=7261*)
    → "Enter a level value between 119 and $1 to be recorded in your $3."
 21: 0x0115 [0x23] WAIT_FOR_DIALOG_INTERACTION
 22: 0x0116 [0x48] [System] [7263*]:
    → "Enter 0 to cancel."
 23: 0x0119 [0x02] IF !(ExtData[1]->WorkLocal[1] == 0*) GOTO 0x0124
 24: 0x0121 [0x01] GOTO 0x0127
 25: 0x0124 [0x48] [System] [7265*]:
    → "Increasing the level will reset your progress."

SUBROUTINE_0127:
 26: 0x0127 [0x03] Work_Zone[1] = 0*
 27: 0x012C [0x71] USER_INPUT_HANDLER: Open numerical input with params (work=[1*, 3*])
 28: 0x0132 [0x71] USER_INPUT_HANDLER: Process numerical input B (work=ExtData[1]->WorkLocal[2])
 29: 0x0136 [0x02] IF !(ExtData[1]->WorkLocal[2] == 0*) GOTO 0x0141
 30: 0x013E [0x01] GOTO 0x01FA
 31: 0x0141 [0x02] IF !(ExtData[1]->WorkLocal[2] < 119*) GOTO 0x01F7
 32: 0x0149 [0x02] IF !(ExtData[1]->WorkLocal[2] > 135*) GOTO 0x01F1
 33: 0x0151 [0x42] SET_CLI_EVENT_CANCEL_DATA()
 34: 0x0152 [0x02] IF !(ExtData[1]->WorkLocal[1] == 0*) GOTO 0x017D
 35: 0x015A [0x03] Work_Zone[2] = 351*
 36: 0x015F [0x03] Work_Zone[3] = ExtData[1]->WorkLocal[2]
 37: 0x0164 [0x40] SET_BIT_WORK_RANGE(start_bit=0*, end_bit=10*, target=Work_Zone[1], source=1*)
 38: 0x016D [0x40] SET_BIT_WORK_RANGE(start_bit=16*, end_bit=31*, target=Work_Zone[1], source=ExtData[1]->WorkLocal[2])
 39: 0x0176 [0x1D] PRINT_EVENT_MESSAGE(message_id=7262*)
    → ""$1" has been recorded in your $3."
 40: 0x0179 [0x23] WAIT_FOR_DIALOG_INTERACTION
 41: 0x017A [0x01] GOTO 0x01EE
 42: 0x017D [0x02] IF !(ExtData[1]->WorkLocal[2] <= ExtData[1]->WorkLocal[0]) GOTO 0x01CE
 43: 0x0185 [0x48] [System] [7265*]:
    → "Increasing the level will reset your progress."
 44: 0x0188 [0x24] CREATE_DIALOG(message_id=7266*, default_option=1*, option_flags=0*)
    → "What will you do? [Change level and reset./Never mind.]"
 45: 0x018F [0x25] WAIT_DIALOG_SELECT()
 46: 0x0190 [0x02] IF !(Work_Zone[0] == 0*) GOTO 0x01BB
 47: 0x0198 [0x03] Work_Zone[2] = 351*
 48: 0x019D [0x03] Work_Zone[3] = ExtData[1]->WorkLocal[2]
 49: 0x01A2 [0x40] SET_BIT_WORK_RANGE(start_bit=0*, end_bit=10*, target=Work_Zone[1], source=1*)
 50: 0x01AB [0x40] SET_BIT_WORK_RANGE(start_bit=16*, end_bit=31*, target=Work_Zone[1], source=ExtData[1]->WorkLocal[2])
 51: 0x01B4 [0x1D] PRINT_EVENT_MESSAGE(message_id=7262*)
    → ""$1" has been recorded in your $3."
 52: 0x01B7 [0x23] WAIT_FOR_DIALOG_INTERACTION
 53: 0x01B8 [0x01] GOTO 0x01CB
 54: 0x01BB [0x02] IF !(Work_Zone[0] == 1*) GOTO 0x01CB
 55: 0x01C3 [0x03] Work_Zone[1] = 0*
 56: 0x01C8 [0x01] GOTO 0x01CB

SUBROUTINE_01CB:
 57: 0x01CB [0x01] GOTO 0x01EE
 58: 0x01CE [0x03] Work_Zone[2] = 351*
 59: 0x01D3 [0x03] Work_Zone[3] = ExtData[1]->WorkLocal[2]
 60: 0x01D8 [0x40] SET_BIT_WORK_RANGE(start_bit=0*, end_bit=10*, target=Work_Zone[1], source=1*)
 61: 0x01E1 [0x40] SET_BIT_WORK_RANGE(start_bit=16*, end_bit=31*, target=Work_Zone[1], source=ExtData[1]->WorkLocal[2])
 62: 0x01EA [0x1D] PRINT_EVENT_MESSAGE(message_id=7262*)
    → ""$1" has been recorded in your $3."
 63: 0x01ED [0x23] WAIT_FOR_DIALOG_INTERACTION

SUBROUTINE_01EE:
 64: 0x01EE [0x01] GOTO 0x01F4
 65: 0x01F1 [0x01] GOTO 0x0108

SUBROUTINE_01F4:
 66: 0x01F4 [0x01] GOTO 0x01FA
 67: 0x01F7 [0x01] GOTO 0x0108

SUBROUTINE_01FA:
 68: 0x01FA [0x01] GOTO 0x12B3
 69: 0x01FD [0x02] IF !(Work_Zone[0] == 1*) GOTO 0x0239
 70: 0x0205 [0x03] ExtData[1]->WorkLocal[3] = Work_Zone[0]
 71: 0x020A [0x03] Work_Zone[2] = 351*
 72: 0x020F [0x1D] PRINT_EVENT_MESSAGE(message_id=7247*)
    → "Welcome to Apollyon. This place is designed for the generation of new life-forms."
 73: 0x0212 [0x23] WAIT_FOR_DIALOG_INTERACTION
 74: 0x0213 [0x1D] PRINT_EVENT_MESSAGE(message_id=7248*)
    → "NW/SW/NE/SE areas contain monsters for recording data in your $3."
 75: 0x0216 [0x23] WAIT_FOR_DIALOG_INTERACTION
 76: 0x0217 [0x1D] PRINT_EVENT_MESSAGE(message_id=7249*)
    → "Successfully recording data will permit you to open Apollyon Coffers."
 77: 0x021A [0x23] WAIT_FOR_DIALOG_INTERACTION
 78: 0x021B [0x1D] PRINT_EVENT_MESSAGE(message_id=7250*)
    → "You will also be authorized to collect a special currency called Apollyon Units."
 79: 0x021E [0x23] WAIT_FOR_DIALOG_INTERACTION
 80: 0x021F [0x1D] PRINT_EVENT_MESSAGE(message_id=7251*)
    → "Systems are only capable of recording data for each registrant up to five times per week (Earth time)."
 81: 0x0222 [0x23] WAIT_FOR_DIALOG_INTERACTION
 82: 0x0223 [0x1D] PRINT_EVENT_MESSAGE(message_id=7252*)
    → "Apollyon Units can be used in the Apollyon Furnace."
 83: 0x0226 [0x23] WAIT_FOR_DIALOG_INTERACTION
 84: 0x0227 [0x1D] PRINT_EVENT_MESSAGE(message_id=7253*)
    → "Please use it to your advantage."
 85: 0x022A [0x23] WAIT_FOR_DIALOG_INTERACTION
 86: 0x022B [0x1D] PRINT_EVENT_MESSAGE(message_id=7254*)
    → "Special Limbus buffs known as Grace are also available to those who have deposited a sufficient amount of currency."
 87: 0x022E [0x23] WAIT_FOR_DIALOG_INTERACTION
 88: 0x022F [0x1D] PRINT_EVENT_MESSAGE(message_id=7255*)
    → "The more data, the stronger the Grace."
 89: 0x0232 [0x23] WAIT_FOR_DIALOG_INTERACTION
 90: 0x0233 [0x01] GOTO 0x00D6

SUBROUTINE_026A:
 91: 0x026A [0x24] CREATE_DIALOG(message_id=7272*, default_option=ExtData[1]->WorkLocal[4], option_flags=0*)
    → "Inquire about which? [Pummeler's Armor./Anchorite Attire./Theophany Attire./Spaekona's Attire./Atrophy Armor./Pillager's Attire./Reverence Armor./Ignominy Armor./Totemic Armor./Brioso Attire./Orion Attire./Wakido Armor./Hachiya Armor./Vishap Armor./Convoker's Attire./Assimilator's Attire./Laksamana Attire./Foire Attire./Maxixi Attire./Academic's Attire./Geomancy Attire./Runeist Attire./Nothing for now.]"
 92: 0x0271 [0x25] WAIT_DIALOG_SELECT()
 93: 0x0272 [0x02] IF !(Work_Zone[0] == 0*) GOTO 0x0320
 94: 0x027A [0x03] ExtData[1]->WorkLocal[4] = Work_Zone[0]
 95: 0x027F [0x03] ExtData[1]->WorkLocal[5] = 0*

SUBROUTINE_0284:
 96: 0x0284 [0x9D] IF (0x12D7) 5* = Work_Zone[2] // extra=0x801E
 97: 0x028E [0xD4] MAP_QUERY_WINDOW: Prepare buffer configuration A (buffer=[15 80 02 10 9D 0A D7 12...])
 98: 0x02AC [0x1E] EventEntity looks at Unknown NPC (ID: 570676352/0x2203D480) and starts talking
 99: 0x02B1 [0x80] LOAD_WAIT(entity=Unknown NPC (ID: 178065412/0x0A9D1004))
100: 0x02B6 [0xD7] END_LOAD_SCHEDULER_ALT6: End scheduler 0x9D100580 with entities [Unknown NPC (ID: 511715600/0x1E802910), Unknown NPC (ID: 369349760/0x1603D480)], work=0x0512
101: 0x02C5 [0x0A] 0x12D7 &= ~(1 << Work_Zone[6])
102: 0x02CA [0x2A] GET_REQ_LEVEL(level=128, entity_id=Unknown NPC (ID: 64258078/0x03D4801E))
103: 0x02D0 [0x2B] Unknown NPC (ID: 3557820032/0xD4100680) [0x2C02]:
104: 0x02D7 [0x80] LOAD_WAIT(entity=Unknown NPC (ID: 2148859909/0x80150005))
105: 0x02DC [0x25] WAIT_DIALOG_SELECT()
106: 0x02DD [0x02] IF !(Work_Zone[0] == 5*) GOTO 0x02EB
107: 0x02E5 [0x01] GOTO 0x026A

SUBROUTINE_0332:
108: 0x0332 [0x9D] IF (0x12F7) 5* = Work_Zone[2] // extra=0x801E
109: 0x033C [0xD4] MAP_QUERY_WINDOW: Prepare buffer configuration A (buffer=[15 80 02 10 9D 0A F7 12...])
110: 0x035A [0x1E] EventEntity looks at Unknown NPC (ID: 570676352/0x2203D480) and starts talking
111: 0x035F [0x80] LOAD_WAIT(entity=Unknown NPC (ID: 178065412/0x0A9D1004))
112: 0x0364 [0xF7] UNKNOWN_OPCODE_0xF7
113: 0x0365 [0x12] Work_Zone[5] = rand()
114: 0x0368 [0x29] REQ_SET_WAIT(priority=0x80, entity_id=Unknown NPC (ID: 64258078/0x03D4801E), tag_num=0x16)
115: 0x036F [0x80] LOAD_WAIT(entity=Unknown NPC (ID: 178065413/0x0A9D1005))
116: 0x0374 [0xF7] UNKNOWN_OPCODE_0xF7
117: 0x0375 [0x12] Work_Zone[6] = rand()
118: 0x0378 [0x2A] GET_REQ_LEVEL(level=128, entity_id=Unknown NPC (ID: 64258078/0x03D4801E))
119: 0x037E [0x2B] Unknown NPC (ID: 3557820032/0xD4100680) [0x2C02]:
120: 0x0385 [0x80] LOAD_WAIT(entity=Unknown NPC (ID: 2148859909/0x80150005))
121: 0x038A [0x25] WAIT_DIALOG_SELECT()
122: 0x038B [0x02] IF !(Work_Zone[0] == 5*) GOTO 0x0399
123: 0x0393 [0x01] GOTO 0x026A

SUBROUTINE_03E0:
124: 0x03E0 [0x9D] IF (0x1317) 5* = Work_Zone[2] // extra=0x801E
125: 0x03EA [0xD4] MAP_QUERY_WINDOW: Prepare buffer configuration A (buffer=[15 80 02 10 9D 0A 17 13...])
126: 0x0408 [0x1E] EventEntity looks at Unknown NPC (ID: 570676352/0x2203D480) and starts talking
127: 0x040D [0x80] LOAD_WAIT(entity=Unknown NPC (ID: 178065412/0x0A9D1004))
128: 0x0412 [0x17] 0x0513 = cos(0x2910) * 0x1E80
129: 0x0419 [0x80] LOAD_WAIT(entity=Unknown NPC (ID: 2148926420/0x801603D4))
130: 0x041E [0x05] 0x9D10 = 1
131: 0x0421 [0x0A] 0x1317 &= ~(1 << Work_Zone[6])
132: 0x0426 [0x2A] GET_REQ_LEVEL(level=128, entity_id=Unknown NPC (ID: 64258078/0x03D4801E))
133: 0x042C [0x2B] Unknown NPC (ID: 3557820032/0xD4100680) [0x2C02]:
134: 0x0433 [0x80] LOAD_WAIT(entity=Unknown NPC (ID: 2148859909/0x80150005))
135: 0x0438 [0x25] WAIT_DIALOG_SELECT()
136: 0x0439 [0x02] IF !(Work_Zone[0] == 5*) GOTO 0x0447
137: 0x0441 [0x01] GOTO 0x026A

SUBROUTINE_053C:
138: 0x053C [0x9D] IF (0x1357) 5* = Work_Zone[2] // extra=0x801E
139: 0x0546 [0xD4] MAP_QUERY_WINDOW: Prepare buffer configuration A (buffer=[15 80 02 10 9D 0A 57 13...])
140: 0x0564 [0x1E] EventEntity looks at Unknown NPC (ID: 570676352/0x2203D480) and starts talking
141: 0x0569 [0x80] LOAD_WAIT(entity=Unknown NPC (ID: 178065412/0x0A9D1004))
142: 0x056E [0x57] CREATE_FRAME_DELAY(delay=0x0513)
143: 0x0571 [0x10] 8* <<= 10*
144: 0x0576 [0xD4] MAP_QUERY_WINDOW: Prepare buffer configuration A (buffer=[16 80 05 10 9D 0A 57 13...])
145: 0x0594 [0x25] WAIT_DIALOG_SELECT()
146: 0x0595 [0x02] IF !(Work_Zone[0] == 5*) GOTO 0x05A3
147: 0x059D [0x01] GOTO 0x026A

SUBROUTINE_05EA:
148: 0x05EA [0x9D] IF (0x1377) 5* = Work_Zone[2] // extra=0x801E
149: 0x05F4 [0xD4] MAP_QUERY_WINDOW: Prepare buffer configuration A (buffer=[15 80 02 10 9D 0A 77 13...])
150: 0x0612 [0x1E] EventEntity looks at Unknown NPC (ID: 570676352/0x2203D480) and starts talking
151: 0x0617 [0x80] LOAD_WAIT(entity=Unknown NPC (ID: 178065412/0x0A9D1004))
152: 0x061C [0x77] SET_EVENT_TIME_WEATHER(hour=0x0513, weather=0x2910)
153: 0x0621 [0x80] LOAD_WAIT(entity=Unknown NPC (ID: 64258078/0x03D4801E))
154: 0x0626 [0x16] 0x0580 = sin(0x9D10) * 0x770A
155: 0x062D [0x13] Work_Zone[6] = rand() % 9*
156: 0x0632 [0x1E] EventEntity looks at Unknown NPC (ID: 721671296/0x2B03D480) and starts talking
157: 0x0637 [0x80] LOAD_WAIT(entity=Unknown NPC (ID: 47452166/0x02D41006))
158: 0x063C [0x2C] CREATE_SCHEDULER_TASK: Create scheduler 0x00802610 with entities [Unknown NPC (ID: 352322944/0x15000580), Unknown NPC (ID: 140672/0x00022580)]
159: 0x0649 [0x51] END_MAP_SCHEDULER: End scheduler 0x10000005 with entities [Unknown NPC (ID: 40501510/0x026A0106), Unknown NPC (ID: 50758401/0x03068301)]
160: 0x0656 [0x9D] IF (0x12B7) Work_Zone[0] = ExtData[1]->WorkLocal[11] // extra=0x8026
161: 0x0660 [0x03] Work_Zone[2] = ExtData[1]->WorkLocal[11]
162: 0x0665 [0x93] DISPLAY_ITEM_INFO(item_id=Work_Zone[2])
163: 0x0668 [0x9D] IF (0x1377) Work_Zone[0] = Work_Zone[3] // extra=0x801E
164: 0x0672 [0x9D] IF (0x12C7) Work_Zone[0] = Work_Zone[4] // extra=0x8026
165: 0x067C [0x1D] PRINT_EVENT_MESSAGE(message_id=7274*)
    → "Reforging your item into $0 requires $1 and $2 Apollyon Units."
166: 0x067F [0x23] WAIT_FOR_DIALOG_INTERACTION
167: 0x0680 [0x01] GOTO 0x05EA

SUBROUTINE_0746:
168: 0x0746 [0x9D] IF (0x13B7) 5* = Work_Zone[2] // extra=0x801E
169: 0x0750 [0xD4] MAP_QUERY_WINDOW: Prepare buffer configuration A (buffer=[15 80 02 10 9D 0A B7 13...])
170: 0x076E [0x1E] EventEntity looks at Unknown NPC (ID: 570676352/0x2203D480) and starts talking
171: 0x0773 [0x80] LOAD_WAIT(entity=Unknown NPC (ID: 178065412/0x0A9D1004))
172: 0x0778 [0xB7] ENTITY_DATA_HANDLER: Unknown case 0x13 for Unknown NPC (ID: 2150174725/0x80291005)
173: 0x0780 [0xD4] MAP_QUERY_WINDOW: Prepare buffer configuration A (buffer=[16 80 05 10 9D 0A B7 13...])
174: 0x079E [0x25] WAIT_DIALOG_SELECT()
175: 0x079F [0x02] IF !(Work_Zone[0] == 5*) GOTO 0x07AD
176: 0x07A7 [0x01] GOTO 0x026A

SUBROUTINE_07F4:
177: 0x07F4 [0x9D] IF (0x13D7) 5* = Work_Zone[2] // extra=0x801E
178: 0x07FE [0xD4] MAP_QUERY_WINDOW: Prepare buffer configuration A (buffer=[15 80 02 10 9D 0A D7 13...])
179: 0x081C [0x1E] EventEntity looks at Unknown NPC (ID: 570676352/0x2203D480) and starts talking
180: 0x0821 [0x80] LOAD_WAIT(entity=Unknown NPC (ID: 178065412/0x0A9D1004))
181: 0x0826 [0xD7] END_LOAD_SCHEDULER_ALT6: End scheduler 0x9D100580 with entities [Unknown NPC (ID: 511715600/0x1E802910), Unknown NPC (ID: 369349760/0x1603D480)], work=0x0513
182: 0x0835 [0x0A] 0x13D7 &= ~(1 << Work_Zone[6])
183: 0x083A [0x2A] GET_REQ_LEVEL(level=128, entity_id=Unknown NPC (ID: 64258078/0x03D4801E))
184: 0x0840 [0x2B] Unknown NPC (ID: 3557820032/0xD4100680) [0x2C02]:
185: 0x0847 [0x80] LOAD_WAIT(entity=Unknown NPC (ID: 2148859909/0x80150005))
186: 0x084C [0x25] WAIT_DIALOG_SELECT()
187: 0x084D [0x02] IF !(Work_Zone[0] == 5*) GOTO 0x085B
188: 0x0855 [0x01] GOTO 0x026A

SUBROUTINE_08A2:
189: 0x08A2 [0x9D] IF (0x13F7) 5* = Work_Zone[2] // extra=0x801E
190: 0x08AC [0xD4] MAP_QUERY_WINDOW: Prepare buffer configuration A (buffer=[15 80 02 10 9D 0A F7 13...])
191: 0x08CA [0x1E] EventEntity looks at Unknown NPC (ID: 570676352/0x2203D480) and starts talking
192: 0x08CF [0x80] LOAD_WAIT(entity=Unknown NPC (ID: 178065412/0x0A9D1004))
193: 0x08D4 [0xF7] UNKNOWN_OPCODE_0xF7
194: 0x08D5 [0x13] Work_Zone[5] = rand() % 8*
195: 0x08DA [0x1E] EventEntity looks at Unknown NPC (ID: 369349760/0x1603D480) and starts talking
196: 0x08DF [0x80] LOAD_WAIT(entity=Unknown NPC (ID: 178065413/0x0A9D1005))
197: 0x08E4 [0xF7] UNKNOWN_OPCODE_0xF7
198: 0x08E5 [0x13] Work_Zone[6] = rand() % 9*
199: 0x08EA [0x1E] EventEntity looks at Unknown NPC (ID: 721671296/0x2B03D480) and starts talking
200: 0x08EF [0x80] LOAD_WAIT(entity=Unknown NPC (ID: 47452166/0x02D41006))
201: 0x08F4 [0x2C] CREATE_SCHEDULER_TASK: Create scheduler 0x00802610 with entities [Unknown NPC (ID: 352322944/0x15000580), Unknown NPC (ID: 140672/0x00022580)]
202: 0x0901 [0x09] 0x0109 |= (1 << 0x026A)
203: 0x0906 [0x01] GOTO 0x093B

SUBROUTINE_093B:
204: 0x093B [0x01] GOTO 0x11F2
205: 0x093E [0x02] IF !(Work_Zone[0] == 10*) GOTO 0x09EC
206: 0x0946 [0x03] ExtData[1]->WorkLocal[4] = Work_Zone[0]
207: 0x094B [0x03] ExtData[1]->WorkLocal[5] = 0*

SUBROUTINE_0950:
208: 0x0950 [0x9D] IF (0x1417) 5* = Work_Zone[2] // extra=0x801E
209: 0x095A [0xD4] MAP_QUERY_WINDOW: Prepare buffer configuration A (buffer=[15 80 02 10 9D 0A 17 14...])
210: 0x0978 [0x1E] EventEntity looks at Unknown NPC (ID: 570676352/0x2203D480) and starts talking
211: 0x097D [0x80] LOAD_WAIT(entity=Unknown NPC (ID: 178065412/0x0A9D1004))
212: 0x0982 [0x17] 0x0514 = cos(0x2910) * 0x1E80
213: 0x0989 [0x80] LOAD_WAIT(entity=Unknown NPC (ID: 2148926420/0x801603D4))
214: 0x098E [0x05] 0x9D10 = 1
215: 0x0991 [0x0A] 0x1417 &= ~(1 << Work_Zone[6])
216: 0x0996 [0x2A] GET_REQ_LEVEL(level=128, entity_id=Unknown NPC (ID: 64258078/0x03D4801E))
217: 0x099C [0x2B] Unknown NPC (ID: 3557820032/0xD4100680) [0x2C02]:
218: 0x09A3 [0x80] LOAD_WAIT(entity=Unknown NPC (ID: 2148859909/0x80150005))
219: 0x09A8 [0x25] WAIT_DIALOG_SELECT()
220: 0x09A9 [0x02] IF !(Work_Zone[0] == 5*) GOTO 0x09B7
221: 0x09B1 [0x01] GOTO 0x026A

SUBROUTINE_0AAC:
222: 0x0AAC [0x9D] IF (0x1457) 5* = Work_Zone[2] // extra=0x801E
223: 0x0AB6 [0xD4] MAP_QUERY_WINDOW: Prepare buffer configuration A (buffer=[15 80 02 10 9D 0A 57 14...])
224: 0x0AD4 [0x1E] EventEntity looks at Unknown NPC (ID: 570676352/0x2203D480) and starts talking
225: 0x0AD9 [0x80] LOAD_WAIT(entity=Unknown NPC (ID: 178065412/0x0A9D1004))
226: 0x0ADE [0x57] CREATE_FRAME_DELAY(delay=0x0514)
227: 0x0AE1 [0x10] 8* <<= 10*
228: 0x0AE6 [0xD4] MAP_QUERY_WINDOW: Prepare buffer configuration A (buffer=[16 80 05 10 9D 0A 57 14...])
229: 0x0B04 [0x25] WAIT_DIALOG_SELECT()
230: 0x0B05 [0x02] IF !(Work_Zone[0] == 5*) GOTO 0x0B13
231: 0x0B0D [0x01] GOTO 0x026A

SUBROUTINE_0B5A:
232: 0x0B5A [0x9D] IF (0x1477) 5* = Work_Zone[2] // extra=0x801E
233: 0x0B64 [0xD4] MAP_QUERY_WINDOW: Prepare buffer configuration A (buffer=[15 80 02 10 9D 0A 77 14...])
234: 0x0B82 [0x1E] EventEntity looks at Unknown NPC (ID: 570676352/0x2203D480) and starts talking
235: 0x0B87 [0x80] LOAD_WAIT(entity=Unknown NPC (ID: 178065412/0x0A9D1004))
236: 0x0B8C [0x77] SET_EVENT_TIME_WEATHER(hour=0x0514, weather=0x2910)
237: 0x0B91 [0x80] LOAD_WAIT(entity=Unknown NPC (ID: 64258078/0x03D4801E))
238: 0x0B96 [0x16] 0x0580 = sin(0x9D10) * 0x770A
239: 0x0B9D [0x14] Work_Zone[6] *= 9*
240: 0x0BA2 [0x1E] EventEntity looks at Unknown NPC (ID: 721671296/0x2B03D480) and starts talking
241: 0x0BA7 [0x80] LOAD_WAIT(entity=Unknown NPC (ID: 47452166/0x02D41006))
242: 0x0BAC [0x2C] CREATE_SCHEDULER_TASK: Create scheduler 0x00802610 with entities [Unknown NPC (ID: 352322944/0x15000580), Unknown NPC (ID: 140672/0x00022580)]
243: 0x0BB9 [0xC1] KILL_ENTITY_ACTION(entity_id=0x026A010B)
244: 0x0BBE [0x01] GOTO 0x0BF3

SUBROUTINE_0BF3:
245: 0x0BF3 [0x01] GOTO 0x11F2
246: 0x0BF6 [0x02] IF !(Work_Zone[0] == 14*) GOTO 0x0CA4
247: 0x0BFE [0x03] ExtData[1]->WorkLocal[4] = Work_Zone[0]
248: 0x0C03 [0x03] ExtData[1]->WorkLocal[5] = 0*
249: 0x0C08 [0x9D] IF (0x1497) 5* = Work_Zone[2] // extra=0x801E
250: 0x0C12 [0xD4] MAP_QUERY_WINDOW: Prepare buffer configuration A (buffer=[15 80 02 10 9D 0A 97 14...])
251: 0x0C30 [0x1E] EventEntity looks at Unknown NPC (ID: 570676352/0x2203D480) and starts talking
252: 0x0C35 [0x80] LOAD_WAIT(entity=Unknown NPC (ID: 178065412/0x0A9D1004))
253: 0x0C3A [0x97] SAVE_SET_WIND_VALUES(wind_base=0x0514, wind_width=0x2910)
254: 0x0C3F [0x80] LOAD_WAIT(entity=Unknown NPC (ID: 64258078/0x03D4801E))
255: 0x0C44 [0x16] 0x0580 = sin(0x9D10) * 0x970A
256: 0x0C4B [0x14] Work_Zone[6] *= 9*
257: 0x0C50 [0x1E] EventEntity looks at Unknown NPC (ID: 721671296/0x2B03D480) and starts talking
258: 0x0C55 [0x80] LOAD_WAIT(entity=Unknown NPC (ID: 47452166/0x02D41006))
259: 0x0C5A [0x2C] CREATE_SCHEDULER_TASK: Create scheduler 0x00802610 with entities [Unknown NPC (ID: 352322944/0x15000580), Unknown NPC (ID: 140672/0x00022580)]
260: 0x0C67 [0x6F] WAIT_FRAME_DELAY: Yield until WaitTime reaches zero
261: 0x0C68 [0x0C] 0x6A01--
262: 0x0C6B [0x02] IF !(0xA101 > 0x030C) GOTO 0x0000
263: 0x0C73 [0x10] 0x0A9D <<= 0x12B7
264: 0x0C78 [0x0B] ExtData[1]->WorkLocal[0]++
265: 0x0C7B [0x10] 5* <<= 0x0203
266: 0x0C80 [0x10] ExtData[1]->WorkLocal[11] <<= 0x0293
267: 0x0C85 [0x10] 0x0A9D <<= 0x1497
268: 0x0C8A [0x03] ExtData[1]->WorkLocal[16] = 0x1E10
269: 0x0C8F [0x80] LOAD_WAIT(entity=Unknown NPC (ID: 315034269/0x12C70A9D))
270: 0x0C94 [0x04] DEPRECATED_NOP(unused=0x10)
271: 0x0C97 [0x10] 5* <<= 0x2D1D
272: 0x0C9C [0x80] LOAD_WAIT(entity=Unknown NPC (ID: 201851171/0x0C080123))
273: 0x0CA1 [0x01] GOTO 0x11F2
274: 0x0CA4 [0x02] IF !(Work_Zone[0] == 15*) GOTO 0x0D52
275: 0x0CAC [0x03] ExtData[1]->WorkLocal[4] = Work_Zone[0]
276: 0x0CB1 [0x03] ExtData[1]->WorkLocal[5] = 0*

SUBROUTINE_0CB6:
277: 0x0CB6 [0x9D] IF (0x14B7) 5* = Work_Zone[2] // extra=0x801E
278: 0x0CC0 [0xD4] MAP_QUERY_WINDOW: Prepare buffer configuration A (buffer=[15 80 02 10 9D 0A B7 14...])
279: 0x0CDE [0x1E] EventEntity looks at Unknown NPC (ID: 570676352/0x2203D480) and starts talking
280: 0x0CE3 [0x80] LOAD_WAIT(entity=Unknown NPC (ID: 178065412/0x0A9D1004))
281: 0x0CE8 [0xB7] ENTITY_DATA_HANDLER: Unknown case 0x14 for Unknown NPC (ID: 2150174725/0x80291005)
282: 0x0CF0 [0xD4] MAP_QUERY_WINDOW: Prepare buffer configuration A (buffer=[16 80 05 10 9D 0A B7 14...])
283: 0x0D0E [0x25] WAIT_DIALOG_SELECT()
284: 0x0D0F [0x02] IF !(Work_Zone[0] == 5*) GOTO 0x0D1D
285: 0x0D17 [0x01] GOTO 0x026A

SUBROUTINE_0D64:
286: 0x0D64 [0x9D] IF (0x14D7) 5* = Work_Zone[2] // extra=0x801E
287: 0x0D6E [0xD4] MAP_QUERY_WINDOW: Prepare buffer configuration A (buffer=[15 80 02 10 9D 0A D7 14...])
288: 0x0D8C [0x1E] EventEntity looks at Unknown NPC (ID: 570676352/0x2203D480) and starts talking
289: 0x0D91 [0x80] LOAD_WAIT(entity=Unknown NPC (ID: 178065412/0x0A9D1004))
290: 0x0D96 [0xD7] END_LOAD_SCHEDULER_ALT6: End scheduler 0x9D100580 with entities [Unknown NPC (ID: 511715600/0x1E802910), Unknown NPC (ID: 369349760/0x1603D480)], work=0x0514
291: 0x0DA5 [0x0A] 0x14D7 &= ~(1 << Work_Zone[6])
292: 0x0DAA [0x2A] GET_REQ_LEVEL(level=128, entity_id=Unknown NPC (ID: 64258078/0x03D4801E))
293: 0x0DB0 [0x2B] Unknown NPC (ID: 3557820032/0xD4100680) [0x2C02]:
294: 0x0DB7 [0x80] LOAD_WAIT(entity=Unknown NPC (ID: 2148859909/0x80150005))
295: 0x0DBC [0x25] WAIT_DIALOG_SELECT()
296: 0x0DBD [0x02] IF !(Work_Zone[0] == 5*) GOTO 0x0DCB
297: 0x0DC5 [0x01] GOTO 0x026A

SUBROUTINE_0FEC:
298: 0x0FEC [0x9D] IF (0x1557) 5* = Work_Zone[2] // extra=0x801E
299: 0x0FF6 [0xD4] MAP_QUERY_WINDOW: Prepare buffer configuration A (buffer=[15 80 02 10 9D 0A 57 15...])
300: 0x1014 [0x1E] EventEntity looks at Unknown NPC (ID: 570676352/0x2203D480) and starts talking
301: 0x1019 [0x80] LOAD_WAIT(entity=Unknown NPC (ID: 178065412/0x0A9D1004))
302: 0x101E [0x57] CREATE_FRAME_DELAY(delay=0x0515)
303: 0x1021 [0x10] 8* <<= 10*
304: 0x1026 [0xD4] MAP_QUERY_WINDOW: Prepare buffer configuration A (buffer=[16 80 05 10 9D 0A 57 15...])
305: 0x1044 [0x25] WAIT_DIALOG_SELECT()
306: 0x1045 [0x02] IF !(Work_Zone[0] == 5*) GOTO 0x1053
307: 0x104D [0x01] GOTO 0x026A

SUBROUTINE_1148:
308: 0x1148 [0x9D] IF (0x1597) 5* = Work_Zone[2] // extra=0x801E
309: 0x1152 [0xD4] MAP_QUERY_WINDOW: Prepare buffer configuration A (buffer=[15 80 02 10 9D 0A 97 15...])
310: 0x1170 [0x1E] EventEntity looks at Unknown NPC (ID: 570676352/0x2203D480) and starts talking
311: 0x1175 [0x80] LOAD_WAIT(entity=Unknown NPC (ID: 178065412/0x0A9D1004))
312: 0x117A [0x97] SAVE_SET_WIND_VALUES(wind_base=0x0515, wind_width=0x2910)
313: 0x117F [0x80] LOAD_WAIT(entity=Unknown NPC (ID: 64258078/0x03D4801E))
314: 0x1184 [0x16] 0x0580 = sin(0x9D10) * 0x970A
315: 0x118B [0x15] Work_Zone[6] /= 9*
316: 0x1190 [0x1E] EventEntity looks at Unknown NPC (ID: 721671296/0x2B03D480) and starts talking
317: 0x1195 [0x80] LOAD_WAIT(entity=Unknown NPC (ID: 47452166/0x02D41006))
318: 0x119A [0x2C] CREATE_SCHEDULER_TASK: Create scheduler 0x00802610 with entities [Unknown NPC (ID: 352322944/0x15000580), Unknown NPC (ID: 140672/0x00022580)]
319: 0x11A7 [0xAF] GET_CAMERA_POSITION(mode=0x11, x=0x6A01, z=0x0102, y=0x11E1)
320: 0x11AF [0x03] ExtData[1]->WorkLocal[5] = Work_Zone[0]
321: 0x11B4 [0x9D] IF (0x12B7) Work_Zone[0] = ExtData[1]->WorkLocal[11] // extra=0x8026
322: 0x11BE [0x03] Work_Zone[2] = ExtData[1]->WorkLocal[11]
323: 0x11C3 [0x93] DISPLAY_ITEM_INFO(item_id=Work_Zone[2])
324: 0x11C6 [0x9D] IF (0x1597) Work_Zone[0] = Work_Zone[3] // extra=0x801E
325: 0x11D0 [0x9D] IF (0x12C7) Work_Zone[0] = Work_Zone[4] // extra=0x8026
326: 0x11DA [0x1D] PRINT_EVENT_MESSAGE(message_id=7274*)
    → "Reforging your item into $0 requires $1 and $2 Apollyon Units."
327: 0x11DD [0x23] WAIT_FOR_DIALOG_INTERACTION
328: 0x11DE [0x01] GOTO 0x1148

SUBROUTINE_11F2:
329: 0x11F2 [0x01] GOTO 0x00D6

SUBROUTINE_1230:
330: 0x1230 [0x02] IF !(Work_Zone[4] == 0*) GOTO 0x123B
331: 0x1238 [0x01] GOTO 0x123F
332: 0x123B [0x1D] PRINT_EVENT_MESSAGE(message_id=7277*)
    → "$3 effects: BPALL+$3."
333: 0x123E [0x23] WAIT_FOR_DIALOG_INTERACTION

SUBROUTINE_123F:
334: 0x123F [0x02] IF !(Work_Zone[6] == 0*) GOTO 0x124A
335: 0x1247 [0x01] GOTO 0x124E
336: 0x124A [0x1D] PRINT_EVENT_MESSAGE(message_id=7278*)
    → "$3 effects: Max. HP+$5 EXP Loss Reduction: $6% MEXP Loss Reduction: $6%"
337: 0x124D [0x23] WAIT_FOR_DIALOG_INTERACTION

SUBROUTINE_124E:
338: 0x124E [0x01] GOTO 0x00D6

SUBROUTINE_12B3:
339: 0x12B3 [0x2E] SET_CLI_EVENT_CANCEL_FLAGS()
340: 0x12B4 [0x20] SET_CLI_EVENT_UC_FLAG: Unlock player control
341: 0x12B6 [0x21] END_EVENT
```

#### Data or dead code:

```
# Dead code (unreachable instructions):
     0x0236 [0x01] GOTO 0x12B3
     0x0256 [0x01] GOTO 0x12B3
# Dead code (unreachable instructions):
     0x02E8 [0x01] GOTO 0x031D
     0x031D [0x01] GOTO 0x11F2
# Dead code (unreachable instructions):
     0x0396 [0x01] GOTO 0x03CB
     0x03CB [0x01] GOTO 0x11F2
# Dead code (unreachable instructions):
     0x0444 [0x01] GOTO 0x0479
     0x0479 [0x01] GOTO 0x11F2
# Dead code (unreachable instructions):
     0x05A0 [0x01] GOTO 0x05D5
     0x05D5 [0x01] GOTO 0x11F2
# Dead code (unreachable instructions):
     0x0683 [0x01] GOTO 0x11F2
# Dead code (unreachable instructions):
     0x07AA [0x01] GOTO 0x07DF
     0x07DF [0x01] GOTO 0x11F2
# Dead code (unreachable instructions):
     0x0858 [0x01] GOTO 0x088D
     0x088D [0x01] GOTO 0x11F2
# Dead code (unreachable instructions):
     0x0909 [0x03] ExtData[1]->WorkLocal[5] = Work_Zone[0]
     0x090E [0x9D] IF (0x12B7) Work_Zone[0] = ExtData[1]->WorkLocal[11] // extra=0x8026
     0x0918 [0x03] Work_Zone[2] = ExtData[1]->WorkLocal[11]
     0x091D [0x93] DISPLAY_ITEM_INFO(item_id=Work_Zone[2])
     0x0920 [0x9D] IF (0x13F7) Work_Zone[0] = Work_Zone[3] // extra=0x801E
     0x092A [0x9D] IF (0x12C7) Work_Zone[0] = Work_Zone[4] // extra=0x8026
     0x0934 [0x1D] PRINT_EVENT_MESSAGE(message_id=7274*)
    → "Reforging your item into $0 requires $1 and $2 Apollyon Units."
     0x0937 [0x23] WAIT_FOR_DIALOG_INTERACTION
     0x0938 [0x01] GOTO 0x08A2
# Dead code (unreachable instructions):
     0x09B4 [0x01] GOTO 0x09E9
     0x09E9 [0x01] GOTO 0x11F2
# Dead code (unreachable instructions):
     0x0B10 [0x01] GOTO 0x0B45
     0x0B45 [0x01] GOTO 0x11F2
# Dead code (unreachable instructions):
     0x0BC1 [0x03] ExtData[1]->WorkLocal[5] = Work_Zone[0]
     0x0BC6 [0x9D] IF (0x12B7) Work_Zone[0] = ExtData[1]->WorkLocal[11] // extra=0x8026
     0x0BD0 [0x03] Work_Zone[2] = ExtData[1]->WorkLocal[11]
     0x0BD5 [0x93] DISPLAY_ITEM_INFO(item_id=Work_Zone[2])
     0x0BD8 [0x9D] IF (0x1477) Work_Zone[0] = Work_Zone[3] // extra=0x801E
     0x0BE2 [0x9D] IF (0x12C7) Work_Zone[0] = Work_Zone[4] // extra=0x8026
     0x0BEC [0x1D] PRINT_EVENT_MESSAGE(message_id=7274*)
    → "Reforging your item into $0 requires $1 and $2 Apollyon Units."
     0x0BEF [0x23] WAIT_FOR_DIALOG_INTERACTION
     0x0BF0 [0x01] GOTO 0x0B5A
# Dead code (unreachable instructions):
     0x0D1A [0x01] GOTO 0x0D4F
     0x0D4F [0x01] GOTO 0x11F2
# Dead code (unreachable instructions):
     0x0DC8 [0x01] GOTO 0x0DFD
     0x0DFD [0x01] GOTO 0x11F2
     0x0E7C [0x00] END_REQSTACK()
     0x0E7D [0x10] 0x0A9D <<= 0x12B7
     0x0E82 [0x0B] ExtData[1]->WorkLocal[0]++
     0x0E85 [0x10] 5* <<= 0x0203
     0x0E8A [0x10] ExtData[1]->WorkLocal[11] <<= 0x0293
     0x0E8F [0x10] 0x0A9D <<= 0x14F7
     0x0E94 [0x03] ExtData[1]->WorkLocal[16] = 0x1E10
     0x0E99 [0x80] LOAD_WAIT(entity=Unknown NPC (ID: 315034269/0x12C70A9D))
     0x0E9E [0x04] DEPRECATED_NOP(unused=0x10)
     0x0EA1 [0x10] 5* <<= 0x2D1D
     0x0EA6 [0x80] LOAD_WAIT(entity=Unknown NPC (ID: 236060963/0x0E120123))
     0x0EAB [0x01] GOTO 0x11F2
     0x0FB6 [0x10] 10* <<= 0xC601
     0x0FBB [0x0F] 0x0A9D ^= 0x1537
     0x0FC0 [0x03] ExtData[1]->WorkLocal[16] = 0x1E10
     0x0FC5 [0x80] LOAD_WAIT(entity=Unknown NPC (ID: 315034269/0x12C70A9D))
     0x0FCA [0x04] DEPRECATED_NOP(unused=0x10)
     0x0FCD [0x10] 5* <<= 0x2D1D
     0x0FD2 [0x80] LOAD_WAIT(entity=Unknown NPC (ID: 248381731/0x0ECE0123))
     0x0FD7 [0x01] GOTO 0x11F2
# Dead code (unreachable instructions):
     0x1050 [0x01] GOTO 0x1085
     0x1085 [0x01] GOTO 0x11F2
     0x10FC [0x6A] CHANGE_SOUND_VOLUME: Set Effects/System volume to 0x0102, fade_time=Work_Zone_Memorize[51]
     0x1103 [0x00] END_REQSTACK()
     0x1104 [0x00] END_REQSTACK()
     0x1105 [0x10] 0x0A9D <<= 0x12B7
     0x110A [0x0B] ExtData[1]->WorkLocal[0]++
     0x110D [0x10] 5* <<= 0x0203
     0x1112 [0x10] ExtData[1]->WorkLocal[11] <<= 0x0293
     0x1117 [0x10] 0x0A9D <<= 0x1577
     0x111C [0x03] ExtData[1]->WorkLocal[16] = 0x1E10
     0x1121 [0x80] LOAD_WAIT(entity=Unknown NPC (ID: 315034269/0x12C70A9D))
     0x1126 [0x04] DEPRECATED_NOP(unused=0x10)
     0x1129 [0x10] 5* <<= 0x2D1D
     0x112E [0x80] LOAD_WAIT(entity=Unknown NPC (ID: 278528291/0x109A0123))
     0x1133 [0x01] GOTO 0x11F2
# Dead code (unreachable instructions):
     0x11E1 [0x01] GOTO 0x11F2
     0x11EF [0x01] GOTO 0x11F2
# Dead code (unreachable instructions):
     0x11F5 [0x01] GOTO 0x12B3
     0x1208 [0x01] GOTO 0x12B3
# Dead code (unreachable instructions):
     0x1251 [0x01] GOTO 0x12B3
     0x127C [0x01] GOTO 0x12B3
     0x12A0 [0x01] GOTO 0x12B3
# Dead code (unreachable instructions):
     0x12B7 [0x02] IF !(0x0310 == 0x0410) GOTO 0x1005
     0x12BF [0x06] 0x1510 = 0
     0x12C2 [0x80] LOAD_WAIT(entity=Unknown NPC (ID: 2148892693/0x80158015))
     0x12C7 [0x45] LOAD_SCHEDULED_TASK: Load scheduler 0x15801580 with entities [Unknown NPC (ID: 1216366464/0x48804780), Unknown NPC (ID: 360716928/0x15801A80)], work=[0x4680, 0x4980]
     0x12D8 [0x80] LOAD_WAIT(entity=Unknown NPC (ID: 2152431690/0x804B804A))
     0x12DD [0x4C] EventEntity->StatusEvent = 8 // Open door
     0x12DE [0x80] LOAD_WAIT(entity=Unknown NPC (ID: 2152628301/0x804E804D))
     0x12E3 [0x4F] EventEntity->StatusEvent = 0x5080 // Custom event value
     0x12E6 [0x80] LOAD_WAIT(entity=Unknown NPC (ID: 2152890449/0x80528051))
     0x12EB [0x15] 0x1580 /= 0x1580
     0x12F0 [0x80] LOAD_WAIT(entity=Unknown NPC (ID: 2148892693/0x80158015))
     0x12F5 [0x15] 0x5380 /= 0x5480
     0x12FA [0x80] LOAD_WAIT(entity=Unknown NPC (ID: 2153152597/0x80568055))
     0x12FF [0x57] CREATE_FRAME_DELAY(delay=0x5880)
     0x1302 [0x80] LOAD_WAIT(entity=Unknown NPC (ID: 2153414745/0x805A8059))
     0x1307 [0x5B] LOAD_EXT_SCHEDULER: Load scheduler 0x15801580 with entities [Unknown NPC (ID: 360715648/0x15801580), Unknown NPC (ID: 360715648/0x15801580)], work=0x5C80
     0x1316 [0x80] LOAD_WAIT(entity=Unknown NPC (ID: 2153676893/0x805E805D))
     0x131B [0x5F] MULTI_HANDLER_COMPLEX(mode=0x80 - Unknown)
     0x131D [0x60] ADJUST_RENDER_FLAGS1_MULTI: Deprecated mode 0x80 (no operation)
     0x131F [0x61] EventEntity->Render.Flags2 &= ~0x00000001
     0x1321 [0x62] LOAD_EVENT_SCHEDULER: Load scheduler 0x15801580 with entities [Unknown NPC (ID: 1702913152/0x65806480), Unknown NPC (ID: 360736384/0x15806680)], work=[0x6380, 0x1580]
     0x1332 [0x80] LOAD_WAIT(entity=Unknown NPC (ID: 2148892693/0x80158015))
     0x1337 [0x67] HIDE_HUD_ELEMENTS(param1=0x6880, param2=0x6980)
     0x133C [0x80] LOAD_WAIT(entity=Unknown NPC (ID: 2154528874/0x806B806A))
     0x1341 [0x6C] FADE_ENTITY_COLOR(entity_id=Unknown NPC (ID: 1853910400/0x6E806D80), end_alpha=0x6F80, fade_time=0x7080)
     0x134A [0x80] LOAD_WAIT(entity=Unknown NPC (ID: 2148892693/0x80158015))
     0x134F [0x15] 0x1580 /= 0x1580
     0x1354 [0x80] LOAD_WAIT(entity=Unknown NPC (ID: 2154922005/0x80718015))
     0x1359 [0x72] LOAD_EVENT_WEATHER: Unknown mode 128, weather_id=23513*
     0x135D [0x74] EventEntity->Render.Flags1 ^= 0x00
     0x135F [0x75] LOAD_ROOM(Unknown mode 128, room=23899*)
     0x1363 [0x77] SET_EVENT_TIME_WEATHER(hour=0x7880, weather=0x7980)
     0x1368 [0x80] LOAD_WAIT(entity=Unknown NPC (ID: 2148892794/0x8015807A))
     0x136D [0x15] 0x1580 /= 0x1580
     0x1372 [0x80] LOAD_WAIT(entity=Unknown NPC (ID: 2148892693/0x80158015))
     0x1377 [0x7B] Unknown NPC (ID: 2105572480/0x7D807C80) stops talking
     0x137C [0x80] LOAD_WAIT(entity=Unknown NPC (ID: 2155839614/0x807F807E))
     0x1381 [0x80] LOAD_WAIT(entity=Unknown NPC (ID: 2189459840/0x82808180))
     0x1386 [0x80] LOAD_WAIT(entity=Unknown NPC (ID: 2156167299/0x80848083))
     0x138B [0x15] 0x1580 /= 0x1580
     0x1390 [0x80] LOAD_WAIT(entity=Unknown NPC (ID: 2148892693/0x80158015))
     0x1395 [0x15] References[1408] /= References[1664]
     0x139A [0x80] LOAD_WAIT(entity=Unknown NPC (ID: 2156429447/0x80888087))
     0x139F [0x89] OPEN_MAP(map_id=0x00008A80)
     0x13A2 [0x80] LOAD_WAIT(entity=Unknown NPC (ID: 2156691595/0x808C808B))
     0x13A7 [0x8D] OPEN_MAP_WITH_PROPERTIES(map_id=References[3712], properties=0x1580)
     0x13AC [0x80] LOAD_WAIT(entity=Unknown NPC (ID: 2148892693/0x80158015))
     0x13B1 [0x15] 0x1580 /= 0x1580
     0x13B6 [0x80] LOAD_WAIT(entity=Unknown NPC (ID: 2156953743/0x8090808F))
     0x13BB [0x91] ExtData[1]->MainSpeedBase = 0x9280 * 10.0
     0x13BE [0x80] LOAD_WAIT(entity=Unknown NPC (ID: 2157215891/0x80948093))
     0x13C3 [0x95] SETUP_EVENT_NPC: Prepare NPC for event (Render.Flags3 = 0x9680)
     0x13C6 [0x80] LOAD_WAIT(entity=Unknown NPC (ID: 2157478039/0x80988097))
     0x13CB [0x15] 0x1580 /= 0x1580
     0x13D0 [0x80] LOAD_WAIT(entity=Unknown NPC (ID: 2148892693/0x80158015))
     0x13D5 [0x15] 0x9980 /= 0x9A80
     0x13DA [0x80] LOAD_WAIT(entity=Unknown NPC (ID: 2157740187/0x809C809B))
     0x13DF [0x9D] OPCODE_9D[0x80]: Unknown
     0x13E1 [0x9E] SET_RECT_EVENT_SEND_FLAG: Notify client of area movement
     0x13E3 [0x9F] LOAD_SCHEDULED_TASK_ALT: Load scheduler 0x15801580 with entities [Unknown NPC (ID: 2726338944/0xA280A180), Unknown NPC (ID: 360715648/0x15801580)], work=[0xA080, 0x1580]
     0x13F4 [0x80] LOAD_WAIT(entity=Unknown NPC (ID: 2158198805/0x80A38015))
     0x13F9 [0xA4] EventEntity->Flags3.unknown_3_2 = 0
     0x13FB [0xA5] EventEntity->Flags3.BallistaTeam &= ~0x08  // Clear bit 3 of BallistaTeam
     0x13FD [0xA6] REQUEST_EVENT_MAP_NUMBER: Request map info from server (mode 128) (0x00EB packet)
     0x13FF [0xA7] BATTLEFIELD_RESPONSE_WAIT: Wait for server response (Dynamis/MMM/Salvage), mode=0x80
     0x1401 [0xA8] MAP_MARKER_CONTROL: Control markers (flag=0x80), zone=23949*, marker=23994*
     0x1407 [0xAB] ADJUST_ENTITY_FLAGS: Unknown sub_case 0x80
     0x1409 [0xAC] ENTITY_STATUS_HANDLER: Invalid case 0x80 (bad parse?)
     0x140D [0x15] 0x1580 /= 0x1580
     0x1412 [0x80] LOAD_WAIT(entity=Unknown NPC (ID: 2148892693/0x80158015))
     0x1417 [0xAD] DUAL_ENTITY_SCHEDULER_HANDLER: Execute sub-case 0 with entities [Unknown NPC (ID: 2159050927/0x80B080AF), Unknown NPC (ID: 2159182001/0x80B280B1)], work=23452*
     0x1423 [0xB3] RANKINGS_BOARD_HANDLER(case_type=0x80)
     0x1425 [0xB4] UI_WINDOW_STRING_HANDLER(case=0x80 - Unknown case 0x80)
     0x1427 [0xB5] SET_EVENT_ENTITY_NAME: Change EventEntity name to "^"*
     0x142B [0x15] 0x1580 /= 0x1580
     0x1430 [0x80] LOAD_WAIT(entity=Unknown NPC (ID: 2148892693/0x80158015))
     0x1435 [0x15] 0xB780 /= 0xB880
     0x143A [0x80] LOAD_WAIT(entity=Unknown NPC (ID: 2159706297/0x80BA80B9))
     0x143F [0xBB] LOAD_EVENT_SCHEDULER_ALT: Load scheduler 0x15801580 with entities [Unknown NPC (ID: 3196108160/0xBE80BD80), Unknown NPC (ID: 3229663104/0xC080BF80)], work=[0xBC80, 0x1580]
     0x1450 [0x80] LOAD_WAIT(entity=Unknown NPC (ID: 2148892693/0x80158015))
     0x1455 [0x15] 0xC180 /= 0xC280
     0x145A [0x80] LOAD_WAIT(entity=Unknown NPC (ID: 2160361667/0x80C480C3))
     0x145F [0xC5] LOAD_SCHEDULED_TASK_ALT3: Load scheduler 0x15801580 for entities [Unknown NPC (ID: 3363882880/0xC880C780), Unknown NPC (ID: 3397437824/0xCA80C980)], work=0xC680, param=5504
     0x1470 [0x80] LOAD_WAIT(entity=Unknown NPC (ID: 2148892693/0x80158015))
     0x1475 [0x15] 0xCB80 /= 0xCC80
     0x147A [0x80] LOAD_WAIT(entity=Unknown NPC (ID: 2161017037/0x80CE80CD))
     0x147F [0xCF] END_LOAD_SCHEDULER_ALT4: End scheduler 0x15801580 with entities [Unknown NPC (ID: 3531657600/0xD280D180), Unknown NPC (ID: 3565212544/0xD480D380)], work=0xD080
     0x148E [0x80] LOAD_WAIT(entity=Unknown NPC (ID: 2148892693/0x80158015))
     0x1493 [0x15] 0x1580 /= 0xD580
     0x1498 [0x80] LOAD_WAIT(entity=Unknown NPC (ID: 2161606870/0x80D780D6))
     0x149D [0xD8] SET_ENTITY_EVENT_DIR: Unknown mode 0x80 for Unknown NPC (ID: 2161803481/0x80DA80D9)
     0x14A3 [0xDB] UNKNOWN_0xDB
     0x14A4 [0x80] LOAD_WAIT(entity=Unknown NPC (ID: 2162000092/0x80DD80DC))
     0x14A9 [0xDE] UNKNOWN_0xDE
     0x14AA [0x80] LOAD_WAIT(entity=Unknown NPC (ID: 2148892693/0x80158015))
     0x14AF [0x15] 0x1580 /= 0x1580
     0x14B4 [0x80] LOAD_WAIT(entity=Unknown NPC (ID: 2162130965/0x80DF8015))
     0x14B9 [0xE0] UNKNOWN_0xE0
     0x14BA [0x80] LOAD_WAIT(entity=Unknown NPC (ID: 2162327777/0x80E280E1))
     0x14BF [0xE3] UNKNOWN_0xE3
     0x14C0 [0x80] LOAD_WAIT(entity=Unknown NPC (ID: 2162524388/0x80E580E4))
     0x14C5 [0xE6] UNKNOWN_0xE6
     0x14C6 [0x80] LOAD_WAIT(entity=Unknown NPC (ID: 2162720999/0x80E880E7))
     0x14CB [0x15] 0x1580 /= 0x1580
     0x14D0 [0x80] LOAD_WAIT(entity=Unknown NPC (ID: 2148892693/0x80158015))
     0x14D5 [0x15] 0xE980 /= 0xEA80
     0x14DA [0x80] LOAD_WAIT(entity=Unknown NPC (ID: 2162983147/0x80EC80EB))
     0x14DF [0xED] UNKNOWN_0xED
     0x14E0 [0x80] LOAD_WAIT(entity=Unknown NPC (ID: 2163179758/0x80EF80EE))
     0x14E5 [0xF0] UNKNOWN_0xF0
     0x14E6 [0x80] LOAD_WAIT(entity=Unknown NPC (ID: 2163376369/0x80F280F1))
     0x14EB [0x15] 0x1580 /= 0x1580
     0x14F0 [0x80] LOAD_WAIT(entity=Unknown NPC (ID: 2148892693/0x80158015))
     0x14F5 [0x15] 0xF380 /= 0xF480
     0x14FA [0x80] LOAD_WAIT(entity=Unknown NPC (ID: 2163638517/0x80F680F5))
     0x14FF [0xF7] UNKNOWN_0xF7
     0x1500 [0x80] LOAD_WAIT(entity=Unknown NPC (ID: 2163835128/0x80F980F8))
     0x1505 [0xFA] UNKNOWN_0xFA
     0x1506 [0x80] LOAD_WAIT(entity=Unknown NPC (ID: 2164031739/0x80FC80FB))
     0x150B [0x15] 0x1580 /= 0x1580
     0x1510 [0x80] LOAD_WAIT(entity=Unknown NPC (ID: 2148892693/0x80158015))
     0x1515 [0x15] 0xFD80 /= 0xFE80
     0x151A [0x80] LOAD_WAIT(entity=Unknown NPC (ID: 2164293887/0x810080FF))
     0x151F [0x01] GOTO 0x0281
     0x1522 [0x81] SET_ENTITY_BLINKING(blink_flag=0x03, entity=Unknown NPC (ID: 92341377/0x05810481))
     0x1528 [0x81] SET_ENTITY_BLINKING(blink_flag=0x06, entity=Unknown NPC (ID: 360715649/0x15801581))
     0x152E [0x80] LOAD_WAIT(entity=Unknown NPC (ID: 2148892693/0x80158015))
     0x1533 [0x15] 0x1580 /= 0x0780
     0x1538 [0x81] SET_ENTITY_BLINKING(blink_flag=0x08, entity=Unknown NPC (ID: 176228737/0x0A810981))
     0x153E [0x81] SET_ENTITY_BLINKING(blink_flag=0x0B, entity=Unknown NPC (ID: 226561153/0x0D810C81))
     0x1544 [0x81] SET_ENTITY_BLINKING(blink_flag=0x0E, entity=Unknown NPC (ID: 276893569/0x10810F81))
     0x154A [0x81] SET_ENTITY_BLINKING(blink_flag=0x15, entity=Unknown NPC (ID: 360715648/0x15801580))
     0x1550 [0x80] LOAD_WAIT(entity=Unknown NPC (ID: 2148892693/0x80158015))
     0x1555 [0x15] 0x1180 /= 0x1281
     0x155A [0x81] SET_ENTITY_BLINKING(blink_flag=0x13, entity=Unknown NPC (ID: 360780929/0x15811481))
     0x1560 [0x81] SET_ENTITY_BLINKING(blink_flag=0x16, entity=Unknown NPC (ID: 411113345/0x18811781))
     0x1566 [0x81] SET_ENTITY_BLINKING(blink_flag=0x19, entity=Unknown NPC (ID: 360782465/0x15811A81))
     0x156C [0x80] LOAD_WAIT(entity=Unknown NPC (ID: 2148892693/0x80158015))
     0x1571 [0x15] 0x1580 /= 0x1580
     0x1576 [0x80] LOAD_WAIT(entity=Unknown NPC (ID: 2166128923/0x811C811B))
     0x157B [0x1D] PRINT_EVENT_MESSAGE(message_id=0x1E81)
     0x157E [0x81] SET_ENTITY_BLINKING(blink_flag=0x1F, entity=Unknown NPC (ID: 562110593/0x21812081))
     0x1584 [0x81] SET_ENTITY_BLINKING(blink_flag=0x22, entity=Unknown NPC (ID: 612443009/0x24812381))
     0x158A [0x81] SET_ENTITY_BLINKING(blink_flag=0x15, entity=Unknown NPC (ID: 360715648/0x15801580))
     0x1590 [0x80] LOAD_WAIT(entity=Unknown NPC (ID: 2148892693/0x80158015))
     0x1595 [0x15] 0x2580 /= 0x2681
     0x159A [0x81] SET_ENTITY_BLINKING(blink_flag=0x27, entity=Unknown NPC (ID: 696330369/0x29812881))
     0x15A0 [0x81] SET_ENTITY_BLINKING(blink_flag=0x2A, entity=Unknown NPC (ID: 746662785/0x2C812B81))
     0x15A6 [0x81] SET_ENTITY_BLINKING(blink_flag=0x2D, entity=Unknown NPC (ID: 360787585/0x15812E81))
     0x15AC [0x80] LOAD_WAIT(entity=Unknown NPC (ID: 2148892693/0x80158015))
     0x15B1 [0x15] 0x1580 /= 0x1580
     0x15B6 [0x00] END_REQSTACK()
```
