# Event 65535

## Metadata

| Field           | Value    |
|-----------------|----------|
| Event Index     | 27/68    |
| Offset          | 0x0165   |
| Data Size       | 69 bytes |
| Calculated Size | 69 bytes |
| Instructions    | 14       |

```
      00 01 02 03 04 05 06 07  08 09 0A 0B 0C 0D 0E 0F
      -- -- -- -- -- -- -- --  -- -- -- -- -- -- -- --
0160:                7B F8 FF  FF 7F 59 04 F8 FF FF 7F       {....Y.....
0170: 0D 80 1F 00 28 80 29 80  03 80 1F 01 1F 00 2A 80  ....(.).......*.
0180: 2B 80 2C 80 1F 01 1F 00  2D 80 2E 80 15 80 1F 01  +.,.....-.......
0190: 1F 00 2F 80 30 80 12 80  1F 01 6F 4A F8 FF FF 7F  ../.0.....oJ....
01A0: AE 02 05 01 7B F8 FF FF  7F 00                    ....{.....      
```

## Opcodes

```
  0: 0x0165 [0x7B] EventEntity stops talking
  1: 0x016A [0x59] UPDATE_ENTITY_DATA: Set EventEntity main speed = 13* * 0.1
  2: 0x0172 [0x1F] MOVE_ENTITY: EventEntity moves to X=89.928*, Z=112.069*, Y=0.000*
  3: 0x017A [0x1F] MOVE_ENTITY: Update entity position (mode=1)
  4: 0x017C [0x1F] MOVE_ENTITY: EventEntity moves to X=89.027*, Z=117.199*, Y=0.750*
  5: 0x0184 [0x1F] MOVE_ENTITY: Update entity position (mode=1)
  6: 0x0186 [0x1F] MOVE_ENTITY: EventEntity moves to X=88.920*, Z=117.934*, Y=0.999*
  7: 0x018E [0x1F] MOVE_ENTITY: Update entity position (mode=1)
  8: 0x0190 [0x1F] MOVE_ENTITY: EventEntity moves to X=89.319*, Z=119.738*, Y=1.000*
  9: 0x0198 [0x1F] MOVE_ENTITY: Update entity position (mode=1)
 10: 0x019A [0x6F] WAIT_FRAME_DELAY: Yield until WaitTime reaches zero
 11: 0x019B [0x4A] EventEntity looks at Vestillet (ID: 17105582/0x010502AE)
 12: 0x01A4 [0x7B] EventEntity stops talking
 13: 0x01A9 [0x00] END_REQSTACK()
```
