# Event 65535

## Metadata

| Field           | Value    |
|-----------------|----------|
| Event Index     | 31/68    |
| Offset          | 0x01CF   |
| Data Size       | 58 bytes |
| Calculated Size | 58 bytes |
| Instructions    | 14       |

```
      00 01 02 03 04 05 06 07  08 09 0A 0B 0C 0D 0E 0F
      -- -- -- -- -- -- -- --  -- -- -- -- -- -- -- --
01C0:                                               1C                 .
01D0: 34 80 1C 35 80 6E 0E 03  05 01 36 80 99 0E 03 05  4..5.n....6.....
01E0: 01 1C 06 80 6E 12 03 05  01 36 80 99 12 03 05 01  ....n....6......
01F0: 1C 37 80 1C 38 80 6E 18  03 05 01 39 80 99 18 03  .7..8.n....9....
0200: 05 01 1C 3A 80 1C 34 80  00                       ...:..4..       
```

## Opcodes

```
  0: 0x01CF [0x1C] WAIT(180* ticks)
  1: 0x01D2 [0x1C] WAIT(30* ticks)
  2: 0x01D5 [0x6E] Leonoyne (ID: 17105678/0x0105030E) uses emote 7*
  3: 0x01DC [0x99] Wait for Leonoyne (ID: 17105678/0x0105030E) animation to complete
  4: 0x01E1 [0x1C] WAIT(60* ticks)
  5: 0x01E4 [0x6E] Febrenard C Brunnaut (ID: 17105682/0x01050312) uses emote 7*
  6: 0x01EB [0x99] Wait for Febrenard C Brunnaut (ID: 17105682/0x01050312) animation to complete
  7: 0x01F0 [0x1C] WAIT(90* ticks)
  8: 0x01F3 [0x1C] WAIT(80* ticks)
  9: 0x01F6 [0x6E] 04 (ID: 17105688/0x01050318) uses emote 36*
 10: 0x01FD [0x99] Wait for 04 (ID: 17105688/0x01050318) animation to complete
 11: 0x0202 [0x1C] WAIT(100* ticks)
 12: 0x0205 [0x1C] WAIT(180* ticks)
 13: 0x0208 [0x00] END_REQSTACK()
```
