# Event 229

## Metadata

| Field           | Value    |
|-----------------|----------|
| Event Index     | 7/12     |
| Offset          | 0x0050   |
| Data Size       | 24 bytes |
| Calculated Size | 24 bytes |
| Instructions    | 13       |

```
      00 01 02 03 04 05 06 07  08 09 0A 0B 0C 0D 0E 0F
      -- -- -- -- -- -- -- --  -- -- -- -- -- -- -- --
0050: 42 1E F0 FF FF 7F 6F 70  1D 03 80 23 48 04 80 23  B.....op...#H..#
0060: 48 05 80 23 20 00 21 00                           H..# .!.        
```

## Opcodes

```
  0: 0x0050 [0x42] SET_CLI_EVENT_CANCEL_DATA()
  1: 0x0051 [0x1E] EventEntity looks at LocalPlayer and starts talking
  2: 0x0056 [0x6F] WAIT_FRAME_DELAY: Yield until WaitTime reaches zero
  3: 0x0057 [0x70] WAIT_ENTITY_RENDER_FLAG: Wait while EventEntity->Render.Flags3 bit 2 is set (cancel turn if not)
  4: 0x0058 [0x1D] PRINT_EVENT_MESSAGE(message_id=10409*)
    → "Opi!?\u0007Opi-opi!?\u007F1\u0000\u0007"
  5: 0x005B [0x23] WAIT_FOR_DIALOG_INTERACTION
  6: 0x005C [0x48] [System] [10410*]:
    → "It seems as if you handed the Opo-opos the items in the wrong order.\u0000\u0007"
  7: 0x005F [0x23] WAIT_FOR_DIALOG_INTERACTION
  8: 0x0060 [0x48] [System] [10411*]:
    → "Now you have to start again from the beginning...\u0000\u0007"
  9: 0x0063 [0x23] WAIT_FOR_DIALOG_INTERACTION
 10: 0x0064 [0x20] SET_CLI_EVENT_UC_FLAG: Unlock player control
 11: 0x0066 [0x21] END_EVENT
 12: 0x0067 [0x00] END_REQSTACK()
```
