# Event 65535

## Metadata

| Field           | Value    |
|-----------------|----------|
| Event Index     | 6/13     |
| Offset          | 0x0066   |
| Data Size       | 57 bytes |
| Calculated Size | 57 bytes |
| Instructions    | 10       |

```
      00 01 02 03 04 05 06 07  08 09 0A 0B 0C 0D 0E 0F
      -- -- -- -- -- -- -- --  -- -- -- -- -- -- -- --
0060:                   1C 0B  80 66 0A 80 F8 FF FF 7F        ...f......
0070: F8 FF FF 7F 73 68 61 31  53 F8 FF FF 7F F8 FF FF  ....sha1S.......
0080: 7F 73 68 61 31 32 04 80  1F 00 0C 80 0D 80 02 80  .sha12..........
0090: 1F 01 1F 00 0E 80 0F 80  02 80 1F 01 22 01 00     ............".. 
```

## Opcodes

```
  0: 0x0066 [0x1C] WAIT(30* ticks)
  1: 0x0069 [0x66] LOAD_EXT_SCHEDULER_MAIN(work_offset=29*, entity1=EventEntity, entity2=EventEntity, action="sha1")
  2: 0x0078 [0x53] WAIT_SCHEDULER_TASK(entity1=EventEntity, entity2=EventEntity, action_id="sha1")
  3: 0x0085 [0x32] ExtData[1]->MainSpeed = 40* * 0.1
  4: 0x0088 [0x1F] MOVE_ENTITY: EventEntity moves to X=126.296*, Z=116.909*, Y=0.000*
  5: 0x0090 [0x1F] MOVE_ENTITY: Update entity position (mode=1)
  6: 0x0092 [0x1F] MOVE_ENTITY: EventEntity moves to X=102.771*, Z=95.174*, Y=0.000*
  7: 0x009A [0x1F] MOVE_ENTITY: Update entity position (mode=1)
  8: 0x009C [0x22] ENTITY_HIDE_FLAG(enabled=0x01)
  9: 0x009E [0x00] END_REQSTACK()
```
