# Event 3102

## Metadata

| Field           | Value    |
|-----------------|----------|
| Event Index     | 7/25     |
| Offset          | 0x008C   |
| Data Size       | 40 bytes |
| Calculated Size | 40 bytes |
| Instructions    | 12       |

```
      00 01 02 03 04 05 06 07  08 09 0A 0B 0C 0D 0E 0F
      -- -- -- -- -- -- -- --  -- -- -- -- -- -- -- --
0080:                                      1E F0 FF FF              ....
0090: 7F 1C 00 80 1D 0C 80 23  66 01 80 F8 FF FF 7F F8  .......#f.......
00A0: FF FF 7F 69 72 6F 30 1D  0D 80 23 1D 0E 80 23 1C  ...iro0...#...#.
00B0: 00 80 21 00                                       ..!.            
```

## Opcodes

```
  0: 0x008C [0x1E] EventEntity looks at LocalPlayer and starts talking
  1: 0x0091 [0x1C] WAIT(30* ticks)
  2: 0x0094 [0x1D] PRINT_EVENT_MESSAGE(message_id=10954*)
    → "Doctor Shan--\u0007Ah, Lady Karababa means to enter the Navukgo Execution Chamber!?\u007F1\u0000\u0007"
  3: 0x0097 [0x23] WAIT_FOR_DIALOG_INTERACTION
  4: 0x0098 [0x66] LOAD_EXT_SCHEDULER_MAIN: Load scheduler "iro0" with entities [EventEntity, EventEntity], work=40*
  5: 0x00A7 [0x1D] PRINT_EVENT_MESSAGE(message_id=10955*)
    → "Hmmm.\u0007But at least I have been charged with finding an exemplary alchemist!\u007F1\u0000\u0007"
  6: 0x00AA [0x23] WAIT_FOR_DIALOG_INTERACTION
  7: 0x00AB [0x1D] PRINT_EVENT_MESSAGE(message_id=10956*)
    → "Lady Karababa needs me after all!\u0007So much safer to be needed...\u007F1\u0000\u0007"
  8: 0x00AE [0x23] WAIT_FOR_DIALOG_INTERACTION
  9: 0x00AF [0x1C] WAIT(30* ticks)
 10: 0x00B2 [0x21] END_EVENT
 11: 0x00B3 [0x00] END_REQSTACK()
```
