# Event 3104

## Metadata

| Field           | Value    |
|-----------------|----------|
| Event Index     | 9/25     |
| Offset          | 0x00E8   |
| Data Size       | 40 bytes |
| Calculated Size | 40 bytes |
| Instructions    | 12       |

```
      00 01 02 03 04 05 06 07  08 09 0A 0B 0C 0D 0E 0F
      -- -- -- -- -- -- -- --  -- -- -- -- -- -- -- --
00E0:                          1E F0 FF FF 7F 1C 00 80          ........
00F0: 1D 12 80 23 66 01 80 F8  FF FF 7F F8 FF FF 7F 73  ...#f..........s
0100: 79 75 30 1D 13 80 23 1D  14 80 23 1C 00 80 21 00  yu0...#...#...!.
```

## Opcodes

```
  0: 0x00E8 [0x1E] EventEntity looks at LocalPlayer and starts talking
  1: 0x00ED [0x1C] WAIT(30* ticks)
  2: 0x00F0 [0x1D] PRINT_EVENT_MESSAGE(message_id=10960*)
    → "An invitation to a banquet at the palace!\u007F1\u0000\u0007"
  3: 0x00F3 [0x23] WAIT_FOR_DIALOG_INTERACTION
  4: 0x00F4 [0x66] LOAD_EXT_SCHEDULER_MAIN: Load scheduler "syu0" with entities [EventEntity, EventEntity], work=40*
  5: 0x0103 [0x1D] PRINT_EVENT_MESSAGE(message_id=10961*)
    → "Wow, even the Grand Vizier recognized Lady Karababa's importance.\u007F1\u0000\u0007"
  6: 0x0106 [0x23] WAIT_FOR_DIALOG_INTERACTION
  7: 0x0107 [0x1D] PRINT_EVENT_MESSAGE(message_id=10962*)
    → "Oh! I should get my dinner suit ready!\u0007They'll probably be here for me at any moment!\u007F1\u0000\u0007"
  8: 0x010A [0x23] WAIT_FOR_DIALOG_INTERACTION
  9: 0x010B [0x1C] WAIT(30* ticks)
 10: 0x010E [0x21] END_EVENT
 11: 0x010F [0x00] END_REQSTACK()
```
