# Event 65535

## Metadata

| Field           | Value    |
|-----------------|----------|
| Event Index     | 11/12    |
| Offset          | 0x0421   |
| Data Size       | 52 bytes |
| Calculated Size | 52 bytes |
| Instructions    | 4        |

```
      00 01 02 03 04 05 06 07  08 09 0A 0B 0C 0D 0E 0F
      -- -- -- -- -- -- -- --  -- -- -- -- -- -- -- --
0420:    D0 28 80 0F 33 12 01  0F 33 12 01 62 61 72 69   .(..3...3..bari
0430: 01 80 D0 28 80 12 33 12  01 12 33 12 01 62 61 72  ...(..3...3..bar
0440: 69 01 80 D0 28 80 11 33  12 01 11 33 12 01 62 61  i...(..3...3..ba
0450: 72 69 01 80 00                                    ri...           
```

## Opcodes

```
  0: 0x0421 [0xD0] LOAD_SCHEDULED_TASK_ALT5(work_offset=189*, entity1=Lilisette (ID: 17969935/0x0112330F), entity2=Lilisette (ID: 17969935/0x0112330F), action="bari", work_offset2=0*)
  1: 0x0432 [0xD0] LOAD_SCHEDULED_TASK_ALT5(work_offset=189*, entity1=Maat (ID: 17969938/0x01123312), entity2=Maat (ID: 17969938/0x01123312), action="bari", work_offset2=0*)
  2: 0x0443 [0xD0] LOAD_SCHEDULED_TASK_ALT5(work_offset=189*, entity1=Aldo (ID: 17969937/0x01123311), entity2=Aldo (ID: 17969937/0x01123311), action="bari", work_offset2=0*)
  3: 0x0454 [0x00] END_REQSTACK()
```
