# Event 65535

## Metadata

| Field           | Value    |
|-----------------|----------|
| Event Index     | 10/12    |
| Offset          | 0x03ED   |
| Data Size       | 52 bytes |
| Calculated Size | 52 bytes |
| Instructions    | 4        |

```
      00 01 02 03 04 05 06 07  08 09 0A 0B 0C 0D 0E 0F
      -- -- -- -- -- -- -- --  -- -- -- -- -- -- -- --
03E0:                                         D0 27 80               .'.
03F0: 15 33 12 01 15 33 12 01  78 78 78 78 01 80 D0 27  .3...3..xxxx...'
0400: 80 16 33 12 01 16 33 12  01 78 78 78 78 01 80 D0  ..3...3..xxxx...
0410: 27 80 1F 33 12 01 1F 33  12 01 78 78 78 78 01 80  '..3...3..xxxx..
0420: 00                                                .               
```

## Opcodes

```
  0: 0x03ED [0xD0] LOAD_SCHEDULED_TASK_ALT5(work_offset=188*, entity1=Trion (ID: 17969941/0x01123315), entity2=Trion (ID: 17969941/0x01123315), action="xxxx", work_offset2=0*)
  1: 0x03FE [0xD0] LOAD_SCHEDULED_TASK_ALT5(work_offset=188*, entity1=Curilla (ID: 17969942/0x01123316), entity2=Curilla (ID: 17969942/0x01123316), action="xxxx", work_offset2=0*)
  2: 0x040F [0xD0] LOAD_SCHEDULED_TASK_ALT5(work_offset=188*, entity1=Ulmia (ID: 17969951/0x0112331F), entity2=Ulmia (ID: 17969951/0x0112331F), action="xxxx", work_offset2=0*)
  3: 0x0420 [0x00] END_REQSTACK()
```
