# Event 65535

## Metadata

| Field           | Value    |
|-----------------|----------|
| Event Index     | 12/12    |
| Offset          | 0x0455   |
| Data Size       | 58 bytes |
| Calculated Size | 58 bytes |
| Instructions    | 6        |

```
      00 01 02 03 04 05 06 07  08 09 0A 0B 0C 0D 0E 0F
      -- -- -- -- -- -- -- --  -- -- -- -- -- -- -- --
0450:                D0 27 80  11 33 12 01 11 33 12 01       .'..3...3..
0460: 61 6C 64 30 01 80 1C 29  80 D0 27 80 12 33 12 01  ald0...)..'..3..
0470: 12 33 12 01 63 68 6B 30  01 80 1C 2A 80 D0 27 80  .3..chk0...*..'.
0480: 17 33 12 01 17 33 12 01  63 68 6B 30 01 80 00     .3...3..chk0... 
```

## Opcodes

```
  0: 0x0455 [0xD0] LOAD_SCHEDULED_TASK_ALT5(work_offset=188*, entity1=Aldo (ID: 17969937/0x01123311), entity2=Aldo (ID: 17969937/0x01123311), action="ald0", work_offset2=0*)
  1: 0x0466 [0x1C] WAIT(176* ticks)
  2: 0x0469 [0xD0] LOAD_SCHEDULED_TASK_ALT5(work_offset=188*, entity1=Maat (ID: 17969938/0x01123312), entity2=Maat (ID: 17969938/0x01123312), action="chk0", work_offset2=0*)
  3: 0x047A [0x1C] WAIT(15* ticks)
  4: 0x047D [0xD0] LOAD_SCHEDULED_TASK_ALT5(work_offset=188*, entity1=Shantotto (ID: 17969943/0x01123317), entity2=Shantotto (ID: 17969943/0x01123317), action="chk0", work_offset2=0*)
  5: 0x048E [0x00] END_REQSTACK()
```
