# Event 21

## Metadata

| Field           | Value    |
|-----------------|----------|
| Event Index     | 55/63    |
| Offset          | 0x07D6   |
| Data Size       | 33 bytes |
| Calculated Size | 33 bytes |
| Instructions    | 12       |

```
      00 01 02 03 04 05 06 07  08 09 0A 0B 0C 0D 0E 0F
      -- -- -- -- -- -- -- --  -- -- -- -- -- -- -- --
07D0:                   1E F0  FF FF 7F 6F 70 29 08 EC        .....op)..
07E0: B0 00 01 0F 1D 42 80 23  1D 43 80 23 29 08 EC B0  .....B.#.C.#)...
07F0: 00 01 10 20 00 21 00                              ... .!.         
```

## Opcodes

```
  0: 0x07D6 [0x1E] EventEntity looks at LocalPlayer and starts talking
  1: 0x07DB [0x6F] WAIT_FRAME_DELAY: Yield until WaitTime reaches zero
  2: 0x07DC [0x70] WAIT_ENTITY_RENDER_FLAG: Wait while EventEntity->Render.Flags3 bit 2 is set (cancel turn if not)
  3: 0x07DD [0x29] REQ_SET_WAIT(priority=0x08, entity_id=Koblakiq (ID: 16822508/0x0100B0EC), tag_num=0x0F)
  4: 0x07E4 [0x1D] PRINT_EVENT_MESSAGE(message_id=7883*)
    → "You!\u0007Go to Castle Zvahl and bring back \u0001\u0001\u0001 \u0001\u0005$\u0002\u0001\u0000\u0000!\u007F1\u0000\u0007"
  5: 0x07E7 [0x23] WAIT_FOR_DIALOG_INTERACTION
  6: 0x07E8 [0x1D] PRINT_EVENT_MESSAGE(message_id=7884*)
    → "And be quick, 'cause once Zeelozok makes up his mind, he plunges right in.\u0007Go on, scoot!\u007F1\u0000\u0007"
  7: 0x07EB [0x23] WAIT_FOR_DIALOG_INTERACTION
  8: 0x07EC [0x29] REQ_SET_WAIT(priority=0x08, entity_id=Koblakiq (ID: 16822508/0x0100B0EC), tag_num=0x10)
  9: 0x07F3 [0x20] SET_CLI_EVENT_UC_FLAG: Unlock player control
 10: 0x07F5 [0x21] END_EVENT
 11: 0x07F6 [0x00] END_REQSTACK()
```
