# Event 65535

## Metadata

| Field           | Value    |
|-----------------|----------|
| Event Index     | 15/21    |
| Offset          | 0x00C6   |
| Data Size       | 54 bytes |
| Calculated Size | 54 bytes |
| Instructions    | 12       |

```
      00 01 02 03 04 05 06 07  08 09 0A 0B 0C 0D 0E 0F
      -- -- -- -- -- -- -- --  -- -- -- -- -- -- -- --
00C0:                   32 01  80 1F 00 17 80 18 80 19        2.........
00D0: 80 1F 01 1F 00 1A 80 1B  80 1C 80 1F 01 1F 00 1D  ................
00E0: 80 1E 80 1F 80 1F 01 1F  00 20 80 21 80 22 80 1F  ......... .!."..
00F0: 01 1F 00 23 80 24 80 22  80 1F 01 00              ...#.$."....    
```

## Opcodes

```
  0: 0x00C6 [0x32] ExtData[1]->MainSpeed = 40* * 0.1
  1: 0x00C9 [0x1F] MOVE_ENTITY: EventEntity moves to X=-247.034*, Z=33.843*, Y=-3.398*
  2: 0x00D1 [0x1F] MOVE_ENTITY: Update entity position (mode=1)
  3: 0x00D3 [0x1F] MOVE_ENTITY: EventEntity moves to X=-248.828*, Z=35.183*, Y=-2.800*
  4: 0x00DB [0x1F] MOVE_ENTITY: Update entity position (mode=1)
  5: 0x00DD [0x1F] MOVE_ENTITY: EventEntity moves to X=-250.280*, Z=37.613*, Y=-1.999*
  6: 0x00E5 [0x1F] MOVE_ENTITY: Update entity position (mode=1)
  7: 0x00E7 [0x1F] MOVE_ENTITY: EventEntity moves to X=-251.168*, Z=40.476*, Y=-1.000*
  8: 0x00EF [0x1F] MOVE_ENTITY: Update entity position (mode=1)
  9: 0x00F1 [0x1F] MOVE_ENTITY: EventEntity moves to X=-252.069*, Z=52.958*, Y=-1.000*
 10: 0x00F9 [0x1F] MOVE_ENTITY: Update entity position (mode=1)
 11: 0x00FB [0x00] END_REQSTACK()
```
