# Event 65535

## Metadata

| Field           | Value    |
|-----------------|----------|
| Event Index     | 22/34    |
| Offset          | 0x021F   |
| Data Size       | 66 bytes |
| Calculated Size | 66 bytes |
| Instructions    | 16       |

```
      00 01 02 03 04 05 06 07  08 09 0A 0B 0C 0D 0E 0F
      -- -- -- -- -- -- -- --  -- -- -- -- -- -- -- --
0210:                                               32                 2
0220: 35 80 1F 00 3A 80 3B 80  3C 80 1F 01 1C 46 80 1F  5...:.;.<....F..
0230: 00 3D 80 3E 80 3F 80 1F  01 1C 46 80 1F 00 40 80  .=.>.?....F...@.
0240: 41 80 42 80 1F 01 1C 46  80 1F 00 43 80 44 80 45  A.B....F...C.D.E
0250: 80 1F 01 1C 46 80 1F 00  36 80 37 80 38 80 1F 01  ....F...6.7.8...
0260: 00                                                .               
```

## Opcodes

```
  0: 0x021F [0x32] ExtData[1]->MainSpeed = 19* * 0.1
  1: 0x0222 [0x1F] MOVE_ENTITY: EventEntity moves to X=-601.910*, Z=587.743*, Y=0.274*
  2: 0x022A [0x1F] MOVE_ENTITY: Update entity position (mode=1)
  3: 0x022C [0x1C] WAIT(30* ticks)
  4: 0x022F [0x1F] MOVE_ENTITY: EventEntity moves to X=-600.199*, Z=588.994*, Y=0.347*
  5: 0x0237 [0x1F] MOVE_ENTITY: Update entity position (mode=1)
  6: 0x0239 [0x1C] WAIT(30* ticks)
  7: 0x023C [0x1F] MOVE_ENTITY: EventEntity moves to X=-599.211*, Z=586.089*, Y=0.586*
  8: 0x0244 [0x1F] MOVE_ENTITY: Update entity position (mode=1)
  9: 0x0246 [0x1C] WAIT(30* ticks)
 10: 0x0249 [0x1F] MOVE_ENTITY: EventEntity moves to X=-599.391*, Z=583.375*, Y=0.830*
 11: 0x0251 [0x1F] MOVE_ENTITY: Update entity position (mode=1)
 12: 0x0253 [0x1C] WAIT(30* ticks)
 13: 0x0256 [0x1F] MOVE_ENTITY: EventEntity moves to X=-600.128*, Z=585.578*, Y=0.628*
 14: 0x025E [0x1F] MOVE_ENTITY: Update entity position (mode=1)
 15: 0x0260 [0x00] END_REQSTACK()
```
