# Event 65535

## Metadata

| Field           | Value    |
|-----------------|----------|
| Event Index     | 27/34    |
| Offset          | 0x031D   |
| Data Size       | 67 bytes |
| Calculated Size | 67 bytes |
| Instructions    | 15       |

```
      00 01 02 03 04 05 06 07  08 09 0A 0B 0C 0D 0E 0F
      -- -- -- -- -- -- -- --  -- -- -- -- -- -- -- --
0310:                                         32 05 80               2..
0320: 1F 00 59 80 5A 80 5B 80  1F 01 4B 48 10 0F 01 5C  ..Y.Z.[...KH...\
0330: 80 1C 29 80 1F 00 5D 80  5E 80 5F 80 1F 01 4B 48  ..)...].^._...KH
0340: 10 0F 01 60 80 1C 61 80  1F 00 62 80 63 80 64 80  ...`..a...b.c.d.
0350: 1F 01 1C 46 80 4B 48 10  0F 01 65 80 1C 29 80 00  ...F.KH...e..)..
```

## Opcodes

```
  0: 0x031D [0x32] ExtData[1]->MainSpeed = 57* * 0.1
  1: 0x0320 [0x1F] MOVE_ENTITY: EventEntity moves to X=-599.295*, Z=590.678*, Y=0.264*
  2: 0x0328 [0x1F] MOVE_ENTITY: Update entity position (mode=1)
  3: 0x032A [0x4B] UPDATE_ENTITY_YAW(entity=Unnamed NPC (ID: 17764424/0x010F1048), yaw=5.3°*)
  4: 0x0331 [0x1C] WAIT(60* ticks)
  5: 0x0334 [0x1F] MOVE_ENTITY: EventEntity moves to X=-604.353*, Z=586.292*, Y=0.138*
  6: 0x033C [0x1F] MOVE_ENTITY: Update entity position (mode=1)
  7: 0x033E [0x4B] UPDATE_ENTITY_YAW(entity=Unnamed NPC (ID: 17764424/0x010F1048), yaw=0.2°*)
  8: 0x0345 [0x1C] WAIT(240* ticks)
  9: 0x0348 [0x1F] MOVE_ENTITY: EventEntity moves to X=-600.328*, Z=582.410*, Y=0.802*
 10: 0x0350 [0x1F] MOVE_ENTITY: Update entity position (mode=1)
 11: 0x0352 [0x1C] WAIT(30* ticks)
 12: 0x0355 [0x4B] UPDATE_ENTITY_YAW(entity=Unnamed NPC (ID: 17764424/0x010F1048), yaw=16.6°*)
 13: 0x035C [0x1C] WAIT(60* ticks)
 14: 0x035F [0x00] END_REQSTACK()
```
