# Event 65535

## Metadata

| Field           | Value    |
|-----------------|----------|
| Event Index     | 25/34    |
| Offset          | 0x02B9   |
| Data Size       | 50 bytes |
| Calculated Size | 50 bytes |
| Instructions    | 12       |

```
      00 01 02 03 04 05 06 07  08 09 0A 0B 0C 0D 0E 0F
      -- -- -- -- -- -- -- --  -- -- -- -- -- -- -- --
02B0:                             32 2B 80 1F 00 4F 80           2+...O.
02C0: 50 80 51 80 1F 01 1C 29  80 1F 00 52 80 53 80 54  P.Q....)...R.S.T
02D0: 80 1F 01 1C 29 80 1F 00  36 80 37 80 38 80 1F 01  ....)...6.7.8...
02E0: 4B 48 10 0F 01 55 80 1C  29 80 00                 KH...U..)..     
```

## Opcodes

```
  0: 0x02B9 [0x32] ExtData[1]->MainSpeed = 10* * 0.1
  1: 0x02BC [0x1F] MOVE_ENTITY: EventEntity moves to X=-600.221*, Z=588.558*, Y=0.369*
  2: 0x02C4 [0x1F] MOVE_ENTITY: Update entity position (mode=1)
  3: 0x02C6 [0x1C] WAIT(60* ticks)
  4: 0x02C9 [0x1F] MOVE_ENTITY: EventEntity moves to X=-602.144*, Z=586.825*, Y=0.376*
  5: 0x02D1 [0x1F] MOVE_ENTITY: Update entity position (mode=1)
  6: 0x02D3 [0x1C] WAIT(60* ticks)
  7: 0x02D6 [0x1F] MOVE_ENTITY: EventEntity moves to X=-600.128*, Z=585.578*, Y=0.628*
  8: 0x02DE [0x1F] MOVE_ENTITY: Update entity position (mode=1)
  9: 0x02E0 [0x4B] UPDATE_ENTITY_YAW(entity=Unnamed NPC (ID: 17764424/0x010F1048), yaw=11.79°*)
 10: 0x02E7 [0x1C] WAIT(60* ticks)
 11: 0x02EA [0x00] END_REQSTACK()
```
