# Event 65535

## Metadata

| Field           | Value    |
|-----------------|----------|
| Event Index     | 21/34    |
| Offset          | 0x01E9   |
| Data Size       | 54 bytes |
| Calculated Size | 54 bytes |
| Instructions    | 12       |

```
      00 01 02 03 04 05 06 07  08 09 0A 0B 0C 0D 0E 0F
      -- -- -- -- -- -- -- --  -- -- -- -- -- -- -- --
01E0:                             32 2B 80 1F 00 3A 80           2+...:.
01F0: 3B 80 3C 80 1F 01 1F 00  3D 80 3E 80 3F 80 1F 01  ;.<.....=.>.?...
0200: 1F 00 40 80 41 80 42 80  1F 01 1F 00 43 80 44 80  ..@.A.B.....C.D.
0210: 45 80 1F 01 1F 00 36 80  37 80 38 80 1F 01 00     E.....6.7.8.... 
```

## Opcodes

```
  0: 0x01E9 [0x32] ExtData[1]->MainSpeed = 10* * 0.1
  1: 0x01EC [0x1F] MOVE_ENTITY: EventEntity moves to X=-601.910*, Z=587.743*, Y=0.274*
  2: 0x01F4 [0x1F] MOVE_ENTITY: Update entity position (mode=1)
  3: 0x01F6 [0x1F] MOVE_ENTITY: EventEntity moves to X=-600.199*, Z=588.994*, Y=0.347*
  4: 0x01FE [0x1F] MOVE_ENTITY: Update entity position (mode=1)
  5: 0x0200 [0x1F] MOVE_ENTITY: EventEntity moves to X=-599.211*, Z=586.089*, Y=0.586*
  6: 0x0208 [0x1F] MOVE_ENTITY: Update entity position (mode=1)
  7: 0x020A [0x1F] MOVE_ENTITY: EventEntity moves to X=-599.391*, Z=583.375*, Y=0.830*
  8: 0x0212 [0x1F] MOVE_ENTITY: Update entity position (mode=1)
  9: 0x0214 [0x1F] MOVE_ENTITY: EventEntity moves to X=-600.128*, Z=585.578*, Y=0.628*
 10: 0x021C [0x1F] MOVE_ENTITY: Update entity position (mode=1)
 11: 0x021E [0x00] END_REQSTACK()
```
