# Event 65535

## Metadata

| Field           | Value    |
|-----------------|----------|
| Event Index     | 18/34    |
| Offset          | 0x01A7   |
| Data Size       | 45 bytes |
| Calculated Size | 45 bytes |
| Instructions    | 10       |

```
      00 01 02 03 04 05 06 07  08 09 0A 0B 0C 0D 0E 0F
      -- -- -- -- -- -- -- --  -- -- -- -- -- -- -- --
01A0:                      02  04 00 2A 80 01 D3 01 32         ...*....2
01B0: 35 80 1F 00 2C 80 2D 80  2E 80 1F 01 1F 00 2F 80  5...,.-......./.
01C0: 30 80 31 80 1F 01 1F 00  32 80 33 80 34 80 1F 01  0.1.....2.3.4...
01D0: 01 A7 01 00                                       ....            
```

## Opcodes

```
  0: 0x01A7 [0x02] IF !(ExtData[1]->WorkLocal[4] == 2*) GOTO 0x01D3
  1: 0x01AF [0x32] ExtData[1]->MainSpeed = 19* * 0.1
  2: 0x01B2 [0x1F] MOVE_ENTITY: EventEntity moves to X=-597.769*, Z=608.337*, Y=0.215*
  3: 0x01BA [0x1F] MOVE_ENTITY: Update entity position (mode=1)
  4: 0x01BC [0x1F] MOVE_ENTITY: EventEntity moves to X=-599.753*, Z=608.709*, Y=0.233*
  5: 0x01C4 [0x1F] MOVE_ENTITY: Update entity position (mode=1)
  6: 0x01C6 [0x1F] MOVE_ENTITY: EventEntity moves to X=-603.262*, Z=606.367*, Y=0.116*
  7: 0x01CE [0x1F] MOVE_ENTITY: Update entity position (mode=1)
  8: 0x01D0 [0x01] GOTO 0x01A7
  9: 0x01D3 [0x00] END_REQSTACK()
```
