# Event 65535

## Metadata

| Field           | Value    |
|-----------------|----------|
| Event Index     | 29/34    |
| Offset          | 0x036E   |
| Data Size       | 51 bytes |
| Calculated Size | 51 bytes |
| Instructions    | 11       |

```
      00 01 02 03 04 05 06 07  08 09 0A 0B 0C 0D 0E 0F
      -- -- -- -- -- -- -- --  -- -- -- -- -- -- -- --
0360:                                            32 2B                2+
0370: 80 1F 00 69 80 6A 80 05  80 1F 01 1F 00 6B 80 6C  ...i.j.......k.l
0380: 80 6D 80 1F 01 1F 00 6E  80 6F 80 70 80 1F 01 1E  .m.....n.o.p....
0390: 44 10 0F 01 1C 46 80 4A  44 10 0F 01 45 10 0F 01  D....F.JD...E...
03A0: 00                                                .               
```

## Opcodes

```
  0: 0x036E [0x32] ExtData[1]->MainSpeed = 10* * 0.1
  1: 0x0371 [0x1F] MOVE_ENTITY: EventEntity moves to X=-604.257*, Z=586.573*, Y=0.057*
  2: 0x0379 [0x1F] MOVE_ENTITY: Update entity position (mode=1)
  3: 0x037B [0x1F] MOVE_ENTITY: EventEntity moves to X=-603.318*, Z=588.527*, Y=0.196*
  4: 0x0383 [0x1F] MOVE_ENTITY: Update entity position (mode=1)
  5: 0x0385 [0x1F] MOVE_ENTITY: EventEntity moves to X=-601.495*, Z=586.040*, Y=0.496*
  6: 0x038D [0x1F] MOVE_ENTITY: Update entity position (mode=1)
  7: 0x038F [0x1E] EventEntity looks at Unnamed NPC (ID: 17764420/0x010F1044) and starts talking
  8: 0x0394 [0x1C] WAIT(30* ticks)
  9: 0x0397 [0x4A] Unnamed NPC (ID: 17764420/0x010F1044) looks at Unnamed NPC (ID: 17764421/0x010F1045)
 10: 0x03A0 [0x00] END_REQSTACK()
```
