# Event 65535

## Metadata

| Field           | Value    |
|-----------------|----------|
| Event Index     | 32/34    |
| Offset          | 0x03E2   |
| Data Size       | 59 bytes |
| Calculated Size | 59 bytes |
| Instructions    | 13       |

```
      00 01 02 03 04 05 06 07  08 09 0A 0B 0C 0D 0E 0F
      -- -- -- -- -- -- -- --  -- -- -- -- -- -- -- --
03E0:       32 2B 80 1F 00 71  80 72 80 73 80 1F 01 1F    2+...q.r.s....
03F0: 00 74 80 75 80 76 80 1F  01 1F 00 77 80 78 80 79  .t.u.v.....w.x.y
0400: 80 1F 01 1F 00 7A 80 7B  80 7C 80 1F 01 1F 00 7D  .....z.{.|.....}
0410: 80 7E 80 7F 80 1F 01 1E  44 10 0F 01 00           .~......D....   
```

## Opcodes

```
  0: 0x03E2 [0x32] ExtData[1]->MainSpeed = 10* * 0.1
  1: 0x03E5 [0x1F] MOVE_ENTITY: EventEntity moves to X=-601.361*, Z=584.507*, Y=0.542*
  2: 0x03ED [0x1F] MOVE_ENTITY: Update entity position (mode=1)
  3: 0x03EF [0x1F] MOVE_ENTITY: EventEntity moves to X=-600.414*, Z=583.859*, Y=0.704*
  4: 0x03F7 [0x1F] MOVE_ENTITY: Update entity position (mode=1)
  5: 0x03F9 [0x1F] MOVE_ENTITY: EventEntity moves to X=-599.376*, Z=585.276*, Y=0.668*
  6: 0x0401 [0x1F] MOVE_ENTITY: Update entity position (mode=1)
  7: 0x0403 [0x1F] MOVE_ENTITY: EventEntity moves to X=-598.992*, Z=587.260*, Y=0.468*
  8: 0x040B [0x1F] MOVE_ENTITY: Update entity position (mode=1)
  9: 0x040D [0x1F] MOVE_ENTITY: EventEntity moves to X=-599.942*, Z=587.474*, Y=0.447*
 10: 0x0415 [0x1F] MOVE_ENTITY: Update entity position (mode=1)
 11: 0x0417 [0x1E] EventEntity looks at Unnamed NPC (ID: 17764420/0x010F1044) and starts talking
 12: 0x041C [0x00] END_REQSTACK()
```
