# Event 65535

## Metadata

| Field           | Value    |
|-----------------|----------|
| Event Index     | 26/34    |
| Offset          | 0x02EB   |
| Data Size       | 50 bytes |
| Calculated Size | 50 bytes |
| Instructions    | 12       |

```
      00 01 02 03 04 05 06 07  08 09 0A 0B 0C 0D 0E 0F
      -- -- -- -- -- -- -- --  -- -- -- -- -- -- -- --
02E0:                                   32 35 80 1F 00             25...
02F0: 56 80 57 80 58 80 1F 01  1C 29 80 1F 00 52 80 53  V.W.X....)...R.S
0300: 80 54 80 1F 01 1C 29 80  1F 00 36 80 37 80 38 80  .T....)...6.7.8.
0310: 1F 01 4B 48 10 0F 01 55  80 1C 29 80 00           ..KH...U..)..   
```

## Opcodes

```
  0: 0x02EB [0x32] ExtData[1]->MainSpeed = 19* * 0.1
  1: 0x02EE [0x1F] MOVE_ENTITY: EventEntity moves to X=-599.892*, Z=588.477*, Y=0.373*
  2: 0x02F6 [0x1F] MOVE_ENTITY: Update entity position (mode=1)
  3: 0x02F8 [0x1C] WAIT(60* ticks)
  4: 0x02FB [0x1F] MOVE_ENTITY: EventEntity moves to X=-602.144*, Z=586.825*, Y=0.376*
  5: 0x0303 [0x1F] MOVE_ENTITY: Update entity position (mode=1)
  6: 0x0305 [0x1C] WAIT(60* ticks)
  7: 0x0308 [0x1F] MOVE_ENTITY: EventEntity moves to X=-600.128*, Z=585.578*, Y=0.628*
  8: 0x0310 [0x1F] MOVE_ENTITY: Update entity position (mode=1)
  9: 0x0312 [0x4B] UPDATE_ENTITY_YAW(entity=Unnamed NPC (ID: 17764424/0x010F1048), yaw=11.79°*)
 10: 0x0319 [0x1C] WAIT(60* ticks)
 11: 0x031C [0x00] END_REQSTACK()
```
