# 17212144

## Common Data

| Field            | Value                     |
|------------------|---------------------------|
| Zone             | North Gustaberg (ID: 106) |
| Block Size       | 4116 bytes                |
| Total Events     | 3                         |
| References Count | 107                       |

## List of Events

| Event ID              | Entrypoint   |   Size |   Instructions |
|-----------------------|--------------|--------|----------------|
| [65535](#event-65535) | 0x0000       |      1 |              1 |
| [0](#event-0)         | 0x0001       |   2091 |            277 |
| [1](#event-1)         | 0x082C       |   1565 |            188 |

## DAT References (imed_data)

|   Index | Hex Value   |   Dec Value |
|---------|-------------|-------------|
|       0 | 0x0013      |          19 |
|       1 | 0xFFFEE698  |  4294895256 |
|       2 | 0x927A4     |      599972 |
|       3 | 0xFFFFFFEF  |  4294967279 |
|       4 | 0x080C      |        2060 |
|       5 | 0xFFFF18A2  |  4294908066 |
|       6 | 0x8FA1F     |      588319 |
|       7 | 0xFFFFFAE7  |  4294965991 |
|       8 | 0x09C9      |        2505 |
|       9 | 0x173A7     |       95143 |
|      10 | 0xFFF6F220  |  4294373920 |
|      11 | 0xFFFEE4CC  |  4294894796 |
|      12 | 0x0396      |         918 |
|      13 | 0xFFFEF4AF  |  4294898863 |
|      14 | 0x91E51     |      597585 |
|      15 | 0xFFFFAEEE  |  4294946542 |
|      16 | 0x01E7      |         487 |
|      17 | 0x001E      |          30 |
|      18 | 0x01EA      |         490 |
|      19 | 0x0000      |           0 |
|      20 | 0x0078      |         120 |
|      21 | 0x005A      |          90 |
|      22 | 0x000A      |          10 |
|      23 | 0x2D29      |       11561 |
|      24 | 0x002D      |          45 |
|      25 | 0x2D2A      |       11562 |
|      26 | 0x04F7      |        1271 |
|      27 | 0x0028      |          40 |
|      28 | 0x2D2B      |       11563 |
|      29 | 0x2D2C      |       11564 |
|      30 | 0x0007      |           7 |
|      31 | 0x2D2D      |       11565 |
|      32 | 0x0001      |           1 |
|      33 | 0x0016      |          22 |
|      34 | 0x003C      |          60 |
|      35 | 0x0019      |          25 |
|      36 | 0x2D2E      |       11566 |
|      37 | 0x0096      |         150 |
|      38 | 0x0020      |          32 |
|      39 | 0x2D2F      |       11567 |
|      40 | 0x2D30      |       11568 |
|      41 | 0x2D31      |       11569 |
|      42 | 0x2D32      |       11570 |
|      43 | 0x2D33      |       11571 |
|      44 | 0x2D34      |       11572 |
|      45 | 0x001A      |          26 |
|      46 | 0x2D35      |       11573 |
|      47 | 0x2D36      |       11574 |
|      48 | 0x00B4      |         180 |
|      49 | 0x055D      |        1373 |
|      50 | 0x000F      |          15 |
|      51 | 0x2D37      |       11575 |
|      52 | 0x2D38      |       11576 |
|      53 | 0x0033      |          51 |
|      54 | 0x2D39      |       11577 |
|      55 | 0x010E      |         270 |
|      56 | 0x2D3A      |       11578 |
|      57 | 0x2D3B      |       11579 |
|      58 | 0x2D3C      |       11580 |
|      59 | 0x2D3D      |       11581 |
|      60 | 0x2D3E      |       11582 |
|      61 | 0x0023      |          35 |
|      62 | 0x2D3F      |       11583 |
|      63 | 0x2D40      |       11584 |
|      64 | 0x2D41      |       11585 |
|      65 | 0x0005      |           5 |
|      66 | 0x0006      |           6 |
|      67 | 0x00D5      |         213 |
|      68 | 0x0031      |          49 |
|      69 | 0x2D42      |       11586 |
|      70 | 0x2D43      |       11587 |
|      71 | 0x00FF      |         255 |
|      72 | 0x2D44      |       11588 |
|      73 | 0x2D45      |       11589 |
|      74 | 0x2D46      |       11590 |
|      75 | 0x2D47      |       11591 |
|      76 | 0x2D48      |       11592 |
|      77 | 0x2D49      |       11593 |
|      78 | 0x2D4A      |       11594 |
|      79 | 0x0008      |           8 |
|      80 | 0x004F      |          79 |
|      81 | 0x0074      |         116 |
|      82 | 0x00C8      |         200 |
|      83 | 0x012C      |         300 |
|      84 | 0xFFFEE833  |  4294895667 |
|      85 | 0x927FD     |      600061 |
|      86 | 0xFFFFFFDC  |  4294967260 |
|      87 | 0x0FFF      |        4095 |
|      88 | 0xFFFEEB67  |  4294896487 |
|      89 | 0x912A6     |      594598 |
|      90 | 0xFFFFFDC5  |  4294966725 |
|      91 | 0x0B71      |        2929 |
|      92 | 0x0050      |          80 |
|      93 | 0x2D4B      |       11595 |
|      94 | 0x2D4C      |       11596 |
|      95 | 0x2D4D      |       11597 |
|      96 | 0x2D4E      |       11598 |
|      97 | 0x2D4F      |       11599 |
|      98 | 0x2D50      |       11600 |
|      99 | 0x006F      |         111 |
|     100 | 0x2D51      |       11601 |
|     101 | 0x2D52      |       11602 |
|     102 | 0x2D53      |       11603 |
|     103 | 0x2D54      |       11604 |
|     104 | 0x00C9      |         201 |
|     105 | 0x0002      |           2 |
|     106 | 0x00D7      |         215 |

## String References

- **11564**: Is it as the Tarutaru says? [You've got rapier eyes, friend./Sorry, but you're mistaken.]
- **11568**: The stranger bears down on <Player> with a penetrating gaze.

## Events

### Event 65535

#### Metadata

| Field        | Value   |
|--------------|---------|
| Entrypoint   | 0x0000  |
| Data Size    | 1 bytes |
| Instructions | 1       |

```
      00 01 02 03 04 05 06 07  08 09 0A 0B 0C 0D 0E 0F
      -- -- -- -- -- -- -- --  -- -- -- -- -- -- -- --
0000: 00                                                .               
```

#### Opcodes

```
  0: 0x0000 [0x00] END_REQSTACK()
```

### Event 0

#### Metadata

| Field        | Value      |
|--------------|------------|
| Entrypoint   | 0x0001     |
| Data Size    | 2091 bytes |
| Instructions | 277        |

```
      00 01 02 03 04 05 06 07  08 09 0A 0B 0C 0D 0E 0F
      -- -- -- -- -- -- -- --  -- -- -- -- -- -- -- --
0000:    42 1A 1B 0C 46 01 38  00 80 27 10 F1 A2 06 01   B...F.8..'.....
0010: 04 27 10 F2 A2 06 01 04  4E 00 F4 A2 06 01 4E 00  .'......N.....N.
0020: F3 A2 06 01 92 01 F1 A2  06 01 94 01 F0 FF FF 7F  ................
0030: 94 01 F1 A2 06 01 94 01  CE A2 06 01 94 01 C9 A2  ................
0040: 06 01 94 01 F4 A2 06 01  94 01 F3 A2 06 01 94 01  ................
0050: F2 A2 06 01 BA F0 FF FF  7F 01 80 02 80 03 80 04  ................
0060: 80 BA F1 A2 06 01 05 80  06 80 07 80 08 80 59 05  ..............Y.
0070: F4 A2 06 01 01 BA F4 A2  06 01 09 80 0A 80 0B 80  ................
0080: 0C 80 59 05 F3 A2 06 01  01 BA F3 A2 06 01 0D 80  ..Y.............
0090: 0E 80 0F 80 10 80 59 05  F2 A2 06 01 01 BA F2 A2  ......Y.........
00A0: 06 01 0D 80 0E 80 0F 80  10 80 29 10 F2 A2 06 01  ..........).....
00B0: 09 29 10 F1 A2 06 01 0A  80 F0 FF FF 7F 80 F1 A2  .)..............
00C0: 06 01 80 CE A2 06 01 80  C9 A2 06 01 80 F2 A2 06  ................
00D0: 01 29 10 F0 FF FF 7F 1E  03 00 00 02 10 1C 11 80  .)..............
00E0: 45 12 80 F0 FF FF 7F F0  FF FF 7F 37 38 30 30 13  E..........7800.
00F0: 80 1A FA 0B 1C 14 80 52  12 80 F0 FF FF 7F F0 FF  .......R........
0100: FF 7F 37 38 30 30 45 12  80 F0 FF FF 7F F0 FF FF  ..7800E.........
0110: 7F 37 38 30 31 13 80 1C  11 80 79 00 F0 FF FF 7F  .7801.....y.....
0120: CE A2 06 01 1C 15 80 27  10 F1 A2 06 01 0C 1C 16  .......'........
0130: 80 52 12 80 F0 FF FF 7F  F0 FF FF 7F 37 38 30 31  .R..........7801
0140: 45 12 80 F0 FF FF 7F F0  FF FF 7F 37 38 30 32 13  E..........7802.
0150: 80 1C 11 80 03 02 10 00  00 2B F1 A2 06 01 17 80  .........+......
0160: 23 2A 10 F1 A2 06 01 4A  F0 FF FF 7F F1 A2 06 01  #*.....J........
0170: 52 12 80 F0 FF FF 7F F0  FF FF 7F 37 38 30 32 45  R..........7802E
0180: 12 80 F0 FF FF 7F F0 FF  FF 7F 37 38 30 33 13 80  ..........7803..
0190: 27 10 F1 A2 06 01 0D 1C  18 80 2B F1 A2 06 01 19  '.........+.....
01A0: 80 23 2A 10 F1 A2 06 01  1C 11 80 03 02 10 00 00  .#*.............
01B0: 03 03 10 1A 80 7B F1 A2  06 01 52 12 80 F0 FF FF  .....{....R.....
01C0: 7F F0 FF FF 7F 37 38 30  33 45 12 80 F0 FF FF 7F  .....7803E......
01D0: F0 FF FF 7F 37 38 30 34  13 80 66 1B 80 F1 A2 06  ....7804..f.....
01E0: 01 F1 A2 06 01 74 68 6B  31 1C 11 80 2B F1 A2 06  .....thk1...+...
01F0: 01 1C 80 1C 14 80 23 52  12 80 F0 FF FF 7F F0 FF  ......#R........
0200: FF 7F 37 38 30 34 45 12  80 F0 FF FF 7F F0 FF FF  ..7804E.........
0210: 7F 37 38 30 35 13 80 66  1B 80 F1 A2 06 01 F1 A2  .7805..f........
0220: 06 01 74 68 6B 32 24 1D  80 13 80 13 80 25 02 00  ..thk2$......%..
0230: 10 13 80 00 70 02 52 12  80 F0 FF FF 7F F0 FF FF  ....p.R.........
0240: 7F 37 38 30 35 45 12 80  F0 FF FF 7F F0 FF FF 7F  .7805E..........
0250: 37 38 30 37 13 80 6E F0  FF FF 7F 1E 80 99 F0 FF  7807..n.........
0260: FF 7F 1C 15 80 2B F1 A2  06 01 1F 80 23 01 C1 02  .....+......#...
0270: 02 00 10 20 80 00 C1 02  52 12 80 F0 FF FF 7F F0  ... ....R.......
0280: FF FF 7F 37 38 30 35 45  12 80 F0 FF FF 7F F0 FF  ...7805E........
0290: FF 7F 37 38 30 37 13 80  6E F0 FF FF 7F 21 80 99  ..7807..n....!..
02A0: F0 FF FF 7F 1C 22 80 6E  F1 A2 06 01 23 80 99 F1  .....".n....#...
02B0: A2 06 01 2B F1 A2 06 01  24 80 1C 25 80 23 01 C1  ...+....$..%.#..
02C0: 02 6E F1 A2 06 01 26 80  99 F1 A2 06 01 1C 11 80  .n....&.........
02D0: 03 02 10 00 00 2B F1 A2  06 01 27 80 1C 14 80 23  .....+....'....#
02E0: 66 1B 80 F1 A2 06 01 F1  A2 06 01 74 68 6B 31 1C  f..........thk1.
02F0: 11 80 52 12 80 F0 FF FF  7F F0 FF FF 7F 37 38 30  ..R..........780
0300: 37 45 12 80 F0 FF FF 7F  F0 FF FF 7F 37 38 30 36  7E..........7806
0310: 13 80 1C 11 80 48 28 80  1C 14 80 2B F1 A2 06 01  .....H(....+....
0320: 29 80 23 52 12 80 F0 FF  FF 7F F0 FF FF 7F 37 38  ).#R..........78
0330: 30 36 45 12 80 F0 FF FF  7F F0 FF FF 7F 37 38 30  06E..........780
0340: 38 13 80 29 10 F0 FF FF  7F 25 29 10 F1 A2 06 01  8..).....%).....
0350: 0B 66 1B 80 F1 A2 06 01  F1 A2 06 01 74 6C 6B 30  .f..........tlk0
0360: 2B F1 A2 06 01 2A 80 23  52 12 80 F0 FF FF 7F F0  +....*.#R.......
0370: FF FF 7F 37 38 30 38 45  12 80 F0 FF FF 7F F0 FF  ...7808E........
0380: FF 7F 37 38 30 39 13 80  2B F1 A2 06 01 2B 80 23  ..7809..+....+.#
0390: 66 1B 80 F1 A2 06 01 F1  A2 06 01 74 6C 6B 31 2B  f..........tlk1+
03A0: F1 A2 06 01 2C 80 23 53  F1 A2 06 01 F1 A2 06 01  ....,.#S........
03B0: 74 6C 6B 31 52 12 80 F0  FF FF 7F F0 FF FF 7F 37  tlk1R..........7
03C0: 38 30 39 45 12 80 F0 FF  FF 7F F0 FF FF 7F 37 38  809E..........78
03D0: 31 30 13 80 6E F1 A2 06  01 2D 80 99 F1 A2 06 01  10..n....-......
03E0: 03 02 10 25 80 27 10 F3  A2 06 01 01 1C 18 80 2B  ...%.'.........+
03F0: F1 A2 06 01 2E 80 23 2B  F1 A2 06 01 2F 80 23 2A  ......#+..../.#*
0400: 10 F3 A2 06 01 5D 13 80  30 80 1C 11 80 5B 31 80  .....]..0....[1.
0410: F1 A2 06 01 F1 A2 06 01  67 75 64 30 1C 32 80 2B  ........gud0.2.+
0420: F1 A2 06 01 33 80 1C 32  80 4A F0 FF FF 7F F1 A2  ....3..2.J......
0430: 06 01 23 52 12 80 F0 FF  FF 7F F0 FF FF 7F 37 38  ..#R..........78
0440: 31 30 45 12 80 F0 FF FF  7F F0 FF FF 7F 37 38 31  10E..........781
0450: 31 13 80 03 02 10 00 00  2B F1 A2 06 01 34 80 23  1.......+....4.#
0460: 1C 11 80 5C 00 35 80 5C  01 35 80 9A 2B F1 A2 06  ...\.5.\.5..+...
0470: 01 36 80 1C 15 80 52 12  80 F0 FF FF 7F F0 FF FF  .6....R.........
0480: 7F 37 38 31 31 45 12 80  F0 FF FF 7F F0 FF FF 7F  .7811E..........
0490: 37 38 31 32 13 80 1C 37  80 23 52 12 80 F0 FF FF  7812...7.#R.....
04A0: 7F F0 FF FF 7F 37 38 31  32 45 12 80 F0 FF FF 7F  .....7812E......
04B0: F0 FF FF 7F 37 38 31 34  13 80 2B F1 A2 06 01 38  ....7814..+....8
04C0: 80 23 5B 31 80 F1 A2 06  01 F1 A2 06 01 67 75 64  .#[1.........gud
04D0: 31 2B F1 A2 06 01 39 80  23 52 12 80 F0 FF FF 7F  1+....9.#R......
04E0: F0 FF FF 7F 37 38 31 34  45 12 80 F0 FF FF 7F F0  ....7814E.......
04F0: FF FF 7F 37 38 31 35 13  80 2B F1 A2 06 01 3A 80  ...7815..+....:.
0500: 23 2B F1 A2 06 01 3B 80  23 52 12 80 F0 FF FF 7F  #+....;.#R......
0510: F0 FF FF 7F 37 38 31 35  45 12 80 F0 FF FF 7F F0  ....7815E.......
0520: FF FF 7F 37 38 31 36 13  80 66 1B 80 F1 A2 06 01  ...7816..f......
0530: F1 A2 06 01 73 79 75 30  2B F1 A2 06 01 3C 80 23  ....syu0+....<.#
0540: 53 F1 A2 06 01 F1 A2 06  01 73 79 75 30 6E F1 A2  S........syu0n..
0550: 06 01 3D 80 99 F1 A2 06  01 2B F1 A2 06 01 3E 80  ..=......+....>.
0560: 1C 25 80 23 52 12 80 F0  FF FF 7F F0 FF FF 7F 37  .%.#R..........7
0570: 38 31 36 45 12 80 F0 FF  FF 7F F0 FF FF 7F 37 38  816E..........78
0580: 31 37 13 80 03 02 10 00  00 2B F1 A2 06 01 3F 80  17.......+....?.
0590: 23 1C 22 80 7C 00 F1 A2  06 01 2B F1 A2 06 01 40  #.".|.....+....@
05A0: 80 23 7C 01 F1 A2 06 01  52 12 80 F0 FF FF 7F F0  .#|.....R.......
05B0: FF FF 7F 37 38 31 37 29  10 F0 FF FF 7F 1D 02 02  ...7817)........
05C0: 10 41 80 80 DA 05 45 12  80 F0 FF FF 7F F0 FF FF  .A....E.........
05D0: 7F 37 38 31 39 13 80 01  07 06 02 02 10 42 80 80  .7819........B..
05E0: F6 05 45 12 80 F0 FF FF  7F F0 FF FF 7F 37 38 31  ..E..........781
05F0: 39 13 80 01 07 06 45 12  80 F0 FF FF 7F F0 FF FF  9.....E.........
0600: 7F 37 38 31 38 13 80 C5  43 80 F3 A2 06 01 F3 A2  .7818...C.......
0610: 06 01 73 30 30 30 13 80  66 44 80 F1 A2 06 01 F1  ..s000..fD......
0620: A2 06 01 74 6C 6B 30 2B  F1 A2 06 01 45 80 23 2B  ...tlk0+....E.#+
0630: F1 A2 06 01 46 80 23 66  44 80 F1 A2 06 01 F1 A2  ....F.#fD.......
0640: 06 01 74 6C 6B 31 52 12  80 F0 FF FF 7F F0 FF FF  ..tlk1R.........
0650: 7F 37 38 31 39 52 12 80  F0 FF FF 7F F0 FF FF 7F  .7819R..........
0660: 37 38 31 38 45 12 80 F0  FF FF 7F F0 FF FF 7F 37  7818E..........7
0670: 38 32 30 13 80 77 47 80  20 80 AB 09 1C 22 80 2B  820..wG. ....".+
0680: F1 A2 06 01 48 80 23 52  12 80 F0 FF FF 7F F0 FF  ....H.#R........
0690: FF 7F 37 38 32 30 45 12  80 F0 FF FF 7F F0 FF FF  ..7820E.........
06A0: 7F 37 38 32 31 13 80 1C  22 80 2B F1 A2 06 01 49  .7821...".+....I
06B0: 80 23 52 12 80 F0 FF FF  7F F0 FF FF 7F 37 38 32  .#R..........782
06C0: 31 45 12 80 F0 FF FF 7F  F0 FF FF 7F 37 38 32 32  1E..........7822
06D0: 13 80 AB 0A 78 1C 11 80  C5 43 80 F3 A2 06 01 F3  ....x....C......
06E0: A2 06 01 6B 69 6C 30 13  80 1C 11 80 4E 01 F2 A2  ...kil0.....N...
06F0: 06 01 66 44 80 F1 A2 06  01 F1 A2 06 01 74 6C 6B  ..fD.........tlk
0700: 30 2B F1 A2 06 01 4A 80  23 52 12 80 F0 FF FF 7F  0+....J.#R......
0710: F0 FF FF 7F 37 38 32 32  45 12 80 F0 FF FF 7F F0  ....7822E.......
0720: FF FF 7F 37 38 32 33 13  80 2B F1 A2 06 01 4B 80  ...7823..+....K.
0730: 23 6E F1 A2 06 01 1E 80  99 F1 A2 06 01 2B F1 A2  #n...........+..
0740: 06 01 4C 80 1C 15 80 5D  13 80 14 80 23 4A F1 A2  ..L....]....#J..
0750: 06 01 CE A2 06 01 1C 11  80 52 12 80 F0 FF FF 7F  .........R......
0760: F0 FF FF 7F 37 38 32 33  45 12 80 F0 FF FF 7F F0  ....7823E.......
0770: FF FF 7F 37 38 32 35 13  80 2B F1 A2 06 01 4D 80  ...7825..+....M.
0780: 1C 14 80 23 52 12 80 F0  FF FF 7F F0 FF FF 7F 37  ...#R..........7
0790: 38 32 35 45 12 80 F0 FF  FF 7F F0 FF FF 7F 37 38  825E..........78
07A0: 32 34 13 80 27 10 F1 A2  06 01 0E 1C 11 80 4A F0  24..'.........J.
07B0: FF FF 7F F1 A2 06 01 2A  10 F1 A2 06 01 2B F1 A2  .......*.....+..
07C0: 06 01 4E 80 23 6E F1 A2  06 01 4F 80 99 F1 A2 06  ..N.#n....O.....
07D0: 01 1C 22 80 CD 50 80 F1  A2 06 01 F1 A2 06 01 6D  .."..P.........m
07E0: 61 69 6E 13 80 1C 14 80  1A 1B 0C 1C 11 80 52 12  ain...........R.
07F0: 80 F0 FF FF 7F F0 FF FF  7F 37 38 32 34 45 12 80  .........7824E..
0800: F0 FF FF 7F F0 FF FF 7F  30 62 6C 66 13 80 5C 00  ........0blf..\.
0810: 51 80 5C 01 51 80 9A 46  00 45 52 80 F0 FF FF 7F  Q.\.Q..F.ER.....
0820: F0 FF FF 7F 66 64 69 32  13 80 21 00              ....fdi2..!.    
```

#### Opcodes

```
  0: 0x0001 [0x42] SET_CLI_EVENT_CANCEL_DATA()
  1: 0x0002 [0x1A] CALL_SUBROUTINE(address=0x0C1B)
  2: 0x0005 [0x46] CAMERA_CONTROL: Disable user control
  3: 0x0007 [0x38] SET_CLIENT_EVENT_MODE(mode=19*)
  4: 0x000A [0x27] REQ_SET(priority=0x10, entity_id=Rurukaka (ID: 17212145/0x0106A2F1), tag_num=0x04)
  5: 0x0011 [0x27] REQ_SET(priority=0x10, entity_id=Unnamed NPC (ID: 17212146/0x0106A2F2), tag_num=0x04)
  6: 0x0018 [0x4E] SET_ENTITY_HIDE_FLAG: Show Unnamed NPC (ID: 17212148/0x0106A2F4)
  7: 0x001E [0x4E] SET_ENTITY_HIDE_FLAG: Show ??? (ID: 17212147/0x0106A2F3)
  8: 0x0024 [0x92] Rurukaka (ID: 17212145/0x0106A2F1)->Render.Flags3 ^= 0x01
  9: 0x002A [0x94] LocalPlayer->Render.Flags3 ^= 0x01
 10: 0x0030 [0x94] Rurukaka (ID: 17212145/0x0106A2F1)->Render.Flags3 ^= 0x01
 11: 0x0036 [0x94] Cavernous Maw (ID: 17212110/0x0106A2CE)->Render.Flags3 ^= 0x01
 12: 0x003C [0x94] Cavernous Maw (ID: 17212105/0x0106A2C9)->Render.Flags3 ^= 0x01
 13: 0x0042 [0x94] Unnamed NPC (ID: 17212148/0x0106A2F4)->Render.Flags3 ^= 0x01
 14: 0x0048 [0x94] ??? (ID: 17212147/0x0106A2F3)->Render.Flags3 ^= 0x01
 15: 0x004E [0x94] Unnamed NPC (ID: 17212146/0x0106A2F2)->Render.Flags3 ^= 0x01
 16: 0x0054 [0xBA] SET_ENTITY_POSITION(entity_id=LocalPlayer, pos_x=-72.040*, pos_z=599.972*, pos_y=-0.017*, direction=181.0°*)
 17: 0x0061 [0xBA] SET_ENTITY_POSITION(entity_id=Rurukaka (ID: 17212145/0x0106A2F1), pos_x=-59.230*, pos_z=588.319*, pos_y=-1.305*, direction=220.2°*)
 18: 0x006E [0x59] UPDATE_ENTITY_DATA: Unnamed NPC (ID: 17212148/0x0106A2F4)->Render.Flags0 |= 0x200000
 19: 0x0075 [0xBA] SET_ENTITY_POSITION(entity_id=Unnamed NPC (ID: 17212148/0x0106A2F4), pos_x=95.143*, pos_z=-593.376*, pos_y=-72.500*, direction=80.7°*)
 20: 0x0082 [0x59] UPDATE_ENTITY_DATA: ??? (ID: 17212147/0x0106A2F3)->Render.Flags0 |= 0x200000
 21: 0x0089 [0xBA] SET_ENTITY_POSITION(entity_id=??? (ID: 17212147/0x0106A2F3), pos_x=-68.433*, pos_z=597.585*, pos_y=-20.754*, direction=42.8°*)
 22: 0x0096 [0x59] UPDATE_ENTITY_DATA: Unnamed NPC (ID: 17212146/0x0106A2F2)->Render.Flags0 |= 0x200000
 23: 0x009D [0xBA] SET_ENTITY_POSITION(entity_id=Unnamed NPC (ID: 17212146/0x0106A2F2), pos_x=-68.433*, pos_z=597.585*, pos_y=-20.754*, direction=42.8°*)
 24: 0x00AA [0x29] REQ_SET_WAIT(priority=0x10, entity_id=Unnamed NPC (ID: 17212146/0x0106A2F2), tag_num=0x09)
 25: 0x00B1 [0x29] REQ_SET_WAIT(priority=0x10, entity_id=Rurukaka (ID: 17212145/0x0106A2F1), tag_num=0x0A)
 26: 0x00B8 [0x80] LOAD_WAIT(entity=LocalPlayer)
 27: 0x00BD [0x80] LOAD_WAIT(entity=Rurukaka (ID: 17212145/0x0106A2F1))
 28: 0x00C2 [0x80] LOAD_WAIT(entity=Cavernous Maw (ID: 17212110/0x0106A2CE))
 29: 0x00C7 [0x80] LOAD_WAIT(entity=Cavernous Maw (ID: 17212105/0x0106A2C9))
 30: 0x00CC [0x80] LOAD_WAIT(entity=Unnamed NPC (ID: 17212146/0x0106A2F2))
 31: 0x00D1 [0x29] REQ_SET_WAIT(priority=0x10, entity_id=LocalPlayer, tag_num=0x1E)
 32: 0x00D8 [0x03] ExtData[1]->WorkLocal[0] = Work_Zone[2]
 33: 0x00DD [0x1C] WAIT(30* ticks)
 34: 0x00E0 [0x45] LOAD_SCHEDULED_TASK: Load scheduler "7800" with entities [LocalPlayer, LocalPlayer], work=[490*, 0*]
 35: 0x00F1 [0x1A] CALL_SUBROUTINE(address=0x0BFA)
 36: 0x00F4 [0x1C] WAIT(120* ticks)
 37: 0x00F7 [0x52] END_LOAD_SCHEDULER: End scheduler "7800" with entities [LocalPlayer, LocalPlayer], work=490*
 38: 0x0106 [0x45] LOAD_SCHEDULED_TASK: Load scheduler "7801" with entities [LocalPlayer, LocalPlayer], work=[490*, 0*]
 39: 0x0117 [0x1C] WAIT(30* ticks)
 40: 0x011A [0x79] LocalPlayer looks at Cavernous Maw (ID: 17212110/0x0106A2CE) (Basic look)
 41: 0x0124 [0x1C] WAIT(90* ticks)
 42: 0x0127 [0x27] REQ_SET(priority=0x10, entity_id=Rurukaka (ID: 17212145/0x0106A2F1), tag_num=0x0C)
 43: 0x012E [0x1C] WAIT(10* ticks)
 44: 0x0131 [0x52] END_LOAD_SCHEDULER: End scheduler "7801" with entities [LocalPlayer, LocalPlayer], work=490*
 45: 0x0140 [0x45] LOAD_SCHEDULED_TASK: Load scheduler "7802" with entities [LocalPlayer, LocalPlayer], work=[490*, 0*]
 46: 0x0151 [0x1C] WAIT(30* ticks)
 47: 0x0154 [0x03] Work_Zone[2] = ExtData[1]->WorkLocal[0]
 48: 0x0159 [0x2B] Rurukaka (ID: 17212145/0x0106A2F1) [11561*]:
    → "Hey, you there! Hold your choco-wocobos!"
 49: 0x0160 [0x23] WAIT_FOR_DIALOG_INTERACTION
 50: 0x0161 [0x2A] GET_REQ_LEVEL(level=16, entity_id=Rurukaka (ID: 17212145/0x0106A2F1))
 51: 0x0167 [0x4A] LocalPlayer looks at Rurukaka (ID: 17212145/0x0106A2F1)
 52: 0x0170 [0x52] END_LOAD_SCHEDULER: End scheduler "7802" with entities [LocalPlayer, LocalPlayer], work=490*
 53: 0x017F [0x45] LOAD_SCHEDULED_TASK: Load scheduler "7803" with entities [LocalPlayer, LocalPlayer], work=[490*, 0*]
 54: 0x0190 [0x27] REQ_SET(priority=0x10, entity_id=Rurukaka (ID: 17212145/0x0106A2F1), tag_num=0x0D)
 55: 0x0197 [0x1C] WAIT(45* ticks)
 56: 0x019A [0x2B] Rurukaka (ID: 17212145/0x0106A2F1) [11562*]:
    → "I don't know who you are, but if you've got even a thimble-wimble of sense between your ears, you'd keep a healthy distance from--"
 57: 0x01A1 [0x23] WAIT_FOR_DIALOG_INTERACTION
 58: 0x01A2 [0x2A] GET_REQ_LEVEL(level=16, entity_id=Rurukaka (ID: 17212145/0x0106A2F1))
 59: 0x01A8 [0x1C] WAIT(30* ticks)
 60: 0x01AB [0x03] Work_Zone[2] = ExtData[1]->WorkLocal[0]
 61: 0x01B0 [0x03] Work_Zone[3] = 1271*
 62: 0x01B5 [0x7B] Rurukaka (ID: 17212145/0x0106A2F1) stops talking
 63: 0x01BA [0x52] END_LOAD_SCHEDULER: End scheduler "7803" with entities [LocalPlayer, LocalPlayer], work=490*
 64: 0x01C9 [0x45] LOAD_SCHEDULED_TASK: Load scheduler "7804" with entities [LocalPlayer, LocalPlayer], work=[490*, 0*]
 65: 0x01DA [0x66] LOAD_EXT_SCHEDULER_MAIN: Load scheduler "thk1" with entities [Rurukaka (ID: 17212145/0x0106A2F1), Rurukaka (ID: 17212145/0x0106A2F1)], work=40*
 66: 0x01E9 [0x1C] WAIT(30* ticks)
 67: 0x01EC [0x2B] Rurukaka (ID: 17212145/0x0106A2F1) [11563*]:
    → "Oh my... That stone in your hand... Could it be...$6?"
 68: 0x01F3 [0x1C] WAIT(120* ticks)
 69: 0x01F6 [0x23] WAIT_FOR_DIALOG_INTERACTION
 70: 0x01F7 [0x52] END_LOAD_SCHEDULER: End scheduler "7804" with entities [LocalPlayer, LocalPlayer], work=490*
 71: 0x0206 [0x45] LOAD_SCHEDULED_TASK: Load scheduler "7805" with entities [LocalPlayer, LocalPlayer], work=[490*, 0*]
 72: 0x0217 [0x66] LOAD_EXT_SCHEDULER_MAIN: Load scheduler "thk2" with entities [Rurukaka (ID: 17212145/0x0106A2F1), Rurukaka (ID: 17212145/0x0106A2F1)], work=40*
 73: 0x0226 [0x24] CREATE_DIALOG(message_id=11564*, default_option=0*, option_flags=0*)
    → "Is it as the Tarutaru says? [You've got rapier eyes, friend./Sorry, but you're mistaken.]"
 74: 0x022D [0x25] WAIT_DIALOG_SELECT()
 75: 0x022E [0x02] IF !(Work_Zone[0] == 0*) GOTO 0x0270
 76: 0x0236 [0x52] END_LOAD_SCHEDULER: End scheduler "7805" with entities [LocalPlayer, LocalPlayer], work=490*
 77: 0x0245 [0x45] LOAD_SCHEDULED_TASK: Load scheduler "7807" with entities [LocalPlayer, LocalPlayer], work=[490*, 0*]
 78: 0x0256 [0x6E] LocalPlayer uses emote 7*
 79: 0x025D [0x99] Wait for LocalPlayer animation to complete
 80: 0x0262 [0x1C] WAIT(90* ticks)
 81: 0x0265 [0x2B] Rurukaka (ID: 17212145/0x0106A2F1) [11565*]:
    → "Hehehe, they do say that it takes one to know one. No, waitaru... I mean, I'm no stranger to the stones, you know."
 82: 0x026C [0x23] WAIT_FOR_DIALOG_INTERACTION
 83: 0x026D [0x01] GOTO 0x02C1
 84: 0x0270 [0x02] IF !(Work_Zone[0] == 1*) GOTO 0x02C1
 85: 0x0278 [0x52] END_LOAD_SCHEDULER: End scheduler "7805" with entities [LocalPlayer, LocalPlayer], work=490*
 86: 0x0287 [0x45] LOAD_SCHEDULED_TASK: Load scheduler "7807" with entities [LocalPlayer, LocalPlayer], work=[490*, 0*]
 87: 0x0298 [0x6E] LocalPlayer uses emote 22*
 88: 0x029F [0x99] Wait for LocalPlayer animation to complete
 89: 0x02A4 [0x1C] WAIT(60* ticks)
 90: 0x02A7 [0x6E] Rurukaka (ID: 17212145/0x0106A2F1) uses emote 25*
 91: 0x02AE [0x99] Wait for Rurukaka (ID: 17212145/0x0106A2F1) animation to complete
 92: 0x02B3 [0x2B] Rurukaka (ID: 17212145/0x0106A2F1) [11566*]:
    → "Mistaken-shmishtaken! I know a traverser stone when I see one! I've got a few of the pretties myself, you know."
 93: 0x02BA [0x1C] WAIT(150* ticks)
 94: 0x02BD [0x23] WAIT_FOR_DIALOG_INTERACTION
 95: 0x02BE [0x01] GOTO 0x02C1

SUBROUTINE_02C1:
 96: 0x02C1 [0x6E] Rurukaka (ID: 17212145/0x0106A2F1) uses emote 32*
 97: 0x02C8 [0x99] Wait for Rurukaka (ID: 17212145/0x0106A2F1) animation to complete
 98: 0x02CD [0x1C] WAIT(30* ticks)
 99: 0x02D0 [0x03] Work_Zone[2] = ExtData[1]->WorkLocal[0]
100: 0x02D5 [0x2B] Rurukaka (ID: 17212145/0x0106A2F1) [11567*]:
    → "Anyhow, with that revelation, everything falls nicely into place. You're <Player>, and no mistaky-wake about it!"
101: 0x02DC [0x1C] WAIT(120* ticks)
102: 0x02DF [0x23] WAIT_FOR_DIALOG_INTERACTION
103: 0x02E0 [0x66] LOAD_EXT_SCHEDULER_MAIN: Load scheduler "thk1" with entities [Rurukaka (ID: 17212145/0x0106A2F1), Rurukaka (ID: 17212145/0x0106A2F1)], work=40*
104: 0x02EF [0x1C] WAIT(30* ticks)
105: 0x02F2 [0x52] END_LOAD_SCHEDULER: End scheduler "7807" with entities [LocalPlayer, LocalPlayer], work=490*
106: 0x0301 [0x45] LOAD_SCHEDULED_TASK: Load scheduler "7806" with entities [LocalPlayer, LocalPlayer], work=[490*, 0*]
107: 0x0312 [0x1C] WAIT(30* ticks)
108: 0x0315 [0x48] [System] [11568*]:
    → "The stranger bears down on <Player> with a penetrating gaze."
109: 0x0318 [0x1C] WAIT(120* ticks)
110: 0x031B [0x2B] Rurukaka (ID: 17212145/0x0106A2F1) [11569*]:
    → "Hrmmm... By the looks of you, you've made the journey-wourney before."
111: 0x0322 [0x23] WAIT_FOR_DIALOG_INTERACTION
112: 0x0323 [0x52] END_LOAD_SCHEDULER: End scheduler "7806" with entities [LocalPlayer, LocalPlayer], work=490*
113: 0x0332 [0x45] LOAD_SCHEDULED_TASK: Load scheduler "7808" with entities [LocalPlayer, LocalPlayer], work=[490*, 0*]
114: 0x0343 [0x29] REQ_SET_WAIT(priority=0x10, entity_id=LocalPlayer, tag_num=0x25)
115: 0x034A [0x29] REQ_SET_WAIT(priority=0x10, entity_id=Rurukaka (ID: 17212145/0x0106A2F1), tag_num=0x0B)
116: 0x0351 [0x66] LOAD_EXT_SCHEDULER_MAIN: Load scheduler "tlk0" with entities [Rurukaka (ID: 17212145/0x0106A2F1), Rurukaka (ID: 17212145/0x0106A2F1)], work=40*
117: 0x0360 [0x2B] Rurukaka (ID: 17212145/0x0106A2F1) [11570*]:
    → "Ah, before I go on, let me introduce myself. My namey-wame's Rurukaka, and it's an absolute pleasure to meetaru you!"
118: 0x0367 [0x23] WAIT_FOR_DIALOG_INTERACTION
119: 0x0368 [0x52] END_LOAD_SCHEDULER: End scheduler "7808" with entities [LocalPlayer, LocalPlayer], work=490*
120: 0x0377 [0x45] LOAD_SCHEDULED_TASK: Load scheduler "7809" with entities [LocalPlayer, LocalPlayer], work=[490*, 0*]
121: 0x0388 [0x2B] Rurukaka (ID: 17212145/0x0106A2F1) [11571*]:
    → "Doubtless you've already figured it out, but I'm a native of Abyssea. It's a stroke of lucky-wuck that we were able to meet here and now."
122: 0x038F [0x23] WAIT_FOR_DIALOG_INTERACTION
123: 0x0390 [0x66] LOAD_EXT_SCHEDULER_MAIN: Load scheduler "tlk1" with entities [Rurukaka (ID: 17212145/0x0106A2F1), Rurukaka (ID: 17212145/0x0106A2F1)], work=40*
124: 0x039F [0x2B] Rurukaka (ID: 17212145/0x0106A2F1) [11572*]:
    → "I was just about to cross back over when you showed up, you see. Just quietaruly, but one of the few pluses of returning-wurning to Abyssea is the sweet release from the discomfort of devivification."
125: 0x03A6 [0x23] WAIT_FOR_DIALOG_INTERACTION
126: 0x03A7 [0x53] WAIT_SCHEDULER_TASK: Wait for scheduler "tlk1" with entities [Rurukaka (ID: 17212145/0x0106A2F1), Rurukaka (ID: 17212145/0x0106A2F1)]
127: 0x03B4 [0x52] END_LOAD_SCHEDULER: End scheduler "7809" with entities [LocalPlayer, LocalPlayer], work=490*
128: 0x03C3 [0x45] LOAD_SCHEDULED_TASK: Load scheduler "7810" with entities [LocalPlayer, LocalPlayer], work=[490*, 0*]
129: 0x03D4 [0x6E] Rurukaka (ID: 17212145/0x0106A2F1) uses emote 26*
130: 0x03DB [0x99] Wait for Rurukaka (ID: 17212145/0x0106A2F1) animation to complete
131: 0x03E0 [0x03] Work_Zone[2] = 150*
132: 0x03E5 [0x27] REQ_SET(priority=0x10, entity_id=??? (ID: 17212147/0x0106A2F3), tag_num=0x01)
133: 0x03EC [0x1C] WAIT(45* ticks)
134: 0x03EF [0x2B] Rurukaka (ID: 17212145/0x0106A2F1) [11573*]:
    → "You do know about devivification, rightaru? How Abysseans suffer from a halving of strengthy-wength coupled with an unbearable chafing sensation when journeying to this dimension?"
135: 0x03F6 [0x23] WAIT_FOR_DIALOG_INTERACTION
136: 0x03F7 [0x2B] Rurukaka (ID: 17212145/0x0106A2F1) [11574*]:
    → "Unfortunately, there's no known way to suppress the effectaru. But a teensy-weensy bit of pain is the least we must endure for the sake of our world."
137: 0x03FE [0x23] WAIT_FOR_DIALOG_INTERACTION
138: 0x03FF [0x2A] GET_REQ_LEVEL(level=16, entity_id=??? (ID: 17212147/0x0106A2F3))
139: 0x0405 [0x5D] SET_MUSIC_VOLUME(volume=0*, fade_time=180*)
140: 0x040A [0x1C] WAIT(30* ticks)
141: 0x040D [0x5B] LOAD_EXT_SCHEDULER: Load scheduler "gud0" with entities [Rurukaka (ID: 17212145/0x0106A2F1), Rurukaka (ID: 17212145/0x0106A2F1)], work=1373*
142: 0x041C [0x1C] WAIT(15* ticks)
143: 0x041F [0x2B] Rurukaka (ID: 17212145/0x0106A2F1) [11575*]:
    → "Ah, but I do ramble-wamble."
144: 0x0426 [0x1C] WAIT(15* ticks)
145: 0x0429 [0x4A] LocalPlayer looks at Rurukaka (ID: 17212145/0x0106A2F1)
146: 0x0432 [0x23] WAIT_FOR_DIALOG_INTERACTION
147: 0x0433 [0x52] END_LOAD_SCHEDULER: End scheduler "7810" with entities [LocalPlayer, LocalPlayer], work=490*
148: 0x0442 [0x45] LOAD_SCHEDULED_TASK: Load scheduler "7811" with entities [LocalPlayer, LocalPlayer], work=[490*, 0*]
149: 0x0453 [0x03] Work_Zone[2] = ExtData[1]->WorkLocal[0]
150: 0x0458 [0x2B] Rurukaka (ID: 17212145/0x0106A2F1) [11576*]:
    → "Seeing as how you've come here in full knowledge of the situation-wation, I'll share with you some importantaru information."
151: 0x045F [0x23] WAIT_FOR_DIALOG_INTERACTION
152: 0x0460 [0x1C] WAIT(30* ticks)
153: 0x0463 [0x5C] MUSIC_CONTROL: Set Idle (Day) music to song 51*
154: 0x0467 [0x5C] MUSIC_CONTROL: Set Idle (Night) music to song 51*
155: 0x046B [0x9A] WAIT_MUSIC_SERVER()
156: 0x046C [0x2B] Rurukaka (ID: 17212145/0x0106A2F1) [11577*]:
    → "Beside the cavernous maw before you, another can be found here in North Gustaberg. The latter-watter, however, is as solid as a stiff and holds no interestaru for us. Feel free to ignore it."
157: 0x0473 [0x1C] WAIT(90* ticks)
158: 0x0476 [0x52] END_LOAD_SCHEDULER: End scheduler "7811" with entities [LocalPlayer, LocalPlayer], work=490*
159: 0x0485 [0x45] LOAD_SCHEDULED_TASK: Load scheduler "7812" with entities [LocalPlayer, LocalPlayer], work=[490*, 0*]
160: 0x0496 [0x1C] WAIT(270* ticks)
161: 0x0499 [0x23] WAIT_FOR_DIALOG_INTERACTION
162: 0x049A [0x52] END_LOAD_SCHEDULER: End scheduler "7812" with entities [LocalPlayer, LocalPlayer], work=490*
163: 0x04A9 [0x45] LOAD_SCHEDULED_TASK: Load scheduler "7814" with entities [LocalPlayer, LocalPlayer], work=[490*, 0*]
164: 0x04BA [0x2B] Rurukaka (ID: 17212145/0x0106A2F1) [11578*]:
    → "So, this leaves us with the maw here, which curiously doesn't lead to the North Gustaberg of Abyssea. Step through, and instead you'll find yourself in nearby Grauberg, an area that's become inaccessible in your world."
165: 0x04C1 [0x23] WAIT_FOR_DIALOG_INTERACTION
166: 0x04C2 [0x5B] LOAD_EXT_SCHEDULER: Load scheduler "gud1" with entities [Rurukaka (ID: 17212145/0x0106A2F1), Rurukaka (ID: 17212145/0x0106A2F1)], work=1373*
167: 0x04D1 [0x2B] Rurukaka (ID: 17212145/0x0106A2F1) [11579*]:
    → "Have you ever heardy-weard of Grauberg? It's a place steeped in mystique, said to be the home of some ancientaru wyrm deity."
168: 0x04D8 [0x23] WAIT_FOR_DIALOG_INTERACTION
169: 0x04D9 [0x52] END_LOAD_SCHEDULER: End scheduler "7814" with entities [LocalPlayer, LocalPlayer], work=490*
170: 0x04E8 [0x45] LOAD_SCHEDULED_TASK: Load scheduler "7815" with entities [LocalPlayer, LocalPlayer], work=[490*, 0*]
171: 0x04F9 [0x2B] Rurukaka (ID: 17212145/0x0106A2F1) [11580*]:
    → "Now, nobody-wody knows for sure why this maw isn't connected to the corresponding location in Abyssea."
172: 0x0500 [0x23] WAIT_FOR_DIALOG_INTERACTION
173: 0x0501 [0x2B] Rurukaka (ID: 17212145/0x0106A2F1) [11581*]:
    → "The brainier types would have us believe dimensional misalignmentaru is the cause, but it makes no difference in practice."
174: 0x0508 [0x23] WAIT_FOR_DIALOG_INTERACTION
175: 0x0509 [0x52] END_LOAD_SCHEDULER: End scheduler "7815" with entities [LocalPlayer, LocalPlayer], work=490*
176: 0x0518 [0x45] LOAD_SCHEDULED_TASK: Load scheduler "7816" with entities [LocalPlayer, LocalPlayer], work=[490*, 0*]
177: 0x0529 [0x66] LOAD_EXT_SCHEDULER_MAIN: Load scheduler "syu0" with entities [Rurukaka (ID: 17212145/0x0106A2F1), Rurukaka (ID: 17212145/0x0106A2F1)], work=40*
178: 0x0538 [0x2B] Rurukaka (ID: 17212145/0x0106A2F1) [11582*]:
    → "Justaru keep in mind that this maw leads to Grauberg, and you'll be rightaru as rainy-wain!"
179: 0x053F [0x23] WAIT_FOR_DIALOG_INTERACTION
180: 0x0540 [0x53] WAIT_SCHEDULER_TASK: Wait for scheduler "syu0" with entities [Rurukaka (ID: 17212145/0x0106A2F1), Rurukaka (ID: 17212145/0x0106A2F1)]
181: 0x054D [0x6E] Rurukaka (ID: 17212145/0x0106A2F1) uses emote 35*
182: 0x0554 [0x99] Wait for Rurukaka (ID: 17212145/0x0106A2F1) animation to complete
183: 0x0559 [0x2B] Rurukaka (ID: 17212145/0x0106A2F1) [11583*]:
    → "That is, as long as you don't run afoul of the many terrible-werrible beasts that prowl the valleys and woodlands over yonder."
184: 0x0560 [0x1C] WAIT(150* ticks)
185: 0x0563 [0x23] WAIT_FOR_DIALOG_INTERACTION
186: 0x0564 [0x52] END_LOAD_SCHEDULER: End scheduler "7816" with entities [LocalPlayer, LocalPlayer], work=490*
187: 0x0573 [0x45] LOAD_SCHEDULED_TASK: Load scheduler "7817" with entities [LocalPlayer, LocalPlayer], work=[490*, 0*]
188: 0x0584 [0x03] Work_Zone[2] = ExtData[1]->WorkLocal[0]
189: 0x0589 [0x2B] Rurukaka (ID: 17212145/0x0106A2F1) [11584*]:
    → "So terrible-werrible are they, in fact, you'd be forgiven for not wanting to pay them a visit. No one's forcing you to go, aftaru all."
190: 0x0590 [0x23] WAIT_FOR_DIALOG_INTERACTION
191: 0x0591 [0x1C] WAIT(60* ticks)
192: 0x0594 [0x7C] Rurukaka (ID: 17212145/0x0106A2F1)->Render.Flags2 |= 0x00
193: 0x059A [0x2B] Rurukaka (ID: 17212145/0x0106A2F1) [11585*]:
    → "..."
194: 0x05A1 [0x23] WAIT_FOR_DIALOG_INTERACTION
195: 0x05A2 [0x7C] Rurukaka (ID: 17212145/0x0106A2F1)->Render.Flags2 |= 0x01
196: 0x05A8 [0x52] END_LOAD_SCHEDULER: End scheduler "7817" with entities [LocalPlayer, LocalPlayer], work=490*
197: 0x05B7 [0x29] REQ_SET_WAIT(priority=0x10, entity_id=LocalPlayer, tag_num=0x1D)
198: 0x05BE [0x02] IF !(Work_Zone[2] == 5*) GOTO 0x05DA
199: 0x05C6 [0x45] LOAD_SCHEDULED_TASK: Load scheduler "7819" with entities [LocalPlayer, LocalPlayer], work=[490*, 0*]
200: 0x05D7 [0x01] GOTO 0x0607
201: 0x05DA [0x02] IF !(Work_Zone[2] == 6*) GOTO 0x05F6
202: 0x05E2 [0x45] LOAD_SCHEDULED_TASK: Load scheduler "7819" with entities [LocalPlayer, LocalPlayer], work=[490*, 0*]
203: 0x05F3 [0x01] GOTO 0x0607
204: 0x05F6 [0x45] LOAD_SCHEDULED_TASK: Load scheduler "7818" with entities [LocalPlayer, LocalPlayer], work=[490*, 0*]

SUBROUTINE_0607:
205: 0x0607 [0xC5] LOAD_SCHEDULED_TASK_ALT3: Load scheduler 0x80133030 for entities [??? (ID: 17212147/0x0106A2F3), ??? (ID: 17212147/0x0106A2F3)], work=213*, param=12403
206: 0x0618 [0x66] LOAD_EXT_SCHEDULER_MAIN: Load scheduler "tlk0" with entities [Rurukaka (ID: 17212145/0x0106A2F1), Rurukaka (ID: 17212145/0x0106A2F1)], work=49*
207: 0x0627 [0x2B] Rurukaka (ID: 17212145/0x0106A2F1) [11586*]:
    → "Judging by your flinty-winty expression, it seems you've already made up your mind. If you must go, then I wish you the bestaru of luck."
208: 0x062E [0x23] WAIT_FOR_DIALOG_INTERACTION
209: 0x062F [0x2B] Rurukaka (ID: 17212145/0x0106A2F1) [11587*]:
    → "Before you dive into that floating gullet-wullet, though, there's just one more thing you should know."
210: 0x0636 [0x23] WAIT_FOR_DIALOG_INTERACTION
211: 0x0637 [0x66] LOAD_EXT_SCHEDULER_MAIN: Load scheduler "tlk1" with entities [Rurukaka (ID: 17212145/0x0106A2F1), Rurukaka (ID: 17212145/0x0106A2F1)], work=49*
212: 0x0646 [0x52] END_LOAD_SCHEDULER: End scheduler "7819" with entities [LocalPlayer, LocalPlayer], work=490*
213: 0x0655 [0x52] END_LOAD_SCHEDULER: End scheduler "7818" with entities [LocalPlayer, LocalPlayer], work=490*
214: 0x0664 [0x45] LOAD_SCHEDULED_TASK: Load scheduler "7820" with entities [LocalPlayer, LocalPlayer], work=[490*, 0*]
215: 0x0675 [0x77] SET_EVENT_TIME_WEATHER(hour=255*, weather=1*)
216: 0x067A [0xAB] EventEntity->UnknownFlag = 1 // Enable unknown flag
217: 0x067C [0x1C] WAIT(60* ticks)
218: 0x067F [0x2B] Rurukaka (ID: 17212145/0x0106A2F1) [11588*]:
    → "I'm assuming you have experience with uragnites, those massive but gentle bivalves common-wommon to the warm waters of the south. Well, a specimen has somehow managed to scuttle its way over to Grauberg."
219: 0x0686 [0x23] WAIT_FOR_DIALOG_INTERACTION
220: 0x0687 [0x52] END_LOAD_SCHEDULER: End scheduler "7820" with entities [LocalPlayer, LocalPlayer], work=490*
221: 0x0696 [0x45] LOAD_SCHEDULED_TASK: Load scheduler "7821" with entities [LocalPlayer, LocalPlayer], work=[490*, 0*]
222: 0x06A7 [0x1C] WAIT(60* ticks)
223: 0x06AA [0x2B] Rurukaka (ID: 17212145/0x0106A2F1) [11589*]:
    → "Taken by curiosity, my companions and I approachy-woached it, thinking it harmless. But we were quickly made to learn the error of this assumption to our grievous sorrow-worrow."
224: 0x06B1 [0x23] WAIT_FOR_DIALOG_INTERACTION
225: 0x06B2 [0x52] END_LOAD_SCHEDULER: End scheduler "7821" with entities [LocalPlayer, LocalPlayer], work=490*
226: 0x06C1 [0x45] LOAD_SCHEDULED_TASK: Load scheduler "7822" with entities [LocalPlayer, LocalPlayer], work=[490*, 0*]
227: 0x06D2 [0xAB] EventEntity->UnknownFlag = 0 // Disable unknown flag
228: 0x06D4 [0x78] ENABLE_GAME_TIMER_RESET_WEATHER()
229: 0x06D5 [0x1C] WAIT(30* ticks)
230: 0x06D8 [0xC5] LOAD_SCHEDULED_TASK_ALT3: Load scheduler 0x8013306C for entities [??? (ID: 17212147/0x0106A2F3), ??? (ID: 17212147/0x0106A2F3)], work=213*, param=26987
231: 0x06E9 [0x1C] WAIT(30* ticks)
232: 0x06EC [0x4E] SET_ENTITY_HIDE_FLAG: Hide Unnamed NPC (ID: 17212146/0x0106A2F2)
233: 0x06F2 [0x66] LOAD_EXT_SCHEDULER_MAIN: Load scheduler "tlk0" with entities [Rurukaka (ID: 17212145/0x0106A2F1), Rurukaka (ID: 17212145/0x0106A2F1)], work=49*
234: 0x0701 [0x2B] Rurukaka (ID: 17212145/0x0106A2F1) [11590*]:
    → "It came after us, <Player>, murder burning in its bloodshotaru eyes. I managed to escape with my life, but my comrades didn'taru fare so well."
235: 0x0708 [0x23] WAIT_FOR_DIALOG_INTERACTION
236: 0x0709 [0x52] END_LOAD_SCHEDULER: End scheduler "7822" with entities [LocalPlayer, LocalPlayer], work=490*
237: 0x0718 [0x45] LOAD_SCHEDULED_TASK: Load scheduler "7823" with entities [LocalPlayer, LocalPlayer], work=[490*, 0*]
238: 0x0729 [0x2B] Rurukaka (ID: 17212145/0x0106A2F1) [11591*]:
    → "The creature is downrightaru frightful, even among the hordes of fell beasts that now inhabit Grauberg. Should you have the ill fortune of crossing paths with the fiendy-wiend, don't even think about playing hero."
239: 0x0730 [0x23] WAIT_FOR_DIALOG_INTERACTION
240: 0x0731 [0x6E] Rurukaka (ID: 17212145/0x0106A2F1) uses emote 7*
241: 0x0738 [0x99] Wait for Rurukaka (ID: 17212145/0x0106A2F1) animation to complete
242: 0x073D [0x2B] Rurukaka (ID: 17212145/0x0106A2F1) [11592*]:
    → "To you, all of this might seem like just another day's adventuring, but you're the lightaru of hope for the people of Abyssea. Promise me you won't go throwing your life away like a stacky-wack of pebbles, okay?"
243: 0x0744 [0x1C] WAIT(90* ticks)
244: 0x0747 [0x5D] SET_MUSIC_VOLUME(volume=0*, fade_time=120*)
245: 0x074C [0x23] WAIT_FOR_DIALOG_INTERACTION
246: 0x074D [0x4A] Rurukaka (ID: 17212145/0x0106A2F1) looks at Cavernous Maw (ID: 17212110/0x0106A2CE)
247: 0x0756 [0x1C] WAIT(30* ticks)
248: 0x0759 [0x52] END_LOAD_SCHEDULER: End scheduler "7823" with entities [LocalPlayer, LocalPlayer], work=490*
249: 0x0768 [0x45] LOAD_SCHEDULED_TASK: Load scheduler "7825" with entities [LocalPlayer, LocalPlayer], work=[490*, 0*]
250: 0x0779 [0x2B] Rurukaka (ID: 17212145/0x0106A2F1) [11593*]:
    → "Jeepers, won't you look at the time! I had bettaru get a move on, else I'll get forcibly-worcibly expelled!"
251: 0x0780 [0x1C] WAIT(120* ticks)
252: 0x0783 [0x23] WAIT_FOR_DIALOG_INTERACTION
253: 0x0784 [0x52] END_LOAD_SCHEDULER: End scheduler "7825" with entities [LocalPlayer, LocalPlayer], work=490*
254: 0x0793 [0x45] LOAD_SCHEDULED_TASK: Load scheduler "7824" with entities [LocalPlayer, LocalPlayer], work=[490*, 0*]
255: 0x07A4 [0x27] REQ_SET(priority=0x10, entity_id=Rurukaka (ID: 17212145/0x0106A2F1), tag_num=0x0E)
256: 0x07AB [0x1C] WAIT(30* ticks)
257: 0x07AE [0x4A] LocalPlayer looks at Rurukaka (ID: 17212145/0x0106A2F1)
258: 0x07B7 [0x2A] GET_REQ_LEVEL(level=16, entity_id=Rurukaka (ID: 17212145/0x0106A2F1))
259: 0x07BD [0x2B] Rurukaka (ID: 17212145/0x0106A2F1) [11594*]:
    → "A pleasure-weasure talking to you, <Player>! Be safe in your travels!"
260: 0x07C4 [0x23] WAIT_FOR_DIALOG_INTERACTION
261: 0x07C5 [0x6E] Rurukaka (ID: 17212145/0x0106A2F1) uses emote 8*
262: 0x07CC [0x99] Wait for Rurukaka (ID: 17212145/0x0106A2F1) animation to complete
263: 0x07D1 [0x1C] WAIT(60* ticks)
264: 0x07D4 [0xCD] LOAD_SCHEDULED_TASK_ALT4: Load scheduler "main" with entities [Rurukaka (ID: 17212145/0x0106A2F1), Rurukaka (ID: 17212145/0x0106A2F1)], work=[79*, 0*]
265: 0x07E5 [0x1C] WAIT(120* ticks)
266: 0x07E8 [0x1A] CALL_SUBROUTINE(address=0x0C1B)
267: 0x07EB [0x1C] WAIT(30* ticks)
268: 0x07EE [0x52] END_LOAD_SCHEDULER: End scheduler "7824" with entities [LocalPlayer, LocalPlayer], work=490*
269: 0x07FD [0x45] LOAD_SCHEDULED_TASK: Load scheduler "0blf" with entities [LocalPlayer, LocalPlayer], work=[490*, 0*]
270: 0x080E [0x5C] MUSIC_CONTROL: Set Idle (Day) music to song 116*
271: 0x0812 [0x5C] MUSIC_CONTROL: Set Idle (Night) music to song 116*
272: 0x0816 [0x9A] WAIT_MUSIC_SERVER()
273: 0x0817 [0x46] CAMERA_CONTROL: Restore default settings
274: 0x0819 [0x45] LOAD_SCHEDULED_TASK: Load scheduler "fdi2" with entities [LocalPlayer, LocalPlayer], work=[200*, 0*]
275: 0x082A [0x21] END_EVENT
276: 0x082B [0x00] END_REQSTACK()
```

### Event 1

#### Metadata

| Field        | Value      |
|--------------|------------|
| Entrypoint   | 0x082C     |
| Data Size    | 1565 bytes |
| Instructions | 133        |

```
      00 01 02 03 04 05 06 07  08 09 0A 0B 0C 0D 0E 0F
      -- -- -- -- -- -- -- --  -- -- -- -- -- -- -- --
0820:                                      42 1A 1B 0C              B...
0830: 46 01 38 00 80 4E 00 F0  FF FF 7F 5D 13 80 53 80  F.8..N.....]..S.
0840: 27 10 F1 A2 06 01 04 4E  00 F4 A2 06 01 4E 00 F3  '......N.....N..
0850: A2 06 01 92 01 F0 FF FF  7F 92 01 F1 A2 06 01 94  ................
0860: 01 F0 FF FF 7F 94 01 F1  A2 06 01 94 01 CE A2 06  ................
0870: 01 94 01 F4 A2 06 01 94  01 F3 A2 06 01 BA F0 FF  ................
0880: FF 7F 54 80 55 80 56 80  57 80 BA F1 A2 06 01 58  ..T.U.V.W......X
0890: 80 59 80 5A 80 5B 80 80  F0 FF FF 7F 80 F1 A2 06  .Y.Z.[..........
08A0: 01 80 CE A2 06 01 29 10  F0 FF FF 7F 1F 66 44 80  ......)......fD.
08B0: F1 A2 06 01 F1 A2 06 01  73 69 74 6C 29 10 F1 A2  ........sitl)...
08C0: 06 01 0B 6C F0 FF FF 7F  13 80 20 80 29 10 F0 FF  ...l...... .)...
08D0: FF 7F 1E 03 00 00 02 10  1C 11 80 45 12 80 F0 FF  ...........E....
08E0: FF 7F F0 FF FF 7F 37 38  33 30 13 80 1A FA 0B CD  ......7830......
08F0: 5C 80 F0 FF FF 7F F0 FF  FF 7F 6D 61 69 6E 13 80  \.........main..
0900: 1C 14 80 92 00 F0 FF FF  7F 1C 22 80 27 10 F0 FF  ..........".'...
0910: FF 7F 20 1C 11 80 52 12  80 F0 FF FF 7F F0 FF FF  .. ...R.........
0920: 7F 37 38 33 30 45 12 80  F0 FF FF 7F F0 FF FF 7F  .7830E..........
0930: 37 38 33 31 13 80 2A 10  F0 FF FF 7F 2B F1 A2 06  7831..*.....+...
0940: 01 5D 80 1C 32 80 4A F0  FF FF 7F F1 A2 06 01 6F  .]..2.J........o
0950: 76 F0 FF FF 7F 23 5C 00  14 80 5C 01 14 80 9A 66  v....#\...\....f
0960: 44 80 F1 A2 06 01 F1 A2  06 01 73 69 74 31 1C 11  D.........sit1..
0970: 80 03 02 10 00 00 2B F1  A2 06 01 5E 80 23 53 F1  ......+....^.#S.
0980: A2 06 01 F1 A2 06 01 73  69 74 31 1C 11 80 52 12  .......sit1...R.
0990: 80 F0 FF FF 7F F0 FF FF  7F 37 38 33 31 45 12 80  .........7831E..
09A0: F0 FF FF 7F F0 FF FF 7F  37 38 33 32 13 80 6E F1  ........7832..n.
09B0: A2 06 01 2D 80 99 F1 A2  06 01 03 02 10 25 80 27  ...-.........%.'
09C0: 10 F3 A2 06 01 01 2B F1  A2 06 01 5F 80 23 2A 10  ......+...._.#*.
09D0: F3 A2 06 01 27 10 F1 A2  06 01 0F 1C 32 80 52 12  ....'.......2.R.
09E0: 80 F0 FF FF 7F F0 FF FF  7F 37 38 33 32 45 12 80  .........7832E..
09F0: F0 FF FF 7F F0 FF FF 7F  37 38 33 33 13 80 1C 11  ........7833....
0A00: 80 2B F1 A2 06 01 60 80  23 2A 10 F1 A2 06 01 66  .+....`.#*.....f
0A10: 44 80 F1 A2 06 01 F1 A2  06 01 74 6C 6B 30 2B F1  D.........tlk0+.
0A20: A2 06 01 61 80 1C 14 80  23 7B F1 A2 06 01 52 12  ...a....#{....R.
0A30: 80 F0 FF FF 7F F0 FF FF  7F 37 38 33 33 45 12 80  .........7833E..
0A40: F0 FF FF 7F F0 FF FF 7F  37 38 33 34 13 80 66 44  ........7834..fD
0A50: 80 F1 A2 06 01 F1 A2 06  01 74 6C 6B 31 2B F1 A2  .........tlk1+..
0A60: 06 01 62 80 23 53 F1 A2  06 01 F1 A2 06 01 74 6C  ..b.#S........tl
0A70: 6B 31 66 63 80 F1 A2 06  01 F1 A2 06 01 70 61 73  k1fc.........pas
0A80: 30 53 F1 A2 06 01 F1 A2  06 01 70 61 73 30 03 01  0S........pas0..
0A90: 10 20 80 43 00 43 01 52  12 80 F0 FF FF 7F F0 FF  . .C.C.R........
0AA0: FF 7F 37 38 33 34 45 12  80 F0 FF FF 7F F0 FF FF  ..7834E.........
0AB0: 7F 37 38 33 35 13 80 2B  F1 A2 06 01 64 80 23 6E  .7835..+....d.#n
0AC0: F1 A2 06 01 26 80 99 F1  A2 06 01 2B F1 A2 06 01  ....&......+....
0AD0: 65 80 1C 14 80 23 66 1B  80 F1 A2 06 01 F1 A2 06  e....#f.........
0AE0: 01 73 79 75 30 2B F1 A2  06 01 66 80 23 53 F1 A2  .syu0+....f.#S..
0AF0: 06 01 F1 A2 06 01 73 79  75 30 27 10 F1 A2 06 01  ......syu0'.....
0B00: 0E 1C 11 80 4A F0 FF FF  7F F1 A2 06 01 52 12 80  ....J........R..
0B10: F0 FF FF 7F F0 FF FF 7F  37 38 33 35 45 12 80 F0  ........7835E...
0B20: FF FF 7F F0 FF FF 7F 37  38 33 36 13 80 2A 10 F1  .......7836..*..
0B30: A2 06 01 2B F1 A2 06 01  67 80 23 5D 13 80 53 80  ...+....g.#]..S.
0B40: 6E F1 A2 06 01 4F 80 99  F1 A2 06 01 1C 22 80 CD  n....O......."..
0B50: 50 80 F1 A2 06 01 F1 A2  06 01 6D 61 69 6E 13 80  P.........main..
0B60: 1C 14 80 1A 1B 0C 1C 11  80 52 12 80 F0 FF FF 7F  .........R......
0B70: F0 FF FF 7F 37 38 33 36  45 12 80 F0 FF FF 7F F0  ....7836E.......
0B80: FF FF 7F 30 62 6C 66 13  80 5C 00 51 80 5C 01 51  ...0blf..\.Q.\.Q
0B90: 80 9A 46 00 45 68 80 F8  FF FF 7F F8 FF FF 7F 71  ..F.Eh.........q
0BA0: 73 74 63 13 80 45 52 80  F0 FF FF 7F F0 FF FF 7F  stc..ER.........
0BB0: 66 64 69 32 13 80 21 00  45 52 80 F0 FF FF 7F F0  fdi2..!.ER......
0BC0: FF FF 7F 66 64 69 30 13  80 55 52 80 F0 FF FF 7F  ...fdi0..UR.....
0BD0: F0 FF FF 7F 66 64 69 30  1B 45 52 80 F0 FF FF 7F  ....fdi0.ER.....
0BE0: F0 FF FF 7F 66 64 6F 30  13 80 55 52 80 F0 FF FF  ....fdo0..UR....
0BF0: 7F F0 FF FF 7F 66 64 6F  30 1B 45 52 80 F0 FF FF  .....fdo0.ER....
0C00: 7F F0 FF FF 7F 66 64 69  31 13 80 55 52 80 F0 FF  .....fdi1..UR...
0C10: FF 7F F0 FF FF 7F 66 64  69 31 1B 45 52 80 F0 FF  ......fdi1.ER...
0C20: FF 7F F0 FF FF 7F 66 64  6F 31 13 80 55 52 80 F0  ......fdo1..UR..
0C30: FF FF 7F F0 FF FF 7F 66  64 6F 31 1B 45 68 80 F0  .......fdo1.Eh..
0C40: FF FF 7F F0 FF FF 7F 77  68 69 31 13 80 55 68 80  .......whi1..Uh.
0C50: F0 FF FF 7F F0 FF FF 7F  77 68 69 31 1B 45 68 80  ........whi1.Eh.
0C60: F0 FF FF 7F F0 FF FF 7F  77 68 6F 31 13 80 55 68  ........who1..Uh
0C70: 80 F0 FF FF 7F F0 FF FF  7F 77 68 6F 31 1B 45 68  .........who1.Eh
0C80: 80 F0 FF FF 7F F0 FF FF  7F 77 68 6F 32 13 80 55  .........who2..U
0C90: 68 80 F0 FF FF 7F F0 FF  FF 7F 77 68 6F 32 1B 45  h.........who2.E
0CA0: 68 80 F0 FF FF 7F F0 FF  FF 7F 77 68 6F 33 13 80  h.........who3..
0CB0: 55 68 80 F0 FF FF 7F F0  FF FF 7F 77 68 6F 33 1B  Uh.........who3.
0CC0: 62 20 80 F0 FF FF 7F F0  FF FF 7F 6D 61 69 6E 13  b .........main.
0CD0: 80 1C 18 80 45 52 80 F0  FF FF 7F F0 FF FF 7F 66  ....ER.........f
0CE0: 64 6F 31 13 80 55 52 80  F0 FF FF 7F F0 FF FF 7F  do1..UR.........
0CF0: 66 64 6F 31 1B 45 52 80  F0 FF FF 7F F0 FF FF 7F  fdo1.ER.........
0D00: 66 64 69 31 13 80 62 69  80 F0 FF FF 7F F0 FF FF  fdi1..bi........
0D10: 7F 6D 61 69 6E 13 80 1C  11 80 55 52 80 F0 FF FF  .main.....UR....
0D20: 7F F0 FF FF 7F 66 64 69  31 1B 45 52 80 F0 FF FF  .....fdi1.ER....
0D30: 7F F0 FF FF 7F 62 6C 6F  6E 13 80 45 68 80 F0 FF  .....blon..Eh...
0D40: FF 7F F0 FF FF 7F 62 6C  6F 6E 13 80 1B 45 68 80  ......blon...Eh.
0D50: F0 FF FF 7F F0 FF FF 7F  77 68 69 30 13 80 55 68  ........whi0..Uh
0D60: 80 F0 FF FF 7F F0 FF FF  7F 77 68 69 30 1B 45 68  .........whi0.Eh
0D70: 80 F0 FF FF 7F F0 FF FF  7F 77 68 6F 30 13 80 55  .........who0..U
0D80: 68 80 F0 FF FF 7F F0 FF  FF 7F 77 68 6F 30 1B 45  h.........who0.E
0D90: 6A 80 F0 FF FF 7F F0 FF  FF 7F 65 66 6F 6E 13 80  j.........efon..
0DA0: 55 6A 80 F0 FF FF 7F F0  FF FF 7F 65 66 6F 6E 1B  Uj.........efon.
0DB0: 45 52 80 F0 FF FF 7F F0  FF FF 7F 66 64 69 73 13  ER.........fdis.
0DC0: 80 1B 45 52 80 F0 FF FF  7F F0 FF FF 7F 66 64 6F  ..ER.........fdo
0DD0: 73 13 80 55 52 80 F0 FF  FF 7F F0 FF FF 7F 66 64  s..UR.........fd
0DE0: 6F 73 1B 45 52 80 F0 FF  FF 7F F0 FF FF 7F 66 64  os.ER.........fd
0DF0: 69 66 13 80 1B 45 52 80  F0 FF FF 7F F0 FF FF 7F  if...ER.........
0E00: 66 64 6F 66 13 80 55 52  80 F0 FF FF 7F F0 FF FF  fdof..UR........
0E10: 7F 66 64 6F 66 1B 45 52  80 F0 FF FF 7F F0 FF FF  .fdof.ER........
0E20: 7F 66 64 69 70 13 80 1B  45 52 80 F0 FF FF 7F F0  .fdip...ER......
0E30: FF FF 7F 66 64 6F 70 13  80 55 52 80 F0 FF FF 7F  ...fdop..UR.....
0E40: F0 FF FF 7F 66 64 6F 70  1B                       ....fdop.       
```

#### Opcodes

```
  0: 0x082C [0x42] SET_CLI_EVENT_CANCEL_DATA()
  1: 0x082D [0x1A] CALL_SUBROUTINE(address=0x0C1B)
  2: 0x0830 [0x46] CAMERA_CONTROL: Disable user control
  3: 0x0832 [0x38] SET_CLIENT_EVENT_MODE(mode=19*)
  4: 0x0835 [0x4E] SET_ENTITY_HIDE_FLAG: Show LocalPlayer
  5: 0x083B [0x5D] SET_MUSIC_VOLUME(volume=0*, fade_time=300*)
  6: 0x0840 [0x27] REQ_SET(priority=0x10, entity_id=Rurukaka (ID: 17212145/0x0106A2F1), tag_num=0x04)
  7: 0x0847 [0x4E] SET_ENTITY_HIDE_FLAG: Show Unnamed NPC (ID: 17212148/0x0106A2F4)
  8: 0x084D [0x4E] SET_ENTITY_HIDE_FLAG: Show ??? (ID: 17212147/0x0106A2F3)
  9: 0x0853 [0x92] LocalPlayer->Render.Flags3 ^= 0x01
 10: 0x0859 [0x92] Rurukaka (ID: 17212145/0x0106A2F1)->Render.Flags3 ^= 0x01
 11: 0x085F [0x94] LocalPlayer->Render.Flags3 ^= 0x01
 12: 0x0865 [0x94] Rurukaka (ID: 17212145/0x0106A2F1)->Render.Flags3 ^= 0x01
 13: 0x086B [0x94] Cavernous Maw (ID: 17212110/0x0106A2CE)->Render.Flags3 ^= 0x01
 14: 0x0871 [0x94] Unnamed NPC (ID: 17212148/0x0106A2F4)->Render.Flags3 ^= 0x01
 15: 0x0877 [0x94] ??? (ID: 17212147/0x0106A2F3)->Render.Flags3 ^= 0x01
 16: 0x087D [0xBA] SET_ENTITY_POSITION(entity_id=LocalPlayer, pos_x=-71.629*, pos_z=600.061*, pos_y=-0.036*, direction=359.9°*)
 17: 0x088A [0xBA] SET_ENTITY_POSITION(entity_id=Rurukaka (ID: 17212145/0x0106A2F1), pos_x=-70.809*, pos_z=594.598*, pos_y=-0.571*, direction=257.4°*)
 18: 0x0897 [0x80] LOAD_WAIT(entity=LocalPlayer)
 19: 0x089C [0x80] LOAD_WAIT(entity=Rurukaka (ID: 17212145/0x0106A2F1))
 20: 0x08A1 [0x80] LOAD_WAIT(entity=Cavernous Maw (ID: 17212110/0x0106A2CE))
 21: 0x08A6 [0x29] REQ_SET_WAIT(priority=0x10, entity_id=LocalPlayer, tag_num=0x1F)
 22: 0x08AD [0x66] LOAD_EXT_SCHEDULER_MAIN: Load scheduler "sitl" with entities [Rurukaka (ID: 17212145/0x0106A2F1), Rurukaka (ID: 17212145/0x0106A2F1)], work=49*
 23: 0x08BC [0x29] REQ_SET_WAIT(priority=0x10, entity_id=Rurukaka (ID: 17212145/0x0106A2F1), tag_num=0x0B)
 24: 0x08C3 [0x6C] FADE_ENTITY_COLOR(entity_id=LocalPlayer, end_alpha=0*, fade_time=1*)
 25: 0x08CC [0x29] REQ_SET_WAIT(priority=0x10, entity_id=LocalPlayer, tag_num=0x1E)
 26: 0x08D3 [0x03] ExtData[1]->WorkLocal[0] = Work_Zone[2]
 27: 0x08D8 [0x1C] WAIT(30* ticks)
 28: 0x08DB [0x45] LOAD_SCHEDULED_TASK: Load scheduler "7830" with entities [LocalPlayer, LocalPlayer], work=[490*, 0*]
 29: 0x08EC [0x1A] CALL_SUBROUTINE(address=0x0BFA)
 30: 0x08EF [0xCD] LOAD_SCHEDULED_TASK_ALT4: Load scheduler "main" with entities [LocalPlayer, LocalPlayer], work=[80*, 0*]
 31: 0x0900 [0x1C] WAIT(120* ticks)
 32: 0x0903 [0x92] LocalPlayer->Render.Flags3 = Flags3  // No change (flag=0)
 33: 0x0909 [0x1C] WAIT(60* ticks)
 34: 0x090C [0x27] REQ_SET(priority=0x10, entity_id=LocalPlayer, tag_num=0x20)
 35: 0x0913 [0x1C] WAIT(30* ticks)
 36: 0x0916 [0x52] END_LOAD_SCHEDULER: End scheduler "7830" with entities [LocalPlayer, LocalPlayer], work=490*
 37: 0x0925 [0x45] LOAD_SCHEDULED_TASK: Load scheduler "7831" with entities [LocalPlayer, LocalPlayer], work=[490*, 0*]
 38: 0x0936 [0x2A] GET_REQ_LEVEL(level=16, entity_id=LocalPlayer)
 39: 0x093C [0x2B] Rurukaka (ID: 17212145/0x0106A2F1) [11595*]:
    → "Hello there, <Player>. You've been keeping busy since we lastaru spoke."
 40: 0x0943 [0x1C] WAIT(15* ticks)
 41: 0x0946 [0x4A] LocalPlayer looks at Rurukaka (ID: 17212145/0x0106A2F1)
 42: 0x094F [0x6F] WAIT_FRAME_DELAY: Yield until WaitTime reaches zero
 43: 0x0950 [0x76] CHECK_ENTITY_RENDER_FLAGS: Wait until LocalPlayer Render.Flags0 and Render.Flags3 conditions are met
 44: 0x0955 [0x23] WAIT_FOR_DIALOG_INTERACTION
 45: 0x0956 [0x5C] MUSIC_CONTROL: Set Idle (Day) music to song 120*
 46: 0x095A [0x5C] MUSIC_CONTROL: Set Idle (Night) music to song 120*
 47: 0x095E [0x9A] WAIT_MUSIC_SERVER()
 48: 0x095F [0x66] LOAD_EXT_SCHEDULER_MAIN: Load scheduler "sit1" with entities [Rurukaka (ID: 17212145/0x0106A2F1), Rurukaka (ID: 17212145/0x0106A2F1)], work=49*
 49: 0x096E [0x1C] WAIT(30* ticks)
 50: 0x0971 [0x03] Work_Zone[2] = ExtData[1]->WorkLocal[0]
 51: 0x0976 [0x2B] Rurukaka (ID: 17212145/0x0106A2F1) [11596*]:
    → "Word of your courageous-wageous exploits has already reached my ears. Not once did I dream that anyone--not even one of your world--could slay that fearsome fiend!"
 52: 0x097D [0x23] WAIT_FOR_DIALOG_INTERACTION
 53: 0x097E [0x53] WAIT_SCHEDULER_TASK: Wait for scheduler "sit1" with entities [Rurukaka (ID: 17212145/0x0106A2F1), Rurukaka (ID: 17212145/0x0106A2F1)]
 54: 0x098B [0x1C] WAIT(30* ticks)
 55: 0x098E [0x52] END_LOAD_SCHEDULER: End scheduler "7831" with entities [LocalPlayer, LocalPlayer], work=490*
 56: 0x099D [0x45] LOAD_SCHEDULED_TASK: Load scheduler "7832" with entities [LocalPlayer, LocalPlayer], work=[490*, 0*]
 57: 0x09AE [0x6E] Rurukaka (ID: 17212145/0x0106A2F1) uses emote 26*
 58: 0x09B5 [0x99] Wait for Rurukaka (ID: 17212145/0x0106A2F1) animation to complete
 59: 0x09BA [0x03] Work_Zone[2] = 150*
 60: 0x09BF [0x27] REQ_SET(priority=0x10, entity_id=??? (ID: 17212147/0x0106A2F3), tag_num=0x01)
 61: 0x09C6 [0x2B] Rurukaka (ID: 17212145/0x0106A2F1) [11597*]:
    → "I underestimated you, <Player>, and by no small margin at that. To you, my words of warning mustaru have rung as hollow as an empty-wempty keg!"
 62: 0x09CD [0x23] WAIT_FOR_DIALOG_INTERACTION
 63: 0x09CE [0x2A] GET_REQ_LEVEL(level=16, entity_id=??? (ID: 17212147/0x0106A2F3))
 64: 0x09D4 [0x27] REQ_SET(priority=0x10, entity_id=Rurukaka (ID: 17212145/0x0106A2F1), tag_num=0x0F)
 65: 0x09DB [0x1C] WAIT(15* ticks)
 66: 0x09DE [0x52] END_LOAD_SCHEDULER: End scheduler "7832" with entities [LocalPlayer, LocalPlayer], work=490*
 67: 0x09ED [0x45] LOAD_SCHEDULED_TASK: Load scheduler "7833" with entities [LocalPlayer, LocalPlayer], work=[490*, 0*]
 68: 0x09FE [0x1C] WAIT(30* ticks)
 69: 0x0A01 [0x2B] Rurukaka (ID: 17212145/0x0106A2F1) [11598*]:
    → "Now one less menace-wenace remains to terrorize the people of Grauberg."
 70: 0x0A08 [0x23] WAIT_FOR_DIALOG_INTERACTION
 71: 0x0A09 [0x2A] GET_REQ_LEVEL(level=16, entity_id=Rurukaka (ID: 17212145/0x0106A2F1))
 72: 0x0A0F [0x66] LOAD_EXT_SCHEDULER_MAIN: Load scheduler "tlk0" with entities [Rurukaka (ID: 17212145/0x0106A2F1), Rurukaka (ID: 17212145/0x0106A2F1)], work=49*
 73: 0x0A1E [0x2B] Rurukaka (ID: 17212145/0x0106A2F1) [11599*]:
    → "And we owe it all to you, <Player>. Thank you from the bottom-wottom of my heart."
 74: 0x0A25 [0x1C] WAIT(120* ticks)
 75: 0x0A28 [0x23] WAIT_FOR_DIALOG_INTERACTION
 76: 0x0A29 [0x7B] Rurukaka (ID: 17212145/0x0106A2F1) stops talking
 77: 0x0A2E [0x52] END_LOAD_SCHEDULER: End scheduler "7833" with entities [LocalPlayer, LocalPlayer], work=490*
 78: 0x0A3D [0x45] LOAD_SCHEDULED_TASK: Load scheduler "7834" with entities [LocalPlayer, LocalPlayer], work=[490*, 0*]
 79: 0x0A4E [0x66] LOAD_EXT_SCHEDULER_MAIN: Load scheduler "tlk1" with entities [Rurukaka (ID: 17212145/0x0106A2F1), Rurukaka (ID: 17212145/0x0106A2F1)], work=49*
 80: 0x0A5D [0x2B] Rurukaka (ID: 17212145/0x0106A2F1) [11600*]:
    → "This is hardly enough to show you the extentaru of my gratitude, but I want you to have it anyway."
 81: 0x0A64 [0x23] WAIT_FOR_DIALOG_INTERACTION
 82: 0x0A65 [0x53] WAIT_SCHEDULER_TASK: Wait for scheduler "tlk1" with entities [Rurukaka (ID: 17212145/0x0106A2F1), Rurukaka (ID: 17212145/0x0106A2F1)]
 83: 0x0A72 [0x66] LOAD_EXT_SCHEDULER_MAIN: Load scheduler "pas0" with entities [Rurukaka (ID: 17212145/0x0106A2F1), Rurukaka (ID: 17212145/0x0106A2F1)], work=111*
 84: 0x0A81 [0x53] WAIT_SCHEDULER_TASK: Wait for scheduler "pas0" with entities [Rurukaka (ID: 17212145/0x0106A2F1), Rurukaka (ID: 17212145/0x0106A2F1)]
 85: 0x0A8E [0x03] Work_Zone[1] = 1*
 86: 0x0A93 [0x43] SEND_EVENT_UPDATE: Send pending tag to server (packet 0x005B)
 87: 0x0A95 [0x43] SEND_EVENT_UPDATE: Check pending flag (skip if not pending)
 88: 0x0A97 [0x52] END_LOAD_SCHEDULER: End scheduler "7834" with entities [LocalPlayer, LocalPlayer], work=490*
 89: 0x0AA6 [0x45] LOAD_SCHEDULED_TASK: Load scheduler "7835" with entities [LocalPlayer, LocalPlayer], work=[490*, 0*]
 90: 0x0AB7 [0x2B] Rurukaka (ID: 17212145/0x0106A2F1) [11601*]:
    → "6."
 91: 0x0ABE [0x23] WAIT_FOR_DIALOG_INTERACTION
 92: 0x0ABF [0x6E] Rurukaka (ID: 17212145/0x0106A2F1) uses emote 32*
 93: 0x0AC6 [0x99] Wait for Rurukaka (ID: 17212145/0x0106A2F1) animation to complete
 94: 0x0ACB [0x2B] Rurukaka (ID: 17212145/0x0106A2F1) [11602*]:
    → "It's a rare variety of abyssite, said to be attuned to folk of this dimension. What its effectarus are, though, I'll leave the joy of discovery to you."
 95: 0x0AD2 [0x1C] WAIT(120* ticks)
 96: 0x0AD5 [0x23] WAIT_FOR_DIALOG_INTERACTION
 97: 0x0AD6 [0x66] LOAD_EXT_SCHEDULER_MAIN: Load scheduler "syu0" with entities [Rurukaka (ID: 17212145/0x0106A2F1), Rurukaka (ID: 17212145/0x0106A2F1)], work=40*
 98: 0x0AE5 [0x2B] Rurukaka (ID: 17212145/0x0106A2F1) [11603*]:
    → "Your deedy-weeds have inspired the survivors, fanning the guttering flame of their resolve. I hope that you'll continue being the lightaru of hope for my people and me!"
 99: 0x0AEC [0x23] WAIT_FOR_DIALOG_INTERACTION
100: 0x0AED [0x53] WAIT_SCHEDULER_TASK: Wait for scheduler "syu0" with entities [Rurukaka (ID: 17212145/0x0106A2F1), Rurukaka (ID: 17212145/0x0106A2F1)]
101: 0x0AFA [0x27] REQ_SET(priority=0x10, entity_id=Rurukaka (ID: 17212145/0x0106A2F1), tag_num=0x0E)
102: 0x0B01 [0x1C] WAIT(30* ticks)
103: 0x0B04 [0x4A] LocalPlayer looks at Rurukaka (ID: 17212145/0x0106A2F1)
104: 0x0B0D [0x52] END_LOAD_SCHEDULER: End scheduler "7835" with entities [LocalPlayer, LocalPlayer], work=490*
105: 0x0B1C [0x45] LOAD_SCHEDULED_TASK: Load scheduler "7836" with entities [LocalPlayer, LocalPlayer], work=[490*, 0*]
106: 0x0B2D [0x2A] GET_REQ_LEVEL(level=16, entity_id=Rurukaka (ID: 17212145/0x0106A2F1))
107: 0x0B33 [0x2B] Rurukaka (ID: 17212145/0x0106A2F1) [11604*]:
    → "Go well, <Player>! Be seeing you!"
108: 0x0B3A [0x23] WAIT_FOR_DIALOG_INTERACTION
109: 0x0B3B [0x5D] SET_MUSIC_VOLUME(volume=0*, fade_time=300*)
110: 0x0B40 [0x6E] Rurukaka (ID: 17212145/0x0106A2F1) uses emote 8*
111: 0x0B47 [0x99] Wait for Rurukaka (ID: 17212145/0x0106A2F1) animation to complete
112: 0x0B4C [0x1C] WAIT(60* ticks)
113: 0x0B4F [0xCD] LOAD_SCHEDULED_TASK_ALT4: Load scheduler "main" with entities [Rurukaka (ID: 17212145/0x0106A2F1), Rurukaka (ID: 17212145/0x0106A2F1)], work=[79*, 0*]
114: 0x0B60 [0x1C] WAIT(120* ticks)
115: 0x0B63 [0x1A] CALL_SUBROUTINE(address=0x0C1B)
116: 0x0B66 [0x1C] WAIT(30* ticks)
117: 0x0B69 [0x52] END_LOAD_SCHEDULER: End scheduler "7836" with entities [LocalPlayer, LocalPlayer], work=490*
118: 0x0B78 [0x45] LOAD_SCHEDULED_TASK: Load scheduler "0blf" with entities [LocalPlayer, LocalPlayer], work=[490*, 0*]
119: 0x0B89 [0x5C] MUSIC_CONTROL: Set Idle (Day) music to song 116*
120: 0x0B8D [0x5C] MUSIC_CONTROL: Set Idle (Night) music to song 116*
121: 0x0B91 [0x9A] WAIT_MUSIC_SERVER()
122: 0x0B92 [0x46] CAMERA_CONTROL: Restore default settings
123: 0x0B94 [0x45] LOAD_SCHEDULED_TASK: Load scheduler "qstc" with entities [EventEntity, EventEntity], work=[201*, 0*]
124: 0x0BA5 [0x45] LOAD_SCHEDULED_TASK: Load scheduler "fdi2" with entities [LocalPlayer, LocalPlayer], work=[200*, 0*]
125: 0x0BB6 [0x21] END_EVENT
126: 0x0BB7 [0x00] END_REQSTACK()

SUBROUTINE_0BFA:
127: 0x0BFA [0x45] LOAD_SCHEDULED_TASK: Load scheduler "fdi1" with entities [LocalPlayer, LocalPlayer], work=[200*, 0*]
128: 0x0C0B [0x55] WAIT_LOAD_SCHEDULER: Wait for scheduler "fdi1" with entities [LocalPlayer, LocalPlayer], work=200*
129: 0x0C1A [0x1B] RETURN

SUBROUTINE_0C1B:
130: 0x0C1B [0x45] LOAD_SCHEDULED_TASK: Load scheduler "fdo1" with entities [LocalPlayer, LocalPlayer], work=[200*, 0*]
131: 0x0C2C [0x55] WAIT_LOAD_SCHEDULER: Wait for scheduler "fdo1" with entities [LocalPlayer, LocalPlayer], work=200*
132: 0x0C3B [0x1B] RETURN
```

#### Data or dead code:

```
# Dead code (unreachable instructions):
     0x0BB8 [0x45] LOAD_SCHEDULED_TASK: Load scheduler "fdi0" with entities [LocalPlayer, LocalPlayer], work=[200*, 0*]
     0x0BC9 [0x55] WAIT_LOAD_SCHEDULER: Wait for scheduler "fdi0" with entities [LocalPlayer, LocalPlayer], work=200*
     0x0BD8 [0x1B] RETURN
     0x0BD9 [0x45] LOAD_SCHEDULED_TASK: Load scheduler "fdo0" with entities [LocalPlayer, LocalPlayer], work=[200*, 0*]
     0x0BEA [0x55] WAIT_LOAD_SCHEDULER: Wait for scheduler "fdo0" with entities [LocalPlayer, LocalPlayer], work=200*
     0x0BF9 [0x1B] RETURN
# Dead code (unreachable instructions):
     0x0C3C [0x45] LOAD_SCHEDULED_TASK: Load scheduler "whi1" with entities [LocalPlayer, LocalPlayer], work=[201*, 0*]
     0x0C4D [0x55] WAIT_LOAD_SCHEDULER: Wait for scheduler "whi1" with entities [LocalPlayer, LocalPlayer], work=201*
     0x0C5C [0x1B] RETURN
     0x0C5D [0x45] LOAD_SCHEDULED_TASK: Load scheduler "who1" with entities [LocalPlayer, LocalPlayer], work=[201*, 0*]
     0x0C6E [0x55] WAIT_LOAD_SCHEDULER: Wait for scheduler "who1" with entities [LocalPlayer, LocalPlayer], work=201*
     0x0C7D [0x1B] RETURN
     0x0C7E [0x45] LOAD_SCHEDULED_TASK: Load scheduler "who2" with entities [LocalPlayer, LocalPlayer], work=[201*, 0*]
     0x0C8F [0x55] WAIT_LOAD_SCHEDULER: Wait for scheduler "who2" with entities [LocalPlayer, LocalPlayer], work=201*
     0x0C9E [0x1B] RETURN
     0x0C9F [0x45] LOAD_SCHEDULED_TASK: Load scheduler "who3" with entities [LocalPlayer, LocalPlayer], work=[201*, 0*]
     0x0CB0 [0x55] WAIT_LOAD_SCHEDULER: Wait for scheduler "who3" with entities [LocalPlayer, LocalPlayer], work=201*
     0x0CBF [0x1B] RETURN
     0x0CC0 [0x62] LOAD_EVENT_SCHEDULER: Load scheduler "main" with entities [LocalPlayer, LocalPlayer], work=[1*, 0*]
     0x0CD1 [0x1C] WAIT(45* ticks)
     0x0CD4 [0x45] LOAD_SCHEDULED_TASK: Load scheduler "fdo1" with entities [LocalPlayer, LocalPlayer], work=[200*, 0*]
     0x0CE5 [0x55] WAIT_LOAD_SCHEDULER: Wait for scheduler "fdo1" with entities [LocalPlayer, LocalPlayer], work=200*
     0x0CF4 [0x1B] RETURN
     0x0CF5 [0x45] LOAD_SCHEDULED_TASK: Load scheduler "fdi1" with entities [LocalPlayer, LocalPlayer], work=[200*, 0*]
     0x0D06 [0x62] LOAD_EVENT_SCHEDULER: Load scheduler "main" with entities [LocalPlayer, LocalPlayer], work=[2*, 0*]
     0x0D17 [0x1C] WAIT(30* ticks)
     0x0D1A [0x55] WAIT_LOAD_SCHEDULER: Wait for scheduler "fdi1" with entities [LocalPlayer, LocalPlayer], work=200*
     0x0D29 [0x1B] RETURN
     0x0D2A [0x45] LOAD_SCHEDULED_TASK: Load scheduler "blon" with entities [LocalPlayer, LocalPlayer], work=[200*, 0*]
     0x0D3B [0x45] LOAD_SCHEDULED_TASK: Load scheduler "blon" with entities [LocalPlayer, LocalPlayer], work=[201*, 0*]
     0x0D4C [0x1B] RETURN
     0x0D4D [0x45] LOAD_SCHEDULED_TASK: Load scheduler "whi0" with entities [LocalPlayer, LocalPlayer], work=[201*, 0*]
     0x0D5E [0x55] WAIT_LOAD_SCHEDULER: Wait for scheduler "whi0" with entities [LocalPlayer, LocalPlayer], work=201*
     0x0D6D [0x1B] RETURN
     0x0D6E [0x45] LOAD_SCHEDULED_TASK: Load scheduler "who0" with entities [LocalPlayer, LocalPlayer], work=[201*, 0*]
     0x0D7F [0x55] WAIT_LOAD_SCHEDULER: Wait for scheduler "who0" with entities [LocalPlayer, LocalPlayer], work=201*
     0x0D8E [0x1B] RETURN
     0x0D8F [0x45] LOAD_SCHEDULED_TASK: Load scheduler "efon" with entities [LocalPlayer, LocalPlayer], work=[215*, 0*]
     0x0DA0 [0x55] WAIT_LOAD_SCHEDULER: Wait for scheduler "efon" with entities [LocalPlayer, LocalPlayer], work=215*
     0x0DAF [0x1B] RETURN
     0x0DB0 [0x45] LOAD_SCHEDULED_TASK: Load scheduler "fdis" with entities [LocalPlayer, LocalPlayer], work=[200*, 0*]
     0x0DC1 [0x1B] RETURN
     0x0DC2 [0x45] LOAD_SCHEDULED_TASK: Load scheduler "fdos" with entities [LocalPlayer, LocalPlayer], work=[200*, 0*]
     0x0DD3 [0x55] WAIT_LOAD_SCHEDULER: Wait for scheduler "fdos" with entities [LocalPlayer, LocalPlayer], work=200*
     0x0DE2 [0x1B] RETURN
     0x0DE3 [0x45] LOAD_SCHEDULED_TASK: Load scheduler "fdif" with entities [LocalPlayer, LocalPlayer], work=[200*, 0*]
     0x0DF4 [0x1B] RETURN
     0x0DF5 [0x45] LOAD_SCHEDULED_TASK: Load scheduler "fdof" with entities [LocalPlayer, LocalPlayer], work=[200*, 0*]
     0x0E06 [0x55] WAIT_LOAD_SCHEDULER: Wait for scheduler "fdof" with entities [LocalPlayer, LocalPlayer], work=200*
     0x0E15 [0x1B] RETURN
     0x0E16 [0x45] LOAD_SCHEDULED_TASK: Load scheduler "fdip" with entities [LocalPlayer, LocalPlayer], work=[200*, 0*]
     0x0E27 [0x1B] RETURN
     0x0E28 [0x45] LOAD_SCHEDULED_TASK: Load scheduler "fdop" with entities [LocalPlayer, LocalPlayer], work=[200*, 0*]
     0x0E39 [0x55] WAIT_LOAD_SCHEDULER: Wait for scheduler "fdop" with entities [LocalPlayer, LocalPlayer], work=200*
     0x0E48 [0x1B] RETURN
```
