# 17212105

## Common Data

| Field            | Value                     |
|------------------|---------------------------|
| Zone             | North Gustaberg (ID: 106) |
| Block Size       | 372 bytes                 |
| Total Events     | 3                         |
| References Count | 16                        |

## List of Events

| Event ID              | Entrypoint   |   Size |   Instructions |
|-----------------------|--------------|--------|----------------|
| [65535](#event-65535) | 0x0000       |      1 |              1 |
| [263](#event-263)     | 0x0001       |     14 |              8 |
| [264](#event-264)     | 0x000F       |    264 |             39 |

## DAT References (imed_data)

|   Index | Hex Value   |   Dec Value |
|---------|-------------|-------------|
|       0 | 0x1CE2      |        7394 |
|       1 | 0x1CE3      |        7395 |
|       2 | 0x00C8      |         200 |
|       3 | 0x0000      |           0 |
|       4 | 0x003C      |          60 |
|       5 | 0x0001      |           1 |
|       6 | 0x0058      |          88 |
|       7 | 0x0011      |          17 |
|       8 | 0x0013      |          19 |
|       9 | 0x000F      |          15 |
|      10 | 0x0155      |         341 |
|      11 | 0x00C9      |         201 |
|      12 | 0x001E      |          30 |
|      13 | 0x1CE4      |        7396 |
|      14 | 0x012C      |         300 |
|      15 | 0x006A      |         106 |

## String References

- **7394**: The sparkling light seems vaguely familiar to you...
- **7395**: You sense that a certain trigger may awaken the memories slumbering in your mind.
- **7396**: The fragrance of the flower sends your senses reeling back to the world of the past...

## Events

### Event 65535

#### Metadata

| Field        | Value   |
|--------------|---------|
| Entrypoint   | 0x0000  |
| Data Size    | 1 bytes |
| Instructions | 1       |

```
      00 01 02 03 04 05 06 07  08 09 0A 0B 0C 0D 0E 0F
      -- -- -- -- -- -- -- --  -- -- -- -- -- -- -- --
0000: 00                                                .               
```

#### Opcodes

```
  0: 0x0000 [0x00] END_REQSTACK()
```

### Event 263

#### Metadata

| Field        | Value    |
|--------------|----------|
| Entrypoint   | 0x0001   |
| Data Size    | 14 bytes |
| Instructions | 8        |

```
      00 01 02 03 04 05 06 07  08 09 0A 0B 0C 0D 0E 0F
      -- -- -- -- -- -- -- --  -- -- -- -- -- -- -- --
0000:    20 01 48 00 80 23 48  01 80 23 20 00 21 00       .H..#H..# .!. 
```

#### Opcodes

```
  0: 0x0001 [0x20] SET_CLI_EVENT_UC_FLAG: Lock player control
  1: 0x0003 [0x48] [System] [7394*]:
    → "The sparkling light seems vaguely familiar to you..."
  2: 0x0006 [0x23] WAIT_FOR_DIALOG_INTERACTION
  3: 0x0007 [0x48] [System] [7395*]:
    → "You sense that a certain trigger may awaken the memories slumbering in your mind."
  4: 0x000A [0x23] WAIT_FOR_DIALOG_INTERACTION
  5: 0x000B [0x20] SET_CLI_EVENT_UC_FLAG: Unlock player control
  6: 0x000D [0x21] END_EVENT
  7: 0x000E [0x00] END_REQSTACK()
```

### Event 264

#### Metadata

| Field        | Value     |
|--------------|-----------|
| Entrypoint   | 0x000F    |
| Data Size    | 264 bytes |
| Instructions | 39        |

```
      00 01 02 03 04 05 06 07  08 09 0A 0B 0C 0D 0E 0F
      -- -- -- -- -- -- -- --  -- -- -- -- -- -- -- --
0000:                                               42                 B
0010: 20 01 46 01 45 02 80 F0  FF FF 7F F0 FF FF 7F 66   .F.E..........f
0020: 64 6F 31 03 80 1C 04 80  1C 05 80 34 06 80 77 07  do1........4..w.
0030: 80 05 80 1C 05 80 38 08  80 4E 01 F0 FF FF 7F 4E  ......8..N.....N
0040: 01 C9 A2 06 01 4E 01 CA  A2 06 01 80 CB A2 06 01  .....N..........
0050: 80 CC A2 06 01 1C 09 80  45 0A 80 F0 FF FF 7F F0  ........E.......
0060: FF FF 7F 77 70 30 32 03  80 45 02 80 F0 FF FF 7F  ...wp02..E......
0070: F0 FF FF 7F 62 6C 6F 6E  03 80 45 0B 80 F0 FF FF  ....blon..E.....
0080: 7F F0 FF FF 7F 62 6C 6F  6E 03 80 45 02 80 F0 FF  .....blon..E....
0090: FF 7F F0 FF FF 7F 6F 76  6C 31 03 80 45 02 80 F0  ......ovl1..E...
00A0: FF FF 7F F0 FF FF 7F 66  64 69 31 03 80 1C 04 80  .......fdi1.....
00B0: 45 0A 80 F0 FF FF 7F F0  FF FF 7F 77 61 72 70 03  E..........warp.
00C0: 80 1C 0C 80 48 0D 80 1C  0E 80 45 02 80 F0 FF FF  ....H.....E.....
00D0: 7F F0 FF FF 7F 66 64 6F  31 03 80 1C 04 80 45 02  .....fdo1.....E.
00E0: 80 F0 FF FF 7F F0 FF FF  7F 62 6C 6F 66 03 80 29  .........blof..)
00F0: 01 F0 FF FF 7F 0D 35 0F  80 78 1C 05 80 46 00 45  ......5..x...F.E
0100: 02 80 F0 FF FF 7F F0 FF  FF 7F 66 64 69 31 03 80  ..........fdi1..
0110: 1C 04 80 20 00 21 00                              ... .!.         
```

#### Opcodes

```
  0: 0x000F [0x42] SET_CLI_EVENT_CANCEL_DATA()
  1: 0x0010 [0x20] SET_CLI_EVENT_UC_FLAG: Lock player control
  2: 0x0012 [0x46] CAMERA_CONTROL: Disable user control
  3: 0x0014 [0x45] LOAD_SCHEDULED_TASK: Load scheduler "fdo1" with entities [LocalPlayer, LocalPlayer], work=[200*, 0*]
  4: 0x0025 [0x1C] WAIT(60* ticks)
  5: 0x0028 [0x1C] WAIT(1* ticks)
  6: 0x002B [0x34] LOAD_UNLOAD_ZONE(zone_id=88*)
  7: 0x002E [0x77] SET_EVENT_TIME_WEATHER(hour=17*, weather=1*)
  8: 0x0033 [0x1C] WAIT(1* ticks)
  9: 0x0036 [0x38] SET_CLIENT_EVENT_MODE(mode=19*)
 10: 0x0039 [0x4E] SET_ENTITY_HIDE_FLAG: Hide LocalPlayer
 11: 0x003F [0x4E] SET_ENTITY_HIDE_FLAG: Hide Unnamed NPC (ID: 17212105/0x0106A2C9)
 12: 0x0045 [0x4E] SET_ENTITY_HIDE_FLAG: Hide Unnamed NPC (ID: 17212106/0x0106A2CA)
 13: 0x004B [0x80] LOAD_WAIT(entity=Unnamed NPC (ID: 17212107/0x0106A2CB))
 14: 0x0050 [0x80] LOAD_WAIT(entity=Lycopodium (ID: 17212108/0x0106A2CC))
 15: 0x0055 [0x1C] WAIT(15* ticks)
 16: 0x0058 [0x45] LOAD_SCHEDULED_TASK: Load scheduler "wp02" with entities [LocalPlayer, LocalPlayer], work=[341*, 0*]
 17: 0x0069 [0x45] LOAD_SCHEDULED_TASK: Load scheduler "blon" with entities [LocalPlayer, LocalPlayer], work=[200*, 0*]
 18: 0x007A [0x45] LOAD_SCHEDULED_TASK: Load scheduler "blon" with entities [LocalPlayer, LocalPlayer], work=[201*, 0*]
 19: 0x008B [0x45] LOAD_SCHEDULED_TASK: Load scheduler "ovl1" with entities [LocalPlayer, LocalPlayer], work=[200*, 0*]
 20: 0x009C [0x45] LOAD_SCHEDULED_TASK: Load scheduler "fdi1" with entities [LocalPlayer, LocalPlayer], work=[200*, 0*]
 21: 0x00AD [0x1C] WAIT(60* ticks)
 22: 0x00B0 [0x45] LOAD_SCHEDULED_TASK: Load scheduler "warp" with entities [LocalPlayer, LocalPlayer], work=[341*, 0*]
 23: 0x00C1 [0x1C] WAIT(30* ticks)
 24: 0x00C4 [0x48] [System] [7396*]:
    → "The fragrance of the flower sends your senses reeling back to the world of the past..."
 25: 0x00C7 [0x1C] WAIT(300* ticks)
 26: 0x00CA [0x45] LOAD_SCHEDULED_TASK: Load scheduler "fdo1" with entities [LocalPlayer, LocalPlayer], work=[200*, 0*]
 27: 0x00DB [0x1C] WAIT(60* ticks)
 28: 0x00DE [0x45] LOAD_SCHEDULED_TASK: Load scheduler "blof" with entities [LocalPlayer, LocalPlayer], work=[200*, 0*]
 29: 0x00EF [0x29] REQ_SET_WAIT(priority=0x01, entity_id=LocalPlayer, tag_num=0x0D)
 30: 0x00F6 [0x35] LOAD_ZONE_NO_CLOSE(zone_id=106*)
 31: 0x00F9 [0x78] ENABLE_GAME_TIMER_RESET_WEATHER()
 32: 0x00FA [0x1C] WAIT(1* ticks)
 33: 0x00FD [0x46] CAMERA_CONTROL: Restore default settings
 34: 0x00FF [0x45] LOAD_SCHEDULED_TASK: Load scheduler "fdi1" with entities [LocalPlayer, LocalPlayer], work=[200*, 0*]
 35: 0x0110 [0x1C] WAIT(60* ticks)
 36: 0x0113 [0x20] SET_CLI_EVENT_UC_FLAG: Unlock player control
 37: 0x0115 [0x21] END_EVENT
 38: 0x0116 [0x00] END_REQSTACK()
```
