# 17212106

## Common Data

| Field            | Value                     |
|------------------|---------------------------|
| Zone             | North Gustaberg (ID: 106) |
| Block Size       | 348 bytes                 |
| Total Events     | 2                         |
| References Count | 14                        |

## List of Events

| Event ID              | Entrypoint   |   Size |   Instructions |
|-----------------------|--------------|--------|----------------|
| [65535](#event-65535) | 0x0000       |      1 |              1 |
| [265](#event-265)     | 0x0001       |    264 |             39 |

## DAT References (imed_data)

|   Index | Hex Value   |   Dec Value |
|---------|-------------|-------------|
|       0 | 0x00C8      |         200 |
|       1 | 0x0000      |           0 |
|       2 | 0x003C      |          60 |
|       3 | 0x0001      |           1 |
|       4 | 0x0058      |          88 |
|       5 | 0x0011      |          17 |
|       6 | 0x0013      |          19 |
|       7 | 0x000F      |          15 |
|       8 | 0x0155      |         341 |
|       9 | 0x00C9      |         201 |
|      10 | 0x001E      |          30 |
|      11 | 0x1CE4      |        7396 |
|      12 | 0x012C      |         300 |
|      13 | 0x006A      |         106 |

## String References

- **7396**: The fragrance of the flower sends your senses reeling back to the world of the past...

## Events

### Event 65535

#### Metadata

| Field        | Value   |
|--------------|---------|
| Entrypoint   | 0x0000  |
| Data Size    | 1 bytes |
| Instructions | 1       |

```
      00 01 02 03 04 05 06 07  08 09 0A 0B 0C 0D 0E 0F
      -- -- -- -- -- -- -- --  -- -- -- -- -- -- -- --
0000: 00                                                .               
```

#### Opcodes

```
  0: 0x0000 [0x00] END_REQSTACK()
```

### Event 265

#### Metadata

| Field        | Value     |
|--------------|-----------|
| Entrypoint   | 0x0001    |
| Data Size    | 264 bytes |
| Instructions | 39        |

```
      00 01 02 03 04 05 06 07  08 09 0A 0B 0C 0D 0E 0F
      -- -- -- -- -- -- -- --  -- -- -- -- -- -- -- --
0000:    42 20 01 46 01 45 00  80 F0 FF FF 7F F0 FF FF   B .F.E.........
0010: 7F 66 64 6F 31 01 80 1C  02 80 1C 03 80 34 04 80  .fdo1........4..
0020: 77 05 80 03 80 1C 03 80  38 06 80 4E 01 F0 FF FF  w.......8..N....
0030: 7F 4E 01 C9 A2 06 01 4E  01 CA A2 06 01 80 CB A2  .N.....N........
0040: 06 01 80 CC A2 06 01 1C  07 80 45 08 80 F0 FF FF  ..........E.....
0050: 7F F0 FF FF 7F 77 70 30  32 01 80 45 00 80 F0 FF  .....wp02..E....
0060: FF 7F F0 FF FF 7F 62 6C  6F 6E 01 80 45 09 80 F0  ......blon..E...
0070: FF FF 7F F0 FF FF 7F 62  6C 6F 6E 01 80 45 00 80  .......blon..E..
0080: F0 FF FF 7F F0 FF FF 7F  6F 76 6C 31 01 80 45 00  ........ovl1..E.
0090: 80 F0 FF FF 7F F0 FF FF  7F 66 64 69 31 01 80 1C  .........fdi1...
00A0: 02 80 45 08 80 F0 FF FF  7F F0 FF FF 7F 77 61 72  ..E..........war
00B0: 70 01 80 1C 0A 80 48 0B  80 1C 0C 80 45 00 80 F0  p.....H.....E...
00C0: FF FF 7F F0 FF FF 7F 66  64 6F 31 01 80 1C 02 80  .......fdo1.....
00D0: 45 00 80 F0 FF FF 7F F0  FF FF 7F 62 6C 6F 66 01  E..........blof.
00E0: 80 29 01 F0 FF FF 7F 0C  35 0D 80 78 1C 03 80 46  .)......5..x...F
00F0: 00 45 00 80 F0 FF FF 7F  F0 FF FF 7F 66 64 69 31  .E..........fdi1
0100: 01 80 1C 02 80 20 00 21  00                       ..... .!.       
```

#### Opcodes

```
  0: 0x0001 [0x42] SET_CLI_EVENT_CANCEL_DATA()
  1: 0x0002 [0x20] SET_CLI_EVENT_UC_FLAG: Lock player control
  2: 0x0004 [0x46] CAMERA_CONTROL: Disable user control
  3: 0x0006 [0x45] LOAD_SCHEDULED_TASK: Load scheduler "fdo1" with entities [LocalPlayer, LocalPlayer], work=[200*, 0*]
  4: 0x0017 [0x1C] WAIT(60* ticks)
  5: 0x001A [0x1C] WAIT(1* ticks)
  6: 0x001D [0x34] LOAD_UNLOAD_ZONE(zone_id=88*)
  7: 0x0020 [0x77] SET_EVENT_TIME_WEATHER(hour=17*, weather=1*)
  8: 0x0025 [0x1C] WAIT(1* ticks)
  9: 0x0028 [0x38] SET_CLIENT_EVENT_MODE(mode=19*)
 10: 0x002B [0x4E] SET_ENTITY_HIDE_FLAG: Hide LocalPlayer
 11: 0x0031 [0x4E] SET_ENTITY_HIDE_FLAG: Hide Unnamed NPC (ID: 17212105/0x0106A2C9)
 12: 0x0037 [0x4E] SET_ENTITY_HIDE_FLAG: Hide Unnamed NPC (ID: 17212106/0x0106A2CA)
 13: 0x003D [0x80] LOAD_WAIT(entity=Unnamed NPC (ID: 17212107/0x0106A2CB))
 14: 0x0042 [0x80] LOAD_WAIT(entity=Lycopodium (ID: 17212108/0x0106A2CC))
 15: 0x0047 [0x1C] WAIT(15* ticks)
 16: 0x004A [0x45] LOAD_SCHEDULED_TASK: Load scheduler "wp02" with entities [LocalPlayer, LocalPlayer], work=[341*, 0*]
 17: 0x005B [0x45] LOAD_SCHEDULED_TASK: Load scheduler "blon" with entities [LocalPlayer, LocalPlayer], work=[200*, 0*]
 18: 0x006C [0x45] LOAD_SCHEDULED_TASK: Load scheduler "blon" with entities [LocalPlayer, LocalPlayer], work=[201*, 0*]
 19: 0x007D [0x45] LOAD_SCHEDULED_TASK: Load scheduler "ovl1" with entities [LocalPlayer, LocalPlayer], work=[200*, 0*]
 20: 0x008E [0x45] LOAD_SCHEDULED_TASK: Load scheduler "fdi1" with entities [LocalPlayer, LocalPlayer], work=[200*, 0*]
 21: 0x009F [0x1C] WAIT(60* ticks)
 22: 0x00A2 [0x45] LOAD_SCHEDULED_TASK: Load scheduler "warp" with entities [LocalPlayer, LocalPlayer], work=[341*, 0*]
 23: 0x00B3 [0x1C] WAIT(30* ticks)
 24: 0x00B6 [0x48] [System] [7396*]:
    → "The fragrance of the flower sends your senses reeling back to the world of the past..."
 25: 0x00B9 [0x1C] WAIT(300* ticks)
 26: 0x00BC [0x45] LOAD_SCHEDULED_TASK: Load scheduler "fdo1" with entities [LocalPlayer, LocalPlayer], work=[200*, 0*]
 27: 0x00CD [0x1C] WAIT(60* ticks)
 28: 0x00D0 [0x45] LOAD_SCHEDULED_TASK: Load scheduler "blof" with entities [LocalPlayer, LocalPlayer], work=[200*, 0*]
 29: 0x00E1 [0x29] REQ_SET_WAIT(priority=0x01, entity_id=LocalPlayer, tag_num=0x0C)
 30: 0x00E8 [0x35] LOAD_ZONE_NO_CLOSE(zone_id=106*)
 31: 0x00EB [0x78] ENABLE_GAME_TIMER_RESET_WEATHER()
 32: 0x00EC [0x1C] WAIT(1* ticks)
 33: 0x00EF [0x46] CAMERA_CONTROL: Restore default settings
 34: 0x00F1 [0x45] LOAD_SCHEDULED_TASK: Load scheduler "fdi1" with entities [LocalPlayer, LocalPlayer], work=[200*, 0*]
 35: 0x0102 [0x1C] WAIT(60* ticks)
 36: 0x0105 [0x20] SET_CLI_EVENT_UC_FLAG: Unlock player control
 37: 0x0107 [0x21] END_EVENT
 38: 0x0108 [0x00] END_REQSTACK()
```
