# 17212047

## Common Data

| Field            | Value                     |
|------------------|---------------------------|
| Zone             | North Gustaberg (ID: 106) |
| Block Size       | 108 bytes                 |
| Total Events     | 2                         |
| References Count | 5                         |

## List of Events

| Event ID              | Entrypoint   |   Size |   Instructions |
|-----------------------|--------------|--------|----------------|
| [65535](#event-65535) | 0x0000       |      1 |              1 |
| [10](#event-10)       | 0x0001       |     61 |             12 |

## DAT References (imed_data)

|   Index | Hex Value   |   Dec Value |
|---------|-------------|-------------|
|       0 | 0x0003      |           3 |
|       1 | 0x0000      |           0 |
|       2 | 0x1D1F      |        7455 |
|       3 | 0x1D20      |        7456 |
|       4 | 0x0001      |           1 |

## String References

- **7455**: You see something shining.
- **7456**: Pick up shining object? [Yes./No.]

## Events

### Event 65535

#### Metadata

| Field        | Value   |
|--------------|---------|
| Entrypoint   | 0x0000  |
| Data Size    | 1 bytes |
| Instructions | 1       |

```
      00 01 02 03 04 05 06 07  08 09 0A 0B 0C 0D 0E 0F
      -- -- -- -- -- -- -- --  -- -- -- -- -- -- -- --
0000: 00                                                .               
```

#### Opcodes

```
  0: 0x0000 [0x00] END_REQSTACK()
```

### Event 10

#### Metadata

| Field        | Value    |
|--------------|----------|
| Entrypoint   | 0x0001   |
| Data Size    | 61 bytes |
| Instructions | 12       |

```
      00 01 02 03 04 05 06 07  08 09 0A 0B 0C 0D 0E 0F
      -- -- -- -- -- -- -- --  -- -- -- -- -- -- -- --
0000:    4A F0 FF FF 7F F8 FF  FF 7F 62 00 80 F8 FF FF   J........b.....
0010: 7F F8 FF FF 7F 6D 61 69  6E 01 80 48 02 80 23 24  .....main..H..#$
0020: 03 80 01 80 01 80 25 02  00 10 01 80 00 37 00 03  ......%......7..
0030: 01 10 01 80 01 3C 00 03  01 10 04 80 21 00        .....<......!.  
```

#### Opcodes

```
  0: 0x0001 [0x4A] LocalPlayer looks at EventEntity
  1: 0x000A [0x62] LOAD_EVENT_SCHEDULER: Load scheduler "main" with entities [EventEntity, EventEntity], work=[3*, 0*]
  2: 0x001B [0x48] [System] [7455*]:
    → "You see something shining."
  3: 0x001E [0x23] WAIT_FOR_DIALOG_INTERACTION
  4: 0x001F [0x24] CREATE_DIALOG(message_id=7456*, default_option=0*, option_flags=0*)
    → "Pick up shining object? [Yes./No.]"
  5: 0x0026 [0x25] WAIT_DIALOG_SELECT()
  6: 0x0027 [0x02] IF !(Work_Zone[0] == 0*) GOTO 0x0037
  7: 0x002F [0x03] Work_Zone[1] = 0*
  8: 0x0034 [0x01] GOTO 0x003C
  9: 0x0037 [0x03] Work_Zone[1] = 1*

SUBROUTINE_003C:
 10: 0x003C [0x21] END_EVENT
 11: 0x003D [0x00] END_REQSTACK()
```
