# 17212139

## Common Data

| Field            | Value                     |
|------------------|---------------------------|
| Zone             | North Gustaberg (ID: 106) |
| Block Size       | 1072 bytes                |
| Total Events     | 5                         |
| References Count | 36                        |

## List of Events

| Event ID              | Entrypoint   |   Size |   Instructions |
|-----------------------|--------------|--------|----------------|
| [65535](#event-65535) | 0x0000       |      1 |              1 |
| [279](#event-279)     | 0x0001       |    485 |             80 |
| [280](#event-280)     | 0x01E6       |    135 |             31 |
| [281](#event-281)     | 0x026D       |    135 |             31 |
| [282](#event-282)     | 0x02F4       |    135 |             31 |

## DAT References (imed_data)

|   Index | Hex Value   |   Dec Value |
|---------|-------------|-------------|
|       0 | 0x0000      |           0 |
|       1 | 0x0009      |           9 |
|       2 | 0x000A      |          10 |
|       3 | 0x0013      |          19 |
|       4 | 0x0014      |          20 |
|       5 | 0x001D      |          29 |
|       6 | 0x30E1      |       12513 |
|       7 | 0x30E2      |       12514 |
|       8 | 0x30E3      |       12515 |
|       9 | 0x30E4      |       12516 |
|      10 | 0x30E5      |       12517 |
|      11 | 0x30E6      |       12518 |
|      12 | 0x0001      |           1 |
|      13 | 0x30E7      |       12519 |
|      14 | 0x30E8      |       12520 |
|      15 | 0x30E9      |       12521 |
|      16 | 0x30EA      |       12522 |
|      17 | 0x30EB      |       12523 |
|      18 | 0x30EC      |       12524 |
|      19 | 0x0002      |           2 |
|      20 | 0x30ED      |       12525 |
|      21 | 0x0003      |           3 |
|      22 | 0x0007      |           7 |
|      23 | 0x003C      |          60 |
|      24 | 0x0004      |           4 |
|      25 | 0x30EE      |       12526 |
|      26 | 0x007A      |         122 |
|      27 | 0x010E      |         270 |
|      28 | 0x00C8      |         200 |
|      29 | 0x30EF      |       12527 |
|      30 | 0x30F0      |       12528 |
|      31 | 0x30F1      |       12529 |
|      32 | 0x30F2      |       12530 |
|      33 | 0x30F3      |       12531 |
|      34 | 0x30F4      |       12532 |
|      35 | 0x30F5      |       12533 |

## String References

- **12522**: What will you do? [[Receive moogle magic/Remove moogle magic]./Teleport to town./Nothing.]

## Events

### Event 65535

#### Metadata

| Field        | Value   |
|--------------|---------|
| Entrypoint   | 0x0000  |
| Data Size    | 1 bytes |
| Instructions | 1       |

```
      00 01 02 03 04 05 06 07  08 09 0A 0B 0C 0D 0E 0F
      -- -- -- -- -- -- -- --  -- -- -- -- -- -- -- --
0000: 00                                                .               
```

#### Opcodes

```
  0: 0x0000 [0x00] END_REQSTACK()
```

### Event 279

#### Metadata

| Field        | Value     |
|--------------|-----------|
| Entrypoint   | 0x0001    |
| Data Size    | 485 bytes |
| Instructions | 80        |

```
      00 01 02 03 04 05 06 07  08 09 0A 0B 0C 0D 0E 0F
      -- -- -- -- -- -- -- --  -- -- -- -- -- -- -- --
0000:    03 00 00 03 10 41 00  80 01 80 02 10 01 00 41   .....A........A
0010: 02 80 03 80 02 10 02 00  41 04 80 05 80 02 10 03  ........A.......
0020: 00 03 04 00 04 10 4A EC  A2 06 01 F0 FF FF 7F 02  ......J.........
0030: 00 00 00 80 00 96 00 2C  EC A2 06 01 EC A2 06 01  .......,........
0040: 68 61 70 30 2B EC A2 06  01 06 80 23 2C EC A2 06  hap0+......#,...
0050: 01 EC A2 06 01 65 78 70  30 2B EC A2 06 01 07 80  .....exp0+......
0060: 23 2B EC A2 06 01 08 80  23 2B EC A2 06 01 09 80  #+......#+......
0070: 23 2B EC A2 06 01 0A 80  23 2B EC A2 06 01 0B 80  #+......#+......
0080: 23 2C EC A2 06 01 EC A2  06 01 65 78 70 31 03 01  #,........exp1..
0090: 10 00 80 01 E4 01 02 00  00 0C 80 00 CB 00 2C EC  ..............,.
00A0: A2 06 01 EC A2 06 01 65  78 70 30 2B EC A2 06 01  .......exp0+....
00B0: 0D 80 23 2B EC A2 06 01  0E 80 23 2C EC A2 06 01  ..#+......#,....
00C0: EC A2 06 01 65 78 70 31  01 FC 00 03 02 10 01 00  ....exp1........
00D0: 03 03 10 02 00 03 04 10  03 00 2C EC A2 06 01 EC  ..........,.....
00E0: A2 06 01 74 6C 6B 30 2B  EC A2 06 01 0F 80 23 2C  ...tlk0+......#,
00F0: EC A2 06 01 EC A2 06 01  74 6C 6B 31 03 02 10 04  ........tlk1....
0100: 00 24 10 80 00 80 00 80  25 02 00 10 00 80 00 85  .$......%.......
0110: 01 42 02 04 00 00 80 00  4C 01 2C EC A2 06 01 EC  .B......L.,.....
0120: A2 06 01 74 6C 6B 30 2B  EC A2 06 01 11 80 23 2B  ...tlk0+......#+
0130: EC A2 06 01 12 80 23 2C  EC A2 06 01 EC A2 06 01  ......#,........
0140: 74 6C 6B 31 03 01 10 13  80 01 73 01 2C EC A2 06  tlk1......s.,...
0150: 01 EC A2 06 01 74 6C 6B  30 2B EC A2 06 01 14 80  .....tlk0+......
0160: 23 2C EC A2 06 01 EC A2  06 01 74 6C 6B 31 03 01  #,........tlk1..
0170: 10 15 80 AD 00 16 80 EC  A2 06 01 F0 FF FF 7F 1C  ................
0180: 17 80 01 E4 01 02 00 10  0C 80 00 D4 01 42 03 01  .............B..
0190: 10 18 80 43 00 43 01 2C  EC A2 06 01 EC A2 06 01  ...C.C.,........
01A0: 6A 6F 62 30 2B EC A2 06  01 19 80 23 03 01 10 18  job0+......#....
01B0: 80 73 1A 80 EC A2 06 01  F0 FF FF 7F 1C 1B 80 45  .s.............E
01C0: 1C 80 F0 FF FF 7F F0 FF  FF 7F 66 64 6F 31 00 80  ..........fdo1..
01D0: 30 01 E4 01 02 00 10 13  80 00 E4 01 03 01 10 00  0...............
01E0: 80 01 E4 01 21 00                                 ....!.          
```

#### Opcodes

```
  0: 0x0001 [0x03] ExtData[1]->WorkLocal[0] = Work_Zone[3]
  1: 0x0006 [0x41] ExtData[1]->WorkLocal[1] = Work_Zone[2] (bits 0*-9*)
  2: 0x000F [0x41] ExtData[1]->WorkLocal[2] = Work_Zone[2] (bits 10*-19*)
  3: 0x0018 [0x41] ExtData[1]->WorkLocal[3] = Work_Zone[2] (bits 20*-29*)
  4: 0x0021 [0x03] ExtData[1]->WorkLocal[4] = Work_Zone[4]
  5: 0x0026 [0x4A] Moogle (ID: 17212140/0x0106A2EC) looks at LocalPlayer
  6: 0x002F [0x02] IF !(ExtData[1]->WorkLocal[0] == 0*) GOTO 0x0096
  7: 0x0037 [0x2C] CREATE_SCHEDULER_TASK: Create scheduler "hap0" with entities [Moogle (ID: 17212140/0x0106A2EC), Moogle (ID: 17212140/0x0106A2EC)]
  8: 0x0044 [0x2B] Moogle (ID: 17212140/0x0106A2EC) [12513*]:
    → "Kupopopo! This rowdy recreational romp will be the best time ever!"
  9: 0x004B [0x23] WAIT_FOR_DIALOG_INTERACTION
 10: 0x004C [0x2C] CREATE_SCHEDULER_TASK: Create scheduler "exp0" with entities [Moogle (ID: 17212140/0x0106A2EC), Moogle (ID: 17212140/0x0106A2EC)]
 11: 0x0059 [0x2B] Moogle (ID: 17212140/0x0106A2EC) [12514*]:
    → "Hmm? Oh, please ignore my idiomatic insinuations."
 12: 0x0060 [0x23] WAIT_FOR_DIALOG_INTERACTION
 13: 0x0061 [0x2B] Moogle (ID: 17212140/0x0106A2EC) [12515*]:
    → "This crazed creature captivates your interest, does it?"
 14: 0x0068 [0x23] WAIT_FOR_DIALOG_INTERACTION
 15: 0x0069 [0x2B] Moogle (ID: 17212140/0x0106A2EC) [12516*]:
    → "Not too long ago, its bespeckled brethren came vaulting into Vana'diel, causing a preponderance of problems, kupo!"
 16: 0x0070 [0x23] WAIT_FOR_DIALOG_INTERACTION
 17: 0x0071 [0x2B] Moogle (ID: 17212140/0x0106A2EC) [12517*]:
    → "And now there are these vermilion ones and violet ones traipsing into town, so I've been keeping an acute eye on their actions."
 18: 0x0078 [0x23] WAIT_FOR_DIALOG_INTERACTION
 19: 0x0079 [0x2B] Moogle (ID: 17212140/0x0106A2EC) [12518*]:
    → "Thankfully, there have been no ill-advised incidents yet. But still, some of these enigmatic entities have emigrated to ambient areas. Hopefully they aren't causing calamitous conundrums, kupo..."
 20: 0x0080 [0x23] WAIT_FOR_DIALOG_INTERACTION
 21: 0x0081 [0x2C] CREATE_SCHEDULER_TASK: Create scheduler "exp1" with entities [Moogle (ID: 17212140/0x0106A2EC), Moogle (ID: 17212140/0x0106A2EC)]
 22: 0x008E [0x03] Work_Zone[1] = 0*
 23: 0x0093 [0x01] GOTO 0x01E4
 24: 0x0096 [0x02] IF !(ExtData[1]->WorkLocal[0] == 1*) GOTO 0x00CB
 25: 0x009E [0x2C] CREATE_SCHEDULER_TASK: Create scheduler "exp0" with entities [Moogle (ID: 17212140/0x0106A2EC), Moogle (ID: 17212140/0x0106A2EC)]
 26: 0x00AB [0x2B] Moogle (ID: 17212140/0x0106A2EC) [12519*]:
    → "Our adventurer has arrived! You've taken in the tale, right?"
 27: 0x00B2 [0x23] WAIT_FOR_DIALOG_INTERACTION
 28: 0x00B3 [0x2B] Moogle (ID: 17212140/0x0106A2EC) [12520*]:
    → "Then let me sprinkle sundry moogle magics upon you! Ready?"
 29: 0x00BA [0x23] WAIT_FOR_DIALOG_INTERACTION
 30: 0x00BB [0x2C] CREATE_SCHEDULER_TASK: Create scheduler "exp1" with entities [Moogle (ID: 17212140/0x0106A2EC), Moogle (ID: 17212140/0x0106A2EC)]
 31: 0x00C8 [0x01] GOTO 0x00FC
 32: 0x00CB [0x03] Work_Zone[2] = ExtData[1]->WorkLocal[1]
 33: 0x00D0 [0x03] Work_Zone[3] = ExtData[1]->WorkLocal[2]
 34: 0x00D5 [0x03] Work_Zone[4] = ExtData[1]->WorkLocal[3]
 35: 0x00DA [0x2C] CREATE_SCHEDULER_TASK: Create scheduler "tlk0" with entities [Moogle (ID: 17212140/0x0106A2EC), Moogle (ID: 17212140/0x0106A2EC)]
 36: 0x00E7 [0x2B] Moogle (ID: 17212140/0x0106A2EC) [12521*]:
    → "You have amassed an amazing $0 chartruese stone shard[/s], $1 vermilion stone shard[/s], and $2 mauve stone shard[/s]. I'll teleport you to town to try your luck at the lottery. Do you truly wish to travel?"
 37: 0x00EE [0x23] WAIT_FOR_DIALOG_INTERACTION
 38: 0x00EF [0x2C] CREATE_SCHEDULER_TASK: Create scheduler "tlk1" with entities [Moogle (ID: 17212140/0x0106A2EC), Moogle (ID: 17212140/0x0106A2EC)]

SUBROUTINE_00FC:
 39: 0x00FC [0x03] Work_Zone[2] = ExtData[1]->WorkLocal[4]
 40: 0x0101 [0x24] CREATE_DIALOG(message_id=12522*, default_option=0*, option_flags=0*)
    → "What will you do? [[Receive moogle magic/Remove moogle magic]./Teleport to town./Nothing.]"
 41: 0x0108 [0x25] WAIT_DIALOG_SELECT()
 42: 0x0109 [0x02] IF !(Work_Zone[0] == 0*) GOTO 0x0185
 43: 0x0111 [0x42] SET_CLI_EVENT_CANCEL_DATA()
 44: 0x0112 [0x02] IF !(ExtData[1]->WorkLocal[4] == 0*) GOTO 0x014C
 45: 0x011A [0x2C] CREATE_SCHEDULER_TASK: Create scheduler "tlk0" with entities [Moogle (ID: 17212140/0x0106A2EC), Moogle (ID: 17212140/0x0106A2EC)]
 46: 0x0127 [0x2B] Moogle (ID: 17212140/0x0106A2EC) [12523*]:
    → "Certainly, my capable compadre! I'll hang around here should you desire the dissolution of my invigorating incantation."
 47: 0x012E [0x23] WAIT_FOR_DIALOG_INTERACTION
 48: 0x012F [0x2B] Moogle (ID: 17212140/0x0106A2EC) [12524*]:
    → "Good luck, kupo!"
 49: 0x0136 [0x23] WAIT_FOR_DIALOG_INTERACTION
 50: 0x0137 [0x2C] CREATE_SCHEDULER_TASK: Create scheduler "tlk1" with entities [Moogle (ID: 17212140/0x0106A2EC), Moogle (ID: 17212140/0x0106A2EC)]
 51: 0x0144 [0x03] Work_Zone[1] = 2*
 52: 0x0149 [0x01] GOTO 0x0173
 53: 0x014C [0x2C] CREATE_SCHEDULER_TASK: Create scheduler "tlk0" with entities [Moogle (ID: 17212140/0x0106A2EC), Moogle (ID: 17212140/0x0106A2EC)]
 54: 0x0159 [0x2B] Moogle (ID: 17212140/0x0106A2EC) [12525*]:
    → "Understood! Inform me immediately should you be inclined to capture the creatures, kupo!"
 55: 0x0160 [0x23] WAIT_FOR_DIALOG_INTERACTION
 56: 0x0161 [0x2C] CREATE_SCHEDULER_TASK: Create scheduler "tlk1" with entities [Moogle (ID: 17212140/0x0106A2EC), Moogle (ID: 17212140/0x0106A2EC)]
 57: 0x016E [0x03] Work_Zone[1] = 3*

SUBROUTINE_0173:
 58: 0x0173 [0xAD] DUAL_ENTITY_SCHEDULER_HANDLER: Execute sub-case 0 with entities [Moogle (ID: 17212140/0x0106A2EC), LocalPlayer], work=7*
 59: 0x017F [0x1C] WAIT(60* ticks)
 60: 0x0182 [0x01] GOTO 0x01E4
 61: 0x0185 [0x02] IF !(Work_Zone[0] == 1*) GOTO 0x01D4
 62: 0x018D [0x42] SET_CLI_EVENT_CANCEL_DATA()
 63: 0x018E [0x03] Work_Zone[1] = 4*
 64: 0x0193 [0x43] SEND_EVENT_UPDATE: Send pending tag to server (packet 0x005B)
 65: 0x0195 [0x43] SEND_EVENT_UPDATE: Check pending flag (skip if not pending)
 66: 0x0197 [0x2C] CREATE_SCHEDULER_TASK: Create scheduler "job0" with entities [Moogle (ID: 17212140/0x0106A2EC), Moogle (ID: 17212140/0x0106A2EC)]
 67: 0x01A4 [0x2B] Moogle (ID: 17212140/0x0106A2EC) [12526*]:
    → "Got it, kupo! My moogle mate will be pleased to propel you from town should you desperately desire!"
 68: 0x01AB [0x23] WAIT_FOR_DIALOG_INTERACTION
 69: 0x01AC [0x03] Work_Zone[1] = 4*
 70: 0x01B1 [0x73] Moogle (ID: 17212140/0x0106A2EC) casts magic 122* on LocalPlayer
 71: 0x01BC [0x1C] WAIT(270* ticks)
 72: 0x01BF [0x45] LOAD_SCHEDULED_TASK: Load scheduler "fdo1" with entities [LocalPlayer, LocalPlayer], work=[200*, 0*]
 73: 0x01D0 [0x30] SET_UCOFF_CONTINUE_ZERO()
 74: 0x01D1 [0x01] GOTO 0x01E4
 75: 0x01D4 [0x02] IF !(Work_Zone[0] == 2*) GOTO 0x01E4
 76: 0x01DC [0x03] Work_Zone[1] = 0*
 77: 0x01E1 [0x01] GOTO 0x01E4

SUBROUTINE_01E4:
 78: 0x01E4 [0x21] END_EVENT
 79: 0x01E5 [0x00] END_REQSTACK()
```

### Event 280

#### Metadata

| Field        | Value     |
|--------------|-----------|
| Entrypoint   | 0x01E6    |
| Data Size    | 135 bytes |
| Instructions | 31        |

```
      00 01 02 03 04 05 06 07  08 09 0A 0B 0C 0D 0E 0F
      -- -- -- -- -- -- -- --  -- -- -- -- -- -- -- --
01E0:                   4A ED  A2 06 01 F0 FF FF 7F 02        J.........
01F0: 02 10 00 80 80 02 02 2B  ED A2 06 01 1D 80 23 01  .......+......#.
0200: 6B 02 02 02 10 0C 80 80  15 02 2B ED A2 06 01 1E  k.........+.....
0210: 80 23 01 6B 02 02 02 10  13 80 80 38 02 2B ED A2  .#.k.......8.+..
0220: 06 01 1F 80 23 2B ED A2  06 01 20 80 23 2B ED A2  ....#+.... .#+..
0230: 06 01 21 80 23 01 6B 02  02 02 10 15 80 80 6B 02  ..!.#.k.......k.
0240: 2B ED A2 06 01 1F 80 23  2B ED A2 06 01 20 80 23  +......#+.... .#
0250: 2B ED A2 06 01 21 80 23  2B ED A2 06 01 22 80 23  +....!.#+....".#
0260: 2B ED A2 06 01 23 80 23  01 6B 02 21 00           +....#.#.k.!.   
```

#### Opcodes

```
  0: 0x01E6 [0x4A] Spriggan Sifter (ID: 17212141/0x0106A2ED) looks at LocalPlayer
  1: 0x01EF [0x02] IF !(Work_Zone[2] == 0*) GOTO 0x0202
  2: 0x01F7 [0x2B] Spriggan Sifter (ID: 17212141/0x0106A2ED) [12527*]:
    → "Who you? Yooou? Yoooooou?"
  3: 0x01FE [0x23] WAIT_FOR_DIALOG_INTERACTION
  4: 0x01FF [0x01] GOTO 0x026B
  5: 0x0202 [0x02] IF !(Work_Zone[2] == 1*) GOTO 0x0215
  6: 0x020A [0x2B] Spriggan Sifter (ID: 17212141/0x0106A2ED) [12528*]:
    → "Friend town! Big town! Take stone friend! Stone! Hard thing!"
  7: 0x0211 [0x23] WAIT_FOR_DIALOG_INTERACTION
  8: 0x0212 [0x01] GOTO 0x026B
  9: 0x0215 [0x02] IF !(Work_Zone[2] == 2*) GOTO 0x0238
 10: 0x021D [0x2B] Spriggan Sifter (ID: 17212141/0x0106A2ED) [12529*]:
    → "Swirly thing sky! Skyyy! Skyyyyyy! Now here. Where? Wheeere?"
 11: 0x0224 [0x23] WAIT_FOR_DIALOG_INTERACTION
 12: 0x0225 [0x2B] Spriggan Sifter (ID: 17212141/0x0106A2ED) [12530*]:
    → "Want home! Stone mean home! Many stone! Stooone!"
 13: 0x022C [0x23] WAIT_FOR_DIALOG_INTERACTION
 14: 0x022D [0x2B] Spriggan Sifter (ID: 17212141/0x0106A2ED) [12531*]:
    → "Stone...home? No home? Go home! Must mean home! Hooome! Hoooooome!"
 15: 0x0234 [0x23] WAIT_FOR_DIALOG_INTERACTION
 16: 0x0235 [0x01] GOTO 0x026B
 17: 0x0238 [0x02] IF !(Work_Zone[2] == 3*) GOTO 0x026B
 18: 0x0240 [0x2B] Spriggan Sifter (ID: 17212141/0x0106A2ED) [12529*]:
    → "Swirly thing sky! Skyyy! Skyyyyyy! Now here. Where? Wheeere?"
 19: 0x0247 [0x23] WAIT_FOR_DIALOG_INTERACTION
 20: 0x0248 [0x2B] Spriggan Sifter (ID: 17212141/0x0106A2ED) [12530*]:
    → "Want home! Stone mean home! Many stone! Stooone!"
 21: 0x024F [0x23] WAIT_FOR_DIALOG_INTERACTION
 22: 0x0250 [0x2B] Spriggan Sifter (ID: 17212141/0x0106A2ED) [12531*]:
    → "Stone...home? No home? Go home! Must mean home! Hooome! Hoooooome!"
 23: 0x0257 [0x23] WAIT_FOR_DIALOG_INTERACTION
 24: 0x0258 [0x2B] Spriggan Sifter (ID: 17212141/0x0106A2ED) [12532*]:
    → "Swirly thing speak! Noise! Big noise! Boom! Boooooom!"
 25: 0x025F [0x23] WAIT_FOR_DIALOG_INTERACTION
 26: 0x0260 [0x2B] Spriggan Sifter (ID: 17212141/0x0106A2ED) [12533*]:
    → "Ohhh! Ohhhhhh! Ohhhhhhhhhhhh!"
 27: 0x0267 [0x23] WAIT_FOR_DIALOG_INTERACTION
 28: 0x0268 [0x01] GOTO 0x026B

SUBROUTINE_026B:
 29: 0x026B [0x21] END_EVENT
 30: 0x026C [0x00] END_REQSTACK()
```

### Event 281

#### Metadata

| Field        | Value     |
|--------------|-----------|
| Entrypoint   | 0x026D    |
| Data Size    | 135 bytes |
| Instructions | 31        |

```
      00 01 02 03 04 05 06 07  08 09 0A 0B 0C 0D 0E 0F
      -- -- -- -- -- -- -- --  -- -- -- -- -- -- -- --
0260:                                         4A EE A2               J..
0270: 06 01 F0 FF FF 7F 02 02  10 00 80 80 89 02 2B EE  ..............+.
0280: A2 06 01 1D 80 23 01 F2  02 02 02 10 0C 80 80 9C  .....#..........
0290: 02 2B EE A2 06 01 1E 80  23 01 F2 02 02 02 10 13  .+......#.......
02A0: 80 80 BF 02 2B EE A2 06  01 1F 80 23 2B EE A2 06  ....+......#+...
02B0: 01 20 80 23 2B EE A2 06  01 21 80 23 01 F2 02 02  . .#+....!.#....
02C0: 02 10 15 80 80 F2 02 2B  EE A2 06 01 1F 80 23 2B  .......+......#+
02D0: EE A2 06 01 20 80 23 2B  EE A2 06 01 21 80 23 2B  .... .#+....!.#+
02E0: EE A2 06 01 22 80 23 2B  EE A2 06 01 23 80 23 01  ....".#+....#.#.
02F0: F2 02 21 00                                       ..!.            
```

#### Opcodes

```
  0: 0x026D [0x4A] Spriggan Crier (ID: 17212142/0x0106A2EE) looks at LocalPlayer
  1: 0x0276 [0x02] IF !(Work_Zone[2] == 0*) GOTO 0x0289
  2: 0x027E [0x2B] Spriggan Crier (ID: 17212142/0x0106A2EE) [12527*]:
    → "Who you? Yooou? Yoooooou?"
  3: 0x0285 [0x23] WAIT_FOR_DIALOG_INTERACTION
  4: 0x0286 [0x01] GOTO 0x02F2
  5: 0x0289 [0x02] IF !(Work_Zone[2] == 1*) GOTO 0x029C
  6: 0x0291 [0x2B] Spriggan Crier (ID: 17212142/0x0106A2EE) [12528*]:
    → "Friend town! Big town! Take stone friend! Stone! Hard thing!"
  7: 0x0298 [0x23] WAIT_FOR_DIALOG_INTERACTION
  8: 0x0299 [0x01] GOTO 0x02F2
  9: 0x029C [0x02] IF !(Work_Zone[2] == 2*) GOTO 0x02BF
 10: 0x02A4 [0x2B] Spriggan Crier (ID: 17212142/0x0106A2EE) [12529*]:
    → "Swirly thing sky! Skyyy! Skyyyyyy! Now here. Where? Wheeere?"
 11: 0x02AB [0x23] WAIT_FOR_DIALOG_INTERACTION
 12: 0x02AC [0x2B] Spriggan Crier (ID: 17212142/0x0106A2EE) [12530*]:
    → "Want home! Stone mean home! Many stone! Stooone!"
 13: 0x02B3 [0x23] WAIT_FOR_DIALOG_INTERACTION
 14: 0x02B4 [0x2B] Spriggan Crier (ID: 17212142/0x0106A2EE) [12531*]:
    → "Stone...home? No home? Go home! Must mean home! Hooome! Hoooooome!"
 15: 0x02BB [0x23] WAIT_FOR_DIALOG_INTERACTION
 16: 0x02BC [0x01] GOTO 0x02F2
 17: 0x02BF [0x02] IF !(Work_Zone[2] == 3*) GOTO 0x02F2
 18: 0x02C7 [0x2B] Spriggan Crier (ID: 17212142/0x0106A2EE) [12529*]:
    → "Swirly thing sky! Skyyy! Skyyyyyy! Now here. Where? Wheeere?"
 19: 0x02CE [0x23] WAIT_FOR_DIALOG_INTERACTION
 20: 0x02CF [0x2B] Spriggan Crier (ID: 17212142/0x0106A2EE) [12530*]:
    → "Want home! Stone mean home! Many stone! Stooone!"
 21: 0x02D6 [0x23] WAIT_FOR_DIALOG_INTERACTION
 22: 0x02D7 [0x2B] Spriggan Crier (ID: 17212142/0x0106A2EE) [12531*]:
    → "Stone...home? No home? Go home! Must mean home! Hooome! Hoooooome!"
 23: 0x02DE [0x23] WAIT_FOR_DIALOG_INTERACTION
 24: 0x02DF [0x2B] Spriggan Crier (ID: 17212142/0x0106A2EE) [12532*]:
    → "Swirly thing speak! Noise! Big noise! Boom! Boooooom!"
 25: 0x02E6 [0x23] WAIT_FOR_DIALOG_INTERACTION
 26: 0x02E7 [0x2B] Spriggan Crier (ID: 17212142/0x0106A2EE) [12533*]:
    → "Ohhh! Ohhhhhh! Ohhhhhhhhhhhh!"
 27: 0x02EE [0x23] WAIT_FOR_DIALOG_INTERACTION
 28: 0x02EF [0x01] GOTO 0x02F2

SUBROUTINE_02F2:
 29: 0x02F2 [0x21] END_EVENT
 30: 0x02F3 [0x00] END_REQSTACK()
```

### Event 282

#### Metadata

| Field        | Value     |
|--------------|-----------|
| Entrypoint   | 0x02F4    |
| Data Size    | 135 bytes |
| Instructions | 31        |

```
      00 01 02 03 04 05 06 07  08 09 0A 0B 0C 0D 0E 0F
      -- -- -- -- -- -- -- --  -- -- -- -- -- -- -- --
02F0:             4A EF A2 06  01 F0 FF FF 7F 02 02 10      J...........
0300: 00 80 80 10 03 2B EF A2  06 01 1D 80 23 01 79 03  .....+......#.y.
0310: 02 02 10 0C 80 80 23 03  2B EF A2 06 01 1E 80 23  ......#.+......#
0320: 01 79 03 02 02 10 13 80  80 46 03 2B EF A2 06 01  .y.......F.+....
0330: 1F 80 23 2B EF A2 06 01  20 80 23 2B EF A2 06 01  ..#+.... .#+....
0340: 21 80 23 01 79 03 02 02  10 15 80 80 79 03 2B EF  !.#.y.......y.+.
0350: A2 06 01 1F 80 23 2B EF  A2 06 01 20 80 23 2B EF  .....#+.... .#+.
0360: A2 06 01 21 80 23 2B EF  A2 06 01 22 80 23 2B EF  ...!.#+....".#+.
0370: A2 06 01 23 80 23 01 79  03 21 00                 ...#.#.y.!.     
```

#### Opcodes

```
  0: 0x02F4 [0x4A] Spriggan Graverobber (ID: 17212143/0x0106A2EF) looks at LocalPlayer
  1: 0x02FD [0x02] IF !(Work_Zone[2] == 0*) GOTO 0x0310
  2: 0x0305 [0x2B] Spriggan Graverobber (ID: 17212143/0x0106A2EF) [12527*]:
    → "Who you? Yooou? Yoooooou?"
  3: 0x030C [0x23] WAIT_FOR_DIALOG_INTERACTION
  4: 0x030D [0x01] GOTO 0x0379
  5: 0x0310 [0x02] IF !(Work_Zone[2] == 1*) GOTO 0x0323
  6: 0x0318 [0x2B] Spriggan Graverobber (ID: 17212143/0x0106A2EF) [12528*]:
    → "Friend town! Big town! Take stone friend! Stone! Hard thing!"
  7: 0x031F [0x23] WAIT_FOR_DIALOG_INTERACTION
  8: 0x0320 [0x01] GOTO 0x0379
  9: 0x0323 [0x02] IF !(Work_Zone[2] == 2*) GOTO 0x0346
 10: 0x032B [0x2B] Spriggan Graverobber (ID: 17212143/0x0106A2EF) [12529*]:
    → "Swirly thing sky! Skyyy! Skyyyyyy! Now here. Where? Wheeere?"
 11: 0x0332 [0x23] WAIT_FOR_DIALOG_INTERACTION
 12: 0x0333 [0x2B] Spriggan Graverobber (ID: 17212143/0x0106A2EF) [12530*]:
    → "Want home! Stone mean home! Many stone! Stooone!"
 13: 0x033A [0x23] WAIT_FOR_DIALOG_INTERACTION
 14: 0x033B [0x2B] Spriggan Graverobber (ID: 17212143/0x0106A2EF) [12531*]:
    → "Stone...home? No home? Go home! Must mean home! Hooome! Hoooooome!"
 15: 0x0342 [0x23] WAIT_FOR_DIALOG_INTERACTION
 16: 0x0343 [0x01] GOTO 0x0379
 17: 0x0346 [0x02] IF !(Work_Zone[2] == 3*) GOTO 0x0379
 18: 0x034E [0x2B] Spriggan Graverobber (ID: 17212143/0x0106A2EF) [12529*]:
    → "Swirly thing sky! Skyyy! Skyyyyyy! Now here. Where? Wheeere?"
 19: 0x0355 [0x23] WAIT_FOR_DIALOG_INTERACTION
 20: 0x0356 [0x2B] Spriggan Graverobber (ID: 17212143/0x0106A2EF) [12530*]:
    → "Want home! Stone mean home! Many stone! Stooone!"
 21: 0x035D [0x23] WAIT_FOR_DIALOG_INTERACTION
 22: 0x035E [0x2B] Spriggan Graverobber (ID: 17212143/0x0106A2EF) [12531*]:
    → "Stone...home? No home? Go home! Must mean home! Hooome! Hoooooome!"
 23: 0x0365 [0x23] WAIT_FOR_DIALOG_INTERACTION
 24: 0x0366 [0x2B] Spriggan Graverobber (ID: 17212143/0x0106A2EF) [12532*]:
    → "Swirly thing speak! Noise! Big noise! Boom! Boooooom!"
 25: 0x036D [0x23] WAIT_FOR_DIALOG_INTERACTION
 26: 0x036E [0x2B] Spriggan Graverobber (ID: 17212143/0x0106A2EF) [12533*]:
    → "Ohhh! Ohhhhhh! Ohhhhhhhhhhhh!"
 27: 0x0375 [0x23] WAIT_FOR_DIALOG_INTERACTION
 28: 0x0376 [0x01] GOTO 0x0379

SUBROUTINE_0379:
 29: 0x0379 [0x21] END_EVENT
 30: 0x037A [0x00] END_REQSTACK()
```
