# 0x7FFFFFF0 - Zone Events

## Common Data

| Field            | Value                     |
|------------------|---------------------------|
| Zone             | North Gustaberg (ID: 106) |
| Block Size       | 1280 bytes                |
| Total Events     | 38                        |
| References Count | 95                        |

## List of Events

| Event ID                   | Entrypoint   |   Size |   Instructions |
|----------------------------|--------------|--------|----------------|
| [65535](#event-65535)      | 0x0000       |      1 |              1 |
| [65534](#event-65534)      | 0x0001       |      1 |              1 |
| [65535.1](#event-655351)   | 0x0002       |     10 |              2 |
| [150](#event-150)          | 0x000C       |      8 |              2 |
| [151](#event-151)          | 0x0014       |      6 |              2 |
| [152](#event-152)          | 0x001A       |      6 |              2 |
| [153](#event-153)          | 0x0020       |      6 |              2 |
| [154](#event-154)          | 0x0026       |      6 |              2 |
| [65535.2](#event-655352)   | 0x002C       |     16 |              3 |
| [65535.3](#event-655353)   | 0x003C       |     41 |              5 |
| [65535.4](#event-655354)   | 0x0065       |     16 |              3 |
| [65535.5](#event-655355)   | 0x0075       |     41 |              5 |
| [65535.6](#event-655356)   | 0x009E       |     13 |              3 |
| [65535.7](#event-655357)   | 0x00AB       |     13 |              3 |
| [65535.8](#event-655358)   | 0x00B8       |     10 |              2 |
| [65535.9](#event-655359)   | 0x00C2       |     10 |              2 |
| [65535.10](#event-6553510) | 0x00CC       |     10 |              2 |
| [65535.11](#event-6553511) | 0x00D6       |     10 |              2 |
| [65535.12](#event-6553512) | 0x00E0       |     10 |              2 |
| [65535.13](#event-6553513) | 0x00EA       |     10 |              2 |
| [65535.14](#event-6553514) | 0x00F4       |     10 |              2 |
| [65535.15](#event-6553515) | 0x00FE       |     10 |              2 |
| [65535.16](#event-6553516) | 0x0108       |     10 |              2 |
| [65535.17](#event-6553517) | 0x0112       |     10 |              2 |
| [65535.18](#event-6553518) | 0x011C       |     10 |              2 |
| [65535.19](#event-6553519) | 0x0126       |     10 |              2 |
| [65535.20](#event-6553520) | 0x0130       |     10 |              2 |
| [65535.21](#event-6553521) | 0x013A       |     10 |              2 |
| [65535.22](#event-6553522) | 0x0144       |     10 |              2 |
| [65535.23](#event-6553523) | 0x014E       |      6 |              2 |
| [65535.24](#event-6553524) | 0x0154       |      6 |              2 |
| [65535.25](#event-6553525) | 0x015A       |     37 |              5 |
| [65535.26](#event-6553526) | 0x017F       |    185 |             37 |
| [65535.27](#event-6553527) | 0x0238       |     24 |              4 |
| [65535.28](#event-6553528) | 0x0250       |     24 |              4 |
| [65535.29](#event-6553529) | 0x0268       |     37 |              5 |
| [65535.30](#event-6553530) | 0x028D       |     37 |              5 |
| [65535.31](#event-6553531) | 0x02B2       |     42 |              6 |

## DAT References (imed_data)

|   Index | Hex Value   |   Dec Value |
|---------|-------------|-------------|
|       0 | 0xFFFC669D  |  4294731421 |
|       1 | 0x6826D     |      426605 |
|       2 | 0x9F78      |       40824 |
|       3 | 0x01D9      |         473 |
|       4 | 0xFFFC7224  |  4294734372 |
|       5 | 0x6C26E     |      442990 |
|       6 | 0x18323     |       99107 |
|       7 | 0x71D80     |      466304 |
|       8 | 0x75015     |      479253 |
|       9 | 0xFFFFFFE9  |  4294967273 |
|      10 | 0x0800      |        2048 |
|      11 | 0x0093      |         147 |
|      12 | 0x0000      |           0 |
|      13 | 0x00F0      |         240 |
|      14 | 0x00C8      |         200 |
|      15 | 0x003C      |          60 |
|      16 | 0xFFFEE698  |  4294895256 |
|      17 | 0x927A4     |      599972 |
|      18 | 0xFFFFFFEF  |  4294967279 |
|      19 | 0x080C      |        2060 |
|      20 | 0x0094      |         148 |
|      21 | 0xFFFBB573  |  4294686067 |
|      22 | 0x403DB     |      263131 |
|      23 | 0x9CB6      |       40118 |
|      24 | 0xFFFC10B6  |  4294709430 |
|      25 | 0x31FA0     |      204704 |
|      26 | 0xFFFFF397  |  4294964119 |
|      27 | 0x0186      |         390 |
|      28 | 0xFFFE6D84  |  4294864260 |
|      29 | 0x1521D     |       86557 |
|      30 | 0xFFFEE6C0  |  4294895296 |
|      31 | 0x064C      |        1612 |
|      32 | 0x9DC49     |      646217 |
|      33 | 0xFFFD6E64  |  4294798948 |
|      34 | 0x00A1      |         161 |
|      35 | 0x0C85      |        3205 |
|      36 | 0xFFFFADA3  |  4294946211 |
|      37 | 0xE9CA      |       59850 |
|      38 | 0xFFFFF799  |  4294965145 |
|      39 | 0x0D28      |        3368 |
|      40 | 0xFFFEABF4  |  4294880244 |
|      41 | 0xFFFA4EB6  |  4294594230 |
|      42 | 0x012D      |         301 |
|      43 | 0x06A4      |        1700 |
|      44 | 0xFFFDB3A7  |  4294816679 |
|      45 | 0x4EF1      |       20209 |
|      46 | 0xFFFFBFF4  |  4294950900 |
|      47 | 0x084E      |        2126 |
|      48 | 0x000A      |          10 |
|      49 | 0xFFFF6A35  |  4294928949 |
|      50 | 0x2327      |        8999 |
|      51 | 0x03ED      |        1005 |
|      52 | 0xFFFCAEE9  |  4294749929 |
|      53 | 0x70C05     |      461829 |
|      54 | 0x17BF0     |       97264 |
|      55 | 0x08E7      |        2279 |
|      56 | 0xFFFC4F0B  |  4294725387 |
|      57 | 0x51564     |      333156 |
|      58 | 0xFFFFD0E8  |  4294955240 |
|      59 | 0x0278      |         632 |
|      60 | 0xFFFA9423  |  4294612003 |
|      61 | 0xFFFE6DB2  |  4294864306 |
|      62 | 0x3C71      |       15473 |
|      63 | 0x08EC      |        2284 |
|      64 | 0x6D91F     |      448799 |
|      65 | 0xFFFF8D5B  |  4294937947 |
|      66 | 0xFFFF64E1  |  4294927585 |
|      67 | 0x0240      |         576 |
|      68 | 0xFFFFBB04  |  4294949636 |
|      69 | 0xD3E9      |       54249 |
|      70 | 0xFFFFFE47  |  4294966855 |
|      71 | 0x0AC4      |        2756 |
|      72 | 0xFFFFB53C  |  4294948156 |
|      73 | 0x4B66      |       19302 |
|      74 | 0x9EA9      |       40617 |
|      75 | 0x03A7      |         935 |
|      76 | 0x11D84     |       73092 |
|      77 | 0xFFFD607B  |  4294795387 |
|      78 | 0x0F9F      |        3999 |
|      79 | 0x0402      |        1026 |
|      80 | 0xFFFFB137  |  4294947127 |
|      81 | 0x7A43      |       31299 |
|      82 | 0xFFFFD8F2  |  4294957298 |
|      83 | 0x0D4B      |        3403 |
|      84 | 0xFFFFC860  |  4294953056 |
|      85 | 0xD01B      |       53275 |
|      86 | 0xFFFFFD7F  |  4294966655 |
|      87 | 0x0BF0      |        3056 |
|      88 | 0x0005      |           5 |
|      89 | 0x0001      |           1 |
|      90 | 0x0002      |           2 |
|      91 | 0x0009      |           9 |
|      92 | 0x0046      |          70 |
|      93 | 0x008C      |         140 |
|      94 | 0x00D2      |         210 |

## Events

### Event 65535

#### Metadata

| Field        | Value   |
|--------------|---------|
| Entrypoint   | 0x0000  |
| Data Size    | 1 bytes |
| Instructions | 1       |

```
      00 01 02 03 04 05 06 07  08 09 0A 0B 0C 0D 0E 0F
      -- -- -- -- -- -- -- --  -- -- -- -- -- -- -- --
0000: 00                                                .               
```

#### Opcodes

```
  0: 0x0000 [0x00] END_REQSTACK()
```

### Event 65534

#### Metadata

| Field        | Value   |
|--------------|---------|
| Entrypoint   | 0x0001  |
| Data Size    | 1 bytes |
| Instructions | 1       |

```
      00 01 02 03 04 05 06 07  08 09 0A 0B 0C 0D 0E 0F
      -- -- -- -- -- -- -- --  -- -- -- -- -- -- -- --
0000:    00                                              .              
```

#### Opcodes

```
  0: 0x0001 [0x00] END_REQSTACK()
```

### Event 65535.1

#### Metadata

| Field        | Value    |
|--------------|----------|
| Entrypoint   | 0x0002   |
| Data Size    | 10 bytes |
| Instructions | 2        |

```
      00 01 02 03 04 05 06 07  08 09 0A 0B 0C 0D 0E 0F
      -- -- -- -- -- -- -- --  -- -- -- -- -- -- -- --
0000:       37 00 80 01 80 02  80 03 80 00                7.........    
```

#### Opcodes

```
  0: 0x0002 [0x37] UPDATE_EVENT_POSITION_AND_DIR: x=-235.875*, z=426.605*, y=40.824*, direction=41.6°*
  1: 0x000B [0x00] END_REQSTACK()
```

### Event 150

#### Metadata

| Field        | Value   |
|--------------|---------|
| Entrypoint   | 0x000C  |
| Data Size    | 8 bytes |
| Instructions | 2       |

```
      00 01 02 03 04 05 06 07  08 09 0A 0B 0C 0D 0E 0F
      -- -- -- -- -- -- -- --  -- -- -- -- -- -- -- --
0000:                                      36 04 80 05              6...
0010: 80 06 80 00                                       ....            
```

#### Opcodes

```
  0: 0x000C [0x36] SET_ENTITY_EVENT_POSITION(pos_x=-232.924*, pos_z=442.990*, pos_y=99.107*)
  1: 0x0013 [0x00] END_REQSTACK()
```

### Event 151

#### Metadata

| Field        | Value   |
|--------------|---------|
| Entrypoint   | 0x0014  |
| Data Size    | 6 bytes |
| Instructions | 2       |

```
      00 01 02 03 04 05 06 07  08 09 0A 0B 0C 0D 0E 0F
      -- -- -- -- -- -- -- --  -- -- -- -- -- -- -- --
0010:             1E AD A2 06  01 00                        ......      
```

#### Opcodes

```
  0: 0x0014 [0x1E] EventEntity looks at Gambilox Wanderling (ID: 17212077/0x0106A2AD) and starts talking
  1: 0x0019 [0x00] END_REQSTACK()
```

### Event 152

#### Metadata

| Field        | Value   |
|--------------|---------|
| Entrypoint   | 0x001A  |
| Data Size    | 6 bytes |
| Instructions | 2       |

```
      00 01 02 03 04 05 06 07  08 09 0A 0B 0C 0D 0E 0F
      -- -- -- -- -- -- -- --  -- -- -- -- -- -- -- --
0010:                                1E AE A2 06 01 00            ......
```

#### Opcodes

```
  0: 0x001A [0x1E] EventEntity looks at Saltvix (ID: 17212078/0x0106A2AE) and starts talking
  1: 0x001F [0x00] END_REQSTACK()
```

### Event 153

#### Metadata

| Field        | Value   |
|--------------|---------|
| Entrypoint   | 0x0020  |
| Data Size    | 6 bytes |
| Instructions | 2       |

```
      00 01 02 03 04 05 06 07  08 09 0A 0B 0C 0D 0E 0F
      -- -- -- -- -- -- -- --  -- -- -- -- -- -- -- --
0020: 1E AF A2 06 01 00                                 ......          
```

#### Opcodes

```
  0: 0x0020 [0x1E] EventEntity looks at Grasswix (ID: 17212079/0x0106A2AF) and starts talking
  1: 0x0025 [0x00] END_REQSTACK()
```

### Event 154

#### Metadata

| Field        | Value   |
|--------------|---------|
| Entrypoint   | 0x0026  |
| Data Size    | 6 bytes |
| Instructions | 2       |

```
      00 01 02 03 04 05 06 07  08 09 0A 0B 0C 0D 0E 0F
      -- -- -- -- -- -- -- --  -- -- -- -- -- -- -- --
0020:                   1E B0  A2 06 01 00                    ......    
```

#### Opcodes

```
  0: 0x0026 [0x1E] EventEntity looks at Eggblix (ID: 17212080/0x0106A2B0) and starts talking
  1: 0x002B [0x00] END_REQSTACK()
```

### Event 65535.2

#### Metadata

| Field        | Value    |
|--------------|----------|
| Entrypoint   | 0x002C   |
| Data Size    | 16 bytes |
| Instructions | 3        |

```
      00 01 02 03 04 05 06 07  08 09 0A 0B 0C 0D 0E 0F
      -- -- -- -- -- -- -- --  -- -- -- -- -- -- -- --
0020:                                      92 01 F0 FF              ....
0030: FF 7F 37 07 80 08 80 09  80 0A 80 00              ..7.........    
```

#### Opcodes

```
  0: 0x002C [0x92] LocalPlayer->Render.Flags3 ^= 0x01
  1: 0x0032 [0x37] UPDATE_EVENT_POSITION_AND_DIR: x=466.304*, z=479.253*, y=-0.023*, direction=180.0°*
  2: 0x003B [0x00] END_REQSTACK()
```

### Event 65535.3

#### Metadata

| Field        | Value    |
|--------------|----------|
| Entrypoint   | 0x003C   |
| Data Size    | 41 bytes |
| Instructions | 5        |

```
      00 01 02 03 04 05 06 07  08 09 0A 0B 0C 0D 0E 0F
      -- -- -- -- -- -- -- --  -- -- -- -- -- -- -- --
0030:                                      BB 0B 80 F0              ....
0040: FF FF 7F C9 A2 06 01 6D  61 69 6E 0C 80 1C 0D 80  .......main.....
0050: 45 0E 80 F0 FF FF 7F F0  FF FF 7F 66 64 6F 31 0C  E..........fdo1.
0060: 80 1C 0F 80 00                                    .....           
```

#### Opcodes

```
  0: 0x003C [0xBB] LOAD_EVENT_SCHEDULER_ALT: Load scheduler "main" with entities [LocalPlayer, Cavernous Maw (ID: 17212105/0x0106A2C9)], work=[147*, 0*]
  1: 0x004D [0x1C] WAIT(240* ticks)
  2: 0x0050 [0x45] LOAD_SCHEDULED_TASK: Load scheduler "fdo1" with entities [LocalPlayer, LocalPlayer], work=[200*, 0*]
  3: 0x0061 [0x1C] WAIT(60* ticks)
  4: 0x0064 [0x00] END_REQSTACK()
```

### Event 65535.4

#### Metadata

| Field        | Value    |
|--------------|----------|
| Entrypoint   | 0x0065   |
| Data Size    | 16 bytes |
| Instructions | 3        |

```
      00 01 02 03 04 05 06 07  08 09 0A 0B 0C 0D 0E 0F
      -- -- -- -- -- -- -- --  -- -- -- -- -- -- -- --
0060:                92 01 F0  FF FF 7F 37 10 80 11 80       ......7....
0070: 12 80 13 80 00                                    .....           
```

#### Opcodes

```
  0: 0x0065 [0x92] LocalPlayer->Render.Flags3 ^= 0x01
  1: 0x006B [0x37] UPDATE_EVENT_POSITION_AND_DIR: x=-72.040*, z=599.972*, y=-0.017*, direction=181.0°*
  2: 0x0074 [0x00] END_REQSTACK()
```

### Event 65535.5

#### Metadata

| Field        | Value    |
|--------------|----------|
| Entrypoint   | 0x0075   |
| Data Size    | 41 bytes |
| Instructions | 5        |

```
      00 01 02 03 04 05 06 07  08 09 0A 0B 0C 0D 0E 0F
      -- -- -- -- -- -- -- --  -- -- -- -- -- -- -- --
0070:                BB 14 80  F0 FF FF 7F CE A2 06 01       ...........
0080: 6D 61 69 6E 0C 80 1C 0D  80 45 0E 80 F0 FF FF 7F  main.....E......
0090: F0 FF FF 7F 66 64 6F 31  0C 80 1C 0F 80 00        ....fdo1......  
```

#### Opcodes

```
  0: 0x0075 [0xBB] LOAD_EVENT_SCHEDULER_ALT: Load scheduler "main" with entities [LocalPlayer, Cavernous Maw (ID: 17212110/0x0106A2CE)], work=[148*, 0*]
  1: 0x0086 [0x1C] WAIT(240* ticks)
  2: 0x0089 [0x45] LOAD_SCHEDULED_TASK: Load scheduler "fdo1" with entities [LocalPlayer, LocalPlayer], work=[200*, 0*]
  3: 0x009A [0x1C] WAIT(60* ticks)
  4: 0x009D [0x00] END_REQSTACK()
```

### Event 65535.6

#### Metadata

| Field        | Value    |
|--------------|----------|
| Entrypoint   | 0x009E   |
| Data Size    | 13 bytes |
| Instructions | 3        |

```
      00 01 02 03 04 05 06 07  08 09 0A 0B 0C 0D 0E 0F
      -- -- -- -- -- -- -- --  -- -- -- -- -- -- -- --
0090:                                            47 00                G.
00A0: 15 80 16 80 17 80 0A 80  47 01 00                 ........G..     
```

#### Opcodes

```
  0: 0x009E [0x47] UPDATE_PLAYER_POS(-281.229*, 263.131*, 40.118*, yaw=180.0°*)
  1: 0x00A8 [0x47] WAIT_PLAYER_POS_UPDATE
  2: 0x00AA [0x00] END_REQSTACK()
```

### Event 65535.7

#### Metadata

| Field        | Value    |
|--------------|----------|
| Entrypoint   | 0x00AB   |
| Data Size    | 13 bytes |
| Instructions | 3        |

```
      00 01 02 03 04 05 06 07  08 09 0A 0B 0C 0D 0E 0F
      -- -- -- -- -- -- -- --  -- -- -- -- -- -- -- --
00A0:                                   47 00 18 80 19             G....
00B0: 80 1A 80 1B 80 47 01 00                           .....G..        
```

#### Opcodes

```
  0: 0x00AB [0x47] UPDATE_PLAYER_POS(-257.866*, 204.704*, -3.177*, yaw=34.3°*)
  1: 0x00B5 [0x47] WAIT_PLAYER_POS_UPDATE
  2: 0x00B7 [0x00] END_REQSTACK()
```

### Event 65535.8

#### Metadata

| Field        | Value    |
|--------------|----------|
| Entrypoint   | 0x00B8   |
| Data Size    | 10 bytes |
| Instructions | 2        |

```
      00 01 02 03 04 05 06 07  08 09 0A 0B 0C 0D 0E 0F
      -- -- -- -- -- -- -- --  -- -- -- -- -- -- -- --
00B0:                          37 1C 80 1D 80 1E 80 1F          7.......
00C0: 80 00                                             ..              
```

#### Opcodes

```
  0: 0x00B8 [0x37] UPDATE_EVENT_POSITION_AND_DIR: x=-103.036*, z=86.557*, y=-72.000*, direction=141.7°*
  1: 0x00C1 [0x00] END_REQSTACK()
```

### Event 65535.9

#### Metadata

| Field        | Value    |
|--------------|----------|
| Entrypoint   | 0x00C2   |
| Data Size    | 10 bytes |
| Instructions | 2        |

```
      00 01 02 03 04 05 06 07  08 09 0A 0B 0C 0D 0E 0F
      -- -- -- -- -- -- -- --  -- -- -- -- -- -- -- --
00C0:       37 20 80 21 80 22  80 23 80 00                7 .!.".#..    
```

#### Opcodes

```
  0: 0x00C2 [0x37] UPDATE_EVENT_POSITION_AND_DIR: x=646.217*, z=-168.348*, y=0.161*, direction=281.7°*
  1: 0x00CB [0x00] END_REQSTACK()
```

### Event 65535.10

#### Metadata

| Field        | Value    |
|--------------|----------|
| Entrypoint   | 0x00CC   |
| Data Size    | 10 bytes |
| Instructions | 2        |

```
      00 01 02 03 04 05 06 07  08 09 0A 0B 0C 0D 0E 0F
      -- -- -- -- -- -- -- --  -- -- -- -- -- -- -- --
00C0:                                      37 24 80 25              7$.%
00D0: 80 26 80 27 80 00                                 .&.'..          
```

#### Opcodes

```
  0: 0x00CC [0x37] UPDATE_EVENT_POSITION_AND_DIR: x=-21.085*, z=59.850*, y=-2.151*, direction=296.0°*
  1: 0x00D5 [0x00] END_REQSTACK()
```

### Event 65535.11

#### Metadata

| Field        | Value    |
|--------------|----------|
| Entrypoint   | 0x00D6   |
| Data Size    | 10 bytes |
| Instructions | 2        |

```
      00 01 02 03 04 05 06 07  08 09 0A 0B 0C 0D 0E 0F
      -- -- -- -- -- -- -- --  -- -- -- -- -- -- -- --
00D0:                   37 28  80 29 80 2A 80 2B 80 00        7(.).*.+..
```

#### Opcodes

```
  0: 0x00D6 [0x37] UPDATE_EVENT_POSITION_AND_DIR: x=-87.052*, z=-373.066*, y=0.301*, direction=149.4°*
  1: 0x00DF [0x00] END_REQSTACK()
```

### Event 65535.12

#### Metadata

| Field        | Value    |
|--------------|----------|
| Entrypoint   | 0x00E0   |
| Data Size    | 10 bytes |
| Instructions | 2        |

```
      00 01 02 03 04 05 06 07  08 09 0A 0B 0C 0D 0E 0F
      -- -- -- -- -- -- -- --  -- -- -- -- -- -- -- --
00E0: 37 2C 80 2D 80 2E 80 2F  80 00                    7,.-.../..      
```

#### Opcodes

```
  0: 0x00E0 [0x37] UPDATE_EVENT_POSITION_AND_DIR: x=-150.617*, z=20.209*, y=-16.396*, direction=186.8°*
  1: 0x00E9 [0x00] END_REQSTACK()
```

### Event 65535.13

#### Metadata

| Field        | Value    |
|--------------|----------|
| Entrypoint   | 0x00EA   |
| Data Size    | 10 bytes |
| Instructions | 2        |

```
      00 01 02 03 04 05 06 07  08 09 0A 0B 0C 0D 0E 0F
      -- -- -- -- -- -- -- --  -- -- -- -- -- -- -- --
00E0:                                37 30 80 31 80 32            70.1.2
00F0: 80 33 80 00                                       .3..            
```

#### Opcodes

```
  0: 0x00EA [0x37] UPDATE_EVENT_POSITION_AND_DIR: x=0.010*, z=-38.347*, y=8.999*, direction=88.3°*
  1: 0x00F3 [0x00] END_REQSTACK()
```

### Event 65535.14

#### Metadata

| Field        | Value    |
|--------------|----------|
| Entrypoint   | 0x00F4   |
| Data Size    | 10 bytes |
| Instructions | 2        |

```
      00 01 02 03 04 05 06 07  08 09 0A 0B 0C 0D 0E 0F
      -- -- -- -- -- -- -- --  -- -- -- -- -- -- -- --
00F0:             37 34 80 35  80 36 80 37 80 00            74.5.6.7..  
```

#### Opcodes

```
  0: 0x00F4 [0x37] UPDATE_EVENT_POSITION_AND_DIR: x=-217.367*, z=461.829*, y=97.264*, direction=200.3°*
  1: 0x00FD [0x00] END_REQSTACK()
```

### Event 65535.15

#### Metadata

| Field        | Value    |
|--------------|----------|
| Entrypoint   | 0x00FE   |
| Data Size    | 10 bytes |
| Instructions | 2        |

```
      00 01 02 03 04 05 06 07  08 09 0A 0B 0C 0D 0E 0F
      -- -- -- -- -- -- -- --  -- -- -- -- -- -- -- --
00F0:                                            37 38                78
0100: 80 39 80 3A 80 3B 80 00                           .9.:.;..        
```

#### Opcodes

```
  0: 0x00FE [0x37] UPDATE_EVENT_POSITION_AND_DIR: x=-241.909*, z=333.156*, y=-12.056*, direction=55.5°*
  1: 0x0107 [0x00] END_REQSTACK()
```

### Event 65535.16

#### Metadata

| Field        | Value    |
|--------------|----------|
| Entrypoint   | 0x0108   |
| Data Size    | 10 bytes |
| Instructions | 2        |

```
      00 01 02 03 04 05 06 07  08 09 0A 0B 0C 0D 0E 0F
      -- -- -- -- -- -- -- --  -- -- -- -- -- -- -- --
0100:                          37 3C 80 3D 80 3E 80 3F          7<.=.>.?
0110: 80 00                                             ..              
```

#### Opcodes

```
  0: 0x0108 [0x37] UPDATE_EVENT_POSITION_AND_DIR: x=-355.293*, z=-102.990*, y=15.473*, direction=200.7°*
  1: 0x0111 [0x00] END_REQSTACK()
```

### Event 65535.17

#### Metadata

| Field        | Value    |
|--------------|----------|
| Entrypoint   | 0x0112   |
| Data Size    | 10 bytes |
| Instructions | 2        |

```
      00 01 02 03 04 05 06 07  08 09 0A 0B 0C 0D 0E 0F
      -- -- -- -- -- -- -- --  -- -- -- -- -- -- -- --
0110:       37 40 80 41 80 42  80 43 80 00                7@.A.B.C..    
```

#### Opcodes

```
  0: 0x0112 [0x37] UPDATE_EVENT_POSITION_AND_DIR: x=448.799*, z=-29.349*, y=-39.711*, direction=50.6°*
  1: 0x011B [0x00] END_REQSTACK()
```

### Event 65535.18

#### Metadata

| Field        | Value    |
|--------------|----------|
| Entrypoint   | 0x011C   |
| Data Size    | 10 bytes |
| Instructions | 2        |

```
      00 01 02 03 04 05 06 07  08 09 0A 0B 0C 0D 0E 0F
      -- -- -- -- -- -- -- --  -- -- -- -- -- -- -- --
0110:                                      37 44 80 45              7D.E
0120: 80 46 80 47 80 00                                 .F.G..          
```

#### Opcodes

```
  0: 0x011C [0x37] UPDATE_EVENT_POSITION_AND_DIR: x=-17.660*, z=54.249*, y=-0.441*, direction=242.2°*
  1: 0x0125 [0x00] END_REQSTACK()
```

### Event 65535.19

#### Metadata

| Field        | Value    |
|--------------|----------|
| Entrypoint   | 0x0126   |
| Data Size    | 10 bytes |
| Instructions | 2        |

```
      00 01 02 03 04 05 06 07  08 09 0A 0B 0C 0D 0E 0F
      -- -- -- -- -- -- -- --  -- -- -- -- -- -- -- --
0120:                   37 48  80 49 80 4A 80 4B 80 00        7H.I.J.K..
```

#### Opcodes

```
  0: 0x0126 [0x37] UPDATE_EVENT_POSITION_AND_DIR: x=-19.140*, z=19.302*, y=40.617*, direction=82.2°*
  1: 0x012F [0x00] END_REQSTACK()
```

### Event 65535.20

#### Metadata

| Field        | Value    |
|--------------|----------|
| Entrypoint   | 0x0130   |
| Data Size    | 10 bytes |
| Instructions | 2        |

```
      00 01 02 03 04 05 06 07  08 09 0A 0B 0C 0D 0E 0F
      -- -- -- -- -- -- -- --  -- -- -- -- -- -- -- --
0130: 37 4C 80 4D 80 4E 80 4F  80 00                    7L.M.N.O..      
```

#### Opcodes

```
  0: 0x0130 [0x37] UPDATE_EVENT_POSITION_AND_DIR: x=73.092*, z=-171.909*, y=3.999*, direction=90.2°*
  1: 0x0139 [0x00] END_REQSTACK()
```

### Event 65535.21

#### Metadata

| Field        | Value    |
|--------------|----------|
| Entrypoint   | 0x013A   |
| Data Size    | 10 bytes |
| Instructions | 2        |

```
      00 01 02 03 04 05 06 07  08 09 0A 0B 0C 0D 0E 0F
      -- -- -- -- -- -- -- --  -- -- -- -- -- -- -- --
0130:                                37 50 80 51 80 52            7P.Q.R
0140: 80 53 80 00                                       .S..            
```

#### Opcodes

```
  0: 0x013A [0x37] UPDATE_EVENT_POSITION_AND_DIR: x=-20.169*, z=31.299*, y=-9.998*, direction=299.1°*
  1: 0x0143 [0x00] END_REQSTACK()
```

### Event 65535.22

#### Metadata

| Field        | Value    |
|--------------|----------|
| Entrypoint   | 0x0144   |
| Data Size    | 10 bytes |
| Instructions | 2        |

```
      00 01 02 03 04 05 06 07  08 09 0A 0B 0C 0D 0E 0F
      -- -- -- -- -- -- -- --  -- -- -- -- -- -- -- --
0140:             37 54 80 55  80 56 80 57 80 00            7T.U.V.W..  
```

#### Opcodes

```
  0: 0x0144 [0x37] UPDATE_EVENT_POSITION_AND_DIR: x=-14.240*, z=53.275*, y=-0.641*, direction=268.6°*
  1: 0x014D [0x00] END_REQSTACK()
```

### Event 65535.23

#### Metadata

| Field        | Value   |
|--------------|---------|
| Entrypoint   | 0x014E  |
| Data Size    | 6 bytes |
| Instructions | 2       |

```
      00 01 02 03 04 05 06 07  08 09 0A 0B 0C 0D 0E 0F
      -- -- -- -- -- -- -- --  -- -- -- -- -- -- -- --
0140:                                            03 02                ..
0150: 10 07 7F 00                                       ....            
```

#### Opcodes

```
  0: 0x014E [0x03] Work_Zone[2] = Entity->Race
  1: 0x0153 [0x00] END_REQSTACK()
```

### Event 65535.24

#### Metadata

| Field        | Value   |
|--------------|---------|
| Entrypoint   | 0x0154  |
| Data Size    | 6 bytes |
| Instructions | 2       |

```
      00 01 02 03 04 05 06 07  08 09 0A 0B 0C 0D 0E 0F
      -- -- -- -- -- -- -- --  -- -- -- -- -- -- -- --
0150:             03 02 10 0B  7F 00                        ......      
```

#### Opcodes

```
  0: 0x0154 [0x03] Work_Zone[2] = (Entity->Render.Flags01 >> 25) & 1
  1: 0x0159 [0x00] END_REQSTACK()
```

### Event 65535.25

#### Metadata

| Field        | Value    |
|--------------|----------|
| Entrypoint   | 0x015A   |
| Data Size    | 37 bytes |
| Instructions | 5        |

```
      00 01 02 03 04 05 06 07  08 09 0A 0B 0C 0D 0E 0F
      -- -- -- -- -- -- -- --  -- -- -- -- -- -- -- --
0150:                                03 00 00 07 7F 1A            ......
0160: A4 01 66 01 00 F8 FF FF  7F F8 FF FF 7F 73 68 61  ..f..........sha
0170: 30 53 F8 FF FF 7F F8 FF  FF 7F 73 68 61 30 00     0S........sha0. 
```

#### Opcodes

```
  0: 0x015A [0x03] ExtData[1]->WorkLocal[0] = Entity->Race
  1: 0x015F [0x1A] CALL_SUBROUTINE(address=0x01A4)
  2: 0x0162 [0x66] LOAD_EXT_SCHEDULER_MAIN: Load scheduler "sha0" with entities [EventEntity, EventEntity], work=ExtData[1]->WorkLocal[1]
  3: 0x0171 [0x53] WAIT_SCHEDULER_TASK: Wait for scheduler "sha0" with entities [EventEntity, EventEntity]
  4: 0x017E [0x00] END_REQSTACK()
```

### Event 65535.26

#### Metadata

| Field        | Value     |
|--------------|-----------|
| Entrypoint   | 0x017F    |
| Data Size    | 185 bytes |
| Instructions | 13        |

```
      00 01 02 03 04 05 06 07  08 09 0A 0B 0C 0D 0E 0F
      -- -- -- -- -- -- -- --  -- -- -- -- -- -- -- --
0170:                                               03                 .
0180: 00 00 07 7F 1A A4 01 66  01 00 F8 FF FF 7F F8 FF  .......f........
0190: FF 7F 73 68 61 31 53 F8  FF FF 7F F8 FF FF 7F 73  ..sha1S........s
01A0: 68 61 31 00 03 01 00 00  00 02 01 00 58 80 05 B9  ha1.........X...
01B0: 01 08 01 00 59 80 01 BE  01 08 01 00 5A 80 14 01  ....Y.......Z...
01C0: 00 30 80 07 01 00 5B 80  1B 03 01 00 00 00 02 01  .0....[.........
01D0: 00 58 80 05 DE 01 08 01  00 59 80 01 E3 01 08 01  .X.......Y......
01E0: 00 5A 80 14 01 00 30 80  07 01 00 5C 80 1B 03 01  .Z....0....\....
01F0: 00 00 00 02 01 00 58 80  05 03 02 08 01 00 59 80  ......X.......Y.
0200: 01 08 02 08 01 00 5A 80  14 01 00 30 80 07 01 00  ......Z....0....
0210: 5D 80 1B 03 01 00 00 00  02 01 00 58 80 05 28 02  ]..........X..(.
0220: 08 01 00 59 80 01 2D 02  08 01 00 5A 80 14 01 00  ...Y..-....Z....
0230: 30 80 07 01 00 5E 80 1B                           0....^..        
```

#### Opcodes

```
  0: 0x017F [0x03] ExtData[1]->WorkLocal[0] = Entity->Race
  1: 0x0184 [0x1A] CALL_SUBROUTINE(address=0x01A4)
  2: 0x0187 [0x66] LOAD_EXT_SCHEDULER_MAIN: Load scheduler "sha1" with entities [EventEntity, EventEntity], work=ExtData[1]->WorkLocal[1]
  3: 0x0196 [0x53] WAIT_SCHEDULER_TASK: Wait for scheduler "sha1" with entities [EventEntity, EventEntity]
  4: 0x01A3 [0x00] END_REQSTACK()

SUBROUTINE_01A4:
  5: 0x01A4 [0x03] ExtData[1]->WorkLocal[1] = ExtData[1]->WorkLocal[0]
  6: 0x01A9 [0x02] IF !(ExtData[1]->WorkLocal[1] > 5*) GOTO 0x01B9
  7: 0x01B1 [0x08] ExtData[1]->WorkLocal[1] -= 1*
  8: 0x01B6 [0x01] GOTO 0x01BE
  9: 0x01B9 [0x08] ExtData[1]->WorkLocal[1] -= 2*

SUBROUTINE_01BE:
 10: 0x01BE [0x14] ExtData[1]->WorkLocal[1] *= 10*
 11: 0x01C3 [0x07] ExtData[1]->WorkLocal[1] += 9*
 12: 0x01C8 [0x1B] RETURN
```

#### Data or dead code:

```
# Dead code (unreachable instructions):
     0x01C9 [0x03] ExtData[1]->WorkLocal[1] = ExtData[1]->WorkLocal[0]
     0x01CE [0x02] IF !(ExtData[1]->WorkLocal[1] > 5*) GOTO 0x01DE
     0x01D6 [0x08] ExtData[1]->WorkLocal[1] -= 1*
     0x01DB [0x01] GOTO 0x01E3
     0x01DE [0x08] ExtData[1]->WorkLocal[1] -= 2*
     0x01E3 [0x14] ExtData[1]->WorkLocal[1] *= 10*
     0x01E8 [0x07] ExtData[1]->WorkLocal[1] += 70*
     0x01ED [0x1B] RETURN
     0x01EE [0x03] ExtData[1]->WorkLocal[1] = ExtData[1]->WorkLocal[0]
     0x01F3 [0x02] IF !(ExtData[1]->WorkLocal[1] > 5*) GOTO 0x0203
     0x01FB [0x08] ExtData[1]->WorkLocal[1] -= 1*
     0x0200 [0x01] GOTO 0x0208
     0x0203 [0x08] ExtData[1]->WorkLocal[1] -= 2*
     0x0208 [0x14] ExtData[1]->WorkLocal[1] *= 10*
     0x020D [0x07] ExtData[1]->WorkLocal[1] += 140*
     0x0212 [0x1B] RETURN
     0x0213 [0x03] ExtData[1]->WorkLocal[1] = ExtData[1]->WorkLocal[0]
     0x0218 [0x02] IF !(ExtData[1]->WorkLocal[1] > 5*) GOTO 0x0228
     0x0220 [0x08] ExtData[1]->WorkLocal[1] -= 1*
     0x0225 [0x01] GOTO 0x022D
     0x0228 [0x08] ExtData[1]->WorkLocal[1] -= 2*
     0x022D [0x14] ExtData[1]->WorkLocal[1] *= 10*
     0x0232 [0x07] ExtData[1]->WorkLocal[1] += 210*
     0x0237 [0x1B] RETURN
```

### Event 65535.27

#### Metadata

| Field        | Value    |
|--------------|----------|
| Entrypoint   | 0x0238   |
| Data Size    | 24 bytes |
| Instructions | 4        |

```
      00 01 02 03 04 05 06 07  08 09 0A 0B 0C 0D 0E 0F
      -- -- -- -- -- -- -- --  -- -- -- -- -- -- -- --
0230:                          03 00 00 07 7F 1A A4 01          ........
0240: 66 01 00 F8 FF FF 7F F8  FF FF 7F 74 6C 6B 30 00  f..........tlk0.
```

#### Opcodes

```
  0: 0x0238 [0x03] ExtData[1]->WorkLocal[0] = Entity->Race
  1: 0x023D [0x1A] CALL_SUBROUTINE(address=0x01A4)
  2: 0x0240 [0x66] LOAD_EXT_SCHEDULER_MAIN: Load scheduler "tlk0" with entities [EventEntity, EventEntity], work=ExtData[1]->WorkLocal[1]
  3: 0x024F [0x00] END_REQSTACK()
```

### Event 65535.28

#### Metadata

| Field        | Value    |
|--------------|----------|
| Entrypoint   | 0x0250   |
| Data Size    | 24 bytes |
| Instructions | 4        |

```
      00 01 02 03 04 05 06 07  08 09 0A 0B 0C 0D 0E 0F
      -- -- -- -- -- -- -- --  -- -- -- -- -- -- -- --
0250: 03 00 00 07 7F 1A A4 01  66 01 00 F8 FF FF 7F F8  ........f.......
0260: FF FF 7F 74 6C 6B 31 00                           ...tlk1.        
```

#### Opcodes

```
  0: 0x0250 [0x03] ExtData[1]->WorkLocal[0] = Entity->Race
  1: 0x0255 [0x1A] CALL_SUBROUTINE(address=0x01A4)
  2: 0x0258 [0x66] LOAD_EXT_SCHEDULER_MAIN: Load scheduler "tlk1" with entities [EventEntity, EventEntity], work=ExtData[1]->WorkLocal[1]
  3: 0x0267 [0x00] END_REQSTACK()
```

### Event 65535.29

#### Metadata

| Field        | Value    |
|--------------|----------|
| Entrypoint   | 0x0268   |
| Data Size    | 37 bytes |
| Instructions | 5        |

```
      00 01 02 03 04 05 06 07  08 09 0A 0B 0C 0D 0E 0F
      -- -- -- -- -- -- -- --  -- -- -- -- -- -- -- --
0260:                          03 00 00 07 7F 1A A4 01          ........
0270: 66 01 00 F8 FF FF 7F F8  FF FF 7F 73 69 74 30 53  f..........sit0S
0280: F8 FF FF 7F F8 FF FF 7F  73 69 74 30 00           ........sit0.   
```

#### Opcodes

```
  0: 0x0268 [0x03] ExtData[1]->WorkLocal[0] = Entity->Race
  1: 0x026D [0x1A] CALL_SUBROUTINE(address=0x01A4)
  2: 0x0270 [0x66] LOAD_EXT_SCHEDULER_MAIN: Load scheduler "sit0" with entities [EventEntity, EventEntity], work=ExtData[1]->WorkLocal[1]
  3: 0x027F [0x53] WAIT_SCHEDULER_TASK: Wait for scheduler "sit0" with entities [EventEntity, EventEntity]
  4: 0x028C [0x00] END_REQSTACK()
```

### Event 65535.30

#### Metadata

| Field        | Value    |
|--------------|----------|
| Entrypoint   | 0x028D   |
| Data Size    | 37 bytes |
| Instructions | 5        |

```
      00 01 02 03 04 05 06 07  08 09 0A 0B 0C 0D 0E 0F
      -- -- -- -- -- -- -- --  -- -- -- -- -- -- -- --
0280:                                         03 00 00               ...
0290: 07 7F 1A A4 01 66 01 00  F8 FF FF 7F F8 FF FF 7F  .....f..........
02A0: 73 69 74 31 53 F8 FF FF  7F F8 FF FF 7F 73 69 74  sit1S........sit
02B0: 31 00                                             1.              
```

#### Opcodes

```
  0: 0x028D [0x03] ExtData[1]->WorkLocal[0] = Entity->Race
  1: 0x0292 [0x1A] CALL_SUBROUTINE(address=0x01A4)
  2: 0x0295 [0x66] LOAD_EXT_SCHEDULER_MAIN: Load scheduler "sit1" with entities [EventEntity, EventEntity], work=ExtData[1]->WorkLocal[1]
  3: 0x02A4 [0x53] WAIT_SCHEDULER_TASK: Wait for scheduler "sit1" with entities [EventEntity, EventEntity]
  4: 0x02B1 [0x00] END_REQSTACK()
```

### Event 65535.31

#### Metadata

| Field        | Value    |
|--------------|----------|
| Entrypoint   | 0x02B2   |
| Data Size    | 42 bytes |
| Instructions | 6        |

```
      00 01 02 03 04 05 06 07  08 09 0A 0B 0C 0D 0E 0F
      -- -- -- -- -- -- -- --  -- -- -- -- -- -- -- --
02B0:       03 00 00 07 7F 1A  A4 01 66 01 00 F8 FF FF    ........f.....
02C0: 7F F8 FF FF 7F 74 6C 6B  30 1C 0F 80 66 01 00 F8  .....tlk0...f...
02D0: FF FF 7F F8 FF FF 7F 74  6C 6B 31 00              .......tlk1.    
```

#### Opcodes

```
  0: 0x02B2 [0x03] ExtData[1]->WorkLocal[0] = Entity->Race
  1: 0x02B7 [0x1A] CALL_SUBROUTINE(address=0x01A4)
  2: 0x02BA [0x66] LOAD_EXT_SCHEDULER_MAIN: Load scheduler "tlk0" with entities [EventEntity, EventEntity], work=ExtData[1]->WorkLocal[1]
  3: 0x02C9 [0x1C] WAIT(60* ticks)
  4: 0x02CC [0x66] LOAD_EXT_SCHEDULER_MAIN: Load scheduler "tlk1" with entities [EventEntity, EventEntity], work=ExtData[1]->WorkLocal[1]
  5: 0x02DB [0x00] END_REQSTACK()
```
