# Event 65535

## Metadata

| Field           | Value    |
|-----------------|----------|
| Event Index     | 15/16    |
| Offset          | 0x00AF   |
| Data Size       | 37 bytes |
| Calculated Size | 37 bytes |
| Instructions    | 9        |

```
      00 01 02 03 04 05 06 07  08 09 0A 0B 0C 0D 0E 0F
      -- -- -- -- -- -- -- --  -- -- -- -- -- -- -- --
00A0:                                               29                 )
00B0: 08 0C 10 0F 01 02 1D 0D  80 23 29 08 0C 10 0F 01  .........#).....
00C0: 03 29 08 0C 10 0F 01 04  1D 0E 80 23 29 08 0C 10  .).........#)...
00D0: 0F 01 05 00                                       ....            
```

## Opcodes

```
  0: 0x00AF [0x29] REQ_SET_WAIT(priority=0x08, entity_id=Kohlo-Lakolo (ID: 17764364/0x010F100C), tag_num=0x02)
  1: 0x00B6 [0x1D] PRINT_EVENT_MESSAGE(message_id=8357*)
    → "Nanaa Mihgo!!!\u0007You're up to your old tricks of duping travelers out of their hard-earned gil, aren't you?\u007F1\u0000\u0007"
  2: 0x00B9 [0x23] WAIT_FOR_DIALOG_INTERACTION
  3: 0x00BA [0x29] REQ_SET_WAIT(priority=0x08, entity_id=Kohlo-Lakolo (ID: 17764364/0x010F100C), tag_num=0x03)
  4: 0x00C1 [0x29] REQ_SET_WAIT(priority=0x08, entity_id=Kohlo-Lakolo (ID: 17764364/0x010F100C), tag_num=0x04)
  5: 0x00C8 [0x1D] PRINT_EVENT_MESSAGE(message_id=8358*)
    → "We, the \u00072Star Onion Brigade,\u00073 won't let you get away with it!\u007F1\u0000\u0007"
  6: 0x00CB [0x23] WAIT_FOR_DIALOG_INTERACTION
  7: 0x00CC [0x29] REQ_SET_WAIT(priority=0x08, entity_id=Kohlo-Lakolo (ID: 17764364/0x010F100C), tag_num=0x05)
  8: 0x00D3 [0x00] END_REQSTACK()
```
