# Event 96

## Metadata

| Field           | Value    |
|-----------------|----------|
| Event Index     | 11/13    |
| Offset          | 0x0092   |
| Data Size       | 53 bytes |
| Calculated Size | 53 bytes |
| Instructions    | 10       |

```
      00 01 02 03 04 05 06 07  08 09 0A 0B 0C 0D 0E 0F
      -- -- -- -- -- -- -- --  -- -- -- -- -- -- -- --
0090:       79 00 F8 FF FF 7F  F0 FF FF 7F 66 0C 80 F8    y.........f...
00A0: FF FF 7F F8 FF FF 7F 74  6C 6B 30 1D 10 80 23 1D  .......tlk0...#.
00B0: 11 80 23 66 0C 80 F8 FF  FF 7F F8 FF FF 7F 74 6C  ..#f..........tl
00C0: 6B 31 1C 0B 80 21 00                              k1...!.         
```

## Opcodes

```
  0: 0x0092 [0x79] EventEntity looks at LocalPlayer (Basic look)
  1: 0x009C [0x66] LOAD_EXT_SCHEDULER_MAIN(work_offset=10*, entity1=EventEntity, entity2=EventEntity, action="tlk0")
  2: 0x00AB [0x1D] PRINT_EVENT_MESSAGE(message_id=8405*)
    → "Have you heard the rumors?\u0007Some are saying that the end of the world is upon us.\u007F1\u0000\u0007"
  3: 0x00AE [0x23] WAIT_FOR_DIALOG_INTERACTION
  4: 0x00AF [0x1D] PRINT_EVENT_MESSAGE(message_id=8406*)
    → "Thanks to that, we here at the clinic have lately been spending more time mending people's spirits than their broken bones.\u007F1\u0000\u0007"
  5: 0x00B2 [0x23] WAIT_FOR_DIALOG_INTERACTION
  6: 0x00B3 [0x66] LOAD_EXT_SCHEDULER_MAIN(work_offset=10*, entity1=EventEntity, entity2=EventEntity, action="tlk1")
  7: 0x00C2 [0x1C] WAIT(60* ticks)
  8: 0x00C5 [0x21] END_EVENT
  9: 0x00C6 [0x00] END_REQSTACK()
```
