# Event 65535

## Metadata

| Field           | Value    |
|-----------------|----------|
| Event Index     | 8/11     |
| Offset          | 0x0064   |
| Data Size       | 62 bytes |
| Calculated Size | 62 bytes |
| Instructions    | 10       |

```
      00 01 02 03 04 05 06 07  08 09 0A 0B 0C 0D 0E 0F
      -- -- -- -- -- -- -- --  -- -- -- -- -- -- -- --
0060:             66 16 80 F8  FF FF 7F F8 FF FF 7F 73      f..........s
0070: 68 61 31 53 F8 FF FF 7F  F8 FF FF 7F 73 68 61 30  ha1S........sha0
0080: 32 04 80 1F 00 17 80 18  80 19 80 1F 01 1F 00 1A  2...............
0090: 80 1B 80 19 80 1F 01 1F  00 1C 80 1D 80 1E 80 1F  ................
00A0: 01 00                                             ..              
```

## Opcodes

```
  0: 0x0064 [0x66] LOAD_EXT_SCHEDULER_MAIN: Load scheduler "sha1" with entities [EventEntity, EventEntity], work=29*
  1: 0x0073 [0x53] WAIT_SCHEDULER_TASK: Wait for scheduler "sha0" with entities [EventEntity, EventEntity]
  2: 0x0080 [0x32] ExtData[1]->MainSpeed = 40* * 0.1
  3: 0x0083 [0x1F] MOVE_ENTITY: EventEntity moves to X=459.250*, Z=130.061*, Y=0.000*
  4: 0x008B [0x1F] MOVE_ENTITY: Update entity position (mode=1)
  5: 0x008D [0x1F] MOVE_ENTITY: EventEntity moves to X=459.866*, Z=123.709*, Y=0.000*
  6: 0x0095 [0x1F] MOVE_ENTITY: Update entity position (mode=1)
  7: 0x0097 [0x1F] MOVE_ENTITY: EventEntity moves to X=459.430*, Z=104.770*, Y=3.499*
  8: 0x009F [0x1F] MOVE_ENTITY: Update entity position (mode=1)
  9: 0x00A1 [0x00] END_REQSTACK()
```
