# Event 5036

## Metadata

| Field           | Value    |
|-----------------|----------|
| Event Index     | 9/19     |
| Offset          | 0x006A   |
| Data Size       | 42 bytes |
| Calculated Size | 42 bytes |
| Instructions    | 12       |

```
      00 01 02 03 04 05 06 07  08 09 0A 0B 0C 0D 0E 0F
      -- -- -- -- -- -- -- --  -- -- -- -- -- -- -- --
0060:                                1E F0 FF FF 7F 1C            ......
0070: 09 80 66 08 80 F8 FF FF  7F F8 FF FF 7F 74 6C 6B  ..f..........tlk
0080: 30 1D 0C 80 23 03 02 10  0D 80 1D 0E 80 23 1D 0F  0...#........#..
0090: 80 23 21 00                                       .#!.            
```

## Opcodes

```
  0: 0x006A [0x1E] EventEntity looks at LocalPlayer and starts talking
  1: 0x006F [0x1C] WAIT(30* ticks)
  2: 0x0072 [0x66] LOAD_EXT_SCHEDULER_MAIN(work_offset=39*, entity1=EventEntity, entity2=EventEntity, action="tlk0")
  3: 0x0081 [0x1D] PRINT_EVENT_MESSAGE(message_id=9330*)
    → "Will you help me by going to gather some? They grow in the forests outside of Adoulin proper.\u007F1\u0000\u0007"
  4: 0x0084 [0x23] WAIT_FOR_DIALOG_INTERACTION
  5: 0x0085 [0x03] Work_Zone[2] = 3*
  6: 0x008A [0x1D] PRINT_EVENT_MESSAGE(message_id=9331*)
    → "I realize time is of the essence, but I'd like to give one to each of our raptors, so a total of...
\u0000 should be sufficient.\u007F1\u0000\u0007"
  7: 0x008D [0x23] WAIT_FOR_DIALOG_INTERACTION
  8: 0x008E [0x1D] PRINT_EVENT_MESSAGE(message_id=9333*)
    → "I beg of you, find some rockberries for the poor raptors!\u007F1\u0000\u0007"
  9: 0x0091 [0x23] WAIT_FOR_DIALOG_INTERACTION
 10: 0x0092 [0x21] END_EVENT
 11: 0x0093 [0x00] END_REQSTACK()
```
