# Event 65535

## Metadata

| Field           | Value    |
|-----------------|----------|
| Event Index     | 3/20     |
| Offset          | 0x0002   |
| Data Size       | 76 bytes |
| Calculated Size | 76 bytes |
| Instructions    | 10       |

```
      00 01 02 03 04 05 06 07  08 09 0A 0B 0C 0D 0E 0F
      -- -- -- -- -- -- -- --  -- -- -- -- -- -- -- --
0000:       4A 60 40 02 01 5A  40 02 01 4A 61 40 02 01    J`@..Z@..Ja@..
0010: 5A 40 02 01 4A 62 40 02  01 5A 40 02 01 1C 00 80  Z@..Jb@..Z@.....
0020: AD 00 01 80 61 40 02 01  61 40 02 01 1C 02 80 AD  ....a@..a@......
0030: 00 03 80 62 40 02 01 62  40 02 01 1C 04 80 5B 05  ...b@..b@.....[.
0040: 80 60 40 02 01 60 40 02  01 77 61 69 30 00        .`@..`@..wai0.  
```

## Opcodes

```
  0: 0x0002 [0x4A] Makki-Chebukki (ID: 16924768/0x01024060) looks at Selh'teus (ID: 16924762/0x0102405A)
  1: 0x000B [0x4A] Kukki-Chebukki (ID: 16924769/0x01024061) looks at Selh'teus (ID: 16924762/0x0102405A)
  2: 0x0014 [0x4A] Cherukiki (ID: 16924770/0x01024062) looks at Selh'teus (ID: 16924762/0x0102405A)
  3: 0x001D [0x1C] WAIT(45* ticks)
  4: 0x0020 [0xAD] DUAL_ENTITY_SCHEDULER_HANDLER: Execute sub-case 0 with entities [Kukki-Chebukki (ID: 16924769/0x01024061), Kukki-Chebukki (ID: 16924769/0x01024061)], work=36*
  5: 0x002C [0x1C] WAIT(6* ticks)
  6: 0x002F [0xAD] DUAL_ENTITY_SCHEDULER_HANDLER: Execute sub-case 0 with entities [Cherukiki (ID: 16924770/0x01024062), Cherukiki (ID: 16924770/0x01024062)], work=35*
  7: 0x003B [0x1C] WAIT(15* ticks)
  8: 0x003E [0x5B] LOAD_EXT_SCHEDULER: Load scheduler "wai0" with entities [Makki-Chebukki (ID: 16924768/0x01024060), Makki-Chebukki (ID: 16924768/0x01024060)], work=336*
  9: 0x004D [0x00] END_REQSTACK()
```
