# Event 65535

## Metadata

| Field           | Value    |
|-----------------|----------|
| Event Index     | 19/20    |
| Offset          | 0x04A0   |
| Data Size       | 66 bytes |
| Calculated Size | 66 bytes |
| Instructions    | 8        |

```
      00 01 02 03 04 05 06 07  08 09 0A 0B 0C 0D 0E 0F
      -- -- -- -- -- -- -- --  -- -- -- -- -- -- -- --
04A0: 27 10 7A 40 02 01 14 27  10 5C 40 02 01 10 27 10  '.z@...'.\@...'.
04B0: 5E 40 02 01 10 27 10 5D  40 02 01 10 27 10 5F 40  ^@...'.]@...'._@
04C0: 02 01 10 5B 29 80 5C 40  02 01 5C 40 02 01 6C 73  ...[).\@..\@..ls
04D0: 30 33 5B 2A 80 5D 40 02  01 5D 40 02 01 6C 61 30  03[*.]@..]@..la0
04E0: 30 00                                             0.              
```

## Opcodes

```
  0: 0x04A0 [0x27] REQ_SET(priority=0x10, entity_id=Altana (ID: 16924794/0x0102407A), tag_num=0x14)
  1: 0x04A7 [0x27] REQ_SET(priority=0x10, entity_id=Tenzen (ID: 16924764/0x0102405C), tag_num=0x10)
  2: 0x04AE [0x27] REQ_SET(priority=0x10, entity_id=Shikaree Z (ID: 16924766/0x0102405E), tag_num=0x10)
  3: 0x04B5 [0x27] REQ_SET(priority=0x10, entity_id=Jabbos (ID: 16924765/0x0102405D), tag_num=0x10)
  4: 0x04BC [0x27] REQ_SET(priority=0x10, entity_id=Louverance (ID: 16924767/0x0102405F), tag_num=0x10)
  5: 0x04C3 [0x5B] LOAD_EXT_SCHEDULER: Load scheduler "ls03" with entities [Tenzen (ID: 16924764/0x0102405C), Tenzen (ID: 16924764/0x0102405C)], work=661*
  6: 0x04D2 [0x5B] LOAD_EXT_SCHEDULER: Load scheduler "la00" with entities [Jabbos (ID: 16924765/0x0102405D), Jabbos (ID: 16924765/0x0102405D)], work=741*
  7: 0x04E1 [0x00] END_REQSTACK()
```
