# Event 65535

## Metadata

| Field           | Value    |
|-----------------|----------|
| Event Index     | 14/20    |
| Offset          | 0x03BC   |
| Data Size       | 56 bytes |
| Calculated Size | 56 bytes |
| Instructions    | 6        |

```
      00 01 02 03 04 05 06 07  08 09 0A 0B 0C 0D 0E 0F
      -- -- -- -- -- -- -- --  -- -- -- -- -- -- -- --
03B0:                                      1C 21 80 9F              .!..
03C0: 22 80 64 40 02 01 64 40  02 01 6B 69 6C 6C 08 80  ".d@..d@..kill..
03D0: 5B 23 80 64 40 02 01 64  40 02 01 65 64 30 38 1C  [#.d@..d@..ed08.
03E0: 19 80 45 09 80 F0 FF FF  7F F0 FF FF 7F 6B 31 32  ..E..........k12
03F0: 38 08 80 00                                       8...            
```

## Opcodes

```
  0: 0x03BC [0x1C] WAIT(90* ticks)
  1: 0x03BF [0x9F] LOAD_SCHEDULED_TASK_ALT: Load scheduler "kill" with entities [Promathia (ID: 16924772/0x01024064), Promathia (ID: 16924772/0x01024064)], work=[165*, 0*]
  2: 0x03D0 [0x5B] LOAD_EXT_SCHEDULER: Load scheduler "ed08" with entities [Promathia (ID: 16924772/0x01024064), Promathia (ID: 16924772/0x01024064)], work=775*
  3: 0x03DF [0x1C] WAIT(30* ticks)
  4: 0x03E2 [0x45] LOAD_SCHEDULED_TASK: Load scheduler "k128" with entities [LocalPlayer, LocalPlayer], work=[124*, 0*]
  5: 0x03F3 [0x00] END_REQSTACK()
```
