# Event 65535

## Metadata

| Field           | Value    |
|-----------------|----------|
| Event Index     | 10/20    |
| Offset          | 0x02D0   |
| Data Size       | 88 bytes |
| Calculated Size | 88 bytes |
| Instructions    | 10       |

```
      00 01 02 03 04 05 06 07  08 09 0A 0B 0C 0D 0E 0F
      -- -- -- -- -- -- -- --  -- -- -- -- -- -- -- --
02D0: 5B 1A 80 5F 40 02 01 5F  40 02 01 73 69 30 31 1C  [.._@.._@..si01.
02E0: 13 80 5B 1B 80 5B 40 02  01 5B 40 02 01 74 6C 77  ..[..[@..[@..tlw
02F0: 30 1C 13 80 5B 1C 80 5C  40 02 01 5C 40 02 01 6C  0...[..\@..\@..l
0300: 75 70 6C 1C 13 80 5B 1D  80 5E 40 02 01 5E 40 02  upl...[..^@..^@.
0310: 01 65 64 30 32 1C 13 80  5B 1E 80 5D 40 02 01 5D  .ed02...[..]@..]
0320: 40 02 01 67 62 61 30 00                           @..gba0.        
```

## Opcodes

```
  0: 0x02D0 [0x5B] LOAD_EXT_SCHEDULER(work_offset=657*, entity1=Louverance (ID: 16924767/0x0102405F), entity2=Louverance (ID: 16924767/0x0102405F), action="si01")
  1: 0x02DF [0x1C] WAIT(3* ticks)
  2: 0x02E2 [0x5B] LOAD_EXT_SCHEDULER(work_offset=422*, entity1=Ulmia (ID: 16924763/0x0102405B), entity2=Ulmia (ID: 16924763/0x0102405B), action="tlw0")
  3: 0x02F1 [0x1C] WAIT(3* ticks)
  4: 0x02F4 [0x5B] LOAD_EXT_SCHEDULER(work_offset=639*, entity1=Tenzen (ID: 16924764/0x0102405C), entity2=Tenzen (ID: 16924764/0x0102405C), action="lupl")
  5: 0x0303 [0x1C] WAIT(3* ticks)
  6: 0x0306 [0x5B] LOAD_EXT_SCHEDULER(work_offset=768*, entity1=Shikaree Z (ID: 16924766/0x0102405E), entity2=Shikaree Z (ID: 16924766/0x0102405E), action="ed02")
  7: 0x0315 [0x1C] WAIT(3* ticks)
  8: 0x0318 [0x5B] LOAD_EXT_SCHEDULER(work_offset=492*, entity1=Jabbos (ID: 16924765/0x0102405D), entity2=Jabbos (ID: 16924765/0x0102405D), action="gba0")
  9: 0x0327 [0x00] END_REQSTACK()
```
