# Event 65535

## Metadata

| Field           | Value    |
|-----------------|----------|
| Event Index     | 7/20     |
| Offset          | 0x0147   |
| Data Size       | 43 bytes |
| Calculated Size | 43 bytes |
| Instructions    | 6        |

```
      00 01 02 03 04 05 06 07  08 09 0A 0B 0C 0D 0E 0F
      -- -- -- -- -- -- -- --  -- -- -- -- -- -- -- --
0140:                      AD  00 10 80 60 40 02 01 60         ....`@..`
0150: 40 02 01 1C 04 80 AD 00  01 80 61 40 02 01 61 40  @.........a@..a@
0160: 02 01 1C 02 80 AD 00 03  80 62 40 02 01 62 40 02  .........b@..b@.
0170: 01 00                                             ..              
```

## Opcodes

```
  0: 0x0147 [0xAD] DUAL_ENTITY_SCHEDULER: Execute sub-case 0 with entities [Makki-Chebukki (ID: 16924768/0x01024060), Makki-Chebukki (ID: 16924768/0x01024060)], param=37*
  1: 0x0153 [0x1C] WAIT(15* ticks)
  2: 0x0156 [0xAD] DUAL_ENTITY_SCHEDULER: Execute sub-case 0 with entities [Kukki-Chebukki (ID: 16924769/0x01024061), Kukki-Chebukki (ID: 16924769/0x01024061)], param=36*
  3: 0x0162 [0x1C] WAIT(6* ticks)
  4: 0x0165 [0xAD] DUAL_ENTITY_SCHEDULER: Execute sub-case 0 with entities [Cherukiki (ID: 16924770/0x01024062), Cherukiki (ID: 16924770/0x01024062)], param=35*
  5: 0x0171 [0x00] END_REQSTACK()
```
