# Event 103

## Metadata

| Field           | Value    |
|-----------------|----------|
| Event Index     | 6/7      |
| Offset          | 0x0090   |
| Data Size       | 55 bytes |
| Calculated Size | 55 bytes |
| Instructions    | 8        |

```
      00 01 02 03 04 05 06 07  08 09 0A 0B 0C 0D 0E 0F
      -- -- -- -- -- -- -- --  -- -- -- -- -- -- -- --
0090: 20 01 42 1E F0 FF FF 7F  89 0B 80 8B 0B 80 07 80   .B.............
00A0: 04 10 05 10 54 72 65 61  73 75 72 65 00 00 00 00  ....Treasure....
00B0: 00 00 00 00 1C 0C 80 1D  0D 80 23 03 02 10 0E 80  ..........#.....
00C0: 1D 0F 80 23 8A 21 00                              ...#.!.         
```

## Opcodes

```
  0: 0x0090 [0x20] SET_CLI_EVENT_UC_FLAG: Lock player control
  1: 0x0092 [0x42] SET_CLI_EVENT_CANCEL_DATA()
  2: 0x0093 [0x1E] EventEntity looks at LocalPlayer and starts talking
  3: 0x0098 [0x89] OPEN_MAP(map_id=0x0000800B)
  4: 0x009B [0x8B] SET_EVENT_MARK: Add/update map marker on map 125* at (4.1, 4.1), index=0*, name=(no name)
  5: 0x00A4 [0x54] WAIT_MAP_SCHEDULER(entity1=Unknown NPC (ID: 1935762802/0x73616572), entity2=Unknown NPC (ID: 6648437/0x00657275), action_id=0x00000000)
  6: 0x00B1 [0x00] END_REQSTACK()
```

## Data or dead code:

```
# Data Section: 0x00B2 (21 bytes)
     0x00B2: 00 00 1C 0C 80 1D 0D 80 23 03 02 10 0E 80 1D 0F
     0x00C2: 80 23 8A 21 00
```