# Event 219

## Metadata

| Field           | Value    |
|-----------------|----------|
| Event Index     | 4/4      |
| Offset          | 0x0006   |
| Data Size       | 19 bytes |
| Calculated Size | 19 bytes |
| Instructions    | 10       |

```
      00 01 02 03 04 05 06 07  08 09 0A 0B 0C 0D 0E 0F
      -- -- -- -- -- -- -- --  -- -- -- -- -- -- -- --
0000:                   1E F0  FF FF 7F 6F 70 1D 01 80        .....op...
0010: 23 1D 02 80 23 20 00 21  00                       #...# .!.       
```

## Opcodes

```
  0: 0x0006 [0x1E] EventEntity looks at LocalPlayer and starts talking
  1: 0x000B [0x6F] WAIT_FRAME_DELAY: Yield until WaitTime reaches zero
  2: 0x000C [0x70] WAIT_ENTITY_RENDER_FLAG: Wait while EventEntity->Render.Flags3 bit 2 is set (cancel turn if not)
  3: 0x000D [0x1D] PRINT_EVENT_MESSAGE(message_id=3634*)
    → "LiNeD\u0001\u001AaLoNg\u0001\u001AtHe DoCkS\u0001\u001AtHeRe\u0001\u001AiS A\u0001\u001AMaGiC\u0001\u001AsHoP, a\u0001\u001AWeApoN\u0001\u001AsHOp, AnD\u0001\u001AaN\u0001\u001AArMOr ShoP!\u007F1\u0000\u0007"
  4: 0x0010 [0x23] WAIT_FOR_DIALOG_INTERACTION
  5: 0x0011 [0x1D] PRINT_EVENT_MESSAGE(message_id=3635*)
    → "hEaD tO\u0001\u001AwEsT\u0001\u001AsArUtA-BaRuTa iF\u0001\u001AyOu\u0001\u001AWaNt To\u0001\u001AtRy\u0001\u001AOuT yOuR\u0001\u001AnEw\u0001\u001AEqUiP-mEnt!\u007F1\u0000\u0007"
  6: 0x0014 [0x23] WAIT_FOR_DIALOG_INTERACTION
  7: 0x0015 [0x20] SET_CLI_EVENT_UC_FLAG: Unlock player control
  8: 0x0017 [0x21] END_EVENT
  9: 0x0018 [0x00] END_REQSTACK()
```
