# Event 438

## Metadata

| Field           | Value    |
|-----------------|----------|
| Event Index     | 9/15     |
| Offset          | 0x03A9   |
| Data Size       | 33 bytes |
| Calculated Size | 33 bytes |
| Instructions    | 11       |

```
      00 01 02 03 04 05 06 07  08 09 0A 0B 0C 0D 0E 0F
      -- -- -- -- -- -- -- --  -- -- -- -- -- -- -- --
03A0:                             1E F0 FF FF 7F 03 02           .......
03B0: 10 2A 80 03 03 10 2B 80  1D 2C 80 23 1D 2D 80 23  .*....+..,.#.-.#
03C0: 2B 97 B0 0E 01 2E 80 23  21 00                    +......#!.      
```

## Opcodes

```
  0: 0x03A9 [0x1E] EventEntity looks at LocalPlayer and starts talking
  1: 0x03AE [0x03] Work_Zone[2] = 843*
  2: 0x03B3 [0x03] Work_Zone[3] = 844*
  3: 0x03B8 [0x1D] PRINT_EVENT_MESSAGE(message_id=9576*)
    → "If you want to prove that you're worthy, take \u0001\u00053\u0002\u0000\u0000\u0000 and go to Talacca Cove on the Arrapago Islands.\u007F1\u0000\u0007"
  4: 0x03BB [0x23] WAIT_FOR_DIALOG_INTERACTION
  5: 0x03BC [0x1D] PRINT_EVENT_MESSAGE(message_id=9577*)
    → "Ah, but before that you'll also need a \u0001\u00053\u0002\u0001\u0000\u0000. The Trolls used to use them during construction, so you might be able to find one on Mount Zhayolm.\u007F1\u0000\u0007"
  6: 0x03BF [0x23] WAIT_FOR_DIALOG_INTERACTION
  7: 0x03C0 [0x2B] Valkeng (ID: 17739927/0x010EB097) [9584*]:
    → "Good luck!\u007F1\u0000\u0007"
  8: 0x03C7 [0x23] WAIT_FOR_DIALOG_INTERACTION
  9: 0x03C8 [0x21] END_EVENT
 10: 0x03C9 [0x00] END_REQSTACK()
```
