# Event 217

## Metadata

| Field           | Value     |
|-----------------|-----------|
| Event Index     | 19/19     |
| Offset          | 0x0101    |
| Data Size       | 135 bytes |
| Calculated Size | 135 bytes |
| Instructions    | 9         |

```
      00 01 02 03 04 05 06 07  08 09 0A 0B 0C 0D 0E 0F
      -- -- -- -- -- -- -- --  -- -- -- -- -- -- -- --
0100:    42 5D 02 80 03 80 02  05 10 02 80 00 18 01 A8   B].............
0110: 00 04 10 45 80 1C 46 80  89 04 10 8B 04 10 05 10  ...E..F.........
0120: 02 10 03 10 3F 3F 3F 00  00 00 00 00 00 00 00 00  ....???.........
0130: 00 00 00 00 45 01 80 F8  FF FF 7F F8 FF FF 7F 63  ....E..........c
0140: 68 63 6F 02 80 48 47 80  23 02 06 10 45 80 00 66  hco..HG.#...E..f
0150: 01 45 48 80 F8 FF FF 7F  F8 FF FF 7F 6E 61 6B 31  .EH.........nak1
0160: 02 80 48 49 80 23 02 07  10 4A 80 00 83 01 45 48  ..HI.#...J....EH
0170: 80 F8 FF FF 7F F8 FF FF  7F 6E 61 6B 32 02 80 48  .........nak2..H
0180: 4B 80 23 1C 45 80 21 00                           K.#.E.!.        
```

## Opcodes

```
  0: 0x0101 [0x42] SET_CLI_EVENT_CANCEL_DATA()
  1: 0x0102 [0x5D] SET_MUSIC_VOLUME(volume=0*, fade_time=60*)
  2: 0x0107 [0x02] IF !(Work_Zone[5] == 0*) GOTO 0x0118
  3: 0x010F [0xA8] MAP_MARKER_CONTROL: Reset/unlock markers (no map display), zone=Work_Zone[4], marker=1*
  4: 0x0115 [0x1C] WAIT(15* ticks)
  5: 0x0118 [0x89] OPEN_MAP(map_id=0x00001004)
  6: 0x011B [0x8B] SET_EVENT_MARK: Add/update map marker on map Work_Zone[4] at (4.1, 4.1), index=Work_Zone[5], name=(no name)
  7: 0x0124 [0x3F] 0x3F3F = ExtData[1]->WorkLocal[0] % ExtData[1]->WorkLocal[0]
  8: 0x012B [0x00] END_REQSTACK()
```

## Data or dead code:

```
# Dead code (unreachable instructions):
     0x012C [0x00] END_REQSTACK()
     0x012D [0x00] END_REQSTACK()
     0x012E [0x00] END_REQSTACK()
     0x012F [0x00] END_REQSTACK()
     0x0130 [0x00] END_REQSTACK()
     0x0131 [0x00] END_REQSTACK()
     0x0132 [0x00] END_REQSTACK()
     0x0133 [0x00] END_REQSTACK()
     0x0134 [0x45] LOAD_SCHEDULED_TASK: Load scheduler "chco" with entities [EventEntity, EventEntity], work=[201*, 0*]
     0x0145 [0x48] [System] [7629*]:
    → "There is treasure somewhere in the vicinity of this marker...\u007F1\u0000\u0007"
     0x0148 [0x23] WAIT_FOR_DIALOG_INTERACTION
     0x0149 [0x02] IF !(Work_Zone[6] == 1*) GOTO 0x0166
     0x0151 [0x45] LOAD_SCHEDULED_TASK: Load scheduler "nak1" with entities [EventEntity, EventEntity], work=[144*, 0*]
     0x0162 [0x48] [System] [7641*]:
    → "Your chocobo seems especially sharp today!\u007F1\u0000\u0007"
     0x0165 [0x23] WAIT_FOR_DIALOG_INTERACTION
     0x0166 [0x02] IF !(Work_Zone[7] == 99*) GOTO 0x0183
     0x016E [0x45] LOAD_SCHEDULED_TASK: Load scheduler "nak2" with entities [EventEntity, EventEntity], work=[144*, 0*]
     0x017F [0x48] [System] [7642*]:
    → "Your chocobo seems especially energetic today!\u007F1\u0000\u0007"
     0x0182 [0x23] WAIT_FOR_DIALOG_INTERACTION
     0x0183 [0x1C] WAIT(1* ticks)
     0x0186 [0x21] END_EVENT
     0x0187 [0x00] END_REQSTACK()
```