# Event 65535

## Metadata

| Field           | Value     |
|-----------------|-----------|
| Event Index     | 9/55      |
| Offset          | 0x0066    |
| Data Size       | 155 bytes |
| Calculated Size | 155 bytes |
| Instructions    | 3         |

```
      00 01 02 03 04 05 06 07  08 09 0A 0B 0C 0D 0E 0F
      -- -- -- -- -- -- -- --  -- -- -- -- -- -- -- --
0060:                   AB 03  AC 01 02 80 00 03 01 00        ..........
0070: 00 00 02 01 00 03 80 05  82 00 08 01 00 00 80 01  ................
0080: 87 00 08 01 00 04 80 14  01 00 05 80 07 01 00 06  ................
0090: 80 1B 03 01 00 00 00 02  01 00 03 80 05 A7 00 08  ................
00A0: 01 00 00 80 01 AC 00 08  01 00 04 80 14 01 00 05  ................
00B0: 80 07 01 00 07 80 1B 03  01 00 00 00 02 01 00 03  ................
00C0: 80 05 CC 00 08 01 00 00  80 01 D1 00 08 01 00 04  ................
00D0: 80 14 01 00 05 80 07 01  00 08 80 1B 03 01 00 00  ................
00E0: 00 02 01 00 03 80 05 F1  00 08 01 00 00 80 01 F6  ................
00F0: 00 08 01 00 04 80 14 01  00 05 80 07 01 00 09 80  ................
0100: 1B                                                .               
```

## Opcodes

```
  0: 0x0066 [0xAB] EventEntity->Render.Flags0 ^= 0x20000 // Toggle bit 17
  1: 0x0068 [0xAC] EventEntity->StatusEvent = 66*
  2: 0x006C [0x00] END_REQSTACK()
```

## Data or dead code:

```
# Dead code (unreachable instructions):
     0x006D [0x03] ExtData[1]->WorkLocal[1] = ExtData[1]->WorkLocal[0]
     0x0072 [0x02] IF !(ExtData[1]->WorkLocal[1] > 5*) GOTO 0x0082
     0x007A [0x08] ExtData[1]->WorkLocal[1] -= 1*
     0x007F [0x01] GOTO 0x0087
     0x0082 [0x08] ExtData[1]->WorkLocal[1] -= 2*
     0x0087 [0x14] ExtData[1]->WorkLocal[1] *= 10*
     0x008C [0x07] ExtData[1]->WorkLocal[1] += 9*
     0x0091 [0x1B] RETURN
     0x0092 [0x03] ExtData[1]->WorkLocal[1] = ExtData[1]->WorkLocal[0]
     0x0097 [0x02] IF !(ExtData[1]->WorkLocal[1] > 5*) GOTO 0x00A7
     0x009F [0x08] ExtData[1]->WorkLocal[1] -= 1*
     0x00A4 [0x01] GOTO 0x00AC
     0x00A7 [0x08] ExtData[1]->WorkLocal[1] -= 2*
     0x00AC [0x14] ExtData[1]->WorkLocal[1] *= 10*
     0x00B1 [0x07] ExtData[1]->WorkLocal[1] += 70*
     0x00B6 [0x1B] RETURN
     0x00B7 [0x03] ExtData[1]->WorkLocal[1] = ExtData[1]->WorkLocal[0]
     0x00BC [0x02] IF !(ExtData[1]->WorkLocal[1] > 5*) GOTO 0x00CC
     0x00C4 [0x08] ExtData[1]->WorkLocal[1] -= 1*
     0x00C9 [0x01] GOTO 0x00D1
     0x00CC [0x08] ExtData[1]->WorkLocal[1] -= 2*
     0x00D1 [0x14] ExtData[1]->WorkLocal[1] *= 10*
     0x00D6 [0x07] ExtData[1]->WorkLocal[1] += 140*
     0x00DB [0x1B] RETURN
     0x00DC [0x03] ExtData[1]->WorkLocal[1] = ExtData[1]->WorkLocal[0]
     0x00E1 [0x02] IF !(ExtData[1]->WorkLocal[1] > 5*) GOTO 0x00F1
     0x00E9 [0x08] ExtData[1]->WorkLocal[1] -= 1*
     0x00EE [0x01] GOTO 0x00F6
     0x00F1 [0x08] ExtData[1]->WorkLocal[1] -= 2*
     0x00F6 [0x14] ExtData[1]->WorkLocal[1] *= 10*
     0x00FB [0x07] ExtData[1]->WorkLocal[1] += 210*
     0x0100 [0x1B] RETURN
```