# Event 65535

## Metadata

| Field           | Value     |
|-----------------|-----------|
| Event Index     | 9/55      |
| Offset          | 0x0066    |
| Data Size       | 155 bytes |
| Calculated Size | 155 bytes |
| Instructions    | 4         |

```
      00 01 02 03 04 05 06 07  08 09 0A 0B 0C 0D 0E 0F
      -- -- -- -- -- -- -- --  -- -- -- -- -- -- -- --
0060:                   AB 03  AC 01 02 80 00 03 01 00        ..........
0070: 00 00 02 01 00 03 80 05  82 00 08 01 00 00 80 01  ................
0080: 87 00 08 01 00 04 80 14  01 00 05 80 07 01 00 06  ................
0090: 80 1B 03 01 00 00 00 02  01 00 03 80 05 A7 00 08  ................
00A0: 01 00 00 80 01 AC 00 08  01 00 04 80 14 01 00 05  ................
00B0: 80 07 01 00 07 80 1B 03  01 00 00 00 02 01 00 03  ................
00C0: 80 05 CC 00 08 01 00 00  80 01 D1 00 08 01 00 04  ................
00D0: 80 14 01 00 05 80 07 01  00 08 80 1B 03 01 00 00  ................
00E0: 00 02 01 00 03 80 05 F1  00 08 01 00 00 80 01 F6  ................
00F0: 00 08 01 00 04 80 14 01  00 05 80 07 01 00 09 80  ................
0100: 1B                                                .               
```

## Opcodes

```
  0: 0x0066 [0xAB] EventEntity->Render.Flags0 ^= 0x20000 // Toggle bit 17
  1: 0x0068 [0xAC] EventEntity->StatusEvent = 66*
  2: 0x006C [0x00] END_REQSTACK()
```

## Data or dead code:

```
# Data Section: 0x006D (148 bytes)
     0x006D: 03 01 00 00 00 02 01 00 03 80 05 82 00 08 01 00
     0x007D: 00 80 01 87 00 08 01 00 04 80 14 01 00 05 80 07
     0x008D: 01 00 06 80 1B 03 01 00 00 00 02 01 00 03 80 05
     0x009D: A7 00 08 01 00 00 80 01 AC 00 08 01 00 04 80 14
     0x00AD: 01 00 05 80 07 01 00 07 80 1B 03 01 00 00 00 02
     0x00BD: 01 00 03 80 05 CC 00 08 01 00 00 80 01 D1 00 08
     0x00CD: 01 00 04 80 14 01 00 05 80 07 01 00 08 80 1B 03
     0x00DD: 01 00 00 00 02 01 00 03 80 05 F1 00 08 01 00 00
     0x00ED: 80 01 F6 00 08 01 00 04 80 14 01 00 05 80 07 01
     0x00FD: 00 09 80 1B
```