# Event 65535

## Metadata

| Field           | Value    |
|-----------------|----------|
| Event Index     | 48/69    |
| Offset          | 0x031F   |
| Data Size       | 24 bytes |
| Calculated Size | 24 bytes |
| Instructions    | 8        |

```
      00 01 02 03 04 05 06 07  08 09 0A 0B 0C 0D 0E 0F
      -- -- -- -- -- -- -- --  -- -- -- -- -- -- -- --
0310:                                               1D                 .
0320: 2C 80 23 4A 0A E0 0E 01  F0 FF FF 7F 6F 76 F8 FF  ,.#J........ov..
0330: FF 7F 1D 2D 80 23 00                              ...-.#.         
```

## Opcodes

```
  0: 0x031F [0x1D] PRINT_EVENT_MESSAGE(message_id=8689*)
    → "The hatter! Lately he's been calling out to my students, telling them that he'll give them some pocket money if they help him show off his wares.\u007F1\u0000\u0007"
  1: 0x0322 [0x23] WAIT_FOR_DIALOG_INTERACTION
  2: 0x0323 [0x4A] Ajido-Marujido (ID: 17752074/0x010EE00A) looks at LocalPlayer
  3: 0x032C [0x6F] WAIT_FRAME_DELAY: Yield until WaitTime reaches zero
  4: 0x032D [0x76] CHECK_ENTITY_RENDER_FLAGS: Wait until EventEntity Render.Flags0 and Render.Flags3 conditions are met
  5: 0x0332 [0x1D] PRINT_EVENT_MESSAGE(message_id=8690*)
    → "I'd say that the shape of your head isn't too displeasing, so you might be able to earn some money...\u007F1\u0000\u0007"
  6: 0x0335 [0x23] WAIT_FOR_DIALOG_INTERACTION
  7: 0x0336 [0x00] END_REQSTACK()
```
