# Event 65535

## Metadata

| Field           | Value    |
|-----------------|----------|
| Event Index     | 28/69    |
| Offset          | 0x0192   |
| Data Size       | 51 bytes |
| Calculated Size | 51 bytes |
| Instructions    | 13       |

```
      00 01 02 03 04 05 06 07  08 09 0A 0B 0C 0D 0E 0F
      -- -- -- -- -- -- -- --  -- -- -- -- -- -- -- --
0190:       1C 0C 80 4A 0A E0  0E 01 F0 FF FF 7F 6F 76    ...J........ov
01A0: F8 FF FF 7F 1C 0D 80 32  0E 80 1F 00 0F 80 10 80  .......2........
01B0: 07 80 1F 01 6F 4A 0A E0  0E 01 F0 FF FF 7F 6F 76  ....oJ........ov
01C0: F8 FF FF 7F 00                                    .....           
```

## Opcodes

```
  0: 0x0192 [0x1C] WAIT(10* ticks)
  1: 0x0195 [0x4A] Ajido-Marujido (ID: 17752074/0x010EE00A) looks at LocalPlayer
  2: 0x019E [0x6F] WAIT_FRAME_DELAY: Yield until WaitTime reaches zero
  3: 0x019F [0x76] CHECK_ENTITY_RENDER_FLAGS: Wait until EventEntity Render.Flags0 and Render.Flags3 conditions are met
  4: 0x01A4 [0x1C] WAIT(60* ticks)
  5: 0x01A7 [0x32] ExtData[1]->MainSpeed = 13* * 0.1
  6: 0x01AA [0x1F] MOVE_ENTITY: EventEntity moves to X=-42.486*, Z=86.018*, Y=-4.999*
  7: 0x01B2 [0x1F] MOVE_ENTITY: Update entity position (mode=1)
  8: 0x01B4 [0x6F] WAIT_FRAME_DELAY: Yield until WaitTime reaches zero
  9: 0x01B5 [0x4A] Ajido-Marujido (ID: 17752074/0x010EE00A) looks at LocalPlayer
 10: 0x01BE [0x6F] WAIT_FRAME_DELAY: Yield until WaitTime reaches zero
 11: 0x01BF [0x76] CHECK_ENTITY_RENDER_FLAGS: Wait until EventEntity Render.Flags0 and Render.Flags3 conditions are met
 12: 0x01C4 [0x00] END_REQSTACK()
```
