# Event 25

## Metadata

| Field           | Value    |
|-----------------|----------|
| Event Index     | 5/5      |
| Offset          | 0x11FB   |
| Data Size       | 43 bytes |
| Calculated Size | 43 bytes |
| Instructions    | 13       |

```
      00 01 02 03 04 05 06 07  08 09 0A 0B 0C 0D 0E 0F
      -- -- -- -- -- -- -- --  -- -- -- -- -- -- -- --
11F0:                                   03 00 00 02 10             .....
1200: 42 1E F0 FF FF 7F 03 03  10 00 00 1D 6E 80 23 6E  B...........n.#n
1210: F8 FF FF 7F 2C 80 99 F8  FF FF 7F 99 F8 FF FF 7F  ....,...........
1220: 1D 2D 80 23 21 00                                 .-.#!.          
```

## Opcodes

```
  0: 0x11FB [0x03] ExtData[1]->WorkLocal[0] = Work_Zone[2]
  1: 0x1200 [0x42] SET_CLI_EVENT_CANCEL_DATA()
  2: 0x1201 [0x1E] EventEntity looks at LocalPlayer and starts talking
  3: 0x1206 [0x03] Work_Zone[3] = ExtData[1]->WorkLocal[0]
  4: 0x120B [0x1D] PRINT_EVENT_MESSAGE(message_id=11693*)
    → "Excellent.\u007F1\u0000\u0007"
  5: 0x120E [0x23] WAIT_FOR_DIALOG_INTERACTION
  6: 0x120F [0x6E] EventEntity uses emote 10*
  7: 0x1216 [0x99] Wait for EventEntity animation to complete
  8: 0x121B [0x99] Wait for EventEntity animation to complete
  9: 0x1220 [0x1D] PRINT_EVENT_MESSAGE(message_id=11692*)
    → "Accept your prize, fine adventurer.\u007F1\u0000\u0007"
 10: 0x1223 [0x23] WAIT_FOR_DIALOG_INTERACTION
 11: 0x1224 [0x21] END_EVENT
 12: 0x1225 [0x00] END_REQSTACK()
```
