# Event 65535

## Metadata

| Field           | Value    |
|-----------------|----------|
| Event Index     | 4/16     |
| Offset          | 0x000E   |
| Data Size       | 48 bytes |
| Calculated Size | 48 bytes |
| Instructions    | 10       |

```
      00 01 02 03 04 05 06 07  08 09 0A 0B 0C 0D 0E 0F
      -- -- -- -- -- -- -- --  -- -- -- -- -- -- -- --
0000:                                            37 02                7.
0010: 80 03 80 04 80 05 80 2F  00 2E E1 01 01 6C 2E E1  ......./.....l..
0020: 01 01 06 80 01 80 4E 00  2E E1 01 01 A5 01 61 00  ......N.......a.
0030: 32 07 80 1F 00 08 80 09  80 0A 80 1F 01 00        2.............  
```

## Opcodes

```
  0: 0x000E [0x37] UPDATE_EVENT_POSITION_AND_DIR: x=-737.448*, z=-300.905*, y=-44.000*, direction=64.9°*
  1: 0x0017 [0x2F] ??? (ID: 16900398/0x0101E12E)->Render.Flags0 &= ~0x80000 // Bit 19
  2: 0x001D [0x6C] FADE_ENTITY_COLOR(entity_id=??? (ID: 16900398/0x0101E12E), end_alpha=20*, fade_time=60*)
  3: 0x0026 [0x4E] SET_ENTITY_HIDE_FLAG: Show ??? (ID: 16900398/0x0101E12E)
  4: 0x002C [0xA5] EventEntity->Flags3.BallistaTeam |= 0x08  // Set bit 3 of BallistaTeam
  5: 0x002E [0x61] EventEntity->Render.Flags2 &= ~0x00000001
  6: 0x0030 [0x32] ExtData[1]->MainSpeed = 13* * 0.1
  7: 0x0033 [0x1F] MOVE_ENTITY: EventEntity moves to X=-735.389*, Z=-305.106*, Y=-43.800*
  8: 0x003B [0x1F] MOVE_ENTITY: Update entity position (mode=1)
  9: 0x003D [0x00] END_REQSTACK()
```
