# Event 65535

## Metadata

| Field           | Value    |
|-----------------|----------|
| Event Index     | 13/16    |
| Offset          | 0x009C   |
| Data Size       | 48 bytes |
| Calculated Size | 48 bytes |
| Instructions    | 10       |

```
      00 01 02 03 04 05 06 07  08 09 0A 0B 0C 0D 0E 0F
      -- -- -- -- -- -- -- --  -- -- -- -- -- -- -- --
0090:                                      37 19 80 1A              7...
00A0: 80 12 80 1B 80 2F 00 2E  E1 01 01 4E 00 2E E1 01  ...../.....N....
00B0: 01 6C 2E E1 01 01 1C 80  01 80 A5 01 61 00 32 07  .l..........a.2.
00C0: 80 1F 00 1D 80 1E 80 0D  80 1F 01 00              ............    
```

## Opcodes

```
  0: 0x009C [0x37] UPDATE_EVENT_POSITION_AND_DIR: x=-725.463*, z=-306.007*, y=-43.199*, direction=194.4°*
  1: 0x00A5 [0x2F] ??? (ID: 16900398/0x0101E12E)->Render.Flags0 &= ~0x80000 // Bit 19
  2: 0x00AB [0x4E] SET_ENTITY_HIDE_FLAG: Show ??? (ID: 16900398/0x0101E12E)
  3: 0x00B1 [0x6C] FADE_ENTITY_COLOR(entity_id=??? (ID: 16900398/0x0101E12E), end_alpha=40*, fade_time=60*)
  4: 0x00BA [0xA5] EventEntity->Flags3.BallistaTeam |= 0x08  // Set bit 3 of BallistaTeam
  5: 0x00BC [0x61] EventEntity->Render.Flags2 &= ~0x00000001
  6: 0x00BE [0x32] ExtData[1]->MainSpeed = 13* * 0.1
  7: 0x00C1 [0x1F] MOVE_ENTITY: EventEntity moves to X=-730.006*, Z=-305.385*, Y=-43.601*
  8: 0x00C9 [0x1F] MOVE_ENTITY: Update entity position (mode=1)
  9: 0x00CB [0x00] END_REQSTACK()
```
