# Event 65535

## Metadata

| Field           | Value    |
|-----------------|----------|
| Event Index     | 15/16    |
| Offset          | 0x00DA   |
| Data Size       | 48 bytes |
| Calculated Size | 48 bytes |
| Instructions    | 10       |

```
      00 01 02 03 04 05 06 07  08 09 0A 0B 0C 0D 0E 0F
      -- -- -- -- -- -- -- --  -- -- -- -- -- -- -- --
00D0:                                37 22 80 23 80 0A            7".#..
00E0: 80 24 80 2F 00 2E E1 01  01 4E 00 2E E1 01 01 6C  .$./.....N.....l
00F0: 2E E1 01 01 25 80 26 80  A5 01 61 00 32 07 80 1F  ....%.&...a.2...
0100: 00 27 80 28 80 0A 80 1F  01 00                    .'.(......      
```

## Opcodes

```
  0: 0x00DA [0x37] UPDATE_EVENT_POSITION_AND_DIR: x=-745.195*, z=-307.818*, y=-43.800*, direction=188.3°*
  1: 0x00E3 [0x2F] ??? (ID: 16900398/0x0101E12E)->Render.Flags0 &= ~0x80000 // Bit 19
  2: 0x00E9 [0x4E] SET_ENTITY_HIDE_FLAG: Show ??? (ID: 16900398/0x0101E12E)
  3: 0x00EF [0x6C] FADE_ENTITY_COLOR(entity_id=??? (ID: 16900398/0x0101E12E), end_alpha=70*, fade_time=120*)
  4: 0x00F8 [0xA5] EventEntity->Flags3.BallistaTeam |= 0x08  // Set bit 3 of BallistaTeam
  5: 0x00FA [0x61] EventEntity->Render.Flags2 &= ~0x00000001
  6: 0x00FC [0x32] ExtData[1]->MainSpeed = 13* * 0.1
  7: 0x00FF [0x1F] MOVE_ENTITY: EventEntity moves to X=-739.478*, Z=-307.895*, Y=-43.800*
  8: 0x0107 [0x1F] MOVE_ENTITY: Update entity position (mode=1)
  9: 0x0109 [0x00] END_REQSTACK()
```
