# Event 65535

## Metadata

| Field           | Value    |
|-----------------|----------|
| Event Index     | 99/100   |
| Offset          | 0x0624   |
| Data Size       | 66 bytes |
| Calculated Size | 66 bytes |
| Instructions    | 12       |

```
      00 01 02 03 04 05 06 07  08 09 0A 0B 0C 0D 0E 0F
      -- -- -- -- -- -- -- --  -- -- -- -- -- -- -- --
0620:             32 30 80 1F  00 31 80 32 80 33 80 1F      20...1.2.3..
0630: 01 1C 34 80 4A F8 FF FF  7F 5D 72 10 01 6F 76 F8  ..4.J....]r..ov.
0640: FF FF 7F 1C 34 80 66 11  80 F8 FF FF 7F F8 FF FF  ....4.f.........
0650: 7F 73 68 61 30 53 F8 FF  FF 7F F8 FF FF 7F 73 68  .sha0S........sh
0660: 61 30 1C 34 80 00                                 a0.4..          
```

## Opcodes

```
  0: 0x0624 [0x32] ExtData[1]->MainSpeed = 40* * 0.1
  1: 0x0627 [0x1F] MOVE_ENTITY: EventEntity moves to X=-155.347*, Z=438.891*, Y=0.031*
  2: 0x062F [0x1F] MOVE_ENTITY: Update entity position (mode=1)
  3: 0x0631 [0x1C] WAIT(10* ticks)
  4: 0x0634 [0x4A] EventEntity looks at Unnamed NPC (ID: 17855069/0x0110725D)
  5: 0x063D [0x6F] WAIT_FRAME_DELAY: Yield until WaitTime reaches zero
  6: 0x063E [0x76] CHECK_ENTITY_RENDER_FLAGS: Wait until EventEntity Render.Flags0 and Render.Flags3 conditions are met
  7: 0x0643 [0x1C] WAIT(10* ticks)
  8: 0x0646 [0x66] LOAD_EXT_SCHEDULER_MAIN(work_offset=29*, entity1=EventEntity, entity2=EventEntity, action="sha0")
  9: 0x0655 [0x53] WAIT_SCHEDULER_TASK(entity1=EventEntity, entity2=EventEntity, action_id="sha0")
 10: 0x0662 [0x1C] WAIT(10* ticks)
 11: 0x0665 [0x00] END_REQSTACK()
```
