# Event 324

## Metadata

| Field           | Value    |
|-----------------|----------|
| Event Index     | 13/13    |
| Offset          | 0x0075   |
| Data Size       | 53 bytes |
| Calculated Size | 53 bytes |
| Instructions    | 9        |

```
      00 01 02 03 04 05 06 07  08 09 0A 0B 0C 0D 0E 0F
      -- -- -- -- -- -- -- --  -- -- -- -- -- -- -- --
0070:                66 19 80  F8 FF FF 7F F8 FF FF 7F       f..........
0080: 74 68 6B 31 1D 1A 80 23  1D 1B 80 23 66 19 80 F8  thk1...#...#f...
0090: FF FF 7F F8 FF FF 7F 74  68 6B 32 53 F8 FF FF 7F  .......thk2S....
00A0: F8 FF FF 7F 74 68 6B 32  21 00                    ....thk2!.      
```

## Opcodes

```
  0: 0x0075 [0x66] LOAD_EXT_SCHEDULER_MAIN(work_offset=0*, entity1=EventEntity, entity2=EventEntity, action="thk1")
  1: 0x0084 [0x1D] PRINT_EVENT_MESSAGE(message_id=9179*)
    → "Unbelievable. There's no way an old sea dog like Chieka would waste her time with empty cargo.\u007F1\u0000\u0007"
  2: 0x0087 [0x23] WAIT_FOR_DIALOG_INTERACTION
  3: 0x0088 [0x1D] PRINT_EVENT_MESSAGE(message_id=9180*)
    → "Where could the box have been emptied?\u0007Things just aren't going my way today...\u007F1\u0000\u0007"
  4: 0x008B [0x23] WAIT_FOR_DIALOG_INTERACTION
  5: 0x008C [0x66] LOAD_EXT_SCHEDULER_MAIN(work_offset=0*, entity1=EventEntity, entity2=EventEntity, action="thk2")
  6: 0x009B [0x53] WAIT_SCHEDULER_TASK(entity1=EventEntity, entity2=EventEntity, action_id="thk2")
  7: 0x00A8 [0x21] END_EVENT
  8: 0x00A9 [0x00] END_REQSTACK()
```
