# Event 901

## Metadata

| Field           | Value     |
|-----------------|-----------|
| Event Index     | 13/13     |
| Offset          | 0x14B2    |
| Data Size       | 135 bytes |
| Calculated Size | 135 bytes |
| Instructions    | 10        |

```
      00 01 02 03 04 05 06 07  08 09 0A 0B 0C 0D 0E 0F
      -- -- -- -- -- -- -- --  -- -- -- -- -- -- -- --
14B0:       42 5D 02 80 73 80  02 05 10 02 80 00 C9 14    B]..s.........
14C0: A8 00 04 10 05 80 1C 21  80 89 04 10 8B 04 10 05  .......!........
14D0: 10 02 10 03 10 3F 3F 3F  00 00 00 00 00 00 00 00  .....???........
14E0: 00 00 00 00 00 45 93 80  F8 FF FF 7F F8 FF FF 7F  .....E..........
14F0: 63 68 63 6F 02 80 48 A0  80 23 02 06 10 05 80 00  chco..H..#......
1500: 17 15 45 A1 80 F8 FF FF  7F F8 FF FF 7F 6E 61 6B  ..E..........nak
1510: 31 02 80 48 A2 80 23 02  07 10 A3 80 00 34 15 45  1..H..#......4.E
1520: A1 80 F8 FF FF 7F F8 FF  FF 7F 6E 61 6B 32 02 80  ..........nak2..
1530: 48 A4 80 23 1C 05 80 21  00                       H..#...!.       
```

## Opcodes

```
  0: 0x14B2 [0x42] SET_CLI_EVENT_CANCEL_DATA()
  1: 0x14B3 [0x5D] SET_MUSIC_VOLUME(volume=0*, fade_time=60*)
  2: 0x14B8 [0x02] IF !(Work_Zone[5] == 0*) GOTO 0x14C9
  3: 0x14C0 [0xA8] MAP_MARKER_CONTROL: Reset/unlock markers (no map display), zone=Work_Zone[4], marker=1*
  4: 0x14C6 [0x1C] WAIT(15* ticks)
  5: 0x14C9 [0x89] OPEN_MAP(map_id=0x00001004)
  6: 0x14CC [0x8B] SET_EVENT_MARK: Add/update map marker on map Work_Zone[4] at (4.1, 4.1), index=Work_Zone[5], name=(no name)
  7: 0x14D5 [0x3F] 0x3F3F = ExtData[1]->WorkLocal[0] % ExtData[1]->WorkLocal[0]
  8: 0x14DC [0x00] END_REQSTACK()
```

## Data or dead code:

```
# Data Section: 0x14DD (92 bytes)
     0x14DD: 00 00 00 00 00 00 00 00 45 93 80 F8 FF FF 7F F8
     0x14ED: FF FF 7F 63 68 63 6F 02 80 48 A0 80 23 02 06 10
     0x14FD: 05 80 00 17 15 45 A1 80 F8 FF FF 7F F8 FF FF 7F
     0x150D: 6E 61 6B 31 02 80 48 A2 80 23 02 07 10 A3 80 00
     0x151D: 34 15 45 A1 80 F8 FF FF 7F F8 FF FF 7F 6E 61 6B
     0x152D: 32 02 80 48 A4 80 23 1C 05 80 21 00
```