# Event 65535

## Metadata

| Field           | Value    |
|-----------------|----------|
| Event Index     | 11/16    |
| Offset          | 0x0045   |
| Data Size       | 55 bytes |
| Calculated Size | 55 bytes |
| Instructions    | 7        |

```
      00 01 02 03 04 05 06 07  08 09 0A 0B 0C 0D 0E 0F
      -- -- -- -- -- -- -- --  -- -- -- -- -- -- -- --
0040:                6C B9 92  08 01 00 80 01 80 6C BA       l........l.
0050: 92 08 01 00 80 01 80 6C  BB 92 08 01 00 80 01 80  .......l........
0060: 6C BC 92 08 01 00 80 01  80 6C BD 92 08 01 00 80  l........l......
0070: 01 80 6C BE 92 08 01 00  80 01 80 00              ..l.........    
```

## Opcodes

```
  0: 0x0045 [0x6C] FADE_ENTITY_COLOR(entity_id=onoA (ID: 17339065/0x010892B9), end_alpha=0*, fade_time=1*)
  1: 0x004E [0x6C] FADE_ENTITY_COLOR(entity_id=Gorakbok (ID: 17339066/0x010892BA), end_alpha=0*, fade_time=1*)
  2: 0x0057 [0x6C] FADE_ENTITY_COLOR(entity_id=Voshekglok (ID: 17339067/0x010892BB), end_alpha=0*, fade_time=1*)
  3: 0x0060 [0x6C] FADE_ENTITY_COLOR(entity_id=tueA (ID: 17339068/0x010892BC), end_alpha=0*, fade_time=1*)
  4: 0x0069 [0x6C] FADE_ENTITY_COLOR(entity_id=tueB (ID: 17339069/0x010892BD), end_alpha=0*, fade_time=1*)
  5: 0x0072 [0x6C] FADE_ENTITY_COLOR(entity_id=tueC (ID: 17339070/0x010892BE), end_alpha=0*, fade_time=1*)
  6: 0x007B [0x00] END_REQSTACK()
```
