# 17093427 - START

## Common Data

| Field            | Value               |
|------------------|---------------------|
| Zone             | Nyzul Isle (ID: 77) |
| Block Size       | 160 bytes           |
| Total Events     | 2                   |
| References Count | 9                   |

## List of Events

| Event ID              | Entrypoint   |   Size |   Instructions |
|-----------------------|--------------|--------|----------------|
| [65535](#event-65535) | 0x0000       |      1 |              1 |
| [101](#event-101)     | 0x0001       |     99 |             21 |

## DAT References (imed_data)

|   Index | Hex Value   |   Dec Value |
|---------|-------------|-------------|
|       0 | 0x1C42      |        7234 |
|       1 | 0x0001      |           1 |
|       2 | 0x0000      |           0 |
|       3 | 0x00CB      |         203 |
|       4 | 0x0168      |         360 |
|       5 | 0xFFF8C886  |  4294494342 |
|       6 | 0x66883     |      419971 |
|       7 | 0xFFFFF093  |  4294963347 |
|       8 | 0x0800      |        2048 |

## String References

- **7234**: Use the device? [Yes./No.]

## Events

### Event 65535

#### Metadata

| Field        | Value   |
|--------------|---------|
| Entrypoint   | 0x0000  |
| Data Size    | 1 bytes |
| Instructions | 1       |

```
      00 01 02 03 04 05 06 07  08 09 0A 0B 0C 0D 0E 0F
      -- -- -- -- -- -- -- --  -- -- -- -- -- -- -- --
0000: 00                                                .               
```

#### Opcodes

```
  0: 0x0000 [0x00] END_REQSTACK()
```

### Event 101

#### Metadata

| Field        | Value    |
|--------------|----------|
| Entrypoint   | 0x0001   |
| Data Size    | 99 bytes |
| Instructions | 21       |

```
      00 01 02 03 04 05 06 07  08 09 0A 0B 0C 0D 0E 0F
      -- -- -- -- -- -- -- --  -- -- -- -- -- -- -- --
0000:    20 01 24 00 80 01 80  02 80 25 02 00 10 02 80    .$......%.....
0010: 00 55 00 42 43 00 43 01  03 01 10 01 80 9F 03 80  .U.BC.C.........
0020: F8 FF FF 7F F8 FF FF 7F  31 35 30 37 02 80 1C 04  ........1507....
0030: 80 29 01 F0 FF FF 7F 08  47 00 05 80 06 80 07 80  .)......G.......
0040: 08 80 47 01 29 01 30 D3  04 01 01 29 01 F0 FF FF  ..G.).0....)....
0050: 7F 09 01 60 00 02 00 10  01 80 00 60 00 01 60 00  ...`.......`..`.
0060: 20 00 21 00                                        .!.            
```

#### Opcodes

```
  0: 0x0001 [0x20] SET_CLI_EVENT_UC_FLAG: Lock player control
  1: 0x0003 [0x24] CREATE_DIALOG(message_id=7234*, default_option=1*, option_flags=0*)
    → "Use the device? [Yes./No.]"
  2: 0x000A [0x25] WAIT_DIALOG_SELECT()
  3: 0x000B [0x02] IF !(Work_Zone[0] == 0*) GOTO 0x0055
  4: 0x0013 [0x42] SET_CLI_EVENT_CANCEL_DATA()
  5: 0x0014 [0x43] SEND_EVENT_UPDATE: Send pending tag to server (packet 0x005B)
  6: 0x0016 [0x43] SEND_EVENT_UPDATE: Check pending flag (skip if not pending)
  7: 0x0018 [0x03] Work_Zone[1] = 1*
  8: 0x001D [0x9F] LOAD_SCHEDULED_TASK_ALT: Load scheduler "1507" with entities [EventEntity, EventEntity], work=[203*, 0*]
  9: 0x002E [0x1C] WAIT(360* ticks)
 10: 0x0031 [0x29] REQ_SET_WAIT(priority=0x01, entity_id=LocalPlayer, tag_num=0x08)
 11: 0x0038 [0x47] UPDATE_PLAYER_POS(-472.954*, 419.971*, -3.949*, yaw=180.0°*)
 12: 0x0042 [0x47] WAIT_PLAYER_POS_UPDATE
 13: 0x0044 [0x29] REQ_SET_WAIT(priority=0x01, entity_id=Weather (ID: 17093424/0x0104D330), tag_num=0x01)
 14: 0x004B [0x29] REQ_SET_WAIT(priority=0x01, entity_id=LocalPlayer, tag_num=0x09)
 15: 0x0052 [0x01] GOTO 0x0060
 16: 0x0055 [0x02] IF !(Work_Zone[0] == 1*) GOTO 0x0060
 17: 0x005D [0x01] GOTO 0x0060

SUBROUTINE_0060:
 18: 0x0060 [0x20] SET_CLI_EVENT_UC_FLAG: Unlock player control
 19: 0x0062 [0x21] END_EVENT
 20: 0x0063 [0x00] END_REQSTACK()
```
