# 17093474

## Common Data

| Field            | Value               |
|------------------|---------------------|
| Zone             | Nyzul Isle (ID: 77) |
| Block Size       | 220 bytes           |
| Total Events     | 5                   |
| References Count | 9                   |

## List of Events

| Event ID                 | Entrypoint   |   Size |   Instructions |
|--------------------------|--------------|--------|----------------|
| [65535](#event-65535)    | 0x0000       |      1 |              1 |
| [203](#event-203)        | 0x0001       |      1 |              1 |
| [65535.1](#event-655351) | 0x0002       |     10 |              2 |
| [65535.2](#event-655352) | 0x000C       |     10 |              2 |
| [65535.3](#event-655353) | 0x0016       |    124 |             12 |

## DAT References (imed_data)

|   Index | Hex Value   |   Dec Value |
|---------|-------------|-------------|
|       0 | 0x0080      |         128 |
|       1 | 0x000F      |          15 |
|       2 | 0x0000      |           0 |
|       3 | 0x0064      |         100 |
|       4 | 0x0140      |         320 |
|       5 | 0x005A      |          90 |
|       6 | 0x006E      |         110 |
|       7 | 0x0496      |        1174 |
|       8 | 0x0078      |         120 |

## Events

### Event 65535

#### Metadata

| Field        | Value   |
|--------------|---------|
| Entrypoint   | 0x0000  |
| Data Size    | 1 bytes |
| Instructions | 1       |

```
      00 01 02 03 04 05 06 07  08 09 0A 0B 0C 0D 0E 0F
      -- -- -- -- -- -- -- --  -- -- -- -- -- -- -- --
0000: 00                                                .               
```

#### Opcodes

```
  0: 0x0000 [0x00] END_REQSTACK()
```

### Event 203

#### Metadata

| Field        | Value   |
|--------------|---------|
| Entrypoint   | 0x0001  |
| Data Size    | 1 bytes |
| Instructions | 1       |

```
      00 01 02 03 04 05 06 07  08 09 0A 0B 0C 0D 0E 0F
      -- -- -- -- -- -- -- --  -- -- -- -- -- -- -- --
0000:    00                                              .              
```

#### Opcodes

```
  0: 0x0001 [0x00] END_REQSTACK()
```

### Event 65535.1

#### Metadata

| Field        | Value    |
|--------------|----------|
| Entrypoint   | 0x0002   |
| Data Size    | 10 bytes |
| Instructions | 2        |

```
      00 01 02 03 04 05 06 07  08 09 0A 0B 0C 0D 0E 0F
      -- -- -- -- -- -- -- --  -- -- -- -- -- -- -- --
0000:       6C 65 D3 04 01 00  80 01 80 00                le........    
```

#### Opcodes

```
  0: 0x0002 [0x6C] FADE_ENTITY_COLOR(entity_id=Nashmeira (ID: 17093477/0x0104D365), end_alpha=128*, fade_time=15*)
  1: 0x000B [0x00] END_REQSTACK()
```

### Event 65535.2

#### Metadata

| Field        | Value    |
|--------------|----------|
| Entrypoint   | 0x000C   |
| Data Size    | 10 bytes |
| Instructions | 2        |

```
      00 01 02 03 04 05 06 07  08 09 0A 0B 0C 0D 0E 0F
      -- -- -- -- -- -- -- --  -- -- -- -- -- -- -- --
0000:                                      6C 65 D3 04              le..
0010: 01 02 80 01 80 00                                 ......          
```

#### Opcodes

```
  0: 0x000C [0x6C] FADE_ENTITY_COLOR(entity_id=Nashmeira (ID: 17093477/0x0104D365), end_alpha=0*, fade_time=15*)
  1: 0x0015 [0x00] END_REQSTACK()
```

### Event 65535.3

#### Metadata

| Field        | Value     |
|--------------|-----------|
| Entrypoint   | 0x0016    |
| Data Size    | 124 bytes |
| Instructions | 12        |

```
      00 01 02 03 04 05 06 07  08 09 0A 0B 0C 0D 0E 0F
      -- -- -- -- -- -- -- --  -- -- -- -- -- -- -- --
0010:                   1C 03  80 52 04 80 F0 FF FF 7F        ...R......
0020: F0 FF FF 7F 30 64 61 33  45 04 80 F0 FF FF 7F F0  ....0da3E.......
0030: FF FF 7F 62 32 30 33 02  80 1C 05 80 52 04 80 F0  ...b203.....R...
0040: FF FF 7F F0 FF FF 7F 62  32 30 33 45 04 80 F0 FF  .......b203E....
0050: FF 7F F0 FF FF 7F 62 32  30 31 02 80 1C 06 80 52  ......b201.....R
0060: 04 80 F0 FF FF 7F F0 FF  FF 7F 62 32 30 31 45 04  ..........b201E.
0070: 80 F0 FF FF 7F F0 FF FF  7F 62 32 30 30 02 80 5B  .........b200..[
0080: 07 80 69 D3 04 01 69 D3  04 01 70 61 6E 34 1C 08  ..i...i...pan4..
0090: 80 00                                             ..              
```

#### Opcodes

```
  0: 0x0016 [0x1C] WAIT(100* ticks)
  1: 0x0019 [0x52] END_LOAD_SCHEDULER: End scheduler "0da3" with entities [LocalPlayer, LocalPlayer], work=320*
  2: 0x0028 [0x45] LOAD_SCHEDULED_TASK: Load scheduler "b203" with entities [LocalPlayer, LocalPlayer], work=[320*, 0*]
  3: 0x0039 [0x1C] WAIT(90* ticks)
  4: 0x003C [0x52] END_LOAD_SCHEDULER: End scheduler "b203" with entities [LocalPlayer, LocalPlayer], work=320*
  5: 0x004B [0x45] LOAD_SCHEDULED_TASK: Load scheduler "b201" with entities [LocalPlayer, LocalPlayer], work=[320*, 0*]
  6: 0x005C [0x1C] WAIT(110* ticks)
  7: 0x005F [0x52] END_LOAD_SCHEDULER: End scheduler "b201" with entities [LocalPlayer, LocalPlayer], work=320*
  8: 0x006E [0x45] LOAD_SCHEDULED_TASK: Load scheduler "b200" with entities [LocalPlayer, LocalPlayer], work=[320*, 0*]
  9: 0x007F [0x5B] LOAD_EXT_SCHEDULER: Load scheduler "pan4" with entities [Ghatsad (ID: 17093481/0x0104D369), Ghatsad (ID: 17093481/0x0104D369)], work=1174*
 10: 0x008E [0x1C] WAIT(120* ticks)
 11: 0x0091 [0x00] END_REQSTACK()
```
