# 17723409 - Abioleget

## Common Data

| Field            | Value                         |
|------------------|-------------------------------|
| Zone             | Northern San d'Oria (ID: 231) |
| Block Size       | 1352 bytes                    |
| Total Events     | 16                            |
| References Count | 52                            |

## List of Events

| Event ID                 | Entrypoint   |   Size |   Instructions |
|--------------------------|--------------|--------|----------------|
| [65535](#event-65535)    | 0x0000       |      1 |              1 |
| [869](#event-869)        | 0x0001       |      1 |              1 |
| [871](#event-871)        | 0x0002       |      1 |              1 |
| [65535.1](#event-655351) | 0x0003       |     14 |              4 |
| [51](#event-51)          | 0x0011       |      1 |              1 |
| [65535.2](#event-655352) | 0x0012       |     36 |              6 |
| [65535.3](#event-655353) | 0x0036       |     14 |              4 |
| [1](#event-1)            | 0x0044       |     16 |              3 |
| [65535.4](#event-655354) | 0x0054       |     28 |              8 |
| [589](#event-589)        | 0x0070       |    643 |            104 |
| [591](#event-591)        | 0x02F3       |    139 |             25 |
| [600](#event-600)        | 0x037E       |    147 |             23 |
| [49](#event-49)          | 0x0411       |      3 |              2 |
| [693](#event-693)        | 0x0414       |      1 |              1 |
| [639](#event-639)        | 0x0415       |      1 |              1 |
| [16](#event-16)          | 0x0416       |     18 |              4 |

## DAT References (imed_data)

|   Index | Hex Value   |   Dec Value |
|---------|-------------|-------------|
|       0 | 0x0008      |           8 |
|       1 | 0x1F48F     |      128143 |
|       2 | 0x1C6DE     |      116446 |
|       3 | 0x0000      |           0 |
|       4 | 0x000D      |          13 |
|       5 | 0x250FD     |      151805 |
|       6 | 0x231CE     |      143822 |
|       7 | 0xFFFFFDA7  |  4294966695 |
|       8 | 0x23B76     |      146294 |
|       9 | 0x20AE8     |      133864 |
|      10 | 0x0A22      |        2594 |
|      11 | 0x247FF     |      149503 |
|      12 | 0x20185     |      131461 |
|      13 | 0x24DD3     |      150995 |
|      14 | 0x20846     |      133190 |
|      15 | 0x0775      |        1909 |
|      16 | 0x00C8      |         200 |
|      17 | 0x0003      |           3 |
|      18 | 0x0083      |         131 |
|      19 | 0x0014      |          20 |
|      20 | 0x2BF8      |       11256 |
|      21 | 0x001E      |          30 |
|      22 | 0x000F      |          15 |
|      23 | 0x002D      |          45 |
|      24 | 0x003C      |          60 |
|      25 | 0x2BF9      |       11257 |
|      26 | 0x2BFA      |       11258 |
|      27 | 0x2C03      |       11267 |
|      28 | 0x0015      |          21 |
|      29 | 0x2C04      |       11268 |
|      30 | 0x2C05      |       11269 |
|      31 | 0x2C06      |       11270 |
|      32 | 0x2C07      |       11271 |
|      33 | 0x2C08      |       11272 |
|      34 | 0x2C09      |       11273 |
|      35 | 0x2C0A      |       11274 |
|      36 | 0x2C0B      |       11275 |
|      37 | 0x026A      |         618 |
|      38 | 0x2C0C      |       11276 |
|      39 | 0x2C0D      |       11277 |
|      40 | 0x2C0E      |       11278 |
|      41 | 0x2C0F      |       11279 |
|      42 | 0x2C10      |       11280 |
|      43 | 0x2BBA      |       11194 |
|      44 | 0x2C12      |       11282 |
|      45 | 0x2C13      |       11283 |
|      46 | 0x2C14      |       11284 |
|      47 | 0x2C15      |       11285 |
|      48 | 0x00C9      |         201 |
|      49 | 0x1C304     |      115460 |
|      50 | 0x1B7C5     |      112581 |
|      51 | 0x01FC      |         508 |

## String References

- **11194**: May Paradise open its gates to you.
- **11256**: Have you come to hear the sermon? Good, the vicasque will begin soon.
- **11257**: Believers, today's sermon will now begin.
- **11258**: Kindly reflect upon his words in silence.
- **11282**: Take you this $0. Within a tower in East Ronfaure shall you find the friar.
- **11283**: You shall carry the peas to the friar, and return hither.
- **11284**: We recognize your conviction. Today, you are a step closer to Paradise!
- **11285**: To honor your devotion, I bestow upon you this blessing.

## Events

### Event 65535

#### Metadata

| Field        | Value   |
|--------------|---------|
| Entrypoint   | 0x0000  |
| Data Size    | 1 bytes |
| Instructions | 1       |

```
      00 01 02 03 04 05 06 07  08 09 0A 0B 0C 0D 0E 0F
      -- -- -- -- -- -- -- --  -- -- -- -- -- -- -- --
0000: 00                                                .               
```

#### Opcodes

```
  0: 0x0000 [0x00] END_REQSTACK()
```

### Event 869

#### Metadata

| Field        | Value   |
|--------------|---------|
| Entrypoint   | 0x0001  |
| Data Size    | 1 bytes |
| Instructions | 1       |

```
      00 01 02 03 04 05 06 07  08 09 0A 0B 0C 0D 0E 0F
      -- -- -- -- -- -- -- --  -- -- -- -- -- -- -- --
0000:    00                                              .              
```

#### Opcodes

```
  0: 0x0001 [0x00] END_REQSTACK()
```

### Event 871

#### Metadata

| Field        | Value   |
|--------------|---------|
| Entrypoint   | 0x0002  |
| Data Size    | 1 bytes |
| Instructions | 1       |

```
      00 01 02 03 04 05 06 07  08 09 0A 0B 0C 0D 0E 0F
      -- -- -- -- -- -- -- --  -- -- -- -- -- -- -- --
0000:       00                                            .             
```

#### Opcodes

```
  0: 0x0002 [0x00] END_REQSTACK()
```

### Event 65535.1

#### Metadata

| Field        | Value    |
|--------------|----------|
| Entrypoint   | 0x0003   |
| Data Size    | 14 bytes |
| Instructions | 4        |

```
      00 01 02 03 04 05 06 07  08 09 0A 0B 0C 0D 0E 0F
      -- -- -- -- -- -- -- --  -- -- -- -- -- -- -- --
0000:          32 00 80 1F 00  01 80 02 80 03 80 1F 01     2............
0010: 00                                                .               
```

#### Opcodes

```
  0: 0x0003 [0x32] ExtData[1]->MainSpeed = 8* * 0.1
  1: 0x0006 [0x1F] MOVE_ENTITY: EventEntity moves to X=128.143*, Z=116.446*, Y=0.000*
  2: 0x000E [0x1F] MOVE_ENTITY: Update entity position (mode=1)
  3: 0x0010 [0x00] END_REQSTACK()
```

### Event 51

#### Metadata

| Field        | Value   |
|--------------|---------|
| Entrypoint   | 0x0011  |
| Data Size    | 1 bytes |
| Instructions | 1       |

```
      00 01 02 03 04 05 06 07  08 09 0A 0B 0C 0D 0E 0F
      -- -- -- -- -- -- -- --  -- -- -- -- -- -- -- --
0010:    00                                              .              
```

#### Opcodes

```
  0: 0x0011 [0x00] END_REQSTACK()
```

### Event 65535.2

#### Metadata

| Field        | Value    |
|--------------|----------|
| Entrypoint   | 0x0012   |
| Data Size    | 36 bytes |
| Instructions | 6        |

```
      00 01 02 03 04 05 06 07  08 09 0A 0B 0C 0D 0E 0F
      -- -- -- -- -- -- -- --  -- -- -- -- -- -- -- --
0010:       22 01 92 01 F8 FF  FF 7F 3B 0E 70 0E 01 00    ".......;.p...
0020: 00 01 00 02 00 3A 0E 70  0E 01 03 00 37 00 00 01  .....:.p....7...
0030: 00 02 00 03 00 00                                 ......          
```

#### Opcodes

```
  0: 0x0012 [0x22] ENTITY_HIDE_FLAG(enabled=0x01)
  1: 0x0014 [0x92] EventEntity->Render.Flags3 ^= 0x01
  2: 0x001A [0x3B] GET_ENTITY_POSITION(entity=Arnau (ID: 17723406/0x010E700E), x_destination=ExtData[1]->WorkLocal[0], y_destination=ExtData[1]->WorkLocal[1], z_destination=ExtData[1]->WorkLocal[2])
  3: 0x0025 [0x3A] CONVERT_YAW_TO_BYTE(entity=Arnau (ID: 17723406/0x010E700E), result_destination=ExtData[1]->WorkLocal[3])
  4: 0x002C [0x37] UPDATE_EVENT_POSITION_AND_DIR: x=ExtData[1]->WorkLocal[0], z=ExtData[1]->WorkLocal[1], y=ExtData[1]->WorkLocal[2], direction=ExtData[1]->WorkLocal[3]
  5: 0x0035 [0x00] END_REQSTACK()
```

### Event 65535.3

#### Metadata

| Field        | Value    |
|--------------|----------|
| Entrypoint   | 0x0036   |
| Data Size    | 14 bytes |
| Instructions | 4        |

```
      00 01 02 03 04 05 06 07  08 09 0A 0B 0C 0D 0E 0F
      -- -- -- -- -- -- -- --  -- -- -- -- -- -- -- --
0030:                   32 04  80 1F 00 05 80 06 80 07        2.........
0040: 80 1F 01 00                                       ....            
```

#### Opcodes

```
  0: 0x0036 [0x32] ExtData[1]->MainSpeed = 13* * 0.1
  1: 0x0039 [0x1F] MOVE_ENTITY: EventEntity moves to X=151.805*, Z=143.822*, Y=-0.601*
  2: 0x0041 [0x1F] MOVE_ENTITY: Update entity position (mode=1)
  3: 0x0043 [0x00] END_REQSTACK()
```

### Event 1

#### Metadata

| Field        | Value    |
|--------------|----------|
| Entrypoint   | 0x0044   |
| Data Size    | 16 bytes |
| Instructions | 3        |

```
      00 01 02 03 04 05 06 07  08 09 0A 0B 0C 0D 0E 0F
      -- -- -- -- -- -- -- --  -- -- -- -- -- -- -- --
0040:             92 01 F8 FF  FF 7F 37 08 80 09 80 03      ......7.....
0050: 80 0A 80 00                                       ....            
```

#### Opcodes

```
  0: 0x0044 [0x92] EventEntity->Render.Flags3 ^= 0x01
  1: 0x004A [0x37] UPDATE_EVENT_POSITION_AND_DIR: x=146.294*, z=133.864*, y=0.000*, direction=228.0°*
  2: 0x0053 [0x00] END_REQSTACK()
```

### Event 65535.4

#### Metadata

| Field        | Value    |
|--------------|----------|
| Entrypoint   | 0x0054   |
| Data Size    | 28 bytes |
| Instructions | 8        |

```
      00 01 02 03 04 05 06 07  08 09 0A 0B 0C 0D 0E 0F
      -- -- -- -- -- -- -- --  -- -- -- -- -- -- -- --
0050:             32 04 80 1F  00 0B 80 0C 80 03 80 1F      2...........
0060: 01 1F 00 0D 80 0E 80 03  80 1F 01 6F 39 0F 80 00  ...........o9...
```

#### Opcodes

```
  0: 0x0054 [0x32] ExtData[1]->MainSpeed = 13* * 0.1
  1: 0x0057 [0x1F] MOVE_ENTITY: EventEntity moves to X=149.503*, Z=131.461*, Y=0.000*
  2: 0x005F [0x1F] MOVE_ENTITY: Update entity position (mode=1)
  3: 0x0061 [0x1F] MOVE_ENTITY: EventEntity moves to X=150.995*, Z=133.190*, Y=0.000*
  4: 0x0069 [0x1F] MOVE_ENTITY: Update entity position (mode=1)
  5: 0x006B [0x6F] WAIT_FRAME_DELAY: Yield until WaitTime reaches zero
  6: 0x006C [0x39] SET_ENTITY_DIRECTION(direction=10.5°*)
  7: 0x006F [0x00] END_REQSTACK()
```

### Event 589

#### Metadata

| Field        | Value     |
|--------------|-----------|
| Entrypoint   | 0x0070    |
| Data Size    | 643 bytes |
| Instructions | 104       |

```
      00 01 02 03 04 05 06 07  08 09 0A 0B 0C 0D 0E 0F
      -- -- -- -- -- -- -- --  -- -- -- -- -- -- -- --
0070: 42 46 01 45 10 80 F0 FF  FF 7F F0 FF FF 7F 66 64  BF.E..........fd
0080: 6F 31 03 80 55 10 80 F0  FF FF 7F F0 FF FF 7F 66  o1..U..........f
0090: 64 6F 31 38 11 80 45 12  80 F0 FF FF 7F F0 FF FF  do18..E.........
00A0: 7F 73 30 36 30 03 80 38  11 80 29 6E F0 FF FF 7F  .s060..8..)n....
00B0: 10 45 10 80 F0 FF FF 7F  F0 FF FF 7F 66 64 69 31  .E..........fdi1
00C0: 03 80 55 10 80 F0 FF FF  7F F0 FF FF 7F 66 64 69  ..U..........fdi
00D0: 31 1E F0 FF FF 7F 6F 70  5B 13 80 F8 FF FF 7F F8  1.....op[.......
00E0: FF FF 7F 74 6C 6B 30 1D  14 80 23 1C 15 80 45 12  ...tlk0...#...E.
00F0: 80 F0 FF FF 7F F0 FF FF  7F 73 30 36 38 03 80 27  .........s068..'
0100: 6F F0 FF FF 7F 0F 27 65  12 70 0E 01 07 1C 15 80  o.....'e.p......
0110: 27 66 13 70 0E 01 07 1C  16 80 27 67 14 70 0E 01  'f.p......'g.p..
0120: 07 1C 17 80 27 68 15 70  0E 01 07 27 69 16 70 0E  ....'h.p...'i.p.
0130: 01 07 1C 13 80 27 6A 17  70 0E 01 07 2A 6E F0 FF  .....'j.p...*n..
0140: FF 7F 45 12 80 F0 FF FF  7F F0 FF FF 7F 73 30 36  ..E..........s06
0150: 39 03 80 1C 18 80 1E 0E  70 0E 01 1D 19 80 23 1C  9.......p.....#.
0160: 18 80 1D 1A 80 23 1C 18  80 45 12 80 F0 FF FF 7F  .....#...E......
0170: F0 FF FF 7F 73 30 36 34  03 80 2B 0E 70 0E 01 1B  ....s064..+.p...
0180: 80 23 1C 18 80 5B 1C 80  0E 70 0E 01 0E 70 0E 01  .#...[...p...p..
0190: 74 6C 6B 30 2B 0E 70 0E  01 1D 80 23 1C 15 80 45  tlk0+.p....#...E
01A0: 12 80 F0 FF FF 7F F0 FF  FF 7F 73 30 36 35 03 80  ..........s065..
01B0: 2B 0E 70 0E 01 1E 80 23  1C 15 80 2B 0E 70 0E 01  +.p....#...+.p..
01C0: 1F 80 23 1C 15 80 2B 0E  70 0E 01 20 80 23 1C 15  ..#...+.p.. .#..
01D0: 80 45 12 80 F0 FF FF 7F  F0 FF FF 7F 73 30 36 38  .E..........s068
01E0: 03 80 2B 0E 70 0E 01 21  80 23 1C 15 80 2B 0E 70  ..+.p..!.#...+.p
01F0: 0E 01 22 80 23 1C 15 80  2B 0E 70 0E 01 23 80 23  ..".#...+.p..#.#
0200: 1C 15 80 45 12 80 F0 FF  FF 7F F0 FF FF 7F 73 30  ...E..........s0
0210: 36 34 03 80 2B 0E 70 0E  01 24 80 23 1C 15 80 03  64..+.p..$.#....
0220: 02 10 25 80 2B 0E 70 0E  01 26 80 23 1C 15 80 45  ..%.+.p..&.#...E
0230: 12 80 F0 FF FF 7F F0 FF  FF 7F 73 30 36 39 03 80  ..........s069..
0240: 03 02 10 25 80 2B 0E 70  0E 01 27 80 23 1C 15 80  ...%.+.p..'.#...
0250: 03 02 10 25 80 2B 0E 70  0E 01 28 80 23 1C 15 80  ...%.+.p..(.#...
0260: 45 12 80 F0 FF FF 7F F0  FF FF 7F 73 30 36 34 03  E..........s064.
0270: 80 2B 0E 70 0E 01 29 80  23 1C 15 80 45 12 80 F0  .+.p..).#...E...
0280: FF FF 7F F0 FF FF 7F 73  30 36 35 03 80 2B 0E 70  .......s065..+.p
0290: 0E 01 2A 80 23 1C 15 80  5B 1C 80 0E 70 0E 01 0E  ..*.#...[...p...
02A0: 70 0E 01 74 6C 6B 31 53  0E 70 0E 01 0E 70 0E 01  p..tlk1S.p...p..
02B0: 74 6C 6B 31 1C 18 80 45  12 80 F0 FF FF 7F F0 FF  tlk1...E........
02C0: FF 7F 73 30 36 34 03 80  5B 1C 80 0E 70 0E 01 0E  ..s064..[...p...
02D0: 70 0E 01 69 6E 6F 30 2B  0E 70 0E 01 2B 80 23 53  p..ino0+.p..+.#S
02E0: 0E 70 0E 01 0E 70 0E 01  69 6E 6F 30 1C 15 80 46  .p...p..ino0...F
02F0: 00 21 00                                          .!.             
```

#### Opcodes

```
  0: 0x0070 [0x42] SET_CLI_EVENT_CANCEL_DATA()
  1: 0x0071 [0x46] CAMERA_CONTROL: Disable user control
  2: 0x0073 [0x45] LOAD_SCHEDULED_TASK: Load scheduler "fdo1" with entities [LocalPlayer, LocalPlayer], work=[200*, 0*]
  3: 0x0084 [0x55] WAIT_LOAD_SCHEDULER: Wait for scheduler "fdo1" with entities [LocalPlayer, LocalPlayer], work=200*
  4: 0x0093 [0x38] SET_CLIENT_EVENT_MODE(mode=3*)
  5: 0x0096 [0x45] LOAD_SCHEDULED_TASK: Load scheduler "s060" with entities [LocalPlayer, LocalPlayer], work=[131*, 0*]
  6: 0x00A7 [0x38] SET_CLIENT_EVENT_MODE(mode=3*)
  7: 0x00AA [0x29] REQ_SET_WAIT(priority=0x6E, entity_id=LocalPlayer, tag_num=0x10)
  8: 0x00B1 [0x45] LOAD_SCHEDULED_TASK: Load scheduler "fdi1" with entities [LocalPlayer, LocalPlayer], work=[200*, 0*]
  9: 0x00C2 [0x55] WAIT_LOAD_SCHEDULER: Wait for scheduler "fdi1" with entities [LocalPlayer, LocalPlayer], work=200*
 10: 0x00D1 [0x1E] EventEntity looks at LocalPlayer and starts talking
 11: 0x00D6 [0x6F] WAIT_FRAME_DELAY: Yield until WaitTime reaches zero
 12: 0x00D7 [0x70] WAIT_ENTITY_RENDER_FLAG: Wait while EventEntity->Render.Flags3 bit 2 is set (cancel turn if not)
 13: 0x00D8 [0x5B] LOAD_EXT_SCHEDULER: Load scheduler "tlk0" with entities [EventEntity, EventEntity], work=20*
 14: 0x00E7 [0x1D] PRINT_EVENT_MESSAGE(message_id=11256*)
    → "Have you come to hear the sermon? Good, the vicasque will begin soon."
 15: 0x00EA [0x23] WAIT_FOR_DIALOG_INTERACTION
 16: 0x00EB [0x1C] WAIT(30* ticks)
 17: 0x00EE [0x45] LOAD_SCHEDULED_TASK: Load scheduler "s068" with entities [LocalPlayer, LocalPlayer], work=[131*, 0*]
 18: 0x00FF [0x27] REQ_SET(priority=0x6F, entity_id=LocalPlayer, tag_num=0x0F)
 19: 0x0106 [0x27] REQ_SET(priority=0x65, entity_id=Fittesegat (ID: 17723410/0x010E7012), tag_num=0x07)
 20: 0x010D [0x1C] WAIT(30* ticks)
 21: 0x0110 [0x27] REQ_SET(priority=0x66, entity_id=Prerivon (ID: 17723411/0x010E7013), tag_num=0x07)
 22: 0x0117 [0x1C] WAIT(15* ticks)
 23: 0x011A [0x27] REQ_SET(priority=0x67, entity_id=Maurine (ID: 17723412/0x010E7014), tag_num=0x07)
 24: 0x0121 [0x1C] WAIT(45* ticks)
 25: 0x0124 [0x27] REQ_SET(priority=0x68, entity_id=Malfine (ID: 17723413/0x010E7015), tag_num=0x07)
 26: 0x012B [0x27] REQ_SET(priority=0x69, entity_id=Pellimie (ID: 17723414/0x010E7016), tag_num=0x07)
 27: 0x0132 [0x1C] WAIT(20* ticks)
 28: 0x0135 [0x27] REQ_SET(priority=0x6A, entity_id=Coullene (ID: 17723415/0x010E7017), tag_num=0x07)
 29: 0x013C [0x2A] GET_REQ_LEVEL(level=110, entity_id=LocalPlayer)
 30: 0x0142 [0x45] LOAD_SCHEDULED_TASK: Load scheduler "s069" with entities [LocalPlayer, LocalPlayer], work=[131*, 0*]
 31: 0x0153 [0x1C] WAIT(60* ticks)
 32: 0x0156 [0x1E] EventEntity looks at Arnau (ID: 17723406/0x010E700E) and starts talking
 33: 0x015B [0x1D] PRINT_EVENT_MESSAGE(message_id=11257*)
    → "Believers, today's sermon will now begin."
 34: 0x015E [0x23] WAIT_FOR_DIALOG_INTERACTION
 35: 0x015F [0x1C] WAIT(60* ticks)
 36: 0x0162 [0x1D] PRINT_EVENT_MESSAGE(message_id=11258*)
    → "Kindly reflect upon his words in silence."
 37: 0x0165 [0x23] WAIT_FOR_DIALOG_INTERACTION
 38: 0x0166 [0x1C] WAIT(60* ticks)
 39: 0x0169 [0x45] LOAD_SCHEDULED_TASK: Load scheduler "s064" with entities [LocalPlayer, LocalPlayer], work=[131*, 0*]
 40: 0x017A [0x2B] Arnau (ID: 17723406/0x010E700E) [11267*]:
    → "My children, welcome. Today I would like to speak about Paradise."
 41: 0x0181 [0x23] WAIT_FOR_DIALOG_INTERACTION
 42: 0x0182 [0x1C] WAIT(60* ticks)
 43: 0x0185 [0x5B] LOAD_EXT_SCHEDULER: Load scheduler "tlk0" with entities [Arnau (ID: 17723406/0x010E700E), Arnau (ID: 17723406/0x010E700E)], work=21*
 44: 0x0194 [0x2B] Arnau (ID: 17723406/0x010E700E) [11268*]:
    → "In this world, we are born to wither and die. Every mortal is bound by these chains."
 45: 0x019B [0x23] WAIT_FOR_DIALOG_INTERACTION
 46: 0x019C [0x1C] WAIT(30* ticks)
 47: 0x019F [0x45] LOAD_SCHEDULED_TASK: Load scheduler "s065" with entities [LocalPlayer, LocalPlayer], work=[131*, 0*]
 48: 0x01B0 [0x2B] Arnau (ID: 17723406/0x010E700E) [11269*]:
    → "Only the chosen may pass through the gates of Paradise, to live forever under Altana, free from fear and decay."
 49: 0x01B7 [0x23] WAIT_FOR_DIALOG_INTERACTION
 50: 0x01B8 [0x1C] WAIT(30* ticks)
 51: 0x01BB [0x2B] Arnau (ID: 17723406/0x010E700E) [11270*]:
    → "Here in the San d'Oria Cathedral, we devote each day to helping believers along the blessed path."
 52: 0x01C2 [0x23] WAIT_FOR_DIALOG_INTERACTION
 53: 0x01C3 [0x1C] WAIT(30* ticks)
 54: 0x01C6 [0x2B] Arnau (ID: 17723406/0x010E700E) [11271*]:
    → "Though the road to Paradise is fraught with peril, there is no other way to life everlasting."
 55: 0x01CD [0x23] WAIT_FOR_DIALOG_INTERACTION
 56: 0x01CE [0x1C] WAIT(30* ticks)
 57: 0x01D1 [0x45] LOAD_SCHEDULED_TASK: Load scheduler "s068" with entities [LocalPlayer, LocalPlayer], work=[131*, 0*]
 58: 0x01E2 [0x2B] Arnau (ID: 17723406/0x010E700E) [11272*]:
    → "Altana has guided us here today. Toward the gates of Paradise we walk together, one step at a time."
 59: 0x01E9 [0x23] WAIT_FOR_DIALOG_INTERACTION
 60: 0x01EA [0x1C] WAIT(30* ticks)
 61: 0x01ED [0x2B] Arnau (ID: 17723406/0x010E700E) [11273*]:
    → "My children, as you prepare to take your first step, remember that naught is as important as the spirit of giving."
 62: 0x01F4 [0x23] WAIT_FOR_DIALOG_INTERACTION
 63: 0x01F5 [0x1C] WAIT(30* ticks)
 64: 0x01F8 [0x2B] Arnau (ID: 17723406/0x010E700E) [11274*]:
    → "Providence shall come with the renunciation of greed. The one treasure we may keep is generosity!"
 65: 0x01FF [0x23] WAIT_FOR_DIALOG_INTERACTION
 66: 0x0200 [0x1C] WAIT(30* ticks)
 67: 0x0203 [0x45] LOAD_SCHEDULED_TASK: Load scheduler "s064" with entities [LocalPlayer, LocalPlayer], work=[131*, 0*]
 68: 0x0214 [0x2B] Arnau (ID: 17723406/0x010E700E) [11275*]:
    → "Now, I recall a friar on retreat in East Ronfaure."
 69: 0x021B [0x23] WAIT_FOR_DIALOG_INTERACTION
 70: 0x021C [0x1C] WAIT(30* ticks)
 71: 0x021F [0x03] Work_Zone[2] = 618*
 72: 0x0224 [0x2B] Arnau (ID: 17723406/0x010E700E) [11276*]:
    → "He spends his days fasting in prayer, pausing only to eat blue peas."
 73: 0x022B [0x23] WAIT_FOR_DIALOG_INTERACTION
 74: 0x022C [0x1C] WAIT(30* ticks)
 75: 0x022F [0x45] LOAD_SCHEDULED_TASK: Load scheduler "s069" with entities [LocalPlayer, LocalPlayer], work=[131*, 0*]
 76: 0x0240 [0x03] Work_Zone[2] = 618*
 77: 0x0245 [0x2B] Arnau (ID: 17723406/0x010E700E) [11277*]:
    → "In reverence of his devotion, let us deliver him sustenance!"
 78: 0x024C [0x23] WAIT_FOR_DIALOG_INTERACTION
 79: 0x024D [0x1C] WAIT(30* ticks)
 80: 0x0250 [0x03] Work_Zone[2] = 618*
 81: 0x0255 [0x2B] Arnau (ID: 17723406/0x010E700E) [11278*]:
    → "Beseech Friar Abioleget at the narthex, so that he might entrust the peas to you."
 82: 0x025C [0x23] WAIT_FOR_DIALOG_INTERACTION
 83: 0x025D [0x1C] WAIT(30* ticks)
 84: 0x0260 [0x45] LOAD_SCHEDULED_TASK: Load scheduler "s064" with entities [LocalPlayer, LocalPlayer], work=[131*, 0*]
 85: 0x0271 [0x2B] Arnau (ID: 17723406/0x010E700E) [11279*]:
    → "Eschew all desire, give yourself to Altana, and she will bless you in her glory."
 86: 0x0278 [0x23] WAIT_FOR_DIALOG_INTERACTION
 87: 0x0279 [0x1C] WAIT(30* ticks)
 88: 0x027C [0x45] LOAD_SCHEDULED_TASK: Load scheduler "s065" with entities [LocalPlayer, LocalPlayer], work=[131*, 0*]
 89: 0x028D [0x2B] Arnau (ID: 17723406/0x010E700E) [11280*]:
    → "And with these words, I send you. May her light shine upon you, always."
 90: 0x0294 [0x23] WAIT_FOR_DIALOG_INTERACTION
 91: 0x0295 [0x1C] WAIT(30* ticks)
 92: 0x0298 [0x5B] LOAD_EXT_SCHEDULER: Load scheduler "tlk1" with entities [Arnau (ID: 17723406/0x010E700E), Arnau (ID: 17723406/0x010E700E)], work=21*
 93: 0x02A7 [0x53] WAIT_SCHEDULER_TASK: Wait for scheduler "tlk1" with entities [Arnau (ID: 17723406/0x010E700E), Arnau (ID: 17723406/0x010E700E)]
 94: 0x02B4 [0x1C] WAIT(60* ticks)
 95: 0x02B7 [0x45] LOAD_SCHEDULED_TASK: Load scheduler "s064" with entities [LocalPlayer, LocalPlayer], work=[131*, 0*]
 96: 0x02C8 [0x5B] LOAD_EXT_SCHEDULER: Load scheduler "ino0" with entities [Arnau (ID: 17723406/0x010E700E), Arnau (ID: 17723406/0x010E700E)], work=21*
 97: 0x02D7 [0x2B] Arnau (ID: 17723406/0x010E700E) [11194*]:
    → "May Paradise open its gates to you."
 98: 0x02DE [0x23] WAIT_FOR_DIALOG_INTERACTION
 99: 0x02DF [0x53] WAIT_SCHEDULER_TASK: Wait for scheduler "ino0" with entities [Arnau (ID: 17723406/0x010E700E), Arnau (ID: 17723406/0x010E700E)]
100: 0x02EC [0x1C] WAIT(30* ticks)
101: 0x02EF [0x46] CAMERA_CONTROL: Restore default settings
102: 0x02F1 [0x21] END_EVENT
103: 0x02F2 [0x00] END_REQSTACK()
```

### Event 591

#### Metadata

| Field        | Value     |
|--------------|-----------|
| Entrypoint   | 0x02F3    |
| Data Size    | 139 bytes |
| Instructions | 25        |

```
      00 01 02 03 04 05 06 07  08 09 0A 0B 0C 0D 0E 0F
      -- -- -- -- -- -- -- --  -- -- -- -- -- -- -- --
02F0:          42 20 01 1E F0  FF FF 7F 6F 70 5B 13 80     B ......op[..
0300: F8 FF FF 7F F8 FF FF 7F  70 61 73 30 03 02 10 25  ........pas0...%
0310: 80 1D 2C 80 23 53 F8 FF  FF 7F F8 FF FF 7F 70 61  ..,.#S........pa
0320: 73 30 1C 15 80 5B 13 80  F8 FF FF 7F F8 FF FF 7F  s0...[..........
0330: 74 6C 6B 30 1D 2D 80 23  5B 13 80 F8 FF FF 7F F8  tlk0.-.#[.......
0340: FF FF 7F 74 6C 6B 31 53  F8 FF FF 7F F8 FF FF 7F  ...tlk1S........
0350: 74 6C 6B 31 1C 18 80 5B  13 80 F8 FF FF 7F F8 FF  tlk1...[........
0360: FF 7F 69 6E 6F 30 1D 2B  80 23 53 F8 FF FF 7F F8  ..ino0.+.#S.....
0370: FF FF 7F 69 6E 6F 30 1C  15 80 20 00 21 00        ...ino0... .!.  
```

#### Opcodes

```
  0: 0x02F3 [0x42] SET_CLI_EVENT_CANCEL_DATA()
  1: 0x02F4 [0x20] SET_CLI_EVENT_UC_FLAG: Lock player control
  2: 0x02F6 [0x1E] EventEntity looks at LocalPlayer and starts talking
  3: 0x02FB [0x6F] WAIT_FRAME_DELAY: Yield until WaitTime reaches zero
  4: 0x02FC [0x70] WAIT_ENTITY_RENDER_FLAG: Wait while EventEntity->Render.Flags3 bit 2 is set (cancel turn if not)
  5: 0x02FD [0x5B] LOAD_EXT_SCHEDULER: Load scheduler "pas0" with entities [EventEntity, EventEntity], work=20*
  6: 0x030C [0x03] Work_Zone[2] = 618*
  7: 0x0311 [0x1D] PRINT_EVENT_MESSAGE(message_id=11282*)
    → "Take you this $0. Within a tower in East Ronfaure shall you find the friar."
  8: 0x0314 [0x23] WAIT_FOR_DIALOG_INTERACTION
  9: 0x0315 [0x53] WAIT_SCHEDULER_TASK: Wait for scheduler "pas0" with entities [EventEntity, EventEntity]
 10: 0x0322 [0x1C] WAIT(30* ticks)
 11: 0x0325 [0x5B] LOAD_EXT_SCHEDULER: Load scheduler "tlk0" with entities [EventEntity, EventEntity], work=20*
 12: 0x0334 [0x1D] PRINT_EVENT_MESSAGE(message_id=11283*)
    → "You shall carry the peas to the friar, and return hither."
 13: 0x0337 [0x23] WAIT_FOR_DIALOG_INTERACTION
 14: 0x0338 [0x5B] LOAD_EXT_SCHEDULER: Load scheduler "tlk1" with entities [EventEntity, EventEntity], work=20*
 15: 0x0347 [0x53] WAIT_SCHEDULER_TASK: Wait for scheduler "tlk1" with entities [EventEntity, EventEntity]
 16: 0x0354 [0x1C] WAIT(60* ticks)
 17: 0x0357 [0x5B] LOAD_EXT_SCHEDULER: Load scheduler "ino0" with entities [EventEntity, EventEntity], work=20*
 18: 0x0366 [0x1D] PRINT_EVENT_MESSAGE(message_id=11194*)
    → "May Paradise open its gates to you."
 19: 0x0369 [0x23] WAIT_FOR_DIALOG_INTERACTION
 20: 0x036A [0x53] WAIT_SCHEDULER_TASK: Wait for scheduler "ino0" with entities [EventEntity, EventEntity]
 21: 0x0377 [0x1C] WAIT(30* ticks)
 22: 0x037A [0x20] SET_CLI_EVENT_UC_FLAG: Unlock player control
 23: 0x037C [0x21] END_EVENT
 24: 0x037D [0x00] END_REQSTACK()
```

### Event 600

#### Metadata

| Field        | Value     |
|--------------|-----------|
| Entrypoint   | 0x037E    |
| Data Size    | 147 bytes |
| Instructions | 23        |

```
      00 01 02 03 04 05 06 07  08 09 0A 0B 0C 0D 0E 0F
      -- -- -- -- -- -- -- --  -- -- -- -- -- -- -- --
0370:                                            42 1E                B.
0380: F0 FF FF 7F 6F 70 5B 13  80 F8 FF FF 7F F8 FF FF  ....op[.........
0390: 7F 74 6C 6B 30 1D 2E 80  23 5B 13 80 F8 FF FF 7F  .tlk0...#[......
03A0: F8 FF FF 7F 74 6C 6B 31  53 F8 FF FF 7F F8 FF FF  ....tlk1S.......
03B0: 7F 74 6C 6B 31 1C 15 80  5B 13 80 F8 FF FF 7F F8  .tlk1...[.......
03C0: FF FF 7F 70 61 73 30 1D  2F 80 23 53 F8 FF FF 7F  ...pas0./.#S....
03D0: F8 FF FF 7F 70 61 73 30  1C 15 80 5B 13 80 F8 FF  ....pas0...[....
03E0: FF 7F F8 FF FF 7F 69 6E  6F 30 1D 2B 80 23 53 F8  ......ino0.+.#S.
03F0: FF FF 7F F8 FF FF 7F 69  6E 6F 30 45 30 80 F0 FF  .......ino0E0...
0400: FF 7F F0 FF FF 7F 71 73  74 63 03 80 1C 15 80 21  ......qstc.....!
0410: 00                                                .               
```

#### Opcodes

```
  0: 0x037E [0x42] SET_CLI_EVENT_CANCEL_DATA()
  1: 0x037F [0x1E] EventEntity looks at LocalPlayer and starts talking
  2: 0x0384 [0x6F] WAIT_FRAME_DELAY: Yield until WaitTime reaches zero
  3: 0x0385 [0x70] WAIT_ENTITY_RENDER_FLAG: Wait while EventEntity->Render.Flags3 bit 2 is set (cancel turn if not)
  4: 0x0386 [0x5B] LOAD_EXT_SCHEDULER: Load scheduler "tlk0" with entities [EventEntity, EventEntity], work=20*
  5: 0x0395 [0x1D] PRINT_EVENT_MESSAGE(message_id=11284*)
    → "We recognize your conviction. Today, you are a step closer to Paradise!"
  6: 0x0398 [0x23] WAIT_FOR_DIALOG_INTERACTION
  7: 0x0399 [0x5B] LOAD_EXT_SCHEDULER: Load scheduler "tlk1" with entities [EventEntity, EventEntity], work=20*
  8: 0x03A8 [0x53] WAIT_SCHEDULER_TASK: Wait for scheduler "tlk1" with entities [EventEntity, EventEntity]
  9: 0x03B5 [0x1C] WAIT(30* ticks)
 10: 0x03B8 [0x5B] LOAD_EXT_SCHEDULER: Load scheduler "pas0" with entities [EventEntity, EventEntity], work=20*
 11: 0x03C7 [0x1D] PRINT_EVENT_MESSAGE(message_id=11285*)
    → "To honor your devotion, I bestow upon you this blessing."
 12: 0x03CA [0x23] WAIT_FOR_DIALOG_INTERACTION
 13: 0x03CB [0x53] WAIT_SCHEDULER_TASK: Wait for scheduler "pas0" with entities [EventEntity, EventEntity]
 14: 0x03D8 [0x1C] WAIT(30* ticks)
 15: 0x03DB [0x5B] LOAD_EXT_SCHEDULER: Load scheduler "ino0" with entities [EventEntity, EventEntity], work=20*
 16: 0x03EA [0x1D] PRINT_EVENT_MESSAGE(message_id=11194*)
    → "May Paradise open its gates to you."
 17: 0x03ED [0x23] WAIT_FOR_DIALOG_INTERACTION
 18: 0x03EE [0x53] WAIT_SCHEDULER_TASK: Wait for scheduler "ino0" with entities [EventEntity, EventEntity]
 19: 0x03FB [0x45] LOAD_SCHEDULED_TASK: Load scheduler "qstc" with entities [LocalPlayer, LocalPlayer], work=[201*, 0*]
 20: 0x040C [0x1C] WAIT(30* ticks)
 21: 0x040F [0x21] END_EVENT
 22: 0x0410 [0x00] END_REQSTACK()
```

### Event 49

#### Metadata

| Field        | Value   |
|--------------|---------|
| Entrypoint   | 0x0411  |
| Data Size    | 3 bytes |
| Instructions | 2       |

```
      00 01 02 03 04 05 06 07  08 09 0A 0B 0C 0D 0E 0F
      -- -- -- -- -- -- -- --  -- -- -- -- -- -- -- --
0410:    22 01 00                                        "..            
```

#### Opcodes

```
  0: 0x0411 [0x22] ENTITY_HIDE_FLAG(enabled=0x01)
  1: 0x0413 [0x00] END_REQSTACK()
```

### Event 693

#### Metadata

| Field        | Value   |
|--------------|---------|
| Entrypoint   | 0x0414  |
| Data Size    | 1 bytes |
| Instructions | 1       |

```
      00 01 02 03 04 05 06 07  08 09 0A 0B 0C 0D 0E 0F
      -- -- -- -- -- -- -- --  -- -- -- -- -- -- -- --
0410:             00                                        .           
```

#### Opcodes

```
  0: 0x0414 [0x00] END_REQSTACK()
```

### Event 639

#### Metadata

| Field        | Value   |
|--------------|---------|
| Entrypoint   | 0x0415  |
| Data Size    | 1 bytes |
| Instructions | 1       |

```
      00 01 02 03 04 05 06 07  08 09 0A 0B 0C 0D 0E 0F
      -- -- -- -- -- -- -- --  -- -- -- -- -- -- -- --
0410:                00                                      .          
```

#### Opcodes

```
  0: 0x0415 [0x00] END_REQSTACK()
```

### Event 16

#### Metadata

| Field        | Value    |
|--------------|----------|
| Entrypoint   | 0x0416   |
| Data Size    | 18 bytes |
| Instructions | 4        |

```
      00 01 02 03 04 05 06 07  08 09 0A 0B 0C 0D 0E 0F
      -- -- -- -- -- -- -- --  -- -- -- -- -- -- -- --
0410:                   22 00  92 01 F8 FF FF 7F 37 31        ".......71
0420: 80 32 80 03 80 33 80 00                           .2...3..        
```

#### Opcodes

```
  0: 0x0416 [0x22] ENTITY_HIDE_FLAG(enabled=0x00)
  1: 0x0418 [0x92] EventEntity->Render.Flags3 ^= 0x01
  2: 0x041E [0x37] UPDATE_EVENT_POSITION_AND_DIR: x=115.460*, z=112.581*, y=0.000*, direction=44.6°*
  3: 0x0427 [0x00] END_REQSTACK()
```
