# 17723569 - Curilla

## Common Data

| Field            | Value                         |
|------------------|-------------------------------|
| Zone             | Northern San d'Oria (ID: 231) |
| Block Size       | 1052 bytes                    |
| Total Events     | 29                            |
| References Count | 62                            |

## List of Events

| Event ID                   | Entrypoint   |   Size |   Instructions |
|----------------------------|--------------|--------|----------------|
| [65535](#event-65535)      | 0x0000       |      1 |              1 |
| [1](#event-1)              | 0x0001       |     15 |              3 |
| [65535.1](#event-655351)   | 0x0010       |     24 |              5 |
| [65535.2](#event-655352)   | 0x0028       |     67 |             13 |
| [65535.3](#event-655353)   | 0x006B       |     55 |              7 |
| [65535.4](#event-655354)   | 0x00A2       |     26 |              7 |
| [65535.5](#event-655355)   | 0x00BC       |     30 |              4 |
| [16](#event-16)            | 0x00DA       |     18 |              4 |
| [0](#event-0)              | 0x00EC       |     13 |              3 |
| [65535.6](#event-655356)   | 0x00F9       |     13 |              3 |
| [65535.7](#event-655357)   | 0x0106       |     20 |              4 |
| [65535.8](#event-655358)   | 0x011A       |     13 |              3 |
| [65535.9](#event-655359)   | 0x0127       |     10 |              2 |
| [65535.10](#event-6553510) | 0x0131       |     37 |              9 |
| [65535.11](#event-6553511) | 0x0156       |     14 |              4 |
| [49](#event-49)            | 0x0164       |     18 |              4 |
| [65535.12](#event-6553512) | 0x0176       |     12 |              4 |
| [65535.13](#event-6553513) | 0x0182       |     16 |              4 |
| [65535.14](#event-6553514) | 0x0192       |     14 |              4 |
| [65535.15](#event-6553515) | 0x01A0       |     43 |              9 |
| [65535.16](#event-6553516) | 0x01CB       |     24 |              8 |
| [65535.17](#event-6553517) | 0x01E3       |     29 |              3 |
| [65535.18](#event-6553518) | 0x0200       |     19 |              3 |
| [65535.19](#event-6553519) | 0x0213       |     19 |              3 |
| [65535.20](#event-6553520) | 0x0226       |     34 |              4 |
| [65535.21](#event-6553521) | 0x0248       |     16 |              6 |
| [65535.22](#event-6553522) | 0x0258       |     14 |              4 |
| [65535.23](#event-6553523) | 0x0266       |     29 |              3 |
| [65535.24](#event-6553524) | 0x0283       |     29 |              3 |

## DAT References (imed_data)

|   Index | Hex Value   |   Dec Value |
|---------|-------------|-------------|
|       0 | 0x20D2D     |      134445 |
|       1 | 0x20A88     |      133768 |
|       2 | 0x0000      |           0 |
|       3 | 0x00BF      |         191 |
|       4 | 0x0028      |          40 |
|       5 | 0x212FC     |      135932 |
|       6 | 0x2054D     |      132429 |
|       7 | 0x22B49     |      142153 |
|       8 | 0x2105E     |      135262 |
|       9 | 0x008E      |         142 |
|      10 | 0x001E      |          30 |
|      11 | 0x005A      |          90 |
|      12 | 0x1F968     |      129384 |
|      13 | 0x1D174     |      119156 |
|      14 | 0x19173     |      102771 |
|      15 | 0x173C6     |       95174 |
|      16 | 0x22B21     |      142113 |
|      17 | 0x207AD     |      133037 |
|      18 | 0x0077      |         119 |
|      19 | 0x1ED4E     |      126286 |
|      20 | 0x1CA0C     |      117260 |
|      21 | 0x064B      |        1611 |
|      22 | 0x000A      |          10 |
|      23 | 0x03E8      |        1000 |
|      24 | 0xFFFFD4E1  |  4294956257 |
|      25 | 0x0C0F      |        3087 |
|      26 | 0x000D      |          13 |
|      27 | 0x4203      |       16899 |
|      28 | 0x050A      |        1290 |
|      29 | 0x16B5E     |       93022 |
|      30 | 0x1F9B2     |      129458 |
|      31 | 0xFFFFF830  |  4294965296 |
|      32 | 0x1B22A     |      111146 |
|      33 | 0x18D12     |      101650 |
|      34 | 0x04B0      |        1200 |
|      35 | 0x17D73     |       97651 |
|      36 | 0x159E9     |       88553 |
|      37 | 0x06D5      |        1749 |
|      38 | 0x0623      |        1571 |
|      39 | 0x0050      |          80 |
|      40 | 0x17462     |       95330 |
|      41 | 0x1510B     |       86283 |
|      42 | 0x008C      |         140 |
|      43 | 0xFD74      |       64884 |
|      44 | 0xD805      |       55301 |
|      45 | 0x16C5D     |       93277 |
|      46 | 0x1509F     |       86175 |
|      47 | 0x0660      |        1632 |
|      48 | 0x17BFE     |       97278 |
|      49 | 0x15F1D     |       89885 |
|      50 | 0x19178     |      102776 |
|      51 | 0x172E6     |       94950 |
|      52 | 0x003C      |          60 |
|      53 | 0x0E0C      |        3596 |
|      54 | 0x19697     |      104087 |
|      55 | 0x17777     |       96119 |
|      56 | 0x0010      |          16 |
|      57 | 0x18B40     |      101184 |
|      58 | 0x16BD1     |       93137 |
|      59 | 0x0207      |         519 |
|      60 | 0x19459     |      103513 |
|      61 | 0x17570     |       95600 |

## Events

### Event 65535

#### Metadata

| Field        | Value   |
|--------------|---------|
| Entrypoint   | 0x0000  |
| Data Size    | 1 bytes |
| Instructions | 1       |

```
      00 01 02 03 04 05 06 07  08 09 0A 0B 0C 0D 0E 0F
      -- -- -- -- -- -- -- --  -- -- -- -- -- -- -- --
0000: 00                                                .               
```

#### Opcodes

```
  0: 0x0000 [0x00] END_REQSTACK()
```

### Event 1

#### Metadata

| Field        | Value    |
|--------------|----------|
| Entrypoint   | 0x0001   |
| Data Size    | 15 bytes |
| Instructions | 3        |

```
      00 01 02 03 04 05 06 07  08 09 0A 0B 0C 0D 0E 0F
      -- -- -- -- -- -- -- --  -- -- -- -- -- -- -- --
0000:    37 00 80 01 80 02 80  03 80 5E 64 66 74 30 00   7........^dft0.
```

#### Opcodes

```
  0: 0x0001 [0x37] UPDATE_EVENT_POSITION_AND_DIR: x=134.445*, z=133.768*, y=0.000*, direction=16.8°*
  1: 0x000A [0x5E] EventEntity goes idle (kills current action) (animation: "dft0")
  2: 0x000F [0x00] END_REQSTACK()
```

### Event 65535.1

#### Metadata

| Field        | Value    |
|--------------|----------|
| Entrypoint   | 0x0010   |
| Data Size    | 24 bytes |
| Instructions | 5        |

```
      00 01 02 03 04 05 06 07  08 09 0A 0B 0C 0D 0E 0F
      -- -- -- -- -- -- -- --  -- -- -- -- -- -- -- --
0010: 32 04 80 79 00 F8 FF FF  7F CF 70 0E 01 1F 00 05  2..y......p.....
0020: 80 06 80 02 80 1F 01 00                           ........        
```

#### Opcodes

```
  0: 0x0010 [0x32] ExtData[1]->MainSpeed = 40* * 0.1
  1: 0x0013 [0x79] EventEntity looks at Rochefogne (ID: 17723599/0x010E70CF) (Basic look)
  2: 0x001D [0x1F] MOVE_ENTITY: EventEntity moves to X=135.932*, Z=132.429*, Y=0.000*
  3: 0x0025 [0x1F] MOVE_ENTITY: Update entity position (mode=1)
  4: 0x0027 [0x00] END_REQSTACK()
```

### Event 65535.2

#### Metadata

| Field        | Value    |
|--------------|----------|
| Entrypoint   | 0x0028   |
| Data Size    | 67 bytes |
| Instructions | 13       |

```
      00 01 02 03 04 05 06 07  08 09 0A 0B 0C 0D 0E 0F
      -- -- -- -- -- -- -- --  -- -- -- -- -- -- -- --
0020:                          32 04 80 1F 00 07 80 08          2.......
0030: 80 02 80 1F 01 6F 86 01  F8 FF FF 7F 1E CF 70 0E  .....o........p.
0040: 01 6F 70 86 00 F8 FF FF  7F 5B 09 80 F8 FF FF 7F  .op......[......
0050: F8 FF FF 7F 73 77 6F 30  1C 0A 80 5B 09 80 F8 FF  ....swo0...[....
0060: FF 7F F8 FF FF 7F 61 63  74 30 00                 ......act0.     
```

#### Opcodes

```
  0: 0x0028 [0x32] ExtData[1]->MainSpeed = 40* * 0.1
  1: 0x002B [0x1F] MOVE_ENTITY: EventEntity moves to X=142.153*, Z=135.262*, Y=0.000*
  2: 0x0033 [0x1F] MOVE_ENTITY: Update entity position (mode=1)
  3: 0x0035 [0x6F] WAIT_FRAME_DELAY: Yield until WaitTime reaches zero
  4: 0x0036 [0x86] EventEntity->Render.Flags3 ^= 0x01
  5: 0x003C [0x1E] EventEntity looks at Rochefogne (ID: 17723599/0x010E70CF) and starts talking
  6: 0x0041 [0x6F] WAIT_FRAME_DELAY: Yield until WaitTime reaches zero
  7: 0x0042 [0x70] WAIT_ENTITY_RENDER_FLAG: Wait while EventEntity->Render.Flags3 bit 2 is set (cancel turn if not)
  8: 0x0043 [0x86] EventEntity->Render.Flags3 = Flags3  // No change (flag=0)
  9: 0x0049 [0x5B] LOAD_EXT_SCHEDULER: Load scheduler "swo0" with entities [EventEntity, EventEntity], work=142*
 10: 0x0058 [0x1C] WAIT(30* ticks)
 11: 0x005B [0x5B] LOAD_EXT_SCHEDULER: Load scheduler "act0" with entities [EventEntity, EventEntity], work=142*
 12: 0x006A [0x00] END_REQSTACK()
```

### Event 65535.3

#### Metadata

| Field        | Value    |
|--------------|----------|
| Entrypoint   | 0x006B   |
| Data Size    | 55 bytes |
| Instructions | 7        |

```
      00 01 02 03 04 05 06 07  08 09 0A 0B 0C 0D 0E 0F
      -- -- -- -- -- -- -- --  -- -- -- -- -- -- -- --
0060:                                   3B F8 FF FF 7F             ;....
0070: 00 00 01 00 02 00 3A F8  FF FF 7F 03 00 37 02 80  ......:......7..
0080: 02 80 02 80 02 80 5B 09  80 F8 FF FF 7F F8 FF FF  ......[.........
0090: 7F 61 63 74 32 1C 0B 80  37 00 00 01 00 02 00 03  .act2...7.......
00A0: 00 00                                             ..              
```

#### Opcodes

```
  0: 0x006B [0x3B] GET_ENTITY_POSITION(entity=EventEntity, x_destination=ExtData[1]->WorkLocal[0], y_destination=ExtData[1]->WorkLocal[1], z_destination=ExtData[1]->WorkLocal[2])
  1: 0x0076 [0x3A] CONVERT_YAW_TO_BYTE(entity=EventEntity, result_destination=ExtData[1]->WorkLocal[3])
  2: 0x007D [0x37] UPDATE_EVENT_POSITION_AND_DIR: x=0.000*, z=0.000*, y=0.000*, direction=0.0°*
  3: 0x0086 [0x5B] LOAD_EXT_SCHEDULER: Load scheduler "act2" with entities [EventEntity, EventEntity], work=142*
  4: 0x0095 [0x1C] WAIT(90* ticks)
  5: 0x0098 [0x37] UPDATE_EVENT_POSITION_AND_DIR: x=ExtData[1]->WorkLocal[0], z=ExtData[1]->WorkLocal[1], y=ExtData[1]->WorkLocal[2], direction=ExtData[1]->WorkLocal[3]
  6: 0x00A1 [0x00] END_REQSTACK()
```

### Event 65535.4

#### Metadata

| Field        | Value    |
|--------------|----------|
| Entrypoint   | 0x00A2   |
| Data Size    | 26 bytes |
| Instructions | 7        |

```
      00 01 02 03 04 05 06 07  08 09 0A 0B 0C 0D 0E 0F
      -- -- -- -- -- -- -- --  -- -- -- -- -- -- -- --
00A0:       32 04 80 1F 00 0C  80 0D 80 02 80 1F 01 1F    2.............
00B0: 00 0E 80 0F 80 02 80 1F  01 22 01 00              ........."..    
```

#### Opcodes

```
  0: 0x00A2 [0x32] ExtData[1]->MainSpeed = 40* * 0.1
  1: 0x00A5 [0x1F] MOVE_ENTITY: EventEntity moves to X=129.384*, Z=119.156*, Y=0.000*
  2: 0x00AD [0x1F] MOVE_ENTITY: Update entity position (mode=1)
  3: 0x00AF [0x1F] MOVE_ENTITY: EventEntity moves to X=102.771*, Z=95.174*, Y=0.000*
  4: 0x00B7 [0x1F] MOVE_ENTITY: Update entity position (mode=1)
  5: 0x00B9 [0x22] ENTITY_HIDE_FLAG(enabled=0x01)
  6: 0x00BB [0x00] END_REQSTACK()
```

### Event 65535.5

#### Metadata

| Field        | Value    |
|--------------|----------|
| Entrypoint   | 0x00BC   |
| Data Size    | 30 bytes |
| Instructions | 4        |

```
      00 01 02 03 04 05 06 07  08 09 0A 0B 0C 0D 0E 0F
      -- -- -- -- -- -- -- --  -- -- -- -- -- -- -- --
00B0:                                      37 10 80 11              7...
00C0: 80 02 80 12 80 80 F8 FF  FF 7F 5B 09 80 F8 FF FF  ..........[.....
00D0: 7F F8 FF FF 7F 61 63 74  30 00                    .....act0.      
```

#### Opcodes

```
  0: 0x00BC [0x37] UPDATE_EVENT_POSITION_AND_DIR: x=142.113*, z=133.037*, y=0.000*, direction=10.5°*
  1: 0x00C5 [0x80] LOAD_WAIT(entity=EventEntity)
  2: 0x00CA [0x5B] LOAD_EXT_SCHEDULER: Load scheduler "act0" with entities [EventEntity, EventEntity], work=142*
  3: 0x00D9 [0x00] END_REQSTACK()
```

### Event 16

#### Metadata

| Field        | Value    |
|--------------|----------|
| Entrypoint   | 0x00DA   |
| Data Size    | 18 bytes |
| Instructions | 4        |

```
      00 01 02 03 04 05 06 07  08 09 0A 0B 0C 0D 0E 0F
      -- -- -- -- -- -- -- --  -- -- -- -- -- -- -- --
00D0:                                5E 64 66 74 30 37            ^dft07
00E0: 13 80 14 80 02 80 15 80  32 16 80 00              ........2...    
```

#### Opcodes

```
  0: 0x00DA [0x5E] EventEntity goes idle (kills current action) (animation: "dft0")
  1: 0x00DF [0x37] UPDATE_EVENT_POSITION_AND_DIR: x=126.286*, z=117.260*, y=0.000*, direction=141.6°*
  2: 0x00E8 [0x32] ExtData[1]->MainSpeed = 10* * 0.1
  3: 0x00EB [0x00] END_REQSTACK()
```

### Event 0

#### Metadata

| Field        | Value    |
|--------------|----------|
| Entrypoint   | 0x00EC   |
| Data Size    | 13 bytes |
| Instructions | 3        |

```
      00 01 02 03 04 05 06 07  08 09 0A 0B 0C 0D 0E 0F
      -- -- -- -- -- -- -- --  -- -- -- -- -- -- -- --
00E0:                                      37 17 80 18              7...
00F0: 80 02 80 19 80 32 1A 80  00                       .....2...       
```

#### Opcodes

```
  0: 0x00EC [0x37] UPDATE_EVENT_POSITION_AND_DIR: x=1.000*, z=-11.039*, y=0.000*, direction=271.3°*
  1: 0x00F5 [0x32] ExtData[1]->MainSpeed = 13* * 0.1
  2: 0x00F8 [0x00] END_REQSTACK()
```

### Event 65535.6

#### Metadata

| Field        | Value    |
|--------------|----------|
| Entrypoint   | 0x00F9   |
| Data Size    | 13 bytes |
| Instructions | 3        |

```
      00 01 02 03 04 05 06 07  08 09 0A 0B 0C 0D 0E 0F
      -- -- -- -- -- -- -- --  -- -- -- -- -- -- -- --
00F0:                             31 00 17 80 1B 80 02           1......
0100: 80 1C 80 31 01 00                                 ...1..          
```

#### Opcodes

```
  0: 0x00F9 [0x31] UPDATE_ENTITY_POSITION: Set EventEntity goal position to X=1.000*, Z=16.899*, Y=0.000*, Time=1290*
  1: 0x0103 [0x31] UPDATE_ENTITY_POSITION: Move EventEntity towards goal position
  2: 0x0105 [0x00] END_REQSTACK()
```

### Event 65535.7

#### Metadata

| Field        | Value    |
|--------------|----------|
| Entrypoint   | 0x0106   |
| Data Size    | 20 bytes |
| Instructions | 4        |

```
      00 01 02 03 04 05 06 07  08 09 0A 0B 0C 0D 0E 0F
      -- -- -- -- -- -- -- --  -- -- -- -- -- -- -- --
0100:                   37 17  80 1D 80 02 80 19 80 1F        7.........
0110: 00 17 80 1E 80 1F 80 1F  01 00                    ..........      
```

#### Opcodes

```
  0: 0x0106 [0x37] UPDATE_EVENT_POSITION_AND_DIR: x=1.000*, z=93.022*, y=0.000*, direction=271.3°*
  1: 0x010F [0x1F] MOVE_ENTITY: EventEntity moves to X=1.000*, Z=129.458*, Y=-2.000*
  2: 0x0117 [0x1F] MOVE_ENTITY: Update entity position (mode=1)
  3: 0x0119 [0x00] END_REQSTACK()
```

### Event 65535.8

#### Metadata

| Field        | Value    |
|--------------|----------|
| Entrypoint   | 0x011A   |
| Data Size    | 13 bytes |
| Instructions | 3        |

```
      00 01 02 03 04 05 06 07  08 09 0A 0B 0C 0D 0E 0F
      -- -- -- -- -- -- -- --  -- -- -- -- -- -- -- --
0110:                                31 00 20 80 21 80            1. .!.
0120: 02 80 22 80 31 01 00                              ..".1..         
```

#### Opcodes

```
  0: 0x011A [0x31] UPDATE_ENTITY_POSITION: Set EventEntity goal position to X=111.146*, Z=101.650*, Y=0.000*, Time=1200*
  1: 0x0124 [0x31] UPDATE_ENTITY_POSITION: Move EventEntity towards goal position
  2: 0x0126 [0x00] END_REQSTACK()
```

### Event 65535.9

#### Metadata

| Field        | Value    |
|--------------|----------|
| Entrypoint   | 0x0127   |
| Data Size    | 10 bytes |
| Instructions | 2        |

```
      00 01 02 03 04 05 06 07  08 09 0A 0B 0C 0D 0E 0F
      -- -- -- -- -- -- -- --  -- -- -- -- -- -- -- --
0120:                      37  23 80 24 80 25 80 26 80         7#.$.%.&.
0130: 00                                                .               
```

#### Opcodes

```
  0: 0x0127 [0x37] UPDATE_EVENT_POSITION_AND_DIR: x=97.651*, z=88.553*, y=1.749*, direction=138.1°*
  1: 0x0130 [0x00] END_REQSTACK()
```

### Event 65535.10

#### Metadata

| Field        | Value    |
|--------------|----------|
| Entrypoint   | 0x0131   |
| Data Size    | 37 bytes |
| Instructions | 9        |

```
      00 01 02 03 04 05 06 07  08 09 0A 0B 0C 0D 0E 0F
      -- -- -- -- -- -- -- --  -- -- -- -- -- -- -- --
0130:    1C 27 80 1F 00 28 80  29 80 25 80 1F 01 6F 1E   .'...(.).%...o.
0140: C5 70 0E 01 6F 70 5B 2A  80 F8 FF FF 7F F8 FF FF  .p..op[*........
0150: 7F 73 77 6F 30 00                                 .swo0.          
```

#### Opcodes

```
  0: 0x0131 [0x1C] WAIT(80* ticks)
  1: 0x0134 [0x1F] MOVE_ENTITY: EventEntity moves to X=95.330*, Z=86.283*, Y=1.749*
  2: 0x013C [0x1F] MOVE_ENTITY: Update entity position (mode=1)
  3: 0x013E [0x6F] WAIT_FRAME_DELAY: Yield until WaitTime reaches zero
  4: 0x013F [0x1E] EventEntity looks at Rochefogne (ID: 17723589/0x010E70C5) and starts talking
  5: 0x0144 [0x6F] WAIT_FRAME_DELAY: Yield until WaitTime reaches zero
  6: 0x0145 [0x70] WAIT_ENTITY_RENDER_FLAG: Wait while EventEntity->Render.Flags3 bit 2 is set (cancel turn if not)
  7: 0x0146 [0x5B] LOAD_EXT_SCHEDULER: Load scheduler "swo0" with entities [EventEntity, EventEntity], work=140*
  8: 0x0155 [0x00] END_REQSTACK()
```

### Event 65535.11

#### Metadata

| Field        | Value    |
|--------------|----------|
| Entrypoint   | 0x0156   |
| Data Size    | 14 bytes |
| Instructions | 4        |

```
      00 01 02 03 04 05 06 07  08 09 0A 0B 0C 0D 0E 0F
      -- -- -- -- -- -- -- --  -- -- -- -- -- -- -- --
0150:                   32 04  80 1F 00 2B 80 2C 80 02        2....+.,..
0160: 80 1F 01 00                                       ....            
```

#### Opcodes

```
  0: 0x0156 [0x32] ExtData[1]->MainSpeed = 40* * 0.1
  1: 0x0159 [0x1F] MOVE_ENTITY: EventEntity moves to X=64.884*, Z=55.301*, Y=0.000*
  2: 0x0161 [0x1F] MOVE_ENTITY: Update entity position (mode=1)
  3: 0x0163 [0x00] END_REQSTACK()
```

### Event 49

#### Metadata

| Field        | Value    |
|--------------|----------|
| Entrypoint   | 0x0164   |
| Data Size    | 18 bytes |
| Instructions | 4        |

```
      00 01 02 03 04 05 06 07  08 09 0A 0B 0C 0D 0E 0F
      -- -- -- -- -- -- -- --  -- -- -- -- -- -- -- --
0160:             5E 64 66 74  30 37 2D 80 2E 80 25 80      ^dft07-...%.
0170: 2F 80 32 1A 80 00                                 /.2...          
```

#### Opcodes

```
  0: 0x0164 [0x5E] EventEntity goes idle (kills current action) (animation: "dft0")
  1: 0x0169 [0x37] UPDATE_EVENT_POSITION_AND_DIR: x=93.277*, z=86.175*, y=1.749*, direction=143.4°*
  2: 0x0172 [0x32] ExtData[1]->MainSpeed = 13* * 0.1
  3: 0x0175 [0x00] END_REQSTACK()
```

### Event 65535.12

#### Metadata

| Field        | Value    |
|--------------|----------|
| Entrypoint   | 0x0176   |
| Data Size    | 12 bytes |
| Instructions | 4        |

```
      00 01 02 03 04 05 06 07  08 09 0A 0B 0C 0D 0E 0F
      -- -- -- -- -- -- -- --  -- -- -- -- -- -- -- --
0170:                   1F 00  30 80 31 80 25 80 1F 01        ..0.1.%...
0180: 6F 00                                             o.              
```

#### Opcodes

```
  0: 0x0176 [0x1F] MOVE_ENTITY: EventEntity moves to X=97.278*, Z=89.885*, Y=1.749*
  1: 0x017E [0x1F] MOVE_ENTITY: Update entity position (mode=1)
  2: 0x0180 [0x6F] WAIT_FRAME_DELAY: Yield until WaitTime reaches zero
  3: 0x0181 [0x00] END_REQSTACK()
```

### Event 65535.13

#### Metadata

| Field        | Value    |
|--------------|----------|
| Entrypoint   | 0x0182   |
| Data Size    | 16 bytes |
| Instructions | 4        |

```
      00 01 02 03 04 05 06 07  08 09 0A 0B 0C 0D 0E 0F
      -- -- -- -- -- -- -- --  -- -- -- -- -- -- -- --
0180:       32 1A 80 31 00 32  80 33 80 25 80 34 80 31    2..1.2.3.%.4.1
0190: 01 00                                             ..              
```

#### Opcodes

```
  0: 0x0182 [0x32] ExtData[1]->MainSpeed = 13* * 0.1
  1: 0x0185 [0x31] UPDATE_ENTITY_POSITION: Set EventEntity goal position to X=102.776*, Z=94.950*, Y=1.749*, Time=60*
  2: 0x018F [0x31] UPDATE_ENTITY_POSITION: Move EventEntity towards goal position
  3: 0x0191 [0x00] END_REQSTACK()
```

### Event 65535.14

#### Metadata

| Field        | Value    |
|--------------|----------|
| Entrypoint   | 0x0192   |
| Data Size    | 14 bytes |
| Instructions | 4        |

```
      00 01 02 03 04 05 06 07  08 09 0A 0B 0C 0D 0E 0F
      -- -- -- -- -- -- -- --  -- -- -- -- -- -- -- --
0190:       32 04 80 1F 00 32  80 33 80 25 80 1F 01 00    2....2.3.%....
```

#### Opcodes

```
  0: 0x0192 [0x32] ExtData[1]->MainSpeed = 40* * 0.1
  1: 0x0195 [0x1F] MOVE_ENTITY: EventEntity moves to X=102.776*, Z=94.950*, Y=1.749*
  2: 0x019D [0x1F] MOVE_ENTITY: Update entity position (mode=1)
  3: 0x019F [0x00] END_REQSTACK()
```

### Event 65535.15

#### Metadata

| Field        | Value    |
|--------------|----------|
| Entrypoint   | 0x01A0   |
| Data Size    | 43 bytes |
| Instructions | 9        |

```
      00 01 02 03 04 05 06 07  08 09 0A 0B 0C 0D 0E 0F
      -- -- -- -- -- -- -- --  -- -- -- -- -- -- -- --
01A0: 37 32 80 33 80 25 80 35  80 32 0A 80 31 00 36 80  72.3.%.5.2..1.6.
01B0: 37 80 25 80 38 80 31 01  32 1A 80 1F 00 36 80 37  7.%.8.1.2....6.7
01C0: 80 25 80 1F 01 1E AF 70  0E 01 00                 .%.....p...     
```

#### Opcodes

```
  0: 0x01A0 [0x37] UPDATE_EVENT_POSITION_AND_DIR: x=102.776*, z=94.950*, y=1.749*, direction=316.0°*
  1: 0x01A9 [0x32] ExtData[1]->MainSpeed = 30* * 0.1
  2: 0x01AC [0x31] UPDATE_ENTITY_POSITION: Set EventEntity goal position to X=104.087*, Z=96.119*, Y=1.749*, Time=16*
  3: 0x01B6 [0x31] UPDATE_ENTITY_POSITION: Move EventEntity towards goal position
  4: 0x01B8 [0x32] ExtData[1]->MainSpeed = 13* * 0.1
  5: 0x01BB [0x1F] MOVE_ENTITY: EventEntity moves to X=104.087*, Z=96.119*, Y=1.749*
  6: 0x01C3 [0x1F] MOVE_ENTITY: Update entity position (mode=1)
  7: 0x01C5 [0x1E] EventEntity looks at Rainemard (ID: 17723567/0x010E70AF) and starts talking
  8: 0x01CA [0x00] END_REQSTACK()
```

### Event 65535.16

#### Metadata

| Field        | Value    |
|--------------|----------|
| Entrypoint   | 0x01CB   |
| Data Size    | 24 bytes |
| Instructions | 8        |

```
      00 01 02 03 04 05 06 07  08 09 0A 0B 0C 0D 0E 0F
      -- -- -- -- -- -- -- --  -- -- -- -- -- -- -- --
01C0:                                   32 1A 80 1F 00             2....
01D0: 39 80 3A 80 25 80 1F 01  1C 16 80 1E 02 70 0E 01  9.:.%........p..
01E0: 6F 70 00                                          op.             
```

#### Opcodes

```
  0: 0x01CB [0x32] ExtData[1]->MainSpeed = 13* * 0.1
  1: 0x01CE [0x1F] MOVE_ENTITY: EventEntity moves to X=101.184*, Z=93.137*, Y=1.749*
  2: 0x01D6 [0x1F] MOVE_ENTITY: Update entity position (mode=1)
  3: 0x01D8 [0x1C] WAIT(10* ticks)
  4: 0x01DB [0x1E] EventEntity looks at Trion (ID: 17723394/0x010E7002) and starts talking
  5: 0x01E0 [0x6F] WAIT_FRAME_DELAY: Yield until WaitTime reaches zero
  6: 0x01E1 [0x70] WAIT_ENTITY_RENDER_FLAG: Wait while EventEntity->Render.Flags3 bit 2 is set (cancel turn if not)
  7: 0x01E2 [0x00] END_REQSTACK()
```

### Event 65535.17

#### Metadata

| Field        | Value    |
|--------------|----------|
| Entrypoint   | 0x01E3   |
| Data Size    | 29 bytes |
| Instructions | 3        |

```
      00 01 02 03 04 05 06 07  08 09 0A 0B 0C 0D 0E 0F
      -- -- -- -- -- -- -- --  -- -- -- -- -- -- -- --
01E0:          5B 2A 80 F8 FF  FF 7F F8 FF FF 7F 73 77     [*.........sw
01F0: 6F 30 53 F8 FF FF 7F F8  FF FF 7F 73 77 6F 30 00  o0S........swo0.
```

#### Opcodes

```
  0: 0x01E3 [0x5B] LOAD_EXT_SCHEDULER: Load scheduler "swo0" with entities [EventEntity, EventEntity], work=140*
  1: 0x01F2 [0x53] WAIT_SCHEDULER_TASK: Wait for scheduler "swo0" with entities [EventEntity, EventEntity]
  2: 0x01FF [0x00] END_REQSTACK()
```

### Event 65535.18

#### Metadata

| Field        | Value    |
|--------------|----------|
| Entrypoint   | 0x0200   |
| Data Size    | 19 bytes |
| Instructions | 3        |

```
      00 01 02 03 04 05 06 07  08 09 0A 0B 0C 0D 0E 0F
      -- -- -- -- -- -- -- --  -- -- -- -- -- -- -- --
0200: 5B 09 80 F8 FF FF 7F F8  FF FF 7F 61 63 74 30 1C  [..........act0.
0210: 0B 80 00                                          ...             
```

#### Opcodes

```
  0: 0x0200 [0x5B] LOAD_EXT_SCHEDULER: Load scheduler "act0" with entities [EventEntity, EventEntity], work=142*
  1: 0x020F [0x1C] WAIT(90* ticks)
  2: 0x0212 [0x00] END_REQSTACK()
```

### Event 65535.19

#### Metadata

| Field        | Value    |
|--------------|----------|
| Entrypoint   | 0x0213   |
| Data Size    | 19 bytes |
| Instructions | 3        |

```
      00 01 02 03 04 05 06 07  08 09 0A 0B 0C 0D 0E 0F
      -- -- -- -- -- -- -- --  -- -- -- -- -- -- -- --
0210:          5B 09 80 F8 FF  FF 7F F8 FF FF 7F 61 63     [..........ac
0220: 74 31 1C 0B 80 00                                 t1....          
```

#### Opcodes

```
  0: 0x0213 [0x5B] LOAD_EXT_SCHEDULER: Load scheduler "act1" with entities [EventEntity, EventEntity], work=142*
  1: 0x0222 [0x1C] WAIT(90* ticks)
  2: 0x0225 [0x00] END_REQSTACK()
```

### Event 65535.20

#### Metadata

| Field        | Value    |
|--------------|----------|
| Entrypoint   | 0x0226   |
| Data Size    | 34 bytes |
| Instructions | 4        |

```
      00 01 02 03 04 05 06 07  08 09 0A 0B 0C 0D 0E 0F
      -- -- -- -- -- -- -- --  -- -- -- -- -- -- -- --
0220:                   7B F8  FF FF 7F 5B 09 80 F8 FF        {....[....
0230: FF 7F F8 FF FF 7F 61 63  74 32 53 F8 FF FF 7F F8  ......act2S.....
0240: FF FF 7F 61 63 74 32 00                           ...act2.        
```

#### Opcodes

```
  0: 0x0226 [0x7B] EventEntity stops talking
  1: 0x022B [0x5B] LOAD_EXT_SCHEDULER: Load scheduler "act2" with entities [EventEntity, EventEntity], work=142*
  2: 0x023A [0x53] WAIT_SCHEDULER_TASK: Wait for scheduler "act2" with entities [EventEntity, EventEntity]
  3: 0x0247 [0x00] END_REQSTACK()
```

### Event 65535.21

#### Metadata

| Field        | Value    |
|--------------|----------|
| Entrypoint   | 0x0248   |
| Data Size    | 16 bytes |
| Instructions | 6        |

```
      00 01 02 03 04 05 06 07  08 09 0A 0B 0C 0D 0E 0F
      -- -- -- -- -- -- -- --  -- -- -- -- -- -- -- --
0240:                          22 01 1C 16 80 5E 64 66          "....^df
0250: 74 30 39 3B 80 22 00 00                           t09;."..        
```

#### Opcodes

```
  0: 0x0248 [0x22] ENTITY_HIDE_FLAG(enabled=0x01)
  1: 0x024A [0x1C] WAIT(10* ticks)
  2: 0x024D [0x5E] EventEntity goes idle (kills current action) (animation: "dft0")
  3: 0x0252 [0x39] SET_ENTITY_DIRECTION(direction=2.9°*)
  4: 0x0255 [0x22] ENTITY_HIDE_FLAG(enabled=0x00)
  5: 0x0257 [0x00] END_REQSTACK()
```

### Event 65535.22

#### Metadata

| Field        | Value    |
|--------------|----------|
| Entrypoint   | 0x0258   |
| Data Size    | 14 bytes |
| Instructions | 4        |

```
      00 01 02 03 04 05 06 07  08 09 0A 0B 0C 0D 0E 0F
      -- -- -- -- -- -- -- --  -- -- -- -- -- -- -- --
0250:                          32 04 80 1F 00 3C 80 3D          2....<.=
0260: 80 25 80 1F 01 00                                 .%....          
```

#### Opcodes

```
  0: 0x0258 [0x32] ExtData[1]->MainSpeed = 40* * 0.1
  1: 0x025B [0x1F] MOVE_ENTITY: EventEntity moves to X=103.513*, Z=95.600*, Y=1.749*
  2: 0x0263 [0x1F] MOVE_ENTITY: Update entity position (mode=1)
  3: 0x0265 [0x00] END_REQSTACK()
```

### Event 65535.23

#### Metadata

| Field        | Value    |
|--------------|----------|
| Entrypoint   | 0x0266   |
| Data Size    | 29 bytes |
| Instructions | 3        |

```
      00 01 02 03 04 05 06 07  08 09 0A 0B 0C 0D 0E 0F
      -- -- -- -- -- -- -- --  -- -- -- -- -- -- -- --
0260:                   5B 2A  80 F8 FF FF 7F F8 FF FF        [*........
0270: 7F 73 77 6F 30 53 F8 FF  FF 7F F8 FF FF 7F 73 77  .swo0S........sw
0280: 6F 30 00                                          o0.             
```

#### Opcodes

```
  0: 0x0266 [0x5B] LOAD_EXT_SCHEDULER: Load scheduler "swo0" with entities [EventEntity, EventEntity], work=140*
  1: 0x0275 [0x53] WAIT_SCHEDULER_TASK: Wait for scheduler "swo0" with entities [EventEntity, EventEntity]
  2: 0x0282 [0x00] END_REQSTACK()
```

### Event 65535.24

#### Metadata

| Field        | Value    |
|--------------|----------|
| Entrypoint   | 0x0283   |
| Data Size    | 29 bytes |
| Instructions | 3        |

```
      00 01 02 03 04 05 06 07  08 09 0A 0B 0C 0D 0E 0F
      -- -- -- -- -- -- -- --  -- -- -- -- -- -- -- --
0280:          5B 2A 80 F8 FF  FF 7F F8 FF FF 7F 73 77     [*.........sw
0290: 6F 31 53 F8 FF FF 7F F8  FF FF 7F 73 77 6F 31 00  o1S........swo1.
```

#### Opcodes

```
  0: 0x0283 [0x5B] LOAD_EXT_SCHEDULER: Load scheduler "swo1" with entities [EventEntity, EventEntity], work=140*
  1: 0x0292 [0x53] WAIT_SCHEDULER_TASK: Wait for scheduler "swo1" with entities [EventEntity, EventEntity]
  2: 0x029F [0x00] END_REQSTACK()
```
