# 17723395 - Pieuje

## Common Data

| Field            | Value                         |
|------------------|-------------------------------|
| Zone             | Northern San d'Oria (ID: 231) |
| Block Size       | 2064 bytes                    |
| Total Events     | 88                            |
| References Count | 128                           |

## List of Events

| Event ID                   | Entrypoint   |   Size |   Instructions |
|----------------------------|--------------|--------|----------------|
| [65535](#event-65535)      | 0x0000       |      1 |              1 |
| [1](#event-1)              | 0x0001       |     10 |              2 |
| [65535.1](#event-655351)   | 0x000B       |     14 |              4 |
| [65535.2](#event-655352)   | 0x0019       |     19 |              3 |
| [65535.3](#event-655353)   | 0x002C       |      9 |              3 |
| [0](#event-0)              | 0x0035       |     13 |              3 |
| [65535.4](#event-655354)   | 0x0042       |     13 |              3 |
| [65535.5](#event-655355)   | 0x004F       |     20 |              4 |
| [50](#event-50)            | 0x0063       |     13 |              3 |
| [65535.6](#event-655356)   | 0x0070       |     17 |              5 |
| [65535.7](#event-655357)   | 0x0081       |     17 |              7 |
| [65535.8](#event-655358)   | 0x0092       |     12 |              4 |
| [65535.9](#event-655359)   | 0x009E       |     17 |              5 |
| [65535.10](#event-6553510) | 0x00AF       |     32 |              7 |
| [65535.11](#event-6553511) | 0x00CF       |     17 |              5 |
| [16](#event-16)            | 0x00E0       |     13 |              3 |
| [65535.12](#event-6553512) | 0x00ED       |     13 |              3 |
| [65535.13](#event-6553513) | 0x00FA       |     10 |              2 |
| [65535.14](#event-6553514) | 0x0104       |     20 |              6 |
| [65535.15](#event-6553515) | 0x0118       |     14 |              4 |
| [65535.16](#event-6553516) | 0x0126       |     17 |              5 |
| [7](#event-7)              | 0x0137       |     10 |              2 |
| [65535.17](#event-6553517) | 0x0141       |     24 |              6 |
| [65535.18](#event-6553518) | 0x0159       |     40 |              9 |
| [8](#event-8)              | 0x0181       |     10 |              2 |
| [65535.19](#event-6553519) | 0x018B       |     15 |              5 |
| [65535.20](#event-6553520) | 0x019A       |      9 |              3 |
| [65535.21](#event-6553521) | 0x01A3       |     19 |              7 |
| [65535.22](#event-6553522) | 0x01B6       |      6 |              2 |
| [65535.23](#event-6553523) | 0x01BC       |     22 |              6 |
| [65535.24](#event-6553524) | 0x01D2       |     16 |              4 |
| [65535.25](#event-6553525) | 0x01E2       |      6 |              2 |
| [65535.26](#event-6553526) | 0x01E8       |      6 |              2 |
| [65535.27](#event-6553527) | 0x01EE       |      6 |              2 |
| [65535.28](#event-6553528) | 0x01F4       |      9 |              3 |
| [65535.29](#event-6553529) | 0x01FD       |      9 |              3 |
| [65535.30](#event-6553530) | 0x0206       |      9 |              3 |
| [65535.31](#event-6553531) | 0x020F       |     25 |              7 |
| [683](#event-683)          | 0x0228       |      1 |              1 |
| [65535.32](#event-6553532) | 0x0229       |     38 |              8 |
| [65535.33](#event-6553533) | 0x024F       |     29 |              6 |
| [65535.34](#event-6553534) | 0x026C       |     21 |              6 |
| [65535.35](#event-6553535) | 0x0281       |     19 |              3 |
| [65535.36](#event-6553536) | 0x0294       |     29 |              3 |
| [65535.37](#event-6553537) | 0x02B1       |     19 |              3 |
| [65535.38](#event-6553538) | 0x02C4       |     19 |              3 |
| [65535.39](#event-6553539) | 0x02D7       |     16 |              2 |
| [65535.40](#event-6553540) | 0x02E7       |     14 |              2 |
| [65535.41](#event-6553541) | 0x02F5       |     16 |              2 |
| [65535.42](#event-6553542) | 0x0305       |     14 |              2 |
| [65535.43](#event-6553543) | 0x0313       |     16 |              2 |
| [65535.44](#event-6553544) | 0x0323       |     14 |              2 |
| [65535.45](#event-6553545) | 0x0331       |     16 |              2 |
| [65535.46](#event-6553546) | 0x0341       |     14 |              2 |
| [65535.47](#event-6553547) | 0x034F       |     16 |              2 |
| [65535.48](#event-6553548) | 0x035F       |     14 |              2 |
| [65535.49](#event-6553549) | 0x036D       |     16 |              2 |
| [65535.50](#event-6553550) | 0x037D       |     14 |              2 |
| [65535.51](#event-6553551) | 0x038B       |     16 |              2 |
| [65535.52](#event-6553552) | 0x039B       |     14 |              2 |
| [65535.53](#event-6553553) | 0x03A9       |     16 |              2 |
| [65535.54](#event-6553554) | 0x03B9       |     14 |              2 |
| [65535.55](#event-6553555) | 0x03C7       |     16 |              2 |
| [65535.56](#event-6553556) | 0x03D7       |     14 |              2 |
| [65535.57](#event-6553557) | 0x03E5       |     16 |              2 |
| [65535.58](#event-6553558) | 0x03F5       |     14 |              2 |
| [693](#event-693)          | 0x0403       |     10 |              2 |
| [65535.59](#event-6553559) | 0x040D       |     14 |              4 |
| [65535.60](#event-6553560) | 0x041B       |     14 |              4 |
| [65535.61](#event-6553561) | 0x0429       |      5 |              3 |
| [65535.62](#event-6553562) | 0x042E       |      5 |              3 |
| [65535.63](#event-6553563) | 0x0433       |      5 |              3 |
| [65535.64](#event-6553564) | 0x0438       |      5 |              3 |
| [65535.65](#event-6553565) | 0x043D       |      5 |              3 |
| [65535.66](#event-6553566) | 0x0442       |      5 |              3 |
| [65535.67](#event-6553567) | 0x0447       |      5 |              3 |
| [695](#event-695)          | 0x044C       |      1 |              1 |
| [65535.68](#event-6553568) | 0x044D       |     10 |              2 |
| [65535.69](#event-6553569) | 0x0457       |     14 |              4 |
| [65535.70](#event-6553570) | 0x0465       |     14 |              4 |
| [65535.71](#event-6553571) | 0x0473       |     14 |              3 |
| [65535.72](#event-6553572) | 0x0481       |      5 |              3 |
| [65535.73](#event-6553573) | 0x0486       |      5 |              3 |
| [65535.74](#event-6553574) | 0x048B       |      5 |              3 |
| [65535.75](#event-6553575) | 0x0490       |      5 |              3 |
| [65535.76](#event-6553576) | 0x0495       |      5 |              3 |
| [65535.77](#event-6553577) | 0x049A       |      5 |              3 |
| [866](#event-866)          | 0x049F       |      1 |              1 |

## DAT References (imed_data)

|   Index | Hex Value   |   Dec Value |
|---------|-------------|-------------|
|       0 | 0x213A7     |      136103 |
|       1 | 0x1EF32     |      126770 |
|       2 | 0x0000      |           0 |
|       3 | 0x0DEE      |        3566 |
|       4 | 0x000D      |          13 |
|       5 | 0x23F63     |      147299 |
|       6 | 0x21CAC     |      138412 |
|       7 | 0x24604     |      148996 |
|       8 | 0x21BCF     |      138191 |
|       9 | 0x054F      |        1359 |
|      10 | 0x32AD      |       12973 |
|      11 | 0x03E8      |        1000 |
|      12 | 0xFFFFDBFF  |  4294958079 |
|      13 | 0x0C0F      |        3087 |
|      14 | 0x4921      |       18721 |
|      15 | 0x050A      |        1290 |
|      16 | 0x1727C     |       94844 |
|      17 | 0x200D0     |      131280 |
|      18 | 0xFFFFF830  |  4294965296 |
|      19 | 0x20921     |      133409 |
|      20 | 0x1DAF8     |      121592 |
|      21 | 0xFFFFD508  |  4294956296 |
|      22 | 0x09D1      |        2513 |
|      23 | 0x2045D     |      132189 |
|      24 | 0x1E126     |      123174 |
|      25 | 0xFFFFD509  |  4294956297 |
|      26 | 0x1FFEC     |      131052 |
|      27 | 0x1E043     |      122947 |
|      28 | 0x05F3      |        1523 |
|      29 | 0x1F729     |      128809 |
|      30 | 0x1D83A     |      120890 |
|      31 | 0xFFFFD505  |  4294956293 |
|      32 | 0x1E692     |      124562 |
|      33 | 0x1C710     |      116496 |
|      34 | 0x1DE4C     |      122444 |
|      35 | 0x1BF97     |      114583 |
|      36 | 0x1D6F8     |      120568 |
|      37 | 0x1BF07     |      114439 |
|      38 | 0x1A30C     |      107276 |
|      39 | 0x183C8     |       99272 |
|      40 | 0xFFFFB2E6  |  4294947558 |
|      41 | 0x063C      |        1596 |
|      42 | 0x19B8D     |      105357 |
|      43 | 0x17FFC     |       98300 |
|      44 | 0x001E      |          30 |
|      45 | 0x1F4D5     |      128213 |
|      46 | 0x1D095     |      118933 |
|      47 | 0x0624      |        1572 |
|      48 | 0x000A      |          10 |
|      49 | 0x1B22A     |      111146 |
|      50 | 0x18D12     |      101650 |
|      51 | 0x04B0      |        1200 |
|      52 | 0x1874F     |      100175 |
|      53 | 0x1642A     |       91178 |
|      54 | 0x06D5      |        1749 |
|      55 | 0x060F      |        1551 |
|      56 | 0x0050      |          80 |
|      57 | 0x17D6B     |       97643 |
|      58 | 0x15A24     |       88612 |
|      59 | 0x179C6     |       96710 |
|      60 | 0x15644     |       87620 |
|      61 | 0x0017      |          23 |
|      62 | 0x174FB     |       95483 |
|      63 | 0x151F8     |       86520 |
|      64 | 0x1E0B4     |      123060 |
|      65 | 0x1CA0A     |      117258 |
|      66 | 0x0EFD      |        3837 |
|      67 | 0x1E92B     |      125227 |
|      68 | 0x1CA04     |      117252 |
|      69 | 0x1FAF2     |      129778 |
|      70 | 0x1DBD3     |      121811 |
|      71 | 0x0078      |         120 |
|      72 | 0x201FE     |      131582 |
|      73 | 0x1E39E     |      123806 |
|      74 | 0x20E73     |      134771 |
|      75 | 0x1D728     |      120616 |
|      76 | 0x2001D     |      131101 |
|      77 | 0x1E0C5     |      123077 |
|      78 | 0x0613      |        1555 |
|      79 | 0x1F899     |      129177 |
|      80 | 0x1D901     |      121089 |
|      81 | 0x31A5      |       12709 |
|      82 | 0x1F2D8     |      127704 |
|      83 | 0x1DAFF     |      121599 |
|      84 | 0xFFFFF448  |  4294964296 |
|      85 | 0xFFFFD6FC  |  4294956796 |
|      86 | 0xFFFE6FAE  |  4294864814 |
|      87 | 0xFFFE0E2F  |  4294839855 |
|      88 | 0xFFFFE0C0  |  4294959296 |
|      89 | 0x003C      |          60 |
|      90 | 0xFFFFBCD6  |  4294950102 |
|      91 | 0x1EC3F     |      126015 |
|      92 | 0x18126     |       98598 |
|      93 | 0xFFFFE69D  |  4294960797 |
|      94 | 0x029F      |         671 |
|      95 | 0x1EF6B     |      126827 |
|      96 | 0x17A26     |       96806 |
|      97 | 0x1F95B     |      129371 |
|      98 | 0x17A04     |       96772 |
|      99 | 0x209E0     |      133600 |
|     100 | 0x174B9     |       95417 |
|     101 | 0x0079      |         121 |
|     102 | 0x2108A     |      135306 |
|     103 | 0x1F36B     |      127851 |
|     104 | 0x0E27      |        3623 |
|     105 | 0x23966     |      145766 |
|     106 | 0x21B93     |      138131 |
|     107 | 0x2298A     |      141706 |
|     108 | 0x20F1D     |      134941 |
|     109 | 0x310F      |       12559 |
|     110 | 0x3112      |       12562 |
|     111 | 0x3114      |       12564 |
|     112 | 0x3116      |       12566 |
|     113 | 0x3118      |       12568 |
|     114 | 0x3119      |       12569 |
|     115 | 0x311A      |       12570 |
|     116 | 0x1E121     |      123169 |
|     117 | 0x1BCDB     |      113883 |
|     118 | 0x1E415     |      123925 |
|     119 | 0x1C55C     |      116060 |
|     120 | 0x1E85F     |      125023 |
|     121 | 0x1CA08     |      117256 |
|     122 | 0x3120      |       12576 |
|     123 | 0x3123      |       12579 |
|     124 | 0x3125      |       12581 |
|     125 | 0x3127      |       12583 |
|     126 | 0x3129      |       12585 |
|     127 | 0x312B      |       12587 |

## String References

- **12559**: Vicasque Arnau, I've come to talk to you about the missing acolyte. It seems his disappearance may not have been the Orcs' doing after all.
- **12562**: You speak the truth, Your Holiness. The citadel cannot be emptied of Temple Knights for so uncertain a cause.
- **12564**: No, of course not. I have decided to send an adventurer. If [he/she] finds that Orcs do hold the boy, then the Temple Knights will be there to claim him.
- **12566**: By the way, who have you been talking with?
- **12568**: Well, that's perfect. I shall order you to undertake this mission.
- **12569**: Infiltrate Ghelsba, and determine whether they hold this Tedimout captive. I've heard they keep prisoners in a small hut somewhere.
- **12570**: Once you know, notify a Temple Knight. Now, go!
- **12576**: We can negotiate with the Orcs once we know what they want, but I loathe the prospect of sending Temple Knights to scout.
- **12579**: I understand. We must first find what the Orcs know of Paradise's gates.
- **12581**: Hm? Is someone there?
- **12583**: No, it is all right, Your Holiness.
- **12585**: So... The Orcs are searching for something. What it is we cannot say. This requires further delving.
- **12587**: Thank you, <Player>. I will inform the gatehouse knight that your mission is complete.

## Events

### Event 65535

#### Metadata

| Field        | Value   |
|--------------|---------|
| Entrypoint   | 0x0000  |
| Data Size    | 1 bytes |
| Instructions | 1       |

```
      00 01 02 03 04 05 06 07  08 09 0A 0B 0C 0D 0E 0F
      -- -- -- -- -- -- -- --  -- -- -- -- -- -- -- --
0000: 00                                                .               
```

#### Opcodes

```
  0: 0x0000 [0x00] END_REQSTACK()
```

### Event 1

#### Metadata

| Field        | Value    |
|--------------|----------|
| Entrypoint   | 0x0001   |
| Data Size    | 10 bytes |
| Instructions | 2        |

```
      00 01 02 03 04 05 06 07  08 09 0A 0B 0C 0D 0E 0F
      -- -- -- -- -- -- -- --  -- -- -- -- -- -- -- --
0000:    37 00 80 01 80 02 80  03 80 00                  7.........     
```

#### Opcodes

```
  0: 0x0001 [0x37] UPDATE_EVENT_POSITION_AND_DIR: x=136.103*, z=126.770*, y=0.000*, direction=313.4°*
  1: 0x000A [0x00] END_REQSTACK()
```

### Event 65535.1

#### Metadata

| Field        | Value    |
|--------------|----------|
| Entrypoint   | 0x000B   |
| Data Size    | 14 bytes |
| Instructions | 4        |

```
      00 01 02 03 04 05 06 07  08 09 0A 0B 0C 0D 0E 0F
      -- -- -- -- -- -- -- --  -- -- -- -- -- -- -- --
0000:                                   32 04 80 1F 00             2....
0010: 05 80 06 80 02 80 1F 01  00                       .........       
```

#### Opcodes

```
  0: 0x000B [0x32] ExtData[1]->MainSpeed = 13* * 0.1
  1: 0x000E [0x1F] MOVE_ENTITY: EventEntity moves to X=147.299*, Z=138.412*, Y=0.000*
  2: 0x0016 [0x1F] MOVE_ENTITY: Update entity position (mode=1)
  3: 0x0018 [0x00] END_REQSTACK()
```

### Event 65535.2

#### Metadata

| Field        | Value    |
|--------------|----------|
| Entrypoint   | 0x0019   |
| Data Size    | 19 bytes |
| Instructions | 3        |

```
      00 01 02 03 04 05 06 07  08 09 0A 0B 0C 0D 0E 0F
      -- -- -- -- -- -- -- --  -- -- -- -- -- -- -- --
0010:                             37 07 80 08 80 02 80           7......
0020: 09 80 4A 03 70 0E 01 CF  70 0E 01 00              ..J.p...p...    
```

#### Opcodes

```
  0: 0x0019 [0x37] UPDATE_EVENT_POSITION_AND_DIR: x=148.996*, z=138.191*, y=0.000*, direction=119.4°*
  1: 0x0022 [0x4A] Pieuje (ID: 17723395/0x010E7003) looks at Rochefogne (ID: 17723599/0x010E70CF)
  2: 0x002B [0x00] END_REQSTACK()
```

### Event 65535.3

#### Metadata

| Field        | Value   |
|--------------|---------|
| Entrypoint   | 0x002C  |
| Data Size    | 9 bytes |
| Instructions | 3       |

```
      00 01 02 03 04 05 06 07  08 09 0A 0B 0C 0D 0E 0F
      -- -- -- -- -- -- -- --  -- -- -- -- -- -- -- --
0020:                                      2B 02 70 0E              +.p.
0030: 01 0A 80 23 00                                    ...#.           
```

#### Opcodes

```
  0: 0x002C [0x2B] Trion (ID: 17723394/0x010E7002) [12973*]:
    → "THREE!"
  1: 0x0033 [0x23] WAIT_FOR_DIALOG_INTERACTION
  2: 0x0034 [0x00] END_REQSTACK()
```

### Event 0

#### Metadata

| Field        | Value    |
|--------------|----------|
| Entrypoint   | 0x0035   |
| Data Size    | 13 bytes |
| Instructions | 3        |

```
      00 01 02 03 04 05 06 07  08 09 0A 0B 0C 0D 0E 0F
      -- -- -- -- -- -- -- --  -- -- -- -- -- -- -- --
0030:                37 0B 80  0C 80 02 80 0D 80 32 04       7........2.
0040: 80 00                                             ..              
```

#### Opcodes

```
  0: 0x0035 [0x37] UPDATE_EVENT_POSITION_AND_DIR: x=1.000*, z=-9.217*, y=0.000*, direction=271.3°*
  1: 0x003E [0x32] ExtData[1]->MainSpeed = 13* * 0.1
  2: 0x0041 [0x00] END_REQSTACK()
```

### Event 65535.4

#### Metadata

| Field        | Value    |
|--------------|----------|
| Entrypoint   | 0x0042   |
| Data Size    | 13 bytes |
| Instructions | 3        |

```
      00 01 02 03 04 05 06 07  08 09 0A 0B 0C 0D 0E 0F
      -- -- -- -- -- -- -- --  -- -- -- -- -- -- -- --
0040:       31 00 0B 80 0E 80  02 80 0F 80 31 01 00       1.........1.. 
```

#### Opcodes

```
  0: 0x0042 [0x31] UPDATE_ENTITY_POSITION: Set EventEntity goal position to X=1.000*, Z=18.721*, Y=0.000*, Time=1290*
  1: 0x004C [0x31] UPDATE_ENTITY_POSITION: Move EventEntity towards goal position
  2: 0x004E [0x00] END_REQSTACK()
```

### Event 65535.5

#### Metadata

| Field        | Value    |
|--------------|----------|
| Entrypoint   | 0x004F   |
| Data Size    | 20 bytes |
| Instructions | 4        |

```
      00 01 02 03 04 05 06 07  08 09 0A 0B 0C 0D 0E 0F
      -- -- -- -- -- -- -- --  -- -- -- -- -- -- -- --
0040:                                               37                 7
0050: 0B 80 10 80 02 80 0D 80  1F 00 0B 80 11 80 12 80  ................
0060: 1F 01 00                                          ...             
```

#### Opcodes

```
  0: 0x004F [0x37] UPDATE_EVENT_POSITION_AND_DIR: x=1.000*, z=94.844*, y=0.000*, direction=271.3°*
  1: 0x0058 [0x1F] MOVE_ENTITY: EventEntity moves to X=1.000*, Z=131.280*, Y=-2.000*
  2: 0x0060 [0x1F] MOVE_ENTITY: Update entity position (mode=1)
  3: 0x0062 [0x00] END_REQSTACK()
```

### Event 50

#### Metadata

| Field        | Value    |
|--------------|----------|
| Entrypoint   | 0x0063   |
| Data Size    | 13 bytes |
| Instructions | 3        |

```
      00 01 02 03 04 05 06 07  08 09 0A 0B 0C 0D 0E 0F
      -- -- -- -- -- -- -- --  -- -- -- -- -- -- -- --
0060:          37 13 80 14 80  15 80 16 80 32 04 80 00     7........2...
```

#### Opcodes

```
  0: 0x0063 [0x37] UPDATE_EVENT_POSITION_AND_DIR: x=133.409*, z=121.592*, y=-11.000*, direction=220.9°*
  1: 0x006C [0x32] ExtData[1]->MainSpeed = 13* * 0.1
  2: 0x006F [0x00] END_REQSTACK()
```

### Event 65535.6

#### Metadata

| Field        | Value    |
|--------------|----------|
| Entrypoint   | 0x0070   |
| Data Size    | 17 bytes |
| Instructions | 5        |

```
      00 01 02 03 04 05 06 07  08 09 0A 0B 0C 0D 0E 0F
      -- -- -- -- -- -- -- --  -- -- -- -- -- -- -- --
0070: 1F 00 17 80 18 80 19 80  1F 01 6F 1E F0 FF FF 7F  ..........o.....
0080: 00                                                .               
```

#### Opcodes

```
  0: 0x0070 [0x1F] MOVE_ENTITY: EventEntity moves to X=132.189*, Z=123.174*, Y=-10.999*
  1: 0x0078 [0x1F] MOVE_ENTITY: Update entity position (mode=1)
  2: 0x007A [0x6F] WAIT_FRAME_DELAY: Yield until WaitTime reaches zero
  3: 0x007B [0x1E] EventEntity looks at LocalPlayer and starts talking
  4: 0x0080 [0x00] END_REQSTACK()
```

### Event 65535.7

#### Metadata

| Field        | Value    |
|--------------|----------|
| Entrypoint   | 0x0081   |
| Data Size    | 17 bytes |
| Instructions | 7        |

```
      00 01 02 03 04 05 06 07  08 09 0A 0B 0C 0D 0E 0F
      -- -- -- -- -- -- -- --  -- -- -- -- -- -- -- --
0080:    1F 00 1A 80 1B 80 15  80 1F 01 6F 39 1C 80 6F   ..........o9..o
0090: 70 00                                             p.              
```

#### Opcodes

```
  0: 0x0081 [0x1F] MOVE_ENTITY: EventEntity moves to X=131.052*, Z=122.947*, Y=-11.000*
  1: 0x0089 [0x1F] MOVE_ENTITY: Update entity position (mode=1)
  2: 0x008B [0x6F] WAIT_FRAME_DELAY: Yield until WaitTime reaches zero
  3: 0x008C [0x39] SET_ENTITY_DIRECTION(direction=8.4°*)
  4: 0x008F [0x6F] WAIT_FRAME_DELAY: Yield until WaitTime reaches zero
  5: 0x0090 [0x70] WAIT_ENTITY_RENDER_FLAG: Wait while EventEntity->Render.Flags3 bit 2 is set (cancel turn if not)
  6: 0x0091 [0x00] END_REQSTACK()
```

### Event 65535.8

#### Metadata

| Field        | Value    |
|--------------|----------|
| Entrypoint   | 0x0092   |
| Data Size    | 12 bytes |
| Instructions | 4        |

```
      00 01 02 03 04 05 06 07  08 09 0A 0B 0C 0D 0E 0F
      -- -- -- -- -- -- -- --  -- -- -- -- -- -- -- --
0090:       1F 00 1D 80 1E 80  1F 80 1F 01 6F 00          ..........o.  
```

#### Opcodes

```
  0: 0x0092 [0x1F] MOVE_ENTITY: EventEntity moves to X=128.809*, Z=120.890*, Y=-11.003*
  1: 0x009A [0x1F] MOVE_ENTITY: Update entity position (mode=1)
  2: 0x009C [0x6F] WAIT_FRAME_DELAY: Yield until WaitTime reaches zero
  3: 0x009D [0x00] END_REQSTACK()
```

### Event 65535.9

#### Metadata

| Field        | Value    |
|--------------|----------|
| Entrypoint   | 0x009E   |
| Data Size    | 17 bytes |
| Instructions | 5        |

```
      00 01 02 03 04 05 06 07  08 09 0A 0B 0C 0D 0E 0F
      -- -- -- -- -- -- -- --  -- -- -- -- -- -- -- --
0090:                                            1F 00                ..
00A0: 20 80 21 80 1F 80 1F 01  6F 1E 10 70 0E 01 00      .!.....o..p... 
```

#### Opcodes

```
  0: 0x009E [0x1F] MOVE_ENTITY: EventEntity moves to X=124.562*, Z=116.496*, Y=-11.003*
  1: 0x00A6 [0x1F] MOVE_ENTITY: Update entity position (mode=1)
  2: 0x00A8 [0x6F] WAIT_FRAME_DELAY: Yield until WaitTime reaches zero
  3: 0x00A9 [0x1E] EventEntity looks at Shamonde (ID: 17723408/0x010E7010) and starts talking
  4: 0x00AE [0x00] END_REQSTACK()
```

### Event 65535.10

#### Metadata

| Field        | Value    |
|--------------|----------|
| Entrypoint   | 0x00AF   |
| Data Size    | 32 bytes |
| Instructions | 7        |

```
      00 01 02 03 04 05 06 07  08 09 0A 0B 0C 0D 0E 0F
      -- -- -- -- -- -- -- --  -- -- -- -- -- -- -- --
00A0:                                               1F                 .
00B0: 00 22 80 23 80 1F 80 1F  01 1F 00 24 80 25 80 1F  .".#.......$.%..
00C0: 80 1F 01 33 01 37 26 80  27 80 28 80 29 80 00     ...3.7&.'.(.).. 
```

#### Opcodes

```
  0: 0x00AF [0x1F] MOVE_ENTITY: EventEntity moves to X=122.444*, Z=114.583*, Y=-11.003*
  1: 0x00B7 [0x1F] MOVE_ENTITY: Update entity position (mode=1)
  2: 0x00B9 [0x1F] MOVE_ENTITY: EventEntity moves to X=120.568*, Z=114.439*, Y=-11.003*
  3: 0x00C1 [0x1F] MOVE_ENTITY: Update entity position (mode=1)
  4: 0x00C3 [0x33] EventEntity->Render.Flags0 |= 0x200000 // Bit 21 (flag=0x01)
  5: 0x00C5 [0x37] UPDATE_EVENT_POSITION_AND_DIR: x=107.276*, z=99.272*, y=-19.738*, direction=140.3°*
  6: 0x00CE [0x00] END_REQSTACK()
```

### Event 65535.11

#### Metadata

| Field        | Value    |
|--------------|----------|
| Entrypoint   | 0x00CF   |
| Data Size    | 17 bytes |
| Instructions | 5        |

```
      00 01 02 03 04 05 06 07  08 09 0A 0B 0C 0D 0E 0F
      -- -- -- -- -- -- -- --  -- -- -- -- -- -- -- --
00C0:                                               5A                 Z
00D0: 00 2A 80 2B 80 28 80 5A  01 1C 2C 80 39 29 80 00  .*.+.(.Z..,.9)..
```

#### Opcodes

```
  0: 0x00CF [0x5A] UPDATE_EVENT_POSITION: Set EventEntity MovePosition to X=105.357*, Z=98.300*, Y=-19.738*
  1: 0x00D7 [0x5A] UPDATE_EVENT_POSITION: Move EventEntity incrementally towards MovePosition
  2: 0x00D9 [0x1C] WAIT(30* ticks)
  3: 0x00DC [0x39] SET_ENTITY_DIRECTION(direction=8.8°*)
  4: 0x00DF [0x00] END_REQSTACK()
```

### Event 16

#### Metadata

| Field        | Value    |
|--------------|----------|
| Entrypoint   | 0x00E0   |
| Data Size    | 13 bytes |
| Instructions | 3        |

```
      00 01 02 03 04 05 06 07  08 09 0A 0B 0C 0D 0E 0F
      -- -- -- -- -- -- -- --  -- -- -- -- -- -- -- --
00E0: 37 2D 80 2E 80 02 80 2F  80 32 30 80 00           7-...../.20..   
```

#### Opcodes

```
  0: 0x00E0 [0x37] UPDATE_EVENT_POSITION_AND_DIR: x=128.213*, z=118.933*, y=0.000*, direction=138.2°*
  1: 0x00E9 [0x32] ExtData[1]->MainSpeed = 10* * 0.1
  2: 0x00EC [0x00] END_REQSTACK()
```

### Event 65535.12

#### Metadata

| Field        | Value    |
|--------------|----------|
| Entrypoint   | 0x00ED   |
| Data Size    | 13 bytes |
| Instructions | 3        |

```
      00 01 02 03 04 05 06 07  08 09 0A 0B 0C 0D 0E 0F
      -- -- -- -- -- -- -- --  -- -- -- -- -- -- -- --
00E0:                                         31 00 31               1.1
00F0: 80 32 80 02 80 33 80 31  01 00                    .2...3.1..      
```

#### Opcodes

```
  0: 0x00ED [0x31] UPDATE_ENTITY_POSITION: Set EventEntity goal position to X=111.146*, Z=101.650*, Y=0.000*, Time=1200*
  1: 0x00F7 [0x31] UPDATE_ENTITY_POSITION: Move EventEntity towards goal position
  2: 0x00F9 [0x00] END_REQSTACK()
```

### Event 65535.13

#### Metadata

| Field        | Value    |
|--------------|----------|
| Entrypoint   | 0x00FA   |
| Data Size    | 10 bytes |
| Instructions | 2        |

```
      00 01 02 03 04 05 06 07  08 09 0A 0B 0C 0D 0E 0F
      -- -- -- -- -- -- -- --  -- -- -- -- -- -- -- --
00F0:                                37 34 80 35 80 36            74.5.6
0100: 80 37 80 00                                       .7..            
```

#### Opcodes

```
  0: 0x00FA [0x37] UPDATE_EVENT_POSITION_AND_DIR: x=100.175*, z=91.178*, y=1.749*, direction=136.3°*
  1: 0x0103 [0x00] END_REQSTACK()
```

### Event 65535.14

#### Metadata

| Field        | Value    |
|--------------|----------|
| Entrypoint   | 0x0104   |
| Data Size    | 20 bytes |
| Instructions | 6        |

```
      00 01 02 03 04 05 06 07  08 09 0A 0B 0C 0D 0E 0F
      -- -- -- -- -- -- -- --  -- -- -- -- -- -- -- --
0100:             1C 38 80 1F  00 39 80 3A 80 36 80 1F      .8...9.:.6..
0110: 01 6F 1E C5 70 0E 01 00                           .o..p...        
```

#### Opcodes

```
  0: 0x0104 [0x1C] WAIT(80* ticks)
  1: 0x0107 [0x1F] MOVE_ENTITY: EventEntity moves to X=97.643*, Z=88.612*, Y=1.749*
  2: 0x010F [0x1F] MOVE_ENTITY: Update entity position (mode=1)
  3: 0x0111 [0x6F] WAIT_FRAME_DELAY: Yield until WaitTime reaches zero
  4: 0x0112 [0x1E] EventEntity looks at Rochefogne (ID: 17723589/0x010E70C5) and starts talking
  5: 0x0117 [0x00] END_REQSTACK()
```

### Event 65535.15

#### Metadata

| Field        | Value    |
|--------------|----------|
| Entrypoint   | 0x0118   |
| Data Size    | 14 bytes |
| Instructions | 4        |

```
      00 01 02 03 04 05 06 07  08 09 0A 0B 0C 0D 0E 0F
      -- -- -- -- -- -- -- --  -- -- -- -- -- -- -- --
0110:                          32 04 80 1F 00 3B 80 3C          2....;.<
0120: 80 36 80 1F 01 00                                 .6....          
```

#### Opcodes

```
  0: 0x0118 [0x32] ExtData[1]->MainSpeed = 13* * 0.1
  1: 0x011B [0x1F] MOVE_ENTITY: EventEntity moves to X=96.710*, Z=87.620*, Y=1.749*
  2: 0x0123 [0x1F] MOVE_ENTITY: Update entity position (mode=1)
  3: 0x0125 [0x00] END_REQSTACK()
```

### Event 65535.16

#### Metadata

| Field        | Value    |
|--------------|----------|
| Entrypoint   | 0x0126   |
| Data Size    | 17 bytes |
| Instructions | 5        |

```
      00 01 02 03 04 05 06 07  08 09 0A 0B 0C 0D 0E 0F
      -- -- -- -- -- -- -- --  -- -- -- -- -- -- -- --
0120:                   1C 30  80 32 3D 80 1F 00 3E 80        .0.2=...>.
0130: 3F 80 36 80 1F 01 00                              ?.6....         
```

#### Opcodes

```
  0: 0x0126 [0x1C] WAIT(10* ticks)
  1: 0x0129 [0x32] ExtData[1]->MainSpeed = 23* * 0.1
  2: 0x012C [0x1F] MOVE_ENTITY: EventEntity moves to X=95.483*, Z=86.520*, Y=1.749*
  3: 0x0134 [0x1F] MOVE_ENTITY: Update entity position (mode=1)
  4: 0x0136 [0x00] END_REQSTACK()
```

### Event 7

#### Metadata

| Field        | Value    |
|--------------|----------|
| Entrypoint   | 0x0137   |
| Data Size    | 10 bytes |
| Instructions | 2        |

```
      00 01 02 03 04 05 06 07  08 09 0A 0B 0C 0D 0E 0F
      -- -- -- -- -- -- -- --  -- -- -- -- -- -- -- --
0130:                      37  40 80 41 80 1F 80 42 80         7@.A...B.
0140: 00                                                .               
```

#### Opcodes

```
  0: 0x0137 [0x37] UPDATE_EVENT_POSITION_AND_DIR: x=123.060*, z=117.258*, y=-11.003*, direction=337.2°*
  1: 0x0140 [0x00] END_REQSTACK()
```

### Event 65535.17

#### Metadata

| Field        | Value    |
|--------------|----------|
| Entrypoint   | 0x0141   |
| Data Size    | 24 bytes |
| Instructions | 6        |

```
      00 01 02 03 04 05 06 07  08 09 0A 0B 0C 0D 0E 0F
      -- -- -- -- -- -- -- --  -- -- -- -- -- -- -- --
0140:    32 04 80 1F 00 43 80  44 80 1F 80 1F 01 1F 00   2....C.D.......
0150: 45 80 46 80 15 80 1F 01  00                       E.F......       
```

#### Opcodes

```
  0: 0x0141 [0x32] ExtData[1]->MainSpeed = 13* * 0.1
  1: 0x0144 [0x1F] MOVE_ENTITY: EventEntity moves to X=125.227*, Z=117.252*, Y=-11.003*
  2: 0x014C [0x1F] MOVE_ENTITY: Update entity position (mode=1)
  3: 0x014E [0x1F] MOVE_ENTITY: EventEntity moves to X=129.778*, Z=121.811*, Y=-11.000*
  4: 0x0156 [0x1F] MOVE_ENTITY: Update entity position (mode=1)
  5: 0x0158 [0x00] END_REQSTACK()
```

### Event 65535.18

#### Metadata

| Field        | Value    |
|--------------|----------|
| Entrypoint   | 0x0159   |
| Data Size    | 40 bytes |
| Instructions | 9        |

```
      00 01 02 03 04 05 06 07  08 09 0A 0B 0C 0D 0E 0F
      -- -- -- -- -- -- -- --  -- -- -- -- -- -- -- --
0150:                             27 03 9C 70 0E 01 02           '..p...
0160: 1C 47 80 1F 00 48 80 49  80 15 80 1F 01 27 03 9C  .G...H.I.....'..
0170: 70 0E 01 04 1F 00 4A 80  4B 80 15 80 1F 01 22 01  p.....J.K.....".
0180: 00                                                .               
```

#### Opcodes

```
  0: 0x0159 [0x27] REQ_SET(priority=0x03, entity_id=Door:Papal Chambers (ID: 17723548/0x010E709C), tag_num=0x02)
  1: 0x0160 [0x1C] WAIT(120* ticks)
  2: 0x0163 [0x1F] MOVE_ENTITY: EventEntity moves to X=131.582*, Z=123.806*, Y=-11.000*
  3: 0x016B [0x1F] MOVE_ENTITY: Update entity position (mode=1)
  4: 0x016D [0x27] REQ_SET(priority=0x03, entity_id=Door:Papal Chambers (ID: 17723548/0x010E709C), tag_num=0x04)
  5: 0x0174 [0x1F] MOVE_ENTITY: EventEntity moves to X=134.771*, Z=120.616*, Y=-11.000*
  6: 0x017C [0x1F] MOVE_ENTITY: Update entity position (mode=1)
  7: 0x017E [0x22] ENTITY_HIDE_FLAG(enabled=0x01)
  8: 0x0180 [0x00] END_REQSTACK()
```

### Event 8

#### Metadata

| Field        | Value    |
|--------------|----------|
| Entrypoint   | 0x0181   |
| Data Size    | 10 bytes |
| Instructions | 2        |

```
      00 01 02 03 04 05 06 07  08 09 0A 0B 0C 0D 0E 0F
      -- -- -- -- -- -- -- --  -- -- -- -- -- -- -- --
0180:    37 4C 80 4D 80 19 80  4E 80 00                  7L.M...N..     
```

#### Opcodes

```
  0: 0x0181 [0x37] UPDATE_EVENT_POSITION_AND_DIR: x=131.101*, z=123.077*, y=-10.999*, direction=136.7°*
  1: 0x018A [0x00] END_REQSTACK()
```

### Event 65535.19

#### Metadata

| Field        | Value    |
|--------------|----------|
| Entrypoint   | 0x018B   |
| Data Size    | 15 bytes |
| Instructions | 5        |

```
      00 01 02 03 04 05 06 07  08 09 0A 0B 0C 0D 0E 0F
      -- -- -- -- -- -- -- --  -- -- -- -- -- -- -- --
0180:                                   32 04 80 1F 00             2....
0190: 4F 80 50 80 15 80 1F 01  6F 00                    O.P.....o.      
```

#### Opcodes

```
  0: 0x018B [0x32] ExtData[1]->MainSpeed = 13* * 0.1
  1: 0x018E [0x1F] MOVE_ENTITY: EventEntity moves to X=129.177*, Z=121.089*, Y=-11.000*
  2: 0x0196 [0x1F] MOVE_ENTITY: Update entity position (mode=1)
  3: 0x0198 [0x6F] WAIT_FRAME_DELAY: Yield until WaitTime reaches zero
  4: 0x0199 [0x00] END_REQSTACK()
```

### Event 65535.20

#### Metadata

| Field        | Value   |
|--------------|---------|
| Entrypoint   | 0x019A  |
| Data Size    | 9 bytes |
| Instructions | 3       |

```
      00 01 02 03 04 05 06 07  08 09 0A 0B 0C 0D 0E 0F
      -- -- -- -- -- -- -- --  -- -- -- -- -- -- -- --
0190:                                2B 10 70 0E 01 51            +.p..Q
01A0: 80 23 00                                          .#.             
```

#### Opcodes

```
  0: 0x019A [0x2B] Shamonde (ID: 17723408/0x010E7010) [12709*]:
    → "Prince Pieuje, <Player> retrieved this stone tablet from deep within the oubliette."
  1: 0x01A1 [0x23] WAIT_FOR_DIALOG_INTERACTION
  2: 0x01A2 [0x00] END_REQSTACK()
```

### Event 65535.21

#### Metadata

| Field        | Value    |
|--------------|----------|
| Entrypoint   | 0x01A3   |
| Data Size    | 19 bytes |
| Instructions | 7        |

```
      00 01 02 03 04 05 06 07  08 09 0A 0B 0C 0D 0E 0F
      -- -- -- -- -- -- -- --  -- -- -- -- -- -- -- --
01A0:          1F 00 52 80 53  80 1F 80 1F 01 6F 1E 03     ..R.S.....o..
01B0: 70 0E 01 6F 70 00                                 p..op.          
```

#### Opcodes

```
  0: 0x01A3 [0x1F] MOVE_ENTITY: EventEntity moves to X=127.704*, Z=121.599*, Y=-11.003*
  1: 0x01AB [0x1F] MOVE_ENTITY: Update entity position (mode=1)
  2: 0x01AD [0x6F] WAIT_FRAME_DELAY: Yield until WaitTime reaches zero
  3: 0x01AE [0x1E] EventEntity looks at Pieuje (ID: 17723395/0x010E7003) and starts talking
  4: 0x01B3 [0x6F] WAIT_FRAME_DELAY: Yield until WaitTime reaches zero
  5: 0x01B4 [0x70] WAIT_ENTITY_RENDER_FLAG: Wait while EventEntity->Render.Flags3 bit 2 is set (cancel turn if not)
  6: 0x01B5 [0x00] END_REQSTACK()
```

### Event 65535.22

#### Metadata

| Field        | Value   |
|--------------|---------|
| Entrypoint   | 0x01B6  |
| Data Size    | 6 bytes |
| Instructions | 2       |

```
      00 01 02 03 04 05 06 07  08 09 0A 0B 0C 0D 0E 0F
      -- -- -- -- -- -- -- --  -- -- -- -- -- -- -- --
01B0:                   5E 69  64 6C 30 00                    ^idl0.    
```

#### Opcodes

```
  0: 0x01B6 [0x5E] EventEntity goes idle (kills current action) (animation: "idl0")
  1: 0x01BB [0x00] END_REQSTACK()
```

### Event 65535.23

#### Metadata

| Field        | Value    |
|--------------|----------|
| Entrypoint   | 0x01BC   |
| Data Size    | 22 bytes |
| Instructions | 6        |

```
      00 01 02 03 04 05 06 07  08 09 0A 0B 0C 0D 0E 0F
      -- -- -- -- -- -- -- --  -- -- -- -- -- -- -- --
01B0:                                      2F 00 03 70              /..p
01C0: 0E 01 22 00 32 04 80 1F  00 54 80 55 80 02 80 1F  ..".2....T.U....
01D0: 01 00                                             ..              
```

#### Opcodes

```
  0: 0x01BC [0x2F] Pieuje (ID: 17723395/0x010E7003)->Render.Flags0 &= ~0x80000 // Bit 19
  1: 0x01C2 [0x22] ENTITY_HIDE_FLAG(enabled=0x00)
  2: 0x01C4 [0x32] ExtData[1]->MainSpeed = 13* * 0.1
  3: 0x01C7 [0x1F] MOVE_ENTITY: EventEntity moves to X=-3.000*, Z=-10.500*, Y=0.000*
  4: 0x01CF [0x1F] MOVE_ENTITY: Update entity position (mode=1)
  5: 0x01D1 [0x00] END_REQSTACK()
```

### Event 65535.24

#### Metadata

| Field        | Value    |
|--------------|----------|
| Entrypoint   | 0x01D2   |
| Data Size    | 16 bytes |
| Instructions | 4        |

```
      00 01 02 03 04 05 06 07  08 09 0A 0B 0C 0D 0E 0F
      -- -- -- -- -- -- -- --  -- -- -- -- -- -- -- --
01D0:       1F 00 56 80 57 80  58 80 1F 01 1E 02 70 0E    ..V.W.X.....p.
01E0: 01 00                                             ..              
```

#### Opcodes

```
  0: 0x01D2 [0x1F] MOVE_ENTITY: EventEntity moves to X=-102.482*, Z=-127.441*, Y=-8.000*
  1: 0x01DA [0x1F] MOVE_ENTITY: Update entity position (mode=1)
  2: 0x01DC [0x1E] EventEntity looks at Trion (ID: 17723394/0x010E7002) and starts talking
  3: 0x01E1 [0x00] END_REQSTACK()
```

### Event 65535.25

#### Metadata

| Field        | Value   |
|--------------|---------|
| Entrypoint   | 0x01E2  |
| Data Size    | 6 bytes |
| Instructions | 2       |

```
      00 01 02 03 04 05 06 07  08 09 0A 0B 0C 0D 0E 0F
      -- -- -- -- -- -- -- --  -- -- -- -- -- -- -- --
01E0:       1E 01 70 0E 01 00                             ..p...        
```

#### Opcodes

```
  0: 0x01E2 [0x1E] EventEntity looks at Nonterene (ID: 17723393/0x010E7001) and starts talking
  1: 0x01E7 [0x00] END_REQSTACK()
```

### Event 65535.26

#### Metadata

| Field        | Value   |
|--------------|---------|
| Entrypoint   | 0x01E8  |
| Data Size    | 6 bytes |
| Instructions | 2       |

```
      00 01 02 03 04 05 06 07  08 09 0A 0B 0C 0D 0E 0F
      -- -- -- -- -- -- -- --  -- -- -- -- -- -- -- --
01E0:                          1E F0 FF FF 7F 00                ......  
```

#### Opcodes

```
  0: 0x01E8 [0x1E] EventEntity looks at LocalPlayer and starts talking
  1: 0x01ED [0x00] END_REQSTACK()
```

### Event 65535.27

#### Metadata

| Field        | Value   |
|--------------|---------|
| Entrypoint   | 0x01EE  |
| Data Size    | 6 bytes |
| Instructions | 2       |

```
      00 01 02 03 04 05 06 07  08 09 0A 0B 0C 0D 0E 0F
      -- -- -- -- -- -- -- --  -- -- -- -- -- -- -- --
01E0:                                            1E 02                ..
01F0: 70 0E 01 00                                       p...            
```

#### Opcodes

```
  0: 0x01EE [0x1E] EventEntity looks at Trion (ID: 17723394/0x010E7002) and starts talking
  1: 0x01F3 [0x00] END_REQSTACK()
```

### Event 65535.28

#### Metadata

| Field        | Value   |
|--------------|---------|
| Entrypoint   | 0x01F4  |
| Data Size    | 9 bytes |
| Instructions | 3       |

```
      00 01 02 03 04 05 06 07  08 09 0A 0B 0C 0D 0E 0F
      -- -- -- -- -- -- -- --  -- -- -- -- -- -- -- --
01F0:             1C 59 80 1E  01 70 0E 01 00               .Y...p...   
```

#### Opcodes

```
  0: 0x01F4 [0x1C] WAIT(60* ticks)
  1: 0x01F7 [0x1E] EventEntity looks at Nonterene (ID: 17723393/0x010E7001) and starts talking
  2: 0x01FC [0x00] END_REQSTACK()
```

### Event 65535.29

#### Metadata

| Field        | Value   |
|--------------|---------|
| Entrypoint   | 0x01FD  |
| Data Size    | 9 bytes |
| Instructions | 3       |

```
      00 01 02 03 04 05 06 07  08 09 0A 0B 0C 0D 0E 0F
      -- -- -- -- -- -- -- --  -- -- -- -- -- -- -- --
01F0:                                         1C 59 80               .Y.
0200: 1E F0 FF FF 7F 00                                 ......          
```

#### Opcodes

```
  0: 0x01FD [0x1C] WAIT(60* ticks)
  1: 0x0200 [0x1E] EventEntity looks at LocalPlayer and starts talking
  2: 0x0205 [0x00] END_REQSTACK()
```

### Event 65535.30

#### Metadata

| Field        | Value   |
|--------------|---------|
| Entrypoint   | 0x0206  |
| Data Size    | 9 bytes |
| Instructions | 3       |

```
      00 01 02 03 04 05 06 07  08 09 0A 0B 0C 0D 0E 0F
      -- -- -- -- -- -- -- --  -- -- -- -- -- -- -- --
0200:                   1C 59  80 1E 02 70 0E 01 00           .Y...p... 
```

#### Opcodes

```
  0: 0x0206 [0x1C] WAIT(60* ticks)
  1: 0x0209 [0x1E] EventEntity looks at Trion (ID: 17723394/0x010E7002) and starts talking
  2: 0x020E [0x00] END_REQSTACK()
```

### Event 65535.31

#### Metadata

| Field        | Value    |
|--------------|----------|
| Entrypoint   | 0x020F   |
| Data Size    | 25 bytes |
| Instructions | 7        |

```
      00 01 02 03 04 05 06 07  08 09 0A 0B 0C 0D 0E 0F
      -- -- -- -- -- -- -- --  -- -- -- -- -- -- -- --
0200:                                               32                 2
0210: 04 80 1C 59 80 1F 00 54  80 5A 80 02 80 1F 01 2F  ...Y...T.Z...../
0220: 01 03 70 0E 01 22 01 00                           ..p.."..        
```

#### Opcodes

```
  0: 0x020F [0x32] ExtData[1]->MainSpeed = 13* * 0.1
  1: 0x0212 [0x1C] WAIT(60* ticks)
  2: 0x0215 [0x1F] MOVE_ENTITY: EventEntity moves to X=-3.000*, Z=-17.194*, Y=0.000*
  3: 0x021D [0x1F] MOVE_ENTITY: Update entity position (mode=1)
  4: 0x021F [0x2F] Pieuje (ID: 17723395/0x010E7003)->Render.Flags0 |= 0x80000 // Bit 19
  5: 0x0225 [0x22] ENTITY_HIDE_FLAG(enabled=0x01)
  6: 0x0227 [0x00] END_REQSTACK()
```

### Event 683

#### Metadata

| Field        | Value   |
|--------------|---------|
| Entrypoint   | 0x0228  |
| Data Size    | 1 bytes |
| Instructions | 1       |

```
      00 01 02 03 04 05 06 07  08 09 0A 0B 0C 0D 0E 0F
      -- -- -- -- -- -- -- --  -- -- -- -- -- -- -- --
0220:                          00                               .       
```

#### Opcodes

```
  0: 0x0228 [0x00] END_REQSTACK()
```

### Event 65535.32

#### Metadata

| Field        | Value    |
|--------------|----------|
| Entrypoint   | 0x0229   |
| Data Size    | 38 bytes |
| Instructions | 8        |

```
      00 01 02 03 04 05 06 07  08 09 0A 0B 0C 0D 0E 0F
      -- -- -- -- -- -- -- --  -- -- -- -- -- -- -- --
0220:                             22 00 79 00 F8 FF FF           ".y....
0230: 7F AE 70 0E 01 32 04 80  37 5B 80 5C 80 5D 80 5E  ..p..2..7[.\.].^
0240: 80 1C 30 80 1F 00 5F 80  60 80 5D 80 1F 01 00     ..0..._.`.].... 
```

#### Opcodes

```
  0: 0x0229 [0x22] ENTITY_HIDE_FLAG(enabled=0x00)
  1: 0x022B [0x79] EventEntity looks at Eperdur (ID: 17723566/0x010E70AE) (Basic look)
  2: 0x0235 [0x32] ExtData[1]->MainSpeed = 13* * 0.1
  3: 0x0238 [0x37] UPDATE_EVENT_POSITION_AND_DIR: x=126.015*, z=98.598*, y=-6.499*, direction=59.0°*
  4: 0x0241 [0x1C] WAIT(10* ticks)
  5: 0x0244 [0x1F] MOVE_ENTITY: EventEntity moves to X=126.827*, Z=96.806*, Y=-6.499*
  6: 0x024C [0x1F] MOVE_ENTITY: Update entity position (mode=1)
  7: 0x024E [0x00] END_REQSTACK()
```

### Event 65535.33

#### Metadata

| Field        | Value    |
|--------------|----------|
| Entrypoint   | 0x024F   |
| Data Size    | 29 bytes |
| Instructions | 6        |

```
      00 01 02 03 04 05 06 07  08 09 0A 0B 0C 0D 0E 0F
      -- -- -- -- -- -- -- --  -- -- -- -- -- -- -- --
0240:                                               32                 2
0250: 04 80 79 00 F8 FF FF 7F  F0 FF FF 7F 1F 00 61 80  ..y...........a.
0260: 62 80 5D 80 1F 01 1E F0  FF FF 7F 00              b.].........    
```

#### Opcodes

```
  0: 0x024F [0x32] ExtData[1]->MainSpeed = 13* * 0.1
  1: 0x0252 [0x79] EventEntity looks at LocalPlayer (Basic look)
  2: 0x025C [0x1F] MOVE_ENTITY: EventEntity moves to X=129.371*, Z=96.772*, Y=-6.499*
  3: 0x0264 [0x1F] MOVE_ENTITY: Update entity position (mode=1)
  4: 0x0266 [0x1E] EventEntity looks at LocalPlayer and starts talking
  5: 0x026B [0x00] END_REQSTACK()
```

### Event 65535.34

#### Metadata

| Field        | Value    |
|--------------|----------|
| Entrypoint   | 0x026C   |
| Data Size    | 21 bytes |
| Instructions | 6        |

```
      00 01 02 03 04 05 06 07  08 09 0A 0B 0C 0D 0E 0F
      -- -- -- -- -- -- -- --  -- -- -- -- -- -- -- --
0260:                                      7B F8 FF FF              {...
0270: 7F 32 04 80 1F 00 63 80  64 80 5D 80 1F 01 22 01  .2....c.d.]...".
0280: 00                                                .               
```

#### Opcodes

```
  0: 0x026C [0x7B] EventEntity stops talking
  1: 0x0271 [0x32] ExtData[1]->MainSpeed = 13* * 0.1
  2: 0x0274 [0x1F] MOVE_ENTITY: EventEntity moves to X=133.600*, Z=95.417*, Y=-6.499*
  3: 0x027C [0x1F] MOVE_ENTITY: Update entity position (mode=1)
  4: 0x027E [0x22] ENTITY_HIDE_FLAG(enabled=0x01)
  5: 0x0280 [0x00] END_REQSTACK()
```

### Event 65535.35

#### Metadata

| Field        | Value    |
|--------------|----------|
| Entrypoint   | 0x0281   |
| Data Size    | 19 bytes |
| Instructions | 3        |

```
      00 01 02 03 04 05 06 07  08 09 0A 0B 0C 0D 0E 0F
      -- -- -- -- -- -- -- --  -- -- -- -- -- -- -- --
0280:    5B 47 80 F8 FF FF 7F  F8 FF FF 7F 74 6C 6B 30   [G.........tlk0
0290: 1C 59 80 00                                       .Y..            
```

#### Opcodes

```
  0: 0x0281 [0x5B] LOAD_EXT_SCHEDULER: Load scheduler "tlk0" with entities [EventEntity, EventEntity], work=120*
  1: 0x0290 [0x1C] WAIT(60* ticks)
  2: 0x0293 [0x00] END_REQSTACK()
```

### Event 65535.36

#### Metadata

| Field        | Value    |
|--------------|----------|
| Entrypoint   | 0x0294   |
| Data Size    | 29 bytes |
| Instructions | 3        |

```
      00 01 02 03 04 05 06 07  08 09 0A 0B 0C 0D 0E 0F
      -- -- -- -- -- -- -- --  -- -- -- -- -- -- -- --
0290:             5B 47 80 F8  FF FF 7F F8 FF FF 7F 74      [G.........t
02A0: 6C 6B 31 53 F8 FF FF 7F  F8 FF FF 7F 74 6C 6B 31  lk1S........tlk1
02B0: 00                                                .               
```

#### Opcodes

```
  0: 0x0294 [0x5B] LOAD_EXT_SCHEDULER: Load scheduler "tlk1" with entities [EventEntity, EventEntity], work=120*
  1: 0x02A3 [0x53] WAIT_SCHEDULER_TASK: Wait for scheduler "tlk1" with entities [EventEntity, EventEntity]
  2: 0x02B0 [0x00] END_REQSTACK()
```

### Event 65535.37

#### Metadata

| Field        | Value    |
|--------------|----------|
| Entrypoint   | 0x02B1   |
| Data Size    | 19 bytes |
| Instructions | 3        |

```
      00 01 02 03 04 05 06 07  08 09 0A 0B 0C 0D 0E 0F
      -- -- -- -- -- -- -- --  -- -- -- -- -- -- -- --
02B0:    5B 65 80 F8 FF FF 7F  F8 FF FF 7F 74 68 6B 30   [e.........thk0
02C0: 1C 59 80 00                                       .Y..            
```

#### Opcodes

```
  0: 0x02B1 [0x5B] LOAD_EXT_SCHEDULER: Load scheduler "thk0" with entities [EventEntity, EventEntity], work=121*
  1: 0x02C0 [0x1C] WAIT(60* ticks)
  2: 0x02C3 [0x00] END_REQSTACK()
```

### Event 65535.38

#### Metadata

| Field        | Value    |
|--------------|----------|
| Entrypoint   | 0x02C4   |
| Data Size    | 19 bytes |
| Instructions | 3        |

```
      00 01 02 03 04 05 06 07  08 09 0A 0B 0C 0D 0E 0F
      -- -- -- -- -- -- -- --  -- -- -- -- -- -- -- --
02C0:             5B 65 80 F8  FF FF 7F F8 FF FF 7F 74      [e.........t
02D0: 68 6B 31 1C 47 80 00                              hk1.G..         
```

#### Opcodes

```
  0: 0x02C4 [0x5B] LOAD_EXT_SCHEDULER: Load scheduler "thk1" with entities [EventEntity, EventEntity], work=121*
  1: 0x02D3 [0x1C] WAIT(120* ticks)
  2: 0x02D6 [0x00] END_REQSTACK()
```

### Event 65535.39

#### Metadata

| Field        | Value    |
|--------------|----------|
| Entrypoint   | 0x02D7   |
| Data Size    | 16 bytes |
| Instructions | 2        |

```
      00 01 02 03 04 05 06 07  08 09 0A 0B 0C 0D 0E 0F
      -- -- -- -- -- -- -- --  -- -- -- -- -- -- -- --
02D0:                      5B  47 80 F8 FF FF 7F F8 FF         [G.......
02E0: FF 7F 74 6C 6B 30 00                              ..tlk0.         
```

#### Opcodes

```
  0: 0x02D7 [0x5B] LOAD_EXT_SCHEDULER: Load scheduler "tlk0" with entities [EventEntity, EventEntity], work=120*
  1: 0x02E6 [0x00] END_REQSTACK()
```

### Event 65535.40

#### Metadata

| Field        | Value    |
|--------------|----------|
| Entrypoint   | 0x02E7   |
| Data Size    | 14 bytes |
| Instructions | 2        |

```
      00 01 02 03 04 05 06 07  08 09 0A 0B 0C 0D 0E 0F
      -- -- -- -- -- -- -- --  -- -- -- -- -- -- -- --
02E0:                      53  F8 FF FF 7F F8 FF FF 7F         S........
02F0: 74 6C 6B 30 00                                    tlk0.           
```

#### Opcodes

```
  0: 0x02E7 [0x53] WAIT_SCHEDULER_TASK: Wait for scheduler "tlk0" with entities [EventEntity, EventEntity]
  1: 0x02F4 [0x00] END_REQSTACK()
```

### Event 65535.41

#### Metadata

| Field        | Value    |
|--------------|----------|
| Entrypoint   | 0x02F5   |
| Data Size    | 16 bytes |
| Instructions | 2        |

```
      00 01 02 03 04 05 06 07  08 09 0A 0B 0C 0D 0E 0F
      -- -- -- -- -- -- -- --  -- -- -- -- -- -- -- --
02F0:                5B 47 80  F8 FF FF 7F F8 FF FF 7F       [G.........
0300: 74 6C 6B 31 00                                    tlk1.           
```

#### Opcodes

```
  0: 0x02F5 [0x5B] LOAD_EXT_SCHEDULER: Load scheduler "tlk1" with entities [EventEntity, EventEntity], work=120*
  1: 0x0304 [0x00] END_REQSTACK()
```

### Event 65535.42

#### Metadata

| Field        | Value    |
|--------------|----------|
| Entrypoint   | 0x0305   |
| Data Size    | 14 bytes |
| Instructions | 2        |

```
      00 01 02 03 04 05 06 07  08 09 0A 0B 0C 0D 0E 0F
      -- -- -- -- -- -- -- --  -- -- -- -- -- -- -- --
0300:                53 F8 FF  FF 7F F8 FF FF 7F 74 6C       S........tl
0310: 6B 31 00                                          k1.             
```

#### Opcodes

```
  0: 0x0305 [0x53] WAIT_SCHEDULER_TASK: Wait for scheduler "tlk1" with entities [EventEntity, EventEntity]
  1: 0x0312 [0x00] END_REQSTACK()
```

### Event 65535.43

#### Metadata

| Field        | Value    |
|--------------|----------|
| Entrypoint   | 0x0313   |
| Data Size    | 16 bytes |
| Instructions | 2        |

```
      00 01 02 03 04 05 06 07  08 09 0A 0B 0C 0D 0E 0F
      -- -- -- -- -- -- -- --  -- -- -- -- -- -- -- --
0310:          5B 47 80 F8 FF  FF 7F F8 FF FF 7F 6C 61     [G.........la
0320: 75 30 00                                          u0.             
```

#### Opcodes

```
  0: 0x0313 [0x5B] LOAD_EXT_SCHEDULER: Load scheduler "lau0" with entities [EventEntity, EventEntity], work=120*
  1: 0x0322 [0x00] END_REQSTACK()
```

### Event 65535.44

#### Metadata

| Field        | Value    |
|--------------|----------|
| Entrypoint   | 0x0323   |
| Data Size    | 14 bytes |
| Instructions | 2        |

```
      00 01 02 03 04 05 06 07  08 09 0A 0B 0C 0D 0E 0F
      -- -- -- -- -- -- -- --  -- -- -- -- -- -- -- --
0320:          53 F8 FF FF 7F  F8 FF FF 7F 6C 61 75 30     S........lau0
0330: 00                                                .               
```

#### Opcodes

```
  0: 0x0323 [0x53] WAIT_SCHEDULER_TASK: Wait for scheduler "lau0" with entities [EventEntity, EventEntity]
  1: 0x0330 [0x00] END_REQSTACK()
```

### Event 65535.45

#### Metadata

| Field        | Value    |
|--------------|----------|
| Entrypoint   | 0x0331   |
| Data Size    | 16 bytes |
| Instructions | 2        |

```
      00 01 02 03 04 05 06 07  08 09 0A 0B 0C 0D 0E 0F
      -- -- -- -- -- -- -- --  -- -- -- -- -- -- -- --
0330:    5B 47 80 F8 FF FF 7F  F8 FF FF 7F 6C 61 75 31   [G.........lau1
0340: 00                                                .               
```

#### Opcodes

```
  0: 0x0331 [0x5B] LOAD_EXT_SCHEDULER: Load scheduler "lau1" with entities [EventEntity, EventEntity], work=120*
  1: 0x0340 [0x00] END_REQSTACK()
```

### Event 65535.46

#### Metadata

| Field        | Value    |
|--------------|----------|
| Entrypoint   | 0x0341   |
| Data Size    | 14 bytes |
| Instructions | 2        |

```
      00 01 02 03 04 05 06 07  08 09 0A 0B 0C 0D 0E 0F
      -- -- -- -- -- -- -- --  -- -- -- -- -- -- -- --
0340:    53 F8 FF FF 7F F8 FF  FF 7F 6C 61 75 31 00      S........lau1. 
```

#### Opcodes

```
  0: 0x0341 [0x53] WAIT_SCHEDULER_TASK: Wait for scheduler "lau1" with entities [EventEntity, EventEntity]
  1: 0x034E [0x00] END_REQSTACK()
```

### Event 65535.47

#### Metadata

| Field        | Value    |
|--------------|----------|
| Entrypoint   | 0x034F   |
| Data Size    | 16 bytes |
| Instructions | 2        |

```
      00 01 02 03 04 05 06 07  08 09 0A 0B 0C 0D 0E 0F
      -- -- -- -- -- -- -- --  -- -- -- -- -- -- -- --
0340:                                               5B                 [
0350: 47 80 F8 FF FF 7F F8 FF  FF 7F 61 72 61 30 00     G.........ara0. 
```

#### Opcodes

```
  0: 0x034F [0x5B] LOAD_EXT_SCHEDULER: Load scheduler "ara0" with entities [EventEntity, EventEntity], work=120*
  1: 0x035E [0x00] END_REQSTACK()
```

### Event 65535.48

#### Metadata

| Field        | Value    |
|--------------|----------|
| Entrypoint   | 0x035F   |
| Data Size    | 14 bytes |
| Instructions | 2        |

```
      00 01 02 03 04 05 06 07  08 09 0A 0B 0C 0D 0E 0F
      -- -- -- -- -- -- -- --  -- -- -- -- -- -- -- --
0350:                                               53                 S
0360: F8 FF FF 7F F8 FF FF 7F  61 72 61 30 00           ........ara0.   
```

#### Opcodes

```
  0: 0x035F [0x53] WAIT_SCHEDULER_TASK: Wait for scheduler "ara0" with entities [EventEntity, EventEntity]
  1: 0x036C [0x00] END_REQSTACK()
```

### Event 65535.49

#### Metadata

| Field        | Value    |
|--------------|----------|
| Entrypoint   | 0x036D   |
| Data Size    | 16 bytes |
| Instructions | 2        |

```
      00 01 02 03 04 05 06 07  08 09 0A 0B 0C 0D 0E 0F
      -- -- -- -- -- -- -- --  -- -- -- -- -- -- -- --
0360:                                         5B 47 80               [G.
0370: F8 FF FF 7F F8 FF FF 7F  61 72 61 31 00           ........ara1.   
```

#### Opcodes

```
  0: 0x036D [0x5B] LOAD_EXT_SCHEDULER: Load scheduler "ara1" with entities [EventEntity, EventEntity], work=120*
  1: 0x037C [0x00] END_REQSTACK()
```

### Event 65535.50

#### Metadata

| Field        | Value    |
|--------------|----------|
| Entrypoint   | 0x037D   |
| Data Size    | 14 bytes |
| Instructions | 2        |

```
      00 01 02 03 04 05 06 07  08 09 0A 0B 0C 0D 0E 0F
      -- -- -- -- -- -- -- --  -- -- -- -- -- -- -- --
0370:                                         53 F8 FF               S..
0380: FF 7F F8 FF FF 7F 61 72  61 31 00                 ......ara1.     
```

#### Opcodes

```
  0: 0x037D [0x53] WAIT_SCHEDULER_TASK: Wait for scheduler "ara1" with entities [EventEntity, EventEntity]
  1: 0x038A [0x00] END_REQSTACK()
```

### Event 65535.51

#### Metadata

| Field        | Value    |
|--------------|----------|
| Entrypoint   | 0x038B   |
| Data Size    | 16 bytes |
| Instructions | 2        |

```
      00 01 02 03 04 05 06 07  08 09 0A 0B 0C 0D 0E 0F
      -- -- -- -- -- -- -- --  -- -- -- -- -- -- -- --
0380:                                   5B 65 80 F8 FF             [e...
0390: FF 7F F8 FF FF 7F 70 75  69 30 00                 ......pui0.     
```

#### Opcodes

```
  0: 0x038B [0x5B] LOAD_EXT_SCHEDULER: Load scheduler "pui0" with entities [EventEntity, EventEntity], work=121*
  1: 0x039A [0x00] END_REQSTACK()
```

### Event 65535.52

#### Metadata

| Field        | Value    |
|--------------|----------|
| Entrypoint   | 0x039B   |
| Data Size    | 14 bytes |
| Instructions | 2        |

```
      00 01 02 03 04 05 06 07  08 09 0A 0B 0C 0D 0E 0F
      -- -- -- -- -- -- -- --  -- -- -- -- -- -- -- --
0390:                                   53 F8 FF FF 7F             S....
03A0: F8 FF FF 7F 70 75 69 30  00                       ....pui0.       
```

#### Opcodes

```
  0: 0x039B [0x53] WAIT_SCHEDULER_TASK: Wait for scheduler "pui0" with entities [EventEntity, EventEntity]
  1: 0x03A8 [0x00] END_REQSTACK()
```

### Event 65535.53

#### Metadata

| Field        | Value    |
|--------------|----------|
| Entrypoint   | 0x03A9   |
| Data Size    | 16 bytes |
| Instructions | 2        |

```
      00 01 02 03 04 05 06 07  08 09 0A 0B 0C 0D 0E 0F
      -- -- -- -- -- -- -- --  -- -- -- -- -- -- -- --
03A0:                             5B 65 80 F8 FF FF 7F           [e.....
03B0: F8 FF FF 7F 70 75 69 31  00                       ....pui1.       
```

#### Opcodes

```
  0: 0x03A9 [0x5B] LOAD_EXT_SCHEDULER: Load scheduler "pui1" with entities [EventEntity, EventEntity], work=121*
  1: 0x03B8 [0x00] END_REQSTACK()
```

### Event 65535.54

#### Metadata

| Field        | Value    |
|--------------|----------|
| Entrypoint   | 0x03B9   |
| Data Size    | 14 bytes |
| Instructions | 2        |

```
      00 01 02 03 04 05 06 07  08 09 0A 0B 0C 0D 0E 0F
      -- -- -- -- -- -- -- --  -- -- -- -- -- -- -- --
03B0:                             53 F8 FF FF 7F F8 FF           S......
03C0: FF 7F 70 75 69 31 00                              ..pui1.         
```

#### Opcodes

```
  0: 0x03B9 [0x53] WAIT_SCHEDULER_TASK: Wait for scheduler "pui1" with entities [EventEntity, EventEntity]
  1: 0x03C6 [0x00] END_REQSTACK()
```

### Event 65535.55

#### Metadata

| Field        | Value    |
|--------------|----------|
| Entrypoint   | 0x03C7   |
| Data Size    | 16 bytes |
| Instructions | 2        |

```
      00 01 02 03 04 05 06 07  08 09 0A 0B 0C 0D 0E 0F
      -- -- -- -- -- -- -- --  -- -- -- -- -- -- -- --
03C0:                      5B  65 80 F8 FF FF 7F F8 FF         [e.......
03D0: FF 7F 74 68 6B 30 00                              ..thk0.         
```

#### Opcodes

```
  0: 0x03C7 [0x5B] LOAD_EXT_SCHEDULER: Load scheduler "thk0" with entities [EventEntity, EventEntity], work=121*
  1: 0x03D6 [0x00] END_REQSTACK()
```

### Event 65535.56

#### Metadata

| Field        | Value    |
|--------------|----------|
| Entrypoint   | 0x03D7   |
| Data Size    | 14 bytes |
| Instructions | 2        |

```
      00 01 02 03 04 05 06 07  08 09 0A 0B 0C 0D 0E 0F
      -- -- -- -- -- -- -- --  -- -- -- -- -- -- -- --
03D0:                      53  F8 FF FF 7F F8 FF FF 7F         S........
03E0: 74 68 6B 30 00                                    thk0.           
```

#### Opcodes

```
  0: 0x03D7 [0x53] WAIT_SCHEDULER_TASK: Wait for scheduler "thk0" with entities [EventEntity, EventEntity]
  1: 0x03E4 [0x00] END_REQSTACK()
```

### Event 65535.57

#### Metadata

| Field        | Value    |
|--------------|----------|
| Entrypoint   | 0x03E5   |
| Data Size    | 16 bytes |
| Instructions | 2        |

```
      00 01 02 03 04 05 06 07  08 09 0A 0B 0C 0D 0E 0F
      -- -- -- -- -- -- -- --  -- -- -- -- -- -- -- --
03E0:                5B 65 80  F8 FF FF 7F F8 FF FF 7F       [e.........
03F0: 74 68 6B 31 00                                    thk1.           
```

#### Opcodes

```
  0: 0x03E5 [0x5B] LOAD_EXT_SCHEDULER: Load scheduler "thk1" with entities [EventEntity, EventEntity], work=121*
  1: 0x03F4 [0x00] END_REQSTACK()
```

### Event 65535.58

#### Metadata

| Field        | Value    |
|--------------|----------|
| Entrypoint   | 0x03F5   |
| Data Size    | 14 bytes |
| Instructions | 2        |

```
      00 01 02 03 04 05 06 07  08 09 0A 0B 0C 0D 0E 0F
      -- -- -- -- -- -- -- --  -- -- -- -- -- -- -- --
03F0:                53 F8 FF  FF 7F F8 FF FF 7F 74 68       S........th
0400: 6B 31 00                                          k1.             
```

#### Opcodes

```
  0: 0x03F5 [0x53] WAIT_SCHEDULER_TASK: Wait for scheduler "thk1" with entities [EventEntity, EventEntity]
  1: 0x0402 [0x00] END_REQSTACK()
```

### Event 693

#### Metadata

| Field        | Value    |
|--------------|----------|
| Entrypoint   | 0x0403   |
| Data Size    | 10 bytes |
| Instructions | 2        |

```
      00 01 02 03 04 05 06 07  08 09 0A 0B 0C 0D 0E 0F
      -- -- -- -- -- -- -- --  -- -- -- -- -- -- -- --
0400:          37 66 80 67 80  02 80 68 80 00              7f.g...h..   
```

#### Opcodes

```
  0: 0x0403 [0x37] UPDATE_EVENT_POSITION_AND_DIR: x=135.306*, z=127.851*, y=0.000*, direction=318.4°*
  1: 0x040C [0x00] END_REQSTACK()
```

### Event 65535.59

#### Metadata

| Field        | Value    |
|--------------|----------|
| Entrypoint   | 0x040D   |
| Data Size    | 14 bytes |
| Instructions | 4        |

```
      00 01 02 03 04 05 06 07  08 09 0A 0B 0C 0D 0E 0F
      -- -- -- -- -- -- -- --  -- -- -- -- -- -- -- --
0400:                                         32 04 80               2..
0410: 1F 00 69 80 6A 80 02 80  1F 01 00                 ..i.j......     
```

#### Opcodes

```
  0: 0x040D [0x32] ExtData[1]->MainSpeed = 13* * 0.1
  1: 0x0410 [0x1F] MOVE_ENTITY: EventEntity moves to X=145.766*, Z=138.131*, Y=0.000*
  2: 0x0418 [0x1F] MOVE_ENTITY: Update entity position (mode=1)
  3: 0x041A [0x00] END_REQSTACK()
```

### Event 65535.60

#### Metadata

| Field        | Value    |
|--------------|----------|
| Entrypoint   | 0x041B   |
| Data Size    | 14 bytes |
| Instructions | 4        |

```
      00 01 02 03 04 05 06 07  08 09 0A 0B 0C 0D 0E 0F
      -- -- -- -- -- -- -- --  -- -- -- -- -- -- -- --
0410:                                   32 04 80 1F 00             2....
0420: 6B 80 6C 80 02 80 1F 01  00                       k.l......       
```

#### Opcodes

```
  0: 0x041B [0x32] ExtData[1]->MainSpeed = 13* * 0.1
  1: 0x041E [0x1F] MOVE_ENTITY: EventEntity moves to X=141.706*, Z=134.941*, Y=0.000*
  2: 0x0426 [0x1F] MOVE_ENTITY: Update entity position (mode=1)
  3: 0x0428 [0x00] END_REQSTACK()
```

### Event 65535.61

#### Metadata

| Field        | Value   |
|--------------|---------|
| Entrypoint   | 0x0429  |
| Data Size    | 5 bytes |
| Instructions | 3       |

```
      00 01 02 03 04 05 06 07  08 09 0A 0B 0C 0D 0E 0F
      -- -- -- -- -- -- -- --  -- -- -- -- -- -- -- --
0420:                             1D 6D 80 23 00                 .m.#.  
```

#### Opcodes

```
  0: 0x0429 [0x1D] PRINT_EVENT_MESSAGE(message_id=12559*)
    → "Vicasque Arnau, I've come to talk to you about the missing acolyte. It seems his disappearance may not have been the Orcs' doing after all."
  1: 0x042C [0x23] WAIT_FOR_DIALOG_INTERACTION
  2: 0x042D [0x00] END_REQSTACK()
```

### Event 65535.62

#### Metadata

| Field        | Value   |
|--------------|---------|
| Entrypoint   | 0x042E  |
| Data Size    | 5 bytes |
| Instructions | 3       |

```
      00 01 02 03 04 05 06 07  08 09 0A 0B 0C 0D 0E 0F
      -- -- -- -- -- -- -- --  -- -- -- -- -- -- -- --
0420:                                            1D 6E                .n
0430: 80 23 00                                          .#.             
```

#### Opcodes

```
  0: 0x042E [0x1D] PRINT_EVENT_MESSAGE(message_id=12562*)
    → "You speak the truth, Your Holiness. The citadel cannot be emptied of Temple Knights for so uncertain a cause."
  1: 0x0431 [0x23] WAIT_FOR_DIALOG_INTERACTION
  2: 0x0432 [0x00] END_REQSTACK()
```

### Event 65535.63

#### Metadata

| Field        | Value   |
|--------------|---------|
| Entrypoint   | 0x0433  |
| Data Size    | 5 bytes |
| Instructions | 3       |

```
      00 01 02 03 04 05 06 07  08 09 0A 0B 0C 0D 0E 0F
      -- -- -- -- -- -- -- --  -- -- -- -- -- -- -- --
0430:          1D 6F 80 23 00                              .o.#.        
```

#### Opcodes

```
  0: 0x0433 [0x1D] PRINT_EVENT_MESSAGE(message_id=12564*)
    → "No, of course not. I have decided to send an adventurer. If [he/she] finds that Orcs do hold the boy, then the Temple Knights will be there to claim him."
  1: 0x0436 [0x23] WAIT_FOR_DIALOG_INTERACTION
  2: 0x0437 [0x00] END_REQSTACK()
```

### Event 65535.64

#### Metadata

| Field        | Value   |
|--------------|---------|
| Entrypoint   | 0x0438  |
| Data Size    | 5 bytes |
| Instructions | 3       |

```
      00 01 02 03 04 05 06 07  08 09 0A 0B 0C 0D 0E 0F
      -- -- -- -- -- -- -- --  -- -- -- -- -- -- -- --
0430:                          1D 70 80 23 00                   .p.#.   
```

#### Opcodes

```
  0: 0x0438 [0x1D] PRINT_EVENT_MESSAGE(message_id=12566*)
    → "By the way, who have you been talking with?"
  1: 0x043B [0x23] WAIT_FOR_DIALOG_INTERACTION
  2: 0x043C [0x00] END_REQSTACK()
```

### Event 65535.65

#### Metadata

| Field        | Value   |
|--------------|---------|
| Entrypoint   | 0x043D  |
| Data Size    | 5 bytes |
| Instructions | 3       |

```
      00 01 02 03 04 05 06 07  08 09 0A 0B 0C 0D 0E 0F
      -- -- -- -- -- -- -- --  -- -- -- -- -- -- -- --
0430:                                         1D 71 80               .q.
0440: 23 00                                             #.              
```

#### Opcodes

```
  0: 0x043D [0x1D] PRINT_EVENT_MESSAGE(message_id=12568*)
    → "Well, that's perfect. I shall order you to undertake this mission."
  1: 0x0440 [0x23] WAIT_FOR_DIALOG_INTERACTION
  2: 0x0441 [0x00] END_REQSTACK()
```

### Event 65535.66

#### Metadata

| Field        | Value   |
|--------------|---------|
| Entrypoint   | 0x0442  |
| Data Size    | 5 bytes |
| Instructions | 3       |

```
      00 01 02 03 04 05 06 07  08 09 0A 0B 0C 0D 0E 0F
      -- -- -- -- -- -- -- --  -- -- -- -- -- -- -- --
0440:       1D 72 80 23 00                                .r.#.         
```

#### Opcodes

```
  0: 0x0442 [0x1D] PRINT_EVENT_MESSAGE(message_id=12569*)
    → "Infiltrate Ghelsba, and determine whether they hold this Tedimout captive. I've heard they keep prisoners in a small hut somewhere."
  1: 0x0445 [0x23] WAIT_FOR_DIALOG_INTERACTION
  2: 0x0446 [0x00] END_REQSTACK()
```

### Event 65535.67

#### Metadata

| Field        | Value   |
|--------------|---------|
| Entrypoint   | 0x0447  |
| Data Size    | 5 bytes |
| Instructions | 3       |

```
      00 01 02 03 04 05 06 07  08 09 0A 0B 0C 0D 0E 0F
      -- -- -- -- -- -- -- --  -- -- -- -- -- -- -- --
0440:                      1D  73 80 23 00                     .s.#.    
```

#### Opcodes

```
  0: 0x0447 [0x1D] PRINT_EVENT_MESSAGE(message_id=12570*)
    → "Once you know, notify a Temple Knight. Now, go!"
  1: 0x044A [0x23] WAIT_FOR_DIALOG_INTERACTION
  2: 0x044B [0x00] END_REQSTACK()
```

### Event 695

#### Metadata

| Field        | Value   |
|--------------|---------|
| Entrypoint   | 0x044C  |
| Data Size    | 1 bytes |
| Instructions | 1       |

```
      00 01 02 03 04 05 06 07  08 09 0A 0B 0C 0D 0E 0F
      -- -- -- -- -- -- -- --  -- -- -- -- -- -- -- --
0440:                                      00                       .   
```

#### Opcodes

```
  0: 0x044C [0x00] END_REQSTACK()
```

### Event 65535.68

#### Metadata

| Field        | Value    |
|--------------|----------|
| Entrypoint   | 0x044D   |
| Data Size    | 10 bytes |
| Instructions | 2        |

```
      00 01 02 03 04 05 06 07  08 09 0A 0B 0C 0D 0E 0F
      -- -- -- -- -- -- -- --  -- -- -- -- -- -- -- --
0440:                                         37 74 80               7t.
0450: 75 80 1F 80 02 80 00                              u......         
```

#### Opcodes

```
  0: 0x044D [0x37] UPDATE_EVENT_POSITION_AND_DIR: x=123.169*, z=113.883*, y=-11.003*, direction=0.0°*
  1: 0x0456 [0x00] END_REQSTACK()
```

### Event 65535.69

#### Metadata

| Field        | Value    |
|--------------|----------|
| Entrypoint   | 0x0457   |
| Data Size    | 14 bytes |
| Instructions | 4        |

```
      00 01 02 03 04 05 06 07  08 09 0A 0B 0C 0D 0E 0F
      -- -- -- -- -- -- -- --  -- -- -- -- -- -- -- --
0450:                      32  04 80 1F 00 76 80 77 80         2....v.w.
0460: 1F 80 1F 01 00                                    .....           
```

#### Opcodes

```
  0: 0x0457 [0x32] ExtData[1]->MainSpeed = 13* * 0.1
  1: 0x045A [0x1F] MOVE_ENTITY: EventEntity moves to X=123.925*, Z=116.060*, Y=-11.003*
  2: 0x0462 [0x1F] MOVE_ENTITY: Update entity position (mode=1)
  3: 0x0464 [0x00] END_REQSTACK()
```

### Event 65535.70

#### Metadata

| Field        | Value    |
|--------------|----------|
| Entrypoint   | 0x0465   |
| Data Size    | 14 bytes |
| Instructions | 4        |

```
      00 01 02 03 04 05 06 07  08 09 0A 0B 0C 0D 0E 0F
      -- -- -- -- -- -- -- --  -- -- -- -- -- -- -- --
0460:                32 04 80  1F 00 78 80 79 80 1F 80       2....x.y...
0470: 1F 01 00                                          ...             
```

#### Opcodes

```
  0: 0x0465 [0x32] ExtData[1]->MainSpeed = 13* * 0.1
  1: 0x0468 [0x1F] MOVE_ENTITY: EventEntity moves to X=125.023*, Z=117.256*, Y=-11.003*
  2: 0x0470 [0x1F] MOVE_ENTITY: Update entity position (mode=1)
  3: 0x0472 [0x00] END_REQSTACK()
```

### Event 65535.71

#### Metadata

| Field        | Value    |
|--------------|----------|
| Entrypoint   | 0x0473   |
| Data Size    | 14 bytes |
| Instructions | 3        |

```
      00 01 02 03 04 05 06 07  08 09 0A 0B 0C 0D 0E 0F
      -- -- -- -- -- -- -- --  -- -- -- -- -- -- -- --
0470:          1C 59 80 79 00  03 70 0E 01 F0 FF FF 7F     .Y.y..p......
0480: 00                                                .               
```

#### Opcodes

```
  0: 0x0473 [0x1C] WAIT(60* ticks)
  1: 0x0476 [0x79] Pieuje (ID: 17723395/0x010E7003) looks at LocalPlayer (Basic look)
  2: 0x0480 [0x00] END_REQSTACK()
```

### Event 65535.72

#### Metadata

| Field        | Value   |
|--------------|---------|
| Entrypoint   | 0x0481  |
| Data Size    | 5 bytes |
| Instructions | 3       |

```
      00 01 02 03 04 05 06 07  08 09 0A 0B 0C 0D 0E 0F
      -- -- -- -- -- -- -- --  -- -- -- -- -- -- -- --
0480:    1D 7A 80 23 00                                  .z.#.          
```

#### Opcodes

```
  0: 0x0481 [0x1D] PRINT_EVENT_MESSAGE(message_id=12576*)
    → "We can negotiate with the Orcs once we know what they want, but I loathe the prospect of sending Temple Knights to scout."
  1: 0x0484 [0x23] WAIT_FOR_DIALOG_INTERACTION
  2: 0x0485 [0x00] END_REQSTACK()
```

### Event 65535.73

#### Metadata

| Field        | Value   |
|--------------|---------|
| Entrypoint   | 0x0486  |
| Data Size    | 5 bytes |
| Instructions | 3       |

```
      00 01 02 03 04 05 06 07  08 09 0A 0B 0C 0D 0E 0F
      -- -- -- -- -- -- -- --  -- -- -- -- -- -- -- --
0480:                   1D 7B  80 23 00                       .{.#.     
```

#### Opcodes

```
  0: 0x0486 [0x1D] PRINT_EVENT_MESSAGE(message_id=12579*)
    → "I understand. We must first find what the Orcs know of Paradise's gates."
  1: 0x0489 [0x23] WAIT_FOR_DIALOG_INTERACTION
  2: 0x048A [0x00] END_REQSTACK()
```

### Event 65535.74

#### Metadata

| Field        | Value   |
|--------------|---------|
| Entrypoint   | 0x048B  |
| Data Size    | 5 bytes |
| Instructions | 3       |

```
      00 01 02 03 04 05 06 07  08 09 0A 0B 0C 0D 0E 0F
      -- -- -- -- -- -- -- --  -- -- -- -- -- -- -- --
0480:                                   1D 7C 80 23 00             .|.#.
```

#### Opcodes

```
  0: 0x048B [0x1D] PRINT_EVENT_MESSAGE(message_id=12581*)
    → "Hm? Is someone there?"
  1: 0x048E [0x23] WAIT_FOR_DIALOG_INTERACTION
  2: 0x048F [0x00] END_REQSTACK()
```

### Event 65535.75

#### Metadata

| Field        | Value   |
|--------------|---------|
| Entrypoint   | 0x0490  |
| Data Size    | 5 bytes |
| Instructions | 3       |

```
      00 01 02 03 04 05 06 07  08 09 0A 0B 0C 0D 0E 0F
      -- -- -- -- -- -- -- --  -- -- -- -- -- -- -- --
0490: 1D 7D 80 23 00                                    .}.#.           
```

#### Opcodes

```
  0: 0x0490 [0x1D] PRINT_EVENT_MESSAGE(message_id=12583*)
    → "No, it is all right, Your Holiness."
  1: 0x0493 [0x23] WAIT_FOR_DIALOG_INTERACTION
  2: 0x0494 [0x00] END_REQSTACK()
```

### Event 65535.76

#### Metadata

| Field        | Value   |
|--------------|---------|
| Entrypoint   | 0x0495  |
| Data Size    | 5 bytes |
| Instructions | 3       |

```
      00 01 02 03 04 05 06 07  08 09 0A 0B 0C 0D 0E 0F
      -- -- -- -- -- -- -- --  -- -- -- -- -- -- -- --
0490:                1D 7E 80  23 00                         .~.#.      
```

#### Opcodes

```
  0: 0x0495 [0x1D] PRINT_EVENT_MESSAGE(message_id=12585*)
    → "So... The Orcs are searching for something. What it is we cannot say. This requires further delving."
  1: 0x0498 [0x23] WAIT_FOR_DIALOG_INTERACTION
  2: 0x0499 [0x00] END_REQSTACK()
```

### Event 65535.77

#### Metadata

| Field        | Value   |
|--------------|---------|
| Entrypoint   | 0x049A  |
| Data Size    | 5 bytes |
| Instructions | 3       |

```
      00 01 02 03 04 05 06 07  08 09 0A 0B 0C 0D 0E 0F
      -- -- -- -- -- -- -- --  -- -- -- -- -- -- -- --
0490:                                1D 7F 80 23 00               ...#. 
```

#### Opcodes

```
  0: 0x049A [0x1D] PRINT_EVENT_MESSAGE(message_id=12587*)
    → "Thank you, <Player>. I will inform the gatehouse knight that your mission is complete."
  1: 0x049D [0x23] WAIT_FOR_DIALOG_INTERACTION
  2: 0x049E [0x00] END_REQSTACK()
```

### Event 866

#### Metadata

| Field        | Value   |
|--------------|---------|
| Entrypoint   | 0x049F  |
| Data Size    | 1 bytes |
| Instructions | 1       |

```
      00 01 02 03 04 05 06 07  08 09 0A 0B 0C 0D 0E 0F
      -- -- -- -- -- -- -- --  -- -- -- -- -- -- -- --
0490:                                               00                 .
```

#### Opcodes

```
  0: 0x049F [0x00] END_REQSTACK()
```
