# 17723601 - Excenmille

## Common Data

| Field            | Value                         |
|------------------|-------------------------------|
| Zone             | Northern San d'Oria (ID: 231) |
| Block Size       | 8624 bytes                    |
| Total Events     | 20                            |
| References Count | 359                           |

## List of Events

| Event ID                 | Entrypoint   |   Size |   Instructions |
|--------------------------|--------------|--------|----------------|
| [65535](#event-65535)    | 0x0000       |      1 |              1 |
| [65535.1](#event-655351) | 0x0001       |     16 |              4 |
| [893](#event-893)        | 0x0011       |      1 |              1 |
| [894](#event-894)        | 0x0012       |     49 |             12 |
| [895](#event-895)        | 0x0043       |    320 |             66 |
| [896](#event-896)        | 0x0183       |     56 |             18 |
| [897](#event-897)        | 0x01BB       |      1 |              1 |
| [29](#event-29)          | 0x01BC       |     41 |             13 |
| [36](#event-36)          | 0x01E5       |   3350 |            516 |
| [31](#event-31)          | 0x0EFB       |    116 |             33 |
| [34](#event-34)          | 0x0F6F       |     25 |              9 |
| [33](#event-33)          | 0x0F88       |     25 |              9 |
| [32](#event-32)          | 0x0FA1       |   2900 |            707 |
| [27](#event-27)          | 0x1AF5       |     12 |              7 |
| [26](#event-26)          | 0x1B01       |     36 |             13 |
| [28](#event-28)          | 0x1B25       |     36 |             13 |
| [35](#event-35)          | 0x1B49       |     77 |             19 |
| [30](#event-30)          | 0x1B96       |     25 |              9 |
| [999](#event-999)        | 0x1BAF       |      1 |              1 |
| [3000](#event-3000)      | 0x1BB0       |      1 |              1 |

## DAT References (imed_data)

|   Index | Hex Value   |   Dec Value |
|---------|-------------|-------------|
|       0 | 0x0007      |           7 |
|       1 | 0x005A      |          90 |
|       2 | 0x001D      |          29 |
|       3 | 0x47D3      |       18387 |
|       4 | 0x47D4      |       18388 |
|       5 | 0x47D5      |       18389 |
|       6 | 0x47D6      |       18390 |
|       7 | 0x0000      |           0 |
|       8 | 0x47D7      |       18391 |
|       9 | 0x0001      |           1 |
|      10 | 0x47D8      |       18392 |
|      11 | 0x09C4      |        2500 |
|      12 | 0x47D9      |       18393 |
|      13 | 0x47DA      |       18394 |
|      14 | 0x09C5      |        2501 |
|      15 | 0x47DB      |       18395 |
|      16 | 0x47DC      |       18396 |
|      17 | 0x47DD      |       18397 |
|      18 | 0x47DE      |       18398 |
|      19 | 0x47DF      |       18399 |
|      20 | 0x47E0      |       18400 |
|      21 | 0x47E1      |       18401 |
|      22 | 0x47E2      |       18402 |
|      23 | 0x00C9      |         201 |
|      24 | 0x47E3      |       18403 |
|      25 | 0x1E55      |        7765 |
|      26 | 0x1E56      |        7766 |
|      27 | 0x1E57      |        7767 |
|      28 | 0x1E58      |        7768 |
|      29 | 0x1E5F      |        7775 |
|      30 | 0x1E60      |        7776 |
|      31 | 0x1E61      |        7777 |
|      32 | 0x1E62      |        7778 |
|      33 | 0x1E63      |        7779 |
|      34 | 0x1E64      |        7780 |
|      35 | 0x1E65      |        7781 |
|      36 | 0x00C8      |         200 |
|      37 | 0x0003      |           3 |
|      38 | 0x007F      |         127 |
|      39 | 0x0013      |          19 |
|      40 | 0x00F3      |         243 |
|      41 | 0x0064      |         100 |
|      42 | 0x01B7      |         439 |
|      43 | 0x0040      |          64 |
|      44 | 0x1D83      |        7555 |
|      45 | 0x000F      |          15 |
|      46 | 0x1D84      |        7556 |
|      47 | 0x000A      |          10 |
|      48 | 0x1D85      |        7557 |
|      49 | 0x0014      |          20 |
|      50 | 0x1D86      |        7558 |
|      51 | 0x1D87      |        7559 |
|      52 | 0x1D88      |        7560 |
|      53 | 0x1D89      |        7561 |
|      54 | 0x1D8A      |        7562 |
|      55 | 0x1D8B      |        7563 |
|      56 | 0x1D8C      |        7564 |
|      57 | 0x1D8D      |        7565 |
|      58 | 0x1D8E      |        7566 |
|      59 | 0x1D8F      |        7567 |
|      60 | 0x1D90      |        7568 |
|      61 | 0x1D91      |        7569 |
|      62 | 0x1D92      |        7570 |
|      63 | 0x1D93      |        7571 |
|      64 | 0x1D94      |        7572 |
|      65 | 0x1D95      |        7573 |
|      66 | 0x1D96      |        7574 |
|      67 | 0x1D97      |        7575 |
|      68 | 0x1D98      |        7576 |
|      69 | 0x1D99      |        7577 |
|      70 | 0x1D9A      |        7578 |
|      71 | 0x1D9B      |        7579 |
|      72 | 0x1D9C      |        7580 |
|      73 | 0x1D9D      |        7581 |
|      74 | 0x1D9E      |        7582 |
|      75 | 0x1D9F      |        7583 |
|      76 | 0x1DA0      |        7584 |
|      77 | 0x1DA1      |        7585 |
|      78 | 0x1DA2      |        7586 |
|      79 | 0x1DA3      |        7587 |
|      80 | 0x1DA4      |        7588 |
|      81 | 0x1DA5      |        7589 |
|      82 | 0x1DA6      |        7590 |
|      83 | 0x1DA7      |        7591 |
|      84 | 0x003C      |          60 |
|      85 | 0x1DA8      |        7592 |
|      86 | 0x1DA9      |        7593 |
|      87 | 0x1DAA      |        7594 |
|      88 | 0x1DAB      |        7595 |
|      89 | 0x1DAC      |        7596 |
|      90 | 0x1DAD      |        7597 |
|      91 | 0x001E      |          30 |
|      92 | 0x1DAE      |        7598 |
|      93 | 0x0032      |          50 |
|      94 | 0x1DAF      |        7599 |
|      95 | 0x1DB0      |        7600 |
|      96 | 0x1DB1      |        7601 |
|      97 | 0x1DB2      |        7602 |
|      98 | 0x1DB3      |        7603 |
|      99 | 0x1DB4      |        7604 |
|     100 | 0x1DB5      |        7605 |
|     101 | 0x1DB6      |        7606 |
|     102 | 0x1DB7      |        7607 |
|     103 | 0x1DB8      |        7608 |
|     104 | 0x1DB9      |        7609 |
|     105 | 0x1DBA      |        7610 |
|     106 | 0x1DBB      |        7611 |
|     107 | 0x0168      |         360 |
|     108 | 0x1DBC      |        7612 |
|     109 | 0x0078      |         120 |
|     110 | 0x1DBD      |        7613 |
|     111 | 0x1DBE      |        7614 |
|     112 | 0x1DBF      |        7615 |
|     113 | 0x1DC0      |        7616 |
|     114 | 0x1DC1      |        7617 |
|     115 | 0x1DC2      |        7618 |
|     116 | 0x1DC3      |        7619 |
|     117 | 0x1DC4      |        7620 |
|     118 | 0x1DC5      |        7621 |
|     119 | 0x1DC6      |        7622 |
|     120 | 0x1DC7      |        7623 |
|     121 | 0x1DC8      |        7624 |
|     122 | 0x1DC9      |        7625 |
|     123 | 0x1DCB      |        7627 |
|     124 | 0x1DCA      |        7626 |
|     125 | 0x0005      |           5 |
|     126 | 0x1DCC      |        7628 |
|     127 | 0x1DCD      |        7629 |
|     128 | 0x1DCE      |        7630 |
|     129 | 0x0400      |        1024 |
|     130 | 0x1DCF      |        7631 |
|     131 | 0x1DD0      |        7632 |
|     132 | 0x1DD1      |        7633 |
|     133 | 0x1DD2      |        7634 |
|     134 | 0x1DD3      |        7635 |
|     135 | 0x1DD4      |        7636 |
|     136 | 0x0766      |        1894 |
|     137 | 0x1DD5      |        7637 |
|     138 | 0x1DD6      |        7638 |
|     139 | 0x1DD7      |        7639 |
|     140 | 0x00E7      |         231 |
|     141 | 0x006B      |         107 |
|     142 | 0x1E66      |        7782 |
|     143 | 0x1E67      |        7783 |
|     144 | 0x1E7C      |        7804 |
|     145 | 0x1E3F      |        7743 |
|     146 | 0x1E7F      |        7807 |
|     147 | 0x1E80      |        7808 |
|     148 | 0x1E81      |        7809 |
|     149 | 0x1E82      |        7810 |
|     150 | 0x1E83      |        7811 |
|     151 | 0x1E84      |        7812 |
|     152 | 0x1E68      |        7784 |
|     153 | 0x1E91      |        7825 |
|     154 | 0x1E92      |        7826 |
|     155 | 0x1E97      |        7831 |
|     156 | 0x1E98      |        7832 |
|     157 | 0x0002      |           2 |
|     158 | 0x0004      |           4 |
|     159 | 0x0006      |           6 |
|     160 | 0x0009      |           9 |
|     161 | 0x0240      |         576 |
|     162 | 0x1E9E      |        7838 |
|     163 | 0x1E9F      |        7839 |
|     164 | 0x1EA0      |        7840 |
|     165 | 0x1EB0      |        7856 |
|     166 | 0x1EB1      |        7857 |
|     167 | 0x1EC2      |        7874 |
|     168 | 0x1EC3      |        7875 |
|     169 | 0x1EB8      |        7864 |
|     170 | 0x1EB9      |        7865 |
|     171 | 0x1EB6      |        7862 |
|     172 | 0x1EB7      |        7863 |
|     173 | 0x1E42      |        7746 |
|     174 | 0x1E45      |        7749 |
|     175 | 0x1E46      |        7750 |
|     176 | 0x1E4C      |        7756 |
|     177 | 0x1E4F      |        7759 |
|     178 | 0x01F4      |         500 |
|     179 | 0x1EC8      |        7880 |
|     180 | 0x1EC9      |        7881 |
|     181 | 0x1ECA      |        7882 |
|     182 | 0x1ED1      |        7889 |
|     183 | 0x1ED2      |        7890 |
|     184 | 0x1ED5      |        7893 |
|     185 | 0x1ED8      |        7896 |
|     186 | 0x1EDB      |        7899 |
|     187 | 0x1EDC      |        7900 |
|     188 | 0x1EAD      |        7853 |
|     189 | 0x1F00      |        7936 |
|     190 | 0x000E      |          14 |
|     191 | 0x1F01      |        7937 |
|     192 | 0x1DD8      |        7640 |
|     193 | 0x1DD9      |        7641 |
|     194 | 0x1DDA      |        7642 |
|     195 | 0x1DDB      |        7643 |
|     196 | 0x1DDC      |        7644 |
|     197 | 0x1DDD      |        7645 |
|     198 | 0x1DDE      |        7646 |
|     199 | 0x1DDF      |        7647 |
|     200 | 0x1DE0      |        7648 |
|     201 | 0x1DE1      |        7649 |
|     202 | 0x1DE2      |        7650 |
|     203 | 0x1DE3      |        7651 |
|     204 | 0x1DE4      |        7652 |
|     205 | 0x1DE5      |        7653 |
|     206 | 0x1DE6      |        7654 |
|     207 | 0x1DE7      |        7655 |
|     208 | 0x1DE8      |        7656 |
|     209 | 0x1DE9      |        7657 |
|     210 | 0x1DEA      |        7658 |
|     211 | 0x1DEB      |        7659 |
|     212 | 0x1DEC      |        7660 |
|     213 | 0x1DED      |        7661 |
|     214 | 0x1DEE      |        7662 |
|     215 | 0x1DEF      |        7663 |
|     216 | 0x1DF0      |        7664 |
|     217 | 0x1DF1      |        7665 |
|     218 | 0x1DF2      |        7666 |
|     219 | 0x1DF3      |        7667 |
|     220 | 0x1DF4      |        7668 |
|     221 | 0x1DF5      |        7669 |
|     222 | 0x1DF6      |        7670 |
|     223 | 0x1DF7      |        7671 |
|     224 | 0x1DF8      |        7672 |
|     225 | 0x1DF9      |        7673 |
|     226 | 0x1DFA      |        7674 |
|     227 | 0x1DFB      |        7675 |
|     228 | 0x1DFC      |        7676 |
|     229 | 0x1E01      |        7681 |
|     230 | 0x1E02      |        7682 |
|     231 | 0x1E03      |        7683 |
|     232 | 0x0A20      |        2592 |
|     233 | 0x1E04      |        7684 |
|     234 | 0x1E05      |        7685 |
|     235 | 0x1E06      |        7686 |
|     236 | 0x1E07      |        7687 |
|     237 | 0x0008      |           8 |
|     238 | 0x1E08      |        7688 |
|     239 | 0x1E09      |        7689 |
|     240 | 0x07D0      |        2000 |
|     241 | 0x1DFD      |        7677 |
|     242 | 0x1DFE      |        7678 |
|     243 | 0x1DFF      |        7679 |
|     244 | 0x1E00      |        7680 |
|     245 | 0x1E0A      |        7690 |
|     246 | 0x1E0B      |        7691 |
|     247 | 0x1E0C      |        7692 |
|     248 | 0x1E0D      |        7693 |
|     249 | 0x1E0E      |        7694 |
|     250 | 0x1E0F      |        7695 |
|     251 | 0x1E10      |        7696 |
|     252 | 0x1E11      |        7697 |
|     253 | 0x1E12      |        7698 |
|     254 | 0x1E13      |        7699 |
|     255 | 0x1E14      |        7700 |
|     256 | 0x02AA      |         682 |
|     257 | 0x1E15      |        7701 |
|     258 | 0x02AB      |         683 |
|     259 | 0x1E16      |        7702 |
|     260 | 0x02AC      |         684 |
|     261 | 0x1E17      |        7703 |
|     262 | 0x02AD      |         685 |
|     263 | 0x1E18      |        7704 |
|     264 | 0x02AE      |         686 |
|     265 | 0x1E19      |        7705 |
|     266 | 0x02AF      |         687 |
|     267 | 0x1E1A      |        7706 |
|     268 | 0x02B0      |         688 |
|     269 | 0x1E1B      |        7707 |
|     270 | 0x02B1      |         689 |
|     271 | 0x1E1C      |        7708 |
|     272 | 0x02B2      |         690 |
|     273 | 0x1E1D      |        7709 |
|     274 | 0x02B3      |         691 |
|     275 | 0x1E1E      |        7710 |
|     276 | 0x02B4      |         692 |
|     277 | 0x1E1F      |        7711 |
|     278 | 0x000B      |          11 |
|     279 | 0x02B5      |         693 |
|     280 | 0x1E20      |        7712 |
|     281 | 0x000C      |          12 |
|     282 | 0x02B6      |         694 |
|     283 | 0x1E21      |        7713 |
|     284 | 0x000D      |          13 |
|     285 | 0x02B7      |         695 |
|     286 | 0x1E22      |        7714 |
|     287 | 0x02B8      |         696 |
|     288 | 0x1E23      |        7715 |
|     289 | 0x02B9      |         697 |
|     290 | 0x1E24      |        7716 |
|     291 | 0x0010      |          16 |
|     292 | 0x02BA      |         698 |
|     293 | 0x1E25      |        7717 |
|     294 | 0x0011      |          17 |
|     295 | 0x02BB      |         699 |
|     296 | 0x1E26      |        7718 |
|     297 | 0x0012      |          18 |
|     298 | 0x02BC      |         700 |
|     299 | 0x1E27      |        7719 |
|     300 | 0x0309      |         777 |
|     301 | 0x1E28      |        7720 |
|     302 | 0x030A      |         778 |
|     303 | 0x1E29      |        7721 |
|     304 | 0x0015      |          21 |
|     305 | 0x030B      |         779 |
|     306 | 0x1E2A      |        7722 |
|     307 | 0x0016      |          22 |
|     308 | 0x0393      |         915 |
|     309 | 0x1E2B      |        7723 |
|     310 | 0x0017      |          23 |
|     311 | 0x0394      |         916 |
|     312 | 0x1E2C      |        7724 |
|     313 | 0x0018      |          24 |
|     314 | 0x0737      |        1847 |
|     315 | 0x1E2D      |        7725 |
|     316 | 0x0019      |          25 |
|     317 | 0x0738      |        1848 |
|     318 | 0x1E2E      |        7726 |
|     319 | 0x1B00      |        6912 |
|     320 | 0x3600      |       13824 |
|     321 | 0x5100      |       20736 |
|     322 | 0x06C0      |        1728 |
|     323 | 0x0C60      |        3168 |
|     324 | 0x0D80      |        3456 |
|     325 | 0x2880      |       10368 |
|     326 | 0x65400     |      414720 |
|     327 | 0x0028      |          40 |
|     328 | 0x03E8      |        1000 |
|     329 | 0x05DC      |        1500 |
|     330 | 0x0BB8      |        3000 |
|     331 | 0x19500     |      103680 |
|     332 | 0x7FFF      |       32767 |
|     333 | 0x116700    |     1140480 |
|     334 | 0x1E38      |        7736 |
|     335 | 0x1E37      |        7735 |
|     336 | 0x1E36      |        7734 |
|     337 | 0x1E39      |        7737 |
|     338 | 0x1E3A      |        7738 |
|     339 | 0x1E3B      |        7739 |
|     340 | 0x1E3C      |        7740 |
|     341 | 0x1E3D      |        7741 |
|     342 | 0x1E3E      |        7742 |
|     343 | 0x1E31      |        7729 |
|     344 | 0x1E32      |        7730 |
|     345 | 0x1E33      |        7731 |
|     346 | 0x1E34      |        7732 |
|     347 | 0x1E35      |        7733 |
|     348 | 0x1EEE      |        7918 |
|     349 | 0x1EEF      |        7919 |
|     350 | 0x1EF0      |        7920 |
|     351 | 0x1EF7      |        7927 |
|     352 | 0x1EF8      |        7928 |
|     353 | 0x1EF9      |        7929 |
|     354 | 0x1EE5      |        7909 |
|     355 | 0x1EE2      |        7906 |
|     356 | 0x1EDF      |        7903 |
|     357 | 0x1EE8      |        7912 |
|     358 | 0x1EE9      |        7913 |

## String References

- **7640**: What do you wish to know about? [Basic rules./About the Petra./About Sprint./About Scout./About Gate Breach./About area-specific rules./About returning to battle./About special rules./Nothing at the moment.]
- **7641**: Ballista is an exercise once used by the San d'Orian armies to train the Royal Knights in the art of the siege. The word "ballista" means "to throw a stone," and the game has been a part of Vana'dielian military history for centuries.
- **7642**: The rules are simple. Ballista is played by two teams over a number of hours (Vana'diel time). The team with the most points at the end of the match is the victor.
- **7643**: Players from both teams must search for Petras that a Herald has buried in various locations across the battlefield. The players must then take these stones and throw them into targets known as Rooks.
- **7644**: These Rooks can appear in various locations around the battlefield, and both teams are allowed to throw their Petras into them.
- **7645**: Finally, a player's strength is adjusted depending on his or her level. It is felt that this ultimately allows for a more balanced battle.
- **7646**: Petras can be buried anywhere. Once a player believes he or she has found one, the Quarry (/quarry) command should be used to dig up the area at his or her feet.
- **7647**: Sometimes a player may find items other than Petras, such as potions. These temporary items can only be used during the current match (or Best of Three series).
- **7648**: Players can carry more than one Petra, but they cannot throw the stones away once they have obtained them. However, players will lose their Petras if they: (1) Successfully throw them into a rook. (2) Leave the area. (3) Are knocked out.
- **7649**: But don't forget, a player will be unable to use the Sprint command while in possession of a Petra. And, players can only use the Scout command if they carry one of the stones.
- **7650**: As one can see, careful planning and impeccable timing are the keys to victory.
- **7651**: All participants of Ballista will have the ability to use the Sprint command. This will temporarily increase one's movement speed, creating a better chance to find and obtain Petras.
- **7652**: However, remember that once a player has obtained a Petra, he or she will be unable to use the Sprint command. In its place, though, one may use the Scout command.
- **7653**: The locations of the Rooks are constantly changing. This makes it quite difficult to find the targets by just randomly walking about the area.
- **7654**: Communication with one's team members is, of course, one way to locate Rooks. However, another way is by using the Scout command. This will inform a player of the approximate location of the nearest Rook.
- **7655**: Finally, Scout can only be used when a player is carrying a Petra. Because Sprint cannot be used at this time, players must be weary of approaching enemies.
- **7656**: So, a Petra has been obtained and a Rook located. Now all that's left is tossing the stone in, right? Wrong.
- **7657**: There is one aspect of Ballista that has yet to be mentioned...and this is where the real battle begins.
- **7658**: To throw a Petra into a Rook, a player must first wait until the Rook's gate is open. This takes impeccable timing, as the gate is only open for a short while.
- **7659**: But not just anyone can score points this way. A player must first take down a member of the opposing team and achieve Gate Breach status. Only then will his or her shots count.
- **7660**: This extreme method of combat is what made the ancient game of Ballista famous, and transformed its participants into heroes.
- **7661**: Running about looking for stones is no different from a child's game of hide-and-seek. Knowing when to strike is what separates the men from the boys.
- **7662**: The following match types are area-specific: All or Nothing (one match) * Normal Items Allowed: Jugner Forest All or Nothing (one match) * Normal Items Restricted: Pashhow Marshlands Best of Three (three matches) * Normal Items Allowed: Meriphataud Mountains
- **7663**: Best of Three series rules are as follows: Winning a match will earn a nation one "match point." The nation with the most match points at the end of the series will be declared the victor. Winning the third and final match and producing the high scorer will result in two match points awarded. This allows both sides the chance for "come-from-behind" victories.
- **7664**: Between each of the matches, a short interval will be implemented. During this interval, Invisible and Sneak will be cast on all participants. We suggest this time be used to discuss strategies with the other members of your nation's forces.
- **7665**: Players will be forbidden from using any items they bring to the battlefield. Only temporary items that are quarried may be used. A total of fifteen temporary items (though only one of each type) can be carried.
- **7666**: When this rule is in effect, all players will be presented with five complimentary temporary items at the beginning of the match.
- **7667**: For more information on temporary items, refer to the "special rules."
- **7668**: After being KO'd, if a player chooses to be revived at the spot he was defeated, 100% of all HP and 50% of all MP will be restored. In addition, the player will maintain 50% of the TP he had earned.
- **7669**: If a player chooses to return to their force's camp, HP and MP will be fully restored, but all TP will be lost.
- **7670**: Please note that many of the rules previously considered "special" have been fully implemented. Also, several new special rules have been added.
- **7671**: Learn about which special rules? [Temporary items./Ballista Points./Scoring restrictions./Gate Breach radius expansion./Resistance to Sleep./Open entries./Minimum level restrictions./Re-entry restrictions./Participant & Rook numbers./Experience Points./Return.]
- **7672**: Previously, participants in Ballista were required to use an item the moment they dug it up using the /quarry command. However, players can now stock these items as temporary items for use at any time during the match.
- **7673**: Players can hold up to ten temporary items, but only one of each type. If a player finds an item that they already possess, they must use it immediately or throw it away.
- **7674**: If players who possess ten temporary items find an item that they have not already obtained, they will also have the option to exchange it with one of their current items.
- **7675**: Also, players will not, at any time, be allowed to trade temporary items. However, there are items that can be used on other Ballista participants. Please note that players may not be able to use these special items as soon as they are quarried.
- **7676**: Finally, the Heralds will collect temporary items when the match (the third in a Best of Three series) has concluded.
- **7677**: Ballista Points are rewarded to each competitor based on his or her performance in a single Ballista match. The maximum number of points that can be accumulated per match is $0.
- **7678**: While it is taken into consideration, scoring Petras is not the only way to earn Ballista Points. Assisting allies and defeating members of the enemy forces can also earn a high score.
- **7679**: Ballista Points can be traded for special "vouchers," which may be exchanged for free temporary items at the start of new matches.
- **7680**: However, remember that depending on the level restriction of the match, certain vouchers will not be redeemed at the beginning of a match. Speak with a Marshal directly after a match to register your points.
- **7681**: Players will only be allowed to score up to five Petras at a time. Also, a player's Gate Breach status will be automatically disengaged if a Petra is not scored within a certain amount of time. The amount of time is increased for those members of the team currently behind in points.
- **7682**: All allies within a certain radius will achieve Gate Breach status when a member of the enemy forces is defeated.
- **7683**: Players' resistance to sleep will be increased.
- **7684**: During the entry period, from $0:, all adventurers will be allowed to join the forces with the smallest number of participants, regardless of allegiance. Open entries will be accepted until both sides have reached maximum capacity.
- **7685**: In order to ensure balanced matches, the following level limits are enforced: Level 30 matches: 1\`30
- **7686**: Level 40 matches: 31\`40 Level 50 matches: 41\`50 Level 60 matches: 51\`60 Unrestricted matches: 61\`
- **7687**: Please note that any participant who cancels his or her registration will not be allowed to re-apply for the same match.
- **7688**: When the total number of participants in a match is less than 40, the location of the two camps will be adjusted. Also in this case, the number of Rooks will be reduced to two.
- **7689**: Any adventurer whose main level is over 30 will receive EXP for participating in a Ballista match. However, no EXP will be rewarded if the adventurer fails to actively take part in the match.
- **7690**: Read which chapter on B.P. Ranking? [Basic Information./Registering Points./Rewards./Chevron & Title List./None.]
- **7691**: Ballista Point Ranking is based upon all Ballista Points registered from the past ten matches in each of the three participating battle areas.
- **7692**: Anyone who wishes to take part in the ranking needs to register [his/her] points within four hours (Vana'diel time) from the end of the previous match.
- **7693**: After the registration period ends, players can compare their record with those of the previous nine matches.
- **7694**: If, at any time, a player ranks in the top ten (overall) or first for a specific job, [he/she] will have the opportunity to receive a special chevron as well as a new title.
- **7695**: There are four types of chevrons and titles awarded to top-ten players (gold/mythril/silver/bronze), as well as twenty-two different types awarded for outstanding performances by players of each of the twenty-two jobs.
- **7696**: Wearing a chevron during a Ballista match will automatically change a player's current title. If a player wishes to possess this title after a match as well, [he/she] must contact a certain bard in San d'Oria.
- **7697**: Also, while wearing a chevron, players will be able to trade Ballista Points for temporary items not available to all players.
- **7698**: However, the rules of Ballista state that players may only possess a certain chevron for no longer than one half Vana'diel year. When that time comes, they are required to return the chevron before being allowed to participate in any further matches.
- **7699**: Finally, checking someone during a Ballista match will display the total number of chevrons that person has accumulated to date.
- **7700**: View which chevron/title? [1st (overall)./2nd (overall)./3rd (overall)./4th-10th (overall)./1st (warrior)./1st (monk)./1st (white mage)./1st (black mage)./1st (red mage)./1st (thief)./1st (paladin)./1st (dark knight)./1st (beastmaster)./1st (bard)./1st (ranger)./1st (samurai)./1st (ninja)./1st (dragoon)./1st (summoner)./1st (blue mage)./1st (corsair)./1st (puppetmaster)./1st (dancer)./1st (scholar)./1st (geomancer)./1st (rune fencer)./Return.]
- **7701**: Key Item: $3 Title: Gold Balli$25$25$25$25star
- **7702**: Key Item: $3 Title: Mythril Balli$25$25$25star
- **7703**: Key Item: $3 Title: Silver Balli$25$25star
- **7704**: Key Item: $3 Title: Bronze Balli$25star
- **7705**: Key Item: $3 Title: Searing$26Star
- **7706**: Key Item: $3 Title: Striking$26Star
- **7707**: Key Item: $3 Title: Soothing$26Star
- **7708**: Key Item: $3 Title: Sable$26Star
- **7709**: Key Item: $3 Title: Scarlet$26Star
- **7710**: Key Item: $3 Title: Sonic$26Star
- **7711**: Key Item: $3 Title: Saintly$26Star
- **7712**: Key Item: $3 Title: Shadowy$26Star
- **7713**: Key Item: $3 Title: Savage$26Star
- **7714**: Key Item: $3 Title: Singing$26Star
- **7715**: Key Item: $3 Title: Sniping$26Star
- **7716**: Key Item: $3 Title: Slicing$26Star
- **7717**: Key Item: $3 Title: Sneaking$26Star
- **7718**: Key Item: $3 Title: Spearing$26Star
- **7719**: Key Item: $3 Title: Summoning$26Star
- **7720**: Key Item: $3 Title: Sapphire$26Star
- **7721**: Key Item: $3 Title: Surging$26Star
- **7722**: Key Item: $3 Title: Swaying$26Star
- **7723**: Key Item: $3 Title: Sprightly$26Star
- **7724**: Key Item: $3 Title: Sagacious$26Star
- **7725**: Key Item: $3 Title: Spiritual$26Star
- **7726**: Key Item: $3 Title: Stippling$26Star
- **7729**: Matches are only played on even days (Vana'diel time).
- **7730**: Areas where Ballista matches will be held are:", 8, 14, 20, 26 -> Jugner 4, 10, 16, 22, 28 -> Pashhow 6, 12, 18, 24, 30 -> Meriphataud
- **7731**: Level restrictions are:", 4, 6 -> Lv. 30 8, 10, 12 -> Lv. 40 14, 16, 18 -> Lv. 50"0, 22, 24 -> Lv. 60"6, 28, 30 -> None
- **7732**: And finally, participation fees are: Lv. 30 matches: $0 gil Lv. 40 matches: $1 gil Lv. 50 matches: $2 gil Lv. 60 matches: $3 gil Unrestricted matches: $4 gil
- **7733**: Participating nations are selected in the following manner...
- **7734**: Matches for the 1st\`4th month are: Jugner: Bastok vs San d'Oria Pashhow: Bastok vs Windurst Meriphataud: San d'Oria vs Windurst
- **7735**: Matches for the 5th\`8th month are: Jugner: Bastok vs Windurst Pashhow: San d'Oria vs Windurst Meriphataud: Bastok vs San d'Oria
- **7736**: Matches for the 9th\`12th month are: Jugner: San d'Oria vs Windurst Pashhow: San d'Oria vs Bastok Meriphataud: Bastok vs Windurst
- **7737**: Learn about which match: [View previous month./$3/$4/2 Lv.30 Jugner/$3/$4/4 Lv.30 Pashhow/$3/$4/6 Lv.30 Meriphataud/$3/$4/8 Lv.40 Jugner/$3/$4/10 Lv.40 Pashhow/$3/$4/12 Lv.40 Meriphataud/$3/$4/14 Lv.50 Jugner/$3/$4/16 Lv.50 Pashhow/$3/$4/18 Lv.50 Meriphataud/$3/$4/20 Lv.60 Jugner/$3/$4/22 Lv.60 Pashhow/$3/$4/24 Lv.60 Meriphataud/$3/$4/26 Lv.$7 Jugner/$3/$4/28 Lv.$7 Pashhow/$3/$4/30 Lv.$7 Meriphataud/View next month./Quit.]
- **7738**: Learn about which match: [View previous month./$4/2/$3 Lv.30 Jugner/$4/4/$3 Lv.30 Pashhow/$4/6/$3 Lv.30 Meriphataud/$4/8/$3 Lv.40 Jugner/$4/10/$3 Lv.40 Pashhow/$4/12/$3 Lv.40 Meriphataud/$4/14/$3 Lv.50 Jugner/$4/16/$3 Lv.50 Pashhow/$4/18/$3 Lv.50 Meriphataud/$4/20/$3 Lv.60 Jugner/$4/22/$3 Lv.60 Pashhow/$4/24/$3 Lv.60 Meriphataud/$4/26/$3 Lv.$7 Jugner/$4/28/$3 Lv.$7 Pashhow/$4/30/$3 Lv.$7 Meriphataud/View next month./Quit.]
- **7739**: Learn about which match: [View previous month."/$4/$3 Lv.30 Jugner/4/$4/$3 Lv.30 Pashhow/6/$4/$3 Lv.30 Meriphataud/8/$4/$3 Lv.40 Jugner/10/$4/$3 Lv.40 Pashhow/12/$4/$3 Lv.40 Meriphataud/14/$4/$3 Lv.50 Jugner/16/$4/$3 Lv.50 Pashhow/18/$4/$3 Lv.50 Meriphataud"0/$4/$3 Lv.60 Jugner"2/$4/$3 Lv.60 Pashhow"4/$4/$3 Lv.60 Meriphataud"6/$4/$3 Lv.$7 Jugner"8/$4/$3 Lv.$7 Pashhow"0/$4/$3 Lv.$7 Meriphataud/View next month./Quit.]
- **7740**: Place: [Jugner Forest/Pashhow Marshlands/Meriphataud Mountains] Nations: [San d'Oria/Bastok/Windurst] vs [San d'Oria/Bastok/Windurst] Level Restriction: [None/ / /30/40/50/60/] Participation Fee: $4 gil Match Format: [All or Nothing/Best of Three] * [Normal Items Restricted/Normal Items Allowed]
- **7741**: Entry period begins: Vana'diel: Earth:
- **7742**: Match begins: Vana'diel: Earth:
- **7743**: Register for Conflict? [Sign me up!/I need more time to think.]
- **7749**: What shall you ask? [About the coming Ballista matches./About the Ballista schedule./About Ballista Earrings./About the rules of Ballista./Nothing at the moment.]
- **7889**: Ask for an earring? [Yes./No.]
- **7899**: Return the earring? [Yes./Not yet.]
- **18387**: I advise you to try your hand at your nearest convenience--outside of town, that is.
- **18388**: May I suggest East or West Ronfaure? They are both nearby, and provide ideal conditions for you to try out this newfound power. When you are finished, return here and inform me as to how you are progressing.
- **18389**: Were you successful? Please, tell me everything.
- **18390**: How did things go? [Swimmingly./Drowningly.]
- **18391**: It is wonderful to hear that you are getting along well with my alter ego. Good things come in threes, so one more positive thing must await you yet!
- **18392**: I see... Well, San d'Oria was not built in a day. Keep at it, and I am certain your efforts will be rewarded once more.
- **18393**: The $3 I have bequeathed to you will surely be of interest to Gondebaud. He can tell you more--and please, treat my alter ego well. Don't go barking inane orders like Rahal did.
- **18394**: All of us involved in this grand experiment are attempting to figure out the exact methodology behind it. This is bigger than San d'Oria. The nations of Bastok and Windurst are as serious as we are.
- **18395**: This $3 is intended not just for your own betterment, but for the betterment of us all. Go forth, and discover all there is to be learned.
- **18396**: [By the way/While I have your attention], Curilla of the Temple Knights is also participating in this initiative.
- **18397**: I must warn you, however, that she has little time for those who have done her no favors. I highly doubt she would consent to undergoing the ritual with you.
- **18398**: Increase your reputation around Vana'diel and do all you can for [San d'Oria/your home nation] first.
- **18399**: I cannot say for certain whether she would accept you or not, but it could do no harm to make an official visit and make your intentions clear.
- **18400**: Hm? You wish to know where Curilla is[ anyway?/?]
- **18401**: Why, she can be found in Chateau d'Oraguille, located to the northeast of here. [However, I would not expect the guards there to let you pass./You cannot miss it.]
- **18402**: I must bid you adieu. May glory shine upon you, and on the grand nation of San d'Oria!
- **18403**: I am not the only one participating in the Trust initiative here in San d'Oria. You would do well to speak with Curilla, leader of the Temple Knights.

## Events

### Event 65535

#### Metadata

| Field        | Value   |
|--------------|---------|
| Entrypoint   | 0x0000  |
| Data Size    | 1 bytes |
| Instructions | 1       |

```
      00 01 02 03 04 05 06 07  08 09 0A 0B 0C 0D 0E 0F
      -- -- -- -- -- -- -- --  -- -- -- -- -- -- -- --
0000: 00                                                .               
```

#### Opcodes

```
  0: 0x0000 [0x00] END_REQSTACK()
```

### Event 65535.1

#### Metadata

| Field        | Value    |
|--------------|----------|
| Entrypoint   | 0x0001   |
| Data Size    | 16 bytes |
| Instructions | 4        |

```
      00 01 02 03 04 05 06 07  08 09 0A 0B 0C 0D 0E 0F
      -- -- -- -- -- -- -- --  -- -- -- -- -- -- -- --
0000:    6E D1 70 0E 01 00 80  99 D1 70 0E 01 1C 01 80   n.p......p.....
0010: 00                                                .               
```

#### Opcodes

```
  0: 0x0001 [0x6E] Excenmille (ID: 17723601/0x010E70D1) uses emote 7*
  1: 0x0008 [0x99] Wait for Excenmille (ID: 17723601/0x010E70D1) animation to complete
  2: 0x000D [0x1C] WAIT(90* ticks)
  3: 0x0010 [0x00] END_REQSTACK()
```

### Event 893

#### Metadata

| Field        | Value   |
|--------------|---------|
| Entrypoint   | 0x0011  |
| Data Size    | 1 bytes |
| Instructions | 1       |

```
      00 01 02 03 04 05 06 07  08 09 0A 0B 0C 0D 0E 0F
      -- -- -- -- -- -- -- --  -- -- -- -- -- -- -- --
0010:    00                                              .              
```

#### Opcodes

```
  0: 0x0011 [0x00] END_REQSTACK()
```

### Event 894

#### Metadata

| Field        | Value    |
|--------------|----------|
| Entrypoint   | 0x0012   |
| Data Size    | 49 bytes |
| Instructions | 12       |

```
      00 01 02 03 04 05 06 07  08 09 0A 0B 0C 0D 0E 0F
      -- -- -- -- -- -- -- --  -- -- -- -- -- -- -- --
0010:       1E F0 FF FF 7F 6F  70 66 02 80 D1 70 0E 01    .....opf...p..
0020: D1 70 0E 01 74 6C 6B 30  1D 03 80 23 1D 04 80 23  .p..tlk0...#...#
0030: 66 02 80 D1 70 0E 01 D1  70 0E 01 74 6C 6B 31 20  f...p...p..tlk1 
0040: 00 21 00                                          .!.             
```

#### Opcodes

```
  0: 0x0012 [0x1E] EventEntity looks at LocalPlayer and starts talking
  1: 0x0017 [0x6F] WAIT_FRAME_DELAY: Yield until WaitTime reaches zero
  2: 0x0018 [0x70] WAIT_ENTITY_RENDER_FLAG: Wait while EventEntity->Render.Flags3 bit 2 is set (cancel turn if not)
  3: 0x0019 [0x66] LOAD_EXT_SCHEDULER_MAIN: Load scheduler "tlk0" with entities [Excenmille (ID: 17723601/0x010E70D1), Excenmille (ID: 17723601/0x010E70D1)], work=29*
  4: 0x0028 [0x1D] PRINT_EVENT_MESSAGE(message_id=18387*)
    → "I advise you to try your hand at your nearest convenience--outside of town, that is."
  5: 0x002B [0x23] WAIT_FOR_DIALOG_INTERACTION
  6: 0x002C [0x1D] PRINT_EVENT_MESSAGE(message_id=18388*)
    → "May I suggest East or West Ronfaure? They are both nearby, and provide ideal conditions for you to try out this newfound power. When you are finished, return here and inform me as to how you are progressing."
  7: 0x002F [0x23] WAIT_FOR_DIALOG_INTERACTION
  8: 0x0030 [0x66] LOAD_EXT_SCHEDULER_MAIN: Load scheduler "tlk1" with entities [Excenmille (ID: 17723601/0x010E70D1), Excenmille (ID: 17723601/0x010E70D1)], work=29*
  9: 0x003F [0x20] SET_CLI_EVENT_UC_FLAG: Unlock player control
 10: 0x0041 [0x21] END_EVENT
 11: 0x0042 [0x00] END_REQSTACK()
```

### Event 895

#### Metadata

| Field        | Value     |
|--------------|-----------|
| Entrypoint   | 0x0043    |
| Data Size    | 320 bytes |
| Instructions | 66        |

```
      00 01 02 03 04 05 06 07  08 09 0A 0B 0C 0D 0E 0F
      -- -- -- -- -- -- -- --  -- -- -- -- -- -- -- --
0040:          42 03 00 00 06  10 03 01 00 09 10 1E F0     B............
0050: FF FF 7F 6F 70 6E D1 70  0E 01 00 80 99 D1 70 0E  ...opn.p......p.
0060: 01 1D 05 80 23 24 06 80  07 80 07 80 25 02 00 10  ....#$......%...
0070: 07 80 00 88 00 6E D1 70  0E 01 00 80 99 D1 70 0E  .....n.p......p.
0080: 01 1D 08 80 23 01 B5 00  02 00 10 09 80 00 B5 00  ....#...........
0090: 66 02 80 D1 70 0E 01 D1  70 0E 01 74 68 6B 31 1D  f...p...p..thk1.
00A0: 0A 80 23 66 02 80 D1 70  0E 01 D1 70 0E 01 74 68  ..#f...p...p..th
00B0: 6B 32 01 B5 00 66 02 80  D1 70 0E 01 D1 70 0E 01  k2...f...p...p..
00C0: 74 6C 6B 30 03 03 10 0B  80 1D 0C 80 23 1D 0D 80  tlk0........#...
00D0: 23 66 02 80 D1 70 0E 01  D1 70 0E 01 74 6C 6B 31  #f...p...p..tlk1
00E0: 66 02 80 D1 70 0E 01 D1  70 0E 01 70 61 73 30 03  f...p...p..pas0.
00F0: 03 10 0E 80 1D 0F 80 23  03 04 10 09 80 6E D1 70  .......#.....n.p
0100: 0E 01 00 80 99 D1 70 0E  01 1D 10 80 23 02 01 00  ......p.....#...
0110: 07 80 00 48 01 03 06 10  00 00 66 02 80 D1 70 0E  ...H......f...p.
0120: 01 D1 70 0E 01 74 68 6B  31 1D 11 80 23 1D 12 80  ..p..thk1...#...
0130: 23 03 05 10 07 80 66 02  80 D1 70 0E 01 D1 70 0E  #.....f...p...p.
0140: 01 74 68 6B 32 01 56 01  03 06 10 00 00 1D 13 80  .thk2.V.........
0150: 23 03 05 10 09 80 1D 14  80 23 1D 15 80 23 6E D1  #........#...#n.
0160: 70 0E 01 00 80 99 D1 70  0E 01 1D 16 80 23 45 17  p......p.....#E.
0170: 80 F8 FF FF 7F F8 FF FF  7F 71 73 74 63 07 80 20  .........qstc.. 
0180: 00 21 00                                          .!.             
```

#### Opcodes

```
  0: 0x0043 [0x42] SET_CLI_EVENT_CANCEL_DATA()
  1: 0x0044 [0x03] ExtData[1]->WorkLocal[0] = Work_Zone[6]
  2: 0x0049 [0x03] ExtData[1]->WorkLocal[1] = Work_Zone[9]
  3: 0x004E [0x1E] EventEntity looks at LocalPlayer and starts talking
  4: 0x0053 [0x6F] WAIT_FRAME_DELAY: Yield until WaitTime reaches zero
  5: 0x0054 [0x70] WAIT_ENTITY_RENDER_FLAG: Wait while EventEntity->Render.Flags3 bit 2 is set (cancel turn if not)
  6: 0x0055 [0x6E] Excenmille (ID: 17723601/0x010E70D1) uses emote 7*
  7: 0x005C [0x99] Wait for Excenmille (ID: 17723601/0x010E70D1) animation to complete
  8: 0x0061 [0x1D] PRINT_EVENT_MESSAGE(message_id=18389*)
    → "Were you successful? Please, tell me everything."
  9: 0x0064 [0x23] WAIT_FOR_DIALOG_INTERACTION
 10: 0x0065 [0x24] CREATE_DIALOG(message_id=18390*, default_option=0*, option_flags=0*)
    → "How did things go? [Swimmingly./Drowningly.]"
 11: 0x006C [0x25] WAIT_DIALOG_SELECT()
 12: 0x006D [0x02] IF !(Work_Zone[0] == 0*) GOTO 0x0088
 13: 0x0075 [0x6E] Excenmille (ID: 17723601/0x010E70D1) uses emote 7*
 14: 0x007C [0x99] Wait for Excenmille (ID: 17723601/0x010E70D1) animation to complete
 15: 0x0081 [0x1D] PRINT_EVENT_MESSAGE(message_id=18391*)
    → "It is wonderful to hear that you are getting along well with my alter ego. Good things come in threes, so one more positive thing must await you yet!"
 16: 0x0084 [0x23] WAIT_FOR_DIALOG_INTERACTION
 17: 0x0085 [0x01] GOTO 0x00B5
 18: 0x0088 [0x02] IF !(Work_Zone[0] == 1*) GOTO 0x00B5
 19: 0x0090 [0x66] LOAD_EXT_SCHEDULER_MAIN: Load scheduler "thk1" with entities [Excenmille (ID: 17723601/0x010E70D1), Excenmille (ID: 17723601/0x010E70D1)], work=29*
 20: 0x009F [0x1D] PRINT_EVENT_MESSAGE(message_id=18392*)
    → "I see... Well, San d'Oria was not built in a day. Keep at it, and I am certain your efforts will be rewarded once more."
 21: 0x00A2 [0x23] WAIT_FOR_DIALOG_INTERACTION
 22: 0x00A3 [0x66] LOAD_EXT_SCHEDULER_MAIN: Load scheduler "thk2" with entities [Excenmille (ID: 17723601/0x010E70D1), Excenmille (ID: 17723601/0x010E70D1)], work=29*
 23: 0x00B2 [0x01] GOTO 0x00B5

SUBROUTINE_00B5:
 24: 0x00B5 [0x66] LOAD_EXT_SCHEDULER_MAIN: Load scheduler "tlk0" with entities [Excenmille (ID: 17723601/0x010E70D1), Excenmille (ID: 17723601/0x010E70D1)], work=29*
 25: 0x00C4 [0x03] Work_Zone[3] = 2500*
 26: 0x00C9 [0x1D] PRINT_EVENT_MESSAGE(message_id=18393*)
    → "The $3 I have bequeathed to you will surely be of interest to Gondebaud. He can tell you more--and please, treat my alter ego well. Don't go barking inane orders like Rahal did."
 27: 0x00CC [0x23] WAIT_FOR_DIALOG_INTERACTION
 28: 0x00CD [0x1D] PRINT_EVENT_MESSAGE(message_id=18394*)
    → "All of us involved in this grand experiment are attempting to figure out the exact methodology behind it. This is bigger than San d'Oria. The nations of Bastok and Windurst are as serious as we are."
 29: 0x00D0 [0x23] WAIT_FOR_DIALOG_INTERACTION
 30: 0x00D1 [0x66] LOAD_EXT_SCHEDULER_MAIN: Load scheduler "tlk1" with entities [Excenmille (ID: 17723601/0x010E70D1), Excenmille (ID: 17723601/0x010E70D1)], work=29*
 31: 0x00E0 [0x66] LOAD_EXT_SCHEDULER_MAIN: Load scheduler "pas0" with entities [Excenmille (ID: 17723601/0x010E70D1), Excenmille (ID: 17723601/0x010E70D1)], work=29*
 32: 0x00EF [0x03] Work_Zone[3] = 2501*
 33: 0x00F4 [0x1D] PRINT_EVENT_MESSAGE(message_id=18395*)
    → "This $3 is intended not just for your own betterment, but for the betterment of us all. Go forth, and discover all there is to be learned."
 34: 0x00F7 [0x23] WAIT_FOR_DIALOG_INTERACTION
 35: 0x00F8 [0x03] Work_Zone[4] = 1*
 36: 0x00FD [0x6E] Excenmille (ID: 17723601/0x010E70D1) uses emote 7*
 37: 0x0104 [0x99] Wait for Excenmille (ID: 17723601/0x010E70D1) animation to complete
 38: 0x0109 [0x1D] PRINT_EVENT_MESSAGE(message_id=18396*)
    → "[By the way/While I have your attention], Curilla of the Temple Knights is also participating in this initiative."
 39: 0x010C [0x23] WAIT_FOR_DIALOG_INTERACTION
 40: 0x010D [0x02] IF !(ExtData[1]->WorkLocal[1] == 0*) GOTO 0x0148
 41: 0x0115 [0x03] Work_Zone[6] = ExtData[1]->WorkLocal[0]
 42: 0x011A [0x66] LOAD_EXT_SCHEDULER_MAIN: Load scheduler "thk1" with entities [Excenmille (ID: 17723601/0x010E70D1), Excenmille (ID: 17723601/0x010E70D1)], work=29*
 43: 0x0129 [0x1D] PRINT_EVENT_MESSAGE(message_id=18397*)
    → "I must warn you, however, that she has little time for those who have done her no favors. I highly doubt she would consent to undergoing the ritual with you."
 44: 0x012C [0x23] WAIT_FOR_DIALOG_INTERACTION
 45: 0x012D [0x1D] PRINT_EVENT_MESSAGE(message_id=18398*)
    → "Increase your reputation around Vana'diel and do all you can for [San d'Oria/your home nation] first."
 46: 0x0130 [0x23] WAIT_FOR_DIALOG_INTERACTION
 47: 0x0131 [0x03] Work_Zone[5] = 0*
 48: 0x0136 [0x66] LOAD_EXT_SCHEDULER_MAIN: Load scheduler "thk2" with entities [Excenmille (ID: 17723601/0x010E70D1), Excenmille (ID: 17723601/0x010E70D1)], work=29*
 49: 0x0145 [0x01] GOTO 0x0156
 50: 0x0148 [0x03] Work_Zone[6] = ExtData[1]->WorkLocal[0]
 51: 0x014D [0x1D] PRINT_EVENT_MESSAGE(message_id=18399*)
    → "I cannot say for certain whether she would accept you or not, but it could do no harm to make an official visit and make your intentions clear."
 52: 0x0150 [0x23] WAIT_FOR_DIALOG_INTERACTION
 53: 0x0151 [0x03] Work_Zone[5] = 1*

SUBROUTINE_0156:
 54: 0x0156 [0x1D] PRINT_EVENT_MESSAGE(message_id=18400*)
    → "Hm? You wish to know where Curilla is[ anyway?/?]"
 55: 0x0159 [0x23] WAIT_FOR_DIALOG_INTERACTION
 56: 0x015A [0x1D] PRINT_EVENT_MESSAGE(message_id=18401*)
    → "Why, she can be found in Chateau d'Oraguille, located to the northeast of here. [However, I would not expect the guards there to let you pass./You cannot miss it.]"
 57: 0x015D [0x23] WAIT_FOR_DIALOG_INTERACTION
 58: 0x015E [0x6E] Excenmille (ID: 17723601/0x010E70D1) uses emote 7*
 59: 0x0165 [0x99] Wait for Excenmille (ID: 17723601/0x010E70D1) animation to complete
 60: 0x016A [0x1D] PRINT_EVENT_MESSAGE(message_id=18402*)
    → "I must bid you adieu. May glory shine upon you, and on the grand nation of San d'Oria!"
 61: 0x016D [0x23] WAIT_FOR_DIALOG_INTERACTION
 62: 0x016E [0x45] LOAD_SCHEDULED_TASK: Load scheduler "qstc" with entities [EventEntity, EventEntity], work=[201*, 0*]
 63: 0x017F [0x20] SET_CLI_EVENT_UC_FLAG: Unlock player control
 64: 0x0181 [0x21] END_EVENT
 65: 0x0182 [0x00] END_REQSTACK()
```

### Event 896

#### Metadata

| Field        | Value    |
|--------------|----------|
| Entrypoint   | 0x0183   |
| Data Size    | 56 bytes |
| Instructions | 18       |

```
      00 01 02 03 04 05 06 07  08 09 0A 0B 0C 0D 0E 0F
      -- -- -- -- -- -- -- --  -- -- -- -- -- -- -- --
0180:          02 09 10 07 80  00 93 01 03 05 10 07 80     .............
0190: 01 98 01 03 05 10 09 80  1E F0 FF FF 7F 6F 70 1D  .............op.
01A0: 18 80 23 1D 15 80 23 6E  D1 70 0E 01 00 80 99 D1  ..#...#n.p......
01B0: 70 0E 01 1D 16 80 23 20  00 21 00                 p.....# .!.     
```

#### Opcodes

```
  0: 0x0183 [0x02] IF !(Work_Zone[9] == 0*) GOTO 0x0193
  1: 0x018B [0x03] Work_Zone[5] = 0*
  2: 0x0190 [0x01] GOTO 0x0198
  3: 0x0193 [0x03] Work_Zone[5] = 1*

SUBROUTINE_0198:
  4: 0x0198 [0x1E] EventEntity looks at LocalPlayer and starts talking
  5: 0x019D [0x6F] WAIT_FRAME_DELAY: Yield until WaitTime reaches zero
  6: 0x019E [0x70] WAIT_ENTITY_RENDER_FLAG: Wait while EventEntity->Render.Flags3 bit 2 is set (cancel turn if not)
  7: 0x019F [0x1D] PRINT_EVENT_MESSAGE(message_id=18403*)
    → "I am not the only one participating in the Trust initiative here in San d'Oria. You would do well to speak with Curilla, leader of the Temple Knights."
  8: 0x01A2 [0x23] WAIT_FOR_DIALOG_INTERACTION
  9: 0x01A3 [0x1D] PRINT_EVENT_MESSAGE(message_id=18401*)
    → "Why, she can be found in Chateau d'Oraguille, located to the northeast of here. [However, I would not expect the guards there to let you pass./You cannot miss it.]"
 10: 0x01A6 [0x23] WAIT_FOR_DIALOG_INTERACTION
 11: 0x01A7 [0x6E] Excenmille (ID: 17723601/0x010E70D1) uses emote 7*
 12: 0x01AE [0x99] Wait for Excenmille (ID: 17723601/0x010E70D1) animation to complete
 13: 0x01B3 [0x1D] PRINT_EVENT_MESSAGE(message_id=18402*)
    → "I must bid you adieu. May glory shine upon you, and on the grand nation of San d'Oria!"
 14: 0x01B6 [0x23] WAIT_FOR_DIALOG_INTERACTION
 15: 0x01B7 [0x20] SET_CLI_EVENT_UC_FLAG: Unlock player control
 16: 0x01B9 [0x21] END_EVENT
 17: 0x01BA [0x00] END_REQSTACK()
```

### Event 897

#### Metadata

| Field        | Value   |
|--------------|---------|
| Entrypoint   | 0x01BB  |
| Data Size    | 1 bytes |
| Instructions | 1       |

```
      00 01 02 03 04 05 06 07  08 09 0A 0B 0C 0D 0E 0F
      -- -- -- -- -- -- -- --  -- -- -- -- -- -- -- --
01B0:                                   00                         .    
```

#### Opcodes

```
  0: 0x01BB [0x00] END_REQSTACK()
```

### Event 29

#### Metadata

| Field        | Value    |
|--------------|----------|
| Entrypoint   | 0x01BC   |
| Data Size    | 41 bytes |
| Instructions | 13       |

```
      00 01 02 03 04 05 06 07  08 09 0A 0B 0C 0D 0E 0F
      -- -- -- -- -- -- -- --  -- -- -- -- -- -- -- --
01B0:                                      1E F0 FF FF              ....
01C0: 7F 6F 70 2B D1 70 0E 01  19 80 23 2B D1 70 0E 01  .op+.p....#+.p..
01D0: 1A 80 23 2B D1 70 0E 01  1B 80 23 2B D1 70 0E 01  ..#+.p....#+.p..
01E0: 1C 80 23 21 00                                    ..#!.           
```

#### Opcodes

```
  0: 0x01BC [0x1E] EventEntity looks at LocalPlayer and starts talking
  1: 0x01C1 [0x6F] WAIT_FRAME_DELAY: Yield until WaitTime reaches zero
  2: 0x01C2 [0x70] WAIT_ENTITY_RENDER_FLAG: Wait while EventEntity->Render.Flags3 bit 2 is set (cancel turn if not)
  3: 0x01C3 [0x2B] Excenmille (ID: 17723601/0x010E70D1) [7765*]:
    → "Your air... Your attire... An adventurer, I assume. Have you come looking to register for Conflict?"
  4: 0x01CA [0x23] WAIT_FOR_DIALOG_INTERACTION
  5: 0x01CB [0x2B] Excenmille (ID: 17723601/0x010E70D1) [7766*]:
    → "I truly am sorry, but we are not accepting applications from those who have yet to prove their loyalty to the crown."
  6: 0x01D2 [0x23] WAIT_FOR_DIALOG_INTERACTION
  7: 0x01D3 [0x2B] Excenmille (ID: 17723601/0x010E70D1) [7767*]:
    → "However, do not let that dampen your spirits. I am positive the day will come when I can welcome you to our noble ranks."
  8: 0x01DA [0x23] WAIT_FOR_DIALOG_INTERACTION
  9: 0x01DB [0x2B] Excenmille (ID: 17723601/0x010E70D1) [7768*]:
    → "The future of our kingdom is riding on your shoulders."
 10: 0x01E2 [0x23] WAIT_FOR_DIALOG_INTERACTION
 11: 0x01E3 [0x21] END_EVENT
 12: 0x01E4 [0x00] END_REQSTACK()
```

### Event 36

#### Metadata

| Field        | Value      |
|--------------|------------|
| Entrypoint   | 0x01E5     |
| Data Size    | 3350 bytes |
| Instructions | 516        |

```
      00 01 02 03 04 05 06 07  08 09 0A 0B 0C 0D 0E 0F
      -- -- -- -- -- -- -- --  -- -- -- -- -- -- -- --
01E0:                20 01 42  02 03 10 07 80 00 2F 02        .B....../.
01F0: 1E F0 FF FF 7F 6F 70 2B  D1 70 0E 01 1D 80 23 2B  .....op+.p....#+
0200: D1 70 0E 01 1E 80 23 2B  D1 70 0E 01 1F 80 23 2B  .p....#+.p....#+
0210: D1 70 0E 01 20 80 23 2B  D1 70 0E 01 21 80 23 2B  .p.. .#+.p..!.#+
0220: D1 70 0E 01 22 80 23 2B  D1 70 0E 01 23 80 23 45  .p..".#+.p..#.#E
0230: 24 80 F0 FF FF 7F F0 FF  FF 7F 66 64 6F 31 07 80  $.........fdo1..
0240: 55 24 80 F0 FF FF 7F F0  FF FF 7F 66 64 6F 31 38  U$.........fdo18
0250: 25 80 27 03 F0 FF FF 7F  5F 3B F8 FF FF 7F 02 00  %.'....._;......
0260: 03 00 04 00 3A F8 FF FF  7F 05 00 46 01 5C 00 26  ....:......F.\.&
0270: 80 5C 01 26 80 38 27 80  34 28 80 1C 29 80 77 07  .\.&.8'.4(..).w.
0280: 80 07 80 03 06 00 02 10  75 00 2A 80 75 01 94 01  ........u.*.u...
0290: F0 FF FF 7F 94 01 F8 FF  FF 7F 4E 01 F0 FF FF 7F  ..........N.....
02A0: 4E 01 F8 FF FF 7F 4E 00  EE 70 0E 01 4E 00 02 70  N.....N..p..N..p
02B0: 0E 01 4E 00 F1 70 0E 01  4E 00 1D 70 0E 01 02 06  ..N..p..N..p....
02C0: 00 07 80 00 CF 02 4E 00  F2 70 0E 01 01 D6 02 27  ......N..p.....'
02D0: 03 F1 70 0E 01 02 4E 00  F3 70 0E 01 4E 00 F4 70  ..p...N..p..N..p
02E0: 0E 01 79 00 02 70 0E 01  EE 70 0E 01 79 00 F1 70  ..y..p...p..y..p
02F0: 0E 01 EE 70 0E 01 79 00  F2 70 0E 01 EE 70 0E 01  ...p..y..p...p..
0300: 79 00 F3 70 0E 01 EE 70  0E 01 79 00 F4 70 0E 01  y..p...p..y..p..
0310: EE 70 0E 01 80 EE 70 0E  01 80 02 70 0E 01 80 F3  .p....p....p....
0320: 70 0E 01 4E 00 EF 70 0E  01 4E 00 F0 70 0E 01 45  p..N..p..N..p..E
0330: 2B 80 F0 FF FF 7F F0 FF  FF 7F 7A 30 30 30 07 80  +.........z000..
0340: 97 07 80 09 80 45 24 80  F0 FF FF 7F F0 FF FF 7F  .....E$.........
0350: 66 64 69 31 07 80 55 24  80 F0 FF FF 7F F0 FF FF  fdi1..U$........
0360: 7F 66 64 69 31 55 2B 80  F0 FF FF 7F F0 FF FF 7F  .fdi1U+.........
0370: 7A 30 30 30 2B EE 70 0E  01 2C 80 79 00 EE 70 0E  z000+.p..,.y..p.
0380: 01 02 70 0E 01 1C 01 80  79 00 EE 70 0E 01 F3 70  ..p.....y..p...p
0390: 0E 01 1C 01 80 7B EE 70  0E 01 23 45 2B 80 F0 FF  .....{.p..#E+...
03A0: FF 7F F0 FF FF 7F 7A 30  30 31 07 80 55 2B 80 F0  ......z001..U+..
03B0: FF FF 7F F0 FF FF 7F 7A  30 30 31 1C 2D 80 2B EE  .......z001.-.+.
03C0: 70 0E 01 2E 80 23 1C 2F  80 2B 02 70 0E 01 30 80  p....#./.+.p..0.
03D0: 23 1C 31 80 4A EE 70 0E  01 02 70 0E 01 1C 2F 80  #.1.J.p...p.../.
03E0: 45 2B 80 F0 FF FF 7F F0  FF FF 7F 7A 30 30 32 07  E+.........z002.
03F0: 80 6F 76 EE 70 0E 01 4A  F3 70 0E 01 02 70 0E 01  .ov.p..J.p...p..
0400: 4A F2 70 0E 01 02 70 0E  01 4A F1 70 0E 01 02 70  J.p...p..J.p...p
0410: 0E 01 1C 31 80 2B EE 70  0E 01 32 80 23 55 2B 80  ...1.+.p..2.#U+.
0420: F0 FF FF 7F F0 FF FF 7F  7A 30 30 32 2B 02 70 0E  ........z002+.p.
0430: 01 33 80 23 2B 02 70 0E  01 34 80 23 81 00 02 70  .3.#+.p..4.#...p
0440: 0E 01 45 2B 80 F0 FF FF  7F F0 FF FF 7F 7A 30 30  ..E+.........z00
0450: 33 07 80 2B 02 70 0E 01  35 80 23 2B 02 70 0E 01  3..+.p..5.#+.p..
0460: 36 80 23 81 01 02 70 0E  01 7B 02 70 0E 01 55 2B  6.#...p..{.p..U+
0470: 80 F0 FF FF 7F F0 FF FF  7F 7A 30 30 33 4B 02 70  .........z003K.p
0480: 0E 01 07 80 1C 31 80 45  2B 80 F0 FF FF 7F F0 FF  .....1.E+.......
0490: FF 7F 7A 30 30 34 07 80  55 2B 80 F0 FF FF 7F F0  ..z004..U+......
04A0: FF FF 7F 7A 30 30 34 6F  76 02 70 0E 01 27 03 02  ...z004ov.p..'..
04B0: 70 0E 01 31 2B 02 70 0E  01 37 80 23 27 03 F3 70  p..1+.p..7.#'..p
04C0: 0E 01 03 2B F3 70 0E 01  38 80 23 27 03 F3 70 0E  ...+.p..8.#'..p.
04D0: 01 04 02 06 00 07 80 00  E5 04 2B F2 70 0E 01 39  ..........+.p..9
04E0: 80 23 01 ED 04 2B F1 70  0E 01 3A 80 23 27 03 02  .#...+.p..:.#'..
04F0: 70 0E 01 32 2B 02 70 0E  01 3B 80 23 02 06 00 07  p..2+.p..;.#....
0500: 80 00 68 05 4A F3 70 0E  01 F2 70 0E 01 1C 2F 80  ..h.J.p...p.../.
0510: 45 2B 80 F0 FF FF 7F F0  FF FF 7F 7A 30 30 35 07  E+.........z005.
0520: 80 55 2B 80 F0 FF FF 7F  F0 FF FF 7F 7A 30 30 35  .U+.........z005
0530: 6F 76 F3 70 0E 01 27 03  F3 70 0E 01 07 2B F3 70  ov.p..'..p...+.p
0540: 0E 01 3C 80 1C 2F 80 4A  F2 70 0E 01 F3 70 0E 01  ..<../.J.p...p..
0550: 1C 2F 80 4A F1 70 0E 01  F3 70 0E 01 23 2B F3 70  ./.J.p...p..#+.p
0560: 0E 01 3D 80 23 01 B5 05  4A F3 70 0E 01 F1 70 0E  ..=.#...J.p...p.
0570: 01 1C 2F 80 45 2B 80 F0  FF FF 7F F0 FF FF 7F 7A  ../.E+.........z
0580: 30 30 35 07 80 55 2B 80  F0 FF FF 7F F0 FF FF 7F  005..U+.........
0590: 7A 30 30 35 6F 76 F3 70  0E 01 27 03 F3 70 0E 01  z005ov.p..'..p..
05A0: 07 2B F3 70 0E 01 3E 80  1C 2F 80 4A F1 70 0E 01  .+.p..>../.J.p..
05B0: F3 70 0E 01 23 2B F3 70  0E 01 3F 80 23 45 2B 80  .p..#+.p..?.#E+.
05C0: F0 FF FF 7F F0 FF FF 7F  7A 30 30 36 07 80 55 2B  ........z006..U+
05D0: 80 F0 FF FF 7F F0 FF FF  7F 7A 30 30 36 02 06 00  .........z006...
05E0: 07 80 00 1A 06 6F 76 F2  70 0E 01 27 03 F2 70 0E  .....ov.p..'..p.
05F0: 01 06 2B F2 70 0E 01 40  80 23 2B F2 70 0E 01 41  ..+.p..@.#+.p..A
0600: 80 23 27 03 F2 70 0E 01  07 2B F2 70 0E 01 42 80  .#'..p...+.p..B.
0610: 23 2A 03 F2 70 0E 01 01  40 06 27 03 F1 70 0E 01  #*..p...@.'..p..
0620: 06 2B F1 70 0E 01 43 80  23 2B F1 70 0E 01 44 80  .+.p..C.#+.p..D.
0630: 23 2B F1 70 0E 01 45 80  23 29 03 F1 70 0E 01 07  #+.p..E.#)..p...
0640: 45 2B 80 F0 FF FF 7F F0  FF FF 7F 7A 30 30 37 07  E+.........z007.
0650: 80 2B 02 70 0E 01 46 80  1C 29 80 29 03 F3 70 0E  .+.p..F..).)..p.
0660: 01 08 23 55 2B 80 F0 FF  FF 7F F0 FF FF 7F 7A 30  ..#U+.........z0
0670: 30 37 02 06 00 07 80 00  85 06 2B F3 70 0E 01 47  07........+.p..G
0680: 80 23 01 8D 06 2B F3 70  0E 01 48 80 23 2B F3 70  .#...+.p..H.#+.p
0690: 0E 01 49 80 23 2B F3 70  0E 01 4A 80 23 02 06 00  ..I.#+.p..J.#...
06A0: 07 80 00 3C 07 2B F2 70  0E 01 4B 80 23 45 2B 80  ...<.+.p..K.#E+.
06B0: F0 FF FF 7F F0 FF FF 7F  7A 30 30 38 07 80 27 03  ........z008..'.
06C0: F1 70 0E 01 09 2B F1 70  0E 01 4C 80 23 79 00 F3  .p...+.p..L.#y..
06D0: 70 0E 01 F1 70 0E 01 55  2B 80 F0 FF FF 7F F0 FF  p...p..U+.......
06E0: FF 7F 7A 30 30 38 45 2B  80 F0 FF FF 7F F0 FF FF  ..z008E+........
06F0: 7F 7A 30 30 39 07 80 2B  F1 70 0E 01 4D 80 1C 2F  .z009..+.p..M../
0700: 80 4A F2 70 0E 01 F1 70  0E 01 6F 76 F2 70 0E 01  .J.p...p..ov.p..
0710: 23 2B F2 70 0E 01 4E 80  23 6B 69 64 6C 30 F1 70  #+.p..N.#kidl0.p
0720: 0E 01 2B F1 70 0E 01 4F  80 23 55 2B 80 F0 FF FF  ..+.p..O.#U+....
0730: 7F F0 FF FF 7F 7A 30 30  39 01 96 07 45 2B 80 F0  .....z009...E+..
0740: FF FF 7F F0 FF FF 7F 73  30 30 30 07 80 27 03 F1  .......s000..'..
0750: 70 0E 01 0B 2B F1 70 0E  01 50 80 23 2B F1 70 0E  p...+.p..P.#+.p.
0760: 01 51 80 23 2B F1 70 0E  01 52 80 23 2A 03 F1 70  .Q.#+.p..R.#*..p
0770: 0E 01 2B F1 70 0E 01 53  80 1C 54 80 27 03 F1 70  ..+.p..S..T.'..p
0780: 0E 01 08 1C 54 80 23 55  2B 80 F0 FF FF 7F F0 FF  ....T.#U+.......
0790: FF 7F 73 30 30 30 45 2B  80 F0 FF FF 7F F0 FF FF  ..s000E+........
07A0: 7F 79 30 30 30 07 80 2B  F3 70 0E 01 55 80 23 7B  .y000..+.p..U.#{
07B0: F3 70 0E 01 2B F3 70 0E  01 56 80 23 55 2B 80 F0  .p..+.p..V.#U+..
07C0: FF FF 7F F0 FF FF 7F 79  30 30 30 45 2B 80 F0 FF  .......y000E+...
07D0: FF 7F F0 FF FF 7F 79 30  30 31 07 80 2B 02 70 0E  ......y001..+.p.
07E0: 01 57 80 23 4A F1 70 0E  01 02 70 0E 01 02 06 00  .W.#J.p...p.....
07F0: 07 80 00 00 08 2B 02 70  0E 01 58 80 23 01 08 08  .....+.p..X.#...
0800: 2B 02 70 0E 01 59 80 23  55 2B 80 F0 FF FF 7F F0  +.p..Y.#U+......
0810: FF FF 7F 79 30 30 31 6F  76 F1 70 0E 01 2B F1 70  ...y001ov.p..+.p
0820: 0E 01 5A 80 23 1C 5B 80  4A F3 70 0E 01 02 70 0E  ..Z.#.[.J.p...p.
0830: 01 1C 2F 80 4A F1 70 0E  01 02 70 0E 01 45 2B 80  ../.J.p...p..E+.
0840: F0 FF FF 7F F0 FF FF 7F  79 30 30 32 07 80 55 2B  ........y002..U+
0850: 80 F0 FF FF 7F F0 FF FF  7F 79 30 30 32 6F 76 F3  .........y002ov.
0860: 70 0E 01 27 03 F3 70 0E  01 05 2B F3 70 0E 01 5C  p..'..p...+.p..\
0870: 80 23 02 06 00 07 80 00  C2 08 45 2B 80 F0 FF FF  .#........E+....
0880: 7F F0 FF FF 7F 79 30 30  33 07 80 1C 5D 80 4A F2  .....y003...].J.
0890: 70 0E 01 02 70 0E 01 1C  5D 80 27 03 F1 70 0E 01  p...p...].'..p..
08A0: 04 2B F1 70 0E 01 5E 80  23 27 03 F1 70 0E 01 05  .+.p..^.#'..p...
08B0: 55 2B 80 F0 FF FF 7F F0  FF FF 7F 79 30 30 33 1C  U+.........y003.
08C0: 2D 80 7B 02 70 0E 01 1C  54 80 27 03 02 70 0E 01  -.{.p...T.'..p..
08D0: 2B 1C 2D 80 27 03 F3 70  0E 01 06 45 2B 80 F0 FF  +.-.'..p...E+...
08E0: FF 7F F0 FF FF 7F 79 30  30 34 07 80 55 2B 80 F0  ......y004..U+..
08F0: FF FF 7F F0 FF FF 7F 79  30 30 34 2A 03 02 70 0E  .......y004*..p.
0900: 01 2B 02 70 0E 01 5F 80  23 4A EE 70 0E 01 02 70  .+.p.._.#J.p...p
0910: 0E 01 2B EE 70 0E 01 60  80 23 2B 02 70 0E 01 61  ..+.p..`.#+.p..a
0920: 80 23 2B 02 70 0E 01 62  80 23 4B 02 70 0E 01 07  .#+.p..b.#K.p...
0930: 80 1C 2D 80 45 2B 80 F0  FF FF 7F F0 FF FF 7F 79  ..-.E+.........y
0940: 30 30 62 07 80 6F 76 02  70 0E 01 1C 5B 80 2B 02  00b..ov.p...[.+.
0950: 70 0E 01 63 80 23 55 2B  80 F0 FF FF 7F F0 FF FF  p..c.#U+........
0960: 7F 79 30 30 62 45 2B 80  F0 FF FF 7F F0 FF FF 7F  .y00bE+.........
0970: 79 30 30 36 07 80 55 2B  80 F0 FF FF 7F F0 FF FF  y006..U+........
0980: 7F 79 30 30 36 2B EE 70  0E 01 64 80 23 79 00 02  .y006+.p..d.#y..
0990: 70 0E 01 EE 70 0E 01 1C  2F 80 27 03 02 70 0E 01  p...p.../.'..p..
09A0: 2F 2B 02 70 0E 01 65 80  23 2B 02 70 0E 01 66 80  /+.p..e.#+.p..f.
09B0: 23 45 2B 80 F0 FF FF 7F  F0 FF FF 7F 78 30 30 30  #E+.........x000
09C0: 07 80 55 2B 80 F0 FF FF  7F F0 FF FF 7F 78 30 30  ..U+.........x00
09D0: 30 2B EE 70 0E 01 67 80  23 45 2B 80 F0 FF FF 7F  0+.p..g.#E+.....
09E0: F0 FF FF 7F 79 30 30 38  07 80 55 2B 80 F0 FF FF  ....y008..U+....
09F0: 7F F0 FF FF 7F 79 30 30  38 27 03 02 70 0E 01 30  .....y008'..p..0
0A00: 2B 02 70 0E 01 68 80 23  27 03 F1 70 0E 01 0B 02  +.p..h.#'..p....
0A10: 06 00 07 80 00 3A 0A 45  2B 80 F0 FF FF 7F F0 FF  .....:.E+.......
0A20: FF 7F 79 30 30 37 07 80  55 2B 80 F0 FF FF 7F F0  ..y007..U+......
0A30: FF FF 7F 79 30 30 37 01  5A 0A 45 2B 80 F0 FF FF  ...y007.Z.E+....
0A40: 7F F0 FF FF 7F 73 30 30  31 07 80 55 2B 80 F0 FF  .....s001..U+...
0A50: FF 7F F0 FF FF 7F 73 30  30 31 2B F1 70 0E 01 69  ......s001+.p..i
0A60: 80 23 2A 03 02 70 0E 01  7B 02 70 0E 01 45 2B 80  .#*..p..{.p..E+.
0A70: F0 FF FF 7F F0 FF FF 7F  79 30 30 35 07 80 1C 5B  ........y005...[
0A80: 80 27 03 02 70 0E 01 31  2B 02 70 0E 01 6A 80 23  .'..p..1+.p..j.#
0A90: 5D 07 80 6B 80 55 2B 80  F0 FF FF 7F F0 FF FF 7F  ]..k.U+.........
0AA0: 79 30 30 35 2B 02 70 0E  01 6C 80 23 27 03 02 70  y005+.p..l.#'..p
0AB0: 0E 01 32 45 2B 80 F0 FF  FF 7F F0 FF FF 7F 79 30  ..2E+.........y0
0AC0: 30 39 07 80 55 2B 80 F0  FF FF 7F F0 FF FF 7F 79  09..U+.........y
0AD0: 30 30 39 5C 00 6D 80 5C  01 6D 80 7C 00 F3 70 0E  009\.m.\.m.|..p.
0AE0: 01 2B F3 70 0E 01 6E 80  23 7C 01 F3 70 0E 01 02  .+.p..n.#|..p...
0AF0: 06 00 07 80 00 1A 0B 45  2B 80 F0 FF FF 7F F0 FF  .......E+.......
0B00: FF 7F 79 30 30 61 07 80  55 2B 80 F0 FF FF 7F F0  ..y00a..U+......
0B10: FF FF 7F 79 30 30 61 01  3A 0B 45 2B 80 F0 FF FF  ...y00a.:.E+....
0B20: 7F F0 FF FF 7F 73 30 30  32 07 80 55 2B 80 F0 FF  .....s002..U+...
0B30: FF 7F F0 FF FF 7F 73 30  30 32 7C 00 F1 70 0E 01  ......s002|..p..
0B40: 2B F1 70 0E 01 6F 80 23  7C 01 F1 70 0E 01 45 2B  +.p..o.#|..p..E+
0B50: 80 F0 FF FF 7F F0 FF FF  7F 78 30 30 31 07 80 1C  .........x001...
0B60: 31 80 27 03 EE 70 0E 01  02 2B EE 70 0E 01 70 80  1.'..p...+.p..p.
0B70: 23 55 2B 80 F0 FF FF 7F  F0 FF FF 7F 78 30 30 31  #U+.........x001
0B80: 2B EE 70 0E 01 71 80 23  1C 5B 80 2B 02 70 0E 01  +.p..q.#.[.+.p..
0B90: 72 80 23 27 03 EE 70 0E  01 03 45 2B 80 F0 FF FF  r.#'..p...E+....
0BA0: 7F F0 FF FF 7F 78 30 30  32 07 80 27 03 F3 70 0E  .....x002..'..p.
0BB0: 01 07 2B F3 70 0E 01 73  80 23 2B F3 70 0E 01 74  ..+.p..s.#+.p..t
0BC0: 80 23 27 03 F3 70 0E 01  08 2B F3 70 0E 01 75 80  .#'..p...+.p..u.
0BD0: 23 2B F3 70 0E 01 76 80  23 55 2B 80 F0 FF FF 7F  #+.p..v.#U+.....
0BE0: F0 FF FF 7F 78 30 30 32  02 06 00 07 80 00 72 0C  ....x002......r.
0BF0: 45 2B 80 F0 FF FF 7F F0  FF FF 7F 78 30 30 33 07  E+.........x003.
0C00: 80 27 03 F1 70 0E 01 06  2B F1 70 0E 01 77 80 23  .'..p...+.p..w.#
0C10: 2B F1 70 0E 01 78 80 23  27 03 F1 70 0E 01 07 4A  +.p..x.#'..p...J
0C20: F2 70 0E 01 F1 70 0E 01  1C 2F 80 2B F2 70 0E 01  .p...p.../.+.p..
0C30: 79 80 23 2A 03 F1 70 0E  01 27 03 F1 70 0E 01 09  y.#*..p..'..p...
0C40: 2B F1 70 0E 01 7A 80 23  2B F1 70 0E 01 7B 80 23  +.p..z.#+.p..{.#
0C50: 6F 76 F2 70 0E 01 27 03  F2 70 0E 01 08 1C 54 80  ov.p..'..p....T.
0C60: 55 2B 80 F0 FF FF 7F F0  FF FF 7F 78 30 30 33 01  U+.........x003.
0C70: C0 0C 45 2B 80 F0 FF FF  7F F0 FF FF 7F 73 30 30  ..E+.........s00
0C80: 33 07 80 27 03 F1 70 0E  01 06 2B F1 70 0E 01 77  3..'..p...+.p..w
0C90: 80 23 2B F1 70 0E 01 78  80 23 27 03 F1 70 0E 01  .#+.p..x.#'..p..
0CA0: 07 2B F1 70 0E 01 7C 80  23 2B F1 70 0E 01 7B 80  .+.p..|.#+.p..{.
0CB0: 23 55 2B 80 F0 FF FF 7F  F0 FF FF 7F 73 30 30 33  #U+.........s003
0CC0: 7B EE 70 0E 01 4A F3 70  0E 01 EE 70 0E 01 1C 7D  {.p..J.p...p...}
0CD0: 80 45 2B 80 F0 FF FF 7F  F0 FF FF 7F 78 30 30 34  .E+.........x004
0CE0: 07 80 55 2B 80 F0 FF FF  7F F0 FF FF 7F 78 30 30  ..U+.........x00
0CF0: 34 02 06 00 07 80 00 02  0D 6B 69 64 6C 30 F1 70  4........kidl0.p
0D00: 0E 01 6F 76 F3 70 0E 01  27 03 F3 70 0E 01 03 2B  ..ov.p..'..p...+
0D10: F3 70 0E 01 7E 80 23 2B  F3 70 0E 01 7F 80 23 27  .p..~.#+.p....#'
0D20: 03 F3 70 0E 01 04 4A 02  70 0E 01 EE 70 0E 01 1C  ..p...J.p...p...
0D30: 2F 80 2B 02 70 0E 01 80  80 23 4B EE 70 0E 01 81  /.+.p....#K.p...
0D40: 80 1C 2F 80 4A F1 70 0E  01 EE 70 0E 01 1C 2F 80  ../.J.p...p.../.
0D50: 4A F2 70 0E 01 EE 70 0E  01 1C 2F 80 45 2B 80 F0  J.p...p.../.E+..
0D60: FF FF 7F F0 FF FF 7F 78  30 30 35 07 80 2B EE 70  .......x005..+.p
0D70: 0E 01 82 80 23 2B EE 70  0E 01 83 80 23 2B EE 70  ....#+.p....#+.p
0D80: 0E 01 84 80 23 55 2B 80  F0 FF FF 7F F0 FF FF 7F  ....#U+.........
0D90: 78 30 30 35 27 03 F3 70  0E 01 05 2B F3 70 0E 01  x005'..p...+.p..
0DA0: 85 80 23 27 03 02 70 0E  01 2D 2B 02 70 0E 01 86  ..#'..p..-+.p...
0DB0: 80 23 45 2B 80 F0 FF FF  7F F0 FF FF 7F 78 30 30  .#E+.........x00
0DC0: 36 07 80 1C 5B 80 27 03  F3 70 0E 01 06 27 03 02  6...[.'..p...'..
0DD0: 70 0E 01 2E 2B EE 70 0E  01 87 80 23 55 2B 80 F0  p...+.p....#U+..
0DE0: FF FF 7F F0 FF FF 7F 78  30 30 36 7B F1 70 0E 01  .......x006{.p..
0DF0: 02 06 00 07 80 00 FB 0D  01 02 0E 29 03 F1 70 0E  ...........)..p.
0E00: 01 03 4B F1 70 0E 01 88  80 27 03 F3 70 0E 01 02  ..K.p....'..p...
0E10: 27 03 02 70 0E 01 2C 1C  29 80 4A 1D 70 0E 01 02  '..p..,.).J.p...
0E20: 70 0E 01 1C 5D 80 45 2B  80 F0 FF FF 7F F0 FF FF  p...].E+........
0E30: 7F 78 30 30 37 07 80 02  06 00 07 80 00 4A 0E 2B  .x007........J.+
0E40: F1 70 0E 01 89 80 23 01  52 0E 2B F1 70 0E 01 8A  .p....#.R.+.p...
0E50: 80 23 27 03 F1 70 0E 01  09 2B F1 70 0E 01 8B 80  .#'..p...+.p....
0E60: 1C 29 80 55 2B 80 F0 FF  FF 7F F0 FF FF 7F 78 30  .).U+.........x0
0E70: 30 37 45 24 80 F0 FF FF  7F F0 FF FF 7F 66 64 6F  07E$.........fdo
0E80: 32 07 80 55 24 80 F0 FF  FF 7F F0 FF FF 7F 66 64  2..U$.........fd
0E90: 6F 32 23 35 8C 80 1C 29  80 78 46 00 38 07 80 37  o2#5...).xF.8..7
0EA0: 02 00 03 00 04 00 05 00  29 03 F0 FF FF 7F 60 4E  ........).....`N
0EB0: 00 F0 FF FF 7F 4E 00 F8  FF FF 7F 80 F0 FF FF 7F  .....N..........
0EC0: 80 F8 FF FF 7F 45 24 80  F0 FF FF 7F F0 FF FF 7F  .....E$.........
0ED0: 66 64 69 32 07 80 5C 00  8D 80 5C 01 8D 80 02 03  fdi2..\...\.....
0EE0: 10 07 80 00 F9 0E 2B D1  70 0E 01 8E 80 23 2B D1  ......+.p....#+.
0EF0: 70 0E 01 8F 80 23 1A 11  0F 21 00                 p....#...!.     
```

#### Opcodes

```
  0: 0x01E5 [0x20] SET_CLI_EVENT_UC_FLAG: Lock player control
  1: 0x01E7 [0x42] SET_CLI_EVENT_CANCEL_DATA()
  2: 0x01E8 [0x02] IF !(Work_Zone[3] == 0*) GOTO 0x022F
  3: 0x01F0 [0x1E] EventEntity looks at LocalPlayer and starts talking
  4: 0x01F5 [0x6F] WAIT_FRAME_DELAY: Yield until WaitTime reaches zero
  5: 0x01F6 [0x70] WAIT_ENTITY_RENDER_FLAG: Wait while EventEntity->Render.Flags3 bit 2 is set (cancel turn if not)
  6: 0x01F7 [0x2B] Excenmille (ID: 17723601/0x010E70D1) [7775*]:
    → "Your air... Your attire... An adventurer, I assume. Have you come looking to register for Conflict?"
  7: 0x01FE [0x23] WAIT_FOR_DIALOG_INTERACTION
  8: 0x01FF [0x2B] Excenmille (ID: 17723601/0x010E70D1) [7776*]:
    → "Let me introduce myself. I am Excenmille M Aurchiat, acting Conflict Commander of the San d'Orian forces."
  9: 0x0206 [0x23] WAIT_FOR_DIALOG_INTERACTION
 10: 0x0207 [0x2B] Excenmille (ID: 17723601/0x010E70D1) [7777*]:
    → "I have heard good things about you, <Player>. Your loyalty to the crown is well-renowned throughout the Kingdom."
 11: 0x020E [0x23] WAIT_FOR_DIALOG_INTERACTION
 12: 0x020F [0x2B] Excenmille (ID: 17723601/0x010E70D1) [7778*]:
    → "I believe that you would make a fine addition to our ranks, and I welcome you."
 13: 0x0216 [0x23] WAIT_FOR_DIALOG_INTERACTION
 14: 0x0217 [0x2B] Excenmille (ID: 17723601/0x010E70D1) [7779*]:
    → "You have come to register for Conflict, have you not?"
 15: 0x021E [0x23] WAIT_FOR_DIALOG_INTERACTION
 16: 0x021F [0x2B] Excenmille (ID: 17723601/0x010E70D1) [7780*]:
    → "Well, before you make a hasty decision, let me explain the finer details of what has transpired in recent months."
 17: 0x0226 [0x23] WAIT_FOR_DIALOG_INTERACTION
 18: 0x0227 [0x2B] Excenmille (ID: 17723601/0x010E70D1) [7781*]:
    → "It all began at the last Conquest Evaluation Assembly held in conjunction with the International Commerce Convention. His Majesty, Prince Trion, made the following proposal..."
 19: 0x022E [0x23] WAIT_FOR_DIALOG_INTERACTION
 20: 0x022F [0x45] LOAD_SCHEDULED_TASK: Load scheduler "fdo1" with entities [LocalPlayer, LocalPlayer], work=[200*, 0*]
 21: 0x0240 [0x55] WAIT_LOAD_SCHEDULER: Wait for scheduler "fdo1" with entities [LocalPlayer, LocalPlayer], work=200*
 22: 0x024F [0x38] SET_CLIENT_EVENT_MODE(mode=3*)
 23: 0x0252 [0x27] REQ_SET(priority=0x03, entity_id=LocalPlayer, tag_num=0x5F)
 24: 0x0259 [0x3B] GET_ENTITY_POSITION(entity=EventEntity, x_destination=ExtData[1]->WorkLocal[2], y_destination=ExtData[1]->WorkLocal[3], z_destination=ExtData[1]->WorkLocal[4])
 25: 0x0264 [0x3A] CONVERT_YAW_TO_BYTE(entity=EventEntity, result_destination=ExtData[1]->WorkLocal[5])
 26: 0x026B [0x46] CAMERA_CONTROL: Disable user control
 27: 0x026D [0x5C] MUSIC_CONTROL: Set Idle (Day) music to song 127*
 28: 0x0271 [0x5C] MUSIC_CONTROL: Set Idle (Night) music to song 127*
 29: 0x0275 [0x38] SET_CLIENT_EVENT_MODE(mode=19*)
 30: 0x0278 [0x34] LOAD_UNLOAD_ZONE(zone_id=243*)
 31: 0x027B [0x1C] WAIT(100* ticks)
 32: 0x027E [0x77] SET_EVENT_TIME_WEATHER(hour=0*, weather=0*)
 33: 0x0283 [0x03] ExtData[1]->WorkLocal[6] = Work_Zone[2]
 34: 0x0288 [0x75] LOAD_ROOM(Load indoor room, room=439*)
 35: 0x028C [0x75] LOAD_ROOM(No action)
 36: 0x028E [0x94] LocalPlayer->Render.Flags3 ^= 0x01
 37: 0x0294 [0x94] EventEntity->Render.Flags3 ^= 0x01
 38: 0x029A [0x4E] SET_ENTITY_HIDE_FLAG: Hide LocalPlayer
 39: 0x02A0 [0x4E] SET_ENTITY_HIDE_FLAG: Hide EventEntity
 40: 0x02A6 [0x4E] SET_ENTITY_HIDE_FLAG: Show Wolfgang (ID: 17723630/0x010E70EE)
 41: 0x02AC [0x4E] SET_ENTITY_HIDE_FLAG: Show Trion (ID: 17723394/0x010E7002)
 42: 0x02B2 [0x4E] SET_ENTITY_HIDE_FLAG: Show Shantotto (ID: 17723633/0x010E70F1)
 43: 0x02B8 [0x4E] SET_ENTITY_HIDE_FLAG: Show Rahal (ID: 17723421/0x010E701D)
 44: 0x02BE [0x02] IF !(ExtData[1]->WorkLocal[6] == 0*) GOTO 0x02CF
 45: 0x02C6 [0x4E] SET_ENTITY_HIDE_FLAG: Show Ajido-Marujido (ID: 17723634/0x010E70F2)
 46: 0x02CC [0x01] GOTO 0x02D6
 47: 0x02CF [0x27] REQ_SET(priority=0x03, entity_id=Shantotto (ID: 17723633/0x010E70F1), tag_num=0x02)

SUBROUTINE_02D6:
 48: 0x02D6 [0x4E] SET_ENTITY_HIDE_FLAG: Show Volker (ID: 17723635/0x010E70F3)
 49: 0x02DC [0x4E] SET_ENTITY_HIDE_FLAG: Show Ayame (ID: 17723636/0x010E70F4)
 50: 0x02E2 [0x79] Trion (ID: 17723394/0x010E7002) looks at Wolfgang (ID: 17723630/0x010E70EE) (Basic look)
 51: 0x02EC [0x79] Shantotto (ID: 17723633/0x010E70F1) looks at Wolfgang (ID: 17723630/0x010E70EE) (Basic look)
 52: 0x02F6 [0x79] Ajido-Marujido (ID: 17723634/0x010E70F2) looks at Wolfgang (ID: 17723630/0x010E70EE) (Basic look)
 53: 0x0300 [0x79] Volker (ID: 17723635/0x010E70F3) looks at Wolfgang (ID: 17723630/0x010E70EE) (Basic look)
 54: 0x030A [0x79] Ayame (ID: 17723636/0x010E70F4) looks at Wolfgang (ID: 17723630/0x010E70EE) (Basic look)
 55: 0x0314 [0x80] LOAD_WAIT(entity=Wolfgang (ID: 17723630/0x010E70EE))
 56: 0x0319 [0x80] LOAD_WAIT(entity=Trion (ID: 17723394/0x010E7002))
 57: 0x031E [0x80] LOAD_WAIT(entity=Volker (ID: 17723635/0x010E70F3))
 58: 0x0323 [0x4E] SET_ENTITY_HIDE_FLAG: Show Arenuel (ID: 17723631/0x010E70EF)
 59: 0x0329 [0x4E] SET_ENTITY_HIDE_FLAG: Show Falreze (ID: 17723632/0x010E70F0)
 60: 0x032F [0x45] LOAD_SCHEDULED_TASK: Load scheduler "z000" with entities [LocalPlayer, LocalPlayer], work=[64*, 0*]
 61: 0x0340 [0x97] SAVE_SET_WIND_VALUES(wind_base=0x8007, wind_width=0x8009)
 62: 0x0345 [0x45] LOAD_SCHEDULED_TASK: Load scheduler "fdi1" with entities [LocalPlayer, LocalPlayer], work=[200*, 0*]
 63: 0x0356 [0x55] WAIT_LOAD_SCHEDULER: Wait for scheduler "fdi1" with entities [LocalPlayer, LocalPlayer], work=200*
 64: 0x0365 [0x55] WAIT_LOAD_SCHEDULER: Wait for scheduler "z000" with entities [LocalPlayer, LocalPlayer], work=64*
 65: 0x0374 [0x2B] Wolfgang (ID: 17723630/0x010E70EE) [7555*]:
    → "I think we have covered all of the topics on our agenda today."
 66: 0x037B [0x79] Wolfgang (ID: 17723630/0x010E70EE) looks at Trion (ID: 17723394/0x010E7002) (Basic look)
 67: 0x0385 [0x1C] WAIT(90* ticks)
 68: 0x0388 [0x79] Wolfgang (ID: 17723630/0x010E70EE) looks at Volker (ID: 17723635/0x010E70F3) (Basic look)
 69: 0x0392 [0x1C] WAIT(90* ticks)
 70: 0x0395 [0x7B] Wolfgang (ID: 17723630/0x010E70EE) stops talking
 71: 0x039A [0x23] WAIT_FOR_DIALOG_INTERACTION
 72: 0x039B [0x45] LOAD_SCHEDULED_TASK: Load scheduler "z001" with entities [LocalPlayer, LocalPlayer], work=[64*, 0*]
 73: 0x03AC [0x55] WAIT_LOAD_SCHEDULER: Wait for scheduler "z001" with entities [LocalPlayer, LocalPlayer], work=64*
 74: 0x03BB [0x1C] WAIT(15* ticks)
 75: 0x03BE [0x2B] Wolfgang (ID: 17723630/0x010E70EE) [7556*]:
    → "If there are no objections, I would like to call the 136th Conquest Evaluation Assembly to a close."
 76: 0x03C5 [0x23] WAIT_FOR_DIALOG_INTERACTION
 77: 0x03C6 [0x1C] WAIT(10* ticks)
 78: 0x03C9 [0x2B] Trion (ID: 17723394/0x010E7002) [7557*]:
    → "Just a moment."
 79: 0x03D0 [0x23] WAIT_FOR_DIALOG_INTERACTION
 80: 0x03D1 [0x1C] WAIT(20* ticks)
 81: 0x03D4 [0x4A] Wolfgang (ID: 17723630/0x010E70EE) looks at Trion (ID: 17723394/0x010E7002)
 82: 0x03DD [0x1C] WAIT(10* ticks)
 83: 0x03E0 [0x45] LOAD_SCHEDULED_TASK: Load scheduler "z002" with entities [LocalPlayer, LocalPlayer], work=[64*, 0*]
 84: 0x03F1 [0x6F] WAIT_FRAME_DELAY: Yield until WaitTime reaches zero
 85: 0x03F2 [0x76] CHECK_ENTITY_RENDER_FLAGS: Wait until Wolfgang (ID: 17723630/0x010E70EE) Render.Flags0 and Render.Flags3 conditions are met
 86: 0x03F7 [0x4A] Volker (ID: 17723635/0x010E70F3) looks at Trion (ID: 17723394/0x010E7002)
 87: 0x0400 [0x4A] Ajido-Marujido (ID: 17723634/0x010E70F2) looks at Trion (ID: 17723394/0x010E7002)
 88: 0x0409 [0x4A] Shantotto (ID: 17723633/0x010E70F1) looks at Trion (ID: 17723394/0x010E7002)
 89: 0x0412 [0x1C] WAIT(20* ticks)
 90: 0x0415 [0x2B] Wolfgang (ID: 17723630/0x010E70EE) [7558*]:
    → "Prince Trion, is there something you wish to add?"
 91: 0x041C [0x23] WAIT_FOR_DIALOG_INTERACTION
 92: 0x041D [0x55] WAIT_LOAD_SCHEDULER: Wait for scheduler "z002" with entities [LocalPlayer, LocalPlayer], work=64*
 93: 0x042C [0x2B] Trion (ID: 17723394/0x010E7002) [7559*]:
    → "... I will not deny that the participation of adventurers has been of great benefit to the conquest, as well as maintained a new level of safety in the outlying regions."
 94: 0x0433 [0x23] WAIT_FOR_DIALOG_INTERACTION
 95: 0x0434 [0x2B] Trion (ID: 17723394/0x010E7002) [7560*]:
    → "In addition, the many treaties signed by our nations have successfully paved a path of peace. No longer need our border guards fear attacks from our friends to the south and east."
 96: 0x043B [0x23] WAIT_FOR_DIALOG_INTERACTION
 97: 0x043C [0x81] SET_ENTITY_BLINKING(blink_flag=0x00, entity=Trion (ID: 17723394/0x010E7002))
 98: 0x0442 [0x45] LOAD_SCHEDULED_TASK: Load scheduler "z003" with entities [LocalPlayer, LocalPlayer], work=[64*, 0*]
 99: 0x0453 [0x2B] Trion (ID: 17723394/0x010E7002) [7561*]:
    → "However, the beastman forces display no signs of weakening. Those noble guards stationed in faraway lands must deal with this reality constantly...and the burden has begun taking its toll."
100: 0x045A [0x23] WAIT_FOR_DIALOG_INTERACTION
101: 0x045B [0x2B] Trion (ID: 17723394/0x010E7002) [7562*]:
    → "The already large gap between the guards on our borders and the guards in the Outlands expands with each day. If nothing is done, morale shall continue to fall while discontent grows."
102: 0x0462 [0x23] WAIT_FOR_DIALOG_INTERACTION
103: 0x0463 [0x81] SET_ENTITY_BLINKING(blink_flag=0x01, entity=Trion (ID: 17723394/0x010E7002))
104: 0x0469 [0x7B] Trion (ID: 17723394/0x010E7002) stops talking
105: 0x046E [0x55] WAIT_LOAD_SCHEDULER: Wait for scheduler "z003" with entities [LocalPlayer, LocalPlayer], work=64*
106: 0x047D [0x4B] UPDATE_ENTITY_YAW(entity=Trion (ID: 17723394/0x010E7002), yaw=0.0°*)
107: 0x0484 [0x1C] WAIT(20* ticks)
108: 0x0487 [0x45] LOAD_SCHEDULED_TASK: Load scheduler "z004" with entities [LocalPlayer, LocalPlayer], work=[64*, 0*]
109: 0x0498 [0x55] WAIT_LOAD_SCHEDULER: Wait for scheduler "z004" with entities [LocalPlayer, LocalPlayer], work=64*
110: 0x04A7 [0x6F] WAIT_FRAME_DELAY: Yield until WaitTime reaches zero
111: 0x04A8 [0x76] CHECK_ENTITY_RENDER_FLAGS: Wait until Trion (ID: 17723394/0x010E7002) Render.Flags0 and Render.Flags3 conditions are met
112: 0x04AD [0x27] REQ_SET(priority=0x03, entity_id=Trion (ID: 17723394/0x010E7002), tag_num=0x31)
113: 0x04B4 [0x2B] Trion (ID: 17723394/0x010E7002) [7563*]:
    → "I sense that my kingdom is not alone in these worries."
114: 0x04BB [0x23] WAIT_FOR_DIALOG_INTERACTION
115: 0x04BC [0x27] REQ_SET(priority=0x03, entity_id=Volker (ID: 17723635/0x010E70F3), tag_num=0x03)
116: 0x04C3 [0x2B] Volker (ID: 17723635/0x010E70F3) [7564*]:
    → "Soldier morale..."
117: 0x04CA [0x23] WAIT_FOR_DIALOG_INTERACTION
118: 0x04CB [0x27] REQ_SET(priority=0x03, entity_id=Volker (ID: 17723635/0x010E70F3), tag_num=0x04)
119: 0x04D2 [0x02] IF !(ExtData[1]->WorkLocal[6] == 0*) GOTO 0x04E5
120: 0x04DA [0x2B] Ajido-Marujido (ID: 17723634/0x010E70F2) [7565*]:
    → "Well, well, well! I never thought I'd see such a lack of confidence from a member of the mighty d'Oraguille family!"
121: 0x04E1 [0x23] WAIT_FOR_DIALOG_INTERACTION
122: 0x04E2 [0x01] GOTO 0x04ED
123: 0x04E5 [0x2B] Shantotto (ID: 17723633/0x010E70F1) [7566*]:
    → "Ohohoho! I never thought I'd see such a lack of confidence from Destin's baby boy--Trion, the prince."
124: 0x04EC [0x23] WAIT_FOR_DIALOG_INTERACTION

SUBROUTINE_04ED:
125: 0x04ED [0x27] REQ_SET(priority=0x03, entity_id=Trion (ID: 17723394/0x010E7002), tag_num=0x32)
126: 0x04F4 [0x2B] Trion (ID: 17723394/0x010E7002) [7567*]:
    → "How dare you!?"
127: 0x04FB [0x23] WAIT_FOR_DIALOG_INTERACTION
128: 0x04FC [0x02] IF !(ExtData[1]->WorkLocal[6] == 0*) GOTO 0x0568
129: 0x0504 [0x4A] Volker (ID: 17723635/0x010E70F3) looks at Ajido-Marujido (ID: 17723634/0x010E70F2)
130: 0x050D [0x1C] WAIT(10* ticks)
131: 0x0510 [0x45] LOAD_SCHEDULED_TASK: Load scheduler "z005" with entities [LocalPlayer, LocalPlayer], work=[64*, 0*]
132: 0x0521 [0x55] WAIT_LOAD_SCHEDULER: Wait for scheduler "z005" with entities [LocalPlayer, LocalPlayer], work=64*
133: 0x0530 [0x6F] WAIT_FRAME_DELAY: Yield until WaitTime reaches zero
134: 0x0531 [0x76] CHECK_ENTITY_RENDER_FLAGS: Wait until Volker (ID: 17723635/0x010E70F3) Render.Flags0 and Render.Flags3 conditions are met
135: 0x0536 [0x27] REQ_SET(priority=0x03, entity_id=Volker (ID: 17723635/0x010E70F3), tag_num=0x07)
136: 0x053D [0x2B] Volker (ID: 17723635/0x010E70F3) [7568*]:
    → "I think that is quite enough, Minister."
137: 0x0544 [0x1C] WAIT(10* ticks)
138: 0x0547 [0x4A] Ajido-Marujido (ID: 17723634/0x010E70F2) looks at Volker (ID: 17723635/0x010E70F3)
139: 0x0550 [0x1C] WAIT(10* ticks)
140: 0x0553 [0x4A] Shantotto (ID: 17723633/0x010E70F1) looks at Volker (ID: 17723635/0x010E70F3)
141: 0x055C [0x23] WAIT_FOR_DIALOG_INTERACTION
142: 0x055D [0x2B] Volker (ID: 17723635/0x010E70F3) [7569*]:
    → "I fully understand the concerns of Prince Trion, and believe he has a point."
143: 0x0564 [0x23] WAIT_FOR_DIALOG_INTERACTION
144: 0x0565 [0x01] GOTO 0x05B5
145: 0x0568 [0x4A] Volker (ID: 17723635/0x010E70F3) looks at Shantotto (ID: 17723633/0x010E70F1)
146: 0x0571 [0x1C] WAIT(10* ticks)
147: 0x0574 [0x45] LOAD_SCHEDULED_TASK: Load scheduler "z005" with entities [LocalPlayer, LocalPlayer], work=[64*, 0*]
148: 0x0585 [0x55] WAIT_LOAD_SCHEDULER: Wait for scheduler "z005" with entities [LocalPlayer, LocalPlayer], work=64*
149: 0x0594 [0x6F] WAIT_FRAME_DELAY: Yield until WaitTime reaches zero
150: 0x0595 [0x76] CHECK_ENTITY_RENDER_FLAGS: Wait until Volker (ID: 17723635/0x010E70F3) Render.Flags0 and Render.Flags3 conditions are met
151: 0x059A [0x27] REQ_SET(priority=0x03, entity_id=Volker (ID: 17723635/0x010E70F3), tag_num=0x07)
152: 0x05A1 [0x2B] Volker (ID: 17723635/0x010E70F3) [7570*]:
    → "Doctor Shantotto... I fully understand the concerns of Prince Trion, and believe he has a point."
153: 0x05A8 [0x1C] WAIT(10* ticks)
154: 0x05AB [0x4A] Shantotto (ID: 17723633/0x010E70F1) looks at Volker (ID: 17723635/0x010E70F3)
155: 0x05B4 [0x23] WAIT_FOR_DIALOG_INTERACTION

SUBROUTINE_05B5:
156: 0x05B5 [0x2B] Volker (ID: 17723635/0x010E70F3) [7571*]:
    → "In a republic like Bastok, where a large portion of our army is made up of normal citizens, it is easy for morale levels to slide. This is a problem that is constantly being tackled by our officials."
157: 0x05BC [0x23] WAIT_FOR_DIALOG_INTERACTION
158: 0x05BD [0x45] LOAD_SCHEDULED_TASK: Load scheduler "z006" with entities [LocalPlayer, LocalPlayer], work=[64*, 0*]
159: 0x05CE [0x55] WAIT_LOAD_SCHEDULER: Wait for scheduler "z006" with entities [LocalPlayer, LocalPlayer], work=64*
160: 0x05DD [0x02] IF !(ExtData[1]->WorkLocal[6] == 0*) GOTO 0x061A
161: 0x05E5 [0x6F] WAIT_FRAME_DELAY: Yield until WaitTime reaches zero
162: 0x05E6 [0x76] CHECK_ENTITY_RENDER_FLAGS: Wait until Ajido-Marujido (ID: 17723634/0x010E70F2) Render.Flags0 and Render.Flags3 conditions are met
163: 0x05EB [0x27] REQ_SET(priority=0x03, entity_id=Ajido-Marujido (ID: 17723634/0x010E70F2), tag_num=0x06)
164: 0x05F2 [0x2B] Ajido-Marujido (ID: 17723634/0x010E70F2) [7572*]:
    → "Really? Well, that's your nation. Windurst doesn't face such problems."
165: 0x05F9 [0x23] WAIT_FOR_DIALOG_INTERACTION
166: 0x05FA [0x2B] Ajido-Marujido (ID: 17723634/0x010E70F2) [7573*]:
    → "Our Mithran Mercenaries enjoy being sent to far-off places. It gives them the opportunity to run and jump and hunt and roll around in the mud--whatever those feminine felines like to do in their free time."
167: 0x0601 [0x23] WAIT_FOR_DIALOG_INTERACTION
168: 0x0602 [0x27] REQ_SET(priority=0x03, entity_id=Ajido-Marujido (ID: 17723634/0x010E70F2), tag_num=0x07)
169: 0x0609 [0x2B] Ajido-Marujido (ID: 17723634/0x010E70F2) [7574*]:
    → "Maybe instead of buffing up your soldiers' muscles all day, you should try training their minds...like we do. And that's my two gil!"
170: 0x0610 [0x23] WAIT_FOR_DIALOG_INTERACTION
171: 0x0611 [0x2A] GET_REQ_LEVEL(level=3, entity_id=Ajido-Marujido (ID: 17723634/0x010E70F2))
172: 0x0617 [0x01] GOTO 0x0640
173: 0x061A [0x27] REQ_SET(priority=0x03, entity_id=Shantotto (ID: 17723633/0x010E70F1), tag_num=0x06)
174: 0x0621 [0x2B] Shantotto (ID: 17723633/0x010E70F1) [7575*]:
    → "Oh, rea`lly? Well, that's your nation. We don't have such problems in the Federation."
175: 0x0628 [0x23] WAIT_FOR_DIALOG_INTERACTION
176: 0x0629 [0x2B] Shantotto (ID: 17723633/0x010E70F1) [7576*]:
    → "Our Mithran Mercenaries enjoy being sent to faraway places. It gives them time to take their naps, hunt their mice, and go on their chases."
177: 0x0630 [0x23] WAIT_FOR_DIALOG_INTERACTION
178: 0x0631 [0x2B] Shantotto (ID: 17723633/0x010E70F1) [7577*]:
    → "Maybe it's to the lack of confidence that you can give thanks for the drastic fall of morale in your pathetic ranks."
179: 0x0638 [0x23] WAIT_FOR_DIALOG_INTERACTION
180: 0x0639 [0x29] REQ_SET_WAIT(priority=0x03, entity_id=Shantotto (ID: 17723633/0x010E70F1), tag_num=0x07)

SUBROUTINE_0640:
181: 0x0640 [0x45] LOAD_SCHEDULED_TASK: Load scheduler "z007" with entities [LocalPlayer, LocalPlayer], work=[64*, 0*]
182: 0x0651 [0x2B] Trion (ID: 17723394/0x010E7002) [7578*]:
    → "..."
183: 0x0658 [0x1C] WAIT(100* ticks)
184: 0x065B [0x29] REQ_SET_WAIT(priority=0x03, entity_id=Volker (ID: 17723635/0x010E70F3), tag_num=0x08)
185: 0x0662 [0x23] WAIT_FOR_DIALOG_INTERACTION
186: 0x0663 [0x55] WAIT_LOAD_SCHEDULER: Wait for scheduler "z007" with entities [LocalPlayer, LocalPlayer], work=64*
187: 0x0672 [0x02] IF !(ExtData[1]->WorkLocal[6] == 0*) GOTO 0x0685
188: 0x067A [0x2B] Volker (ID: 17723635/0x010E70F3) [7579*]:
    → "Yes, but hiring mercenaries can be quite the burden on the Federation's treasury, can it not?"
189: 0x0681 [0x23] WAIT_FOR_DIALOG_INTERACTION
190: 0x0682 [0x01] GOTO 0x068D
191: 0x0685 [0x2B] Volker (ID: 17723635/0x010E70F3) [7580*]:
    → "Yes, but hiring mercenaries can be quite the burden on the Federation's treasury, can it not?"
192: 0x068C [0x23] WAIT_FOR_DIALOG_INTERACTION

SUBROUTINE_068D:
193: 0x068D [0x2B] Volker (ID: 17723635/0x010E70F3) [7581*]:
    → "The more regions under your nation's control, the more mercenaries you must hire. And before you realize it, your vaults will be empty."
194: 0x0694 [0x23] WAIT_FOR_DIALOG_INTERACTION
195: 0x0695 [0x2B] Volker (ID: 17723635/0x010E70F3) [7582*]:
    → "I suspect that the conquest is taking its toll on the Federation."
196: 0x069C [0x23] WAIT_FOR_DIALOG_INTERACTION
197: 0x069D [0x02] IF !(ExtData[1]->WorkLocal[6] == 0*) GOTO 0x073C
198: 0x06A5 [0x2B] Ajido-Marujido (ID: 17723634/0x010E70F2) [7583*]:
    → "Well, we..."
199: 0x06AC [0x23] WAIT_FOR_DIALOG_INTERACTION
200: 0x06AD [0x45] LOAD_SCHEDULED_TASK: Load scheduler "z008" with entities [LocalPlayer, LocalPlayer], work=[64*, 0*]
201: 0x06BE [0x27] REQ_SET(priority=0x03, entity_id=Shantotto (ID: 17723633/0x010E70F1), tag_num=0x09)
202: 0x06C5 [0x2B] Shantotto (ID: 17723633/0x010E70F1) [7584*]:
    → "Ohohohoho! In a matter of months, our wishy-worries will be gone, When our Outland regions are patrolled by automatons."
203: 0x06CC [0x23] WAIT_FOR_DIALOG_INTERACTION
204: 0x06CD [0x79] Volker (ID: 17723635/0x010E70F3) looks at Shantotto (ID: 17723633/0x010E70F1) (Basic look)
205: 0x06D7 [0x55] WAIT_LOAD_SCHEDULER: Wait for scheduler "z008" with entities [LocalPlayer, LocalPlayer], work=64*
206: 0x06E6 [0x45] LOAD_SCHEDULED_TASK: Load scheduler "z009" with entities [LocalPlayer, LocalPlayer], work=[64*, 0*]
207: 0x06F7 [0x2B] Shantotto (ID: 17723633/0x010E70F1) [7585*]:
    → "Operation costs will stay lower than low. And into our vaults the gil shall flow. Ohoho!"
208: 0x06FE [0x1C] WAIT(10* ticks)
209: 0x0701 [0x4A] Ajido-Marujido (ID: 17723634/0x010E70F2) looks at Shantotto (ID: 17723633/0x010E70F1)
210: 0x070A [0x6F] WAIT_FRAME_DELAY: Yield until WaitTime reaches zero
211: 0x070B [0x76] CHECK_ENTITY_RENDER_FLAGS: Wait until Ajido-Marujido (ID: 17723634/0x010E70F2) Render.Flags0 and Render.Flags3 conditions are met
212: 0x0710 [0x23] WAIT_FOR_DIALOG_INTERACTION
213: 0x0711 [0x2B] Ajido-Marujido (ID: 17723634/0x010E70F2) [7586*]:
    → "Shantotto!"
214: 0x0718 [0x23] WAIT_FOR_DIALOG_INTERACTION
215: 0x0719 [0x6B] STOP_AND_IDLE: Shantotto (ID: 17723633/0x010E70F1) stops current action and resets to idle (animation="idl0")
216: 0x0722 [0x2B] Shantotto (ID: 17723633/0x010E70F1) [7587*]:
    → "If you wish, Windurst can also build some for use by the king and the president. All for a small fee payable in five easy installments."
217: 0x0729 [0x23] WAIT_FOR_DIALOG_INTERACTION
218: 0x072A [0x55] WAIT_LOAD_SCHEDULER: Wait for scheduler "z009" with entities [LocalPlayer, LocalPlayer], work=64*
219: 0x0739 [0x01] GOTO 0x0796
220: 0x073C [0x45] LOAD_SCHEDULED_TASK: Load scheduler "s000" with entities [LocalPlayer, LocalPlayer], work=[64*, 0*]
221: 0x074D [0x27] REQ_SET(priority=0x03, entity_id=Shantotto (ID: 17723633/0x010E70F1), tag_num=0x0B)
222: 0x0754 [0x2B] Shantotto (ID: 17723633/0x010E70F1) [7588*]:
    → "Ohohohoho! In a matter of months, our wishy-worries will be gone, when our Outland regions are patrolled by automatons."
223: 0x075B [0x23] WAIT_FOR_DIALOG_INTERACTION
224: 0x075C [0x2B] Shantotto (ID: 17723633/0x010E70F1) [7589*]:
    → "Operation costs will stay lower than low. And into our vaults the gil shall flow. Ohoho!"
225: 0x0763 [0x23] WAIT_FOR_DIALOG_INTERACTION
226: 0x0764 [0x2B] Shantotto (ID: 17723633/0x010E70F1) [7590*]:
    → "While we appreciate the concern from Destin's baby and Karst's pet, I don't think Windurst will be taking any drastic actions yet."
227: 0x076B [0x23] WAIT_FOR_DIALOG_INTERACTION
228: 0x076C [0x2A] GET_REQ_LEVEL(level=3, entity_id=Shantotto (ID: 17723633/0x010E70F1))
229: 0x0772 [0x2B] Shantotto (ID: 17723633/0x010E70F1) [7591*]:
    → "But if you wish, we could build some Cardians for use by the king and the president. All for a small fee payable in five easy installments. O`hohohohoho!"
230: 0x0779 [0x1C] WAIT(60* ticks)
231: 0x077C [0x27] REQ_SET(priority=0x03, entity_id=Shantotto (ID: 17723633/0x010E70F1), tag_num=0x08)
232: 0x0783 [0x1C] WAIT(60* ticks)
233: 0x0786 [0x23] WAIT_FOR_DIALOG_INTERACTION
234: 0x0787 [0x55] WAIT_LOAD_SCHEDULER: Wait for scheduler "s000" with entities [LocalPlayer, LocalPlayer], work=64*

SUBROUTINE_0796:
235: 0x0796 [0x45] LOAD_SCHEDULED_TASK: Load scheduler "y000" with entities [LocalPlayer, LocalPlayer], work=[64*, 0*]
236: 0x07A7 [0x2B] Volker (ID: 17723635/0x010E70F3) [7592*]:
    → "That sounds like a lovely plan, Minister Shantotto."
237: 0x07AE [0x23] WAIT_FOR_DIALOG_INTERACTION
238: 0x07AF [0x7B] Volker (ID: 17723635/0x010E70F3) stops talking
239: 0x07B4 [0x2B] Volker (ID: 17723635/0x010E70F3) [7593*]:
    → "But wouldn't the use of automatons in the conquest be in violation of the Treaty of Nations...?"
240: 0x07BB [0x23] WAIT_FOR_DIALOG_INTERACTION
241: 0x07BC [0x55] WAIT_LOAD_SCHEDULER: Wait for scheduler "y000" with entities [LocalPlayer, LocalPlayer], work=64*
242: 0x07CB [0x45] LOAD_SCHEDULED_TASK: Load scheduler "y001" with entities [LocalPlayer, LocalPlayer], work=[64*, 0*]
243: 0x07DC [0x2B] Trion (ID: 17723394/0x010E7002) [7594*]:
    → "Hmph. And I have heard many a tale of those walking scarecrows turning on their masters..."
244: 0x07E3 [0x23] WAIT_FOR_DIALOG_INTERACTION
245: 0x07E4 [0x4A] Shantotto (ID: 17723633/0x010E70F1) looks at Trion (ID: 17723394/0x010E7002)
246: 0x07ED [0x02] IF !(ExtData[1]->WorkLocal[6] == 0*) GOTO 0x0800
247: 0x07F5 [0x2B] Trion (ID: 17723394/0x010E7002) [7595*]:
    → "Like father, like son, I say. I would not trust a lump of rubbish made by one of you lunatics any more than I would trust one of you lunatics!"
248: 0x07FC [0x23] WAIT_FOR_DIALOG_INTERACTION
249: 0x07FD [0x01] GOTO 0x0808
250: 0x0800 [0x2B] Trion (ID: 17723394/0x010E7002) [7596*]:
    → "How can one call a soldier that does not obey his leader a soldier? And how can one call a leader who cannot control his soldiers a leader?"
251: 0x0807 [0x23] WAIT_FOR_DIALOG_INTERACTION

SUBROUTINE_0808:
252: 0x0808 [0x55] WAIT_LOAD_SCHEDULER: Wait for scheduler "y001" with entities [LocalPlayer, LocalPlayer], work=64*
253: 0x0817 [0x6F] WAIT_FRAME_DELAY: Yield until WaitTime reaches zero
254: 0x0818 [0x76] CHECK_ENTITY_RENDER_FLAGS: Wait until Shantotto (ID: 17723633/0x010E70F1) Render.Flags0 and Render.Flags3 conditions are met
255: 0x081D [0x2B] Shantotto (ID: 17723633/0x010E70F1) [7597*]:
    → "Ooh, somebody's in a bad mood..."
256: 0x0824 [0x23] WAIT_FOR_DIALOG_INTERACTION
257: 0x0825 [0x1C] WAIT(30* ticks)
258: 0x0828 [0x4A] Volker (ID: 17723635/0x010E70F3) looks at Trion (ID: 17723394/0x010E7002)
259: 0x0831 [0x1C] WAIT(10* ticks)
260: 0x0834 [0x4A] Shantotto (ID: 17723633/0x010E70F1) looks at Trion (ID: 17723394/0x010E7002)
261: 0x083D [0x45] LOAD_SCHEDULED_TASK: Load scheduler "y002" with entities [LocalPlayer, LocalPlayer], work=[64*, 0*]
262: 0x084E [0x55] WAIT_LOAD_SCHEDULER: Wait for scheduler "y002" with entities [LocalPlayer, LocalPlayer], work=64*
263: 0x085D [0x6F] WAIT_FRAME_DELAY: Yield until WaitTime reaches zero
264: 0x085E [0x76] CHECK_ENTITY_RENDER_FLAGS: Wait until Volker (ID: 17723635/0x010E70F3) Render.Flags0 and Render.Flags3 conditions are met
265: 0x0863 [0x27] REQ_SET(priority=0x03, entity_id=Volker (ID: 17723635/0x010E70F3), tag_num=0x05)
266: 0x086A [0x2B] Volker (ID: 17723635/0x010E70F3) [7598*]:
    → "Prince Trion. You certainly did not bring up this issue without having a solution in mind."
267: 0x0871 [0x23] WAIT_FOR_DIALOG_INTERACTION
268: 0x0872 [0x02] IF !(ExtData[1]->WorkLocal[6] == 0*) GOTO 0x08C2
269: 0x087A [0x45] LOAD_SCHEDULED_TASK: Load scheduler "y003" with entities [LocalPlayer, LocalPlayer], work=[64*, 0*]
270: 0x088B [0x1C] WAIT(50* ticks)
271: 0x088E [0x4A] Ajido-Marujido (ID: 17723634/0x010E70F2) looks at Trion (ID: 17723394/0x010E7002)
272: 0x0897 [0x1C] WAIT(50* ticks)
273: 0x089A [0x27] REQ_SET(priority=0x03, entity_id=Shantotto (ID: 17723633/0x010E70F1), tag_num=0x04)
274: 0x08A1 [0x2B] Shantotto (ID: 17723633/0x010E70F1) [7599*]:
    → "Exactly! You'd better have something interesting to say. Or Ajido and I will pack up our things and be on our way."
275: 0x08A8 [0x23] WAIT_FOR_DIALOG_INTERACTION
276: 0x08A9 [0x27] REQ_SET(priority=0x03, entity_id=Shantotto (ID: 17723633/0x010E70F1), tag_num=0x05)
277: 0x08B0 [0x55] WAIT_LOAD_SCHEDULER: Wait for scheduler "y003" with entities [LocalPlayer, LocalPlayer], work=64*
278: 0x08BF [0x1C] WAIT(15* ticks)
279: 0x08C2 [0x7B] Trion (ID: 17723394/0x010E7002) stops talking
280: 0x08C7 [0x1C] WAIT(60* ticks)
281: 0x08CA [0x27] REQ_SET(priority=0x03, entity_id=Trion (ID: 17723394/0x010E7002), tag_num=0x2B)
282: 0x08D1 [0x1C] WAIT(15* ticks)
283: 0x08D4 [0x27] REQ_SET(priority=0x03, entity_id=Volker (ID: 17723635/0x010E70F3), tag_num=0x06)
284: 0x08DB [0x45] LOAD_SCHEDULED_TASK: Load scheduler "y004" with entities [LocalPlayer, LocalPlayer], work=[64*, 0*]
285: 0x08EC [0x55] WAIT_LOAD_SCHEDULER: Wait for scheduler "y004" with entities [LocalPlayer, LocalPlayer], work=64*
286: 0x08FB [0x2A] GET_REQ_LEVEL(level=3, entity_id=Trion (ID: 17723394/0x010E7002))
287: 0x0901 [0x2B] Trion (ID: 17723394/0x010E7002) [7600*]:
    → "Recently one of our Royal Knights made his return journey from our kingdom's territories to the north--Lord Excenmille."
288: 0x0908 [0x23] WAIT_FOR_DIALOG_INTERACTION
289: 0x0909 [0x4A] Wolfgang (ID: 17723630/0x010E70EE) looks at Trion (ID: 17723394/0x010E7002)
290: 0x0912 [0x2B] Wolfgang (ID: 17723630/0x010E70EE) [7601*]:
    → "Excenmille? The man who, after the Great War, took a handful of soldiers and successfully invaded the Orcish Empire using guerilla tactics?"
291: 0x0919 [0x23] WAIT_FOR_DIALOG_INTERACTION
292: 0x091A [0x2B] Trion (ID: 17723394/0x010E7002) [7602*]:
    → "Yes. Sword in hand, donning armor stained with the blood of a thousand foes, he returned to his homeland for the first time in twenty years...and was shocked at what he found lurking beyond its gates."
293: 0x0921 [0x23] WAIT_FOR_DIALOG_INTERACTION
294: 0x0922 [0x2B] Trion (ID: 17723394/0x010E7002) [7603*]:
    → "Foreign merchants of all shapes and sizes peddling their trinkets. Scruffy adventurers shouting out their petty problems as they walked freely among the streets and alleys. Local shopkeeps and Temple Knights laughing as they mingled with the scum washed up from all corners of the continent."
295: 0x0929 [0x23] WAIT_FOR_DIALOG_INTERACTION
296: 0x092A [0x4B] UPDATE_ENTITY_YAW(entity=Trion (ID: 17723394/0x010E7002), yaw=0.0°*)
297: 0x0931 [0x1C] WAIT(15* ticks)
298: 0x0934 [0x45] LOAD_SCHEDULED_TASK: Load scheduler "y00b" with entities [LocalPlayer, LocalPlayer], work=[64*, 0*]
299: 0x0945 [0x6F] WAIT_FRAME_DELAY: Yield until WaitTime reaches zero
300: 0x0946 [0x76] CHECK_ENTITY_RENDER_FLAGS: Wait until Trion (ID: 17723394/0x010E7002) Render.Flags0 and Render.Flags3 conditions are met
301: 0x094B [0x1C] WAIT(30* ticks)
302: 0x094E [0x2B] Trion (ID: 17723394/0x010E7002) [7604*]:
    → "Excenmille was furious."
303: 0x0955 [0x23] WAIT_FOR_DIALOG_INTERACTION
304: 0x0956 [0x55] WAIT_LOAD_SCHEDULER: Wait for scheduler "y00b" with entities [LocalPlayer, LocalPlayer], work=64*
305: 0x0965 [0x45] LOAD_SCHEDULED_TASK: Load scheduler "y006" with entities [LocalPlayer, LocalPlayer], work=[64*, 0*]
306: 0x0976 [0x55] WAIT_LOAD_SCHEDULER: Wait for scheduler "y006" with entities [LocalPlayer, LocalPlayer], work=64*
307: 0x0985 [0x2B] Wolfgang (ID: 17723630/0x010E70EE) [7605*]:
    → "Why would he be furious? The influx of adventurers has revitalized your nation."
308: 0x098C [0x23] WAIT_FOR_DIALOG_INTERACTION
309: 0x098D [0x79] Trion (ID: 17723394/0x010E7002) looks at Wolfgang (ID: 17723630/0x010E70EE) (Basic look)
310: 0x0997 [0x1C] WAIT(10* ticks)
311: 0x099A [0x27] REQ_SET(priority=0x03, entity_id=Trion (ID: 17723394/0x010E7002), tag_num=0x2F)
312: 0x09A1 [0x2B] Trion (ID: 17723394/0x010E7002) [7606*]:
    → "According to Excenmille, twenty-five years ago, a union among the children of Altana was necessary to defeat the armies of darkness."
313: 0x09A8 [0x23] WAIT_FOR_DIALOG_INTERACTION
314: 0x09A9 [0x2B] Trion (ID: 17723394/0x010E7002) [7607*]:
    → "However, now that the threat has gone, there is no reason for San d'Oria's citizens to be brushing shoulders with the common folk of other nations. It is this symbiotic relationship that plagues the Kingdom and keeps the once mighty red lion shackled down."
315: 0x09B0 [0x23] WAIT_FOR_DIALOG_INTERACTION
316: 0x09B1 [0x45] LOAD_SCHEDULED_TASK: Load scheduler "x000" with entities [LocalPlayer, LocalPlayer], work=[64*, 0*]
317: 0x09C2 [0x55] WAIT_LOAD_SCHEDULER: Wait for scheduler "x000" with entities [LocalPlayer, LocalPlayer], work=64*
318: 0x09D1 [0x2B] Wolfgang (ID: 17723630/0x010E70EE) [7608*]:
    → "That seems like quite an anachronous opinion..."
319: 0x09D8 [0x23] WAIT_FOR_DIALOG_INTERACTION
320: 0x09D9 [0x45] LOAD_SCHEDULED_TASK: Load scheduler "y008" with entities [LocalPlayer, LocalPlayer], work=[64*, 0*]
321: 0x09EA [0x55] WAIT_LOAD_SCHEDULER: Wait for scheduler "y008" with entities [LocalPlayer, LocalPlayer], work=64*
322: 0x09F9 [0x27] REQ_SET(priority=0x03, entity_id=Trion (ID: 17723394/0x010E7002), tag_num=0x30)
323: 0x0A00 [0x2B] Trion (ID: 17723394/0x010E7002) [7609*]:
    → "Excenmille's way of thinking may seem out-of-date, but his logic cannot be denied. Ever since the opening of our gates to outsiders, the quality of our knights has fallen dramatically."
324: 0x0A07 [0x23] WAIT_FOR_DIALOG_INTERACTION
325: 0x0A08 [0x27] REQ_SET(priority=0x03, entity_id=Shantotto (ID: 17723633/0x010E70F1), tag_num=0x0B)
326: 0x0A0F [0x02] IF !(ExtData[1]->WorkLocal[6] == 0*) GOTO 0x0A3A
327: 0x0A17 [0x45] LOAD_SCHEDULED_TASK: Load scheduler "y007" with entities [LocalPlayer, LocalPlayer], work=[64*, 0*]
328: 0x0A28 [0x55] WAIT_LOAD_SCHEDULER: Wait for scheduler "y007" with entities [LocalPlayer, LocalPlayer], work=64*
329: 0x0A37 [0x01] GOTO 0x0A5A
330: 0x0A3A [0x45] LOAD_SCHEDULED_TASK: Load scheduler "s001" with entities [LocalPlayer, LocalPlayer], work=[64*, 0*]
331: 0x0A4B [0x55] WAIT_LOAD_SCHEDULER: Wait for scheduler "s001" with entities [LocalPlayer, LocalPlayer], work=64*

SUBROUTINE_0A5A:
332: 0x0A5A [0x2B] Shantotto (ID: 17723633/0x010E70F1) [7610*]:
    → "... I'm tired of hearing stories about some pumpkin-bumpkin knight. Are you going to get to the point, or are we going to be here all night?"
333: 0x0A61 [0x23] WAIT_FOR_DIALOG_INTERACTION
334: 0x0A62 [0x2A] GET_REQ_LEVEL(level=3, entity_id=Trion (ID: 17723394/0x010E7002))
335: 0x0A68 [0x7B] Trion (ID: 17723394/0x010E7002) stops talking
336: 0x0A6D [0x45] LOAD_SCHEDULED_TASK: Load scheduler "y005" with entities [LocalPlayer, LocalPlayer], work=[64*, 0*]
337: 0x0A7E [0x1C] WAIT(30* ticks)
338: 0x0A81 [0x27] REQ_SET(priority=0x03, entity_id=Trion (ID: 17723394/0x010E7002), tag_num=0x31)
339: 0x0A88 [0x2B] Trion (ID: 17723394/0x010E7002) [7611*]:
    → "Excenmille offered me with the following suggestion..."
340: 0x0A8F [0x23] WAIT_FOR_DIALOG_INTERACTION
341: 0x0A90 [0x5D] SET_MUSIC_VOLUME(volume=0*, fade_time=360*)
342: 0x0A95 [0x55] WAIT_LOAD_SCHEDULER: Wait for scheduler "y005" with entities [LocalPlayer, LocalPlayer], work=64*
343: 0x0AA4 [0x2B] Trion (ID: 17723394/0x010E7002) [7612*]:
    → "Revive Conflict!"
344: 0x0AAB [0x23] WAIT_FOR_DIALOG_INTERACTION
345: 0x0AAC [0x27] REQ_SET(priority=0x03, entity_id=Trion (ID: 17723394/0x010E7002), tag_num=0x32)
346: 0x0AB3 [0x45] LOAD_SCHEDULED_TASK: Load scheduler "y009" with entities [LocalPlayer, LocalPlayer], work=[64*, 0*]
347: 0x0AC4 [0x55] WAIT_LOAD_SCHEDULER: Wait for scheduler "y009" with entities [LocalPlayer, LocalPlayer], work=64*
348: 0x0AD3 [0x5C] MUSIC_CONTROL: Set Idle (Day) music to song 120*
349: 0x0AD7 [0x5C] MUSIC_CONTROL: Set Idle (Night) music to song 120*
350: 0x0ADB [0x7C] Volker (ID: 17723635/0x010E70F3)->Render.Flags2 |= 0x00
351: 0x0AE1 [0x2B] Volker (ID: 17723635/0x010E70F3) [7613*]:
