# 17723501 - Ilgusin

## Common Data

| Field            | Value                         |
|------------------|-------------------------------|
| Zone             | Northern San d'Oria (ID: 231) |
| Block Size       | 112 bytes                     |
| Total Events     | 3                             |
| References Count | 10                            |

## List of Events

| Event ID                 | Entrypoint   |   Size |   Instructions |
|--------------------------|--------------|--------|----------------|
| [65535](#event-65535)    | 0x0000       |      1 |              1 |
| [535](#event-535)        | 0x0001       |      1 |              1 |
| [65535.1](#event-655351) | 0x0002       |     41 |              9 |

## DAT References (imed_data)

|   Index | Hex Value   |   Dec Value |
|---------|-------------|-------------|
|       0 | 0x000F      |          15 |
|       1 | 0xFFFE1990  |  4294842768 |
|       2 | 0x31BFC     |      203772 |
|       3 | 0x2402      |        9218 |
|       4 | 0x09B7      |        2487 |
|       5 | 0xFFFE0A24  |  4294838820 |
|       6 | 0x3297B     |      207227 |
|       7 | 0x2EDF      |       11999 |
|       8 | 0xFFFDFC42  |  4294835266 |
|       9 | 0x37703     |      227075 |

## Events

### Event 65535

#### Metadata

| Field        | Value   |
|--------------|---------|
| Entrypoint   | 0x0000  |
| Data Size    | 1 bytes |
| Instructions | 1       |

```
      00 01 02 03 04 05 06 07  08 09 0A 0B 0C 0D 0E 0F
      -- -- -- -- -- -- -- --  -- -- -- -- -- -- -- --
0000: 00                                                .               
```

#### Opcodes

```
  0: 0x0000 [0x00] END_REQSTACK()
```

### Event 535

#### Metadata

| Field        | Value   |
|--------------|---------|
| Entrypoint   | 0x0001  |
| Data Size    | 1 bytes |
| Instructions | 1       |

```
      00 01 02 03 04 05 06 07  08 09 0A 0B 0C 0D 0E 0F
      -- -- -- -- -- -- -- --  -- -- -- -- -- -- -- --
0000:    00                                              .              
```

#### Opcodes

```
  0: 0x0001 [0x00] END_REQSTACK()
```

### Event 65535.1

#### Metadata

| Field        | Value    |
|--------------|----------|
| Entrypoint   | 0x0002   |
| Data Size    | 41 bytes |
| Instructions | 9        |

```
      00 01 02 03 04 05 06 07  08 09 0A 0B 0C 0D 0E 0F
      -- -- -- -- -- -- -- --  -- -- -- -- -- -- -- --
0000:       22 00 2F 00 6D 70  0E 01 32 00 80 37 01 80    "./.mp..2..7..
0010: 02 80 03 80 04 80 1F 00  05 80 06 80 07 80 1F 01  ................
0020: 1F 00 08 80 09 80 07 80  1F 01 00                 ...........     
```

#### Opcodes

```
  0: 0x0002 [0x22] ENTITY_HIDE_FLAG(enabled=0x00)
  1: 0x0004 [0x2F] Ilgusin (ID: 17723501/0x010E706D)->Render.Flags0 &= ~0x80000 // Bit 19
  2: 0x000A [0x32] ExtData[1]->MainSpeed = 15* * 0.1
  3: 0x000D [0x37] UPDATE_EVENT_POSITION_AND_DIR: x=-124.528*, z=203.772*, y=9.218*, direction=218.6°*
  4: 0x0016 [0x1F] MOVE_ENTITY: EventEntity moves to X=-128.476*, Z=207.227*, Y=11.999*
  5: 0x001E [0x1F] MOVE_ENTITY: Update entity position (mode=1)
  6: 0x0020 [0x1F] MOVE_ENTITY: EventEntity moves to X=-132.030*, Z=227.075*, Y=11.999*
  7: 0x0028 [0x1F] MOVE_ENTITY: Update entity position (mode=1)
  8: 0x002A [0x00] END_REQSTACK()
```
