# 17723416 - Chasalvige

## Common Data

| Field            | Value                         |
|------------------|-------------------------------|
| Zone             | Northern San d'Oria (ID: 231) |
| Block Size       | 700 bytes                     |
| Total Events     | 19                            |
| References Count | 45                            |

## List of Events

| Event ID                 | Entrypoint   |   Size |   Instructions |
|--------------------------|--------------|--------|----------------|
| [65535](#event-65535)    | 0x0000       |      1 |              1 |
| [38](#event-38)          | 0x0001       |      7 |              2 |
| [6](#event-6)            | 0x0008       |     21 |             11 |
| [65535.1](#event-655351) | 0x001D       |     40 |             10 |
| [65535.2](#event-655352) | 0x0045       |     47 |             13 |
| [65535.3](#event-655353) | 0x0074       |     16 |              4 |
| [1](#event-1)            | 0x0084       |     16 |              3 |
| [65535.4](#event-655354) | 0x0094       |     28 |              8 |
| [65](#event-65)          | 0x00B0       |      1 |              1 |
| [62](#event-62)          | 0x00B1       |      1 |              1 |
| [610](#event-610)        | 0x00B2       |     94 |             16 |
| [65535.5](#event-655355) | 0x0110       |     16 |              2 |
| [65535.6](#event-655356) | 0x0120       |     19 |              3 |
| [65535.7](#event-655357) | 0x0133       |     16 |              2 |
| [65535.8](#event-655358) | 0x0143       |     19 |              3 |
| [16](#event-16)          | 0x0156       |     18 |              4 |
| [65535.9](#event-655359) | 0x0168       |     29 |              3 |
| [763](#event-763)        | 0x0185       |     19 |             10 |
| [764](#event-764)        | 0x0198       |     19 |             10 |

## DAT References (imed_data)

|   Index | Hex Value   |   Dec Value |
|---------|-------------|-------------|
|       0 | 0x342E      |       13358 |
|       1 | 0x342F      |       13359 |
|       2 | 0x3430      |       13360 |
|       3 | 0x000A      |          10 |
|       4 | 0x17BAE     |       97198 |
|       5 | 0x205C6     |      132550 |
|       6 | 0xFFFFFE0C  |  4294966796 |
|       7 | 0x17D87     |       97671 |
|       8 | 0x20228     |      131624 |
|       9 | 0x0000      |           0 |
|      10 | 0x18E3F     |      101951 |
|      11 | 0x1E81A     |      124954 |
|      12 | 0x012C      |         300 |
|      13 | 0x21646     |      136774 |
|      14 | 0x1EB8C     |      125836 |
|      15 | 0x1963      |        6499 |
|      16 | 0x0E5D      |        3677 |
|      17 | 0x2241E     |      140318 |
|      18 | 0x1F7AF     |      128943 |
|      19 | 0x3416      |       13334 |
|      20 | 0x001E      |          30 |
|      21 | 0x1F9A0     |      129440 |
|      22 | 0x1CE83     |      118403 |
|      23 | 0x01E0      |         480 |
|      24 | 0x22A39     |      141881 |
|      25 | 0x21C73     |      138355 |
|      26 | 0x01D7      |         471 |
|      27 | 0x000D      |          13 |
|      28 | 0x221E6     |      139750 |
|      29 | 0x2280C     |      141324 |
|      30 | 0x223DE     |      140254 |
|      31 | 0x229A7     |      141735 |
|      32 | 0x0382      |         898 |
|      33 | 0x0014      |          20 |
|      34 | 0x2C24      |       11300 |
|      35 | 0x2BBA      |       11194 |
|      36 | 0x0019      |          25 |
|      37 | 0x003C      |          60 |
|      38 | 0x1BA51     |      113233 |
|      39 | 0x1AF82     |      110466 |
|      40 | 0x0244      |         580 |
|      41 | 0x3468      |       13416 |
|      42 | 0x3469      |       13417 |
|      43 | 0x3437      |       13367 |
|      44 | 0x3438      |       13368 |

## String References

- **11194**: May Paradise open its gates to you.
- **11300**: Greetings, faithful one. Have you come to hear the vicasque's sermons? Indeed they are the surest way to Paradise.
- **13358**: You said that you seek the Royal Knight Francmage M Mistalle, did you not?
- **13359**: If I am not mistaken, I recall a section of Jugner Forest known as Carpenters' Landing being owned by the Knights Mistalle.
- **13360**: I do not believe you will be able to reach the manor, but you may find some of his hands by the water collecting firewood.
- **13367**: I was not aware that Sir Louverance was acting as an envoy for the cathedral.
- **13368**: However, if he is traveling by airship, perhaps you should await his return to San d'Oria at the port.
- **13416**: I spoke with the researchers in Beaucedine on the matter of Sir Louverance.
- **13417**: From what I can gather, your friend has most likely been transported to the Rhinostery in the Federation of Windurst.

## Events

### Event 65535

#### Metadata

| Field        | Value   |
|--------------|---------|
| Entrypoint   | 0x0000  |
| Data Size    | 1 bytes |
| Instructions | 1       |

```
      00 01 02 03 04 05 06 07  08 09 0A 0B 0C 0D 0E 0F
      -- -- -- -- -- -- -- --  -- -- -- -- -- -- -- --
0000: 00                                                .               
```

#### Opcodes

```
  0: 0x0000 [0x00] END_REQSTACK()
```

### Event 38

#### Metadata

| Field        | Value   |
|--------------|---------|
| Entrypoint   | 0x0001  |
| Data Size    | 7 bytes |
| Instructions | 2       |

```
      00 01 02 03 04 05 06 07  08 09 0A 0B 0C 0D 0E 0F
      -- -- -- -- -- -- -- --  -- -- -- -- -- -- -- --
0000:    94 01 F8 FF FF 7F 00                            .......        
```

#### Opcodes

```
  0: 0x0001 [0x94] EventEntity->Render.Flags3 ^= 0x01
  1: 0x0007 [0x00] END_REQSTACK()
```

### Event 6

#### Metadata

| Field        | Value    |
|--------------|----------|
| Entrypoint   | 0x0008   |
| Data Size    | 21 bytes |
| Instructions | 11       |

```
      00 01 02 03 04 05 06 07  08 09 0A 0B 0C 0D 0E 0F
      -- -- -- -- -- -- -- --  -- -- -- -- -- -- -- --
0000:                          1E F0 FF FF 7F 6F 70 1D          .....op.
0010: 00 80 23 1D 01 80 23 1D  02 80 23 21 00           ..#...#...#!.   
```

#### Opcodes

```
  0: 0x0008 [0x1E] EventEntity looks at LocalPlayer and starts talking
  1: 0x000D [0x6F] WAIT_FRAME_DELAY: Yield until WaitTime reaches zero
  2: 0x000E [0x70] WAIT_ENTITY_RENDER_FLAG: Wait while EventEntity->Render.Flags3 bit 2 is set (cancel turn if not)
  3: 0x000F [0x1D] PRINT_EVENT_MESSAGE(message_id=13358*)
    → "You said that you seek the Royal Knight Francmage M Mistalle, did you not?"
  4: 0x0012 [0x23] WAIT_FOR_DIALOG_INTERACTION
  5: 0x0013 [0x1D] PRINT_EVENT_MESSAGE(message_id=13359*)
    → "If I am not mistaken, I recall a section of Jugner Forest known as Carpenters' Landing being owned by the Knights Mistalle."
  6: 0x0016 [0x23] WAIT_FOR_DIALOG_INTERACTION
  7: 0x0017 [0x1D] PRINT_EVENT_MESSAGE(message_id=13360*)
    → "I do not believe you will be able to reach the manor, but you may find some of his hands by the water collecting firewood."
  8: 0x001A [0x23] WAIT_FOR_DIALOG_INTERACTION
  9: 0x001B [0x21] END_EVENT
 10: 0x001C [0x00] END_REQSTACK()
```

### Event 65535.1

#### Metadata

| Field        | Value    |
|--------------|----------|
| Entrypoint   | 0x001D   |
| Data Size    | 40 bytes |
| Instructions | 10       |

```
      00 01 02 03 04 05 06 07  08 09 0A 0B 0C 0D 0E 0F
      -- -- -- -- -- -- -- --  -- -- -- -- -- -- -- --
0010:                                         32 03 80               2..
0020: 33 01 5A 00 04 80 05 80  06 80 5A 01 5A 00 07 80  3.Z.......Z.Z...
0030: 08 80 09 80 5A 01 33 00  31 00 0A 80 0B 80 09 80  ....Z.3.1.......
0040: 0C 80 31 01 00                                    ..1..           
```

#### Opcodes

```
  0: 0x001D [0x32] ExtData[1]->MainSpeed = 10* * 0.1
  1: 0x0020 [0x33] EventEntity->Render.Flags0 |= 0x200000 // Bit 21 (flag=0x01)
  2: 0x0022 [0x5A] UPDATE_EVENT_POSITION: Set EventEntity MovePosition to X=97.198*, Z=132.550*, Y=-0.500*
  3: 0x002A [0x5A] UPDATE_EVENT_POSITION: Move EventEntity incrementally towards MovePosition
  4: 0x002C [0x5A] UPDATE_EVENT_POSITION: Set EventEntity MovePosition to X=97.671*, Z=131.624*, Y=0.000*
  5: 0x0034 [0x5A] UPDATE_EVENT_POSITION: Move EventEntity incrementally towards MovePosition
  6: 0x0036 [0x33] EventEntity->Render.Flags0 &= ~ 0x200000 // Bit 21 (flag=0x00)
  7: 0x0038 [0x31] UPDATE_ENTITY_POSITION: Set EventEntity goal position to X=101.951*, Z=124.954*, Y=0.000*, Time=300*
  8: 0x0042 [0x31] UPDATE_ENTITY_POSITION: Move EventEntity towards goal position
  9: 0x0044 [0x00] END_REQSTACK()
```

### Event 65535.2

#### Metadata

| Field        | Value    |
|--------------|----------|
| Entrypoint   | 0x0045   |
| Data Size    | 47 bytes |
| Instructions | 13       |

```
      00 01 02 03 04 05 06 07  08 09 0A 0B 0C 0D 0E 0F
      -- -- -- -- -- -- -- --  -- -- -- -- -- -- -- --
0040:                32 03 80  37 0D 80 0E 80 0F 80 10       2..7.......
0050: 80 1F 00 11 80 12 80 0F  80 1F 01 6F 1E 20 70 0E  ...........o. p.
0060: 01 6F 70 2B 18 70 0E 01  13 80 7B 18 70 0E 01 1C  .op+.p....{.p...
0070: 14 80 23 00                                       ..#.            
```

#### Opcodes

```
  0: 0x0045 [0x32] ExtData[1]->MainSpeed = 10* * 0.1
  1: 0x0048 [0x37] UPDATE_EVENT_POSITION_AND_DIR: x=136.774*, z=125.836*, y=6.499*, direction=323.2°*
  2: 0x0051 [0x1F] MOVE_ENTITY: EventEntity moves to X=140.318*, Z=128.943*, Y=6.499*
  3: 0x0059 [0x1F] MOVE_ENTITY: Update entity position (mode=1)
  4: 0x005B [0x6F] WAIT_FRAME_DELAY: Yield until WaitTime reaches zero
  5: 0x005C [0x1E] EventEntity looks at Pagisalis (ID: 17723424/0x010E7020) and starts talking
  6: 0x0061 [0x6F] WAIT_FRAME_DELAY: Yield until WaitTime reaches zero
  7: 0x0062 [0x70] WAIT_ENTITY_RENDER_FLAG: Wait while EventEntity->Render.Flags3 bit 2 is set (cancel turn if not)
  8: 0x0063 [0x2B] Chasalvige (ID: 17723416/0x010E7018) [13334*]:
    → "This is the cathedral Reliquary. It was built in remembrance of one of our former papsques, Muchavatte P Couchiret."
  9: 0x006A [0x7B] Chasalvige (ID: 17723416/0x010E7018) stops talking
 10: 0x006F [0x1C] WAIT(30* ticks)
 11: 0x0072 [0x23] WAIT_FOR_DIALOG_INTERACTION
 12: 0x0073 [0x00] END_REQSTACK()
```

### Event 65535.3

#### Metadata

| Field        | Value    |
|--------------|----------|
| Entrypoint   | 0x0074   |
| Data Size    | 16 bytes |
| Instructions | 4        |

```
      00 01 02 03 04 05 06 07  08 09 0A 0B 0C 0D 0E 0F
      -- -- -- -- -- -- -- --  -- -- -- -- -- -- -- --
0070:             32 03 80 31  00 15 80 16 80 0F 80 17      2..1........
0080: 80 31 01 00                                       .1..            
```

#### Opcodes

```
  0: 0x0074 [0x32] ExtData[1]->MainSpeed = 10* * 0.1
  1: 0x0077 [0x31] UPDATE_ENTITY_POSITION: Set EventEntity goal position to X=129.440*, Z=118.403*, Y=6.499*, Time=480*
  2: 0x0081 [0x31] UPDATE_ENTITY_POSITION: Move EventEntity towards goal position
  3: 0x0083 [0x00] END_REQSTACK()
```

### Event 1

#### Metadata

| Field        | Value    |
|--------------|----------|
| Entrypoint   | 0x0084   |
| Data Size    | 16 bytes |
| Instructions | 3        |

```
      00 01 02 03 04 05 06 07  08 09 0A 0B 0C 0D 0E 0F
      -- -- -- -- -- -- -- --  -- -- -- -- -- -- -- --
0080:             92 01 F8 FF  FF 7F 37 18 80 19 80 09      ......7.....
0090: 80 1A 80 00                                       ....            
```

#### Opcodes

```
  0: 0x0084 [0x92] EventEntity->Render.Flags3 ^= 0x01
  1: 0x008A [0x37] UPDATE_EVENT_POSITION_AND_DIR: x=141.881*, z=138.355*, y=0.000*, direction=41.4°*
  2: 0x0093 [0x00] END_REQSTACK()
```

### Event 65535.4

#### Metadata

| Field        | Value    |
|--------------|----------|
| Entrypoint   | 0x0094   |
| Data Size    | 28 bytes |
| Instructions | 8        |

```
      00 01 02 03 04 05 06 07  08 09 0A 0B 0C 0D 0E 0F
      -- -- -- -- -- -- -- --  -- -- -- -- -- -- -- --
0090:             32 1B 80 1F  00 1C 80 1D 80 09 80 1F      2...........
00A0: 01 1F 00 1E 80 1F 80 09  80 1F 01 6F 39 20 80 00  ...........o9 ..
```

#### Opcodes

```
  0: 0x0094 [0x32] ExtData[1]->MainSpeed = 13* * 0.1
  1: 0x0097 [0x1F] MOVE_ENTITY: EventEntity moves to X=139.750*, Z=141.324*, Y=0.000*
  2: 0x009F [0x1F] MOVE_ENTITY: Update entity position (mode=1)
  3: 0x00A1 [0x1F] MOVE_ENTITY: EventEntity moves to X=140.254*, Z=141.735*, Y=0.000*
  4: 0x00A9 [0x1F] MOVE_ENTITY: Update entity position (mode=1)
  5: 0x00AB [0x6F] WAIT_FRAME_DELAY: Yield until WaitTime reaches zero
  6: 0x00AC [0x39] SET_ENTITY_DIRECTION(direction=4.9°*)
  7: 0x00AF [0x00] END_REQSTACK()
```

### Event 65

#### Metadata

| Field        | Value   |
|--------------|---------|
| Entrypoint   | 0x00B0  |
| Data Size    | 1 bytes |
| Instructions | 1       |

```
      00 01 02 03 04 05 06 07  08 09 0A 0B 0C 0D 0E 0F
      -- -- -- -- -- -- -- --  -- -- -- -- -- -- -- --
00B0: 00                                                .               
```

#### Opcodes

```
  0: 0x00B0 [0x00] END_REQSTACK()
```

### Event 62

#### Metadata

| Field        | Value   |
|--------------|---------|
| Entrypoint   | 0x00B1  |
| Data Size    | 1 bytes |
| Instructions | 1       |

```
      00 01 02 03 04 05 06 07  08 09 0A 0B 0C 0D 0E 0F
      -- -- -- -- -- -- -- --  -- -- -- -- -- -- -- --
00B0:    00                                              .              
```

#### Opcodes

```
  0: 0x00B1 [0x00] END_REQSTACK()
```

### Event 610

#### Metadata

| Field        | Value    |
|--------------|----------|
| Entrypoint   | 0x00B2   |
| Data Size    | 94 bytes |
| Instructions | 16       |

```
      00 01 02 03 04 05 06 07  08 09 0A 0B 0C 0D 0E 0F
      -- -- -- -- -- -- -- --  -- -- -- -- -- -- -- --
00B0:       1E F0 FF FF 7F 6F  70 5B 21 80 F8 FF FF 7F    .....op[!.....
00C0: F8 FF FF 7F 74 6C 6B 30  1D 22 80 23 5B 21 80 F8  ....tlk0.".#[!..
00D0: FF FF 7F F8 FF FF 7F 74  6C 6B 31 53 F8 FF FF 7F  .......tlk1S....
00E0: F8 FF FF 7F 74 6C 6B 31  1C 14 80 5B 21 80 F8 FF  ....tlk1...[!...
00F0: FF 7F F8 FF FF 7F 69 6E  6F 30 1D 23 80 23 53 F8  ......ino0.#.#S.
0100: FF FF 7F F8 FF FF 7F 69  6E 6F 30 1C 14 80 21 00  .......ino0...!.
```

#### Opcodes

```
  0: 0x00B2 [0x1E] EventEntity looks at LocalPlayer and starts talking
  1: 0x00B7 [0x6F] WAIT_FRAME_DELAY: Yield until WaitTime reaches zero
  2: 0x00B8 [0x70] WAIT_ENTITY_RENDER_FLAG: Wait while EventEntity->Render.Flags3 bit 2 is set (cancel turn if not)
  3: 0x00B9 [0x5B] LOAD_EXT_SCHEDULER: Load scheduler "tlk0" with entities [EventEntity, EventEntity], work=20*
  4: 0x00C8 [0x1D] PRINT_EVENT_MESSAGE(message_id=11300*)
    → "Greetings, faithful one. Have you come to hear the vicasque's sermons? Indeed they are the surest way to Paradise."
  5: 0x00CB [0x23] WAIT_FOR_DIALOG_INTERACTION
  6: 0x00CC [0x5B] LOAD_EXT_SCHEDULER: Load scheduler "tlk1" with entities [EventEntity, EventEntity], work=20*
  7: 0x00DB [0x53] WAIT_SCHEDULER_TASK: Wait for scheduler "tlk1" with entities [EventEntity, EventEntity]
  8: 0x00E8 [0x1C] WAIT(30* ticks)
  9: 0x00EB [0x5B] LOAD_EXT_SCHEDULER: Load scheduler "ino0" with entities [EventEntity, EventEntity], work=20*
 10: 0x00FA [0x1D] PRINT_EVENT_MESSAGE(message_id=11194*)
    → "May Paradise open its gates to you."
 11: 0x00FD [0x23] WAIT_FOR_DIALOG_INTERACTION
 12: 0x00FE [0x53] WAIT_SCHEDULER_TASK: Wait for scheduler "ino0" with entities [EventEntity, EventEntity]
 13: 0x010B [0x1C] WAIT(30* ticks)
 14: 0x010E [0x21] END_EVENT
 15: 0x010F [0x00] END_REQSTACK()
```

### Event 65535.5

#### Metadata

| Field        | Value    |
|--------------|----------|
| Entrypoint   | 0x0110   |
| Data Size    | 16 bytes |
| Instructions | 2        |

```
      00 01 02 03 04 05 06 07  08 09 0A 0B 0C 0D 0E 0F
      -- -- -- -- -- -- -- --  -- -- -- -- -- -- -- --
0110: 5B 24 80 F8 FF FF 7F F8  FF FF 7F 74 6C 6B 30 00  [$.........tlk0.
```

#### Opcodes

```
  0: 0x0110 [0x5B] LOAD_EXT_SCHEDULER: Load scheduler "tlk0" with entities [EventEntity, EventEntity], work=25*
  1: 0x011F [0x00] END_REQSTACK()
```

### Event 65535.6

#### Metadata

| Field        | Value    |
|--------------|----------|
| Entrypoint   | 0x0120   |
| Data Size    | 19 bytes |
| Instructions | 3        |

```
      00 01 02 03 04 05 06 07  08 09 0A 0B 0C 0D 0E 0F
      -- -- -- -- -- -- -- --  -- -- -- -- -- -- -- --
0120: 5B 24 80 F8 FF FF 7F F8  FF FF 7F 74 6C 6B 31 1C  [$.........tlk1.
0130: 25 80 00                                          %..             
```

#### Opcodes

```
  0: 0x0120 [0x5B] LOAD_EXT_SCHEDULER: Load scheduler "tlk1" with entities [EventEntity, EventEntity], work=25*
  1: 0x012F [0x1C] WAIT(60* ticks)
  2: 0x0132 [0x00] END_REQSTACK()
```

### Event 65535.7

#### Metadata

| Field        | Value    |
|--------------|----------|
| Entrypoint   | 0x0133   |
| Data Size    | 16 bytes |
| Instructions | 2        |

```
      00 01 02 03 04 05 06 07  08 09 0A 0B 0C 0D 0E 0F
      -- -- -- -- -- -- -- --  -- -- -- -- -- -- -- --
0130:          5B 24 80 F8 FF  FF 7F F8 FF FF 7F 74 68     [$.........th
0140: 6B 31 00                                          k1.             
```

#### Opcodes

```
  0: 0x0133 [0x5B] LOAD_EXT_SCHEDULER: Load scheduler "thk1" with entities [EventEntity, EventEntity], work=25*
  1: 0x0142 [0x00] END_REQSTACK()
```

### Event 65535.8

#### Metadata

| Field        | Value    |
|--------------|----------|
| Entrypoint   | 0x0143   |
| Data Size    | 19 bytes |
| Instructions | 3        |

```
      00 01 02 03 04 05 06 07  08 09 0A 0B 0C 0D 0E 0F
      -- -- -- -- -- -- -- --  -- -- -- -- -- -- -- --
0140:          5B 24 80 F8 FF  FF 7F F8 FF FF 7F 74 68     [$.........th
0150: 6B 32 1C 25 80 00                                 k2.%..          
```

#### Opcodes

```
  0: 0x0143 [0x5B] LOAD_EXT_SCHEDULER: Load scheduler "thk2" with entities [EventEntity, EventEntity], work=25*
  1: 0x0152 [0x1C] WAIT(60* ticks)
  2: 0x0155 [0x00] END_REQSTACK()
```

### Event 16

#### Metadata

| Field        | Value    |
|--------------|----------|
| Entrypoint   | 0x0156   |
| Data Size    | 18 bytes |
| Instructions | 4        |

```
      00 01 02 03 04 05 06 07  08 09 0A 0B 0C 0D 0E 0F
      -- -- -- -- -- -- -- --  -- -- -- -- -- -- -- --
0150:                   22 00  92 01 F8 FF FF 7F 37 26        ".......7&
0160: 80 27 80 09 80 28 80 00                           .'...(..        
```

#### Opcodes

```
  0: 0x0156 [0x22] ENTITY_HIDE_FLAG(enabled=0x00)
  1: 0x0158 [0x92] EventEntity->Render.Flags3 ^= 0x01
  2: 0x015E [0x37] UPDATE_EVENT_POSITION_AND_DIR: x=113.233*, z=110.466*, y=0.000*, direction=51.0°*
  3: 0x0167 [0x00] END_REQSTACK()
```

### Event 65535.9

#### Metadata

| Field        | Value    |
|--------------|----------|
| Entrypoint   | 0x0168   |
| Data Size    | 29 bytes |
| Instructions | 3        |

```
      00 01 02 03 04 05 06 07  08 09 0A 0B 0C 0D 0E 0F
      -- -- -- -- -- -- -- --  -- -- -- -- -- -- -- --
0160:                          5B 24 80 F8 FF FF 7F F8          [$......
0170: FF FF 7F 69 6E 6F 30 53  F8 FF FF 7F F8 FF FF 7F  ...ino0S........
0180: 69 6E 6F 30 00                                    ino0.           
```

#### Opcodes

```
  0: 0x0168 [0x5B] LOAD_EXT_SCHEDULER: Load scheduler "ino0" with entities [EventEntity, EventEntity], work=25*
  1: 0x0177 [0x53] WAIT_SCHEDULER_TASK: Wait for scheduler "ino0" with entities [EventEntity, EventEntity]
  2: 0x0184 [0x00] END_REQSTACK()
```

### Event 763

#### Metadata

| Field        | Value    |
|--------------|----------|
| Entrypoint   | 0x0185   |
| Data Size    | 19 bytes |
| Instructions | 10       |

```
      00 01 02 03 04 05 06 07  08 09 0A 0B 0C 0D 0E 0F
      -- -- -- -- -- -- -- --  -- -- -- -- -- -- -- --
0180:                1E F0 FF  FF 7F 6F 70 1D 29 80 23       .....op.).#
0190: 1D 2A 80 23 20 00 21 00                           .*.# .!.        
```

#### Opcodes

```
  0: 0x0185 [0x1E] EventEntity looks at LocalPlayer and starts talking
  1: 0x018A [0x6F] WAIT_FRAME_DELAY: Yield until WaitTime reaches zero
  2: 0x018B [0x70] WAIT_ENTITY_RENDER_FLAG: Wait while EventEntity->Render.Flags3 bit 2 is set (cancel turn if not)
  3: 0x018C [0x1D] PRINT_EVENT_MESSAGE(message_id=13416*)
    → "I spoke with the researchers in Beaucedine on the matter of Sir Louverance."
  4: 0x018F [0x23] WAIT_FOR_DIALOG_INTERACTION
  5: 0x0190 [0x1D] PRINT_EVENT_MESSAGE(message_id=13417*)
    → "From what I can gather, your friend has most likely been transported to the Rhinostery in the Federation of Windurst."
  6: 0x0193 [0x23] WAIT_FOR_DIALOG_INTERACTION
  7: 0x0194 [0x20] SET_CLI_EVENT_UC_FLAG: Unlock player control
  8: 0x0196 [0x21] END_EVENT
  9: 0x0197 [0x00] END_REQSTACK()
```

### Event 764

#### Metadata

| Field        | Value    |
|--------------|----------|
| Entrypoint   | 0x0198   |
| Data Size    | 19 bytes |
| Instructions | 10       |

```
      00 01 02 03 04 05 06 07  08 09 0A 0B 0C 0D 0E 0F
      -- -- -- -- -- -- -- --  -- -- -- -- -- -- -- --
0190:                          1E F0 FF FF 7F 6F 70 1D          .....op.
01A0: 2B 80 23 1D 2C 80 23 20  00 21 00                 +.#.,.# .!.     
```

#### Opcodes

```
  0: 0x0198 [0x1E] EventEntity looks at LocalPlayer and starts talking
  1: 0x019D [0x6F] WAIT_FRAME_DELAY: Yield until WaitTime reaches zero
  2: 0x019E [0x70] WAIT_ENTITY_RENDER_FLAG: Wait while EventEntity->Render.Flags3 bit 2 is set (cancel turn if not)
  3: 0x019F [0x1D] PRINT_EVENT_MESSAGE(message_id=13367*)
    → "I was not aware that Sir Louverance was acting as an envoy for the cathedral."
  4: 0x01A2 [0x23] WAIT_FOR_DIALOG_INTERACTION
  5: 0x01A3 [0x1D] PRINT_EVENT_MESSAGE(message_id=13368*)
    → "However, if he is traveling by airship, perhaps you should await his return to San d'Oria at the port."
  6: 0x01A6 [0x23] WAIT_FOR_DIALOG_INTERACTION
  7: 0x01A7 [0x20] SET_CLI_EVENT_UC_FLAG: Unlock player control
  8: 0x01A9 [0x21] END_EVENT
  9: 0x01AA [0x00] END_REQSTACK()
```
