# 17723465 - Boncort

## Common Data

| Field            | Value                         |
|------------------|-------------------------------|
| Zone             | Northern San d'Oria (ID: 231) |
| Block Size       | 556 bytes                     |
| Total Events     | 13                            |
| References Count | 33                            |

## List of Events

| Event ID                 | Entrypoint   |   Size |   Instructions |
|--------------------------|--------------|--------|----------------|
| [65535](#event-65535)    | 0x0000       |      1 |              1 |
| [535](#event-535)        | 0x0001       |      1 |              1 |
| [502](#event-502)        | 0x0002       |      1 |              1 |
| [65535.1](#event-655351) | 0x0003       |     39 |              9 |
| [65535.2](#event-655352) | 0x002A       |     31 |              7 |
| [524](#event-524)        | 0x0049       |      1 |              1 |
| [525](#event-525)        | 0x004A       |      1 |              1 |
| [65535.3](#event-655353) | 0x004B       |     64 |             14 |
| [65535.4](#event-655354) | 0x008B       |     32 |              8 |
| [65535.5](#event-655355) | 0x00AB       |     14 |              4 |
| [65535.6](#event-655356) | 0x00B9       |    112 |             22 |
| [16](#event-16)          | 0x0129       |     28 |              5 |
| [0](#event-0)            | 0x0145       |     28 |              5 |

## DAT References (imed_data)

|   Index | Hex Value   |   Dec Value |
|---------|-------------|-------------|
|       0 | 0x0028      |          40 |
|       1 | 0xFFFDC255  |  4294820437 |
|       2 | 0xD7B1      |       55217 |
|       3 | 0xFFFFEBB2  |  4294962098 |
|       4 | 0x0014      |          20 |
|       5 | 0x2BDD      |       11229 |
|       6 | 0xFFFFFA1B  |  4294965787 |
|       7 | 0xFFFFF93F  |  4294965567 |
|       8 | 0x0000      |           0 |
|       9 | 0x040F      |        1039 |
|      10 | 0xFFFFF72B  |  4294965035 |
|      11 | 0xFFFF7D28  |  4294933800 |
|      12 | 0x110F      |        4367 |
|      13 | 0x2BDF      |       11231 |
|      14 | 0x001E      |          30 |
|      15 | 0x2BE0      |       11232 |
|      16 | 0x2BE3      |       11235 |
|      17 | 0x000D      |          13 |
|      18 | 0xFFFD9ACA  |  4294810314 |
|      19 | 0xBD64      |       48484 |
|      20 | 0x07D0      |        2000 |
|      21 | 0x003C      |          60 |
|      22 | 0xFFFE0A1D  |  4294838813 |
|      23 | 0xF4E8      |       62696 |
|      24 | 0xFFFFFF39  |  4294967097 |
|      25 | 0x0D6E      |        3438 |
|      26 | 0x1359B     |       79259 |
|      27 | 0x14386     |       82822 |
|      28 | 0x06D5      |        1749 |
|      29 | 0x0FA6      |        4006 |
|      30 | 0xFFFFDEA5  |  4294958757 |
|      31 | 0x1255      |        4693 |
|      32 | 0x003E      |          62 |

## String References

- **11229**: Yes, Master Abeaule?
- **11231**: Oh, I forgot to tell you! The grocer said his herb-man ran into Orcs, so he couldn't get any today!
- **11232**: I searched every stall in the city, but there wasn't a sprig to be found! Honest!
- **11235**: Do you think I'm mad? Who would greet the guests if Orcs got me?

## Events

### Event 65535

#### Metadata

| Field        | Value   |
|--------------|---------|
| Entrypoint   | 0x0000  |
| Data Size    | 1 bytes |
| Instructions | 1       |

```
      00 01 02 03 04 05 06 07  08 09 0A 0B 0C 0D 0E 0F
      -- -- -- -- -- -- -- --  -- -- -- -- -- -- -- --
0000: 00                                                .               
```

#### Opcodes

```
  0: 0x0000 [0x00] END_REQSTACK()
```

### Event 535

#### Metadata

| Field        | Value   |
|--------------|---------|
| Entrypoint   | 0x0001  |
| Data Size    | 1 bytes |
| Instructions | 1       |

```
      00 01 02 03 04 05 06 07  08 09 0A 0B 0C 0D 0E 0F
      -- -- -- -- -- -- -- --  -- -- -- -- -- -- -- --
0000:    00                                              .              
```

#### Opcodes

```
  0: 0x0001 [0x00] END_REQSTACK()
```

### Event 502

#### Metadata

| Field        | Value   |
|--------------|---------|
| Entrypoint   | 0x0002  |
| Data Size    | 1 bytes |
| Instructions | 1       |

```
      00 01 02 03 04 05 06 07  08 09 0A 0B 0C 0D 0E 0F
      -- -- -- -- -- -- -- --  -- -- -- -- -- -- -- --
0000:       00                                            .             
```

#### Opcodes

```
  0: 0x0002 [0x00] END_REQSTACK()
```

### Event 65535.1

#### Metadata

| Field        | Value    |
|--------------|----------|
| Entrypoint   | 0x0003   |
| Data Size    | 39 bytes |
| Instructions | 9        |

```
      00 01 02 03 04 05 06 07  08 09 0A 0B 0C 0D 0E 0F
      -- -- -- -- -- -- -- --  -- -- -- -- -- -- -- --
0000:          32 00 80 1F 00  01 80 02 80 03 80 1F 01     2............
0010: 6F 66 04 80 F8 FF FF 7F  F8 FF FF 7F 74 6C 6B 30  of..........tlk0
0020: 1D 05 80 23 5E 69 64 6C  30 00                    ...#^idl0.      
```

#### Opcodes

```
  0: 0x0003 [0x32] ExtData[1]->MainSpeed = 40* * 0.1
  1: 0x0006 [0x1F] MOVE_ENTITY: EventEntity moves to X=-146.859*, Z=55.217*, Y=-5.198*
  2: 0x000E [0x1F] MOVE_ENTITY: Update entity position (mode=1)
  3: 0x0010 [0x6F] WAIT_FRAME_DELAY: Yield until WaitTime reaches zero
  4: 0x0011 [0x66] LOAD_EXT_SCHEDULER_MAIN: Load scheduler "tlk0" with entities [EventEntity, EventEntity], work=20*
  5: 0x0020 [0x1D] PRINT_EVENT_MESSAGE(message_id=11229*)
    → "Yes, Master Abeaule?"
  6: 0x0023 [0x23] WAIT_FOR_DIALOG_INTERACTION
  7: 0x0024 [0x5E] EventEntity goes idle (kills current action) (animation: "idl0")
  8: 0x0029 [0x00] END_REQSTACK()
```

### Event 65535.2

#### Metadata

| Field        | Value    |
|--------------|----------|
| Entrypoint   | 0x002A   |
| Data Size    | 31 bytes |
| Instructions | 7        |

```
      00 01 02 03 04 05 06 07  08 09 0A 0B 0C 0D 0E 0F
      -- -- -- -- -- -- -- --  -- -- -- -- -- -- -- --
0020:                                32 00 80 37 06 80            2..7..
0030: 07 80 08 80 09 80 1F 00  0A 80 0B 80 08 80 1F 01  ................
0040: 2F 01 49 70 0E 01 22 01  00                       /.Ip.."..       
```

#### Opcodes

```
  0: 0x002A [0x32] ExtData[1]->MainSpeed = 40* * 0.1
  1: 0x002D [0x37] UPDATE_EVENT_POSITION_AND_DIR: x=-1.509*, z=-1.729*, y=0.000*, direction=91.3°*
  2: 0x0036 [0x1F] MOVE_ENTITY: EventEntity moves to X=-2.261*, Z=-33.496*, Y=0.000*
  3: 0x003E [0x1F] MOVE_ENTITY: Update entity position (mode=1)
  4: 0x0040 [0x2F] Boncort (ID: 17723465/0x010E7049)->Render.Flags0 |= 0x80000 // Bit 19
  5: 0x0046 [0x22] ENTITY_HIDE_FLAG(enabled=0x01)
  6: 0x0048 [0x00] END_REQSTACK()
```

### Event 524

#### Metadata

| Field        | Value   |
|--------------|---------|
| Entrypoint   | 0x0049  |
| Data Size    | 1 bytes |
| Instructions | 1       |

```
      00 01 02 03 04 05 06 07  08 09 0A 0B 0C 0D 0E 0F
      -- -- -- -- -- -- -- --  -- -- -- -- -- -- -- --
0040:                             00                             .      
```

#### Opcodes

```
  0: 0x0049 [0x00] END_REQSTACK()
```

### Event 525

#### Metadata

| Field        | Value   |
|--------------|---------|
| Entrypoint   | 0x004A  |
| Data Size    | 1 bytes |
| Instructions | 1       |

```
      00 01 02 03 04 05 06 07  08 09 0A 0B 0C 0D 0E 0F
      -- -- -- -- -- -- -- --  -- -- -- -- -- -- -- --
0040:                                00                           .     
```

#### Opcodes

```
  0: 0x004A [0x00] END_REQSTACK()
```

### Event 65535.3

#### Metadata

| Field        | Value    |
|--------------|----------|
| Entrypoint   | 0x004B   |
| Data Size    | 64 bytes |
| Instructions | 14       |

```
      00 01 02 03 04 05 06 07  08 09 0A 0B 0C 0D 0E 0F
      -- -- -- -- -- -- -- --  -- -- -- -- -- -- -- --
0040:                                   66 04 80 F8 FF             f....
0050: FF 7F F8 FF FF 7F 74 6C  6B 30 03 02 10 0C 80 1D  ......tlk0......
0060: 0D 80 23 5E 69 64 6C 30  1C 0E 80 1E 48 70 0E 01  ..#^idl0....Hp..
0070: 6F 70 66 04 80 F8 FF FF  7F F8 FF FF 7F 74 6C 6B  opf..........tlk
0080: 30 1D 0F 80 23 5E 69 64  6C 30 00                 0...#^idl0.     
```

#### Opcodes

```
  0: 0x004B [0x66] LOAD_EXT_SCHEDULER_MAIN: Load scheduler "tlk0" with entities [EventEntity, EventEntity], work=20*
  1: 0x005A [0x03] Work_Zone[2] = 4367*
  2: 0x005F [0x1D] PRINT_EVENT_MESSAGE(message_id=11231*)
    → "Oh, I forgot to tell you! The grocer said his herb-man ran into Orcs, so he couldn't get any today!"
  3: 0x0062 [0x23] WAIT_FOR_DIALOG_INTERACTION
  4: 0x0063 [0x5E] EventEntity goes idle (kills current action) (animation: "idl0")
  5: 0x0068 [0x1C] WAIT(30* ticks)
  6: 0x006B [0x1E] EventEntity looks at Abeaule (ID: 17723464/0x010E7048) and starts talking
  7: 0x0070 [0x6F] WAIT_FRAME_DELAY: Yield until WaitTime reaches zero
  8: 0x0071 [0x70] WAIT_ENTITY_RENDER_FLAG: Wait while EventEntity->Render.Flags3 bit 2 is set (cancel turn if not)
  9: 0x0072 [0x66] LOAD_EXT_SCHEDULER_MAIN: Load scheduler "tlk0" with entities [EventEntity, EventEntity], work=20*
 10: 0x0081 [0x1D] PRINT_EVENT_MESSAGE(message_id=11232*)
    → "I searched every stall in the city, but there wasn't a sprig to be found! Honest!"
 11: 0x0084 [0x23] WAIT_FOR_DIALOG_INTERACTION
 12: 0x0085 [0x5E] EventEntity goes idle (kills current action) (animation: "idl0")
 13: 0x008A [0x00] END_REQSTACK()
```

### Event 65535.4

#### Metadata

| Field        | Value    |
|--------------|----------|
| Entrypoint   | 0x008B   |
| Data Size    | 32 bytes |
| Instructions | 8        |

```
      00 01 02 03 04 05 06 07  08 09 0A 0B 0C 0D 0E 0F
      -- -- -- -- -- -- -- --  -- -- -- -- -- -- -- --
0080:                                   1E 4A 70 0E 01             .Jp..
0090: 6F 70 66 04 80 F8 FF FF  7F F8 FF FF 7F 74 6C 6B  opf..........tlk
00A0: 30 1D 10 80 23 5E 69 64  6C 30 00                 0...#^idl0.     
```

#### Opcodes

```
  0: 0x008B [0x1E] EventEntity looks at Montaube (ID: 17723466/0x010E704A) and starts talking
  1: 0x0090 [0x6F] WAIT_FRAME_DELAY: Yield until WaitTime reaches zero
  2: 0x0091 [0x70] WAIT_ENTITY_RENDER_FLAG: Wait while EventEntity->Render.Flags3 bit 2 is set (cancel turn if not)
  3: 0x0092 [0x66] LOAD_EXT_SCHEDULER_MAIN: Load scheduler "tlk0" with entities [EventEntity, EventEntity], work=20*
  4: 0x00A1 [0x1D] PRINT_EVENT_MESSAGE(message_id=11235*)
    → "Do you think I'm mad? Who would greet the guests if Orcs got me?"
  5: 0x00A4 [0x23] WAIT_FOR_DIALOG_INTERACTION
  6: 0x00A5 [0x5E] EventEntity goes idle (kills current action) (animation: "idl0")
  7: 0x00AA [0x00] END_REQSTACK()
```

### Event 65535.5

#### Metadata

| Field        | Value    |
|--------------|----------|
| Entrypoint   | 0x00AB   |
| Data Size    | 14 bytes |
| Instructions | 4        |

```
      00 01 02 03 04 05 06 07  08 09 0A 0B 0C 0D 0E 0F
      -- -- -- -- -- -- -- --  -- -- -- -- -- -- -- --
00A0:                                   32 11 80 1F 00             2....
00B0: 12 80 13 80 03 80 1F 01  00                       .........       
```

#### Opcodes

```
  0: 0x00AB [0x32] ExtData[1]->MainSpeed = 13* * 0.1
  1: 0x00AE [0x1F] MOVE_ENTITY: EventEntity moves to X=-156.982*, Z=48.484*, Y=-5.198*
  2: 0x00B6 [0x1F] MOVE_ENTITY: Update entity position (mode=1)
  3: 0x00B8 [0x00] END_REQSTACK()
```

### Event 65535.6

#### Metadata

| Field        | Value     |
|--------------|-----------|
| Entrypoint   | 0x00B9    |
| Data Size    | 112 bytes |
| Instructions | 22        |

```
      00 01 02 03 04 05 06 07  08 09 0A 0B 0C 0D 0E 0F
      -- -- -- -- -- -- -- --  -- -- -- -- -- -- -- --
00B0:                             32 0E 80 3B 48 70 0E           2..;Hp.
00C0: 01 00 00 01 00 02 00 07  00 00 14 80 07 01 00 14  ................
00D0: 80 1F 00 00 00 01 00 02  00 1F 01 1E 48 70 0E 01  ............Hp..
00E0: 1C 15 80 3B 4A 70 0E 01  00 00 01 00 02 00 07 00  ...;Jp..........
00F0: 00 14 80 07 01 00 14 80  1F 00 00 00 01 00 02 00  ................
0100: 1F 01 27 5B 4A 70 0E 01  07 1C 15 80 1E 4A 70 0E  ..'[Jp.......Jp.
0110: 01 1C 0E 80 27 5C 4A 70  0E 01 09 1F 00 16 80 17  ....'\Jp........
0120: 80 18 80 1F 01 39 19 80  00                       .....9...       
```

#### Opcodes

```
  0: 0x00B9 [0x32] ExtData[1]->MainSpeed = 30* * 0.1
  1: 0x00BC [0x3B] GET_ENTITY_POSITION(entity=Abeaule (ID: 17723464/0x010E7048), x_destination=ExtData[1]->WorkLocal[0], y_destination=ExtData[1]->WorkLocal[1], z_destination=ExtData[1]->WorkLocal[2])
  2: 0x00C7 [0x07] ExtData[1]->WorkLocal[0] += 2000*
  3: 0x00CC [0x07] ExtData[1]->WorkLocal[1] += 2000*
  4: 0x00D1 [0x1F] MOVE_ENTITY: EventEntity moves to X=ExtData[1]->WorkLocal[0], Z=ExtData[1]->WorkLocal[1], Y=ExtData[1]->WorkLocal[2]
  5: 0x00D9 [0x1F] MOVE_ENTITY: Update entity position (mode=1)
  6: 0x00DB [0x1E] EventEntity looks at Abeaule (ID: 17723464/0x010E7048) and starts talking
  7: 0x00E0 [0x1C] WAIT(60* ticks)
  8: 0x00E3 [0x3B] GET_ENTITY_POSITION(entity=Montaube (ID: 17723466/0x010E704A), x_destination=ExtData[1]->WorkLocal[0], y_destination=ExtData[1]->WorkLocal[1], z_destination=ExtData[1]->WorkLocal[2])
  9: 0x00EE [0x07] ExtData[1]->WorkLocal[0] += 2000*
 10: 0x00F3 [0x07] ExtData[1]->WorkLocal[1] += 2000*
 11: 0x00F8 [0x1F] MOVE_ENTITY: EventEntity moves to X=ExtData[1]->WorkLocal[0], Z=ExtData[1]->WorkLocal[1], Y=ExtData[1]->WorkLocal[2]
 12: 0x0100 [0x1F] MOVE_ENTITY: Update entity position (mode=1)
 13: 0x0102 [0x27] REQ_SET(priority=0x5B, entity_id=Montaube (ID: 17723466/0x010E704A), tag_num=0x07)
 14: 0x0109 [0x1C] WAIT(60* ticks)
 15: 0x010C [0x1E] EventEntity looks at Montaube (ID: 17723466/0x010E704A) and starts talking
 16: 0x0111 [0x1C] WAIT(30* ticks)
 17: 0x0114 [0x27] REQ_SET(priority=0x5C, entity_id=Montaube (ID: 17723466/0x010E704A), tag_num=0x09)
 18: 0x011B [0x1F] MOVE_ENTITY: EventEntity moves to X=-128.483*, Z=62.696*, Y=-0.199*
 19: 0x0123 [0x1F] MOVE_ENTITY: Update entity position (mode=1)
 20: 0x0125 [0x39] SET_ENTITY_DIRECTION(direction=18.9°*)
 21: 0x0128 [0x00] END_REQSTACK()
```

### Event 16

#### Metadata

| Field        | Value    |
|--------------|----------|
| Entrypoint   | 0x0129   |
| Data Size    | 28 bytes |
| Instructions | 5        |

```
      00 01 02 03 04 05 06 07  08 09 0A 0B 0C 0D 0E 0F
      -- -- -- -- -- -- -- --  -- -- -- -- -- -- -- --
0120:                             22 00 92 01 F8 FF FF           "......
0130: 7F 37 1A 80 1B 80 1C 80  1D 80 79 00 F8 FF FF 7F  .7........y.....
0140: 04 70 0E 01 00                                    .p...           
```

#### Opcodes

```
  0: 0x0129 [0x22] ENTITY_HIDE_FLAG(enabled=0x00)
  1: 0x012B [0x92] EventEntity->Render.Flags3 ^= 0x01
  2: 0x0131 [0x37] UPDATE_EVENT_POSITION_AND_DIR: x=79.259*, z=82.822*, y=1.749*, direction=352.1°*
  3: 0x013A [0x79] EventEntity looks at Claidie (ID: 17723396/0x010E7004) (Basic look)
  4: 0x0144 [0x00] END_REQSTACK()
```

### Event 0

#### Metadata

| Field        | Value    |
|--------------|----------|
| Entrypoint   | 0x0145   |
| Data Size    | 28 bytes |
| Instructions | 5        |

```
      00 01 02 03 04 05 06 07  08 09 0A 0B 0C 0D 0E 0F
      -- -- -- -- -- -- -- --  -- -- -- -- -- -- -- --
0140:                22 00 92  01 F8 FF FF 7F 37 1E 80       ".......7..
0150: 1F 80 18 80 20 80 79 00  F8 FF FF 7F 02 70 0E 01  .... .y......p..
0160: 00                                                .               
```

#### Opcodes

```
  0: 0x0145 [0x22] ENTITY_HIDE_FLAG(enabled=0x00)
  1: 0x0147 [0x92] EventEntity->Render.Flags3 ^= 0x01
  2: 0x014D [0x37] UPDATE_EVENT_POSITION_AND_DIR: x=-8.539*, z=4.693*, y=-0.199*, direction=5.4°*
  3: 0x0156 [0x79] EventEntity looks at Trion (ID: 17723394/0x010E7002) (Basic look)
  4: 0x0160 [0x00] END_REQSTACK()
```
