# 17723404 - Miageau

## Common Data

| Field            | Value                         |
|------------------|-------------------------------|
| Zone             | Northern San d'Oria (ID: 231) |
| Block Size       | 968 bytes                     |
| Total Events     | 15                            |
| References Count | 36                            |

## List of Events

| Event ID                 | Entrypoint   |   Size |   Instructions |
|--------------------------|--------------|--------|----------------|
| [65535](#event-65535)    | 0x0000       |      1 |              1 |
| [1](#event-1)            | 0x0001       |     16 |              3 |
| [65535.1](#event-655351) | 0x0011       |     28 |              8 |
| [535](#event-535)        | 0x002D       |      1 |              1 |
| [65535.2](#event-655352) | 0x002E       |     10 |              2 |
| [504](#event-504)        | 0x0038       |    194 |             40 |
| [512](#event-512)        | 0x00FA       |    115 |             23 |
| [519](#event-519)        | 0x016D       |    114 |             22 |
| [515](#event-515)        | 0x01DF       |    133 |             25 |
| [506](#event-506)        | 0x0264       |     69 |             15 |
| [517](#event-517)        | 0x02A9       |     44 |             10 |
| [49](#event-49)          | 0x02D5       |      1 |              1 |
| [16](#event-16)          | 0x02D6       |     18 |              4 |
| [869](#event-869)        | 0x02E8       |      1 |              1 |
| [870](#event-870)        | 0x02E9       |      1 |              1 |

## DAT References (imed_data)

|   Index | Hex Value   |   Dec Value |
|---------|-------------|-------------|
|       0 | 0x246A6     |      149158 |
|       1 | 0x215C6     |      136646 |
|       2 | 0x0000      |           0 |
|       3 | 0x0A2D      |        2605 |
|       4 | 0x000D      |          13 |
|       5 | 0x25356     |      152406 |
|       6 | 0x20B42     |      133954 |
|       7 | 0x2556D     |      152941 |
|       8 | 0x2107A     |      135290 |
|       9 | 0x071D      |        1821 |
|      10 | 0xFFFDDEF1  |  4294827761 |
|      11 | 0x3062F     |      198191 |
|      12 | 0x2EDF      |       11999 |
|      13 | 0x08D0      |        2256 |
|      14 | 0x0014      |          20 |
|      15 | 0x2BB0      |       11184 |
|      16 | 0x001E      |          30 |
|      17 | 0x2BB1      |       11185 |
|      18 | 0x2BB2      |       11186 |
|      19 | 0x025B      |         603 |
|      20 | 0x2BB3      |       11187 |
|      21 | 0x025A      |         602 |
|      22 | 0x2BB4      |       11188 |
|      23 | 0x2BBA      |       11194 |
|      24 | 0x2BC0      |       11200 |
|      25 | 0x2BC1      |       11201 |
|      26 | 0x2BC2      |       11202 |
|      27 | 0x003C      |          60 |
|      28 | 0x2BBE      |       11198 |
|      29 | 0x337F      |       13183 |
|      30 | 0x2BBF      |       11199 |
|      31 | 0x00C9      |         201 |
|      32 | 0x2BBD      |       11197 |
|      33 | 0x1CE4B     |      118347 |
|      34 | 0x19B65     |      105317 |
|      35 | 0x0A1A      |        2586 |

## String References

- **11184**: Weary traveler, come pray with us.
- **11185**: Here in the San d'Oria Cathedral, we devote our lives to helping people reach the shining gates of Paradise.
- **11186**: Should you wish to know more about Paradise, come to the vicasque's sermon. Much will be revealed.
- **11187**: Should you wish to hear the sermon, please prepare an offering of $0 as proof of your faith.
- **11188**: You will need $1 to bring the water. Please beseech the friar who stands thither.
- **11194**: May Paradise open its gates to you.
- **11197**: Admirable is your generosity, but this is not $0 .
- **11198**: Thank you. Sacred is the $0 you conveyed hither.
- **11199**: In testament to your devotion, I give you this $1. Through it, Altana's providence is yours.
- **11200**: The Cheval runs through East Ronfaure. Exit the city through the Eastgate, and head north until you come to a small bridge over the river.
- **11201**: Stand upon the bridge in peace... Then "trade" your $0 to draw the sacred water!
- **11202**: Once you have $1, return to me, Miageau.

## Events

### Event 65535

#### Metadata

| Field        | Value   |
|--------------|---------|
| Entrypoint   | 0x0000  |
| Data Size    | 1 bytes |
| Instructions | 1       |

```
      00 01 02 03 04 05 06 07  08 09 0A 0B 0C 0D 0E 0F
      -- -- -- -- -- -- -- --  -- -- -- -- -- -- -- --
0000: 00                                                .               
```

#### Opcodes

```
  0: 0x0000 [0x00] END_REQSTACK()
```

### Event 1

#### Metadata

| Field        | Value    |
|--------------|----------|
| Entrypoint   | 0x0001   |
| Data Size    | 16 bytes |
| Instructions | 3        |

```
      00 01 02 03 04 05 06 07  08 09 0A 0B 0C 0D 0E 0F
      -- -- -- -- -- -- -- --  -- -- -- -- -- -- -- --
0000:    92 01 F8 FF FF 7F 37  00 80 01 80 02 80 03 80   ......7........
0010: 00                                                .               
```

#### Opcodes

```
  0: 0x0001 [0x92] EventEntity->Render.Flags3 ^= 0x01
  1: 0x0007 [0x37] UPDATE_EVENT_POSITION_AND_DIR: x=149.158*, z=136.646*, y=0.000*, direction=228.9°*
  2: 0x0010 [0x00] END_REQSTACK()
```

### Event 65535.1

#### Metadata

| Field        | Value    |
|--------------|----------|
| Entrypoint   | 0x0011   |
| Data Size    | 28 bytes |
| Instructions | 8        |

```
      00 01 02 03 04 05 06 07  08 09 0A 0B 0C 0D 0E 0F
      -- -- -- -- -- -- -- --  -- -- -- -- -- -- -- --
0010:    32 04 80 1F 00 05 80  06 80 02 80 1F 01 1F 00   2..............
0020: 07 80 08 80 02 80 1F 01  6F 39 09 80 00           ........o9...   
```

#### Opcodes

```
  0: 0x0011 [0x32] ExtData[1]->MainSpeed = 13* * 0.1
  1: 0x0014 [0x1F] MOVE_ENTITY: EventEntity moves to X=152.406*, Z=133.954*, Y=0.000*
  2: 0x001C [0x1F] MOVE_ENTITY: Update entity position (mode=1)
  3: 0x001E [0x1F] MOVE_ENTITY: EventEntity moves to X=152.941*, Z=135.290*, Y=0.000*
  4: 0x0026 [0x1F] MOVE_ENTITY: Update entity position (mode=1)
  5: 0x0028 [0x6F] WAIT_FRAME_DELAY: Yield until WaitTime reaches zero
  6: 0x0029 [0x39] SET_ENTITY_DIRECTION(direction=10.0°*)
  7: 0x002C [0x00] END_REQSTACK()
```

### Event 535

#### Metadata

| Field        | Value   |
|--------------|---------|
| Entrypoint   | 0x002D  |
| Data Size    | 1 bytes |
| Instructions | 1       |

```
      00 01 02 03 04 05 06 07  08 09 0A 0B 0C 0D 0E 0F
      -- -- -- -- -- -- -- --  -- -- -- -- -- -- -- --
0020:                                         00                     .  
```

#### Opcodes

```
  0: 0x002D [0x00] END_REQSTACK()
```

### Event 65535.2

#### Metadata

| Field        | Value    |
|--------------|----------|
| Entrypoint   | 0x002E   |
| Data Size    | 10 bytes |
| Instructions | 2        |

```
      00 01 02 03 04 05 06 07  08 09 0A 0B 0C 0D 0E 0F
      -- -- -- -- -- -- -- --  -- -- -- -- -- -- -- --
0020:                                            37 0A                7.
0030: 80 0B 80 0C 80 0D 80 00                           ........        
```

#### Opcodes

```
  0: 0x002E [0x37] UPDATE_EVENT_POSITION_AND_DIR: x=-139.535*, z=198.191*, y=11.999*, direction=198.3°*
  1: 0x0037 [0x00] END_REQSTACK()
```

### Event 504

#### Metadata

| Field        | Value     |
|--------------|-----------|
| Entrypoint   | 0x0038    |
| Data Size    | 194 bytes |
| Instructions | 40        |

```
      00 01 02 03 04 05 06 07  08 09 0A 0B 0C 0D 0E 0F
      -- -- -- -- -- -- -- --  -- -- -- -- -- -- -- --
0030:                          1E F0 FF FF 7F 6F 70 5B          .....op[
0040: 0E 80 F8 FF FF 7F F8 FF  FF 7F 74 6C 6B 30 1D 0F  ..........tlk0..
0050: 80 23 1C 10 80 1D 11 80  23 1C 10 80 1D 12 80 23  .#......#......#
0060: 1C 10 80 03 02 10 13 80  1D 14 80 23 5B 0E 80 F8  ...........#[...
0070: FF FF 7F F8 FF FF 7F 74  6C 6B 31 53 F8 FF FF 7F  .......tlk1S....
0080: F8 FF FF 7F 74 6C 6B 31  1C 10 80 1E 0D 70 0E 01  ....tlk1.....p..
0090: 6F 70 5B 0E 80 F8 FF FF  7F F8 FF FF 7F 74 6C 6B  op[..........tlk
00A0: 30 03 03 10 15 80 03 02  10 13 80 1D 16 80 23 5B  0.............#[
00B0: 0E 80 F8 FF FF 7F F8 FF  FF 7F 74 6C 6B 31 53 F8  ..........tlk1S.
00C0: FF FF 7F F8 FF FF 7F 74  6C 6B 31 1C 10 80 1E F0  .......tlk1.....
00D0: FF FF 7F 6F 70 5B 0E 80  F8 FF FF 7F F8 FF FF 7F  ...op[..........
00E0: 69 6E 6F 30 1D 17 80 23  53 F8 FF FF 7F F8 FF FF  ino0...#S.......
00F0: 7F 69 6E 6F 30 1C 10 80  21 00                    .ino0...!.      
```

#### Opcodes

```
  0: 0x0038 [0x1E] EventEntity looks at LocalPlayer and starts talking
  1: 0x003D [0x6F] WAIT_FRAME_DELAY: Yield until WaitTime reaches zero
  2: 0x003E [0x70] WAIT_ENTITY_RENDER_FLAG: Wait while EventEntity->Render.Flags3 bit 2 is set (cancel turn if not)
  3: 0x003F [0x5B] LOAD_EXT_SCHEDULER: Load scheduler "tlk0" with entities [EventEntity, EventEntity], work=20*
  4: 0x004E [0x1D] PRINT_EVENT_MESSAGE(message_id=11184*)
    → "Weary traveler, come pray with us."
  5: 0x0051 [0x23] WAIT_FOR_DIALOG_INTERACTION
  6: 0x0052 [0x1C] WAIT(30* ticks)
  7: 0x0055 [0x1D] PRINT_EVENT_MESSAGE(message_id=11185*)
    → "Here in the San d'Oria Cathedral, we devote our lives to helping people reach the shining gates of Paradise."
  8: 0x0058 [0x23] WAIT_FOR_DIALOG_INTERACTION
  9: 0x0059 [0x1C] WAIT(30* ticks)
 10: 0x005C [0x1D] PRINT_EVENT_MESSAGE(message_id=11186*)
    → "Should you wish to know more about Paradise, come to the vicasque's sermon. Much will be revealed."
 11: 0x005F [0x23] WAIT_FOR_DIALOG_INTERACTION
 12: 0x0060 [0x1C] WAIT(30* ticks)
 13: 0x0063 [0x03] Work_Zone[2] = 603*
 14: 0x0068 [0x1D] PRINT_EVENT_MESSAGE(message_id=11187*)
    → "Should you wish to hear the sermon, please prepare an offering of $0 as proof of your faith."
 15: 0x006B [0x23] WAIT_FOR_DIALOG_INTERACTION
 16: 0x006C [0x5B] LOAD_EXT_SCHEDULER: Load scheduler "tlk1" with entities [EventEntity, EventEntity], work=20*
 17: 0x007B [0x53] WAIT_SCHEDULER_TASK: Wait for scheduler "tlk1" with entities [EventEntity, EventEntity]
 18: 0x0088 [0x1C] WAIT(30* ticks)
 19: 0x008B [0x1E] EventEntity looks at Nouveil (ID: 17723405/0x010E700D) and starts talking
 20: 0x0090 [0x6F] WAIT_FRAME_DELAY: Yield until WaitTime reaches zero
 21: 0x0091 [0x70] WAIT_ENTITY_RENDER_FLAG: Wait while EventEntity->Render.Flags3 bit 2 is set (cancel turn if not)
 22: 0x0092 [0x5B] LOAD_EXT_SCHEDULER: Load scheduler "tlk0" with entities [EventEntity, EventEntity], work=20*
 23: 0x00A1 [0x03] Work_Zone[3] = 602*
 24: 0x00A6 [0x03] Work_Zone[2] = 603*
 25: 0x00AB [0x1D] PRINT_EVENT_MESSAGE(message_id=11188*)
    → "You will need $1 to bring the water. Please beseech the friar who stands thither."
 26: 0x00AE [0x23] WAIT_FOR_DIALOG_INTERACTION
 27: 0x00AF [0x5B] LOAD_EXT_SCHEDULER: Load scheduler "tlk1" with entities [EventEntity, EventEntity], work=20*
 28: 0x00BE [0x53] WAIT_SCHEDULER_TASK: Wait for scheduler "tlk1" with entities [EventEntity, EventEntity]
 29: 0x00CB [0x1C] WAIT(30* ticks)
 30: 0x00CE [0x1E] EventEntity looks at LocalPlayer and starts talking
 31: 0x00D3 [0x6F] WAIT_FRAME_DELAY: Yield until WaitTime reaches zero
 32: 0x00D4 [0x70] WAIT_ENTITY_RENDER_FLAG: Wait while EventEntity->Render.Flags3 bit 2 is set (cancel turn if not)
 33: 0x00D5 [0x5B] LOAD_EXT_SCHEDULER: Load scheduler "ino0" with entities [EventEntity, EventEntity], work=20*
 34: 0x00E4 [0x1D] PRINT_EVENT_MESSAGE(message_id=11194*)
    → "May Paradise open its gates to you."
 35: 0x00E7 [0x23] WAIT_FOR_DIALOG_INTERACTION
 36: 0x00E8 [0x53] WAIT_SCHEDULER_TASK: Wait for scheduler "ino0" with entities [EventEntity, EventEntity]
 37: 0x00F5 [0x1C] WAIT(30* ticks)
 38: 0x00F8 [0x21] END_EVENT
 39: 0x00F9 [0x00] END_REQSTACK()
```

### Event 512

#### Metadata

| Field        | Value     |
|--------------|-----------|
| Entrypoint   | 0x00FA    |
| Data Size    | 115 bytes |
| Instructions | 23        |

```
      00 01 02 03 04 05 06 07  08 09 0A 0B 0C 0D 0E 0F
      -- -- -- -- -- -- -- --  -- -- -- -- -- -- -- --
00F0:                                1E F0 FF FF 7F 6F            .....o
0100: 70 5B 0E 80 F8 FF FF 7F  F8 FF FF 7F 74 6C 6B 30  p[..........tlk0
0110: 1D 18 80 23 1C 10 80 03  02 10 15 80 1D 19 80 23  ...#...........#
0120: 03 03 10 13 80 1D 1A 80  23 5B 0E 80 F8 FF FF 7F  ........#[......
0130: F8 FF FF 7F 74 6C 6B 31  53 F8 FF FF 7F F8 FF FF  ....tlk1S.......
0140: 7F 74 6C 6B 31 1C 1B 80  5B 0E 80 F8 FF FF 7F F8  .tlk1...[.......
0150: FF FF 7F 69 6E 6F 30 1D  17 80 23 53 F8 FF FF 7F  ...ino0...#S....
0160: F8 FF FF 7F 69 6E 6F 30  1C 10 80 21 00           ....ino0...!.   
```

#### Opcodes

```
  0: 0x00FA [0x1E] EventEntity looks at LocalPlayer and starts talking
  1: 0x00FF [0x6F] WAIT_FRAME_DELAY: Yield until WaitTime reaches zero
  2: 0x0100 [0x70] WAIT_ENTITY_RENDER_FLAG: Wait while EventEntity->Render.Flags3 bit 2 is set (cancel turn if not)
  3: 0x0101 [0x5B] LOAD_EXT_SCHEDULER: Load scheduler "tlk0" with entities [EventEntity, EventEntity], work=20*
  4: 0x0110 [0x1D] PRINT_EVENT_MESSAGE(message_id=11200*)
    → "The Cheval runs through East Ronfaure. Exit the city through the Eastgate, and head north until you come to a small bridge over the river."
  5: 0x0113 [0x23] WAIT_FOR_DIALOG_INTERACTION
  6: 0x0114 [0x1C] WAIT(30* ticks)
  7: 0x0117 [0x03] Work_Zone[2] = 602*
  8: 0x011C [0x1D] PRINT_EVENT_MESSAGE(message_id=11201*)
    → "Stand upon the bridge in peace... Then "trade" your $0 to draw the sacred water!"
  9: 0x011F [0x23] WAIT_FOR_DIALOG_INTERACTION
 10: 0x0120 [0x03] Work_Zone[3] = 603*
 11: 0x0125 [0x1D] PRINT_EVENT_MESSAGE(message_id=11202*)
    → "Once you have $1, return to me, Miageau."
 12: 0x0128 [0x23] WAIT_FOR_DIALOG_INTERACTION
 13: 0x0129 [0x5B] LOAD_EXT_SCHEDULER: Load scheduler "tlk1" with entities [EventEntity, EventEntity], work=20*
 14: 0x0138 [0x53] WAIT_SCHEDULER_TASK: Wait for scheduler "tlk1" with entities [EventEntity, EventEntity]
 15: 0x0145 [0x1C] WAIT(60* ticks)
 16: 0x0148 [0x5B] LOAD_EXT_SCHEDULER: Load scheduler "ino0" with entities [EventEntity, EventEntity], work=20*
 17: 0x0157 [0x1D] PRINT_EVENT_MESSAGE(message_id=11194*)
    → "May Paradise open its gates to you."
 18: 0x015A [0x23] WAIT_FOR_DIALOG_INTERACTION
 19: 0x015B [0x53] WAIT_SCHEDULER_TASK: Wait for scheduler "ino0" with entities [EventEntity, EventEntity]
 20: 0x0168 [0x1C] WAIT(30* ticks)
 21: 0x016B [0x21] END_EVENT
 22: 0x016C [0x00] END_REQSTACK()
```

### Event 519

#### Metadata

| Field        | Value     |
|--------------|-----------|
| Entrypoint   | 0x016D    |
| Data Size    | 114 bytes |
| Instructions | 22        |

```
      00 01 02 03 04 05 06 07  08 09 0A 0B 0C 0D 0E 0F
      -- -- -- -- -- -- -- --  -- -- -- -- -- -- -- --
0160:                                         1E 0D 70               ..p
0170: 0E 01 6F 70 5B 0E 80 F8  FF FF 7F F8 FF FF 7F 74  ..op[..........t
0180: 6C 6B 30 03 03 10 15 80  03 02 10 13 80 1D 16 80  lk0.............
0190: 23 5B 0E 80 F8 FF FF 7F  F8 FF FF 7F 74 6C 6B 31  #[..........tlk1
01A0: 53 F8 FF FF 7F F8 FF FF  7F 74 6C 6B 31 1C 10 80  S........tlk1...
01B0: 1E F0 FF FF 7F 6F 70 1C  10 80 5B 0E 80 F8 FF FF  .....op...[.....
01C0: 7F F8 FF FF 7F 69 6E 6F  30 1D 17 80 23 53 F8 FF  .....ino0...#S..
01D0: FF 7F F8 FF FF 7F 69 6E  6F 30 1C 10 80 21 00     ......ino0...!. 
```

#### Opcodes

```
  0: 0x016D [0x1E] EventEntity looks at Nouveil (ID: 17723405/0x010E700D) and starts talking
  1: 0x0172 [0x6F] WAIT_FRAME_DELAY: Yield until WaitTime reaches zero
  2: 0x0173 [0x70] WAIT_ENTITY_RENDER_FLAG: Wait while EventEntity->Render.Flags3 bit 2 is set (cancel turn if not)
  3: 0x0174 [0x5B] LOAD_EXT_SCHEDULER: Load scheduler "tlk0" with entities [EventEntity, EventEntity], work=20*
  4: 0x0183 [0x03] Work_Zone[3] = 602*
  5: 0x0188 [0x03] Work_Zone[2] = 603*
  6: 0x018D [0x1D] PRINT_EVENT_MESSAGE(message_id=11188*)
    → "You will need $1 to bring the water. Please beseech the friar who stands thither."
  7: 0x0190 [0x23] WAIT_FOR_DIALOG_INTERACTION
  8: 0x0191 [0x5B] LOAD_EXT_SCHEDULER: Load scheduler "tlk1" with entities [EventEntity, EventEntity], work=20*
  9: 0x01A0 [0x53] WAIT_SCHEDULER_TASK: Wait for scheduler "tlk1" with entities [EventEntity, EventEntity]
 10: 0x01AD [0x1C] WAIT(30* ticks)
 11: 0x01B0 [0x1E] EventEntity looks at LocalPlayer and starts talking
 12: 0x01B5 [0x6F] WAIT_FRAME_DELAY: Yield until WaitTime reaches zero
 13: 0x01B6 [0x70] WAIT_ENTITY_RENDER_FLAG: Wait while EventEntity->Render.Flags3 bit 2 is set (cancel turn if not)
 14: 0x01B7 [0x1C] WAIT(30* ticks)
 15: 0x01BA [0x5B] LOAD_EXT_SCHEDULER: Load scheduler "ino0" with entities [EventEntity, EventEntity], work=20*
 16: 0x01C9 [0x1D] PRINT_EVENT_MESSAGE(message_id=11194*)
    → "May Paradise open its gates to you."
 17: 0x01CC [0x23] WAIT_FOR_DIALOG_INTERACTION
 18: 0x01CD [0x53] WAIT_SCHEDULER_TASK: Wait for scheduler "ino0" with entities [EventEntity, EventEntity]
 19: 0x01DA [0x1C] WAIT(30* ticks)
 20: 0x01DD [0x21] END_EVENT
 21: 0x01DE [0x00] END_REQSTACK()
```

### Event 515

#### Metadata

| Field        | Value     |
|--------------|-----------|
| Entrypoint   | 0x01DF    |
| Data Size    | 133 bytes |
| Instructions | 25        |

```
      00 01 02 03 04 05 06 07  08 09 0A 0B 0C 0D 0E 0F
      -- -- -- -- -- -- -- --  -- -- -- -- -- -- -- --
01D0:                                               42                 B
01E0: 20 01 1E F0 FF FF 7F 6F  70 5B 0E 80 F8 FF FF 7F   ......op[......
01F0: F8 FF FF 7F 74 6C 6B 30  03 02 10 13 80 1D 1C 80  ....tlk0........
0200: 23 1C 10 80 03 03 10 1D  80 1D 1E 80 23 5B 0E 80  #...........#[..
0210: F8 FF FF 7F F8 FF FF 7F  74 6C 6B 31 53 F8 FF FF  ........tlk1S...
0220: 7F F8 FF FF 7F 74 6C 6B  31 1C 1B 80 5B 0E 80 F8  .....tlk1...[...
0230: FF FF 7F F8 FF FF 7F 69  6E 6F 30 1D 17 80 23 53  .......ino0...#S
0240: F8 FF FF 7F F8 FF FF 7F  69 6E 6F 30 45 1F 80 F0  ........ino0E...
0250: FF FF 7F F0 FF FF 7F 71  73 74 63 02 80 1C 10 80  .......qstc.....
0260: 20 00 21 00                                        .!.            
```

#### Opcodes

```
  0: 0x01DF [0x42] SET_CLI_EVENT_CANCEL_DATA()
  1: 0x01E0 [0x20] SET_CLI_EVENT_UC_FLAG: Lock player control
  2: 0x01E2 [0x1E] EventEntity looks at LocalPlayer and starts talking
  3: 0x01E7 [0x6F] WAIT_FRAME_DELAY: Yield until WaitTime reaches zero
  4: 0x01E8 [0x70] WAIT_ENTITY_RENDER_FLAG: Wait while EventEntity->Render.Flags3 bit 2 is set (cancel turn if not)
  5: 0x01E9 [0x5B] LOAD_EXT_SCHEDULER: Load scheduler "tlk0" with entities [EventEntity, EventEntity], work=20*
  6: 0x01F8 [0x03] Work_Zone[2] = 603*
  7: 0x01FD [0x1D] PRINT_EVENT_MESSAGE(message_id=11198*)
    → "Thank you. Sacred is the $0 you conveyed hither."
  8: 0x0200 [0x23] WAIT_FOR_DIALOG_INTERACTION
  9: 0x0201 [0x1C] WAIT(30* ticks)
 10: 0x0204 [0x03] Work_Zone[3] = 13183*
 11: 0x0209 [0x1D] PRINT_EVENT_MESSAGE(message_id=11199*)
    → "In testament to your devotion, I give you this $1. Through it, Altana's providence is yours."
 12: 0x020C [0x23] WAIT_FOR_DIALOG_INTERACTION
 13: 0x020D [0x5B] LOAD_EXT_SCHEDULER: Load scheduler "tlk1" with entities [EventEntity, EventEntity], work=20*
 14: 0x021C [0x53] WAIT_SCHEDULER_TASK: Wait for scheduler "tlk1" with entities [EventEntity, EventEntity]
 15: 0x0229 [0x1C] WAIT(60* ticks)
 16: 0x022C [0x5B] LOAD_EXT_SCHEDULER: Load scheduler "ino0" with entities [EventEntity, EventEntity], work=20*
 17: 0x023B [0x1D] PRINT_EVENT_MESSAGE(message_id=11194*)
    → "May Paradise open its gates to you."
 18: 0x023E [0x23] WAIT_FOR_DIALOG_INTERACTION
 19: 0x023F [0x53] WAIT_SCHEDULER_TASK: Wait for scheduler "ino0" with entities [EventEntity, EventEntity]
 20: 0x024C [0x45] LOAD_SCHEDULED_TASK: Load scheduler "qstc" with entities [LocalPlayer, LocalPlayer], work=[201*, 0*]
 21: 0x025D [0x1C] WAIT(30* ticks)
 22: 0x0260 [0x20] SET_CLI_EVENT_UC_FLAG: Unlock player control
 23: 0x0262 [0x21] END_EVENT
 24: 0x0263 [0x00] END_REQSTACK()
```

### Event 506

#### Metadata

| Field        | Value    |
|--------------|----------|
| Entrypoint   | 0x0264   |
| Data Size    | 69 bytes |
| Instructions | 15       |

```
      00 01 02 03 04 05 06 07  08 09 0A 0B 0C 0D 0E 0F
      -- -- -- -- -- -- -- --  -- -- -- -- -- -- -- --
0260:             42 20 01 1E  F0 FF FF 7F 6F 70 5B 0E      B ......op[.
0270: 80 F8 FF FF 7F F8 FF FF  7F 74 6C 6B 30 03 02 10  .........tlk0...
0280: 13 80 1D 20 80 23 5B 0E  80 F8 FF FF 7F F8 FF FF  ... .#[.........
0290: 7F 74 6C 6B 31 53 F8 FF  FF 7F F8 FF FF 7F 74 6C  .tlk1S........tl
02A0: 6B 31 1C 10 80 20 00 21  00                       k1... .!.       
```

#### Opcodes

```
  0: 0x0264 [0x42] SET_CLI_EVENT_CANCEL_DATA()
  1: 0x0265 [0x20] SET_CLI_EVENT_UC_FLAG: Lock player control
  2: 0x0267 [0x1E] EventEntity looks at LocalPlayer and starts talking
  3: 0x026C [0x6F] WAIT_FRAME_DELAY: Yield until WaitTime reaches zero
  4: 0x026D [0x70] WAIT_ENTITY_RENDER_FLAG: Wait while EventEntity->Render.Flags3 bit 2 is set (cancel turn if not)
  5: 0x026E [0x5B] LOAD_EXT_SCHEDULER: Load scheduler "tlk0" with entities [EventEntity, EventEntity], work=20*
  6: 0x027D [0x03] Work_Zone[2] = 603*
  7: 0x0282 [0x1D] PRINT_EVENT_MESSAGE(message_id=11197*)
    → "Admirable is your generosity, but this is not $0 ."
  8: 0x0285 [0x23] WAIT_FOR_DIALOG_INTERACTION
  9: 0x0286 [0x5B] LOAD_EXT_SCHEDULER: Load scheduler "tlk1" with entities [EventEntity, EventEntity], work=20*
 10: 0x0295 [0x53] WAIT_SCHEDULER_TASK: Wait for scheduler "tlk1" with entities [EventEntity, EventEntity]
 11: 0x02A2 [0x1C] WAIT(30* ticks)
 12: 0x02A5 [0x20] SET_CLI_EVENT_UC_FLAG: Unlock player control
 13: 0x02A7 [0x21] END_EVENT
 14: 0x02A8 [0x00] END_REQSTACK()
```

### Event 517

#### Metadata

| Field        | Value    |
|--------------|----------|
| Entrypoint   | 0x02A9   |
| Data Size    | 44 bytes |
| Instructions | 10       |

```
      00 01 02 03 04 05 06 07  08 09 0A 0B 0C 0D 0E 0F
      -- -- -- -- -- -- -- --  -- -- -- -- -- -- -- --
02A0:                             1E F0 FF FF 7F 6F 70           .....op
02B0: 5B 0E 80 F8 FF FF 7F F8  FF FF 7F 69 6E 6F 30 1D  [..........ino0.
02C0: 17 80 23 53 F8 FF FF 7F  F8 FF FF 7F 69 6E 6F 30  ..#S........ino0
02D0: 1C 10 80 21 00                                    ...!.           
```

#### Opcodes

```
  0: 0x02A9 [0x1E] EventEntity looks at LocalPlayer and starts talking
  1: 0x02AE [0x6F] WAIT_FRAME_DELAY: Yield until WaitTime reaches zero
  2: 0x02AF [0x70] WAIT_ENTITY_RENDER_FLAG: Wait while EventEntity->Render.Flags3 bit 2 is set (cancel turn if not)
  3: 0x02B0 [0x5B] LOAD_EXT_SCHEDULER: Load scheduler "ino0" with entities [EventEntity, EventEntity], work=20*
  4: 0x02BF [0x1D] PRINT_EVENT_MESSAGE(message_id=11194*)
    → "May Paradise open its gates to you."
  5: 0x02C2 [0x23] WAIT_FOR_DIALOG_INTERACTION
  6: 0x02C3 [0x53] WAIT_SCHEDULER_TASK: Wait for scheduler "ino0" with entities [EventEntity, EventEntity]
  7: 0x02D0 [0x1C] WAIT(30* ticks)
  8: 0x02D3 [0x21] END_EVENT
  9: 0x02D4 [0x00] END_REQSTACK()
```

### Event 49

#### Metadata

| Field        | Value   |
|--------------|---------|
| Entrypoint   | 0x02D5  |
| Data Size    | 1 bytes |
| Instructions | 1       |

```
      00 01 02 03 04 05 06 07  08 09 0A 0B 0C 0D 0E 0F
      -- -- -- -- -- -- -- --  -- -- -- -- -- -- -- --
02D0:                00                                      .          
```

#### Opcodes

```
  0: 0x02D5 [0x00] END_REQSTACK()
```

### Event 16

#### Metadata

| Field        | Value    |
|--------------|----------|
| Entrypoint   | 0x02D6   |
| Data Size    | 18 bytes |
| Instructions | 4        |

```
      00 01 02 03 04 05 06 07  08 09 0A 0B 0C 0D 0E 0F
      -- -- -- -- -- -- -- --  -- -- -- -- -- -- -- --
02D0:                   22 00  92 01 F8 FF FF 7F 37 21        ".......7!
02E0: 80 22 80 02 80 23 80 00                           ."...#..        
```

#### Opcodes

```
  0: 0x02D6 [0x22] ENTITY_HIDE_FLAG(enabled=0x00)
  1: 0x02D8 [0x92] EventEntity->Render.Flags3 ^= 0x01
  2: 0x02DE [0x37] UPDATE_EVENT_POSITION_AND_DIR: x=118.347*, z=105.317*, y=0.000*, direction=227.3°*
  3: 0x02E7 [0x00] END_REQSTACK()
```

### Event 869

#### Metadata

| Field        | Value   |
|--------------|---------|
| Entrypoint   | 0x02E8  |
| Data Size    | 1 bytes |
| Instructions | 1       |

```
      00 01 02 03 04 05 06 07  08 09 0A 0B 0C 0D 0E 0F
      -- -- -- -- -- -- -- --  -- -- -- -- -- -- -- --
02E0:                          00                               .       
```

#### Opcodes

```
  0: 0x02E8 [0x00] END_REQSTACK()
```

### Event 870

#### Metadata

| Field        | Value   |
|--------------|---------|
| Entrypoint   | 0x02E9  |
| Data Size    | 1 bytes |
| Instructions | 1       |

```
      00 01 02 03 04 05 06 07  08 09 0A 0B 0C 0D 0E 0F
      -- -- -- -- -- -- -- --  -- -- -- -- -- -- -- --
02E0:                             00                             .      
```

#### Opcodes

```
  0: 0x02E9 [0x00] END_REQSTACK()
```
