# 17723582 - Destin

## Common Data

| Field            | Value                         |
|------------------|-------------------------------|
| Zone             | Northern San d'Oria (ID: 231) |
| Block Size       | 528 bytes                     |
| Total Events     | 15                            |
| References Count | 39                            |

## List of Events

| Event ID                   | Entrypoint   |   Size |   Instructions |
|----------------------------|--------------|--------|----------------|
| [65535](#event-65535)      | 0x0000       |      1 |              1 |
| [0](#event-0)              | 0x0001       |     13 |              3 |
| [65535.1](#event-655351)   | 0x000E       |     11 |              3 |
| [16](#event-16)            | 0x0019       |     13 |              3 |
| [1](#event-1)              | 0x0026       |     10 |              2 |
| [65535.2](#event-655352)   | 0x0030       |     81 |              9 |
| [65535.3](#event-655353)   | 0x0081       |      5 |              3 |
| [65535.4](#event-655354)   | 0x0086       |      9 |              3 |
| [65535.5](#event-655355)   | 0x008F       |     10 |              2 |
| [65535.6](#event-655356)   | 0x0099       |     68 |              6 |
| [65535.7](#event-655357)   | 0x00DD       |     14 |              4 |
| [65535.8](#event-655358)   | 0x00EB       |     14 |              4 |
| [65535.9](#event-655359)   | 0x00F9       |     13 |              3 |
| [65535.10](#event-6553510) | 0x0106       |     11 |              3 |
| [65535.11](#event-6553511) | 0x0111       |     20 |              6 |

## DAT References (imed_data)

|   Index | Hex Value   |   Dec Value |
|---------|-------------|-------------|
|       0 | 0x0025      |          37 |
|       1 | 0x218A9     |      137385 |
|       2 | 0xFFFFF6CD  |  4294964941 |
|       3 | 0x040B      |        1035 |
|       4 | 0x0007      |           7 |
|       5 | 0x002D      |          45 |
|       6 | 0x20EBF     |      134847 |
|       7 | 0x1F631     |      128561 |
|       8 | 0x1D726     |      120614 |
|       9 | 0x0000      |           0 |
|      10 | 0x05E6      |        1510 |
|      11 | 0x000A      |          10 |
|      12 | 0x25381     |      152449 |
|      13 | 0x229E3     |      141795 |
|      14 | 0xFFFFFDA7  |  4294966695 |
|      15 | 0x0715      |        1813 |
|      16 | 0x000F      |          15 |
|      17 | 0x0012      |          18 |
|      18 | 0x00B4      |         180 |
|      19 | 0x00C8      |         200 |
|      20 | 0x329F      |       12959 |
|      21 | 0x32B7      |       12983 |
|      22 | 0x0080      |         128 |
|      23 | 0x00F3      |         243 |
|      24 | 0x0032      |          50 |
|      25 | 0x24EE3     |      151267 |
|      26 | 0x22606     |      140806 |
|      27 | 0x24C2F     |      150575 |
|      28 | 0x222A9     |      139945 |
|      29 | 0x1AEF9     |      110329 |
|      30 | 0x18FE8     |      102376 |
|      31 | 0x04B0      |        1200 |
|      32 | 0x18937     |      100663 |
|      33 | 0x16A6E     |       92782 |
|      34 | 0x06D5      |        1749 |
|      35 | 0x0600      |        1536 |
|      36 | 0x0050      |          80 |
|      37 | 0x17E8D     |       97933 |
|      38 | 0x15F28     |       89896 |

## String References

- **12959**: Wait!

## Events

### Event 65535

#### Metadata

| Field        | Value   |
|--------------|---------|
| Entrypoint   | 0x0000  |
| Data Size    | 1 bytes |
| Instructions | 1       |

```
      00 01 02 03 04 05 06 07  08 09 0A 0B 0C 0D 0E 0F
      -- -- -- -- -- -- -- --  -- -- -- -- -- -- -- --
0000: 00                                                .               
```

#### Opcodes

```
  0: 0x0000 [0x00] END_REQSTACK()
```

### Event 0

#### Metadata

| Field        | Value    |
|--------------|----------|
| Entrypoint   | 0x0001   |
| Data Size    | 13 bytes |
| Instructions | 3        |

```
      00 01 02 03 04 05 06 07  08 09 0A 0B 0C 0D 0E 0F
      -- -- -- -- -- -- -- --  -- -- -- -- -- -- -- --
0000:    37 00 80 01 80 02 80  03 80 32 04 80 00         7........2...  
```

#### Opcodes

```
  0: 0x0001 [0x37] UPDATE_EVENT_POSITION_AND_DIR: x=0.037*, z=137.385*, y=-2.355*, direction=91.0°*
  1: 0x000A [0x32] ExtData[1]->MainSpeed = 7* * 0.1
  2: 0x000D [0x00] END_REQSTACK()
```

### Event 65535.1

#### Metadata

| Field        | Value    |
|--------------|----------|
| Entrypoint   | 0x000E   |
| Data Size    | 11 bytes |
| Instructions | 3        |

```
      00 01 02 03 04 05 06 07  08 09 0A 0B 0C 0D 0E 0F
      -- -- -- -- -- -- -- --  -- -- -- -- -- -- -- --
0000:                                            1F 00                ..
0010: 05 80 06 80 02 80 1F 01  00                       .........       
```

#### Opcodes

```
  0: 0x000E [0x1F] MOVE_ENTITY: EventEntity moves to X=0.045*, Z=134.847*, Y=-2.355*
  1: 0x0016 [0x1F] MOVE_ENTITY: Update entity position (mode=1)
  2: 0x0018 [0x00] END_REQSTACK()
```

### Event 16

#### Metadata

| Field        | Value    |
|--------------|----------|
| Entrypoint   | 0x0019   |
| Data Size    | 13 bytes |
| Instructions | 3        |

```
      00 01 02 03 04 05 06 07  08 09 0A 0B 0C 0D 0E 0F
      -- -- -- -- -- -- -- --  -- -- -- -- -- -- -- --
0010:                             37 07 80 08 80 09 80           7......
0020: 0A 80 32 0B 80 00                                 ..2...          
```

#### Opcodes

```
  0: 0x0019 [0x37] UPDATE_EVENT_POSITION_AND_DIR: x=128.561*, z=120.614*, y=0.000*, direction=132.7°*
  1: 0x0022 [0x32] ExtData[1]->MainSpeed = 10* * 0.1
  2: 0x0025 [0x00] END_REQSTACK()
```

### Event 1

#### Metadata

| Field        | Value    |
|--------------|----------|
| Entrypoint   | 0x0026   |
| Data Size    | 10 bytes |
| Instructions | 2        |

```
      00 01 02 03 04 05 06 07  08 09 0A 0B 0C 0D 0E 0F
      -- -- -- -- -- -- -- --  -- -- -- -- -- -- -- --
0020:                   37 0C  80 0D 80 0E 80 0F 80 00        7.........
```

#### Opcodes

```
  0: 0x0026 [0x37] UPDATE_EVENT_POSITION_AND_DIR: x=152.449*, z=141.795*, y=-0.601*, direction=159.3°*
  1: 0x002F [0x00] END_REQSTACK()
```

### Event 65535.2

#### Metadata

| Field        | Value    |
|--------------|----------|
| Entrypoint   | 0x0030   |
| Data Size    | 81 bytes |
| Instructions | 9        |

```
      00 01 02 03 04 05 06 07  08 09 0A 0B 0C 0D 0E 0F
      -- -- -- -- -- -- -- --  -- -- -- -- -- -- -- --
0030: 1C 10 80 45 11 80 F0 FF  FF 7F F0 FF FF 7F 78 30  ...E..........x0
0040: 30 32 09 80 7B BA 70 0E  01 7B BB 70 0E 01 1C 12  02..{.p..{.p....
0050: 80 45 13 80 F0 FF FF 7F  F0 FF FF 7F 66 64 6F 31  .E..........fdo1
0060: 09 80 55 13 80 F0 FF FF  7F F0 FF FF 7F 66 64 6F  ..U..........fdo
0070: 31 52 11 80 F0 FF FF 7F  F0 FF FF 7F 78 30 30 32  1R..........x002
0080: 00                                                .               
```

#### Opcodes

```
  0: 0x0030 [0x1C] WAIT(15* ticks)
  1: 0x0033 [0x45] LOAD_SCHEDULED_TASK: Load scheduler "x002" with entities [LocalPlayer, LocalPlayer], work=[18*, 0*]
  2: 0x0044 [0x7B] Unnamed NPC (ID: 17723578/0x010E70BA) stops talking
  3: 0x0049 [0x7B] Unnamed NPC (ID: 17723579/0x010E70BB) stops talking
  4: 0x004E [0x1C] WAIT(180* ticks)
  5: 0x0051 [0x45] LOAD_SCHEDULED_TASK: Load scheduler "fdo1" with entities [LocalPlayer, LocalPlayer], work=[200*, 0*]
  6: 0x0062 [0x55] WAIT_LOAD_SCHEDULER: Wait for scheduler "fdo1" with entities [LocalPlayer, LocalPlayer], work=200*
  7: 0x0071 [0x52] END_LOAD_SCHEDULER: End scheduler "x002" with entities [LocalPlayer, LocalPlayer], work=18*
  8: 0x0080 [0x00] END_REQSTACK()
```

### Event 65535.3

#### Metadata

| Field        | Value   |
|--------------|---------|
| Entrypoint   | 0x0081  |
| Data Size    | 5 bytes |
| Instructions | 3       |

```
      00 01 02 03 04 05 06 07  08 09 0A 0B 0C 0D 0E 0F
      -- -- -- -- -- -- -- --  -- -- -- -- -- -- -- --
0080:    48 14 80 23 00                                  H..#.          
```

#### Opcodes

```
  0: 0x0081 [0x48] [System] [12959*]:
    → "Wait!"
  1: 0x0084 [0x23] WAIT_FOR_DIALOG_INTERACTION
  2: 0x0085 [0x00] END_REQSTACK()
```

### Event 65535.4

#### Metadata

| Field        | Value   |
|--------------|---------|
| Entrypoint   | 0x0086  |
| Data Size    | 9 bytes |
| Instructions | 3       |

```
      00 01 02 03 04 05 06 07  08 09 0A 0B 0C 0D 0E 0F
      -- -- -- -- -- -- -- --  -- -- -- -- -- -- -- --
0080:                   2B CF  70 0E 01 15 80 23 00           +.p....#. 
```

#### Opcodes

```
  0: 0x0086 [0x2B] Rochefogne (ID: 17723599/0x010E70CF) [12983*]:
    → "Claidie, now!"
  1: 0x008D [0x23] WAIT_FOR_DIALOG_INTERACTION
  2: 0x008E [0x00] END_REQSTACK()
```

### Event 65535.5

#### Metadata

| Field        | Value    |
|--------------|----------|
| Entrypoint   | 0x008F   |
| Data Size    | 10 bytes |
| Instructions | 2        |

```
      00 01 02 03 04 05 06 07  08 09 0A 0B 0C 0D 0E 0F
      -- -- -- -- -- -- -- --  -- -- -- -- -- -- -- --
0080:                                               6C                 l
0090: D0 70 0E 01 16 80 13 80  00                       .p.......       
```

#### Opcodes

```
  0: 0x008F [0x6C] FADE_ENTITY_COLOR(entity_id=Unnamed NPC (ID: 17723600/0x010E70D0), end_alpha=128*, fade_time=200*)
  1: 0x0098 [0x00] END_REQSTACK()
```

### Event 65535.6

#### Metadata

| Field        | Value    |
|--------------|----------|
| Entrypoint   | 0x0099   |
| Data Size    | 68 bytes |
| Instructions | 6        |

```
      00 01 02 03 04 05 06 07  08 09 0A 0B 0C 0D 0E 0F
      -- -- -- -- -- -- -- --  -- -- -- -- -- -- -- --
0090:                             45 17 80 F0 FF FF 7F           E......
00A0: F0 FF FF 7F 76 30 30 32  09 80 1C 18 80 52 17 80  ....v002.....R..
00B0: F0 FF FF 7F F0 FF FF 7F  76 30 30 32 45 17 80 F0  ........v002E...
00C0: FF FF 7F F0 FF FF 7F 76  30 30 61 09 80 55 17 80  .......v00a..U..
00D0: F0 FF FF 7F F0 FF FF 7F  76 30 30 61 00           ........v00a.   
```

#### Opcodes

```
  0: 0x0099 [0x45] LOAD_SCHEDULED_TASK: Load scheduler "v002" with entities [LocalPlayer, LocalPlayer], work=[243*, 0*]
  1: 0x00AA [0x1C] WAIT(50* ticks)
  2: 0x00AD [0x52] END_LOAD_SCHEDULER: End scheduler "v002" with entities [LocalPlayer, LocalPlayer], work=243*
  3: 0x00BC [0x45] LOAD_SCHEDULED_TASK: Load scheduler "v00a" with entities [LocalPlayer, LocalPlayer], work=[243*, 0*]
  4: 0x00CD [0x55] WAIT_LOAD_SCHEDULER: Wait for scheduler "v00a" with entities [LocalPlayer, LocalPlayer], work=243*
  5: 0x00DC [0x00] END_REQSTACK()
```

### Event 65535.7

#### Metadata

| Field        | Value    |
|--------------|----------|
| Entrypoint   | 0x00DD   |
| Data Size    | 14 bytes |
| Instructions | 4        |

```
      00 01 02 03 04 05 06 07  08 09 0A 0B 0C 0D 0E 0F
      -- -- -- -- -- -- -- --  -- -- -- -- -- -- -- --
00D0:                                         32 04 80               2..
00E0: 1F 00 19 80 1A 80 0E 80  1F 01 00                 ...........     
```

#### Opcodes

```
  0: 0x00DD [0x32] ExtData[1]->MainSpeed = 7* * 0.1
  1: 0x00E0 [0x1F] MOVE_ENTITY: EventEntity moves to X=151.267*, Z=140.806*, Y=-0.601*
  2: 0x00E8 [0x1F] MOVE_ENTITY: Update entity position (mode=1)
  3: 0x00EA [0x00] END_REQSTACK()
```

### Event 65535.8

#### Metadata

| Field        | Value    |
|--------------|----------|
| Entrypoint   | 0x00EB   |
| Data Size    | 14 bytes |
| Instructions | 4        |

```
      00 01 02 03 04 05 06 07  08 09 0A 0B 0C 0D 0E 0F
      -- -- -- -- -- -- -- --  -- -- -- -- -- -- -- --
00E0:                                   32 04 80 1F 00             2....
00F0: 1B 80 1C 80 0E 80 1F 01  00                       .........       
```

#### Opcodes

```
  0: 0x00EB [0x32] ExtData[1]->MainSpeed = 7* * 0.1
  1: 0x00EE [0x1F] MOVE_ENTITY: EventEntity moves to X=150.575*, Z=139.945*, Y=-0.601*
  2: 0x00F6 [0x1F] MOVE_ENTITY: Update entity position (mode=1)
  3: 0x00F8 [0x00] END_REQSTACK()
```

### Event 65535.9

#### Metadata

| Field        | Value    |
|--------------|----------|
| Entrypoint   | 0x00F9   |
| Data Size    | 13 bytes |
| Instructions | 3        |

```
      00 01 02 03 04 05 06 07  08 09 0A 0B 0C 0D 0E 0F
      -- -- -- -- -- -- -- --  -- -- -- -- -- -- -- --
00F0:                             31 00 1D 80 1E 80 09           1......
0100: 80 1F 80 31 01 00                                 ...1..          
```

#### Opcodes

```
  0: 0x00F9 [0x31] UPDATE_ENTITY_POSITION: Set EventEntity goal position to X=110.329*, Z=102.376*, Y=0.000*, Time=1200*
  1: 0x0103 [0x31] UPDATE_ENTITY_POSITION: Move EventEntity towards goal position
  2: 0x0105 [0x00] END_REQSTACK()
```

### Event 65535.10

#### Metadata

| Field        | Value    |
|--------------|----------|
| Entrypoint   | 0x0106   |
| Data Size    | 11 bytes |
| Instructions | 3        |

```
      00 01 02 03 04 05 06 07  08 09 0A 0B 0C 0D 0E 0F
      -- -- -- -- -- -- -- --  -- -- -- -- -- -- -- --
0100:                   37 20  80 21 80 22 80 23 80 84        7 .!.".#..
0110: 00                                                .               
```

#### Opcodes

```
  0: 0x0106 [0x37] UPDATE_EVENT_POSITION_AND_DIR: x=100.663*, z=92.782*, y=1.749*, direction=135.0°*
  1: 0x010F [0x84] ADJUST_RENDER_FLAGS3_BIT0()
  2: 0x0110 [0x00] END_REQSTACK()
```

### Event 65535.11

#### Metadata

| Field        | Value    |
|--------------|----------|
| Entrypoint   | 0x0111   |
| Data Size    | 20 bytes |
| Instructions | 6        |

```
      00 01 02 03 04 05 06 07  08 09 0A 0B 0C 0D 0E 0F
      -- -- -- -- -- -- -- --  -- -- -- -- -- -- -- --
0110:    1C 24 80 1F 00 25 80  26 80 22 80 1F 01 6F 1E   .$...%.&."...o.
0120: C5 70 0E 01 00                                    .p...           
```

#### Opcodes

```
  0: 0x0111 [0x1C] WAIT(80* ticks)
  1: 0x0114 [0x1F] MOVE_ENTITY: EventEntity moves to X=97.933*, Z=89.896*, Y=1.749*
  2: 0x011C [0x1F] MOVE_ENTITY: Update entity position (mode=1)
  3: 0x011E [0x6F] WAIT_FRAME_DELAY: Yield until WaitTime reaches zero
  4: 0x011F [0x1E] EventEntity looks at Rochefogne (ID: 17723589/0x010E70C5) and starts talking
  5: 0x0124 [0x00] END_REQSTACK()
```
