# 17723442 - Miaux

## Common Data

| Field            | Value                         |
|------------------|-------------------------------|
| Zone             | Northern San d'Oria (ID: 231) |
| Block Size       | 1244 bytes                    |
| Total Events     | 31                            |
| References Count | 90                            |

## List of Events

| Event ID                   | Entrypoint   |   Size |   Instructions |
|----------------------------|--------------|--------|----------------|
| [65535](#event-65535)      | 0x0000       |      1 |              1 |
| [11](#event-11)            | 0x0001       |     22 |              7 |
| [73](#event-73)            | 0x0017       |      4 |              2 |
| [65535.1](#event-655351)   | 0x001B       |      4 |              2 |
| [65535.2](#event-655352)   | 0x001F       |     33 |              7 |
| [65535.3](#event-655353)   | 0x0040       |     27 |              7 |
| [65535.4](#event-655354)   | 0x005B       |     19 |              7 |
| [65535.5](#event-655355)   | 0x006E       |     10 |              2 |
| [65535.6](#event-655356)   | 0x0078       |     12 |              4 |
| [71](#event-71)            | 0x0084       |     77 |             20 |
| [69](#event-69)            | 0x00D1       |     22 |              7 |
| [70](#event-70)            | 0x00E7       |      1 |              1 |
| [72](#event-72)            | 0x00E8       |     17 |              6 |
| [66](#event-66)            | 0x00F9       |     30 |              9 |
| [10](#event-10)            | 0x0117       |     25 |              8 |
| [67](#event-67)            | 0x0130       |      1 |              1 |
| [68](#event-68)            | 0x0131       |     22 |              7 |
| [535](#event-535)          | 0x0147       |      1 |              1 |
| [65535.7](#event-655357)   | 0x0148       |     33 |              7 |
| [65535.8](#event-655358)   | 0x0169       |     10 |              2 |
| [65535.9](#event-655359)   | 0x0173       |     37 |             11 |
| [65535.10](#event-6553510) | 0x0198       |     10 |              2 |
| [65535.11](#event-6553511) | 0x01A2       |     74 |             20 |
| [65535.12](#event-6553512) | 0x01EC       |     78 |             10 |
| [65535.13](#event-6553513) | 0x023A       |     20 |              3 |
| [65535.14](#event-6553514) | 0x024E       |     29 |              3 |
| [65535.15](#event-6553515) | 0x026B       |      9 |              3 |
| [65535.16](#event-6553516) | 0x0274       |     29 |              3 |
| [65535.17](#event-6553517) | 0x0291       |     29 |              3 |
| [65535.18](#event-6553518) | 0x02AE       |     29 |              3 |
| [65535.19](#event-6553519) | 0x02CB       |     29 |              3 |

## DAT References (imed_data)

|   Index | Hex Value   |   Dec Value |
|---------|-------------|-------------|
|       0 | 0x0129      |         297 |
|       1 | 0x31C5      |       12741 |
|       2 | 0x000D      |          13 |
|       3 | 0x0E73      |        3699 |
|       4 | 0xFFFD5057  |  4294791255 |
|       5 | 0x2771A     |      161562 |
|       6 | 0x0F9F      |        3999 |
|       7 | 0xFFFD3903  |  4294785283 |
|       8 | 0x276D6     |      161494 |
|       9 | 0xFFFD2440  |  4294779968 |
|      10 | 0x23148     |      143688 |
|      11 | 0x2EE1      |       12001 |
|      12 | 0x07F4      |        2036 |
|      13 | 0xFFFD1546  |  4294776134 |
|      14 | 0x231D8     |      143832 |
|      15 | 0x2AE9      |       10985 |
|      16 | 0xFFFD0A43  |  4294773315 |
|      17 | 0x23B0C     |      146188 |
|      18 | 0x2AF9      |       11001 |
|      19 | 0xFFFD0AD8  |  4294773464 |
|      20 | 0x23AAF     |      146095 |
|      21 | 0xFFFD4237  |  4294787639 |
|      22 | 0x254F0     |      152816 |
|      23 | 0x0C17      |        3095 |
|      24 | 0xFFFD42E7  |  4294787815 |
|      25 | 0x26971     |      158065 |
|      26 | 0x2EE0      |       12000 |
|      27 | 0x31D6      |       12758 |
|      28 | 0x31D7      |       12759 |
|      29 | 0x0001      |           1 |
|      30 | 0x0000      |           0 |
|      31 | 0x31DA      |       12762 |
|      32 | 0x31D8      |       12760 |
|      33 | 0x31DC      |       12764 |
|      34 | 0x31E2      |       12770 |
|      35 | 0x01C1      |         449 |
|      36 | 0x31EE      |       12782 |
|      37 | 0x31EF      |       12783 |
|      38 | 0x31E3      |       12771 |
|      39 | 0x31E4      |       12772 |
|      40 | 0x31ED      |       12781 |
|      41 | 0x0019      |          25 |
|      42 | 0xFFFDF78F  |  4294834063 |
|      43 | 0x2E87E     |      190590 |
|      44 | 0x07D7      |        2007 |
|      45 | 0xFFFD8770  |  4294805360 |
|      46 | 0x2E593     |      189843 |
|      47 | 0xFFFD5253  |  4294791763 |
|      48 | 0x2AF9B     |      176027 |
|      49 | 0xFFFDB0FD  |  4294815997 |
|      50 | 0x2CDF7     |      183799 |
|      51 | 0x2EDF      |       11999 |
|      52 | 0x0FF4      |        4084 |
|      53 | 0x012C      |         300 |
|      54 | 0xFFFDB3F2  |  4294816754 |
|      55 | 0x2CC8E     |      183438 |
|      56 | 0x0BF6      |        3062 |
|      57 | 0x0078      |         120 |
|      58 | 0x0028      |          40 |
|      59 | 0xFFFDBCF0  |  4294819056 |
|      60 | 0x2FA32     |      195122 |
|      61 | 0xFFFD9317  |  4294808343 |
|      62 | 0x34126     |      213286 |
|      63 | 0x1963      |        6499 |
|      64 | 0x07E2      |        2018 |
|      65 | 0xFFFD7F0F  |  4294803215 |
|      66 | 0x34058     |      213080 |
|      67 | 0x0ED8      |        3800 |
|      68 | 0xFFFD76B9  |  4294801081 |
|      69 | 0x343FA     |      214010 |
|      70 | 0x0FA0      |        4000 |
|      71 | 0x0403      |        1027 |
|      72 | 0x07FE      |        2046 |
|      73 | 0xFFFD7453  |  4294800467 |
|      74 | 0x34CEB     |      216299 |
|      75 | 0xFFFD7541  |  4294800705 |
|      76 | 0x36AE3     |      223971 |
|      77 | 0xFFFD6074  |  4294795380 |
|      78 | 0x39CAC     |      236716 |
|      79 | 0x0C08      |        3080 |
|      80 | 0xFFFD60C7  |  4294795463 |
|      81 | 0x3C268     |      246376 |
|      82 | 0x0027      |          39 |
|      83 | 0x0014      |          20 |
|      84 | 0x00F5      |         245 |
|      85 | 0xFFFD6B59  |  4294798169 |
|      86 | 0x26BD5     |      158677 |
|      87 | 0x0A93      |        2707 |
|      88 | 0x001E      |          30 |
|      89 | 0x003C      |          60 |

## String References

- **12759**: Accept the task? [Yes./No.]

## Events

### Event 65535

#### Metadata

| Field        | Value   |
|--------------|---------|
| Entrypoint   | 0x0000  |
| Data Size    | 1 bytes |
| Instructions | 1       |

```
      00 01 02 03 04 05 06 07  08 09 0A 0B 0C 0D 0E 0F
      -- -- -- -- -- -- -- --  -- -- -- -- -- -- -- --
0000: 00                                                .               
```

#### Opcodes

```
  0: 0x0000 [0x00] END_REQSTACK()
```

### Event 11

#### Metadata

| Field        | Value    |
|--------------|----------|
| Entrypoint   | 0x0001   |
| Data Size    | 22 bytes |
| Instructions | 7        |

```
      00 01 02 03 04 05 06 07  08 09 0A 0B 0C 0D 0E 0F
      -- -- -- -- -- -- -- --  -- -- -- -- -- -- -- --
0000:    20 01 1E F0 FF FF 7F  03 09 10 00 80 2B 32 70    ...........+2p
0010: 0E 01 01 80 23 21 00                              ....#!.         
```

#### Opcodes

```
  0: 0x0001 [0x20] SET_CLI_EVENT_UC_FLAG: Lock player control
  1: 0x0003 [0x1E] EventEntity looks at LocalPlayer and starts talking
  2: 0x0008 [0x03] Work_Zone[9] = 297*
  3: 0x000D [0x2B] Miaux (ID: 17723442/0x010E7032) [12741*]:
    → "<Sigh> Why must all craftsmen be so uptight?"
  4: 0x0014 [0x23] WAIT_FOR_DIALOG_INTERACTION
  5: 0x0015 [0x21] END_EVENT
  6: 0x0016 [0x00] END_REQSTACK()
```

### Event 73

#### Metadata

| Field        | Value   |
|--------------|---------|
| Entrypoint   | 0x0017  |
| Data Size    | 4 bytes |
| Instructions | 2       |

```
      00 01 02 03 04 05 06 07  08 09 0A 0B 0C 0D 0E 0F
      -- -- -- -- -- -- -- --  -- -- -- -- -- -- -- --
0010:                      32  02 80 00                        2...     
```

#### Opcodes

```
  0: 0x0017 [0x32] ExtData[1]->MainSpeed = 13* * 0.1
  1: 0x001A [0x00] END_REQSTACK()
```

### Event 65535.1

#### Metadata

| Field        | Value   |
|--------------|---------|
| Entrypoint   | 0x001B  |
| Data Size    | 4 bytes |
| Instructions | 2       |

```
      00 01 02 03 04 05 06 07  08 09 0A 0B 0C 0D 0E 0F
      -- -- -- -- -- -- -- --  -- -- -- -- -- -- -- --
0010:                                   39 03 80 00                9... 
```

#### Opcodes

```
  0: 0x001B [0x39] SET_ENTITY_DIRECTION(direction=20.3°*)
  1: 0x001E [0x00] END_REQSTACK()
```

### Event 65535.2

#### Metadata

| Field        | Value    |
|--------------|----------|
| Entrypoint   | 0x001F   |
| Data Size    | 33 bytes |
| Instructions | 7        |

```
      00 01 02 03 04 05 06 07  08 09 0A 0B 0C 0D 0E 0F
      -- -- -- -- -- -- -- --  -- -- -- -- -- -- -- --
0010:                                               32                 2
0020: 02 80 1F 00 04 80 05 80  06 80 1F 01 1F 00 07 80  ................
0030: 08 80 06 80 1F 01 37 09  80 0A 80 0B 80 0C 80 00  ......7.........
```

#### Opcodes

```
  0: 0x001F [0x32] ExtData[1]->MainSpeed = 13* * 0.1
  1: 0x0022 [0x1F] MOVE_ENTITY: EventEntity moves to X=-176.041*, Z=161.562*, Y=3.999*
  2: 0x002A [0x1F] MOVE_ENTITY: Update entity position (mode=1)
  3: 0x002C [0x1F] MOVE_ENTITY: EventEntity moves to X=-182.013*, Z=161.494*, Y=3.999*
  4: 0x0034 [0x1F] MOVE_ENTITY: Update entity position (mode=1)
  5: 0x0036 [0x37] UPDATE_EVENT_POSITION_AND_DIR: x=-187.328*, z=143.688*, y=12.001*, direction=178.9°*
  6: 0x003F [0x00] END_REQSTACK()
```

### Event 65535.3

#### Metadata

| Field        | Value    |
|--------------|----------|
| Entrypoint   | 0x0040   |
| Data Size    | 27 bytes |
| Instructions | 7        |

```
      00 01 02 03 04 05 06 07  08 09 0A 0B 0C 0D 0E 0F
      -- -- -- -- -- -- -- --  -- -- -- -- -- -- -- --
0040: 1F 00 0D 80 0E 80 0F 80  1F 01 1F 00 10 80 11 80  ................
0050: 12 80 1F 01 6F 1E 2B 70  0E 01 00                 ....o.+p...     
```

#### Opcodes

```
  0: 0x0040 [0x1F] MOVE_ENTITY: EventEntity moves to X=-191.162*, Z=143.832*, Y=10.985*
  1: 0x0048 [0x1F] MOVE_ENTITY: Update entity position (mode=1)
  2: 0x004A [0x1F] MOVE_ENTITY: EventEntity moves to X=-193.981*, Z=146.188*, Y=11.001*
  3: 0x0052 [0x1F] MOVE_ENTITY: Update entity position (mode=1)
  4: 0x0054 [0x6F] WAIT_FRAME_DELAY: Yield until WaitTime reaches zero
  5: 0x0055 [0x1E] EventEntity looks at Mevreauche (ID: 17723435/0x010E702B) and starts talking
  6: 0x005A [0x00] END_REQSTACK()
```

### Event 65535.4

#### Metadata

| Field        | Value    |
|--------------|----------|
| Entrypoint   | 0x005B   |
| Data Size    | 19 bytes |
| Instructions | 7        |

```
      00 01 02 03 04 05 06 07  08 09 0A 0B 0C 0D 0E 0F
      -- -- -- -- -- -- -- --  -- -- -- -- -- -- -- --
0050:                                   1F 00 13 80 14             .....
0060: 80 12 80 1F 01 6F 1E 2B  70 0E 01 6F 70 00        .....o.+p..op.  
```

#### Opcodes

```
  0: 0x005B [0x1F] MOVE_ENTITY: EventEntity moves to X=-193.832*, Z=146.095*, Y=11.001*
  1: 0x0063 [0x1F] MOVE_ENTITY: Update entity position (mode=1)
  2: 0x0065 [0x6F] WAIT_FRAME_DELAY: Yield until WaitTime reaches zero
  3: 0x0066 [0x1E] EventEntity looks at Mevreauche (ID: 17723435/0x010E702B) and starts talking
  4: 0x006B [0x6F] WAIT_FRAME_DELAY: Yield until WaitTime reaches zero
  5: 0x006C [0x70] WAIT_ENTITY_RENDER_FLAG: Wait while EventEntity->Render.Flags3 bit 2 is set (cancel turn if not)
  6: 0x006D [0x00] END_REQSTACK()
```

### Event 65535.5

#### Metadata

| Field        | Value    |
|--------------|----------|
| Entrypoint   | 0x006E   |
| Data Size    | 10 bytes |
| Instructions | 2        |

```
      00 01 02 03 04 05 06 07  08 09 0A 0B 0C 0D 0E 0F
      -- -- -- -- -- -- -- --  -- -- -- -- -- -- -- --
0060:                                            37 15                7.
0070: 80 16 80 0B 80 17 80 00                           ........        
```

#### Opcodes

```
  0: 0x006E [0x37] UPDATE_EVENT_POSITION_AND_DIR: x=-179.657*, z=152.816*, y=12.001*, direction=272.0°*
  1: 0x0077 [0x00] END_REQSTACK()
```

### Event 65535.6

#### Metadata

| Field        | Value    |
|--------------|----------|
| Entrypoint   | 0x0078   |
| Data Size    | 12 bytes |
| Instructions | 4        |

```
      00 01 02 03 04 05 06 07  08 09 0A 0B 0C 0D 0E 0F
      -- -- -- -- -- -- -- --  -- -- -- -- -- -- -- --
0070:                          1F 00 18 80 19 80 1A 80          ........
0080: 1F 01 6F 00                                       ..o.            
```

#### Opcodes

```
  0: 0x0078 [0x1F] MOVE_ENTITY: EventEntity moves to X=-179.481*, Z=158.065*, Y=12.000*
  1: 0x0080 [0x1F] MOVE_ENTITY: Update entity position (mode=1)
  2: 0x0082 [0x6F] WAIT_FRAME_DELAY: Yield until WaitTime reaches zero
  3: 0x0083 [0x00] END_REQSTACK()
```

### Event 71

#### Metadata

| Field        | Value    |
|--------------|----------|
| Entrypoint   | 0x0084   |
| Data Size    | 77 bytes |
| Instructions | 20       |

```
      00 01 02 03 04 05 06 07  08 09 0A 0B 0C 0D 0E 0F
      -- -- -- -- -- -- -- --  -- -- -- -- -- -- -- --
0080:             20 01 1E F0  FF FF 7F 03 09 10 00 80       ...........
0090: 2B 32 70 0E 01 1B 80 23  42 06 01 10 24 1C 80 1D  +2p....#B...$...
00A0: 80 1E 80 25 02 00 10 1E  80 00 BC 00 2B 32 70 0E  ...%........+2p.
00B0: 01 1F 80 23 03 01 10 1D  80 01 CF 00 02 00 10 1D  ...#............
00C0: 80 00 CF 00 2B 32 70 0E  01 20 80 23 01 CF 00 21  ....+2p.. .#...!
00D0: 00                                                .               
```

#### Opcodes

```
  0: 0x0084 [0x20] SET_CLI_EVENT_UC_FLAG: Lock player control
  1: 0x0086 [0x1E] EventEntity looks at LocalPlayer and starts talking
  2: 0x008B [0x03] Work_Zone[9] = 297*
  3: 0x0090 [0x2B] Miaux (ID: 17723442/0x010E7032) [12758*]:
    → "I...I hesitate to impose upon you again, but would it be at all possible for you to find me $6? Naturally, I will pay you for your troubles..."
  4: 0x0097 [0x23] WAIT_FOR_DIALOG_INTERACTION
  5: 0x0098 [0x42] SET_CLI_EVENT_CANCEL_DATA()
  6: 0x0099 [0x06] Work_Zone[1] = 0
  7: 0x009C [0x24] CREATE_DIALOG(message_id=12759*, default_option=1*, option_flags=0*)
    → "Accept the task? [Yes./No.]"
  8: 0x00A3 [0x25] WAIT_DIALOG_SELECT()
  9: 0x00A4 [0x02] IF !(Work_Zone[0] == 0*) GOTO 0x00BC
 10: 0x00AC [0x2B] Miaux (ID: 17723442/0x010E7032) [12762*]:
    → "You'll help me? Thank you. It would mean so much to me."
 11: 0x00B3 [0x23] WAIT_FOR_DIALOG_INTERACTION
 12: 0x00B4 [0x03] Work_Zone[1] = 1*
 13: 0x00B9 [0x01] GOTO 0x00CF
 14: 0x00BC [0x02] IF !(Work_Zone[0] == 1*) GOTO 0x00CF
 15: 0x00C4 [0x2B] Miaux (ID: 17723442/0x010E7032) [12760*]:
    → "Oh, that's a shame... Maybe there is someone else I can ask."
 16: 0x00CB [0x23] WAIT_FOR_DIALOG_INTERACTION
 17: 0x00CC [0x01] GOTO 0x00CF

SUBROUTINE_00CF:
 18: 0x00CF [0x21] END_EVENT
 19: 0x00D0 [0x00] END_REQSTACK()
```

### Event 69

#### Metadata

| Field        | Value    |
|--------------|----------|
| Entrypoint   | 0x00D1   |
| Data Size    | 22 bytes |
| Instructions | 7        |

```
      00 01 02 03 04 05 06 07  08 09 0A 0B 0C 0D 0E 0F
      -- -- -- -- -- -- -- --  -- -- -- -- -- -- -- --
00D0:    20 01 1E F0 FF FF 7F  03 09 10 00 80 2B 32 70    ...........+2p
00E0: 0E 01 21 80 23 21 00                              ..!.#!.         
```

#### Opcodes

```
  0: 0x00D1 [0x20] SET_CLI_EVENT_UC_FLAG: Lock player control
  1: 0x00D3 [0x1E] EventEntity looks at LocalPlayer and starts talking
  2: 0x00D8 [0x03] Work_Zone[9] = 297*
  3: 0x00DD [0x2B] Miaux (ID: 17723442/0x010E7032) [12764*]:
    → "The $3 can be found in the Eastern Altepa Desert. Please take care on your travels!"
  4: 0x00E4 [0x23] WAIT_FOR_DIALOG_INTERACTION
  5: 0x00E5 [0x21] END_EVENT
  6: 0x00E6 [0x00] END_REQSTACK()
```

### Event 70

#### Metadata

| Field        | Value   |
|--------------|---------|
| Entrypoint   | 0x00E7  |
| Data Size    | 1 bytes |
| Instructions | 1       |

```
      00 01 02 03 04 05 06 07  08 09 0A 0B 0C 0D 0E 0F
      -- -- -- -- -- -- -- --  -- -- -- -- -- -- -- --
00E0:                      00                                  .        
```

#### Opcodes

```
  0: 0x00E7 [0x00] END_REQSTACK()
```

### Event 72

#### Metadata

| Field        | Value    |
|--------------|----------|
| Entrypoint   | 0x00E8   |
| Data Size    | 17 bytes |
| Instructions | 6        |

```
      00 01 02 03 04 05 06 07  08 09 0A 0B 0C 0D 0E 0F
      -- -- -- -- -- -- -- --  -- -- -- -- -- -- -- --
00E0:                          20 01 1E F0 FF FF 7F 2B           ......+
00F0: 32 70 0E 01 22 80 23 21  00                       2p..".#!.       
```

#### Opcodes

```
  0: 0x00E8 [0x20] SET_CLI_EVENT_UC_FLAG: Lock player control
  1: 0x00EA [0x1E] EventEntity looks at LocalPlayer and starts talking
  2: 0x00EF [0x2B] Miaux (ID: 17723442/0x010E7032) [12770*]:
    → "You don't see many people with that kind of integrity around anymore. If my father was still alive, they would have struck up a solid friendship, I'm sure."
  3: 0x00F6 [0x23] WAIT_FOR_DIALOG_INTERACTION
  4: 0x00F7 [0x21] END_EVENT
  5: 0x00F8 [0x00] END_REQSTACK()
```

### Event 66

#### Metadata

| Field        | Value    |
|--------------|----------|
| Entrypoint   | 0x00F9   |
| Data Size    | 30 bytes |
| Instructions | 9        |

```
      00 01 02 03 04 05 06 07  08 09 0A 0B 0C 0D 0E 0F
      -- -- -- -- -- -- -- --  -- -- -- -- -- -- -- --
00F0:                             20 01 1E F0 FF FF 7F            ......
0100: 03 09 10 23 80 2B 32 70  0E 01 24 80 23 2B 32 70  ...#.+2p..$.#+2p
0110: 0E 01 25 80 23 21 00                              ..%.#!.         
```

#### Opcodes

```
  0: 0x00F9 [0x20] SET_CLI_EVENT_UC_FLAG: Lock player control
  1: 0x00FB [0x1E] EventEntity looks at LocalPlayer and starts talking
  2: 0x0100 [0x03] Work_Zone[9] = 449*
  3: 0x0105 [0x2B] Miaux (ID: 17723442/0x010E7032) [12782*]:
    → "Oh, that $3 came in handy after all? That's wonderful! I'm glad I could help someone out in the same way that you and Ranchuriome helped me."
  4: 0x010C [0x23] WAIT_FOR_DIALOG_INTERACTION
  5: 0x010D [0x2B] Miaux (ID: 17723442/0x010E7032) [12783*]:
    → "I don't think I'm suited for a career as a detective, though... I think I'll concentrate on helping people in a way that's more within my capabilities."
  6: 0x0114 [0x23] WAIT_FOR_DIALOG_INTERACTION
  7: 0x0115 [0x21] END_EVENT
  8: 0x0116 [0x00] END_REQSTACK()
```

### Event 10

#### Metadata

| Field        | Value    |
|--------------|----------|
| Entrypoint   | 0x0117   |
| Data Size    | 25 bytes |
| Instructions | 8        |

```
      00 01 02 03 04 05 06 07  08 09 0A 0B 0C 0D 0E 0F
      -- -- -- -- -- -- -- --  -- -- -- -- -- -- -- --
0110:                      20  01 1E F0 FF FF 7F 2B 32          ......+2
0120: 70 0E 01 26 80 23 2B 32  70 0E 01 27 80 23 21 00  p..&.#+2p..'.#!.
```

#### Opcodes

```
  0: 0x0117 [0x20] SET_CLI_EVENT_UC_FLAG: Lock player control
  1: 0x0119 [0x1E] EventEntity looks at LocalPlayer and starts talking
  2: 0x011E [0x2B] Miaux (ID: 17723442/0x010E7032) [12771*]:
    → "Thanks to your help, my father's breastplate is looking like new, but... That nice old man, Ranchuriome, has passed away."
  3: 0x0125 [0x23] WAIT_FOR_DIALOG_INTERACTION
  4: 0x0126 [0x2B] Miaux (ID: 17723442/0x010E7032) [12772*]:
    → "I can't help but think it's my fault in some way...that the repairs he did for me were too strenuous. When I attended the funeral to pay my respects, though, his features seemed to be at peace."
  5: 0x012D [0x23] WAIT_FOR_DIALOG_INTERACTION
  6: 0x012E [0x21] END_EVENT
  7: 0x012F [0x00] END_REQSTACK()
```

### Event 67

#### Metadata

| Field        | Value   |
|--------------|---------|
| Entrypoint   | 0x0130  |
| Data Size    | 1 bytes |
| Instructions | 1       |

```
      00 01 02 03 04 05 06 07  08 09 0A 0B 0C 0D 0E 0F
      -- -- -- -- -- -- -- --  -- -- -- -- -- -- -- --
0130: 00                                                .               
```

#### Opcodes

```
  0: 0x0130 [0x00] END_REQSTACK()
```

### Event 68

#### Metadata

| Field        | Value    |
|--------------|----------|
| Entrypoint   | 0x0131   |
| Data Size    | 22 bytes |
| Instructions | 7        |

```
      00 01 02 03 04 05 06 07  08 09 0A 0B 0C 0D 0E 0F
      -- -- -- -- -- -- -- --  -- -- -- -- -- -- -- --
0130:    20 01 1E F0 FF FF 7F  03 09 10 23 80 2B 32 70    .........#.+2p
0140: 0E 01 28 80 23 21 00                              ..(.#!.         
```

#### Opcodes

```
  0: 0x0131 [0x20] SET_CLI_EVENT_UC_FLAG: Lock player control
  1: 0x0133 [0x1E] EventEntity looks at LocalPlayer and starts talking
  2: 0x0138 [0x03] Work_Zone[9] = 449*
  3: 0x013D [0x2B] Miaux (ID: 17723442/0x010E7032) [12781*]:
    → "A suspicious woman and $6... Probably just my overactive imagination."
  4: 0x0144 [0x23] WAIT_FOR_DIALOG_INTERACTION
  5: 0x0145 [0x21] END_EVENT
  6: 0x0146 [0x00] END_REQSTACK()
```

### Event 535

#### Metadata

| Field        | Value   |
|--------------|---------|
| Entrypoint   | 0x0147  |
| Data Size    | 1 bytes |
| Instructions | 1       |

```
      00 01 02 03 04 05 06 07  08 09 0A 0B 0C 0D 0E 0F
      -- -- -- -- -- -- -- --  -- -- -- -- -- -- -- --
0140:                      00                                  .        
```

#### Opcodes

```
  0: 0x0147 [0x00] END_REQSTACK()
```

### Event 65535.7

#### Metadata

| Field        | Value    |
|--------------|----------|
| Entrypoint   | 0x0148   |
| Data Size    | 33 bytes |
| Instructions | 7        |

```
      00 01 02 03 04 05 06 07  08 09 0A 0B 0C 0D 0E 0F
      -- -- -- -- -- -- -- --  -- -- -- -- -- -- -- --
0140:                          32 29 80 37 2A 80 2B 80          2).7*.+.
0150: 1E 80 2C 80 1F 00 2D 80  2E 80 1E 80 1F 01 1F 00  ..,...-.........
0160: 2F 80 30 80 1E 80 1F 01  00                       /.0......       
```

#### Opcodes

```
  0: 0x0148 [0x32] ExtData[1]->MainSpeed = 25* * 0.1
  1: 0x014B [0x37] UPDATE_EVENT_POSITION_AND_DIR: x=-133.233*, z=190.590*, y=0.000*, direction=176.4°*
  2: 0x0154 [0x1F] MOVE_ENTITY: EventEntity moves to X=-161.936*, Z=189.843*, Y=0.000*
  3: 0x015C [0x1F] MOVE_ENTITY: Update entity position (mode=1)
  4: 0x015E [0x1F] MOVE_ENTITY: EventEntity moves to X=-175.533*, Z=176.027*, Y=0.000*
  5: 0x0166 [0x1F] MOVE_ENTITY: Update entity position (mode=1)
  6: 0x0168 [0x00] END_REQSTACK()
```

### Event 65535.8

#### Metadata

| Field        | Value    |
|--------------|----------|
| Entrypoint   | 0x0169   |
| Data Size    | 10 bytes |
| Instructions | 2        |

```
      00 01 02 03 04 05 06 07  08 09 0A 0B 0C 0D 0E 0F
      -- -- -- -- -- -- -- --  -- -- -- -- -- -- -- --
0160:                             37 31 80 32 80 33 80           71.2.3.
0170: 34 80 00                                          4..             
```

#### Opcodes

```
  0: 0x0169 [0x37] UPDATE_EVENT_POSITION_AND_DIR: x=-151.299*, z=183.799*, y=11.999*, direction=358.9°*
  1: 0x0172 [0x00] END_REQSTACK()
```

### Event 65535.9

#### Metadata

| Field        | Value    |
|--------------|----------|
| Entrypoint   | 0x0173   |
| Data Size    | 37 bytes |
| Instructions | 11       |

```
      00 01 02 03 04 05 06 07  08 09 0A 0B 0C 0D 0E 0F
      -- -- -- -- -- -- -- --  -- -- -- -- -- -- -- --
0170:          1C 35 80 32 02  80 1F 00 36 80 37 80 33     .5.2....6.7.3
0180: 80 1F 01 6F 39 38 80 1C  39 80 32 3A 80 1F 00 3B  ...o98..9.2:...;
0190: 80 3C 80 33 80 1F 01 00                           .<.3....        
```

#### Opcodes

```
  0: 0x0173 [0x1C] WAIT(300* ticks)
  1: 0x0176 [0x32] ExtData[1]->MainSpeed = 13* * 0.1
  2: 0x0179 [0x1F] MOVE_ENTITY: EventEntity moves to X=-150.542*, Z=183.438*, Y=11.999*
  3: 0x0181 [0x1F] MOVE_ENTITY: Update entity position (mode=1)
  4: 0x0183 [0x6F] WAIT_FRAME_DELAY: Yield until WaitTime reaches zero
  5: 0x0184 [0x39] SET_ENTITY_DIRECTION(direction=16.8°*)
  6: 0x0187 [0x1C] WAIT(120* ticks)
  7: 0x018A [0x32] ExtData[1]->MainSpeed = 40* * 0.1
  8: 0x018D [0x1F] MOVE_ENTITY: EventEntity moves to X=-148.240*, Z=195.122*, Y=11.999*
  9: 0x0195 [0x1F] MOVE_ENTITY: Update entity position (mode=1)
 10: 0x0197 [0x00] END_REQSTACK()
```

### Event 65535.10

#### Metadata

| Field        | Value    |
|--------------|----------|
| Entrypoint   | 0x0198   |
| Data Size    | 10 bytes |
| Instructions | 2        |

```
      00 01 02 03 04 05 06 07  08 09 0A 0B 0C 0D 0E 0F
      -- -- -- -- -- -- -- --  -- -- -- -- -- -- -- --
0190:                          37 3D 80 3E 80 3F 80 40          7=.>.?.@
01A0: 80 00                                             ..              
```

#### Opcodes

```
  0: 0x0198 [0x37] UPDATE_EVENT_POSITION_AND_DIR: x=-158.953*, z=213.286*, y=6.499*, direction=177.4°*
  1: 0x01A1 [0x00] END_REQSTACK()
```

### Event 65535.11

#### Metadata

| Field        | Value    |
|--------------|----------|
| Entrypoint   | 0x01A2   |
| Data Size    | 74 bytes |
| Instructions | 20       |

```
      00 01 02 03 04 05 06 07  08 09 0A 0B 0C 0D 0E 0F
      -- -- -- -- -- -- -- --  -- -- -- -- -- -- -- --
01A0:       32 3A 80 33 01 5A  00 41 80 42 80 43 80 5A    2:.3.Z.A.B.C.Z
01B0: 01 33 00 1F 00 44 80 45  80 46 80 1F 01 6F 39 47  .3...D.E.F...o9G
01C0: 80 1C 39 80 39 48 80 1C  39 80 1F 00 49 80 4A 80  ..9.9H..9...I.J.
01D0: 46 80 1F 01 33 01 5A 00  4B 80 4C 80 1E 80 5A 01  F...3.Z.K.L...Z.
01E0: 33 00 37 4D 80 4E 80 1E  80 4F 80 00              3.7M.N...O..    
```

#### Opcodes

```
  0: 0x01A2 [0x32] ExtData[1]->MainSpeed = 40* * 0.1
  1: 0x01A5 [0x33] EventEntity->Render.Flags0 |= 0x200000 // Bit 21 (flag=0x01)
  2: 0x01A7 [0x5A] UPDATE_EVENT_POSITION: Set EventEntity MovePosition to X=-164.081*, Z=213.080*, Y=3.800*
  3: 0x01AF [0x5A] UPDATE_EVENT_POSITION: Move EventEntity incrementally towards MovePosition
  4: 0x01B1 [0x33] EventEntity->Render.Flags0 &= ~ 0x200000 // Bit 21 (flag=0x00)
  5: 0x01B3 [0x1F] MOVE_ENTITY: EventEntity moves to X=-166.215*, Z=214.010*, Y=4.000*
  6: 0x01BB [0x1F] MOVE_ENTITY: Update entity position (mode=1)
  7: 0x01BD [0x6F] WAIT_FRAME_DELAY: Yield until WaitTime reaches zero
  8: 0x01BE [0x39] SET_ENTITY_DIRECTION(direction=5.6°*)
  9: 0x01C1 [0x1C] WAIT(120* ticks)
 10: 0x01C4 [0x39] SET_ENTITY_DIRECTION(direction=11.2°*)
 11: 0x01C7 [0x1C] WAIT(120* ticks)
 12: 0x01CA [0x1F] MOVE_ENTITY: EventEntity moves to X=-166.829*, Z=216.299*, Y=4.000*
 13: 0x01D2 [0x1F] MOVE_ENTITY: Update entity position (mode=1)
 14: 0x01D4 [0x33] EventEntity->Render.Flags0 |= 0x200000 // Bit 21 (flag=0x01)
 15: 0x01D6 [0x5A] UPDATE_EVENT_POSITION: Set EventEntity MovePosition to X=-166.591*, Z=223.971*, Y=0.000*
 16: 0x01DE [0x5A] UPDATE_EVENT_POSITION: Move EventEntity incrementally towards MovePosition
 17: 0x01E0 [0x33] EventEntity->Render.Flags0 &= ~ 0x200000 // Bit 21 (flag=0x00)
 18: 0x01E2 [0x37] UPDATE_EVENT_POSITION_AND_DIR: x=-171.916*, z=236.716*, y=0.000*, direction=270.7°*
 19: 0x01EB [0x00] END_REQSTACK()
```

### Event 65535.12

#### Metadata

| Field        | Value    |
|--------------|----------|
| Entrypoint   | 0x01EC   |
| Data Size    | 78 bytes |
| Instructions | 10       |

```
      00 01 02 03 04 05 06 07  08 09 0A 0B 0C 0D 0E 0F
      -- -- -- -- -- -- -- --  -- -- -- -- -- -- -- --
01E0:                                      32 3A 80 1F              2:..
01F0: 00 50 80 51 80 1E 80 1F  01 6F 66 52 80 F8 FF FF  .P.Q.....ofR....
0200: 7F F8 FF FF 7F 73 68 61  30 1C 53 80 45 54 80 F0  .....sha0.S.ET..
0210: FF FF 7F F0 FF FF 7F 77  30 30 34 1E 80 55 54 80  .......w004..UT.
0220: F0 FF FF 7F F0 FF FF 7F  77 30 30 34 53 F8 FF FF  ........w004S...
0230: 7F F8 FF FF 7F 73 68 61  30 00                    .....sha0.      
```

#### Opcodes

```
  0: 0x01EC [0x32] ExtData[1]->MainSpeed = 40* * 0.1
  1: 0x01EF [0x1F] MOVE_ENTITY: EventEntity moves to X=-171.833*, Z=246.376*, Y=0.000*
  2: 0x01F7 [0x1F] MOVE_ENTITY: Update entity position (mode=1)
  3: 0x01F9 [0x6F] WAIT_FRAME_DELAY: Yield until WaitTime reaches zero
  4: 0x01FA [0x66] LOAD_EXT_SCHEDULER_MAIN: Load scheduler "sha0" with entities [EventEntity, EventEntity], work=39*
  5: 0x0209 [0x1C] WAIT(20* ticks)
  6: 0x020C [0x45] LOAD_SCHEDULED_TASK: Load scheduler "w004" with entities [LocalPlayer, LocalPlayer], work=[245*, 0*]
  7: 0x021D [0x55] WAIT_LOAD_SCHEDULER: Wait for scheduler "w004" with entities [LocalPlayer, LocalPlayer], work=245*
  8: 0x022C [0x53] WAIT_SCHEDULER_TASK: Wait for scheduler "sha0" with entities [EventEntity, EventEntity]
  9: 0x0239 [0x00] END_REQSTACK()
```

### Event 65535.13

#### Metadata

| Field        | Value    |
|--------------|----------|
| Entrypoint   | 0x023A   |
| Data Size    | 20 bytes |
| Instructions | 3        |

```
      00 01 02 03 04 05 06 07  08 09 0A 0B 0C 0D 0E 0F
      -- -- -- -- -- -- -- --  -- -- -- -- -- -- -- --
0230:                                37 55 80 56 80 06            7U.V..
0240: 80 57 80 79 00 F8 FF FF  7F F0 FF FF 7F 00        .W.y..........  
```

#### Opcodes

```
  0: 0x023A [0x37] UPDATE_EVENT_POSITION_AND_DIR: x=-169.127*, z=158.677*, y=3.999*, direction=237.9°*
  1: 0x0243 [0x79] EventEntity looks at LocalPlayer (Basic look)
  2: 0x024D [0x00] END_REQSTACK()
```

### Event 65535.14

#### Metadata

| Field        | Value    |
|--------------|----------|
| Entrypoint   | 0x024E   |
| Data Size    | 29 bytes |
| Instructions | 3        |

```
      00 01 02 03 04 05 06 07  08 09 0A 0B 0C 0D 0E 0F
      -- -- -- -- -- -- -- --  -- -- -- -- -- -- -- --
0240:                                            66 58                fX
0250: 80 F8 FF FF 7F F8 FF FF  7F 74 6C 6B 30 53 F8 FF  .........tlk0S..
0260: FF 7F F8 FF FF 7F 74 6C  6B 30 00                 ......tlk0.     
```

#### Opcodes

```
  0: 0x024E [0x66] LOAD_EXT_SCHEDULER_MAIN: Load scheduler "tlk0" with entities [EventEntity, EventEntity], work=30*
  1: 0x025D [0x53] WAIT_SCHEDULER_TASK: Wait for scheduler "tlk0" with entities [EventEntity, EventEntity]
  2: 0x026A [0x00] END_REQSTACK()
```

### Event 65535.15

#### Metadata

| Field        | Value   |
|--------------|---------|
| Entrypoint   | 0x026B  |
| Data Size    | 9 bytes |
| Instructions | 3       |

```
      00 01 02 03 04 05 06 07  08 09 0A 0B 0C 0D 0E 0F
      -- -- -- -- -- -- -- --  -- -- -- -- -- -- -- --
0260:                                   5E 69 64 6C 30             ^idl0
0270: 1C 59 80 00                                       .Y..            
```

#### Opcodes

```
  0: 0x026B [0x5E] EventEntity goes idle (kills current action) (animation: "idl0")
  1: 0x0270 [0x1C] WAIT(60* ticks)
  2: 0x0273 [0x00] END_REQSTACK()
```

### Event 65535.16

#### Metadata

| Field        | Value    |
|--------------|----------|
| Entrypoint   | 0x0274   |
| Data Size    | 29 bytes |
| Instructions | 3        |

```
      00 01 02 03 04 05 06 07  08 09 0A 0B 0C 0D 0E 0F
      -- -- -- -- -- -- -- --  -- -- -- -- -- -- -- --
0270:             66 58 80 F8  FF FF 7F F8 FF FF 7F 70      fX.........p
0280: 61 73 30 53 F8 FF FF 7F  F8 FF FF 7F 70 61 73 30  as0S........pas0
0290: 00                                                .               
```

#### Opcodes

```
  0: 0x0274 [0x66] LOAD_EXT_SCHEDULER_MAIN: Load scheduler "pas0" with entities [EventEntity, EventEntity], work=30*
  1: 0x0283 [0x53] WAIT_SCHEDULER_TASK: Wait for scheduler "pas0" with entities [EventEntity, EventEntity]
  2: 0x0290 [0x00] END_REQSTACK()
```

### Event 65535.17

#### Metadata

| Field        | Value    |
|--------------|----------|
| Entrypoint   | 0x0291   |
| Data Size    | 29 bytes |
| Instructions | 3        |

```
      00 01 02 03 04 05 06 07  08 09 0A 0B 0C 0D 0E 0F
      -- -- -- -- -- -- -- --  -- -- -- -- -- -- -- --
0290:    66 58 80 F8 FF FF 7F  F8 FF FF 7F 64 69 73 30   fX.........dis0
02A0: 53 F8 FF FF 7F F8 FF FF  7F 64 69 73 30 00        S........dis0.  
```

#### Opcodes

```
  0: 0x0291 [0x66] LOAD_EXT_SCHEDULER_MAIN: Load scheduler "dis0" with entities [EventEntity, EventEntity], work=30*
  1: 0x02A0 [0x53] WAIT_SCHEDULER_TASK: Wait for scheduler "dis0" with entities [EventEntity, EventEntity]
  2: 0x02AD [0x00] END_REQSTACK()
```

### Event 65535.18

#### Metadata

| Field        | Value    |
|--------------|----------|
| Entrypoint   | 0x02AE   |
| Data Size    | 29 bytes |
| Instructions | 3        |

```
      00 01 02 03 04 05 06 07  08 09 0A 0B 0C 0D 0E 0F
      -- -- -- -- -- -- -- --  -- -- -- -- -- -- -- --
02A0:                                            66 58                fX
02B0: 80 F8 FF FF 7F F8 FF FF  7F 74 68 6B 31 53 F8 FF  .........thk1S..
02C0: FF 7F F8 FF FF 7F 74 68  6B 31 00                 ......thk1.     
```

#### Opcodes

```
  0: 0x02AE [0x66] LOAD_EXT_SCHEDULER_MAIN: Load scheduler "thk1" with entities [EventEntity, EventEntity], work=30*
  1: 0x02BD [0x53] WAIT_SCHEDULER_TASK: Wait for scheduler "thk1" with entities [EventEntity, EventEntity]
  2: 0x02CA [0x00] END_REQSTACK()
```

### Event 65535.19

#### Metadata

| Field        | Value    |
|--------------|----------|
| Entrypoint   | 0x02CB   |
| Data Size    | 29 bytes |
| Instructions | 3        |

```
      00 01 02 03 04 05 06 07  08 09 0A 0B 0C 0D 0E 0F
      -- -- -- -- -- -- -- --  -- -- -- -- -- -- -- --
02C0:                                   66 58 80 F8 FF             fX...
02D0: FF 7F F8 FF FF 7F 74 68  6B 32 53 F8 FF FF 7F F8  ......thk2S.....
02E0: FF FF 7F 74 68 6B 32 00                           ...thk2.        
```

#### Opcodes

```
  0: 0x02CB [0x66] LOAD_EXT_SCHEDULER_MAIN: Load scheduler "thk2" with entities [EventEntity, EventEntity], work=30*
  1: 0x02DA [0x53] WAIT_SCHEDULER_TASK: Wait for scheduler "thk2" with entities [EventEntity, EventEntity]
  2: 0x02E7 [0x00] END_REQSTACK()
```
