# 17723651

## Common Data

| Field            | Value                         |
|------------------|-------------------------------|
| Zone             | Northern San d'Oria (ID: 231) |
| Block Size       | 19880 bytes                   |
| Total Events     | 15                            |
| References Count | 277                           |

## List of Events

| Event ID                   | Entrypoint   |   Size |   Instructions |
|----------------------------|--------------|--------|----------------|
| [65535](#event-65535)      | 0x0000       |      1 |              1 |
| [779](#event-779)          | 0x0001       |      1 |              1 |
| [65535.1](#event-655351)   | 0x0002       |     12 |              5 |
| [65535.2](#event-655352)   | 0x000E       |     10 |              2 |
| [65535.3](#event-655353)   | 0x0018       |     21 |              5 |
| [65535.4](#event-655354)   | 0x002D       |     10 |              2 |
| [65535.5](#event-655355)   | 0x0037       |     21 |              5 |
| [65535.6](#event-655356)   | 0x004C       |     10 |              2 |
| [65535.7](#event-655357)   | 0x0056       |     21 |              5 |
| [65535.8](#event-655358)   | 0x006B       |     10 |              2 |
| [65535.9](#event-655359)   | 0x0075       |     21 |              5 |
| [65535.10](#event-6553510) | 0x008A       |     10 |              2 |
| [65535.11](#event-6553511) | 0x0094       |     22 |              6 |
| [780](#event-780)          | 0x00AA       |      1 |              1 |
| [781](#event-781)          | 0x00AB       |  18524 |           3182 |

## DAT References (imed_data)

|   Index | Hex Value   |   Dec Value |
|---------|-------------|-------------|
|       0 | 0xFFFF65DA  |  4294927834 |
|       1 | 0xFFFF0125  |  4294902053 |
|       2 | 0x0002      |           2 |
|       3 | 0x019C      |         412 |
|       4 | 0x000D      |          13 |
|       5 | 0xFFFF6A98  |  4294929048 |
|       6 | 0xFFFEFDB6  |  4294901174 |
|       7 | 0x0001      |           1 |
|       8 | 0x0F17      |        3863 |
|       9 | 0x1A195     |      106901 |
|      10 | 0xFFFFC841  |  4294953025 |
|      11 | 0xFFFFFF39  |  4294967097 |
|      12 | 0x0E8D      |        3725 |
|      13 | 0x1A768     |      108392 |
|      14 | 0xFFFFCC14  |  4294954004 |
|      15 | 0x0BE4      |        3044 |
|      16 | 0xD43C      |       54332 |
|      17 | 0xFFFC4ACD  |  4294724301 |
|      18 | 0x2133      |        8499 |
|      19 | 0x0F55      |        3925 |
|      20 | 0xD9F9      |       55801 |
|      21 | 0xFFFC4C08  |  4294724616 |
|      22 | 0x0BF7      |        3063 |
|      23 | 0x20EA4     |      134820 |
|      24 | 0xFFFFE504  |  4294960388 |
|      25 | 0xFFFFFDDE  |  4294966750 |
|      26 | 0x0300      |         768 |
|      27 | 0x21089     |      135305 |
|      28 | 0xFFFFDF98  |  4294959000 |
|      29 | 0xFFFFFE76  |  4294966902 |
|      30 | 0x00D2      |         210 |
|      31 | 0xFFFE715F  |  4294865247 |
|      32 | 0xFFFEF061  |  4294897761 |
|      33 | 0x0000      |           0 |
|      34 | 0x0C22      |        3106 |
|      35 | 0xFFFE7136  |  4294865206 |
|      36 | 0xFFFEF655  |  4294899285 |
|      37 | 0x0003      |           3 |
|      38 | 0x0004      |           4 |
|      39 | 0x0005      |           5 |
|      40 | 0x0006      |           6 |
|      41 | 0x0007      |           7 |
|      42 | 0x005F      |          95 |
|      43 | 0x0064      |         100 |
|      44 | 0x0069      |         105 |
|      45 | 0x0052      |          82 |
|      46 | 0x0057      |          87 |
|      47 | 0x005C      |          92 |
|      48 | 0x0059      |          89 |
|      49 | 0x005D      |          93 |
|      50 | 0x0061      |          97 |
|      51 | 0x0060      |          96 |
|      52 | 0x0008      |           8 |
|      53 | 0x0009      |           9 |
|      54 | 0x000A      |          10 |
|      55 | 0x0012      |          18 |
|      56 | 0x0013      |          19 |
|      57 | 0x0014      |          20 |
|      58 | 0x0017      |          23 |
|      59 | 0x000C      |          12 |
|      60 | 0x000F      |          15 |
|      61 | 0x000E      |          14 |
|      62 | 0x000B      |          11 |
|      63 | 0x0018      |          24 |
|      64 | 0x001F      |          31 |
|      65 | 0x001B      |          27 |
|      66 | 0x0010      |          16 |
|      67 | 0x0015      |          21 |
|      68 | 0x018D      |         397 |
|      69 | 0x0175      |         373 |
|      70 | 0x0170      |         368 |
|      71 | 0x0171      |         369 |
|      72 | 0x014C      |         332 |
|      73 | 0x01C1      |         449 |
|      74 | 0x027C      |         636 |
|      75 | 0x027B      |         635 |
|      76 | 0x027D      |         637 |
|      77 | 0x02D3      |         723 |
|      78 | 0x0321      |         801 |
|      79 | 0x0326      |         806 |
|      80 | 0x01E1      |         481 |
|      81 | 0x0343      |         835 |
|      82 | 0x0386      |         902 |
|      83 | 0x0388      |         904 |
|      84 | 0x0361      |         865 |
|      85 | 0x0387      |         903 |
|      86 | 0x038A      |         906 |
|      87 | 0x003F      |          63 |
|      88 | 0x0282      |         642 |
|      89 | 0x0283      |         643 |
|      90 | 0x0288      |         648 |
|      91 | 0x0289      |         649 |
|      92 | 0x028A      |         650 |
|      93 | 0x028B      |         651 |
|      94 | 0x029E      |         670 |
|      95 | 0x0019      |          25 |
|      96 | 0x00C6      |         198 |
|      97 | 0x0032      |          50 |
|      98 | 0x00B5      |         181 |
|      99 | 0x008C      |         140 |
|     100 | 0x008E      |         142 |
|     101 | 0x007A      |         122 |
|     102 | 0x014B      |         331 |
|     103 | 0x0148      |         328 |
|     104 | 0x0166      |         358 |
|     105 | 0x017A      |         378 |
|     106 | 0x0182      |         386 |
|     107 | 0x0183      |         387 |
|     108 | 0x0192      |         402 |
|     109 | 0x01DF      |         479 |
|     110 | 0x01E9      |         489 |
|     111 | 0x001C      |          28 |
|     112 | 0x00E6      |         230 |
|     113 | 0x00EB      |         235 |
|     114 | 0x00F5      |         245 |
|     115 | 0x007E      |         126 |
|     116 | 0x007F      |         127 |
|     117 | 0x00F3      |         243 |
|     118 | 0x00F4      |         244 |
|     119 | 0x00E0      |         224 |
|     120 | 0x00E9      |         233 |
|     121 | 0x009E      |         158 |
|     122 | 0x009D      |         157 |
|     123 | 0x00E2      |         226 |
|     124 | 0x00E1      |         225 |
|     125 | 0x014F      |         335 |
|     126 | 0x014E      |         334 |
|     127 | 0x0167      |         359 |
|     128 | 0x00E5      |         229 |
|     129 | 0x0169      |         361 |
|     130 | 0x016A      |         362 |
|     131 | 0x0168      |         360 |
|     132 | 0x0133      |         307 |
|     133 | 0x0174      |         372 |
|     134 | 0x018C      |         396 |
|     135 | 0x0194      |         404 |
|     136 | 0x0195      |         405 |
|     137 | 0x0178      |         376 |
|     138 | 0x0240      |         576 |
|     139 | 0x0197      |         407 |
|     140 | 0x0198      |         408 |
|     141 | 0x01A3      |         419 |
|     142 | 0x019E      |         414 |
|     143 | 0x0246      |         582 |
|     144 | 0x0247      |         583 |
|     145 | 0x0248      |         584 |
|     146 | 0x024B      |         587 |
|     147 | 0x024A      |         586 |
|     148 | 0x0011      |          17 |
|     149 | 0x024F      |         591 |
|     150 | 0x01C3      |         451 |
|     151 | 0x01C4      |         452 |
|     152 | 0x01EF      |         495 |
|     153 | 0x01F0      |         496 |
|     154 | 0x001A      |          26 |
|     155 | 0x0095      |         149 |
|     156 | 0x001D      |          29 |
|     157 | 0x0073      |         115 |
|     158 | 0x0034      |          52 |
|     159 | 0x0024      |          36 |
|     160 | 0x005E      |          94 |
|     161 | 0x0072      |         114 |
|     162 | 0x0031      |          49 |
|     163 | 0x006C      |         108 |
|     164 | 0x003A      |          58 |
|     165 | 0x0096      |         150 |
|     166 | 0x0016      |          22 |
|     167 | 0x0035      |          53 |
|     168 | 0x0085      |         133 |
|     169 | 0x0081      |         129 |
|     170 | 0x0023      |          35 |
|     171 | 0x0033      |          51 |
|     172 | 0x0082      |         130 |
|     173 | 0x0039      |          57 |
|     174 | 0x0020      |          32 |
|     175 | 0x0038      |          56 |
|     176 | 0x0036      |          54 |
|     177 | 0x0083      |         131 |
|     178 | 0x00A2      |         162 |
|     179 | 0x0022      |          34 |
|     180 | 0x0021      |          33 |
|     181 | 0x0065      |         101 |
|     182 | 0x0086      |         134 |
|     183 | 0x0062      |          98 |
|     184 | 0x008D      |         141 |
|     185 | 0x0037      |          55 |
|     186 | 0x008A      |         138 |
|     187 | 0x008B      |         139 |
|     188 | 0x002B      |          43 |
|     189 | 0x0067      |         103 |
|     190 | 0x0030      |          48 |
|     191 | 0x002D      |          45 |
|     192 | 0x00A1      |         161 |
|     193 | 0x0066      |         102 |
|     194 | 0x0075      |         117 |
|     195 | 0x0068      |         104 |
|     196 | 0x007B      |         123 |
|     197 | 0x0077      |         119 |
|     198 | 0x01FE      |         510 |
|     199 | 0x009F      |         159 |
|     200 | 0x00A4      |         164 |
|     201 | 0x00A9      |         169 |
|     202 | 0x00AC      |         172 |
|     203 | 0x00B2      |         178 |
|     204 | 0x00B0      |         176 |
|     205 | 0x013D      |         317 |
|     206 | 0x0108      |         264 |
|     207 | 0x010C      |         268 |
|     208 | 0x0100      |         256 |
|     209 | 0x00FB      |         251 |
|     210 | 0x00B8      |         184 |
|     211 | 0x011C      |         284 |
|     212 | 0x0041      |          65 |
|     213 | 0x0042      |          66 |
|     214 | 0x0047      |          71 |
|     215 | 0x0160      |         352 |
|     216 | 0x0043      |          67 |
|     217 | 0x0048      |          72 |
|     218 | 0x004B      |          75 |
|     219 | 0x004C      |          76 |
|     220 | 0x004D      |          77 |
|     221 | 0x005B      |          91 |
|     222 | 0x0058      |          88 |
|     223 | 0x0053      |          83 |
|     224 | 0x0054      |          84 |
|     225 | 0x0161      |         353 |
|     226 | 0x015C      |         348 |
|     227 | 0x016D      |         365 |
|     228 | 0x00C5      |         197 |
|     229 | 0x00C3      |         195 |
|     230 | 0x00C7      |         199 |
|     231 | 0x015E      |         350 |
|     232 | 0x00C4      |         196 |
|     233 | 0x016E      |         366 |
|     234 | 0x00D0      |         208 |
|     235 | 0x00CD      |         205 |
|     236 | 0x00CA      |         202 |
|     237 | 0x00D8      |         216 |
|     238 | 0x00D5      |         213 |
|     239 | 0x00D6      |         214 |
|     240 | 0x013B      |         315 |
|     241 | 0x0136      |         310 |
|     242 | 0x013A      |         314 |
|     243 | 0x0137      |         311 |
|     244 | 0x016F      |         367 |
|     245 | 0x0138      |         312 |
|     246 | 0x0139      |         313 |
|     247 | 0x009A      |         154 |
|     248 | 0x0091      |         145 |
|     249 | 0x009B      |         155 |
|     250 | 0x0099      |         153 |
|     251 | 0x0093      |         147 |
|     252 | 0x0092      |         146 |
|     253 | 0x0098      |         152 |
|     254 | 0x0071      |         113 |
|     255 | 0x00E8      |         232 |
|     256 | 0x00DD      |         221 |
|     257 | 0x00F8      |         248 |
|     258 | 0x00F1      |         241 |
|     259 | 0x0124      |         292 |
|     260 | 0x012E      |         302 |
|     261 | 0x0129      |         297 |
|     262 | 0x0122      |         290 |
|     263 | 0x0132      |         306 |
|     264 | 0x0126      |         294 |
|     265 | 0x0155      |         341 |
|     266 | 0x0025      |          37 |
|     267 | 0x0029      |          41 |
|     268 | 0x0028      |          40 |
|     269 | 0x007D      |         125 |
|     270 | 0x0079      |         121 |
|     271 | 0x007C      |         124 |
|     272 | 0x0074      |         116 |
|     273 | 0x00EC      |         236 |
|     274 | 0x0193      |         403 |
|     275 | 0x01C6      |         454 |
|     276 | 0x01C7      |         455 |

## Events

### Event 65535

#### Metadata

| Field        | Value   |
|--------------|---------|
| Entrypoint   | 0x0000  |
| Data Size    | 1 bytes |
| Instructions | 1       |

```
      00 01 02 03 04 05 06 07  08 09 0A 0B 0C 0D 0E 0F
      -- -- -- -- -- -- -- --  -- -- -- -- -- -- -- --
0000: 00                                                .               
```

#### Opcodes

```
  0: 0x0000 [0x00] END_REQSTACK()
```

### Event 779

#### Metadata

| Field        | Value   |
|--------------|---------|
| Entrypoint   | 0x0001  |
| Data Size    | 1 bytes |
| Instructions | 1       |

```
      00 01 02 03 04 05 06 07  08 09 0A 0B 0C 0D 0E 0F
      -- -- -- -- -- -- -- --  -- -- -- -- -- -- -- --
0000:    00                                              .              
```

#### Opcodes

```
  0: 0x0001 [0x00] END_REQSTACK()
```

### Event 65535.1

#### Metadata

| Field        | Value    |
|--------------|----------|
| Entrypoint   | 0x0002   |
| Data Size    | 12 bytes |
| Instructions | 5        |

```
      00 01 02 03 04 05 06 07  08 09 0A 0B 0C 0D 0E 0F
      -- -- -- -- -- -- -- --  -- -- -- -- -- -- -- --
0000:       22 00 1A C1 19 1A  0C 11 1A AC 00 00          "...........  
```

#### Opcodes

```
  0: 0x0002 [0x22] ENTITY_HIDE_FLAG(enabled=0x00)
  1: 0x0004 [0x1A] CALL_SUBROUTINE(address=0x19C1)
  2: 0x0007 [0x1A] CALL_SUBROUTINE(address=0x110C)
  3: 0x000A [0x1A] CALL_SUBROUTINE(address=0x00AC)
  4: 0x000D [0x00] END_REQSTACK()
```

### Event 65535.2

#### Metadata

| Field        | Value    |
|--------------|----------|
| Entrypoint   | 0x000E   |
| Data Size    | 10 bytes |
| Instructions | 2        |

```
      00 01 02 03 04 05 06 07  08 09 0A 0B 0C 0D 0E 0F
      -- -- -- -- -- -- -- --  -- -- -- -- -- -- -- --
0000:                                            37 00                7.
0010: 80 01 80 02 80 03 80 00                           ........        
```

#### Opcodes

```
  0: 0x000E [0x37] UPDATE_EVENT_POSITION_AND_DIR: x=-39.462*, z=-65.243*, y=0.002*, direction=36.2°*
  1: 0x0017 [0x00] END_REQSTACK()
```

### Event 65535.3

#### Metadata

| Field        | Value    |
|--------------|----------|
| Entrypoint   | 0x0018   |
| Data Size    | 21 bytes |
| Instructions | 5        |

```
      00 01 02 03 04 05 06 07  08 09 0A 0B 0C 0D 0E 0F
      -- -- -- -- -- -- -- --  -- -- -- -- -- -- -- --
0010:                          32 04 80 1F 00 05 80 06          2.......
0020: 80 07 80 1F 01 4B F8 FF  FF 7F 08 80 00           .....K.......   
```

#### Opcodes

```
  0: 0x0018 [0x32] ExtData[1]->MainSpeed = 13* * 0.1
  1: 0x001B [0x1F] MOVE_ENTITY: EventEntity moves to X=-38.248*, Z=-66.122*, Y=0.001*
  2: 0x0023 [0x1F] MOVE_ENTITY: Update entity position (mode=1)
  3: 0x0025 [0x4B] UPDATE_ENTITY_YAW(entity=EventEntity, yaw=21.2°*)
  4: 0x002C [0x00] END_REQSTACK()
```

### Event 65535.4

#### Metadata

| Field        | Value    |
|--------------|----------|
| Entrypoint   | 0x002D   |
| Data Size    | 10 bytes |
| Instructions | 2        |

```
      00 01 02 03 04 05 06 07  08 09 0A 0B 0C 0D 0E 0F
      -- -- -- -- -- -- -- --  -- -- -- -- -- -- -- --
0020:                                         37 09 80               7..
0030: 0A 80 0B 80 0C 80 00                              .......         
```

#### Opcodes

```
  0: 0x002D [0x37] UPDATE_EVENT_POSITION_AND_DIR: x=106.901*, z=-14.271*, y=-0.199*, direction=327.4°*
  1: 0x0036 [0x00] END_REQSTACK()
```

### Event 65535.5

#### Metadata

| Field        | Value    |
|--------------|----------|
| Entrypoint   | 0x0037   |
| Data Size    | 21 bytes |
| Instructions | 5        |

```
      00 01 02 03 04 05 06 07  08 09 0A 0B 0C 0D 0E 0F
      -- -- -- -- -- -- -- --  -- -- -- -- -- -- -- --
0030:                      32  04 80 1F 00 0D 80 0E 80         2........
0040: 0B 80 1F 01 4B F8 FF FF  7F 0F 80 00              ....K.......    
```

#### Opcodes

```
  0: 0x0037 [0x32] ExtData[1]->MainSpeed = 13* * 0.1
  1: 0x003A [0x1F] MOVE_ENTITY: EventEntity moves to X=108.392*, Z=-13.292*, Y=-0.199*
  2: 0x0042 [0x1F] MOVE_ENTITY: Update entity position (mode=1)
  3: 0x0044 [0x4B] UPDATE_ENTITY_YAW(entity=EventEntity, yaw=16.7°*)
  4: 0x004B [0x00] END_REQSTACK()
```

### Event 65535.6

#### Metadata

| Field        | Value    |
|--------------|----------|
| Entrypoint   | 0x004C   |
| Data Size    | 10 bytes |
| Instructions | 2        |

```
      00 01 02 03 04 05 06 07  08 09 0A 0B 0C 0D 0E 0F
      -- -- -- -- -- -- -- --  -- -- -- -- -- -- -- --
0040:                                      37 10 80 11              7...
0050: 80 12 80 13 80 00                                 ......          
```

#### Opcodes

```
  0: 0x004C [0x37] UPDATE_EVENT_POSITION_AND_DIR: x=54.332*, z=-242.995*, y=8.499*, direction=345.0°*
  1: 0x0055 [0x00] END_REQSTACK()
```

### Event 65535.7

#### Metadata

| Field        | Value    |
|--------------|----------|
| Entrypoint   | 0x0056   |
| Data Size    | 21 bytes |
| Instructions | 5        |

```
      00 01 02 03 04 05 06 07  08 09 0A 0B 0C 0D 0E 0F
      -- -- -- -- -- -- -- --  -- -- -- -- -- -- -- --
0050:                   32 04  80 1F 00 14 80 15 80 12        2.........
0060: 80 1F 01 4B F8 FF FF 7F  16 80 00                 ...K.......     
```

#### Opcodes

```
  0: 0x0056 [0x32] ExtData[1]->MainSpeed = 13* * 0.1
  1: 0x0059 [0x1F] MOVE_ENTITY: EventEntity moves to X=55.801*, Z=-242.680*, Y=8.499*
  2: 0x0061 [0x1F] MOVE_ENTITY: Update entity position (mode=1)
  3: 0x0063 [0x4B] UPDATE_ENTITY_YAW(entity=EventEntity, yaw=16.8°*)
  4: 0x006A [0x00] END_REQSTACK()
```

### Event 65535.8

#### Metadata

| Field        | Value    |
|--------------|----------|
| Entrypoint   | 0x006B   |
| Data Size    | 10 bytes |
| Instructions | 2        |

```
      00 01 02 03 04 05 06 07  08 09 0A 0B 0C 0D 0E 0F
      -- -- -- -- -- -- -- --  -- -- -- -- -- -- -- --
0060:                                   37 17 80 18 80             7....
0070: 19 80 1A 80 00                                    .....           
```

#### Opcodes

```
  0: 0x006B [0x37] UPDATE_EVENT_POSITION_AND_DIR: x=134.820*, z=-6.908*, y=-0.546*, direction=67.5°*
  1: 0x0074 [0x00] END_REQSTACK()
```

### Event 65535.9

#### Metadata

| Field        | Value    |
|--------------|----------|
| Entrypoint   | 0x0075   |
| Data Size    | 21 bytes |
| Instructions | 5        |

```
      00 01 02 03 04 05 06 07  08 09 0A 0B 0C 0D 0E 0F
      -- -- -- -- -- -- -- --  -- -- -- -- -- -- -- --
0070:                32 04 80  1F 00 1B 80 1C 80 1D 80       2..........
0080: 1F 01 4B F8 FF FF 7F 1E  80 00                    ..K.......      
```

#### Opcodes

```
  0: 0x0075 [0x32] ExtData[1]->MainSpeed = 13* * 0.1
  1: 0x0078 [0x1F] MOVE_ENTITY: EventEntity moves to X=135.305*, Z=-8.296*, Y=-0.394*
  2: 0x0080 [0x1F] MOVE_ENTITY: Update entity position (mode=1)
  3: 0x0082 [0x4B] UPDATE_ENTITY_YAW(entity=EventEntity, yaw=1.2°*)
  4: 0x0089 [0x00] END_REQSTACK()
```

### Event 65535.10

#### Metadata

| Field        | Value    |
|--------------|----------|
| Entrypoint   | 0x008A   |
| Data Size    | 10 bytes |
| Instructions | 2        |

```
      00 01 02 03 04 05 06 07  08 09 0A 0B 0C 0D 0E 0F
      -- -- -- -- -- -- -- --  -- -- -- -- -- -- -- --
0080:                                37 1F 80 20 80 21            7.. .!
0090: 80 22 80 00                                       ."..            
```

#### Opcodes

```
  0: 0x008A [0x37] UPDATE_EVENT_POSITION_AND_DIR: x=-102.049*, z=-69.535*, y=0.000*, direction=273.0°*
  1: 0x0093 [0x00] END_REQSTACK()
```

### Event 65535.11

#### Metadata

| Field        | Value    |
|--------------|----------|
| Entrypoint   | 0x0094   |
| Data Size    | 22 bytes |
| Instructions | 6        |

```
      00 01 02 03 04 05 06 07  08 09 0A 0B 0C 0D 0E 0F
      -- -- -- -- -- -- -- --  -- -- -- -- -- -- -- --
0090:             32 04 80 1F  00 23 80 24 80 21 80 1F      2....#.$.!..
00A0: 01 6F 4B F8 FF FF 7F 21  80 00                    .oK....!..      
```

#### Opcodes

```
  0: 0x0094 [0x32] ExtData[1]->MainSpeed = 13* * 0.1
  1: 0x0097 [0x1F] MOVE_ENTITY: EventEntity moves to X=-102.090*, Z=-68.011*, Y=0.000*
  2: 0x009F [0x1F] MOVE_ENTITY: Update entity position (mode=1)
  3: 0x00A1 [0x6F] WAIT_FRAME_DELAY: Yield until WaitTime reaches zero
  4: 0x00A2 [0x4B] UPDATE_ENTITY_YAW(entity=EventEntity, yaw=0.0°*)
  5: 0x00A9 [0x00] END_REQSTACK()
```

### Event 780

#### Metadata

| Field        | Value   |
|--------------|---------|
| Entrypoint   | 0x00AA  |
| Data Size    | 1 bytes |
| Instructions | 1       |

```
      00 01 02 03 04 05 06 07  08 09 0A 0B 0C 0D 0E 0F
      -- -- -- -- -- -- -- --  -- -- -- -- -- -- -- --
00A0:                                00                           .     
```

#### Opcodes

```
  0: 0x00AA [0x00] END_REQSTACK()
```

### Event 781

#### Metadata

| Field        | Value       |
|--------------|-------------|
| Entrypoint   | 0x00AB      |
| Data Size    | 18524 bytes |
| Instructions | 1           |

```
      00 01 02 03 04 05 06 07  08 09 0A 0B 0C 0D 0E 0F
      -- -- -- -- -- -- -- --  -- -- -- -- -- -- -- --
00A0:                                   00 03 02 00 21             ....!
00B0: 80 1A F7 14 1A 01 15 02  0B 00 21 80 80 BA 01 02  ..........!.....
00C0: 01 00 21 80 80 DE 00 B4  00 02 00 46 65 6C 69 7A  ..!........Feliz
00D0: 00 00 00 00 00 00 00 00  00 00 00 01 B7 01 02 01  ................
00E0: 00 07 80 80 FD 00 B4 00  02 00 46 65 72 64 69 6E  ..........Ferdin
00F0: 61 6E 64 00 00 00 00 00  00 00 01 B7 01 02 01 00  and.............
0100: 02 80 80 1C 01 B4 00 02  00 47 75 6E 6E 61 72 00  .........Gunnar.
0110: 00 00 00 00 00 00 00 00  00 01 B7 01 02 01 00 25  ...............%
0120: 80 80 3B 01 B4 00 02 00  4D 61 73 73 69 6D 6F 00  ..;.....Massimo.
0130: 00 00 00 00 00 00 00 00  01 B7 01 02 01 00 26 80  ..............&.
0140: 80 5A 01 B4 00 02 00 4F  6C 64 72 69 63 68 00 00  .Z.....Oldrich..
0150: 00 00 00 00 00 00 00 01  B7 01 02 01 00 27 80 80  .............'..
0160: 79 01 B4 00 02 00 53 69  65 67 77 61 72 64 00 00  y.....Siegward..
0170: 00 00 00 00 00 00 01 B7  01 02 01 00 28 80 80 98  ............(...
0180: 01 B4 00 02 00 54 68 65  6F 62 61 6C 64 00 00 00  .....Theobald...
0190: 00 00 00 00 00 01 B7 01  02 01 00 29 80 80 B7 01  ...........)....
01A0: B4 00 02 00 5A 65 6E 6A  69 00 00 00 00 00 00 00  ....Zenji.......
01B0: 00 00 00 00 01 B7 01 01  CF 08 02 0B 00 07 80 80  ................
01C0: BD 02 02 01 00 21 80 80  E1 01 B4 00 02 00 41 6D  .....!........Am
01D0: 65 72 69 74 61 00 00 00  00 00 00 00 00 00 01 BA  erita...........
01E0: 02 02 01 00 07 80 80 00  02 B4 00 02 00 42 65 61  .............Bea
01F0: 74 72 69 63 65 00 00 00  00 00 00 00 00 01 BA 02  trice...........
0200: 02 01 00 02 80 80 1F 02  B4 00 02 00 48 65 6E 72  ............Henr
0210: 69 65 74 74 61 00 00 00  00 00 00 00 01 BA 02 02  ietta...........
0220: 01 00 25 80 80 3E 02 B4  00 02 00 4A 65 73 69 6D  ..%..>.....Jesim
0230: 61 65 00 00 00 00 00 00  00 00 00 01 BA 02 02 01  ae..............
0240: 00 26 80 80 5D 02 B4 00  02 00 4B 61 72 79 6E 00  .&..].....Karyn.
0250: 00 00 00 00 00 00 00 00  00 00 01 BA 02 02 01 00  ................
0260: 27 80 80 7C 02 B4 00 02  00 4E 61 6E 61 6B 6F 00  '..|.....Nanako.
0270: 00 00 00 00 00 00 00 00  00 01 BA 02 02 01 00 28  ...............(
0280: 80 80 9B 02 B4 00 02 00  53 68 61 72 6C 65 6E 65  ........Sharlene
0290: 00 00 00 00 00 00 00 00  01 BA 02 02 01 00 29 80  ..............).
02A0: 80 BA 02 B4 00 02 00 53  69 65 67 68 69 6C 64 65  .......Sieghilde
02B0: 00 00 00 00 00 00 00 01  BA 02 01 CF 08 02 0B 00  ................
02C0: 02 80 80 C0 03 02 01 00  21 80 80 E4 02 B4 00 02  ........!.......
02D0: 00 43 68 61 6E 61 6E 64  69 74 00 00 00 00 00 00  .Chanandit......
02E0: 00 01 BD 03 02 01 00 07  80 80 03 03 B4 00 02 00  ................
02F0: 44 65 75 6C 6D 61 65 75  78 00 00 00 00 00 00 00  Deulmaeux.......
0300: 01 BD 03 02 01 00 02 80  80 22 03 B4 00 02 00 44  .........".....D
0310: 65 6D 72 65 73 69 6E 61  75 78 00 00 00 00 00 01  emresinaux......
0320: BD 03 02 01 00 25 80 80  41 03 B4 00 02 00 45 70  .....%..A.....Ep
0330: 68 65 61 6C 67 61 75 78  00 00 00 00 00 00 01 BD  healgaux........
0340: 03 02 01 00 26 80 80 60  03 B4 00 02 00 47 61 75  ....&..`.....Gau
0350: 6C 64 65 76 61 6C 00 00  00 00 00 00 00 01 BD 03  ldeval..........
0360: 02 01 00 27 80 80 7F 03  B4 00 02 00 47 72 61 75  ...'........Grau
0370: 66 66 65 6D 61 72 74 00  00 00 00 00 01 BD 03 02  ffemart.........
0380: 01 00 28 80 80 9E 03 B4  00 02 00 4D 69 67 61 69  ..(........Migai
0390: 66 6F 6E 67 75 74 00 00  00 00 00 01 BD 03 02 01  fongut..........
03A0: 00 29 80 80 BD 03 B4 00  02 00 52 6F 6D 69 64 69  .)........Romidi
03B0: 61 6E 74 00 00 00 00 00  00 00 01 BD 03 01 CF 08  ant.............
03C0: 02 0B 00 25 80 80 C3 04  02 01 00 21 80 80 E7 03  ...%.......!....
03D0: B4 00 02 00 41 72 6D 69  74 74 69 65 00 00 00 00  ....Armittie....
03E0: 00 00 00 00 01 C0 04 02  01 00 07 80 80 06 04 B4  ................
03F0: 00 02 00 43 61 64 65 70  75 72 65 00 00 00 00 00  ...Cadepure.....
0400: 00 00 00 01 C0 04 02 01  00 02 80 80 25 04 B4 00  ............%...
0410: 02 00 43 6C 65 61 72 69  74 65 00 00 00 00 00 00  ..Clearite......
0420: 00 00 01 C0 04 02 01 00  25 80 80 44 04 B4 00 02  ........%..D....
0430: 00 45 70 69 6C 6C 65 76  65 00 00 00 00 00 00 00  .Epilleve.......
0440: 00 01 C0 04 02 01 00 26  80 80 63 04 B4 00 02 00  .......&..c.....
0450: 4C 69 61 62 65 6C 6C 65  00 00 00 00 00 00 00 00  Liabelle........
0460: 01 C0 04 02 01 00 27 80  80 82 04 B4 00 02 00 4E  ......'........N
0470: 61 75 74 68 69 6D 61 00  00 00 00 00 00 00 00 01  authima.........
0480: C0 04 02 01 00 28 80 80  A1 04 B4 00 02 00 52 61  .....(........Ra
0490: 64 69 6C 6C 65 00 00 00  00 00 00 00 00 00 01 C0  dille...........
04A0: 04 02 01 00 29 80 80 C0  04 B4 00 02 00 56 69 6D  ....)........Vim
04B0: 65 63 68 75 65 00 00 00  00 00 00 00 00 01 C0 04  echue...........
04C0: 01 CF 08 02 0B 00 26 80  80 C6 05 02 01 00 21 80  ......&.......!.
04D0: 80 EA 04 B4 00 02 00 42  61 6C 75 2D 46 61 6C 75  .......Balu-Falu
04E0: 00 00 00 00 00 00 00 01  C3 05 02 01 00 07 80 80  ................
04F0: 09 05 B4 00 02 00 42 75  72 67 2D 4C 61 64 61 72  ......Burg-Ladar
0500: 67 00 00 00 00 00 01 C3  05 02 01 00 02 80 80 28  g..............(
0510: 05 B4 00 02 00 45 68 67  6F 2D 52 79 75 68 67 6F  .....Ehgo-Ryuhgo
0520: 00 00 00 00 00 01 C3 05  02 01 00 25 80 80 47 05  ...........%..G.
0530: B4 00 02 00 4B 6F 6C 75  69 2D 50 65 6C 75 69 00  ....Kolui-Pelui.
0540: 00 00 00 00 01 C3 05 02  01 00 26 80 80 66 05 B4  ..........&..f..
0550: 00 02 00 4E 6F 6B 75 6D  2D 41 6B 6B 75 6D 00 00  ...Nokum-Akkum..
0560: 00 00 00 01 C3 05 02 01  00 27 80 80 85 05 B4 00  .........'......
0570: 02 00 53 61 76 75 6C 2D  4B 69 76 75 6C 00 00 00  ..Savul-Kivul...
0580: 00 00 01 C3 05 02 01 00  28 80 80 A4 05 B4 00 02  ........(.......
0590: 00 56 69 6E 6A 61 2D 4B  61 6E 6A 61 00 00 00 00  .Vinja-Kanja....
05A0: 00 01 C3 05 02 01 00 29  80 80 C3 05 B4 00 02 00  .......)........
05B0: 59 61 72 67 61 2D 55 6D  69 67 61 00 00 00 00 00  Yarga-Umiga.....
05C0: 01 C3 05 01 CF 08 02 0B  00 27 80 80 C9 06 02 01  .........'......
05D0: 00 21 80 80 ED 05 B4 00  02 00 43 75 70 61 70 61  .!........Cupapa
05E0: 00 00 00 00 00 00 00 00  00 00 01 C6 06 02 01 00  ................
05F0: 07 80 80 0C 06 B4 00 02  00 4A 61 6A 75 6A 75 00  .........Jajuju.
0600: 00 00 00 00 00 00 00 00  00 01 C6 06 02 01 00 02  ................
0610: 80 80 2B 06 B4 00 02 00  4B 61 6C 6F 6B 6F 6B 6F  ..+.....Kalokoko
0620: 00 00 00 00 00 00 00 00  01 C6 06 02 01 00 25 80  ..............%.
0630: 80 4A 06 B4 00 02 00 4D  61 68 6F 79 61 79 61 00  .J.....Mahoyaya.
0640: 00 00 00 00 00 00 00 01  C6 06 02 01 00 26 80 80  .............&..
0650: 69 06 B4 00 02 00 50 61  6B 75 72 61 72 61 00 00  i.....Pakurara..
0660: 00 00 00 00 00 00 01 C6  06 02 01 00 27 80 80 88  ............'...
0670: 06 B4 00 02 00 52 69 70  6F 6B 65 6B 65 00 00 00  .....Ripokeke...
0680: 00 00 00 00 00 01 C6 06  02 01 00 28 80 80 A7 06  ...........(....
0690: B4 00 02 00 59 61 77 61  77 61 00 00 00 00 00 00  ....Yawawa......
06A0: 00 00 00 00 01 C6 06 02  01 00 29 80 80 C6 06 B4  ..........).....
06B0: 00 02 00 59 75 66 61 66  61 00 00 00 00 00 00 00  ...Yufafa.......
06C0: 00 00 00 01 C6 06 01 CF  08 02 0B 00 28 80 80 CC  ............(...
06D0: 07 02 01 00 21 80 80 F0  06 B4 00 02 00 46 68 69  ....!........Fhi
06E0: 67 00 00 00 00 00 00 00  00 00 00 00 00 01 C9 07  g...............
06F0: 02 01 00 07 80 80 0F 07  B4 00 02 00 4B 68 75 6D  ............Khum
0700: 61 00 00 00 00 00 00 00  00 00 00 00 01 C9 07 02  a...............
0710: 01 00 02 80 80 2E 07 B4  00 02 00 50 69 6D 79 00  ...........Pimy.
0720: 00 00 00 00 00 00 00 00  00 00 00 01 C9 07 02 01  ................
0730: 00 25 80 80 4D 07 B4 00  02 00 52 61 6B 61 00 00  .%..M.....Raka..
0740: 00 00 00 00 00 00 00 00  00 00 01 C9 07 02 01 00  ................
0750: 26 80 80 6C 07 B4 00 02  00 53 61 68 79 75 00 00  &..l.....Sahyu..
0760: 00 00 00 00 00 00 00 00  00 01 C9 07 02 01 00 27  ...............'
0770: 80 80 8B 07 B4 00 02 00  53 75 66 68 69 00 00 00  ........Sufhi...
0780: 00 00 00 00 00 00 00 00  01 C9 07 02 01 00 28 80  ..............(.
0790: 80 AA 07 B4 00 02 00 54  73 75 69 6D 00 00 00 00  .......Tsuim....
07A0: 00 00 00 00 00 00 00 01  C9 07 02 01 00 29 80 80  .............)..
07B0: C9 07 B4 00 02 00 59 6F  6C 69 00 00 00 00 00 00  ......Yoli......
07C0: 00 00 00 00 00 00 01 C9  07 01 CF 08 02 0B 00 29  ...............)
07D0: 80 80 CF 08 02 01 00 21  80 80 F3 07 B4 00 02 00  .......!........
07E0: 44 75 72 69 62 00 00 00  00 00 00 00 00 00 00 00  Durib...........
07F0: 01 CC 08 02 01 00 07 80  80 12 08 B4 00 02 00 44  ...............D
0800: 7A 61 70 69 77 61 00 00  00 00 00 00 00 00 00 01  zapiwa..........
0810: CC 08 02 01 00 02 80 80  31 08 B4 00 02 00 4A 75  ........1.....Ju
0820: 67 6F 77 61 00 00 00 00  00 00 00 00 00 00 01 CC  gowa............
0830: 08 02 01 00 25 80 80 50  08 B4 00 02 00 4D 75 67  ....%..P.....Mug
0840: 69 64 6F 00 00 00 00 00  00 00 00 00 00 01 CC 08  ido.............
0850: 02 01 00 26 80 80 6F 08  B4 00 02 00 56 6F 6C 64  ...&..o.....Vold
0860: 61 69 00 00 00 00 00 00  00 00 00 00 01 CC 08 02  ai..............
0870: 01 00 27 80 80 8E 08 B4  00 02 00 57 61 67 77 65  ..'........Wagwe
0880: 69 00 00 00 00 00 00 00  00 00 00 01 CC 08 02 01  i...............
0890: 00 28 80 80 AD 08 B4 00  02 00 5A 61 79 61 67 00  .(........Zayag.
08A0: 00 00 00 00 00 00 00 00  00 00 01 CC 08 02 01 00  ................
08B0: 29 80 80 CC 08 B4 00 02  00 5A 6F 6C 64 6F 66 00  )........Zoldof.
08C0: 00 00 00 00 00 00 00 00  00 01 CC 08 01 CF 08 02  ................
08D0: 02 00 21 80 01 DB 08 B5  00 02 00 1B 03 02 00 21  ..!............!
08E0: 80 1A F7 14 1A 01 15 02  0B 00 21 80 80 EA 09 02  ..........!.....
08F0: 01 00 21 80 80 0E 09 B4  00 02 00 46 65 6C 69 7A  ..!........Feliz
0900: 00 00 00 00 00 00 00 00  00 00 00 01 E7 09 02 01  ................
0910: 00 07 80 80 2D 09 B4 00  02 00 46 65 72 64 69 6E  ....-.....Ferdin
0920: 61 6E 64 00 00 00 00 00  00 00 01 E7 09 02 01 00  and.............
0930: 02 80 80 4C 09 B4 00 02  00 47 75 6E 6E 61 72 00  ...L.....Gunnar.
0940: 00 00 00 00 00 00 00 00  00 01 E7 09 02 01 00 25  ...............%
0950: 80 80 6B 09 B4 00 02 00  4D 61 73 73 69 6D 6F 00  ..k.....Massimo.
0960: 00 00 00 00 00 00 00 00  01 E7 09 02 01 00 26 80  ..............&.
0970: 80 8A 09 B4 00 02 00 4F  6C 64 72 69 63 68 00 00  .......Oldrich..
0980: 00 00 00 00 00 00 00 01  E7 09 02 01 00 27 80 80  .............'..
0990: A9 09 B4 00 02 00 53 69  65 67 77 61 72 64 00 00  ......Siegward..
09A0: 00 00 00 00 00 00 01 E7  09 02 01 00 28 80 80 C8  ............(...
09B0: 09 B4 00 02 00 54 68 65  6F 62 61 6C 64 00 00 00  .....Theobald...
09C0: 00 00 00 00 00 01 E7 09  02 01 00 29 80 80 E7 09  ...........)....
09D0: B4 00 02 00 5A 65 6E 6A  69 00 00 00 00 00 00 00  ....Zenji.......
09E0: 00 00 00 00 01 E7 09 01  FF 10 02 0B 00 07 80 80  ................
09F0: ED 0A 02 01 00 21 80 80  11 0A B4 00 02 00 41 6D  .....!........Am
0A00: 65 72 69 74 61 00 00 00  00 00 00 00 00 00 01 EA  erita...........
0A10: 0A 02 01 00 07 80 80 30  0A B4 00 02 00 42 65 61  .......0.....Bea
0A20: 74 72 69 63 65 00 00 00  00 00 00 00 00 01 EA 0A  trice...........
0A30: 02 01 00 02 80 80 4F 0A  B4 00 02 00 48 65 6E 72  ......O.....Henr
0A40: 69 65 74 74 61 00 00 00  00 00 00 00 01 EA 0A 02  ietta...........
0A50: 01 00 25 80 80 6E 0A B4  00 02 00 4A 65 73 69 6D  ..%..n.....Jesim
0A60: 61 65 00 00 00 00 00 00  00 00 00 01 EA 0A 02 01  ae..............
0A70: 00 26 80 80 8D 0A B4 00  02 00 4B 61 72 79 6E 00  .&........Karyn.
0A80: 00 00 00 00 00 00 00 00  00 00 01 EA 0A 02 01 00  ................
0A90: 27 80 80 AC 0A B4 00 02  00 4E 61 6E 61 6B 6F 00  '........Nanako.
0AA0: 00 00 00 00 00 00 00 00  00 01 EA 0A 02 01 00 28  ...............(
0AB0: 80 80 CB 0A B4 00 02 00  53 68 61 72 6C 65 6E 65  ........Sharlene
0AC0: 00 00 00 00 00 00 00 00  01 EA 0A 02 01 00 29 80  ..............).
0AD0: 80 EA 0A B4 00 02 00 53  69 65 67 68 69 6C 64 65  .......Sieghilde
0AE0: 00 00 00 00 00 00 00 01  EA 0A 01 FF 10 02 0B 00  ................
0AF0: 02 80 80 F0 0B 02 01 00  21 80 80 14 0B B4 00 02  ........!.......
0B00: 00 43 68 61 6E 61 6E 64  69 74 00 00 00 00 00 00  .Chanandit......
0B10: 00 01 ED 0B 02 01 00 07  80 80 33 0B B4 00 02 00  ..........3.....
0B20: 44 65 75 6C 6D 61 65 75  78 00 00 00 00 00 00 00  Deulmaeux.......
0B30: 01 ED 0B 02 01 00 02 80  80 52 0B B4 00 02 00 44  .........R.....D
0B40: 65 6D 72 65 73 69 6E 61  75 78 00 00 00 00 00 01  emresinaux......
0B50: ED 0B 02 01 00 25 80 80  71 0B B4 00 02 00 45 70  .....%..q.....Ep
0B60: 68 65 61 6C 67 61 75 78  00 00 00 00 00 00 01 ED  healgaux........
0B70: 0B 02 01 00 26 80 80 90  0B B4 00 02 00 47 61 75  ....&........Gau
0B80: 6C 64 65 76 61 6C 00 00  00 00 00 00 00 01 ED 0B  ldeval..........
0B90: 02 01 00 27 80 80 AF 0B  B4 00 02 00 47 72 61 75  ...'........Grau
0BA0: 66 66 65 6D 61 72 74 00  00 00 00 00 01 ED 0B 02  ffemart.........
0BB0: 01 00 28 80 80 CE 0B B4  00 02 00 4D 69 67 61 69  ..(........Migai
0BC0: 66 6F 6E 67 75 74 00 00  00 00 00 01 ED 0B 02 01  fongut..........
0BD0: 00 29 80 80 ED 0B B4 00  02 00 52 6F 6D 69 64 69  .)........Romidi
0BE0: 61 6E 74 00 00 00 00 00  00 00 01 ED 0B 01 FF 10  ant.............
0BF0: 02 0B 00 25 80 80 F3 0C  02 01 00 21 80 80 17 0C  ...%.......!....
0C00: B4 00 02 00 41 72 6D 69  74 74 69 65 00 00 00 00  ....Armittie....
0C10: 00 00 00 00 01 F0 0C 02  01 00 07 80 80 36 0C B4  .............6..
0C20: 00 02 00 43 61 64 65 70  75 72 65 00 00 00 00 00  ...Cadepure.....
0C30: 00 00 00 01 F0 0C 02 01  00 02 80 80 55 0C B4 00  ............U...
0C40: 02 00 43 6C 65 61 72 69  74 65 00 00 00 00 00 00  ..Clearite......
0C50: 00 00 01 F0 0C 02 01 00  25 80 80 74 0C B4 00 02  ........%..t....
0C60: 00 45 70 69 6C 6C 65 76  65 00 00 00 00 00 00 00  .Epilleve.......
0C70: 00 01 F0 0C 02 01 00 26  80 80 93 0C B4 00 02 00  .......&........
0C80: 4C 69 61 62 65 6C 6C 65  00 00 00 00 00 00 00 00  Liabelle........
0C90: 01 F0 0C 02 01 00 27 80  80 B2 0C B4 00 02 00 4E  ......'........N
0CA0: 61 75 74 68 69 6D 61 00  00 00 00 00 00 00 00 01  authima.........
0CB0: F0 0C 02 01 00 28 80 80  D1 0C B4 00 02 00 52 61  .....(........Ra
0CC0: 64 69 6C 6C 65 00 00 00  00 00 00 00 00 00 01 F0  dille...........
0CD0: 0C 02 01 00 29 80 80 F0  0C B4 00 02 00 56 69 6D  ....)........Vim
0CE0: 65 63 68 75 65 00 00 00  00 00 00 00 00 01 F0 0C  echue...........
0CF0: 01 FF 10 02 0B 00 26 80  80 F6 0D 02 01 00 21 80  ......&.......!.
0D00: 80 1A 0D B4 00 02 00 42  61 6C 75 2D 46 61 6C 75  .......Balu-Falu
0D10: 00 00 00 00 00 00 00 01  F3 0D 02 01 00 07 80 80  ................
0D20: 39 0D B4 00 02 00 42 75  72 67 2D 4C 61 64 61 72  9.....Burg-Ladar
0D30: 67 00 00 00 00 00 01 F3  0D 02 01 00 02 80 80 58  g..............X
0D40: 0D B4 00 02 00 45 68 67  6F 2D 52 79 75 68 67 6F  .....Ehgo-Ryuhgo
0D50: 00 00 00 00 00 01 F3 0D  02 01 00 25 80 80 77 0D  ...........%..w.
0D60: B4 00 02 00 4B 6F 6C 75  69 2D 50 65 6C 75 69 00  ....Kolui-Pelui.
0D70: 00 00 00 00 01 F3 0D 02  01 00 26 80 80 96 0D B4  ..........&.....
0D80: 00 02 00 4E 6F 6B 75 6D  2D 41 6B 6B 75 6D 00 00  ...Nokum-Akkum..
0D90: 00 00 00 01 F3 0D 02 01  00 27 80 80 B5 0D B4 00  .........'......
0DA0: 02 00 53 61 76 75 6C 2D  4B 69 76 75 6C 00 00 00  ..Savul-Kivul...
0DB0: 00 00 01 F3 0D 02 01 00  28 80 80 D4 0D B4 00 02  ........(.......
0DC0: 00 56 69 6E 6A 61 2D 4B  61 6E 6A 61 00 00 00 00  .Vinja-Kanja....
0DD0: 00 01 F3 0D 02 01 00 29  80 80 F3 0D B4 00 02 00  .......)........
0DE0: 59 61 72 67 61 2D 55 6D  69 67 61 00 00 00 00 00  Yarga-Umiga.....
0DF0: 01 F3 0D 01 FF 10 02 0B  00 27 80 80 F9 0E 02 01  .........'......
0E00: 00 21 80 80 1D 0E B4 00  02 00 43 75 70 61 70 61  .!........Cupapa
0E10: 00 00 00 00 00 00 00 00  00 00 01 F6 0E 02 01 00  ................
0E20: 07 80 80 3C 0E B4 00 02  00 4A 61 6A 75 6A 75 00  ...<.....Jajuju.
0E30: 00 00 00 00 00 00 00 00  00 01 F6 0E 02 01 00 02  ................
0E40: 80 80 5B 0E B4 00 02 00  4B 61 6C 6F 6B 6F 6B 6F  ..[.....Kalokoko
0E50: 00 00 00 00 00 00 00 00  01 F6 0E 02 01 00 25 80  ..............%.
0E60: 80 7A 0E B4 00 02 00 4D  61 68 6F 79 61 79 61 00  .z.....Mahoyaya.
0E70: 00 00 00 00 00 00 00 01  F6 0E 02 01 00 26 80 80  .............&..
0E80: 99 0E B4 00 02 00 50 61  6B 75 72 61 72 61 00 00  ......Pakurara..
0E90: 00 00 00 00 00 00 01 F6  0E 02 01 00 27 80 80 B8  ............'...
0EA0: 0E B4 00 02 00 52 69 70  6F 6B 65 6B 65 00 00 00  .....Ripokeke...
0EB0: 00 00 00 00 00 01 F6 0E  02 01 00 28 80 80 D7 0E  ...........(....
0EC0: B4 00 02 00 59 61 77 61  77 61 00 00 00 00 00 00  ....Yawawa......
0ED0: 00 00 00 00 01 F6 0E 02  01 00 29 80 80 F6 0E B4  ..........).....
0EE0: 00 02 00 59 75 66 61 66  61 00 00 00 00 00 00 00  ...Yufafa.......
0EF0: 00 00 00 01 F6 0E 01 FF  10 02 0B 00 28 80 80 FC  ............(...
0F00: 0F 02 01 00 21 80 80 20  0F B4 00 02 00 46 68 69  ....!.. .....Fhi
0F10: 67 00 00 00 00 00 00 00  00 00 00 00 00 01 F9 0F  g...............
0F20: 02 01 00 07 80 80 3F 0F  B4 00 02 00 4B 68 75 6D  ......?.....Khum
0F30: 61 00 00 00 00 00 00 00  00 00 00 00 01 F9 0F 02  a...............
0F40: 01 00 02 80 80 5E 0F B4  00 02 00 50 69 6D 79 00  .....^.....Pimy.
0F50: 00 00 00 00 00 00 00 00  00 00 00 01 F9 0F 02 01  ................
0F60: 00 25 80 80 7D 0F B4 00  02 00 52 61 6B 61 00 00  .%..}.....Raka..
0F70: 00 00 00 00 00 00 00 00  00 00 01 F9 0F 02 01 00  ................
0F80: 26 80 80 9C 0F B4 00 02  00 53 61 68 79 75 00 00  &........Sahyu..
0F90: 00 00 00 00 00 00 00 00  00 01 F9 0F 02 01 00 27  ...............'
0FA0: 80 80 BB 0F B4 00 02 00  53 75 66 68 69 00 00 00  ........Sufhi...
0FB0: 00 00 00 00 00 00 00 00  01 F9 0F 02 01 00 28 80  ..............(.
0FC0: 80 DA 0F B4 00 02 00 54  73 75 69 6D 00 00 00 00  .......Tsuim....
0FD0: 00 00 00 00 00 00 00 01  F9 0F 02 01 00 29 80 80  .............)..
0FE0: F9 0F B4 00 02 00 59 6F  6C 69 00 00 00 00 00 00  ......Yoli......
0FF0: 00 00 00 00 00 00 01 F9  0F 01 FF 10 02 0B 00 29  ...............)
1000: 80 80 FF 10 02 01 00 21  80 80 23 10 B4 00 02 00  .......!..#.....
1010: 44 75 72 69 62 00 00 00  00 00 00 00 00 00 00 00  Durib...........
1020: 01 FC 10 02 01 00 07 80  80 42 10 B4 00 02 00 44  .........B.....D
1030: 7A 61 70 69 77 61 00 00  00 00 00 00 00 00 00 01  zapiwa..........
1040: FC 10 02 01 00 02 80 80  61 10 B4 00 02 00 4A 75  ........a.....Ju
1050: 67 6F 77 61 00 00 00 00  00 00 00 00 00 00 01 FC  gowa............
1060: 10 02 01 00 25 80 80 80  10 B4 00 02 00 4D 75 67  ....%........Mug
1070: 69 64 6F 00 00 00 00 00  00 00 00 00 00 01 FC 10  ido.............
1080: 02 01 00 26 80 80 9F 10  B4 00 02 00 56 6F 6C 64  ...&........Vold
1090: 61 69 00 00 00 00 00 00  00 00 00 00 01 FC 10 02  ai..............
10A0: 01 00 27 80 80 BE 10 B4  00 02 00 57 61 67 77 65  ..'........Wagwe
10B0: 69 00 00 00 00 00 00 00  00 00 00 01 FC 10 02 01  i...............
10C0: 00 28 80 80 DD 10 B4 00  02 00 5A 61 79 61 67 00  .(........Zayag.
10D0: 00 00 00 00 00 00 00 00  00 00 01 FC 10 02 01 00  ................
10E0: 29 80 80 FC 10 B4 00 02  00 5A 6F 6C 64 6F 66 00  )........Zoldof.
10F0: 00 00 00 00 00 00 00 00  00 01 FC 10 01 FF 10 02  ................
1100: 02 00 21 80 01 0B 11 B5  00 02 00 1B 1A D2 14 02  ..!.............
1110: 09 00 21 80 02 D7 12 02  0B 00 21 80 80 4F 11 02  ..!.......!..O..
1120: 09 00 07 80 80 2E 11 B6  0F 2A 80 01 4C 11 02 09  .........*..L...
1130: 00 02 80 80 3D 11 B6 0F  2B 80 01 4C 11 02 09 00  ....=...+..L....
1140: 25 80 80 4C 11 B6 0F 2C  80 01 4C 11 01 D7 12 02  %..L...,..L.....
1150: 0B 00 07 80 80 87 11 02  09 00 07 80 80 66 11 B6  .............f..
1160: 0F 2A 80 01 84 11 02 09  00 02 80 80 75 11 B6 0F  .*..........u...
1170: 2B 80 01 84 11 02 09 00  25 80 80 84 11 B6 0F 2C  +.......%......,
1180: 80 01 84 11 01 D7 12 02  0B 00 02 80 80 BF 11 02  ................
1190: 09 00 07 80 80 9E 11 B6  0F 2A 80 01 BC 11 02 09  .........*......
11A0: 00 02 80 80 AD 11 B6 0F  2B 80 01 BC 11 02 09 00  ........+.......
11B0: 25 80 80 BC 11 B6 0F 2C  80 01 BC 11 01 D7 12 02  %......,........
11C0: 0B 00 25 80 80 F7 11 02  09 00 07 80 80 D6 11 B6  ..%.............
11D0: 0F 2A 80 01 F4 11 02 09  00 02 80 80 E5 11 B6 0F  .*..............
11E0: 2B 80 01 F4 11 02 09 00  25 80 80 F4 11 B6 0F 2C  +.......%......,
11F0: 80 01 F4 11 01 D7 12 02  0B 00 26 80 80 2F 12 02  ..........&../..
1200: 09 00 07 80 80 0E 12 B6  0F 2D 80 01 2C 12 02 09  .........-..,...
1210: 00 02 80 80 1D 12 B6 0F  2E 80 01 2C 12 02 09 00  ...........,....
1220: 25 80 80 2C 12 B6 0F 2F  80 01 2C 12 01 D7 12 02  %..,.../..,.....
1230: 0B 00 27 80 80 67 12 02  09 00 07 80 80 46 12 B6  ..'..g.......F..
1240: 0F 2D 80 01 64 12 02 09  00 02 80 80 55 12 B6 0F  .-..d.......U...
1250: 2E 80 01 64 12 02 09 00  25 80 80 64 12 B6 0F 2F  ...d....%..d.../
1260: 80 01 64 12 01 D7 12 02  0B 00 28 80 80 9F 12 02  ..d.......(.....
1270: 09 00 07 80 80 7E 12 B6  0F 30 80 01 9C 12 02 09  .....~...0......
1280: 00 02 80 80 8D 12 B6 0F  31 80 01 9C 12 02 09 00  ........1.......
1290: 25 80 80 9C 12 B6 0F 32  80 01 9C 12 01 D7 12 02  %......2........
12A0: 0B 00 29 80 80 D7 12 02  09 00 07 80 80 B6 12 B6  ..).............
12B0: 0F 2F 80 01 D4 12 02 09  00 02 80 80 C5 12 B6 0F  ./..............
12C0: 33 80 01 D4 12 02 09 00  25 80 80 D4 12 B6 0F 2B  3.......%......+
12D0: 80 01 D4 12 01 D7 12 0B  0B 00 B6 0B 0B 00 0C 00  ................
12E0: 0D 00 0E 00 0F 00 10 00  11 00 21 80 21 80 1B 1A  ..........!.!...
12F0: D2 14 02 09 00 21 80 02  BA 14 02 0B 00 21 80 80  .....!.......!..
1300: 32 13 02 09 00 07 80 80  11 13 B6 0F 2A 80 01 2F  2...........*../
1310: 13 02 09 00 02 80 80 20  13 B6 0F 2B 80 01 2F 13  ....... ...+../.
1320: 02 09 00 25 80 80 2F 13  B6 0F 2C 80 01 2F 13 01  ...%../...,../..
1330: BA 14 02 0B 00 07 80 80  6A 13 02 09 00 07 80 80  ........j.......
1340: 49 13 B6 0F 2A 80 01 67  13 02 09 00 02 80 80 58  I...*..g.......X
1350: 13 B6 0F 2B 80 01 67 13  02 09 00 25 80 80 67 13  ...+..g....%..g.
1360: B6 0F 2C 80 01 67 13 01  BA 14 02 0B 00 02 80 80  ..,..g..........
1370: A2 13 02 09 00 07 80 80  81 13 B6 0F 2A 80 01 9F  ............*...
1380: 13 02 09 00 02 80 80 90  13 B6 0F 2B 80 01 9F 13  ...........+....
1390: 02 09 00 25 80 80 9F 13  B6 0F 2C 80 01 9F 13 01  ...%......,.....
13A0: BA 14 02 0B 00 25 80 80  DA 13 02 09 00 07 80 80  .....%..........
13B0: B9 13 B6 0F 2A 80 01 D7  13 02 09 00 02 80 80 C8  ....*...........
13C0: 13 B6 0F 2B 80 01 D7 13  02 09 00 25 80 80 D7 13  ...+.......%....
13D0: B6 0F 2C 80 01 D7 13 01  BA 14 02 0B 00 26 80 80  ..,..........&..
13E0: 12 14 02 09 00 07 80 80  F1 13 B6 0F 2D 80 01 0F  ............-...
13F0: 14 02 09 00 02 80 80 00  14 B6 0F 2E 80 01 0F 14  ................
1400: 02 09 00 25 80 80 0F 14  B6 0F 2F 80 01 0F 14 01  ...%....../.....
1410: BA 14 02 0B 00 27 80 80  4A 14 02 09 00 07 80 80  .....'..J.......
1420: 29 14 B6 0F 2D 80 01 47  14 02 09 00 02 80 80 38  )...-..G.......8
1430: 14 B6 0F 2E 80 01 47 14  02 09 00 25 80 80 47 14  ......G....%..G.
1440: B6 0F 2F 80 01 47 14 01  BA 14 02 0B 00 28 80 80  ../..G.......(..
1450: 82 14 02 09 00 07 80 80  61 14 B6 0F 30 80 01 7F  ........a...0...
1460: 14 02 09 00 02 80 80 70  14 B6 0F 31 80 01 7F 14  .......p...1....
1470: 02 09 00 25 80 80 7F 14  B6 0F 32 80 01 7F 14 01  ...%......2.....
1480: BA 14 02 0B 00 29 80 80  BA 14 02 09 00 07 80 80  .....)..........
1490: 99 14 B6 0F 2F 80 01 B7  14 02 09 00 02 80 80 A8  ..../...........
14A0: 14 B6 0F 33 80 01 B7 14  02 09 00 25 80 80 B7 14  ...3.......%....
14B0: B6 0F 2B 80 01 B7 14 01  BA 14 0B 0B 00 B6 0B 0B  ..+.............
14C0: 00 0C 00 0D 00 0E 00 0F  00 10 00 11 00 12 00 13  ................
14D0: 00 1B 1A 01 15 1A F6 15  1A EC 15 1A 4D 1A 1A 62  ............M..b
14E0: 1A 1A 82 1A 1A A2 1A 1A  C2 1A 1A EF 19 1A 0F 1A  ................
14F0: 1A E2 1A 1A 0A 1B 1B 41  21 80 25 80 09 10 01 00  .......A!.%.....
1500: 1B 41 26 80 28 80 09 10  0B 00 03 1E 17 21 80 02  .A&.(........!..
1510: 0B 00 21 80 80 1F 15 03  1F 17 21 80 01 8F 15 02  ..!.......!.....
1520: 0B 00 07 80 80 2F 15 03  1F 17 07 80 01 8F 15 02  ...../..........
1530: 0B 00 02 80 80 3F 15 03  1F 17 21 80 01 8F 15 02  .....?....!.....
1540: 0B 00 25 80 80 4F 15 03  1F 17 07 80 01 8F 15 02  ..%..O..........
1550: 0B 00 26 80 80 5F 15 03  1F 17 21 80 01 8F 15 02  ..&.._....!.....
1560: 0B 00 27 80 80 6F 15 03  1F 17 07 80 01 8F 15 02  ..'..o..........
1570: 0B 00 28 80 80 7F 15 03  1F 17 07 80 01 8F 15 02  ..(.............
1580: 0B 00 29 80 80 8F 15 03  1F 17 21 80 01 8F 15 02  ..).......!.....
1590: 1F 17 07 80 00 D7 15 02  87 7F 02 80 80 A7 15 03  ................
15A0: 1E 17 07 80 01 D7 15 02  87 7F 26 80 80 B7 15 03  ..........&.....
15B0: 1E 17 07 80 01 D7 15 02  87 7F 28 80 80 C7 15 03  ..........(.....
15C0: 1E 17 07 80 01 D7 15 02  87 7F 29 80 80 D7 15 03  ..........).....
15D0: 1E 17 07 80 01 D7 15 1B  41 34 80 35 80 09 10 06  ........A4.5....
15E0: 00 1B 41 36 80 04 80 09  10 08 00 1B 41 37 80 38  ..A6........A7.8
15F0: 80 09 10 09 00 1B 1A 01  15 1A D8 15 02 06 00 21  ...............!
1600: 80 00 10 16 41 39 80 3A  80 09 10 0C 00 01 50 19  ....A9.:......P.
1610: 02 0B 00 21 80 80 78 16  02 06 00 07 80 80 37 16  ...!..x.......7.
1620: 3E 09 10 29 80 2F 16 03  0C 00 04 80 01 34 16 03  >..)./.......4..
1630: 0C 00 3B 80 01 75 16 02  06 00 02 80 80 56 16 3E  ..;..u.......V.>
1640: 09 10 29 80 4E 16 03 0C  00 27 80 01 53 16 03 0C  ..).N....'..S...
1650: 00 26 80 01 75 16 02 06  00 25 80 80 75 16 3E 09  .&..u....%..u.>.
1660: 10 29 80 6D 16 03 0C 00  07 80 01 72 16 03 0C 00  .).m.......r....
1670: 21 80 01 75 16 01 50 19  02 0B 00 07 80 80 E0 16  !..u..P.........
1680: 02 06 00 07 80 80 9F 16  3E 09 10 29 80 97 16 03  ........>..)....
1690: 0C 00 07 80 01 9C 16 03  0C 00 21 80 01 DD 16 02  ..........!.....
16A0: 06 00 02 80 80 BE 16 3E  09 10 29 80 B6 16 03 0C  .......>..).....
16B0: 00 27 80 01 BB 16 03 0C  00 26 80 01 DD 16 02 06  .'.......&......
16C0: 00 25 80 80 DD 16 3E 09  10 29 80 D5 16 03 0C 00  .%....>..)......
16D0: 25 80 01 DA 16 03 0C 00  02 80 01 DD 16 01 50 19  %.............P.
16E0: 02 0B 00 02 80 80 48 17  02 06 00 07 80 80 07 17  ......H.........
16F0: 3E 09 10 29 80 FF 16 03  0C 00 25 80 01 04 17 03  >..)......%.....
1700: 0C 00 02 80 01 45 17 02  06 00 02 80 80 26 17 3E  .....E.......&.>
1710: 09 10 29 80 1E 17 03 0C  00 3C 80 01 23 17 03 0C  ..)......<..#...
1720: 00 3D 80 01 45 17 02 06  00 25 80 80 45 17 3E 09  .=..E....%..E.>.
1730: 10 29 80 3D 17 03 0C 00  04 80 01 42 17 03 0C 00  .).=.......B....
1740: 3B 80 01 45 17 01 50 19  02 0B 00 25 80 80 B0 17  ;..E..P....%....
1750: 02 06 00 07 80 80 6F 17  3E 09 10 29 80 67 17 03  ......o.>..).g..
1760: 0C 00 07 80 01 6C 17 03  0C 00 21 80 01 AD 17 02  .....l....!.....
1770: 06 00 02 80 80 8E 17 3E  09 10 29 80 86 17 03 0C  .......>..).....
1780: 00 3E 80 01 8B 17 03 0C  00 36 80 01 AD 17 02 06  .>.......6......
1790: 00 25 80 80 AD 17 3E 09  10 29 80 A5 17 03 0C 00  .%....>..)......
17A0: 29 80 01 AA 17 03 0C 00  28 80 01 AD 17 01 50 19  ).......(.....P.
17B0: 02 0B 00 26 80 80 18 18  02 06 00 07 80 80 D7 17  ...&............
17C0: 3E 09 10 29 80 CF 17 03  0C 00 27 80 01 D4 17 03  >..)......'.....
17D0: 0C 00 26 80 01 15 18 02  06 00 02 80 80 F6 17 3E  ..&............>
17E0: 09 10 29 80 EE 17 03 0C  00 25 80 01 F3 17 03 0C  ..)......%......
17F0: 00 02 80 01 15 18 02 06  00 25 80 80 15 18 3E 09  .........%....>.
1800: 10 29 80 0D 18 03 0C 00  29 80 01 12 18 03 0C 00  .)......).......
1810: 28 80 01 15 18 01 50 19  02 0B 00 27 80 80 80 18  (.....P....'....
1820: 02 06 00 07 80 80 3F 18  3E 09 10 29 80 37 18 03  ......?.>..).7..
1830: 0C 00 25 80 01 3C 18 03  0C 00 02 80 01 7D 18 02  ..%..<.......}..
1840: 06 00 02 80 80 5E 18 3E  09 10 29 80 56 18 03 0C  .....^.>..).V...
1850: 00 29 80 01 5B 18 03 0C  00 28 80 01 7D 18 02 06  .)..[....(..}...
1860: 00 25 80 80 7D 18 3E 09  10 29 80 75 18 03 0C 00  .%..}.>..).u....
1870: 07 80 01 7A 18 03 0C 00  21 80 01 7D 18 01 50 19  ...z....!..}..P.
1880: 02 0B 00 28 80 80 E8 18  02 06 00 07 80 80 A7 18  ...(............
1890: 3E 09 10 29 80 9F 18 03  0C 00 35 80 01 A4 18 03  >..)......5.....
18A0: 0C 00 34 80 01 E5 18 02  06 00 02 80 80 C6 18 3E  ..4............>
18B0: 09 10 29 80 BE 18 03 0C  00 3E 80 01 C3 18 03 0C  ..)......>......
18C0: 00 36 80 01 E5 18 02 06  00 25 80 80 E5 18 3E 09  .6.......%....>.
18D0: 10 29 80 DD 18 03 0C 00  04 80 01 E2 18 03 0C 00  .)..............
18E0: 3B 80 01 E5 18 01 50 19  02 0B 00 29 80 80 50 19  ;.....P....)..P.
18F0: 02 06 00 07 80 80 0F 19  3E 09 10 29 80 07 19 03  ........>..)....
1900: 0C 00 27 80 01 0C 19 03  0C 00 26 80 01 4D 19 02  ..'.......&..M..
1910: 06 00 02 80 80 2E 19 3E  09 10 29 80 26 19 03 0C  .......>..).&...
1920: 00 04 80 01 2B 19 03 0C  00 3B 80 01 4D 19 02 06  ....+....;..M...
1930: 00 25 80 80 4D 19 3E 09  10 29 80 45 19 03 0C 00  .%..M.>..).E....
1940: 3E 80 01 4A 19 03 0C 00  36 80 01 4D 19 01 50 19  >..J....6..M..P.
1950: 1B 40 3F 80 40 80 01 10  07 80 43 00 43 01 1B 40  .@?.@.....C.C..@
1960: 3F 80 40 80 01 10 02 80  43 00 43 01 1B 40 3F 80  ?.@.....C.C..@?.
1970: 40 80 01 10 25 80 43 00  43 01 1B 40 3F 80 40 80  @...%.C.C..@?.@.
1980: 01 10 26 80 43 00 43 01  1B 40 3F 80 40 80 01 10  ..&.C.C..@?.@...
1990: 27 80 43 00 43 01 1B 40  3F 80 40 80 01 10 28 80  '.C.C..@?.@...(.
19A0: 43 00 43 01 1B 40 3F 80  40 80 01 10 29 80 43 00  C.C..@?.@...).C.
19B0: 43 01 1B 40 3F 80 40 80  01 10 34 80 43 00 43 01  C..@?.@...4.C.C.
19C0: 1B 40 3F 80 40 80 01 10  36 80 43 00 43 01 1B 1A  .@?.@...6.C.C...
19D0: 01 15 03 0A 00 0B 00 02  0A 00 27 80 04 E4 19 08  ..........'.....
19E0: 0A 00 07 80 14 0A 00 36  80 07 0A 00 35 80 1B 03  .......6....5...
19F0: 16 00 21 80 03 17 00 21  80 41 39 80 3A 80 08 10  ..!....!.A9.:...
1A00: 16 00 41 21 80 25 80 07  10 17 00 1A 95 40 1B 03  ..A!.%.......@..
1A10: 16 00 21 80 41 3F 80 41  80 08 10 16 00 3E 07 10  ..!.A?.A.....>..
1A20: 39 80 33 1A 41 21 80 25  80 07 10 17 00 1A 7D 46  9.3.A!.%......}F
1A30: 01 4C 1A 41 21 80 25 80  07 10 17 00 02 17 00 21  .L.A!.%........!
1A40: 80 80 47 1A 01 4C 1A 03  13 00 21 80 1B 03 16 00  ..G..L....!.....
1A50: 21 80 41 21 80 25 80 08  10 16 00 1A E2 15 1A DC  !.A!.%..........
1A60: 2B 1B 03 15 00 21 80 03  16 00 21 80 41 28 80 29  +....!....!.A(.)
1A70: 80 07 10 15 00 41 26 80  29 80 08 10 16 00 1A E1  .....A&.).......
1A80: 33 1B 03 15 00 21 80 03  16 00 21 80 41 34 80 35  3....!....!.A4.5
1A90: 80 07 10 15 00 41 34 80  3E 80 08 10 16 00 1A 0E  .....A4.>.......
1AA0: 37 1B 03 15 00 21 80 03  16 00 21 80 41 36 80 3E  7....!....!.A6.>
1AB0: 80 07 10 15 00 41 3B 80  3C 80 08 10 16 00 1A 3B  .....A;.<......;
1AC0: 3A 1B 03 15 00 21 80 03  16 00 21 80 41 3B 80 04  :....!....!.A;..
1AD0: 80 07 10 15 00 41 42 80  38 80 08 10 16 00 1A 68  .....AB.8......h
1AE0: 3D 1B 41 21 80 25 80 06  10 14 00 1A 01 15 1A 59  =.A!.%.........Y
1AF0: 47 41 26 80 29 80 06 10  14 00 1A 5C 48 41 34 80  GA&.)......\HA4.
1B00: 3E 80 06 10 14 00 1A A6  48 1B 41 43 80 3F 80 07  >.......H.AC.?..
1B10: 10 00 00 02 00 00 07 80  80 23 1B 03 12 00 44 80  .........#....D.
1B20: 01 6C 1C 02 00 00 02 80  80 33 1B 03 12 00 45 80  .l.......3....E.
1B30: 01 6C 1C 02 00 00 25 80  80 43 1B 03 12 00 46 80  .l....%..C....F.
1B40: 01 6C 1C 02 00 00 26 80  80 53 1B 03 12 00 47 80  .l....&..S....G.
1B50: 01 6C 1C 02 00 00 27 80  80 63 1B 03 12 00 48 80  .l....'..c....H.
1B60: 01 6C 1C 02 00 00 28 80  80 73 1B 03 12 00 49 80  .l....(..s....I.
1B70: 01 6C 1C 02 00 00 29 80  80 6C 1C 41 21 80 29 80  .l....)..l.A!.).
1B80: 03 10 00 00 02 00 00 21  80 80 94 1B 03 12 00 44  .......!.......D
1B90: 80 01 69 1C 02 00 00 07  80 80 A4 1B 03 12 00 4A  ..i............J
1BA0: 80 01 69 1C 02 00 00 02  80 80 B4 1B 03 12 00 4B  ..i............K
1BB0: 80 01 69 1C 02 00 00 25  80 80 C4 1B 03 12 00 4C  ..i....%.......L
1BC0: 80 01 69 1C 02 00 00 26  80 80 D4 1B 03 12 00 4D  ..i....&.......M
1BD0: 80 01 69 1C 02 00 00 27  80 80 E4 1B 03 12 00 4E  ..i....'.......N
1BE0: 80 01 69 1C 02 00 00 28  80 80 F4 1B 03 12 00 4F  ..i....(.......O
1BF0: 80 01 69 1C 02 00 00 29  80 80 09 1C 03 12 00 50  ..i....).......P
1C00: 80 03 13 00 50 80 01 69  1C 02 00 00 34 80 80 19  ....P..i....4...
1C10: 1C 03 12 00 51 80 01 69  1C 02 00 00 35 80 80 29  ....Q..i....5..)
1C20: 1C 03 12 00 52 80 01 69  1C 02 00 00 36 80 80 39  ....R..i....6..9
1C30: 1C 03 12 00 53 80 01 69  1C 02 00 00 3E 80 80 49  ....S..i....>..I
1C40: 1C 03 12 00 54 80 01 69  1C 02 00 00 3B 80 80 59  ....T..i....;..Y
1C50: 1C 03 12 00 55 80 01 69  1C 02 00 00 04 80 80 69  ....U..i.......i
1C60: 1C 03 12 00 56 80 01 69  1C 01 6C 1C 3E 03 10 34  ....V..i..l.>..4
1C70: 80 FC 1C 41 35 80 3C 80  03 10 00 00 02 00 00 21  ...A5.<........!
1C80: 80 80 8C 1C 03 13 00 57  80 01 FC 1C 02 00 00 07  .......W........
1C90: 80 80 9C 1C 03 13 00 58  80 01 FC 1C 02 00 00 02  .......X........
1CA0: 80 80 AC 1C 03 13 00 59  80 01 FC 1C 02 00 00 25  .......Y.......%
1CB0: 80 80 BC 1C 03 13 00 5A  80 01 FC 1C 02 00 00 26  .......Z.......&
1CC0: 80 80 CC 1C 03 13 00 5B  80 01 FC 1C 02 00 00 27  .......[.......'
1CD0: 80 80 DC 1C 03 13 00 5C  80 01 FC 1C 02 00 00 28  .......\.......(
1CE0: 80 80 EC 1C 03 13 00 5D  80 01 FC 1C 02 00 00 29  .......].......)
1CF0: 80 80 FC 1C 03 13 00 5E  80 01 FC 1C 41 5F 80 41  .......^....A_.A
1D00: 80 07 10 00 00 02 00 00  07 80 80 15 1D 03 0D 00  ................
1D10: 60 80 01 C4 1E 02 00 00  02 80 80 25 1D 03 0D 00  `..........%....
1D20: 61 80 01 C4 1E 02 00 00  25 80 80 35 1D 03 0D 00  a.......%..5....
1D30: 62 80 01 C4 1E 02 00 00  26 80 80 45 1D 03 0D 00  b.......&..E....
1D40: 63 80 01 C4 1E 02 00 00  27 80 80 55 1D 03 0D 00  c.......'..U....
1D50: 64 80 01 C4 1E 02 00 00  28 80 80 65 1D 03 0D 00  d.......(..e....
1D60: 65 80 01 C4 1E 02 00 00  29 80 80 C4 1E 41 42 80  e.......)....AB.
1D70: 3A 80 03 10 00 00 02 00  00 21 80 80 01 1E 02 0B  :........!......
1D80: 00 21 80 80 8E 1D 03 0D  00 66 80 01 FE 1D 02 0B  .!.......f......
1D90: 00 07 80 80 9E 1D 03 0D  00 48 80 01 FE 1D 02 0B  .........H......
1DA0: 00 02 80 80 AE 1D 03 0D  00 66 80 01 FE 1D 02 0B  .........f......
1DB0: 00 25 80 80 BE 1D 03 0D  00 48 80 01 FE 1D 02 0B  .%.......H......
1DC0: 00 26 80 80 CE 1D 03 0D  00 66 80 01 FE 1D 02 0B  .&.......f......
1DD0: 00 27 80 80 DE 1D 03 0D  00 48 80 01 FE 1D 02 0B  .'.......H......
1DE0: 00 28 80 80 EE 1D 03 0D  00 48 80 01 FE 1D 02 0B  .(.......H......
1DF0: 00 29 80 80 FE 1D 03 0D  00 66 80 01 FE 1D 01 C1  .).......f......
1E00: 1E 02 00 00 07 80 80 11  1E 03 0D 00 67 80 01 C1  ............g...
1E10: 1E 02 00 00 02 80 80 21  1E 03 0D 00 68 80 01 C1  .......!....h...
1E20: 1E 02 00 00 25 80 80 31  1E 03 0D 00 46 80 01 C1  ....%..1....F...
1E30: 1E 02 00 00 26 80 80 41  1E 03 0D 00 47 80 01 C1  ....&..A....G...
1E40: 1E 02 00 00 27 80 80 51  1E 03 0D 00 69 80 01 C1  ....'..Q....i...
1E50: 1E 02 00 00 28 80 80 61  1E 03 0D 00 65 80 01 C1  ....(..a....e...
1E60: 1E 02 00 00 29 80 80 71  1E 03 0D 00 65 80 01 C1  ....)..q....e...
1E70: 1E 02 00 00 34 80 80 81  1E 03 0D 00 6A 80 01 C1  ....4.......j...
1E80: 1E 02 00 00 35 80 80 91  1E 03 0D 00 6B 80 01 C1  ....5.......k...
1E90: 1E 02 00 00 36 80 80 A1  1E 03 0D 00 6C 80 01 C1  ....6.......l...
1EA0: 1E 02 00 00 3E 80 80 B1  1E 03 0D 00 6D 80 01 C1  ....>.......m...
1EB0: 1E 02 00 00 3B 80 80 C1  1E 03 0D 00 6E 80 01 C1  ....;.......n...
1EC0: 1E 01 C4 1E 41 6F 80 40  80 07 10 00 00 02 00 00  ....Ao.@........
1ED0: 35 80 80 EC 1E 03 0E 00  70 80 03 0F 00 70 80 03  5.......p....p..
1EE0: 10 00 70 80 03 11 00 70  80 01 DB 2B 02 00 00 36  ..p....p...+...6
1EF0: 80 80 EF 1F 02 0B 00 21  80 80 13 1F 03 0E 00 71  .......!.......q
1F00: 80 03 0F 00 71 80 03 10  00 71 80 03 11 00 71 80  ....q....q....q.
1F10: 01 EC 1F 02 0B 00 07 80  80 32 1F 03 0E 00 72 80  .........2....r.
1F20: 03 0F 00 72 80 03 10 00  72 80 03 11 00 72 80 01  ...r....r....r..
1F30: EC 1F 02 0B 00 02 80 80  51 1F 03 0E 00 71 80 03  ........Q....q..
1F40: 0F 00 71 80 03 10 00 71  80 03 11 00 71 80 01 EC  ..q....q....q...
1F50: 1F 02 0B 00 25 80 80 70  1F 03 0E 00 72 80 03 0F  ....%..p....r...
1F60: 00 72 80 03 10 00 72 80  03 11 00 72 80 01 EC 1F  .r....r....r....
1F70: 02 0B 00 26 80 80 8F 1F  03 0E 00 71 80 03 0F 00  ...&.......q....
1F80: 71 80 03 10 00 71 80 03  11 00 71 80 01 EC 1F 02  q....q....q.....
1F90: 0B 00 27 80 80 AE 1F 03  0E 00 72 80 03 0F 00 72  ..'.......r....r
1FA0: 80 03 10 00 72 80 03 11  00 72 80 01 EC 1F 02 0B  ....r....r......
1FB0: 00 28 80 80 CD 1F 03 0E  00 72 80 03 0F 00 72 80  .(.......r....r.
1FC0: 03 10 00 72 80 03 11 00  72 80 01 EC 1F 02 0B 00  ...r....r.......
1FD0: 29 80 80 EC 1F 03 0E 00  71 80 03 0F 00 71 80 03  ).......q....q..
1FE0: 10 00 71 80 03 11 00 71  80 01 EC 1F 01 DB 2B 02  ..q....q......+.
1FF0: 00 00 3E 80 80 F2 20 02  0B 00 21 80 80 16 20 03  ..>... ...!... .
2000: 0E 00 66 80 03 0F 00 66  80 03 10 00 66 80 03 11  ..f....f....f...
2010: 00 66 80 01 EF 20 02 0B  00 07 80 80 35 20 03 0E  .f... ......5 ..
2020: 00 48 80 03 0F 00 48 80  03 10 00 48 80 03 11 00  .H....H....H....
2030: 48 80 01 EF 20 02 0B 00  02 80 80 54 20 03 0E 00  H... ......T ...
2040: 66 80 03 0F 00 66 80 03  10 00 66 80 03 11 00 66  f....f....f....f
2050: 80 01 EF 20 02 0B 00 25  80 80 73 20 03 0E 00 48  ... ...%..s ...H
2060: 80 03 0F 00 48 80 03 10  00 48 80 03 11 00 48 80  ....H....H....H.
2070: 01 EF 20 02 0B 00 26 80  80 92 20 03 0E 00 66 80  .. ...&... ...f.
2080: 03 0F 00 66 80 03 10 00  66 80 03 11 00 66 80 01  ...f....f....f..
2090: EF 20 02 0B 00 27 80 80  B1 20 03 0E 00 48 80 03  . ...'... ...H..
20A0: 0F 00 48 80 03 10 00 48  80 03 11 00 48 80 01 EF  ..H....H....H...
20B0: 20 02 0B 00 28 80 80 D0  20 03 0E 00 48 80 03 0F   ...(... ...H...
20C0: 00 48 80 03 10 00 48 80  03 11 00 48 80 01 EF 20  .H....H....H... 
20D0: 02 0B 00 29 80 80 EF 20  03 0E 00 66 80 03 0F 00  ...)... ...f....
20E0: 66 80 03 10 00 66 80 03  11 00 66 80 01 EF 20 01  f....f....f... .
20F0: DB 2B 02 00 00 07 80 80  86 21 02 0B 00 21 80 80  .+.......!...!..
2100: 0A 21 03 0E 00 73 80 01  7A 21 02 0B 00 07 80 80  .!...s..z!......
2110: 1A 21 03 0E 00 74 80 01  7A 21 02 0B 00 02 80 80  .!...t..z!......
2120: 2A 21 03 0E 00 73 80 01  7A 21 02 0B 00 25 80 80  *!...s..z!...%..
2130: 3A 21 03 0E 00 74 80 01  7A 21 02 0B 00 26 80 80  :!...t..z!...&..
2140: 4A 21 03 0E 00 73 80 01  7A 21 02 0B 00 27 80 80  J!...s..z!...'..
2150: 5A 21 03 0E 00 74 80 01  7A 21 02 0B 00 28 80 80  Z!...t..z!...(..
2160: 6A 21 03 0E 00 74 80 01  7A 21 02 0B 00 29 80 80  j!...t..z!...)..
2170: 7A 21 03 0E 00 73 80 01  7A 21 1A 82 1A 1A A2 1A  z!...s..z!......
2180: 1A C2 1A 01 DB 2B 02 00  00 02 80 80 1A 22 02 0B  .....+......."..
2190: 00 21 80 80 9E 21 03 0E  00 75 80 01 0E 22 02 0B  .!...!...u..."..
21A0: 00 07 80 80 AE 21 03 0E  00 76 80 01 0E 22 02 0B  .....!...v..."..
21B0: 00 02 80 80 BE 21 03 0E  00 75 80 01 0E 22 02 0B  .....!...u..."..
21C0: 00 25 80 80 CE 21 03 0E  00 76 80 01 0E 22 02 0B  .%...!...v..."..
21D0: 00 26 80 80 DE 21 03 0E  00 75 80 01 0E 22 02 0B  .&...!...u..."..
21E0: 00 27 80 80 EE 21 03 0E  00 76 80 01 0E 22 02 0B  .'...!...v..."..
21F0: 00 28 80 80 FE 21 03 0E  00 76 80 01 0E 22 02 0B  .(...!...v..."..
2200: 00 29 80 80 0E 22 03 0E  00 75 80 01 0E 22 1A 82  .)..."...u..."..
2210: 1A 1A A2 1A 1A C2 1A 01  DB 2B 02 00 00 29 80 80  .........+...)..
2220: AE 22 02 0B 00 21 80 80  32 22 03 0E 00 77 80 01  ."...!..2"...w..
2230: A2 22 02 0B 00 07 80 80  42 22 03 0E 00 78 80 01  ."......B"...x..
2240: A2 22 02 0B 00 02 80 80  52 22 03 0E 00 77 80 01  ."......R"...w..
2250: A2 22 02 0B 00 25 80 80  62 22 03 0E 00 78 80 01  ."...%..b"...x..
2260: A2 22 02 0B 00 26 80 80  72 22 03 0E 00 77 80 01  ."...&..r"...w..
2270: A2 22 02 0B 00 27 80 80  82 22 03 0E 00 78 80 01  ."...'..."...x..
2280: A2 22 02 0B 00 28 80 80  92 22 03 0E 00 78 80 01  ."...(..."...x..
2290: A2 22 02 0B 00 29 80 80  A2 22 03 0E 00 77 80 01  ."...)..."...w..
22A0: A2 22 1A 82 1A 1A A2 1A  1A C2 1A 01 DB 2B 02 00  ."...........+..
22B0: 00 25 80 80 EC 22 02 0B  00 27 80 00 D5 22 03 0E  .%..."...'..."..
22C0: 00 79 80 03 0F 00 79 80  03 10 00 79 80 03 11 00  .y....y....y....
22D0: 79 80 01 E9 22 03 0E 00  7A 80 03 0F 00 7A 80 03  y..."...z....z..
22E0: 10 00 7A 80 03 11 00 7A  80 01 DB 2B 02 00 00 26  ..z....z...+...&
22F0: 80 80 2A 23 02 0B 00 27  80 00 13 23 03 0E 00 7B  ..*#...'...#...{
2300: 80 03 0F 00 7B 80 03 10  00 7B 80 03 11 00 7B 80  ....{....{....{.
2310: 01 27 23 03 0E 00 7C 80  03 0F 00 7C 80 03 10 00  .'#...|....|....
2320: 7C 80 03 11 00 7C 80 01  DB 2B 02 00 00 34 80 80  |....|...+...4..
2330: 68 23 02 0B 00 27 80 00  51 23 03 0E 00 7D 80 03  h#...'..Q#...}..
2340: 0F 00 7D 80 03 10 00 7D  80 03 11 00 7D 80 01 65  ..}....}....}..e
2350: 23 03 0E 00 7E 80 03 0F  00 7E 80 03 10 00 7E 80  #...~....~....~.
2360: 03 11 00 7E 80 01 DB 2B  02 00 00 3B 80 80 6B 24  ...~...+...;..k$
2370: 02 0B 00 21 80 80 8F 23  03 0E 00 68 80 03 0F 00  ...!...#...h....
2380: 68 80 03 10 00 68 80 03  11 00 68 80 01 68 24 02  h....h....h..h$.
2390: 0B 00 07 80 80 AE 23 03  0E 00 7F 80 03 0F 00 7F  ......#.........
23A0: 80 03 10 00 7F 80 03 11  00 7F 80 01 68 24 02 0B  ............h$..
23B0: 00 02 80 80 CD 23 03 0E  00 68 80 03 0F 00 68 80  .....#...h....h.
23C0: 03 10 00 68 80 03 11 00  68 80 01 68 24 02 0B 00  ...h....h..h$...
23D0: 25 80 80 EC 23 03 0E 00  7F 80 03 0F 00 7F 80 03  %...#...........
23E0: 10 00 7F 80 03 11 00 7F  80 01 68 24 02 0B 00 26  ..........h$...&
23F0: 80 80 0B 24 03 0E 00 68  80 03 0F 00 68 80 03 10  ...$...h....h...
2400: 00 68 80 03 11 00 68 80  01 68 24 02 0B 00 27 80  .h....h..h$...'.
2410: 80 2A 24 03 0E 00 7F 80  03 0F 00 7F 80 03 10 00  .*$.............
2420: 7F 80 03 11 00 7F 80 01  68 24 02 0B 00 28 80 80  ........h$...(..
2430: 49 24 03 0E 00 7F 80 03  0F 00 7F 80 03 10 00 7F  I$..............
2440: 80 03 11 00 7F 80 01 68  24 02 0B 00 29 80 80 68  .......h$...)..h
2450: 24 03 0E 00 68 80 03 0F  00 68 80 03 10 00 68 80  $...h....h....h.
2460: 03 11 00 68 80 01 68 24  01 DB 2B 02 00 00 27 80  ...h..h$..+...'.
2470: 80 89 24 03 0D 00 21 80  03 0E 00 80 80 1A 82 1A  ..$...!.........
2480: 1A A2 1A 1A C2 1A 01 DB  2B 02 00 00 28 80 80 23  ........+...(..#
2490: 25 03 0E 00 63 80 03 0F  00 65 80 03 11 00 63 80  %...c....e....c.
24A0: 02 0B 00 21 80 80 B0 24  03 10 00 75 80 01 20 25  ...!...$...u.. %
24B0: 02 0B 00 07 80 80 C0 24  03 10 00 76 80 01 20 25  .......$...v.. %
24C0: 02 0B 00 02 80 80 D0 24  03 10 00 75 80 01 20 25  .......$...u.. %
24D0: 02 0B 00 25 80 80 E0 24  03 10 00 76 80 01 20 25  ...%...$...v.. %
24E0: 02 0B 00 26 80 80 F0 24  03 10 00 75 80 01 20 25  ...&...$...u.. %
24F0: 02 0B 00 27 80 80 00 25  03 10 00 76 80 01 20 25  ...'...%...v.. %
2500: 02 0B 00 28 80 80 10 25  03 10 00 76 80 01 20 25  ...(...%...v.. %
2510: 02 0B 00 29 80 80 20 25  03 10 00 75 80 01 20 25  ...).. %...u.. %
2520: 01 DB 2B 02 00 00 04 80  80 41 25 03 0D 00 81 80  ..+......A%.....
2530: 03 0E 00 81 80 1A 82 1A  1A A2 1A 1A C2 1A 01 DB  ................
2540: 2B 02 00 00 3D 80 80 5F  25 03 0D 00 82 80 03 0E  +...=.._%.......
2550: 00 82 80 1A 82 1A 1A A2  1A 1A C2 1A 01 DB 2B 02  ..............+.
2560: 00 00 3C 80 80 DB 2B 41  3F 80 40 80 03 10 00 00  ..<...+A?.@.....
2570: 02 00 00 21 80 80 8E 25  03 0D 00 83 80 03 0E 00  ...!...%........
2580: 83 80 1A 82 1A 1A A2 1A  1A C2 1A 01 D8 2B 02 00  .............+..
2590: 00 07 80 80 B2 25 03 0D  00 45 80 03 0E 00 84 80  .....%...E......
25A0: 03 0F 00 84 80 03 10 00  84 80 03 11 00 84 80 01  ................
25B0: D8 2B 02 00 00 02 80 80  D6 25 03 0D 00 85 80 03  .+.......%......
25C0: 0E 00 85 80 03 0F 00 85  80 03 10 00 85 80 03 11  ................
25D0: 00 85 80 01 D8 2B 02 00  00 28 80 80 FA 25 03 0D  .....+...(...%..
25E0: 00 86 80 03 0E 00 86 80  03 0F 00 86 80 03 10 00  ................
25F0: 86 80 03 11 00 86 80 01  D8 2B 02 00 00 29 80 80  .........+...)..
2600: FD 26 02 0B 00 21 80 80  21 26 03 0E 00 87 80 03  .&...!..!&......
2610: 0F 00 87 80 03 10 00 87  80 03 11 00 87 80 01 FA  ................
2620: 26 02 0B 00 07 80 80 40  26 03 0E 00 88 80 03 0F  &......@&.......
2630: 00 88 80 03 10 00 88 80  03 11 00 88 80 01 FA 26  ...............&
2640: 02 0B 00 02 80 80 5F 26  03 0E 00 87 80 03 0F 00  ......_&........
2650: 87 80 03 10 00 87 80 03  11 00 87 80 01 FA 26 02  ..............&.
2660: 0B 00 25 80 80 7E 26 03  0E 00 88 80 03 0F 00 88  ..%..~&.........
2670: 80 03 10 00 88 80 03 11  00 88 80 01 FA 26 02 0B  .............&..
2680: 00 26 80 80 9D 26 03 0E  00 87 80 03 0F 00 87 80  .&...&..........
2690: 03 10 00 87 80 03 11 00  87 80 01 FA 26 02 0B 00  ............&...
26A0: 27 80 80 BC 26 03 0E 00  88 80 03 0F 00 88 80 03  '...&...........
26B0: 10 00 88 80 03 11 00 88  80 01 FA 26 02 0B 00 28  ...........&...(
26C0: 80 80 DB 26 03 0E 00 88  80 03 0F 00 88 80 03 10  ...&............
26D0: 00 88 80 03 11 00 88 80  01 FA 26 02 0B 00 29 80  ..........&...).
26E0: 80 FA 26 03 0E 00 87 80  03 0F 00 87 80 03 10 00  ..&.............
26F0: 87 80 03 11 00 87 80 01  FA 26 01 D8 2B 02 00 00  .........&..+...
2700: 25 80 80 B6 27 02 0B 00  21 80 80 1A 27 03 0E 00  %...'...!...'...
2710: 46 80 03 10 00 46 80 01  AD 27 02 0B 00 07 80 80  F....F...'......
2720: 2F 27 03 0E 00 47 80 03  10 00 47 80 01 AD 27 02  /'...G....G...'.
2730: 0B 00 02 80 80 44 27 03  0E 00 46 80 03 10 00 46  .....D'...F....F
2740: 80 01 AD 27 02 0B 00 25  80 80 59 27 03 0E 00 47  ...'...%..Y'...G
2750: 80 03 10 00 47 80 01 AD  27 02 0B 00 26 80 80 6E  ....G...'...&..n
2760: 27 03 0E 00 46 80 03 10  00 46 80 01 AD 27 02 0B  '...F....F...'..
2770: 00 27 80 80 83 27 03 0E  00 47 80 03 10 00 47 80  .'...'...G....G.
2780: 01 AD 27 02 0B 00 28 80  80 98 27 03 0E 00 47 80  ..'...(...'...G.
2790: 03 10 00 47 80 01 AD 27  02 0B 00 29 80 80 AD 27  ...G...'...)...'
27A0: 03 0E 00 46 80 03 10 00  46 80 01 AD 27 1A 82 1A  ...F....F...'...
27B0: 1A C2 1A 01 D8 2B 02 00  00 26 80 80 DA 27 03 0D  .....+...&...'..
27C0: 00 89 80 03 0E 00 89 80  03 0F 00 89 80 03 10 00  ................
27D0: 89 80 03 11 00 89 80 01  D8 2B 02 00 00 27 80 80  .........+...'..
27E0: F3 27 03 0E 00 8A 80 1A  82 1A 1A A2 1A 1A C2 1A  .'..............
27F0: 01 D8 2B 02 00 00 34 80  80 1E 29 02 0B 00 21 80  ..+...4...)...!.
2800: 80 1F 28 03 0D 00 8B 80  03 0E 00 8B 80 03 0F 00  ..(.............
2810: 8B 80 03 10 00 8B 80 03  11 00 8B 80 01 1B 29 02  ..............).
2820: 0B 00 07 80 80 43 28 03  0D 00 8C 80 03 0E 00 8C  .....C(.........
2830: 80 03 0F 00 8C 80 03 10  00 8C 80 03 11 00 8C 80  ................
2840: 01 1B 29 02 0B 00 02 80  80 67 28 03 0D 00 8B 80  ..)......g(.....
2850: 03 0E 00 8B 80 03 0F 00  8B 80 03 10 00 8B 80 03  ................
2860: 11 00 8B 80 01 1B 29 02  0B 00 25 80 80 8B 28 03  ......)...%...(.
2870: 0D 00 8C 80 03 0E 00 8C  80 03 0F 00 8C 80 03 10  ................
2880: 00 8C 80 03 11 00 8C 80  01 1B 29 02 0B 00 26 80  ..........)...&.
2890: 80 AF 28 03 0D 00 8B 80  03 0E 00 8B 80 03 0F 00  ..(.............
28A0: 8B 80 03 10 00 8B 80 03  11 00 8B 80 01 1B 29 02  ..............).
28B0: 0B 00 27 80 80 D3 28 03  0D 00 8C 80 03 0E 00 8C  ..'...(.........
28C0: 80 03 0F 00 8C 80 03 10  00 8C 80 03 11 00 8C 80  ................
28D0: 01 1B 29 02 0B 00 28 80  80 F7 28 03 0D 00 8C 80  ..)...(...(.....
28E0: 03 0E 00 8C 80 03 0F 00  8C 80 03 10 00 8C 80 03  ................
28F0: 11 00 8C 80 01 1B 29 02  0B 00 29 80 80 1B 29 03  ......)...)...).
2900: 0D 00 8B 80 03 0E 00 8B  80 03 0F 00 8B 80 03 10  ................
2910: 00 8B 80 03 11 00 8B 80  01 1B 29 01 D8 2B 02 00  ..........)..+..
2920: 00 35 80 80 3E 29 03 0D  00 8D 80 03 0E 00 8D 80  .5..>)..........
2930: 03 0F 00 8D 80 1A A2 1A  1A C2 1A 01 D8 2B 02 00  .............+..
2940: 00 36 80 80 62 29 03 0D  00 8E 80 03 0E 00 8E 80  .6..b)..........
2950: 03 0F 00 8E 80 03 10 00  8E 80 03 11 00 8E 80 01  ................
2960: D8 2B 02 00 00 3E 80 80  7B 29 03 0E 00 8F 80 1A  .+...>..{)......
2970: 82 1A 1A A2 1A 1A C2 1A  01 D8 2B 02 00 00 3B 80  ..........+...;.
2980: 80 94 29 03 0E 00 90 80  1A 82 1A 1A A2 1A 1A C2  ..).............
2990: 1A 01 D8 2B 02 00 00 04  80 80 B8 29 03 0D 00 49  ...+.......)...I
29A0: 80 03 0E 00 49 80 03 0F  00 49 80 03 10 00 49 80  ....I....I....I.
29B0: 03 11 00 49 80 01 D8 2B  02 00 00 3D 80 80 D1 29  ...I...+...=...)
29C0: 03 0E 00 91 80 1A 82 1A  1A A2 1A 1A C2 1A 01 D8  ................
29D0: 2B 02 00 00 3C 80 80 EA  29 03 0E 00 92 80 1A 82  +...<...).......
29E0: 1A 1A A2 1A 1A C2 1A 01  D8 2B 02 00 00 42 80 80  .........+...B..
29F0: 03 2A 03 0E 00 93 80 1A  82 1A 1A A2 1A 1A C2 1A  .*..............
2A00: 01 D8 2B 02 00 00 94 80  80 1C 2A 03 0E 00 95 80  ..+.......*.....
2A10: 1A 82 1A 1A A2 1A 1A C2  1A 01 D8 2B 02 00 00 37  ...........+...7
2A20: 80 80 D5 2A 02 0B 00 21  80 80 39 2A 03 0E 00 96  ...*...!..9*....
2A30: 80 03 10 00 46 80 01 CC  2A 02 0B 00 07 80 80 4E  ....F...*......N
2A40: 2A 03 0E 00 97 80 03 10  00 47 80 01 CC 2A 02 0B  *........G...*..
2A50: 00 02 80 80 63 2A 03 0E  00 96 80 03 10 00 46 80  ....c*........F.
2A60: 01 CC 2A 02 0B 00 25 80  80 78 2A 03 0E 00 97 80  ..*...%..x*.....
2A70: 03 10 00 47 80 01 CC 2A  02 0B 00 26 80 80 8D 2A  ...G...*...&...*
2A80: 03 0E 00 96 80 03 10 00  46 80 01 CC 2A 02 0B 00  ........F...*...
2A90: 27 80 80 A2 2A 03 0E 00  97 80 03 10 00 47 80 01  '...*........G..
2AA0: CC 2A 02 0B 00 28 80 80  B7 2A 03 0E 00 97 80 03  .*...(...*......
2AB0: 10 00 47 80 01 CC 2A 02  0B 00 29 80 80 CC 2A 03  ..G...*...)...*.
2AC0: 0E 00 96 80 03 10 00 46  80 01 CC 2A 1A 82 1A 1A  .......F...*....
2AD0: C2 1A 01 D8 2B 02 00 00  38 80 80 D8 2B 02 0B 00  ....+...8...+...
2AE0: 21 80 80 FC 2A 03 0E 00  98 80 03 0F 00 98 80 03  !...*...........
2AF0: 10 00 98 80 03 11 00 98  80 01 D5 2B 02 0B 00 07  ...........+....
2B00: 80 80 1B 2B 03 0E 00 99  80 03 0F 00 99 80 03 10  ...+............
2B10: 00 99 80 03 11 00 99 80  01 D5 2B 02 0B 00 02 80  ..........+.....
2B20: 80 3A 2B 03 0E 00 98 80  03 0F 00 98 80 03 10 00  .:+.............
2B30: 98 80 03 11 00 98 80 01  D5 2B 02 0B 00 25 80 80  .........+...%..
2B40: 59 2B 03 0E 00 99 80 03  0F 00 99 80 03 10 00 99  Y+..............
2B50: 80 03 11 00 99 80 01 D5  2B 02 0B 00 26 80 80 78  ........+...&..x
2B60: 2B 03 0E 00 98 80 03 0F  00 98 80 03 10 00 98 80  +...............
2B70: 03 11 00 98 80 01 D5 2B  02 0B 00 27 80 80 97 2B  .......+...'...+
2B80: 03 0E 00 99 80 03 0F 00  99 80 03 10 00 99 80 03  ................
2B90: 11 00 99 80 01 D5 2B 02  0B 00 28 80 80 B6 2B 03  ......+...(...+.
2BA0: 0E 00 99 80 03 0F 00 99  80 03 10 00 99 80 03 11  ................
2BB0: 00 99 80 01 D5 2B 02 0B  00 29 80 80 D5 2B 03 0E  .....+...)...+..
2BC0: 00 98 80 03 0F 00 98 80  03 10 00 98 80 03 11 00  ................
2BD0: 98 80 01 D5 2B 01 D8 2B  01 DB 2B 1B 02 08 00 07  ....+..+..+.....
2BE0: 80 80 87 2C 02 16 00 21  80 80 F4 2B 03 0D 00 21  ...,...!...+...!
2BF0: 80 01 84 2C 02 16 00 07  80 80 04 2C 03 0D 00 07  ...,.......,....
2C00: 80 01 84 2C 02 16 00 02  80 80 14 2C 03 0D 00 9A  ...,.......,....
2C10: 80 01 84 2C 02 16 00 25  80 80 24 2C 03 0D 00 9B  ...,...%..$,....
2C20: 80 01 84 2C 02 16 00 26  80 80 34 2C 03 0D 00 27  ...,...&..4,...'
2C30: 80 01 84 2C 02 16 00 27  80 80 44 2C 03 0D 00 9C  ...,...'..D,....
2C40: 80 01 84 2C 02 16 00 28  80 80 54 2C 03 0D 00 29  ...,...(..T,...)
2C50: 80 01 84 2C 02 16 00 29  80 80 64 2C 03 0D 00 33  ...,...)..d,...3
2C60: 80 01 84 2C 02 16 00 34  80 80 74 2C 03 0D 00 9D  ...,...4..t,....
2C70: 80 01 84 2C 02 16 00 35  80 80 84 2C 03 0D 00 9E  ...,...5...,....
2C80: 80 01 84 2C 01 E0 33 02  08 00 02 80 80 32 2D 02  ...,..3......2-.
2C90: 16 00 21 80 80 9F 2C 03  0D 00 21 80 01 2F 2D 02  ..!...,...!../-.
2CA0: 16 00 07 80 80 AF 2C 03  0D 00 94 80 01 2F 2D 02  ......,....../-.
2CB0: 16 00 02 80 80 BF 2C 03  0D 00 02 80 01 2F 2D 02  ......,....../-.
2CC0: 16 00 25 80 80 CF 2C 03  0D 00 35 80 01 2F 2D 02  ..%...,...5../-.
2CD0: 16 00 26 80 80 DF 2C 03  0D 00 9F 80 01 2F 2D 02  ..&...,....../-.
2CE0: 16 00 27 80 80 EF 2C 03  0D 00 9B 80 01 2F 2D 02  ..'...,....../-.
2CF0: 16 00 28 80 80 FF 2C 03  0D 00 3A 80 01 2F 2D 02  ..(...,...:../-.
2D00: 16 00 29 80 80 0F 2D 03  0D 00 A0 80 01 2F 2D 02  ..)...-....../-.
2D10: 16 00 34 80 80 1F 2D 03  0D 00 A1 80 01 2F 2D 02  ..4...-....../-.
2D20: 16 00 35 80 80 2F 2D 03  0D 00 A2 80 01 2F 2D 01  ..5../-....../-.
2D30: E0 33 02 08 00 25 80 80  DD 2D 02 16 00 21 80 80  .3...%...-...!..
2D40: 4A 2D 03 0D 00 21 80 01  DA 2D 02 16 00 07 80 80  J-...!...-......
2D50: 5A 2D 03 0D 00 27 80 01  DA 2D 02 16 00 02 80 80  Z-...'...-......
2D60: 6A 2D 03 0D 00 42 80 01  DA 2D 02 16 00 25 80 80  j-...B...-...%..
2D70: 7A 2D 03 0D 00 41 80 01  DA 2D 02 16 00 26 80 80  z-...A...-...&..
2D80: 8A 2D 03 0D 00 A3 80 01  DA 2D 02 16 00 27 80 80  .-.......-...'..
2D90: 9A 2D 03 0D 00 A1 80 01  DA 2D 02 16 00 28 80 80  .-.......-...(..
2DA0: AA 2D 03 0D 00 A4 80 01  DA 2D 02 16 00 29 80 80  .-.......-...)..
2DB0: BA 2D 03 0D 00 A5 80 01  DA 2D 02 16 00 34 80 80  .-.......-...4..
2DC0: CA 2D 03 0D 00 A6 80 01  DA 2D 02 16 00 35 80 80  .-.......-...5..
2DD0: DA 2D 03 0D 00 A7 80 01  DA 2D 01 E0 33 02 08 00  .-.......-..3...
2DE0: 26 80 80 88 2E 02 16 00  21 80 80 F5 2D 03 0D 00  &.......!...-...
2DF0: 21 80 01 85 2E 02 16 00  07 80 80 05 2E 03 0D 00  !...............
2E00: 6F 80 01 85 2E 02 16 00  02 80 80 15 2E 03 0D 00  o...............
2E10: 37 80 01 85 2E 02 16 00  25 80 80 25 2E 03 0D 00  7.......%..%....
2E20: A8 80 01 85 2E 02 16 00  26 80 80 35 2E 03 0D 00  ........&..5....
2E30: A9 80 01 85 2E 02 16 00  27 80 80 45 2E 03 0D 00  ........'..E....
2E40: 3B 80 01 85 2E 02 16 00  28 80 80 55 2E 03 0D 00  ;.......(..U....
2E50: AA 80 01 85 2E 02 16 00  29 80 80 65 2E 03 0D 00  ........)..e....
2E60: 27 80 01 85 2E 02 16 00  34 80 80 75 2E 03 0D 00  '.......4..u....
2E70: 3F 80 01 85 2E 02 16 00  35 80 80 85 2E 03 0D 00  ?.......5.......
2E80: AB 80 01 85 2E 01 E0 33  02 08 00 27 80 80 33 2F  .......3...'..3/
2E90: 02 16 00 21 80 80 A0 2E  03 0D 00 21 80 01 30 2F  ...!.......!..0/
2EA0: 02 16 00 07 80 80 B0 2E  03 0D 00 39 80 01 30 2F  ...........9..0/
2EB0: 02 16 00 02 80 80 C0 2E  03 0D 00 9B 80 01 30 2F  ..............0/
2EC0: 02 16 00 25 80 80 D0 2E  03 0D 00 AC 80 01 30 2F  ...%..........0/
2ED0: 02 16 00 26 80 80 E0 2E  03 0D 00 38 80 01 30 2F  ...&.......8..0/
2EE0: 02 16 00 27 80 80 F0 2E  03 0D 00 3A 80 01 30 2F  ...'.......:..0/
2EF0: 02 16 00 28 80 80 00 2F  03 0D 00 27 80 01 30 2F  ...(.../...'..0/
2F00: 02 16 00 29 80 80 10 2F  03 0D 00 04 80 01 30 2F  ...).../......0/
2F10: 02 16 00 34 80 80 20 2F  03 0D 00 AD 80 01 30 2F  ...4.. /......0/
2F20: 02 16 00 35 80 80 30 2F  03 0D 00 A7 80 01 30 2F  ...5..0/......0/
2F30: 01 E0 33 02 08 00 28 80  80 DE 2F 02 16 00 21 80  ..3...(.../...!.
2F40: 80 4B 2F 03 0D 00 21 80  01 DB 2F 02 16 00 07 80  .K/...!.../.....
2F50: 80 5B 2F 03 0D 00 AE 80  01 DB 2F 02 16 00 02 80  .[/......./.....
2F60: 80 6B 2F 03 0D 00 43 80  01 DB 2F 02 16 00 25 80  .k/...C.../...%.
2F70: 80 7B 2F 03 0D 00 9F 80  01 DB 2F 02 16 00 26 80  .{/......./...&.
2F80: 80 8B 2F 03 0D 00 AF 80  01 DB 2F 02 16 00 27 80  ../......./...'.
2F90: 80 9B 2F 03 0D 00 AC 80  01 DB 2F 02 16 00 28 80  ../......./...(.
2FA0: 80 AB 2F 03 0D 00 B0 80  01 DB 2F 02 16 00 29 80  ../......./...).
2FB0: 80 BB 2F 03 0D 00 37 80  01 DB 2F 02 16 00 34 80  ../...7.../...4.
2FC0: 80 CB 2F 03 0D 00 26 80  01 DB 2F 02 16 00 35 80  ../...&.../...5.
2FD0: 80 DB 2F 03 0D 00 AB 80  01 DB 2F 01 E0 33 02 08  ../......./..3..
2FE0: 00 29 80 80 89 30 02 16  00 21 80 80 F6 2F 03 0D  .)...0...!.../..
2FF0: 00 21 80 01 86 30 02 16  00 07 80 80 06 30 03 0D  .!...0.......0..
3000: 00 B1 80 01 86 30 02 16  00 02 80 80 16 30 03 0D  .....0.......0..
3010: 00 38 80 01 86 30 02 16  00 25 80 80 26 30 03 0D  .8...0...%..&0..
3020: 00 39 80 01 86 30 02 16  00 26 80 80 36 30 03 0D  .9...0...&..60..
3030: 00 A8 80 01 86 30 02 16  00 27 80 80 46 30 03 0D  .....0...'..F0..
3040: 00 04 80 01 86 30 02 16  00 28 80 80 56 30 03 0D  .....0...(..V0..
3050: 00 9B 80 01 86 30 02 16  00 29 80 80 66 30 03 0D  .....0...)..f0..
3060: 00 43 80 01 86 30 02 16  00 34 80 80 76 30 03 0D  .C...0...4..v0..
3070: 00 B2 80 01 86 30 02 16  00 35 80 80 86 30 03 0D  .....0...5...0..
3080: 00 A7 80 01 86 30 01 E0  33 02 08 00 34 80 80 34  .....0..3...4..4
3090: 31 02 16 00 21 80 80 A1  30 03 0D 00 21 80 01 31  1...!...0...!..1
30A0: 31 02 16 00 07 80 80 B1  30 03 0D 00 B3 80 01 31  1.......0......1
30B0: 31 02 16 00 02 80 80 C1  30 03 0D 00 3C 80 01 31  1.......0...<..1
30C0: 31 02 16 00 25 80 80 D1  30 03 0D 00 37 80 01 31  1...%...0...7..1
30D0: 31 02 16 00 26 80 80 E1  30 03 0D 00 9B 80 01 31  1...&...0......1
30E0: 31 02 16 00 27 80 80 F1  30 03 0D 00 39 80 01 31  1...'...0...9..1
30F0: 31 02 16 00 28 80 80 01  31 03 0D 00 A8 80 01 31  1...(...1......1
3100: 31 02 16 00 29 80 80 11  31 03 0D 00 29 80 01 31  1...)...1...)..1
3110: 31 02 16 00 34 80 80 21  31 03 0D 00 38 80 01 31  1...4..!1...8..1
3120: 31 02 16 00 35 80 80 31  31 03 0D 00 A2 80 01 31  1...5..11......1
3130: 31 01 E0 33 02 08 00 35  80 80 DF 31 02 16 00 21  1..3...5...1...!
3140: 80 80 4C 31 03 0D 00 21  80 01 DC 31 02 16 00 07  ..L1...!...1....
3150: 80 80 5C 31 03 0D 00 3C  80 01 DC 31 02 16 00 02  ..\1...<...1....
3160: 80 80 6C 31 03 0D 00 6F  80 01 DC 31 02 16 00 25  ..l1...o...1...%
3170: 80 80 7C 31 03 0D 00 A9  80 01 DC 31 02 16 00 26  ..|1.......1...&
3180: 80 80 8C 31 03 0D 00 37  80 01 DC 31 02 16 00 27  ...1...7...1...'
3190: 80 80 9C 31 03 0D 00 A8  80 01 DC 31 02 16 00 28  ...1.......1...(
31A0: 80 80 AC 31 03 0D 00 B4  80 01 DC 31 02 16 00 29  ...1.......1...)
31B0: 80 80 BC 31 03 0D 00 3B  80 01 DC 31 02 16 00 34  ...1...;...1...4
31C0: 80 80 CC 31 03 0D 00 B5  80 01 DC 31 02 16 00 35  ...1.......1...5
31D0: 80 80 DC 31 03 0D 00 AB  80 01 DC 31 01 E0 33 02  ...1.......1..3.
31E0: 08 00 36 80 80 8A 32 02  16 00 21 80 80 F7 31 03  ..6...2...!...1.
31F0: 0D 00 21 80 01 87 32 02  16 00 07 80 80 07 32 03  ..!...2.......2.
3200: 0D 00 28 80 01 87 32 02  16 00 02 80 80 17 32 03  ..(...2.......2.
3210: 0D 00 AE 80 01 87 32 02  16 00 25 80 80 27 32 03  ......2...%..'2.
3220: 0D 00 A8 80 01 87 32 02  16 00 26 80 80 37 32 03  ......2...&..72.
3230: 0D 00 9B 80 01 87 32 02  16 00 27 80 80 47 32 03  ......2...'..G2.
3240: 0D 00 26 80 01 87 32 02  16 00 28 80 80 57 32 03  ..&...2...(..W2.
3250: 0D 00 37 80 01 87 32 02  16 00 29 80 80 67 32 03  ..7...2...)..g2.
3260: 0D 00 AF 80 01 87 32 02  16 00 34 80 80 77 32 03  ......2...4..w2.
3270: 0D 00 B6 80 01 87 32 02  16 00 35 80 80 87 32 03  ......2...5...2.
3280: 0D 00 A2 80 01 87 32 01  E0 33 02 08 00 3E 80 80  ......2..3...>..
3290: 35 33 02 16 00 21 80 80  A2 32 03 0D 00 21 80 01  53...!...2...!..
32A0: 32 33 02 16 00 07 80 80  B2 32 03 0D 00 9B 80 01  23.......2......
32B0: 32 33 02 16 00 02 80 80  C2 32 03 0D 00 A9 80 01  23.......2......
32C0: 32 33 02 16 00 25 80 80  D2 32 03 0D 00 27 80 01  23...%...2...'..
32D0: 32 33 02 16 00 26 80 80  E2 32 03 0D 00 A5 80 01  23...&...2......
32E0: 32 33 02 16 00 27 80 80  F2 32 03 0D 00 AC 80 01  23...'...2......
32F0: 32 33 02 16 00 28 80 80  02 33 03 0D 00 B2 80 01  23...(...3......
3300: 32 33 02 16 00 29 80 80  12 33 03 0D 00 41 80 01  23...)...3...A..
3310: 32 33 02 16 00 34 80 80  22 33 03 0D 00 B7 80 01  23...4.."3......
3320: 32 33 02 16 00 35 80 80  32 33 03 0D 00 9E 80 01  23...5..23......
3330: 32 33 01 E0 33 02 08 00  3B 80 80 E0 33 02 16 00  23..3...;...3...
3340: 21 80 80 4D 33 03 0D 00  21 80 01 DD 33 02 16 00  !..M3...!...3...
3350: 07 80 80 5D 33 03 0D 00  3D 80 01 DD 33 02 16 00  ...]3...=...3...
3360: 02 80 80 6D 33 03 0D 00  3B 80 01 DD 33 02 16 00  ...m3...;...3...
3370: 25 80 80 7D 33 03 0D 00  42 80 01 DD 33 02 16 00  %..}3...B...3...
3380: 26 80 80 8D 33 03 0D 00  26 80 01 DD 33 02 16 00  &...3...&...3...
3390: 27 80 80 9D 33 03 0D 00  A4 80 01 DD 33 02 16 00  '...3.......3...
33A0: 28 80 80 AD 33 03 0D 00  3F 80 01 DD 33 02 16 00  (...3...?...3...
33B0: 29 80 80 BD 33 03 0D 00  B8 80 01 DD 33 02 16 00  )...3.......3...
33C0: 34 80 80 CD 33 03 0D 00  B9 80 01 DD 33 02 16 00  4...3.......3...
33D0: 35 80 80 DD 33 03 0D 00  9E 80 01 DD 33 01 E0 33  5...3.......3..3
33E0: 1B 02 15 00 21 80 80 AC  34 02 16 00 21 80 80 F9  ....!...4...!...
33F0: 33 03 0E 00 6F 80 01 A9  34 02 16 00 07 80 80 09  3...o...4.......
3400: 34 03 0E 00 02 80 01 A9  34 02 16 00 02 80 80 19  4.......4.......
3410: 34 03 0E 00 9C 80 01 A9  34 02 16 00 25 80 80 29  4.......4...%..)
3420: 34 03 0E 00 BA 80 01 A9  34 02 16 00 26 80 80 39  4.......4...&..9
3430: 34 03 0E 00 A3 80 01 A9  34 02 16 00 27 80 80 49  4.......4...'..I
3440: 34 03 0E 00 5F 80 01 A9  34 02 16 00 28 80 80 59  4..._...4...(..Y
3450: 34 03 0E 00 35 80 01 A9  34 02 16 00 29 80 80 69  4...5...4...)..i
3460: 34 03 0E 00 A1 80 01 A9  34 02 16 00 34 80 80 79  4.......4...4..y
3470: 34 03 0E 00 A6 80 01 A9  34 02 16 00 35 80 80 89  4.......4...5...
3480: 34 03 0E 00 B9 80 01 A9  34 02 16 00 36 80 80 99  4.......4...6...
3490: 34 03 0E 00 BB 80 01 A9  34 02 16 00 3E 80 80 A9  4.......4...>...
34A0: 34 03 0E 00 B8 80 01 A9  34 01 0D 37 02 15 00 07  4.......4..7....
34B0: 80 80 77 35 02 16 00 21  80 80 C4 34 03 0E 00 28  ..w5...!...4...(
34C0: 80 01 74 35 02 16 00 07  80 80 D4 34 03 0E 00 27  ..t5.......4...'
34D0: 80 01 74 35 02 16 00 02  80 80 E4 34 03 0E 00 9A  ..t5.......4....
34E0: 80 01 74 35 02 16 00 25  80 80 F4 34 03 0E 00 94  ..t5...%...4....
34F0: 80 01 74 35 02 16 00 26  80 80 04 35 03 0E 00 A9  ..t5...&...5....
3500: 80 01 74 35 02 16 00 27  80 80 14 35 03 0E 00 3B  ..t5...'...5...;
3510: 80 01 74 35 02 16 00 28  80 80 24 35 03 0E 00 29  ..t5...(..$5...)
3520: 80 01 74 35 02 16 00 29  80 80 34 35 03 0E 00 26  ..t5...)..45...&
3530: 80 01 74 35 02 16 00 34  80 80 44 35 03 0E 00 04  ..t5...4..D5....
3540: 80 01 74 35 02 16 00 35  80 80 54 35 03 0E 00 41  ..t5...5..T5...A
3550: 80 01 74 35 02 16 00 36  80 80 64 35 03 0E 00 A5  ..t5...6..d5....
3560: 80 01 74 35 02 16 00 3E  80 80 74 35 03 0E 00 B7  ..t5...>..t5....
3570: 80 01 74 35 01 0D 37 02  15 00 02 80 80 42 36 02  ..t5..7......B6.
3580: 16 00 21 80 80 8F 35 03  0E 00 43 80 01 3F 36 02  ..!...5...C..?6.
3590: 16 00 07 80 80 9F 35 03  0E 00 9B 80 01 3F 36 02  ......5......?6.
35A0: 16 00 02 80 80 AF 35 03  0E 00 B1 80 01 3F 36 02  ......5......?6.
35B0: 16 00 25 80 80 BF 35 03  0E 00 3A 80 01 3F 36 02  ..%...5...:..?6.
35C0: 16 00 26 80 80 CF 35 03  0E 00 37 80 01 3F 36 02  ..&...5...7..?6.
35D0: 16 00 27 80 80 DF 35 03  0E 00 32 80 01 3F 36 02  ..'...5...2..?6.
35E0: 16 00 28 80 80 EF 35 03  0E 00 38 80 01 3F 36 02  ..(...5...8..?6.
35F0: 16 00 29 80 80 FF 35 03  0E 00 BC 80 01 3F 36 02  ..)...5......?6.
3600: 16 00 34 80 80 0F 36 03  0E 00 9D 80 01 3F 36 02  ..4...6......?6.
3610: 16 00 35 80 80 1F 36 03  0E 00 AD 80 01 3F 36 02  ..5...6......?6.
3620: 16 00 36 80 80 2F 36 03  0E 00 B5 80 01 3F 36 02  ..6../6......?6.
3630: 16 00 3E 80 80 3F 36 03  0E 00 64 80 01 3F 36 01  ..>..?6...d..?6.
3640: 0D 37 02 15 00 25 80 80  0D 37 02 16 00 21 80 80  .7...%...7...!..
3650: 5A 36 03 0E 00 34 80 01  0A 37 02 16 00 07 80 80  Z6...4...7......
3660: 6A 36 03 0E 00 BD 80 01  0A 37 02 16 00 02 80 80  j6.......7......
3670: 7A 36 03 0E 00 3C 80 01  0A 37 02 16 00 25 80 80  z6...<...7...%..
3680: 8A 36 03 0E 00 40 80 01  0A 37 02 16 00 26 80 80  .6...@...7...&..
3690: 9A 36 03 0E 00 BE 80 01  0A 37 02 16 00 27 80 80  .6.......7...'..
36A0: AA 36 03 0E 00 B3 80 01  0A 37 02 16 00 28 80 80  .6.......7...(..
36B0: BA 36 03 0E 00 BF 80 01  0A 37 02 16 00 29 80 80  .6.......7...)..
36C0: CA 36 03 0E 00 AF 80 01  0A 37 02 16 00 34 80 80  .6.......7...4..
36D0: DA 36 03 0E 00 B4 80 01  0A 37 02 16 00 35 80 80  .6.......7...5..
36E0: EA 36 03 0E 00 AA 80 01  0A 37 02 16 00 36 80 80  .6.......7...6..
36F0: FA 36 03 0E 00 B6 80 01  0A 37 02 16 00 3E 80 80  .6.......7...>..
3700: 0A 37 03 0E 00 C0 80 01  0A 37 01 0D 37 1B 02 15  .7.......7..7...
3710: 00 21 80 80 D9 37 02 16  00 21 80 80 26 37 03 0F  .!...7...!..&7..
3720: 00 6F 80 01 D6 37 02 16  00 07 80 80 36 37 03 0F  .o...7......67..
3730: 00 02 80 01 D6 37 02 16  00 02 80 80 46 37 03 0F  .....7......F7..
3740: 00 9C 80 01 D6 37 02 16  00 25 80 80 56 37 03 0F  .....7...%..V7..
3750: 00 BA 80 01 D6 37 02 16  00 26 80 80 66 37 03 0F  .....7...&..f7..
3760: 00 A3 80 01 D6 37 02 16  00 27 80 80 76 37 03 0F  .....7...'..v7..
3770: 00 5F 80 01 D6 37 02 16  00 28 80 80 86 37 03 0F  ._...7...(...7..
3780: 00 35 80 01 D6 37 02 16  00 29 80 80 96 37 03 0F  .5...7...)...7..
3790: 00 A1 80 01 D6 37 02 16  00 34 80 80 A6 37 03 0F  .....7...4...7..
37A0: 00 A6 80 01 D6 37 02 16  00 35 80 80 B6 37 03 0F  .....7...5...7..
37B0: 00 B9 80 01 D6 37 02 16  00 36 80 80 C6 37 03 0F  .....7...6...7..
37C0: 00 BB 80 01 D6 37 02 16  00 3E 80 80 D6 37 03 0F  .....7...>...7..
37D0: 00 B8 80 01 D6 37 01 3A  3A 02 15 00 07 80 80 A4  .....7.::.......
37E0: 38 02 16 00 21 80 80 F1  37 03 0F 00 28 80 01 A1  8...!...7...(...
37F0: 38 02 16 00 07 80 80 01  38 03 0F 00 27 80 01 A1  8.......8...'...
3800: 38 02 16 00 02 80 80 11  38 03 0F 00 9A 80 01 A1  8.......8.......
3810: 38 02 16 00 25 80 80 21  38 03 0F 00 94 80 01 A1  8...%..!8.......
3820: 38 02 16 00 26 80 80 31  38 03 0F 00 A9 80 01 A1  8...&..18.......
3830: 38 02 16 00 27 80 80 41  38 03 0F 00 3B 80 01 A1  8...'..A8...;...
3840: 38 02 16 00 28 80 80 51  38 03 0F 00 29 80 01 A1  8...(..Q8...)...
3850: 38 02 16 00 29 80 80 61  38 03 0F 00 26 80 01 A1  8...)..a8...&...
3860: 38 02 16 00 34 80 80 71  38 03 0F 00 04 80 01 A1  8...4..q8.......
3870: 38 02 16 00 35 80 80 81  38 03 0F 00 41 80 01 A1  8...5...8...A...
3880: 38 02 16 00 36 80 80 91  38 03 0F 00 A5 80 01 A1  8...6...8.......
3890: 38 02 16 00 3E 80 80 A1  38 03 0F 00 B7 80 01 A1  8...>...8.......
38A0: 38 01 3A 3A 02 15 00 02  80 80 6F 39 02 16 00 21  8.::......o9...!
38B0: 80 80 BC 38 03 0F 00 43  80 01 6C 39 02 16 00 07  ...8...C..l9....
38C0: 80 80 CC 38 03 0F 00 9B  80 01 6C 39 02 16 00 02  ...8......l9....
38D0: 80 80 DC 38 03 0F 00 B1  80 01 6C 39 02 16 00 25  ...8......l9...%
38E0: 80 80 EC 38 03 0F 00 3A  80 01 6C 39 02 16 00 26  ...8...:..l9...&
38F0: 80 80 FC 38 03 0F 00 37  80 01 6C 39 02 16 00 27  ...8...7..l9...'
3900: 80 80 0C 39 03 0F 00 39  80 01 6C 39 02 16 00 28  ...9...9..l9...(
3910: 80 80 1C 39 03 0F 00 38  80 01 6C 39 02 16 00 29  ...9...8..l9...)
3920: 80 80 2C 39 03 0F 00 3E  80 01 6C 39 02 16 00 34  ..,9...>..l9...4
3930: 80 80 3C 39 03 0F 00 9D  80 01 6C 39 02 16 00 35  ..<9......l9...5
3940: 80 80 4C 39 03 0F 00 AD  80 01 6C 39 02 16 00 36  ..L9......l9...6
3950: 80 80 5C 39 03 0F 00 B5  80 01 6C 39 02 16 00 3E  ..\9......l9...>
3960: 80 80 6C 39 03 0F 00 64  80 01 6C 39 01 3A 3A 02  ..l9...d..l9.::.
3970: 15 00 25 80 80 3A 3A 02  16 00 21 80 80 87 39 03  ..%..::...!...9.
3980: 0F 00 34 80 01 37 3A 02  16 00 07 80 80 97 39 03  ..4..7:.......9.
3990: 0F 00 C1 80 01 37 3A 02  16 00 02 80 80 A7 39 03  .....7:.......9.
39A0: 0F 00 21 80 01 37 3A 02  16 00 25 80 80 B7 39 03  ..!..7:...%...9.
39B0: 0F 00 40 80 01 37 3A 02  16 00 26 80 80 C7 39 03  ..@..7:...&...9.
39C0: 0F 00 BD 80 01 37 3A 02  16 00 27 80 80 D7 39 03  .....7:...'...9.
39D0: 0F 00 C2 80 01 37 3A 02  16 00 28 80 80 E7 39 03  .....7:...(...9.
39E0: 0F 00 3F 80 01 37 3A 02  16 00 29 80 80 F7 39 03  ..?..7:...)...9.
39F0: 0F 00 AF 80 01 37 3A 02  16 00 34 80 80 07 3A 03  .....7:...4...:.
3A00: 0F 00 25 80 01 37 3A 02  16 00 35 80 80 17 3A 03  ..%..7:...5...:.
3A10: 0F 00 3C 80 01 37 3A 02  16 00 36 80 80 27 3A 03  ..<..7:...6..':.
3A20: 0F 00 B6 80 01 37 3A 02  16 00 3E 80 80 37 3A 03  .....7:...>..7:.
3A30: 0F 00 C0 80 01 37 3A 01  3A 3A 1B 02 15 00 21 80  .....7:.::....!.
3A40: 80 06 3B 02 16 00 21 80  80 53 3A 03 10 00 6F 80  ..;...!..S:...o.
3A50: 01 03 3B 02 16 00 07 80  80 63 3A 03 10 00 02 80  ..;......c:.....
3A60: 01 03 3B 02 16 00 02 80  80 73 3A 03 10 00 9C 80  ..;......s:.....
3A70: 01 03 3B 02 16 00 25 80  80 83 3A 03 10 00 BA 80  ..;...%...:.....
3A80: 01 03 3B 02 16 00 26 80  80 93 3A 03 10 00 9E 80  ..;...&...:.....
3A90: 01 03 3B 02 16 00 27 80  80 A3 3A 03 10 00 5F 80  ..;...'...:..._.
3AA0: 01 03 3B 02 16 00 28 80  80 B3 3A 03 10 00 35 80  ..;...(...:...5.
3AB0: 01 03 3B 02 16 00 29 80  80 C3 3A 03 10 00 A7 80  ..;...)...:.....
3AC0: 01 03 3B 02 16 00 34 80  80 D3 3A 03 10 00 A6 80  ..;...4...:.....
3AD0: 01 03 3B 02 16 00 35 80  80 E3 3A 03 10 00 B9 80  ..;...5...:.....
3AE0: 01 03 3B 02 16 00 36 80  80 F3 3A 03 10 00 BB 80  ..;...6...:.....
3AF0: 01 03 3B 02 16 00 3E 80  80 03 3B 03 10 00 B8 80  ..;...>...;.....
3B00: 01 03 3B 01 67 3D 02 15  00 07 80 80 D1 3B 02 16  ..;.g=.......;..
3B10: 00 21 80 80 1E 3B 03 10  00 28 80 01 CE 3B 02 16  .!...;...(...;..
3B20: 00 07 80 80 2E 3B 03 10  00 27 80 01 CE 3B 02 16  .....;...'...;..
3B30: 00 02 80 80 3E 3B 03 10  00 9A 80 01 CE 3B 02 16  ....>;.......;..
3B40: 00 25 80 80 4E 3B 03 10  00 94 80 01 CE 3B 02 16  .%..N;.......;..
3B50: 00 26 80 80 5E 3B 03 10  00 A9 80 01 CE 3B 02 16  .&..^;.......;..
3B60: 00 27 80 80 6E 3B 03 10  00 3B 80 01 CE 3B 02 16  .'..n;...;...;..
3B70: 00 28 80 80 7E 3B 03 10  00 29 80 01 CE 3B 02 16  .(..~;...)...;..
3B80: 00 29 80 80 8E 3B 03 10  00 26 80 01 CE 3B 02 16  .)...;...&...;..
3B90: 00 34 80 80 9E 3B 03 10  00 04 80 01 CE 3B 02 16  .4...;.......;..
3BA0: 00 35 80 80 AE 3B 03 10  00 41 80 01 CE 3B 02 16  .5...;...A...;..
3BB0: 00 36 80 80 BE 3B 03 10  00 A5 80 01 CE 3B 02 16  .6...;.......;..
3BC0: 00 3E 80 80 CE 3B 03 10  00 B7 80 01 CE 3B 01 67  .>...;.......;.g
3BD0: 3D 02 15 00 02 80 80 9C  3C 02 16 00 21 80 80 E9  =.......<...!...
3BE0: 3B 03 10 00 43 80 01 99  3C 02 16 00 07 80 80 F9  ;...C...<.......
3BF0: 3B 03 10 00 9B 80 01 99  3C 02 16 00 02 80 80 09  ;.......<.......
3C00: 3C 03 10 00 B1 80 01 99  3C 02 16 00 25 80 80 19  <.......<...%...
3C10: 3C 03 10 00 3A 80 01 99  3C 02 16 00 26 80 80 29  <...:...<...&..)
3C20: 3C 03 10 00 37 80 01 99  3C 02 16 00 27 80 80 39  <...7...<...'..9
3C30: 3C 03 10 00 39 80 01 99  3C 02 16 00 28 80 80 49  <...9...<...(..I
3C40: 3C 03 10 00 38 80 01 99  3C 02 16 00 29 80 80 59  <...8...<...)..Y
3C50: 3C 03 10 00 3E 80 01 99  3C 02 16 00 34 80 80 69  <...>...<...4..i
3C60: 3C 03 10 00 9D 80 01 99  3C 02 16 00 35 80 80 79  <.......<...5..y
3C70: 3C 03 10 00 AD 80 01 99  3C 02 16 00 36 80 80 89  <.......<...6...
3C80: 3C 03 10 00 B5 80 01 99  3C 02 16 00 3E 80 80 99  <.......<...>...
3C90: 3C 03 10 00 64 80 01 99  3C 01 67 3D 02 15 00 25  <...d...<.g=...%
3CA0: 80 80 67 3D 02 16 00 21  80 80 B4 3C 03 10 00 34  ..g=...!...<...4
3CB0: 80 01 64 3D 02 16 00 07  80 80 C4 3C 03 10 00 C3  ..d=.......<....
3CC0: 80 01 64 3D 02 16 00 02  80 80 D4 3C 03 10 00 3C  ..d=.......<...<
3CD0: 80 01 64 3D 02 16 00 25  80 80 E4 3C 03 10 00 40  ..d=...%...<...@
3CE0: 80 01 64 3D 02 16 00 26  80 80 F4 3C 03 10 00 C1  ..d=...&...<....
3CF0: 80 01 64 3D 02 16 00 27  80 80 04 3D 03 10 00 AE  ..d=...'...=....
3D00: 80 01 64 3D 02 16 00 28  80 80 14 3D 03 10 00 3F  ..d=...(...=...?
3D10: 80 01 64 3D 02 16 00 29  80 80 24 3D 03 10 00 AF  ..d=...)..$=....
3D20: 80 01 64 3D 02 16 00 34  80 80 34 3D 03 10 00 25  ..d=...4..4=...%
3D30: 80 01 64 3D 02 16 00 35  80 80 44 3D 03 10 00 B4  ..d=...5..D=....
3D40: 80 01 64 3D 02 16 00 36  80 80 54 3D 03 10 00 B6  ..d=...6..T=....
3D50: 80 01 64 3D 02 16 00 3E  80 80 64 3D 03 10 00 C0  ..d=...>..d=....
3D60: 80 01 64 3D 01 67 3D 1B  02 15 00 21 80 80 33 3E  ..d=.g=....!..3>
3D70: 02 16 00 21 80 80 80 3D  03 11 00 6F 80 01 30 3E  ...!...=...o..0>
3D80: 02 16 00 07 80 80 90 3D  03 11 00 02 80 01 30 3E  .......=......0>
3D90: 02 16 00 02 80 80 A0 3D  03 11 00 9C 80 01 30 3E  .......=......0>
3DA0: 02 16 00 25 80 80 B0 3D  03 11 00 BA 80 01 30 3E  ...%...=......0>
3DB0: 02 16 00 26 80 80 C0 3D  03 11 00 9E 80 01 30 3E  ...&...=......0>
3DC0: 02 16 00 27 80 80 D0 3D  03 11 00 5F 80 01 30 3E  ...'...=..._..0>
3DD0: 02 16 00 28 80 80 E0 3D  03 11 00 35 80 01 30 3E  ...(...=...5..0>
3DE0: 02 16 00 29 80 80 F0 3D  03 11 00 A7 80 01 30 3E  ...)...=......0>
3DF0: 02 16 00 34 80 80 00 3E  03 11 00 A6 80 01 30 3E  ...4...>......0>
3E00: 02 16 00 35 80 80 10 3E  03 11 00 B9 80 01 30 3E  ...5...>......0>
3E10: 02 16 00 36 80 80 20 3E  03 11 00 BB 80 01 30 3E  ...6.. >......0>
3E20: 02 16 00 3E 80 80 30 3E  03 11 00 B8 80 01 30 3E  ...>..0>......0>
3E30: 01 94 40 02 15 00 07 80  80 FE 3E 02 16 00 21 80  ..@.......>...!.
3E40: 80 4B 3E 03 11 00 28 80  01 FB 3E 02 16 00 07 80  .K>...(...>.....
3E50: 80 5B 3E 03 11 00 27 80  01 FB 3E 02 16 00 02 80  .[>...'...>.....
3E60: 80 6B 3E 03 11 00 9A 80  01 FB 3E 02 16 00 25 80  .k>.......>...%.
3E70: 80 7B 3E 03 11 00 94 80  01 FB 3E 02 16 00 26 80  .{>.......>...&.
3E80: 80 8B 3E 03 11 00 A9 80  01 FB 3E 02 16 00 27 80  ..>.......>...'.
3E90: 80 9B 3E 03 11 00 3B 80  01 FB 3E 02 16 00 28 80  ..>...;...>...(.
3EA0: 80 AB 3E 03 11 00 29 80  01 FB 3E 02 16 00 29 80  ..>...)...>...).
3EB0: 80 BB 3E 03 11 00 26 80  01 FB 3E 02 16 00 34 80  ..>...&...>...4.
3EC0: 80 CB 3E 03 11 00 04 80  01 FB 3E 02 16 00 35 80  ..>.......>...5.
3ED0: 80 DB 3E 03 11 00 41 80  01 FB 3E 02 16 00 36 80  ..>...A...>...6.
3EE0: 80 EB 3E 03 11 00 A5 80  01 FB 3E 02 16 00 3E 80  ..>.......>...>.
3EF0: 80 FB 3E 03 11 00 B7 80  01 FB 3E 01 94 40 02 15  ..>.......>..@..
3F00: 00 02 80 80 C9 3F 02 16  00 21 80 80 16 3F 03 11  .....?...!...?..
3F10: 00 43 80 01 C6 3F 02 16  00 07 80 80 26 3F 03 11  .C...?......&?..
3F20: 00 9B 80 01 C6 3F 02 16  00 02 80 80 36 3F 03 11  .....?......6?..
3F30: 00 B1 80 01 C6 3F 02 16  00 25 80 80 46 3F 03 11  .....?...%..F?..
3F40: 00 3A 80 01 C6 3F 02 16  00 26 80 80 56 3F 03 11  .:...?...&..V?..
3F50: 00 37 80 01 C6 3F 02 16  00 27 80 80 66 3F 03 11  .7...?...'..f?..
3F60: 00 39 80 01 C6 3F 02 16  00 28 80 80 76 3F 03 11  .9...?...(..v?..
3F70: 00 38 80 01 C6 3F 02 16  00 29 80 80 86 3F 03 11  .8...?...)...?..
3F80: 00 3E 80 01 C6 3F 02 16  00 34 80 80 96 3F 03 11  .>...?...4...?..
3F90: 00 9D 80 01 C6 3F 02 16  00 35 80 80 A6 3F 03 11  .....?...5...?..
3FA0: 00 AD 80 01 C6 3F 02 16  00 36 80 80 B6 3F 03 11  .....?...6...?..
3FB0: 00 B5 80 01 C6 3F 02 16  00 3E 80 80 C6 3F 03 11  .....?...>...?..
3FC0: 00 64 80 01 C6 3F 01 94  40 02 15 00 25 80 80 94  .d...?..@...%...
3FD0: 40 02 16 00 21 80 80 E1  3F 03 11 00 34 80 01 91  @...!...?...4...
3FE0: 40 02 16 00 07 80 80 F1  3F 03 11 00 2C 80 01 91  @.......?...,...
3FF0: 40 02 16 00 02 80 80 01  40 03 11 00 25 80 01 91  @.......@...%...
4000: 40 02 16 00 25 80 80 11  40 03 11 00 40 80 01 91  @...%...@...@...
4010: 40 02 16 00 26 80 80 21  40 03 11 00 C3 80 01 91  @...&..!@.......
4020: 40 02 16 00 27 80 80 31  40 03 11 00 21 80 01 91  @...'..1@...!...
4030: 40 02 16 00 28 80 80 41  40 03 11 00 3F 80 01 91  @...(..A@...?...
4040: 40 02 16 00 29 80 80 51  40 03 11 00 AF 80 01 91  @...)..Q@.......
4050: 40 02 16 00 34 80 80 61  40 03 11 00 36 80 01 91  @...4..a@...6...
4060: 40 02 16 00 35 80 80 71  40 03 11 00 3C 80 01 91  @...5..q@...<...
4070: 40 02 16 00 36 80 80 81  40 03 11 00 B6 80 01 91  @...6...@.......
4080: 40 02 16 00 3E 80 80 91  40 03 11 00 C0 80 01 91  @...>...@.......
4090: 40 01 94 40 1B 02 17 00  21 80 80 33 41 02 16 00  @..@....!..3A...
40A0: 21 80 80 B2 40 03 12 00  73 80 03 13 00 73 80 01  !...@...s....s..
40B0: 30 41 02 16 00 07 80 80  C7 40 03 12 00 AC 80 03  0A.......@......
40C0: 13 00 AC 80 01 30 41 02  16 00 02 80 80 DC 40 03  .....0A.......@.
40D0: 12 00 64 80 03 13 00 64  80 01 30 41 02 16 00 25  ..d....d..0A...%
40E0: 80 80 F1 40 03 12 00 C4  80 03 13 00 C4 80 01 30  ...@...........0
40F0: 41 02 16 00 26 80 80 06  41 03 12 00 C5 80 03 13  A...&...A.......
4100: 00 C5 80 01 30 41 02 16  00 27 80 80 1B 41 03 12  ....0A...'...A..
4110: 00 BA 80 03 13 00 BA 80  01 30 41 02 16 00 28 80  .........0A...(.
4120: 80 30 41 03 12 00 C6 80  03 13 00 C6 80 01 30 41  .0A...........0A
4130: 01 7C 46 02 17 00 07 80  80 AE 41 02 16 00 21 80  .|F.......A...!.
4140: 80 4B 41 03 12 00 C7 80  01 AB 41 02 16 00 07 80  .KA.......A.....
4150: 80 5B 41 03 12 00 C8 80  01 AB 41 02 16 00 02 80  .[A.......A.....
4160: 80 6B 41 03 12 00 C9 80  01 AB 41 02 16 00 25 80  .kA.......A...%.
4170: 80 7B 41 03 12 00 CA 80  01 AB 41 02 16 00 26 80  .{A.......A...&.
4180: 80 8B 41 03 12 00 CB 80  01 AB 41 02 16 00 27 80  ..A.......A...'.
4190: 80 9B 41 03 12 00 CC 80  01 AB 41 02 16 00 28 80  ..A.......A...(.
41A0: 80 AB 41 03 12 00 CD 80  01 AB 41 01 7C 46 02 17  ..A.......A.|F..
41B0: 00 02 80 80 29 42 02 16  00 21 80 80 C6 41 03 12  ....)B...!...A..
41C0: 00 CE 80 01 26 42 02 16  00 07 80 80 D6 41 03 12  ....&B.......A..
41D0: 00 CF 80 01 26 42 02 16  00 02 80 80 E6 41 03 12  ....&B.......A..
41E0: 00 D0 80 01 26 42 02 16  00 25 80 80 F6 41 03 12  ....&B...%...A..
41F0: 00 D1 80 01 26 42 02 16  00 26 80 80 06 42 03 12  ....&B...&...B..
4200: 00 D2 80 01 26 42 02 16  00 27 80 80 16 42 03 12  ....&B...'...B..
4210: 00 D3 80 01 26 42 02 16  00 28 80 80 26 42 03 12  ....&B...(..&B..
4220: 00 68 80 01 26 42 01 7C  46 02 17 00 25 80 80 A4  .h..&B.|F...%...
4230: 42 02 16 00 21 80 80 41  42 03 12 00 D4 80 01 A1  B...!..AB.......
4240: 42 02 16 00 07 80 80 51  42 03 12 00 D5 80 01 A1  B......QB.......
4250: 42 02 16 00 02 80 80 61  42 03 12 00 D6 80 01 A1  B......aB.......
4260: 42 02 16 00 25 80 80 71  42 03 12 00 D7 80 01 A1  B...%..qB.......
4270: 42 02 16 00 26 80 80 81  42 03 12 00 D8 80 01 A1  B...&...B.......
4280: 42 02 16 00 27 80 80 91  42 03 12 00 D9 80 01 A1  B...'...B.......
4290: 42 02 16 00 28 80 80 A1  42 03 12 00 DA 80 01 A1  B...(...B.......
42A0: 42 01 7C 46 02 17 00 26  80 80 1F 43 02 16 00 21  B.|F...&...C...!
42B0: 80 80 BC 42 03 12 00 DB  80 01 1C 43 02 16 00 07  ...B.......C....
42C0: 80 80 CC 42 03 12 00 DC  80 01 1C 43 02 16 00 02  ...B.......C....
42D0: 80 80 DC 42 03 12 00 DD  80 01 1C 43 02 16 00 25  ...B.......C...%
42E0: 80 80 EC 42 03 12 00 DE  80 01 1C 43 02 16 00 26  ...B.......C...&
42F0: 80 80 FC 42 03 12 00 DF  80 01 1C 43 02 16 00 27  ...B.......C...'
4300: 80 80 0C 43 03 12 00 E0  80 01 1C 43 02 16 00 28  ...C.......C...(
4310: 80 80 1C 43 03 12 00 E1  80 01 1C 43 01 7C 46 02  ...C.......C.|F.
4320: 17 00 27 80 80 9A 43 02  16 00 21 80 80 37 43 03  ..'...C...!..7C.
4330: 12 00 A0 80 01 97 43 02  16 00 07 80 80 47 43 03  ......C......GC.
4340: 12 00 2A 80 01 97 43 02  16 00 02 80 80 57 43 03  ..*...C......WC.
4350: 12 00 E2 80 01 97 43 02  16 00 25 80 80 67 43 03  ......C...%..gC.
4360: 12 00 31 80 01 97 43 02  16 00 26 80 80 77 43 03  ..1...C...&..wC.
4370: 12 00 32 80 01 97 43 02  16 00 27 80 80 87 43 03  ..2...C...'...C.
