# 17723429 - Amarefice

## Common Data

| Field            | Value                         |
|------------------|-------------------------------|
| Zone             | Northern San d'Oria (ID: 231) |
| Block Size       | 508 bytes                     |
| Total Events     | 7                             |
| References Count | 18                            |

## List of Events

| Event ID              | Entrypoint   |   Size |   Instructions |
|-----------------------|--------------|--------|----------------|
| [65535](#event-65535) | 0x0000       |      1 |              1 |
| [624](#event-624)     | 0x0001       |    380 |             90 |
| [559](#event-559)     | 0x017D       |      6 |              4 |
| [856](#event-856)     | 0x0183       |      1 |              1 |
| [858](#event-858)     | 0x0184       |      1 |              1 |
| [859](#event-859)     | 0x0185       |      1 |              1 |
| [860](#event-860)     | 0x0186       |      1 |              1 |

## DAT References (imed_data)

|   Index | Hex Value   |   Dec Value |
|---------|-------------|-------------|
|       0 | 0x0001      |           1 |
|       1 | 0x1B4C      |        6988 |
|       2 | 0x0002      |           2 |
|       3 | 0x0000      |           0 |
|       4 | 0x1B9A      |        7066 |
|       5 | 0x1B9C      |        7068 |
|       6 | 0x00C8      |         200 |
|       7 | 0x005A      |          90 |
|       8 | 0x1B9D      |        7069 |
|       9 | 0x1B51      |        6993 |
|      10 | 0x1B77      |        7031 |
|      11 | 0x1B55      |        6997 |
|      12 | 0x1B54      |        6996 |
|      13 | 0x1B53      |        6995 |
|      14 | 0x1B52      |        6994 |
|      15 | 0x1B9E      |        7070 |
|      16 | 0x1B99      |        7065 |
|      17 | 0x2CFA      |       11514 |

## String References

- **6988**: Request...? [[Advanced synthesis/Synthesis/Synthesis] image support./Information on synthesis materials./Nothing.]
- **6993**: Necessary skills: [Fishing/Woodworking/Smithing/Goldsmithing/Clothcraft/Leatherworking/Bonecraft/Alchemy/Cooking][ /, Woodworking/, Smithing/, Goldsmithing/, Clothcraft/, Leatherworking/, Bonecraft/, Alchemy/, Cooking][ /, Woodworking/, Smithing/, Goldsmithing/, Clothcraft/, Leatherworking/, Bonecraft/, Alchemy/, Cooking][ /, & Woodworking/, & Smithing/, & Goldsmithing/, & Clothcraft/, & Leatherworking/, & Bonecraft/, & Alchemy/, & Cooking] Necessary crystal: $4 Necessary items:
- **6994**: $4 x $0 $5 x $0$0 $6 x $0 $7 x $0$3
- **6995**: $4 x $0 $5 x $0$0 $6 x $0
- **6996**: $4 x $0 $5 x $0$0
- **6997**: $4 x $0
- **7031**: Necessary skills: [Fishing/Woodworking/Smithing/Goldsmithing/Clothcraft/Leatherworking/Bonecraft/Alchemy/Cooking][ /, Woodworking/, Smithing/, Goldsmithing/, Clothcraft/, Leatherworking/, Bonecraft/, Alchemy/, Cooking][ /, Woodworking/, Smithing/, Goldsmithing/, Clothcraft/, Leatherworking/, Bonecraft/, Alchemy/, Cooking][ /, & Woodworking/, & Smithing/, & Goldsmithing/, & Clothcraft/, & Leatherworking/, & Bonecraft/, & Alchemy/, & Cooking] Necessary crystal: $4 Necessary key item: $3 Necessary items:
- **7065**: <Sigh>... When is tha' guildmaster of ours gonna stand up tae old Ulycille?
- **7066**: Hey, somebody has already 'elped ye!
- **7068**: There we are. Now close yer eyes...
- **7069**: An adventurer like ye would be best off wit' $0. Ah make it wit these...
- **7070**: If ye want tae make somethin' fancy, ask Ulycille. Anything else, ask me. But bide away from Ramua. She makes too mannae mistakes.
- **11514**: An adventurer, are you? This is one of the finest workshops in the land. Of course, much depends on you.

## Events

### Event 65535

#### Metadata

| Field        | Value   |
|--------------|---------|
| Entrypoint   | 0x0000  |
| Data Size    | 1 bytes |
| Instructions | 1       |

```
      00 01 02 03 04 05 06 07  08 09 0A 0B 0C 0D 0E 0F
      -- -- -- -- -- -- -- --  -- -- -- -- -- -- -- --
0000: 00                                                .               
```

#### Opcodes

```
  0: 0x0000 [0x00] END_REQSTACK()
```

### Event 624

#### Metadata

| Field        | Value     |
|--------------|-----------|
| Entrypoint   | 0x0001    |
| Data Size    | 380 bytes |
| Instructions | 90        |

```
      00 01 02 03 04 05 06 07  08 09 0A 0B 0C 0D 0E 0F
      -- -- -- -- -- -- -- --  -- -- -- -- -- -- -- --
0000:    3E 05 10 00 80 77 01  24 01 80 02 80 03 80 25   >....w.$......%
0010: 02 00 10 03 80 00 59 00  02 07 10 03 80 01 27 00  ......Y.......'.
0020: 1D 04 80 23 01 56 00 1D  05 80 23 42 45 06 80 F8  ...#.V....#BE...
0030: FF FF 7F F8 FF FF 7F 66  64 6F 31 03 80 1C 07 80  .......fdo1.....
0040: 45 06 80 F8 FF FF 7F F8  FF FF 7F 66 64 69 31 03  E..........fdi1.
0050: 80 03 01 10 00 80 01 74  01 02 00 10 00 80 00 69  .......t.......i
0060: 01 03 08 10 00 80 8C 00  08 10 03 10 04 10 8C 01  ................
0070: 03 02 10 40 10 1D 08 80  23 03 03 10 41 10 03 04  ...@....#...A...
0080: 10 42 10 03 05 10 43 10  03 06 10 44 10 03 07 10  .B....C....D....
0090: 55 10 02 07 10 03 80 00  A1 00 48 09 80 23 01 A5  U.........H..#..
00A0: 00 48 0A 80 23 03 02 10  45 10 03 03 10 46 10 03  .H..#...E....F..
00B0: 04 10 47 10 03 05 10 48  10 03 06 10 4D 10 03 07  ..G....H....M...
00C0: 10 4E 10 03 08 10 4F 10  03 09 10 50 10 02 07 10  .N....O....P....
00D0: 03 80 00 DC 00 48 0B 80  23 01 62 01 02 08 10 03  .....H..#.b.....
00E0: 80 00 EB 00 48 0C 80 23  01 62 01 02 09 10 03 80  ....H..#.b......
00F0: 00 FA 00 48 0D 80 23 01  62 01 48 0E 80 23 03 02  ...H..#.b.H..#..
0100: 10 49 10 03 03 10 4A 10  03 04 10 4B 10 03 05 10  .I....J....K....
0110: 4C 10 03 06 10 51 10 03  07 10 52 10 03 08 10 53  L....Q....R....S
0120: 10 03 09 10 54 10 02 06  10 03 80 00 31 01 01 62  ....T.......1..b
0130: 01 02 07 10 03 80 00 40  01 48 0B 80 23 01 62 01  .......@.H..#.b.
0140: 02 08 10 03 80 00 4F 01  48 0C 80 23 01 62 01 02  ......O.H..#.b..
0150: 09 10 03 80 00 5E 01 48  0D 80 23 01 62 01 48 0E  .....^.H..#.b.H.
0160: 80 23 1D 0F 80 23 01 74  01 02 00 10 02 80 00 74  .#...#.t.......t
0170: 01 01 74 01 01 7B 01 1D  10 80 23 21 00           ..t..{....#!.   
```

#### Opcodes

```
  0: 0x0001 [0x3E] IF !(Work_Zone[5] bit 1*) GOTO 0x0177
  1: 0x0008 [0x24] CREATE_DIALOG(message_id=6988*, default_option=2*, option_flags=0*)
    → "Request...? [[Advanced synthesis/Synthesis/Synthesis] image support./Information on synthesis materials./Nothing.]"
  2: 0x000F [0x25] WAIT_DIALOG_SELECT()
  3: 0x0010 [0x02] IF !(Work_Zone[0] == 0*) GOTO 0x0059
  4: 0x0018 [0x02] IF !(Work_Zone[7] == 0*) GOTO 0x0027
  5: 0x0020 [0x1D] PRINT_EVENT_MESSAGE(message_id=7066*)
    → "Hey, somebody has already 'elped ye!"
  6: 0x0023 [0x23] WAIT_FOR_DIALOG_INTERACTION
  7: 0x0024 [0x01] GOTO 0x0056
  8: 0x0027 [0x1D] PRINT_EVENT_MESSAGE(message_id=7068*)
    → "There we are. Now close yer eyes..."
  9: 0x002A [0x23] WAIT_FOR_DIALOG_INTERACTION
 10: 0x002B [0x42] SET_CLI_EVENT_CANCEL_DATA()
 11: 0x002C [0x45] LOAD_SCHEDULED_TASK: Load scheduler "fdo1" with entities [EventEntity, EventEntity], work=[200*, 0*]
 12: 0x003D [0x1C] WAIT(90* ticks)
 13: 0x0040 [0x45] LOAD_SCHEDULED_TASK: Load scheduler "fdi1" with entities [EventEntity, EventEntity], work=[200*, 0*]
 14: 0x0051 [0x03] Work_Zone[1] = 1*

SUBROUTINE_0056:
 15: 0x0056 [0x01] GOTO 0x0174
 16: 0x0059 [0x02] IF !(Work_Zone[0] == 1*) GOTO 0x0169
 17: 0x0061 [0x03] Work_Zone[8] = 1*
 18: 0x0066 [0x8C] CRAFTING_HANDLER(mode=0x00) // Initialize crafting session
 19: 0x006E [0x8C] CRAFTING_HANDLER(mode=0x01) // End crafting session
 20: 0x0070 [0x03] Work_Zone[2] = Work_Zone[64]
 21: 0x0075 [0x1D] PRINT_EVENT_MESSAGE(message_id=7069*)
    → "An adventurer like ye would be best off wit' $0. Ah make it wit these..."
 22: 0x0078 [0x23] WAIT_FOR_DIALOG_INTERACTION
 23: 0x0079 [0x03] Work_Zone[3] = Work_Zone[65]
 24: 0x007E [0x03] Work_Zone[4] = Work_Zone[66]
 25: 0x0083 [0x03] Work_Zone[5] = Work_Zone[67]
 26: 0x0088 [0x03] Work_Zone[6] = Work_Zone[68]
 27: 0x008D [0x03] Work_Zone[7] = Work_Zone[85]
 28: 0x0092 [0x02] IF !(Work_Zone[7] == 0*) GOTO 0x00A1
 29: 0x009A [0x48] [System] [6993*]:
    → "Necessary skills: [Fishing/Woodworking/Smithing/Goldsmithing/Clothcraft/Leatherworking/Bonecraft/Alchemy/Cooking][ /, Woodworking/, Smithing/, Goldsmithing/, Clothcraft/, Leatherworking/, Bonecraft/, Alchemy/, Cooking][ /, Woodworking/, Smithing/, Goldsmithing/, Clothcraft/, Leatherworking/, Bonecraft/, Alchemy/, Cooking][ /, & Woodworking/, & Smithing/, & Goldsmithing/, & Clothcraft/, & Leatherworking/, & Bonecraft/, & Alchemy/, & Cooking] Necessary crystal: $4 Necessary items:"
 30: 0x009D [0x23] WAIT_FOR_DIALOG_INTERACTION
 31: 0x009E [0x01] GOTO 0x00A5
 32: 0x00A1 [0x48] [System] [7031*]:
    → "Necessary skills: [Fishing/Woodworking/Smithing/Goldsmithing/Clothcraft/Leatherworking/Bonecraft/Alchemy/Cooking][ /, Woodworking/, Smithing/, Goldsmithing/, Clothcraft/, Leatherworking/, Bonecraft/, Alchemy/, Cooking][ /, Woodworking/, Smithing/, Goldsmithing/, Clothcraft/, Leatherworking/, Bonecraft/, Alchemy/, Cooking][ /, & Woodworking/, & Smithing/, & Goldsmithing/, & Clothcraft/, & Leatherworking/, & Bonecraft/, & Alchemy/, & Cooking] Necessary crystal: $4 Necessary key item: $3 Necessary items:"
 33: 0x00A4 [0x23] WAIT_FOR_DIALOG_INTERACTION

SUBROUTINE_00A5:
 34: 0x00A5 [0x03] Work_Zone[2] = Work_Zone[69]
 35: 0x00AA [0x03] Work_Zone[3] = Work_Zone[70]
 36: 0x00AF [0x03] Work_Zone[4] = Work_Zone[71]
 37: 0x00B4 [0x03] Work_Zone[5] = Work_Zone[72]
 38: 0x00B9 [0x03] Work_Zone[6] = Work_Zone[77]
 39: 0x00BE [0x03] Work_Zone[7] = Work_Zone[78]
 40: 0x00C3 [0x03] Work_Zone[8] = Work_Zone[79]
 41: 0x00C8 [0x03] Work_Zone[9] = Work_Zone[80]
 42: 0x00CD [0x02] IF !(Work_Zone[7] == 0*) GOTO 0x00DC
 43: 0x00D5 [0x48] [System] [6997*]:
    → "$4 x $0"
 44: 0x00D8 [0x23] WAIT_FOR_DIALOG_INTERACTION
 45: 0x00D9 [0x01] GOTO 0x0162
 46: 0x00DC [0x02] IF !(Work_Zone[8] == 0*) GOTO 0x00EB
 47: 0x00E4 [0x48] [System] [6996*]:
    → "$4 x $0 $5 x $0$0"
 48: 0x00E7 [0x23] WAIT_FOR_DIALOG_INTERACTION
 49: 0x00E8 [0x01] GOTO 0x0162
 50: 0x00EB [0x02] IF !(Work_Zone[9] == 0*) GOTO 0x00FA
 51: 0x00F3 [0x48] [System] [6995*]:
    → "$4 x $0 $5 x $0$0 $6 x $0"
 52: 0x00F6 [0x23] WAIT_FOR_DIALOG_INTERACTION
 53: 0x00F7 [0x01] GOTO 0x0162
 54: 0x00FA [0x48] [System] [6994*]:
    → "$4 x $0 $5 x $0$0 $6 x $0 $7 x $0$3"
 55: 0x00FD [0x23] WAIT_FOR_DIALOG_INTERACTION
 56: 0x00FE [0x03] Work_Zone[2] = Work_Zone[73]
 57: 0x0103 [0x03] Work_Zone[3] = Work_Zone[74]
 58: 0x0108 [0x03] Work_Zone[4] = Work_Zone[75]
 59: 0x010D [0x03] Work_Zone[5] = Work_Zone[76]
 60: 0x0112 [0x03] Work_Zone[6] = Work_Zone[81]
 61: 0x0117 [0x03] Work_Zone[7] = Work_Zone[82]
 62: 0x011C [0x03] Work_Zone[8] = Work_Zone[83]
 63: 0x0121 [0x03] Work_Zone[9] = Work_Zone[84]
 64: 0x0126 [0x02] IF !(Work_Zone[6] == 0*) GOTO 0x0131
 65: 0x012E [0x01] GOTO 0x0162
 66: 0x0131 [0x02] IF !(Work_Zone[7] == 0*) GOTO 0x0140
 67: 0x0139 [0x48] [System] [6997*]:
    → "$4 x $0"
 68: 0x013C [0x23] WAIT_FOR_DIALOG_INTERACTION
 69: 0x013D [0x01] GOTO 0x0162
 70: 0x0140 [0x02] IF !(Work_Zone[8] == 0*) GOTO 0x014F
 71: 0x0148 [0x48] [System] [6996*]:
    → "$4 x $0 $5 x $0$0"
 72: 0x014B [0x23] WAIT_FOR_DIALOG_INTERACTION
 73: 0x014C [0x01] GOTO 0x0162
 74: 0x014F [0x02] IF !(Work_Zone[9] == 0*) GOTO 0x015E
 75: 0x0157 [0x48] [System] [6995*]:
    → "$4 x $0 $5 x $0$0 $6 x $0"
 76: 0x015A [0x23] WAIT_FOR_DIALOG_INTERACTION
 77: 0x015B [0x01] GOTO 0x0162
 78: 0x015E [0x48] [System] [6994*]:
    → "$4 x $0 $5 x $0$0 $6 x $0 $7 x $0$3"
 79: 0x0161 [0x23] WAIT_FOR_DIALOG_INTERACTION

SUBROUTINE_0162:
 80: 0x0162 [0x1D] PRINT_EVENT_MESSAGE(message_id=7070*)
    → "If ye want tae make somethin' fancy, ask Ulycille. Anything else, ask me. But bide away from Ramua. She makes too mannae mistakes."
 81: 0x0165 [0x23] WAIT_FOR_DIALOG_INTERACTION
 82: 0x0166 [0x01] GOTO 0x0174
 83: 0x0169 [0x02] IF !(Work_Zone[0] == 2*) GOTO 0x0174
 84: 0x0171 [0x01] GOTO 0x0174

SUBROUTINE_0174:
 85: 0x0174 [0x01] GOTO 0x017B
 86: 0x0177 [0x1D] PRINT_EVENT_MESSAGE(message_id=7065*)
    → "<Sigh>... When is tha' guildmaster of ours gonna stand up tae old Ulycille?"
 87: 0x017A [0x23] WAIT_FOR_DIALOG_INTERACTION

SUBROUTINE_017B:
 88: 0x017B [0x21] END_EVENT
 89: 0x017C [0x00] END_REQSTACK()
```

### Event 559

#### Metadata

| Field        | Value   |
|--------------|---------|
| Entrypoint   | 0x017D  |
| Data Size    | 6 bytes |
| Instructions | 4       |

```
      00 01 02 03 04 05 06 07  08 09 0A 0B 0C 0D 0E 0F
      -- -- -- -- -- -- -- --  -- -- -- -- -- -- -- --
0170:                                         1D 11 80               ...
0180: 23 21 00                                          #!.             
```

#### Opcodes

```
  0: 0x017D [0x1D] PRINT_EVENT_MESSAGE(message_id=11514*)
    → "An adventurer, are you? This is one of the finest workshops in the land. Of course, much depends on you."
  1: 0x0180 [0x23] WAIT_FOR_DIALOG_INTERACTION
  2: 0x0181 [0x21] END_EVENT
  3: 0x0182 [0x00] END_REQSTACK()
```

### Event 856

#### Metadata

| Field        | Value   |
|--------------|---------|
| Entrypoint   | 0x0183  |
| Data Size    | 1 bytes |
| Instructions | 1       |

```
      00 01 02 03 04 05 06 07  08 09 0A 0B 0C 0D 0E 0F
      -- -- -- -- -- -- -- --  -- -- -- -- -- -- -- --
0180:          00                                          .            
```

#### Opcodes

```
  0: 0x0183 [0x00] END_REQSTACK()
```

### Event 858

#### Metadata

| Field        | Value   |
|--------------|---------|
| Entrypoint   | 0x0184  |
| Data Size    | 1 bytes |
| Instructions | 1       |

```
      00 01 02 03 04 05 06 07  08 09 0A 0B 0C 0D 0E 0F
      -- -- -- -- -- -- -- --  -- -- -- -- -- -- -- --
0180:             00                                        .           
```

#### Opcodes

```
  0: 0x0184 [0x00] END_REQSTACK()
```

### Event 859

#### Metadata

| Field        | Value   |
|--------------|---------|
| Entrypoint   | 0x0185  |
| Data Size    | 1 bytes |
| Instructions | 1       |

```
      00 01 02 03 04 05 06 07  08 09 0A 0B 0C 0D 0E 0F
      -- -- -- -- -- -- -- --  -- -- -- -- -- -- -- --
0180:                00                                      .          
```

#### Opcodes

```
  0: 0x0185 [0x00] END_REQSTACK()
```

### Event 860

#### Metadata

| Field        | Value   |
|--------------|---------|
| Entrypoint   | 0x0186  |
| Data Size    | 1 bytes |
| Instructions | 1       |

```
      00 01 02 03 04 05 06 07  08 09 0A 0B 0C 0D 0E 0F
      -- -- -- -- -- -- -- --  -- -- -- -- -- -- -- --
0180:                   00                                    .         
```

#### Opcodes

```
  0: 0x0186 [0x00] END_REQSTACK()
```
