# 17723628 - Andreas

## Common Data

| Field            | Value                         |
|------------------|-------------------------------|
| Zone             | Northern San d'Oria (ID: 231) |
| Block Size       | 4748 bytes                    |
| Total Events     | 7                             |
| References Count | 213                           |

## List of Events

| Event ID              | Entrypoint   |   Size |   Instructions |
|-----------------------|--------------|--------|----------------|
| [65535](#event-65535) | 0x0000       |      6 |              2 |
| [856](#event-856)     | 0x0006       |      1 |              1 |
| [858](#event-858)     | 0x0007       |      1 |              1 |
| [859](#event-859)     | 0x0008       |      1 |              1 |
| [860](#event-860)     | 0x0009       |      1 |              1 |
| [732](#event-732)     | 0x000A       |     17 |              7 |
| [731](#event-731)     | 0x001B       |   3823 |            815 |

## DAT References (imed_data)

|   Index | Hex Value   |   Dec Value |
|---------|-------------|-------------|
|       0 | 0x0001      |           1 |
|       1 | 0x1B70      |        7024 |
|       2 | 0x1B56      |        6998 |
|       3 | 0xFFFFFFFF  |  4294967295 |
|       4 | 0x0028      |          40 |
|       5 | 0x000A      |          10 |
|       6 | 0x1B57      |        6999 |
|       7 | 0x40000000  |  1073741824 |
|       8 | 0x1B5E      |        7006 |
|       9 | 0x1B5F      |        7007 |
|      10 | 0x1B60      |        7008 |
|      11 | 0x1B61      |        7009 |
|      12 | 0x1B62      |        7010 |
|      13 | 0x1B63      |        7011 |
|      14 | 0x1B5B      |        7003 |
|      15 | 0x0000      |           0 |
|      16 | 0x1B58      |        7000 |
|      17 | 0x1B59      |        7001 |
|      18 | 0x1B5A      |        7002 |
|      19 | 0x1B5C      |        7004 |
|      20 | 0x1B67      |        7015 |
|      21 | 0x1B66      |        7014 |
|      22 | 0x1B68      |        7016 |
|      23 | 0x2710      |       10000 |
|      24 | 0x30D40     |      200000 |
|      25 | 0x13880     |       80000 |
|      26 | 0xC350      |       50000 |
|      27 | 0x3A98      |       15000 |
|      28 | 0x0002      |           2 |
|      29 | 0x0009      |           9 |
|      30 | 0x426A      |       17002 |
|      31 | 0x3773      |       14195 |
|      32 | 0x3840      |       14400 |
|      33 | 0x00BF      |         191 |
|      34 | 0x3C5C      |       15452 |
|      35 | 0x0154      |         340 |
|      36 | 0x0E56      |        3670 |
|      37 | 0x0D02      |        3330 |
|      38 | 0x0003      |           3 |
|      39 | 0x39EE      |       14830 |
|      40 | 0x3838      |       14392 |
|      41 | 0x001C      |          28 |
|      42 | 0x3C54      |       15444 |
|      43 | 0x0155      |         341 |
|      44 | 0x3DCB      |       15819 |
|      45 | 0x0E58      |        3672 |
|      46 | 0x0D03      |        3331 |
|      47 | 0x39EF      |       14831 |
|      48 | 0x3839      |       14393 |
|      49 | 0x0099      |         153 |
|      50 | 0x3C55      |       15445 |
|      51 | 0x014E      |         334 |
|      52 | 0x3DCC      |       15820 |
|      53 | 0x0E4D      |        3661 |
|      54 | 0x0CFC      |        3324 |
|      55 | 0x3679      |       13945 |
|      56 | 0x383A      |       14394 |
|      57 | 0x0097      |         151 |
|      58 | 0x3C56      |       15446 |
|      59 | 0x014F      |         335 |
|      60 | 0x3DCD      |       15821 |
|      61 | 0x0E0B      |        3595 |
|      62 | 0x0CFD      |        3325 |
|      63 | 0x0004      |           4 |
|      64 | 0x367A      |       13946 |
|      65 | 0x383B      |       14395 |
|      66 | 0x00C6      |         198 |
|      67 | 0x3C57      |       15447 |
|      68 | 0x0151      |         337 |
|      69 | 0x3DCE      |       15822 |
|      70 | 0x0E51      |        3665 |
|      71 | 0x0CFF      |        3327 |
|      72 | 0x0005      |           5 |
|      73 | 0x39F0      |       14832 |
|      74 | 0x383C      |       14396 |
|      75 | 0x00CA      |         202 |
|      76 | 0x3C58      |       15448 |
|      77 | 0x0153      |         339 |
|      78 | 0x3DCF      |       15823 |
|      79 | 0x0E54      |        3668 |
|      80 | 0x0D01      |        3329 |
|      81 | 0x0006      |           6 |
|      82 | 0x367B      |       13947 |
|      83 | 0x383D      |       14397 |
|      84 | 0x008E      |         142 |
|      85 | 0x3C59      |       15449 |
|      86 | 0x0150      |         336 |
|      87 | 0x3DD0      |       15824 |
|      88 | 0x0E4F      |        3663 |
|      89 | 0x0CFE      |        3326 |
|      90 | 0x0007      |           7 |
|      91 | 0x42A2      |       17058 |
|      92 | 0x383E      |       14398 |
|      93 | 0x0086      |         134 |
|      94 | 0x3C5A      |       15450 |
|      95 | 0x0156      |         342 |
|      96 | 0x3DD1      |       15825 |
|      97 | 0x0E5A      |        3674 |
|      98 | 0x0D04      |        3332 |
|      99 | 0x0008      |           8 |
|     100 | 0x367C      |       13948 |
|     101 | 0x383F      |       14399 |
|     102 | 0x0089      |         137 |
|     103 | 0x3C5B      |       15451 |
|     104 | 0x0152      |         338 |
|     105 | 0x3DD2      |       15826 |
|     106 | 0x0E53      |        3667 |
|     107 | 0x0D00      |        3328 |
|     108 | 0x000B      |          11 |
|     109 | 0x0032      |          50 |
|     110 | 0x003C      |          60 |
|     111 | 0x0046      |          70 |
|     112 | 0x0050      |          80 |
|     113 | 0x0064      |         100 |
|     114 | 0x006E      |         110 |
|     115 | 0x000C      |          12 |
|     116 | 0x07FC      |        2044 |
|     117 | 0x1B6D      |        7021 |
|     118 | 0x108E      |        4238 |
|     119 | 0x108F      |        4239 |
|     120 | 0x1090      |        4240 |
|     121 | 0x1091      |        4241 |
|     122 | 0x1092      |        4242 |
|     123 | 0x1093      |        4243 |
|     124 | 0x1094      |        4244 |
|     125 | 0x1095      |        4245 |
|     126 | 0x1B6E      |        7022 |
|     127 | 0x00C8      |         200 |
|     128 | 0x196A      |        6506 |
|     129 | 0x196B      |        6507 |
|     130 | 0x196C      |        6508 |
|     131 | 0x196D      |        6509 |
|     132 | 0x196E      |        6510 |
|     133 | 0x196F      |        6511 |
|     134 | 0x1970      |        6512 |
|     135 | 0x1971      |        6513 |
|     136 | 0x1B6F      |        7023 |
|     137 | 0x01C2      |         450 |
|     138 | 0x05DC      |        1500 |
|     139 | 0x11170     |       70000 |
|     140 | 0x186A0     |      100000 |
|     141 | 0x249F0     |      150000 |
|     142 | 0x00FE      |         254 |
|     143 | 0x07B8      |        1976 |
|     144 | 0x7530      |       30000 |
|     145 | 0x07B9      |        1977 |
|     146 | 0x17318     |       95000 |
|     147 | 0x07BA      |        1978 |
|     148 | 0x1C138     |      115000 |
|     149 | 0x07BB      |        1979 |
|     150 | 0x4E20      |       20000 |
|     151 | 0x07C0      |        1984 |
|     152 | 0x9C40      |       40000 |
|     153 | 0x07C1      |        1985 |
|     154 | 0x07C2      |        1986 |
|     155 | 0x07C3      |        1987 |
|     156 | 0x07C4      |        1988 |
|     157 | 0x07C8      |        1992 |
|     158 | 0x07C9      |        1993 |
|     159 | 0x07CA      |        1994 |
|     160 | 0x07CB      |        1995 |
|     161 | 0x07CC      |        1996 |
|     162 | 0x07D0      |        2000 |
|     163 | 0x07D1      |        2001 |
|     164 | 0x07D2      |        2002 |
|     165 | 0x07D3      |        2003 |
|     166 | 0x07D8      |        2008 |
|     167 | 0x07D9      |        2009 |
|     168 | 0x07DA      |        2010 |
|     169 | 0x07DB      |        2011 |
|     170 | 0x07DC      |        2012 |
|     171 | 0x07E0      |        2016 |
|     172 | 0x07E1      |        2017 |
|     173 | 0x07E2      |        2018 |
|     174 | 0x07E3      |        2019 |
|     175 | 0x07E8      |        2024 |
|     176 | 0x07E9      |        2025 |
|     177 | 0x07EA      |        2026 |
|     178 | 0x07EB      |        2027 |
|     179 | 0x07F0      |        2032 |
|     180 | 0x07F1      |        2033 |
|     181 | 0x07F2      |        2034 |
|     182 | 0x07F3      |        2035 |
|     183 | 0x07F4      |        2036 |
|     184 | 0x07F5      |        2037 |
|     185 | 0x07F7      |        2039 |
|     186 | 0x07F8      |        2040 |
|     187 | 0x07F9      |        2041 |
|     188 | 0x07FA      |        2042 |
|     189 | 0x1F40      |        8000 |
|     190 | 0x07FB      |        2043 |
|     191 | 0x1B78      |        7032 |
|     192 | 0x1B79      |        7033 |
|     193 | 0x1B76      |        7030 |
|     194 | 0x0018      |          24 |
|     195 | 0x0D80      |        3456 |
|     196 | 0x0019      |          25 |
|     197 | 0x1B69      |        7017 |
|     198 | 0x1B6A      |        7018 |
|     199 | 0x001F      |          31 |
|     200 | 0x1B6C      |        7020 |
|     201 | 0x1B6B      |        7019 |
|     202 | 0x1B74      |        7028 |
|     203 | 0x1B73      |        7027 |
|     204 | 0x1B75      |        7029 |
|     205 | 0x1BAB      |        7083 |
|     206 | 0x1BAC      |        7084 |
|     207 | 0x1BAD      |        7085 |
|     208 | 0x1BB5      |        7093 |
|     209 | 0x1BF7      |        7159 |
|     210 | 0x1BF8      |        7160 |
|     211 | 0x1C00      |        7168 |
|     212 | 0x1C01      |        7169 |

## String References

- **6998**: Hello, [sir/ma'am]. I have been appointed by the Guildworkers' Union to manage the trading of manufactured crafts and the exchange of guild points.
- **6999**: However, to assure product quality, I cannot carry out any business with those who rank lower than novice.
- **7000**: I see that you currently have a trading contract with the [Fishermen's/Carpenters'/Blacksmiths'/Goldsmiths'/Weavers'/Tanners'/Boneworkers'/Alchemists'/Culinarians'] Guild. I'm sorry, but I cannot do any business with you.
- **7001**: You do have the option to terminate your contract with the [Fishermen's/Carpenters'/Blacksmiths'/Goldsmiths'/Weavers'/Tanners'/Boneworkers'/Alchemists'/Culinarians'] Guild and form one with us.
- **7002**: After signing a new contract, you will have to wait until the next delivery phase to trade Guildworkers' Union requested items.
- **7003**: Create a new contract with us? [Immediately./Not today.]
- **7004**: Are you certain? [I said, "Immediately."/On second thought...]
- **7006**: Our system works like this. We will ask you to provide us with a certain item depending on your craft skill rank. There is a set time limit (one day, Earth time) in which you may bring as many of the item as you can synthesize.
- **7007**: If you happen to create a high quality version of the requested item, we will be more than delighted to accept that as well.
- **7008**: Trading us these items will earn you "guild points" which can be later exchanged for other specialty goods--some of which are found exclusively at this guild.
- **7009**: The amount of guild points you will receive varies with the item requested, and there is a limit to how many points you can accumulate during the designated time frame. Trading items after you have reached the limit will result in no points gained.
- **7010**: When the time limit has expired, the item requested by the guild will change. It will also change in the event your craft skill rises.
- **7011**: I see that you have not formed a trading contract with any of the other guilds.
- **7014**: The current requested item is $2. You have $0 guild points accumulated.
- **7015**: Currently, no items are being requested by the guild. You have $0 guild points accumulated.
- **7016**: Is there something you need? [I'm just passing through./I would like to use my points./What are the current limits?/How does the trade system work?]
- **7017**: You have $0 more days (Vana'diel time) to provide us with the requested item.
- **7018**: Today (Vana'diel time) is the final day we will accept the requested item.
- **7019**: You can still receive up to $3 guild points by trading us the item before the time limit is up.
- **7020**: You are not eligible to receive guild points at this time.
- **7024**: Yes, this is what we are asking for. Good work, <Player>!
- **7027**: Trade $1 guild points for $0?
- **7028**: How many do you wish to trade for?
- **7029**: Trade $1 guild points for $2 $0 ?
- **7030**: Proceed with the transaction? (GP: $ ) [Yes./No.]
- **7032**: Exchange points for... [None of these./3($1)./$3($3)./$3($5)./$3($7)./$3($9)./$3($11)./$3($13).]
- **7033**: Trade $1 guild points for $3?
- **7083**: 3 is a wonderful new method of woodworking that allows you to enchant lumber with the mysterious energy of black magic and anima.
- **7084**: 3 is a wonderful new method of woodworking that allows you to enchant lumber with the mysterious energy of white magic and anima.
- **7085**: 3 is a revolutionary new method of woodworking that allows you to bundle logs together, which lets you process more than one at a time.
- **7093**: 3 is a wonderful new method of woodworking that allows you to bundle lumber together, making it easier to process more bolts with one crystal.
- **7159**: 3 is a wonderful new method of smithing that allows you to enchant metals with the mysterious energy of black magic and anima.
- **7160**: 3 is a wonderful new method of smithing that allows you to enchant metals with the mysterious energy of white magic and anima.
- **7168**: 3 is a wonderful new method of goldsmithing that allows you to shape softened ingots with a mandrel, making it easier to process more chains with one crystal.
- **7169**: 3 is a wonderful new method of goldsmithing that allows you to shape softened ingots on a workshop anvil,making it easier to process more sheets with one crystal.

## Events

### Event 65535

#### Metadata

| Field        | Value   |
|--------------|---------|
| Entrypoint   | 0x0000  |
| Data Size    | 6 bytes |
| Instructions | 2       |

```
      00 01 02 03 04 05 06 07  08 09 0A 0B 0C 0D 0E 0F
      -- -- -- -- -- -- -- --  -- -- -- -- -- -- -- --
0000: 03 03 00 00 80 00                                 ......          
```

#### Opcodes

```
  0: 0x0000 [0x03] ExtData[1]->WorkLocal[3] = 1*
  1: 0x0005 [0x00] END_REQSTACK()
```

### Event 856

#### Metadata

| Field        | Value   |
|--------------|---------|
| Entrypoint   | 0x0006  |
| Data Size    | 1 bytes |
| Instructions | 1       |

```
      00 01 02 03 04 05 06 07  08 09 0A 0B 0C 0D 0E 0F
      -- -- -- -- -- -- -- --  -- -- -- -- -- -- -- --
0000:                   00                                    .         
```

#### Opcodes

```
  0: 0x0006 [0x00] END_REQSTACK()
```

### Event 858

#### Metadata

| Field        | Value   |
|--------------|---------|
| Entrypoint   | 0x0007  |
| Data Size    | 1 bytes |
| Instructions | 1       |

```
      00 01 02 03 04 05 06 07  08 09 0A 0B 0C 0D 0E 0F
      -- -- -- -- -- -- -- --  -- -- -- -- -- -- -- --
0000:                      00                                  .        
```

#### Opcodes

```
  0: 0x0007 [0x00] END_REQSTACK()
```

### Event 859

#### Metadata

| Field        | Value   |
|--------------|---------|
| Entrypoint   | 0x0008  |
| Data Size    | 1 bytes |
| Instructions | 1       |

```
      00 01 02 03 04 05 06 07  08 09 0A 0B 0C 0D 0E 0F
      -- -- -- -- -- -- -- --  -- -- -- -- -- -- -- --
0000:                          00                               .       
```

#### Opcodes

```
  0: 0x0008 [0x00] END_REQSTACK()
```

### Event 860

#### Metadata

| Field        | Value   |
|--------------|---------|
| Entrypoint   | 0x0009  |
| Data Size    | 1 bytes |
| Instructions | 1       |

```
      00 01 02 03 04 05 06 07  08 09 0A 0B 0C 0D 0E 0F
      -- -- -- -- -- -- -- --  -- -- -- -- -- -- -- --
0000:                             00                             .      
```

#### Opcodes

```
  0: 0x0009 [0x00] END_REQSTACK()
```

### Event 732

#### Metadata

| Field        | Value    |
|--------------|----------|
| Entrypoint   | 0x000A   |
| Data Size    | 17 bytes |
| Instructions | 7        |

```
      00 01 02 03 04 05 06 07  08 09 0A 0B 0C 0D 0E 0F
      -- -- -- -- -- -- -- --  -- -- -- -- -- -- -- --
0000:                                42 1E F0 FF FF 7F            B.....
0010: 1D 01 80 23 03 01 10 02  10 21 00                 ...#.....!.     
```

#### Opcodes

```
  0: 0x000A [0x42] SET_CLI_EVENT_CANCEL_DATA()
  1: 0x000B [0x1E] EventEntity looks at LocalPlayer and starts talking
  2: 0x0010 [0x1D] PRINT_EVENT_MESSAGE(message_id=7024*)
    → "Yes, this is what we are asking for. Good work, <Player>!"
  3: 0x0013 [0x23] WAIT_FOR_DIALOG_INTERACTION
  4: 0x0014 [0x03] Work_Zone[1] = Work_Zone[2]
  5: 0x0019 [0x21] END_EVENT
  6: 0x001A [0x00] END_REQSTACK()
```

### Event 731

#### Metadata

| Field        | Value      |
|--------------|------------|
| Entrypoint   | 0x001B     |
| Data Size    | 3823 bytes |
| Instructions | 199        |

```
      00 01 02 03 04 05 06 07  08 09 0A 0B 0C 0D 0E 0F
      -- -- -- -- -- -- -- --  -- -- -- -- -- -- -- --
0010:                                   03 09 00 02 10             .....
0020: 03 0C 00 03 10 03 0A 00  04 10 03 0D 00 05 10 03  ................
0030: 04 00 06 10 03 0E 00 07  10 03 0F 00 08 10 06 10  ................
0040: 00 1E F0 FF FF 7F 1D 02  80 23 02 0C 00 03 80 00  .........#......
0050: B3 00 02 04 00 04 80 03  77 00 03 06 10 04 00 08  ........w.......
0060: 06 10 05 80 15 06 10 05  80 1D 06 80 23 03 01 10  ............#...
0070: 07 80 21 00 01 B0 00 1D  08 80 23 1D 09 80 23 1D  ..!.......#...#.
0080: 0A 80 23 1D 0B 80 23 1D  0C 80 23 1D 0D 80 23 24  ..#...#...#...#$
0090: 0E 80 00 80 0F 80 25 02  00 10 00 80 00 A9 00 03  ......%.........
00A0: 01 10 07 80 21 00 01 A9  00 03 01 10 03 80 21 00  ....!.........!.
00B0: 01 21 01 02 03 10 03 00  01 21 01 02 06 10 04 80  .!.......!......
00C0: 03 DB 00 08 06 10 05 80  15 06 10 05 80 1D 06 80  ................
00D0: 23 03 01 10 07 80 21 00  01 21 01 1D 10 80 23 1D  #.....!..!....#.
00E0: 11 80 23 48 12 80 24 0E  80 00 80 0F 80 25 02 00  ..#H..$......%..
00F0: 10 00 80 00 00 01 03 01  10 07 80 21 00 01 00 01  ...........!....
0100: 24 13 80 00 80 0F 80 25  02 00 10 00 80 00 1A 01  $......%........
0110: 03 01 10 07 80 21 00 01  1A 01 03 01 10 03 80 21  .....!.........!
0120: 00 03 02 10 09 00 03 04  10 0A 00 02 0A 00 0F 80  ................
0130: 00 3A 01 1D 14 80 23 01  3E 01 1D 15 80 23 03 01  .:....#.>....#..
0140: 10 07 80 03 11 00 0F 80  03 12 00 0F 80 03 13 00  ................
0150: 0F 80 24 16 80 11 00 0F  80 25 02 00 10 0F 80 00  ..$......%......
0160: 6C 01 03 01 10 07 80 21  00 01 F0 0D 02 00 10 00  l......!........
0170: 80 00 5F 0D 03 11 00 00  80 06 0B 00 06 05 00 03  .._.............
0180: 01 17 17 80 03 03 17 18  80 03 05 17 19 80 03 07  ................
0190: 17 1A 80 03 09 17 1B 80  02 03 00 0F 80 80 E5 01  ................
01A0: 3C 05 00 00 80 00 80 3C  05 00 1C 80 00 80 3C 05  <......<......<.
01B0: 00 1D 80 00 80 03 02 10  1E 80 03 03 10 1F 80 03  ................
01C0: 04 10 20 80 03 05 10 21  80 03 00 17 22 80 03 02  .. ....!...."...
01D0: 17 23 80 03 04 17 0F 80  03 06 17 24 80 03 08 17  .#.........$....
01E0: 25 80 01 0A 04 02 03 00  00 80 80 24 02 3C 05 00  %..........$.<..
01F0: 26 80 00 80 03 02 10 0F  80 03 03 10 27 80 03 04  &...........'...
0200: 10 28 80 03 05 10 29 80  03 00 17 2A 80 03 02 17  .(....)....*....
0210: 2B 80 03 04 17 2C 80 03  06 17 2D 80 03 08 17 2E  +....,....-.....
0220: 80 01 0A 04 02 03 00 1C  80 80 63 02 3C 05 00 26  ..........c.<..&
0230: 80 00 80 03 02 10 0F 80  03 03 10 2F 80 03 04 10  .........../....
0240: 30 80 03 05 10 31 80 03  00 17 32 80 03 02 17 33  0....1....2....3
0250: 80 03 04 17 34 80 03 06  17 35 80 03 08 17 36 80  ....4....5....6.
0260: 01 0A 04 02 03 00 26 80  80 A2 02 3C 05 00 26 80  ......&....<..&.
0270: 00 80 03 02 10 0F 80 03  03 10 37 80 03 04 10 38  ..........7....8
0280: 80 03 05 10 39 80 03 00  17 3A 80 03 02 17 3B 80  ....9....:....;.
0290: 03 04 17 3C 80 03 06 17  3D 80 03 08 17 3E 80 01  ...<....=....>..
02A0: 0A 04 02 03 00 3F 80 80  E1 02 3C 05 00 26 80 00  .....?....<..&..
02B0: 80 03 02 10 0F 80 03 03  10 40 80 03 04 10 41 80  .........@....A.
02C0: 03 05 10 42 80 03 00 17  43 80 03 02 17 44 80 03  ...B....C....D..
02D0: 04 17 45 80 03 06 17 46  80 03 08 17 47 80 01 0A  ..E....F....G...
02E0: 04 02 03 00 48 80 80 20  03 3C 05 00 26 80 00 80  ....H.. .<..&...
02F0: 03 02 10 0F 80 03 03 10  49 80 03 04 10 4A 80 03  ........I....J..
0300: 05 10 4B 80 03 00 17 4C  80 03 02 17 4D 80 03 04  ..K....L....M...
0310: 17 4E 80 03 06 17 4F 80  03 08 17 50 80 01 0A 04  .N....O....P....
0320: 02 03 00 51 80 80 5F 03  3C 05 00 26 80 00 80 03  ...Q.._.<..&....
0330: 02 10 0F 80 03 03 10 52  80 03 04 10 53 80 03 05  .......R....S...
0340: 10 54 80 03 00 17 55 80  03 02 17 56 80 03 04 17  .T....U....V....
0350: 57 80 03 06 17 58 80 03  08 17 59 80 01 0A 04 02  W....X....Y.....
0360: 03 00 5A 80 80 9E 03 3C  05 00 26 80 00 80 03 02  ..Z....<..&.....
0370: 10 0F 80 03 03 10 5B 80  03 04 10 5C 80 03 05 10  ......[....\....
0380: 5D 80 03 00 17 5E 80 03  02 17 5F 80 03 04 17 60  ]....^...._....`
0390: 80 03 06 17 61 80 03 08  17 62 80 01 0A 04 02 03  ....a....b......
03A0: 00 63 80 80 DD 03 3C 05  00 26 80 00 80 03 02 10  .c....<..&......
03B0: 0F 80 03 03 10 64 80 03  04 10 65 80 03 05 10 66  .....d....e....f
03C0: 80 03 00 17 67 80 03 02  17 68 80 03 04 17 69 80  ....g....h....i.
03D0: 03 06 17 6A 80 03 08 17  6B 80 01 0A 04 03 02 10  ...j....k.......
03E0: 0F 80 03 00 17 0F 80 03  03 10 0F 80 03 04 10 0F  ................
03F0: 80 03 05 10 0F 80 03 02  17 0F 80 03 04 17 0F 80  ................
0400: 03 06 17 0F 80 03 08 17  0F 80 D4 03 26 80 02 10  ............&...
0410: D4 03 3F 80 00 17 D4 03  48 80 03 10 D4 03 51 80  ..?.....H.....Q.
0420: 04 10 D4 03 5A 80 05 10  D4 03 63 80 02 17 D4 03  ....Z.....c.....
0430: 1D 80 04 17 D4 03 05 80  06 17 D4 03 6C 80 08 17  ............l...
0440: 02 04 00 6D 80 03 4F 04  3C 05 00 3F 80 00 80 02  ...m..O.<..?....
0450: 04 00 6E 80 03 5E 04 3C  05 00 48 80 00 80 02 04  ..n..^.<..H.....
0460: 00 6F 80 03 6D 04 3C 05  00 1D 80 00 80 02 04 00  .o..m.<.........
0470: 70 80 03 83 04 3C 05 00  51 80 00 80 3C 05 00 05  p....<..Q...<...
0480: 80 00 80 02 04 00 71 80  03 A0 04 3C 05 00 5A 80  ......q....<..Z.
0490: 00 80 3C 05 00 63 80 00  80 3C 05 00 6C 80 00 80  ..<..c...<..l...
04A0: 02 04 00 72 80 03 AF 04  3C 05 00 1C 80 00 80 02  ...r....<.......
04B0: 0F 00 0F 80 00 BE 04 3C  05 00 73 80 00 80 02 05  .......<..s.....
04C0: 00 74 80 00 C9 04 01 F7  04 D4 02 75 80 12 00 05  .t.........u....
04D0: 00 25 02 00 10 0F 80 00  E5 04 03 12 00 0F 80 01  .%..............
04E0: 52 01 01 59 0D 02 00 10  00 80 00 93 06 03 12 00  R..Y............
04F0: 00 80 03 13 00 0F 80 03  02 10 76 80 03 03 10 77  ..........v....w
0500: 80 03 04 10 78 80 03 05  10 79 80 03 06 10 7A 80  ....x....y....z.
0510: 03 07 10 7B 80 03 08 10  7C 80 03 09 10 7D 80 D4  ...{....|....}..
0520: 03 00 80 02 10 D4 03 1C  80 03 10 D4 03 26 80 04  .............&..
0530: 10 D4 03 3F 80 05 10 D4  03 48 80 06 10 D4 03 51  ...?.....H.....Q
0540: 80 07 10 D4 03 5A 80 08  10 D4 03 63 80 09 10 06  .....Z.....c....
0550: 0B 00 D4 02 7E 80 13 00  0F 80 25 02 00 10 0F 80  ....~.....%.....
0560: 00 6E 05 03 13 00 0F 80  01 74 01 01 85 06 02 00  .n.......t......
0570: 10 00 80 00 90 05 03 06  00 02 10 03 08 00 7F 80  ................
0580: 03 13 00 00 10 03 14 00  00 80 05 0B 00 01 85 06  ................
0590: 02 00 10 1C 80 00 B2 05  03 06 00 03 10 03 08 00  ................
05A0: 7F 80 03 13 00 00 10 03  14 00 00 80 05 0B 00 01  ................
05B0: 85 06 02 00 10 26 80 00  D4 05 03 06 00 04 10 03  .....&..........
05C0: 08 00 7F 80 03 13 00 00  10 03 14 00 00 80 05 0B  ................
05D0: 00 01 85 06 02 00 10 3F  80 00 F6 05 03 06 00 05  .......?........
05E0: 10 03 08 00 7F 80 03 13  00 00 10 03 14 00 00 80  ................
05F0: 05 0B 00 01 85 06 02 00  10 48 80 00 18 06 03 06  .........H......
0600: 00 06 10 03 08 00 7F 80  03 13 00 00 10 03 14 00  ................
0610: 00 80 05 0B 00 01 85 06  02 00 10 51 80 00 3A 06  ...........Q..:.
0620: 03 06 00 07 10 03 08 00  7F 80 03 13 00 00 10 03  ................
0630: 14 00 00 80 05 0B 00 01  85 06 02 00 10 5A 80 00  .............Z..
0640: 5C 06 03 06 00 08 10 03  08 00 7F 80 03 13 00 00  \...............
0650: 10 03 14 00 00 80 05 0B  00 01 85 06 02 00 10 63  ...............c
0660: 80 00 7E 06 03 06 00 09  10 03 08 00 7F 80 03 13  ..~.............
0670: 00 00 10 03 14 00 00 80  05 0B 00 01 85 06 03 01  ................
0680: 10 07 80 21 00 03 15 00  13 00 1A F2 0D 01 F7 04  ...!............
0690: 01 59 0D 02 00 10 1C 80  00 3E 08 03 12 00 1C 80  .Y.......>......
06A0: 03 13 00 0F 80 03 02 10  80 80 03 03 10 81 80 03  ................
06B0: 04 10 82 80 03 05 10 83  80 03 06 10 84 80 03 07  ................
06C0: 10 85 80 03 08 10 86 80  03 09 10 87 80 D4 03 00  ................
06D0: 80 02 10 D4 03 1C 80 03  10 D4 03 26 80 04 10 D4  ...........&....
06E0: 03 3F 80 05 10 D4 03 48  80 06 10 D4 03 51 80 07  .?.....H.....Q..
06F0: 10 D4 03 5A 80 08 10 D4  03 63 80 09 10 D4 02 88  ...Z.....c......
0700: 80 13 00 0F 80 25 02 00  10 0F 80 00 19 07 03 13  .....%..........
0710: 00 0F 80 01 74 01 01 30  08 02 00 10 00 80 00 3B  ....t..0.......;
0720: 07 03 06 00 02 10 03 08  00 89 80 03 14 00 1C 80  ................
0730: 03 13 00 00 10 05 0B 00  01 30 08 02 00 10 1C 80  .........0......
0740: 00 5D 07 03 06 00 03 10  03 08 00 89 80 03 14 00  .]..............
0750: 1C 80 03 13 00 00 10 05  0B 00 01 30 08 02 00 10  ...........0....
0760: 26 80 00 7F 07 03 06 00  04 10 03 08 00 89 80 03  &...............
0770: 14 00 1C 80 03 13 00 00  10 05 0B 00 01 30 08 02  .............0..
0780: 00 10 3F 80 00 A1 07 03  06 00 05 10 03 08 00 89  ..?.............
0790: 80 03 14 00 1C 80 03 13  00 00 10 05 0B 00 01 30  ...............0
07A0: 08 02 00 10 48 80 00 C3  07 03 06 00 06 10 03 08  ....H...........
07B0: 00 89 80 03 14 00 1C 80  03 13 00 00 10 05 0B 00  ................
07C0: 01 30 08 02 00 10 51 80  00 E5 07 03 06 00 07 10  .0....Q.........
07D0: 03 08 00 89 80 03 14 00  1C 80 03 13 00 00 10 05  ................
07E0: 0B 00 01 30 08 02 00 10  5A 80 00 07 08 03 06 00  ...0....Z.......
07F0: 08 10 03 08 00 89 80 03  14 00 1C 80 03 13 00 00  ................
0800: 10 05 0B 00 01 30 08 02  00 10 63 80 00 29 08 03  .....0....c..)..
0810: 06 00 09 10 03 08 00 89  80 03 14 00 1C 80 03 13  ................
0820: 00 00 10 05 0B 00 01 30  08 03 01 10 07 80 21 00  .......0......!.
0830: 03 15 00 13 00 1A F2 0D  01 A5 06 01 59 0D 02 00  ............Y...
0840: 10 26 80 00 68 08 03 12  00 26 80 03 14 00 26 80  .&..h....&....&.
0850: 03 06 00 02 10 03 08 00  8A 80 05 0B 00 03 15 00  ................
0860: 0F 80 1A F2 0D 01 59 0D  02 00 10 3F 80 00 8F 08  ......Y....?....
0870: 03 12 00 3F 80 03 14 00  3F 80 03 06 00 00 17 03  ...?....?.......
0880: 08 00 17 80 03 15 00 0F  80 1A F2 0D 01 59 0D 02  .............Y..
0890: 00 10 48 80 00 B6 08 03  12 00 48 80 03 14 00 48  ..H.......H....H
08A0: 80 03 06 00 03 10 03 08  00 8B 80 03 15 00 0F 80  ................
08B0: 1A F2 0D 01 59 0D 02 00  10 51 80 00 DD 08 03 12  ....Y....Q......
08C0: 00 51 80 03 14 00 51 80  03 06 00 04 10 03 08 00  .Q....Q.........
08D0: 8C 80 03 15 00 0F 80 1A  F2 0D 01 59 0D 02 00 10  ...........Y....
08E0: 5A 80 00 04 09 03 12 00  5A 80 03 14 00 5A 80 03  Z.......Z....Z..
08F0: 06 00 05 10 03 08 00 8D  80 03 15 00 0F 80 1A F2  ................
0900: 0D 01 59 0D 02 00 10 63  80 00 2B 09 03 12 00 63  ..Y....c..+....c
0910: 80 03 14 00 63 80 03 06  00 02 17 03 08 00 18 80  ....c...........
0920: 03 15 00 0F 80 1A F2 0D  01 59 0D 02 00 10 1D 80  .........Y......
0930: 00 52 09 03 12 00 1D 80  03 14 00 1D 80 03 06 00  .R..............
0940: 04 17 03 08 00 19 80 03  15 00 0F 80 1A F2 0D 01  ................
0950: 59 0D 02 00 10 05 80 00  7C 09 03 12 00 05 80 03  Y.......|.......
0960: 14 00 05 80 03 06 00 06  17 03 08 00 1A 80 05 0B  ................
0970: 00 03 15 00 0F 80 1A F2  0D 01 59 0D 02 00 10 6C  ..........Y....l
0980: 80 00 A6 09 03 12 00 6C  80 03 14 00 6C 80 03 06  .......l....l...
0990: 00 08 17 03 08 00 1B 80  05 0B 00 03 15 00 0F 80  ................
09A0: 1A F2 0D 01 59 0D 02 00  10 73 80 00 59 0D 03 12  ....Y....s..Y...
09B0: 00 73 80 03 13 00 0F 80  03 14 00 73 80 02 0F 00  .s.........s....
09C0: 0F 80 00 C8 09 01 74 01  03 05 00 8E 80 03 00 00  ......t.........
09D0: 0F 00 10 00 00 00 80 0F  05 00 00 00 06 02 10 06  ................
09E0: 03 10 06 04 10 06 05 10  06 06 10 06 07 10 06 08  ................
09F0: 10 06 09 10 06 00 17 06  01 17 06 02 17 06 03 17  ................
0A00: 06 04 17 06 05 17 02 03  00 0F 80 80 39 0A 03 02  ............9...
0A10: 10 8F 80 03 03 10 90 80  03 04 10 91 80 03 05 10  ................
0A20: 92 80 03 06 10 93 80 03  07 10 94 80 03 08 10 95  ................
0A30: 80 03 09 10 96 80 01 2B  0C 02 03 00 00 80 80 76  .......+.......v
0A40: 0A 03 02 10 97 80 03 03  10 98 80 03 04 10 99 80  ................
0A50: 03 05 10 98 80 03 06 10  9A 80 03 07 10 17 80 03  ................
0A60: 08 10 9B 80 03 09 10 17  80 03 00 17 9C 80 03 01  ................
0A70: 17 96 80 01 2B 0C 02 03  00 1C 80 80 B3 0A 03 02  ....+...........
0A80: 10 9D 80 03 03 10 98 80  03 04 10 9E 80 03 05 10  ................
0A90: 98 80 03 06 10 9F 80 03  07 10 17 80 03 08 10 A0  ................
0AA0: 80 03 09 10 17 80 03 00  17 A1 80 03 01 17 96 80  ................
0AB0: 01 2B 0C 02 03 00 26 80  80 FA 0A 03 02 10 A2 80  .+....&.........
0AC0: 03 03 10 98 80 03 04 10  A3 80 03 05 10 98 80 03  ................
0AD0: 06 10 9F 80 03 07 10 17  80 03 08 10 A0 80 03 09  ................
0AE0: 10 17 80 03 00 17 A4 80  03 01 17 17 80 03 02 17  ................
0AF0: A5 80 03 03 17 96 80 01  2B 0C 02 03 00 3F 80 80  ........+....?..
0B00: 37 0B 03 02 10 A6 80 03  03 10 98 80 03 04 10 A7  7...............
0B10: 80 03 05 10 98 80 03 06  10 A8 80 03 07 10 17 80  ................
0B20: 03 08 10 A9 80 03 09 10  17 80 03 00 17 AA 80 03  ................
0B30: 01 17 96 80 01 2B 0C 02  03 00 48 80 80 6A 0B 03  .....+....H..j..
0B40: 02 10 AB 80 03 03 10 98  80 03 04 10 AC 80 03 05  ................
0B50: 10 98 80 03 06 10 AD 80  03 07 10 17 80 03 08 10  ................
0B60: AE 80 03 09 10 96 80 01  2B 0C 02 03 00 51 80 80  ........+....Q..
0B70: 9D 0B 03 02 10 AF 80 03  03 10 98 80 03 04 10 B0  ................
0B80: 80 03 05 10 98 80 03 06  10 B1 80 03 07 10 17 80  ................
0B90: 03 08 10 B2 80 03 09 10  96 80 01 2B 0C 02 03 00  ...........+....
0BA0: 5A 80 80 EE 0B 03 02 10  B3 80 03 03 10 96 80 03  Z...............
0BB0: 04 10 B4 80 03 05 10 98  80 03 06 10 B5 80 03 07  ................
0BC0: 10 98 80 03 08 10 B6 80  03 09 10 17 80 03 00 17  ................
0BD0: B7 80 03 01 17 96 80 03  02 17 B8 80 03 03 17 17  ................
0BE0: 80 03 04 17 B9 80 03 05  17 96 80 01 2B 0C 02 03  ............+...
0BF0: 00 63 80 80 2B 0C 03 02  10 BA 80 03 03 10 90 80  .c..+...........
0C00: 03 04 10 BB 80 03 05 10  90 80 03 06 10 BC 80 03  ................
0C10: 07 10 BD 80 03 08 10 BE  80 03 09 10 90 80 03 00  ................
0C20: 17 74 80 03 01 17 96 80  01 2B 0C 05 10 00 24 BF  .t.......+....$.
0C30: 80 13 00 05 00 25 02 00  10 0F 80 00 49 0C 03 13  .....%......I...
0C40: 00 0F 80 01 74 01 01 FF  0C 02 00 10 00 80 00 59  ....t..........Y
0C50: 0C 03 13 00 00 80 01 FF  0C 02 00 10 1C 80 00 73  ...............s
0C60: 0C 03 13 00 1C 80 03 02  10 04 10 03 03 10 05 10  ................
0C70: 01 FF 0C 02 00 10 26 80  00 8D 0C 03 13 00 26 80  ......&.......&.
0C80: 03 02 10 06 10 03 03 10  07 10 01 FF 0C 02 00 10  ................
0C90: 3F 80 00 A7 0C 03 13 00  3F 80 03 02 10 08 10 03  ?.......?.......
0CA0: 03 10 09 10 01 FF 0C 02  00 10 48 80 00 C1 0C 03  ..........H.....
0CB0: 13 00 48 80 03 02 10 00  17 03 03 10 01 17 01 FF  ..H.............
0CC0: 0C 02 00 10 51 80 00 DB  0C 03 13 00 51 80 03 02  ....Q.......Q...
0CD0: 10 02 17 03 03 10 03 17  01 FF 0C 02 00 10 5A 80  ..............Z.
0CE0: 00 F5 0C 03 13 00 5A 80  03 02 10 04 17 03 03 10  ......Z.........
0CF0: 05 17 01 FF 0C 03 02 10  0F 80 03 03 10 0F 80 02  ................
0D00: 02 10 0F 80 01 53 0D 1A  91 0E 03 18 17 09 00 1D  .....S..........
0D10: C0 80 23 24 C1 80 00 80  0F 80 25 02 00 10 0F 80  ..#$......%.....
0D20: 00 53 0D 03 01 10 14 00  40 48 80 63 80 01 10 13  .S......@H.c....
0D30: 00 40 1D 80 C2 80 01 10  00 80 43 00 43 01 02 09  .@........C.C...
0D40: 10 0F 80 01 50 0D 03 09  00 02 10 03 0F 00 08 10  ....P...........
0D50: 01 53 0D 01 BD 09 01 59  0D 01 74 01 01 F0 0D 02  .S.....Y..t.....
0D60: 00 10 1C 80 00 C9 0D 03  11 00 1C 80 83 00 00 15  ................
0D70: 00 00 C3 80 3F 00 00 00  00 C4 80 03 02 10 C4 80  ....?...........
0D80: 08 02 10 00 00 02 02 10  0F 80 02 94 0D 1D C5 80  ................
0D90: 23 01 98 0D 1D C6 80 23  3E 0E 00 C7 80 A6 0D 1D  #......#>.......
0DA0: C8 80 23 01 C3 0D 03 05  10 0D 00 08 05 10 0E 00  ..#.............
0DB0: 02 05 10 0F 80 02 BF 0D  1D C9 80 23 01 C3 0D 1D  ...........#....
0DC0: C8 80 23 01 52 01 01 F0  0D 02 00 10 26 80 00 F0  ..#.R.......&...
0DD0: 0D 03 11 00 26 80 1D 08  80 23 1D 09 80 23 1D 0A  ....&....#...#..
0DE0: 80 23 1D 0B 80 23 1D 0C  80 23 01 52 01 01 F0 0D  .#...#...#.R....
0DF0: 21 00 03 02 10 06 00 03  03 10 08 00 93 02 10 02  !...............
0E00: 0B 00 0F 80 01 18 0E 1D  CA 80 23 71 12 00 80 3F  ..........#q...?
0E10: 80 71 13 07 00 01 1D 0E  03 07 00 00 80 02 07 00  .q..............
0E20: 0F 80 02 8D 0E 14 08 00  07 00 03 03 10 08 00 03  ................
0E30: 04 10 07 00 02 07 00 00  80 00 43 0E 1D CB 80 23  ..........C....#
0E40: 01 47 0E 1D CC 80 23 93  0F 80 03 18 17 09 00 24  .G....#........$
0E50: C1 80 00 80 0F 80 25 02  00 10 0F 80 00 8A 0E 03  ......%.........
0E60: 01 10 14 00 40 48 80 63  80 01 10 15 00 40 1D 80  ....@H.c.....@..
0E70: C2 80 01 10 07 00 43 00  43 01 02 09 10 0F 80 01  ......C.C.......
0E80: 87 0E 03 09 00 02 10 01  8A 0E 01 90 0E 93 0F 80  ................
0E90: 1B 02 02 10 99 80 80 A0  0E 1D CD 80 23 01 09 0F  ............#...
0EA0: 02 02 10 97 80 80 AF 0E  1D CE 80 23 01 09 0F 02  ...........#....
0EB0: 02 10 9A 80 80 BE 0E 1D  CF 80 23 01 09 0F 02 02  ..........#.....
0EC0: 10 9B 80 80 CD 0E 1D D0  80 23 01 09 0F 02 02 10  .........#......
0ED0: 9E 80 80 DC 0E 1D D1 80  23 01 09 0F 02 02 10 9D  ........#.......
0EE0: 80 80 EB 0E 1D D2 80 23  01 09 0F 02 02 10 9F 80  .......#........
0EF0: 80 FA 0E 1D D3 80 23 01  09 0F 02 02 10 A0 80 80  ......#.........
0F00: 09 0F 1D D4 80 23 01 09  0F 1B                    .....#....      
```

#### Opcodes

```
  0: 0x001B [0x03] ExtData[1]->WorkLocal[9] = Work_Zone[2]
  1: 0x0020 [0x03] ExtData[1]->WorkLocal[12] = Work_Zone[3]
  2: 0x0025 [0x03] ExtData[1]->WorkLocal[10] = Work_Zone[4]
  3: 0x002A [0x03] ExtData[1]->WorkLocal[13] = Work_Zone[5]
  4: 0x002F [0x03] ExtData[1]->WorkLocal[4] = Work_Zone[6]
  5: 0x0034 [0x03] ExtData[1]->WorkLocal[14] = Work_Zone[7]
  6: 0x0039 [0x03] ExtData[1]->WorkLocal[15] = Work_Zone[8]
  7: 0x003E [0x06] ExtData[1]->WorkLocal[16] = 0
  8: 0x0041 [0x1E] EventEntity looks at LocalPlayer and starts talking
  9: 0x0046 [0x1D] PRINT_EVENT_MESSAGE(message_id=6998*)
    → "Hello, [sir/ma'am]. I have been appointed by the Guildworkers' Union to manage the trading of manufactured crafts and the exchange of guild points."
 10: 0x0049 [0x23] WAIT_FOR_DIALOG_INTERACTION
 11: 0x004A [0x02] IF !(ExtData[1]->WorkLocal[12] == 4294967295*) GOTO 0x00B3
 12: 0x0052 [0x02] IF !(ExtData[1]->WorkLocal[4] >= 40*) GOTO 0x0077
 13: 0x005A [0x03] Work_Zone[6] = ExtData[1]->WorkLocal[4]
 14: 0x005F [0x08] Work_Zone[6] -= 10*
 15: 0x0064 [0x15] Work_Zone[6] /= 10*
 16: 0x0069 [0x1D] PRINT_EVENT_MESSAGE(message_id=6999*)
    → "However, to assure product quality, I cannot carry out any business with those who rank lower than novice."
 17: 0x006C [0x23] WAIT_FOR_DIALOG_INTERACTION
 18: 0x006D [0x03] Work_Zone[1] = 1073741824*
 19: 0x0072 [0x21] END_EVENT
 20: 0x0073 [0x00] END_REQSTACK()

SUBROUTINE_00A9:
 21: 0x00A9 [0x03] Work_Zone[1] = 4294967295*
 22: 0x00AE [0x21] END_EVENT
 23: 0x00AF [0x00] END_REQSTACK()

SUBROUTINE_0100:
 24: 0x0100 [0x24] CREATE_DIALOG(message_id=7004*, default_option=1*, option_flags=0*)
    → "Are you certain? [I said, "Immediately."/On second thought...]"
 25: 0x0107 [0x25] WAIT_DIALOG_SELECT()
 26: 0x0108 [0x02] IF !(Work_Zone[0] == 1*) GOTO 0x011A
 27: 0x0110 [0x03] Work_Zone[1] = 1073741824*
 28: 0x0115 [0x21] END_EVENT
 29: 0x0116 [0x00] END_REQSTACK()

SUBROUTINE_011A:
 30: 0x011A [0x03] Work_Zone[1] = 4294967295*
 31: 0x011F [0x21] END_EVENT
 32: 0x0120 [0x00] END_REQSTACK()

SUBROUTINE_0121:
 33: 0x0121 [0x03] Work_Zone[2] = ExtData[1]->WorkLocal[9]
 34: 0x0126 [0x03] Work_Zone[4] = ExtData[1]->WorkLocal[10]
 35: 0x012B [0x02] IF !(ExtData[1]->WorkLocal[10] == 0*) GOTO 0x013A
 36: 0x0133 [0x1D] PRINT_EVENT_MESSAGE(message_id=7015*)
    → "Currently, no items are being requested by the guild. You have $0 guild points accumulated."
 37: 0x0136 [0x23] WAIT_FOR_DIALOG_INTERACTION
 38: 0x0137 [0x01] GOTO 0x013E
 39: 0x013A [0x1D] PRINT_EVENT_MESSAGE(message_id=7014*)
    → "The current requested item is $2. You have $0 guild points accumulated."
 40: 0x013D [0x23] WAIT_FOR_DIALOG_INTERACTION

SUBROUTINE_013E:
 41: 0x013E [0x03] Work_Zone[1] = 1073741824*
 42: 0x0143 [0x03] ExtData[1]->WorkLocal[17] = 0*
 43: 0x0148 [0x03] ExtData[1]->WorkLocal[18] = 0*
 44: 0x014D [0x03] ExtData[1]->WorkLocal[19] = 0*

SUBROUTINE_0152:
 45: 0x0152 [0x24] CREATE_DIALOG(message_id=7016*, default_option=ExtData[1]->WorkLocal[17], option_flags=0*)
    → "Is there something you need? [I'm just passing through./I would like to use my points./What are the current limits?/How does the trade system work?]"
 46: 0x0159 [0x25] WAIT_DIALOG_SELECT()
 47: 0x015A [0x02] IF !(Work_Zone[0] == 0*) GOTO 0x016C
 48: 0x0162 [0x03] Work_Zone[1] = 1073741824*
 49: 0x0167 [0x21] END_EVENT
 50: 0x0168 [0x00] END_REQSTACK()

SUBROUTINE_0174:
 51: 0x0174 [0x03] ExtData[1]->WorkLocal[17] = 1*
 52: 0x0179 [0x06] ExtData[1]->WorkLocal[11] = 0
 53: 0x017C [0x06] ExtData[1]->WorkLocal[5] = 0
 54: 0x017F [0x03] Work_Zone_1700[1] = 10000*
 55: 0x0184 [0x03] Work_Zone_1700[3] = 200000*
 56: 0x0189 [0x03] Work_Zone_1700[5] = 80000*
 57: 0x018E [0x03] Work_Zone_1700[7] = 50000*
 58: 0x0193 [0x03] Work_Zone_1700[9] = 15000*
 59: 0x0198 [0x02] IF !(ExtData[1]->WorkLocal[3] == 0*) GOTO 0x01E5
 60: 0x01A0 [0x3C] SET_BIT_FLAG_CONDITIONAL(target_work_offset=ExtData[1]->WorkLocal[5], bit_index_work_offset=1*, condition_work_offset=1*)
 61: 0x01A7 [0x3C] SET_BIT_FLAG_CONDITIONAL(target_work_offset=ExtData[1]->WorkLocal[5], bit_index_work_offset=2*, condition_work_offset=1*)
 62: 0x01AE [0x3C] SET_BIT_FLAG_CONDITIONAL(target_work_offset=ExtData[1]->WorkLocal[5], bit_index_work_offset=9*, condition_work_offset=1*)
 63: 0x01B5 [0x03] Work_Zone[2] = 17002*
 64: 0x01BA [0x03] Work_Zone[3] = 14195*
 65: 0x01BF [0x03] Work_Zone[4] = 14400*
 66: 0x01C4 [0x03] Work_Zone[5] = 191*
 67: 0x01C9 [0x03] Work_Zone_1700[0] = 15452*
 68: 0x01CE [0x03] Work_Zone_1700[2] = 340*
 69: 0x01D3 [0x03] Work_Zone_1700[4] = 0*
 70: 0x01D8 [0x03] Work_Zone_1700[6] = 3670*
 71: 0x01DD [0x03] Work_Zone_1700[8] = 3330*
 72: 0x01E2 [0x01] GOTO 0x040A
 73: 0x01E5 [0x02] IF !(ExtData[1]->WorkLocal[3] == 1*) GOTO 0x0224
 74: 0x01ED [0x3C] SET_BIT_FLAG_CONDITIONAL(target_work_offset=ExtData[1]->WorkLocal[5], bit_index_work_offset=3*, condition_work_offset=1*)
 75: 0x01F4 [0x03] Work_Zone[2] = 0*
 76: 0x01F9 [0x03] Work_Zone[3] = 14830*
 77: 0x01FE [0x03] Work_Zone[4] = 14392*
 78: 0x0203 [0x03] Work_Zone[5] = 28*
 79: 0x0208 [0x03] Work_Zone_1700[0] = 15444*
 80: 0x020D [0x03] Work_Zone_1700[2] = 341*
 81: 0x0212 [0x03] Work_Zone_1700[4] = 15819*
 82: 0x0217 [0x03] Work_Zone_1700[6] = 3672*
 83: 0x021C [0x03] Work_Zone_1700[8] = 3331*
 84: 0x0221 [0x01] GOTO 0x040A
 85: 0x0224 [0x02] IF !(ExtData[1]->WorkLocal[3] == 2*) GOTO 0x0263
 86: 0x022C [0x3C] SET_BIT_FLAG_CONDITIONAL(target_work_offset=ExtData[1]->WorkLocal[5], bit_index_work_offset=3*, condition_work_offset=1*)
 87: 0x0233 [0x03] Work_Zone[2] = 0*
 88: 0x0238 [0x03] Work_Zone[3] = 14831*
 89: 0x023D [0x03] Work_Zone[4] = 14393*
 90: 0x0242 [0x03] Work_Zone[5] = 153*
 91: 0x0247 [0x03] Work_Zone_1700[0] = 15445*
 92: 0x024C [0x03] Work_Zone_1700[2] = 334*
 93: 0x0251 [0x03] Work_Zone_1700[4] = 15820*
 94: 0x0256 [0x03] Work_Zone_1700[6] = 3661*
 95: 0x025B [0x03] Work_Zone_1700[8] = 3324*
 96: 0x0260 [0x01] GOTO 0x040A
 97: 0x0263 [0x02] IF !(ExtData[1]->WorkLocal[3] == 3*) GOTO 0x02A2
 98: 0x026B [0x3C] SET_BIT_FLAG_CONDITIONAL(target_work_offset=ExtData[1]->WorkLocal[5], bit_index_work_offset=3*, condition_work_offset=1*)
 99: 0x0272 [0x03] Work_Zone[2] = 0*
100: 0x0277 [0x03] Work_Zone[3] = 13945*
101: 0x027C [0x03] Work_Zone[4] = 14394*
102: 0x0281 [0x03] Work_Zone[5] = 151*
103: 0x0286 [0x03] Work_Zone_1700[0] = 15446*
104: 0x028B [0x03] Work_Zone_1700[2] = 335*
105: 0x0290 [0x03] Work_Zone_1700[4] = 15821*
106: 0x0295 [0x03] Work_Zone_1700[6] = 3595*
107: 0x029A [0x03] Work_Zone_1700[8] = 3325*
108: 0x029F [0x01] GOTO 0x040A
109: 0x02A2 [0x02] IF !(ExtData[1]->WorkLocal[3] == 4*) GOTO 0x02E1
110: 0x02AA [0x3C] SET_BIT_FLAG_CONDITIONAL(target_work_offset=ExtData[1]->WorkLocal[5], bit_index_work_offset=3*, condition_work_offset=1*)
111: 0x02B1 [0x03] Work_Zone[2] = 0*
112: 0x02B6 [0x03] Work_Zone[3] = 13946*
113: 0x02BB [0x03] Work_Zone[4] = 14395*
114: 0x02C0 [0x03] Work_Zone[5] = 198*
115: 0x02C5 [0x03] Work_Zone_1700[0] = 15447*
116: 0x02CA [0x03] Work_Zone_1700[2] = 337*
117: 0x02CF [0x03] Work_Zone_1700[4] = 15822*
118: 0x02D4 [0x03] Work_Zone_1700[6] = 3665*
119: 0x02D9 [0x03] Work_Zone_1700[8] = 3327*
120: 0x02DE [0x01] GOTO 0x040A
121: 0x02E1 [0x02] IF !(ExtData[1]->WorkLocal[3] == 5*) GOTO 0x0320
122: 0x02E9 [0x3C] SET_BIT_FLAG_CONDITIONAL(target_work_offset=ExtData[1]->WorkLocal[5], bit_index_work_offset=3*, condition_work_offset=1*)
123: 0x02F0 [0x03] Work_Zone[2] = 0*
124: 0x02F5 [0x03] Work_Zone[3] = 14832*
125: 0x02FA [0x03] Work_Zone[4] = 14396*
126: 0x02FF [0x03] Work_Zone[5] = 202*
127: 0x0304 [0x03] Work_Zone_1700[0] = 15448*
128: 0x0309 [0x03] Work_Zone_1700[2] = 339*
129: 0x030E [0x03] Work_Zone_1700[4] = 15823*
130: 0x0313 [0x03] Work_Zone_1700[6] = 3668*
131: 0x0318 [0x03] Work_Zone_1700[8] = 3329*
132: 0x031D [0x01] GOTO 0x040A
133: 0x0320 [0x02] IF !(ExtData[1]->WorkLocal[3] == 6*) GOTO 0x035F
134: 0x0328 [0x3C] SET_BIT_FLAG_CONDITIONAL(target_work_offset=ExtData[1]->WorkLocal[5], bit_index_work_offset=3*, condition_work_offset=1*)
135: 0x032F [0x03] Work_Zone[2] = 0*
136: 0x0334 [0x03] Work_Zone[3] = 13947*
137: 0x0339 [0x03] Work_Zone[4] = 14397*
138: 0x033E [0x03] Work_Zone[5] = 142*
139: 0x0343 [0x03] Work_Zone_1700[0] = 15449*
140: 0x0348 [0x03] Work_Zone_1700[2] = 336*
141: 0x034D [0x03] Work_Zone_1700[4] = 15824*
142: 0x0352 [0x03] Work_Zone_1700[6] = 3663*
143: 0x0357 [0x03] Work_Zone_1700[8] = 3326*
144: 0x035C [0x01] GOTO 0x040A
145: 0x035F [0x02] IF !(ExtData[1]->WorkLocal[3] == 7*) GOTO 0x039E
146: 0x0367 [0x3C] SET_BIT_FLAG_CONDITIONAL(target_work_offset=ExtData[1]->WorkLocal[5], bit_index_work_offset=3*, condition_work_offset=1*)
147: 0x036E [0x03] Work_Zone[2] = 0*
148: 0x0373 [0x03] Work_Zone[3] = 17058*
149: 0x0378 [0x03] Work_Zone[4] = 14398*
150: 0x037D [0x03] Work_Zone[5] = 134*
151: 0x0382 [0x03] Work_Zone_1700[0] = 15450*
152: 0x0387 [0x03] Work_Zone_1700[2] = 342*
153: 0x038C [0x03] Work_Zone_1700[4] = 15825*
154: 0x0391 [0x03] Work_Zone_1700[6] = 3674*
155: 0x0396 [0x03] Work_Zone_1700[8] = 3332*
156: 0x039B [0x01] GOTO 0x040A
157: 0x039E [0x02] IF !(ExtData[1]->WorkLocal[3] == 8*) GOTO 0x03DD
158: 0x03A6 [0x3C] SET_BIT_FLAG_CONDITIONAL(target_work_offset=ExtData[1]->WorkLocal[5], bit_index_work_offset=3*, condition_work_offset=1*)
159: 0x03AD [0x03] Work_Zone[2] = 0*
160: 0x03B2 [0x03] Work_Zone[3] = 13948*
161: 0x03B7 [0x03] Work_Zone[4] = 14399*
162: 0x03BC [0x03] Work_Zone[5] = 137*
163: 0x03C1 [0x03] Work_Zone_1700[0] = 15451*
164: 0x03C6 [0x03] Work_Zone_1700[2] = 338*
165: 0x03CB [0x03] Work_Zone_1700[4] = 15826*
166: 0x03D0 [0x03] Work_Zone_1700[6] = 3667*
167: 0x03D5 [0x03] Work_Zone_1700[8] = 3328*
168: 0x03DA [0x01] GOTO 0x040A
169: 0x03DD [0x03] Work_Zone[2] = 0*
170: 0x03E2 [0x03] Work_Zone_1700[0] = 0*
171: 0x03E7 [0x03] Work_Zone[3] = 0*
172: 0x03EC [0x03] Work_Zone[4] = 0*
173: 0x03F1 [0x03] Work_Zone[5] = 0*
174: 0x03F6 [0x03] Work_Zone_1700[2] = 0*
175: 0x03FB [0x03] Work_Zone_1700[4] = 0*
176: 0x0400 [0x03] Work_Zone_1700[6] = 0*
177: 0x0405 [0x03] Work_Zone_1700[8] = 0*

SUBROUTINE_040A:
178: 0x040A [0xD4] MAP_QUERY_WINDOW: Prepare buffer configuration A (buffer=[26 80 02 10 D4 03 3F 80...])
179: 0x0428 [0xD4] MAP_QUERY_WINDOW: Prepare buffer configuration A (buffer=[63 80 02 17 D4 03 1D 80...])
180: 0x0446 [0x4F] EventEntity->StatusEvent = 0x3C04 // Custom event value
181: 0x0449 [0x05] 0x3F00 = 1
182: 0x044C [0x80] LOAD_WAIT(entity=Unknown NPC (ID: 67272704/0x04028000))
183: 0x0451 [0x00] END_REQSTACK()

SUBROUTINE_0D98:
184: 0x0D98 [0x3E] IF !(ExtData[1]->WorkLocal[14] bit 31*) GOTO 0x0DA6
185: 0x0D9F [0x1D] PRINT_EVENT_MESSAGE(message_id=7020*)
    → "You are not eligible to receive guild points at this time."
186: 0x0DA2 [0x23] WAIT_FOR_DIALOG_INTERACTION
187: 0x0DA3 [0x01] GOTO 0x0DC3
188: 0x0DA6 [0x03] Work_Zone[5] = ExtData[1]->WorkLocal[13]
189: 0x0DAB [0x08] Work_Zone[5] -= ExtData[1]->WorkLocal[14]
190: 0x0DB0 [0x02] IF !(Work_Zone[5] <= 0*) GOTO 0x0DBF
191: 0x0DB8 [0x1D] PRINT_EVENT_MESSAGE(message_id=7019*)
    → "You can still receive up to $3 guild points by trading us the item before the time limit is up."
192: 0x0DBB [0x23] WAIT_FOR_DIALOG_INTERACTION
193: 0x0DBC [0x01] GOTO 0x0DC3
194: 0x0DBF [0x1D] PRINT_EVENT_MESSAGE(message_id=7020*)
    → "You are not eligible to receive guild points at this time."
195: 0x0DC2 [0x23] WAIT_FOR_DIALOG_INTERACTION

SUBROUTINE_0DC3:
196: 0x0DC3 [0x01] GOTO 0x0152

SUBROUTINE_0DF0:
197: 0x0DF0 [0x21] END_EVENT
198: 0x0DF1 [0x00] END_REQSTACK()
```

#### Data or dead code:

```
# Dead code (unreachable instructions):
     0x0074 [0x01] GOTO 0x00B0
     0x00A6 [0x01] GOTO 0x00A9
# Dead code (unreachable instructions):
     0x00B0 [0x01] GOTO 0x0121
     0x00D8 [0x01] GOTO 0x0121
     0x00FD [0x01] GOTO 0x0100
# Dead code (unreachable instructions):
     0x0117 [0x01] GOTO 0x011A
# Dead code (unreachable instructions):
     0x0169 [0x01] GOTO 0x0DF0
# Dead code (unreachable instructions):
     0x0452 [0x6E] Unknown NPC (ID: 73270144/0x045E0380) uses emote 0x053C
     0x0459 [0x00] END_REQSTACK()
     0x045A [0x48] [System] [0x80]:
    → "A party of Royal Knights stationed in Ghelsba Outpost have reported strange activity by Orcs deep within Yughott Grotto."
     0x045D [0x80] LOAD_WAIT(entity=Unknown NPC (ID: 1862272002/0x6F000402))
     0x0462 [0x80] LOAD_WAIT(entity=Unknown NPC (ID: 1006923011/0x3C046D03))
     0x0467 [0x05] 0x1D00 = 1
     0x046A [0x80] LOAD_WAIT(entity=Unknown NPC (ID: 67272704/0x04028000))
     0x046F [0x00] END_REQSTACK()
     0x0470 [0x70] WAIT_ENTITY_RENDER_FLAG: Wait while EventEntity->Render.Flags3 bit 2 is set (cancel turn if not)
     0x0471 [0x80] LOAD_WAIT(entity=Unknown NPC (ID: 1006928643/0x3C048303))
     0x0476 [0x05] 0x5100 = 1
     0x0479 [0x80] LOAD_WAIT(entity=Unknown NPC (ID: 87851008/0x053C8000))
     0x047E [0x00] END_REQSTACK()
     0x047F [0x05] 0x80 = 1
     0x0482 [0x80] LOAD_WAIT(entity=Unknown NPC (ID: 1895826434/0x71000402))
     0x0487 [0x80] LOAD_WAIT(entity=Unknown NPC (ID: 1006936067/0x3C04A003))
     0x048C [0x05] 0x5A00 = 1
     0x048F [0x80] LOAD_WAIT(entity=Unknown NPC (ID: 87851008/0x053C8000))
     0x0494 [0x00] END_REQSTACK()
     0x0495 [0x63] PLAY_ANIMATION_WAIT(animation=128)
     0x0498 [0x80] LOAD_WAIT(entity=Unknown NPC (ID: 1811940668/0x6C00053C))
     0x049D [0x80] LOAD_WAIT(entity=Unknown NPC (ID: 67272704/0x04028000))
     0x04A2 [0x00] END_REQSTACK()
     0x04A3 [0x72] LOAD_EVENT_WEATHER: Unknown mode 128, weather_id=0xAF03
     0x04A7 [0x04] DEPRECATED_NOP(unused=0x053C)
     0x04AA [0x00] END_REQSTACK()
     0x04AB [0x1C] WAIT(0x80 ticks)
     0x04AE [0x80] LOAD_WAIT(entity=Unknown NPC (ID: 251662082/0x0F000F02))
     0x04B3 [0x80] LOAD_WAIT(entity=Unknown NPC (ID: 1006943744/0x3C04BE00))
     0x04B8 [0x05] 0x7300 = 1
     0x04BB [0x80] LOAD_WAIT(entity=Unknown NPC (ID: 84049920/0x05028000))
     0x04C0 [0x00] END_REQSTACK()
     0x04C1 [0x74] EventEntity->Render.Flags1 ^= 0x00
     0x04C3 [0x00] END_REQSTACK()
     0x04C4 [0xC9] ENABLE_GAME_TIMER()
     0x04C5 [0x04] DEPRECATED_NOP(unused=0xF701)
     0x04C8 [0x04] DEPRECATED_NOP(unused=0x02D4)
     0x04CB [0x75] LOAD_ROOM(Unknown mode 128, room=ExtData[1]->WorkLocal[18])
     0x04CF [0x05] 0x2500 = 1
     0x04D2 [0x02] IF !(Work_Zone[0] == 0*) GOTO 0x04E5
     0x04DA [0x03] ExtData[1]->WorkLocal[18] = 0*
     0x04DF [0x01] GOTO 0x0152
     0x04E2 [0x01] GOTO 0x0D59
     0x04E5 [0x02] IF !(Work_Zone[0] == 1*) GOTO 0x0693
     0x04ED [0x03] ExtData[1]->WorkLocal[18] = 1*
     0x04F2 [0x03] ExtData[1]->WorkLocal[19] = 0*
     0x04F7 [0x03] Work_Zone[2] = 4238*
     0x04FC [0x03] Work_Zone[3] = 4239*
     0x0501 [0x03] Work_Zone[4] = 4240*
     0x0506 [0x03] Work_Zone[5] = 4241*
     0x050B [0x03] Work_Zone[6] = 4242*
     0x0510 [0x03] Work_Zone[7] = 4243*
     0x0515 [0x03] Work_Zone[8] = 4244*
     0x051A [0x03] Work_Zone[9] = 4245*
     0x051F [0xD4] MAP_QUERY_WINDOW: Prepare buffer configuration A (buffer=[00 80 02 10 D4 03 1C 80...])
     0x053D [0xD4] MAP_QUERY_WINDOW: Prepare buffer configuration A (buffer=[51 80 07 10 D4 03 5A 80...])
     0x055B [0x02] IF !(Work_Zone[0] == 0*) GOTO 0x056E
     0x0563 [0x03] ExtData[1]->WorkLocal[19] = 0*
     0x0568 [0x01] GOTO 0x0174
     0x056B [0x01] GOTO 0x0685
     0x056E [0x02] IF !(Work_Zone[0] == 1*) GOTO 0x0590
     0x0576 [0x03] ExtData[1]->WorkLocal[6] = Work_Zone[2]
     0x057B [0x03] ExtData[1]->WorkLocal[8] = 200*
     0x0580 [0x03] ExtData[1]->WorkLocal[19] = Work_Zone[0]
     0x0585 [0x03] ExtData[1]->WorkLocal[20] = 1*
     0x058A [0x05] ExtData[1]->WorkLocal[11] = 1
     0x058D [0x01] GOTO 0x0685
     0x0590 [0x02] IF !(Work_Zone[0] == 2*) GOTO 0x05B2
     0x0598 [0x03] ExtData[1]->WorkLocal[6] = Work_Zone[3]
     0x059D [0x03] ExtData[1]->WorkLocal[8] = 200*
     0x05A2 [0x03] ExtData[1]->WorkLocal[19] = Work_Zone[0]
     0x05A7 [0x03] ExtData[1]->WorkLocal[20] = 1*
     0x05AC [0x05] ExtData[1]->WorkLocal[11] = 1
     0x05AF [0x01] GOTO 0x0685
     0x05B2 [0x02] IF !(Work_Zone[0] == 3*) GOTO 0x05D4
     0x05BA [0x03] ExtData[1]->WorkLocal[6] = Work_Zone[4]
     0x05BF [0x03] ExtData[1]->WorkLocal[8] = 200*
     0x05C4 [0x03] ExtData[1]->WorkLocal[19] = Work_Zone[0]
     0x05C9 [0x03] ExtData[1]->WorkLocal[20] = 1*
     0x05CE [0x05] ExtData[1]->WorkLocal[11] = 1
     0x05D1 [0x01] GOTO 0x0685
     0x05D4 [0x02] IF !(Work_Zone[0] == 4*) GOTO 0x05F6
     0x05DC [0x03] ExtData[1]->WorkLocal[6] = Work_Zone[5]
     0x05E1 [0x03] ExtData[1]->WorkLocal[8] = 200*
     0x05E6 [0x03] ExtData[1]->WorkLocal[19] = Work_Zone[0]
     0x05EB [0x03] ExtData[1]->WorkLocal[20] = 1*
     0x05F0 [0x05] ExtData[1]->WorkLocal[11] = 1
     0x05F3 [0x01] GOTO 0x0685
     0x05F6 [0x02] IF !(Work_Zone[0] == 5*) GOTO 0x0618
     0x05FE [0x03] ExtData[1]->WorkLocal[6] = Work_Zone[6]
     0x0603 [0x03] ExtData[1]->WorkLocal[8] = 200*
     0x0608 [0x03] ExtData[1]->WorkLocal[19] = Work_Zone[0]
     0x060D [0x03] ExtData[1]->WorkLocal[20] = 1*
     0x0612 [0x05] ExtData[1]->WorkLocal[11] = 1
     0x0615 [0x01] GOTO 0x0685
     0x0618 [0x02] IF !(Work_Zone[0] == 6*) GOTO 0x063A
     0x0620 [0x03] ExtData[1]->WorkLocal[6] = Work_Zone[7]
     0x0625 [0x03] ExtData[1]->WorkLocal[8] = 200*
     0x062A [0x03] ExtData[1]->WorkLocal[19] = Work_Zone[0]
     0x062F [0x03] ExtData[1]->WorkLocal[20] = 1*
     0x0634 [0x05] ExtData[1]->WorkLocal[11] = 1
     0x0637 [0x01] GOTO 0x0685
     0x063A [0x02] IF !(Work_Zone[0] == 7*) GOTO 0x065C
     0x0642 [0x03] ExtData[1]->WorkLocal[6] = Work_Zone[8]
     0x0647 [0x03] ExtData[1]->WorkLocal[8] = 200*
     0x064C [0x03] ExtData[1]->WorkLocal[19] = Work_Zone[0]
     0x0651 [0x03] ExtData[1]->WorkLocal[20] = 1*
     0x0656 [0x05] ExtData[1]->WorkLocal[11] = 1
     0x0659 [0x01] GOTO 0x0685
     0x065C [0x02] IF !(Work_Zone[0] == 8*) GOTO 0x067E
     0x0664 [0x03] ExtData[1]->WorkLocal[6] = Work_Zone[9]
     0x0669 [0x03] ExtData[1]->WorkLocal[8] = 200*
     0x066E [0x03] ExtData[1]->WorkLocal[19] = Work_Zone[0]
     0x0673 [0x03] ExtData[1]->WorkLocal[20] = 1*
     0x0678 [0x05] ExtData[1]->WorkLocal[11] = 1
     0x067B [0x01] GOTO 0x0685
     0x067E [0x03] Work_Zone[1] = 1073741824*
     0x0683 [0x21] END_EVENT
     0x0684 [0x00] END_REQSTACK()
     0x0685 [0x03] ExtData[1]->WorkLocal[21] = ExtData[1]->WorkLocal[19]
     0x068A [0x1A] CALL_SUBROUTINE(address=0x0DF2)
     0x068D [0x01] GOTO 0x04F7
     0x0690 [0x01] GOTO 0x0D59
     0x0693 [0x02] IF !(Work_Zone[0] == 2*) GOTO 0x083E
     0x069B [0x03] ExtData[1]->WorkLocal[18] = 2*
     0x06A0 [0x03] ExtData[1]->WorkLocal[19] = 0*
     0x06A5 [0x03] Work_Zone[2] = 6506*
     0x06AA [0x03] Work_Zone[3] = 6507*
     0x06AF [0x03] Work_Zone[4] = 6508*
     0x06B4 [0x03] Work_Zone[5] = 6509*
     0x06B9 [0x03] Work_Zone[6] = 6510*
     0x06BE [0x03] Work_Zone[7] = 6511*
     0x06C3 [0x03] Work_Zone[8] = 6512*
     0x06C8 [0x03] Work_Zone[9] = 6513*
     0x06CD [0xD4] MAP_QUERY_WINDOW: Prepare buffer configuration A (buffer=[00 80 02 10 D4 03 1C 80...])
     0x06EB [0xD4] MAP_QUERY_WINDOW: Prepare buffer configuration A (buffer=[51 80 07 10 D4 03 5A 80...])
     0x0709 [0x0F] 0x80 ^= 0x0719
     0x070E [0x03] ExtData[1]->WorkLocal[19] = 0*
     0x0713 [0x01] GOTO 0x0174
     0x0716 [0x01] GOTO 0x0830
     0x0719 [0x02] IF !(Work_Zone[0] == 1*) GOTO 0x073B
     0x0721 [0x03] ExtData[1]->WorkLocal[6] = Work_Zone[2]
     0x0726 [0x03] ExtData[1]->WorkLocal[8] = 450*
     0x072B [0x03] ExtData[1]->WorkLocal[20] = 2*
     0x0730 [0x03] ExtData[1]->WorkLocal[19] = Work_Zone[0]
     0x0735 [0x05] ExtData[1]->WorkLocal[11] = 1
     0x0738 [0x01] GOTO 0x0830
     0x073B [0x02] IF !(Work_Zone[0] == 2*) GOTO 0x075D
     0x0743 [0x03] ExtData[1]->WorkLocal[6] = Work_Zone[3]
     0x0748 [0x03] ExtData[1]->WorkLocal[8] = 450*
     0x074D [0x03] ExtData[1]->WorkLocal[20] = 2*
     0x0752 [0x03] ExtData[1]->WorkLocal[19] = Work_Zone[0]
     0x0757 [0x05] ExtData[1]->WorkLocal[11] = 1
     0x075A [0x01] GOTO 0x0830
     0x075D [0x02] IF !(Work_Zone[0] == 3*) GOTO 0x077F
     0x0765 [0x03] ExtData[1]->WorkLocal[6] = Work_Zone[4]
     0x076A [0x03] ExtData[1]->WorkLocal[8] = 450*
     0x076F [0x03] ExtData[1]->WorkLocal[20] = 2*
     0x0774 [0x03] ExtData[1]->WorkLocal[19] = Work_Zone[0]
     0x0779 [0x05] ExtData[1]->WorkLocal[11] = 1
     0x077C [0x01] GOTO 0x0830
     0x077F [0x02] IF !(Work_Zone[0] == 4*) GOTO 0x07A1
     0x0787 [0x03] ExtData[1]->WorkLocal[6] = Work_Zone[5]
     0x078C [0x03] ExtData[1]->WorkLocal[8] = 450*
     0x0791 [0x03] ExtData[1]->WorkLocal[20] = 2*
     0x0796 [0x03] ExtData[1]->WorkLocal[19] = Work_Zone[0]
     0x079B [0x05] ExtData[1]->WorkLocal[11] = 1
     0x079E [0x01] GOTO 0x0830
     0x07A1 [0x02] IF !(Work_Zone[0] == 5*) GOTO 0x07C3
     0x07A9 [0x03] ExtData[1]->WorkLocal[6] = Work_Zone[6]
     0x07AE [0x03] ExtData[1]->WorkLocal[8] = 450*
     0x07B3 [0x03] ExtData[1]->WorkLocal[20] = 2*
     0x07B8 [0x03] ExtData[1]->WorkLocal[19] = Work_Zone[0]
     0x07BD [0x05] ExtData[1]->WorkLocal[11] = 1
     0x07C0 [0x01] GOTO 0x0830
     0x07C3 [0x02] IF !(Work_Zone[0] == 6*) GOTO 0x07E5
     0x07CB [0x03] ExtData[1]->WorkLocal[6] = Work_Zone[7]
     0x07D0 [0x03] ExtData[1]->WorkLocal[8] = 450*
     0x07D5 [0x03] ExtData[1]->WorkLocal[20] = 2*
     0x07DA [0x03] ExtData[1]->WorkLocal[19] = Work_Zone[0]
     0x07DF [0x05] ExtData[1]->WorkLocal[11] = 1
     0x07E2 [0x01] GOTO 0x0830
     0x07E5 [0x02] IF !(Work_Zone[0] == 7*) GOTO 0x0807
     0x07ED [0x03] ExtData[1]->WorkLocal[6] = Work_Zone[8]
     0x07F2 [0x03] ExtData[1]->WorkLocal[8] = 450*
     0x07F7 [0x03] ExtData[1]->WorkLocal[20] = 2*
     0x07FC [0x03] ExtData[1]->WorkLocal[19] = Work_Zone[0]
     0x0801 [0x05] ExtData[1]->WorkLocal[11] = 1
     0x0804 [0x01] GOTO 0x0830
     0x0807 [0x02] IF !(Work_Zone[0] == 8*) GOTO 0x0829
     0x080F [0x03] ExtData[1]->WorkLocal[6] = Work_Zone[9]
     0x0814 [0x03] ExtData[1]->WorkLocal[8] = 450*
     0x0819 [0x03] ExtData[1]->WorkLocal[20] = 2*
     0x081E [0x03] ExtData[1]->WorkLocal[19] = Work_Zone[0]
     0x0823 [0x05] ExtData[1]->WorkLocal[11] = 1
     0x0826 [0x01] GOTO 0x0830
     0x0829 [0x03] Work_Zone[1] = 1073741824*
     0x082E [0x21] END_EVENT
     0x082F [0x00] END_REQSTACK()
     0x0830 [0x03] ExtData[1]->WorkLocal[21] = ExtData[1]->WorkLocal[19]
     0x0835 [0x1A] CALL_SUBROUTINE(address=0x0DF2)
     0x0838 [0x01] GOTO 0x06A5
     0x083B [0x01] GOTO 0x0D59
     0x083E [0x02] IF !(Work_Zone[0] == 3*) GOTO 0x0868
     0x0846 [0x03] ExtData[1]->WorkLocal[18] = 3*
     0x084B [0x03] ExtData[1]->WorkLocal[20] = 3*
     0x0850 [0x03] ExtData[1]->WorkLocal[6] = Work_Zone[2]
     0x0855 [0x03] ExtData[1]->WorkLocal[8] = 1500*
     0x085A [0x05] ExtData[1]->WorkLocal[11] = 1
     0x085D [0x03] ExtData[1]->WorkLocal[21] = 0*
     0x0862 [0x1A] CALL_SUBROUTINE(address=0x0DF2)
     0x0865 [0x01] GOTO 0x0D59
     0x0868 [0x02] IF !(Work_Zone[0] == 4*) GOTO 0x088F
     0x0870 [0x03] ExtData[1]->WorkLocal[18] = 4*
     0x0875 [0x03] ExtData[1]->WorkLocal[20] = 4*
     0x087A [0x03] ExtData[1]->WorkLocal[6] = Work_Zone_1700[0]
     0x087F [0x03] ExtData[1]->WorkLocal[8] = 10000*
     0x0884 [0x03] ExtData[1]->WorkLocal[21] = 0*
     0x0889 [0x1A] CALL_SUBROUTINE(address=0x0DF2)
     0x088C [0x01] GOTO 0x0D59
     0x088F [0x02] IF !(Work_Zone[0] == 5*) GOTO 0x08B6
     0x0897 [0x03] ExtData[1]->WorkLocal[18] = 5*
     0x089C [0x03] ExtData[1]->WorkLocal[20] = 5*
     0x08A1 [0x03] ExtData[1]->WorkLocal[6] = Work_Zone[3]
     0x08A6 [0x03] ExtData[1]->WorkLocal[8] = 70000*
     0x08AB [0x03] ExtData[1]->WorkLocal[21] = 0*
     0x08B0 [0x1A] CALL_SUBROUTINE(address=0x0DF2)
     0x08B3 [0x01] GOTO 0x0D59
     0x08B6 [0x02] IF !(Work_Zone[0] == 6*) GOTO 0x08DD
     0x08BE [0x03] ExtData[1]->WorkLocal[18] = 6*
     0x08C3 [0x03] ExtData[1]->WorkLocal[20] = 6*
     0x08C8 [0x03] ExtData[1]->WorkLocal[6] = Work_Zone[4]
     0x08CD [0x03] ExtData[1]->WorkLocal[8] = 100000*
     0x08D2 [0x03] ExtData[1]->WorkLocal[21] = 0*
     0x08D7 [0x1A] CALL_SUBROUTINE(address=0x0DF2)
     0x08DA [0x01] GOTO 0x0D59
     0x08DD [0x02] IF !(Work_Zone[0] == 7*) GOTO 0x0904
     0x08E5 [0x03] ExtData[1]->WorkLocal[18] = 7*
     0x08EA [0x03] ExtData[1]->WorkLocal[20] = 7*
     0x08EF [0x03] ExtData[1]->WorkLocal[6] = Work_Zone[5]
     0x08F4 [0x03] ExtData[1]->WorkLocal[8] = 150000*
     0x08F9 [0x03] ExtData[1]->WorkLocal[21] = 0*
     0x08FE [0x1A] CALL_SUBROUTINE(address=0x0DF2)
     0x0901 [0x01] GOTO 0x0D59
     0x0904 [0x02] IF !(Work_Zone[0] == 8*) GOTO 0x092B
     0x090C [0x03] ExtData[1]->WorkLocal[18] = 8*
     0x0911 [0x03] ExtData[1]->WorkLocal[20] = 8*
     0x0916 [0x03] ExtData[1]->WorkLocal[6] = Work_Zone_1700[2]
     0x091B [0x03] ExtData[1]->WorkLocal[8] = 200000*
     0x0920 [0x03] ExtData[1]->WorkLocal[21] = 0*
     0x0925 [0x1A] CALL_SUBROUTINE(address=0x0DF2)
     0x0928 [0x01] GOTO 0x0D59
     0x092B [0x02] IF !(Work_Zone[0] == 9*) GOTO 0x0952
     0x0933 [0x03] ExtData[1]->WorkLocal[18] = 9*
     0x0938 [0x03] ExtData[1]->WorkLocal[20] = 9*
     0x093D [0x03] ExtData[1]->WorkLocal[6] = Work_Zone_1700[4]
     0x0942 [0x03] ExtData[1]->WorkLocal[8] = 80000*
     0x0947 [0x03] ExtData[1]->WorkLocal[21] = 0*
     0x094C [0x1A] CALL_SUBROUTINE(address=0x0DF2)
     0x094F [0x01] GOTO 0x0D59
     0x0952 [0x02] IF !(Work_Zone[0] == 10*) GOTO 0x097C
     0x095A [0x03] ExtData[1]->WorkLocal[18] = 10*
     0x095F [0x03] ExtData[1]->WorkLocal[20] = 10*
     0x0964 [0x03] ExtData[1]->WorkLocal[6] = Work_Zone_1700[6]
     0x0969 [0x03] ExtData[1]->WorkLocal[8] = 50000*
     0x096E [0x05] ExtData[1]->WorkLocal[11] = 1
     0x0971 [0x03] ExtData[1]->WorkLocal[21] = 0*
     0x0976 [0x1A] CALL_SUBROUTINE(address=0x0DF2)
     0x0979 [0x01] GOTO 0x0D59
     0x097C [0x02] IF !(Work_Zone[0] == 11*) GOTO 0x09A6
     0x0984 [0x03] ExtData[1]->WorkLocal[18] = 11*
     0x0989 [0x03] ExtData[1]->WorkLocal[20] = 11*
     0x098E [0x03] ExtData[1]->WorkLocal[6] = Work_Zone_1700[8]
     0x0993 [0x03] ExtData[1]->WorkLocal[8] = 15000*
     0x0998 [0x05] ExtData[1]->WorkLocal[11] = 1
     0x099B [0x03] ExtData[1]->WorkLocal[21] = 0*
     0x09A0 [0x1A] CALL_SUBROUTINE(address=0x0DF2)
     0x09A3 [0x01] GOTO 0x0D59
     0x09A6 [0x02] IF !(Work_Zone[0] == 12*) GOTO 0x0D59
     0x09AE [0x03] ExtData[1]->WorkLocal[18] = 12*
     0x09B3 [0x03] ExtData[1]->WorkLocal[19] = 0*
     0x09B8 [0x03] ExtData[1]->WorkLocal[20] = 12*
     0x09BD [0x02] IF !(ExtData[1]->WorkLocal[15] == 0*) GOTO 0x09C8
     0x09C5 [0x01] GOTO 0x0174
     0x09C8 [0x03] ExtData[1]->WorkLocal[5] = 254*
     0x09CD [0x03] ExtData[1]->WorkLocal[0] = ExtData[1]->WorkLocal[15]
     0x09D2 [0x10] ExtData[1]->WorkLocal[0] <<= 1*
     0x09D7 [0x0F] ExtData[1]->WorkLocal[5] ^= ExtData[1]->WorkLocal[0]
     0x09DC [0x06] Work_Zone[2] = 0
     0x09DF [0x06] Work_Zone[3] = 0
     0x09E2 [0x06] Work_Zone[4] = 0
     0x09E5 [0x06] Work_Zone[5] = 0
     0x09E8 [0x06] Work_Zone[6] = 0
     0x09EB [0x06] Work_Zone[7] = 0
     0x09EE [0x06] Work_Zone[8] = 0
     0x09F1 [0x06] Work_Zone[9] = 0
     0x09F4 [0x06] Work_Zone_1700[0] = 0
     0x09F7 [0x06] Work_Zone_1700[1] = 0
     0x09FA [0x06] Work_Zone_1700[2] = 0
     0x09FD [0x06] Work_Zone_1700[3] = 0
     0x0A00 [0x06] Work_Zone_1700[4] = 0
     0x0A03 [0x06] Work_Zone_1700[5] = 0
     0x0A06 [0x02] IF !(ExtData[1]->WorkLocal[3] == 0*) GOTO 0x0A39
     0x0A0E [0x03] Work_Zone[2] = 1976*
     0x0A13 [0x03] Work_Zone[3] = 30000*
     0x0A18 [0x03] Work_Zone[4] = 1977*
     0x0A1D [0x03] Work_Zone[5] = 95000*
     0x0A22 [0x03] Work_Zone[6] = 1978*
     0x0A27 [0x03] Work_Zone[7] = 115000*
     0x0A2C [0x03] Work_Zone[8] = 1979*
     0x0A31 [0x03] Work_Zone[9] = 20000*
     0x0A36 [0x01] GOTO 0x0C2B
     0x0A39 [0x02] IF !(ExtData[1]->WorkLocal[3] == 1*) GOTO 0x0A76
     0x0A41 [0x03] Work_Zone[2] = 1984*
     0x0A46 [0x03] Work_Zone[3] = 40000*
     0x0A4B [0x03] Work_Zone[4] = 1985*
     0x0A50 [0x03] Work_Zone[5] = 40000*
     0x0A55 [0x03] Work_Zone[6] = 1986*
     0x0A5A [0x03] Work_Zone[7] = 10000*
     0x0A5F [0x03] Work_Zone[8] = 1987*
     0x0A64 [0x03] Work_Zone[9] = 10000*
     0x0A69 [0x03] Work_Zone_1700[0] = 1988*
     0x0A6E [0x03] Work_Zone_1700[1] = 20000*
     0x0A73 [0x01] GOTO 0x0C2B
     0x0A76 [0x02] IF !(ExtData[1]->WorkLocal[3] == 2*) GOTO 0x0AB3
     0x0A7E [0x03] Work_Zone[2] = 1992*
     0x0A83 [0x03] Work_Zone[3] = 40000*
     0x0A88 [0x03] Work_Zone[4] = 1993*
     0x0A8D [0x03] Work_Zone[5] = 40000*
     0x0A92 [0x03] Work_Zone[6] = 1994*
     0x0A97 [0x03] Work_Zone[7] = 10000*
     0x0A9C [0x03] Work_Zone[8] = 1995*
     0x0AA1 [0x03] Work_Zone[9] = 10000*
     0x0AA6 [0x03] Work_Zone_1700[0] = 1996*
     0x0AAB [0x03] Work_Zone_1700[1] = 20000*
     0x0AB0 [0x01] GOTO 0x0C2B
     0x0AB3 [0x02] IF !(ExtData[1]->WorkLocal[3] == 3*) GOTO 0x0AFA
     0x0ABB [0x03] Work_Zone[2] = 2000*
     0x0AC0 [0x03] Work_Zone[3] = 40000*
     0x0AC5 [0x03] Work_Zone[4] = 2001*
     0x0ACA [0x03] Work_Zone[5] = 40000*
     0x0ACF [0x03] Work_Zone[6] = 1994*
     0x0AD4 [0x03] Work_Zone[7] = 10000*
     0x0AD9 [0x03] Work_Zone[8] = 1995*
     0x0ADE [0x03] Work_Zone[9] = 10000*
     0x0AE3 [0x03] Work_Zone_1700[0] = 2002*
     0x0AE8 [0x03] Work_Zone_1700[1] = 10000*
     0x0AED [0x03] Work_Zone_1700[2] = 2003*
     0x0AF2 [0x03] Work_Zone_1700[3] = 20000*
     0x0AF7 [0x01] GOTO 0x0C2B
     0x0AFA [0x02] IF !(ExtData[1]->WorkLocal[3] == 4*) GOTO 0x0B37
     0x0B02 [0x03] Work_Zone[2] = 2008*
     0x0B07 [0x03] Work_Zone[3] = 40000*
     0x0B0C [0x03] Work_Zone[4] = 2009*
     0x0B11 [0x03] Work_Zone[5] = 40000*
     0x0B16 [0x03] Work_Zone[6] = 2010*
     0x0B1B [0x03] Work_Zone[7] = 10000*
     0x0B20 [0x03] Work_Zone[8] = 2011*
     0x0B25 [0x03] Work_Zone[9] = 10000*
     0x0B2A [0x03] Work_Zone_1700[0] = 2012*
     0x0B2F [0x03] Work_Zone_1700[1] = 20000*
     0x0B34 [0x01] GOTO 0x0C2B
     0x0B37 [0x02] IF !(ExtData[1]->WorkLocal[3] == 5*) GOTO 0x0B6A
     0x0B3F [0x03] Work_Zone[2] = 2016*
     0x0B44 [0x03] Work_Zone[3] = 40000*
     0x0B49 [0x03] Work_Zone[4] = 2017*
     0x0B4E [0x03] Work_Zone[5] = 40000*
     0x0B53 [0x03] Work_Zone[6] = 2018*
     0x0B58 [0x03] Work_Zone[7] = 10000*
     0x0B5D [0x03] Work_Zone[8] = 2019*
     0x0B62 [0x03] Work_Zone[9] = 20000*
     0x0B67 [0x01] GOTO 0x0C2B
     0x0B6A [0x02] IF !(ExtData[1]->WorkLocal[3] == 6*) GOTO 0x0B9D
     0x0B72 [0x03] Work_Zone[2] = 2024*
     0x0B77 [0x03] Work_Zone[3] = 40000*
     0x0B7C [0x03] Work_Zone[4] = 2025*
     0x0B81 [0x03] Work_Zone[5] = 40000*
     0x0B86 [0x03] Work_Zone[6] = 2026*
     0x0B8B [0x03] Work_Zone[7] = 10000*
     0x0B90 [0x03] Work_Zone[8] = 2027*
     0x0B95 [0x03] Work_Zone[9] = 20000*
     0x0B9A [0x01] GOTO 0x0C2B
     0x0B9D [0x02] IF !(ExtData[1]->WorkLocal[3] == 7*) GOTO 0x0BEE
     0x0BA5 [0x03] Work_Zone[2] = 2032*
     0x0BAA [0x03] Work_Zone[3] = 20000*
     0x0BAF [0x03] Work_Zone[4] = 2033*
     0x0BB4 [0x03] Work_Zone[5] = 40000*
     0x0BB9 [0x03] Work_Zone[6] = 2034*
     0x0BBE [0x03] Work_Zone[7] = 40000*
     0x0BC3 [0x03] Work_Zone[8] = 2035*
     0x0BC8 [0x03] Work_Zone[9] = 10000*
     0x0BCD [0x03] Work_Zone_1700[0] = 2036*
     0x0BD2 [0x03] Work_Zone_1700[1] = 20000*
     0x0BD7 [0x03] Work_Zone_1700[2] = 2037*
     0x0BDC [0x03] Work_Zone_1700[3] = 10000*
     0x0BE1 [0x03] Work_Zone_1700[4] = 2039*
     0x0BE6 [0x03] Work_Zone_1700[5] = 20000*
     0x0BEB [0x01] GOTO 0x0C2B
     0x0BEE [0x02] IF !(ExtData[1]->WorkLocal[3] == 8*) GOTO 0x0C2B
     0x0BF6 [0x03] Work_Zone[2] = 2040*
     0x0BFB [0x03] Work_Zone[3] = 30000*
     0x0C00 [0x03] Work_Zone[4] = 2041*
     0x0C05 [0x03] Work_Zone[5] = 30000*
     0x0C0A [0x03] Work_Zone[6] = 2042*
     0x0C0F [0x03] Work_Zone[7] = 8000*
     0x0C14 [0x03] Work_Zone[8] = 2043*
     0x0C19 [0x03] Work_Zone[9] = 30000*
     0x0C1E [0x03] Work_Zone_1700[0] = 2044*
     0x0C23 [0x03] Work_Zone_1700[1] = 20000*
     0x0C28 [0x01] GOTO 0x0C2B
     0x0C2B [0x05] ExtData[1]->WorkLocal[16] = 1
     0x0C2E [0x24] CREATE_DIALOG(message_id=7032*, default_option=ExtData[1]->WorkLocal[19], option_flags=ExtData[1]->WorkLocal[5])
    → "Exchange points for... [None of these./3($1)./$3($3)./$3($5)./$3($7)./$3($9)./$3($11)./$3($13).]"
     0x0C35 [0x25] WAIT_DIALOG_SELECT()
     0x0C36 [0x02] IF !(Work_Zone[0] == 0*) GOTO 0x0C49
     0x0C3E [0x03] ExtData[1]->WorkLocal[19] = 0*
     0x0C43 [0x01] GOTO 0x0174
     0x0C46 [0x01] GOTO 0x0CFF
     0x0C49 [0x02] IF !(Work_Zone[0] == 1*) GOTO 0x0C59
     0x0C51 [0x03] ExtData[1]->WorkLocal[19] = 1*
     0x0C56 [0x01] GOTO 0x0CFF
     0x0C59 [0x02] IF !(Work_Zone[0] == 2*) GOTO 0x0C73
     0x0C61 [0x03] ExtData[1]->WorkLocal[19] = 2*
     0x0C66 [0x03] Work_Zone[2] = Work_Zone[4]
     0x0C6B [0x03] Work_Zone[3] = Work_Zone[5]
     0x0C70 [0x01] GOTO 0x0CFF
     0x0C73 [0x02] IF !(Work_Zone[0] == 3*) GOTO 0x0C8D
     0x0C7B [0x03] ExtData[1]->WorkLocal[19] = 3*
     0x0C80 [0x03] Work_Zone[2] = Work_Zone[6]
     0x0C85 [0x03] Work_Zone[3] = Work_Zone[7]
     0x0C8A [0x01] GOTO 0x0CFF
     0x0C8D [0x02] IF !(Work_Zone[0] == 4*) GOTO 0x0CA7
     0x0C95 [0x03] ExtData[1]->WorkLocal[19] = 4*
     0x0C9A [0x03] Work_Zone[2] = Work_Zone[8]
     0x0C9F [0x03] Work_Zone[3] = Work_Zone[9]
     0x0CA4 [0x01] GOTO 0x0CFF
     0x0CA7 [0x02] IF !(Work_Zone[0] == 5*) GOTO 0x0CC1
     0x0CAF [0x03] ExtData[1]->WorkLocal[19] = 5*
     0x0CB4 [0x03] Work_Zone[2] = Work_Zone_1700[0]
     0x0CB9 [0x03] Work_Zone[3] = Work_Zone_1700[1]
     0x0CBE [0x01] GOTO 0x0CFF
     0x0CC1 [0x02] IF !(Work_Zone[0] == 6*) GOTO 0x0CDB
     0x0CC9 [0x03] ExtData[1]->WorkLocal[19] = 6*
     0x0CCE [0x03] Work_Zone[2] = Work_Zone_1700[2]
     0x0CD3 [0x03] Work_Zone[3] = Work_Zone_1700[3]
     0x0CD8 [0x01] GOTO 0x0CFF
     0x0CDB [0x02] IF !(Work_Zone[0] == 7*) GOTO 0x0CF5
     0x0CE3 [0x03] ExtData[1]->WorkLocal[19] = 7*
     0x0CE8 [0x03] Work_Zone[2] = Work_Zone_1700[4]
     0x0CED [0x03] Work_Zone[3] = Work_Zone_1700[5]
     0x0CF2 [0x01] GOTO 0x0CFF
     0x0CF5 [0x03] Work_Zone[2] = 0*
     0x0CFA [0x03] Work_Zone[3] = 0*
     0x0CFF [0x02] IF !(Work_Zone[2] == 0*) GOTO 0x0D53
     0x0D07 [0x1A] CALL_SUBROUTINE(address=0x0E91)
     0x0D0A [0x03] Work_Zone_1700[24] = ExtData[1]->WorkLocal[9]
     0x0D0F [0x1D] PRINT_EVENT_MESSAGE(message_id=7033*)
    → "Trade $1 guild points for $3?"
     0x0D12 [0x23] WAIT_FOR_DIALOG_INTERACTION
     0x0D13 [0x24] CREATE_DIALOG(message_id=7030*, default_option=1*, option_flags=0*)
    → "Proceed with the transaction? (GP: $ ) [Yes./No.]"
     0x0D1A [0x25] WAIT_DIALOG_SELECT()
     0x0D1B [0x02] IF !(Work_Zone[0] == 0*) GOTO 0x0D53
     0x0D23 [0x03] Work_Zone[1] = ExtData[1]->WorkLocal[20]
     0x0D28 [0x40] SET_BIT_WORK_RANGE(start_bit=5*, end_bit=8*, target=Work_Zone[1], source=ExtData[1]->WorkLocal[19])
     0x0D31 [0x40] SET_BIT_WORK_RANGE(start_bit=9*, end_bit=24*, target=Work_Zone[1], source=1*)
     0x0D3A [0x43] SEND_EVENT_UPDATE: Send pending tag to server (packet 0x005B)
     0x0D3C [0x43] SEND_EVENT_UPDATE: Check pending flag (skip if not pending)
     0x0D3E [0x02] IF !(Work_Zone[9] == 0*) GOTO 0x0D50
     0x0D46 [0x03] ExtData[1]->WorkLocal[9] = Work_Zone[2]
     0x0D4B [0x03] ExtData[1]->WorkLocal[15] = Work_Zone[8]
     0x0D50 [0x01] GOTO 0x0D53
     0x0D53 [0x01] GOTO 0x09BD
     0x0D56 [0x01] GOTO 0x0D59
     0x0D59 [0x01] GOTO 0x0174
     0x0D5C [0x01] GOTO 0x0DF0
# Dead code (unreachable instructions):
     0x0DC6 [0x01] GOTO 0x0DF0
     0x0DED [0x01] GOTO 0x0DF0
# Dead code (unreachable instructions):
     0x0DF2 [0x03] Work_Zone[2] = ExtData[1]->WorkLocal[6]
     0x0DF7 [0x03] Work_Zone[3] = ExtData[1]->WorkLocal[8]
     0x0DFC [0x93] DISPLAY_ITEM_INFO(item_id=Work_Zone[2])
     0x0DFF [0x02] IF !(ExtData[1]->WorkLocal[11] == 0*) GOTO 0x0E18
     0x0E07 [0x1D] PRINT_EVENT_MESSAGE(message_id=7028*)
    → "How many do you wish to trade for?"
     0x0E0A [0x23] WAIT_FOR_DIALOG_INTERACTION
     0x0E0B [0x71] USER_INPUT_HANDLER: Open numerical input with params (work=[1*, 4*])
     0x0E11 [0x71] USER_INPUT_HANDLER: Process numerical input B (work=ExtData[1]->WorkLocal[7])
     0x0E15 [0x01] GOTO 0x0E1D
     0x0E18 [0x03] ExtData[1]->WorkLocal[7] = 1*
     0x0E1D [0x02] IF !(ExtData[1]->WorkLocal[7] <= 0*) GOTO 0x0E8D
     0x0E25 [0x14] ExtData[1]->WorkLocal[8] *= ExtData[1]->WorkLocal[7]
     0x0E2A [0x03] Work_Zone[3] = ExtData[1]->WorkLocal[8]
     0x0E2F [0x03] Work_Zone[4] = ExtData[1]->WorkLocal[7]
     0x0E34 [0x02] IF !(ExtData[1]->WorkLocal[7] == 1*) GOTO 0x0E43
     0x0E3C [0x1D] PRINT_EVENT_MESSAGE(message_id=7027*)
    → "Trade $1 guild points for $0?"
     0x0E3F [0x23] WAIT_FOR_DIALOG_INTERACTION
     0x0E40 [0x01] GOTO 0x0E47
     0x0E43 [0x1D] PRINT_EVENT_MESSAGE(message_id=7029*)
    → "Trade $1 guild points for $2 $0 ?"
     0x0E46 [0x23] WAIT_FOR_DIALOG_INTERACTION
     0x0E47 [0x93] DISPLAY_ITEM_INFO(item_id=0*)
     0x0E4A [0x03] Work_Zone_1700[24] = ExtData[1]->WorkLocal[9]
     0x0E4F [0x24] CREATE_DIALOG(message_id=7030*, default_option=1*, option_flags=0*)
    → "Proceed with the transaction? (GP: $ ) [Yes./No.]"
     0x0E56 [0x25] WAIT_DIALOG_SELECT()
     0x0E57 [0x02] IF !(Work_Zone[0] == 0*) GOTO 0x0E8A
     0x0E5F [0x03] Work_Zone[1] = ExtData[1]->WorkLocal[20]
     0x0E64 [0x40] SET_BIT_WORK_RANGE(start_bit=5*, end_bit=8*, target=Work_Zone[1], source=ExtData[1]->WorkLocal[21])
     0x0E6D [0x40] SET_BIT_WORK_RANGE(start_bit=9*, end_bit=24*, target=Work_Zone[1], source=ExtData[1]->WorkLocal[7])
     0x0E76 [0x43] SEND_EVENT_UPDATE: Send pending tag to server (packet 0x005B)
     0x0E78 [0x43] SEND_EVENT_UPDATE: Check pending flag (skip if not pending)
     0x0E7A [0x02] IF !(Work_Zone[9] == 0*) GOTO 0x0E87
     0x0E82 [0x03] ExtData[1]->WorkLocal[9] = Work_Zone[2]
     0x0E87 [0x01] GOTO 0x0E8A
     0x0E8A [0x01] GOTO 0x0E90
     0x0E8D [0x93] DISPLAY_ITEM_INFO(item_id=0*)
     0x0E90 [0x1B] RETURN
     0x0E91 [0x02] IF !(Work_Zone[2] == 1985*) GOTO 0x0EA0
     0x0E99 [0x1D] PRINT_EVENT_MESSAGE(message_id=7083*)
    → "3 is a wonderful new method of woodworking that allows you to enchant lumber with the mysterious energy of black magic and anima."
     0x0E9C [0x23] WAIT_FOR_DIALOG_INTERACTION
     0x0E9D [0x01] GOTO 0x0F09
     0x0EA0 [0x02] IF !(Work_Zone[2] == 1984*) GOTO 0x0EAF
     0x0EA8 [0x1D] PRINT_EVENT_MESSAGE(message_id=7084*)
    → "3 is a wonderful new method of woodworking that allows you to enchant lumber with the mysterious energy of white magic and anima."
     0x0EAB [0x23] WAIT_FOR_DIALOG_INTERACTION
     0x0EAC [0x01] GOTO 0x0F09
     0x0EAF [0x02] IF !(Work_Zone[2] == 1986*) GOTO 0x0EBE
     0x0EB7 [0x1D] PRINT_EVENT_MESSAGE(message_id=7085*)
    → "3 is a revolutionary new method of woodworking that allows you to bundle logs together, which lets you process more than one at a time."
     0x0EBA [0x23] WAIT_FOR_DIALOG_INTERACTION
     0x0EBB [0x01] GOTO 0x0F09
     0x0EBE [0x02] IF !(Work_Zone[2] == 1987*) GOTO 0x0ECD
     0x0EC6 [0x1D] PRINT_EVENT_MESSAGE(message_id=7093*)
    → "3 is a wonderful new method of woodworking that allows you to bundle lumber together, making it easier to process more bolts with one crystal."
     0x0EC9 [0x23] WAIT_FOR_DIALOG_INTERACTION
     0x0ECA [0x01] GOTO 0x0F09
     0x0ECD [0x02] IF !(Work_Zone[2] == 1993*) GOTO 0x0EDC
     0x0ED5 [0x1D] PRINT_EVENT_MESSAGE(message_id=7159*)
    → "3 is a wonderful new method of smithing that allows you to enchant metals with the mysterious energy of black magic and anima."
     0x0ED8 [0x23] WAIT_FOR_DIALOG_INTERACTION
     0x0ED9 [0x01] GOTO 0x0F09
     0x0EDC [0x02] IF !(Work_Zone[2] == 1992*) GOTO 0x0EEB
     0x0EE4 [0x1D] PRINT_EVENT_MESSAGE(message_id=7160*)
    → "3 is a wonderful new method of smithing that allows you to enchant metals with the mysterious energy of white magic and anima."
     0x0EE7 [0x23] WAIT_FOR_DIALOG_INTERACTION
     0x0EE8 [0x01] GOTO 0x0F09
     0x0EEB [0x02] IF !(Work_Zone[2] == 1994*) GOTO 0x0EFA
     0x0EF3 [0x1D] PRINT_EVENT_MESSAGE(message_id=7168*)
    → "3 is a wonderful new method of goldsmithing that allows you to shape softened ingots with a mandrel, making it easier to process more chains with one crystal."
     0x0EF6 [0x23] WAIT_FOR_DIALOG_INTERACTION
     0x0EF7 [0x01] GOTO 0x0F09
     0x0EFA [0x02] IF !(Work_Zone[2] == 1995*) GOTO 0x0F09
     0x0F02 [0x1D] PRINT_EVENT_MESSAGE(message_id=7169*)
    → "3 is a wonderful new method of goldsmithing that allows you to shape softened ingots on a workshop anvil,making it easier to process more sheets with one crystal."
     0x0F05 [0x23] WAIT_FOR_DIALOG_INTERACTION
     0x0F06 [0x01] GOTO 0x0F09
     0x0F09 [0x1B] RETURN
```
