# 17723494 - Anilla

## Common Data

| Field            | Value                         |
|------------------|-------------------------------|
| Zone             | Northern San d'Oria (ID: 231) |
| Block Size       | 1720 bytes                    |
| Total Events     | 8                             |
| References Count | 55                            |

## List of Events

| Event ID              | Entrypoint   |   Size |   Instructions |
|-----------------------|--------------|--------|----------------|
| [65535](#event-65535) | 0x0000       |      1 |              1 |
| [535](#event-535)     | 0x0001       |      1 |              1 |
| [0](#event-0)         | 0x0002       |     28 |              5 |
| [586](#event-586)     | 0x001E       |     95 |             21 |
| [587](#event-587)     | 0x007D       |    102 |             24 |
| [631](#event-631)     | 0x00E3       |      1 |              1 |
| [808](#event-808)     | 0x00E4       |    237 |             35 |
| [878](#event-878)     | 0x01D1       |    986 |            121 |

## DAT References (imed_data)

|   Index | Hex Value   |   Dec Value |
|---------|-------------|-------------|
|       0 | 0xFFFFD5DD  |  4294956509 |
|       1 | 0x06E3      |        1763 |
|       2 | 0xFFFFFF39  |  4294967097 |
|       3 | 0x00AF      |         175 |
|       4 | 0x001E      |          30 |
|       5 | 0x2CFC      |       11516 |
|       6 | 0x002D      |          45 |
|       7 | 0x2CFE      |       11518 |
|       8 | 0x2D00      |       11520 |
|       9 | 0x2D03      |       11523 |
|      10 | 0x37EF      |       14319 |
|      11 | 0x37F8      |       14328 |
|      12 | 0x37F9      |       14329 |
|      13 | 0x37FA      |       14330 |
|      14 | 0x003C      |          60 |
|      15 | 0x37FB      |       14331 |
|      16 | 0x37FC      |       14332 |
|      17 | 0x37FD      |       14333 |
|      18 | 0x00C8      |         200 |
|      19 | 0x0000      |           0 |
|      20 | 0x001B      |          27 |
|      21 | 0x4BB4      |       19380 |
|      22 | 0x4BB5      |       19381 |
|      23 | 0x0001      |           1 |
|      24 | 0x00E7      |         231 |
|      25 | 0x0009      |           9 |
|      26 | 0x4284      |       17028 |
|      27 | 0xFFFFB3D0  |  4294947792 |
|      28 | 0x4BB6      |       19382 |
|      29 | 0x00A0      |         160 |
|      30 | 0x4936      |       18742 |
|      31 | 0x2638      |        9784 |
|      32 | 0xECD0      |       60624 |
|      33 | 0x0C81      |        3201 |
|      34 | 0x0214      |         532 |
|      35 | 0x000F      |          15 |
|      36 | 0x0096      |         150 |
|      37 | 0x471D      |       18205 |
|      38 | 0x0020      |          32 |
|      39 | 0x471E      |       18206 |
|      40 | 0x471F      |       18207 |
|      41 | 0x0021      |          33 |
|      42 | 0x4720      |       18208 |
|      43 | 0x4721      |       18209 |
|      44 | 0x4722      |       18210 |
|      45 | 0x0050      |          80 |
|      46 | 0x0028      |          40 |
|      47 | 0x4723      |       18211 |
|      48 | 0x4724      |       18212 |
|      49 | 0x4725      |       18213 |
|      50 | 0x4726      |       18214 |
|      51 | 0x4727      |       18215 |
|      52 | 0x005A      |          90 |
|      53 | 0x0078      |         120 |
|      54 | 0x4728      |       18216 |

## String References

- **11516**: Say, have you heard?
- **11518**: Yes, but I trust Prince Trion more than Prince Pieuje. He's the elder, and stronger, of the two.
- **11520**: Is it just me, or are there more strangers in town these days? Whatever could it mean?
- **11523**: Well, guess what happened to me. I was tidying the house yesterday, when a strange man walked in. He then ran out the veranda without even saying hello!
- **14319**: <Player>'s badge flashes brightly.
- **14328**: The other day I saw a man wandering around town wearing the most unusual clothing. Is there some festival I am not aware of?
- **14330**: You cannot be serious! Do you mean to tell me that another frightful Crystal War once more threatens our fair home?
- **14332**: Speaking of which, I had one of those unruly brutes burst into my home while I was dusting, and proceed to boast about some badge he'd received...
- **18742**: @@
- **19380**: You are now able to enjoy a new storyline, Seekers of Adoulin.
- **19381**: Start Seekers of Adoulin? [Yes (View cutscene)./Maybe later.]
- **19382**: Examine the Tales' Beginning in Northern San d'Oria, Bastok Markets, or Windurst Woods when you wish to start Seekers of Adoulin.

## Events

### Event 65535

#### Metadata

| Field        | Value   |
|--------------|---------|
| Entrypoint   | 0x0000  |
| Data Size    | 1 bytes |
| Instructions | 1       |

```
      00 01 02 03 04 05 06 07  08 09 0A 0B 0C 0D 0E 0F
      -- -- -- -- -- -- -- --  -- -- -- -- -- -- -- --
0000: 00                                                .               
```

#### Opcodes

```
  0: 0x0000 [0x00] END_REQSTACK()
```

### Event 535

#### Metadata

| Field        | Value   |
|--------------|---------|
| Entrypoint   | 0x0001  |
| Data Size    | 1 bytes |
| Instructions | 1       |

```
      00 01 02 03 04 05 06 07  08 09 0A 0B 0C 0D 0E 0F
      -- -- -- -- -- -- -- --  -- -- -- -- -- -- -- --
0000:    00                                              .              
```

#### Opcodes

```
  0: 0x0001 [0x00] END_REQSTACK()
```

### Event 0

#### Metadata

| Field        | Value    |
|--------------|----------|
| Entrypoint   | 0x0002   |
| Data Size    | 28 bytes |
| Instructions | 5        |

```
      00 01 02 03 04 05 06 07  08 09 0A 0B 0C 0D 0E 0F
      -- -- -- -- -- -- -- --  -- -- -- -- -- -- -- --
0000:       22 00 92 01 F8 FF  FF 7F 37 00 80 01 80 02    ".......7.....
0010: 80 03 80 79 00 F8 FF FF  7F 02 70 0E 01 00        ...y......p...  
```

#### Opcodes

```
  0: 0x0002 [0x22] ENTITY_HIDE_FLAG(enabled=0x00)
  1: 0x0004 [0x92] EventEntity->Render.Flags3 ^= 0x01
  2: 0x000A [0x37] UPDATE_EVENT_POSITION_AND_DIR: x=-10.787*, z=1.763*, y=-0.199*, direction=15.4°*
  3: 0x0013 [0x79] EventEntity looks at Trion (ID: 17723394/0x010E7002) (Basic look)
  4: 0x001D [0x00] END_REQSTACK()
```

### Event 586

#### Metadata

| Field        | Value    |
|--------------|----------|
| Entrypoint   | 0x001E   |
| Data Size    | 95 bytes |
| Instructions | 21       |

```
      00 01 02 03 04 05 06 07  08 09 0A 0B 0C 0D 0E 0F
      -- -- -- -- -- -- -- --  -- -- -- -- -- -- -- --
0010:                                            1E 67                .g
0020: 70 0E 01 6F 70 66 04 80  F8 FF FF 7F F8 FF FF 7F  p..opf..........
0030: 74 6C 6B 30 1D 05 80 23  5E 69 64 6C 30 1C 06 80  tlk0...#^idl0...
0040: 27 64 67 70 0E 01 05 2A  64 67 70 0E 01 1C 06 80  'dgp...*dgp.....
0050: 66 04 80 F8 FF FF 7F F8  FF FF 7F 74 6C 6B 30 1D  f..........tlk0.
0060: 07 80 23 5E 69 64 6C 30  1C 06 80 27 64 67 70 0E  ..#^idl0...'dgp.
0070: 01 06 2A 64 67 70 0E 01  1C 04 80 21 00           ..*dgp.....!.   
```

#### Opcodes

```
  0: 0x001E [0x1E] EventEntity looks at Matildie (ID: 17723495/0x010E7067) and starts talking
  1: 0x0023 [0x6F] WAIT_FRAME_DELAY: Yield until WaitTime reaches zero
  2: 0x0024 [0x70] WAIT_ENTITY_RENDER_FLAG: Wait while EventEntity->Render.Flags3 bit 2 is set (cancel turn if not)
  3: 0x0025 [0x66] LOAD_EXT_SCHEDULER_MAIN: Load scheduler "tlk0" with entities [EventEntity, EventEntity], work=30*
  4: 0x0034 [0x1D] PRINT_EVENT_MESSAGE(message_id=11516*)
    → "Say, have you heard?"
  5: 0x0037 [0x23] WAIT_FOR_DIALOG_INTERACTION
  6: 0x0038 [0x5E] EventEntity goes idle (kills current action) (animation: "idl0")
  7: 0x003D [0x1C] WAIT(45* ticks)
  8: 0x0040 [0x27] REQ_SET(priority=0x64, entity_id=Matildie (ID: 17723495/0x010E7067), tag_num=0x05)
  9: 0x0047 [0x2A] GET_REQ_LEVEL(level=100, entity_id=Matildie (ID: 17723495/0x010E7067))
 10: 0x004D [0x1C] WAIT(45* ticks)
 11: 0x0050 [0x66] LOAD_EXT_SCHEDULER_MAIN: Load scheduler "tlk0" with entities [EventEntity, EventEntity], work=30*
 12: 0x005F [0x1D] PRINT_EVENT_MESSAGE(message_id=11518*)
    → "Yes, but I trust Prince Trion more than Prince Pieuje. He's the elder, and stronger, of the two."
 13: 0x0062 [0x23] WAIT_FOR_DIALOG_INTERACTION
 14: 0x0063 [0x5E] EventEntity goes idle (kills current action) (animation: "idl0")
 15: 0x0068 [0x1C] WAIT(45* ticks)
 16: 0x006B [0x27] REQ_SET(priority=0x64, entity_id=Matildie (ID: 17723495/0x010E7067), tag_num=0x06)
 17: 0x0072 [0x2A] GET_REQ_LEVEL(level=100, entity_id=Matildie (ID: 17723495/0x010E7067))
 18: 0x0078 [0x1C] WAIT(30* ticks)
 19: 0x007B [0x21] END_EVENT
 20: 0x007C [0x00] END_REQSTACK()
```

### Event 587

#### Metadata

| Field        | Value     |
|--------------|-----------|
| Entrypoint   | 0x007D    |
| Data Size    | 102 bytes |
| Instructions | 24        |

```
      00 01 02 03 04 05 06 07  08 09 0A 0B 0C 0D 0E 0F
      -- -- -- -- -- -- -- --  -- -- -- -- -- -- -- --
0070:                                         1E 67 70               .gp
0080: 0E 01 6F 70 66 04 80 F8  FF FF 7F F8 FF FF 7F 74  ..opf..........t
0090: 6C 6B 30 1D 08 80 23 5E  69 64 6C 30 1C 06 80 27  lk0...#^idl0...'
00A0: 64 67 70 0E 01 08 2A 64  67 70 0E 01 1C 06 80 1E  dgp...*dgp......
00B0: 67 70 0E 01 6F 70 66 04  80 F8 FF FF 7F F8 FF FF  gp..opf.........
00C0: 7F 74 6C 6B 30 1D 09 80  23 5E 69 64 6C 30 1C 06  .tlk0...#^idl0..
00D0: 80 27 64 67 70 0E 01 09  2A 64 67 70 0E 01 1C 04  .'dgp...*dgp....
00E0: 80 21 00                                          .!.             
```

#### Opcodes

```
  0: 0x007D [0x1E] EventEntity looks at Matildie (ID: 17723495/0x010E7067) and starts talking
  1: 0x0082 [0x6F] WAIT_FRAME_DELAY: Yield until WaitTime reaches zero
  2: 0x0083 [0x70] WAIT_ENTITY_RENDER_FLAG: Wait while EventEntity->Render.Flags3 bit 2 is set (cancel turn if not)
  3: 0x0084 [0x66] LOAD_EXT_SCHEDULER_MAIN: Load scheduler "tlk0" with entities [EventEntity, EventEntity], work=30*
  4: 0x0093 [0x1D] PRINT_EVENT_MESSAGE(message_id=11520*)
    → "Is it just me, or are there more strangers in town these days? Whatever could it mean?"
  5: 0x0096 [0x23] WAIT_FOR_DIALOG_INTERACTION
  6: 0x0097 [0x5E] EventEntity goes idle (kills current action) (animation: "idl0")
  7: 0x009C [0x1C] WAIT(45* ticks)
  8: 0x009F [0x27] REQ_SET(priority=0x64, entity_id=Matildie (ID: 17723495/0x010E7067), tag_num=0x08)
  9: 0x00A6 [0x2A] GET_REQ_LEVEL(level=100, entity_id=Matildie (ID: 17723495/0x010E7067))
 10: 0x00AC [0x1C] WAIT(45* ticks)
 11: 0x00AF [0x1E] EventEntity looks at Matildie (ID: 17723495/0x010E7067) and starts talking
 12: 0x00B4 [0x6F] WAIT_FRAME_DELAY: Yield until WaitTime reaches zero
 13: 0x00B5 [0x70] WAIT_ENTITY_RENDER_FLAG: Wait while EventEntity->Render.Flags3 bit 2 is set (cancel turn if not)
 14: 0x00B6 [0x66] LOAD_EXT_SCHEDULER_MAIN: Load scheduler "tlk0" with entities [EventEntity, EventEntity], work=30*
 15: 0x00C5 [0x1D] PRINT_EVENT_MESSAGE(message_id=11523*)
    → "Well, guess what happened to me. I was tidying the house yesterday, when a strange man walked in. He then ran out the veranda without even saying hello!"
 16: 0x00C8 [0x23] WAIT_FOR_DIALOG_INTERACTION
 17: 0x00C9 [0x5E] EventEntity goes idle (kills current action) (animation: "idl0")
 18: 0x00CE [0x1C] WAIT(45* ticks)
 19: 0x00D1 [0x27] REQ_SET(priority=0x64, entity_id=Matildie (ID: 17723495/0x010E7067), tag_num=0x09)
 20: 0x00D8 [0x2A] GET_REQ_LEVEL(level=100, entity_id=Matildie (ID: 17723495/0x010E7067))
 21: 0x00DE [0x1C] WAIT(30* ticks)
 22: 0x00E1 [0x21] END_EVENT
 23: 0x00E2 [0x00] END_REQSTACK()
```

### Event 631

#### Metadata

| Field        | Value   |
|--------------|---------|
| Entrypoint   | 0x00E3  |
| Data Size    | 1 bytes |
| Instructions | 1       |

```
      00 01 02 03 04 05 06 07  08 09 0A 0B 0C 0D 0E 0F
      -- -- -- -- -- -- -- --  -- -- -- -- -- -- -- --
00E0:          00                                          .            
```

#### Opcodes

```
  0: 0x00E3 [0x00] END_REQSTACK()
```

### Event 808

#### Metadata

| Field        | Value     |
|--------------|-----------|
| Entrypoint   | 0x00E4    |
| Data Size    | 237 bytes |
| Instructions | 35        |

```
      00 01 02 03 04 05 06 07  08 09 0A 0B 0C 0D 0E 0F
      -- -- -- -- -- -- -- --  -- -- -- -- -- -- -- --
00E0:             42 48 0A 80  1C 06 80 4A 66 70 0E 01      BH.....Jfp..
00F0: F0 FF FF 7F 1C 06 80 66  04 80 F8 FF FF 7F F8 FF  .......f........
0100: FF 7F 74 6C 6B 30 1D 0B  80 23 66 04 80 F8 FF FF  ..tlk0...#f.....
0110: 7F F8 FF FF 7F 74 6C 6B  31 4A 67 70 0E 01 66 70  .....tlk1Jgp..fp
0120: 0E 01 1C 06 80 4A 66 70  0E 01 67 70 0E 01 1C 06  .....Jfp..gp....
0130: 80 66 04 80 67 70 0E 01  67 70 0E 01 74 6C 6B 30  .f..gp..gp..tlk0
0140: 2B 67 70 0E 01 0C 80 23  66 04 80 67 70 0E 01 67  +gp....#f..gp..g
0150: 70 0E 01 74 6C 6B 31 66  04 80 F8 FF FF 7F F8 FF  p..tlk1f........
0160: FF 7F 64 69 73 30 1D 0D  80 23 1C 0E 80 66 04 80  ..dis0...#...f..
0170: 67 70 0E 01 67 70 0E 01  74 6C 6B 30 2B 67 70 0E  gp..gp..tlk0+gp.
0180: 01 0F 80 23 66 04 80 67  70 0E 01 67 70 0E 01 74  ...#f..gp..gp..t
0190: 6C 6B 31 66 04 80 F8 FF  FF 7F F8 FF FF 7F 74 6C  lk1f..........tl
01A0: 6B 30 1D 10 80 23 66 04  80 F8 FF FF 7F F8 FF FF  k0...#f.........
01B0: 7F 74 6C 6B 31 66 04 80  67 70 0E 01 67 70 0E 01  .tlk1f..gp..gp..
01C0: 64 69 73 30 2B 67 70 0E  01 11 80 23 1C 0E 80 21  dis0+gp....#...!
01D0: 00                                                .               
```

#### Opcodes

```
  0: 0x00E4 [0x42] SET_CLI_EVENT_CANCEL_DATA()
  1: 0x00E5 [0x48] [System] [14319*]:
    → "<Player>'s badge flashes brightly."
  2: 0x00E8 [0x1C] WAIT(45* ticks)
  3: 0x00EB [0x4A] Anilla (ID: 17723494/0x010E7066) looks at LocalPlayer
  4: 0x00F4 [0x1C] WAIT(45* ticks)
  5: 0x00F7 [0x66] LOAD_EXT_SCHEDULER_MAIN: Load scheduler "tlk0" with entities [EventEntity, EventEntity], work=30*
  6: 0x0106 [0x1D] PRINT_EVENT_MESSAGE(message_id=14328*)
    → "The other day I saw a man wandering around town wearing the most unusual clothing. Is there some festival I am not aware of?"
  7: 0x0109 [0x23] WAIT_FOR_DIALOG_INTERACTION
  8: 0x010A [0x66] LOAD_EXT_SCHEDULER_MAIN: Load scheduler "tlk1" with entities [EventEntity, EventEntity], work=30*
  9: 0x0119 [0x4A] Matildie (ID: 17723495/0x010E7067) looks at Anilla (ID: 17723494/0x010E7066)
 10: 0x0122 [0x1C] WAIT(45* ticks)
 11: 0x0125 [0x4A] Anilla (ID: 17723494/0x010E7066) looks at Matildie (ID: 17723495/0x010E7067)
 12: 0x012E [0x1C] WAIT(45* ticks)
 13: 0x0131 [0x66] LOAD_EXT_SCHEDULER_MAIN: Load scheduler "tlk0" with entities [Matildie (ID: 17723495/0x010E7067), Matildie (ID: 17723495/0x010E7067)], work=30*
 14: 0x0140 [0x2B] Matildie (ID: 17723495/0x010E7067) [14329*]:
    → "How could you possibly not have heard? The Near Eastern folk are recruiting soldiers on a massive scale to quell some war that is raging with the beastmen."
 15: 0x0147 [0x23] WAIT_FOR_DIALOG_INTERACTION
 16: 0x0148 [0x66] LOAD_EXT_SCHEDULER_MAIN: Load scheduler "tlk1" with entities [Matildie (ID: 17723495/0x010E7067), Matildie (ID: 17723495/0x010E7067)], work=30*
 17: 0x0157 [0x66] LOAD_EXT_SCHEDULER_MAIN: Load scheduler "dis0" with entities [EventEntity, EventEntity], work=30*
 18: 0x0166 [0x1D] PRINT_EVENT_MESSAGE(message_id=14330*)
    → "You cannot be serious! Do you mean to tell me that another frightful Crystal War once more threatens our fair home?"
 19: 0x0169 [0x23] WAIT_FOR_DIALOG_INTERACTION
 20: 0x016A [0x1C] WAIT(60* ticks)
 21: 0x016D [0x66] LOAD_EXT_SCHEDULER_MAIN: Load scheduler "tlk0" with entities [Matildie (ID: 17723495/0x010E7067), Matildie (ID: 17723495/0x010E7067)], work=30*
 22: 0x017C [0x2B] Matildie (ID: 17723495/0x010E7067) [14331*]:
    → "There is no need to be so dramatic, Anilla. The Near East is not quite so near as to warrant an immediate descent into panic and despair. The only people this news pertains to are those action-hungry adventurers."
 23: 0x0183 [0x23] WAIT_FOR_DIALOG_INTERACTION
 24: 0x0184 [0x66] LOAD_EXT_SCHEDULER_MAIN: Load scheduler "tlk1" with entities [Matildie (ID: 17723495/0x010E7067), Matildie (ID: 17723495/0x010E7067)], work=30*
 25: 0x0193 [0x66] LOAD_EXT_SCHEDULER_MAIN: Load scheduler "tlk0" with entities [EventEntity, EventEntity], work=30*
 26: 0x01A2 [0x1D] PRINT_EVENT_MESSAGE(message_id=14332*)
    → "Speaking of which, I had one of those unruly brutes burst into my home while I was dusting, and proceed to boast about some badge he'd received..."
 27: 0x01A5 [0x23] WAIT_FOR_DIALOG_INTERACTION
 28: 0x01A6 [0x66] LOAD_EXT_SCHEDULER_MAIN: Load scheduler "tlk1" with entities [EventEntity, EventEntity], work=30*
 29: 0x01B5 [0x66] LOAD_EXT_SCHEDULER_MAIN: Load scheduler "dis0" with entities [Matildie (ID: 17723495/0x010E7067), Matildie (ID: 17723495/0x010E7067)], work=30*
 30: 0x01C4 [0x2B] Matildie (ID: 17723495/0x010E7067) [14333*]:
    → "Simply unforgivable. If one must brag of some possession so badly, one should at least observe the common courtesy of knocking..."
 31: 0x01CB [0x23] WAIT_FOR_DIALOG_INTERACTION
 32: 0x01CC [0x1C] WAIT(60* ticks)
 33: 0x01CF [0x21] END_EVENT
 34: 0x01D0 [0x00] END_REQSTACK()
```

### Event 878

#### Metadata

| Field        | Value     |
|--------------|-----------|
| Entrypoint   | 0x01D1    |
| Data Size    | 986 bytes |
| Instructions | 120       |

```
      00 01 02 03 04 05 06 07  08 09 0A 0B 0C 0D 0E 0F
      -- -- -- -- -- -- -- --  -- -- -- -- -- -- -- --
01D0:    42 45 12 80 F8 FF FF  7F F8 FF FF 7F 66 64 6F   BE..........fdo
01E0: 31 13 80 55 12 80 F8 FF  FF 7F F8 FF FF 7F 66 64  1..U..........fd
01F0: 6F 31 46 01 38 14 80 03  01 10 13 80 43 00 43 01  o1F.8.......C.C.
0200: 03 00 00 04 10 02 05 10  13 80 00 7C 02 48 15 80  ...........|.H..
0210: 24 16 80 17 80 13 80 25  02 00 10 13 80 00 28 02  $......%......(.
0220: 03 01 10 17 80 01 7C 02  02 00 10 17 80 00 7C 02  ......|.......|.
0230: 03 01 10 13 80 02 00 00  17 80 00 60 02 8D 18 80  ...........`....
0240: 17 80 1C 04 80 B8 18 80  13 80 19 80 1A 80 1B 80  ................
0250: 54 61 6C 65 73 27 42 65  67 69 6E 6E 69 6E 67 00  Tales'Beginning.
0260: 48 1C 80 23 1C 1D 80 02  00 00 17 80 00 70 02 8A  H..#.........p..
0270: 1C 04 80 48 1E 80 01 96  05 01 7C 02 4E 01 F0 FF  ...H......|.N...
0280: FF 7F 92 01 66 70 0E 01  92 01 67 70 0E 01 BA F0  ....fp....gp....
0290: FF FF 7F 1F 80 20 80 13  80 21 80 80 66 70 0E 01  ..... ...!..fp..
02A0: 80 67 70 0E 01 4A 66 70  0E 01 67 70 0E 01 4A 67  .gp..Jfp..gp..Jg
02B0: 70 0E 01 66 70 0E 01 4A  F0 FF FF 7F 67 70 0E 01  p..fp..J....gp..
02C0: 45 22 80 F8 FF FF 7F F8  FF FF 7F 73 31 36 30 13  E".........s160.
02D0: 80 1C 23 80 45 12 80 F8  FF FF 7F F8 FF FF 7F 66  ..#.E..........f
02E0: 64 69 31 13 80 1C 24 80  66 04 80 66 70 0E 01 66  di1...$.f..fp..f
02F0: 70 0E 01 74 6C 6B 30 52  22 80 F8 FF FF 7F F8 FF  p..tlk0R".......
0300: FF 7F 73 31 36 30 45 22  80 F8 FF FF 7F F8 FF FF  ..s160E"........
0310: 7F 73 31 36 31 13 80 2B  66 70 0E 01 25 80 23 66  .s161..+fp..%.#f
0320: 04 80 66 70 0E 01 66 70  0E 01 74 6C 6B 31 66 26  ..fp..fp..tlk1f&
0330: 80 67 70 0E 01 67 70 0E  01 74 6C 63 30 2B 67 70  .gp..gp..tlc0+gp
0340: 0E 01 27 80 23 52 22 80  F8 FF FF 7F F8 FF FF 7F  ..'.#R".........
0350: 73 31 36 31 45 22 80 F8  FF FF 7F F8 FF FF 7F 73  s161E".........s
0360: 31 36 32 13 80 2B 67 70  0E 01 28 80 23 66 26 80  162..+gp..(.#f&.
0370: 67 70 0E 01 67 70 0E 01  74 6C 63 31 66 29 80 66  gp..gp..tlc1f).f
0380: 70 0E 01 66 70 0E 01 74  6C 62 30 2B 66 70 0E 01  p..fp..tlb0+fp..
0390: 2A 80 23 66 29 80 66 70  0E 01 66 70 0E 01 74 6C  *.#f).fp..fp..tl
03A0: 62 31 52 22 80 F8 FF FF  7F F8 FF FF 7F 73 31 36  b1R".........s16
03B0: 32 45 22 80 F8 FF FF 7F  F8 FF FF 7F 73 31 36 33  2E".........s163
03C0: 13 80 66 04 80 67 70 0E  01 67 70 0E 01 74 6C 6B  ..f..gp..gp..tlk
03D0: 30 2B 67 70 0E 01 2B 80  23 4E 00 F0 FF FF 7F 80  0+gp..+.#N......
03E0: F0 FF FF 7F 66 04 80 67  70 0E 01 67 70 0E 01 74  ....f..gp..gp..t
03F0: 6C 6B 31 52 22 80 F8 FF  FF 7F F8 FF FF 7F 73 31  lk1R".........s1
0400: 36 33 45 22 80 F8 FF FF  7F F8 FF FF 7F 73 31 36  63E".........s16
0410: 34 13 80 1C 04 80 4A 67  70 0E 01 F0 FF FF 7F 1C  4.....Jgp.......
0420: 04 80 4A 66 70 0E 01 F0  FF FF 7F 2B 67 70 0E 01  ..Jfp......+gp..
0430: 2C 80 23 27 05 F0 FF FF  7F 77 1C 2D 80 27 05 F0  ,.#'.....w.-.'..
0440: FF FF 7F 78 1C 2E 80 27  05 67 70 0E 01 0C 52 22  ...x...'.gp...R"
0450: 80 F8 FF FF 7F F8 FF FF  7F 73 31 36 34 45 22 80  .........s164E".
0460: F8 FF FF 7F F8 FF FF 7F  73 31 36 35 13 80 2B 67  ........s165..+g
0470: 70 0E 01 2F 80 23 66 29  80 66 70 0E 01 66 70 0E  p../.#f).fp..fp.
0480: 01 74 6C 62 30 2B 66 70  0E 01 30 80 23 52 22 80  .tlb0+fp..0.#R".
0490: F8 FF FF 7F F8 FF FF 7F  73 31 36 35 45 22 80 F8  ........s165E"..
04A0: FF FF 7F F8 FF FF 7F 73  31 36 36 13 80 2B 66 70  .......s166..+fp
04B0: 0E 01 31 80 23 66 29 80  66 70 0E 01 66 70 0E 01  ..1.#f).fp..fp..
04C0: 74 6C 62 31 2B 66 70 0E  01 32 80 23 52 22 80 F8  tlb1+fp..2.#R"..
04D0: FF FF 7F F8 FF FF 7F 73  31 36 36 45 22 80 F8 FF  .......s166E"...
04E0: FF 7F F8 FF FF 7F 73 31  36 37 13 80 66 04 80 67  ......s167..f..g
04F0: 70 0E 01 67 70 0E 01 74  6C 6B 30 2B 67 70 0E 01  p..gp..tlk0+gp..
0500: 33 80 23 66 04 80 67 70  0E 01 67 70 0E 01 74 6C  3.#f..gp..gp..tl
0510: 6B 31 6E F0 FF FF 7F 17  80 99 F0 FF FF 7F 1C 34  k1n............4
0520: 80 27 05 F0 FF FF 7F 88  7B F0 FF FF 7F 1C 35 80  .'......{.....5.
0530: 52 22 80 F8 FF FF 7F F8  FF FF 7F 73 31 36 37 45  R".........s167E
0540: 22 80 F8 FF FF 7F F8 FF  FF 7F 73 31 36 38 13 80  ".........s168..
0550: 66 29 80 66 70 0E 01 66  70 0E 01 74 6C 62 30 2B  f).fp..fp..tlb0+
0560: 66 70 0E 01 36 80 23 45  12 80 F8 FF FF 7F F8 FF  fp..6.#E........
0570: FF 7F 66 64 6F 31 13 80  55 12 80 F8 FF FF 7F F8  ..fdo1..U.......
0580: FF FF 7F 66 64 6F 31 52  22 80 F8 FF FF 7F F8 FF  ...fdo1R".......
0590: FF 7F 73 31 36 38 46 00  45 12 80 F8 FF FF 7F F8  ..s168F.E.......
05A0: FF FF 7F 66 64 69 32 13  80 21 00                 ...fdi2..!.     
```

#### Opcodes

```
  0: 0x01D1 [0x42] SET_CLI_EVENT_CANCEL_DATA()
  1: 0x01D2 [0x45] LOAD_SCHEDULED_TASK: Load scheduler "fdo1" with entities [EventEntity, EventEntity], work=[200*, 0*]
  2: 0x01E3 [0x55] WAIT_LOAD_SCHEDULER: Wait for scheduler "fdo1" with entities [EventEntity, EventEntity], work=200*
  3: 0x01F2 [0x46] CAMERA_CONTROL: Disable user control
  4: 0x01F4 [0x38] SET_CLIENT_EVENT_MODE(mode=27*)
  5: 0x01F7 [0x03] Work_Zone[1] = 0*
  6: 0x01FC [0x43] SEND_EVENT_UPDATE: Send pending tag to server (packet 0x005B)
  7: 0x01FE [0x43] SEND_EVENT_UPDATE: Check pending flag (skip if not pending)
  8: 0x0200 [0x03] ExtData[1]->WorkLocal[0] = Work_Zone[4]
  9: 0x0205 [0x02] IF !(Work_Zone[5] == 0*) GOTO 0x027C
 10: 0x020D [0x48] [System] [19380*]:
    → "You are now able to enjoy a new storyline, Seekers of Adoulin."
 11: 0x0210 [0x24] CREATE_DIALOG(message_id=19381*, default_option=1*, option_flags=0*)
    → "Start Seekers of Adoulin? [Yes (View cutscene)./Maybe later.]"
 12: 0x0217 [0x25] WAIT_DIALOG_SELECT()
 13: 0x0218 [0x02] IF !(Work_Zone[0] == 0*) GOTO 0x0228
 14: 0x0220 [0x03] Work_Zone[1] = 1*
 15: 0x0225 [0x01] GOTO 0x027C
 16: 0x0228 [0x02] IF !(Work_Zone[0] == 1*) GOTO 0x027C
 17: 0x0230 [0x03] Work_Zone[1] = 0*
 18: 0x0235 [0x02] IF !(ExtData[1]->WorkLocal[0] == 1*) GOTO 0x0260
 19: 0x023D [0x8D] OPEN_MAP_WITH_PROPERTIES(map_id=231*, properties=1*)
 20: 0x0242 [0x1C] WAIT(30* ticks)
 21: 0x0245 [0xB8] MAP_ADD_MARKER_WITH_NAME(zone=231*, submap=0*, marker_id=9*, x_pos=17.028*, y_pos=-19.504*, marker_name="Tales'Beginning")
 22: 0x0260 [0x48] [System] [19382*]:
    → "Examine the Tales' Beginning in Northern San d'Oria, Bastok Markets, or Windurst Woods when you wish to start Seekers of Adoulin."
 23: 0x0263 [0x23] WAIT_FOR_DIALOG_INTERACTION
 24: 0x0264 [0x1C] WAIT(160* ticks)
 25: 0x0267 [0x02] IF !(ExtData[1]->WorkLocal[0] == 1*) GOTO 0x0270
 26: 0x026F [0x8A] CLOSE_MAP()
 27: 0x0270 [0x1C] WAIT(30* ticks)
 28: 0x0273 [0x48] [System] [18742*]:
    → "@@"
 29: 0x0276 [0x01] GOTO 0x0596

SUBROUTINE_027C:
 30: 0x027C [0x4E] SET_ENTITY_HIDE_FLAG: Hide LocalPlayer
 31: 0x0282 [0x92] Anilla (ID: 17723494/0x010E7066)->Render.Flags3 ^= 0x01
 32: 0x0288 [0x92] Matildie (ID: 17723495/0x010E7067)->Render.Flags3 ^= 0x01
 33: 0x028E [0xBA] SET_ENTITY_POSITION(entity_id=LocalPlayer, pos_x=9.784*, pos_z=60.624*, pos_y=0.000*, direction=281.3°*)
 34: 0x029B [0x80] LOAD_WAIT(entity=Anilla (ID: 17723494/0x010E7066))
 35: 0x02A0 [0x80] LOAD_WAIT(entity=Matildie (ID: 17723495/0x010E7067))
 36: 0x02A5 [0x4A] Anilla (ID: 17723494/0x010E7066) looks at Matildie (ID: 17723495/0x010E7067)
 37: 0x02AE [0x4A] Matildie (ID: 17723495/0x010E7067) looks at Anilla (ID: 17723494/0x010E7066)
 38: 0x02B7 [0x4A] LocalPlayer looks at Matildie (ID: 17723495/0x010E7067)
 39: 0x02C0 [0x45] LOAD_SCHEDULED_TASK: Load scheduler "s160" with entities [EventEntity, EventEntity], work=[532*, 0*]
 40: 0x02D1 [0x1C] WAIT(15* ticks)
 41: 0x02D4 [0x45] LOAD_SCHEDULED_TASK: Load scheduler "fdi1" with entities [EventEntity, EventEntity], work=[200*, 0*]
 42: 0x02E5 [0x1C] WAIT(150* ticks)
 43: 0x02E8 [0x66] LOAD_EXT_SCHEDULER_MAIN: Load scheduler "tlk0" with entities [Anilla (ID: 17723494/0x010E7066), Anilla (ID: 17723494/0x010E7066)], work=30*
 44: 0x02F7 [0x52] END_LOAD_SCHEDULER: End scheduler "s160" with entities [EventEntity, EventEntity], work=532*
 45: 0x0306 [0x45] LOAD_SCHEDULED_TASK: Load scheduler "s161" with entities [EventEntity, EventEntity], work=[532*, 0*]
 46: 0x0317 [0x2B] Anilla (ID: 17723494/0x010E7066) [18205*]:
    → "Have you heard what's going on in Adoulin, the land to the west?"
 47: 0x031E [0x23] WAIT_FOR_DIALOG_INTERACTION
 48: 0x031F [0x66] LOAD_EXT_SCHEDULER_MAIN: Load scheduler "tlk1" with entities [Anilla (ID: 17723494/0x010E7066), Anilla (ID: 17723494/0x010E7066)], work=30*
 49: 0x032E [0x66] LOAD_EXT_SCHEDULER_MAIN: Load scheduler "tlc0" with entities [Matildie (ID: 17723495/0x010E7067), Matildie (ID: 17723495/0x010E7067)], work=32*
 50: 0x033D [0x2B] Matildie (ID: 17723495/0x010E7067) [18206*]:
    → "I have. Things are starting to heat up. But can you imagine? Pioneering new lands in this day and age?"
 51: 0x0344 [0x23] WAIT_FOR_DIALOG_INTERACTION
 52: 0x0345 [0x52] END_LOAD_SCHEDULER: End scheduler "s161" with entities [EventEntity, EventEntity], work=532*
 53: 0x0354 [0x45] LOAD_SCHEDULED_TASK: Load scheduler "s162" with entities [EventEntity, EventEntity], work=[532*, 0*]
 54: 0x0365 [0x2B] Matildie (ID: 17723495/0x010E7067) [18207*]:
    → "What in Vana'diel could they possibly be thinking? The lands are filled with airships, yet they pretend at being trailblazers."
 55: 0x036C [0x23] WAIT_FOR_DIALOG_INTERACTION
 56: 0x036D [0x66] LOAD_EXT_SCHEDULER_MAIN: Load scheduler "tlc1" with entities [Matildie (ID: 17723495/0x010E7067), Matildie (ID: 17723495/0x010E7067)], work=32*
 57: 0x037C [0x66] LOAD_EXT_SCHEDULER_MAIN: Load scheduler "tlb0" with entities [Anilla (ID: 17723494/0x010E7066), Anilla (ID: 17723494/0x010E7066)], work=33*
 58: 0x038B [0x2B] Anilla (ID: 17723494/0x010E7066) [18208*]:
    → "The whole affair certainly seems ludicrous enough. Not like it affects us here, though."
 59: 0x0392 [0x23] WAIT_FOR_DIALOG_INTERACTION
 60: 0x0393 [0x66] LOAD_EXT_SCHEDULER_MAIN: Load scheduler "tlb1" with entities [Anilla (ID: 17723494/0x010E7066), Anilla (ID: 17723494/0x010E7066)], work=33*
 61: 0x03A2 [0x52] END_LOAD_SCHEDULER: End scheduler "s162" with entities [EventEntity, EventEntity], work=532*
 62: 0x03B1 [0x45] LOAD_SCHEDULED_TASK: Load scheduler "s163" with entities [EventEntity, EventEntity], work=[532*, 0*]
 63: 0x03C2 [0x66] LOAD_EXT_SCHEDULER_MAIN: Load scheduler "tlk0" with entities [Matildie (ID: 17723495/0x010E7067), Matildie (ID: 17723495/0x010E7067)], work=30*
 64: 0x03D1 [0x2B] Matildie (ID: 17723495/0x010E7067) [18209*]:
    → "Only adventurers would--"
 65: 0x03D8 [0x23] WAIT_FOR_DIALOG_INTERACTION
 66: 0x03D9 [0x4E] SET_ENTITY_HIDE_FLAG: Show LocalPlayer
 67: 0x03DF [0x80] LOAD_WAIT(entity=LocalPlayer)
 68: 0x03E4 [0x66] LOAD_EXT_SCHEDULER_MAIN: Load scheduler "tlk1" with entities [Matildie (ID: 17723495/0x010E7067), Matildie (ID: 17723495/0x010E7067)], work=30*
 69: 0x03F3 [0x52] END_LOAD_SCHEDULER: End scheduler "s163" with entities [EventEntity, EventEntity], work=532*
 70: 0x0402 [0x45] LOAD_SCHEDULED_TASK: Load scheduler "s164" with entities [EventEntity, EventEntity], work=[532*, 0*]
 71: 0x0413 [0x1C] WAIT(30* ticks)
 72: 0x0416 [0x4A] Matildie (ID: 17723495/0x010E7067) looks at LocalPlayer
 73: 0x041F [0x1C] WAIT(30* ticks)
 74: 0x0422 [0x4A] Anilla (ID: 17723494/0x010E7066) looks at LocalPlayer
 75: 0x042B [0x2B] Matildie (ID: 17723495/0x010E7067) [18210*]:
    → "Hm? Can I help you?"
 76: 0x0432 [0x23] WAIT_FOR_DIALOG_INTERACTION
 77: 0x0433 [0x27] REQ_SET(priority=0x05, entity_id=LocalPlayer, tag_num=0x77)
 78: 0x043A [0x1C] WAIT(80* ticks)
 79: 0x043D [0x27] REQ_SET(priority=0x05, entity_id=LocalPlayer, tag_num=0x78)
 80: 0x0444 [0x1C] WAIT(40* ticks)
 81: 0x0447 [0x27] REQ_SET(priority=0x05, entity_id=Matildie (ID: 17723495/0x010E7067), tag_num=0x0C)
 82: 0x044E [0x52] END_LOAD_SCHEDULER: End scheduler "s164" with entities [EventEntity, EventEntity], work=532*
 83: 0x045D [0x45] LOAD_SCHEDULED_TASK: Load scheduler "s165" with entities [EventEntity, EventEntity], work=[532*, 0*]
 84: 0x046E [0x2B] Matildie (ID: 17723495/0x010E7067) [18211*]:
    → "What's this now? You want to know more about the colonization project?"
 85: 0x0475 [0x23] WAIT_FOR_DIALOG_INTERACTION
 86: 0x0476 [0x66] LOAD_EXT_SCHEDULER_MAIN: Load scheduler "tlb0" with entities [Anilla (ID: 17723494/0x010E7066), Anilla (ID: 17723494/0x010E7066)], work=33*
 87: 0x0485 [0x2B] Anilla (ID: 17723494/0x010E7066) [18212*]:
    → "Sorry, but we're as much in the dark as you!"
 88: 0x048C [0x23] WAIT_FOR_DIALOG_INTERACTION
 89: 0x048D [0x52] END_LOAD_SCHEDULER: End scheduler "s165" with entities [EventEntity, EventEntity], work=532*
 90: 0x049C [0x45] LOAD_SCHEDULED_TASK: Load scheduler "s166" with entities [EventEntity, EventEntity], work=[532*, 0*]
 91: 0x04AD [0x2B] Anilla (ID: 17723494/0x010E7066) [18213*]:
    → "Beyond the reaches of the Sea of Zafmlug, toward where the sun sets, lies Adoulin..."
 92: 0x04B4 [0x23] WAIT_FOR_DIALOG_INTERACTION
 93: 0x04B5 [0x66] LOAD_EXT_SCHEDULER_MAIN: Load scheduler "tlb1" with entities [Anilla (ID: 17723494/0x010E7066), Anilla (ID: 17723494/0x010E7066)], work=33*
 94: 0x04C4 [0x2B] Anilla (ID: 17723494/0x010E7066) [18214*]:
    → "It's a country in its own right, no? Quite savage lands for a "country," I must declare! Still, though, word is that they are searching for able-bodied adventurers to serve as pioneers."
 95: 0x04CB [0x23] WAIT_FOR_DIALOG_INTERACTION
 96: 0x04CC [0x52] END_LOAD_SCHEDULER: End scheduler "s166" with entities [EventEntity, EventEntity], work=532*
 97: 0x04DB [0x45] LOAD_SCHEDULED_TASK: Load scheduler "s167" with entities [EventEntity, EventEntity], work=[532*, 0*]
 98: 0x04EC [0x66] LOAD_EXT_SCHEDULER_MAIN: Load scheduler "tlk0" with entities [Matildie (ID: 17723495/0x010E7067), Matildie (ID: 17723495/0x010E7067)], work=30*
 99: 0x04FB [0x2B] Matildie (ID: 17723495/0x010E7067) [18215*]:
    → "If memory serves, wasn't the Jeuno Chamber of Commerce and Industry holding some sort of test for interested applicants? If exploring new lands piques your interest, you might consider heading over to find out more."
100: 0x0502 [0x23] WAIT_FOR_DIALOG_INTERACTION
101: 0x0503 [0x66] LOAD_EXT_SCHEDULER_MAIN: Load scheduler "tlk1" with entities [Matildie (ID: 17723495/0x010E7067), Matildie (ID: 17723495/0x010E7067)], work=30*
102: 0x0512 [0x6E] LocalPlayer uses emote 1*
103: 0x0519 [0x99] Wait for LocalPlayer animation to complete
104: 0x051E [0x1C] WAIT(90* ticks)
105: 0x0521 [0x27] REQ_SET(priority=0x05, entity_id=LocalPlayer, tag_num=0x88)
106: 0x0528 [0x7B] LocalPlayer stops talking
107: 0x052D [0x1C] WAIT(120* ticks)
108: 0x0530 [0x52] END_LOAD_SCHEDULER: End scheduler "s167" with entities [EventEntity, EventEntity], work=532*
109: 0x053F [0x45] LOAD_SCHEDULED_TASK: Load scheduler "s168" with entities [EventEntity, EventEntity], work=[532*, 0*]
110: 0x0550 [0x66] LOAD_EXT_SCHEDULER_MAIN: Load scheduler "tlb0" with entities [Anilla (ID: 17723494/0x010E7066), Anilla (ID: 17723494/0x010E7066)], work=33*
111: 0x055F [0x2B] Anilla (ID: 17723494/0x010E7066) [18216*]:
    → "Well, if you truly feel they need your aid, I wish you the best of luck."
112: 0x0566 [0x23] WAIT_FOR_DIALOG_INTERACTION
113: 0x0567 [0x45] LOAD_SCHEDULED_TASK: Load scheduler "fdo1" with entities [EventEntity, EventEntity], work=[200*, 0*]
114: 0x0578 [0x55] WAIT_LOAD_SCHEDULER: Wait for scheduler "fdo1" with entities [EventEntity, EventEntity], work=200*
115: 0x0587 [0x52] END_LOAD_SCHEDULER: End scheduler "s168" with entities [EventEntity, EventEntity], work=532*

SUBROUTINE_0596:
116: 0x0596 [0x46] CAMERA_CONTROL: Restore default settings
117: 0x0598 [0x45] LOAD_SCHEDULED_TASK: Load scheduler "fdi2" with entities [EventEntity, EventEntity], work=[200*, 0*]
118: 0x05A9 [0x21] END_EVENT
119: 0x05AA [0x00] END_REQSTACK()
```

#### Data or dead code:

```
# Dead code (unreachable instructions):
     0x0279 [0x01] GOTO 0x027C
```
