# 17723456 - Lion

## Common Data

| Field            | Value                         |
|------------------|-------------------------------|
| Zone             | Northern San d'Oria (ID: 231) |
| Block Size       | 572 bytes                     |
| Total Events     | 18                            |
| References Count | 35                            |

## List of Events

| Event ID                   | Entrypoint   |   Size |   Instructions |
|----------------------------|--------------|--------|----------------|
| [65535](#event-65535)      | 0x0000       |      1 |              1 |
| [581](#event-581)          | 0x0001       |      1 |              1 |
| [65535.1](#event-655351)   | 0x0002       |      9 |              3 |
| [65535.2](#event-655352)   | 0x000B       |      5 |              3 |
| [65535.3](#event-655353)   | 0x0010       |     30 |              8 |
| [65535.4](#event-655354)   | 0x002E       |     33 |              5 |
| [65535.5](#event-655355)   | 0x004F       |     20 |              4 |
| [65535.6](#event-655356)   | 0x0063       |     33 |              5 |
| [65535.7](#event-655357)   | 0x0084       |      5 |              3 |
| [65535.8](#event-655358)   | 0x0089       |     20 |              4 |
| [65535.9](#event-655359)   | 0x009D       |     18 |              4 |
| [65535.10](#event-6553510) | 0x00AF       |     20 |              4 |
| [65535.11](#event-6553511) | 0x00C3       |     33 |              5 |
| [65535.12](#event-6553512) | 0x00E4       |     14 |              4 |
| [65535.13](#event-6553513) | 0x00F2       |     51 |              7 |
| [65535.14](#event-6553514) | 0x0125       |     15 |              5 |
| [65535.15](#event-6553515) | 0x0134       |     21 |              5 |
| [65535.16](#event-6553516) | 0x0149       |     14 |              4 |

## DAT References (imed_data)

|   Index | Hex Value   |   Dec Value |
|---------|-------------|-------------|
|       0 | 0x2C94      |       11412 |
|       1 | 0x000D      |          13 |
|       2 | 0xB877      |       47223 |
|       3 | 0xFFFFEC97  |  4294962327 |
|       4 | 0xFFFFF831  |  4294965297 |
|       5 | 0x9DF4      |       40436 |
|       6 | 0xFFFFF461  |  4294964321 |
|       7 | 0x001E      |          30 |
|       8 | 0x070A      |        1802 |
|       9 | 0x005F      |          95 |
|      10 | 0x2C95      |       11413 |
|      11 | 0x0060      |          96 |
|      12 | 0x2C97      |       11415 |
|      13 | 0x2C98      |       11416 |
|      14 | 0x2C99      |       11417 |
|      15 | 0x2C9A      |       11418 |
|      16 | 0x2C9B      |       11419 |
|      17 | 0x2C9C      |       11420 |
|      18 | 0x2C9D      |       11421 |
|      19 | 0x8FD3      |       36819 |
|      20 | 0xFFFFFF78  |  4294967160 |
|      21 | 0x0353      |         851 |
|      22 | 0x2C9E      |       11422 |
|      23 | 0x003C      |          60 |
|      24 | 0x8014      |       32788 |
|      25 | 0x04C9      |        1225 |
|      26 | 0x09F1      |        2545 |
|      27 | 0x6A53      |       27219 |
|      28 | 0x1A97      |        6807 |
|      29 | 0xFFFFF830  |  4294965296 |
|      30 | 0x5E72      |       24178 |
|      31 | 0x2650      |        9808 |
|      32 | 0x0000      |           0 |
|      33 | 0x8911      |       35089 |
|      34 | 0x001B      |          27 |

## String References

- **11412**: Really? You don't say... Thank you.
- **11413**: You've come all the way from Bastok, have you? I'm Lion, a traveling adventurer, you might say.
- **11415**: Have you heard? The Orcs have a new forward base in Ghelsba, to the northwest. Now their greedy eyes are turned towards this land!
- **11416**: Orcs are cruel and violent. They attack wayfarers on the road, and steal children, all to inspire terror in the San d'Orian people.
- **11417**: But, there's one thing that just doesn't make sense.
- **11418**: Orcs never were known for their craft, but they carry even better armor and weapons lately.
- **11419**: I suspect there's someone behind the Orcs, pulling the strings, if you get me.
- **11420**: Someone has to figure out their plans and take action, before this country falls to an Orcish invasion!
- **11421**: People whisper in the streets of trouble in the royal house. They should focus on what's outside their walls first, if you ask me.
- **11422**: Well, I don't expect things will be getting any easier around here for a while yet, but you take care, all the same.

## Events

### Event 65535

#### Metadata

| Field        | Value   |
|--------------|---------|
| Entrypoint   | 0x0000  |
| Data Size    | 1 bytes |
| Instructions | 1       |

```
      00 01 02 03 04 05 06 07  08 09 0A 0B 0C 0D 0E 0F
      -- -- -- -- -- -- -- --  -- -- -- -- -- -- -- --
0000: 00                                                .               
```

#### Opcodes

```
  0: 0x0000 [0x00] END_REQSTACK()
```

### Event 581

#### Metadata

| Field        | Value   |
|--------------|---------|
| Entrypoint   | 0x0001  |
| Data Size    | 1 bytes |
| Instructions | 1       |

```
      00 01 02 03 04 05 06 07  08 09 0A 0B 0C 0D 0E 0F
      -- -- -- -- -- -- -- --  -- -- -- -- -- -- -- --
0000:    00                                              .              
```

#### Opcodes

```
  0: 0x0001 [0x00] END_REQSTACK()
```

### Event 65535.1

#### Metadata

| Field        | Value   |
|--------------|---------|
| Entrypoint   | 0x0002  |
| Data Size    | 9 bytes |
| Instructions | 3       |

```
      00 01 02 03 04 05 06 07  08 09 0A 0B 0C 0D 0E 0F
      -- -- -- -- -- -- -- --  -- -- -- -- -- -- -- --
0000:       2F 00 40 70 0E 01  22 00 00                   /.@p.."..     
```

#### Opcodes

```
  0: 0x0002 [0x2F] Lion (ID: 17723456/0x010E7040)->Render.Flags0 &= ~0x80000 // Bit 19
  1: 0x0008 [0x22] ENTITY_HIDE_FLAG(enabled=0x00)
  2: 0x000A [0x00] END_REQSTACK()
```

### Event 65535.2

#### Metadata

| Field        | Value   |
|--------------|---------|
| Entrypoint   | 0x000B  |
| Data Size    | 5 bytes |
| Instructions | 3       |

```
      00 01 02 03 04 05 06 07  08 09 0A 0B 0C 0D 0E 0F
      -- -- -- -- -- -- -- --  -- -- -- -- -- -- -- --
0000:                                   1D 00 80 23 00             ...#.
```

#### Opcodes

```
  0: 0x000B [0x1D] PRINT_EVENT_MESSAGE(message_id=11412*)
    → "Really? You don't say... Thank you."
  1: 0x000E [0x23] WAIT_FOR_DIALOG_INTERACTION
  2: 0x000F [0x00] END_REQSTACK()
```

### Event 65535.3

#### Metadata

| Field        | Value    |
|--------------|----------|
| Entrypoint   | 0x0010   |
| Data Size    | 30 bytes |
| Instructions | 8        |

```
      00 01 02 03 04 05 06 07  08 09 0A 0B 0C 0D 0E 0F
      -- -- -- -- -- -- -- --  -- -- -- -- -- -- -- --
0010: 32 01 80 1F 00 02 80 03  80 04 80 1F 01 1F 00 05  2...............
0020: 80 06 80 04 80 1F 01 1C  07 80 39 08 80 00        ..........9...  
```

#### Opcodes

```
  0: 0x0010 [0x32] ExtData[1]->MainSpeed = 13* * 0.1
  1: 0x0013 [0x1F] MOVE_ENTITY: EventEntity moves to X=47.223*, Z=-4.969*, Y=-1.999*
  2: 0x001B [0x1F] MOVE_ENTITY: Update entity position (mode=1)
  3: 0x001D [0x1F] MOVE_ENTITY: EventEntity moves to X=40.436*, Z=-2.975*, Y=-1.999*
  4: 0x0025 [0x1F] MOVE_ENTITY: Update entity position (mode=1)
  5: 0x0027 [0x1C] WAIT(30* ticks)
  6: 0x002A [0x39] SET_ENTITY_DIRECTION(direction=9.9°*)
  7: 0x002D [0x00] END_REQSTACK()
```

### Event 65535.4

#### Metadata

| Field        | Value    |
|--------------|----------|
| Entrypoint   | 0x002E   |
| Data Size    | 33 bytes |
| Instructions | 5        |

```
      00 01 02 03 04 05 06 07  08 09 0A 0B 0C 0D 0E 0F
      -- -- -- -- -- -- -- --  -- -- -- -- -- -- -- --
0020:                                            5B 09                [.
0030: 80 F8 FF FF 7F F8 FF FF  7F 69 61 6D 30 1D 0A 80  .........iam0...
0040: 23 53 F8 FF FF 7F F8 FF  FF 7F 69 61 6D 30 00     #S........iam0. 
```

#### Opcodes

```
  0: 0x002E [0x5B] LOAD_EXT_SCHEDULER: Load scheduler "iam0" with entities [EventEntity, EventEntity], work=95*
  1: 0x003D [0x1D] PRINT_EVENT_MESSAGE(message_id=11413*)
    → "You've come all the way from Bastok, have you? I'm Lion, a traveling adventurer, you might say."
  2: 0x0040 [0x23] WAIT_FOR_DIALOG_INTERACTION
  3: 0x0041 [0x53] WAIT_SCHEDULER_TASK: Wait for scheduler "iam0" with entities [EventEntity, EventEntity]
  4: 0x004E [0x00] END_REQSTACK()
```

### Event 65535.5

#### Metadata

| Field        | Value    |
|--------------|----------|
| Entrypoint   | 0x004F   |
| Data Size    | 20 bytes |
| Instructions | 4        |

```
      00 01 02 03 04 05 06 07  08 09 0A 0B 0C 0D 0E 0F
      -- -- -- -- -- -- -- --  -- -- -- -- -- -- -- --
0040:                                               5B                 [
0050: 0B 80 F8 FF FF 7F F8 FF  FF 7F 74 6C 62 30 1D 0C  ..........tlb0..
0060: 80 23 00                                          .#.             
```

#### Opcodes

```
  0: 0x004F [0x5B] LOAD_EXT_SCHEDULER: Load scheduler "tlb0" with entities [EventEntity, EventEntity], work=96*
  1: 0x005E [0x1D] PRINT_EVENT_MESSAGE(message_id=11415*)
    → "Have you heard? The Orcs have a new forward base in Ghelsba, to the northwest. Now their greedy eyes are turned towards this land!"
  2: 0x0061 [0x23] WAIT_FOR_DIALOG_INTERACTION
  3: 0x0062 [0x00] END_REQSTACK()
```

### Event 65535.6

#### Metadata

| Field        | Value    |
|--------------|----------|
| Entrypoint   | 0x0063   |
| Data Size    | 33 bytes |
| Instructions | 5        |

```
      00 01 02 03 04 05 06 07  08 09 0A 0B 0C 0D 0E 0F
      -- -- -- -- -- -- -- --  -- -- -- -- -- -- -- --
0060:          1D 0D 80 23 5B  0B 80 F8 FF FF 7F F8 FF     ...#[........
0070: FF 7F 74 6C 62 31 53 F8  FF FF 7F F8 FF FF 7F 74  ..tlb1S........t
0080: 6C 62 31 00                                       lb1.            
```

#### Opcodes

```
  0: 0x0063 [0x1D] PRINT_EVENT_MESSAGE(message_id=11416*)
    → "Orcs are cruel and violent. They attack wayfarers on the road, and steal children, all to inspire terror in the San d'Orian people."
  1: 0x0066 [0x23] WAIT_FOR_DIALOG_INTERACTION
  2: 0x0067 [0x5B] LOAD_EXT_SCHEDULER: Load scheduler "tlb1" with entities [EventEntity, EventEntity], work=96*
  3: 0x0076 [0x53] WAIT_SCHEDULER_TASK: Wait for scheduler "tlb1" with entities [EventEntity, EventEntity]
  4: 0x0083 [0x00] END_REQSTACK()
```

### Event 65535.7

#### Metadata

| Field        | Value   |
|--------------|---------|
| Entrypoint   | 0x0084  |
| Data Size    | 5 bytes |
| Instructions | 3       |

```
      00 01 02 03 04 05 06 07  08 09 0A 0B 0C 0D 0E 0F
      -- -- -- -- -- -- -- --  -- -- -- -- -- -- -- --
0080:             1D 0E 80 23  00                           ...#.       
```

#### Opcodes

```
  0: 0x0084 [0x1D] PRINT_EVENT_MESSAGE(message_id=11417*)
    → "But, there's one thing that just doesn't make sense."
  1: 0x0087 [0x23] WAIT_FOR_DIALOG_INTERACTION
  2: 0x0088 [0x00] END_REQSTACK()
```

### Event 65535.8

#### Metadata

| Field        | Value    |
|--------------|----------|
| Entrypoint   | 0x0089   |
| Data Size    | 20 bytes |
| Instructions | 4        |

```
      00 01 02 03 04 05 06 07  08 09 0A 0B 0C 0D 0E 0F
      -- -- -- -- -- -- -- --  -- -- -- -- -- -- -- --
0080:                             5B 0B 80 F8 FF FF 7F           [......
0090: F8 FF FF 7F 74 6C 61 32  1D 0F 80 23 00           ....tla2...#.   
```

#### Opcodes

```
  0: 0x0089 [0x5B] LOAD_EXT_SCHEDULER: Load scheduler "tla2" with entities [EventEntity, EventEntity], work=96*
  1: 0x0098 [0x1D] PRINT_EVENT_MESSAGE(message_id=11418*)
    → "Orcs never were known for their craft, but they carry even better armor and weapons lately."
  2: 0x009B [0x23] WAIT_FOR_DIALOG_INTERACTION
  3: 0x009C [0x00] END_REQSTACK()
```

### Event 65535.9

#### Metadata

| Field        | Value    |
|--------------|----------|
| Entrypoint   | 0x009D   |
| Data Size    | 18 bytes |
| Instructions | 4        |

```
      00 01 02 03 04 05 06 07  08 09 0A 0B 0C 0D 0E 0F
      -- -- -- -- -- -- -- --  -- -- -- -- -- -- -- --
0090:                                         1D 10 80               ...
00A0: 23 53 F8 FF FF 7F F8 FF  FF 7F 74 6C 61 32 00     #S........tla2. 
```

#### Opcodes

```
  0: 0x009D [0x1D] PRINT_EVENT_MESSAGE(message_id=11419*)
    → "I suspect there's someone behind the Orcs, pulling the strings, if you get me."
  1: 0x00A0 [0x23] WAIT_FOR_DIALOG_INTERACTION
  2: 0x00A1 [0x53] WAIT_SCHEDULER_TASK: Wait for scheduler "tla2" with entities [EventEntity, EventEntity]
  3: 0x00AE [0x00] END_REQSTACK()
```

### Event 65535.10

#### Metadata

| Field        | Value    |
|--------------|----------|
| Entrypoint   | 0x00AF   |
| Data Size    | 20 bytes |
| Instructions | 4        |

```
      00 01 02 03 04 05 06 07  08 09 0A 0B 0C 0D 0E 0F
      -- -- -- -- -- -- -- --  -- -- -- -- -- -- -- --
00A0:                                               5B                 [
00B0: 0B 80 F8 FF FF 7F F8 FF  FF 7F 74 6C 62 30 1D 11  ..........tlb0..
00C0: 80 23 00                                          .#.             
```

#### Opcodes

```
  0: 0x00AF [0x5B] LOAD_EXT_SCHEDULER: Load scheduler "tlb0" with entities [EventEntity, EventEntity], work=96*
  1: 0x00BE [0x1D] PRINT_EVENT_MESSAGE(message_id=11420*)
    → "Someone has to figure out their plans and take action, before this country falls to an Orcish invasion!"
  2: 0x00C1 [0x23] WAIT_FOR_DIALOG_INTERACTION
  3: 0x00C2 [0x00] END_REQSTACK()
```

### Event 65535.11

#### Metadata

| Field        | Value    |
|--------------|----------|
| Entrypoint   | 0x00C3   |
| Data Size    | 33 bytes |
| Instructions | 5        |

```
      00 01 02 03 04 05 06 07  08 09 0A 0B 0C 0D 0E 0F
      -- -- -- -- -- -- -- --  -- -- -- -- -- -- -- --
00C0:          1D 12 80 23 5B  0B 80 F8 FF FF 7F F8 FF     ...#[........
00D0: FF 7F 74 6C 62 31 53 F8  FF FF 7F F8 FF FF 7F 74  ..tlb1S........t
00E0: 6C 62 31 00                                       lb1.            
```

#### Opcodes

```
  0: 0x00C3 [0x1D] PRINT_EVENT_MESSAGE(message_id=11421*)
    → "People whisper in the streets of trouble in the royal house. They should focus on what's outside their walls first, if you ask me."
  1: 0x00C6 [0x23] WAIT_FOR_DIALOG_INTERACTION
  2: 0x00C7 [0x5B] LOAD_EXT_SCHEDULER: Load scheduler "tlb1" with entities [EventEntity, EventEntity], work=96*
  3: 0x00D6 [0x53] WAIT_SCHEDULER_TASK: Wait for scheduler "tlb1" with entities [EventEntity, EventEntity]
  4: 0x00E3 [0x00] END_REQSTACK()
```

### Event 65535.12

#### Metadata

| Field        | Value    |
|--------------|----------|
| Entrypoint   | 0x00E4   |
| Data Size    | 14 bytes |
| Instructions | 4        |

```
      00 01 02 03 04 05 06 07  08 09 0A 0B 0C 0D 0E 0F
      -- -- -- -- -- -- -- --  -- -- -- -- -- -- -- --
00E0:             1F 00 13 80  14 80 04 80 1F 01 39 15      ..........9.
00F0: 80 00                                             ..              
```

#### Opcodes

```
  0: 0x00E4 [0x1F] MOVE_ENTITY: EventEntity moves to X=36.819*, Z=-0.136*, Y=-1.999*
  1: 0x00EC [0x1F] MOVE_ENTITY: Update entity position (mode=1)
  2: 0x00EE [0x39] SET_ENTITY_DIRECTION(direction=4.7°*)
  3: 0x00F1 [0x00] END_REQSTACK()
```

### Event 65535.13

#### Metadata

| Field        | Value    |
|--------------|----------|
| Entrypoint   | 0x00F2   |
| Data Size    | 51 bytes |
| Instructions | 7        |

```
      00 01 02 03 04 05 06 07  08 09 0A 0B 0C 0D 0E 0F
      -- -- -- -- -- -- -- --  -- -- -- -- -- -- -- --
00F0:       5B 0B 80 F8 FF FF  7F F8 FF FF 7F 74 6C 62    [..........tlb
0100: 30 1D 16 80 23 5B 0B 80  F8 FF FF 7F F8 FF FF 7F  0...#[..........
0110: 74 6C 62 31 53 F8 FF FF  7F F8 FF FF 7F 74 6C 62  tlb1S........tlb
0120: 31 1C 17 80 00                                    1....           
```

#### Opcodes

```
  0: 0x00F2 [0x5B] LOAD_EXT_SCHEDULER: Load scheduler "tlb0" with entities [EventEntity, EventEntity], work=96*
  1: 0x0101 [0x1D] PRINT_EVENT_MESSAGE(message_id=11422*)
    → "Well, I don't expect things will be getting any easier around here for a while yet, but you take care, all the same."
  2: 0x0104 [0x23] WAIT_FOR_DIALOG_INTERACTION
  3: 0x0105 [0x5B] LOAD_EXT_SCHEDULER: Load scheduler "tlb1" with entities [EventEntity, EventEntity], work=96*
  4: 0x0114 [0x53] WAIT_SCHEDULER_TASK: Wait for scheduler "tlb1" with entities [EventEntity, EventEntity]
  5: 0x0121 [0x1C] WAIT(60* ticks)
  6: 0x0124 [0x00] END_REQSTACK()
```

### Event 65535.14

#### Metadata

| Field        | Value    |
|--------------|----------|
| Entrypoint   | 0x0125   |
| Data Size    | 15 bytes |
| Instructions | 5        |

```
      00 01 02 03 04 05 06 07  08 09 0A 0B 0C 0D 0E 0F
      -- -- -- -- -- -- -- --  -- -- -- -- -- -- -- --
0120:                1F 00 18  80 19 80 04 80 1F 01 6F       ..........o
0130: 39 1A 80 00                                       9...            
```

#### Opcodes

```
  0: 0x0125 [0x1F] MOVE_ENTITY: EventEntity moves to X=32.788*, Z=1.225*, Y=-1.999*
  1: 0x012D [0x1F] MOVE_ENTITY: Update entity position (mode=1)
  2: 0x012F [0x6F] WAIT_FRAME_DELAY: Yield until WaitTime reaches zero
  3: 0x0130 [0x39] SET_ENTITY_DIRECTION(direction=14.0°*)
  4: 0x0133 [0x00] END_REQSTACK()
```

### Event 65535.15

#### Metadata

| Field        | Value    |
|--------------|----------|
| Entrypoint   | 0x0134   |
| Data Size    | 21 bytes |
| Instructions | 5        |

```
      00 01 02 03 04 05 06 07  08 09 0A 0B 0C 0D 0E 0F
      -- -- -- -- -- -- -- --  -- -- -- -- -- -- -- --
0130:             5A 00 1B 80  1C 80 1D 80 5A 01 5A 00      Z.......Z.Z.
0140: 1E 80 1F 80 20 80 5A 01  00                       .... .Z..       
```

#### Opcodes

```
  0: 0x0134 [0x5A] UPDATE_EVENT_POSITION: Set EventEntity MovePosition to X=27.219*, Z=6.807*, Y=-2.000*
  1: 0x013C [0x5A] UPDATE_EVENT_POSITION: Move EventEntity incrementally towards MovePosition
  2: 0x013E [0x5A] UPDATE_EVENT_POSITION: Set EventEntity MovePosition to X=24.178*, Z=9.808*, Y=0.000*
  3: 0x0146 [0x5A] UPDATE_EVENT_POSITION: Move EventEntity incrementally towards MovePosition
  4: 0x0148 [0x00] END_REQSTACK()
```

### Event 65535.16

#### Metadata

| Field        | Value    |
|--------------|----------|
| Entrypoint   | 0x0149   |
| Data Size    | 14 bytes |
| Instructions | 4        |

```
      00 01 02 03 04 05 06 07  08 09 0A 0B 0C 0D 0E 0F
      -- -- -- -- -- -- -- --  -- -- -- -- -- -- -- --
0140:                             1F 00 21 80 22 80 1D           ..!."..
0150: 80 1F 01 1C 07 80 00                              .......         
```

#### Opcodes

```
  0: 0x0149 [0x1F] MOVE_ENTITY: EventEntity moves to X=35.089*, Z=0.027*, Y=-2.000*
  1: 0x0151 [0x1F] MOVE_ENTITY: Update entity position (mode=1)
  2: 0x0153 [0x1C] WAIT(30* ticks)
  3: 0x0156 [0x00] END_REQSTACK()
```
