# 17723466 - Montaube

## Common Data

| Field            | Value                         |
|------------------|-------------------------------|
| Zone             | Northern San d'Oria (ID: 231) |
| Block Size       | 380 bytes                     |
| Total Events     | 12                            |
| References Count | 24                            |

## List of Events

| Event ID                 | Entrypoint   |   Size |   Instructions |
|--------------------------|--------------|--------|----------------|
| [65535](#event-65535)    | 0x0000       |      1 |              1 |
| [524](#event-524)        | 0x0001       |      3 |              2 |
| [525](#event-525)        | 0x0004       |      1 |              1 |
| [65535.1](#event-655351) | 0x0005       |     13 |              5 |
| [65535.2](#event-655352) | 0x0012       |     22 |              6 |
| [65535.3](#event-655353) | 0x0028       |     30 |              6 |
| [65535.4](#event-655354) | 0x0046       |     69 |             15 |
| [65535.5](#event-655355) | 0x008B       |      6 |              2 |
| [65535.6](#event-655356) | 0x0091       |     14 |              4 |
| [65535.7](#event-655357) | 0x009F       |      4 |              2 |
| [16](#event-16)          | 0x00A3       |     28 |              5 |
| [0](#event-0)            | 0x00BF       |     28 |              5 |

## DAT References (imed_data)

|   Index | Hex Value   |   Dec Value |
|---------|-------------|-------------|
|       0 | 0x2BD8      |       11224 |
|       1 | 0x000D      |          13 |
|       2 | 0xFFFDD7F9  |  4294825977 |
|       3 | 0xE573      |       58739 |
|       4 | 0xFFFFF76A  |  4294965098 |
|       5 | 0x001E      |          30 |
|       6 | 0x0014      |          20 |
|       7 | 0x110F      |        4367 |
|       8 | 0x2BDA      |       11226 |
|       9 | 0x2BE1      |       11233 |
|      10 | 0x003C      |          60 |
|      11 | 0x2BE2      |       11234 |
|      12 | 0xFFFDC650  |  4294821456 |
|      13 | 0xDEB7      |       57015 |
|      14 | 0xFFFFFF3A  |  4294967098 |
|      15 | 0x06E0      |        1760 |
|      16 | 0x1607E     |       90238 |
|      17 | 0x12D0B     |       77067 |
|      18 | 0x06D5      |        1749 |
|      19 | 0x0E36      |        3638 |
|      20 | 0xFFFFDA02  |  4294957570 |
|      21 | 0x1750F     |       95503 |
|      22 | 0xFFFFFF39  |  4294967097 |
|      23 | 0x0FE9      |        4073 |

## String References

- **11224**: Confound it! What am I to do?
- **11226**: That's just the problem! I started the soup, see, and then I realized I've no batagreens! The broth is but water without it!
- **11233**: Well, how can I make my sheep-head stew without batagreens?
- **11234**: Bon-bon, go track down this herb-man yourself!

## Events

### Event 65535

#### Metadata

| Field        | Value   |
|--------------|---------|
| Entrypoint   | 0x0000  |
| Data Size    | 1 bytes |
| Instructions | 1       |

```
      00 01 02 03 04 05 06 07  08 09 0A 0B 0C 0D 0E 0F
      -- -- -- -- -- -- -- --  -- -- -- -- -- -- -- --
0000: 00                                                .               
```

#### Opcodes

```
  0: 0x0000 [0x00] END_REQSTACK()
```

### Event 524

#### Metadata

| Field        | Value   |
|--------------|---------|
| Entrypoint   | 0x0001  |
| Data Size    | 3 bytes |
| Instructions | 2       |

```
      00 01 02 03 04 05 06 07  08 09 0A 0B 0C 0D 0E 0F
      -- -- -- -- -- -- -- --  -- -- -- -- -- -- -- --
0000:    22 01 00                                        "..            
```

#### Opcodes

```
  0: 0x0001 [0x22] ENTITY_HIDE_FLAG(enabled=0x01)
  1: 0x0003 [0x00] END_REQSTACK()
```

### Event 525

#### Metadata

| Field        | Value   |
|--------------|---------|
| Entrypoint   | 0x0004  |
| Data Size    | 1 bytes |
| Instructions | 1       |

```
      00 01 02 03 04 05 06 07  08 09 0A 0B 0C 0D 0E 0F
      -- -- -- -- -- -- -- --  -- -- -- -- -- -- -- --
0000:             00                                        .           
```

#### Opcodes

```
  0: 0x0004 [0x00] END_REQSTACK()
```

### Event 65535.1

#### Metadata

| Field        | Value    |
|--------------|----------|
| Entrypoint   | 0x0005   |
| Data Size    | 13 bytes |
| Instructions | 5        |

```
      00 01 02 03 04 05 06 07  08 09 0A 0B 0C 0D 0E 0F
      -- -- -- -- -- -- -- --  -- -- -- -- -- -- -- --
0000:                2F 00 4A  70 0E 01 22 00 1D 00 80       /.Jp.."....
0010: 23 00                                             #.              
```

#### Opcodes

```
  0: 0x0005 [0x2F] Montaube (ID: 17723466/0x010E704A)->Render.Flags0 &= ~0x80000 // Bit 19
  1: 0x000B [0x22] ENTITY_HIDE_FLAG(enabled=0x00)
  2: 0x000D [0x1D] PRINT_EVENT_MESSAGE(message_id=11224*)
    → "Confound it! What am I to do?"
  3: 0x0010 [0x23] WAIT_FOR_DIALOG_INTERACTION
  4: 0x0011 [0x00] END_REQSTACK()
```

### Event 65535.2

#### Metadata

| Field        | Value    |
|--------------|----------|
| Entrypoint   | 0x0012   |
| Data Size    | 22 bytes |
| Instructions | 6        |

```
      00 01 02 03 04 05 06 07  08 09 0A 0B 0C 0D 0E 0F
      -- -- -- -- -- -- -- --  -- -- -- -- -- -- -- --
0010:       32 01 80 1F 00 02  80 03 80 04 80 1F 01 1C    2.............
0020: 05 80 1E 48 70 0E 01 00                           ...Hp...        
```

#### Opcodes

```
  0: 0x0012 [0x32] ExtData[1]->MainSpeed = 13* * 0.1
  1: 0x0015 [0x1F] MOVE_ENTITY: EventEntity moves to X=-141.319*, Z=58.739*, Y=-2.198*
  2: 0x001D [0x1F] MOVE_ENTITY: Update entity position (mode=1)
  3: 0x001F [0x1C] WAIT(30* ticks)
  4: 0x0022 [0x1E] EventEntity looks at Abeaule (ID: 17723464/0x010E7048) and starts talking
  5: 0x0027 [0x00] END_REQSTACK()
```

### Event 65535.3

#### Metadata

| Field        | Value    |
|--------------|----------|
| Entrypoint   | 0x0028   |
| Data Size    | 30 bytes |
| Instructions | 6        |

```
      00 01 02 03 04 05 06 07  08 09 0A 0B 0C 0D 0E 0F
      -- -- -- -- -- -- -- --  -- -- -- -- -- -- -- --
0020:                          66 06 80 F8 FF FF 7F F8          f.......
0030: FF FF 7F 74 6C 6B 30 03  02 10 07 80 1D 08 80 23  ...tlk0........#
0040: 5E 69 64 6C 30 00                                 ^idl0.          
```

#### Opcodes

```
  0: 0x0028 [0x66] LOAD_EXT_SCHEDULER_MAIN: Load scheduler "tlk0" with entities [EventEntity, EventEntity], work=20*
  1: 0x0037 [0x03] Work_Zone[2] = 4367*
  2: 0x003C [0x1D] PRINT_EVENT_MESSAGE(message_id=11226*)
    → "That's just the problem! I started the soup, see, and then I realized I've no batagreens! The broth is but water without it!"
  3: 0x003F [0x23] WAIT_FOR_DIALOG_INTERACTION
  4: 0x0040 [0x5E] EventEntity goes idle (kills current action) (animation: "idl0")
  5: 0x0045 [0x00] END_REQSTACK()
```

### Event 65535.4

#### Metadata

| Field        | Value    |
|--------------|----------|
| Entrypoint   | 0x0046   |
| Data Size    | 69 bytes |
| Instructions | 15       |

```
      00 01 02 03 04 05 06 07  08 09 0A 0B 0C 0D 0E 0F
      -- -- -- -- -- -- -- --  -- -- -- -- -- -- -- --
0040:                   66 06  80 F8 FF FF 7F F8 FF FF        f.........
0050: 7F 74 6C 6B 30 03 02 10  07 80 1D 09 80 23 5E 69  .tlk0........#^i
0060: 64 6C 30 1C 0A 80 1E 49  70 0E 01 6F 70 66 06 80  dl0....Ip..opf..
0070: F8 FF FF 7F F8 FF FF 7F  74 6C 6B 30 03 02 10 07  ........tlk0....
0080: 80 1D 0B 80 23 5E 69 64  6C 30 00                 ....#^idl0.     
```

#### Opcodes

```
  0: 0x0046 [0x66] LOAD_EXT_SCHEDULER_MAIN: Load scheduler "tlk0" with entities [EventEntity, EventEntity], work=20*
  1: 0x0055 [0x03] Work_Zone[2] = 4367*
  2: 0x005A [0x1D] PRINT_EVENT_MESSAGE(message_id=11233*)
    → "Well, how can I make my sheep-head stew without batagreens?"
  3: 0x005D [0x23] WAIT_FOR_DIALOG_INTERACTION
  4: 0x005E [0x5E] EventEntity goes idle (kills current action) (animation: "idl0")
  5: 0x0063 [0x1C] WAIT(60* ticks)
  6: 0x0066 [0x1E] EventEntity looks at Boncort (ID: 17723465/0x010E7049) and starts talking
  7: 0x006B [0x6F] WAIT_FRAME_DELAY: Yield until WaitTime reaches zero
  8: 0x006C [0x70] WAIT_ENTITY_RENDER_FLAG: Wait while EventEntity->Render.Flags3 bit 2 is set (cancel turn if not)
  9: 0x006D [0x66] LOAD_EXT_SCHEDULER_MAIN: Load scheduler "tlk0" with entities [EventEntity, EventEntity], work=20*
 10: 0x007C [0x03] Work_Zone[2] = 4367*
 11: 0x0081 [0x1D] PRINT_EVENT_MESSAGE(message_id=11234*)
    → "Bon-bon, go track down this herb-man yourself!"
 12: 0x0084 [0x23] WAIT_FOR_DIALOG_INTERACTION
 13: 0x0085 [0x5E] EventEntity goes idle (kills current action) (animation: "idl0")
 14: 0x008A [0x00] END_REQSTACK()
```

### Event 65535.5

#### Metadata

| Field        | Value   |
|--------------|---------|
| Entrypoint   | 0x008B  |
| Data Size    | 6 bytes |
| Instructions | 2       |

```
      00 01 02 03 04 05 06 07  08 09 0A 0B 0C 0D 0E 0F
      -- -- -- -- -- -- -- --  -- -- -- -- -- -- -- --
0080:                                   1E 49 70 0E 01             .Ip..
0090: 00                                                .               
```

#### Opcodes

```
  0: 0x008B [0x1E] EventEntity looks at Boncort (ID: 17723465/0x010E7049) and starts talking
  1: 0x0090 [0x00] END_REQSTACK()
```

### Event 65535.6

#### Metadata

| Field        | Value    |
|--------------|----------|
| Entrypoint   | 0x0091   |
| Data Size    | 14 bytes |
| Instructions | 4        |

```
      00 01 02 03 04 05 06 07  08 09 0A 0B 0C 0D 0E 0F
      -- -- -- -- -- -- -- --  -- -- -- -- -- -- -- --
0090:    32 01 80 1F 00 0C 80  0D 80 0E 80 1F 01 00      2............. 
```

#### Opcodes

```
  0: 0x0091 [0x32] ExtData[1]->MainSpeed = 13* * 0.1
  1: 0x0094 [0x1F] MOVE_ENTITY: EventEntity moves to X=-145.840*, Z=57.015*, Y=-0.198*
  2: 0x009C [0x1F] MOVE_ENTITY: Update entity position (mode=1)
  3: 0x009E [0x00] END_REQSTACK()
```

### Event 65535.7

#### Metadata

| Field        | Value   |
|--------------|---------|
| Entrypoint   | 0x009F  |
| Data Size    | 4 bytes |
| Instructions | 2       |

```
      00 01 02 03 04 05 06 07  08 09 0A 0B 0C 0D 0E 0F
      -- -- -- -- -- -- -- --  -- -- -- -- -- -- -- --
0090:                                               39                 9
00A0: 0F 80 00                                          ...             
```

#### Opcodes

```
  0: 0x009F [0x39] SET_ENTITY_DIRECTION(direction=9.7°*)
  1: 0x00A2 [0x00] END_REQSTACK()
```

### Event 16

#### Metadata

| Field        | Value    |
|--------------|----------|
| Entrypoint   | 0x00A3   |
| Data Size    | 28 bytes |
| Instructions | 5        |

```
      00 01 02 03 04 05 06 07  08 09 0A 0B 0C 0D 0E 0F
      -- -- -- -- -- -- -- --  -- -- -- -- -- -- -- --
00A0:          22 00 92 01 F8  FF FF 7F 37 10 80 11 80     ".......7....
00B0: 12 80 13 80 79 00 F8 FF  FF 7F 04 70 0E 01 00     ....y......p... 
```

#### Opcodes

```
  0: 0x00A3 [0x22] ENTITY_HIDE_FLAG(enabled=0x00)
  1: 0x00A5 [0x92] EventEntity->Render.Flags3 ^= 0x01
  2: 0x00AB [0x37] UPDATE_EVENT_POSITION_AND_DIR: x=90.238*, z=77.067*, y=1.749*, direction=319.7°*
  3: 0x00B4 [0x79] EventEntity looks at Claidie (ID: 17723396/0x010E7004) (Basic look)
  4: 0x00BE [0x00] END_REQSTACK()
```

### Event 0

#### Metadata

| Field        | Value    |
|--------------|----------|
| Entrypoint   | 0x00BF   |
| Data Size    | 28 bytes |
| Instructions | 5        |

```
      00 01 02 03 04 05 06 07  08 09 0A 0B 0C 0D 0E 0F
      -- -- -- -- -- -- -- --  -- -- -- -- -- -- -- --
00B0:                                               22                 "
00C0: 00 92 01 F8 FF FF 7F 37  14 80 15 80 16 80 17 80  .......7........
00D0: 79 00 F8 FF FF 7F 02 70  0E 01 00                 y......p...     
```

#### Opcodes

```
  0: 0x00BF [0x22] ENTITY_HIDE_FLAG(enabled=0x00)
  1: 0x00C1 [0x92] EventEntity->Render.Flags3 ^= 0x01
  2: 0x00C7 [0x37] UPDATE_EVENT_POSITION_AND_DIR: x=-9.726*, z=95.503*, y=-0.199*, direction=358.0°*
  3: 0x00D0 [0x79] EventEntity looks at Trion (ID: 17723394/0x010E7002) (Basic look)
  4: 0x00DA [0x00] END_REQSTACK()
```
