# 17723583 - Vilbert

## Common Data

| Field            | Value                         |
|------------------|-------------------------------|
| Zone             | Northern San d'Oria (ID: 231) |
| Block Size       | 328 bytes                     |
| Total Events     | 11                            |
| References Count | 18                            |

## List of Events

| Event ID                 | Entrypoint   |   Size |   Instructions |
|--------------------------|--------------|--------|----------------|
| [65535](#event-65535)    | 0x0000       |      1 |              1 |
| [41](#event-41)          | 0x0001       |     13 |              3 |
| [65535.1](#event-655351) | 0x000E       |     35 |              9 |
| [65535.2](#event-655352) | 0x0031       |     17 |              4 |
| [65535.3](#event-655353) | 0x0042       |     13 |              4 |
| [65535.4](#event-655354) | 0x004F       |     19 |              3 |
| [65535.5](#event-655355) | 0x0062       |     19 |              3 |
| [65535.6](#event-655356) | 0x0075       |     19 |              3 |
| [65535.7](#event-655357) | 0x0088       |     19 |              3 |
| [65535.8](#event-655358) | 0x009B       |     19 |              3 |
| [65535.9](#event-655359) | 0x00AE       |     19 |              3 |

## DAT References (imed_data)

|   Index | Hex Value   |   Dec Value |
|---------|-------------|-------------|
|       0 | 0x0B88      |        2952 |
|       1 | 0x2CA1      |       11425 |
|       2 | 0x0000      |           0 |
|       3 | 0x0C2F      |        3119 |
|       4 | 0x000D      |          13 |
|       5 | 0x0BEF      |        3055 |
|       6 | 0x56C6      |       22214 |
|       7 | 0x0BF8      |        3064 |
|       8 | 0x0BB7      |        2999 |
|       9 | 0x5E88      |       24200 |
|      10 | 0x0BB1      |        2993 |
|      11 | 0x606C      |       24684 |
|      12 | 0x01F3      |         499 |
|      13 | 0x003C      |          60 |
|      14 | 0x0D7A      |        3450 |
|      15 | 0xFFFFED8C  |  4294962572 |
|      16 | 0x690B      |       26891 |
|      17 | 0x001E      |          30 |

## Events

### Event 65535

#### Metadata

| Field        | Value   |
|--------------|---------|
| Entrypoint   | 0x0000  |
| Data Size    | 1 bytes |
| Instructions | 1       |

```
      00 01 02 03 04 05 06 07  08 09 0A 0B 0C 0D 0E 0F
      -- -- -- -- -- -- -- --  -- -- -- -- -- -- -- --
0000: 00                                                .               
```

#### Opcodes

```
  0: 0x0000 [0x00] END_REQSTACK()
```

### Event 41

#### Metadata

| Field        | Value    |
|--------------|----------|
| Entrypoint   | 0x0001   |
| Data Size    | 13 bytes |
| Instructions | 3        |

```
      00 01 02 03 04 05 06 07  08 09 0A 0B 0C 0D 0E 0F
      -- -- -- -- -- -- -- --  -- -- -- -- -- -- -- --
0000:    37 00 80 01 80 02 80  03 80 32 04 80 00         7........2...  
```

#### Opcodes

```
  0: 0x0001 [0x37] UPDATE_EVENT_POSITION_AND_DIR: x=2.952*, z=11.425*, y=0.000*, direction=274.1°*
  1: 0x000A [0x32] ExtData[1]->MainSpeed = 13* * 0.1
  2: 0x000D [0x00] END_REQSTACK()
```

### Event 65535.1

#### Metadata

| Field        | Value    |
|--------------|----------|
| Entrypoint   | 0x000E   |
| Data Size    | 35 bytes |
| Instructions | 9        |

```
      00 01 02 03 04 05 06 07  08 09 0A 0B 0C 0D 0E 0F
      -- -- -- -- -- -- -- --  -- -- -- -- -- -- -- --
0000:                                            37 05                7.
0010: 80 06 80 02 80 07 80 33  01 1F 00 08 80 09 80 02  .......3........
0020: 80 1F 01 33 00 1F 00 0A  80 0B 80 0C 80 1F 01 6F  ...3...........o
0030: 00                                                .               
```

#### Opcodes

```
  0: 0x000E [0x37] UPDATE_EVENT_POSITION_AND_DIR: x=3.055*, z=22.214*, y=0.000*, direction=269.3°*
  1: 0x0017 [0x33] EventEntity->Render.Flags0 |= 0x200000 // Bit 21 (flag=0x01)
  2: 0x0019 [0x1F] MOVE_ENTITY: EventEntity moves to X=2.999*, Z=24.200*, Y=0.000*
  3: 0x0021 [0x1F] MOVE_ENTITY: Update entity position (mode=1)
  4: 0x0023 [0x33] EventEntity->Render.Flags0 &= ~ 0x200000 // Bit 21 (flag=0x00)
  5: 0x0025 [0x1F] MOVE_ENTITY: EventEntity moves to X=2.993*, Z=24.684*, Y=0.499*
  6: 0x002D [0x1F] MOVE_ENTITY: Update entity position (mode=1)
  7: 0x002F [0x6F] WAIT_FRAME_DELAY: Yield until WaitTime reaches zero
  8: 0x0030 [0x00] END_REQSTACK()
```

### Event 65535.2

#### Metadata

| Field        | Value    |
|--------------|----------|
| Entrypoint   | 0x0031   |
| Data Size    | 17 bytes |
| Instructions | 4        |

```
      00 01 02 03 04 05 06 07  08 09 0A 0B 0C 0D 0E 0F
      -- -- -- -- -- -- -- --  -- -- -- -- -- -- -- --
0030:    1C 0D 80 39 0E 80 79  00 F8 FF FF 7F F0 FF FF   ...9..y........
0040: 7F 00                                             ..              
```

#### Opcodes

```
  0: 0x0031 [0x1C] WAIT(60* ticks)
  1: 0x0034 [0x39] SET_ENTITY_DIRECTION(direction=19.0°*)
  2: 0x0037 [0x79] EventEntity looks at LocalPlayer (Basic look)
  3: 0x0041 [0x00] END_REQSTACK()
```

### Event 65535.3

#### Metadata

| Field        | Value    |
|--------------|----------|
| Entrypoint   | 0x0042   |
| Data Size    | 13 bytes |
| Instructions | 4        |

```
      00 01 02 03 04 05 06 07  08 09 0A 0B 0C 0D 0E 0F
      -- -- -- -- -- -- -- --  -- -- -- -- -- -- -- --
0040:       1F 00 0F 80 10 80  0C 80 1F 01 22 01 00       ..........".. 
```

#### Opcodes

```
  0: 0x0042 [0x1F] MOVE_ENTITY: EventEntity moves to X=-4.724*, Z=26.891*, Y=0.499*
  1: 0x004A [0x1F] MOVE_ENTITY: Update entity position (mode=1)
  2: 0x004C [0x22] ENTITY_HIDE_FLAG(enabled=0x01)
  3: 0x004E [0x00] END_REQSTACK()
```

### Event 65535.4

#### Metadata

| Field        | Value    |
|--------------|----------|
| Entrypoint   | 0x004F   |
| Data Size    | 19 bytes |
| Instructions | 3        |

```
      00 01 02 03 04 05 06 07  08 09 0A 0B 0C 0D 0E 0F
      -- -- -- -- -- -- -- --  -- -- -- -- -- -- -- --
0040:                                               66                 f
0050: 02 80 F8 FF FF 7F F8 FF  FF 7F 74 6C 6B 30 1C 0D  ..........tlk0..
0060: 80 00                                             ..              
```

#### Opcodes

```
  0: 0x004F [0x66] LOAD_EXT_SCHEDULER_MAIN: Load scheduler "tlk0" with entities [EventEntity, EventEntity], work=0*
  1: 0x005E [0x1C] WAIT(60* ticks)
  2: 0x0061 [0x00] END_REQSTACK()
```

### Event 65535.5

#### Metadata

| Field        | Value    |
|--------------|----------|
| Entrypoint   | 0x0062   |
| Data Size    | 19 bytes |
| Instructions | 3        |

```
      00 01 02 03 04 05 06 07  08 09 0A 0B 0C 0D 0E 0F
      -- -- -- -- -- -- -- --  -- -- -- -- -- -- -- --
0060:       66 02 80 F8 FF FF  7F F8 FF FF 7F 74 65 6E    f..........ten
0070: 30 1C 0D 80 00                                    0....           
```

#### Opcodes

```
  0: 0x0062 [0x66] LOAD_EXT_SCHEDULER_MAIN: Load scheduler "ten0" with entities [EventEntity, EventEntity], work=0*
  1: 0x0071 [0x1C] WAIT(60* ticks)
  2: 0x0074 [0x00] END_REQSTACK()
```

### Event 65535.6

#### Metadata

| Field        | Value    |
|--------------|----------|
| Entrypoint   | 0x0075   |
| Data Size    | 19 bytes |
| Instructions | 3        |

```
      00 01 02 03 04 05 06 07  08 09 0A 0B 0C 0D 0E 0F
      -- -- -- -- -- -- -- --  -- -- -- -- -- -- -- --
0070:                66 02 80  F8 FF FF 7F F8 FF FF 7F       f..........
0080: 74 6C 6B 31 1C 0D 80 00                           tlk1....        
```

#### Opcodes

```
  0: 0x0075 [0x66] LOAD_EXT_SCHEDULER_MAIN: Load scheduler "tlk1" with entities [EventEntity, EventEntity], work=0*
  1: 0x0084 [0x1C] WAIT(60* ticks)
  2: 0x0087 [0x00] END_REQSTACK()
```

### Event 65535.7

#### Metadata

| Field        | Value    |
|--------------|----------|
| Entrypoint   | 0x0088   |
| Data Size    | 19 bytes |
| Instructions | 3        |

```
      00 01 02 03 04 05 06 07  08 09 0A 0B 0C 0D 0E 0F
      -- -- -- -- -- -- -- --  -- -- -- -- -- -- -- --
0080:                          66 02 80 F8 FF FF 7F F8          f.......
0090: FF FF 7F 74 65 6E 31 1C  0D 80 00                 ...ten1....     
```

#### Opcodes

```
  0: 0x0088 [0x66] LOAD_EXT_SCHEDULER_MAIN: Load scheduler "ten1" with entities [EventEntity, EventEntity], work=0*
  1: 0x0097 [0x1C] WAIT(60* ticks)
  2: 0x009A [0x00] END_REQSTACK()
```

### Event 65535.8

#### Metadata

| Field        | Value    |
|--------------|----------|
| Entrypoint   | 0x009B   |
| Data Size    | 19 bytes |
| Instructions | 3        |

```
      00 01 02 03 04 05 06 07  08 09 0A 0B 0C 0D 0E 0F
      -- -- -- -- -- -- -- --  -- -- -- -- -- -- -- --
0090:                                   66 02 80 F8 FF             f....
00A0: FF 7F F8 FF FF 7F 74 68  6B 31 1C 11 80 00        ......thk1....  
```

#### Opcodes

```
  0: 0x009B [0x66] LOAD_EXT_SCHEDULER_MAIN: Load scheduler "thk1" with entities [EventEntity, EventEntity], work=0*
  1: 0x00AA [0x1C] WAIT(30* ticks)
  2: 0x00AD [0x00] END_REQSTACK()
```

### Event 65535.9

#### Metadata

| Field        | Value    |
|--------------|----------|
| Entrypoint   | 0x00AE   |
| Data Size    | 19 bytes |
| Instructions | 3        |

```
      00 01 02 03 04 05 06 07  08 09 0A 0B 0C 0D 0E 0F
      -- -- -- -- -- -- -- --  -- -- -- -- -- -- -- --
00A0:                                            66 02                f.
00B0: 80 F8 FF FF 7F F8 FF FF  7F 74 68 6B 32 1C 11 80  .........thk2...
00C0: 00                                                .               
```

#### Opcodes

```
  0: 0x00AE [0x66] LOAD_EXT_SCHEDULER_MAIN: Load scheduler "thk2" with entities [EventEntity, EventEntity], work=0*
  1: 0x00BD [0x1C] WAIT(30* ticks)
  2: 0x00C0 [0x00] END_REQSTACK()
```
