# 17723525 - Dauperiat

## Common Data

| Field            | Value                         |
|------------------|-------------------------------|
| Zone             | Northern San d'Oria (ID: 231) |
| Block Size       | 1128 bytes                    |
| Total Events     | 39                            |
| References Count | 29                            |

## List of Events

| Event ID                   | Entrypoint   |   Size |   Instructions |
|----------------------------|--------------|--------|----------------|
| [65535](#event-65535)      | 0x0000       |      1 |              1 |
| [65535.1](#event-655351)   | 0x0001       |     16 |              2 |
| [65535.2](#event-655352)   | 0x0011       |     22 |              4 |
| [65535.3](#event-655353)   | 0x0027       |     16 |              2 |
| [65535.4](#event-655354)   | 0x0037       |     14 |              2 |
| [65535.5](#event-655355)   | 0x0045       |     16 |              2 |
| [65535.6](#event-655356)   | 0x0055       |     14 |              2 |
| [65535.7](#event-655357)   | 0x0063       |     16 |              2 |
| [65535.8](#event-655358)   | 0x0073       |     14 |              2 |
| [65535.9](#event-655359)   | 0x0081       |     16 |              2 |
| [65535.10](#event-6553510) | 0x0091       |     14 |              2 |
| [65535.11](#event-6553511) | 0x009F       |     16 |              2 |
| [65535.12](#event-6553512) | 0x00AF       |     14 |              2 |
| [65535.13](#event-6553513) | 0x00BD       |     16 |              2 |
| [65535.14](#event-6553514) | 0x00CD       |     14 |              2 |
| [65535.15](#event-6553515) | 0x00DB       |     16 |              2 |
| [65535.16](#event-6553516) | 0x00EB       |     14 |              2 |
| [65535.17](#event-6553517) | 0x00F9       |     16 |              2 |
| [65535.18](#event-6553518) | 0x0109       |     14 |              2 |
| [65535.19](#event-6553519) | 0x0117       |      9 |              3 |
| [641](#event-641)          | 0x0120       |     15 |              8 |
| [642](#event-642)          | 0x012F       |     15 |              8 |
| [643](#event-643)          | 0x013E       |     25 |              8 |
| [65535.20](#event-6553520) | 0x0157       |      5 |              3 |
| [65535.21](#event-6553521) | 0x015C       |     19 |              5 |
| [645](#event-645)          | 0x016F       |     15 |              8 |
| [646](#event-646)          | 0x017E       |     95 |             21 |
| [65535.22](#event-6553522) | 0x01DD       |      5 |              3 |
| [65535.23](#event-6553523) | 0x01E2       |      5 |              3 |
| [65535.24](#event-6553524) | 0x01E7       |     23 |              7 |
| [65535.25](#event-6553525) | 0x01FE       |     37 |              9 |
| [65535.26](#event-6553526) | 0x0223       |     37 |              9 |
| [647](#event-647)          | 0x0248       |     47 |             14 |
| [648](#event-648)          | 0x0277       |     38 |             10 |
| [65535.27](#event-6553527) | 0x029D       |     51 |             11 |
| [649](#event-649)          | 0x02D0       |     43 |             12 |
| [650](#event-650)          | 0x02FB       |     66 |             17 |
| [65535.28](#event-6553528) | 0x033D       |      5 |              3 |
| [65535.29](#event-6553529) | 0x0342       |      5 |              3 |

## DAT References (imed_data)

|   Index | Hex Value   |   Dec Value |
|---------|-------------|-------------|
|       0 | 0x0014      |          20 |
|       1 | 0x001E      |          30 |
|       2 | 0x0015      |          21 |
|       3 | 0x1C35      |        7221 |
|       4 | 0x1C36      |        7222 |
|       5 | 0x1C37      |        7223 |
|       6 | 0x1C38      |        7224 |
|       7 | 0x1C39      |        7225 |
|       8 | 0x0000      |           0 |
|       9 | 0x1C3E      |        7230 |
|      10 | 0x0001      |           1 |
|      11 | 0x0002      |           2 |
|      12 | 0x1C3A      |        7226 |
|      13 | 0x1C3B      |        7227 |
|      14 | 0x1C3C      |        7228 |
|      15 | 0x1C3D      |        7229 |
|      16 | 0x1C3F      |        7231 |
|      17 | 0x1C40      |        7232 |
|      18 | 0x1C41      |        7233 |
|      19 | 0x1C42      |        7234 |
|      20 | 0x1C43      |        7235 |
|      21 | 0x1C44      |        7236 |
|      22 | 0x00C9      |         201 |
|      23 | 0x1C45      |        7237 |
|      24 | 0x1C46      |        7238 |
|      25 | 0x1C47      |        7239 |
|      26 | 0x1C49      |        7241 |
|      27 | 0x1C48      |        7240 |
|      28 | 0x1C4A      |        7242 |

## String References

- **7221**: Quiet! I've no time for every fool that wants to chat.
- **7222**: Quiet! Leave me alone.
- **7223**: Hey, you there! You're going into the chateau to see Halver, no?
- **7224**: I want you to give him this letter.
- **7225**: Just give it to Halver, my friend. That's all you have to do.
- **7226**: So was Halver...upset? Heh-heh-heh... I wish I could have seen it!
- **7227**: It was the $1 for Chateau d'Oraguille! Heh-heh... Halver wouldn't give me anything for it, but the Orcs did!
- **7228**: What now? You're going to take me in? Fine, but you won't get a gil for doing that.
- **7229**: How about running a little errand for me instead? It could be profitable!
- **7230**: Take the job? [Yes./No way.]
- **7231**: Heh-heh-heh... Fool of an adventurer. I pity you!
- **7232**: Many youths just like you have died, crushed under the heel of this land's sinister history.
- **7233**: All right. How about you go into Ghelsba, get the $1 I sold to those Orcs, and bring it back?
- **7234**: Heh-heh... Not that I expect you to survive...
- **7235**: All right. How about you go into Ghelsba, get the $1 I sold to those Orcs, and bring it back?
- **7236**: Heh-heh... Not that I expect you to survive...
- **7237**: Heh-heh... Here's your reward. Now we're partners in crime, eh?
- **7238**: Next time you're around, I might have another job for you. Heh-heh...
- **7239**: Next time you're around, I might have another job for you. Heh-heh...
- **7240**: Heh-heh... Feel like doing a job for me again?
- **7241**: Do the job? [Yes./No.]
- **7242**: Excellent. I want you to do the same thing, then. Bring me the $1 from Ghelsba. Got it?

## Events

### Event 65535

#### Metadata

| Field        | Value   |
|--------------|---------|
| Entrypoint   | 0x0000  |
| Data Size    | 1 bytes |
| Instructions | 1       |

```
      00 01 02 03 04 05 06 07  08 09 0A 0B 0C 0D 0E 0F
      -- -- -- -- -- -- -- --  -- -- -- -- -- -- -- --
0000: 00                                                .               
```

#### Opcodes

```
  0: 0x0000 [0x00] END_REQSTACK()
```

### Event 65535.1

#### Metadata

| Field        | Value    |
|--------------|----------|
| Entrypoint   | 0x0001   |
| Data Size    | 16 bytes |
| Instructions | 2        |

```
      00 01 02 03 04 05 06 07  08 09 0A 0B 0C 0D 0E 0F
      -- -- -- -- -- -- -- --  -- -- -- -- -- -- -- --
0000:    66 00 80 F8 FF FF 7F  F8 FF FF 7F 74 6C 6B 30   f..........tlk0
0010: 00                                                .               
```

#### Opcodes

```
  0: 0x0001 [0x66] LOAD_EXT_SCHEDULER_MAIN: Load scheduler "tlk0" with entities [EventEntity, EventEntity], work=20*
  1: 0x0010 [0x00] END_REQSTACK()
```

### Event 65535.2

#### Metadata

| Field        | Value    |
|--------------|----------|
| Entrypoint   | 0x0011   |
| Data Size    | 22 bytes |
| Instructions | 4        |

```
      00 01 02 03 04 05 06 07  08 09 0A 0B 0C 0D 0E 0F
      -- -- -- -- -- -- -- --  -- -- -- -- -- -- -- --
0010:    53 F8 FF FF 7F F8 FF  FF 7F 74 6C 6B 30 5E 69   S........tlk0^i
0020: 64 6C 30 1C 01 80 00                              dl0....         
```

#### Opcodes

```
  0: 0x0011 [0x53] WAIT_SCHEDULER_TASK: Wait for scheduler "tlk0" with entities [EventEntity, EventEntity]
  1: 0x001E [0x5E] EventEntity goes idle (kills current action) (animation: "idl0")
  2: 0x0023 [0x1C] WAIT(30* ticks)
  3: 0x0026 [0x00] END_REQSTACK()
```

### Event 65535.3

#### Metadata

| Field        | Value    |
|--------------|----------|
| Entrypoint   | 0x0027   |
| Data Size    | 16 bytes |
| Instructions | 2        |

```
      00 01 02 03 04 05 06 07  08 09 0A 0B 0C 0D 0E 0F
      -- -- -- -- -- -- -- --  -- -- -- -- -- -- -- --
0020:                      66  00 80 F8 FF FF 7F F8 FF         f........
0030: FF 7F 74 68 6B 31 00                              ..thk1.         
```

#### Opcodes

```
  0: 0x0027 [0x66] LOAD_EXT_SCHEDULER_MAIN: Load scheduler "thk1" with entities [EventEntity, EventEntity], work=20*
  1: 0x0036 [0x00] END_REQSTACK()
```

### Event 65535.4

#### Metadata

| Field        | Value    |
|--------------|----------|
| Entrypoint   | 0x0037   |
| Data Size    | 14 bytes |
| Instructions | 2        |

```
      00 01 02 03 04 05 06 07  08 09 0A 0B 0C 0D 0E 0F
      -- -- -- -- -- -- -- --  -- -- -- -- -- -- -- --
0030:                      53  F8 FF FF 7F F8 FF FF 7F         S........
0040: 74 68 6B 31 00                                    thk1.           
```

#### Opcodes

```
  0: 0x0037 [0x53] WAIT_SCHEDULER_TASK: Wait for scheduler "thk1" with entities [EventEntity, EventEntity]
  1: 0x0044 [0x00] END_REQSTACK()
```

### Event 65535.5

#### Metadata

| Field        | Value    |
|--------------|----------|
| Entrypoint   | 0x0045   |
| Data Size    | 16 bytes |
| Instructions | 2        |

```
      00 01 02 03 04 05 06 07  08 09 0A 0B 0C 0D 0E 0F
      -- -- -- -- -- -- -- --  -- -- -- -- -- -- -- --
0040:                66 00 80  F8 FF FF 7F F8 FF FF 7F       f..........
0050: 74 68 6B 32 00                                    thk2.           
```

#### Opcodes

```
  0: 0x0045 [0x66] LOAD_EXT_SCHEDULER_MAIN: Load scheduler "thk2" with entities [EventEntity, EventEntity], work=20*
  1: 0x0054 [0x00] END_REQSTACK()
```

### Event 65535.6

#### Metadata

| Field        | Value    |
|--------------|----------|
| Entrypoint   | 0x0055   |
| Data Size    | 14 bytes |
| Instructions | 2        |

```
      00 01 02 03 04 05 06 07  08 09 0A 0B 0C 0D 0E 0F
      -- -- -- -- -- -- -- --  -- -- -- -- -- -- -- --
0050:                53 F8 FF  FF 7F F8 FF FF 7F 74 68       S........th
0060: 6B 32 00                                          k2.             
```

#### Opcodes

```
  0: 0x0055 [0x53] WAIT_SCHEDULER_TASK: Wait for scheduler "thk2" with entities [EventEntity, EventEntity]
  1: 0x0062 [0x00] END_REQSTACK()
```

### Event 65535.7

#### Metadata

| Field        | Value    |
|--------------|----------|
| Entrypoint   | 0x0063   |
| Data Size    | 16 bytes |
| Instructions | 2        |

```
      00 01 02 03 04 05 06 07  08 09 0A 0B 0C 0D 0E 0F
      -- -- -- -- -- -- -- --  -- -- -- -- -- -- -- --
0060:          66 00 80 F8 FF  FF 7F F8 FF FF 7F 70 61     f..........pa
0070: 73 30 00                                          s0.             
```

#### Opcodes

```
  0: 0x0063 [0x66] LOAD_EXT_SCHEDULER_MAIN: Load scheduler "pas0" with entities [EventEntity, EventEntity], work=20*
  1: 0x0072 [0x00] END_REQSTACK()
```

### Event 65535.8

#### Metadata

| Field        | Value    |
|--------------|----------|
| Entrypoint   | 0x0073   |
| Data Size    | 14 bytes |
| Instructions | 2        |

```
      00 01 02 03 04 05 06 07  08 09 0A 0B 0C 0D 0E 0F
      -- -- -- -- -- -- -- --  -- -- -- -- -- -- -- --
0070:          53 F8 FF FF 7F  F8 FF FF 7F 70 61 73 30     S........pas0
0080: 00                                                .               
```

#### Opcodes

```
  0: 0x0073 [0x53] WAIT_SCHEDULER_TASK: Wait for scheduler "pas0" with entities [EventEntity, EventEntity]
  1: 0x0080 [0x00] END_REQSTACK()
```

### Event 65535.9

#### Metadata

| Field        | Value    |
|--------------|----------|
| Entrypoint   | 0x0081   |
| Data Size    | 16 bytes |
| Instructions | 2        |

```
      00 01 02 03 04 05 06 07  08 09 0A 0B 0C 0D 0E 0F
      -- -- -- -- -- -- -- --  -- -- -- -- -- -- -- --
0080:    66 00 80 F8 FF FF 7F  F8 FF FF 7F 70 6F 69 31   f..........poi1
0090: 00                                                .               
```

#### Opcodes

```
  0: 0x0081 [0x66] LOAD_EXT_SCHEDULER_MAIN: Load scheduler "poi1" with entities [EventEntity, EventEntity], work=20*
  1: 0x0090 [0x00] END_REQSTACK()
```

### Event 65535.10

#### Metadata

| Field        | Value    |
|--------------|----------|
| Entrypoint   | 0x0091   |
| Data Size    | 14 bytes |
| Instructions | 2        |

```
      00 01 02 03 04 05 06 07  08 09 0A 0B 0C 0D 0E 0F
      -- -- -- -- -- -- -- --  -- -- -- -- -- -- -- --
0090:    53 F8 FF FF 7F F8 FF  FF 7F 70 6F 69 31 00      S........poi1. 
```

#### Opcodes

```
  0: 0x0091 [0x53] WAIT_SCHEDULER_TASK: Wait for scheduler "poi1" with entities [EventEntity, EventEntity]
  1: 0x009E [0x00] END_REQSTACK()
```

### Event 65535.11

#### Metadata

| Field        | Value    |
|--------------|----------|
| Entrypoint   | 0x009F   |
| Data Size    | 16 bytes |
| Instructions | 2        |

```
      00 01 02 03 04 05 06 07  08 09 0A 0B 0C 0D 0E 0F
      -- -- -- -- -- -- -- --  -- -- -- -- -- -- -- --
0090:                                               66                 f
00A0: 00 80 F8 FF FF 7F F8 FF  FF 7F 70 6F 69 32 00     ..........poi2. 
```

#### Opcodes

```
  0: 0x009F [0x66] LOAD_EXT_SCHEDULER_MAIN: Load scheduler "poi2" with entities [EventEntity, EventEntity], work=20*
  1: 0x00AE [0x00] END_REQSTACK()
```

### Event 65535.12

#### Metadata

| Field        | Value    |
|--------------|----------|
| Entrypoint   | 0x00AF   |
| Data Size    | 14 bytes |
| Instructions | 2        |

```
      00 01 02 03 04 05 06 07  08 09 0A 0B 0C 0D 0E 0F
      -- -- -- -- -- -- -- --  -- -- -- -- -- -- -- --
00A0:                                               53                 S
00B0: F8 FF FF 7F F8 FF FF 7F  70 6F 69 32 00           ........poi2.   
```

#### Opcodes

```
  0: 0x00AF [0x53] WAIT_SCHEDULER_TASK: Wait for scheduler "poi2" with entities [EventEntity, EventEntity]
  1: 0x00BC [0x00] END_REQSTACK()
```

### Event 65535.13

#### Metadata

| Field        | Value    |
|--------------|----------|
| Entrypoint   | 0x00BD   |
| Data Size    | 16 bytes |
| Instructions | 2        |

```
      00 01 02 03 04 05 06 07  08 09 0A 0B 0C 0D 0E 0F
      -- -- -- -- -- -- -- --  -- -- -- -- -- -- -- --
00B0:                                         66 02 80               f..
00C0: F8 FF FF 7F F8 FF FF 7F  70 6F 69 30 00           ........poi0.   
```

#### Opcodes

```
  0: 0x00BD [0x66] LOAD_EXT_SCHEDULER_MAIN: Load scheduler "poi0" with entities [EventEntity, EventEntity], work=21*
  1: 0x00CC [0x00] END_REQSTACK()
```

### Event 65535.14

#### Metadata

| Field        | Value    |
|--------------|----------|
| Entrypoint   | 0x00CD   |
| Data Size    | 14 bytes |
| Instructions | 2        |

```
      00 01 02 03 04 05 06 07  08 09 0A 0B 0C 0D 0E 0F
      -- -- -- -- -- -- -- --  -- -- -- -- -- -- -- --
00C0:                                         53 F8 FF               S..
00D0: FF 7F F8 FF FF 7F 70 6F  69 30 00                 ......poi0.     
```

#### Opcodes

```
  0: 0x00CD [0x53] WAIT_SCHEDULER_TASK: Wait for scheduler "poi0" with entities [EventEntity, EventEntity]
  1: 0x00DA [0x00] END_REQSTACK()
```

### Event 65535.15

#### Metadata

| Field        | Value    |
|--------------|----------|
| Entrypoint   | 0x00DB   |
| Data Size    | 16 bytes |
| Instructions | 2        |

```
      00 01 02 03 04 05 06 07  08 09 0A 0B 0C 0D 0E 0F
      -- -- -- -- -- -- -- --  -- -- -- -- -- -- -- --
00D0:                                   66 02 80 F8 FF             f....
00E0: FF 7F F8 FF FF 7F 70 6F  69 31 00                 ......poi1.     
```

#### Opcodes

```
  0: 0x00DB [0x66] LOAD_EXT_SCHEDULER_MAIN: Load scheduler "poi1" with entities [EventEntity, EventEntity], work=21*
  1: 0x00EA [0x00] END_REQSTACK()
```

### Event 65535.16

#### Metadata

| Field        | Value    |
|--------------|----------|
| Entrypoint   | 0x00EB   |
| Data Size    | 14 bytes |
| Instructions | 2        |

```
      00 01 02 03 04 05 06 07  08 09 0A 0B 0C 0D 0E 0F
      -- -- -- -- -- -- -- --  -- -- -- -- -- -- -- --
00E0:                                   53 F8 FF FF 7F             S....
00F0: F8 FF FF 7F 70 6F 69 31  00                       ....poi1.       
```

#### Opcodes

```
  0: 0x00EB [0x53] WAIT_SCHEDULER_TASK: Wait for scheduler "poi1" with entities [EventEntity, EventEntity]
  1: 0x00F8 [0x00] END_REQSTACK()
```

### Event 65535.17

#### Metadata

| Field        | Value    |
|--------------|----------|
| Entrypoint   | 0x00F9   |
| Data Size    | 16 bytes |
| Instructions | 2        |

```
      00 01 02 03 04 05 06 07  08 09 0A 0B 0C 0D 0E 0F
      -- -- -- -- -- -- -- --  -- -- -- -- -- -- -- --
00F0:                             66 02 80 F8 FF FF 7F           f......
0100: F8 FF FF 7F 64 69 73 30  00                       ....dis0.       
```

#### Opcodes

```
  0: 0x00F9 [0x66] LOAD_EXT_SCHEDULER_MAIN: Load scheduler "dis0" with entities [EventEntity, EventEntity], work=21*
  1: 0x0108 [0x00] END_REQSTACK()
```

### Event 65535.18

#### Metadata

| Field        | Value    |
|--------------|----------|
| Entrypoint   | 0x0109   |
| Data Size    | 14 bytes |
| Instructions | 2        |

```
      00 01 02 03 04 05 06 07  08 09 0A 0B 0C 0D 0E 0F
      -- -- -- -- -- -- -- --  -- -- -- -- -- -- -- --
0100:                             53 F8 FF FF 7F F8 FF           S......
0110: FF 7F 64 69 73 30 00                              ..dis0.         
```

#### Opcodes

```
  0: 0x0109 [0x53] WAIT_SCHEDULER_TASK: Wait for scheduler "dis0" with entities [EventEntity, EventEntity]
  1: 0x0116 [0x00] END_REQSTACK()
```

### Event 65535.19

#### Metadata

| Field        | Value   |
|--------------|---------|
| Entrypoint   | 0x0117  |
| Data Size    | 9 bytes |
| Instructions | 3       |

```
      00 01 02 03 04 05 06 07  08 09 0A 0B 0C 0D 0E 0F
      -- -- -- -- -- -- -- --  -- -- -- -- -- -- -- --
0110:                      5E  69 64 6C 30 1C 01 80 00         ^idl0....
```

#### Opcodes

```
  0: 0x0117 [0x5E] EventEntity goes idle (kills current action) (animation: "idl0")
  1: 0x011C [0x1C] WAIT(30* ticks)
  2: 0x011F [0x00] END_REQSTACK()
```

### Event 641

#### Metadata

| Field        | Value    |
|--------------|----------|
| Entrypoint   | 0x0120   |
| Data Size    | 15 bytes |
| Instructions | 8        |

```
      00 01 02 03 04 05 06 07  08 09 0A 0B 0C 0D 0E 0F
      -- -- -- -- -- -- -- --  -- -- -- -- -- -- -- --
0120: 1E F0 FF FF 7F 6F 70 1D  03 80 23 20 00 21 00     .....op...# .!. 
```

#### Opcodes

```
  0: 0x0120 [0x1E] EventEntity looks at LocalPlayer and starts talking
  1: 0x0125 [0x6F] WAIT_FRAME_DELAY: Yield until WaitTime reaches zero
  2: 0x0126 [0x70] WAIT_ENTITY_RENDER_FLAG: Wait while EventEntity->Render.Flags3 bit 2 is set (cancel turn if not)
  3: 0x0127 [0x1D] PRINT_EVENT_MESSAGE(message_id=7221*)
    → "Quiet! I've no time for every fool that wants to chat."
  4: 0x012A [0x23] WAIT_FOR_DIALOG_INTERACTION
  5: 0x012B [0x20] SET_CLI_EVENT_UC_FLAG: Unlock player control
  6: 0x012D [0x21] END_EVENT
  7: 0x012E [0x00] END_REQSTACK()
```

### Event 642

#### Metadata

| Field        | Value    |
|--------------|----------|
| Entrypoint   | 0x012F   |
| Data Size    | 15 bytes |
| Instructions | 8        |

```
      00 01 02 03 04 05 06 07  08 09 0A 0B 0C 0D 0E 0F
      -- -- -- -- -- -- -- --  -- -- -- -- -- -- -- --
0120:                                               1E                 .
0130: F0 FF FF 7F 6F 70 1D 04  80 23 20 00 21 00        ....op...# .!.  
```

#### Opcodes

```
  0: 0x012F [0x1E] EventEntity looks at LocalPlayer and starts talking
  1: 0x0134 [0x6F] WAIT_FRAME_DELAY: Yield until WaitTime reaches zero
  2: 0x0135 [0x70] WAIT_ENTITY_RENDER_FLAG: Wait while EventEntity->Render.Flags3 bit 2 is set (cancel turn if not)
  3: 0x0136 [0x1D] PRINT_EVENT_MESSAGE(message_id=7222*)
    → "Quiet! Leave me alone."
  4: 0x0139 [0x23] WAIT_FOR_DIALOG_INTERACTION
  5: 0x013A [0x20] SET_CLI_EVENT_UC_FLAG: Unlock player control
  6: 0x013C [0x21] END_EVENT
  7: 0x013D [0x00] END_REQSTACK()
```

### Event 643

#### Metadata

| Field        | Value    |
|--------------|----------|
| Entrypoint   | 0x013E   |
| Data Size    | 25 bytes |
| Instructions | 8        |

```
      00 01 02 03 04 05 06 07  08 09 0A 0B 0C 0D 0E 0F
      -- -- -- -- -- -- -- --  -- -- -- -- -- -- -- --
0130:                                            1E F0                ..
0140: FF FF 7F 6F 70 29 0B 85  70 0E 01 17 29 0B 85 70  ...op)..p...)..p
0150: 0E 01 18 20 00 21 00                              ... .!.         
```

#### Opcodes

```
  0: 0x013E [0x1E] EventEntity looks at LocalPlayer and starts talking
  1: 0x0143 [0x6F] WAIT_FRAME_DELAY: Yield until WaitTime reaches zero
  2: 0x0144 [0x70] WAIT_ENTITY_RENDER_FLAG: Wait while EventEntity->Render.Flags3 bit 2 is set (cancel turn if not)
  3: 0x0145 [0x29] REQ_SET_WAIT(priority=0x0B, entity_id=Dauperiat (ID: 17723525/0x010E7085), tag_num=0x17)
  4: 0x014C [0x29] REQ_SET_WAIT(priority=0x0B, entity_id=Dauperiat (ID: 17723525/0x010E7085), tag_num=0x18)
  5: 0x0153 [0x20] SET_CLI_EVENT_UC_FLAG: Unlock player control
  6: 0x0155 [0x21] END_EVENT
  7: 0x0156 [0x00] END_REQSTACK()
```

### Event 65535.20

#### Metadata

| Field        | Value   |
|--------------|---------|
| Entrypoint   | 0x0157  |
| Data Size    | 5 bytes |
| Instructions | 3       |

```
      00 01 02 03 04 05 06 07  08 09 0A 0B 0C 0D 0E 0F
      -- -- -- -- -- -- -- --  -- -- -- -- -- -- -- --
0150:                      1D  05 80 23 00                     ...#.    
```

#### Opcodes

```
  0: 0x0157 [0x1D] PRINT_EVENT_MESSAGE(message_id=7223*)
    → "Hey, you there! You're going into the chateau to see Halver, no?"
  1: 0x015A [0x23] WAIT_FOR_DIALOG_INTERACTION
  2: 0x015B [0x00] END_REQSTACK()
```

### Event 65535.21

#### Metadata

| Field        | Value    |
|--------------|----------|
| Entrypoint   | 0x015C   |
| Data Size    | 19 bytes |
| Instructions | 5        |

```
      00 01 02 03 04 05 06 07  08 09 0A 0B 0C 0D 0E 0F
      -- -- -- -- -- -- -- --  -- -- -- -- -- -- -- --
0150:                                      29 08 85 70              )..p
0160: 0E 01 07 1D 06 80 23 29  08 85 70 0E 01 08 00     ......#)..p.... 
```

#### Opcodes

```
  0: 0x015C [0x29] REQ_SET_WAIT(priority=0x08, entity_id=Dauperiat (ID: 17723525/0x010E7085), tag_num=0x07)
  1: 0x0163 [0x1D] PRINT_EVENT_MESSAGE(message_id=7224*)
    → "I want you to give him this letter."
  2: 0x0166 [0x23] WAIT_FOR_DIALOG_INTERACTION
  3: 0x0167 [0x29] REQ_SET_WAIT(priority=0x08, entity_id=Dauperiat (ID: 17723525/0x010E7085), tag_num=0x08)
  4: 0x016E [0x00] END_REQSTACK()
```

### Event 645

#### Metadata

| Field        | Value    |
|--------------|----------|
| Entrypoint   | 0x016F   |
| Data Size    | 15 bytes |
| Instructions | 8        |

```
      00 01 02 03 04 05 06 07  08 09 0A 0B 0C 0D 0E 0F
      -- -- -- -- -- -- -- --  -- -- -- -- -- -- -- --
0160:                                               1E                 .
0170: F0 FF FF 7F 6F 70 1D 07  80 23 20 00 21 00        ....op...# .!.  
```

#### Opcodes

```
  0: 0x016F [0x1E] EventEntity looks at LocalPlayer and starts talking
  1: 0x0174 [0x6F] WAIT_FRAME_DELAY: Yield until WaitTime reaches zero
  2: 0x0175 [0x70] WAIT_ENTITY_RENDER_FLAG: Wait while EventEntity->Render.Flags3 bit 2 is set (cancel turn if not)
  3: 0x0176 [0x1D] PRINT_EVENT_MESSAGE(message_id=7225*)
    → "Just give it to Halver, my friend. That's all you have to do."
  4: 0x0179 [0x23] WAIT_FOR_DIALOG_INTERACTION
  5: 0x017A [0x20] SET_CLI_EVENT_UC_FLAG: Unlock player control
  6: 0x017C [0x21] END_EVENT
  7: 0x017D [0x00] END_REQSTACK()
```

### Event 646

#### Metadata

| Field        | Value    |
|--------------|----------|
| Entrypoint   | 0x017E   |
| Data Size    | 95 bytes |
| Instructions | 21       |

```
      00 01 02 03 04 05 06 07  08 09 0A 0B 0C 0D 0E 0F
      -- -- -- -- -- -- -- --  -- -- -- -- -- -- -- --
0170:                                            1E F0                ..
0180: FF FF 7F 6F 70 02 04 10  08 80 00 9B 01 29 0B 85  ...op........)..
0190: 70 0E 01 1B 29 0B 85 70  0E 01 1C 29 0B 85 70 0E  p...)..p...)..p.
01A0: 01 1D 24 09 80 08 80 08  80 25 02 00 10 08 80 00  ..$......%......
01B0: C2 01 42 03 01 10 0A 80  29 0B 85 70 0E 01 1F 01  ..B.....)..p....
01C0: D9 01 02 00 10 0A 80 00  D9 01 03 01 10 0B 80 29  ...............)
01D0: 0B 85 70 0E 01 1E 01 D9  01 20 00 21 00           ..p...... .!.   
```

#### Opcodes

```
  0: 0x017E [0x1E] EventEntity looks at LocalPlayer and starts talking
  1: 0x0183 [0x6F] WAIT_FRAME_DELAY: Yield until WaitTime reaches zero
  2: 0x0184 [0x70] WAIT_ENTITY_RENDER_FLAG: Wait while EventEntity->Render.Flags3 bit 2 is set (cancel turn if not)
  3: 0x0185 [0x02] IF !(Work_Zone[4] == 0*) GOTO 0x019B
  4: 0x018D [0x29] REQ_SET_WAIT(priority=0x0B, entity_id=Dauperiat (ID: 17723525/0x010E7085), tag_num=0x1B)
  5: 0x0194 [0x29] REQ_SET_WAIT(priority=0x0B, entity_id=Dauperiat (ID: 17723525/0x010E7085), tag_num=0x1C)
  6: 0x019B [0x29] REQ_SET_WAIT(priority=0x0B, entity_id=Dauperiat (ID: 17723525/0x010E7085), tag_num=0x1D)
  7: 0x01A2 [0x24] CREATE_DIALOG(message_id=7230*, default_option=0*, option_flags=0*)
    → "Take the job? [Yes./No way.]"
  8: 0x01A9 [0x25] WAIT_DIALOG_SELECT()
  9: 0x01AA [0x02] IF !(Work_Zone[0] == 0*) GOTO 0x01C2
 10: 0x01B2 [0x42] SET_CLI_EVENT_CANCEL_DATA()
 11: 0x01B3 [0x03] Work_Zone[1] = 1*
 12: 0x01B8 [0x29] REQ_SET_WAIT(priority=0x0B, entity_id=Dauperiat (ID: 17723525/0x010E7085), tag_num=0x1F)
 13: 0x01BF [0x01] GOTO 0x01D9
 14: 0x01C2 [0x02] IF !(Work_Zone[0] == 1*) GOTO 0x01D9
 15: 0x01CA [0x03] Work_Zone[1] = 2*
 16: 0x01CF [0x29] REQ_SET_WAIT(priority=0x0B, entity_id=Dauperiat (ID: 17723525/0x010E7085), tag_num=0x1E)
 17: 0x01D6 [0x01] GOTO 0x01D9

SUBROUTINE_01D9:
 18: 0x01D9 [0x20] SET_CLI_EVENT_UC_FLAG: Unlock player control
 19: 0x01DB [0x21] END_EVENT
 20: 0x01DC [0x00] END_REQSTACK()
```

### Event 65535.22

#### Metadata

| Field        | Value   |
|--------------|---------|
| Entrypoint   | 0x01DD  |
| Data Size    | 5 bytes |
| Instructions | 3       |

```
      00 01 02 03 04 05 06 07  08 09 0A 0B 0C 0D 0E 0F
      -- -- -- -- -- -- -- --  -- -- -- -- -- -- -- --
01D0:                                         1D 0C 80               ...
01E0: 23 00                                             #.              
```

#### Opcodes

```
  0: 0x01DD [0x1D] PRINT_EVENT_MESSAGE(message_id=7226*)
    → "So was Halver...upset? Heh-heh-heh... I wish I could have seen it!"
  1: 0x01E0 [0x23] WAIT_FOR_DIALOG_INTERACTION
  2: 0x01E1 [0x00] END_REQSTACK()
```

### Event 65535.23

#### Metadata

| Field        | Value   |
|--------------|---------|
| Entrypoint   | 0x01E2  |
| Data Size    | 5 bytes |
| Instructions | 3       |

```
      00 01 02 03 04 05 06 07  08 09 0A 0B 0C 0D 0E 0F
      -- -- -- -- -- -- -- --  -- -- -- -- -- -- -- --
01E0:       1D 0D 80 23 00                                ...#.         
```

#### Opcodes

```
  0: 0x01E2 [0x1D] PRINT_EVENT_MESSAGE(message_id=7227*)
    → "It was the $1 for Chateau d'Oraguille! Heh-heh... Halver wouldn't give me anything for it, but the Orcs did!"
  1: 0x01E5 [0x23] WAIT_FOR_DIALOG_INTERACTION
  2: 0x01E6 [0x00] END_REQSTACK()
```

### Event 65535.24

#### Metadata

| Field        | Value    |
|--------------|----------|
| Entrypoint   | 0x01E7   |
| Data Size    | 23 bytes |
| Instructions | 7        |

```
      00 01 02 03 04 05 06 07  08 09 0A 0B 0C 0D 0E 0F
      -- -- -- -- -- -- -- --  -- -- -- -- -- -- -- --
01E0:                      29  08 85 70 0E 01 01 1D 0E         )..p.....
01F0: 80 23 1D 0F 80 23 29 08  85 70 0E 01 02 00        .#...#)..p....  
```

#### Opcodes

```
  0: 0x01E7 [0x29] REQ_SET_WAIT(priority=0x08, entity_id=Dauperiat (ID: 17723525/0x010E7085), tag_num=0x01)
  1: 0x01EE [0x1D] PRINT_EVENT_MESSAGE(message_id=7228*)
    → "What now? You're going to take me in? Fine, but you won't get a gil for doing that."
  2: 0x01F1 [0x23] WAIT_FOR_DIALOG_INTERACTION
  3: 0x01F2 [0x1D] PRINT_EVENT_MESSAGE(message_id=7229*)
    → "How about running a little errand for me instead? It could be profitable!"
  4: 0x01F5 [0x23] WAIT_FOR_DIALOG_INTERACTION
  5: 0x01F6 [0x29] REQ_SET_WAIT(priority=0x08, entity_id=Dauperiat (ID: 17723525/0x010E7085), tag_num=0x02)
  6: 0x01FD [0x00] END_REQSTACK()
```

### Event 65535.25

#### Metadata

| Field        | Value    |
|--------------|----------|
| Entrypoint   | 0x01FE   |
| Data Size    | 37 bytes |
| Instructions | 9        |

```
      00 01 02 03 04 05 06 07  08 09 0A 0B 0C 0D 0E 0F
      -- -- -- -- -- -- -- --  -- -- -- -- -- -- -- --
01F0:                                            29 08                ).
0200: 85 70 0E 01 03 1D 10 80  23 29 08 85 70 0E 01 04  .p......#)..p...
0210: 29 08 85 70 0E 01 05 1D  11 80 23 29 08 85 70 0E  )..p......#)..p.
0220: 01 06 00                                          ...             
```

#### Opcodes

```
  0: 0x01FE [0x29] REQ_SET_WAIT(priority=0x08, entity_id=Dauperiat (ID: 17723525/0x010E7085), tag_num=0x03)
  1: 0x0205 [0x1D] PRINT_EVENT_MESSAGE(message_id=7231*)
    → "Heh-heh-heh... Fool of an adventurer. I pity you!"
  2: 0x0208 [0x23] WAIT_FOR_DIALOG_INTERACTION
  3: 0x0209 [0x29] REQ_SET_WAIT(priority=0x08, entity_id=Dauperiat (ID: 17723525/0x010E7085), tag_num=0x04)
  4: 0x0210 [0x29] REQ_SET_WAIT(priority=0x08, entity_id=Dauperiat (ID: 17723525/0x010E7085), tag_num=0x05)
  5: 0x0217 [0x1D] PRINT_EVENT_MESSAGE(message_id=7232*)
    → "Many youths just like you have died, crushed under the heel of this land's sinister history."
  6: 0x021A [0x23] WAIT_FOR_DIALOG_INTERACTION
  7: 0x021B [0x29] REQ_SET_WAIT(priority=0x08, entity_id=Dauperiat (ID: 17723525/0x010E7085), tag_num=0x06)
  8: 0x0222 [0x00] END_REQSTACK()
```

### Event 65535.26

#### Metadata

| Field        | Value    |
|--------------|----------|
| Entrypoint   | 0x0223   |
| Data Size    | 37 bytes |
| Instructions | 9        |

```
      00 01 02 03 04 05 06 07  08 09 0A 0B 0C 0D 0E 0F
      -- -- -- -- -- -- -- --  -- -- -- -- -- -- -- --
0220:          1D 12 80 23 29  08 85 70 0E 01 03 1D 13     ...#)..p.....
0230: 80 23 29 08 85 70 0E 01  04 29 08 85 70 0E 01 05  .#)..p...)..p...
0240: 29 08 85 70 0E 01 06 00                           )..p....        
```

#### Opcodes

```
  0: 0x0223 [0x1D] PRINT_EVENT_MESSAGE(message_id=7233*)
    → "All right. How about you go into Ghelsba, get the $1 I sold to those Orcs, and bring it back?"
  1: 0x0226 [0x23] WAIT_FOR_DIALOG_INTERACTION
  2: 0x0227 [0x29] REQ_SET_WAIT(priority=0x08, entity_id=Dauperiat (ID: 17723525/0x010E7085), tag_num=0x03)
  3: 0x022E [0x1D] PRINT_EVENT_MESSAGE(message_id=7234*)
    → "Heh-heh... Not that I expect you to survive..."
  4: 0x0231 [0x23] WAIT_FOR_DIALOG_INTERACTION
  5: 0x0232 [0x29] REQ_SET_WAIT(priority=0x08, entity_id=Dauperiat (ID: 17723525/0x010E7085), tag_num=0x04)
  6: 0x0239 [0x29] REQ_SET_WAIT(priority=0x08, entity_id=Dauperiat (ID: 17723525/0x010E7085), tag_num=0x05)
  7: 0x0240 [0x29] REQ_SET_WAIT(priority=0x08, entity_id=Dauperiat (ID: 17723525/0x010E7085), tag_num=0x06)
  8: 0x0247 [0x00] END_REQSTACK()
```

### Event 647

#### Metadata

| Field        | Value    |
|--------------|----------|
| Entrypoint   | 0x0248   |
| Data Size    | 47 bytes |
| Instructions | 14       |

```
      00 01 02 03 04 05 06 07  08 09 0A 0B 0C 0D 0E 0F
      -- -- -- -- -- -- -- --  -- -- -- -- -- -- -- --
0240:                          1E F0 FF FF 7F 6F 70 1D          .....op.
0250: 14 80 23 29 08 85 70 0E  01 03 1D 15 80 23 29 08  ..#)..p......#).
0260: 85 70 0E 01 04 29 08 85  70 0E 01 05 29 08 85 70  .p...)..p...)..p
0270: 0E 01 06 20 00 21 00                              ... .!.         
```

#### Opcodes

```
  0: 0x0248 [0x1E] EventEntity looks at LocalPlayer and starts talking
  1: 0x024D [0x6F] WAIT_FRAME_DELAY: Yield until WaitTime reaches zero
  2: 0x024E [0x70] WAIT_ENTITY_RENDER_FLAG: Wait while EventEntity->Render.Flags3 bit 2 is set (cancel turn if not)
  3: 0x024F [0x1D] PRINT_EVENT_MESSAGE(message_id=7235*)
    → "All right. How about you go into Ghelsba, get the $1 I sold to those Orcs, and bring it back?"
  4: 0x0252 [0x23] WAIT_FOR_DIALOG_INTERACTION
  5: 0x0253 [0x29] REQ_SET_WAIT(priority=0x08, entity_id=Dauperiat (ID: 17723525/0x010E7085), tag_num=0x03)
  6: 0x025A [0x1D] PRINT_EVENT_MESSAGE(message_id=7236*)
    → "Heh-heh... Not that I expect you to survive..."
  7: 0x025D [0x23] WAIT_FOR_DIALOG_INTERACTION
  8: 0x025E [0x29] REQ_SET_WAIT(priority=0x08, entity_id=Dauperiat (ID: 17723525/0x010E7085), tag_num=0x04)
  9: 0x0265 [0x29] REQ_SET_WAIT(priority=0x08, entity_id=Dauperiat (ID: 17723525/0x010E7085), tag_num=0x05)
 10: 0x026C [0x29] REQ_SET_WAIT(priority=0x08, entity_id=Dauperiat (ID: 17723525/0x010E7085), tag_num=0x06)
 11: 0x0273 [0x20] SET_CLI_EVENT_UC_FLAG: Unlock player control
 12: 0x0275 [0x21] END_EVENT
 13: 0x0276 [0x00] END_REQSTACK()
```

### Event 648

#### Metadata

| Field        | Value    |
|--------------|----------|
| Entrypoint   | 0x0277   |
| Data Size    | 38 bytes |
| Instructions | 10       |

```
      00 01 02 03 04 05 06 07  08 09 0A 0B 0C 0D 0E 0F
      -- -- -- -- -- -- -- --  -- -- -- -- -- -- -- --
0270:                      42  20 01 1E F0 FF FF 7F 6F         B ......o
0280: 70 29 0B 85 70 0E 01 22  45 16 80 F0 FF FF 7F F0  p)..p.."E.......
0290: FF FF 7F 71 73 74 63 08  80 20 00 21 00           ...qstc.. .!.   
```

#### Opcodes

```
  0: 0x0277 [0x42] SET_CLI_EVENT_CANCEL_DATA()
  1: 0x0278 [0x20] SET_CLI_EVENT_UC_FLAG: Lock player control
  2: 0x027A [0x1E] EventEntity looks at LocalPlayer and starts talking
  3: 0x027F [0x6F] WAIT_FRAME_DELAY: Yield until WaitTime reaches zero
  4: 0x0280 [0x70] WAIT_ENTITY_RENDER_FLAG: Wait while EventEntity->Render.Flags3 bit 2 is set (cancel turn if not)
  5: 0x0281 [0x29] REQ_SET_WAIT(priority=0x0B, entity_id=Dauperiat (ID: 17723525/0x010E7085), tag_num=0x22)
  6: 0x0288 [0x45] LOAD_SCHEDULED_TASK: Load scheduler "qstc" with entities [LocalPlayer, LocalPlayer], work=[201*, 0*]
  7: 0x0299 [0x20] SET_CLI_EVENT_UC_FLAG: Unlock player control
  8: 0x029B [0x21] END_EVENT
  9: 0x029C [0x00] END_REQSTACK()
```

### Event 65535.27

#### Metadata

| Field        | Value    |
|--------------|----------|
| Entrypoint   | 0x029D   |
| Data Size    | 51 bytes |
| Instructions | 11       |

```
      00 01 02 03 04 05 06 07  08 09 0A 0B 0C 0D 0E 0F
      -- -- -- -- -- -- -- --  -- -- -- -- -- -- -- --
0290:                                         29 08 85               )..
02A0: 70 0E 01 07 1D 17 80 23  29 08 85 70 0E 01 08 29  p......#)..p...)
02B0: 08 85 70 0E 01 03 1D 18  80 23 29 08 85 70 0E 01  ..p......#)..p..
02C0: 04 29 08 85 70 0E 01 05  29 08 85 70 0E 01 06 00  .)..p...)..p....
```

#### Opcodes

```
  0: 0x029D [0x29] REQ_SET_WAIT(priority=0x08, entity_id=Dauperiat (ID: 17723525/0x010E7085), tag_num=0x07)
  1: 0x02A4 [0x1D] PRINT_EVENT_MESSAGE(message_id=7237*)
    → "Heh-heh... Here's your reward. Now we're partners in crime, eh?"
  2: 0x02A7 [0x23] WAIT_FOR_DIALOG_INTERACTION
  3: 0x02A8 [0x29] REQ_SET_WAIT(priority=0x08, entity_id=Dauperiat (ID: 17723525/0x010E7085), tag_num=0x08)
  4: 0x02AF [0x29] REQ_SET_WAIT(priority=0x08, entity_id=Dauperiat (ID: 17723525/0x010E7085), tag_num=0x03)
  5: 0x02B6 [0x1D] PRINT_EVENT_MESSAGE(message_id=7238*)
    → "Next time you're around, I might have another job for you. Heh-heh..."
  6: 0x02B9 [0x23] WAIT_FOR_DIALOG_INTERACTION
  7: 0x02BA [0x29] REQ_SET_WAIT(priority=0x08, entity_id=Dauperiat (ID: 17723525/0x010E7085), tag_num=0x04)
  8: 0x02C1 [0x29] REQ_SET_WAIT(priority=0x08, entity_id=Dauperiat (ID: 17723525/0x010E7085), tag_num=0x05)
  9: 0x02C8 [0x29] REQ_SET_WAIT(priority=0x08, entity_id=Dauperiat (ID: 17723525/0x010E7085), tag_num=0x06)
 10: 0x02CF [0x00] END_REQSTACK()
```

### Event 649

#### Metadata

| Field        | Value    |
|--------------|----------|
| Entrypoint   | 0x02D0   |
| Data Size    | 43 bytes |
| Instructions | 12       |

```
      00 01 02 03 04 05 06 07  08 09 0A 0B 0C 0D 0E 0F
      -- -- -- -- -- -- -- --  -- -- -- -- -- -- -- --
02D0: 1E F0 FF FF 7F 6F 70 29  08 85 70 0E 01 03 1D 19  .....op)..p.....
02E0: 80 23 29 08 85 70 0E 01  04 29 08 85 70 0E 01 05  .#)..p...)..p...
02F0: 29 08 85 70 0E 01 06 20  00 21 00                 )..p... .!.     
```

#### Opcodes

```
  0: 0x02D0 [0x1E] EventEntity looks at LocalPlayer and starts talking
  1: 0x02D5 [0x6F] WAIT_FRAME_DELAY: Yield until WaitTime reaches zero
  2: 0x02D6 [0x70] WAIT_ENTITY_RENDER_FLAG: Wait while EventEntity->Render.Flags3 bit 2 is set (cancel turn if not)
  3: 0x02D7 [0x29] REQ_SET_WAIT(priority=0x08, entity_id=Dauperiat (ID: 17723525/0x010E7085), tag_num=0x03)
  4: 0x02DE [0x1D] PRINT_EVENT_MESSAGE(message_id=7239*)
    → "Next time you're around, I might have another job for you. Heh-heh..."
  5: 0x02E1 [0x23] WAIT_FOR_DIALOG_INTERACTION
  6: 0x02E2 [0x29] REQ_SET_WAIT(priority=0x08, entity_id=Dauperiat (ID: 17723525/0x010E7085), tag_num=0x04)
  7: 0x02E9 [0x29] REQ_SET_WAIT(priority=0x08, entity_id=Dauperiat (ID: 17723525/0x010E7085), tag_num=0x05)
  8: 0x02F0 [0x29] REQ_SET_WAIT(priority=0x08, entity_id=Dauperiat (ID: 17723525/0x010E7085), tag_num=0x06)
  9: 0x02F7 [0x20] SET_CLI_EVENT_UC_FLAG: Unlock player control
 10: 0x02F9 [0x21] END_EVENT
 11: 0x02FA [0x00] END_REQSTACK()
```

### Event 650

#### Metadata

| Field        | Value    |
|--------------|----------|
| Entrypoint   | 0x02FB   |
| Data Size    | 66 bytes |
| Instructions | 17       |

```
      00 01 02 03 04 05 06 07  08 09 0A 0B 0C 0D 0E 0F
      -- -- -- -- -- -- -- --  -- -- -- -- -- -- -- --
02F0:                                   1E F0 FF FF 7F             .....
0300: 6F 70 29 0B 85 70 0E 01  25 24 1A 80 08 80 08 80  op)..p..%$......
0310: 25 02 00 10 08 80 00 29  03 42 03 01 10 0A 80 29  %......).B.....)
0320: 0B 85 70 0E 01 26 01 39  03 02 00 10 0A 80 00 39  ..p..&.9.......9
0330: 03 03 01 10 0B 80 01 39  03 20 00 21 00           .......9. .!.   
```

#### Opcodes

```
  0: 0x02FB [0x1E] EventEntity looks at LocalPlayer and starts talking
  1: 0x0300 [0x6F] WAIT_FRAME_DELAY: Yield until WaitTime reaches zero
  2: 0x0301 [0x70] WAIT_ENTITY_RENDER_FLAG: Wait while EventEntity->Render.Flags3 bit 2 is set (cancel turn if not)
  3: 0x0302 [0x29] REQ_SET_WAIT(priority=0x0B, entity_id=Dauperiat (ID: 17723525/0x010E7085), tag_num=0x25)
  4: 0x0309 [0x24] CREATE_DIALOG(message_id=7241*, default_option=0*, option_flags=0*)
    → "Do the job? [Yes./No.]"
  5: 0x0310 [0x25] WAIT_DIALOG_SELECT()
  6: 0x0311 [0x02] IF !(Work_Zone[0] == 0*) GOTO 0x0329
  7: 0x0319 [0x42] SET_CLI_EVENT_CANCEL_DATA()
  8: 0x031A [0x03] Work_Zone[1] = 1*
  9: 0x031F [0x29] REQ_SET_WAIT(priority=0x0B, entity_id=Dauperiat (ID: 17723525/0x010E7085), tag_num=0x26)
 10: 0x0326 [0x01] GOTO 0x0339
 11: 0x0329 [0x02] IF !(Work_Zone[0] == 1*) GOTO 0x0339
 12: 0x0331 [0x03] Work_Zone[1] = 2*
 13: 0x0336 [0x01] GOTO 0x0339

SUBROUTINE_0339:
 14: 0x0339 [0x20] SET_CLI_EVENT_UC_FLAG: Unlock player control
 15: 0x033B [0x21] END_EVENT
 16: 0x033C [0x00] END_REQSTACK()
```

### Event 65535.28

#### Metadata

| Field        | Value   |
|--------------|---------|
| Entrypoint   | 0x033D  |
| Data Size    | 5 bytes |
| Instructions | 3       |

```
      00 01 02 03 04 05 06 07  08 09 0A 0B 0C 0D 0E 0F
      -- -- -- -- -- -- -- --  -- -- -- -- -- -- -- --
0330:                                         1D 1B 80               ...
0340: 23 00                                             #.              
```

#### Opcodes

```
  0: 0x033D [0x1D] PRINT_EVENT_MESSAGE(message_id=7240*)
    → "Heh-heh... Feel like doing a job for me again?"
  1: 0x0340 [0x23] WAIT_FOR_DIALOG_INTERACTION
  2: 0x0341 [0x00] END_REQSTACK()
```

### Event 65535.29

#### Metadata

| Field        | Value   |
|--------------|---------|
| Entrypoint   | 0x0342  |
| Data Size    | 5 bytes |
| Instructions | 3       |

```
      00 01 02 03 04 05 06 07  08 09 0A 0B 0C 0D 0E 0F
      -- -- -- -- -- -- -- --  -- -- -- -- -- -- -- --
0340:       1D 1C 80 23 00                                ...#.         
```

#### Opcodes

```
  0: 0x0342 [0x1D] PRINT_EVENT_MESSAGE(message_id=7242*)
    → "Excellent. I want you to do the same thing, then. Bring me the $1 from Ghelsba. Got it?"
  1: 0x0345 [0x23] WAIT_FOR_DIALOG_INTERACTION
  2: 0x0346 [0x00] END_REQSTACK()
```
