# 17723396 - Claidie

## Common Data

| Field            | Value                         |
|------------------|-------------------------------|
| Zone             | Northern San d'Oria (ID: 231) |
| Block Size       | 676 bytes                     |
| Total Events     | 26                            |
| References Count | 40                            |

## List of Events

| Event ID                   | Entrypoint   |   Size |   Instructions |
|----------------------------|--------------|--------|----------------|
| [65535](#event-65535)      | 0x0000       |      1 |              1 |
| [0](#event-0)              | 0x0001       |     13 |              3 |
| [65535.1](#event-655351)   | 0x000E       |     27 |              5 |
| [16](#event-16)            | 0x0029       |     13 |              3 |
| [1](#event-1)              | 0x0036       |     10 |              2 |
| [65535.2](#event-655352)   | 0x0040       |     11 |              3 |
| [65535.3](#event-655353)   | 0x004B       |     48 |              6 |
| [65535.4](#event-655354)   | 0x007B       |     10 |              2 |
| [65535.5](#event-655355)   | 0x0085       |     16 |              2 |
| [65535.6](#event-655356)   | 0x0095       |     21 |              5 |
| [65535.7](#event-655357)   | 0x00AA       |     29 |              3 |
| [65535.8](#event-655358)   | 0x00C7       |     13 |              3 |
| [65535.9](#event-655359)   | 0x00D4       |     11 |              3 |
| [65535.10](#event-6553510) | 0x00DF       |     20 |              6 |
| [65535.11](#event-6553511) | 0x00F3       |      6 |              2 |
| [65535.12](#event-6553512) | 0x00F9       |     25 |              7 |
| [65535.13](#event-6553513) | 0x0112       |      6 |              2 |
| [65535.14](#event-6553514) | 0x0118       |      6 |              2 |
| [65535.15](#event-6553515) | 0x011E       |      6 |              2 |
| [65535.16](#event-6553516) | 0x0124       |      6 |              2 |
| [65535.17](#event-6553517) | 0x012A       |      9 |              3 |
| [65535.18](#event-6553518) | 0x0133       |      9 |              3 |
| [65535.19](#event-6553519) | 0x013C       |      9 |              3 |
| [65535.20](#event-6553520) | 0x0145       |     22 |              6 |
| [65535.21](#event-6553521) | 0x015B       |     19 |              3 |
| [65535.22](#event-6553522) | 0x016E       |     29 |              3 |

## DAT References (imed_data)

|   Index | Hex Value   |   Dec Value |
|---------|-------------|-------------|
|       0 | 0xFFFFFC80  |  4294966400 |
|       1 | 0x2228C     |      139916 |
|       2 | 0xFFFFF6CD  |  4294964941 |
|       3 | 0x041C      |        1052 |
|       4 | 0x000A      |          10 |
|       5 | 0xFFFFFC21  |  4294966305 |
|       6 | 0x21532     |      136498 |
|       7 | 0x007D      |         125 |
|       8 | 0x1EF5D     |      126813 |
|       9 | 0x1CFF1     |      118769 |
|      10 | 0x0000      |           0 |
|      11 | 0x061F      |        1567 |
|      12 | 0x230FA     |      143610 |
|      13 | 0x2076E     |      132974 |
|      14 | 0x0653      |        1619 |
|      15 | 0x237A6     |      145318 |
|      16 | 0x2095E     |      133470 |
|      17 | 0x0DB1      |        3505 |
|      18 | 0x007F      |         127 |
|      19 | 0x003C      |          60 |
|      20 | 0x22AFC     |      142076 |
|      21 | 0x2171E     |      136990 |
|      22 | 0x0251      |         593 |
|      23 | 0x2221F     |      139807 |
|      24 | 0x207DB     |      133083 |
|      25 | 0x0254      |         596 |
|      26 | 0x1AEF9     |      110329 |
|      27 | 0x18FE8     |      102376 |
|      28 | 0x04B0      |        1200 |
|      29 | 0x18186     |       98694 |
|      30 | 0x162A4     |       90788 |
|      31 | 0x06D5      |        1749 |
|      32 | 0x060B      |        1547 |
|      33 | 0x0050      |          80 |
|      34 | 0x1787F     |       96383 |
|      35 | 0x159C6     |       88518 |
|      36 | 0xFFFFF060  |  4294963296 |
|      37 | 0xFFFFD9A6  |  4294957478 |
|      38 | 0xFFFFF711  |  4294965009 |
|      39 | 0xFFFFC03A  |  4294950970 |

## Events

### Event 65535

#### Metadata

| Field        | Value   |
|--------------|---------|
| Entrypoint   | 0x0000  |
| Data Size    | 1 bytes |
| Instructions | 1       |

```
      00 01 02 03 04 05 06 07  08 09 0A 0B 0C 0D 0E 0F
      -- -- -- -- -- -- -- --  -- -- -- -- -- -- -- --
0000: 00                                                .               
```

#### Opcodes

```
  0: 0x0000 [0x00] END_REQSTACK()
```

### Event 0

#### Metadata

| Field        | Value    |
|--------------|----------|
| Entrypoint   | 0x0001   |
| Data Size    | 13 bytes |
| Instructions | 3        |

```
      00 01 02 03 04 05 06 07  08 09 0A 0B 0C 0D 0E 0F
      -- -- -- -- -- -- -- --  -- -- -- -- -- -- -- --
0000:    37 00 80 01 80 02 80  03 80 32 04 80 00         7........2...  
```

#### Opcodes

```
  0: 0x0001 [0x37] UPDATE_EVENT_POSITION_AND_DIR: x=-0.896*, z=139.916*, y=-2.355*, direction=92.5°*
  1: 0x000A [0x32] ExtData[1]->MainSpeed = 10* * 0.1
  2: 0x000D [0x00] END_REQSTACK()
```

### Event 65535.1

#### Metadata

| Field        | Value    |
|--------------|----------|
| Entrypoint   | 0x000E   |
| Data Size    | 27 bytes |
| Instructions | 5        |

```
      00 01 02 03 04 05 06 07  08 09 0A 0B 0C 0D 0E 0F
      -- -- -- -- -- -- -- --  -- -- -- -- -- -- -- --
0000:                                            1F 00                ..
0010: 05 80 06 80 02 80 1F 01  6F 5B 07 80 04 70 0E 01  ........o[...p..
0020: 04 70 0E 01 70 72 79 30  00                       .p..pry0.       
```

#### Opcodes

```
  0: 0x000E [0x1F] MOVE_ENTITY: EventEntity moves to X=-0.991*, Z=136.498*, Y=-2.355*
  1: 0x0016 [0x1F] MOVE_ENTITY: Update entity position (mode=1)
  2: 0x0018 [0x6F] WAIT_FRAME_DELAY: Yield until WaitTime reaches zero
  3: 0x0019 [0x5B] LOAD_EXT_SCHEDULER: Load scheduler "pry0" with entities [Claidie (ID: 17723396/0x010E7004), Claidie (ID: 17723396/0x010E7004)], work=125*
  4: 0x0028 [0x00] END_REQSTACK()
```

### Event 16

#### Metadata

| Field        | Value    |
|--------------|----------|
| Entrypoint   | 0x0029   |
| Data Size    | 13 bytes |
| Instructions | 3        |

```
      00 01 02 03 04 05 06 07  08 09 0A 0B 0C 0D 0E 0F
      -- -- -- -- -- -- -- --  -- -- -- -- -- -- -- --
0020:                             37 08 80 09 80 0A 80           7......
0030: 0B 80 32 04 80 00                                 ..2...          
```

#### Opcodes

```
  0: 0x0029 [0x37] UPDATE_EVENT_POSITION_AND_DIR: x=126.813*, z=118.769*, y=0.000*, direction=137.7°*
  1: 0x0032 [0x32] ExtData[1]->MainSpeed = 10* * 0.1
  2: 0x0035 [0x00] END_REQSTACK()
```

### Event 1

#### Metadata

| Field        | Value    |
|--------------|----------|
| Entrypoint   | 0x0036   |
| Data Size    | 10 bytes |
| Instructions | 2        |

```
      00 01 02 03 04 05 06 07  08 09 0A 0B 0C 0D 0E 0F
      -- -- -- -- -- -- -- --  -- -- -- -- -- -- -- --
0030:                   37 0C  80 0D 80 0A 80 0E 80 00        7.........
```

#### Opcodes

```
  0: 0x0036 [0x37] UPDATE_EVENT_POSITION_AND_DIR: x=143.610*, z=132.974*, y=0.000*, direction=142.3°*
  1: 0x003F [0x00] END_REQSTACK()
```

### Event 65535.2

#### Metadata

| Field        | Value    |
|--------------|----------|
| Entrypoint   | 0x0040   |
| Data Size    | 11 bytes |
| Instructions | 3        |

```
      00 01 02 03 04 05 06 07  08 09 0A 0B 0C 0D 0E 0F
      -- -- -- -- -- -- -- --  -- -- -- -- -- -- -- --
0040: 37 0F 80 10 80 0A 80 11  80 84 00                 7..........     
```

#### Opcodes

```
  0: 0x0040 [0x37] UPDATE_EVENT_POSITION_AND_DIR: x=145.318*, z=133.470*, y=0.000*, direction=308.0°*
  1: 0x0049 [0x84] ADJUST_RENDER_FLAGS3_BIT0()
  2: 0x004A [0x00] END_REQSTACK()
```

### Event 65535.3

#### Metadata

| Field        | Value    |
|--------------|----------|
| Entrypoint   | 0x004B   |
| Data Size    | 48 bytes |
| Instructions | 6        |

```
      00 01 02 03 04 05 06 07  08 09 0A 0B 0C 0D 0E 0F
      -- -- -- -- -- -- -- --  -- -- -- -- -- -- -- --
0040:                                   7B F8 FF FF 7F             {....
0050: 5B 12 80 F8 FF FF 7F F8  FF FF 7F 68 6E 72 30 1C  [..........hnr0.
0060: 13 80 37 14 80 15 80 0A  80 16 80 5B 12 80 F8 FF  ..7........[....
0070: FF 7F F8 FF FF 7F 6D 62  73 30 00                 ......mbs0.     
```

#### Opcodes

```
  0: 0x004B [0x7B] EventEntity stops talking
  1: 0x0050 [0x5B] LOAD_EXT_SCHEDULER: Load scheduler "hnr0" with entities [EventEntity, EventEntity], work=127*
  2: 0x005F [0x1C] WAIT(60* ticks)
  3: 0x0062 [0x37] UPDATE_EVENT_POSITION_AND_DIR: x=142.076*, z=136.990*, y=0.000*, direction=52.1°*
  4: 0x006B [0x5B] LOAD_EXT_SCHEDULER: Load scheduler "mbs0" with entities [EventEntity, EventEntity], work=127*
  5: 0x007A [0x00] END_REQSTACK()
```

### Event 65535.4

#### Metadata

| Field        | Value    |
|--------------|----------|
| Entrypoint   | 0x007B   |
| Data Size    | 10 bytes |
| Instructions | 2        |

```
      00 01 02 03 04 05 06 07  08 09 0A 0B 0C 0D 0E 0F
      -- -- -- -- -- -- -- --  -- -- -- -- -- -- -- --
0070:                                   37 14 80 15 80             7....
0080: 0A 80 16 80 00                                    .....           
```

#### Opcodes

```
  0: 0x007B [0x37] UPDATE_EVENT_POSITION_AND_DIR: x=142.076*, z=136.990*, y=0.000*, direction=52.1°*
  1: 0x0084 [0x00] END_REQSTACK()
```

### Event 65535.5

#### Metadata

| Field        | Value    |
|--------------|----------|
| Entrypoint   | 0x0085   |
| Data Size    | 16 bytes |
| Instructions | 2        |

```
      00 01 02 03 04 05 06 07  08 09 0A 0B 0C 0D 0E 0F
      -- -- -- -- -- -- -- --  -- -- -- -- -- -- -- --
0080:                5B 12 80  F8 FF FF 7F F8 FF FF 7F       [..........
0090: 6E 67 72 30 00                                    ngr0.           
```

#### Opcodes

```
  0: 0x0085 [0x5B] LOAD_EXT_SCHEDULER: Load scheduler "ngr0" with entities [EventEntity, EventEntity], work=127*
  1: 0x0094 [0x00] END_REQSTACK()
```

### Event 65535.6

#### Metadata

| Field        | Value    |
|--------------|----------|
| Entrypoint   | 0x0095   |
| Data Size    | 21 bytes |
| Instructions | 5        |

```
      00 01 02 03 04 05 06 07  08 09 0A 0B 0C 0D 0E 0F
      -- -- -- -- -- -- -- --  -- -- -- -- -- -- -- --
0090:                84 37 17  80 18 80 0A 80 19 80 5E       .7........^
00A0: 69 64 6C 30 80 F8 FF FF  7F 00                    idl0......      
```

#### Opcodes

```
  0: 0x0095 [0x84] ADJUST_RENDER_FLAGS3_BIT0()
  1: 0x0096 [0x37] UPDATE_EVENT_POSITION_AND_DIR: x=139.807*, z=133.083*, y=0.000*, direction=52.4°*
  2: 0x009F [0x5E] EventEntity goes idle (kills current action) (animation: "idl0")
  3: 0x00A4 [0x80] LOAD_WAIT(entity=EventEntity)
  4: 0x00A9 [0x00] END_REQSTACK()
```

### Event 65535.7

#### Metadata

| Field        | Value    |
|--------------|----------|
| Entrypoint   | 0x00AA   |
| Data Size    | 29 bytes |
| Instructions | 3        |

```
      00 01 02 03 04 05 06 07  08 09 0A 0B 0C 0D 0E 0F
      -- -- -- -- -- -- -- --  -- -- -- -- -- -- -- --
00A0:                                5B 12 80 F8 FF FF            [.....
00B0: 7F F8 FF FF 7F 6B 6E 62  30 53 F8 FF FF 7F F8 FF  .....knb0S......
00C0: FF 7F 6B 6E 62 30 00                              ..knb0.         
```

#### Opcodes

```
  0: 0x00AA [0x5B] LOAD_EXT_SCHEDULER: Load scheduler "knb0" with entities [EventEntity, EventEntity], work=127*
  1: 0x00B9 [0x53] WAIT_SCHEDULER_TASK: Wait for scheduler "knb0" with entities [EventEntity, EventEntity]
  2: 0x00C6 [0x00] END_REQSTACK()
```

### Event 65535.8

#### Metadata

| Field        | Value    |
|--------------|----------|
| Entrypoint   | 0x00C7   |
| Data Size    | 13 bytes |
| Instructions | 3        |

```
      00 01 02 03 04 05 06 07  08 09 0A 0B 0C 0D 0E 0F
      -- -- -- -- -- -- -- --  -- -- -- -- -- -- -- --
00C0:                      31  00 1A 80 1B 80 0A 80 1C         1........
00D0: 80 31 01 00                                       .1..            
```

#### Opcodes

```
  0: 0x00C7 [0x31] UPDATE_ENTITY_POSITION: Set EventEntity goal position to X=110.329*, Z=102.376*, Y=0.000*, Time=1200*
  1: 0x00D1 [0x31] UPDATE_ENTITY_POSITION: Move EventEntity towards goal position
  2: 0x00D3 [0x00] END_REQSTACK()
```

### Event 65535.9

#### Metadata

| Field        | Value    |
|--------------|----------|
| Entrypoint   | 0x00D4   |
| Data Size    | 11 bytes |
| Instructions | 3        |

```
      00 01 02 03 04 05 06 07  08 09 0A 0B 0C 0D 0E 0F
      -- -- -- -- -- -- -- --  -- -- -- -- -- -- -- --
00D0:             37 1D 80 1E  80 1F 80 20 80 84 00         7...... ... 
```

#### Opcodes

```
  0: 0x00D4 [0x37] UPDATE_EVENT_POSITION_AND_DIR: x=98.694*, z=90.788*, y=1.749*, direction=136.0°*
  1: 0x00DD [0x84] ADJUST_RENDER_FLAGS3_BIT0()
  2: 0x00DE [0x00] END_REQSTACK()
```

### Event 65535.10

#### Metadata

| Field        | Value    |
|--------------|----------|
| Entrypoint   | 0x00DF   |
| Data Size    | 20 bytes |
| Instructions | 6        |

```
      00 01 02 03 04 05 06 07  08 09 0A 0B 0C 0D 0E 0F
      -- -- -- -- -- -- -- --  -- -- -- -- -- -- -- --
00D0:                                               1C                 .
00E0: 21 80 1F 00 22 80 23 80  1F 80 1F 01 6F 1E C5 70  !...".#.....o..p
00F0: 0E 01 00                                          ...             
```

#### Opcodes

```
  0: 0x00DF [0x1C] WAIT(80* ticks)
  1: 0x00E2 [0x1F] MOVE_ENTITY: EventEntity moves to X=96.383*, Z=88.518*, Y=1.749*
  2: 0x00EA [0x1F] MOVE_ENTITY: Update entity position (mode=1)
  3: 0x00EC [0x6F] WAIT_FRAME_DELAY: Yield until WaitTime reaches zero
  4: 0x00ED [0x1E] EventEntity looks at Rochefogne (ID: 17723589/0x010E70C5) and starts talking
  5: 0x00F2 [0x00] END_REQSTACK()
```

### Event 65535.11

#### Metadata

| Field        | Value   |
|--------------|---------|
| Entrypoint   | 0x00F3  |
| Data Size    | 6 bytes |
| Instructions | 2       |

```
      00 01 02 03 04 05 06 07  08 09 0A 0B 0C 0D 0E 0F
      -- -- -- -- -- -- -- --  -- -- -- -- -- -- -- --
00F0:          5E 69 64 6C 30  00                          ^idl0.       
```

#### Opcodes

```
  0: 0x00F3 [0x5E] EventEntity goes idle (kills current action) (animation: "idl0")
  1: 0x00F8 [0x00] END_REQSTACK()
```

### Event 65535.12

#### Metadata

| Field        | Value    |
|--------------|----------|
| Entrypoint   | 0x00F9   |
| Data Size    | 25 bytes |
| Instructions | 7        |

```
      00 01 02 03 04 05 06 07  08 09 0A 0B 0C 0D 0E 0F
      -- -- -- -- -- -- -- --  -- -- -- -- -- -- -- --
00F0:                             2F 00 04 70 0E 01 22           /..p.."
0100: 00 32 04 80 1C 13 80 1F  00 24 80 25 80 0A 80 1F  .2.......$.%....
0110: 01 00                                             ..              
```

#### Opcodes

```
  0: 0x00F9 [0x2F] Claidie (ID: 17723396/0x010E7004)->Render.Flags0 &= ~0x80000 // Bit 19
  1: 0x00FF [0x22] ENTITY_HIDE_FLAG(enabled=0x00)
  2: 0x0101 [0x32] ExtData[1]->MainSpeed = 10* * 0.1
  3: 0x0104 [0x1C] WAIT(60* ticks)
  4: 0x0107 [0x1F] MOVE_ENTITY: EventEntity moves to X=-4.000*, Z=-9.818*, Y=0.000*
  5: 0x010F [0x1F] MOVE_ENTITY: Update entity position (mode=1)
  6: 0x0111 [0x00] END_REQSTACK()
```

### Event 65535.13

#### Metadata

| Field        | Value   |
|--------------|---------|
| Entrypoint   | 0x0112  |
| Data Size    | 6 bytes |
| Instructions | 2       |

```
      00 01 02 03 04 05 06 07  08 09 0A 0B 0C 0D 0E 0F
      -- -- -- -- -- -- -- --  -- -- -- -- -- -- -- --
0110:       1E 01 70 0E 01 00                             ..p...        
```

#### Opcodes

```
  0: 0x0112 [0x1E] EventEntity looks at Nonterene (ID: 17723393/0x010E7001) and starts talking
  1: 0x0117 [0x00] END_REQSTACK()
```

### Event 65535.14

#### Metadata

| Field        | Value   |
|--------------|---------|
| Entrypoint   | 0x0118  |
| Data Size    | 6 bytes |
| Instructions | 2       |

```
      00 01 02 03 04 05 06 07  08 09 0A 0B 0C 0D 0E 0F
      -- -- -- -- -- -- -- --  -- -- -- -- -- -- -- --
0110:                          1E F0 FF FF 7F 00                ......  
```

#### Opcodes

```
  0: 0x0118 [0x1E] EventEntity looks at LocalPlayer and starts talking
  1: 0x011D [0x00] END_REQSTACK()
```

### Event 65535.15

#### Metadata

| Field        | Value   |
|--------------|---------|
| Entrypoint   | 0x011E  |
| Data Size    | 6 bytes |
| Instructions | 2       |

```
      00 01 02 03 04 05 06 07  08 09 0A 0B 0C 0D 0E 0F
      -- -- -- -- -- -- -- --  -- -- -- -- -- -- -- --
0110:                                            1E 02                ..
0120: 70 0E 01 00                                       p...            
```

#### Opcodes

```
  0: 0x011E [0x1E] EventEntity looks at Trion (ID: 17723394/0x010E7002) and starts talking
  1: 0x0123 [0x00] END_REQSTACK()
```

### Event 65535.16

#### Metadata

| Field        | Value   |
|--------------|---------|
| Entrypoint   | 0x0124  |
| Data Size    | 6 bytes |
| Instructions | 2       |

```
      00 01 02 03 04 05 06 07  08 09 0A 0B 0C 0D 0E 0F
      -- -- -- -- -- -- -- --  -- -- -- -- -- -- -- --
0120:             1E 03 70 0E  01 00                        ..p...      
```

#### Opcodes

```
  0: 0x0124 [0x1E] EventEntity looks at Pieuje (ID: 17723395/0x010E7003) and starts talking
  1: 0x0129 [0x00] END_REQSTACK()
```

### Event 65535.17

#### Metadata

| Field        | Value   |
|--------------|---------|
| Entrypoint   | 0x012A  |
| Data Size    | 9 bytes |
| Instructions | 3       |

```
      00 01 02 03 04 05 06 07  08 09 0A 0B 0C 0D 0E 0F
      -- -- -- -- -- -- -- --  -- -- -- -- -- -- -- --
0120:                                1C 13 80 1E F0 FF            ......
0130: FF 7F 00                                          ...             
```

#### Opcodes

```
  0: 0x012A [0x1C] WAIT(60* ticks)
  1: 0x012D [0x1E] EventEntity looks at LocalPlayer and starts talking
  2: 0x0132 [0x00] END_REQSTACK()
```

### Event 65535.18

#### Metadata

| Field        | Value   |
|--------------|---------|
| Entrypoint   | 0x0133  |
| Data Size    | 9 bytes |
| Instructions | 3       |

```
      00 01 02 03 04 05 06 07  08 09 0A 0B 0C 0D 0E 0F
      -- -- -- -- -- -- -- --  -- -- -- -- -- -- -- --
0130:          1C 13 80 1E 02  70 0E 01 00                 .....p...    
```

#### Opcodes

```
  0: 0x0133 [0x1C] WAIT(60* ticks)
  1: 0x0136 [0x1E] EventEntity looks at Trion (ID: 17723394/0x010E7002) and starts talking
  2: 0x013B [0x00] END_REQSTACK()
```

### Event 65535.19

#### Metadata

| Field        | Value   |
|--------------|---------|
| Entrypoint   | 0x013C  |
| Data Size    | 9 bytes |
| Instructions | 3       |

```
      00 01 02 03 04 05 06 07  08 09 0A 0B 0C 0D 0E 0F
      -- -- -- -- -- -- -- --  -- -- -- -- -- -- -- --
0130:                                      1C 13 80 1E              ....
0140: 03 70 0E 01 00                                    .p...           
```

#### Opcodes

```
  0: 0x013C [0x1C] WAIT(60* ticks)
  1: 0x013F [0x1E] EventEntity looks at Pieuje (ID: 17723395/0x010E7003) and starts talking
  2: 0x0144 [0x00] END_REQSTACK()
```

### Event 65535.20

#### Metadata

| Field        | Value    |
|--------------|----------|
| Entrypoint   | 0x0145   |
| Data Size    | 22 bytes |
| Instructions | 6        |

```
      00 01 02 03 04 05 06 07  08 09 0A 0B 0C 0D 0E 0F
      -- -- -- -- -- -- -- --  -- -- -- -- -- -- -- --
0140:                32 04 80  1F 00 26 80 27 80 0A 80       2....&.'...
0150: 1F 01 2F 01 04 70 0E 01  22 01 00                 ../..p.."..     
```

#### Opcodes

```
  0: 0x0145 [0x32] ExtData[1]->MainSpeed = 10* * 0.1
  1: 0x0148 [0x1F] MOVE_ENTITY: EventEntity moves to X=-2.287*, Z=-16.326*, Y=0.000*
  2: 0x0150 [0x1F] MOVE_ENTITY: Update entity position (mode=1)
  3: 0x0152 [0x2F] Claidie (ID: 17723396/0x010E7004)->Render.Flags0 |= 0x80000 // Bit 19
  4: 0x0158 [0x22] ENTITY_HIDE_FLAG(enabled=0x01)
  5: 0x015A [0x00] END_REQSTACK()
```

### Event 65535.21

#### Metadata

| Field        | Value    |
|--------------|----------|
| Entrypoint   | 0x015B   |
| Data Size    | 19 bytes |
| Instructions | 3        |

```
      00 01 02 03 04 05 06 07  08 09 0A 0B 0C 0D 0E 0F
      -- -- -- -- -- -- -- --  -- -- -- -- -- -- -- --
0150:                                   5B 07 80 04 70             [...p
0160: 0E 01 04 70 0E 01 70 72  79 30 1C 13 80 00        ...p..pry0....  
```

#### Opcodes

```
  0: 0x015B [0x5B] LOAD_EXT_SCHEDULER: Load scheduler "pry0" with entities [Claidie (ID: 17723396/0x010E7004), Claidie (ID: 17723396/0x010E7004)], work=125*
  1: 0x016A [0x1C] WAIT(60* ticks)
  2: 0x016D [0x00] END_REQSTACK()
```

### Event 65535.22

#### Metadata

| Field        | Value    |
|--------------|----------|
| Entrypoint   | 0x016E   |
| Data Size    | 29 bytes |
| Instructions | 3        |

```
      00 01 02 03 04 05 06 07  08 09 0A 0B 0C 0D 0E 0F
      -- -- -- -- -- -- -- --  -- -- -- -- -- -- -- --
0160:                                            5B 07                [.
0170: 80 04 70 0E 01 04 70 0E  01 70 72 79 31 53 04 70  ..p...p..pry1S.p
0180: 0E 01 04 70 0E 01 70 72  79 31 00                 ...p..pry1.     
```

#### Opcodes

```
  0: 0x016E [0x5B] LOAD_EXT_SCHEDULER: Load scheduler "pry1" with entities [Claidie (ID: 17723396/0x010E7004), Claidie (ID: 17723396/0x010E7004)], work=125*
  1: 0x017D [0x53] WAIT_SCHEDULER_TASK: Wait for scheduler "pry1" with entities [Claidie (ID: 17723396/0x010E7004), Claidie (ID: 17723396/0x010E7004)]
  2: 0x018A [0x00] END_REQSTACK()
```
