# 17723654

## Common Data

| Field            | Value                         |
|------------------|-------------------------------|
| Zone             | Northern San d'Oria (ID: 231) |
| Block Size       | 1488 bytes                    |
| Total Events     | 4                             |
| References Count | 35                            |

## List of Events

| Event ID              | Entrypoint   |   Size |   Instructions |
|-----------------------|--------------|--------|----------------|
| [65535](#event-65535) | 0x0000       |      1 |              1 |
| [810](#event-810)     | 0x0001       |   1313 |            175 |
| [869](#event-869)     | 0x0522       |      1 |              1 |
| [870](#event-870)     | 0x0523       |      1 |              1 |

## DAT References (imed_data)

|   Index | Hex Value   |   Dec Value |
|---------|-------------|-------------|
|       0 | 0x0311      |         785 |
|       1 | 0x393B      |       14651 |
|       2 | 0x0000      |           0 |
|       3 | 0x0001      |           1 |
|       4 | 0x393C      |       14652 |
|       5 | 0x0013      |          19 |
|       6 | 0x000F      |          15 |
|       7 | 0x00A3      |         163 |
|       8 | 0x001E      |          30 |
|       9 | 0x0058      |          88 |
|      10 | 0x393D      |       14653 |
|      11 | 0x393E      |       14654 |
|      12 | 0x393F      |       14655 |
|      13 | 0x003C      |          60 |
|      14 | 0x3940      |       14656 |
|      15 | 0x3942      |       14658 |
|      16 | 0x3943      |       14659 |
|      17 | 0x3944      |       14660 |
|      18 | 0x0002      |           2 |
|      19 | 0x3945      |       14661 |
|      20 | 0x3946      |       14662 |
|      21 | 0x0014      |          20 |
|      22 | 0x3947      |       14663 |
|      23 | 0x3948      |       14664 |
|      24 | 0x3949      |       14665 |
|      25 | 0x0258      |         600 |
|      26 | 0x394A      |       14666 |
|      27 | 0x394B      |       14667 |
|      28 | 0x0028      |          40 |
|      29 | 0x0078      |         120 |
|      30 | 0x006B      |         107 |
|      31 | 0x00C8      |         200 |
|      32 | 0x00C9      |         201 |
|      33 | 0x002D      |          45 |
|      34 | 0x00D7      |         215 |

## String References

- **14651**: Present $3? [Yes./No.]
- **14658**: Who is it from? [Prince Trion./Sage Raillefal./The mercenary Raillefal.]

## Events

### Event 65535

#### Metadata

| Field        | Value   |
|--------------|---------|
| Entrypoint   | 0x0000  |
| Data Size    | 1 bytes |
| Instructions | 1       |

```
      00 01 02 03 04 05 06 07  08 09 0A 0B 0C 0D 0E 0F
      -- -- -- -- -- -- -- --  -- -- -- -- -- -- -- --
0000: 00                                                .               
```

#### Opcodes

```
  0: 0x0000 [0x00] END_REQSTACK()
```

### Event 810

#### Metadata

| Field        | Value      |
|--------------|------------|
| Entrypoint   | 0x0001     |
| Data Size    | 1313 bytes |
| Instructions | 119        |

```
      00 01 02 03 04 05 06 07  08 09 0A 0B 0C 0D 0E 0F
      -- -- -- -- -- -- -- --  -- -- -- -- -- -- -- --
0000:    03 01 00 08 10 4A F0  FF FF 7F 05 70 0E 01 6F   .....J.....p..o
0010: 76 F0 FF FF 7F 03 02 10  00 80 24 01 80 02 80 02  v.........$.....
0020: 80 25 02 00 10 03 80 00  38 00 2B 05 70 0E 01 04  .%......8.+.p...
0030: 80 23 01 7E 02 01 38 00  42 1A F4 02 46 01 38 05  .#.~..8.B...F.8.
0040: 80 92 01 05 70 0E 01 92  01 06 70 0E 01 94 01 F0  ....p.....p.....
0050: FF FF 7F 94 01 05 70 0E  01 94 01 06 70 0E 01 29  ......p.....p..)
0060: 10 06 70 0E 01 07 29 10  F0 FF FF 7F 80 29 10 05  ..p...)......)..
0070: 70 0E 01 05 4A 05 70 0E  01 F0 FF FF 7F 80 F0 FF  p...J.p.........
0080: FF 7F 80 05 70 0E 01 80  06 70 0E 01 1C 06 80 5C  ....p....p.....\
0090: 00 07 80 5C 01 07 80 9A  1C 08 80 1C 06 80 45 09  ...\..........E.
00A0: 80 F0 FF FF 7F F0 FF FF  7F 79 30 30 30 02 80 27  .........y000..'
00B0: 10 06 70 0E 01 08 1A D3  02 2B 05 70 0E 01 0A 80  ..p......+.p....
00C0: 23 2B 05 70 0E 01 0B 80  23 2A 10 06 70 0E 01 52  #+.p....#*..p..R
00D0: 09 80 F0 FF FF 7F F0 FF  FF 7F 79 30 30 30 45 09  ..........y000E.
00E0: 80 F0 FF FF 7F F0 FF FF  7F 79 30 30 31 02 80 79  .........y001..y
00F0: 00 06 70 0E 01 05 70 0E  01 2B 06 70 0E 01 0C 80  ..p...p..+.p....
0100: 1C 0D 80 23 52 09 80 F0  FF FF 7F F0 FF FF 7F 79  ...#R..........y
0110: 30 30 31 45 09 80 F0 FF  FF 7F F0 FF FF 7F 79 30  001E..........y0
0120: 30 32 02 80 4A 06 70 0E  01 F0 FF FF 7F 2B 06 70  02..J.p......+.p
0130: 0E 01 0E 80 23 79 00 F0  FF FF 7F 06 70 0E 01 24  ....#y......p..$
0140: 0F 80 02 80 02 80 25 45  09 80 F0 FF FF 7F F0 FF  ......%E........
0150: FF 7F 79 30 30 33 02 80  02 00 10 02 80 00 6B 01  ..y003........k.
0160: 2B 06 70 0E 01 10 80 23  01 91 01 02 00 10 03 80  +.p....#........
0170: 00 7E 01 2B 06 70 0E 01  11 80 23 01 91 01 02 00  .~.+.p....#.....
0180: 10 12 80 00 91 01 2B 06  70 0E 01 13 80 23 01 91  ......+.p....#..
0190: 01 03 02 10 00 00 2B 06  70 0E 01 14 80 23 52 09  ......+.p....#R.
01A0: 80 F0 FF FF 7F F0 FF FF  7F 79 30 30 33 45 09 80  .........y003E..
01B0: F0 FF FF 7F F0 FF FF 7F  79 30 30 34 02 80 66 15  ........y004..f.
01C0: 80 05 70 0E 01 05 70 0E  01 74 6C 6B 31 79 00 F0  ..p...p..tlk1y..
01D0: FF FF 7F 05 70 0E 01 2B  05 70 0E 01 16 80 23 2B  ....p..+.p....#+
01E0: 05 70 0E 01 17 80 23 5E  69 64 6C 30 1C 0D 80 2B  .p....#^idl0...+
01F0: 05 70 0E 01 18 80 23 5D  02 80 19 80 27 10 05 70  .p....#]....'..p
0200: 0E 01 04 1C 0D 80 4A 06  70 0E 01 05 70 0E 01 2A  ......J.p...p..*
0210: 10 05 70 0E 01 4A 06 70  0E 01 05 70 0E 01 45 09  ..p..J.p...p..E.
0220: 80 F0 FF FF 7F F0 FF FF  7F 79 30 30 35 02 80 2B  .........y005..+
0230: 05 70 0E 01 1A 80 23 2B  05 70 0E 01 1B 80 23 27  .p....#+.p....#'
0240: 10 05 70 0E 01 04 1C 1C  80 27 03 F0 FF FF 7F 81  ..p......'......
0250: 1C 1D 80 27 10 06 70 0E  01 09 03 01 10 03 80 1A  ...'..p.........
0260: F4 02 1C 08 80 02 01 00  02 80 01 73 02 30 46 00  ...........s.0F.
0270: 01 7E 02 5C 00 1E 80 5C  01 1E 80 9A 46 00 45 1F  .~.\...\....F.E.
0280: 80 F0 FF FF 7F F0 FF FF  7F 66 64 69 32 02 80 21  .........fdi2..!
0290: 00 45 1F 80 F0 FF FF 7F  F0 FF FF 7F 66 64 69 30  .E..........fdi0
02A0: 02 80 55 1F 80 F0 FF FF  7F F0 FF FF 7F 66 64 69  ..U..........fdi
02B0: 30 1B 45 1F 80 F0 FF FF  7F F0 FF FF 7F 66 64 6F  0.E..........fdo
02C0: 30 02 80 55 1F 80 F0 FF  FF 7F F0 FF FF 7F 66 64  0..U..........fd
02D0: 6F 30 1B 45 1F 80 F0 FF  FF 7F F0 FF FF 7F 66 64  o0.E..........fd
02E0: 69 31 02 80 55 1F 80 F0  FF FF 7F F0 FF FF 7F 66  i1..U..........f
02F0: 64 69 31 1B 45 1F 80 F0  FF FF 7F F0 FF FF 7F 66  di1.E..........f
0300: 64 6F 31 02 80 55 1F 80  F0 FF FF 7F F0 FF FF 7F  do1..U..........
0310: 66 64 6F 31 1B 45 20 80  F0 FF FF 7F F0 FF FF 7F  fdo1.E .........
0320: 77 68 69 31 02 80 55 20  80 F0 FF FF 7F F0 FF FF  whi1..U ........
0330: 7F 77 68 69 31 1B 45 20  80 F0 FF FF 7F F0 FF FF  .whi1.E ........
0340: 7F 77 68 6F 31 02 80 55  20 80 F0 FF FF 7F F0 FF  .who1..U .......
0350: FF 7F 77 68 6F 31 1B 45  20 80 F0 FF FF 7F F0 FF  ..who1.E .......
0360: FF 7F 77 68 6F 32 02 80  55 20 80 F0 FF FF 7F F0  ..who2..U ......
0370: FF FF 7F 77 68 6F 32 1B  45 20 80 F0 FF FF 7F F0  ...who2.E ......
0380: FF FF 7F 77 68 6F 33 02  80 55 20 80 F0 FF FF 7F  ...who3..U .....
0390: F0 FF FF 7F 77 68 6F 33  1B 62 03 80 F0 FF FF 7F  ....who3.b......
03A0: F0 FF FF 7F 6D 61 69 6E  02 80 1C 21 80 45 1F 80  ....main...!.E..
03B0: F0 FF FF 7F F0 FF FF 7F  66 64 6F 31 02 80 55 1F  ........fdo1..U.
03C0: 80 F0 FF FF 7F F0 FF FF  7F 66 64 6F 31 1B 45 1F  .........fdo1.E.
03D0: 80 F0 FF FF 7F F0 FF FF  7F 66 64 69 31 02 80 62  .........fdi1..b
03E0: 12 80 F0 FF FF 7F F0 FF  FF 7F 6D 61 69 6E 02 80  ..........main..
03F0: 1C 08 80 55 1F 80 F0 FF  FF 7F F0 FF FF 7F 66 64  ...U..........fd
0400: 69 31 1B 45 1F 80 F0 FF  FF 7F F0 FF FF 7F 62 6C  i1.E..........bl
0410: 6F 6E 02 80 45 20 80 F0  FF FF 7F F0 FF FF 7F 62  on..E .........b
0420: 6C 6F 6E 02 80 1B 45 20  80 F0 FF FF 7F F0 FF FF  lon...E ........
0430: 7F 77 68 69 30 02 80 55  20 80 F0 FF FF 7F F0 FF  .whi0..U .......
0440: FF 7F 77 68 69 30 1B 45  20 80 F0 FF FF 7F F0 FF  ..whi0.E .......
0450: FF 7F 77 68 6F 30 02 80  55 20 80 F0 FF FF 7F F0  ..who0..U ......
0460: FF FF 7F 77 68 6F 30 1B  45 22 80 F0 FF FF 7F F0  ...who0.E"......
0470: FF FF 7F 65 66 6F 6E 02  80 55 22 80 F0 FF FF 7F  ...efon..U".....
0480: F0 FF FF 7F 65 66 6F 6E  1B 45 1F 80 F0 FF FF 7F  ....efon.E......
0490: F0 FF FF 7F 66 64 69 73  02 80 1B 45 1F 80 F0 FF  ....fdis...E....
04A0: FF 7F F0 FF FF 7F 66 64  6F 73 02 80 55 1F 80 F0  ......fdos..U...
04B0: FF FF 7F F0 FF FF 7F 66  64 6F 73 1B 45 1F 80 F0  .......fdos.E...
04C0: FF FF 7F F0 FF FF 7F 66  64 69 66 02 80 1B 45 1F  .......fdif...E.
04D0: 80 F0 FF FF 7F F0 FF FF  7F 66 64 6F 66 02 80 55  .........fdof..U
04E0: 1F 80 F0 FF FF 7F F0 FF  FF 7F 66 64 6F 66 1B 45  ..........fdof.E
04F0: 1F 80 F0 FF FF 7F F0 FF  FF 7F 66 64 69 70 02 80  ..........fdip..
0500: 1B 45 1F 80 F0 FF FF 7F  F0 FF FF 7F 66 64 6F 70  .E..........fdop
0510: 02 80 55 1F 80 F0 FF FF  7F F0 FF FF 7F 66 64 6F  ..U..........fdo
0520: 70 1B                                             p.              
```

#### Opcodes

```
  0: 0x0001 [0x03] ExtData[1]->WorkLocal[1] = Work_Zone[8]
  1: 0x0006 [0x4A] LocalPlayer looks at Guilerme (ID: 17723397/0x010E7005)
  2: 0x000F [0x6F] WAIT_FRAME_DELAY: Yield until WaitTime reaches zero
  3: 0x0010 [0x76] CHECK_ENTITY_RENDER_FLAGS: Wait until LocalPlayer Render.Flags0 and Render.Flags3 conditions are met
  4: 0x0015 [0x03] Work_Zone[2] = 785*
  5: 0x001A [0x24] CREATE_DIALOG(message_id=14651*, default_option=0*, option_flags=0*)
    → "Present $3? [Yes./No.]"
  6: 0x0021 [0x25] WAIT_DIALOG_SELECT()
  7: 0x0022 [0x02] IF !(Work_Zone[0] == 1*) GOTO 0x0038
  8: 0x002A [0x2B] Guilerme (ID: 17723397/0x010E7005) [14652*]:
    → "You stand before Chateau d'Oraguille. If you've no business here, begone!"
  9: 0x0031 [0x23] WAIT_FOR_DIALOG_INTERACTION
 10: 0x0032 [0x01] GOTO 0x027E

SUBROUTINE_0038:
 11: 0x0038 [0x42] SET_CLI_EVENT_CANCEL_DATA()
 12: 0x0039 [0x1A] CALL_SUBROUTINE(address=0x02F4)
 13: 0x003C [0x46] CAMERA_CONTROL: Disable user control
 14: 0x003E [0x38] SET_CLIENT_EVENT_MODE(mode=19*)
 15: 0x0041 [0x92] Guilerme (ID: 17723397/0x010E7005)->Render.Flags3 ^= 0x01
 16: 0x0047 [0x92] Bacherume (ID: 17723398/0x010E7006)->Render.Flags3 ^= 0x01
 17: 0x004D [0x94] LocalPlayer->Render.Flags3 ^= 0x01
 18: 0x0053 [0x94] Guilerme (ID: 17723397/0x010E7005)->Render.Flags3 ^= 0x01
 19: 0x0059 [0x94] Bacherume (ID: 17723398/0x010E7006)->Render.Flags3 ^= 0x01
 20: 0x005F [0x29] REQ_SET_WAIT(priority=0x10, entity_id=Bacherume (ID: 17723398/0x010E7006), tag_num=0x07)
 21: 0x0066 [0x29] REQ_SET_WAIT(priority=0x10, entity_id=LocalPlayer, tag_num=0x80)
 22: 0x006D [0x29] REQ_SET_WAIT(priority=0x10, entity_id=Guilerme (ID: 17723397/0x010E7005), tag_num=0x05)
 23: 0x0074 [0x4A] Guilerme (ID: 17723397/0x010E7005) looks at LocalPlayer
 24: 0x007D [0x80] LOAD_WAIT(entity=LocalPlayer)
 25: 0x0082 [0x80] LOAD_WAIT(entity=Guilerme (ID: 17723397/0x010E7005))
 26: 0x0087 [0x80] LOAD_WAIT(entity=Bacherume (ID: 17723398/0x010E7006))
 27: 0x008C [0x1C] WAIT(15* ticks)
 28: 0x008F [0x5C] MUSIC_CONTROL: Set Idle (Day) music to song 163*
 29: 0x0093 [0x5C] MUSIC_CONTROL: Set Idle (Night) music to song 163*
 30: 0x0097 [0x9A] WAIT_MUSIC_SERVER()
 31: 0x0098 [0x1C] WAIT(30* ticks)
 32: 0x009B [0x1C] WAIT(15* ticks)
 33: 0x009E [0x45] LOAD_SCHEDULED_TASK: Load scheduler "y000" with entities [LocalPlayer, LocalPlayer], work=[88*, 0*]
 34: 0x00AF [0x27] REQ_SET(priority=0x10, entity_id=Bacherume (ID: 17723398/0x010E7006), tag_num=0x08)
 35: 0x00B6 [0x1A] CALL_SUBROUTINE(address=0x02D3)
 36: 0x00B9 [0x2B] Guilerme (ID: 17723397/0x010E7005) [14653*]:
    → "A letter for Monarlais Halver?"
 37: 0x00C0 [0x23] WAIT_FOR_DIALOG_INTERACTION
 38: 0x00C1 [0x2B] Guilerme (ID: 17723397/0x010E7005) [14654*]:
    → "The penmanship is atrocious... I cannot make out the addressee."
 39: 0x00C8 [0x23] WAIT_FOR_DIALOG_INTERACTION
 40: 0x00C9 [0x2A] GET_REQ_LEVEL(level=16, entity_id=Bacherume (ID: 17723398/0x010E7006))
 41: 0x00CF [0x52] END_LOAD_SCHEDULER: End scheduler "y000" with entities [LocalPlayer, LocalPlayer], work=88*
 42: 0x00DE [0x45] LOAD_SCHEDULED_TASK: Load scheduler "y001" with entities [LocalPlayer, LocalPlayer], work=[88*, 0*]
 43: 0x00EF [0x79] Bacherume (ID: 17723398/0x010E7006) looks at Guilerme (ID: 17723397/0x010E7005) (Basic look)
 44: 0x00F9 [0x2B] Bacherume (ID: 17723398/0x010E7006) [14655*]:
    → "Let me see that."
 45: 0x0100 [0x1C] WAIT(60* ticks)
 46: 0x0103 [0x23] WAIT_FOR_DIALOG_INTERACTION
 47: 0x0104 [0x52] END_LOAD_SCHEDULER: End scheduler "y001" with entities [LocalPlayer, LocalPlayer], work=88*
 48: 0x0113 [0x45] LOAD_SCHEDULED_TASK: Load scheduler "y002" with entities [LocalPlayer, LocalPlayer], work=[88*, 0*]
 49: 0x0124 [0x4A] Bacherume (ID: 17723398/0x010E7006) looks at LocalPlayer
 50: 0x012D [0x2B] Bacherume (ID: 17723398/0x010E7006) [14656*]:
    → "The sender is..."
 51: 0x0134 [0x23] WAIT_FOR_DIALOG_INTERACTION
 52: 0x0135 [0x79] LocalPlayer looks at Bacherume (ID: 17723398/0x010E7006) (Basic look)
 53: 0x013F [0x24] CREATE_DIALOG(message_id=14658*, default_option=0*, option_flags=0*)
    → "Who is it from? [Prince Trion./Sage Raillefal./The mercenary Raillefal.]"
 54: 0x0146 [0x25] WAIT_DIALOG_SELECT()
 55: 0x0147 [0x45] LOAD_SCHEDULED_TASK: Load scheduler "y003" with entities [LocalPlayer, LocalPlayer], work=[88*, 0*]
 56: 0x0158 [0x02] IF !(Work_Zone[0] == 0*) GOTO 0x016B
 57: 0x0160 [0x2B] Bacherume (ID: 17723398/0x010E7006) [14659*]:
    → "Ahahaha! A member of the royal family would never have such abominable penmanship!"
 58: 0x0167 [0x23] WAIT_FOR_DIALOG_INTERACTION
 59: 0x0168 [0x01] GOTO 0x0191
 60: 0x016B [0x02] IF !(Work_Zone[0] == 1*) GOTO 0x017E
 61: 0x0173 [0x2B] Bacherume (ID: 17723398/0x010E7006) [14660*]:
    → "Ahahaha! A sage, you say? They write in characters that we simple folk cannot decipher..."
 62: 0x017A [0x23] WAIT_FOR_DIALOG_INTERACTION
 63: 0x017B [0x01] GOTO 0x0191
 64: 0x017E [0x02] IF !(Work_Zone[0] == 2*) GOTO 0x0191
 65: 0x0186 [0x2B] Bacherume (ID: 17723398/0x010E7006) [14661*]:
    → "Ahahaha! Well, we must do the mercenary's bidding now, mustn't we?"
 66: 0x018D [0x23] WAIT_FOR_DIALOG_INTERACTION
 67: 0x018E [0x01] GOTO 0x0191

SUBROUTINE_0191:
 68: 0x0191 [0x03] Work_Zone[2] = ExtData[1]->WorkLocal[0]
 69: 0x0196 [0x2B] Bacherume (ID: 17723398/0x010E7006) [14662*]:
    → "But if this letter is truly meant for Monarlais Halver as you say, then we must see that he receives it...."
 70: 0x019D [0x23] WAIT_FOR_DIALOG_INTERACTION
 71: 0x019E [0x52] END_LOAD_SCHEDULER: End scheduler "y003" with entities [LocalPlayer, LocalPlayer], work=88*
 72: 0x01AD [0x45] LOAD_SCHEDULED_TASK: Load scheduler "y004" with entities [LocalPlayer, LocalPlayer], work=[88*, 0*]
 73: 0x01BE [0x66] LOAD_EXT_SCHEDULER_MAIN: Load scheduler "tlk1" with entities [Guilerme (ID: 17723397/0x010E7005), Guilerme (ID: 17723397/0x010E7005)], work=20*
 74: 0x01CD [0x79] LocalPlayer looks at Guilerme (ID: 17723397/0x010E7005) (Basic look)
 75: 0x01D7 [0x2B] Guilerme (ID: 17723397/0x010E7005) [14663*]:
    → "I have it! I shall deliver this letter myself. We cannot allow riffraff from the gutter to simply waltz into the chateau."
 76: 0x01DE [0x23] WAIT_FOR_DIALOG_INTERACTION
 77: 0x01DF [0x2B] Guilerme (ID: 17723397/0x010E7005) [14664*]:
    → "But I will take your name for the records, of course."
 78: 0x01E6 [0x23] WAIT_FOR_DIALOG_INTERACTION
 79: 0x01E7 [0x5E] EventEntity goes idle (kills current action) (animation: "idl0")
 80: 0x01EC [0x1C] WAIT(60* ticks)
 81: 0x01EF [0x2B] Guilerme (ID: 17723397/0x010E7005) [14665*]:
    → "<Player>, is it? Wait here."
 82: 0x01F6 [0x23] WAIT_FOR_DIALOG_INTERACTION
 83: 0x01F7 [0x5D] SET_MUSIC_VOLUME(volume=0*, fade_time=600*)
 84: 0x01FC [0x27] REQ_SET(priority=0x10, entity_id=Guilerme (ID: 17723397/0x010E7005), tag_num=0x04)
 85: 0x0203 [0x1C] WAIT(60* ticks)
 86: 0x0206 [0x4A] Bacherume (ID: 17723398/0x010E7006) looks at Guilerme (ID: 17723397/0x010E7005)
 87: 0x020F [0x2A] GET_REQ_LEVEL(level=16, entity_id=Guilerme (ID: 17723397/0x010E7005))
 88: 0x0215 [0x4A] Bacherume (ID: 17723398/0x010E7006) looks at Guilerme (ID: 17723397/0x010E7005)
 89: 0x021E [0x45] LOAD_SCHEDULED_TASK: Load scheduler "y005" with entities [LocalPlayer, LocalPlayer], work=[88*, 0*]
 90: 0x022F [0x2B] Guilerme (ID: 17723397/0x010E7005) [14666*]:
    → "You there! That letter of yours drained the color from Monarlais Halver's face!"
 91: 0x0236 [0x23] WAIT_FOR_DIALOG_INTERACTION
 92: 0x0237 [0x2B] Guilerme (ID: 17723397/0x010E7005) [14667*]:
    → "Come with me!"
 93: 0x023E [0x23] WAIT_FOR_DIALOG_INTERACTION
 94: 0x023F [0x27] REQ_SET(priority=0x10, entity_id=Guilerme (ID: 17723397/0x010E7005), tag_num=0x04)
 95: 0x0246 [0x1C] WAIT(40* ticks)
 96: 0x0249 [0x27] REQ_SET(priority=0x03, entity_id=LocalPlayer, tag_num=0x81)
 97: 0x0250 [0x1C] WAIT(120* ticks)
 98: 0x0253 [0x27] REQ_SET(priority=0x10, entity_id=Bacherume (ID: 17723398/0x010E7006), tag_num=0x09)
 99: 0x025A [0x03] Work_Zone[1] = 1*
100: 0x025F [0x1A] CALL_SUBROUTINE(address=0x02F4)
101: 0x0262 [0x1C] WAIT(30* ticks)
102: 0x0265 [0x02] IF !(ExtData[1]->WorkLocal[1] == 0*) GOTO 0x0273
103: 0x026D [0x30] SET_UCOFF_CONTINUE_ZERO()
104: 0x026E [0x46] CAMERA_CONTROL: Restore default settings
105: 0x0270 [0x01] GOTO 0x027E
106: 0x0273 [0x5C] MUSIC_CONTROL: Set Idle (Day) music to song 107*
107: 0x0277 [0x5C] MUSIC_CONTROL: Set Idle (Night) music to song 107*
108: 0x027B [0x9A] WAIT_MUSIC_SERVER()
109: 0x027C [0x46] CAMERA_CONTROL: Restore default settings

SUBROUTINE_027E:
110: 0x027E [0x45] LOAD_SCHEDULED_TASK: Load scheduler "fdi2" with entities [LocalPlayer, LocalPlayer], work=[200*, 0*]
111: 0x028F [0x21] END_EVENT
112: 0x0290 [0x00] END_REQSTACK()

SUBROUTINE_02D3:
113: 0x02D3 [0x45] LOAD_SCHEDULED_TASK: Load scheduler "fdi1" with entities [LocalPlayer, LocalPlayer], work=[200*, 0*]
114: 0x02E4 [0x55] WAIT_LOAD_SCHEDULER: Wait for scheduler "fdi1" with entities [LocalPlayer, LocalPlayer], work=200*
115: 0x02F3 [0x1B] RETURN

SUBROUTINE_02F4:
116: 0x02F4 [0x45] LOAD_SCHEDULED_TASK: Load scheduler "fdo1" with entities [LocalPlayer, LocalPlayer], work=[200*, 0*]
117: 0x0305 [0x55] WAIT_LOAD_SCHEDULER: Wait for scheduler "fdo1" with entities [LocalPlayer, LocalPlayer], work=200*
118: 0x0314 [0x1B] RETURN
```

#### Data or dead code:

```
# Dead code (unreachable instructions):
     0x0035 [0x01] GOTO 0x0038
# Dead code (unreachable instructions):
     0x0291 [0x45] LOAD_SCHEDULED_TASK: Load scheduler "fdi0" with entities [LocalPlayer, LocalPlayer], work=[200*, 0*]
     0x02A2 [0x55] WAIT_LOAD_SCHEDULER: Wait for scheduler "fdi0" with entities [LocalPlayer, LocalPlayer], work=200*
     0x02B1 [0x1B] RETURN
     0x02B2 [0x45] LOAD_SCHEDULED_TASK: Load scheduler "fdo0" with entities [LocalPlayer, LocalPlayer], work=[200*, 0*]
     0x02C3 [0x55] WAIT_LOAD_SCHEDULER: Wait for scheduler "fdo0" with entities [LocalPlayer, LocalPlayer], work=200*
     0x02D2 [0x1B] RETURN
# Dead code (unreachable instructions):
     0x0315 [0x45] LOAD_SCHEDULED_TASK: Load scheduler "whi1" with entities [LocalPlayer, LocalPlayer], work=[201*, 0*]
     0x0326 [0x55] WAIT_LOAD_SCHEDULER: Wait for scheduler "whi1" with entities [LocalPlayer, LocalPlayer], work=201*
     0x0335 [0x1B] RETURN
     0x0336 [0x45] LOAD_SCHEDULED_TASK: Load scheduler "who1" with entities [LocalPlayer, LocalPlayer], work=[201*, 0*]
     0x0347 [0x55] WAIT_LOAD_SCHEDULER: Wait for scheduler "who1" with entities [LocalPlayer, LocalPlayer], work=201*
     0x0356 [0x1B] RETURN
     0x0357 [0x45] LOAD_SCHEDULED_TASK: Load scheduler "who2" with entities [LocalPlayer, LocalPlayer], work=[201*, 0*]
     0x0368 [0x55] WAIT_LOAD_SCHEDULER: Wait for scheduler "who2" with entities [LocalPlayer, LocalPlayer], work=201*
     0x0377 [0x1B] RETURN
     0x0378 [0x45] LOAD_SCHEDULED_TASK: Load scheduler "who3" with entities [LocalPlayer, LocalPlayer], work=[201*, 0*]
     0x0389 [0x55] WAIT_LOAD_SCHEDULER: Wait for scheduler "who3" with entities [LocalPlayer, LocalPlayer], work=201*
     0x0398 [0x1B] RETURN
     0x0399 [0x62] LOAD_EVENT_SCHEDULER: Load scheduler "main" with entities [LocalPlayer, LocalPlayer], work=[1*, 0*]
     0x03AA [0x1C] WAIT(45* ticks)
     0x03AD [0x45] LOAD_SCHEDULED_TASK: Load scheduler "fdo1" with entities [LocalPlayer, LocalPlayer], work=[200*, 0*]
     0x03BE [0x55] WAIT_LOAD_SCHEDULER: Wait for scheduler "fdo1" with entities [LocalPlayer, LocalPlayer], work=200*
     0x03CD [0x1B] RETURN
     0x03CE [0x45] LOAD_SCHEDULED_TASK: Load scheduler "fdi1" with entities [LocalPlayer, LocalPlayer], work=[200*, 0*]
     0x03DF [0x62] LOAD_EVENT_SCHEDULER: Load scheduler "main" with entities [LocalPlayer, LocalPlayer], work=[2*, 0*]
     0x03F0 [0x1C] WAIT(30* ticks)
     0x03F3 [0x55] WAIT_LOAD_SCHEDULER: Wait for scheduler "fdi1" with entities [LocalPlayer, LocalPlayer], work=200*
     0x0402 [0x1B] RETURN
     0x0403 [0x45] LOAD_SCHEDULED_TASK: Load scheduler "blon" with entities [LocalPlayer, LocalPlayer], work=[200*, 0*]
     0x0414 [0x45] LOAD_SCHEDULED_TASK: Load scheduler "blon" with entities [LocalPlayer, LocalPlayer], work=[201*, 0*]
     0x0425 [0x1B] RETURN
     0x0426 [0x45] LOAD_SCHEDULED_TASK: Load scheduler "whi0" with entities [LocalPlayer, LocalPlayer], work=[201*, 0*]
     0x0437 [0x55] WAIT_LOAD_SCHEDULER: Wait for scheduler "whi0" with entities [LocalPlayer, LocalPlayer], work=201*
     0x0446 [0x1B] RETURN
     0x0447 [0x45] LOAD_SCHEDULED_TASK: Load scheduler "who0" with entities [LocalPlayer, LocalPlayer], work=[201*, 0*]
     0x0458 [0x55] WAIT_LOAD_SCHEDULER: Wait for scheduler "who0" with entities [LocalPlayer, LocalPlayer], work=201*
     0x0467 [0x1B] RETURN
     0x0468 [0x45] LOAD_SCHEDULED_TASK: Load scheduler "efon" with entities [LocalPlayer, LocalPlayer], work=[215*, 0*]
     0x0479 [0x55] WAIT_LOAD_SCHEDULER: Wait for scheduler "efon" with entities [LocalPlayer, LocalPlayer], work=215*
     0x0488 [0x1B] RETURN
     0x0489 [0x45] LOAD_SCHEDULED_TASK: Load scheduler "fdis" with entities [LocalPlayer, LocalPlayer], work=[200*, 0*]
     0x049A [0x1B] RETURN
     0x049B [0x45] LOAD_SCHEDULED_TASK: Load scheduler "fdos" with entities [LocalPlayer, LocalPlayer], work=[200*, 0*]
     0x04AC [0x55] WAIT_LOAD_SCHEDULER: Wait for scheduler "fdos" with entities [LocalPlayer, LocalPlayer], work=200*
     0x04BB [0x1B] RETURN
     0x04BC [0x45] LOAD_SCHEDULED_TASK: Load scheduler "fdif" with entities [LocalPlayer, LocalPlayer], work=[200*, 0*]
     0x04CD [0x1B] RETURN
     0x04CE [0x45] LOAD_SCHEDULED_TASK: Load scheduler "fdof" with entities [LocalPlayer, LocalPlayer], work=[200*, 0*]
     0x04DF [0x55] WAIT_LOAD_SCHEDULER: Wait for scheduler "fdof" with entities [LocalPlayer, LocalPlayer], work=200*
     0x04EE [0x1B] RETURN
     0x04EF [0x45] LOAD_SCHEDULED_TASK: Load scheduler "fdip" with entities [LocalPlayer, LocalPlayer], work=[200*, 0*]
     0x0500 [0x1B] RETURN
     0x0501 [0x45] LOAD_SCHEDULED_TASK: Load scheduler "fdop" with entities [LocalPlayer, LocalPlayer], work=[200*, 0*]
     0x0512 [0x55] WAIT_LOAD_SCHEDULER: Wait for scheduler "fdop" with entities [LocalPlayer, LocalPlayer], work=200*
     0x0521 [0x1B] RETURN
```

### Event 869

#### Metadata

| Field        | Value   |
|--------------|---------|
| Entrypoint   | 0x0522  |
| Data Size    | 1 bytes |
| Instructions | 1       |

```
      00 01 02 03 04 05 06 07  08 09 0A 0B 0C 0D 0E 0F
      -- -- -- -- -- -- -- --  -- -- -- -- -- -- -- --
0520:       00                                            .             
```

#### Opcodes

```
  0: 0x0522 [0x00] END_REQSTACK()
```

### Event 870

#### Metadata

| Field        | Value   |
|--------------|---------|
| Entrypoint   | 0x0523  |
| Data Size    | 1 bytes |
| Instructions | 1       |

```
      00 01 02 03 04 05 06 07  08 09 0A 0B 0C 0D 0E 0F
      -- -- -- -- -- -- -- --  -- -- -- -- -- -- -- --
0520:          00                                          .            
```

#### Opcodes

```
  0: 0x0523 [0x00] END_REQSTACK()
```
