# 17723424 - Pagisalis

## Common Data

| Field            | Value                         |
|------------------|-------------------------------|
| Zone             | Northern San d'Oria (ID: 231) |
| Block Size       | 1224 bytes                    |
| Total Events     | 18                            |
| References Count | 48                            |

## List of Events

| Event ID                 | Entrypoint   |   Size |   Instructions |
|--------------------------|--------------|--------|----------------|
| [65535](#event-65535)    | 0x0000       |      1 |              1 |
| [38](#event-38)          | 0x0001       |     33 |              6 |
| [1](#event-1)            | 0x0022       |     16 |              3 |
| [65535.1](#event-655351) | 0x0032       |     38 |             10 |
| [562](#event-562)        | 0x0058       |    297 |             51 |
| [565](#event-565)        | 0x0181       |     94 |             16 |
| [563](#event-563)        | 0x01DF       |    133 |             25 |
| [564](#event-564)        | 0x0264       |     99 |             19 |
| [566](#event-566)        | 0x02C7       |     94 |             16 |
| [37](#event-37)          | 0x0325       |      4 |              2 |
| [48](#event-48)          | 0x0329       |     18 |              8 |
| [58](#event-58)          | 0x033B       |     17 |              9 |
| [16](#event-16)          | 0x034C       |     18 |              4 |
| [65535.2](#event-655352) | 0x035E       |     14 |              4 |
| [65535.3](#event-655353) | 0x036C       |     16 |              2 |
| [65535.4](#event-655354) | 0x037C       |     14 |              2 |
| [65535.5](#event-655355) | 0x038A       |     16 |              2 |
| [65535.6](#event-655356) | 0x039A       |     22 |              4 |

## DAT References (imed_data)

|   Index | Hex Value   |   Dec Value |
|---------|-------------|-------------|
|       0 | 0x22708     |      141064 |
|       1 | 0x207BC     |      133052 |
|       2 | 0x10E0      |        4320 |
|       3 | 0x05E6      |        1510 |
|       4 | 0x0000      |           0 |
|       5 | 0x2256D     |      140653 |
|       6 | 0x1F4D6     |      128214 |
|       7 | 0x0A51      |        2641 |
|       8 | 0x000D      |          13 |
|       9 | 0x21F76     |      139126 |
|      10 | 0x1E5A2     |      124322 |
|      11 | 0x21FB6     |      139190 |
|      12 | 0x1D7A7     |      120743 |
|      13 | 0x21B51     |      138065 |
|      14 | 0x1D69C     |      120476 |
|      15 | 0x0B93      |        2963 |
|      16 | 0x0014      |          20 |
|      17 | 0x2C4F      |       11343 |
|      18 | 0x001E      |          30 |
|      19 | 0x2C50      |       11344 |
|      20 | 0x0391      |         913 |
|      21 | 0x2C51      |       11345 |
|      22 | 0x2C52      |       11346 |
|      23 | 0x2BE8      |       11240 |
|      24 | 0x2C53      |       11347 |
|      25 | 0x003C      |          60 |
|      26 | 0x2C55      |       11349 |
|      27 | 0x0001      |           1 |
|      28 | 0x2C54      |       11348 |
|      29 | 0x40000000  |  1073741824 |
|      30 | 0x2C59      |       11353 |
|      31 | 0x2C56      |       11350 |
|      32 | 0x339B      |       13211 |
|      33 | 0x2C57      |       11351 |
|      34 | 0x00C9      |         201 |
|      35 | 0x2C58      |       11352 |
|      36 | 0x2C5A      |       11354 |
|      37 | 0x033C      |         828 |
|      38 | 0x2FB4      |       12212 |
|      39 | 0x2FC3      |       12227 |
|      40 | 0x2FC4      |       12228 |
|      41 | 0x20478     |      132216 |
|      42 | 0x1D40F     |      119823 |
|      43 | 0x0A07      |        2567 |
|      44 | 0x21A82     |      137858 |
|      45 | 0x20598     |      132504 |
|      46 | 0x1963      |        6499 |
|      47 | 0x00CE      |         206 |

## String References

- **11240**: Well? [I accept./I must decline.]
- **11343**: Behold the candles on either side of the epitaph. Vigilantly their flames have burned since the departure of Papsque Muchavatte.
- **11344**: They are placed here to light his way to Paradise.
- **11345**: But many a candle are needed to keep his journey alight. Ever must the faithful bring $0 for candle-making.
- **11346**: We humbly ask visitors to donate two $0. Would you make an offering?
- **11347**: Altana smiles on the generous. Once you have obtained two $0, carry them hither.
- **11348**: Surely the late papsque frowns upon you. Return hither when you remember charity.
- **11349**: May Paradise open its gates to you.
- **11350**: I thank you for offering two $0. The late papsque would be pleased.
- **11351**: In thanks for your service, the San d'Oria Cathedral presents you with this $0. Wear it, and Altana's providence will be yours.
- **11352**: I thank you for your generous offering, but I am afraid I cannot accept this.
- **11353**: I await your offering.
- **11354**: Thank you for your generous service.
- **12212**: Have you come to pray, my child? First fetch $0. You will be judged by your actions, not words.
- **12227**: You have angered His Holiness! You had best leave, and reflect upon your trespasses!
- **12228**: Come not hither again! Understood?

## Events

### Event 65535

#### Metadata

| Field        | Value   |
|--------------|---------|
| Entrypoint   | 0x0000  |
| Data Size    | 1 bytes |
| Instructions | 1       |

```
      00 01 02 03 04 05 06 07  08 09 0A 0B 0C 0D 0E 0F
      -- -- -- -- -- -- -- --  -- -- -- -- -- -- -- --
0000: 00                                                .               
```

#### Opcodes

```
  0: 0x0000 [0x00] END_REQSTACK()
```

### Event 38

#### Metadata

| Field        | Value    |
|--------------|----------|
| Entrypoint   | 0x0001   |
| Data Size    | 33 bytes |
| Instructions | 6        |

```
      00 01 02 03 04 05 06 07  08 09 0A 0B 0C 0D 0E 0F
      -- -- -- -- -- -- -- --  -- -- -- -- -- -- -- --
0000:    33 01 37 00 80 01 80  02 80 03 80 92 01 F8 FF   3.7............
0010: FF 7F 94 01 F8 FF FF 7F  6C F8 FF FF 7F 04 80 04  ........l.......
0020: 80 00                                             ..              
```

#### Opcodes

```
  0: 0x0001 [0x33] EventEntity->Render.Flags0 |= 0x200000 // Bit 21 (flag=0x01)
  1: 0x0003 [0x37] UPDATE_EVENT_POSITION_AND_DIR: x=141.064*, z=133.052*, y=4.320*, direction=132.7°*
  2: 0x000C [0x92] EventEntity->Render.Flags3 ^= 0x01
  3: 0x0012 [0x94] EventEntity->Render.Flags3 ^= 0x01
  4: 0x0018 [0x6C] FADE_ENTITY_COLOR(entity_id=EventEntity, end_alpha=0*, fade_time=0*)
  5: 0x0021 [0x00] END_REQSTACK()
```

### Event 1

#### Metadata

| Field        | Value    |
|--------------|----------|
| Entrypoint   | 0x0022   |
| Data Size    | 16 bytes |
| Instructions | 3        |

```
      00 01 02 03 04 05 06 07  08 09 0A 0B 0C 0D 0E 0F
      -- -- -- -- -- -- -- --  -- -- -- -- -- -- -- --
0020:       92 01 F8 FF FF 7F  37 05 80 06 80 04 80 07    ......7.......
0030: 80 00                                             ..              
```

#### Opcodes

```
  0: 0x0022 [0x92] EventEntity->Render.Flags3 ^= 0x01
  1: 0x0028 [0x37] UPDATE_EVENT_POSITION_AND_DIR: x=140.653*, z=128.214*, y=0.000*, direction=232.1°*
  2: 0x0031 [0x00] END_REQSTACK()
```

### Event 65535.1

#### Metadata

| Field        | Value    |
|--------------|----------|
| Entrypoint   | 0x0032   |
| Data Size    | 38 bytes |
| Instructions | 10       |

```
      00 01 02 03 04 05 06 07  08 09 0A 0B 0C 0D 0E 0F
      -- -- -- -- -- -- -- --  -- -- -- -- -- -- -- --
0030:       32 08 80 1F 00 09  80 0A 80 04 80 1F 01 1F    2.............
0040: 00 0B 80 0C 80 04 80 1F  01 1F 00 0D 80 0E 80 04  ................
0050: 80 1F 01 6F 39 0F 80 00                           ...o9...        
```

#### Opcodes

```
  0: 0x0032 [0x32] ExtData[1]->MainSpeed = 13* * 0.1
  1: 0x0035 [0x1F] MOVE_ENTITY: EventEntity moves to X=139.126*, Z=124.322*, Y=0.000*
  2: 0x003D [0x1F] MOVE_ENTITY: Update entity position (mode=1)
  3: 0x003F [0x1F] MOVE_ENTITY: EventEntity moves to X=139.190*, Z=120.743*, Y=0.000*
  4: 0x0047 [0x1F] MOVE_ENTITY: Update entity position (mode=1)
  5: 0x0049 [0x1F] MOVE_ENTITY: EventEntity moves to X=138.065*, Z=120.476*, Y=0.000*
  6: 0x0051 [0x1F] MOVE_ENTITY: Update entity position (mode=1)
  7: 0x0053 [0x6F] WAIT_FRAME_DELAY: Yield until WaitTime reaches zero
  8: 0x0054 [0x39] SET_ENTITY_DIRECTION(direction=16.3°*)
  9: 0x0057 [0x00] END_REQSTACK()
```

### Event 562

#### Metadata

| Field        | Value     |
|--------------|-----------|
| Entrypoint   | 0x0058    |
| Data Size    | 297 bytes |
| Instructions | 51        |

```
      00 01 02 03 04 05 06 07  08 09 0A 0B 0C 0D 0E 0F
      -- -- -- -- -- -- -- --  -- -- -- -- -- -- -- --
0050:                          1E F0 FF FF 7F 6F 70 5B          .....op[
0060: 10 80 F8 FF FF 7F F8 FF  FF 7F 74 6C 6B 30 1D 11  ..........tlk0..
0070: 80 23 1C 12 80 1D 13 80  23 1C 12 80 03 02 10 14  .#......#.......
0080: 80 1D 15 80 23 1C 12 80  1D 16 80 23 5B 10 80 F8  ....#......#[...
0090: FF FF 7F F8 FF FF 7F 74  6C 6B 31 53 F8 FF FF 7F  .......tlk1S....
00A0: F8 FF FF 7F 74 6C 6B 31  24 17 80 04 80 04 80 25  ....tlk1$......%
00B0: 02 00 10 04 80 00 1A 01  5B 10 80 F8 FF FF 7F F8  ........[.......
00C0: FF FF 7F 74 6C 6B 30 03  02 10 14 80 1D 18 80 23  ...tlk0........#
00D0: 5B 10 80 F8 FF FF 7F F8  FF FF 7F 74 6C 6B 31 53  [..........tlk1S
00E0: F8 FF FF 7F F8 FF FF 7F  74 6C 6B 31 1C 19 80 5B  ........tlk1...[
00F0: 10 80 F8 FF FF 7F F8 FF  FF 7F 69 6E 6F 30 1D 1A  ..........ino0..
0100: 80 23 53 F8 FF FF 7F F8  FF FF 7F 69 6E 6F 30 1C  .#S........ino0.
0110: 12 80 03 01 10 04 80 01  7F 01 02 00 10 1B 80 00  ................
0120: 7F 01 5B 10 80 F8 FF FF  7F F8 FF FF 7F 74 6C 6B  ..[..........tlk
0130: 30 1D 1C 80 23 5B 10 80  F8 FF FF 7F F8 FF FF 7F  0...#[..........
0140: 74 6C 6B 31 53 F8 FF FF  7F F8 FF FF 7F 74 6C 6B  tlk1S........tlk
0150: 31 1C 19 80 5B 10 80 F8  FF FF 7F F8 FF FF 7F 69  1...[..........i
0160: 6E 6F 30 1D 1A 80 23 53  F8 FF FF 7F F8 FF FF 7F  no0...#S........
0170: 69 6E 6F 30 1C 12 80 03  01 10 1D 80 01 7F 01 21  ino0...........!
0180: 00                                                .               
```

#### Opcodes

```
  0: 0x0058 [0x1E] EventEntity looks at LocalPlayer and starts talking
  1: 0x005D [0x6F] WAIT_FRAME_DELAY: Yield until WaitTime reaches zero
  2: 0x005E [0x70] WAIT_ENTITY_RENDER_FLAG: Wait while EventEntity->Render.Flags3 bit 2 is set (cancel turn if not)
  3: 0x005F [0x5B] LOAD_EXT_SCHEDULER: Load scheduler "tlk0" with entities [EventEntity, EventEntity], work=20*
  4: 0x006E [0x1D] PRINT_EVENT_MESSAGE(message_id=11343*)
    → "Behold the candles on either side of the epitaph. Vigilantly their flames have burned since the departure of Papsque Muchavatte."
  5: 0x0071 [0x23] WAIT_FOR_DIALOG_INTERACTION
  6: 0x0072 [0x1C] WAIT(30* ticks)
  7: 0x0075 [0x1D] PRINT_EVENT_MESSAGE(message_id=11344*)
    → "They are placed here to light his way to Paradise."
  8: 0x0078 [0x23] WAIT_FOR_DIALOG_INTERACTION
  9: 0x0079 [0x1C] WAIT(30* ticks)
 10: 0x007C [0x03] Work_Zone[2] = 913*
 11: 0x0081 [0x1D] PRINT_EVENT_MESSAGE(message_id=11345*)
    → "But many a candle are needed to keep his journey alight. Ever must the faithful bring $0 for candle-making."
 12: 0x0084 [0x23] WAIT_FOR_DIALOG_INTERACTION
 13: 0x0085 [0x1C] WAIT(30* ticks)
 14: 0x0088 [0x1D] PRINT_EVENT_MESSAGE(message_id=11346*)
    → "We humbly ask visitors to donate two $0. Would you make an offering?"
 15: 0x008B [0x23] WAIT_FOR_DIALOG_INTERACTION
 16: 0x008C [0x5B] LOAD_EXT_SCHEDULER: Load scheduler "tlk1" with entities [EventEntity, EventEntity], work=20*
 17: 0x009B [0x53] WAIT_SCHEDULER_TASK: Wait for scheduler "tlk1" with entities [EventEntity, EventEntity]
 18: 0x00A8 [0x24] CREATE_DIALOG(message_id=11240*, default_option=0*, option_flags=0*)
    → "Well? [I accept./I must decline.]"
 19: 0x00AF [0x25] WAIT_DIALOG_SELECT()
 20: 0x00B0 [0x02] IF !(Work_Zone[0] == 0*) GOTO 0x011A
 21: 0x00B8 [0x5B] LOAD_EXT_SCHEDULER: Load scheduler "tlk0" with entities [EventEntity, EventEntity], work=20*
 22: 0x00C7 [0x03] Work_Zone[2] = 913*
 23: 0x00CC [0x1D] PRINT_EVENT_MESSAGE(message_id=11347*)
    → "Altana smiles on the generous. Once you have obtained two $0, carry them hither."
 24: 0x00CF [0x23] WAIT_FOR_DIALOG_INTERACTION
 25: 0x00D0 [0x5B] LOAD_EXT_SCHEDULER: Load scheduler "tlk1" with entities [EventEntity, EventEntity], work=20*
 26: 0x00DF [0x53] WAIT_SCHEDULER_TASK: Wait for scheduler "tlk1" with entities [EventEntity, EventEntity]
 27: 0x00EC [0x1C] WAIT(60* ticks)
 28: 0x00EF [0x5B] LOAD_EXT_SCHEDULER: Load scheduler "ino0" with entities [EventEntity, EventEntity], work=20*
 29: 0x00FE [0x1D] PRINT_EVENT_MESSAGE(message_id=11349*)
    → "May Paradise open its gates to you."
 30: 0x0101 [0x23] WAIT_FOR_DIALOG_INTERACTION
 31: 0x0102 [0x53] WAIT_SCHEDULER_TASK: Wait for scheduler "ino0" with entities [EventEntity, EventEntity]
 32: 0x010F [0x1C] WAIT(30* ticks)
 33: 0x0112 [0x03] Work_Zone[1] = 0*
 34: 0x0117 [0x01] GOTO 0x017F
 35: 0x011A [0x02] IF !(Work_Zone[0] == 1*) GOTO 0x017F
 36: 0x0122 [0x5B] LOAD_EXT_SCHEDULER: Load scheduler "tlk0" with entities [EventEntity, EventEntity], work=20*
 37: 0x0131 [0x1D] PRINT_EVENT_MESSAGE(message_id=11348*)
    → "Surely the late papsque frowns upon you. Return hither when you remember charity."
 38: 0x0134 [0x23] WAIT_FOR_DIALOG_INTERACTION
 39: 0x0135 [0x5B] LOAD_EXT_SCHEDULER: Load scheduler "tlk1" with entities [EventEntity, EventEntity], work=20*
 40: 0x0144 [0x53] WAIT_SCHEDULER_TASK: Wait for scheduler "tlk1" with entities [EventEntity, EventEntity]
 41: 0x0151 [0x1C] WAIT(60* ticks)
 42: 0x0154 [0x5B] LOAD_EXT_SCHEDULER: Load scheduler "ino0" with entities [EventEntity, EventEntity], work=20*
 43: 0x0163 [0x1D] PRINT_EVENT_MESSAGE(message_id=11349*)
    → "May Paradise open its gates to you."
 44: 0x0166 [0x23] WAIT_FOR_DIALOG_INTERACTION
 45: 0x0167 [0x53] WAIT_SCHEDULER_TASK: Wait for scheduler "ino0" with entities [EventEntity, EventEntity]
 46: 0x0174 [0x1C] WAIT(30* ticks)
 47: 0x0177 [0x03] Work_Zone[1] = 1073741824*
 48: 0x017C [0x01] GOTO 0x017F

SUBROUTINE_017F:
 49: 0x017F [0x21] END_EVENT
 50: 0x0180 [0x00] END_REQSTACK()
```

### Event 565

#### Metadata

| Field        | Value    |
|--------------|----------|
| Entrypoint   | 0x0181   |
| Data Size    | 94 bytes |
| Instructions | 16       |

```
      00 01 02 03 04 05 06 07  08 09 0A 0B 0C 0D 0E 0F
      -- -- -- -- -- -- -- --  -- -- -- -- -- -- -- --
0180:    1E F0 FF FF 7F 6F 70  5B 10 80 F8 FF FF 7F F8   .....op[.......
0190: FF FF 7F 74 6C 6B 30 1D  1E 80 23 5B 10 80 F8 FF  ...tlk0...#[....
01A0: FF 7F F8 FF FF 7F 74 6C  6B 31 53 F8 FF FF 7F F8  ......tlk1S.....
01B0: FF FF 7F 74 6C 6B 31 1C  19 80 5B 10 80 F8 FF FF  ...tlk1...[.....
01C0: 7F F8 FF FF 7F 69 6E 6F  30 1D 1A 80 23 53 F8 FF  .....ino0...#S..
01D0: FF 7F F8 FF FF 7F 69 6E  6F 30 1C 12 80 21 00     ......ino0...!. 
```

#### Opcodes

```
  0: 0x0181 [0x1E] EventEntity looks at LocalPlayer and starts talking
  1: 0x0186 [0x6F] WAIT_FRAME_DELAY: Yield until WaitTime reaches zero
  2: 0x0187 [0x70] WAIT_ENTITY_RENDER_FLAG: Wait while EventEntity->Render.Flags3 bit 2 is set (cancel turn if not)
  3: 0x0188 [0x5B] LOAD_EXT_SCHEDULER: Load scheduler "tlk0" with entities [EventEntity, EventEntity], work=20*
  4: 0x0197 [0x1D] PRINT_EVENT_MESSAGE(message_id=11353*)
    → "I await your offering."
  5: 0x019A [0x23] WAIT_FOR_DIALOG_INTERACTION
  6: 0x019B [0x5B] LOAD_EXT_SCHEDULER: Load scheduler "tlk1" with entities [EventEntity, EventEntity], work=20*
  7: 0x01AA [0x53] WAIT_SCHEDULER_TASK: Wait for scheduler "tlk1" with entities [EventEntity, EventEntity]
  8: 0x01B7 [0x1C] WAIT(60* ticks)
  9: 0x01BA [0x5B] LOAD_EXT_SCHEDULER: Load scheduler "ino0" with entities [EventEntity, EventEntity], work=20*
 10: 0x01C9 [0x1D] PRINT_EVENT_MESSAGE(message_id=11349*)
    → "May Paradise open its gates to you."
 11: 0x01CC [0x23] WAIT_FOR_DIALOG_INTERACTION
 12: 0x01CD [0x53] WAIT_SCHEDULER_TASK: Wait for scheduler "ino0" with entities [EventEntity, EventEntity]
 13: 0x01DA [0x1C] WAIT(30* ticks)
 14: 0x01DD [0x21] END_EVENT
 15: 0x01DE [0x00] END_REQSTACK()
```

### Event 563

#### Metadata

| Field        | Value     |
|--------------|-----------|
| Entrypoint   | 0x01DF    |
| Data Size    | 133 bytes |
| Instructions | 25        |

```
      00 01 02 03 04 05 06 07  08 09 0A 0B 0C 0D 0E 0F
      -- -- -- -- -- -- -- --  -- -- -- -- -- -- -- --
01D0:                                               42                 B
01E0: 20 01 1E F0 FF FF 7F 6F  70 5B 10 80 F8 FF FF 7F   ......op[......
01F0: F8 FF FF 7F 74 6C 6B 30  03 02 10 14 80 1D 1F 80  ....tlk0........
0200: 23 1C 12 80 03 02 10 20  80 1D 21 80 23 5B 10 80  #...... ..!.#[..
0210: F8 FF FF 7F F8 FF FF 7F  74 6C 6B 31 53 F8 FF FF  ........tlk1S...
0220: 7F F8 FF FF 7F 74 6C 6B  31 1C 19 80 5B 10 80 F8  .....tlk1...[...
0230: FF FF 7F F8 FF FF 7F 69  6E 6F 30 1D 1A 80 23 53  .......ino0...#S
0240: F8 FF FF 7F F8 FF FF 7F  69 6E 6F 30 45 22 80 F0  ........ino0E"..
0250: FF FF 7F F0 FF FF 7F 71  73 74 63 04 80 1C 12 80  .......qstc.....
0260: 20 00 21 00                                        .!.            
```

#### Opcodes

```
  0: 0x01DF [0x42] SET_CLI_EVENT_CANCEL_DATA()
  1: 0x01E0 [0x20] SET_CLI_EVENT_UC_FLAG: Lock player control
  2: 0x01E2 [0x1E] EventEntity looks at LocalPlayer and starts talking
  3: 0x01E7 [0x6F] WAIT_FRAME_DELAY: Yield until WaitTime reaches zero
  4: 0x01E8 [0x70] WAIT_ENTITY_RENDER_FLAG: Wait while EventEntity->Render.Flags3 bit 2 is set (cancel turn if not)
  5: 0x01E9 [0x5B] LOAD_EXT_SCHEDULER: Load scheduler "tlk0" with entities [EventEntity, EventEntity], work=20*
  6: 0x01F8 [0x03] Work_Zone[2] = 913*
  7: 0x01FD [0x1D] PRINT_EVENT_MESSAGE(message_id=11350*)
    → "I thank you for offering two $0. The late papsque would be pleased."
  8: 0x0200 [0x23] WAIT_FOR_DIALOG_INTERACTION
  9: 0x0201 [0x1C] WAIT(30* ticks)
 10: 0x0204 [0x03] Work_Zone[2] = 13211*
 11: 0x0209 [0x1D] PRINT_EVENT_MESSAGE(message_id=11351*)
    → "In thanks for your service, the San d'Oria Cathedral presents you with this $0. Wear it, and Altana's providence will be yours."
 12: 0x020C [0x23] WAIT_FOR_DIALOG_INTERACTION
 13: 0x020D [0x5B] LOAD_EXT_SCHEDULER: Load scheduler "tlk1" with entities [EventEntity, EventEntity], work=20*
 14: 0x021C [0x53] WAIT_SCHEDULER_TASK: Wait for scheduler "tlk1" with entities [EventEntity, EventEntity]
 15: 0x0229 [0x1C] WAIT(60* ticks)
 16: 0x022C [0x5B] LOAD_EXT_SCHEDULER: Load scheduler "ino0" with entities [EventEntity, EventEntity], work=20*
 17: 0x023B [0x1D] PRINT_EVENT_MESSAGE(message_id=11349*)
    → "May Paradise open its gates to you."
 18: 0x023E [0x23] WAIT_FOR_DIALOG_INTERACTION
 19: 0x023F [0x53] WAIT_SCHEDULER_TASK: Wait for scheduler "ino0" with entities [EventEntity, EventEntity]
 20: 0x024C [0x45] LOAD_SCHEDULED_TASK: Load scheduler "qstc" with entities [LocalPlayer, LocalPlayer], work=[201*, 0*]
 21: 0x025D [0x1C] WAIT(30* ticks)
 22: 0x0260 [0x20] SET_CLI_EVENT_UC_FLAG: Unlock player control
 23: 0x0262 [0x21] END_EVENT
 24: 0x0263 [0x00] END_REQSTACK()
```

### Event 564

#### Metadata

| Field        | Value    |
|--------------|----------|
| Entrypoint   | 0x0264   |
| Data Size    | 99 bytes |
| Instructions | 19       |

```
      00 01 02 03 04 05 06 07  08 09 0A 0B 0C 0D 0E 0F
      -- -- -- -- -- -- -- --  -- -- -- -- -- -- -- --
0260:             42 20 01 1E  F0 FF FF 7F 6F 70 5B 10      B ......op[.
0270: 80 F8 FF FF 7F F8 FF FF  7F 74 6C 6B 30 1D 23 80  .........tlk0.#.
0280: 23 5B 10 80 F8 FF FF 7F  F8 FF FF 7F 74 6C 6B 31  #[..........tlk1
0290: 53 F8 FF FF 7F F8 FF FF  7F 74 6C 6B 31 1C 19 80  S........tlk1...
02A0: 5B 10 80 F8 FF FF 7F F8  FF FF 7F 69 6E 6F 30 1D  [..........ino0.
02B0: 1A 80 23 53 F8 FF FF 7F  F8 FF FF 7F 69 6E 6F 30  ..#S........ino0
02C0: 1C 12 80 20 00 21 00                              ... .!.         
```

#### Opcodes

```
  0: 0x0264 [0x42] SET_CLI_EVENT_CANCEL_DATA()
  1: 0x0265 [0x20] SET_CLI_EVENT_UC_FLAG: Lock player control
  2: 0x0267 [0x1E] EventEntity looks at LocalPlayer and starts talking
  3: 0x026C [0x6F] WAIT_FRAME_DELAY: Yield until WaitTime reaches zero
  4: 0x026D [0x70] WAIT_ENTITY_RENDER_FLAG: Wait while EventEntity->Render.Flags3 bit 2 is set (cancel turn if not)
  5: 0x026E [0x5B] LOAD_EXT_SCHEDULER: Load scheduler "tlk0" with entities [EventEntity, EventEntity], work=20*
  6: 0x027D [0x1D] PRINT_EVENT_MESSAGE(message_id=11352*)
    → "I thank you for your generous offering, but I am afraid I cannot accept this."
  7: 0x0280 [0x23] WAIT_FOR_DIALOG_INTERACTION
  8: 0x0281 [0x5B] LOAD_EXT_SCHEDULER: Load scheduler "tlk1" with entities [EventEntity, EventEntity], work=20*
  9: 0x0290 [0x53] WAIT_SCHEDULER_TASK: Wait for scheduler "tlk1" with entities [EventEntity, EventEntity]
 10: 0x029D [0x1C] WAIT(60* ticks)
 11: 0x02A0 [0x5B] LOAD_EXT_SCHEDULER: Load scheduler "ino0" with entities [EventEntity, EventEntity], work=20*
 12: 0x02AF [0x1D] PRINT_EVENT_MESSAGE(message_id=11349*)
    → "May Paradise open its gates to you."
 13: 0x02B2 [0x23] WAIT_FOR_DIALOG_INTERACTION
 14: 0x02B3 [0x53] WAIT_SCHEDULER_TASK: Wait for scheduler "ino0" with entities [EventEntity, EventEntity]
 15: 0x02C0 [0x1C] WAIT(30* ticks)
 16: 0x02C3 [0x20] SET_CLI_EVENT_UC_FLAG: Unlock player control
 17: 0x02C5 [0x21] END_EVENT
 18: 0x02C6 [0x00] END_REQSTACK()
```

### Event 566

#### Metadata

| Field        | Value    |
|--------------|----------|
| Entrypoint   | 0x02C7   |
| Data Size    | 94 bytes |
| Instructions | 16       |

```
      00 01 02 03 04 05 06 07  08 09 0A 0B 0C 0D 0E 0F
      -- -- -- -- -- -- -- --  -- -- -- -- -- -- -- --
02C0:                      1E  F0 FF FF 7F 6F 70 5B 10         .....op[.
02D0: 80 F8 FF FF 7F F8 FF FF  7F 74 6C 6B 30 1D 24 80  .........tlk0.$.
02E0: 23 5B 10 80 F8 FF FF 7F  F8 FF FF 7F 74 6C 6B 31  #[..........tlk1
02F0: 53 F8 FF FF 7F F8 FF FF  7F 74 6C 6B 31 1C 19 80  S........tlk1...
0300: 5B 10 80 F8 FF FF 7F F8  FF FF 7F 69 6E 6F 30 1D  [..........ino0.
0310: 1A 80 23 53 F8 FF FF 7F  F8 FF FF 7F 69 6E 6F 30  ..#S........ino0
0320: 1C 12 80 21 00                                    ...!.           
```

#### Opcodes

```
  0: 0x02C7 [0x1E] EventEntity looks at LocalPlayer and starts talking
  1: 0x02CC [0x6F] WAIT_FRAME_DELAY: Yield until WaitTime reaches zero
  2: 0x02CD [0x70] WAIT_ENTITY_RENDER_FLAG: Wait while EventEntity->Render.Flags3 bit 2 is set (cancel turn if not)
  3: 0x02CE [0x5B] LOAD_EXT_SCHEDULER: Load scheduler "tlk0" with entities [EventEntity, EventEntity], work=20*
  4: 0x02DD [0x1D] PRINT_EVENT_MESSAGE(message_id=11354*)
    → "Thank you for your generous service."
  5: 0x02E0 [0x23] WAIT_FOR_DIALOG_INTERACTION
  6: 0x02E1 [0x5B] LOAD_EXT_SCHEDULER: Load scheduler "tlk1" with entities [EventEntity, EventEntity], work=20*
  7: 0x02F0 [0x53] WAIT_SCHEDULER_TASK: Wait for scheduler "tlk1" with entities [EventEntity, EventEntity]
  8: 0x02FD [0x1C] WAIT(60* ticks)
  9: 0x0300 [0x5B] LOAD_EXT_SCHEDULER: Load scheduler "ino0" with entities [EventEntity, EventEntity], work=20*
 10: 0x030F [0x1D] PRINT_EVENT_MESSAGE(message_id=11349*)
    → "May Paradise open its gates to you."
 11: 0x0312 [0x23] WAIT_FOR_DIALOG_INTERACTION
 12: 0x0313 [0x53] WAIT_SCHEDULER_TASK: Wait for scheduler "ino0" with entities [EventEntity, EventEntity]
 13: 0x0320 [0x1C] WAIT(30* ticks)
 14: 0x0323 [0x21] END_EVENT
 15: 0x0324 [0x00] END_REQSTACK()
```

### Event 37

#### Metadata

| Field        | Value   |
|--------------|---------|
| Entrypoint   | 0x0325  |
| Data Size    | 4 bytes |
| Instructions | 2       |

```
      00 01 02 03 04 05 06 07  08 09 0A 0B 0C 0D 0E 0F
      -- -- -- -- -- -- -- --  -- -- -- -- -- -- -- --
0320:                32 08 80  00                            2...       
```

#### Opcodes

```
  0: 0x0325 [0x32] ExtData[1]->MainSpeed = 13* * 0.1
  1: 0x0328 [0x00] END_REQSTACK()
```

### Event 48

#### Metadata

| Field        | Value    |
|--------------|----------|
| Entrypoint   | 0x0329   |
| Data Size    | 18 bytes |
| Instructions | 8        |

```
      00 01 02 03 04 05 06 07  08 09 0A 0B 0C 0D 0E 0F
      -- -- -- -- -- -- -- --  -- -- -- -- -- -- -- --
0320:                             1E F0 FF FF 7F 6F 70           .....op
0330: 03 02 10 25 80 1D 26 80  23 21 00                 ...%..&.#!.     
```

#### Opcodes

```
  0: 0x0329 [0x1E] EventEntity looks at LocalPlayer and starts talking
  1: 0x032E [0x6F] WAIT_FRAME_DELAY: Yield until WaitTime reaches zero
  2: 0x032F [0x70] WAIT_ENTITY_RENDER_FLAG: Wait while EventEntity->Render.Flags3 bit 2 is set (cancel turn if not)
  3: 0x0330 [0x03] Work_Zone[2] = 828*
  4: 0x0335 [0x1D] PRINT_EVENT_MESSAGE(message_id=12212*)
    → "Have you come to pray, my child? First fetch $0. You will be judged by your actions, not words."
  5: 0x0338 [0x23] WAIT_FOR_DIALOG_INTERACTION
  6: 0x0339 [0x21] END_EVENT
  7: 0x033A [0x00] END_REQSTACK()
```

### Event 58

#### Metadata

| Field        | Value    |
|--------------|----------|
| Entrypoint   | 0x033B   |
| Data Size    | 17 bytes |
| Instructions | 9        |

```
      00 01 02 03 04 05 06 07  08 09 0A 0B 0C 0D 0E 0F
      -- -- -- -- -- -- -- --  -- -- -- -- -- -- -- --
0330:                                   1E F0 FF FF 7F             .....
0340: 6F 70 1D 27 80 23 1D 28  80 23 21 00              op.'.#.(.#!.    
```

#### Opcodes

```
  0: 0x033B [0x1E] EventEntity looks at LocalPlayer and starts talking
  1: 0x0340 [0x6F] WAIT_FRAME_DELAY: Yield until WaitTime reaches zero
  2: 0x0341 [0x70] WAIT_ENTITY_RENDER_FLAG: Wait while EventEntity->Render.Flags3 bit 2 is set (cancel turn if not)
  3: 0x0342 [0x1D] PRINT_EVENT_MESSAGE(message_id=12227*)
    → "You have angered His Holiness! You had best leave, and reflect upon your trespasses!"
  4: 0x0345 [0x23] WAIT_FOR_DIALOG_INTERACTION
  5: 0x0346 [0x1D] PRINT_EVENT_MESSAGE(message_id=12228*)
    → "Come not hither again! Understood?"
  6: 0x0349 [0x23] WAIT_FOR_DIALOG_INTERACTION
  7: 0x034A [0x21] END_EVENT
  8: 0x034B [0x00] END_REQSTACK()
```

### Event 16

#### Metadata

| Field        | Value    |
|--------------|----------|
| Entrypoint   | 0x034C   |
| Data Size    | 18 bytes |
| Instructions | 4        |

```
      00 01 02 03 04 05 06 07  08 09 0A 0B 0C 0D 0E 0F
      -- -- -- -- -- -- -- --  -- -- -- -- -- -- -- --
0340:                                      22 00 92 01              "...
0350: F8 FF FF 7F 37 29 80 2A  80 04 80 2B 80 00        ....7).*...+..  
```

#### Opcodes

```
  0: 0x034C [0x22] ENTITY_HIDE_FLAG(enabled=0x00)
  1: 0x034E [0x92] EventEntity->Render.Flags3 ^= 0x01
  2: 0x0354 [0x37] UPDATE_EVENT_POSITION_AND_DIR: x=132.216*, z=119.823*, y=0.000*, direction=225.6°*
  3: 0x035D [0x00] END_REQSTACK()
```

### Event 65535.2

#### Metadata

| Field        | Value    |
|--------------|----------|
| Entrypoint   | 0x035E   |
| Data Size    | 14 bytes |
| Instructions | 4        |

```
      00 01 02 03 04 05 06 07  08 09 0A 0B 0C 0D 0E 0F
      -- -- -- -- -- -- -- --  -- -- -- -- -- -- -- --
0350:                                            1F 00                ..
0360: 2C 80 2D 80 2E 80 1F 01  39 2F 80 00              ,.-.....9/..    
```

#### Opcodes

```
  0: 0x035E [0x1F] MOVE_ENTITY: EventEntity moves to X=137.858*, Z=132.504*, Y=6.499*
  1: 0x0366 [0x1F] MOVE_ENTITY: Update entity position (mode=1)
  2: 0x0368 [0x39] SET_ENTITY_DIRECTION(direction=1.1°*)
  3: 0x036B [0x00] END_REQSTACK()
```

### Event 65535.3

#### Metadata

| Field        | Value    |
|--------------|----------|
| Entrypoint   | 0x036C   |
| Data Size    | 16 bytes |
| Instructions | 2        |

```
      00 01 02 03 04 05 06 07  08 09 0A 0B 0C 0D 0E 0F
      -- -- -- -- -- -- -- --  -- -- -- -- -- -- -- --
0360:                                      5B 10 80 F8              [...
0370: FF FF 7F F8 FF FF 7F 69  6E 6F 30 00              .......ino0.    
```

#### Opcodes

```
  0: 0x036C [0x5B] LOAD_EXT_SCHEDULER: Load scheduler "ino0" with entities [EventEntity, EventEntity], work=20*
  1: 0x037B [0x00] END_REQSTACK()
```

### Event 65535.4

#### Metadata

| Field        | Value    |
|--------------|----------|
| Entrypoint   | 0x037C   |
| Data Size    | 14 bytes |
| Instructions | 2        |

```
      00 01 02 03 04 05 06 07  08 09 0A 0B 0C 0D 0E 0F
      -- -- -- -- -- -- -- --  -- -- -- -- -- -- -- --
0370:                                      53 F8 FF FF              S...
0380: 7F F8 FF FF 7F 69 6E 6F  30 00                    .....ino0.      
```

#### Opcodes

```
  0: 0x037C [0x53] WAIT_SCHEDULER_TASK: Wait for scheduler "ino0" with entities [EventEntity, EventEntity]
  1: 0x0389 [0x00] END_REQSTACK()
```

### Event 65535.5

#### Metadata

| Field        | Value    |
|--------------|----------|
| Entrypoint   | 0x038A   |
| Data Size    | 16 bytes |
| Instructions | 2        |

```
      00 01 02 03 04 05 06 07  08 09 0A 0B 0C 0D 0E 0F
      -- -- -- -- -- -- -- --  -- -- -- -- -- -- -- --
0380:                                5B 10 80 F8 FF FF            [.....
0390: 7F F8 FF FF 7F 74 6C 6B  30 00                    .....tlk0.      
```

#### Opcodes

```
  0: 0x038A [0x5B] LOAD_EXT_SCHEDULER: Load scheduler "tlk0" with entities [EventEntity, EventEntity], work=20*
  1: 0x0399 [0x00] END_REQSTACK()
```

### Event 65535.6

#### Metadata

| Field        | Value    |
|--------------|----------|
| Entrypoint   | 0x039A   |
| Data Size    | 22 bytes |
| Instructions | 4        |

```
      00 01 02 03 04 05 06 07  08 09 0A 0B 0C 0D 0E 0F
      -- -- -- -- -- -- -- --  -- -- -- -- -- -- -- --
0390:                                1C 12 80 5B 10 80            ...[..
03A0: F8 FF FF 7F F8 FF FF 7F  74 6C 6B 31 1C 12 80 00  ........tlk1....
```

#### Opcodes

```
  0: 0x039A [0x1C] WAIT(30* ticks)
  1: 0x039D [0x5B] LOAD_EXT_SCHEDULER: Load scheduler "tlk1" with entities [EventEntity, EventEntity], work=20*
  2: 0x03AC [0x1C] WAIT(30* ticks)
  3: 0x03AF [0x00] END_REQSTACK()
```
