# 17723666

## Common Data

| Field            | Value                         |
|------------------|-------------------------------|
| Zone             | Northern San d'Oria (ID: 231) |
| Block Size       | 3692 bytes                    |
| Total Events     | 2                             |
| References Count | 89                            |

## List of Events

| Event ID              | Entrypoint   |   Size |   Instructions |
|-----------------------|--------------|--------|----------------|
| [65535](#event-65535) | 0x0000       |    658 |             62 |
| [866](#event-866)     | 0x0292       |   2653 |            303 |

## DAT References (imed_data)

|   Index | Hex Value   |   Dec Value |
|---------|-------------|-------------|
|       0 | 0x00C8      |         200 |
|       1 | 0x0000      |           0 |
|       2 | 0x00C9      |         201 |
|       3 | 0x0001      |           1 |
|       4 | 0x002D      |          45 |
|       5 | 0x0002      |           2 |
|       6 | 0x001E      |          30 |
|       7 | 0x00D7      |         215 |
|       8 | 0x0013      |          19 |
|       9 | 0xFFFFF3AB  |  4294964139 |
|      10 | 0x16D20     |       93472 |
|      11 | 0x0C27      |        3111 |
|      12 | 0x000D      |          13 |
|      13 | 0x01EE      |         494 |
|      14 | 0x0050      |          80 |
|      15 | 0x4672      |       18034 |
|      16 | 0x0078      |         120 |
|      17 | 0x4673      |       18035 |
|      18 | 0x000A      |          10 |
|      19 | 0x0014      |          20 |
|      20 | 0x003C      |          60 |
|      21 | 0x4674      |       18036 |
|      22 | 0xFFFFF949  |  4294965577 |
|      23 | 0x17D93     |       97683 |
|      24 | 0x086F      |        2159 |
|      25 | 0xFFFFF2F7  |  4294963959 |
|      26 | 0x1915B     |      102747 |
|      27 | 0xFFFFFD3A  |  4294966586 |
|      28 | 0x0463      |        1123 |
|      29 | 0x4675      |       18037 |
|      30 | 0x00E9      |         233 |
|      31 | 0x08D7      |        2263 |
|      32 | 0xFFFFFA34  |  4294965812 |
|      33 | 0x0BB8      |        3000 |
|      34 | 0x0974      |        2420 |
|      35 | 0x07AE      |        1966 |
|      36 | 0x0494      |        1172 |
|      37 | 0xA8F7      |       43255 |
|      38 | 0xFFFFF2B8  |  4294963896 |
|      39 | 0x043E      |        1086 |
|      40 | 0xFFFFFA4D  |  4294965837 |
|      41 | 0xA3EE      |       41966 |
|      42 | 0xFFFFF2BA  |  4294963898 |
|      43 | 0x0327      |         807 |
|      44 | 0x0873      |        2163 |
|      45 | 0xA55D      |       42333 |
|      46 | 0x0491      |        1169 |
|      47 | 0x009C      |         156 |
|      48 | 0x4679      |       18041 |
|      49 | 0x03A2      |         930 |
|      50 | 0x8E03      |       36355 |
|      51 | 0xFFFFF448  |  4294964296 |
|      52 | 0x0BB9      |        3001 |
|      53 | 0xFFFFFC8C  |  4294966412 |
|      54 | 0x8DB4      |       36276 |
|      55 | 0x0064      |         100 |
|      56 | 0x006E      |         110 |
|      57 | 0x467A      |       18042 |
|      58 | 0x467B      |       18043 |
|      59 | 0x0083      |         131 |
|      60 | 0x467C      |       18044 |
|      61 | 0x001D      |          29 |
|      62 | 0x467D      |       18045 |
|      63 | 0x0073      |         115 |
|      64 | 0x467E      |       18046 |
|      65 | 0x467F      |       18047 |
|      66 | 0x4680      |       18048 |
|      67 | 0x4681      |       18049 |
|      68 | 0x0074      |         116 |
|      69 | 0x4682      |       18050 |
|      70 | 0x4683      |       18051 |
|      71 | 0x4684      |       18052 |
|      72 | 0x0079      |         121 |
|      73 | 0x4685      |       18053 |
|      74 | 0x4686      |       18054 |
|      75 | 0x4687      |       18055 |
|      76 | 0x4688      |       18056 |
|      77 | 0x4689      |       18057 |
|      78 | 0x468A      |       18058 |
|      79 | 0x468B      |       18059 |
|      80 | 0x468C      |       18060 |
|      81 | 0x468D      |       18061 |
|      82 | 0x468E      |       18062 |
|      83 | 0x468F      |       18063 |
|      84 | 0x01ED      |         493 |
|      85 | 0x000F      |          15 |
|      86 | 0x00E7      |         231 |
|      87 | 0x00FF      |         255 |
|      88 | 0x006B      |         107 |

## Events

### Event 65535

#### Metadata

| Field        | Value     |
|--------------|-----------|
| Entrypoint   | 0x0000    |
| Data Size    | 658 bytes |
| Instructions | 1         |

```
      00 01 02 03 04 05 06 07  08 09 0A 0B 0C 0D 0E 0F
      -- -- -- -- -- -- -- --  -- -- -- -- -- -- -- --
0000: 00 45 00 80 F0 FF FF 7F  F0 FF FF 7F 66 64 69 30  .E..........fdi0
0010: 01 80 55 00 80 F0 FF FF  7F F0 FF FF 7F 66 64 69  ..U..........fdi
0020: 30 1B 45 00 80 F0 FF FF  7F F0 FF FF 7F 66 64 6F  0.E..........fdo
0030: 30 01 80 55 00 80 F0 FF  FF 7F F0 FF FF 7F 66 64  0..U..........fd
0040: 6F 30 1B 45 00 80 F0 FF  FF 7F F0 FF FF 7F 66 64  o0.E..........fd
0050: 69 31 01 80 55 00 80 F0  FF FF 7F F0 FF FF 7F 66  i1..U..........f
0060: 64 69 31 1B 45 00 80 F0  FF FF 7F F0 FF FF 7F 66  di1.E..........f
0070: 64 6F 31 01 80 55 00 80  F0 FF FF 7F F0 FF FF 7F  do1..U..........
0080: 66 64 6F 31 1B 45 02 80  F0 FF FF 7F F0 FF FF 7F  fdo1.E..........
0090: 77 68 69 31 01 80 55 02  80 F0 FF FF 7F F0 FF FF  whi1..U.........
00A0: 7F 77 68 69 31 1B 45 02  80 F0 FF FF 7F F0 FF FF  .whi1.E.........
00B0: 7F 77 68 6F 31 01 80 55  02 80 F0 FF FF 7F F0 FF  .who1..U........
00C0: FF 7F 77 68 6F 31 1B 45  02 80 F0 FF FF 7F F0 FF  ..who1.E........
00D0: FF 7F 77 68 6F 32 01 80  55 02 80 F0 FF FF 7F F0  ..who2..U.......
00E0: FF FF 7F 77 68 6F 32 1B  45 02 80 F0 FF FF 7F F0  ...who2.E.......
00F0: FF FF 7F 77 68 6F 33 01  80 55 02 80 F0 FF FF 7F  ...who3..U......
0100: F0 FF FF 7F 77 68 6F 33  1B 62 03 80 F0 FF FF 7F  ....who3.b......
0110: F0 FF FF 7F 6D 61 69 6E  01 80 1C 04 80 45 00 80  ....main.....E..
0120: F0 FF FF 7F F0 FF FF 7F  66 64 6F 31 01 80 55 00  ........fdo1..U.
0130: 80 F0 FF FF 7F F0 FF FF  7F 66 64 6F 31 1B 45 00  .........fdo1.E.
0140: 80 F0 FF FF 7F F0 FF FF  7F 66 64 69 31 01 80 62  .........fdi1..b
0150: 05 80 F0 FF FF 7F F0 FF  FF 7F 6D 61 69 6E 01 80  ..........main..
0160: 1C 06 80 55 00 80 F0 FF  FF 7F F0 FF FF 7F 66 64  ...U..........fd
0170: 69 31 1B 45 00 80 F0 FF  FF 7F F0 FF FF 7F 62 6C  i1.E..........bl
0180: 6F 6E 01 80 45 02 80 F0  FF FF 7F F0 FF FF 7F 62  on..E..........b
0190: 6C 6F 6E 01 80 1B 45 02  80 F0 FF FF 7F F0 FF FF  lon...E.........
01A0: 7F 77 68 69 30 01 80 55  02 80 F0 FF FF 7F F0 FF  .whi0..U........
01B0: FF 7F 77 68 69 30 1B 45  02 80 F0 FF FF 7F F0 FF  ..whi0.E........
01C0: FF 7F 77 68 6F 30 01 80  55 02 80 F0 FF FF 7F F0  ..who0..U.......
01D0: FF FF 7F 77 68 6F 30 1B  45 07 80 F0 FF FF 7F F0  ...who0.E.......
01E0: FF FF 7F 65 66 6F 6E 01  80 55 07 80 F0 FF FF 7F  ...efon..U......
01F0: F0 FF FF 7F 65 66 6F 6E  1B 45 00 80 F0 FF FF 7F  ....efon.E......
0200: F0 FF FF 7F 66 64 69 73  01 80 1B 45 00 80 F0 FF  ....fdis...E....
0210: FF 7F F0 FF FF 7F 66 64  6F 73 01 80 55 00 80 F0  ......fdos..U...
0220: FF FF 7F F0 FF FF 7F 66  64 6F 73 1B 45 00 80 F0  .......fdos.E...
0230: FF FF 7F F0 FF FF 7F 66  64 69 66 01 80 1B 45 00  .......fdif...E.
0240: 80 F0 FF FF 7F F0 FF FF  7F 66 64 6F 66 01 80 55  .........fdof..U
0250: 00 80 F0 FF FF 7F F0 FF  FF 7F 66 64 6F 66 1B 45  ..........fdof.E
0260: 00 80 F0 FF FF 7F F0 FF  FF 7F 66 64 69 70 01 80  ..........fdip..
0270: 1B 45 00 80 F0 FF FF 7F  F0 FF FF 7F 66 64 6F 70  .E..........fdop
0280: 01 80 55 00 80 F0 FF FF  7F F0 FF FF 7F 66 64 6F  ..U..........fdo
0290: 70 1B                                             p.              
```

#### Opcodes

```
  0: 0x0000 [0x00] END_REQSTACK()
```

#### Data or dead code:

```
# Dead code (unreachable instructions):
     0x0001 [0x45] LOAD_SCHEDULED_TASK: Load scheduler "fdi0" with entities [LocalPlayer, LocalPlayer], work=[200*, 0*]
     0x0012 [0x55] WAIT_LOAD_SCHEDULER: Wait for scheduler "fdi0" with entities [LocalPlayer, LocalPlayer], work=200*
     0x0021 [0x1B] RETURN
     0x0022 [0x45] LOAD_SCHEDULED_TASK: Load scheduler "fdo0" with entities [LocalPlayer, LocalPlayer], work=[200*, 0*]
     0x0033 [0x55] WAIT_LOAD_SCHEDULER: Wait for scheduler "fdo0" with entities [LocalPlayer, LocalPlayer], work=200*
     0x0042 [0x1B] RETURN
     0x0043 [0x45] LOAD_SCHEDULED_TASK: Load scheduler "fdi1" with entities [LocalPlayer, LocalPlayer], work=[200*, 0*]
     0x0054 [0x55] WAIT_LOAD_SCHEDULER: Wait for scheduler "fdi1" with entities [LocalPlayer, LocalPlayer], work=200*
     0x0063 [0x1B] RETURN
     0x0064 [0x45] LOAD_SCHEDULED_TASK: Load scheduler "fdo1" with entities [LocalPlayer, LocalPlayer], work=[200*, 0*]
     0x0075 [0x55] WAIT_LOAD_SCHEDULER: Wait for scheduler "fdo1" with entities [LocalPlayer, LocalPlayer], work=200*
     0x0084 [0x1B] RETURN
     0x0085 [0x45] LOAD_SCHEDULED_TASK: Load scheduler "whi1" with entities [LocalPlayer, LocalPlayer], work=[201*, 0*]
     0x0096 [0x55] WAIT_LOAD_SCHEDULER: Wait for scheduler "whi1" with entities [LocalPlayer, LocalPlayer], work=201*
     0x00A5 [0x1B] RETURN
     0x00A6 [0x45] LOAD_SCHEDULED_TASK: Load scheduler "who1" with entities [LocalPlayer, LocalPlayer], work=[201*, 0*]
     0x00B7 [0x55] WAIT_LOAD_SCHEDULER: Wait for scheduler "who1" with entities [LocalPlayer, LocalPlayer], work=201*
     0x00C6 [0x1B] RETURN
     0x00C7 [0x45] LOAD_SCHEDULED_TASK: Load scheduler "who2" with entities [LocalPlayer, LocalPlayer], work=[201*, 0*]
     0x00D8 [0x55] WAIT_LOAD_SCHEDULER: Wait for scheduler "who2" with entities [LocalPlayer, LocalPlayer], work=201*
     0x00E7 [0x1B] RETURN
     0x00E8 [0x45] LOAD_SCHEDULED_TASK: Load scheduler "who3" with entities [LocalPlayer, LocalPlayer], work=[201*, 0*]
     0x00F9 [0x55] WAIT_LOAD_SCHEDULER: Wait for scheduler "who3" with entities [LocalPlayer, LocalPlayer], work=201*
     0x0108 [0x1B] RETURN
     0x0109 [0x62] LOAD_EVENT_SCHEDULER: Load scheduler "main" with entities [LocalPlayer, LocalPlayer], work=[1*, 0*]
     0x011A [0x1C] WAIT(45* ticks)
     0x011D [0x45] LOAD_SCHEDULED_TASK: Load scheduler "fdo1" with entities [LocalPlayer, LocalPlayer], work=[200*, 0*]
     0x012E [0x55] WAIT_LOAD_SCHEDULER: Wait for scheduler "fdo1" with entities [LocalPlayer, LocalPlayer], work=200*
     0x013D [0x1B] RETURN
     0x013E [0x45] LOAD_SCHEDULED_TASK: Load scheduler "fdi1" with entities [LocalPlayer, LocalPlayer], work=[200*, 0*]
     0x014F [0x62] LOAD_EVENT_SCHEDULER: Load scheduler "main" with entities [LocalPlayer, LocalPlayer], work=[2*, 0*]
     0x0160 [0x1C] WAIT(30* ticks)
     0x0163 [0x55] WAIT_LOAD_SCHEDULER: Wait for scheduler "fdi1" with entities [LocalPlayer, LocalPlayer], work=200*
     0x0172 [0x1B] RETURN
     0x0173 [0x45] LOAD_SCHEDULED_TASK: Load scheduler "blon" with entities [LocalPlayer, LocalPlayer], work=[200*, 0*]
     0x0184 [0x45] LOAD_SCHEDULED_TASK: Load scheduler "blon" with entities [LocalPlayer, LocalPlayer], work=[201*, 0*]
     0x0195 [0x1B] RETURN
     0x0196 [0x45] LOAD_SCHEDULED_TASK: Load scheduler "whi0" with entities [LocalPlayer, LocalPlayer], work=[201*, 0*]
     0x01A7 [0x55] WAIT_LOAD_SCHEDULER: Wait for scheduler "whi0" with entities [LocalPlayer, LocalPlayer], work=201*
     0x01B6 [0x1B] RETURN
     0x01B7 [0x45] LOAD_SCHEDULED_TASK: Load scheduler "who0" with entities [LocalPlayer, LocalPlayer], work=[201*, 0*]
     0x01C8 [0x55] WAIT_LOAD_SCHEDULER: Wait for scheduler "who0" with entities [LocalPlayer, LocalPlayer], work=201*
     0x01D7 [0x1B] RETURN
     0x01D8 [0x45] LOAD_SCHEDULED_TASK: Load scheduler "efon" with entities [LocalPlayer, LocalPlayer], work=[215*, 0*]
     0x01E9 [0x55] WAIT_LOAD_SCHEDULER: Wait for scheduler "efon" with entities [LocalPlayer, LocalPlayer], work=215*
     0x01F8 [0x1B] RETURN
     0x01F9 [0x45] LOAD_SCHEDULED_TASK: Load scheduler "fdis" with entities [LocalPlayer, LocalPlayer], work=[200*, 0*]
     0x020A [0x1B] RETURN
     0x020B [0x45] LOAD_SCHEDULED_TASK: Load scheduler "fdos" with entities [LocalPlayer, LocalPlayer], work=[200*, 0*]
     0x021C [0x55] WAIT_LOAD_SCHEDULER: Wait for scheduler "fdos" with entities [LocalPlayer, LocalPlayer], work=200*
     0x022B [0x1B] RETURN
     0x022C [0x45] LOAD_SCHEDULED_TASK: Load scheduler "fdif" with entities [LocalPlayer, LocalPlayer], work=[200*, 0*]
     0x023D [0x1B] RETURN
     0x023E [0x45] LOAD_SCHEDULED_TASK: Load scheduler "fdof" with entities [LocalPlayer, LocalPlayer], work=[200*, 0*]
     0x024F [0x55] WAIT_LOAD_SCHEDULER: Wait for scheduler "fdof" with entities [LocalPlayer, LocalPlayer], work=200*
     0x025E [0x1B] RETURN
     0x025F [0x45] LOAD_SCHEDULED_TASK: Load scheduler "fdip" with entities [LocalPlayer, LocalPlayer], work=[200*, 0*]
     0x0270 [0x1B] RETURN
     0x0271 [0x45] LOAD_SCHEDULED_TASK: Load scheduler "fdop" with entities [LocalPlayer, LocalPlayer], work=[200*, 0*]
     0x0282 [0x55] WAIT_LOAD_SCHEDULER: Wait for scheduler "fdop" with entities [LocalPlayer, LocalPlayer], work=200*
     0x0291 [0x1B] RETURN
```

### Event 866

#### Metadata

| Field        | Value      |
|--------------|------------|
| Entrypoint   | 0x0292     |
| Data Size    | 2653 bytes |
| Instructions | 303        |

```
      00 01 02 03 04 05 06 07  08 09 0A 0B 0C 0D 0E 0F
      -- -- -- -- -- -- -- --  -- -- -- -- -- -- -- --
0290:       42 45 00 80 F8 FF  FF 7F F8 FF FF 7F 66 64    BE..........fd
02A0: 6F 31 01 80 55 00 80 F8  FF FF 7F F8 FF FF 7F 66  o1..U..........f
02B0: 64 6F 31 46 01 38 08 80  4E 00 05 70 0E 01 4E 00  do1F.8..N..p..N.
02C0: 06 70 0E 01 92 01 05 70  0E 01 92 01 06 70 0E 01  .p.....p.....p..
02D0: 94 01 F0 FF FF 7F 94 01  05 70 0E 01 94 01 06 70  .........p.....p
02E0: 0E 01 BA F0 FF FF 7F 09  80 0A 80 01 80 0B 80 7B  ...............{
02F0: F0 FF FF 7F 7B 05 70 0E  01 7B 06 70 0E 01 80 F0  ....{.p..{.p....
0300: FF FF 7F 80 05 70 0E 01  80 06 70 0E 01 59 04 F0  .....p....p..Y..
0310: FF FF 7F 0C 80 27 10 F0  FF FF 7F 76 1C 06 80 45  .....'.....v...E
0320: 0D 80 F0 FF FF 7F F0 FF  FF 7F 6F 31 30 31 01 80  ..........o101..
0330: 1A 43 00 1C 0E 80 79 00  05 70 0E 01 F0 FF FF 7F  .C....y..p......
0340: 52 0D 80 F0 FF FF 7F F0  FF FF 7F 6F 31 30 31 45  R..........o101E
0350: 0D 80 F0 FF FF 7F F0 FF  FF 7F 6F 31 30 32 01 80  ..........o102..
0360: 2B 05 70 0E 01 0F 80 23  52 0D 80 F0 FF FF 7F F0  +.p....#R.......
0370: FF FF 7F 6F 31 30 32 45  0D 80 F0 FF FF 7F F0 FF  ...o102E........
0380: FF 7F 6F 31 30 33 01 80  27 10 F0 FF FF 7F 77 4A  ..o103..'.....wJ
0390: 05 70 0E 01 F0 FF FF 7F  7B 05 70 0E 01 1C 10 80  .p......{.p.....
03A0: 27 10 F0 FF FF 7F 78 2B  05 70 0E 01 11 80 23 1C  '.....x+.p....#.
03B0: 12 80 66 13 80 05 70 0E  01 05 70 0E 01 74 68 6B  ..f...p...p..thk
03C0: 31 52 0D 80 F0 FF FF 7F  F0 FF FF 7F 6F 31 30 33  1R..........o103
03D0: 45 0D 80 F0 FF FF 7F F0  FF FF 7F 6F 31 32 39 01  E..........o129.
03E0: 80 1C 14 80 2B 05 70 0E  01 15 80 23 27 10 05 70  ....+.p....#'..p
03F0: 0E 01 07 52 0D 80 F0 FF  FF 7F F0 FF FF 7F 6F 31  ...R..........o1
0400: 32 39 45 0D 80 F0 FF FF  7F F0 FF FF 7F 6F 31 30  29E..........o10
0410: 34 01 80 1C 0E 80 45 00  80 F0 FF FF 7F F0 FF FF  4.....E.........
0420: 7F 66 64 6F 32 01 80 55  00 80 F0 FF FF 7F F0 FF  .fdo2..U........
0430: FF 7F 66 64 6F 32 52 0D  80 F0 FF FF 7F F0 FF FF  ..fdo2R.........
0440: 7F 6F 31 30 34 7A 00 05  70 0E 01 BA F0 FF FF 7F  .o104z..p.......
0450: 16 80 17 80 01 80 18 80  BA 05 70 0E 01 19 80 1A  ..........p.....
0460: 80 1B 80 1C 80 1C 14 80  27 10 05 70 0E 01 08 45  ........'..p...E
0470: 0D 80 F0 FF FF 7F F0 FF  FF 7F 6F 31 30 35 01 80  ..........o105..
0480: 45 00 80 F0 FF FF 7F F0  FF FF 7F 66 64 69 32 01  E..........fdi2.
0490: 80 55 00 80 F0 FF FF 7F  F0 FF FF 7F 66 64 69 32  .U..........fdi2
04A0: 2B 05 70 0E 01 1D 80 23  6E F0 FF FF 7F 03 80 99  +.p....#n.......
04B0: F0 FF FF 7F 1C 14 80 45  00 80 F0 FF FF 7F F0 FF  .......E........
04C0: FF 7F 66 64 6F 32 01 80  55 00 80 F0 FF FF 7F F0  ..fdo2..U.......
04D0: FF FF 7F 66 64 6F 32 52  0D 80 F0 FF FF 7F F0 FF  ...fdo2R........
04E0: FF 7F 6F 31 30 35 7A 00  F0 FF FF 7F 7A 00 13 71  ..o105z.....z..q
04F0: 0E 01 1C 12 80 5D 01 80  10 80 34 1E 80 77 01 80  .....]....4..w..
0500: 03 80 AB 09 4E 01 05 70  0E 01 4E 01 06 70 0E 01  ....N..p..N..p..
0510: 4E 00 13 71 0E 01 4E 00  14 71 0E 01 4E 00 02 70  N..q..N..q..N..p
0520: 0E 01 4E 00 03 70 0E 01  92 01 13 71 0E 01 92 01  ..N..p.....q....
0530: 14 71 0E 01 92 01 02 70  0E 01 92 01 03 70 0E 01  .q.....p.....p..
0540: 94 01 F0 FF FF 7F 94 01  13 71 0E 01 94 01 14 71  .........q.....q
0550: 0E 01 94 01 02 70 0E 01  94 01 03 70 0E 01 BA F0  .....p.....p....
0560: FF FF 7F 1F 80 20 80 01  80 21 80 BA 13 71 0E 01  ..... ...!...q..
0570: 22 80 23 80 01 80 24 80  BA 14 71 0E 01 03 80 25  ".#...$...q....%
0580: 80 26 80 27 80 BA 02 70  0E 01 28 80 29 80 2A 80  .&.'...p..(.).*.
0590: 2B 80 BA 03 70 0E 01 2C  80 2D 80 2A 80 2E 80 7B  +...p..,.-.*...{
05A0: F0 FF FF 7F 7B 13 71 0E  01 7B 14 71 0E 01 7B 02  ....{.q..{.q..{.
05B0: 70 0E 01 7B 03 70 0E 01  80 F0 FF FF 7F 80 13 71  p..{.p.........q
05C0: 0E 01 80 14 71 0E 01 80  02 70 0E 01 80 03 70 0E  ....q....p....p.
05D0: 01 4A F0 FF FF 7F 13 71  0E 01 4A 13 71 0E 01 F0  .J.....q..J.q...
05E0: FF FF 7F 5C 00 2F 80 5C  01 2F 80 9A 1C 06 80 45  ...\./.\./.....E
05F0: 0D 80 F0 FF FF 7F F0 FF  FF 7F 6F 31 30 38 01 80  ..........o108..
0600: 45 00 80 F0 FF FF 7F F0  FF FF 7F 66 64 69 32 01  E..........fdi2.
0610: 80 55 00 80 F0 FF FF 7F  F0 FF FF 7F 66 64 69 32  .U..........fdi2
0620: 1C 10 80 52 0D 80 F0 FF  FF 7F F0 FF FF 7F 6F 31  ...R..........o1
0630: 30 38 45 0D 80 F0 FF FF  7F F0 FF FF 7F 6F 31 30  08E..........o10
0640: 37 01 80 2B 13 71 0E 01  30 80 23 59 04 F0 FF FF  7..+.q..0.#Y....
0650: 7F 0C 80 59 04 13 71 0E  01 0C 80 27 10 13 71 0E  ...Y..q....'..q.
0660: 01 09 1C 13 80 52 0D 80  F0 FF FF 7F F0 FF FF 7F  .....R..........
0670: 6F 31 30 37 45 0D 80 F0  FF FF 7F F0 FF FF 7F 6F  o107E..........o
0680: 31 33 30 01 80 27 10 F0  FF FF 7F 79 1C 10 80 45  130..'.....y...E
0690: 00 80 F0 FF FF 7F F0 FF  FF 7F 66 64 6F 32 01 80  ..........fdo2..
06A0: 55 00 80 F0 FF FF 7F F0  FF FF 7F 66 64 6F 32 52  U..........fdo2R
06B0: 0D 80 F0 FF FF 7F F0 FF  FF 7F 6F 31 33 30 7A 00  ..........o130z.
06C0: F0 FF FF 7F 7A 00 13 71  0E 01 BA F0 FF FF 7F 31  ....z..q.......1
06D0: 80 32 80 33 80 34 80 BA  13 71 0E 01 35 80 36 80  .2.3.4...q..5.6.
06E0: 33 80 21 80 7B F0 FF FF  7F 7B 13 71 0E 01 29 10  3.!.{....{.q..).
06F0: F0 FF FF 7F 7A 1C 37 80  45 0D 80 F0 FF FF 7F F0  ....z.7.E.......
0700: FF FF 7F 6F 31 30 39 01  80 45 00 80 F0 FF FF 7F  ...o109..E......
0710: F0 FF FF 7F 66 64 69 32  01 80 55 00 80 F0 FF FF  ....fdi2..U.....
0720: 7F F0 FF FF 7F 66 64 69  32 1C 38 80 52 0D 80 F0  .....fdi2.8.R...
0730: FF FF 7F F0 FF FF 7F 6F  31 30 39 45 0D 80 F0 FF  .......o109E....
0740: FF 7F F0 FF FF 7F 6F 31  31 30 01 80 2B 14 71 0E  ......o110..+.q.
0750: 01 39 80 23 52 0D 80 F0  FF FF 7F F0 FF FF 7F 6F  .9.#R..........o
0760: 31 31 30 45 0D 80 F0 FF  FF 7F F0 FF FF 7F 6F 31  110E..........o1
0770: 31 31 01 80 7C 00 03 70  0E 01 2B 03 70 0E 01 3A  11..|..p..+.p..:
0780: 80 23 7C 01 03 70 0E 01  52 0D 80 F0 FF FF 7F F0  .#|..p..R.......
0790: FF FF 7F 6F 31 31 31 45  0D 80 F0 FF FF 7F F0 FF  ...o111E........
07A0: FF 7F 6F 31 31 32 01 80  5B 3B 80 14 71 0E 01 14  ..o112..[;..q...
07B0: 71 0E 01 73 74 6B 30 2B  14 71 0E 01 3C 80 23 5B  q..stk0+.q..<.#[
07C0: 3B 80 14 71 0E 01 14 71  0E 01 73 74 6B 31 52 0D  ;..q...q..stk1R.
07D0: 80 F0 FF FF 7F F0 FF FF  7F 6F 31 31 32 45 0D 80  .........o112E..
07E0: F0 FF FF 7F F0 FF FF 7F  6F 31 31 33 01 80 4A 13  ........o113..J.
07F0: 71 0E 01 02 70 0E 01 4A  02 70 0E 01 13 71 0E 01  q...p..J.p...q..
0800: 66 3D 80 13 71 0E 01 13  71 0E 01 74 6C 6B 30 2B  f=..q...q..tlk0+
0810: 13 71 0E 01 3E 80 23 52  0D 80 F0 FF FF 7F F0 FF  .q..>.#R........
0820: FF 7F 6F 31 31 33 45 0D  80 F0 FF FF 7F F0 FF FF  ..o113E.........
0830: 7F 6F 31 31 34 01 80 66  3D 80 13 71 0E 01 13 71  .o114..f=..q...q
0840: 0E 01 74 6C 6B 31 5B 3F  80 02 70 0E 01 02 70 0E  ..tlk1[?..p...p.
0850: 01 61 72 61 30 2B 02 70  0E 01 40 80 23 52 0D 80  .ara0+.p..@.#R..
0860: F0 FF FF 7F F0 FF FF 7F  6F 31 31 34 45 0D 80 F0  ........o114E...
0870: FF FF 7F F0 FF FF 7F 6F  31 31 35 01 80 5B 3F 80  .......o115..[?.
0880: 02 70 0E 01 02 70 0E 01  61 72 61 31 66 3D 80 13  .p...p..ara1f=..
0890: 71 0E 01 13 71 0E 01 74  6C 6B 30 2B 13 71 0E 01  q...q..tlk0+.q..
08A0: 41 80 23 2B 13 71 0E 01  42 80 23 66 3D 80 13 71  A.#+.q..B.#f=..q
08B0: 0E 01 13 71 0E 01 74 6C  6B 31 52 0D 80 F0 FF FF  ...q..tlk1R.....
08C0: 7F F0 FF FF 7F 6F 31 31  35 45 0D 80 F0 FF FF 7F  .....o115E......
08D0: F0 FF FF 7F 6F 31 33 31  01 80 1C 10 80 52 0D 80  ....o131.....R..
08E0: F0 FF FF 7F F0 FF FF 7F  6F 31 33 31 45 0D 80 F0  ........o131E...
08F0: FF FF 7F F0 FF FF 7F 6F  31 31 36 01 80 2B 03 70  .......o116..+.p
0900: 0E 01 43 80 23 52 0D 80  F0 FF FF 7F F0 FF FF 7F  ..C.#R..........
0910: 6F 31 31 36 45 0D 80 F0  FF FF 7F F0 FF FF 7F 6F  o116E..........o
0920: 31 31 37 01 80 5B 44 80  02 70 0E 01 02 70 0E 01  117..[D..p...p..
0930: 70 75 69 30 4A 13 71 0E  01 03 70 0E 01 1C 10 80  pui0J.q...p.....
0940: 5B 44 80 02 70 0E 01 02  70 0E 01 70 75 69 31 52  [D..p...p..pui1R
0950: 0D 80 F0 FF FF 7F F0 FF  FF 7F 6F 31 31 37 45 0D  ..........o117E.
0960: 80 F0 FF FF 7F F0 FF FF  7F 6F 31 31 38 01 80 66  .........o118..f
0970: 3D 80 13 71 0E 01 13 71  0E 01 74 6C 6B 30 2B 13  =..q...q..tlk0+.
0980: 71 0E 01 45 80 23 52 0D  80 F0 FF FF 7F F0 FF FF  q..E.#R.........
0990: 7F 6F 31 31 38 45 0D 80  F0 FF FF 7F F0 FF FF 7F  .o118E..........
09A0: 6F 31 31 39 01 80 66 3D  80 13 71 0E 01 13 71 0E  o119..f=..q...q.
09B0: 01 74 6C 6B 31 66 10 80  03 70 0E 01 03 70 0E 01  .tlk1f...p...p..
09C0: 74 6C 6B 30 79 00 03 70  0E 01 13 71 0E 01 2B 03  tlk0y..p...q..+.
09D0: 70 0E 01 46 80 23 66 10  80 03 70 0E 01 03 70 0E  p..F.#f...p...p.
09E0: 01 74 6C 6B 31 52 0D 80  F0 FF FF 7F F0 FF FF 7F  .tlk1R..........
09F0: 6F 31 31 39 45 0D 80 F0  FF FF 7F F0 FF FF 7F 6F  o119E..........o
0A00: 31 32 30 01 80 2B 13 71  0E 01 47 80 23 52 0D 80  120..+.q..G.#R..
0A10: F0 FF FF 7F F0 FF FF 7F  6F 31 32 30 45 0D 80 F0  ........o120E...
0A20: FF FF 7F F0 FF FF 7F 6F  31 32 31 01 80 4A 02 70  .......o121..J.p
0A30: 0E 01 03 70 0E 01 66 48  80 03 70 0E 01 03 70 0E  ...p..fH..p...p.
0A40: 01 74 68 6B 30 2B 03 70  0E 01 49 80 23 2B 03 70  .thk0+.p..I.#+.p
0A50: 0E 01 4A 80 23 66 48 80  03 70 0E 01 03 70 0E 01  ..J.#fH..p...p..
0A60: 74 68 6B 31 6F 76 02 70  0E 01 52 0D 80 F0 FF FF  thk1ov.p..R.....
0A70: 7F F0 FF FF 7F 6F 31 32  31 45 0D 80 F0 FF FF 7F  .....o121E......
0A80: F0 FF FF 7F 6F 31 32 32  01 80 7B 03 70 0E 01 5B  ....o122..{.p..[
0A90: 3F 80 02 70 0E 01 02 70  0E 01 6C 61 75 30 2B 02  ?..p...p..lau0+.
0AA0: 70 0E 01 4B 80 23 5B 3F  80 02 70 0E 01 02 70 0E  p..K.#[?..p...p.
0AB0: 01 6C 61 75 31 52 0D 80  F0 FF FF 7F F0 FF FF 7F  .lau1R..........
0AC0: 6F 31 32 32 03 00 00 09  10 02 00 00 01 80 80 D7  o122............
0AD0: 0A 1C 03 80 01 0D 0C 02  00 00 03 80 80 0D 0C 45  ...............E
0AE0: 0D 80 F0 FF FF 7F F0 FF  FF 7F 6F 31 32 33 01 80  ..........o123..
0AF0: 4A 02 70 0E 01 F0 FF FF  7F 4A 13 71 0E 01 14 71  J.p......J.q...q
0B00: 0E 01 6F 76 02 70 0E 01  2B 02 70 0E 01 4C 80 23  ..ov.p..+.p..L.#
0B10: 52 0D 80 F0 FF FF 7F F0  FF FF 7F 6F 31 32 33 45  R..........o123E
0B20: 0D 80 F0 FF FF 7F F0 FF  FF 7F 6F 31 32 34 01 80  ..........o124..
0B30: 66 3D 80 13 71 0E 01 13  71 0E 01 74 6C 6B 30 2B  f=..q...q..tlk0+
0B40: 13 71 0E 01 4D 80 23 2B  13 71 0E 01 4E 80 23 66  .q..M.#+.q..N.#f
0B50: 3D 80 13 71 0E 01 13 71  0E 01 74 6C 6B 31 52 0D  =..q...q..tlk1R.
0B60: 80 F0 FF FF 7F F0 FF FF  7F 6F 31 32 34 45 0D 80  .........o124E..
0B70: F0 FF FF 7F F0 FF FF 7F  6F 31 32 35 01 80 5B 3F  ........o125..[?
0B80: 80 02 70 0E 01 02 70 0E  01 74 6C 6B 30 2B 02 70  ..p...p..tlk0+.p
0B90: 0E 01 4F 80 23 52 0D 80  F0 FF FF 7F F0 FF FF 7F  ..O.#R..........
0BA0: 6F 31 32 35 45 0D 80 F0  FF FF 7F F0 FF FF 7F 6F  o125E..........o
0BB0: 31 33 32 01 80 29 10 F0  FF FF 7F 33 2B 02 70 0E  132..).....3+.p.
0BC0: 01 50 80 23 5B 3F 80 02  70 0E 01 02 70 0E 01 74  .P.#[?..p...p..t
0BD0: 6C 6B 31 52 0D 80 F0 FF  FF 7F F0 FF FF 7F 6F 31  lk1R..........o1
0BE0: 33 32 45 0D 80 F0 FF FF  7F F0 FF FF 7F 6F 31 32  32E..........o12
0BF0: 36 01 80 2B 02 70 0E 01  51 80 23 52 0D 80 F0 FF  6..+.p..Q.#R....
0C00: FF 7F F0 FF FF 7F 6F 31  32 36 01 0D 0C 45 0D 80  ......o126...E..
0C10: F0 FF FF 7F F0 FF FF 7F  6F 31 32 37 01 80 4A 02  ........o127..J.
0C20: 70 0E 01 F0 FF FF 7F 4A  13 71 0E 01 14 71 0E 01  p......J.q...q..
0C30: 6F 76 02 70 0E 01 5B 3B  80 14 71 0E 01 14 71 0E  ov.p..[;..q...q.
0C40: 01 73 74 6B 30 2B 14 71  0E 01 52 80 23 2B 14 71  .stk0+.q..R.#+.q
0C50: 0E 01 53 80 23 5B 3B 80  14 71 0E 01 14 71 0E 01  ..S.#[;..q...q..
0C60: 73 74 6B 31 52 0D 80 F0  FF FF 7F F0 FF FF 7F 6F  stk1R..........o
0C70: 31 32 37 45 0D 80 F0 FF  FF 7F F0 FF FF 7F 6F 31  127E..........o1
0C80: 32 38 01 80 1C 10 80 52  0D 80 F0 FF FF 7F F0 FF  28.....R........
0C90: FF 7F 6F 31 32 38 1A 64  00 1C 06 80 5D 01 80 10  ..o128.d....]...
0CA0: 80 59 05 F0 FF FF 7F 00  52 54 80 F0 FF FF 7F F0  .Y......RT......
0CB0: FF FF 7F 72 31 34 30 78  1C 55 80 AB 09 1C 55 80  ...r140x.U....U.
0CC0: AB 11 01 80 1C 03 80 34  56 80 77 57 80 03 80 AB  .......4V.wW....
0CD0: 09 5C 00 58 80 5C 01 58  80 9A 46 00 45 00 80 F0  .\.X.\.X..F.E...
0CE0: FF FF 7F F0 FF FF 7F 66  64 69 32 01 80 21 00     .......fdi2..!. 
```

#### Opcodes

```
  0: 0x0292 [0x42] SET_CLI_EVENT_CANCEL_DATA()
  1: 0x0293 [0x45] LOAD_SCHEDULED_TASK: Load scheduler "fdo1" with entities [EventEntity, EventEntity], work=[200*, 0*]
  2: 0x02A4 [0x55] WAIT_LOAD_SCHEDULER: Wait for scheduler "fdo1" with entities [EventEntity, EventEntity], work=200*
  3: 0x02B3 [0x46] CAMERA_CONTROL: Disable user control
  4: 0x02B5 [0x38] SET_CLIENT_EVENT_MODE(mode=19*)
  5: 0x02B8 [0x4E] SET_ENTITY_HIDE_FLAG: Show Guilerme (ID: 17723397/0x010E7005)
  6: 0x02BE [0x4E] SET_ENTITY_HIDE_FLAG: Show Bacherume (ID: 17723398/0x010E7006)
  7: 0x02C4 [0x92] Guilerme (ID: 17723397/0x010E7005)->Render.Flags3 ^= 0x01
  8: 0x02CA [0x92] Bacherume (ID: 17723398/0x010E7006)->Render.Flags3 ^= 0x01
  9: 0x02D0 [0x94] LocalPlayer->Render.Flags3 ^= 0x01
 10: 0x02D6 [0x94] Guilerme (ID: 17723397/0x010E7005)->Render.Flags3 ^= 0x01
 11: 0x02DC [0x94] Bacherume (ID: 17723398/0x010E7006)->Render.Flags3 ^= 0x01
 12: 0x02E2 [0xBA] SET_ENTITY_POSITION(entity_id=LocalPlayer, pos_x=-3.157*, pos_z=93.472*, pos_y=0.000*, direction=273.4°*)
 13: 0x02EF [0x7B] LocalPlayer stops talking
 14: 0x02F4 [0x7B] Guilerme (ID: 17723397/0x010E7005) stops talking
 15: 0x02F9 [0x7B] Bacherume (ID: 17723398/0x010E7006) stops talking
 16: 0x02FE [0x80] LOAD_WAIT(entity=LocalPlayer)
 17: 0x0303 [0x80] LOAD_WAIT(entity=Guilerme (ID: 17723397/0x010E7005))
 18: 0x0308 [0x80] LOAD_WAIT(entity=Bacherume (ID: 17723398/0x010E7006))
 19: 0x030D [0x59] UPDATE_ENTITY_DATA: Set LocalPlayer main speed = 13* * 0.1
 20: 0x0315 [0x27] REQ_SET(priority=0x10, entity_id=LocalPlayer, tag_num=0x76)
 21: 0x031C [0x1C] WAIT(30* ticks)
 22: 0x031F [0x45] LOAD_SCHEDULED_TASK: Load scheduler "o101" with entities [LocalPlayer, LocalPlayer], work=[494*, 0*]
 23: 0x0330 [0x1A] CALL_SUBROUTINE(address=0x0043)
 24: 0x0333 [0x1C] WAIT(80* ticks)
 25: 0x0336 [0x79] Guilerme (ID: 17723397/0x010E7005) looks at LocalPlayer (Basic look)
 26: 0x0340 [0x52] END_LOAD_SCHEDULER: End scheduler "o101" with entities [LocalPlayer, LocalPlayer], work=494*
 27: 0x034F [0x45] LOAD_SCHEDULED_TASK: Load scheduler "o102" with entities [LocalPlayer, LocalPlayer], work=[494*, 0*]
 28: 0x0360 [0x2B] Guilerme (ID: 17723397/0x010E7005) [18034*]:
    → "Halt! You'd best have a good explanation why you're skulking about Chateau d'Oraguille, rabble."
 29: 0x0367 [0x23] WAIT_FOR_DIALOG_INTERACTION
 30: 0x0368 [0x52] END_LOAD_SCHEDULER: End scheduler "o102" with entities [LocalPlayer, LocalPlayer], work=494*
 31: 0x0377 [0x45] LOAD_SCHEDULED_TASK: Load scheduler "o103" with entities [LocalPlayer, LocalPlayer], work=[494*, 0*]
 32: 0x0388 [0x27] REQ_SET(priority=0x10, entity_id=LocalPlayer, tag_num=0x77)
 33: 0x038F [0x4A] Guilerme (ID: 17723397/0x010E7005) looks at LocalPlayer
 34: 0x0398 [0x7B] Guilerme (ID: 17723397/0x010E7005) stops talking
 35: 0x039D [0x1C] WAIT(120* ticks)
 36: 0x03A0 [0x27] REQ_SET(priority=0x10, entity_id=LocalPlayer, tag_num=0x78)
 37: 0x03A7 [0x2B] Guilerme (ID: 17723397/0x010E7005) [18035*]:
    → "A letter? Hand that over this instant!"
 38: 0x03AE [0x23] WAIT_FOR_DIALOG_INTERACTION
 39: 0x03AF [0x1C] WAIT(10* ticks)
 40: 0x03B2 [0x66] LOAD_EXT_SCHEDULER_MAIN: Load scheduler "thk1" with entities [Guilerme (ID: 17723397/0x010E7005), Guilerme (ID: 17723397/0x010E7005)], work=20*
 41: 0x03C1 [0x52] END_LOAD_SCHEDULER: End scheduler "o103" with entities [LocalPlayer, LocalPlayer], work=494*
 42: 0x03D0 [0x45] LOAD_SCHEDULED_TASK: Load scheduler "o129" with entities [LocalPlayer, LocalPlayer], work=[494*, 0*]
 43: 0x03E1 [0x1C] WAIT(60* ticks)
 44: 0x03E4 [0x2B] Guilerme (ID: 17723397/0x010E7005) [18036*]:
    → "I shall return in a moment. Wander not an ilm from where you stand!"
 45: 0x03EB [0x23] WAIT_FOR_DIALOG_INTERACTION
 46: 0x03EC [0x27] REQ_SET(priority=0x10, entity_id=Guilerme (ID: 17723397/0x010E7005), tag_num=0x07)
 47: 0x03F3 [0x52] END_LOAD_SCHEDULER: End scheduler "o129" with entities [LocalPlayer, LocalPlayer], work=494*
 48: 0x0402 [0x45] LOAD_SCHEDULED_TASK: Load scheduler "o104" with entities [LocalPlayer, LocalPlayer], work=[494*, 0*]
 49: 0x0413 [0x1C] WAIT(80* ticks)
 50: 0x0416 [0x45] LOAD_SCHEDULED_TASK: Load scheduler "fdo2" with entities [LocalPlayer, LocalPlayer], work=[200*, 0*]
 51: 0x0427 [0x55] WAIT_LOAD_SCHEDULER: Wait for scheduler "fdo2" with entities [LocalPlayer, LocalPlayer], work=200*
 52: 0x0436 [0x52] END_LOAD_SCHEDULER: End scheduler "o104" with entities [LocalPlayer, LocalPlayer], work=494*
 53: 0x0445 [0x7A] VM_CONTROL: Reset VM for Guilerme (ID: 17723397/0x010E7005)
 54: 0x044B [0xBA] SET_ENTITY_POSITION(entity_id=LocalPlayer, pos_x=-1.719*, pos_z=97.683*, pos_y=0.000*, direction=189.8°*)
 55: 0x0458 [0xBA] SET_ENTITY_POSITION(entity_id=Guilerme (ID: 17723397/0x010E7005), pos_x=-3.337*, pos_z=102.747*, pos_y=-0.710*, direction=98.7°*)
 56: 0x0465 [0x1C] WAIT(60* ticks)
 57: 0x0468 [0x27] REQ_SET(priority=0x10, entity_id=Guilerme (ID: 17723397/0x010E7005), tag_num=0x08)
 58: 0x046F [0x45] LOAD_SCHEDULED_TASK: Load scheduler "o105" with entities [LocalPlayer, LocalPlayer], work=[494*, 0*]
 59: 0x0480 [0x45] LOAD_SCHEDULED_TASK: Load scheduler "fdi2" with entities [LocalPlayer, LocalPlayer], work=[200*, 0*]
 60: 0x0491 [0x55] WAIT_LOAD_SCHEDULER: Wait for scheduler "fdi2" with entities [LocalPlayer, LocalPlayer], work=200*
 61: 0x04A0 [0x2B] Guilerme (ID: 17723397/0x010E7005) [18037*]:
    → "Monarlais Halver will see you. To the castle with you at once, and no detours!"
 62: 0x04A7 [0x23] WAIT_FOR_DIALOG_INTERACTION
 63: 0x04A8 [0x6E] LocalPlayer uses emote 1*
 64: 0x04AF [0x99] Wait for LocalPlayer animation to complete
 65: 0x04B4 [0x1C] WAIT(60* ticks)
 66: 0x04B7 [0x45] LOAD_SCHEDULED_TASK: Load scheduler "fdo2" with entities [LocalPlayer, LocalPlayer], work=[200*, 0*]
 67: 0x04C8 [0x55] WAIT_LOAD_SCHEDULER: Wait for scheduler "fdo2" with entities [LocalPlayer, LocalPlayer], work=200*
 68: 0x04D7 [0x52] END_LOAD_SCHEDULER: End scheduler "o105" with entities [LocalPlayer, LocalPlayer], work=494*
 69: 0x04E6 [0x7A] VM_CONTROL: Reset VM for LocalPlayer
 70: 0x04EC [0x7A] VM_CONTROL: Reset VM for Halver (ID: 17723667/0x010E7113)
 71: 0x04F2 [0x1C] WAIT(10* ticks)
 72: 0x04F5 [0x5D] SET_MUSIC_VOLUME(volume=0*, fade_time=120*)
 73: 0x04FA [0x34] LOAD_UNLOAD_ZONE(zone_id=233*)
 74: 0x04FD [0x77] SET_EVENT_TIME_WEATHER(hour=0*, weather=1*)
 75: 0x0502 [0xAB] EventEntity->UnknownFlag = 1 // Enable unknown flag
 76: 0x0504 [0x4E] SET_ENTITY_HIDE_FLAG: Hide Guilerme (ID: 17723397/0x010E7005)
 77: 0x050A [0x4E] SET_ENTITY_HIDE_FLAG: Hide Bacherume (ID: 17723398/0x010E7006)
 78: 0x0510 [0x4E] SET_ENTITY_HIDE_FLAG: Show Halver (ID: 17723667/0x010E7113)
 79: 0x0516 [0x4E] SET_ENTITY_HIDE_FLAG: Show Destin (ID: 17723668/0x010E7114)
 80: 0x051C [0x4E] SET_ENTITY_HIDE_FLAG: Show Trion (ID: 17723394/0x010E7002)
 81: 0x0522 [0x4E] SET_ENTITY_HIDE_FLAG: Show Pieuje (ID: 17723395/0x010E7003)
 82: 0x0528 [0x92] Halver (ID: 17723667/0x010E7113)->Render.Flags3 ^= 0x01
 83: 0x052E [0x92] Destin (ID: 17723668/0x010E7114)->Render.Flags3 ^= 0x01
 84: 0x0534 [0x92] Trion (ID: 17723394/0x010E7002)->Render.Flags3 ^= 0x01
 85: 0x053A [0x92] Pieuje (ID: 17723395/0x010E7003)->Render.Flags3 ^= 0x01
 86: 0x0540 [0x94] LocalPlayer->Render.Flags3 ^= 0x01
 87: 0x0546 [0x94] Halver (ID: 17723667/0x010E7113)->Render.Flags3 ^= 0x01
 88: 0x054C [0x94] Destin (ID: 17723668/0x010E7114)->Render.Flags3 ^= 0x01
 89: 0x0552 [0x94] Trion (ID: 17723394/0x010E7002)->Render.Flags3 ^= 0x01
 90: 0x0558 [0x94] Pieuje (ID: 17723395/0x010E7003)->Render.Flags3 ^= 0x01
 91: 0x055E [0xBA] SET_ENTITY_POSITION(entity_id=LocalPlayer, pos_x=2.263*, pos_z=-1.484*, pos_y=0.000*, direction=263.7°*)
 92: 0x056B [0xBA] SET_ENTITY_POSITION(entity_id=Halver (ID: 17723667/0x010E7113), pos_x=2.420*, pos_z=1.966*, pos_y=0.000*, direction=103.0°*)
 93: 0x0578 [0xBA] SET_ENTITY_POSITION(entity_id=Destin (ID: 17723668/0x010E7114), pos_x=0.001*, pos_z=43.255*, pos_y=-3.400*, direction=95.4°*)
 94: 0x0585 [0xBA] SET_ENTITY_POSITION(entity_id=Trion (ID: 17723394/0x010E7002), pos_x=-1.459*, pos_z=41.966*, pos_y=-3.398*, direction=70.9°*)
 95: 0x0592 [0xBA] SET_ENTITY_POSITION(entity_id=Pieuje (ID: 17723395/0x010E7003), pos_x=2.163*, pos_z=42.333*, pos_y=-3.398*, direction=102.7°*)
 96: 0x059F [0x7B] LocalPlayer stops talking
 97: 0x05A4 [0x7B] Halver (ID: 17723667/0x010E7113) stops talking
 98: 0x05A9 [0x7B] Destin (ID: 17723668/0x010E7114) stops talking
 99: 0x05AE [0x7B] Trion (ID: 17723394/0x010E7002) stops talking
100: 0x05B3 [0x7B] Pieuje (ID: 17723395/0x010E7003) stops talking
101: 0x05B8 [0x80] LOAD_WAIT(entity=LocalPlayer)
102: 0x05BD [0x80] LOAD_WAIT(entity=Halver (ID: 17723667/0x010E7113))
103: 0x05C2 [0x80] LOAD_WAIT(entity=Destin (ID: 17723668/0x010E7114))
104: 0x05C7 [0x80] LOAD_WAIT(entity=Trion (ID: 17723394/0x010E7002))
105: 0x05CC [0x80] LOAD_WAIT(entity=Pieuje (ID: 17723395/0x010E7003))
106: 0x05D1 [0x4A] LocalPlayer looks at Halver (ID: 17723667/0x010E7113)
107: 0x05DA [0x4A] Halver (ID: 17723667/0x010E7113) looks at LocalPlayer
108: 0x05E3 [0x5C] MUSIC_CONTROL: Set Idle (Day) music to song 156*
109: 0x05E7 [0x5C] MUSIC_CONTROL: Set Idle (Night) music to song 156*
110: 0x05EB [0x9A] WAIT_MUSIC_SERVER()
111: 0x05EC [0x1C] WAIT(30* ticks)
112: 0x05EF [0x45] LOAD_SCHEDULED_TASK: Load scheduler "o108" with entities [LocalPlayer, LocalPlayer], work=[494*, 0*]
113: 0x0600 [0x45] LOAD_SCHEDULED_TASK: Load scheduler "fdi2" with entities [LocalPlayer, LocalPlayer], work=[200*, 0*]
114: 0x0611 [0x55] WAIT_LOAD_SCHEDULER: Wait for scheduler "fdi2" with entities [LocalPlayer, LocalPlayer], work=200*
115: 0x0620 [0x1C] WAIT(120* ticks)
116: 0x0623 [0x52] END_LOAD_SCHEDULER: End scheduler "o108" with entities [LocalPlayer, LocalPlayer], work=494*
117: 0x0632 [0x45] LOAD_SCHEDULED_TASK: Load scheduler "o107" with entities [LocalPlayer, LocalPlayer], work=[494*, 0*]
118: 0x0643 [0x2B] Halver (ID: 17723667/0x010E7113) [18041*]:
    → "...So the serpent would seek the aid of the lion. A curious turn of events, indeed. I must deliver this to my king at once. Come along."
119: 0x064A [0x23] WAIT_FOR_DIALOG_INTERACTION
120: 0x064B [0x59] UPDATE_ENTITY_DATA: Set LocalPlayer main speed = 13* * 0.1
121: 0x0653 [0x59] UPDATE_ENTITY_DATA: Set Halver (ID: 17723667/0x010E7113) main speed = 13* * 0.1
122: 0x065B [0x27] REQ_SET(priority=0x10, entity_id=Halver (ID: 17723667/0x010E7113), tag_num=0x09)
123: 0x0662 [0x1C] WAIT(20* ticks)
124: 0x0665 [0x52] END_LOAD_SCHEDULER: End scheduler "o107" with entities [LocalPlayer, LocalPlayer], work=494*
125: 0x0674 [0x45] LOAD_SCHEDULED_TASK: Load scheduler "o130" with entities [LocalPlayer, LocalPlayer], work=[494*, 0*]
126: 0x0685 [0x27] REQ_SET(priority=0x10, entity_id=LocalPlayer, tag_num=0x79)
127: 0x068C [0x1C] WAIT(120* ticks)
128: 0x068F [0x45] LOAD_SCHEDULED_TASK: Load scheduler "fdo2" with entities [LocalPlayer, LocalPlayer], work=[200*, 0*]
129: 0x06A0 [0x55] WAIT_LOAD_SCHEDULER: Wait for scheduler "fdo2" with entities [LocalPlayer, LocalPlayer], work=200*
130: 0x06AF [0x52] END_LOAD_SCHEDULER: End scheduler "o130" with entities [LocalPlayer, LocalPlayer], work=494*
131: 0x06BE [0x7A] VM_CONTROL: Reset VM for LocalPlayer
132: 0x06C4 [0x7A] VM_CONTROL: Reset VM for Halver (ID: 17723667/0x010E7113)
133: 0x06CA [0xBA] SET_ENTITY_POSITION(entity_id=LocalPlayer, pos_x=0.930*, pos_z=36.355*, pos_y=-3.000*, direction=263.8°*)
134: 0x06D7 [0xBA] SET_ENTITY_POSITION(entity_id=Halver (ID: 17723667/0x010E7113), pos_x=-0.884*, pos_z=36.276*, pos_y=-3.000*, direction=263.7°*)
135: 0x06E4 [0x7B] LocalPlayer stops talking
136: 0x06E9 [0x7B] Halver (ID: 17723667/0x010E7113) stops talking
137: 0x06EE [0x29] REQ_SET_WAIT(priority=0x10, entity_id=LocalPlayer, tag_num=0x7A)
138: 0x06F5 [0x1C] WAIT(100* ticks)
139: 0x06F8 [0x45] LOAD_SCHEDULED_TASK: Load scheduler "o109" with entities [LocalPlayer, LocalPlayer], work=[494*, 0*]
140: 0x0709 [0x45] LOAD_SCHEDULED_TASK: Load scheduler "fdi2" with entities [LocalPlayer, LocalPlayer], work=[200*, 0*]
141: 0x071A [0x55] WAIT_LOAD_SCHEDULER: Wait for scheduler "fdi2" with entities [LocalPlayer, LocalPlayer], work=200*
142: 0x0729 [0x1C] WAIT(110* ticks)
143: 0x072C [0x52] END_LOAD_SCHEDULER: End scheduler "o109" with entities [LocalPlayer, LocalPlayer], work=494*
144: 0x073B [0x45] LOAD_SCHEDULED_TASK: Load scheduler "o110" with entities [LocalPlayer, LocalPlayer], work=[494*, 0*]
145: 0x074C [0x2B] Destin (ID: 17723668/0x010E7114) [18042*]:
    → "An iron giant with the power to smite an airship from the sky, and a young Empress who would nonetheless seek to restore its power..."
146: 0x0753 [0x23] WAIT_FOR_DIALOG_INTERACTION
147: 0x0754 [0x52] END_LOAD_SCHEDULER: End scheduler "o110" with entities [LocalPlayer, LocalPlayer], work=494*
148: 0x0763 [0x45] LOAD_SCHEDULED_TASK: Load scheduler "o111" with entities [LocalPlayer, LocalPlayer], work=[494*, 0*]
149: 0x0774 [0x7C] Pieuje (ID: 17723395/0x010E7003)->Render.Flags2 |= 0x00
150: 0x077A [0x2B] Pieuje (ID: 17723395/0x010E7003) [18043*]:
    → "..."
151: 0x0781 [0x23] WAIT_FOR_DIALOG_INTERACTION
152: 0x0782 [0x7C] Pieuje (ID: 17723395/0x010E7003)->Render.Flags2 |= 0x01
153: 0x0788 [0x52] END_LOAD_SCHEDULER: End scheduler "o111" with entities [LocalPlayer, LocalPlayer], work=494*
154: 0x0797 [0x45] LOAD_SCHEDULED_TASK: Load scheduler "o112" with entities [LocalPlayer, LocalPlayer], work=[494*, 0*]
155: 0x07A8 [0x5B] LOAD_EXT_SCHEDULER: Load scheduler "stk0" with entities [Destin (ID: 17723668/0x010E7114), Destin (ID: 17723668/0x010E7114)], work=131*
156: 0x07B7 [0x2B] Destin (ID: 17723668/0x010E7114) [18044*]:
    → "I would hear your counsel, Halver."
157: 0x07BE [0x23] WAIT_FOR_DIALOG_INTERACTION
158: 0x07BF [0x5B] LOAD_EXT_SCHEDULER: Load scheduler "stk1" with entities [Destin (ID: 17723668/0x010E7114), Destin (ID: 17723668/0x010E7114)], work=131*
159: 0x07CE [0x52] END_LOAD_SCHEDULER: End scheduler "o112" with entities [LocalPlayer, LocalPlayer], work=494*
160: 0x07DD [0x45] LOAD_SCHEDULED_TASK: Load scheduler "o113" with entities [LocalPlayer, LocalPlayer], work=[494*, 0*]
161: 0x07EE [0x4A] Halver (ID: 17723667/0x010E7113) looks at Trion (ID: 17723394/0x010E7002)
162: 0x07F7 [0x4A] Trion (ID: 17723394/0x010E7002) looks at Halver (ID: 17723667/0x010E7113)
163: 0x0800 [0x66] LOAD_EXT_SCHEDULER_MAIN: Load scheduler "tlk0" with entities [Halver (ID: 17723667/0x010E7113), Halver (ID: 17723667/0x010E7113)], work=29*
164: 0x080F [0x2B] Halver (ID: 17723667/0x010E7113) [18045*]:
    → "Your Highness. I must confess, my heart misgives me as to the wisdom of this endeavor..."
165: 0x0816 [0x23] WAIT_FOR_DIALOG_INTERACTION
166: 0x0817 [0x52] END_LOAD_SCHEDULER: End scheduler "o113" with entities [LocalPlayer, LocalPlayer], work=494*
167: 0x0826 [0x45] LOAD_SCHEDULED_TASK: Load scheduler "o114" with entities [LocalPlayer, LocalPlayer], work=[494*, 0*]
168: 0x0837 [0x66] LOAD_EXT_SCHEDULER_MAIN: Load scheduler "tlk1" with entities [Halver (ID: 17723667/0x010E7113), Halver (ID: 17723667/0x010E7113)], work=29*
169: 0x0846 [0x5B] LOAD_EXT_SCHEDULER: Load scheduler "ara0" with entities [Trion (ID: 17723394/0x010E7002), Trion (ID: 17723394/0x010E7002)], work=115*
170: 0x0855 [0x2B] Trion (ID: 17723394/0x010E7002) [18046*]:
    → "Halver...!"
171: 0x085C [0x23] WAIT_FOR_DIALOG_INTERACTION
172: 0x085D [0x52] END_LOAD_SCHEDULER: End scheduler "o114" with entities [LocalPlayer, LocalPlayer], work=494*
173: 0x086C [0x45] LOAD_SCHEDULED_TASK: Load scheduler "o115" with entities [LocalPlayer, LocalPlayer], work=[494*, 0*]
174: 0x087D [0x5B] LOAD_EXT_SCHEDULER: Load scheduler "ara1" with entities [Trion (ID: 17723394/0x010E7002), Trion (ID: 17723394/0x010E7002)], work=115*
175: 0x088C [0x66] LOAD_EXT_SCHEDULER_MAIN: Load scheduler "tlk0" with entities [Halver (ID: 17723667/0x010E7113), Halver (ID: 17723667/0x010E7113)], work=29*
176: 0x089B [0x2B] Halver (ID: 17723667/0x010E7113) [18047*]:
    → "This is the selfsame Empire, after all, that not so long ago did wield the power of this colossus against this Kingdom and our allies."
177: 0x08A2 [0x23] WAIT_FOR_DIALOG_INTERACTION
178: 0x08A3 [0x2B] Halver (ID: 17723667/0x010E7113) [18048*]:
    → "That said, they have since made amends, and we have accepted their formal apology. To hold past misdeeds against them now would be most...unchivalrous...of us, would it not?"
179: 0x08AA [0x23] WAIT_FOR_DIALOG_INTERACTION
180: 0x08AB [0x66] LOAD_EXT_SCHEDULER_MAIN: Load scheduler "tlk1" with entities [Halver (ID: 17723667/0x010E7113), Halver (ID: 17723667/0x010E7113)], work=29*
181: 0x08BA [0x52] END_LOAD_SCHEDULER: End scheduler "o115" with entities [LocalPlayer, LocalPlayer], work=494*
182: 0x08C9 [0x45] LOAD_SCHEDULED_TASK: Load scheduler "o131" with entities [LocalPlayer, LocalPlayer], work=[494*, 0*]
183: 0x08DA [0x1C] WAIT(120* ticks)
184: 0x08DD [0x52] END_LOAD_SCHEDULER: End scheduler "o131" with entities [LocalPlayer, LocalPlayer], work=494*
185: 0x08EC [0x45] LOAD_SCHEDULED_TASK: Load scheduler "o116" with entities [LocalPlayer, LocalPlayer], work=[494*, 0*]
186: 0x08FD [0x2B] Pieuje (ID: 17723395/0x010E7003) [18049*]:
    → "...And yet the past cannot be so readily forgotten."
187: 0x0904 [0x23] WAIT_FOR_DIALOG_INTERACTION
188: 0x0905 [0x52] END_LOAD_SCHEDULER: End scheduler "o116" with entities [LocalPlayer, LocalPlayer], work=494*
189: 0x0914 [0x45] LOAD_SCHEDULED_TASK: Load scheduler "o117" with entities [LocalPlayer, LocalPlayer], work=[494*, 0*]
190: 0x0925 [0x5B] LOAD_EXT_SCHEDULER: Load scheduler "pui0" with entities [Trion (ID: 17723394/0x010E7002), Trion (ID: 17723394/0x010E7002)], work=116*
191: 0x0934 [0x4A] Halver (ID: 17723667/0x010E7113) looks at Pieuje (ID: 17723395/0x010E7003)
192: 0x093D [0x1C] WAIT(120* ticks)
193: 0x0940 [0x5B] LOAD_EXT_SCHEDULER: Load scheduler "pui1" with entities [Trion (ID: 17723394/0x010E7002), Trion (ID: 17723394/0x010E7002)], work=116*
194: 0x094F [0x52] END_LOAD_SCHEDULER: End scheduler "o117" with entities [LocalPlayer, LocalPlayer], work=494*
195: 0x095E [0x45] LOAD_SCHEDULED_TASK: Load scheduler "o118" with entities [LocalPlayer, LocalPlayer], work=[494*, 0*]
196: 0x096F [0x66] LOAD_EXT_SCHEDULER_MAIN: Load scheduler "tlk0" with entities [Halver (ID: 17723667/0x010E7113), Halver (ID: 17723667/0x010E7113)], work=29*
197: 0x097E [0x2B] Halver (ID: 17723667/0x010E7113) [18050*]:
    → "Begging your pardon, my prince. I daresay that the mere fact that they seek our consent--rather than engaging in devious and furtive plots--shows that we deal no longer with the Silent Empire of old."
198: 0x0985 [0x23] WAIT_FOR_DIALOG_INTERACTION
199: 0x0986 [0x52] END_LOAD_SCHEDULER: End scheduler "o118" with entities [LocalPlayer, LocalPlayer], work=494*
200: 0x0995 [0x45] LOAD_SCHEDULED_TASK: Load scheduler "o119" with entities [LocalPlayer, LocalPlayer], work=[494*, 0*]
201: 0x09A6 [0x66] LOAD_EXT_SCHEDULER_MAIN: Load scheduler "tlk1" with entities [Halver (ID: 17723667/0x010E7113), Halver (ID: 17723667/0x010E7113)], work=29*
202: 0x09B5 [0x66] LOAD_EXT_SCHEDULER_MAIN: Load scheduler "tlk0" with entities [Pieuje (ID: 17723395/0x010E7003), Pieuje (ID: 17723395/0x010E7003)], work=120*
203: 0x09C4 [0x79] Pieuje (ID: 17723395/0x010E7003) looks at Halver (ID: 17723667/0x010E7113) (Basic look)
204: 0x09CE [0x2B] Pieuje (ID: 17723395/0x010E7003) [18051*]:
    → "Settle yourself, Halver. I said nothing of denying their plea."
205: 0x09D5 [0x23] WAIT_FOR_DIALOG_INTERACTION
206: 0x09D6 [0x66] LOAD_EXT_SCHEDULER_MAIN: Load scheduler "tlk1" with entities [Pieuje (ID: 17723395/0x010E7003), Pieuje (ID: 17723395/0x010E7003)], work=120*
207: 0x09E5 [0x52] END_LOAD_SCHEDULER: End scheduler "o119" with entities [LocalPlayer, LocalPlayer], work=494*
208: 0x09F4 [0x45] LOAD_SCHEDULED_TASK: Load scheduler "o120" with entities [LocalPlayer, LocalPlayer], work=[494*, 0*]
209: 0x0A05 [0x2B] Halver (ID: 17723667/0x010E7113) [18052*]:
    → "Forgive me, my prince. I spoke in haste."
210: 0x0A0C [0x23] WAIT_FOR_DIALOG_INTERACTION
211: 0x0A0D [0x52] END_LOAD_SCHEDULER: End scheduler "o120" with entities [LocalPlayer, LocalPlayer], work=494*
212: 0x0A1C [0x45] LOAD_SCHEDULED_TASK: Load scheduler "o121" with entities [LocalPlayer, LocalPlayer], work=[494*, 0*]
213: 0x0A2D [0x4A] Trion (ID: 17723394/0x010E7002) looks at Pieuje (ID: 17723395/0x010E7003)
214: 0x0A36 [0x66] LOAD_EXT_SCHEDULER_MAIN: Load scheduler "thk0" with entities [Pieuje (ID: 17723395/0x010E7003), Pieuje (ID: 17723395/0x010E7003)], work=121*
215: 0x0A45 [0x2B] Pieuje (ID: 17723395/0x010E7003) [18053*]:
    → "It is precisely because I remember well the past that I believe the Empire's plea to be sincere."
216: 0x0A4C [0x23] WAIT_FOR_DIALOG_INTERACTION
217: 0x0A4D [0x2B] Pieuje (ID: 17723395/0x010E7003) [18054*]:
    → "It is clear this Empress Nashmeira truly intends to lead her nation to a new age. I have no doubt that she will prove a staunch ally worthy of our trust."
218: 0x0A54 [0x23] WAIT_FOR_DIALOG_INTERACTION
219: 0x0A55 [0x66] LOAD_EXT_SCHEDULER_MAIN: Load scheduler "thk1" with entities [Pieuje (ID: 17723395/0x010E7003), Pieuje (ID: 17723395/0x010E7003)], work=121*
220: 0x0A64 [0x6F] WAIT_FRAME_DELAY: Yield until WaitTime reaches zero
221: 0x0A65 [0x76] CHECK_ENTITY_RENDER_FLAGS: Wait until Trion (ID: 17723394/0x010E7002) Render.Flags0 and Render.Flags3 conditions are met
222: 0x0A6A [0x52] END_LOAD_SCHEDULER: End scheduler "o121" with entities [LocalPlayer, LocalPlayer], work=494*
223: 0x0A79 [0x45] LOAD_SCHEDULED_TASK: Load scheduler "o122" with entities [LocalPlayer, LocalPlayer], work=[494*, 0*]
224: 0x0A8A [0x7B] Pieuje (ID: 17723395/0x010E7003) stops talking
225: 0x0A8F [0x5B] LOAD_EXT_SCHEDULER: Load scheduler "lau0" with entities [Trion (ID: 17723394/0x010E7002), Trion (ID: 17723394/0x010E7002)], work=115*
226: 0x0A9E [0x2B] Trion (ID: 17723394/0x010E7002) [18055*]:
    → "Oho! Never did I think this day would come, but I must say...my brother has the right of it."
227: 0x0AA5 [0x23] WAIT_FOR_DIALOG_INTERACTION
228: 0x0AA6 [0x5B] LOAD_EXT_SCHEDULER: Load scheduler "lau1" with entities [Trion (ID: 17723394/0x010E7002), Trion (ID: 17723394/0x010E7002)], work=115*
229: 0x0AB5 [0x52] END_LOAD_SCHEDULER: End scheduler "o122" with entities [LocalPlayer, LocalPlayer], work=494*
230: 0x0AC4 [0x03] ExtData[1]->WorkLocal[0] = Work_Zone[9]
231: 0x0AC9 [0x02] IF !(ExtData[1]->WorkLocal[0] == 0*) GOTO 0x0AD7
232: 0x0AD1 [0x1C] WAIT(1* ticks)
233: 0x0AD4 [0x01] GOTO 0x0C0D
234: 0x0AD7 [0x02] IF !(ExtData[1]->WorkLocal[0] == 1*) GOTO 0x0C0D
235: 0x0ADF [0x45] LOAD_SCHEDULED_TASK: Load scheduler "o123" with entities [LocalPlayer, LocalPlayer], work=[494*, 0*]
236: 0x0AF0 [0x4A] Trion (ID: 17723394/0x010E7002) looks at LocalPlayer
237: 0x0AF9 [0x4A] Halver (ID: 17723667/0x010E7113) looks at Destin (ID: 17723668/0x010E7114)
238: 0x0B02 [0x6F] WAIT_FRAME_DELAY: Yield until WaitTime reaches zero
239: 0x0B03 [0x76] CHECK_ENTITY_RENDER_FLAGS: Wait until Trion (ID: 17723394/0x010E7002) Render.Flags0 and Render.Flags3 conditions are met
240: 0x0B08 [0x2B] Trion (ID: 17723394/0x010E7002) [18056*]:
    → "Besides, were something to go amiss, the presence of <Player> here should suffice to keep matters in hand."
241: 0x0B0F [0x23] WAIT_FOR_DIALOG_INTERACTION
242: 0x0B10 [0x52] END_LOAD_SCHEDULER: End scheduler "o123" with entities [LocalPlayer, LocalPlayer], work=494*
243: 0x0B1F [0x45] LOAD_SCHEDULED_TASK: Load scheduler "o124" with entities [LocalPlayer, LocalPlayer], work=[494*, 0*]
244: 0x0B30 [0x66] LOAD_EXT_SCHEDULER_MAIN: Load scheduler "tlk0" with entities [Halver (ID: 17723667/0x010E7113), Halver (ID: 17723667/0x010E7113)], work=29*
245: 0x0B3F [0x2B] Halver (ID: 17723667/0x010E7113) [18057*]:
    → "I could not agree more, my king"
246: 0x0B46 [0x23] WAIT_FOR_DIALOG_INTERACTION
247: 0x0B47 [0x2B] Halver (ID: 17723667/0x010E7113) [18058*]:
    → "<Player> has served the Kingdom with loyalty and valor time and again."
248: 0x0B4E [0x23] WAIT_FOR_DIALOG_INTERACTION
249: 0x0B4F [0x66] LOAD_EXT_SCHEDULER_MAIN: Load scheduler "tlk1" with entities [Halver (ID: 17723667/0x010E7113), Halver (ID: 17723667/0x010E7113)], work=29*
250: 0x0B5E [0x52] END_LOAD_SCHEDULER: End scheduler "o124" with entities [LocalPlayer, LocalPlayer], work=494*
251: 0x0B6D [0x45] LOAD_SCHEDULED_TASK: Load scheduler "o125" with entities [LocalPlayer, LocalPlayer], work=[494*, 0*]
252: 0x0B7E [0x5B] LOAD_EXT_SCHEDULER: Load scheduler "tlk0" with entities [Trion (ID: 17723394/0x010E7002), Trion (ID: 17723394/0x010E7002)], work=115*
253: 0x0B8D [0x2B] Trion (ID: 17723394/0x010E7002) [18059*]:
    → "I, too, can vouch for this, Father."
254: 0x0B94 [0x23] WAIT_FOR_DIALOG_INTERACTION
255: 0x0B95 [0x52] END_LOAD_SCHEDULER: End scheduler "o125" with entities [LocalPlayer, LocalPlayer], work=494*
256: 0x0BA4 [0x45] LOAD_SCHEDULED_TASK: Load scheduler "o132" with entities [LocalPlayer, LocalPlayer], work=[494*, 0*]
257: 0x0BB5 [0x29] REQ_SET_WAIT(priority=0x10, entity_id=LocalPlayer, tag_num=0x33)
258: 0x0BBC [0x2B] Trion (ID: 17723394/0x010E7002) [18060*]:
    → "I have fought by <Player>'s side, and you will find no comrade more honorable."
259: 0x0BC3 [0x23] WAIT_FOR_DIALOG_INTERACTION
260: 0x0BC4 [0x5B] LOAD_EXT_SCHEDULER: Load scheduler "tlk1" with entities [Trion (ID: 17723394/0x010E7002), Trion (ID: 17723394/0x010E7002)], work=115*
261: 0x0BD3 [0x52] END_LOAD_SCHEDULER: End scheduler "o132" with entities [LocalPlayer, LocalPlayer], work=494*
262: 0x0BE2 [0x45] LOAD_SCHEDULED_TASK: Load scheduler "o126" with entities [LocalPlayer, LocalPlayer], work=[494*, 0*]
263: 0x0BF3 [0x2B] Trion (ID: 17723394/0x010E7002) [18061*]:
    → "The Kingdom is safe in [his/her] hands, Father."
264: 0x0BFA [0x23] WAIT_FOR_DIALOG_INTERACTION
265: 0x0BFB [0x52] END_LOAD_SCHEDULER: End scheduler "o126" with entities [LocalPlayer, LocalPlayer], work=494*
266: 0x0C0A [0x01] GOTO 0x0C0D

SUBROUTINE_0C0D:
267: 0x0C0D [0x45] LOAD_SCHEDULED_TASK: Load scheduler "o127" with entities [LocalPlayer, LocalPlayer], work=[494*, 0*]
268: 0x0C1E [0x4A] Trion (ID: 17723394/0x010E7002) looks at LocalPlayer
269: 0x0C27 [0x4A] Halver (ID: 17723667/0x010E7113) looks at Destin (ID: 17723668/0x010E7114)
270: 0x0C30 [0x6F] WAIT_FRAME_DELAY: Yield until WaitTime reaches zero
271: 0x0C31 [0x76] CHECK_ENTITY_RENDER_FLAGS: Wait until Trion (ID: 17723394/0x010E7002) Render.Flags0 and Render.Flags3 conditions are met
272: 0x0C36 [0x5B] LOAD_EXT_SCHEDULER: Load scheduler "stk0" with entities [Destin (ID: 17723668/0x010E7114), Destin (ID: 17723668/0x010E7114)], work=131*
273: 0x0C45 [0x2B] Destin (ID: 17723668/0x010E7114) [18062*]:
    → "Very well."
274: 0x0C4C [0x23] WAIT_FOR_DIALOG_INTERACTION
275: 0x0C4D [0x2B] Destin (ID: 17723668/0x010E7114) [18063*]:
    → "Halver and my sons present a compelling case. Return to this Empress, and tell her San d'Oria stands with her. Now farewell, and may the Goddess watch over your journey!"
276: 0x0C54 [0x23] WAIT_FOR_DIALOG_INTERACTION
277: 0x0C55 [0x5B] LOAD_EXT_SCHEDULER: Load scheduler "stk1" with entities [Destin (ID: 17723668/0x010E7114), Destin (ID: 17723668/0x010E7114)], work=131*
278: 0x0C64 [0x52] END_LOAD_SCHEDULER: End scheduler "o127" with entities [LocalPlayer, LocalPlayer], work=494*
279: 0x0C73 [0x45] LOAD_SCHEDULED_TASK: Load scheduler "o128" with entities [LocalPlayer, LocalPlayer], work=[494*, 0*]
280: 0x0C84 [0x1C] WAIT(120* ticks)
281: 0x0C87 [0x52] END_LOAD_SCHEDULER: End scheduler "o128" with entities [LocalPlayer, LocalPlayer], work=494*
282: 0x0C96 [0x1A] CALL_SUBROUTINE(address=0x0064)
283: 0x0C99 [0x1C] WAIT(30* ticks)
284: 0x0C9C [0x5D] SET_MUSIC_VOLUME(volume=0*, fade_time=120*)
285: 0x0CA1 [0x59] UPDATE_ENTITY_DATA: LocalPlayer->Render.Flags0 &= ~0x200000
286: 0x0CA8 [0x52] END_LOAD_SCHEDULER: End scheduler "r140" with entities [LocalPlayer, LocalPlayer], work=493*
287: 0x0CB7 [0x78] ENABLE_GAME_TIMER_RESET_WEATHER()
288: 0x0CB8 [0x1C] WAIT(15* ticks)
289: 0x0CBB [0xAB] EventEntity->UnknownFlag = 1 // Enable unknown flag
290: 0x0CBD [0x1C] WAIT(15* ticks)
291: 0x0CC0 [0xAB] EventEntity->DespawnValue = 0* // Set despawn value
292: 0x0CC4 [0x1C] WAIT(1* ticks)
293: 0x0CC7 [0x34] LOAD_UNLOAD_ZONE(zone_id=231*)
294: 0x0CCA [0x77] SET_EVENT_TIME_WEATHER(hour=255*, weather=1*)
295: 0x0CCF [0xAB] EventEntity->UnknownFlag = 1 // Enable unknown flag
296: 0x0CD1 [0x5C] MUSIC_CONTROL: Set Idle (Day) music to song 107*
297: 0x0CD5 [0x5C] MUSIC_CONTROL: Set Idle (Night) music to song 107*
298: 0x0CD9 [0x9A] WAIT_MUSIC_SERVER()
299: 0x0CDA [0x46] CAMERA_CONTROL: Restore default settings
300: 0x0CDC [0x45] LOAD_SCHEDULED_TASK: Load scheduler "fdi2" with entities [LocalPlayer, LocalPlayer], work=[200*, 0*]
301: 0x0CED [0x21] END_EVENT
302: 0x0CEE [0x00] END_REQSTACK()
```
