# 17723397 - Guilerme

## Common Data

| Field            | Value                         |
|------------------|-------------------------------|
| Zone             | Northern San d'Oria (ID: 231) |
| Block Size       | 652 bytes                     |
| Total Events     | 10                            |
| References Count | 29                            |

## List of Events

| Event ID                 | Entrypoint   |   Size |   Instructions |
|--------------------------|--------------|--------|----------------|
| [65535](#event-65535)    | 0x0000       |      1 |              1 |
| [0](#event-0)            | 0x0001       |      1 |              1 |
| [507](#event-507)        | 0x0002       |    361 |             83 |
| [810](#event-810)        | 0x016B       |      1 |              1 |
| [65535.1](#event-655351) | 0x016C       |     65 |             17 |
| [65535.2](#event-655352) | 0x01AD       |     10 |              2 |
| [866](#event-866)        | 0x01B7       |      1 |              1 |
| [65535.3](#event-655353) | 0x01B8       |     11 |              3 |
| [65535.4](#event-655354) | 0x01C3       |     21 |              5 |
| [878](#event-878)        | 0x01D8       |      7 |              2 |

## DAT References (imed_data)

|   Index | Hex Value   |   Dec Value |
|---------|-------------|-------------|
|       0 | 0x0014      |          20 |
|       1 | 0x2C67      |       11367 |
|       2 | 0x2C68      |       11368 |
|       3 | 0x0000      |           0 |
|       4 | 0x2C6B      |       11371 |
|       5 | 0x001E      |          30 |
|       6 | 0xFFFFF10D  |  4294963469 |
|       7 | 0x1A3BD     |      107453 |
|       8 | 0xFFFFF448  |  4294964296 |
|       9 | 0xFFFFFC0A  |  4294966282 |
|      10 | 0x24FE0     |      151520 |
|      11 | 0x003C      |          60 |
|      12 | 0xFFFFFA8A  |  4294965898 |
|      13 | 0x2451F     |      148767 |
|      14 | 0xFFFFEE6C  |  4294962796 |
|      15 | 0x182B8     |       99000 |
|      16 | 0x0001      |           1 |
|      17 | 0x0077      |         119 |
|      18 | 0x2C6C      |       11372 |
|      19 | 0x2C6F      |       11375 |
|      20 | 0x2C6D      |       11373 |
|      21 | 0x2C6E      |       11374 |
|      22 | 0x2C70      |       11376 |
|      23 | 0x0400      |        1024 |
|      24 | 0xFFFFF2A9  |  4294963881 |
|      25 | 0x1CA97     |      117399 |
|      26 | 0xFFFFF831  |  4294965297 |
|      27 | 0xFFFFF298  |  4294963864 |
|      28 | 0x184AA     |       99498 |

## String References

- **11367**: A receipt, eh? I can't read this fancy writing. Who's it for? Prince Trion, or Prince Pieuje?
- **11368**: Who is it for? [Prince Trion./Prince Pieuje.]
- **11371**: All right, I'll deliver it for you. We can't let you in looking like that! Wait here.
- **11372**: I delivered the $3 to Prince Trion. You're dismissed.
- **11373**: I delivered the $3 to Prince Pieuje. You're dismissed.
- **11374**: Imbecile! That envelope was for Prince Trion, not Prince Pieuje! Such idiocy... Get out of here!
- **11375**: Imbecile! That envelope was for Prince Pieuje, not Prince Trion! Such idiocy... Get out of here!
- **11376**: Oh, and tell that shopkeeper to send someone respectable next time!

## Events

### Event 65535

#### Metadata

| Field        | Value   |
|--------------|---------|
| Entrypoint   | 0x0000  |
| Data Size    | 1 bytes |
| Instructions | 1       |

```
      00 01 02 03 04 05 06 07  08 09 0A 0B 0C 0D 0E 0F
      -- -- -- -- -- -- -- --  -- -- -- -- -- -- -- --
0000: 00                                                .               
```

#### Opcodes

```
  0: 0x0000 [0x00] END_REQSTACK()
```

### Event 0

#### Metadata

| Field        | Value   |
|--------------|---------|
| Entrypoint   | 0x0001  |
| Data Size    | 1 bytes |
| Instructions | 1       |

```
      00 01 02 03 04 05 06 07  08 09 0A 0B 0C 0D 0E 0F
      -- -- -- -- -- -- -- --  -- -- -- -- -- -- -- --
0000:    00                                              .              
```

#### Opcodes

```
  0: 0x0001 [0x00] END_REQSTACK()
```

### Event 507

#### Metadata

| Field        | Value     |
|--------------|-----------|
| Entrypoint   | 0x0002    |
| Data Size    | 361 bytes |
| Instructions | 83        |

```
      00 01 02 03 04 05 06 07  08 09 0A 0B 0C 0D 0E 0F
      -- -- -- -- -- -- -- --  -- -- -- -- -- -- -- --
0000:       42 1E F0 FF FF 7F  6F 70 03 00 00 08 10 66    B.....op.....f
0010: 00 80 F8 FF FF 7F F8 FF  FF 7F 74 6C 6B 30 1D 01  ..........tlk0..
0020: 80 23 5E 69 64 6C 30 24  02 80 03 80 03 80 25 02  .#^idl0$......%.
0030: 00 10 03 80 00 C6 00 66  00 80 F8 FF FF 7F F8 FF  .......f........
0040: FF 7F 74 6C 6B 30 1D 04  80 23 5E 69 64 6C 30 1C  ..tlk0...#^idl0.
0050: 05 80 1F 00 06 80 07 80  08 80 1F 01 1F 00 09 80  ................
0060: 0A 80 08 80 1F 01 22 01  1C 0B 80 22 00 1F 00 0C  ......"...."....
0070: 80 0D 80 08 80 1F 01 1F  00 06 80 07 80 08 80 1F  ................
0080: 01 1F 00 0E 80 0F 80 08  80 1F 01 1E F0 FF FF 7F  ................
0090: 6F 70 66 00 80 F8 FF FF  7F F8 FF FF 7F 74 6C 6B  opf..........tlk
00A0: 30 02 00 00 10 80 00 BA  00 03 02 10 11 80 1D 12  0...............
00B0: 80 23 03 01 10 03 80 01  C3 00 1D 13 80 23 03 01  .#...........#..
00C0: 10 10 80 01 5D 01 02 00  10 10 80 00 5D 01 66 00  ....].......].f.
00D0: 80 F8 FF FF 7F F8 FF FF  7F 74 6C 6B 30 1D 04 80  .........tlk0...
00E0: 23 5E 69 64 6C 30 1C 05  80 1F 00 06 80 07 80 08  #^idl0..........
00F0: 80 1F 01 1F 00 09 80 0A  80 08 80 1F 01 22 01 1C  ............."..
0100: 0B 80 22 00 1F 00 0C 80  0D 80 08 80 1F 01 1F 00  ..".............
0110: 06 80 07 80 08 80 1F 01  1F 00 0E 80 0F 80 08 80  ................
0120: 1F 01 1E F0 FF FF 7F 6F  70 66 00 80 F8 FF FF 7F  .......opf......
0130: F8 FF FF 7F 74 6C 6B 30  02 00 00 03 80 00 51 01  ....tlk0......Q.
0140: 03 02 10 11 80 1D 14 80  23 03 01 10 03 80 01 5A  ........#......Z
0150: 01 1D 15 80 23 03 01 10  10 80 01 5D 01 1D 16 80  ....#......]....
0160: 23 5E 69 64 6C 30 1C 05  80 21 00                 #^idl0...!.     
```

#### Opcodes

```
  0: 0x0002 [0x42] SET_CLI_EVENT_CANCEL_DATA()
  1: 0x0003 [0x1E] EventEntity looks at LocalPlayer and starts talking
  2: 0x0008 [0x6F] WAIT_FRAME_DELAY: Yield until WaitTime reaches zero
  3: 0x0009 [0x70] WAIT_ENTITY_RENDER_FLAG: Wait while EventEntity->Render.Flags3 bit 2 is set (cancel turn if not)
  4: 0x000A [0x03] ExtData[1]->WorkLocal[0] = Work_Zone[8]
  5: 0x000F [0x66] LOAD_EXT_SCHEDULER_MAIN: Load scheduler "tlk0" with entities [EventEntity, EventEntity], work=20*
  6: 0x001E [0x1D] PRINT_EVENT_MESSAGE(message_id=11367*)
    → "A receipt, eh? I can't read this fancy writing. Who's it for? Prince Trion, or Prince Pieuje?"
  7: 0x0021 [0x23] WAIT_FOR_DIALOG_INTERACTION
  8: 0x0022 [0x5E] EventEntity goes idle (kills current action) (animation: "idl0")
  9: 0x0027 [0x24] CREATE_DIALOG(message_id=11368*, default_option=0*, option_flags=0*)
    → "Who is it for? [Prince Trion./Prince Pieuje.]"
 10: 0x002E [0x25] WAIT_DIALOG_SELECT()
 11: 0x002F [0x02] IF !(Work_Zone[0] == 0*) GOTO 0x00C6
 12: 0x0037 [0x66] LOAD_EXT_SCHEDULER_MAIN: Load scheduler "tlk0" with entities [EventEntity, EventEntity], work=20*
 13: 0x0046 [0x1D] PRINT_EVENT_MESSAGE(message_id=11371*)
    → "All right, I'll deliver it for you. We can't let you in looking like that! Wait here."
 14: 0x0049 [0x23] WAIT_FOR_DIALOG_INTERACTION
 15: 0x004A [0x5E] EventEntity goes idle (kills current action) (animation: "idl0")
 16: 0x004F [0x1C] WAIT(30* ticks)
 17: 0x0052 [0x1F] MOVE_ENTITY: EventEntity moves to X=-3.827*, Z=107.453*, Y=-3.000*
 18: 0x005A [0x1F] MOVE_ENTITY: Update entity position (mode=1)
 19: 0x005C [0x1F] MOVE_ENTITY: EventEntity moves to X=-1.014*, Z=151.520*, Y=-3.000*
 20: 0x0064 [0x1F] MOVE_ENTITY: Update entity position (mode=1)
 21: 0x0066 [0x22] ENTITY_HIDE_FLAG(enabled=0x01)
 22: 0x0068 [0x1C] WAIT(60* ticks)
 23: 0x006B [0x22] ENTITY_HIDE_FLAG(enabled=0x00)
 24: 0x006D [0x1F] MOVE_ENTITY: EventEntity moves to X=-1.398*, Z=148.767*, Y=-3.000*
 25: 0x0075 [0x1F] MOVE_ENTITY: Update entity position (mode=1)
 26: 0x0077 [0x1F] MOVE_ENTITY: EventEntity moves to X=-3.827*, Z=107.453*, Y=-3.000*
 27: 0x007F [0x1F] MOVE_ENTITY: Update entity position (mode=1)
 28: 0x0081 [0x1F] MOVE_ENTITY: EventEntity moves to X=-4.500*, Z=99.000*, Y=-3.000*
 29: 0x0089 [0x1F] MOVE_ENTITY: Update entity position (mode=1)
 30: 0x008B [0x1E] EventEntity looks at LocalPlayer and starts talking
 31: 0x0090 [0x6F] WAIT_FRAME_DELAY: Yield until WaitTime reaches zero
 32: 0x0091 [0x70] WAIT_ENTITY_RENDER_FLAG: Wait while EventEntity->Render.Flags3 bit 2 is set (cancel turn if not)
 33: 0x0092 [0x66] LOAD_EXT_SCHEDULER_MAIN: Load scheduler "tlk0" with entities [EventEntity, EventEntity], work=20*
 34: 0x00A1 [0x02] IF !(ExtData[1]->WorkLocal[0] == 1*) GOTO 0x00BA
 35: 0x00A9 [0x03] Work_Zone[2] = 119*
 36: 0x00AE [0x1D] PRINT_EVENT_MESSAGE(message_id=11372*)
    → "I delivered the $3 to Prince Trion. You're dismissed."
 37: 0x00B1 [0x23] WAIT_FOR_DIALOG_INTERACTION
 38: 0x00B2 [0x03] Work_Zone[1] = 0*
 39: 0x00B7 [0x01] GOTO 0x00C3
 40: 0x00BA [0x1D] PRINT_EVENT_MESSAGE(message_id=11375*)
    → "Imbecile! That envelope was for Prince Pieuje, not Prince Trion! Such idiocy... Get out of here!"
 41: 0x00BD [0x23] WAIT_FOR_DIALOG_INTERACTION
 42: 0x00BE [0x03] Work_Zone[1] = 1*

SUBROUTINE_00C3:
 43: 0x00C3 [0x01] GOTO 0x015D
 44: 0x00C6 [0x02] IF !(Work_Zone[0] == 1*) GOTO 0x015D
 45: 0x00CE [0x66] LOAD_EXT_SCHEDULER_MAIN: Load scheduler "tlk0" with entities [EventEntity, EventEntity], work=20*
 46: 0x00DD [0x1D] PRINT_EVENT_MESSAGE(message_id=11371*)
    → "All right, I'll deliver it for you. We can't let you in looking like that! Wait here."
 47: 0x00E0 [0x23] WAIT_FOR_DIALOG_INTERACTION
 48: 0x00E1 [0x5E] EventEntity goes idle (kills current action) (animation: "idl0")
 49: 0x00E6 [0x1C] WAIT(30* ticks)
 50: 0x00E9 [0x1F] MOVE_ENTITY: EventEntity moves to X=-3.827*, Z=107.453*, Y=-3.000*
 51: 0x00F1 [0x1F] MOVE_ENTITY: Update entity position (mode=1)
 52: 0x00F3 [0x1F] MOVE_ENTITY: EventEntity moves to X=-1.014*, Z=151.520*, Y=-3.000*
 53: 0x00FB [0x1F] MOVE_ENTITY: Update entity position (mode=1)
 54: 0x00FD [0x22] ENTITY_HIDE_FLAG(enabled=0x01)
 55: 0x00FF [0x1C] WAIT(60* ticks)
 56: 0x0102 [0x22] ENTITY_HIDE_FLAG(enabled=0x00)
 57: 0x0104 [0x1F] MOVE_ENTITY: EventEntity moves to X=-1.398*, Z=148.767*, Y=-3.000*
 58: 0x010C [0x1F] MOVE_ENTITY: Update entity position (mode=1)
 59: 0x010E [0x1F] MOVE_ENTITY: EventEntity moves to X=-3.827*, Z=107.453*, Y=-3.000*
 60: 0x0116 [0x1F] MOVE_ENTITY: Update entity position (mode=1)
 61: 0x0118 [0x1F] MOVE_ENTITY: EventEntity moves to X=-4.500*, Z=99.000*, Y=-3.000*
 62: 0x0120 [0x1F] MOVE_ENTITY: Update entity position (mode=1)
 63: 0x0122 [0x1E] EventEntity looks at LocalPlayer and starts talking
 64: 0x0127 [0x6F] WAIT_FRAME_DELAY: Yield until WaitTime reaches zero
 65: 0x0128 [0x70] WAIT_ENTITY_RENDER_FLAG: Wait while EventEntity->Render.Flags3 bit 2 is set (cancel turn if not)
 66: 0x0129 [0x66] LOAD_EXT_SCHEDULER_MAIN: Load scheduler "tlk0" with entities [EventEntity, EventEntity], work=20*
 67: 0x0138 [0x02] IF !(ExtData[1]->WorkLocal[0] == 0*) GOTO 0x0151
 68: 0x0140 [0x03] Work_Zone[2] = 119*
 69: 0x0145 [0x1D] PRINT_EVENT_MESSAGE(message_id=11373*)
    → "I delivered the $3 to Prince Pieuje. You're dismissed."
 70: 0x0148 [0x23] WAIT_FOR_DIALOG_INTERACTION
 71: 0x0149 [0x03] Work_Zone[1] = 0*
 72: 0x014E [0x01] GOTO 0x015A
 73: 0x0151 [0x1D] PRINT_EVENT_MESSAGE(message_id=11374*)
    → "Imbecile! That envelope was for Prince Trion, not Prince Pieuje! Such idiocy... Get out of here!"
 74: 0x0154 [0x23] WAIT_FOR_DIALOG_INTERACTION
 75: 0x0155 [0x03] Work_Zone[1] = 1*

SUBROUTINE_015A:
 76: 0x015A [0x01] GOTO 0x015D

SUBROUTINE_015D:
 77: 0x015D [0x1D] PRINT_EVENT_MESSAGE(message_id=11376*)
    → "Oh, and tell that shopkeeper to send someone respectable next time!"
 78: 0x0160 [0x23] WAIT_FOR_DIALOG_INTERACTION
 79: 0x0161 [0x5E] EventEntity goes idle (kills current action) (animation: "idl0")
 80: 0x0166 [0x1C] WAIT(30* ticks)
 81: 0x0169 [0x21] END_EVENT
 82: 0x016A [0x00] END_REQSTACK()
```

### Event 810

#### Metadata

| Field        | Value   |
|--------------|---------|
| Entrypoint   | 0x016B  |
| Data Size    | 1 bytes |
| Instructions | 1       |

```
      00 01 02 03 04 05 06 07  08 09 0A 0B 0C 0D 0E 0F
      -- -- -- -- -- -- -- --  -- -- -- -- -- -- -- --
0160:                                   00                         .    
```

#### Opcodes

```
  0: 0x016B [0x00] END_REQSTACK()
```

### Event 65535.1

#### Metadata

| Field        | Value    |
|--------------|----------|
| Entrypoint   | 0x016C   |
| Data Size    | 65 bytes |
| Instructions | 17       |

```
      00 01 02 03 04 05 06 07  08 09 0A 0B 0C 0D 0E 0F
      -- -- -- -- -- -- -- --  -- -- -- -- -- -- -- --
0160:                                      1F 00 06 80              ....
0170: 07 80 08 80 1F 01 1F 00  09 80 0A 80 08 80 1F 01  ................
0180: 22 01 1C 0B 80 22 00 1F  00 0C 80 0D 80 08 80 1F  "...."..........
0190: 01 1F 00 06 80 07 80 08  80 1F 01 1F 00 0E 80 0F  ................
01A0: 80 08 80 1F 01 1E F0 FF  FF 7F 6F 70 00           ..........op.   
```

#### Opcodes

```
  0: 0x016C [0x1F] MOVE_ENTITY: EventEntity moves to X=-3.827*, Z=107.453*, Y=-3.000*
  1: 0x0174 [0x1F] MOVE_ENTITY: Update entity position (mode=1)
  2: 0x0176 [0x1F] MOVE_ENTITY: EventEntity moves to X=-1.014*, Z=151.520*, Y=-3.000*
  3: 0x017E [0x1F] MOVE_ENTITY: Update entity position (mode=1)
  4: 0x0180 [0x22] ENTITY_HIDE_FLAG(enabled=0x01)
  5: 0x0182 [0x1C] WAIT(60* ticks)
  6: 0x0185 [0x22] ENTITY_HIDE_FLAG(enabled=0x00)
  7: 0x0187 [0x1F] MOVE_ENTITY: EventEntity moves to X=-1.398*, Z=148.767*, Y=-3.000*
  8: 0x018F [0x1F] MOVE_ENTITY: Update entity position (mode=1)
  9: 0x0191 [0x1F] MOVE_ENTITY: EventEntity moves to X=-3.827*, Z=107.453*, Y=-3.000*
 10: 0x0199 [0x1F] MOVE_ENTITY: Update entity position (mode=1)
 11: 0x019B [0x1F] MOVE_ENTITY: EventEntity moves to X=-4.500*, Z=99.000*, Y=-3.000*
 12: 0x01A3 [0x1F] MOVE_ENTITY: Update entity position (mode=1)
 13: 0x01A5 [0x1E] EventEntity looks at LocalPlayer and starts talking
 14: 0x01AA [0x6F] WAIT_FRAME_DELAY: Yield until WaitTime reaches zero
 15: 0x01AB [0x70] WAIT_ENTITY_RENDER_FLAG: Wait while EventEntity->Render.Flags3 bit 2 is set (cancel turn if not)
 16: 0x01AC [0x00] END_REQSTACK()
```

### Event 65535.2

#### Metadata

| Field        | Value    |
|--------------|----------|
| Entrypoint   | 0x01AD   |
| Data Size    | 10 bytes |
| Instructions | 2        |

```
      00 01 02 03 04 05 06 07  08 09 0A 0B 0C 0D 0E 0F
      -- -- -- -- -- -- -- --  -- -- -- -- -- -- -- --
01A0:                                         37 0E 80               7..
01B0: 0F 80 03 80 17 80 00                              .......         
```

#### Opcodes

```
  0: 0x01AD [0x37] UPDATE_EVENT_POSITION_AND_DIR: x=-4.500*, z=99.000*, y=0.000*, direction=90.0°*
  1: 0x01B6 [0x00] END_REQSTACK()
```

### Event 866

#### Metadata

| Field        | Value   |
|--------------|---------|
| Entrypoint   | 0x01B7  |
| Data Size    | 1 bytes |
| Instructions | 1       |

```
      00 01 02 03 04 05 06 07  08 09 0A 0B 0C 0D 0E 0F
      -- -- -- -- -- -- -- --  -- -- -- -- -- -- -- --
01B0:                      00                                  .        
```

#### Opcodes

```
  0: 0x01B7 [0x00] END_REQSTACK()
```

### Event 65535.3

#### Metadata

| Field        | Value    |
|--------------|----------|
| Entrypoint   | 0x01B8   |
| Data Size    | 11 bytes |
| Instructions | 3        |

```
      00 01 02 03 04 05 06 07  08 09 0A 0B 0C 0D 0E 0F
      -- -- -- -- -- -- -- --  -- -- -- -- -- -- -- --
01B0:                          1F 00 18 80 19 80 1A 80          ........
01C0: 1F 01 00                                          ...             
```

#### Opcodes

```
  0: 0x01B8 [0x1F] MOVE_ENTITY: EventEntity moves to X=-3.415*, Z=117.399*, Y=-1.999*
  1: 0x01C0 [0x1F] MOVE_ENTITY: Update entity position (mode=1)
  2: 0x01C2 [0x00] END_REQSTACK()
```

### Event 65535.4

#### Metadata

| Field        | Value    |
|--------------|----------|
| Entrypoint   | 0x01C3   |
| Data Size    | 21 bytes |
| Instructions | 5        |

```
      00 01 02 03 04 05 06 07  08 09 0A 0B 0C 0D 0E 0F
      -- -- -- -- -- -- -- --  -- -- -- -- -- -- -- --
01C0:          1F 00 1B 80 1C  80 03 80 1F 01 6F 4A 05     ..........oJ.
01D0: 70 0E 01 F0 FF FF 7F 00                           p.......        
```

#### Opcodes

```
  0: 0x01C3 [0x1F] MOVE_ENTITY: EventEntity moves to X=-3.432*, Z=99.498*, Y=0.000*
  1: 0x01CB [0x1F] MOVE_ENTITY: Update entity position (mode=1)
  2: 0x01CD [0x6F] WAIT_FRAME_DELAY: Yield until WaitTime reaches zero
  3: 0x01CE [0x4A] Guilerme (ID: 17723397/0x010E7005) looks at LocalPlayer
  4: 0x01D7 [0x00] END_REQSTACK()
```

### Event 878

#### Metadata

| Field        | Value   |
|--------------|---------|
| Entrypoint   | 0x01D8  |
| Data Size    | 7 bytes |
| Instructions | 2       |

```
      00 01 02 03 04 05 06 07  08 09 0A 0B 0C 0D 0E 0F
      -- -- -- -- -- -- -- --  -- -- -- -- -- -- -- --
01D0:                          92 01 F8 FF FF 7F 00             ....... 
```

#### Opcodes

```
  0: 0x01D8 [0x92] EventEntity->Render.Flags3 ^= 0x01
  1: 0x01DE [0x00] END_REQSTACK()
```
