# 17723773 - Gertrude

## Common Data

| Field            | Value                         |
|------------------|-------------------------------|
| Zone             | Northern San d'Oria (ID: 231) |
| Block Size       | 544 bytes                     |
| Total Events     | 6                             |
| References Count | 28                            |

## List of Events

| Event ID              | Entrypoint   |   Size |   Instructions |
|-----------------------|--------------|--------|----------------|
| [65535](#event-65535) | 0x0000       |      1 |              1 |
| [32728](#event-32728) | 0x0001       |    126 |             42 |
| [32729](#event-32729) | 0x007F       |     70 |             19 |
| [32730](#event-32730) | 0x00C5       |     55 |             15 |
| [32731](#event-32731) | 0x00FC       |    126 |             42 |
| [32732](#event-32732) | 0x017A       |     11 |              5 |

## DAT References (imed_data)

|   Index | Hex Value   |   Dec Value |
|---------|-------------|-------------|
|       0 | 0x0000      |           0 |
|       1 | 0x435A      |       17242 |
|       2 | 0x435B      |       17243 |
|       3 | 0x435C      |       17244 |
|       4 | 0x435D      |       17245 |
|       5 | 0x0001      |           1 |
|       6 | 0x435E      |       17246 |
|       7 | 0x435F      |       17247 |
|       8 | 0x4360      |       17248 |
|       9 | 0x4362      |       17250 |
|      10 | 0x4363      |       17251 |
|      11 | 0x4364      |       17252 |
|      12 | 0x4365      |       17253 |
|      13 | 0x4366      |       17254 |
|      14 | 0x4367      |       17255 |
|      15 | 0x4361      |       17249 |
|      16 | 0x4368      |       17256 |
|      17 | 0x4369      |       17257 |
|      18 | 0x0013      |          19 |
|      19 | 0x005A      |          90 |
|      20 | 0x003C      |          60 |
|      21 | 0x436A      |       17258 |
|      22 | 0x436B      |       17259 |
|      23 | 0x436C      |       17260 |
|      24 | 0x433F      |       17215 |
|      25 | 0x436D      |       17261 |
|      26 | 0x436E      |       17262 |
|      27 | 0x4371      |       17265 |

## String References

- **17215**: Give up? [I'm done./Not yet.]
- **17242**: Hi, I'm Gertrude. I'm helping with some of the Harvest Festival activities. Have you heard about our hiring policies?
- **17243**: Heard about them? [Yes./Not at all.]
- **17244**: You have? Well, that makes my job easier, then.
- **17245**: So, would you like to sign up for the Procession of the Lilies?
- **17246**: No? Then let me fill you in on the details. We are currently holding a memorial for the Dark Lilies, in which two women dressed as members of the lost coven lead a party of spirits around the city.
- **17247**: There is a shortage of volunteers for the witches' undead followers, and I was wondering if you would like to help.
- **17248**: Sign up? [Right away!/Not today.]
- **17249**: Adventurers are often very busy, or so I've heard. Please come back if you change your mind.
- **17250**: Wonderful. There are just two more things I must warn you of, however.
- **17251**: First and foremost, during the procession, the witches are boss, so don't even think of stepping in front of them. If you do, your costume will be immediately confiscated.
- **17252**: Ah, but if that happens, you need not worry. Just put on another costume and try again!
- **17253**: Secondly, there are two witches in the city--Maryse and Poseaulloie.
- **17254**: You are to join with Poseaulloie's congregation.
- **17255**: Good luck!
- **17256**: How did you fare...? Was the witch pleased?
- **17257**: Either way, your help has been invaluable. Would you accept this in appreciation?
- **17258**: It's a witch hat. Please wear it in the festivities and forget about ghosts and spirits for a while...
- **17259**: Though, if you have time, we would gladly accept your help again.
- **17260**: What's wrong? Have you grown tired of your duties?
- **17261**: Oh, I see... Well, please return to me if you find your patience for them restored.
- **17262**: You are to join with Maryse's congregation.
- **17265**: You'll be the first to know when I have a new opening.

## Events

### Event 65535

#### Metadata

| Field        | Value   |
|--------------|---------|
| Entrypoint   | 0x0000  |
| Data Size    | 1 bytes |
| Instructions | 1       |

```
      00 01 02 03 04 05 06 07  08 09 0A 0B 0C 0D 0E 0F
      -- -- -- -- -- -- -- --  -- -- -- -- -- -- -- --
0000: 00                                                .               
```

#### Opcodes

```
  0: 0x0000 [0x00] END_REQSTACK()
```

### Event 32728

#### Metadata

| Field        | Value     |
|--------------|-----------|
| Entrypoint   | 0x0001    |
| Data Size    | 126 bytes |
| Instructions | 42        |

```
      00 01 02 03 04 05 06 07  08 09 0A 0B 0C 0D 0E 0F
      -- -- -- -- -- -- -- --  -- -- -- -- -- -- -- --
0000:    03 01 10 00 80 1E F0  FF FF 7F 1D 01 80 23 24   .............#$
0010: 02 80 00 80 00 80 25 02  00 10 00 80 00 2A 00 1D  ......%......*..
0020: 03 80 23 1D 04 80 23 01  3D 00 02 00 10 05 80 00  ..#...#.=.......
0030: 3D 00 1D 06 80 23 1D 07  80 23 01 3D 00 24 08 80  =....#...#.=.$..
0040: 00 80 00 80 25 02 00 10  00 80 00 6E 00 42 1D 09  ....%......n.B..
0050: 80 23 1D 0A 80 23 1D 0B  80 23 1D 0C 80 23 1D 0D  .#...#...#...#..
0060: 80 23 1D 0E 80 23 03 01  10 05 80 01 7D 00 02 00  .#...#......}...
0070: 10 05 80 00 7D 00 1D 0F  80 23 01 7D 00 21 00     ....}....#.}.!. 
```

#### Opcodes

```
  0: 0x0001 [0x03] Work_Zone[1] = 0*
  1: 0x0006 [0x1E] EventEntity looks at LocalPlayer and starts talking
  2: 0x000B [0x1D] PRINT_EVENT_MESSAGE(message_id=17242*)
    → "Hi, I'm Gertrude. I'm helping with some of the Harvest Festival activities. Have you heard about our hiring policies?"
  3: 0x000E [0x23] WAIT_FOR_DIALOG_INTERACTION
  4: 0x000F [0x24] CREATE_DIALOG(message_id=17243*, default_option=0*, option_flags=0*)
    → "Heard about them? [Yes./Not at all.]"
  5: 0x0016 [0x25] WAIT_DIALOG_SELECT()
  6: 0x0017 [0x02] IF !(Work_Zone[0] == 0*) GOTO 0x002A
  7: 0x001F [0x1D] PRINT_EVENT_MESSAGE(message_id=17244*)
    → "You have? Well, that makes my job easier, then."
  8: 0x0022 [0x23] WAIT_FOR_DIALOG_INTERACTION
  9: 0x0023 [0x1D] PRINT_EVENT_MESSAGE(message_id=17245*)
    → "So, would you like to sign up for the Procession of the Lilies?"
 10: 0x0026 [0x23] WAIT_FOR_DIALOG_INTERACTION
 11: 0x0027 [0x01] GOTO 0x003D
 12: 0x002A [0x02] IF !(Work_Zone[0] == 1*) GOTO 0x003D
 13: 0x0032 [0x1D] PRINT_EVENT_MESSAGE(message_id=17246*)
    → "No? Then let me fill you in on the details. We are currently holding a memorial for the Dark Lilies, in which two women dressed as members of the lost coven lead a party of spirits around the city."
 14: 0x0035 [0x23] WAIT_FOR_DIALOG_INTERACTION
 15: 0x0036 [0x1D] PRINT_EVENT_MESSAGE(message_id=17247*)
    → "There is a shortage of volunteers for the witches' undead followers, and I was wondering if you would like to help."
 16: 0x0039 [0x23] WAIT_FOR_DIALOG_INTERACTION
 17: 0x003A [0x01] GOTO 0x003D

SUBROUTINE_003D:
 18: 0x003D [0x24] CREATE_DIALOG(message_id=17248*, default_option=0*, option_flags=0*)
    → "Sign up? [Right away!/Not today.]"
 19: 0x0044 [0x25] WAIT_DIALOG_SELECT()
 20: 0x0045 [0x02] IF !(Work_Zone[0] == 0*) GOTO 0x006E
 21: 0x004D [0x42] SET_CLI_EVENT_CANCEL_DATA()
 22: 0x004E [0x1D] PRINT_EVENT_MESSAGE(message_id=17250*)
    → "Wonderful. There are just two more things I must warn you of, however."
 23: 0x0051 [0x23] WAIT_FOR_DIALOG_INTERACTION
 24: 0x0052 [0x1D] PRINT_EVENT_MESSAGE(message_id=17251*)
    → "First and foremost, during the procession, the witches are boss, so don't even think of stepping in front of them. If you do, your costume will be immediately confiscated."
 25: 0x0055 [0x23] WAIT_FOR_DIALOG_INTERACTION
 26: 0x0056 [0x1D] PRINT_EVENT_MESSAGE(message_id=17252*)
    → "Ah, but if that happens, you need not worry. Just put on another costume and try again!"
 27: 0x0059 [0x23] WAIT_FOR_DIALOG_INTERACTION
 28: 0x005A [0x1D] PRINT_EVENT_MESSAGE(message_id=17253*)
    → "Secondly, there are two witches in the city--Maryse and Poseaulloie."
 29: 0x005D [0x23] WAIT_FOR_DIALOG_INTERACTION
 30: 0x005E [0x1D] PRINT_EVENT_MESSAGE(message_id=17254*)
    → "You are to join with Poseaulloie's congregation."
 31: 0x0061 [0x23] WAIT_FOR_DIALOG_INTERACTION
 32: 0x0062 [0x1D] PRINT_EVENT_MESSAGE(message_id=17255*)
    → "Good luck!"
 33: 0x0065 [0x23] WAIT_FOR_DIALOG_INTERACTION
 34: 0x0066 [0x03] Work_Zone[1] = 1*
 35: 0x006B [0x01] GOTO 0x007D
 36: 0x006E [0x02] IF !(Work_Zone[0] == 1*) GOTO 0x007D
 37: 0x0076 [0x1D] PRINT_EVENT_MESSAGE(message_id=17249*)
    → "Adventurers are often very busy, or so I've heard. Please come back if you change your mind."
 38: 0x0079 [0x23] WAIT_FOR_DIALOG_INTERACTION
 39: 0x007A [0x01] GOTO 0x007D

SUBROUTINE_007D:
 40: 0x007D [0x21] END_EVENT
 41: 0x007E [0x00] END_REQSTACK()
```

### Event 32729

#### Metadata

| Field        | Value    |
|--------------|----------|
| Entrypoint   | 0x007F   |
| Data Size    | 70 bytes |
| Instructions | 19       |

```
      00 01 02 03 04 05 06 07  08 09 0A 0B 0C 0D 0E 0F
      -- -- -- -- -- -- -- --  -- -- -- -- -- -- -- --
0070:                                               42                 B
0080: 1E F0 FF FF 7F 6F 70 1D  10 80 23 1D 11 80 23 66  .....op...#...#f
0090: 12 80 F8 FF FF 7F F8 FF  FF 7F 74 6C 6B 30 1C 13  ..........tlk0..
00A0: 80 66 12 80 F8 FF FF 7F  F8 FF FF 7F 74 6C 6B 31  .f..........tlk1
00B0: 1C 14 80 02 03 10 00 80  00 BF 00 1D 15 80 23 1D  ..............#.
00C0: 16 80 23 21 00                                    ..#!.           
```

#### Opcodes

```
  0: 0x007F [0x42] SET_CLI_EVENT_CANCEL_DATA()
  1: 0x0080 [0x1E] EventEntity looks at LocalPlayer and starts talking
  2: 0x0085 [0x6F] WAIT_FRAME_DELAY: Yield until WaitTime reaches zero
  3: 0x0086 [0x70] WAIT_ENTITY_RENDER_FLAG: Wait while EventEntity->Render.Flags3 bit 2 is set (cancel turn if not)
  4: 0x0087 [0x1D] PRINT_EVENT_MESSAGE(message_id=17256*)
    → "How did you fare...? Was the witch pleased?"
  5: 0x008A [0x23] WAIT_FOR_DIALOG_INTERACTION
  6: 0x008B [0x1D] PRINT_EVENT_MESSAGE(message_id=17257*)
    → "Either way, your help has been invaluable. Would you accept this in appreciation?"
  7: 0x008E [0x23] WAIT_FOR_DIALOG_INTERACTION
  8: 0x008F [0x66] LOAD_EXT_SCHEDULER_MAIN: Load scheduler "tlk0" with entities [EventEntity, EventEntity], work=19*
  9: 0x009E [0x1C] WAIT(90* ticks)
 10: 0x00A1 [0x66] LOAD_EXT_SCHEDULER_MAIN: Load scheduler "tlk1" with entities [EventEntity, EventEntity], work=19*
 11: 0x00B0 [0x1C] WAIT(60* ticks)
 12: 0x00B3 [0x02] IF !(Work_Zone[3] == 0*) GOTO 0x00BF
 13: 0x00BB [0x1D] PRINT_EVENT_MESSAGE(message_id=17258*)
    → "It's a witch hat. Please wear it in the festivities and forget about ghosts and spirits for a while..."
 14: 0x00BE [0x23] WAIT_FOR_DIALOG_INTERACTION
 15: 0x00BF [0x1D] PRINT_EVENT_MESSAGE(message_id=17259*)
    → "Though, if you have time, we would gladly accept your help again."
 16: 0x00C2 [0x23] WAIT_FOR_DIALOG_INTERACTION
 17: 0x00C3 [0x21] END_EVENT
 18: 0x00C4 [0x00] END_REQSTACK()
```

### Event 32730

#### Metadata

| Field        | Value    |
|--------------|----------|
| Entrypoint   | 0x00C5   |
| Data Size    | 55 bytes |
| Instructions | 15       |

```
      00 01 02 03 04 05 06 07  08 09 0A 0B 0C 0D 0E 0F
      -- -- -- -- -- -- -- --  -- -- -- -- -- -- -- --
00C0:                03 01 10  00 80 1E F0 FF FF 7F 1D       ...........
00D0: 17 80 23 24 18 80 05 80  00 80 25 02 00 10 00 80  ..#$......%.....
00E0: 00 EF 00 1D 19 80 23 03  01 10 05 80 01 FA 00 02  ......#.........
00F0: 00 10 05 80 00 FA 00 01  FA 00 21 00              ..........!.    
```

#### Opcodes

```
  0: 0x00C5 [0x03] Work_Zone[1] = 0*
  1: 0x00CA [0x1E] EventEntity looks at LocalPlayer and starts talking
  2: 0x00CF [0x1D] PRINT_EVENT_MESSAGE(message_id=17260*)
    → "What's wrong? Have you grown tired of your duties?"
  3: 0x00D2 [0x23] WAIT_FOR_DIALOG_INTERACTION
  4: 0x00D3 [0x24] CREATE_DIALOG(message_id=17215*, default_option=1*, option_flags=0*)
    → "Give up? [I'm done./Not yet.]"
  5: 0x00DA [0x25] WAIT_DIALOG_SELECT()
  6: 0x00DB [0x02] IF !(Work_Zone[0] == 0*) GOTO 0x00EF
  7: 0x00E3 [0x1D] PRINT_EVENT_MESSAGE(message_id=17261*)
    → "Oh, I see... Well, please return to me if you find your patience for them restored."
  8: 0x00E6 [0x23] WAIT_FOR_DIALOG_INTERACTION
  9: 0x00E7 [0x03] Work_Zone[1] = 1*
 10: 0x00EC [0x01] GOTO 0x00FA
 11: 0x00EF [0x02] IF !(Work_Zone[0] == 1*) GOTO 0x00FA
 12: 0x00F7 [0x01] GOTO 0x00FA

SUBROUTINE_00FA:
 13: 0x00FA [0x21] END_EVENT
 14: 0x00FB [0x00] END_REQSTACK()
```

### Event 32731

#### Metadata

| Field        | Value     |
|--------------|-----------|
| Entrypoint   | 0x00FC    |
| Data Size    | 126 bytes |
| Instructions | 42        |

```
      00 01 02 03 04 05 06 07  08 09 0A 0B 0C 0D 0E 0F
      -- -- -- -- -- -- -- --  -- -- -- -- -- -- -- --
00F0:                                      03 01 10 00              ....
0100: 80 1E F0 FF FF 7F 1D 01  80 23 24 02 80 00 80 00  .........#$.....
0110: 80 25 02 00 10 00 80 00  25 01 1D 03 80 23 1D 04  .%......%....#..
0120: 80 23 01 38 01 02 00 10  05 80 00 38 01 1D 06 80  .#.8.......8....
0130: 23 1D 07 80 23 01 38 01  24 08 80 00 80 00 80 25  #...#.8.$......%
0140: 02 00 10 00 80 00 69 01  42 1D 09 80 23 1D 0A 80  ......i.B...#...
0150: 23 1D 0B 80 23 1D 0C 80  23 1D 1A 80 23 1D 0E 80  #...#...#...#...
0160: 23 03 01 10 05 80 01 78  01 02 00 10 05 80 00 78  #......x.......x
0170: 01 1D 0F 80 23 01 78 01  21 00                    ....#.x.!.      
```

#### Opcodes

```
  0: 0x00FC [0x03] Work_Zone[1] = 0*
  1: 0x0101 [0x1E] EventEntity looks at LocalPlayer and starts talking
  2: 0x0106 [0x1D] PRINT_EVENT_MESSAGE(message_id=17242*)
    → "Hi, I'm Gertrude. I'm helping with some of the Harvest Festival activities. Have you heard about our hiring policies?"
  3: 0x0109 [0x23] WAIT_FOR_DIALOG_INTERACTION
  4: 0x010A [0x24] CREATE_DIALOG(message_id=17243*, default_option=0*, option_flags=0*)
    → "Heard about them? [Yes./Not at all.]"
  5: 0x0111 [0x25] WAIT_DIALOG_SELECT()
  6: 0x0112 [0x02] IF !(Work_Zone[0] == 0*) GOTO 0x0125
  7: 0x011A [0x1D] PRINT_EVENT_MESSAGE(message_id=17244*)
    → "You have? Well, that makes my job easier, then."
  8: 0x011D [0x23] WAIT_FOR_DIALOG_INTERACTION
  9: 0x011E [0x1D] PRINT_EVENT_MESSAGE(message_id=17245*)
    → "So, would you like to sign up for the Procession of the Lilies?"
 10: 0x0121 [0x23] WAIT_FOR_DIALOG_INTERACTION
 11: 0x0122 [0x01] GOTO 0x0138
 12: 0x0125 [0x02] IF !(Work_Zone[0] == 1*) GOTO 0x0138
 13: 0x012D [0x1D] PRINT_EVENT_MESSAGE(message_id=17246*)
    → "No? Then let me fill you in on the details. We are currently holding a memorial for the Dark Lilies, in which two women dressed as members of the lost coven lead a party of spirits around the city."
 14: 0x0130 [0x23] WAIT_FOR_DIALOG_INTERACTION
 15: 0x0131 [0x1D] PRINT_EVENT_MESSAGE(message_id=17247*)
    → "There is a shortage of volunteers for the witches' undead followers, and I was wondering if you would like to help."
 16: 0x0134 [0x23] WAIT_FOR_DIALOG_INTERACTION
 17: 0x0135 [0x01] GOTO 0x0138

SUBROUTINE_0138:
 18: 0x0138 [0x24] CREATE_DIALOG(message_id=17248*, default_option=0*, option_flags=0*)
    → "Sign up? [Right away!/Not today.]"
 19: 0x013F [0x25] WAIT_DIALOG_SELECT()
 20: 0x0140 [0x02] IF !(Work_Zone[0] == 0*) GOTO 0x0169
 21: 0x0148 [0x42] SET_CLI_EVENT_CANCEL_DATA()
 22: 0x0149 [0x1D] PRINT_EVENT_MESSAGE(message_id=17250*)
    → "Wonderful. There are just two more things I must warn you of, however."
 23: 0x014C [0x23] WAIT_FOR_DIALOG_INTERACTION
 24: 0x014D [0x1D] PRINT_EVENT_MESSAGE(message_id=17251*)
    → "First and foremost, during the procession, the witches are boss, so don't even think of stepping in front of them. If you do, your costume will be immediately confiscated."
 25: 0x0150 [0x23] WAIT_FOR_DIALOG_INTERACTION
 26: 0x0151 [0x1D] PRINT_EVENT_MESSAGE(message_id=17252*)
    → "Ah, but if that happens, you need not worry. Just put on another costume and try again!"
 27: 0x0154 [0x23] WAIT_FOR_DIALOG_INTERACTION
 28: 0x0155 [0x1D] PRINT_EVENT_MESSAGE(message_id=17253*)
    → "Secondly, there are two witches in the city--Maryse and Poseaulloie."
 29: 0x0158 [0x23] WAIT_FOR_DIALOG_INTERACTION
 30: 0x0159 [0x1D] PRINT_EVENT_MESSAGE(message_id=17262*)
    → "You are to join with Maryse's congregation."
 31: 0x015C [0x23] WAIT_FOR_DIALOG_INTERACTION
 32: 0x015D [0x1D] PRINT_EVENT_MESSAGE(message_id=17255*)
    → "Good luck!"
 33: 0x0160 [0x23] WAIT_FOR_DIALOG_INTERACTION
 34: 0x0161 [0x03] Work_Zone[1] = 1*
 35: 0x0166 [0x01] GOTO 0x0178
 36: 0x0169 [0x02] IF !(Work_Zone[0] == 1*) GOTO 0x0178
 37: 0x0171 [0x1D] PRINT_EVENT_MESSAGE(message_id=17249*)
    → "Adventurers are often very busy, or so I've heard. Please come back if you change your mind."
 38: 0x0174 [0x23] WAIT_FOR_DIALOG_INTERACTION
 39: 0x0175 [0x01] GOTO 0x0178

SUBROUTINE_0178:
 40: 0x0178 [0x21] END_EVENT
 41: 0x0179 [0x00] END_REQSTACK()
```

### Event 32732

#### Metadata

| Field        | Value    |
|--------------|----------|
| Entrypoint   | 0x017A   |
| Data Size    | 11 bytes |
| Instructions | 5        |

```
      00 01 02 03 04 05 06 07  08 09 0A 0B 0C 0D 0E 0F
      -- -- -- -- -- -- -- --  -- -- -- -- -- -- -- --
0170:                                1E F0 FF FF 7F 1D            ......
0180: 1B 80 23 21 00                                    ..#!.           
```

#### Opcodes

```
  0: 0x017A [0x1E] EventEntity looks at LocalPlayer and starts talking
  1: 0x017F [0x1D] PRINT_EVENT_MESSAGE(message_id=17265*)
    → "You'll be the first to know when I have a new opening."
  2: 0x0182 [0x23] WAIT_FOR_DIALOG_INTERACTION
  3: 0x0183 [0x21] END_EVENT
  4: 0x0184 [0x00] END_REQSTACK()
```
