# 17723405 - Nouveil

## Common Data

| Field            | Value                         |
|------------------|-------------------------------|
| Zone             | Northern San d'Oria (ID: 231) |
| Block Size       | 772 bytes                     |
| Total Events     | 13                            |
| References Count | 24                            |

## List of Events

| Event ID                 | Entrypoint   |   Size |   Instructions |
|--------------------------|--------------|--------|----------------|
| [65535](#event-65535)    | 0x0000       |      1 |              1 |
| [1](#event-1)            | 0x0001       |     16 |              3 |
| [65535.1](#event-655351) | 0x0011       |     28 |              8 |
| [575](#event-575)        | 0x002D       |     99 |             17 |
| [571](#event-571)        | 0x0090       |     89 |             19 |
| [572](#event-572)        | 0x00E9       |     94 |             16 |
| [573](#event-573)        | 0x0147       |     99 |             17 |
| [574](#event-574)        | 0x01AA       |     44 |             10 |
| [588](#event-588)        | 0x01D6       |     64 |             12 |
| [513](#event-513)        | 0x0216       |      2 |              2 |
| [16](#event-16)          | 0x0218       |     18 |              4 |
| [976](#event-976)        | 0x022A       |     26 |              8 |
| [977](#event-977)        | 0x0244       |     27 |              9 |

## DAT References (imed_data)

|   Index | Hex Value   |   Dec Value |
|---------|-------------|-------------|
|       0 | 0x23527     |      144679 |
|       1 | 0x2274B     |      141131 |
|       2 | 0x0000      |           0 |
|       3 | 0x01B7      |         439 |
|       4 | 0x000D      |          13 |
|       5 | 0x22745     |      141125 |
|       6 | 0x22F2F     |      143151 |
|       7 | 0x223EE     |      140270 |
|       8 | 0x22B8C     |      142220 |
|       9 | 0x01ED      |         493 |
|      10 | 0x0014      |          20 |
|      11 | 0x025A      |         602 |
|      12 | 0x2BB6      |       11190 |
|      13 | 0x003C      |          60 |
|      14 | 0x2BBA      |       11194 |
|      15 | 0x001E      |          30 |
|      16 | 0x2BB9      |       11193 |
|      17 | 0x2BC0      |       11200 |
|      18 | 0x025B      |         603 |
|      19 | 0x2BBC      |       11196 |
|      20 | 0x2BC3      |       11203 |
|      21 | 0x1D723     |      120611 |
|      22 | 0x1A361     |      107361 |
|      23 | 0x09C0      |        2496 |

## String References

- **11190**: Should you seek $0, step forth! I humbly ask for a donation of 10 gil.
- **11193**: Take this $0 to East Ronfaure. "Trade" it to the Cheval River to draw its hallowed water!
- **11194**: May Paradise open its gates to you.
- **11196**: Present that $0 to Miageau. Stands he at the portal.
- **11200**: The Cheval runs through East Ronfaure. Exit the city through the Eastgate, and head north until you come to a small bridge over the river.
- **11203**: My [son/child], your offering of $0 was generous enough. You need not obtain another waterskin.

## Events

### Event 65535

#### Metadata

| Field        | Value   |
|--------------|---------|
| Entrypoint   | 0x0000  |
| Data Size    | 1 bytes |
| Instructions | 1       |

```
      00 01 02 03 04 05 06 07  08 09 0A 0B 0C 0D 0E 0F
      -- -- -- -- -- -- -- --  -- -- -- -- -- -- -- --
0000: 00                                                .               
```

#### Opcodes

```
  0: 0x0000 [0x00] END_REQSTACK()
```

### Event 1

#### Metadata

| Field        | Value    |
|--------------|----------|
| Entrypoint   | 0x0001   |
| Data Size    | 16 bytes |
| Instructions | 3        |

```
      00 01 02 03 04 05 06 07  08 09 0A 0B 0C 0D 0E 0F
      -- -- -- -- -- -- -- --  -- -- -- -- -- -- -- --
0000:    92 01 F8 FF FF 7F 37  00 80 01 80 02 80 03 80   ......7........
0010: 00                                                .               
```

#### Opcodes

```
  0: 0x0001 [0x92] EventEntity->Render.Flags3 ^= 0x01
  1: 0x0007 [0x37] UPDATE_EVENT_POSITION_AND_DIR: x=144.679*, z=141.131*, y=0.000*, direction=38.6°*
  2: 0x0010 [0x00] END_REQSTACK()
```

### Event 65535.1

#### Metadata

| Field        | Value    |
|--------------|----------|
| Entrypoint   | 0x0011   |
| Data Size    | 28 bytes |
| Instructions | 8        |

```
      00 01 02 03 04 05 06 07  08 09 0A 0B 0C 0D 0E 0F
      -- -- -- -- -- -- -- --  -- -- -- -- -- -- -- --
0010:    32 04 80 1F 00 05 80  06 80 02 80 1F 01 1F 00   2..............
0020: 07 80 08 80 02 80 1F 01  6F 39 09 80 00           ........o9...   
```

#### Opcodes

```
  0: 0x0011 [0x32] ExtData[1]->MainSpeed = 13* * 0.1
  1: 0x0014 [0x1F] MOVE_ENTITY: EventEntity moves to X=141.125*, Z=143.151*, Y=0.000*
  2: 0x001C [0x1F] MOVE_ENTITY: Update entity position (mode=1)
  3: 0x001E [0x1F] MOVE_ENTITY: EventEntity moves to X=140.270*, Z=142.220*, Y=0.000*
  4: 0x0026 [0x1F] MOVE_ENTITY: Update entity position (mode=1)
  5: 0x0028 [0x6F] WAIT_FRAME_DELAY: Yield until WaitTime reaches zero
  6: 0x0029 [0x39] SET_ENTITY_DIRECTION(direction=2.7°*)
  7: 0x002C [0x00] END_REQSTACK()
```

### Event 575

#### Metadata

| Field        | Value    |
|--------------|----------|
| Entrypoint   | 0x002D   |
| Data Size    | 99 bytes |
| Instructions | 17       |

```
      00 01 02 03 04 05 06 07  08 09 0A 0B 0C 0D 0E 0F
      -- -- -- -- -- -- -- --  -- -- -- -- -- -- -- --
0020:                                         1E F0 FF               ...
0030: FF 7F 6F 70 5B 0A 80 F8  FF FF 7F F8 FF FF 7F 74  ..op[..........t
0040: 6C 6B 30 03 02 10 0B 80  1D 0C 80 23 5B 0A 80 F8  lk0........#[...
0050: FF FF 7F F8 FF FF 7F 74  6C 6B 31 53 F8 FF FF 7F  .......tlk1S....
0060: F8 FF FF 7F 74 6C 6B 31  1C 0D 80 5B 0A 80 F8 FF  ....tlk1...[....
0070: FF 7F F8 FF FF 7F 69 6E  6F 30 1D 0E 80 23 53 F8  ......ino0...#S.
0080: FF FF 7F F8 FF FF 7F 69  6E 6F 30 1C 0F 80 21 00  .......ino0...!.
```

#### Opcodes

```
  0: 0x002D [0x1E] EventEntity looks at LocalPlayer and starts talking
  1: 0x0032 [0x6F] WAIT_FRAME_DELAY: Yield until WaitTime reaches zero
  2: 0x0033 [0x70] WAIT_ENTITY_RENDER_FLAG: Wait while EventEntity->Render.Flags3 bit 2 is set (cancel turn if not)
  3: 0x0034 [0x5B] LOAD_EXT_SCHEDULER: Load scheduler "tlk0" with entities [EventEntity, EventEntity], work=20*
  4: 0x0043 [0x03] Work_Zone[2] = 602*
  5: 0x0048 [0x1D] PRINT_EVENT_MESSAGE(message_id=11190*)
    → "Should you seek $0, step forth! I humbly ask for a donation of 10 gil."
  6: 0x004B [0x23] WAIT_FOR_DIALOG_INTERACTION
  7: 0x004C [0x5B] LOAD_EXT_SCHEDULER: Load scheduler "tlk1" with entities [EventEntity, EventEntity], work=20*
  8: 0x005B [0x53] WAIT_SCHEDULER_TASK: Wait for scheduler "tlk1" with entities [EventEntity, EventEntity]
  9: 0x0068 [0x1C] WAIT(60* ticks)
 10: 0x006B [0x5B] LOAD_EXT_SCHEDULER: Load scheduler "ino0" with entities [EventEntity, EventEntity], work=20*
 11: 0x007A [0x1D] PRINT_EVENT_MESSAGE(message_id=11194*)
    → "May Paradise open its gates to you."
 12: 0x007D [0x23] WAIT_FOR_DIALOG_INTERACTION
 13: 0x007E [0x53] WAIT_SCHEDULER_TASK: Wait for scheduler "ino0" with entities [EventEntity, EventEntity]
 14: 0x008B [0x1C] WAIT(30* ticks)
 15: 0x008E [0x21] END_EVENT
 16: 0x008F [0x00] END_REQSTACK()
```

### Event 571

#### Metadata

| Field        | Value    |
|--------------|----------|
| Entrypoint   | 0x0090   |
| Data Size    | 89 bytes |
| Instructions | 19       |

```
      00 01 02 03 04 05 06 07  08 09 0A 0B 0C 0D 0E 0F
      -- -- -- -- -- -- -- --  -- -- -- -- -- -- -- --
0090: 42 20 01 1E F0 FF FF 7F  6F 70 5B 0A 80 F8 FF FF  B ......op[.....
00A0: 7F F8 FF FF 7F 70 61 73  30 03 02 10 0B 80 1D 10  .....pas0.......
00B0: 80 23 53 F8 FF FF 7F F8  FF FF 7F 70 61 73 30 1C  .#S........pas0.
00C0: 0D 80 5B 0A 80 F8 FF FF  7F F8 FF FF 7F 69 6E 6F  ..[..........ino
00D0: 30 1D 0E 80 23 53 F8 FF  FF 7F F8 FF FF 7F 69 6E  0...#S........in
00E0: 6F 30 1C 0F 80 20 00 21  00                       o0... .!.       
```

#### Opcodes

```
  0: 0x0090 [0x42] SET_CLI_EVENT_CANCEL_DATA()
  1: 0x0091 [0x20] SET_CLI_EVENT_UC_FLAG: Lock player control
  2: 0x0093 [0x1E] EventEntity looks at LocalPlayer and starts talking
  3: 0x0098 [0x6F] WAIT_FRAME_DELAY: Yield until WaitTime reaches zero
  4: 0x0099 [0x70] WAIT_ENTITY_RENDER_FLAG: Wait while EventEntity->Render.Flags3 bit 2 is set (cancel turn if not)
  5: 0x009A [0x5B] LOAD_EXT_SCHEDULER: Load scheduler "pas0" with entities [EventEntity, EventEntity], work=20*
  6: 0x00A9 [0x03] Work_Zone[2] = 602*
  7: 0x00AE [0x1D] PRINT_EVENT_MESSAGE(message_id=11193*)
    → "Take this $0 to East Ronfaure. "Trade" it to the Cheval River to draw its hallowed water!"
  8: 0x00B1 [0x23] WAIT_FOR_DIALOG_INTERACTION
  9: 0x00B2 [0x53] WAIT_SCHEDULER_TASK: Wait for scheduler "pas0" with entities [EventEntity, EventEntity]
 10: 0x00BF [0x1C] WAIT(60* ticks)
 11: 0x00C2 [0x5B] LOAD_EXT_SCHEDULER: Load scheduler "ino0" with entities [EventEntity, EventEntity], work=20*
 12: 0x00D1 [0x1D] PRINT_EVENT_MESSAGE(message_id=11194*)
    → "May Paradise open its gates to you."
 13: 0x00D4 [0x23] WAIT_FOR_DIALOG_INTERACTION
 14: 0x00D5 [0x53] WAIT_SCHEDULER_TASK: Wait for scheduler "ino0" with entities [EventEntity, EventEntity]
 15: 0x00E2 [0x1C] WAIT(30* ticks)
 16: 0x00E5 [0x20] SET_CLI_EVENT_UC_FLAG: Unlock player control
 17: 0x00E7 [0x21] END_EVENT
 18: 0x00E8 [0x00] END_REQSTACK()
```

### Event 572

#### Metadata

| Field        | Value    |
|--------------|----------|
| Entrypoint   | 0x00E9   |
| Data Size    | 94 bytes |
| Instructions | 16       |

```
      00 01 02 03 04 05 06 07  08 09 0A 0B 0C 0D 0E 0F
      -- -- -- -- -- -- -- --  -- -- -- -- -- -- -- --
00E0:                             1E F0 FF FF 7F 6F 70           .....op
00F0: 5B 0A 80 F8 FF FF 7F F8  FF FF 7F 74 6C 6B 30 1D  [..........tlk0.
0100: 11 80 23 5B 0A 80 F8 FF  FF 7F F8 FF FF 7F 74 6C  ..#[..........tl
0110: 6B 31 53 F8 FF FF 7F F8  FF FF 7F 74 6C 6B 31 1C  k1S........tlk1.
0120: 0D 80 5B 0A 80 F8 FF FF  7F F8 FF FF 7F 69 6E 6F  ..[..........ino
0130: 30 1D 0E 80 23 53 F8 FF  FF 7F F8 FF FF 7F 69 6E  0...#S........in
0140: 6F 30 1C 0F 80 21 00                              o0...!.         
```

#### Opcodes

```
  0: 0x00E9 [0x1E] EventEntity looks at LocalPlayer and starts talking
  1: 0x00EE [0x6F] WAIT_FRAME_DELAY: Yield until WaitTime reaches zero
  2: 0x00EF [0x70] WAIT_ENTITY_RENDER_FLAG: Wait while EventEntity->Render.Flags3 bit 2 is set (cancel turn if not)
  3: 0x00F0 [0x5B] LOAD_EXT_SCHEDULER: Load scheduler "tlk0" with entities [EventEntity, EventEntity], work=20*
  4: 0x00FF [0x1D] PRINT_EVENT_MESSAGE(message_id=11200*)
    → "The Cheval runs through East Ronfaure. Exit the city through the Eastgate, and head north until you come to a small bridge over the river."
  5: 0x0102 [0x23] WAIT_FOR_DIALOG_INTERACTION
  6: 0x0103 [0x5B] LOAD_EXT_SCHEDULER: Load scheduler "tlk1" with entities [EventEntity, EventEntity], work=20*
  7: 0x0112 [0x53] WAIT_SCHEDULER_TASK: Wait for scheduler "tlk1" with entities [EventEntity, EventEntity]
  8: 0x011F [0x1C] WAIT(60* ticks)
  9: 0x0122 [0x5B] LOAD_EXT_SCHEDULER: Load scheduler "ino0" with entities [EventEntity, EventEntity], work=20*
 10: 0x0131 [0x1D] PRINT_EVENT_MESSAGE(message_id=11194*)
    → "May Paradise open its gates to you."
 11: 0x0134 [0x23] WAIT_FOR_DIALOG_INTERACTION
 12: 0x0135 [0x53] WAIT_SCHEDULER_TASK: Wait for scheduler "ino0" with entities [EventEntity, EventEntity]
 13: 0x0142 [0x1C] WAIT(30* ticks)
 14: 0x0145 [0x21] END_EVENT
 15: 0x0146 [0x00] END_REQSTACK()
```

### Event 573

#### Metadata

| Field        | Value    |
|--------------|----------|
| Entrypoint   | 0x0147   |
| Data Size    | 99 bytes |
| Instructions | 17       |

```
      00 01 02 03 04 05 06 07  08 09 0A 0B 0C 0D 0E 0F
      -- -- -- -- -- -- -- --  -- -- -- -- -- -- -- --
0140:                      1E  F0 FF FF 7F 6F 70 5B 0A         .....op[.
0150: 80 F8 FF FF 7F F8 FF FF  7F 74 6C 6B 30 03 02 10  .........tlk0...
0160: 12 80 1D 13 80 23 5B 0A  80 F8 FF FF 7F F8 FF FF  .....#[.........
0170: 7F 74 6C 6B 31 53 F8 FF  FF 7F F8 FF FF 7F 74 6C  .tlk1S........tl
0180: 6B 31 1C 0D 80 5B 0A 80  F8 FF FF 7F F8 FF FF 7F  k1...[..........
0190: 69 6E 6F 30 1D 0E 80 23  53 F8 FF FF 7F F8 FF FF  ino0...#S.......
01A0: 7F 69 6E 6F 30 1C 0F 80  21 00                    .ino0...!.      
```

#### Opcodes

```
  0: 0x0147 [0x1E] EventEntity looks at LocalPlayer and starts talking
  1: 0x014C [0x6F] WAIT_FRAME_DELAY: Yield until WaitTime reaches zero
  2: 0x014D [0x70] WAIT_ENTITY_RENDER_FLAG: Wait while EventEntity->Render.Flags3 bit 2 is set (cancel turn if not)
  3: 0x014E [0x5B] LOAD_EXT_SCHEDULER: Load scheduler "tlk0" with entities [EventEntity, EventEntity], work=20*
  4: 0x015D [0x03] Work_Zone[2] = 603*
  5: 0x0162 [0x1D] PRINT_EVENT_MESSAGE(message_id=11196*)
    → "Present that $0 to Miageau. Stands he at the portal."
  6: 0x0165 [0x23] WAIT_FOR_DIALOG_INTERACTION
  7: 0x0166 [0x5B] LOAD_EXT_SCHEDULER: Load scheduler "tlk1" with entities [EventEntity, EventEntity], work=20*
  8: 0x0175 [0x53] WAIT_SCHEDULER_TASK: Wait for scheduler "tlk1" with entities [EventEntity, EventEntity]
  9: 0x0182 [0x1C] WAIT(60* ticks)
 10: 0x0185 [0x5B] LOAD_EXT_SCHEDULER: Load scheduler "ino0" with entities [EventEntity, EventEntity], work=20*
 11: 0x0194 [0x1D] PRINT_EVENT_MESSAGE(message_id=11194*)
    → "May Paradise open its gates to you."
 12: 0x0197 [0x23] WAIT_FOR_DIALOG_INTERACTION
 13: 0x0198 [0x53] WAIT_SCHEDULER_TASK: Wait for scheduler "ino0" with entities [EventEntity, EventEntity]
 14: 0x01A5 [0x1C] WAIT(30* ticks)
 15: 0x01A8 [0x21] END_EVENT
 16: 0x01A9 [0x00] END_REQSTACK()
```

### Event 574

#### Metadata

| Field        | Value    |
|--------------|----------|
| Entrypoint   | 0x01AA   |
| Data Size    | 44 bytes |
| Instructions | 10       |

```
      00 01 02 03 04 05 06 07  08 09 0A 0B 0C 0D 0E 0F
      -- -- -- -- -- -- -- --  -- -- -- -- -- -- -- --
01A0:                                1E F0 FF FF 7F 6F            .....o
01B0: 70 5B 0A 80 F8 FF FF 7F  F8 FF FF 7F 69 6E 6F 30  p[..........ino0
01C0: 1D 0E 80 23 53 F8 FF FF  7F F8 FF FF 7F 69 6E 6F  ...#S........ino
01D0: 30 1C 0F 80 21 00                                 0...!.          
```

#### Opcodes

```
  0: 0x01AA [0x1E] EventEntity looks at LocalPlayer and starts talking
  1: 0x01AF [0x6F] WAIT_FRAME_DELAY: Yield until WaitTime reaches zero
  2: 0x01B0 [0x70] WAIT_ENTITY_RENDER_FLAG: Wait while EventEntity->Render.Flags3 bit 2 is set (cancel turn if not)
  3: 0x01B1 [0x5B] LOAD_EXT_SCHEDULER: Load scheduler "ino0" with entities [EventEntity, EventEntity], work=20*
  4: 0x01C0 [0x1D] PRINT_EVENT_MESSAGE(message_id=11194*)
    → "May Paradise open its gates to you."
  5: 0x01C3 [0x23] WAIT_FOR_DIALOG_INTERACTION
  6: 0x01C4 [0x53] WAIT_SCHEDULER_TASK: Wait for scheduler "ino0" with entities [EventEntity, EventEntity]
  7: 0x01D1 [0x1C] WAIT(30* ticks)
  8: 0x01D4 [0x21] END_EVENT
  9: 0x01D5 [0x00] END_REQSTACK()
```

### Event 588

#### Metadata

| Field        | Value    |
|--------------|----------|
| Entrypoint   | 0x01D6   |
| Data Size    | 64 bytes |
| Instructions | 12       |

```
      00 01 02 03 04 05 06 07  08 09 0A 0B 0C 0D 0E 0F
      -- -- -- -- -- -- -- --  -- -- -- -- -- -- -- --
01D0:                   1E F0  FF FF 7F 6F 70 5B 0A 80        .....op[..
01E0: F8 FF FF 7F F8 FF FF 7F  74 6C 6B 30 03 02 10 12  ........tlk0....
01F0: 80 1D 14 80 23 5B 0A 80  F8 FF FF 7F F8 FF FF 7F  ....#[..........
0200: 74 6C 6B 31 53 F8 FF FF  7F F8 FF FF 7F 74 6C 6B  tlk1S........tlk
0210: 31 1C 0F 80 21 00                                 1...!.          
```

#### Opcodes

```
  0: 0x01D6 [0x1E] EventEntity looks at LocalPlayer and starts talking
  1: 0x01DB [0x6F] WAIT_FRAME_DELAY: Yield until WaitTime reaches zero
  2: 0x01DC [0x70] WAIT_ENTITY_RENDER_FLAG: Wait while EventEntity->Render.Flags3 bit 2 is set (cancel turn if not)
  3: 0x01DD [0x5B] LOAD_EXT_SCHEDULER: Load scheduler "tlk0" with entities [EventEntity, EventEntity], work=20*
  4: 0x01EC [0x03] Work_Zone[2] = 603*
  5: 0x01F1 [0x1D] PRINT_EVENT_MESSAGE(message_id=11203*)
    → "My [son/child], your offering of $0 was generous enough. You need not obtain another waterskin."
  6: 0x01F4 [0x23] WAIT_FOR_DIALOG_INTERACTION
  7: 0x01F5 [0x5B] LOAD_EXT_SCHEDULER: Load scheduler "tlk1" with entities [EventEntity, EventEntity], work=20*
  8: 0x0204 [0x53] WAIT_SCHEDULER_TASK: Wait for scheduler "tlk1" with entities [EventEntity, EventEntity]
  9: 0x0211 [0x1C] WAIT(30* ticks)
 10: 0x0214 [0x21] END_EVENT
 11: 0x0215 [0x00] END_REQSTACK()
```

### Event 513

#### Metadata

| Field        | Value   |
|--------------|---------|
| Entrypoint   | 0x0216  |
| Data Size    | 2 bytes |
| Instructions | 2       |

```
      00 01 02 03 04 05 06 07  08 09 0A 0B 0C 0D 0E 0F
      -- -- -- -- -- -- -- --  -- -- -- -- -- -- -- --
0210:                   21 00                                 !.        
```

#### Opcodes

```
  0: 0x0216 [0x21] END_EVENT
  1: 0x0217 [0x00] END_REQSTACK()
```

### Event 16

#### Metadata

| Field        | Value    |
|--------------|----------|
| Entrypoint   | 0x0218   |
| Data Size    | 18 bytes |
| Instructions | 4        |

```
      00 01 02 03 04 05 06 07  08 09 0A 0B 0C 0D 0E 0F
      -- -- -- -- -- -- -- --  -- -- -- -- -- -- -- --
0210:                          22 00 92 01 F8 FF FF 7F          ".......
0220: 37 15 80 16 80 02 80 17  80 00                    7.........      
```

#### Opcodes

```
  0: 0x0218 [0x22] ENTITY_HIDE_FLAG(enabled=0x00)
  1: 0x021A [0x92] EventEntity->Render.Flags3 ^= 0x01
  2: 0x0220 [0x37] UPDATE_EVENT_POSITION_AND_DIR: x=120.611*, z=107.361*, y=0.000*, direction=219.4°*
  3: 0x0229 [0x00] END_REQSTACK()
```

### Event 976

#### Metadata

| Field        | Value    |
|--------------|----------|
| Entrypoint   | 0x022A   |
| Data Size    | 26 bytes |
| Instructions | 8        |

```
      00 01 02 03 04 05 06 07  08 09 0A 0B 0C 0D 0E 0F
      -- -- -- -- -- -- -- --  -- -- -- -- -- -- -- --
0220:                                4A F8 FF FF 7F F0            J.....
0230: FF FF 7F 4A F0 FF FF 7F  F8 FF FF 7F 6F 70 1D 05  ...J........op..
0240: 10 23 21 00                                       .#!.            
```

#### Opcodes

```
  0: 0x022A [0x4A] EventEntity looks at LocalPlayer
  1: 0x0233 [0x4A] LocalPlayer looks at EventEntity
  2: 0x023C [0x6F] WAIT_FRAME_DELAY: Yield until WaitTime reaches zero
  3: 0x023D [0x70] WAIT_ENTITY_RENDER_FLAG: Wait while EventEntity->Render.Flags3 bit 2 is set (cancel turn if not)
  4: 0x023E [0x1D] PRINT_EVENT_MESSAGE(message_id=Work_Zone[5])
  5: 0x0241 [0x23] WAIT_FOR_DIALOG_INTERACTION
  6: 0x0242 [0x21] END_EVENT
  7: 0x0243 [0x00] END_REQSTACK()
```

### Event 977

#### Metadata

| Field        | Value    |
|--------------|----------|
| Entrypoint   | 0x0244   |
| Data Size    | 27 bytes |
| Instructions | 9        |

```
      00 01 02 03 04 05 06 07  08 09 0A 0B 0C 0D 0E 0F
      -- -- -- -- -- -- -- --  -- -- -- -- -- -- -- --
0240:             42 4A F8 FF  FF 7F F0 FF FF 7F 4A F0      BJ........J.
0250: FF FF 7F F8 FF FF 7F 6F  70 1D 05 10 23 21 00     .......op...#!. 
```

#### Opcodes

```
  0: 0x0244 [0x42] SET_CLI_EVENT_CANCEL_DATA()
  1: 0x0245 [0x4A] EventEntity looks at LocalPlayer
  2: 0x024E [0x4A] LocalPlayer looks at EventEntity
  3: 0x0257 [0x6F] WAIT_FRAME_DELAY: Yield until WaitTime reaches zero
  4: 0x0258 [0x70] WAIT_ENTITY_RENDER_FLAG: Wait while EventEntity->Render.Flags3 bit 2 is set (cancel turn if not)
  5: 0x0259 [0x1D] PRINT_EVENT_MESSAGE(message_id=Work_Zone[5])
  6: 0x025C [0x23] WAIT_FOR_DIALOG_INTERACTION
  7: 0x025D [0x21] END_EVENT
  8: 0x025E [0x00] END_REQSTACK()
```
