# 17723426 - Grilau

## Common Data

| Field            | Value                         |
|------------------|-------------------------------|
| Zone             | Northern San d'Oria (ID: 231) |
| Block Size       | 14432 bytes                   |
| Total Events     | 91                            |
| References Count | 215                           |

## List of Events

| Event ID                   | Entrypoint   |   Size |   Instructions |
|----------------------------|--------------|--------|----------------|
| [65535](#event-65535)      | 0x0000       |      1 |              1 |
| [1011](#event-1011)        | 0x0001       |     36 |             10 |
| [1000](#event-1000)        | 0x0025       |    588 |             87 |
| [1002](#event-1002)        | 0x0271       |    255 |             35 |
| [1008](#event-1008)        | 0x0370       |    191 |             25 |
| [1010](#event-1010)        | 0x042F       |    210 |             28 |
| [1009](#event-1009)        | 0x0501       |    657 |            126 |
| [1001](#event-1001)        | 0x0792       |    467 |             73 |
| [1003](#event-1003)        | 0x0965       |    900 |            125 |
| [1004](#event-1004)        | 0x0CE9       |    500 |             66 |
| [1024](#event-1024)        | 0x0EDD       |    607 |             82 |
| [1005](#event-1005)        | 0x113C       |    585 |             85 |
| [1006](#event-1006)        | 0x1385       |    471 |             63 |
| [1007](#event-1007)        | 0x155C       |    699 |             93 |
| [1012](#event-1012)        | 0x1817       |    566 |             82 |
| [1013](#event-1013)        | 0x1A4D       |    810 |            117 |
| [1015](#event-1015)        | 0x1D77       |    185 |             27 |
| [65535.1](#event-655351)   | 0x1E30       |     16 |              2 |
| [65535.2](#event-655352)   | 0x1E40       |      9 |              3 |
| [65535.3](#event-655353)   | 0x1E49       |     16 |              2 |
| [65535.4](#event-655354)   | 0x1E59       |     14 |              2 |
| [65535.5](#event-655355)   | 0x1E67       |     16 |              2 |
| [65535.6](#event-655356)   | 0x1E77       |     14 |              2 |
| [65535.7](#event-655357)   | 0x1E85       |     16 |              2 |
| [65535.8](#event-655358)   | 0x1E95       |     14 |              2 |
| [65535.9](#event-655359)   | 0x1EA3       |     16 |              2 |
| [65535.10](#event-6553510) | 0x1EB3       |     14 |              2 |
| [65535.11](#event-6553511) | 0x1EC1       |     16 |              2 |
| [65535.12](#event-6553512) | 0x1ED1       |     14 |              2 |
| [65535.13](#event-6553513) | 0x1EDF       |     16 |              2 |
| [65535.14](#event-6553514) | 0x1EEF       |     14 |              2 |
| [65535.15](#event-6553515) | 0x1EFD       |     16 |              2 |
| [65535.16](#event-6553516) | 0x1F0D       |     14 |              2 |
| [65535.17](#event-6553517) | 0x1F1B       |      9 |              3 |
| [1020](#event-1020)        | 0x1F24       |   1301 |            158 |
| [65535.18](#event-6553518) | 0x2439       |      5 |              3 |
| [65535.19](#event-6553519) | 0x243E       |      5 |              3 |
| [65535.20](#event-6553520) | 0x2443       |      5 |              3 |
| [65535.21](#event-6553521) | 0x2448       |      5 |              3 |
| [65535.22](#event-6553522) | 0x244D       |      5 |              3 |
| [65535.23](#event-6553523) | 0x2452       |     23 |              7 |
| [65535.24](#event-6553524) | 0x2469       |      5 |              3 |
| [65535.25](#event-6553525) | 0x246E       |    640 |             75 |
| [65535.26](#event-6553526) | 0x26EE       |      5 |              3 |
| [65535.27](#event-6553527) | 0x26F3       |      5 |              3 |
| [65535.28](#event-6553528) | 0x26F8       |      5 |              3 |
| [65535.29](#event-6553529) | 0x26FD       |      5 |              3 |
| [65535.30](#event-6553530) | 0x2702       |      5 |              3 |
| [65535.31](#event-6553531) | 0x2707       |      5 |              3 |
| [65535.32](#event-6553532) | 0x270C       |      5 |              3 |
| [65535.33](#event-6553533) | 0x2711       |      5 |              3 |
| [1021](#event-1021)        | 0x2716       |     33 |             12 |
| [1022](#event-1022)        | 0x2737       |     29 |             10 |
| [1023](#event-1023)        | 0x2754       |    225 |             27 |
| [65535.34](#event-6553534) | 0x2835       |      9 |              5 |
| [65535.35](#event-6553535) | 0x283E       |      5 |              3 |
| [65535.36](#event-6553536) | 0x2843       |    587 |             67 |
| [65535.37](#event-6553537) | 0x2A8E       |      5 |              3 |
| [65535.38](#event-6553538) | 0x2A93       |      5 |              3 |
| [65535.39](#event-6553539) | 0x2A98       |      5 |              3 |
| [65535.40](#event-6553540) | 0x2A9D       |      5 |              3 |
| [65535.41](#event-6553541) | 0x2AA2       |      5 |              3 |
| [65535.42](#event-6553542) | 0x2AA7       |      5 |              3 |
| [65535.43](#event-6553543) | 0x2AAC       |      5 |              3 |
| [1025](#event-1025)        | 0x2AB1       |     33 |             12 |
| [1026](#event-1026)        | 0x2AD2       |    296 |             33 |
| [65535.44](#event-6553544) | 0x2BFA       |      5 |              3 |
| [65535.45](#event-6553545) | 0x2BFF       |      5 |              3 |
| [65535.46](#event-6553546) | 0x2C04       |      5 |              3 |
| [65535.47](#event-6553547) | 0x2C09       |      5 |              3 |
| [65535.48](#event-6553548) | 0x2C0E       |      5 |              3 |
| [1027](#event-1027)        | 0x2C13       |    278 |             32 |
| [1028](#event-1028)        | 0x2D29       |     33 |             12 |
| [65535.49](#event-6553549) | 0x2D4A       |    202 |             25 |
| [65535.50](#event-6553550) | 0x2E14       |      5 |              3 |
| [65535.51](#event-6553551) | 0x2E19       |      5 |              3 |
| [1029](#event-1029)        | 0x2E1E       |     15 |              8 |
| [1032](#event-1032)        | 0x2E2D       |     15 |              8 |
| [1030](#event-1030)        | 0x2E3C       |    160 |             21 |
| [65535.52](#event-6553552) | 0x2EDC       |      5 |              3 |
| [65535.53](#event-6553553) | 0x2EE1       |      5 |              3 |
| [1031](#event-1031)        | 0x2EE6       |     15 |              8 |
| [52](#event-52)            | 0x2EF5       |     36 |             10 |
| [53](#event-53)            | 0x2F19       |      2 |              2 |
| [1035](#event-1035)        | 0x2F1B       |      4 |              2 |
| [1037](#event-1037)        | 0x2F1F       |      4 |              2 |
| [1039](#event-1039)        | 0x2F23       |      4 |              2 |
| [1033](#event-1033)        | 0x2F27       |      4 |              2 |
| [1041](#event-1041)        | 0x2F2B       |      4 |              2 |
| [1043](#event-1043)        | 0x2F2F       |      4 |              2 |
| [1045](#event-1045)        | 0x2F33       |   1109 |            315 |

## DAT References (imed_data)

|   Index | Hex Value   |   Dec Value |
|---------|-------------|-------------|
|       0 | 0x001E      |          30 |
|       1 | 0x0001      |           1 |
|       2 | 0x00C8      |         200 |
|       3 | 0x0000      |           0 |
|       4 | 0x003C      |          60 |
|       5 | 0x0003      |           3 |
|       6 | 0x005A      |          90 |
|       7 | 0x0007      |           7 |
|       8 | 0x0083      |         131 |
|       9 | 0x0008      |           8 |
|      10 | 0x0009      |           9 |
|      11 | 0x000A      |          10 |
|      12 | 0x000B      |          11 |
|      13 | 0x000C      |          12 |
|      14 | 0x4110      |       16656 |
|      15 | 0x000D      |          13 |
|      16 | 0x0005      |           5 |
|      17 | 0x0006      |           6 |
|      18 | 0x000E      |          14 |
|      19 | 0x000F      |          15 |
|      20 | 0x0010      |          16 |
|      21 | 0x0002      |           2 |
|      22 | 0x40000000  |  1073741824 |
|      23 | 0x313F      |       12607 |
|      24 | 0x0011      |          17 |
|      25 | 0x0012      |          18 |
|      26 | 0x00C9      |         201 |
|      27 | 0x0013      |          19 |
|      28 | 0x0014      |          20 |
|      29 | 0x0015      |          21 |
|      30 | 0x001F      |          31 |
|      31 | 0x0004      |           4 |
|      32 | 0x0016      |          22 |
|      33 | 0x0017      |          23 |
|      34 | 0x0018      |          24 |
|      35 | 0x0019      |          25 |
|      36 | 0x001A      |          26 |
|      37 | 0x001B      |          27 |
|      38 | 0x001C      |          28 |
|      39 | 0x001D      |          29 |
|      40 | 0x313E      |       12606 |
|      41 | 0x037B      |         891 |
|      42 | 0x3150      |       12624 |
|      43 | 0x0020      |          32 |
|      44 | 0x0021      |          33 |
|      45 | 0x0022      |          34 |
|      46 | 0x0023      |          35 |
|      47 | 0x0024      |          36 |
|      48 | 0x0025      |          37 |
|      49 | 0x0026      |          38 |
|      50 | 0x0027      |          39 |
|      51 | 0x0028      |          40 |
|      52 | 0x0029      |          41 |
|      53 | 0x002A      |          42 |
|      54 | 0x002B      |          43 |
|      55 | 0x002C      |          44 |
|      56 | 0x002D      |          45 |
|      57 | 0x002E      |          46 |
|      58 | 0x002F      |          47 |
|      59 | 0x2D86      |       11654 |
|      60 | 0x2D87      |       11655 |
|      61 | 0x2D88      |       11656 |
|      62 | 0x2D89      |       11657 |
|      63 | 0x315F      |       12639 |
|      64 | 0x0031      |          49 |
|      65 | 0x0032      |          50 |
|      66 | 0x0033      |          51 |
|      67 | 0x0034      |          52 |
|      68 | 0x0035      |          53 |
|      69 | 0x0036      |          54 |
|      70 | 0x0038      |          56 |
|      71 | 0x0039      |          57 |
|      72 | 0x003A      |          58 |
|      73 | 0x003B      |          59 |
|      74 | 0x003D      |          61 |
|      75 | 0x0068      |         104 |
|      76 | 0x003E      |          62 |
|      77 | 0x003F      |          63 |
|      78 | 0x0040      |          64 |
|      79 | 0x0041      |          65 |
|      80 | 0x2D95      |       11669 |
|      81 | 0x0042      |          66 |
|      82 | 0x0044      |          68 |
|      83 | 0x0045      |          69 |
|      84 | 0x0046      |          70 |
|      85 | 0x0049      |          73 |
|      86 | 0x004A      |          74 |
|      87 | 0x004B      |          75 |
|      88 | 0x004C      |          76 |
|      89 | 0x004D      |          77 |
|      90 | 0x004E      |          78 |
|      91 | 0x0050      |          80 |
|      92 | 0x0051      |          81 |
|      93 | 0x11B0      |        4528 |
|      94 | 0x0052      |          82 |
|      95 | 0x0053      |          83 |
|      96 | 0x0054      |          84 |
|      97 | 0x006F      |         111 |
|      98 | 0x0055      |          85 |
|      99 | 0x0056      |          86 |
|     100 | 0x0057      |          87 |
|     101 | 0x0058      |          88 |
|     102 | 0x0059      |          89 |
|     103 | 0x0063      |          99 |
|     104 | 0x0064      |         100 |
|     105 | 0x0065      |         101 |
|     106 | 0x0066      |         102 |
|     107 | 0x0067      |         103 |
|     108 | 0x0069      |         105 |
|     109 | 0x006A      |         106 |
|     110 | 0x006B      |         107 |
|     111 | 0x312C      |       12588 |
|     112 | 0x312D      |       12589 |
|     113 | 0x007A      |         122 |
|     114 | 0x007F      |         127 |
|     115 | 0x312E      |       12590 |
|     116 | 0x3133      |       12595 |
|     117 | 0x0A8B      |        2699 |
|     118 | 0x3134      |       12596 |
|     119 | 0x3137      |       12599 |
|     120 | 0x0078      |         120 |
|     121 | 0x3130      |       12592 |
|     122 | 0x3132      |       12594 |
|     123 | 0x3135      |       12597 |
|     124 | 0x3138      |       12600 |
|     125 | 0x313A      |       12602 |
|     126 | 0x313B      |       12603 |
|     127 | 0x313C      |       12604 |
|     128 | 0x313D      |       12605 |
|     129 | 0x3146      |       12614 |
|     130 | 0x3140      |       12608 |
|     131 | 0x3141      |       12609 |
|     132 | 0x3142      |       12610 |
|     133 | 0x3143      |       12611 |
|     134 | 0x3144      |       12612 |
|     135 | 0x3145      |       12613 |
|     136 | 0x3147      |       12615 |
|     137 | 0x3148      |       12616 |
|     138 | 0x3149      |       12617 |
|     139 | 0x314A      |       12618 |
|     140 | 0x314B      |       12619 |
|     141 | 0x314C      |       12620 |
|     142 | 0x314D      |       12621 |
|     143 | 0x314E      |       12622 |
|     144 | 0x314F      |       12623 |
|     145 | 0x3151      |       12625 |
|     146 | 0x3152      |       12626 |
|     147 | 0x3153      |       12627 |
|     148 | 0x3154      |       12628 |
|     149 | 0x3155      |       12629 |
|     150 | 0x3156      |       12630 |
|     151 | 0x3157      |       12631 |
|     152 | 0x3158      |       12632 |
|     153 | 0x3159      |       12633 |
|     154 | 0x315A      |       12634 |
|     155 | 0x315B      |       12635 |
|     156 | 0x315C      |       12636 |
|     157 | 0x315D      |       12637 |
|     158 | 0x3160      |       12640 |
|     159 | 0x3163      |       12643 |
|     160 | 0x3164      |       12644 |
|     161 | 0x006E      |         110 |
|     162 | 0x3165      |       12645 |
|     163 | 0x3166      |       12646 |
|     164 | 0x3167      |       12647 |
|     165 | 0x3168      |       12648 |
|     166 | 0x3169      |       12649 |
|     167 | 0x316A      |       12650 |
|     168 | 0x316B      |       12651 |
|     169 | 0x006C      |         108 |
|     170 | 0x006D      |         109 |
|     171 | 0x0070      |         112 |
|     172 | 0x0071      |         113 |
|     173 | 0x0072      |         114 |
|     174 | 0x0073      |         115 |
|     175 | 0x0074      |         116 |
|     176 | 0x010D      |         269 |
|     177 | 0x0075      |         117 |
|     178 | 0x0077      |         119 |
|     179 | 0x0079      |         121 |
|     180 | 0x007B      |         123 |
|     181 | 0x007C      |         124 |
|     182 | 0x007D      |         125 |
|     183 | 0x007E      |         126 |
|     184 | 0x0080      |         128 |
|     185 | 0x0081      |         129 |
|     186 | 0x0082      |         130 |
|     187 | 0x0084      |         132 |
|     188 | 0x0085      |         133 |
|     189 | 0x0086      |         134 |
|     190 | 0x011C      |         284 |
|     191 | 0x0087      |         135 |
|     192 | 0x0088      |         136 |
|     193 | 0x0089      |         137 |
|     194 | 0x008A      |         138 |
|     195 | 0x008B      |         139 |
|     196 | 0x008C      |         140 |
|     197 | 0x008D      |         141 |
|     198 | 0x008F      |         143 |
|     199 | 0x0090      |         144 |
|     200 | 0x0091      |         145 |
|     201 | 0x0092      |         146 |
|     202 | 0x0093      |         147 |
|     203 | 0x0095      |         149 |
|     204 | 0x0096      |         150 |
|     205 | 0x0097      |         151 |
|     206 | 0x0098      |         152 |
|     207 | 0x0099      |         153 |
|     208 | 0x009A      |         154 |
|     209 | 0x009B      |         155 |
|     210 | 0x009C      |         156 |
|     211 | 0x009D      |         157 |
|     212 | 0x009E      |         158 |
|     213 | 0x009F      |         159 |
|     214 | 0x00A0      |         160 |

## String References

- **0**: A recruit? What do you want with this gatehouse?
- **1**: Only citizens of San d'Oria may apply for missions here. Go see your country's consulate in Northern San d'Oria.
- **2**: Finish your current mission first, then come back for another.
- **3**: Which mission will you undertake? [Smash the Orcish Scouts./Bat Hunt./Save the Children./The Rescue Drill./The Davoi Report./Journey Abroad./Journey to Bastok./Journey to Windurst./Journey to Bastok./Journey to Windurst./Infiltrate Davoi./The Crystal Spring./Appointment to Jeuno./Magicite./The Ruins of Fei'Yin./The Shadow Lord./Leaute's Last Wishes./Ranperre's Final Rest./Prestige of the Papsque./The Secret Weapon./Coming of Age./Lightbringer./Breaking Barriers./The Heir to the Light./10-1./10-2./$3_$3~[26./$3_$3~[27./$3_$3~[28./$3_$3~[29./$3_$3~[30./None.]
- **4**: Accept this mission? [Yes./No.]
- **7**: Your business? [A mission, please./Nothing.]
- **8**: Hmm...not much work for those wet behind the ears, but...
- **9**: How about slaying Orcish scouts? Only the yellowest of yearlings would run from that, and we've no work for cowards here.
- **10**: If you're to take the mission, I'll be happy to explain.
- **11**: Interested? [Tell me more./Never mind.]
- **12**: Here's your mission. Orcish scouts roam outside; kill one and bring me his axe as proof.
- **13**: You'll have to bring me $0. No other kind will do. Understand?
- **14**: That is all. You'll take the mission then?
- **15**: Do you accept the mission? [I accept./Could you explain again?/No, thank you.]
- **16**: Bring me one of those axes, and your mission will be a success. No running away now; we've a proud country to defend!
- **17**: Oh, you're back. Well, if you're so happy you defeated an Orc or two, you've a long way ahead of you!
- **18**: That's another $0 for the armory, then. Mission complete! Not bad for a new recruit.
- **19**: What? I don't want this!
- **20**: Are you really a new recruit!?
- **21**: Listen, before you bring me something, you must first accept the mission! That is how things work around here!
- **23**: Bat patrol! How about it? Shouldn't be a problem for an adventurer such as yourself, no?
- **24**: Here's your mission, then. Clear out bats lurking in King Ranperre's Tomb and bring me a fang as proof.
- **25**: Bring me $0 and your mission will be a success.
- **26**: Deep in the tomb you'll find Goblins. Take care; I don't want to lose you yet.
- **27**: Ah, you've returned! I was afraid that Goblins got you.
- **28**: That's one $3 for the gatehouse, then. Mission complete. Not bad for a new recruit.
- **29**: Ah, the recruit's back again? I'm sorry, but I've no time for you today.
- **30**: Well, perhaps you can be of some help. Many of our children have disappeared mysteriously, and I've no doubt the Ghelsba Orcs are behind it.
- **31**: The Royal Knights should be on the job by now, but the two princes are at each other's throats.
- **32**: Prince Trion, the eldest, says we should launch a full attack, with all haste.
- **33**: While his younger brother, Prince Pieuje says the safety of the children comes first, and he won't authorize an attack.
- **34**: They've been arguing this back and forth for days. The knights' hands are tied, and frankly, nobody knows what to do.
- **35**: If you really want to make a name for yourself, go to Ghelsba, and rescue those kidnapped children!
- **36**: What say you? Will you go?
- **37**: Here's your mission, then. Rescue the two children kidnapped by the Orcs of Ghelsba Outpost.
- **38**: Ghelsba Outpost is northwest of West Ronfaure. Take the path before the Westgate, then turn right when the path splits in the forest. You'll find the entrance up in the hills.
- **39**: If you have trouble finding the way, just follow one of the soldiers on patrol.
- **40**: Orcs tend to keep their hostages in tents or small huts. Once you're inside the compound, check them first.
- **41**: Ah, you've returned! You were gone so long, I feared a warmachine had got you!
- **42**: At any rate, mission complete! And to reward your accomplishment...
- **43**: I hereby recognize you, <Player>, as a certified adventurer of San d'Oria! You're now mission rank two, as well.
- **44**: But don't get too excited. Your title is valid only here in San d'Oria, understand?
- **45**: In order to become a true adventurer, and bear $6, you must be recognized by Bastok and Windurst as well.
- **46**: 'Tis a treaty between the three lands, and its word is law. I know it's hard, but those are the rules.
- **47**: For now, cut your adventuring teeth in the areas near here. Sooner or later you'll find your way into other lands.
- **49**: There's not much work in right now. I suppose you could go participate in the Temple Knights' rescue drills out on the La Theine Plateau.
- **50**: Enter the forest beyond the Westgate and head southwest. You'll come out onto the La Theine Plateau before long.
- **51**: Once you're out on the plateau, keep going until you see the knights. The training grounds aren't far from there.
- **52**: It's all just a drill, so this should be easy compared to your usual fare. Just follow orders and you'll be fine.
- **53**: You've returned! I hear the drill turned into something far more perilous. But real battle is the best drill for recruits, in my opinion.
- **54**: Regardless, you've done well. I'll turn to you when there's work to be done, now.
- **56**: This time it's messenger duty. One of our knights is out scouting in a place called Davoi, on the southern edge of Jugner Forest.
- **57**: The Orcs' stronghold is in Davoi, so it's vital that we stop them from massing, or they may launch an assault.
- **58**: Of course, the Orcs are keeping an eye on us, too. Why, just a few days past, a squad of our Royal Knights fell to their axes.
- **59**: We have sent scouts to find a weakness in their defenses. You must find the scout there now, and bring back the latest scouting report.
- **60**: The scout's name is Zantaviat. He's somewhere in Davoi, but where I cannot say.
- **61**: Come back after you've gotten the report. Those lands are no place to wander.
- **62**: You have returned! And you've brought the scouting report. Good work, <Player>.
- **63**: Troubling news, this is. It says that Orcs are gathering deep inside the encampment. The time to act is coming!
- **64**: But that is not your concern. You've done well today. Mission complete!
- **65**: Oh, it's you, <Player>. And at just the right time, too. Monarlais Halver is looking for an adventurer such as yourself.
- **66**: Enter Chateau d'Oraguille. Monarlais Halver is there; he'll explain in person.
- **68**: Ah, welcome back. I see you've been certified in Bastok and Windurst. Good work. You'll make a fine adventurer.
- **69**: What's that, a report for our kingdom? I see. Take that to the monarlais when you go.
- **70**: You should receive $6 from Monarlais Halver. Now, go to Chateau d'Oraguille and let them know you're back!
- **73**: Ah! You've come at just the right time. Zantaviat, one of our scouts in Davoi, needs an adventurer.
- **74**: He wants someone to infiltrate Davoi and scout behind enemy lines. Know anyone fitting that description?
- **75**: Now that you've got your $3, this is an opportunity to prove you're worth it!
- **76**: The situation in Davoi worsens by the day. This won't be easy, but I can't think of a better adventurer for the job!
- **77**: You've returned! Zantaviat told me everything. Congratulations on a job well done!
- **78**: But we can't let down our guard yet. Those Orcs will not just sit there. We must keep constant vigil, and move before they do!
- **80**: Welcome back! I have an important mission for you this time. Recently, land is eroding due to crystal formation...and it's getting worse.
- **81**: There's a small spring on the eastern edge of Jugner Forest, called Crystwater Spring. We must know what effect crystal formation has on the wildlife there.
- **82**: I want you to get me a fish from the spring. And not just any fish! You need to get $0.
- **83**: Ah, that reminds me--have you any fishing gear? You'll need some for this mission.
- **84**: There are people about that know a thing or two about fishing, should you need help finding and choosing your gear.
- **85**: Ah, the great angler returns! I was worried, to be honest. All you hear these days is the massing of beasts, the erosion of the Crystal Lines, and now...
- **86**: ...rumors that the Shadow Lord himself has returned!
- **87**: We will examine the fish you brought. Depending on the results, we may need to act! I'll let you know if we need your help.
- **88**: Ah, it's you, <Player>. You've come at a good time. I've news for you.
- **89**: By order of the Kingdom of San d'Oria, you're to head to Jeuno as an ambassadorial attach<Player>i.
- **90**: Go to Chateau d'Oraguille. Monarlais Halver will tell you all you need to know.
- **99**: There you are! I've been looking for you. Monarlais Halver requests your presence at the chateau immediately.
- **100**: It sounds as if this is a fairly important mission. I need not remind you that you should take care to properly equip yourself before embarking on this journey.
- **101**: I'm not sure what it's about, but you'd best make haste. The monarlais is not to be kept waiting!
- **102**: Why, if it isn't <Player>! This is no time for loafing around, friend! Prince Trion is looking for you.
- **103**: For this next mission, he's requested you personally. You should be honored!
- **104**: As for the details of the mission, I've no idea what he wants, but he was in a hurry. You'd best be off to Chateau d'Oraguille!
- **105**: It is a great thing you've done, <Player>! I knew deep in my heart that you were the one for the task.
- **106**: You'd better get to the chateau quick. They're all waiting to welcome you back, I'd wager.
- **107**: You've saved our proud Kingdom of San d'Oria. No, you're the savior of all Vana'diel! There's not a soul that doesn't owe you a great debt, <Player>.
- **108**: Ah, if it isn't <Player>! You had best hurry off to Chateau d'Oraguille. It seems as if something terrible is in the works there.
- **109**: Well, if it isn't <Player>! Your timing is perfect. The chateau just sent a request for an adventurer.
- **110**: It looks as if this next mission has something to do with the late queen. You should feel honored. It's not every day that an adventurer gets to work directly with the royal family.
- **111**: Spoken like a true San d'Orian! Now hurry off to Chateau d'Oraguille and get the details on the mission from Monarlais Halver.
- **112**: What's wrong? Dealing with royalty is not your cup of tea? Well, think about it and come back when you've come to your senses.
- **113**: Prince Trion is requesting the aid of an adventurer. How about it?
- **114**: It looks fairly urgent, so you should hurry to the chateau. The prince is waiting in his chambers.
- **115**: I expected more from you, <Player>. If you change your mind, return here. I'll be waiting.
- **116**: I have received the details of your mission from Prince Trion. I will deliver this book to the scholars for deciphering.
- **117**: The deciphering of the $3 will take a considerable amount of time. Return later for a report.
- **119**: Ah, <Player>. We've been waiting. Prince Trion is calling for you. I wonder if this means the $3 has been completely deciphered.
- **120**: Well done, <Player>! I knew you would not let the Kingdom down.
- **121**: I'm proud to increase your rank to 7!
- **122**: The papsque has work for you, <Player>. Are you willing to take on the task?
- **123**: Excellent. Proceed to the papsque's chambers on the third floor of the cathedral.
- **124**: The papsque often comes across as a difficult man, but he is actually very kindhearted and compassionate. If you change your mind, I'll be waiting here.
- **125**: The fair Claidie I d'Oraguille has invited you to the chateau. She wishes for you to see the flowers that have bloomed from the seeds you brought back from Altepa.
- **126**: It is an honor to be invited to the chateau garden. One day you may even have the opportunity to attend one of their royal garden parties.
- **127**: We cannot keep the princess waiting. Now, off to the chateau!
- **128**: A party of Royal Knights stationed in Ghelsba Outpost have reported strange activity by Orcs deep within Yughott Grotto.
- **129**: From your reports, we already know that the beastmen have built a giant portal, but their motives remain unclear.
- **130**: It makes me shudder to think of what those Orcs are planning with that portal...
- **131**: <Player>, your next mission is to travel to Ghelsba and continue your investigation into the Orcs' activities.
- **132**: Be on your guard when traveling deep into Yughott Grotto. Losing an adventurer such as yourself would deal a great blow to all of San d'Oria.
- **133**: I see you need more time for preparations. When you are ready, I'll be waiting.
- **134**: It's hard to believe Orcs have their hands on such dangerous equipment. More patrols will have to be sent out to prevent any new developments in their evil plans.
- **135**: And this $3... We will have to analyze it and begin reproduction for our forces. We cannot let Orcs get the Treasure of the Dragon King before San d'Oria does.
- **136**: Well, congratulations on the completion of your mission. Hmmm? Do I know of an adventurer named Eideialc? Never heard of him.
- **137**: But you need not worry about some petty traveler. You are in a different league. You are now rank 8!
- **138**: Princess Claidie's coming-of-age ceremony is drawing near. This ceremony is an important facet of d'Oraguille tradition.
- **139**: Monarlais Halver has put out a call to high-ranking adventurers for their assistance in Chateau d'Oraguille.
- **140**: Ah, the young princess has finally become a lady... Oh, I'm sorry. You can get the details of your next mission from Sir Halver.
- **141**: What? You do not wish to repay the kindness the princess has shown to you in the past months? As you wish...but if you change your mind, you know where to find me.
- **143**: Princess Claidie's coming-of-age ceremony is about to begin at the cathedral. I must remain at my post, but why don't you attend?
- **144**: The king has requested your audience. He has selected you from the mountain of adventurers in San d'Oria. You should feel honored!
- **145**: You have matured from a fledgling adventurer into a great asset to our kingdom. Do not let us down.
- **146**: There is no need for modesty at a time like this. The fate of San d'Oria is at stake!
- **147**: The authorities are saying that a dark cloud of despair is looming over the Kingdom. They are asking for the assistance of only the best adventurers.
- **149**: Then proceed to the Audience Chamber in the Chateau d'Oraguille. Word has it that His Highness is not feeling that well. He may not be present for your briefing.
- **150**: [Sir/Lady] <Player>! The Kingdom is counting on you. Who else, I ask you, is worthy for this task?
- **151**: Ah, a time of great change is upon us. In a matter of days, the Rites of Succession will be held at the cathedral in Northern San d'Oria. It is then that the new heir to the throne will be decided.
- **152**: Due to the unpredictable circumstances that took place at the princess's coming-of-age ceremony, this time, only authorized personnel will be allowed near the proceedings. However, the royal family has requested your services as a guard.
- **153**: Even we Royal Knights have not been granted permission to attend... You must be held in high regard by His Highness. I envy you, [Sir/Ma'am].
- **154**: When you have finished your preparations, proceed directly to the cathedral to report.
- **155**: Off the record, which of the two princes do you think should be the next heir to the throne?
- **156**: It is a difficult decision, but... [Trion is better suited./Pieuje is better suited.]
- **157**: Hm... Being the oldest, he is the true heir, and many people believe he is the most suited to rule the Kingdom. However, Prince Pieuje's prudent ways may be what this country is lacking.
- **158**: Many think as you do, [Sir/Lady] <Player>. However, what this country may need is someone who will not back down in the face of a threat--someone who will stand up for the pride of the Kingdom.
- **159**: But our opinion is of no matter. Lightbringer will decide who is the most suited to stand over our fine nation. And do not speak a word of today's exchange, for the monarlais will have our heads if he finds out.
- **160**: I realize that you must have many preparations before taking on such an important mission. Take your time and return here when you are ready.
- **11654**: I'll admit, you're one of my favorite recruits, so I've always had new missions for you. But I'm responsible for other adventurers, too!
- **11655**: Henceforth I will check your rank points to determine whether you're ready for the next mission.
- **11656**: The best way to earn rank points is to join the conquest and thereby obtain crystals.
- **11657**: If you want to know more about the conquest, ask the lord knight at any gatehouse.
- **11669**: Do you accept the mission? [I accept./No, thanks.]
- **12588**: Oh, you're back. Well, if you're so happy you defeated an Orc or two, you've a long way ahead of you!
- **12589**: For one so new, I'd be... Hmm?
- **12592**: Who are you, and why do you pry with such inquiries?
- **12594**: You've what!?
- **12595**: Very well. Listen closely. Fifteen years ago, Queen Leaute fell to a rare sickness. She left this world before we could save her.
- **12597**: Well, it's none of your concern at any rate. Even if she lived, an adventurer like you could never see her, much less the inside of Chateau d'Oraguille.
- **12600**: We are not told such things. Only the royal family would know.
- **12602**: Hey, wait!
- **12603**: What was the matter with that adventurer? He was awfully stubborn, wasn't he?
- **12604**: He seemed to know the late queen personally, but how could he not be aware of her death?
- **12605**: At any rate, your work is done. Excellent form, my friend!
- **12606**: What, you want the mission from rank one again?
- **12607**: I knew you'd return safely, and with the $3. Mission completed!
- **12608**: Have you ever set foot into King Ranperre's Tomb?
- **12609**: Two hundred years ago, the curtain fell on the golden age of San d'Oria. Civil war erupted over the Kingdom's hegemony.
- **12610**: King Ranperre was there to extinguish the conflict. When he died he was interred in a great tomb south of East Ronfaure.
- **12611**: But unknown hands have defiled his grave of late.
- **12612**: Visitors report missing gravestones and shadows twisting in the caverns. Ravaging a royal tomb is an unforgivable crime!
- **12613**: Your orders are to investigate the tomb and determine if there is any truth to what they say. Do you understand?
- **12614**: Accept the mission? [I accept./I do not accept.]
- **12615**: I implore you to make haste to King Ranperre's Tomb. You may find proof of grave-robbers there.
- **12616**: But wander too deeply within, and Goblins might find you. Tread boldly, my friend, but do not go in over your head!
- **12617**: Visitors report missing gravestones and shadows twisting in the caverns. Scour the tomb and determine if they speak the truth.
- **12618**: Make haste to King Ranperre's Tomb. You may find proof of grave-robbers there.
- **12619**: Have you really searched the tomb?
- **12620**: So, you got this from bats in King Ranperre's Tomb?
- **12621**: You see, this actually belonged to an Orc. What could Orcs want with the tomb?
- **12622**: At any rate, your mission is over. Speak not a word of this to another.
- **12623**: Ah, the recruit's back again? I'm sorry, but I've no time for you today.
- **12624**: I know you came all this way, but I can't help you right now.
- **12625**: Oh, who am I fooling? Of course I could use your help!
- **12626**: Have you not heard? Orcs came and kidnapped some children! We think they're keeping them at their lair in Ghelsba.
- **12627**: Why, not long ago came ill news from the cathedral. A boy training to be a friar went near Ghelsba and did not return. His name was Tedimout.
- **12628**: The Royal Knights would march to his rescue, but Prince Trion is away in the north, and cannot give the order.
- **12629**: Prince Pieuje is in earnest deliberations over whether to send Temple Knights instead. It seems his efforts are focused upon saving the children, but...
- **12630**: But no matter. We need knowledge of the enemy. You must visit the cathedral and ask what this boy looks like.
- **12631**: A boy training to be a friar went near Ghelsba and did not return. His name was Tedimout.
- **12632**: The Temple Knights may be mobilized soon. You must visit the cathedral and ask what this boy looks like.
- **12633**: Prince Trion just informed me of your handiwork. You've done beautifully.
- **12634**: Due to your exemplary contribution, <Player>, San d'Oria hereby recognizes you as an adventurer of rank two.
- **12635**: But do not let it go to your head. This certificate is valid only in San d'Oria.
- **12636**: Work hard and better things will come, my friend. Someday your name will be known to our allies as well.
- **12637**: Oh, and one more thing. The vicasque of the cathedral said he wants to thank you on behalf of the boy.
- **12639**: At any rate, you completed the mission well enough. Time for a reward!
- **12640**: I award you with rank points commensurate with your achievement.
- **12643**: What? You were told to hand the $3 to Prince Pieuje personally?
- **12644**: Well, you should find His Highness in the cathedral.
- **12645**: You've come just at the right time! Prince Trion wants a word with you. It seems he heard of you when you received your $3.
- **12646**: Head to the chambers of Prince Trion inside Chateau d'Oraguille as soon as you're presentable!
- **12647**: Prince Trion has called for you. Head to his chamber inside Chateau d'Oraguille as soon as you're presentable!
- **12648**: I know not what Prince Trion wanted you to do, but see it through to the end! Understand?
- **12649**: Hello there. Now's not the time for missions; Chateau d'Oraguille has been visited by bandits!
- **12650**: You must make haste to Chateau d'Oraguille! Find Lady Curilla, general of the Temple Knights!
- **12651**: Bandits infiltrating Chateau d'Oraguille is unprecedented in history! Make haste and see Lady Curilla, general of the Temple Knights!

## Events

### Event 65535

#### Metadata

| Field        | Value   |
|--------------|---------|
| Entrypoint   | 0x0000  |
| Data Size    | 1 bytes |
| Instructions | 1       |

```
      00 01 02 03 04 05 06 07  08 09 0A 0B 0C 0D 0E 0F
      -- -- -- -- -- -- -- --  -- -- -- -- -- -- -- --
0000: 00                                                .               
```

#### Opcodes

```
  0: 0x0000 [0x00] END_REQSTACK()
```

### Event 1011

#### Metadata

| Field        | Value    |
|--------------|----------|
| Entrypoint   | 0x0001   |
| Data Size    | 36 bytes |
| Instructions | 10       |

```
      00 01 02 03 04 05 06 07  08 09 0A 0B 0C 0D 0E 0F
      -- -- -- -- -- -- -- --  -- -- -- -- -- -- -- --
0000:    1E F0 FF FF 7F 6F 70  66 00 80 F8 FF FF 7F F8   .....opf.......
0010: FF FF 7F 74 6C 6B 30 1D  01 80 23 5E 69 64 6C 30  ...tlk0...#^idl0
0020: 1C 00 80 21 00                                    ...!.           
```

#### Opcodes

```
  0: 0x0001 [0x1E] EventEntity looks at LocalPlayer and starts talking
  1: 0x0006 [0x6F] WAIT_FRAME_DELAY: Yield until WaitTime reaches zero
  2: 0x0007 [0x70] WAIT_ENTITY_RENDER_FLAG: Wait while EventEntity->Render.Flags3 bit 2 is set (cancel turn if not)
  3: 0x0008 [0x66] LOAD_EXT_SCHEDULER_MAIN: Load scheduler "tlk0" with entities [EventEntity, EventEntity], work=30*
  4: 0x0017 [0x1D] PRINT_EVENT_MESSAGE(message_id=1*)
    → "Only citizens of San d'Oria may apply for missions here. Go see your country's consulate in Northern San d'Oria."
  5: 0x001A [0x23] WAIT_FOR_DIALOG_INTERACTION
  6: 0x001B [0x5E] EventEntity goes idle (kills current action) (animation: "idl0")
  7: 0x0020 [0x1C] WAIT(30* ticks)
  8: 0x0023 [0x21] END_EVENT
  9: 0x0024 [0x00] END_REQSTACK()
```

### Event 1000

#### Metadata

| Field        | Value     |
|--------------|-----------|
| Entrypoint   | 0x0025    |
| Data Size    | 588 bytes |
| Instructions | 83        |

```
      00 01 02 03 04 05 06 07  08 09 0A 0B 0C 0D 0E 0F
      -- -- -- -- -- -- -- --  -- -- -- -- -- -- -- --
0020:                42 46 01  45 02 80 F8 FF FF 7F F8       BF.E.......
0030: FF FF 7F 66 64 6F 31 03  80 1C 04 80 38 05 80 29  ...fdo1.....8..)
0040: 64 F0 FF FF 7F 25 29 08  F0 FF FF 7F 35 45 06 80  d....%).....5E..
0050: F8 FF FF 7F F8 FF FF 7F  73 30 32 36 03 80 45 02  ........s026..E.
0060: 80 F8 FF FF 7F F8 FF FF  7F 66 64 69 31 03 80 55  .........fdi1..U
0070: 06 80 F8 FF FF 7F F8 FF  FF 7F 73 30 32 36 66 00  ..........s026f.
0080: 80 F8 FF FF 7F F8 FF FF  7F 74 6C 6B 30 1D 03 80  .........tlk0...
0090: 23 1C 00 80 5E 69 64 6C  30 24 07 80 03 80 03 80  #...^idl0$......
00A0: 25 02 00 10 03 80 00 38  02 45 08 80 F0 FF FF 7F  %......8.E......
00B0: F0 FF FF 7F 73 30 31 39  03 80 66 00 80 F8 FF FF  ....s019..f.....
00C0: 7F F8 FF FF 7F 74 68 6B  31 1D 09 80 23 1C 04 80  .....thk1...#...
00D0: 66 00 80 F8 FF FF 7F F8  FF FF 7F 74 68 6B 32 53  f..........thk2S
00E0: F8 FF FF 7F F8 FF FF 7F  74 68 6B 32 1C 00 80 66  ........thk2...f
00F0: 00 80 F8 FF FF 7F F8 FF  FF 7F 74 6C 6B 30 45 08  ..........tlk0E.
0100: 80 F0 FF FF 7F F0 FF FF  7F 73 30 32 31 03 80 1D  .........s021...
0110: 0A 80 23 1C 00 80 1D 0B  80 23 5E 69 64 6C 30 24  ..#......#^idl0$
0120: 0C 80 03 80 03 80 25 02  00 10 03 80 00 25 02 66  ......%......%.f
0130: 00 80 F8 FF FF 7F F8 FF  FF 7F 74 6C 6B 30 45 06  ..........tlk0E.
0140: 80 F8 FF FF 7F F8 FF FF  7F 73 31 30 35 03 80 1D  .........s105...
0150: 0D 80 23 1C 00 80 03 02  10 0E 80 1D 0F 80 23 52  ..#...........#R
0160: 06 80 F8 FF FF 7F F8 FF  FF 7F 73 31 30 35 02 09  ..........s105..
0170: 10 10 80 00 8A 01 45 06  80 F8 FF FF 7F F8 FF FF  ......E.........
0180: 7F 73 31 30 36 03 80 01  B7 01 02 09 10 11 80 00  .s106...........
0190: A6 01 45 06 80 F8 FF FF  7F F8 FF FF 7F 73 31 30  ..E..........s10
01A0: 36 03 80 01 B7 01 45 08  80 F0 FF FF 7F F0 FF FF  6.....E.........
01B0: 7F 73 30 32 32 03 80 1D  12 80 23 5E 69 64 6C 30  .s022.....#^idl0
01C0: 24 13 80 03 80 03 80 25  02 00 10 03 80 00 04 02  $......%........
01D0: 66 00 80 F8 FF FF 7F F8  FF FF 7F 74 6C 6B 30 45  f..........tlk0E
01E0: 08 80 F0 FF FF 7F F0 FF  FF 7F 73 30 32 31 03 80  ..........s021..
01F0: 1D 14 80 23 5E 69 64 6C  30 1C 00 80 03 01 10 03  ...#^idl0.......
0200: 80 01 22 02 02 00 10 01  80 00 12 02 01 2F 01 01  .."........../..
0210: 22 02 02 00 10 15 80 00  22 02 03 01 10 16 80 01  ".......".......
0220: 22 02 01 35 02 02 00 10  01 80 00 35 02 03 01 10  "..5.......5....
0230: 16 80 01 35 02 01 48 02  02 00 10 01 80 00 48 02  ...5..H.......H.
0240: 03 01 10 16 80 01 48 02  45 02 80 F8 FF FF 7F F8  ......H.E.......
0250: FF FF 7F 66 64 6F 31 03  80 1C 04 80 46 00 45 02  ...fdo1.....F.E.
0260: 80 F8 FF FF 7F F8 FF FF  7F 66 64 69 31 03 80 21  .........fdi1..!
0270: 00                                                .               
```

#### Opcodes

```
  0: 0x0025 [0x42] SET_CLI_EVENT_CANCEL_DATA()
  1: 0x0026 [0x46] CAMERA_CONTROL: Disable user control
  2: 0x0028 [0x45] LOAD_SCHEDULED_TASK: Load scheduler "fdo1" with entities [EventEntity, EventEntity], work=[200*, 0*]
  3: 0x0039 [0x1C] WAIT(60* ticks)
  4: 0x003C [0x38] SET_CLIENT_EVENT_MODE(mode=3*)
  5: 0x003F [0x29] REQ_SET_WAIT(priority=0x64, entity_id=LocalPlayer, tag_num=0x25)
  6: 0x0046 [0x29] REQ_SET_WAIT(priority=0x08, entity_id=LocalPlayer, tag_num=0x35)
  7: 0x004D [0x45] LOAD_SCHEDULED_TASK: Load scheduler "s026" with entities [EventEntity, EventEntity], work=[90*, 0*]
  8: 0x005E [0x45] LOAD_SCHEDULED_TASK: Load scheduler "fdi1" with entities [EventEntity, EventEntity], work=[200*, 0*]
  9: 0x006F [0x55] WAIT_LOAD_SCHEDULER: Wait for scheduler "s026" with entities [EventEntity, EventEntity], work=90*
 10: 0x007E [0x66] LOAD_EXT_SCHEDULER_MAIN: Load scheduler "tlk0" with entities [EventEntity, EventEntity], work=30*
 11: 0x008D [0x1D] PRINT_EVENT_MESSAGE(message_id=0*)
    → "A recruit? What do you want with this gatehouse?"
 12: 0x0090 [0x23] WAIT_FOR_DIALOG_INTERACTION
 13: 0x0091 [0x1C] WAIT(30* ticks)
 14: 0x0094 [0x5E] EventEntity goes idle (kills current action) (animation: "idl0")
 15: 0x0099 [0x24] CREATE_DIALOG(message_id=7*, default_option=0*, option_flags=0*)
    → "Your business? [A mission, please./Nothing.]"
 16: 0x00A0 [0x25] WAIT_DIALOG_SELECT()
 17: 0x00A1 [0x02] IF !(Work_Zone[0] == 0*) GOTO 0x0238
 18: 0x00A9 [0x45] LOAD_SCHEDULED_TASK: Load scheduler "s019" with entities [LocalPlayer, LocalPlayer], work=[131*, 0*]
 19: 0x00BA [0x66] LOAD_EXT_SCHEDULER_MAIN: Load scheduler "thk1" with entities [EventEntity, EventEntity], work=30*
 20: 0x00C9 [0x1D] PRINT_EVENT_MESSAGE(message_id=8*)
    → "Hmm...not much work for those wet behind the ears, but..."
 21: 0x00CC [0x23] WAIT_FOR_DIALOG_INTERACTION
 22: 0x00CD [0x1C] WAIT(60* ticks)
 23: 0x00D0 [0x66] LOAD_EXT_SCHEDULER_MAIN: Load scheduler "thk2" with entities [EventEntity, EventEntity], work=30*
 24: 0x00DF [0x53] WAIT_SCHEDULER_TASK: Wait for scheduler "thk2" with entities [EventEntity, EventEntity]
 25: 0x00EC [0x1C] WAIT(30* ticks)
 26: 0x00EF [0x66] LOAD_EXT_SCHEDULER_MAIN: Load scheduler "tlk0" with entities [EventEntity, EventEntity], work=30*
 27: 0x00FE [0x45] LOAD_SCHEDULED_TASK: Load scheduler "s021" with entities [LocalPlayer, LocalPlayer], work=[131*, 0*]
 28: 0x010F [0x1D] PRINT_EVENT_MESSAGE(message_id=9*)
    → "How about slaying Orcish scouts? Only the yellowest of yearlings would run from that, and we've no work for cowards here."
 29: 0x0112 [0x23] WAIT_FOR_DIALOG_INTERACTION
 30: 0x0113 [0x1C] WAIT(30* ticks)
 31: 0x0116 [0x1D] PRINT_EVENT_MESSAGE(message_id=10*)
    → "If you're to take the mission, I'll be happy to explain."
 32: 0x0119 [0x23] WAIT_FOR_DIALOG_INTERACTION
 33: 0x011A [0x5E] EventEntity goes idle (kills current action) (animation: "idl0")
 34: 0x011F [0x24] CREATE_DIALOG(message_id=11*, default_option=0*, option_flags=0*)
    → "Interested? [Tell me more./Never mind.]"
 35: 0x0126 [0x25] WAIT_DIALOG_SELECT()
 36: 0x0127 [0x02] IF !(Work_Zone[0] == 0*) GOTO 0x0225
 37: 0x012F [0x66] LOAD_EXT_SCHEDULER_MAIN: Load scheduler "tlk0" with entities [EventEntity, EventEntity], work=30*
 38: 0x013E [0x45] LOAD_SCHEDULED_TASK: Load scheduler "s105" with entities [EventEntity, EventEntity], work=[90*, 0*]
 39: 0x014F [0x1D] PRINT_EVENT_MESSAGE(message_id=12*)
    → "Here's your mission. Orcish scouts roam outside; kill one and bring me his axe as proof."
 40: 0x0152 [0x23] WAIT_FOR_DIALOG_INTERACTION
 41: 0x0153 [0x1C] WAIT(30* ticks)
 42: 0x0156 [0x03] Work_Zone[2] = 16656*
 43: 0x015B [0x1D] PRINT_EVENT_MESSAGE(message_id=13*)
    → "You'll have to bring me $0. No other kind will do. Understand?"
 44: 0x015E [0x23] WAIT_FOR_DIALOG_INTERACTION
 45: 0x015F [0x52] END_LOAD_SCHEDULER: End scheduler "s105" with entities [EventEntity, EventEntity], work=90*
 46: 0x016E [0x02] IF !(Work_Zone[9] == 5*) GOTO 0x018A
 47: 0x0176 [0x45] LOAD_SCHEDULED_TASK: Load scheduler "s106" with entities [EventEntity, EventEntity], work=[90*, 0*]
 48: 0x0187 [0x01] GOTO 0x01B7
 49: 0x018A [0x02] IF !(Work_Zone[9] == 6*) GOTO 0x01A6
 50: 0x0192 [0x45] LOAD_SCHEDULED_TASK: Load scheduler "s106" with entities [EventEntity, EventEntity], work=[90*, 0*]
 51: 0x01A3 [0x01] GOTO 0x01B7
 52: 0x01A6 [0x45] LOAD_SCHEDULED_TASK: Load scheduler "s022" with entities [LocalPlayer, LocalPlayer], work=[131*, 0*]

SUBROUTINE_01B7:
 53: 0x01B7 [0x1D] PRINT_EVENT_MESSAGE(message_id=14*)
    → "That is all. You'll take the mission then?"
 54: 0x01BA [0x23] WAIT_FOR_DIALOG_INTERACTION
 55: 0x01BB [0x5E] EventEntity goes idle (kills current action) (animation: "idl0")
 56: 0x01C0 [0x24] CREATE_DIALOG(message_id=15*, default_option=0*, option_flags=0*)
    → "Do you accept the mission? [I accept./Could you explain again?/No, thank you.]"
 57: 0x01C7 [0x25] WAIT_DIALOG_SELECT()
 58: 0x01C8 [0x02] IF !(Work_Zone[0] == 0*) GOTO 0x0204
 59: 0x01D0 [0x66] LOAD_EXT_SCHEDULER_MAIN: Load scheduler "tlk0" with entities [EventEntity, EventEntity], work=30*
 60: 0x01DF [0x45] LOAD_SCHEDULED_TASK: Load scheduler "s021" with entities [LocalPlayer, LocalPlayer], work=[131*, 0*]
 61: 0x01F0 [0x1D] PRINT_EVENT_MESSAGE(message_id=16*)
    → "Bring me one of those axes, and your mission will be a success. No running away now; we've a proud country to defend!"
 62: 0x01F3 [0x23] WAIT_FOR_DIALOG_INTERACTION
 63: 0x01F4 [0x5E] EventEntity goes idle (kills current action) (animation: "idl0")
 64: 0x01F9 [0x1C] WAIT(30* ticks)
 65: 0x01FC [0x03] Work_Zone[1] = 0*
 66: 0x0201 [0x01] GOTO 0x0222
 67: 0x0204 [0x02] IF !(Work_Zone[0] == 1*) GOTO 0x0212
 68: 0x020C [0x01] GOTO 0x012F

SUBROUTINE_0222:
 69: 0x0222 [0x01] GOTO 0x0235
 70: 0x0225 [0x02] IF !(Work_Zone[0] == 1*) GOTO 0x0235
 71: 0x022D [0x03] Work_Zone[1] = 1073741824*
 72: 0x0232 [0x01] GOTO 0x0235

SUBROUTINE_0235:
 73: 0x0235 [0x01] GOTO 0x0248
 74: 0x0238 [0x02] IF !(Work_Zone[0] == 1*) GOTO 0x0248
 75: 0x0240 [0x03] Work_Zone[1] = 1073741824*
 76: 0x0245 [0x01] GOTO 0x0248

SUBROUTINE_0248:
 77: 0x0248 [0x45] LOAD_SCHEDULED_TASK: Load scheduler "fdo1" with entities [EventEntity, EventEntity], work=[200*, 0*]
 78: 0x0259 [0x1C] WAIT(60* ticks)
 79: 0x025C [0x46] CAMERA_CONTROL: Restore default settings
 80: 0x025E [0x45] LOAD_SCHEDULED_TASK: Load scheduler "fdi1" with entities [EventEntity, EventEntity], work=[200*, 0*]
 81: 0x026F [0x21] END_EVENT
 82: 0x0270 [0x00] END_REQSTACK()
```

#### Data or dead code:

```
# Dead code (unreachable instructions):
     0x020F [0x01] GOTO 0x0222
```

### Event 1002

#### Metadata

| Field        | Value     |
|--------------|-----------|
| Entrypoint   | 0x0271    |
| Data Size    | 255 bytes |
| Instructions | 35        |

```
      00 01 02 03 04 05 06 07  08 09 0A 0B 0C 0D 0E 0F
      -- -- -- -- -- -- -- --  -- -- -- -- -- -- -- --
0270:    42 46 01 45 02 80 F8  FF FF 7F F8 FF FF 7F 66   BF.E..........f
0280: 64 6F 31 03 80 1C 04 80  38 05 80 29 64 F0 FF FF  do1.....8..)d...
0290: 7F 25 45 06 80 F8 FF FF  7F F8 FF FF 7F 73 30 32  .%E..........s02
02A0: 36 03 80 45 02 80 F8 FF  FF 7F F8 FF FF 7F 66 64  6..E..........fd
02B0: 69 31 03 80 02 06 10 01  80 00 EB 02 66 00 80 F8  i1..........f...
02C0: FF FF 7F F8 FF FF 7F 74  6C 6B 30 03 02 10 0E 80  .......tlk0.....
02D0: 1D 17 80 23 5E 69 64 6C  30 52 06 80 F8 FF FF 7F  ...#^idl0R......
02E0: F8 FF FF 7F 73 30 32 36  01 2F 03 66 00 80 F8 FF  ....s026./.f....
02F0: FF 7F F8 FF FF 7F 74 6C  6B 30 1D 18 80 23 1C 00  ......tlk0...#..
0300: 80 52 06 80 F8 FF FF 7F  F8 FF FF 7F 73 30 32 36  .R..........s026
0310: 45 08 80 F0 FF FF 7F F0  FF FF 7F 73 30 31 39 03  E..........s019.
0320: 80 03 02 10 0E 80 5E 69  64 6C 30 1D 19 80 23 45  ......^idl0...#E
0330: 02 80 F8 FF FF 7F F8 FF  FF 7F 66 64 6F 31 03 80  ..........fdo1..
0340: 1C 04 80 5E 69 64 6C 30  46 00 45 02 80 F8 FF FF  ...^idl0F.E.....
0350: 7F F8 FF FF 7F 66 64 69  31 03 80 45 1A 80 F0 FF  .....fdi1..E....
0360: FF 7F F0 FF FF 7F 71 73  74 63 03 80 20 00 21 00  ......qstc.. .!.
```

#### Opcodes

```
  0: 0x0271 [0x42] SET_CLI_EVENT_CANCEL_DATA()
  1: 0x0272 [0x46] CAMERA_CONTROL: Disable user control
  2: 0x0274 [0x45] LOAD_SCHEDULED_TASK: Load scheduler "fdo1" with entities [EventEntity, EventEntity], work=[200*, 0*]
  3: 0x0285 [0x1C] WAIT(60* ticks)
  4: 0x0288 [0x38] SET_CLIENT_EVENT_MODE(mode=3*)
  5: 0x028B [0x29] REQ_SET_WAIT(priority=0x64, entity_id=LocalPlayer, tag_num=0x25)
  6: 0x0292 [0x45] LOAD_SCHEDULED_TASK: Load scheduler "s026" with entities [EventEntity, EventEntity], work=[90*, 0*]
  7: 0x02A3 [0x45] LOAD_SCHEDULED_TASK: Load scheduler "fdi1" with entities [EventEntity, EventEntity], work=[200*, 0*]
  8: 0x02B4 [0x02] IF !(Work_Zone[6] == 1*) GOTO 0x02EB
  9: 0x02BC [0x66] LOAD_EXT_SCHEDULER_MAIN: Load scheduler "tlk0" with entities [EventEntity, EventEntity], work=30*
 10: 0x02CB [0x03] Work_Zone[2] = 16656*
 11: 0x02D0 [0x1D] PRINT_EVENT_MESSAGE(message_id=12607*)
    → "I knew you'd return safely, and with the $3. Mission completed!"
 12: 0x02D3 [0x23] WAIT_FOR_DIALOG_INTERACTION
 13: 0x02D4 [0x5E] EventEntity goes idle (kills current action) (animation: "idl0")
 14: 0x02D9 [0x52] END_LOAD_SCHEDULER: End scheduler "s026" with entities [EventEntity, EventEntity], work=90*
 15: 0x02E8 [0x01] GOTO 0x032F
 16: 0x02EB [0x66] LOAD_EXT_SCHEDULER_MAIN: Load scheduler "tlk0" with entities [EventEntity, EventEntity], work=30*
 17: 0x02FA [0x1D] PRINT_EVENT_MESSAGE(message_id=17*)
    → "Oh, you're back. Well, if you're so happy you defeated an Orc or two, you've a long way ahead of you!"
 18: 0x02FD [0x23] WAIT_FOR_DIALOG_INTERACTION
 19: 0x02FE [0x1C] WAIT(30* ticks)
 20: 0x0301 [0x52] END_LOAD_SCHEDULER: End scheduler "s026" with entities [EventEntity, EventEntity], work=90*
 21: 0x0310 [0x45] LOAD_SCHEDULED_TASK: Load scheduler "s019" with entities [LocalPlayer, LocalPlayer], work=[131*, 0*]
 22: 0x0321 [0x03] Work_Zone[2] = 16656*
 23: 0x0326 [0x5E] EventEntity goes idle (kills current action) (animation: "idl0")
 24: 0x032B [0x1D] PRINT_EVENT_MESSAGE(message_id=18*)
    → "That's another $0 for the armory, then. Mission complete! Not bad for a new recruit."
 25: 0x032E [0x23] WAIT_FOR_DIALOG_INTERACTION

SUBROUTINE_032F:
 26: 0x032F [0x45] LOAD_SCHEDULED_TASK: Load scheduler "fdo1" with entities [EventEntity, EventEntity], work=[200*, 0*]
 27: 0x0340 [0x1C] WAIT(60* ticks)
 28: 0x0343 [0x5E] EventEntity goes idle (kills current action) (animation: "idl0")
 29: 0x0348 [0x46] CAMERA_CONTROL: Restore default settings
 30: 0x034A [0x45] LOAD_SCHEDULED_TASK: Load scheduler "fdi1" with entities [EventEntity, EventEntity], work=[200*, 0*]
 31: 0x035B [0x45] LOAD_SCHEDULED_TASK: Load scheduler "qstc" with entities [LocalPlayer, LocalPlayer], work=[201*, 0*]
 32: 0x036C [0x20] SET_CLI_EVENT_UC_FLAG: Unlock player control
 33: 0x036E [0x21] END_EVENT
 34: 0x036F [0x00] END_REQSTACK()
```

### Event 1008

#### Metadata

| Field        | Value     |
|--------------|-----------|
| Entrypoint   | 0x0370    |
| Data Size    | 191 bytes |
| Instructions | 25        |

```
      00 01 02 03 04 05 06 07  08 09 0A 0B 0C 0D 0E 0F
      -- -- -- -- -- -- -- --  -- -- -- -- -- -- -- --
0370: 42 20 01 46 01 45 02 80  F8 FF FF 7F F8 FF FF 7F  B .F.E..........
0380: 66 64 6F 31 03 80 1C 04  80 38 05 80 29 64 F0 FF  fdo1.....8..)d..
0390: FF 7F 25 29 08 F0 FF FF  7F 35 45 08 80 F0 FF FF  ..%).....5E.....
03A0: 7F F0 FF FF 7F 73 30 32  32 03 80 45 02 80 F8 FF  .....s022..E....
03B0: FF 7F F8 FF FF 7F 66 64  69 31 03 80 66 00 80 F8  ......fdi1..f...
03C0: FF FF 7F F8 FF FF 7F 74  6C 6B 30 1D 1B 80 23 5E  .......tlk0...#^
03D0: 69 64 6C 30 1C 00 80 45  08 80 F0 FF FF 7F F0 FF  idl0...E........
03E0: FF 7F 73 30 31 39 03 80  66 00 80 F8 FF FF 7F F8  ..s019..f.......
03F0: FF FF 7F 70 61 73 30 53  F8 FF FF 7F F8 FF FF 7F  ...pas0S........
0400: 70 61 73 30 45 02 80 F8  FF FF 7F F8 FF FF 7F 66  pas0E..........f
0410: 64 6F 31 03 80 1C 04 80  46 00 45 02 80 F8 FF FF  do1.....F.E.....
0420: 7F F8 FF FF 7F 66 64 69  31 03 80 20 00 21 00     .....fdi1.. .!. 
```

#### Opcodes

```
  0: 0x0370 [0x42] SET_CLI_EVENT_CANCEL_DATA()
  1: 0x0371 [0x20] SET_CLI_EVENT_UC_FLAG: Lock player control
  2: 0x0373 [0x46] CAMERA_CONTROL: Disable user control
  3: 0x0375 [0x45] LOAD_SCHEDULED_TASK: Load scheduler "fdo1" with entities [EventEntity, EventEntity], work=[200*, 0*]
  4: 0x0386 [0x1C] WAIT(60* ticks)
  5: 0x0389 [0x38] SET_CLIENT_EVENT_MODE(mode=3*)
  6: 0x038C [0x29] REQ_SET_WAIT(priority=0x64, entity_id=LocalPlayer, tag_num=0x25)
  7: 0x0393 [0x29] REQ_SET_WAIT(priority=0x08, entity_id=LocalPlayer, tag_num=0x35)
  8: 0x039A [0x45] LOAD_SCHEDULED_TASK: Load scheduler "s022" with entities [LocalPlayer, LocalPlayer], work=[131*, 0*]
  9: 0x03AB [0x45] LOAD_SCHEDULED_TASK: Load scheduler "fdi1" with entities [EventEntity, EventEntity], work=[200*, 0*]
 10: 0x03BC [0x66] LOAD_EXT_SCHEDULER_MAIN: Load scheduler "tlk0" with entities [EventEntity, EventEntity], work=30*
 11: 0x03CB [0x1D] PRINT_EVENT_MESSAGE(message_id=19*)
    → "What? I don't want this!"
 12: 0x03CE [0x23] WAIT_FOR_DIALOG_INTERACTION
 13: 0x03CF [0x5E] EventEntity goes idle (kills current action) (animation: "idl0")
 14: 0x03D4 [0x1C] WAIT(30* ticks)
 15: 0x03D7 [0x45] LOAD_SCHEDULED_TASK: Load scheduler "s019" with entities [LocalPlayer, LocalPlayer], work=[131*, 0*]
 16: 0x03E8 [0x66] LOAD_EXT_SCHEDULER_MAIN: Load scheduler "pas0" with entities [EventEntity, EventEntity], work=30*
 17: 0x03F7 [0x53] WAIT_SCHEDULER_TASK: Wait for scheduler "pas0" with entities [EventEntity, EventEntity]
 18: 0x0404 [0x45] LOAD_SCHEDULED_TASK: Load scheduler "fdo1" with entities [EventEntity, EventEntity], work=[200*, 0*]
 19: 0x0415 [0x1C] WAIT(60* ticks)
 20: 0x0418 [0x46] CAMERA_CONTROL: Restore default settings
 21: 0x041A [0x45] LOAD_SCHEDULED_TASK: Load scheduler "fdi1" with entities [EventEntity, EventEntity], work=[200*, 0*]
 22: 0x042B [0x20] SET_CLI_EVENT_UC_FLAG: Unlock player control
 23: 0x042D [0x21] END_EVENT
 24: 0x042E [0x00] END_REQSTACK()
```

### Event 1010

#### Metadata

| Field        | Value     |
|--------------|-----------|
| Entrypoint   | 0x042F    |
| Data Size    | 210 bytes |
| Instructions | 28        |

```
      00 01 02 03 04 05 06 07  08 09 0A 0B 0C 0D 0E 0F
      -- -- -- -- -- -- -- --  -- -- -- -- -- -- -- --
0420:                                               42                 B
0430: 20 01 46 01 45 02 80 F8  FF FF 7F F8 FF FF 7F 66   .F.E..........f
0440: 64 6F 31 03 80 1C 04 80  38 05 80 29 64 F0 FF FF  do1.....8..)d...
0450: 7F 25 29 08 F0 FF FF 7F  35 45 08 80 F0 FF FF 7F  .%).....5E......
0460: F0 FF FF 7F 73 30 31 39  03 80 45 02 80 F8 FF FF  ....s019..E.....
0470: 7F F8 FF FF 7F 66 64 69  31 03 80 66 00 80 F8 FF  .....fdi1..f....
0480: FF 7F F8 FF FF 7F 74 68  6B 31 1D 1C 80 23 66 00  ......thk1...#f.
0490: 80 F8 FF FF 7F F8 FF FF  7F 74 68 6B 32 53 F8 FF  .........thk2S..
04A0: FF 7F F8 FF FF 7F 74 68  6B 32 1C 00 80 45 08 80  ......thk2...E..
04B0: F0 FF FF 7F F0 FF FF 7F  73 30 32 32 03 80 66 00  ........s022..f.
04C0: 80 F8 FF FF 7F F8 FF FF  7F 74 6C 6B 30 1D 1D 80  .........tlk0...
04D0: 23 5E 69 64 6C 30 45 02  80 F8 FF FF 7F F8 FF FF  #^idl0E.........
04E0: 7F 66 64 6F 31 03 80 1C  04 80 46 00 45 02 80 F8  .fdo1.....F.E...
04F0: FF FF 7F F8 FF FF 7F 66  64 69 31 03 80 20 00 21  .......fdi1.. .!
0500: 00                                                .               
```

#### Opcodes

```
  0: 0x042F [0x42] SET_CLI_EVENT_CANCEL_DATA()
  1: 0x0430 [0x20] SET_CLI_EVENT_UC_FLAG: Lock player control
  2: 0x0432 [0x46] CAMERA_CONTROL: Disable user control
  3: 0x0434 [0x45] LOAD_SCHEDULED_TASK: Load scheduler "fdo1" with entities [EventEntity, EventEntity], work=[200*, 0*]
  4: 0x0445 [0x1C] WAIT(60* ticks)
  5: 0x0448 [0x38] SET_CLIENT_EVENT_MODE(mode=3*)
  6: 0x044B [0x29] REQ_SET_WAIT(priority=0x64, entity_id=LocalPlayer, tag_num=0x25)
  7: 0x0452 [0x29] REQ_SET_WAIT(priority=0x08, entity_id=LocalPlayer, tag_num=0x35)
  8: 0x0459 [0x45] LOAD_SCHEDULED_TASK: Load scheduler "s019" with entities [LocalPlayer, LocalPlayer], work=[131*, 0*]
  9: 0x046A [0x45] LOAD_SCHEDULED_TASK: Load scheduler "fdi1" with entities [EventEntity, EventEntity], work=[200*, 0*]
 10: 0x047B [0x66] LOAD_EXT_SCHEDULER_MAIN: Load scheduler "thk1" with entities [EventEntity, EventEntity], work=30*
 11: 0x048A [0x1D] PRINT_EVENT_MESSAGE(message_id=20*)
    → "Are you really a new recruit!?"
 12: 0x048D [0x23] WAIT_FOR_DIALOG_INTERACTION
 13: 0x048E [0x66] LOAD_EXT_SCHEDULER_MAIN: Load scheduler "thk2" with entities [EventEntity, EventEntity], work=30*
 14: 0x049D [0x53] WAIT_SCHEDULER_TASK: Wait for scheduler "thk2" with entities [EventEntity, EventEntity]
 15: 0x04AA [0x1C] WAIT(30* ticks)
 16: 0x04AD [0x45] LOAD_SCHEDULED_TASK: Load scheduler "s022" with entities [LocalPlayer, LocalPlayer], work=[131*, 0*]
 17: 0x04BE [0x66] LOAD_EXT_SCHEDULER_MAIN: Load scheduler "tlk0" with entities [EventEntity, EventEntity], work=30*
 18: 0x04CD [0x1D] PRINT_EVENT_MESSAGE(message_id=21*)
    → "Listen, before you bring me something, you must first accept the mission! That is how things work around here!"
 19: 0x04D0 [0x23] WAIT_FOR_DIALOG_INTERACTION
 20: 0x04D1 [0x5E] EventEntity goes idle (kills current action) (animation: "idl0")
 21: 0x04D6 [0x45] LOAD_SCHEDULED_TASK: Load scheduler "fdo1" with entities [EventEntity, EventEntity], work=[200*, 0*]
 22: 0x04E7 [0x1C] WAIT(60* ticks)
 23: 0x04EA [0x46] CAMERA_CONTROL: Restore default settings
 24: 0x04EC [0x45] LOAD_SCHEDULED_TASK: Load scheduler "fdi1" with entities [EventEntity, EventEntity], work=[200*, 0*]
 25: 0x04FD [0x20] SET_CLI_EVENT_UC_FLAG: Unlock player control
 26: 0x04FF [0x21] END_EVENT
 27: 0x0500 [0x00] END_REQSTACK()
```

### Event 1009

#### Metadata

| Field        | Value     |
|--------------|-----------|
| Entrypoint   | 0x0501    |
| Data Size    | 657 bytes |
| Instructions | 26        |

```
      00 01 02 03 04 05 06 07  08 09 0A 0B 0C 0D 0E 0F
      -- -- -- -- -- -- -- --  -- -- -- -- -- -- -- --
0500:    42 46 01 45 02 80 F8  FF FF 7F F8 FF FF 7F 66   BF.E..........f
0510: 64 6F 31 03 80 1C 04 80  38 05 80 29 64 F0 FF FF  do1.....8..)d...
0520: 7F 25 29 08 F0 FF FF 7F  35 45 08 80 F0 FF FF 7F  .%).....5E......
0530: F0 FF FF 7F 73 30 32 33  03 80 45 02 80 F8 FF FF  ....s023..E.....
0540: 7F F8 FF FF 7F 66 64 69  31 03 80 24 05 80 1E 80  .....fdi1..$....
0550: 02 10 25 02 00 10 03 80  00 61 05 01 B6 07 01 44  ..%......a.....D
0560: 07 02 00 10 01 80 00 7C  05 3E 07 10 10 80 76 05  .......|.>....v.
0570: 01 E0 07 01 79 05 01 5D  09 01 44 07 02 00 10 15  ....y..]..D.....
0580: 80 00 97 05 3E 07 10 09  80 91 05 01 40 0A 01 94  ....>.......@...
0590: 05 01 E1 0C 01 44 07 02  00 10 05 80 00 A5 05 01  .....D..........
05A0: C4 0F 01 44 07 02 00 10  1F 80 00 B3 05 01 EE 11  ...D............
05B0: 01 44 07 02 00 10 10 80  00 C1 05 01 5A 14 01 44  .D..........Z..D
05C0: 07 02 00 10 11 80 00 D1  05 03 01 10 11 80 01 44  ...............D
05D0: 07 02 00 10 07 80 00 E1  05 03 01 10 07 80 01 44  ...............D
05E0: 07 02 00 10 09 80 00 F1  05 03 01 10 09 80 01 44  ...............D
05F0: 07 02 00 10 0A 80 00 01  06 03 01 10 0A 80 01 44  ...............D
0600: 07 02 00 10 0B 80 00 1C  06 3E 07 10 13 80 16 06  .........>......
0610: 01 79 16 01 19 06 01 0F  18 01 44 07 02 00 10 0C  .y........D.....
0620: 80 00 2A 06 01 C6 18 01  44 07 02 00 10 0D 80 00  ..*.....D.......
0630: 38 06 01 5E 1B 01 44 07  02 00 10 0F 80 00 48 06  8..^..D.......H.
0640: 03 01 10 0F 80 01 44 07  02 00 10 12 80 00 56 06  ......D.......V.
0650: 01 3B 1C 01 44 07 02 00  10 13 80 00 64 06 01 DD  .;..D.......d...
0660: 1C 01 44 07 02 00 10 14  80 00 72 06 01 6B 2F 01  ..D.......r..k/.
0670: 44 07 02 00 10 18 80 00  80 06 01 E7 2F 01 44 07  D.........../.D.
0680: 02 00 10 19 80 00 8E 06  01 9E 30 01 44 07 02 00  ..........0.D...
0690: 10 1B 80 00 9C 06 01 00  31 01 44 07 02 00 10 1C  ........1.D.....
06A0: 80 00 AA 06 01 8E 31 01  44 07 02 00 10 1D 80 00  ......1.D.......
06B0: B8 06 01 ED 31 01 44 07  02 00 10 20 80 00 C6 06  ....1.D.... ....
06C0: 01 35 32 01 44 07 02 00  10 21 80 00 D4 06 01 7D  .52.D....!.....}
06D0: 32 01 44 07 02 00 10 22  80 00 E4 06 03 01 10 22  2.D...."......."
06E0: 80 01 44 07 02 00 10 23  80 00 F4 06 03 01 10 23  ..D....#.......#
06F0: 80 01 44 07 02 00 10 24  80 00 04 07 03 01 10 24  ..D....$.......$
0700: 80 01 44 07 02 00 10 25  80 00 14 07 03 01 10 25  ..D....%.......%
0710: 80 01 44 07 02 00 10 26  80 00 24 07 03 01 10 26  ..D....&..$....&
0720: 80 01 44 07 02 00 10 27  80 00 34 07 03 01 10 27  ..D....'..4....'
0730: 80 01 44 07 02 00 10 00  80 00 44 07 03 01 10 00  ..D.......D.....
0740: 80 01 44 07 03 01 10 00  10 02 01 10 1E 80 01 69  ..D............i
0750: 07 24 1F 80 03 80 03 80  25 02 00 10 01 80 00 69  .$......%......i
0760: 07 03 01 10 1E 80 01 69  07 45 02 80 F8 FF FF 7F  .......i.E......
0770: F8 FF FF 7F 66 64 6F 31  03 80 1C 04 80 46 00 45  ....fdo1.....F.E
0780: 02 80 F8 FF FF 7F F8 FF  FF 7F 66 64 69 31 03 80  ..........fdi1..
0790: 21 00                                             !.              
```

#### Opcodes

```
  0: 0x0501 [0x42] SET_CLI_EVENT_CANCEL_DATA()
  1: 0x0502 [0x46] CAMERA_CONTROL: Disable user control
  2: 0x0504 [0x45] LOAD_SCHEDULED_TASK: Load scheduler "fdo1" with entities [EventEntity, EventEntity], work=[200*, 0*]
  3: 0x0515 [0x1C] WAIT(60* ticks)
  4: 0x0518 [0x38] SET_CLIENT_EVENT_MODE(mode=3*)
  5: 0x051B [0x29] REQ_SET_WAIT(priority=0x64, entity_id=LocalPlayer, tag_num=0x25)
  6: 0x0522 [0x29] REQ_SET_WAIT(priority=0x08, entity_id=LocalPlayer, tag_num=0x35)
  7: 0x0529 [0x45] LOAD_SCHEDULED_TASK: Load scheduler "s023" with entities [LocalPlayer, LocalPlayer], work=[131*, 0*]
  8: 0x053A [0x45] LOAD_SCHEDULED_TASK: Load scheduler "fdi1" with entities [EventEntity, EventEntity], work=[200*, 0*]
  9: 0x054B [0x24] CREATE_DIALOG(message_id=3*, default_option=31*, option_flags=Work_Zone[2])
    → "Which mission will you undertake? [Smash the Orcish Scouts./Bat Hunt./Save the Children./The Rescue Drill./The Davoi Report./Journey Abroad./Journey to Bastok./Journey to Windurst./Journey to Bastok./Journey to Windurst./Infiltrate Davoi./The Crystal Spring./Appointment to Jeuno./Magicite./The Ruins of Fei'Yin./The Shadow Lord./Leaute's Last Wishes./Ranperre's Final Rest./Prestige of the Papsque./The Secret Weapon./Coming of Age./Lightbringer./Breaking Barriers./The Heir to the Light./10-1./10-2./$3_$3~[26./$3_$3~[27./$3_$3~[28./$3_$3~[29./$3_$3~[30./None.]"
 10: 0x0552 [0x25] WAIT_DIALOG_SELECT()
 11: 0x0553 [0x02] IF !(Work_Zone[0] == 0*) GOTO 0x0561
 12: 0x055B [0x01] GOTO 0x07B6

SUBROUTINE_0744:
 13: 0x0744 [0x03] Work_Zone[1] = Work_Zone[0]
 14: 0x0749 [0x02] IF !(Work_Zone[1] == 31*) GOTO 0x0769
 15: 0x0751 [0x24] CREATE_DIALOG(message_id=4*, default_option=0*, option_flags=0*)
    → "Accept this mission? [Yes./No.]"
 16: 0x0758 [0x25] WAIT_DIALOG_SELECT()
 17: 0x0759 [0x02] IF !(Work_Zone[0] == 1*) GOTO 0x0769
 18: 0x0761 [0x03] Work_Zone[1] = 31*
 19: 0x0766 [0x01] GOTO 0x0769

SUBROUTINE_0769:
 20: 0x0769 [0x45] LOAD_SCHEDULED_TASK: Load scheduler "fdo1" with entities [EventEntity, EventEntity], work=[200*, 0*]
 21: 0x077A [0x1C] WAIT(60* ticks)
 22: 0x077D [0x46] CAMERA_CONTROL: Restore default settings
 23: 0x077F [0x45] LOAD_SCHEDULED_TASK: Load scheduler "fdi1" with entities [EventEntity, EventEntity], work=[200*, 0*]
 24: 0x0790 [0x21] END_EVENT
 25: 0x0791 [0x00] END_REQSTACK()
```

#### Data or dead code:

```
# Dead code (unreachable instructions):
     0x055E [0x01] GOTO 0x0744
     0x0573 [0x01] GOTO 0x0579
     0x0579 [0x01] GOTO 0x0744
     0x058E [0x01] GOTO 0x0594
     0x0594 [0x01] GOTO 0x0744
     0x05A2 [0x01] GOTO 0x0744
     0x05B0 [0x01] GOTO 0x0744
     0x05BE [0x01] GOTO 0x0744
     0x0613 [0x01] GOTO 0x0619
     0x0619 [0x01] GOTO 0x0744
     0x0627 [0x01] GOTO 0x0744
     0x0635 [0x01] GOTO 0x0744
     0x0653 [0x01] GOTO 0x0744
     0x0661 [0x01] GOTO 0x0744
     0x066F [0x01] GOTO 0x0744
     0x067D [0x01] GOTO 0x0744
     0x068B [0x01] GOTO 0x0744
     0x0699 [0x01] GOTO 0x0744
     0x06A7 [0x01] GOTO 0x0744
     0x06B5 [0x01] GOTO 0x0744
     0x06C3 [0x01] GOTO 0x0744
     0x06D1 [0x01] GOTO 0x0744
```

### Event 1001

#### Metadata

| Field        | Value     |
|--------------|-----------|
| Entrypoint   | 0x0792    |
| Data Size    | 467 bytes |
| Instructions | 10        |

```
      00 01 02 03 04 05 06 07  08 09 0A 0B 0C 0D 0E 0F
      -- -- -- -- -- -- -- --  -- -- -- -- -- -- -- --
0790:       1E F0 FF FF 7F 6F  70 66 00 80 F8 FF FF 7F    .....opf......
07A0: F8 FF FF 7F 74 6C 6B 30  1D 15 80 23 5E 69 64 6C  ....tlk0...#^idl
07B0: 30 1C 00 80 21 00 45 02  80 F0 FF FF 7F F0 FF FF  0...!.E.........
07C0: 7F 6F 76 6C 31 03 80 45  08 80 F0 FF FF 7F F0 FF  .ovl1..E........
07D0: FF 7F 73 30 32 31 03 80  1D 28 80 23 01 2F 01 00  ..s021...(.#./..
07E0: 45 02 80 F0 FF FF 7F F0  FF FF 7F 6F 76 6C 31 03  E..........ovl1.
07F0: 80 45 08 80 F0 FF FF 7F  F0 FF FF 7F 73 30 32 31  .E..........s021
0800: 03 80 27 64 F0 FF FF 7F  25 66 00 80 F8 FF FF 7F  ..'d....%f......
0810: F8 FF FF 7F 74 6C 6B 30  1D 21 80 23 5E 69 64 6C  ....tlk0.!.#^idl
0820: 30 24 0C 80 03 80 03 80  25 02 00 10 03 80 00 24  0$......%......$
0830: 09 45 06 80 F8 FF FF 7F  F8 FF FF 7F 73 31 30 35  .E..........s105
0840: 03 80 66 00 80 F8 FF FF  7F F8 FF FF 7F 74 6C 6B  ..f..........tlk
0850: 30 1D 22 80 23 03 02 10  29 80 1D 23 80 23 52 06  0.".#...)..#.#R.
0860: 80 F8 FF FF 7F F8 FF FF  7F 73 31 30 35 02 09 10  .........s105...
0870: 10 80 00 89 08 45 06 80  F8 FF FF 7F F8 FF FF 7F  .....E..........
0880: 73 31 30 36 03 80 01 B6  08 02 09 10 11 80 00 A5  s106............
0890: 08 45 06 80 F8 FF FF 7F  F8 FF FF 7F 73 31 30 36  .E..........s106
08A0: 03 80 01 B6 08 45 08 80  F0 FF FF 7F F0 FF FF 7F  .....E..........
08B0: 73 30 32 32 03 80 1D 12  80 23 5E 69 64 6C 30 24  s022.....#^idl0$
08C0: 13 80 03 80 03 80 25 02  00 10 03 80 00 03 09 45  ......%........E
08D0: 08 80 F0 FF FF 7F F0 FF  FF 7F 73 30 32 33 03 80  ..........s023..
08E0: 66 00 80 F8 FF FF 7F F8  FF FF 7F 74 6C 6B 30 1D  f..........tlk0.
08F0: 24 80 23 5E 69 64 6C 30  1C 00 80 03 01 10 01 80  $.#^idl0........
0900: 01 21 09 02 00 10 01 80  00 11 09 01 31 08 01 21  .!..........1..!
0910: 09 02 00 10 15 80 00 21  09 03 01 10 16 80 01 21  .......!.......!
0920: 09 01 34 09 02 00 10 01  80 00 34 09 03 01 10 16  ..4.......4.....
0930: 80 01 34 09 45 02 80 F8  FF FF 7F F8 FF FF 7F 66  ..4.E..........f
0940: 64 6F 31 03 80 1C 04 80  46 00 45 02 80 F8 FF FF  do1.....F.E.....
0950: 7F F8 FF FF 7F 66 64 69  31 03 80 21 00 29 0F 22  .....fdi1..!.)."
0960: 70 0E 01 2A 00                                    p..*.           
```

#### Opcodes

```
  0: 0x0792 [0x1E] EventEntity looks at LocalPlayer and starts talking
  1: 0x0797 [0x6F] WAIT_FRAME_DELAY: Yield until WaitTime reaches zero
  2: 0x0798 [0x70] WAIT_ENTITY_RENDER_FLAG: Wait while EventEntity->Render.Flags3 bit 2 is set (cancel turn if not)
  3: 0x0799 [0x66] LOAD_EXT_SCHEDULER_MAIN: Load scheduler "tlk0" with entities [EventEntity, EventEntity], work=30*
  4: 0x07A8 [0x1D] PRINT_EVENT_MESSAGE(message_id=2*)
    → "Finish your current mission first, then come back for another."
  5: 0x07AB [0x23] WAIT_FOR_DIALOG_INTERACTION
  6: 0x07AC [0x5E] EventEntity goes idle (kills current action) (animation: "idl0")
  7: 0x07B1 [0x1C] WAIT(30* ticks)
  8: 0x07B4 [0x21] END_EVENT
  9: 0x07B5 [0x00] END_REQSTACK()
```

#### Data or dead code:

```
# Dead code (unreachable instructions):
     0x07B6 [0x45] LOAD_SCHEDULED_TASK: Load scheduler "ovl1" with entities [LocalPlayer, LocalPlayer], work=[200*, 0*]
     0x07C7 [0x45] LOAD_SCHEDULED_TASK: Load scheduler "s021" with entities [LocalPlayer, LocalPlayer], work=[131*, 0*]
     0x07D8 [0x1D] PRINT_EVENT_MESSAGE(message_id=12606*)
    → "What, you want the mission from rank one again?"
     0x07DB [0x23] WAIT_FOR_DIALOG_INTERACTION
     0x07DC [0x01] GOTO 0x012F
     0x07DF [0x00] END_REQSTACK()
     0x07E0 [0x45] LOAD_SCHEDULED_TASK: Load scheduler "ovl1" with entities [LocalPlayer, LocalPlayer], work=[200*, 0*]
     0x07F1 [0x45] LOAD_SCHEDULED_TASK: Load scheduler "s021" with entities [LocalPlayer, LocalPlayer], work=[131*, 0*]
     0x0802 [0x27] REQ_SET(priority=0x64, entity_id=LocalPlayer, tag_num=0x25)
     0x0809 [0x66] LOAD_EXT_SCHEDULER_MAIN: Load scheduler "tlk0" with entities [EventEntity, EventEntity], work=30*
     0x0818 [0x1D] PRINT_EVENT_MESSAGE(message_id=23*)
    → "Bat patrol! How about it? Shouldn't be a problem for an adventurer such as yourself, no?"
     0x081B [0x23] WAIT_FOR_DIALOG_INTERACTION
     0x081C [0x5E] EventEntity goes idle (kills current action) (animation: "idl0")
     0x0821 [0x24] CREATE_DIALOG(message_id=11*, default_option=0*, option_flags=0*)
    → "Interested? [Tell me more./Never mind.]"
     0x0828 [0x25] WAIT_DIALOG_SELECT()
     0x0829 [0x02] IF !(Work_Zone[0] == 0*) GOTO 0x0924
     0x0831 [0x45] LOAD_SCHEDULED_TASK: Load scheduler "s105" with entities [EventEntity, EventEntity], work=[90*, 0*]
     0x0842 [0x66] LOAD_EXT_SCHEDULER_MAIN: Load scheduler "tlk0" with entities [EventEntity, EventEntity], work=30*
     0x0851 [0x1D] PRINT_EVENT_MESSAGE(message_id=24*)
    → "Here's your mission, then. Clear out bats lurking in King Ranperre's Tomb and bring me a fang as proof."
     0x0854 [0x23] WAIT_FOR_DIALOG_INTERACTION
     0x0855 [0x03] Work_Zone[2] = 891*
     0x085A [0x1D] PRINT_EVENT_MESSAGE(message_id=25*)
    → "Bring me $0 and your mission will be a success."
     0x085D [0x23] WAIT_FOR_DIALOG_INTERACTION
     0x085E [0x52] END_LOAD_SCHEDULER: End scheduler "s105" with entities [EventEntity, EventEntity], work=90*
     0x086D [0x02] IF !(Work_Zone[9] == 5*) GOTO 0x0889
     0x0875 [0x45] LOAD_SCHEDULED_TASK: Load scheduler "s106" with entities [EventEntity, EventEntity], work=[90*, 0*]
     0x0886 [0x01] GOTO 0x08B6
     0x0889 [0x02] IF !(Work_Zone[9] == 6*) GOTO 0x08A5
     0x0891 [0x45] LOAD_SCHEDULED_TASK: Load scheduler "s106" with entities [EventEntity, EventEntity], work=[90*, 0*]
     0x08A2 [0x01] GOTO 0x08B6
     0x08A5 [0x45] LOAD_SCHEDULED_TASK: Load scheduler "s022" with entities [LocalPlayer, LocalPlayer], work=[131*, 0*]
     0x08B6 [0x1D] PRINT_EVENT_MESSAGE(message_id=14*)
    → "That is all. You'll take the mission then?"
     0x08B9 [0x23] WAIT_FOR_DIALOG_INTERACTION
     0x08BA [0x5E] EventEntity goes idle (kills current action) (animation: "idl0")
     0x08BF [0x24] CREATE_DIALOG(message_id=15*, default_option=0*, option_flags=0*)
    → "Do you accept the mission? [I accept./Could you explain again?/No, thank you.]"
     0x08C6 [0x25] WAIT_DIALOG_SELECT()
     0x08C7 [0x02] IF !(Work_Zone[0] == 0*) GOTO 0x0903
     0x08CF [0x45] LOAD_SCHEDULED_TASK: Load scheduler "s023" with entities [LocalPlayer, LocalPlayer], work=[131*, 0*]
     0x08E0 [0x66] LOAD_EXT_SCHEDULER_MAIN: Load scheduler "tlk0" with entities [EventEntity, EventEntity], work=30*
     0x08EF [0x1D] PRINT_EVENT_MESSAGE(message_id=26*)
    → "Deep in the tomb you'll find Goblins. Take care; I don't want to lose you yet."
     0x08F2 [0x23] WAIT_FOR_DIALOG_INTERACTION
     0x08F3 [0x5E] EventEntity goes idle (kills current action) (animation: "idl0")
     0x08F8 [0x1C] WAIT(30* ticks)
     0x08FB [0x03] Work_Zone[1] = 1*
     0x0900 [0x01] GOTO 0x0921
     0x0903 [0x02] IF !(Work_Zone[0] == 1*) GOTO 0x0911
     0x090B [0x01] GOTO 0x0831
     0x090E [0x01] GOTO 0x0921
     0x0911 [0x02] IF !(Work_Zone[0] == 2*) GOTO 0x0921
     0x0919 [0x03] Work_Zone[1] = 1073741824*
     0x091E [0x01] GOTO 0x0921
     0x0921 [0x01] GOTO 0x0934
     0x0924 [0x02] IF !(Work_Zone[0] == 1*) GOTO 0x0934
     0x092C [0x03] Work_Zone[1] = 1073741824*
     0x0931 [0x01] GOTO 0x0934
     0x0934 [0x45] LOAD_SCHEDULED_TASK: Load scheduler "fdo1" with entities [EventEntity, EventEntity], work=[200*, 0*]
     0x0945 [0x1C] WAIT(60* ticks)
     0x0948 [0x46] CAMERA_CONTROL: Restore default settings
     0x094A [0x45] LOAD_SCHEDULED_TASK: Load scheduler "fdi1" with entities [EventEntity, EventEntity], work=[200*, 0*]
     0x095B [0x21] END_EVENT
     0x095C [0x00] END_REQSTACK()
     0x095D [0x29] REQ_SET_WAIT(priority=0x0F, entity_id=Grilau (ID: 17723426/0x010E7022), tag_num=0x2A)
     0x0964 [0x00] END_REQSTACK()
```

### Event 1003

#### Metadata

| Field        | Value     |
|--------------|-----------|
| Entrypoint   | 0x0965    |
| Data Size    | 900 bytes |
| Instructions | 31        |

```
      00 01 02 03 04 05 06 07  08 09 0A 0B 0C 0D 0E 0F
      -- -- -- -- -- -- -- --  -- -- -- -- -- -- -- --
0960:                42 46 01  45 02 80 F8 FF FF 7F F8       BF.E.......
0970: FF FF 7F 66 64 6F 31 03  80 1C 04 80 38 05 80 29  ...fdo1.....8..)
0980: 64 F0 FF FF 7F 25 29 08  F0 FF FF 7F 35 45 08 80  d....%).....5E..
0990: F0 FF FF 7F F0 FF FF 7F  73 30 32 33 03 80 45 02  ........s023..E.
09A0: 80 F8 FF FF 7F F8 FF FF  7F 66 64 69 31 03 80 02  .........fdi1...
09B0: 06 10 01 80 00 D2 09 03  05 10 29 80 66 00 80 F8  ..........).f...
09C0: FF FF 7F F8 FF FF 7F 74  6C 6B 30 1D 17 80 23 01  .......tlk0...#.
09D0: FF 09 66 00 80 F8 FF FF  7F F8 FF FF 7F 74 6C 6B  ..f..........tlk
09E0: 30 1D 25 80 23 45 08 80  F0 FF FF 7F F0 FF FF 7F  0.%.#E..........
09F0: 73 30 31 39 03 80 03 05  10 29 80 1D 26 80 23 45  s019.....)..&.#E
0A00: 02 80 F8 FF FF 7F F8 FF  FF 7F 66 64 6F 31 03 80  ..........fdo1..
0A10: 1C 04 80 5E 69 64 6C 30  46 00 45 02 80 F8 FF FF  ...^idl0F.E.....
0A20: 7F F8 FF FF 7F 66 64 69  31 03 80 45 1A 80 F0 FF  .....fdi1..E....
0A30: FF 7F F0 FF FF 7F 71 73  74 63 03 80 20 00 21 00  ......qstc.. .!.
0A40: 45 02 80 F0 FF FF 7F F0  FF FF 7F 6F 76 6C 31 03  E..........ovl1.
0A50: 80 45 06 80 F8 FF FF 7F  F8 FF FF 7F 73 30 32 36  .E..........s026
0A60: 03 80 66 00 80 F8 FF FF  7F F8 FF FF 7F 74 6C 6B  ..f..........tlk
0A70: 30 02 06 10 01 80 00 80  0A 1D 2A 80 23 01 84 0A  0.........*.#...
0A80: 1D 27 80 23 5E 69 64 6C  30 1D 00 80 23 52 06 80  .'.#^idl0...#R..
0A90: F8 FF FF 7F F8 FF FF 7F  73 30 32 36 45 06 80 F8  ........s026E...
0AA0: FF FF 7F F8 FF FF 7F 73  30 37 36 03 80 66 00 80  .......s076..f..
0AB0: F8 FF FF 7F F8 FF FF 7F  74 68 6B 31 1D 1E 80 23  ........thk1...#
0AC0: 1D 2B 80 23 1D 2C 80 23  52 06 80 F8 FF FF 7F F8  .+.#.,.#R.......
0AD0: FF FF 7F 73 30 37 36 45  06 80 F8 FF FF 7F F8 FF  ...s076E........
0AE0: FF 7F 73 30 32 36 03 80  1D 2D 80 23 66 00 80 F8  ..s026...-.#f...
0AF0: FF FF 7F F8 FF FF 7F 74  68 6B 32 53 F8 FF FF 7F  .......thk2S....
0B00: F8 FF FF 7F 74 68 6B 32  1C 00 80 52 06 80 F8 FF  ....thk2...R....
0B10: FF 7F F8 FF FF 7F 73 30  32 36 45 02 80 F0 FF FF  ......s026E.....
0B20: 7F F0 FF FF 7F 6F 76 6C  31 03 80 45 08 80 F0 FF  .....ovl1..E....
0B30: FF 7F F0 FF FF 7F 73 30  31 39 03 80 66 00 80 F8  ......s019..f...
0B40: FF FF 7F F8 FF FF 7F 70  6F 69 31 1D 2E 80 23 66  .......poi1...#f
0B50: 00 80 F8 FF FF 7F F8 FF  FF 7F 70 6F 69 32 53 F8  ..........poi2S.
0B60: FF FF 7F F8 FF FF 7F 70  6F 69 32 1C 00 80 66 00  .......poi2...f.
0B70: 80 F8 FF FF 7F F8 FF FF  7F 74 6C 6B 30 1D 2F 80  .........tlk0./.
0B80: 23 5E 69 64 6C 30 24 0C  80 03 80 03 80 25 02 00  #^idl0$......%..
0B90: 10 03 80 00 99 0C 45 06  80 F8 FF FF 7F F8 FF FF  ......E.........
0BA0: 7F 73 31 30 35 03 80 66  00 80 F8 FF FF 7F F8 FF  .s105..f........
0BB0: FF 7F 74 6C 6B 30 1D 30  80 23 1D 31 80 23 52 06  ..tlk0.0.#.1.#R.
0BC0: 80 F8 FF FF 7F F8 FF FF  7F 73 31 30 35 45 02 80  .........s105E..
0BD0: F0 FF FF 7F F0 FF FF 7F  6F 76 6C 31 03 80 02 09  ........ovl1....
0BE0: 10 10 80 00 FA 0B 45 06  80 F8 FF FF 7F F8 FF FF  ......E.........
0BF0: 7F 73 31 30 36 03 80 01  27 0C 02 09 10 11 80 00  .s106...'.......
0C00: 16 0C 45 06 80 F8 FF FF  7F F8 FF FF 7F 73 31 30  ..E..........s10
0C10: 36 03 80 01 27 0C 45 08  80 F0 FF FF 7F F0 FF FF  6...'.E.........
0C20: 7F 73 30 32 32 03 80 1D  32 80 23 1D 12 80 23 5E  .s022...2.#...#^
0C30: 69 64 6C 30 24 13 80 03  80 03 80 25 02 00 10 03  idl0$......%....
0C40: 80 00 78 0C 45 06 80 F8  FF FF 7F F8 FF FF 7F 73  ..x.E..........s
0C50: 30 37 37 03 80 66 00 80  F8 FF FF 7F F8 FF FF 7F  077..f..........
0C60: 74 6C 6B 30 1D 33 80 23  5E 69 64 6C 30 1C 00 80  tlk0.3.#^idl0...
0C70: 03 01 10 15 80 01 96 0C  02 00 10 01 80 00 86 0C  ................
0C80: 01 96 0B 01 96 0C 02 00  10 15 80 00 96 0C 03 01  ................
0C90: 10 16 80 01 96 0C 01 A9  0C 02 00 10 01 80 00 A9  ................
0CA0: 0C 03 01 10 16 80 01 A9  0C 45 02 80 F8 FF FF 7F  .........E......
0CB0: F8 FF FF 7F 66 64 6F 31  03 80 1C 04 80 52 06 80  ....fdo1.....R..
0CC0: F8 FF FF 7F F8 FF FF 7F  73 30 37 37 46 00 45 02  ........s077F.E.
0CD0: 80 F8 FF FF 7F F8 FF FF  7F 66 64 69 31 03 80 21  .........fdi1..!
0CE0: 00 29 0F 22 70 0E 01 38  00                       .)."p..8.       
```

#### Opcodes

```
  0: 0x0965 [0x42] SET_CLI_EVENT_CANCEL_DATA()
  1: 0x0966 [0x46] CAMERA_CONTROL: Disable user control
  2: 0x0968 [0x45] LOAD_SCHEDULED_TASK: Load scheduler "fdo1" with entities [EventEntity, EventEntity], work=[200*, 0*]
  3: 0x0979 [0x1C] WAIT(60* ticks)
  4: 0x097C [0x38] SET_CLIENT_EVENT_MODE(mode=3*)
  5: 0x097F [0x29] REQ_SET_WAIT(priority=0x64, entity_id=LocalPlayer, tag_num=0x25)
  6: 0x0986 [0x29] REQ_SET_WAIT(priority=0x08, entity_id=LocalPlayer, tag_num=0x35)
  7: 0x098D [0x45] LOAD_SCHEDULED_TASK: Load scheduler "s023" with entities [LocalPlayer, LocalPlayer], work=[131*, 0*]
  8: 0x099E [0x45] LOAD_SCHEDULED_TASK: Load scheduler "fdi1" with entities [EventEntity, EventEntity], work=[200*, 0*]
  9: 0x09AF [0x02] IF !(Work_Zone[6] == 1*) GOTO 0x09D2
 10: 0x09B7 [0x03] Work_Zone[5] = 891*
 11: 0x09BC [0x66] LOAD_EXT_SCHEDULER_MAIN: Load scheduler "tlk0" with entities [EventEntity, EventEntity], work=30*
 12: 0x09CB [0x1D] PRINT_EVENT_MESSAGE(message_id=12607*)
    → "I knew you'd return safely, and with the $3. Mission completed!"
 13: 0x09CE [0x23] WAIT_FOR_DIALOG_INTERACTION
 14: 0x09CF [0x01] GOTO 0x09FF
 15: 0x09D2 [0x66] LOAD_EXT_SCHEDULER_MAIN: Load scheduler "tlk0" with entities [EventEntity, EventEntity], work=30*
 16: 0x09E1 [0x1D] PRINT_EVENT_MESSAGE(message_id=27*)
    → "Ah, you've returned! I was afraid that Goblins got you."
 17: 0x09E4 [0x23] WAIT_FOR_DIALOG_INTERACTION
 18: 0x09E5 [0x45] LOAD_SCHEDULED_TASK: Load scheduler "s019" with entities [LocalPlayer, LocalPlayer], work=[131*, 0*]
 19: 0x09F6 [0x03] Work_Zone[5] = 891*
 20: 0x09FB [0x1D] PRINT_EVENT_MESSAGE(message_id=28*)
    → "That's one $3 for the gatehouse, then. Mission complete. Not bad for a new recruit."
 21: 0x09FE [0x23] WAIT_FOR_DIALOG_INTERACTION

SUBROUTINE_09FF:
 22: 0x09FF [0x45] LOAD_SCHEDULED_TASK: Load scheduler "fdo1" with entities [EventEntity, EventEntity], work=[200*, 0*]
 23: 0x0A10 [0x1C] WAIT(60* ticks)
 24: 0x0A13 [0x5E] EventEntity goes idle (kills current action) (animation: "idl0")
 25: 0x0A18 [0x46] CAMERA_CONTROL: Restore default settings
 26: 0x0A1A [0x45] LOAD_SCHEDULED_TASK: Load scheduler "fdi1" with entities [EventEntity, EventEntity], work=[200*, 0*]
 27: 0x0A2B [0x45] LOAD_SCHEDULED_TASK: Load scheduler "qstc" with entities [LocalPlayer, LocalPlayer], work=[201*, 0*]
 28: 0x0A3C [0x20] SET_CLI_EVENT_UC_FLAG: Unlock player control
 29: 0x0A3E [0x21] END_EVENT
 30: 0x0A3F [0x00] END_REQSTACK()
```

#### Data or dead code:

```
# Dead code (unreachable instructions):
     0x0A40 [0x45] LOAD_SCHEDULED_TASK: Load scheduler "ovl1" with entities [LocalPlayer, LocalPlayer], work=[200*, 0*]
     0x0A51 [0x45] LOAD_SCHEDULED_TASK: Load scheduler "s026" with entities [EventEntity, EventEntity], work=[90*, 0*]
     0x0A62 [0x66] LOAD_EXT_SCHEDULER_MAIN: Load scheduler "tlk0" with entities [EventEntity, EventEntity], work=30*
     0x0A71 [0x02] IF !(Work_Zone[6] == 1*) GOTO 0x0A80
     0x0A79 [0x1D] PRINT_EVENT_MESSAGE(message_id=12624*)
    → "I know you came all this way, but I can't help you right now."
     0x0A7C [0x23] WAIT_FOR_DIALOG_INTERACTION
     0x0A7D [0x01] GOTO 0x0A84
     0x0A80 [0x1D] PRINT_EVENT_MESSAGE(message_id=29*)
    → "Ah, the recruit's back again? I'm sorry, but I've no time for you today."
     0x0A83 [0x23] WAIT_FOR_DIALOG_INTERACTION
     0x0A84 [0x5E] EventEntity goes idle (kills current action) (animation: "idl0")
     0x0A89 [0x1D] PRINT_EVENT_MESSAGE(message_id=30*)
    → "Well, perhaps you can be of some help. Many of our children have disappeared mysteriously, and I've no doubt the Ghelsba Orcs are behind it."
     0x0A8C [0x23] WAIT_FOR_DIALOG_INTERACTION
     0x0A8D [0x52] END_LOAD_SCHEDULER: End scheduler "s026" with entities [EventEntity, EventEntity], work=90*
     0x0A9C [0x45] LOAD_SCHEDULED_TASK: Load scheduler "s076" with entities [EventEntity, EventEntity], work=[90*, 0*]
     0x0AAD [0x66] LOAD_EXT_SCHEDULER_MAIN: Load scheduler "thk1" with entities [EventEntity, EventEntity], work=30*
     0x0ABC [0x1D] PRINT_EVENT_MESSAGE(message_id=31*)
    → "The Royal Knights should be on the job by now, but the two princes are at each other's throats."
     0x0ABF [0x23] WAIT_FOR_DIALOG_INTERACTION
     0x0AC0 [0x1D] PRINT_EVENT_MESSAGE(message_id=32*)
    → "Prince Trion, the eldest, says we should launch a full attack, with all haste."
     0x0AC3 [0x23] WAIT_FOR_DIALOG_INTERACTION
     0x0AC4 [0x1D] PRINT_EVENT_MESSAGE(message_id=33*)
    → "While his younger brother, Prince Pieuje says the safety of the children comes first, and he won't authorize an attack."
     0x0AC7 [0x23] WAIT_FOR_DIALOG_INTERACTION
     0x0AC8 [0x52] END_LOAD_SCHEDULER: End scheduler "s076" with entities [EventEntity, EventEntity], work=90*
     0x0AD7 [0x45] LOAD_SCHEDULED_TASK: Load scheduler "s026" with entities [EventEntity, EventEntity], work=[90*, 0*]
     0x0AE8 [0x1D] PRINT_EVENT_MESSAGE(message_id=34*)
    → "They've been arguing this back and forth for days. The knights' hands are tied, and frankly, nobody knows what to do."
     0x0AEB [0x23] WAIT_FOR_DIALOG_INTERACTION
     0x0AEC [0x66] LOAD_EXT_SCHEDULER_MAIN: Load scheduler "thk2" with entities [EventEntity, EventEntity], work=30*
     0x0AFB [0x53] WAIT_SCHEDULER_TASK: Wait for scheduler "thk2" with entities [EventEntity, EventEntity]
     0x0B08 [0x1C] WAIT(30* ticks)
     0x0B0B [0x52] END_LOAD_SCHEDULER: End scheduler "s026" with entities [EventEntity, EventEntity], work=90*
     0x0B1A [0x45] LOAD_SCHEDULED_TASK: Load scheduler "ovl1" with entities [LocalPlayer, LocalPlayer], work=[200*, 0*]
     0x0B2B [0x45] LOAD_SCHEDULED_TASK: Load scheduler "s019" with entities [LocalPlayer, LocalPlayer], work=[131*, 0*]
     0x0B3C [0x66] LOAD_EXT_SCHEDULER_MAIN: Load scheduler "poi1" with entities [EventEntity, EventEntity], work=30*
     0x0B4B [0x1D] PRINT_EVENT_MESSAGE(message_id=35*)
    → "If you really want to make a name for yourself, go to Ghelsba, and rescue those kidnapped children!"
     0x0B4E [0x23] WAIT_FOR_DIALOG_INTERACTION
     0x0B4F [0x66] LOAD_EXT_SCHEDULER_MAIN: Load scheduler "poi2" with entities [EventEntity, EventEntity], work=30*
     0x0B5E [0x53] WAIT_SCHEDULER_TASK: Wait for scheduler "poi2" with entities [EventEntity, EventEntity]
     0x0B6B [0x1C] WAIT(30* ticks)
     0x0B6E [0x66] LOAD_EXT_SCHEDULER_MAIN: Load scheduler "tlk0" with entities [EventEntity, EventEntity], work=30*
     0x0B7D [0x1D] PRINT_EVENT_MESSAGE(message_id=36*)
    → "What say you? Will you go?"
     0x0B80 [0x23] WAIT_FOR_DIALOG_INTERACTION
     0x0B81 [0x5E] EventEntity goes idle (kills current action) (animation: "idl0")
     0x0B86 [0x24] CREATE_DIALOG(message_id=11*, default_option=0*, option_flags=0*)
    → "Interested? [Tell me more./Never mind.]"
     0x0B8D [0x25] WAIT_DIALOG_SELECT()
     0x0B8E [0x02] IF !(Work_Zone[0] == 0*) GOTO 0x0C99
     0x0B96 [0x45] LOAD_SCHEDULED_TASK: Load scheduler "s105" with entities [EventEntity, EventEntity], work=[90*, 0*]
     0x0BA7 [0x66] LOAD_EXT_SCHEDULER_MAIN: Load scheduler "tlk0" with entities [EventEntity, EventEntity], work=30*
     0x0BB6 [0x1D] PRINT_EVENT_MESSAGE(message_id=37*)
    → "Here's your mission, then. Rescue the two children kidnapped by the Orcs of Ghelsba Outpost."
     0x0BB9 [0x23] WAIT_FOR_DIALOG_INTERACTION
     0x0BBA [0x1D] PRINT_EVENT_MESSAGE(message_id=38*)
    → "Ghelsba Outpost is northwest of West Ronfaure. Take the path before the Westgate, then turn right when the path splits in the forest. You'll find the entrance up in the hills."
     0x0BBD [0x23] WAIT_FOR_DIALOG_INTERACTION
     0x0BBE [0x52] END_LOAD_SCHEDULER: End scheduler "s105" with entities [EventEntity, EventEntity], work=90*
     0x0BCD [0x45] LOAD_SCHEDULED_TASK: Load scheduler "ovl1" with entities [LocalPlayer, LocalPlayer], work=[200*, 0*]
     0x0BDE [0x02] IF !(Work_Zone[9] == 5*) GOTO 0x0BFA
     0x0BE6 [0x45] LOAD_SCHEDULED_TASK: Load scheduler "s106" with entities [EventEntity, EventEntity], work=[90*, 0*]
     0x0BF7 [0x01] GOTO 0x0C27
     0x0BFA [0x02] IF !(Work_Zone[9] == 6*) GOTO 0x0C16
     0x0C02 [0x45] LOAD_SCHEDULED_TASK: Load scheduler "s106" with entities [EventEntity, EventEntity], work=[90*, 0*]
     0x0C13 [0x01] GOTO 0x0C27
     0x0C16 [0x45] LOAD_SCHEDULED_TASK: Load scheduler "s022" with entities [LocalPlayer, LocalPlayer], work=[131*, 0*]
     0x0C27 [0x1D] PRINT_EVENT_MESSAGE(message_id=39*)
    → "If you have trouble finding the way, just follow one of the soldiers on patrol."
     0x0C2A [0x23] WAIT_FOR_DIALOG_INTERACTION
     0x0C2B [0x1D] PRINT_EVENT_MESSAGE(message_id=14*)
    → "That is all. You'll take the mission then?"
     0x0C2E [0x23] WAIT_FOR_DIALOG_INTERACTION
     0x0C2F [0x5E] EventEntity goes idle (kills current action) (animation: "idl0")
     0x0C34 [0x24] CREATE_DIALOG(message_id=15*, default_option=0*, option_flags=0*)
    → "Do you accept the mission? [I accept./Could you explain again?/No, thank you.]"
     0x0C3B [0x25] WAIT_DIALOG_SELECT()
     0x0C3C [0x02] IF !(Work_Zone[0] == 0*) GOTO 0x0C78
     0x0C44 [0x45] LOAD_SCHEDULED_TASK: Load scheduler "s077" with entities [EventEntity, EventEntity], work=[90*, 0*]
     0x0C55 [0x66] LOAD_EXT_SCHEDULER_MAIN: Load scheduler "tlk0" with entities [EventEntity, EventEntity], work=30*
     0x0C64 [0x1D] PRINT_EVENT_MESSAGE(message_id=40*)
    → "Orcs tend to keep their hostages in tents or small huts. Once you're inside the compound, check them first."
     0x0C67 [0x23] WAIT_FOR_DIALOG_INTERACTION
     0x0C68 [0x5E] EventEntity goes idle (kills current action) (animation: "idl0")
     0x0C6D [0x1C] WAIT(30* ticks)
     0x0C70 [0x03] Work_Zone[1] = 2*
     0x0C75 [0x01] GOTO 0x0C96
     0x0C78 [0x02] IF !(Work_Zone[0] == 1*) GOTO 0x0C86
     0x0C80 [0x01] GOTO 0x0B96
     0x0C83 [0x01] GOTO 0x0C96
     0x0C86 [0x02] IF !(Work_Zone[0] == 2*) GOTO 0x0C96
     0x0C8E [0x03] Work_Zone[1] = 1073741824*
     0x0C93 [0x01] GOTO 0x0C96
     0x0C96 [0x01] GOTO 0x0CA9
     0x0C99 [0x02] IF !(Work_Zone[0] == 1*) GOTO 0x0CA9
     0x0CA1 [0x03] Work_Zone[1] = 1073741824*
     0x0CA6 [0x01] GOTO 0x0CA9
     0x0CA9 [0x45] LOAD_SCHEDULED_TASK: Load scheduler "fdo1" with entities [EventEntity, EventEntity], work=[200*, 0*]
     0x0CBA [0x1C] WAIT(60* ticks)
     0x0CBD [0x52] END_LOAD_SCHEDULER: End scheduler "s077" with entities [EventEntity, EventEntity], work=90*
     0x0CCC [0x46] CAMERA_CONTROL: Restore default settings
     0x0CCE [0x45] LOAD_SCHEDULED_TASK: Load scheduler "fdi1" with entities [EventEntity, EventEntity], work=[200*, 0*]
     0x0CDF [0x21] END_EVENT
     0x0CE0 [0x00] END_REQSTACK()
     0x0CE1 [0x29] REQ_SET_WAIT(priority=0x0F, entity_id=Grilau (ID: 17723426/0x010E7022), tag_num=0x38)
     0x0CE8 [0x00] END_REQSTACK()
```

### Event 1004

#### Metadata

| Field        | Value     |
|--------------|-----------|
| Entrypoint   | 0x0CE9    |
| Data Size    | 500 bytes |
| Instructions | 66        |

```
      00 01 02 03 04 05 06 07  08 09 0A 0B 0C 0D 0E 0F
      -- -- -- -- -- -- -- --  -- -- -- -- -- -- -- --
0CE0:                             42 46 01 45 02 80 F8           BF.E...
0CF0: FF FF 7F F8 FF FF 7F 66  64 6F 31 03 80 1C 04 80  .......fdo1.....
0D00: 38 05 80 29 64 F0 FF FF  7F 25 29 08 F0 FF FF 7F  8..)d....%).....
0D10: 35 45 06 80 F8 FF FF 7F  F8 FF FF 7F 73 30 37 36  5E..........s076
0D20: 03 80 45 02 80 F8 FF FF  7F F8 FF FF 7F 66 64 69  ..E..........fdi
0D30: 31 03 80 66 00 80 F8 FF  FF 7F F8 FF FF 7F 74 6C  1..f..........tl
0D40: 6B 30 1D 34 80 23 5E 69  64 6C 30 1D 35 80 23 52  k0.4.#^idl0.5.#R
0D50: 06 80 F8 FF FF 7F F8 FF  FF 7F 73 30 37 36 45 02  ..........s076E.
0D60: 80 F0 FF FF 7F F0 FF FF  7F 6F 76 6C 31 03 80 02  .........ovl1...
0D70: 09 10 10 80 00 8B 0D 45  06 80 F8 FF FF 7F F8 FF  .......E........
0D80: FF 7F 73 31 30 36 03 80  01 B8 0D 02 09 10 11 80  ..s106..........
0D90: 00 A7 0D 45 06 80 F8 FF  FF 7F F8 FF FF 7F 73 31  ...E..........s1
0DA0: 30 36 03 80 01 B8 0D 45  08 80 F0 FF FF 7F F0 FF  06.....E........
0DB0: FF 7F 73 30 32 32 03 80  1D 36 80 23 7D 2B 80 45  ..s022...6.#}+.E
0DC0: 1A 80 F0 FF FF 7F F0 FF  FF 7F 71 73 74 63 03 80  ..........qstc..
0DD0: 1C 02 80 45 06 80 F8 FF  FF 7F F8 FF FF 7F 73 30  ...E..........s0
0DE0: 37 37 03 80 66 00 80 F8  FF FF 7F F8 FF FF 7F 74  77..f..........t
0DF0: 6C 6B 30 1D 37 80 23 03  02 10 2E 80 1D 38 80 23  lk0.7.#......8.#
0E00: 52 06 80 F8 FF FF 7F F8  FF FF 7F 73 30 37 37 45  R..........s077E
0E10: 06 80 F8 FF FF 7F F8 FF  FF 7F 73 30 32 36 03 80  ..........s026..
0E20: 1D 39 80 23 1D 3A 80 23  52 06 80 F8 FF FF 7F F8  .9.#.:.#R.......
0E30: FF FF 7F 73 30 32 36 5E  69 64 6C 30 45 06 80 F8  ...s026^idl0E...
0E40: FF FF 7F F8 FF FF 7F 73  30 38 36 03 80 1C 00 80  .......s086.....
0E50: 66 00 80 F8 FF FF 7F F8  FF FF 7F 74 6C 6B 30 1D  f..........tlk0.
0E60: 3B 80 23 1D 3C 80 23 52  06 80 F8 FF FF 7F F8 FF  ;.#.<.#R........
0E70: FF 7F 73 30 38 36 45 02  80 F0 FF FF 7F F0 FF FF  ..s086E.........
0E80: 7F 6F 76 6C 31 03 80 45  06 80 F8 FF FF 7F F8 FF  .ovl1..E........
0E90: FF 7F 73 30 32 36 03 80  1D 3D 80 23 1D 3E 80 23  ..s026...=.#.>.#
0EA0: 45 02 80 F8 FF FF 7F F8  FF FF 7F 66 64 6F 31 03  E..........fdo1.
0EB0: 80 1C 04 80 52 06 80 F8  FF FF 7F F8 FF FF 7F 73  ....R..........s
0EC0: 30 32 36 5E 69 64 6C 30  46 00 45 02 80 F8 FF FF  026^idl0F.E.....
0ED0: 7F F8 FF FF 7F 66 64 69  31 03 80 21 00           .....fdi1..!.   
```

#### Opcodes

```
  0: 0x0CE9 [0x42] SET_CLI_EVENT_CANCEL_DATA()
  1: 0x0CEA [0x46] CAMERA_CONTROL: Disable user control
  2: 0x0CEC [0x45] LOAD_SCHEDULED_TASK: Load scheduler "fdo1" with entities [EventEntity, EventEntity], work=[200*, 0*]
  3: 0x0CFD [0x1C] WAIT(60* ticks)
  4: 0x0D00 [0x38] SET_CLIENT_EVENT_MODE(mode=3*)
  5: 0x0D03 [0x29] REQ_SET_WAIT(priority=0x64, entity_id=LocalPlayer, tag_num=0x25)
  6: 0x0D0A [0x29] REQ_SET_WAIT(priority=0x08, entity_id=LocalPlayer, tag_num=0x35)
  7: 0x0D11 [0x45] LOAD_SCHEDULED_TASK: Load scheduler "s076" with entities [EventEntity, EventEntity], work=[90*, 0*]
  8: 0x0D22 [0x45] LOAD_SCHEDULED_TASK: Load scheduler "fdi1" with entities [EventEntity, EventEntity], work=[200*, 0*]
  9: 0x0D33 [0x66] LOAD_EXT_SCHEDULER_MAIN: Load scheduler "tlk0" with entities [EventEntity, EventEntity], work=30*
 10: 0x0D42 [0x1D] PRINT_EVENT_MESSAGE(message_id=41*)
    → "Ah, you've returned! You were gone so long, I feared a warmachine had got you!"
 11: 0x0D45 [0x23] WAIT_FOR_DIALOG_INTERACTION
 12: 0x0D46 [0x5E] EventEntity goes idle (kills current action) (animation: "idl0")
 13: 0x0D4B [0x1D] PRINT_EVENT_MESSAGE(message_id=42*)
    → "At any rate, mission complete! And to reward your accomplishment..."
 14: 0x0D4E [0x23] WAIT_FOR_DIALOG_INTERACTION
 15: 0x0D4F [0x52] END_LOAD_SCHEDULER: End scheduler "s076" with entities [EventEntity, EventEntity], work=90*
 16: 0x0D5E [0x45] LOAD_SCHEDULED_TASK: Load scheduler "ovl1" with entities [LocalPlayer, LocalPlayer], work=[200*, 0*]
 17: 0x0D6F [0x02] IF !(Work_Zone[9] == 5*) GOTO 0x0D8B
 18: 0x0D77 [0x45] LOAD_SCHEDULED_TASK: Load scheduler "s106" with entities [EventEntity, EventEntity], work=[90*, 0*]
 19: 0x0D88 [0x01] GOTO 0x0DB8
 20: 0x0D8B [0x02] IF !(Work_Zone[9] == 6*) GOTO 0x0DA7
 21: 0x0D93 [0x45] LOAD_SCHEDULED_TASK: Load scheduler "s106" with entities [EventEntity, EventEntity], work=[90*, 0*]
 22: 0x0DA4 [0x01] GOTO 0x0DB8
 23: 0x0DA7 [0x45] LOAD_SCHEDULED_TASK: Load scheduler "s022" with entities [LocalPlayer, LocalPlayer], work=[131*, 0*]

SUBROUTINE_0DB8:
 24: 0x0DB8 [0x1D] PRINT_EVENT_MESSAGE(message_id=43*)
    → "I hereby recognize you, <Player>, as a certified adventurer of San d'Oria! You're now mission rank two, as well."
 25: 0x0DBB [0x23] WAIT_FOR_DIALOG_INTERACTION
 26: 0x0DBC [0x7D] LOAD_START_SCHEDULER_PLAYER: Load scheduler with animation_id 32811
 27: 0x0DBF [0x45] LOAD_SCHEDULED_TASK: Load scheduler "qstc" with entities [LocalPlayer, LocalPlayer], work=[201*, 0*]
 28: 0x0DD0 [0x1C] WAIT(200* ticks)
 29: 0x0DD3 [0x45] LOAD_SCHEDULED_TASK: Load scheduler "s077" with entities [EventEntity, EventEntity], work=[90*, 0*]
 30: 0x0DE4 [0x66] LOAD_EXT_SCHEDULER_MAIN: Load scheduler "tlk0" with entities [EventEntity, EventEntity], work=30*
 31: 0x0DF3 [0x1D] PRINT_EVENT_MESSAGE(message_id=44*)
    → "But don't get too excited. Your title is valid only here in San d'Oria, understand?"
 32: 0x0DF6 [0x23] WAIT_FOR_DIALOG_INTERACTION
 33: 0x0DF7 [0x03] Work_Zone[2] = 35*
 34: 0x0DFC [0x1D] PRINT_EVENT_MESSAGE(message_id=45*)
    → "In order to become a true adventurer, and bear $6, you must be recognized by Bastok and Windurst as well."
 35: 0x0DFF [0x23] WAIT_FOR_DIALOG_INTERACTION
 36: 0x0E00 [0x52] END_LOAD_SCHEDULER: End scheduler "s077" with entities [EventEntity, EventEntity], work=90*
 37: 0x0E0F [0x45] LOAD_SCHEDULED_TASK: Load scheduler "s026" with entities [EventEntity, EventEntity], work=[90*, 0*]
 38: 0x0E20 [0x1D] PRINT_EVENT_MESSAGE(message_id=46*)
    → "'Tis a treaty between the three lands, and its word is law. I know it's hard, but those are the rules."
 39: 0x0E23 [0x23] WAIT_FOR_DIALOG_INTERACTION
 40: 0x0E24 [0x1D] PRINT_EVENT_MESSAGE(message_id=47*)
    → "For now, cut your adventuring teeth in the areas near here. Sooner or later you'll find your way into other lands."
 41: 0x0E27 [0x23] WAIT_FOR_DIALOG_INTERACTION
 42: 0x0E28 [0x52] END_LOAD_SCHEDULER: End scheduler "s026" with entities [EventEntity, EventEntity], work=90*
 43: 0x0E37 [0x5E] EventEntity goes idle (kills current action) (animation: "idl0")
 44: 0x0E3C [0x45] LOAD_SCHEDULED_TASK: Load scheduler "s086" with entities [EventEntity, EventEntity], work=[90*, 0*]
 45: 0x0E4D [0x1C] WAIT(30* ticks)
 46: 0x0E50 [0x66] LOAD_EXT_SCHEDULER_MAIN: Load scheduler "tlk0" with entities [EventEntity, EventEntity], work=30*
 47: 0x0E5F [0x1D] PRINT_EVENT_MESSAGE(message_id=11654*)
    → "I'll admit, you're one of my favorite recruits, so I've always had new missions for you. But I'm responsible for other adventurers, too!"
 48: 0x0E62 [0x23] WAIT_FOR_DIALOG_INTERACTION
 49: 0x0E63 [0x1D] PRINT_EVENT_MESSAGE(message_id=11655*)
    → "Henceforth I will check your rank points to determine whether you're ready for the next mission."
 50: 0x0E66 [0x23] WAIT_FOR_DIALOG_INTERACTION
 51: 0x0E67 [0x52] END_LOAD_SCHEDULER: End scheduler "s086" with entities [EventEntity, EventEntity], work=90*
 52: 0x0E76 [0x45] LOAD_SCHEDULED_TASK: Load scheduler "ovl1" with entities [LocalPlayer, LocalPlayer], work=[200*, 0*]
 53: 0x0E87 [0x45] LOAD_SCHEDULED_TASK: Load scheduler "s026" with entities [EventEntity, EventEntity], work=[90*, 0*]
 54: 0x0E98 [0x1D] PRINT_EVENT_MESSAGE(message_id=11656*)
    → "The best way to earn rank points is to join the conquest and thereby obtain crystals."
 55: 0x0E9B [0x23] WAIT_FOR_DIALOG_INTERACTION
 56: 0x0E9C [0x1D] PRINT_EVENT_MESSAGE(message_id=11657*)
    → "If you want to know more about the conquest, ask the lord knight at any gatehouse."
 57: 0x0E9F [0x23] WAIT_FOR_DIALOG_INTERACTION
 58: 0x0EA0 [0x45] LOAD_SCHEDULED_TASK: Load scheduler "fdo1" with entities [EventEntity, EventEntity], work=[200*, 0*]
 59: 0x0EB1 [0x1C] WAIT(60* ticks)
 60: 0x0EB4 [0x52] END_LOAD_SCHEDULER: End scheduler "s026" with entities [EventEntity, EventEntity], work=90*
 61: 0x0EC3 [0x5E] EventEntity goes idle (kills current action) (animation: "idl0")
 62: 0x0EC8 [0x46] CAMERA_CONTROL: Restore default settings
 63: 0x0ECA [0x45] LOAD_SCHEDULED_TASK: Load scheduler "fdi1" with entities [EventEntity, EventEntity], work=[200*, 0*]
 64: 0x0EDB [0x21] END_EVENT
 65: 0x0EDC [0x00] END_REQSTACK()
```

### Event 1024

#### Metadata

| Field        | Value     |
|--------------|-----------|
| Entrypoint   | 0x0EDD    |
| Data Size    | 607 bytes |
| Instructions | 28        |

```
      00 01 02 03 04 05 06 07  08 09 0A 0B 0C 0D 0E 0F
