# 17723419 - Morjean

## Common Data

| Field            | Value                         |
|------------------|-------------------------------|
| Zone             | Northern San d'Oria (ID: 231) |
| Block Size       | 208 bytes                     |
| Total Events     | 6                             |
| References Count | 14                            |

## List of Events

| Event ID                 | Entrypoint   |   Size |   Instructions |
|--------------------------|--------------|--------|----------------|
| [65535](#event-65535)    | 0x0000       |      1 |              1 |
| [601](#event-601)        | 0x0001       |      9 |              5 |
| [602](#event-602)        | 0x000A       |     40 |             16 |
| [65535.1](#event-655351) | 0x0032       |     58 |             18 |
| [65](#event-65)          | 0x006C       |      1 |              1 |
| [62](#event-62)          | 0x006D       |      1 |              1 |

## DAT References (imed_data)

|   Index | Hex Value   |   Dec Value |
|---------|-------------|-------------|
|       0 | 0x2D1A      |       11546 |
|       1 | 0x001E      |          30 |
|       2 | 0x008D      |         141 |
|       3 | 0x2D1B      |       11547 |
|       4 | 0x2D1C      |       11548 |
|       5 | 0x2D1D      |       11549 |
|       6 | 0x2D1E      |       11550 |
|       7 | 0xFFFFD649  |  4294956617 |
|       8 | 0x1F46      |        8006 |
|       9 | 0xFFFFFF39  |  4294967097 |
|      10 | 0x0F14      |        3860 |
|      11 | 0x003C      |          60 |
|      12 | 0x0E4C      |        3660 |
|      13 | 0x0FDC      |        4060 |

## String References

- **11546**: Ah, good day. I am Morjean, a researcher here studying the rich past of our kingdom.
- **11547**: 6?
- **11548**: I'm not entirely certain, but perhaps I have heard a story about this thing you seek.
- **11549**: In order to get $6, your hands must not be dry... I'm sure that's what I read. But it was so many years ago...
- **11550**: That's all I know... I do hope it will be of some use to you.

## Events

### Event 65535

#### Metadata

| Field        | Value   |
|--------------|---------|
| Entrypoint   | 0x0000  |
| Data Size    | 1 bytes |
| Instructions | 1       |

```
      00 01 02 03 04 05 06 07  08 09 0A 0B 0C 0D 0E 0F
      -- -- -- -- -- -- -- --  -- -- -- -- -- -- -- --
0000: 00                                                .               
```

#### Opcodes

```
  0: 0x0000 [0x00] END_REQSTACK()
```

### Event 601

#### Metadata

| Field        | Value   |
|--------------|---------|
| Entrypoint   | 0x0001  |
| Data Size    | 9 bytes |
| Instructions | 5       |

```
      00 01 02 03 04 05 06 07  08 09 0A 0B 0C 0D 0E 0F
      -- -- -- -- -- -- -- --  -- -- -- -- -- -- -- --
0000:    1D 00 80 23 1C 01 80  21 00                     ...#...!.      
```

#### Opcodes

```
  0: 0x0001 [0x1D] PRINT_EVENT_MESSAGE(message_id=11546*)
    → "Ah, good day. I am Morjean, a researcher here studying the rich past of our kingdom."
  1: 0x0004 [0x23] WAIT_FOR_DIALOG_INTERACTION
  2: 0x0005 [0x1C] WAIT(30* ticks)
  3: 0x0008 [0x21] END_EVENT
  4: 0x0009 [0x00] END_REQSTACK()
```

### Event 602

#### Metadata

| Field        | Value    |
|--------------|----------|
| Entrypoint   | 0x000A   |
| Data Size    | 40 bytes |
| Instructions | 16       |

```
      00 01 02 03 04 05 06 07  08 09 0A 0B 0C 0D 0E 0F
      -- -- -- -- -- -- -- --  -- -- -- -- -- -- -- --
0000:                                03 02 10 02 80 1D            ......
0010: 03 80 23 1C 01 80 1D 04  80 23 1C 01 80 03 02 10  ..#......#......
0020: 02 80 1D 05 80 23 1C 01  80 1D 06 80 23 1C 01 80  .....#......#...
0030: 21 00                                             !.              
```

#### Opcodes

```
  0: 0x000A [0x03] Work_Zone[2] = 141*
  1: 0x000F [0x1D] PRINT_EVENT_MESSAGE(message_id=11547*)
    → "6?"
  2: 0x0012 [0x23] WAIT_FOR_DIALOG_INTERACTION
  3: 0x0013 [0x1C] WAIT(30* ticks)
  4: 0x0016 [0x1D] PRINT_EVENT_MESSAGE(message_id=11548*)
    → "I'm not entirely certain, but perhaps I have heard a story about this thing you seek."
  5: 0x0019 [0x23] WAIT_FOR_DIALOG_INTERACTION
  6: 0x001A [0x1C] WAIT(30* ticks)
  7: 0x001D [0x03] Work_Zone[2] = 141*
  8: 0x0022 [0x1D] PRINT_EVENT_MESSAGE(message_id=11549*)
    → "In order to get $6, your hands must not be dry... I'm sure that's what I read. But it was so many years ago..."
  9: 0x0025 [0x23] WAIT_FOR_DIALOG_INTERACTION
 10: 0x0026 [0x1C] WAIT(30* ticks)
 11: 0x0029 [0x1D] PRINT_EVENT_MESSAGE(message_id=11550*)
    → "That's all I know... I do hope it will be of some use to you."
 12: 0x002C [0x23] WAIT_FOR_DIALOG_INTERACTION
 13: 0x002D [0x1C] WAIT(30* ticks)
 14: 0x0030 [0x21] END_EVENT
 15: 0x0031 [0x00] END_REQSTACK()
```

### Event 65535.1

#### Metadata

| Field        | Value    |
|--------------|----------|
| Entrypoint   | 0x0032   |
| Data Size    | 58 bytes |
| Instructions | 18       |

```
      00 01 02 03 04 05 06 07  08 09 0A 0B 0C 0D 0E 0F
      -- -- -- -- -- -- -- --  -- -- -- -- -- -- -- --
0030:       37 07 80 08 80 09  80 0A 80 1C 0B 80 39 0C    7...........9.
0040: 80 1C 01 80 39 0A 80 1C  0B 80 39 0D 80 1C 01 80  ....9.....9.....
0050: 39 0A 80 1C 0B 80 39 0C  80 1C 01 80 39 0A 80 1C  9.....9.....9...
0060: 0B 80 39 0D 80 1C 01 80  39 0A 80 00              ..9.....9...    
```

#### Opcodes

```
  0: 0x0032 [0x37] UPDATE_EVENT_POSITION_AND_DIR: x=-10.679*, z=8.006*, y=-0.199*, direction=339.2°*
  1: 0x003B [0x1C] WAIT(60* ticks)
  2: 0x003E [0x39] SET_ENTITY_DIRECTION(direction=20.1°*)
  3: 0x0041 [0x1C] WAIT(30* ticks)
  4: 0x0044 [0x39] SET_ENTITY_DIRECTION(direction=21.2°*)
  5: 0x0047 [0x1C] WAIT(60* ticks)
  6: 0x004A [0x39] SET_ENTITY_DIRECTION(direction=22.3°*)
  7: 0x004D [0x1C] WAIT(30* ticks)
  8: 0x0050 [0x39] SET_ENTITY_DIRECTION(direction=21.2°*)
  9: 0x0053 [0x1C] WAIT(60* ticks)
 10: 0x0056 [0x39] SET_ENTITY_DIRECTION(direction=20.1°*)
 11: 0x0059 [0x1C] WAIT(30* ticks)
 12: 0x005C [0x39] SET_ENTITY_DIRECTION(direction=21.2°*)
 13: 0x005F [0x1C] WAIT(60* ticks)
 14: 0x0062 [0x39] SET_ENTITY_DIRECTION(direction=22.3°*)
 15: 0x0065 [0x1C] WAIT(30* ticks)
 16: 0x0068 [0x39] SET_ENTITY_DIRECTION(direction=21.2°*)
 17: 0x006B [0x00] END_REQSTACK()
```

### Event 65

#### Metadata

| Field        | Value   |
|--------------|---------|
| Entrypoint   | 0x006C  |
| Data Size    | 1 bytes |
| Instructions | 1       |

```
      00 01 02 03 04 05 06 07  08 09 0A 0B 0C 0D 0E 0F
      -- -- -- -- -- -- -- --  -- -- -- -- -- -- -- --
0060:                                      00                       .   
```

#### Opcodes

```
  0: 0x006C [0x00] END_REQSTACK()
```

### Event 62

#### Metadata

| Field        | Value   |
|--------------|---------|
| Entrypoint   | 0x006D  |
| Data Size    | 1 bytes |
| Instructions | 1       |

```
      00 01 02 03 04 05 06 07  08 09 0A 0B 0C 0D 0E 0F
      -- -- -- -- -- -- -- --  -- -- -- -- -- -- -- --
0060:                                         00                     .  
```

#### Opcodes

```
  0: 0x006D [0x00] END_REQSTACK()
```
