# 17723578

## Common Data

| Field            | Value                         |
|------------------|-------------------------------|
| Zone             | Northern San d'Oria (ID: 231) |
| Block Size       | 444 bytes                     |
| Total Events     | 13                            |
| References Count | 37                            |

## List of Events

| Event ID                 | Entrypoint   |   Size |   Instructions |
|--------------------------|--------------|--------|----------------|
| [65535](#event-65535)    | 0x0000       |      1 |              1 |
| [1](#event-1)            | 0x0001       |     28 |              5 |
| [65535.1](#event-655351) | 0x001D       |     29 |              3 |
| [65535.2](#event-655352) | 0x003A       |     29 |              3 |
| [65535.3](#event-655353) | 0x0057       |     12 |              3 |
| [0](#event-0)            | 0x0063       |     13 |              3 |
| [65535.4](#event-655354) | 0x0070       |     13 |              3 |
| [65535.5](#event-655355) | 0x007D       |     20 |              4 |
| [16](#event-16)          | 0x0091       |     13 |              3 |
| [65535.6](#event-655356) | 0x009E       |     13 |              3 |
| [65535.7](#event-655357) | 0x00AB       |     10 |              2 |
| [65535.8](#event-655358) | 0x00B5       |     20 |              6 |
| [65535.9](#event-655359) | 0x00C9       |     26 |              7 |

## DAT References (imed_data)

|   Index | Hex Value   |   Dec Value |
|---------|-------------|-------------|
|       0 | 0x1B189     |      110985 |
|       1 | 0x19927     |      104743 |
|       2 | 0x0000      |           0 |
|       3 | 0x0262      |         610 |
|       4 | 0x0018      |          24 |
|       5 | 0x210D2     |      135378 |
|       6 | 0x21894     |      137364 |
|       7 | 0xFFFFDF32  |  4294958898 |
|       8 | 0x0248      |         584 |
|       9 | 0x03E8      |        1000 |
|      10 | 0xFFFFC6A5  |  4294952613 |
|      11 | 0x0C0F      |        3087 |
|      12 | 0x000D      |          13 |
|      13 | 0x33C7      |       13255 |
|      14 | 0x050A      |        1290 |
|      15 | 0x15D22     |       89378 |
|      16 | 0x1EB76     |      125814 |
|      17 | 0xFFFFF830  |  4294965296 |
|      18 | 0x1F6CA     |      128714 |
|      19 | 0x1DC90     |      122000 |
|      20 | 0x05DE      |        1502 |
|      21 | 0x000A      |          10 |
|      22 | 0x1AC30     |      109616 |
|      23 | 0x1927E     |      103038 |
|      24 | 0x04B0      |        1200 |
|      25 | 0x18AB4     |      101044 |
|      26 | 0x17014     |       94228 |
|      27 | 0x06D5      |        1749 |
|      28 | 0x062B      |        1579 |
|      29 | 0x0050      |          80 |
|      30 | 0x17D85     |       97669 |
|      31 | 0x1635D     |       90973 |
|      32 | 0x002D      |          45 |
|      33 | 0x1760F     |       95759 |
|      34 | 0x1643A     |       91194 |
|      35 | 0xF9D0      |       63952 |
|      36 | 0xE25D      |       57949 |

## Events

### Event 65535

#### Metadata

| Field        | Value   |
|--------------|---------|
| Entrypoint   | 0x0000  |
| Data Size    | 1 bytes |
| Instructions | 1       |

```
      00 01 02 03 04 05 06 07  08 09 0A 0B 0C 0D 0E 0F
      -- -- -- -- -- -- -- --  -- -- -- -- -- -- -- --
0000: 00                                                .               
```

#### Opcodes

```
  0: 0x0000 [0x00] END_REQSTACK()
```

### Event 1

#### Metadata

| Field        | Value    |
|--------------|----------|
| Entrypoint   | 0x0001   |
| Data Size    | 28 bytes |
| Instructions | 5        |

```
      00 01 02 03 04 05 06 07  08 09 0A 0B 0C 0D 0E 0F
      -- -- -- -- -- -- -- --  -- -- -- -- -- -- -- --
0000:    33 01 92 01 F8 FF FF  7F 79 00 F8 FF FF 7F F0   3.......y......
0010: FF FF 7F 37 00 80 01 80  02 80 03 80 00           ...7.........   
```

#### Opcodes

```
  0: 0x0001 [0x33] EventEntity->Render.Flags0 |= 0x200000 // Bit 21 (flag=0x01)
  1: 0x0003 [0x92] EventEntity->Render.Flags3 ^= 0x01
  2: 0x0009 [0x79] EventEntity looks at LocalPlayer (Basic look)
  3: 0x0013 [0x37] UPDATE_EVENT_POSITION_AND_DIR: x=110.985*, z=104.743*, y=0.000*, direction=53.6°*
  4: 0x001C [0x00] END_REQSTACK()
```

### Event 65535.1

#### Metadata

| Field        | Value    |
|--------------|----------|
| Entrypoint   | 0x001D   |
| Data Size    | 29 bytes |
| Instructions | 3        |

```
      00 01 02 03 04 05 06 07  08 09 0A 0B 0C 0D 0E 0F
      -- -- -- -- -- -- -- --  -- -- -- -- -- -- -- --
0010:                                         66 04 80               f..
0020: F8 FF FF 7F F8 FF FF 7F  31 72 64 79 53 F8 FF FF  ........1rdyS...
0030: 7F F8 FF FF 7F 31 72 64  79 00                    .....1rdy.      
```

#### Opcodes

```
  0: 0x001D [0x66] LOAD_EXT_SCHEDULER_MAIN: Load scheduler "1rdy" with entities [EventEntity, EventEntity], work=24*
  1: 0x002C [0x53] WAIT_SCHEDULER_TASK: Wait for scheduler "1rdy" with entities [EventEntity, EventEntity]
  2: 0x0039 [0x00] END_REQSTACK()
```

### Event 65535.2

#### Metadata

| Field        | Value    |
|--------------|----------|
| Entrypoint   | 0x003A   |
| Data Size    | 29 bytes |
| Instructions | 3        |

```
      00 01 02 03 04 05 06 07  08 09 0A 0B 0C 0D 0E 0F
      -- -- -- -- -- -- -- --  -- -- -- -- -- -- -- --
0030:                                66 04 80 F8 FF FF            f.....
0040: 7F F8 FF FF 7F 31 72 74  6E 53 F8 FF FF 7F F8 FF  .....1rtnS......
0050: FF 7F 31 72 74 6E 00                              ..1rtn.         
```

#### Opcodes

```
  0: 0x003A [0x66] LOAD_EXT_SCHEDULER_MAIN: Load scheduler "1rtn" with entities [EventEntity, EventEntity], work=24*
  1: 0x0049 [0x53] WAIT_SCHEDULER_TASK: Wait for scheduler "1rtn" with entities [EventEntity, EventEntity]
  2: 0x0056 [0x00] END_REQSTACK()
```

### Event 65535.3

#### Metadata

| Field        | Value    |
|--------------|----------|
| Entrypoint   | 0x0057   |
| Data Size    | 12 bytes |
| Instructions | 3        |

```
      00 01 02 03 04 05 06 07  08 09 0A 0B 0C 0D 0E 0F
      -- -- -- -- -- -- -- --  -- -- -- -- -- -- -- --
0050:                      33  01 37 05 80 06 80 07 80         3.7......
0060: 08 80 00                                          ...             
```

#### Opcodes

```
  0: 0x0057 [0x33] EventEntity->Render.Flags0 |= 0x200000 // Bit 21 (flag=0x01)
  1: 0x0059 [0x37] UPDATE_EVENT_POSITION_AND_DIR: x=135.378*, z=137.364*, y=-8.398*, direction=51.3°*
  2: 0x0062 [0x00] END_REQSTACK()
```

### Event 0

#### Metadata

| Field        | Value    |
|--------------|----------|
| Entrypoint   | 0x0063   |
| Data Size    | 13 bytes |
| Instructions | 3        |

```
      00 01 02 03 04 05 06 07  08 09 0A 0B 0C 0D 0E 0F
      -- -- -- -- -- -- -- --  -- -- -- -- -- -- -- --
0060:          37 09 80 0A 80  02 80 0B 80 32 0C 80 00     7........2...
```

#### Opcodes

```
  0: 0x0063 [0x37] UPDATE_EVENT_POSITION_AND_DIR: x=1.000*, z=-14.683*, y=0.000*, direction=271.3°*
  1: 0x006C [0x32] ExtData[1]->MainSpeed = 13* * 0.1
  2: 0x006F [0x00] END_REQSTACK()
```

### Event 65535.4

#### Metadata

| Field        | Value    |
|--------------|----------|
| Entrypoint   | 0x0070   |
| Data Size    | 13 bytes |
| Instructions | 3        |

```
      00 01 02 03 04 05 06 07  08 09 0A 0B 0C 0D 0E 0F
      -- -- -- -- -- -- -- --  -- -- -- -- -- -- -- --
0070: 31 00 09 80 0D 80 02 80  0E 80 31 01 00           1.........1..   
```

#### Opcodes

```
  0: 0x0070 [0x31] UPDATE_ENTITY_POSITION: Set EventEntity goal position to X=1.000*, Z=13.255*, Y=0.000*, Time=1290*
  1: 0x007A [0x31] UPDATE_ENTITY_POSITION: Move EventEntity towards goal position
  2: 0x007C [0x00] END_REQSTACK()
```

### Event 65535.5

#### Metadata

| Field        | Value    |
|--------------|----------|
| Entrypoint   | 0x007D   |
| Data Size    | 20 bytes |
| Instructions | 4        |

```
      00 01 02 03 04 05 06 07  08 09 0A 0B 0C 0D 0E 0F
      -- -- -- -- -- -- -- --  -- -- -- -- -- -- -- --
0070:                                         37 09 80               7..
0080: 0F 80 02 80 0B 80 1F 00  09 80 10 80 11 80 1F 01  ................
0090: 00                                                .               
```

#### Opcodes

```
  0: 0x007D [0x37] UPDATE_EVENT_POSITION_AND_DIR: x=1.000*, z=89.378*, y=0.000*, direction=271.3°*
  1: 0x0086 [0x1F] MOVE_ENTITY: EventEntity moves to X=1.000*, Z=125.814*, Y=-2.000*
  2: 0x008E [0x1F] MOVE_ENTITY: Update entity position (mode=1)
  3: 0x0090 [0x00] END_REQSTACK()
```

### Event 16

#### Metadata

| Field        | Value    |
|--------------|----------|
| Entrypoint   | 0x0091   |
| Data Size    | 13 bytes |
| Instructions | 3        |

```
      00 01 02 03 04 05 06 07  08 09 0A 0B 0C 0D 0E 0F
      -- -- -- -- -- -- -- --  -- -- -- -- -- -- -- --
0090:    37 12 80 13 80 02 80  14 80 32 15 80 00         7........2...  
```

#### Opcodes

```
  0: 0x0091 [0x37] UPDATE_EVENT_POSITION_AND_DIR: x=128.714*, z=122.000*, y=0.000*, direction=132.0°*
  1: 0x009A [0x32] ExtData[1]->MainSpeed = 10* * 0.1
  2: 0x009D [0x00] END_REQSTACK()
```

### Event 65535.6

#### Metadata

| Field        | Value    |
|--------------|----------|
| Entrypoint   | 0x009E   |
| Data Size    | 13 bytes |
| Instructions | 3        |

```
      00 01 02 03 04 05 06 07  08 09 0A 0B 0C 0D 0E 0F
      -- -- -- -- -- -- -- --  -- -- -- -- -- -- -- --
0090:                                            31 00                1.
00A0: 16 80 17 80 02 80 18 80  31 01 00                 ........1..     
```

#### Opcodes

```
  0: 0x009E [0x31] UPDATE_ENTITY_POSITION: Set EventEntity goal position to X=109.616*, Z=103.038*, Y=0.000*, Time=1200*
  1: 0x00A8 [0x31] UPDATE_ENTITY_POSITION: Move EventEntity towards goal position
  2: 0x00AA [0x00] END_REQSTACK()
```

### Event 65535.7

#### Metadata

| Field        | Value    |
|--------------|----------|
| Entrypoint   | 0x00AB   |
| Data Size    | 10 bytes |
| Instructions | 2        |

```
      00 01 02 03 04 05 06 07  08 09 0A 0B 0C 0D 0E 0F
      -- -- -- -- -- -- -- --  -- -- -- -- -- -- -- --
00A0:                                   37 19 80 1A 80             7....
00B0: 1B 80 1C 80 00                                    .....           
```

#### Opcodes

```
  0: 0x00AB [0x37] UPDATE_EVENT_POSITION_AND_DIR: x=101.044*, z=94.228*, y=1.749*, direction=138.8°*
  1: 0x00B4 [0x00] END_REQSTACK()
```

### Event 65535.8

#### Metadata

| Field        | Value    |
|--------------|----------|
| Entrypoint   | 0x00B5   |
| Data Size    | 20 bytes |
| Instructions | 6        |

```
      00 01 02 03 04 05 06 07  08 09 0A 0B 0C 0D 0E 0F
      -- -- -- -- -- -- -- --  -- -- -- -- -- -- -- --
00B0:                1C 1D 80  1F 00 1E 80 1F 80 1B 80       ...........
00C0: 1F 01 6F 1E C5 70 0E 01  00                       ..o..p...       
```

#### Opcodes

```
  0: 0x00B5 [0x1C] WAIT(80* ticks)
  1: 0x00B8 [0x1F] MOVE_ENTITY: EventEntity moves to X=97.669*, Z=90.973*, Y=1.749*
  2: 0x00C0 [0x1F] MOVE_ENTITY: Update entity position (mode=1)
  3: 0x00C2 [0x6F] WAIT_FRAME_DELAY: Yield until WaitTime reaches zero
  4: 0x00C3 [0x1E] EventEntity looks at Rochefogne (ID: 17723589/0x010E70C5) and starts talking
  5: 0x00C8 [0x00] END_REQSTACK()
```

### Event 65535.9

#### Metadata

| Field        | Value    |
|--------------|----------|
| Entrypoint   | 0x00C9   |
| Data Size    | 26 bytes |
| Instructions | 7        |

```
      00 01 02 03 04 05 06 07  08 09 0A 0B 0C 0D 0E 0F
      -- -- -- -- -- -- -- --  -- -- -- -- -- -- -- --
00C0:                             32 20 80 1F 00 21 80           2 ...!.
00D0: 22 80 1B 80 1F 01 1F 00  23 80 24 80 02 80 1F 01  ".......#.$.....
00E0: 22 01 00                                          "..             
```

#### Opcodes

```
  0: 0x00C9 [0x32] ExtData[1]->MainSpeed = 45* * 0.1
  1: 0x00CC [0x1F] MOVE_ENTITY: EventEntity moves to X=95.759*, Z=91.194*, Y=1.749*
  2: 0x00D4 [0x1F] MOVE_ENTITY: Update entity position (mode=1)
  3: 0x00D6 [0x1F] MOVE_ENTITY: EventEntity moves to X=63.952*, Z=57.949*, Y=0.000*
  4: 0x00DE [0x1F] MOVE_ENTITY: Update entity position (mode=1)
  5: 0x00E0 [0x22] ENTITY_HIDE_FLAG(enabled=0x01)
  6: 0x00E2 [0x00] END_REQSTACK()
```
