# 17723836

## Common Data

| Field            | Value                         |
|------------------|-------------------------------|
| Zone             | Northern San d'Oria (ID: 231) |
| Block Size       | 112 bytes                     |
| Total Events     | 4                             |
| References Count | 1                             |

## List of Events

| Event ID                 | Entrypoint   |   Size |   Instructions |
|--------------------------|--------------|--------|----------------|
| [65535](#event-65535)    | 0x0000       |      1 |              1 |
| [30042](#event-30042)    | 0x0001       |      1 |              1 |
| [30043](#event-30043)    | 0x0002       |      1 |              1 |
| [65535.1](#event-655351) | 0x0003       |     71 |             15 |

## DAT References (imed_data)

|   Index | Hex Value   |   Dec Value |
|---------|-------------|-------------|
|       0 | 0x002D      |          45 |

## Events

### Event 65535

#### Metadata

| Field        | Value   |
|--------------|---------|
| Entrypoint   | 0x0000  |
| Data Size    | 1 bytes |
| Instructions | 1       |

```
      00 01 02 03 04 05 06 07  08 09 0A 0B 0C 0D 0E 0F
      -- -- -- -- -- -- -- --  -- -- -- -- -- -- -- --
0000: 00                                                .               
```

#### Opcodes

```
  0: 0x0000 [0x00] END_REQSTACK()
```

### Event 30042

#### Metadata

| Field        | Value   |
|--------------|---------|
| Entrypoint   | 0x0001  |
| Data Size    | 1 bytes |
| Instructions | 1       |

```
      00 01 02 03 04 05 06 07  08 09 0A 0B 0C 0D 0E 0F
      -- -- -- -- -- -- -- --  -- -- -- -- -- -- -- --
0000:    00                                              .              
```

#### Opcodes

```
  0: 0x0001 [0x00] END_REQSTACK()
```

### Event 30043

#### Metadata

| Field        | Value   |
|--------------|---------|
| Entrypoint   | 0x0002  |
| Data Size    | 1 bytes |
| Instructions | 1       |

```
      00 01 02 03 04 05 06 07  08 09 0A 0B 0C 0D 0E 0F
      -- -- -- -- -- -- -- --  -- -- -- -- -- -- -- --
0000:       00                                            .             
```

#### Opcodes

```
  0: 0x0002 [0x00] END_REQSTACK()
```

### Event 65535.1

#### Metadata

| Field        | Value    |
|--------------|----------|
| Entrypoint   | 0x0003   |
| Data Size    | 71 bytes |
| Instructions | 15       |

```
      00 01 02 03 04 05 06 07  08 09 0A 0B 0C 0D 0E 0F
      -- -- -- -- -- -- -- --  -- -- -- -- -- -- -- --
0000:          27 10 BE 71 0E  01 0A 1C 00 80 27 10 BF     '..q......'..
0010: 71 0E 01 0A 1C 00 80 27  10 C0 71 0E 01 0A 1C 00  q......'..q.....
0020: 80 27 10 C1 71 0E 01 0A  1C 00 80 27 10 C2 71 0E  .'..q......'..q.
0030: 01 0A 1C 00 80 27 10 C3  71 0E 01 0A 1C 00 80 27  .....'..q......'
0040: 10 C4 71 0E 01 0A 1C 00  80 00                    ..q.......      
```

#### Opcodes

```
  0: 0x0003 [0x27] REQ_SET(priority=0x10, entity_id=Disjoined One (ID: 17723838/0x010E71BE), tag_num=0x0A)
  1: 0x000A [0x1C] WAIT(45* ticks)
  2: 0x000D [0x27] REQ_SET(priority=0x10, entity_id=Disjoined One (ID: 17723839/0x010E71BF), tag_num=0x0A)
  3: 0x0014 [0x1C] WAIT(45* ticks)
  4: 0x0017 [0x27] REQ_SET(priority=0x10, entity_id=Disjoined One (ID: 17723840/0x010E71C0), tag_num=0x0A)
  5: 0x001E [0x1C] WAIT(45* ticks)
  6: 0x0021 [0x27] REQ_SET(priority=0x10, entity_id=Disjoined One (ID: 17723841/0x010E71C1), tag_num=0x0A)
  7: 0x0028 [0x1C] WAIT(45* ticks)
  8: 0x002B [0x27] REQ_SET(priority=0x10, entity_id=Disjoined One (ID: 17723842/0x010E71C2), tag_num=0x0A)
  9: 0x0032 [0x1C] WAIT(45* ticks)
 10: 0x0035 [0x27] REQ_SET(priority=0x10, entity_id=Disjoined One (ID: 17723843/0x010E71C3), tag_num=0x0A)
 11: 0x003C [0x1C] WAIT(45* ticks)
 12: 0x003F [0x27] REQ_SET(priority=0x10, entity_id=Disjoined One (ID: 17723844/0x010E71C4), tag_num=0x0A)
 13: 0x0046 [0x1C] WAIT(45* ticks)
 14: 0x0049 [0x00] END_REQSTACK()
```
