# 17723626 - Rondipur

## Common Data

| Field            | Value                         |
|------------------|-------------------------------|
| Zone             | Northern San d'Oria (ID: 231) |
| Block Size       | 280 bytes                     |
| Total Events     | 6                             |
| References Count | 17                            |

## List of Events

| Event ID              | Entrypoint   |   Size |   Instructions |
|-----------------------|--------------|--------|----------------|
| [65535](#event-65535) | 0x0000       |      1 |              1 |
| [721](#event-721)     | 0x0001       |     53 |             13 |
| [722](#event-722)     | 0x0036       |     50 |             17 |
| [723](#event-723)     | 0x0068       |     46 |              8 |
| [724](#event-724)     | 0x0096       |     11 |              5 |
| [725](#event-725)     | 0x00A1       |     11 |              5 |

## DAT References (imed_data)

|   Index | Hex Value   |   Dec Value |
|---------|-------------|-------------|
|       0 | 0x333A      |       13114 |
|       1 | 0x0014      |          20 |
|       2 | 0x333B      |       13115 |
|       3 | 0x333C      |       13116 |
|       4 | 0x333D      |       13117 |
|       5 | 0x333E      |       13118 |
|       6 | 0x333F      |       13119 |
|       7 | 0x3340      |       13120 |
|       8 | 0x0001      |           1 |
|       9 | 0x0000      |           0 |
|      10 | 0x3341      |       13121 |
|      11 | 0x40000000  |  1073741824 |
|      12 | 0x000A      |          10 |
|      13 | 0x3342      |       13122 |
|      14 | 0x00C9      |         201 |
|      15 | 0x3343      |       13123 |
|      16 | 0x3344      |       13124 |

## String References

- **13114**: [Sir/Lady] <Player>! Much I have heard of your noble efforts on the battlefield. If it is not too much of a bother, your assistance is requested for a special mission.
- **13115**: The mission requires escorting the noble young missus Lady Cannau, the only daughter of a highly respectable family. However, she is--how would you say--a tad rambunctious. Embarrassed I am to report that we have already had many a proud adventurer quit this task the moment they met her.
- **13116**: If you have courage enough to take on this adventure, travel to the Eldieme Necropolis. Whether Lady Cannau is there or not is another question...
- **13117**: You shall be compensated generously upon the completion of your task. Good luck and Godspeed.
- **13118**: You shall find Miss Cannau in the Eldieme Necropolis. That is, if you are lucky enough to spot her...
- **13119**: Wait... Are you to say that you wish to cancel your contract with us?
- **13120**: Cancel your contract? [Yes./No.]
- **13121**: I see... That is quite disappointing...
- **13122**: Ah, I heard from my men that you have been successful in escorting the missus. I applaud you on your composure throughout the task.
- **13123**: <Sigh> I have the feeling this may not be the last time the missus goes galavanting about the necropolis. When that time comes, again we may require your assistance.
- **13124**: Forget not the labors of the common folk, as they ever support this mighty kingdom.

## Events

### Event 65535

#### Metadata

| Field        | Value   |
|--------------|---------|
| Entrypoint   | 0x0000  |
| Data Size    | 1 bytes |
| Instructions | 1       |

```
      00 01 02 03 04 05 06 07  08 09 0A 0B 0C 0D 0E 0F
      -- -- -- -- -- -- -- --  -- -- -- -- -- -- -- --
0000: 00                                                .               
```

#### Opcodes

```
  0: 0x0000 [0x00] END_REQSTACK()
```

### Event 721

#### Metadata

| Field        | Value    |
|--------------|----------|
| Entrypoint   | 0x0001   |
| Data Size    | 53 bytes |
| Instructions | 13       |

```
      00 01 02 03 04 05 06 07  08 09 0A 0B 0C 0D 0E 0F
      -- -- -- -- -- -- -- --  -- -- -- -- -- -- -- --
0000:    1E F0 FF FF 7F 1D 00  80 23 66 01 80 F8 FF FF   ........#f.....
0010: 7F F8 FF FF 7F 74 6C 6B  30 1D 02 80 23 1D 03 80  .....tlk0...#...
0020: 23 66 01 80 F8 FF FF 7F  F8 FF FF 7F 74 6C 6B 31  #f..........tlk1
0030: 1D 04 80 23 21 00                                 ...#!.          
```

#### Opcodes

```
  0: 0x0001 [0x1E] EventEntity looks at LocalPlayer and starts talking
  1: 0x0006 [0x1D] PRINT_EVENT_MESSAGE(message_id=13114*)
    → "[Sir/Lady] <Player>! Much I have heard of your noble efforts on the battlefield. If it is not too much of a bother, your assistance is requested for a special mission."
  2: 0x0009 [0x23] WAIT_FOR_DIALOG_INTERACTION
  3: 0x000A [0x66] LOAD_EXT_SCHEDULER_MAIN: Load scheduler "tlk0" with entities [EventEntity, EventEntity], work=20*
  4: 0x0019 [0x1D] PRINT_EVENT_MESSAGE(message_id=13115*)
    → "The mission requires escorting the noble young missus Lady Cannau, the only daughter of a highly respectable family. However, she is--how would you say--a tad rambunctious. Embarrassed I am to report that we have already had many a proud adventurer quit this task the moment they met her."
  5: 0x001C [0x23] WAIT_FOR_DIALOG_INTERACTION
  6: 0x001D [0x1D] PRINT_EVENT_MESSAGE(message_id=13116*)
    → "If you have courage enough to take on this adventure, travel to the Eldieme Necropolis. Whether Lady Cannau is there or not is another question..."
  7: 0x0020 [0x23] WAIT_FOR_DIALOG_INTERACTION
  8: 0x0021 [0x66] LOAD_EXT_SCHEDULER_MAIN: Load scheduler "tlk1" with entities [EventEntity, EventEntity], work=20*
  9: 0x0030 [0x1D] PRINT_EVENT_MESSAGE(message_id=13117*)
    → "You shall be compensated generously upon the completion of your task. Good luck and Godspeed."
 10: 0x0033 [0x23] WAIT_FOR_DIALOG_INTERACTION
 11: 0x0034 [0x21] END_EVENT
 12: 0x0035 [0x00] END_REQSTACK()
```

### Event 722

#### Metadata

| Field        | Value    |
|--------------|----------|
| Entrypoint   | 0x0036   |
| Data Size    | 50 bytes |
| Instructions | 16       |

```
      00 01 02 03 04 05 06 07  08 09 0A 0B 0C 0D 0E 0F
      -- -- -- -- -- -- -- --  -- -- -- -- -- -- -- --
0030:                   1E F0  FF FF 7F 1D 05 80 23 1D        ........#.
0040: 06 80 23 24 07 80 08 80  09 80 25 02 00 10 09 80  ..#$......%.....
0050: 00 61 00 1D 0A 80 23 03  01 10 09 80 21 00 01 61  .a....#.....!..a
0060: 00 03 01 10 0B 80 21 00                           ......!.        
```

#### Opcodes

```
  0: 0x0036 [0x1E] EventEntity looks at LocalPlayer and starts talking
  1: 0x003B [0x1D] PRINT_EVENT_MESSAGE(message_id=13118*)
    → "You shall find Miss Cannau in the Eldieme Necropolis. That is, if you are lucky enough to spot her..."
  2: 0x003E [0x23] WAIT_FOR_DIALOG_INTERACTION
  3: 0x003F [0x1D] PRINT_EVENT_MESSAGE(message_id=13119*)
    → "Wait... Are you to say that you wish to cancel your contract with us?"
  4: 0x0042 [0x23] WAIT_FOR_DIALOG_INTERACTION
  5: 0x0043 [0x24] CREATE_DIALOG(message_id=13120*, default_option=1*, option_flags=0*)
    → "Cancel your contract? [Yes./No.]"
  6: 0x004A [0x25] WAIT_DIALOG_SELECT()
  7: 0x004B [0x02] IF !(Work_Zone[0] == 0*) GOTO 0x0061
  8: 0x0053 [0x1D] PRINT_EVENT_MESSAGE(message_id=13121*)
    → "I see... That is quite disappointing..."
  9: 0x0056 [0x23] WAIT_FOR_DIALOG_INTERACTION
 10: 0x0057 [0x03] Work_Zone[1] = 0*
 11: 0x005C [0x21] END_EVENT
 12: 0x005D [0x00] END_REQSTACK()

SUBROUTINE_0061:
 13: 0x0061 [0x03] Work_Zone[1] = 1073741824*
 14: 0x0066 [0x21] END_EVENT
 15: 0x0067 [0x00] END_REQSTACK()
```

#### Data or dead code:

```
# Dead code (unreachable instructions):
     0x005E [0x01] GOTO 0x0061
```

### Event 723

#### Metadata

| Field        | Value    |
|--------------|----------|
| Entrypoint   | 0x0068   |
| Data Size    | 46 bytes |
| Instructions | 8        |

```
      00 01 02 03 04 05 06 07  08 09 0A 0B 0C 0D 0E 0F
      -- -- -- -- -- -- -- --  -- -- -- -- -- -- -- --
0060:                          1E F0 FF FF 7F 1C 0C 80          ........
0070: 66 01 80 F8 FF FF 7F F8  FF FF 7F 70 61 73 30 1D  f..........pas0.
0080: 0D 80 23 45 0E 80 F0 FF  FF 7F F0 FF FF 7F 71 73  ..#E..........qs
0090: 74 63 09 80 21 00                                 tc..!.          
```

#### Opcodes

```
  0: 0x0068 [0x1E] EventEntity looks at LocalPlayer and starts talking
  1: 0x006D [0x1C] WAIT(10* ticks)
  2: 0x0070 [0x66] LOAD_EXT_SCHEDULER_MAIN: Load scheduler "pas0" with entities [EventEntity, EventEntity], work=20*
  3: 0x007F [0x1D] PRINT_EVENT_MESSAGE(message_id=13122*)
    → "Ah, I heard from my men that you have been successful in escorting the missus. I applaud you on your composure throughout the task."
  4: 0x0082 [0x23] WAIT_FOR_DIALOG_INTERACTION
  5: 0x0083 [0x45] LOAD_SCHEDULED_TASK: Load scheduler "qstc" with entities [LocalPlayer, LocalPlayer], work=[201*, 0*]
  6: 0x0094 [0x21] END_EVENT
  7: 0x0095 [0x00] END_REQSTACK()
```

### Event 724

#### Metadata

| Field        | Value    |
|--------------|----------|
| Entrypoint   | 0x0096   |
| Data Size    | 11 bytes |
| Instructions | 5        |

```
      00 01 02 03 04 05 06 07  08 09 0A 0B 0C 0D 0E 0F
      -- -- -- -- -- -- -- --  -- -- -- -- -- -- -- --
0090:                   1E F0  FF FF 7F 1D 0F 80 23 21        ........#!
00A0: 00                                                .               
```

#### Opcodes

```
  0: 0x0096 [0x1E] EventEntity looks at LocalPlayer and starts talking
  1: 0x009B [0x1D] PRINT_EVENT_MESSAGE(message_id=13123*)
    → "<Sigh> I have the feeling this may not be the last time the missus goes galavanting about the necropolis. When that time comes, again we may require your assistance."
  2: 0x009E [0x23] WAIT_FOR_DIALOG_INTERACTION
  3: 0x009F [0x21] END_EVENT
  4: 0x00A0 [0x00] END_REQSTACK()
```

### Event 725

#### Metadata

| Field        | Value    |
|--------------|----------|
| Entrypoint   | 0x00A1   |
| Data Size    | 11 bytes |
| Instructions | 5        |

```
      00 01 02 03 04 05 06 07  08 09 0A 0B 0C 0D 0E 0F
      -- -- -- -- -- -- -- --  -- -- -- -- -- -- -- --
00A0:    1E F0 FF FF 7F 1D 10  80 23 21 00               ........#!.    
```

#### Opcodes

```
  0: 0x00A1 [0x1E] EventEntity looks at LocalPlayer and starts talking
  1: 0x00A6 [0x1D] PRINT_EVENT_MESSAGE(message_id=13124*)
    → "Forget not the labors of the common folk, as they ever support this mighty kingdom."
  2: 0x00A9 [0x23] WAIT_FOR_DIALOG_INTERACTION
  3: 0x00AA [0x21] END_EVENT
  4: 0x00AB [0x00] END_REQSTACK()
```
