# 17723402 - Exoroche

## Common Data

| Field            | Value                         |
|------------------|-------------------------------|
| Zone             | Northern San d'Oria (ID: 231) |
| Block Size       | 244 bytes                     |
| Total Events     | 12                            |
| References Count | 14                            |

## List of Events

| Event ID                 | Entrypoint   |   Size |   Instructions |
|--------------------------|--------------|--------|----------------|
| [65535](#event-65535)    | 0x0000       |      1 |              1 |
| [509](#event-509)        | 0x0001       |      1 |              1 |
| [65535.1](#event-655351) | 0x0002       |      9 |              3 |
| [65535.2](#event-655352) | 0x000B       |     14 |              4 |
| [65535.3](#event-655353) | 0x0019       |     11 |              3 |
| [65535.4](#event-655354) | 0x0024       |     15 |              3 |
| [65535.5](#event-655355) | 0x0033       |      6 |              2 |
| [65535.6](#event-655356) | 0x0039       |      6 |              2 |
| [65535.7](#event-655357) | 0x003F       |     13 |              4 |
| [65535.8](#event-655358) | 0x004C       |      6 |              2 |
| [65535.9](#event-655359) | 0x0052       |     14 |              2 |
| [16](#event-16)          | 0x0060       |     28 |              5 |

## DAT References (imed_data)

|   Index | Hex Value   |   Dec Value |
|---------|-------------|-------------|
|       0 | 0x000D      |          13 |
|       1 | 0x0019      |          25 |
|       2 | 0xFFFF8AD0  |  4294937296 |
|       3 | 0x0000      |           0 |
|       4 | 0xFFFFBB4D  |  4294949709 |
|       5 | 0x1350      |        4944 |
|       6 | 0x6229      |       25129 |
|       7 | 0x01F3      |         499 |
|       8 | 0x15FE      |        5630 |
|       9 | 0x4607      |       17927 |
|      10 | 0x1657A     |       91514 |
|      11 | 0x1294D     |       76109 |
|      12 | 0x06D5      |        1749 |
|      13 | 0x0C3C      |        3132 |

## Events

### Event 65535

#### Metadata

| Field        | Value   |
|--------------|---------|
| Entrypoint   | 0x0000  |
| Data Size    | 1 bytes |
| Instructions | 1       |

```
      00 01 02 03 04 05 06 07  08 09 0A 0B 0C 0D 0E 0F
      -- -- -- -- -- -- -- --  -- -- -- -- -- -- -- --
0000: 00                                                .               
```

#### Opcodes

```
  0: 0x0000 [0x00] END_REQSTACK()
```

### Event 509

#### Metadata

| Field        | Value   |
|--------------|---------|
| Entrypoint   | 0x0001  |
| Data Size    | 1 bytes |
| Instructions | 1       |

```
      00 01 02 03 04 05 06 07  08 09 0A 0B 0C 0D 0E 0F
      -- -- -- -- -- -- -- --  -- -- -- -- -- -- -- --
0000:    00                                              .              
```

#### Opcodes

```
  0: 0x0001 [0x00] END_REQSTACK()
```

### Event 65535.1

#### Metadata

| Field        | Value   |
|--------------|---------|
| Entrypoint   | 0x0002  |
| Data Size    | 9 bytes |
| Instructions | 3       |

```
      00 01 02 03 04 05 06 07  08 09 0A 0B 0C 0D 0E 0F
      -- -- -- -- -- -- -- --  -- -- -- -- -- -- -- --
0000:       22 00 2F 00 0A 70  0E 01 00                   "./..p...     
```

#### Opcodes

```
  0: 0x0002 [0x22] ENTITY_HIDE_FLAG(enabled=0x00)
  1: 0x0004 [0x2F] Exoroche (ID: 17723402/0x010E700A)->Render.Flags0 &= ~0x80000 // Bit 19
  2: 0x000A [0x00] END_REQSTACK()
```

### Event 65535.2

#### Metadata

| Field        | Value    |
|--------------|----------|
| Entrypoint   | 0x000B   |
| Data Size    | 14 bytes |
| Instructions | 4        |

```
      00 01 02 03 04 05 06 07  08 09 0A 0B 0C 0D 0E 0F
      -- -- -- -- -- -- -- --  -- -- -- -- -- -- -- --
0000:                                   32 00 80 1F 00             2....
0010: 01 80 02 80 03 80 1F 01  00                       .........       
```

#### Opcodes

```
  0: 0x000B [0x32] ExtData[1]->MainSpeed = 13* * 0.1
  1: 0x000E [0x1F] MOVE_ENTITY: EventEntity moves to X=0.025*, Z=-30.000*, Y=0.000*
  2: 0x0016 [0x1F] MOVE_ENTITY: Update entity position (mode=1)
  3: 0x0018 [0x00] END_REQSTACK()
```

### Event 65535.3

#### Metadata

| Field        | Value    |
|--------------|----------|
| Entrypoint   | 0x0019   |
| Data Size    | 11 bytes |
| Instructions | 3        |

```
      00 01 02 03 04 05 06 07  08 09 0A 0B 0C 0D 0E 0F
      -- -- -- -- -- -- -- --  -- -- -- -- -- -- -- --
0010:                             1F 00 01 80 04 80 03           .......
0020: 80 1F 01 00                                       ....            
```

#### Opcodes

```
  0: 0x0019 [0x1F] MOVE_ENTITY: EventEntity moves to X=0.025*, Z=-17.587*, Y=0.000*
  1: 0x0021 [0x1F] MOVE_ENTITY: Update entity position (mode=1)
  2: 0x0023 [0x00] END_REQSTACK()
```

### Event 65535.4

#### Metadata

| Field        | Value    |
|--------------|----------|
| Entrypoint   | 0x0024   |
| Data Size    | 15 bytes |
| Instructions | 3        |

```
      00 01 02 03 04 05 06 07  08 09 0A 0B 0C 0D 0E 0F
      -- -- -- -- -- -- -- --  -- -- -- -- -- -- -- --
0020:             37 05 80 06  80 07 80 03 80 1E 09 70      7..........p
0030: 0E 01 00                                          ...             
```

#### Opcodes

```
  0: 0x0024 [0x37] UPDATE_EVENT_POSITION_AND_DIR: x=4.944*, z=25.129*, y=0.499*, direction=0.0°*
  1: 0x002D [0x1E] EventEntity looks at Ailbeche (ID: 17723401/0x010E7009) and starts talking
  2: 0x0032 [0x00] END_REQSTACK()
```

### Event 65535.5

#### Metadata

| Field        | Value   |
|--------------|---------|
| Entrypoint   | 0x0033  |
| Data Size    | 6 bytes |
| Instructions | 2       |

```
      00 01 02 03 04 05 06 07  08 09 0A 0B 0C 0D 0E 0F
      -- -- -- -- -- -- -- --  -- -- -- -- -- -- -- --
0030:          1E F0 FF FF 7F  00                          ......       
```

#### Opcodes

```
  0: 0x0033 [0x1E] EventEntity looks at LocalPlayer and starts talking
  1: 0x0038 [0x00] END_REQSTACK()
```

### Event 65535.6

#### Metadata

| Field        | Value   |
|--------------|---------|
| Entrypoint   | 0x0039  |
| Data Size    | 6 bytes |
| Instructions | 2       |

```
      00 01 02 03 04 05 06 07  08 09 0A 0B 0C 0D 0E 0F
      -- -- -- -- -- -- -- --  -- -- -- -- -- -- -- --
0030:                             1E 09 70 0E 01 00              ..p... 
```

#### Opcodes

```
  0: 0x0039 [0x1E] EventEntity looks at Ailbeche (ID: 17723401/0x010E7009) and starts talking
  1: 0x003E [0x00] END_REQSTACK()
```

### Event 65535.7

#### Metadata

| Field        | Value    |
|--------------|----------|
| Entrypoint   | 0x003F   |
| Data Size    | 13 bytes |
| Instructions | 4        |

```
      00 01 02 03 04 05 06 07  08 09 0A 0B 0C 0D 0E 0F
      -- -- -- -- -- -- -- --  -- -- -- -- -- -- -- --
0030:                                               1F                 .
0040: 00 08 80 09 80 03 80 1F  01 22 01 00              ........."..    
```

#### Opcodes

```
  0: 0x003F [0x1F] MOVE_ENTITY: EventEntity moves to X=5.630*, Z=17.927*, Y=0.000*
  1: 0x0047 [0x1F] MOVE_ENTITY: Update entity position (mode=1)
  2: 0x0049 [0x22] ENTITY_HIDE_FLAG(enabled=0x01)
  3: 0x004B [0x00] END_REQSTACK()
```

### Event 65535.8

#### Metadata

| Field        | Value   |
|--------------|---------|
| Entrypoint   | 0x004C  |
| Data Size    | 6 bytes |
| Instructions | 2       |

```
      00 01 02 03 04 05 06 07  08 09 0A 0B 0C 0D 0E 0F
      -- -- -- -- -- -- -- --  -- -- -- -- -- -- -- --
0040:                                      5E 69 64 6C              ^idl
0050: 30 00                                             0.              
```

#### Opcodes

```
  0: 0x004C [0x5E] EventEntity goes idle (kills current action) (animation: "idl0")
  1: 0x0051 [0x00] END_REQSTACK()
```

### Event 65535.9

#### Metadata

| Field        | Value    |
|--------------|----------|
| Entrypoint   | 0x0052   |
| Data Size    | 14 bytes |
| Instructions | 2        |

```
      00 01 02 03 04 05 06 07  08 09 0A 0B 0C 0D 0E 0F
      -- -- -- -- -- -- -- --  -- -- -- -- -- -- -- --
0050:       2C 0A 70 0E 01 09  70 0E 01 61 74 6B 30 00    ,.p...p..atk0.
```

#### Opcodes

```
  0: 0x0052 [0x2C] CREATE_SCHEDULER_TASK: Create scheduler "atk0" with entities [Exoroche (ID: 17723402/0x010E700A), Ailbeche (ID: 17723401/0x010E7009)]
  1: 0x005F [0x00] END_REQSTACK()
```

### Event 16

#### Metadata

| Field        | Value    |
|--------------|----------|
| Entrypoint   | 0x0060   |
| Data Size    | 28 bytes |
| Instructions | 5        |

```
      00 01 02 03 04 05 06 07  08 09 0A 0B 0C 0D 0E 0F
      -- -- -- -- -- -- -- --  -- -- -- -- -- -- -- --
0060: 22 00 92 01 F8 FF FF 7F  37 0A 80 0B 80 0C 80 0D  ".......7.......
0070: 80 79 00 F8 FF FF 7F 04  70 0E 01 00              .y......p...    
```

#### Opcodes

```
  0: 0x0060 [0x22] ENTITY_HIDE_FLAG(enabled=0x00)
  1: 0x0062 [0x92] EventEntity->Render.Flags3 ^= 0x01
  2: 0x0068 [0x37] UPDATE_EVENT_POSITION_AND_DIR: x=91.514*, z=76.109*, y=1.749*, direction=275.3°*
  3: 0x0071 [0x79] EventEntity looks at Claidie (ID: 17723396/0x010E7004) (Basic look)
  4: 0x007B [0x00] END_REQSTACK()
```
