# 17723502 - Pulloie

## Common Data

| Field            | Value                         |
|------------------|-------------------------------|
| Zone             | Northern San d'Oria (ID: 231) |
| Block Size       | 1036 bytes                    |
| Total Events     | 7                             |
| References Count | 38                            |

## List of Events

| Event ID              | Entrypoint   |   Size |   Instructions |
|-----------------------|--------------|--------|----------------|
| [65535](#event-65535) | 0x0000       |      1 |              1 |
| [838](#event-838)     | 0x0001       |    208 |             50 |
| [594](#event-594)     | 0x00D1       |    148 |             36 |
| [596](#event-596)     | 0x0165       |    148 |             36 |
| [595](#event-595)     | 0x01F9       |    149 |             37 |
| [597](#event-597)     | 0x028E       |     43 |             13 |
| [598](#event-598)     | 0x02B9       |    142 |             34 |

## DAT References (imed_data)

|   Index | Hex Value   |   Dec Value |
|---------|-------------|-------------|
|       0 | 0x0000      |           0 |
|       1 | 0x0006      |           6 |
|       2 | 0x0002      |           2 |
|       3 | 0x0001      |           1 |
|       4 | 0x43B4      |       17332 |
|       5 | 0x43B5      |       17333 |
|       6 | 0x43BD      |       17341 |
|       7 | 0x43B9      |       17337 |
|       8 | 0x43B6      |       17334 |
|       9 | 0x43B7      |       17335 |
|      10 | 0x43B8      |       17336 |
|      11 | 0x001F      |          31 |
|      12 | 0xFFFFFFFF  |  4294967295 |
|      13 | 0x43BE      |       17342 |
|      14 | 0x43BC      |       17340 |
|      15 | 0x001E      |          30 |
|      16 | 0x00A4      |         164 |
|      17 | 0x00A5      |         165 |
|      18 | 0x00A6      |         166 |
|      19 | 0x00A7      |         167 |
|      20 | 0x00A8      |         168 |
|      21 | 0x00A9      |         169 |
|      22 | 0x00AC      |         172 |
|      23 | 0x00AA      |         170 |
|      24 | 0x00AB      |         171 |
|      25 | 0x00AD      |         173 |
|      26 | 0x00AE      |         174 |
|      27 | 0x00AF      |         175 |
|      28 | 0x00B0      |         176 |
|      29 | 0x00B1      |         177 |
|      30 | 0x00B2      |         178 |
|      31 | 0x00B3      |         179 |
|      32 | 0x00B4      |         180 |
|      33 | 0x00B5      |         181 |
|      34 | 0x00B6      |         182 |
|      35 | 0x00B7      |         183 |
|      36 | 0x00B8      |         184 |
|      37 | 0x00B9      |         185 |

## String References

- **164**: The San d'Oria residential area is ahead. You'll find your Mog House within.
- **165**: I've not told you about Mog Houses yet, have I? Would you care to learn about them now?
- **166**: Care to learn about Mog Houses? [Sure!/No, thanks.]
- **167**: Mog Houses are useful places. You can recover your HP and MP, and store items there.
- **168**: You can also change jobs there. All adventurers of San d'Orian citizenship are assigned a Mog House.
- **169**: Make yourself at home!
- **170**: The San d'Oria residential area is ahead. You'll find your Mog House within.
- **171**: Would you like to hear about Mog Houses again?
- **172**: Hmm... So be it.
- **173**: Ahead lies the residential area. You'll find your Mog House within.
- **174**: By the way, my records indicate that you're renting a room in [San d'Oria/Bastok/Windurst/Jeuno/Kazham/Rabao/Norg/Al Zahbi].
- **175**: Would you like to check out of the room in [San d'Oria/Bastok/Windurst/Jeuno/Kazham/Rabao/Norg/Al Zahbi] and move your things back here?
- **176**: Move back to San d'Oria? [Yes, please./No, not yet.]
- **177**: It is done. We've checked you out of your Rent-a-Room in [San d'Oria/Bastok/Windurst/Jeuno/Kazham/Rabao/Norg/Al Zahbi].
- **178**: All your belongings should be waiting for you inside. Those moogles are amazing creatures, are they not?
- **179**: Ahead lies the residential area. Proceed to your Rent-a-Room, foreigner!
- **180**: If you're already renting here, you may come and go as you please, like the Mog House in your homeland.
- **181**: Ahead lies the residential area.
- **182**: Wait! By law, all foreigners must lease a Rent-a-Room before entering the residential area!
- **183**: Once you've registered with us, you can use it as you would a Mog House back home, wherever that may be.
- **184**: Will you stay in San d'Oria? [Yes./No, I'd rather not.]
- **185**: All right, then. A San d'Orian Rent-a-Room has been leased to your name. Now move along, foreigner!
- **17332**: The San d'Oria residential area is ahead. You'll find your Mog House within.
- **17333**: Ahead lies the residential area. Proceed to your Rent-a-Room, foreigner!
- **17334**: Mog Houses are useful places. You can recover your HP and MP, and store items.
- **17335**: You can also change jobs there. All adventurers of San d'Orian citizenship are assigned a Mog House.
- **17336**: Make yourself at home!
- **17337**: Hmm... So be it.
- **17340**: This way, please.
- **17341**: What do you wish to do? [Nothing in particular./Ask for an explanation of Mog Houses./Visit the Mog House of a party member.]
- **17342**: Whose Mog House will you visit? [Never mind./%1/%2/%3/%4/%5/%6/%7/%8/%9/%10/%11/%12/%13/%14/%15/%16/%17]

## Events

### Event 65535

#### Metadata

| Field        | Value   |
|--------------|---------|
| Entrypoint   | 0x0000  |
| Data Size    | 1 bytes |
| Instructions | 1       |

```
      00 01 02 03 04 05 06 07  08 09 0A 0B 0C 0D 0E 0F
      -- -- -- -- -- -- -- --  -- -- -- -- -- -- -- --
0000: 00                                                .               
```

#### Opcodes

```
  0: 0x0000 [0x00] END_REQSTACK()
```

### Event 838

#### Metadata

| Field        | Value     |
|--------------|-----------|
| Entrypoint   | 0x0001    |
| Data Size    | 208 bytes |
| Instructions | 50        |

```
      00 01 02 03 04 05 06 07  08 09 0A 0B 0C 0D 0E 0F
      -- -- -- -- -- -- -- --  -- -- -- -- -- -- -- --
0000:    02 00 00 00 80 00 D0  00 03 01 10 00 80 03 02   ...............
0010: 00 01 80 C2 01 01 00 02  01 00 00 80 01 26 00 3D  .............&.=
0020: 02 00 02 80 03 80 1E F0  FF FF 7F 02 02 10 00 80  ................
0030: 00 41 00 1D 04 80 23 3D  02 00 03 80 03 80 01 45  .A....#=.......E
0040: 00 1D 05 80 23 02 02 00  01 80 01 CF 00 24 06 80  ....#........$..
0050: 00 80 02 00 25 02 00 10  00 80 00 64 00 1D 07 80  ....%......d....
0060: 23 01 CF 00 02 00 10 03  80 00 82 00 1D 08 80 23  #..............#
0070: 1D 09 80 23 1D 0A 80 23  3C 01 10 0B 80 03 80 01  ...#...#<.......
0080: CF 00 02 00 10 02 80 00  CF 00 C2 01 01 00 0F 01  ................
0090: 00 0C 80 3D 01 00 00 80  03 80 24 0D 80 00 80 01  ...=......$.....
00A0: 00 25 02 00 10 00 80 00  B1 00 1D 07 80 23 01 B1  .%...........#..
00B0: 00 02 00 10 00 80 00 C1  00 03 01 10 00 80 01 CC  ................
00C0: 00 42 1D 0E 80 23 C2 02  00 10 01 10 01 CF 00 21  .B...#.........!
00D0: 00                                                .               
```

#### Opcodes

```
  0: 0x0001 [0x02] IF !(ExtData[1]->WorkLocal[0] == 0*) GOTO 0x00D0
  1: 0x0009 [0x03] Work_Zone[1] = 0*
  2: 0x000E [0x03] ExtData[1]->WorkLocal[2] = 6*
  3: 0x0013 [0xC2] PARTY_STATE_CHECK: ExtData[1]->WorkLocal[1] = mask of visitable party members
  4: 0x0017 [0x02] IF !(ExtData[1]->WorkLocal[1] == 0*) GOTO 0x0026
  5: 0x001F [0x3D] CLEAR_BIT_FLAG_CONDITIONAL(target_work_offset=ExtData[1]->WorkLocal[2], bit_index_work_offset=2*, condition_work_offset=1*)
  6: 0x0026 [0x1E] EventEntity looks at LocalPlayer and starts talking
  7: 0x002B [0x02] IF !(Work_Zone[2] == 0*) GOTO 0x0041
  8: 0x0033 [0x1D] PRINT_EVENT_MESSAGE(message_id=17332*)
    → "The San d'Oria residential area is ahead. You'll find your Mog House within."
  9: 0x0036 [0x23] WAIT_FOR_DIALOG_INTERACTION
 10: 0x0037 [0x3D] CLEAR_BIT_FLAG_CONDITIONAL(target_work_offset=ExtData[1]->WorkLocal[2], bit_index_work_offset=1*, condition_work_offset=1*)
 11: 0x003E [0x01] GOTO 0x0045
 12: 0x0041 [0x1D] PRINT_EVENT_MESSAGE(message_id=17333*)
    → "Ahead lies the residential area. Proceed to your Rent-a-Room, foreigner!"
 13: 0x0044 [0x23] WAIT_FOR_DIALOG_INTERACTION

SUBROUTINE_0045:
 14: 0x0045 [0x02] IF !(ExtData[1]->WorkLocal[2] == 6*) GOTO 0x00CF
 15: 0x004D [0x24] CREATE_DIALOG(message_id=17341*, default_option=0*, option_flags=ExtData[1]->WorkLocal[2])
    → "What do you wish to do? [Nothing in particular./Ask for an explanation of Mog Houses./Visit the Mog House of a party member.]"
 16: 0x0054 [0x25] WAIT_DIALOG_SELECT()
 17: 0x0055 [0x02] IF !(Work_Zone[0] == 0*) GOTO 0x0064
 18: 0x005D [0x1D] PRINT_EVENT_MESSAGE(message_id=17337*)
    → "Hmm... So be it."
 19: 0x0060 [0x23] WAIT_FOR_DIALOG_INTERACTION
 20: 0x0061 [0x01] GOTO 0x00CF
 21: 0x0064 [0x02] IF !(Work_Zone[0] == 1*) GOTO 0x0082
 22: 0x006C [0x1D] PRINT_EVENT_MESSAGE(message_id=17334*)
    → "Mog Houses are useful places. You can recover your HP and MP, and store items."
 23: 0x006F [0x23] WAIT_FOR_DIALOG_INTERACTION
 24: 0x0070 [0x1D] PRINT_EVENT_MESSAGE(message_id=17335*)
    → "You can also change jobs there. All adventurers of San d'Orian citizenship are assigned a Mog House."
 25: 0x0073 [0x23] WAIT_FOR_DIALOG_INTERACTION
 26: 0x0074 [0x1D] PRINT_EVENT_MESSAGE(message_id=17336*)
    → "Make yourself at home!"
 27: 0x0077 [0x23] WAIT_FOR_DIALOG_INTERACTION
 28: 0x0078 [0x3C] SET_BIT_FLAG_CONDITIONAL(target_work_offset=Work_Zone[1], bit_index_work_offset=31*, condition_work_offset=1*)
 29: 0x007F [0x01] GOTO 0x00CF
 30: 0x0082 [0x02] IF !(Work_Zone[0] == 2*) GOTO 0x00CF
 31: 0x008A [0xC2] PARTY_STATE_CHECK: ExtData[1]->WorkLocal[1] = mask of visitable party members
 32: 0x008E [0x0F] ExtData[1]->WorkLocal[1] ^= 4294967295*
 33: 0x0093 [0x3D] CLEAR_BIT_FLAG_CONDITIONAL(target_work_offset=ExtData[1]->WorkLocal[1], bit_index_work_offset=0*, condition_work_offset=1*)
 34: 0x009A [0x24] CREATE_DIALOG(message_id=17342*, default_option=0*, option_flags=ExtData[1]->WorkLocal[1])
    → "Whose Mog House will you visit? [Never mind./%1/%2/%3/%4/%5/%6/%7/%8/%9/%10/%11/%12/%13/%14/%15/%16/%17]"
 35: 0x00A1 [0x25] WAIT_DIALOG_SELECT()
 36: 0x00A2 [0x02] IF !(Work_Zone[0] == 0*) GOTO 0x00B1
 37: 0x00AA [0x1D] PRINT_EVENT_MESSAGE(message_id=17337*)
    → "Hmm... So be it."
 38: 0x00AD [0x23] WAIT_FOR_DIALOG_INTERACTION
 39: 0x00AE [0x01] GOTO 0x00B1

SUBROUTINE_00B1:
 40: 0x00B1 [0x02] IF !(Work_Zone[0] == 0*) GOTO 0x00C1
 41: 0x00B9 [0x03] Work_Zone[1] = 0*
 42: 0x00BE [0x01] GOTO 0x00CC
 43: 0x00C1 [0x42] SET_CLI_EVENT_CANCEL_DATA()
 44: 0x00C2 [0x1D] PRINT_EVENT_MESSAGE(message_id=17340*)
    → "This way, please."
 45: 0x00C5 [0x23] WAIT_FOR_DIALOG_INTERACTION
 46: 0x00C6 [0xC2] PARTY_STATE_CHECK: Work_Zone[1] = check if party member (from Work_Zone[0]) house is open

SUBROUTINE_00CC:
 47: 0x00CC [0x01] GOTO 0x00CF

SUBROUTINE_00CF:
 48: 0x00CF [0x21] END_EVENT
 49: 0x00D0 [0x00] END_REQSTACK()
```

### Event 594

#### Metadata

| Field        | Value     |
|--------------|-----------|
| Entrypoint   | 0x00D1    |
| Data Size    | 148 bytes |
| Instructions | 36        |

```
      00 01 02 03 04 05 06 07  08 09 0A 0B 0C 0D 0E 0F
      -- -- -- -- -- -- -- --  -- -- -- -- -- -- -- --
00D0:    1E F0 FF FF 7F 6F 70  66 0F 80 F8 FF FF 7F F8   .....opf.......
00E0: FF FF 7F 74 6C 6B 30 1D  10 80 23 1C 0F 80 1D 11  ...tlk0...#.....
00F0: 80 23 5E 69 64 6C 30 24  12 80 00 80 00 80 25 02  .#^idl0$......%.
0100: 00 10 00 80 00 38 01 66  0F 80 F8 FF FF 7F F8 FF  .....8.f........
0110: FF 7F 74 6C 6B 30 1D 13  80 23 1C 0F 80 1D 14 80  ..tlk0...#......
0120: 23 1C 0F 80 1D 15 80 23  5E 69 64 6C 30 1C 0F 80  #......#^idl0...
0130: 03 01 10 00 80 01 63 01  02 00 10 03 80 00 63 01  ......c.......c.
0140: 66 0F 80 F8 FF FF 7F F8  FF FF 7F 74 6C 6B 30 1D  f..........tlk0.
0150: 16 80 23 5E 69 64 6C 30  1C 0F 80 03 01 10 03 80  ..#^idl0........
0160: 01 63 01 21 00                                    .c.!.           
```

#### Opcodes

```
  0: 0x00D1 [0x1E] EventEntity looks at LocalPlayer and starts talking
  1: 0x00D6 [0x6F] WAIT_FRAME_DELAY: Yield until WaitTime reaches zero
  2: 0x00D7 [0x70] WAIT_ENTITY_RENDER_FLAG: Wait while EventEntity->Render.Flags3 bit 2 is set (cancel turn if not)
  3: 0x00D8 [0x66] LOAD_EXT_SCHEDULER_MAIN: Load scheduler "tlk0" with entities [EventEntity, EventEntity], work=30*
  4: 0x00E7 [0x1D] PRINT_EVENT_MESSAGE(message_id=164*)
    → "The San d'Oria residential area is ahead. You'll find your Mog House within."
  5: 0x00EA [0x23] WAIT_FOR_DIALOG_INTERACTION
  6: 0x00EB [0x1C] WAIT(30* ticks)
  7: 0x00EE [0x1D] PRINT_EVENT_MESSAGE(message_id=165*)
    → "I've not told you about Mog Houses yet, have I? Would you care to learn about them now?"
  8: 0x00F1 [0x23] WAIT_FOR_DIALOG_INTERACTION
  9: 0x00F2 [0x5E] EventEntity goes idle (kills current action) (animation: "idl0")
 10: 0x00F7 [0x24] CREATE_DIALOG(message_id=166*, default_option=0*, option_flags=0*)
    → "Care to learn about Mog Houses? [Sure!/No, thanks.]"
 11: 0x00FE [0x25] WAIT_DIALOG_SELECT()
 12: 0x00FF [0x02] IF !(Work_Zone[0] == 0*) GOTO 0x0138
 13: 0x0107 [0x66] LOAD_EXT_SCHEDULER_MAIN: Load scheduler "tlk0" with entities [EventEntity, EventEntity], work=30*
 14: 0x0116 [0x1D] PRINT_EVENT_MESSAGE(message_id=167*)
    → "Mog Houses are useful places. You can recover your HP and MP, and store items there."
 15: 0x0119 [0x23] WAIT_FOR_DIALOG_INTERACTION
 16: 0x011A [0x1C] WAIT(30* ticks)
 17: 0x011D [0x1D] PRINT_EVENT_MESSAGE(message_id=168*)
    → "You can also change jobs there. All adventurers of San d'Orian citizenship are assigned a Mog House."
 18: 0x0120 [0x23] WAIT_FOR_DIALOG_INTERACTION
 19: 0x0121 [0x1C] WAIT(30* ticks)
 20: 0x0124 [0x1D] PRINT_EVENT_MESSAGE(message_id=169*)
    → "Make yourself at home!"
 21: 0x0127 [0x23] WAIT_FOR_DIALOG_INTERACTION
 22: 0x0128 [0x5E] EventEntity goes idle (kills current action) (animation: "idl0")
 23: 0x012D [0x1C] WAIT(30* ticks)
 24: 0x0130 [0x03] Work_Zone[1] = 0*
 25: 0x0135 [0x01] GOTO 0x0163
 26: 0x0138 [0x02] IF !(Work_Zone[0] == 1*) GOTO 0x0163
 27: 0x0140 [0x66] LOAD_EXT_SCHEDULER_MAIN: Load scheduler "tlk0" with entities [EventEntity, EventEntity], work=30*
 28: 0x014F [0x1D] PRINT_EVENT_MESSAGE(message_id=172*)
    → "Hmm... So be it."
 29: 0x0152 [0x23] WAIT_FOR_DIALOG_INTERACTION
 30: 0x0153 [0x5E] EventEntity goes idle (kills current action) (animation: "idl0")
 31: 0x0158 [0x1C] WAIT(30* ticks)
 32: 0x015B [0x03] Work_Zone[1] = 1*
 33: 0x0160 [0x01] GOTO 0x0163

SUBROUTINE_0163:
 34: 0x0163 [0x21] END_EVENT
 35: 0x0164 [0x00] END_REQSTACK()
```

### Event 596

#### Metadata

| Field        | Value     |
|--------------|-----------|
| Entrypoint   | 0x0165    |
| Data Size    | 148 bytes |
| Instructions | 36        |

```
      00 01 02 03 04 05 06 07  08 09 0A 0B 0C 0D 0E 0F
      -- -- -- -- -- -- -- --  -- -- -- -- -- -- -- --
0160:                1E F0 FF  FF 7F 6F 70 66 0F 80 F8       .....opf...
0170: FF FF 7F F8 FF FF 7F 74  6C 6B 30 1D 17 80 23 1C  .......tlk0...#.
0180: 0F 80 1D 18 80 23 5E 69  64 6C 30 24 12 80 03 80  .....#^idl0$....
0190: 00 80 25 02 00 10 00 80  00 CC 01 66 0F 80 F8 FF  ..%........f....
01A0: FF 7F F8 FF FF 7F 74 6C  6B 30 1D 13 80 23 1C 0F  ......tlk0...#..
01B0: 80 1D 14 80 23 1C 0F 80  1D 15 80 23 5E 69 64 6C  ....#......#^idl
01C0: 30 1C 0F 80 03 01 10 00  80 01 F7 01 02 00 10 03  0...............
01D0: 80 00 F7 01 66 0F 80 F8  FF FF 7F F8 FF FF 7F 74  ....f..........t
01E0: 6C 6B 30 1D 16 80 23 5E  69 64 6C 30 1C 0F 80 03  lk0...#^idl0....
01F0: 01 10 03 80 01 F7 01 21  00                       .......!.       
```

#### Opcodes

```
  0: 0x0165 [0x1E] EventEntity looks at LocalPlayer and starts talking
  1: 0x016A [0x6F] WAIT_FRAME_DELAY: Yield until WaitTime reaches zero
  2: 0x016B [0x70] WAIT_ENTITY_RENDER_FLAG: Wait while EventEntity->Render.Flags3 bit 2 is set (cancel turn if not)
  3: 0x016C [0x66] LOAD_EXT_SCHEDULER_MAIN: Load scheduler "tlk0" with entities [EventEntity, EventEntity], work=30*
  4: 0x017B [0x1D] PRINT_EVENT_MESSAGE(message_id=170*)
    → "The San d'Oria residential area is ahead. You'll find your Mog House within."
  5: 0x017E [0x23] WAIT_FOR_DIALOG_INTERACTION
  6: 0x017F [0x1C] WAIT(30* ticks)
  7: 0x0182 [0x1D] PRINT_EVENT_MESSAGE(message_id=171*)
    → "Would you like to hear about Mog Houses again?"
  8: 0x0185 [0x23] WAIT_FOR_DIALOG_INTERACTION
  9: 0x0186 [0x5E] EventEntity goes idle (kills current action) (animation: "idl0")
 10: 0x018B [0x24] CREATE_DIALOG(message_id=166*, default_option=1*, option_flags=0*)
    → "Care to learn about Mog Houses? [Sure!/No, thanks.]"
 11: 0x0192 [0x25] WAIT_DIALOG_SELECT()
 12: 0x0193 [0x02] IF !(Work_Zone[0] == 0*) GOTO 0x01CC
 13: 0x019B [0x66] LOAD_EXT_SCHEDULER_MAIN: Load scheduler "tlk0" with entities [EventEntity, EventEntity], work=30*
 14: 0x01AA [0x1D] PRINT_EVENT_MESSAGE(message_id=167*)
    → "Mog Houses are useful places. You can recover your HP and MP, and store items there."
 15: 0x01AD [0x23] WAIT_FOR_DIALOG_INTERACTION
 16: 0x01AE [0x1C] WAIT(30* ticks)
 17: 0x01B1 [0x1D] PRINT_EVENT_MESSAGE(message_id=168*)
    → "You can also change jobs there. All adventurers of San d'Orian citizenship are assigned a Mog House."
 18: 0x01B4 [0x23] WAIT_FOR_DIALOG_INTERACTION
 19: 0x01B5 [0x1C] WAIT(30* ticks)
 20: 0x01B8 [0x1D] PRINT_EVENT_MESSAGE(message_id=169*)
    → "Make yourself at home!"
 21: 0x01BB [0x23] WAIT_FOR_DIALOG_INTERACTION
 22: 0x01BC [0x5E] EventEntity goes idle (kills current action) (animation: "idl0")
 23: 0x01C1 [0x1C] WAIT(30* ticks)
 24: 0x01C4 [0x03] Work_Zone[1] = 0*
 25: 0x01C9 [0x01] GOTO 0x01F7
 26: 0x01CC [0x02] IF !(Work_Zone[0] == 1*) GOTO 0x01F7
 27: 0x01D4 [0x66] LOAD_EXT_SCHEDULER_MAIN: Load scheduler "tlk0" with entities [EventEntity, EventEntity], work=30*
 28: 0x01E3 [0x1D] PRINT_EVENT_MESSAGE(message_id=172*)
    → "Hmm... So be it."
 29: 0x01E6 [0x23] WAIT_FOR_DIALOG_INTERACTION
 30: 0x01E7 [0x5E] EventEntity goes idle (kills current action) (animation: "idl0")
 31: 0x01EC [0x1C] WAIT(30* ticks)
 32: 0x01EF [0x03] Work_Zone[1] = 1*
 33: 0x01F4 [0x01] GOTO 0x01F7

SUBROUTINE_01F7:
 34: 0x01F7 [0x21] END_EVENT
 35: 0x01F8 [0x00] END_REQSTACK()
```

### Event 595

#### Metadata

| Field        | Value     |
|--------------|-----------|
| Entrypoint   | 0x01F9    |
| Data Size    | 149 bytes |
| Instructions | 37        |

```
      00 01 02 03 04 05 06 07  08 09 0A 0B 0C 0D 0E 0F
      -- -- -- -- -- -- -- --  -- -- -- -- -- -- -- --
01F0:                             1E F0 FF FF 7F 6F 70           .....op
0200: 66 0F 80 F8 FF FF 7F F8  FF FF 7F 74 6C 6B 30 1D  f..........tlk0.
0210: 19 80 23 1C 0F 80 1D 1A  80 23 1C 0F 80 1D 1B 80  ..#......#......
0220: 23 5E 69 64 6C 30 24 1C  80 00 80 00 80 25 02 00  #^idl0$......%..
0230: 10 00 80 00 61 02 42 66  0F 80 F8 FF FF 7F F8 FF  ....a.Bf........
0240: FF 7F 74 6C 6B 30 1D 1D  80 23 1C 0F 80 1D 1E 80  ..tlk0...#......
0250: 23 5E 69 64 6C 30 1C 0F  80 03 01 10 00 80 01 8C  #^idl0..........
0260: 02 02 00 10 03 80 00 8C  02 66 0F 80 F8 FF FF 7F  .........f......
0270: F8 FF FF 7F 74 6C 6B 30  1D 16 80 23 5E 69 64 6C  ....tlk0...#^idl
0280: 30 1C 0F 80 03 01 10 03  80 01 8C 02 21 00        0...........!.  
```

#### Opcodes

```
  0: 0x01F9 [0x1E] EventEntity looks at LocalPlayer and starts talking
  1: 0x01FE [0x6F] WAIT_FRAME_DELAY: Yield until WaitTime reaches zero
  2: 0x01FF [0x70] WAIT_ENTITY_RENDER_FLAG: Wait while EventEntity->Render.Flags3 bit 2 is set (cancel turn if not)
  3: 0x0200 [0x66] LOAD_EXT_SCHEDULER_MAIN: Load scheduler "tlk0" with entities [EventEntity, EventEntity], work=30*
  4: 0x020F [0x1D] PRINT_EVENT_MESSAGE(message_id=173*)
    → "Ahead lies the residential area. You'll find your Mog House within."
  5: 0x0212 [0x23] WAIT_FOR_DIALOG_INTERACTION
  6: 0x0213 [0x1C] WAIT(30* ticks)
  7: 0x0216 [0x1D] PRINT_EVENT_MESSAGE(message_id=174*)
    → "By the way, my records indicate that you're renting a room in [San d'Oria/Bastok/Windurst/Jeuno/Kazham/Rabao/Norg/Al Zahbi]."
  8: 0x0219 [0x23] WAIT_FOR_DIALOG_INTERACTION
  9: 0x021A [0x1C] WAIT(30* ticks)
 10: 0x021D [0x1D] PRINT_EVENT_MESSAGE(message_id=175*)
    → "Would you like to check out of the room in [San d'Oria/Bastok/Windurst/Jeuno/Kazham/Rabao/Norg/Al Zahbi] and move your things back here?"
 11: 0x0220 [0x23] WAIT_FOR_DIALOG_INTERACTION
 12: 0x0221 [0x5E] EventEntity goes idle (kills current action) (animation: "idl0")
 13: 0x0226 [0x24] CREATE_DIALOG(message_id=176*, default_option=0*, option_flags=0*)
    → "Move back to San d'Oria? [Yes, please./No, not yet.]"
 14: 0x022D [0x25] WAIT_DIALOG_SELECT()
 15: 0x022E [0x02] IF !(Work_Zone[0] == 0*) GOTO 0x0261
 16: 0x0236 [0x42] SET_CLI_EVENT_CANCEL_DATA()
 17: 0x0237 [0x66] LOAD_EXT_SCHEDULER_MAIN: Load scheduler "tlk0" with entities [EventEntity, EventEntity], work=30*
 18: 0x0246 [0x1D] PRINT_EVENT_MESSAGE(message_id=177*)
    → "It is done. We've checked you out of your Rent-a-Room in [San d'Oria/Bastok/Windurst/Jeuno/Kazham/Rabao/Norg/Al Zahbi]."
 19: 0x0249 [0x23] WAIT_FOR_DIALOG_INTERACTION
 20: 0x024A [0x1C] WAIT(30* ticks)
 21: 0x024D [0x1D] PRINT_EVENT_MESSAGE(message_id=178*)
    → "All your belongings should be waiting for you inside. Those moogles are amazing creatures, are they not?"
 22: 0x0250 [0x23] WAIT_FOR_DIALOG_INTERACTION
 23: 0x0251 [0x5E] EventEntity goes idle (kills current action) (animation: "idl0")
 24: 0x0256 [0x1C] WAIT(30* ticks)
 25: 0x0259 [0x03] Work_Zone[1] = 0*
 26: 0x025E [0x01] GOTO 0x028C
 27: 0x0261 [0x02] IF !(Work_Zone[0] == 1*) GOTO 0x028C
 28: 0x0269 [0x66] LOAD_EXT_SCHEDULER_MAIN: Load scheduler "tlk0" with entities [EventEntity, EventEntity], work=30*
 29: 0x0278 [0x1D] PRINT_EVENT_MESSAGE(message_id=172*)
    → "Hmm... So be it."
 30: 0x027B [0x23] WAIT_FOR_DIALOG_INTERACTION
 31: 0x027C [0x5E] EventEntity goes idle (kills current action) (animation: "idl0")
 32: 0x0281 [0x1C] WAIT(30* ticks)
 33: 0x0284 [0x03] Work_Zone[1] = 1*
 34: 0x0289 [0x01] GOTO 0x028C

SUBROUTINE_028C:
 35: 0x028C [0x21] END_EVENT
 36: 0x028D [0x00] END_REQSTACK()
```

### Event 597

#### Metadata

| Field        | Value    |
|--------------|----------|
| Entrypoint   | 0x028E   |
| Data Size    | 43 bytes |
| Instructions | 13       |

```
      00 01 02 03 04 05 06 07  08 09 0A 0B 0C 0D 0E 0F
      -- -- -- -- -- -- -- --  -- -- -- -- -- -- -- --
0280:                                            1E F0                ..
0290: FF FF 7F 6F 70 66 0F 80  F8 FF FF 7F F8 FF FF 7F  ...opf..........
02A0: 74 6C 6B 30 1D 1F 80 23  1C 0F 80 1D 20 80 23 5E  tlk0...#.... .#^
02B0: 69 64 6C 30 1C 0F 80 21  00                       idl0...!.       
```

#### Opcodes

```
  0: 0x028E [0x1E] EventEntity looks at LocalPlayer and starts talking
  1: 0x0293 [0x6F] WAIT_FRAME_DELAY: Yield until WaitTime reaches zero
  2: 0x0294 [0x70] WAIT_ENTITY_RENDER_FLAG: Wait while EventEntity->Render.Flags3 bit 2 is set (cancel turn if not)
  3: 0x0295 [0x66] LOAD_EXT_SCHEDULER_MAIN: Load scheduler "tlk0" with entities [EventEntity, EventEntity], work=30*
  4: 0x02A4 [0x1D] PRINT_EVENT_MESSAGE(message_id=179*)
    → "Ahead lies the residential area. Proceed to your Rent-a-Room, foreigner!"
  5: 0x02A7 [0x23] WAIT_FOR_DIALOG_INTERACTION
  6: 0x02A8 [0x1C] WAIT(30* ticks)
  7: 0x02AB [0x1D] PRINT_EVENT_MESSAGE(message_id=180*)
    → "If you're already renting here, you may come and go as you please, like the Mog House in your homeland."
  8: 0x02AE [0x23] WAIT_FOR_DIALOG_INTERACTION
  9: 0x02AF [0x5E] EventEntity goes idle (kills current action) (animation: "idl0")
 10: 0x02B4 [0x1C] WAIT(30* ticks)
 11: 0x02B7 [0x21] END_EVENT
 12: 0x02B8 [0x00] END_REQSTACK()
```

### Event 598

#### Metadata

| Field        | Value     |
|--------------|-----------|
| Entrypoint   | 0x02B9    |
| Data Size    | 142 bytes |
| Instructions | 34        |

```
      00 01 02 03 04 05 06 07  08 09 0A 0B 0C 0D 0E 0F
      -- -- -- -- -- -- -- --  -- -- -- -- -- -- -- --
02B0:                             1E F0 FF FF 7F 6F 70           .....op
02C0: 66 0F 80 F8 FF FF 7F F8  FF FF 7F 74 6C 6B 30 1D  f..........tlk0.
02D0: 21 80 23 1C 0F 80 1D 22  80 23 1C 0F 80 1D 23 80  !.#....".#....#.
02E0: 23 5E 69 64 6C 30 24 24  80 00 80 00 80 25 02 00  #^idl0$$.....%..
02F0: 10 00 80 00 1A 03 42 66  0F 80 F8 FF FF 7F F8 FF  ......Bf........
0300: FF 7F 74 6C 6B 30 1D 25  80 23 5E 69 64 6C 30 1C  ..tlk0.%.#^idl0.
0310: 0F 80 03 01 10 00 80 01  45 03 02 00 10 03 80 00  ........E.......
0320: 45 03 66 0F 80 F8 FF FF  7F F8 FF FF 7F 74 6C 6B  E.f..........tlk
0330: 30 1D 16 80 23 5E 69 64  6C 30 1C 0F 80 03 01 10  0...#^idl0......
0340: 03 80 01 45 03 21 00                              ...E.!.         
```

#### Opcodes

```
  0: 0x02B9 [0x1E] EventEntity looks at LocalPlayer and starts talking
  1: 0x02BE [0x6F] WAIT_FRAME_DELAY: Yield until WaitTime reaches zero
  2: 0x02BF [0x70] WAIT_ENTITY_RENDER_FLAG: Wait while EventEntity->Render.Flags3 bit 2 is set (cancel turn if not)
  3: 0x02C0 [0x66] LOAD_EXT_SCHEDULER_MAIN: Load scheduler "tlk0" with entities [EventEntity, EventEntity], work=30*
  4: 0x02CF [0x1D] PRINT_EVENT_MESSAGE(message_id=181*)
    → "Ahead lies the residential area."
  5: 0x02D2 [0x23] WAIT_FOR_DIALOG_INTERACTION
  6: 0x02D3 [0x1C] WAIT(30* ticks)
  7: 0x02D6 [0x1D] PRINT_EVENT_MESSAGE(message_id=182*)
    → "Wait! By law, all foreigners must lease a Rent-a-Room before entering the residential area!"
  8: 0x02D9 [0x23] WAIT_FOR_DIALOG_INTERACTION
  9: 0x02DA [0x1C] WAIT(30* ticks)
 10: 0x02DD [0x1D] PRINT_EVENT_MESSAGE(message_id=183*)
    → "Once you've registered with us, you can use it as you would a Mog House back home, wherever that may be."
 11: 0x02E0 [0x23] WAIT_FOR_DIALOG_INTERACTION
 12: 0x02E1 [0x5E] EventEntity goes idle (kills current action) (animation: "idl0")
 13: 0x02E6 [0x24] CREATE_DIALOG(message_id=184*, default_option=0*, option_flags=0*)
    → "Will you stay in San d'Oria? [Yes./No, I'd rather not.]"
 14: 0x02ED [0x25] WAIT_DIALOG_SELECT()
 15: 0x02EE [0x02] IF !(Work_Zone[0] == 0*) GOTO 0x031A
 16: 0x02F6 [0x42] SET_CLI_EVENT_CANCEL_DATA()
 17: 0x02F7 [0x66] LOAD_EXT_SCHEDULER_MAIN: Load scheduler "tlk0" with entities [EventEntity, EventEntity], work=30*
 18: 0x0306 [0x1D] PRINT_EVENT_MESSAGE(message_id=185*)
    → "All right, then. A San d'Orian Rent-a-Room has been leased to your name. Now move along, foreigner!"
 19: 0x0309 [0x23] WAIT_FOR_DIALOG_INTERACTION
 20: 0x030A [0x5E] EventEntity goes idle (kills current action) (animation: "idl0")
 21: 0x030F [0x1C] WAIT(30* ticks)
 22: 0x0312 [0x03] Work_Zone[1] = 0*
 23: 0x0317 [0x01] GOTO 0x0345
 24: 0x031A [0x02] IF !(Work_Zone[0] == 1*) GOTO 0x0345
 25: 0x0322 [0x66] LOAD_EXT_SCHEDULER_MAIN: Load scheduler "tlk0" with entities [EventEntity, EventEntity], work=30*
 26: 0x0331 [0x1D] PRINT_EVENT_MESSAGE(message_id=172*)
    → "Hmm... So be it."
 27: 0x0334 [0x23] WAIT_FOR_DIALOG_INTERACTION
 28: 0x0335 [0x5E] EventEntity goes idle (kills current action) (animation: "idl0")
 29: 0x033A [0x1C] WAIT(30* ticks)
 30: 0x033D [0x03] Work_Zone[1] = 1*
 31: 0x0342 [0x01] GOTO 0x0345

SUBROUTINE_0345:
 32: 0x0345 [0x21] END_EVENT
 33: 0x0346 [0x00] END_REQSTACK()
```
