# 17723406 - Arnau

## Common Data

| Field            | Value                         |
|------------------|-------------------------------|
| Zone             | Northern San d'Oria (ID: 231) |
| Block Size       | 2964 bytes                    |
| Total Events     | 37                            |
| References Count | 54                            |

## List of Events

| Event ID                   | Entrypoint   |   Size |   Instructions |
|----------------------------|--------------|--------|----------------|
| [65535](#event-65535)      | 0x0000       |      1 |              1 |
| [38](#event-38)            | 0x0001       |      1 |              1 |
| [51](#event-51)            | 0x0002       |      7 |              2 |
| [20](#event-20)            | 0x0009       |     25 |             13 |
| [4](#event-4)              | 0x0022       |     20 |             10 |
| [3](#event-3)              | 0x0036       |     24 |             12 |
| [2](#event-2)              | 0x004E       |     63 |             13 |
| [520](#event-520)          | 0x008D       |     59 |             11 |
| [589](#event-589)          | 0x00C8       |      1 |              1 |
| [583](#event-583)          | 0x00C9       |      7 |              3 |
| [65535.1](#event-655351)   | 0x00D0       |     16 |              2 |
| [65535.2](#event-655352)   | 0x00E0       |     14 |              2 |
| [65535.3](#event-655353)   | 0x00EE       |     16 |              2 |
| [65535.4](#event-655354)   | 0x00FE       |     14 |              2 |
| [65535.5](#event-655355)   | 0x010C       |     16 |              2 |
| [65535.6](#event-655356)   | 0x011C       |     14 |              2 |
| [693](#event-693)          | 0x012A       |   1714 |            188 |
| [65535.7](#event-655357)   | 0x07DC       |     14 |              4 |
| [65535.8](#event-655358)   | 0x07EA       |      5 |              3 |
| [65535.9](#event-655359)   | 0x07EF       |      5 |              3 |
| [65535.10](#event-6553510) | 0x07F4       |      5 |              3 |
| [65535.11](#event-6553511) | 0x07F9       |      5 |              3 |
| [65535.12](#event-6553512) | 0x07FE       |      5 |              3 |
| [65535.13](#event-6553513) | 0x0803       |      5 |              3 |
| [65535.14](#event-6553514) | 0x0808       |      5 |              3 |
| [65535.15](#event-6553515) | 0x080D       |      5 |              3 |
| [65535.16](#event-6553516) | 0x0812       |      5 |              3 |
| [65535.17](#event-6553517) | 0x0817       |      5 |              3 |
| [65535.18](#event-6553518) | 0x081C       |      5 |              3 |
| [65535.19](#event-6553519) | 0x0821       |      5 |              3 |
| [694](#event-694)          | 0x0826       |    462 |             55 |
| [65535.20](#event-6553520) | 0x09F4       |      5 |              3 |
| [65535.21](#event-6553521) | 0x09F9       |      5 |              3 |
| [65535.22](#event-6553522) | 0x09FE       |      5 |              3 |
| [16](#event-16)            | 0x0A03       |     18 |              4 |
| [869](#event-869)          | 0x0A15       |      1 |              1 |
| [870](#event-870)          | 0x0A16       |      1 |              1 |

## DAT References (imed_data)

|   Index | Hex Value   |   Dec Value |
|---------|-------------|-------------|
|       0 | 0x3411      |       13329 |
|       1 | 0x3412      |       13330 |
|       2 | 0x3413      |       13331 |
|       3 | 0x3410      |       13328 |
|       4 | 0x3295      |       12949 |
|       5 | 0x3296      |       12950 |
|       6 | 0x001E      |          30 |
|       7 | 0x32CB      |       13003 |
|       8 | 0x32CC      |       13004 |
|       9 | 0x32CD      |       13005 |
|      10 | 0x32E1      |       13025 |
|      11 | 0x0015      |          21 |
|      12 | 0x32E2      |       13026 |
|      13 | 0x2C02      |       11266 |
|      14 | 0x00C8      |         200 |
|      15 | 0x0000      |           0 |
|      16 | 0x003C      |          60 |
|      17 | 0x0013      |          19 |
|      18 | 0x0029      |          41 |
|      19 | 0x007F      |         127 |
|      20 | 0x0001      |           1 |
|      21 | 0x0E53      |        3667 |
|      22 | 0x0005      |           5 |
|      23 | 0x000A      |          10 |
|      24 | 0x0064      |         100 |
|      25 | 0x011D      |         285 |
|      26 | 0x0003      |           3 |
|      27 | 0x0004      |           4 |
|      28 | 0x0006      |           6 |
|      29 | 0x0008      |           8 |
|      30 | 0x005A      |          90 |
|      31 | 0x006B      |         107 |
|      32 | 0x000D      |          13 |
|      33 | 0x23F7F     |      147327 |
|      34 | 0x21F60     |      139104 |
|      35 | 0x3106      |       12550 |
|      36 | 0x3107      |       12551 |
|      37 | 0x3108      |       12552 |
|      38 | 0x3109      |       12553 |
|      39 | 0x310A      |       12554 |
|      40 | 0x310B      |       12555 |
|      41 | 0x310C      |       12556 |
|      42 | 0x310D      |       12557 |
|      43 | 0x310E      |       12558 |
|      44 | 0x3113      |       12563 |
|      45 | 0x3115      |       12565 |
|      46 | 0x3117      |       12567 |
|      47 | 0x007C      |         124 |
|      48 | 0x311B      |       12571 |
|      49 | 0x311D      |       12573 |
|      50 | 0x311E      |       12574 |
|      51 | 0x1F2C0     |      127680 |
|      52 | 0x1E4F8     |      124152 |
|      53 | 0x01F5      |         501 |

## String References

- **11266**: I shall begin shortly. Should you have questions, kindly beseech the friar at the narthex.
- **12550**: Oh, an adventurer. If you are here for the sermon on the Gates of Paradise, beseech the friar standing at the narthex.
- **12551**: You say you came on behalf of the Temple Knights? And you want to know about Tedimout?
- **12552**: Why, may Altana bless thee! Yes, Tedimout was a friar in training.
- **12553**: Oft would he enter the woods of Ronfaure, in search of wild herbs for the making of tea and medicines.
- **12554**: Ever did I warn him against going alone, for the trees can hide predators...and worse!
- **12555**: He claimed that the blue robes of the clergy would protect him.
- **12556**: But it seems his faith was ill-placed. I fear that Orcs took him!
- **12557**: The horror he must be facing now... Each morning and night I pray to the Goddess of the Dawn to deliver him from their clutches!
- **12558**: Why, Prince Pieuje! And, Papsque Shamonde!
- **12563**: I understand, of course. However... If it were true that Tedimout did happen to be kidnapped by Orcs, surely we could not simply let him die?
- **12565**: I understand, Your Highness. I am very thankful.
- **12567**: Your Highness, <Player> is here on errand from the knight at the gatehouse. [He/She] came to ask about Tedimout.
- **12571**: You have my eternal thanks for saving Tedimout!
- **12573**: All I can do is pray for adventurers. Please, let me pray for you, too.
- **12574**: May light shine upon thy path, and may the Gates of Paradise open to you!
- **12949**: Currently, the cathedral is conducting preparations for the Rites of Succession. If it were not for the outbreak at the coming-of-age ceremony, the services of the Temple Knights would not have been necessary...
- **12950**: The responsibility of conducting such an important event has taken its toll on all of us here. Even His Holiness has been on edge as of late.
- **13003**: Was it our lack of faith that brought this time of despair upon us?
- **13004**: The papsque is currently being held at the Chateau d'Oraguille for questioning on the matters at hand. I have never seen His Holiness so disturbed...
- **13005**: Other than those who attended, none know of what took place at the Rites of Succession. However, I must be strong, as not to bring worry upon the members of our faith.
- **13025**: The papsque has returned from Chateau d'Oraguille and will now pay penitence for his sins. He will be allowed to perform his normal duties, however, a Temple Knight escort will accompany him when leaving the cathedral.
- **13026**: Perhaps the time to reconsider the role of the Gates to Paradise is upon us. May the knowledge of the papsque's sins guide us to a better path.
- **13328**: It is the lifework of our missionaries to enlighten. May they lead you in the direction of truth...
- **13329**: Before the Great War, when the former papsque, Muchavatte P Couchiret, was still with us...
- **13330**: During his time, we believed that the Gates of Paradise were hidden somewhere within the reach of mortal man.
- **13331**: The Royal Knight you search for, Francmage M Mistalle, joined the Multinational Expedition thirty years ago to search for the truth behind that belief. And it is because of that very search...

## Events

### Event 65535

#### Metadata

| Field        | Value   |
|--------------|---------|
| Entrypoint   | 0x0000  |
| Data Size    | 1 bytes |
| Instructions | 1       |

```
      00 01 02 03 04 05 06 07  08 09 0A 0B 0C 0D 0E 0F
      -- -- -- -- -- -- -- --  -- -- -- -- -- -- -- --
0000: 00                                                .               
```

#### Opcodes

```
  0: 0x0000 [0x00] END_REQSTACK()
```

### Event 38

#### Metadata

| Field        | Value   |
|--------------|---------|
| Entrypoint   | 0x0001  |
| Data Size    | 1 bytes |
| Instructions | 1       |

```
      00 01 02 03 04 05 06 07  08 09 0A 0B 0C 0D 0E 0F
      -- -- -- -- -- -- -- --  -- -- -- -- -- -- -- --
0000:    00                                              .              
```

#### Opcodes

```
  0: 0x0001 [0x00] END_REQSTACK()
```

### Event 51

#### Metadata

| Field        | Value   |
|--------------|---------|
| Entrypoint   | 0x0002  |
| Data Size    | 7 bytes |
| Instructions | 2       |

```
      00 01 02 03 04 05 06 07  08 09 0A 0B 0C 0D 0E 0F
      -- -- -- -- -- -- -- --  -- -- -- -- -- -- -- --
0000:       94 00 F8 FF FF 7F  00                         .......       
```

#### Opcodes

```
  0: 0x0002 [0x94] EventEntity->Render.Flags3 = Flags3  // No change (flag=0)
  1: 0x0008 [0x00] END_REQSTACK()
```

### Event 20

#### Metadata

| Field        | Value    |
|--------------|----------|
| Entrypoint   | 0x0009   |
| Data Size    | 25 bytes |
| Instructions | 13       |

```
      00 01 02 03 04 05 06 07  08 09 0A 0B 0C 0D 0E 0F
      -- -- -- -- -- -- -- --  -- -- -- -- -- -- -- --
0000:                             1E F0 FF FF 7F 6F 70           .....op
0010: 1D 00 80 23 1D 01 80 23  1D 02 80 23 1D 03 80 23  ...#...#...#...#
0020: 21 00                                             !.              
```

#### Opcodes

```
  0: 0x0009 [0x1E] EventEntity looks at LocalPlayer and starts talking
  1: 0x000E [0x6F] WAIT_FRAME_DELAY: Yield until WaitTime reaches zero
  2: 0x000F [0x70] WAIT_ENTITY_RENDER_FLAG: Wait while EventEntity->Render.Flags3 bit 2 is set (cancel turn if not)
  3: 0x0010 [0x1D] PRINT_EVENT_MESSAGE(message_id=13329*)
    → "Before the Great War, when the former papsque, Muchavatte P Couchiret, was still with us..."
  4: 0x0013 [0x23] WAIT_FOR_DIALOG_INTERACTION
  5: 0x0014 [0x1D] PRINT_EVENT_MESSAGE(message_id=13330*)
    → "During his time, we believed that the Gates of Paradise were hidden somewhere within the reach of mortal man."
  6: 0x0017 [0x23] WAIT_FOR_DIALOG_INTERACTION
  7: 0x0018 [0x1D] PRINT_EVENT_MESSAGE(message_id=13331*)
    → "The Royal Knight you search for, Francmage M Mistalle, joined the Multinational Expedition thirty years ago to search for the truth behind that belief. And it is because of that very search..."
  8: 0x001B [0x23] WAIT_FOR_DIALOG_INTERACTION
  9: 0x001C [0x1D] PRINT_EVENT_MESSAGE(message_id=13328*)
    → "It is the lifework of our missionaries to enlighten. May they lead you in the direction of truth..."
 10: 0x001F [0x23] WAIT_FOR_DIALOG_INTERACTION
 11: 0x0020 [0x21] END_EVENT
 12: 0x0021 [0x00] END_REQSTACK()
```

### Event 4

#### Metadata

| Field        | Value    |
|--------------|----------|
| Entrypoint   | 0x0022   |
| Data Size    | 20 bytes |
| Instructions | 10       |

```
      00 01 02 03 04 05 06 07  08 09 0A 0B 0C 0D 0E 0F
      -- -- -- -- -- -- -- --  -- -- -- -- -- -- -- --
0020:       1E F0 FF FF 7F 6F  70 1D 04 80 23 1D 05 80    .....op...#...
0030: 23 1C 06 80 21 00                                 #...!.          
```

#### Opcodes

```
  0: 0x0022 [0x1E] EventEntity looks at LocalPlayer and starts talking
  1: 0x0027 [0x6F] WAIT_FRAME_DELAY: Yield until WaitTime reaches zero
  2: 0x0028 [0x70] WAIT_ENTITY_RENDER_FLAG: Wait while EventEntity->Render.Flags3 bit 2 is set (cancel turn if not)
  3: 0x0029 [0x1D] PRINT_EVENT_MESSAGE(message_id=12949*)
    → "Currently, the cathedral is conducting preparations for the Rites of Succession. If it were not for the outbreak at the coming-of-age ceremony, the services of the Temple Knights would not have been necessary..."
  4: 0x002C [0x23] WAIT_FOR_DIALOG_INTERACTION
  5: 0x002D [0x1D] PRINT_EVENT_MESSAGE(message_id=12950*)
    → "The responsibility of conducting such an important event has taken its toll on all of us here. Even His Holiness has been on edge as of late."
  6: 0x0030 [0x23] WAIT_FOR_DIALOG_INTERACTION
  7: 0x0031 [0x1C] WAIT(30* ticks)
  8: 0x0034 [0x21] END_EVENT
  9: 0x0035 [0x00] END_REQSTACK()
```

### Event 3

#### Metadata

| Field        | Value    |
|--------------|----------|
| Entrypoint   | 0x0036   |
| Data Size    | 24 bytes |
| Instructions | 12       |

```
      00 01 02 03 04 05 06 07  08 09 0A 0B 0C 0D 0E 0F
      -- -- -- -- -- -- -- --  -- -- -- -- -- -- -- --
0030:                   1E F0  FF FF 7F 6F 70 1D 07 80        .....op...
0040: 23 1D 08 80 23 1D 09 80  23 1C 06 80 21 00        #...#...#...!.  
```

#### Opcodes

```
  0: 0x0036 [0x1E] EventEntity looks at LocalPlayer and starts talking
  1: 0x003B [0x6F] WAIT_FRAME_DELAY: Yield until WaitTime reaches zero
  2: 0x003C [0x70] WAIT_ENTITY_RENDER_FLAG: Wait while EventEntity->Render.Flags3 bit 2 is set (cancel turn if not)
  3: 0x003D [0x1D] PRINT_EVENT_MESSAGE(message_id=13003*)
    → "Was it our lack of faith that brought this time of despair upon us?"
  4: 0x0040 [0x23] WAIT_FOR_DIALOG_INTERACTION
  5: 0x0041 [0x1D] PRINT_EVENT_MESSAGE(message_id=13004*)
    → "The papsque is currently being held at the Chateau d'Oraguille for questioning on the matters at hand. I have never seen His Holiness so disturbed..."
  6: 0x0044 [0x23] WAIT_FOR_DIALOG_INTERACTION
  7: 0x0045 [0x1D] PRINT_EVENT_MESSAGE(message_id=13005*)
    → "Other than those who attended, none know of what took place at the Rites of Succession. However, I must be strong, as not to bring worry upon the members of our faith."
  8: 0x0048 [0x23] WAIT_FOR_DIALOG_INTERACTION
  9: 0x0049 [0x1C] WAIT(30* ticks)
 10: 0x004C [0x21] END_EVENT
 11: 0x004D [0x00] END_REQSTACK()
```

### Event 2

#### Metadata

| Field        | Value    |
|--------------|----------|
| Entrypoint   | 0x004E   |
| Data Size    | 63 bytes |
| Instructions | 13       |

```
      00 01 02 03 04 05 06 07  08 09 0A 0B 0C 0D 0E 0F
      -- -- -- -- -- -- -- --  -- -- -- -- -- -- -- --
0040:                                            1E F0                ..
0050: FF FF 7F 6F 70 1D 0A 80  23 5B 0B 80 F8 FF FF 7F  ...op...#[......
0060: F8 FF FF 7F 74 6C 6B 30  1D 0C 80 23 5B 0B 80 F8  ....tlk0...#[...
0070: FF FF 7F F8 FF FF 7F 74  6C 6B 31 53 F8 FF FF 7F  .......tlk1S....
0080: F8 FF FF 7F 74 6C 6B 31  1C 06 80 21 00           ....tlk1...!.   
```

#### Opcodes

```
  0: 0x004E [0x1E] EventEntity looks at LocalPlayer and starts talking
  1: 0x0053 [0x6F] WAIT_FRAME_DELAY: Yield until WaitTime reaches zero
  2: 0x0054 [0x70] WAIT_ENTITY_RENDER_FLAG: Wait while EventEntity->Render.Flags3 bit 2 is set (cancel turn if not)
  3: 0x0055 [0x1D] PRINT_EVENT_MESSAGE(message_id=13025*)
    → "The papsque has returned from Chateau d'Oraguille and will now pay penitence for his sins. He will be allowed to perform his normal duties, however, a Temple Knight escort will accompany him when leaving the cathedral."
  4: 0x0058 [0x23] WAIT_FOR_DIALOG_INTERACTION
  5: 0x0059 [0x5B] LOAD_EXT_SCHEDULER: Load scheduler "tlk0" with entities [EventEntity, EventEntity], work=21*
  6: 0x0068 [0x1D] PRINT_EVENT_MESSAGE(message_id=13026*)
    → "Perhaps the time to reconsider the role of the Gates to Paradise is upon us. May the knowledge of the papsque's sins guide us to a better path."
  7: 0x006B [0x23] WAIT_FOR_DIALOG_INTERACTION
  8: 0x006C [0x5B] LOAD_EXT_SCHEDULER: Load scheduler "tlk1" with entities [EventEntity, EventEntity], work=21*
  9: 0x007B [0x53] WAIT_SCHEDULER_TASK: Wait for scheduler "tlk1" with entities [EventEntity, EventEntity]
 10: 0x0088 [0x1C] WAIT(30* ticks)
 11: 0x008B [0x21] END_EVENT
 12: 0x008C [0x00] END_REQSTACK()
```

### Event 520

#### Metadata

| Field        | Value    |
|--------------|----------|
| Entrypoint   | 0x008D   |
| Data Size    | 59 bytes |
| Instructions | 11       |

```
      00 01 02 03 04 05 06 07  08 09 0A 0B 0C 0D 0E 0F
      -- -- -- -- -- -- -- --  -- -- -- -- -- -- -- --
0080:                                         1E F0 FF               ...
0090: FF 7F 6F 70 5B 0B 80 F8  FF FF 7F F8 FF FF 7F 74  ..op[..........t
00A0: 6C 6B 30 1D 0D 80 23 5B  0B 80 F8 FF FF 7F F8 FF  lk0...#[........
00B0: FF 7F 74 6C 6B 31 53 F8  FF FF 7F F8 FF FF 7F 74  ..tlk1S........t
00C0: 6C 6B 31 1C 06 80 21 00                           lk1...!.        
```

#### Opcodes

```
  0: 0x008D [0x1E] EventEntity looks at LocalPlayer and starts talking
  1: 0x0092 [0x6F] WAIT_FRAME_DELAY: Yield until WaitTime reaches zero
  2: 0x0093 [0x70] WAIT_ENTITY_RENDER_FLAG: Wait while EventEntity->Render.Flags3 bit 2 is set (cancel turn if not)
  3: 0x0094 [0x5B] LOAD_EXT_SCHEDULER: Load scheduler "tlk0" with entities [EventEntity, EventEntity], work=21*
  4: 0x00A3 [0x1D] PRINT_EVENT_MESSAGE(message_id=11266*)
    → "I shall begin shortly. Should you have questions, kindly beseech the friar at the narthex."
  5: 0x00A6 [0x23] WAIT_FOR_DIALOG_INTERACTION
  6: 0x00A7 [0x5B] LOAD_EXT_SCHEDULER: Load scheduler "tlk1" with entities [EventEntity, EventEntity], work=21*
  7: 0x00B6 [0x53] WAIT_SCHEDULER_TASK: Wait for scheduler "tlk1" with entities [EventEntity, EventEntity]
  8: 0x00C3 [0x1C] WAIT(30* ticks)
  9: 0x00C6 [0x21] END_EVENT
 10: 0x00C7 [0x00] END_REQSTACK()
```

### Event 589

#### Metadata

| Field        | Value   |
|--------------|---------|
| Entrypoint   | 0x00C8  |
| Data Size    | 1 bytes |
| Instructions | 1       |

```
      00 01 02 03 04 05 06 07  08 09 0A 0B 0C 0D 0E 0F
      -- -- -- -- -- -- -- --  -- -- -- -- -- -- -- --
00C0:                          00                               .       
```

#### Opcodes

```
  0: 0x00C8 [0x00] END_REQSTACK()
```

### Event 583

#### Metadata

| Field        | Value   |
|--------------|---------|
| Entrypoint   | 0x00C9  |
| Data Size    | 7 bytes |
| Instructions | 3       |

```
      00 01 02 03 04 05 06 07  08 09 0A 0B 0C 0D 0E 0F
      -- -- -- -- -- -- -- --  -- -- -- -- -- -- -- --
00C0:                             1E F0 FF FF 7F 21 00           .....!.
```

#### Opcodes

```
  0: 0x00C9 [0x1E] EventEntity looks at LocalPlayer and starts talking
  1: 0x00CE [0x21] END_EVENT
  2: 0x00CF [0x00] END_REQSTACK()
```

### Event 65535.1

#### Metadata

| Field        | Value    |
|--------------|----------|
| Entrypoint   | 0x00D0   |
| Data Size    | 16 bytes |
| Instructions | 2        |

```
      00 01 02 03 04 05 06 07  08 09 0A 0B 0C 0D 0E 0F
      -- -- -- -- -- -- -- --  -- -- -- -- -- -- -- --
00D0: 5B 0B 80 F8 FF FF 7F F8  FF FF 7F 74 6C 6B 30 00  [..........tlk0.
```

#### Opcodes

```
  0: 0x00D0 [0x5B] LOAD_EXT_SCHEDULER: Load scheduler "tlk0" with entities [EventEntity, EventEntity], work=21*
  1: 0x00DF [0x00] END_REQSTACK()
```

### Event 65535.2

#### Metadata

| Field        | Value    |
|--------------|----------|
| Entrypoint   | 0x00E0   |
| Data Size    | 14 bytes |
| Instructions | 2        |

```
      00 01 02 03 04 05 06 07  08 09 0A 0B 0C 0D 0E 0F
      -- -- -- -- -- -- -- --  -- -- -- -- -- -- -- --
00E0: 53 F8 FF FF 7F F8 FF FF  7F 74 6C 6B 30 00        S........tlk0.  
```

#### Opcodes

```
  0: 0x00E0 [0x53] WAIT_SCHEDULER_TASK: Wait for scheduler "tlk0" with entities [EventEntity, EventEntity]
  1: 0x00ED [0x00] END_REQSTACK()
```

### Event 65535.3

#### Metadata

| Field        | Value    |
|--------------|----------|
| Entrypoint   | 0x00EE   |
| Data Size    | 16 bytes |
| Instructions | 2        |

```
      00 01 02 03 04 05 06 07  08 09 0A 0B 0C 0D 0E 0F
      -- -- -- -- -- -- -- --  -- -- -- -- -- -- -- --
00E0:                                            5B 0B                [.
00F0: 80 F8 FF FF 7F F8 FF FF  7F 74 6C 6B 31 00        .........tlk1.  
```

#### Opcodes

```
  0: 0x00EE [0x5B] LOAD_EXT_SCHEDULER: Load scheduler "tlk1" with entities [EventEntity, EventEntity], work=21*
  1: 0x00FD [0x00] END_REQSTACK()
```

### Event 65535.4

#### Metadata

| Field        | Value    |
|--------------|----------|
| Entrypoint   | 0x00FE   |
| Data Size    | 14 bytes |
| Instructions | 2        |

```
      00 01 02 03 04 05 06 07  08 09 0A 0B 0C 0D 0E 0F
      -- -- -- -- -- -- -- --  -- -- -- -- -- -- -- --
00F0:                                            53 F8                S.
0100: FF FF 7F F8 FF FF 7F 74  6C 6B 31 00              .......tlk1.    
```

#### Opcodes

```
  0: 0x00FE [0x53] WAIT_SCHEDULER_TASK: Wait for scheduler "tlk1" with entities [EventEntity, EventEntity]
  1: 0x010B [0x00] END_REQSTACK()
```

### Event 65535.5

#### Metadata

| Field        | Value    |
|--------------|----------|
| Entrypoint   | 0x010C   |
| Data Size    | 16 bytes |
| Instructions | 2        |

```
      00 01 02 03 04 05 06 07  08 09 0A 0B 0C 0D 0E 0F
      -- -- -- -- -- -- -- --  -- -- -- -- -- -- -- --
0100:                                      5B 0B 80 F8              [...
0110: FF FF 7F F8 FF FF 7F 69  6E 6F 30 00              .......ino0.    
```

#### Opcodes

```
  0: 0x010C [0x5B] LOAD_EXT_SCHEDULER: Load scheduler "ino0" with entities [EventEntity, EventEntity], work=21*
  1: 0x011B [0x00] END_REQSTACK()
```

### Event 65535.6

#### Metadata

| Field        | Value    |
|--------------|----------|
| Entrypoint   | 0x011C   |
| Data Size    | 14 bytes |
| Instructions | 2        |

```
      00 01 02 03 04 05 06 07  08 09 0A 0B 0C 0D 0E 0F
      -- -- -- -- -- -- -- --  -- -- -- -- -- -- -- --
0110:                                      53 F8 FF FF              S...
0120: 7F F8 FF FF 7F 69 6E 6F  30 00                    .....ino0.      
```

#### Opcodes

```
  0: 0x011C [0x53] WAIT_SCHEDULER_TASK: Wait for scheduler "ino0" with entities [EventEntity, EventEntity]
  1: 0x0129 [0x00] END_REQSTACK()
```

### Event 693

#### Metadata

| Field        | Value      |
|--------------|------------|
| Entrypoint   | 0x012A     |
| Data Size    | 1714 bytes |
| Instructions | 188        |

```
      00 01 02 03 04 05 06 07  08 09 0A 0B 0C 0D 0E 0F
      -- -- -- -- -- -- -- --  -- -- -- -- -- -- -- --
0120:                                42 46 01 45 0E 80            BF.E..
0130: F8 FF FF 7F F8 FF FF 7F  66 64 6F 31 0F 80 1C 10  ........fdo1....
0140: 80 38 11 80 29 08 F0 FF  FF 7F 35 29 0B F0 FF FF  .8..).....5)....
0150: 7F 3E 45 12 80 F8 FF FF  7F F8 FF FF 7F 73 30 30  .>E..........s00
0160: 32 0F 80 45 0E 80 F8 FF  FF 7F F8 FF FF 7F 66 64  2..E..........fd
0170: 69 31 0F 80 29 0B 0E 70  0E 01 12 5D 0F 80 0E 80  i1..)..p...]....
0180: 45 0E 80 F8 FF FF 7F F8  FF FF 7F 66 64 6F 31 0F  E..........fdo1.
0190: 80 1C 0E 80 5C 00 13 80  5C 01 13 80 5D 13 80 14  ....\...\...]...
01A0: 80 52 12 80 F8 FF FF 7F  F8 FF FF 7F 73 30 30 32  .R..........s002
01B0: 45 12 80 F8 FF FF 7F F8  FF FF 7F 73 30 30 30 0F  E..........s000.
01C0: 80 45 0E 80 F8 FF FF 7F  F8 FF FF 7F 66 64 69 31  .E..........fdi1
01D0: 0F 80 29 0B 0E 70 0E 01  13 52 12 80 F8 FF FF 7F  ..)..p...R......
01E0: F8 FF FF 7F 73 30 30 30  45 0E 80 F0 FF FF 7F F0  ....s000E.......
01F0: FF FF 7F 6F 76 6C 31 0F  80 45 12 80 F8 FF FF 7F  ...ovl1..E......
0200: F8 FF FF 7F 73 30 30 33  0F 80 29 0B 0E 70 0E 01  ....s003..)..p..
0210: 14 29 0B 0E 70 0E 01 15  52 12 80 F8 FF FF 7F F8  .)..p...R.......
0220: FF FF 7F 73 30 30 33 45  12 80 F8 FF FF 7F F8 FF  ...s003E........
0230: FF 7F 73 30 30 34 0F 80  79 00 0E 70 0E 01 F0 FF  ..s004..y..p....
0240: FF 7F 29 0B 0E 70 0E 01  16 29 0B 0E 70 0E 01 17  ..)..p...)..p...
0250: 52 12 80 F8 FF FF 7F F8  FF FF 7F 73 30 30 34 45  R..........s004E
0260: 12 80 F8 FF FF 7F F8 FF  FF 7F 73 30 30 35 0F 80  ..........s005..
0270: 7B 0E 70 0E 01 29 0B 0E  70 0E 01 18 52 12 80 F8  {.p..)..p...R...
0280: FF FF 7F F8 FF FF 7F 73  30 30 35 45 0E 80 F0 FF  .......s005E....
0290: FF 7F F0 FF FF 7F 6F 76  6C 31 0F 80 45 12 80 F8  ......ovl1..E...
02A0: FF FF 7F F8 FF FF 7F 73  30 30 39 0F 80 4E 00 03  .......s009..N..
02B0: 70 0E 01 4E 00 10 70 0E  01 4B 0E 70 0E 01 15 80  p..N..p..K.p....
02C0: 29 0B 0E 70 0E 01 19 6F  76 0E 70 0E 01 80 03 70  )..p...ov.p....p
02D0: 0E 01 80 10 70 0E 01 45  0E 80 F8 FF FF 7F F8 FF  ....p..E........
02E0: FF 7F 66 64 6F 31 0F 80  1C 10 80 27 0B 03 70 0E  ..fdo1.....'..p.
02F0: 01 43 27 0B 10 70 0E 01  33 4A 84 70 0E 01 03 70  .C'..p..3J.p...p
0300: 0E 01 4A 14 70 0E 01 03  70 0E 01 1C 16 80 52 12  ..J.p...p.....R.
0310: 80 F8 FF FF 7F F8 FF FF  7F 73 30 30 39 45 12 80  .........s009E..
0320: F8 FF FF 7F F8 FF FF 7F  73 30 30 36 0F 80 45 0E  ........s006..E.
0330: 80 F8 FF FF 7F F8 FF FF  7F 66 64 69 31 0F 80 79  .........fdi1..y
0340: 00 13 70 0E 01 03 70 0E  01 79 00 16 70 0E 01 03  ..p...p..y..p...
0350: 70 0E 01 4A 13 70 0E 01  03 70 0E 01 4A 16 70 0E  p..J.p...p..J.p.
0360: 01 03 70 0E 01 27 0B 15  70 0E 01 0A 4A 0E 70 0E  ..p..'..p...J.p.
0370: 01 03 70 0E 01 4A F0 FF  FF 7F 03 70 0E 01 6F 76  ..p..J.....p..ov
0380: 0E 70 0E 01 6F 76 F0 FF  FF 7F 6F 76 13 70 0E 01  .p..ov....ov.p..
0390: 27 0B 0E 70 0E 01 11 27  0B F0 FF FF 7F 40 27 0B  '..p...'.....@'.
03A0: 13 70 0E 01 0A 1C 17 80  52 12 80 F8 FF FF 7F F8  .p......R.......
03B0: FF FF 7F 73 30 30 36 45  0E 80 F0 FF FF 7F F0 FF  ...s006E........
03C0: FF 7F 6F 76 6C 31 0F 80  45 12 80 F8 FF FF 7F F8  ..ovl1..E.......
03D0: FF FF 7F 73 30 30 37 0F  80 4A 16 70 0E 01 03 70  ...s007..J.p...p
03E0: 0E 01 27 0B 12 70 0E 01  0A 27 0B 14 70 0E 01 0C  ..'..p...'..p...
03F0: 2A 0B F0 FF FF 7F 4A F0  FF FF 7F 03 70 0E 01 6F  *.....J.....p..o
0400: 76 F0 FF FF 7F 1C 18 80  52 12 80 F8 FF FF 7F F8  v.......R.......
0410: FF FF 7F 73 30 30 37 45  0E 80 F0 FF FF 7F F0 FF  ...s007E........
0420: FF 7F 6F 76 6C 31 0F 80  45 12 80 F8 FF FF 7F F8  ..ovl1..E.......
0430: FF FF 7F 73 30 30 38 0F  80 4A 13 70 0E 01 03 70  ...s008..J.p...p
0440: 0E 01 4A 16 70 0E 01 03  70 0E 01 29 0B 0E 70 0E  ..J.p...p..)..p.
0450: 01 1A 52 12 80 F8 FF FF  7F F8 FF FF 7F 73 30 30  ..R..........s00
0460: 38 45 12 80 F8 FF FF 7F  F8 FF FF 7F 73 30 31 30  8E..........s010
0470: 0F 80 2A 0B 03 70 0E 01  29 0B 03 70 0E 01 45 52  ..*..p..)..p..ER
0480: 12 80 F8 FF FF 7F F8 FF  FF 7F 73 30 31 30 45 12  ..........s010E.
0490: 80 F8 FF FF 7F F8 FF FF  7F 73 30 31 31 0F 80 4B  .........s011..K
04A0: 03 70 0E 01 19 80 79 00  03 70 0E 01 10 70 0E 01  .p....y..p...p..
04B0: 79 00 F0 FF FF 7F 10 70  0E 01 4A 0E 70 0E 01 10  y......p..J.p...
04C0: 70 0E 01 29 08 10 70 0E  01 1D 29 0B 10 70 0E 01  p..)..p...)..p..
04D0: 35 7B 03 70 0E 01 29 0B  10 70 0E 01 36 29 08 10  5{.p..)..p..6)..
04E0: 70 0E 01 1E 52 12 80 F8  FF FF 7F F8 FF FF 7F 73  p...R..........s
04F0: 30 31 31 45 12 80 F8 FF  FF 7F F8 FF FF 7F 73 30  011E..........s0
0500: 31 32 0F 80 4A 0E 70 0E  01 03 70 0E 01 79 00 F0  12..J.p...p..y..
0510: FF FF 7F 03 70 0E 01 79  00 10 70 0E 01 03 70 0E  ....p..y..p...p.
0520: 01 79 00 03 70 0E 01 0E  70 0E 01 29 08 10 70 0E  .y..p...p..)..p.
0530: 01 1F 29 0B 03 70 0E 01  46 29 08 10 70 0E 01 20  ..)..p..F)..p.. 
0540: 29 0B 0E 70 0E 01 1B 52  12 80 F8 FF FF 7F F8 FF  )..p...R........
0550: FF 7F 73 30 31 32 45 12  80 F8 FF FF 7F F8 FF FF  ..s012E.........
0560: 7F 73 30 31 33 0F 80 29  0B 03 70 0E 01 47 29 0B  .s013..)..p..G).
0570: 0E 70 0E 01 1C 52 12 80  F8 FF FF 7F F8 FF FF 7F  .p...R..........
0580: 73 30 31 33 02 09 10 1A  80 00 A0 05 45 12 80 F8  s013........E...
0590: FF FF 7F F8 FF FF 7F 73  30 32 30 0F 80 01 21 06  .......s020...!.
05A0: 02 09 10 1B 80 00 BC 05  45 12 80 F8 FF FF 7F F8  ........E.......
05B0: FF FF 7F 73 30 32 30 0F  80 01 21 06 02 09 10 16  ...s020...!.....
05C0: 80 00 D8 05 45 12 80 F8  FF FF 7F F8 FF FF 7F 73  ....E..........s
05D0: 30 31 38 0F 80 01 21 06  02 09 10 1C 80 00 F4 05  018...!.........
05E0: 45 12 80 F8 FF FF 7F F8  FF FF 7F 73 30 31 38 0F  E..........s018.
05F0: 80 01 21 06 02 09 10 1D  80 00 10 06 45 12 80 F8  ..!.........E...
0600: FF FF 7F F8 FF FF 7F 73  30 31 36 0F 80 01 21 06  .......s016...!.
0610: 45 12 80 F8 FF FF 7F F8  FF FF 7F 73 30 31 34 0F  E..........s014.
0620: 80 79 00 03 70 0E 01 F0  FF FF 7F 79 00 10 70 0E  .y..p......y..p.
0630: 01 F0 FF FF 7F 29 08 03  70 0E 01 2E 29 0B 03 70  .....)..p...)..p
0640: 0E 01 48 29 08 03 70 0E  01 2F 29 08 03 70 0E 01  ..H)..p../)..p..
0650: 30 4A 0E 70 0E 01 F0 FF  FF 7F 29 0B 0E 70 0E 01  0J.p......)..p..
0660: 1D 29 08 03 70 0E 01 31  02 09 10 1A 80 00 82 06  .)..p..1........
0670: 52 12 80 F8 FF FF 7F F8  FF FF 7F 73 30 32 30 01  R..........s020.
0680: F9 06 02 09 10 1B 80 00  9C 06 52 12 80 F8 FF FF  ..........R.....
0690: 7F F8 FF FF 7F 73 30 32  30 01 F9 06 02 09 10 16  .....s020.......
06A0: 80 00 B6 06 52 12 80 F8  FF FF 7F F8 FF FF 7F 73  ....R..........s
06B0: 30 31 38 01 F9 06 02 09  10 1C 80 00 D0 06 52 12  018...........R.
06C0: 80 F8 FF FF 7F F8 FF FF  7F 73 30 31 38 01 F9 06  .........s018...
06D0: 02 09 10 1D 80 00 EA 06  52 12 80 F8 FF FF 7F F8  ........R.......
06E0: FF FF 7F 73 30 31 36 01  F9 06 52 12 80 F8 FF FF  ...s016...R.....
06F0: 7F F8 FF FF 7F 73 30 31  34 45 12 80 F8 FF FF 7F  .....s014E......
0700: F8 FF FF 7F 73 30 31 39  0F 80 4A 0E 70 0E 01 03  ....s019..J.p...
0710: 70 0E 01 29 0B 03 70 0E  01 49 29 0B 03 70 0E 01  p..)..p..I)..p..
0720: 4A 52 12 80 F8 FF FF 7F  F8 FF FF 7F 73 30 31 39  JR..........s019
0730: 45 12 80 F8 FF FF 7F F8  FF FF 7F 73 30 31 37 0F  E..........s017.
0740: 80 29 0B 03 70 0E 01 4B  52 12 80 F8 FF FF 7F F8  .)..p..KR.......
0750: FF FF 7F 73 30 31 37 45  12 80 F8 FF FF 7F F8 FF  ...s017E........
0760: FF 7F 73 30 31 35 0F 80  79 00 12 70 0E 01 03 70  ..s015..y..p...p
0770: 0E 01 27 0B 03 70 0E 01  44 1C 06 80 4A 10 70 0E  ..'..p..D...J.p.
0780: 01 03 70 0E 01 1C 1E 80  27 0B 10 70 0E 01 34 1C  ..p.....'..p..4.
0790: 10 80 45 0E 80 F8 FF FF  7F F8 FF FF 7F 66 64 6F  ..E..........fdo
07A0: 31 0F 80 1C 0E 80 5C 00  1F 80 5C 01 1F 80 5D 13  1.....\...\...].
07B0: 80 14 80 52 12 80 F8 FF  FF 7F F8 FF FF 7F 73 30  ...R..........s0
07C0: 31 35 46 00 1C 0E 80 45  0E 80 F8 FF FF 7F F8 FF  15F....E........
07D0: FF 7F 66 64 69 31 0F 80  20 00 21 00              ..fdi1.. .!.    
```

#### Opcodes

```
  0: 0x012A [0x42] SET_CLI_EVENT_CANCEL_DATA()
  1: 0x012B [0x46] CAMERA_CONTROL: Disable user control
  2: 0x012D [0x45] LOAD_SCHEDULED_TASK: Load scheduler "fdo1" with entities [EventEntity, EventEntity], work=[200*, 0*]
  3: 0x013E [0x1C] WAIT(60* ticks)
  4: 0x0141 [0x38] SET_CLIENT_EVENT_MODE(mode=19*)
  5: 0x0144 [0x29] REQ_SET_WAIT(priority=0x08, entity_id=LocalPlayer, tag_num=0x35)
  6: 0x014B [0x29] REQ_SET_WAIT(priority=0x0B, entity_id=LocalPlayer, tag_num=0x3E)
  7: 0x0152 [0x45] LOAD_SCHEDULED_TASK: Load scheduler "s002" with entities [EventEntity, EventEntity], work=[41*, 0*]
  8: 0x0163 [0x45] LOAD_SCHEDULED_TASK: Load scheduler "fdi1" with entities [EventEntity, EventEntity], work=[200*, 0*]
  9: 0x0174 [0x29] REQ_SET_WAIT(priority=0x0B, entity_id=Arnau (ID: 17723406/0x010E700E), tag_num=0x12)
 10: 0x017B [0x5D] SET_MUSIC_VOLUME(volume=0*, fade_time=200*)
 11: 0x0180 [0x45] LOAD_SCHEDULED_TASK: Load scheduler "fdo1" with entities [EventEntity, EventEntity], work=[200*, 0*]
 12: 0x0191 [0x1C] WAIT(200* ticks)
 13: 0x0194 [0x5C] MUSIC_CONTROL: Set Idle (Day) music to song 127*
 14: 0x0198 [0x5C] MUSIC_CONTROL: Set Idle (Night) music to song 127*
 15: 0x019C [0x5D] SET_MUSIC_VOLUME(volume=127*, fade_time=1*)
 16: 0x01A1 [0x52] END_LOAD_SCHEDULER: End scheduler "s002" with entities [EventEntity, EventEntity], work=41*
 17: 0x01B0 [0x45] LOAD_SCHEDULED_TASK: Load scheduler "s000" with entities [EventEntity, EventEntity], work=[41*, 0*]
 18: 0x01C1 [0x45] LOAD_SCHEDULED_TASK: Load scheduler "fdi1" with entities [EventEntity, EventEntity], work=[200*, 0*]
 19: 0x01D2 [0x29] REQ_SET_WAIT(priority=0x0B, entity_id=Arnau (ID: 17723406/0x010E700E), tag_num=0x13)
 20: 0x01D9 [0x52] END_LOAD_SCHEDULER: End scheduler "s000" with entities [EventEntity, EventEntity], work=41*
 21: 0x01E8 [0x45] LOAD_SCHEDULED_TASK: Load scheduler "ovl1" with entities [LocalPlayer, LocalPlayer], work=[200*, 0*]
 22: 0x01F9 [0x45] LOAD_SCHEDULED_TASK: Load scheduler "s003" with entities [EventEntity, EventEntity], work=[41*, 0*]
 23: 0x020A [0x29] REQ_SET_WAIT(priority=0x0B, entity_id=Arnau (ID: 17723406/0x010E700E), tag_num=0x14)
 24: 0x0211 [0x29] REQ_SET_WAIT(priority=0x0B, entity_id=Arnau (ID: 17723406/0x010E700E), tag_num=0x15)
 25: 0x0218 [0x52] END_LOAD_SCHEDULER: End scheduler "s003" with entities [EventEntity, EventEntity], work=41*
 26: 0x0227 [0x45] LOAD_SCHEDULED_TASK: Load scheduler "s004" with entities [EventEntity, EventEntity], work=[41*, 0*]
 27: 0x0238 [0x79] Arnau (ID: 17723406/0x010E700E) looks at LocalPlayer (Basic look)
 28: 0x0242 [0x29] REQ_SET_WAIT(priority=0x0B, entity_id=Arnau (ID: 17723406/0x010E700E), tag_num=0x16)
 29: 0x0249 [0x29] REQ_SET_WAIT(priority=0x0B, entity_id=Arnau (ID: 17723406/0x010E700E), tag_num=0x17)
 30: 0x0250 [0x52] END_LOAD_SCHEDULER: End scheduler "s004" with entities [EventEntity, EventEntity], work=41*
 31: 0x025F [0x45] LOAD_SCHEDULED_TASK: Load scheduler "s005" with entities [EventEntity, EventEntity], work=[41*, 0*]
 32: 0x0270 [0x7B] Arnau (ID: 17723406/0x010E700E) stops talking
 33: 0x0275 [0x29] REQ_SET_WAIT(priority=0x0B, entity_id=Arnau (ID: 17723406/0x010E700E), tag_num=0x18)
 34: 0x027C [0x52] END_LOAD_SCHEDULER: End scheduler "s005" with entities [EventEntity, EventEntity], work=41*
 35: 0x028B [0x45] LOAD_SCHEDULED_TASK: Load scheduler "ovl1" with entities [LocalPlayer, LocalPlayer], work=[200*, 0*]
 36: 0x029C [0x45] LOAD_SCHEDULED_TASK: Load scheduler "s009" with entities [EventEntity, EventEntity], work=[41*, 0*]
 37: 0x02AD [0x4E] SET_ENTITY_HIDE_FLAG: Show Pieuje (ID: 17723395/0x010E7003)
 38: 0x02B3 [0x4E] SET_ENTITY_HIDE_FLAG: Show Shamonde (ID: 17723408/0x010E7010)
 39: 0x02B9 [0x4B] UPDATE_ENTITY_YAW(entity=Arnau (ID: 17723406/0x010E700E), yaw=20.1°*)
 40: 0x02C0 [0x29] REQ_SET_WAIT(priority=0x0B, entity_id=Arnau (ID: 17723406/0x010E700E), tag_num=0x19)
 41: 0x02C7 [0x6F] WAIT_FRAME_DELAY: Yield until WaitTime reaches zero
 42: 0x02C8 [0x76] CHECK_ENTITY_RENDER_FLAGS: Wait until Arnau (ID: 17723406/0x010E700E) Render.Flags0 and Render.Flags3 conditions are met
 43: 0x02CD [0x80] LOAD_WAIT(entity=Pieuje (ID: 17723395/0x010E7003))
 44: 0x02D2 [0x80] LOAD_WAIT(entity=Shamonde (ID: 17723408/0x010E7010))
 45: 0x02D7 [0x45] LOAD_SCHEDULED_TASK: Load scheduler "fdo1" with entities [EventEntity, EventEntity], work=[200*, 0*]
 46: 0x02E8 [0x1C] WAIT(60* ticks)
 47: 0x02EB [0x27] REQ_SET(priority=0x0B, entity_id=Pieuje (ID: 17723395/0x010E7003), tag_num=0x43)
 48: 0x02F2 [0x27] REQ_SET(priority=0x0B, entity_id=Shamonde (ID: 17723408/0x010E7010), tag_num=0x33)
 49: 0x02F9 [0x4A] Calovour (ID: 17723524/0x010E7084) looks at Pieuje (ID: 17723395/0x010E7003)
 50: 0x0302 [0x4A] Maurine (ID: 17723412/0x010E7014) looks at Pieuje (ID: 17723395/0x010E7003)
 51: 0x030B [0x1C] WAIT(5* ticks)
 52: 0x030E [0x52] END_LOAD_SCHEDULER: End scheduler "s009" with entities [EventEntity, EventEntity], work=41*
 53: 0x031D [0x45] LOAD_SCHEDULED_TASK: Load scheduler "s006" with entities [EventEntity, EventEntity], work=[41*, 0*]
 54: 0x032E [0x45] LOAD_SCHEDULED_TASK: Load scheduler "fdi1" with entities [EventEntity, EventEntity], work=[200*, 0*]
 55: 0x033F [0x79] Prerivon (ID: 17723411/0x010E7013) looks at Pieuje (ID: 17723395/0x010E7003) (Basic look)
 56: 0x0349 [0x79] Pellimie (ID: 17723414/0x010E7016) looks at Pieuje (ID: 17723395/0x010E7003) (Basic look)
 57: 0x0353 [0x4A] Prerivon (ID: 17723411/0x010E7013) looks at Pieuje (ID: 17723395/0x010E7003)
 58: 0x035C [0x4A] Pellimie (ID: 17723414/0x010E7016) looks at Pieuje (ID: 17723395/0x010E7003)
 59: 0x0365 [0x27] REQ_SET(priority=0x0B, entity_id=Malfine (ID: 17723413/0x010E7015), tag_num=0x0A)
 60: 0x036C [0x4A] Arnau (ID: 17723406/0x010E700E) looks at Pieuje (ID: 17723395/0x010E7003)
 61: 0x0375 [0x4A] LocalPlayer looks at Pieuje (ID: 17723395/0x010E7003)
 62: 0x037E [0x6F] WAIT_FRAME_DELAY: Yield until WaitTime reaches zero
 63: 0x037F [0x76] CHECK_ENTITY_RENDER_FLAGS: Wait until Arnau (ID: 17723406/0x010E700E) Render.Flags0 and Render.Flags3 conditions are met
 64: 0x0384 [0x6F] WAIT_FRAME_DELAY: Yield until WaitTime reaches zero
 65: 0x0385 [0x76] CHECK_ENTITY_RENDER_FLAGS: Wait until LocalPlayer Render.Flags0 and Render.Flags3 conditions are met
 66: 0x038A [0x6F] WAIT_FRAME_DELAY: Yield until WaitTime reaches zero
 67: 0x038B [0x76] CHECK_ENTITY_RENDER_FLAGS: Wait until Prerivon (ID: 17723411/0x010E7013) Render.Flags0 and Render.Flags3 conditions are met
 68: 0x0390 [0x27] REQ_SET(priority=0x0B, entity_id=Arnau (ID: 17723406/0x010E700E), tag_num=0x11)
 69: 0x0397 [0x27] REQ_SET(priority=0x0B, entity_id=LocalPlayer, tag_num=0x40)
 70: 0x039E [0x27] REQ_SET(priority=0x0B, entity_id=Prerivon (ID: 17723411/0x010E7013), tag_num=0x0A)
 71: 0x03A5 [0x1C] WAIT(10* ticks)
 72: 0x03A8 [0x52] END_LOAD_SCHEDULER: End scheduler "s006" with entities [EventEntity, EventEntity], work=41*
 73: 0x03B7 [0x45] LOAD_SCHEDULED_TASK: Load scheduler "ovl1" with entities [LocalPlayer, LocalPlayer], work=[200*, 0*]
 74: 0x03C8 [0x45] LOAD_SCHEDULED_TASK: Load scheduler "s007" with entities [EventEntity, EventEntity], work=[41*, 0*]
 75: 0x03D9 [0x4A] Pellimie (ID: 17723414/0x010E7016) looks at Pieuje (ID: 17723395/0x010E7003)
 76: 0x03E2 [0x27] REQ_SET(priority=0x0B, entity_id=Fittesegat (ID: 17723410/0x010E7012), tag_num=0x0A)
 77: 0x03E9 [0x27] REQ_SET(priority=0x0B, entity_id=Maurine (ID: 17723412/0x010E7014), tag_num=0x0C)
 78: 0x03F0 [0x2A] GET_REQ_LEVEL(level=11, entity_id=LocalPlayer)
 79: 0x03F6 [0x4A] LocalPlayer looks at Pieuje (ID: 17723395/0x010E7003)
 80: 0x03FF [0x6F] WAIT_FRAME_DELAY: Yield until WaitTime reaches zero
 81: 0x0400 [0x76] CHECK_ENTITY_RENDER_FLAGS: Wait until LocalPlayer Render.Flags0 and Render.Flags3 conditions are met
 82: 0x0405 [0x1C] WAIT(100* ticks)
 83: 0x0408 [0x52] END_LOAD_SCHEDULER: End scheduler "s007" with entities [EventEntity, EventEntity], work=41*
 84: 0x0417 [0x45] LOAD_SCHEDULED_TASK: Load scheduler "ovl1" with entities [LocalPlayer, LocalPlayer], work=[200*, 0*]
 85: 0x0428 [0x45] LOAD_SCHEDULED_TASK: Load scheduler "s008" with entities [EventEntity, EventEntity], work=[41*, 0*]
 86: 0x0439 [0x4A] Prerivon (ID: 17723411/0x010E7013) looks at Pieuje (ID: 17723395/0x010E7003)
 87: 0x0442 [0x4A] Pellimie (ID: 17723414/0x010E7016) looks at Pieuje (ID: 17723395/0x010E7003)
 88: 0x044B [0x29] REQ_SET_WAIT(priority=0x0B, entity_id=Arnau (ID: 17723406/0x010E700E), tag_num=0x1A)
 89: 0x0452 [0x52] END_LOAD_SCHEDULER: End scheduler "s008" with entities [EventEntity, EventEntity], work=41*
 90: 0x0461 [0x45] LOAD_SCHEDULED_TASK: Load scheduler "s010" with entities [EventEntity, EventEntity], work=[41*, 0*]
 91: 0x0472 [0x2A] GET_REQ_LEVEL(level=11, entity_id=Pieuje (ID: 17723395/0x010E7003))
 92: 0x0478 [0x29] REQ_SET_WAIT(priority=0x0B, entity_id=Pieuje (ID: 17723395/0x010E7003), tag_num=0x45)
 93: 0x047F [0x52] END_LOAD_SCHEDULER: End scheduler "s010" with entities [EventEntity, EventEntity], work=41*
 94: 0x048E [0x45] LOAD_SCHEDULED_TASK: Load scheduler "s011" with entities [EventEntity, EventEntity], work=[41*, 0*]
 95: 0x049F [0x4B] UPDATE_ENTITY_YAW(entity=Pieuje (ID: 17723395/0x010E7003), yaw=1.6°*)
 96: 0x04A6 [0x79] Pieuje (ID: 17723395/0x010E7003) looks at Shamonde (ID: 17723408/0x010E7010) (Basic look)
 97: 0x04B0 [0x79] LocalPlayer looks at Shamonde (ID: 17723408/0x010E7010) (Basic look)
 98: 0x04BA [0x4A] Arnau (ID: 17723406/0x010E700E) looks at Shamonde (ID: 17723408/0x010E7010)
 99: 0x04C3 [0x29] REQ_SET_WAIT(priority=0x08, entity_id=Shamonde (ID: 17723408/0x010E7010), tag_num=0x1D)
100: 0x04CA [0x29] REQ_SET_WAIT(priority=0x0B, entity_id=Shamonde (ID: 17723408/0x010E7010), tag_num=0x35)
101: 0x04D1 [0x7B] Pieuje (ID: 17723395/0x010E7003) stops talking
102: 0x04D6 [0x29] REQ_SET_WAIT(priority=0x0B, entity_id=Shamonde (ID: 17723408/0x010E7010), tag_num=0x36)
103: 0x04DD [0x29] REQ_SET_WAIT(priority=0x08, entity_id=Shamonde (ID: 17723408/0x010E7010), tag_num=0x1E)
104: 0x04E4 [0x52] END_LOAD_SCHEDULER: End scheduler "s011" with entities [EventEntity, EventEntity], work=41*
105: 0x04F3 [0x45] LOAD_SCHEDULED_TASK: Load scheduler "s012" with entities [EventEntity, EventEntity], work=[41*, 0*]
106: 0x0504 [0x4A] Arnau (ID: 17723406/0x010E700E) looks at Pieuje (ID: 17723395/0x010E7003)
107: 0x050D [0x79] LocalPlayer looks at Pieuje (ID: 17723395/0x010E7003) (Basic look)
108: 0x0517 [0x79] Shamonde (ID: 17723408/0x010E7010) looks at Pieuje (ID: 17723395/0x010E7003) (Basic look)
109: 0x0521 [0x79] Pieuje (ID: 17723395/0x010E7003) looks at Arnau (ID: 17723406/0x010E700E) (Basic look)
110: 0x052B [0x29] REQ_SET_WAIT(priority=0x08, entity_id=Shamonde (ID: 17723408/0x010E7010), tag_num=0x1F)
111: 0x0532 [0x29] REQ_SET_WAIT(priority=0x0B, entity_id=Pieuje (ID: 17723395/0x010E7003), tag_num=0x46)
112: 0x0539 [0x29] REQ_SET_WAIT(priority=0x08, entity_id=Shamonde (ID: 17723408/0x010E7010), tag_num=0x20)
113: 0x0540 [0x29] REQ_SET_WAIT(priority=0x0B, entity_id=Arnau (ID: 17723406/0x010E700E), tag_num=0x1B)
114: 0x0547 [0x52] END_LOAD_SCHEDULER: End scheduler "s012" with entities [EventEntity, EventEntity], work=41*
115: 0x0556 [0x45] LOAD_SCHEDULED_TASK: Load scheduler "s013" with entities [EventEntity, EventEntity], work=[41*, 0*]
116: 0x0567 [0x29] REQ_SET_WAIT(priority=0x0B, entity_id=Pieuje (ID: 17723395/0x010E7003), tag_num=0x47)
117: 0x056E [0x29] REQ_SET_WAIT(priority=0x0B, entity_id=Arnau (ID: 17723406/0x010E700E), tag_num=0x1C)
118: 0x0575 [0x52] END_LOAD_SCHEDULER: End scheduler "s013" with entities [EventEntity, EventEntity], work=41*
119: 0x0584 [0x02] IF !(Work_Zone[9] == 3*) GOTO 0x05A0
120: 0x058C [0x45] LOAD_SCHEDULED_TASK: Load scheduler "s020" with entities [EventEntity, EventEntity], work=[41*, 0*]
121: 0x059D [0x01] GOTO 0x0621
122: 0x05A0 [0x02] IF !(Work_Zone[9] == 4*) GOTO 0x05BC
123: 0x05A8 [0x45] LOAD_SCHEDULED_TASK: Load scheduler "s020" with entities [EventEntity, EventEntity], work=[41*, 0*]
124: 0x05B9 [0x01] GOTO 0x0621
125: 0x05BC [0x02] IF !(Work_Zone[9] == 5*) GOTO 0x05D8
126: 0x05C4 [0x45] LOAD_SCHEDULED_TASK: Load scheduler "s018" with entities [EventEntity, EventEntity], work=[41*, 0*]
127: 0x05D5 [0x01] GOTO 0x0621
128: 0x05D8 [0x02] IF !(Work_Zone[9] == 6*) GOTO 0x05F4
129: 0x05E0 [0x45] LOAD_SCHEDULED_TASK: Load scheduler "s018" with entities [EventEntity, EventEntity], work=[41*, 0*]
130: 0x05F1 [0x01] GOTO 0x0621
131: 0x05F4 [0x02] IF !(Work_Zone[9] == 8*) GOTO 0x0610
132: 0x05FC [0x45] LOAD_SCHEDULED_TASK: Load scheduler "s016" with entities [EventEntity, EventEntity], work=[41*, 0*]
133: 0x060D [0x01] GOTO 0x0621
134: 0x0610 [0x45] LOAD_SCHEDULED_TASK: Load scheduler "s014" with entities [EventEntity, EventEntity], work=[41*, 0*]

SUBROUTINE_0621:
135: 0x0621 [0x79] Pieuje (ID: 17723395/0x010E7003) looks at LocalPlayer (Basic look)
136: 0x062B [0x79] Shamonde (ID: 17723408/0x010E7010) looks at LocalPlayer (Basic look)
137: 0x0635 [0x29] REQ_SET_WAIT(priority=0x08, entity_id=Pieuje (ID: 17723395/0x010E7003), tag_num=0x2E)
138: 0x063C [0x29] REQ_SET_WAIT(priority=0x0B, entity_id=Pieuje (ID: 17723395/0x010E7003), tag_num=0x48)
139: 0x0643 [0x29] REQ_SET_WAIT(priority=0x08, entity_id=Pieuje (ID: 17723395/0x010E7003), tag_num=0x2F)
140: 0x064A [0x29] REQ_SET_WAIT(priority=0x08, entity_id=Pieuje (ID: 17723395/0x010E7003), tag_num=0x30)
141: 0x0651 [0x4A] Arnau (ID: 17723406/0x010E700E) looks at LocalPlayer
142: 0x065A [0x29] REQ_SET_WAIT(priority=0x0B, entity_id=Arnau (ID: 17723406/0x010E700E), tag_num=0x1D)
143: 0x0661 [0x29] REQ_SET_WAIT(priority=0x08, entity_id=Pieuje (ID: 17723395/0x010E7003), tag_num=0x31)
144: 0x0668 [0x02] IF !(Work_Zone[9] == 3*) GOTO 0x0682
145: 0x0670 [0x52] END_LOAD_SCHEDULER: End scheduler "s020" with entities [EventEntity, EventEntity], work=41*
146: 0x067F [0x01] GOTO 0x06F9
147: 0x0682 [0x02] IF !(Work_Zone[9] == 4*) GOTO 0x069C
148: 0x068A [0x52] END_LOAD_SCHEDULER: End scheduler "s020" with entities [EventEntity, EventEntity], work=41*
149: 0x0699 [0x01] GOTO 0x06F9
150: 0x069C [0x02] IF !(Work_Zone[9] == 5*) GOTO 0x06B6
151: 0x06A4 [0x52] END_LOAD_SCHEDULER: End scheduler "s018" with entities [EventEntity, EventEntity], work=41*
152: 0x06B3 [0x01] GOTO 0x06F9
153: 0x06B6 [0x02] IF !(Work_Zone[9] == 6*) GOTO 0x06D0
154: 0x06BE [0x52] END_LOAD_SCHEDULER: End scheduler "s018" with entities [EventEntity, EventEntity], work=41*
155: 0x06CD [0x01] GOTO 0x06F9
156: 0x06D0 [0x02] IF !(Work_Zone[9] == 8*) GOTO 0x06EA
157: 0x06D8 [0x52] END_LOAD_SCHEDULER: End scheduler "s016" with entities [EventEntity, EventEntity], work=41*
158: 0x06E7 [0x01] GOTO 0x06F9
159: 0x06EA [0x52] END_LOAD_SCHEDULER: End scheduler "s014" with entities [EventEntity, EventEntity], work=41*

SUBROUTINE_06F9:
160: 0x06F9 [0x45] LOAD_SCHEDULED_TASK: Load scheduler "s019" with entities [EventEntity, EventEntity], work=[41*, 0*]
161: 0x070A [0x4A] Arnau (ID: 17723406/0x010E700E) looks at Pieuje (ID: 17723395/0x010E7003)
162: 0x0713 [0x29] REQ_SET_WAIT(priority=0x0B, entity_id=Pieuje (ID: 17723395/0x010E7003), tag_num=0x49)
163: 0x071A [0x29] REQ_SET_WAIT(priority=0x0B, entity_id=Pieuje (ID: 17723395/0x010E7003), tag_num=0x4A)
164: 0x0721 [0x52] END_LOAD_SCHEDULER: End scheduler "s019" with entities [EventEntity, EventEntity], work=41*
165: 0x0730 [0x45] LOAD_SCHEDULED_TASK: Load scheduler "s017" with entities [EventEntity, EventEntity], work=[41*, 0*]
166: 0x0741 [0x29] REQ_SET_WAIT(priority=0x0B, entity_id=Pieuje (ID: 17723395/0x010E7003), tag_num=0x4B)
167: 0x0748 [0x52] END_LOAD_SCHEDULER: End scheduler "s017" with entities [EventEntity, EventEntity], work=41*
168: 0x0757 [0x45] LOAD_SCHEDULED_TASK: Load scheduler "s015" with entities [EventEntity, EventEntity], work=[41*, 0*]
169: 0x0768 [0x79] Fittesegat (ID: 17723410/0x010E7012) looks at Pieuje (ID: 17723395/0x010E7003) (Basic look)
170: 0x0772 [0x27] REQ_SET(priority=0x0B, entity_id=Pieuje (ID: 17723395/0x010E7003), tag_num=0x44)
171: 0x0779 [0x1C] WAIT(30* ticks)
172: 0x077C [0x4A] Shamonde (ID: 17723408/0x010E7010) looks at Pieuje (ID: 17723395/0x010E7003)
173: 0x0785 [0x1C] WAIT(90* ticks)
174: 0x0788 [0x27] REQ_SET(priority=0x0B, entity_id=Shamonde (ID: 17723408/0x010E7010), tag_num=0x34)
175: 0x078F [0x1C] WAIT(60* ticks)
176: 0x0792 [0x45] LOAD_SCHEDULED_TASK: Load scheduler "fdo1" with entities [EventEntity, EventEntity], work=[200*, 0*]
177: 0x07A3 [0x1C] WAIT(200* ticks)
178: 0x07A6 [0x5C] MUSIC_CONTROL: Set Idle (Day) music to song 107*
179: 0x07AA [0x5C] MUSIC_CONTROL: Set Idle (Night) music to song 107*
180: 0x07AE [0x5D] SET_MUSIC_VOLUME(volume=127*, fade_time=1*)
181: 0x07B3 [0x52] END_LOAD_SCHEDULER: End scheduler "s015" with entities [EventEntity, EventEntity], work=41*
182: 0x07C2 [0x46] CAMERA_CONTROL: Restore default settings
183: 0x07C4 [0x1C] WAIT(200* ticks)
184: 0x07C7 [0x45] LOAD_SCHEDULED_TASK: Load scheduler "fdi1" with entities [EventEntity, EventEntity], work=[200*, 0*]
185: 0x07D8 [0x20] SET_CLI_EVENT_UC_FLAG: Unlock player control
186: 0x07DA [0x21] END_EVENT
187: 0x07DB [0x00] END_REQSTACK()
```

### Event 65535.7

#### Metadata

| Field        | Value    |
|--------------|----------|
| Entrypoint   | 0x07DC   |
| Data Size    | 14 bytes |
| Instructions | 4        |

```
      00 01 02 03 04 05 06 07  08 09 0A 0B 0C 0D 0E 0F
      -- -- -- -- -- -- -- --  -- -- -- -- -- -- -- --
07D0:                                      32 20 80 1F              2 ..
07E0: 00 21 80 22 80 0F 80 1F  01 00                    .!."......      
```

#### Opcodes

```
  0: 0x07DC [0x32] ExtData[1]->MainSpeed = 13* * 0.1
  1: 0x07DF [0x1F] MOVE_ENTITY: EventEntity moves to X=147.327*, Z=139.104*, Y=0.000*
  2: 0x07E7 [0x1F] MOVE_ENTITY: Update entity position (mode=1)
  3: 0x07E9 [0x00] END_REQSTACK()
```

### Event 65535.8

#### Metadata

| Field        | Value   |
|--------------|---------|
| Entrypoint   | 0x07EA  |
| Data Size    | 5 bytes |
| Instructions | 3       |

```
      00 01 02 03 04 05 06 07  08 09 0A 0B 0C 0D 0E 0F
      -- -- -- -- -- -- -- --  -- -- -- -- -- -- -- --
07E0:                                1D 23 80 23 00               .#.#. 
```

#### Opcodes

```
  0: 0x07EA [0x1D] PRINT_EVENT_MESSAGE(message_id=12550*)
    → "Oh, an adventurer. If you are here for the sermon on the Gates of Paradise, beseech the friar standing at the narthex."
  1: 0x07ED [0x23] WAIT_FOR_DIALOG_INTERACTION
  2: 0x07EE [0x00] END_REQSTACK()
```

### Event 65535.9

#### Metadata

| Field        | Value   |
|--------------|---------|
| Entrypoint   | 0x07EF  |
| Data Size    | 5 bytes |
| Instructions | 3       |

```
      00 01 02 03 04 05 06 07  08 09 0A 0B 0C 0D 0E 0F
      -- -- -- -- -- -- -- --  -- -- -- -- -- -- -- --
07E0:                                               1D                 .
07F0: 24 80 23 00                                       $.#.            
```

#### Opcodes

```
  0: 0x07EF [0x1D] PRINT_EVENT_MESSAGE(message_id=12551*)
    → "You say you came on behalf of the Temple Knights? And you want to know about Tedimout?"
  1: 0x07F2 [0x23] WAIT_FOR_DIALOG_INTERACTION
  2: 0x07F3 [0x00] END_REQSTACK()
```

### Event 65535.10

#### Metadata

| Field        | Value   |
|--------------|---------|
| Entrypoint   | 0x07F4  |
| Data Size    | 5 bytes |
| Instructions | 3       |

```
      00 01 02 03 04 05 06 07  08 09 0A 0B 0C 0D 0E 0F
      -- -- -- -- -- -- -- --  -- -- -- -- -- -- -- --
07F0:             1D 25 80 23  00                           .%.#.       
```

#### Opcodes

```
  0: 0x07F4 [0x1D] PRINT_EVENT_MESSAGE(message_id=12552*)
    → "Why, may Altana bless thee! Yes, Tedimout was a friar in training."
  1: 0x07F7 [0x23] WAIT_FOR_DIALOG_INTERACTION
  2: 0x07F8 [0x00] END_REQSTACK()
```

### Event 65535.11

#### Metadata

| Field        | Value   |
|--------------|---------|
| Entrypoint   | 0x07F9  |
| Data Size    | 5 bytes |
| Instructions | 3       |

```
      00 01 02 03 04 05 06 07  08 09 0A 0B 0C 0D 0E 0F
      -- -- -- -- -- -- -- --  -- -- -- -- -- -- -- --
07F0:                             1D 26 80 23 00                 .&.#.  
```

#### Opcodes

```
  0: 0x07F9 [0x1D] PRINT_EVENT_MESSAGE(message_id=12553*)
    → "Oft would he enter the woods of Ronfaure, in search of wild herbs for the making of tea and medicines."
  1: 0x07FC [0x23] WAIT_FOR_DIALOG_INTERACTION
  2: 0x07FD [0x00] END_REQSTACK()
```

### Event 65535.12

#### Metadata

| Field        | Value   |
|--------------|---------|
| Entrypoint   | 0x07FE  |
| Data Size    | 5 bytes |
| Instructions | 3       |

```
      00 01 02 03 04 05 06 07  08 09 0A 0B 0C 0D 0E 0F
      -- -- -- -- -- -- -- --  -- -- -- -- -- -- -- --
07F0:                                            1D 27                .'
0800: 80 23 00                                          .#.             
```

#### Opcodes

```
  0: 0x07FE [0x1D] PRINT_EVENT_MESSAGE(message_id=12554*)
    → "Ever did I warn him against going alone, for the trees can hide predators...and worse!"
  1: 0x0801 [0x23] WAIT_FOR_DIALOG_INTERACTION
  2: 0x0802 [0x00] END_REQSTACK()
```

### Event 65535.13

#### Metadata

| Field        | Value   |
|--------------|---------|
| Entrypoint   | 0x0803  |
| Data Size    | 5 bytes |
| Instructions | 3       |

```
      00 01 02 03 04 05 06 07  08 09 0A 0B 0C 0D 0E 0F
      -- -- -- -- -- -- -- --  -- -- -- -- -- -- -- --
0800:          1D 28 80 23 00                              .(.#.        
```

#### Opcodes

```
  0: 0x0803 [0x1D] PRINT_EVENT_MESSAGE(message_id=12555*)
    → "He claimed that the blue robes of the clergy would protect him."
  1: 0x0806 [0x23] WAIT_FOR_DIALOG_INTERACTION
  2: 0x0807 [0x00] END_REQSTACK()
```

### Event 65535.14

#### Metadata

| Field        | Value   |
|--------------|---------|
| Entrypoint   | 0x0808  |
| Data Size    | 5 bytes |
| Instructions | 3       |

```
      00 01 02 03 04 05 06 07  08 09 0A 0B 0C 0D 0E 0F
      -- -- -- -- -- -- -- --  -- -- -- -- -- -- -- --
0800:                          1D 29 80 23 00                   .).#.   
```

#### Opcodes

```
  0: 0x0808 [0x1D] PRINT_EVENT_MESSAGE(message_id=12556*)
    → "But it seems his faith was ill-placed. I fear that Orcs took him!"
  1: 0x080B [0x23] WAIT_FOR_DIALOG_INTERACTION
  2: 0x080C [0x00] END_REQSTACK()
```

### Event 65535.15

#### Metadata

| Field        | Value   |
|--------------|---------|
| Entrypoint   | 0x080D  |
| Data Size    | 5 bytes |
| Instructions | 3       |

```
      00 01 02 03 04 05 06 07  08 09 0A 0B 0C 0D 0E 0F
      -- -- -- -- -- -- -- --  -- -- -- -- -- -- -- --
0800:                                         1D 2A 80               .*.
0810: 23 00                                             #.              
```

#### Opcodes

```
  0: 0x080D [0x1D] PRINT_EVENT_MESSAGE(message_id=12557*)
    → "The horror he must be facing now... Each morning and night I pray to the Goddess of the Dawn to deliver him from their clutches!"
  1: 0x0810 [0x23] WAIT_FOR_DIALOG_INTERACTION
  2: 0x0811 [0x00] END_REQSTACK()
```

### Event 65535.16

#### Metadata

| Field        | Value   |
|--------------|---------|
| Entrypoint   | 0x0812  |
| Data Size    | 5 bytes |
| Instructions | 3       |

```
      00 01 02 03 04 05 06 07  08 09 0A 0B 0C 0D 0E 0F
      -- -- -- -- -- -- -- --  -- -- -- -- -- -- -- --
0810:       1D 2B 80 23 00                                .+.#.         
```

#### Opcodes

```
  0: 0x0812 [0x1D] PRINT_EVENT_MESSAGE(message_id=12558*)
    → "Why, Prince Pieuje! And, Papsque Shamonde!"
  1: 0x0815 [0x23] WAIT_FOR_DIALOG_INTERACTION
  2: 0x0816 [0x00] END_REQSTACK()
```

### Event 65535.17

#### Metadata

| Field        | Value   |
|--------------|---------|
| Entrypoint   | 0x0817  |
| Data Size    | 5 bytes |
| Instructions | 3       |

```
      00 01 02 03 04 05 06 07  08 09 0A 0B 0C 0D 0E 0F
      -- -- -- -- -- -- -- --  -- -- -- -- -- -- -- --
0810:                      1D  2C 80 23 00                     .,.#.    
```

#### Opcodes

```
  0: 0x0817 [0x1D] PRINT_EVENT_MESSAGE(message_id=12563*)
    → "I understand, of course. However... If it were true that Tedimout did happen to be kidnapped by Orcs, surely we could not simply let him die?"
  1: 0x081A [0x23] WAIT_FOR_DIALOG_INTERACTION
  2: 0x081B [0x00] END_REQSTACK()
```

### Event 65535.18

#### Metadata

| Field        | Value   |
|--------------|---------|
| Entrypoint   | 0x081C  |
| Data Size    | 5 bytes |
| Instructions | 3       |

```
      00 01 02 03 04 05 06 07  08 09 0A 0B 0C 0D 0E 0F
      -- -- -- -- -- -- -- --  -- -- -- -- -- -- -- --
0810:                                      1D 2D 80 23              .-.#
0820: 00                                                .               
```

#### Opcodes

```
  0: 0x081C [0x1D] PRINT_EVENT_MESSAGE(message_id=12565*)
    → "I understand, Your Highness. I am very thankful."
  1: 0x081F [0x23] WAIT_FOR_DIALOG_INTERACTION
  2: 0x0820 [0x00] END_REQSTACK()
```

### Event 65535.19

#### Metadata

| Field        | Value   |
|--------------|---------|
| Entrypoint   | 0x0821  |
| Data Size    | 5 bytes |
| Instructions | 3       |

```
      00 01 02 03 04 05 06 07  08 09 0A 0B 0C 0D 0E 0F
      -- -- -- -- -- -- -- --  -- -- -- -- -- -- -- --
0820:    1D 2E 80 23 00                                  ...#.          
```

#### Opcodes

```
  0: 0x0821 [0x1D] PRINT_EVENT_MESSAGE(message_id=12567*)
    → "Your Highness, <Player> is here on errand from the knight at the gatehouse. [He/She] came to ask about Tedimout."
  1: 0x0824 [0x23] WAIT_FOR_DIALOG_INTERACTION
  2: 0x0825 [0x00] END_REQSTACK()
```

### Event 694

#### Metadata

| Field        | Value     |
|--------------|-----------|
| Entrypoint   | 0x0826    |
| Data Size    | 462 bytes |
| Instructions | 55        |

```
      00 01 02 03 04 05 06 07  08 09 0A 0B 0C 0D 0E 0F
      -- -- -- -- -- -- -- --  -- -- -- -- -- -- -- --
0820:                   42 46  01 5D 0F 80 0E 80 45 0E        BF.]....E.
0830: 80 F8 FF FF 7F F8 FF FF  7F 66 64 6F 31 0F 80 1C  .........fdo1...
0840: 18 80 38 11 80 29 08 F0  FF FF 7F 35 29 08 F0 FF  ..8..).....5)...
0850: FF 7F 33 29 0B F0 FF FF  7F 3F 29 0B 10 70 0E 01  ..3).....?)..p..
0860: 38 4E 00 10 70 0E 01 4E  00 C6 70 0E 01 80 10 70  8N..p..N..p....p
0870: 0E 01 80 C6 70 0E 01 5C  00 2F 80 5C 01 2F 80 5D  ....p..\./.\./.]
0880: 13 80 14 80 1C 18 80 45  12 80 F8 FF FF 7F F8 FF  .......E........
0890: FF 7F 73 30 32 32 0F 80  45 0E 80 F8 FF FF 7F F8  ..s022..E.......
08A0: FF FF 7F 66 64 69 31 0F  80 29 0B 0E 70 0E 01 1F  ...fdi1..)..p...
08B0: 52 12 80 F8 FF FF 7F F8  FF FF 7F 73 30 32 32 45  R..........s022E
08C0: 12 80 F8 FF FF 7F F8 FF  FF 7F 73 30 32 31 0F 80  ..........s021..
08D0: 4A F0 FF FF 7F C6 70 0E  01 79 00 0E 70 0E 01 C6  J.....p..y..p...
08E0: 70 0E 01 29 0B C6 70 0E  01 03 52 12 80 F8 FF FF  p..)..p...R.....
08F0: 7F F8 FF FF 7F 73 30 32  31 45 12 80 F8 FF FF 7F  .....s021E......
0900: F8 FF FF 7F 73 30 30 30  0F 80 79 00 0E 70 0E 01  ....s000..y..p..
0910: F0 FF FF 7F 29 0B 0E 70  0E 01 20 29 0B 0E 70 0E  ....)..p.. )..p.
0920: 01 21 45 0E 80 F8 FF FF  7F F8 FF FF 7F 66 64 6F  .!E..........fdo
0930: 31 0F 80 5D 0F 80 0E 80  1C 18 80 52 12 80 F8 FF  1..].......R....
0940: FF 7F F8 FF FF 7F 73 30  30 30 45 12 80 F8 FF FF  ......s000E.....
0950: 7F F8 FF FF 7F 73 30 32  33 0F 80 45 0E 80 F8 FF  .....s023..E....
0960: FF 7F F8 FF FF 7F 66 64  69 31 0F 80 1C 18 80 52  ......fdi1.....R
0970: 12 80 F8 FF FF 7F F8 FF  FF 7F 73 30 32 33 45 0E  ..........s023E.
0980: 80 F0 FF FF 7F F0 FF FF  7F 6F 76 6C 31 0F 80 45  .........ovl1..E
0990: 12 80 F8 FF FF 7F F8 FF  FF 7F 73 30 32 34 0F 80  ..........s024..
09A0: 1C 10 80 29 0B 10 70 0E  01 39 45 0E 80 F8 FF FF  ...)..p..9E.....
09B0: 7F F8 FF FF 7F 66 64 6F  31 0F 80 1C 10 80 52 12  .....fdo1.....R.
09C0: 80 F8 FF FF 7F F8 FF FF  7F 73 30 32 34 5C 00 1F  .........s024\..
09D0: 80 5C 01 1F 80 5D 13 80  14 80 1C 0E 80 46 00 45  .\...].......F.E
09E0: 0E 80 F8 FF FF 7F F8 FF  FF 7F 66 64 69 31 0F 80  ..........fdi1..
09F0: 20 00 21 00                                        .!.            
```

#### Opcodes

```
  0: 0x0826 [0x42] SET_CLI_EVENT_CANCEL_DATA()
  1: 0x0827 [0x46] CAMERA_CONTROL: Disable user control
  2: 0x0829 [0x5D] SET_MUSIC_VOLUME(volume=0*, fade_time=200*)
  3: 0x082E [0x45] LOAD_SCHEDULED_TASK: Load scheduler "fdo1" with entities [EventEntity, EventEntity], work=[200*, 0*]
  4: 0x083F [0x1C] WAIT(100* ticks)
  5: 0x0842 [0x38] SET_CLIENT_EVENT_MODE(mode=19*)
  6: 0x0845 [0x29] REQ_SET_WAIT(priority=0x08, entity_id=LocalPlayer, tag_num=0x35)
  7: 0x084C [0x29] REQ_SET_WAIT(priority=0x08, entity_id=LocalPlayer, tag_num=0x33)
  8: 0x0853 [0x29] REQ_SET_WAIT(priority=0x0B, entity_id=LocalPlayer, tag_num=0x3F)
  9: 0x085A [0x29] REQ_SET_WAIT(priority=0x0B, entity_id=Shamonde (ID: 17723408/0x010E7010), tag_num=0x38)
 10: 0x0861 [0x4E] SET_ENTITY_HIDE_FLAG: Show Shamonde (ID: 17723408/0x010E7010)
 11: 0x0867 [0x4E] SET_ENTITY_HIDE_FLAG: Show Tedimout (ID: 17723590/0x010E70C6)
 12: 0x086D [0x80] LOAD_WAIT(entity=Shamonde (ID: 17723408/0x010E7010))
 13: 0x0872 [0x80] LOAD_WAIT(entity=Tedimout (ID: 17723590/0x010E70C6))
 14: 0x0877 [0x5C] MUSIC_CONTROL: Set Idle (Day) music to song 124*
 15: 0x087B [0x5C] MUSIC_CONTROL: Set Idle (Night) music to song 124*
 16: 0x087F [0x5D] SET_MUSIC_VOLUME(volume=127*, fade_time=1*)
 17: 0x0884 [0x1C] WAIT(100* ticks)
 18: 0x0887 [0x45] LOAD_SCHEDULED_TASK: Load scheduler "s022" with entities [EventEntity, EventEntity], work=[41*, 0*]
 19: 0x0898 [0x45] LOAD_SCHEDULED_TASK: Load scheduler "fdi1" with entities [EventEntity, EventEntity], work=[200*, 0*]
 20: 0x08A9 [0x29] REQ_SET_WAIT(priority=0x0B, entity_id=Arnau (ID: 17723406/0x010E700E), tag_num=0x1F)
 21: 0x08B0 [0x52] END_LOAD_SCHEDULER: End scheduler "s022" with entities [EventEntity, EventEntity], work=41*
 22: 0x08BF [0x45] LOAD_SCHEDULED_TASK: Load scheduler "s021" with entities [EventEntity, EventEntity], work=[41*, 0*]
 23: 0x08D0 [0x4A] LocalPlayer looks at Tedimout (ID: 17723590/0x010E70C6)
 24: 0x08D9 [0x79] Arnau (ID: 17723406/0x010E700E) looks at Tedimout (ID: 17723590/0x010E70C6) (Basic look)
 25: 0x08E3 [0x29] REQ_SET_WAIT(priority=0x0B, entity_id=Tedimout (ID: 17723590/0x010E70C6), tag_num=0x03)
 26: 0x08EA [0x52] END_LOAD_SCHEDULER: End scheduler "s021" with entities [EventEntity, EventEntity], work=41*
 27: 0x08F9 [0x45] LOAD_SCHEDULED_TASK: Load scheduler "s000" with entities [EventEntity, EventEntity], work=[41*, 0*]
 28: 0x090A [0x79] Arnau (ID: 17723406/0x010E700E) looks at LocalPlayer (Basic look)
 29: 0x0914 [0x29] REQ_SET_WAIT(priority=0x0B, entity_id=Arnau (ID: 17723406/0x010E700E), tag_num=0x20)
 30: 0x091B [0x29] REQ_SET_WAIT(priority=0x0B, entity_id=Arnau (ID: 17723406/0x010E700E), tag_num=0x21)
 31: 0x0922 [0x45] LOAD_SCHEDULED_TASK: Load scheduler "fdo1" with entities [EventEntity, EventEntity], work=[200*, 0*]
 32: 0x0933 [0x5D] SET_MUSIC_VOLUME(volume=0*, fade_time=200*)
 33: 0x0938 [0x1C] WAIT(100* ticks)
 34: 0x093B [0x52] END_LOAD_SCHEDULER: End scheduler "s000" with entities [EventEntity, EventEntity], work=41*
 35: 0x094A [0x45] LOAD_SCHEDULED_TASK: Load scheduler "s023" with entities [EventEntity, EventEntity], work=[41*, 0*]
 36: 0x095B [0x45] LOAD_SCHEDULED_TASK: Load scheduler "fdi1" with entities [EventEntity, EventEntity], work=[200*, 0*]
 37: 0x096C [0x1C] WAIT(100* ticks)
 38: 0x096F [0x52] END_LOAD_SCHEDULER: End scheduler "s023" with entities [EventEntity, EventEntity], work=41*
 39: 0x097E [0x45] LOAD_SCHEDULED_TASK: Load scheduler "ovl1" with entities [LocalPlayer, LocalPlayer], work=[200*, 0*]
 40: 0x098F [0x45] LOAD_SCHEDULED_TASK: Load scheduler "s024" with entities [EventEntity, EventEntity], work=[41*, 0*]
 41: 0x09A0 [0x1C] WAIT(60* ticks)
 42: 0x09A3 [0x29] REQ_SET_WAIT(priority=0x0B, entity_id=Shamonde (ID: 17723408/0x010E7010), tag_num=0x39)
 43: 0x09AA [0x45] LOAD_SCHEDULED_TASK: Load scheduler "fdo1" with entities [EventEntity, EventEntity], work=[200*, 0*]
 44: 0x09BB [0x1C] WAIT(60* ticks)
 45: 0x09BE [0x52] END_LOAD_SCHEDULER: End scheduler "s024" with entities [EventEntity, EventEntity], work=41*
 46: 0x09CD [0x5C] MUSIC_CONTROL: Set Idle (Day) music to song 107*
 47: 0x09D1 [0x5C] MUSIC_CONTROL: Set Idle (Night) music to song 107*
 48: 0x09D5 [0x5D] SET_MUSIC_VOLUME(volume=127*, fade_time=1*)
 49: 0x09DA [0x1C] WAIT(200* ticks)
 50: 0x09DD [0x46] CAMERA_CONTROL: Restore default settings
 51: 0x09DF [0x45] LOAD_SCHEDULED_TASK: Load scheduler "fdi1" with entities [EventEntity, EventEntity], work=[200*, 0*]
 52: 0x09F0 [0x20] SET_CLI_EVENT_UC_FLAG: Unlock player control
 53: 0x09F2 [0x21] END_EVENT
 54: 0x09F3 [0x00] END_REQSTACK()
```

### Event 65535.20

#### Metadata

| Field        | Value   |
|--------------|---------|
| Entrypoint   | 0x09F4  |
| Data Size    | 5 bytes |
| Instructions | 3       |

```
      00 01 02 03 04 05 06 07  08 09 0A 0B 0C 0D 0E 0F
      -- -- -- -- -- -- -- --  -- -- -- -- -- -- -- --
09F0:             1D 30 80 23  00                           .0.#.       
```

#### Opcodes

```
  0: 0x09F4 [0x1D] PRINT_EVENT_MESSAGE(message_id=12571*)
    → "You have my eternal thanks for saving Tedimout!"
  1: 0x09F7 [0x23] WAIT_FOR_DIALOG_INTERACTION
  2: 0x09F8 [0x00] END_REQSTACK()
```

### Event 65535.21

#### Metadata

| Field        | Value   |
|--------------|---------|
| Entrypoint   | 0x09F9  |
| Data Size    | 5 bytes |
| Instructions | 3       |

```
      00 01 02 03 04 05 06 07  08 09 0A 0B 0C 0D 0E 0F
      -- -- -- -- -- -- -- --  -- -- -- -- -- -- -- --
09F0:                             1D 31 80 23 00                 .1.#.  
```

#### Opcodes

```
  0: 0x09F9 [0x1D] PRINT_EVENT_MESSAGE(message_id=12573*)
    → "All I can do is pray for adventurers. Please, let me pray for you, too."
  1: 0x09FC [0x23] WAIT_FOR_DIALOG_INTERACTION
  2: 0x09FD [0x00] END_REQSTACK()
```

### Event 65535.22

#### Metadata

| Field        | Value   |
|--------------|---------|
| Entrypoint   | 0x09FE  |
| Data Size    | 5 bytes |
| Instructions | 3       |

```
      00 01 02 03 04 05 06 07  08 09 0A 0B 0C 0D 0E 0F
      -- -- -- -- -- -- -- --  -- -- -- -- -- -- -- --
09F0:                                            1D 32                .2
0A00: 80 23 00                                          .#.             
```

#### Opcodes

```
  0: 0x09FE [0x1D] PRINT_EVENT_MESSAGE(message_id=12574*)
    → "May light shine upon thy path, and may the Gates of Paradise open to you!"
  1: 0x0A01 [0x23] WAIT_FOR_DIALOG_INTERACTION
  2: 0x0A02 [0x00] END_REQSTACK()
```

### Event 16

#### Metadata

| Field        | Value    |
|--------------|----------|
| Entrypoint   | 0x0A03   |
| Data Size    | 18 bytes |
| Instructions | 4        |

```
      00 01 02 03 04 05 06 07  08 09 0A 0B 0C 0D 0E 0F
      -- -- -- -- -- -- -- --  -- -- -- -- -- -- -- --
0A00:          22 00 92 01 F8  FF FF 7F 37 33 80 34 80     ".......73.4.
0A10: 0F 80 35 80 00                                    ..5..           
```

#### Opcodes

```
  0: 0x0A03 [0x22] ENTITY_HIDE_FLAG(enabled=0x00)
  1: 0x0A05 [0x92] EventEntity->Render.Flags3 ^= 0x01
  2: 0x0A0B [0x37] UPDATE_EVENT_POSITION_AND_DIR: x=127.680*, z=124.152*, y=0.000*, direction=44.0°*
  3: 0x0A14 [0x00] END_REQSTACK()
```

### Event 869

#### Metadata

| Field        | Value   |
|--------------|---------|
| Entrypoint   | 0x0A15  |
| Data Size    | 1 bytes |
| Instructions | 1       |

```
      00 01 02 03 04 05 06 07  08 09 0A 0B 0C 0D 0E 0F
      -- -- -- -- -- -- -- --  -- -- -- -- -- -- -- --
0A10:                00                                      .          
```

#### Opcodes

```
  0: 0x0A15 [0x00] END_REQSTACK()
```

### Event 870

#### Metadata

| Field        | Value   |
|--------------|---------|
| Entrypoint   | 0x0A16  |
| Data Size    | 1 bytes |
| Instructions | 1       |

```
      00 01 02 03 04 05 06 07  08 09 0A 0B 0C 0D 0E 0F
      -- -- -- -- -- -- -- --  -- -- -- -- -- -- -- --
0A10:                   00                                    .         
```

#### Opcodes

```
  0: 0x0A16 [0x00] END_REQSTACK()
```
