# 17723504 - Home Point 1

## Common Data

| Field            | Value                         |
|------------------|-------------------------------|
| Zone             | Northern San d'Oria (ID: 231) |
| Block Size       | 10596 bytes                   |
| Total Events     | 4                             |
| References Count | 449                           |

## List of Events

| Event ID              | Entrypoint   |   Size |   Instructions |
|-----------------------|--------------|--------|----------------|
| [65535](#event-65535) | 0x0000       |      1 |              1 |
| [535](#event-535)     | 0x0001       |      1 |              1 |
| [67](#event-67)       | 0x0002       |     18 |              4 |
| [8700](#event-8700)   | 0x0014       |   8747 |           1263 |

## DAT References (imed_data)

|   Index | Hex Value   |   Dec Value |
|---------|-------------|-------------|
|       0 | 0xFFFD5BB4  |  4294794164 |
|       1 | 0x3C794     |      247700 |
|       2 | 0x0000      |           0 |
|       3 | 0x0B71      |        2929 |
|       4 | 0x000F      |          15 |
|       5 | 0x0010      |          16 |
|       6 | 0x0011      |          17 |
|       7 | 0x0012      |          18 |
|       8 | 0x00BF      |         191 |
|       9 | 0x00BD      |         189 |
|      10 | 0x00BE      |         190 |
|      11 | 0x0003      |           3 |
|      12 | 0x40000000  |  1073741824 |
|      13 | 0x0001      |           1 |
|      14 | 0x0002      |           2 |
|      15 | 0x0008      |           8 |
|      16 | 0x001F      |          31 |
|      17 | 0x0007      |           7 |
|      18 | 0x0017      |          23 |
|      19 | 0x0018      |          24 |
|      20 | 0x0009      |           9 |
|      21 | 0x007F      |         127 |
|      22 | 0xFFFFFFFF  |  4294967295 |
|      23 | 0x00C9      |         201 |
|      24 | 0x00CA      |         202 |
|      25 | 0x0004      |           4 |
|      26 | 0x00CB      |         203 |
|      27 | 0x00BA      |         186 |
|      28 | 0x00BB      |         187 |
|      29 | 0x00C0      |         192 |
|      30 | 0x00C7      |         199 |
|      31 | 0x001B      |          27 |
|      32 | 0x001C      |          28 |
|      33 | 0xFFFFFFFE  |  4294967294 |
|      34 | 0x00C3      |         195 |
|      35 | 0x00C8      |         200 |
|      36 | 0x00CC      |         204 |
|      37 | 0x000A      |          10 |
|      38 | 0x0005      |           5 |
|      39 | 0x00C4      |         196 |
|      40 | 0x00C5      |         197 |
|      41 | 0x00C6      |         198 |
|      42 | 0x19CC      |        6604 |
|      43 | 0x0006      |           6 |
|      44 | 0x00CD      |         205 |
|      45 | 0x00CE      |         206 |
|      46 | 0x00CF      |         207 |
|      47 | 0x00C1      |         193 |
|      48 | 0x007A      |         122 |
|      49 | 0x0020      |          32 |
|      50 | 0x000B      |          11 |
|      51 | 0x0043      |          67 |
|      52 | 0x00C2      |         194 |
|      53 | 0x0028      |          40 |
|      54 | 0x00B0      |         176 |
|      55 | 0x003C      |          60 |
|      56 | 0x00B3      |         179 |
|      57 | 0x00B4      |         180 |
|      58 | 0xFFFFFC18  |  4294966296 |
|      59 | 0x0200      |         512 |
|      60 | 0x03E8      |        1000 |
|      61 | 0x0400      |        1024 |
|      62 | 0x0600      |        1536 |
|      63 | 0x0800      |        2048 |
|      64 | 0x0A00      |        2560 |
|      65 | 0x0C00      |        3072 |
|      66 | 0x0E00      |        3584 |
|      67 | 0x00E6      |         230 |
|      68 | 0x00E7      |         231 |
|      69 | 0x00E8      |         232 |
|      70 | 0x00EA      |         234 |
|      71 | 0x00EB      |         235 |
|      72 | 0x00EC      |         236 |
|      73 | 0x00ED      |         237 |
|      74 | 0x00EE      |         238 |
|      75 | 0x00EF      |         239 |
|      76 | 0x00F0      |         240 |
|      77 | 0x00F1      |         241 |
|      78 | 0x00F3      |         243 |
|      79 | 0x00F4      |         244 |
|      80 | 0x00F5      |         245 |
|      81 | 0x00F6      |         246 |
|      82 | 0x001A      |          26 |
|      83 | 0x0030      |          48 |
|      84 | 0x0032      |          50 |
|      85 | 0x0034      |          52 |
|      86 | 0x0100      |         256 |
|      87 | 0x0101      |         257 |
|      88 | 0x008E      |         142 |
|      89 | 0x00F8      |         248 |
|      90 | 0x008F      |         143 |
|      91 | 0x0091      |         145 |
|      92 | 0x00A9      |         169 |
|      93 | 0x00F9      |         249 |
|      94 | 0x00A2      |         162 |
|      95 | 0x007E      |         126 |
|      96 | 0x009E      |         158 |
|      97 | 0x0099      |         153 |
|      98 | 0x00D0      |         208 |
|      99 | 0x00F7      |         247 |
|     100 | 0x0071      |         113 |
|     101 | 0x00FA      |         250 |
|     102 | 0x00FC      |         252 |
|     103 | 0x00A0      |         160 |
|     104 | 0x0082      |         130 |
|     105 | 0x00B2      |         178 |
|     106 | 0x000C      |          12 |
|     107 | 0x0019      |          25 |
|     108 | 0x001D      |          29 |
|     109 | 0x001E      |          30 |
|     110 | 0x0021      |          33 |
|     111 | 0x0022      |          34 |
|     112 | 0x0023      |          35 |
|     113 | 0x003D      |          61 |
|     114 | 0x0035      |          53 |
|     115 | 0x004F      |          79 |
|     116 | 0x0050      |          80 |
|     117 | 0x0057      |          87 |
|     118 | 0x005E      |          94 |
|     119 | 0x0089      |         137 |
|     120 | 0x009B      |         155 |
|     121 | 0x0105      |         261 |
|     122 | 0x0106      |         262 |
|     123 | 0x0107      |         263 |
|     124 | 0x0109      |         265 |
|     125 | 0x010A      |         266 |
|     126 | 0x010B      |         267 |
|     127 | 0x0119      |         281 |
|     128 | 0x0114      |         276 |
|     129 | 0x000D      |          13 |
|     130 | 0x000E      |          14 |
|     131 | 0x0013      |          19 |
|     132 | 0x0014      |          20 |
|     133 | 0x0015      |          21 |
|     134 | 0x0016      |          22 |
|     135 | 0x0026      |          38 |
|     136 | 0x0027      |          39 |
|     137 | 0x0024      |          36 |
|     138 | 0x003B      |          59 |
|     139 | 0x003E      |          62 |
|     140 | 0x003F      |          63 |
|     141 | 0x0040      |          64 |
|     142 | 0x002A      |          42 |
|     143 | 0x0036      |          54 |
|     144 | 0x0037      |          55 |
|     145 | 0x0038      |          56 |
|     146 | 0x002B      |          43 |
|     147 | 0x002E      |          46 |
|     148 | 0x002C      |          44 |
|     149 | 0x002F      |          47 |
|     150 | 0x0031      |          49 |
|     151 | 0x0033      |          51 |
|     152 | 0x0025      |          37 |
|     153 | 0x0029      |          41 |
|     154 | 0x0039      |          57 |
|     155 | 0x0041      |          65 |
|     156 | 0x003A      |          58 |
|     157 | 0x0042      |          66 |
|     158 | 0x002D      |          45 |
|     159 | 0xFFFEB224  |  4294881828 |
|     160 | 0xAFC8      |       45000 |
|     161 | 0x222E0     |      140000 |
|     162 | 0xFFFD484B  |  4294789195 |
|     163 | 0x2710      |       10000 |
|     164 | 0x11170     |       70000 |
|     165 | 0xFFFF6B90  |  4294929296 |
|     166 | 0xBB80      |       48000 |
|     167 | 0xFFFFE890  |  4294961296 |
|     168 | 0x9915      |       39189 |
|     169 | 0x1CCF0     |      118000 |
|     170 | 0xFFFAC040  |  4294623296 |
|     171 | 0xFFFAFEC0  |  4294639296 |
|     172 | 0xFFFD1DB8  |  4294778296 |
|     173 | 0x1EC30     |      126000 |
|     174 | 0x9C40      |       40000 |
|     175 | 0xFFFF82EA  |  4294935274 |
|     176 | 0x21B10     |      138000 |
|     177 | 0xFFFEE67A  |  4294895226 |
|     178 | 0xFFFCC3E0  |  4294755296 |
|     179 | 0x7918      |       31000 |
|     180 | 0xFFFD21A0  |  4294779296 |
|     181 | 0xFFFCD768  |  4294760296 |
|     182 | 0x2BF20     |      180000 |
|     183 | 0x2380      |        9088 |
|     184 | 0x1A1F8     |      107000 |
|     185 | 0xFFFE98A0  |  4294875296 |
|     186 | 0x12110     |       74000 |
|     187 | 0xCF08      |       53000 |
|     188 | 0xFFFEFA48  |  4294900296 |
|     189 | 0xFFFE7D5B  |  4294868315 |
|     190 | 0x7D00      |       32000 |
|     191 | 0xFFFF34E0  |  4294915296 |
|     192 | 0xFFFE7EE4  |  4294868708 |
|     193 | 0x4650      |       18000 |
|     194 | 0x90D4      |       37076 |
|     195 | 0xFFFDA288  |  4294812296 |
|     196 | 0x12F56     |       77654 |
|     197 | 0xFFFFCE32  |  4294954546 |
|     198 | 0xFFFF96E2  |  4294940386 |
|     199 | 0xFFFF8DA4  |  4294938020 |
|     200 | 0x8D15      |       36117 |
|     201 | 0xFFFEB62D  |  4294882861 |
|     202 | 0xFFFF356F  |  4294915439 |
|     203 | 0xFFFE5E08  |  4294860296 |
|     204 | 0xFFFD0E18  |  4294774296 |
|     205 | 0xFFF9AAE8  |  4294552296 |
|     206 | 0xFFF99760  |  4294547296 |
|     207 | 0xFFFFA628  |  4294944296 |
|     208 | 0x33450     |      210000 |
|     209 | 0x69F50     |      434000 |
|     210 | 0x1A9C8     |      109000 |
|     211 | 0xFFFDFC60  |  4294835296 |
|     212 | 0x3B538     |      243000 |
|     213 | 0xFFF0FC40  |  4293983296 |
|     214 | 0xFFFEC780  |  4294887296 |
|     215 | 0xFFF78BF0  |  4294413296 |
|     216 | 0x1388      |        5000 |
|     217 | 0xFFFB3D40  |  4294655296 |
|     218 | 0xFFF862C8  |  4294468296 |
|     219 | 0x7A120     |      500000 |
|     220 | 0x4A768     |      305000 |
|     221 | 0xFFFFFB1E  |  4294966046 |
|     222 | 0xFFFFAD76  |  4294946166 |
|     223 | 0xFFFFB26C  |  4294947436 |
|     224 | 0x19BF1     |      105457 |
|     225 | 0xFFFB8748  |  4294674248 |
|     226 | 0xFFFA6E38  |  4294602296 |
|     227 | 0xFFFFCD38  |  4294954296 |
|     228 | 0xFFF810C0  |  4294447296 |
|     229 | 0xFFFE8130  |  4294869296 |
|     230 | 0xFFF92618  |  4294518296 |
|     231 | 0xFDE8      |       65000 |
|     232 | 0x5C878     |      379000 |
|     233 | 0x67840     |      424000 |
|     234 | 0xFA00      |       64000 |
|     235 | 0xFFFCA888  |  4294748296 |
|     236 | 0xFFFCF2C0  |  4294767296 |
|     237 | 0xFFFF1D70  |  4294909296 |
|     238 | 0x6B6C0     |      440000 |
|     239 | 0x2DA78     |      187000 |
|     240 | 0x1B58      |        7000 |
|     241 | 0xFFF7E1E0  |  4294435296 |
|     242 | 0x8AEA8     |      569000 |
|     243 | 0xFFFFD120  |  4294955296 |
|     244 | 0xFFF97FF0  |  4294541296 |
|     245 | 0xFFF7DDF8  |  4294434296 |
|     246 | 0xFFFB6068  |  4294664296 |
|     247 | 0x157C0     |       88000 |
|     248 | 0x2CAD8     |      183000 |
|     249 | 0x18FC8     |      102344 |
|     250 | 0xFFFF09E8  |  4294904296 |
|     251 | 0x8BE48     |      573000 |
|     252 | 0xFFFD7B78  |  4294802296 |
|     253 | 0xFFFDF878  |  4294834296 |
|     254 | 0x153D8     |       87000 |
|     255 | 0xFFFD15E8  |  4294776296 |
|     256 | 0xFFFE0FE8  |  4294840296 |
|     257 | 0xFFFECF50  |  4294889296 |
|     258 | 0xFFFEFE30  |  4294901296 |
|     259 | 0xFFFFADF8  |  4294946296 |
|     260 | 0x1FBD0     |      130000 |
|     261 | 0xFFFE5A20  |  4294859296 |
|     262 | 0xFFFE7D48  |  4294868296 |
|     263 | 0x7CCE      |       31950 |
|     264 | 0xFFFF36D4  |  4294915796 |
|     265 | 0x36865     |      223333 |
|     266 | 0x0FA0      |        4000 |
|     267 | 0xFFFC1224  |  4294709796 |
|     268 | 0xB8D08     |      757000 |
|     269 | 0xFFFF0218  |  4294902296 |
|     270 | 0xFFFF5614  |  4294923796 |
|     271 | 0x36B0      |       14000 |
|     272 | 0x11F76     |       73590 |
|     273 | 0xFFFEFC6A  |  4294900842 |
|     274 | 0xFFFF7748  |  4294932296 |
|     275 | 0x1E078     |      123000 |
|     276 | 0x1166F     |       71279 |
|     277 | 0x17318     |       95000 |
|     278 | 0xFFFE65D8  |  4294862296 |
|     279 | 0xFFFDB610  |  4294817296 |
|     280 | 0xFFFF5986  |  4294924678 |
|     281 | 0xFFFF7F18  |  4294934296 |
|     282 | 0x6590      |       26000 |
|     283 | 0x1F40      |        8000 |
|     284 | 0xFFFC5E50  |  4294729296 |
|     285 | 0xFFFFB5C8  |  4294948296 |
|     286 | 0x2029D     |      131741 |
|     287 | 0xFFFFC950  |  4294953296 |
|     288 | 0x1E770     |      124784 |
|     289 | 0xFFFF63C0  |  4294927296 |
|     290 | 0x18A88     |      101000 |
|     291 | 0x372D0     |      226000 |
|     292 | 0xFFFFFE81  |  4294966913 |
|     293 | 0xFFFF2540  |  4294911296 |
|     294 | 0xF230      |       62000 |
|     295 | 0xFFFDE108  |  4294828296 |
|     296 | 0xFFFF2158  |  4294910296 |
|     297 | 0xFFFF9E58  |  4294942296 |
|     298 | 0x28E91     |      167569 |
|     299 | 0xFFFF5420  |  4294923296 |
|     300 | 0x3E80      |       16000 |
|     301 | 0xFFFD3388  |  4294783880 |
|     302 | 0xD2F0      |       54000 |
|     303 | 0x227F      |        8831 |
|     304 | 0xFFFFF060  |  4294963296 |
|     305 | 0xFFFE8F07  |  4294872839 |
|     306 | 0x154F6     |       87286 |
|     307 | 0xFFFF47C4  |  4294920132 |
|     308 | 0xFFFED4D7  |  4294890711 |
|     309 | 0x874B      |       34635 |
|     310 | 0xFFFF81D1  |  4294934993 |
|     311 | 0xE9E5      |       59877 |
|     312 | 0x48058     |      295000 |
|     313 | 0xFFFC27A0  |  4294715296 |
|     314 | 0x63DA8     |      409000 |
|     315 | 0xFFFF0DD0  |  4294905296 |
|     316 | 0x2A7B0     |      174000 |
|     317 | 0x4CE78     |      315000 |
|     318 | 0x29BF8     |      171000 |
|     319 | 0xFFFDC1C8  |  4294820296 |
|     320 | 0xFFFB9718  |  4294678296 |
|     321 | 0x101D0     |       66000 |
|     322 | 0x806B0     |      526000 |
|     323 | 0xFFF98F90  |  4294545296 |
|     324 | 0x28C58     |      167000 |
|     325 | 0x26930     |      158000 |
|     326 | 0xFFF97C08  |  4294540296 |
|     327 | 0x1A3A1     |      107425 |
|     328 | 0xFFFFAE30  |  4294946352 |
|     329 | 0xFFFF9C9F  |  4294941855 |
|     330 | 0xC31F      |       49951 |
|     331 | 0xFFFE6F62  |  4294864738 |
|     332 | 0xFFFF7360  |  4294931296 |
|     333 | 0xEE48      |       61000 |
|     334 | 0x7B4A8     |      505000 |
|     335 | 0xFFF87A38  |  4294474296 |
|     336 | 0xFFF86A98  |  4294470296 |
|     337 | 0x2C308     |      181000 |
|     338 | 0xFFFF0B78  |  4294904696 |
|     339 | 0x35B60     |      220000 |
|     340 | 0x704E0     |      460000 |
|     341 | 0x537F0     |      342000 |
|     342 | 0xFFFFB9B0  |  4294949296 |
|     343 | 0x58228     |      361000 |
|     344 | 0xAD188     |      709000 |
|     345 | 0x6D218     |      447000 |
|     346 | 0x64190     |      410000 |
|     347 | 0xFFFB9B00  |  4294679296 |
|     348 | 0x59D80     |      368000 |
|     349 | 0xDCB4      |       56500 |
|     350 | 0xFFFCB058  |  4294750296 |
|     351 | 0xFFFF11B8  |  4294906296 |
|     352 | 0x4201A     |      270362 |
|     353 | 0x13C68     |       81000 |
|     354 | 0x2AF8      |       11000 |
|     355 | 0x2F9B8     |      195000 |
|     356 | 0xFFFEF278  |  4294898296 |
|     357 | 0x0BB8      |        3000 |
|     358 | 0xFFFD5468  |  4294792296 |
|     359 | 0x1ADB0     |      110000 |
|     360 | 0xFFFFC180  |  4294951296 |
|     361 | 0x1A5E0     |      108000 |
|     362 | 0xFFFEF660  |  4294899296 |
|     363 | 0xFFFD7F60  |  4294803296 |
|     364 | 0xFFFE870C  |  4294870796 |
|     365 | 0xFFFC1F29  |  4294713129 |
|     366 | 0x2134      |        8500 |
|     367 | 0x16B48     |       93000 |
|     368 | 0x14050     |       82000 |
|     369 | 0x445C      |       17500 |
|     370 | 0x89738     |      563000 |
|     371 | 0xFFFDC998  |  4294822296 |
|     372 | 0xFFFFEC78  |  4294962296 |
|     373 | 0x97D6      |       38870 |
|     374 | 0x07D0      |        2000 |
|     375 | 0xFFFFF830  |  4294965296 |
|     376 | 0xFFFFFF38  |  4294967096 |
|     377 | 0xFFFFD8F0  |  4294957296 |
|     378 | 0xFFFFE0C0  |  4294959296 |
|     379 | 0xFFFFEC6B  |  4294962283 |
|     380 | 0xFFFFE69C  |  4294960796 |
|     381 | 0xFFFFE020  |  4294959136 |
|     382 | 0xFFFFF63C  |  4294964796 |
|     383 | 0xFFFFE2B4  |  4294959796 |
|     384 | 0x2328      |        9000 |
|     385 | 0x1770      |        6000 |
|     386 | 0xFFFFC251  |  4294951505 |
|     387 | 0x0128      |         296 |
|     388 | 0xFFFFD617  |  4294956567 |
|     389 | 0x0F9F      |        3999 |
|     390 | 0xFFFFFF6A  |  4294967146 |
|     391 | 0x0C80      |        3200 |
|     392 | 0xFFFFFE0C  |  4294966796 |
|     393 | 0xFFFF0920  |  4294904096 |
|     394 | 0x4F4C      |       20300 |
|     395 | 0xFFFF6294  |  4294926996 |
|     396 | 0xFFFF699C  |  4294928796 |
|     397 | 0xFFFFF448  |  4294964296 |
|     398 | 0xFFFFA04C  |  4294942796 |
|     399 | 0x4268      |       17000 |
|     400 | 0xB3B0      |       46000 |
|     401 | 0xFFFEEE90  |  4294897296 |
|     402 | 0xFFFF5BF0  |  4294925296 |
|     403 | 0xFFFF92FD  |  4294939389 |
|     404 | 0xFFFD4E8C  |  4294790796 |
|     405 | 0xFFFFB658  |  4294948440 |
|     406 | 0x3458      |       13400 |
|     407 | 0xFFFD006C  |  4294770796 |
|     408 | 0x59D8      |       23000 |
|     409 | 0xFFFF810C  |  4294934796 |
|     410 | 0x6D60      |       28000 |
|     411 | 0x01F4      |         500 |
|     412 | 0xFFFFEFFC  |  4294963196 |
|     413 | 0xFFFFC3C4  |  4294951876 |
|     414 | 0x86A6      |       34470 |
|     415 | 0xFFFFFF8F  |  4294967183 |
|     416 | 0xC350      |       50000 |
|     417 | 0x22F6      |        8950 |
|     418 | 0x2EE0      |       12000 |
|     419 | 0xFFFFEBB0  |  4294962096 |
|     420 | 0x1FC2      |        8130 |
|     421 | 0xFFFFCB8D  |  4294953869 |
|     422 | 0xFFFFFF42  |  4294967106 |
|     423 | 0x5DC0      |       24000 |
|     424 | 0x1D4C0     |      120000 |
|     425 | 0xFFFFBBA4  |  4294949796 |
|     426 | 0xFFFF72CA  |  4294931146 |
|     427 | 0x0BE7      |        3047 |
|     428 | 0x05A7      |        1447 |
|     429 | 0x0729      |        1833 |
|     430 | 0x0790      |        1936 |
|     431 | 0x0F4F      |        3919 |
|     432 | 0x0088      |         136 |
|     433 | 0x0A74      |        2676 |
|     434 | 0x05A4      |        1444 |
|     435 | 0x0A4F      |        2639 |
|     436 | 0x0C07      |        3079 |
|     437 | 0x0FB6      |        4022 |
|     438 | 0x0F36      |        3894 |
|     439 | 0x046D      |        1133 |
|     440 | 0xFFFFF6AA  |  4294964906 |
|     441 | 0x02AE      |         686 |
|     442 | 0x01C7      |         455 |
|     443 | 0x0811      |        2065 |
|     444 | 0x0CE3      |        3299 |
|     445 | 0x046A      |        1130 |
|     446 | 0xFFFFFC00  |  4294966272 |
|     447 | 0xFFFFFE00  |  4294966784 |
|     448 | 0x0919      |        2329 |

## String References

- **186**: You can set this as your current home point. Once you set a home point, you will return there whenever you are incapacitated.
- **187**: Set this as current home point? [Yes./No.]
- **189**: A home point can be set as a spot for you to return to Vana'diel when you have been knocked out. You can also use a home point to teleport to other home points.
- **190**: What will you do? [Travel to another home point./Set this as your home point./Other settings./On second thought, never mind.]
- **191**: You have registered a new home point! You are now able to teleport here from any other home point.
- **192**: You may teleport from here to any other home point you have registered.
- **193**: Teleport where? [Never mind./$8./$8./$8./$8./$8./$8./$8./$8./$8./$8./$8./$8./$8./$8./$8./$8./Previous page./Next page.]
- **195**: You have not yet registered any other home points, and thus are unable to teleport.
- **196**: It costs $3 gil to teleport to Home Point #$2 in $8.
- **197**: There is no fee for teleporting to Home Point #$2 in $8.
- **198**: Teleport? (Current gil: $0) [[Add to favorites/Remove from favorites]./Yes, please./No, thank you.]
- **199**: Teleport to which region? [On second thought, none./Select from favorites./Current region./[San d'Oria/Movalpolos]./[Bastok/Tavnazian Arch]./[Windurst/Lumoria]./[Jeuno/Mamool Ja Savage]./[Tavnazia/Halvung]./[West. Aht Urhgan/Arrapago Is]./[Adoulin Isles/Ruins of Alzadaal]./[Ronfaure/Ronfaure Front]./[Zulkheim/Norvallen Front]./[Norvallen/Gustaberg Front]./[Gustaberg/Derfland Front]./[Derfland/Sarutabaruta Front]./[Sarutabaruta/Aragoneu Front]./[Kolshushu/Fauregandi Front]./[Aragoneu/Valdeaunia Front]./[Fauregandi/East. Ulbuka]./[Valdeaunia/Ra'Kaznar]./[Qufim/]./[Li'Telor/]./[Kuzotz/]./[Vollbow/]./[Elshimo Low/]./[Elshimo Up/]./[Tu'Lia/]./Previous page./Next page.]
- **200**: Teleport where? [None of these./A favorited location./An original area./A Rise of the Zilart area./A Chains of Promathia area./A Treasures of Aht Urhgan area./A Wings of the Goddess area./A Seekers of Adoulin area.]
- **201**: You may change the method of selecting the area of your desired home point to teleport to.
- **202**: Which setting would you like? [My current setting./Select by region./Select by expansion.]
- **203**: You are now selecting by [region/expansion].
- **205**: Home Point #$2 in $8 has been [registered to/removed from] your list of favorite locations.
- **206**: Your list of favorite locations is full. You must delete an existing entry in order to register a new one.
- **6604**: You do not have enough gil.

## Events

### Event 65535

#### Metadata

| Field        | Value   |
|--------------|---------|
| Entrypoint   | 0x0000  |
| Data Size    | 1 bytes |
| Instructions | 1       |

```
      00 01 02 03 04 05 06 07  08 09 0A 0B 0C 0D 0E 0F
      -- -- -- -- -- -- -- --  -- -- -- -- -- -- -- --
0000: 00                                                .               
```

#### Opcodes

```
  0: 0x0000 [0x00] END_REQSTACK()
```

### Event 535

#### Metadata

| Field        | Value   |
|--------------|---------|
| Entrypoint   | 0x0001  |
| Data Size    | 1 bytes |
| Instructions | 1       |

```
      00 01 02 03 04 05 06 07  08 09 0A 0B 0C 0D 0E 0F
      -- -- -- -- -- -- -- --  -- -- -- -- -- -- -- --
0000:    00                                              .              
```

#### Opcodes

```
  0: 0x0001 [0x00] END_REQSTACK()
```

### Event 67

#### Metadata

| Field        | Value    |
|--------------|----------|
| Entrypoint   | 0x0002   |
| Data Size    | 18 bytes |
| Instructions | 4        |

```
      00 01 02 03 04 05 06 07  08 09 0A 0B 0C 0D 0E 0F
      -- -- -- -- -- -- -- --  -- -- -- -- -- -- -- --
0000:       22 01 92 01 F8 FF  FF 7F 37 00 80 01 80 02    ".......7.....
0010: 80 03 80 00                                       ....            
```

#### Opcodes

```
  0: 0x0002 [0x22] ENTITY_HIDE_FLAG(enabled=0x01)
  1: 0x0004 [0x92] EventEntity->Render.Flags3 ^= 0x01
  2: 0x000A [0x37] UPDATE_EVENT_POSITION_AND_DIR: x=-173.132*, z=247.700*, y=0.000*, direction=257.4°*
  3: 0x0013 [0x00] END_REQSTACK()
```

### Event 8700

#### Metadata

| Field        | Value      |
|--------------|------------|
| Entrypoint   | 0x0014     |
| Data Size    | 8747 bytes |
| Instructions | 940        |

```
      00 01 02 03 04 05 06 07  08 09 0A 0B 0C 0D 0E 0F
      -- -- -- -- -- -- -- --  -- -- -- -- -- -- -- --
0010:             03 00 00 03  10 03 01 00 04 10 03 02      ............
0020: 00 05 10 03 03 00 06 10  03 12 00 07 10 03 14 00  ................
0030: 08 10 03 1D 00 09 10 41  02 80 04 80 1D 00 04 00  .......A........
0040: 41 05 80 05 80 1D 00 05  00 41 06 80 06 80 1D 00  A........A......
0050: 1E 00 41 07 80 07 80 1D  00 21 00 02 05 00 02 80  ..A......!......
0060: 02 67 00 48 08 80 23 1A  D6 00 06 07 00 06 08 00  .g.H..#.........
0070: 06 22 00 48 09 80 23 02  08 00 02 80 00 D4 00 24  .".H..#........$
0080: 0A 80 07 00 02 80 25 02  00 10 0B 80 00 9A 00 03  ......%.........
0090: 01 10 0C 80 05 08 00 01  9A 00 03 07 00 00 10 02  ................
00A0: 08 00 02 80 00 D1 00 02  07 00 02 80 80 B5 00 1A  ................
00B0: 69 02 01 D1 00 02 07 00  0D 80 80 C3 00 1A 23 02  i.............#.
00C0: 01 D1 00 02 07 00 0E 80  80 D1 00 1A 9B 01 01 D1  ................
00D0: 00 01 77 00 21 00 40 02  80 04 80 01 10 0F 80 40  ..w.!.@........@
00E0: 05 80 10 80 01 10 02 80  43 00 43 01 1A F0 00 1B  ........C.C.....
00F0: 41 02 80 11 80 02 10 2F  00 41 0F 80 04 80 02 10  A....../.A......
0100: 30 00 41 05 80 12 80 02  10 31 00 41 13 80 10 80  0.A......1.A....
0110: 02 10 32 00 41 02 80 11  80 03 10 33 00 41 0F 80  ..2.A......3.A..
0120: 04 80 03 10 34 00 41 05  80 12 80 03 10 35 00 41  ....4.A......5.A
0130: 13 80 10 80 03 10 36 00  41 02 80 11 80 04 10 37  ......6.A......7
0140: 00 06 3D 00 02 3D 00 14  80 03 6F 01 9D 00 0F 13  ..=..=....o.....
0150: 39 00 3D 00 02 39 00 15  80 02 69 01 9D 05 0F 13  9.=..9....i.....
0160: 16 80 3D 00 03 39 00 16  80 0B 3D 00 01 44 01 1A  ..=..9....=..D..
0170: 73 01 1B 06 3D 00 06 38  00 02 3D 00 14 80 03 9A  s...=..8..=.....
0180: 01 9D 00 0F 13 39 00 3D  00 02 39 00 02 80 04 94  .....9.=..9.....
0190: 01 0B 38 00 0B 3D 00 01  79 01 1B 48 17 80 23 03  ..8..=..y..H..#.
01A0: 1F 00 21 00 0B 1F 00 06  20 00 3C 20 00 02 80 0D  ..!..... .< ....
01B0: 80 24 18 80 1F 00 20 00  25 02 00 10 02 80 00 C4  .$.... .%.......
01C0: 01 01 22 02 02 00 10 0D  80 00 F3 01 03 21 00 02  .."..........!..
01D0: 80 40 02 80 04 80 01 10  19 80 40 05 80 10 80 01  .@........@.....
01E0: 10 21 00 43 00 43 01 03  03 10 21 00 48 1A 80 23  .!.C.C....!.H..#
01F0: 01 22 02 02 00 10 0E 80  00 22 02 03 21 00 0D 80  ."......."..!...
0200: 40 02 80 04 80 01 10 19  80 40 05 80 10 80 01 10  @........@......
0210: 21 00 43 00 43 01 03 03  10 21 00 48 1A 80 23 01  !.C.C....!.H..#.
0220: 22 02 1B 48 1B 80 23 24  1C 80 0D 80 02 80 25 02  "..H..#$......%.
0230: 00 10 02 80 00 5D 02 42  40 02 80 04 80 01 10 0D  .....].B@.......
0240: 80 40 05 80 10 80 01 10  02 80 2C F8 FF FF 7F F0  .@........,.....
0250: FF FF 7F 62 69 6E 64 05  08 00 01 68 02 02 00 10  ...bind....h....
0260: 0D 80 00 68 02 01 68 02  1B 06 0A 00 48 1D 80 23  ...h..h.....H..#
0270: 02 21 00 02 80 80 59 03  06 17 00 06 16 00 06 15  .!....Y.........
0280: 00 06 18 00 06 22 00 02  17 00 02 80 00 56 03 1A  .....".......V..
0290: 41 0F 03 03 10 22 00 24  1E 80 16 00 15 00 25 02  A....".$......%.
02A0: 00 10 02 80 00 AD 02 05  17 00 01 AD 02 03 16 00  ................
02B0: 00 10 02 16 00 0D 80 80  C3 02 1A C2 03 06 16 00  ................
02C0: 01 2F 03 02 16 00 0E 80  80 F9 02 9D 00 3F 18 43  ./...........?.C
02D0: 00 04 00 9D 00 1F 14 16  00 43 00 03 22 00 16 00  .........C.."...
02E0: 15 22 00 13 80 03 43 00  16 00 3F 16 00 43 00 13  ."....C...?..C..
02F0: 80 07 16 00 0B 80 01 2F  03 02 16 00 1F 80 80 14  ......./........
0300: 03 02 22 00 02 80 02 0C  03 0C 22 00 03 16 00 02  ..".......".....
0310: 80 01 2F 03 02 16 00 20  80 80 2F 03 02 22 00 0D  ../.... ../.."..
0320: 80 03 27 03 0B 22 00 03  16 00 02 80 01 2F 03 02  ..'.."......./..
0330: 16 00 02 80 02 53 03 03  43 00 22 00 14 43 00 13  .....S..C."..C..
0340: 80 07 43 00 16 00 08 43  00 0B 80 03 18 00 43 00  ..C....C......C.
0350: 1A 35 0B 01 87 02 01 C1  03 02 21 00 0D 80 80 C1  .5........!.....
0360: 03 06 17 00 06 16 00 06  15 00 02 17 00 02 80 00  ................
0370: BE 03 1A BD 0A 02 15 00  21 80 00 87 03 48 22 80  ........!....H".
0380: 23 05 17 00 01 BB 03 24  23 80 16 00 15 00 25 02  #......$#.....%.
0390: 00 10 02 80 00 9D 03 05  17 00 01 9D 03 03 16 00  ................
03A0: 00 10 02 16 00 02 80 01  BB 03 02 16 00 0D 80 00  ................
03B0: B8 03 1A C2 03 01 BB 03  1A 65 08 01 6A 03 01 C1  .........e..j...
03C0: 03 1B 06 0E 00 06 0D 00  06 4D 00 02 0E 00 02 80  .........M......
03D0: 00 FB 05 1A 2C 07 D4 00  24 80 0D 00 0C 00 25 02  ....,...$.....%.
03E0: 00 10 02 80 00 ED 03 05  0E 00 01 ED 03 03 0D 00  ................
03F0: 00 10 02 0D 00 25 80 80  08 04 1A FC 05 03 0D 00  .....%..........
0400: 25 80 05 0E 00 01 08 04  02 0E 00 02 80 00 ED 05  %...............
0410: 03 41 00 0D 00 0C 41 00  9D 00 0F 13 0F 00 41 00  .A....A.......A.
0420: 9D 00 3F 15 03 10 0F 00  9D 00 3F 17 04 10 0F 00  ..?.......?.....
0430: 9D 00 3F 20 05 10 0F 00  3E 1E 00 02 80 44 04 15  ..? ....>....D..
0440: 05 10 26 80 03 02 10 12  00 06 39 00 06 41 00 9D  ..&.......9..A..
0450: 00 3F 1A 41 00 0F 00 9D  00 3F 1A 39 00 04 00 02  .?.A.....?.9....
0460: 41 00 02 80 00 6E 04 48  27 80 23 01 87 04 02 41  A....n.H'.#....A
0470: 00 39 00 00 83 04 06 05  10 05 4D 00 48 28 80 23  .9........M.H(.#
0480: 01 87 04 48 27 80 23 06  4B 00 03 4C 00 0E 80 02  ...H'.#.K..L....
0490: 4B 00 02 80 00 EA 05 05  4B 00 1A FB 06 02 41 00  K.......K.....A.
04A0: 02 80 04 AD 04 03 19 17  0D 80 01 B2 04 03 19 17  ................
04B0: 02 80 03 02 10 12 00 24  29 80 4C 00 02 80 25 02  .......$).L...%.
04C0: 00 10 02 80 00 CA 04 01  CA 04 03 4C 00 00 10 02  ...........L....
04D0: 4C 00 02 80 80 F6 04 1A  FC 05 06 4B 00 02 4D 00  L..........K..M.
04E0: 02 80 00 F0 04 9D 00 3F  20 05 10 0F 00 01 F3 04  .......? .......
04F0: 06 05 10 01 E7 05 02 4C  00 0D 80 80 DC 05 02 12  .......L........
0500: 00 05 10 03 1E 05 48 2A  80 23 05 17 00 05 0E 00  ......H*.#......
0510: 05 0B 00 05 08 00 03 01  10 0C 80 01 D9 05 42 9D  ..............B.
0520: 00 3F 15 41 00 0F 00 9D  00 3F 15 39 00 04 00 02  .?.A.....?.9....
0530: 41 00 39 00 00 A2 05 40  02 80 04 80 01 10 0E 80  A.9....@........
0540: 40 05 80 10 80 01 10 0F  00 43 00 43 01 1A D1 11  @........C.C....
0550: 1A 2F 12 BA F0 FF FF 7F  19 00 1B 00 1A 00 1C 00  ./..............
0560: 40 02 80 04 80 01 10 0B  80 40 05 80 10 80 01 10  @........@......
0570: 0F 00 47 00 19 00 1B 00  1A 00 1C 00 47 01 1A FA  ..G.........G...
0580: 11 40 02 80 04 80 01 10  0B 80 40 05 80 10 80 01  .@........@.....
0590: 10 02 80 05 17 00 05 0E  00 05 0B 00 05 08 00 01  ................
05A0: D9 05 40 02 80 04 80 01  10 0E 80 40 05 80 10 80  ..@........@....
05B0: 01 10 0F 00 43 00 43 01  1A D1 11 40 02 80 04 80  ....C.C....@....
05C0: 01 10 0E 80 40 05 80 10  80 01 10 0F 00 05 17 00  ....@...........
05D0: 05 0E 00 05 0B 00 05 08  00 01 E7 05 02 4C 00 0E  .............L..
05E0: 80 80 E7 05 01 E7 05 01  8F 04 01 F8 05 02 0D 00  ................
05F0: 02 80 01 F8 05 06 0E 00  01 CB 03 1B 02 19 17 02  ................
0600: 80 02 3C 06 40 02 80 04  80 01 10 2B 80 40 05 80  ..<.@......+.@..
0610: 10 80 01 10 0F 00 43 00  43 01 1A F0 00 9D 00 3F  ......C.C......?
0620: 15 03 10 0F 00 9D 00 3F  17 04 10 0F 00 03 19 17  .......?........
0630: 0D 80 48 2C 80 23 06 0D  00 01 FA 06 1A 73 01 02  ..H,.#.......s..
0640: 38 00 14 80 03 7F 06 40  02 80 04 80 01 10 26 80  8......@......&.
0650: 40 05 80 10 80 01 10 0F  00 43 00 43 01 1A F0 00  @........C.C....
0660: 9D 00 3F 15 03 10 0F 00  9D 00 3F 17 04 10 0F 00  ..?.......?.....
0670: 03 19 17 02 80 48 2C 80  23 05 0D 00 01 FA 06 03  .....H,.#.......
0680: 49 00 0F 00 48 2D 80 23  1A CE 07 D4 00 2E 80 02  I...H-.#........
0690: 80 0C 00 25 02 00 10 02  80 00 9F 06 01 9F 06 03  ...%............
06A0: 41 00 00 10 02 41 00 02  80 02 F5 06 03 0F 00 49  A....A.........I
06B0: 00 0C 41 00 40 02 80 04  80 01 10 11 80 40 05 80  ..A.@........@..
06C0: 12 80 01 10 49 00 40 13  80 10 80 01 10 41 00 43  ....I.@......A.C
06D0: 00 43 01 1A F0 00 9D 00  3F 15 03 10 49 00 9D 00  .C......?...I...
06E0: 3F 17 04 10 49 00 03 19  17 02 80 48 2C 80 23 05  ?...I......H,.#.
06F0: 0D 00 01 FA 06 03 0F 00  49 00 1B 06 3D 00 03 41  ........I...=..A
0700: 00 16 80 02 3D 00 14 80  03 2B 07 9D 00 0F 13 39  ....=....+.....9
0710: 00 3D 00 02 39 00 0F 00  00 25 07 03 41 00 3D 00  .=..9....%..A.=.
0720: 03 3D 00 14 80 0B 3D 00  01 03 07 1B 1A B7 11 06  .=....=.........
0730: 3D 00 06 0C 00 03 0C 00  16 80 02 3D 00 14 80 03  =..........=....
0740: A4 07 9D 00 0F 13 41 00  3D 00 02 41 00 04 00 01  ......A.=..A....
0750: 9E 07 02 41 00 02 80 04  9B 07 3D 0C 00 3D 00 0D  ...A......=..=..
0760: 80 9D 00 3F 15 3F 00 41  00 9D 00 3F 17 3B 00 41  ...?.?.A...?.;.A
0770: 00 03 39 00 3D 00 0B 39  00 D4 01 39 00 02 80 41  ..9.=..9...9...A
0780: 00 9D 05 3F 13 3F 00 3D  00 03 39 00 3D 00 07 39  ...?.?.=..9.=..9
0790: 00 05 80 9D 05 3F 13 3B  00 39 00 01 9E 07 0B 3D  .....?.;.9.....=
07A0: 00 01 3A 07 10 0C 00 0D  80 3D 0C 00 25 80 0D 80  ..:......=..%...
07B0: 03 0F 00 04 00 1A FB 06  02 41 00 02 80 04 C8 07  .........A......
07C0: 03 19 17 0D 80 01 CD 07  03 19 17 02 80 1B 1A B7  ................
07D0: 11 06 3D 00 06 0C 00 03  0C 00 16 80 02 3D 00 14  ..=..........=..
07E0: 80 03 3B 08 9D 00 0F 13  41 00 3D 00 02 41 00 02  ..;.....A.=..A..
07F0: 80 04 35 08 3D 0C 00 3D  00 0D 80 9D 00 3F 15 3F  ..5.=..=.....?.?
0800: 00 41 00 9D 00 3F 17 3B  00 41 00 03 39 00 3D 00  .A...?.;.A..9.=.
0810: 0B 39 00 D4 01 39 00 02  80 41 00 9D 05 3F 13 3F  .9...9...A...?.?
0820: 00 3D 00 03 39 00 3D 00  07 39 00 05 80 9D 05 3F  .=..9.=..9.....?
0830: 13 3B 00 39 00 0B 3D 00  01 DC 07 10 0C 00 0D 80  .;.9..=.........
0840: 3D 0C 00 25 80 0D 80 03  0F 00 04 00 1A FB 06 02  =..%............
0850: 41 00 02 80 04 5F 08 03  19 17 0D 80 01 64 08 03  A...._.......d..
0860: 19 17 02 80 1B 06 0B 00  06 0A 00 06 10 00 02 0B  ................
0870: 00 02 80 00 E5 08 1A E6  08 24 2F 80 0A 00 09 00  .........$/.....
0880: 25 02 00 10 02 80 00 90  08 05 0B 00 1B 01 90 08  %...............
0890: 03 0A 00 00 10 02 0A 00  06 80 80 AE 08 02 10 00  ................
08A0: 02 80 02 A8 08 0C 10 00  06 0A 00 01 C7 08 02 0A  ................
08B0: 00 07 80 80 C7 08 02 10  00 0D 80 03 C1 08 0B 10  ................
08C0: 00 06 0A 00 01 C7 08 02  0A 00 02 80 02 E2 08 03  ................
08D0: 4A 00 0A 00 0C 4A 00 9D  00 3F 13 13 00 4A 00 1A  J....J...?...J..
08E0: 37 0C 01 6E 08 1B 1A B7  11 06 39 00 06 3D 00 06  7..n......9..=..
08F0: 09 00 06 40 00 03 23 00  16 80 03 24 00 16 80 03  ...@..#....$....
0900: 18 00 16 00 08 18 00 0E  80 02 3D 00 30 80 03 7F  ..........=.0...
0910: 09 03 3C 00 3D 00 15 3C  00 31 80 03 3E 00 3D 00  ..<.=..<.1..>.=.
0920: 3F 3E 00 3E 00 31 80 06  39 00 9D 00 2F 13 39 00  ?>.>.1..9.../.9.
0930: 3C 00 3E 39 00 3E 00 79  09 9D 00 3F 16 44 00 3D  <.>9.>.y...?.D.=
0940: 00 3E 14 00 44 00 79 09  02 44 00 32 80 00 55 09  .>..D.y..D.2..U.
0950: 03 44 00 26 80 02 18 00  44 00 00 79 09 9D 00 3F  .D.&....D..y...?
0960: 15 3F 00 3D 00 02 3D 00  04 00 01 73 09 06 25 00  .?.=..=....s..%.
0970: 01 76 09 05 25 00 1A 22  0A 0B 3D 00 01 09 09 02  .v..%.."..=.....
0980: 10 00 02 80 80 BD 09 03  09 00 23 00 02 40 00 05  ..........#..@..
0990: 80 03 A5 09 40 40 00 10  80 09 00 16 80 10 09 00  ....@@..........
09A0: 0D 80 01 BA 09 40 05 80  10 80 09 00 16 80 10 09  .....@..........
09B0: 00 0D 80 3D 09 00 07 80  0D 80 01 EF 09 02 10 00  ...=............
09C0: 0D 80 80 EF 09 1A F0 09  03 09 00 24 00 03 41 00  ...........$..A.
09D0: 40 00 08 41 00 05 80 40  41 00 10 80 09 00 16 80  @..A...@A.......
09E0: 10 09 00 0D 80 3D 09 00  06 80 0D 80 01 EF 09 1B  .....=..........
09F0: 06 48 00 06 49 00 06 41  00 02 48 00 05 80 03 21  .H..I..A..H....!
0A00: 0A 03 41 00 48 00 07 41  00 05 80 9D 00 3F 13 49  ..A.H..A.....?.I
0A10: 00 41 00 9D 05 3F 13 49  00 48 00 0B 48 00 01 F9  .A...?.I.H..H...
0A20: 09 1B 06 48 00 06 49 00  02 48 00 40 00 05 BC 0A  ...H..I..H.@....
0A30: 9D 00 3F 13 49 00 48 00  02 49 00 3F 00 00 73 0A  ..?.I.H..I.?..s.
0A40: 02 25 00 02 80 00 6B 0A  02 48 00 05 80 03 5A 0A  .%....k..H....Z.
0A50: 3D 23 00 48 00 0D 80 01  6B 0A 03 3B 00 48 00 08  =#.H....k..;.H..
0A60: 3B 00 05 80 3D 24 00 3B  00 0D 80 03 48 00 40 00  ;...=$.;....H.@.
0A70: 01 B6 0A 02 49 00 02 80  00 B6 0A 9D 05 3F 13 3F  ....I........?.?
0A80: 00 48 00 02 25 00 02 80  00 AE 0A 02 48 00 05 80  .H..%.......H...
0A90: 03 9D 0A 3D 23 00 48 00  0D 80 01 AE 0A 03 3B 00  ...=#.H.......;.
0AA0: 48 00 08 3B 00 05 80 3D  24 00 3B 00 0D 80 0B 40  H..;...=$.;....@
0AB0: 00 03 48 00 40 00 0B 48  00 01 28 0A 1B 1A B7 11  ..H.@..H..(.....
0AC0: 06 3D 00 06 15 00 03 15  00 16 80 02 3D 00 30 80  .=..........=.0.
0AD0: 03 2F 0B 02 3D 00 04 00  01 29 0B 03 3C 00 3D 00  ./..=....)..<.=.
0AE0: 15 3C 00 31 80 03 3E 00  3D 00 3F 3E 00 3E 00 31  .<.1..>.=.?>.>.1
0AF0: 80 06 39 00 9D 00 2F 13  39 00 3C 00 3E 39 00 3E  ..9.../.9.<.>9.>
0B00: 00 26 0B 9D 00 3F 16 44  00 3D 00 3E 14 00 44 00  .&...?.D.=.>..D.
0B10: 26 0B 02 44 00 32 80 00  1F 0B 03 44 00 26 80 3D  &..D.2.....D.&.=
0B20: 15 00 44 00 0D 80 01 29  0B 0B 3D 00 01 CB 0A 10  ..D....)..=.....
0B30: 15 00 0E 80 1B 06 0B 00  06 0A 00 02 0B 00 02 80  ................
0B40: 00 7F 0B 1A 80 0B 24 2F  80 0A 00 09 00 25 02 00  ......$/.....%..
0B50: 10 02 80 00 5C 0B 05 0B  00 01 5C 0B 03 0A 00 00  ....\.....\.....
0B60: 10 02 0A 00 02 80 02 7C  0B 03 3F 00 0A 00 0C 3F  .......|..?....?
0B70: 00 9D 00 3F 13 13 00 3F  00 1A 37 0C 01 3B 0B 1B  ...?...?..7..;..
0B80: 1A B7 11 06 3D 00 06 09  00 06 40 00 03 09 00 16  ....=.....@.....
0B90: 80 02 3D 00 30 80 03 28  0C 03 3C 00 3D 00 15 3C  ..=.0..(..<.=..<
0BA0: 00 31 80 03 3E 00 3D 00  3F 3E 00 3E 00 31 80 06  .1..>.=.?>.>.1..
0BB0: 39 00 9D 00 2F 13 39 00  3C 00 3E 39 00 3E 00 22  9.../.9.<.>9.>."
0BC0: 0C 9D 00 3F 15 3F 00 3D  00 9D 00 3F 16 44 00 3D  ...?.?.=...?.D.=
0BD0: 00 3E 14 00 44 00 22 0C  06 3B 00 02 3B 00 33 80  .>..D."..;..;.3.
0BE0: 03 22 0C 9D 00 8F 13 41  00 3B 00 02 41 00 3F 00  .".....A.;..A.?.
0BF0: 00 1C 0C 9D 00 1F 14 43  00 3B 00 02 18 00 43 00  .......C.;....C.
0C00: 00 1C 0C 02 3D 00 04 00  01 11 0C 06 25 00 01 14  ....=.......%...
0C10: 0C 05 25 00 1A 9C 10 03  3B 00 33 80 0B 3B 00 01  ..%.....;.3..;..
0C20: DB 0B 0B 3D 00 01 91 0B  40 40 00 10 80 09 00 16  ...=....@@......
0C30: 80 10 09 00 0D 80 1B 06  0E 00 06 0D 00 06 4D 00  ..............M.
0C40: 02 0E 00 02 80 00 41 0E  1A 42 0E 03 19 17 13 00  ......A..B......
0C50: D4 00 34 80 0D 00 0C 00  25 02 00 10 02 80 00 67  ..4.....%......g
0C60: 0C 05 0E 00 01 67 0C 03  0D 00 00 10 02 0E 00 02  .....g..........
0C70: 80 00 3E 0E 1A D5 0E 9D  00 3F 15 03 10 0F 00 03  ..>......?......
0C80: 04 10 0D 00 9D 00 3F 20  05 10 0F 00 3E 1E 00 02  ......? ....>...
0C90: 80 98 0C 15 05 10 26 80  03 02 10 12 00 06 39 00  ......&.......9.
0CA0: 06 41 00 9D 00 3F 1A 41  00 0F 00 9D 00 3F 1A 39  .A...?.A.....?.9
0CB0: 00 04 00 02 41 00 02 80  00 C2 0C 48 27 80 23 01  ....A......H'.#.
0CC0: DB 0C 02 41 00 39 00 00  D7 0C 06 05 10 05 4D 00  ...A.9........M.
0CD0: 48 28 80 23 01 DB 0C 48  27 80 23 06 4B 00 03 4C  H(.#...H'.#.K..L
0CE0: 00 0E 80 02 4B 00 02 80  00 3E 0E 05 4B 00 1A FB  ....K....>..K...
0CF0: 06 02 41 00 02 80 04 01  0D 03 19 17 0D 80 01 06  ..A.............
0D00: 0D 03 19 17 02 80 03 02  10 12 00 24 29 80 4C 00  ...........$).L.
0D10: 02 80 25 02 00 10 02 80  00 1E 0D 01 1E 0D 03 4C  ..%............L
0D20: 00 00 10 02 4C 00 02 80  80 4A 0D 1A FC 05 06 4B  ....L....J.....K
0D30: 00 02 4D 00 02 80 00 44  0D 9D 00 3F 20 05 10 0F  ..M....D...? ...
0D40: 00 01 47 0D 06 05 10 01  3B 0E 02 4C 00 0D 80 80  ..G.....;..L....
0D50: 30 0E 02 12 00 05 10 03  72 0D 48 2A 80 23 05 17  0.......r.H*.#..
0D60: 00 05 0E 00 05 0B 00 05  08 00 03 01 10 0C 80 01  ................
0D70: 2D 0E 42 9D 00 3F 15 41  00 0F 00 9D 00 3F 15 39  -.B..?.A.....?.9
0D80: 00 04 00 02 41 00 39 00  00 F6 0D 40 02 80 04 80  ....A.9....@....
0D90: 01 10 0E 80 40 05 80 10  80 01 10 0F 00 43 00 43  ....@........C.C
0DA0: 01 1A D1 11 1A 2F 12 BA  F0 FF FF 7F 19 00 1B 00  ...../..........
0DB0: 1A 00 1C 00 40 02 80 04  80 01 10 0B 80 40 05 80  ....@........@..
0DC0: 10 80 01 10 0F 00 47 00  19 00 1B 00 1A 00 1C 00  ......G.........
0DD0: 47 01 1A FA 11 40 02 80  04 80 01 10 0B 80 40 05  G....@........@.
0DE0: 80 10 80 01 10 02 80 05  17 00 05 0E 00 05 0B 00  ................
0DF0: 05 08 00 01 2D 0E 40 02  80 04 80 01 10 0E 80 40  ....-.@........@
0E00: 05 80 10 80 01 10 0F 00  43 00 43 01 1A D1 11 40  ........C.C....@
0E10: 02 80 04 80 01 10 0E 80  40 05 80 10 80 01 10 0F  ........@.......
0E20: 00 05 17 00 05 0E 00 05  0B 00 05 08 00 01 3B 0E  ..............;.
0E30: 02 4C 00 0E 80 80 3B 0E  01 3B 0E 01 E3 0C 01 40  .L....;..;.....@
0E40: 0C 1B 1A B7 11 06 3D 00  06 0C 00 06 41 00 03 41  ......=.....A..A
0E50: 00 13 00 03 0C 00 16 80  3D 0C 00 02 80 0D 80 02  ........=.......
0E60: 3D 00 30 80 03 D4 0E 02  3D 00 04 00 01 CE 0E 03  =.0.....=.......
0E70: 3C 00 3D 00 15 3C 00 31  80 03 3E 00 3D 00 3F 3E  <.=..<.1..>.=.?>
0E80: 00 3E 00 31 80 9D 00 2F  13 39 00 3C 00 3E 39 00  .>.1.../.9.<.>9.
0E90: 3E 00 CE 0E 9D 00 3F 15  3F 00 3D 00 02 3F 00 41  >.....?.?.=..?.A
0EA0: 00 00 CE 0E 9D 00 3F 17  3B 00 3D 00 3D 0C 00 3B  ......?.;.=.=..;
0EB0: 00 0D 80 D4 01 3B 00 02  80 3D 00 9D 00 3F 1B 46  .....;...=...?.F
0EC0: 00 3D 00 0C 3B 00 9D 05  3F 13 46 00 3B 00 0B 3D  .=..;...?.F.;..=
0ED0: 00 01 5F 0E 1B 06 3D 00  06 0C 00 06 41 00 03 41  .._...=.....A..A
0EE0: 00 13 00 02 3D 00 30 80  03 40 0F 03 3C 00 3D 00  ....=.0..@..<.=.
0EF0: 15 3C 00 31 80 03 3E 00  3D 00 3F 3E 00 3E 00 31  .<.1..>.=.?>.>.1
0F00: 80 9D 00 2F 13 39 00 3C  00 3E 39 00 3E 00 3A 0F  .../.9.<.>9.>.:.
0F10: 9D 00 3F 15 3F 00 3D 00  02 3F 00 41 00 00 3A 0F  ..?.?.=..?.A..:.
0F20: 9D 00 3F 17 3B 00 3D 00  02 3B 00 0D 00 00 3A 0F  ..?.;.=..;....:.
0F30: 03 0F 00 3D 00 03 3D 00  30 80 0B 3D 00 01 E3 0E  ...=..=.0..=....
0F40: 1B 1A B7 11 06 3D 00 06  15 00 06 23 00 06 24 00  .....=.....#..$.
0F50: 03 23 00 16 80 03 24 00  16 80 02 3D 00 30 80 03  .#....$....=.0..
0F60: FE 0F 02 3D 00 04 00 01  F8 0F 03 3C 00 3D 00 15  ...=.......<.=..
0F70: 3C 00 31 80 03 3E 00 3D  00 3F 3E 00 3E 00 31 80  <.1..>.=.?>.>.1.
0F80: 06 39 00 9D 00 2F 13 39  00 3C 00 3E 39 00 3E 00  .9.../.9.<.>9.>.
0F90: F5 0F 9D 00 3F 15 3F 00  3D 00 9D 00 3F 16 44 00  ....?.?.=...?.D.
0FA0: 3D 00 3E 14 00 44 00 F5  0F 06 3B 00 02 3B 00 33  =.>..D....;..;.3
0FB0: 80 03 F5 0F 9D 00 8F 13  41 00 3B 00 02 41 00 3F  ........A.;..A.?
0FC0: 00 00 EF 0F 9D 00 1F 14  43 00 3B 00 02 43 00 13  ........C.;..C..
0FD0: 80 03 DE 0F 3D 23 00 43  00 0D 80 01 EA 0F 08 43  ....=#.C.......C
0FE0: 00 13 80 3D 24 00 43 00  0D 80 03 3B 00 33 80 0B  ...=$.C....;.3..
0FF0: 3B 00 01 AC 0F 01 F8 0F  0B 3D 00 01 5A 0F 06 3B  ;........=..Z..;
1000: 00 06 43 00 9D 00 3F 18  3B 00 04 00 9D 00 1F 14  ..C...?.;.......
1010: 43 00 3B 00 02 43 00 13  80 03 34 10 03 15 00 23  C.;..C....4....#
1020: 00 3E 15 00 43 00 2E 10  05 3B 00 01 31 10 06 3B  .>..C....;..1..;
1030: 00 01 4E 10 08 43 00 13  80 03 15 00 24 00 3E 15  ..N..C......$.>.
1040: 00 43 00 4B 10 05 3B 00  01 4E 10 06 3B 00 02 22  .C.K..;..N..;.."
1050: 00 02 80 80 5E 10 03 15  00 23 00 01 6E 10 02 22  ....^....#..n.."
1060: 00 0D 80 80 6E 10 03 15  00 24 00 01 6E 10 10 15  ....n....$..n...
1070: 00 0B 80 02 3B 00 02 80  01 82 10 3C 15 00 0E 80  ....;......<....
1080: 0D 80 02 22 00 02 80 00  94 10 3D 15 00 20 80 0D  ..."......=.. ..
1090: 80 01 9B 10 3D 15 00 1F  80 0D 80 1B 06 48 00 06  ....=........H..
10A0: 49 00 02 48 00 40 00 05  3D 11 9D 00 3F 13 49 00  I..H.@..=...?.I.
10B0: 48 00 02 49 00 3F 00 00  D1 10 02 25 00 02 80 00  H..I.?.....%....
10C0: C9 10 3D 09 00 48 00 0D  80 03 48 00 40 00 01 37  ..=..H....H.@..7
10D0: 11 02 49 00 02 80 00 FB  10 9D 05 3F 13 3F 00 48  ..I........?.?.H
10E0: 00 02 25 00 02 80 00 F0  10 3D 09 00 48 00 0D 80  ..%......=..H...
10F0: 0B 40 00 03 48 00 40 00  01 37 11 03 26 00 49 00  .@..H.@..7..&.I.
1100: 1A 3E 11 02 3B 00 28 00  03 37 11 03 2B 00 48 00  .>..;.(..7..+.H.
1110: 03 2C 00 40 00 1A 78 11  9D 05 3F 13 3F 00 48 00  .,.@..x...?.?.H.
1120: 02 25 00 02 80 00 2F 11  3D 09 00 48 00 0D 80 0B  .%..../.=..H....
1130: 40 00 03 48 00 40 00 0B  48 00 01 A2 10 1B 06 28  @..H.@..H......(
1140: 00 06 27 00 06 29 00 02  29 00 33 80 03 77 11 9D  ..'..)..).3..w..
1150: 00 8F 13 2A 00 29 00 02  2A 00 26 00 00 71 11 9D  ...*.)..*.&..q..
1160: 00 1F 14 27 00 29 00 03  28 00 29 00 03 29 00 33  ...'.)..(.)..).3
1170: 80 0B 29 00 01 47 11 1B  03 2E 00 2C 00 06 2D 00  ..)..G.....,..-.
1180: 02 2E 00 2B 00 04 B6 11  9D 00 3F 13 45 00 2E 00  ...+......?.E...
1190: 41 2E 00 2E 00 09 00 2D  00 0B 2E 00 9D 05 3F 13  A......-......?.
11A0: 45 00 2E 00 40 2E 00 2E  00 09 00 2D 00 0C 2E 00  E...@......-....
11B0: 0C 2E 00 01 80 11 1B 06  3D 00 02 3D 00 35 80 03  ........=..=.5..
11C0: D0 11 9D 05 3F 13 02 80  3D 00 0B 3D 00 01 BA 11  ....?...=..=....
11D0: 1B CD 36 80 F0 FF FF 7F  F0 FF FF 7F 6D 61 69 6E  ..6.........main
11E0: 02 80 1C 23 80 45 23 80  F0 FF FF 7F F0 FF FF 7F  ...#.E#.........
11F0: 66 64 6F 31 02 80 1C 37  80 1B 45 23 80 F0 FF FF  fdo1...7..E#....
1200: 7F F0 FF FF 7F 66 64 69  31 02 80 CD 38 80 F0 FF  .....fdi1...8...
1210: FF 7F F0 FF FF 7F 6D 61  69 6E 02 80 1C 39 80 55  ......main...9.U
1220: 23 80 F0 FF FF 7F F0 FF  FF 7F 66 64 69 31 1B 06  #.........fdi1..
1230: 3D 00 9D 00 3F 1C 19 00  0F 00 9D 00 3F 1E 1A 00  =...?.......?...
1240: 0F 00 9D 00 3F 1D 1B 00  0F 00 9D 00 3F 21 47 00  ....?.......?!G.
1250: 0F 00 02 47 00 02 80 80  67 12 03 1C 00 02 80 07  ...G....g.......
1260: 19 00 3A 80 01 0E 13 02  47 00 0D 80 80 81 12 03  ..:.....G.......
1270: 1C 00 3B 80 07 19 00 3A  80 07 1B 00 3C 80 01 0E  ..;....:....<...
1280: 13 02 47 00 0E 80 80 96  12 03 1C 00 3D 80 07 1B  ..G.........=...
1290: 00 3C 80 01 0E 13 02 47  00 0B 80 80 B0 12 03 1C  .<.....G........
12A0: 00 3E 80 07 19 00 3C 80  07 1B 00 3C 80 01 0E 13  .>....<....<....
12B0: 02 47 00 19 80 80 C5 12  03 1C 00 3F 80 07 19 00  .G.........?....
12C0: 3C 80 01 0E 13 02 47 00  26 80 80 DF 12 03 1C 00  <.....G.&.......
12D0: 40 80 07 19 00 3C 80 07  1B 00 3A 80 01 0E 13 02  @....<....:.....
12E0: 47 00 2B 80 80 F4 12 03  1C 00 41 80 07 1B 00 3A  G.+.......A....:
12F0: 80 01 0E 13 02 47 00 11  80 80 0E 13 03 1C 00 42  .....G.........B
1300: 80 07 19 00 3A 80 07 1B  00 3A 80 01 0E 13 1B 2F  ....:....:...../
1310: 00 30 00 31 00 32 00 33  00 34 00 35 00 36 00 37  .0.1.2.3.4.5.6.7
1320: 00 16 80 16 80 16 80 16  80 16 80 16 80 16 80 00  ................
1330: 00 01 00 02 00 03 00 02  80 02 80 02 80 02 80 03  ................
1340: 10 04 10 05 10 06 10 07  10 08 10 09 10 00 17 01  ................
1350: 17 02 17 03 17 04 17 05  17 06 17 07 17 08 17 09  ................
1360: 17 0A 17 0B 17 0C 17 0D  17 0E 17 0F 17 10 17 11  ................
1370: 17 12 17 13 17 14 17 15  17 16 17 17 17 18 17 19  ................
1380: 17 1A 17 1B 17 1C 17 1D  17 1E 17 1F 17 02 10 43  ...............C
1390: 80 44 80 45 80 46 80 47  80 48 80 49 80 4A 80 4B  .D.E.F.G.H.I.J.K
13A0: 80 4C 80 4D 80 4E 80 4F  80 50 80 51 80 52 80 53  .L.M.N.O.P.Q.R.S
13B0: 80 54 80 55 80 56 80 57  80 58 80 59 80 5A 80 5B  .T.U.V.W.X.Y.Z.[
13C0: 80 5C 80 5D 80 11 80 14  80 24 80 26 80 5E 80 5F  .\.].....$.&.^._
13D0: 80 60 80 61 80 62 80 63  80 64 80 65 80 66 80 67  .`.a.b.c.d.e.f.g
13E0: 80 2C 80 68 80 69 80 6A  80 6B 80 6C 80 6D 80 6E  .,.h.i.j.k.l.m.n
13F0: 80 6F 80 70 80 71 80 72  80 73 80 74 80 75 80 76  .o.p.q.r.s.t.u.v
1400: 80 77 80 78 80 79 80 7A  80 7B 80 7C 80 7D 80 7E  .w.x.y.z.{.|.}.~
1410: 80 7F 80 80 80 02 80 02  80 02 80 02 80 02 80 02  ................
1420: 80 02 80 02 80 0D 80 0D  80 0D 80 0D 80 0E 80 0E  ................
1430: 80 0E 80 0E 80 0B 80 0B  80 0B 80 0B 80 19 80 26  ...............&
1440: 80 26 80 26 80 2B 80 2B  80 11 80 0F 80 25 80 6A  .&.&.+.+.....%.j
1450: 80 6A 80 81 80 82 80 04  80 04 80 05 80 05 80 06  .j..............
1460: 80 06 80 07 80 83 80 83  80 84 80 85 80 85 80 86  ................
1470: 80 86 80 12 80 12 80 13  80 6B 80 6B 80 6B 80 52  .........k.k.k.R
1480: 80 52 80 52 80 20 80 6C  80 6C 80 10 80 6E 80 70  .R.R. .l.l...n.p
1490: 80 87 80 87 80 88 80 88  80 88 80 88 80 88 80 88  ................
14A0: 80 88 80 35 80 02 80 02  80 02 80 02 80 02 80 02  ...5............
14B0: 80 02 80 02 80 02 80 02  80 02 80 02 80 02 80 02  ................
14C0: 80 02 80 02 80 02 80 02  80 02 80 02 80 0E 80 0B  ................
14D0: 80 0B 80 0B 80 32 80 32  80 02 80 02 80 02 80 02  .....2.2........
14E0: 80 02 80 02 80 0E 80 0E  80 02 80 0E 80 02 80 02  ................
14F0: 80 02 80 0D 80 0D 80 0D  80 0D 80 0D 80 0D 80 0D  ................
1500: 80 0D 80 0D 80 0D 80 0E  80 0E 80 0E 80 0E 80 0E  ................
1510: 80 0E 80 0E 80 0B 80 0B  80 0B 80 19 80 19 80 19  ................
1520: 80 19 80 19 80 32 80 32  80 32 80 32 80 32 80 32  .....2.2.2.2.2.2
1530: 80 32 80 32 80 02 80 02  80 02 80 02 80 02 80 43  .2.2...........C
1540: 80 43 80 43 80 44 80 44  80 44 80 45 80 45 80 45  .C.C.D.D.D.E.E.E
1550: 80 46 80 46 80 47 80 47  80 47 80 48 80 48 80 49  .F.F.G.G.G.H.H.I
1560: 80 4A 80 4A 80 4B 80 4B  80 4B 80 4C 80 4C 80 4C  .J.J.K.K.K.L.L.L
1570: 80 4D 80 4D 80 4D 80 4D  80 4E 80 4E 80 4E 80 4F  .M.M.M.M.N.N.N.O
1580: 80 4F 80 4F 80 50 80 50  80 51 80 51 80 65 80 5D  .O.O.P.P.Q.Q.e.]
1590: 80 66 80 63 80 59 80 56  80 57 80 79 80 7A 80 7C  .f.c.Y.V.W.y.z.|
15A0: 80 7B 80 7D 80 7E 80 58  80 5A 80 5B 80 24 80 62  .{.}.~.X.Z.[.$.b
15B0: 80 67 80 5E 80 68 80 68  80 68 80 68 80 68 80 52  .g.^.h.h.h.h.h.R
15C0: 80 54 80 72 80 53 80 74  80 75 80 76 80 60 80 69  .T.r.S.t.u.v.`.i
15D0: 80 6C 80 55 80 73 80 26  80 26 80 26 80 26 80 26  .l.U.s.&.&.&.&.&
15E0: 80 11 80 14 80 6A 80 6D  80 6E 80 6E 80 6E 80 6F  .....j.m.n.n.n.o
15F0: 80 70 80 71 80 64 80 61  80 67 80 24 80 2C 80 62  .p.q.d.a.g.$.,.b
1600: 80 43 80 44 80 46 80 47  80 48 80 49 80 4A 80 66  .C.D.F.G.H.I.J.f
1610: 80 63 80 54 80 54 80 54  80 56 80 57 80 77 80 7F  .c.T.T.T.V.W.w..
1620: 80 78 80 5F 80 5C 80 80  80 6B 80 4A 80 4D 80 52  .x._.\...k.J.M.R
1630: 80 52 80 02 80 02 80 02  80 02 80 02 80 02 80 02  .R..............
1640: 80 02 80 02 80 02 80 02  80 02 80 02 80 02 80 02  ................
1650: 80 02 80 02 80 02 80 02  80 02 80 02 80 02 80 02  ................
1660: 80 02 80 02 80 02 80 02  80 02 80 02 80 02 80 02  ................
1670: 80 02 80 02 80 02 80 02  80 02 80 02 80 02 80 02  ................
1680: 80 02 80 02 80 02 80 02  80 02 80 02 80 0D 80 02  ................
1690: 80 0D 80 0D 80 02 80 32  80 32 80 32 80 32 80 32  .......2.2.2.2.2
16A0: 80 32 80 32 80 32 80 02  80 02 80 02 80 02 80 0D  .2.2.2..........
16B0: 80 0D 80 02 80 0D 80 0D  80 0D 80 0D 80 0D 80 0E  ................
16C0: 80 0B 80 0B 80 0B 80 19  80 19 80 19 80 02 80 0D  ................
16D0: 80 0E 80 0B 80 0B 80 0E  80 0E 80 0E 80 0E 80 0E  ................
16E0: 80 0E 80 0E 80 0E 80 0E  80 0E 80 0E 80 0E 80 0E  ................
16F0: 80 0E 80 0B 80 0D 80 0D  80 0D 80 02 80 0D 80 0D  ................
1700: 80 02 80 02 80 02 80 02  80 02 80 02 80 02 80 0D  ................
1710: 80 0D 80 0B 80 0B 80 0B  80 32 80 32 80 19 80 32  .........2.2...2
1720: 80 19 80 02 80 02 80 32  80 0E 80 02 80 02 80 0E  .......2........
1730: 80 0E 80 02 80 02 80 02  80 02 80 02 80 02 80 0D  ................
1740: 80 0E 80 0B 80 0D 80 0E  80 0B 80 0D 80 0E 80 0B  ................
1750: 80 0D 80 0E 80 0D 80 0E  80 0B 80 0D 80 0E 80 0D  ................
1760: 80 0D 80 0E 80 0D 80 0E  80 0B 80 0D 80 0E 80 0B  ................
1770: 80 0D 80 0E 80 0B 80 19  80 0D 80 0E 80 0B 80 0D  ................
1780: 80 0E 80 0B 80 0D 80 0E  80 0D 80 0E 80 0D 80 0D  ................
1790: 80 0D 80 0D 80 0D 80 0D  80 0D 80 0D 80 0D 80 0D  ................
17A0: 80 0D 80 0D 80 0D 80 0D  80 0D 80 0D 80 0D 80 0D  ................
17B0: 80 0D 80 0D 80 0D 80 0E  80 0B 80 19 80 26 80 0D  .............&..
17C0: 80 0D 80 0D 80 0D 80 0D  80 0D 80 0D 80 0D 80 0D  ................
17D0: 80 0D 80 0D 80 0D 80 0D  80 0E 80 0B 80 19 80 26  ...............&
17E0: 80 0D 80 0D 80 0D 80 0D  80 0D 80 0E 80 0B 80 0D  ................
17F0: 80 0D 80 0D 80 0D 80 0D  80 0E 80 0E 80 0D 80 0E  ................
1800: 80 19 80 19 80 0B 80 19  80 0B 80 0E 80 0B 80 0E  ................
1810: 80 0E 80 0E 80 0B 80 19  80 0E 80 0E 80 0D 80 0D  ................
1820: 80 0D 80 0D 80 0D 80 0D  80 0D 80 19 80 26 80 0E  .............&..
1830: 80 0B 80 02 80 02 80 02  80 02 80 02 80 02 80 02  ................
1840: 80 02 80 02 80 0D 80 0D  80 0D 80 0E 80 0E 80 0E  ................
1850: 80 0B 80 0B 80 19 80 19  80 19 80 26 80 26 80 2B  ...........&.&.+
1860: 80 11 80 11 80 0F 80 0F  80 0F 80 14 80 14 80 14  ................
1870: 80 25 80 25 80 25 80 25  80 32 80 32 80 32 80 6A  .%.%.%.%.2.2.2.j
1880: 80 6A 80 6A 80 81 80 81  80 82 80 82 80 87 80 52  .j.j...........R
1890: 80 88 80 89 80 86 80 83  80 84 80 8A 80 37 80 8B  .............7..
18A0: 80 71 80 8C 80 8D 80 85  80 12 80 13 80 6C 80 70  .q...........l.p
18B0: 80 35 80 10 80 8E 80 8E  80 8E 80 8E 80 8E 80 04  .5..............
18C0: 80 06 80 55 80 05 80 8F  80 90 80 91 80 6E 80 92  ...U.........n..
18D0: 80 93 80 07 80 72 80 6D  80 6D 80 6D 80 6D 80 6D  .....r.m.m.m.m.m
18E0: 80 1F 80 20 80 94 80 95  80 53 80 53 80 53 80 96  ... .....S.S.S..
18F0: 80 54 80 97 80 98 80 6F  80 35 80 6C 80 99 80 70  .T.....o.5.l...p
1900: 80 02 80 0D 80 0B 80 19  80 26 80 2B 80 11 80 88  .........&.+....
1910: 80 89 80 06 80 06 80 06  80 83 80 84 80 9A 80 9B  ................
1920: 80 9C 80 31 80 6B 80 9D  80 9E 80 11 80 25 80 04  ...1.k.......%..
1930: 80 04 80 02 80 02 80 02  80 02 80 02 80 02 80 02  ................
1940: 80 02 80 02 80 02 80 02  80 02 80 02 80 02 80 02  ................
1950: 80 02 80 02 80 02 80 02  80 02 80 02 80 02 80 02  ................
1960: 80 02 80 02 80 02 80 02  80 02 80 02 80 02 80 02  ................
1970: 80 02 80 02 80 02 80 02  80 02 80 02 80 02 80 02  ................
1980: 80 02 80 02 80 02 80 02  80 02 80 02 80 02 80 02  ................
1990: 80 02 80 02 80 02 80 02  80 02 80 02 80 02 80 02  ................
19A0: 80 02 80 02 80 02 80 02  80 02 80 02 80 02 80 02  ................
19B0: 80 02 80 02 80 02 80 02  80 02 80 02 80 02 80 02  ................
19C0: 80 02 80 02 80 0D 80 02  80 02 80 02 80 02 80 02  ................
19D0: 80 02 80 02 80 02 80 02  80 02 80 02 80 02 80 02  ................
19E0: 80 02 80 02 80 02 80 02  80 02 80 02 80 02 80 02  ................
19F0: 80 02 80 02 80 02 80 02  80 02 80 02 80 02 80 02  ................
1A00: 80 02 80 02 80 02 80 02  80 02 80 02 80 02 80 02  ................
1A10: 80 02 80 02 80 02 80 02  80 02 80 02 80 02 80 02  ................
1A20: 80 02 80 02 80 02 80 02  80 02 80 02 80 02 80 02  ................
1A30: 80 02 80 02 80 02 80 02  80 02 80 02 80 02 80 0D  ................
1A40: 80 0D 80 0D 80 0D 80 0D  80 0D 80 0D 80 0D 80 0D  ................
1A50: 80 0E 80 0E 80 0E 80 0E  80 0E 80 0E 80 0E 80 0E  ................
1A60: 80 0B 80 0B 80 0B 80 0B  80 0B 80 0B 80 0B 80 0B  ................
1A70: 80 0B 80 0B 80 0B 80 0B  80 19 80 19 80 19 80 19  ................
1A80: 80 19 80 19 80 19 80 19  80 19 80 19 80 02 80 02  ................
1A90: 80 11 80 0F 80 02 80 26  80 26 80 02 80 02 80 02  .......&.&......
1AA0: 80 02 80 02 80 02 80 02  80 02 80 02 80 02 80 02  ................
1AB0: 80 02 80 02 80 02 80 02  80 02 80 02 80 02 80 14  ................
1AC0: 80 2B 80 02 80 02 80 02  80 02 80 02 80 02 80 02  .+..............
1AD0: 80 02 80 02 80 02 80 02  80 02 80 02 80 02 80 02  ................
1AE0: 80 02 80 02 80 02 80 02  80 02 80 02 80 02 80 02  ................
1AF0: 80 02 80 02 80 02 80 02  80 02 80 02 80 02 80 02  ................
1B00: 80 0D 80 0D 80 0E 80 0E  80 0E 80 0E 80 0B 80 11  ................
1B10: 80 0F 80 2B 80 2B 80 2B  80 26 80 26 80 02 80 02  ...+.+.+.&.&....
1B20: 80 02 80 02 80 02 80 02  80 02 80 0B 80 0B 80 14  ................
1B30: 80 14 80 02 80 02 80 02  80 02 80 02 80 02 80 0B  ................
1B40: 80 0E 80 0D 80 0B 80 02  80 0D 80 02 80 0D 80 0E  ................
1B50: 80 0E 80 0D 80 0B 80 0E  80 0D 80 0B 80 0D 80 02  ................
1B60: 80 0B 80 0D 80 02 80 0D  80 0E 80 02 80 0B 80 0D  ................
1B70: 80 02 80 0B 80 0D 80 0E  80 02 80 0D 80 0E 80 0B  ................
1B80: 80 0D 80 0E 80 0B 80 0D  80 0B 80 0D 80 02 80 02  ................
1B90: 80 02 80 02 80 02 80 0E  80 02 80 02 80 02 80 02  ................
1BA0: 80 02 80 02 80 02 80 02  80 02 80 02 80 02 80 02  ................
1BB0: 80 02 80 02 80 02 80 02  80 02 80 02 80 02 80 02  ................
1BC0: 80 02 80 02 80 02 80 02  80 02 80 02 80 02 80 02  ................
1BD0: 80 02 80 02 80 02 80 02  80 02 80 02 80 02 80 02  ................
1BE0: 80 02 80 02 80 02 80 02  80 02 80 02 80 02 80 02  ................
1BF0: 80 02 80 02 80 02 80 02  80 02 80 02 80 02 80 02  ................
1C00: 80 02 80 02 80 02 80 02  80 02 80 02 80 02 80 0E  ................
1C10: 80 02 80 02 80 0E 80 0D  80 0D 80 0D 80 02 80 02  ................
1C20: 80 02 80 02 80 02 80 02  80 02 80 02 80 02 80 02  ................
1C30: 80 02 80 02 80 02 80 02  80 02 80 02 80 02 80 9F  ................
1C40: 80 A0 80 A1 80 A2 80 A3  80 A4 80 A5 80 A6 80 A7  ................
1C50: 80 A8 80 A9 80 AA 80 AB  80 AC 80 AD 80 AE 80 A0  ................
1C60: 80 AF 80 B0 80 B1 80 B2  80 B3 80 B4 80 B5 80 B6  ................
1C70: 80 B7 80 B8 80 B9 80 BA  80 A7 80 BB 80 BC 80 BD  ................
1C80: 80 BE 80 BF 80 C0 80 C1  80 C2 80 C3 80 C4 80 C5  ................
1C90: 80 C6 80 C7 80 C8 80 C9  80 CA 80 CB 80 CC 80 CD  ................
1CA0: 80 CE 80 CF 80 D0 80 D1  80 D2 80 D3 80 D4 80 D5  ................
1CB0: 80 D6 80 D7 80 D8 80 D9  80 DA 80 DB 80 DC 80 DD  ................
1CC0: 80 DE 80 DF 80 E0 80 9F  80 E1 80 AF 80 E2 80 E3  ................
1CD0: 80 E4 80 E5 80 E6 80 E7  80 E8 80 E9 80 EA 80 EB  ................
1CE0: 80 EC 80 ED 80 EE 80 EF  80 F0 80 F1 80 F2 80 F3  ................
1CF0: 80 F4 80 F5 80 F6 80 F7  80 F8 80 F9 80 FA 80 FB  ................
1D00: 80 FC 80 FD 80 FE 80 FF  80 00 81 01 81 D8 80 02  ................
1D10: 81 03 81 04 81 05 81 06  81 07 81 08 81 09 81 0A  ................
1D20: 81 D7 80 B2 80 0B 81 0C  81 0D 81 B9 80 0E 81 0F  ................
1D30: 81 10 81 02 80 02 80 02  80 02 80 02 80 02 80 11  ................
1D40: 81 12 81 13 81 14 81 15  81 A3 80 FA 80 16 81 17  ................
1D50: 81 18 81 ED 80 C3 80 19  81 1A 81 1B 81 1C 81 1D  ................
1D60: 81 1E 81 1F 81 20 81 06  81 21 81 22 81 D0 80 23  ..... ...!."...#
1D70: 81 24 81 25 81 26 81 27  81 02 80 28 81 29 81 2A  .$.%.&.'...(.).*
1D80: 81 2B 81 2C 81 2D 81 2E  81 2F 81 30 81 31 81 32  .+.,.-.../.0.1.2
1D90: 81 33 81 34 81 35 81 36  81 37 81 38 81 39 81 3A  .3.4.5.6.7.8.9.:
1DA0: 81 3B 81 3C 81 3D 81 3E  81 3F 81 F6 80 26 81 40  .;.<.=.>.?...&.@
1DB0: 81 26 81 41 81 42 81 43  81 44 81 45 81 46 81 47  .&.A.B.C.D.E.F.G
1DC0: 81 48 81 49 81 4A 81 11  81 4B 81 1E 81 4C 81 4D  .H.I.J...K...L.M
1DD0: 81 4E 81 4F 81 50 81 51  81 52 81 53 81 54 81 3B  .N.O.P.Q.R.S.T.;
1DE0: 81 55 81 0F 81 56 81 57  81 58 81 59 81 5A 81 5B  .U...V.W.X.Y.Z.[
1DF0: 81 5C 81 5D 81 42 81 5E  81 5F 81 60 81 61 81 DA  .\.].B.^._.`.a..
1E00: 80 62 81 63 81 3C 80 64  81 A3 80 65 81 66 81 2E  .b.c.<.d...e.f..
1E10: 81 67 81 68 81 69 81 6A  81 6B 81 6C 81 6D 81 6E  .g.h.i.j.k.l.m.n
1E20: 81 41 81 6F 81 70 81 71  81 72 81 2E 81 73 81 74  .A.o.p.q.r...s.t
1E30: 81 75 81 02 80 02 80 02  80 02 80 02 80 02 80 3C  .u.............<
1E40: 80 76 81 77 81 0A 81 78  81 78 81 30 81 F3 80 E3  .v.w...x.x.0....
1E50: 80 02 80 3C 80 79 81 F3  80 7A 81 6E 81 6E 81 1F  ...<.y...z.n.n..
1E60: 81 74 81 02 80 7B 81 02  80 7C 81 30 81 7D 81 F3  .t...{...|.0.}..
1E70: 80 7E 81 74 81 74 81 7F  81 65 81 80 81 81 81 02  .~.t.t...e......
1E80: 80 3A 80 3C 80 02 80 3A  80 02 80 3A 80 E3 80 82  .:.<...:...:....
1E90: 81 83 81 02 80 84 81 85  81 86 81 87 81 88 81 89  ................
1EA0: 81 02 80 02 80 8A 81 8B  81 8C 81 8D 81 8E 81 8F  ................
1EB0: 81 90 81 91 81 92 81 92  81 92 81 92 81 92 81 93  ................
1EC0: 81 02 80 02 80 77 81 3C  80 79 81 74 81 94 81 A6  .....w.<.y.t....
1ED0: 80 95 81 79 81 96 81 97  81 98 81 99 81 6C 81 3A  ...y.........l.:
1EE0: 80 79 81 AE 80 9A 81 3C  80 02 80 02 80 02 80 9B  .y.....<........
1EF0: 81 02 80 9C 81 7A 81 9D  81 9E 81 9F 81 A0 81 A1  .....z..........
1F00: 81 3A 80 A2 81 F0 80 A7  80 A7 80 76 81 30 81 A3  .:.........v.0..
1F10: 81 A4 81 02 80 A7 80 02  80 02 80 86 81 A5 81 A6  ................
1F20: 81 91 81 03 81 A7 81 A8  81 A9 81 77 81 02 80 79  ...........w...y
1F30: 81 AA 81 02 80 02 80 02  80 02 80 02 80 02 80 02  ................
1F40: 80 3D 80 3E 80 AB 81 41  80 42 80 41 80 40 80 41  .=.>...A.B.A.@.A
1F50: 80 AC 81 02 80 40 80 02  80 3D 80 42 80 3F 80 3D  .....@...=.B.?.=
1F60: 80 AD 81 02 80 AE 81 3D  80 41 80 41 80 02 80 02  .......=.A.A....
1F70: 80 AF 81 3F 80 3D 80 3F  80 41 80 3D 80 41 80 B0  ...?.=.?.A.=.A..
1F80: 81 3F 80 41 80 B1 81 40  80 B2 81 3D 80 B3 81 B4  .?.A...@...=....
1F90: 81 B5 81 B6 81 B7 81 3F  80 02 80 3F 80 3F 80 B8  .......?...?.?..
1FA0: 81 3D 80 02 80 41 80 41  80 02 80 3F 80 02 80 41  .=...A.A...?...A
1FB0: 80 3F 80 3F 80 41 80 3E  80 3F 80 02 80 3B 80 B9  .?.?.A.>.?...;..
1FC0: 81 42 80 BA 81 BB 81 BC  81 BD 81 AD 81 3D 80 02  .B...........=..
1FD0: 80 3F 80 41 80 02 80 02  80 3F 80 3D 80 3D 80 02  .?.A.....?.=.=..
1FE0: 80 02 80 3D 80 02 80 3D  80 BE 81 3F 80 BE 81 BE  ...=...=...?....
1FF0: 81 BF 81 02 80 41 80 02  80 BF 81 41 80 41 80 41  .....A.....A.A.A
2000: 80 40 80 02 80 02 80 3E  80 3E 80 3F 80 02 80 3F  .@.....>.>.?...?
2010: 80 3D 80 02 80 41 80 3F  80 3B 80 3E 80 3E 80 02  .=...A.?.;.>.>..
2020: 80 3F 80 3D 80 41 80 02  80 42 80 41 80 02 80 C0  .?.=.A...B.A....
2030: 81 42 80 02 80 02 80 02  80 02 80 02 80 02 80 9B  .B..............
2040: 81 9B 81 9B 81 9B 81 9B  81 9B 81 9B 81 9B 81 9B  ................
2050: 81 9B 81 9B 81 9B 81 9B  81 9B 81 9B 81 9B 81 9B  ................
2060: 81 9B 81 9B 81 9B 81 9B  81 9B 81 9B 81 9B 81 9B  ................
2070: 81 9B 81 9B 81 9B 81 9B  81 9B 81 9B 81 9B 81 9B  ................
2080: 81 9B 81 9B 81 9B 81 9B  81 9B 81 9B 81 9B 81 9B  ................
2090: 81 9B 81 9B 81 9B 81 9B  81 9B 81 3C 80 3C 80 3C  ...........<.<.<
20A0: 80 3C 80 3C 80 3C 80 3C  80 3C 80 3C 80 3C 80 3C  .<.<.<.<.<.<.<.<
20B0: 80 3C 80 3C 80 3C 80 3C  80 3C 80 3C 80 3C 80 9B  .<.<.<.<.<.<.<..
20C0: 81 9B 81 9B 81 9B 81 9B  81 9B 81 9B 81 3C 80 3C  .............<.<
20D0: 80 3C 80 3C 80 3C 80 3C  80 3C 80 3C 80 3C 80 3C  .<.<.<.<.<.<.<.<
20E0: 80 3C 80 3C 80 3C 80 3C  80 3C 80 3C 80 3C 80 3C  .<.<.<.<.<.<.<.<
20F0: 80 3C 80 3C 80 3C 80 3C  80 3C 80 3C 80 3C 80 3C  .<.<.<.<.<.<.<.<
2100: 80 9B 81 9B 81 9B 81 9B  81 9B 81 9B 81 9B 81 9B  ................
2110: 81 9B 81 9B 81 9B 81 9B  81 9B 81 9B 81 3C 80 3C  .............<.<
2120: 80 3C 80 3C 80 3C 80 3C  80 3C 80 9B 81 9B 81 9B  .<.<.<.<.<......
2130: 81 9B 81 02 80 02 80 02  80 02 80 02 80 02 80 0B  ................
2140: 80 0E 80 0E 80 02 80 2B  80 11 80 2B 80 26 80 2B  .......+...+.&.+
2150: 80 02 80 02 80 26 80 02  80 0E 80 11 80 19 80 0E  .....&..........
2160: 80 02 80 02 80 02 80 2B  80 0E 80 2B 80 11 80 02  .......+...+....
2170: 80 0B 80 19 80 0E 80 19  80 2B 80 0E 80 2B 80 02  .........+...+..
2180: 80 02 80 2B 80 02 80 26  80 02 80 0E 80 02 80 2B  ...+...&.......+
2190: 80 0B 80 2B 80 11 80 0D  80 11 80 19 80 19 80 26  ...+...........&
21A0: 80 0E 80 02 80 2B 80 2B  80 02 80 19 80 02 80 2B  .....+.+.......+
21B0: 80 19 80 19 80 2B 80 0B  80 19 80 02 80 0D 80 11  .....+..........
21C0: 80 0B 80 26 80 02 80 0E  80 19 80 2B 80 0E 80 02  ...&.......+....
21D0: 80 0B 80 2B 80 02 80 02  80 19 80 0E 80 0E 80 02  ...+............
21E0: 80 02 80 0E 80 02 80 0E  80 2B 80 19 80 2B 80 2B  .........+...+.+
21F0: 80 11 80 02 80 2B 80 02  80 11 80 2B 80 2B 80 2B  .....+.....+.+.+
2200: 80 19 80 02 80 02 80 0B  80 0B 80 19 80 02 80 19  ................
2210: 80 0E 80 02 80 19 80 19  80 0D 80 0B 80 0B 80 02  ................
2220: 80 19 80 0E 80 2B 80 02  80 11 80 2B 80 02 80 02  .....+.....+....
2230: 80 19 80 02 80 02 80 02  80 02 80 02 80 02 80     ............... 
```

#### Opcodes

```
  0: 0x0014 [0x03] ExtData[1]->WorkLocal[0] = Work_Zone[3]
  1: 0x0019 [0x03] ExtData[1]->WorkLocal[1] = Work_Zone[4]
  2: 0x001E [0x03] ExtData[1]->WorkLocal[2] = Work_Zone[5]
  3: 0x0023 [0x03] ExtData[1]->WorkLocal[3] = Work_Zone[6]
  4: 0x0028 [0x03] ExtData[1]->WorkLocal[18] = Work_Zone[7]
  5: 0x002D [0x03] ExtData[1]->WorkLocal[20] = Work_Zone[8]
  6: 0x0032 [0x03] ExtData[1]->WorkLocal[29] = Work_Zone[9]
  7: 0x0037 [0x41] ExtData[1]->WorkLocal[4] = ExtData[1]->WorkLocal[29] (bits 0*-15*)
  8: 0x0040 [0x41] ExtData[1]->WorkLocal[5] = ExtData[1]->WorkLocal[29] (bits 16*-16*)
  9: 0x0049 [0x41] ExtData[1]->WorkLocal[30] = ExtData[1]->WorkLocal[29] (bits 17*-17*)
 10: 0x0052 [0x41] ExtData[1]->WorkLocal[33] = ExtData[1]->WorkLocal[29] (bits 18*-18*)
 11: 0x005B [0x02] IF !(ExtData[1]->WorkLocal[5] <= 0*) GOTO 0x0067
 12: 0x0063 [0x48] [System] [191*]:
    → "You have registered a new home point! You are now able to teleport here from any other home point."
 13: 0x0066 [0x23] WAIT_FOR_DIALOG_INTERACTION
 14: 0x0067 [0x1A] CALL_SUBROUTINE(address=0x00D6)
 15: 0x006A [0x06] ExtData[1]->WorkLocal[7] = 0
 16: 0x006D [0x06] ExtData[1]->WorkLocal[8] = 0
 17: 0x0070 [0x06] ExtData[1]->WorkLocal[34] = 0
 18: 0x0073 [0x48] [System] [189*]:
    → "A home point can be set as a spot for you to return to Vana'diel when you have been knocked out. You can also use a home point to teleport to other home points."
 19: 0x0076 [0x23] WAIT_FOR_DIALOG_INTERACTION
 20: 0x0077 [0x02] IF !(ExtData[1]->WorkLocal[8] == 0*) GOTO 0x00D4
 21: 0x007F [0x24] CREATE_DIALOG(message_id=190*, default_option=ExtData[1]->WorkLocal[7], option_flags=0*)
    → "What will you do? [Travel to another home point./Set this as your home point./Other settings./On second thought, never mind.]"
 22: 0x0086 [0x25] WAIT_DIALOG_SELECT()
 23: 0x0087 [0x02] IF !(Work_Zone[0] == 3*) GOTO 0x009A
 24: 0x008F [0x03] Work_Zone[1] = 1073741824*
 25: 0x0094 [0x05] ExtData[1]->WorkLocal[8] = 1
 26: 0x0097 [0x01] GOTO 0x009A

SUBROUTINE_009A:
 27: 0x009A [0x03] ExtData[1]->WorkLocal[7] = Work_Zone[0]
 28: 0x009F [0x02] IF !(ExtData[1]->WorkLocal[8] == 0*) GOTO 0x00D1
 29: 0x00A7 [0x02] IF !(ExtData[1]->WorkLocal[7] == 0*) GOTO 0x00B5
 30: 0x00AF [0x1A] CALL_SUBROUTINE(address=0x0269)
 31: 0x00B2 [0x01] GOTO 0x00D1
 32: 0x00B5 [0x02] IF !(ExtData[1]->WorkLocal[7] == 1*) GOTO 0x00C3
 33: 0x00BD [0x1A] CALL_SUBROUTINE(address=0x0223)
 34: 0x00C0 [0x01] GOTO 0x00D1
 35: 0x00C3 [0x02] IF !(ExtData[1]->WorkLocal[7] == 2*) GOTO 0x00D1
 36: 0x00CB [0x1A] CALL_SUBROUTINE(address=0x019B)
 37: 0x00CE [0x01] GOTO 0x00D1

SUBROUTINE_00D1:
 38: 0x00D1 [0x01] GOTO 0x0077
 39: 0x00D4 [0x21] END_EVENT
 40: 0x00D5 [0x00] END_REQSTACK()

SUBROUTINE_00D6:
 41: 0x00D6 [0x40] SET_BIT_WORK_RANGE(start_bit=0*, end_bit=15*, target=Work_Zone[1], source=8*)
 42: 0x00DF [0x40] SET_BIT_WORK_RANGE(start_bit=16*, end_bit=31*, target=Work_Zone[1], source=0*)
 43: 0x00E8 [0x43] SEND_EVENT_UPDATE: Send pending tag to server (packet 0x005B)
 44: 0x00EA [0x43] SEND_EVENT_UPDATE: Check pending flag (skip if not pending)
 45: 0x00EC [0x1A] CALL_SUBROUTINE(address=0x00F0)
 46: 0x00EF [0x1B] RETURN

SUBROUTINE_00F0:
 47: 0x00F0 [0x41] ExtData[1]->WorkLocal[47] = Work_Zone[2] (bits 0*-7*)
 48: 0x00F9 [0x41] ExtData[1]->WorkLocal[48] = Work_Zone[2] (bits 8*-15*)
 49: 0x0102 [0x41] ExtData[1]->WorkLocal[49] = Work_Zone[2] (bits 16*-23*)
 50: 0x010B [0x41] ExtData[1]->WorkLocal[50] = Work_Zone[2] (bits 24*-31*)
 51: 0x0114 [0x41] ExtData[1]->WorkLocal[51] = Work_Zone[3] (bits 0*-7*)
 52: 0x011D [0x41] ExtData[1]->WorkLocal[52] = Work_Zone[3] (bits 8*-15*)
 53: 0x0126 [0x41] ExtData[1]->WorkLocal[53] = Work_Zone[3] (bits 16*-23*)
 54: 0x012F [0x41] ExtData[1]->WorkLocal[54] = Work_Zone[3] (bits 24*-31*)
 55: 0x0138 [0x41] ExtData[1]->WorkLocal[55] = Work_Zone[4] (bits 0*-7*)
 56: 0x0141 [0x06] ExtData[1]->WorkLocal[61] = 0

SUBROUTINE_0144:
 57: 0x0144 [0x02] IF !(ExtData[1]->WorkLocal[61] >= 9*) GOTO 0x016F
 58: 0x014C [0x9D] ExtData[1]->WorkLocal[57] = 0x130F[ExtData[1]->WorkLocal[61]] // Read WORD
 59: 0x0154 [0x02] IF !(ExtData[1]->WorkLocal[57] <= 127*) GOTO 0x0169
 60: 0x015C [0x9D] 0x130F[ExtData[1]->WorkLocal[61] * 2] = 4294967295* // Write WORD
 61: 0x0164 [0x03] ExtData[1]->WorkLocal[57] = 4294967295*
 62: 0x0169 [0x0B] ExtData[1]->WorkLocal[61]++
 63: 0x016C [0x01] GOTO 0x0144
 64: 0x016F [0x1A] CALL_SUBROUTINE(address=0x0173)
 65: 0x0172 [0x1B] RETURN

SUBROUTINE_0173:
 66: 0x0173 [0x06] ExtData[1]->WorkLocal[61] = 0
 67: 0x0176 [0x06] ExtData[1]->WorkLocal[56] = 0

SUBROUTINE_0179:
 68: 0x0179 [0x02] IF !(ExtData[1]->WorkLocal[61] >= 9*) GOTO 0x019A
 69: 0x0181 [0x9D] ExtData[1]->WorkLocal[57] = 0x130F[ExtData[1]->WorkLocal[61]] // Read WORD
 70: 0x0189 [0x02] IF !(ExtData[1]->WorkLocal[57] < 0*) GOTO 0x0194
 71: 0x0191 [0x0B] ExtData[1]->WorkLocal[56]++
 72: 0x0194 [0x0B] ExtData[1]->WorkLocal[61]++
 73: 0x0197 [0x01] GOTO 0x0179
 74: 0x019A [0x1B] RETURN

SUBROUTINE_019B:
 75: 0x019B [0x48] [System] [201*]:
    → "You may change the method of selecting the area of your desired home point to teleport to."
 76: 0x019E [0x23] WAIT_FOR_DIALOG_INTERACTION
 77: 0x019F [0x03] ExtData[1]->WorkLocal[31] = ExtData[1]->WorkLocal[33]
 78: 0x01A4 [0x0B] ExtData[1]->WorkLocal[31]++
 79: 0x01A7 [0x06] ExtData[1]->WorkLocal[32] = 0
 80: 0x01AA [0x3C] SET_BIT_FLAG_CONDITIONAL(target_work_offset=ExtData[1]->WorkLocal[32], bit_index_work_offset=0*, condition_work_offset=1*)
 81: 0x01B1 [0x24] CREATE_DIALOG(message_id=202*, default_option=ExtData[1]->WorkLocal[31], option_flags=ExtData[1]->WorkLocal[32])
    → "Which setting would you like? [My current setting./Select by region./Select by expansion.]"
 82: 0x01B8 [0x25] WAIT_DIALOG_SELECT()
 83: 0x01B9 [0x02] IF !(Work_Zone[0] == 0*) GOTO 0x01C4
 84: 0x01C1 [0x01] GOTO 0x0222
 85: 0x01C4 [0x02] IF !(Work_Zone[0] == 1*) GOTO 0x01F3
 86: 0x01CC [0x03] ExtData[1]->WorkLocal[33] = 0*
 87: 0x01D1 [0x40] SET_BIT_WORK_RANGE(start_bit=0*, end_bit=15*, target=Work_Zone[1], source=4*)
 88: 0x01DA [0x40] SET_BIT_WORK_RANGE(start_bit=16*, end_bit=31*, target=Work_Zone[1], source=ExtData[1]->WorkLocal[33])
 89: 0x01E3 [0x43] SEND_EVENT_UPDATE: Send pending tag to server (packet 0x005B)
 90: 0x01E5 [0x43] SEND_EVENT_UPDATE: Check pending flag (skip if not pending)
 91: 0x01E7 [0x03] Work_Zone[3] = ExtData[1]->WorkLocal[33]
 92: 0x01EC [0x48] [System] [203*]:
    → "You are now selecting by [region/expansion]."
 93: 0x01EF [0x23] WAIT_FOR_DIALOG_INTERACTION
 94: 0x01F0 [0x01] GOTO 0x0222
 95: 0x01F3 [0x02] IF !(Work_Zone[0] == 2*) GOTO 0x0222
 96: 0x01FB [0x03] ExtData[1]->WorkLocal[33] = 1*
 97: 0x0200 [0x40] SET_BIT_WORK_RANGE(start_bit=0*, end_bit=15*, target=Work_Zone[1], source=4*)
 98: 0x0209 [0x40] SET_BIT_WORK_RANGE(start_bit=16*, end_bit=31*, target=Work_Zone[1], source=ExtData[1]->WorkLocal[33])
 99: 0x0212 [0x43] SEND_EVENT_UPDATE: Send pending tag to server (packet 0x005B)
100: 0x0214 [0x43] SEND_EVENT_UPDATE: Check pending flag (skip if not pending)
101: 0x0216 [0x03] Work_Zone[3] = ExtData[1]->WorkLocal[33]
102: 0x021B [0x48] [System] [203*]:
    → "You are now selecting by [region/expansion]."
103: 0x021E [0x23] WAIT_FOR_DIALOG_INTERACTION
104: 0x021F [0x01] GOTO 0x0222

SUBROUTINE_0222:
105: 0x0222 [0x1B] RETURN

SUBROUTINE_0223:
106: 0x0223 [0x48] [System] [186*]:
    → "You can set this as your current home point. Once you set a home point, you will return there whenever you are incapacitated."
107: 0x0226 [0x23] WAIT_FOR_DIALOG_INTERACTION
108: 0x0227 [0x24] CREATE_DIALOG(message_id=187*, default_option=1*, option_flags=0*)
    → "Set this as current home point? [Yes./No.]"
109: 0x022E [0x25] WAIT_DIALOG_SELECT()
110: 0x022F [0x02] IF !(Work_Zone[0] == 0*) GOTO 0x025D
111: 0x0237 [0x42] SET_CLI_EVENT_CANCEL_DATA()
112: 0x0238 [0x40] SET_BIT_WORK_RANGE(start_bit=0*, end_bit=15*, target=Work_Zone[1], source=1*)
113: 0x0241 [0x40] SET_BIT_WORK_RANGE(start_bit=16*, end_bit=31*, target=Work_Zone[1], source=0*)
114: 0x024A [0x2C] CREATE_SCHEDULER_TASK: Create scheduler "bind" with entities [EventEntity, LocalPlayer]
115: 0x0257 [0x05] ExtData[1]->WorkLocal[8] = 1
116: 0x025A [0x01] GOTO 0x0268
117: 0x025D [0x02] IF !(Work_Zone[0] == 1*) GOTO 0x0268
118: 0x0265 [0x01] GOTO 0x0268

SUBROUTINE_0268:
119: 0x0268 [0x1B] RETURN

SUBROUTINE_0269:
120: 0x0269 [0x06] ExtData[1]->WorkLocal[10] = 0
121: 0x026C [0x48] [System] [192*]:
    → "You may teleport from here to any other home point you have registered."
122: 0x026F [0x23] WAIT_FOR_DIALOG_INTERACTION
123: 0x0270 [0x02] IF !(ExtData[1]->WorkLocal[33] == 0*) GOTO 0x0359
124: 0x0278 [0x06] ExtData[1]->WorkLocal[23] = 0
125: 0x027B [0x06] ExtData[1]->WorkLocal[22] = 0
126: 0x027E [0x06] ExtData[1]->WorkLocal[21] = 0
127: 0x0281 [0x06] ExtData[1]->WorkLocal[24] = 0
128: 0x0284 [0x06] ExtData[1]->WorkLocal[34] = 0

SUBROUTINE_0287:
129: 0x0287 [0x02] IF !(ExtData[1]->WorkLocal[23] == 0*) GOTO 0x0356
130: 0x028F [0x1A] CALL_SUBROUTINE(address=0x0F41)
131: 0x0292 [0x03] Work_Zone[3] = ExtData[1]->WorkLocal[34]
132: 0x0297 [0x24] CREATE_DIALOG(message_id=199*, default_option=ExtData[1]->WorkLocal[22], option_flags=ExtData[1]->WorkLocal[21])
    → "Teleport to which region? [On second thought, none./Select from favorites./Current region./[San d'Oria/Movalpolos]./[Bastok/Tavnazian Arch]./[Windurst/Lumoria]./[Jeuno/Mamool Ja Savage]./[Tavnazia/Halvung]./[West. Aht Urhgan/Arrapago Is]./[Adoulin Isles/Ruins of Alzadaal]./[Ronfaure/Ronfaure Front]./[Zulkheim/Norvallen Front]./[Norvallen/Gustaberg Front]./[Gustaberg/Derfland Front]./[Derfland/Sarutabaruta Front]./[Sarutabaruta/Aragoneu Front]./[Kolshushu/Fauregandi Front]./[Aragoneu/Valdeaunia Front]./[Fauregandi/East. Ulbuka]./[Valdeaunia/Ra'Kaznar]./[Qufim/]./[Li'Telor/]./[Kuzotz/]./[Vollbow/]./[Elshimo Low/]./[Elshimo Up/]./[Tu'Lia/]./Previous page./Next page.]"
133: 0x029E [0x25] WAIT_DIALOG_SELECT()
134: 0x029F [0x02] IF !(Work_Zone[0] == 0*) GOTO 0x02AD
135: 0x02A7 [0x05] ExtData[1]->WorkLocal[23] = 1
136: 0x02AA [0x01] GOTO 0x02AD

SUBROUTINE_02AD:
137: 0x02AD [0x03] ExtData[1]->WorkLocal[22] = Work_Zone[0]
138: 0x02B2 [0x02] IF !(ExtData[1]->WorkLocal[22] == 1*) GOTO 0x02C3
139: 0x02BA [0x1A] CALL_SUBROUTINE(address=0x03C2)
140: 0x02BD [0x06] ExtData[1]->WorkLocal[22] = 0
141: 0x02C0 [0x01] GOTO 0x032F
142: 0x02C3 [0x02] IF !(ExtData[1]->WorkLocal[22] == 2*) GOTO 0x02F9
143: 0x02CB [0x9D] ExtData[1]->WorkLocal[67] = 0x183F[ExtData[1]->WorkLocal[4]] // Read WORD
144: 0x02D3 [0x9D] ExtData[1]->WorkLocal[22] = 0x141F[ExtData[1]->WorkLocal[67]] // Read WORD
145: 0x02DB [0x03] ExtData[1]->WorkLocal[34] = ExtData[1]->WorkLocal[22]
146: 0x02E0 [0x15] ExtData[1]->WorkLocal[34] /= 24*
147: 0x02E5 [0x03] ExtData[1]->WorkLocal[67] = ExtData[1]->WorkLocal[22]
148: 0x02EA [0x3F] ExtData[1]->WorkLocal[22] = ExtData[1]->WorkLocal[67] % 24*
149: 0x02F1 [0x07] ExtData[1]->WorkLocal[22] += 3*
150: 0x02F6 [0x01] GOTO 0x032F
151: 0x02F9 [0x02] IF !(ExtData[1]->WorkLocal[22] == 27*) GOTO 0x0314
152: 0x0301 [0x02] IF !(ExtData[1]->WorkLocal[34] <= 0*) GOTO 0x030C
153: 0x0309 [0x0C] ExtData[1]->WorkLocal[34]--
154: 0x030C [0x03] ExtData[1]->WorkLocal[22] = 0*
155: 0x0311 [0x01] GOTO 0x032F
156: 0x0314 [0x02] IF !(ExtData[1]->WorkLocal[22] == 28*) GOTO 0x032F
157: 0x031C [0x02] IF !(ExtData[1]->WorkLocal[34] >= 1*) GOTO 0x0327
158: 0x0324 [0x0B] ExtData[1]->WorkLocal[34]++
159: 0x0327 [0x03] ExtData[1]->WorkLocal[22] = 0*
160: 0x032C [0x01] GOTO 0x032F

SUBROUTINE_032F:
161: 0x032F [0x02] IF !(ExtData[1]->WorkLocal[22] <= 0*) GOTO 0x0353
162: 0x0337 [0x03] ExtData[1]->WorkLocal[67] = ExtData[1]->WorkLocal[34]
163: 0x033C [0x14] ExtData[1]->WorkLocal[67] *= 24*
164: 0x0341 [0x07] ExtData[1]->WorkLocal[67] += ExtData[1]->WorkLocal[22]
165: 0x0346 [0x08] ExtData[1]->WorkLocal[67] -= 3*
166: 0x034B [0x03] ExtData[1]->WorkLocal[24] = ExtData[1]->WorkLocal[67]
167: 0x0350 [0x1A] CALL_SUBROUTINE(address=0x0B35)
168: 0x0353 [0x01] GOTO 0x0287
169: 0x0356 [0x01] GOTO 0x03C1
170: 0x0359 [0x02] IF !(ExtData[1]->WorkLocal[33] == 1*) GOTO 0x03C1
171: 0x0361 [0x06] ExtData[1]->WorkLocal[23] = 0
172: 0x0364 [0x06] ExtData[1]->WorkLocal[22] = 0
173: 0x0367 [0x06] ExtData[1]->WorkLocal[21] = 0

SUBROUTINE_036A:
174: 0x036A [0x02] IF !(ExtData[1]->WorkLocal[23] == 0*) GOTO 0x03BE
175: 0x0372 [0x1A] CALL_SUBROUTINE(address=0x0ABD)
176: 0x0375 [0x02] IF !(ExtData[1]->WorkLocal[21] == 4294967294*) GOTO 0x0387
177: 0x037D [0x48] [System] [195*]:
    → "You have not yet registered any other home points, and thus are unable to teleport."
178: 0x0380 [0x23] WAIT_FOR_DIALOG_INTERACTION
179: 0x0381 [0x05] ExtData[1]->WorkLocal[23] = 1
180: 0x0384 [0x01] GOTO 0x03BB
181: 0x0387 [0x24] CREATE_DIALOG(message_id=200*, default_option=ExtData[1]->WorkLocal[22], option_flags=ExtData[1]->WorkLocal[21])
    → "Teleport where? [None of these./A favorited location./An original area./A Rise of the Zilart area./A Chains of Promathia area./A Treasures of Aht Urhgan area./A Wings of the Goddess area./A Seekers of Adoulin area.]"
182: 0x038E [0x25] WAIT_DIALOG_SELECT()
183: 0x038F [0x02] IF !(Work_Zone[0] == 0*) GOTO 0x039D
184: 0x0397 [0x05] ExtData[1]->WorkLocal[23] = 1
185: 0x039A [0x01] GOTO 0x039D

SUBROUTINE_039D:
186: 0x039D [0x03] ExtData[1]->WorkLocal[22] = Work_Zone[0]
187: 0x03A2 [0x02] IF !(ExtData[1]->WorkLocal[22] == 0*) GOTO 0x03BB
188: 0x03AA [0x02] IF !(ExtData[1]->WorkLocal[22] == 1*) GOTO 0x03B8
189: 0x03B2 [0x1A] CALL_SUBROUTINE(address=0x03C2)
190: 0x03B5 [0x01] GOTO 0x03BB
191: 0x03B8 [0x1A] CALL_SUBROUTINE(address=0x0865)

SUBROUTINE_03BB:
192: 0x03BB [0x01] GOTO 0x036A
193: 0x03BE [0x01] GOTO 0x03C1

SUBROUTINE_03C1:
194: 0x03C1 [0x1B] RETURN

SUBROUTINE_03C2:
195: 0x03C2 [0x06] ExtData[1]->WorkLocal[14] = 0
196: 0x03C5 [0x06] ExtData[1]->WorkLocal[13] = 0
197: 0x03C8 [0x06] ExtData[1]->WorkLocal[77] = 0

SUBROUTINE_03CB:
198: 0x03CB [0x02] IF !(ExtData[1]->WorkLocal[14] == 0*) GOTO 0x05FB
199: 0x03D3 [0x1A] CALL_SUBROUTINE(address=0x072C)
200: 0x03D6 [0xD4] MAP_QUERY_WINDOW: Test and open map window (flag=0x24, work=[0x0D80, 0x0C00, 0x2500])
201: 0x03DF [0x02] IF !(Work_Zone[0] == 0*) GOTO 0x03ED
202: 0x03E7 [0x05] ExtData[1]->WorkLocal[14] = 1
203: 0x03EA [0x01] GOTO 0x03ED

SUBROUTINE_03ED:
204: 0x03ED [0x03] ExtData[1]->WorkLocal[13] = Work_Zone[0]
205: 0x03F2 [0x02] IF !(ExtData[1]->WorkLocal[13] == 10*) GOTO 0x0408
206: 0x03FA [0x1A] CALL_SUBROUTINE(address=0x05FC)
207: 0x03FD [0x03] ExtData[1]->WorkLocal[13] = 10*
208: 0x0402 [0x05] ExtData[1]->WorkLocal[14] = 1
209: 0x0405 [0x01] GOTO 0x0408

SUBROUTINE_0408:
210: 0x0408 [0x02] IF !(ExtData[1]->WorkLocal[14] == 0*) GOTO 0x05ED
211: 0x0410 [0x03] ExtData[1]->WorkLocal[65] = ExtData[1]->WorkLocal[13]
212: 0x0415 [0x0C] ExtData[1]->WorkLocal[65]--
213: 0x0418 [0x9D] ExtData[1]->WorkLocal[15] = 0x130F[ExtData[1]->WorkLocal[65]] // Read WORD
214: 0x0420 [0x9D] Work_Zone[3] = 0x153F[ExtData[1]->WorkLocal[15]] // Read WORD
215: 0x0428 [0x9D] Work_Zone[4] = 0x173F[ExtData[1]->WorkLocal[15]] // Read WORD
216: 0x0430 [0x9D] Work_Zone[5] = 0x203F[ExtData[1]->WorkLocal[15]] // Read WORD
217: 0x0438 [0x3E] IF !(ExtData[1]->WorkLocal[30] bit 0*) GOTO 0x0444
218: 0x043F [0x15] Work_Zone[5] /= 5*
219: 0x0444 [0x03] Work_Zone[2] = ExtData[1]->WorkLocal[18]
220: 0x0449 [0x06] ExtData[1]->WorkLocal[57] = 0
221: 0x044C [0x06] ExtData[1]->WorkLocal[65] = 0
222: 0x044F [0x9D] ExtData[1]->WorkLocal[65] = 0x1A3F[ExtData[1]->WorkLocal[15]] // Read WORD
223: 0x0457 [0x9D] ExtData[1]->WorkLocal[57] = 0x1A3F[ExtData[1]->WorkLocal[4]] // Read WORD
224: 0x045F [0x02] IF !(ExtData[1]->WorkLocal[65] == 0*) GOTO 0x046E
225: 0x0467 [0x48] [System] [196*]:
    → "It costs $3 gil to teleport to Home Point #$2 in $8."
226: 0x046A [0x23] WAIT_FOR_DIALOG_INTERACTION
227: 0x046B [0x01] GOTO 0x0487
228: 0x046E [0x02] IF !(ExtData[1]->WorkLocal[65] == ExtData[1]->WorkLocal[57]) GOTO 0x0483
229: 0x0476 [0x06] Work_Zone[5] = 0
230: 0x0479 [0x05] ExtData[1]->WorkLocal[77] = 1
231: 0x047C [0x48] [System] [197*]:
    → "There is no fee for teleporting to Home Point #$2 in $8."
232: 0x047F [0x23] WAIT_FOR_DIALOG_INTERACTION
233: 0x0480 [0x01] GOTO 0x0487
234: 0x0483 [0x48] [System] [196*]:
    → "It costs $3 gil to teleport to Home Point #$2 in $8."
235: 0x0486 [0x23] WAIT_FOR_DIALOG_INTERACTION

SUBROUTINE_0487:
236: 0x0487 [0x06] ExtData[1]->WorkLocal[75] = 0
237: 0x048A [0x03] ExtData[1]->WorkLocal[76] = 2*

SUBROUTINE_048F:
238: 0x048F [0x02] IF !(ExtData[1]->WorkLocal[75] == 0*) GOTO 0x05EA
239: 0x0497 [0x05] ExtData[1]->WorkLocal[75] = 1
240: 0x049A [0x1A] CALL_SUBROUTINE(address=0x06FB)
241: 0x049D [0x02] IF !(ExtData[1]->WorkLocal[65] < 0*) GOTO 0x04AD
242: 0x04A5 [0x03] Work_Zone_1700[25] = 1*
243: 0x04AA [0x01] GOTO 0x04B2
244: 0x04AD [0x03] Work_Zone_1700[25] = 0*

SUBROUTINE_04B2:
245: 0x04B2 [0x03] Work_Zone[2] = ExtData[1]->WorkLocal[18]
246: 0x04B7 [0x24] CREATE_DIALOG(message_id=198*, default_option=ExtData[1]->WorkLocal[76], option_flags=0*)
    → "Teleport? (Current gil: $0) [[Add to favorites/Remove from favorites]./Yes, please./No, thank you.]"
247: 0x04BE [0x25] WAIT_DIALOG_SELECT()
248: 0x04BF [0x02] IF !(Work_Zone[0] == 0*) GOTO 0x04CA
249: 0x04C7 [0x01] GOTO 0x04CA

SUBROUTINE_04CA:
250: 0x04CA [0x03] ExtData[1]->WorkLocal[76] = Work_Zone[0]
251: 0x04CF [0x02] IF !(ExtData[1]->WorkLocal[76] == 0*) GOTO 0x04F6
252: 0x04D7 [0x1A] CALL_SUBROUTINE(address=0x05FC)
253: 0x04DA [0x06] ExtData[1]->WorkLocal[75] = 0
254: 0x04DD [0x02] IF !(ExtData[1]->WorkLocal[77] == 0*) GOTO 0x04F0
255: 0x04E5 [0x9D] Work_Zone[5] = 0x203F[ExtData[1]->WorkLocal[15]] // Read WORD
256: 0x04ED [0x01] GOTO 0x04F3
257: 0x04F0 [0x06] Work_Zone[5] = 0

SUBROUTINE_04F3:
258: 0x04F3 [0x01] GOTO 0x05E7
259: 0x04F6 [0x02] IF !(ExtData[1]->WorkLocal[76] == 1*) GOTO 0x05DC
260: 0x04FE [0x02] IF !(ExtData[1]->WorkLocal[18] >= Work_Zone[5]) GOTO 0x051E
261: 0x0506 [0x48] [System] [6604*]:
    → "You do not have enough gil."
262: 0x0509 [0x23] WAIT_FOR_DIALOG_INTERACTION
263: 0x050A [0x05] ExtData[1]->WorkLocal[23] = 1
264: 0x050D [0x05] ExtData[1]->WorkLocal[14] = 1
265: 0x0510 [0x05] ExtData[1]->WorkLocal[11] = 1
266: 0x0513 [0x05] ExtData[1]->WorkLocal[8] = 1
267: 0x0516 [0x03] Work_Zone[1] = 1073741824*
268: 0x051B [0x01] GOTO 0x05D9
269: 0x051E [0x42] SET_CLI_EVENT_CANCEL_DATA()
270: 0x051F [0x9D] ExtData[1]->WorkLocal[65] = 0x153F[ExtData[1]->WorkLocal[15]] // Read WORD
271: 0x0527 [0x9D] ExtData[1]->WorkLocal[57] = 0x153F[ExtData[1]->WorkLocal[4]] // Read WORD
272: 0x052F [0x02] IF !(ExtData[1]->WorkLocal[65] == ExtData[1]->WorkLocal[57]) GOTO 0x05A2
273: 0x0537 [0x40] SET_BIT_WORK_RANGE(start_bit=0*, end_bit=15*, target=Work_Zone[1], source=2*)
274: 0x0540 [0x40] SET_BIT_WORK_RANGE(start_bit=16*, end_bit=31*, target=Work_Zone[1], source=ExtData[1]->WorkLocal[15])
275: 0x0549 [0x43] SEND_EVENT_UPDATE: Send pending tag to server (packet 0x005B)
276: 0x054B [0x43] SEND_EVENT_UPDATE: Check pending flag (skip if not pending)
277: 0x054D [0x1A] CALL_SUBROUTINE(address=0x11D1)
278: 0x0550 [0x1A] CALL_SUBROUTINE(address=0x122F)
279: 0x0553 [0xBA] SET_ENTITY_POSITION(entity_id=LocalPlayer, pos_x=ExtData[1]->WorkLocal[25], pos_z=ExtData[1]->WorkLocal[27], pos_y=ExtData[1]->WorkLocal[26], direction=ExtData[1]->WorkLocal[28])
280: 0x0560 [0x40] SET_BIT_WORK_RANGE(start_bit=0*, end_bit=15*, target=Work_Zone[1], source=3*)
281: 0x0569 [0x40] SET_BIT_WORK_RANGE(start_bit=16*, end_bit=31*, target=Work_Zone[1], source=ExtData[1]->WorkLocal[15])
282: 0x0572 [0x47] UPDATE_PLAYER_POS(ExtData[1]->WorkLocal[25], ExtData[1]->WorkLocal[27], ExtData[1]->WorkLocal[26], yaw=ExtData[1]->WorkLocal[28])
283: 0x057C [0x47] WAIT_PLAYER_POS_UPDATE
284: 0x057E [0x1A] CALL_SUBROUTINE(address=0x11FA)
285: 0x0581 [0x40] SET_BIT_WORK_RANGE(start_bit=0*, end_bit=15*, target=Work_Zone[1], source=3*)
286: 0x058A [0x40] SET_BIT_WORK_RANGE(start_bit=16*, end_bit=31*, target=Work_Zone[1], source=0*)
287: 0x0593 [0x05] ExtData[1]->WorkLocal[23] = 1
288: 0x0596 [0x05] ExtData[1]->WorkLocal[14] = 1
289: 0x0599 [0x05] ExtData[1]->WorkLocal[11] = 1
290: 0x059C [0x05] ExtData[1]->WorkLocal[8] = 1
291: 0x059F [0x01] GOTO 0x05D9
292: 0x05A2 [0x40] SET_BIT_WORK_RANGE(start_bit=0*, end_bit=15*, target=Work_Zone[1], source=2*)
293: 0x05AB [0x40] SET_BIT_WORK_RANGE(start_bit=16*, end_bit=31*, target=Work_Zone[1], source=ExtData[1]->WorkLocal[15])
294: 0x05B4 [0x43] SEND_EVENT_UPDATE: Send pending tag to server (packet 0x005B)
295: 0x05B6 [0x43] SEND_EVENT_UPDATE: Check pending flag (skip if not pending)
296: 0x05B8 [0x1A] CALL_SUBROUTINE(address=0x11D1)
297: 0x05BB [0x40] SET_BIT_WORK_RANGE(start_bit=0*, end_bit=15*, target=Work_Zone[1], source=2*)
298: 0x05C4 [0x40] SET_BIT_WORK_RANGE(start_bit=16*, end_bit=31*, target=Work_Zone[1], source=ExtData[1]->WorkLocal[15])
299: 0x05CD [0x05] ExtData[1]->WorkLocal[23] = 1
300: 0x05D0 [0x05] ExtData[1]->WorkLocal[14] = 1
301: 0x05D3 [0x05] ExtData[1]->WorkLocal[11] = 1
302: 0x05D6 [0x05] ExtData[1]->WorkLocal[8] = 1

SUBROUTINE_05D9:
303: 0x05D9 [0x01] GOTO 0x05E7
304: 0x05DC [0x02] IF !(ExtData[1]->WorkLocal[76] == 2*) GOTO 0x05E7
305: 0x05E4 [0x01] GOTO 0x05E7

SUBROUTINE_05E7:
306: 0x05E7 [0x01] GOTO 0x048F
307: 0x05EA [0x01] GOTO 0x05F8
308: 0x05ED [0x02] IF !(ExtData[1]->WorkLocal[13] == 0*) GOTO 0x05F8
309: 0x05F5 [0x06] ExtData[1]->WorkLocal[14] = 0

SUBROUTINE_05F8:
310: 0x05F8 [0x01] GOTO 0x03CB
311: 0x05FB [0x1B] RETURN

SUBROUTINE_05FC:
312: 0x05FC [0x02] IF !(Work_Zone_1700[25] <= 0*) GOTO 0x063C
313: 0x0604 [0x40] SET_BIT_WORK_RANGE(start_bit=0*, end_bit=15*, target=Work_Zone[1], source=6*)
314: 0x060D [0x40] SET_BIT_WORK_RANGE(start_bit=16*, end_bit=31*, target=Work_Zone[1], source=ExtData[1]->WorkLocal[15])
315: 0x0616 [0x43] SEND_EVENT_UPDATE: Send pending tag to server (packet 0x005B)
316: 0x0618 [0x43] SEND_EVENT_UPDATE: Check pending flag (skip if not pending)
317: 0x061A [0x1A] CALL_SUBROUTINE(address=0x00F0)
318: 0x061D [0x9D] Work_Zone[3] = 0x153F[ExtData[1]->WorkLocal[15]] // Read WORD
319: 0x0625 [0x9D] Work_Zone[4] = 0x173F[ExtData[1]->WorkLocal[15]] // Read WORD
320: 0x062D [0x03] Work_Zone_1700[25] = 1*
321: 0x0632 [0x48] [System] [205*]:
    → "Home Point #$2 in $8 has been [registered to/removed from] your list of favorite locations."
322: 0x0635 [0x23] WAIT_FOR_DIALOG_INTERACTION
323: 0x0636 [0x06] ExtData[1]->WorkLocal[13] = 0
324: 0x0639 [0x01] GOTO 0x06FA
325: 0x063C [0x1A] CALL_SUBROUTINE(address=0x0173)
326: 0x063F [0x02] IF !(ExtData[1]->WorkLocal[56] >= 9*) GOTO 0x067F
327: 0x0647 [0x40] SET_BIT_WORK_RANGE(start_bit=0*, end_bit=15*, target=Work_Zone[1], source=5*)
328: 0x0650 [0x40] SET_BIT_WORK_RANGE(start_bit=16*, end_bit=31*, target=Work_Zone[1], source=ExtData[1]->WorkLocal[15])
329: 0x0659 [0x43] SEND_EVENT_UPDATE: Send pending tag to server (packet 0x005B)
330: 0x065B [0x43] SEND_EVENT_UPDATE: Check pending flag (skip if not pending)
331: 0x065D [0x1A] CALL_SUBROUTINE(address=0x00F0)
332: 0x0660 [0x9D] Work_Zone[3] = 0x153F[ExtData[1]->WorkLocal[15]] // Read WORD
333: 0x0668 [0x9D] Work_Zone[4] = 0x173F[ExtData[1]->WorkLocal[15]] // Read WORD
334: 0x0670 [0x03] Work_Zone_1700[25] = 0*
335: 0x0675 [0x48] [System] [205*]:
    → "Home Point #$2 in $8 has been [registered to/removed from] your list of favorite locations."
336: 0x0678 [0x23] WAIT_FOR_DIALOG_INTERACTION
337: 0x0679 [0x05] ExtData[1]->WorkLocal[13] = 1
338: 0x067C [0x01] GOTO 0x06FA
339: 0x067F [0x03] ExtData[1]->WorkLocal[73] = ExtData[1]->WorkLocal[15]
340: 0x0684 [0x48] [System] [206*]:
    → "Your list of favorite locations is full. You must delete an existing entry in order to register a new one."
341: 0x0687 [0x23] WAIT_FOR_DIALOG_INTERACTION
342: 0x0688 [0x1A] CALL_SUBROUTINE(address=0x07CE)
343: 0x068B [0xD4] MAP_QUERY_WINDOW: Test and open map window (flag=0x2E, work=[0x0280, 0x0C80, 0x2500])
344: 0x0694 [0x02] IF !(Work_Zone[0] == 0*) GOTO 0x069F
345: 0x069C [0x01] GOTO 0x069F

SUBROUTINE_069F:
346: 0x069F [0x03] ExtData[1]->WorkLocal[65] = Work_Zone[0]
347: 0x06A4 [0x02] IF !(ExtData[1]->WorkLocal[65] <= 0*) GOTO 0x06F5
348: 0x06AC [0x03] ExtData[1]->WorkLocal[15] = ExtData[1]->WorkLocal[73]
349: 0x06B1 [0x0C] ExtData[1]->WorkLocal[65]--
350: 0x06B4 [0x40] SET_BIT_WORK_RANGE(start_bit=0*, end_bit=15*, target=Work_Zone[1], source=7*)
351: 0x06BD [0x40] SET_BIT_WORK_RANGE(start_bit=16*, end_bit=23*, target=Work_Zone[1], source=ExtData[1]->WorkLocal[73])
352: 0x06C6 [0x40] SET_BIT_WORK_RANGE(start_bit=24*, end_bit=31*, target=Work_Zone[1], source=ExtData[1]->WorkLocal[65])
353: 0x06CF [0x43] SEND_EVENT_UPDATE: Send pending tag to server (packet 0x005B)
354: 0x06D1 [0x43] SEND_EVENT_UPDATE: Check pending flag (skip if not pending)
355: 0x06D3 [0x1A] CALL_SUBROUTINE(address=0x00F0)
356: 0x06D6 [0x9D] Work_Zone[3] = 0x153F[ExtData[1]->WorkLocal[73]] // Read WORD
357: 0x06DE [0x9D] Work_Zone[4] = 0x173F[ExtData[1]->WorkLocal[73]] // Read WORD
358: 0x06E6 [0x03] Work_Zone_1700[25] = 0*
359: 0x06EB [0x48] [System] [205*]:
    → "Home Point #$2 in $8 has been [registered to/removed from] your list of favorite locations."
360: 0x06EE [0x23] WAIT_FOR_DIALOG_INTERACTION
361: 0x06EF [0x05] ExtData[1]->WorkLocal[13] = 1
362: 0x06F2 [0x01] GOTO 0x06FA
363: 0x06F5 [0x03] ExtData[1]->WorkLocal[15] = ExtData[1]->WorkLocal[73]

SUBROUTINE_06FA:
364: 0x06FA [0x1B] RETURN

SUBROUTINE_06FB:
365: 0x06FB [0x06] ExtData[1]->WorkLocal[61] = 0
366: 0x06FE [0x03] ExtData[1]->WorkLocal[65] = 4294967295*

SUBROUTINE_0703:
367: 0x0703 [0x02] IF !(ExtData[1]->WorkLocal[61] >= 9*) GOTO 0x072B
368: 0x070B [0x9D] ExtData[1]->WorkLocal[57] = 0x130F[ExtData[1]->WorkLocal[61]] // Read WORD
369: 0x0713 [0x02] IF !(ExtData[1]->WorkLocal[57] == ExtData[1]->WorkLocal[15]) GOTO 0x0725
370: 0x071B [0x03] ExtData[1]->WorkLocal[65] = ExtData[1]->WorkLocal[61]
371: 0x0720 [0x03] ExtData[1]->WorkLocal[61] = 9*
372: 0x0725 [0x0B] ExtData[1]->WorkLocal[61]++
373: 0x0728 [0x01] GOTO 0x0703
374: 0x072B [0x1B] RETURN

SUBROUTINE_072C:
375: 0x072C [0x1A] CALL_SUBROUTINE(address=0x11B7)
376: 0x072F [0x06] ExtData[1]->WorkLocal[61] = 0
377: 0x0732 [0x06] ExtData[1]->WorkLocal[12] = 0
378: 0x0735 [0x03] ExtData[1]->WorkLocal[12] = 4294967295*

SUBROUTINE_073A:
379: 0x073A [0x02] IF !(ExtData[1]->WorkLocal[61] >= 9*) GOTO 0x07A4
380: 0x0742 [0x9D] ExtData[1]->WorkLocal[65] = 0x130F[ExtData[1]->WorkLocal[61]] // Read WORD
381: 0x074A [0x02] IF !(ExtData[1]->WorkLocal[65] == ExtData[1]->WorkLocal[4]) GOTO 0x079E
382: 0x0752 [0x02] IF !(ExtData[1]->WorkLocal[65] < 0*) GOTO 0x079B
383: 0x075A [0x3D] CLEAR_BIT_FLAG_CONDITIONAL(target_work_offset=ExtData[1]->WorkLocal[12], bit_index_work_offset=ExtData[1]->WorkLocal[61], condition_work_offset=1*)
384: 0x0761 [0x9D] ExtData[1]->WorkLocal[63] = 0x153F[ExtData[1]->WorkLocal[65]] // Read WORD
385: 0x0769 [0x9D] ExtData[1]->WorkLocal[59] = 0x173F[ExtData[1]->WorkLocal[65]] // Read WORD
386: 0x0771 [0x03] ExtData[1]->WorkLocal[57] = ExtData[1]->WorkLocal[61]
387: 0x0776 [0x0B] ExtData[1]->WorkLocal[57]++
388: 0x0779 [0xD4] MAP_QUERY_WINDOW: Prepare buffer and copy to TalkpQW object (buffer=[39 00 02 80 41 00 9D 05...])
389: 0x0799 [0x39] SET_ENTITY_DIRECTION(direction=0x0100)
390: 0x079C [0x9E] SET_RECT_EVENT_SEND_FLAG: Notify client of area movement
391: 0x079E [0x0B] ExtData[1]->WorkLocal[61]++
392: 0x07A1 [0x01] GOTO 0x073A
393: 0x07A4 [0x10] ExtData[1]->WorkLocal[12] <<= 1*
394: 0x07A9 [0x3D] CLEAR_BIT_FLAG_CONDITIONAL(target_work_offset=ExtData[1]->WorkLocal[12], bit_index_work_offset=10*, condition_work_offset=1*)
395: 0x07B0 [0x03] ExtData[1]->WorkLocal[15] = ExtData[1]->WorkLocal[4]
396: 0x07B5 [0x1A] CALL_SUBROUTINE(address=0x06FB)
397: 0x07B8 [0x02] IF !(ExtData[1]->WorkLocal[65] < 0*) GOTO 0x07C8
398: 0x07C0 [0x03] Work_Zone_1700[25] = 1*
399: 0x07C5 [0x01] GOTO 0x07CD
400: 0x07C8 [0x03] Work_Zone_1700[25] = 0*

SUBROUTINE_07CD:
401: 0x07CD [0x1B] RETURN

SUBROUTINE_07CE:
402: 0x07CE [0x1A] CALL_SUBROUTINE(address=0x11B7)
403: 0x07D1 [0x06] ExtData[1]->WorkLocal[61] = 0
404: 0x07D4 [0x06] ExtData[1]->WorkLocal[12] = 0
405: 0x07D7 [0x03] ExtData[1]->WorkLocal[12] = 4294967295*
406: 0x07DC [0x02] IF !(ExtData[1]->WorkLocal[61] >= 9*) GOTO 0x083B
407: 0x07E4 [0x9D] ExtData[1]->WorkLocal[65] = 0x130F[ExtData[1]->WorkLocal[61]] // Read WORD
408: 0x07EC [0x02] IF !(ExtData[1]->WorkLocal[65] < 0*) GOTO 0x0835
409: 0x07F4 [0x3D] CLEAR_BIT_FLAG_CONDITIONAL(target_work_offset=ExtData[1]->WorkLocal[12], bit_index_work_offset=ExtData[1]->WorkLocal[61], condition_work_offset=1*)
410: 0x07FB [0x9D] ExtData[1]->WorkLocal[63] = 0x153F[ExtData[1]->WorkLocal[65]] // Read WORD
411: 0x0803 [0x9D] ExtData[1]->WorkLocal[59] = 0x173F[ExtData[1]->WorkLocal[65]] // Read WORD
412: 0x080B [0x03] ExtData[1]->WorkLocal[57] = ExtData[1]->WorkLocal[61]
413: 0x0810 [0x0B] ExtData[1]->WorkLocal[57]++
414: 0x0813 [0xD4] MAP_QUERY_WINDOW: Prepare buffer and copy to TalkpQW object (buffer=[39 00 02 80 41 00 9D 05...])
415: 0x0833 [0x39] SET_ENTITY_DIRECTION(direction=0x0B00)
416: 0x0836 [0x3D] CLEAR_BIT_FLAG_CONDITIONAL(target_work_offset=0x0100, bit_index_work_offset=0x07DC, condition_work_offset=0x0C10)
417: 0x083D [0x00] END_REQSTACK()
418: 0x083E [0x0D] 0x3D80 &= ExtData[1]->WorkLocal[12]
419: 0x0843 [0x25] WAIT_DIALOG_SELECT()
420: 0x0844 [0x80] LOAD_WAIT(entity=Unknown NPC (ID: 251887629/0x0F03800D))
421: 0x0849 [0x00] END_REQSTACK()

SUBROUTINE_0865:
422: 0x0865 [0x06] ExtData[1]->WorkLocal[11] = 0
423: 0x0868 [0x06] ExtData[1]->WorkLocal[10] = 0
424: 0x086B [0x06] ExtData[1]->WorkLocal[16] = 0

SUBROUTINE_086E:
425: 0x086E [0x02] IF !(ExtData[1]->WorkLocal[11] == 0*) GOTO 0x08E5
426: 0x0876 [0x1A] CALL_SUBROUTINE(address=0x08E6)
427: 0x0879 [0x24] CREATE_DIALOG(message_id=193*, default_option=ExtData[1]->WorkLocal[10], option_flags=ExtData[1]->WorkLocal[9])
    → "Teleport where? [Never mind./$8./$8./$8./$8./$8./$8./$8./$8./$8./$8./$8./$8./$8./$8./$8./$8./Previous page./Next page.]"
428: 0x0880 [0x25] WAIT_DIALOG_SELECT()
429: 0x0881 [0x02] IF !(Work_Zone[0] == 0*) GOTO 0x0890
430: 0x0889 [0x05] ExtData[1]->WorkLocal[11] = 1
431: 0x088C [0x1B] RETURN

SUBROUTINE_0890:
432: 0x0890 [0x03] ExtData[1]->WorkLocal[10] = Work_Zone[0]
433: 0x0895 [0x02] IF !(ExtData[1]->WorkLocal[10] == 17*) GOTO 0x08AE
434: 0x089D [0x02] IF !(ExtData[1]->WorkLocal[16] <= 0*) GOTO 0x08A8
435: 0x08A5 [0x0C] ExtData[1]->WorkLocal[16]--
436: 0x08A8 [0x06] ExtData[1]->WorkLocal[10] = 0
437: 0x08AB [0x01] GOTO 0x08C7
438: 0x08AE [0x02] IF !(ExtData[1]->WorkLocal[10] == 18*) GOTO 0x08C7
439: 0x08B6 [0x02] IF !(ExtData[1]->WorkLocal[16] >= 1*) GOTO 0x08C1
440: 0x08BE [0x0B] ExtData[1]->WorkLocal[16]++
441: 0x08C1 [0x06] ExtData[1]->WorkLocal[10] = 0
442: 0x08C4 [0x01] GOTO 0x08C7

SUBROUTINE_08C7:
443: 0x08C7 [0x02] IF !(ExtData[1]->WorkLocal[10] <= 0*) GOTO 0x08E2
444: 0x08CF [0x03] ExtData[1]->WorkLocal[74] = ExtData[1]->WorkLocal[10]
445: 0x08D4 [0x0C] ExtData[1]->WorkLocal[74]--
446: 0x08D7 [0x9D] ExtData[1]->WorkLocal[19] = 0x133F[ExtData[1]->WorkLocal[74]] // Read WORD
447: 0x08DF [0x1A] CALL_SUBROUTINE(address=0x0C37)
448: 0x08E2 [0x01] GOTO 0x086E
449: 0x08E5 [0x1B] RETURN

SUBROUTINE_08E6:
450: 0x08E6 [0x1A] CALL_SUBROUTINE(address=0x11B7)
451: 0x08E9 [0x06] ExtData[1]->WorkLocal[57] = 0
452: 0x08EC [0x06] ExtData[1]->WorkLocal[61] = 0
453: 0x08EF [0x06] ExtData[1]->WorkLocal[9] = 0
454: 0x08F2 [0x06] ExtData[1]->WorkLocal[64] = 0
455: 0x08F5 [0x03] ExtData[1]->WorkLocal[35] = 4294967295*
456: 0x08FA [0x03] ExtData[1]->WorkLocal[36] = 4294967295*
457: 0x08FF [0x03] ExtData[1]->WorkLocal[24] = ExtData[1]->WorkLocal[22]
458: 0x0904 [0x08] ExtData[1]->WorkLocal[24] -= 2*

SUBROUTINE_0909:
459: 0x0909 [0x02] IF !(ExtData[1]->WorkLocal[61] >= 122*) GOTO 0x097F
460: 0x0911 [0x03] ExtData[1]->WorkLocal[60] = ExtData[1]->WorkLocal[61]
461: 0x0916 [0x15] ExtData[1]->WorkLocal[60] /= 32*
462: 0x091B [0x03] ExtData[1]->WorkLocal[62] = ExtData[1]->WorkLocal[61]
463: 0x0920 [0x3F] ExtData[1]->WorkLocal[62] = ExtData[1]->WorkLocal[62] % 32*
464: 0x0927 [0x06] ExtData[1]->WorkLocal[57] = 0
465: 0x092A [0x9D] ExtData[1]->WorkLocal[57] = 0x132F[ExtData[1]->WorkLocal[60]] // Read WORD
466: 0x0932 [0x3E] IF !(ExtData[1]->WorkLocal[57] bit ExtData[1]->WorkLocal[62]) GOTO 0x0979
467: 0x0939 [0x9D] ExtData[1]->WorkLocal[68] = 0x163F[ExtData[1]->WorkLocal[61]] // Read WORD
468: 0x0941 [0x3E] IF !(ExtData[1]->WorkLocal[20] bit ExtData[1]->WorkLocal[68]) GOTO 0x0979
469: 0x0948 [0x02] IF !(ExtData[1]->WorkLocal[68] == 11*) GOTO 0x0955
470: 0x0950 [0x03] ExtData[1]->WorkLocal[68] = 5*
471: 0x0955 [0x02] IF !(ExtData[1]->WorkLocal[24] == ExtData[1]->WorkLocal[68]) GOTO 0x0979
472: 0x095D [0x9D] ExtData[1]->WorkLocal[63] = 0x153F[ExtData[1]->WorkLocal[61]] // Read WORD
473: 0x0965 [0x02] IF !(ExtData[1]->WorkLocal[61] == ExtData[1]->WorkLocal[4]) GOTO 0x0973
474: 0x096D [0x06] ExtData[1]->WorkLocal[37] = 0
475: 0x0970 [0x01] GOTO 0x0976
476: 0x0973 [0x05] ExtData[1]->WorkLocal[37] = 1

SUBROUTINE_0976:
477: 0x0976 [0x1A] CALL_SUBROUTINE(address=0x0A22)
478: 0x0979 [0x0B] ExtData[1]->WorkLocal[61]++
479: 0x097C [0x01] GOTO 0x0909
480: 0x097F [0x02] IF !(ExtData[1]->WorkLocal[16] == 0*) GOTO 0x09BD
481: 0x0987 [0x03] ExtData[1]->WorkLocal[9] = ExtData[1]->WorkLocal[35]
482: 0x098C [0x02] IF !(ExtData[1]->WorkLocal[64] >= 16*) GOTO 0x09A5
483: 0x0994 [0x40] SET_BIT_WORK_RANGE(start_bit=ExtData[1]->WorkLocal[64], end_bit=31*, target=ExtData[1]->WorkLocal[9], source=4294967295*)
484: 0x099D [0x10] ExtData[1]->WorkLocal[9] <<= 1*
485: 0x09A2 [0x01] GOTO 0x09BA
486: 0x09A5 [0x40] SET_BIT_WORK_RANGE(start_bit=16*, end_bit=31*, target=ExtData[1]->WorkLocal[9], source=4294967295*)
487: 0x09AE [0x10] ExtData[1]->WorkLocal[9] <<= 1*
488: 0x09B3 [0x3D] CLEAR_BIT_FLAG_CONDITIONAL(target_work_offset=ExtData[1]->WorkLocal[9], bit_index_work_offset=18*, condition_work_offset=1*)

SUBROUTINE_09BA:
489: 0x09BA [0x01] GOTO 0x09EF
490: 0x09BD [0x02] IF !(ExtData[1]->WorkLocal[16] == 1*) GOTO 0x09EF
491: 0x09C5 [0x1A] CALL_SUBROUTINE(address=0x09F0)
492: 0x09C8 [0x03] ExtData[1]->WorkLocal[9] = ExtData[1]->WorkLocal[36]
493: 0x09CD [0x03] ExtData[1]->WorkLocal[65] = ExtData[1]->WorkLocal[64]
494: 0x09D2 [0x08] ExtData[1]->WorkLocal[65] -= 16*
495: 0x09D7 [0x40] SET_BIT_WORK_RANGE(start_bit=ExtData[1]->WorkLocal[65], end_bit=31*, target=ExtData[1]->WorkLocal[9], source=4294967295*)
496: 0x09E0 [0x10] ExtData[1]->WorkLocal[9] <<= 1*
497: 0x09E5 [0x3D] CLEAR_BIT_FLAG_CONDITIONAL(target_work_offset=ExtData[1]->WorkLocal[9], bit_index_work_offset=17*, condition_work_offset=1*)
498: 0x09EC [0x01] GOTO 0x09EF

SUBROUTINE_09EF:
499: 0x09EF [0x1B] RETURN

SUBROUTINE_09F0:
500: 0x09F0 [0x06] ExtData[1]->WorkLocal[72] = 0
501: 0x09F3 [0x06] ExtData[1]->WorkLocal[73] = 0
502: 0x09F6 [0x06] ExtData[1]->WorkLocal[65] = 0

SUBROUTINE_09F9:
503: 0x09F9 [0x02] IF !(ExtData[1]->WorkLocal[72] >= 16*) GOTO 0x0A21
504: 0x0A01 [0x03] ExtData[1]->WorkLocal[65] = ExtData[1]->WorkLocal[72]
505: 0x0A06 [0x07] ExtData[1]->WorkLocal[65] += 16*
506: 0x0A0B [0x9D] ExtData[1]->WorkLocal[73] = 0x133F[ExtData[1]->WorkLocal[65]] // Read WORD
507: 0x0A13 [0x9D] 0x133F[ExtData[1]->WorkLocal[72] * 2] = ExtData[1]->WorkLocal[73] // Write WORD
508: 0x0A1B [0x0B] ExtData[1]->WorkLocal[72]++
509: 0x0A1E [0x01] GOTO 0x09F9
510: 0x0A21 [0x1B] RETURN

SUBROUTINE_0A22:
511: 0x0A22 [0x06] ExtData[1]->WorkLocal[72] = 0
512: 0x0A25 [0x06] ExtData[1]->WorkLocal[73] = 0

SUBROUTINE_0A28:
513: 0x0A28 [0x02] IF !(ExtData[1]->WorkLocal[72] > ExtData[1]->WorkLocal[64]) GOTO 0x0ABC
514: 0x0A30 [0x9D] ExtData[1]->WorkLocal[73] = 0x133F[ExtData[1]->WorkLocal[72]] // Read WORD
515: 0x0A38 [0x02] IF !(ExtData[1]->WorkLocal[73] == ExtData[1]->WorkLocal[63]) GOTO 0x0A73
516: 0x0A40 [0x02] IF !(ExtData[1]->WorkLocal[37] == 0*) GOTO 0x0A6B
517: 0x0A48 [0x02] IF !(ExtData[1]->WorkLocal[72] >= 16*) GOTO 0x0A5A
518: 0x0A50 [0x3D] CLEAR_BIT_FLAG_CONDITIONAL(target_work_offset=ExtData[1]->WorkLocal[35], bit_index_work_offset=ExtData[1]->WorkLocal[72], condition_work_offset=1*)
519: 0x0A57 [0x01] GOTO 0x0A6B
520: 0x0A5A [0x03] ExtData[1]->WorkLocal[59] = ExtData[1]->WorkLocal[72]
521: 0x0A5F [0x08] ExtData[1]->WorkLocal[59] -= 16*
522: 0x0A64 [0x3D] CLEAR_BIT_FLAG_CONDITIONAL(target_work_offset=ExtData[1]->WorkLocal[36], bit_index_work_offset=ExtData[1]->WorkLocal[59], condition_work_offset=1*)

SUBROUTINE_0A6B:
523: 0x0A6B [0x03] ExtData[1]->WorkLocal[72] = ExtData[1]->WorkLocal[64]
524: 0x0A70 [0x01] GOTO 0x0AB6
525: 0x0A73 [0x02] IF !(ExtData[1]->WorkLocal[73] == 0*) GOTO 0x0AB6
526: 0x0A7B [0x9D] 0x133F[ExtData[1]->WorkLocal[72] * 2] = ExtData[1]->WorkLocal[63] // Write WORD
527: 0x0A83 [0x02] IF !(ExtData[1]->WorkLocal[37] == 0*) GOTO 0x0AAE
