# 17723401 - Ailbeche

## Common Data

| Field            | Value                         |
|------------------|-------------------------------|
| Zone             | Northern San d'Oria (ID: 231) |
| Block Size       | 2396 bytes                    |
| Total Events     | 31                            |
| References Count | 88                            |

## List of Events

| Event ID                 | Entrypoint   |   Size |   Instructions |
|--------------------------|--------------|--------|----------------|
| [65535](#event-65535)    | 0x0000       |      1 |              1 |
| [868](#event-868)        | 0x0001       |     99 |             31 |
| [535](#event-535)        | 0x0064       |      1 |              1 |
| [65535.1](#event-655351) | 0x0065       |     55 |             13 |
| [508](#event-508)        | 0x009C       |    159 |             29 |
| [509](#event-509)        | 0x013B       |    906 |            121 |
| [61](#event-61)          | 0x04C5       |      1 |              1 |
| [45](#event-45)          | 0x04C6       |     45 |             13 |
| [43](#event-43)          | 0x04F3       |    133 |             31 |
| [42](#event-42)          | 0x0578       |     38 |             10 |
| [44](#event-44)          | 0x059E       |     74 |             12 |
| [41](#event-41)          | 0x05E8       |      1 |              1 |
| [40](#event-40)          | 0x05E9       |      1 |              1 |
| [46](#event-46)          | 0x05EA       |     10 |              4 |
| [39](#event-39)          | 0x05F4       |     77 |             19 |
| [15](#event-15)          | 0x0641       |      1 |              1 |
| [60](#event-60)          | 0x0642       |      1 |              1 |
| [47](#event-47)          | 0x0643       |     34 |             11 |
| [25](#event-25)          | 0x0665       |     20 |              6 |
| [63](#event-63)          | 0x0679       |     15 |              5 |
| [59](#event-59)          | 0x0688       |     23 |              7 |
| [13](#event-13)          | 0x069F       |     15 |              5 |
| [12](#event-12)          | 0x06AE       |     33 |              9 |
| [65535.2](#event-655352) | 0x06CF       |      6 |              2 |
| [65535.3](#event-655353) | 0x06D5       |     20 |              6 |
| [16](#event-16)          | 0x06E9       |     28 |              5 |
| [0](#event-0)            | 0x0705       |     28 |              5 |
| [65535.4](#event-655354) | 0x0721       |     19 |              3 |
| [65535.5](#event-655355) | 0x0734       |      9 |              3 |
| [65535.6](#event-655356) | 0x073D       |     19 |              3 |
| [65535.7](#event-655357) | 0x0750       |     29 |              3 |

## DAT References (imed_data)

|   Index | Hex Value   |   Dec Value |
|---------|-------------|-------------|
|       0 | 0x4692      |       18066 |
|       1 | 0x4693      |       18067 |
|       2 | 0x0000      |           0 |
|       3 | 0x0001      |           1 |
|       4 | 0x4694      |       18068 |
|       5 | 0x4695      |       18069 |
|       6 | 0x4696      |       18070 |
|       7 | 0x0002      |           2 |
|       8 | 0x4697      |       18071 |
|       9 | 0x4698      |       18072 |
|      10 | 0x4699      |       18073 |
|      11 | 0x0023      |          35 |
|      12 | 0xFFFFE977  |  4294961527 |
|      13 | 0x299A      |       10650 |
|      14 | 0x03DE      |         990 |
|      15 | 0xFFFFD699  |  4294956697 |
|      16 | 0x4F18      |       20248 |
|      17 | 0x003C      |          60 |
|      18 | 0xFFFFE541  |  4294960449 |
|      19 | 0x68DA      |       26842 |
|      20 | 0x01F3      |         499 |
|      21 | 0x001E      |          30 |
|      22 | 0x002D      |          45 |
|      23 | 0xFFFFE44E  |  4294960206 |
|      24 | 0xB63D      |       46653 |
|      25 | 0x00C8      |         200 |
|      26 | 0x0003      |           3 |
|      27 | 0x0083      |         131 |
|      28 | 0x004B      |          75 |
|      29 | 0x2BC4      |       11204 |
|      30 | 0x2BC5      |       11205 |
|      31 | 0x2BC6      |       11206 |
|      32 | 0x2BC7      |       11207 |
|      33 | 0x2BC8      |       11208 |
|      34 | 0x2BCB      |       11211 |
|      35 | 0x0064      |         100 |
|      36 | 0x0014      |          20 |
|      37 | 0x2BCC      |       11212 |
|      38 | 0x2BCD      |       11213 |
|      39 | 0x2BCE      |       11214 |
|      40 | 0x2BCF      |       11215 |
|      41 | 0x2BD0      |       11216 |
|      42 | 0x2BD1      |       11217 |
|      43 | 0x2BD2      |       11218 |
|      44 | 0x2F3F      |       12095 |
|      45 | 0x2BD4      |       11220 |
|      46 | 0x2BD5      |       11221 |
|      47 | 0x2BD6      |       11222 |
|      48 | 0x2BD3      |       11219 |
|      49 | 0x00C9      |         201 |
|      50 | 0x00E9      |         233 |
|      51 | 0x307E      |       12414 |
|      52 | 0x3080      |       12416 |
|      53 | 0x307F      |       12415 |
|      54 | 0x3081      |       12417 |
|      55 | 0x3082      |       12418 |
|      56 | 0x3083      |       12419 |
|      57 | 0x3084      |       12420 |
|      58 | 0x3085      |       12421 |
|      59 | 0x30AA      |       12458 |
|      60 | 0x4269      |       17001 |
|      61 | 0x30AB      |       12459 |
|      62 | 0x30AC      |       12460 |
|      63 | 0x30AD      |       12461 |
|      64 | 0x30AE      |       12462 |
|      65 | 0x30AF      |       12463 |
|      66 | 0x30B0      |       12464 |
|      67 | 0x30BE      |       12478 |
|      68 | 0x30BF      |       12479 |
|      69 | 0x30C0      |       12480 |
|      70 | 0x30C1      |       12481 |
|      71 | 0x30C2      |       12482 |
|      72 | 0x30C3      |       12483 |
|      73 | 0x30C4      |       12484 |
|      74 | 0x43EF      |       17391 |
|      75 | 0x30C5      |       12485 |
|      76 | 0x30C6      |       12486 |
|      77 | 0x0028      |          40 |
|      78 | 0x0B93      |        2963 |
|      79 | 0x658F      |       25999 |
|      80 | 0x169E7     |       92647 |
|      81 | 0x133F4     |       78836 |
|      82 | 0x06D5      |        1749 |
|      83 | 0x0C30      |        3120 |
|      84 | 0xFFFFDA5A  |  4294957658 |
|      85 | 0x094F      |        2383 |
|      86 | 0xFFFFFF39  |  4294967097 |
|      87 | 0x000A      |          10 |

## String References

- **11204**: Oh, where could he be?
- **11205**: I-I came here with my father, and now he's g-gone!
- **11206**: My father is a knight! Today he's on holiday, and so we went out for a walk. B-but now...
- **11207**: M-my father is so proud of his knighthood, he's still in uniform today. He looks noble indeed, though his armor creaks with each step!
- **11208**: He's not wearing his helmet, though... We came through Victory Arch together but, but now...
- **11211**: What? Y-you found my father?
- **11213**: Father?
- **11215**: B-but, Father...
- **11217**: B-but, Father! No...
- **11219**: No, Father! Don't leave me!
- **11221**: No! Th-that's my fishing rod... Father!
- **12095**: F-Father... How could you!
- **12414**: Thank you for the fishing rod! By the way, there is something else I wish to ask of you.
- **12415**: Would you please do me this favor?
- **12416**: I need $6 from Ordelle's Caves. I must have it in order to sharpen a certain sword.
- **12417**: What do you say? [I'll do my best./I can't right now.]
- **12418**: Wonderful! I wish I could tell you where it could be found. Try asking someone who often sharpens blades.
- **12419**: That is all right. I have troubled you enough. Perhaps I will ask someone else.
- **12420**: I wish I could tell you where $6 is inside the caves. Try asking someone who often sharpens blades.
- **12421**: Thank you. Here, this is for you. I snatched it from my father's chest. He won't notice if one goes missing. And besides, I'll be sharpening this blade for him!
- **12478**: What? You caught the big one? Amazing! I doubt I could have done the same.
- **12479**: Now, hurry and get it cleaned! I have heard of an expert fisherman in Selbina. You should find him and ask him!
- **18066**: Yes? Is there something you need?
- **18067**: Do you have a question? [Not really./About your father.../About your grandfather...]
- **18068**: Father? He said he had business at the weaponseller's in the southern part of town. Are you an acquaintance of his?
- **18069**: He's so engrossed in his blades that he's not given me a swordfighting lesson in weeks! At this rate, I shall never become a knight...
- **18070**: I am loath to boast, but his knowledge of armor and weaponry is second to none in the Kingdom. Helbort often consults with him about rare orders.
- **18071**: You've heard of Grandfather? That does not surprise me. He was, after all, an angler of no small repute.
- **18072**: Why, in his younger days, he would rise at the crack of dawn, and hike through Jugner Forest to Lake Mechieume. There, he would lose himself in fishing until sunset. Remarkable devotion, is it not?
- **18073**: Oh, would that I could go on such a fishing trip with my own father! Alas, it seems he did not inherit Grandfather's love for the sport...

## Events

### Event 65535

#### Metadata

| Field        | Value   |
|--------------|---------|
| Entrypoint   | 0x0000  |
| Data Size    | 1 bytes |
| Instructions | 1       |

```
      00 01 02 03 04 05 06 07  08 09 0A 0B 0C 0D 0E 0F
      -- -- -- -- -- -- -- --  -- -- -- -- -- -- -- --
0000: 00                                                .               
```

#### Opcodes

```
  0: 0x0000 [0x00] END_REQSTACK()
```

### Event 868

#### Metadata

| Field        | Value    |
|--------------|----------|
| Entrypoint   | 0x0001   |
| Data Size    | 99 bytes |
| Instructions | 21       |

```
      00 01 02 03 04 05 06 07  08 09 0A 0B 0C 0D 0E 0F
      -- -- -- -- -- -- -- --  -- -- -- -- -- -- -- --
0000:    20 01 03 00 00 02 10  1E F0 FF FF 7F 1D 00 80    ..............
0010: 23 24 01 80 02 80 02 80  25 02 00 10 02 80 00 27  #$......%......'
0020: 00 01 60 00 01 60 00 02  00 10 03 80 00 49 00 1D  ..`..`.......I..
0030: 04 80 23 02 00 00 02 80  00 42 00 1D 05 80 23 01  ..#......B....#.
0040: 46 00 1D 06 80 23 01 60  00 02 00 10 07 80 00 60  F....#.`.......`
0050: 00 1D 08 80 23 1D 09 80  23 1D 0A 80 23 01 60 00  ....#...#...#.`.
0060: 20 00 21 00                                        .!.            
```

#### Opcodes

```
  0: 0x0001 [0x20] SET_CLI_EVENT_UC_FLAG: Lock player control
  1: 0x0003 [0x03] ExtData[1]->WorkLocal[0] = Work_Zone[2]
  2: 0x0008 [0x1E] EventEntity looks at LocalPlayer and starts talking
  3: 0x000D [0x1D] PRINT_EVENT_MESSAGE(message_id=18066*)
    → "Yes? Is there something you need?"
  4: 0x0010 [0x23] WAIT_FOR_DIALOG_INTERACTION
  5: 0x0011 [0x24] CREATE_DIALOG(message_id=18067*, default_option=0*, option_flags=0*)
    → "Do you have a question? [Not really./About your father.../About your grandfather...]"
  6: 0x0018 [0x25] WAIT_DIALOG_SELECT()
  7: 0x0019 [0x02] IF !(Work_Zone[0] == 0*) GOTO 0x0027
  8: 0x0021 [0x01] GOTO 0x0060

SUBROUTINE_0046:
  9: 0x0046 [0x01] GOTO 0x0060
 10: 0x0049 [0x02] IF !(Work_Zone[0] == 2*) GOTO 0x0060
 11: 0x0051 [0x1D] PRINT_EVENT_MESSAGE(message_id=18071*)
    → "You've heard of Grandfather? That does not surprise me. He was, after all, an angler of no small repute."
 12: 0x0054 [0x23] WAIT_FOR_DIALOG_INTERACTION
 13: 0x0055 [0x1D] PRINT_EVENT_MESSAGE(message_id=18072*)
    → "Why, in his younger days, he would rise at the crack of dawn, and hike through Jugner Forest to Lake Mechieume. There, he would lose himself in fishing until sunset. Remarkable devotion, is it not?"
 14: 0x0058 [0x23] WAIT_FOR_DIALOG_INTERACTION
 15: 0x0059 [0x1D] PRINT_EVENT_MESSAGE(message_id=18073*)
    → "Oh, would that I could go on such a fishing trip with my own father! Alas, it seems he did not inherit Grandfather's love for the sport..."
 16: 0x005C [0x23] WAIT_FOR_DIALOG_INTERACTION
 17: 0x005D [0x01] GOTO 0x0060

SUBROUTINE_0060:
 18: 0x0060 [0x20] SET_CLI_EVENT_UC_FLAG: Unlock player control
 19: 0x0062 [0x21] END_EVENT
 20: 0x0063 [0x00] END_REQSTACK()
```

#### Data or dead code:

```
# Dead code (unreachable instructions):
     0x0024 [0x01] GOTO 0x0060
```

### Event 535

#### Metadata

| Field        | Value   |
|--------------|---------|
| Entrypoint   | 0x0064  |
| Data Size    | 1 bytes |
| Instructions | 1       |

```
      00 01 02 03 04 05 06 07  08 09 0A 0B 0C 0D 0E 0F
      -- -- -- -- -- -- -- --  -- -- -- -- -- -- -- --
0060:             00                                        .           
```

#### Opcodes

```
  0: 0x0064 [0x00] END_REQSTACK()
```

### Event 65535.1

#### Metadata

| Field        | Value    |
|--------------|----------|
| Entrypoint   | 0x0065   |
| Data Size    | 55 bytes |
| Instructions | 13       |

```
      00 01 02 03 04 05 06 07  08 09 0A 0B 0C 0D 0E 0F
      -- -- -- -- -- -- -- --  -- -- -- -- -- -- -- --
0060:                32 0B 80  37 0C 80 0D 80 02 80 0E       2..7.......
0070: 80 1F 00 0F 80 10 80 02  80 1F 01 1C 11 80 1F 00  ................
0080: 12 80 13 80 14 80 1F 01  1C 15 80 39 07 80 1C 16  ...........9....
0090: 80 1F 00 17 80 18 80 14  80 1F 01 00              ............    
```

#### Opcodes

```
  0: 0x0065 [0x32] ExtData[1]->MainSpeed = 35* * 0.1
  1: 0x0068 [0x37] UPDATE_EVENT_POSITION_AND_DIR: x=-5.769*, z=10.650*, y=0.000*, direction=87.0°*
  2: 0x0071 [0x1F] MOVE_ENTITY: EventEntity moves to X=-10.599*, Z=20.248*, Y=0.000*
  3: 0x0079 [0x1F] MOVE_ENTITY: Update entity position (mode=1)
  4: 0x007B [0x1C] WAIT(60* ticks)
  5: 0x007E [0x1F] MOVE_ENTITY: EventEntity moves to X=-6.847*, Z=26.842*, Y=0.499*
  6: 0x0086 [0x1F] MOVE_ENTITY: Update entity position (mode=1)
  7: 0x0088 [0x1C] WAIT(30* ticks)
  8: 0x008B [0x39] SET_ENTITY_DIRECTION(direction=0.0°*)
  9: 0x008E [0x1C] WAIT(45* ticks)
 10: 0x0091 [0x1F] MOVE_ENTITY: EventEntity moves to X=-7.090*, Z=46.653*, Y=0.499*
 11: 0x0099 [0x1F] MOVE_ENTITY: Update entity position (mode=1)
 12: 0x009B [0x00] END_REQSTACK()
```

### Event 508

#### Metadata

| Field        | Value     |
|--------------|-----------|
| Entrypoint   | 0x009C    |
| Data Size    | 159 bytes |
| Instructions | 29        |

```
      00 01 02 03 04 05 06 07  08 09 0A 0B 0C 0D 0E 0F
      -- -- -- -- -- -- -- --  -- -- -- -- -- -- -- --
0090:                                      42 46 01 45              BF.E
00A0: 19 80 F0 FF FF 7F F0 FF  FF 7F 66 64 69 31 02 80  ..........fdi1..
00B0: 38 1A 80 45 1B 80 F0 FF  FF 7F F0 FF FF 7F 73 30  8..E..........s0
00C0: 33 36 02 80 6B 64 66 74  30 09 70 0E 01 27 64 F0  36..kdft0.p..'d.
00D0: FF FF 7F 2C 5B 1C 80 F8  FF FF 7F F8 FF FF 7F 63  ...,[..........c
00E0: 72 79 30 55 1B 80 F0 FF  FF 7F F0 FF FF 7F 73 30  ry0U..........s0
00F0: 33 36 1D 1D 80 23 1C 11  80 1D 1E 80 23 1C 11 80  36...#......#...
0100: 45 1B 80 F0 FF FF 7F F0  FF FF 7F 73 30 33 37 02  E..........s037.
0110: 80 1D 1F 80 23 1C 11 80  1D 20 80 23 1C 11 80 45  ....#.... .#...E
0120: 1B 80 F0 FF FF 7F F0 FF  FF 7F 73 30 33 38 02 80  ..........s038..
0130: 1D 21 80 23 1C 11 80 46  00 21 00                 .!.#...F.!.     
```

#### Opcodes

```
  0: 0x009C [0x42] SET_CLI_EVENT_CANCEL_DATA()
  1: 0x009D [0x46] CAMERA_CONTROL: Disable user control
  2: 0x009F [0x45] LOAD_SCHEDULED_TASK: Load scheduler "fdi1" with entities [LocalPlayer, LocalPlayer], work=[200*, 0*]
  3: 0x00B0 [0x38] SET_CLIENT_EVENT_MODE(mode=3*)
  4: 0x00B3 [0x45] LOAD_SCHEDULED_TASK: Load scheduler "s036" with entities [LocalPlayer, LocalPlayer], work=[131*, 0*]
  5: 0x00C4 [0x6B] STOP_AND_IDLE: Ailbeche (ID: 17723401/0x010E7009) stops current action and resets to idle (animation="dft0")
  6: 0x00CD [0x27] REQ_SET(priority=0x64, entity_id=LocalPlayer, tag_num=0x2C)
  7: 0x00D4 [0x5B] LOAD_EXT_SCHEDULER: Load scheduler "cry0" with entities [EventEntity, EventEntity], work=75*
  8: 0x00E3 [0x55] WAIT_LOAD_SCHEDULER: Wait for scheduler "s036" with entities [LocalPlayer, LocalPlayer], work=131*
  9: 0x00F2 [0x1D] PRINT_EVENT_MESSAGE(message_id=11204*)
    → "Oh, where could he be?"
 10: 0x00F5 [0x23] WAIT_FOR_DIALOG_INTERACTION
 11: 0x00F6 [0x1C] WAIT(60* ticks)
 12: 0x00F9 [0x1D] PRINT_EVENT_MESSAGE(message_id=11205*)
    → "I-I came here with my father, and now he's g-gone!"
 13: 0x00FC [0x23] WAIT_FOR_DIALOG_INTERACTION
 14: 0x00FD [0x1C] WAIT(60* ticks)
 15: 0x0100 [0x45] LOAD_SCHEDULED_TASK: Load scheduler "s037" with entities [LocalPlayer, LocalPlayer], work=[131*, 0*]
 16: 0x0111 [0x1D] PRINT_EVENT_MESSAGE(message_id=11206*)
    → "My father is a knight! Today he's on holiday, and so we went out for a walk. B-but now..."
 17: 0x0114 [0x23] WAIT_FOR_DIALOG_INTERACTION
 18: 0x0115 [0x1C] WAIT(60* ticks)
 19: 0x0118 [0x1D] PRINT_EVENT_MESSAGE(message_id=11207*)
    → "M-my father is so proud of his knighthood, he's still in uniform today. He looks noble indeed, though his armor creaks with each step!"
 20: 0x011B [0x23] WAIT_FOR_DIALOG_INTERACTION
 21: 0x011C [0x1C] WAIT(60* ticks)
 22: 0x011F [0x45] LOAD_SCHEDULED_TASK: Load scheduler "s038" with entities [LocalPlayer, LocalPlayer], work=[131*, 0*]
 23: 0x0130 [0x1D] PRINT_EVENT_MESSAGE(message_id=11208*)
    → "He's not wearing his helmet, though... We came through Victory Arch together but, but now..."
 24: 0x0133 [0x23] WAIT_FOR_DIALOG_INTERACTION
 25: 0x0134 [0x1C] WAIT(60* ticks)
 26: 0x0137 [0x46] CAMERA_CONTROL: Restore default settings
 27: 0x0139 [0x21] END_EVENT
 28: 0x013A [0x00] END_REQSTACK()
```

### Event 509

#### Metadata

| Field        | Value     |
|--------------|-----------|
| Entrypoint   | 0x013B    |
| Data Size    | 906 bytes |
| Instructions | 121       |

```
      00 01 02 03 04 05 06 07  08 09 0A 0B 0C 0D 0E 0F
      -- -- -- -- -- -- -- --  -- -- -- -- -- -- -- --
0130:                                   42 46 01 45 19             BF.E.
0140: 80 F0 FF FF 7F F0 FF FF  7F 66 64 69 31 02 80 45  .........fdi1..E
0150: 1B 80 F0 FF FF 7F F0 FF  FF 7F 73 30 33 36 02 80  ..........s036..
0160: 6B 64 66 74 30 09 70 0E  01 38 1A 80 29 0A 0A 70  kdft0.p..8..)..p
0170: 0E 01 02 27 64 F0 FF FF  7F 2C 55 1B 80 F0 FF FF  ...'d....,U.....
0180: 7F F0 FF FF 7F 73 30 33  36 1E F0 FF FF 7F 6F 70  .....s036.....op
0190: 5B 1C 80 F8 FF FF 7F F8  FF FF 7F 74 6C 6B 30 1D  [..........tlk0.
01A0: 22 80 23 1C 15 80 27 0A  0A 70 0E 01 03 45 1B 80  ".#...'..p...E..
01B0: F0 FF FF 7F F0 FF FF 7F  73 30 33 39 02 80 2A 0A  ........s039..*.
01C0: 0A 70 0E 01 1C 23 80 55  1B 80 F0 FF FF 7F F0 FF  .p...#.U........
01D0: FF 7F 73 30 33 39 66 24  80 F8 FF FF 7F F8 FF FF  ..s039f$........
01E0: 7F 74 6C 6B 30 2B 0A 70  0E 01 25 80 23 27 65 0A  .tlk0+.p..%.#'e.
01F0: 70 0E 01 09 1C 15 80 1E  0A 70 0E 01 27 65 0A 70  p........p..'e.p
0200: 0E 01 04 45 1B 80 F0 FF  FF 7F F0 FF FF 7F 73 30  ...E..........s0
0210: 33 38 02 80 5B 1C 80 F8  FF FF 7F F8 FF FF 7F 74  38..[..........t
0220: 6C 6B 30 1D 26 80 23 4A  F0 FF FF 7F 0A 70 0E 01  lk0.&.#J.....p..
0230: 1C 23 80 45 19 80 F8 FF  FF 7F F8 FF FF 7F 66 64  .#.E..........fd
0240: 6F 31 02 80 1C 11 80 2A  65 0A 70 0E 01 45 1B 80  o1.....*e.p..E..
0250: F0 FF FF 7F F0 FF FF 7F  73 30 34 30 02 80 7B F0  ........s040..{.
0260: FF FF 7F 29 0A 0A 70 0E  01 05 1E 0A 70 0E 01 4E  ...)..p.....p..N
0270: 01 F0 FF FF 7F 45 19 80  F8 FF FF 7F F8 FF FF 7F  .....E..........
0280: 66 64 69 31 02 80 66 24  80 0A 70 0E 01 0A 70 0E  fdi1..f$..p...p.
0290: 01 74 6C 6B 30 2B 0A 70  0E 01 27 80 23 27 65 0A  .tlk0+.p..'.#'e.
02A0: 70 0E 01 09 1C 15 80 5E  63 72 79 30 1C 15 80 45  p......^cry0...E
02B0: 1B 80 F0 FF FF 7F F0 FF  FF 7F 73 30 34 31 02 80  ..........s041..
02C0: 5B 1C 80 F8 FF FF 7F F8  FF FF 7F 74 6C 6B 30 1D  [..........tlk0.
02D0: 28 80 23 6B 69 64 6C 30  09 70 0E 01 1C 15 80 45  (.#kidl0.p.....E
02E0: 1B 80 F0 FF FF 7F F0 FF  FF 7F 73 30 38 39 02 80  ..........s089..
02F0: 66 24 80 0A 70 0E 01 0A  70 0E 01 74 6C 6B 30 2B  f$..p...p..tlk0+
0300: 0A 70 0E 01 29 80 23 27  65 0A 70 0E 01 09 6B 64  .p..).#'e.p...kd
0310: 66 74 30 09 70 0E 01 45  1B 80 F0 FF FF 7F F0 FF  ft0.p..E........
0320: FF 7F 73 30 34 33 02 80  1D 2A 80 23 52 1B 80 F0  ..s043...*.#R...
0330: FF FF 7F F0 FF FF 7F 73  30 34 33 45 1B 80 F0 FF  .......s043E....
0340: FF 7F F0 FF FF 7F 73 30  38 39 02 80 66 24 80 0A  ......s089..f$..
0350: 70 0E 01 0A 70 0E 01 70  6F 69 31 2B 0A 70 0E 01  p...p..poi1+.p..
0360: 2B 80 23 66 24 80 0A 70  0E 01 0A 70 0E 01 70 6F  +.#f$..p...p..po
0370: 69 32 53 0A 70 0E 01 0A  70 0E 01 70 6F 69 32 1C  i2S.p...p..poi2.
0380: 15 80 6B 64 66 74 30 09  70 0E 01 1D 2C 80 23 45  ..kdft0.p...,.#E
0390: 1B 80 F0 FF FF 7F F0 FF  FF 7F 73 30 34 32 02 80  ..........s042..
03A0: 4E 00 F0 FF FF 7F 27 65  0A 70 0E 01 06 2A 65 0A  N.....'e.p...*e.
03B0: 70 0E 01 1C 11 80 4A F0  FF FF 7F 0A 70 0E 01 66  p.....J.....p..f
03C0: 24 80 0A 70 0E 01 0A 70  0E 01 70 61 73 30 2B 0A  $..p...p..pas0+.
03D0: 70 0E 01 2D 80 23 53 0A  70 0E 01 0A 70 0E 01 70  p..-.#S.p...p..p
03E0: 61 73 30 1C 11 80 1E F0  FF FF 7F 6F 70 45 1B 80  as0........opE..
03F0: F0 FF FF 7F F0 FF FF 7F  73 30 33 38 02 80 79 00  ........s038..y.
0400: F0 FF FF 7F 09 70 0E 01  79 00 0A 70 0E 01 09 70  .....p..y..p...p
0410: 0E 01 5B 1C 80 F8 FF FF  7F F8 FF FF 7F 74 6C 6B  ..[..........tlk
0420: 30 1D 2E 80 23 27 65 0A  70 0E 01 07 1E 0A 70 0E  0...#'e.p.....p.
0430: 01 1C 15 80 66 24 80 0A  70 0E 01 0A 70 0E 01 74  ....f$..p...p..t
0440: 6C 6B 30 2B 0A 70 0E 01  2F 80 23 6B 69 64 6C 30  lk0+.p../.#kidl0
0450: 09 70 0E 01 7B 0A 70 0E  01 7B F0 FF FF 7F 27 65  .p..{.p..{....'e
0460: 0A 70 0E 01 09 2A 65 0A  70 0E 01 27 65 0A 70 0E  .p...*e.p..'e.p.
0470: 01 08 1C 11 80 6B 64 66  74 30 09 70 0E 01 1C 11  .....kdft0.p....
0480: 80 1D 30 80 23 45 19 80  F8 FF FF 7F F8 FF FF 7F  ..0.#E..........
0490: 66 64 6F 31 02 80 1C 11  80 2A 65 0A 70 0E 01 45  fdo1.....*e.p..E
04A0: 19 80 F8 FF FF 7F F8 FF  FF 7F 66 64 69 31 02 80  ..........fdi1..
04B0: 45 31 80 F0 FF FF 7F F0  FF FF 7F 71 73 74 63 02  E1.........qstc.
04C0: 80 46 00 21 00                                    .F.!.           
```

#### Opcodes

```
  0: 0x013B [0x42] SET_CLI_EVENT_CANCEL_DATA()
  1: 0x013C [0x46] CAMERA_CONTROL: Disable user control
  2: 0x013E [0x45] LOAD_SCHEDULED_TASK: Load scheduler "fdi1" with entities [LocalPlayer, LocalPlayer], work=[200*, 0*]
  3: 0x014F [0x45] LOAD_SCHEDULED_TASK: Load scheduler "s036" with entities [LocalPlayer, LocalPlayer], work=[131*, 0*]
  4: 0x0160 [0x6B] STOP_AND_IDLE: Ailbeche (ID: 17723401/0x010E7009) stops current action and resets to idle (animation="dft0")
  5: 0x0169 [0x38] SET_CLIENT_EVENT_MODE(mode=3*)
  6: 0x016C [0x29] REQ_SET_WAIT(priority=0x0A, entity_id=Exoroche (ID: 17723402/0x010E700A), tag_num=0x02)
  7: 0x0173 [0x27] REQ_SET(priority=0x64, entity_id=LocalPlayer, tag_num=0x2C)
  8: 0x017A [0x55] WAIT_LOAD_SCHEDULER: Wait for scheduler "s036" with entities [LocalPlayer, LocalPlayer], work=131*
  9: 0x0189 [0x1E] EventEntity looks at LocalPlayer and starts talking
 10: 0x018E [0x6F] WAIT_FRAME_DELAY: Yield until WaitTime reaches zero
 11: 0x018F [0x70] WAIT_ENTITY_RENDER_FLAG: Wait while EventEntity->Render.Flags3 bit 2 is set (cancel turn if not)
 12: 0x0190 [0x5B] LOAD_EXT_SCHEDULER: Load scheduler "tlk0" with entities [EventEntity, EventEntity], work=75*
 13: 0x019F [0x1D] PRINT_EVENT_MESSAGE(message_id=11211*)
    → "What? Y-you found my father?"
 14: 0x01A2 [0x23] WAIT_FOR_DIALOG_INTERACTION
 15: 0x01A3 [0x1C] WAIT(30* ticks)
 16: 0x01A6 [0x27] REQ_SET(priority=0x0A, entity_id=Exoroche (ID: 17723402/0x010E700A), tag_num=0x03)
 17: 0x01AD [0x45] LOAD_SCHEDULED_TASK: Load scheduler "s039" with entities [LocalPlayer, LocalPlayer], work=[131*, 0*]
 18: 0x01BE [0x2A] GET_REQ_LEVEL(level=10, entity_id=Exoroche (ID: 17723402/0x010E700A))
 19: 0x01C4 [0x1C] WAIT(100* ticks)
 20: 0x01C7 [0x55] WAIT_LOAD_SCHEDULER: Wait for scheduler "s039" with entities [LocalPlayer, LocalPlayer], work=131*
 21: 0x01D6 [0x66] LOAD_EXT_SCHEDULER_MAIN: Load scheduler "tlk0" with entities [EventEntity, EventEntity], work=20*
 22: 0x01E5 [0x2B] Exoroche (ID: 17723402/0x010E700A) [11212*]:
    → "Ailbeche?"
 23: 0x01EC [0x23] WAIT_FOR_DIALOG_INTERACTION
 24: 0x01ED [0x27] REQ_SET(priority=0x65, entity_id=Exoroche (ID: 17723402/0x010E700A), tag_num=0x09)
 25: 0x01F4 [0x1C] WAIT(30* ticks)
 26: 0x01F7 [0x1E] EventEntity looks at Exoroche (ID: 17723402/0x010E700A) and starts talking
 27: 0x01FC [0x27] REQ_SET(priority=0x65, entity_id=Exoroche (ID: 17723402/0x010E700A), tag_num=0x04)
 28: 0x0203 [0x45] LOAD_SCHEDULED_TASK: Load scheduler "s038" with entities [LocalPlayer, LocalPlayer], work=[131*, 0*]
 29: 0x0214 [0x5B] LOAD_EXT_SCHEDULER: Load scheduler "tlk0" with entities [EventEntity, EventEntity], work=75*
 30: 0x0223 [0x1D] PRINT_EVENT_MESSAGE(message_id=11213*)
    → "Father?"
 31: 0x0226 [0x23] WAIT_FOR_DIALOG_INTERACTION
 32: 0x0227 [0x4A] LocalPlayer looks at Exoroche (ID: 17723402/0x010E700A)
 33: 0x0230 [0x1C] WAIT(100* ticks)
 34: 0x0233 [0x45] LOAD_SCHEDULED_TASK: Load scheduler "fdo1" with entities [EventEntity, EventEntity], work=[200*, 0*]
 35: 0x0244 [0x1C] WAIT(60* ticks)
 36: 0x0247 [0x2A] GET_REQ_LEVEL(level=101, entity_id=Exoroche (ID: 17723402/0x010E700A))
 37: 0x024D [0x45] LOAD_SCHEDULED_TASK: Load scheduler "s040" with entities [LocalPlayer, LocalPlayer], work=[131*, 0*]
 38: 0x025E [0x7B] LocalPlayer stops talking
 39: 0x0263 [0x29] REQ_SET_WAIT(priority=0x0A, entity_id=Exoroche (ID: 17723402/0x010E700A), tag_num=0x05)
 40: 0x026A [0x1E] EventEntity looks at Exoroche (ID: 17723402/0x010E700A) and starts talking
 41: 0x026F [0x4E] SET_ENTITY_HIDE_FLAG: Hide LocalPlayer
 42: 0x0275 [0x45] LOAD_SCHEDULED_TASK: Load scheduler "fdi1" with entities [EventEntity, EventEntity], work=[200*, 0*]
 43: 0x0286 [0x66] LOAD_EXT_SCHEDULER_MAIN: Load scheduler "tlk0" with entities [Exoroche (ID: 17723402/0x010E700A), Exoroche (ID: 17723402/0x010E700A)], work=20*
 44: 0x0295 [0x2B] Exoroche (ID: 17723402/0x010E700A) [11214*]:
    → "Why, you milksop! Lose sight of your father and all you do is wail for the nearest stranger? Have you no shame?"
 45: 0x029C [0x23] WAIT_FOR_DIALOG_INTERACTION
 46: 0x029D [0x27] REQ_SET(priority=0x65, entity_id=Exoroche (ID: 17723402/0x010E700A), tag_num=0x09)
 47: 0x02A4 [0x1C] WAIT(30* ticks)
 48: 0x02A7 [0x5E] EventEntity goes idle (kills current action) (animation: "cry0")
 49: 0x02AC [0x1C] WAIT(30* ticks)
 50: 0x02AF [0x45] LOAD_SCHEDULED_TASK: Load scheduler "s041" with entities [LocalPlayer, LocalPlayer], work=[131*, 0*]
 51: 0x02C0 [0x5B] LOAD_EXT_SCHEDULER: Load scheduler "tlk0" with entities [EventEntity, EventEntity], work=75*
 52: 0x02CF [0x1D] PRINT_EVENT_MESSAGE(message_id=11215*)
    → "B-but, Father..."
 53: 0x02D2 [0x23] WAIT_FOR_DIALOG_INTERACTION
 54: 0x02D3 [0x6B] STOP_AND_IDLE: Ailbeche (ID: 17723401/0x010E7009) stops current action and resets to idle (animation="idl0")
 55: 0x02DC [0x1C] WAIT(30* ticks)
 56: 0x02DF [0x45] LOAD_SCHEDULED_TASK: Load scheduler "s089" with entities [LocalPlayer, LocalPlayer], work=[131*, 0*]
 57: 0x02F0 [0x66] LOAD_EXT_SCHEDULER_MAIN: Load scheduler "tlk0" with entities [Exoroche (ID: 17723402/0x010E700A), Exoroche (ID: 17723402/0x010E700A)], work=20*
 58: 0x02FF [0x2B] Exoroche (ID: 17723402/0x010E700A) [11216*]:
    → "Enough! You are Elvaan! I expect more from you! Understand?"
 59: 0x0306 [0x23] WAIT_FOR_DIALOG_INTERACTION
 60: 0x0307 [0x27] REQ_SET(priority=0x65, entity_id=Exoroche (ID: 17723402/0x010E700A), tag_num=0x09)
 61: 0x030E [0x6B] STOP_AND_IDLE: Ailbeche (ID: 17723401/0x010E7009) stops current action and resets to idle (animation="dft0")
 62: 0x0317 [0x45] LOAD_SCHEDULED_TASK: Load scheduler "s043" with entities [LocalPlayer, LocalPlayer], work=[131*, 0*]
 63: 0x0328 [0x1D] PRINT_EVENT_MESSAGE(message_id=11217*)
    → "B-but, Father! No..."
 64: 0x032B [0x23] WAIT_FOR_DIALOG_INTERACTION
 65: 0x032C [0x52] END_LOAD_SCHEDULER: End scheduler "s043" with entities [LocalPlayer, LocalPlayer], work=131*
 66: 0x033B [0x45] LOAD_SCHEDULED_TASK: Load scheduler "s089" with entities [LocalPlayer, LocalPlayer], work=[131*, 0*]
 67: 0x034C [0x66] LOAD_EXT_SCHEDULER_MAIN: Load scheduler "poi1" with entities [Exoroche (ID: 17723402/0x010E700A), Exoroche (ID: 17723402/0x010E700A)], work=20*
 68: 0x035B [0x2B] Exoroche (ID: 17723402/0x010E700A) [11218*]:
    → "I'll forge you into shape yet! Now, stand there till you get a hold of yourself!"
 69: 0x0362 [0x23] WAIT_FOR_DIALOG_INTERACTION
 70: 0x0363 [0x66] LOAD_EXT_SCHEDULER_MAIN: Load scheduler "poi2" with entities [Exoroche (ID: 17723402/0x010E700A), Exoroche (ID: 17723402/0x010E700A)], work=20*
 71: 0x0372 [0x53] WAIT_SCHEDULER_TASK: Wait for scheduler "poi2" with entities [Exoroche (ID: 17723402/0x010E700A), Exoroche (ID: 17723402/0x010E700A)]
 72: 0x037F [0x1C] WAIT(30* ticks)
 73: 0x0382 [0x6B] STOP_AND_IDLE: Ailbeche (ID: 17723401/0x010E7009) stops current action and resets to idle (animation="dft0")
 74: 0x038B [0x1D] PRINT_EVENT_MESSAGE(message_id=12095*)
    → "F-Father... How could you!"
 75: 0x038E [0x23] WAIT_FOR_DIALOG_INTERACTION
 76: 0x038F [0x45] LOAD_SCHEDULED_TASK: Load scheduler "s042" with entities [LocalPlayer, LocalPlayer], work=[131*, 0*]
 77: 0x03A0 [0x4E] SET_ENTITY_HIDE_FLAG: Show LocalPlayer
 78: 0x03A6 [0x27] REQ_SET(priority=0x65, entity_id=Exoroche (ID: 17723402/0x010E700A), tag_num=0x06)
 79: 0x03AD [0x2A] GET_REQ_LEVEL(level=101, entity_id=Exoroche (ID: 17723402/0x010E700A))
 80: 0x03B3 [0x1C] WAIT(60* ticks)
 81: 0x03B6 [0x4A] LocalPlayer looks at Exoroche (ID: 17723402/0x010E700A)
 82: 0x03BF [0x66] LOAD_EXT_SCHEDULER_MAIN: Load scheduler "pas0" with entities [Exoroche (ID: 17723402/0x010E700A), Exoroche (ID: 17723402/0x010E700A)], work=20*
 83: 0x03CE [0x2B] Exoroche (ID: 17723402/0x010E700A) [11220*]:
    → "Let me apologize for my son. Please accept this in return for your time."
 84: 0x03D5 [0x23] WAIT_FOR_DIALOG_INTERACTION
 85: 0x03D6 [0x53] WAIT_SCHEDULER_TASK: Wait for scheduler "pas0" with entities [Exoroche (ID: 17723402/0x010E700A), Exoroche (ID: 17723402/0x010E700A)]
 86: 0x03E3 [0x1C] WAIT(60* ticks)
 87: 0x03E6 [0x1E] EventEntity looks at LocalPlayer and starts talking
 88: 0x03EB [0x6F] WAIT_FRAME_DELAY: Yield until WaitTime reaches zero
 89: 0x03EC [0x70] WAIT_ENTITY_RENDER_FLAG: Wait while EventEntity->Render.Flags3 bit 2 is set (cancel turn if not)
 90: 0x03ED [0x45] LOAD_SCHEDULED_TASK: Load scheduler "s038" with entities [LocalPlayer, LocalPlayer], work=[131*, 0*]
 91: 0x03FE [0x79] LocalPlayer looks at Ailbeche (ID: 17723401/0x010E7009) (Basic look)
 92: 0x0408 [0x79] Exoroche (ID: 17723402/0x010E700A) looks at Ailbeche (ID: 17723401/0x010E7009) (Basic look)
 93: 0x0412 [0x5B] LOAD_EXT_SCHEDULER: Load scheduler "tlk0" with entities [EventEntity, EventEntity], work=75*
 94: 0x0421 [0x1D] PRINT_EVENT_MESSAGE(message_id=11221*)
    → "No! Th-that's my fishing rod... Father!"
 95: 0x0424 [0x23] WAIT_FOR_DIALOG_INTERACTION
 96: 0x0425 [0x27] REQ_SET(priority=0x65, entity_id=Exoroche (ID: 17723402/0x010E700A), tag_num=0x07)
 97: 0x042C [0x1E] EventEntity looks at Exoroche (ID: 17723402/0x010E700A) and starts talking
 98: 0x0431 [0x1C] WAIT(30* ticks)
 99: 0x0434 [0x66] LOAD_EXT_SCHEDULER_MAIN: Load scheduler "tlk0" with entities [Exoroche (ID: 17723402/0x010E700A), Exoroche (ID: 17723402/0x010E700A)], work=20*
100: 0x0443 [0x2B] Exoroche (ID: 17723402/0x010E700A) [11222*]:
    → "Quiet! I will not have my own son cry like a baby!"
101: 0x044A [0x23] WAIT_FOR_DIALOG_INTERACTION
102: 0x044B [0x6B] STOP_AND_IDLE: Ailbeche (ID: 17723401/0x010E7009) stops current action and resets to idle (animation="idl0")
103: 0x0454 [0x7B] Exoroche (ID: 17723402/0x010E700A) stops talking
104: 0x0459 [0x7B] LocalPlayer stops talking
105: 0x045E [0x27] REQ_SET(priority=0x65, entity_id=Exoroche (ID: 17723402/0x010E700A), tag_num=0x09)
106: 0x0465 [0x2A] GET_REQ_LEVEL(level=101, entity_id=Exoroche (ID: 17723402/0x010E700A))
107: 0x046B [0x27] REQ_SET(priority=0x65, entity_id=Exoroche (ID: 17723402/0x010E700A), tag_num=0x08)
108: 0x0472 [0x1C] WAIT(60* ticks)
109: 0x0475 [0x6B] STOP_AND_IDLE: Ailbeche (ID: 17723401/0x010E7009) stops current action and resets to idle (animation="dft0")
110: 0x047E [0x1C] WAIT(60* ticks)
111: 0x0481 [0x1D] PRINT_EVENT_MESSAGE(message_id=11219*)
    → "No, Father! Don't leave me!"
112: 0x0484 [0x23] WAIT_FOR_DIALOG_INTERACTION
113: 0x0485 [0x45] LOAD_SCHEDULED_TASK: Load scheduler "fdo1" with entities [EventEntity, EventEntity], work=[200*, 0*]
114: 0x0496 [0x1C] WAIT(60* ticks)
115: 0x0499 [0x2A] GET_REQ_LEVEL(level=101, entity_id=Exoroche (ID: 17723402/0x010E700A))
116: 0x049F [0x45] LOAD_SCHEDULED_TASK: Load scheduler "fdi1" with entities [EventEntity, EventEntity], work=[200*, 0*]
117: 0x04B0 [0x45] LOAD_SCHEDULED_TASK: Load scheduler "qstc" with entities [LocalPlayer, LocalPlayer], work=[201*, 0*]
118: 0x04C1 [0x46] CAMERA_CONTROL: Restore default settings
119: 0x04C3 [0x21] END_EVENT
120: 0x04C4 [0x00] END_REQSTACK()
```

### Event 61

#### Metadata

| Field        | Value   |
|--------------|---------|
| Entrypoint   | 0x04C5  |
| Data Size    | 1 bytes |
| Instructions | 1       |

```
      00 01 02 03 04 05 06 07  08 09 0A 0B 0C 0D 0E 0F
      -- -- -- -- -- -- -- --  -- -- -- -- -- -- -- --
04C0:                00                                      .          
```

#### Opcodes

```
  0: 0x04C5 [0x00] END_REQSTACK()
```

### Event 45

#### Metadata

| Field        | Value    |
|--------------|----------|
| Entrypoint   | 0x04C6   |
| Data Size    | 45 bytes |
| Instructions | 13       |

```
      00 01 02 03 04 05 06 07  08 09 0A 0B 0C 0D 0E 0F
      -- -- -- -- -- -- -- --  -- -- -- -- -- -- -- --
04C0:                   1E F0  FF FF 7F 6F 70 5B 1C 80        .....op[..
04D0: F8 FF FF 7F F8 FF FF 7F  74 6C 6B 30 03 02 10 32  ........tlk0...2
04E0: 80 1D 33 80 23 1D 34 80  23 5E 69 64 6C 30 1A 20  ..3.#.4.#^idl0. 
04F0: 05 21 00                                          .!.             
```

#### Opcodes

```
  0: 0x04C6 [0x1E] EventEntity looks at LocalPlayer and starts talking
  1: 0x04CB [0x6F] WAIT_FRAME_DELAY: Yield until WaitTime reaches zero
  2: 0x04CC [0x70] WAIT_ENTITY_RENDER_FLAG: Wait while EventEntity->Render.Flags3 bit 2 is set (cancel turn if not)
  3: 0x04CD [0x5B] LOAD_EXT_SCHEDULER: Load scheduler "tlk0" with entities [EventEntity, EventEntity], work=75*
  4: 0x04DC [0x03] Work_Zone[2] = 233*
  5: 0x04E1 [0x1D] PRINT_EVENT_MESSAGE(message_id=12414*)
    → "Thank you for the fishing rod! By the way, there is something else I wish to ask of you."
  6: 0x04E4 [0x23] WAIT_FOR_DIALOG_INTERACTION
  7: 0x04E5 [0x1D] PRINT_EVENT_MESSAGE(message_id=12416*)
    → "I need $6 from Ordelle's Caves. I must have it in order to sharpen a certain sword."
  8: 0x04E8 [0x23] WAIT_FOR_DIALOG_INTERACTION
  9: 0x04E9 [0x5E] EventEntity goes idle (kills current action) (animation: "idl0")
 10: 0x04EE [0x1A] CALL_SUBROUTINE(address=0x0520)
 11: 0x04F1 [0x21] END_EVENT
 12: 0x04F2 [0x00] END_REQSTACK()
```

### Event 43

#### Metadata

| Field        | Value     |
|--------------|-----------|
| Entrypoint   | 0x04F3    |
| Data Size    | 133 bytes |
| Instructions | 31        |

```
      00 01 02 03 04 05 06 07  08 09 0A 0B 0C 0D 0E 0F
      -- -- -- -- -- -- -- --  -- -- -- -- -- -- -- --
04F0:          1E F0 FF FF 7F  6F 70 5B 1C 80 F8 FF FF     .....op[.....
0500: 7F F8 FF FF 7F 74 6C 6B  30 03 02 10 32 80 1D 35  .....tlk0...2..5
0510: 80 23 1D 34 80 23 5E 69  64 6C 30 1A 20 05 21 00  .#.4.#^idl0. .!.
0520: 06 01 10 42 24 36 80 03  80 02 80 25 02 00 10 02  ...B$6.....%....
0530: 80 00 54 05 5B 1C 80 F8  FF FF 7F F8 FF FF 7F 74  ..T.[..........t
0540: 6C 6B 30 1D 37 80 23 03  01 10 03 80 5E 69 64 6C  lk0.7.#.....^idl
0550: 30 01 77 05 02 00 10 03  80 00 77 05 5B 1C 80 F8  0.w.......w.[...
0560: FF FF 7F F8 FF FF 7F 74  6C 6B 30 1D 38 80 23 5E  .......tlk0.8.#^
0570: 69 64 6C 30 01 77 05 1B                           idl0.w..        
```

#### Opcodes

```
  0: 0x04F3 [0x1E] EventEntity looks at LocalPlayer and starts talking
  1: 0x04F8 [0x6F] WAIT_FRAME_DELAY: Yield until WaitTime reaches zero
  2: 0x04F9 [0x70] WAIT_ENTITY_RENDER_FLAG: Wait while EventEntity->Render.Flags3 bit 2 is set (cancel turn if not)
  3: 0x04FA [0x5B] LOAD_EXT_SCHEDULER: Load scheduler "tlk0" with entities [EventEntity, EventEntity], work=75*
  4: 0x0509 [0x03] Work_Zone[2] = 233*
  5: 0x050E [0x1D] PRINT_EVENT_MESSAGE(message_id=12415*)
    → "Would you please do me this favor?"
  6: 0x0511 [0x23] WAIT_FOR_DIALOG_INTERACTION
  7: 0x0512 [0x1D] PRINT_EVENT_MESSAGE(message_id=12416*)
    → "I need $6 from Ordelle's Caves. I must have it in order to sharpen a certain sword."
  8: 0x0515 [0x23] WAIT_FOR_DIALOG_INTERACTION
  9: 0x0516 [0x5E] EventEntity goes idle (kills current action) (animation: "idl0")
 10: 0x051B [0x1A] CALL_SUBROUTINE(address=0x0520)
 11: 0x051E [0x21] END_EVENT
 12: 0x051F [0x00] END_REQSTACK()

SUBROUTINE_0520:
 13: 0x0520 [0x06] Work_Zone[1] = 0
 14: 0x0523 [0x42] SET_CLI_EVENT_CANCEL_DATA()
 15: 0x0524 [0x24] CREATE_DIALOG(message_id=12417*, default_option=1*, option_flags=0*)
    → "What do you say? [I'll do my best./I can't right now.]"
 16: 0x052B [0x25] WAIT_DIALOG_SELECT()
 17: 0x052C [0x02] IF !(Work_Zone[0] == 0*) GOTO 0x0554
 18: 0x0534 [0x5B] LOAD_EXT_SCHEDULER: Load scheduler "tlk0" with entities [EventEntity, EventEntity], work=75*
 19: 0x0543 [0x1D] PRINT_EVENT_MESSAGE(message_id=12418*)
    → "Wonderful! I wish I could tell you where it could be found. Try asking someone who often sharpens blades."
 20: 0x0546 [0x23] WAIT_FOR_DIALOG_INTERACTION
 21: 0x0547 [0x03] Work_Zone[1] = 1*
 22: 0x054C [0x5E] EventEntity goes idle (kills current action) (animation: "idl0")
 23: 0x0551 [0x01] GOTO 0x0577
 24: 0x0554 [0x02] IF !(Work_Zone[0] == 1*) GOTO 0x0577
 25: 0x055C [0x5B] LOAD_EXT_SCHEDULER: Load scheduler "tlk0" with entities [EventEntity, EventEntity], work=75*
 26: 0x056B [0x1D] PRINT_EVENT_MESSAGE(message_id=12419*)
    → "That is all right. I have troubled you enough. Perhaps I will ask someone else."
 27: 0x056E [0x23] WAIT_FOR_DIALOG_INTERACTION
 28: 0x056F [0x5E] EventEntity goes idle (kills current action) (animation: "idl0")
 29: 0x0574 [0x01] GOTO 0x0577

SUBROUTINE_0577:
 30: 0x0577 [0x1B] RETURN
```

### Event 42

#### Metadata

| Field        | Value    |
|--------------|----------|
| Entrypoint   | 0x0578   |
| Data Size    | 38 bytes |
| Instructions | 10       |

```
      00 01 02 03 04 05 06 07  08 09 0A 0B 0C 0D 0E 0F
      -- -- -- -- -- -- -- --  -- -- -- -- -- -- -- --
0570:                          1E F0 FF FF 7F 6F 70 03          .....op.
0580: 02 10 32 80 5B 1C 80 F8  FF FF 7F F8 FF FF 7F 74  ..2.[..........t
0590: 6C 6B 30 1D 39 80 23 5E  69 64 6C 30 21 00        lk0.9.#^idl0!.  
```

#### Opcodes

```
  0: 0x0578 [0x1E] EventEntity looks at LocalPlayer and starts talking
  1: 0x057D [0x6F] WAIT_FRAME_DELAY: Yield until WaitTime reaches zero
  2: 0x057E [0x70] WAIT_ENTITY_RENDER_FLAG: Wait while EventEntity->Render.Flags3 bit 2 is set (cancel turn if not)
  3: 0x057F [0x03] Work_Zone[2] = 233*
  4: 0x0584 [0x5B] LOAD_EXT_SCHEDULER: Load scheduler "tlk0" with entities [EventEntity, EventEntity], work=75*
  5: 0x0593 [0x1D] PRINT_EVENT_MESSAGE(message_id=12420*)
    → "I wish I could tell you where $6 is inside the caves. Try asking someone who often sharpens blades."
  6: 0x0596 [0x23] WAIT_FOR_DIALOG_INTERACTION
  7: 0x0597 [0x5E] EventEntity goes idle (kills current action) (animation: "idl0")
  8: 0x059C [0x21] END_EVENT
  9: 0x059D [0x00] END_REQSTACK()
```

### Event 44

#### Metadata

| Field        | Value    |
|--------------|----------|
| Entrypoint   | 0x059E   |
| Data Size    | 74 bytes |
| Instructions | 12       |

```
      00 01 02 03 04 05 06 07  08 09 0A 0B 0C 0D 0E 0F
      -- -- -- -- -- -- -- --  -- -- -- -- -- -- -- --
0590:                                            42 1E                B.
05A0: F0 FF FF 7F 6F 70 5B 1C  80 F8 FF FF 7F F8 FF FF  ....op[.........
05B0: 7F 74 6C 6B 30 1D 3A 80  23 5B 1C 80 F8 FF FF 7F  .tlk0.:.#[......
05C0: F8 FF FF 7F 70 61 73 30  53 F8 FF FF 7F F8 FF FF  ....pas0S.......
05D0: 7F 70 61 73 30 45 31 80  F0 FF FF 7F F0 FF FF 7F  .pas0E1.........
05E0: 71 73 74 63 02 80 21 00                           qstc..!.        
```

#### Opcodes

```
  0: 0x059E [0x42] SET_CLI_EVENT_CANCEL_DATA()
  1: 0x059F [0x1E] EventEntity looks at LocalPlayer and starts talking
  2: 0x05A4 [0x6F] WAIT_FRAME_DELAY: Yield until WaitTime reaches zero
  3: 0x05A5 [0x70] WAIT_ENTITY_RENDER_FLAG: Wait while EventEntity->Render.Flags3 bit 2 is set (cancel turn if not)
  4: 0x05A6 [0x5B] LOAD_EXT_SCHEDULER: Load scheduler "tlk0" with entities [EventEntity, EventEntity], work=75*
  5: 0x05B5 [0x1D] PRINT_EVENT_MESSAGE(message_id=12421*)
    → "Thank you. Here, this is for you. I snatched it from my father's chest. He won't notice if one goes missing. And besides, I'll be sharpening this blade for him!"
  6: 0x05B8 [0x23] WAIT_FOR_DIALOG_INTERACTION
  7: 0x05B9 [0x5B] LOAD_EXT_SCHEDULER: Load scheduler "pas0" with entities [EventEntity, EventEntity], work=75*
  8: 0x05C8 [0x53] WAIT_SCHEDULER_TASK: Wait for scheduler "pas0" with entities [EventEntity, EventEntity]
  9: 0x05D5 [0x45] LOAD_SCHEDULED_TASK: Load scheduler "qstc" with entities [LocalPlayer, LocalPlayer], work=[201*, 0*]
 10: 0x05E6 [0x21] END_EVENT
 11: 0x05E7 [0x00] END_REQSTACK()
```

### Event 41

#### Metadata

| Field        | Value   |
|--------------|---------|
| Entrypoint   | 0x05E8  |
| Data Size    | 1 bytes |
| Instructions | 1       |

```
      00 01 02 03 04 05 06 07  08 09 0A 0B 0C 0D 0E 0F
      -- -- -- -- -- -- -- --  -- -- -- -- -- -- -- --
05E0:                          00                               .       
```

#### Opcodes

```
  0: 0x05E8 [0x00] END_REQSTACK()
```

### Event 40

#### Metadata

| Field        | Value   |
|--------------|---------|
| Entrypoint   | 0x05E9  |
| Data Size    | 1 bytes |
| Instructions | 1       |

```
      00 01 02 03 04 05 06 07  08 09 0A 0B 0C 0D 0E 0F
      -- -- -- -- -- -- -- --  -- -- -- -- -- -- -- --
05E0:                             00                             .      
```

#### Opcodes

```
  0: 0x05E9 [0x00] END_REQSTACK()
```

### Event 46

#### Metadata

| Field        | Value    |
|--------------|----------|
| Entrypoint   | 0x05EA   |
| Data Size    | 10 bytes |
| Instructions | 4        |

```
      00 01 02 03 04 05 06 07  08 09 0A 0B 0C 0D 0E 0F
      -- -- -- -- -- -- -- --  -- -- -- -- -- -- -- --
05E0:                                2B 09 70 0E 01 3B            +.p..;
05F0: 80 23 21 00                                       .#!.            
```

#### Opcodes

```
  0: 0x05EA [0x2B] Ailbeche (ID: 17723401/0x010E7009) [12458*]:
    → "Oh, how I wish that Father was more like Vilbert. He wouldn't give one up, even if I asked."
  1: 0x05F1 [0x23] WAIT_FOR_DIALOG_INTERACTION
  2: 0x05F2 [0x21] END_EVENT
  3: 0x05F3 [0x00] END_REQSTACK()
```

### Event 39

#### Metadata

| Field        | Value    |
|--------------|----------|
| Entrypoint   | 0x05F4   |
| Data Size    | 77 bytes |
| Instructions | 19       |

```
      00 01 02 03 04 05 06 07  08 09 0A 0B 0C 0D 0E 0F
      -- -- -- -- -- -- -- --  -- -- -- -- -- -- -- --
05F0:             1E F0 FF FF  7F 6F 70 5B 1C 80 F8 FF      .....op[....
0600: FF 7F F8 FF FF 7F 74 6C  6B 30 03 02 10 3C 80 2B  ......tlk0...<.+
0610: 09 70 0E 01 3D 80 23 2B  09 70 0E 01 3E 80 23 2B  .p..=.#+.p..>.#+
0620: 09 70 0E 01 3F 80 23 2B  09 70 0E 01 40 80 23 2B  .p..?.#+.p..@.#+
0630: 09 70 0E 01 41 80 23 2B  09 70 0E 01 42 80 23 21  .p..A.#+.p..B.#!
0640: 00                                                .               
```

#### Opcodes

```
  0: 0x05F4 [0x1E] EventEntity looks at LocalPlayer and starts talking
  1: 0x05F9 [0x6F] WAIT_FRAME_DELAY: Yield until WaitTime reaches zero
  2: 0x05FA [0x70] WAIT_ENTITY_RENDER_FLAG: Wait while EventEntity->Render.Flags3 bit 2 is set (cancel turn if not)
  3: 0x05FB [0x5B] LOAD_EXT_SCHEDULER: Load scheduler "tlk0" with entities [EventEntity, EventEntity], work=75*
  4: 0x060A [0x03] Work_Zone[2] = 17001*
  5: 0x060F [0x2B] Ailbeche (ID: 17723401/0x010E7009) [12459*]:
    → "Oh, I knew he would say no. Long ago, Father was not like this."
  6: 0x0616 [0x23] WAIT_FOR_DIALOG_INTERACTION
  7: 0x0617 [0x2B] Ailbeche (ID: 17723401/0x010E7009) [12460*]:
    → "You see, my mother was killed by Orcs. My father was there, but he couldn't save her."
  8: 0x061E [0x23] WAIT_FOR_DIALOG_INTERACTION
  9: 0x061F [0x2B] Ailbeche (ID: 17723401/0x010E7009) [12461*]:
    → "He blamed her death on the quality of his armor and weapons. He gave up practicing swordsmanship every morning, and spends all his time scouring the shops for equipment."
 10: 0x0626 [0x23] WAIT_FOR_DIALOG_INTERACTION
 11: 0x0627 [0x2B] Ailbeche (ID: 17723401/0x010E7009) [12462*]:
    → "He is needed in the expeditions, but always he declines due to a supposed sickness or insufficiencies in equipment. I fear he will lose his rank as captain."
 12: 0x062E [0x23] WAIT_FOR_DIALOG_INTERACTION
 13: 0x062F [0x2B] Ailbeche (ID: 17723401/0x010E7009) [12463*]:
    → "I am sure a knight of my father's stature could soon get me $0. How can I go fishing now?"
 14: 0x0636 [0x23] WAIT_FOR_DIALOG_INTERACTION
 15: 0x0637 [0x2B] Ailbeche (ID: 17723401/0x010E7009) [12464*]:
    → "Oh, $0 can only be found in the Crawlers' Nest. And such a quest is beyond me! I wonder how I could get one..."
 16: 0x063E [0x23] WAIT_FOR_DIALOG_INTERACTION
 17: 0x063F [0x21] END_EVENT
 18: 0x0640 [0x00] END_REQSTACK()
```

### Event 15

#### Metadata

| Field        | Value   |
|--------------|---------|
| Entrypoint   | 0x0641  |
| Data Size    | 1 bytes |
| Instructions | 1       |

```
      00 01 02 03 04 05 06 07  08 09 0A 0B 0C 0D 0E 0F
      -- -- -- -- -- -- -- --  -- -- -- -- -- -- -- --
0640:    00                                              .              
```

#### Opcodes

```
  0: 0x0641 [0x00] END_REQSTACK()
```

### Event 60

#### Metadata

| Field        | Value   |
|--------------|---------|
| Entrypoint   | 0x0642  |
| Data Size    | 1 bytes |
| Instructions | 1       |

```
      00 01 02 03 04 05 06 07  08 09 0A 0B 0C 0D 0E 0F
      -- -- -- -- -- -- -- --  -- -- -- -- -- -- -- --
0640:       00                                            .             
```

#### Opcodes

```
  0: 0x0642 [0x00] END_REQSTACK()
```

### Event 47

#### Metadata

| Field        | Value    |
|--------------|----------|
| Entrypoint   | 0x0643   |
| Data Size    | 34 bytes |
| Instructions | 11       |

```
      00 01 02 03 04 05 06 07  08 09 0A 0B 0C 0D 0E 0F
      -- -- -- -- -- -- -- --  -- -- -- -- -- -- -- --
0640:          20 01 1E F0 FF  FF 7F 6F 70 5B 1C 80 F8      ......op[...
0650: FF FF 7F F8 FF FF 7F 74  6C 6B 30 1D 43 80 23 1D  .......tlk0.C.#.
0660: 44 80 23 21 00                                    D.#!.           
```

#### Opcodes

```
  0: 0x0643 [0x20] SET_CLI_EVENT_UC_FLAG: Lock player control
  1: 0x0645 [0x1E] EventEntity looks at LocalPlayer and starts talking
  2: 0x064A [0x6F] WAIT_FRAME_DELAY: Yield until WaitTime reaches zero
  3: 0x064B [0x70] WAIT_ENTITY_RENDER_FLAG: Wait while EventEntity->Render.Flags3 bit 2 is set (cancel turn if not)
  4: 0x064C [0x5B] LOAD_EXT_SCHEDULER: Load scheduler "tlk0" with entities [EventEntity, EventEntity], work=75*
  5: 0x065B [0x1D] PRINT_EVENT_MESSAGE(message_id=12478*)
    → "What? You caught the big one? Amazing! I doubt I could have done the same."
  6: 0x065E [0x23] WAIT_FOR_DIALOG_INTERACTION
  7: 0x065F [0x1D] PRINT_EVENT_MESSAGE(message_id=12479*)
    → "Now, hurry and get it cleaned! I have heard of an expert fisherman in Selbina. You should find him and ask him!"
  8: 0x0662 [0x23] WAIT_FOR_DIALOG_INTERACTION
  9: 0x0663 [0x21] END_EVENT
 10: 0x0664 [0x00] END_REQSTACK()
```

### Event 25

#### Metadata

| Field        | Value    |
|--------------|----------|
| Entrypoint   | 0x0665   |
| Data Size    | 20 bytes |
| Instructions | 6        |

```
      00 01 02 03 04 05 06 07  08 09 0A 0B 0C 0D 0E 0F
      -- -- -- -- -- -- -- --  -- -- -- -- -- -- -- --
0660:                1E F0 FF  FF 7F 03 09 10 8B 7F 2B       ..........+
0670: 09 70 0E 01 45 80 23 21  00                       .p..E.#!.       
```

#### Opcodes

```
  0: 0x0665 [0x1E] EventEntity looks at LocalPlayer and starts talking
  1: 0x066A [0x03] Work_Zone[9] = (LocalPlayer->Render.Flags01 >> 25) & 1
  2: 0x066F [0x2B] Ailbeche (ID: 17723401/0x010E7009) [12480*]:
    → "Wow! Such a thing was inside its gizzard? Surely I would never have caught him, for he gave even you a run for your money."
  3: 0x0676 [0x23] WAIT_FOR_DIALOG_INTERACTION
  4: 0x0677 [0x21] END_EVENT
  5: 0x0678 [0x00] END_REQSTACK()
```

### Event 63

#### Metadata

| Field        | Value    |
|--------------|----------|
| Entrypoint   | 0x0679   |
| Data Size    | 15 bytes |
| Instructions | 5        |

```
      00 01 02 03 04 05 06 07  08 09 0A 0B 0C 0D 0E 0F
      -- -- -- -- -- -- -- --  -- -- -- -- -- -- -- --
0670:                             1E F0 FF FF 7F 2B 09           .....+.
0680: 70 0E 01 46 80 23 21 00                           p..F.#!.        
```

#### Opcodes

```
  0: 0x0679 [0x1E] EventEntity looks at LocalPlayer and starts talking
  1: 0x067E [0x2B] Ailbeche (ID: 17723401/0x010E7009) [12481*]:
    → "Father, how could you forget this sword?"
  2: 0x0685 [0x23] WAIT_FOR_DIALOG_INTERACTION
  3: 0x0686 [0x21] END_EVENT
  4: 0x0687 [0x00] END_REQSTACK()
```

### Event 59

#### Metadata

| Field        | Value    |
|--------------|----------|
| Entrypoint   | 0x0688   |
| Data Size    | 23 bytes |
| Instructions | 7        |

```
      00 01 02 03 04 05 06 07  08 09 0A 0B 0C 0D 0E 0F
      -- -- -- -- -- -- -- --  -- -- -- -- -- -- -- --
0680:                          1E F0 FF FF 7F 2B 09 70          .....+.p
0690: 0E 01 47 80 23 2B 09 70  0E 01 48 80 23 21 00     ..G.#+.p..H.#!. 
```

#### Opcodes

```
  0: 0x0688 [0x1E] EventEntity looks at LocalPlayer and starts talking
  1: 0x068D [0x2B] Ailbeche (ID: 17723401/0x010E7009) [12482*]:
    → "What? Vilbert is in league with the Orcs? Hah! What nonsense!"
  2: 0x0694 [0x23] WAIT_FOR_DIALOG_INTERACTION
  3: 0x0695 [0x2B] Ailbeche (ID: 17723401/0x010E7009) [12483*]:
    → "I will not fall for such a joke so easily. Vilbert is taking me fishing in Jugner Forest. Be not surprised if I catch a bigger fish than the big one!"
  4: 0x069C [0x23] WAIT_FOR_DIALOG_INTERACTION
  5: 0x069D [0x21] END_EVENT
  6: 0x069E [0x00] END_REQSTACK()
```

### Event 13

#### Metadata

| Field        | Value    |
|--------------|----------|
| Entrypoint   | 0x069F   |
| Data Size    | 15 bytes |
| Instructions | 5        |

```
      00 01 02 03 04 05 06 07  08 09 0A 0B 0C 0D 0E 0F
      -- -- -- -- -- -- -- --  -- -- -- -- -- -- -- --
0690:                                               1E                 .
06A0: F0 FF FF 7F 2B 09 70 0E  01 49 80 23 21 00        ....+.p..I.#!.  
```

#### Opcodes

```
  0: 0x069F [0x1E] EventEntity looks at LocalPlayer and starts talking
  1: 0x06A4 [0x2B] Ailbeche (ID: 17723401/0x010E7009) [12484*]:
    → "You saw, did you not? My father is a mighty knight! I wish to become like him!"
  2: 0x06AB [0x23] WAIT_FOR_DIALOG_INTERACTION
  3: 0x06AC [0x21] END_EVENT
  4: 0x06AD [0x00] END_REQSTACK()
```

### Event 12

#### Metadata

| Field        | Value    |
|--------------|----------|
| Entrypoint   | 0x06AE   |
| Data Size    | 33 bytes |
| Instructions | 9        |

```
      00 01 02 03 04 05 06 07  08 09 0A 0B 0C 0D 0E 0F
      -- -- -- -- -- -- -- --  -- -- -- -- -- -- -- --
06A0:                                            1E F0                ..
06B0: FF FF 7F 03 02 10 4A 80  03 09 10 8B 7F 2B 09 70  ......J......+.p
06C0: 0E 01 4B 80 23 2B 09 70  0E 01 4C 80 23 21 00     ..K.#+.p..L.#!. 
```

#### Opcodes

```
  0: 0x06AE [0x1E] EventEntity looks at LocalPlayer and starts talking
  1: 0x06B3 [0x03] Work_Zone[2] = 17391*
  2: 0x06B8 [0x03] Work_Zone[9] = (LocalPlayer->Render.Flags01 >> 25) & 1
  3: 0x06BD [0x2B] Ailbeche (ID: 17723401/0x010E7009) [12485*]:
    → "Father promised to take me fishing! But I know that he is a much greater swordsman than a fisher."
  4: 0x06C4 [0x23] WAIT_FOR_DIALOG_INTERACTION
  5: 0x06C5 [0x2B] Ailbeche (ID: 17723401/0x010E7009) [12486*]:
    → "Now I shall prepare the $0 that you gave me."
  6: 0x06CC [0x23] WAIT_FOR_DIALOG_INTERACTION
  7: 0x06CD [0x21] END_EVENT
  8: 0x06CE [0x00] END_REQSTACK()
```

### Event 65535.2

#### Metadata

| Field        | Value   |
|--------------|---------|
| Entrypoint   | 0x06CF  |
| Data Size    | 6 bytes |
| Instructions | 2       |

```
      00 01 02 03 04 05 06 07  08 09 0A 0B 0C 0D 0E 0F
      -- -- -- -- -- -- -- --  -- -- -- -- -- -- -- --
06C0:                                               1E                 .
06D0: F0 FF FF 7F 00                                    .....           
```

#### Opcodes

```
  0: 0x06CF [0x1E] EventEntity looks at LocalPlayer and starts talking
  1: 0x06D4 [0x00] END_REQSTACK()
```

### Event 65535.3

#### Metadata

| Field        | Value    |
|--------------|----------|
| Entrypoint   | 0x06D5   |
| Data Size    | 20 bytes |
| Instructions | 6        |

```
      00 01 02 03 04 05 06 07  08 09 0A 0B 0C 0D 0E 0F
      -- -- -- -- -- -- -- --  -- -- -- -- -- -- -- --
06D0:                32 4D 80  1F 00 4E 80 4F 80 14 80       2M...N.O...
06E0: 1F 01 6F 1E BF 70 0E 01  00                       ..o..p...       
```

#### Opcodes

```
  0: 0x06D5 [0x32] ExtData[1]->MainSpeed = 40* * 0.1
  1: 0x06D8 [0x1F] MOVE_ENTITY: EventEntity moves to X=2.963*, Z=25.999*, Y=0.499*
  2: 0x06E0 [0x1F] MOVE_ENTITY: Update entity position (mode=1)
  3: 0x06E2 [0x6F] WAIT_FRAME_DELAY: Yield until WaitTime reaches zero
  4: 0x06E3 [0x1E] EventEntity looks at Vilbert (ID: 17723583/0x010E70BF) and starts talking
  5: 0x06E8 [0x00] END_REQSTACK()
```

### Event 16

#### Metadata

| Field        | Value    |
|--------------|----------|
| Entrypoint   | 0x06E9   |
| Data Size    | 28 bytes |
| Instructions | 5        |

```
      00 01 02 03 04 05 06 07  08 09 0A 0B 0C 0D 0E 0F
      -- -- -- -- -- -- -- --  -- -- -- -- -- -- -- --
06E0:                             22 00 92 01 F8 FF FF           "......
06F0: 7F 37 50 80 51 80 52 80  53 80 79 00 F8 FF FF 7F  .7P.Q.R.S.y.....
0700: 04 70 0E 01 00                                    .p...           
```

#### Opcodes

```
  0: 0x06E9 [0x22] ENTITY_HIDE_FLAG(enabled=0x00)
  1: 0x06EB [0x92] EventEntity->Render.Flags3 ^= 0x01
  2: 0x06F1 [0x37] UPDATE_EVENT_POSITION_AND_DIR: x=92.647*, z=78.836*, y=1.749*, direction=274.2°*
  3: 0x06FA [0x79] EventEntity looks at Claidie (ID: 17723396/0x010E7004) (Basic look)
  4: 0x0704 [0x00] END_REQSTACK()
```

### Event 0

#### Metadata

| Field        | Value    |
|--------------|----------|
| Entrypoint   | 0x0705   |
| Data Size    | 28 bytes |
| Instructions | 5        |

```
      00 01 02 03 04 05 06 07  08 09 0A 0B 0C 0D 0E 0F
      -- -- -- -- -- -- -- --  -- -- -- -- -- -- -- --
0700:                22 00 92  01 F8 FF FF 7F 37 54 80       ".......7T.
0710: 55 80 56 80 57 80 79 00  F8 FF FF 7F 02 70 0E 01  U.V.W.y......p..
0720: 00                                                .               
```

#### Opcodes

```
  0: 0x0705 [0x22] ENTITY_HIDE_FLAG(enabled=0x00)
  1: 0x0707 [0x92] EventEntity->Render.Flags3 ^= 0x01
  2: 0x070D [0x37] UPDATE_EVENT_POSITION_AND_DIR: x=-9.638*, z=2.383*, y=-0.199*, direction=0.9°*
  3: 0x0716 [0x79] EventEntity looks at Trion (ID: 17723394/0x010E7002) (Basic look)
  4: 0x0720 [0x00] END_REQSTACK()
```

### Event 65535.4

#### Metadata

| Field        | Value    |
|--------------|----------|
| Entrypoint   | 0x0721   |
| Data Size    | 19 bytes |
| Instructions | 3        |

```
      00 01 02 03 04 05 06 07  08 09 0A 0B 0C 0D 0E 0F
      -- -- -- -- -- -- -- --  -- -- -- -- -- -- -- --
0720:    5B 1C 80 F8 FF FF 7F  F8 FF FF 7F 74 6C 6B 30   [..........tlk0
0730: 1C 15 80 00                                       ....            
```

#### Opcodes

```
  0: 0x0721 [0x5B] LOAD_EXT_SCHEDULER: Load scheduler "tlk0" with entities [EventEntity, EventEntity], work=75*
  1: 0x0730 [0x1C] WAIT(30* ticks)
  2: 0x0733 [0x00] END_REQSTACK()
```

### Event 65535.5

#### Metadata

| Field        | Value   |
|--------------|---------|
| Entrypoint   | 0x0734  |
| Data Size    | 9 bytes |
| Instructions | 3       |

```
      00 01 02 03 04 05 06 07  08 09 0A 0B 0C 0D 0E 0F
      -- -- -- -- -- -- -- --  -- -- -- -- -- -- -- --
0730:             5E 69 64 6C  30 1C 15 80 00               ^idl0....   
```

#### Opcodes

```
  0: 0x0734 [0x5E] EventEntity goes idle (kills current action) (animation: "idl0")
  1: 0x0739 [0x1C] WAIT(30* ticks)
  2: 0x073C [0x00] END_REQSTACK()
```

### Event 65535.6

#### Metadata

| Field        | Value    |
|--------------|----------|
| Entrypoint   | 0x073D   |
| Data Size    | 19 bytes |
| Instructions | 3        |

```
      00 01 02 03 04 05 06 07  08 09 0A 0B 0C 0D 0E 0F
      -- -- -- -- -- -- -- --  -- -- -- -- -- -- -- --
0730:                                         5B 1C 80               [..
0740: F8 FF FF 7F F8 FF FF 7F  74 68 6B 31 1C 11 80 00  ........thk1....
```

#### Opcodes

```
  0: 0x073D [0x5B] LOAD_EXT_SCHEDULER: Load scheduler "thk1" with entities [EventEntity, EventEntity], work=75*
  1: 0x074C [0x1C] WAIT(60* ticks)
  2: 0x074F [0x00] END_REQSTACK()
```

### Event 65535.7

#### Metadata

| Field        | Value    |
|--------------|----------|
| Entrypoint   | 0x0750   |
| Data Size    | 29 bytes |
| Instructions | 3        |

```
      00 01 02 03 04 05 06 07  08 09 0A 0B 0C 0D 0E 0F
      -- -- -- -- -- -- -- --  -- -- -- -- -- -- -- --
0750: 5B 1C 80 F8 FF FF 7F F8  FF FF 7F 74 68 6B 32 53  [..........thk2S
0760: F8 FF FF 7F F8 FF FF 7F  74 68 6B 32 00           ........thk2.   
```

#### Opcodes

```
  0: 0x0750 [0x5B] LOAD_EXT_SCHEDULER: Load scheduler "thk2" with entities [EventEntity, EventEntity], work=75*
  1: 0x075F [0x53] WAIT_SCHEDULER_TASK: Wait for scheduler "thk2" with entities [EventEntity, EventEntity]
  2: 0x076C [0x00] END_REQSTACK()
```
