# 17723597 - Jeanvirgaud

## Common Data

| Field            | Value                         |
|------------------|-------------------------------|
| Zone             | Northern San d'Oria (ID: 231) |
| Block Size       | 2028 bytes                    |
| Total Events     | 5                             |
| References Count | 50                            |

## List of Events

| Event ID              | Entrypoint   |   Size |   Instructions |
|-----------------------|--------------|--------|----------------|
| [65535](#event-65535) | 0x0000       |      1 |              1 |
| [716](#event-716)     | 0x0001       |    504 |            110 |
| [864](#event-864)     | 0x01F9       |    374 |             93 |
| [770](#event-770)     | 0x036F       |    626 |            143 |
| [771](#event-771)     | 0x05E1       |    284 |             64 |

## DAT References (imed_data)

|   Index | Hex Value   |   Dec Value |
|---------|-------------|-------------|
|       0 | 0x0000      |           0 |
|       1 | 0x0007      |           7 |
|       2 | 0x0008      |           8 |
|       3 | 0x000F      |          15 |
|       4 | 0x0010      |          16 |
|       5 | 0x001F      |          31 |
|       6 | 0x000A      |          10 |
|       7 | 0x32FE      |       13054 |
|       8 | 0x40000000  |  1073741824 |
|       9 | 0x3FFFFFFF  |  1073741823 |
|      10 | 0x32FD      |       13053 |
|      11 | 0x32F3      |       13043 |
|      12 | 0x32ED      |       13037 |
|      13 | 0x0005      |           5 |
|      14 | 0x001E      |          30 |
|      15 | 0x0009      |           9 |
|      16 | 0x0001      |           1 |
|      17 | 0x0002      |           2 |
|      18 | 0x32F9      |       13049 |
|      19 | 0x32FB      |       13051 |
|      20 | 0x0003      |           3 |
|      21 | 0x32FC      |       13052 |
|      22 | 0x007A      |         122 |
|      23 | 0x0104      |         260 |
|      24 | 0x32FF      |       13055 |
|      25 | 0x3301      |       13057 |
|      26 | 0x3303      |       13059 |
|      27 | 0x3304      |       13060 |
|      28 | 0x32FA      |       13050 |
|      29 | 0x0006      |           6 |
|      30 | 0x32F4      |       13044 |
|      31 | 0x32F5      |       13045 |
|      32 | 0x32F6      |       13046 |
|      33 | 0x32F7      |       13047 |
|      34 | 0x32F8      |       13048 |
|      35 | 0x1079      |        4217 |
|      36 | 0x1078      |        4216 |
|      37 | 0x1077      |        4215 |
|      38 | 0x3306      |       13062 |
|      39 | 0x3307      |       13063 |
|      40 | 0x3308      |       13064 |
|      41 | 0x0014      |          20 |
|      42 | 0x7FFFFFFF  |  2147483647 |
|      43 | 0x3309      |       13065 |
|      44 | 0x330A      |       13066 |
|      45 | 0x330B      |       13067 |
|      46 | 0x330C      |       13068 |
|      47 | 0x330D      |       13069 |
|      48 | 0xFFFFFFFF  |  4294967295 |
|      49 | 0x3310      |       13072 |

## String References

- **13037**: Where would you like to teleport to? [./././././The Ronfaure Region./The Zulkheim Region./The Norvallen Region./The Gustaberg Region./The Derfland Region./The Sarutabaruta Region./The Kolshushu Region./The Aragoneu Region./The Fauregandi Region./The Valdeaunia Region./Qufim Island./The Li'Telor Region./The Kuzotz Region./The Vollbow Region./The Elshimo Lowlands Region./The Elshimo Uplands Region./Tu'Lia././The Tavnazian Archipelago./././././././Teleport?/Nowhere at the moment.]
- **13043**: Welcome to the Regional Teleportation Service!
- **13044**: Greetings, adventurer. My name is %. I have been sent by the Specialty Goods Trade Union.
- **13045**: At the previous Conference of Nations, it was decided that the restriction on "regional teleporting" would be lifted, and that cities could now offer teleportation services to various outposts.
- **13046**: We are now authorized to teleport you to any outpost you have previously visited on a supplies quest.
- **13047**: The nominal fee we require varies with the current control of the region.
- **13048**: Also, depending on your level, there may be some areas I am not authorized to teleport you to.
- **13049**: That region is [no longer under your home country's control./currently under your home country's control.] You will require $1 gil or $3 conquest [point/points] to teleport.
- **13050**: As a special, limited-time service to commemorate the recovery of the full mog tablet set, I can teleport you to your destination absolutely free of charge!
- **13051**: Teleport? [Yes./Teleport with gil./Teleport with conquest points./Later.]
- **13052**: Have a wonderful journey!
- **13053**: Unfortunately, at this time there is nowhere I can teleport you. Please come again.
- **13054**: You have not yet reached level 10. I am sorry, but for safety reasons, I am not authorized to teleport anyone under the current level cap.
- **13055**: You do not have enough gil. Please come back again.
- **13057**: You do not have enough conquest points. Please come back again.
- **13059**: We look forward to seeing you again!
- **13060**: However, at this time I am only authorized to teleport citizens of [San d'Oria/Bastok/Windurst].
- **13062**: For a limited time during the Starlight Celebration, the Specialty Goods Trade Union is offering all registered adventurers a deal you could not possibly think of passing up.
- **13063**: Trade me a mere ten $1 and I will teleport you to the outpost of any region of your choice, regardless of your current level or which nation has control of the area.
- **13064**: However, remember that the S.G.T.U will take no responsibility for any...unexpected circumstances that may occur as a result of teleporting to an area with enemies beyond the range of your main job's level.
- **13065**: Normally, I am only authorized to teleport citizens of [San d'Oria/Bastok/Windurst], but for a limited time only, my services are open to all registered adventurers.
- **13066**: Trade me a mere ten $1 and I will teleport you to the outpost of any region of your choice, regardless of your current level or which nation has control of the area.
- **13067**: However, remember that the S.G.T.U will take no responsibility for any...unexpected circumstances that may occur as a result of teleporting to an area with enemies beyond the range of your main job's level.
- **13068**: This service will last for the duration of the Starlight Celebration.
- **13069**: Thank you very much for taking part in our holiday special!
- **13072**: The recommended level for the requested area is $0. Are you sure you would like to teleport there?

## Events

### Event 65535

#### Metadata

| Field        | Value   |
|--------------|---------|
| Entrypoint   | 0x0000  |
| Data Size    | 1 bytes |
| Instructions | 1       |

```
      00 01 02 03 04 05 06 07  08 09 0A 0B 0C 0D 0E 0F
      -- -- -- -- -- -- -- --  -- -- -- -- -- -- -- --
0000: 00                                                .               
```

#### Opcodes

```
  0: 0x0000 [0x00] END_REQSTACK()
```

### Event 716

#### Metadata

| Field        | Value     |
|--------------|-----------|
| Entrypoint   | 0x0001    |
| Data Size    | 504 bytes |
| Instructions | 110       |

```
      00 01 02 03 04 05 06 07  08 09 0A 0B 0C 0D 0E 0F
      -- -- -- -- -- -- -- --  -- -- -- -- -- -- -- --
0000:    03 00 00 02 10 03 01  00 03 10 03 02 00 04 10   ...............
0010: 03 03 00 05 10 03 04 00  06 10 41 00 80 01 80 07  ..........A.....
0020: 10 05 00 41 02 80 03 80  07 10 06 00 41 04 80 05  ...A........A...
0030: 80 07 10 07 00 03 0B 00  08 10 03 0A 00 09 10 20  ............... 
0040: 01 1E F0 FF FF 7F 02 05  00 06 00 00 E5 01 02 0B  ................
0050: 00 06 80 03 65 00 1A 5A  03 1D 07 80 23 03 01 10  ....e..Z....#...
0060: 08 80 01 E2 01 02 0A 00  09 80 00 7C 00 1A 5A 03  ...........|..Z.
0070: 1D 0A 80 23 03 01 10 08  80 01 E2 01 1D 0B 80 23  ...#...........#
0080: 03 01 10 08 80 24 0C 80  0D 80 0A 00 25 02 00 10  .....$......%...
0090: 0E 80 00 9B 00 1A 5A 03  01 E2 01 02 00 10 05 80  ......Z.........
00A0: 00 A6 00 01 E2 01 42 03  08 00 00 10 40 00 80 0F  ......B.....@...
00B0: 80 01 10 08 00 43 00 43  01 03 0D 00 02 10 03 0E  .....C.C........
00C0: 00 03 10 03 10 00 05 10  03 0F 00 06 10 06 01 10  ................
00D0: 06 11 00 02 0D 00 0E 00  04 E5 00 3C 11 00 00 80  ...........<....
00E0: 10 80 01 EC 00 3D 11 00  00 80 10 80 02 0F 00 10  .....=..........
00F0: 00 04 FE 00 3C 11 00 10  80 10 80 01 05 01 3D 11  ....<.........=.
0100: 00 10 80 10 80 02 05 00  00 80 80 15 01 03 0C 00  ................
0110: 00 00 01 35 01 02 05 00  10 80 80 25 01 03 0C 00  ...5.......%....
0120: 01 00 01 35 01 02 05 00  11 80 80 35 01 03 0C 00  ...5.......5....
0130: 02 00 01 35 01 06 04 10  3E 0C 00 08 00 42 01 05  ...5....>....B..
0140: 04 10 1D 12 80 23 24 13  80 14 80 10 80 25 02 00  .....#$......%..
0150: 10 10 80 00 8E 01 3E 11  00 00 80 82 01 40 00 80  ......>......@..
0160: 0F 80 01 10 08 00 3D 01  10 06 80 10 80 1D 15 80  ......=.........
0170: 23 73 16 80 F8 FF FF 7F  F0 FF FF 7F 1C 17 80 01  #s..............
0180: 8B 01 1D 18 80 23 03 01  10 08 80 01 E2 01 02 00  .....#..........
0190: 10 11 80 00 CE 01 3E 11  00 10 80 C2 01 40 00 80  ......>......@..
01A0: 0F 80 01 10 08 00 3C 01  10 06 80 10 80 1D 15 80  ......<.........
01B0: 23 73 16 80 F8 FF FF 7F  F0 FF FF 7F 1C 17 80 01  #s..............
01C0: CB 01 1D 19 80 23 03 01  10 08 80 01 E2 01 02 00  .....#..........
01D0: 10 14 80 00 E2 01 1D 1A  80 23 03 01 10 08 80 01  .........#......
01E0: E2 01 01 F7 01 1D 0B 80  23 03 02 10 06 00 1D 1B  ........#.......
01F0: 80 23 03 01 10 08 80 21  00                       .#.....!.       
```

#### Opcodes

```
  0: 0x0001 [0x03] ExtData[1]->WorkLocal[0] = Work_Zone[2]
  1: 0x0006 [0x03] ExtData[1]->WorkLocal[1] = Work_Zone[3]
  2: 0x000B [0x03] ExtData[1]->WorkLocal[2] = Work_Zone[4]
  3: 0x0010 [0x03] ExtData[1]->WorkLocal[3] = Work_Zone[5]
  4: 0x0015 [0x03] ExtData[1]->WorkLocal[4] = Work_Zone[6]
  5: 0x001A [0x41] ExtData[1]->WorkLocal[5] = Work_Zone[7] (bits 0*-7*)
  6: 0x0023 [0x41] ExtData[1]->WorkLocal[6] = Work_Zone[7] (bits 8*-15*)
  7: 0x002C [0x41] ExtData[1]->WorkLocal[7] = Work_Zone[7] (bits 16*-31*)
  8: 0x0035 [0x03] ExtData[1]->WorkLocal[11] = Work_Zone[8]
  9: 0x003A [0x03] ExtData[1]->WorkLocal[10] = Work_Zone[9]
 10: 0x003F [0x20] SET_CLI_EVENT_UC_FLAG: Lock player control
 11: 0x0041 [0x1E] EventEntity looks at LocalPlayer and starts talking
 12: 0x0046 [0x02] IF !(ExtData[1]->WorkLocal[5] == ExtData[1]->WorkLocal[6]) GOTO 0x01E5
 13: 0x004E [0x02] IF !(ExtData[1]->WorkLocal[11] >= 10*) GOTO 0x0065
 14: 0x0056 [0x1A] CALL_SUBROUTINE(address=0x035A)
 15: 0x0059 [0x1D] PRINT_EVENT_MESSAGE(message_id=13054*)
    → "You have not yet reached level 10. I am sorry, but for safety reasons, I am not authorized to teleport anyone under the current level cap."
 16: 0x005C [0x23] WAIT_FOR_DIALOG_INTERACTION
 17: 0x005D [0x03] Work_Zone[1] = 1073741824*
 18: 0x0062 [0x01] GOTO 0x01E2
 19: 0x0065 [0x02] IF !(ExtData[1]->WorkLocal[10] == 1073741823*) GOTO 0x007C
 20: 0x006D [0x1A] CALL_SUBROUTINE(address=0x035A)
 21: 0x0070 [0x1D] PRINT_EVENT_MESSAGE(message_id=13053*)
    → "Unfortunately, at this time there is nowhere I can teleport you. Please come again."
 22: 0x0073 [0x23] WAIT_FOR_DIALOG_INTERACTION
 23: 0x0074 [0x03] Work_Zone[1] = 1073741824*
 24: 0x0079 [0x01] GOTO 0x01E2
 25: 0x007C [0x1D] PRINT_EVENT_MESSAGE(message_id=13043*)
    → "Welcome to the Regional Teleportation Service!"
 26: 0x007F [0x23] WAIT_FOR_DIALOG_INTERACTION
 27: 0x0080 [0x03] Work_Zone[1] = 1073741824*
 28: 0x0085 [0x24] CREATE_DIALOG(message_id=13037*, default_option=5*, option_flags=ExtData[1]->WorkLocal[10])
    → "Where would you like to teleport to? [./././././The Ronfaure Region./The Zulkheim Region./The Norvallen Region./The Gustaberg Region./The Derfland Region./The Sarutabaruta Region./The Kolshushu Region./The Aragoneu Region./The Fauregandi Region./The Valdeaunia Region./Qufim Island./The Li'Telor Region./The Kuzotz Region./The Vollbow Region./The Elshimo Lowlands Region./The Elshimo Uplands Region./Tu'Lia././The Tavnazian Archipelago./././././././Teleport?/Nowhere at the moment.]"
 29: 0x008C [0x25] WAIT_DIALOG_SELECT()
 30: 0x008D [0x02] IF !(Work_Zone[0] == 30*) GOTO 0x009B
 31: 0x0095 [0x1A] CALL_SUBROUTINE(address=0x035A)
 32: 0x0098 [0x01] GOTO 0x01E2
 33: 0x009B [0x02] IF !(Work_Zone[0] == 31*) GOTO 0x00A6
 34: 0x00A3 [0x01] GOTO 0x01E2
 35: 0x00A6 [0x42] SET_CLI_EVENT_CANCEL_DATA()
 36: 0x00A7 [0x03] ExtData[1]->WorkLocal[8] = Work_Zone[0]
 37: 0x00AC [0x40] SET_BIT_WORK_RANGE(start_bit=0*, end_bit=9*, target=Work_Zone[1], source=ExtData[1]->WorkLocal[8])
 38: 0x00B5 [0x43] SEND_EVENT_UPDATE: Send pending tag to server (packet 0x005B)
 39: 0x00B7 [0x43] SEND_EVENT_UPDATE: Check pending flag (skip if not pending)
 40: 0x00B9 [0x03] ExtData[1]->WorkLocal[13] = Work_Zone[2]
 41: 0x00BE [0x03] ExtData[1]->WorkLocal[14] = Work_Zone[3]
 42: 0x00C3 [0x03] ExtData[1]->WorkLocal[16] = Work_Zone[5]
 43: 0x00C8 [0x03] ExtData[1]->WorkLocal[15] = Work_Zone[6]
 44: 0x00CD [0x06] Work_Zone[1] = 0
 45: 0x00D0 [0x06] ExtData[1]->WorkLocal[17] = 0
 46: 0x00D3 [0x02] IF !(ExtData[1]->WorkLocal[13] < ExtData[1]->WorkLocal[14]) GOTO 0x00E5
 47: 0x00DB [0x3C] SET_BIT_FLAG_CONDITIONAL(target_work_offset=ExtData[1]->WorkLocal[17], bit_index_work_offset=0*, condition_work_offset=1*)
 48: 0x00E2 [0x01] GOTO 0x00EC
 49: 0x00E5 [0x3D] CLEAR_BIT_FLAG_CONDITIONAL(target_work_offset=ExtData[1]->WorkLocal[17], bit_index_work_offset=0*, condition_work_offset=1*)

SUBROUTINE_00EC:
 50: 0x00EC [0x02] IF !(ExtData[1]->WorkLocal[15] < ExtData[1]->WorkLocal[16]) GOTO 0x00FE
 51: 0x00F4 [0x3C] SET_BIT_FLAG_CONDITIONAL(target_work_offset=ExtData[1]->WorkLocal[17], bit_index_work_offset=1*, condition_work_offset=1*)
 52: 0x00FB [0x01] GOTO 0x0105
 53: 0x00FE [0x3D] CLEAR_BIT_FLAG_CONDITIONAL(target_work_offset=ExtData[1]->WorkLocal[17], bit_index_work_offset=1*, condition_work_offset=1*)

SUBROUTINE_0105:
 54: 0x0105 [0x02] IF !(ExtData[1]->WorkLocal[5] == 0*) GOTO 0x0115
 55: 0x010D [0x03] ExtData[1]->WorkLocal[12] = ExtData[1]->WorkLocal[0]
 56: 0x0112 [0x01] GOTO 0x0135
 57: 0x0115 [0x02] IF !(ExtData[1]->WorkLocal[5] == 1*) GOTO 0x0125
 58: 0x011D [0x03] ExtData[1]->WorkLocal[12] = ExtData[1]->WorkLocal[1]
 59: 0x0122 [0x01] GOTO 0x0135
 60: 0x0125 [0x02] IF !(ExtData[1]->WorkLocal[5] == 2*) GOTO 0x0135
 61: 0x012D [0x03] ExtData[1]->WorkLocal[12] = ExtData[1]->WorkLocal[2]
 62: 0x0132 [0x01] GOTO 0x0135

SUBROUTINE_0135:
 63: 0x0135 [0x06] Work_Zone[4] = 0
 64: 0x0138 [0x3E] IF !(ExtData[1]->WorkLocal[12] bit ExtData[1]->WorkLocal[8]) GOTO 0x0142
 65: 0x013F [0x05] Work_Zone[4] = 1
 66: 0x0142 [0x1D] PRINT_EVENT_MESSAGE(message_id=13049*)
    → "That region is [no longer under your home country's control./currently under your home country's control.] You will require $1 gil or $3 conquest [point/points] to teleport."
 67: 0x0145 [0x23] WAIT_FOR_DIALOG_INTERACTION
 68: 0x0146 [0x24] CREATE_DIALOG(message_id=13051*, default_option=3*, option_flags=1*)
    → "Teleport? [Yes./Teleport with gil./Teleport with conquest points./Later.]"
 69: 0x014D [0x25] WAIT_DIALOG_SELECT()
 70: 0x014E [0x02] IF !(Work_Zone[0] == 1*) GOTO 0x018E
 71: 0x0156 [0x3E] IF !(ExtData[1]->WorkLocal[17] bit 0*) GOTO 0x0182
 72: 0x015D [0x40] SET_BIT_WORK_RANGE(start_bit=0*, end_bit=9*, target=Work_Zone[1], source=ExtData[1]->WorkLocal[8])
 73: 0x0166 [0x3D] CLEAR_BIT_FLAG_CONDITIONAL(target_work_offset=Work_Zone[1], bit_index_work_offset=10*, condition_work_offset=1*)
 74: 0x016D [0x1D] PRINT_EVENT_MESSAGE(message_id=13052*)
    → "Have a wonderful journey!"
 75: 0x0170 [0x23] WAIT_FOR_DIALOG_INTERACTION
 76: 0x0171 [0x73] EventEntity casts magic 122* on LocalPlayer
 77: 0x017C [0x1C] WAIT(260* ticks)
 78: 0x017F [0x01] GOTO 0x018B
 79: 0x0182 [0x1D] PRINT_EVENT_MESSAGE(message_id=13055*)
    → "You do not have enough gil. Please come back again."
 80: 0x0185 [0x23] WAIT_FOR_DIALOG_INTERACTION
 81: 0x0186 [0x03] Work_Zone[1] = 1073741824*

SUBROUTINE_018B:
 82: 0x018B [0x01] GOTO 0x01E2
 83: 0x018E [0x02] IF !(Work_Zone[0] == 2*) GOTO 0x01CE
 84: 0x0196 [0x3E] IF !(ExtData[1]->WorkLocal[17] bit 1*) GOTO 0x01C2
 85: 0x019D [0x40] SET_BIT_WORK_RANGE(start_bit=0*, end_bit=9*, target=Work_Zone[1], source=ExtData[1]->WorkLocal[8])
 86: 0x01A6 [0x3C] SET_BIT_FLAG_CONDITIONAL(target_work_offset=Work_Zone[1], bit_index_work_offset=10*, condition_work_offset=1*)
 87: 0x01AD [0x1D] PRINT_EVENT_MESSAGE(message_id=13052*)
    → "Have a wonderful journey!"
 88: 0x01B0 [0x23] WAIT_FOR_DIALOG_INTERACTION
 89: 0x01B1 [0x73] EventEntity casts magic 122* on LocalPlayer
 90: 0x01BC [0x1C] WAIT(260* ticks)
 91: 0x01BF [0x01] GOTO 0x01CB
 92: 0x01C2 [0x1D] PRINT_EVENT_MESSAGE(message_id=13057*)
    → "You do not have enough conquest points. Please come back again."
 93: 0x01C5 [0x23] WAIT_FOR_DIALOG_INTERACTION
 94: 0x01C6 [0x03] Work_Zone[1] = 1073741824*

SUBROUTINE_01CB:
 95: 0x01CB [0x01] GOTO 0x01E2
 96: 0x01CE [0x02] IF !(Work_Zone[0] == 3*) GOTO 0x01E2
 97: 0x01D6 [0x1D] PRINT_EVENT_MESSAGE(message_id=13059*)
    → "We look forward to seeing you again!"
 98: 0x01D9 [0x23] WAIT_FOR_DIALOG_INTERACTION
 99: 0x01DA [0x03] Work_Zone[1] = 1073741824*
100: 0x01DF [0x01] GOTO 0x01E2

SUBROUTINE_01E2:
101: 0x01E2 [0x01] GOTO 0x01F7
102: 0x01E5 [0x1D] PRINT_EVENT_MESSAGE(message_id=13043*)
    → "Welcome to the Regional Teleportation Service!"
103: 0x01E8 [0x23] WAIT_FOR_DIALOG_INTERACTION
104: 0x01E9 [0x03] Work_Zone[2] = ExtData[1]->WorkLocal[6]
105: 0x01EE [0x1D] PRINT_EVENT_MESSAGE(message_id=13060*)
    → "However, at this time I am only authorized to teleport citizens of [San d'Oria/Bastok/Windurst]."
106: 0x01F1 [0x23] WAIT_FOR_DIALOG_INTERACTION
107: 0x01F2 [0x03] Work_Zone[1] = 1073741824*

SUBROUTINE_01F7:
108: 0x01F7 [0x21] END_EVENT
109: 0x01F8 [0x00] END_REQSTACK()
```

### Event 864

#### Metadata

| Field        | Value     |
|--------------|-----------|
| Entrypoint   | 0x01F9    |
| Data Size    | 374 bytes |
| Instructions | 93        |

```
      00 01 02 03 04 05 06 07  08 09 0A 0B 0C 0D 0E 0F
      -- -- -- -- -- -- -- --  -- -- -- -- -- -- -- --
01F0:                             03 00 00 02 10 03 01           .......
0200: 00 03 10 03 02 00 04 10  03 03 00 05 10 03 04 00  ................
0210: 06 10 41 00 80 01 80 07  10 05 00 41 02 80 03 80  ..A........A....
0220: 07 10 06 00 41 04 80 05  80 07 10 07 00 03 0B 00  ....A...........
0230: 08 10 03 0A 00 09 10 20  01 1E F0 FF FF 7F 02 05  ....... ........
0240: 00 06 00 00 46 03 02 0B  00 06 80 03 5D 02 1A 5A  ....F.......]..Z
0250: 03 1D 07 80 23 03 01 10  08 80 01 43 03 02 0A 00  ....#......C....
0260: 09 80 00 74 02 1A 5A 03  1D 0A 80 23 03 01 10 08  ...t..Z....#....
0270: 80 01 43 03 1D 0B 80 23  03 01 10 08 80 24 0C 80  ..C....#.....$..
0280: 0D 80 0A 00 25 02 00 10  0E 80 00 93 02 1A 5A 03  ....%.........Z.
0290: 01 43 03 02 00 10 05 80  00 9E 02 01 43 03 42 03  .C..........C.B.
02A0: 08 00 00 10 03 01 10 08  00 43 00 43 01 03 0D 00  .........C.C....
02B0: 02 10 03 0E 00 03 10 03  10 00 05 10 03 0F 00 06  ................
02C0: 10 06 01 10 02 05 00 00  80 80 D4 02 03 0C 00 00  ................
02D0: 00 01 F4 02 02 05 00 10  80 80 E4 02 03 0C 00 01  ................
02E0: 00 01 F4 02 02 05 00 11  80 80 F4 02 03 0C 00 02  ................
02F0: 00 01 F4 02 06 04 10 3E  0C 00 08 00 01 03 05 04  .......>........
0300: 10 1D 1C 80 23 24 13 80  14 80 1D 80 25 02 00 10  ....#$......%...
0310: 00 80 00 2F 03 03 01 10  08 00 1D 15 80 23 73 16  .../.........#s.
0320: 80 F8 FF FF 7F F0 FF FF  7F 1C 17 80 01 43 03 02  .............C..
0330: 00 10 14 80 00 43 03 1D  1A 80 23 03 01 10 08 80  .....C....#.....
0340: 01 43 03 01 58 03 1D 0B  80 23 03 02 10 06 00 1D  .C..X....#......
0350: 1B 80 23 03 01 10 08 80  21 00 1D 1E 80 23 1D 1F  ..#.....!....#..
0360: 80 23 1D 20 80 23 1D 21  80 23 1D 22 80 23 1B     .#. .#.!.#.".#. 
```

#### Opcodes

```
  0: 0x01F9 [0x03] ExtData[1]->WorkLocal[0] = Work_Zone[2]
  1: 0x01FE [0x03] ExtData[1]->WorkLocal[1] = Work_Zone[3]
  2: 0x0203 [0x03] ExtData[1]->WorkLocal[2] = Work_Zone[4]
  3: 0x0208 [0x03] ExtData[1]->WorkLocal[3] = Work_Zone[5]
  4: 0x020D [0x03] ExtData[1]->WorkLocal[4] = Work_Zone[6]
  5: 0x0212 [0x41] ExtData[1]->WorkLocal[5] = Work_Zone[7] (bits 0*-7*)
  6: 0x021B [0x41] ExtData[1]->WorkLocal[6] = Work_Zone[7] (bits 8*-15*)
  7: 0x0224 [0x41] ExtData[1]->WorkLocal[7] = Work_Zone[7] (bits 16*-31*)
  8: 0x022D [0x03] ExtData[1]->WorkLocal[11] = Work_Zone[8]
  9: 0x0232 [0x03] ExtData[1]->WorkLocal[10] = Work_Zone[9]
 10: 0x0237 [0x20] SET_CLI_EVENT_UC_FLAG: Lock player control
 11: 0x0239 [0x1E] EventEntity looks at LocalPlayer and starts talking
 12: 0x023E [0x02] IF !(ExtData[1]->WorkLocal[5] == ExtData[1]->WorkLocal[6]) GOTO 0x0346
 13: 0x0246 [0x02] IF !(ExtData[1]->WorkLocal[11] >= 10*) GOTO 0x025D
 14: 0x024E [0x1A] CALL_SUBROUTINE(address=0x035A)
 15: 0x0251 [0x1D] PRINT_EVENT_MESSAGE(message_id=13054*)
    → "You have not yet reached level 10. I am sorry, but for safety reasons, I am not authorized to teleport anyone under the current level cap."
 16: 0x0254 [0x23] WAIT_FOR_DIALOG_INTERACTION
 17: 0x0255 [0x03] Work_Zone[1] = 1073741824*
 18: 0x025A [0x01] GOTO 0x0343
 19: 0x025D [0x02] IF !(ExtData[1]->WorkLocal[10] == 1073741823*) GOTO 0x0274
 20: 0x0265 [0x1A] CALL_SUBROUTINE(address=0x035A)
 21: 0x0268 [0x1D] PRINT_EVENT_MESSAGE(message_id=13053*)
    → "Unfortunately, at this time there is nowhere I can teleport you. Please come again."
 22: 0x026B [0x23] WAIT_FOR_DIALOG_INTERACTION
 23: 0x026C [0x03] Work_Zone[1] = 1073741824*
 24: 0x0271 [0x01] GOTO 0x0343
 25: 0x0274 [0x1D] PRINT_EVENT_MESSAGE(message_id=13043*)
    → "Welcome to the Regional Teleportation Service!"
 26: 0x0277 [0x23] WAIT_FOR_DIALOG_INTERACTION
 27: 0x0278 [0x03] Work_Zone[1] = 1073741824*
 28: 0x027D [0x24] CREATE_DIALOG(message_id=13037*, default_option=5*, option_flags=ExtData[1]->WorkLocal[10])
    → "Where would you like to teleport to? [./././././The Ronfaure Region./The Zulkheim Region./The Norvallen Region./The Gustaberg Region./The Derfland Region./The Sarutabaruta Region./The Kolshushu Region./The Aragoneu Region./The Fauregandi Region./The Valdeaunia Region./Qufim Island./The Li'Telor Region./The Kuzotz Region./The Vollbow Region./The Elshimo Lowlands Region./The Elshimo Uplands Region./Tu'Lia././The Tavnazian Archipelago./././././././Teleport?/Nowhere at the moment.]"
 29: 0x0284 [0x25] WAIT_DIALOG_SELECT()
 30: 0x0285 [0x02] IF !(Work_Zone[0] == 30*) GOTO 0x0293
 31: 0x028D [0x1A] CALL_SUBROUTINE(address=0x035A)
 32: 0x0290 [0x01] GOTO 0x0343
 33: 0x0293 [0x02] IF !(Work_Zone[0] == 31*) GOTO 0x029E
 34: 0x029B [0x01] GOTO 0x0343
 35: 0x029E [0x42] SET_CLI_EVENT_CANCEL_DATA()
 36: 0x029F [0x03] ExtData[1]->WorkLocal[8] = Work_Zone[0]
 37: 0x02A4 [0x03] Work_Zone[1] = ExtData[1]->WorkLocal[8]
 38: 0x02A9 [0x43] SEND_EVENT_UPDATE: Send pending tag to server (packet 0x005B)
 39: 0x02AB [0x43] SEND_EVENT_UPDATE: Check pending flag (skip if not pending)
 40: 0x02AD [0x03] ExtData[1]->WorkLocal[13] = Work_Zone[2]
 41: 0x02B2 [0x03] ExtData[1]->WorkLocal[14] = Work_Zone[3]
 42: 0x02B7 [0x03] ExtData[1]->WorkLocal[16] = Work_Zone[5]
 43: 0x02BC [0x03] ExtData[1]->WorkLocal[15] = Work_Zone[6]
 44: 0x02C1 [0x06] Work_Zone[1] = 0
 45: 0x02C4 [0x02] IF !(ExtData[1]->WorkLocal[5] == 0*) GOTO 0x02D4
 46: 0x02CC [0x03] ExtData[1]->WorkLocal[12] = ExtData[1]->WorkLocal[0]
 47: 0x02D1 [0x01] GOTO 0x02F4
 48: 0x02D4 [0x02] IF !(ExtData[1]->WorkLocal[5] == 1*) GOTO 0x02E4
 49: 0x02DC [0x03] ExtData[1]->WorkLocal[12] = ExtData[1]->WorkLocal[1]
 50: 0x02E1 [0x01] GOTO 0x02F4
 51: 0x02E4 [0x02] IF !(ExtData[1]->WorkLocal[5] == 2*) GOTO 0x02F4
 52: 0x02EC [0x03] ExtData[1]->WorkLocal[12] = ExtData[1]->WorkLocal[2]
 53: 0x02F1 [0x01] GOTO 0x02F4

SUBROUTINE_02F4:
 54: 0x02F4 [0x06] Work_Zone[4] = 0
 55: 0x02F7 [0x3E] IF !(ExtData[1]->WorkLocal[12] bit ExtData[1]->WorkLocal[8]) GOTO 0x0301
 56: 0x02FE [0x05] Work_Zone[4] = 1
 57: 0x0301 [0x1D] PRINT_EVENT_MESSAGE(message_id=13050*)
    → "As a special, limited-time service to commemorate the recovery of the full mog tablet set, I can teleport you to your destination absolutely free of charge!"
 58: 0x0304 [0x23] WAIT_FOR_DIALOG_INTERACTION
 59: 0x0305 [0x24] CREATE_DIALOG(message_id=13051*, default_option=3*, option_flags=6*)
    → "Teleport? [Yes./Teleport with gil./Teleport with conquest points./Later.]"
 60: 0x030C [0x25] WAIT_DIALOG_SELECT()
 61: 0x030D [0x02] IF !(Work_Zone[0] == 0*) GOTO 0x032F
 62: 0x0315 [0x03] Work_Zone[1] = ExtData[1]->WorkLocal[8]
 63: 0x031A [0x1D] PRINT_EVENT_MESSAGE(message_id=13052*)
    → "Have a wonderful journey!"
 64: 0x031D [0x23] WAIT_FOR_DIALOG_INTERACTION
 65: 0x031E [0x73] EventEntity casts magic 122* on LocalPlayer
 66: 0x0329 [0x1C] WAIT(260* ticks)
 67: 0x032C [0x01] GOTO 0x0343
 68: 0x032F [0x02] IF !(Work_Zone[0] == 3*) GOTO 0x0343
 69: 0x0337 [0x1D] PRINT_EVENT_MESSAGE(message_id=13059*)
    → "We look forward to seeing you again!"
 70: 0x033A [0x23] WAIT_FOR_DIALOG_INTERACTION
 71: 0x033B [0x03] Work_Zone[1] = 1073741824*
 72: 0x0340 [0x01] GOTO 0x0343

SUBROUTINE_0343:
 73: 0x0343 [0x01] GOTO 0x0358
 74: 0x0346 [0x1D] PRINT_EVENT_MESSAGE(message_id=13043*)
    → "Welcome to the Regional Teleportation Service!"
 75: 0x0349 [0x23] WAIT_FOR_DIALOG_INTERACTION
 76: 0x034A [0x03] Work_Zone[2] = ExtData[1]->WorkLocal[6]
 77: 0x034F [0x1D] PRINT_EVENT_MESSAGE(message_id=13060*)
    → "However, at this time I am only authorized to teleport citizens of [San d'Oria/Bastok/Windurst]."
 78: 0x0352 [0x23] WAIT_FOR_DIALOG_INTERACTION
 79: 0x0353 [0x03] Work_Zone[1] = 1073741824*

SUBROUTINE_0358:
 80: 0x0358 [0x21] END_EVENT
 81: 0x0359 [0x00] END_REQSTACK()

SUBROUTINE_035A:
 82: 0x035A [0x1D] PRINT_EVENT_MESSAGE(message_id=13044*)
    → "Greetings, adventurer. My name is %. I have been sent by the Specialty Goods Trade Union."
 83: 0x035D [0x23] WAIT_FOR_DIALOG_INTERACTION
 84: 0x035E [0x1D] PRINT_EVENT_MESSAGE(message_id=13045*)
    → "At the previous Conference of Nations, it was decided that the restriction on "regional teleporting" would be lifted, and that cities could now offer teleportation services to various outposts."
 85: 0x0361 [0x23] WAIT_FOR_DIALOG_INTERACTION
 86: 0x0362 [0x1D] PRINT_EVENT_MESSAGE(message_id=13046*)
    → "We are now authorized to teleport you to any outpost you have previously visited on a supplies quest."
 87: 0x0365 [0x23] WAIT_FOR_DIALOG_INTERACTION
 88: 0x0366 [0x1D] PRINT_EVENT_MESSAGE(message_id=13047*)
    → "The nominal fee we require varies with the current control of the region."
 89: 0x0369 [0x23] WAIT_FOR_DIALOG_INTERACTION
 90: 0x036A [0x1D] PRINT_EVENT_MESSAGE(message_id=13048*)
    → "Also, depending on your level, there may be some areas I am not authorized to teleport you to."
 91: 0x036D [0x23] WAIT_FOR_DIALOG_INTERACTION
 92: 0x036E [0x1B] RETURN
```

### Event 770

#### Metadata

| Field        | Value     |
|--------------|-----------|
| Entrypoint   | 0x036F    |
| Data Size    | 626 bytes |
| Instructions | 143       |

```
      00 01 02 03 04 05 06 07  08 09 0A 0B 0C 0D 0E 0F
      -- -- -- -- -- -- -- --  -- -- -- -- -- -- -- --
0360:                                               03                 .
0370: 00 00 02 10 03 01 00 03  10 03 02 00 04 10 03 03  ................
0380: 00 05 10 03 04 00 06 10  41 00 80 01 80 07 10 05  ........A.......
0390: 00 41 02 80 03 80 07 10  06 00 41 04 80 05 80 07  .A........A.....
03A0: 10 07 00 03 0B 00 08 10  03 0A 00 09 10 20 01 1E  ............. ..
03B0: F0 FF FF 7F 1D 1E 80 23  1D 1F 80 23 02 05 00 06  .......#...#....
03C0: 00 00 95 05 1D 20 80 23  1D 21 80 23 1D 22 80 23  ..... .#.!.#.".#
03D0: 03 12 00 03 10 02 06 00  00 80 80 E5 03 03 03 10  ................
03E0: 23 80 01 05 04 02 06 00  10 80 80 F5 03 03 03 10  #...............
03F0: 24 80 01 05 04 02 06 00  11 80 80 05 04 03 03 10  $...............
0400: 25 80 01 05 04 1D 26 80  23 1D 27 80 23 1D 28 80  %.....&.#.'.#.(.
0410: 23 03 03 10 12 00 02 0B  00 29 80 03 2A 04 1D 07  #........)..*...
0420: 80 23 03 01 10 08 80 01  92 05 02 0A 00 2A 80 00  .#...........*..
0430: 3E 04 1D 0A 80 23 03 01  10 08 80 01 92 05 24 0C  >....#........$.
0440: 80 0D 80 0A 00 25 02 00  10 05 80 00 56 04 03 01  .....%......V...
0450: 10 08 80 01 92 05 42 03  08 00 00 10 40 00 80 0F  ......B.....@...
0460: 80 01 10 08 00 43 00 43  01 03 0D 00 02 10 03 0E  .....C.C........
0470: 00 03 10 03 10 00 05 10  03 0F 00 06 10 06 01 10  ................
0480: 06 11 00 02 0D 00 0E 00  04 95 04 3C 11 00 00 80  ...........<....
0490: 10 80 01 9C 04 3D 11 00  00 80 10 80 02 0F 00 10  .....=..........
04A0: 00 04 AE 04 3C 11 00 10  80 10 80 01 B5 04 3D 11  ....<.........=.
04B0: 00 10 80 10 80 02 05 00  00 80 80 C5 04 03 0C 00  ................
04C0: 00 00 01 E5 04 02 05 00  10 80 80 D5 04 03 0C 00  ................
04D0: 01 00 01 E5 04 02 05 00  11 80 80 E5 04 03 0C 00  ................
04E0: 02 00 01 E5 04 06 04 10  3E 0C 00 08 00 F2 04 05  ........>.......
04F0: 04 10 1D 12 80 23 24 13  80 14 80 10 80 25 02 00  .....#$......%..
0500: 10 10 80 00 3E 05 3E 11  00 00 80 32 05 40 00 80  ....>.>....2.@..
0510: 0F 80 01 10 08 00 3D 01  10 06 80 10 80 1D 15 80  ......=.........
0520: 23 73 16 80 F8 FF FF 7F  F0 FF FF 7F 1C 17 80 01  #s..............
0530: 3B 05 1D 18 80 23 03 01  10 08 80 01 92 05 02 00  ;....#..........
0540: 10 11 80 00 7E 05 3E 11  00 10 80 72 05 40 00 80  ....~.>....r.@..
0550: 0F 80 01 10 08 00 3C 01  10 06 80 10 80 1D 15 80  ......<.........
0560: 23 73 16 80 F8 FF FF 7F  F0 FF FF 7F 1C 17 80 01  #s..............
0570: 7B 05 1D 19 80 23 03 01  10 08 80 01 92 05 02 00  {....#..........
0580: 10 14 80 00 92 05 1D 1A  80 23 03 01 10 08 80 01  .........#......
0590: 92 05 01 DF 05 03 02 10  06 00 02 06 00 00 80 80  ................
05A0: AA 05 03 03 10 23 80 01  CA 05 02 06 00 10 80 80  .....#..........
05B0: BA 05 03 03 10 24 80 01  CA 05 02 06 00 11 80 80  .....$..........
05C0: CA 05 03 03 10 25 80 01  CA 05 1D 2B 80 23 1D 2C  .....%.....+.#.,
05D0: 80 23 1D 2D 80 23 1D 2E  80 23 03 01 10 08 80 21  .#.-.#...#.....!
05E0: 00                                                .               
```

#### Opcodes

```
  0: 0x036F [0x03] ExtData[1]->WorkLocal[0] = Work_Zone[2]
  1: 0x0374 [0x03] ExtData[1]->WorkLocal[1] = Work_Zone[3]
  2: 0x0379 [0x03] ExtData[1]->WorkLocal[2] = Work_Zone[4]
  3: 0x037E [0x03] ExtData[1]->WorkLocal[3] = Work_Zone[5]
  4: 0x0383 [0x03] ExtData[1]->WorkLocal[4] = Work_Zone[6]
  5: 0x0388 [0x41] ExtData[1]->WorkLocal[5] = Work_Zone[7] (bits 0*-7*)
  6: 0x0391 [0x41] ExtData[1]->WorkLocal[6] = Work_Zone[7] (bits 8*-15*)
  7: 0x039A [0x41] ExtData[1]->WorkLocal[7] = Work_Zone[7] (bits 16*-31*)
  8: 0x03A3 [0x03] ExtData[1]->WorkLocal[11] = Work_Zone[8]
  9: 0x03A8 [0x03] ExtData[1]->WorkLocal[10] = Work_Zone[9]
 10: 0x03AD [0x20] SET_CLI_EVENT_UC_FLAG: Lock player control
 11: 0x03AF [0x1E] EventEntity looks at LocalPlayer and starts talking
 12: 0x03B4 [0x1D] PRINT_EVENT_MESSAGE(message_id=13044*)
    → "Greetings, adventurer. My name is %. I have been sent by the Specialty Goods Trade Union."
 13: 0x03B7 [0x23] WAIT_FOR_DIALOG_INTERACTION
 14: 0x03B8 [0x1D] PRINT_EVENT_MESSAGE(message_id=13045*)
    → "At the previous Conference of Nations, it was decided that the restriction on "regional teleporting" would be lifted, and that cities could now offer teleportation services to various outposts."
 15: 0x03BB [0x23] WAIT_FOR_DIALOG_INTERACTION
 16: 0x03BC [0x02] IF !(ExtData[1]->WorkLocal[5] == ExtData[1]->WorkLocal[6]) GOTO 0x0595
 17: 0x03C4 [0x1D] PRINT_EVENT_MESSAGE(message_id=13046*)
    → "We are now authorized to teleport you to any outpost you have previously visited on a supplies quest."
 18: 0x03C7 [0x23] WAIT_FOR_DIALOG_INTERACTION
 19: 0x03C8 [0x1D] PRINT_EVENT_MESSAGE(message_id=13047*)
    → "The nominal fee we require varies with the current control of the region."
 20: 0x03CB [0x23] WAIT_FOR_DIALOG_INTERACTION
 21: 0x03CC [0x1D] PRINT_EVENT_MESSAGE(message_id=13048*)
    → "Also, depending on your level, there may be some areas I am not authorized to teleport you to."
 22: 0x03CF [0x23] WAIT_FOR_DIALOG_INTERACTION
 23: 0x03D0 [0x03] ExtData[1]->WorkLocal[18] = Work_Zone[3]
 24: 0x03D5 [0x02] IF !(ExtData[1]->WorkLocal[6] == 0*) GOTO 0x03E5
 25: 0x03DD [0x03] Work_Zone[3] = 4217*
 26: 0x03E2 [0x01] GOTO 0x0405
 27: 0x03E5 [0x02] IF !(ExtData[1]->WorkLocal[6] == 1*) GOTO 0x03F5
 28: 0x03ED [0x03] Work_Zone[3] = 4216*
 29: 0x03F2 [0x01] GOTO 0x0405
 30: 0x03F5 [0x02] IF !(ExtData[1]->WorkLocal[6] == 2*) GOTO 0x0405
 31: 0x03FD [0x03] Work_Zone[3] = 4215*
 32: 0x0402 [0x01] GOTO 0x0405

SUBROUTINE_0405:
 33: 0x0405 [0x1D] PRINT_EVENT_MESSAGE(message_id=13062*)
    → "For a limited time during the Starlight Celebration, the Specialty Goods Trade Union is offering all registered adventurers a deal you could not possibly think of passing up."
 34: 0x0408 [0x23] WAIT_FOR_DIALOG_INTERACTION
 35: 0x0409 [0x1D] PRINT_EVENT_MESSAGE(message_id=13063*)
    → "Trade me a mere ten $1 and I will teleport you to the outpost of any region of your choice, regardless of your current level or which nation has control of the area."
 36: 0x040C [0x23] WAIT_FOR_DIALOG_INTERACTION
 37: 0x040D [0x1D] PRINT_EVENT_MESSAGE(message_id=13064*)
    → "However, remember that the S.G.T.U will take no responsibility for any...unexpected circumstances that may occur as a result of teleporting to an area with enemies beyond the range of your main job's level."
 38: 0x0410 [0x23] WAIT_FOR_DIALOG_INTERACTION
 39: 0x0411 [0x03] Work_Zone[3] = ExtData[1]->WorkLocal[18]
 40: 0x0416 [0x02] IF !(ExtData[1]->WorkLocal[11] >= 20*) GOTO 0x042A
 41: 0x041E [0x1D] PRINT_EVENT_MESSAGE(message_id=13054*)
    → "You have not yet reached level 10. I am sorry, but for safety reasons, I am not authorized to teleport anyone under the current level cap."
 42: 0x0421 [0x23] WAIT_FOR_DIALOG_INTERACTION
 43: 0x0422 [0x03] Work_Zone[1] = 1073741824*
 44: 0x0427 [0x01] GOTO 0x0592
 45: 0x042A [0x02] IF !(ExtData[1]->WorkLocal[10] == 2147483647*) GOTO 0x043E
 46: 0x0432 [0x1D] PRINT_EVENT_MESSAGE(message_id=13053*)
    → "Unfortunately, at this time there is nowhere I can teleport you. Please come again."
 47: 0x0435 [0x23] WAIT_FOR_DIALOG_INTERACTION
 48: 0x0436 [0x03] Work_Zone[1] = 1073741824*
 49: 0x043B [0x01] GOTO 0x0592
 50: 0x043E [0x24] CREATE_DIALOG(message_id=13037*, default_option=5*, option_flags=ExtData[1]->WorkLocal[10])
    → "Where would you like to teleport to? [./././././The Ronfaure Region./The Zulkheim Region./The Norvallen Region./The Gustaberg Region./The Derfland Region./The Sarutabaruta Region./The Kolshushu Region./The Aragoneu Region./The Fauregandi Region./The Valdeaunia Region./Qufim Island./The Li'Telor Region./The Kuzotz Region./The Vollbow Region./The Elshimo Lowlands Region./The Elshimo Uplands Region./Tu'Lia././The Tavnazian Archipelago./././././././Teleport?/Nowhere at the moment.]"
 51: 0x0445 [0x25] WAIT_DIALOG_SELECT()
 52: 0x0446 [0x02] IF !(Work_Zone[0] == 31*) GOTO 0x0456
 53: 0x044E [0x03] Work_Zone[1] = 1073741824*
 54: 0x0453 [0x01] GOTO 0x0592
 55: 0x0456 [0x42] SET_CLI_EVENT_CANCEL_DATA()
 56: 0x0457 [0x03] ExtData[1]->WorkLocal[8] = Work_Zone[0]
 57: 0x045C [0x40] SET_BIT_WORK_RANGE(start_bit=0*, end_bit=9*, target=Work_Zone[1], source=ExtData[1]->WorkLocal[8])
 58: 0x0465 [0x43] SEND_EVENT_UPDATE: Send pending tag to server (packet 0x005B)
 59: 0x0467 [0x43] SEND_EVENT_UPDATE: Check pending flag (skip if not pending)
 60: 0x0469 [0x03] ExtData[1]->WorkLocal[13] = Work_Zone[2]
 61: 0x046E [0x03] ExtData[1]->WorkLocal[14] = Work_Zone[3]
 62: 0x0473 [0x03] ExtData[1]->WorkLocal[16] = Work_Zone[5]
 63: 0x0478 [0x03] ExtData[1]->WorkLocal[15] = Work_Zone[6]
 64: 0x047D [0x06] Work_Zone[1] = 0
 65: 0x0480 [0x06] ExtData[1]->WorkLocal[17] = 0
 66: 0x0483 [0x02] IF !(ExtData[1]->WorkLocal[13] < ExtData[1]->WorkLocal[14]) GOTO 0x0495
 67: 0x048B [0x3C] SET_BIT_FLAG_CONDITIONAL(target_work_offset=ExtData[1]->WorkLocal[17], bit_index_work_offset=0*, condition_work_offset=1*)
 68: 0x0492 [0x01] GOTO 0x049C
 69: 0x0495 [0x3D] CLEAR_BIT_FLAG_CONDITIONAL(target_work_offset=ExtData[1]->WorkLocal[17], bit_index_work_offset=0*, condition_work_offset=1*)

SUBROUTINE_049C:
 70: 0x049C [0x02] IF !(ExtData[1]->WorkLocal[15] < ExtData[1]->WorkLocal[16]) GOTO 0x04AE
 71: 0x04A4 [0x3C] SET_BIT_FLAG_CONDITIONAL(target_work_offset=ExtData[1]->WorkLocal[17], bit_index_work_offset=1*, condition_work_offset=1*)
 72: 0x04AB [0x01] GOTO 0x04B5
 73: 0x04AE [0x3D] CLEAR_BIT_FLAG_CONDITIONAL(target_work_offset=ExtData[1]->WorkLocal[17], bit_index_work_offset=1*, condition_work_offset=1*)

SUBROUTINE_04B5:
 74: 0x04B5 [0x02] IF !(ExtData[1]->WorkLocal[5] == 0*) GOTO 0x04C5
 75: 0x04BD [0x03] ExtData[1]->WorkLocal[12] = ExtData[1]->WorkLocal[0]
 76: 0x04C2 [0x01] GOTO 0x04E5
 77: 0x04C5 [0x02] IF !(ExtData[1]->WorkLocal[5] == 1*) GOTO 0x04D5
 78: 0x04CD [0x03] ExtData[1]->WorkLocal[12] = ExtData[1]->WorkLocal[1]
 79: 0x04D2 [0x01] GOTO 0x04E5
 80: 0x04D5 [0x02] IF !(ExtData[1]->WorkLocal[5] == 2*) GOTO 0x04E5
 81: 0x04DD [0x03] ExtData[1]->WorkLocal[12] = ExtData[1]->WorkLocal[2]
 82: 0x04E2 [0x01] GOTO 0x04E5

SUBROUTINE_04E5:
 83: 0x04E5 [0x06] Work_Zone[4] = 0
 84: 0x04E8 [0x3E] IF !(ExtData[1]->WorkLocal[12] bit ExtData[1]->WorkLocal[8]) GOTO 0x04F2
 85: 0x04EF [0x05] Work_Zone[4] = 1
 86: 0x04F2 [0x1D] PRINT_EVENT_MESSAGE(message_id=13049*)
    → "That region is [no longer under your home country's control./currently under your home country's control.] You will require $1 gil or $3 conquest [point/points] to teleport."
 87: 0x04F5 [0x23] WAIT_FOR_DIALOG_INTERACTION
 88: 0x04F6 [0x24] CREATE_DIALOG(message_id=13051*, default_option=3*, option_flags=1*)
    → "Teleport? [Yes./Teleport with gil./Teleport with conquest points./Later.]"
 89: 0x04FD [0x25] WAIT_DIALOG_SELECT()
 90: 0x04FE [0x02] IF !(Work_Zone[0] == 1*) GOTO 0x053E
 91: 0x0506 [0x3E] IF !(ExtData[1]->WorkLocal[17] bit 0*) GOTO 0x0532
 92: 0x050D [0x40] SET_BIT_WORK_RANGE(start_bit=0*, end_bit=9*, target=Work_Zone[1], source=ExtData[1]->WorkLocal[8])
 93: 0x0516 [0x3D] CLEAR_BIT_FLAG_CONDITIONAL(target_work_offset=Work_Zone[1], bit_index_work_offset=10*, condition_work_offset=1*)
 94: 0x051D [0x1D] PRINT_EVENT_MESSAGE(message_id=13052*)
    → "Have a wonderful journey!"
 95: 0x0520 [0x23] WAIT_FOR_DIALOG_INTERACTION
 96: 0x0521 [0x73] EventEntity casts magic 122* on LocalPlayer
 97: 0x052C [0x1C] WAIT(260* ticks)
 98: 0x052F [0x01] GOTO 0x053B
 99: 0x0532 [0x1D] PRINT_EVENT_MESSAGE(message_id=13055*)
    → "You do not have enough gil. Please come back again."
100: 0x0535 [0x23] WAIT_FOR_DIALOG_INTERACTION
101: 0x0536 [0x03] Work_Zone[1] = 1073741824*

SUBROUTINE_053B:
102: 0x053B [0x01] GOTO 0x0592
103: 0x053E [0x02] IF !(Work_Zone[0] == 2*) GOTO 0x057E
104: 0x0546 [0x3E] IF !(ExtData[1]->WorkLocal[17] bit 1*) GOTO 0x0572
105: 0x054D [0x40] SET_BIT_WORK_RANGE(start_bit=0*, end_bit=9*, target=Work_Zone[1], source=ExtData[1]->WorkLocal[8])
106: 0x0556 [0x3C] SET_BIT_FLAG_CONDITIONAL(target_work_offset=Work_Zone[1], bit_index_work_offset=10*, condition_work_offset=1*)
107: 0x055D [0x1D] PRINT_EVENT_MESSAGE(message_id=13052*)
    → "Have a wonderful journey!"
108: 0x0560 [0x23] WAIT_FOR_DIALOG_INTERACTION
109: 0x0561 [0x73] EventEntity casts magic 122* on LocalPlayer
110: 0x056C [0x1C] WAIT(260* ticks)
111: 0x056F [0x01] GOTO 0x057B
112: 0x0572 [0x1D] PRINT_EVENT_MESSAGE(message_id=13057*)
    → "You do not have enough conquest points. Please come back again."
113: 0x0575 [0x23] WAIT_FOR_DIALOG_INTERACTION
114: 0x0576 [0x03] Work_Zone[1] = 1073741824*

SUBROUTINE_057B:
115: 0x057B [0x01] GOTO 0x0592
116: 0x057E [0x02] IF !(Work_Zone[0] == 3*) GOTO 0x0592
117: 0x0586 [0x1D] PRINT_EVENT_MESSAGE(message_id=13059*)
    → "We look forward to seeing you again!"
118: 0x0589 [0x23] WAIT_FOR_DIALOG_INTERACTION
119: 0x058A [0x03] Work_Zone[1] = 1073741824*
120: 0x058F [0x01] GOTO 0x0592

SUBROUTINE_0592:
121: 0x0592 [0x01] GOTO 0x05DF
122: 0x0595 [0x03] Work_Zone[2] = ExtData[1]->WorkLocal[6]
123: 0x059A [0x02] IF !(ExtData[1]->WorkLocal[6] == 0*) GOTO 0x05AA
124: 0x05A2 [0x03] Work_Zone[3] = 4217*
125: 0x05A7 [0x01] GOTO 0x05CA
126: 0x05AA [0x02] IF !(ExtData[1]->WorkLocal[6] == 1*) GOTO 0x05BA
127: 0x05B2 [0x03] Work_Zone[3] = 4216*
128: 0x05B7 [0x01] GOTO 0x05CA
129: 0x05BA [0x02] IF !(ExtData[1]->WorkLocal[6] == 2*) GOTO 0x05CA
130: 0x05C2 [0x03] Work_Zone[3] = 4215*
131: 0x05C7 [0x01] GOTO 0x05CA

SUBROUTINE_05CA:
132: 0x05CA [0x1D] PRINT_EVENT_MESSAGE(message_id=13065*)
    → "Normally, I am only authorized to teleport citizens of [San d'Oria/Bastok/Windurst], but for a limited time only, my services are open to all registered adventurers."
133: 0x05CD [0x23] WAIT_FOR_DIALOG_INTERACTION
134: 0x05CE [0x1D] PRINT_EVENT_MESSAGE(message_id=13066*)
    → "Trade me a mere ten $1 and I will teleport you to the outpost of any region of your choice, regardless of your current level or which nation has control of the area."
135: 0x05D1 [0x23] WAIT_FOR_DIALOG_INTERACTION
136: 0x05D2 [0x1D] PRINT_EVENT_MESSAGE(message_id=13067*)
    → "However, remember that the S.G.T.U will take no responsibility for any...unexpected circumstances that may occur as a result of teleporting to an area with enemies beyond the range of your main job's level."
137: 0x05D5 [0x23] WAIT_FOR_DIALOG_INTERACTION
138: 0x05D6 [0x1D] PRINT_EVENT_MESSAGE(message_id=13068*)
    → "This service will last for the duration of the Starlight Celebration."
139: 0x05D9 [0x23] WAIT_FOR_DIALOG_INTERACTION
140: 0x05DA [0x03] Work_Zone[1] = 1073741824*

SUBROUTINE_05DF:
141: 0x05DF [0x21] END_EVENT
142: 0x05E0 [0x00] END_REQSTACK()
```

### Event 771

#### Metadata

| Field        | Value     |
|--------------|-----------|
| Entrypoint   | 0x05E1    |
| Data Size    | 284 bytes |
| Instructions | 64        |

```
      00 01 02 03 04 05 06 07  08 09 0A 0B 0C 0D 0E 0F
      -- -- -- -- -- -- -- --  -- -- -- -- -- -- -- --
05E0:    03 00 00 02 10 03 01  00 03 10 03 02 00 04 10   ...............
05F0: 03 03 00 05 10 03 04 00  06 10 41 00 80 01 80 07  ..........A.....
0600: 10 05 00 41 02 80 03 80  07 10 06 00 41 04 80 05  ...A........A...
0610: 80 07 10 07 00 03 0B 00  08 10 03 0A 00 09 10 20  ............... 
0620: 01 42 1E F0 FF FF 7F 1D  2F 80 23 02 0A 00 2A 80  .B....../.#...*.
0630: 00 3F 06 1D 0A 80 23 03  01 10 08 80 01 FB 06 24  .?....#........$
0640: 0C 80 0D 80 0A 00 25 02  00 10 05 80 00 57 06 03  ......%......W..
0650: 01 10 30 80 01 FB 06 03  08 00 00 10 03 01 10 08  ..0.............
0660: 00 43 00 43 01 03 12 00  02 10 03 0E 00 03 10 03  .C.C............
0670: 10 00 05 10 03 0F 00 06  10 06 01 10 02 05 00 00  ................
0680: 80 80 8C 06 03 0C 00 00  00 01 AC 06 02 05 00 10  ................
0690: 80 80 9C 06 03 0C 00 01  00 01 AC 06 02 05 00 11  ................
06A0: 80 80 AC 06 03 0C 00 02  00 01 AC 06 06 04 10 3E  ...............>
06B0: 0C 00 08 00 B9 06 05 04  10 1D 31 80 23 24 13 80  ..........1.#$..
06C0: 14 80 1D 80 25 02 00 10  00 80 00 E7 06 03 01 10  ....%...........
06D0: 08 00 1D 15 80 23 73 16  80 F8 FF FF 7F F0 FF FF  .....#s.........
06E0: 7F 1C 17 80 01 FB 06 02  00 10 14 80 00 FB 06 1D  ................
06F0: 1A 80 23 03 01 10 30 80  01 FB 06 21 00           ..#...0....!.   
```

#### Opcodes

```
  0: 0x05E1 [0x03] ExtData[1]->WorkLocal[0] = Work_Zone[2]
  1: 0x05E6 [0x03] ExtData[1]->WorkLocal[1] = Work_Zone[3]
  2: 0x05EB [0x03] ExtData[1]->WorkLocal[2] = Work_Zone[4]
  3: 0x05F0 [0x03] ExtData[1]->WorkLocal[3] = Work_Zone[5]
  4: 0x05F5 [0x03] ExtData[1]->WorkLocal[4] = Work_Zone[6]
  5: 0x05FA [0x41] ExtData[1]->WorkLocal[5] = Work_Zone[7] (bits 0*-7*)
  6: 0x0603 [0x41] ExtData[1]->WorkLocal[6] = Work_Zone[7] (bits 8*-15*)
  7: 0x060C [0x41] ExtData[1]->WorkLocal[7] = Work_Zone[7] (bits 16*-31*)
  8: 0x0615 [0x03] ExtData[1]->WorkLocal[11] = Work_Zone[8]
  9: 0x061A [0x03] ExtData[1]->WorkLocal[10] = Work_Zone[9]
 10: 0x061F [0x20] SET_CLI_EVENT_UC_FLAG: Lock player control
 11: 0x0621 [0x42] SET_CLI_EVENT_CANCEL_DATA()
 12: 0x0622 [0x1E] EventEntity looks at LocalPlayer and starts talking
 13: 0x0627 [0x1D] PRINT_EVENT_MESSAGE(message_id=13069*)
    → "Thank you very much for taking part in our holiday special!"
 14: 0x062A [0x23] WAIT_FOR_DIALOG_INTERACTION
 15: 0x062B [0x02] IF !(ExtData[1]->WorkLocal[10] == 2147483647*) GOTO 0x063F
 16: 0x0633 [0x1D] PRINT_EVENT_MESSAGE(message_id=13053*)
    → "Unfortunately, at this time there is nowhere I can teleport you. Please come again."
 17: 0x0636 [0x23] WAIT_FOR_DIALOG_INTERACTION
 18: 0x0637 [0x03] Work_Zone[1] = 1073741824*
 19: 0x063C [0x01] GOTO 0x06FB
 20: 0x063F [0x24] CREATE_DIALOG(message_id=13037*, default_option=5*, option_flags=ExtData[1]->WorkLocal[10])
    → "Where would you like to teleport to? [./././././The Ronfaure Region./The Zulkheim Region./The Norvallen Region./The Gustaberg Region./The Derfland Region./The Sarutabaruta Region./The Kolshushu Region./The Aragoneu Region./The Fauregandi Region./The Valdeaunia Region./Qufim Island./The Li'Telor Region./The Kuzotz Region./The Vollbow Region./The Elshimo Lowlands Region./The Elshimo Uplands Region./Tu'Lia././The Tavnazian Archipelago./././././././Teleport?/Nowhere at the moment.]"
 21: 0x0646 [0x25] WAIT_DIALOG_SELECT()
 22: 0x0647 [0x02] IF !(Work_Zone[0] == 31*) GOTO 0x0657
 23: 0x064F [0x03] Work_Zone[1] = 4294967295*
 24: 0x0654 [0x01] GOTO 0x06FB
 25: 0x0657 [0x03] ExtData[1]->WorkLocal[8] = Work_Zone[0]
 26: 0x065C [0x03] Work_Zone[1] = ExtData[1]->WorkLocal[8]
 27: 0x0661 [0x43] SEND_EVENT_UPDATE: Send pending tag to server (packet 0x005B)
 28: 0x0663 [0x43] SEND_EVENT_UPDATE: Check pending flag (skip if not pending)
 29: 0x0665 [0x03] ExtData[1]->WorkLocal[18] = Work_Zone[2]
 30: 0x066A [0x03] ExtData[1]->WorkLocal[14] = Work_Zone[3]
 31: 0x066F [0x03] ExtData[1]->WorkLocal[16] = Work_Zone[5]
 32: 0x0674 [0x03] ExtData[1]->WorkLocal[15] = Work_Zone[6]
 33: 0x0679 [0x06] Work_Zone[1] = 0
 34: 0x067C [0x02] IF !(ExtData[1]->WorkLocal[5] == 0*) GOTO 0x068C
 35: 0x0684 [0x03] ExtData[1]->WorkLocal[12] = ExtData[1]->WorkLocal[0]
 36: 0x0689 [0x01] GOTO 0x06AC
 37: 0x068C [0x02] IF !(ExtData[1]->WorkLocal[5] == 1*) GOTO 0x069C
 38: 0x0694 [0x03] ExtData[1]->WorkLocal[12] = ExtData[1]->WorkLocal[1]
 39: 0x0699 [0x01] GOTO 0x06AC
 40: 0x069C [0x02] IF !(ExtData[1]->WorkLocal[5] == 2*) GOTO 0x06AC
 41: 0x06A4 [0x03] ExtData[1]->WorkLocal[12] = ExtData[1]->WorkLocal[2]
 42: 0x06A9 [0x01] GOTO 0x06AC

SUBROUTINE_06AC:
 43: 0x06AC [0x06] Work_Zone[4] = 0
 44: 0x06AF [0x3E] IF !(ExtData[1]->WorkLocal[12] bit ExtData[1]->WorkLocal[8]) GOTO 0x06B9
 45: 0x06B6 [0x05] Work_Zone[4] = 1
 46: 0x06B9 [0x1D] PRINT_EVENT_MESSAGE(message_id=13072*)
    → "The recommended level for the requested area is $0. Are you sure you would like to teleport there?"
 47: 0x06BC [0x23] WAIT_FOR_DIALOG_INTERACTION
 48: 0x06BD [0x24] CREATE_DIALOG(message_id=13051*, default_option=3*, option_flags=6*)
    → "Teleport? [Yes./Teleport with gil./Teleport with conquest points./Later.]"
 49: 0x06C4 [0x25] WAIT_DIALOG_SELECT()
 50: 0x06C5 [0x02] IF !(Work_Zone[0] == 0*) GOTO 0x06E7
 51: 0x06CD [0x03] Work_Zone[1] = ExtData[1]->WorkLocal[8]
 52: 0x06D2 [0x1D] PRINT_EVENT_MESSAGE(message_id=13052*)
    → "Have a wonderful journey!"
 53: 0x06D5 [0x23] WAIT_FOR_DIALOG_INTERACTION
 54: 0x06D6 [0x73] EventEntity casts magic 122* on LocalPlayer
 55: 0x06E1 [0x1C] WAIT(260* ticks)
 56: 0x06E4 [0x01] GOTO 0x06FB
 57: 0x06E7 [0x02] IF !(Work_Zone[0] == 3*) GOTO 0x06FB
 58: 0x06EF [0x1D] PRINT_EVENT_MESSAGE(message_id=13059*)
    → "We look forward to seeing you again!"
 59: 0x06F2 [0x23] WAIT_FOR_DIALOG_INTERACTION
 60: 0x06F3 [0x03] Work_Zone[1] = 4294967295*
 61: 0x06F8 [0x01] GOTO 0x06FB

SUBROUTINE_06FB:
 62: 0x06FB [0x21] END_EVENT
 63: 0x06FC [0x00] END_REQSTACK()
```
