# 17723639 - Ulmia

## Common Data

| Field            | Value                         |
|------------------|-------------------------------|
| Zone             | Northern San d'Oria (ID: 231) |
| Block Size       | 652 bytes                     |
| Total Events     | 18                            |
| References Count | 33                            |

## List of Events

| Event ID                   | Entrypoint   |   Size |   Instructions |
|----------------------------|--------------|--------|----------------|
| [65535](#event-65535)      | 0x0000       |     13 |              3 |
| [38](#event-38)            | 0x000D       |     10 |              2 |
| [65535.1](#event-655351)   | 0x0017       |     23 |              5 |
| [65535.2](#event-655352)   | 0x002E       |     14 |              4 |
| [65535.3](#event-655353)   | 0x003C       |     24 |              6 |
| [51](#event-51)            | 0x0054       |     27 |              5 |
| [65535.4](#event-655354)   | 0x006F       |     22 |              6 |
| [65535.5](#event-655355)   | 0x0085       |     33 |              6 |
| [14](#event-14)            | 0x00A6       |     10 |              2 |
| [65535.6](#event-655356)   | 0x00B0       |     22 |              6 |
| [65535.7](#event-655357)   | 0x00C6       |     90 |             18 |
| [65535.8](#event-655358)   | 0x0120       |     16 |              2 |
| [65535.9](#event-655359)   | 0x0130       |     29 |              3 |
| [65535.10](#event-6553510) | 0x014D       |     16 |              2 |
| [65535.11](#event-6553511) | 0x015D       |     16 |              2 |
| [65535.12](#event-6553512) | 0x016D       |     29 |              3 |
| [65535.13](#event-6553513) | 0x018A       |     16 |              2 |
| [65535.14](#event-6553514) | 0x019A       |     19 |              3 |

## DAT References (imed_data)

|   Index | Hex Value   |   Dec Value |
|---------|-------------|-------------|
|       0 | 0x18B22     |      101154 |
|       1 | 0x1FEA0     |      130720 |
|       2 | 0x0000      |           0 |
|       3 | 0x09E4      |        2532 |
|       4 | 0x000D      |          13 |
|       5 | 0x18021     |       98337 |
|       6 | 0x20660     |      132704 |
|       7 | 0x18BE9     |      101353 |
|       8 | 0x1EECE     |      126670 |
|       9 | 0xFFFFFFEF  |  4294967279 |
|      10 | 0x209A3     |      133539 |
|      11 | 0x1E87B     |      125051 |
|      12 | 0x1963      |        6499 |
|      13 | 0x0DF9      |        3577 |
|      14 | 0x21A26     |      137766 |
|      15 | 0x1F7F2     |      129010 |
|      16 | 0x22333     |      140083 |
|      17 | 0x20A20     |      133664 |
|      18 | 0x0EA8      |        3752 |
|      19 | 0xFFFFF448  |  4294964296 |
|      20 | 0x0BB8      |        3000 |
|      21 | 0x22A49     |      141897 |
|      22 | 0x21B5F     |      138079 |
|      23 | 0x0EF3      |        3827 |
|      24 | 0x23DB2     |      146866 |
|      25 | 0x22468     |      140392 |
|      26 | 0xEBE0      |       60384 |
|      27 | 0xCF63      |       53091 |
|      28 | 0x0E00      |        3584 |
|      29 | 0x0FA0      |        4000 |
|      30 | 0x2710      |       10000 |
|      31 | 0x01A4      |         420 |
|      32 | 0x003C      |          60 |

## Events

### Event 65535

#### Metadata

| Field        | Value    |
|--------------|----------|
| Entrypoint   | 0x0000   |
| Data Size    | 13 bytes |
| Instructions | 3        |

```
      00 01 02 03 04 05 06 07  08 09 0A 0B 0C 0D 0E 0F
      -- -- -- -- -- -- -- --  -- -- -- -- -- -- -- --
0000: 94 01 F8 FF FF 7F 92 01  F8 FF FF 7F 00           .............   
```

#### Opcodes

```
  0: 0x0000 [0x94] EventEntity->Render.Flags3 ^= 0x01
  1: 0x0006 [0x92] EventEntity->Render.Flags3 ^= 0x01
  2: 0x000C [0x00] END_REQSTACK()
```

### Event 38

#### Metadata

| Field        | Value    |
|--------------|----------|
| Entrypoint   | 0x000D   |
| Data Size    | 10 bytes |
| Instructions | 2        |

```
      00 01 02 03 04 05 06 07  08 09 0A 0B 0C 0D 0E 0F
      -- -- -- -- -- -- -- --  -- -- -- -- -- -- -- --
0000:                                         37 00 80               7..
0010: 01 80 02 80 03 80 00                              .......         
```

#### Opcodes

```
  0: 0x000D [0x37] UPDATE_EVENT_POSITION_AND_DIR: x=101.154*, z=130.720*, y=0.000*, direction=222.5°*
  1: 0x0016 [0x00] END_REQSTACK()
```

### Event 65535.1

#### Metadata

| Field        | Value    |
|--------------|----------|
| Entrypoint   | 0x0017   |
| Data Size    | 23 bytes |
| Instructions | 5        |

```
      00 01 02 03 04 05 06 07  08 09 0A 0B 0C 0D 0E 0F
      -- -- -- -- -- -- -- --  -- -- -- -- -- -- -- --
0010:                      32  04 80 1F 00 05 80 06 80         2........
0020: 02 80 1F 01 4A F7 70 0E  01 18 70 0E 01 00        ....J.p...p...  
```

#### Opcodes

```
  0: 0x0017 [0x32] ExtData[1]->MainSpeed = 13* * 0.1
  1: 0x001A [0x1F] MOVE_ENTITY: EventEntity moves to X=98.337*, Z=132.704*, Y=0.000*
  2: 0x0022 [0x1F] MOVE_ENTITY: Update entity position (mode=1)
  3: 0x0024 [0x4A] Ulmia (ID: 17723639/0x010E70F7) looks at Chasalvige (ID: 17723416/0x010E7018)
  4: 0x002D [0x00] END_REQSTACK()
```

### Event 65535.2

#### Metadata

| Field        | Value    |
|--------------|----------|
| Entrypoint   | 0x002E   |
| Data Size    | 14 bytes |
| Instructions | 4        |

```
      00 01 02 03 04 05 06 07  08 09 0A 0B 0C 0D 0E 0F
      -- -- -- -- -- -- -- --  -- -- -- -- -- -- -- --
0020:                                            32 04                2.
0030: 80 1F 00 07 80 08 80 09  80 1F 01 00              ............    
```

#### Opcodes

```
  0: 0x002E [0x32] ExtData[1]->MainSpeed = 13* * 0.1
  1: 0x0031 [0x1F] MOVE_ENTITY: EventEntity moves to X=101.353*, Z=126.670*, Y=-0.017*
  2: 0x0039 [0x1F] MOVE_ENTITY: Update entity position (mode=1)
  3: 0x003B [0x00] END_REQSTACK()
```

### Event 65535.3

#### Metadata

| Field        | Value    |
|--------------|----------|
| Entrypoint   | 0x003C   |
| Data Size    | 24 bytes |
| Instructions | 6        |

```
      00 01 02 03 04 05 06 07  08 09 0A 0B 0C 0D 0E 0F
      -- -- -- -- -- -- -- --  -- -- -- -- -- -- -- --
0030:                                      32 04 80 37              2..7
0040: 0A 80 0B 80 0C 80 0D 80  1F 00 0E 80 0F 80 0C 80  ................
0050: 1F 01 6F 00                                       ..o.            
```

#### Opcodes

```
  0: 0x003C [0x32] ExtData[1]->MainSpeed = 13* * 0.1
  1: 0x003F [0x37] UPDATE_EVENT_POSITION_AND_DIR: x=133.539*, z=125.051*, y=6.499*, direction=314.4°*
  2: 0x0048 [0x1F] MOVE_ENTITY: EventEntity moves to X=137.766*, Z=129.010*, Y=6.499*
  3: 0x0050 [0x1F] MOVE_ENTITY: Update entity position (mode=1)
  4: 0x0052 [0x6F] WAIT_FRAME_DELAY: Yield until WaitTime reaches zero
  5: 0x0053 [0x00] END_REQSTACK()
```

### Event 51

#### Metadata

| Field        | Value    |
|--------------|----------|
| Entrypoint   | 0x0054   |
| Data Size    | 27 bytes |
| Instructions | 5        |

```
      00 01 02 03 04 05 06 07  08 09 0A 0B 0C 0D 0E 0F
      -- -- -- -- -- -- -- --  -- -- -- -- -- -- -- --
0050:             37 10 80 11  80 02 80 12 80 03 00 00      7...........
0060: 13 80 1A DC 00 37 01 00  02 00 03 00 04 00 00     .....7......... 
```

#### Opcodes

```
  0: 0x0054 [0x37] UPDATE_EVENT_POSITION_AND_DIR: x=140.083*, z=133.664*, y=0.000*, direction=329.8°*
  1: 0x005D [0x03] ExtData[1]->WorkLocal[0] = 4294964296*
  2: 0x0062 [0x1A] CALL_SUBROUTINE(address=0x00DC)
  3: 0x0065 [0x37] UPDATE_EVENT_POSITION_AND_DIR: x=ExtData[1]->WorkLocal[1], z=ExtData[1]->WorkLocal[2], y=ExtData[1]->WorkLocal[3], direction=ExtData[1]->WorkLocal[4]
  4: 0x006E [0x00] END_REQSTACK()
```

### Event 65535.4

#### Metadata

| Field        | Value    |
|--------------|----------|
| Entrypoint   | 0x006F   |
| Data Size    | 22 bytes |
| Instructions | 6        |

```
      00 01 02 03 04 05 06 07  08 09 0A 0B 0C 0D 0E 0F
      -- -- -- -- -- -- -- --  -- -- -- -- -- -- -- --
0060:                                               03                 .
0070: 00 00 14 80 1A DC 00 32  04 80 1F 00 01 00 02 00  .......2........
0080: 03 00 1F 01 00                                    .....           
```

#### Opcodes

```
  0: 0x006F [0x03] ExtData[1]->WorkLocal[0] = 3000*
  1: 0x0074 [0x1A] CALL_SUBROUTINE(address=0x00DC)
  2: 0x0077 [0x32] ExtData[1]->MainSpeed = 13* * 0.1
  3: 0x007A [0x1F] MOVE_ENTITY: EventEntity moves to X=ExtData[1]->WorkLocal[1], Z=ExtData[1]->WorkLocal[2], Y=ExtData[1]->WorkLocal[3]
  4: 0x0082 [0x1F] MOVE_ENTITY: Update entity position (mode=1)
  5: 0x0084 [0x00] END_REQSTACK()
```

### Event 65535.5

#### Metadata

| Field        | Value    |
|--------------|----------|
| Entrypoint   | 0x0085   |
| Data Size    | 33 bytes |
| Instructions | 6        |

```
      00 01 02 03 04 05 06 07  08 09 0A 0B 0C 0D 0E 0F
      -- -- -- -- -- -- -- --  -- -- -- -- -- -- -- --
0080:                79 00 F7  70 0E 01 0E 70 0E 01 37       y..p...p..7
0090: 15 80 16 80 02 80 17 80  32 04 80 1F 00 18 80 19  ........2.......
00A0: 80 02 80 1F 01 00                                 ......          
```

#### Opcodes

```
  0: 0x0085 [0x79] Ulmia (ID: 17723639/0x010E70F7) looks at Arnau (ID: 17723406/0x010E700E) (Basic look)
  1: 0x008F [0x37] UPDATE_EVENT_POSITION_AND_DIR: x=141.897*, z=138.079*, y=0.000*, direction=336.3°*
  2: 0x0098 [0x32] ExtData[1]->MainSpeed = 13* * 0.1
  3: 0x009B [0x1F] MOVE_ENTITY: EventEntity moves to X=146.866*, Z=140.392*, Y=0.000*
  4: 0x00A3 [0x1F] MOVE_ENTITY: Update entity position (mode=1)
  5: 0x00A5 [0x00] END_REQSTACK()
```

### Event 14

#### Metadata

| Field        | Value    |
|--------------|----------|
| Entrypoint   | 0x00A6   |
| Data Size    | 10 bytes |
| Instructions | 2        |

```
      00 01 02 03 04 05 06 07  08 09 0A 0B 0C 0D 0E 0F
      -- -- -- -- -- -- -- --  -- -- -- -- -- -- -- --
00A0:                   37 1A  80 1B 80 02 80 1C 80 00        7.........
```

#### Opcodes

```
  0: 0x00A6 [0x37] UPDATE_EVENT_POSITION_AND_DIR: x=60.384*, z=53.091*, y=0.000*, direction=315.0°*
  1: 0x00AF [0x00] END_REQSTACK()
```

### Event 65535.6

#### Metadata

| Field        | Value    |
|--------------|----------|
| Entrypoint   | 0x00B0   |
| Data Size    | 22 bytes |
| Instructions | 6        |

```
      00 01 02 03 04 05 06 07  08 09 0A 0B 0C 0D 0E 0F
      -- -- -- -- -- -- -- --  -- -- -- -- -- -- -- --
00B0: 03 00 00 1D 80 1A DC 00  32 04 80 1F 00 01 00 02  ........2.......
00C0: 00 03 00 1F 01 00                                 ......          
```

#### Opcodes

```
  0: 0x00B0 [0x03] ExtData[1]->WorkLocal[0] = 4000*
  1: 0x00B5 [0x1A] CALL_SUBROUTINE(address=0x00DC)
  2: 0x00B8 [0x32] ExtData[1]->MainSpeed = 13* * 0.1
  3: 0x00BB [0x1F] MOVE_ENTITY: EventEntity moves to X=ExtData[1]->WorkLocal[1], Z=ExtData[1]->WorkLocal[2], Y=ExtData[1]->WorkLocal[3]
  4: 0x00C3 [0x1F] MOVE_ENTITY: Update entity position (mode=1)
  5: 0x00C5 [0x00] END_REQSTACK()
```

### Event 65535.7

#### Metadata

| Field        | Value    |
|--------------|----------|
| Entrypoint   | 0x00C6   |
| Data Size    | 90 bytes |
| Instructions | 13       |

```
      00 01 02 03 04 05 06 07  08 09 0A 0B 0C 0D 0E 0F
      -- -- -- -- -- -- -- --  -- -- -- -- -- -- -- --
00C0:                   03 00  00 1E 80 1A DC 00 32 04        ........2.
00D0: 80 1F 00 01 00 02 00 03  00 1F 01 00 3B F8 FF FF  ............;...
00E0: 7F 01 00 02 00 03 00 3A  F8 FF FF 7F 04 00 17 05  .......:........
00F0: 00 04 00 00 00 16 06 00  04 00 00 00 07 01 00 05  ................
0100: 00 07 02 00 06 00 1B 17  05 00 04 00 00 00 16 06  ................
0110: 00 04 00 00 00 07 01 00  05 00 07 02 00 06 00 1B  ................
```

#### Opcodes

```
  0: 0x00C6 [0x03] ExtData[1]->WorkLocal[0] = 10000*
  1: 0x00CB [0x1A] CALL_SUBROUTINE(address=0x00DC)
  2: 0x00CE [0x32] ExtData[1]->MainSpeed = 13* * 0.1
  3: 0x00D1 [0x1F] MOVE_ENTITY: EventEntity moves to X=ExtData[1]->WorkLocal[1], Z=ExtData[1]->WorkLocal[2], Y=ExtData[1]->WorkLocal[3]
  4: 0x00D9 [0x1F] MOVE_ENTITY: Update entity position (mode=1)
  5: 0x00DB [0x00] END_REQSTACK()

SUBROUTINE_00DC:
  6: 0x00DC [0x3B] GET_ENTITY_POSITION(entity=EventEntity, x_destination=ExtData[1]->WorkLocal[1], y_destination=ExtData[1]->WorkLocal[2], z_destination=ExtData[1]->WorkLocal[3])
  7: 0x00E7 [0x3A] CONVERT_YAW_TO_BYTE(entity=EventEntity, result_destination=ExtData[1]->WorkLocal[4])
  8: 0x00EE [0x17] ExtData[1]->WorkLocal[5] = cos(ExtData[1]->WorkLocal[4]) * ExtData[1]->WorkLocal[0]
  9: 0x00F5 [0x16] ExtData[1]->WorkLocal[6] = sin(ExtData[1]->WorkLocal[4]) * ExtData[1]->WorkLocal[0]
 10: 0x00FC [0x07] ExtData[1]->WorkLocal[1] += ExtData[1]->WorkLocal[5]
 11: 0x0101 [0x07] ExtData[1]->WorkLocal[2] += ExtData[1]->WorkLocal[6]
 12: 0x0106 [0x1B] RETURN
```

#### Data or dead code:

```
# Dead code (unreachable instructions):
     0x0107 [0x17] ExtData[1]->WorkLocal[5] = cos(ExtData[1]->WorkLocal[4]) * ExtData[1]->WorkLocal[0]
     0x010E [0x16] ExtData[1]->WorkLocal[6] = sin(ExtData[1]->WorkLocal[4]) * ExtData[1]->WorkLocal[0]
     0x0115 [0x07] ExtData[1]->WorkLocal[1] += ExtData[1]->WorkLocal[5]
     0x011A [0x07] ExtData[1]->WorkLocal[2] += ExtData[1]->WorkLocal[6]
     0x011F [0x1B] RETURN
```

### Event 65535.8

#### Metadata

| Field        | Value    |
|--------------|----------|
| Entrypoint   | 0x0120   |
| Data Size    | 16 bytes |
| Instructions | 2        |

```
      00 01 02 03 04 05 06 07  08 09 0A 0B 0C 0D 0E 0F
      -- -- -- -- -- -- -- --  -- -- -- -- -- -- -- --
0120: 5B 1F 80 F8 FF FF 7F F8  FF FF 7F 74 6C 62 30 00  [..........tlb0.
```

#### Opcodes

```
  0: 0x0120 [0x5B] LOAD_EXT_SCHEDULER: Load scheduler "tlb0" with entities [EventEntity, EventEntity], work=420*
  1: 0x012F [0x00] END_REQSTACK()
```

### Event 65535.9

#### Metadata

| Field        | Value    |
|--------------|----------|
| Entrypoint   | 0x0130   |
| Data Size    | 29 bytes |
| Instructions | 3        |

```
      00 01 02 03 04 05 06 07  08 09 0A 0B 0C 0D 0E 0F
      -- -- -- -- -- -- -- --  -- -- -- -- -- -- -- --
0130: 5B 1F 80 F8 FF FF 7F F8  FF FF 7F 74 6C 62 31 53  [..........tlb1S
0140: F8 FF FF 7F F8 FF FF 7F  74 6C 62 31 00           ........tlb1.   
```

#### Opcodes

```
  0: 0x0130 [0x5B] LOAD_EXT_SCHEDULER: Load scheduler "tlb1" with entities [EventEntity, EventEntity], work=420*
  1: 0x013F [0x53] WAIT_SCHEDULER_TASK: Wait for scheduler "tlb1" with entities [EventEntity, EventEntity]
  2: 0x014C [0x00] END_REQSTACK()
```

### Event 65535.10

#### Metadata

| Field        | Value    |
|--------------|----------|
| Entrypoint   | 0x014D   |
| Data Size    | 16 bytes |
| Instructions | 2        |

```
      00 01 02 03 04 05 06 07  08 09 0A 0B 0C 0D 0E 0F
      -- -- -- -- -- -- -- --  -- -- -- -- -- -- -- --
0140:                                         5B 1F 80               [..
0150: F8 FF FF 7F F8 FF FF 7F  74 61 63 30 00           ........tac0.   
```

#### Opcodes

```
  0: 0x014D [0x5B] LOAD_EXT_SCHEDULER: Load scheduler "tac0" with entities [EventEntity, EventEntity], work=420*
  1: 0x015C [0x00] END_REQSTACK()
```

### Event 65535.11

#### Metadata

| Field        | Value    |
|--------------|----------|
| Entrypoint   | 0x015D   |
| Data Size    | 16 bytes |
| Instructions | 2        |

```
      00 01 02 03 04 05 06 07  08 09 0A 0B 0C 0D 0E 0F
      -- -- -- -- -- -- -- --  -- -- -- -- -- -- -- --
0150:                                         5B 1F 80               [..
0160: F8 FF FF 7F F8 FF FF 7F  74 6C 61 30 00           ........tla0.   
```

#### Opcodes

```
  0: 0x015D [0x5B] LOAD_EXT_SCHEDULER: Load scheduler "tla0" with entities [EventEntity, EventEntity], work=420*
  1: 0x016C [0x00] END_REQSTACK()
```

### Event 65535.12

#### Metadata

| Field        | Value    |
|--------------|----------|
| Entrypoint   | 0x016D   |
| Data Size    | 29 bytes |
| Instructions | 3        |

```
      00 01 02 03 04 05 06 07  08 09 0A 0B 0C 0D 0E 0F
      -- -- -- -- -- -- -- --  -- -- -- -- -- -- -- --
0160:                                         5B 1F 80               [..
0170: F8 FF FF 7F F8 FF FF 7F  74 6C 61 31 53 F8 FF FF  ........tla1S...
0180: 7F F8 FF FF 7F 74 6C 61  31 00                    .....tla1.      
```

#### Opcodes

```
  0: 0x016D [0x5B] LOAD_EXT_SCHEDULER: Load scheduler "tla1" with entities [EventEntity, EventEntity], work=420*
  1: 0x017C [0x53] WAIT_SCHEDULER_TASK: Wait for scheduler "tla1" with entities [EventEntity, EventEntity]
  2: 0x0189 [0x00] END_REQSTACK()
```

### Event 65535.13

#### Metadata

| Field        | Value    |
|--------------|----------|
| Entrypoint   | 0x018A   |
| Data Size    | 16 bytes |
| Instructions | 2        |

```
      00 01 02 03 04 05 06 07  08 09 0A 0B 0C 0D 0E 0F
      -- -- -- -- -- -- -- --  -- -- -- -- -- -- -- --
0180:                                5B 1F 80 F8 FF FF            [.....
0190: 7F F8 FF FF 7F 74 6C 63  30 00                    .....tlc0.      
```

#### Opcodes

```
  0: 0x018A [0x5B] LOAD_EXT_SCHEDULER: Load scheduler "tlc0" with entities [EventEntity, EventEntity], work=420*
  1: 0x0199 [0x00] END_REQSTACK()
```

### Event 65535.14

#### Metadata

| Field        | Value    |
|--------------|----------|
| Entrypoint   | 0x019A   |
| Data Size    | 19 bytes |
| Instructions | 3        |

```
      00 01 02 03 04 05 06 07  08 09 0A 0B 0C 0D 0E 0F
      -- -- -- -- -- -- -- --  -- -- -- -- -- -- -- --
0190:                                5B 1F 80 F8 FF FF            [.....
01A0: 7F F8 FF FF 7F 74 6C 63  31 1C 20 80 00           .....tlc1. ..   
```

#### Opcodes

```
  0: 0x019A [0x5B] LOAD_EXT_SCHEDULER: Load scheduler "tlc1" with entities [EventEntity, EventEntity], work=420*
  1: 0x01A9 [0x1C] WAIT(60* ticks)
  2: 0x01AC [0x00] END_REQSTACK()
```
