# 17723407 - Arnau

## Common Data

| Field            | Value                         |
|------------------|-------------------------------|
| Zone             | Northern San d'Oria (ID: 231) |
| Block Size       | 300 bytes                     |
| Total Events     | 8                             |
| References Count | 19                            |

## List of Events

| Event ID                 | Entrypoint   |   Size |   Instructions |
|--------------------------|--------------|--------|----------------|
| [65535](#event-65535)    | 0x0000       |      1 |              1 |
| [1](#event-1)            | 0x0001       |     40 |              7 |
| [65535.1](#event-655351) | 0x0029       |     10 |              2 |
| [65535.2](#event-655352) | 0x0033       |     50 |             15 |
| [65535.3](#event-655353) | 0x0065       |     29 |              3 |
| [65535.4](#event-655354) | 0x0082       |     15 |              3 |
| [65535.5](#event-655355) | 0x0091       |     20 |              6 |
| [65535.6](#event-655356) | 0x00A5       |     10 |              2 |

## DAT References (imed_data)

|   Index | Hex Value   |   Dec Value |
|---------|-------------|-------------|
|       0 | 0x2485A     |      149594 |
|       1 | 0x23629     |      144937 |
|       2 | 0xFFFFFDA7  |  4294966695 |
|       3 | 0x05FF      |        1535 |
|       4 | 0x000A      |          10 |
|       5 | 0x0002      |           2 |
|       6 | 0x0008      |           8 |
|       7 | 0x24564     |      148836 |
|       8 | 0x231FA     |      143866 |
|       9 | 0x001E      |          30 |
|      10 | 0x24684     |      149124 |
|      11 | 0x22FC6     |      143302 |
|      12 | 0x0637      |        1591 |
|      13 | 0x0015      |          21 |
|      14 | 0x0014      |          20 |
|      15 | 0x230A1     |      143521 |
|      16 | 0x23AD3     |      146131 |
|      17 | 0x0000      |           0 |
|      18 | 0x0940      |        2368 |

## Events

### Event 65535

#### Metadata

| Field        | Value   |
|--------------|---------|
| Entrypoint   | 0x0000  |
| Data Size    | 1 bytes |
| Instructions | 1       |

```
      00 01 02 03 04 05 06 07  08 09 0A 0B 0C 0D 0E 0F
      -- -- -- -- -- -- -- --  -- -- -- -- -- -- -- --
0000: 00                                                .               
```

#### Opcodes

```
  0: 0x0000 [0x00] END_REQSTACK()
```

### Event 1

#### Metadata

| Field        | Value    |
|--------------|----------|
| Entrypoint   | 0x0001   |
| Data Size    | 40 bytes |
| Instructions | 7        |

```
      00 01 02 03 04 05 06 07  08 09 0A 0B 0C 0D 0E 0F
      -- -- -- -- -- -- -- --  -- -- -- -- -- -- -- --
0000:    37 00 80 01 80 02 80  03 80 32 04 80 95 05 80   7........2.....
0010: 86 01 0F 70 0E 01 80 F8  FF FF 7F 2C F8 FF FF 7F  ...p.......,....
0020: F8 FF FF 7F 77 6F 6E 34  00                       ....won4.       
```

#### Opcodes

```
  0: 0x0001 [0x37] UPDATE_EVENT_POSITION_AND_DIR: x=149.594*, z=144.937*, y=-0.601*, direction=134.9째*
  1: 0x000A [0x32] ExtData[1]->MainSpeed = 10* * 0.1
  2: 0x000D [0x95] SETUP_EVENT_NPC: Prepare NPC for event (Render.Flags3 = 2*)
  3: 0x0010 [0x86] Arnau (ID: 17723407/0x010E700F)->Render.Flags3 ^= 0x01
  4: 0x0016 [0x80] LOAD_WAIT(entity=EventEntity)
  5: 0x001B [0x2C] CREATE_SCHEDULER_TASK: Create scheduler "won4" with entities [EventEntity, EventEntity]
  6: 0x0028 [0x00] END_REQSTACK()
```

### Event 65535.1

#### Metadata

| Field        | Value    |
|--------------|----------|
| Entrypoint   | 0x0029   |
| Data Size    | 10 bytes |
| Instructions | 2        |

```
      00 01 02 03 04 05 06 07  08 09 0A 0B 0C 0D 0E 0F
      -- -- -- -- -- -- -- --  -- -- -- -- -- -- -- --
0020:                             37 00 80 01 80 02 80           7......
0030: 03 80 00                                          ...             
```

#### Opcodes

```
  0: 0x0029 [0x37] UPDATE_EVENT_POSITION_AND_DIR: x=149.594*, z=144.937*, y=-0.601*, direction=134.9째*
  1: 0x0032 [0x00] END_REQSTACK()
```

### Event 65535.2

#### Metadata

| Field        | Value    |
|--------------|----------|
| Entrypoint   | 0x0033   |
| Data Size    | 50 bytes |
| Instructions | 15       |

```
      00 01 02 03 04 05 06 07  08 09 0A 0B 0C 0D 0E 0F
      -- -- -- -- -- -- -- --  -- -- -- -- -- -- -- --
0030:          32 06 80 1F 00  07 80 08 80 02 80 1F 01     2............
0040: 6F 1C 09 80 1F 00 0A 80  0B 80 02 80 1F 01 6F 1C  o.............o.
0050: 09 80 86 01 0F 70 0E 01  4B F8 FF FF 7F 0C 80 6F  .....p..K......o
0060: 70 32 04 80 00                                    p2...           
```

#### Opcodes

```
  0: 0x0033 [0x32] ExtData[1]->MainSpeed = 8* * 0.1
  1: 0x0036 [0x1F] MOVE_ENTITY: EventEntity moves to X=148.836*, Z=143.866*, Y=-0.601*
  2: 0x003E [0x1F] MOVE_ENTITY: Update entity position (mode=1)
  3: 0x0040 [0x6F] WAIT_FRAME_DELAY: Yield until WaitTime reaches zero
  4: 0x0041 [0x1C] WAIT(30* ticks)
  5: 0x0044 [0x1F] MOVE_ENTITY: EventEntity moves to X=149.124*, Z=143.302*, Y=-0.601*
  6: 0x004C [0x1F] MOVE_ENTITY: Update entity position (mode=1)
  7: 0x004E [0x6F] WAIT_FRAME_DELAY: Yield until WaitTime reaches zero
  8: 0x004F [0x1C] WAIT(30* ticks)
  9: 0x0052 [0x86] Arnau (ID: 17723407/0x010E700F)->Render.Flags3 ^= 0x01
 10: 0x0058 [0x4B] UPDATE_ENTITY_YAW(entity=EventEntity, yaw=8.7째*)
 11: 0x005F [0x6F] WAIT_FRAME_DELAY: Yield until WaitTime reaches zero
 12: 0x0060 [0x70] WAIT_ENTITY_RENDER_FLAG: Wait while EventEntity->Render.Flags3 bit 2 is set (cancel turn if not)
 13: 0x0061 [0x32] ExtData[1]->MainSpeed = 10* * 0.1
 14: 0x0064 [0x00] END_REQSTACK()
```

### Event 65535.3

#### Metadata

| Field        | Value    |
|--------------|----------|
| Entrypoint   | 0x0065   |
| Data Size    | 29 bytes |
| Instructions | 3        |

```
      00 01 02 03 04 05 06 07  08 09 0A 0B 0C 0D 0E 0F
      -- -- -- -- -- -- -- --  -- -- -- -- -- -- -- --
0060:                5B 0D 80  F8 FF FF 7F F8 FF FF 7F       [..........
0070: 6B 65 6E 30 53 F8 FF FF  7F F8 FF FF 7F 6B 65 6E  ken0S........ken
0080: 30 00                                             0.              
```

#### Opcodes

```
  0: 0x0065 [0x5B] LOAD_EXT_SCHEDULER: Load scheduler "ken0" with entities [EventEntity, EventEntity], work=21*
  1: 0x0074 [0x53] WAIT_SCHEDULER_TASK: Wait for scheduler "ken0" with entities [EventEntity, EventEntity]
  2: 0x0081 [0x00] END_REQSTACK()
```

### Event 65535.4

#### Metadata

| Field        | Value    |
|--------------|----------|
| Entrypoint   | 0x0082   |
| Data Size    | 15 bytes |
| Instructions | 3        |

```
      00 01 02 03 04 05 06 07  08 09 0A 0B 0C 0D 0E 0F
      -- -- -- -- -- -- -- --  -- -- -- -- -- -- -- --
0080:       2C F8 FF FF 7F F8  FF FF 7F 77 6F 66 34 96    ,........wof4.
0090: 00                                                .               
```

#### Opcodes

```
  0: 0x0082 [0x2C] CREATE_SCHEDULER_TASK: Create scheduler "wof4" with entities [EventEntity, EventEntity]
  1: 0x008F [0x96] UNSET_EVENT_NPC: Restore NPC after event (removes event NPC status)
  2: 0x0090 [0x00] END_REQSTACK()
```

### Event 65535.5

#### Metadata

| Field        | Value    |
|--------------|----------|
| Entrypoint   | 0x0091   |
| Data Size    | 20 bytes |
| Instructions | 6        |

```
      00 01 02 03 04 05 06 07  08 09 0A 0B 0C 0D 0E 0F
      -- -- -- -- -- -- -- --  -- -- -- -- -- -- -- --
0090:    32 0E 80 1F 00 0F 80  10 80 11 80 1F 01 6F 1E   2............o.
00A0: CF 70 0E 01 00                                    .p...           
```

#### Opcodes

```
  0: 0x0091 [0x32] ExtData[1]->MainSpeed = 20* * 0.1
  1: 0x0094 [0x1F] MOVE_ENTITY: EventEntity moves to X=143.521*, Z=146.131*, Y=0.000*
  2: 0x009C [0x1F] MOVE_ENTITY: Update entity position (mode=1)
  3: 0x009E [0x6F] WAIT_FRAME_DELAY: Yield until WaitTime reaches zero
  4: 0x009F [0x1E] EventEntity looks at Rochefogne (ID: 17723599/0x010E70CF) and starts talking
  5: 0x00A4 [0x00] END_REQSTACK()
```

### Event 65535.6

#### Metadata

| Field        | Value    |
|--------------|----------|
| Entrypoint   | 0x00A5   |
| Data Size    | 10 bytes |
| Instructions | 2        |

```
      00 01 02 03 04 05 06 07  08 09 0A 0B 0C 0D 0E 0F
      -- -- -- -- -- -- -- --  -- -- -- -- -- -- -- --
00A0:                37 0F 80  10 80 11 80 12 80 00          7......... 
```

#### Opcodes

```
  0: 0x00A5 [0x37] UPDATE_EVENT_POSITION_AND_DIR: x=143.521*, z=146.131*, y=0.000*, direction=208.1째*
  1: 0x00AE [0x00] END_REQSTACK()
```
