# 17723430 - Ramua

## Common Data

| Field            | Value                         |
|------------------|-------------------------------|
| Zone             | Northern San d'Oria (ID: 231) |
| Block Size       | 5616 bytes                    |
| Total Events     | 9                             |
| References Count | 119                           |

## List of Events

| Event ID              | Entrypoint   |   Size |   Instructions |
|-----------------------|--------------|--------|----------------|
| [65535](#event-65535) | 0x0000       |      1 |              1 |
| [625](#event-625)     | 0x0001       |    844 |            173 |
| [856](#event-856)     | 0x034D       |   1261 |            178 |
| [857](#event-857)     | 0x083A       |      6 |              4 |
| [858](#event-858)     | 0x0840       |    783 |            140 |
| [859](#event-859)     | 0x0B4F       |    922 |            138 |
| [860](#event-860)     | 0x0EE9       |    812 |            103 |
| [861](#event-861)     | 0x1215       |    453 |             71 |
| [560](#event-560)     | 0x13DA       |      6 |              4 |

## DAT References (imed_data)

|   Index | Hex Value   |   Dec Value |
|---------|-------------|-------------|
|       0 | 0x0001      |           1 |
|       1 | 0x1B4C      |        6988 |
|       2 | 0x0002      |           2 |
|       3 | 0x0000      |           0 |
|       4 | 0x1BA0      |        7072 |
|       5 | 0x1BA2      |        7074 |
|       6 | 0x00C8      |         200 |
|       7 | 0x005A      |          90 |
|       8 | 0x008C      |         140 |
|       9 | 0x000F      |          15 |
|      10 | 0x000A      |          10 |
|      11 | 0x1B7D      |        7037 |
|      12 | 0x40000000  |  1073741824 |
|      13 | 0x0010      |          16 |
|      14 | 0x0003      |           3 |
|      15 | 0x0004      |           4 |
|      16 | 0x0005      |           5 |
|      17 | 0x0006      |           6 |
|      18 | 0x0007      |           7 |
|      19 | 0x0008      |           8 |
|      20 | 0x0009      |           9 |
|      21 | 0x000B      |          11 |
|      22 | 0x000C      |          12 |
|      23 | 0x000D      |          13 |
|      24 | 0x000E      |          14 |
|      25 | 0x0011      |          17 |
|      26 | 0x1B7E      |        7038 |
|      27 | 0x1BB4      |        7092 |
|      28 | 0x1BA3      |        7075 |
|      29 | 0x1B51      |        6993 |
|      30 | 0x1B77      |        7031 |
|      31 | 0x1B55      |        6997 |
|      32 | 0x1B54      |        6996 |
|      33 | 0x1B53      |        6995 |
|      34 | 0x1B52      |        6994 |
|      35 | 0x1BA4      |        7076 |
|      36 | 0x1B9F      |        7071 |
|      37 | 0x003C      |          60 |
|      38 | 0x0013      |          19 |
|      39 | 0x015D      |         349 |
|      40 | 0xFFFD398E  |  4294785422 |
|      41 | 0x3EF3A     |      257850 |
|      42 | 0x2EDF      |       11999 |
|      43 | 0x07E2      |        2018 |
|      44 | 0x0156      |         342 |
|      45 | 0x455D      |       17757 |
|      46 | 0xFFFD3230  |  4294783536 |
|      47 | 0x3E98B     |      256395 |
|      48 | 0x0BB0      |        2992 |
|      49 | 0x001E      |          30 |
|      50 | 0x455E      |       17758 |
|      51 | 0x455F      |       17759 |
|      52 | 0x4560      |       17760 |
|      53 | 0x4561      |       17761 |
|      54 | 0x0020      |          32 |
|      55 | 0x4562      |       17762 |
|      56 | 0x4563      |       17763 |
|      57 | 0x4564      |       17764 |
|      58 | 0x0015      |          21 |
|      59 | 0x4565      |       17765 |
|      60 | 0x4566      |       17766 |
|      61 | 0x4568      |       17768 |
|      62 | 0x4567      |       17767 |
|      63 | 0x4569      |       17769 |
|      64 | 0x456A      |       17770 |
|      65 | 0x0429      |        1065 |
|      66 | 0x456B      |       17771 |
|      67 | 0x456C      |       17772 |
|      68 | 0x456D      |       17773 |
|      69 | 0x456E      |       17774 |
|      70 | 0x0024      |          36 |
|      71 | 0x03FD      |        1021 |
|      72 | 0x4570      |       17776 |
|      73 | 0x4571      |       17777 |
|      74 | 0x001D      |          29 |
|      75 | 0x456F      |       17775 |
|      76 | 0xFFFD30A7  |  4294783143 |
|      77 | 0x3EFCE     |      257998 |
|      78 | 0x035D      |         861 |
|      79 | 0x4572      |       17778 |
|      80 | 0x4573      |       17779 |
|      81 | 0x001A      |          26 |
|      82 | 0x457B      |       17787 |
|      83 | 0x457C      |       17788 |
|      84 | 0x4579      |       17785 |
|      85 | 0x4578      |       17784 |
|      86 | 0x4577      |       17783 |
|      87 | 0x4576      |       17782 |
|      88 | 0x4574      |       17780 |
|      89 | 0x4575      |       17781 |
|      90 | 0x457D      |       17789 |
|      91 | 0x457E      |       17790 |
|      92 | 0x458D      |       17805 |
|      93 | 0x0022      |          34 |
|      94 | 0x4587      |       17799 |
|      95 | 0x458B      |       17803 |
|      96 | 0x458A      |       17802 |
|      97 | 0x4589      |       17801 |
|      98 | 0x4588      |       17800 |
|      99 | 0x458E      |       17806 |
|     100 | 0x00C9      |         201 |
|     101 | 0x458F      |       17807 |
|     102 | 0x4590      |       17808 |
|     103 | 0x02B0      |         688 |
|     104 | 0x02BA      |         698 |
|     105 | 0x457F      |       17791 |
|     106 | 0x02B8      |         696 |
|     107 | 0x02B7      |         695 |
|     108 | 0x4580      |       17792 |
|     109 | 0x02B5      |         693 |
|     110 | 0x02BB      |         699 |
|     111 | 0x4581      |       17793 |
|     112 | 0x4582      |       17794 |
|     113 | 0x4583      |       17795 |
|     114 | 0x4584      |       17796 |
|     115 | 0x4846      |       18502 |
|     116 | 0x4585      |       17797 |
|     117 | 0x4586      |       17798 |
|     118 | 0x2CFB      |       11515 |

## String References

- **6988**: Request...? [[Advanced synthesis/Synthesis/Synthesis] image support./Information on synthesis materials./Nothing.]
- **6993**: Necessary skills: [Fishing/Woodworking/Smithing/Goldsmithing/Clothcraft/Leatherworking/Bonecraft/Alchemy/Cooking][ /, Woodworking/, Smithing/, Goldsmithing/, Clothcraft/, Leatherworking/, Bonecraft/, Alchemy/, Cooking][ /, Woodworking/, Smithing/, Goldsmithing/, Clothcraft/, Leatherworking/, Bonecraft/, Alchemy/, Cooking][ /, & Woodworking/, & Smithing/, & Goldsmithing/, & Clothcraft/, & Leatherworking/, & Bonecraft/, & Alchemy/, & Cooking] Necessary crystal: $4 Necessary items:
- **6994**: $4 x $0 $5 x $0$0 $6 x $0 $7 x $0$3
- **6995**: $4 x $0 $5 x $0$0 $6 x $0
- **6996**: $4 x $0 $5 x $0$0
- **6997**: $4 x $0
- **7031**: Necessary skills: [Fishing/Woodworking/Smithing/Goldsmithing/Clothcraft/Leatherworking/Bonecraft/Alchemy/Cooking][ /, Woodworking/, Smithing/, Goldsmithing/, Clothcraft/, Leatherworking/, Bonecraft/, Alchemy/, Cooking][ /, Woodworking/, Smithing/, Goldsmithing/, Clothcraft/, Leatherworking/, Bonecraft/, Alchemy/, Cooking][ /, & Woodworking/, & Smithing/, & Goldsmithing/, & Clothcraft/, & Leatherworking/, & Bonecraft/, & Alchemy/, & Cooking] Necessary crystal: $4 Necessary key item: $3 Necessary items:
- **7037**: Which rank of synthesis do you ask about? [Never mind./Amateur./Recruit./Initiate./Novice./Apprentice./Journeyman./Craftsman./Artisan./Adept./Veteran./Expert./Authority./Luminary./Master./Grandmaster.]
- **7038**: Which synthesis recipe do you ask about? [None./%./$1./$2./$3./$4./$5./$6./$7./$8./$9./$10./$11./$12./$13./$14./$15./View more recipes.]
- **7071**: Hello! Sorry, but I am busy at the moment! Good day!
- **7072**: I am sorry, but I cannot help you at the moment!
- **7074**: Do not worry! I know what I am doing! Now please close your eyes...
- **7075**: Yes. Why not try $0? It requires...
- **7076**: I heard that if you travel to the forest on a chocobo, you are likely to find good timber...but do not tell Amarefice I told you his secret.
- **7092**: The synthesis items for that rank are still beyond your skill, I'm afraid.
- **11515**: Should you wish to refine your skill, craft the same thing over and over. Work hard, and you may become known among us.
- **17757**: You there! Yes, you! Come here for a moment.
- **17758**: You are a member of the Carpenters' Guild, are you not?
- **17759**: The splinters in your hands told me as much. And your eyes tell me that you'd be just the one to aid a fellow guildswoman in her time of need... Am I right?
- **17760**: I trust you've heard of the periodic timber survey conducted by our guild?
- **17761**: 'Tis a simple enough, if uninspiring affair. Travel to all regions with harvestable trees and ensure that there has been no deterioration in the quality of the timber.
- **17762**: As guild tradition goes, I and my fellow greenhorns were tapped by the guildmaster for this tedious task.
- **17763**: My overachieving guildmates have already submitted their reports, leaving only my assigned area--Jugner Forest--incomplete. But look at me! Armoires to assemble, bookshelves to build... I can scarcely afford a moment away from my sawhorse!
- **17764**: Sadly, Grand Master Ulycille isn't hearing any of my excuses. Just look at her eyes! If I don't finish the survey soon, her quill pen dagger is going to coming flying through my skull like a nail through wood! At best, I'll be expelled from the guild.
- **17765**: That's where you come in. I need you to travel to Jugner Forest and complete this survey for me.
- **17766**: What do you say? [My pleasure!/Not today.]
- **17767**: Hmph! Fine, then! Just don't expect any favors when you become old Ulycille's next target!
- **17768**: Splendid! I knew I could count on a fellow carpenter. Now then, allow me to explain the details.
- **17769**: As I said before, the task is quite simple.
- **17770**: First, you must venture forth to Jugner Forest.
- **17771**: Once there, you need only seek out the varieties of timber listed here on this $3, determine whether or not they can be harvested, and make note of the results.
- **17772**: Return to me with the $3 and one log of each type of timber you felled, and your task is complete!
- **17773**: Easy as hammering a nail, is it not? So are you ready to go forth?
- **17774**: Ready? [Sure am!/Could you explain that again?]
- **17775**: What's the matter? Sawdust clogging your ears? Okay, but listen carefully this time.
- **17776**: Wonderful! You're quite literally saving my life. Anyway, here's the $3 and a freshly sharpened $1 to aid you in your task. Best of luck to you!
- **17777**: My future as a carpenter is in your hands. I know you won't let me down!
- **17778**: Back so soon? Let's take a look at your $3.
- **17779**: Now let's see here...
- **17780**: Excellent! You've completed the entire checklist!
- **17781**: Needless to say, you remembered to bring back a sample of each type of timber, did you not?
- **17782**: Almost there! Just $1 remaining, and you'll be done.
- **17783**: You're still missing $1 and $2.
- **17784**: You still need $1 and $2. $3 as well.
- **17785**: You're still missing $1 and $2. Oh, and $3 and $4 as well.
- **17787**: What's this? Not even a single sample? I didn't entrust you with this survey so you could go on a pleasant forest stroll. You actually have to harvest the timber, you know!
- **17788**: You'll have to return to Jugner Forest to complete the survey.
- **17789**: ...And that makes five. Splendid work!
- **17790**: Now, I just need to inspect each of the specimens to ensure that the information on your $3 is accurate.
- **17791**: Let's see here, we have $1, $2...
- **17792**: $3 and $4... Yes, yes...
- **17793**: And last but not least, $5.
- **17794**: Why yes, it appears that your timber samples are in order--which means that Jugner Forest is all clear for harvesting! Tremendous work, <Player>!
- **17795**: If it's all the same to you, I'll pass your $3 along to the guildmaster. Fear not--I'll be sure to give you due credit for your deeds.
- **17796**: As for the timber you harvested, you may keep it for your own purposes. Methinks you could fashion yourself a fine flower stand or two...
- **17797**: In any event, my standing in our guild is safe thanks to your efforts. Please accept this $1 as a token of my appreciation. You have my eternal gratitude, friend carpenter!
- **17798**: In any event, my standing in our guild is safe thanks to your efforts. You have my eternal gratitude, friend carpenter!
- **17799**: What's this? The texture of this bark seems curiously...different somehow. Are you certain these logs are from Jugner Forest? Let me take a closer look...
- **17800**: $1...
- **17801**: $1 and $2.
- **17802**: $1, $2, and $3.
- **17803**: $1, $2, and $3. $4 as well!
- **17805**: No, it couldn't be...all of them?
- **17806**: Clearly, these logs are not from Jugner Forest.
- **17807**: Unbelievable...
- **17808**: As I told you before, all samples must be from Jugner Forest. Hey, you're not trying to sabotage our survey, are you!?

## Events

### Event 65535

#### Metadata

| Field        | Value   |
|--------------|---------|
| Entrypoint   | 0x0000  |
| Data Size    | 1 bytes |
| Instructions | 1       |

```
      00 01 02 03 04 05 06 07  08 09 0A 0B 0C 0D 0E 0F
      -- -- -- -- -- -- -- --  -- -- -- -- -- -- -- --
0000: 00                                                .               
```

#### Opcodes

```
  0: 0x0000 [0x00] END_REQSTACK()
```

### Event 625

#### Metadata

| Field        | Value     |
|--------------|-----------|
| Entrypoint   | 0x0001    |
| Data Size    | 844 bytes |
| Instructions | 166       |

```
      00 01 02 03 04 05 06 07  08 09 0A 0B 0C 0D 0E 0F
      -- -- -- -- -- -- -- --  -- -- -- -- -- -- -- --
0000:    3E 05 10 00 80 47 03  24 01 80 02 80 03 80 25   >....G.$......%
0010: 02 00 10 03 80 00 59 00  02 07 10 03 80 01 27 00  ......Y.......'.
0020: 1D 04 80 23 01 56 00 1D  05 80 23 42 45 06 80 F8  ...#.V....#BE...
0030: FF FF 7F F8 FF FF 7F 66  64 6F 31 03 80 1C 07 80  .......fdo1.....
0040: 45 06 80 F8 FF FF 7F F8  FF FF 7F 66 64 69 31 03  E..........fdi1.
0050: 80 03 01 10 00 80 01 44  03 02 00 10 00 80 00 39  .......D.......9
0060: 03 03 08 10 00 80 03 03  00 08 10 03 05 00 03 10  ................
0070: 06 00 00 03 02 00 08 80  03 01 00 09 80 02 03 10  ................
0080: 02 00 05 8F 00 3C 00 00  01 00 00 80 01 92 00 01  .....<..........
0090: A5 00 02 01 00 02 80 02  A5 00 0C 01 00 08 02 00  ................
00A0: 0A 80 01 7D 00 24 0B 80  03 80 00 00 25 02 00 10  ...}.$......%...
00B0: 03 80 00 BF 00 03 01 10  0C 80 21 00 01 BF 00 03  ..........!.....
00C0: 04 00 00 10 0C 04 00 03  06 00 03 80 03 07 00 0D  ................
00D0: 80 8C 02 03 00 05 00 04  00 06 00 07 00 8C 01 03  ................
00E0: 00 00 03 80 02 02 10 03  80 00 F2 00 06 40 10 01  .............@..
00F0: 2D 02 02 03 10 03 80 00  01 01 3C 00 00 02 80 00  -.........<.....
0100: 80 02 04 10 03 80 00 10  01 3C 00 00 0E 80 00 80  .........<......
0110: 02 05 10 03 80 00 1F 01  3C 00 00 0F 80 00 80 02  ........<.......
0120: 06 10 03 80 00 2E 01 3C  00 00 10 80 00 80 02 07  .......<........
0130: 10 03 80 00 3D 01 3C 00  00 11 80 00 80 02 08 10  ....=.<.........
0140: 03 80 00 4C 01 3C 00 00  12 80 00 80 02 09 10 03  ...L.<..........
0150: 80 00 5B 01 3C 00 00 13  80 00 80 02 00 17 03 80  ..[.<...........
0160: 00 6A 01 3C 00 00 14 80  00 80 02 01 17 03 80 00  .j.<............
0170: 79 01 3C 00 00 0A 80 00  80 02 02 17 03 80 00 88  y.<.............
0180: 01 3C 00 00 15 80 00 80  02 03 17 03 80 00 97 01  .<..............
0190: 3C 00 00 16 80 00 80 02  04 17 03 80 00 A6 01 3C  <..............<
01A0: 00 00 17 80 00 80 02 05  17 03 80 00 B5 01 3C 00  ..............<.
01B0: 00 18 80 00 80 02 06 17  03 80 00 C4 01 3C 00 00  .............<..
01C0: 09 80 00 80 02 07 17 03  80 00 D3 01 3C 00 00 0D  ............<...
01D0: 80 00 80 02 08 17 03 80  00 E2 01 3C 00 00 19 80  ...........<....
01E0: 00 80 24 1A 80 03 80 00  00 25 02 00 10 03 80 00  ..$......%......
01F0: FC 01 03 01 10 0C 80 21  00 01 14 02 02 00 10 19  .......!........
0200: 80 00 14 02 07 06 00 0D  80 07 07 00 0D 80 01 D1  ................
0210: 00 01 14 02 03 08 00 06  00 07 08 00 00 10 0C 08  ................
0220: 00 8C 03 03 00 05 00 04  00 08 00 8C 01 02 40 10  ..............@.
0230: 03 80 00 3B 02 1D 1B 80  23 21 00 03 02 10 40 10  ...;....#!....@.
0240: 1D 1C 80 23 03 08 10 00  80 03 03 10 41 10 03 04  ...#........A...
0250: 10 42 10 03 05 10 43 10  03 06 10 44 10 03 07 10  .B....C....D....
0260: 55 10 02 07 10 03 80 00  71 02 48 1D 80 23 01 75  U.......q.H..#.u
0270: 02 48 1E 80 23 03 02 10  45 10 03 03 10 46 10 03  .H..#...E....F..
0280: 04 10 47 10 03 05 10 48  10 03 06 10 4D 10 03 07  ..G....H....M...
0290: 10 4E 10 03 08 10 4F 10  03 09 10 50 10 02 07 10  .N....O....P....
02A0: 03 80 00 AC 02 48 1F 80  23 01 32 03 02 08 10 03  .....H..#.2.....
02B0: 80 00 BB 02 48 20 80 23  01 32 03 02 09 10 03 80  ....H .#.2......
02C0: 00 CA 02 48 21 80 23 01  32 03 48 22 80 23 03 02  ...H!.#.2.H".#..
02D0: 10 49 10 03 03 10 4A 10  03 04 10 4B 10 03 05 10  .I....J....K....
02E0: 4C 10 03 06 10 51 10 03  07 10 52 10 03 08 10 53  L....Q....R....S
02F0: 10 03 09 10 54 10 02 06  10 03 80 00 01 03 01 32  ....T..........2
0300: 03 02 07 10 03 80 00 10  03 48 1F 80 23 01 32 03  .........H..#.2.
0310: 02 08 10 03 80 00 1F 03  48 20 80 23 01 32 03 02  ........H .#.2..
0320: 09 10 03 80 00 2E 03 48  21 80 23 01 32 03 48 22  .......H!.#.2.H"
0330: 80 23 1D 23 80 23 01 44  03 02 00 10 02 80 00 44  .#.#.#.D.......D
0340: 03 01 44 03 01 4B 03 1D  24 80 23 21 00           ..D..K..$.#!.   
```

#### Opcodes

```
  0: 0x0001 [0x3E] IF !(Work_Zone[5] bit 1*) GOTO 0x0347
  1: 0x0008 [0x24] CREATE_DIALOG(message_id=6988*, default_option=2*, option_flags=0*)
    → "Request...? [[Advanced synthesis/Synthesis/Synthesis] image support./Information on synthesis materials./Nothing.]"
  2: 0x000F [0x25] WAIT_DIALOG_SELECT()
  3: 0x0010 [0x02] IF !(Work_Zone[0] == 0*) GOTO 0x0059
  4: 0x0018 [0x02] IF !(Work_Zone[7] == 0*) GOTO 0x0027
  5: 0x0020 [0x1D] PRINT_EVENT_MESSAGE(message_id=7072*)
    → "I am sorry, but I cannot help you at the moment!"
  6: 0x0023 [0x23] WAIT_FOR_DIALOG_INTERACTION
  7: 0x0024 [0x01] GOTO 0x0056
  8: 0x0027 [0x1D] PRINT_EVENT_MESSAGE(message_id=7074*)
    → "Do not worry! I know what I am doing! Now please close your eyes..."
  9: 0x002A [0x23] WAIT_FOR_DIALOG_INTERACTION
 10: 0x002B [0x42] SET_CLI_EVENT_CANCEL_DATA()
 11: 0x002C [0x45] LOAD_SCHEDULED_TASK: Load scheduler "fdo1" with entities [EventEntity, EventEntity], work=[200*, 0*]
 12: 0x003D [0x1C] WAIT(90* ticks)
 13: 0x0040 [0x45] LOAD_SCHEDULED_TASK: Load scheduler "fdi1" with entities [EventEntity, EventEntity], work=[200*, 0*]
 14: 0x0051 [0x03] Work_Zone[1] = 1*

SUBROUTINE_0056:
 15: 0x0056 [0x01] GOTO 0x0344
 16: 0x0059 [0x02] IF !(Work_Zone[0] == 1*) GOTO 0x0339
 17: 0x0061 [0x03] Work_Zone[8] = 1*
 18: 0x0066 [0x03] ExtData[1]->WorkLocal[3] = Work_Zone[8]
 19: 0x006B [0x03] ExtData[1]->WorkLocal[5] = Work_Zone[3]
 20: 0x0070 [0x06] ExtData[1]->WorkLocal[0] = 0
 21: 0x0073 [0x03] ExtData[1]->WorkLocal[2] = 140*
 22: 0x0078 [0x03] ExtData[1]->WorkLocal[1] = 15*

SUBROUTINE_007D:
 23: 0x007D [0x02] IF !(Work_Zone[3] > ExtData[1]->WorkLocal[2]) GOTO 0x008F
 24: 0x0085 [0x3C] SET_BIT_FLAG_CONDITIONAL(target_work_offset=ExtData[1]->WorkLocal[0], bit_index_work_offset=ExtData[1]->WorkLocal[1], condition_work_offset=1*)
 25: 0x008C [0x01] GOTO 0x0092
 26: 0x008F [0x01] GOTO 0x00A5

SUBROUTINE_0092:
 27: 0x0092 [0x02] IF !(ExtData[1]->WorkLocal[1] <= 2*) GOTO 0x00A5
 28: 0x009A [0x0C] ExtData[1]->WorkLocal[1]--
 29: 0x009D [0x08] ExtData[1]->WorkLocal[2] -= 10*
 30: 0x00A2 [0x01] GOTO 0x007D

SUBROUTINE_00A5:
 31: 0x00A5 [0x24] CREATE_DIALOG(message_id=7037*, default_option=0*, option_flags=ExtData[1]->WorkLocal[0])
    → "Which rank of synthesis do you ask about? [Never mind./Amateur./Recruit./Initiate./Novice./Apprentice./Journeyman./Craftsman./Artisan./Adept./Veteran./Expert./Authority./Luminary./Master./Grandmaster.]"
 32: 0x00AC [0x25] WAIT_DIALOG_SELECT()
 33: 0x00AD [0x02] IF !(Work_Zone[0] == 0*) GOTO 0x00BF
 34: 0x00B5 [0x03] Work_Zone[1] = 1073741824*
 35: 0x00BA [0x21] END_EVENT
 36: 0x00BB [0x00] END_REQSTACK()

SUBROUTINE_00BF:
 37: 0x00BF [0x03] ExtData[1]->WorkLocal[4] = Work_Zone[0]
 38: 0x00C4 [0x0C] ExtData[1]->WorkLocal[4]--
 39: 0x00C7 [0x03] ExtData[1]->WorkLocal[6] = 0*
 40: 0x00CC [0x03] ExtData[1]->WorkLocal[7] = 16*

SUBROUTINE_00D1:
 41: 0x00D1 [0x8C] CRAFTING_HANDLER(mode=0x02) // Set recipe data
 42: 0x00DD [0x8C] CRAFTING_HANDLER(mode=0x01) // End crafting session
 43: 0x00DF [0x03] ExtData[1]->WorkLocal[0] = 0*
 44: 0x00E4 [0x02] IF !(Work_Zone[2] == 0*) GOTO 0x00F2
 45: 0x00EC [0x06] Work_Zone[64] = 0
 46: 0x00EF [0x01] GOTO 0x022D
 47: 0x00F2 [0x02] IF !(Work_Zone[3] == 0*) GOTO 0x0101
 48: 0x00FA [0x3C] SET_BIT_FLAG_CONDITIONAL(target_work_offset=ExtData[1]->WorkLocal[0], bit_index_work_offset=2*, condition_work_offset=1*)
 49: 0x0101 [0x02] IF !(Work_Zone[4] == 0*) GOTO 0x0110
 50: 0x0109 [0x3C] SET_BIT_FLAG_CONDITIONAL(target_work_offset=ExtData[1]->WorkLocal[0], bit_index_work_offset=3*, condition_work_offset=1*)
 51: 0x0110 [0x02] IF !(Work_Zone[5] == 0*) GOTO 0x011F
 52: 0x0118 [0x3C] SET_BIT_FLAG_CONDITIONAL(target_work_offset=ExtData[1]->WorkLocal[0], bit_index_work_offset=4*, condition_work_offset=1*)
 53: 0x011F [0x02] IF !(Work_Zone[6] == 0*) GOTO 0x012E
 54: 0x0127 [0x3C] SET_BIT_FLAG_CONDITIONAL(target_work_offset=ExtData[1]->WorkLocal[0], bit_index_work_offset=5*, condition_work_offset=1*)
 55: 0x012E [0x02] IF !(Work_Zone[7] == 0*) GOTO 0x013D
 56: 0x0136 [0x3C] SET_BIT_FLAG_CONDITIONAL(target_work_offset=ExtData[1]->WorkLocal[0], bit_index_work_offset=6*, condition_work_offset=1*)
 57: 0x013D [0x02] IF !(Work_Zone[8] == 0*) GOTO 0x014C
 58: 0x0145 [0x3C] SET_BIT_FLAG_CONDITIONAL(target_work_offset=ExtData[1]->WorkLocal[0], bit_index_work_offset=7*, condition_work_offset=1*)
 59: 0x014C [0x02] IF !(Work_Zone[9] == 0*) GOTO 0x015B
 60: 0x0154 [0x3C] SET_BIT_FLAG_CONDITIONAL(target_work_offset=ExtData[1]->WorkLocal[0], bit_index_work_offset=8*, condition_work_offset=1*)
 61: 0x015B [0x02] IF !(Work_Zone_1700[0] == 0*) GOTO 0x016A
 62: 0x0163 [0x3C] SET_BIT_FLAG_CONDITIONAL(target_work_offset=ExtData[1]->WorkLocal[0], bit_index_work_offset=9*, condition_work_offset=1*)
 63: 0x016A [0x02] IF !(Work_Zone_1700[1] == 0*) GOTO 0x0179
 64: 0x0172 [0x3C] SET_BIT_FLAG_CONDITIONAL(target_work_offset=ExtData[1]->WorkLocal[0], bit_index_work_offset=10*, condition_work_offset=1*)
 65: 0x0179 [0x02] IF !(Work_Zone_1700[2] == 0*) GOTO 0x0188
 66: 0x0181 [0x3C] SET_BIT_FLAG_CONDITIONAL(target_work_offset=ExtData[1]->WorkLocal[0], bit_index_work_offset=11*, condition_work_offset=1*)
 67: 0x0188 [0x02] IF !(Work_Zone_1700[3] == 0*) GOTO 0x0197
 68: 0x0190 [0x3C] SET_BIT_FLAG_CONDITIONAL(target_work_offset=ExtData[1]->WorkLocal[0], bit_index_work_offset=12*, condition_work_offset=1*)
 69: 0x0197 [0x02] IF !(Work_Zone_1700[4] == 0*) GOTO 0x01A6
 70: 0x019F [0x3C] SET_BIT_FLAG_CONDITIONAL(target_work_offset=ExtData[1]->WorkLocal[0], bit_index_work_offset=13*, condition_work_offset=1*)
 71: 0x01A6 [0x02] IF !(Work_Zone_1700[5] == 0*) GOTO 0x01B5
 72: 0x01AE [0x3C] SET_BIT_FLAG_CONDITIONAL(target_work_offset=ExtData[1]->WorkLocal[0], bit_index_work_offset=14*, condition_work_offset=1*)
 73: 0x01B5 [0x02] IF !(Work_Zone_1700[6] == 0*) GOTO 0x01C4
 74: 0x01BD [0x3C] SET_BIT_FLAG_CONDITIONAL(target_work_offset=ExtData[1]->WorkLocal[0], bit_index_work_offset=15*, condition_work_offset=1*)
 75: 0x01C4 [0x02] IF !(Work_Zone_1700[7] == 0*) GOTO 0x01D3
 76: 0x01CC [0x3C] SET_BIT_FLAG_CONDITIONAL(target_work_offset=ExtData[1]->WorkLocal[0], bit_index_work_offset=16*, condition_work_offset=1*)
 77: 0x01D3 [0x02] IF !(Work_Zone_1700[8] == 0*) GOTO 0x01E2
 78: 0x01DB [0x3C] SET_BIT_FLAG_CONDITIONAL(target_work_offset=ExtData[1]->WorkLocal[0], bit_index_work_offset=17*, condition_work_offset=1*)
 79: 0x01E2 [0x24] CREATE_DIALOG(message_id=7038*, default_option=0*, option_flags=ExtData[1]->WorkLocal[0])
    → "Which synthesis recipe do you ask about? [None./%./$1./$2./$3./$4./$5./$6./$7./$8./$9./$10./$11./$12./$13./$14./$15./View more recipes.]"
 80: 0x01E9 [0x25] WAIT_DIALOG_SELECT()
 81: 0x01EA [0x02] IF !(Work_Zone[0] == 0*) GOTO 0x01FC
 82: 0x01F2 [0x03] Work_Zone[1] = 1073741824*
 83: 0x01F7 [0x21] END_EVENT
 84: 0x01F8 [0x00] END_REQSTACK()

SUBROUTINE_0214:
 85: 0x0214 [0x03] ExtData[1]->WorkLocal[8] = ExtData[1]->WorkLocal[6]
 86: 0x0219 [0x07] ExtData[1]->WorkLocal[8] += Work_Zone[0]
 87: 0x021E [0x0C] ExtData[1]->WorkLocal[8]--
 88: 0x0221 [0x8C] CRAFTING_HANDLER(mode=0x03) // Get synthesis recipe
 89: 0x022B [0x8C] CRAFTING_HANDLER(mode=0x01) // End crafting session

SUBROUTINE_022D:
 90: 0x022D [0x02] IF !(Work_Zone[64] == 0*) GOTO 0x023B
 91: 0x0235 [0x1D] PRINT_EVENT_MESSAGE(message_id=7092*)
    → "The synthesis items for that rank are still beyond your skill, I'm afraid."
 92: 0x0238 [0x23] WAIT_FOR_DIALOG_INTERACTION
 93: 0x0239 [0x21] END_EVENT
 94: 0x023A [0x00] END_REQSTACK()
 95: 0x023B [0x03] Work_Zone[2] = Work_Zone[64]
 96: 0x0240 [0x1D] PRINT_EVENT_MESSAGE(message_id=7075*)
    → "Yes. Why not try $0? It requires..."
 97: 0x0243 [0x23] WAIT_FOR_DIALOG_INTERACTION
 98: 0x0244 [0x03] Work_Zone[8] = 1*
 99: 0x0249 [0x03] Work_Zone[3] = Work_Zone[65]
100: 0x024E [0x03] Work_Zone[4] = Work_Zone[66]
101: 0x0253 [0x03] Work_Zone[5] = Work_Zone[67]
102: 0x0258 [0x03] Work_Zone[6] = Work_Zone[68]
103: 0x025D [0x03] Work_Zone[7] = Work_Zone[85]
104: 0x0262 [0x02] IF !(Work_Zone[7] == 0*) GOTO 0x0271
105: 0x026A [0x48] [System] [6993*]:
    → "Necessary skills: [Fishing/Woodworking/Smithing/Goldsmithing/Clothcraft/Leatherworking/Bonecraft/Alchemy/Cooking][ /, Woodworking/, Smithing/, Goldsmithing/, Clothcraft/, Leatherworking/, Bonecraft/, Alchemy/, Cooking][ /, Woodworking/, Smithing/, Goldsmithing/, Clothcraft/, Leatherworking/, Bonecraft/, Alchemy/, Cooking][ /, & Woodworking/, & Smithing/, & Goldsmithing/, & Clothcraft/, & Leatherworking/, & Bonecraft/, & Alchemy/, & Cooking] Necessary crystal: $4 Necessary items:"
106: 0x026D [0x23] WAIT_FOR_DIALOG_INTERACTION
107: 0x026E [0x01] GOTO 0x0275
108: 0x0271 [0x48] [System] [7031*]:
    → "Necessary skills: [Fishing/Woodworking/Smithing/Goldsmithing/Clothcraft/Leatherworking/Bonecraft/Alchemy/Cooking][ /, Woodworking/, Smithing/, Goldsmithing/, Clothcraft/, Leatherworking/, Bonecraft/, Alchemy/, Cooking][ /, Woodworking/, Smithing/, Goldsmithing/, Clothcraft/, Leatherworking/, Bonecraft/, Alchemy/, Cooking][ /, & Woodworking/, & Smithing/, & Goldsmithing/, & Clothcraft/, & Leatherworking/, & Bonecraft/, & Alchemy/, & Cooking] Necessary crystal: $4 Necessary key item: $3 Necessary items:"
109: 0x0274 [0x23] WAIT_FOR_DIALOG_INTERACTION

SUBROUTINE_0275:
110: 0x0275 [0x03] Work_Zone[2] = Work_Zone[69]
111: 0x027A [0x03] Work_Zone[3] = Work_Zone[70]
112: 0x027F [0x03] Work_Zone[4] = Work_Zone[71]
113: 0x0284 [0x03] Work_Zone[5] = Work_Zone[72]
114: 0x0289 [0x03] Work_Zone[6] = Work_Zone[77]
115: 0x028E [0x03] Work_Zone[7] = Work_Zone[78]
116: 0x0293 [0x03] Work_Zone[8] = Work_Zone[79]
117: 0x0298 [0x03] Work_Zone[9] = Work_Zone[80]
118: 0x029D [0x02] IF !(Work_Zone[7] == 0*) GOTO 0x02AC
119: 0x02A5 [0x48] [System] [6997*]:
    → "$4 x $0"
120: 0x02A8 [0x23] WAIT_FOR_DIALOG_INTERACTION
121: 0x02A9 [0x01] GOTO 0x0332
122: 0x02AC [0x02] IF !(Work_Zone[8] == 0*) GOTO 0x02BB
123: 0x02B4 [0x48] [System] [6996*]:
    → "$4 x $0 $5 x $0$0"
124: 0x02B7 [0x23] WAIT_FOR_DIALOG_INTERACTION
125: 0x02B8 [0x01] GOTO 0x0332
126: 0x02BB [0x02] IF !(Work_Zone[9] == 0*) GOTO 0x02CA
127: 0x02C3 [0x48] [System] [6995*]:
    → "$4 x $0 $5 x $0$0 $6 x $0"
128: 0x02C6 [0x23] WAIT_FOR_DIALOG_INTERACTION
129: 0x02C7 [0x01] GOTO 0x0332
130: 0x02CA [0x48] [System] [6994*]:
    → "$4 x $0 $5 x $0$0 $6 x $0 $7 x $0$3"
131: 0x02CD [0x23] WAIT_FOR_DIALOG_INTERACTION
132: 0x02CE [0x03] Work_Zone[2] = Work_Zone[73]
133: 0x02D3 [0x03] Work_Zone[3] = Work_Zone[74]
134: 0x02D8 [0x03] Work_Zone[4] = Work_Zone[75]
135: 0x02DD [0x03] Work_Zone[5] = Work_Zone[76]
136: 0x02E2 [0x03] Work_Zone[6] = Work_Zone[81]
137: 0x02E7 [0x03] Work_Zone[7] = Work_Zone[82]
138: 0x02EC [0x03] Work_Zone[8] = Work_Zone[83]
139: 0x02F1 [0x03] Work_Zone[9] = Work_Zone[84]
140: 0x02F6 [0x02] IF !(Work_Zone[6] == 0*) GOTO 0x0301
141: 0x02FE [0x01] GOTO 0x0332
142: 0x0301 [0x02] IF !(Work_Zone[7] == 0*) GOTO 0x0310
143: 0x0309 [0x48] [System] [6997*]:
    → "$4 x $0"
144: 0x030C [0x23] WAIT_FOR_DIALOG_INTERACTION
145: 0x030D [0x01] GOTO 0x0332
146: 0x0310 [0x02] IF !(Work_Zone[8] == 0*) GOTO 0x031F
147: 0x0318 [0x48] [System] [6996*]:
    → "$4 x $0 $5 x $0$0"
148: 0x031B [0x23] WAIT_FOR_DIALOG_INTERACTION
149: 0x031C [0x01] GOTO 0x0332
150: 0x031F [0x02] IF !(Work_Zone[9] == 0*) GOTO 0x032E
151: 0x0327 [0x48] [System] [6995*]:
    → "$4 x $0 $5 x $0$0 $6 x $0"
152: 0x032A [0x23] WAIT_FOR_DIALOG_INTERACTION
153: 0x032B [0x01] GOTO 0x0332
154: 0x032E [0x48] [System] [6994*]:
    → "$4 x $0 $5 x $0$0 $6 x $0 $7 x $0$3"
155: 0x0331 [0x23] WAIT_FOR_DIALOG_INTERACTION

SUBROUTINE_0332:
156: 0x0332 [0x1D] PRINT_EVENT_MESSAGE(message_id=7076*)
    → "I heard that if you travel to the forest on a chocobo, you are likely to find good timber...but do not tell Amarefice I told you his secret."
157: 0x0335 [0x23] WAIT_FOR_DIALOG_INTERACTION
158: 0x0336 [0x01] GOTO 0x0344
159: 0x0339 [0x02] IF !(Work_Zone[0] == 2*) GOTO 0x0344
160: 0x0341 [0x01] GOTO 0x0344

SUBROUTINE_0344:
161: 0x0344 [0x01] GOTO 0x034B
162: 0x0347 [0x1D] PRINT_EVENT_MESSAGE(message_id=7071*)
    → "Hello! Sorry, but I am busy at the moment! Good day!"
163: 0x034A [0x23] WAIT_FOR_DIALOG_INTERACTION

SUBROUTINE_034B:
164: 0x034B [0x21] END_EVENT
165: 0x034C [0x00] END_REQSTACK()
```

#### Data or dead code:

```
# Dead code (unreachable instructions):
     0x00BC [0x01] GOTO 0x00BF
# Dead code (unreachable instructions):
     0x01F9 [0x01] GOTO 0x0214
     0x0211 [0x01] GOTO 0x0214
```

### Event 856

#### Metadata

| Field        | Value      |
|--------------|------------|
| Entrypoint   | 0x034D     |
| Data Size    | 1261 bytes |
| Instructions | 160        |

```
      00 01 02 03 04 05 06 07  08 09 0A 0B 0C 0D 0E 0F
      -- -- -- -- -- -- -- --  -- -- -- -- -- -- -- --
0340:                                         42 20 01               B .
0350: 46 01 45 06 80 F0 FF FF  7F F0 FF FF 7F 66 64 6F  F.E..........fdo
0360: 31 03 80 1C 25 80 38 26  80 75 00 27 80 75 01 BA  1...%.8&.u.'.u..
0370: F0 FF FF 7F 28 80 29 80  2A 80 2B 80 80 F0 FF FF  ....(.).*.+.....
0380: 7F 79 00 F0 FF FF 7F F0  FF FF 7F 80 26 70 0E 01  .y..........&p..
0390: 92 01 26 70 0E 01 80 24  70 0E 01 80 25 70 0E 01  ..&p...$p...%p..
03A0: 80 EC 70 0E 01 92 01 24  70 0E 01 92 01 25 70 0E  ..p....$p....%p.
03B0: 01 92 01 EC 70 0E 01 45  2C 80 F0 FF FF 7F F0 FF  ....p..E,.......
03C0: FF 7F 6D 6B 30 31 03 80  27 0F F0 FF FF 7F 74 45  ..mk01..'.....tE
03D0: 06 80 F0 FF FF 7F F0 FF  FF 7F 66 64 69 31 03 80  ..........fdi1..
03E0: 1C 25 80 1D 2D 80 23 55  2C 80 F0 FF FF 7F F0 FF  .%..-.#U,.......
03F0: FF 7F 6D 6B 30 31 4A F0  FF FF 7F 26 70 0E 01 6F  ..mk01J....&p..o
0400: 70 1C 25 80 45 06 80 F0  FF FF 7F F0 FF FF 7F 66  p.%.E..........f
0410: 64 6F 31 03 80 1C 25 80  4E 01 26 70 0E 01 2F 00  do1...%.N.&p../.
0420: FF 70 0E 01 4E 00 FF 70  0E 01 BA FF 70 0E 01 2E  .p..N..p....p...
0430: 80 2F 80 2A 80 30 80 80  FF 70 0E 01 92 01 FF 70  ./.*.0...p.....p
0440: 0E 01 4A FF 70 0E 01 F0  FF FF 7F 6F 70 79 00 F0  ..J.p......opy..
0450: FF FF 7F FF 70 0E 01 52  2C 80 F0 FF FF 7F F0 FF  ....p..R,.......
0460: FF 7F 6D 6B 30 31 45 2C  80 F0 FF FF 7F F0 FF FF  ..mk01E,........
0470: 7F 6D 6B 30 32 03 80 45  06 80 F0 FF FF 7F F0 FF  .mk02..E........
0480: FF 7F 66 64 69 31 03 80  1C 25 80 66 31 80 FF 70  ..fdi1...%.f1..p
0490: 0E 01 FF 70 0E 01 74 6C  6B 30 1D 32 80 23 1D 33  ...p..tlk0.2.#.3
04A0: 80 23 52 2C 80 F0 FF FF  7F F0 FF FF 7F 6D 6B 30  .#R,.........mk0
04B0: 32 45 06 80 F0 FF FF 7F  F0 FF FF 7F 6F 76 6C 31  2E..........ovl1
04C0: 03 80 45 2C 80 F0 FF FF  7F F0 FF FF 7F 6D 6B 30  ..E,.........mk0
04D0: 33 03 80 1D 34 80 23 1D  35 80 23 66 31 80 FF 70  3...4.#.5.#f1..p
04E0: 0E 01 FF 70 0E 01 74 6C  6B 31 52 2C 80 F0 FF FF  ...p..tlk1R,....
04F0: 7F F0 FF FF 7F 6D 6B 30  33 45 2C 80 F0 FF FF 7F  .....mk03E,.....
0500: F0 FF FF 7F 6D 6B 30 34  03 80 6E FF 70 0E 01 36  ....mk04..n.p..6
0510: 80 99 FF 70 0E 01 1D 37  80 23 99 FF 70 0E 01 66  ...p...7.#..p..f
0520: 31 80 FF 70 0E 01 FF 70  0E 01 74 6C 6B 30 1D 38  1..p...p..tlk0.8
0530: 80 23 66 31 80 FF 70 0E  01 FF 70 0E 01 74 6C 6B  .#f1..p...p..tlk
0540: 31 1D 39 80 23 55 2C 80  F0 FF FF 7F F0 FF FF 7F  1.9.#U,.........
0550: 6D 6B 30 34 66 31 80 FF  70 0E 01 FF 70 0E 01 70  mk04f1..p...p..p
0560: 6F 69 30 1C 25 80 4A F0  FF FF 7F 24 70 0E 01 6F  oi0.%.J....$p..o
0570: 70 52 2C 80 F0 FF FF 7F  F0 FF FF 7F 6D 6B 30 34  pR,.........mk04
0580: 45 2C 80 F0 FF FF 7F F0  FF FF 7F 6D 6B 30 35 03  E,.........mk05.
0590: 80 55 2C 80 F0 FF FF 7F  F0 FF FF 7F 6D 6B 30 35  .U,.........mk05
05A0: 1C 25 80 6E F0 FF FF 7F  3A 80 99 F0 FF FF 7F 99  .%.n....:.......
05B0: F0 FF FF 7F 66 31 80 FF  70 0E 01 FF 70 0E 01 70  ....f1..p...p..p
05C0: 6F 69 31 53 FF 70 0E 01  FF 70 0E 01 70 6F 69 31  oi1S.p...p..poi1
05D0: 1C 07 80 52 2C 80 F0 FF  FF 7F F0 FF FF 7F 6D 6B  ...R,.........mk
05E0: 30 35 45 06 80 F0 FF FF  7F F0 FF FF 7F 6F 76 6C  05E..........ovl
05F0: 31 03 80 45 2C 80 F0 FF  FF 7F F0 FF FF 7F 6D 6B  1..E,.........mk
0600: 30 33 03 80 4A F0 FF FF  7F FF 70 0E 01 6F 70 66  03..J.....p..opf
0610: 31 80 FF 70 0E 01 FF 70  0E 01 74 6C 6B 30 1D 3B  1..p...p..tlk0.;
0620: 80 23 66 31 80 FF 70 0E  01 FF 70 0E 01 74 6C 6B  .#f1..p...p..tlk
0630: 31 24 3C 80 03 80 03 80  25 02 00 10 03 80 00 5C  1$<.....%......\
0640: 06 6E FF 70 0E 01 17 80  99 FF 70 0E 01 1D 3D 80  .n.p......p...=.
0650: 23 99 FF 70 0E 01 01 7F  06 01 7F 06 02 00 10 00  #..p............
0660: 80 00 7F 06 6E FF 70 0E  01 10 80 99 FF 70 0E 01  ....n.p......p..
0670: 1D 3E 80 23 99 FF 70 0E  01 01 31 06 01 7F 06 52  .>.#..p...1....R
0680: 2C 80 F0 FF FF 7F F0 FF  FF 7F 6D 6B 30 33 45 06  ,.........mk03E.
0690: 80 F0 FF FF 7F F0 FF FF  7F 6F 76 6C 31 03 80 45  .........ovl1..E
06A0: 2C 80 F0 FF FF 7F F0 FF  FF 7F 6D 6B 30 36 03 80  ,.........mk06..
06B0: 66 31 80 FF 70 0E 01 FF  70 0E 01 74 6C 6B 30 1D  f1..p...p..tlk0.
06C0: 3F 80 23 1D 40 80 23 66  31 80 FF 70 0E 01 FF 70  ?.#.@.#f1..p...p
06D0: 0E 01 74 6C 6B 31 52 2C  80 F0 FF FF 7F F0 FF FF  ..tlk1R,........
06E0: 7F 6D 6B 30 36 45 2C 80  F0 FF FF 7F F0 FF FF 7F  .mk06E,.........
06F0: 6D 6B 30 37 03 80 66 31  80 FF 70 0E 01 FF 70 0E  mk07..f1..p...p.
0700: 01 70 61 73 30 53 FF 70  0E 01 FF 70 0E 01 70 61  .pas0S.p...p..pa
0710: 73 30 03 02 10 41 80 1D  42 80 23 1D 43 80 23 52  s0...A..B.#.C.#R
0720: 2C 80 F0 FF FF 7F F0 FF  FF 7F 6D 6B 30 37 45 2C  ,.........mk07E,
0730: 80 F0 FF FF 7F F0 FF FF  7F 6D 6B 30 33 03 80 6E  .........mk03..n
0740: FF 70 0E 01 0A 80 99 FF  70 0E 01 1D 44 80 23 99  .p......p...D.#.
0750: FF 70 0E 01 24 45 80 03  80 03 80 25 02 00 10 03  .p..$E.....%....
0760: 80 00 DF 07 52 2C 80 F0  FF FF 7F F0 FF FF 7F 6D  ....R,.........m
0770: 6B 30 33 45 2C 80 F0 FF  FF 7F F0 FF FF 7F 6D 6B  k03E,.........mk
0780: 30 38 03 80 6E FF 70 0E  01 46 80 99 FF 70 0E 01  08..n.p..F...p..
0790: 03 02 10 41 80 03 03 10  47 80 1D 48 80 23 99 FF  ...A....G..H.#..
07A0: 70 0E 01 66 31 80 FF 70  0E 01 FF 70 0E 01 70 61  p..f1..p...p..pa
07B0: 73 30 53 FF 70 0E 01 FF  70 0E 01 70 61 73 30 6E  s0S.p...p..pas0n
07C0: FF 70 0E 01 16 80 99 FF  70 0E 01 1D 49 80 23 99  .p......p...I.#.
07D0: FF 70 0E 01 03 01 10 00  80 01 02 08 01 02 08 02  .p..............
07E0: 00 10 00 80 00 02 08 6E  FF 70 0E 01 4A 80 99 FF  .......n.p..J...
07F0: 70 0E 01 1D 4B 80 23 99  FF 70 0E 01 01 7F 06 01  p...K.#..p......
0800: 02 08 45 06 80 F0 FF FF  7F F0 FF FF 7F 66 64 6F  ..E..........fdo
0810: 31 03 80 1C 25 80 52 2C  80 F0 FF FF 7F F0 FF FF  1...%.R,........
0820: 7F 6D 6B 30 38 46 00 45  06 80 F0 FF FF 7F F0 FF  .mk08F.E........
0830: FF 7F 66 64 69 31 03 80  21 00                    ..fdi1..!.      
```

#### Opcodes

```
  0: 0x034D [0x42] SET_CLI_EVENT_CANCEL_DATA()
  1: 0x034E [0x20] SET_CLI_EVENT_UC_FLAG: Lock player control
  2: 0x0350 [0x46] CAMERA_CONTROL: Disable user control
  3: 0x0352 [0x45] LOAD_SCHEDULED_TASK: Load scheduler "fdo1" with entities [LocalPlayer, LocalPlayer], work=[200*, 0*]
  4: 0x0363 [0x1C] WAIT(60* ticks)
  5: 0x0366 [0x38] SET_CLIENT_EVENT_MODE(mode=19*)
  6: 0x0369 [0x75] LOAD_ROOM(Load indoor room, room=349*)
  7: 0x036D [0x75] LOAD_ROOM(No action)
  8: 0x036F [0xBA] SET_ENTITY_POSITION(entity_id=LocalPlayer, pos_x=-181.874*, pos_z=257.850*, pos_y=11.999*, direction=177.4°*)
  9: 0x037C [0x80] LOAD_WAIT(entity=LocalPlayer)
 10: 0x0381 [0x79] LocalPlayer looks at LocalPlayer (Basic look)
 11: 0x038B [0x80] LOAD_WAIT(entity=Ramua (ID: 17723430/0x010E7026))
 12: 0x0390 [0x92] Ramua (ID: 17723430/0x010E7026)->Render.Flags3 ^= 0x01
 13: 0x0396 [0x80] LOAD_WAIT(entity=Ulycille (ID: 17723428/0x010E7024))
 14: 0x039B [0x80] LOAD_WAIT(entity=Amarefice (ID: 17723429/0x010E7025))
 15: 0x03A0 [0x80] LOAD_WAIT(entity=Andreas (ID: 17723628/0x010E70EC))
 16: 0x03A5 [0x92] Ulycille (ID: 17723428/0x010E7024)->Render.Flags3 ^= 0x01
 17: 0x03AB [0x92] Amarefice (ID: 17723429/0x010E7025)->Render.Flags3 ^= 0x01
 18: 0x03B1 [0x92] Andreas (ID: 17723628/0x010E70EC)->Render.Flags3 ^= 0x01
 19: 0x03B7 [0x45] LOAD_SCHEDULED_TASK: Load scheduler "mk01" with entities [LocalPlayer, LocalPlayer], work=[342*, 0*]
 20: 0x03C8 [0x27] REQ_SET(priority=0x0F, entity_id=LocalPlayer, tag_num=0x74)
 21: 0x03CF [0x45] LOAD_SCHEDULED_TASK: Load scheduler "fdi1" with entities [LocalPlayer, LocalPlayer], work=[200*, 0*]
 22: 0x03E0 [0x1C] WAIT(60* ticks)
 23: 0x03E3 [0x1D] PRINT_EVENT_MESSAGE(message_id=17757*)
    → "You there! Yes, you! Come here for a moment."
 24: 0x03E6 [0x23] WAIT_FOR_DIALOG_INTERACTION
 25: 0x03E7 [0x55] WAIT_LOAD_SCHEDULER: Wait for scheduler "mk01" with entities [LocalPlayer, LocalPlayer], work=342*
 26: 0x03F6 [0x4A] LocalPlayer looks at Ramua (ID: 17723430/0x010E7026)
 27: 0x03FF [0x6F] WAIT_FRAME_DELAY: Yield until WaitTime reaches zero
 28: 0x0400 [0x70] WAIT_ENTITY_RENDER_FLAG: Wait while EventEntity->Render.Flags3 bit 2 is set (cancel turn if not)
 29: 0x0401 [0x1C] WAIT(60* ticks)
 30: 0x0404 [0x45] LOAD_SCHEDULED_TASK: Load scheduler "fdo1" with entities [LocalPlayer, LocalPlayer], work=[200*, 0*]
 31: 0x0415 [0x1C] WAIT(60* ticks)
 32: 0x0418 [0x4E] SET_ENTITY_HIDE_FLAG: Hide Ramua (ID: 17723430/0x010E7026)
 33: 0x041E [0x2F] Ramua (ID: 17723647/0x010E70FF)->Render.Flags0 &= ~0x80000 // Bit 19
 34: 0x0424 [0x4E] SET_ENTITY_HIDE_FLAG: Show Ramua (ID: 17723647/0x010E70FF)
 35: 0x042A [0xBA] SET_ENTITY_POSITION(entity_id=Ramua (ID: 17723647/0x010E70FF), pos_x=-183.760*, pos_z=256.395*, pos_y=11.999*, direction=263.0°*)
 36: 0x0437 [0x80] LOAD_WAIT(entity=Ramua (ID: 17723647/0x010E70FF))
 37: 0x043C [0x92] Ramua (ID: 17723647/0x010E70FF)->Render.Flags3 ^= 0x01
 38: 0x0442 [0x4A] Ramua (ID: 17723647/0x010E70FF) looks at LocalPlayer
 39: 0x044B [0x6F] WAIT_FRAME_DELAY: Yield until WaitTime reaches zero
 40: 0x044C [0x70] WAIT_ENTITY_RENDER_FLAG: Wait while EventEntity->Render.Flags3 bit 2 is set (cancel turn if not)
 41: 0x044D [0x79] LocalPlayer looks at Ramua (ID: 17723647/0x010E70FF) (Basic look)
 42: 0x0457 [0x52] END_LOAD_SCHEDULER: End scheduler "mk01" with entities [LocalPlayer, LocalPlayer], work=342*
 43: 0x0466 [0x45] LOAD_SCHEDULED_TASK: Load scheduler "mk02" with entities [LocalPlayer, LocalPlayer], work=[342*, 0*]
 44: 0x0477 [0x45] LOAD_SCHEDULED_TASK: Load scheduler "fdi1" with entities [LocalPlayer, LocalPlayer], work=[200*, 0*]
 45: 0x0488 [0x1C] WAIT(60* ticks)
 46: 0x048B [0x66] LOAD_EXT_SCHEDULER_MAIN: Load scheduler "tlk0" with entities [Ramua (ID: 17723647/0x010E70FF), Ramua (ID: 17723647/0x010E70FF)], work=30*
 47: 0x049A [0x1D] PRINT_EVENT_MESSAGE(message_id=17758*)
    → "You are a member of the Carpenters' Guild, are you not?"
 48: 0x049D [0x23] WAIT_FOR_DIALOG_INTERACTION
 49: 0x049E [0x1D] PRINT_EVENT_MESSAGE(message_id=17759*)
    → "The splinters in your hands told me as much. And your eyes tell me that you'd be just the one to aid a fellow guildswoman in her time of need... Am I right?"
 50: 0x04A1 [0x23] WAIT_FOR_DIALOG_INTERACTION
 51: 0x04A2 [0x52] END_LOAD_SCHEDULER: End scheduler "mk02" with entities [LocalPlayer, LocalPlayer], work=342*
 52: 0x04B1 [0x45] LOAD_SCHEDULED_TASK: Load scheduler "ovl1" with entities [LocalPlayer, LocalPlayer], work=[200*, 0*]
 53: 0x04C2 [0x45] LOAD_SCHEDULED_TASK: Load scheduler "mk03" with entities [LocalPlayer, LocalPlayer], work=[342*, 0*]
 54: 0x04D3 [0x1D] PRINT_EVENT_MESSAGE(message_id=17760*)
    → "I trust you've heard of the periodic timber survey conducted by our guild?"
 55: 0x04D6 [0x23] WAIT_FOR_DIALOG_INTERACTION
 56: 0x04D7 [0x1D] PRINT_EVENT_MESSAGE(message_id=17761*)
    → "'Tis a simple enough, if uninspiring affair. Travel to all regions with harvestable trees and ensure that there has been no deterioration in the quality of the timber."
 57: 0x04DA [0x23] WAIT_FOR_DIALOG_INTERACTION
 58: 0x04DB [0x66] LOAD_EXT_SCHEDULER_MAIN: Load scheduler "tlk1" with entities [Ramua (ID: 17723647/0x010E70FF), Ramua (ID: 17723647/0x010E70FF)], work=30*
 59: 0x04EA [0x52] END_LOAD_SCHEDULER: End scheduler "mk03" with entities [LocalPlayer, LocalPlayer], work=342*
 60: 0x04F9 [0x45] LOAD_SCHEDULED_TASK: Load scheduler "mk04" with entities [LocalPlayer, LocalPlayer], work=[342*, 0*]
 61: 0x050A [0x6E] Ramua (ID: 17723647/0x010E70FF) uses emote 32*
 62: 0x0511 [0x99] Wait for Ramua (ID: 17723647/0x010E70FF) animation to complete
 63: 0x0516 [0x1D] PRINT_EVENT_MESSAGE(message_id=17762*)
    → "As guild tradition goes, I and my fellow greenhorns were tapped by the guildmaster for this tedious task."
 64: 0x0519 [0x23] WAIT_FOR_DIALOG_INTERACTION
 65: 0x051A [0x99] Wait for Ramua (ID: 17723647/0x010E70FF) animation to complete
 66: 0x051F [0x66] LOAD_EXT_SCHEDULER_MAIN: Load scheduler "tlk0" with entities [Ramua (ID: 17723647/0x010E70FF), Ramua (ID: 17723647/0x010E70FF)], work=30*
 67: 0x052E [0x1D] PRINT_EVENT_MESSAGE(message_id=17763*)
    → "My overachieving guildmates have already submitted their reports, leaving only my assigned area--Jugner Forest--incomplete. But look at me! Armoires to assemble, bookshelves to build... I can scarcely afford a moment away from my sawhorse!"
 68: 0x0531 [0x23] WAIT_FOR_DIALOG_INTERACTION
 69: 0x0532 [0x66] LOAD_EXT_SCHEDULER_MAIN: Load scheduler "tlk1" with entities [Ramua (ID: 17723647/0x010E70FF), Ramua (ID: 17723647/0x010E70FF)], work=30*
 70: 0x0541 [0x1D] PRINT_EVENT_MESSAGE(message_id=17764*)
    → "Sadly, Grand Master Ulycille isn't hearing any of my excuses. Just look at her eyes! If I don't finish the survey soon, her quill pen dagger is going to coming flying through my skull like a nail through wood! At best, I'll be expelled from the guild."
 71: 0x0544 [0x23] WAIT_FOR_DIALOG_INTERACTION
 72: 0x0545 [0x55] WAIT_LOAD_SCHEDULER: Wait for scheduler "mk04" with entities [LocalPlayer, LocalPlayer], work=342*
 73: 0x0554 [0x66] LOAD_EXT_SCHEDULER_MAIN: Load scheduler "poi0" with entities [Ramua (ID: 17723647/0x010E70FF), Ramua (ID: 17723647/0x010E70FF)], work=30*
 74: 0x0563 [0x1C] WAIT(60* ticks)
 75: 0x0566 [0x4A] LocalPlayer looks at Ulycille (ID: 17723428/0x010E7024)
 76: 0x056F [0x6F] WAIT_FRAME_DELAY: Yield until WaitTime reaches zero
 77: 0x0570 [0x70] WAIT_ENTITY_RENDER_FLAG: Wait while EventEntity->Render.Flags3 bit 2 is set (cancel turn if not)
 78: 0x0571 [0x52] END_LOAD_SCHEDULER: End scheduler "mk04" with entities [LocalPlayer, LocalPlayer], work=342*
 79: 0x0580 [0x45] LOAD_SCHEDULED_TASK: Load scheduler "mk05" with entities [LocalPlayer, LocalPlayer], work=[342*, 0*]
 80: 0x0591 [0x55] WAIT_LOAD_SCHEDULER: Wait for scheduler "mk05" with entities [LocalPlayer, LocalPlayer], work=342*
 81: 0x05A0 [0x1C] WAIT(60* ticks)
 82: 0x05A3 [0x6E] LocalPlayer uses emote 21*
 83: 0x05AA [0x99] Wait for LocalPlayer animation to complete
 84: 0x05AF [0x99] Wait for LocalPlayer animation to complete
 85: 0x05B4 [0x66] LOAD_EXT_SCHEDULER_MAIN: Load scheduler "poi1" with entities [Ramua (ID: 17723647/0x010E70FF), Ramua (ID: 17723647/0x010E70FF)], work=30*
 86: 0x05C3 [0x53] WAIT_SCHEDULER_TASK: Wait for scheduler "poi1" with entities [Ramua (ID: 17723647/0x010E70FF), Ramua (ID: 17723647/0x010E70FF)]
 87: 0x05D0 [0x1C] WAIT(90* ticks)
 88: 0x05D3 [0x52] END_LOAD_SCHEDULER: End scheduler "mk05" with entities [LocalPlayer, LocalPlayer], work=342*
 89: 0x05E2 [0x45] LOAD_SCHEDULED_TASK: Load scheduler "ovl1" with entities [LocalPlayer, LocalPlayer], work=[200*, 0*]
 90: 0x05F3 [0x45] LOAD_SCHEDULED_TASK: Load scheduler "mk03" with entities [LocalPlayer, LocalPlayer], work=[342*, 0*]
 91: 0x0604 [0x4A] LocalPlayer looks at Ramua (ID: 17723647/0x010E70FF)
 92: 0x060D [0x6F] WAIT_FRAME_DELAY: Yield until WaitTime reaches zero
 93: 0x060E [0x70] WAIT_ENTITY_RENDER_FLAG: Wait while EventEntity->Render.Flags3 bit 2 is set (cancel turn if not)
 94: 0x060F [0x66] LOAD_EXT_SCHEDULER_MAIN: Load scheduler "tlk0" with entities [Ramua (ID: 17723647/0x010E70FF), Ramua (ID: 17723647/0x010E70FF)], work=30*
 95: 0x061E [0x1D] PRINT_EVENT_MESSAGE(message_id=17765*)
    → "That's where you come in. I need you to travel to Jugner Forest and complete this survey for me."
 96: 0x0621 [0x23] WAIT_FOR_DIALOG_INTERACTION
 97: 0x0622 [0x66] LOAD_EXT_SCHEDULER_MAIN: Load scheduler "tlk1" with entities [Ramua (ID: 17723647/0x010E70FF), Ramua (ID: 17723647/0x010E70FF)], work=30*
 98: 0x0631 [0x24] CREATE_DIALOG(message_id=17766*, default_option=0*, option_flags=0*)
    → "What do you say? [My pleasure!/Not today.]"
 99: 0x0638 [0x25] WAIT_DIALOG_SELECT()
100: 0x0639 [0x02] IF !(Work_Zone[0] == 0*) GOTO 0x065C
101: 0x0641 [0x6E] Ramua (ID: 17723647/0x010E70FF) uses emote 13*
102: 0x0648 [0x99] Wait for Ramua (ID: 17723647/0x010E70FF) animation to complete
103: 0x064D [0x1D] PRINT_EVENT_MESSAGE(message_id=17768*)
    → "Splendid! I knew I could count on a fellow carpenter. Now then, allow me to explain the details."
104: 0x0650 [0x23] WAIT_FOR_DIALOG_INTERACTION
105: 0x0651 [0x99] Wait for Ramua (ID: 17723647/0x010E70FF) animation to complete
106: 0x0656 [0x01] GOTO 0x067F

SUBROUTINE_067F:
107: 0x067F [0x52] END_LOAD_SCHEDULER: End scheduler "mk03" with entities [LocalPlayer, LocalPlayer], work=342*
108: 0x068E [0x45] LOAD_SCHEDULED_TASK: Load scheduler "ovl1" with entities [LocalPlayer, LocalPlayer], work=[200*, 0*]
109: 0x069F [0x45] LOAD_SCHEDULED_TASK: Load scheduler "mk06" with entities [LocalPlayer, LocalPlayer], work=[342*, 0*]
110: 0x06B0 [0x66] LOAD_EXT_SCHEDULER_MAIN: Load scheduler "tlk0" with entities [Ramua (ID: 17723647/0x010E70FF), Ramua (ID: 17723647/0x010E70FF)], work=30*
111: 0x06BF [0x1D] PRINT_EVENT_MESSAGE(message_id=17769*)
    → "As I said before, the task is quite simple."
112: 0x06C2 [0x23] WAIT_FOR_DIALOG_INTERACTION
113: 0x06C3 [0x1D] PRINT_EVENT_MESSAGE(message_id=17770*)
    → "First, you must venture forth to Jugner Forest."
114: 0x06C6 [0x23] WAIT_FOR_DIALOG_INTERACTION
115: 0x06C7 [0x66] LOAD_EXT_SCHEDULER_MAIN: Load scheduler "tlk1" with entities [Ramua (ID: 17723647/0x010E70FF), Ramua (ID: 17723647/0x010E70FF)], work=30*
116: 0x06D6 [0x52] END_LOAD_SCHEDULER: End scheduler "mk06" with entities [LocalPlayer, LocalPlayer], work=342*
117: 0x06E5 [0x45] LOAD_SCHEDULED_TASK: Load scheduler "mk07" with entities [LocalPlayer, LocalPlayer], work=[342*, 0*]
118: 0x06F6 [0x66] LOAD_EXT_SCHEDULER_MAIN: Load scheduler "pas0" with entities [Ramua (ID: 17723647/0x010E70FF), Ramua (ID: 17723647/0x010E70FF)], work=30*
119: 0x0705 [0x53] WAIT_SCHEDULER_TASK: Wait for scheduler "pas0" with entities [Ramua (ID: 17723647/0x010E70FF), Ramua (ID: 17723647/0x010E70FF)]
120: 0x0712 [0x03] Work_Zone[2] = 1065*
121: 0x0717 [0x1D] PRINT_EVENT_MESSAGE(message_id=17771*)
    → "Once there, you need only seek out the varieties of timber listed here on this $3, determine whether or not they can be harvested, and make note of the results."
122: 0x071A [0x23] WAIT_FOR_DIALOG_INTERACTION
123: 0x071B [0x1D] PRINT_EVENT_MESSAGE(message_id=17772*)
    → "Return to me with the $3 and one log of each type of timber you felled, and your task is complete!"
124: 0x071E [0x23] WAIT_FOR_DIALOG_INTERACTION
125: 0x071F [0x52] END_LOAD_SCHEDULER: End scheduler "mk07" with entities [LocalPlayer, LocalPlayer], work=342*
126: 0x072E [0x45] LOAD_SCHEDULED_TASK: Load scheduler "mk03" with entities [LocalPlayer, LocalPlayer], work=[342*, 0*]
127: 0x073F [0x6E] Ramua (ID: 17723647/0x010E70FF) uses emote 10*
128: 0x0746 [0x99] Wait for Ramua (ID: 17723647/0x010E70FF) animation to complete
129: 0x074B [0x1D] PRINT_EVENT_MESSAGE(message_id=17773*)
    → "Easy as hammering a nail, is it not? So are you ready to go forth?"
130: 0x074E [0x23] WAIT_FOR_DIALOG_INTERACTION
131: 0x074F [0x99] Wait for Ramua (ID: 17723647/0x010E70FF) animation to complete
132: 0x0754 [0x24] CREATE_DIALOG(message_id=17774*, default_option=0*, option_flags=0*)
    → "Ready? [Sure am!/Could you explain that again?]"
133: 0x075B [0x25] WAIT_DIALOG_SELECT()
134: 0x075C [0x02] IF !(Work_Zone[0] == 0*) GOTO 0x07DF
135: 0x0764 [0x52] END_LOAD_SCHEDULER: End scheduler "mk03" with entities [LocalPlayer, LocalPlayer], work=342*
136: 0x0773 [0x45] LOAD_SCHEDULED_TASK: Load scheduler "mk08" with entities [LocalPlayer, LocalPlayer], work=[342*, 0*]
137: 0x0784 [0x6E] Ramua (ID: 17723647/0x010E70FF) uses emote 36*
138: 0x078B [0x99] Wait for Ramua (ID: 17723647/0x010E70FF) animation to complete
139: 0x0790 [0x03] Work_Zone[2] = 1065*
140: 0x0795 [0x03] Work_Zone[3] = 1021*
141: 0x079A [0x1D] PRINT_EVENT_MESSAGE(message_id=17776*)
    → "Wonderful! You're quite literally saving my life. Anyway, here's the $3 and a freshly sharpened $1 to aid you in your task. Best of luck to you!"
142: 0x079D [0x23] WAIT_FOR_DIALOG_INTERACTION
143: 0x079E [0x99] Wait for Ramua (ID: 17723647/0x010E70FF) animation to complete
144: 0x07A3 [0x66] LOAD_EXT_SCHEDULER_MAIN: Load scheduler "pas0" with entities [Ramua (ID: 17723647/0x010E70FF), Ramua (ID: 17723647/0x010E70FF)], work=30*
145: 0x07B2 [0x53] WAIT_SCHEDULER_TASK: Wait for scheduler "pas0" with entities [Ramua (ID: 17723647/0x010E70FF), Ramua (ID: 17723647/0x010E70FF)]
146: 0x07BF [0x6E] Ramua (ID: 17723647/0x010E70FF) uses emote 12*
147: 0x07C6 [0x99] Wait for Ramua (ID: 17723647/0x010E70FF) animation to complete
148: 0x07CB [0x1D] PRINT_EVENT_MESSAGE(message_id=17777*)
    → "My future as a carpenter is in your hands. I know you won't let me down!"
149: 0x07CE [0x23] WAIT_FOR_DIALOG_INTERACTION
150: 0x07CF [0x99] Wait for Ramua (ID: 17723647/0x010E70FF) animation to complete
151: 0x07D4 [0x03] Work_Zone[1] = 1*
152: 0x07D9 [0x01] GOTO 0x0802

SUBROUTINE_0802:
153: 0x0802 [0x45] LOAD_SCHEDULED_TASK: Load scheduler "fdo1" with entities [LocalPlayer, LocalPlayer], work=[200*, 0*]
154: 0x0813 [0x1C] WAIT(60* ticks)
155: 0x0816 [0x52] END_LOAD_SCHEDULER: End scheduler "mk08" with entities [LocalPlayer, LocalPlayer], work=342*
156: 0x0825 [0x46] CAMERA_CONTROL: Restore default settings
157: 0x0827 [0x45] LOAD_SCHEDULED_TASK: Load scheduler "fdi1" with entities [LocalPlayer, LocalPlayer], work=[200*, 0*]
158: 0x0838 [0x21] END_EVENT
159: 0x0839 [0x00] END_REQSTACK()
```

#### Data or dead code:

```
# Dead code (unreachable instructions):
     0x0659 [0x01] GOTO 0x067F
     0x067C [0x01] GOTO 0x067F
# Dead code (unreachable instructions):
     0x07DC [0x01] GOTO 0x0802
     0x07FF [0x01] GOTO 0x0802
```

### Event 857

#### Metadata

| Field        | Value   |
|--------------|---------|
| Entrypoint   | 0x083A  |
| Data Size    | 6 bytes |
| Instructions | 4       |

```
      00 01 02 03 04 05 06 07  08 09 0A 0B 0C 0D 0E 0F
      -- -- -- -- -- -- -- --  -- -- -- -- -- -- -- --
0830:                                1D 49 80 23 21 00            .I.#!.
```

#### Opcodes

```
  0: 0x083A [0x1D] PRINT_EVENT_MESSAGE(message_id=17777*)
    → "My future as a carpenter is in your hands. I know you won't let me down!"
  1: 0x083D [0x23] WAIT_FOR_DIALOG_INTERACTION
  2: 0x083E [0x21] END_EVENT
  3: 0x083F [0x00] END_REQSTACK()
```

### Event 858

#### Metadata

| Field        | Value     |
|--------------|-----------|
| Entrypoint   | 0x0840    |
| Data Size    | 783 bytes |
| Instructions | 140       |

```
      00 01 02 03 04 05 06 07  08 09 0A 0B 0C 0D 0E 0F
      -- -- -- -- -- -- -- --  -- -- -- -- -- -- -- --
0840: 42 20 01 46 01 45 06 80  F0 FF FF 7F F0 FF FF 7F  B .F.E..........
0850: 66 64 6F 31 03 80 1C 25  80 38 26 80 75 00 27 80  fdo1...%.8&.u.'.
0860: 75 01 80 F0 FF FF 7F BA  F0 FF FF 7F 4C 80 4D 80  u...........L.M.
0870: 2A 80 4E 80 4E 01 26 70  0E 01 2F 00 FF 70 0E 01  *.N.N.&p../..p..
0880: 4E 00 FF 70 0E 01 BA FF  70 0E 01 2E 80 2F 80 2A  N..p....p..../.*
0890: 80 30 80 80 FF 70 0E 01  92 01 FF 70 0E 01 4A FF  .0...p.....p..J.
08A0: 70 0E 01 F0 FF FF 7F 6F  70 79 00 F0 FF FF 7F FF  p......opy......
08B0: 70 0E 01 80 24 70 0E 01  80 25 70 0E 01 80 EC 70  p...$p...%p....p
08C0: 0E 01 92 01 24 70 0E 01  92 01 25 70 0E 01 92 01  ....$p....%p....
08D0: EC 70 0E 01 45 2C 80 F0  FF FF 7F F0 FF FF 7F 6D  .p..E,.........m
08E0: 6B 30 32 03 80 45 06 80  F0 FF FF 7F F0 FF FF 7F  k02..E..........
08F0: 66 64 69 31 03 80 1C 25  80 03 09 00 02 10 03 0A  fdi1...%........
0900: 00 03 10 03 0B 00 04 10  03 0C 00 05 10 03 0D 00  ................
0910: 06 10 03 0E 00 07 10 6E  FF 70 0E 01 3A 80 99 FF  .......n.p..:...
0920: 70 0E 01 03 02 10 41 80  1D 4F 80 23 99 FF 70 0E  p.....A..O.#..p.
0930: 01 45 06 80 F0 FF FF 7F  F0 FF FF 7F 66 64 6F 31  .E..........fdo1
0940: 03 80 1C 25 80 52 2C 80  F0 FF FF 7F F0 FF FF 7F  ...%.R,.........
0950: 6D 6B 30 32 45 2C 80 F0  FF FF 7F F0 FF FF 7F 6D  mk02E,.........m
0960: 6B 30 33 03 80 4B FF 70  0E 01 4E 80 1C 07 80 45  k03..K.p..N....E
0970: 06 80 F0 FF FF 7F F0 FF  FF 7F 66 64 69 31 03 80  ..........fdi1..
0980: 6E FF 70 0E 01 36 80 99  FF 70 0E 01 1D 50 80 23  n.p..6...p...P.#
0990: 99 FF 70 0E 01 52 2C 80  F0 FF FF 7F F0 FF FF 7F  ..p..R,.........
09A0: 6D 6B 30 33 4A FF 70 0E  01 F0 FF FF 7F 45 2C 80  mk03J.p......E,.
09B0: F0 FF FF 7F F0 FF FF 7F  6D 6B 30 38 03 80 6F 70  ........mk08..op
09C0: 02 09 00 03 80 80 F5 09  6E FF 70 0E 01 51 80 99  ........n.p..Q..
09D0: FF 70 0E 01 1D 52 80 23  99 FF 70 0E 01 6E FF 70  .p...R.#..p..n.p
09E0: 0E 01 46 80 99 FF 70 0E  01 1D 53 80 23 99 FF 70  ..F...p...S.#..p
09F0: 0E 01 01 17 0B 02 09 00  00 80 80 2D 0A 1A 1B 12  ...........-....
0A00: 6E FF 70 0E 01 11 80 99  FF 70 0E 01 1D 54 80 23  n.p......p...T.#
0A10: 99 FF 70 0E 01 6E FF 70  0E 01 46 80 99 FF 70 0E  ..p..n.p..F...p.
0A20: 01 1D 53 80 23 99 FF 70  0E 01 01 17 0B 02 09 00  ..S.#..p........
0A30: 02 80 80 65 0A 1A 1B 12  6E FF 70 0E 01 11 80 99  ...e....n.p.....
0A40: FF 70 0E 01 1D 55 80 23  99 FF 70 0E 01 6E FF 70  .p...U.#..p..n.p
0A50: 0E 01 46 80 99 FF 70 0E  01 1D 53 80 23 99 FF 70  ..F...p...S.#..p
0A60: 0E 01 01 17 0B 02 09 00  0E 80 80 9D 0A 1A 1B 12  ................
0A70: 6E FF 70 0E 01 11 80 99  FF 70 0E 01 1D 56 80 23  n.p......p...V.#
0A80: 99 FF 70 0E 01 6E FF 70  0E 01 46 80 99 FF 70 0E  ..p..n.p..F...p.
0A90: 01 1D 53 80 23 99 FF 70  0E 01 01 17 0B 02 09 00  ..S.#..p........
0AA0: 0F 80 80 D5 0A 1A 1B 12  6E FF 70 0E 01 11 80 99  ........n.p.....
0AB0: FF 70 0E 01 1D 57 80 23  99 FF 70 0E 01 6E FF 70  .p...W.#..p..n.p
0AC0: 0E 01 46 80 99 FF 70 0E  01 1D 53 80 23 99 FF 70  ..F...p...S.#..p
0AD0: 0E 01 01 17 0B 02 09 00  10 80 80 17 0B 6E FF 70  .............n.p
0AE0: 0E 01 17 80 99 FF 70 0E  01 1D 58 80 23 99 FF 70  ......p...X.#..p
0AF0: 0E 01 66 31 80 FF 70 0E  01 FF 70 0E 01 74 6C 6B  ..f1..p...p..tlk
0B00: 30 1D 59 80 23 66 31 80  FF 70 0E 01 FF 70 0E 01  0.Y.#f1..p...p..
0B10: 74 6C 6B 31 01 17 0B 45  06 80 F0 FF FF 7F F0 FF  tlk1...E........
0B20: FF 7F 66 64 6F 31 03 80  1C 25 80 52 2C 80 F0 FF  ..fdo1...%.R,...
0B30: FF 7F F0 FF FF 7F 6D 6B  30 38 46 00 45 06 80 F0  ......mk08F.E...
0B40: FF FF 7F F0 FF FF 7F 66  64 69 31 03 80 21 00     .......fdi1..!. 
```

#### Opcodes

```
  0: 0x0840 [0x42] SET_CLI_EVENT_CANCEL_DATA()
  1: 0x0841 [0x20] SET_CLI_EVENT_UC_FLAG: Lock player control
  2: 0x0843 [0x46] CAMERA_CONTROL: Disable user control
  3: 0x0845 [0x45] LOAD_SCHEDULED_TASK: Load scheduler "fdo1" with entities [LocalPlayer, LocalPlayer], work=[200*, 0*]
  4: 0x0856 [0x1C] WAIT(60* ticks)
  5: 0x0859 [0x38] SET_CLIENT_EVENT_MODE(mode=19*)
  6: 0x085C [0x75] LOAD_ROOM(Load indoor room, room=349*)
  7: 0x0860 [0x75] LOAD_ROOM(No action)
  8: 0x0862 [0x80] LOAD_WAIT(entity=LocalPlayer)
  9: 0x0867 [0xBA] SET_ENTITY_POSITION(entity_id=LocalPlayer, pos_x=-184.153*, pos_z=257.998*, pos_y=11.999*, direction=75.7°*)
 10: 0x0874 [0x4E] SET_ENTITY_HIDE_FLAG: Hide Ramua (ID: 17723430/0x010E7026)
 11: 0x087A [0x2F] Ramua (ID: 17723647/0x010E70FF)->Render.Flags0 &= ~0x80000 // Bit 19
 12: 0x0880 [0x4E] SET_ENTITY_HIDE_FLAG: Show Ramua (ID: 17723647/0x010E70FF)
 13: 0x0886 [0xBA] SET_ENTITY_POSITION(entity_id=Ramua (ID: 17723647/0x010E70FF), pos_x=-183.760*, pos_z=256.395*, pos_y=11.999*, direction=263.0°*)
 14: 0x0893 [0x80] LOAD_WAIT(entity=Ramua (ID: 17723647/0x010E70FF))
 15: 0x0898 [0x92] Ramua (ID: 17723647/0x010E70FF)->Render.Flags3 ^= 0x01
 16: 0x089E [0x4A] Ramua (ID: 17723647/0x010E70FF) looks at LocalPlayer
 17: 0x08A7 [0x6F] WAIT_FRAME_DELAY: Yield until WaitTime reaches zero
 18: 0x08A8 [0x70] WAIT_ENTITY_RENDER_FLAG: Wait while EventEntity->Render.Flags3 bit 2 is set (cancel turn if not)
 19: 0x08A9 [0x79] LocalPlayer looks at Ramua (ID: 17723647/0x010E70FF) (Basic look)
 20: 0x08B3 [0x80] LOAD_WAIT(entity=Ulycille (ID: 17723428/0x010E7024))
 21: 0x08B8 [0x80] LOAD_WAIT(entity=Amarefice (ID: 17723429/0x010E7025))
 22: 0x08BD [0x80] LOAD_WAIT(entity=Andreas (ID: 17723628/0x010E70EC))
 23: 0x08C2 [0x92] Ulycille (ID: 17723428/0x010E7024)->Render.Flags3 ^= 0x01
 24: 0x08C8 [0x92] Amarefice (ID: 17723429/0x010E7025)->Render.Flags3 ^= 0x01
 25: 0x08CE [0x92] Andreas (ID: 17723628/0x010E70EC)->Render.Flags3 ^= 0x01
 26: 0x08D4 [0x45] LOAD_SCHEDULED_TASK: Load scheduler "mk02" with entities [LocalPlayer, LocalPlayer], work=[342*, 0*]
 27: 0x08E5 [0x45] LOAD_SCHEDULED_TASK: Load scheduler "fdi1" with entities [LocalPlayer, LocalPlayer], work=[200*, 0*]
 28: 0x08F6 [0x1C] WAIT(60* ticks)
 29: 0x08F9 [0x03] ExtData[1]->WorkLocal[9] = Work_Zone[2]
 30: 0x08FE [0x03] ExtData[1]->WorkLocal[10] = Work_Zone[3]
 31: 0x0903 [0x03] ExtData[1]->WorkLocal[11] = Work_Zone[4]
 32: 0x0908 [0x03] ExtData[1]->WorkLocal[12] = Work_Zone[5]
 33: 0x090D [0x03] ExtData[1]->WorkLocal[13] = Work_Zone[6]
 34: 0x0912 [0x03] ExtData[1]->WorkLocal[14] = Work_Zone[7]
 35: 0x0917 [0x6E] Ramua (ID: 17723647/0x010E70FF) uses emote 21*
 36: 0x091E [0x99] Wait for Ramua (ID: 17723647/0x010E70FF) animation to complete
 37: 0x0923 [0x03] Work_Zone[2] = 1065*
 38: 0x0928 [0x1D] PRINT_EVENT_MESSAGE(message_id=17778*)
    → "Back so soon? Let's take a look at your $3."
 39: 0x092B [0x23] WAIT_FOR_DIALOG_INTERACTION
 40: 0x092C [0x99] Wait for Ramua (ID: 17723647/0x010E70FF) animation to complete
 41: 0x0931 [0x45] LOAD_SCHEDULED_TASK: Load scheduler "fdo1" with entities [LocalPlayer, LocalPlayer], work=[200*, 0*]
 42: 0x0942 [0x1C] WAIT(60* ticks)
 43: 0x0945 [0x52] END_LOAD_SCHEDULER: End scheduler "mk02" with entities [LocalPlayer, LocalPlayer], work=342*
 44: 0x0954 [0x45] LOAD_SCHEDULED_TASK: Load scheduler "mk03" with entities [LocalPlayer, LocalPlayer], work=[342*, 0*]
 45: 0x0965 [0x4B] UPDATE_ENTITY_YAW(entity=Ramua (ID: 17723647/0x010E70FF), yaw=4.7°*)
 46: 0x096C [0x1C] WAIT(90* ticks)
 47: 0x096F [0x45] LOAD_SCHEDULED_TASK: Load scheduler "fdi1" with entities [LocalPlayer, LocalPlayer], work=[200*, 0*]
 48: 0x0980 [0x6E] Ramua (ID: 17723647/0x010E70FF) uses emote 32*
 49: 0x0987 [0x99] Wait for Ramua (ID: 17723647/0x010E70FF) animation to complete
 50: 0x098C [0x1D] PRINT_EVENT_MESSAGE(message_id=17779*)
    → "Now let's see here..."
 51: 0x098F [0x23] WAIT_FOR_DIALOG_INTERACTION
 52: 0x0990 [0x99] Wait for Ramua (ID: 17723647/0x010E70FF) animation to complete
 53: 0x0995 [0x52] END_LOAD_SCHEDULER: End scheduler "mk03" with entities [LocalPlayer, LocalPlayer], work=342*
 54: 0x09A4 [0x4A] Ramua (ID: 17723647/0x010E70FF) looks at LocalPlayer
 55: 0x09AD [0x45] LOAD_SCHEDULED_TASK: Load scheduler "mk08" with entities [LocalPlayer, LocalPlayer], work=[342*, 0*]
 56: 0x09BE [0x6F] WAIT_FRAME_DELAY: Yield until WaitTime reaches zero
 57: 0x09BF [0x70] WAIT_ENTITY_RENDER_FLAG: Wait while EventEntity->Render.Flags3 bit 2 is set (cancel turn if not)
 58: 0x09C0 [0x02] IF !(ExtData[1]->WorkLocal[9] == 0*) GOTO 0x09F5
 59: 0x09C8 [0x6E] Ramua (ID: 17723647/0x010E70FF) uses emote 26*
 60: 0x09CF [0x99] Wait for Ramua (ID: 17723647/0x010E70FF) animation to complete
 61: 0x09D4 [0x1D] PRINT_EVENT_MESSAGE(message_id=17787*)
    → "What's this? Not even a single sample? I didn't entrust you with this survey so you could go on a pleasant forest stroll. You actually have to harvest the timber, you know!"
 62: 0x09D7 [0x23] WAIT_FOR_DIALOG_INTERACTION
 63: 0x09D8 [0x99] Wait for Ramua (ID: 17723647/0x010E70FF) animation to complete
 64: 0x09DD [0x6E] Ramua (ID: 17723647/0x010E70FF) uses emote 36*
 65: 0x09E4 [0x99] Wait for Ramua (ID: 17723647/0x010E70FF) animation to complete
 66: 0x09E9 [0x1D] PRINT_EVENT_MESSAGE(message_id=17788*)
    → "You'll have to return to Jugner Forest to complete the survey."
 67: 0x09EC [0x23] WAIT_FOR_DIALOG_INTERACTION
 68: 0x09ED [0x99] Wait for Ramua (ID: 17723647/0x010E70FF) animation to complete
 69: 0x09F2 [0x01] GOTO 0x0B17
 70: 0x09F5 [0x02] IF !(ExtData[1]->WorkLocal[9] == 1*) GOTO 0x0A2D
 71: 0x09FD [0x1A] CALL_SUBROUTINE(address=0x121B)
 72: 0x0A00 [0x6E] Ramua (ID: 17723647/0x010E70FF) uses emote 6*
 73: 0x0A07 [0x99] Wait for Ramua (ID: 17723647/0x010E70FF) animation to complete
 74: 0x0A0C [0x1D] PRINT_EVENT_MESSAGE(message_id=17785*)
    → "You're still missing $1 and $2. Oh, and $3 and $4 as well."
 75: 0x0A0F [0x23] WAIT_FOR_DIALOG_INTERACTION
 76: 0x0A10 [0x99] Wait for Ramua (ID: 17723647/0x010E70FF) animation to complete
 77: 0x0A15 [0x6E] Ramua (ID: 17723647/0x010E70FF) uses emote 36*
 78: 0x0A1C [0x99] Wait for Ramua (ID: 17723647/0x010E70FF) animation to complete
 79: 0x0A21 [0x1D] PRINT_EVENT_MESSAGE(message_id=17788*)
    → "You'll have to return to Jugner Forest to complete the survey."
 80: 0x0A24 [0x23] WAIT_FOR_DIALOG_INTERACTION
 81: 0x0A25 [0x99] Wait for Ramua (ID: 17723647/0x010E70FF) animation to complete
 82: 0x0A2A [0x01] GOTO 0x0B17
 83: 0x0A2D [0x02] IF !(ExtData[1]->WorkLocal[9] == 2*) GOTO 0x0A65
 84: 0x0A35 [0x1A] CALL_SUBROUTINE(address=0x121B)
 85: 0x0A38 [0x6E] Ramua (ID: 17723647/0x010E70FF) uses emote 6*
 86: 0x0A3F [0x99] Wait for Ramua (ID: 17723647/0x010E70FF) animation to complete
 87: 0x0A44 [0x1D] PRINT_EVENT_MESSAGE(message_id=17784*)
    → "You still need $1 and $2. $3 as well."
 88: 0x0A47 [0x23] WAIT_FOR_DIALOG_INTERACTION
 89: 0x0A48 [0x99] Wait for Ramua (ID: 17723647/0x010E70FF) animation to complete
 90: 0x0A4D [0x6E] Ramua (ID: 17723647/0x010E70FF) uses emote 36*
 91: 0x0A54 [0x99] Wait for Ramua (ID: 17723647/0x010E70FF) animation to complete
 92: 0x0A59 [0x1D] PRINT_EVENT_MESSAGE(message_id=17788*)
    → "You'll have to return to Jugner Forest to complete the survey."
 93: 0x0A5C [0x23] WAIT_FOR_DIALOG_INTERACTION
 94: 0x0A5D [0x99] Wait for Ramua (ID: 17723647/0x010E70FF) animation to complete
 95: 0x0A62 [0x01] GOTO 0x0B17
 96: 0x0A65 [0x02] IF !(ExtData[1]->WorkLocal[9] == 3*) GOTO 0x0A9D
 97: 0x0A6D [0x1A] CALL_SUBROUTINE(address=0x121B)
 98: 0x0A70 [0x6E] Ramua (ID: 17723647/0x010E70FF) uses emote 6*
 99: 0x0A77 [0x99] Wait for Ramua (ID: 17723647/0x010E70FF) animation to complete
100: 0x0A7C [0x1D] PRINT_EVENT_MESSAGE(message_id=17783*)
    → "You're still missing $1 and $2."
101: 0x0A7F [0x23] WAIT_FOR_DIALOG_INTERACTION
102: 0x0A80 [0x99] Wait for Ramua (ID: 17723647/0x010E70FF) animation to complete
103: 0x0A85 [0x6E] Ramua (ID: 17723647/0x010E70FF) uses emote 36*
104: 0x0A8C [0x99] Wait for Ramua (ID: 17723647/0x010E70FF) animation to complete
105: 0x0A91 [0x1D] PRINT_EVENT_MESSAGE(message_id=17788*)
    → "You'll have to return to Jugner Forest to complete the survey."
106: 0x0A94 [0x23] WAIT_FOR_DIALOG_INTERACTION
107: 0x0A95 [0x99] Wait for Ramua (ID: 17723647/0x010E70FF) animation to complete
108: 0x0A9A [0x01] GOTO 0x0B17
109: 0x0A9D [0x02] IF !(ExtData[1]->WorkLocal[9] == 4*) GOTO 0x0AD5
110: 0x0AA5 [0x1A] CALL_SUBROUTINE(address=0x121B)
111: 0x0AA8 [0x6E] Ramua (ID: 17723647/0x010E70FF) uses emote 6*
112: 0x0AAF [0x99] Wait for Ramua (ID: 17723647/0x010E70FF) animation to complete
113: 0x0AB4 [0x1D] PRINT_EVENT_MESSAGE(message_id=17782*)
    → "Almost there! Just $1 remaining, and you'll be done."
114: 0x0AB7 [0x23] WAIT_FOR_DIALOG_INTERACTION
115: 0x0AB8 [0x99] Wait for Ramua (ID: 17723647/0x010E70FF) animation to complete
116: 0x0ABD [0x6E] Ramua (ID: 17723647/0x010E70FF) uses emote 36*
117: 0x0AC4 [0x99] Wait for Ramua (ID: 17723647/0x010E70FF) animation to complete
118: 0x0AC9 [0x1D] PRINT_EVENT_MESSAGE(message_id=17788*)
    → "You'll have to return to Jugner Forest to complete the survey."
119: 0x0ACC [0x23] WAIT_FOR_DIALOG_INTERACTION
120: 0x0ACD [0x99] Wait for Ramua (ID: 17723647/0x010E70FF) animation to complete
121: 0x0AD2 [0x01] GOTO 0x0B17
122: 0x0AD5 [0x02] IF !(ExtData[1]->WorkLocal[9] == 5*) GOTO 0x0B17
123: 0x0ADD [0x6E] Ramua (ID: 17723647/0x010E70FF) uses emote 13*
124: 0x0AE4 [0x99] Wait for Ramua (ID: 17723647/0x010E70FF) animation to complete
125: 0x0AE9 [0x1D] PRINT_EVENT_MESSAGE(message_id=17780*)
    → "Excellent! You've completed the entire checklist!"
126: 0x0AEC [0x23] WAIT_FOR_DIALOG_INTERACTION
127: 0x0AED [0x99] Wait for Ramua (ID: 17723647/0x010E70FF) animation to complete
128: 0x0AF2 [0x66] LOAD_EXT_SCHEDULER_MAIN: Load scheduler "tlk0" with entities [Ramua (ID: 17723647/0x010E70FF), Ramua (ID: 17723647/0x010E70FF)], work=30*
129: 0x0B01 [0x1D] PRINT_EVENT_MESSAGE(message_id=17781*)
    → "Needless to say, you remembered to bring back a sample of each type of timber, did you not?"
130: 0x0B04 [0x23] WAIT_FOR_DIALOG_INTERACTION
131: 0x0B05 [0x66] LOAD_EXT_SCHEDULER_MAIN: Load scheduler "tlk1" with entities [Ramua (ID: 17723647/0x010E70FF), Ramua (ID: 17723647/0x010E70FF)], work=30*
132: 0x0B14 [0x01] GOTO 0x0B17

SUBROUTINE_0B17:
133: 0x0B17 [0x45] LOAD_SCHEDULED_TASK: Load scheduler "fdo1" with entities [LocalPlayer, LocalPlayer], work=[200*, 0*]
134: 0x0B28 [0x1C] WAIT(60* ticks)
135: 0x0B2B [0x52] END_LOAD_SCHEDULER: End scheduler "mk08" with entities [LocalPlayer, LocalPlayer], work=342*
136: 0x0B3A [0x46] CAMERA_CONTROL: Restore default settings
137: 0x0B3C [0x45] LOAD_SCHEDULED_TASK: Load scheduler "fdi1" with entities [LocalPlayer, LocalPlayer], work=[200*, 0*]
138: 0x0B4D [0x21] END_EVENT
139: 0x0B4E [0x00] END_REQSTACK()
```

### Event 859

#### Metadata

| Field        | Value     |
|--------------|-----------|
| Entrypoint   | 0x0B4F    |
| Data Size    | 922 bytes |
| Instructions | 138       |

```
      00 01 02 03 04 05 06 07  08 09 0A 0B 0C 0D 0E 0F
      -- -- -- -- -- -- -- --  -- -- -- -- -- -- -- --
0B40:                                               42                 B
0B50: 20 01 46 01 45 06 80 F0  FF FF 7F F0 FF FF 7F 66   .F.E..........f
0B60: 64 6F 31 03 80 1C 25 80  38 26 80 75 00 27 80 75  do1...%.8&.u.'.u
0B70: 01 80 F0 FF FF 7F BA F0  FF FF 7F 4C 80 4D 80 2A  ...........L.M.*
0B80: 80 4E 80 4E 01 26 70 0E  01 2F 00 FF 70 0E 01 4E  .N.N.&p../..p..N
0B90: 00 FF 70 0E 01 BA FF 70  0E 01 2E 80 2F 80 2A 80  ..p....p..../.*.
0BA0: 30 80 80 FF 70 0E 01 92  01 FF 70 0E 01 4A FF 70  0...p.....p..J.p
0BB0: 0E 01 F0 FF FF 7F 6F 70  79 00 F0 FF FF 7F FF 70  ......opy......p
0BC0: 0E 01 80 24 70 0E 01 80  25 70 0E 01 80 EC 70 0E  ...$p...%p....p.
0BD0: 01 92 01 24 70 0E 01 92  01 25 70 0E 01 92 01 EC  ...$p....%p.....
0BE0: 70 0E 01 45 2C 80 F0 FF  FF 7F F0 FF FF 7F 6D 6B  p..E,.........mk
0BF0: 30 32 03 80 45 06 80 F0  FF FF 7F F0 FF FF 7F 66  02..E..........f
0C00: 64 69 31 03 80 1C 25 80  03 09 00 02 10 03 0A 00  di1...%.........
0C10: 03 10 03 0B 00 04 10 03  0C 00 05 10 03 0D 00 06  ................
0C20: 10 03 0E 00 07 10 66 31  80 FF 70 0E 01 FF 70 0E  ......f1..p...p.
0C30: 01 74 6C 6B 30 1D 5A 80  23 03 02 10 41 80 1D 5B  .tlk0.Z.#...A..[
0C40: 80 23 66 31 80 FF 70 0E  01 FF 70 0E 01 74 6C 6B  .#f1..p...p..tlk
0C50: 31 45 06 80 F0 FF FF 7F  F0 FF FF 7F 66 64 6F 31  1E..........fdo1
0C60: 03 80 1C 25 80 52 2C 80  F0 FF FF 7F F0 FF FF 7F  ...%.R,.........
0C70: 6D 6B 30 32 45 2C 80 F0  FF FF 7F F0 FF FF 7F 6D  mk02E,.........m
0C80: 6B 30 33 03 80 45 06 80  F0 FF FF 7F F0 FF FF 7F  k03..E..........
0C90: 66 64 69 31 03 80 6E FF  70 0E 01 36 80 99 FF 70  fdi1..n.p..6...p
0CA0: 0E 01 1D 50 80 23 99 FF  70 0E 01 52 2C 80 F0 FF  ...P.#..p..R,...
0CB0: FF 7F F0 FF FF 7F 6D 6B  30 33 45 2C 80 F0 FF FF  ......mk03E,....
0CC0: 7F F0 FF FF 7F 6D 6B 30  38 03 80 02 09 00 03 80  .....mk08.......
0CD0: 80 EB 0C 6E FF 70 0E 01  51 80 99 FF 70 0E 01 1D  ...n.p..Q...p...
0CE0: 5C 80 23 99 FF 70 0E 01  01 FF 0D 02 09 00 00 80  \.#..p..........
0CF0: 80 30 0D 6E FF 70 0E 01  5D 80 99 FF 70 0E 01 1D  .0.n.p..]...p...
0D00: 5E 80 23 99 FF 70 0E 01  1A 1B 12 66 31 80 FF 70  ^.#..p.....f1..p
0D10: 0E 01 FF 70 0E 01 74 6C  6B 30 1D 5F 80 23 66 31  ...p..tlk0._.#f1
0D20: 80 FF 70 0E 01 FF 70 0E  01 74 6C 6B 31 01 FF 0D  ..p...p..tlk1...
0D30: 02 09 00 02 80 80 75 0D  6E FF 70 0E 01 5D 80 99  ......u.n.p..]..
0D40: FF 70 0E 01 1D 5E 80 23  99 FF 70 0E 01 1A 1B 12  .p...^.#..p.....
0D50: 66 31 80 FF 70 0E 01 FF  70 0E 01 74 6C 6B 30 1D  f1..p...p..tlk0.
0D60: 60 80 23 66 31 80 FF 70  0E 01 FF 70 0E 01 74 6C  `.#f1..p...p..tl
0D70: 6B 31 01 FF 0D 02 09 00  0E 80 80 BA 0D 6E FF 70  k1...........n.p
0D80: 0E 01 5D 80 99 FF 70 0E  01 1D 5E 80 23 99 FF 70  ..]...p...^.#..p
0D90: 0E 01 1A 1B 12 66 31 80  FF 70 0E 01 FF 70 0E 01  .....f1..p...p..
0DA0: 74 6C 6B 30 1D 61 80 23  66 31 80 FF 70 0E 01 FF  tlk0.a.#f1..p...
0DB0: 70 0E 01 74 6C 6B 31 01  FF 0D 02 09 00 0F 80 80  p..tlk1.........
0DC0: FF 0D 6E FF 70 0E 01 5D  80 99 FF 70 0E 01 1D 5E  ..n.p..]...p...^
0DD0: 80 23 99 FF 70 0E 01 1A  1B 12 66 31 80 FF 70 0E  .#..p.....f1..p.
0DE0: 01 FF 70 0E 01 74 6C 6B  30 1D 62 80 23 66 31 80  ..p..tlk0.b.#f1.
0DF0: FF 70 0E 01 FF 70 0E 01  74 6C 6B 31 01 FF 0D 6E  .p...p..tlk1...n
0E00: FF 70 0E 01 26 80 99 FF  70 0E 01 1D 63 80 23 99  .p..&...p...c.#.
0E10: FF 70 0E 01 52 2C 80 F0  FF FF 7F F0 FF FF 7F 6D  .p..R,.........m
0E20: 6B 30 38 45 06 80 F0 FF  FF 7F F0 FF FF 7F 62 6C  k08E..........bl
0E30: 6F 6E 03 80 45 64 80 F0  FF FF 7F F0 FF FF 7F 62  on..Ed.........b
0E40: 6C 6F 6E 03 80 45 2C 80  F0 FF FF 7F F0 FF FF 7F  lon..E,.........
0E50: 6D 6B 30 33 03 80 6E FF  70 0E 01 3A 80 99 FF 70  mk03..n.p..:...p
0E60: 0E 01 1D 65 80 23 99 FF  70 0E 01 52 2C 80 F0 FF  ...e.#..p..R,...
0E70: FF 7F F0 FF FF 7F 6D 6B  30 33 45 06 80 F0 FF FF  ......mk03E.....
0E80: 7F F0 FF FF 7F 62 6C 6F  66 03 80 45 2C 80 F0 FF  .....blof..E,...
0E90: FF 7F F0 FF FF 7F 6D 6B  30 37 03 80 6E FF 70 0E  ......mk07..n.p.
0EA0: 01 4A 80 99 FF 70 0E 01  1D 66 80 23 99 FF 70 0E  .J...p...f.#..p.
0EB0: 01 45 06 80 F0 FF FF 7F  F0 FF FF 7F 66 64 6F 31  .E..........fdo1
0EC0: 03 80 1C 25 80 52 2C 80  F0 FF FF 7F F0 FF FF 7F  ...%.R,.........
0ED0: 6D 6B 30 37 46 00 45 06  80 F0 FF FF 7F F0 FF FF  mk07F.E.........
0EE0: 7F 66 64 69 31 03 80 21  00                       .fdi1..!.       
```

#### Opcodes

```
  0: 0x0B4F [0x42] SET_CLI_EVENT_CANCEL_DATA()
  1: 0x0B50 [0x20] SET_CLI_EVENT_UC_FLAG: Lock player control
  2: 0x0B52 [0x46] CAMERA_CONTROL: Disable user control
  3: 0x0B54 [0x45] LOAD_SCHEDULED_TASK: Load scheduler "fdo1" with entities [LocalPlayer, LocalPlayer], work=[200*, 0*]
  4: 0x0B65 [0x1C] WAIT(60* ticks)
  5: 0x0B68 [0x38] SET_CLIENT_EVENT_MODE(mode=19*)
  6: 0x0B6B [0x75] LOAD_ROOM(Load indoor room, room=349*)
  7: 0x0B6F [0x75] LOAD_ROOM(No action)
  8: 0x0B71 [0x80] LOAD_WAIT(entity=LocalPlayer)
  9: 0x0B76 [0xBA] SET_ENTITY_POSITION(entity_id=LocalPlayer, pos_x=-184.153*, pos_z=257.998*, pos_y=11.999*, direction=75.7°*)
 10: 0x0B83 [0x4E] SET_ENTITY_HIDE_FLAG: Hide Ramua (ID: 17723430/0x010E7026)
 11: 0x0B89 [0x2F] Ramua (ID: 17723647/0x010E70FF)->Render.Flags0 &= ~0x80000 // Bit 19
 12: 0x0B8F [0x4E] SET_ENTITY_HIDE_FLAG: Show Ramua (ID: 17723647/0x010E70FF)
 13: 0x0B95 [0xBA] SET_ENTITY_POSITION(entity_id=Ramua (ID: 17723647/0x010E70FF), pos_x=-183.760*, pos_z=256.395*, pos_y=11.999*, direction=263.0°*)
 14: 0x0BA2 [0x80] LOAD_WAIT(entity=Ramua (ID: 17723647/0x010E70FF))
 15: 0x0BA7 [0x92] Ramua (ID: 17723647/0x010E70FF)->Render.Flags3 ^= 0x01
 16: 0x0BAD [0x4A] Ramua (ID: 17723647/0x010E70FF) looks at LocalPlayer
 17: 0x0BB6 [0x6F] WAIT_FRAME_DELAY: Yield until WaitTime reaches zero
 18: 0x0BB7 [0x70] WAIT_ENTITY_RENDER_FLAG: Wait while EventEntity->Render.Flags3 bit 2 is set (cancel turn if not)
 19: 0x0BB8 [0x79] LocalPlayer looks at Ramua (ID: 17723647/0x010E70FF) (Basic look)
 20: 0x0BC2 [0x80] LOAD_WAIT(entity=Ulycille (ID: 17723428/0x010E7024))
 21: 0x0BC7 [0x80] LOAD_WAIT(entity=Amarefice (ID: 17723429/0x010E7025))
 22: 0x0BCC [0x80] LOAD_WAIT(entity=Andreas (ID: 17723628/0x010E70EC))
 23: 0x0BD1 [0x92] Ulycille (ID: 17723428/0x010E7024)->Render.Flags3 ^= 0x01
 24: 0x0BD7 [0x92] Amarefice (ID: 17723429/0x010E7025)->Render.Flags3 ^= 0x01
 25: 0x0BDD [0x92] Andreas (ID: 17723628/0x010E70EC)->Render.Flags3 ^= 0x01
 26: 0x0BE3 [0x45] LOAD_SCHEDULED_TASK: Load scheduler "mk02" with entities [LocalPlayer, LocalPlayer], work=[342*, 0*]
 27: 0x0BF4 [0x45] LOAD_SCHEDULED_TASK: Load scheduler "fdi1" with entities [LocalPlayer, LocalPlayer], work=[200*, 0*]
 28: 0x0C05 [0x1C] WAIT(60* ticks)
 29: 0x0C08 [0x03] ExtData[1]->WorkLocal[9] = Work_Zone[2]
 30: 0x0C0D [0x03] ExtData[1]->WorkLocal[10] = Work_Zone[3]
 31: 0x0C12 [0x03] ExtData[1]->WorkLocal[11] = Work_Zone[4]
 32: 0x0C17 [0x03] ExtData[1]->WorkLocal[12] = Work_Zone[5]
 33: 0x0C1C [0x03] ExtData[1]->WorkLocal[13] = Work_Zone[6]
 34: 0x0C21 [0x03] ExtData[1]->WorkLocal[14] = Work_Zone[7]
 35: 0x0C26 [0x66] LOAD_EXT_SCHEDULER_MAIN: Load scheduler "tlk0" with entities [Ramua (ID: 17723647/0x010E70FF), Ramua (ID: 17723647/0x010E70FF)], work=30*
 36: 0x0C35 [0x1D] PRINT_EVENT_MESSAGE(message_id=17789*)
    → "...And that makes five. Splendid work!"
 37: 0x0C38 [0x23] WAIT_FOR_DIALOG_INTERACTION
 38: 0x0C39 [0x03] Work_Zone[2] = 1065*
 39: 0x0C3E [0x1D] PRINT_EVENT_MESSAGE(message_id=17790*)
    → "Now, I just need to inspect each of the specimens to ensure that the information on your $3 is accurate."
 40: 0x0C41 [0x23] WAIT_FOR_DIALOG_INTERACTION
 41: 0x0C42 [0x66] LOAD_EXT_SCHEDULER_MAIN: Load scheduler "tlk1" with entities [Ramua (ID: 17723647/0x010E70FF), Ramua (ID: 17723647/0x010E70FF)], work=30*
 42: 0x0C51 [0x45] LOAD_SCHEDULED_TASK: Load scheduler "fdo1" with entities [LocalPlayer, LocalPlayer], work=[200*, 0*]
 43: 0x0C62 [0x1C] WAIT(60* ticks)
 44: 0x0C65 [0x52] END_LOAD_SCHEDULER: End scheduler "mk02" with entities [LocalPlayer, LocalPlayer], work=342*
 45: 0x0C74 [0x45] LOAD_SCHEDULED_TASK: Load scheduler "mk03" with entities [LocalPlayer, LocalPlayer], work=[342*, 0*]
 46: 0x0C85 [0x45] LOAD_SCHEDULED_TASK: Load scheduler "fdi1" with entities [LocalPlayer, LocalPlayer], work=[200*, 0*]
 47: 0x0C96 [0x6E] Ramua (ID: 17723647/0x010E70FF) uses emote 32*
 48: 0x0C9D [0x99] Wait for Ramua (ID: 17723647/0x010E70FF) animation to complete
 49: 0x0CA2 [0x1D] PRINT_EVENT_MESSAGE(message_id=17779*)
    → "Now let's see here..."
 50: 0x0CA5 [0x23] WAIT_FOR_DIALOG_INTERACTION
 51: 0x0CA6 [0x99] Wait for Ramua (ID: 17723647/0x010E70FF) animation to complete
 52: 0x0CAB [0x52] END_LOAD_SCHEDULER: End scheduler "mk03" with entities [LocalPlayer, LocalPlayer], work=342*
 53: 0x0CBA [0x45] LOAD_SCHEDULED_TASK: Load scheduler "mk08" with entities [LocalPlayer, LocalPlayer], work=[342*, 0*]
 54: 0x0CCB [0x02] IF !(ExtData[1]->WorkLocal[9] == 0*) GOTO 0x0CEB
 55: 0x0CD3 [0x6E] Ramua (ID: 17723647/0x010E70FF) uses emote 26*
 56: 0x0CDA [0x99] Wait for Ramua (ID: 17723647/0x010E70FF) animation to complete
 57: 0x0CDF [0x1D] PRINT_EVENT_MESSAGE(message_id=17805*)
    → "No, it couldn't be...all of them?"
 58: 0x0CE2 [0x23] WAIT_FOR_DIALOG_INTERACTION
 59: 0x0CE3 [0x99] Wait for Ramua (ID: 17723647/0x010E70FF) animation to complete
 60: 0x0CE8 [0x01] GOTO 0x0DFF
 61: 0x0CEB [0x02] IF !(ExtData[1]->WorkLocal[9] == 1*) GOTO 0x0D30
 62: 0x0CF3 [0x6E] Ramua (ID: 17723647/0x010E70FF) uses emote 34*
 63: 0x0CFA [0x99] Wait for Ramua (ID: 17723647/0x010E70FF) animation to complete
 64: 0x0CFF [0x1D] PRINT_EVENT_MESSAGE(message_id=17799*)
    → "What's this? The texture of this bark seems curiously...different somehow. Are you certain these logs are from Jugner Forest? Let me take a closer look..."
 65: 0x0D02 [0x23] WAIT_FOR_DIALOG_INTERACTION
 66: 0x0D03 [0x99] Wait for Ramua (ID: 17723647/0x010E70FF) animation to complete
 67: 0x0D08 [0x1A] CALL_SUBROUTINE(address=0x121B)
 68: 0x0D0B [0x66] LOAD_EXT_SCHEDULER_MAIN: Load scheduler "tlk0" with entities [Ramua (ID: 17723647/0x010E70FF), Ramua (ID: 17723647/0x010E70FF)], work=30*
 69: 0x0D1A [0x1D] PRINT_EVENT_MESSAGE(message_id=17803*)
    → "$1, $2, and $3. $4 as well!"
 70: 0x0D1D [0x23] WAIT_FOR_DIALOG_INTERACTION
 71: 0x0D1E [0x66] LOAD_EXT_SCHEDULER_MAIN: Load scheduler "tlk1" with entities [Ramua (ID: 17723647/0x010E70FF), Ramua (ID: 17723647/0x010E70FF)], work=30*
 72: 0x0D2D [0x01] GOTO 0x0DFF
 73: 0x0D30 [0x02] IF !(ExtData[1]->WorkLocal[9] == 2*) GOTO 0x0D75
 74: 0x0D38 [0x6E] Ramua (ID: 17723647/0x010E70FF) uses emote 34*
 75: 0x0D3F [0x99] Wait for Ramua (ID: 17723647/0x010E70FF) animation to complete
 76: 0x0D44 [0x1D] PRINT_EVENT_MESSAGE(message_id=17799*)
    → "What's this? The texture of this bark seems curiously...different somehow. Are you certain these logs are from Jugner Forest? Let me take a closer look..."
 77: 0x0D47 [0x23] WAIT_FOR_DIALOG_INTERACTION
 78: 0x0D48 [0x99] Wait for Ramua (ID: 17723647/0x010E70FF) animation to complete
 79: 0x0D4D [0x1A] CALL_SUBROUTINE(address=0x121B)
 80: 0x0D50 [0x66] LOAD_EXT_SCHEDULER_MAIN: Load scheduler "tlk0" with entities [Ramua (ID: 17723647/0x010E70FF), Ramua (ID: 17723647/0x010E70FF)], work=30*
 81: 0x0D5F [0x1D] PRINT_EVENT_MESSAGE(message_id=17802*)
    → "$1, $2, and $3."
 82: 0x0D62 [0x23] WAIT_FOR_DIALOG_INTERACTION
 83: 0x0D63 [0x66] LOAD_EXT_SCHEDULER_MAIN: Load scheduler "tlk1" with entities [Ramua (ID: 17723647/0x010E70FF), Ramua (ID: 17723647/0x010E70FF)], work=30*
 84: 0x0D72 [0x01] GOTO 0x0DFF
 85: 0x0D75 [0x02] IF !(ExtData[1]->WorkLocal[9] == 3*) GOTO 0x0DBA
 86: 0x0D7D [0x6E] Ramua (ID: 17723647/0x010E70FF) uses emote 34*
 87: 0x0D84 [0x99] Wait for Ramua (ID: 17723647/0x010E70FF) animation to complete
 88: 0x0D89 [0x1D] PRINT_EVENT_MESSAGE(message_id=17799*)
    → "What's this? The texture of this bark seems curiously...different somehow. Are you certain these logs are from Jugner Forest? Let me take a closer look..."
 89: 0x0D8C [0x23] WAIT_FOR_DIALOG_INTERACTION
 90: 0x0D8D [0x99] Wait for Ramua (ID: 17723647/0x010E70FF) animation to complete
 91: 0x0D92 [0x1A] CALL_SUBROUTINE(address=0x121B)
 92: 0x0D95 [0x66] LOAD_EXT_SCHEDULER_MAIN: Load scheduler "tlk0" with entities [Ramua (ID: 17723647/0x010E70FF), Ramua (ID: 17723647/0x010E70FF)], work=30*
 93: 0x0DA4 [0x1D] PRINT_EVENT_MESSAGE(message_id=17801*)
    → "$1 and $2."
 94: 0x0DA7 [0x23] WAIT_FOR_DIALOG_INTERACTION
 95: 0x0DA8 [0x66] LOAD_EXT_SCHEDULER_MAIN: Load scheduler "tlk1" with entities [Ramua (ID: 17723647/0x010E70FF), Ramua (ID: 17723647/0x010E70FF)], work=30*
 96: 0x0DB7 [0x01] GOTO 0x0DFF
 97: 0x0DBA [0x02] IF !(ExtData[1]->WorkLocal[9] == 4*) GOTO 0x0DFF
 98: 0x0DC2 [0x6E] Ramua (ID: 17723647/0x010E70FF) uses emote 34*
 99: 0x0DC9 [0x99] Wait for Ramua (ID: 17723647/0x010E70FF) animation to complete
100: 0x0DCE [0x1D] PRINT_EVENT_MESSAGE(message_id=17799*)
    → "What's this? The texture of this bark seems curiously...different somehow. Are you certain these logs are from Jugner Forest? Let me take a closer look..."
101: 0x0DD1 [0x23] WAIT_FOR_DIALOG_INTERACTION
102: 0x0DD2 [0x99] Wait for Ramua (ID: 17723647/0x010E70FF) animation to complete
103: 0x0DD7 [0x1A] CALL_SUBROUTINE(address=0x121B)
104: 0x0DDA [0x66] LOAD_EXT_SCHEDULER_MAIN: Load scheduler "tlk0" with entities [Ramua (ID: 17723647/0x010E70FF), Ramua (ID: 17723647/0x010E70FF)], work=30*
105: 0x0DE9 [0x1D] PRINT_EVENT_MESSAGE(message_id=17800*)
    → "$1..."
106: 0x0DEC [0x23] WAIT_FOR_DIALOG_INTERACTION
107: 0x0DED [0x66] LOAD_EXT_SCHEDULER_MAIN: Load scheduler "tlk1" with entities [Ramua (ID: 17723647/0x010E70FF), Ramua (ID: 17723647/0x010E70FF)], work=30*
108: 0x0DFC [0x01] GOTO 0x0DFF

SUBROUTINE_0DFF:
109: 0x0DFF [0x6E] Ramua (ID: 17723647/0x010E70FF) uses emote 19*
110: 0x0E06 [0x99] Wait for Ramua (ID: 17723647/0x010E70FF) animation to complete
111: 0x0E0B [0x1D] PRINT_EVENT_MESSAGE(message_id=17806*)
    → "Clearly, these logs are not from Jugner Forest."
112: 0x0E0E [0x23] WAIT_FOR_DIALOG_INTERACTION
113: 0x0E0F [0x99] Wait for Ramua (ID: 17723647/0x010E70FF) animation to complete
114: 0x0E14 [0x52] END_LOAD_SCHEDULER: End scheduler "mk08" with entities [LocalPlayer, LocalPlayer], work=342*
115: 0x0E23 [0x45] LOAD_SCHEDULED_TASK: Load scheduler "blon" with entities [LocalPlayer, LocalPlayer], work=[200*, 0*]
116: 0x0E34 [0x45] LOAD_SCHEDULED_TASK: Load scheduler "blon" with entities [LocalPlayer, LocalPlayer], work=[201*, 0*]
117: 0x0E45 [0x45] LOAD_SCHEDULED_TASK: Load scheduler "mk03" with entities [LocalPlayer, LocalPlayer], work=[342*, 0*]
118: 0x0E56 [0x6E] Ramua (ID: 17723647/0x010E70FF) uses emote 21*
119: 0x0E5D [0x99] Wait for Ramua (ID: 17723647/0x010E70FF) animation to complete
120: 0x0E62 [0x1D] PRINT_EVENT_MESSAGE(message_id=17807*)
    → "Unbelievable..."
121: 0x0E65 [0x23] WAIT_FOR_DIALOG_INTERACTION
122: 0x0E66 [0x99] Wait for Ramua (ID: 17723647/0x010E70FF) animation to complete
123: 0x0E6B [0x52] END_LOAD_SCHEDULER: End scheduler "mk03" with entities [LocalPlayer, LocalPlayer], work=342*
124: 0x0E7A [0x45] LOAD_SCHEDULED_TASK: Load scheduler "blof" with entities [LocalPlayer, LocalPlayer], work=[200*, 0*]
125: 0x0E8B [0x45] LOAD_SCHEDULED_TASK: Load scheduler "mk07" with entities [LocalPlayer, LocalPlayer], work=[342*, 0*]
126: 0x0E9C [0x6E] Ramua (ID: 17723647/0x010E70FF) uses emote 29*
127: 0x0EA3 [0x99] Wait for Ramua (ID: 17723647/0x010E70FF) animation to complete
128: 0x0EA8 [0x1D] PRINT_EVENT_MESSAGE(message_id=17808*)
    → "As I told you before, all samples must be from Jugner Forest. Hey, you're not trying to sabotage our survey, are you!?"
129: 0x0EAB [0x23] WAIT_FOR_DIALOG_INTERACTION
130: 0x0EAC [0x99] Wait for Ramua (ID: 17723647/0x010E70FF) animation to complete
131: 0x0EB1 [0x45] LOAD_SCHEDULED_TASK: Load scheduler "fdo1" with entities [LocalPlayer, LocalPlayer], work=[200*, 0*]
132: 0x0EC2 [0x1C] WAIT(60* ticks)
133: 0x0EC5 [0x52] END_LOAD_SCHEDULER: End scheduler "mk07" with entities [LocalPlayer, LocalPlayer], work=342*
134: 0x0ED4 [0x46] CAMERA_CONTROL: Restore default settings
135: 0x0ED6 [0x45] LOAD_SCHEDULED_TASK: Load scheduler "fdi1" with entities [LocalPlayer, LocalPlayer], work=[200*, 0*]
136: 0x0EE7 [0x21] END_EVENT
137: 0x0EE8 [0x00] END_REQSTACK()
```

### Event 860

#### Metadata

| Field        | Value     |
|--------------|-----------|
| Entrypoint   | 0x0EE9    |
| Data Size    | 812 bytes |
| Instructions | 103       |

```
      00 01 02 03 04 05 06 07  08 09 0A 0B 0C 0D 0E 0F
      -- -- -- -- -- -- -- --  -- -- -- -- -- -- -- --
0EE0:                             42 20 01 46 01 45 06           B .F.E.
0EF0: 80 F0 FF FF 7F F0 FF FF  7F 66 64 6F 31 03 80 1C  .........fdo1...
0F00: 25 80 38 26 80 75 00 27  80 75 01 80 F0 FF FF 7F  %.8&.u.'.u......
0F10: BA F0 FF FF 7F 4C 80 4D  80 2A 80 4E 80 4E 01 26  .....L.M.*.N.N.&
0F20: 70 0E 01 2F 00 FF 70 0E  01 4E 00 FF 70 0E 01 BA  p../..p..N..p...
0F30: FF 70 0E 01 2E 80 2F 80  2A 80 30 80 80 FF 70 0E  .p..../.*.0...p.
0F40: 01 92 01 FF 70 0E 01 4A  FF 70 0E 01 F0 FF FF 7F  ....p..J.p......
0F50: 6F 70 79 00 F0 FF FF 7F  FF 70 0E 01 80 24 70 0E  opy......p...$p.
0F60: 01 80 25 70 0E 01 80 EC  70 0E 01 92 01 24 70 0E  ..%p....p....$p.
0F70: 01 92 01 25 70 0E 01 92  01 EC 70 0E 01 45 2C 80  ...%p.....p..E,.
0F80: F0 FF FF 7F F0 FF FF 7F  6D 6B 30 32 03 80 45 06  ........mk02..E.
0F90: 80 F0 FF FF 7F F0 FF FF  7F 66 64 69 31 03 80 1C  .........fdi1...
0FA0: 25 80 66 31 80 FF 70 0E  01 FF 70 0E 01 74 6C 6B  %.f1..p...p..tlk
0FB0: 30 1D 5A 80 23 03 02 10  41 80 1D 5B 80 23 66 31  0.Z.#...A..[.#f1
0FC0: 80 FF 70 0E 01 FF 70 0E  01 74 6C 6B 31 45 06 80  ..p...p..tlk1E..
0FD0: F0 FF FF 7F F0 FF FF 7F  66 64 6F 31 03 80 1C 25  ........fdo1...%
0FE0: 80 52 2C 80 F0 FF FF 7F  F0 FF FF 7F 6D 6B 30 32  .R,.........mk02
0FF0: 45 2C 80 F0 FF FF 7F F0  FF FF 7F 6D 6B 30 33 03  E,.........mk03.
1000: 80 45 06 80 F0 FF FF 7F  F0 FF FF 7F 66 64 69 31  .E..........fdi1
1010: 03 80 6E FF 70 0E 01 36  80 99 FF 70 0E 01 1D 50  ..n.p..6...p...P
1020: 80 23 99 FF 70 0E 01 52  2C 80 F0 FF FF 7F F0 FF  .#..p..R,.......
1030: FF 7F 6D 6B 30 33 45 06  80 F0 FF FF 7F F0 FF FF  ..mk03E.........
1040: 7F 6F 76 6C 31 03 80 45  2C 80 F0 FF FF 7F F0 FF  .ovl1..E,.......
1050: FF 7F 6D 6B 30 39 03 80  66 31 80 FF 70 0E 01 FF  ..mk09..f1..p...
1060: 70 0E 01 74 6C 6B 30 03  03 10 67 80 03 04 10 68  p..tlk0...g....h
1070: 80 1D 69 80 23 52 2C 80  F0 FF FF 7F F0 FF FF 7F  ..i.#R,.........
1080: 6D 6B 30 39 45 06 80 F0  FF FF 7F F0 FF FF 7F 6F  mk09E..........o
1090: 76 6C 31 03 80 45 2C 80  F0 FF FF 7F F0 FF FF 7F  vl1..E,.........
10A0: 6D 6B 31 30 03 80 03 05  10 6A 80 03 06 10 6B 80  mk10.....j....k.
10B0: 1D 6C 80 23 52 2C 80 F0  FF FF 7F F0 FF FF 7F 6D  .l.#R,.........m
10C0: 6B 31 30 45 06 80 F0 FF  FF 7F F0 FF FF 7F 6F 76  k10E..........ov
10D0: 6C 31 03 80 45 2C 80 F0  FF FF 7F F0 FF FF 7F 6D  l1..E,.........m
10E0: 6B 31 31 03 80 03 07 10  6D 80 03 08 10 6E 80 1D  k11.....m....n..
10F0: 6F 80 23 66 31 80 FF 70  0E 01 FF 70 0E 01 74 6C  o.#f1..p...p..tl
1100: 6B 31 52 2C 80 F0 FF FF  7F F0 FF FF 7F 6D 6B 31  k1R,.........mk1
1110: 31 45 06 80 F0 FF FF 7F  F0 FF FF 7F 6F 76 6C 31  1E..........ovl1
1120: 03 80 45 2C 80 F0 FF FF  7F F0 FF FF 7F 6D 6B 31  ..E,.........mk1
1130: 32 03 80 6E FF 70 0E 01  12 80 99 FF 70 0E 01 1D  2..n.p......p...
1140: 70 80 23 99 FF 70 0E 01  66 31 80 FF 70 0E 01 FF  p.#..p..f1..p...
1150: 70 0E 01 74 6C 6B 30 03  02 10 41 80 1D 71 80 23  p..tlk0...A..q.#
1160: 1D 72 80 23 66 31 80 FF  70 0E 01 FF 70 0E 01 74  .r.#f1..p...p..t
1170: 6C 6B 31 52 2C 80 F0 FF  FF 7F F0 FF FF 7F 6D 6B  lk1R,.........mk
1180: 31 32 45 2C 80 F0 FF FF  7F F0 FF FF 7F 6D 6B 31  12E,.........mk1
1190: 33 03 80 6E FF 70 0E 01  00 80 99 FF 70 0E 01 03  3..n.p......p...
11A0: 03 10 73 80 1D 74 80 23  99 FF 70 0E 01 66 31 80  ..s..t.#..p..f1.
11B0: FF 70 0E 01 FF 70 0E 01  70 61 73 30 53 FF 70 0E  .p...p..pas0S.p.
11C0: 01 FF 70 0E 01 70 61 73  30 1C 25 80 45 06 80 F0  ..p..pas0.%.E...
11D0: FF FF 7F F0 FF FF 7F 66  64 6F 31 03 80 1C 25 80  .......fdo1...%.
11E0: 52 2C 80 F0 FF FF 7F F0  FF FF 7F 6D 6B 31 33 46  R,.........mk13F
11F0: 00 45 06 80 F0 FF FF 7F  F0 FF FF 7F 66 64 69 31  .E..........fdi1
1200: 03 80 45 64 80 F8 FF FF  7F F8 FF FF 7F 71 73 74  ..Ed.........qst
1210: 63 03 80 21 00                                    c..!.           
```

#### Opcodes

```
  0: 0x0EE9 [0x42] SET_CLI_EVENT_CANCEL_DATA()
  1: 0x0EEA [0x20] SET_CLI_EVENT_UC_FLAG: Lock player control
  2: 0x0EEC [0x46] CAMERA_CONTROL: Disable user control
  3: 0x0EEE [0x45] LOAD_SCHEDULED_TASK: Load scheduler "fdo1" with entities [LocalPlayer, LocalPlayer], work=[200*, 0*]
  4: 0x0EFF [0x1C] WAIT(60* ticks)
  5: 0x0F02 [0x38] SET_CLIENT_EVENT_MODE(mode=19*)
  6: 0x0F05 [0x75] LOAD_ROOM(Load indoor room, room=349*)
  7: 0x0F09 [0x75] LOAD_ROOM(No action)
  8: 0x0F0B [0x80] LOAD_WAIT(entity=LocalPlayer)
  9: 0x0F10 [0xBA] SET_ENTITY_POSITION(entity_id=LocalPlayer, pos_x=-184.153*, pos_z=257.998*, pos_y=11.999*, direction=75.7°*)
 10: 0x0F1D [0x4E] SET_ENTITY_HIDE_FLAG: Hide Ramua (ID: 17723430/0x010E7026)
 11: 0x0F23 [0x2F] Ramua (ID: 17723647/0x010E70FF)->Render.Flags0 &= ~0x80000 // Bit 19
 12: 0x0F29 [0x4E] SET_ENTITY_HIDE_FLAG: Show Ramua (ID: 17723647/0x010E70FF)
 13: 0x0F2F [0xBA] SET_ENTITY_POSITION(entity_id=Ramua (ID: 17723647/0x010E70FF), pos_x=-183.760*, pos_z=256.395*, pos_y=11.999*, direction=263.0°*)
 14: 0x0F3C [0x80] LOAD_WAIT(entity=Ramua (ID: 17723647/0x010E70FF))
 15: 0x0F41 [0x92] Ramua (ID: 17723647/0x010E70FF)->Render.Flags3 ^= 0x01
 16: 0x0F47 [0x4A] Ramua (ID: 17723647/0x010E70FF) looks at LocalPlayer
 17: 0x0F50 [0x6F] WAIT_FRAME_DELAY: Yield until WaitTime reaches zero
 18: 0x0F51 [0x70] WAIT_ENTITY_RENDER_FLAG: Wait while EventEntity->Render.Flags3 bit 2 is set (cancel turn if not)
 19: 0x0F52 [0x79] LocalPlayer looks at Ramua (ID: 17723647/0x010E70FF) (Basic look)
 20: 0x0F5C [0x80] LOAD_WAIT(entity=Ulycille (ID: 17723428/0x010E7024))
 21: 0x0F61 [0x80] LOAD_WAIT(entity=Amarefice (ID: 17723429/0x010E7025))
 22: 0x0F66 [0x80] LOAD_WAIT(entity=Andreas (ID: 17723628/0x010E70EC))
 23: 0x0F6B [0x92] Ulycille (ID: 17723428/0x010E7024)->Render.Flags3 ^= 0x01
 24: 0x0F71 [0x92] Amarefice (ID: 17723429/0x010E7025)->Render.Flags3 ^= 0x01
 25: 0x0F77 [0x92] Andreas (ID: 17723628/0x010E70EC)->Render.Flags3 ^= 0x01
 26: 0x0F7D [0x45] LOAD_SCHEDULED_TASK: Load scheduler "mk02" with entities [LocalPlayer, LocalPlayer], work=[342*, 0*]
 27: 0x0F8E [0x45] LOAD_SCHEDULED_TASK: Load scheduler "fdi1" with entities [LocalPlayer, LocalPlayer], work=[200*, 0*]
 28: 0x0F9F [0x1C] WAIT(60* ticks)
 29: 0x0FA2 [0x66] LOAD_EXT_SCHEDULER_MAIN: Load scheduler "tlk0" with entities [Ramua (ID: 17723647/0x010E70FF), Ramua (ID: 17723647/0x010E70FF)], work=30*
 30: 0x0FB1 [0x1D] PRINT_EVENT_MESSAGE(message_id=17789*)
    → "...And that makes five. Splendid work!"
 31: 0x0FB4 [0x23] WAIT_FOR_DIALOG_INTERACTION
 32: 0x0FB5 [0x03] Work_Zone[2] = 1065*
 33: 0x0FBA [0x1D] PRINT_EVENT_MESSAGE(message_id=17790*)
    → "Now, I just need to inspect each of the specimens to ensure that the information on your $3 is accurate."
 34: 0x0FBD [0x23] WAIT_FOR_DIALOG_INTERACTION
 35: 0x0FBE [0x66] LOAD_EXT_SCHEDULER_MAIN: Load scheduler "tlk1" with entities [Ramua (ID: 17723647/0x010E70FF), Ramua (ID: 17723647/0x010E70FF)], work=30*
 36: 0x0FCD [0x45] LOAD_SCHEDULED_TASK: Load scheduler "fdo1" with entities [LocalPlayer, LocalPlayer], work=[200*, 0*]
 37: 0x0FDE [0x1C] WAIT(60* ticks)
 38: 0x0FE1 [0x52] END_LOAD_SCHEDULER: End scheduler "mk02" with entities [LocalPlayer, LocalPlayer], work=342*
 39: 0x0FF0 [0x45] LOAD_SCHEDULED_TASK: Load scheduler "mk03" with entities [LocalPlayer, LocalPlayer], work=[342*, 0*]
 40: 0x1001 [0x45] LOAD_SCHEDULED_TASK: Load scheduler "fdi1" with entities [LocalPlayer, LocalPlayer], work=[200*, 0*]
 41: 0x1012 [0x6E] Ramua (ID: 17723647/0x010E70FF) uses emote 32*
 42: 0x1019 [0x99] Wait for Ramua (ID: 17723647/0x010E70FF) animation to complete
 43: 0x101E [0x1D] PRINT_EVENT_MESSAGE(message_id=17779*)
    → "Now let's see here..."
 44: 0x1021 [0x23] WAIT_FOR_DIALOG_INTERACTION
 45: 0x1022 [0x99] Wait for Ramua (ID: 17723647/0x010E70FF) animation to complete
 46: 0x1027 [0x52] END_LOAD_SCHEDULER: End scheduler "mk03" with entities [LocalPlayer, LocalPlayer], work=342*
 47: 0x1036 [0x45] LOAD_SCHEDULED_TASK: Load scheduler "ovl1" with entities [LocalPlayer, LocalPlayer], work=[200*, 0*]
 48: 0x1047 [0x45] LOAD_SCHEDULED_TASK: Load scheduler "mk09" with entities [LocalPlayer, LocalPlayer], work=[342*, 0*]
 49: 0x1058 [0x66] LOAD_EXT_SCHEDULER_MAIN: Load scheduler "tlk0" with entities [Ramua (ID: 17723647/0x010E70FF), Ramua (ID: 17723647/0x010E70FF)], work=30*
 50: 0x1067 [0x03] Work_Zone[3] = 688*
 51: 0x106C [0x03] Work_Zone[4] = 698*
 52: 0x1071 [0x1D] PRINT_EVENT_MESSAGE(message_id=17791*)
    → "Let's see here, we have $1, $2..."
 53: 0x1074 [0x23] WAIT_FOR_DIALOG_INTERACTION
 54: 0x1075 [0x52] END_LOAD_SCHEDULER: End scheduler "mk09" with entities [LocalPlayer, LocalPlayer], work=342*
 55: 0x1084 [0x45] LOAD_SCHEDULED_TASK: Load scheduler "ovl1" with entities [LocalPlayer, LocalPlayer], work=[200*, 0*]
 56: 0x1095 [0x45] LOAD_SCHEDULED_TASK: Load scheduler "mk10" with entities [LocalPlayer, LocalPlayer], work=[342*, 0*]
 57: 0x10A6 [0x03] Work_Zone[5] = 696*
 58: 0x10AB [0x03] Work_Zone[6] = 695*
 59: 0x10B0 [0x1D] PRINT_EVENT_MESSAGE(message_id=17792*)
    → "$3 and $4... Yes, yes..."
 60: 0x10B3 [0x23] WAIT_FOR_DIALOG_INTERACTION
 61: 0x10B4 [0x52] END_LOAD_SCHEDULER: End scheduler "mk10" with entities [LocalPlayer, LocalPlayer], work=342*
 62: 0x10C3 [0x45] LOAD_SCHEDULED_TASK: Load scheduler "ovl1" with entities [LocalPlayer, LocalPlayer], work=[200*, 0*]
 63: 0x10D4 [0x45] LOAD_SCHEDULED_TASK: Load scheduler "mk11" with entities [LocalPlayer, LocalPlayer], work=[342*, 0*]
 64: 0x10E5 [0x03] Work_Zone[7] = 693*
 65: 0x10EA [0x03] Work_Zone[8] = 699*
 66: 0x10EF [0x1D] PRINT_EVENT_MESSAGE(message_id=17793*)
    → "And last but not least, $5."
 67: 0x10F2 [0x23] WAIT_FOR_DIALOG_INTERACTION
 68: 0x10F3 [0x66] LOAD_EXT_SCHEDULER_MAIN: Load scheduler "tlk1" with entities [Ramua (ID: 17723647/0x010E70FF), Ramua (ID: 17723647/0x010E70FF)], work=30*
 69: 0x1102 [0x52] END_LOAD_SCHEDULER: End scheduler "mk11" with entities [LocalPlayer, LocalPlayer], work=342*
 70: 0x1111 [0x45] LOAD_SCHEDULED_TASK: Load scheduler "ovl1" with entities [LocalPlayer, LocalPlayer], work=[200*, 0*]
 71: 0x1122 [0x45] LOAD_SCHEDULED_TASK: Load scheduler "mk12" with entities [LocalPlayer, LocalPlayer], work=[342*, 0*]
 72: 0x1133 [0x6E] Ramua (ID: 17723647/0x010E70FF) uses emote 7*
 73: 0x113A [0x99] Wait for Ramua (ID: 17723647/0x010E70FF) animation to complete
 74: 0x113F [0x1D] PRINT_EVENT_MESSAGE(message_id=17794*)
    → "Why yes, it appears that your timber samples are in order--which means that Jugner Forest is all clear for harvesting! Tremendous work, <Player>!"
 75: 0x1142 [0x23] WAIT_FOR_DIALOG_INTERACTION
 76: 0x1143 [0x99] Wait for Ramua (ID: 17723647/0x010E70FF) animation to complete
 77: 0x1148 [0x66] LOAD_EXT_SCHEDULER_MAIN: Load scheduler "tlk0" with entities [Ramua (ID: 17723647/0x010E70FF), Ramua (ID: 17723647/0x010E70FF)], work=30*
 78: 0x1157 [0x03] Work_Zone[2] = 1065*
 79: 0x115C [0x1D] PRINT_EVENT_MESSAGE(message_id=17795*)
    → "If it's all the same to you, I'll pass your $3 along to the guildmaster. Fear not--I'll be sure to give you due credit for your deeds."
 80: 0x115F [0x23] WAIT_FOR_DIALOG_INTERACTION
 81: 0x1160 [0x1D] PRINT_EVENT_MESSAGE(message_id=17796*)
    → "As for the timber you harvested, you may keep it for your own purposes. Methinks you could fashion yourself a fine flower stand or two..."
 82: 0x1163 [0x23] WAIT_FOR_DIALOG_INTERACTION
 83: 0x1164 [0x66] LOAD_EXT_SCHEDULER_MAIN: Load scheduler "tlk1" with entities [Ramua (ID: 17723647/0x010E70FF), Ramua (ID: 17723647/0x010E70FF)], work=30*
 84: 0x1173 [0x52] END_LOAD_SCHEDULER: End scheduler "mk12" with entities [LocalPlayer, LocalPlayer], work=342*
 85: 0x1182 [0x45] LOAD_SCHEDULED_TASK: Load scheduler "mk13" with entities [LocalPlayer, LocalPlayer], work=[342*, 0*]
 86: 0x1193 [0x6E] Ramua (ID: 17723647/0x010E70FF) uses emote 1*
 87: 0x119A [0x99] Wait for Ramua (ID: 17723647/0x010E70FF) animation to complete
 88: 0x119F [0x03] Work_Zone[3] = 18502*
 89: 0x11A4 [0x1D] PRINT_EVENT_MESSAGE(message_id=17797*)
    → "In any event, my standing in our guild is safe thanks to your efforts. Please accept this $1 as a token of my appreciation. You have my eternal gratitude, friend carpenter!"
 90: 0x11A7 [0x23] WAIT_FOR_DIALOG_INTERACTION
 91: 0x11A8 [0x99] Wait for Ramua (ID: 17723647/0x010E70FF) animation to complete
 92: 0x11AD [0x66] LOAD_EXT_SCHEDULER_MAIN: Load scheduler "pas0" with entities [Ramua (ID: 17723647/0x010E70FF), Ramua (ID: 17723647/0x010E70FF)], work=30*
 93: 0x11BC [0x53] WAIT_SCHEDULER_TASK: Wait for scheduler "pas0" with entities [Ramua (ID: 17723647/0x010E70FF), Ramua (ID: 17723647/0x010E70FF)]
 94: 0x11C9 [0x1C] WAIT(60* ticks)
 95: 0x11CC [0x45] LOAD_SCHEDULED_TASK: Load scheduler "fdo1" with entities [LocalPlayer, LocalPlayer], work=[200*, 0*]
 96: 0x11DD [0x1C] WAIT(60* ticks)
 97: 0x11E0 [0x52] END_LOAD_SCHEDULER: End scheduler "mk13" with entities [LocalPlayer, LocalPlayer], work=342*
 98: 0x11EF [0x46] CAMERA_CONTROL: Restore default settings
 99: 0x11F1 [0x45] LOAD_SCHEDULED_TASK: Load scheduler "fdi1" with entities [LocalPlayer, LocalPlayer], work=[200*, 0*]
100: 0x1202 [0x45] LOAD_SCHEDULED_TASK: Load scheduler "qstc" with entities [EventEntity, EventEntity], work=[201*, 0*]
101: 0x1213 [0x21] END_EVENT
102: 0x1214 [0x00] END_REQSTACK()
```

### Event 861

#### Metadata

| Field        | Value     |
|--------------|-----------|
| Entrypoint   | 0x1215    |
| Data Size    | 453 bytes |
| Instructions | 4         |

```
      00 01 02 03 04 05 06 07  08 09 0A 0B 0C 0D 0E 0F
      -- -- -- -- -- -- -- --  -- -- -- -- -- -- -- --
1210:                1D 75 80  23 21 00 06 02 10 06 03       .u.#!......
1220: 10 06 04 10 06 05 10 06  06 10 06 07 10 06 08 10  ................
1230: 06 09 10 02 03 10 03 80  00 48 12 02 0A 00 03 80  .........H......
1240: 00 48 12 03 03 10 67 80  02 03 10 03 80 00 5D 12  .H....g.......].
1250: 02 0B 00 03 80 00 5D 12  03 03 10 68 80 02 03 10  ......]....h....
1260: 03 80 00 72 12 02 0C 00  03 80 00 72 12 03 03 10  ...r.......r....
1270: 6A 80 02 03 10 03 80 00  87 12 02 0D 00 03 80 00  j...............
1280: 87 12 03 03 10 6B 80 02  03 10 03 80 00 9C 12 02  .....k..........
1290: 0E 00 03 80 00 9C 12 03  03 10 6D 80 02 04 10 03  ..........m.....
12A0: 80 00 B9 12 02 0B 00 03  80 00 B9 12 02 03 10 68  ...............h
12B0: 80 01 B9 12 03 04 10 68  80 02 04 10 03 80 00 D6  .......h........
12C0: 12 02 0C 00 03 80 00 D6  12 02 03 10 6A 80 01 D6  ............j...
12D0: 12 03 04 10 6A 80 02 04  10 03 80 00 F3 12 02 0D  ....j...........
12E0: 00 03 80 00 F3 12 02 03  10 6B 80 01 F3 12 03 04  .........k......
12F0: 10 6B 80 02 04 10 03 80  00 10 13 02 0E 00 03 80  .k..............
1300: 00 10 13 02 03 10 6D 80  01 10 13 03 04 10 6D 80  ......m.......m.
1310: 02 05 10 03 80 00 35 13  02 0C 00 03 80 00 35 13  ......5.......5.
1320: 02 03 10 6A 80 01 35 13  02 04 10 6A 80 01 35 13  ...j..5....j..5.
1330: 03 05 10 6A 80 02 05 10  03 80 00 5A 13 02 0D 00  ...j.......Z....
1340: 03 80 00 5A 13 02 03 10  6B 80 01 5A 13 02 04 10  ...Z....k..Z....
1350: 6B 80 01 5A 13 03 05 10  6B 80 02 05 10 03 80 00  k..Z....k.......
1360: 7F 13 02 0E 00 03 80 00  7F 13 02 03 10 6D 80 01  .............m..
1370: 7F 13 02 04 10 6D 80 01  7F 13 03 05 10 6D 80 02  .....m.......m..
1380: 06 10 03 80 00 AC 13 02  0D 00 03 80 00 AC 13 02  ................
1390: 03 10 6B 80 01 AC 13 02  04 10 6B 80 01 AC 13 02  ..k.......k.....
13A0: 05 10 6B 80 01 AC 13 03  06 10 6B 80 02 06 10 03  ..k.......k.....
13B0: 80 00 D9 13 02 0E 00 03  80 00 D9 13 02 03 10 6D  ...............m
13C0: 80 01 D9 13 02 04 10 6D  80 01 D9 13 02 05 10 6D  .......m.......m
13D0: 80 01 D9 13 03 06 10 6D  80 1B                    .......m..      
```

#### Opcodes

```
  0: 0x1215 [0x1D] PRINT_EVENT_MESSAGE(message_id=17798*)
    → "In any event, my standing in our guild is safe thanks to your efforts. You have my eternal gratitude, friend carpenter!"
  1: 0x1218 [0x23] WAIT_FOR_DIALOG_INTERACTION
  2: 0x1219 [0x21] END_EVENT
  3: 0x121A [0x00] END_REQSTACK()
```

#### Data or dead code:

```
# Dead code (unreachable instructions):
