# 17723817 - Suspicious Elvaan

## Common Data

| Field            | Value                         |
|------------------|-------------------------------|
| Zone             | Northern San d'Oria (ID: 231) |
| Block Size       | 3464 bytes                    |
| Total Events     | 11                            |
| References Count | 115                           |

## List of Events

| Event ID              | Entrypoint   |   Size |   Instructions |
|-----------------------|--------------|--------|----------------|
| [65535](#event-65535) | 0x0000       |      1 |              1 |
| [880](#event-880)     | 0x0001       |     50 |             11 |
| [881](#event-881)     | 0x0033       |     50 |             11 |
| [882](#event-882)     | 0x0065       |     62 |             16 |
| [883](#event-883)     | 0x00A3       |    254 |             31 |
| [884](#event-884)     | 0x01A1       |     34 |              8 |
| [886](#event-886)     | 0x01C3       |     96 |             26 |
| [891](#event-891)     | 0x0223       |    142 |             37 |
| [887](#event-887)     | 0x02B1       |    362 |             76 |
| [889](#event-889)     | 0x041B       |    117 |             25 |
| [890](#event-890)     | 0x0490       |   1775 |            368 |

## DAT References (imed_data)

|   Index | Hex Value   |   Dec Value |
|---------|-------------|-------------|
|       0 | 0x001E      |          30 |
|       1 | 0x001D      |          29 |
|       2 | 0x0000      |           0 |
|       3 | 0x0001      |           1 |
|       4 | 0x474D      |       18253 |
|       5 | 0x474E      |       18254 |
|       6 | 0x0358      |         856 |
|       7 | 0x039E      |         926 |
|       8 | 0x1110      |        4368 |
|       9 | 0x474F      |       18255 |
|      10 | 0x0002      |           2 |
|      11 | 0x4750      |       18256 |
|      12 | 0x4751      |       18257 |
|      13 | 0x00C8      |         200 |
|      14 | 0x001B      |          27 |
|      15 | 0x13623     |       79395 |
|      16 | 0xA677      |       42615 |
|      17 | 0xFFFFFF39  |  4294967097 |
|      18 | 0x0023      |          35 |
|      19 | 0x026D      |         621 |
|      20 | 0x000F      |          15 |
|      21 | 0x4752      |       18258 |
|      22 | 0x005B      |          91 |
|      23 | 0x092E      |        2350 |
|      24 | 0x4753      |       18259 |
|      25 | 0x4754      |       18260 |
|      26 | 0x4755      |       18261 |
|      27 | 0x4756      |       18262 |
|      28 | 0x4757      |       18263 |
|      29 | 0x4758      |       18264 |
|      30 | 0x4759      |       18265 |
|      31 | 0x475A      |       18266 |
|      32 | 0x475B      |       18267 |
|      33 | 0x4771      |       18289 |
|      34 | 0x4772      |       18290 |
|      35 | 0x4773      |       18291 |
|      36 | 0x0005      |           5 |
|      37 | 0x4780      |       18304 |
|      38 | 0x4781      |       18305 |
|      39 | 0x0003      |           3 |
|      40 | 0x0004      |           4 |
|      41 | 0x4783      |       18307 |
|      42 | 0x092F      |        2351 |
|      43 | 0x4774      |       18292 |
|      44 | 0x4775      |       18293 |
|      45 | 0x007B      |         123 |
|      46 | 0x4776      |       18294 |
|      47 | 0x4777      |       18295 |
|      48 | 0x0141      |         321 |
|      49 | 0x4778      |       18296 |
|      50 | 0x0006      |           6 |
|      51 | 0x0064      |         100 |
|      52 | 0x4787      |       18311 |
|      53 | 0x4788      |       18312 |
|      54 | 0x0007      |           7 |
|      55 | 0x0008      |           8 |
|      56 | 0x0017      |          23 |
|      57 | 0x478A      |       18314 |
|      58 | 0x478B      |       18315 |
|      59 | 0x478C      |       18316 |
|      60 | 0x478D      |       18317 |
|      61 | 0x40000000  |  1073741824 |
|      62 | 0x4789      |       18313 |
|      63 | 0x478E      |       18318 |
|      64 | 0x478F      |       18319 |
|      65 | 0x4790      |       18320 |
|      66 | 0x4791      |       18321 |
|      67 | 0x4793      |       18323 |
|      68 | 0x01F4      |         500 |
|      69 | 0x000B      |          11 |
|      70 | 0x0009      |           9 |
|      71 | 0x4794      |       18324 |
|      72 | 0x4795      |       18325 |
|      73 | 0x000A      |          10 |
|      74 | 0x4796      |       18326 |
|      75 | 0x4797      |       18327 |
|      76 | 0x4798      |       18328 |
|      77 | 0x475C      |       18268 |
|      78 | 0x475D      |       18269 |
|      79 | 0x475E      |       18270 |
|      80 | 0x475F      |       18271 |
|      81 | 0x4760      |       18272 |
|      82 | 0x4761      |       18273 |
|      83 | 0x4763      |       18275 |
|      84 | 0x4764      |       18276 |
|      85 | 0x4765      |       18277 |
|      86 | 0x4766      |       18278 |
|      87 | 0x4767      |       18279 |
|      88 | 0x4768      |       18280 |
|      89 | 0x4769      |       18281 |
|      90 | 0x476A      |       18282 |
|      91 | 0x476B      |       18283 |
|      92 | 0x476C      |       18284 |
|      93 | 0x476E      |       18286 |
|      94 | 0x476F      |       18287 |
|      95 | 0x0FD3      |        4051 |
|      96 | 0x4770      |       18288 |
|      97 | 0x4779      |       18297 |
|      98 | 0x0FD4      |        4052 |
|      99 | 0x0FD5      |        4053 |
|     100 | 0x6EE6      |       28390 |
|     101 | 0x6EE7      |       28391 |
|     102 | 0x6EE8      |       28392 |
|     103 | 0x6EE9      |       28393 |
|     104 | 0x1388      |        5000 |
|     105 | 0x2710      |       10000 |
|     106 | 0x4E20      |       20000 |
|     107 | 0x61A8      |       25000 |
|     108 | 0x477A      |       18298 |
|     109 | 0x477B      |       18299 |
|     110 | 0x477C      |       18300 |
|     111 | 0x0010      |          16 |
|     112 | 0x001F      |          31 |
|     113 | 0x477F      |       18303 |
|     114 | 0x4782      |       18306 |

## String References

- **18253**: I am elated that this lambent glow is apparent to thee. Your obvious lack of experience, however, causeth mine eyes to overflow with ruth.
- **18254**: I am elated that my lambent glow is apparent to thee. Visit my kinsman who dwelleth in the Pashhow Marshlands anon if thou yearnest for an experience like none other.
- **18255**: ...I am aware of thy mission. Thou art to provision me with $0, $1, or $2.
- **18256**: Shouldst thy journey take thee to another nation, my kindred spirits in either [Northern San d'Oria/Port Bastok/Port Windurst] or [Northern San d'Oria/Port Bastok/Port Windurst] would also suffice.
- **18257**: May the winds blow thy way, adventurer.
- **18258**: ...And thus [he/she] arriveth.
- **18259**: I shan't cause thee teen. All I ask is that thou wearest this $3 upon thy finger and let thyself bathe in its luminescent emanations.
- **18260**: Wearest that $3 upon thy finger and let thyself bathe in its luminescent emanations.
- **18261**: Quotha...the light that shines forth from thy soul hath brightened a considerable degree.
- **18262**: Natheless, it remaineth but a dull glow akin to twitherym dust whenas compared to the blindingly refulgent souls of more accomplished combatants.
- **18263**: To fulfil thy true potential, thou needs assume the role of gladiator and bathe in monipulator blood.
- **18264**: As a monipulator, thou hast likely reduced opponents everywhere to bawling babes at the mere mention of thy name.
- **18265**: Simultaneously, though, combatants who hath cut swaths through adversaries while inside bestial vessels betimes yearneth for more...to bite the hand that feedeth.
- **18266**: A saga sung of those who instill terror and those who release the land from it... Bwahaha, a worthy tale of spiritual strife, forsooth.
- **18267**: Now that the stage hath been set, I shall impart the extent of my gladiatorial knowledge to thee. Simply ask and thou shalt receive.
- **18268**: What shall you ask about? [Belligerency./Ranks./Prestige./Spoils./Domination./Nothing.]
- **18269**: Those who have the ambition to slay monipulators can do battle against them by speaking with [me/my Northern San d'Orian ally] or one of my brethren in either [Port Bastok or Port Windurst/Northern San d'Oria or Port Windurst/Northern San d'Oria or Port Bastok] and receiving $6.
- **18270**: This $3 is thy metaphorical muster as well as official avowal to enter belligerency.
- **18271**: While it doth provide myriad boons to thee, it preventeth not those outside thy coterie from interfering with thy duty. Such a benediction will only descend upon the yare souls who hath claimed monipulators as their prey.
- **18272**: I must also caution thee to beware that, depending on thy level of expertise, it may not behoove thee to tread upon the soils of certain lands.
- **18273**: Lastly, should thy bloodlust cease or resolve wither on the vine, speak to me and I shall grant thee permission to withdraw from belligerency.
- **18275**: Three ranks doth serve to classify the world's monipulator executioners. There is the eponymous "gladiator (Gla)," "champion gladiator (CG)," and "high champion gladiator (HCG)."
- **18276**: Naught else needs be explained anent this simple concept...save that a gladiator's rank is determined by his prestige.
- **18277**: Prestige is the gladiator's equivalent of the common adventurer's fame.
- **18278**: Defeating both monsters and monipulators increaseth thy prestige, while falling victim to their claws decreaseth it.
- **18279**: Each rank also hath a corresponding maximum amount of prestige, much like the infamy of monipulators.
- **18280**: Ascertaining thy current prestige is merely a trifle. (Access the "Profile" menu under "Status.")
- **18281**: Of course, prestige is not simply a means by which to boast to thy inferiors. Thou canst cede it to me in exchange for troves of splendid rewards.
- **18282**: No victory doth taste as sweet as one where the stakes are high. Flaying treacherous notorious monsters and high notorious monsters occasionally earns thee spoils of war.
- **18283**: A little cockatrice told me that monipulators even relinquish equipment betimes, so hold not back from slicing, stabbing, and spellcasting thy savage enemies to smithereens.
- **18284**: Eke, the equipment thou dost obtain may be engraved with arcane glyptics.
- **18286**: Athwart terrestrial beings such as thee, our mezzotinting process leaveth nary a scratch on extant arcane glyptics.
- **18287**: In sooth, it would be pure idiocy to charge nothing for our services. However, I shan't discuss figures at this juncture.
- **18288**: Forget not that we must have $0 in order to engrave arcane glyptics, lest thou wish to incur the wrath of my people.
- **18289**: Thy soul pineth for more than thou canst conceive. Set it free and embark upon gladiatorial exploits the likes of which Vana'diel hath never witnessed.
- **18290**: Aroint, thou malmsey-nosed fustilarian!
- **18291**: What shall you do? [Receive $3./Return $3./Participate in PT Content./Exchange prestige./Hear an explanation./Engage in friendly banter./Nothing.]
- **18292**: Possessing $6 enableth thee to enter combat with monipulators. Dost thou assent?
- **18293**: Give your assent? [Yes./No.]
- **18294**: Thou tardy-gaited poltroon! Dost thou soothly desire to return thy $3 and withdraw?
- **18295**: Return and withdraw? [Yes./No.]
- **18296**: Bear in mind that transferring thy soul to the frames of other creatures hath its limits. Occasionally stretch thy sinews as a gladiator to both round thy world view and reach higher heights.
- **18297**: What is it thou desirest?
- **18298**: Which reward? (Prestige: $0) [$1. ($8 needed)/$2. ($9 needed)/$3. ($10 needed)/$4. ($11 needed)/$5. ($12 needed)/$6. ($13 needed)/$7. ($14 needed)/None.]
- **18299**: Thou art willing to part with $1 point[/s] of prestige to obtain this $0, nay?
- **18300**: Proceed with the exchange? (Prestige: $0) [Yes./No.]
- **18303**: Though monipulators and gladiators art diametrically opposed, thou mayest shift alliance betwixt both sides of the conflict as thy humors see fit. There cannot be good without evil, and the sides shall for all eternity be in stasis.
- **18304**: Good and evil, monipulator and adventurer...they are but two sides of the same coin.
- **18305**: Oh, how I yearn to assume the form of a monster in the same manner as thee. Wellaway, I must be content with mine empty husk of a vessel.
- **18306**: I suppose that I too a monipulator hight. Natheless, that fact doth not give thee permission to assail my frame with thy blows.
- **18307**: One could conceivably clepe me a monipulator as well, sith I too possess hosts.
- **18311**: In return for $1 point[/s] of prestige from thee, I shall [enhance the arcane glyptics extant on/engrave arcane glyptics upon] this $2.
- **18312**: This $2's [original/post-augmentation/post-enhancement] attributes are thus:
- **18313**: This $33 doth be in good...tails?
- **18314**: This $33 hath been enhanced with arcane glyptics already.
- **18315**: This $33 hath reached its limits and cannot be further enhanced, but may still evolve into newer forms.
- **18316**: This $0 hath reached its limits and cannot evolve further.
- **18317**: What do you wish to do? [Evolve the item./Mezzotint./Nothing.]
- **18318**: Which type of glyptics shall you engrave?
- **18319**: Which type do you want engraved? [Arcane Glyptic Type A./Arcane Glyptic Type B./Arcane Glyptic Type C./None.]
- **18320**: Do you wish to mezzotint your weapon so that it is primed to receive the aforementioned attribute enhancements?
- **18321**: Do you wish to mezzotint your weapon again so that it is primed to receive these attribute enhancements?
- **18323**: How do you feel about these attributes? [I heartily enjoy them./I despise them and want new ones.]
- **18324**: In return for $1 point[/s] of prestige from thee, I shall mezzotint this $2.
- **18325**: Into which weapon shalt thou evolve this specimen?
- **18326**: Which one? [None./#./$1./$2./$3./$4./$5./$6./$7.]
- **18327**: Shall this be the one?
- **18328**: How do you feel about this weapon? [I thoroughly enjoy it./I loathe it and want a new one.]

## Events

### Event 65535

#### Metadata

| Field        | Value   |
|--------------|---------|
| Entrypoint   | 0x0000  |
| Data Size    | 1 bytes |
| Instructions | 1       |

```
      00 01 02 03 04 05 06 07  08 09 0A 0B 0C 0D 0E 0F
      -- -- -- -- -- -- -- --  -- -- -- -- -- -- -- --
0000: 00                                                .               
```

#### Opcodes

```
  0: 0x0000 [0x00] END_REQSTACK()
```

### Event 880

#### Metadata

| Field        | Value    |
|--------------|----------|
| Entrypoint   | 0x0001   |
| Data Size    | 50 bytes |
| Instructions | 11       |

```
      00 01 02 03 04 05 06 07  08 09 0A 0B 0C 0D 0E 0F
      -- -- -- -- -- -- -- --  -- -- -- -- -- -- -- --
0000:    1E F0 FF FF 7F 1C 00  80 66 01 80 F8 FF FF 7F   ........f......
0010: F8 FF FF 7F 74 6C 6B 30  02 8B 7F 02 80 00 28 00  ....tlk0......(.
0020: 03 02 10 02 80 01 2D 00  03 02 10 03 80 1D 04 80  ......-.........
0030: 23 21 00                                          #!.             
```

#### Opcodes

```
  0: 0x0001 [0x1E] EventEntity looks at LocalPlayer and starts talking
  1: 0x0006 [0x1C] WAIT(30* ticks)
  2: 0x0009 [0x66] LOAD_EXT_SCHEDULER_MAIN: Load scheduler "tlk0" with entities [EventEntity, EventEntity], work=29*
  3: 0x0018 [0x02] IF !((LocalPlayer->Render.Flags01 >> 25) & 1 == 0*) GOTO 0x0028
  4: 0x0020 [0x03] Work_Zone[2] = 0*
  5: 0x0025 [0x01] GOTO 0x002D
  6: 0x0028 [0x03] Work_Zone[2] = 1*

SUBROUTINE_002D:
  7: 0x002D [0x1D] PRINT_EVENT_MESSAGE(message_id=18253*)
    → "I am elated that this lambent glow is apparent to thee. Your obvious lack of experience, however, causeth mine eyes to overflow with ruth."
  8: 0x0030 [0x23] WAIT_FOR_DIALOG_INTERACTION
  9: 0x0031 [0x21] END_EVENT
 10: 0x0032 [0x00] END_REQSTACK()
```

### Event 881

#### Metadata

| Field        | Value    |
|--------------|----------|
| Entrypoint   | 0x0033   |
| Data Size    | 50 bytes |
| Instructions | 11       |

```
      00 01 02 03 04 05 06 07  08 09 0A 0B 0C 0D 0E 0F
      -- -- -- -- -- -- -- --  -- -- -- -- -- -- -- --
0030:          1E F0 FF FF 7F  1C 00 80 66 01 80 F8 FF     ........f....
0040: FF 7F F8 FF FF 7F 74 6C  6B 30 02 8B 7F 02 80 00  ......tlk0......
0050: 5A 00 03 02 10 02 80 01  5F 00 03 02 10 03 80 1D  Z......._.......
0060: 05 80 23 21 00                                    ..#!.           
```

#### Opcodes

```
  0: 0x0033 [0x1E] EventEntity looks at LocalPlayer and starts talking
  1: 0x0038 [0x1C] WAIT(30* ticks)
  2: 0x003B [0x66] LOAD_EXT_SCHEDULER_MAIN: Load scheduler "tlk0" with entities [EventEntity, EventEntity], work=29*
  3: 0x004A [0x02] IF !((LocalPlayer->Render.Flags01 >> 25) & 1 == 0*) GOTO 0x005A
  4: 0x0052 [0x03] Work_Zone[2] = 0*
  5: 0x0057 [0x01] GOTO 0x005F
  6: 0x005A [0x03] Work_Zone[2] = 1*

SUBROUTINE_005F:
  7: 0x005F [0x1D] PRINT_EVENT_MESSAGE(message_id=18254*)
    → "I am elated that my lambent glow is apparent to thee. Visit my kinsman who dwelleth in the Pashhow Marshlands anon if thou yearnest for an experience like none other."
  8: 0x0062 [0x23] WAIT_FOR_DIALOG_INTERACTION
  9: 0x0063 [0x21] END_EVENT
 10: 0x0064 [0x00] END_REQSTACK()
```

### Event 882

#### Metadata

| Field        | Value    |
|--------------|----------|
| Entrypoint   | 0x0065   |
| Data Size    | 62 bytes |
| Instructions | 16       |

```
      00 01 02 03 04 05 06 07  08 09 0A 0B 0C 0D 0E 0F
      -- -- -- -- -- -- -- --  -- -- -- -- -- -- -- --
0060:                1E F0 FF  FF 7F 1C 00 80 66 01 80       ........f..
0070: F8 FF FF 7F F8 FF FF 7F  74 6C 6B 30 03 02 10 06  ........tlk0....
0080: 80 03 03 10 07 80 03 04  10 08 80 1D 09 80 23 03  ..............#.
0090: 05 10 03 80 03 06 10 0A  80 1D 0B 80 23 1D 0C 80  ............#...
00A0: 23 21 00                                          #!.             
```

#### Opcodes

```
  0: 0x0065 [0x1E] EventEntity looks at LocalPlayer and starts talking
  1: 0x006A [0x1C] WAIT(30* ticks)
  2: 0x006D [0x66] LOAD_EXT_SCHEDULER_MAIN: Load scheduler "tlk0" with entities [EventEntity, EventEntity], work=29*
  3: 0x007C [0x03] Work_Zone[2] = 856*
  4: 0x0081 [0x03] Work_Zone[3] = 926*
  5: 0x0086 [0x03] Work_Zone[4] = 4368*
  6: 0x008B [0x1D] PRINT_EVENT_MESSAGE(message_id=18255*)
    → "...I am aware of thy mission. Thou art to provision me with $0, $1, or $2."
  7: 0x008E [0x23] WAIT_FOR_DIALOG_INTERACTION
  8: 0x008F [0x03] Work_Zone[5] = 1*
  9: 0x0094 [0x03] Work_Zone[6] = 2*
 10: 0x0099 [0x1D] PRINT_EVENT_MESSAGE(message_id=18256*)
    → "Shouldst thy journey take thee to another nation, my kindred spirits in either [Northern San d'Oria/Port Bastok/Port Windurst] or [Northern San d'Oria/Port Bastok/Port Windurst] would also suffice."
 11: 0x009C [0x23] WAIT_FOR_DIALOG_INTERACTION
 12: 0x009D [0x1D] PRINT_EVENT_MESSAGE(message_id=18257*)
    → "May the winds blow thy way, adventurer."
 13: 0x00A0 [0x23] WAIT_FOR_DIALOG_INTERACTION
 14: 0x00A1 [0x21] END_EVENT
 15: 0x00A2 [0x00] END_REQSTACK()
```

### Event 883

#### Metadata

| Field        | Value     |
|--------------|-----------|
| Entrypoint   | 0x00A3    |
| Data Size    | 254 bytes |
| Instructions | 31        |

```
      00 01 02 03 04 05 06 07  08 09 0A 0B 0C 0D 0E 0F
      -- -- -- -- -- -- -- --  -- -- -- -- -- -- -- --
00A0:          42 45 0D 80 F0  FF FF 7F F0 FF FF 7F 66     BE..........f
00B0: 64 6F 31 02 80 55 0D 80  F0 FF FF 7F F0 FF FF 7F  do1..U..........
00C0: 66 64 6F 31 46 01 38 0E  80 92 01 F8 FF FF 7F BA  fdo1F.8.........
00D0: F0 FF FF 7F 0F 80 10 80  11 80 12 80 80 F0 FF FF  ................
00E0: 7F 80 F8 FF FF 7F 80 AA  71 0E 01 4A F0 FF FF 7F  ........q..J....
00F0: F8 FF FF 7F 1E F0 FF FF  7F 1C 00 80 45 13 80 F8  ............E...
0100: FF FF 7F F8 FF FF 7F 73  32 31 30 02 80 1C 14 80  .......s210.....
0110: 45 0D 80 F0 FF FF 7F F0  FF FF 7F 66 64 69 31 02  E..........fdi1.
0120: 80 1D 15 80 23 52 13 80  F8 FF FF 7F F8 FF FF 7F  ....#R..........
0130: 73 32 31 30 45 13 80 F8  FF FF 7F F8 FF FF 7F 73  s210E..........s
0140: 32 31 31 02 80 66 16 80  F8 FF FF 7F F8 FF FF 7F  211..f..........
0150: 70 61 73 30 03 02 10 17  80 1D 18 80 23 45 0D 80  pas0........#E..
0160: F0 FF FF 7F F0 FF FF 7F  66 64 6F 31 02 80 55 0D  ........fdo1..U.
0170: 80 F0 FF FF 7F F0 FF FF  7F 66 64 6F 31 52 13 80  .........fdo1R..
0180: F8 FF FF 7F F8 FF FF 7F  73 32 31 31 46 00 45 0D  ........s211F.E.
0190: 80 F0 FF FF 7F F0 FF FF  7F 66 64 69 32 02 80 21  .........fdi2..!
01A0: 00                                                .               
```

#### Opcodes

```
  0: 0x00A3 [0x42] SET_CLI_EVENT_CANCEL_DATA()
  1: 0x00A4 [0x45] LOAD_SCHEDULED_TASK: Load scheduler "fdo1" with entities [LocalPlayer, LocalPlayer], work=[200*, 0*]
  2: 0x00B5 [0x55] WAIT_LOAD_SCHEDULER: Wait for scheduler "fdo1" with entities [LocalPlayer, LocalPlayer], work=200*
  3: 0x00C4 [0x46] CAMERA_CONTROL: Disable user control
  4: 0x00C6 [0x38] SET_CLIENT_EVENT_MODE(mode=27*)
  5: 0x00C9 [0x92] EventEntity->Render.Flags3 ^= 0x01
  6: 0x00CF [0xBA] SET_ENTITY_POSITION(entity_id=LocalPlayer, pos_x=79.395*, pos_z=42.615*, pos_y=-0.199*, direction=3.1°*)
  7: 0x00DC [0x80] LOAD_WAIT(entity=LocalPlayer)
  8: 0x00E1 [0x80] LOAD_WAIT(entity=EventEntity)
  9: 0x00E6 [0x80] LOAD_WAIT(entity=Odyssean Passage (ID: 17723818/0x010E71AA))
 10: 0x00EB [0x4A] LocalPlayer looks at EventEntity
 11: 0x00F4 [0x1E] EventEntity looks at LocalPlayer and starts talking
 12: 0x00F9 [0x1C] WAIT(30* ticks)
 13: 0x00FC [0x45] LOAD_SCHEDULED_TASK: Load scheduler "s210" with entities [EventEntity, EventEntity], work=[621*, 0*]
 14: 0x010D [0x1C] WAIT(15* ticks)
 15: 0x0110 [0x45] LOAD_SCHEDULED_TASK: Load scheduler "fdi1" with entities [LocalPlayer, LocalPlayer], work=[200*, 0*]
 16: 0x0121 [0x1D] PRINT_EVENT_MESSAGE(message_id=18258*)
    → "...And thus [he/she] arriveth."
 17: 0x0124 [0x23] WAIT_FOR_DIALOG_INTERACTION
 18: 0x0125 [0x52] END_LOAD_SCHEDULER: End scheduler "s210" with entities [EventEntity, EventEntity], work=621*
 19: 0x0134 [0x45] LOAD_SCHEDULED_TASK: Load scheduler "s211" with entities [EventEntity, EventEntity], work=[621*, 0*]
 20: 0x0145 [0x66] LOAD_EXT_SCHEDULER_MAIN: Load scheduler "pas0" with entities [EventEntity, EventEntity], work=91*
 21: 0x0154 [0x03] Work_Zone[2] = 2350*
 22: 0x0159 [0x1D] PRINT_EVENT_MESSAGE(message_id=18259*)
    → "I shan't cause thee teen. All I ask is that thou wearest this $3 upon thy finger and let thyself bathe in its luminescent emanations."
 23: 0x015C [0x23] WAIT_FOR_DIALOG_INTERACTION
 24: 0x015D [0x45] LOAD_SCHEDULED_TASK: Load scheduler "fdo1" with entities [LocalPlayer, LocalPlayer], work=[200*, 0*]
 25: 0x016E [0x55] WAIT_LOAD_SCHEDULER: Wait for scheduler "fdo1" with entities [LocalPlayer, LocalPlayer], work=200*
 26: 0x017D [0x52] END_LOAD_SCHEDULER: End scheduler "s211" with entities [EventEntity, EventEntity], work=621*
 27: 0x018C [0x46] CAMERA_CONTROL: Restore default settings
 28: 0x018E [0x45] LOAD_SCHEDULED_TASK: Load scheduler "fdi2" with entities [LocalPlayer, LocalPlayer], work=[200*, 0*]
 29: 0x019F [0x21] END_EVENT
 30: 0x01A0 [0x00] END_REQSTACK()
```

### Event 884

#### Metadata

| Field        | Value    |
|--------------|----------|
| Entrypoint   | 0x01A1   |
| Data Size    | 34 bytes |
| Instructions | 8        |

```
      00 01 02 03 04 05 06 07  08 09 0A 0B 0C 0D 0E 0F
      -- -- -- -- -- -- -- --  -- -- -- -- -- -- -- --
01A0:    1E F0 FF FF 7F 1C 00  80 66 01 80 F8 FF FF 7F   ........f......
01B0: F8 FF FF 7F 74 6C 6B 30  03 02 10 17 80 1D 19 80  ....tlk0........
01C0: 23 21 00                                          #!.             
```

#### Opcodes

```
  0: 0x01A1 [0x1E] EventEntity looks at LocalPlayer and starts talking
  1: 0x01A6 [0x1C] WAIT(30* ticks)
  2: 0x01A9 [0x66] LOAD_EXT_SCHEDULER_MAIN: Load scheduler "tlk0" with entities [EventEntity, EventEntity], work=29*
  3: 0x01B8 [0x03] Work_Zone[2] = 2350*
  4: 0x01BD [0x1D] PRINT_EVENT_MESSAGE(message_id=18260*)
    → "Wearest that $3 upon thy finger and let thyself bathe in its luminescent emanations."
  5: 0x01C0 [0x23] WAIT_FOR_DIALOG_INTERACTION
  6: 0x01C1 [0x21] END_EVENT
  7: 0x01C2 [0x00] END_REQSTACK()
```

### Event 886

#### Metadata

| Field        | Value    |
|--------------|----------|
| Entrypoint   | 0x01C3   |
| Data Size    | 96 bytes |
| Instructions | 26       |

```
      00 01 02 03 04 05 06 07  08 09 0A 0B 0C 0D 0E 0F
      -- -- -- -- -- -- -- --  -- -- -- -- -- -- -- --
01C0:          03 04 00 02 80  42 1E F0 FF FF 7F 1C 00     .....B.......
01D0: 80 66 01 80 F8 FF FF 7F  F8 FF FF 7F 74 6C 6B 30  .f..........tlk0
01E0: 1D 1A 80 23 1D 1B 80 23  1D 1C 80 23 1D 1D 80 23  ...#...#...#...#
01F0: 1D 1E 80 23 1D 1F 80 23  1D 20 80 23 66 01 80 F8  ...#...#. .#f...
0200: FF FF 7F F8 FF FF 7F 74  6C 6B 31 1A 5A 08 66 01  .......tlk1.Z.f.
0210: 80 F8 FF FF 7F F8 FF FF  7F 74 6C 6B 30 1D 21 80  .........tlk0.!.
0220: 23 21 00                                          #!.             
```

#### Opcodes

```
  0: 0x01C3 [0x03] ExtData[1]->WorkLocal[4] = 0*
  1: 0x01C8 [0x42] SET_CLI_EVENT_CANCEL_DATA()
  2: 0x01C9 [0x1E] EventEntity looks at LocalPlayer and starts talking
  3: 0x01CE [0x1C] WAIT(30* ticks)
  4: 0x01D1 [0x66] LOAD_EXT_SCHEDULER_MAIN: Load scheduler "tlk0" with entities [EventEntity, EventEntity], work=29*
  5: 0x01E0 [0x1D] PRINT_EVENT_MESSAGE(message_id=18261*)
    → "Quotha...the light that shines forth from thy soul hath brightened a considerable degree."
  6: 0x01E3 [0x23] WAIT_FOR_DIALOG_INTERACTION
  7: 0x01E4 [0x1D] PRINT_EVENT_MESSAGE(message_id=18262*)
    → "Natheless, it remaineth but a dull glow akin to twitherym dust whenas compared to the blindingly refulgent souls of more accomplished combatants."
  8: 0x01E7 [0x23] WAIT_FOR_DIALOG_INTERACTION
  9: 0x01E8 [0x1D] PRINT_EVENT_MESSAGE(message_id=18263*)
    → "To fulfil thy true potential, thou needs assume the role of gladiator and bathe in monipulator blood."
 10: 0x01EB [0x23] WAIT_FOR_DIALOG_INTERACTION
 11: 0x01EC [0x1D] PRINT_EVENT_MESSAGE(message_id=18264*)
    → "As a monipulator, thou hast likely reduced opponents everywhere to bawling babes at the mere mention of thy name."
 12: 0x01EF [0x23] WAIT_FOR_DIALOG_INTERACTION
 13: 0x01F0 [0x1D] PRINT_EVENT_MESSAGE(message_id=18265*)
    → "Simultaneously, though, combatants who hath cut swaths through adversaries while inside bestial vessels betimes yearneth for more...to bite the hand that feedeth."
 14: 0x01F3 [0x23] WAIT_FOR_DIALOG_INTERACTION
 15: 0x01F4 [0x1D] PRINT_EVENT_MESSAGE(message_id=18266*)
    → "A saga sung of those who instill terror and those who release the land from it... Bwahaha, a worthy tale of spiritual strife, forsooth."
 16: 0x01F7 [0x23] WAIT_FOR_DIALOG_INTERACTION
 17: 0x01F8 [0x1D] PRINT_EVENT_MESSAGE(message_id=18267*)
    → "Now that the stage hath been set, I shall impart the extent of my gladiatorial knowledge to thee. Simply ask and thou shalt receive."
 18: 0x01FB [0x23] WAIT_FOR_DIALOG_INTERACTION
 19: 0x01FC [0x66] LOAD_EXT_SCHEDULER_MAIN: Load scheduler "tlk1" with entities [EventEntity, EventEntity], work=29*
 20: 0x020B [0x1A] CALL_SUBROUTINE(address=0x085A)
 21: 0x020E [0x66] LOAD_EXT_SCHEDULER_MAIN: Load scheduler "tlk0" with entities [EventEntity, EventEntity], work=29*
 22: 0x021D [0x1D] PRINT_EVENT_MESSAGE(message_id=18289*)
    → "Thy soul pineth for more than thou canst conceive. Set it free and embark upon gladiatorial exploits the likes of which Vana'diel hath never witnessed."
 23: 0x0220 [0x23] WAIT_FOR_DIALOG_INTERACTION
 24: 0x0221 [0x21] END_EVENT
 25: 0x0222 [0x00] END_REQSTACK()
```

### Event 891

#### Metadata

| Field        | Value     |
|--------------|-----------|
| Entrypoint   | 0x0223    |
| Data Size    | 142 bytes |
| Instructions | 36        |

```
      00 01 02 03 04 05 06 07  08 09 0A 0B 0C 0D 0E 0F
      -- -- -- -- -- -- -- --  -- -- -- -- -- -- -- --
0220:          03 02 00 04 10  03 03 00 14 80 1D 22 80     ...........".
0230: 23 24 23 80 02 80 03 00  25 02 00 10 24 80 00 46  #$#.....%...$..F
0240: 02 21 00 01 46 02 66 01  80 F8 FF FF 7F F8 FF FF  .!..F.f.........
0250: 7F 74 6C 6B 30 02 02 00  02 80 80 64 02 1D 25 80  .tlk0......d..%.
0260: 23 01 AF 02 02 02 00 03  80 80 73 02 1D 25 80 23  #.........s..%.#
0270: 01 AF 02 02 02 00 0A 80  80 82 02 1D 26 80 23 01  ............&.#.
0280: AF 02 02 02 00 27 80 80  91 02 1D 26 80 23 01 AF  .....'.....&.#..
0290: 02 02 02 00 28 80 80 A0  02 1D 29 80 23 01 AF 02  ....(.....).#...
02A0: 02 02 00 24 80 80 AF 02  1D 29 80 23 01 AF 02 21  ...$.....).#...!
02B0: 00                                                .               
```

#### Opcodes

```
  0: 0x0223 [0x03] ExtData[1]->WorkLocal[2] = Work_Zone[4]
  1: 0x0228 [0x03] ExtData[1]->WorkLocal[3] = 15*
  2: 0x022D [0x1D] PRINT_EVENT_MESSAGE(message_id=18290*)
    → "Aroint, thou malmsey-nosed fustilarian!"
  3: 0x0230 [0x23] WAIT_FOR_DIALOG_INTERACTION
  4: 0x0231 [0x24] CREATE_DIALOG(message_id=18291*, default_option=0*, option_flags=ExtData[1]->WorkLocal[3])
    → "What shall you do? [Receive $3./Return $3./Participate in PT Content./Exchange prestige./Hear an explanation./Engage in friendly banter./Nothing.]"
  5: 0x0238 [0x25] WAIT_DIALOG_SELECT()
  6: 0x0239 [0x02] IF !(Work_Zone[0] == 5*) GOTO 0x0246
  7: 0x0241 [0x21] END_EVENT
  8: 0x0242 [0x00] END_REQSTACK()

SUBROUTINE_0246:
  9: 0x0246 [0x66] LOAD_EXT_SCHEDULER_MAIN: Load scheduler "tlk0" with entities [EventEntity, EventEntity], work=29*
 10: 0x0255 [0x02] IF !(ExtData[1]->WorkLocal[2] == 0*) GOTO 0x0264
 11: 0x025D [0x1D] PRINT_EVENT_MESSAGE(message_id=18304*)
    → "Good and evil, monipulator and adventurer...they are but two sides of the same coin."
 12: 0x0260 [0x23] WAIT_FOR_DIALOG_INTERACTION
 13: 0x0261 [0x01] GOTO 0x02AF
 14: 0x0264 [0x02] IF !(ExtData[1]->WorkLocal[2] == 1*) GOTO 0x0273
 15: 0x026C [0x1D] PRINT_EVENT_MESSAGE(message_id=18304*)
    → "Good and evil, monipulator and adventurer...they are but two sides of the same coin."
 16: 0x026F [0x23] WAIT_FOR_DIALOG_INTERACTION
 17: 0x0270 [0x01] GOTO 0x02AF
 18: 0x0273 [0x02] IF !(ExtData[1]->WorkLocal[2] == 2*) GOTO 0x0282
 19: 0x027B [0x1D] PRINT_EVENT_MESSAGE(message_id=18305*)
    → "Oh, how I yearn to assume the form of a monster in the same manner as thee. Wellaway, I must be content with mine empty husk of a vessel."
 20: 0x027E [0x23] WAIT_FOR_DIALOG_INTERACTION
 21: 0x027F [0x01] GOTO 0x02AF
 22: 0x0282 [0x02] IF !(ExtData[1]->WorkLocal[2] == 3*) GOTO 0x0291
 23: 0x028A [0x1D] PRINT_EVENT_MESSAGE(message_id=18305*)
    → "Oh, how I yearn to assume the form of a monster in the same manner as thee. Wellaway, I must be content with mine empty husk of a vessel."
 24: 0x028D [0x23] WAIT_FOR_DIALOG_INTERACTION
 25: 0x028E [0x01] GOTO 0x02AF
 26: 0x0291 [0x02] IF !(ExtData[1]->WorkLocal[2] == 4*) GOTO 0x02A0
 27: 0x0299 [0x1D] PRINT_EVENT_MESSAGE(message_id=18307*)
    → "One could conceivably clepe me a monipulator as well, sith I too possess hosts."
 28: 0x029C [0x23] WAIT_FOR_DIALOG_INTERACTION
 29: 0x029D [0x01] GOTO 0x02AF
 30: 0x02A0 [0x02] IF !(ExtData[1]->WorkLocal[2] == 5*) GOTO 0x02AF
 31: 0x02A8 [0x1D] PRINT_EVENT_MESSAGE(message_id=18307*)
    → "One could conceivably clepe me a monipulator as well, sith I too possess hosts."
 32: 0x02AB [0x23] WAIT_FOR_DIALOG_INTERACTION
 33: 0x02AC [0x01] GOTO 0x02AF

SUBROUTINE_02AF:
 34: 0x02AF [0x21] END_EVENT
 35: 0x02B0 [0x00] END_REQSTACK()
```

#### Data or dead code:

```
# Dead code (unreachable instructions):
     0x0243 [0x01] GOTO 0x0246
```

### Event 887

#### Metadata

| Field        | Value     |
|--------------|-----------|
| Entrypoint   | 0x02B1    |
| Data Size    | 362 bytes |
| Instructions | 76        |

```
      00 01 02 03 04 05 06 07  08 09 0A 0B 0C 0D 0E 0F
      -- -- -- -- -- -- -- --  -- -- -- -- -- -- -- --
02B0:    03 00 00 02 80 03 01  00 02 80 03 02 00 02 80   ...............
02C0: 03 03 00 02 80 03 00 00  02 10 03 01 00 03 10 03  ................
02D0: 02 00 04 10 03 04 00 05  10 02 00 00 02 80 00 EB  ................
02E0: 02 3C 03 00 03 80 03 80  01 F2 02 3C 03 00 02 80  .<.........<....
02F0: 03 80 02 04 00 02 80 00  01 03 3C 03 00 0A 80 03  ..........<.....
0300: 80 1E F0 FF FF 7F 1C 00  80 66 01 80 F8 FF FF 7F  .........f......
0310: F8 FF FF 7F 74 6C 6B 30  1D 20 80 23 66 01 80 F8  ....tlk0. .#f...
0320: FF FF 7F F8 FF FF 7F 74  6C 6B 31 05 06 00 02 06  .......tlk1.....
0330: 00 02 80 02 19 04 03 02  10 2A 80 24 23 80 02 80  .........*.$#...
0340: 03 00 25 02 00 10 02 80  00 8B 03 03 02 10 2A 80  ..%...........*.
0350: 1D 2B 80 23 03 02 10 2A  80 24 2C 80 03 80 02 80  .+.#...*.$,.....
0360: 25 02 00 10 02 80 00 7D  03 42 40 02 80 14 80 01  %......}.B@.....
0370: 10 2D 80 1D 21 80 23 06  06 00 01 88 03 02 00 10  .-..!.#.........
0380: 03 80 00 88 03 01 88 03  01 16 04 02 00 10 03 80  ................
0390: 00 D3 03 03 02 10 2A 80  1D 2E 80 23 03 02 10 2A  ......*....#...*
03A0: 80 24 2F 80 03 80 02 80  25 02 00 10 02 80 00 C5  .$/.....%.......
03B0: 03 42 40 02 80 14 80 01  10 30 80 1D 31 80 23 06  .B@......0..1.#.
03C0: 06 00 01 D0 03 02 00 10  03 80 00 D0 03 01 D0 03  ................
03D0: 01 16 04 02 00 10 0A 80  00 DE 03 01 16 04 02 00  ................
03E0: 10 27 80 00 EC 03 1A B7  09 01 16 04 02 00 10 28  .'.............(
03F0: 80 00 FA 03 1A 5A 08 01  16 04 02 00 10 24 80 00  .....Z.......$..
0400: 08 04 1A 0E 0B 01 16 04  02 00 10 32 80 00 16 04  ...........2....
0410: 06 06 00 01 16 04 01 2E  03 21 00                 .........!.     
```

#### Opcodes

```
  0: 0x02B1 [0x03] ExtData[1]->WorkLocal[0] = 0*
  1: 0x02B6 [0x03] ExtData[1]->WorkLocal[1] = 0*
  2: 0x02BB [0x03] ExtData[1]->WorkLocal[2] = 0*
  3: 0x02C0 [0x03] ExtData[1]->WorkLocal[3] = 0*
  4: 0x02C5 [0x03] ExtData[1]->WorkLocal[0] = Work_Zone[2]
  5: 0x02CA [0x03] ExtData[1]->WorkLocal[1] = Work_Zone[3]
  6: 0x02CF [0x03] ExtData[1]->WorkLocal[2] = Work_Zone[4]
  7: 0x02D4 [0x03] ExtData[1]->WorkLocal[4] = Work_Zone[5]
  8: 0x02D9 [0x02] IF !(ExtData[1]->WorkLocal[0] == 0*) GOTO 0x02EB
  9: 0x02E1 [0x3C] SET_BIT_FLAG_CONDITIONAL(target_work_offset=ExtData[1]->WorkLocal[3], bit_index_work_offset=1*, condition_work_offset=1*)
 10: 0x02E8 [0x01] GOTO 0x02F2
 11: 0x02EB [0x3C] SET_BIT_FLAG_CONDITIONAL(target_work_offset=ExtData[1]->WorkLocal[3], bit_index_work_offset=0*, condition_work_offset=1*)

SUBROUTINE_02F2:
 12: 0x02F2 [0x02] IF !(ExtData[1]->WorkLocal[4] == 0*) GOTO 0x0301
 13: 0x02FA [0x3C] SET_BIT_FLAG_CONDITIONAL(target_work_offset=ExtData[1]->WorkLocal[3], bit_index_work_offset=2*, condition_work_offset=1*)
 14: 0x0301 [0x1E] EventEntity looks at LocalPlayer and starts talking
 15: 0x0306 [0x1C] WAIT(30* ticks)
 16: 0x0309 [0x66] LOAD_EXT_SCHEDULER_MAIN: Load scheduler "tlk0" with entities [EventEntity, EventEntity], work=29*
 17: 0x0318 [0x1D] PRINT_EVENT_MESSAGE(message_id=18267*)
    → "Now that the stage hath been set, I shall impart the extent of my gladiatorial knowledge to thee. Simply ask and thou shalt receive."
 18: 0x031B [0x23] WAIT_FOR_DIALOG_INTERACTION
 19: 0x031C [0x66] LOAD_EXT_SCHEDULER_MAIN: Load scheduler "tlk1" with entities [EventEntity, EventEntity], work=29*
 20: 0x032B [0x05] ExtData[1]->WorkLocal[6] = 1

SUBROUTINE_032E:
 21: 0x032E [0x02] IF !(ExtData[1]->WorkLocal[6] <= 0*) GOTO 0x0419
 22: 0x0336 [0x03] Work_Zone[2] = 2351*
 23: 0x033B [0x24] CREATE_DIALOG(message_id=18291*, default_option=0*, option_flags=ExtData[1]->WorkLocal[3])
    → "What shall you do? [Receive $3./Return $3./Participate in PT Content./Exchange prestige./Hear an explanation./Engage in friendly banter./Nothing.]"
 24: 0x0342 [0x25] WAIT_DIALOG_SELECT()
 25: 0x0343 [0x02] IF !(Work_Zone[0] == 0*) GOTO 0x038B
 26: 0x034B [0x03] Work_Zone[2] = 2351*
 27: 0x0350 [0x1D] PRINT_EVENT_MESSAGE(message_id=18292*)
    → "Possessing $6 enableth thee to enter combat with monipulators. Dost thou assent?"
 28: 0x0353 [0x23] WAIT_FOR_DIALOG_INTERACTION
 29: 0x0354 [0x03] Work_Zone[2] = 2351*
 30: 0x0359 [0x24] CREATE_DIALOG(message_id=18293*, default_option=1*, option_flags=0*)
    → "Give your assent? [Yes./No.]"
 31: 0x0360 [0x25] WAIT_DIALOG_SELECT()
 32: 0x0361 [0x02] IF !(Work_Zone[0] == 0*) GOTO 0x037D
 33: 0x0369 [0x42] SET_CLI_EVENT_CANCEL_DATA()
 34: 0x036A [0x40] SET_BIT_WORK_RANGE(start_bit=0*, end_bit=15*, target=Work_Zone[1], source=123*)
 35: 0x0373 [0x1D] PRINT_EVENT_MESSAGE(message_id=18289*)
    → "Thy soul pineth for more than thou canst conceive. Set it free and embark upon gladiatorial exploits the likes of which Vana'diel hath never witnessed."
 36: 0x0376 [0x23] WAIT_FOR_DIALOG_INTERACTION
 37: 0x0377 [0x06] ExtData[1]->WorkLocal[6] = 0
 38: 0x037A [0x01] GOTO 0x0388
 39: 0x037D [0x02] IF !(Work_Zone[0] == 1*) GOTO 0x0388
 40: 0x0385 [0x01] GOTO 0x0388

SUBROUTINE_0388:
 41: 0x0388 [0x01] GOTO 0x0416
 42: 0x038B [0x02] IF !(Work_Zone[0] == 1*) GOTO 0x03D3
 43: 0x0393 [0x03] Work_Zone[2] = 2351*
 44: 0x0398 [0x1D] PRINT_EVENT_MESSAGE(message_id=18294*)
    → "Thou tardy-gaited poltroon! Dost thou soothly desire to return thy $3 and withdraw?"
 45: 0x039B [0x23] WAIT_FOR_DIALOG_INTERACTION
 46: 0x039C [0x03] Work_Zone[2] = 2351*
 47: 0x03A1 [0x24] CREATE_DIALOG(message_id=18295*, default_option=1*, option_flags=0*)
    → "Return and withdraw? [Yes./No.]"
 48: 0x03A8 [0x25] WAIT_DIALOG_SELECT()
 49: 0x03A9 [0x02] IF !(Work_Zone[0] == 0*) GOTO 0x03C5
 50: 0x03B1 [0x42] SET_CLI_EVENT_CANCEL_DATA()
 51: 0x03B2 [0x40] SET_BIT_WORK_RANGE(start_bit=0*, end_bit=15*, target=Work_Zone[1], source=321*)
 52: 0x03BB [0x1D] PRINT_EVENT_MESSAGE(message_id=18296*)
    → "Bear in mind that transferring thy soul to the frames of other creatures hath its limits. Occasionally stretch thy sinews as a gladiator to both round thy world view and reach higher heights."
 53: 0x03BE [0x23] WAIT_FOR_DIALOG_INTERACTION
 54: 0x03BF [0x06] ExtData[1]->WorkLocal[6] = 0
 55: 0x03C2 [0x01] GOTO 0x03D0
 56: 0x03C5 [0x02] IF !(Work_Zone[0] == 1*) GOTO 0x03D0
 57: 0x03CD [0x01] GOTO 0x03D0

SUBROUTINE_03D0:
 58: 0x03D0 [0x01] GOTO 0x0416
 59: 0x03D3 [0x02] IF !(Work_Zone[0] == 2*) GOTO 0x03DE
 60: 0x03DB [0x01] GOTO 0x0416
 61: 0x03DE [0x02] IF !(Work_Zone[0] == 3*) GOTO 0x03EC
 62: 0x03E6 [0x1A] CALL_SUBROUTINE(address=0x09B7)
 63: 0x03E9 [0x01] GOTO 0x0416
 64: 0x03EC [0x02] IF !(Work_Zone[0] == 4*) GOTO 0x03FA
 65: 0x03F4 [0x1A] CALL_SUBROUTINE(address=0x085A)
 66: 0x03F7 [0x01] GOTO 0x0416
 67: 0x03FA [0x02] IF !(Work_Zone[0] == 5*) GOTO 0x0408
 68: 0x0402 [0x1A] CALL_SUBROUTINE(address=0x0B0E)
 69: 0x0405 [0x01] GOTO 0x0416
 70: 0x0408 [0x02] IF !(Work_Zone[0] == 6*) GOTO 0x0416
 71: 0x0410 [0x06] ExtData[1]->WorkLocal[6] = 0
 72: 0x0413 [0x01] GOTO 0x0416

SUBROUTINE_0416:
 73: 0x0416 [0x01] GOTO 0x032E
 74: 0x0419 [0x21] END_EVENT
 75: 0x041A [0x00] END_REQSTACK()
```

### Event 889

#### Metadata

| Field        | Value     |
|--------------|-----------|
| Entrypoint   | 0x041B    |
| Data Size    | 117 bytes |
| Instructions | 25        |

```
      00 01 02 03 04 05 06 07  08 09 0A 0B 0C 0D 0E 0F
      -- -- -- -- -- -- -- --  -- -- -- -- -- -- -- --
0410:                                   42 1E F0 FF FF             B....
0420: 7F 1A 69 0B 03 09 00 02  10 03 0F 00 04 10 03 10  ..i.............
0430: 00 05 10 03 11 00 06 10  03 12 00 07 10 03 13 00  ................
0440: 08 10 03 14 00 09 10 03  03 10 33 80 03 04 10 09  ..........3.....
0450: 00 03 05 10 03 80 48 34  80 23 CC 01 09 00 12 00  ......H4.#......
0460: 13 00 14 00 03 03 10 0A  80 03 04 10 09 00 48 35  ..............H5
0470: 80 23 CC 01 02 80 02 80  02 80 02 80 40 02 80 36  .#..........@..6
0480: 80 01 10 36 80 40 37 80  38 80 01 10 02 80 21 00  ...6.@7.8.....!.
```

#### Opcodes

```
  0: 0x041B [0x42] SET_CLI_EVENT_CANCEL_DATA()
  1: 0x041C [0x1E] EventEntity looks at LocalPlayer and starts talking
  2: 0x0421 [0x1A] CALL_SUBROUTINE(address=0x0B69)
  3: 0x0424 [0x03] ExtData[1]->WorkLocal[9] = Work_Zone[2]
  4: 0x0429 [0x03] ExtData[1]->WorkLocal[15] = Work_Zone[4]
  5: 0x042E [0x03] ExtData[1]->WorkLocal[16] = Work_Zone[5]
  6: 0x0433 [0x03] ExtData[1]->WorkLocal[17] = Work_Zone[6]
  7: 0x0438 [0x03] ExtData[1]->WorkLocal[18] = Work_Zone[7]
  8: 0x043D [0x03] ExtData[1]->WorkLocal[19] = Work_Zone[8]
  9: 0x0442 [0x03] ExtData[1]->WorkLocal[20] = Work_Zone[9]
 10: 0x0447 [0x03] Work_Zone[3] = 100*
 11: 0x044C [0x03] Work_Zone[4] = ExtData[1]->WorkLocal[9]
 12: 0x0451 [0x03] Work_Zone[5] = 1*
 13: 0x0456 [0x48] [System] [18311*]:
    → "In return for $1 point[/s] of prestige from thee, I shall [enhance the arcane glyptics extant on/engrave arcane glyptics upon] this $2."
 14: 0x0459 [0x23] WAIT_FOR_DIALOG_INTERACTION
 15: 0x045A [0xCC] ITEM_INFO_WINDOW_HANDLER(case=0x01 - Open item info window (with chase), check_value=ExtData[1]->WorkLocal[9], buffer1=ExtData[1]->WorkLocal[18], buffer2=ExtData[1]->WorkLocal[19], buffer3=ExtData[1]->WorkLocal[20])
 16: 0x0464 [0x03] Work_Zone[3] = 2*
 17: 0x0469 [0x03] Work_Zone[4] = ExtData[1]->WorkLocal[9]
 18: 0x046E [0x48] [System] [18312*]:
    → "This $2's [original/post-augmentation/post-enhancement] attributes are thus:"
 19: 0x0471 [0x23] WAIT_FOR_DIALOG_INTERACTION
 20: 0x0472 [0xCC] ITEM_INFO_WINDOW_HANDLER(case=0x01 - Open item info window (with chase), check_value=0*, buffer1=0*, buffer2=0*, buffer3=0*)
 21: 0x047C [0x40] SET_BIT_WORK_RANGE(start_bit=0*, end_bit=7*, target=Work_Zone[1], source=7*)
 22: 0x0485 [0x40] SET_BIT_WORK_RANGE(start_bit=8*, end_bit=23*, target=Work_Zone[1], source=0*)
 23: 0x048E [0x21] END_EVENT
 24: 0x048F [0x00] END_REQSTACK()
```

### Event 890

#### Metadata

| Field        | Value      |
|--------------|------------|
| Entrypoint   | 0x0490     |
| Data Size    | 1775 bytes |
| Instructions | 199        |

```
      00 01 02 03 04 05 06 07  08 09 0A 0B 0C 0D 0E 0F
      -- -- -- -- -- -- -- --  -- -- -- -- -- -- -- --
0490: 42 1E F0 FF FF 7F 1A 69  0B 03 1B 00 02 10 03 08  B......i........
04A0: 00 03 10 03 16 00 04 10  03 0E 00 05 10 03 15 00  ................
04B0: 06 10 03 0F 00 07 10 03  10 00 08 10 03 11 00 09  ................
04C0: 10 06 0A 00 03 17 00 02  80 02 0A 00 02 80 00 58  ...............X
04D0: 08 03 0B 00 02 80 06 18  00 02 0F 00 02 80 01 E4  ................
04E0: 04 05 18 00 02 10 00 02  80 01 EF 04 05 18 00 02  ................
04F0: 11 00 02 80 01 FA 04 05  18 00 06 19 00 02 18 00  ................
0500: 02 80 02 AE 05 CC 01 15  00 0F 00 10 00 11 00 02  ................
0510: 16 00 02 80 80 2F 05 03  19 17 15 00 1D 39 80 23  ...../.......9.#
0520: 3C 0B 00 02 80 03 80 03  05 00 03 80 01 68 05 02  <............h..
0530: 16 00 03 80 80 48 05 03  19 17 15 00 1D 3A 80 23  .....H.......:.#
0540: 03 05 00 02 80 01 68 05  02 16 00 0A 80 80 68 05  ......h.......h.
0550: 03 02 10 15 00 1D 3B 80  23 3C 0B 00 02 80 03 80  ......;.#<......
0560: 03 05 00 03 80 01 68 05  CC 01 02 80 02 80 02 80  ......h.........
0570: 02 80 24 3C 80 05 00 0B  00 25 02 00 10 02 80 00  ..$<.....%......
0580: 85 05 01 AB 05 02 00 10  03 80 00 95 05 03 17 00  ................
0590: 03 80 01 AB 05 02 00 10  0A 80 00 AB 05 03 01 10  ................
05A0: 3D 80 05 19 00 05 0A 00  01 AB 05 01 BC 05 03 19  =...............
05B0: 17 15 00 1D 3E 80 23 03  17 00 03 80 06 1A 00 02  ....>.#.........
05C0: 19 00 02 80 00 55 08 02  17 00 03 80 00 C8 06 48  .....U.........H
05D0: 3F 80 23 02 19 00 02 80  00 C5 06 24 40 80 1A 00  ?.#........$@...
05E0: 02 80 25 02 00 10 27 80  00 F9 05 03 01 10 3D 80  ..%...'.......=.
05F0: 05 19 00 05 0A 00 01 F9  05 03 1A 00 00 10 02 19  ................
0600: 00 02 80 00 C2 06 40 02  80 36 80 01 10 37 80 40  ......@..6...7.@
0610: 37 80 38 80 01 10 1A 00  43 00 43 01 03 12 00 02  7.8.....C.C.....
0620: 10 03 13 00 03 10 03 14  00 04 10 03 1C 00 02 80  ................
0630: 03 1C 00 05 10 CC 01 15  00 12 00 13 00 14 00 02  ................
0640: 1C 00 02 80 00 4E 06 48  41 80 23 01 52 06 48 42  .....N.HA.#.R.HB
0650: 80 23 CC 01 02 80 02 80  02 80 02 80 24 43 80 03  .#..........$C..
0660: 80 02 80 25 02 00 10 02  80 00 B7 06 02 18 00 02  ...%............
0670: 80 00 8E 06 03 03 10 44  80 40 02 80 36 80 01 10  .......D.@..6...
0680: 45 80 40 37 80 38 80 01  10 1A 00 01 A5 06 03 03  E.@7.8..........
0690: 10 33 80 40 02 80 36 80  01 10 46 80 40 37 80 38  .3.@..6...F.@7.8
06A0: 80 01 10 18 00 03 04 10  15 00 1D 47 80 23 05 19  ...........G.#..
06B0: 00 05 0A 00 01 C2 06 02  00 10 03 80 00 C2 06 01  ................
06C0: C2 06 01 D3 05 01 55 08  1D 48 80 23 02 19 00 02  ......U..H.#....
06D0: 80 00 55 08 40 02 80 36  80 01 10 49 80 40 37 80  ..U.@..6...I.@7.
06E0: 38 80 01 10 49 80 43 00  43 01 03 0B 00 02 80 02  8...I.C.C.......
06F0: 02 10 02 80 00 FE 06 3C  0B 00 03 80 03 80 02 03  .......<........
0700: 10 02 80 00 0D 07 3C 0B  00 0A 80 03 80 02 04 10  ......<.........
0710: 02 80 00 1C 07 3C 0B 00  27 80 03 80 02 05 10 02  .....<..'.......
0720: 80 00 2B 07 3C 0B 00 28  80 03 80 02 06 10 02 80  ..+.<..(........
0730: 00 3A 07 3C 0B 00 24 80  03 80 02 07 10 02 80 00  .:.<..$.........
0740: 49 07 3C 0B 00 32 80 03  80 02 08 10 02 80 00 58  I.<..2.........X
0750: 07 3C 0B 00 36 80 03 80  02 09 10 02 80 00 67 07  .<..6.........g.
0760: 3C 0B 00 37 80 03 80 24  4A 80 1A 00 0B 00 25 02  <..7...$J.....%.
0770: 00 10 02 80 00 85 07 05  19 00 05 0A 00 03 01 10  ................
0780: 3D 80 01 05 08 02 00 10  03 80 00 95 07 03 1D 00  =...............
0790: 02 10 01 05 08 02 00 10  0A 80 00 A5 07 03 1D 00  ................
07A0: 03 10 01 05 08 02 00 10  27 80 00 B5 07 03 1D 00  ........'.......
07B0: 04 10 01 05 08 02 00 10  28 80 00 C5 07 03 1D 00  ........(.......
07C0: 05 10 01 05 08 02 00 10  24 80 00 D5 07 03 1D 00  ........$.......
07D0: 06 10 01 05 08 02 00 10  32 80 00 E5 07 03 1D 00  ........2.......
07E0: 07 10 01 05 08 02 00 10  36 80 00 F5 07 03 1D 00  ........6.......
07F0: 08 10 01 05 08 02 00 10  37 80 00 05 08 03 1D 00  ........7.......
0800: 09 10 01 05 08 03 1A 00  00 10 02 19 00 02 80 00  ................
0810: 52 08 93 1D 00 1D 4B 80  23 93 02 80 24 4C 80 03  R.....K.#...$L..
0820: 80 02 80 25 02 00 10 02  80 00 47 08 40 02 80 36  ...%......G.@..6
0830: 80 01 10 49 80 40 37 80  38 80 01 10 1A 00 05 19  ...I.@7.8.......
0840: 00 05 0A 00 01 52 08 02  00 10 03 80 00 52 08 01  .....R.......R..
0850: 52 08 01 CC 06 01 C9 04  21 00 03 1E 00 02 80 02  R.......!.......
0860: 04 00 02 80 00 6E 08 3C  1E 00 28 80 03 80 24 4D  .....n.<..(...$M
0870: 80 02 80 1E 00 25 02 00  10 02 80 00 D4 08 66 01  .....%........f.
0880: 80 F8 FF FF 7F F8 FF FF  7F 74 6C 6B 30 03 03 10  .........tlk0...
0890: 02 80 03 04 10 02 80 03  02 10 2A 80 1D 4E 80 23  ..........*..N.#
08A0: 03 02 10 2A 80 1D 4F 80  23 03 02 10 2A 80 1D 50  ...*..O.#...*..P
08B0: 80 23 1D 51 80 23 03 02  10 2A 80 1D 52 80 23 66  .#.Q.#...*..R.#f
08C0: 01 80 F8 FF FF 7F F8 FF  FF 7F 74 6C 6B 31 01 5A  ..........tlk1.Z
08D0: 08 01 B6 09 02 00 10 03  80 00 08 09 66 01 80 F8  ............f...
08E0: FF FF 7F F8 FF FF 7F 74  6C 6B 30 1D 53 80 23 1D  .......tlk0.S.#.
08F0: 54 80 23 66 01 80 F8 FF  FF 7F F8 FF FF 7F 74 6C  T.#f..........tl
0900: 6B 31 01 5A 08 01 B6 09  02 00 10 0A 80 00 48 09  k1.Z..........H.
0910: 66 01 80 F8 FF FF 7F F8  FF FF 7F 74 6C 6B 30 1D  f..........tlk0.
0920: 55 80 23 1D 56 80 23 1D  57 80 23 1D 58 80 23 1D  U.#.V.#.W.#.X.#.
0930: 59 80 23 66 01 80 F8 FF  FF 7F F8 FF FF 7F 74 6C  Y.#f..........tl
0940: 6B 31 01 5A 08 01 B6 09  02 00 10 27 80 00 91 09  k1.Z.......'....
0950: 66 01 80 F8 FF FF 7F F8  FF FF 7F 74 6C 6B 30 1D  f..........tlk0.
0960: 5A 80 23 1D 5B 80 23 1D  5C 80 23 1D 5D 80 23 1D  Z.#.[.#.\.#.].#.
0970: 5E 80 23 03 02 10 5F 80  1D 60 80 23 66 01 80 F8  ^.#..._..`.#f...
0980: FF FF 7F F8 FF FF 7F 74  6C 6B 31 01 5A 08 01 B6  .......tlk1.Z...
0990: 09 02 00 10 28 80 00 AB  09 66 01 80 F8 FF FF 7F  ....(....f......
09A0: F8 FF FF 7F 74 6C 6B 30  01 B6 09 02 00 10 24 80  ....tlk0......$.
09B0: 00 B6 09 01 B6 09 1B 03  1F 00 02 80 1D 61 80 23  .............a.#
09C0: 03 02 10 01 00 03 03 10  5F 80 03 04 10 62 80 03  ........_....b..
09D0: 05 10 63 80 03 06 10 64  80 03 07 10 65 80 03 08  ..c....d....e...
09E0: 10 66 80 03 09 10 67 80  03 00 17 68 80 03 01 17  .f....g....h....
09F0: 69 80 03 02 17 6A 80 03  03 17 69 80 03 04 17 6B  i....j....i....k
0A00: 80 03 05 17 6B 80 03 06  17 6B 80 24 6C 80 02 80  ....k....k.$l...
0A10: 02 80 25 02 00 10 02 80  00 28 0A 03 1F 00 03 10  ..%......(......
0A20: 03 20 00 00 17 01 B1 0A  02 00 10 03 80 00 3D 0A  . ............=.
0A30: 03 1F 00 04 10 03 20 00  01 17 01 B1 0A 02 00 10  ...... .........
0A40: 0A 80 00 52 0A 03 1F 00  05 10 03 20 00 02 17 01  ...R....... ....
0A50: B1 0A 02 00 10 27 80 00  67 0A 03 1F 00 06 10 03  .....'..g.......
0A60: 20 00 03 17 01 B1 0A 02  00 10 28 80 00 7C 0A 03   .........(..|..
0A70: 1F 00 07 10 03 20 00 04  17 01 B1 0A 02 00 10 24  ..... .........$
0A80: 80 00 91 0A 03 1F 00 08  10 03 20 00 05 17 01 B1  .......... .....
0A90: 0A 02 00 10 32 80 00 A6  0A 03 1F 00 09 10 03 20  ....2.......... 
0AA0: 00 06 17 01 B1 0A 02 00  10 36 80 00 B1 0A 01 B1  .........6......
0AB0: 0A 02 00 10 36 80 01 0D  0B 93 1F 00 03 02 10 1F  ....6...........
0AC0: 00 03 03 10 20 00 1D 6D  80 23 93 02 80 03 05 00  .... ..m.#......
0AD0: 00 10 03 02 10 01 00 24  6E 80 03 80 02 80 25 02  .......$n.....%.
0AE0: 00 10 02 80 00 FF 0A 40  02 80 14 80 01 10 03 80  .......@........
0AF0: 40 6F 80 70 80 01 10 05  00 06 06 00 01 0D 0B 02  @o.p............
0B00: 00 10 03 80 00 0D 0B 01  B7 09 01 0D 0B 1B 02 02  ................
0B10: 00 02 80 80 1D 0B 1D 71  80 23 01 68 0B 02 02 00  .......q.#.h....
0B20: 03 80 80 2C 0B 1D 71 80  23 01 68 0B 02 02 00 0A  ...,..q.#.h.....
0B30: 80 80 3B 0B 1D 26 80 23  01 68 0B 02 02 00 27 80  ..;..&.#.h....'.
0B40: 80 4A 0B 1D 26 80 23 01  68 0B 02 02 00 28 80 80  .J..&.#.h....(..
0B50: 59 0B 1D 72 80 23 01 68  0B 02 02 00 24 80 80 68  Y..r.#.h....$..h
0B60: 0B 1D 72 80 23 01 68 0B  1B 06 0B 00 06 0A 00 06  ..r.#.h.........
0B70: 0C 00 06 08 00 06 07 00  06 0E 00 06 0D 00 1B     ............... 
```

#### Opcodes

```
  0: 0x0490 [0x42] SET_CLI_EVENT_CANCEL_DATA()
  1: 0x0491 [0x1E] EventEntity looks at LocalPlayer and starts talking
  2: 0x0496 [0x1A] CALL_SUBROUTINE(address=0x0B69)
  3: 0x0499 [0x03] ExtData[1]->WorkLocal[27] = Work_Zone[2]
  4: 0x049E [0x03] ExtData[1]->WorkLocal[8] = Work_Zone[3]
  5: 0x04A3 [0x03] ExtData[1]->WorkLocal[22] = Work_Zone[4]
  6: 0x04A8 [0x03] ExtData[1]->WorkLocal[14] = Work_Zone[5]
  7: 0x04AD [0x03] ExtData[1]->WorkLocal[21] = Work_Zone[6]
  8: 0x04B2 [0x03] ExtData[1]->WorkLocal[15] = Work_Zone[7]
  9: 0x04B7 [0x03] ExtData[1]->WorkLocal[16] = Work_Zone[8]
 10: 0x04BC [0x03] ExtData[1]->WorkLocal[17] = Work_Zone[9]
 11: 0x04C1 [0x06] ExtData[1]->WorkLocal[10] = 0
 12: 0x04C4 [0x03] ExtData[1]->WorkLocal[23] = 0*
 13: 0x04C9 [0x02] IF !(ExtData[1]->WorkLocal[10] == 0*) GOTO 0x0858
 14: 0x04D1 [0x03] ExtData[1]->WorkLocal[11] = 0*
 15: 0x04D6 [0x06] ExtData[1]->WorkLocal[24] = 0
 16: 0x04D9 [0x02] IF !(ExtData[1]->WorkLocal[15] == 0*) GOTO 0x04E4
 17: 0x04E1 [0x05] ExtData[1]->WorkLocal[24] = 1
 18: 0x04E4 [0x02] IF !(ExtData[1]->WorkLocal[16] == 0*) GOTO 0x04EF
 19: 0x04EC [0x05] ExtData[1]->WorkLocal[24] = 1
 20: 0x04EF [0x02] IF !(ExtData[1]->WorkLocal[17] == 0*) GOTO 0x04FA
 21: 0x04F7 [0x05] ExtData[1]->WorkLocal[24] = 1
 22: 0x04FA [0x06] ExtData[1]->WorkLocal[25] = 0
 23: 0x04FD [0x02] IF !(ExtData[1]->WorkLocal[24] <= 0*) GOTO 0x05AE
 24: 0x0505 [0xCC] ITEM_INFO_WINDOW_HANDLER(case=0x01 - Open item info window (with chase), check_value=ExtData[1]->WorkLocal[21], buffer1=ExtData[1]->WorkLocal[15], buffer2=ExtData[1]->WorkLocal[16], buffer3=ExtData[1]->WorkLocal[17])
 25: 0x050F [0x02] IF !(ExtData[1]->WorkLocal[22] == 0*) GOTO 0x052F
 26: 0x0517 [0x03] Work_Zone_1700[25] = ExtData[1]->WorkLocal[21]
 27: 0x051C [0x1D] PRINT_EVENT_MESSAGE(message_id=18314*)
    → "This $33 hath been enhanced with arcane glyptics already."
 28: 0x051F [0x23] WAIT_FOR_DIALOG_INTERACTION
 29: 0x0520 [0x3C] SET_BIT_FLAG_CONDITIONAL(target_work_offset=ExtData[1]->WorkLocal[11], bit_index_work_offset=0*, condition_work_offset=1*)
 30: 0x0527 [0x03] ExtData[1]->WorkLocal[5] = 1*
 31: 0x052C [0x01] GOTO 0x0568
 32: 0x052F [0x02] IF !(ExtData[1]->WorkLocal[22] == 1*) GOTO 0x0548
 33: 0x0537 [0x03] Work_Zone_1700[25] = ExtData[1]->WorkLocal[21]
 34: 0x053C [0x1D] PRINT_EVENT_MESSAGE(message_id=18315*)
    → "This $33 hath reached its limits and cannot be further enhanced, but may still evolve into newer forms."
 35: 0x053F [0x23] WAIT_FOR_DIALOG_INTERACTION
 36: 0x0540 [0x03] ExtData[1]->WorkLocal[5] = 0*
 37: 0x0545 [0x01] GOTO 0x0568
 38: 0x0548 [0x02] IF !(ExtData[1]->WorkLocal[22] == 2*) GOTO 0x0568
 39: 0x0550 [0x03] Work_Zone[2] = ExtData[1]->WorkLocal[21]
 40: 0x0555 [0x1D] PRINT_EVENT_MESSAGE(message_id=18316*)
    → "This $0 hath reached its limits and cannot evolve further."
 41: 0x0558 [0x23] WAIT_FOR_DIALOG_INTERACTION
 42: 0x0559 [0x3C] SET_BIT_FLAG_CONDITIONAL(target_work_offset=ExtData[1]->WorkLocal[11], bit_index_work_offset=0*, condition_work_offset=1*)
 43: 0x0560 [0x03] ExtData[1]->WorkLocal[5] = 1*
 44: 0x0565 [0x01] GOTO 0x0568

SUBROUTINE_0568:
 45: 0x0568 [0xCC] ITEM_INFO_WINDOW_HANDLER(case=0x01 - Open item info window (with chase), check_value=0*, buffer1=0*, buffer2=0*, buffer3=0*)
 46: 0x0572 [0x24] CREATE_DIALOG(message_id=18317*, default_option=ExtData[1]->WorkLocal[5], option_flags=ExtData[1]->WorkLocal[11])
    → "What do you wish to do? [Evolve the item./Mezzotint./Nothing.]"
 47: 0x0579 [0x25] WAIT_DIALOG_SELECT()
 48: 0x057A [0x02] IF !(Work_Zone[0] == 0*) GOTO 0x0585
 49: 0x0582 [0x01] GOTO 0x05AB
 50: 0x0585 [0x02] IF !(Work_Zone[0] == 1*) GOTO 0x0595
 51: 0x058D [0x03] ExtData[1]->WorkLocal[23] = 1*
 52: 0x0592 [0x01] GOTO 0x05AB
 53: 0x0595 [0x02] IF !(Work_Zone[0] == 2*) GOTO 0x05AB
 54: 0x059D [0x03] Work_Zone[1] = 1073741824*
 55: 0x05A2 [0x05] ExtData[1]->WorkLocal[25] = 1
 56: 0x05A5 [0x05] ExtData[1]->WorkLocal[10] = 1
 57: 0x05A8 [0x01] GOTO 0x05AB

SUBROUTINE_05AB:
 58: 0x05AB [0x01] GOTO 0x05BC
 59: 0x05AE [0x03] Work_Zone_1700[25] = ExtData[1]->WorkLocal[21]
 60: 0x05B3 [0x1D] PRINT_EVENT_MESSAGE(message_id=18313*)
    → "This $33 doth be in good...tails?"
 61: 0x05B6 [0x23] WAIT_FOR_DIALOG_INTERACTION
 62: 0x05B7 [0x03] ExtData[1]->WorkLocal[23] = 1*

SUBROUTINE_05BC:
 63: 0x05BC [0x06] ExtData[1]->WorkLocal[26] = 0
 64: 0x05BF [0x02] IF !(ExtData[1]->WorkLocal[25] == 0*) GOTO 0x0855
 65: 0x05C7 [0x02] IF !(ExtData[1]->WorkLocal[23] == 1*) GOTO 0x06C8
 66: 0x05CF [0x48] [System] [18318*]:
    → "Which type of glyptics shall you engrave?"
 67: 0x05D2 [0x23] WAIT_FOR_DIALOG_INTERACTION

SUBROUTINE_05D3:
 68: 0x05D3 [0x02] IF !(ExtData[1]->WorkLocal[25] == 0*) GOTO 0x06C5
 69: 0x05DB [0x24] CREATE_DIALOG(message_id=18319*, default_option=ExtData[1]->WorkLocal[26], option_flags=0*)
    → "Which type do you want engraved? [Arcane Glyptic Type A./Arcane Glyptic Type B./Arcane Glyptic Type C./None.]"
 70: 0x05E2 [0x25] WAIT_DIALOG_SELECT()
 71: 0x05E3 [0x02] IF !(Work_Zone[0] == 3*) GOTO 0x05F9
 72: 0x05EB [0x03] Work_Zone[1] = 1073741824*
 73: 0x05F0 [0x05] ExtData[1]->WorkLocal[25] = 1
 74: 0x05F3 [0x05] ExtData[1]->WorkLocal[10] = 1
 75: 0x05F6 [0x01] GOTO 0x05F9

SUBROUTINE_05F9:
 76: 0x05F9 [0x03] ExtData[1]->WorkLocal[26] = Work_Zone[0]
 77: 0x05FE [0x02] IF !(ExtData[1]->WorkLocal[25] == 0*) GOTO 0x06C2
 78: 0x0606 [0x40] SET_BIT_WORK_RANGE(start_bit=0*, end_bit=7*, target=Work_Zone[1], source=8*)
 79: 0x060F [0x40] SET_BIT_WORK_RANGE(start_bit=8*, end_bit=23*, target=Work_Zone[1], source=ExtData[1]->WorkLocal[26])
 80: 0x0618 [0x43] SEND_EVENT_UPDATE: Send pending tag to server (packet 0x005B)
 81: 0x061A [0x43] SEND_EVENT_UPDATE: Check pending flag (skip if not pending)
 82: 0x061C [0x03] ExtData[1]->WorkLocal[18] = Work_Zone[2]
 83: 0x0621 [0x03] ExtData[1]->WorkLocal[19] = Work_Zone[3]
 84: 0x0626 [0x03] ExtData[1]->WorkLocal[20] = Work_Zone[4]
 85: 0x062B [0x03] ExtData[1]->WorkLocal[28] = 0*
 86: 0x0630 [0x03] ExtData[1]->WorkLocal[28] = Work_Zone[5]
 87: 0x0635 [0xCC] ITEM_INFO_WINDOW_HANDLER(case=0x01 - Open item info window (with chase), check_value=ExtData[1]->WorkLocal[21], buffer1=ExtData[1]->WorkLocal[18], buffer2=ExtData[1]->WorkLocal[19], buffer3=ExtData[1]->WorkLocal[20])
 88: 0x063F [0x02] IF !(ExtData[1]->WorkLocal[28] == 0*) GOTO 0x064E
 89: 0x0647 [0x48] [System] [18320*]:
    → "Do you wish to mezzotint your weapon so that it is primed to receive the aforementioned attribute enhancements?"
 90: 0x064A [0x23] WAIT_FOR_DIALOG_INTERACTION
 91: 0x064B [0x01] GOTO 0x0652
 92: 0x064E [0x48] [System] [18321*]:
    → "Do you wish to mezzotint your weapon again so that it is primed to receive these attribute enhancements?"
 93: 0x0651 [0x23] WAIT_FOR_DIALOG_INTERACTION

SUBROUTINE_0652:
 94: 0x0652 [0xCC] ITEM_INFO_WINDOW_HANDLER(case=0x01 - Open item info window (with chase), check_value=0*, buffer1=0*, buffer2=0*, buffer3=0*)
 95: 0x065C [0x24] CREATE_DIALOG(message_id=18323*, default_option=1*, option_flags=0*)
    → "How do you feel about these attributes? [I heartily enjoy them./I despise them and want new ones.]"
 96: 0x0663 [0x25] WAIT_DIALOG_SELECT()
 97: 0x0664 [0x02] IF !(Work_Zone[0] == 0*) GOTO 0x06B7
 98: 0x066C [0x02] IF !(ExtData[1]->WorkLocal[24] == 0*) GOTO 0x068E
 99: 0x0674 [0x03] Work_Zone[3] = 500*
100: 0x0679 [0x40] SET_BIT_WORK_RANGE(start_bit=0*, end_bit=7*, target=Work_Zone[1], source=11*)
101: 0x0682 [0x40] SET_BIT_WORK_RANGE(start_bit=8*, end_bit=23*, target=Work_Zone[1], source=ExtData[1]->WorkLocal[26])
102: 0x068B [0x01] GOTO 0x06A5
103: 0x068E [0x03] Work_Zone[3] = 100*
104: 0x0693 [0x40] SET_BIT_WORK_RANGE(start_bit=0*, end_bit=7*, target=Work_Zone[1], source=9*)
105: 0x069C [0x40] SET_BIT_WORK_RANGE(start_bit=8*, end_bit=23*, target=Work_Zone[1], source=ExtData[1]->WorkLocal[24])

SUBROUTINE_06A5:
106: 0x06A5 [0x03] Work_Zone[4] = ExtData[1]->WorkLocal[21]
107: 0x06AA [0x1D] PRINT_EVENT_MESSAGE(message_id=18324*)
    → "In return for $1 point[/s] of prestige from thee, I shall mezzotint this $2."
108: 0x06AD [0x23] WAIT_FOR_DIALOG_INTERACTION
109: 0x06AE [0x05] ExtData[1]->WorkLocal[25] = 1
110: 0x06B1 [0x05] ExtData[1]->WorkLocal[10] = 1
111: 0x06B4 [0x01] GOTO 0x06C2
112: 0x06B7 [0x02] IF !(Work_Zone[0] == 1*) GOTO 0x06C2
113: 0x06BF [0x01] GOTO 0x06C2

SUBROUTINE_06C2:
114: 0x06C2 [0x01] GOTO 0x05D3
115: 0x06C5 [0x01] GOTO 0x0855
116: 0x06C8 [0x1D] PRINT_EVENT_MESSAGE(message_id=18325*)
    → "Into which weapon shalt thou evolve this specimen?"
117: 0x06CB [0x23] WAIT_FOR_DIALOG_INTERACTION

SUBROUTINE_06CC:
118: 0x06CC [0x02] IF !(ExtData[1]->WorkLocal[25] == 0*) GOTO 0x0855
119: 0x06D4 [0x40] SET_BIT_WORK_RANGE(start_bit=0*, end_bit=7*, target=Work_Zone[1], source=10*)
120: 0x06DD [0x40] SET_BIT_WORK_RANGE(start_bit=8*, end_bit=23*, target=Work_Zone[1], source=10*)
121: 0x06E6 [0x43] SEND_EVENT_UPDATE: Send pending tag to server (packet 0x005B)
122: 0x06E8 [0x43] SEND_EVENT_UPDATE: Check pending flag (skip if not pending)
123: 0x06EA [0x03] ExtData[1]->WorkLocal[11] = 0*
124: 0x06EF [0x02] IF !(Work_Zone[2] == 0*) GOTO 0x06FE
125: 0x06F7 [0x3C] SET_BIT_FLAG_CONDITIONAL(target_work_offset=ExtData[1]->WorkLocal[11], bit_index_work_offset=1*, condition_work_offset=1*)
126: 0x06FE [0x02] IF !(Work_Zone[3] == 0*) GOTO 0x070D
127: 0x0706 [0x3C] SET_BIT_FLAG_CONDITIONAL(target_work_offset=ExtData[1]->WorkLocal[11], bit_index_work_offset=2*, condition_work_offset=1*)
128: 0x070D [0x02] IF !(Work_Zone[4] == 0*) GOTO 0x071C
129: 0x0715 [0x3C] SET_BIT_FLAG_CONDITIONAL(target_work_offset=ExtData[1]->WorkLocal[11], bit_index_work_offset=3*, condition_work_offset=1*)
130: 0x071C [0x02] IF !(Work_Zone[5] == 0*) GOTO 0x072B
131: 0x0724 [0x3C] SET_BIT_FLAG_CONDITIONAL(target_work_offset=ExtData[1]->WorkLocal[11], bit_index_work_offset=4*, condition_work_offset=1*)
132: 0x072B [0x02] IF !(Work_Zone[6] == 0*) GOTO 0x073A
133: 0x0733 [0x3C] SET_BIT_FLAG_CONDITIONAL(target_work_offset=ExtData[1]->WorkLocal[11], bit_index_work_offset=5*, condition_work_offset=1*)
134: 0x073A [0x02] IF !(Work_Zone[7] == 0*) GOTO 0x0749
135: 0x0742 [0x3C] SET_BIT_FLAG_CONDITIONAL(target_work_offset=ExtData[1]->WorkLocal[11], bit_index_work_offset=6*, condition_work_offset=1*)
136: 0x0749 [0x02] IF !(Work_Zone[8] == 0*) GOTO 0x0758
137: 0x0751 [0x3C] SET_BIT_FLAG_CONDITIONAL(target_work_offset=ExtData[1]->WorkLocal[11], bit_index_work_offset=7*, condition_work_offset=1*)
138: 0x0758 [0x02] IF !(Work_Zone[9] == 0*) GOTO 0x0767
139: 0x0760 [0x3C] SET_BIT_FLAG_CONDITIONAL(target_work_offset=ExtData[1]->WorkLocal[11], bit_index_work_offset=8*, condition_work_offset=1*)
140: 0x0767 [0x24] CREATE_DIALOG(message_id=18326*, default_option=ExtData[1]->WorkLocal[26], option_flags=ExtData[1]->WorkLocal[11])
    → "Which one? [None./#./$1./$2./$3./$4./$5./$6./$7.]"
141: 0x076E [0x25] WAIT_DIALOG_SELECT()
142: 0x076F [0x02] IF !(Work_Zone[0] == 0*) GOTO 0x0785
143: 0x0777 [0x05] ExtData[1]->WorkLocal[25] = 1
144: 0x077A [0x05] ExtData[1]->WorkLocal[10] = 1
145: 0x077D [0x03] Work_Zone[1] = 1073741824*
146: 0x0782 [0x01] GOTO 0x0805
147: 0x0785 [0x02] IF !(Work_Zone[0] == 1*) GOTO 0x0795
148: 0x078D [0x03] ExtData[1]->WorkLocal[29] = Work_Zone[2]
149: 0x0792 [0x01] GOTO 0x0805
150: 0x0795 [0x02] IF !(Work_Zone[0] == 2*) GOTO 0x07A5
151: 0x079D [0x03] ExtData[1]->WorkLocal[29] = Work_Zone[3]
152: 0x07A2 [0x01] GOTO 0x0805
153: 0x07A5 [0x02] IF !(Work_Zone[0] == 3*) GOTO 0x07B5
154: 0x07AD [0x03] ExtData[1]->WorkLocal[29] = Work_Zone[4]
155: 0x07B2 [0x01] GOTO 0x0805
156: 0x07B5 [0x02] IF !(Work_Zone[0] == 4*) GOTO 0x07C5
157: 0x07BD [0x03] ExtData[1]->WorkLocal[29] = Work_Zone[5]
158: 0x07C2 [0x01] GOTO 0x0805
159: 0x07C5 [0x02] IF !(Work_Zone[0] == 5*) GOTO 0x07D5
160: 0x07CD [0x03] ExtData[1]->WorkLocal[29] = Work_Zone[6]
161: 0x07D2 [0x01] GOTO 0x0805
162: 0x07D5 [0x02] IF !(Work_Zone[0] == 6*) GOTO 0x07E5
163: 0x07DD [0x03] ExtData[1]->WorkLocal[29] = Work_Zone[7]
164: 0x07E2 [0x01] GOTO 0x0805
165: 0x07E5 [0x02] IF !(Work_Zone[0] == 7*) GOTO 0x07F5
166: 0x07ED [0x03] ExtData[1]->WorkLocal[29] = Work_Zone[8]
167: 0x07F2 [0x01] GOTO 0x0805
168: 0x07F5 [0x02] IF !(Work_Zone[0] == 8*) GOTO 0x0805
169: 0x07FD [0x03] ExtData[1]->WorkLocal[29] = Work_Zone[9]
170: 0x0802 [0x01] GOTO 0x0805

SUBROUTINE_0805:
171: 0x0805 [0x03] ExtData[1]->WorkLocal[26] = Work_Zone[0]
172: 0x080A [0x02] IF !(ExtData[1]->WorkLocal[25] == 0*) GOTO 0x0852
173: 0x0812 [0x93] DISPLAY_ITEM_INFO(item_id=ExtData[1]->WorkLocal[29])
174: 0x0815 [0x1D] PRINT_EVENT_MESSAGE(message_id=18327*)
    → "Shall this be the one?"
175: 0x0818 [0x23] WAIT_FOR_DIALOG_INTERACTION
176: 0x0819 [0x93] DISPLAY_ITEM_INFO(item_id=0*)
177: 0x081C [0x24] CREATE_DIALOG(message_id=18328*, default_option=1*, option_flags=0*)
    → "How do you feel about this weapon? [I thoroughly enjoy it./I loathe it and want a new one.]"
178: 0x0823 [0x25] WAIT_DIALOG_SELECT()
179: 0x0824 [0x02] IF !(Work_Zone[0] == 0*) GOTO 0x0847
180: 0x082C [0x40] SET_BIT_WORK_RANGE(start_bit=0*, end_bit=7*, target=Work_Zone[1], source=10*)
181: 0x0835 [0x40] SET_BIT_WORK_RANGE(start_bit=8*, end_bit=23*, target=Work_Zone[1], source=ExtData[1]->WorkLocal[26])
182: 0x083E [0x05] ExtData[1]->WorkLocal[25] = 1
183: 0x0841 [0x05] ExtData[1]->WorkLocal[10] = 1
184: 0x0844 [0x01] GOTO 0x0852
185: 0x0847 [0x02] IF !(Work_Zone[0] == 1*) GOTO 0x0852
186: 0x084F [0x01] GOTO 0x0852

SUBROUTINE_0852:
187: 0x0852 [0x01] GOTO 0x06CC

SUBROUTINE_0855:
188: 0x0855 [0x01] GOTO 0x04C9
189: 0x0858 [0x21] END_EVENT
190: 0x0859 [0x00] END_REQSTACK()

SUBROUTINE_0B69:
191: 0x0B69 [0x06] ExtData[1]->WorkLocal[11] = 0
192: 0x0B6C [0x06] ExtData[1]->WorkLocal[10] = 0
193: 0x0B6F [0x06] ExtData[1]->WorkLocal[12] = 0
194: 0x0B72 [0x06] ExtData[1]->WorkLocal[8] = 0
195: 0x0B75 [0x06] ExtData[1]->WorkLocal[7] = 0
196: 0x0B78 [0x06] ExtData[1]->WorkLocal[14] = 0
197: 0x0B7B [0x06] ExtData[1]->WorkLocal[13] = 0
198: 0x0B7E [0x1B] RETURN
```

#### Data or dead code:

```
# Dead code (unreachable instructions):
     0x085A [0x03] ExtData[1]->WorkLocal[30] = 0*
     0x085F [0x02] IF !(ExtData[1]->WorkLocal[4] == 0*) GOTO 0x086E
     0x0867 [0x3C] SET_BIT_FLAG_CONDITIONAL(target_work_offset=ExtData[1]->WorkLocal[30], bit_index_work_offset=4*, condition_work_offset=1*)
     0x086E [0x24] CREATE_DIALOG(message_id=18268*, default_option=0*, option_flags=ExtData[1]->WorkLocal[30])
    → "What shall you ask about? [Belligerency./Ranks./Prestige./Spoils./Domination./Nothing.]"
     0x0875 [0x25] WAIT_DIALOG_SELECT()
     0x0876 [0x02] IF !(Work_Zone[0] == 0*) GOTO 0x08D4
     0x087E [0x66] LOAD_EXT_SCHEDULER_MAIN: Load scheduler "tlk0" with entities [EventEntity, EventEntity], work=29*
     0x088D [0x03] Work_Zone[3] = 0*
     0x0892 [0x03] Work_Zone[4] = 0*
     0x0897 [0x03] Work_Zone[2] = 2351*
     0x089C [0x1D] PRINT_EVENT_MESSAGE(message_id=18269*)
    → "Those who have the ambition to slay monipulators can do battle against them by speaking with [me/my Northern San d'Orian ally] or one of my brethren in either [Port Bastok or Port Windurst/Northern San d'Oria or Port Windurst/Northern San d'Oria or Port Bastok] and receiving $6."
     0x089F [0x23] WAIT_FOR_DIALOG_INTERACTION
     0x08A0 [0x03] Work_Zone[2] = 2351*
     0x08A5 [0x1D] PRINT_EVENT_MESSAGE(message_id=18270*)
    → "This $3 is thy metaphorical muster as well as official avowal to enter belligerency."
     0x08A8 [0x23] WAIT_FOR_DIALOG_INTERACTION
     0x08A9 [0x03] Work_Zone[2] = 2351*
     0x08AE [0x1D] PRINT_EVENT_MESSAGE(message_id=18271*)
    → "While it doth provide myriad boons to thee, it preventeth not those outside thy coterie from interfering with thy duty. Such a benediction will only descend upon the yare souls who hath claimed monipulators as their prey."
     0x08B1 [0x23] WAIT_FOR_DIALOG_INTERACTION
     0x08B2 [0x1D] PRINT_EVENT_MESSAGE(message_id=18272*)
    → "I must also caution thee to beware that, depending on thy level of expertise, it may not behoove thee to tread upon the soils of certain lands."
     0x08B5 [0x23] WAIT_FOR_DIALOG_INTERACTION
     0x08B6 [0x03] Work_Zone[2] = 2351*
     0x08BB [0x1D] PRINT_EVENT_MESSAGE(message_id=18273*)
    → "Lastly, should thy bloodlust cease or resolve wither on the vine, speak to me and I shall grant thee permission to withdraw from belligerency."
     0x08BE [0x23] WAIT_FOR_DIALOG_INTERACTION
     0x08BF [0x66] LOAD_EXT_SCHEDULER_MAIN: Load scheduler "tlk1" with entities [EventEntity, EventEntity], work=29*
     0x08CE [0x01] GOTO 0x085A
     0x08D1 [0x01] GOTO 0x09B6
     0x08D4 [0x02] IF !(Work_Zone[0] == 1*) GOTO 0x0908
     0x08DC [0x66] LOAD_EXT_SCHEDULER_MAIN: Load scheduler "tlk0" with entities [EventEntity, EventEntity], work=29*
     0x08EB [0x1D] PRINT_EVENT_MESSAGE(message_id=18275*)
    → "Three ranks doth serve to classify the world's monipulator executioners. There is the eponymous "gladiator (Gla)," "champion gladiator (CG)," and "high champion gladiator (HCG).""
     0x08EE [0x23] WAIT_FOR_DIALOG_INTERACTION
     0x08EF [0x1D] PRINT_EVENT_MESSAGE(message_id=18276*)
    → "Naught else needs be explained anent this simple concept...save that a gladiator's rank is determined by his prestige."
     0x08F2 [0x23] WAIT_FOR_DIALOG_INTERACTION
     0x08F3 [0x66] LOAD_EXT_SCHEDULER_MAIN: Load scheduler "tlk1" with entities [EventEntity, EventEntity], work=29*
     0x0902 [0x01] GOTO 0x085A
     0x0905 [0x01] GOTO 0x09B6
     0x0908 [0x02] IF !(Work_Zone[0] == 2*) GOTO 0x0948
     0x0910 [0x66] LOAD_EXT_SCHEDULER_MAIN: Load scheduler "tlk0" with entities [EventEntity, EventEntity], work=29*
     0x091F [0x1D] PRINT_EVENT_MESSAGE(message_id=18277*)
    → "Prestige is the gladiator's equivalent of the common adventurer's fame."
     0x0922 [0x23] WAIT_FOR_DIALOG_INTERACTION
     0x0923 [0x1D] PRINT_EVENT_MESSAGE(message_id=18278*)
    → "Defeating both monsters and monipulators increaseth thy prestige, while falling victim to their claws decreaseth it."
     0x0926 [0x23] WAIT_FOR_DIALOG_INTERACTION
     0x0927 [0x1D] PRINT_EVENT_MESSAGE(message_id=18279*)
    → "Each rank also hath a corresponding maximum amount of prestige, much like the infamy of monipulators."
     0x092A [0x23] WAIT_FOR_DIALOG_INTERACTION
     0x092B [0x1D] PRINT_EVENT_MESSAGE(message_id=18280*)
    → "Ascertaining thy current prestige is merely a trifle. (Access the "Profile" menu under "Status.")"
     0x092E [0x23] WAIT_FOR_DIALOG_INTERACTION
     0x092F [0x1D] PRINT_EVENT_MESSAGE(message_id=18281*)
    → "Of course, prestige is not simply a means by which to boast to thy inferiors. Thou canst cede it to me in exchange for troves of splendid rewards."
     0x0932 [0x23] WAIT_FOR_DIALOG_INTERACTION
     0x0933 [0x66] LOAD_EXT_SCHEDULER_MAIN: Load scheduler "tlk1" with entities [EventEntity, EventEntity], work=29*
     0x0942 [0x01] GOTO 0x085A
     0x0945 [0x01] GOTO 0x09B6
     0x0948 [0x02] IF !(Work_Zone[0] == 3*) GOTO 0x0991
     0x0950 [0x66] LOAD_EXT_SCHEDULER_MAIN: Load scheduler "tlk0" with entities [EventEntity, EventEntity], work=29*
     0x095F [0x1D] PRINT_EVENT_MESSAGE(message_id=18282*)
    → "No victory doth taste as sweet as one where the stakes are high. Flaying treacherous notorious monsters and high notorious monsters occasionally earns thee spoils of war."
     0x0962 [0x23] WAIT_FOR_DIALOG_INTERACTION
     0x0963 [0x1D] PRINT_EVENT_MESSAGE(message_id=18283*)
    → "A little cockatrice told me that monipulators even relinquish equipment betimes, so hold not back from slicing, stabbing, and spellcasting thy savage enemies to smithereens."
     0x0966 [0x23] WAIT_FOR_DIALOG_INTERACTION
     0x0967 [0x1D] PRINT_EVENT_MESSAGE(message_id=18284*)
    → "Eke, the equipment thou dost obtain may be engraved with arcane glyptics."
     0x096A [0x23] WAIT_FOR_DIALOG_INTERACTION
     0x096B [0x1D] PRINT_EVENT_MESSAGE(message_id=18286*)
    → "Athwart terrestrial beings such as thee, our mezzotinting process leaveth nary a scratch on extant arcane glyptics."
     0x096E [0x23] WAIT_FOR_DIALOG_INTERACTION
     0x096F [0x1D] PRINT_EVENT_MESSAGE(message_id=18287*)
    → "In sooth, it would be pure idiocy to charge nothing for our services. However, I shan't discuss figures at this juncture."
     0x0972 [0x23] WAIT_FOR_DIALOG_INTERACTION
     0x0973 [0x03] Work_Zone[2] = 4051*
     0x0978 [0x1D] PRINT_EVENT_MESSAGE(message_id=18288*)
    → "Forget not that we must have $0 in order to engrave arcane glyptics, lest thou wish to incur the wrath of my people."
     0x097B [0x23] WAIT_FOR_DIALOG_INTERACTION
     0x097C [0x66] LOAD_EXT_SCHEDULER_MAIN: Load scheduler "tlk1" with entities [EventEntity, EventEntity], work=29*
     0x098B [0x01] GOTO 0x085A
     0x098E [0x01] GOTO 0x09B6
     0x0991 [0x02] IF !(Work_Zone[0] == 4*) GOTO 0x09AB
     0x0999 [0x66] LOAD_EXT_SCHEDULER_MAIN: Load scheduler "tlk0" with entities [EventEntity, EventEntity], work=29*
     0x09A8 [0x01] GOTO 0x09B6
     0x09AB [0x02] IF !(Work_Zone[0] == 5*) GOTO 0x09B6
     0x09B3 [0x01] GOTO 0x09B6
     0x09B6 [0x1B] RETURN
     0x09B7 [0x03] ExtData[1]->WorkLocal[31] = 0*
     0x09BC [0x1D] PRINT_EVENT_MESSAGE(message_id=18297*)
    → "What is it thou desirest?"
     0x09BF [0x23] WAIT_FOR_DIALOG_INTERACTION
     0x09C0 [0x03] Work_Zone[2] = ExtData[1]->WorkLocal[1]
     0x09C5 [0x03] Work_Zone[3] = 4051*
     0x09CA [0x03] Work_Zone[4] = 4052*
     0x09CF [0x03] Work_Zone[5] = 4053*
     0x09D4 [0x03] Work_Zone[6] = 28390*
     0x09D9 [0x03] Work_Zone[7] = 28391*
     0x09DE [0x03] Work_Zone[8] = 28392*
     0x09E3 [0x03] Work_Zone[9] = 28393*
     0x09E8 [0x03] Work_Zone_1700[0] = 5000*
     0x09ED [0x03] Work_Zone_1700[1] = 10000*
     0x09F2 [0x03] Work_Zone_1700[2] = 20000*
     0x09F7 [0x03] Work_Zone_1700[3] = 10000*
     0x09FC [0x03] Work_Zone_1700[4] = 25000*
     0x0A01 [0x03] Work_Zone_1700[5] = 25000*
     0x0A06 [0x03] Work_Zone_1700[6] = 25000*
     0x0A0B [0x24] CREATE_DIALOG(message_id=18298*, default_option=0*, option_flags=0*)
    → "Which reward? (Prestige: $0) [$1. ($8 needed)/$2. ($9 needed)/$3. ($10 needed)/$4. ($11 needed)/$5. ($12 needed)/$6. ($13 needed)/$7. ($14 needed)/None.]"
     0x0A12 [0x25] WAIT_DIALOG_SELECT()
     0x0A13 [0x02] IF !(Work_Zone[0] == 0*) GOTO 0x0A28
     0x0A1B [0x03] ExtData[1]->WorkLocal[31] = Work_Zone[3]
     0x0A20 [0x03] ExtData[1]->WorkLocal[32] = Work_Zone_1700[0]
     0x0A25 [0x01] GOTO 0x0AB1
     0x0A28 [0x02] IF !(Work_Zone[0] == 1*) GOTO 0x0A3D
     0x0A30 [0x03] ExtData[1]->WorkLocal[31] = Work_Zone[4]
     0x0A35 [0x03] ExtData[1]->WorkLocal[32] = Work_Zone_1700[1]
     0x0A3A [0x01] GOTO 0x0AB1
     0x0A3D [0x02] IF !(Work_Zone[0] == 2*) GOTO 0x0A52
     0x0A45 [0x03] ExtData[1]->WorkLocal[31] = Work_Zone[5]
     0x0A4A [0x03] ExtData[1]->WorkLocal[32] = Work_Zone_1700[2]
     0x0A4F [0x01] GOTO 0x0AB1
     0x0A52 [0x02] IF !(Work_Zone[0] == 3*) GOTO 0x0A67
     0x0A5A [0x03] ExtData[1]->WorkLocal[31] = Work_Zone[6]
     0x0A5F [0x03] ExtData[1]->WorkLocal[32] = Work_Zone_1700[3]
     0x0A64 [0x01] GOTO 0x0AB1
     0x0A67 [0x02] IF !(Work_Zone[0] == 4*) GOTO 0x0A7C
     0x0A6F [0x03] ExtData[1]->WorkLocal[31] = Work_Zone[7]
     0x0A74 [0x03] ExtData[1]->WorkLocal[32] = Work_Zone_1700[4]
     0x0A79 [0x01] GOTO 0x0AB1
     0x0A7C [0x02] IF !(Work_Zone[0] == 5*) GOTO 0x0A91
     0x0A84 [0x03] ExtData[1]->WorkLocal[31] = Work_Zone[8]
     0x0A89 [0x03] ExtData[1]->WorkLocal[32] = Work_Zone_1700[5]
     0x0A8E [0x01] GOTO 0x0AB1
     0x0A91 [0x02] IF !(Work_Zone[0] == 6*) GOTO 0x0AA6
     0x0A99 [0x03] ExtData[1]->WorkLocal[31] = Work_Zone[9]
     0x0A9E [0x03] ExtData[1]->WorkLocal[32] = Work_Zone_1700[6]
     0x0AA3 [0x01] GOTO 0x0AB1
     0x0AA6 [0x02] IF !(Work_Zone[0] == 7*) GOTO 0x0AB1
     0x0AAE [0x01] GOTO 0x0AB1
     0x0AB1 [0x02] IF !(Work_Zone[0] == 7*) GOTO 0x0B0D
     0x0AB9 [0x93] DISPLAY_ITEM_INFO(item_id=ExtData[1]->WorkLocal[31])
     0x0ABC [0x03] Work_Zone[2] = ExtData[1]->WorkLocal[31]
     0x0AC1 [0x03] Work_Zone[3] = ExtData[1]->WorkLocal[32]
     0x0AC6 [0x1D] PRINT_EVENT_MESSAGE(message_id=18299*)
    → "Thou art willing to part with $1 point[/s] of prestige to obtain this $0, nay?"
     0x0AC9 [0x23] WAIT_FOR_DIALOG_INTERACTION
     0x0ACA [0x93] DISPLAY_ITEM_INFO(item_id=0*)
     0x0ACD [0x03] ExtData[1]->WorkLocal[5] = Work_Zone[0]
     0x0AD2 [0x03] Work_Zone[2] = ExtData[1]->WorkLocal[1]
     0x0AD7 [0x24] CREATE_DIALOG(message_id=18300*, default_option=1*, option_flags=0*)
    → "Proceed with the exchange? (Prestige: $0) [Yes./No.]"
     0x0ADE [0x25] WAIT_DIALOG_SELECT()
     0x0ADF [0x02] IF !(Work_Zone[0] == 0*) GOTO 0x0AFF
     0x0AE7 [0x40] SET_BIT_WORK_RANGE(start_bit=0*, end_bit=15*, target=Work_Zone[1], source=1*)
     0x0AF0 [0x40] SET_BIT_WORK_RANGE(start_bit=16*, end_bit=31*, target=Work_Zone[1], source=ExtData[1]->WorkLocal[5])
     0x0AF9 [0x06] ExtData[1]->WorkLocal[6] = 0
     0x0AFC [0x01] GOTO 0x0B0D
     0x0AFF [0x02] IF !(Work_Zone[0] == 1*) GOTO 0x0B0D
     0x0B07 [0x01] GOTO 0x09B7
     0x0B0A [0x01] GOTO 0x0B0D
     0x0B0D [0x1B] RETURN
     0x0B0E [0x02] IF !(ExtData[1]->WorkLocal[2] == 0*) GOTO 0x0B1D
     0x0B16 [0x1D] PRINT_EVENT_MESSAGE(message_id=18303*)
    → "Though monipulators and gladiators art diametrically opposed, thou mayest shift alliance betwixt both sides of the conflict as thy humors see fit. There cannot be good without evil, and the sides shall for all eternity be in stasis."
     0x0B19 [0x23] WAIT_FOR_DIALOG_INTERACTION
     0x0B1A [0x01] GOTO 0x0B68
     0x0B1D [0x02] IF !(ExtData[1]->WorkLocal[2] == 1*) GOTO 0x0B2C
     0x0B25 [0x1D] PRINT_EVENT_MESSAGE(message_id=18303*)
    → "Though monipulators and gladiators art diametrically opposed, thou mayest shift alliance betwixt both sides of the conflict as thy humors see fit. There cannot be good without evil, and the sides shall for all eternity be in stasis."
     0x0B28 [0x23] WAIT_FOR_DIALOG_INTERACTION
     0x0B29 [0x01] GOTO 0x0B68
     0x0B2C [0x02] IF !(ExtData[1]->WorkLocal[2] == 2*) GOTO 0x0B3B
     0x0B34 [0x1D] PRINT_EVENT_MESSAGE(message_id=18305*)
    → "Oh, how I yearn to assume the form of a monster in the same manner as thee. Wellaway, I must be content with mine empty husk of a vessel."
     0x0B37 [0x23] WAIT_FOR_DIALOG_INTERACTION
     0x0B38 [0x01] GOTO 0x0B68
     0x0B3B [0x02] IF !(ExtData[1]->WorkLocal[2] == 3*) GOTO 0x0B4A
     0x0B43 [0x1D] PRINT_EVENT_MESSAGE(message_id=18305*)
    → "Oh, how I yearn to assume the form of a monster in the same manner as thee. Wellaway, I must be content with mine empty husk of a vessel."
     0x0B46 [0x23] WAIT_FOR_DIALOG_INTERACTION
     0x0B47 [0x01] GOTO 0x0B68
     0x0B4A [0x02] IF !(ExtData[1]->WorkLocal[2] == 4*) GOTO 0x0B59
     0x0B52 [0x1D] PRINT_EVENT_MESSAGE(message_id=18306*)
    → "I suppose that I too a monipulator hight. Natheless, that fact doth not give thee permission to assail my frame with thy blows."
     0x0B55 [0x23] WAIT_FOR_DIALOG_INTERACTION
     0x0B56 [0x01] GOTO 0x0B68
     0x0B59 [0x02] IF !(ExtData[1]->WorkLocal[2] == 5*) GOTO 0x0B68
     0x0B61 [0x1D] PRINT_EVENT_MESSAGE(message_id=18306*)
    → "I suppose that I too a monipulator hight. Natheless, that fact doth not give thee permission to assail my frame with thy blows."
     0x0B64 [0x23] WAIT_FOR_DIALOG_INTERACTION
     0x0B65 [0x01] GOTO 0x0B68
     0x0B68 [0x1B] RETURN
```
