# 17723577

## Common Data

| Field            | Value                         |
|------------------|-------------------------------|
| Zone             | Northern San d'Oria (ID: 231) |
| Block Size       | 316 bytes                     |
| Total Events     | 9                             |
| References Count | 29                            |

## List of Events

| Event ID                 | Entrypoint   |   Size |   Instructions |
|--------------------------|--------------|--------|----------------|
| [65535](#event-65535)    | 0x0000       |      1 |              1 |
| [1](#event-1)            | 0x0001       |     18 |              4 |
| [0](#event-0)            | 0x0013       |     13 |              3 |
| [65535.1](#event-655351) | 0x0020       |     13 |              3 |
| [65535.2](#event-655352) | 0x002D       |     20 |              4 |
| [16](#event-16)          | 0x0041       |     10 |              2 |
| [65535.3](#event-655353) | 0x004B       |     19 |              6 |
| [49](#event-49)          | 0x005E       |     16 |              3 |
| [65535.4](#event-655354) | 0x006E       |     37 |              9 |

## DAT References (imed_data)

|   Index | Hex Value   |   Dec Value |
|---------|-------------|-------------|
|       0 | 0x22DAC     |      142764 |
|       1 | 0x1E8BB     |      125115 |
|       2 | 0xFFFFDF32  |  4294958898 |
|       3 | 0x0B96      |        2966 |
|       4 | 0xFFFFFC18  |  4294966296 |
|       5 | 0xFFFFAA2D  |  4294945325 |
|       6 | 0x0000      |           0 |
|       7 | 0x0C0F      |        3087 |
|       8 | 0x000D      |          13 |
|       9 | 0x174F      |        5967 |
|      10 | 0x050A      |        1290 |
|      11 | 0x140AA     |       82090 |
|      12 | 0x1CEFE     |      118526 |
|      13 | 0xFFFFF830  |  4294965296 |
|      14 | 0x1966F     |      104047 |
|      15 | 0x15F9D     |       90013 |
|      16 | 0x06D5      |        1749 |
|      17 | 0x0A25      |        2597 |
|      18 | 0x000F      |          15 |
|      19 | 0x0032      |          50 |
|      20 | 0x10801     |       67585 |
|      21 | 0xD66B      |       54891 |
|      22 | 0x15415     |       87061 |
|      23 | 0x137DB     |       79835 |
|      24 | 0x0DFB      |        3579 |
|      25 | 0x0014      |          20 |
|      26 | 0x170E8     |       94440 |
|      27 | 0x155D5     |       87509 |
|      28 | 0x0018      |          24 |

## Events

### Event 65535

#### Metadata

| Field        | Value   |
|--------------|---------|
| Entrypoint   | 0x0000  |
| Data Size    | 1 bytes |
| Instructions | 1       |

```
      00 01 02 03 04 05 06 07  08 09 0A 0B 0C 0D 0E 0F
      -- -- -- -- -- -- -- --  -- -- -- -- -- -- -- --
0000: 00                                                .               
```

#### Opcodes

```
  0: 0x0000 [0x00] END_REQSTACK()
```

### Event 1

#### Metadata

| Field        | Value    |
|--------------|----------|
| Entrypoint   | 0x0001   |
| Data Size    | 18 bytes |
| Instructions | 4        |

```
      00 01 02 03 04 05 06 07  08 09 0A 0B 0C 0D 0E 0F
      -- -- -- -- -- -- -- --  -- -- -- -- -- -- -- --
0000:    33 01 92 01 F8 FF FF  7F 37 00 80 01 80 02 80   3.......7......
0010: 03 80 00                                          ...             
```

#### Opcodes

```
  0: 0x0001 [0x33] EventEntity->Render.Flags0 |= 0x200000 // Bit 21 (flag=0x01)
  1: 0x0003 [0x92] EventEntity->Render.Flags3 ^= 0x01
  2: 0x0009 [0x37] UPDATE_EVENT_POSITION_AND_DIR: x=142.764*, z=125.115*, y=-8.398*, direction=260.7°*
  3: 0x0012 [0x00] END_REQSTACK()
```

### Event 0

#### Metadata

| Field        | Value    |
|--------------|----------|
| Entrypoint   | 0x0013   |
| Data Size    | 13 bytes |
| Instructions | 3        |

```
      00 01 02 03 04 05 06 07  08 09 0A 0B 0C 0D 0E 0F
      -- -- -- -- -- -- -- --  -- -- -- -- -- -- -- --
0010:          37 04 80 05 80  06 80 07 80 32 08 80 00     7........2...
```

#### Opcodes

```
  0: 0x0013 [0x37] UPDATE_EVENT_POSITION_AND_DIR: x=-1.000*, z=-21.971*, y=0.000*, direction=271.3°*
  1: 0x001C [0x32] ExtData[1]->MainSpeed = 13* * 0.1
  2: 0x001F [0x00] END_REQSTACK()
```

### Event 65535.1

#### Metadata

| Field        | Value    |
|--------------|----------|
| Entrypoint   | 0x0020   |
| Data Size    | 13 bytes |
| Instructions | 3        |

```
      00 01 02 03 04 05 06 07  08 09 0A 0B 0C 0D 0E 0F
      -- -- -- -- -- -- -- --  -- -- -- -- -- -- -- --
0020: 31 00 04 80 09 80 06 80  0A 80 31 01 00           1.........1..   
```

#### Opcodes

```
  0: 0x0020 [0x31] UPDATE_ENTITY_POSITION: Set EventEntity goal position to X=-1.000*, Z=5.967*, Y=0.000*, Time=1290*
  1: 0x002A [0x31] UPDATE_ENTITY_POSITION: Move EventEntity towards goal position
  2: 0x002C [0x00] END_REQSTACK()
```

### Event 65535.2

#### Metadata

| Field        | Value    |
|--------------|----------|
| Entrypoint   | 0x002D   |
| Data Size    | 20 bytes |
| Instructions | 4        |

```
      00 01 02 03 04 05 06 07  08 09 0A 0B 0C 0D 0E 0F
      -- -- -- -- -- -- -- --  -- -- -- -- -- -- -- --
0020:                                         37 04 80               7..
0030: 0B 80 06 80 07 80 1F 00  04 80 0C 80 0D 80 1F 01  ................
0040: 00                                                .               
```

#### Opcodes

```
  0: 0x002D [0x37] UPDATE_EVENT_POSITION_AND_DIR: x=-1.000*, z=82.090*, y=0.000*, direction=271.3°*
  1: 0x0036 [0x1F] MOVE_ENTITY: EventEntity moves to X=-1.000*, Z=118.526*, Y=-2.000*
  2: 0x003E [0x1F] MOVE_ENTITY: Update entity position (mode=1)
  3: 0x0040 [0x00] END_REQSTACK()
```

### Event 16

#### Metadata

| Field        | Value    |
|--------------|----------|
| Entrypoint   | 0x0041   |
| Data Size    | 10 bytes |
| Instructions | 2        |

```
      00 01 02 03 04 05 06 07  08 09 0A 0B 0C 0D 0E 0F
      -- -- -- -- -- -- -- --  -- -- -- -- -- -- -- --
0040:    37 0E 80 0F 80 10 80  11 80 00                  7.........     
```

#### Opcodes

```
  0: 0x0041 [0x37] UPDATE_EVENT_POSITION_AND_DIR: x=104.047*, z=90.013*, y=1.749*, direction=228.2°*
  1: 0x004A [0x00] END_REQSTACK()
```

### Event 65535.3

#### Metadata

| Field        | Value    |
|--------------|----------|
| Entrypoint   | 0x004B   |
| Data Size    | 19 bytes |
| Instructions | 6        |

```
      00 01 02 03 04 05 06 07  08 09 0A 0B 0C 0D 0E 0F
      -- -- -- -- -- -- -- --  -- -- -- -- -- -- -- --
0040:                                   1C 12 80 32 13             ...2.
0050: 80 1F 00 14 80 15 80 06  80 1F 01 22 01 00        ..........."..  
```

#### Opcodes

```
  0: 0x004B [0x1C] WAIT(15* ticks)
  1: 0x004E [0x32] ExtData[1]->MainSpeed = 50* * 0.1
  2: 0x0051 [0x1F] MOVE_ENTITY: EventEntity moves to X=67.585*, Z=54.891*, Y=0.000*
  3: 0x0059 [0x1F] MOVE_ENTITY: Update entity position (mode=1)
  4: 0x005B [0x22] ENTITY_HIDE_FLAG(enabled=0x01)
  5: 0x005D [0x00] END_REQSTACK()
```

### Event 49

#### Metadata

| Field        | Value    |
|--------------|----------|
| Entrypoint   | 0x005E   |
| Data Size    | 16 bytes |
| Instructions | 3        |

```
      00 01 02 03 04 05 06 07  08 09 0A 0B 0C 0D 0E 0F
      -- -- -- -- -- -- -- --  -- -- -- -- -- -- -- --
0050:                                            92 01                ..
0060: F8 FF FF 7F 37 16 80 17  80 10 80 18 80 00        ....7.........  
```

#### Opcodes

```
  0: 0x005E [0x92] EventEntity->Render.Flags3 ^= 0x01
  1: 0x0064 [0x37] UPDATE_EVENT_POSITION_AND_DIR: x=87.061*, z=79.835*, y=1.749*, direction=314.6°*
  2: 0x006D [0x00] END_REQSTACK()
```

### Event 65535.4

#### Metadata

| Field        | Value    |
|--------------|----------|
| Entrypoint   | 0x006E   |
| Data Size    | 37 bytes |
| Instructions | 9        |

```
      00 01 02 03 04 05 06 07  08 09 0A 0B 0C 0D 0E 0F
      -- -- -- -- -- -- -- --  -- -- -- -- -- -- -- --
0060:                                            1C 19                ..
0070: 80 1F 00 1A 80 1B 80 10  80 1F 01 6F 1E AF 70 0E  ...........o..p.
0080: 01 6F 70 66 1C 80 F8 FF  FF 7F F8 FF FF 7F 31 72  .opf..........1r
0090: 64 79 00                                          dy.             
```

#### Opcodes

```
  0: 0x006E [0x1C] WAIT(20* ticks)
  1: 0x0071 [0x1F] MOVE_ENTITY: EventEntity moves to X=94.440*, Z=87.509*, Y=1.749*
  2: 0x0079 [0x1F] MOVE_ENTITY: Update entity position (mode=1)
  3: 0x007B [0x6F] WAIT_FRAME_DELAY: Yield until WaitTime reaches zero
  4: 0x007C [0x1E] EventEntity looks at Rainemard (ID: 17723567/0x010E70AF) and starts talking
  5: 0x0081 [0x6F] WAIT_FRAME_DELAY: Yield until WaitTime reaches zero
  6: 0x0082 [0x70] WAIT_ENTITY_RENDER_FLAG: Wait while EventEntity->Render.Flags3 bit 2 is set (cancel turn if not)
  7: 0x0083 [0x66] LOAD_EXT_SCHEDULER_MAIN: Load scheduler "1rdy" with entities [EventEntity, EventEntity], work=24*
  8: 0x0092 [0x00] END_REQSTACK()
```
