# 17723427 - Cheupirudaux

## Common Data

| Field            | Value                         |
|------------------|-------------------------------|
| Zone             | Northern San d'Oria (ID: 231) |
| Block Size       | 7496 bytes                    |
| Total Events     | 30                            |
| References Count | 219                           |

## List of Events

| Event ID                 | Entrypoint   |   Size |   Instructions |
|--------------------------|--------------|--------|----------------|
| [65535](#event-65535)    | 0x0000       |      1 |              1 |
| [621](#event-621)        | 0x0001       |   1985 |            475 |
| [622](#event-622)        | 0x07C2       |    277 |             70 |
| [759](#event-759)        | 0x08D7       |      1 |              1 |
| [920](#event-920)        | 0x08D8       |    131 |             24 |
| [950](#event-950)        | 0x095B       |    134 |             24 |
| [921](#event-921)        | 0x09E1       |    118 |             27 |
| [922](#event-922)        | 0x0A57       |    259 |             62 |
| [952](#event-952)        | 0x0B5A       |    195 |             47 |
| [968](#event-968)        | 0x0C1D       |    270 |             59 |
| [982](#event-982)        | 0x0D2B       |    152 |             32 |
| [974](#event-974)        | 0x0DC3       |    176 |             39 |
| [973](#event-973)        | 0x0E73       |    235 |             52 |
| [975](#event-975)        | 0x0F5E       |     78 |             16 |
| [923](#event-923)        | 0x0FAC       |    172 |             33 |
| [953](#event-953)        | 0x1058       |    138 |             30 |
| [969](#event-969)        | 0x10E2       |    142 |             32 |
| [983](#event-983)        | 0x1170       |    134 |             28 |
| [924](#event-924)        | 0x11F6       |    100 |             24 |
| [984](#event-984)        | 0x125A       |     91 |             15 |
| [957](#event-957)        | 0x12B5       |    105 |             19 |
| [926](#event-926)        | 0x131E       |    171 |             34 |
| [956](#event-956)        | 0x13C9       |    139 |             27 |
| [972](#event-972)        | 0x1454       |    196 |             37 |
| [986](#event-986)        | 0x1518       |    115 |             21 |
| [987](#event-987)        | 0x158B       |    116 |             24 |
| [925](#event-925)        | 0x15FF       |    786 |            146 |
| [16](#event-16)          | 0x1911       |     28 |              5 |
| [0](#event-0)            | 0x192D       |     28 |              5 |
| [65535.1](#event-655351) | 0x1949       |      9 |              3 |

## DAT References (imed_data)

|   Index | Hex Value   |   Dec Value |
|---------|-------------|-------------|
|       0 | 0x0009      |           9 |
|       1 | 0x000A      |          10 |
|       2 | 0x0001      |           1 |
|       3 | 0x0000      |           0 |
|       4 | 0x0010      |          16 |
|       5 | 0x0002      |           2 |
|       6 | 0x0014      |          20 |
|       7 | 0x1BC8      |        7112 |
|       8 | 0x1BC9      |        7113 |
|       9 | 0x1BCA      |        7114 |
|      10 | 0x1BCB      |        7115 |
|      11 | 0x1B7F      |        7039 |
|      12 | 0x0031      |          49 |
|      13 | 0x0015      |          21 |
|      14 | 0x1BCC      |        7116 |
|      15 | 0x1BCD      |        7117 |
|      16 | 0x0032      |          50 |
|      17 | 0x0003      |           3 |
|      18 | 0x0033      |          51 |
|      19 | 0x0004      |           4 |
|      20 | 0x0034      |          52 |
|      21 | 0x0005      |           5 |
|      22 | 0x0035      |          53 |
|      23 | 0x0006      |           6 |
|      24 | 0x0036      |          54 |
|      25 | 0x0007      |           7 |
|      26 | 0x0037      |          55 |
|      27 | 0x0008      |           8 |
|      28 | 0x0038      |          56 |
|      29 | 0x1B80      |        7040 |
|      30 | 0x1B81      |        7041 |
|      31 | 0x006E      |         110 |
|      32 | 0x1B8A      |        7050 |
|      33 | 0x0046      |          70 |
|      34 | 0x1BC3      |        7107 |
|      35 | 0x1BC4      |        7108 |
|      36 | 0x1BC5      |        7109 |
|      37 | 0x1BC6      |        7110 |
|      38 | 0x0064      |         100 |
|      39 | 0x49C4      |       18884 |
|      40 | 0x1BBF      |        7103 |
|      41 | 0x1BBE      |        7102 |
|      42 | 0x07C4      |        1988 |
|      43 | 0x1BBC      |        7100 |
|      44 | 0x1BBD      |        7101 |
|      45 | 0x1BBB      |        7099 |
|      46 | 0x1BB9      |        7097 |
|      47 | 0x1BB6      |        7094 |
|      48 | 0x1BB7      |        7095 |
|      49 | 0x1BB8      |        7096 |
|      50 | 0x1BBA      |        7098 |
|      51 | 0x000B      |          11 |
|      52 | 0x000C      |          12 |
|      53 | 0x0078      |         120 |
|      54 | 0x000D      |          13 |
|      55 | 0x0082      |         130 |
|      56 | 0x1B8C      |        7052 |
|      57 | 0x1B8D      |        7053 |
|      58 | 0x1B8B      |        7051 |
|      59 | 0x1B83      |        7043 |
|      60 | 0x1B4B      |        6987 |
|      61 | 0x1B85      |        7045 |
|      62 | 0x1B86      |        7046 |
|      63 | 0x1B87      |        7047 |
|      64 | 0x1B88      |        7048 |
|      65 | 0x1B89      |        7049 |
|      66 | 0x1B84      |        7044 |
|      67 | 0x000E      |          14 |
|      68 | 0x000F      |          15 |
|      69 | 0x008E      |         142 |
|      70 | 0x1B51      |        6993 |
|      71 | 0x1B77      |        7031 |
|      72 | 0x1B55      |        6997 |
|      73 | 0x1B54      |        6996 |
|      74 | 0x1B53      |        6995 |
|      75 | 0x1B52      |        6994 |
|      76 | 0x1B8E      |        7054 |
|      77 | 0x1B8F      |        7055 |
|      78 | 0x1BA9      |        7081 |
|      79 | 0x1B90      |        7056 |
|      80 | 0x1BC7      |        7111 |
|      81 | 0x1B91      |        7057 |
|      82 | 0x1B92      |        7058 |
|      83 | 0x1BC0      |        7104 |
|      84 | 0x1BC1      |        7105 |
|      85 | 0x1BC2      |        7106 |
|      86 | 0x00C9      |         201 |
|      87 | 0x1B4E      |        6990 |
|      88 | 0x4A18      |       18968 |
|      89 | 0x4A19      |       18969 |
|      90 | 0x4A28      |       18984 |
|      91 | 0x4A29      |       18985 |
|      92 | 0x4A05      |       18949 |
|      93 | 0x4A06      |       18950 |
|      94 | 0x4A07      |       18951 |
|      95 | 0x4A08      |       18952 |
|      96 | 0x4A09      |       18953 |
|      97 | 0x4A0A      |       18954 |
|      98 | 0x4A0B      |       18955 |
|      99 | 0x4A0C      |       18956 |
|     100 | 0x4A0D      |       18957 |
|     101 | 0x4A0E      |       18958 |
|     102 | 0x4A0F      |       18959 |
|     103 | 0x4A10      |       18960 |
|     104 | 0x4A11      |       18961 |
|     105 | 0x4A12      |       18962 |
|     106 | 0x4A13      |       18963 |
|     107 | 0x4A14      |       18964 |
|     108 | 0x4A15      |       18965 |
|     109 | 0x4A16      |       18966 |
|     110 | 0x4A17      |       18967 |
|     111 | 0x4A2A      |       18986 |
|     112 | 0x4A2B      |       18987 |
|     113 | 0x4A2C      |       18988 |
|     114 | 0x4A2D      |       18989 |
|     115 | 0x4A2E      |       18990 |
|     116 | 0x4A2F      |       18991 |
|     117 | 0x4A30      |       18992 |
|     118 | 0x4A31      |       18993 |
|     119 | 0x4A32      |       18994 |
|     120 | 0x4A33      |       18995 |
|     121 | 0x4A34      |       18996 |
|     122 | 0x4A3F      |       19007 |
|     123 | 0x4A40      |       19008 |
|     124 | 0x4A41      |       19009 |
|     125 | 0x4A42      |       19010 |
|     126 | 0x4A43      |       19011 |
|     127 | 0x4A44      |       19012 |
|     128 | 0x4A45      |       19013 |
|     129 | 0x4A46      |       19014 |
|     130 | 0x4A47      |       19015 |
|     131 | 0x4A48      |       19016 |
|     132 | 0x4A49      |       19017 |
|     133 | 0x4A4A      |       19018 |
|     134 | 0x4A50      |       19024 |
|     135 | 0x4A63      |       19043 |
|     136 | 0x4A64      |       19044 |
|     137 | 0x4A65      |       19045 |
|     138 | 0x4A66      |       19046 |
|     139 | 0x4A67      |       19047 |
|     140 | 0x4A68      |       19048 |
|     141 | 0xFFFFFFFF  |  4294967295 |
|     142 | 0x4A59      |       19033 |
|     143 | 0x4A5A      |       19034 |
|     144 | 0x4A51      |       19025 |
|     145 | 0x4A52      |       19026 |
|     146 | 0x4A53      |       19027 |
|     147 | 0x4A54      |       19028 |
|     148 | 0x40000000  |  1073741824 |
|     149 | 0x4A55      |       19029 |
|     150 | 0x4A56      |       19030 |
|     151 | 0x4A57      |       19031 |
|     152 | 0x4A58      |       19032 |
|     153 | 0x4A5B      |       19035 |
|     154 | 0x4A5C      |       19036 |
|     155 | 0x4A5D      |       19037 |
|     156 | 0x4A1A      |       18970 |
|     157 | 0x003C      |          60 |
|     158 | 0x001E      |          30 |
|     159 | 0x4A1B      |       18971 |
|     160 | 0x4A1C      |       18972 |
|     161 | 0x4A1D      |       18973 |
|     162 | 0x4A1E      |       18974 |
|     163 | 0x4A1F      |       18975 |
|     164 | 0x4A35      |       18997 |
|     165 | 0x4A36      |       18998 |
|     166 | 0x4A37      |       18999 |
|     167 | 0x4A38      |       19000 |
|     168 | 0x4A39      |       19001 |
|     169 | 0x4A5E      |       19038 |
|     170 | 0x4A69      |       19049 |
|     171 | 0x4A20      |       18976 |
|     172 | 0x4A21      |       18977 |
|     173 | 0x4A22      |       18978 |
|     174 | 0x4A6E      |       19054 |
|     175 | 0x4A6F      |       19055 |
|     176 | 0x4A3E      |       19006 |
|     177 | 0x4A23      |       18979 |
|     178 | 0x4A24      |       18980 |
|     179 | 0x4A25      |       18981 |
|     180 | 0x4A26      |       18982 |
|     181 | 0x4A27      |       18983 |
|     182 | 0x4A3A      |       19002 |
|     183 | 0x4A3B      |       19003 |
|     184 | 0x4A3C      |       19004 |
|     185 | 0x4A3D      |       19005 |
|     186 | 0x4A5F      |       19039 |
|     187 | 0x4A60      |       19040 |
|     188 | 0x4A61      |       19041 |
|     189 | 0x4A62      |       19042 |
|     190 | 0x4A6A      |       19050 |
|     191 | 0x4A6B      |       19051 |
|     192 | 0x4A6C      |       19052 |
|     193 | 0x4A6D      |       19053 |
|     194 | 0x4A70      |       19056 |
|     195 | 0x4A71      |       19057 |
|     196 | 0x4A72      |       19058 |
|     197 | 0x4A73      |       19059 |
|     198 | 0x4A74      |       19060 |
|     199 | 0x4A4B      |       19019 |
|     200 | 0x4A4C      |       19020 |
|     201 | 0x4A4D      |       19021 |
|     202 | 0x4A4E      |       19022 |
|     203 | 0x4A4F      |       19023 |
|     204 | 0x00C8      |         200 |
|     205 | 0x0013      |          19 |
|     206 | 0x001D      |          29 |
|     207 | 0x0027      |          39 |
|     208 | 0x003B      |          59 |
|     209 | 0x0045      |          69 |
|     210 | 0x1680D     |       92173 |
|     211 | 0x11B86     |       72582 |
|     212 | 0x06D5      |        1749 |
|     213 | 0x0BA1      |        2977 |
|     214 | 0xFFFFDF39  |  4294958905 |
|     215 | 0x2180      |        8576 |
|     216 | 0xFFFFFED4  |  4294966996 |
|     217 | 0x0FCA      |        4042 |
|     218 | 0x31BF      |       12735 |

## String References

- **6987**: Join the [Fishermen's/Carpenters'/Blacksmiths'/Goldsmiths'/Weavers'/Tanners'/Boneworkers'/Alchemists'/Culinarians'] Guild? [Sign up./That's not why you're here.]
- **6990**: You are now recognized as [an amateur/a recruit/an initiate/a novice/an apprentice/a journeyman/a craftsman/an artisan/an adept/a veteran/an expert/an authority/a luminary/a master/a grandmaster/a legend] of the [Fishermen's/Carpenters'/Blacksmiths'/Goldsmiths'/Weavers'/Tanners'/Boneworkers'/Alchemists'/Culinarians'] Guild.
- **6993**: Necessary skills: [Fishing/Woodworking/Smithing/Goldsmithing/Clothcraft/Leatherworking/Bonecraft/Alchemy/Cooking][ /, Woodworking/, Smithing/, Goldsmithing/, Clothcraft/, Leatherworking/, Bonecraft/, Alchemy/, Cooking][ /, Woodworking/, Smithing/, Goldsmithing/, Clothcraft/, Leatherworking/, Bonecraft/, Alchemy/, Cooking][ /, & Woodworking/, & Smithing/, & Goldsmithing/, & Clothcraft/, & Leatherworking/, & Bonecraft/, & Alchemy/, & Cooking] Necessary crystal: $4 Necessary items:
- **6994**: $4 x $0 $5 x $0$0 $6 x $0 $7 x $0$3
- **6995**: $4 x $0 $5 x $0$0 $6 x $0
- **6996**: $4 x $0 $5 x $0$0
- **6997**: $4 x $0
- **7031**: Necessary skills: [Fishing/Woodworking/Smithing/Goldsmithing/Clothcraft/Leatherworking/Bonecraft/Alchemy/Cooking][ /, Woodworking/, Smithing/, Goldsmithing/, Clothcraft/, Leatherworking/, Bonecraft/, Alchemy/, Cooking][ /, Woodworking/, Smithing/, Goldsmithing/, Clothcraft/, Leatherworking/, Bonecraft/, Alchemy/, Cooking][ /, & Woodworking/, & Smithing/, & Goldsmithing/, & Clothcraft/, & Leatherworking/, & Bonecraft/, & Alchemy/, & Cooking] Necessary crystal: $4 Necessary key item: $3 Necessary items:
- **7039**: Renounce your rank at which guild? [None./Carpenters'./Blacksmiths'./Goldsmiths'./Weavers'./Tanners'./Boneworkers'./Alchemists'./Culinarians'.]
- **7040**: If you proceed, your rank in the [Carpenters'/Blacksmiths'/Goldsmiths'/Weavers'/Tanners'/Boneworkers'/Alchemists'/Culinarians'] Guild will return to that of [craftsman/artisan/adept], and your skill value will revert to the maximum for that level. This procedure cannot be undone, so please consider your decision carefully.
- **7041**: Renounce your rank as a [Carpenter/Blacksmith/Goldsmith/Weaver/Tanner/Boneworker/Alchemist/Culinarian]? [No, retain./Yes, renounce.]
- **7043**: Now, what business would an adventurer have in the Carpenters' Guild? This is a union for woodworkers, masons, and the like.
- **7044**: Then I'm going to have to ask you to leave. We pride ourselves in "safety first" here, and we don't want any visitors getting hurt, now.
- **7045**: Well, you look like a strong one. And who knows? Maybe you'll catch on quick. Just to play it safe, we'll start you off with crystal synthesis.
- **7046**: You're probably in a hurry to go off and beat some beastmen, so I'll cut the small talk. That shiny rock I just gave you--that's a crystal. I'm sure an adventurer like you has seen one before.
- **7047**: Extract the energy out of one of these and you can cut, plane, join...well, let's just say, do almost anything with wood.
- **7048**: I'm no scientist, so don't go asking me the details. As long as it works, we'll keep using 'em...but only on rush jobs. A good old hammer and some nails--that's where true carpentry starts.
- **7049**: If you need any help starting out, ask the workers inside the guild. I evaluate my students on their abilities, and nothing else. You work hard, you'll move up in this trade.
- **7050**: Hardness, elasticity, weight...wood has too many merits to be able to say for certain which is best.
- **7051**: Wood is the body and soul of a tree. Listen to what the soul has to say and let those words live on in your works. Only then will you become a true carpenter.
- **7052**: From the looks of you, it seems that you're ready for the next step. Make me $0.
- **7053**: If you pass my test, I'll teach you some new techniques.
- **7054**: ... Fairly nice work. I give you the title of [amateur/recruit/initiate/novice/apprentice]. Work hard and never forget to be a good example to the younger students.
- **7055**: ... I see that your skills become more refined with each day. I present you with the title of journeyman. You make an excellent example for the other students.
- **7056**: ... Remarkable! Your work is nearly flawless! Starting today, consider yourself an artisan. There isn't a member of this guild who doesn't know of your work.
- **7057**: Unbelievable. I've never seen such a...such a work of art! You are the pride of the Carpenters' Guild and worthy of the title of adept.
- **7058**: It's as if Altana made this herself. It's nothing less than a blessing from heaven. I am proud to work alongside a veteran of your caliber.
- **7081**: Excellent work! I knew that you could do it! I hereby grant you the title of craftsman. You are ready to accept the responsibility that comes with that name.
- **7094**: If you think that as [a veteran/an expert/an authority/a luminary/a master] you've learned all there is to know about carpentry, think again! There is magic that can be worked with hammer and nail that would blow your mind into sawdust. Would you know more?
- **7095**: Strive for more? [Sign me up!/Another time, perhaps.]
- **7096**: Spoken like a true carpenter! First, you'll want to speak to Andreas and--assuming he's not too busy carving one of his famed wooden pheasants--obtain from him a copy of $6.
- **7097**: Mind you, you'll have to hammer yourself out a few guild points if you don't have some in stock already.
- **7098**: And so the carpenter's hammer proves too weighty for yet another. Fear not, I shall be waiting here should you decide to heft it once more.
- **7099**: Have you not spoken with Andreas as instructed? Or was he too occupied with his pheasant-carving to give you a copy of $6?
- **7100**: Back so soon? Haha! I knew that devouring the contents of $6 would be as easy for you as sawing a log.
- **7101**: Your next task is to craft for me $2. Finding the required materials may prove a challenge in itself. You'll be needing...
- **7102**: And don't forget to carve your name into your work. Think of it as applying the final coat of varnish to give your piece that special sheen!
- **7103**: Have you been using that hammer of yours to beat your own head in? I just told you that making $2 requires...
- **7104**: ......... This doesn't happen often, <Player>, but your peerless craftsmanship has left me at a loss for words. Let it suffice to say that you have earned the title of expert, and then some.
- **7105**: While I cannot fault the craftsmanship, neither can I credit you for a work that doesn't bear your signature.
- **7106**: Rules are rules, and I cannot--I will not--make exceptions even for one of your talents.
- **7107**: Your skills as a carpenter impress me and the others of the guild. Build for me $0.
- **7108**: If you are able to complete this task, I will grant you the title of [artisan/adept/veteran] and you will become a true member of this guild.
- **7109**: However, while I find it impossible to think that you would do such a thing, I warn you that there could be consequences from earning this title in more than one guild.
- **7110**: Becoming [an artisan/an adept/a veteran] in any guild requires a high level of skill and concentration. But there is only so much that people like us can fit into our heads. Remember that.
- **7111**: Mind you, becoming [an artisan/an adept/a veteran] in any guild requires a high level of skill and concentration. You would do well to remember that there is only so much knowledge we can fit in our heads.
- **7112**: So you went and became [an artisan/an adept/a veteran] at another guild... And this after I told you that it was not a wise idea. What were you thinking?
- **7113**: Like I told you before, achieving such a rank in any guild requires a high level of skill and concentration. But there is only so much that people like us can fit into our heads.
- **7114**: And that is why I am going to give you a choice: revoke your [artisan/adept/veteran] status at these other guilds, or forget about your dreams of being a master woodworker.
- **7115**: Do not worry about informing the other guildmasters. I will send a notice of your intentions right away.
- **7116**: Never did I think I would hear you say those words, <Player>. You disappoint me gravely.
- **7117**: And yet, let it not be said that we carpenters hold grudges. Should you decide to return to the path of the hammer and nail, our doors will be open for you.
- **18949**: Oh, hello again. If you don't mind me asking, what is that shield you're carrying?
- **18950**: Hmm... I can see that you've spoken with her already.
- **18951**: Yes, I heard her tale about the shield that can enhance one's crafting ability. I'm not sure if I believe it or not, though...
- **18952**: Although, if it's true, that would definitely make it a shield worth having.
- **18953**: I know what you're capable of in our field, and if she picked you for this task, it must mean you've got what it takes to make this shield.
- **18954**: First things first. Let's teach you the necessary recipe. I recommend that you commit it to memory.
- **18955**: Very well then. The first ingredient you will need is $1.
- **18956**: Its purpose is to increase the Craftsmanship of the $0 to its maximum value.
- **18957**: I have actually received some notes on Craftsmanship that you should probably hear.
- **18958**: You can increase Craftsmanship by crafting items that match up with your skill while you have the $0 equipped.
- **18959**: Craftsmanship will increase greatly when you fulfill certain conditions, but crafting the same item over and over again will reduce your gains, so try synthesizing something different if you run into trouble.
- **18960**: In its default state, the shield has the unfortunate tendency to lower the success rate of your crafting, but as its Craftsmanship rises, it mitigates that effect.
- **18961**: You can tell the Craftsmanship rating as well as the crafting success rate by looking at the shield. Good luck to you. Mwahaha...
- **18962**: That is all that it says.
- **18963**: Once you've raised the Craftsmanship, please bring me the shield and I will make the $1.
- **18964**: Next, you will need $2 and $3, which can be obtained from Luren.
- **18965**: You have made a delivery or two before, yes? That's essentially what you need to do here to receive these items.
- **18966**: Please speak to Luren if you require more information.
- **18967**: That does it for the ingredients. Please show me the shield once you've upgraded it. I would like to see it.
- **18968**: How is it that you managed to forget the recipe? Very well. Here is the list of ingredients again. Remember, true professionals do not need to hear things twice.
- **18969**: You are where you are due to hard work and dedication. I have faith that you can do this.
- **18970**: I see... With this, I think I can make the $0.
- **18971**: So this is the $0...
- **18972**: The ability to pour my soul into this shield and create a crystal from it... I have no idea how it works, but it is really quite fascinating.
- **18973**: This is strange. In creating the $0, it somehow lowered the Craftsmanship of the $1.
- **18974**: In the end, that is not really a problem if you want to upgrade the $1, but you will need to bring the Craftsmanship back up if you want to make another $0.
- **18975**: However, I really doubt that you would ever lose such a valuable item.
- **18976**: Impossible. You mean you actually managed to misplace the $0?
- **18977**: Oh well. I will make you another $0, so please let me borrow your shield.
- **18978**: You are a professional. As such, you need to make sure you take proper care of your ingredients.
- **18979**: It looks like you made the upgrade. Do you mind if I take a look?
- **18980**: Hmm... The shape is different, and I can feel a faint energy emanating from it... Although, it clearly is not complete just yet.
- **18981**: No, you'll need to craft multiple times in order to get the best performance out of it. That's what she told me anyway.
- **18982**: That reminds me, I'm supposed to mark the shield when it's finished. Please give me a moment.
- **18983**: That should do it.
- **18984**: Please take the shield to Mewk Chorosap in Jeuno for me.
- **18985**: Oh, I also have regular deliveries for Luren. It would be quite helpful for training the newer members of the guild if you could help me with them.
- **18986**: Thank you for coming. I already heard about why you are here.
- **18987**: Let's get started then, shall we? Here is the recipe you'll need.
- **18988**: Do you have any questions?
- **18989**: Now, allow me to explain how to obtain the ingredients, starting with the $1.
- **18990**: Like with the aspis last time, you will need to equip the $0 while crafting in order to boost its Craftsmanship to 100%.
- **18991**: However, you will need to work even harder to imbue your spirit into the shield this time, so it will probably take a while before you are successful.
- **18992**: Once it reaches 100%, bring me the shield and I'll make the $1 for you.
- **18993**: The next ingredient is the $2. I've left it along with the $3 you used last time with Luren.
- **18994**: Lastly, the $4... I asked the A.M.A.N. to help me prepare some Records of Eminence objectives for you.
- **18995**: You will receive the $4 once you complete all of them.
- **18996**: That's it for the ingredients. You have a long and hard road ahead of you, but I have faith that you can handle it.
- **18997**: I see you have increased the Craftsmanship to the necessary level.
- **18998**: Wait a moment while I prepare the $0 for you.
- **18999**: Yes, that turned out rather well, I must say.
- **19000**: Hmm... Just like I thought, making the $0 caused the shield's Craftsmanship to decrease.
- **19001**: Make sure you take good care of this item so you don't have to go through the whole process again.
- **19002**: Look at the brilliant design of this shield. You can tell its quality just by looking at it. Of course, I expected nothing less from you.
- **19003**: Furthermore, I can tell this shield's power is well beyond the previous one. Of course, it's still probably not enough for her though.
- **19004**: Now, let me mark it for you to complete the process.
- **19005**: There you go. Show the shield to Mewk Chorosap and you'll be finished.
- **19006**: Don't worry, these things happen. Go and try the last objective one more time.
- **19007**: It is nice to see you. Let's not waste any time. I shall teach you the new recipe.
- **19008**: Hm? You already know the recipe and how to obtain some of the ingredients?
- **19009**: I guess that just leaves the $4 and $5. As such...
- **19010**: Our guild has received a number of orders for some items, but they need to be crafted in front of the customer.
- **19011**: You see, the customer wants to see our finest craftsmen at work up close and personal.
- **19012**: There are some exceptions, but otherwise only items crafted near the customer will count.
- **19013**: I also need you to gather the materials needed to craft the items. You're free to obtain them however you like.
- **19014**: On that note, we have reached an agreement between the guilds that will let you use gil to buy certain items from each one that were not previously available.
- **19015**: You can buy them from the crafting set vendor in each guild.
- **19016**: However, each guild is free to set its own rules, so know that you might not always find what you are looking for.
- **19017**: Once you have completed all of the requests, I will give you the $4 and $5.
- **19018**: This is the [first/next/final] request.
- **19019**: Deliver $1 $0 to Morunaude at Justi's Furniture in $7.
- **19020**: Deliver $1 $0 to Diadonour at the watch tower in $7.
- **19021**: Deliver $1 $0 to Lala Gohma in $7. She can be found near the Heavens Tower.
- **19022**: Deliver $1 $0 to Morunaude at Justi's Furniture in $7.
- **19023**: Oh, that particular item does not need to be crafted near the customer.
- **19024**: Once you have completed the request, do not forget to report back to me.
- **19025**: Your current request is...
- **19026**: Is everything going okay with the request?
- **19027**: Everything okay? [Everything's great!/It could be better...]
- **19028**: That is good to hear. Please keep working hard for the guild out there.
- **19029**: What's that? You want to give up on this job?
- **19030**: Will you see this through? [I'll do my best./I've had enough.]
- **19031**: I guess it cannot be helped. I shall find somebody else to finish this task.
- **19032**: There are plenty more requests for you to handle, so please come back after you get some rest.
- **19033**: So, are you feeling better now? I have the next request here if you want it.
- **19034**: Oh, it seems you completed the delivery. Thank you for the help.
- **19035**: Ahh, you have completed all of the deliveries. I really appreciate your help.
- **19036**: Here are the $0 and $1 as promised.
- **19037**: I am sure you will never face such a problem, but if you lose either of these items, you can use guild points to obtain a replacement.
- **19038**: I really have gotten quite good at this.
- **19039**: So this is how the shield turned out...
- **19040**: Yes, it really is quite beautiful! I can see your skill continues to grow without bounds.
- **19041**: Our friend thinks that the next upgrade will be the one to unlock the true power of the shield. I cannot wait to see what it becomes.
- **19042**: Oh, wait a moment. I have a crafting technique that I think would be just perfect for one of your ability. Give it a try when you have a chance.
- **19043**: It's good of you to come. It looks like you're nearly finished upgrading the shield.
- **19044**: Now, please allow me to explain what comes next.
- **19045**: I have prepared the $2 and $3 that you will require.
- **19046**: If you have enough crafter points, you can exchange them with Luren right away.
- **19047**: As for the $1, the procedure is the same as before. Let me see your shield after you boost its Craftsmanship to 100%.
- **19048**: That's it for my explanation. Your first goal should be to work on getting that Craftsmanship value up. Good luck to you.
- **19049**: With the $0, Mewk Chorosap mentioned that she wanted it brought to her. Try to deliver it as soon as possible.
- **19050**: Hello. What do you need?
- **19051**: Ah! You must be talking about the item that Tarutaru from Adoulin asked me to make.
- **19052**: I was asked to send it to Jeuno after it was completed.
- **19053**: I imagine it must've been delivered to Mewk Chorosap by now.
- **19054**: Hello again. I have something to tell you. Do you remember that item you were looking for? I found it in the guild.
- **19055**: Hm? You need it for something? Sure, that's fine with me. Consider it yours.
- **19056**: Hmm... That emblem...
- **19057**: Ahh, I see. You've finished the shield at last. It looks absolutely amazing!
- **19058**: When you equip it, everyone will know that you're a top-level member of the Carpenters' Guild.
- **19059**: One more thing... I have prepared something for you in honor of your achievement.
- **19060**: I look forward to seeing you develop your woodworking skills and create breathtaking new items that have never been seen before.

## Events

### Event 65535

#### Metadata

| Field        | Value   |
|--------------|---------|
| Entrypoint   | 0x0000  |
| Data Size    | 1 bytes |
| Instructions | 1       |

```
      00 01 02 03 04 05 06 07  08 09 0A 0B 0C 0D 0E 0F
      -- -- -- -- -- -- -- --  -- -- -- -- -- -- -- --
0000: 00                                                .               
```

#### Opcodes

```
  0: 0x0000 [0x00] END_REQSTACK()
```

### Event 621

#### Metadata

| Field        | Value      |
|--------------|------------|
| Entrypoint   | 0x0001     |
| Data Size    | 1985 bytes |
| Instructions | 351        |

```
      00 01 02 03 04 05 06 07  08 09 0A 0B 0C 0D 0E 0F
      -- -- -- -- -- -- -- --  -- -- -- -- -- -- -- --
0000:    1E F0 FF FF 7F 41 00  80 00 80 06 10 00 00 41   .....A........A
0010: 01 80 01 80 06 10 01 00  41 02 80 02 80 06 10 02  ........A.......
0020: 00 03 03 00 02 80 03 07  00 03 80 03 08 00 04 80  ................
0030: 03 09 00 07 10 03 0A 00  08 10 03 0B 00 09 10 02  ................
0040: 0A 00 05 80 04 FB 01 06  03 10 66 06 80 F8 FF FF  ..........f.....
0050: 7F F0 FF FF 7F 74 6C 6B  30 1D 07 80 23 1D 08 80  .....tlk0...#...
0060: 23 1D 09 80 23 1D 0A 80  23 66 06 80 F8 FF FF 7F  #...#...#f......
0070: F0 FF FF 7F 74 6C 6B 31  24 0B 80 03 80 0B 00 25  ....tlk1$......%
0080: 02 00 10 03 80 00 8D 00  21 00 01 BC 01 02 00 10  ........!.......
0090: 02 80 00 F8 00 03 0C 00  0C 80 03 03 10 03 80 3C  ...............<
00A0: 0B 00 02 80 02 80 66 0D  80 F8 FF FF 7F F0 FF FF  ......f.........
00B0: 7F 64 69 73 30 1D 0E 80  23 53 F8 FF FF 7F F0 FF  .dis0...#S......
00C0: FF 7F 64 69 73 30 66 0D  80 F8 FF FF 7F F0 FF FF  ..dis0f.........
00D0: 7F 74 68 6B 31 1D 0F 80  23 53 F8 FF FF 7F F0 FF  .thk1...#S......
00E0: FF 7F 74 68 6B 31 66 06  80 F8 FF FF 7F F0 FF FF  ..thk1f.........
00F0: 7F 74 68 6B 32 01 BC 01  02 00 10 05 80 00 14 01  .thk2...........
0100: 03 0C 00 10 80 03 03 10  02 80 3C 0B 00 05 80 02  ..........<.....
0110: 80 01 BC 01 02 00 10 11  80 00 30 01 03 0C 00 12  ..........0.....
0120: 80 03 03 10 05 80 3C 0B  00 11 80 02 80 01 BC 01  ......<.........
0130: 02 00 10 13 80 00 4C 01  03 0C 00 14 80 03 03 10  ......L.........
0140: 11 80 3C 0B 00 13 80 02  80 01 BC 01 02 00 10 15  ..<.............
0150: 80 00 68 01 03 0C 00 16  80 03 03 10 13 80 3C 0B  ..h...........<.
0160: 00 15 80 02 80 01 BC 01  02 00 10 17 80 00 84 01  ................
0170: 03 0C 00 18 80 03 03 10  15 80 3C 0B 00 17 80 02  ..........<.....
0180: 80 01 BC 01 02 00 10 19  80 00 A0 01 03 0C 00 1A  ................
0190: 80 03 03 10 17 80 3C 0B  00 19 80 02 80 01 BC 01  ......<.........
01A0: 02 00 10 1B 80 00 BC 01  03 0C 00 1C 80 03 03 10  ................
01B0: 19 80 3C 0B 00 1B 80 02  80 01 BC 01 48 1D 80 23  ..<.........H..#
01C0: 24 1E 80 03 80 03 80 25  02 00 10 03 80 00 D5 01  $......%........
01D0: 21 00 01 EE 01 02 00 10  02 80 00 EE 01 42 03 01  !............B..
01E0: 10 0C 00 43 00 43 01 0C  0A 00 2E 01 EE 01 02 0A  ...C.C..........
01F0: 00 05 80 04 F9 01 01 78  00 21 00 3E 05 10 02 80  .......x.!.>....
0200: 12 05 02 04 10 1F 80 03  05 05 07 03 10 05 80 02  ................
0210: 03 10 04 10 03 24 02 1A  9F 08 1D 20 80 23 1A B1  .....$..... .#..
0220: 08 01 02 05 03 0D 00 09  00 14 0D 00 01 80 07 0D  ................
0230: 00 21 80 02 04 10 0D 00  00 54 02 1D 22 80 23 1A  .!.......T..".#.
0240: 9F 08 1D 23 80 23 1D 24  80 23 1A B1 08 1D 25 80  ...#.#.$.#....%.
0250: 23 01 02 05 02 04 10 26  80 00 4A 03 02 00 00 02  #......&..J.....
0260: 80 00 F6 02 02 02 00 02  80 00 E0 02 02 01 00 02  ................
0270: 80 00 A2 02 03 04 10 27  80 1A 9F 08 1D 28 80 23  .......'.....(.#
0280: 1A B1 08 03 04 00 26 80  03 05 00 00 80 03 06 00  ......&.........
0290: 27 80 1A 6A 05 1A 9F 08  1D 29 80 23 1A B1 08 01  '..j.....).#....
02A0: DD 02 42 03 03 10 2A 80  1A 9F 08 1D 2B 80 23 03  ..B...*.....+.#.
02B0: 04 10 27 80 1D 2C 80 23  1A B1 08 03 04 00 26 80  ..'..,.#......&.
02C0: 03 05 00 00 80 03 06 00  27 80 1A 6A 05 1A 9F 08  ........'..j....
02D0: 1D 29 80 23 1A B1 08 03  01 10 11 80 2E 01 F3 02  .).#............
02E0: 03 03 10 2A 80 1A 9F 08  1D 2D 80 23 1D 2E 80 23  ...*.....-.#...#
02F0: 1A B1 08 01 47 03 03 02  10 03 80 1A 9F 08 1D 2F  ....G........../
0300: 80 23 1A B1 08 24 30 80  03 80 03 80 25 02 00 10  .#...$0.....%...
0310: 03 80 00 32 03 42 03 03  10 2A 80 1A 9F 08 1D 31  ...2.B...*.....1
0320: 80 23 1D 2E 80 23 1A B1  08 03 01 10 05 80 2E 01  .#...#..........
0330: 47 03 02 00 10 02 80 00  47 03 1A 9F 08 1D 32 80  G.......G.....2.
0340: 23 1A B1 08 01 47 03 01  02 05 02 04 10 26 80 02  #....G.......&..
0350: F4 04 02 00 00 02 80 00  10 04 02 02 00 02 80 00  ................
0360: 0D 04 02 01 00 02 80 00  0A 04 03 02 10 04 10 08  ................
0370: 02 10 26 80 15 02 10 01  80 02 02 10 02 80 80 A5  ..&.............
0380: 03 03 04 10 33 80 1A 9F  08 1D 28 80 23 1A B1 08  ....3.....(.#...
0390: 03 04 00 1F 80 03 05 00  01 80 03 06 00 33 80 1A  .............3..
03A0: 6A 05 01 FD 03 02 02 10  05 80 80 D1 03 03 04 10  j...............
03B0: 34 80 1A 9F 08 1D 28 80  23 1A B1 08 03 04 00 35  4.....(.#......5
03C0: 80 03 05 00 33 80 03 06  00 34 80 1A 6A 05 01 FD  ....3....4..j...
03D0: 03 02 02 10 11 80 80 FD  03 03 04 10 36 80 1A 9F  ............6...
03E0: 08 1D 28 80 23 1A B1 08  03 04 00 37 80 03 05 00  ..(.#......7....
03F0: 34 80 03 06 00 36 80 1A  6A 05 01 FD 03 1A 9F 08  4....6..j.......
0400: 1D 29 80 23 1A B1 08 01  0A 04 01 0D 04 01 F1 04  .).#............
0410: 02 02 00 02 80 00 F1 04  03 02 10 04 10 08 02 10  ................
0420: 26 80 15 02 10 01 80 1A  9F 08 1D 2F 80 23 1A B1  &........../.#..
0430: 08 24 30 80 03 80 03 80  25 02 00 10 03 80 00 D9  .$0.....%.......
0440: 04 42 02 02 10 02 80 80  6E 04 03 04 10 33 80 1A  .B......n....3..
0450: 9F 08 1D 2C 80 23 1A B1  08 03 04 00 1F 80 03 05  ...,.#..........
0460: 00 01 80 03 06 00 33 80  1A 6A 05 01 C6 04 02 02  ......3..j......
0470: 10 05 80 80 9A 04 03 04  10 34 80 1A 9F 08 1D 2C  .........4.....,
0480: 80 23 1A B1 08 03 04 00  35 80 03 05 00 33 80 03  .#......5....3..
0490: 06 00 34 80 1A 6A 05 01  C6 04 02 02 10 11 80 80  ..4..j..........
04A0: C6 04 03 04 10 36 80 1A  9F 08 1D 2C 80 23 1A B1  .....6.....,.#..
04B0: 08 03 04 00 37 80 03 05  00 34 80 03 06 00 36 80  ....7....4....6.
04C0: 1A 6A 05 01 C6 04 1A 9F  08 1D 29 80 23 1A B1 08  .j........).#...
04D0: 03 01 10 13 80 2E 01 EE  04 02 00 10 02 80 00 EE  ................
04E0: 04 1A 9F 08 1D 32 80 23  1A B1 08 01 EE 04 01 F1  .....2.#........
04F0: 04 01 02 05 1A 9F 08 1D  38 80 23 1D 39 80 23 1A  ........8.#.9.#.
0500: B1 08 01 0F 05 1A 9F 08  1D 3A 80 23 1A B1 08 01  .........:.#....
0510: 68 05 03 08 10 02 80 1D  3B 80 23 24 3C 80 03 80  h.......;.#$<...
0520: 03 80 25 02 00 10 03 80  00 53 05 1A B7 08 1D 3D  ..%......S.....=
0530: 80 23 1D 3E 80 23 1A C9  08 1A 9F 08 1D 3F 80 23  .#.>.#.......?.#
0540: 1D 40 80 23 1A B1 08 1D  41 80 23 03 01 10 02 80  .@.#....A.#.....
0550: 01 68 05 02 00 10 02 80  00 68 05 1A 9F 08 1D 42  .h.......h.....B
0560: 80 23 1A B1 08 01 68 05  21 00 8C 02 03 00 04 00  .#....h.!.......
0570: 05 00 07 00 08 00 8C 01  02 06 00 02 10 C0 8B 05  ................
0580: 03 06 00 03 80 01 BD 06  01 BD 06 02 06 00 03 10  ................
0590: C0 9E 05 03 06 00 02 80  01 BD 06 01 BD 06 02 06  ................
05A0: 00 04 10 C0 B1 05 03 06  00 05 80 01 BD 06 01 BD  ................
05B0: 06 02 06 00 05 10 C0 C4  05 03 06 00 11 80 01 BD  ................
05C0: 06 01 BD 06 02 06 00 06  10 C0 D7 05 03 06 00 13  ................
05D0: 80 01 BD 06 01 BD 06 02  06 00 07 10 C0 EA 05 03  ................
05E0: 06 00 15 80 01 BD 06 01  BD 06 02 06 00 08 10 C0  ................
05F0: FD 05 03 06 00 17 80 01  BD 06 01 BD 06 02 06 00  ................
0600: 09 10 C0 10 06 03 06 00  19 80 01 BD 06 01 BD 06  ................
0610: 02 06 00 00 17 C0 23 06  03 06 00 1B 80 01 BD 06  ......#.........
0620: 01 BD 06 02 06 00 01 17  C0 36 06 03 06 00 00 80  .........6......
0630: 01 BD 06 01 BD 06 02 06  00 02 17 C0 49 06 03 06  ............I...
0640: 00 01 80 01 BD 06 01 BD  06 02 06 00 03 17 C0 5C  ...............\
0650: 06 03 06 00 33 80 01 BD  06 01 BD 06 02 06 00 04  ....3...........
0660: 17 C0 6F 06 03 06 00 34  80 01 BD 06 01 BD 06 02  ..o....4........
0670: 06 00 05 17 C0 82 06 03  06 00 36 80 01 BD 06 01  ..........6.....
0680: BD 06 02 06 00 06 17 C0  95 06 03 06 00 43 80 01  .............C..
0690: BD 06 01 BD 06 02 06 00  07 17 C0 A8 06 03 06 00  ................
06A0: 44 80 01 BD 06 01 BD 06  02 08 17 03 80 01 BD 06  D...............
06B0: 07 07 00 04 80 07 08 00  04 80 01 6A 05 07 06 00  ...........j....
06C0: 07 00 8C 03 03 00 04 00  05 00 06 00 8C 01 07 44  ...............D
06D0: 10 45 80 03 08 10 03 00  03 03 10 41 10 03 04 10  .E.........A....
06E0: 42 10 03 05 10 43 10 03  06 10 44 10 03 07 10 55  B....C....D....U
06F0: 10 02 07 10 03 80 00 00  07 48 46 80 23 01 04 07  .........HF.#...
0700: 48 47 80 23 03 02 10 45  10 03 03 10 46 10 03 04  HG.#...E....F...
0710: 10 47 10 03 05 10 48 10  03 06 10 4D 10 03 07 10  .G....H....M....
0720: 4E 10 03 08 10 4F 10 03  09 10 50 10 02 07 10 03  N....O....P.....
0730: 80 00 3B 07 48 48 80 23  01 C1 07 02 08 10 03 80  ..;.HH.#........
0740: 00 4A 07 48 49 80 23 01  C1 07 02 09 10 03 80 00  .J.HI.#.........
0750: 59 07 48 4A 80 23 01 C1  07 48 4B 80 23 03 02 10  Y.HJ.#...HK.#...
0760: 49 10 03 03 10 4A 10 03  04 10 4B 10 03 05 10 4C  I....J....K....L
0770: 10 03 06 10 51 10 03 07  10 52 10 03 08 10 53 10  ....Q....R....S.
0780: 03 09 10 54 10 02 06 10  03 80 00 90 07 01 C1 07  ...T............
0790: 02 07 10 03 80 00 9F 07  48 48 80 23 01 C1 07 02  ........HH.#....
07A0: 08 10 03 80 00 AE 07 48  49 80 23 01 C1 07 02 09  .......HI.#.....
07B0: 10 03 80 00 BD 07 48 4A  80 23 01 C1 07 48 4B 80  ......HJ.#...HK.
07C0: 23 1B                                             #.              
```

#### Opcodes

```
  0: 0x0001 [0x1E] EventEntity looks at LocalPlayer and starts talking
  1: 0x0006 [0x41] ExtData[1]->WorkLocal[0] = Work_Zone[6] (bits 9*-9*)
  2: 0x000F [0x41] ExtData[1]->WorkLocal[1] = Work_Zone[6] (bits 10*-10*)
  3: 0x0018 [0x41] ExtData[1]->WorkLocal[2] = Work_Zone[6] (bits 1*-1*)
  4: 0x0021 [0x03] ExtData[1]->WorkLocal[3] = 1*
  5: 0x0026 [0x03] ExtData[1]->WorkLocal[7] = 0*
  6: 0x002B [0x03] ExtData[1]->WorkLocal[8] = 16*
  7: 0x0030 [0x03] ExtData[1]->WorkLocal[9] = Work_Zone[7]
  8: 0x0035 [0x03] ExtData[1]->WorkLocal[10] = Work_Zone[8]
  9: 0x003A [0x03] ExtData[1]->WorkLocal[11] = Work_Zone[9]
 10: 0x003F [0x02] IF !(ExtData[1]->WorkLocal[10] < 2*) GOTO 0x01FB
 11: 0x0047 [0x06] Work_Zone[3] = 0
 12: 0x004A [0x66] LOAD_EXT_SCHEDULER_MAIN: Load scheduler "tlk0" with entities [EventEntity, LocalPlayer], work=20*
 13: 0x0059 [0x1D] PRINT_EVENT_MESSAGE(message_id=7112*)
    → "So you went and became [an artisan/an adept/a veteran] at another guild... And this after I told you that it was not a wise idea. What were you thinking?"
 14: 0x005C [0x23] WAIT_FOR_DIALOG_INTERACTION
 15: 0x005D [0x1D] PRINT_EVENT_MESSAGE(message_id=7113*)
    → "Like I told you before, achieving such a rank in any guild requires a high level of skill and concentration. But there is only so much that people like us can fit into our heads."
 16: 0x0060 [0x23] WAIT_FOR_DIALOG_INTERACTION
 17: 0x0061 [0x1D] PRINT_EVENT_MESSAGE(message_id=7114*)
    → "And that is why I am going to give you a choice: revoke your [artisan/adept/veteran] status at these other guilds, or forget about your dreams of being a master woodworker."
 18: 0x0064 [0x23] WAIT_FOR_DIALOG_INTERACTION
 19: 0x0065 [0x1D] PRINT_EVENT_MESSAGE(message_id=7115*)
    → "Do not worry about informing the other guildmasters. I will send a notice of your intentions right away."
 20: 0x0068 [0x23] WAIT_FOR_DIALOG_INTERACTION
 21: 0x0069 [0x66] LOAD_EXT_SCHEDULER_MAIN: Load scheduler "tlk1" with entities [EventEntity, LocalPlayer], work=20*
 22: 0x0078 [0x24] CREATE_DIALOG(message_id=7039*, default_option=0*, option_flags=ExtData[1]->WorkLocal[11])
    → "Renounce your rank at which guild? [None./Carpenters'./Blacksmiths'./Goldsmiths'./Weavers'./Tanners'./Boneworkers'./Alchemists'./Culinarians'.]"
 23: 0x007F [0x25] WAIT_DIALOG_SELECT()
 24: 0x0080 [0x02] IF !(Work_Zone[0] == 0*) GOTO 0x008D
 25: 0x0088 [0x21] END_EVENT
 26: 0x0089 [0x00] END_REQSTACK()

SUBROUTINE_01BC:
 27: 0x01BC [0x48] [System] [7040*]:
    → "If you proceed, your rank in the [Carpenters'/Blacksmiths'/Goldsmiths'/Weavers'/Tanners'/Boneworkers'/Alchemists'/Culinarians'] Guild will return to that of [craftsman/artisan/adept], and your skill value will revert to the maximum for that level. This procedure cannot be undone, so please consider your decision carefully."
 28: 0x01BF [0x23] WAIT_FOR_DIALOG_INTERACTION
 29: 0x01C0 [0x24] CREATE_DIALOG(message_id=7041*, default_option=0*, option_flags=0*)
    → "Renounce your rank as a [Carpenter/Blacksmith/Goldsmith/Weaver/Tanner/Boneworker/Alchemist/Culinarian]? [No, retain./Yes, renounce.]"
 30: 0x01C7 [0x25] WAIT_DIALOG_SELECT()
 31: 0x01C8 [0x02] IF !(Work_Zone[0] == 0*) GOTO 0x01D5
 32: 0x01D0 [0x21] END_EVENT
 33: 0x01D1 [0x00] END_REQSTACK()

SUBROUTINE_01EE:
 34: 0x01EE [0x02] IF !(ExtData[1]->WorkLocal[10] < 2*) GOTO 0x01F9
 35: 0x01F6 [0x01] GOTO 0x0078
 36: 0x01F9 [0x21] END_EVENT
 37: 0x01FA [0x00] END_REQSTACK()
 38: 0x01FB [0x3E] IF !(Work_Zone[5] bit 1*) GOTO 0x0512
 39: 0x0202 [0x02] IF !(Work_Zone[4] >= 110*) GOTO 0x0505
 40: 0x020A [0x07] Work_Zone[3] += 2*
 41: 0x020F [0x02] IF !(Work_Zone[3] >= Work_Zone[4]) GOTO 0x0224
 42: 0x0217 [0x1A] CALL_SUBROUTINE(address=0x089F)
 43: 0x021A [0x1D] PRINT_EVENT_MESSAGE(message_id=7050*)
    → "Hardness, elasticity, weight...wood has too many merits to be able to say for certain which is best."
 44: 0x021D [0x23] WAIT_FOR_DIALOG_INTERACTION
 45: 0x021E [0x1A] CALL_SUBROUTINE(address=0x08B1)
 46: 0x0221 [0x01] GOTO 0x0502
 47: 0x0224 [0x03] ExtData[1]->WorkLocal[13] = ExtData[1]->WorkLocal[9]
 48: 0x0229 [0x14] ExtData[1]->WorkLocal[13] *= 10*
 49: 0x022E [0x07] ExtData[1]->WorkLocal[13] += 70*
 50: 0x0233 [0x02] IF !(Work_Zone[4] == ExtData[1]->WorkLocal[13]) GOTO 0x0254
 51: 0x023B [0x1D] PRINT_EVENT_MESSAGE(message_id=7107*)
    → "Your skills as a carpenter impress me and the others of the guild. Build for me $0."
 52: 0x023E [0x23] WAIT_FOR_DIALOG_INTERACTION
 53: 0x023F [0x1A] CALL_SUBROUTINE(address=0x089F)
 54: 0x0242 [0x1D] PRINT_EVENT_MESSAGE(message_id=7108*)
    → "If you are able to complete this task, I will grant you the title of [artisan/adept/veteran] and you will become a true member of this guild."
 55: 0x0245 [0x23] WAIT_FOR_DIALOG_INTERACTION
 56: 0x0246 [0x1D] PRINT_EVENT_MESSAGE(message_id=7109*)
    → "However, while I find it impossible to think that you would do such a thing, I warn you that there could be consequences from earning this title in more than one guild."
 57: 0x0249 [0x23] WAIT_FOR_DIALOG_INTERACTION
 58: 0x024A [0x1A] CALL_SUBROUTINE(address=0x08B1)
 59: 0x024D [0x1D] PRINT_EVENT_MESSAGE(message_id=7110*)
    → "Becoming [an artisan/an adept/a veteran] in any guild requires a high level of skill and concentration. But there is only so much that people like us can fit into our heads. Remember that."
 60: 0x0250 [0x23] WAIT_FOR_DIALOG_INTERACTION
 61: 0x0251 [0x01] GOTO 0x0502
 62: 0x0254 [0x02] IF !(Work_Zone[4] == 100*) GOTO 0x034A
 63: 0x025C [0x02] IF !(ExtData[1]->WorkLocal[0] == 1*) GOTO 0x02F6
 64: 0x0264 [0x02] IF !(ExtData[1]->WorkLocal[2] == 1*) GOTO 0x02E0
 65: 0x026C [0x02] IF !(ExtData[1]->WorkLocal[1] == 1*) GOTO 0x02A2
 66: 0x0274 [0x03] Work_Zone[4] = 18884*
 67: 0x0279 [0x1A] CALL_SUBROUTINE(address=0x089F)
 68: 0x027C [0x1D] PRINT_EVENT_MESSAGE(message_id=7103*)
    → "Have you been using that hammer of yours to beat your own head in? I just told you that making $2 requires..."
 69: 0x027F [0x23] WAIT_FOR_DIALOG_INTERACTION
 70: 0x0280 [0x1A] CALL_SUBROUTINE(address=0x08B1)
 71: 0x0283 [0x03] ExtData[1]->WorkLocal[4] = 100*
 72: 0x0288 [0x03] ExtData[1]->WorkLocal[5] = 9*
 73: 0x028D [0x03] ExtData[1]->WorkLocal[6] = 18884*
 74: 0x0292 [0x1A] CALL_SUBROUTINE(address=0x056A)
 75: 0x0295 [0x1A] CALL_SUBROUTINE(address=0x089F)
 76: 0x0298 [0x1D] PRINT_EVENT_MESSAGE(message_id=7102*)
    → "And don't forget to carve your name into your work. Think of it as applying the final coat of varnish to give your piece that special sheen!"
 77: 0x029B [0x23] WAIT_FOR_DIALOG_INTERACTION
 78: 0x029C [0x1A] CALL_SUBROUTINE(address=0x08B1)
 79: 0x029F [0x01] GOTO 0x02DD
 80: 0x02A2 [0x42] SET_CLI_EVENT_CANCEL_DATA()
 81: 0x02A3 [0x03] Work_Zone[3] = 1988*
 82: 0x02A8 [0x1A] CALL_SUBROUTINE(address=0x089F)
 83: 0x02AB [0x1D] PRINT_EVENT_MESSAGE(message_id=7100*)
    → "Back so soon? Haha! I knew that devouring the contents of $6 would be as easy for you as sawing a log."
 84: 0x02AE [0x23] WAIT_FOR_DIALOG_INTERACTION
 85: 0x02AF [0x03] Work_Zone[4] = 18884*
 86: 0x02B4 [0x1D] PRINT_EVENT_MESSAGE(message_id=7101*)
    → "Your next task is to craft for me $2. Finding the required materials may prove a challenge in itself. You'll be needing..."
 87: 0x02B7 [0x23] WAIT_FOR_DIALOG_INTERACTION
 88: 0x02B8 [0x1A] CALL_SUBROUTINE(address=0x08B1)
 89: 0x02BB [0x03] ExtData[1]->WorkLocal[4] = 100*
 90: 0x02C0 [0x03] ExtData[1]->WorkLocal[5] = 9*
 91: 0x02C5 [0x03] ExtData[1]->WorkLocal[6] = 18884*
 92: 0x02CA [0x1A] CALL_SUBROUTINE(address=0x056A)
 93: 0x02CD [0x1A] CALL_SUBROUTINE(address=0x089F)
 94: 0x02D0 [0x1D] PRINT_EVENT_MESSAGE(message_id=7102*)
    → "And don't forget to carve your name into your work. Think of it as applying the final coat of varnish to give your piece that special sheen!"
 95: 0x02D3 [0x23] WAIT_FOR_DIALOG_INTERACTION
 96: 0x02D4 [0x1A] CALL_SUBROUTINE(address=0x08B1)
 97: 0x02D7 [0x03] Work_Zone[1] = 3*
 98: 0x02DC [0x2E] SET_CLI_EVENT_CANCEL_FLAGS()

SUBROUTINE_02DD:
 99: 0x02DD [0x01] GOTO 0x02F3
100: 0x02E0 [0x03] Work_Zone[3] = 1988*
101: 0x02E5 [0x1A] CALL_SUBROUTINE(address=0x089F)
102: 0x02E8 [0x1D] PRINT_EVENT_MESSAGE(message_id=7099*)
    → "Have you not spoken with Andreas as instructed? Or was he too occupied with his pheasant-carving to give you a copy of $6?"
103: 0x02EB [0x23] WAIT_FOR_DIALOG_INTERACTION
104: 0x02EC [0x1D] PRINT_EVENT_MESSAGE(message_id=7097*)
    → "Mind you, you'll have to hammer yourself out a few guild points if you don't have some in stock already."
105: 0x02EF [0x23] WAIT_FOR_DIALOG_INTERACTION
106: 0x02F0 [0x1A] CALL_SUBROUTINE(address=0x08B1)

SUBROUTINE_02F3:
107: 0x02F3 [0x01] GOTO 0x0347
108: 0x02F6 [0x03] Work_Zone[2] = 0*
109: 0x02FB [0x1A] CALL_SUBROUTINE(address=0x089F)
110: 0x02FE [0x1D] PRINT_EVENT_MESSAGE(message_id=7094*)
    → "If you think that as [a veteran/an expert/an authority/a luminary/a master] you've learned all there is to know about carpentry, think again! There is magic that can be worked with hammer and nail that would blow your mind into sawdust. Would you know more?"
111: 0x0301 [0x23] WAIT_FOR_DIALOG_INTERACTION
112: 0x0302 [0x1A] CALL_SUBROUTINE(address=0x08B1)
113: 0x0305 [0x24] CREATE_DIALOG(message_id=7095*, default_option=0*, option_flags=0*)
    → "Strive for more? [Sign me up!/Another time, perhaps.]"
114: 0x030C [0x25] WAIT_DIALOG_SELECT()
115: 0x030D [0x02] IF !(Work_Zone[0] == 0*) GOTO 0x0332
116: 0x0315 [0x42] SET_CLI_EVENT_CANCEL_DATA()
117: 0x0316 [0x03] Work_Zone[3] = 1988*
118: 0x031B [0x1A] CALL_SUBROUTINE(address=0x089F)
119: 0x031E [0x1D] PRINT_EVENT_MESSAGE(message_id=7096*)
    → "Spoken like a true carpenter! First, you'll want to speak to Andreas and--assuming he's not too busy carving one of his famed wooden pheasants--obtain from him a copy of $6."
120: 0x0321 [0x23] WAIT_FOR_DIALOG_INTERACTION
121: 0x0322 [0x1D] PRINT_EVENT_MESSAGE(message_id=7097*)
    → "Mind you, you'll have to hammer yourself out a few guild points if you don't have some in stock already."
122: 0x0325 [0x23] WAIT_FOR_DIALOG_INTERACTION
123: 0x0326 [0x1A] CALL_SUBROUTINE(address=0x08B1)
124: 0x0329 [0x03] Work_Zone[1] = 2*
125: 0x032E [0x2E] SET_CLI_EVENT_CANCEL_FLAGS()
126: 0x032F [0x01] GOTO 0x0347
127: 0x0332 [0x02] IF !(Work_Zone[0] == 1*) GOTO 0x0347
128: 0x033A [0x1A] CALL_SUBROUTINE(address=0x089F)
129: 0x033D [0x1D] PRINT_EVENT_MESSAGE(message_id=7098*)
    → "And so the carpenter's hammer proves too weighty for yet another. Fear not, I shall be waiting here should you decide to heft it once more."
130: 0x0340 [0x23] WAIT_FOR_DIALOG_INTERACTION
131: 0x0341 [0x1A] CALL_SUBROUTINE(address=0x08B1)
132: 0x0344 [0x01] GOTO 0x0347

SUBROUTINE_0347:
133: 0x0347 [0x01] GOTO 0x0502
134: 0x034A [0x02] IF !(Work_Zone[4] <= 100*) GOTO 0x04F4
135: 0x0352 [0x02] IF !(ExtData[1]->WorkLocal[0] == 1*) GOTO 0x0410
136: 0x035A [0x02] IF !(ExtData[1]->WorkLocal[2] == 1*) GOTO 0x040D
137: 0x0362 [0x02] IF !(ExtData[1]->WorkLocal[1] == 1*) GOTO 0x040A
138: 0x036A [0x03] Work_Zone[2] = Work_Zone[4]
139: 0x036F [0x08] Work_Zone[2] -= 100*
140: 0x0374 [0x15] Work_Zone[2] /= 10*
141: 0x0379 [0x02] IF !(Work_Zone[2] == 1*) GOTO 0x03A5
142: 0x0381 [0x03] Work_Zone[4] = 11*
143: 0x0386 [0x1A] CALL_SUBROUTINE(address=0x089F)
144: 0x0389 [0x1D] PRINT_EVENT_MESSAGE(message_id=7103*)
    → "Have you been using that hammer of yours to beat your own head in? I just told you that making $2 requires..."
145: 0x038C [0x23] WAIT_FOR_DIALOG_INTERACTION
146: 0x038D [0x1A] CALL_SUBROUTINE(address=0x08B1)
147: 0x0390 [0x03] ExtData[1]->WorkLocal[4] = 110*
148: 0x0395 [0x03] ExtData[1]->WorkLocal[5] = 10*
149: 0x039A [0x03] ExtData[1]->WorkLocal[6] = 11*
150: 0x039F [0x1A] CALL_SUBROUTINE(address=0x056A)
151: 0x03A2 [0x01] GOTO 0x03FD
152: 0x03A5 [0x02] IF !(Work_Zone[2] == 2*) GOTO 0x03D1
153: 0x03AD [0x03] Work_Zone[4] = 12*
154: 0x03B2 [0x1A] CALL_SUBROUTINE(address=0x089F)
155: 0x03B5 [0x1D] PRINT_EVENT_MESSAGE(message_id=7103*)
    → "Have you been using that hammer of yours to beat your own head in? I just told you that making $2 requires..."
156: 0x03B8 [0x23] WAIT_FOR_DIALOG_INTERACTION
157: 0x03B9 [0x1A] CALL_SUBROUTINE(address=0x08B1)
158: 0x03BC [0x03] ExtData[1]->WorkLocal[4] = 120*
159: 0x03C1 [0x03] ExtData[1]->WorkLocal[5] = 11*
160: 0x03C6 [0x03] ExtData[1]->WorkLocal[6] = 12*
161: 0x03CB [0x1A] CALL_SUBROUTINE(address=0x056A)
162: 0x03CE [0x01] GOTO 0x03FD
163: 0x03D1 [0x02] IF !(Work_Zone[2] == 3*) GOTO 0x03FD
164: 0x03D9 [0x03] Work_Zone[4] = 13*
165: 0x03DE [0x1A] CALL_SUBROUTINE(address=0x089F)
166: 0x03E1 [0x1D] PRINT_EVENT_MESSAGE(message_id=7103*)
    → "Have you been using that hammer of yours to beat your own head in? I just told you that making $2 requires..."
167: 0x03E4 [0x23] WAIT_FOR_DIALOG_INTERACTION
168: 0x03E5 [0x1A] CALL_SUBROUTINE(address=0x08B1)
169: 0x03E8 [0x03] ExtData[1]->WorkLocal[4] = 130*
170: 0x03ED [0x03] ExtData[1]->WorkLocal[5] = 12*
171: 0x03F2 [0x03] ExtData[1]->WorkLocal[6] = 13*
172: 0x03F7 [0x1A] CALL_SUBROUTINE(address=0x056A)
173: 0x03FA [0x01] GOTO 0x03FD

SUBROUTINE_03FD:
174: 0x03FD [0x1A] CALL_SUBROUTINE(address=0x089F)
175: 0x0400 [0x1D] PRINT_EVENT_MESSAGE(message_id=7102*)
    → "And don't forget to carve your name into your work. Think of it as applying the final coat of varnish to give your piece that special sheen!"
176: 0x0403 [0x23] WAIT_FOR_DIALOG_INTERACTION
177: 0x0404 [0x1A] CALL_SUBROUTINE(address=0x08B1)
178: 0x0407 [0x01] GOTO 0x040A

SUBROUTINE_040A:
179: 0x040A [0x01] GOTO 0x040D

SUBROUTINE_040D:
180: 0x040D [0x01] GOTO 0x04F1
181: 0x0410 [0x02] IF !(ExtData[1]->WorkLocal[2] == 1*) GOTO 0x04F1
182: 0x0418 [0x03] Work_Zone[2] = Work_Zone[4]
183: 0x041D [0x08] Work_Zone[2] -= 100*
184: 0x0422 [0x15] Work_Zone[2] /= 10*
185: 0x0427 [0x1A] CALL_SUBROUTINE(address=0x089F)
186: 0x042A [0x1D] PRINT_EVENT_MESSAGE(message_id=7094*)
    → "If you think that as [a veteran/an expert/an authority/a luminary/a master] you've learned all there is to know about carpentry, think again! There is magic that can be worked with hammer and nail that would blow your mind into sawdust. Would you know more?"
187: 0x042D [0x23] WAIT_FOR_DIALOG_INTERACTION
188: 0x042E [0x1A] CALL_SUBROUTINE(address=0x08B1)
189: 0x0431 [0x24] CREATE_DIALOG(message_id=7095*, default_option=0*, option_flags=0*)
    → "Strive for more? [Sign me up!/Another time, perhaps.]"
190: 0x0438 [0x25] WAIT_DIALOG_SELECT()
191: 0x0439 [0x02] IF !(Work_Zone[0] == 0*) GOTO 0x04D9
192: 0x0441 [0x42] SET_CLI_EVENT_CANCEL_DATA()
193: 0x0442 [0x02] IF !(Work_Zone[2] == 1*) GOTO 0x046E
194: 0x044A [0x03] Work_Zone[4] = 11*
195: 0x044F [0x1A] CALL_SUBROUTINE(address=0x089F)
196: 0x0452 [0x1D] PRINT_EVENT_MESSAGE(message_id=7101*)
    → "Your next task is to craft for me $2. Finding the required materials may prove a challenge in itself. You'll be needing..."
197: 0x0455 [0x23] WAIT_FOR_DIALOG_INTERACTION
198: 0x0456 [0x1A] CALL_SUBROUTINE(address=0x08B1)
199: 0x0459 [0x03] ExtData[1]->WorkLocal[4] = 110*
200: 0x045E [0x03] ExtData[1]->WorkLocal[5] = 10*
201: 0x0463 [0x03] ExtData[1]->WorkLocal[6] = 11*
202: 0x0468 [0x1A] CALL_SUBROUTINE(address=0x056A)
203: 0x046B [0x01] GOTO 0x04C6
204: 0x046E [0x02] IF !(Work_Zone[2] == 2*) GOTO 0x049A
205: 0x0476 [0x03] Work_Zone[4] = 12*
206: 0x047B [0x1A] CALL_SUBROUTINE(address=0x089F)
207: 0x047E [0x1D] PRINT_EVENT_MESSAGE(message_id=7101*)
    → "Your next task is to craft for me $2. Finding the required materials may prove a challenge in itself. You'll be needing..."
208: 0x0481 [0x23] WAIT_FOR_DIALOG_INTERACTION
209: 0x0482 [0x1A] CALL_SUBROUTINE(address=0x08B1)
210: 0x0485 [0x03] ExtData[1]->WorkLocal[4] = 120*
211: 0x048A [0x03] ExtData[1]->WorkLocal[5] = 11*
212: 0x048F [0x03] ExtData[1]->WorkLocal[6] = 12*
213: 0x0494 [0x1A] CALL_SUBROUTINE(address=0x056A)
214: 0x0497 [0x01] GOTO 0x04C6
215: 0x049A [0x02] IF !(Work_Zone[2] == 3*) GOTO 0x04C6
216: 0x04A2 [0x03] Work_Zone[4] = 13*
217: 0x04A7 [0x1A] CALL_SUBROUTINE(address=0x089F)
218: 0x04AA [0x1D] PRINT_EVENT_MESSAGE(message_id=7101*)
    → "Your next task is to craft for me $2. Finding the required materials may prove a challenge in itself. You'll be needing..."
219: 0x04AD [0x23] WAIT_FOR_DIALOG_INTERACTION
220: 0x04AE [0x1A] CALL_SUBROUTINE(address=0x08B1)
221: 0x04B1 [0x03] ExtData[1]->WorkLocal[4] = 130*
222: 0x04B6 [0x03] ExtData[1]->WorkLocal[5] = 12*
223: 0x04BB [0x03] ExtData[1]->WorkLocal[6] = 13*
224: 0x04C0 [0x1A] CALL_SUBROUTINE(address=0x056A)
225: 0x04C3 [0x01] GOTO 0x04C6

SUBROUTINE_04C6:
226: 0x04C6 [0x1A] CALL_SUBROUTINE(address=0x089F)
227: 0x04C9 [0x1D] PRINT_EVENT_MESSAGE(message_id=7102*)
    → "And don't forget to carve your name into your work. Think of it as applying the final coat of varnish to give your piece that special sheen!"
228: 0x04CC [0x23] WAIT_FOR_DIALOG_INTERACTION
229: 0x04CD [0x1A] CALL_SUBROUTINE(address=0x08B1)
230: 0x04D0 [0x03] Work_Zone[1] = 4*
231: 0x04D5 [0x2E] SET_CLI_EVENT_CANCEL_FLAGS()
232: 0x04D6 [0x01] GOTO 0x04EE
233: 0x04D9 [0x02] IF !(Work_Zone[0] == 1*) GOTO 0x04EE
234: 0x04E1 [0x1A] CALL_SUBROUTINE(address=0x089F)
235: 0x04E4 [0x1D] PRINT_EVENT_MESSAGE(message_id=7098*)
    → "And so the carpenter's hammer proves too weighty for yet another. Fear not, I shall be waiting here should you decide to heft it once more."
236: 0x04E7 [0x23] WAIT_FOR_DIALOG_INTERACTION
237: 0x04E8 [0x1A] CALL_SUBROUTINE(address=0x08B1)
238: 0x04EB [0x01] GOTO 0x04EE

SUBROUTINE_04EE:
239: 0x04EE [0x01] GOTO 0x04F1

SUBROUTINE_04F1:
240: 0x04F1 [0x01] GOTO 0x0502
241: 0x04F4 [0x1A] CALL_SUBROUTINE(address=0x089F)
242: 0x04F7 [0x1D] PRINT_EVENT_MESSAGE(message_id=7052*)
    → "From the looks of you, it seems that you're ready for the next step. Make me $0."
243: 0x04FA [0x23] WAIT_FOR_DIALOG_INTERACTION
244: 0x04FB [0x1D] PRINT_EVENT_MESSAGE(message_id=7053*)
    → "If you pass my test, I'll teach you some new techniques."
245: 0x04FE [0x23] WAIT_FOR_DIALOG_INTERACTION
246: 0x04FF [0x1A] CALL_SUBROUTINE(address=0x08B1)

SUBROUTINE_0502:
247: 0x0502 [0x01] GOTO 0x050F
248: 0x0505 [0x1A] CALL_SUBROUTINE(address=0x089F)
249: 0x0508 [0x1D] PRINT_EVENT_MESSAGE(message_id=7051*)
    → "Wood is the body and soul of a tree. Listen to what the soul has to say and let those words live on in your works. Only then will you become a true carpenter."
250: 0x050B [0x23] WAIT_FOR_DIALOG_INTERACTION
251: 0x050C [0x1A] CALL_SUBROUTINE(address=0x08B1)

SUBROUTINE_050F:
252: 0x050F [0x01] GOTO 0x0568
253: 0x0512 [0x03] Work_Zone[8] = 1*
254: 0x0517 [0x1D] PRINT_EVENT_MESSAGE(message_id=7043*)
    → "Now, what business would an adventurer have in the Carpenters' Guild? This is a union for woodworkers, masons, and the like."
255: 0x051A [0x23] WAIT_FOR_DIALOG_INTERACTION
256: 0x051B [0x24] CREATE_DIALOG(message_id=6987*, default_option=0*, option_flags=0*)
    → "Join the [Fishermen's/Carpenters'/Blacksmiths'/Goldsmiths'/Weavers'/Tanners'/Boneworkers'/Alchemists'/Culinarians'] Guild? [Sign up./That's not why you're here.]"
257: 0x0522 [0x25] WAIT_DIALOG_SELECT()
258: 0x0523 [0x02] IF !(Work_Zone[0] == 0*) GOTO 0x0553
259: 0x052B [0x1A] CALL_SUBROUTINE(address=0x08B7)
260: 0x052E [0x1D] PRINT_EVENT_MESSAGE(message_id=7045*)
    → "Well, you look like a strong one. And who knows? Maybe you'll catch on quick. Just to play it safe, we'll start you off with crystal synthesis."
261: 0x0531 [0x23] WAIT_FOR_DIALOG_INTERACTION
262: 0x0532 [0x1D] PRINT_EVENT_MESSAGE(message_id=7046*)
    → "You're probably in a hurry to go off and beat some beastmen, so I'll cut the small talk. That shiny rock I just gave you--that's a crystal. I'm sure an adventurer like you has seen one before."
263: 0x0535 [0x23] WAIT_FOR_DIALOG_INTERACTION
264: 0x0536 [0x1A] CALL_SUBROUTINE(address=0x08C9)
265: 0x0539 [0x1A] CALL_SUBROUTINE(address=0x089F)
266: 0x053C [0x1D] PRINT_EVENT_MESSAGE(message_id=7047*)
    → "Extract the energy out of one of these and you can cut, plane, join...well, let's just say, do almost anything with wood."
267: 0x053F [0x23] WAIT_FOR_DIALOG_INTERACTION
268: 0x0540 [0x1D] PRINT_EVENT_MESSAGE(message_id=7048*)
    → "I'm no scientist, so don't go asking me the details. As long as it works, we'll keep using 'em...but only on rush jobs. A good old hammer and some nails--that's where true carpentry starts."
269: 0x0543 [0x23] WAIT_FOR_DIALOG_INTERACTION
270: 0x0544 [0x1A] CALL_SUBROUTINE(address=0x08B1)
271: 0x0547 [0x1D] PRINT_EVENT_MESSAGE(message_id=7049*)
    → "If you need any help starting out, ask the workers inside the guild. I evaluate my students on their abilities, and nothing else. You work hard, you'll move up in this trade."
272: 0x054A [0x23] WAIT_FOR_DIALOG_INTERACTION
273: 0x054B [0x03] Work_Zone[1] = 1*
274: 0x0550 [0x01] GOTO 0x0568
275: 0x0553 [0x02] IF !(Work_Zone[0] == 1*) GOTO 0x0568
276: 0x055B [0x1A] CALL_SUBROUTINE(address=0x089F)
277: 0x055E [0x1D] PRINT_EVENT_MESSAGE(message_id=7044*)
    → "Then I'm going to have to ask you to leave. We pride ourselves in "safety first" here, and we don't want any visitors getting hurt, now."
278: 0x0561 [0x23] WAIT_FOR_DIALOG_INTERACTION
279: 0x0562 [0x1A] CALL_SUBROUTINE(address=0x08B1)
280: 0x0565 [0x01] GOTO 0x0568

SUBROUTINE_0568:
281: 0x0568 [0x21] END_EVENT
282: 0x0569 [0x00] END_REQSTACK()

SUBROUTINE_056A:
283: 0x056A [0x8C] CRAFTING_HANDLER(mode=0x02) // Set recipe data
284: 0x0576 [0x8C] CRAFTING_HANDLER(mode=0x01) // End crafting session
285: 0x0578 [0x02] IF !(ExtData[1]->WorkLocal[6] == Work_Zone[2]) GOTO 0x058B
286: 0x0580 [0x03] ExtData[1]->WorkLocal[6] = 0*
287: 0x0585 [0x01] GOTO 0x06BD

SUBROUTINE_06BD:
288: 0x06BD [0x07] ExtData[1]->WorkLocal[6] += ExtData[1]->WorkLocal[7]
289: 0x06C2 [0x8C] CRAFTING_HANDLER(mode=0x03) // Get synthesis recipe
290: 0x06CC [0x8C] CRAFTING_HANDLER(mode=0x01) // End crafting session
291: 0x06CE [0x07] Work_Zone[68] += 142*
292: 0x06D3 [0x03] Work_Zone[8] = ExtData[1]->WorkLocal[3]
293: 0x06D8 [0x03] Work_Zone[3] = Work_Zone[65]
294: 0x06DD [0x03] Work_Zone[4] = Work_Zone[66]
295: 0x06E2 [0x03] Work_Zone[5] = Work_Zone[67]
296: 0x06E7 [0x03] Work_Zone[6] = Work_Zone[68]
297: 0x06EC [0x03] Work_Zone[7] = Work_Zone[85]
298: 0x06F1 [0x02] IF !(Work_Zone[7] == 0*) GOTO 0x0700
299: 0x06F9 [0x48] [System] [6993*]:
    → "Necessary skills: [Fishing/Woodworking/Smithing/Goldsmithing/Clothcraft/Leatherworking/Bonecraft/Alchemy/Cooking][ /, Woodworking/, Smithing/, Goldsmithing/, Clothcraft/, Leatherworking/, Bonecraft/, Alchemy/, Cooking][ /, Woodworking/, Smithing/, Goldsmithing/, Clothcraft/, Leatherworking/, Bonecraft/, Alchemy/, Cooking][ /, & Woodworking/, & Smithing/, & Goldsmithing/, & Clothcraft/, & Leatherworking/, & Bonecraft/, & Alchemy/, & Cooking] Necessary crystal: $4 Necessary items:"
300: 0x06FC [0x23] WAIT_FOR_DIALOG_INTERACTION
301: 0x06FD [0x01] GOTO 0x0704
302: 0x0700 [0x48] [System] [7031*]:
    → "Necessary skills: [Fishing/Woodworking/Smithing/Goldsmithing/Clothcraft/Leatherworking/Bonecraft/Alchemy/Cooking][ /, Woodworking/, Smithing/, Goldsmithing/, Clothcraft/, Leatherworking/, Bonecraft/, Alchemy/, Cooking][ /, Woodworking/, Smithing/, Goldsmithing/, Clothcraft/, Leatherworking/, Bonecraft/, Alchemy/, Cooking][ /, & Woodworking/, & Smithing/, & Goldsmithing/, & Clothcraft/, & Leatherworking/, & Bonecraft/, & Alchemy/, & Cooking] Necessary crystal: $4 Necessary key item: $3 Necessary items:"
303: 0x0703 [0x23] WAIT_FOR_DIALOG_INTERACTION

SUBROUTINE_0704:
304: 0x0704 [0x03] Work_Zone[2] = Work_Zone[69]
305: 0x0709 [0x03] Work_Zone[3] = Work_Zone[70]
306: 0x070E [0x03] Work_Zone[4] = Work_Zone[71]
307: 0x0713 [0x03] Work_Zone[5] = Work_Zone[72]
308: 0x0718 [0x03] Work_Zone[6] = Work_Zone[77]
309: 0x071D [0x03] Work_Zone[7] = Work_Zone[78]
310: 0x0722 [0x03] Work_Zone[8] = Work_Zone[79]
311: 0x0727 [0x03] Work_Zone[9] = Work_Zone[80]
312: 0x072C [0x02] IF !(Work_Zone[7] == 0*) GOTO 0x073B
313: 0x0734 [0x48] [System] [6997*]:
    → "$4 x $0"
314: 0x0737 [0x23] WAIT_FOR_DIALOG_INTERACTION
315: 0x0738 [0x01] GOTO 0x07C1
316: 0x073B [0x02] IF !(Work_Zone[8] == 0*) GOTO 0x074A
317: 0x0743 [0x48] [System] [6996*]:
    → "$4 x $0 $5 x $0$0"
318: 0x0746 [0x23] WAIT_FOR_DIALOG_INTERACTION
319: 0x0747 [0x01] GOTO 0x07C1
320: 0x074A [0x02] IF !(Work_Zone[9] == 0*) GOTO 0x0759
321: 0x0752 [0x48] [System] [6995*]:
    → "$4 x $0 $5 x $0$0 $6 x $0"
322: 0x0755 [0x23] WAIT_FOR_DIALOG_INTERACTION
323: 0x0756 [0x01] GOTO 0x07C1
324: 0x0759 [0x48] [System] [6994*]:
    → "$4 x $0 $5 x $0$0 $6 x $0 $7 x $0$3"
325: 0x075C [0x23] WAIT_FOR_DIALOG_INTERACTION
326: 0x075D [0x03] Work_Zone[2] = Work_Zone[73]
327: 0x0762 [0x03] Work_Zone[3] = Work_Zone[74]
328: 0x0767 [0x03] Work_Zone[4] = Work_Zone[75]
329: 0x076C [0x03] Work_Zone[5] = Work_Zone[76]
330: 0x0771 [0x03] Work_Zone[6] = Work_Zone[81]
331: 0x0776 [0x03] Work_Zone[7] = Work_Zone[82]
332: 0x077B [0x03] Work_Zone[8] = Work_Zone[83]
333: 0x0780 [0x03] Work_Zone[9] = Work_Zone[84]
334: 0x0785 [0x02] IF !(Work_Zone[6] == 0*) GOTO 0x0790
335: 0x078D [0x01] GOTO 0x07C1
336: 0x0790 [0x02] IF !(Work_Zone[7] == 0*) GOTO 0x079F
337: 0x0798 [0x48] [System] [6997*]:
    → "$4 x $0"
338: 0x079B [0x23] WAIT_FOR_DIALOG_INTERACTION
339: 0x079C [0x01] GOTO 0x07C1
340: 0x079F [0x02] IF !(Work_Zone[8] == 0*) GOTO 0x07AE
341: 0x07A7 [0x48] [System] [6996*]:
    → "$4 x $0 $5 x $0$0"
342: 0x07AA [0x23] WAIT_FOR_DIALOG_INTERACTION
343: 0x07AB [0x01] GOTO 0x07C1
344: 0x07AE [0x02] IF !(Work_Zone[9] == 0*) GOTO 0x07BD
345: 0x07B6 [0x48] [System] [6995*]:
    → "$4 x $0 $5 x $0$0 $6 x $0"
346: 0x07B9 [0x23] WAIT_FOR_DIALOG_INTERACTION
347: 0x07BA [0x01] GOTO 0x07C1
348: 0x07BD [0x48] [System] [6994*]:
    → "$4 x $0 $5 x $0$0 $6 x $0 $7 x $0$3"
349: 0x07C0 [0x23] WAIT_FOR_DIALOG_INTERACTION

SUBROUTINE_07C1:
350: 0x07C1 [0x1B] RETURN
```

#### Data or dead code:

```
# Dead code (unreachable instructions):
     0x008A [0x01] GOTO 0x01BC
# Dead code (unreachable instructions):
     0x01D2 [0x01] GOTO 0x01EE
# Dead code (unreachable instructions):
     0x0588 [0x01] GOTO 0x06BD
     0x059B [0x01] GOTO 0x06BD
     0x05AE [0x01] GOTO 0x06BD
     0x05C1 [0x01] GOTO 0x06BD
     0x05D4 [0x01] GOTO 0x06BD
     0x05E7 [0x01] GOTO 0x06BD
     0x05FA [0x01] GOTO 0x06BD
     0x060D [0x01] GOTO 0x06BD
     0x0620 [0x01] GOTO 0x06BD
     0x0633 [0x01] GOTO 0x06BD
     0x0646 [0x01] GOTO 0x06BD
     0x0659 [0x01] GOTO 0x06BD
     0x066C [0x01] GOTO 0x06BD
     0x067F [0x01] GOTO 0x06BD
     0x0692 [0x01] GOTO 0x06BD
     0x06A5 [0x01] GOTO 0x06BD
```

### Event 622

#### Metadata

| Field        | Value     |
|--------------|-----------|
| Entrypoint   | 0x07C2    |
| Data Size    | 277 bytes |
| Instructions | 64        |

```
      00 01 02 03 04 05 06 07  08 09 0A 0B 0C 0D 0E 0F
      -- -- -- -- -- -- -- --  -- -- -- -- -- -- -- --
07C0:       20 01 42 1E F0 FF  FF 7F 1A 9F 08 02 06 10     .B...........
07D0: 03 80 03 DA 07 03 06 10  03 80 03 09 10 06 10 02  ................
07E0: 09 10 13 80 05 EE 07 1D  4C 80 23 01 81 08 02 09  ........L.#.....
07F0: 10 15 80 80 FD 07 1D 4D  80 23 01 81 08 02 09 10  .......M.#......
0800: 17 80 80 0C 08 1D 4E 80  23 01 81 08 02 09 10 19  ......N.#.......
0810: 80 80 27 08 1D 4F 80 23  02 05 10 03 80 00 24 08  ..'..O.#......$.
0820: 1D 50 80 23 01 81 08 02  09 10 1B 80 80 42 08 1D  .P.#.........B..
0830: 51 80 23 02 05 10 02 80  00 3F 08 1D 50 80 23 01  Q.#......?..P.#.
0840: 81 08 02 09 10 00 80 80  5D 08 1D 52 80 23 02 05  ........]..R.#..
0850: 10 05 80 00 5A 08 1D 50  80 23 01 81 08 02 09 10  ....Z..P.#......
0860: 01 80 80 81 08 02 07 10  02 80 00 74 08 1D 53 80  ...........t..S.
0870: 23 01 7E 08 1D 54 80 23  1D 55 80 23 21 00 01 81  #.~..T.#.U.#!...
0880: 08 1A B1 08 03 08 10 02  80 45 56 80 F0 FF FF 7F  .........EV.....
0890: F0 FF FF 7F 71 73 74 63  03 80 48 57 80 21 00 6F  ....qstc..HW.!.o
08A0: 70 66 06 80 F8 FF FF 7F  F8 FF FF 7F 74 6C 6B 30  pf..........tlk0
08B0: 1B 5E 69 64 6C 30 1B 6F  70 66 06 80 F8 FF FF 7F  .^idl0.opf......
08C0: F8 FF FF 7F 70 61 73 30  1B 53 F8 FF FF 7F F8 FF  ....pas0.S......
08D0: FF 7F 70 61 73 30 1B                              ..pas0.         
```

#### Opcodes

```
  0: 0x07C2 [0x20] SET_CLI_EVENT_UC_FLAG: Lock player control
  1: 0x07C4 [0x42] SET_CLI_EVENT_CANCEL_DATA()
  2: 0x07C5 [0x1E] EventEntity looks at LocalPlayer and starts talking
  3: 0x07CA [0x1A] CALL_SUBROUTINE(address=0x089F)
  4: 0x07CD [0x02] IF !(Work_Zone[6] >= 0*) GOTO 0x07DA
  5: 0x07D5 [0x03] Work_Zone[6] = 0*
  6: 0x07DA [0x03] Work_Zone[9] = Work_Zone[6]
  7: 0x07DF [0x02] IF !(Work_Zone[9] > 4*) GOTO 0x07EE
  8: 0x07E7 [0x1D] PRINT_EVENT_MESSAGE(message_id=7054*)
    → "... Fairly nice work. I give you the title of [amateur/recruit/initiate/novice/apprentice]. Work hard and never forget to be a good example to the younger students."
  9: 0x07EA [0x23] WAIT_FOR_DIALOG_INTERACTION
 10: 0x07EB [0x01] GOTO 0x0881
 11: 0x07EE [0x02] IF !(Work_Zone[9] == 5*) GOTO 0x07FD
 12: 0x07F6 [0x1D] PRINT_EVENT_MESSAGE(message_id=7055*)
    → "... I see that your skills become more refined with each day. I present you with the title of journeyman. You make an excellent example for the other students."
 13: 0x07F9 [0x23] WAIT_FOR_DIALOG_INTERACTION
 14: 0x07FA [0x01] GOTO 0x0881
 15: 0x07FD [0x02] IF !(Work_Zone[9] == 6*) GOTO 0x080C
 16: 0x0805 [0x1D] PRINT_EVENT_MESSAGE(message_id=7081*)
    → "Excellent work! I knew that you could do it! I hereby grant you the title of craftsman. You are ready to accept the responsibility that comes with that name."
 17: 0x0808 [0x23] WAIT_FOR_DIALOG_INTERACTION
 18: 0x0809 [0x01] GOTO 0x0881
 19: 0x080C [0x02] IF !(Work_Zone[9] == 7*) GOTO 0x0827
 20: 0x0814 [0x1D] PRINT_EVENT_MESSAGE(message_id=7056*)
    → "... Remarkable! Your work is nearly flawless! Starting today, consider yourself an artisan. There isn't a member of this guild who doesn't know of your work."
 21: 0x0817 [0x23] WAIT_FOR_DIALOG_INTERACTION
 22: 0x0818 [0x02] IF !(Work_Zone[5] == 0*) GOTO 0x0824
 23: 0x0820 [0x1D] PRINT_EVENT_MESSAGE(message_id=7111*)
    → "Mind you, becoming [an artisan/an adept/a veteran] in any guild requires a high level of skill and concentration. You would do well to remember that there is only so much knowledge we can fit in our heads."
 24: 0x0823 [0x23] WAIT_FOR_DIALOG_INTERACTION
 25: 0x0824 [0x01] GOTO 0x0881
 26: 0x0827 [0x02] IF !(Work_Zone[9] == 8*) GOTO 0x0842
 27: 0x082F [0x1D] PRINT_EVENT_MESSAGE(message_id=7057*)
    → "Unbelievable. I've never seen such a...such a work of art! You are the pride of the Carpenters' Guild and worthy of the title of adept."
 28: 0x0832 [0x23] WAIT_FOR_DIALOG_INTERACTION
 29: 0x0833 [0x02] IF !(Work_Zone[5] == 1*) GOTO 0x083F
 30: 0x083B [0x1D] PRINT_EVENT_MESSAGE(message_id=7111*)
    → "Mind you, becoming [an artisan/an adept/a veteran] in any guild requires a high level of skill and concentration. You would do well to remember that there is only so much knowledge we can fit in our heads."
 31: 0x083E [0x23] WAIT_FOR_DIALOG_INTERACTION
 32: 0x083F [0x01] GOTO 0x0881
 33: 0x0842 [0x02] IF !(Work_Zone[9] == 9*) GOTO 0x085D
 34: 0x084A [0x1D] PRINT_EVENT_MESSAGE(message_id=7058*)
    → "It's as if Altana made this herself. It's nothing less than a blessing from heaven. I am proud to work alongside a veteran of your caliber."
 35: 0x084D [0x23] WAIT_FOR_DIALOG_INTERACTION
 36: 0x084E [0x02] IF !(Work_Zone[5] == 2*) GOTO 0x085A
 37: 0x0856 [0x1D] PRINT_EVENT_MESSAGE(message_id=7111*)
    → "Mind you, becoming [an artisan/an adept/a veteran] in any guild requires a high level of skill and concentration. You would do well to remember that there is only so much knowledge we can fit in our heads."
 38: 0x0859 [0x23] WAIT_FOR_DIALOG_INTERACTION
 39: 0x085A [0x01] GOTO 0x0881
 40: 0x085D [0x02] IF !(Work_Zone[9] == 10*) GOTO 0x0881
 41: 0x0865 [0x02] IF !(Work_Zone[7] == 1*) GOTO 0x0874
 42: 0x086D [0x1D] PRINT_EVENT_MESSAGE(message_id=7104*)
    → "......... This doesn't happen often, <Player>, but your peerless craftsmanship has left me at a loss for words. Let it suffice to say that you have earned the title of expert, and then some."
 43: 0x0870 [0x23] WAIT_FOR_DIALOG_INTERACTION
 44: 0x0871 [0x01] GOTO 0x087E
 45: 0x0874 [0x1D] PRINT_EVENT_MESSAGE(message_id=7105*)
    → "While I cannot fault the craftsmanship, neither can I credit you for a work that doesn't bear your signature."
 46: 0x0877 [0x23] WAIT_FOR_DIALOG_INTERACTION
 47: 0x0878 [0x1D] PRINT_EVENT_MESSAGE(message_id=7106*)
    → "Rules are rules, and I cannot--I will not--make exceptions even for one of your talents."
 48: 0x087B [0x23] WAIT_FOR_DIALOG_INTERACTION
 49: 0x087C [0x21] END_EVENT
 50: 0x087D [0x00] END_REQSTACK()

SUBROUTINE_087E:
 51: 0x087E [0x01] GOTO 0x0881

SUBROUTINE_0881:
 52: 0x0881 [0x1A] CALL_SUBROUTINE(address=0x08B1)
 53: 0x0884 [0x03] Work_Zone[8] = 1*
 54: 0x0889 [0x45] LOAD_SCHEDULED_TASK: Load scheduler "qstc" with entities [LocalPlayer, LocalPlayer], work=[201*, 0*]
 55: 0x089A [0x48] [System] [6990*]:
    → "You are now recognized as [an amateur/a recruit/an initiate/a novice/an apprentice/a journeyman/a craftsman/an artisan/an adept/a veteran/an expert/an authority/a luminary/a master/a grandmaster/a legend] of the [Fishermen's/Carpenters'/Blacksmiths'/Goldsmiths'/Weavers'/Tanners'/Boneworkers'/Alchemists'/Culinarians'] Guild."
 56: 0x089D [0x21] END_EVENT
 57: 0x089E [0x00] END_REQSTACK()

SUBROUTINE_089F:
 58: 0x089F [0x6F] WAIT_FRAME_DELAY: Yield until WaitTime reaches zero
 59: 0x08A0 [0x70] WAIT_ENTITY_RENDER_FLAG: Wait while EventEntity->Render.Flags3 bit 2 is set (cancel turn if not)
 60: 0x08A1 [0x66] LOAD_EXT_SCHEDULER_MAIN: Load scheduler "tlk0" with entities [EventEntity, EventEntity], work=20*
 61: 0x08B0 [0x1B] RETURN

SUBROUTINE_08B1:
 62: 0x08B1 [0x5E] EventEntity goes idle (kills current action) (animation: "idl0")
 63: 0x08B6 [0x1B] RETURN
```

#### Data or dead code:

```
# Dead code (unreachable instructions):
     0x08B7 [0x6F] WAIT_FRAME_DELAY: Yield until WaitTime reaches zero
     0x08B8 [0x70] WAIT_ENTITY_RENDER_FLAG: Wait while EventEntity->Render.Flags3 bit 2 is set (cancel turn if not)
     0x08B9 [0x66] LOAD_EXT_SCHEDULER_MAIN: Load scheduler "pas0" with entities [EventEntity, EventEntity], work=20*
     0x08C8 [0x1B] RETURN
     0x08C9 [0x53] WAIT_SCHEDULER_TASK: Wait for scheduler "pas0" with entities [EventEntity, EventEntity]
     0x08D6 [0x1B] RETURN
```

### Event 759

#### Metadata

| Field        | Value   |
|--------------|---------|
| Entrypoint   | 0x08D7  |
| Data Size    | 1 bytes |
| Instructions | 1       |

```
      00 01 02 03 04 05 06 07  08 09 0A 0B 0C 0D 0E 0F
      -- -- -- -- -- -- -- --  -- -- -- -- -- -- -- --
08D0:                      00                                  .        
```

#### Opcodes

```
  0: 0x08D7 [0x00] END_REQSTACK()
```

### Event 920

#### Metadata

| Field        | Value     |
|--------------|-----------|
| Entrypoint   | 0x08D8    |
| Data Size    | 131 bytes |
| Instructions | 24        |

```
      00 01 02 03 04 05 06 07  08 09 0A 0B 0C 0D 0E 0F
      -- -- -- -- -- -- -- --  -- -- -- -- -- -- -- --
08D0:                          03 0E 00 07 10 03 1A 00          ........
08E0: 08 10 02 0E 00 02 80 80  59 09 03 11 00 02 10 03  ........Y.......
08F0: 13 00 03 10 03 14 00 04  10 03 15 00 05 10 03 12  ................
0900: 00 06 10 42 4A F8 FF FF  7F F0 FF FF 7F 6F 70 66  ...BJ........opf
0910: 06 80 F8 FF FF 7F F8 FF  FF 7F 74 6C 6B 30 1D 58  ..........tlk0.X
0920: 80 23 66 06 80 F8 FF FF  7F F8 FF FF 7F 74 6C 6B  .#f..........tlk
0930: 31 1A 01 16 66 06 80 F8  FF FF 7F F8 FF FF 7F 74  1...f..........t
0940: 6C 6B 30 1D 59 80 23 66  06 80 F8 FF FF 7F F8 FF  lk0.Y.#f........
0950: FF 7F 74 6C 6B 31 01 59  09 21 00                 ..tlk1.Y.!.     
```

#### Opcodes

```
  0: 0x08D8 [0x03] ExtData[1]->WorkLocal[14] = Work_Zone[7]
  1: 0x08DD [0x03] ExtData[1]->WorkLocal[26] = Work_Zone[8]
  2: 0x08E2 [0x02] IF !(ExtData[1]->WorkLocal[14] == 1*) GOTO 0x0959
  3: 0x08EA [0x03] ExtData[1]->WorkLocal[17] = Work_Zone[2]
  4: 0x08EF [0x03] ExtData[1]->WorkLocal[19] = Work_Zone[3]
  5: 0x08F4 [0x03] ExtData[1]->WorkLocal[20] = Work_Zone[4]
  6: 0x08F9 [0x03] ExtData[1]->WorkLocal[21] = Work_Zone[5]
  7: 0x08FE [0x03] ExtData[1]->WorkLocal[18] = Work_Zone[6]
  8: 0x0903 [0x42] SET_CLI_EVENT_CANCEL_DATA()
  9: 0x0904 [0x4A] EventEntity looks at LocalPlayer
 10: 0x090D [0x6F] WAIT_FRAME_DELAY: Yield until WaitTime reaches zero
 11: 0x090E [0x70] WAIT_ENTITY_RENDER_FLAG: Wait while EventEntity->Render.Flags3 bit 2 is set (cancel turn if not)
 12: 0x090F [0x66] LOAD_EXT_SCHEDULER_MAIN: Load scheduler "tlk0" with entities [EventEntity, EventEntity], work=20*
 13: 0x091E [0x1D] PRINT_EVENT_MESSAGE(message_id=18968*)
    → "How is it that you managed to forget the recipe? Very well. Here is the list of ingredients again. Remember, true professionals do not need to hear things twice."
 14: 0x0921 [0x23] WAIT_FOR_DIALOG_INTERACTION
 15: 0x0922 [0x66] LOAD_EXT_SCHEDULER_MAIN: Load scheduler "tlk1" with entities [EventEntity, EventEntity], work=20*
 16: 0x0931 [0x1A] CALL_SUBROUTINE(address=0x1601)
 17: 0x0934 [0x66] LOAD_EXT_SCHEDULER_MAIN: Load scheduler "tlk0" with entities [EventEntity, EventEntity], work=20*
 18: 0x0943 [0x1D] PRINT_EVENT_MESSAGE(message_id=18969*)
    → "You are where you are due to hard work and dedication. I have faith that you can do this."
 19: 0x0946 [0x23] WAIT_FOR_DIALOG_INTERACTION
 20: 0x0947 [0x66] LOAD_EXT_SCHEDULER_MAIN: Load scheduler "tlk1" with entities [EventEntity, EventEntity], work=20*
 21: 0x0956 [0x01] GOTO 0x0959

SUBROUTINE_0959:
 22: 0x0959 [0x21] END_EVENT
 23: 0x095A [0x00] END_REQSTACK()
```

### Event 950

#### Metadata

| Field        | Value     |
|--------------|-----------|
| Entrypoint   | 0x095B    |
| Data Size    | 134 bytes |
| Instructions | 24        |

```
      00 01 02 03 04 05 06 07  08 09 0A 0B 0C 0D 0E 0F
      -- -- -- -- -- -- -- --  -- -- -- -- -- -- -- --
0950:                                   03 11 00 02 10             .....
0960: 03 13 00 03 10 03 14 00  04 10 03 15 00 05 10 03  ................
0970: 16 00 06 10 03 12 00 07  10 03 0E 00 08 10 03 1A  ................
0980: 00 09 10 42 4A F8 FF FF  7F F0 FF FF 7F 4A F0 FF  ...BJ........J..
0990: FF 7F F8 FF FF 7F 6F 70  66 06 80 F8 FF FF 7F F8  ......opf.......
09A0: FF FF 7F 74 6C 6B 30 1D  58 80 23 66 06 80 F8 FF  ...tlk0.X.#f....
09B0: FF 7F F8 FF FF 7F 74 6C  6B 31 1A 50 16 66 06 80  ......tlk1.P.f..
09C0: F8 FF FF 7F F8 FF FF 7F  74 6C 6B 30 1D 59 80 23  ........tlk0.Y.#
09D0: 66 06 80 F8 FF FF 7F F8  FF FF 7F 74 6C 6B 31 21  f..........tlk1!
09E0: 00                                                .               
```

#### Opcodes

```
  0: 0x095B [0x03] ExtData[1]->WorkLocal[17] = Work_Zone[2]
  1: 0x0960 [0x03] ExtData[1]->WorkLocal[19] = Work_Zone[3]
  2: 0x0965 [0x03] ExtData[1]->WorkLocal[20] = Work_Zone[4]
  3: 0x096A [0x03] ExtData[1]->WorkLocal[21] = Work_Zone[5]
  4: 0x096F [0x03] ExtData[1]->WorkLocal[22] = Work_Zone[6]
  5: 0x0974 [0x03] ExtData[1]->WorkLocal[18] = Work_Zone[7]
  6: 0x0979 [0x03] ExtData[1]->WorkLocal[14] = Work_Zone[8]
  7: 0x097E [0x03] ExtData[1]->WorkLocal[26] = Work_Zone[9]
  8: 0x0983 [0x42] SET_CLI_EVENT_CANCEL_DATA()
  9: 0x0984 [0x4A] EventEntity looks at LocalPlayer
 10: 0x098D [0x4A] LocalPlayer looks at EventEntity
 11: 0x0996 [0x6F] WAIT_FRAME_DELAY: Yield until WaitTime reaches zero
 12: 0x0997 [0x70] WAIT_ENTITY_RENDER_FLAG: Wait while EventEntity->Render.Flags3 bit 2 is set (cancel turn if not)
 13: 0x0998 [0x66] LOAD_EXT_SCHEDULER_MAIN: Load scheduler "tlk0" with entities [EventEntity, EventEntity], work=20*
 14: 0x09A7 [0x1D] PRINT_EVENT_MESSAGE(message_id=18968*)
    → "How is it that you managed to forget the recipe? Very well. Here is the list of ingredients again. Remember, true professionals do not need to hear things twice."
 15: 0x09AA [0x23] WAIT_FOR_DIALOG_INTERACTION
 16: 0x09AB [0x66] LOAD_EXT_SCHEDULER_MAIN: Load scheduler "tlk1" with entities [EventEntity, EventEntity], work=20*
 17: 0x09BA [0x1A] CALL_SUBROUTINE(address=0x1650)
 18: 0x09BD [0x66] LOAD_EXT_SCHEDULER_MAIN: Load scheduler "tlk0" with entities [EventEntity, EventEntity], work=20*
 19: 0x09CC [0x1D] PRINT_EVENT_MESSAGE(message_id=18969*)
    → "You are where you are due to hard work and dedication. I have faith that you can do this."
 20: 0x09CF [0x23] WAIT_FOR_DIALOG_INTERACTION
 21: 0x09D0 [0x66] LOAD_EXT_SCHEDULER_MAIN: Load scheduler "tlk1" with entities [EventEntity, EventEntity], work=20*
 22: 0x09DF [0x21] END_EVENT
 23: 0x09E0 [0x00] END_REQSTACK()
```

### Event 921

#### Metadata

| Field        | Value     |
|--------------|-----------|
| Entrypoint   | 0x09E1    |
| Data Size    | 118 bytes |
| Instructions | 27        |

```
      00 01 02 03 04 05 06 07  08 09 0A 0B 0C 0D 0E 0F
      -- -- -- -- -- -- -- --  -- -- -- -- -- -- -- --
09E0:    03 0E 00 02 10 02 0E  00 02 80 80 0B 0A 4A F8   .............J.
09F0: FF FF 7F F0 FF FF 7F 4A  F0 FF FF 7F F8 FF FF 7F  .......J........
0A00: 1D 5A 80 23 1D 5B 80 23  01 55 0A 02 0E 00 05 80  .Z.#.[.#.U......
0A10: 80 30 0A 4A F8 FF FF 7F  F0 FF FF 7F 4A F0 FF FF  .0.J........J...
0A20: 7F F8 FF FF 7F 1D 5A 80  23 1D 5B 80 23 01 55 0A  ......Z.#.[.#.U.
0A30: 02 0E 00 11 80 80 55 0A  4A F8 FF FF 7F F0 FF FF  ......U.J.......
0A40: 7F 4A F0 FF FF 7F F8 FF  FF 7F 1D 5A 80 23 1D 5B  .J.........Z.#.[
0A50: 80 23 01 55 0A 21 00                              .#.U.!.         
```

#### Opcodes

```
  0: 0x09E1 [0x03] ExtData[1]->WorkLocal[14] = Work_Zone[2]
  1: 0x09E6 [0x02] IF !(ExtData[1]->WorkLocal[14] == 1*) GOTO 0x0A0B
  2: 0x09EE [0x4A] EventEntity looks at LocalPlayer
  3: 0x09F7 [0x4A] LocalPlayer looks at EventEntity
  4: 0x0A00 [0x1D] PRINT_EVENT_MESSAGE(message_id=18984*)
    → "Please take the shield to Mewk Chorosap in Jeuno for me."
  5: 0x0A03 [0x23] WAIT_FOR_DIALOG_INTERACTION
  6: 0x0A04 [0x1D] PRINT_EVENT_MESSAGE(message_id=18985*)
    → "Oh, I also have regular deliveries for Luren. It would be quite helpful for training the newer members of the guild if you could help me with them."
  7: 0x0A07 [0x23] WAIT_FOR_DIALOG_INTERACTION
  8: 0x0A08 [0x01] GOTO 0x0A55
  9: 0x0A0B [0x02] IF !(ExtData[1]->WorkLocal[14] == 2*) GOTO 0x0A30
 10: 0x0A13 [0x4A] EventEntity looks at LocalPlayer
 11: 0x0A1C [0x4A] LocalPlayer looks at EventEntity
 12: 0x0A25 [0x1D] PRINT_EVENT_MESSAGE(message_id=18984*)
    → "Please take the shield to Mewk Chorosap in Jeuno for me."
 13: 0x0A28 [0x23] WAIT_FOR_DIALOG_INTERACTION
 14: 0x0A29 [0x1D] PRINT_EVENT_MESSAGE(message_id=18985*)
    → "Oh, I also have regular deliveries for Luren. It would be quite helpful for training the newer members of the guild if you could help me with them."
 15: 0x0A2C [0x23] WAIT_FOR_DIALOG_INTERACTION
 16: 0x0A2D [0x01] GOTO 0x0A55
 17: 0x0A30 [0x02] IF !(ExtData[1]->WorkLocal[14] == 3*) GOTO 0x0A55
 18: 0x0A38 [0x4A] EventEntity looks at LocalPlayer
 19: 0x0A41 [0x4A] LocalPlayer looks at EventEntity
 20: 0x0A4A [0x1D] PRINT_EVENT_MESSAGE(message_id=18984*)
    → "Please take the shield to Mewk Chorosap in Jeuno for me."
 21: 0x0A4D [0x23] WAIT_FOR_DIALOG_INTERACTION
 22: 0x0A4E [0x1D] PRINT_EVENT_MESSAGE(message_id=18985*)
    → "Oh, I also have regular deliveries for Luren. It would be quite helpful for training the newer members of the guild if you could help me with them."
 23: 0x0A51 [0x23] WAIT_FOR_DIALOG_INTERACTION
 24: 0x0A52 [0x01] GOTO 0x0A55

SUBROUTINE_0A55:
 25: 0x0A55 [0x21] END_EVENT
 26: 0x0A56 [0x00] END_REQSTACK()
```

### Event 922

#### Metadata

| Field        | Value     |
|--------------|-----------|
| Entrypoint   | 0x0A57    |
| Data Size    | 259 bytes |
| Instructions | 62        |

```
      00 01 02 03 04 05 06 07  08 09 0A 0B 0C 0D 0E 0F
      -- -- -- -- -- -- -- --  -- -- -- -- -- -- -- --
0A50:                      03  11 00 02 10 03 13 00 03         .........
0A60: 10 03 14 00 04 10 03 15  00 05 10 03 12 00 06 10  ................
0A70: 03 0E 00 07 10 03 1A 00  08 10 02 0E 00 02 80 80  ................
0A80: 58 0B 42 4A F8 FF FF 7F  F0 FF FF 7F 6F 70 1D 5C  X.BJ........op.\
0A90: 80 23 66 06 80 F8 FF FF  7F F8 FF FF 7F 74 68 6B  .#f..........thk
0AA0: 31 1D 5D 80 23 66 06 80  F8 FF FF 7F F8 FF FF 7F  1.].#f..........
0AB0: 74 68 6B 32 1D 5E 80 23  66 06 80 F8 FF FF 7F F8  thk2.^.#f.......
0AC0: FF FF 7F 74 6C 6B 30 1D  5F 80 23 1D 60 80 23 1D  ...tlk0._.#.`.#.
0AD0: 61 80 23 66 06 80 F8 FF  FF 7F F8 FF FF 7F 74 6C  a.#f..........tl
0AE0: 6B 31 1A 01 16 66 06 80  F8 FF FF 7F F8 FF FF 7F  k1...f..........
0AF0: 74 6C 6B 30 1D 62 80 23  1D 63 80 23 1D 64 80 23  tlk0.b.#.c.#.d.#
0B00: 66 06 80 F8 FF FF 7F F8  FF FF 7F 74 6C 6B 31 48  f..........tlk1H
0B10: 65 80 23 48 66 80 23 48  67 80 23 48 68 80 23 66  e.#Hf.#Hg.#Hh.#f
0B20: 06 80 F8 FF FF 7F F8 FF  FF 7F 74 6C 6B 30 1D 69  ..........tlk0.i
0B30: 80 23 1D 6A 80 23 1D 6B  80 23 1D 6C 80 23 1D 6D  .#.j.#.k.#.l.#.m
0B40: 80 23 1D 6E 80 23 66 06  80 F8 FF FF 7F F8 FF FF  .#.n.#f.........
0B50: 7F 74 6C 6B 31 01 58 0B  21 00                    .tlk1.X.!.      
```

#### Opcodes

```
  0: 0x0A57 [0x03] ExtData[1]->WorkLocal[17] = Work_Zone[2]
  1: 0x0A5C [0x03] ExtData[1]->WorkLocal[19] = Work_Zone[3]
  2: 0x0A61 [0x03] ExtData[1]->WorkLocal[20] = Work_Zone[4]
  3: 0x0A66 [0x03] ExtData[1]->WorkLocal[21] = Work_Zone[5]
  4: 0x0A6B [0x03] ExtData[1]->WorkLocal[18] = Work_Zone[6]
  5: 0x0A70 [0x03] ExtData[1]->WorkLocal[14] = Work_Zone[7]
  6: 0x0A75 [0x03] ExtData[1]->WorkLocal[26] = Work_Zone[8]
  7: 0x0A7A [0x02] IF !(ExtData[1]->WorkLocal[14] == 1*) GOTO 0x0B58
  8: 0x0A82 [0x42] SET_CLI_EVENT_CANCEL_DATA()
  9: 0x0A83 [0x4A] EventEntity looks at LocalPlayer
 10: 0x0A8C [0x6F] WAIT_FRAME_DELAY: Yield until WaitTime reaches zero
 11: 0x0A8D [0x70] WAIT_ENTITY_RENDER_FLAG: Wait while EventEntity->Render.Flags3 bit 2 is set (cancel turn if not)
 12: 0x0A8E [0x1D] PRINT_EVENT_MESSAGE(message_id=18949*)
    → "Oh, hello again. If you don't mind me asking, what is that shield you're carrying?"
 13: 0x0A91 [0x23] WAIT_FOR_DIALOG_INTERACTION
 14: 0x0A92 [0x66] LOAD_EXT_SCHEDULER_MAIN: Load scheduler "thk1" with entities [EventEntity, EventEntity], work=20*
 15: 0x0AA1 [0x1D] PRINT_EVENT_MESSAGE(message_id=18950*)
    → "Hmm... I can see that you've spoken with her already."
 16: 0x0AA4 [0x23] WAIT_FOR_DIALOG_INTERACTION
 17: 0x0AA5 [0x66] LOAD_EXT_SCHEDULER_MAIN: Load scheduler "thk2" with entities [EventEntity, EventEntity], work=20*
 18: 0x0AB4 [0x1D] PRINT_EVENT_MESSAGE(message_id=18951*)
    → "Yes, I heard her tale about the shield that can enhance one's crafting ability. I'm not sure if I believe it or not, though..."
 19: 0x0AB7 [0x23] WAIT_FOR_DIALOG_INTERACTION
 20: 0x0AB8 [0x66] LOAD_EXT_SCHEDULER_MAIN: Load scheduler "tlk0" with entities [EventEntity, EventEntity], work=20*
 21: 0x0AC7 [0x1D] PRINT_EVENT_MESSAGE(message_id=18952*)
    → "Although, if it's true, that would definitely make it a shield worth having."
 22: 0x0ACA [0x23] WAIT_FOR_DIALOG_INTERACTION
 23: 0x0ACB [0x1D] PRINT_EVENT_MESSAGE(message_id=18953*)
    → "I know what you're capable of in our field, and if she picked you for this task, it must mean you've got what it takes to make this shield."
 24: 0x0ACE [0x23] WAIT_FOR_DIALOG_INTERACTION
 25: 0x0ACF [0x1D] PRINT_EVENT_MESSAGE(message_id=18954*)
    → "First things first. Let's teach you the necessary recipe. I recommend that you commit it to memory."
 26: 0x0AD2 [0x23] WAIT_FOR_DIALOG_INTERACTION
 27: 0x0AD3 [0x66] LOAD_EXT_SCHEDULER_MAIN: Load scheduler "tlk1" with entities [EventEntity, EventEntity], work=20*
 28: 0x0AE2 [0x1A] CALL_SUBROUTINE(address=0x1601)
 29: 0x0AE5 [0x66] LOAD_EXT_SCHEDULER_MAIN: Load scheduler "tlk0" with entities [EventEntity, EventEntity], work=20*
 30: 0x0AF4 [0x1D] PRINT_EVENT_MESSAGE(message_id=18955*)
    → "Very well then. The first ingredient you will need is $1."
 31: 0x0AF7 [0x23] WAIT_FOR_DIALOG_INTERACTION
 32: 0x0AF8 [0x1D] PRINT_EVENT_MESSAGE(message_id=18956*)
    → "Its purpose is to increase the Craftsmanship of the $0 to its maximum value."
 33: 0x0AFB [0x23] WAIT_FOR_DIALOG_INTERACTION
 34: 0x0AFC [0x1D] PRINT_EVENT_MESSAGE(message_id=18957*)
    → "I have actually received some notes on Craftsmanship that you should probably hear."
 35: 0x0AFF [0x23] WAIT_FOR_DIALOG_INTERACTION
 36: 0x0B00 [0x66] LOAD_EXT_SCHEDULER_MAIN: Load scheduler "tlk1" with entities [EventEntity, EventEntity], work=20*
 37: 0x0B0F [0x48] [System] [18958*]:
    → "You can increase Craftsmanship by crafting items that match up with your skill while you have the $0 equipped."
 38: 0x0B12 [0x23] WAIT_FOR_DIALOG_INTERACTION
 39: 0x0B13 [0x48] [System] [18959*]:
    → "Craftsmanship will increase greatly when you fulfill certain conditions, but crafting the same item over and over again will reduce your gains, so try synthesizing something different if you run into trouble."
 40: 0x0B16 [0x23] WAIT_FOR_DIALOG_INTERACTION
 41: 0x0B17 [0x48] [System] [18960*]:
    → "In its default state, the shield has the unfortunate tendency to lower the success rate of your crafting, but as its Craftsmanship rises, it mitigates that effect."
 42: 0x0B1A [0x23] WAIT_FOR_DIALOG_INTERACTION
 43: 0x0B1B [0x48] [System] [18961*]:
    → "You can tell the Craftsmanship rating as well as the crafting success rate by looking at the shield. Good luck to you. Mwahaha..."
 44: 0x0B1E [0x23] WAIT_FOR_DIALOG_INTERACTION
 45: 0x0B1F [0x66] LOAD_EXT_SCHEDULER_MAIN: Load scheduler "tlk0" with entities [EventEntity, EventEntity], work=20*
 46: 0x0B2E [0x1D] PRINT_EVENT_MESSAGE(message_id=18962*)
    → "That is all that it says."
 47: 0x0B31 [0x23] WAIT_FOR_DIALOG_INTERACTION
 48: 0x0B32 [0x1D] PRINT_EVENT_MESSAGE(message_id=18963*)
    → "Once you've raised the Craftsmanship, please bring me the shield and I will make the $1."
 49: 0x0B35 [0x23] WAIT_FOR_DIALOG_INTERACTION
 50: 0x0B36 [0x1D] PRINT_EVENT_MESSAGE(message_id=18964*)
    → "Next, you will need $2 and $3, which can be obtained from Luren."
 51: 0x0B39 [0x23] WAIT_FOR_DIALOG_INTERACTION
 52: 0x0B3A [0x1D] PRINT_EVENT_MESSAGE(message_id=18965*)
    → "You have made a delivery or two before, yes? That's essentially what you need to do here to receive these items."
 53: 0x0B3D [0x23] WAIT_FOR_DIALOG_INTERACTION
 54: 0x0B3E [0x1D] PRINT_EVENT_MESSAGE(message_id=18966*)
    → "Please speak to Luren if you require more information."
 55: 0x0B41 [0x23] WAIT_FOR_DIALOG_INTERACTION
 56: 0x0B42 [0x1D] PRINT_EVENT_MESSAGE(message_id=18967*)
    → "That does it for the ingredients. Please show me the shield once you've upgraded it. I would like to see it."
 57: 0x0B45 [0x23] WAIT_FOR_DIALOG_INTERACTION
 58: 0x0B46 [0x66] LOAD_EXT_SCHEDULER_MAIN: Load scheduler "tlk1" with entities [EventEntity, EventEntity], work=20*
 59: 0x0B55 [0x01] GOTO 0x0B58

SUBROUTINE_0B58:
 60: 0x0B58 [0x21] END_EVENT
 61: 0x0B59 [0x00] END_REQSTACK()
```

### Event 952

#### Metadata

| Field        | Value     |
|--------------|-----------|
| Entrypoint   | 0x0B5A    |
| Data Size    | 195 bytes |
| Instructions | 47        |

```
      00 01 02 03 04 05 06 07  08 09 0A 0B 0C 0D 0E 0F
      -- -- -- -- -- -- -- --  -- -- -- -- -- -- -- --
0B50:                                03 11 00 02 10 03            ......
0B60: 13 00 03 10 03 14 00 04  10 03 15 00 05 10 03 16  ................
0B70: 00 06 10 03 12 00 07 10  03 0E 00 08 10 03 1A 00  ................
0B80: 09 10 42 4A F8 FF FF 7F  F0 FF FF 7F 4A F0 FF FF  ..BJ........J...
0B90: 7F F8 FF FF 7F 6F 70 1D  6F 80 23 66 06 80 F8 FF  .....op.o.#f....
0BA0: FF 7F F8 FF FF 7F 74 6C  6B 30 1D 70 80 23 66 06  ......tlk0.p.#f.
0BB0: 80 F8 FF FF 7F F8 FF FF  7F 74 6C 6B 31 1A 50 16  .........tlk1.P.
0BC0: 03 02 10 11 00 03 03 10  13 00 03 04 10 14 00 03  ................
0BD0: 05 10 15 00 03 06 10 16  00 1D 71 80 23 66 06 80  ..........q.#f..
0BE0: F8 FF FF 7F F8 FF FF 7F  74 6C 6B 30 1D 72 80 23  ........tlk0.r.#
0BF0: 1D 73 80 23 1D 74 80 23  1D 75 80 23 1D 76 80 23  .s.#.t.#.u.#.v.#
0C00: 1D 77 80 23 1D 78 80 23  1D 79 80 23 66 06 80 F8  .w.#.x.#.y.#f...
0C10: FF FF 7F F8 FF FF 7F 74  6C 6B 31 21 00           .......tlk1!.   
```

#### Opcodes

```
  0: 0x0B5A [0x03] ExtData[1]->WorkLocal[17] = Work_Zone[2]
  1: 0x0B5F [0x03] ExtData[1]->WorkLocal[19] = Work_Zone[3]
  2: 0x0B64 [0x03] ExtData[1]->WorkLocal[20] = Work_Zone[4]
  3: 0x0B69 [0x03] ExtData[1]->WorkLocal[21] = Work_Zone[5]
  4: 0x0B6E [0x03] ExtData[1]->WorkLocal[22] = Work_Zone[6]
  5: 0x0B73 [0x03] ExtData[1]->WorkLocal[18] = Work_Zone[7]
  6: 0x0B78 [0x03] ExtData[1]->WorkLocal[14] = Work_Zone[8]
  7: 0x0B7D [0x03] ExtData[1]->WorkLocal[26] = Work_Zone[9]
  8: 0x0B82 [0x42] SET_CLI_EVENT_CANCEL_DATA()
  9: 0x0B83 [0x4A] EventEntity looks at LocalPlayer
 10: 0x0B8C [0x4A] LocalPlayer looks at EventEntity
 11: 0x0B95 [0x6F] WAIT_FRAME_DELAY: Yield until WaitTime reaches zero
 12: 0x0B96 [0x70] WAIT_ENTITY_RENDER_FLAG: Wait while EventEntity->Render.Flags3 bit 2 is set (cancel turn if not)
 13: 0x0B97 [0x1D] PRINT_EVENT_MESSAGE(message_id=18986*)
    → "Thank you for coming. I already heard about why you are here."
 14: 0x0B9A [0x23] WAIT_FOR_DIALOG_INTERACTION
 15: 0x0B9B [0x66] LOAD_EXT_SCHEDULER_MAIN: Load scheduler "tlk0" with entities [EventEntity, EventEntity], work=20*
 16: 0x0BAA [0x1D] PRINT_EVENT_MESSAGE(message_id=18987*)
    → "Let's get started then, shall we? Here is the recipe you'll need."
 17: 0x0BAD [0x23] WAIT_FOR_DIALOG_INTERACTION
 18: 0x0BAE [0x66] LOAD_EXT_SCHEDULER_MAIN: Load scheduler "tlk1" with entities [EventEntity, EventEntity], work=20*
 19: 0x0BBD [0x1A] CALL_SUBROUTINE(address=0x1650)
 20: 0x0BC0 [0x03] Work_Zone[2] = ExtData[1]->WorkLocal[17]
 21: 0x0BC5 [0x03] Work_Zone[3] = ExtData[1]->WorkLocal[19]
 22: 0x0BCA [0x03] Work_Zone[4] = ExtData[1]->WorkLocal[20]
 23: 0x0BCF [0x03] Work_Zone[5] = ExtData[1]->WorkLocal[21]
 24: 0x0BD4 [0x03] Work_Zone[6] = ExtData[1]->WorkLocal[22]
 25: 0x0BD9 [0x1D] PRINT_EVENT_MESSAGE(message_id=18988*)
    → "Do you have any questions?"
 26: 0x0BDC [0x23] WAIT_FOR_DIALOG_INTERACTION
 27: 0x0BDD [0x66] LOAD_EXT_SCHEDULER_MAIN: Load scheduler "tlk0" with entities [EventEntity, EventEntity], work=20*
 28: 0x0BEC [0x1D] PRINT_EVENT_MESSAGE(message_id=18989*)
    → "Now, allow me to explain how to obtain the ingredients, starting with the $1."
 29: 0x0BEF [0x23] WAIT_FOR_DIALOG_INTERACTION
 30: 0x0BF0 [0x1D] PRINT_EVENT_MESSAGE(message_id=18990*)
    → "Like with the aspis last time, you will need to equip the $0 while crafting in order to boost its Craftsmanship to 100%."
 31: 0x0BF3 [0x23] WAIT_FOR_DIALOG_INTERACTION
 32: 0x0BF4 [0x1D] PRINT_EVENT_MESSAGE(message_id=18991*)
    → "However, you will need to work even harder to imbue your spirit into the shield this time, so it will probably take a while before you are successful."
 33: 0x0BF7 [0x23] WAIT_FOR_DIALOG_INTERACTION
 34: 0x0BF8 [0x1D] PRINT_EVENT_MESSAGE(message_id=18992*)
    → "Once it reaches 100%, bring me the shield and I'll make the $1 for you."
 35: 0x0BFB [0x23] WAIT_FOR_DIALOG_INTERACTION
 36: 0x0BFC [0x1D] PRINT_EVENT_MESSAGE(message_id=18993*)
    → "The next ingredient is the $2. I've left it along with the $3 you used last time with Luren."
 37: 0x0BFF [0x23] WAIT_FOR_DIALOG_INTERACTION
 38: 0x0C00 [0x1D] PRINT_EVENT_MESSAGE(message_id=18994*)
    → "Lastly, the $4... I asked the A.M.A.N. to help me prepare some Records of Eminence objectives for you."
 39: 0x0C03 [0x23] WAIT_FOR_DIALOG_INTERACTION
 40: 0x0C04 [0x1D] PRINT_EVENT_MESSAGE(message_id=18995*)
    → "You will receive the $4 once you complete all of them."
 41: 0x0C07 [0x23] WAIT_FOR_DIALOG_INTERACTION
 42: 0x0C08 [0x1D] PRINT_EVENT_MESSAGE(message_id=18996*)
    → "That's it for the ingredients. You have a long and hard road ahead of you, but I have faith that you can handle it."
 43: 0x0C0B [0x23] WAIT_FOR_DIALOG_INTERACTION
 44: 0x0C0C [0x66] LOAD_EXT_SCHEDULER_MAIN: Load scheduler "tlk1" with entities [EventEntity, EventEntity], work=20*
 45: 0x0C1B [0x21] END_EVENT
 46: 0x0C1C [0x00] END_REQSTACK()
```

### Event 968

#### Metadata

| Field        | Value     |
|--------------|-----------|
| Entrypoint   | 0x0C1D    |
| Data Size    | 270 bytes |
| Instructions | 59        |

```
      00 01 02 03 04 05 06 07  08 09 0A 0B 0C 0D 0E 0F
      -- -- -- -- -- -- -- --  -- -- -- -- -- -- -- --
0C10:                                         03 11 00               ...
0C20: 02 10 03 13 00 06 10 03  14 00 07 10 03 0E 00 08  ................
0C30: 10 03 1A 00 09 10 42 4A  F8 FF FF 7F F0 FF FF 7F  ......BJ........
0C40: 4A F0 FF FF 7F F8 FF FF  7F 6F 70 66 06 80 F8 FF  J........opf....
0C50: FF 7F F8 FF FF 7F 74 6C  6B 30 1D 7A 80 23 66 06  ......tlk0.z.#f.
0C60: 80 F8 FF FF 7F F8 FF FF  7F 74 68 6B 31 1D 7B 80  .........thk1.{.
0C70: 23 03 06 10 13 00 03 07  10 14 00 1D 7C 80 23 66  #...........|.#f
0C80: 06 80 F8 FF FF 7F F8 FF  FF 7F 74 68 6B 32 53 F8  ..........thk2S.
0C90: FF FF 7F F8 FF FF 7F 74  68 6B 32 66 06 80 F8 FF  .......thk2f....
0CA0: FF 7F F8 FF FF 7F 74 6C  6B 30 1D 7D 80 23 1D 7E  ......tlk0.}.#.~
0CB0: 80 23 1D 7F 80 23 1D 80  80 23 1D 81 80 23 1D 82  .#...#...#...#..
0CC0: 80 23 1D 83 80 23 1D 84  80 23 66 06 80 F8 FF FF  .#...#...#f.....
0CD0: 7F F8 FF FF 7F 74 6C 6B  31 03 02 10 03 80 1D 85  .....tlk1.......
0CE0: 80 23 03 01 10 02 80 43  00 43 01 02 09 10 03 80  .#.....C.C......
0CF0: 03 F5 0C 21 00 03 13 00  02 10 03 14 00 03 10 03  ...!............
0D00: 1B 00 04 10 1A AD 16 66  06 80 F8 FF FF 7F F8 FF  .......f........
0D10: FF 7F 74 6C 6B 30 1D 86  80 23 66 06 80 F8 FF FF  ..tlk0...#f.....
0D20: 7F F8 FF FF 7F 74 6C 6B  31 21 00                 .....tlk1!.     
```

#### Opcodes

```
  0: 0x0C1D [0x03] ExtData[1]->WorkLocal[17] = Work_Zone[2]
  1: 0x0C22 [0x03] ExtData[1]->WorkLocal[19] = Work_Zone[6]
  2: 0x0C27 [0x03] ExtData[1]->WorkLocal[20] = Work_Zone[7]
  3: 0x0C2C [0x03] ExtData[1]->WorkLocal[14] = Work_Zone[8]
  4: 0x0C31 [0x03] ExtData[1]->WorkLocal[26] = Work_Zone[9]
  5: 0x0C36 [0x42] SET_CLI_EVENT_CANCEL_DATA()
  6: 0x0C37 [0x4A] EventEntity looks at LocalPlayer
  7: 0x0C40 [0x4A] LocalPlayer looks at EventEntity
  8: 0x0C49 [0x6F] WAIT_FRAME_DELAY: Yield until WaitTime reaches zero
  9: 0x0C4A [0x70] WAIT_ENTITY_RENDER_FLAG: Wait while EventEntity->Render.Flags3 bit 2 is set (cancel turn if not)
 10: 0x0C4B [0x66] LOAD_EXT_SCHEDULER_MAIN: Load scheduler "tlk0" with entities [EventEntity, EventEntity], work=20*
 11: 0x0C5A [0x1D] PRINT_EVENT_MESSAGE(message_id=19007*)
    → "It is nice to see you. Let's not waste any time. I shall teach you the new recipe."
 12: 0x0C5D [0x23] WAIT_FOR_DIALOG_INTERACTION
 13: 0x0C5E [0x66] LOAD_EXT_SCHEDULER_MAIN: Load scheduler "thk1" with entities [EventEntity, EventEntity], work=20*
 14: 0x0C6D [0x1D] PRINT_EVENT_MESSAGE(message_id=19008*)
    → "Hm? You already know the recipe and how to obtain some of the ingredients?"
 15: 0x0C70 [0x23] WAIT_FOR_DIALOG_INTERACTION
 16: 0x0C71 [0x03] Work_Zone[6] = ExtData[1]->WorkLocal[19]
 17: 0x0C76 [0x03] Work_Zone[7] = ExtData[1]->WorkLocal[20]
 18: 0x0C7B [0x1D] PRINT_EVENT_MESSAGE(message_id=19009*)
