# 17723467 - Madaline

## Common Data

| Field            | Value                         |
|------------------|-------------------------------|
| Zone             | Northern San d'Oria (ID: 231) |
| Block Size       | 516 bytes                     |
| Total Events     | 10                            |
| References Count | 16                            |

## List of Events

| Event ID                 | Entrypoint   |   Size |   Instructions |
|--------------------------|--------------|--------|----------------|
| [65535](#event-65535)    | 0x0000       |      1 |              1 |
| [14](#event-14)          | 0x0001       |      1 |              1 |
| [535](#event-535)        | 0x0002       |      1 |              1 |
| [502](#event-502)        | 0x0003       |      1 |              1 |
| [65535.1](#event-655351) | 0x0004       |     23 |              5 |
| [531](#event-531)        | 0x001B       |    327 |             58 |
| [65535.2](#event-655352) | 0x0162       |      1 |              1 |
| [65535.3](#event-655353) | 0x0163       |      1 |              1 |
| [65535.4](#event-655354) | 0x0164       |      1 |              1 |
| [617](#event-617)        | 0x0165       |     36 |             10 |

## DAT References (imed_data)

|   Index | Hex Value   |   Dec Value |
|---------|-------------|-------------|
|       0 | 0x000F      |          15 |
|       1 | 0x0A3E      |        2622 |
|       2 | 0xFFFFAEFE  |  4294946558 |
|       3 | 0x0000      |           0 |
|       4 | 0x0C38      |        3128 |
|       5 | 0x0EB2      |        3762 |
|       6 | 0xFFFFE949  |  4294961481 |
|       7 | 0x00C8      |         200 |
|       8 | 0x0083      |         131 |
|       9 | 0x0003      |           3 |
|      10 | 0x001E      |          30 |
|      11 | 0x2C7B      |       11387 |
|      12 | 0x2C7C      |       11388 |
|      13 | 0x2C7E      |       11390 |
|      14 | 0x00B4      |         180 |
|      15 | 0x2C85      |       11397 |

## String References

- **11387**: Blessed are those who cherish Altana and heed the word of the papsque. To them the Gates of Paradise will open.
- **11388**: We're here to see the papsque address the faithful. He sometimes stands at the cathedral balcony beneath the steeple.
- **11390**: I see him! The papsque!
- **11397**: Every time I see the papsque, I feel as though I'm one step closer to Paradise!

## Events

### Event 65535

#### Metadata

| Field        | Value   |
|--------------|---------|
| Entrypoint   | 0x0000  |
| Data Size    | 1 bytes |
| Instructions | 1       |

```
      00 01 02 03 04 05 06 07  08 09 0A 0B 0C 0D 0E 0F
      -- -- -- -- -- -- -- --  -- -- -- -- -- -- -- --
0000: 00                                                .               
```

#### Opcodes

```
  0: 0x0000 [0x00] END_REQSTACK()
```

### Event 14

#### Metadata

| Field        | Value   |
|--------------|---------|
| Entrypoint   | 0x0001  |
| Data Size    | 1 bytes |
| Instructions | 1       |

```
      00 01 02 03 04 05 06 07  08 09 0A 0B 0C 0D 0E 0F
      -- -- -- -- -- -- -- --  -- -- -- -- -- -- -- --
0000:    00                                              .              
```

#### Opcodes

```
  0: 0x0001 [0x00] END_REQSTACK()
```

### Event 535

#### Metadata

| Field        | Value   |
|--------------|---------|
| Entrypoint   | 0x0002  |
| Data Size    | 1 bytes |
| Instructions | 1       |

```
      00 01 02 03 04 05 06 07  08 09 0A 0B 0C 0D 0E 0F
      -- -- -- -- -- -- -- --  -- -- -- -- -- -- -- --
0000:       00                                            .             
```

#### Opcodes

```
  0: 0x0002 [0x00] END_REQSTACK()
```

### Event 502

#### Metadata

| Field        | Value   |
|--------------|---------|
| Entrypoint   | 0x0003  |
| Data Size    | 1 bytes |
| Instructions | 1       |

```
      00 01 02 03 04 05 06 07  08 09 0A 0B 0C 0D 0E 0F
      -- -- -- -- -- -- -- --  -- -- -- -- -- -- -- --
0000:          00                                          .            
```

#### Opcodes

```
  0: 0x0003 [0x00] END_REQSTACK()
```

### Event 65535.1

#### Metadata

| Field        | Value    |
|--------------|----------|
| Entrypoint   | 0x0004   |
| Data Size    | 23 bytes |
| Instructions | 5        |

```
      00 01 02 03 04 05 06 07  08 09 0A 0B 0C 0D 0E 0F
      -- -- -- -- -- -- -- --  -- -- -- -- -- -- -- --
0000:             32 00 80 37  01 80 02 80 03 80 04 80      2..7........
0010: 1F 00 05 80 06 80 03 80  1F 01 00                 ...........     
```

#### Opcodes

```
  0: 0x0004 [0x32] ExtData[1]->MainSpeed = 15* * 0.1
  1: 0x0007 [0x37] UPDATE_EVENT_POSITION_AND_DIR: x=2.622*, z=-20.738*, y=0.000*, direction=274.9°*
  2: 0x0010 [0x1F] MOVE_ENTITY: EventEntity moves to X=3.762*, Z=-5.815*, Y=0.000*
  3: 0x0018 [0x1F] MOVE_ENTITY: Update entity position (mode=1)
  4: 0x001A [0x00] END_REQSTACK()
```

### Event 531

#### Metadata

| Field        | Value     |
|--------------|-----------|
| Entrypoint   | 0x001B    |
| Data Size    | 327 bytes |
| Instructions | 58        |

```
      00 01 02 03 04 05 06 07  08 09 0A 0B 0C 0D 0E 0F
      -- -- -- -- -- -- -- --  -- -- -- -- -- -- -- --
0010:                                   42 20 01 46 01             B .F.
0020: 45 07 80 F0 FF FF 7F F0  FF FF 7F 66 64 69 31 03  E..........fdi1.
0030: 80 45 08 80 F0 FF FF 7F  F0 FF FF 7F 73 30 34 35  .E..........s045
0040: 03 80 38 09 80 27 63 F0  FF FF 7F 2F 2A 63 F0 FF  ..8..'c..../*c..
0050: FF 7F 1E F0 FF FF 7F 6F  70 66 0A 80 F8 FF FF 7F  .......opf......
0060: F8 FF FF 7F 74 6C 6B 30  1D 0B 80 23 1C 0A 80 1D  ....tlk0...#....
0070: 0C 80 23 5E 69 64 6C 30  1C 0A 80 1E 4C 70 0E 01  ..#^idl0....Lp..
0080: 1C 0A 80 27 64 4C 70 0E  01 06 2A 64 4C 70 0E 01  ...'dLp...*dLp..
0090: 1C 0A 80 1E 10 70 0E 01  6F 70 66 0A 80 F8 FF FF  .....p..opf.....
00A0: 7F F8 FF FF 7F 74 6C 6B  30 1D 0D 80 23 5E 69 64  .....tlk0...#^id
00B0: 6C 30 1C 0A 80 27 64 4C  70 0E 01 07 2A 64 4C 70  l0...'dLp...*dLp
00C0: 0E 01 45 08 80 F0 FF FF  7F F0 FF FF 7F 73 30 30  ..E..........s00
00D0: 31 03 80 27 65 10 70 0E  01 07 1C 0E 80 2A 65 10  1..'e.p......*e.
00E0: 70 0E 01 27 65 10 70 0E  01 08 2A 65 10 70 0E 01  p..'e.p...*e.p..
00F0: 45 08 80 F0 FF FF 7F F0  FF FF 7F 73 30 34 34 03  E..........s044.
0100: 80 27 65 10 70 0E 01 09  2A 65 10 70 0E 01 55 08  .'e.p...*e.p..U.
0110: 80 F0 FF FF 7F F0 FF FF  7F 73 30 34 34 45 08 80  .........s044E..
0120: F0 FF FF 7F F0 FF FF 7F  73 30 37 30 03 80 1C 0A  ........s070....
0130: 80 27 64 4C 70 0E 01 08  2A 64 4C 70 0E 01 1C 0A  .'dLp...*dLp....
0140: 80 66 0A 80 F8 FF FF 7F  F8 FF FF 7F 74 6C 6B 30  .f..........tlk0
0150: 1D 0F 80 23 5E 69 64 6C  30 1C 0A 80 46 00 20 00  ...#^idl0...F. .
0160: 21 00                                             !.              
```

#### Opcodes

```
  0: 0x001B [0x42] SET_CLI_EVENT_CANCEL_DATA()
  1: 0x001C [0x20] SET_CLI_EVENT_UC_FLAG: Lock player control
  2: 0x001E [0x46] CAMERA_CONTROL: Disable user control
  3: 0x0020 [0x45] LOAD_SCHEDULED_TASK: Load scheduler "fdi1" with entities [LocalPlayer, LocalPlayer], work=[200*, 0*]
  4: 0x0031 [0x45] LOAD_SCHEDULED_TASK: Load scheduler "s045" with entities [LocalPlayer, LocalPlayer], work=[131*, 0*]
  5: 0x0042 [0x38] SET_CLIENT_EVENT_MODE(mode=3*)
  6: 0x0045 [0x27] REQ_SET(priority=0x63, entity_id=LocalPlayer, tag_num=0x2F)
  7: 0x004C [0x2A] GET_REQ_LEVEL(level=99, entity_id=LocalPlayer)
  8: 0x0052 [0x1E] EventEntity looks at LocalPlayer and starts talking
  9: 0x0057 [0x6F] WAIT_FRAME_DELAY: Yield until WaitTime reaches zero
 10: 0x0058 [0x70] WAIT_ENTITY_RENDER_FLAG: Wait while EventEntity->Render.Flags3 bit 2 is set (cancel turn if not)
 11: 0x0059 [0x66] LOAD_EXT_SCHEDULER_MAIN: Load scheduler "tlk0" with entities [EventEntity, EventEntity], work=30*
 12: 0x0068 [0x1D] PRINT_EVENT_MESSAGE(message_id=11387*)
    → "Blessed are those who cherish Altana and heed the word of the papsque. To them the Gates of Paradise will open."
 13: 0x006B [0x23] WAIT_FOR_DIALOG_INTERACTION
 14: 0x006C [0x1C] WAIT(30* ticks)
 15: 0x006F [0x1D] PRINT_EVENT_MESSAGE(message_id=11388*)
    → "We're here to see the papsque address the faithful. He sometimes stands at the cathedral balcony beneath the steeple."
 16: 0x0072 [0x23] WAIT_FOR_DIALOG_INTERACTION
 17: 0x0073 [0x5E] EventEntity goes idle (kills current action) (animation: "idl0")
 18: 0x0078 [0x1C] WAIT(30* ticks)
 19: 0x007B [0x1E] EventEntity looks at Telmoda (ID: 17723468/0x010E704C) and starts talking
 20: 0x0080 [0x1C] WAIT(30* ticks)
 21: 0x0083 [0x27] REQ_SET(priority=0x64, entity_id=Telmoda (ID: 17723468/0x010E704C), tag_num=0x06)
 22: 0x008A [0x2A] GET_REQ_LEVEL(level=100, entity_id=Telmoda (ID: 17723468/0x010E704C))
 23: 0x0090 [0x1C] WAIT(30* ticks)
 24: 0x0093 [0x1E] EventEntity looks at Shamonde (ID: 17723408/0x010E7010) and starts talking
 25: 0x0098 [0x6F] WAIT_FRAME_DELAY: Yield until WaitTime reaches zero
 26: 0x0099 [0x70] WAIT_ENTITY_RENDER_FLAG: Wait while EventEntity->Render.Flags3 bit 2 is set (cancel turn if not)
 27: 0x009A [0x66] LOAD_EXT_SCHEDULER_MAIN: Load scheduler "tlk0" with entities [EventEntity, EventEntity], work=30*
 28: 0x00A9 [0x1D] PRINT_EVENT_MESSAGE(message_id=11390*)
    → "I see him! The papsque!"
 29: 0x00AC [0x23] WAIT_FOR_DIALOG_INTERACTION
 30: 0x00AD [0x5E] EventEntity goes idle (kills current action) (animation: "idl0")
 31: 0x00B2 [0x1C] WAIT(30* ticks)
 32: 0x00B5 [0x27] REQ_SET(priority=0x64, entity_id=Telmoda (ID: 17723468/0x010E704C), tag_num=0x07)
 33: 0x00BC [0x2A] GET_REQ_LEVEL(level=100, entity_id=Telmoda (ID: 17723468/0x010E704C))
 34: 0x00C2 [0x45] LOAD_SCHEDULED_TASK: Load scheduler "s001" with entities [LocalPlayer, LocalPlayer], work=[131*, 0*]
 35: 0x00D3 [0x27] REQ_SET(priority=0x65, entity_id=Shamonde (ID: 17723408/0x010E7010), tag_num=0x07)
 36: 0x00DA [0x1C] WAIT(180* ticks)
 37: 0x00DD [0x2A] GET_REQ_LEVEL(level=101, entity_id=Shamonde (ID: 17723408/0x010E7010))
 38: 0x00E3 [0x27] REQ_SET(priority=0x65, entity_id=Shamonde (ID: 17723408/0x010E7010), tag_num=0x08)
 39: 0x00EA [0x2A] GET_REQ_LEVEL(level=101, entity_id=Shamonde (ID: 17723408/0x010E7010))
 40: 0x00F0 [0x45] LOAD_SCHEDULED_TASK: Load scheduler "s044" with entities [LocalPlayer, LocalPlayer], work=[131*, 0*]
 41: 0x0101 [0x27] REQ_SET(priority=0x65, entity_id=Shamonde (ID: 17723408/0x010E7010), tag_num=0x09)
 42: 0x0108 [0x2A] GET_REQ_LEVEL(level=101, entity_id=Shamonde (ID: 17723408/0x010E7010))
 43: 0x010E [0x55] WAIT_LOAD_SCHEDULER: Wait for scheduler "s044" with entities [LocalPlayer, LocalPlayer], work=131*
 44: 0x011D [0x45] LOAD_SCHEDULED_TASK: Load scheduler "s070" with entities [LocalPlayer, LocalPlayer], work=[131*, 0*]
 45: 0x012E [0x1C] WAIT(30* ticks)
 46: 0x0131 [0x27] REQ_SET(priority=0x64, entity_id=Telmoda (ID: 17723468/0x010E704C), tag_num=0x08)
 47: 0x0138 [0x2A] GET_REQ_LEVEL(level=100, entity_id=Telmoda (ID: 17723468/0x010E704C))
 48: 0x013E [0x1C] WAIT(30* ticks)
 49: 0x0141 [0x66] LOAD_EXT_SCHEDULER_MAIN: Load scheduler "tlk0" with entities [EventEntity, EventEntity], work=30*
 50: 0x0150 [0x1D] PRINT_EVENT_MESSAGE(message_id=11397*)
    → "Every time I see the papsque, I feel as though I'm one step closer to Paradise!"
 51: 0x0153 [0x23] WAIT_FOR_DIALOG_INTERACTION
 52: 0x0154 [0x5E] EventEntity goes idle (kills current action) (animation: "idl0")
 53: 0x0159 [0x1C] WAIT(30* ticks)
 54: 0x015C [0x46] CAMERA_CONTROL: Restore default settings
 55: 0x015E [0x20] SET_CLI_EVENT_UC_FLAG: Unlock player control
 56: 0x0160 [0x21] END_EVENT
 57: 0x0161 [0x00] END_REQSTACK()
```

### Event 65535.2

#### Metadata

| Field        | Value   |
|--------------|---------|
| Entrypoint   | 0x0162  |
| Data Size    | 1 bytes |
| Instructions | 1       |

```
      00 01 02 03 04 05 06 07  08 09 0A 0B 0C 0D 0E 0F
      -- -- -- -- -- -- -- --  -- -- -- -- -- -- -- --
0160:       00                                            .             
```

#### Opcodes

```
  0: 0x0162 [0x00] END_REQSTACK()
```

### Event 65535.3

#### Metadata

| Field        | Value   |
|--------------|---------|
| Entrypoint   | 0x0163  |
| Data Size    | 1 bytes |
| Instructions | 1       |

```
      00 01 02 03 04 05 06 07  08 09 0A 0B 0C 0D 0E 0F
      -- -- -- -- -- -- -- --  -- -- -- -- -- -- -- --
0160:          00                                          .            
```

#### Opcodes

```
  0: 0x0163 [0x00] END_REQSTACK()
```

### Event 65535.4

#### Metadata

| Field        | Value   |
|--------------|---------|
| Entrypoint   | 0x0164  |
| Data Size    | 1 bytes |
| Instructions | 1       |

```
      00 01 02 03 04 05 06 07  08 09 0A 0B 0C 0D 0E 0F
      -- -- -- -- -- -- -- --  -- -- -- -- -- -- -- --
0160:             00                                        .           
```

#### Opcodes

```
  0: 0x0164 [0x00] END_REQSTACK()
```

### Event 617

#### Metadata

| Field        | Value    |
|--------------|----------|
| Entrypoint   | 0x0165   |
| Data Size    | 36 bytes |
| Instructions | 10       |

```
      00 01 02 03 04 05 06 07  08 09 0A 0B 0C 0D 0E 0F
      -- -- -- -- -- -- -- --  -- -- -- -- -- -- -- --
0160:                1E F0 FF  FF 7F 6F 70 66 0A 80 F8       .....opf...
0170: FF FF 7F F8 FF FF 7F 74  6C 6B 30 1D 0F 80 23 5E  .......tlk0...#^
0180: 69 64 6C 30 1C 0A 80 21  00                       idl0...!.       
```

#### Opcodes

```
  0: 0x0165 [0x1E] EventEntity looks at LocalPlayer and starts talking
  1: 0x016A [0x6F] WAIT_FRAME_DELAY: Yield until WaitTime reaches zero
  2: 0x016B [0x70] WAIT_ENTITY_RENDER_FLAG: Wait while EventEntity->Render.Flags3 bit 2 is set (cancel turn if not)
  3: 0x016C [0x66] LOAD_EXT_SCHEDULER_MAIN: Load scheduler "tlk0" with entities [EventEntity, EventEntity], work=30*
  4: 0x017B [0x1D] PRINT_EVENT_MESSAGE(message_id=11397*)
    → "Every time I see the papsque, I feel as though I'm one step closer to Paradise!"
  5: 0x017E [0x23] WAIT_FOR_DIALOG_INTERACTION
  6: 0x017F [0x5E] EventEntity goes idle (kills current action) (animation: "idl0")
  7: 0x0184 [0x1C] WAIT(30* ticks)
  8: 0x0187 [0x21] END_EVENT
  9: 0x0188 [0x00] END_REQSTACK()
```
