# 17723421 - Rahal

## Common Data

| Field            | Value                         |
|------------------|-------------------------------|
| Zone             | Northern San d'Oria (ID: 231) |
| Block Size       | 872 bytes                     |
| Total Events     | 25                            |
| References Count | 55                            |

## List of Events

| Event ID                   | Entrypoint   |   Size |   Instructions |
|----------------------------|--------------|--------|----------------|
| [65535](#event-65535)      | 0x0000       |      1 |              1 |
| [36](#event-36)            | 0x0001       |     16 |              3 |
| [1](#event-1)              | 0x0011       |     10 |              2 |
| [65535.1](#event-655351)   | 0x001B       |     20 |              6 |
| [65535.2](#event-655352)   | 0x002F       |     52 |             12 |
| [65535.3](#event-655353)   | 0x0063       |     16 |              2 |
| [65535.4](#event-655354)   | 0x0073       |     26 |              7 |
| [65535.5](#event-655355)   | 0x008D       |     30 |              4 |
| [16](#event-16)            | 0x00AB       |     13 |              3 |
| [0](#event-0)              | 0x00B8       |     13 |              3 |
| [65535.6](#event-655356)   | 0x00C5       |     13 |              3 |
| [65535.7](#event-655357)   | 0x00D2       |     20 |              4 |
| [65535.8](#event-655358)   | 0x00E6       |     13 |              3 |
| [65535.9](#event-655359)   | 0x00F3       |     10 |              2 |
| [65535.10](#event-6553510) | 0x00FD       |     37 |              9 |
| [65535.11](#event-6553511) | 0x0122       |     14 |              4 |
| [65](#event-65)            | 0x0130       |     10 |              2 |
| [65535.12](#event-6553512) | 0x013A       |     32 |              9 |
| [65535.13](#event-6553513) | 0x015A       |     23 |              6 |
| [65535.14](#event-6553514) | 0x0171       |     29 |              3 |
| [65535.15](#event-6553515) | 0x018E       |     19 |              3 |
| [65535.16](#event-6553516) | 0x01A1       |     29 |              3 |
| [65535.17](#event-6553517) | 0x01BE       |     29 |              3 |
| [65535.18](#event-6553518) | 0x01DB       |     29 |              3 |
| [65535.19](#event-6553519) | 0x01F8       |     29 |              3 |

## DAT References (imed_data)

|   Index | Hex Value   |   Dec Value |
|---------|-------------|-------------|
|       0 | 0x6D3E      |       27966 |
|       1 | 0x106CF     |       67279 |
|       2 | 0x07CB      |        1995 |
|       3 | 0x0FF2      |        4082 |
|       4 | 0x22987     |      141703 |
|       5 | 0x1EEA5     |      126629 |
|       6 | 0x0000      |           0 |
|       7 | 0x0BCC      |        3020 |
|       8 | 0x0028      |          40 |
|       9 | 0x224EC     |      140524 |
|      10 | 0x1F0A7     |      127143 |
|      11 | 0x0078      |         120 |
|      12 | 0x22D04     |      142596 |
|      13 | 0x1FA33     |      129587 |
|      14 | 0x0018      |          24 |
|      15 | 0x001D      |          29 |
|      16 | 0x20166     |      131430 |
|      17 | 0x1D585     |      120197 |
|      18 | 0x19173     |      102771 |
|      19 | 0x173C6     |       95174 |
|      20 | 0x0DFE      |        3582 |
|      21 | 0x1E975     |      125301 |
|      22 | 0x1CEE7     |      118503 |
|      23 | 0x05D5      |        1493 |
|      24 | 0x000A      |          10 |
|      25 | 0xFFFFFC18  |  4294966296 |
|      26 | 0xFFFFD4E1  |  4294956257 |
|      27 | 0x0C0F      |        3087 |
|      28 | 0x000D      |          13 |
|      29 | 0x4203      |       16899 |
|      30 | 0x050A      |        1290 |
|      31 | 0x16B5E     |       93022 |
|      32 | 0x1F9B2     |      129458 |
|      33 | 0xFFFFF830  |  4294965296 |
|      34 | 0x1AC30     |      109616 |
|      35 | 0x1927E     |      103038 |
|      36 | 0x04B0      |        1200 |
|      37 | 0x17860     |       96352 |
|      38 | 0x15E77     |       89719 |
|      39 | 0x06D5      |        1749 |
|      40 | 0x0619      |        1561 |
|      41 | 0x0050      |          80 |
|      42 | 0x16F1D     |       93981 |
|      43 | 0x15468     |       87144 |
|      44 | 0x0032      |          50 |
|      45 | 0xF7AC      |       63404 |
|      46 | 0xDD4A      |       56650 |
|      47 | 0x17F06     |       98054 |
|      48 | 0x1E508     |      124168 |
|      49 | 0x0602      |        1538 |
|      50 | 0x1798B     |       96651 |
|      51 | 0x1DFD7     |      122839 |
|      52 | 0x17F1F     |       98079 |
|      53 | 0x1D061     |      118881 |
|      54 | 0x003C      |          60 |

## Events

### Event 65535

#### Metadata

| Field        | Value   |
|--------------|---------|
| Entrypoint   | 0x0000  |
| Data Size    | 1 bytes |
| Instructions | 1       |

```
      00 01 02 03 04 05 06 07  08 09 0A 0B 0C 0D 0E 0F
      -- -- -- -- -- -- -- --  -- -- -- -- -- -- -- --
0000: 00                                                .               
```

#### Opcodes

```
  0: 0x0000 [0x00] END_REQSTACK()
```

### Event 36

#### Metadata

| Field        | Value    |
|--------------|----------|
| Entrypoint   | 0x0001   |
| Data Size    | 16 bytes |
| Instructions | 3        |

```
      00 01 02 03 04 05 06 07  08 09 0A 0B 0C 0D 0E 0F
      -- -- -- -- -- -- -- --  -- -- -- -- -- -- -- --
0000:    94 01 F8 FF FF 7F 37  00 80 01 80 02 80 03 80   ......7........
0010: 00                                                .               
```

#### Opcodes

```
  0: 0x0001 [0x94] EventEntity->Render.Flags3 ^= 0x01
  1: 0x0007 [0x37] UPDATE_EVENT_POSITION_AND_DIR: x=27.966*, z=67.279*, y=1.995*, direction=358.8°*
  2: 0x0010 [0x00] END_REQSTACK()
```

### Event 1

#### Metadata

| Field        | Value    |
|--------------|----------|
| Entrypoint   | 0x0011   |
| Data Size    | 10 bytes |
| Instructions | 2        |

```
      00 01 02 03 04 05 06 07  08 09 0A 0B 0C 0D 0E 0F
      -- -- -- -- -- -- -- --  -- -- -- -- -- -- -- --
0010:    37 04 80 05 80 06 80  07 80 00                  7.........     
```

#### Opcodes

```
  0: 0x0011 [0x37] UPDATE_EVENT_POSITION_AND_DIR: x=141.703*, z=126.629*, y=0.000*, direction=265.4°*
  1: 0x001A [0x00] END_REQSTACK()
```

### Event 65535.1

#### Metadata

| Field        | Value    |
|--------------|----------|
| Entrypoint   | 0x001B   |
| Data Size    | 20 bytes |
| Instructions | 6        |

```
      00 01 02 03 04 05 06 07  08 09 0A 0B 0C 0D 0E 0F
      -- -- -- -- -- -- -- --  -- -- -- -- -- -- -- --
0010:                                   32 08 80 1F 00             2....
0020: 09 80 0A 80 06 80 1F 01  6F 1E CF 70 0E 01 00     ........o..p... 
```

#### Opcodes

```
  0: 0x001B [0x32] ExtData[1]->MainSpeed = 40* * 0.1
  1: 0x001E [0x1F] MOVE_ENTITY: EventEntity moves to X=140.524*, Z=127.143*, Y=0.000*
  2: 0x0026 [0x1F] MOVE_ENTITY: Update entity position (mode=1)
  3: 0x0028 [0x6F] WAIT_FRAME_DELAY: Yield until WaitTime reaches zero
  4: 0x0029 [0x1E] EventEntity looks at Rochefogne (ID: 17723599/0x010E70CF) and starts talking
  5: 0x002E [0x00] END_REQSTACK()
```

### Event 65535.2

#### Metadata

| Field        | Value    |
|--------------|----------|
| Entrypoint   | 0x002F   |
| Data Size    | 52 bytes |
| Instructions | 12       |

```
      00 01 02 03 04 05 06 07  08 09 0A 0B 0C 0D 0E 0F
      -- -- -- -- -- -- -- --  -- -- -- -- -- -- -- --
0020:                                               1C                 .
0030: 0B 80 32 08 80 86 01 F8  FF FF 7F 1E CF 70 0E 01  ..2..........p..
0040: 6F 70 86 00 F8 FF FF 7F  1F 00 0C 80 0D 80 06 80  op..............
0050: 1F 01 6F 66 0E 80 F8 FF  FF 7F F8 FF FF 7F 31 72  ..of..........1r
0060: 64 79 00                                          dy.             
```

#### Opcodes

```
  0: 0x002F [0x1C] WAIT(120* ticks)
  1: 0x0032 [0x32] ExtData[1]->MainSpeed = 40* * 0.1
  2: 0x0035 [0x86] EventEntity->Render.Flags3 ^= 0x01
  3: 0x003B [0x1E] EventEntity looks at Rochefogne (ID: 17723599/0x010E70CF) and starts talking
  4: 0x0040 [0x6F] WAIT_FRAME_DELAY: Yield until WaitTime reaches zero
  5: 0x0041 [0x70] WAIT_ENTITY_RENDER_FLAG: Wait while EventEntity->Render.Flags3 bit 2 is set (cancel turn if not)
  6: 0x0042 [0x86] EventEntity->Render.Flags3 = Flags3  // No change (flag=0)
  7: 0x0048 [0x1F] MOVE_ENTITY: EventEntity moves to X=142.596*, Z=129.587*, Y=0.000*
  8: 0x0050 [0x1F] MOVE_ENTITY: Update entity position (mode=1)
  9: 0x0052 [0x6F] WAIT_FRAME_DELAY: Yield until WaitTime reaches zero
 10: 0x0053 [0x66] LOAD_EXT_SCHEDULER_MAIN: Load scheduler "1rdy" with entities [EventEntity, EventEntity], work=24*
 11: 0x0062 [0x00] END_REQSTACK()
```

### Event 65535.3

#### Metadata

| Field        | Value    |
|--------------|----------|
| Entrypoint   | 0x0063   |
| Data Size    | 16 bytes |
| Instructions | 2        |

```
      00 01 02 03 04 05 06 07  08 09 0A 0B 0C 0D 0E 0F
      -- -- -- -- -- -- -- --  -- -- -- -- -- -- -- --
0060:          66 0F 80 F8 FF  FF 7F F8 FF FF 7F 73 68     f..........sh
0070: 61 30 00                                          a0.             
```

#### Opcodes

```
  0: 0x0063 [0x66] LOAD_EXT_SCHEDULER_MAIN: Load scheduler "sha0" with entities [EventEntity, EventEntity], work=29*
  1: 0x0072 [0x00] END_REQSTACK()
```

### Event 65535.4

#### Metadata

| Field        | Value    |
|--------------|----------|
| Entrypoint   | 0x0073   |
| Data Size    | 26 bytes |
| Instructions | 7        |

```
      00 01 02 03 04 05 06 07  08 09 0A 0B 0C 0D 0E 0F
      -- -- -- -- -- -- -- --  -- -- -- -- -- -- -- --
0070:          32 08 80 1F 00  10 80 11 80 06 80 1F 01     2............
0080: 1F 00 12 80 13 80 06 80  1F 01 22 01 00           .........."..   
```

#### Opcodes

```
  0: 0x0073 [0x32] ExtData[1]->MainSpeed = 40* * 0.1
  1: 0x0076 [0x1F] MOVE_ENTITY: EventEntity moves to X=131.430*, Z=120.197*, Y=0.000*
  2: 0x007E [0x1F] MOVE_ENTITY: Update entity position (mode=1)
  3: 0x0080 [0x1F] MOVE_ENTITY: EventEntity moves to X=102.771*, Z=95.174*, Y=0.000*
  4: 0x0088 [0x1F] MOVE_ENTITY: Update entity position (mode=1)
  5: 0x008A [0x22] ENTITY_HIDE_FLAG(enabled=0x01)
  6: 0x008C [0x00] END_REQSTACK()
```

### Event 65535.5

#### Metadata

| Field        | Value    |
|--------------|----------|
| Entrypoint   | 0x008D   |
| Data Size    | 30 bytes |
| Instructions | 4        |

```
      00 01 02 03 04 05 06 07  08 09 0A 0B 0C 0D 0E 0F
      -- -- -- -- -- -- -- --  -- -- -- -- -- -- -- --
0080:                                         37 0C 80               7..
0090: 0D 80 06 80 14 80 80 F8  FF FF 7F 66 0E 80 F8 FF  ...........f....
00A0: FF 7F F8 FF FF 7F 31 72  64 79 00                 ......1rdy.     
```

#### Opcodes

```
  0: 0x008D [0x37] UPDATE_EVENT_POSITION_AND_DIR: x=142.596*, z=129.587*, y=0.000*, direction=314.8°*
  1: 0x0096 [0x80] LOAD_WAIT(entity=EventEntity)
  2: 0x009B [0x66] LOAD_EXT_SCHEDULER_MAIN: Load scheduler "1rdy" with entities [EventEntity, EventEntity], work=24*
  3: 0x00AA [0x00] END_REQSTACK()
```

### Event 16

#### Metadata

| Field        | Value    |
|--------------|----------|
| Entrypoint   | 0x00AB   |
| Data Size    | 13 bytes |
| Instructions | 3        |

```
      00 01 02 03 04 05 06 07  08 09 0A 0B 0C 0D 0E 0F
      -- -- -- -- -- -- -- --  -- -- -- -- -- -- -- --
00A0:                                   37 15 80 16 80             7....
00B0: 06 80 17 80 32 18 80 00                           ....2...        
```

#### Opcodes

```
  0: 0x00AB [0x37] UPDATE_EVENT_POSITION_AND_DIR: x=125.301*, z=118.503*, y=0.000*, direction=131.2°*
  1: 0x00B4 [0x32] ExtData[1]->MainSpeed = 10* * 0.1
  2: 0x00B7 [0x00] END_REQSTACK()
```

### Event 0

#### Metadata

| Field        | Value    |
|--------------|----------|
| Entrypoint   | 0x00B8   |
| Data Size    | 13 bytes |
| Instructions | 3        |

```
      00 01 02 03 04 05 06 07  08 09 0A 0B 0C 0D 0E 0F
      -- -- -- -- -- -- -- --  -- -- -- -- -- -- -- --
00B0:                          37 19 80 1A 80 06 80 1B          7.......
00C0: 80 32 1C 80 00                                    .2...           
```

#### Opcodes

```
  0: 0x00B8 [0x37] UPDATE_EVENT_POSITION_AND_DIR: x=-1.000*, z=-11.039*, y=0.000*, direction=271.3°*
  1: 0x00C1 [0x32] ExtData[1]->MainSpeed = 13* * 0.1
  2: 0x00C4 [0x00] END_REQSTACK()
```

### Event 65535.6

#### Metadata

| Field        | Value    |
|--------------|----------|
| Entrypoint   | 0x00C5   |
| Data Size    | 13 bytes |
| Instructions | 3        |

```
      00 01 02 03 04 05 06 07  08 09 0A 0B 0C 0D 0E 0F
      -- -- -- -- -- -- -- --  -- -- -- -- -- -- -- --
00C0:                31 00 19  80 1D 80 06 80 1E 80 31       1.........1
00D0: 01 00                                             ..              
```

#### Opcodes

```
  0: 0x00C5 [0x31] UPDATE_ENTITY_POSITION: Set EventEntity goal position to X=-1.000*, Z=16.899*, Y=0.000*, Time=1290*
  1: 0x00CF [0x31] UPDATE_ENTITY_POSITION: Move EventEntity towards goal position
  2: 0x00D1 [0x00] END_REQSTACK()
```

### Event 65535.7

#### Metadata

| Field        | Value    |
|--------------|----------|
| Entrypoint   | 0x00D2   |
| Data Size    | 20 bytes |
| Instructions | 4        |

```
      00 01 02 03 04 05 06 07  08 09 0A 0B 0C 0D 0E 0F
      -- -- -- -- -- -- -- --  -- -- -- -- -- -- -- --
00D0:       37 19 80 1F 80 06  80 1B 80 1F 00 19 80 20    7............ 
00E0: 80 21 80 1F 01 00                                 .!....          
```

#### Opcodes

```
  0: 0x00D2 [0x37] UPDATE_EVENT_POSITION_AND_DIR: x=-1.000*, z=93.022*, y=0.000*, direction=271.3°*
  1: 0x00DB [0x1F] MOVE_ENTITY: EventEntity moves to X=-1.000*, Z=129.458*, Y=-2.000*
  2: 0x00E3 [0x1F] MOVE_ENTITY: Update entity position (mode=1)
  3: 0x00E5 [0x00] END_REQSTACK()
```

### Event 65535.8

#### Metadata

| Field        | Value    |
|--------------|----------|
| Entrypoint   | 0x00E6   |
| Data Size    | 13 bytes |
| Instructions | 3        |

```
      00 01 02 03 04 05 06 07  08 09 0A 0B 0C 0D 0E 0F
      -- -- -- -- -- -- -- --  -- -- -- -- -- -- -- --
00E0:                   31 00  22 80 23 80 06 80 24 80        1.".#...$.
00F0: 31 01 00                                          1..             
```

#### Opcodes

```
  0: 0x00E6 [0x31] UPDATE_ENTITY_POSITION: Set EventEntity goal position to X=109.616*, Z=103.038*, Y=0.000*, Time=1200*
  1: 0x00F0 [0x31] UPDATE_ENTITY_POSITION: Move EventEntity towards goal position
  2: 0x00F2 [0x00] END_REQSTACK()
```

### Event 65535.9

#### Metadata

| Field        | Value    |
|--------------|----------|
| Entrypoint   | 0x00F3   |
| Data Size    | 10 bytes |
| Instructions | 2        |

```
      00 01 02 03 04 05 06 07  08 09 0A 0B 0C 0D 0E 0F
      -- -- -- -- -- -- -- --  -- -- -- -- -- -- -- --
00F0:          37 25 80 26 80  27 80 28 80 00              7%.&.'.(..   
```

#### Opcodes

```
  0: 0x00F3 [0x37] UPDATE_EVENT_POSITION_AND_DIR: x=96.352*, z=89.719*, y=1.749*, direction=137.2°*
  1: 0x00FC [0x00] END_REQSTACK()
```

### Event 65535.10

#### Metadata

| Field        | Value    |
|--------------|----------|
| Entrypoint   | 0x00FD   |
| Data Size    | 37 bytes |
| Instructions | 9        |

```
      00 01 02 03 04 05 06 07  08 09 0A 0B 0C 0D 0E 0F
      -- -- -- -- -- -- -- --  -- -- -- -- -- -- -- --
00F0:                                         1C 29 80               .).
0100: 1F 00 2A 80 2B 80 27 80  1F 01 6F 1E C5 70 0E 01  ..*.+.'...o..p..
0110: 6F 70 66 0E 80 F8 FF FF  7F F8 FF FF 7F 31 72 64  opf..........1rd
0120: 79 00                                             y.              
```

#### Opcodes

```
  0: 0x00FD [0x1C] WAIT(80* ticks)
  1: 0x0100 [0x1F] MOVE_ENTITY: EventEntity moves to X=93.981*, Z=87.144*, Y=1.749*
  2: 0x0108 [0x1F] MOVE_ENTITY: Update entity position (mode=1)
  3: 0x010A [0x6F] WAIT_FRAME_DELAY: Yield until WaitTime reaches zero
  4: 0x010B [0x1E] EventEntity looks at Rochefogne (ID: 17723589/0x010E70C5) and starts talking
  5: 0x0110 [0x6F] WAIT_FRAME_DELAY: Yield until WaitTime reaches zero
  6: 0x0111 [0x70] WAIT_ENTITY_RENDER_FLAG: Wait while EventEntity->Render.Flags3 bit 2 is set (cancel turn if not)
  7: 0x0112 [0x66] LOAD_EXT_SCHEDULER_MAIN: Load scheduler "1rdy" with entities [EventEntity, EventEntity], work=24*
  8: 0x0121 [0x00] END_REQSTACK()
```

### Event 65535.11

#### Metadata

| Field        | Value    |
|--------------|----------|
| Entrypoint   | 0x0122   |
| Data Size    | 14 bytes |
| Instructions | 4        |

```
      00 01 02 03 04 05 06 07  08 09 0A 0B 0C 0D 0E 0F
      -- -- -- -- -- -- -- --  -- -- -- -- -- -- -- --
0120:       32 2C 80 1F 00 2D  80 2E 80 06 80 1F 01 00    2,...-........
```

#### Opcodes

```
  0: 0x0122 [0x32] ExtData[1]->MainSpeed = 50* * 0.1
  1: 0x0125 [0x1F] MOVE_ENTITY: EventEntity moves to X=63.404*, Z=56.650*, Y=0.000*
  2: 0x012D [0x1F] MOVE_ENTITY: Update entity position (mode=1)
  3: 0x012F [0x00] END_REQSTACK()
```

### Event 65

#### Metadata

| Field        | Value    |
|--------------|----------|
| Entrypoint   | 0x0130   |
| Data Size    | 10 bytes |
| Instructions | 2        |

```
      00 01 02 03 04 05 06 07  08 09 0A 0B 0C 0D 0E 0F
      -- -- -- -- -- -- -- --  -- -- -- -- -- -- -- --
0130: 37 2F 80 30 80 06 80 31  80 00                    7/.0...1..      
```

#### Opcodes

```
  0: 0x0130 [0x37] UPDATE_EVENT_POSITION_AND_DIR: x=98.054*, z=124.168*, y=0.000*, direction=135.2°*
  1: 0x0139 [0x00] END_REQSTACK()
```

### Event 65535.12

#### Metadata

| Field        | Value    |
|--------------|----------|
| Entrypoint   | 0x013A   |
| Data Size    | 32 bytes |
| Instructions | 9        |

```
      00 01 02 03 04 05 06 07  08 09 0A 0B 0C 0D 0E 0F
      -- -- -- -- -- -- -- --  -- -- -- -- -- -- -- --
0130:                                22 00 32 1C 80 1F            ".2...
0140: 00 32 80 33 80 06 80 1F  01 1F 00 34 80 35 80 06  .2.3.......4.5..
0150: 80 1F 01 6F 1E 1E 70 0E  01 00                    ...o..p...      
```

#### Opcodes

```
  0: 0x013A [0x22] ENTITY_HIDE_FLAG(enabled=0x00)
  1: 0x013C [0x32] ExtData[1]->MainSpeed = 13* * 0.1
  2: 0x013F [0x1F] MOVE_ENTITY: EventEntity moves to X=96.651*, Z=122.839*, Y=0.000*
  3: 0x0147 [0x1F] MOVE_ENTITY: Update entity position (mode=1)
  4: 0x0149 [0x1F] MOVE_ENTITY: EventEntity moves to X=98.079*, Z=118.881*, Y=0.000*
  5: 0x0151 [0x1F] MOVE_ENTITY: Update entity position (mode=1)
  6: 0x0153 [0x6F] WAIT_FRAME_DELAY: Yield until WaitTime reaches zero
  7: 0x0154 [0x1E] EventEntity looks at Oiheaurese (ID: 17723422/0x010E701E) and starts talking
  8: 0x0159 [0x00] END_REQSTACK()
```

### Event 65535.13

#### Metadata

| Field        | Value    |
|--------------|----------|
| Entrypoint   | 0x015A   |
| Data Size    | 23 bytes |
| Instructions | 6        |

```
      00 01 02 03 04 05 06 07  08 09 0A 0B 0C 0D 0E 0F
      -- -- -- -- -- -- -- --  -- -- -- -- -- -- -- --
0150:                                1F 00 32 80 33 80            ..2.3.
0160: 06 80 1F 01 1F 00 2F 80  30 80 06 80 1F 01 22 01  ....../.0.....".
0170: 00                                                .               
```

#### Opcodes

```
  0: 0x015A [0x1F] MOVE_ENTITY: EventEntity moves to X=96.651*, Z=122.839*, Y=0.000*
  1: 0x0162 [0x1F] MOVE_ENTITY: Update entity position (mode=1)
  2: 0x0164 [0x1F] MOVE_ENTITY: EventEntity moves to X=98.054*, Z=124.168*, Y=0.000*
  3: 0x016C [0x1F] MOVE_ENTITY: Update entity position (mode=1)
  4: 0x016E [0x22] ENTITY_HIDE_FLAG(enabled=0x01)
  5: 0x0170 [0x00] END_REQSTACK()
```

### Event 65535.14

#### Metadata

| Field        | Value    |
|--------------|----------|
| Entrypoint   | 0x0171   |
| Data Size    | 29 bytes |
| Instructions | 3        |

```
      00 01 02 03 04 05 06 07  08 09 0A 0B 0C 0D 0E 0F
      -- -- -- -- -- -- -- --  -- -- -- -- -- -- -- --
0170:    66 0F 80 F8 FF FF 7F  F8 FF FF 7F 74 6C 6B 30   f..........tlk0
0180: 53 F8 FF FF 7F F8 FF FF  7F 74 6C 6B 30 00        S........tlk0.  
```

#### Opcodes

```
  0: 0x0171 [0x66] LOAD_EXT_SCHEDULER_MAIN: Load scheduler "tlk0" with entities [EventEntity, EventEntity], work=29*
  1: 0x0180 [0x53] WAIT_SCHEDULER_TASK: Wait for scheduler "tlk0" with entities [EventEntity, EventEntity]
  2: 0x018D [0x00] END_REQSTACK()
```

### Event 65535.15

#### Metadata

| Field        | Value    |
|--------------|----------|
| Entrypoint   | 0x018E   |
| Data Size    | 19 bytes |
| Instructions | 3        |

```
      00 01 02 03 04 05 06 07  08 09 0A 0B 0C 0D 0E 0F
      -- -- -- -- -- -- -- --  -- -- -- -- -- -- -- --
0180:                                            66 0F                f.
0190: 80 F8 FF FF 7F F8 FF FF  7F 74 6C 6B 31 1C 36 80  .........tlk1.6.
01A0: 00                                                .               
```

#### Opcodes

```
  0: 0x018E [0x66] LOAD_EXT_SCHEDULER_MAIN: Load scheduler "tlk1" with entities [EventEntity, EventEntity], work=29*
  1: 0x019D [0x1C] WAIT(60* ticks)
  2: 0x01A0 [0x00] END_REQSTACK()
```

### Event 65535.16

#### Metadata

| Field        | Value    |
|--------------|----------|
| Entrypoint   | 0x01A1   |
| Data Size    | 29 bytes |
| Instructions | 3        |

```
      00 01 02 03 04 05 06 07  08 09 0A 0B 0C 0D 0E 0F
      -- -- -- -- -- -- -- --  -- -- -- -- -- -- -- --
01A0:    66 0F 80 F8 FF FF 7F  F8 FF FF 7F 74 68 6B 31   f..........thk1
01B0: 53 F8 FF FF 7F F8 FF FF  7F 74 68 6B 31 00        S........thk1.  
```

#### Opcodes

```
  0: 0x01A1 [0x66] LOAD_EXT_SCHEDULER_MAIN: Load scheduler "thk1" with entities [EventEntity, EventEntity], work=29*
  1: 0x01B0 [0x53] WAIT_SCHEDULER_TASK: Wait for scheduler "thk1" with entities [EventEntity, EventEntity]
  2: 0x01BD [0x00] END_REQSTACK()
```

### Event 65535.17

#### Metadata

| Field        | Value    |
|--------------|----------|
| Entrypoint   | 0x01BE   |
| Data Size    | 29 bytes |
| Instructions | 3        |

```
      00 01 02 03 04 05 06 07  08 09 0A 0B 0C 0D 0E 0F
      -- -- -- -- -- -- -- --  -- -- -- -- -- -- -- --
01B0:                                            66 0F                f.
01C0: 80 F8 FF FF 7F F8 FF FF  7F 74 68 6B 32 53 F8 FF  .........thk2S..
01D0: FF 7F F8 FF FF 7F 74 68  6B 32 00                 ......thk2.     
```

#### Opcodes

```
  0: 0x01BE [0x66] LOAD_EXT_SCHEDULER_MAIN: Load scheduler "thk2" with entities [EventEntity, EventEntity], work=29*
  1: 0x01CD [0x53] WAIT_SCHEDULER_TASK: Wait for scheduler "thk2" with entities [EventEntity, EventEntity]
  2: 0x01DA [0x00] END_REQSTACK()
```

### Event 65535.18

#### Metadata

| Field        | Value    |
|--------------|----------|
| Entrypoint   | 0x01DB   |
| Data Size    | 29 bytes |
| Instructions | 3        |

```
      00 01 02 03 04 05 06 07  08 09 0A 0B 0C 0D 0E 0F
      -- -- -- -- -- -- -- --  -- -- -- -- -- -- -- --
01D0:                                   66 0E 80 F8 FF             f....
01E0: FF 7F F8 FF FF 7F 31 72  64 79 53 F8 FF FF 7F F8  ......1rdyS.....
01F0: FF FF 7F 31 72 64 79 00                           ...1rdy.        
```

#### Opcodes

```
  0: 0x01DB [0x66] LOAD_EXT_SCHEDULER_MAIN: Load scheduler "1rdy" with entities [EventEntity, EventEntity], work=24*
  1: 0x01EA [0x53] WAIT_SCHEDULER_TASK: Wait for scheduler "1rdy" with entities [EventEntity, EventEntity]
  2: 0x01F7 [0x00] END_REQSTACK()
```

### Event 65535.19

#### Metadata

| Field        | Value    |
|--------------|----------|
| Entrypoint   | 0x01F8   |
| Data Size    | 29 bytes |
| Instructions | 3        |

```
      00 01 02 03 04 05 06 07  08 09 0A 0B 0C 0D 0E 0F
      -- -- -- -- -- -- -- --  -- -- -- -- -- -- -- --
01F0:                          66 0E 80 F8 FF FF 7F F8          f.......
0200: FF FF 7F 31 72 74 6E 53  F8 FF FF 7F F8 FF FF 7F  ...1rtnS........
0210: 31 72 74 6E 00                                    1rtn.           
```

#### Opcodes

```
  0: 0x01F8 [0x66] LOAD_EXT_SCHEDULER_MAIN: Load scheduler "1rtn" with entities [EventEntity, EventEntity], work=24*
  1: 0x0207 [0x53] WAIT_SCHEDULER_TASK: Wait for scheduler "1rtn" with entities [EventEntity, EventEntity]
  2: 0x0214 [0x00] END_REQSTACK()
```
