# 17723425 - Daveille

## Common Data

| Field            | Value                         |
|------------------|-------------------------------|
| Zone             | Northern San d'Oria (ID: 231) |
| Block Size       | 264 bytes                     |
| Total Events     | 3                             |
| References Count | 18                            |

## List of Events

| Event ID              | Entrypoint   |   Size |   Instructions |
|-----------------------|--------------|--------|----------------|
| [65535](#event-65535) | 0x0000       |      1 |              1 |
| [584](#event-584)     | 0x0001       |    113 |             29 |
| [16](#event-16)       | 0x0072       |     48 |              8 |

## DAT References (imed_data)

|   Index | Hex Value   |   Dec Value |
|---------|-------------|-------------|
|       0 | 0x0014      |          20 |
|       1 | 0x2D7F      |       11647 |
|       2 | 0x2D80      |       11648 |
|       3 | 0x0000      |           0 |
|       4 | 0xFFFFFFFB  |  4294967291 |
|       5 | 0x0001      |           1 |
|       6 | 0x2D81      |       11649 |
|       7 | 0x001E      |          30 |
|       8 | 0x2D82      |       11650 |
|       9 | 0x2D83      |       11651 |
|      10 | 0x0008      |           8 |
|      11 | 0x16435     |       91189 |
|      12 | 0x11306     |       70406 |
|      13 | 0x06D5      |        1749 |
|      14 | 0x0C5C      |        3164 |
|      15 | 0x16CA2     |       93346 |
|      16 | 0x128D1     |       75985 |
|      17 | 0x0BE7      |        3047 |

## String References

- **11647**: Finding your way around Northern San d'Oria? Let me show you what's where!
- **11648**: View his map? [Yes./No.]
- **11649**: In the center lie the Parade Grounds and its fountain. Round them stand Chateau d'Oraguille, the San d'Oria Cathedral, and the consulates of our allies.
- **11650**: Laborman's Way runs to the northwest. Down there you can find great centers of industry, like the Carpenters' Guild and the Blacksmiths' Guild.
- **11651**: Fine, have it your way.

## Events

### Event 65535

#### Metadata

| Field        | Value   |
|--------------|---------|
| Entrypoint   | 0x0000  |
| Data Size    | 1 bytes |
| Instructions | 1       |

```
      00 01 02 03 04 05 06 07  08 09 0A 0B 0C 0D 0E 0F
      -- -- -- -- -- -- -- --  -- -- -- -- -- -- -- --
0000: 00                                                .               
```

#### Opcodes

```
  0: 0x0000 [0x00] END_REQSTACK()
```

### Event 584

#### Metadata

| Field        | Value     |
|--------------|-----------|
| Entrypoint   | 0x0001    |
| Data Size    | 113 bytes |
| Instructions | 29        |

```
      00 01 02 03 04 05 06 07  08 09 0A 0B 0C 0D 0E 0F
      -- -- -- -- -- -- -- --  -- -- -- -- -- -- -- --
0000:    1E F0 FF FF 7F 6F 70  66 00 80 F8 FF FF 7F F8   .....opf.......
0010: FF FF 7F 74 6C 6B 30 1D  01 80 23 5E 69 64 6C 30  ...tlk0...#^idl0
0020: 24 02 80 03 80 03 80 25  02 00 10 03 80 00 4A 00  $......%......J.
0030: 8D 04 80 05 80 1D 06 80  23 1C 07 80 1D 08 80 23  ........#......#
0040: 1C 07 80 8A 1C 07 80 01  70 00 02 00 10 05 80 00  ........p.......
0050: 70 00 66 00 80 F8 FF FF  7F F8 FF FF 7F 74 6C 6B  p.f..........tlk
0060: 30 1D 09 80 23 5E 69 64  6C 30 1C 07 80 01 70 00  0...#^idl0....p.
0070: 21 00                                             !.              
```

#### Opcodes

```
  0: 0x0001 [0x1E] EventEntity looks at LocalPlayer and starts talking
  1: 0x0006 [0x6F] WAIT_FRAME_DELAY: Yield until WaitTime reaches zero
  2: 0x0007 [0x70] WAIT_ENTITY_RENDER_FLAG: Wait while EventEntity->Render.Flags3 bit 2 is set (cancel turn if not)
  3: 0x0008 [0x66] LOAD_EXT_SCHEDULER_MAIN: Load scheduler "tlk0" with entities [EventEntity, EventEntity], work=20*
  4: 0x0017 [0x1D] PRINT_EVENT_MESSAGE(message_id=11647*)
    → "Finding your way around Northern San d'Oria? Let me show you what's where!"
  5: 0x001A [0x23] WAIT_FOR_DIALOG_INTERACTION
  6: 0x001B [0x5E] EventEntity goes idle (kills current action) (animation: "idl0")
  7: 0x0020 [0x24] CREATE_DIALOG(message_id=11648*, default_option=0*, option_flags=0*)
    → "View his map? [Yes./No.]"
  8: 0x0027 [0x25] WAIT_DIALOG_SELECT()
  9: 0x0028 [0x02] IF !(Work_Zone[0] == 0*) GOTO 0x004A
 10: 0x0030 [0x8D] OPEN_MAP_WITH_PROPERTIES(map_id=4294967291*, properties=1*)
 11: 0x0035 [0x1D] PRINT_EVENT_MESSAGE(message_id=11649*)
    → "In the center lie the Parade Grounds and its fountain. Round them stand Chateau d'Oraguille, the San d'Oria Cathedral, and the consulates of our allies."
 12: 0x0038 [0x23] WAIT_FOR_DIALOG_INTERACTION
 13: 0x0039 [0x1C] WAIT(30* ticks)
 14: 0x003C [0x1D] PRINT_EVENT_MESSAGE(message_id=11650*)
    → "Laborman's Way runs to the northwest. Down there you can find great centers of industry, like the Carpenters' Guild and the Blacksmiths' Guild."
 15: 0x003F [0x23] WAIT_FOR_DIALOG_INTERACTION
 16: 0x0040 [0x1C] WAIT(30* ticks)
 17: 0x0043 [0x8A] CLOSE_MAP()
 18: 0x0044 [0x1C] WAIT(30* ticks)
 19: 0x0047 [0x01] GOTO 0x0070
 20: 0x004A [0x02] IF !(Work_Zone[0] == 1*) GOTO 0x0070
 21: 0x0052 [0x66] LOAD_EXT_SCHEDULER_MAIN: Load scheduler "tlk0" with entities [EventEntity, EventEntity], work=20*
 22: 0x0061 [0x1D] PRINT_EVENT_MESSAGE(message_id=11651*)
    → "Fine, have it your way."
 23: 0x0064 [0x23] WAIT_FOR_DIALOG_INTERACTION
 24: 0x0065 [0x5E] EventEntity goes idle (kills current action) (animation: "idl0")
 25: 0x006A [0x1C] WAIT(30* ticks)
 26: 0x006D [0x01] GOTO 0x0070

SUBROUTINE_0070:
 27: 0x0070 [0x21] END_EVENT
 28: 0x0071 [0x00] END_REQSTACK()
```

### Event 16

#### Metadata

| Field        | Value    |
|--------------|----------|
| Entrypoint   | 0x0072   |
| Data Size    | 48 bytes |
| Instructions | 8        |

```
      00 01 02 03 04 05 06 07  08 09 0A 0B 0C 0D 0E 0F
      -- -- -- -- -- -- -- --  -- -- -- -- -- -- -- --
0070:       22 00 92 01 F8 FF  FF 7F 02 87 7F 0A 80 00    ".............
0080: 8E 00 37 0B 80 0C 80 0D  80 0E 80 01 97 00 37 0F  ..7...........7.
0090: 80 10 80 0D 80 11 80 79  00 F8 FF FF 7F 04 70 0E  .......y......p.
00A0: 01 00                                             ..              
```

#### Opcodes

```
  0: 0x0072 [0x22] ENTITY_HIDE_FLAG(enabled=0x00)
  1: 0x0074 [0x92] EventEntity->Render.Flags3 ^= 0x01
  2: 0x007A [0x02] IF !(LocalPlayer->Race == 8*) GOTO 0x008E
  3: 0x0082 [0x37] UPDATE_EVENT_POSITION_AND_DIR: x=91.189*, z=70.406*, y=1.749*, direction=278.1°*
  4: 0x008B [0x01] GOTO 0x0097
  5: 0x008E [0x37] UPDATE_EVENT_POSITION_AND_DIR: x=93.346*, z=75.985*, y=1.749*, direction=267.8°*

SUBROUTINE_0097:
  6: 0x0097 [0x79] EventEntity looks at Claidie (ID: 17723396/0x010E7004) (Basic look)
  7: 0x00A1 [0x00] END_REQSTACK()
```
