# 17723574

## Common Data

| Field            | Value                         |
|------------------|-------------------------------|
| Zone             | Northern San d'Oria (ID: 231) |
| Block Size       | 492 bytes                     |
| Total Events     | 15                            |
| References Count | 35                            |

## List of Events

| Event ID                   | Entrypoint   |   Size |   Instructions |
|----------------------------|--------------|--------|----------------|
| [65535](#event-65535)      | 0x0000       |      1 |              1 |
| [1](#event-1)              | 0x0001       |     16 |              3 |
| [65535.1](#event-655351)   | 0x0011       |      9 |              3 |
| [65535.2](#event-655352)   | 0x001A       |     38 |              8 |
| [65535.3](#event-655353)   | 0x0040       |     16 |              2 |
| [65535.4](#event-655354)   | 0x0050       |     26 |              7 |
| [0](#event-0)              | 0x006A       |     13 |              3 |
| [65535.5](#event-655355)   | 0x0077       |     13 |              3 |
| [65535.6](#event-655356)   | 0x0084       |     20 |              4 |
| [16](#event-16)            | 0x0098       |     10 |              2 |
| [65535.7](#event-655357)   | 0x00A2       |     16 |              5 |
| [49](#event-49)            | 0x00B2       |     16 |              3 |
| [65535.8](#event-655358)   | 0x00C2       |     47 |             11 |
| [65535.9](#event-655359)   | 0x00F1       |     16 |              2 |
| [65535.10](#event-6553510) | 0x0101       |     16 |              2 |

## DAT References (imed_data)

|   Index | Hex Value   |   Dec Value |
|---------|-------------|-------------|
|       0 | 0x21187     |      135559 |
|       1 | 0x1D787     |      120711 |
|       2 | 0x0000      |           0 |
|       3 | 0x0817      |        2071 |
|       4 | 0x0028      |          40 |
|       5 | 0x0018      |          24 |
|       6 | 0x001D      |          29 |
|       7 | 0x20741     |      132929 |
|       8 | 0x1DFAB     |      122795 |
|       9 | 0x19173     |      102771 |
|      10 | 0x173C6     |       95174 |
|      11 | 0xFFFFFC18  |  4294966296 |
|      12 | 0xFFFFBF87  |  4294950791 |
|      13 | 0x0C0F      |        3087 |
|      14 | 0x000D      |          13 |
|      15 | 0x2CA9      |       11433 |
|      16 | 0x050A      |        1290 |
|      17 | 0x15604     |       87556 |
|      18 | 0x1E458     |      123992 |
|      19 | 0xFFFFF830  |  4294965296 |
|      20 | 0x17EC1     |       97985 |
|      21 | 0x17717     |       96023 |
|      22 | 0x06D5      |        1749 |
|      23 | 0x01E7      |         487 |
|      24 | 0x002D      |          45 |
|      25 | 0xF9D0      |       63952 |
|      26 | 0xE25D      |       57949 |
|      27 | 0x15E39     |       89657 |
|      28 | 0x13B21     |       80673 |
|      29 | 0x0E05      |        3589 |
|      30 | 0x000A      |          10 |
|      31 | 0x17366     |       95078 |
|      32 | 0x15130     |       86320 |
|      33 | 0x17B07     |       97031 |
|      34 | 0x1502D     |       86061 |

## Events

### Event 65535

#### Metadata

| Field        | Value   |
|--------------|---------|
| Entrypoint   | 0x0000  |
| Data Size    | 1 bytes |
| Instructions | 1       |

```
      00 01 02 03 04 05 06 07  08 09 0A 0B 0C 0D 0E 0F
      -- -- -- -- -- -- -- --  -- -- -- -- -- -- -- --
0000: 00                                                .               
```

#### Opcodes

```
  0: 0x0000 [0x00] END_REQSTACK()
```

### Event 1

#### Metadata

| Field        | Value    |
|--------------|----------|
| Entrypoint   | 0x0001   |
| Data Size    | 16 bytes |
| Instructions | 3        |

```
      00 01 02 03 04 05 06 07  08 09 0A 0B 0C 0D 0E 0F
      -- -- -- -- -- -- -- --  -- -- -- -- -- -- -- --
0000:    92 01 F8 FF FF 7F 37  00 80 01 80 02 80 03 80   ......7........
0010: 00                                                .               
```

#### Opcodes

```
  0: 0x0001 [0x92] EventEntity->Render.Flags3 ^= 0x01
  1: 0x0007 [0x37] UPDATE_EVENT_POSITION_AND_DIR: x=135.559*, z=120.711*, y=0.000*, direction=182.0°*
  2: 0x0010 [0x00] END_REQSTACK()
```

### Event 65535.1

#### Metadata

| Field        | Value   |
|--------------|---------|
| Entrypoint   | 0x0011  |
| Data Size    | 9 bytes |
| Instructions | 3       |

```
      00 01 02 03 04 05 06 07  08 09 0A 0B 0C 0D 0E 0F
      -- -- -- -- -- -- -- --  -- -- -- -- -- -- -- --
0010:    32 04 80 1E CF 70 0E  01 00                     2....p...      
```

#### Opcodes

```
  0: 0x0011 [0x32] ExtData[1]->MainSpeed = 40* * 0.1
  1: 0x0014 [0x1E] EventEntity looks at Rochefogne (ID: 17723599/0x010E70CF) and starts talking
  2: 0x0019 [0x00] END_REQSTACK()
```

### Event 65535.2

#### Metadata

| Field        | Value    |
|--------------|----------|
| Entrypoint   | 0x001A   |
| Data Size    | 38 bytes |
| Instructions | 8        |

```
      00 01 02 03 04 05 06 07  08 09 0A 0B 0C 0D 0E 0F
      -- -- -- -- -- -- -- --  -- -- -- -- -- -- -- --
0010:                                32 04 80 86 01 F8            2.....
0020: FF FF 7F 1E CF 70 0E 01  6F 70 86 00 F8 FF FF 7F  .....p..op......
0030: 66 05 80 F8 FF FF 7F F8  FF FF 7F 31 72 64 79 00  f..........1rdy.
```

#### Opcodes

```
  0: 0x001A [0x32] ExtData[1]->MainSpeed = 40* * 0.1
  1: 0x001D [0x86] EventEntity->Render.Flags3 ^= 0x01
  2: 0x0023 [0x1E] EventEntity looks at Rochefogne (ID: 17723599/0x010E70CF) and starts talking
  3: 0x0028 [0x6F] WAIT_FRAME_DELAY: Yield until WaitTime reaches zero
  4: 0x0029 [0x70] WAIT_ENTITY_RENDER_FLAG: Wait while EventEntity->Render.Flags3 bit 2 is set (cancel turn if not)
  5: 0x002A [0x86] EventEntity->Render.Flags3 = Flags3  // No change (flag=0)
  6: 0x0030 [0x66] LOAD_EXT_SCHEDULER_MAIN: Load scheduler "1rdy" with entities [EventEntity, EventEntity], work=24*
  7: 0x003F [0x00] END_REQSTACK()
```

### Event 65535.3

#### Metadata

| Field        | Value    |
|--------------|----------|
| Entrypoint   | 0x0040   |
| Data Size    | 16 bytes |
| Instructions | 2        |

```
      00 01 02 03 04 05 06 07  08 09 0A 0B 0C 0D 0E 0F
      -- -- -- -- -- -- -- --  -- -- -- -- -- -- -- --
0040: 66 06 80 F8 FF FF 7F F8  FF FF 7F 73 68 61 30 00  f..........sha0.
```

#### Opcodes

```
  0: 0x0040 [0x66] LOAD_EXT_SCHEDULER_MAIN: Load scheduler "sha0" with entities [EventEntity, EventEntity], work=29*
  1: 0x004F [0x00] END_REQSTACK()
```

### Event 65535.4

#### Metadata

| Field        | Value    |
|--------------|----------|
| Entrypoint   | 0x0050   |
| Data Size    | 26 bytes |
| Instructions | 7        |

```
      00 01 02 03 04 05 06 07  08 09 0A 0B 0C 0D 0E 0F
      -- -- -- -- -- -- -- --  -- -- -- -- -- -- -- --
0050: 32 04 80 1F 00 07 80 08  80 02 80 1F 01 1F 00 09  2...............
0060: 80 0A 80 02 80 1F 01 22  01 00                    ......."..      
```

#### Opcodes

```
  0: 0x0050 [0x32] ExtData[1]->MainSpeed = 40* * 0.1
  1: 0x0053 [0x1F] MOVE_ENTITY: EventEntity moves to X=132.929*, Z=122.795*, Y=0.000*
  2: 0x005B [0x1F] MOVE_ENTITY: Update entity position (mode=1)
  3: 0x005D [0x1F] MOVE_ENTITY: EventEntity moves to X=102.771*, Z=95.174*, Y=0.000*
  4: 0x0065 [0x1F] MOVE_ENTITY: Update entity position (mode=1)
  5: 0x0067 [0x22] ENTITY_HIDE_FLAG(enabled=0x01)
  6: 0x0069 [0x00] END_REQSTACK()
```

### Event 0

#### Metadata

| Field        | Value    |
|--------------|----------|
| Entrypoint   | 0x006A   |
| Data Size    | 13 bytes |
| Instructions | 3        |

```
      00 01 02 03 04 05 06 07  08 09 0A 0B 0C 0D 0E 0F
      -- -- -- -- -- -- -- --  -- -- -- -- -- -- -- --
0060:                                37 0B 80 0C 80 02            7.....
0070: 80 0D 80 32 0E 80 00                              ...2...         
```

#### Opcodes

```
  0: 0x006A [0x37] UPDATE_EVENT_POSITION_AND_DIR: x=-1.000*, z=-16.505*, y=0.000*, direction=271.3°*
  1: 0x0073 [0x32] ExtData[1]->MainSpeed = 13* * 0.1
  2: 0x0076 [0x00] END_REQSTACK()
```

### Event 65535.5

#### Metadata

| Field        | Value    |
|--------------|----------|
| Entrypoint   | 0x0077   |
| Data Size    | 13 bytes |
| Instructions | 3        |

```
      00 01 02 03 04 05 06 07  08 09 0A 0B 0C 0D 0E 0F
      -- -- -- -- -- -- -- --  -- -- -- -- -- -- -- --
0070:                      31  00 0B 80 0F 80 02 80 10         1........
0080: 80 31 01 00                                       .1..            
```

#### Opcodes

```
  0: 0x0077 [0x31] UPDATE_ENTITY_POSITION: Set EventEntity goal position to X=-1.000*, Z=11.433*, Y=0.000*, Time=1290*
  1: 0x0081 [0x31] UPDATE_ENTITY_POSITION: Move EventEntity towards goal position
  2: 0x0083 [0x00] END_REQSTACK()
```

### Event 65535.6

#### Metadata

| Field        | Value    |
|--------------|----------|
| Entrypoint   | 0x0084   |
| Data Size    | 20 bytes |
| Instructions | 4        |

```
      00 01 02 03 04 05 06 07  08 09 0A 0B 0C 0D 0E 0F
      -- -- -- -- -- -- -- --  -- -- -- -- -- -- -- --
0080:             37 0B 80 11  80 02 80 0D 80 1F 00 0B      7...........
0090: 80 12 80 13 80 1F 01 00                           ........        
```

#### Opcodes

```
  0: 0x0084 [0x37] UPDATE_EVENT_POSITION_AND_DIR: x=-1.000*, z=87.556*, y=0.000*, direction=271.3°*
  1: 0x008D [0x1F] MOVE_ENTITY: EventEntity moves to X=-1.000*, Z=123.992*, Y=-2.000*
  2: 0x0095 [0x1F] MOVE_ENTITY: Update entity position (mode=1)
  3: 0x0097 [0x00] END_REQSTACK()
```

### Event 16

#### Metadata

| Field        | Value    |
|--------------|----------|
| Entrypoint   | 0x0098   |
| Data Size    | 10 bytes |
| Instructions | 2        |

```
      00 01 02 03 04 05 06 07  08 09 0A 0B 0C 0D 0E 0F
      -- -- -- -- -- -- -- --  -- -- -- -- -- -- -- --
0090:                          37 14 80 15 80 16 80 17          7.......
00A0: 80 00                                             ..              
```

#### Opcodes

```
  0: 0x0098 [0x37] UPDATE_EVENT_POSITION_AND_DIR: x=97.985*, z=96.023*, y=1.749*, direction=42.8°*
  1: 0x00A1 [0x00] END_REQSTACK()
```

### Event 65535.7

#### Metadata

| Field        | Value    |
|--------------|----------|
| Entrypoint   | 0x00A2   |
| Data Size    | 16 bytes |
| Instructions | 5        |

```
      00 01 02 03 04 05 06 07  08 09 0A 0B 0C 0D 0E 0F
      -- -- -- -- -- -- -- --  -- -- -- -- -- -- -- --
00A0:       32 18 80 1F 00 19  80 1A 80 02 80 1F 01 22    2............"
00B0: 01 00                                             ..              
```

#### Opcodes

```
  0: 0x00A2 [0x32] ExtData[1]->MainSpeed = 45* * 0.1
  1: 0x00A5 [0x1F] MOVE_ENTITY: EventEntity moves to X=63.952*, Z=57.949*, Y=0.000*
  2: 0x00AD [0x1F] MOVE_ENTITY: Update entity position (mode=1)
  3: 0x00AF [0x22] ENTITY_HIDE_FLAG(enabled=0x01)
  4: 0x00B1 [0x00] END_REQSTACK()
```

### Event 49

#### Metadata

| Field        | Value    |
|--------------|----------|
| Entrypoint   | 0x00B2   |
| Data Size    | 16 bytes |
| Instructions | 3        |

```
      00 01 02 03 04 05 06 07  08 09 0A 0B 0C 0D 0E 0F
      -- -- -- -- -- -- -- --  -- -- -- -- -- -- -- --
00B0:       92 01 F8 FF FF 7F  37 1B 80 1C 80 16 80 1D    ......7.......
00C0: 80 00                                             ..              
```

#### Opcodes

```
  0: 0x00B2 [0x92] EventEntity->Render.Flags3 ^= 0x01
  1: 0x00B8 [0x37] UPDATE_EVENT_POSITION_AND_DIR: x=89.657*, z=80.673*, y=1.749*, direction=315.4°*
  2: 0x00C1 [0x00] END_REQSTACK()
```

### Event 65535.8

#### Metadata

| Field        | Value    |
|--------------|----------|
| Entrypoint   | 0x00C2   |
| Data Size    | 47 bytes |
| Instructions | 11       |

```
      00 01 02 03 04 05 06 07  08 09 0A 0B 0C 0D 0E 0F
      -- -- -- -- -- -- -- --  -- -- -- -- -- -- -- --
00C0:       1C 1E 80 1F 00 1F  80 20 80 16 80 1F 01 1F    ....... ......
00D0: 00 21 80 22 80 16 80 1F  01 6F 1E AF 70 0E 01 6F  .!.".....o..p..o
00E0: 70 66 05 80 F8 FF FF 7F  F8 FF FF 7F 31 72 64 79  pf..........1rdy
00F0: 00                                                .               
```

#### Opcodes

```
  0: 0x00C2 [0x1C] WAIT(10* ticks)
  1: 0x00C5 [0x1F] MOVE_ENTITY: EventEntity moves to X=95.078*, Z=86.320*, Y=1.749*
  2: 0x00CD [0x1F] MOVE_ENTITY: Update entity position (mode=1)
  3: 0x00CF [0x1F] MOVE_ENTITY: EventEntity moves to X=97.031*, Z=86.061*, Y=1.749*
  4: 0x00D7 [0x1F] MOVE_ENTITY: Update entity position (mode=1)
  5: 0x00D9 [0x6F] WAIT_FRAME_DELAY: Yield until WaitTime reaches zero
  6: 0x00DA [0x1E] EventEntity looks at Rainemard (ID: 17723567/0x010E70AF) and starts talking
  7: 0x00DF [0x6F] WAIT_FRAME_DELAY: Yield until WaitTime reaches zero
  8: 0x00E0 [0x70] WAIT_ENTITY_RENDER_FLAG: Wait while EventEntity->Render.Flags3 bit 2 is set (cancel turn if not)
  9: 0x00E1 [0x66] LOAD_EXT_SCHEDULER_MAIN: Load scheduler "1rdy" with entities [EventEntity, EventEntity], work=24*
 10: 0x00F0 [0x00] END_REQSTACK()
```

### Event 65535.9

#### Metadata

| Field        | Value    |
|--------------|----------|
| Entrypoint   | 0x00F1   |
| Data Size    | 16 bytes |
| Instructions | 2        |

```
      00 01 02 03 04 05 06 07  08 09 0A 0B 0C 0D 0E 0F
      -- -- -- -- -- -- -- --  -- -- -- -- -- -- -- --
00F0:    66 05 80 F8 FF FF 7F  F8 FF FF 7F 31 72 74 6E   f..........1rtn
0100: 00                                                .               
```

#### Opcodes

```
  0: 0x00F1 [0x66] LOAD_EXT_SCHEDULER_MAIN: Load scheduler "1rtn" with entities [EventEntity, EventEntity], work=24*
  1: 0x0100 [0x00] END_REQSTACK()
```

### Event 65535.10

#### Metadata

| Field        | Value    |
|--------------|----------|
| Entrypoint   | 0x0101   |
| Data Size    | 16 bytes |
| Instructions | 2        |

```
      00 01 02 03 04 05 06 07  08 09 0A 0B 0C 0D 0E 0F
      -- -- -- -- -- -- -- --  -- -- -- -- -- -- -- --
0100:    66 05 80 F8 FF FF 7F  F8 FF FF 7F 31 72 64 79   f..........1rdy
0110: 00                                                .               
```

#### Opcodes

```
  0: 0x0101 [0x66] LOAD_EXT_SCHEDULER_MAIN: Load scheduler "1rdy" with entities [EventEntity, EventEntity], work=24*
  1: 0x0110 [0x00] END_REQSTACK()
```
