# 17723589 - Rochefogne

## Common Data

| Field            | Value                         |
|------------------|-------------------------------|
| Zone             | Northern San d'Oria (ID: 231) |
| Block Size       | 1420 bytes                    |
| Total Events     | 78                            |
| References Count | 77                            |

## List of Events

| Event ID                   | Entrypoint   |   Size |   Instructions |
|----------------------------|--------------|--------|----------------|
| [65535](#event-65535)      | 0x0000       |      1 |              1 |
| [1](#event-1)              | 0x0001       |      1 |              1 |
| [65535.1](#event-655351)   | 0x0002       |     16 |              2 |
| [65535.2](#event-655352)   | 0x0012       |     22 |              4 |
| [65535.3](#event-655353)   | 0x0028       |     16 |              2 |
| [65535.4](#event-655354)   | 0x0038       |     14 |              2 |
| [65535.5](#event-655355)   | 0x0046       |     16 |              2 |
| [65535.6](#event-655356)   | 0x0056       |     14 |              2 |
| [65535.7](#event-655357)   | 0x0064       |     16 |              2 |
| [65535.8](#event-655358)   | 0x0074       |     14 |              2 |
| [65535.9](#event-655359)   | 0x0082       |     16 |              2 |
| [65535.10](#event-6553510) | 0x0092       |     14 |              2 |
| [65535.11](#event-6553511) | 0x00A0       |     16 |              2 |
| [65535.12](#event-6553512) | 0x00B0       |     14 |              2 |
| [65535.13](#event-6553513) | 0x00BE       |     16 |              2 |
| [65535.14](#event-6553514) | 0x00CE       |     14 |              2 |
| [65535.15](#event-6553515) | 0x00DC       |     16 |              2 |
| [65535.16](#event-6553516) | 0x00EC       |     14 |              2 |
| [65535.17](#event-6553517) | 0x00FA       |     16 |              2 |
| [65535.18](#event-6553518) | 0x010A       |     14 |              2 |
| [65535.19](#event-6553519) | 0x0118       |      9 |              3 |
| [535](#event-535)          | 0x0121       |      1 |              1 |
| [65535.20](#event-6553520) | 0x0122       |      1 |              1 |
| [65535.21](#event-6553521) | 0x0123       |      1 |              1 |
| [65535.22](#event-6553522) | 0x0124       |     10 |              2 |
| [65535.23](#event-6553523) | 0x012E       |     10 |              2 |
| [65535.24](#event-6553524) | 0x0138       |     14 |              4 |
| [65535.25](#event-6553525) | 0x0146       |     14 |              4 |
| [65535.26](#event-6553526) | 0x0154       |     14 |              4 |
| [65535.27](#event-6553527) | 0x0162       |      5 |              3 |
| [65535.28](#event-6553528) | 0x0167       |      5 |              3 |
| [65535.29](#event-6553529) | 0x016C       |      5 |              3 |
| [65535.30](#event-6553530) | 0x0171       |      5 |              3 |
| [65535.31](#event-6553531) | 0x0176       |      5 |              3 |
| [65535.32](#event-6553532) | 0x017B       |      5 |              3 |
| [65535.33](#event-6553533) | 0x0180       |      5 |              3 |
| [65535.34](#event-6553534) | 0x0185       |      5 |              3 |
| [65535.35](#event-6553535) | 0x018A       |      5 |              3 |
| [65535.36](#event-6553536) | 0x018F       |      5 |              3 |
| [65535.37](#event-6553537) | 0x0194       |      5 |              3 |
| [65535.38](#event-6553538) | 0x0199       |     17 |              5 |
| [65535.39](#event-6553539) | 0x01AA       |      5 |              3 |
| [65535.40](#event-6553540) | 0x01AF       |      5 |              3 |
| [65535.41](#event-6553541) | 0x01B4       |      5 |              3 |
| [65535.42](#event-6553542) | 0x01B9       |      5 |              3 |
| [65535.43](#event-6553543) | 0x01BE       |      5 |              3 |
| [65535.44](#event-6553544) | 0x01C3       |      5 |              3 |
| [65535.45](#event-6553545) | 0x01C8       |      5 |              3 |
| [65535.46](#event-6553546) | 0x01CD       |      5 |              3 |
| [65535.47](#event-6553547) | 0x01D2       |      5 |              3 |
| [65535.48](#event-6553548) | 0x01D7       |      5 |              3 |
| [65535.49](#event-6553549) | 0x01DC       |      5 |              3 |
| [65535.50](#event-6553550) | 0x01E1       |      5 |              3 |
| [65535.51](#event-6553551) | 0x01E6       |      5 |              3 |
| [65535.52](#event-6553552) | 0x01EB       |      5 |              3 |
| [65535.53](#event-6553553) | 0x01F0       |      5 |              3 |
| [65535.54](#event-6553554) | 0x01F5       |      5 |              3 |
| [65535.55](#event-6553555) | 0x01FA       |      5 |              3 |
| [65535.56](#event-6553556) | 0x01FF       |      5 |              3 |
| [65535.57](#event-6553557) | 0x0204       |      5 |              3 |
| [65535.58](#event-6553558) | 0x0209       |      5 |              3 |
| [65535.59](#event-6553559) | 0x020E       |      5 |              3 |
| [65535.60](#event-6553560) | 0x0213       |      5 |              3 |
| [1020](#event-1020)        | 0x0218       |      1 |              1 |
| [65535.61](#event-6553561) | 0x0219       |     10 |              2 |
| [65535.62](#event-6553562) | 0x0223       |     29 |              7 |
| [65535.63](#event-6553563) | 0x0240       |     11 |              3 |
| [65535.64](#event-6553564) | 0x024B       |     21 |              5 |
| [65535.65](#event-6553565) | 0x0260       |      5 |              3 |
| [65535.66](#event-6553566) | 0x0265       |     19 |              5 |
| [65535.67](#event-6553567) | 0x0278       |      5 |              3 |
| [65535.68](#event-6553568) | 0x027D       |     17 |              5 |
| [65535.69](#event-6553569) | 0x028E       |      5 |              3 |
| [16](#event-16)            | 0x0293       |     10 |              2 |
| [65535.70](#event-6553570) | 0x029D       |     39 |              9 |
| [65535.71](#event-6553571) | 0x02C4       |     16 |              5 |
| [65535.72](#event-6553572) | 0x02D4       |     29 |              3 |
| [65535.73](#event-6553573) | 0x02F1       |     29 |              3 |

## DAT References (imed_data)

|   Index | Hex Value   |   Dec Value |
|---------|-------------|-------------|
|       0 | 0x0014      |          20 |
|       1 | 0x001E      |          30 |
|       2 | 0x0015      |          21 |
|       3 | 0xFFFFEC18  |  4294962200 |
|       4 | 0xFFFFD806  |  4294957062 |
|       5 | 0x0000      |           0 |
|       6 | 0x0599      |        1433 |
|       7 | 0xFFFFFB8D  |  4294966157 |
|       8 | 0xFFFFE971  |  4294961521 |
|       9 | 0x0FA0      |        4000 |
|      10 | 0x000D      |          13 |
|      11 | 0xFFFFFA88  |  4294965896 |
|      12 | 0xFFFFDDBB  |  4294958523 |
|      13 | 0x282F      |       10287 |
|      14 | 0x30D7      |       12503 |
|      15 | 0x30D8      |       12504 |
|      16 | 0x30D9      |       12505 |
|      17 | 0x30DA      |       12506 |
|      18 | 0x30DB      |       12507 |
|      19 | 0x30DC      |       12508 |
|      20 | 0x30DE      |       12510 |
|      21 | 0x30DF      |       12511 |
|      22 | 0x30E1      |       12513 |
|      23 | 0x30E2      |       12514 |
|      24 | 0x30E3      |       12515 |
|      25 | 0x0006      |           6 |
|      26 | 0x30E4      |       12516 |
|      27 | 0x30E6      |       12518 |
|      28 | 0x30E7      |       12519 |
|      29 | 0x30E8      |       12520 |
|      30 | 0x30E9      |       12521 |
|      31 | 0x30EA      |       12522 |
|      32 | 0x30EC      |       12524 |
|      33 | 0x30EE      |       12526 |
|      34 | 0x30EF      |       12527 |
|      35 | 0x30F0      |       12528 |
|      36 | 0x30F2      |       12530 |
|      37 | 0x30F5      |       12533 |
|      38 | 0x30F7      |       12535 |
|      39 | 0x30F8      |       12536 |
|      40 | 0x30FA      |       12538 |
|      41 | 0x30FB      |       12539 |
|      42 | 0x30FC      |       12540 |
|      43 | 0x30FD      |       12541 |
|      44 | 0x30FE      |       12542 |
|      45 | 0x3102      |       12546 |
|      46 | 0x3103      |       12547 |
|      47 | 0x3104      |       12548 |
|      48 | 0x3105      |       12549 |
|      49 | 0xFFFC6858  |  4294731864 |
|      50 | 0xE56E      |       58734 |
|      51 | 0x1F3F      |        7999 |
|      52 | 0x06B8      |        1720 |
|      53 | 0xFFFC6010  |  4294729744 |
|      54 | 0xE772      |       59250 |
|      55 | 0xFFFC558C  |  4294727052 |
|      56 | 0xE724      |       59172 |
|      57 | 0xFFFC5D8E  |  4294729102 |
|      58 | 0xDE46      |       56902 |
|      59 | 0xFFFC5EAE  |  4294729390 |
|      60 | 0xBF2A      |       48938 |
|      61 | 0x312E      |       12590 |
|      62 | 0x312F      |       12591 |
|      63 | 0x3131      |       12593 |
|      64 | 0x3136      |       12598 |
|      65 | 0x3139      |       12601 |
|      66 | 0x16DDE     |       93662 |
|      67 | 0x1314E     |       78158 |
|      68 | 0x06D5      |        1749 |
|      69 | 0x0BD2      |        3026 |
|      70 | 0x00F1      |         241 |
|      71 | 0x169CD     |       92621 |
|      72 | 0x14A08     |       84488 |
|      73 | 0x0028      |          40 |
|      74 | 0xD1FA      |       53754 |
|      75 | 0xA72A      |       42794 |
|      76 | 0x000C      |          12 |

## String References

- **12503**: Say, are you an adventurer?
- **12504**: My name is Rochefogne, and I am an adventurer, too. I have just arrived at San d'Oria...
- **12505**: And already I am struck at how little has changed! Time has no dominion over this city.
- **12506**: Can you see the great cathedral yonder? Faithful San d'Orians gather there still in worship to the Goddess of the Dawn.
- **12507**: And behold its balcony! Could the papsque still rise there to grant benedictions?
- **12508**: Hmm? And they must be Royal Knights...
- **12510**: You, too, must learn the difference between the Temple Knights and the Royal Knights, if you are to bear San d'Orian citizenship!
- **12511**: The Temple Knights shield the capital, while the Royal Knights strike at our foes!
- **12513**: Yes, Trion... Of him I have heard naught for ages. I do hope the princes are well.
- **12514**: And Princess Claidie! Fair is said to be the younger sister of Trion and Pieuje. Perhaps someday I may meet her!
- **12515**: But, I ramble. Many pardons!
- **12516**: So long have I been away that my head races. Please, let me hear your questions.
- **12518**: Should you wish to leave the city from here in Northern San d'Oria, you must pass through Ranperre Gate to the west.
- **12519**: You surely must have a map of this city, but hear my directions anyway.
- **12520**: First, walk west from the Parade Grounds upon which we now stand.
- **12521**: Pass through the gate, and follow the road past the furniture shop and the inn.
- **12522**: Take the gate on your left, and make another left down the stairs. Soon Ranperre Gate will rise before you.
- **12524**: For weaponry, ask at the weapon shop in the northwest corner of Northern San d'Oria. Upon your map is written a sword. That is the place.
- **12526**: If you seek magic, go northwest. Near the Carpenters' Guild is the gate that opens to Port San d'Oria. Look for a scroll on your map to find the magic shop.
- **12527**: For money, townsfolk may give you a reward for helping them. You could also hunt monsters and sell the bounty to merchants in town.
- **12528**: Spoken like an adventurer! What do you seek to know?
- **12530**: Helping people, eh? Come to think of it, I saw a lady pacing back and forth before a house in Southern San d'Oria.
- **12533**: You seem confident of yourself. I am much relieved.
- **12535**: Maybe you could instead? Walk through Victory Arch behind you to enter Southern San d'Oria. Then, head west to reach the Tanners' Guild.
- **12536**: New weapons and armor can cost a fortune.
- **12538**: Laborman's Way lies north-west of us. Pass the furniture shop and the inn, and take the gate on the right. Laborman's Way opens beneath it.
- **12539**: To further San d'Oria's glory, you should undertake missions given from the gatehouses.
- **12540**: They do not pay, but you can earn rank points as proof of your contributions to our kingdom.
- **12541**: With enough rank points, your rank will rise.
- **12542**: And with higher rank comes greater opportunity. Those of high rank are granted tasks that decide the fate of the Kingdom!
- **12546**: Oh, before I forget... I give you this for your journeys. Show it to Matildie, who stands before the drawbridge to Chateau d'Oraguille.
- **12547**: However, know you of our tradition regarding the bequeathal of objects? Ere giving to others, we open the main menu and select "Trade."
- **12548**: Do not hesitate to ask other adventurers for help.
- **12549**: Now, I must go and seek entrance to the castle. May we meet again, <Player>!
- **12590**: Lord knight, forgive this interruption, but there is something I must ask of you.
- **12591**: I question whether Queen Leaute truly passed away fifteen years past. Tell me, of what cause did she die?
- **12593**: Please, I have traveled from afar to see Her Highness!
- **12598**: Er...
- **12601**: Is that so? Well, I thank you for your kindness, proud knight of San d'Oria.

## Events

### Event 65535

#### Metadata

| Field        | Value   |
|--------------|---------|
| Entrypoint   | 0x0000  |
| Data Size    | 1 bytes |
| Instructions | 1       |

```
      00 01 02 03 04 05 06 07  08 09 0A 0B 0C 0D 0E 0F
      -- -- -- -- -- -- -- --  -- -- -- -- -- -- -- --
0000: 00                                                .               
```

#### Opcodes

```
  0: 0x0000 [0x00] END_REQSTACK()
```

### Event 1

#### Metadata

| Field        | Value   |
|--------------|---------|
| Entrypoint   | 0x0001  |
| Data Size    | 1 bytes |
| Instructions | 1       |

```
      00 01 02 03 04 05 06 07  08 09 0A 0B 0C 0D 0E 0F
      -- -- -- -- -- -- -- --  -- -- -- -- -- -- -- --
0000:    00                                              .              
```

#### Opcodes

```
  0: 0x0001 [0x00] END_REQSTACK()
```

### Event 65535.1

#### Metadata

| Field        | Value    |
|--------------|----------|
| Entrypoint   | 0x0002   |
| Data Size    | 16 bytes |
| Instructions | 2        |

```
      00 01 02 03 04 05 06 07  08 09 0A 0B 0C 0D 0E 0F
      -- -- -- -- -- -- -- --  -- -- -- -- -- -- -- --
0000:       66 00 80 F8 FF FF  7F F8 FF FF 7F 74 6C 6B    f..........tlk
0010: 30 00                                             0.              
```

#### Opcodes

```
  0: 0x0002 [0x66] LOAD_EXT_SCHEDULER_MAIN: Load scheduler "tlk0" with entities [EventEntity, EventEntity], work=20*
  1: 0x0011 [0x00] END_REQSTACK()
```

### Event 65535.2

#### Metadata

| Field        | Value    |
|--------------|----------|
| Entrypoint   | 0x0012   |
| Data Size    | 22 bytes |
| Instructions | 4        |

```
      00 01 02 03 04 05 06 07  08 09 0A 0B 0C 0D 0E 0F
      -- -- -- -- -- -- -- --  -- -- -- -- -- -- -- --
0010:       53 F8 FF FF 7F F8  FF FF 7F 74 6C 6B 30 5E    S........tlk0^
0020: 69 64 6C 30 1C 01 80 00                           idl0....        
```

#### Opcodes

```
  0: 0x0012 [0x53] WAIT_SCHEDULER_TASK: Wait for scheduler "tlk0" with entities [EventEntity, EventEntity]
  1: 0x001F [0x5E] EventEntity goes idle (kills current action) (animation: "idl0")
  2: 0x0024 [0x1C] WAIT(30* ticks)
  3: 0x0027 [0x00] END_REQSTACK()
```

### Event 65535.3

#### Metadata

| Field        | Value    |
|--------------|----------|
| Entrypoint   | 0x0028   |
| Data Size    | 16 bytes |
| Instructions | 2        |

```
      00 01 02 03 04 05 06 07  08 09 0A 0B 0C 0D 0E 0F
      -- -- -- -- -- -- -- --  -- -- -- -- -- -- -- --
0020:                          66 00 80 F8 FF FF 7F F8          f.......
0030: FF FF 7F 74 68 6B 31 00                           ...thk1.        
```

#### Opcodes

```
  0: 0x0028 [0x66] LOAD_EXT_SCHEDULER_MAIN: Load scheduler "thk1" with entities [EventEntity, EventEntity], work=20*
  1: 0x0037 [0x00] END_REQSTACK()
```

### Event 65535.4

#### Metadata

| Field        | Value    |
|--------------|----------|
| Entrypoint   | 0x0038   |
| Data Size    | 14 bytes |
| Instructions | 2        |

```
      00 01 02 03 04 05 06 07  08 09 0A 0B 0C 0D 0E 0F
      -- -- -- -- -- -- -- --  -- -- -- -- -- -- -- --
0030:                          53 F8 FF FF 7F F8 FF FF          S.......
0040: 7F 74 68 6B 31 00                                 .thk1.          
```

#### Opcodes

```
  0: 0x0038 [0x53] WAIT_SCHEDULER_TASK: Wait for scheduler "thk1" with entities [EventEntity, EventEntity]
  1: 0x0045 [0x00] END_REQSTACK()
```

### Event 65535.5

#### Metadata

| Field        | Value    |
|--------------|----------|
| Entrypoint   | 0x0046   |
| Data Size    | 16 bytes |
| Instructions | 2        |

```
      00 01 02 03 04 05 06 07  08 09 0A 0B 0C 0D 0E 0F
      -- -- -- -- -- -- -- --  -- -- -- -- -- -- -- --
0040:                   66 00  80 F8 FF FF 7F F8 FF FF        f.........
0050: 7F 74 68 6B 32 00                                 .thk2.          
```

#### Opcodes

```
  0: 0x0046 [0x66] LOAD_EXT_SCHEDULER_MAIN: Load scheduler "thk2" with entities [EventEntity, EventEntity], work=20*
  1: 0x0055 [0x00] END_REQSTACK()
```

### Event 65535.6

#### Metadata

| Field        | Value    |
|--------------|----------|
| Entrypoint   | 0x0056   |
| Data Size    | 14 bytes |
| Instructions | 2        |

```
      00 01 02 03 04 05 06 07  08 09 0A 0B 0C 0D 0E 0F
      -- -- -- -- -- -- -- --  -- -- -- -- -- -- -- --
0050:                   53 F8  FF FF 7F F8 FF FF 7F 74        S........t
0060: 68 6B 32 00                                       hk2.            
```

#### Opcodes

```
  0: 0x0056 [0x53] WAIT_SCHEDULER_TASK: Wait for scheduler "thk2" with entities [EventEntity, EventEntity]
  1: 0x0063 [0x00] END_REQSTACK()
```

### Event 65535.7

#### Metadata

| Field        | Value    |
|--------------|----------|
| Entrypoint   | 0x0064   |
| Data Size    | 16 bytes |
| Instructions | 2        |

```
      00 01 02 03 04 05 06 07  08 09 0A 0B 0C 0D 0E 0F
      -- -- -- -- -- -- -- --  -- -- -- -- -- -- -- --
0060:             66 00 80 F8  FF FF 7F F8 FF FF 7F 70      f..........p
0070: 61 73 30 00                                       as0.            
```

#### Opcodes

```
  0: 0x0064 [0x66] LOAD_EXT_SCHEDULER_MAIN: Load scheduler "pas0" with entities [EventEntity, EventEntity], work=20*
  1: 0x0073 [0x00] END_REQSTACK()
```

### Event 65535.8

#### Metadata

| Field        | Value    |
|--------------|----------|
| Entrypoint   | 0x0074   |
| Data Size    | 14 bytes |
| Instructions | 2        |

```
      00 01 02 03 04 05 06 07  08 09 0A 0B 0C 0D 0E 0F
      -- -- -- -- -- -- -- --  -- -- -- -- -- -- -- --
0070:             53 F8 FF FF  7F F8 FF FF 7F 70 61 73      S........pas
0080: 30 00                                             0.              
```

#### Opcodes

```
  0: 0x0074 [0x53] WAIT_SCHEDULER_TASK: Wait for scheduler "pas0" with entities [EventEntity, EventEntity]
  1: 0x0081 [0x00] END_REQSTACK()
```

### Event 65535.9

#### Metadata

| Field        | Value    |
|--------------|----------|
| Entrypoint   | 0x0082   |
| Data Size    | 16 bytes |
| Instructions | 2        |

```
      00 01 02 03 04 05 06 07  08 09 0A 0B 0C 0D 0E 0F
      -- -- -- -- -- -- -- --  -- -- -- -- -- -- -- --
0080:       66 00 80 F8 FF FF  7F F8 FF FF 7F 70 6F 69    f..........poi
0090: 31 00                                             1.              
```

#### Opcodes

```
  0: 0x0082 [0x66] LOAD_EXT_SCHEDULER_MAIN: Load scheduler "poi1" with entities [EventEntity, EventEntity], work=20*
  1: 0x0091 [0x00] END_REQSTACK()
```

### Event 65535.10

#### Metadata

| Field        | Value    |
|--------------|----------|
| Entrypoint   | 0x0092   |
| Data Size    | 14 bytes |
| Instructions | 2        |

```
      00 01 02 03 04 05 06 07  08 09 0A 0B 0C 0D 0E 0F
      -- -- -- -- -- -- -- --  -- -- -- -- -- -- -- --
0090:       53 F8 FF FF 7F F8  FF FF 7F 70 6F 69 31 00    S........poi1.
```

#### Opcodes

```
  0: 0x0092 [0x53] WAIT_SCHEDULER_TASK: Wait for scheduler "poi1" with entities [EventEntity, EventEntity]
  1: 0x009F [0x00] END_REQSTACK()
```

### Event 65535.11

#### Metadata

| Field        | Value    |
|--------------|----------|
| Entrypoint   | 0x00A0   |
| Data Size    | 16 bytes |
| Instructions | 2        |

```
      00 01 02 03 04 05 06 07  08 09 0A 0B 0C 0D 0E 0F
      -- -- -- -- -- -- -- --  -- -- -- -- -- -- -- --
00A0: 66 00 80 F8 FF FF 7F F8  FF FF 7F 70 6F 69 32 00  f..........poi2.
```

#### Opcodes

```
  0: 0x00A0 [0x66] LOAD_EXT_SCHEDULER_MAIN: Load scheduler "poi2" with entities [EventEntity, EventEntity], work=20*
  1: 0x00AF [0x00] END_REQSTACK()
```

### Event 65535.12

#### Metadata

| Field        | Value    |
|--------------|----------|
| Entrypoint   | 0x00B0   |
| Data Size    | 14 bytes |
| Instructions | 2        |

```
      00 01 02 03 04 05 06 07  08 09 0A 0B 0C 0D 0E 0F
      -- -- -- -- -- -- -- --  -- -- -- -- -- -- -- --
00B0: 53 F8 FF FF 7F F8 FF FF  7F 70 6F 69 32 00        S........poi2.  
```

#### Opcodes

```
  0: 0x00B0 [0x53] WAIT_SCHEDULER_TASK: Wait for scheduler "poi2" with entities [EventEntity, EventEntity]
  1: 0x00BD [0x00] END_REQSTACK()
```

### Event 65535.13

#### Metadata

| Field        | Value    |
|--------------|----------|
| Entrypoint   | 0x00BE   |
| Data Size    | 16 bytes |
| Instructions | 2        |

```
      00 01 02 03 04 05 06 07  08 09 0A 0B 0C 0D 0E 0F
      -- -- -- -- -- -- -- --  -- -- -- -- -- -- -- --
00B0:                                            66 02                f.
00C0: 80 F8 FF FF 7F F8 FF FF  7F 70 6F 69 30 00        .........poi0.  
```

#### Opcodes

```
  0: 0x00BE [0x66] LOAD_EXT_SCHEDULER_MAIN: Load scheduler "poi0" with entities [EventEntity, EventEntity], work=21*
  1: 0x00CD [0x00] END_REQSTACK()
```

### Event 65535.14

#### Metadata

| Field        | Value    |
|--------------|----------|
| Entrypoint   | 0x00CE   |
| Data Size    | 14 bytes |
| Instructions | 2        |

```
      00 01 02 03 04 05 06 07  08 09 0A 0B 0C 0D 0E 0F
      -- -- -- -- -- -- -- --  -- -- -- -- -- -- -- --
00C0:                                            53 F8                S.
00D0: FF FF 7F F8 FF FF 7F 70  6F 69 30 00              .......poi0.    
```

#### Opcodes

```
  0: 0x00CE [0x53] WAIT_SCHEDULER_TASK: Wait for scheduler "poi0" with entities [EventEntity, EventEntity]
  1: 0x00DB [0x00] END_REQSTACK()
```

### Event 65535.15

#### Metadata

| Field        | Value    |
|--------------|----------|
| Entrypoint   | 0x00DC   |
| Data Size    | 16 bytes |
| Instructions | 2        |

```
      00 01 02 03 04 05 06 07  08 09 0A 0B 0C 0D 0E 0F
      -- -- -- -- -- -- -- --  -- -- -- -- -- -- -- --
00D0:                                      66 02 80 F8              f...
00E0: FF FF 7F F8 FF FF 7F 70  6F 69 31 00              .......poi1.    
```

#### Opcodes

```
  0: 0x00DC [0x66] LOAD_EXT_SCHEDULER_MAIN: Load scheduler "poi1" with entities [EventEntity, EventEntity], work=21*
  1: 0x00EB [0x00] END_REQSTACK()
```

### Event 65535.16

#### Metadata

| Field        | Value    |
|--------------|----------|
| Entrypoint   | 0x00EC   |
| Data Size    | 14 bytes |
| Instructions | 2        |

```
      00 01 02 03 04 05 06 07  08 09 0A 0B 0C 0D 0E 0F
      -- -- -- -- -- -- -- --  -- -- -- -- -- -- -- --
00E0:                                      53 F8 FF FF              S...
00F0: 7F F8 FF FF 7F 70 6F 69  31 00                    .....poi1.      
```

#### Opcodes

```
  0: 0x00EC [0x53] WAIT_SCHEDULER_TASK: Wait for scheduler "poi1" with entities [EventEntity, EventEntity]
  1: 0x00F9 [0x00] END_REQSTACK()
```

### Event 65535.17

#### Metadata

| Field        | Value    |
|--------------|----------|
| Entrypoint   | 0x00FA   |
| Data Size    | 16 bytes |
| Instructions | 2        |

```
      00 01 02 03 04 05 06 07  08 09 0A 0B 0C 0D 0E 0F
      -- -- -- -- -- -- -- --  -- -- -- -- -- -- -- --
00F0:                                66 02 80 F8 FF FF            f.....
0100: 7F F8 FF FF 7F 64 69 73  30 00                    .....dis0.      
```

#### Opcodes

```
  0: 0x00FA [0x66] LOAD_EXT_SCHEDULER_MAIN: Load scheduler "dis0" with entities [EventEntity, EventEntity], work=21*
  1: 0x0109 [0x00] END_REQSTACK()
```

### Event 65535.18

#### Metadata

| Field        | Value    |
|--------------|----------|
| Entrypoint   | 0x010A   |
| Data Size    | 14 bytes |
| Instructions | 2        |

```
      00 01 02 03 04 05 06 07  08 09 0A 0B 0C 0D 0E 0F
      -- -- -- -- -- -- -- --  -- -- -- -- -- -- -- --
0100:                                53 F8 FF FF 7F F8            S.....
0110: FF FF 7F 64 69 73 30 00                           ...dis0.        
```

#### Opcodes

```
  0: 0x010A [0x53] WAIT_SCHEDULER_TASK: Wait for scheduler "dis0" with entities [EventEntity, EventEntity]
  1: 0x0117 [0x00] END_REQSTACK()
```

### Event 65535.19

#### Metadata

| Field        | Value   |
|--------------|---------|
| Entrypoint   | 0x0118  |
| Data Size    | 9 bytes |
| Instructions | 3       |

```
      00 01 02 03 04 05 06 07  08 09 0A 0B 0C 0D 0E 0F
      -- -- -- -- -- -- -- --  -- -- -- -- -- -- -- --
0110:                          5E 69 64 6C 30 1C 01 80          ^idl0...
0120: 00                                                .               
```

#### Opcodes

```
  0: 0x0118 [0x5E] EventEntity goes idle (kills current action) (animation: "idl0")
  1: 0x011D [0x1C] WAIT(30* ticks)
  2: 0x0120 [0x00] END_REQSTACK()
```

### Event 535

#### Metadata

| Field        | Value   |
|--------------|---------|
| Entrypoint   | 0x0121  |
| Data Size    | 1 bytes |
| Instructions | 1       |

```
      00 01 02 03 04 05 06 07  08 09 0A 0B 0C 0D 0E 0F
      -- -- -- -- -- -- -- --  -- -- -- -- -- -- -- --
0120:    00                                              .              
```

#### Opcodes

```
  0: 0x0121 [0x00] END_REQSTACK()
```

### Event 65535.20

#### Metadata

| Field        | Value   |
|--------------|---------|
| Entrypoint   | 0x0122  |
| Data Size    | 1 bytes |
| Instructions | 1       |

```
      00 01 02 03 04 05 06 07  08 09 0A 0B 0C 0D 0E 0F
      -- -- -- -- -- -- -- --  -- -- -- -- -- -- -- --
0120:       00                                            .             
```

#### Opcodes

```
  0: 0x0122 [0x00] END_REQSTACK()
```

### Event 65535.21

#### Metadata

| Field        | Value   |
|--------------|---------|
| Entrypoint   | 0x0123  |
| Data Size    | 1 bytes |
| Instructions | 1       |

```
      00 01 02 03 04 05 06 07  08 09 0A 0B 0C 0D 0E 0F
      -- -- -- -- -- -- -- --  -- -- -- -- -- -- -- --
0120:          00                                          .            
```

#### Opcodes

```
  0: 0x0123 [0x00] END_REQSTACK()
```

### Event 65535.22

#### Metadata

| Field        | Value    |
|--------------|----------|
| Entrypoint   | 0x0124   |
| Data Size    | 10 bytes |
| Instructions | 2        |

```
      00 01 02 03 04 05 06 07  08 09 0A 0B 0C 0D 0E 0F
      -- -- -- -- -- -- -- --  -- -- -- -- -- -- -- --
0120:             37 03 80 04  80 05 80 06 80 00            7.........  
```

#### Opcodes

```
  0: 0x0124 [0x37] UPDATE_EVENT_POSITION_AND_DIR: x=-5.096*, z=-10.234*, y=0.000*, direction=125.9°*
  1: 0x012D [0x00] END_REQSTACK()
```

### Event 65535.23

#### Metadata

| Field        | Value    |
|--------------|----------|
| Entrypoint   | 0x012E   |
| Data Size    | 10 bytes |
| Instructions | 2        |

```
      00 01 02 03 04 05 06 07  08 09 0A 0B 0C 0D 0E 0F
      -- -- -- -- -- -- -- --  -- -- -- -- -- -- -- --
0120:                                            37 07                7.
0130: 80 08 80 05 80 09 80 00                           ........        
```

#### Opcodes

```
  0: 0x012E [0x37] UPDATE_EVENT_POSITION_AND_DIR: x=-1.139*, z=-5.775*, y=0.000*, direction=351.6°*
  1: 0x0137 [0x00] END_REQSTACK()
```

### Event 65535.24

#### Metadata

| Field        | Value    |
|--------------|----------|
| Entrypoint   | 0x0138   |
| Data Size    | 14 bytes |
| Instructions | 4        |

```
      00 01 02 03 04 05 06 07  08 09 0A 0B 0C 0D 0E 0F
      -- -- -- -- -- -- -- --  -- -- -- -- -- -- -- --
0130:                          32 0A 80 1F 00 0B 80 0C          2.......
0140: 80 05 80 1F 01 00                                 ......          
```

#### Opcodes

```
  0: 0x0138 [0x32] ExtData[1]->MainSpeed = 13* * 0.1
  1: 0x013B [0x1F] MOVE_ENTITY: EventEntity moves to X=-1.400*, Z=-8.773*, Y=0.000*
  2: 0x0143 [0x1F] MOVE_ENTITY: Update entity position (mode=1)
  3: 0x0145 [0x00] END_REQSTACK()
```

### Event 65535.25

#### Metadata

| Field        | Value    |
|--------------|----------|
| Entrypoint   | 0x0146   |
| Data Size    | 14 bytes |
| Instructions | 4        |

```
      00 01 02 03 04 05 06 07  08 09 0A 0B 0C 0D 0E 0F
      -- -- -- -- -- -- -- --  -- -- -- -- -- -- -- --
0140:                   32 0A  80 1F 00 07 80 08 80 05        2.........
0150: 80 1F 01 00                                       ....            
```

#### Opcodes

```
  0: 0x0146 [0x32] ExtData[1]->MainSpeed = 13* * 0.1
  1: 0x0149 [0x1F] MOVE_ENTITY: EventEntity moves to X=-1.139*, Z=-5.775*, Y=0.000*
  2: 0x0151 [0x1F] MOVE_ENTITY: Update entity position (mode=1)
  3: 0x0153 [0x00] END_REQSTACK()
```

### Event 65535.26

#### Metadata

| Field        | Value    |
|--------------|----------|
| Entrypoint   | 0x0154   |
| Data Size    | 14 bytes |
| Instructions | 4        |

```
      00 01 02 03 04 05 06 07  08 09 0A 0B 0C 0D 0E 0F
      -- -- -- -- -- -- -- --  -- -- -- -- -- -- -- --
0150:             32 0A 80 1F  00 07 80 0D 80 05 80 1F      2...........
0160: 01 00                                             ..              
```

#### Opcodes

```
  0: 0x0154 [0x32] ExtData[1]->MainSpeed = 13* * 0.1
  1: 0x0157 [0x1F] MOVE_ENTITY: EventEntity moves to X=-1.139*, Z=10.287*, Y=0.000*
  2: 0x015F [0x1F] MOVE_ENTITY: Update entity position (mode=1)
  3: 0x0161 [0x00] END_REQSTACK()
```

### Event 65535.27

#### Metadata

| Field        | Value   |
|--------------|---------|
| Entrypoint   | 0x0162  |
| Data Size    | 5 bytes |
| Instructions | 3       |

```
      00 01 02 03 04 05 06 07  08 09 0A 0B 0C 0D 0E 0F
      -- -- -- -- -- -- -- --  -- -- -- -- -- -- -- --
0160:       1D 0E 80 23 00                                ...#.         
```

#### Opcodes

```
  0: 0x0162 [0x1D] PRINT_EVENT_MESSAGE(message_id=12503*)
    → "Say, are you an adventurer?"
  1: 0x0165 [0x23] WAIT_FOR_DIALOG_INTERACTION
  2: 0x0166 [0x00] END_REQSTACK()
```

### Event 65535.28

#### Metadata

| Field        | Value   |
|--------------|---------|
| Entrypoint   | 0x0167  |
| Data Size    | 5 bytes |
| Instructions | 3       |

```
      00 01 02 03 04 05 06 07  08 09 0A 0B 0C 0D 0E 0F
      -- -- -- -- -- -- -- --  -- -- -- -- -- -- -- --
0160:                      1D  0F 80 23 00                     ...#.    
```

#### Opcodes

```
  0: 0x0167 [0x1D] PRINT_EVENT_MESSAGE(message_id=12504*)
    → "My name is Rochefogne, and I am an adventurer, too. I have just arrived at San d'Oria..."
  1: 0x016A [0x23] WAIT_FOR_DIALOG_INTERACTION
  2: 0x016B [0x00] END_REQSTACK()
```

### Event 65535.29

#### Metadata

| Field        | Value   |
|--------------|---------|
| Entrypoint   | 0x016C  |
| Data Size    | 5 bytes |
| Instructions | 3       |

```
      00 01 02 03 04 05 06 07  08 09 0A 0B 0C 0D 0E 0F
      -- -- -- -- -- -- -- --  -- -- -- -- -- -- -- --
0160:                                      1D 10 80 23              ...#
0170: 00                                                .               
```

#### Opcodes

```
  0: 0x016C [0x1D] PRINT_EVENT_MESSAGE(message_id=12505*)
    → "And already I am struck at how little has changed! Time has no dominion over this city."
  1: 0x016F [0x23] WAIT_FOR_DIALOG_INTERACTION
  2: 0x0170 [0x00] END_REQSTACK()
```

### Event 65535.30

#### Metadata

| Field        | Value   |
|--------------|---------|
| Entrypoint   | 0x0171  |
| Data Size    | 5 bytes |
| Instructions | 3       |

```
      00 01 02 03 04 05 06 07  08 09 0A 0B 0C 0D 0E 0F
      -- -- -- -- -- -- -- --  -- -- -- -- -- -- -- --
0170:    1D 11 80 23 00                                  ...#.          
```

#### Opcodes

```
  0: 0x0171 [0x1D] PRINT_EVENT_MESSAGE(message_id=12506*)
    → "Can you see the great cathedral yonder? Faithful San d'Orians gather there still in worship to the Goddess of the Dawn."
  1: 0x0174 [0x23] WAIT_FOR_DIALOG_INTERACTION
  2: 0x0175 [0x00] END_REQSTACK()
```

### Event 65535.31

#### Metadata

| Field        | Value   |
|--------------|---------|
| Entrypoint   | 0x0176  |
| Data Size    | 5 bytes |
| Instructions | 3       |

```
      00 01 02 03 04 05 06 07  08 09 0A 0B 0C 0D 0E 0F
      -- -- -- -- -- -- -- --  -- -- -- -- -- -- -- --
0170:                   1D 12  80 23 00                       ...#.     
```

#### Opcodes

```
  0: 0x0176 [0x1D] PRINT_EVENT_MESSAGE(message_id=12507*)
    → "And behold its balcony! Could the papsque still rise there to grant benedictions?"
  1: 0x0179 [0x23] WAIT_FOR_DIALOG_INTERACTION
  2: 0x017A [0x00] END_REQSTACK()
```

### Event 65535.32

#### Metadata

| Field        | Value   |
|--------------|---------|
| Entrypoint   | 0x017B  |
| Data Size    | 5 bytes |
| Instructions | 3       |

```
      00 01 02 03 04 05 06 07  08 09 0A 0B 0C 0D 0E 0F
      -- -- -- -- -- -- -- --  -- -- -- -- -- -- -- --
0170:                                   1D 13 80 23 00             ...#.
```

#### Opcodes

```
  0: 0x017B [0x1D] PRINT_EVENT_MESSAGE(message_id=12508*)
    → "Hmm? And they must be Royal Knights..."
  1: 0x017E [0x23] WAIT_FOR_DIALOG_INTERACTION
  2: 0x017F [0x00] END_REQSTACK()
```

### Event 65535.33

#### Metadata

| Field        | Value   |
|--------------|---------|
| Entrypoint   | 0x0180  |
| Data Size    | 5 bytes |
| Instructions | 3       |

```
      00 01 02 03 04 05 06 07  08 09 0A 0B 0C 0D 0E 0F
      -- -- -- -- -- -- -- --  -- -- -- -- -- -- -- --
0180: 1D 14 80 23 00                                    ...#.           
```

#### Opcodes

```
  0: 0x0180 [0x1D] PRINT_EVENT_MESSAGE(message_id=12510*)
    → "You, too, must learn the difference between the Temple Knights and the Royal Knights, if you are to bear San d'Orian citizenship!"
  1: 0x0183 [0x23] WAIT_FOR_DIALOG_INTERACTION
  2: 0x0184 [0x00] END_REQSTACK()
```

### Event 65535.34

#### Metadata

| Field        | Value   |
|--------------|---------|
| Entrypoint   | 0x0185  |
| Data Size    | 5 bytes |
| Instructions | 3       |

```
      00 01 02 03 04 05 06 07  08 09 0A 0B 0C 0D 0E 0F
      -- -- -- -- -- -- -- --  -- -- -- -- -- -- -- --
0180:                1D 15 80  23 00                         ...#.      
```

#### Opcodes

```
  0: 0x0185 [0x1D] PRINT_EVENT_MESSAGE(message_id=12511*)
    → "The Temple Knights shield the capital, while the Royal Knights strike at our foes!"
  1: 0x0188 [0x23] WAIT_FOR_DIALOG_INTERACTION
  2: 0x0189 [0x00] END_REQSTACK()
```

### Event 65535.35

#### Metadata

| Field        | Value   |
|--------------|---------|
| Entrypoint   | 0x018A  |
| Data Size    | 5 bytes |
| Instructions | 3       |

```
      00 01 02 03 04 05 06 07  08 09 0A 0B 0C 0D 0E 0F
      -- -- -- -- -- -- -- --  -- -- -- -- -- -- -- --
0180:                                1D 16 80 23 00               ...#. 
```

#### Opcodes

```
  0: 0x018A [0x1D] PRINT_EVENT_MESSAGE(message_id=12513*)
    → "Yes, Trion... Of him I have heard naught for ages. I do hope the princes are well."
  1: 0x018D [0x23] WAIT_FOR_DIALOG_INTERACTION
  2: 0x018E [0x00] END_REQSTACK()
```

### Event 65535.36

#### Metadata

| Field        | Value   |
|--------------|---------|
| Entrypoint   | 0x018F  |
| Data Size    | 5 bytes |
| Instructions | 3       |

```
      00 01 02 03 04 05 06 07  08 09 0A 0B 0C 0D 0E 0F
      -- -- -- -- -- -- -- --  -- -- -- -- -- -- -- --
0180:                                               1D                 .
0190: 17 80 23 00                                       ..#.            
```

#### Opcodes

```
  0: 0x018F [0x1D] PRINT_EVENT_MESSAGE(message_id=12514*)
    → "And Princess Claidie! Fair is said to be the younger sister of Trion and Pieuje. Perhaps someday I may meet her!"
  1: 0x0192 [0x23] WAIT_FOR_DIALOG_INTERACTION
  2: 0x0193 [0x00] END_REQSTACK()
```

### Event 65535.37

#### Metadata

| Field        | Value   |
|--------------|---------|
| Entrypoint   | 0x0194  |
| Data Size    | 5 bytes |
| Instructions | 3       |

```
      00 01 02 03 04 05 06 07  08 09 0A 0B 0C 0D 0E 0F
      -- -- -- -- -- -- -- --  -- -- -- -- -- -- -- --
0190:             1D 18 80 23  00                           ...#.       
```

#### Opcodes

```
  0: 0x0194 [0x1D] PRINT_EVENT_MESSAGE(message_id=12515*)
    → "But, I ramble. Many pardons!"
  1: 0x0197 [0x23] WAIT_FOR_DIALOG_INTERACTION
  2: 0x0198 [0x00] END_REQSTACK()
```

### Event 65535.38

#### Metadata

| Field        | Value    |
|--------------|----------|
| Entrypoint   | 0x0199   |
| Data Size    | 17 bytes |
| Instructions | 5        |

```
      00 01 02 03 04 05 06 07  08 09 0A 0B 0C 0D 0E 0F
      -- -- -- -- -- -- -- --  -- -- -- -- -- -- -- --
0190:                             6E F8 FF FF 7F 19 80           n......
01A0: 99 F8 FF FF 7F 1D 1A 80  23 00                    ........#.      
```

#### Opcodes

```
  0: 0x0199 [0x6E] EventEntity uses emote 6*
  1: 0x01A0 [0x99] Wait for EventEntity animation to complete
  2: 0x01A5 [0x1D] PRINT_EVENT_MESSAGE(message_id=12516*)
    → "So long have I been away that my head races. Please, let me hear your questions."
  3: 0x01A8 [0x23] WAIT_FOR_DIALOG_INTERACTION
  4: 0x01A9 [0x00] END_REQSTACK()
```

### Event 65535.39

#### Metadata

| Field        | Value   |
|--------------|---------|
| Entrypoint   | 0x01AA  |
| Data Size    | 5 bytes |
| Instructions | 3       |

```
      00 01 02 03 04 05 06 07  08 09 0A 0B 0C 0D 0E 0F
      -- -- -- -- -- -- -- --  -- -- -- -- -- -- -- --
01A0:                                1D 1B 80 23 00               ...#. 
```

#### Opcodes

```
  0: 0x01AA [0x1D] PRINT_EVENT_MESSAGE(message_id=12518*)
    → "Should you wish to leave the city from here in Northern San d'Oria, you must pass through Ranperre Gate to the west."
  1: 0x01AD [0x23] WAIT_FOR_DIALOG_INTERACTION
  2: 0x01AE [0x00] END_REQSTACK()
```

### Event 65535.40

#### Metadata

| Field        | Value   |
|--------------|---------|
| Entrypoint   | 0x01AF  |
| Data Size    | 5 bytes |
| Instructions | 3       |

```
      00 01 02 03 04 05 06 07  08 09 0A 0B 0C 0D 0E 0F
      -- -- -- -- -- -- -- --  -- -- -- -- -- -- -- --
01A0:                                               1D                 .
01B0: 1C 80 23 00                                       ..#.            
```

#### Opcodes

```
  0: 0x01AF [0x1D] PRINT_EVENT_MESSAGE(message_id=12519*)
    → "You surely must have a map of this city, but hear my directions anyway."
  1: 0x01B2 [0x23] WAIT_FOR_DIALOG_INTERACTION
  2: 0x01B3 [0x00] END_REQSTACK()
```

### Event 65535.41

#### Metadata

| Field        | Value   |
|--------------|---------|
| Entrypoint   | 0x01B4  |
| Data Size    | 5 bytes |
| Instructions | 3       |

```
      00 01 02 03 04 05 06 07  08 09 0A 0B 0C 0D 0E 0F
      -- -- -- -- -- -- -- --  -- -- -- -- -- -- -- --
01B0:             1D 1D 80 23  00                           ...#.       
```

#### Opcodes

```
  0: 0x01B4 [0x1D] PRINT_EVENT_MESSAGE(message_id=12520*)
    → "First, walk west from the Parade Grounds upon which we now stand."
  1: 0x01B7 [0x23] WAIT_FOR_DIALOG_INTERACTION
  2: 0x01B8 [0x00] END_REQSTACK()
```

### Event 65535.42

#### Metadata

| Field        | Value   |
|--------------|---------|
| Entrypoint   | 0x01B9  |
| Data Size    | 5 bytes |
| Instructions | 3       |

```
      00 01 02 03 04 05 06 07  08 09 0A 0B 0C 0D 0E 0F
      -- -- -- -- -- -- -- --  -- -- -- -- -- -- -- --
01B0:                             1D 1E 80 23 00                 ...#.  
```

#### Opcodes

```
  0: 0x01B9 [0x1D] PRINT_EVENT_MESSAGE(message_id=12521*)
    → "Pass through the gate, and follow the road past the furniture shop and the inn."
  1: 0x01BC [0x23] WAIT_FOR_DIALOG_INTERACTION
  2: 0x01BD [0x00] END_REQSTACK()
```

### Event 65535.43

#### Metadata

| Field        | Value   |
|--------------|---------|
| Entrypoint   | 0x01BE  |
| Data Size    | 5 bytes |
| Instructions | 3       |

```
      00 01 02 03 04 05 06 07  08 09 0A 0B 0C 0D 0E 0F
      -- -- -- -- -- -- -- --  -- -- -- -- -- -- -- --
01B0:                                            1D 1F                ..
01C0: 80 23 00                                          .#.             
```

#### Opcodes

```
  0: 0x01BE [0x1D] PRINT_EVENT_MESSAGE(message_id=12522*)
    → "Take the gate on your left, and make another left down the stairs. Soon Ranperre Gate will rise before you."
  1: 0x01C1 [0x23] WAIT_FOR_DIALOG_INTERACTION
  2: 0x01C2 [0x00] END_REQSTACK()
```

### Event 65535.44

#### Metadata

| Field        | Value   |
|--------------|---------|
| Entrypoint   | 0x01C3  |
| Data Size    | 5 bytes |
| Instructions | 3       |

```
      00 01 02 03 04 05 06 07  08 09 0A 0B 0C 0D 0E 0F
      -- -- -- -- -- -- -- --  -- -- -- -- -- -- -- --
01C0:          1D 20 80 23 00                              . .#.        
```

#### Opcodes

```
  0: 0x01C3 [0x1D] PRINT_EVENT_MESSAGE(message_id=12524*)
    → "For weaponry, ask at the weapon shop in the northwest corner of Northern San d'Oria. Upon your map is written a sword. That is the place."
  1: 0x01C6 [0x23] WAIT_FOR_DIALOG_INTERACTION
  2: 0x01C7 [0x00] END_REQSTACK()
```

### Event 65535.45

#### Metadata

| Field        | Value   |
|--------------|---------|
| Entrypoint   | 0x01C8  |
| Data Size    | 5 bytes |
| Instructions | 3       |

```
      00 01 02 03 04 05 06 07  08 09 0A 0B 0C 0D 0E 0F
      -- -- -- -- -- -- -- --  -- -- -- -- -- -- -- --
01C0:                          1D 21 80 23 00                   .!.#.   
```

#### Opcodes

```
  0: 0x01C8 [0x1D] PRINT_EVENT_MESSAGE(message_id=12526*)
    → "If you seek magic, go northwest. Near the Carpenters' Guild is the gate that opens to Port San d'Oria. Look for a scroll on your map to find the magic shop."
  1: 0x01CB [0x23] WAIT_FOR_DIALOG_INTERACTION
  2: 0x01CC [0x00] END_REQSTACK()
```

### Event 65535.46

#### Metadata

| Field        | Value   |
|--------------|---------|
| Entrypoint   | 0x01CD  |
| Data Size    | 5 bytes |
| Instructions | 3       |

```
      00 01 02 03 04 05 06 07  08 09 0A 0B 0C 0D 0E 0F
      -- -- -- -- -- -- -- --  -- -- -- -- -- -- -- --
01C0:                                         1D 22 80               .".
01D0: 23 00                                             #.              
```

#### Opcodes

```
  0: 0x01CD [0x1D] PRINT_EVENT_MESSAGE(message_id=12527*)
    → "For money, townsfolk may give you a reward for helping them. You could also hunt monsters and sell the bounty to merchants in town."
  1: 0x01D0 [0x23] WAIT_FOR_DIALOG_INTERACTION
  2: 0x01D1 [0x00] END_REQSTACK()
```

### Event 65535.47

#### Metadata

| Field        | Value   |
|--------------|---------|
| Entrypoint   | 0x01D2  |
| Data Size    | 5 bytes |
| Instructions | 3       |

```
      00 01 02 03 04 05 06 07  08 09 0A 0B 0C 0D 0E 0F
      -- -- -- -- -- -- -- --  -- -- -- -- -- -- -- --
01D0:       1D 23 80 23 00                                .#.#.         
```

#### Opcodes

```
  0: 0x01D2 [0x1D] PRINT_EVENT_MESSAGE(message_id=12528*)
    → "Spoken like an adventurer! What do you seek to know?"
  1: 0x01D5 [0x23] WAIT_FOR_DIALOG_INTERACTION
  2: 0x01D6 [0x00] END_REQSTACK()
```

### Event 65535.48

#### Metadata

| Field        | Value   |
|--------------|---------|
| Entrypoint   | 0x01D7  |
| Data Size    | 5 bytes |
| Instructions | 3       |

```
      00 01 02 03 04 05 06 07  08 09 0A 0B 0C 0D 0E 0F
      -- -- -- -- -- -- -- --  -- -- -- -- -- -- -- --
01D0:                      1D  24 80 23 00                     .$.#.    
```

#### Opcodes

```
  0: 0x01D7 [0x1D] PRINT_EVENT_MESSAGE(message_id=12530*)
    → "Helping people, eh? Come to think of it, I saw a lady pacing back and forth before a house in Southern San d'Oria."
  1: 0x01DA [0x23] WAIT_FOR_DIALOG_INTERACTION
  2: 0x01DB [0x00] END_REQSTACK()
```

### Event 65535.49

#### Metadata

| Field        | Value   |
|--------------|---------|
| Entrypoint   | 0x01DC  |
| Data Size    | 5 bytes |
| Instructions | 3       |

```
      00 01 02 03 04 05 06 07  08 09 0A 0B 0C 0D 0E 0F
      -- -- -- -- -- -- -- --  -- -- -- -- -- -- -- --
01D0:                                      1D 25 80 23              .%.#
01E0: 00                                                .               
```

#### Opcodes

```
  0: 0x01DC [0x1D] PRINT_EVENT_MESSAGE(message_id=12533*)
    → "You seem confident of yourself. I am much relieved."
  1: 0x01DF [0x23] WAIT_FOR_DIALOG_INTERACTION
  2: 0x01E0 [0x00] END_REQSTACK()
```

### Event 65535.50

#### Metadata

| Field        | Value   |
|--------------|---------|
| Entrypoint   | 0x01E1  |
| Data Size    | 5 bytes |
| Instructions | 3       |

```
      00 01 02 03 04 05 06 07  08 09 0A 0B 0C 0D 0E 0F
      -- -- -- -- -- -- -- --  -- -- -- -- -- -- -- --
01E0:    1D 26 80 23 00                                  .&.#.          
```

#### Opcodes

```
  0: 0x01E1 [0x1D] PRINT_EVENT_MESSAGE(message_id=12535*)
    → "Maybe you could instead? Walk through Victory Arch behind you to enter Southern San d'Oria. Then, head west to reach the Tanners' Guild."
  1: 0x01E4 [0x23] WAIT_FOR_DIALOG_INTERACTION
  2: 0x01E5 [0x00] END_REQSTACK()
```

### Event 65535.51

#### Metadata

| Field        | Value   |
|--------------|---------|
| Entrypoint   | 0x01E6  |
| Data Size    | 5 bytes |
| Instructions | 3       |

```
      00 01 02 03 04 05 06 07  08 09 0A 0B 0C 0D 0E 0F
      -- -- -- -- -- -- -- --  -- -- -- -- -- -- -- --
01E0:                   1D 27  80 23 00                       .'.#.     
```

#### Opcodes

```
  0: 0x01E6 [0x1D] PRINT_EVENT_MESSAGE(message_id=12536*)
    → "New weapons and armor can cost a fortune."
  1: 0x01E9 [0x23] WAIT_FOR_DIALOG_INTERACTION
  2: 0x01EA [0x00] END_REQSTACK()
```

### Event 65535.52

#### Metadata

| Field        | Value   |
|--------------|---------|
| Entrypoint   | 0x01EB  |
| Data Size    | 5 bytes |
| Instructions | 3       |

```
      00 01 02 03 04 05 06 07  08 09 0A 0B 0C 0D 0E 0F
      -- -- -- -- -- -- -- --  -- -- -- -- -- -- -- --
01E0:                                   1D 28 80 23 00             .(.#.
```

#### Opcodes

```
  0: 0x01EB [0x1D] PRINT_EVENT_MESSAGE(message_id=12538*)
    → "Laborman's Way lies north-west of us. Pass the furniture shop and the inn, and take the gate on the right. Laborman's Way opens beneath it."
  1: 0x01EE [0x23] WAIT_FOR_DIALOG_INTERACTION
  2: 0x01EF [0x00] END_REQSTACK()
```

### Event 65535.53

#### Metadata

| Field        | Value   |
|--------------|---------|
| Entrypoint   | 0x01F0  |
| Data Size    | 5 bytes |
| Instructions | 3       |

```
      00 01 02 03 04 05 06 07  08 09 0A 0B 0C 0D 0E 0F
      -- -- -- -- -- -- -- --  -- -- -- -- -- -- -- --
01F0: 1D 29 80 23 00                                    .).#.           
```

#### Opcodes

```
  0: 0x01F0 [0x1D] PRINT_EVENT_MESSAGE(message_id=12539*)
    → "To further San d'Oria's glory, you should undertake missions given from the gatehouses."
  1: 0x01F3 [0x23] WAIT_FOR_DIALOG_INTERACTION
  2: 0x01F4 [0x00] END_REQSTACK()
```

### Event 65535.54

#### Metadata

| Field        | Value   |
|--------------|---------|
| Entrypoint   | 0x01F5  |
| Data Size    | 5 bytes |
| Instructions | 3       |

```
      00 01 02 03 04 05 06 07  08 09 0A 0B 0C 0D 0E 0F
      -- -- -- -- -- -- -- --  -- -- -- -- -- -- -- --
01F0:                1D 2A 80  23 00                         .*.#.      
```

#### Opcodes

```
  0: 0x01F5 [0x1D] PRINT_EVENT_MESSAGE(message_id=12540*)
    → "They do not pay, but you can earn rank points as proof of your contributions to our kingdom."
  1: 0x01F8 [0x23] WAIT_FOR_DIALOG_INTERACTION
  2: 0x01F9 [0x00] END_REQSTACK()
```

### Event 65535.55

#### Metadata

| Field        | Value   |
|--------------|---------|
| Entrypoint   | 0x01FA  |
| Data Size    | 5 bytes |
| Instructions | 3       |

```
      00 01 02 03 04 05 06 07  08 09 0A 0B 0C 0D 0E 0F
      -- -- -- -- -- -- -- --  -- -- -- -- -- -- -- --
01F0:                                1D 2B 80 23 00               .+.#. 
```

#### Opcodes

```
  0: 0x01FA [0x1D] PRINT_EVENT_MESSAGE(message_id=12541*)
    → "With enough rank points, your rank will rise."
  1: 0x01FD [0x23] WAIT_FOR_DIALOG_INTERACTION
  2: 0x01FE [0x00] END_REQSTACK()
```

### Event 65535.56

#### Metadata

| Field        | Value   |
|--------------|---------|
| Entrypoint   | 0x01FF  |
| Data Size    | 5 bytes |
| Instructions | 3       |

```
      00 01 02 03 04 05 06 07  08 09 0A 0B 0C 0D 0E 0F
      -- -- -- -- -- -- -- --  -- -- -- -- -- -- -- --
01F0:                                               1D                 .
0200: 2C 80 23 00                                       ,.#.            
```

#### Opcodes

```
  0: 0x01FF [0x1D] PRINT_EVENT_MESSAGE(message_id=12542*)
    → "And with higher rank comes greater opportunity. Those of high rank are granted tasks that decide the fate of the Kingdom!"
  1: 0x0202 [0x23] WAIT_FOR_DIALOG_INTERACTION
  2: 0x0203 [0x00] END_REQSTACK()
```

### Event 65535.57

#### Metadata

| Field        | Value   |
|--------------|---------|
| Entrypoint   | 0x0204  |
| Data Size    | 5 bytes |
| Instructions | 3       |

```
      00 01 02 03 04 05 06 07  08 09 0A 0B 0C 0D 0E 0F
      -- -- -- -- -- -- -- --  -- -- -- -- -- -- -- --
0200:             1D 2D 80 23  00                           .-.#.       
```

#### Opcodes

```
  0: 0x0204 [0x1D] PRINT_EVENT_MESSAGE(message_id=12546*)
    → "Oh, before I forget... I give you this for your journeys. Show it to Matildie, who stands before the drawbridge to Chateau d'Oraguille."
  1: 0x0207 [0x23] WAIT_FOR_DIALOG_INTERACTION
  2: 0x0208 [0x00] END_REQSTACK()
```

### Event 65535.58

#### Metadata

| Field        | Value   |
|--------------|---------|
| Entrypoint   | 0x0209  |
| Data Size    | 5 bytes |
| Instructions | 3       |

```
      00 01 02 03 04 05 06 07  08 09 0A 0B 0C 0D 0E 0F
      -- -- -- -- -- -- -- --  -- -- -- -- -- -- -- --
0200:                             1D 2E 80 23 00                 ...#.  
```

#### Opcodes

```
  0: 0x0209 [0x1D] PRINT_EVENT_MESSAGE(message_id=12547*)
    → "However, know you of our tradition regarding the bequeathal of objects? Ere giving to others, we open the main menu and select "Trade.""
  1: 0x020C [0x23] WAIT_FOR_DIALOG_INTERACTION
  2: 0x020D [0x00] END_REQSTACK()
```

### Event 65535.59

#### Metadata

| Field        | Value   |
|--------------|---------|
| Entrypoint   | 0x020E  |
| Data Size    | 5 bytes |
| Instructions | 3       |

```
      00 01 02 03 04 05 06 07  08 09 0A 0B 0C 0D 0E 0F
      -- -- -- -- -- -- -- --  -- -- -- -- -- -- -- --
0200:                                            1D 2F                ./
0210: 80 23 00                                          .#.             
```

#### Opcodes

```
  0: 0x020E [0x1D] PRINT_EVENT_MESSAGE(message_id=12548*)
    → "Do not hesitate to ask other adventurers for help."
  1: 0x0211 [0x23] WAIT_FOR_DIALOG_INTERACTION
  2: 0x0212 [0x00] END_REQSTACK()
```

### Event 65535.60

#### Metadata

| Field        | Value   |
|--------------|---------|
| Entrypoint   | 0x0213  |
| Data Size    | 5 bytes |
| Instructions | 3       |

```
      00 01 02 03 04 05 06 07  08 09 0A 0B 0C 0D 0E 0F
      -- -- -- -- -- -- -- --  -- -- -- -- -- -- -- --
0210:          1D 30 80 23 00                              .0.#.        
```

#### Opcodes

```
  0: 0x0213 [0x1D] PRINT_EVENT_MESSAGE(message_id=12549*)
    → "Now, I must go and seek entrance to the castle. May we meet again, <Player>!"
  1: 0x0216 [0x23] WAIT_FOR_DIALOG_INTERACTION
  2: 0x0217 [0x00] END_REQSTACK()
```

### Event 1020

#### Metadata

| Field        | Value   |
|--------------|---------|
| Entrypoint   | 0x0218  |
| Data Size    | 1 bytes |
| Instructions | 1       |

```
      00 01 02 03 04 05 06 07  08 09 0A 0B 0C 0D 0E 0F
      -- -- -- -- -- -- -- --  -- -- -- -- -- -- -- --
0210:                          00                               .       
```

#### Opcodes

```
  0: 0x0218 [0x00] END_REQSTACK()
```

### Event 65535.61

#### Metadata

| Field        | Value    |
|--------------|----------|
| Entrypoint   | 0x0219   |
| Data Size    | 10 bytes |
| Instructions | 2        |

```
      00 01 02 03 04 05 06 07  08 09 0A 0B 0C 0D 0E 0F
      -- -- -- -- -- -- -- --  -- -- -- -- -- -- -- --
0210:                             37 31 80 32 80 33 80           71.2.3.
0220: 34 80 00                                          4..             
```

#### Opcodes

```
  0: 0x0219 [0x37] UPDATE_EVENT_POSITION_AND_DIR: x=-235.432*, z=58.734*, y=7.999*, direction=151.2°*
  1: 0x0222 [0x00] END_REQSTACK()
```

### Event 65535.62

#### Metadata

| Field        | Value    |
|--------------|----------|
| Entrypoint   | 0x0223   |
| Data Size    | 29 bytes |
| Instructions | 7        |

```
      00 01 02 03 04 05 06 07  08 09 0A 0B 0C 0D 0E 0F
      -- -- -- -- -- -- -- --  -- -- -- -- -- -- -- --
0220:          32 0A 80 1F 00  35 80 36 80 33 80 1F 01     2....5.6.3...
0230: 4A C5 70 0E 01 22 70 0E  01 6F 76 C5 70 0E 01 00  J.p.."p..ov.p...
```

#### Opcodes

```
  0: 0x0223 [0x32] ExtData[1]->MainSpeed = 13* * 0.1
  1: 0x0226 [0x1F] MOVE_ENTITY: EventEntity moves to X=-237.552*, Z=59.250*, Y=7.999*
  2: 0x022E [0x1F] MOVE_ENTITY: Update entity position (mode=1)
  3: 0x0230 [0x4A] Rochefogne (ID: 17723589/0x010E70C5) looks at Grilau (ID: 17723426/0x010E7022)
  4: 0x0239 [0x6F] WAIT_FRAME_DELAY: Yield until WaitTime reaches zero
  5: 0x023A [0x76] CHECK_ENTITY_RENDER_FLAGS: Wait until Rochefogne (ID: 17723589/0x010E70C5) Render.Flags0 and Render.Flags3 conditions are met
  6: 0x023F [0x00] END_REQSTACK()
```

### Event 65535.63

#### Metadata

| Field        | Value    |
|--------------|----------|
| Entrypoint   | 0x0240   |
| Data Size    | 11 bytes |
| Instructions | 3        |

```
      00 01 02 03 04 05 06 07  08 09 0A 0B 0C 0D 0E 0F
      -- -- -- -- -- -- -- --  -- -- -- -- -- -- -- --
0240: 1F 00 37 80 38 80 33 80  1F 01 00                 ..7.8.3....     
```

#### Opcodes

```
  0: 0x0240 [0x1F] MOVE_ENTITY: EventEntity moves to X=-240.244*, Z=59.172*, Y=7.999*
  1: 0x0248 [0x1F] MOVE_ENTITY: Update entity position (mode=1)
  2: 0x024A [0x00] END_REQSTACK()
```

### Event 65535.64

#### Metadata

| Field        | Value    |
|--------------|----------|
| Entrypoint   | 0x024B   |
| Data Size    | 21 bytes |
| Instructions | 5        |

```
      00 01 02 03 04 05 06 07  08 09 0A 0B 0C 0D 0E 0F
      -- -- -- -- -- -- -- --  -- -- -- -- -- -- -- --
0240:                                   1F 00 39 80 3A             ..9.:
0250: 80 33 80 1F 01 1F 00 3B  80 3C 80 33 80 1F 01 00  .3.....;.<.3....
```

#### Opcodes

```
  0: 0x024B [0x1F] MOVE_ENTITY: EventEntity moves to X=-238.194*, Z=56.902*, Y=7.999*
  1: 0x0253 [0x1F] MOVE_ENTITY: Update entity position (mode=1)
  2: 0x0255 [0x1F] MOVE_ENTITY: EventEntity moves to X=-237.906*, Z=48.938*, Y=7.999*
  3: 0x025D [0x1F] MOVE_ENTITY: Update entity position (mode=1)
  4: 0x025F [0x00] END_REQSTACK()
```

### Event 65535.65

#### Metadata

| Field        | Value   |
|--------------|---------|
| Entrypoint   | 0x0260  |
| Data Size    | 5 bytes |
| Instructions | 3       |

```
      00 01 02 03 04 05 06 07  08 09 0A 0B 0C 0D 0E 0F
      -- -- -- -- -- -- -- --  -- -- -- -- -- -- -- --
0260: 1D 3D 80 23 00                                    .=.#.           
```

#### Opcodes

```
  0: 0x0260 [0x1D] PRINT_EVENT_MESSAGE(message_id=12590*)
    → "Lord knight, forgive this interruption, but there is something I must ask of you."
  1: 0x0263 [0x23] WAIT_FOR_DIALOG_INTERACTION
  2: 0x0264 [0x00] END_REQSTACK()
```

### Event 65535.66

#### Metadata

| Field        | Value    |
|--------------|----------|
| Entrypoint   | 0x0265   |
| Data Size    | 19 bytes |
| Instructions | 5        |

```
      00 01 02 03 04 05 06 07  08 09 0A 0B 0C 0D 0E 0F
      -- -- -- -- -- -- -- --  -- -- -- -- -- -- -- --
0260:                29 08 C5  70 0E 01 12 1D 3E 80 23       )..p....>.#
0270: 29 08 C5 70 0E 01 13 00                           )..p....        
```

#### Opcodes

```
  0: 0x0265 [0x29] REQ_SET_WAIT(priority=0x08, entity_id=Rochefogne (ID: 17723589/0x010E70C5), tag_num=0x12)
  1: 0x026C [0x1D] PRINT_EVENT_MESSAGE(message_id=12591*)
    → "I question whether Queen Leaute truly passed away fifteen years past. Tell me, of what cause did she die?"
  2: 0x026F [0x23] WAIT_FOR_DIALOG_INTERACTION
  3: 0x0270 [0x29] REQ_SET_WAIT(priority=0x08, entity_id=Rochefogne (ID: 17723589/0x010E70C5), tag_num=0x13)
  4: 0x0277 [0x00] END_REQSTACK()
```

### Event 65535.67

#### Metadata

| Field        | Value   |
|--------------|---------|
| Entrypoint   | 0x0278  |
| Data Size    | 5 bytes |
| Instructions | 3       |

```
      00 01 02 03 04 05 06 07  08 09 0A 0B 0C 0D 0E 0F
      -- -- -- -- -- -- -- --  -- -- -- -- -- -- -- --
0270:                          1D 3F 80 23 00                   .?.#.   
```

#### Opcodes

```
  0: 0x0278 [0x1D] PRINT_EVENT_MESSAGE(message_id=12593*)
    → "Please, I have traveled from afar to see Her Highness!"
  1: 0x027B [0x23] WAIT_FOR_DIALOG_INTERACTION
  2: 0x027C [0x00] END_REQSTACK()
```

### Event 65535.68

#### Metadata

| Field        | Value    |
|--------------|----------|
| Entrypoint   | 0x027D   |
| Data Size    | 17 bytes |
| Instructions | 5        |

```
      00 01 02 03 04 05 06 07  08 09 0A 0B 0C 0D 0E 0F
      -- -- -- -- -- -- -- --  -- -- -- -- -- -- -- --
0270:                                         7C 00 F8               |..
0280: FF FF 7F 1D 40 80 23 7C  01 F8 FF FF 7F 00        ....@.#|......  
```

#### Opcodes

```
  0: 0x027D [0x7C] EventEntity->Render.Flags2 |= 0x00
  1: 0x0283 [0x1D] PRINT_EVENT_MESSAGE(message_id=12598*)
    → "Er..."
  2: 0x0286 [0x23] WAIT_FOR_DIALOG_INTERACTION
  3: 0x0287 [0x7C] EventEntity->Render.Flags2 |= 0x01
  4: 0x028D [0x00] END_REQSTACK()
```

### Event 65535.69

#### Metadata

| Field        | Value   |
|--------------|---------|
| Entrypoint   | 0x028E  |
| Data Size    | 5 bytes |
| Instructions | 3       |

```
      00 01 02 03 04 05 06 07  08 09 0A 0B 0C 0D 0E 0F
      -- -- -- -- -- -- -- --  -- -- -- -- -- -- -- --
0280:                                            1D 41                .A
0290: 80 23 00                                          .#.             
```

#### Opcodes

```
  0: 0x028E [0x1D] PRINT_EVENT_MESSAGE(message_id=12601*)
    → "Is that so? Well, I thank you for your kindness, proud knight of San d'Oria."
  1: 0x0291 [0x23] WAIT_FOR_DIALOG_INTERACTION
  2: 0x0292 [0x00] END_REQSTACK()
```

### Event 16

#### Metadata

| Field        | Value    |
|--------------|----------|
| Entrypoint   | 0x0293   |
| Data Size    | 10 bytes |
| Instructions | 2        |

```
      00 01 02 03 04 05 06 07  08 09 0A 0B 0C 0D 0E 0F
      -- -- -- -- -- -- -- --  -- -- -- -- -- -- -- --
0290:          37 42 80 43 80  44 80 45 80 00              7B.C.D.E..   
```

#### Opcodes

```
  0: 0x0293 [0x37] UPDATE_EVENT_POSITION_AND_DIR: x=93.662*, z=78.158*, y=1.749*, direction=265.9°*
  1: 0x029C [0x00] END_REQSTACK()
```

### Event 65535.70

#### Metadata

| Field        | Value    |
|--------------|----------|
| Entrypoint   | 0x029D   |
| Data Size    | 39 bytes |
| Instructions | 9        |

```
      00 01 02 03 04 05 06 07  08 09 0A 0B 0C 0D 0E 0F
      -- -- -- -- -- -- -- --  -- -- -- -- -- -- -- --
0290:                                         32 0A 80               2..
02A0: 45 46 80 F0 FF FF 7F F0  FF FF 7F 78 30 30 31 05  EF.........x001.
02B0: 80 1F 00 47 80 48 80 44  80 1F 01 6F 1E 04 70 0E  ...G.H.D...o..p.
02C0: 01 6F 70 00                                       .op.            
```

#### Opcodes

```
  0: 0x029D [0x32] ExtData[1]->MainSpeed = 13* * 0.1
  1: 0x02A0 [0x45] LOAD_SCHEDULED_TASK: Load scheduler "x001" with entities [LocalPlayer, LocalPlayer], work=[241*, 0*]
  2: 0x02B1 [0x1F] MOVE_ENTITY: EventEntity moves to X=92.621*, Z=84.488*, Y=1.749*
  3: 0x02B9 [0x1F] MOVE_ENTITY: Update entity position (mode=1)
  4: 0x02BB [0x6F] WAIT_FRAME_DELAY: Yield until WaitTime reaches zero
  5: 0x02BC [0x1E] EventEntity looks at Claidie (ID: 17723396/0x010E7004) and starts talking
  6: 0x02C1 [0x6F] WAIT_FRAME_DELAY: Yield until WaitTime reaches zero
  7: 0x02C2 [0x70] WAIT_ENTITY_RENDER_FLAG: Wait while EventEntity->Render.Flags3 bit 2 is set (cancel turn if not)
  8: 0x02C3 [0x00] END_REQSTACK()
```

### Event 65535.71

#### Metadata

| Field        | Value    |
|--------------|----------|
| Entrypoint   | 0x02C4   |
| Data Size    | 16 bytes |
| Instructions | 5        |

```
      00 01 02 03 04 05 06 07  08 09 0A 0B 0C 0D 0E 0F
      -- -- -- -- -- -- -- --  -- -- -- -- -- -- -- --
02C0:             32 49 80 1F  00 4A 80 4B 80 05 80 1F      2I...J.K....
02D0: 01 22 01 00                                       ."..            
```

#### Opcodes

```
  0: 0x02C4 [0x32] ExtData[1]->MainSpeed = 40* * 0.1
  1: 0x02C7 [0x1F] MOVE_ENTITY: EventEntity moves to X=53.754*, Z=42.794*, Y=0.000*
  2: 0x02CF [0x1F] MOVE_ENTITY: Update entity position (mode=1)
  3: 0x02D1 [0x22] ENTITY_HIDE_FLAG(enabled=0x01)
  4: 0x02D3 [0x00] END_REQSTACK()
```

### Event 65535.72

#### Metadata

| Field        | Value    |
|--------------|----------|
| Entrypoint   | 0x02D4   |
| Data Size    | 29 bytes |
| Instructions | 3        |

```
      00 01 02 03 04 05 06 07  08 09 0A 0B 0C 0D 0E 0F
      -- -- -- -- -- -- -- --  -- -- -- -- -- -- -- --
02D0:             66 02 80 F8  FF FF 7F F8 FF FF 7F 64      f..........d
02E0: 69 73 30 53 F8 FF FF 7F  F8 FF FF 7F 64 69 73 30  is0S........dis0
02F0: 00                                                .               
```

#### Opcodes

```
  0: 0x02D4 [0x66] LOAD_EXT_SCHEDULER_MAIN: Load scheduler "dis0" with entities [EventEntity, EventEntity], work=21*
  1: 0x02E3 [0x53] WAIT_SCHEDULER_TASK: Wait for scheduler "dis0" with entities [EventEntity, EventEntity]
  2: 0x02F0 [0x00] END_REQSTACK()
```

### Event 65535.73

#### Metadata

| Field        | Value    |
|--------------|----------|
| Entrypoint   | 0x02F1   |
| Data Size    | 29 bytes |
| Instructions | 3        |

```
      00 01 02 03 04 05 06 07  08 09 0A 0B 0C 0D 0E 0F
      -- -- -- -- -- -- -- --  -- -- -- -- -- -- -- --
02F0:    5B 4C 80 F8 FF FF 7F  F8 FF FF 7F 74 6C 6B 30   [L.........tlk0
0300: 53 F8 FF FF 7F F8 FF FF  7F 74 6C 6B 30 00        S........tlk0.  
```

#### Opcodes

```
  0: 0x02F1 [0x5B] LOAD_EXT_SCHEDULER: Load scheduler "tlk0" with entities [EventEntity, EventEntity], work=12*
  1: 0x0300 [0x53] WAIT_SCHEDULER_TASK: Wait for scheduler "tlk0" with entities [EventEntity, EventEntity]
  2: 0x030D [0x00] END_REQSTACK()
```
