# 17723453 - Shakir

## Common Data

| Field            | Value                         |
|------------------|-------------------------------|
| Zone             | Northern San d'Oria (ID: 231) |
| Block Size       | 164 bytes                     |
| Total Events     | 3                             |
| References Count | 4                             |

## List of Events

| Event ID              | Entrypoint   |   Size |   Instructions |
|-----------------------|--------------|--------|----------------|
| [65535](#event-65535) | 0x0000       |      1 |              1 |
| [538](#event-538)     | 0x0001       |     59 |             11 |
| [556](#event-556)     | 0x003C       |     59 |             11 |

## DAT References (imed_data)

|   Index | Hex Value   |   Dec Value |
|---------|-------------|-------------|
|       0 | 0x0000      |           0 |
|       1 | 0x2C8D      |       11405 |
|       2 | 0x001E      |          30 |
|       3 | 0x2C8E      |       11406 |

## String References

- **11405**: Pardon me, but we're in the middle of a very important discussion here.
- **11406**: You're here with business from the administration, correct? I believe you should talk to Consul Helaku.

## Events

### Event 65535

#### Metadata

| Field        | Value   |
|--------------|---------|
| Entrypoint   | 0x0000  |
| Data Size    | 1 bytes |
| Instructions | 1       |

```
      00 01 02 03 04 05 06 07  08 09 0A 0B 0C 0D 0E 0F
      -- -- -- -- -- -- -- --  -- -- -- -- -- -- -- --
0000: 00                                                .               
```

#### Opcodes

```
  0: 0x0000 [0x00] END_REQSTACK()
```

### Event 538

#### Metadata

| Field        | Value    |
|--------------|----------|
| Entrypoint   | 0x0001   |
| Data Size    | 59 bytes |
| Instructions | 11       |

```
      00 01 02 03 04 05 06 07  08 09 0A 0B 0C 0D 0E 0F
      -- -- -- -- -- -- -- --  -- -- -- -- -- -- -- --
0000:    1E F0 FF FF 7F 6F 70  66 00 80 F8 FF FF 7F F8   .....opf.......
0010: FF FF 7F 74 6C 6B 32 1D  01 80 23 66 00 80 F8 FF  ...tlk2...#f....
0020: FF 7F F8 FF FF 7F 74 65  6E 32 53 F8 FF FF 7F F8  ......ten2S.....
0030: FF FF 7F 74 65 6E 32 1C  02 80 21 00              ...ten2...!.    
```

#### Opcodes

```
  0: 0x0001 [0x1E] EventEntity looks at LocalPlayer and starts talking
  1: 0x0006 [0x6F] WAIT_FRAME_DELAY: Yield until WaitTime reaches zero
  2: 0x0007 [0x70] WAIT_ENTITY_RENDER_FLAG: Wait while EventEntity->Render.Flags3 bit 2 is set (cancel turn if not)
  3: 0x0008 [0x66] LOAD_EXT_SCHEDULER_MAIN: Load scheduler "tlk2" with entities [EventEntity, EventEntity], work=0*
  4: 0x0017 [0x1D] PRINT_EVENT_MESSAGE(message_id=11405*)
    → "Pardon me, but we're in the middle of a very important discussion here."
  5: 0x001A [0x23] WAIT_FOR_DIALOG_INTERACTION
  6: 0x001B [0x66] LOAD_EXT_SCHEDULER_MAIN: Load scheduler "ten2" with entities [EventEntity, EventEntity], work=0*
  7: 0x002A [0x53] WAIT_SCHEDULER_TASK: Wait for scheduler "ten2" with entities [EventEntity, EventEntity]
  8: 0x0037 [0x1C] WAIT(30* ticks)
  9: 0x003A [0x21] END_EVENT
 10: 0x003B [0x00] END_REQSTACK()
```

### Event 556

#### Metadata

| Field        | Value    |
|--------------|----------|
| Entrypoint   | 0x003C   |
| Data Size    | 59 bytes |
| Instructions | 11       |

```
      00 01 02 03 04 05 06 07  08 09 0A 0B 0C 0D 0E 0F
      -- -- -- -- -- -- -- --  -- -- -- -- -- -- -- --
0030:                                      1E F0 FF FF              ....
0040: 7F 6F 70 66 00 80 F8 FF  FF 7F F8 FF FF 7F 74 6C  .opf..........tl
0050: 6B 32 1D 03 80 23 66 00  80 F8 FF FF 7F F8 FF FF  k2...#f.........
0060: 7F 74 65 6E 32 53 F8 FF  FF 7F F8 FF FF 7F 74 65  .ten2S........te
0070: 6E 32 1C 02 80 21 00                              n2...!.         
```

#### Opcodes

```
  0: 0x003C [0x1E] EventEntity looks at LocalPlayer and starts talking
  1: 0x0041 [0x6F] WAIT_FRAME_DELAY: Yield until WaitTime reaches zero
  2: 0x0042 [0x70] WAIT_ENTITY_RENDER_FLAG: Wait while EventEntity->Render.Flags3 bit 2 is set (cancel turn if not)
  3: 0x0043 [0x66] LOAD_EXT_SCHEDULER_MAIN: Load scheduler "tlk2" with entities [EventEntity, EventEntity], work=0*
  4: 0x0052 [0x1D] PRINT_EVENT_MESSAGE(message_id=11406*)
    → "You're here with business from the administration, correct? I believe you should talk to Consul Helaku."
  5: 0x0055 [0x23] WAIT_FOR_DIALOG_INTERACTION
  6: 0x0056 [0x66] LOAD_EXT_SCHEDULER_MAIN: Load scheduler "ten2" with entities [EventEntity, EventEntity], work=0*
  7: 0x0065 [0x53] WAIT_SCHEDULER_TASK: Wait for scheduler "ten2" with entities [EventEntity, EventEntity]
  8: 0x0072 [0x1C] WAIT(30* ticks)
  9: 0x0075 [0x21] END_EVENT
 10: 0x0076 [0x00] END_REQSTACK()
```
