# 17723849 - Ephemeral Moogle

## Common Data

| Field            | Value                         |
|------------------|-------------------------------|
| Zone             | Northern San d'Oria (ID: 231) |
| Block Size       | 2544 bytes                    |
| Total Events     | 5                             |
| References Count | 81                            |

## List of Events

| Event ID              | Entrypoint   |   Size |   Instructions |
|-----------------------|--------------|--------|----------------|
| [65535](#event-65535) | 0x0000       |      1 |              1 |
| [912](#event-912)     | 0x0001       |      3 |              1 |
| [914](#event-914)     | 0x0004       |      3 |              1 |
| [916](#event-916)     | 0x0007       |      3 |              1 |
| [918](#event-918)     | 0x000A       |   2172 |            443 |

## DAT References (imed_data)

|   Index | Hex Value   |   Dec Value |
|---------|-------------|-------------|
|       0 | 0x49D1      |       18897 |
|       1 | 0x49D2      |       18898 |
|       2 | 0x49D3      |       18899 |
|       3 | 0x49D4      |       18900 |
|       4 | 0x49D5      |       18901 |
|       5 | 0x49D6      |       18902 |
|       6 | 0x0000      |           0 |
|       7 | 0x49D7      |       18903 |
|       8 | 0x49D8      |       18904 |
|       9 | 0x49D9      |       18905 |
|      10 | 0x49DA      |       18906 |
|      11 | 0x49DB      |       18907 |
|      12 | 0x49DC      |       18908 |
|      13 | 0x1008      |        4104 |
|      14 | 0x49DD      |       18909 |
|      15 | 0x49DE      |       18910 |
|      16 | 0x49DF      |       18911 |
|      17 | 0x49E0      |       18912 |
|      18 | 0x49E1      |       18913 |
|      19 | 0x49E2      |       18914 |
|      20 | 0x003C      |          60 |
|      21 | 0x49E3      |       18915 |
|      22 | 0x49E4      |       18916 |
|      23 | 0x49E5      |       18917 |
|      24 | 0x49E6      |       18918 |
|      25 | 0x49E7      |       18919 |
|      26 | 0x49E8      |       18920 |
|      27 | 0x000F      |          15 |
|      28 | 0x0010      |          16 |
|      29 | 0x001F      |          31 |
|      30 | 0x49E9      |       18921 |
|      31 | 0x49EA      |       18922 |
|      32 | 0x0001      |           1 |
|      33 | 0x0002      |           2 |
|      34 | 0x0003      |           3 |
|      35 | 0x0004      |           4 |
|      36 | 0x0005      |           5 |
|      37 | 0x0006      |           6 |
|      38 | 0x0007      |           7 |
|      39 | 0x0008      |           8 |
|      40 | 0x49EB      |       18923 |
|      41 | 0x1000      |        4096 |
|      42 | 0x1001      |        4097 |
|      43 | 0x1009      |        4105 |
|      44 | 0x1002      |        4098 |
|      45 | 0x100A      |        4106 |
|      46 | 0x1003      |        4099 |
|      47 | 0x100B      |        4107 |
|      48 | 0x1004      |        4100 |
|      49 | 0x100C      |        4108 |
|      50 | 0x1005      |        4101 |
|      51 | 0x100D      |        4109 |
|      52 | 0x1006      |        4102 |
|      53 | 0x100E      |        4110 |
|      54 | 0x1007      |        4103 |
|      55 | 0x100F      |        4111 |
|      56 | 0x49EC      |       18924 |
|      57 | 0x49ED      |       18925 |
|      58 | 0x49F5      |       18933 |
|      59 | 0x49EE      |       18926 |
|      60 | 0x000C      |          12 |
|      61 | 0x49F0      |       18928 |
|      62 | 0x49EF      |       18927 |
|      63 | 0x49F1      |       18929 |
|      64 | 0x49F2      |       18930 |
|      65 | 0x49F4      |       18932 |
|      66 | 0x005B      |          91 |
|      67 | 0x00B4      |         180 |
|      68 | 0x0013      |          19 |
|      69 | 0x001E      |          30 |
|      70 | 0x49F3      |       18931 |
|      71 | 0x49F6      |       18934 |
|      72 | 0x49F7      |       18935 |
|      73 | 0x49F8      |       18936 |
|      74 | 0x4A02      |       18946 |
|      75 | 0x00C9      |         201 |
|      76 | 0x00F0      |         240 |
|      77 | 0x49FE      |       18942 |
|      78 | 0x49FF      |       18943 |
|      79 | 0x4A03      |       18947 |
|      80 | 0x4A04      |       18948 |

## String References

- **18897**: Able adventurer, warmest welcome from the Magian Mooglehood.
- **18898**: To think you can perceive me in my true form, kupo! The trials of time take a toll on us all.
- **18899**: I command and control crystal-related incantations. Their ephemeral essence helps hold Vana'diel together.
- **18900**: Surely you have studied synthesis? Then you are doubtlessly versed in their myriad uses, kupo.
- **18901**: Promise you will not speak a syllable to others of my existence here.
- **18902**: Will you stay mum? [Mum's the word./I don't think so.]
- **18903**: ...
- **18904**: I scarce have the stamina to stop you, but I doubt others would believe this tale anyway.
- **18905**: Still, I shan't assist you if you don't promise.
- **18906**: Then the deed is done! In exchange, I shall proudly proffer my services in making your crystals ephemeral, too, kupo.
- **18907**: Ahhh, mayhap I have moved too quickly. Allow me to apprise you of the particulars--of this "crystal storage," if you will.
- **18908**: It's strikingly simple. Trade me your crystals and I shall safely store them for you. You need only glance at your currencies list to see the amount I'm holding for you.
- **18909**: But I can store more than crystals alone. % and the like are also acceptable.
- **18910**: My mysterious moogle magic has limits, kupo, so I can only hold up to 5000 of a particular element.
- **18911**: You never know what secrets are in store unless you try!
- **18912**: You can wistfully withdraw them at any time by speaking to me.
- **18913**: Any number over 12 will be returned as clusters, kupo.
- **18914**: The % gives a sly smile.
- **18915**: This service is available to you free from the fetters of funding. As long as you keep this hush-hush, I'll always assist you with no recompense required.
- **18916**: If you can find me here, then you'll surely see me in other locations too, kupo. Moogle magic, you know.
- **18917**: Of course, I do not actually exist in Vana'diel. Only a part of me projects into your world.
- **18918**: It's rather similar to summoning magic, kupo.
- **18919**: I promise not to bore you with the particulars. Just come chat if you need me, kupo.
- **18920**: You are now able to store crystals!
- **18921**: Come for crystal-related concerns, hmm?
- **18922**: What would you like? [Crystals returned to me./A bit of an explanation./Nothing for now.]
- **18923**: Which element? [Never mind./Fire o $0/Ice o . $1/Wind o!. $2/Earth o". $3/Lightning o#. $4/Water o$. $5/Light o%. $6/Darkness o&. $7]
- **18924**: How many would you like? [None, actually./A specific number./As many you can fit.]
- **18925**: How many? ($8 stored)
- **18926**: $1 [/fire/ice/wind/earth/lightning/water/light/darkness] crystal[/s], correct? Then that will mean a total of...
- **18927**: $1 $0 .
- **18928**: $1 $0 and $3 $0 .
- **18929**: Are you sure?
- **18930**: Is this what you desire? [Yes./No.]
- **18931**: "As many as you can fit!?" I-if you say so...
- **18932**: Okay... Moogle Magic, ahoy!
- **18933**: There are limits to what my mysterious moogle magic can make up.
- **18934**: Inquire about what? [Your purpose./Storing crystals./Retrieving crystals./Who are you?/Nothing in particular.]
- **18935**: I'm in charge of crystal chants. Crystals, of course, are the very lifeblood of Vana'diel, kupo.
- **18936**: Surely your sacks are spilling over with them! I can perhaps assist you with your problem.
- **18942**: That's all there is to it, kupo! Let me know if you need me again.
- **18943**: Unfortunately, it's all I can do to hold on to what you've already given me, kupo!
- **18946**: You want me to hold onto these, kupo? Then let the magic begin!
- **18947**: You have stored $1 $0 for a total of $4.
- **18948**: You have stored $1 $0 and $3 $0 for a total of $4.

## Events

### Event 65535

#### Metadata

| Field        | Value   |
|--------------|---------|
| Entrypoint   | 0x0000  |
| Data Size    | 1 bytes |
| Instructions | 1       |

```
      00 01 02 03 04 05 06 07  08 09 0A 0B 0C 0D 0E 0F
      -- -- -- -- -- -- -- --  -- -- -- -- -- -- -- --
0000: 00                                                .               
```

#### Opcodes

```
  0: 0x0000 [0x00] END_REQSTACK()
```

### Event 912

#### Metadata

| Field        | Value   |
|--------------|---------|
| Entrypoint   | 0x0001  |
| Data Size    | 3 bytes |
| Instructions | 1       |

```
      00 01 02 03 04 05 06 07  08 09 0A 0B 0C 0D 0E 0F
      -- -- -- -- -- -- -- --  -- -- -- -- -- -- -- --
0000:    01 0D 00                                        ...            
```

#### Opcodes

```
  0: 0x0001 [0x01] GOTO 0x000D
```

### Event 914

#### Metadata

| Field        | Value   |
|--------------|---------|
| Entrypoint   | 0x0004  |
| Data Size    | 3 bytes |
| Instructions | 1       |

```
      00 01 02 03 04 05 06 07  08 09 0A 0B 0C 0D 0E 0F
      -- -- -- -- -- -- -- --  -- -- -- -- -- -- -- --
0000:             01 FA 00                                  ...         
```

#### Opcodes

```
  0: 0x0004 [0x01] GOTO 0x00FA
```

### Event 916

#### Metadata

| Field        | Value   |
|--------------|---------|
| Entrypoint   | 0x0007  |
| Data Size    | 3 bytes |
| Instructions | 1       |

```
      00 01 02 03 04 05 06 07  08 09 0A 0B 0C 0D 0E 0F
      -- -- -- -- -- -- -- --  -- -- -- -- -- -- -- --
0000:                      01  3E 06                           .>.      
```

#### Opcodes

```
  0: 0x0007 [0x01] GOTO 0x063E
```

### Event 918

#### Metadata

| Field        | Value      |
|--------------|------------|
| Entrypoint   | 0x000A     |
| Data Size    | 2172 bytes |
| Instructions | 6          |

```
      00 01 02 03 04 05 06 07  08 09 0A 0B 0C 0D 0E 0F
      -- -- -- -- -- -- -- --  -- -- -- -- -- -- -- --
0000:                                01 7D 07 06 01 10            .}....
0010: 1E F0 FF FF 7F 6F 70 2C  F8 FF FF 7F F8 FF FF 7F  .....op,........
0020: 74 6C 6B 30 1D 00 80 23  1D 01 80 23 1D 02 80 23  tlk0...#...#...#
0030: 1D 03 80 23 1D 04 80 23  2C F8 FF FF 7F F8 FF FF  ...#...#,.......
0040: 7F 74 6C 6B 31 24 05 80  06 80 06 80 25 02 00 10  .tlk1$......%...
0050: 06 80 00 58 00 01 81 00  1D 07 80 23 2C F8 FF FF  ...X.......#,...
0060: 7F F8 FF FF 7F 74 6C 6B  30 1D 08 80 23 1D 09 80  .....tlk0...#...
0070: 23 2C F8 FF FF 7F F8 FF  FF 7F 74 6C 6B 31 01 45  #,........tlk1.E
0080: 00 42 2C F8 FF FF 7F F8  FF FF 7F 68 61 70 30 1D  .B,........hap0.
0090: 0A 80 23 1D 0B 80 23 2C  F8 FF FF 7F F8 FF FF 7F  ..#...#,........
00A0: 68 61 70 31 2C F8 FF FF  7F F8 FF FF 7F 74 6C 6B  hap1,........tlk
00B0: 30 1D 0C 80 23 03 02 10  0D 80 1D 0E 80 23 1D 0F  0...#........#..
00C0: 80 23 1D 10 80 23 1D 11  80 23 1D 12 80 23 48 13  .#...#...#...#H.
00D0: 80 1C 14 80 1D 15 80 23  1D 16 80 23 1D 17 80 23  .......#...#...#
00E0: 1D 18 80 23 1D 19 80 23  2C F8 FF FF 7F F8 FF FF  ...#...#,.......
00F0: 7F 74 6C 6B 31 48 1A 80  21 00 1E F0 FF FF 7F 41  .tlk1H..!......A
0100: 06 80 1B 80 02 10 00 00  41 1C 80 1D 80 02 10 01  ........A.......
0110: 00 41 06 80 1B 80 03 10  02 00 41 1C 80 1D 80 03  .A........A.....
0120: 10 03 00 41 06 80 1B 80  04 10 04 00 41 1C 80 1D  ...A........A...
0130: 80 04 10 05 00 41 06 80  1B 80 05 10 06 00 41 1C  .....A........A.
0140: 80 1D 80 05 10 07 00 06  08 00 1D 1E 80 23 0B 08  .............#..
0150: 00 02 08 00 06 80 02 3C  06 24 1F 80 06 80 06 80  .......<.$......
0160: 25 02 00 10 06 80 00 2B  05 0B 08 00 02 08 00 20  %......+....... 
0170: 80 02 28 05 06 09 00 03  02 10 00 00 02 00 00 06  ..(.............
0180: 80 05 8B 01 3C 09 00 20  80 20 80 03 03 10 01 00  ....<.. . ......
0190: 02 01 00 06 80 05 9F 01  3C 09 00 21 80 20 80 03  ........<..!. ..
01A0: 04 10 02 00 02 02 00 06  80 05 B3 01 3C 09 00 22  ............<.."
01B0: 80 20 80 03 05 10 03 00  02 03 00 06 80 05 C7 01  . ..............
01C0: 3C 09 00 23 80 20 80 03  06 10 04 00 02 04 00 06  <..#. ..........
01D0: 80 05 DB 01 3C 09 00 24  80 20 80 03 07 10 05 00  ....<..$. ......
01E0: 02 05 00 06 80 05 EF 01  3C 09 00 25 80 20 80 03  ........<..%. ..
01F0: 08 10 06 00 02 06 00 06  80 05 03 02 3C 09 00 26  ............<..&
0200: 80 20 80 03 09 10 07 00  02 07 00 06 80 05 17 02  . ..............
0210: 3C 09 00 27 80 20 80 24  28 80 06 80 09 00 25 02  <..'. .$(.....%.
0220: 00 10 06 80 00 43 02 03  0A 00 06 80 03 00 17 06  .....C..........
0230: 80 03 0B 00 06 80 03 0D  00 06 80 08 08 00 21 80  ..............!.
0240: 01 54 03 02 00 10 20 80  00 62 02 03 0A 00 00 10  .T.... ..b......
0250: 03 00 17 00 00 03 0B 00  29 80 03 0D 00 0D 80 01  ........).......
0260: 54 03 02 00 10 21 80 00  81 02 03 0A 00 00 10 03  T....!..........
0270: 00 17 01 00 03 0B 00 2A  80 03 0D 00 2B 80 01 54  .......*....+..T
0280: 03 02 00 10 22 80 00 A0  02 03 0A 00 00 10 03 00  ...."...........
0290: 17 02 00 03 0B 00 2C 80  03 0D 00 2D 80 01 54 03  ......,....-..T.
02A0: 02 00 10 23 80 00 BF 02  03 0A 00 00 10 03 00 17  ...#............
02B0: 03 00 03 0B 00 2E 80 03  0D 00 2F 80 01 54 03 02  ........../..T..
02C0: 00 10 24 80 00 DE 02 03  0A 00 00 10 03 00 17 04  ..$.............
02D0: 00 03 0B 00 30 80 03 0D  00 31 80 01 54 03 02 00  ....0....1..T...
02E0: 10 25 80 00 FD 02 03 0A  00 00 10 03 00 17 05 00  .%..............
02F0: 03 0B 00 32 80 03 0D 00  33 80 01 54 03 02 00 10  ...2....3..T....
0300: 26 80 00 1C 03 03 0A 00  00 10 03 00 17 06 00 03  &...............
0310: 0B 00 34 80 03 0D 00 35  80 01 54 03 02 00 10 27  ..4....5..T....'
0320: 80 00 3B 03 03 0A 00 00  10 03 00 17 07 00 03 0B  ..;.............
0330: 00 36 80 03 0D 00 37 80  01 54 03 03 0A 00 06 80  .6....7..T......
0340: 03 00 17 06 80 03 0B 00  06 80 03 0D 00 06 80 08  ................
0350: 08 00 21 80 0B 08 00 02  08 00 21 80 02 25 05 24  ..!.......!..%.$
0360: 38 80 06 80 06 80 25 02  00 10 20 80 00 99 04 02  8.....%... .....
0370: 0A 00 06 80 02 90 04 0B  08 00 02 08 00 22 80 02  ............."..
0380: 8D 04 1D 39 80 71 10 20  80 71 11 0F 00 02 00 17  ...9.q. .q......
0390: 0F 00 03 9C 03 1D 3A 80  23 01 8A 04 02 0F 00 06  ......:.#.......
03A0: 80 03 AB 03 1D 3A 80 23  01 8A 04 02 0F 00 06 80  .....:.#........
03B0: 00 B9 03 0C 08 00 01 8A  04 03 02 10 0A 00 03 03  ................
03C0: 10 0F 00 1D 3B 80 23 03  0E 00 0F 00 15 0E 00 3C  ....;.#........<
03D0: 80 3F 0C 00 0F 00 3C 80  02 0E 00 06 80 02 14 04  .?....<.........
03E0: 02 0C 00 06 80 02 03 04  03 02 10 0D 00 03 03 10  ................
03F0: 0E 00 03 04 10 0B 00 03  05 10 0C 00 1D 3D 80 23  .............=.#
0400: 01 11 04 03 02 10 0D 00  03 03 10 0E 00 1D 3E 80  ..............>.
0410: 23 01 2D 04 02 0C 00 06  80 02 2D 04 03 02 10 0B  #.-.......-.....
0420: 00 03 03 10 0C 00 1D 3E  80 23 01 2D 04 1D 3F 80  .......>.#.-..?.
0430: 23 24 40 80 06 80 06 80  25 02 00 10 06 80 00 79  #$@.....%......y
0440: 04 42 1D 41 80 23 AD 02  42 80 F8 FF FF 7F F8 FF  .B.A.#..B.......
0450: FF 7F 1C 43 80 06 01 10  40 06 80 1B 80 01 10 0F  ...C....@.......
0460: 00 40 1C 80 44 80 01 10  0A 00 40 45 80 1D 80 01  .@..D.....@E....
0470: 10 20 80 06 08 00 01 8A  04 02 00 10 20 80 00 8A  . .......... ...
0480: 04 06 01 10 0C 08 00 01  8A 04 01 7A 03 01 96 04  ...........z....
0490: 06 01 10 0C 08 00 01 22  05 02 00 10 21 80 00 1C  ......."....!...
04A0: 05 2C F8 FF FF 7F F8 FF  FF 7F 68 61 70 30 1D 46  .,........hap0.F
04B0: 80 23 2C F8 FF FF 7F F8  FF FF 7F 68 61 70 31 1D  .#,........hap1.
04C0: 3F 80 23 24 40 80 06 80  06 80 25 02 00 10 06 80  ?.#$@.....%.....
04D0: 00 0B 05 42 1D 41 80 23  AD 02 42 80 F8 FF FF 7F  ...B.A.#..B.....
04E0: F8 FF FF 7F 1C 43 80 06  01 10 40 06 80 1B 80 01  .....C....@.....
04F0: 10 00 17 40 1C 80 44 80  01 10 0A 00 40 45 80 1D  ...@..D.....@E..
0500: 80 01 10 21 80 06 08 00  01 19 05 02 00 10 20 80  ...!.......... .
0510: 00 19 05 06 01 10 01 19  05 01 22 05 06 01 10 0C  ..........".....
0520: 08 00 01 57 03 01 6C 01  01 39 06 02 00 10 20 80  ...W..l..9.... .
0530: 00 33 06 0B 08 00 02 08  00 20 80 02 30 06 06 01  .3....... ..0...
0540: 10 24 47 80 06 80 06 80  25 02 00 10 06 80 00 76  .$G.....%......v
0550: 05 2C F8 FF FF 7F F8 FF  FF 7F 74 6C 6B 30 1D 48  .,........tlk0.H
0560: 80 23 1D 49 80 23 2C F8  FF FF 7F F8 FF FF 7F 74  .#.I.#,........t
0570: 6C 6B 31 01 2D 06 02 00  10 20 80 00 B0 05 2C F8  lk1.-.... ....,.
0580: FF FF 7F F8 FF FF 7F 65  78 70 30 1D 0C 80 23 03  .......exp0...#.
0590: 02 10 0D 80 1D 0E 80 23  1D 0F 80 23 1D 10 80 23  .......#...#...#
05A0: 2C F8 FF FF 7F F8 FF FF  7F 65 78 70 31 01 2D 06  ,........exp1.-.
05B0: 02 00 10 21 80 00 E7 05  2C F8 FF FF 7F F8 FF FF  ...!....,.......
05C0: 7F 65 78 70 30 1D 11 80  23 1D 12 80 23 48 13 80  .exp0...#...#H..
05D0: 1C 14 80 1D 15 80 23 2C  F8 FF FF 7F F8 FF FF 7F  ......#,........
05E0: 65 78 70 31 01 2D 06 02  00 10 22 80 00 1C 06 2C  exp1.-...."....,
05F0: F8 FF FF 7F F8 FF FF 7F  65 78 70 30 1D 16 80 23  ........exp0...#
0600: 1D 17 80 23 1D 18 80 23  1D 19 80 23 2C F8 FF FF  ...#...#...#,...
0610: 7F F8 FF FF 7F 65 78 70  31 01 2D 06 02 00 10 23  .....exp1.-....#
0620: 80 00 2D 06 06 01 10 0C  08 00 01 2D 06 01 36 05  ..-........-..6.
0630: 01 39 06 06 01 10 0C 08  00 01 51 01 21 00 42 1E  .9........Q.!.B.
0640: F0 FF FF 7F 6F 70 2C F8  FF FF 7F F8 FF FF 7F 74  ....op,........t
0650: 6C 6B 30 41 06 80 1B 80  02 10 18 00 41 1C 80 1D  lk0A........A...
0660: 80 02 10 10 00 41 06 80  1B 80 03 10 19 00 41 1C  .....A........A.
0670: 80 1D 80 03 10 11 00 41  06 80 1B 80 04 10 1A 00  .......A........
0680: 41 1C 80 1D 80 04 10 12  00 41 06 80 1B 80 05 10  A........A......
0690: 1B 00 41 1C 80 1D 80 05  10 13 00 41 06 80 1B 80  ..A........A....
06A0: 06 10 1C 00 41 1C 80 1D  80 06 10 14 00 41 06 80  ....A........A..
06B0: 1B 80 07 10 1D 00 41 1C  80 1D 80 07 10 15 00 41  ......A........A
06C0: 06 80 1B 80 08 10 1E 00  41 1C 80 1D 80 08 10 16  ........A.......
06D0: 00 41 06 80 1B 80 09 10  1F 00 41 1C 80 1D 80 09  .A........A.....
06E0: 10 17 00 43 00 43 01 41  06 80 1B 80 02 10 20 00  ...C.C.A...... .
06F0: 41 1C 80 1D 80 02 10 21  00 41 06 80 1B 80 03 10  A......!.A......
0700: 22 00 41 1C 80 1D 80 03  10 23 00 41 06 80 1B 80  ".A......#.A....
0710: 04 10 24 00 41 1C 80 1D  80 04 10 25 00 41 06 80  ..$.A......%.A..
0720: 1B 80 05 10 26 00 41 1C  80 1D 80 05 10 27 00 1D  ....&.A......'..
0730: 4A 80 23 2C F8 FF FF 7F  F8 FF FF 7F 74 6C 6B 31  J.#,........tlk1
0740: 53 F8 FF FF 7F F8 FF FF  7F 74 6C 6B 31 AD 02 4B  S........tlk1..K
0750: 80 F8 FF FF 7F F8 FF FF  7F 1C 4C 80 1D 4D 80 23  ..........L..M.#
0760: 03 29 00 06 80 02 29 00  27 80 03 7B 07 03 2A 00  .)....).'..{..*.
0770: 29 00 1A 88 07 0B 29 00  01 65 07 21 00 1E F0 FF  ).....)..e.!....
0780: FF 7F 1D 4E 80 23 21 00  06 28 00 06 02 10 06 03  ...N.#!..(......
0790: 10 06 04 10 06 05 10 06  06 10 9D 0A 56 08 2B 00  ............V.+.
07A0: 2A 00 27 80 9D 0A 66 08  2C 00 2A 00 27 80 02 2C  *.'...f.,.*.'..,
07B0: 00 06 80 02 F6 07 9D 0A  46 08 02 10 2A 00 27 80  ........F...*.'.
07C0: 9D 0A 66 08 03 10 2A 00  27 80 9D 0A 76 08 06 10  ..f...*.'...v...
07D0: 2A 00 27 80 02 2B 00 06  80 02 F3 07 9D 0A 36 08  *.'..+........6.
07E0: 04 10 2A 00 27 80 9D 0A  56 08 05 10 2A 00 27 80  ..*.'...V...*.'.
07F0: 05 28 00 01 1C 08 02 2B  00 06 80 02 1C 08 9D 0A  .(.....+........
0800: 36 08 02 10 2A 00 27 80  9D 0A 56 08 03 10 2A 00  6...*.'...V...*.
0810: 27 80 9D 0A 76 08 06 10  2A 00 27 80 02 06 10 06  '...v...*.'.....
0820: 80 02 35 08 02 28 00 06  80 00 32 08 48 4F 80 01  ..5..(....2.HO..
0830: 35 08 48 50 80 1B 29 80  2A 80 2C 80 2E 80 30 80  5.HP..).*.,...0.
0840: 32 80 34 80 36 80 0D 80  2B 80 2D 80 2F 80 31 80  2.4.6...+.-./.1.
0850: 33 80 35 80 37 80 10 00  11 00 12 00 13 00 14 00  3.5.7...........
0860: 15 00 16 00 17 00 18 00  19 00 1A 00 1B 00 1C 00  ................
0870: 1D 00 1E 00 1F 00 20 00  21 00 22 00 23 00 24 00  ...... .!.".#.$.
0880: 25 00 26 00 27 00                                 %.&.'.          
```

#### Opcodes

```
  0: 0x000A [0x01] GOTO 0x077D

SUBROUTINE_077D:
  1: 0x077D [0x1E] EventEntity looks at LocalPlayer and starts talking
  2: 0x0782 [0x1D] PRINT_EVENT_MESSAGE(message_id=18943*)
    → "Unfortunately, it's all I can do to hold on to what you've already given me, kupo!"
  3: 0x0785 [0x23] WAIT_FOR_DIALOG_INTERACTION
  4: 0x0786 [0x21] END_EVENT
  5: 0x0787 [0x00] END_REQSTACK()
```

#### Data or dead code:

```
# Dead code (unreachable instructions):
     0x000D [0x06] Work_Zone[1] = 0
     0x0010 [0x1E] EventEntity looks at LocalPlayer and starts talking
     0x0015 [0x6F] WAIT_FRAME_DELAY: Yield until WaitTime reaches zero
     0x0016 [0x70] WAIT_ENTITY_RENDER_FLAG: Wait while EventEntity->Render.Flags3 bit 2 is set (cancel turn if not)
     0x0017 [0x2C] CREATE_SCHEDULER_TASK: Create scheduler "tlk0" with entities [EventEntity, EventEntity]
     0x0024 [0x1D] PRINT_EVENT_MESSAGE(message_id=18897*)
    → "Able adventurer, warmest welcome from the Magian Mooglehood."
     0x0027 [0x23] WAIT_FOR_DIALOG_INTERACTION
     0x0028 [0x1D] PRINT_EVENT_MESSAGE(message_id=18898*)
    → "To think you can perceive me in my true form, kupo! The trials of time take a toll on us all."
     0x002B [0x23] WAIT_FOR_DIALOG_INTERACTION
     0x002C [0x1D] PRINT_EVENT_MESSAGE(message_id=18899*)
    → "I command and control crystal-related incantations. Their ephemeral essence helps hold Vana'diel together."
     0x002F [0x23] WAIT_FOR_DIALOG_INTERACTION
     0x0030 [0x1D] PRINT_EVENT_MESSAGE(message_id=18900*)
    → "Surely you have studied synthesis? Then you are doubtlessly versed in their myriad uses, kupo."
     0x0033 [0x23] WAIT_FOR_DIALOG_INTERACTION
     0x0034 [0x1D] PRINT_EVENT_MESSAGE(message_id=18901*)
    → "Promise you will not speak a syllable to others of my existence here."
     0x0037 [0x23] WAIT_FOR_DIALOG_INTERACTION
     0x0038 [0x2C] CREATE_SCHEDULER_TASK: Create scheduler "tlk1" with entities [EventEntity, EventEntity]
     0x0045 [0x24] CREATE_DIALOG(message_id=18902*, default_option=0*, option_flags=0*)
    → "Will you stay mum? [Mum's the word./I don't think so.]"
     0x004C [0x25] WAIT_DIALOG_SELECT()
     0x004D [0x02] IF !(Work_Zone[0] == 0*) GOTO 0x0058
     0x0055 [0x01] GOTO 0x0081
     0x0058 [0x1D] PRINT_EVENT_MESSAGE(message_id=18903*)
    → "..."
     0x005B [0x23] WAIT_FOR_DIALOG_INTERACTION
     0x005C [0x2C] CREATE_SCHEDULER_TASK: Create scheduler "tlk0" with entities [EventEntity, EventEntity]
     0x0069 [0x1D] PRINT_EVENT_MESSAGE(message_id=18904*)
    → "I scarce have the stamina to stop you, but I doubt others would believe this tale anyway."
     0x006C [0x23] WAIT_FOR_DIALOG_INTERACTION
     0x006D [0x1D] PRINT_EVENT_MESSAGE(message_id=18905*)
    → "Still, I shan't assist you if you don't promise."
     0x0070 [0x23] WAIT_FOR_DIALOG_INTERACTION
     0x0071 [0x2C] CREATE_SCHEDULER_TASK: Create scheduler "tlk1" with entities [EventEntity, EventEntity]
     0x007E [0x01] GOTO 0x0045
     0x0081 [0x42] SET_CLI_EVENT_CANCEL_DATA()
     0x0082 [0x2C] CREATE_SCHEDULER_TASK: Create scheduler "hap0" with entities [EventEntity, EventEntity]
     0x008F [0x1D] PRINT_EVENT_MESSAGE(message_id=18906*)
    → "Then the deed is done! In exchange, I shall proudly proffer my services in making your crystals ephemeral, too, kupo."
     0x0092 [0x23] WAIT_FOR_DIALOG_INTERACTION
     0x0093 [0x1D] PRINT_EVENT_MESSAGE(message_id=18907*)
    → "Ahhh, mayhap I have moved too quickly. Allow me to apprise you of the particulars--of this "crystal storage," if you will."
     0x0096 [0x23] WAIT_FOR_DIALOG_INTERACTION
     0x0097 [0x2C] CREATE_SCHEDULER_TASK: Create scheduler "hap1" with entities [EventEntity, EventEntity]
     0x00A4 [0x2C] CREATE_SCHEDULER_TASK: Create scheduler "tlk0" with entities [EventEntity, EventEntity]
     0x00B1 [0x1D] PRINT_EVENT_MESSAGE(message_id=18908*)
    → "It's strikingly simple. Trade me your crystals and I shall safely store them for you. You need only glance at your currencies list to see the amount I'm holding for you."
     0x00B4 [0x23] WAIT_FOR_DIALOG_INTERACTION
     0x00B5 [0x03] Work_Zone[2] = 4104*
     0x00BA [0x1D] PRINT_EVENT_MESSAGE(message_id=18909*)
    → "But I can store more than crystals alone. % and the like are also acceptable."
     0x00BD [0x23] WAIT_FOR_DIALOG_INTERACTION
     0x00BE [0x1D] PRINT_EVENT_MESSAGE(message_id=18910*)
    → "My mysterious moogle magic has limits, kupo, so I can only hold up to 5000 of a particular element."
     0x00C1 [0x23] WAIT_FOR_DIALOG_INTERACTION
     0x00C2 [0x1D] PRINT_EVENT_MESSAGE(message_id=18911*)
    → "You never know what secrets are in store unless you try!"
     0x00C5 [0x23] WAIT_FOR_DIALOG_INTERACTION
     0x00C6 [0x1D] PRINT_EVENT_MESSAGE(message_id=18912*)
    → "You can wistfully withdraw them at any time by speaking to me."
     0x00C9 [0x23] WAIT_FOR_DIALOG_INTERACTION
     0x00CA [0x1D] PRINT_EVENT_MESSAGE(message_id=18913*)
    → "Any number over 12 will be returned as clusters, kupo."
     0x00CD [0x23] WAIT_FOR_DIALOG_INTERACTION
     0x00CE [0x48] [System] [18914*]:
    → "The % gives a sly smile."
     0x00D1 [0x1C] WAIT(60* ticks)
     0x00D4 [0x1D] PRINT_EVENT_MESSAGE(message_id=18915*)
    → "This service is available to you free from the fetters of funding. As long as you keep this hush-hush, I'll always assist you with no recompense required."
     0x00D7 [0x23] WAIT_FOR_DIALOG_INTERACTION
     0x00D8 [0x1D] PRINT_EVENT_MESSAGE(message_id=18916*)
    → "If you can find me here, then you'll surely see me in other locations too, kupo. Moogle magic, you know."
     0x00DB [0x23] WAIT_FOR_DIALOG_INTERACTION
     0x00DC [0x1D] PRINT_EVENT_MESSAGE(message_id=18917*)
    → "Of course, I do not actually exist in Vana'diel. Only a part of me projects into your world."
     0x00DF [0x23] WAIT_FOR_DIALOG_INTERACTION
     0x00E0 [0x1D] PRINT_EVENT_MESSAGE(message_id=18918*)
    → "It's rather similar to summoning magic, kupo."
     0x00E3 [0x23] WAIT_FOR_DIALOG_INTERACTION
     0x00E4 [0x1D] PRINT_EVENT_MESSAGE(message_id=18919*)
    → "I promise not to bore you with the particulars. Just come chat if you need me, kupo."
     0x00E7 [0x23] WAIT_FOR_DIALOG_INTERACTION
     0x00E8 [0x2C] CREATE_SCHEDULER_TASK: Create scheduler "tlk1" with entities [EventEntity, EventEntity]
     0x00F5 [0x48] [System] [18920*]:
    → "You are now able to store crystals!"
     0x00F8 [0x21] END_EVENT
     0x00F9 [0x00] END_REQSTACK()
     0x00FA [0x1E] EventEntity looks at LocalPlayer and starts talking
     0x00FF [0x41] ExtData[1]->WorkLocal[0] = Work_Zone[2] (bits 0*-15*)
     0x0108 [0x41] ExtData[1]->WorkLocal[1] = Work_Zone[2] (bits 16*-31*)
     0x0111 [0x41] ExtData[1]->WorkLocal[2] = Work_Zone[3] (bits 0*-15*)
     0x011A [0x41] ExtData[1]->WorkLocal[3] = Work_Zone[3] (bits 16*-31*)
     0x0123 [0x41] ExtData[1]->WorkLocal[4] = Work_Zone[4] (bits 0*-15*)
     0x012C [0x41] ExtData[1]->WorkLocal[5] = Work_Zone[4] (bits 16*-31*)
     0x0135 [0x41] ExtData[1]->WorkLocal[6] = Work_Zone[5] (bits 0*-15*)
     0x013E [0x41] ExtData[1]->WorkLocal[7] = Work_Zone[5] (bits 16*-31*)
     0x0147 [0x06] ExtData[1]->WorkLocal[8] = 0
     0x014A [0x1D] PRINT_EVENT_MESSAGE(message_id=18921*)
    → "Come for crystal-related concerns, hmm?"
     0x014D [0x23] WAIT_FOR_DIALOG_INTERACTION
     0x014E [0x0B] ExtData[1]->WorkLocal[8]++
     0x0151 [0x02] IF !(ExtData[1]->WorkLocal[8] <= 0*) GOTO 0x063C
     0x0159 [0x24] CREATE_DIALOG(message_id=18922*, default_option=0*, option_flags=0*)
    → "What would you like? [Crystals returned to me./A bit of an explanation./Nothing for now.]"
     0x0160 [0x25] WAIT_DIALOG_SELECT()
     0x0161 [0x02] IF !(Work_Zone[0] == 0*) GOTO 0x052B
     0x0169 [0x0B] ExtData[1]->WorkLocal[8]++
     0x016C [0x02] IF !(ExtData[1]->WorkLocal[8] <= 1*) GOTO 0x0528
     0x0174 [0x06] ExtData[1]->WorkLocal[9] = 0
     0x0177 [0x03] Work_Zone[2] = ExtData[1]->WorkLocal[0]
     0x017C [0x02] IF !(ExtData[1]->WorkLocal[0] > 0*) GOTO 0x018B
     0x0184 [0x3C] SET_BIT_FLAG_CONDITIONAL(target_work_offset=ExtData[1]->WorkLocal[9], bit_index_work_offset=1*, condition_work_offset=1*)
     0x018B [0x03] Work_Zone[3] = ExtData[1]->WorkLocal[1]
     0x0190 [0x02] IF !(ExtData[1]->WorkLocal[1] > 0*) GOTO 0x019F
     0x0198 [0x3C] SET_BIT_FLAG_CONDITIONAL(target_work_offset=ExtData[1]->WorkLocal[9], bit_index_work_offset=2*, condition_work_offset=1*)
     0x019F [0x03] Work_Zone[4] = ExtData[1]->WorkLocal[2]
     0x01A4 [0x02] IF !(ExtData[1]->WorkLocal[2] > 0*) GOTO 0x01B3
     0x01AC [0x3C] SET_BIT_FLAG_CONDITIONAL(target_work_offset=ExtData[1]->WorkLocal[9], bit_index_work_offset=3*, condition_work_offset=1*)
     0x01B3 [0x03] Work_Zone[5] = ExtData[1]->WorkLocal[3]
     0x01B8 [0x02] IF !(ExtData[1]->WorkLocal[3] > 0*) GOTO 0x01C7
     0x01C0 [0x3C] SET_BIT_FLAG_CONDITIONAL(target_work_offset=ExtData[1]->WorkLocal[9], bit_index_work_offset=4*, condition_work_offset=1*)
     0x01C7 [0x03] Work_Zone[6] = ExtData[1]->WorkLocal[4]
     0x01CC [0x02] IF !(ExtData[1]->WorkLocal[4] > 0*) GOTO 0x01DB
     0x01D4 [0x3C] SET_BIT_FLAG_CONDITIONAL(target_work_offset=ExtData[1]->WorkLocal[9], bit_index_work_offset=5*, condition_work_offset=1*)
     0x01DB [0x03] Work_Zone[7] = ExtData[1]->WorkLocal[5]
     0x01E0 [0x02] IF !(ExtData[1]->WorkLocal[5] > 0*) GOTO 0x01EF
     0x01E8 [0x3C] SET_BIT_FLAG_CONDITIONAL(target_work_offset=ExtData[1]->WorkLocal[9], bit_index_work_offset=6*, condition_work_offset=1*)
     0x01EF [0x03] Work_Zone[8] = ExtData[1]->WorkLocal[6]
     0x01F4 [0x02] IF !(ExtData[1]->WorkLocal[6] > 0*) GOTO 0x0203
     0x01FC [0x3C] SET_BIT_FLAG_CONDITIONAL(target_work_offset=ExtData[1]->WorkLocal[9], bit_index_work_offset=7*, condition_work_offset=1*)
     0x0203 [0x03] Work_Zone[9] = ExtData[1]->WorkLocal[7]
     0x0208 [0x02] IF !(ExtData[1]->WorkLocal[7] > 0*) GOTO 0x0217
     0x0210 [0x3C] SET_BIT_FLAG_CONDITIONAL(target_work_offset=ExtData[1]->WorkLocal[9], bit_index_work_offset=8*, condition_work_offset=1*)
     0x0217 [0x24] CREATE_DIALOG(message_id=18923*, default_option=0*, option_flags=ExtData[1]->WorkLocal[9])
    → "Which element? [Never mind./Fire o $0/Ice o . $1/Wind o!. $2/Earth o". $3/Lightning o#. $4/Water o$. $5/Light o%. $6/Darkness o&. $7]"
     0x021E [0x25] WAIT_DIALOG_SELECT()
     0x021F [0x02] IF !(Work_Zone[0] == 0*) GOTO 0x0243
     0x0227 [0x03] ExtData[1]->WorkLocal[10] = 0*
     0x022C [0x03] Work_Zone_1700[0] = 0*
     0x0231 [0x03] ExtData[1]->WorkLocal[11] = 0*
     0x0236 [0x03] ExtData[1]->WorkLocal[13] = 0*
     0x023B [0x08] ExtData[1]->WorkLocal[8] -= 2*
     0x0240 [0x01] GOTO 0x0354
     0x0243 [0x02] IF !(Work_Zone[0] == 1*) GOTO 0x0262
     0x024B [0x03] ExtData[1]->WorkLocal[10] = Work_Zone[0]
     0x0250 [0x03] Work_Zone_1700[0] = ExtData[1]->WorkLocal[0]
     0x0255 [0x03] ExtData[1]->WorkLocal[11] = 4096*
     0x025A [0x03] ExtData[1]->WorkLocal[13] = 4104*
     0x025F [0x01] GOTO 0x0354
     0x0262 [0x02] IF !(Work_Zone[0] == 2*) GOTO 0x0281
     0x026A [0x03] ExtData[1]->WorkLocal[10] = Work_Zone[0]
     0x026F [0x03] Work_Zone_1700[0] = ExtData[1]->WorkLocal[1]
     0x0274 [0x03] ExtData[1]->WorkLocal[11] = 4097*
     0x0279 [0x03] ExtData[1]->WorkLocal[13] = 4105*
     0x027E [0x01] GOTO 0x0354
     0x0281 [0x02] IF !(Work_Zone[0] == 3*) GOTO 0x02A0
     0x0289 [0x03] ExtData[1]->WorkLocal[10] = Work_Zone[0]
     0x028E [0x03] Work_Zone_1700[0] = ExtData[1]->WorkLocal[2]
     0x0293 [0x03] ExtData[1]->WorkLocal[11] = 4098*
     0x0298 [0x03] ExtData[1]->WorkLocal[13] = 4106*
     0x029D [0x01] GOTO 0x0354
     0x02A0 [0x02] IF !(Work_Zone[0] == 4*) GOTO 0x02BF
     0x02A8 [0x03] ExtData[1]->WorkLocal[10] = Work_Zone[0]
     0x02AD [0x03] Work_Zone_1700[0] = ExtData[1]->WorkLocal[3]
     0x02B2 [0x03] ExtData[1]->WorkLocal[11] = 4099*
     0x02B7 [0x03] ExtData[1]->WorkLocal[13] = 4107*
     0x02BC [0x01] GOTO 0x0354
     0x02BF [0x02] IF !(Work_Zone[0] == 5*) GOTO 0x02DE
     0x02C7 [0x03] ExtData[1]->WorkLocal[10] = Work_Zone[0]
     0x02CC [0x03] Work_Zone_1700[0] = ExtData[1]->WorkLocal[4]
     0x02D1 [0x03] ExtData[1]->WorkLocal[11] = 4100*
     0x02D6 [0x03] ExtData[1]->WorkLocal[13] = 4108*
     0x02DB [0x01] GOTO 0x0354
     0x02DE [0x02] IF !(Work_Zone[0] == 6*) GOTO 0x02FD
     0x02E6 [0x03] ExtData[1]->WorkLocal[10] = Work_Zone[0]
     0x02EB [0x03] Work_Zone_1700[0] = ExtData[1]->WorkLocal[5]
     0x02F0 [0x03] ExtData[1]->WorkLocal[11] = 4101*
     0x02F5 [0x03] ExtData[1]->WorkLocal[13] = 4109*
     0x02FA [0x01] GOTO 0x0354
     0x02FD [0x02] IF !(Work_Zone[0] == 7*) GOTO 0x031C
     0x0305 [0x03] ExtData[1]->WorkLocal[10] = Work_Zone[0]
     0x030A [0x03] Work_Zone_1700[0] = ExtData[1]->WorkLocal[6]
     0x030F [0x03] ExtData[1]->WorkLocal[11] = 4102*
     0x0314 [0x03] ExtData[1]->WorkLocal[13] = 4110*
     0x0319 [0x01] GOTO 0x0354
     0x031C [0x02] IF !(Work_Zone[0] == 8*) GOTO 0x033B
     0x0324 [0x03] ExtData[1]->WorkLocal[10] = Work_Zone[0]
     0x0329 [0x03] Work_Zone_1700[0] = ExtData[1]->WorkLocal[7]
     0x032E [0x03] ExtData[1]->WorkLocal[11] = 4103*
     0x0333 [0x03] ExtData[1]->WorkLocal[13] = 4111*
     0x0338 [0x01] GOTO 0x0354
     0x033B [0x03] ExtData[1]->WorkLocal[10] = 0*
     0x0340 [0x03] Work_Zone_1700[0] = 0*
     0x0345 [0x03] ExtData[1]->WorkLocal[11] = 0*
     0x034A [0x03] ExtData[1]->WorkLocal[13] = 0*
     0x034F [0x08] ExtData[1]->WorkLocal[8] -= 2*
     0x0354 [0x0B] ExtData[1]->WorkLocal[8]++
     0x0357 [0x02] IF !(ExtData[1]->WorkLocal[8] <= 2*) GOTO 0x0525
     0x035F [0x24] CREATE_DIALOG(message_id=18924*, default_option=0*, option_flags=0*)
    → "How many would you like? [None, actually./A specific number./As many you can fit.]"
     0x0366 [0x25] WAIT_DIALOG_SELECT()
     0x0367 [0x02] IF !(Work_Zone[0] == 1*) GOTO 0x0499
     0x036F [0x02] IF !(ExtData[1]->WorkLocal[10] <= 0*) GOTO 0x0490
     0x0377 [0x0B] ExtData[1]->WorkLocal[8]++
     0x037A [0x02] IF !(ExtData[1]->WorkLocal[8] <= 3*) GOTO 0x048D
     0x0382 [0x1D] PRINT_EVENT_MESSAGE(message_id=18925*)
    → "How many? ($8 stored)"
     0x0385 [0x71] USER_INPUT_HANDLER: Open numerical input dialog (work=1*)
     0x0389 [0x71] USER_INPUT_HANDLER: Process numerical input A (work=ExtData[1]->WorkLocal[15])
     0x038D [0x02] IF !(Work_Zone_1700[0] >= ExtData[1]->WorkLocal[15]) GOTO 0x039C
     0x0395 [0x1D] PRINT_EVENT_MESSAGE(message_id=18933*)
    → "There are limits to what my mysterious moogle magic can make up."
     0x0398 [0x23] WAIT_FOR_DIALOG_INTERACTION
     0x0399 [0x01] GOTO 0x048A
     0x039C [0x02] IF !(ExtData[1]->WorkLocal[15] >= 0*) GOTO 0x03AB
     0x03A4 [0x1D] PRINT_EVENT_MESSAGE(message_id=18933*)
    → "There are limits to what my mysterious moogle magic can make up."
     0x03A7 [0x23] WAIT_FOR_DIALOG_INTERACTION
     0x03A8 [0x01] GOTO 0x048A
     0x03AB [0x02] IF !(ExtData[1]->WorkLocal[15] == 0*) GOTO 0x03B9
     0x03B3 [0x0C] ExtData[1]->WorkLocal[8]--
     0x03B6 [0x01] GOTO 0x048A
     0x03B9 [0x03] Work_Zone[2] = ExtData[1]->WorkLocal[10]
     0x03BE [0x03] Work_Zone[3] = ExtData[1]->WorkLocal[15]
     0x03C3 [0x1D] PRINT_EVENT_MESSAGE(message_id=18926*)
    → "$1 [/fire/ice/wind/earth/lightning/water/light/darkness] crystal[/s], correct? Then that will mean a total of..."
     0x03C6 [0x23] WAIT_FOR_DIALOG_INTERACTION
     0x03C7 [0x03] ExtData[1]->WorkLocal[14] = ExtData[1]->WorkLocal[15]
     0x03CC [0x15] ExtData[1]->WorkLocal[14] /= 12*
     0x03D1 [0x3F] ExtData[1]->WorkLocal[12] = ExtData[1]->WorkLocal[15] % 12*
     0x03D8 [0x02] IF !(ExtData[1]->WorkLocal[14] <= 0*) GOTO 0x0414
     0x03E0 [0x02] IF !(ExtData[1]->WorkLocal[12] <= 0*) GOTO 0x0403
     0x03E8 [0x03] Work_Zone[2] = ExtData[1]->WorkLocal[13]
     0x03ED [0x03] Work_Zone[3] = ExtData[1]->WorkLocal[14]
     0x03F2 [0x03] Work_Zone[4] = ExtData[1]->WorkLocal[11]
     0x03F7 [0x03] Work_Zone[5] = ExtData[1]->WorkLocal[12]
     0x03FC [0x1D] PRINT_EVENT_MESSAGE(message_id=18928*)
    → "$1 $0 and $3 $0 ."
     0x03FF [0x23] WAIT_FOR_DIALOG_INTERACTION
     0x0400 [0x01] GOTO 0x0411
     0x0403 [0x03] Work_Zone[2] = ExtData[1]->WorkLocal[13]
     0x0408 [0x03] Work_Zone[3] = ExtData[1]->WorkLocal[14]
     0x040D [0x1D] PRINT_EVENT_MESSAGE(message_id=18927*)
    → "$1 $0 ."
     0x0410 [0x23] WAIT_FOR_DIALOG_INTERACTION
     0x0411 [0x01] GOTO 0x042D
     0x0414 [0x02] IF !(ExtData[1]->WorkLocal[12] <= 0*) GOTO 0x042D
     0x041C [0x03] Work_Zone[2] = ExtData[1]->WorkLocal[11]
     0x0421 [0x03] Work_Zone[3] = ExtData[1]->WorkLocal[12]
     0x0426 [0x1D] PRINT_EVENT_MESSAGE(message_id=18927*)
    → "$1 $0 ."
     0x0429 [0x23] WAIT_FOR_DIALOG_INTERACTION
     0x042A [0x01] GOTO 0x042D
     0x042D [0x1D] PRINT_EVENT_MESSAGE(message_id=18929*)
    → "Are you sure?"
     0x0430 [0x23] WAIT_FOR_DIALOG_INTERACTION
     0x0431 [0x24] CREATE_DIALOG(message_id=18930*, default_option=0*, option_flags=0*)
    → "Is this what you desire? [Yes./No.]"
     0x0438 [0x25] WAIT_DIALOG_SELECT()
     0x0439 [0x02] IF !(Work_Zone[0] == 0*) GOTO 0x0479
     0x0441 [0x42] SET_CLI_EVENT_CANCEL_DATA()
     0x0442 [0x1D] PRINT_EVENT_MESSAGE(message_id=18932*)
    → "Okay... Moogle Magic, ahoy!"
     0x0445 [0x23] WAIT_FOR_DIALOG_INTERACTION
     0x0446 [0xAD] DUAL_ENTITY_SCHEDULER_HANDLER: Execute sub-case 2 with entities [EventEntity, EventEntity], work=91*
     0x0452 [0x1C] WAIT(180* ticks)
     0x0455 [0x06] Work_Zone[1] = 0
     0x0458 [0x40] SET_BIT_WORK_RANGE(start_bit=0*, end_bit=15*, target=Work_Zone[1], source=ExtData[1]->WorkLocal[15])
     0x0461 [0x40] SET_BIT_WORK_RANGE(start_bit=16*, end_bit=19*, target=Work_Zone[1], source=ExtData[1]->WorkLocal[10])
     0x046A [0x40] SET_BIT_WORK_RANGE(start_bit=30*, end_bit=31*, target=Work_Zone[1], source=1*)
     0x0473 [0x06] ExtData[1]->WorkLocal[8] = 0
     0x0476 [0x01] GOTO 0x048A
     0x0479 [0x02] IF !(Work_Zone[0] == 1*) GOTO 0x048A
     0x0481 [0x06] Work_Zone[1] = 0
     0x0484 [0x0C] ExtData[1]->WorkLocal[8]--
     0x0487 [0x01] GOTO 0x048A
     0x048A [0x01] GOTO 0x037A
     0x048D [0x01] GOTO 0x0496
     0x0490 [0x06] Work_Zone[1] = 0
     0x0493 [0x0C] ExtData[1]->WorkLocal[8]--
     0x0496 [0x01] GOTO 0x0522
     0x0499 [0x02] IF !(Work_Zone[0] == 2*) GOTO 0x051C
     0x04A1 [0x2C] CREATE_SCHEDULER_TASK: Create scheduler "hap0" with entities [EventEntity, EventEntity]
     0x04AE [0x1D] PRINT_EVENT_MESSAGE(message_id=18931*)
    → ""As many as you can fit!?" I-if you say so..."
     0x04B1 [0x23] WAIT_FOR_DIALOG_INTERACTION
     0x04B2 [0x2C] CREATE_SCHEDULER_TASK: Create scheduler "hap1" with entities [EventEntity, EventEntity]
     0x04BF [0x1D] PRINT_EVENT_MESSAGE(message_id=18929*)
    → "Are you sure?"
     0x04C2 [0x23] WAIT_FOR_DIALOG_INTERACTION
     0x04C3 [0x24] CREATE_DIALOG(message_id=18930*, default_option=0*, option_flags=0*)
    → "Is this what you desire? [Yes./No.]"
     0x04CA [0x25] WAIT_DIALOG_SELECT()
     0x04CB [0x02] IF !(Work_Zone[0] == 0*) GOTO 0x050B
     0x04D3 [0x42] SET_CLI_EVENT_CANCEL_DATA()
     0x04D4 [0x1D] PRINT_EVENT_MESSAGE(message_id=18932*)
    → "Okay... Moogle Magic, ahoy!"
     0x04D7 [0x23] WAIT_FOR_DIALOG_INTERACTION
     0x04D8 [0xAD] DUAL_ENTITY_SCHEDULER_HANDLER: Execute sub-case 2 with entities [EventEntity, EventEntity], work=91*
     0x04E4 [0x1C] WAIT(180* ticks)
     0x04E7 [0x06] Work_Zone[1] = 0
     0x04EA [0x40] SET_BIT_WORK_RANGE(start_bit=0*, end_bit=15*, target=Work_Zone[1], source=Work_Zone_1700[0])
     0x04F3 [0x40] SET_BIT_WORK_RANGE(start_bit=16*, end_bit=19*, target=Work_Zone[1], source=ExtData[1]->WorkLocal[10])
     0x04FC [0x40] SET_BIT_WORK_RANGE(start_bit=30*, end_bit=31*, target=Work_Zone[1], source=2*)
     0x0505 [0x06] ExtData[1]->WorkLocal[8] = 0
     0x0508 [0x01] GOTO 0x0519
     0x050B [0x02] IF !(Work_Zone[0] == 1*) GOTO 0x0519
     0x0513 [0x06] Work_Zone[1] = 0
     0x0516 [0x01] GOTO 0x0519
     0x0519 [0x01] GOTO 0x0522
     0x051C [0x06] Work_Zone[1] = 0
     0x051F [0x0C] ExtData[1]->WorkLocal[8]--
     0x0522 [0x01] GOTO 0x0357
     0x0525 [0x01] GOTO 0x016C
     0x0528 [0x01] GOTO 0x0639
     0x052B [0x02] IF !(Work_Zone[0] == 1*) GOTO 0x0633
     0x0533 [0x0B] ExtData[1]->WorkLocal[8]++
     0x0536 [0x02] IF !(ExtData[1]->WorkLocal[8] <= 1*) GOTO 0x0630
     0x053E [0x06] Work_Zone[1] = 0
     0x0541 [0x24] CREATE_DIALOG(message_id=18934*, default_option=0*, option_flags=0*)
    → "Inquire about what? [Your purpose./Storing crystals./Retrieving crystals./Who are you?/Nothing in particular.]"
     0x0548 [0x25] WAIT_DIALOG_SELECT()
     0x0549 [0x02] IF !(Work_Zone[0] == 0*) GOTO 0x0576
     0x0551 [0x2C] CREATE_SCHEDULER_TASK: Create scheduler "tlk0" with entities [EventEntity, EventEntity]
     0x055E [0x1D] PRINT_EVENT_MESSAGE(message_id=18935*)
    → "I'm in charge of crystal chants. Crystals, of course, are the very lifeblood of Vana'diel, kupo."
     0x0561 [0x23] WAIT_FOR_DIALOG_INTERACTION
     0x0562 [0x1D] PRINT_EVENT_MESSAGE(message_id=18936*)
    → "Surely your sacks are spilling over with them! I can perhaps assist you with your problem."
     0x0565 [0x23] WAIT_FOR_DIALOG_INTERACTION
     0x0566 [0x2C] CREATE_SCHEDULER_TASK: Create scheduler "tlk1" with entities [EventEntity, EventEntity]
     0x0573 [0x01] GOTO 0x062D
     0x0576 [0x02] IF !(Work_Zone[0] == 1*) GOTO 0x05B0
     0x057E [0x2C] CREATE_SCHEDULER_TASK: Create scheduler "exp0" with entities [EventEntity, EventEntity]
     0x058B [0x1D] PRINT_EVENT_MESSAGE(message_id=18908*)
    → "It's strikingly simple. Trade me your crystals and I shall safely store them for you. You need only glance at your currencies list to see the amount I'm holding for you."
     0x058E [0x23] WAIT_FOR_DIALOG_INTERACTION
     0x058F [0x03] Work_Zone[2] = 4104*
     0x0594 [0x1D] PRINT_EVENT_MESSAGE(message_id=18909*)
    → "But I can store more than crystals alone. % and the like are also acceptable."
     0x0597 [0x23] WAIT_FOR_DIALOG_INTERACTION
     0x0598 [0x1D] PRINT_EVENT_MESSAGE(message_id=18910*)
    → "My mysterious moogle magic has limits, kupo, so I can only hold up to 5000 of a particular element."
     0x059B [0x23] WAIT_FOR_DIALOG_INTERACTION
     0x059C [0x1D] PRINT_EVENT_MESSAGE(message_id=18911*)
    → "You never know what secrets are in store unless you try!"
     0x059F [0x23] WAIT_FOR_DIALOG_INTERACTION
     0x05A0 [0x2C] CREATE_SCHEDULER_TASK: Create scheduler "exp1" with entities [EventEntity, EventEntity]
     0x05AD [0x01] GOTO 0x062D
     0x05B0 [0x02] IF !(Work_Zone[0] == 2*) GOTO 0x05E7
     0x05B8 [0x2C] CREATE_SCHEDULER_TASK: Create scheduler "exp0" with entities [EventEntity, EventEntity]
     0x05C5 [0x1D] PRINT_EVENT_MESSAGE(message_id=18912*)
    → "You can wistfully withdraw them at any time by speaking to me."
     0x05C8 [0x23] WAIT_FOR_DIALOG_INTERACTION
     0x05C9 [0x1D] PRINT_EVENT_MESSAGE(message_id=18913*)
    → "Any number over 12 will be returned as clusters, kupo."
     0x05CC [0x23] WAIT_FOR_DIALOG_INTERACTION
     0x05CD [0x48] [System] [18914*]:
    → "The % gives a sly smile."
     0x05D0 [0x1C] WAIT(60* ticks)
     0x05D3 [0x1D] PRINT_EVENT_MESSAGE(message_id=18915*)
    → "This service is available to you free from the fetters of funding. As long as you keep this hush-hush, I'll always assist you with no recompense required."
     0x05D6 [0x23] WAIT_FOR_DIALOG_INTERACTION
     0x05D7 [0x2C] CREATE_SCHEDULER_TASK: Create scheduler "exp1" with entities [EventEntity, EventEntity]
     0x05E4 [0x01] GOTO 0x062D
     0x05E7 [0x02] IF !(Work_Zone[0] == 3*) GOTO 0x061C
     0x05EF [0x2C] CREATE_SCHEDULER_TASK: Create scheduler "exp0" with entities [EventEntity, EventEntity]
     0x05FC [0x1D] PRINT_EVENT_MESSAGE(message_id=18916*)
    → "If you can find me here, then you'll surely see me in other locations too, kupo. Moogle magic, you know."
     0x05FF [0x23] WAIT_FOR_DIALOG_INTERACTION
     0x0600 [0x1D] PRINT_EVENT_MESSAGE(message_id=18917*)
    → "Of course, I do not actually exist in Vana'diel. Only a part of me projects into your world."
     0x0603 [0x23] WAIT_FOR_DIALOG_INTERACTION
     0x0604 [0x1D] PRINT_EVENT_MESSAGE(message_id=18918*)
    → "It's rather similar to summoning magic, kupo."
     0x0607 [0x23] WAIT_FOR_DIALOG_INTERACTION
     0x0608 [0x1D] PRINT_EVENT_MESSAGE(message_id=18919*)
    → "I promise not to bore you with the particulars. Just come chat if you need me, kupo."
     0x060B [0x23] WAIT_FOR_DIALOG_INTERACTION
     0x060C [0x2C] CREATE_SCHEDULER_TASK: Create scheduler "exp1" with entities [EventEntity, EventEntity]
     0x0619 [0x01] GOTO 0x062D
     0x061C [0x02] IF !(Work_Zone[0] == 4*) GOTO 0x062D
     0x0624 [0x06] Work_Zone[1] = 0
     0x0627 [0x0C] ExtData[1]->WorkLocal[8]--
     0x062A [0x01] GOTO 0x062D
     0x062D [0x01] GOTO 0x0536
     0x0630 [0x01] GOTO 0x0639
     0x0633 [0x06] Work_Zone[1] = 0
     0x0636 [0x0C] ExtData[1]->WorkLocal[8]--
     0x0639 [0x01] GOTO 0x0151
     0x063C [0x21] END_EVENT
     0x063D [0x00] END_REQSTACK()
     0x063E [0x42] SET_CLI_EVENT_CANCEL_DATA()
     0x063F [0x1E] EventEntity looks at LocalPlayer and starts talking
     0x0644 [0x6F] WAIT_FRAME_DELAY: Yield until WaitTime reaches zero
     0x0645 [0x70] WAIT_ENTITY_RENDER_FLAG: Wait while EventEntity->Render.Flags3 bit 2 is set (cancel turn if not)
     0x0646 [0x2C] CREATE_SCHEDULER_TASK: Create scheduler "tlk0" with entities [EventEntity, EventEntity]
     0x0653 [0x41] ExtData[1]->WorkLocal[24] = Work_Zone[2] (bits 0*-15*)
     0x065C [0x41] ExtData[1]->WorkLocal[16] = Work_Zone[2] (bits 16*-31*)
     0x0665 [0x41] ExtData[1]->WorkLocal[25] = Work_Zone[3] (bits 0*-15*)
     0x066E [0x41] ExtData[1]->WorkLocal[17] = Work_Zone[3] (bits 16*-31*)
     0x0677 [0x41] ExtData[1]->WorkLocal[26] = Work_Zone[4] (bits 0*-15*)
     0x0680 [0x41] ExtData[1]->WorkLocal[18] = Work_Zone[4] (bits 16*-31*)
     0x0689 [0x41] ExtData[1]->WorkLocal[27] = Work_Zone[5] (bits 0*-15*)
     0x0692 [0x41] ExtData[1]->WorkLocal[19] = Work_Zone[5] (bits 16*-31*)
     0x069B [0x41] ExtData[1]->WorkLocal[28] = Work_Zone[6] (bits 0*-15*)
     0x06A4 [0x41] ExtData[1]->WorkLocal[20] = Work_Zone[6] (bits 16*-31*)
     0x06AD [0x41] ExtData[1]->WorkLocal[29] = Work_Zone[7] (bits 0*-15*)
     0x06B6 [0x41] ExtData[1]->WorkLocal[21] = Work_Zone[7] (bits 16*-31*)
     0x06BF [0x41] ExtData[1]->WorkLocal[30] = Work_Zone[8] (bits 0*-15*)
     0x06C8 [0x41] ExtData[1]->WorkLocal[22] = Work_Zone[8] (bits 16*-31*)
     0x06D1 [0x41] ExtData[1]->WorkLocal[31] = Work_Zone[9] (bits 0*-15*)
     0x06DA [0x41] ExtData[1]->WorkLocal[23] = Work_Zone[9] (bits 16*-31*)
     0x06E3 [0x43] SEND_EVENT_UPDATE: Send pending tag to server (packet 0x005B)
     0x06E5 [0x43] SEND_EVENT_UPDATE: Check pending flag (skip if not pending)
     0x06E7 [0x41] ExtData[1]->WorkLocal[32] = Work_Zone[2] (bits 0*-15*)
     0x06F0 [0x41] ExtData[1]->WorkLocal[33] = Work_Zone[2] (bits 16*-31*)
     0x06F9 [0x41] ExtData[1]->WorkLocal[34] = Work_Zone[3] (bits 0*-15*)
     0x0702 [0x41] ExtData[1]->WorkLocal[35] = Work_Zone[3] (bits 16*-31*)
     0x070B [0x41] ExtData[1]->WorkLocal[36] = Work_Zone[4] (bits 0*-15*)
     0x0714 [0x41] ExtData[1]->WorkLocal[37] = Work_Zone[4] (bits 16*-31*)
     0x071D [0x41] ExtData[1]->WorkLocal[38] = Work_Zone[5] (bits 0*-15*)
     0x0726 [0x41] ExtData[1]->WorkLocal[39] = Work_Zone[5] (bits 16*-31*)
     0x072F [0x1D] PRINT_EVENT_MESSAGE(message_id=18946*)
    → "You want me to hold onto these, kupo? Then let the magic begin!"
     0x0732 [0x23] WAIT_FOR_DIALOG_INTERACTION
     0x0733 [0x2C] CREATE_SCHEDULER_TASK: Create scheduler "tlk1" with entities [EventEntity, EventEntity]
     0x0740 [0x53] WAIT_SCHEDULER_TASK: Wait for scheduler "tlk1" with entities [EventEntity, EventEntity]
     0x074D [0xAD] DUAL_ENTITY_SCHEDULER_HANDLER: Execute sub-case 2 with entities [EventEntity, EventEntity], work=201*
     0x0759 [0x1C] WAIT(240* ticks)
     0x075C [0x1D] PRINT_EVENT_MESSAGE(message_id=18942*)
    → "That's all there is to it, kupo! Let me know if you need me again."
     0x075F [0x23] WAIT_FOR_DIALOG_INTERACTION
     0x0760 [0x03] ExtData[1]->WorkLocal[41] = 0*
     0x0765 [0x02] IF !(ExtData[1]->WorkLocal[41] >= 8*) GOTO 0x077B
     0x076D [0x03] ExtData[1]->WorkLocal[42] = ExtData[1]->WorkLocal[41]
     0x0772 [0x1A] CALL_SUBROUTINE(address=0x0788)
     0x0775 [0x0B] ExtData[1]->WorkLocal[41]++
     0x0778 [0x01] GOTO 0x0765
     0x077B [0x21] END_EVENT
     0x077C [0x00] END_REQSTACK()
# Dead code (unreachable instructions):
     0x0788 [0x06] ExtData[1]->WorkLocal[40] = 0
     0x078B [0x06] Work_Zone[2] = 0
     0x078E [0x06] Work_Zone[3] = 0
     0x0791 [0x06] Work_Zone[4] = 0
     0x0794 [0x06] Work_Zone[5] = 0
     0x0797 [0x06] Work_Zone[6] = 0
     0x079A [0x9D] IF (0x0856) ExtData[1]->WorkLocal[42] = ExtData[1]->WorkLocal[43] // extra=0x8027
     0x07A4 [0x9D] IF (0x0866) ExtData[1]->WorkLocal[42] = ExtData[1]->WorkLocal[44] // extra=0x8027
     0x07AE [0x02] IF !(ExtData[1]->WorkLocal[44] <= 0*) GOTO 0x07F6
     0x07B6 [0x9D] IF (0x0846) ExtData[1]->WorkLocal[42] = Work_Zone[2] // extra=0x8027
     0x07C0 [0x9D] IF (0x0866) ExtData[1]->WorkLocal[42] = Work_Zone[3] // extra=0x8027
     0x07CA [0x9D] IF (0x0876) ExtData[1]->WorkLocal[42] = Work_Zone[6] // extra=0x8027
     0x07D4 [0x02] IF !(ExtData[1]->WorkLocal[43] <= 0*) GOTO 0x07F3
     0x07DC [0x9D] IF (0x0836) ExtData[1]->WorkLocal[42] = Work_Zone[4] // extra=0x8027
     0x07E6 [0x9D] IF (0x0856) ExtData[1]->WorkLocal[42] = Work_Zone[5] // extra=0x8027
     0x07F0 [0x05] ExtData[1]->WorkLocal[40] = 1
     0x07F3 [0x01] GOTO 0x081C
     0x07F6 [0x02] IF !(ExtData[1]->WorkLocal[43] <= 0*) GOTO 0x081C
     0x07FE [0x9D] IF (0x0836) ExtData[1]->WorkLocal[42] = Work_Zone[2] // extra=0x8027
     0x0808 [0x9D] IF (0x0856) ExtData[1]->WorkLocal[42] = Work_Zone[3] // extra=0x8027
     0x0812 [0x9D] IF (0x0876) ExtData[1]->WorkLocal[42] = Work_Zone[6] // extra=0x8027
     0x081C [0x02] IF !(Work_Zone[6] <= 0*) GOTO 0x0835
     0x0824 [0x02] IF !(ExtData[1]->WorkLocal[40] == 0*) GOTO 0x0832
     0x082C [0x48] [System] [18947*]:
    → "You have stored $1 $0 for a total of $4."
     0x082F [0x01] GOTO 0x0835
     0x0832 [0x48] [System] [18948*]:
    → "You have stored $1 $0 and $3 $0 for a total of $4."
     0x0835 [0x1B] RETURN
     0x0836 [0x29] REQ_SET_WAIT(priority=0x80, entity_id=Unknown NPC (ID: 2150400042/0x802C802A), tag_num=0x2E)
     0x083D [0x80] LOAD_WAIT(entity=Unknown NPC (ID: 2150793264/0x80328030))
     0x0842 [0x34] LOAD_UNLOAD_ZONE(zone_id=0x3680)
     0x0845 [0x80] LOAD_WAIT(entity=Unknown NPC (ID: 2150334477/0x802B800D))
     0x084A [0x2D] CREATE_ZONE_SCHEDULER_TASK: Create scheduler 0x10803780 with entities [Unknown NPC (ID: 830484352/0x31802F80), Unknown NPC (ID: 897594240/0x35803380)]
     0x0857 [0x00] END_REQSTACK()
     0x0858 [0x11] 0x1200 >>= 0x1300
     0x085D [0x00] END_REQSTACK()
     0x085E [0x14] 0x1500 *= 0x1600
     0x0863 [0x00] END_REQSTACK()
     0x0864 [0x17] 0x1800 = cos(0x1900) * 0x1A00
     0x086B [0x00] END_REQSTACK()
     0x086C [0x1B] RETURN
     0x086D [0x00] END_REQSTACK()
     0x086E [0x1C] WAIT(0x1D00 ticks)
     0x0871 [0x00] END_REQSTACK()
     0x0872 [0x1E] EventEntity looks at Unknown NPC (ID: 536878848/0x20001F00) and starts talking
     0x0877 [0x00] END_REQSTACK()
     0x0878 [0x21] END_EVENT
     0x0879 [0x00] END_REQSTACK()
     0x087A [0x22] ENTITY_HIDE_FLAG(enabled=0x00)
     0x087C [0x23] WAIT_FOR_DIALOG_INTERACTION
     0x087D [0x00] END_REQSTACK()
     0x087E [0x24] CREATE_DIALOG(message_id=0x2500, default_option=0x2600, option_flags=0x2700)
     0x0885 [0x00] END_REQSTACK()
```
