# 17723482

## Common Data

| Field            | Value                         |
|------------------|-------------------------------|
| Zone             | Northern San d'Oria (ID: 231) |
| Block Size       | 212 bytes                     |
| Total Events     | 8                             |
| References Count | 16                            |

## List of Events

| Event ID                 | Entrypoint   |   Size |   Instructions |
|--------------------------|--------------|--------|----------------|
| [65535](#event-65535)    | 0x0000       |      1 |              1 |
| [0](#event-0)            | 0x0001       |     13 |              3 |
| [65535.1](#event-655351) | 0x000E       |     13 |              3 |
| [65535.2](#event-655352) | 0x001B       |     20 |              4 |
| [535](#event-535)        | 0x002F       |      1 |              1 |
| [65535.3](#event-655353) | 0x0030       |     23 |              5 |
| [65535.4](#event-655354) | 0x0047       |      3 |              2 |
| [65535.5](#event-655355) | 0x004A       |     25 |              6 |

## DAT References (imed_data)

|   Index | Hex Value   |   Dec Value |
|---------|-------------|-------------|
|       0 | 0x03E8      |        1000 |
|       1 | 0xFFFFB869  |  4294948969 |
|       2 | 0x0000      |           0 |
|       3 | 0x0C0F      |        3087 |
|       4 | 0x000D      |          13 |
|       5 | 0x258B      |        9611 |
|       6 | 0x050A      |        1290 |
|       7 | 0x14EE6     |       85734 |
|       8 | 0x1DD3A     |      122170 |
|       9 | 0xFFFFF830  |  4294965296 |
|      10 | 0xFFFFFC18  |  4294966296 |
|      11 | 0x21340     |      136000 |
|      12 | 0xFFFFF6C3  |  4294964931 |
|      13 | 0x0400      |        1024 |
|      14 | 0x14FF0     |       86000 |
|      15 | 0xFFFFF6CD  |  4294964941 |

## Events

### Event 65535

#### Metadata

| Field        | Value   |
|--------------|---------|
| Entrypoint   | 0x0000  |
| Data Size    | 1 bytes |
| Instructions | 1       |

```
      00 01 02 03 04 05 06 07  08 09 0A 0B 0C 0D 0E 0F
      -- -- -- -- -- -- -- --  -- -- -- -- -- -- -- --
0000: 00                                                .               
```

#### Opcodes

```
  0: 0x0000 [0x00] END_REQSTACK()
```

### Event 0

#### Metadata

| Field        | Value    |
|--------------|----------|
| Entrypoint   | 0x0001   |
| Data Size    | 13 bytes |
| Instructions | 3        |

```
      00 01 02 03 04 05 06 07  08 09 0A 0B 0C 0D 0E 0F
      -- -- -- -- -- -- -- --  -- -- -- -- -- -- -- --
0000:    37 00 80 01 80 02 80  03 80 32 04 80 00         7........2...  
```

#### Opcodes

```
  0: 0x0001 [0x37] UPDATE_EVENT_POSITION_AND_DIR: x=1.000*, z=-18.327*, y=0.000*, direction=271.3째*
  1: 0x000A [0x32] ExtData[1]->MainSpeed = 13* * 0.1
  2: 0x000D [0x00] END_REQSTACK()
```

### Event 65535.1

#### Metadata

| Field        | Value    |
|--------------|----------|
| Entrypoint   | 0x000E   |
| Data Size    | 13 bytes |
| Instructions | 3        |

```
      00 01 02 03 04 05 06 07  08 09 0A 0B 0C 0D 0E 0F
      -- -- -- -- -- -- -- --  -- -- -- -- -- -- -- --
0000:                                            31 00                1.
0010: 00 80 05 80 02 80 06 80  31 01 00                 ........1..     
```

#### Opcodes

```
  0: 0x000E [0x31] UPDATE_ENTITY_POSITION: Set EventEntity goal position to X=1.000*, Z=9.611*, Y=0.000*, Time=1290*
  1: 0x0018 [0x31] UPDATE_ENTITY_POSITION: Move EventEntity towards goal position
  2: 0x001A [0x00] END_REQSTACK()
```

### Event 65535.2

#### Metadata

| Field        | Value    |
|--------------|----------|
| Entrypoint   | 0x001B   |
| Data Size    | 20 bytes |
| Instructions | 4        |

```
      00 01 02 03 04 05 06 07  08 09 0A 0B 0C 0D 0E 0F
      -- -- -- -- -- -- -- --  -- -- -- -- -- -- -- --
0010:                                   37 00 80 07 80             7....
0020: 02 80 03 80 1F 00 00 80  08 80 09 80 1F 01 00     ............... 
```

#### Opcodes

```
  0: 0x001B [0x37] UPDATE_EVENT_POSITION_AND_DIR: x=1.000*, z=85.734*, y=0.000*, direction=271.3째*
  1: 0x0024 [0x1F] MOVE_ENTITY: EventEntity moves to X=1.000*, Z=122.170*, Y=-2.000*
  2: 0x002C [0x1F] MOVE_ENTITY: Update entity position (mode=1)
  3: 0x002E [0x00] END_REQSTACK()
```

### Event 535

#### Metadata

| Field        | Value   |
|--------------|---------|
| Entrypoint   | 0x002F  |
| Data Size    | 1 bytes |
| Instructions | 1       |

```
      00 01 02 03 04 05 06 07  08 09 0A 0B 0C 0D 0E 0F
      -- -- -- -- -- -- -- --  -- -- -- -- -- -- -- --
0020:                                               00                 .
```

#### Opcodes

```
  0: 0x002F [0x00] END_REQSTACK()
```

### Event 65535.3

#### Metadata

| Field        | Value    |
|--------------|----------|
| Entrypoint   | 0x0030   |
| Data Size    | 23 bytes |
| Instructions | 5        |

```
      00 01 02 03 04 05 06 07  08 09 0A 0B 0C 0D 0E 0F
      -- -- -- -- -- -- -- --  -- -- -- -- -- -- -- --
0030: 32 04 80 37 0A 80 0B 80  0C 80 0D 80 1F 00 0A 80  2..7............
0040: 0E 80 0F 80 1F 01 00                              .......         
```

#### Opcodes

```
  0: 0x0030 [0x32] ExtData[1]->MainSpeed = 13* * 0.1
  1: 0x0033 [0x37] UPDATE_EVENT_POSITION_AND_DIR: x=-1.000*, z=136.000*, y=-2.365*, direction=90.0째*
  2: 0x003C [0x1F] MOVE_ENTITY: EventEntity moves to X=-1.000*, Z=86.000*, Y=-2.355*
  3: 0x0044 [0x1F] MOVE_ENTITY: Update entity position (mode=1)
  4: 0x0046 [0x00] END_REQSTACK()
```

### Event 65535.4

#### Metadata

| Field        | Value   |
|--------------|---------|
| Entrypoint   | 0x0047  |
| Data Size    | 3 bytes |
| Instructions | 2       |

```
      00 01 02 03 04 05 06 07  08 09 0A 0B 0C 0D 0E 0F
      -- -- -- -- -- -- -- --  -- -- -- -- -- -- -- --
0040:                      22  00 00                           "..      
```

#### Opcodes

```
  0: 0x0047 [0x22] ENTITY_HIDE_FLAG(enabled=0x00)
  1: 0x0049 [0x00] END_REQSTACK()
```

### Event 65535.5

#### Metadata

| Field        | Value    |
|--------------|----------|
| Entrypoint   | 0x004A   |
| Data Size    | 25 bytes |
| Instructions | 6        |

```
      00 01 02 03 04 05 06 07  08 09 0A 0B 0C 0D 0E 0F
      -- -- -- -- -- -- -- --  -- -- -- -- -- -- -- --
0040:                                32 04 80 37 0A 80            2..7..
0050: 0E 80 0F 80 0D 80 1F 00  0A 80 0B 80 0C 80 1F 01  ................
0060: 22 01 00                                          "..             
```

#### Opcodes

```
  0: 0x004A [0x32] ExtData[1]->MainSpeed = 13* * 0.1
  1: 0x004D [0x37] UPDATE_EVENT_POSITION_AND_DIR: x=-1.000*, z=86.000*, y=-2.355*, direction=90.0째*
  2: 0x0056 [0x1F] MOVE_ENTITY: EventEntity moves to X=-1.000*, Z=136.000*, Y=-2.365*
  3: 0x005E [0x1F] MOVE_ENTITY: Update entity position (mode=1)
  4: 0x0060 [0x22] ENTITY_HIDE_FLAG(enabled=0x01)
  5: 0x0062 [0x00] END_REQSTACK()
```
