# 17723524 - Calovour

## Common Data

| Field            | Value                         |
|------------------|-------------------------------|
| Zone             | Northern San d'Oria (ID: 231) |
| Block Size       | 1152 bytes                    |
| Total Events     | 38                            |
| References Count | 33                            |

## List of Events

| Event ID                   | Entrypoint   |   Size |   Instructions |
|----------------------------|--------------|--------|----------------|
| [65535](#event-65535)      | 0x0000       |      1 |              1 |
| [51](#event-51)            | 0x0001       |      1 |              1 |
| [1](#event-1)              | 0x0002       |      3 |              2 |
| [65535.1](#event-655351)   | 0x0005       |     16 |              2 |
| [65535.2](#event-655352)   | 0x0015       |     22 |              4 |
| [65535.3](#event-655353)   | 0x002B       |     16 |              2 |
| [65535.4](#event-655354)   | 0x003B       |     14 |              2 |
| [65535.5](#event-655355)   | 0x0049       |     16 |              2 |
| [65535.6](#event-655356)   | 0x0059       |     14 |              2 |
| [65535.7](#event-655357)   | 0x0067       |     16 |              2 |
| [65535.8](#event-655358)   | 0x0077       |     14 |              2 |
| [65535.9](#event-655359)   | 0x0085       |     16 |              2 |
| [65535.10](#event-6553510) | 0x0095       |     14 |              2 |
| [65535.11](#event-6553511) | 0x00A3       |     16 |              2 |
| [65535.12](#event-6553512) | 0x00B3       |     14 |              2 |
| [65535.13](#event-6553513) | 0x00C1       |     16 |              2 |
| [65535.14](#event-6553514) | 0x00D1       |     14 |              2 |
| [65535.15](#event-6553515) | 0x00DF       |     16 |              2 |
| [65535.16](#event-6553516) | 0x00EF       |     14 |              2 |
| [65535.17](#event-6553517) | 0x00FD       |     16 |              2 |
| [65535.18](#event-6553518) | 0x010D       |     14 |              2 |
| [65535.19](#event-6553519) | 0x011B       |      9 |              3 |
| [633](#event-633)          | 0x0124       |     33 |             12 |
| [637](#event-637)          | 0x0145       |     39 |             10 |
| [65535.20](#event-6553520) | 0x016C       |     23 |              7 |
| [65535.21](#event-6553521) | 0x0183       |     19 |              5 |
| [65535.22](#event-6553522) | 0x0196       |     23 |              7 |
| [65535.23](#event-6553523) | 0x01AD       |     23 |              7 |
| [638](#event-638)          | 0x01C4       |     33 |             12 |
| [639](#event-639)          | 0x01E5       |    248 |             40 |
| [65535.24](#event-6553524) | 0x02DD       |      5 |              3 |
| [65535.25](#event-6553525) | 0x02E2       |     37 |              9 |
| [65535.26](#event-6553526) | 0x0307       |      5 |              3 |
| [65535.27](#event-6553527) | 0x030C       |     19 |              5 |
| [640](#event-640)          | 0x031F       |     47 |             14 |
| [693](#event-693)          | 0x034E       |      1 |              1 |
| [869](#event-869)          | 0x034F       |      1 |              1 |
| [870](#event-870)          | 0x0350       |      1 |              1 |

## DAT References (imed_data)

|   Index | Hex Value   |   Dec Value |
|---------|-------------|-------------|
|       0 | 0x0014      |          20 |
|       1 | 0x001E      |          30 |
|       2 | 0x0015      |          21 |
|       3 | 0x1C1A      |        7194 |
|       4 | 0x1C1B      |        7195 |
|       5 | 0x1C25      |        7205 |
|       6 | 0x1C26      |        7206 |
|       7 | 0x1C27      |        7207 |
|       8 | 0x1C28      |        7208 |
|       9 | 0x1C29      |        7209 |
|      10 | 0x1C2A      |        7210 |
|      11 | 0x1C2B      |        7211 |
|      12 | 0x1C2C      |        7212 |
|      13 | 0x1C2D      |        7213 |
|      14 | 0x0000      |           0 |
|      15 | 0x00C8      |         200 |
|      16 | 0x0078      |         120 |
|      17 | 0x0003      |           3 |
|      18 | 0x009F      |         159 |
|      19 | 0x007F      |         127 |
|      20 | 0x0001      |           1 |
|      21 | 0x012C      |         300 |
|      22 | 0x00BC      |         188 |
|      23 | 0x003C      |          60 |
|      24 | 0x006B      |         107 |
|      25 | 0x00C9      |         201 |
|      26 | 0x1C2E      |        7214 |
|      27 | 0x1C2F      |        7215 |
|      28 | 0x1C30      |        7216 |
|      29 | 0x1C31      |        7217 |
|      30 | 0x1C32      |        7218 |
|      31 | 0x1C33      |        7219 |
|      32 | 0x1C34      |        7220 |

## String References

- **7194**: The Gates of Paradise only welcome souls free of desire. I have given my riches to the cathedral. I am now free.
- **7195**: May Altana guide my soul to Paradise. My heart is calm as never before.
- **7205**: What? The $2 I consigned to the furniture store? Yes, I remember it.
- **7206**: Really, that was inside? I've not seen this for many years!
- **7207**: I was once in the service of the late Queen Leaute. Her Highness gave it to me personally.
- **7208**: Ah... Seeing this brings back many memories. I took good care of the queen and her newborn prince!
- **7209**: I prayed for the royal family every time I poured mistletoe tea into that teacup.
- **7210**: Kind adventurer, I beg you. Please find me $3. I would very much like to taste those memories once more.
- **7211**: Please, I know it is an odd request, but it would mean so much to me.
- **7212**: Kind adventurer, I beg you. Please find me $3. I would very much like to taste those fond memories once more.
- **7213**: Please, I know it is an odd request, but it would mean so much to me.
- **7214**: As I sit, with this teacup in hand, I question whether I truly deserve Paradise.
- **7215**: Queen Leaute, bless her soul, has passed away. And her two sons are forever quarreling. All I can do is pray for them both!
- **7216**: Over the years, my heart has grown as dusty and dry as this old teacup.
- **7217**: With this $3 you brought me, I will drink again from my old teacup, and reflect on what I can do for them.
- **7218**: Here, please take this as a token of my gratitude. You have done me a great service!
- **7219**: I tried to cast aside all desire, but in the process I lost my identity.
- **7220**: I threw aside my riches to find peace, but all I found was peace for myself, alone...

## Events

### Event 65535

#### Metadata

| Field        | Value   |
|--------------|---------|
| Entrypoint   | 0x0000  |
| Data Size    | 1 bytes |
| Instructions | 1       |

```
      00 01 02 03 04 05 06 07  08 09 0A 0B 0C 0D 0E 0F
      -- -- -- -- -- -- -- --  -- -- -- -- -- -- -- --
0000: 00                                                .               
```

#### Opcodes

```
  0: 0x0000 [0x00] END_REQSTACK()
```

### Event 51

#### Metadata

| Field        | Value   |
|--------------|---------|
| Entrypoint   | 0x0001  |
| Data Size    | 1 bytes |
| Instructions | 1       |

```
      00 01 02 03 04 05 06 07  08 09 0A 0B 0C 0D 0E 0F
      -- -- -- -- -- -- -- --  -- -- -- -- -- -- -- --
0000:    00                                              .              
```

#### Opcodes

```
  0: 0x0001 [0x00] END_REQSTACK()
```

### Event 1

#### Metadata

| Field        | Value   |
|--------------|---------|
| Entrypoint   | 0x0002  |
| Data Size    | 3 bytes |
| Instructions | 2       |

```
      00 01 02 03 04 05 06 07  08 09 0A 0B 0C 0D 0E 0F
      -- -- -- -- -- -- -- --  -- -- -- -- -- -- -- --
0000:       22 01 00                                      "..           
```

#### Opcodes

```
  0: 0x0002 [0x22] ENTITY_HIDE_FLAG(enabled=0x01)
  1: 0x0004 [0x00] END_REQSTACK()
```

### Event 65535.1

#### Metadata

| Field        | Value    |
|--------------|----------|
| Entrypoint   | 0x0005   |
| Data Size    | 16 bytes |
| Instructions | 2        |

```
      00 01 02 03 04 05 06 07  08 09 0A 0B 0C 0D 0E 0F
      -- -- -- -- -- -- -- --  -- -- -- -- -- -- -- --
0000:                66 00 80  F8 FF FF 7F F8 FF FF 7F       f..........
0010: 74 6C 6B 30 00                                    tlk0.           
```

#### Opcodes

```
  0: 0x0005 [0x66] LOAD_EXT_SCHEDULER_MAIN: Load scheduler "tlk0" with entities [EventEntity, EventEntity], work=20*
  1: 0x0014 [0x00] END_REQSTACK()
```

### Event 65535.2

#### Metadata

| Field        | Value    |
|--------------|----------|
| Entrypoint   | 0x0015   |
| Data Size    | 22 bytes |
| Instructions | 4        |

```
      00 01 02 03 04 05 06 07  08 09 0A 0B 0C 0D 0E 0F
      -- -- -- -- -- -- -- --  -- -- -- -- -- -- -- --
0010:                53 F8 FF  FF 7F F8 FF FF 7F 74 6C       S........tl
0020: 6B 30 5E 69 64 6C 30 1C  01 80 00                 k0^idl0....     
```

#### Opcodes

```
  0: 0x0015 [0x53] WAIT_SCHEDULER_TASK: Wait for scheduler "tlk0" with entities [EventEntity, EventEntity]
  1: 0x0022 [0x5E] EventEntity goes idle (kills current action) (animation: "idl0")
  2: 0x0027 [0x1C] WAIT(30* ticks)
  3: 0x002A [0x00] END_REQSTACK()
```

### Event 65535.3

#### Metadata

| Field        | Value    |
|--------------|----------|
| Entrypoint   | 0x002B   |
| Data Size    | 16 bytes |
| Instructions | 2        |

```
      00 01 02 03 04 05 06 07  08 09 0A 0B 0C 0D 0E 0F
      -- -- -- -- -- -- -- --  -- -- -- -- -- -- -- --
0020:                                   66 00 80 F8 FF             f....
0030: FF 7F F8 FF FF 7F 74 68  6B 31 00                 ......thk1.     
```

#### Opcodes

```
  0: 0x002B [0x66] LOAD_EXT_SCHEDULER_MAIN: Load scheduler "thk1" with entities [EventEntity, EventEntity], work=20*
  1: 0x003A [0x00] END_REQSTACK()
```

### Event 65535.4

#### Metadata

| Field        | Value    |
|--------------|----------|
| Entrypoint   | 0x003B   |
| Data Size    | 14 bytes |
| Instructions | 2        |

```
      00 01 02 03 04 05 06 07  08 09 0A 0B 0C 0D 0E 0F
      -- -- -- -- -- -- -- --  -- -- -- -- -- -- -- --
0030:                                   53 F8 FF FF 7F             S....
0040: F8 FF FF 7F 74 68 6B 31  00                       ....thk1.       
```

#### Opcodes

```
  0: 0x003B [0x53] WAIT_SCHEDULER_TASK: Wait for scheduler "thk1" with entities [EventEntity, EventEntity]
  1: 0x0048 [0x00] END_REQSTACK()
```

### Event 65535.5

#### Metadata

| Field        | Value    |
|--------------|----------|
| Entrypoint   | 0x0049   |
| Data Size    | 16 bytes |
| Instructions | 2        |

```
      00 01 02 03 04 05 06 07  08 09 0A 0B 0C 0D 0E 0F
      -- -- -- -- -- -- -- --  -- -- -- -- -- -- -- --
0040:                             66 00 80 F8 FF FF 7F           f......
0050: F8 FF FF 7F 74 68 6B 32  00                       ....thk2.       
```

#### Opcodes

```
  0: 0x0049 [0x66] LOAD_EXT_SCHEDULER_MAIN: Load scheduler "thk2" with entities [EventEntity, EventEntity], work=20*
  1: 0x0058 [0x00] END_REQSTACK()
```

### Event 65535.6

#### Metadata

| Field        | Value    |
|--------------|----------|
| Entrypoint   | 0x0059   |
| Data Size    | 14 bytes |
| Instructions | 2        |

```
      00 01 02 03 04 05 06 07  08 09 0A 0B 0C 0D 0E 0F
      -- -- -- -- -- -- -- --  -- -- -- -- -- -- -- --
0050:                             53 F8 FF FF 7F F8 FF           S......
0060: FF 7F 74 68 6B 32 00                              ..thk2.         
```

#### Opcodes

```
  0: 0x0059 [0x53] WAIT_SCHEDULER_TASK: Wait for scheduler "thk2" with entities [EventEntity, EventEntity]
  1: 0x0066 [0x00] END_REQSTACK()
```

### Event 65535.7

#### Metadata

| Field        | Value    |
|--------------|----------|
| Entrypoint   | 0x0067   |
| Data Size    | 16 bytes |
| Instructions | 2        |

```
      00 01 02 03 04 05 06 07  08 09 0A 0B 0C 0D 0E 0F
      -- -- -- -- -- -- -- --  -- -- -- -- -- -- -- --
0060:                      66  00 80 F8 FF FF 7F F8 FF         f........
0070: FF 7F 70 61 73 30 00                              ..pas0.         
```

#### Opcodes

```
  0: 0x0067 [0x66] LOAD_EXT_SCHEDULER_MAIN: Load scheduler "pas0" with entities [EventEntity, EventEntity], work=20*
  1: 0x0076 [0x00] END_REQSTACK()
```

### Event 65535.8

#### Metadata

| Field        | Value    |
|--------------|----------|
| Entrypoint   | 0x0077   |
| Data Size    | 14 bytes |
| Instructions | 2        |

```
      00 01 02 03 04 05 06 07  08 09 0A 0B 0C 0D 0E 0F
      -- -- -- -- -- -- -- --  -- -- -- -- -- -- -- --
0070:                      53  F8 FF FF 7F F8 FF FF 7F         S........
0080: 70 61 73 30 00                                    pas0.           
```

#### Opcodes

```
  0: 0x0077 [0x53] WAIT_SCHEDULER_TASK: Wait for scheduler "pas0" with entities [EventEntity, EventEntity]
  1: 0x0084 [0x00] END_REQSTACK()
```

### Event 65535.9

#### Metadata

| Field        | Value    |
|--------------|----------|
| Entrypoint   | 0x0085   |
| Data Size    | 16 bytes |
| Instructions | 2        |

```
      00 01 02 03 04 05 06 07  08 09 0A 0B 0C 0D 0E 0F
      -- -- -- -- -- -- -- --  -- -- -- -- -- -- -- --
0080:                66 00 80  F8 FF FF 7F F8 FF FF 7F       f..........
0090: 70 6F 69 31 00                                    poi1.           
```

#### Opcodes

```
  0: 0x0085 [0x66] LOAD_EXT_SCHEDULER_MAIN: Load scheduler "poi1" with entities [EventEntity, EventEntity], work=20*
  1: 0x0094 [0x00] END_REQSTACK()
```

### Event 65535.10

#### Metadata

| Field        | Value    |
|--------------|----------|
| Entrypoint   | 0x0095   |
| Data Size    | 14 bytes |
| Instructions | 2        |

```
      00 01 02 03 04 05 06 07  08 09 0A 0B 0C 0D 0E 0F
      -- -- -- -- -- -- -- --  -- -- -- -- -- -- -- --
0090:                53 F8 FF  FF 7F F8 FF FF 7F 70 6F       S........po
00A0: 69 31 00                                          i1.             
```

#### Opcodes

```
  0: 0x0095 [0x53] WAIT_SCHEDULER_TASK: Wait for scheduler "poi1" with entities [EventEntity, EventEntity]
  1: 0x00A2 [0x00] END_REQSTACK()
```

### Event 65535.11

#### Metadata

| Field        | Value    |
|--------------|----------|
| Entrypoint   | 0x00A3   |
| Data Size    | 16 bytes |
| Instructions | 2        |

```
      00 01 02 03 04 05 06 07  08 09 0A 0B 0C 0D 0E 0F
      -- -- -- -- -- -- -- --  -- -- -- -- -- -- -- --
00A0:          66 00 80 F8 FF  FF 7F F8 FF FF 7F 70 6F     f..........po
00B0: 69 32 00                                          i2.             
```

#### Opcodes

```
  0: 0x00A3 [0x66] LOAD_EXT_SCHEDULER_MAIN: Load scheduler "poi2" with entities [EventEntity, EventEntity], work=20*
  1: 0x00B2 [0x00] END_REQSTACK()
```

### Event 65535.12

#### Metadata

| Field        | Value    |
|--------------|----------|
| Entrypoint   | 0x00B3   |
| Data Size    | 14 bytes |
| Instructions | 2        |

```
      00 01 02 03 04 05 06 07  08 09 0A 0B 0C 0D 0E 0F
      -- -- -- -- -- -- -- --  -- -- -- -- -- -- -- --
00B0:          53 F8 FF FF 7F  F8 FF FF 7F 70 6F 69 32     S........poi2
00C0: 00                                                .               
```

#### Opcodes

```
  0: 0x00B3 [0x53] WAIT_SCHEDULER_TASK: Wait for scheduler "poi2" with entities [EventEntity, EventEntity]
  1: 0x00C0 [0x00] END_REQSTACK()
```

### Event 65535.13

#### Metadata

| Field        | Value    |
|--------------|----------|
| Entrypoint   | 0x00C1   |
| Data Size    | 16 bytes |
| Instructions | 2        |

```
      00 01 02 03 04 05 06 07  08 09 0A 0B 0C 0D 0E 0F
      -- -- -- -- -- -- -- --  -- -- -- -- -- -- -- --
00C0:    66 02 80 F8 FF FF 7F  F8 FF FF 7F 70 6F 69 30   f..........poi0
00D0: 00                                                .               
```

#### Opcodes

```
  0: 0x00C1 [0x66] LOAD_EXT_SCHEDULER_MAIN: Load scheduler "poi0" with entities [EventEntity, EventEntity], work=21*
  1: 0x00D0 [0x00] END_REQSTACK()
```

### Event 65535.14

#### Metadata

| Field        | Value    |
|--------------|----------|
| Entrypoint   | 0x00D1   |
| Data Size    | 14 bytes |
| Instructions | 2        |

```
      00 01 02 03 04 05 06 07  08 09 0A 0B 0C 0D 0E 0F
      -- -- -- -- -- -- -- --  -- -- -- -- -- -- -- --
00D0:    53 F8 FF FF 7F F8 FF  FF 7F 70 6F 69 30 00      S........poi0. 
```

#### Opcodes

```
  0: 0x00D1 [0x53] WAIT_SCHEDULER_TASK: Wait for scheduler "poi0" with entities [EventEntity, EventEntity]
  1: 0x00DE [0x00] END_REQSTACK()
```

### Event 65535.15

#### Metadata

| Field        | Value    |
|--------------|----------|
| Entrypoint   | 0x00DF   |
| Data Size    | 16 bytes |
| Instructions | 2        |

```
      00 01 02 03 04 05 06 07  08 09 0A 0B 0C 0D 0E 0F
      -- -- -- -- -- -- -- --  -- -- -- -- -- -- -- --
00D0:                                               66                 f
00E0: 02 80 F8 FF FF 7F F8 FF  FF 7F 70 6F 69 31 00     ..........poi1. 
```

#### Opcodes

```
  0: 0x00DF [0x66] LOAD_EXT_SCHEDULER_MAIN: Load scheduler "poi1" with entities [EventEntity, EventEntity], work=21*
  1: 0x00EE [0x00] END_REQSTACK()
```

### Event 65535.16

#### Metadata

| Field        | Value    |
|--------------|----------|
| Entrypoint   | 0x00EF   |
| Data Size    | 14 bytes |
| Instructions | 2        |

```
      00 01 02 03 04 05 06 07  08 09 0A 0B 0C 0D 0E 0F
      -- -- -- -- -- -- -- --  -- -- -- -- -- -- -- --
00E0:                                               53                 S
00F0: F8 FF FF 7F F8 FF FF 7F  70 6F 69 31 00           ........poi1.   
```

#### Opcodes

```
  0: 0x00EF [0x53] WAIT_SCHEDULER_TASK: Wait for scheduler "poi1" with entities [EventEntity, EventEntity]
  1: 0x00FC [0x00] END_REQSTACK()
```

### Event 65535.17

#### Metadata

| Field        | Value    |
|--------------|----------|
| Entrypoint   | 0x00FD   |
| Data Size    | 16 bytes |
| Instructions | 2        |

```
      00 01 02 03 04 05 06 07  08 09 0A 0B 0C 0D 0E 0F
      -- -- -- -- -- -- -- --  -- -- -- -- -- -- -- --
00F0:                                         66 02 80               f..
0100: F8 FF FF 7F F8 FF FF 7F  64 69 73 30 00           ........dis0.   
```

#### Opcodes

```
  0: 0x00FD [0x66] LOAD_EXT_SCHEDULER_MAIN: Load scheduler "dis0" with entities [EventEntity, EventEntity], work=21*
  1: 0x010C [0x00] END_REQSTACK()
```

### Event 65535.18

#### Metadata

| Field        | Value    |
|--------------|----------|
| Entrypoint   | 0x010D   |
| Data Size    | 14 bytes |
| Instructions | 2        |

```
      00 01 02 03 04 05 06 07  08 09 0A 0B 0C 0D 0E 0F
      -- -- -- -- -- -- -- --  -- -- -- -- -- -- -- --
0100:                                         53 F8 FF               S..
0110: FF 7F F8 FF FF 7F 64 69  73 30 00                 ......dis0.     
```

#### Opcodes

```
  0: 0x010D [0x53] WAIT_SCHEDULER_TASK: Wait for scheduler "dis0" with entities [EventEntity, EventEntity]
  1: 0x011A [0x00] END_REQSTACK()
```

### Event 65535.19

#### Metadata

| Field        | Value   |
|--------------|---------|
| Entrypoint   | 0x011B  |
| Data Size    | 9 bytes |
| Instructions | 3       |

```
      00 01 02 03 04 05 06 07  08 09 0A 0B 0C 0D 0E 0F
      -- -- -- -- -- -- -- --  -- -- -- -- -- -- -- --
0110:                                   5E 69 64 6C 30             ^idl0
0120: 1C 01 80 00                                       ....            
```

#### Opcodes

```
  0: 0x011B [0x5E] EventEntity goes idle (kills current action) (animation: "idl0")
  1: 0x0120 [0x1C] WAIT(30* ticks)
  2: 0x0123 [0x00] END_REQSTACK()
```

### Event 633

#### Metadata

| Field        | Value    |
|--------------|----------|
| Entrypoint   | 0x0124   |
| Data Size    | 33 bytes |
| Instructions | 12       |

```
      00 01 02 03 04 05 06 07  08 09 0A 0B 0C 0D 0E 0F
      -- -- -- -- -- -- -- --  -- -- -- -- -- -- -- --
0120:             1E F0 FF FF  7F 6F 70 29 08 84 70 0E      .....op)..p.
0130: 01 03 1D 03 80 23 1D 04  80 23 29 08 84 70 0E 01  .....#...#)..p..
0140: 04 20 00 21 00                                    . .!.           
```

#### Opcodes

```
  0: 0x0124 [0x1E] EventEntity looks at LocalPlayer and starts talking
  1: 0x0129 [0x6F] WAIT_FRAME_DELAY: Yield until WaitTime reaches zero
  2: 0x012A [0x70] WAIT_ENTITY_RENDER_FLAG: Wait while EventEntity->Render.Flags3 bit 2 is set (cancel turn if not)
  3: 0x012B [0x29] REQ_SET_WAIT(priority=0x08, entity_id=Calovour (ID: 17723524/0x010E7084), tag_num=0x03)
  4: 0x0132 [0x1D] PRINT_EVENT_MESSAGE(message_id=7194*)
    → "The Gates of Paradise only welcome souls free of desire. I have given my riches to the cathedral. I am now free."
  5: 0x0135 [0x23] WAIT_FOR_DIALOG_INTERACTION
  6: 0x0136 [0x1D] PRINT_EVENT_MESSAGE(message_id=7195*)
    → "May Altana guide my soul to Paradise. My heart is calm as never before."
  7: 0x0139 [0x23] WAIT_FOR_DIALOG_INTERACTION
  8: 0x013A [0x29] REQ_SET_WAIT(priority=0x08, entity_id=Calovour (ID: 17723524/0x010E7084), tag_num=0x04)
  9: 0x0141 [0x20] SET_CLI_EVENT_UC_FLAG: Unlock player control
 10: 0x0143 [0x21] END_EVENT
 11: 0x0144 [0x00] END_REQSTACK()
```

### Event 637

#### Metadata

| Field        | Value    |
|--------------|----------|
| Entrypoint   | 0x0145   |
| Data Size    | 39 bytes |
| Instructions | 10       |

```
      00 01 02 03 04 05 06 07  08 09 0A 0B 0C 0D 0E 0F
      -- -- -- -- -- -- -- --  -- -- -- -- -- -- -- --
0140:                1E F0 FF  FF 7F 6F 70 29 0B 84 70       .....op)..p
0150: 0E 01 18 29 0B 84 70 0E  01 19 29 0B 84 70 0E 01  ...)..p...)..p..
0160: 1A 29 0B 84 70 0E 01 1B  20 00 21 00              .)..p... .!.    
```

#### Opcodes

```
  0: 0x0145 [0x1E] EventEntity looks at LocalPlayer and starts talking
  1: 0x014A [0x6F] WAIT_FRAME_DELAY: Yield until WaitTime reaches zero
  2: 0x014B [0x70] WAIT_ENTITY_RENDER_FLAG: Wait while EventEntity->Render.Flags3 bit 2 is set (cancel turn if not)
  3: 0x014C [0x29] REQ_SET_WAIT(priority=0x0B, entity_id=Calovour (ID: 17723524/0x010E7084), tag_num=0x18)
  4: 0x0153 [0x29] REQ_SET_WAIT(priority=0x0B, entity_id=Calovour (ID: 17723524/0x010E7084), tag_num=0x19)
  5: 0x015A [0x29] REQ_SET_WAIT(priority=0x0B, entity_id=Calovour (ID: 17723524/0x010E7084), tag_num=0x1A)
  6: 0x0161 [0x29] REQ_SET_WAIT(priority=0x0B, entity_id=Calovour (ID: 17723524/0x010E7084), tag_num=0x1B)
  7: 0x0168 [0x20] SET_CLI_EVENT_UC_FLAG: Unlock player control
  8: 0x016A [0x21] END_EVENT
  9: 0x016B [0x00] END_REQSTACK()
```

### Event 65535.20

#### Metadata

| Field        | Value    |
|--------------|----------|
| Entrypoint   | 0x016C   |
| Data Size    | 23 bytes |
| Instructions | 7        |

```
      00 01 02 03 04 05 06 07  08 09 0A 0B 0C 0D 0E 0F
      -- -- -- -- -- -- -- --  -- -- -- -- -- -- -- --
0160:                                      29 08 84 70              )..p
0170: 0E 01 03 1D 05 80 23 29  08 84 70 0E 01 04 1D 06  ......#)..p.....
0180: 80 23 00                                          .#.             
```

#### Opcodes

```
  0: 0x016C [0x29] REQ_SET_WAIT(priority=0x08, entity_id=Calovour (ID: 17723524/0x010E7084), tag_num=0x03)
  1: 0x0173 [0x1D] PRINT_EVENT_MESSAGE(message_id=7205*)
    → "What? The $2 I consigned to the furniture store? Yes, I remember it."
  2: 0x0176 [0x23] WAIT_FOR_DIALOG_INTERACTION
  3: 0x0177 [0x29] REQ_SET_WAIT(priority=0x08, entity_id=Calovour (ID: 17723524/0x010E7084), tag_num=0x04)
  4: 0x017E [0x1D] PRINT_EVENT_MESSAGE(message_id=7206*)
    → "Really, that was inside? I've not seen this for many years!"
  5: 0x0181 [0x23] WAIT_FOR_DIALOG_INTERACTION
  6: 0x0182 [0x00] END_REQSTACK()
```

### Event 65535.21

#### Metadata

| Field        | Value    |
|--------------|----------|
| Entrypoint   | 0x0183   |
| Data Size    | 19 bytes |
| Instructions | 5        |

```
      00 01 02 03 04 05 06 07  08 09 0A 0B 0C 0D 0E 0F
      -- -- -- -- -- -- -- --  -- -- -- -- -- -- -- --
0180:          29 08 84 70 0E  01 05 1D 07 80 23 29 08     )..p......#).
0190: 84 70 0E 01 06 00                                 .p....          
```

#### Opcodes

```
  0: 0x0183 [0x29] REQ_SET_WAIT(priority=0x08, entity_id=Calovour (ID: 17723524/0x010E7084), tag_num=0x05)
  1: 0x018A [0x1D] PRINT_EVENT_MESSAGE(message_id=7207*)
    → "I was once in the service of the late Queen Leaute. Her Highness gave it to me personally."
  2: 0x018D [0x23] WAIT_FOR_DIALOG_INTERACTION
  3: 0x018E [0x29] REQ_SET_WAIT(priority=0x08, entity_id=Calovour (ID: 17723524/0x010E7084), tag_num=0x06)
  4: 0x0195 [0x00] END_REQSTACK()
```

### Event 65535.22

#### Metadata

| Field        | Value    |
|--------------|----------|
| Entrypoint   | 0x0196   |
| Data Size    | 23 bytes |
| Instructions | 7        |

```
      00 01 02 03 04 05 06 07  08 09 0A 0B 0C 0D 0E 0F
      -- -- -- -- -- -- -- --  -- -- -- -- -- -- -- --
0190:                   29 08  84 70 0E 01 07 1D 08 80        )..p......
01A0: 23 29 08 84 70 0E 01 08  1D 09 80 23 00           #)..p......#.   
```

#### Opcodes

```
  0: 0x0196 [0x29] REQ_SET_WAIT(priority=0x08, entity_id=Calovour (ID: 17723524/0x010E7084), tag_num=0x07)
  1: 0x019D [0x1D] PRINT_EVENT_MESSAGE(message_id=7208*)
    → "Ah... Seeing this brings back many memories. I took good care of the queen and her newborn prince!"
  2: 0x01A0 [0x23] WAIT_FOR_DIALOG_INTERACTION
  3: 0x01A1 [0x29] REQ_SET_WAIT(priority=0x08, entity_id=Calovour (ID: 17723524/0x010E7084), tag_num=0x08)
  4: 0x01A8 [0x1D] PRINT_EVENT_MESSAGE(message_id=7209*)
    → "I prayed for the royal family every time I poured mistletoe tea into that teacup."
  5: 0x01AB [0x23] WAIT_FOR_DIALOG_INTERACTION
  6: 0x01AC [0x00] END_REQSTACK()
```

### Event 65535.23

#### Metadata

| Field        | Value    |
|--------------|----------|
| Entrypoint   | 0x01AD   |
| Data Size    | 23 bytes |
| Instructions | 7        |

```
      00 01 02 03 04 05 06 07  08 09 0A 0B 0C 0D 0E 0F
      -- -- -- -- -- -- -- --  -- -- -- -- -- -- -- --
01A0:                                         29 08 84               )..
01B0: 70 0E 01 03 1D 0A 80 23  1D 0B 80 23 29 08 84 70  p......#...#)..p
01C0: 0E 01 04 00                                       ....            
```

#### Opcodes

```
  0: 0x01AD [0x29] REQ_SET_WAIT(priority=0x08, entity_id=Calovour (ID: 17723524/0x010E7084), tag_num=0x03)
  1: 0x01B4 [0x1D] PRINT_EVENT_MESSAGE(message_id=7210*)
    → "Kind adventurer, I beg you. Please find me $3. I would very much like to taste those memories once more."
  2: 0x01B7 [0x23] WAIT_FOR_DIALOG_INTERACTION
  3: 0x01B8 [0x1D] PRINT_EVENT_MESSAGE(message_id=7211*)
    → "Please, I know it is an odd request, but it would mean so much to me."
  4: 0x01BB [0x23] WAIT_FOR_DIALOG_INTERACTION
  5: 0x01BC [0x29] REQ_SET_WAIT(priority=0x08, entity_id=Calovour (ID: 17723524/0x010E7084), tag_num=0x04)
  6: 0x01C3 [0x00] END_REQSTACK()
```

### Event 638

#### Metadata

| Field        | Value    |
|--------------|----------|
| Entrypoint   | 0x01C4   |
| Data Size    | 33 bytes |
| Instructions | 12       |

```
      00 01 02 03 04 05 06 07  08 09 0A 0B 0C 0D 0E 0F
      -- -- -- -- -- -- -- --  -- -- -- -- -- -- -- --
01C0:             1E F0 FF FF  7F 6F 70 29 08 84 70 0E      .....op)..p.
01D0: 01 03 1D 0C 80 23 1D 0D  80 23 29 08 84 70 0E 01  .....#...#)..p..
01E0: 04 20 00 21 00                                    . .!.           
```

#### Opcodes

```
  0: 0x01C4 [0x1E] EventEntity looks at LocalPlayer and starts talking
  1: 0x01C9 [0x6F] WAIT_FRAME_DELAY: Yield until WaitTime reaches zero
  2: 0x01CA [0x70] WAIT_ENTITY_RENDER_FLAG: Wait while EventEntity->Render.Flags3 bit 2 is set (cancel turn if not)
  3: 0x01CB [0x29] REQ_SET_WAIT(priority=0x08, entity_id=Calovour (ID: 17723524/0x010E7084), tag_num=0x03)
  4: 0x01D2 [0x1D] PRINT_EVENT_MESSAGE(message_id=7212*)
    → "Kind adventurer, I beg you. Please find me $3. I would very much like to taste those fond memories once more."
  5: 0x01D5 [0x23] WAIT_FOR_DIALOG_INTERACTION
  6: 0x01D6 [0x1D] PRINT_EVENT_MESSAGE(message_id=7213*)
    → "Please, I know it is an odd request, but it would mean so much to me."
  7: 0x01D9 [0x23] WAIT_FOR_DIALOG_INTERACTION
  8: 0x01DA [0x29] REQ_SET_WAIT(priority=0x08, entity_id=Calovour (ID: 17723524/0x010E7084), tag_num=0x04)
  9: 0x01E1 [0x20] SET_CLI_EVENT_UC_FLAG: Unlock player control
 10: 0x01E3 [0x21] END_EVENT
 11: 0x01E4 [0x00] END_REQSTACK()
```

### Event 639

#### Metadata

| Field        | Value     |
|--------------|-----------|
| Entrypoint   | 0x01E5    |
| Data Size    | 248 bytes |
| Instructions | 40        |

```
      00 01 02 03 04 05 06 07  08 09 0A 0B 0C 0D 0E 0F
      -- -- -- -- -- -- -- --  -- -- -- -- -- -- -- --
01E0:                20 01 42  46 01 1E F0 FF FF 7F 6F        .BF......o
01F0: 70 5D 0E 80 0F 80 45 0F  80 F8 FF FF 7F F8 FF FF  p]....E.........
0200: 7F 66 64 6F 31 0E 80 1C  10 80 38 11 80 29 0B F0  .fdo1.....8..)..
0210: FF FF 7F 31 5C 00 12 80  5C 01 12 80 5D 13 80 14  ...1\...\...]...
0220: 80 1C 15 80 1E F0 FF FF  7F 6F 70 45 16 80 F8 FF  .........opE....
0230: FF 7F F8 FF FF 7F 73 30  31 30 0E 80 45 0F 80 F8  ......s010..E...
0240: FF FF 7F F8 FF FF 7F 66  64 69 31 0E 80 1C 17 80  .......fdi1.....
0250: 29 0B 84 70 0E 01 1E 29  0B 84 70 0E 01 1F 52 16  )..p...)..p...R.
0260: 80 F8 FF FF 7F F8 FF FF  7F 73 30 31 30 45 16 80  .........s010E..
0270: F8 FF FF 7F F8 FF FF 7F  73 30 31 31 0E 80 29 0B  ........s011..).
0280: 84 70 0E 01 20 29 0B 84  70 0E 01 21 5D 0E 80 0F  .p.. )..p..!]...
0290: 80 45 0F 80 F8 FF FF 7F  F8 FF FF 7F 66 64 6F 31  .E..........fdo1
02A0: 0E 80 1C 10 80 5C 00 18  80 5C 01 18 80 5D 13 80  .....\...\...]..
02B0: 14 80 1C 10 80 46 00 45  0F 80 F8 FF FF 7F F8 FF  .....F.E........
02C0: FF 7F 66 64 69 31 0E 80  45 19 80 F0 FF FF 7F F0  ..fdi1..E.......
02D0: FF FF 7F 71 73 74 63 0E  80 20 00 21 00           ...qstc.. .!.   
```

#### Opcodes

```
  0: 0x01E5 [0x20] SET_CLI_EVENT_UC_FLAG: Lock player control
  1: 0x01E7 [0x42] SET_CLI_EVENT_CANCEL_DATA()
  2: 0x01E8 [0x46] CAMERA_CONTROL: Disable user control
  3: 0x01EA [0x1E] EventEntity looks at LocalPlayer and starts talking
  4: 0x01EF [0x6F] WAIT_FRAME_DELAY: Yield until WaitTime reaches zero
  5: 0x01F0 [0x70] WAIT_ENTITY_RENDER_FLAG: Wait while EventEntity->Render.Flags3 bit 2 is set (cancel turn if not)
  6: 0x01F1 [0x5D] SET_MUSIC_VOLUME(volume=0*, fade_time=200*)
  7: 0x01F6 [0x45] LOAD_SCHEDULED_TASK: Load scheduler "fdo1" with entities [EventEntity, EventEntity], work=[200*, 0*]
  8: 0x0207 [0x1C] WAIT(120* ticks)
  9: 0x020A [0x38] SET_CLIENT_EVENT_MODE(mode=3*)
 10: 0x020D [0x29] REQ_SET_WAIT(priority=0x0B, entity_id=LocalPlayer, tag_num=0x31)
 11: 0x0214 [0x5C] MUSIC_CONTROL: Set Idle (Day) music to song 159*
 12: 0x0218 [0x5C] MUSIC_CONTROL: Set Idle (Night) music to song 159*
 13: 0x021C [0x5D] SET_MUSIC_VOLUME(volume=127*, fade_time=1*)
 14: 0x0221 [0x1C] WAIT(300* ticks)
 15: 0x0224 [0x1E] EventEntity looks at LocalPlayer and starts talking
 16: 0x0229 [0x6F] WAIT_FRAME_DELAY: Yield until WaitTime reaches zero
 17: 0x022A [0x70] WAIT_ENTITY_RENDER_FLAG: Wait while EventEntity->Render.Flags3 bit 2 is set (cancel turn if not)
 18: 0x022B [0x45] LOAD_SCHEDULED_TASK: Load scheduler "s010" with entities [EventEntity, EventEntity], work=[188*, 0*]
 19: 0x023C [0x45] LOAD_SCHEDULED_TASK: Load scheduler "fdi1" with entities [EventEntity, EventEntity], work=[200*, 0*]
 20: 0x024D [0x1C] WAIT(60* ticks)
 21: 0x0250 [0x29] REQ_SET_WAIT(priority=0x0B, entity_id=Calovour (ID: 17723524/0x010E7084), tag_num=0x1E)
 22: 0x0257 [0x29] REQ_SET_WAIT(priority=0x0B, entity_id=Calovour (ID: 17723524/0x010E7084), tag_num=0x1F)
 23: 0x025E [0x52] END_LOAD_SCHEDULER: End scheduler "s010" with entities [EventEntity, EventEntity], work=188*
 24: 0x026D [0x45] LOAD_SCHEDULED_TASK: Load scheduler "s011" with entities [EventEntity, EventEntity], work=[188*, 0*]
 25: 0x027E [0x29] REQ_SET_WAIT(priority=0x0B, entity_id=Calovour (ID: 17723524/0x010E7084), tag_num=0x20)
 26: 0x0285 [0x29] REQ_SET_WAIT(priority=0x0B, entity_id=Calovour (ID: 17723524/0x010E7084), tag_num=0x21)
 27: 0x028C [0x5D] SET_MUSIC_VOLUME(volume=0*, fade_time=200*)
 28: 0x0291 [0x45] LOAD_SCHEDULED_TASK: Load scheduler "fdo1" with entities [EventEntity, EventEntity], work=[200*, 0*]
 29: 0x02A2 [0x1C] WAIT(120* ticks)
 30: 0x02A5 [0x5C] MUSIC_CONTROL: Set Idle (Day) music to song 107*
 31: 0x02A9 [0x5C] MUSIC_CONTROL: Set Idle (Night) music to song 107*
 32: 0x02AD [0x5D] SET_MUSIC_VOLUME(volume=127*, fade_time=1*)
 33: 0x02B2 [0x1C] WAIT(120* ticks)
 34: 0x02B5 [0x46] CAMERA_CONTROL: Restore default settings
 35: 0x02B7 [0x45] LOAD_SCHEDULED_TASK: Load scheduler "fdi1" with entities [EventEntity, EventEntity], work=[200*, 0*]
 36: 0x02C8 [0x45] LOAD_SCHEDULED_TASK: Load scheduler "qstc" with entities [LocalPlayer, LocalPlayer], work=[201*, 0*]
 37: 0x02D9 [0x20] SET_CLI_EVENT_UC_FLAG: Unlock player control
 38: 0x02DB [0x21] END_EVENT
 39: 0x02DC [0x00] END_REQSTACK()
```

### Event 65535.24

#### Metadata

| Field        | Value   |
|--------------|---------|
| Entrypoint   | 0x02DD  |
| Data Size    | 5 bytes |
| Instructions | 3       |

```
      00 01 02 03 04 05 06 07  08 09 0A 0B 0C 0D 0E 0F
      -- -- -- -- -- -- -- --  -- -- -- -- -- -- -- --
02D0:                                         1D 1A 80               ...
02E0: 23 00                                             #.              
```

#### Opcodes

```
  0: 0x02DD [0x1D] PRINT_EVENT_MESSAGE(message_id=7214*)
    → "As I sit, with this teacup in hand, I question whether I truly deserve Paradise."
  1: 0x02E0 [0x23] WAIT_FOR_DIALOG_INTERACTION
  2: 0x02E1 [0x00] END_REQSTACK()
```

### Event 65535.25

#### Metadata

| Field        | Value    |
|--------------|----------|
| Entrypoint   | 0x02E2   |
| Data Size    | 37 bytes |
| Instructions | 9        |

```
      00 01 02 03 04 05 06 07  08 09 0A 0B 0C 0D 0E 0F
      -- -- -- -- -- -- -- --  -- -- -- -- -- -- -- --
02E0:       29 08 84 70 0E 01  05 1D 1B 80 23 29 08 84    )..p......#)..
02F0: 70 0E 01 06 29 08 84 70  0E 01 07 1D 1C 80 23 29  p...)..p......#)
0300: 08 84 70 0E 01 08 00                              ..p....         
```

#### Opcodes

```
  0: 0x02E2 [0x29] REQ_SET_WAIT(priority=0x08, entity_id=Calovour (ID: 17723524/0x010E7084), tag_num=0x05)
  1: 0x02E9 [0x1D] PRINT_EVENT_MESSAGE(message_id=7215*)
    → "Queen Leaute, bless her soul, has passed away. And her two sons are forever quarreling. All I can do is pray for them both!"
  2: 0x02EC [0x23] WAIT_FOR_DIALOG_INTERACTION
  3: 0x02ED [0x29] REQ_SET_WAIT(priority=0x08, entity_id=Calovour (ID: 17723524/0x010E7084), tag_num=0x06)
  4: 0x02F4 [0x29] REQ_SET_WAIT(priority=0x08, entity_id=Calovour (ID: 17723524/0x010E7084), tag_num=0x07)
  5: 0x02FB [0x1D] PRINT_EVENT_MESSAGE(message_id=7216*)
    → "Over the years, my heart has grown as dusty and dry as this old teacup."
  6: 0x02FE [0x23] WAIT_FOR_DIALOG_INTERACTION
  7: 0x02FF [0x29] REQ_SET_WAIT(priority=0x08, entity_id=Calovour (ID: 17723524/0x010E7084), tag_num=0x08)
  8: 0x0306 [0x00] END_REQSTACK()
```

### Event 65535.26

#### Metadata

| Field        | Value   |
|--------------|---------|
| Entrypoint   | 0x0307  |
| Data Size    | 5 bytes |
| Instructions | 3       |

```
      00 01 02 03 04 05 06 07  08 09 0A 0B 0C 0D 0E 0F
      -- -- -- -- -- -- -- --  -- -- -- -- -- -- -- --
0300:                      1D  1D 80 23 00                     ...#.    
```

#### Opcodes

```
  0: 0x0307 [0x1D] PRINT_EVENT_MESSAGE(message_id=7217*)
    → "With this $3 you brought me, I will drink again from my old teacup, and reflect on what I can do for them."
  1: 0x030A [0x23] WAIT_FOR_DIALOG_INTERACTION
  2: 0x030B [0x00] END_REQSTACK()
```

### Event 65535.27

#### Metadata

| Field        | Value    |
|--------------|----------|
| Entrypoint   | 0x030C   |
| Data Size    | 19 bytes |
| Instructions | 5        |

```
      00 01 02 03 04 05 06 07  08 09 0A 0B 0C 0D 0E 0F
      -- -- -- -- -- -- -- --  -- -- -- -- -- -- -- --
0300:                                      29 08 84 70              )..p
0310: 0E 01 03 1D 1E 80 23 29  08 84 70 0E 01 04 00     ......#)..p.... 
```

#### Opcodes

```
  0: 0x030C [0x29] REQ_SET_WAIT(priority=0x08, entity_id=Calovour (ID: 17723524/0x010E7084), tag_num=0x03)
  1: 0x0313 [0x1D] PRINT_EVENT_MESSAGE(message_id=7218*)
    → "Here, please take this as a token of my gratitude. You have done me a great service!"
  2: 0x0316 [0x23] WAIT_FOR_DIALOG_INTERACTION
  3: 0x0317 [0x29] REQ_SET_WAIT(priority=0x08, entity_id=Calovour (ID: 17723524/0x010E7084), tag_num=0x04)
  4: 0x031E [0x00] END_REQSTACK()
```

### Event 640

#### Metadata

| Field        | Value    |
|--------------|----------|
| Entrypoint   | 0x031F   |
| Data Size    | 47 bytes |
| Instructions | 14       |

```
      00 01 02 03 04 05 06 07  08 09 0A 0B 0C 0D 0E 0F
      -- -- -- -- -- -- -- --  -- -- -- -- -- -- -- --
0310:                                               1E                 .
0320: F0 FF FF 7F 6F 70 29 08  84 70 0E 01 05 1D 1F 80  ....op)..p......
0330: 23 29 08 84 70 0E 01 06  29 08 84 70 0E 01 07 1D  #)..p...)..p....
0340: 20 80 23 29 08 84 70 0E  01 08 20 00 21 00         .#)..p... .!.  
```

#### Opcodes

```
  0: 0x031F [0x1E] EventEntity looks at LocalPlayer and starts talking
  1: 0x0324 [0x6F] WAIT_FRAME_DELAY: Yield until WaitTime reaches zero
  2: 0x0325 [0x70] WAIT_ENTITY_RENDER_FLAG: Wait while EventEntity->Render.Flags3 bit 2 is set (cancel turn if not)
  3: 0x0326 [0x29] REQ_SET_WAIT(priority=0x08, entity_id=Calovour (ID: 17723524/0x010E7084), tag_num=0x05)
  4: 0x032D [0x1D] PRINT_EVENT_MESSAGE(message_id=7219*)
    → "I tried to cast aside all desire, but in the process I lost my identity."
  5: 0x0330 [0x23] WAIT_FOR_DIALOG_INTERACTION
  6: 0x0331 [0x29] REQ_SET_WAIT(priority=0x08, entity_id=Calovour (ID: 17723524/0x010E7084), tag_num=0x06)
  7: 0x0338 [0x29] REQ_SET_WAIT(priority=0x08, entity_id=Calovour (ID: 17723524/0x010E7084), tag_num=0x07)
  8: 0x033F [0x1D] PRINT_EVENT_MESSAGE(message_id=7220*)
    → "I threw aside my riches to find peace, but all I found was peace for myself, alone..."
  9: 0x0342 [0x23] WAIT_FOR_DIALOG_INTERACTION
 10: 0x0343 [0x29] REQ_SET_WAIT(priority=0x08, entity_id=Calovour (ID: 17723524/0x010E7084), tag_num=0x08)
 11: 0x034A [0x20] SET_CLI_EVENT_UC_FLAG: Unlock player control
 12: 0x034C [0x21] END_EVENT
 13: 0x034D [0x00] END_REQSTACK()
```

### Event 693

#### Metadata

| Field        | Value   |
|--------------|---------|
| Entrypoint   | 0x034E  |
| Data Size    | 1 bytes |
| Instructions | 1       |

```
      00 01 02 03 04 05 06 07  08 09 0A 0B 0C 0D 0E 0F
      -- -- -- -- -- -- -- --  -- -- -- -- -- -- -- --
0340:                                            00                   . 
```

#### Opcodes

```
  0: 0x034E [0x00] END_REQSTACK()
```

### Event 869

#### Metadata

| Field        | Value   |
|--------------|---------|
| Entrypoint   | 0x034F  |
| Data Size    | 1 bytes |
| Instructions | 1       |

```
      00 01 02 03 04 05 06 07  08 09 0A 0B 0C 0D 0E 0F
      -- -- -- -- -- -- -- --  -- -- -- -- -- -- -- --
0340:                                               00                 .
```

#### Opcodes

```
  0: 0x034F [0x00] END_REQSTACK()
```

### Event 870

#### Metadata

| Field        | Value   |
|--------------|---------|
| Entrypoint   | 0x0350  |
| Data Size    | 1 bytes |
| Instructions | 1       |

```
      00 01 02 03 04 05 06 07  08 09 0A 0B 0C 0D 0E 0F
      -- -- -- -- -- -- -- --  -- -- -- -- -- -- -- --
0350: 00                                                .               
```

#### Opcodes

```
  0: 0x0350 [0x00] END_REQSTACK()
```
