# 17723408 - Shamonde

## Common Data

| Field            | Value                         |
|------------------|-------------------------------|
| Zone             | Northern San d'Oria (ID: 231) |
| Block Size       | 1860 bytes                    |
| Total Events     | 66                            |
| References Count | 95                            |

## List of Events

| Event ID                   | Entrypoint   |   Size |   Instructions |
|----------------------------|--------------|--------|----------------|
| [65535](#event-65535)      | 0x0000       |      1 |              1 |
| [1](#event-1)              | 0x0001       |     10 |              2 |
| [65535.1](#event-655351)   | 0x000B       |     29 |              3 |
| [50](#event-50)            | 0x0028       |     13 |              3 |
| [65535.2](#event-655352)   | 0x0035       |     29 |              8 |
| [65535.3](#event-655353)   | 0x0052       |     29 |              3 |
| [531](#event-531)          | 0x006F       |      1 |              1 |
| [590](#event-590)          | 0x0070       |     28 |              8 |
| [65535.4](#event-655354)   | 0x008C       |    233 |             41 |
| [65535.5](#event-655355)   | 0x0175       |     19 |              6 |
| [37](#event-37)            | 0x0188       |     12 |              3 |
| [7](#event-7)              | 0x0194       |     10 |              2 |
| [9](#event-9)              | 0x019E       |     10 |              2 |
| [65535.6](#event-655356)   | 0x01A8       |      9 |              3 |
| [8](#event-8)              | 0x01B1       |     10 |              2 |
| [65535.7](#event-655357)   | 0x01BB       |     14 |              4 |
| [65535.8](#event-655358)   | 0x01C9       |     16 |              4 |
| [65535.9](#event-655359)   | 0x01D9       |     21 |              5 |
| [65535.10](#event-6553510) | 0x01EE       |     13 |              3 |
| [49](#event-49)            | 0x01FB       |     10 |              2 |
| [65535.11](#event-6553511) | 0x0205       |      7 |              3 |
| [65535.12](#event-6553512) | 0x020C       |     14 |              4 |
| [65535.13](#event-6553513) | 0x021A       |     65 |             13 |
| [65535.14](#event-6553514) | 0x025B       |     14 |              4 |
| [65535.15](#event-6553515) | 0x0269       |     13 |              4 |
| [65535.16](#event-6553516) | 0x0276       |     16 |              2 |
| [65535.17](#event-6553517) | 0x0286       |     22 |              4 |
| [65535.18](#event-6553518) | 0x029C       |     44 |              4 |
| [65535.19](#event-6553519) | 0x02C8       |     14 |              2 |
| [65535.20](#event-6553520) | 0x02D6       |     16 |              2 |
| [65535.21](#event-6553521) | 0x02E6       |     14 |              2 |
| [65535.22](#event-6553522) | 0x02F4       |     16 |              2 |
| [65535.23](#event-6553523) | 0x0304       |     14 |              2 |
| [65535.24](#event-6553524) | 0x0312       |     16 |              2 |
| [65535.25](#event-6553525) | 0x0322       |     14 |              2 |
| [65535.26](#event-6553526) | 0x0330       |     16 |              2 |
| [65535.27](#event-6553527) | 0x0340       |     14 |              2 |
| [65535.28](#event-6553528) | 0x034E       |     44 |              4 |
| [65535.29](#event-6553529) | 0x037A       |     14 |              2 |
| [65535.30](#event-6553530) | 0x0388       |     16 |              2 |
| [65535.31](#event-6553531) | 0x0398       |     14 |              2 |
| [65535.32](#event-6553532) | 0x03A6       |     16 |              2 |
| [65535.33](#event-6553533) | 0x03B6       |     14 |              2 |
| [65535.34](#event-6553534) | 0x03C4       |     16 |              2 |
| [65535.35](#event-6553535) | 0x03D4       |     14 |              2 |
| [65535.36](#event-6553536) | 0x03E2       |     16 |              2 |
| [65535.37](#event-6553537) | 0x03F2       |     14 |              2 |
| [65535.38](#event-6553538) | 0x0400       |     16 |              2 |
| [65535.39](#event-6553539) | 0x0410       |     14 |              2 |
| [693](#event-693)          | 0x041E       |     10 |              2 |
| [639](#event-639)          | 0x0428       |      1 |              1 |
| [65535.40](#event-6553540) | 0x0429       |     14 |              4 |
| [65535.41](#event-6553541) | 0x0437       |     14 |              4 |
| [65535.42](#event-6553542) | 0x0445       |      5 |              3 |
| [65535.43](#event-6553543) | 0x044A       |      5 |              3 |
| [694](#event-694)          | 0x044F       |      1 |              1 |
| [65535.44](#event-6553544) | 0x0450       |     10 |              2 |
| [65535.45](#event-6553545) | 0x045A       |      5 |              3 |
| [695](#event-695)          | 0x045F       |      1 |              1 |
| [65535.46](#event-6553546) | 0x0460       |     10 |              2 |
| [65535.47](#event-6553547) | 0x046A       |     19 |              5 |
| [65535.48](#event-6553548) | 0x047D       |      5 |              3 |
| [65535.49](#event-6553549) | 0x0482       |      5 |              3 |
| [65535.50](#event-6553550) | 0x0487       |      5 |              3 |
| [65535.51](#event-6553551) | 0x048C       |     17 |              5 |
| [16](#event-16)            | 0x049D       |     18 |              4 |

## DAT References (imed_data)

|   Index | Hex Value   |   Dec Value |
|---------|-------------|-------------|
|       0 | 0x24CCE     |      150734 |
|       1 | 0x22DC1     |      142785 |
|       2 | 0xFFFFFDA7  |  4294966695 |
|       3 | 0x062F      |        1583 |
|       4 | 0x0087      |         135 |
|       5 | 0x1E1BC     |      123324 |
|       6 | 0x1BCC9     |      113865 |
|       7 | 0xFFFFD505  |  4294956293 |
|       8 | 0x01D9      |         473 |
|       9 | 0x0007      |           7 |
|      10 | 0x1D25E     |      119390 |
|      11 | 0x1BD9B     |      114075 |
|      12 | 0xFFFFD508  |  4294956296 |
|      13 | 0x19F54     |      106324 |
|      14 | 0x17AFB     |       97019 |
|      15 | 0xFFFFB2E6  |  4294947558 |
|      16 | 0x061A      |        1562 |
|      17 | 0x000D      |          13 |
|      18 | 0x003C      |          60 |
|      19 | 0x19D4F     |      105807 |
|      20 | 0x17A5F     |       96863 |
|      21 | 0xFFFFB2F2  |  4294947570 |
|      22 | 0x0609      |        1545 |
|      23 | 0x0078      |         120 |
|      24 | 0x0429      |        1065 |
|      25 | 0x2C80      |       11392 |
|      26 | 0x0555      |        1365 |
|      27 | 0x2C81      |       11393 |
|      28 | 0x0681      |        1665 |
|      29 | 0x2C82      |       11394 |
|      30 | 0x2C83      |       11395 |
|      31 | 0x001E      |          30 |
|      32 | 0x0002      |           2 |
|      33 | 0x1A36B     |      107371 |
|      34 | 0x18408     |       99336 |
|      35 | 0xFFFFB3C4  |  4294947780 |
|      36 | 0x1E6CC     |      124620 |
|      37 | 0x1C83C     |      116796 |
|      38 | 0x1963      |        6499 |
|      39 | 0x0DF8      |        3576 |
|      40 | 0x1D8FF     |      121087 |
|      41 | 0x1BFD6     |      114646 |
|      42 | 0xFFFFD504  |  4294956292 |
|      43 | 0x0DD8      |        3544 |
|      44 | 0x1EAA2     |      125602 |
|      45 | 0x1CA72     |      117362 |
|      46 | 0x0DB3      |        3507 |
|      47 | 0x319E      |       12702 |
|      48 | 0x1F3BC     |      127932 |
|      49 | 0x1D4FB     |      120059 |
|      50 | 0x1FB4A     |      129866 |
|      51 | 0x1DBDE     |      121822 |
|      52 | 0x012C      |         300 |
|      53 | 0x20FBF     |      135103 |
|      54 | 0x1EF5A     |      126810 |
|      55 | 0x0E15      |        3605 |
|      56 | 0x21A5E     |      137822 |
|      57 | 0x1FB46     |      129862 |
|      58 | 0x0623      |        1571 |
|      59 | 0x0E55      |        3669 |
|      60 | 0x005A      |          90 |
|      61 | 0x1DE91     |      122513 |
|      62 | 0x1BF9B     |      114587 |
|      63 | 0x00F1      |         241 |
|      64 | 0x0000      |           0 |
|      65 | 0x1E15D     |      123229 |
|      66 | 0x1C249     |      115273 |
|      67 | 0x201FE     |      131582 |
|      68 | 0x1E39E     |      123806 |
|      69 | 0x20E73     |      134771 |
|      70 | 0x1D728     |      120616 |
|      71 | 0x20BC0     |      134080 |
|      72 | 0x1E9C1     |      125377 |
|      73 | 0x0DB8      |        3512 |
|      74 | 0x237DD     |      145373 |
|      75 | 0x213F7     |      136183 |
|      76 | 0x22CE5     |      142565 |
|      77 | 0x20CDC     |      134364 |
|      78 | 0x3110      |       12560 |
|      79 | 0x3111      |       12561 |
|      80 | 0x205DD     |      132573 |
|      81 | 0x1E681     |      124545 |
|      82 | 0x0D05      |        3333 |
|      83 | 0x311F      |       12575 |
|      84 | 0x1DE0D     |      122381 |
|      85 | 0x1CF02     |      118530 |
|      86 | 0x036F      |         879 |
|      87 | 0x0032      |          50 |
|      88 | 0x3121      |       12577 |
|      89 | 0x3122      |       12578 |
|      90 | 0x3126      |       12582 |
|      91 | 0x312A      |       12586 |
|      92 | 0x21215     |      135701 |
|      93 | 0x1EAA3     |      125603 |
|      94 | 0x0625      |        1573 |

## String References

- **11392**: Beloved San d'Oria, Altana watches over us, always.
- **11393**: She is the ally of the weak. She feeds the hungry and clothes the needy.
- **11394**: She has given us the path to eternal Paradise. By this trial shall she judge us all.
- **11395**: May Paradise open its gates to all her children!
- **12560**: That is correct, Your Highness. I hear that Tedimout sometimes went into the forest to look for herbs.
- **12561**: Let us not jump to conclusions. Perhaps Tedimout set out on his own...for an extended hike, for example! Temple Knights are sent out only in special cases. First we must know more!
- **12575**: So, Tedimout has returned... Confound that meddling adventurer!
- **12577**: That hotheaded brother of yours refuses to think pragmatically. Our research through the centuries proves that the Gates of Paradise will soon open forth!
- **12578**: And still his ears are deaf to us! Your Highness, I fear we may fall behind the other nations.
- **12582**: How dare you! Eavesdropping on the papsque as he entertains the prince!
- **12586**: Hmph.

## Events

### Event 65535

#### Metadata

| Field        | Value   |
|--------------|---------|
| Entrypoint   | 0x0000  |
| Data Size    | 1 bytes |
| Instructions | 1       |

```
      00 01 02 03 04 05 06 07  08 09 0A 0B 0C 0D 0E 0F
      -- -- -- -- -- -- -- --  -- -- -- -- -- -- -- --
0000: 00                                                .               
```

#### Opcodes

```
  0: 0x0000 [0x00] END_REQSTACK()
```

### Event 1

#### Metadata

| Field        | Value    |
|--------------|----------|
| Entrypoint   | 0x0001   |
| Data Size    | 10 bytes |
| Instructions | 2        |

```
      00 01 02 03 04 05 06 07  08 09 0A 0B 0C 0D 0E 0F
      -- -- -- -- -- -- -- --  -- -- -- -- -- -- -- --
0000:    37 00 80 01 80 02 80  03 80 00                  7.........     
```

#### Opcodes

```
  0: 0x0001 [0x37] UPDATE_EVENT_POSITION_AND_DIR: x=150.734*, z=142.785*, y=-0.601*, direction=139.1°*
  1: 0x000A [0x00] END_REQSTACK()
```

### Event 65535.1

#### Metadata

| Field        | Value    |
|--------------|----------|
| Entrypoint   | 0x000B   |
| Data Size    | 29 bytes |
| Instructions | 3        |

```
      00 01 02 03 04 05 06 07  08 09 0A 0B 0C 0D 0E 0F
      -- -- -- -- -- -- -- --  -- -- -- -- -- -- -- --
0000:                                   5B 04 80 F8 FF             [....
0010: FF 7F F8 FF FF 7F 73 63  6B 30 53 F8 FF FF 7F F8  ......sck0S.....
0020: FF FF 7F 73 63 6B 30 00                           ...sck0.        
```

#### Opcodes

```
  0: 0x000B [0x5B] LOAD_EXT_SCHEDULER: Load scheduler "sck0" with entities [EventEntity, EventEntity], work=135*
  1: 0x001A [0x53] WAIT_SCHEDULER_TASK: Wait for scheduler "sck0" with entities [EventEntity, EventEntity]
  2: 0x0027 [0x00] END_REQSTACK()
```

### Event 50

#### Metadata

| Field        | Value    |
|--------------|----------|
| Entrypoint   | 0x0028   |
| Data Size    | 13 bytes |
| Instructions | 3        |

```
      00 01 02 03 04 05 06 07  08 09 0A 0B 0C 0D 0E 0F
      -- -- -- -- -- -- -- --  -- -- -- -- -- -- -- --
0020:                          37 05 80 06 80 07 80 08          7.......
0030: 80 32 09 80 00                                    .2...           
```

#### Opcodes

```
  0: 0x0028 [0x37] UPDATE_EVENT_POSITION_AND_DIR: x=123.324*, z=113.865*, y=-11.003*, direction=41.6°*
  1: 0x0031 [0x32] ExtData[1]->MainSpeed = 7* * 0.1
  2: 0x0034 [0x00] END_REQSTACK()
```

### Event 65535.2

#### Metadata

| Field        | Value    |
|--------------|----------|
| Entrypoint   | 0x0035   |
| Data Size    | 29 bytes |
| Instructions | 8        |

```
      00 01 02 03 04 05 06 07  08 09 0A 0B 0C 0D 0E 0F
      -- -- -- -- -- -- -- --  -- -- -- -- -- -- -- --
0030:                1F 00 0A  80 0B 80 0C 80 1F 01 6F       ..........o
0040: 7B F8 FF FF 7F 33 01 84  37 0D 80 0E 80 0F 80 10  {....3..7.......
0050: 80 00                                             ..              
```

#### Opcodes

```
  0: 0x0035 [0x1F] MOVE_ENTITY: EventEntity moves to X=119.390*, Z=114.075*, Y=-11.000*
  1: 0x003D [0x1F] MOVE_ENTITY: Update entity position (mode=1)
  2: 0x003F [0x6F] WAIT_FRAME_DELAY: Yield until WaitTime reaches zero
  3: 0x0040 [0x7B] EventEntity stops talking
  4: 0x0045 [0x33] EventEntity->Render.Flags0 |= 0x200000 // Bit 21 (flag=0x01)
  5: 0x0047 [0x84] ADJUST_RENDER_FLAGS3_BIT0()
  6: 0x0048 [0x37] UPDATE_EVENT_POSITION_AND_DIR: x=106.324*, z=97.019*, y=-19.738*, direction=137.3°*
  7: 0x0051 [0x00] END_REQSTACK()
```

### Event 65535.3

#### Metadata

| Field        | Value    |
|--------------|----------|
| Entrypoint   | 0x0052   |
| Data Size    | 29 bytes |
| Instructions | 3        |

```
      00 01 02 03 04 05 06 07  08 09 0A 0B 0C 0D 0E 0F
      -- -- -- -- -- -- -- --  -- -- -- -- -- -- -- --
0050:       5B 04 80 F8 FF FF  7F F8 FF FF 7F 69 6E 6F    [..........ino
0060: 30 53 F8 FF FF 7F F8 FF  FF 7F 69 6E 6F 30 00     0S........ino0. 
```

#### Opcodes

```
  0: 0x0052 [0x5B] LOAD_EXT_SCHEDULER: Load scheduler "ino0" with entities [EventEntity, EventEntity], work=135*
  1: 0x0061 [0x53] WAIT_SCHEDULER_TASK: Wait for scheduler "ino0" with entities [EventEntity, EventEntity]
  2: 0x006E [0x00] END_REQSTACK()
```

### Event 531

#### Metadata

| Field        | Value   |
|--------------|---------|
| Entrypoint   | 0x006F  |
| Data Size    | 1 bytes |
| Instructions | 1       |

```
      00 01 02 03 04 05 06 07  08 09 0A 0B 0C 0D 0E 0F
      -- -- -- -- -- -- -- --  -- -- -- -- -- -- -- --
0060:                                               00                 .
```

#### Opcodes

```
  0: 0x006F [0x00] END_REQSTACK()
```

### Event 590

#### Metadata

| Field        | Value    |
|--------------|----------|
| Entrypoint   | 0x0070   |
| Data Size    | 28 bytes |
| Instructions | 8        |

```
      00 01 02 03 04 05 06 07  08 09 0A 0B 0C 0D 0E 0F
      -- -- -- -- -- -- -- --  -- -- -- -- -- -- -- --
0070: 2F 00 10 70 0E 01 22 00  32 11 80 1C 12 80 1F 00  /..p..".2.......
0080: 13 80 14 80 15 80 1F 01  39 16 80 00              ........9...    
```

#### Opcodes

```
  0: 0x0070 [0x2F] Shamonde (ID: 17723408/0x010E7010)->Render.Flags0 &= ~0x80000 // Bit 19
  1: 0x0076 [0x22] ENTITY_HIDE_FLAG(enabled=0x00)
  2: 0x0078 [0x32] ExtData[1]->MainSpeed = 13* * 0.1
  3: 0x007B [0x1C] WAIT(60* ticks)
  4: 0x007E [0x1F] MOVE_ENTITY: EventEntity moves to X=105.807*, Z=96.863*, Y=-19.726*
  5: 0x0086 [0x1F] MOVE_ENTITY: Update entity position (mode=1)
  6: 0x0088 [0x39] SET_ENTITY_DIRECTION(direction=8.5°*)
  7: 0x008B [0x00] END_REQSTACK()
```

### Event 65535.4

#### Metadata

| Field        | Value     |
|--------------|-----------|
| Entrypoint   | 0x008C    |
| Data Size    | 233 bytes |
| Instructions | 41        |

```
      00 01 02 03 04 05 06 07  08 09 0A 0B 0C 0D 0E 0F
      -- -- -- -- -- -- -- --  -- -- -- -- -- -- -- --
0080:                                      32 11 80 1C              2...
0090: 17 80 39 18 80 6F 70 5B  04 80 F8 FF FF 7F F8 FF  ..9..op[........
00A0: FF 7F 65 6E 7A 30 1D 19  80 23 5B 04 80 F8 FF FF  ..enz0...#[.....
00B0: 7F F8 FF FF 7F 65 6E 7A  31 53 F8 FF FF 7F F8 FF  .....enz1S......
00C0: FF 7F 65 6E 7A 31 1C 12  80 39 1A 80 6F 70 5B 04  ..enz1...9..op[.
00D0: 80 F8 FF FF 7F F8 FF FF  7F 65 6E 7A 30 1D 1B 80  .........enz0...
00E0: 23 5B 04 80 F8 FF FF 7F  F8 FF FF 7F 65 6E 7A 31  #[..........enz1
00F0: 53 F8 FF FF 7F F8 FF FF  7F 65 6E 7A 31 1C 12 80  S........enz1...
0100: 39 1C 80 6F 70 5B 04 80  F8 FF FF 7F F8 FF FF 7F  9..op[..........
0110: 65 6E 7A 30 1D 1D 80 23  5B 04 80 F8 FF FF 7F F8  enz0...#[.......
0120: FF FF 7F 65 6E 7A 31 53  F8 FF FF 7F F8 FF FF 7F  ...enz1S........
0130: 65 6E 7A 31 1C 12 80 39  1A 80 6F 70 5B 04 80 F8  enz1...9..op[...
0140: FF FF 7F F8 FF FF 7F 65  6E 7A 30 1D 1E 80 23 5B  .......enz0...#[
0150: 04 80 F8 FF FF 7F F8 FF  FF 7F 65 6E 7A 31 53 F8  ..........enz1S.
0160: FF FF 7F F8 FF FF 7F 65  6E 7A 31 1C 1F 80 39 20  .......enz1...9 
0170: 80 1C 12 80 00                                    .....           
```

#### Opcodes

```
  0: 0x008C [0x32] ExtData[1]->MainSpeed = 13* * 0.1
  1: 0x008F [0x1C] WAIT(120* ticks)
  2: 0x0092 [0x39] SET_ENTITY_DIRECTION(direction=5.9°*)
  3: 0x0095 [0x6F] WAIT_FRAME_DELAY: Yield until WaitTime reaches zero
  4: 0x0096 [0x70] WAIT_ENTITY_RENDER_FLAG: Wait while EventEntity->Render.Flags3 bit 2 is set (cancel turn if not)
  5: 0x0097 [0x5B] LOAD_EXT_SCHEDULER: Load scheduler "enz0" with entities [EventEntity, EventEntity], work=135*
  6: 0x00A6 [0x1D] PRINT_EVENT_MESSAGE(message_id=11392*)
    → "Beloved San d'Oria, Altana watches over us, always."
  7: 0x00A9 [0x23] WAIT_FOR_DIALOG_INTERACTION
  8: 0x00AA [0x5B] LOAD_EXT_SCHEDULER: Load scheduler "enz1" with entities [EventEntity, EventEntity], work=135*
  9: 0x00B9 [0x53] WAIT_SCHEDULER_TASK: Wait for scheduler "enz1" with entities [EventEntity, EventEntity]
 10: 0x00C6 [0x1C] WAIT(60* ticks)
 11: 0x00C9 [0x39] SET_ENTITY_DIRECTION(direction=7.5°*)
 12: 0x00CC [0x6F] WAIT_FRAME_DELAY: Yield until WaitTime reaches zero
 13: 0x00CD [0x70] WAIT_ENTITY_RENDER_FLAG: Wait while EventEntity->Render.Flags3 bit 2 is set (cancel turn if not)
 14: 0x00CE [0x5B] LOAD_EXT_SCHEDULER: Load scheduler "enz0" with entities [EventEntity, EventEntity], work=135*
 15: 0x00DD [0x1D] PRINT_EVENT_MESSAGE(message_id=11393*)
    → "She is the ally of the weak. She feeds the hungry and clothes the needy."
 16: 0x00E0 [0x23] WAIT_FOR_DIALOG_INTERACTION
 17: 0x00E1 [0x5B] LOAD_EXT_SCHEDULER: Load scheduler "enz1" with entities [EventEntity, EventEntity], work=135*
 18: 0x00F0 [0x53] WAIT_SCHEDULER_TASK: Wait for scheduler "enz1" with entities [EventEntity, EventEntity]
 19: 0x00FD [0x1C] WAIT(60* ticks)
 20: 0x0100 [0x39] SET_ENTITY_DIRECTION(direction=9.1°*)
 21: 0x0103 [0x6F] WAIT_FRAME_DELAY: Yield until WaitTime reaches zero
 22: 0x0104 [0x70] WAIT_ENTITY_RENDER_FLAG: Wait while EventEntity->Render.Flags3 bit 2 is set (cancel turn if not)
 23: 0x0105 [0x5B] LOAD_EXT_SCHEDULER: Load scheduler "enz0" with entities [EventEntity, EventEntity], work=135*
 24: 0x0114 [0x1D] PRINT_EVENT_MESSAGE(message_id=11394*)
    → "She has given us the path to eternal Paradise. By this trial shall she judge us all."
 25: 0x0117 [0x23] WAIT_FOR_DIALOG_INTERACTION
 26: 0x0118 [0x5B] LOAD_EXT_SCHEDULER: Load scheduler "enz1" with entities [EventEntity, EventEntity], work=135*
 27: 0x0127 [0x53] WAIT_SCHEDULER_TASK: Wait for scheduler "enz1" with entities [EventEntity, EventEntity]
 28: 0x0134 [0x1C] WAIT(60* ticks)
 29: 0x0137 [0x39] SET_ENTITY_DIRECTION(direction=7.5°*)
 30: 0x013A [0x6F] WAIT_FRAME_DELAY: Yield until WaitTime reaches zero
 31: 0x013B [0x70] WAIT_ENTITY_RENDER_FLAG: Wait while EventEntity->Render.Flags3 bit 2 is set (cancel turn if not)
 32: 0x013C [0x5B] LOAD_EXT_SCHEDULER: Load scheduler "enz0" with entities [EventEntity, EventEntity], work=135*
 33: 0x014B [0x1D] PRINT_EVENT_MESSAGE(message_id=11395*)
    → "May Paradise open its gates to all her children!"
 34: 0x014E [0x23] WAIT_FOR_DIALOG_INTERACTION
 35: 0x014F [0x5B] LOAD_EXT_SCHEDULER: Load scheduler "enz1" with entities [EventEntity, EventEntity], work=135*
 36: 0x015E [0x53] WAIT_SCHEDULER_TASK: Wait for scheduler "enz1" with entities [EventEntity, EventEntity]
 37: 0x016B [0x1C] WAIT(30* ticks)
 38: 0x016E [0x39] SET_ENTITY_DIRECTION(direction=0.0°*)
 39: 0x0171 [0x1C] WAIT(60* ticks)
 40: 0x0174 [0x00] END_REQSTACK()
```

### Event 65535.5

#### Metadata

| Field        | Value    |
|--------------|----------|
| Entrypoint   | 0x0175   |
| Data Size    | 19 bytes |
| Instructions | 6        |

```
      00 01 02 03 04 05 06 07  08 09 0A 0B 0C 0D 0E 0F
      -- -- -- -- -- -- -- --  -- -- -- -- -- -- -- --
0170:                32 11 80  1F 00 21 80 22 80 23 80       2....!.".#.
0180: 1F 01 22 01 1C 17 80 00                           ..".....        
```

#### Opcodes

```
  0: 0x0175 [0x32] ExtData[1]->MainSpeed = 13* * 0.1
  1: 0x0178 [0x1F] MOVE_ENTITY: EventEntity moves to X=107.371*, Z=99.336*, Y=-19.516*
  2: 0x0180 [0x1F] MOVE_ENTITY: Update entity position (mode=1)
  3: 0x0182 [0x22] ENTITY_HIDE_FLAG(enabled=0x01)
  4: 0x0184 [0x1C] WAIT(120* ticks)
  5: 0x0187 [0x00] END_REQSTACK()
```

### Event 37

#### Metadata

| Field        | Value    |
|--------------|----------|
| Entrypoint   | 0x0188   |
| Data Size    | 12 bytes |
| Instructions | 3        |

```
      00 01 02 03 04 05 06 07  08 09 0A 0B 0C 0D 0E 0F
      -- -- -- -- -- -- -- --  -- -- -- -- -- -- -- --
0180:                          22 01 37 24 80 25 80 26          ".7$.%.&
0190: 80 27 80 00                                       .'..            
```

#### Opcodes

```
  0: 0x0188 [0x22] ENTITY_HIDE_FLAG(enabled=0x01)
  1: 0x018A [0x37] UPDATE_EVENT_POSITION_AND_DIR: x=124.620*, z=116.796*, y=6.499*, direction=314.3°*
  2: 0x0193 [0x00] END_REQSTACK()
```

### Event 7

#### Metadata

| Field        | Value    |
|--------------|----------|
| Entrypoint   | 0x0194   |
| Data Size    | 10 bytes |
| Instructions | 2        |

```
      00 01 02 03 04 05 06 07  08 09 0A 0B 0C 0D 0E 0F
      -- -- -- -- -- -- -- --  -- -- -- -- -- -- -- --
0190:             37 28 80 29  80 2A 80 2B 80 00            7(.).*.+..  
```

#### Opcodes

```
  0: 0x0194 [0x37] UPDATE_EVENT_POSITION_AND_DIR: x=121.087*, z=114.646*, y=-11.004*, direction=311.5°*
  1: 0x019D [0x00] END_REQSTACK()
```

### Event 9

#### Metadata

| Field        | Value    |
|--------------|----------|
| Entrypoint   | 0x019E   |
| Data Size    | 10 bytes |
| Instructions | 2        |

```
      00 01 02 03 04 05 06 07  08 09 0A 0B 0C 0D 0E 0F
      -- -- -- -- -- -- -- --  -- -- -- -- -- -- -- --
0190:                                            37 2C                7,
01A0: 80 2D 80 07 80 2E 80 00                           .-......        
```

#### Opcodes

```
  0: 0x019E [0x37] UPDATE_EVENT_POSITION_AND_DIR: x=125.602*, z=117.362*, y=-11.003*, direction=308.2°*
  1: 0x01A7 [0x00] END_REQSTACK()
```

### Event 65535.6

#### Metadata

| Field        | Value   |
|--------------|---------|
| Entrypoint   | 0x01A8  |
| Data Size    | 9 bytes |
| Instructions | 3       |

```
      00 01 02 03 04 05 06 07  08 09 0A 0B 0C 0D 0E 0F
      -- -- -- -- -- -- -- --  -- -- -- -- -- -- -- --
01A0:                          2B 03 70 0E 01 2F 80 23          +.p../.#
01B0: 00                                                .               
```

#### Opcodes

```
  0: 0x01A8 [0x2B] Pieuje (ID: 17723395/0x010E7003) [12702*]:
    → "Your Holiness."
  1: 0x01AF [0x23] WAIT_FOR_DIALOG_INTERACTION
  2: 0x01B0 [0x00] END_REQSTACK()
```

### Event 8

#### Metadata

| Field        | Value    |
|--------------|----------|
| Entrypoint   | 0x01B1   |
| Data Size    | 10 bytes |
| Instructions | 2        |

```
      00 01 02 03 04 05 06 07  08 09 0A 0B 0C 0D 0E 0F
      -- -- -- -- -- -- -- --  -- -- -- -- -- -- -- --
01B0:    37 2C 80 2D 80 07 80  2E 80 00                  7,.-......     
```

#### Opcodes

```
  0: 0x01B1 [0x37] UPDATE_EVENT_POSITION_AND_DIR: x=125.602*, z=117.362*, y=-11.003*, direction=308.2°*
  1: 0x01BA [0x00] END_REQSTACK()
```

### Event 65535.7

#### Metadata

| Field        | Value    |
|--------------|----------|
| Entrypoint   | 0x01BB   |
| Data Size    | 14 bytes |
| Instructions | 4        |

```
      00 01 02 03 04 05 06 07  08 09 0A 0B 0C 0D 0E 0F
      -- -- -- -- -- -- -- --  -- -- -- -- -- -- -- --
01B0:                                   32 09 80 1F 00             2....
01C0: 30 80 31 80 07 80 1F 01  00                       0.1......       
```

#### Opcodes

```
  0: 0x01BB [0x32] ExtData[1]->MainSpeed = 7* * 0.1
  1: 0x01BE [0x1F] MOVE_ENTITY: EventEntity moves to X=127.932*, Z=120.059*, Y=-11.003*
  2: 0x01C6 [0x1F] MOVE_ENTITY: Update entity position (mode=1)
  3: 0x01C8 [0x00] END_REQSTACK()
```

### Event 65535.8

#### Metadata

| Field        | Value    |
|--------------|----------|
| Entrypoint   | 0x01C9   |
| Data Size    | 16 bytes |
| Instructions | 4        |

```
      00 01 02 03 04 05 06 07  08 09 0A 0B 0C 0D 0E 0F
      -- -- -- -- -- -- -- --  -- -- -- -- -- -- -- --
01C0:                             32 09 80 31 00 32 80           2..1.2.
01D0: 33 80 26 80 34 80 31 01  00                       3.&.4.1..       
```

#### Opcodes

```
  0: 0x01C9 [0x32] ExtData[1]->MainSpeed = 7* * 0.1
  1: 0x01CC [0x31] UPDATE_ENTITY_POSITION: Set EventEntity goal position to X=129.866*, Z=121.822*, Y=6.499*, Time=300*
  2: 0x01D6 [0x31] UPDATE_ENTITY_POSITION: Move EventEntity towards goal position
  3: 0x01D8 [0x00] END_REQSTACK()
```

### Event 65535.9

#### Metadata

| Field        | Value    |
|--------------|----------|
| Entrypoint   | 0x01D9   |
| Data Size    | 21 bytes |
| Instructions | 5        |

```
      00 01 02 03 04 05 06 07  08 09 0A 0B 0C 0D 0E 0F
      -- -- -- -- -- -- -- --  -- -- -- -- -- -- -- --
01D0:                             84 37 35 80 36 80 26           .75.6.&
01E0: 80 37 80 1F 00 38 80 39  80 26 80 1F 01 00        .7...8.9.&....  
```

#### Opcodes

```
  0: 0x01D9 [0x84] ADJUST_RENDER_FLAGS3_BIT0()
  1: 0x01DA [0x37] UPDATE_EVENT_POSITION_AND_DIR: x=135.103*, z=126.810*, y=6.499*, direction=316.8°*
  2: 0x01E3 [0x1F] MOVE_ENTITY: EventEntity moves to X=137.822*, Z=129.862*, Y=6.499*
  3: 0x01EB [0x1F] MOVE_ENTITY: Update entity position (mode=1)
  4: 0x01ED [0x00] END_REQSTACK()
```

### Event 65535.10

#### Metadata

| Field        | Value    |
|--------------|----------|
| Entrypoint   | 0x01EE   |
| Data Size    | 13 bytes |
| Instructions | 3        |

```
      00 01 02 03 04 05 06 07  08 09 0A 0B 0C 0D 0E 0F
      -- -- -- -- -- -- -- --  -- -- -- -- -- -- -- --
01E0:                                            31 00                1.
01F0: 32 80 33 80 26 80 34 80  31 01 00                 2.3.&.4.1..     
```

#### Opcodes

```
  0: 0x01EE [0x31] UPDATE_ENTITY_POSITION: Set EventEntity goal position to X=129.866*, Z=121.822*, Y=6.499*, Time=300*
  1: 0x01F8 [0x31] UPDATE_ENTITY_POSITION: Move EventEntity towards goal position
  2: 0x01FA [0x00] END_REQSTACK()
```

### Event 49

#### Metadata

| Field        | Value    |
|--------------|----------|
| Entrypoint   | 0x01FB   |
| Data Size    | 10 bytes |
| Instructions | 2        |

```
      00 01 02 03 04 05 06 07  08 09 0A 0B 0C 0D 0E 0F
      -- -- -- -- -- -- -- --  -- -- -- -- -- -- -- --
01F0:                                   37 13 80 14 80             7....
0200: 15 80 3A 80 00                                    ..:..           
```

#### Opcodes

```
  0: 0x01FB [0x37] UPDATE_EVENT_POSITION_AND_DIR: x=105.807*, z=96.863*, y=-19.726*, direction=138.1°*
  1: 0x0204 [0x00] END_REQSTACK()
```

### Event 65535.11

#### Metadata

| Field        | Value   |
|--------------|---------|
| Entrypoint   | 0x0205  |
| Data Size    | 7 bytes |
| Instructions | 3       |

```
      00 01 02 03 04 05 06 07  08 09 0A 0B 0C 0D 0E 0F
      -- -- -- -- -- -- -- --  -- -- -- -- -- -- -- --
0200:                39 3B 80  1C 3C 80 00                   9;..<..    
```

#### Opcodes

```
  0: 0x0205 [0x39] SET_ENTITY_DIRECTION(direction=20.2°*)
  1: 0x0208 [0x1C] WAIT(90* ticks)
  2: 0x020B [0x00] END_REQSTACK()
```

### Event 65535.12

#### Metadata

| Field        | Value    |
|--------------|----------|
| Entrypoint   | 0x020C   |
| Data Size    | 14 bytes |
| Instructions | 4        |

```
      00 01 02 03 04 05 06 07  08 09 0A 0B 0C 0D 0E 0F
      -- -- -- -- -- -- -- --  -- -- -- -- -- -- -- --
0200:                                      32 09 80 1F              2...
0210: 00 21 80 22 80 23 80 1F  01 00                    .!.".#....      
```

#### Opcodes

```
  0: 0x020C [0x32] ExtData[1]->MainSpeed = 7* * 0.1
  1: 0x020F [0x1F] MOVE_ENTITY: EventEntity moves to X=107.371*, Z=99.336*, Y=-19.516*
  2: 0x0217 [0x1F] MOVE_ENTITY: Update entity position (mode=1)
  3: 0x0219 [0x00] END_REQSTACK()
```

### Event 65535.13

#### Metadata

| Field        | Value    |
|--------------|----------|
| Entrypoint   | 0x021A   |
| Data Size    | 65 bytes |
| Instructions | 13       |

```
      00 01 02 03 04 05 06 07  08 09 0A 0B 0C 0D 0E 0F
      -- -- -- -- -- -- -- --  -- -- -- -- -- -- -- --
0210:                                32 09 80 1F 00 3D            2....=
0220: 80 3E 80 07 80 1F 01 6F  45 3F 80 F0 FF FF 7F F0  .>.....oE?......
0230: FF FF 7F 7A 30 30 32 40  80 55 3F 80 F0 FF FF 7F  ...z002@.U?.....
0240: F0 FF FF 7F 7A 30 30 32  1F 00 41 80 42 80 07 80  ....z002..A.B...
0250: 1F 01 6F 1E F0 FF FF 7F  6F 70 00                 ..o.....op.     
```

#### Opcodes

```
  0: 0x021A [0x32] ExtData[1]->MainSpeed = 7* * 0.1
  1: 0x021D [0x1F] MOVE_ENTITY: EventEntity moves to X=122.513*, Z=114.587*, Y=-11.003*
  2: 0x0225 [0x1F] MOVE_ENTITY: Update entity position (mode=1)
  3: 0x0227 [0x6F] WAIT_FRAME_DELAY: Yield until WaitTime reaches zero
  4: 0x0228 [0x45] LOAD_SCHEDULED_TASK: Load scheduler "z002" with entities [LocalPlayer, LocalPlayer], work=[241*, 0*]
  5: 0x0239 [0x55] WAIT_LOAD_SCHEDULER: Wait for scheduler "z002" with entities [LocalPlayer, LocalPlayer], work=241*
  6: 0x0248 [0x1F] MOVE_ENTITY: EventEntity moves to X=123.229*, Z=115.273*, Y=-11.003*
  7: 0x0250 [0x1F] MOVE_ENTITY: Update entity position (mode=1)
  8: 0x0252 [0x6F] WAIT_FRAME_DELAY: Yield until WaitTime reaches zero
  9: 0x0253 [0x1E] EventEntity looks at LocalPlayer and starts talking
 10: 0x0258 [0x6F] WAIT_FRAME_DELAY: Yield until WaitTime reaches zero
 11: 0x0259 [0x70] WAIT_ENTITY_RENDER_FLAG: Wait while EventEntity->Render.Flags3 bit 2 is set (cancel turn if not)
 12: 0x025A [0x00] END_REQSTACK()
```

### Event 65535.14

#### Metadata

| Field        | Value    |
|--------------|----------|
| Entrypoint   | 0x025B   |
| Data Size    | 14 bytes |
| Instructions | 4        |

```
      00 01 02 03 04 05 06 07  08 09 0A 0B 0C 0D 0E 0F
      -- -- -- -- -- -- -- --  -- -- -- -- -- -- -- --
0250:                                   32 09 80 1F 00             2....
0260: 43 80 44 80 0C 80 1F 01  00                       C.D......       
```

#### Opcodes

```
  0: 0x025B [0x32] ExtData[1]->MainSpeed = 7* * 0.1
  1: 0x025E [0x1F] MOVE_ENTITY: EventEntity moves to X=131.582*, Z=123.806*, Y=-11.000*
  2: 0x0266 [0x1F] MOVE_ENTITY: Update entity position (mode=1)
  3: 0x0268 [0x00] END_REQSTACK()
```

### Event 65535.15

#### Metadata

| Field        | Value    |
|--------------|----------|
| Entrypoint   | 0x0269   |
| Data Size    | 13 bytes |
| Instructions | 4        |

```
      00 01 02 03 04 05 06 07  08 09 0A 0B 0C 0D 0E 0F
      -- -- -- -- -- -- -- --  -- -- -- -- -- -- -- --
0260:                             1F 00 45 80 46 80 0C           ..E.F..
0270: 80 1F 01 22 01 00                                 ..."..          
```

#### Opcodes

```
  0: 0x0269 [0x1F] MOVE_ENTITY: EventEntity moves to X=134.771*, Z=120.616*, Y=-11.000*
  1: 0x0271 [0x1F] MOVE_ENTITY: Update entity position (mode=1)
  2: 0x0273 [0x22] ENTITY_HIDE_FLAG(enabled=0x01)
  3: 0x0275 [0x00] END_REQSTACK()
```

### Event 65535.16

#### Metadata

| Field        | Value    |
|--------------|----------|
| Entrypoint   | 0x0276   |
| Data Size    | 16 bytes |
| Instructions | 2        |

```
      00 01 02 03 04 05 06 07  08 09 0A 0B 0C 0D 0E 0F
      -- -- -- -- -- -- -- --  -- -- -- -- -- -- -- --
0270:                   5B 04  80 F8 FF FF 7F F8 FF FF        [.........
0280: 7F 74 6C 6B 30 00                                 .tlk0.          
```

#### Opcodes

```
  0: 0x0276 [0x5B] LOAD_EXT_SCHEDULER: Load scheduler "tlk0" with entities [EventEntity, EventEntity], work=135*
  1: 0x0285 [0x00] END_REQSTACK()
```

### Event 65535.17

#### Metadata

| Field        | Value    |
|--------------|----------|
| Entrypoint   | 0x0286   |
| Data Size    | 22 bytes |
| Instructions | 4        |

```
      00 01 02 03 04 05 06 07  08 09 0A 0B 0C 0D 0E 0F
      -- -- -- -- -- -- -- --  -- -- -- -- -- -- -- --
0280:                   1C 1F  80 5B 04 80 F8 FF FF 7F        ...[......
0290: F8 FF FF 7F 74 6C 6B 31  1C 1F 80 00              ....tlk1....    
```

#### Opcodes

```
  0: 0x0286 [0x1C] WAIT(30* ticks)
  1: 0x0289 [0x5B] LOAD_EXT_SCHEDULER: Load scheduler "tlk1" with entities [EventEntity, EventEntity], work=135*
  2: 0x0298 [0x1C] WAIT(30* ticks)
  3: 0x029B [0x00] END_REQSTACK()
```

### Event 65535.18

#### Metadata

| Field        | Value    |
|--------------|----------|
| Entrypoint   | 0x029C   |
| Data Size    | 44 bytes |
| Instructions | 4        |

```
      00 01 02 03 04 05 06 07  08 09 0A 0B 0C 0D 0E 0F
      -- -- -- -- -- -- -- --  -- -- -- -- -- -- -- --
0290:                                      5B 04 80 F8              [...
02A0: FF FF 7F F8 FF FF 7F 65  6E 7A 30 53 F8 FF FF 7F  .......enz0S....
02B0: F8 FF FF 7F 65 6E 7A 30  5B 04 80 F8 FF FF 7F F8  ....enz0[.......
02C0: FF FF 7F 65 6E 7A 31 00                           ...enz1.        
```

#### Opcodes

```
  0: 0x029C [0x5B] LOAD_EXT_SCHEDULER: Load scheduler "enz0" with entities [EventEntity, EventEntity], work=135*
  1: 0x02AB [0x53] WAIT_SCHEDULER_TASK: Wait for scheduler "enz0" with entities [EventEntity, EventEntity]
  2: 0x02B8 [0x5B] LOAD_EXT_SCHEDULER: Load scheduler "enz1" with entities [EventEntity, EventEntity], work=135*
  3: 0x02C7 [0x00] END_REQSTACK()
```

### Event 65535.19

#### Metadata

| Field        | Value    |
|--------------|----------|
| Entrypoint   | 0x02C8   |
| Data Size    | 14 bytes |
| Instructions | 2        |

```
      00 01 02 03 04 05 06 07  08 09 0A 0B 0C 0D 0E 0F
      -- -- -- -- -- -- -- --  -- -- -- -- -- -- -- --
02C0:                          53 F8 FF FF 7F F8 FF FF          S.......
02D0: 7F 65 6E 7A 31 00                                 .enz1.          
```

#### Opcodes

```
  0: 0x02C8 [0x53] WAIT_SCHEDULER_TASK: Wait for scheduler "enz1" with entities [EventEntity, EventEntity]
  1: 0x02D5 [0x00] END_REQSTACK()
```

### Event 65535.20

#### Metadata

| Field        | Value    |
|--------------|----------|
| Entrypoint   | 0x02D6   |
| Data Size    | 16 bytes |
| Instructions | 2        |

```
      00 01 02 03 04 05 06 07  08 09 0A 0B 0C 0D 0E 0F
      -- -- -- -- -- -- -- --  -- -- -- -- -- -- -- --
02D0:                   5B 04  80 F8 FF FF 7F F8 FF FF        [.........
02E0: 7F 74 6C 6B 30 00                                 .tlk0.          
```

#### Opcodes

```
  0: 0x02D6 [0x5B] LOAD_EXT_SCHEDULER: Load scheduler "tlk0" with entities [EventEntity, EventEntity], work=135*
  1: 0x02E5 [0x00] END_REQSTACK()
```

### Event 65535.21

#### Metadata

| Field        | Value    |
|--------------|----------|
| Entrypoint   | 0x02E6   |
| Data Size    | 14 bytes |
| Instructions | 2        |

```
      00 01 02 03 04 05 06 07  08 09 0A 0B 0C 0D 0E 0F
      -- -- -- -- -- -- -- --  -- -- -- -- -- -- -- --
02E0:                   53 F8  FF FF 7F F8 FF FF 7F 74        S........t
02F0: 6C 6B 30 00                                       lk0.            
```

#### Opcodes

```
  0: 0x02E6 [0x53] WAIT_SCHEDULER_TASK: Wait for scheduler "tlk0" with entities [EventEntity, EventEntity]
  1: 0x02F3 [0x00] END_REQSTACK()
```

### Event 65535.22

#### Metadata

| Field        | Value    |
|--------------|----------|
| Entrypoint   | 0x02F4   |
| Data Size    | 16 bytes |
| Instructions | 2        |

```
      00 01 02 03 04 05 06 07  08 09 0A 0B 0C 0D 0E 0F
      -- -- -- -- -- -- -- --  -- -- -- -- -- -- -- --
02F0:             5B 04 80 F8  FF FF 7F F8 FF FF 7F 74      [..........t
0300: 6C 6B 31 00                                       lk1.            
```

#### Opcodes

```
  0: 0x02F4 [0x5B] LOAD_EXT_SCHEDULER: Load scheduler "tlk1" with entities [EventEntity, EventEntity], work=135*
  1: 0x0303 [0x00] END_REQSTACK()
```

### Event 65535.23

#### Metadata

| Field        | Value    |
|--------------|----------|
| Entrypoint   | 0x0304   |
| Data Size    | 14 bytes |
| Instructions | 2        |

```
      00 01 02 03 04 05 06 07  08 09 0A 0B 0C 0D 0E 0F
      -- -- -- -- -- -- -- --  -- -- -- -- -- -- -- --
0300:             53 F8 FF FF  7F F8 FF FF 7F 74 6C 6B      S........tlk
0310: 31 00                                             1.              
```

#### Opcodes

```
  0: 0x0304 [0x53] WAIT_SCHEDULER_TASK: Wait for scheduler "tlk1" with entities [EventEntity, EventEntity]
  1: 0x0311 [0x00] END_REQSTACK()
```

### Event 65535.24

#### Metadata

| Field        | Value    |
|--------------|----------|
| Entrypoint   | 0x0312   |
| Data Size    | 16 bytes |
| Instructions | 2        |

```
      00 01 02 03 04 05 06 07  08 09 0A 0B 0C 0D 0E 0F
      -- -- -- -- -- -- -- --  -- -- -- -- -- -- -- --
0310:       5B 04 80 F8 FF FF  7F F8 FF FF 7F 61 6E 67    [..........ang
0320: 30 00                                             0.              
```

#### Opcodes

```
  0: 0x0312 [0x5B] LOAD_EXT_SCHEDULER: Load scheduler "ang0" with entities [EventEntity, EventEntity], work=135*
  1: 0x0321 [0x00] END_REQSTACK()
```

### Event 65535.25

#### Metadata

| Field        | Value    |
|--------------|----------|
| Entrypoint   | 0x0322   |
| Data Size    | 14 bytes |
| Instructions | 2        |

```
      00 01 02 03 04 05 06 07  08 09 0A 0B 0C 0D 0E 0F
      -- -- -- -- -- -- -- --  -- -- -- -- -- -- -- --
0320:       53 F8 FF FF 7F F8  FF FF 7F 61 6E 67 30 00    S........ang0.
```

#### Opcodes

```
  0: 0x0322 [0x53] WAIT_SCHEDULER_TASK: Wait for scheduler "ang0" with entities [EventEntity, EventEntity]
  1: 0x032F [0x00] END_REQSTACK()
```

### Event 65535.26

#### Metadata

| Field        | Value    |
|--------------|----------|
| Entrypoint   | 0x0330   |
| Data Size    | 16 bytes |
| Instructions | 2        |

```
      00 01 02 03 04 05 06 07  08 09 0A 0B 0C 0D 0E 0F
      -- -- -- -- -- -- -- --  -- -- -- -- -- -- -- --
0330: 5B 04 80 F8 FF FF 7F F8  FF FF 7F 61 6E 67 31 00  [..........ang1.
```

#### Opcodes

```
  0: 0x0330 [0x5B] LOAD_EXT_SCHEDULER: Load scheduler "ang1" with entities [EventEntity, EventEntity], work=135*
  1: 0x033F [0x00] END_REQSTACK()
```

### Event 65535.27

#### Metadata

| Field        | Value    |
|--------------|----------|
| Entrypoint   | 0x0340   |
| Data Size    | 14 bytes |
| Instructions | 2        |

```
      00 01 02 03 04 05 06 07  08 09 0A 0B 0C 0D 0E 0F
      -- -- -- -- -- -- -- --  -- -- -- -- -- -- -- --
0340: 53 F8 FF FF 7F F8 FF FF  7F 61 6E 67 31 00        S........ang1.  
```

#### Opcodes

```
  0: 0x0340 [0x53] WAIT_SCHEDULER_TASK: Wait for scheduler "ang1" with entities [EventEntity, EventEntity]
  1: 0x034D [0x00] END_REQSTACK()
```

### Event 65535.28

#### Metadata

| Field        | Value    |
|--------------|----------|
| Entrypoint   | 0x034E   |
| Data Size    | 44 bytes |
| Instructions | 4        |

```
      00 01 02 03 04 05 06 07  08 09 0A 0B 0C 0D 0E 0F
      -- -- -- -- -- -- -- --  -- -- -- -- -- -- -- --
0340:                                            5B 04                [.
0350: 80 F8 FF FF 7F F8 FF FF  7F 65 6E 7A 30 53 F8 FF  .........enz0S..
0360: FF 7F F8 FF FF 7F 65 6E  7A 30 5B 04 80 F8 FF FF  ......enz0[.....
0370: 7F F8 FF FF 7F 65 6E 7A  31 00                    .....enz1.      
```

#### Opcodes

```
  0: 0x034E [0x5B] LOAD_EXT_SCHEDULER: Load scheduler "enz0" with entities [EventEntity, EventEntity], work=135*
  1: 0x035D [0x53] WAIT_SCHEDULER_TASK: Wait for scheduler "enz0" with entities [EventEntity, EventEntity]
  2: 0x036A [0x5B] LOAD_EXT_SCHEDULER: Load scheduler "enz1" with entities [EventEntity, EventEntity], work=135*
  3: 0x0379 [0x00] END_REQSTACK()
```

### Event 65535.29

#### Metadata

| Field        | Value    |
|--------------|----------|
| Entrypoint   | 0x037A   |
| Data Size    | 14 bytes |
| Instructions | 2        |

```
      00 01 02 03 04 05 06 07  08 09 0A 0B 0C 0D 0E 0F
      -- -- -- -- -- -- -- --  -- -- -- -- -- -- -- --
0370:                                53 F8 FF FF 7F F8            S.....
0380: FF FF 7F 65 6E 7A 31 00                           ...enz1.        
```

#### Opcodes

```
  0: 0x037A [0x53] WAIT_SCHEDULER_TASK: Wait for scheduler "enz1" with entities [EventEntity, EventEntity]
  1: 0x0387 [0x00] END_REQSTACK()
```

### Event 65535.30

#### Metadata

| Field        | Value    |
|--------------|----------|
| Entrypoint   | 0x0388   |
| Data Size    | 16 bytes |
| Instructions | 2        |

```
      00 01 02 03 04 05 06 07  08 09 0A 0B 0C 0D 0E 0F
      -- -- -- -- -- -- -- --  -- -- -- -- -- -- -- --
0380:                          5B 04 80 F8 FF FF 7F F8          [.......
0390: FF FF 7F 69 6E 6F 30 00                           ...ino0.        
```

#### Opcodes

```
  0: 0x0388 [0x5B] LOAD_EXT_SCHEDULER: Load scheduler "ino0" with entities [EventEntity, EventEntity], work=135*
  1: 0x0397 [0x00] END_REQSTACK()
```

### Event 65535.31

#### Metadata

| Field        | Value    |
|--------------|----------|
| Entrypoint   | 0x0398   |
| Data Size    | 14 bytes |
| Instructions | 2        |

```
      00 01 02 03 04 05 06 07  08 09 0A 0B 0C 0D 0E 0F
      -- -- -- -- -- -- -- --  -- -- -- -- -- -- -- --
0390:                          53 F8 FF FF 7F F8 FF FF          S.......
03A0: 7F 69 6E 6F 30 00                                 .ino0.          
```

#### Opcodes

```
  0: 0x0398 [0x53] WAIT_SCHEDULER_TASK: Wait for scheduler "ino0" with entities [EventEntity, EventEntity]
  1: 0x03A5 [0x00] END_REQSTACK()
```

### Event 65535.32

#### Metadata

| Field        | Value    |
|--------------|----------|
| Entrypoint   | 0x03A6   |
| Data Size    | 16 bytes |
| Instructions | 2        |

```
      00 01 02 03 04 05 06 07  08 09 0A 0B 0C 0D 0E 0F
      -- -- -- -- -- -- -- --  -- -- -- -- -- -- -- --
03A0:                   5B 04  80 F8 FF FF 7F F8 FF FF        [.........
03B0: 7F 74 68 6B 31 00                                 .thk1.          
```

#### Opcodes

```
  0: 0x03A6 [0x5B] LOAD_EXT_SCHEDULER: Load scheduler "thk1" with entities [EventEntity, EventEntity], work=135*
  1: 0x03B5 [0x00] END_REQSTACK()
```

### Event 65535.33

#### Metadata

| Field        | Value    |
|--------------|----------|
| Entrypoint   | 0x03B6   |
| Data Size    | 14 bytes |
| Instructions | 2        |

```
      00 01 02 03 04 05 06 07  08 09 0A 0B 0C 0D 0E 0F
      -- -- -- -- -- -- -- --  -- -- -- -- -- -- -- --
03B0:                   53 F8  FF FF 7F F8 FF FF 7F 74        S........t
03C0: 68 6B 31 00                                       hk1.            
```

#### Opcodes

```
  0: 0x03B6 [0x53] WAIT_SCHEDULER_TASK: Wait for scheduler "thk1" with entities [EventEntity, EventEntity]
  1: 0x03C3 [0x00] END_REQSTACK()
```

### Event 65535.34

#### Metadata

| Field        | Value    |
|--------------|----------|
| Entrypoint   | 0x03C4   |
| Data Size    | 16 bytes |
| Instructions | 2        |

```
      00 01 02 03 04 05 06 07  08 09 0A 0B 0C 0D 0E 0F
      -- -- -- -- -- -- -- --  -- -- -- -- -- -- -- --
03C0:             5B 04 80 F8  FF FF 7F F8 FF FF 7F 74      [..........t
03D0: 68 6B 32 00                                       hk2.            
```

#### Opcodes

```
  0: 0x03C4 [0x5B] LOAD_EXT_SCHEDULER: Load scheduler "thk2" with entities [EventEntity, EventEntity], work=135*
  1: 0x03D3 [0x00] END_REQSTACK()
```

### Event 65535.35

#### Metadata

| Field        | Value    |
|--------------|----------|
| Entrypoint   | 0x03D4   |
| Data Size    | 14 bytes |
| Instructions | 2        |

```
      00 01 02 03 04 05 06 07  08 09 0A 0B 0C 0D 0E 0F
      -- -- -- -- -- -- -- --  -- -- -- -- -- -- -- --
03D0:             53 F8 FF FF  7F F8 FF FF 7F 74 68 6B      S........thk
03E0: 32 00                                             2.              
```

#### Opcodes

```
  0: 0x03D4 [0x53] WAIT_SCHEDULER_TASK: Wait for scheduler "thk2" with entities [EventEntity, EventEntity]
  1: 0x03E1 [0x00] END_REQSTACK()
```

### Event 65535.36

#### Metadata

| Field        | Value    |
|--------------|----------|
| Entrypoint   | 0x03E2   |
| Data Size    | 16 bytes |
| Instructions | 2        |

```
      00 01 02 03 04 05 06 07  08 09 0A 0B 0C 0D 0E 0F
      -- -- -- -- -- -- -- --  -- -- -- -- -- -- -- --
03E0:       5B 04 80 F8 FF FF  7F F8 FF FF 7F 6C 61 75    [..........lau
03F0: 30 00                                             0.              
```

#### Opcodes

```
  0: 0x03E2 [0x5B] LOAD_EXT_SCHEDULER: Load scheduler "lau0" with entities [EventEntity, EventEntity], work=135*
  1: 0x03F1 [0x00] END_REQSTACK()
```

### Event 65535.37

#### Metadata

| Field        | Value    |
|--------------|----------|
| Entrypoint   | 0x03F2   |
| Data Size    | 14 bytes |
| Instructions | 2        |

```
      00 01 02 03 04 05 06 07  08 09 0A 0B 0C 0D 0E 0F
      -- -- -- -- -- -- -- --  -- -- -- -- -- -- -- --
03F0:       53 F8 FF FF 7F F8  FF FF 7F 6C 61 75 30 00    S........lau0.
```

#### Opcodes

```
  0: 0x03F2 [0x53] WAIT_SCHEDULER_TASK: Wait for scheduler "lau0" with entities [EventEntity, EventEntity]
  1: 0x03FF [0x00] END_REQSTACK()
```

### Event 65535.38

#### Metadata

| Field        | Value    |
|--------------|----------|
| Entrypoint   | 0x0400   |
| Data Size    | 16 bytes |
| Instructions | 2        |

```
      00 01 02 03 04 05 06 07  08 09 0A 0B 0C 0D 0E 0F
      -- -- -- -- -- -- -- --  -- -- -- -- -- -- -- --
0400: 5B 04 80 F8 FF FF 7F F8  FF FF 7F 6C 61 75 31 00  [..........lau1.
```

#### Opcodes

```
  0: 0x0400 [0x5B] LOAD_EXT_SCHEDULER: Load scheduler "lau1" with entities [EventEntity, EventEntity], work=135*
  1: 0x040F [0x00] END_REQSTACK()
```

### Event 65535.39

#### Metadata

| Field        | Value    |
|--------------|----------|
| Entrypoint   | 0x0410   |
| Data Size    | 14 bytes |
| Instructions | 2        |

```
      00 01 02 03 04 05 06 07  08 09 0A 0B 0C 0D 0E 0F
      -- -- -- -- -- -- -- --  -- -- -- -- -- -- -- --
0410: 53 F8 FF FF 7F F8 FF FF  7F 74 68 6B 32 00        S........thk2.  
```

#### Opcodes

```
  0: 0x0410 [0x53] WAIT_SCHEDULER_TASK: Wait for scheduler "thk2" with entities [EventEntity, EventEntity]
  1: 0x041D [0x00] END_REQSTACK()
```

### Event 693

#### Metadata

| Field        | Value    |
|--------------|----------|
| Entrypoint   | 0x041E   |
| Data Size    | 10 bytes |
| Instructions | 2        |

```
      00 01 02 03 04 05 06 07  08 09 0A 0B 0C 0D 0E 0F
      -- -- -- -- -- -- -- --  -- -- -- -- -- -- -- --
0410:                                            37 47                7G
0420: 80 48 80 40 80 49 80 00                           .H.@.I..        
```

#### Opcodes

```
  0: 0x041E [0x37] UPDATE_EVENT_POSITION_AND_DIR: x=134.080*, z=125.377*, y=0.000*, direction=308.7°*
  1: 0x0427 [0x00] END_REQSTACK()
```

### Event 639

#### Metadata

| Field        | Value   |
|--------------|---------|
| Entrypoint   | 0x0428  |
| Data Size    | 1 bytes |
| Instructions | 1       |

```
      00 01 02 03 04 05 06 07  08 09 0A 0B 0C 0D 0E 0F
      -- -- -- -- -- -- -- --  -- -- -- -- -- -- -- --
0420:                          00                               .       
```

#### Opcodes

```
  0: 0x0428 [0x00] END_REQSTACK()
```

### Event 65535.40

#### Metadata

| Field        | Value    |
|--------------|----------|
| Entrypoint   | 0x0429   |
| Data Size    | 14 bytes |
| Instructions | 4        |

```
      00 01 02 03 04 05 06 07  08 09 0A 0B 0C 0D 0E 0F
      -- -- -- -- -- -- -- --  -- -- -- -- -- -- -- --
0420:                             32 11 80 1F 00 4A 80           2....J.
0430: 4B 80 40 80 1F 01 00                              K.@....         
```

#### Opcodes

```
  0: 0x0429 [0x32] ExtData[1]->MainSpeed = 13* * 0.1
  1: 0x042C [0x1F] MOVE_ENTITY: EventEntity moves to X=145.373*, Z=136.183*, Y=0.000*
  2: 0x0434 [0x1F] MOVE_ENTITY: Update entity position (mode=1)
  3: 0x0436 [0x00] END_REQSTACK()
```

### Event 65535.41

#### Metadata

| Field        | Value    |
|--------------|----------|
| Entrypoint   | 0x0437   |
| Data Size    | 14 bytes |
| Instructions | 4        |

```
      00 01 02 03 04 05 06 07  08 09 0A 0B 0C 0D 0E 0F
      -- -- -- -- -- -- -- --  -- -- -- -- -- -- -- --
0430:                      32  11 80 1F 00 4C 80 4D 80         2....L.M.
0440: 40 80 1F 01 00                                    @....           
```

#### Opcodes

```
  0: 0x0437 [0x32] ExtData[1]->MainSpeed = 13* * 0.1
  1: 0x043A [0x1F] MOVE_ENTITY: EventEntity moves to X=142.565*, Z=134.364*, Y=0.000*
  2: 0x0442 [0x1F] MOVE_ENTITY: Update entity position (mode=1)
  3: 0x0444 [0x00] END_REQSTACK()
```

### Event 65535.42

#### Metadata

| Field        | Value   |
|--------------|---------|
| Entrypoint   | 0x0445  |
| Data Size    | 5 bytes |
| Instructions | 3       |

```
      00 01 02 03 04 05 06 07  08 09 0A 0B 0C 0D 0E 0F
      -- -- -- -- -- -- -- --  -- -- -- -- -- -- -- --
0440:                1D 4E 80  23 00                         .N.#.      
```

#### Opcodes

```
  0: 0x0445 [0x1D] PRINT_EVENT_MESSAGE(message_id=12560*)
    → "That is correct, Your Highness. I hear that Tedimout sometimes went into the forest to look for herbs."
  1: 0x0448 [0x23] WAIT_FOR_DIALOG_INTERACTION
  2: 0x0449 [0x00] END_REQSTACK()
```

### Event 65535.43

#### Metadata

| Field        | Value   |
|--------------|---------|
| Entrypoint   | 0x044A  |
| Data Size    | 5 bytes |
| Instructions | 3       |

```
      00 01 02 03 04 05 06 07  08 09 0A 0B 0C 0D 0E 0F
      -- -- -- -- -- -- -- --  -- -- -- -- -- -- -- --
0440:                                1D 4F 80 23 00               .O.#. 
```

#### Opcodes

```
  0: 0x044A [0x1D] PRINT_EVENT_MESSAGE(message_id=12561*)
    → "Let us not jump to conclusions. Perhaps Tedimout set out on his own...for an extended hike, for example! Temple Knights are sent out only in special cases. First we must know more!"
  1: 0x044D [0x23] WAIT_FOR_DIALOG_INTERACTION
  2: 0x044E [0x00] END_REQSTACK()
```

### Event 694

#### Metadata

| Field        | Value   |
|--------------|---------|
| Entrypoint   | 0x044F  |
| Data Size    | 1 bytes |
| Instructions | 1       |

```
      00 01 02 03 04 05 06 07  08 09 0A 0B 0C 0D 0E 0F
      -- -- -- -- -- -- -- --  -- -- -- -- -- -- -- --
0440:                                               00                 .
```

#### Opcodes

```
  0: 0x044F [0x00] END_REQSTACK()
```

### Event 65535.44

#### Metadata

| Field        | Value    |
|--------------|----------|
| Entrypoint   | 0x0450   |
| Data Size    | 10 bytes |
| Instructions | 2        |

```
      00 01 02 03 04 05 06 07  08 09 0A 0B 0C 0D 0E 0F
      -- -- -- -- -- -- -- --  -- -- -- -- -- -- -- --
0450: 37 50 80 51 80 0C 80 52  80 00                    7P.Q...R..      
```

#### Opcodes

```
  0: 0x0450 [0x37] UPDATE_EVENT_POSITION_AND_DIR: x=132.573*, z=124.545*, y=-11.000*, direction=292.9°*
  1: 0x0459 [0x00] END_REQSTACK()
```

### Event 65535.45

#### Metadata

| Field        | Value   |
|--------------|---------|
| Entrypoint   | 0x045A  |
| Data Size    | 5 bytes |
| Instructions | 3       |

```
      00 01 02 03 04 05 06 07  08 09 0A 0B 0C 0D 0E 0F
      -- -- -- -- -- -- -- --  -- -- -- -- -- -- -- --
0450:                                1D 53 80 23 00               .S.#. 
```

#### Opcodes

```
  0: 0x045A [0x1D] PRINT_EVENT_MESSAGE(message_id=12575*)
    → "So, Tedimout has returned... Confound that meddling adventurer!"
  1: 0x045D [0x23] WAIT_FOR_DIALOG_INTERACTION
  2: 0x045E [0x00] END_REQSTACK()
```

### Event 695

#### Metadata

| Field        | Value   |
|--------------|---------|
| Entrypoint   | 0x045F  |
| Data Size    | 1 bytes |
| Instructions | 1       |

```
      00 01 02 03 04 05 06 07  08 09 0A 0B 0C 0D 0E 0F
      -- -- -- -- -- -- -- --  -- -- -- -- -- -- -- --
0450:                                               00                 .
```

#### Opcodes

```
  0: 0x045F [0x00] END_REQSTACK()
```

### Event 65535.46

#### Metadata

| Field        | Value    |
|--------------|----------|
| Entrypoint   | 0x0460   |
| Data Size    | 10 bytes |
| Instructions | 2        |

```
      00 01 02 03 04 05 06 07  08 09 0A 0B 0C 0D 0E 0F
      -- -- -- -- -- -- -- --  -- -- -- -- -- -- -- --
0460: 37 54 80 55 80 07 80 56  80 00                    7T.U...V..      
```

#### Opcodes

```
  0: 0x0460 [0x37] UPDATE_EVENT_POSITION_AND_DIR: x=122.381*, z=118.530*, y=-11.003*, direction=77.3°*
  1: 0x0469 [0x00] END_REQSTACK()
```

### Event 65535.47

#### Metadata

| Field        | Value    |
|--------------|----------|
| Entrypoint   | 0x046A   |
| Data Size    | 19 bytes |
| Instructions | 5        |

```
      00 01 02 03 04 05 06 07  08 09 0A 0B 0C 0D 0E 0F
      -- -- -- -- -- -- -- --  -- -- -- -- -- -- -- --
0460:                                1C 57 80 4A 10 70            .W.J.p
0470: 0E 01 03 70 0E 01 6F 76  10 70 0E 01 00           ...p..ov.p...   
```

#### Opcodes

```
  0: 0x046A [0x1C] WAIT(50* ticks)
  1: 0x046D [0x4A] Shamonde (ID: 17723408/0x010E7010) looks at Pieuje (ID: 17723395/0x010E7003)
  2: 0x0476 [0x6F] WAIT_FRAME_DELAY: Yield until WaitTime reaches zero
  3: 0x0477 [0x76] CHECK_ENTITY_RENDER_FLAGS: Wait until Shamonde (ID: 17723408/0x010E7010) Render.Flags0 and Render.Flags3 conditions are met
  4: 0x047C [0x00] END_REQSTACK()
```

### Event 65535.48

#### Metadata

| Field        | Value   |
|--------------|---------|
| Entrypoint   | 0x047D  |
| Data Size    | 5 bytes |
| Instructions | 3       |

```
      00 01 02 03 04 05 06 07  08 09 0A 0B 0C 0D 0E 0F
      -- -- -- -- -- -- -- --  -- -- -- -- -- -- -- --
0470:                                         1D 58 80               .X.
0480: 23 00                                             #.              
```

#### Opcodes

```
  0: 0x047D [0x1D] PRINT_EVENT_MESSAGE(message_id=12577*)
    → "That hotheaded brother of yours refuses to think pragmatically. Our research through the centuries proves that the Gates of Paradise will soon open forth!"
  1: 0x0480 [0x23] WAIT_FOR_DIALOG_INTERACTION
  2: 0x0481 [0x00] END_REQSTACK()
```

### Event 65535.49

#### Metadata

| Field        | Value   |
|--------------|---------|
| Entrypoint   | 0x0482  |
| Data Size    | 5 bytes |
| Instructions | 3       |

```
      00 01 02 03 04 05 06 07  08 09 0A 0B 0C 0D 0E 0F
      -- -- -- -- -- -- -- --  -- -- -- -- -- -- -- --
0480:       1D 59 80 23 00                                .Y.#.         
```

#### Opcodes

```
  0: 0x0482 [0x1D] PRINT_EVENT_MESSAGE(message_id=12578*)
    → "And still his ears are deaf to us! Your Highness, I fear we may fall behind the other nations."
  1: 0x0485 [0x23] WAIT_FOR_DIALOG_INTERACTION
  2: 0x0486 [0x00] END_REQSTACK()
```

### Event 65535.50

#### Metadata

| Field        | Value   |
|--------------|---------|
| Entrypoint   | 0x0487  |
| Data Size    | 5 bytes |
| Instructions | 3       |

```
      00 01 02 03 04 05 06 07  08 09 0A 0B 0C 0D 0E 0F
      -- -- -- -- -- -- -- --  -- -- -- -- -- -- -- --
0480:                      1D  5A 80 23 00                     .Z.#.    
```

#### Opcodes

```
  0: 0x0487 [0x1D] PRINT_EVENT_MESSAGE(message_id=12582*)
    → "How dare you! Eavesdropping on the papsque as he entertains the prince!"
  1: 0x048A [0x23] WAIT_FOR_DIALOG_INTERACTION
  2: 0x048B [0x00] END_REQSTACK()
```

### Event 65535.51

#### Metadata

| Field        | Value    |
|--------------|----------|
| Entrypoint   | 0x048C   |
| Data Size    | 17 bytes |
| Instructions | 5        |

```
      00 01 02 03 04 05 06 07  08 09 0A 0B 0C 0D 0E 0F
      -- -- -- -- -- -- -- --  -- -- -- -- -- -- -- --
0480:                                      7C 00 F8 FF              |...
0490: FF 7F 1D 5B 80 23 7C 01  F8 FF FF 7F 00           ...[.#|......   
```

#### Opcodes

```
  0: 0x048C [0x7C] EventEntity->Render.Flags2 |= 0x00
  1: 0x0492 [0x1D] PRINT_EVENT_MESSAGE(message_id=12586*)
    → "Hmph."
  2: 0x0495 [0x23] WAIT_FOR_DIALOG_INTERACTION
  3: 0x0496 [0x7C] EventEntity->Render.Flags2 |= 0x01
  4: 0x049C [0x00] END_REQSTACK()
```

### Event 16

#### Metadata

| Field        | Value    |
|--------------|----------|
| Entrypoint   | 0x049D   |
| Data Size    | 18 bytes |
| Instructions | 4        |

```
      00 01 02 03 04 05 06 07  08 09 0A 0B 0C 0D 0E 0F
      -- -- -- -- -- -- -- --  -- -- -- -- -- -- -- --
0490:                                         22 00 92               "..
04A0: 01 F8 FF FF 7F 37 5C 80  5D 80 40 80 5E 80 00     .....7\.].@.^.. 
```

#### Opcodes

```
  0: 0x049D [0x22] ENTITY_HIDE_FLAG(enabled=0x00)
  1: 0x049F [0x92] EventEntity->Render.Flags3 ^= 0x01
  2: 0x04A5 [0x37] UPDATE_EVENT_POSITION_AND_DIR: x=135.701*, z=125.603*, y=0.000*, direction=138.2°*
  3: 0x04AE [0x00] END_REQSTACK()
```
