# 17723475

## Common Data

| Field            | Value                         |
|------------------|-------------------------------|
| Zone             | Northern San d'Oria (ID: 231) |
| Block Size       | 196 bytes                     |
| Total Events     | 7                             |
| References Count | 14                            |

## List of Events

| Event ID                 | Entrypoint   |   Size |   Instructions |
|--------------------------|--------------|--------|----------------|
| [65535](#event-65535)    | 0x0000       |      1 |              1 |
| [1](#event-1)            | 0x0001       |     27 |              5 |
| [65535.1](#event-655351) | 0x001C       |     14 |              4 |
| [535](#event-535)        | 0x002A       |      1 |              1 |
| [65535.2](#event-655352) | 0x002B       |     23 |              5 |
| [65535.3](#event-655353) | 0x0042       |      3 |              2 |
| [65535.4](#event-655354) | 0x0045       |     25 |              6 |

## DAT References (imed_data)

|   Index | Hex Value   |   Dec Value |
|---------|-------------|-------------|
|       0 | 0x23F78     |      147320 |
|       1 | 0x207CF     |      133071 |
|       2 | 0x0000      |           0 |
|       3 | 0x0767      |        1895 |
|       4 | 0x0001      |           1 |
|       5 | 0x0028      |          40 |
|       6 | 0x21DAC     |      138668 |
|       7 | 0x1FFC2     |      131010 |
|       8 | 0x000D      |          13 |
|       9 | 0x03E8      |        1000 |
|      10 | 0x1FBD0     |      130000 |
|      11 | 0xFFFFF6CD  |  4294964941 |
|      12 | 0x0400      |        1024 |
|      13 | 0x13880     |       80000 |

## Events

### Event 65535

#### Metadata

| Field        | Value   |
|--------------|---------|
| Entrypoint   | 0x0000  |
| Data Size    | 1 bytes |
| Instructions | 1       |

```
      00 01 02 03 04 05 06 07  08 09 0A 0B 0C 0D 0E 0F
      -- -- -- -- -- -- -- --  -- -- -- -- -- -- -- --
0000: 00                                                .               
```

#### Opcodes

```
  0: 0x0000 [0x00] END_REQSTACK()
```

### Event 1

#### Metadata

| Field        | Value    |
|--------------|----------|
| Entrypoint   | 0x0001   |
| Data Size    | 27 bytes |
| Instructions | 5        |

```
      00 01 02 03 04 05 06 07  08 09 0A 0B 0C 0D 0E 0F
      -- -- -- -- -- -- -- --  -- -- -- -- -- -- -- --
0000:    92 01 F8 FF FF 7F 37  00 80 01 80 02 80 03 80   ......7........
0010: 6C F8 FF FF 7F 02 80 04  80 22 00 00              l........"..    
```

#### Opcodes

```
  0: 0x0001 [0x92] EventEntity->Render.Flags3 ^= 0x01
  1: 0x0007 [0x37] UPDATE_EVENT_POSITION_AND_DIR: x=147.320*, z=133.071*, y=0.000*, direction=166.5°*
  2: 0x0010 [0x6C] FADE_ENTITY_COLOR(entity_id=EventEntity, end_alpha=0*, fade_time=1*)
  3: 0x0019 [0x22] ENTITY_HIDE_FLAG(enabled=0x00)
  4: 0x001B [0x00] END_REQSTACK()
```

### Event 65535.1

#### Metadata

| Field        | Value    |
|--------------|----------|
| Entrypoint   | 0x001C   |
| Data Size    | 14 bytes |
| Instructions | 4        |

```
      00 01 02 03 04 05 06 07  08 09 0A 0B 0C 0D 0E 0F
      -- -- -- -- -- -- -- --  -- -- -- -- -- -- -- --
0010:                                      32 05 80 1F              2...
0020: 00 06 80 07 80 02 80 1F  01 00                    ..........      
```

#### Opcodes

```
  0: 0x001C [0x32] ExtData[1]->MainSpeed = 40* * 0.1
  1: 0x001F [0x1F] MOVE_ENTITY: EventEntity moves to X=138.668*, Z=131.010*, Y=0.000*
  2: 0x0027 [0x1F] MOVE_ENTITY: Update entity position (mode=1)
  3: 0x0029 [0x00] END_REQSTACK()
```

### Event 535

#### Metadata

| Field        | Value   |
|--------------|---------|
| Entrypoint   | 0x002A  |
| Data Size    | 1 bytes |
| Instructions | 1       |

```
      00 01 02 03 04 05 06 07  08 09 0A 0B 0C 0D 0E 0F
      -- -- -- -- -- -- -- --  -- -- -- -- -- -- -- --
0020:                                00                           .     
```

#### Opcodes

```
  0: 0x002A [0x00] END_REQSTACK()
```

### Event 65535.2

#### Metadata

| Field        | Value    |
|--------------|----------|
| Entrypoint   | 0x002B   |
| Data Size    | 23 bytes |
| Instructions | 5        |

```
      00 01 02 03 04 05 06 07  08 09 0A 0B 0C 0D 0E 0F
      -- -- -- -- -- -- -- --  -- -- -- -- -- -- -- --
0020:                                   32 08 80 37 09             2..7.
0030: 80 0A 80 0B 80 0C 80 1F  00 09 80 0D 80 0B 80 1F  ................
0040: 01 00                                             ..              
```

#### Opcodes

```
  0: 0x002B [0x32] ExtData[1]->MainSpeed = 13* * 0.1
  1: 0x002E [0x37] UPDATE_EVENT_POSITION_AND_DIR: x=1.000*, z=130.000*, y=-2.355*, direction=90.0°*
  2: 0x0037 [0x1F] MOVE_ENTITY: EventEntity moves to X=1.000*, Z=80.000*, Y=-2.355*
  3: 0x003F [0x1F] MOVE_ENTITY: Update entity position (mode=1)
  4: 0x0041 [0x00] END_REQSTACK()
```

### Event 65535.3

#### Metadata

| Field        | Value   |
|--------------|---------|
| Entrypoint   | 0x0042  |
| Data Size    | 3 bytes |
| Instructions | 2       |

```
      00 01 02 03 04 05 06 07  08 09 0A 0B 0C 0D 0E 0F
      -- -- -- -- -- -- -- --  -- -- -- -- -- -- -- --
0040:       22 00 00                                      "..           
```

#### Opcodes

```
  0: 0x0042 [0x22] ENTITY_HIDE_FLAG(enabled=0x00)
  1: 0x0044 [0x00] END_REQSTACK()
```

### Event 65535.4

#### Metadata

| Field        | Value    |
|--------------|----------|
| Entrypoint   | 0x0045   |
| Data Size    | 25 bytes |
| Instructions | 6        |

```
      00 01 02 03 04 05 06 07  08 09 0A 0B 0C 0D 0E 0F
      -- -- -- -- -- -- -- --  -- -- -- -- -- -- -- --
0040:                32 08 80  37 09 80 0D 80 0B 80 0C       2..7.......
0050: 80 1F 00 09 80 0A 80 0B  80 1F 01 22 01 00        ..........."..  
```

#### Opcodes

```
  0: 0x0045 [0x32] ExtData[1]->MainSpeed = 13* * 0.1
  1: 0x0048 [0x37] UPDATE_EVENT_POSITION_AND_DIR: x=1.000*, z=80.000*, y=-2.355*, direction=90.0°*
  2: 0x0051 [0x1F] MOVE_ENTITY: EventEntity moves to X=1.000*, Z=130.000*, Y=-2.355*
  3: 0x0059 [0x1F] MOVE_ENTITY: Update entity position (mode=1)
  4: 0x005B [0x22] ENTITY_HIDE_FLAG(enabled=0x01)
  5: 0x005D [0x00] END_REQSTACK()
```
