# 17723600

## Common Data

| Field            | Value                         |
|------------------|-------------------------------|
| Zone             | Northern San d'Oria (ID: 231) |
| Block Size       | 316 bytes                     |
| Total Events     | 7                             |
| References Count | 17                            |

## List of Events

| Event ID                 | Entrypoint   |   Size |   Instructions |
|--------------------------|--------------|--------|----------------|
| [65535](#event-65535)    | 0x0000       |      1 |              1 |
| [1](#event-1)            | 0x0001       |     10 |              2 |
| [65535.1](#event-655351) | 0x000B       |     29 |              3 |
| [65535.2](#event-655352) | 0x0028       |     29 |              3 |
| [65535.3](#event-655353) | 0x0045       |     49 |              5 |
| [65535.4](#event-655354) | 0x0076       |     49 |              5 |
| [65535.5](#event-655355) | 0x00A7       |     35 |              8 |

## DAT References (imed_data)

|   Index | Hex Value   |   Dec Value |
|---------|-------------|-------------|
|       0 | 0x21C5F     |      138335 |
|       1 | 0x20354     |      131924 |
|       2 | 0x0000      |           0 |
|       3 | 0x05C5      |        1477 |
|       4 | 0x0018      |          24 |
|       5 | 0x0014      |          20 |
|       6 | 0x00F3      |         243 |
|       7 | 0x000F      |          15 |
|       8 | 0x0017      |          23 |
|       9 | 0x0028      |          40 |
|      10 | 0x1F249     |      127561 |
|      11 | 0x1D544     |      120132 |
|      12 | 0x1D5F4     |      120308 |
|      13 | 0x1B673     |      112243 |
|      14 | 0x0602      |        1538 |
|      15 | 0x19173     |      102771 |
|      16 | 0x173C6     |       95174 |

## Events

### Event 65535

#### Metadata

| Field        | Value   |
|--------------|---------|
| Entrypoint   | 0x0000  |
| Data Size    | 1 bytes |
| Instructions | 1       |

```
      00 01 02 03 04 05 06 07  08 09 0A 0B 0C 0D 0E 0F
      -- -- -- -- -- -- -- --  -- -- -- -- -- -- -- --
0000: 00                                                .               
```

#### Opcodes

```
  0: 0x0000 [0x00] END_REQSTACK()
```

### Event 1

#### Metadata

| Field        | Value    |
|--------------|----------|
| Entrypoint   | 0x0001   |
| Data Size    | 10 bytes |
| Instructions | 2        |

```
      00 01 02 03 04 05 06 07  08 09 0A 0B 0C 0D 0E 0F
      -- -- -- -- -- -- -- --  -- -- -- -- -- -- -- --
0000:    37 00 80 01 80 02 80  03 80 00                  7.........     
```

#### Opcodes

```
  0: 0x0001 [0x37] UPDATE_EVENT_POSITION_AND_DIR: x=138.335*, z=131.924*, y=0.000*, direction=129.8°*
  1: 0x000A [0x00] END_REQSTACK()
```

### Event 65535.1

#### Metadata

| Field        | Value    |
|--------------|----------|
| Entrypoint   | 0x000B   |
| Data Size    | 29 bytes |
| Instructions | 3        |

```
      00 01 02 03 04 05 06 07  08 09 0A 0B 0C 0D 0E 0F
      -- -- -- -- -- -- -- --  -- -- -- -- -- -- -- --
0000:                                   5B 04 80 F8 FF             [....
0010: FF 7F F8 FF FF 7F 64 61  69 30 53 F8 FF FF 7F F8  ......dai0S.....
0020: FF FF 7F 64 61 69 30 00                           ...dai0.        
```

#### Opcodes

```
  0: 0x000B [0x5B] LOAD_EXT_SCHEDULER: Load scheduler "dai0" with entities [EventEntity, EventEntity], work=24*
  1: 0x001A [0x53] WAIT_SCHEDULER_TASK: Wait for scheduler "dai0" with entities [EventEntity, EventEntity]
  2: 0x0027 [0x00] END_REQSTACK()
```

### Event 65535.2

#### Metadata

| Field        | Value    |
|--------------|----------|
| Entrypoint   | 0x0028   |
| Data Size    | 29 bytes |
| Instructions | 3        |

```
      00 01 02 03 04 05 06 07  08 09 0A 0B 0C 0D 0E 0F
      -- -- -- -- -- -- -- --  -- -- -- -- -- -- -- --
0020:                          5B 04 80 F8 FF FF 7F F8          [.......
0030: FF FF 7F 64 61 69 31 53  F8 FF FF 7F F8 FF FF 7F  ...dai1S........
0040: 64 61 69 31 00                                    dai1.           
```

#### Opcodes

```
  0: 0x0028 [0x5B] LOAD_EXT_SCHEDULER: Load scheduler "dai1" with entities [EventEntity, EventEntity], work=24*
  1: 0x0037 [0x53] WAIT_SCHEDULER_TASK: Wait for scheduler "dai1" with entities [EventEntity, EventEntity]
  2: 0x0044 [0x00] END_REQSTACK()
```

### Event 65535.3

#### Metadata

| Field        | Value    |
|--------------|----------|
| Entrypoint   | 0x0045   |
| Data Size    | 49 bytes |
| Instructions | 5        |

```
      00 01 02 03 04 05 06 07  08 09 0A 0B 0C 0D 0E 0F
      -- -- -- -- -- -- -- --  -- -- -- -- -- -- -- --
0040:                5B 04 80  F8 FF FF 7F F8 FF FF 7F       [..........
0050: 64 61 69 32 1C 05 80 45  06 80 10 70 0E 01 10 70  dai2...E...p...p
0060: 0E 01 73 65 30 31 02 80  53 F8 FF FF 7F F8 FF FF  ..se01..S.......
0070: 7F 64 61 69 32 00                                 .dai2.          
```

#### Opcodes

```
  0: 0x0045 [0x5B] LOAD_EXT_SCHEDULER: Load scheduler "dai2" with entities [EventEntity, EventEntity], work=24*
  1: 0x0054 [0x1C] WAIT(20* ticks)
  2: 0x0057 [0x45] LOAD_SCHEDULED_TASK: Load scheduler "se01" with entities [Shamonde (ID: 17723408/0x010E7010), Shamonde (ID: 17723408/0x010E7010)], work=[243*, 0*]
  3: 0x0068 [0x53] WAIT_SCHEDULER_TASK: Wait for scheduler "dai2" with entities [EventEntity, EventEntity]
  4: 0x0075 [0x00] END_REQSTACK()
```

### Event 65535.4

#### Metadata

| Field        | Value    |
|--------------|----------|
| Entrypoint   | 0x0076   |
| Data Size    | 49 bytes |
| Instructions | 5        |

```
      00 01 02 03 04 05 06 07  08 09 0A 0B 0C 0D 0E 0F
      -- -- -- -- -- -- -- --  -- -- -- -- -- -- -- --
0070:                   5B 04  80 F8 FF FF 7F F8 FF FF        [.........
0080: 7F 64 61 69 33 1C 07 80  9F 08 80 F8 FF FF 7F CF  .dai3...........
0090: 70 0E 01 6D 61 69 6E 02  80 53 F8 FF FF 7F F8 FF  p..main..S......
00A0: FF 7F 64 61 69 33 00                              ..dai3.         
```

#### Opcodes

```
  0: 0x0076 [0x5B] LOAD_EXT_SCHEDULER: Load scheduler "dai3" with entities [EventEntity, EventEntity], work=24*
  1: 0x0085 [0x1C] WAIT(15* ticks)
  2: 0x0088 [0x9F] LOAD_SCHEDULED_TASK_ALT: Load scheduler "main" with entities [EventEntity, Rochefogne (ID: 17723599/0x010E70CF)], work=[23*, 0*]
  3: 0x0099 [0x53] WAIT_SCHEDULER_TASK: Wait for scheduler "dai3" with entities [EventEntity, EventEntity]
  4: 0x00A6 [0x00] END_REQSTACK()
```

### Event 65535.5

#### Metadata

| Field        | Value    |
|--------------|----------|
| Entrypoint   | 0x00A7   |
| Data Size    | 35 bytes |
| Instructions | 8        |

```
      00 01 02 03 04 05 06 07  08 09 0A 0B 0C 0D 0E 0F
      -- -- -- -- -- -- -- --  -- -- -- -- -- -- -- --
00A0:                      32  09 80 1F 00 0A 80 0B 80         2........
00B0: 02 80 1F 01 37 0C 80 0D  80 02 80 0E 80 1F 00 0F  ....7...........
00C0: 80 10 80 02 80 1F 01 22  01 00                    ......."..      
```

#### Opcodes

```
  0: 0x00A7 [0x32] ExtData[1]->MainSpeed = 40* * 0.1
  1: 0x00AA [0x1F] MOVE_ENTITY: EventEntity moves to X=127.561*, Z=120.132*, Y=0.000*
  2: 0x00B2 [0x1F] MOVE_ENTITY: Update entity position (mode=1)
  3: 0x00B4 [0x37] UPDATE_EVENT_POSITION_AND_DIR: x=120.308*, z=112.243*, y=0.000*, direction=135.2°*
  4: 0x00BD [0x1F] MOVE_ENTITY: EventEntity moves to X=102.771*, Z=95.174*, Y=0.000*
  5: 0x00C5 [0x1F] MOVE_ENTITY: Update entity position (mode=1)
  6: 0x00C7 [0x22] ENTITY_HIDE_FLAG(enabled=0x01)
  7: 0x00C9 [0x00] END_REQSTACK()
```
