# 17723701 - Moogle

## Common Data

| Field            | Value                         |
|------------------|-------------------------------|
| Zone             | Northern San d'Oria (ID: 231) |
| Block Size       | 196 bytes                     |
| Total Events     | 2                             |
| References Count | 14                            |

## List of Events

| Event ID              | Entrypoint   |   Size |   Instructions |
|-----------------------|--------------|--------|----------------|
| [65535](#event-65535) | 0x0000       |      1 |              1 |
| [32740](#event-32740) | 0x0001       |    113 |             33 |

## DAT References (imed_data)

|   Index | Hex Value   |   Dec Value |
|---------|-------------|-------------|
|       0 | 0x0003      |           3 |
|       1 | 0x3803      |       14339 |
|       2 | 0x0004      |           4 |
|       3 | 0x34C6      |       13510 |
|       4 | 0x0005      |           5 |
|       5 | 0x3806      |       14342 |
|       6 | 0x0006      |           6 |
|       7 | 0x3807      |       14343 |
|       8 | 0x3800      |       14336 |
|       9 | 0x3801      |       14337 |
|      10 | 0x0001      |           1 |
|      11 | 0x3802      |       14338 |
|      12 | 0x10AE      |        4270 |
|      13 | 0x3805      |       14341 |

## String References

- **13510**: Ooh, a shiny new adventurer! Join in the fun, kupo!
- **14336**: Come and celebrate the Doll Festival with us, kupo!
- **14337**: We've got items for everyone! Here you go, kupo!
- **14338**: Come again and bring your friends! Each of them will also get an item, kupo!
- **14339**: You can get items only once each day, so come back again tomorrow, kupo!
- **14341**: $$4719184\\BhL $P155<Player>M [CI$P10ZAD"=g$4063857)/]
- **14342**: h*F$$3N$3|$6756136I1jp 0i$3N$3|I
- **14343**: "\\M$2687560*"AO"$3N$3|B

## Events

### Event 65535

#### Metadata

| Field        | Value   |
|--------------|---------|
| Entrypoint   | 0x0000  |
| Data Size    | 1 bytes |
| Instructions | 1       |

```
      00 01 02 03 04 05 06 07  08 09 0A 0B 0C 0D 0E 0F
      -- -- -- -- -- -- -- --  -- -- -- -- -- -- -- --
0000: 00                                                .               
```

#### Opcodes

```
  0: 0x0000 [0x00] END_REQSTACK()
```

### Event 32740

#### Metadata

| Field        | Value     |
|--------------|-----------|
| Entrypoint   | 0x0001    |
| Data Size    | 113 bytes |
| Instructions | 33        |

```
      00 01 02 03 04 05 06 07  08 09 0A 0B 0C 0D 0E 0F
      -- -- -- -- -- -- -- --  -- -- -- -- -- -- -- --
0000:    03 00 00 02 10 1E F0  FF FF 7F 02 00 00 00 80   ...............
0010: 80 1A 00 1D 01 80 23 01  70 00 02 00 00 02 80 80  ......#.p.......
0020: 29 00 1D 03 80 23 01 70  00 02 00 00 04 80 80 38  )....#.p.......8
0030: 00 1D 05 80 23 01 70 00  02 00 00 06 80 80 47 00  ....#.p.......G.
0040: 1D 07 80 23 01 70 00 1D  08 80 23 1D 09 80 23 43  ...#.p....#...#C
0050: 00 43 01 02 09 10 0A 80  00 5F 00 1D 0B 80 23 02  .C......._....#.
0060: 00 00 0A 80 00 70 00 03  02 10 0C 80 1D 0D 80 23  .....p.........#
0070: 21 00                                             !.              
```

#### Opcodes

```
  0: 0x0001 [0x03] ExtData[1]->WorkLocal[0] = Work_Zone[2]
  1: 0x0006 [0x1E] EventEntity looks at LocalPlayer and starts talking
  2: 0x000B [0x02] IF !(ExtData[1]->WorkLocal[0] == 3*) GOTO 0x001A
  3: 0x0013 [0x1D] PRINT_EVENT_MESSAGE(message_id=14339*)
    → "You can get items only once each day, so come back again tomorrow, kupo!"
  4: 0x0016 [0x23] WAIT_FOR_DIALOG_INTERACTION
  5: 0x0017 [0x01] GOTO 0x0070
  6: 0x001A [0x02] IF !(ExtData[1]->WorkLocal[0] == 4*) GOTO 0x0029
  7: 0x0022 [0x1D] PRINT_EVENT_MESSAGE(message_id=13510*)
    → "Ooh, a shiny new adventurer! Join in the fun, kupo!"
  8: 0x0025 [0x23] WAIT_FOR_DIALOG_INTERACTION
  9: 0x0026 [0x01] GOTO 0x0070
 10: 0x0029 [0x02] IF !(ExtData[1]->WorkLocal[0] == 5*) GOTO 0x0038
 11: 0x0031 [0x1D] PRINT_EVENT_MESSAGE(message_id=14342*)
    → "h*F$$3N$3|$6756136I1jp 0i$3N$3|I"
 12: 0x0034 [0x23] WAIT_FOR_DIALOG_INTERACTION
 13: 0x0035 [0x01] GOTO 0x0070
 14: 0x0038 [0x02] IF !(ExtData[1]->WorkLocal[0] == 6*) GOTO 0x0047
 15: 0x0040 [0x1D] PRINT_EVENT_MESSAGE(message_id=14343*)
    → ""\M$2687560*"AO"$3N$3|B"
 16: 0x0043 [0x23] WAIT_FOR_DIALOG_INTERACTION
 17: 0x0044 [0x01] GOTO 0x0070
 18: 0x0047 [0x1D] PRINT_EVENT_MESSAGE(message_id=14336*)
    → "Come and celebrate the Doll Festival with us, kupo!"
 19: 0x004A [0x23] WAIT_FOR_DIALOG_INTERACTION
 20: 0x004B [0x1D] PRINT_EVENT_MESSAGE(message_id=14337*)
    → "We've got items for everyone! Here you go, kupo!"
 21: 0x004E [0x23] WAIT_FOR_DIALOG_INTERACTION
 22: 0x004F [0x43] SEND_EVENT_UPDATE: Send pending tag to server (packet 0x005B)
 23: 0x0051 [0x43] SEND_EVENT_UPDATE: Check pending flag (skip if not pending)
 24: 0x0053 [0x02] IF !(Work_Zone[9] == 1*) GOTO 0x005F
 25: 0x005B [0x1D] PRINT_EVENT_MESSAGE(message_id=14338*)
    → "Come again and bring your friends! Each of them will also get an item, kupo!"
 26: 0x005E [0x23] WAIT_FOR_DIALOG_INTERACTION
 27: 0x005F [0x02] IF !(ExtData[1]->WorkLocal[0] == 1*) GOTO 0x0070
 28: 0x0067 [0x03] Work_Zone[2] = 4270*
 29: 0x006C [0x1D] PRINT_EVENT_MESSAGE(message_id=14341*)
    → "$$4719184\BhL $P155<Player>M [CI$P10ZAD"=g$4063857)/]"
 30: 0x006F [0x23] WAIT_FOR_DIALOG_INTERACTION

SUBROUTINE_0070:
 31: 0x0070 [0x21] END_EVENT
 32: 0x0071 [0x00] END_REQSTACK()
```
