# 17723394 - Trion

## Common Data

| Field            | Value                         |
|------------------|-------------------------------|
| Zone             | Northern San d'Oria (ID: 231) |
| Block Size       | 1944 bytes                    |
| Total Events     | 53                            |
| References Count | 88                            |

## List of Events

| Event ID                   | Entrypoint   |   Size |   Instructions |
|----------------------------|--------------|--------|----------------|
| [65535](#event-65535)      | 0x0000       |      1 |              1 |
| [16](#event-16)            | 0x0001       |     13 |              3 |
| [1](#event-1)              | 0x000E       |     10 |              2 |
| [65535.1](#event-655351)   | 0x0018       |     14 |              4 |
| [65535.2](#event-655352)   | 0x0026       |     38 |             10 |
| [65535.3](#event-655353)   | 0x004C       |     29 |              3 |
| [65535.4](#event-655354)   | 0x0069       |     37 |              5 |
| [65535.5](#event-655355)   | 0x008E       |     42 |              4 |
| [65535.6](#event-655356)   | 0x00B8       |     68 |              9 |
| [65535.7](#event-655357)   | 0x00FC       |     50 |              6 |
| [65535.8](#event-655358)   | 0x012E       |     29 |              3 |
| [65535.9](#event-655359)   | 0x014B       |     83 |              7 |
| [65535.10](#event-6553510) | 0x019E       |     21 |              3 |
| [65535.11](#event-6553511) | 0x01B3       |     29 |              3 |
| [65535.12](#event-6553512) | 0x01D0       |     60 |              7 |
| [65535.13](#event-6553513) | 0x020C       |     17 |              4 |
| [0](#event-0)              | 0x021D       |     13 |              3 |
| [65535.14](#event-6553514) | 0x022A       |     13 |              3 |
| [65535.15](#event-6553515) | 0x0237       |     20 |              4 |
| [65535.16](#event-6553516) | 0x024B       |     13 |              3 |
| [65535.17](#event-6553517) | 0x0258       |     10 |              2 |
| [65535.18](#event-6553518) | 0x0262       |     20 |              6 |
| [65535.19](#event-6553519) | 0x0276       |     20 |              6 |
| [65535.20](#event-6553520) | 0x028A       |    216 |             24 |
| [65535.21](#event-6553521) | 0x0362       |      6 |              2 |
| [65535.22](#event-6553522) | 0x0368       |     18 |              4 |
| [65535.23](#event-6553523) | 0x037A       |     19 |              5 |
| [65535.24](#event-6553524) | 0x038D       |     19 |              5 |
| [65535.25](#event-6553525) | 0x03A0       |      6 |              2 |
| [65535.26](#event-6553526) | 0x03A6       |      6 |              2 |
| [65535.27](#event-6553527) | 0x03AC       |      6 |              2 |
| [65535.28](#event-6553528) | 0x03B2       |      9 |              3 |
| [65535.29](#event-6553529) | 0x03BB       |      9 |              3 |
| [65535.30](#event-6553530) | 0x03C4       |      9 |              3 |
| [65535.31](#event-6553531) | 0x03CD       |     13 |              3 |
| [65535.32](#event-6553532) | 0x03DA       |     42 |             10 |
| [49](#event-49)            | 0x0404       |     13 |              3 |
| [65535.33](#event-6553533) | 0x0411       |     11 |              3 |
| [65535.34](#event-6553534) | 0x041C       |     11 |              3 |
| [65535.35](#event-6553535) | 0x0427       |     17 |              4 |
| [65535.36](#event-6553536) | 0x0438       |     47 |              8 |
| [65535.37](#event-6553537) | 0x0467       |     17 |              5 |
| [36](#event-36)            | 0x0478       |     16 |              3 |
| [65535.38](#event-6553538) | 0x0488       |     14 |              4 |
| [65535.39](#event-6553539) | 0x0496       |     14 |              4 |
| [65535.40](#event-6553540) | 0x04A4       |     19 |              3 |
| [65535.41](#event-6553541) | 0x04B7       |     29 |              3 |
| [65535.42](#event-6553542) | 0x04D4       |     19 |              3 |
| [65535.43](#event-6553543) | 0x04E7       |     29 |              3 |
| [65535.44](#event-6553544) | 0x0504       |     19 |              3 |
| [65535.45](#event-6553545) | 0x0517       |     29 |              3 |
| [65535.46](#event-6553546) | 0x0534       |     29 |              3 |
| [866](#event-866)          | 0x0551       |      1 |              1 |

## DAT References (imed_data)

|   Index | Hex Value   |   Dec Value |
|---------|-------------|-------------|
|       0 | 0x1F035     |      127029 |
|       1 | 0x1D5CF     |      120271 |
|       2 | 0x0000      |           0 |
|       3 | 0x05DC      |        1500 |
|       4 | 0x000A      |          10 |
|       5 | 0x20E81     |      134785 |
|       6 | 0x1F3E8     |      127976 |
|       7 | 0x0E09      |        3593 |
|       8 | 0x000D      |          13 |
|       9 | 0x239FE     |      145918 |
|      10 | 0x2203A     |      139322 |
|      11 | 0x23DD0     |      146896 |
|      12 | 0x22743     |      141123 |
|      13 | 0x24135     |      147765 |
|      14 | 0x22BBA     |      142266 |
|      15 | 0xFFFFFDA7  |  4294966695 |
|      16 | 0x242AE     |      148142 |
|      17 | 0x22CCD     |      142541 |
|      18 | 0x0075      |         117 |
|      19 | 0x0514      |        1300 |
|      20 | 0x0046      |          70 |
|      21 | 0x0076      |         118 |
|      22 | 0x0019      |          25 |
|      23 | 0x00F3      |         243 |
|      24 | 0x001E      |          30 |
|      25 | 0x0613      |        1555 |
|      26 | 0x21F86     |      139142 |
|      27 | 0x20E30     |      134704 |
|      28 | 0x063E      |        1598 |
|      29 | 0xFFFFFC18  |  4294966296 |
|      30 | 0xFFFFDBFF  |  4294958079 |
|      31 | 0x0C0F      |        3087 |
|      32 | 0x4921      |       18721 |
|      33 | 0x050A      |        1290 |
|      34 | 0x1727C     |       94844 |
|      35 | 0x200D0     |      131280 |
|      36 | 0xFFFFF830  |  4294965296 |
|      37 | 0x1AC30     |      109616 |
|      38 | 0x1927E     |      103038 |
|      39 | 0x04B0      |        1200 |
|      40 | 0x182C3     |       99011 |
|      41 | 0x16802     |       92162 |
|      42 | 0x06D5      |        1749 |
|      43 | 0x0604      |        1540 |
|      44 | 0x0050      |          80 |
|      45 | 0x1793A     |       96570 |
|      46 | 0x15E58     |       89688 |
|      47 | 0x17572     |       95602 |
|      48 | 0x159FD     |       88573 |
|      49 | 0x0C3C      |        3132 |
|      50 | 0x0028      |          40 |
|      51 | 0x00F1      |         241 |
|      52 | 0x0073      |         115 |
|      53 | 0xFFFFF414  |  4294964244 |
|      54 | 0xFFFFAC68  |  4294945896 |
|      55 | 0x0B9D      |        2973 |
|      56 | 0xFFFFF060  |  4294963296 |
|      57 | 0xFFFFC85F  |  4294953055 |
|      58 | 0xFFFFD067  |  4294955111 |
|      59 | 0x003C      |          60 |
|      60 | 0xFFFFF448  |  4294964296 |
|      61 | 0xFFFFD06A  |  4294955114 |
|      62 | 0xFFFFD880  |  4294957184 |
|      63 | 0xFFFFFEFB  |  4294967035 |
|      64 | 0x30D9      |       12505 |
|      65 | 0x2E60      |       11872 |
|      66 | 0x4CF9      |       19705 |
|      67 | 0x174D8     |       95448 |
|      68 | 0x15163     |       86371 |
|      69 | 0x0DEA      |        3562 |
|      70 | 0x181BC     |       98748 |
|      71 | 0x15FF0     |       90096 |
|      72 | 0x1841A     |       99354 |
|      73 | 0x162B4     |       90804 |
|      74 | 0x0111      |         273 |
|      75 | 0x18B43     |      101187 |
|      76 | 0x16822     |       92194 |
|      77 | 0x73F0      |       29680 |
|      78 | 0x10AD1     |       68305 |
|      79 | 0x07C7      |        1991 |
|      80 | 0x0FFD      |        4093 |
|      81 | 0x0008      |           8 |
|      82 | 0x7438      |       29752 |
|      83 | 0x105ED     |       67053 |
|      84 | 0x667C      |       26236 |
|      85 | 0xFB5F      |       64351 |
|      86 | 0x07CB      |        1995 |
|      87 | 0x0074      |         116 |

## Events

### Event 65535

#### Metadata

| Field        | Value   |
|--------------|---------|
| Entrypoint   | 0x0000  |
| Data Size    | 1 bytes |
| Instructions | 1       |

```
      00 01 02 03 04 05 06 07  08 09 0A 0B 0C 0D 0E 0F
      -- -- -- -- -- -- -- --  -- -- -- -- -- -- -- --
0000: 00                                                .               
```

#### Opcodes

```
  0: 0x0000 [0x00] END_REQSTACK()
```

### Event 16

#### Metadata

| Field        | Value    |
|--------------|----------|
| Entrypoint   | 0x0001   |
| Data Size    | 13 bytes |
| Instructions | 3        |

```
      00 01 02 03 04 05 06 07  08 09 0A 0B 0C 0D 0E 0F
      -- -- -- -- -- -- -- --  -- -- -- -- -- -- -- --
0000:    37 00 80 01 80 02 80  03 80 32 04 80 00         7........2...  
```

#### Opcodes

```
  0: 0x0001 [0x37] UPDATE_EVENT_POSITION_AND_DIR: x=127.029*, z=120.271*, y=0.000*, direction=131.8°*
  1: 0x000A [0x32] ExtData[1]->MainSpeed = 10* * 0.1
  2: 0x000D [0x00] END_REQSTACK()
```

### Event 1

#### Metadata

| Field        | Value    |
|--------------|----------|
| Entrypoint   | 0x000E   |
| Data Size    | 10 bytes |
| Instructions | 2        |

```
      00 01 02 03 04 05 06 07  08 09 0A 0B 0C 0D 0E 0F
      -- -- -- -- -- -- -- --  -- -- -- -- -- -- -- --
0000:                                            37 05                7.
0010: 80 06 80 02 80 07 80 00                           ........        
```

#### Opcodes

```
  0: 0x000E [0x37] UPDATE_EVENT_POSITION_AND_DIR: x=134.785*, z=127.976*, y=0.000*, direction=315.8°*
  1: 0x0017 [0x00] END_REQSTACK()
```

### Event 65535.1

#### Metadata

| Field        | Value    |
|--------------|----------|
| Entrypoint   | 0x0018   |
| Data Size    | 14 bytes |
| Instructions | 4        |

```
      00 01 02 03 04 05 06 07  08 09 0A 0B 0C 0D 0E 0F
      -- -- -- -- -- -- -- --  -- -- -- -- -- -- -- --
0010:                          32 08 80 1F 00 09 80 0A          2.......
0020: 80 02 80 1F 01 00                                 ......          
```

#### Opcodes

```
  0: 0x0018 [0x32] ExtData[1]->MainSpeed = 13* * 0.1
  1: 0x001B [0x1F] MOVE_ENTITY: EventEntity moves to X=145.918*, Z=139.322*, Y=0.000*
  2: 0x0023 [0x1F] MOVE_ENTITY: Update entity position (mode=1)
  3: 0x0025 [0x00] END_REQSTACK()
```

### Event 65535.2

#### Metadata

| Field        | Value    |
|--------------|----------|
| Entrypoint   | 0x0026   |
| Data Size    | 38 bytes |
| Instructions | 10       |

```
      00 01 02 03 04 05 06 07  08 09 0A 0B 0C 0D 0E 0F
      -- -- -- -- -- -- -- --  -- -- -- -- -- -- -- --
0020:                   32 08  80 1F 00 0B 80 0C 80 02        2.........
0030: 80 1F 01 33 01 5A 00 0D  80 0E 80 0F 80 5A 01 33  ...3.Z.......Z.3
0040: 00 1F 00 10 80 11 80 0F  80 1F 01 00              ............    
```

#### Opcodes

```
  0: 0x0026 [0x32] ExtData[1]->MainSpeed = 13* * 0.1
  1: 0x0029 [0x1F] MOVE_ENTITY: EventEntity moves to X=146.896*, Z=141.123*, Y=0.000*
  2: 0x0031 [0x1F] MOVE_ENTITY: Update entity position (mode=1)
  3: 0x0033 [0x33] EventEntity->Render.Flags0 |= 0x200000 // Bit 21 (flag=0x01)
  4: 0x0035 [0x5A] UPDATE_EVENT_POSITION: Set EventEntity MovePosition to X=147.765*, Z=142.266*, Y=-0.601*
  5: 0x003D [0x5A] UPDATE_EVENT_POSITION: Move EventEntity incrementally towards MovePosition
  6: 0x003F [0x33] EventEntity->Render.Flags0 &= ~ 0x200000 // Bit 21 (flag=0x00)
  7: 0x0041 [0x1F] MOVE_ENTITY: EventEntity moves to X=148.142*, Z=142.541*, Y=-0.601*
  8: 0x0049 [0x1F] MOVE_ENTITY: Update entity position (mode=1)
  9: 0x004B [0x00] END_REQSTACK()
```

### Event 65535.3

#### Metadata

| Field        | Value    |
|--------------|----------|
| Entrypoint   | 0x004C   |
| Data Size    | 29 bytes |
| Instructions | 3        |

```
      00 01 02 03 04 05 06 07  08 09 0A 0B 0C 0D 0E 0F
      -- -- -- -- -- -- -- --  -- -- -- -- -- -- -- --
0040:                                      5B 12 80 F8              [...
0050: FF FF 7F F8 FF FF 7F 75  6B 74 30 53 F8 FF FF 7F  .......ukt0S....
0060: F8 FF FF 7F 75 6B 74 30  00                       ....ukt0.       
```

#### Opcodes

```
  0: 0x004C [0x5B] LOAD_EXT_SCHEDULER: Load scheduler "ukt0" with entities [EventEntity, EventEntity], work=117*
  1: 0x005B [0x53] WAIT_SCHEDULER_TASK: Wait for scheduler "ukt0" with entities [EventEntity, EventEntity]
  2: 0x0068 [0x00] END_REQSTACK()
```

### Event 65535.4

#### Metadata

| Field        | Value    |
|--------------|----------|
| Entrypoint   | 0x0069   |
| Data Size    | 37 bytes |
| Instructions | 5        |

```
      00 01 02 03 04 05 06 07  08 09 0A 0B 0C 0D 0E 0F
      -- -- -- -- -- -- -- --  -- -- -- -- -- -- -- --
0060:                             86 01 02 70 0E 01 3B           ...p..;
0070: 02 70 0E 01 00 00 01 00  02 00 37 00 00 01 00 02  .p........7.....
0080: 00 13 80 79 00 F8 FF FF  7F CF 70 0E 01 00        ...y......p...  
```

#### Opcodes

```
  0: 0x0069 [0x86] Trion (ID: 17723394/0x010E7002)->Render.Flags3 ^= 0x01
  1: 0x006F [0x3B] GET_ENTITY_POSITION(entity=Trion (ID: 17723394/0x010E7002), x_destination=ExtData[1]->WorkLocal[0], y_destination=ExtData[1]->WorkLocal[1], z_destination=ExtData[1]->WorkLocal[2])
  2: 0x007A [0x37] UPDATE_EVENT_POSITION_AND_DIR: x=ExtData[1]->WorkLocal[0], z=ExtData[1]->WorkLocal[1], y=ExtData[1]->WorkLocal[2], direction=114.3°*
  3: 0x0083 [0x79] EventEntity looks at Rochefogne (ID: 17723599/0x010E70CF) (Basic look)
  4: 0x008D [0x00] END_REQSTACK()
```

### Event 65535.5

#### Metadata

| Field        | Value    |
|--------------|----------|
| Entrypoint   | 0x008E   |
| Data Size    | 42 bytes |
| Instructions | 4        |

```
      00 01 02 03 04 05 06 07  08 09 0A 0B 0C 0D 0E 0F
      -- -- -- -- -- -- -- --  -- -- -- -- -- -- -- --
0080:                                            2C F8                ,.
0090: FF FF 7F F8 FF FF 7F 77  6F 6E 34 5B 12 80 F8 FF  .......won4[....
00A0: FF 7F F8 FF FF 7F 73 6E  6B 30 53 F8 FF FF 7F F8  ......snk0S.....
00B0: FF FF 7F 73 6E 6B 30 00                           ...snk0.        
```

#### Opcodes

```
  0: 0x008E [0x2C] CREATE_SCHEDULER_TASK: Create scheduler "won4" with entities [EventEntity, EventEntity]
  1: 0x009B [0x5B] LOAD_EXT_SCHEDULER: Load scheduler "snk0" with entities [EventEntity, EventEntity], work=117*
  2: 0x00AA [0x53] WAIT_SCHEDULER_TASK: Wait for scheduler "snk0" with entities [EventEntity, EventEntity]
  3: 0x00B7 [0x00] END_REQSTACK()
```

### Event 65535.6

#### Metadata

| Field        | Value    |
|--------------|----------|
| Entrypoint   | 0x00B8   |
| Data Size    | 68 bytes |
| Instructions | 9        |

```
      00 01 02 03 04 05 06 07  08 09 0A 0B 0C 0D 0E 0F
      -- -- -- -- -- -- -- --  -- -- -- -- -- -- -- --
00B0:                          37 10 80 11 80 0F 80 13          7.......
00C0: 80 79 00 F8 FF FF 7F CF  70 0E 01 80 F8 FF FF 7F  .y......p.......
00D0: 6F 70 2C F8 FF FF 7F F8  FF FF 7F 77 6F 6E 34 5B  op,........won4[
00E0: 12 80 F8 FF FF 7F F8 FF  FF 7F 73 6E 6B 30 53 F8  ..........snk0S.
00F0: FF FF 7F F8 FF FF 7F 73  6E 6B 30 00              .......snk0.    
```

#### Opcodes

```
  0: 0x00B8 [0x37] UPDATE_EVENT_POSITION_AND_DIR: x=148.142*, z=142.541*, y=-0.601*, direction=114.3°*
  1: 0x00C1 [0x79] EventEntity looks at Rochefogne (ID: 17723599/0x010E70CF) (Basic look)
  2: 0x00CB [0x80] LOAD_WAIT(entity=EventEntity)
  3: 0x00D0 [0x6F] WAIT_FRAME_DELAY: Yield until WaitTime reaches zero
  4: 0x00D1 [0x70] WAIT_ENTITY_RENDER_FLAG: Wait while EventEntity->Render.Flags3 bit 2 is set (cancel turn if not)
  5: 0x00D2 [0x2C] CREATE_SCHEDULER_TASK: Create scheduler "won4" with entities [EventEntity, EventEntity]
  6: 0x00DF [0x5B] LOAD_EXT_SCHEDULER: Load scheduler "snk0" with entities [EventEntity, EventEntity], work=117*
  7: 0x00EE [0x53] WAIT_SCHEDULER_TASK: Wait for scheduler "snk0" with entities [EventEntity, EventEntity]
  8: 0x00FB [0x00] END_REQSTACK()
```

### Event 65535.7

#### Metadata

| Field        | Value    |
|--------------|----------|
| Entrypoint   | 0x00FC   |
| Data Size    | 50 bytes |
| Instructions | 6        |

```
      00 01 02 03 04 05 06 07  08 09 0A 0B 0C 0D 0E 0F
      -- -- -- -- -- -- -- --  -- -- -- -- -- -- -- --
00F0:                                      5B 12 80 F8              [...
0100: FF FF 7F F8 FF FF 7F 6E  67 72 30 1C 14 80 53 F8  .......ngr0...S.
0110: FF FF 7F F8 FF FF 7F 6E  67 72 30 2C F8 FF FF 7F  .......ngr0,....
0120: F8 FF FF 7F 77 6F 66 34  5E 69 64 6C 30 00        ....wof4^idl0.  
```

#### Opcodes

```
  0: 0x00FC [0x5B] LOAD_EXT_SCHEDULER: Load scheduler "ngr0" with entities [EventEntity, EventEntity], work=117*
  1: 0x010B [0x1C] WAIT(70* ticks)
  2: 0x010E [0x53] WAIT_SCHEDULER_TASK: Wait for scheduler "ngr0" with entities [EventEntity, EventEntity]
  3: 0x011B [0x2C] CREATE_SCHEDULER_TASK: Create scheduler "wof4" with entities [EventEntity, EventEntity]
  4: 0x0128 [0x5E] EventEntity goes idle (kills current action) (animation: "idl0")
  5: 0x012D [0x00] END_REQSTACK()
```

### Event 65535.8

#### Metadata

| Field        | Value    |
|--------------|----------|
| Entrypoint   | 0x012E   |
| Data Size    | 29 bytes |
| Instructions | 3        |

```
      00 01 02 03 04 05 06 07  08 09 0A 0B 0C 0D 0E 0F
      -- -- -- -- -- -- -- --  -- -- -- -- -- -- -- --
0120:                                            5B 15                [.
0130: 80 F8 FF FF 7F F8 FF FF  7F 6B 6B 67 30 53 F8 FF  .........kkg0S..
0140: FF 7F F8 FF FF 7F 6B 6B  67 30 00                 ......kkg0.     
```

#### Opcodes

```
  0: 0x012E [0x5B] LOAD_EXT_SCHEDULER: Load scheduler "kkg0" with entities [EventEntity, EventEntity], work=118*
  1: 0x013D [0x53] WAIT_SCHEDULER_TASK: Wait for scheduler "kkg0" with entities [EventEntity, EventEntity]
  2: 0x014A [0x00] END_REQSTACK()
```

### Event 65535.9

#### Metadata

| Field        | Value    |
|--------------|----------|
| Entrypoint   | 0x014B   |
| Data Size    | 83 bytes |
| Instructions | 7        |

```
      00 01 02 03 04 05 06 07  08 09 0A 0B 0C 0D 0E 0F
      -- -- -- -- -- -- -- --  -- -- -- -- -- -- -- --
0140:                                   9F 16 80 F8 FF             .....
0150: FF 7F F8 FF FF 7F 00 FE  FE FE 02 80 5B 15 80 F8  ............[...
0160: FF FF 7F F8 FF FF 7F 6B  6B 67 31 45 17 80 10 70  .......kkg1E...p
0170: 0E 01 10 70 0E 01 73 65  30 38 02 80 1C 18 80 9F  ...p..se08......
0180: 16 80 F8 FF FF 7F F8 FF  FF 7F 6D 61 69 6E 02 80  ..........main..
0190: 53 F8 FF FF 7F F8 FF FF  7F 6B 6B 67 31 00        S........kkg1.  
```

#### Opcodes

```
  0: 0x014B [0x9F] LOAD_SCHEDULED_TASK_ALT: Load scheduler 0xFEFEFE00 with entities [EventEntity, EventEntity], work=[25*, 0*]
  1: 0x015C [0x5B] LOAD_EXT_SCHEDULER: Load scheduler "kkg1" with entities [EventEntity, EventEntity], work=118*
  2: 0x016B [0x45] LOAD_SCHEDULED_TASK: Load scheduler "se08" with entities [Shamonde (ID: 17723408/0x010E7010), Shamonde (ID: 17723408/0x010E7010)], work=[243*, 0*]
  3: 0x017C [0x1C] WAIT(30* ticks)
  4: 0x017F [0x9F] LOAD_SCHEDULED_TASK_ALT: Load scheduler "main" with entities [EventEntity, EventEntity], work=[25*, 0*]
  5: 0x0190 [0x53] WAIT_SCHEDULER_TASK: Wait for scheduler "kkg1" with entities [EventEntity, EventEntity]
  6: 0x019D [0x00] END_REQSTACK()
```

### Event 65535.10

#### Metadata

| Field        | Value    |
|--------------|----------|
| Entrypoint   | 0x019E   |
| Data Size    | 21 bytes |
| Instructions | 3        |

```
      00 01 02 03 04 05 06 07  08 09 0A 0B 0C 0D 0E 0F
      -- -- -- -- -- -- -- --  -- -- -- -- -- -- -- --
0190:                                            3B 02                ;.
01A0: 70 0E 01 00 00 01 00 02  00 37 00 00 01 00 02 00  p........7......
01B0: 19 80 00                                          ...             
```

#### Opcodes

```
  0: 0x019E [0x3B] GET_ENTITY_POSITION(entity=Trion (ID: 17723394/0x010E7002), x_destination=ExtData[1]->WorkLocal[0], y_destination=ExtData[1]->WorkLocal[1], z_destination=ExtData[1]->WorkLocal[2])
  1: 0x01A9 [0x37] UPDATE_EVENT_POSITION_AND_DIR: x=ExtData[1]->WorkLocal[0], z=ExtData[1]->WorkLocal[1], y=ExtData[1]->WorkLocal[2], direction=136.7°*
  2: 0x01B2 [0x00] END_REQSTACK()
```

### Event 65535.11

#### Metadata

| Field        | Value    |
|--------------|----------|
| Entrypoint   | 0x01B3   |
| Data Size    | 29 bytes |
| Instructions | 3        |

```
      00 01 02 03 04 05 06 07  08 09 0A 0B 0C 0D 0E 0F
      -- -- -- -- -- -- -- --  -- -- -- -- -- -- -- --
01B0:          5B 15 80 02 70  0E 01 02 70 0E 01 6B 6B     [...p...p..kk
01C0: 67 32 53 F8 FF FF 7F F8  FF FF 7F 6B 6B 67 32 00  g2S........kkg2.
```

#### Opcodes

```
  0: 0x01B3 [0x5B] LOAD_EXT_SCHEDULER: Load scheduler "kkg2" with entities [Trion (ID: 17723394/0x010E7002), Trion (ID: 17723394/0x010E7002)], work=118*
  1: 0x01C2 [0x53] WAIT_SCHEDULER_TASK: Wait for scheduler "kkg2" with entities [EventEntity, EventEntity]
  2: 0x01CF [0x00] END_REQSTACK()
```

### Event 65535.12

#### Metadata

| Field        | Value    |
|--------------|----------|
| Entrypoint   | 0x01D0   |
| Data Size    | 60 bytes |
| Instructions | 7        |

```
      00 01 02 03 04 05 06 07  08 09 0A 0B 0C 0D 0E 0F
      -- -- -- -- -- -- -- --  -- -- -- -- -- -- -- --
01D0: A5 01 37 1A 80 1B 80 02  80 1C 80 5B 15 80 F8 FF  ..7........[....
01E0: FF 7F F8 FF FF 7F 6B 65  6E 30 1C 18 80 45 17 80  ......ken0...E..
01F0: 10 70 0E 01 10 70 0E 01  73 65 30 35 02 80 53 F8  .p...p..se05..S.
0200: FF FF 7F F8 FF FF 7F 6B  65 6E 30 00              .......ken0.    
```

#### Opcodes

```
  0: 0x01D0 [0xA5] EventEntity->Flags3.BallistaTeam |= 0x08  // Set bit 3 of BallistaTeam
  1: 0x01D2 [0x37] UPDATE_EVENT_POSITION_AND_DIR: x=139.142*, z=134.704*, y=0.000*, direction=140.4°*
  2: 0x01DB [0x5B] LOAD_EXT_SCHEDULER: Load scheduler "ken0" with entities [EventEntity, EventEntity], work=118*
  3: 0x01EA [0x1C] WAIT(30* ticks)
  4: 0x01ED [0x45] LOAD_SCHEDULED_TASK: Load scheduler "se05" with entities [Shamonde (ID: 17723408/0x010E7010), Shamonde (ID: 17723408/0x010E7010)], work=[243*, 0*]
  5: 0x01FE [0x53] WAIT_SCHEDULER_TASK: Wait for scheduler "ken0" with entities [EventEntity, EventEntity]
  6: 0x020B [0x00] END_REQSTACK()
```

### Event 65535.13

#### Metadata

| Field        | Value    |
|--------------|----------|
| Entrypoint   | 0x020C   |
| Data Size    | 17 bytes |
| Instructions | 4        |

```
      00 01 02 03 04 05 06 07  08 09 0A 0B 0C 0D 0E 0F
      -- -- -- -- -- -- -- --  -- -- -- -- -- -- -- --
0200:                                      37 10 80 11              7...
0210: 80 0F 80 13 80 5E 69 64  6C 30 22 00 00           .....^idl0"..   
```

#### Opcodes

```
  0: 0x020C [0x37] UPDATE_EVENT_POSITION_AND_DIR: x=148.142*, z=142.541*, y=-0.601*, direction=114.3°*
  1: 0x0215 [0x5E] EventEntity goes idle (kills current action) (animation: "idl0")
  2: 0x021A [0x22] ENTITY_HIDE_FLAG(enabled=0x00)
  3: 0x021C [0x00] END_REQSTACK()
```

### Event 0

#### Metadata

| Field        | Value    |
|--------------|----------|
| Entrypoint   | 0x021D   |
| Data Size    | 13 bytes |
| Instructions | 3        |

```
      00 01 02 03 04 05 06 07  08 09 0A 0B 0C 0D 0E 0F
      -- -- -- -- -- -- -- --  -- -- -- -- -- -- -- --
0210:                                         37 1D 80               7..
0220: 1E 80 02 80 1F 80 32 08  80 00                    ......2...      
```

#### Opcodes

```
  0: 0x021D [0x37] UPDATE_EVENT_POSITION_AND_DIR: x=-1.000*, z=-9.217*, y=0.000*, direction=271.3°*
  1: 0x0226 [0x32] ExtData[1]->MainSpeed = 13* * 0.1
  2: 0x0229 [0x00] END_REQSTACK()
```

### Event 65535.14

#### Metadata

| Field        | Value    |
|--------------|----------|
| Entrypoint   | 0x022A   |
| Data Size    | 13 bytes |
| Instructions | 3        |

```
      00 01 02 03 04 05 06 07  08 09 0A 0B 0C 0D 0E 0F
      -- -- -- -- -- -- -- --  -- -- -- -- -- -- -- --
0220:                                31 00 1D 80 20 80            1... .
0230: 02 80 21 80 31 01 00                              ..!.1..         
```

#### Opcodes

```
  0: 0x022A [0x31] UPDATE_ENTITY_POSITION: Set EventEntity goal position to X=-1.000*, Z=18.721*, Y=0.000*, Time=1290*
  1: 0x0234 [0x31] UPDATE_ENTITY_POSITION: Move EventEntity towards goal position
  2: 0x0236 [0x00] END_REQSTACK()
```

### Event 65535.15

#### Metadata

| Field        | Value    |
|--------------|----------|
| Entrypoint   | 0x0237   |
| Data Size    | 20 bytes |
| Instructions | 4        |

```
      00 01 02 03 04 05 06 07  08 09 0A 0B 0C 0D 0E 0F
      -- -- -- -- -- -- -- --  -- -- -- -- -- -- -- --
0230:                      37  1D 80 22 80 02 80 1F 80         7..".....
0240: 1F 00 1D 80 23 80 24 80  1F 01 00                 ....#.$....     
```

#### Opcodes

```
  0: 0x0237 [0x37] UPDATE_EVENT_POSITION_AND_DIR: x=-1.000*, z=94.844*, y=0.000*, direction=271.3°*
  1: 0x0240 [0x1F] MOVE_ENTITY: EventEntity moves to X=-1.000*, Z=131.280*, Y=-2.000*
  2: 0x0248 [0x1F] MOVE_ENTITY: Update entity position (mode=1)
  3: 0x024A [0x00] END_REQSTACK()
```

### Event 65535.16

#### Metadata

| Field        | Value    |
|--------------|----------|
| Entrypoint   | 0x024B   |
| Data Size    | 13 bytes |
| Instructions | 3        |

```
      00 01 02 03 04 05 06 07  08 09 0A 0B 0C 0D 0E 0F
      -- -- -- -- -- -- -- --  -- -- -- -- -- -- -- --
0240:                                   31 00 25 80 26             1.%.&
0250: 80 02 80 27 80 31 01 00                           ...'.1..        
```

#### Opcodes

```
  0: 0x024B [0x31] UPDATE_ENTITY_POSITION: Set EventEntity goal position to X=109.616*, Z=103.038*, Y=0.000*, Time=1200*
  1: 0x0255 [0x31] UPDATE_ENTITY_POSITION: Move EventEntity towards goal position
  2: 0x0257 [0x00] END_REQSTACK()
```

### Event 65535.17

#### Metadata

| Field        | Value    |
|--------------|----------|
| Entrypoint   | 0x0258   |
| Data Size    | 10 bytes |
| Instructions | 2        |

```
      00 01 02 03 04 05 06 07  08 09 0A 0B 0C 0D 0E 0F
      -- -- -- -- -- -- -- --  -- -- -- -- -- -- -- --
0250:                          37 28 80 29 80 2A 80 2B          7(.).*.+
0260: 80 00                                             ..              
```

#### Opcodes

```
  0: 0x0258 [0x37] UPDATE_EVENT_POSITION_AND_DIR: x=99.011*, z=92.162*, y=1.749*, direction=135.3°*
  1: 0x0261 [0x00] END_REQSTACK()
```

### Event 65535.18

#### Metadata

| Field        | Value    |
|--------------|----------|
| Entrypoint   | 0x0262   |
| Data Size    | 20 bytes |
| Instructions | 6        |

```
      00 01 02 03 04 05 06 07  08 09 0A 0B 0C 0D 0E 0F
      -- -- -- -- -- -- -- --  -- -- -- -- -- -- -- --
0260:       1C 2C 80 1F 00 2D  80 2E 80 2A 80 1F 01 6F    .,...-...*...o
0270: 1E C5 70 0E 01 00                                 ..p...          
```

#### Opcodes

```
  0: 0x0262 [0x1C] WAIT(80* ticks)
  1: 0x0265 [0x1F] MOVE_ENTITY: EventEntity moves to X=96.570*, Z=89.688*, Y=1.749*
  2: 0x026D [0x1F] MOVE_ENTITY: Update entity position (mode=1)
  3: 0x026F [0x6F] WAIT_FRAME_DELAY: Yield until WaitTime reaches zero
  4: 0x0270 [0x1E] EventEntity looks at Rochefogne (ID: 17723589/0x010E70C5) and starts talking
  5: 0x0275 [0x00] END_REQSTACK()
```

### Event 65535.19

#### Metadata

| Field        | Value    |
|--------------|----------|
| Entrypoint   | 0x0276   |
| Data Size    | 20 bytes |
| Instructions | 6        |

```
      00 01 02 03 04 05 06 07  08 09 0A 0B 0C 0D 0E 0F
      -- -- -- -- -- -- -- --  -- -- -- -- -- -- -- --
0270:                   32 08  80 1F 00 2F 80 30 80 2A        2..../.0.*
0280: 80 1F 01 6F 1E C5 70 0E  01 00                    ...o..p...      
```

#### Opcodes

```
  0: 0x0276 [0x32] ExtData[1]->MainSpeed = 13* * 0.1
  1: 0x0279 [0x1F] MOVE_ENTITY: EventEntity moves to X=95.602*, Z=88.573*, Y=1.749*
  2: 0x0281 [0x1F] MOVE_ENTITY: Update entity position (mode=1)
  3: 0x0283 [0x6F] WAIT_FRAME_DELAY: Yield until WaitTime reaches zero
  4: 0x0284 [0x1E] EventEntity looks at Rochefogne (ID: 17723589/0x010E70C5) and starts talking
  5: 0x0289 [0x00] END_REQSTACK()
```

### Event 65535.20

#### Metadata

| Field        | Value     |
|--------------|-----------|
| Entrypoint   | 0x028A    |
| Data Size    | 216 bytes |
| Instructions | 24        |

```
      00 01 02 03 04 05 06 07  08 09 0A 0B 0C 0D 0E 0F
      -- -- -- -- -- -- -- --  -- -- -- -- -- -- -- --
0280:                                39 31 80 1C 32 80            91..2.
0290: 45 33 80 F0 FF FF 7F F0  FF FF 7F 78 30 30 61 02  E3.........x00a.
02A0: 80 5B 34 80 F8 FF FF 7F  F8 FF FF 7F 61 72 61 30  .[4.........ara0
02B0: 27 03 B4 70 0E 01 05 27  03 B5 70 0E 01 0A 27 03  '..p...'..p...'.
02C0: B6 70 0E 01 0A 27 03 B7  70 0E 01 0A 27 03 B8 70  .p...'..p...'..p
02D0: 0E 01 0A 27 03 B9 70 0E  01 06 27 03 BA 70 0E 01  ...'..p...'..p..
02E0: 0C 27 03 BB 70 0E 01 0C  53 F8 FF FF 7F F8 FF FF  .'..p...S.......
02F0: 7F 61 72 61 30 5B 34 80  F8 FF FF 7F F8 FF FF 7F  .ara0[4.........
0300: 61 72 61 31 53 F8 FF FF  7F F8 FF FF 7F 61 72 61  ara1S........ara
0310: 31 55 33 80 F0 FF FF 7F  F0 FF FF 7F 78 30 30 61  1U3.........x00a
0320: 4A 02 70 0E 01 C5 70 0E  01 1C 04 80 55 33 80 F0  J.p...p.....U3..
0330: FF FF 7F F0 FF FF 7F 78  30 30 39 45 33 80 F0 FF  .......x009E3...
0340: FF 7F F0 FF FF 7F 78 30  31 30 02 80 55 33 80 F0  ......x010..U3..
0350: FF FF 7F F0 FF FF 7F 78  30 31 30 6F 76 02 70 0E  .......x010ov.p.
0360: 01 00                                             ..              
```

#### Opcodes

```
  0: 0x028A [0x39] SET_ENTITY_DIRECTION(direction=17.2°*)
  1: 0x028D [0x1C] WAIT(40* ticks)
  2: 0x0290 [0x45] LOAD_SCHEDULED_TASK: Load scheduler "x00a" with entities [LocalPlayer, LocalPlayer], work=[241*, 0*]
  3: 0x02A1 [0x5B] LOAD_EXT_SCHEDULER: Load scheduler "ara0" with entities [EventEntity, EventEntity], work=115*
  4: 0x02B0 [0x27] REQ_SET(priority=0x03, entity_id=Ferdechiond (ID: 17723572/0x010E70B4), tag_num=0x05)
  5: 0x02B7 [0x27] REQ_SET(priority=0x03, entity_id=Unnamed NPC (ID: 17723573/0x010E70B5), tag_num=0x0A)
  6: 0x02BE [0x27] REQ_SET(priority=0x03, entity_id=Unnamed NPC (ID: 17723574/0x010E70B6), tag_num=0x0A)
  7: 0x02C5 [0x27] REQ_SET(priority=0x03, entity_id=Unnamed NPC (ID: 17723575/0x010E70B7), tag_num=0x0A)
  8: 0x02CC [0x27] REQ_SET(priority=0x03, entity_id=Unnamed NPC (ID: 17723576/0x010E70B8), tag_num=0x0A)
  9: 0x02D3 [0x27] REQ_SET(priority=0x03, entity_id=Unnamed NPC (ID: 17723577/0x010E70B9), tag_num=0x06)
 10: 0x02DA [0x27] REQ_SET(priority=0x03, entity_id=Unnamed NPC (ID: 17723578/0x010E70BA), tag_num=0x0C)
 11: 0x02E1 [0x27] REQ_SET(priority=0x03, entity_id=Unnamed NPC (ID: 17723579/0x010E70BB), tag_num=0x0C)
 12: 0x02E8 [0x53] WAIT_SCHEDULER_TASK: Wait for scheduler "ara0" with entities [EventEntity, EventEntity]
 13: 0x02F5 [0x5B] LOAD_EXT_SCHEDULER: Load scheduler "ara1" with entities [EventEntity, EventEntity], work=115*
 14: 0x0304 [0x53] WAIT_SCHEDULER_TASK: Wait for scheduler "ara1" with entities [EventEntity, EventEntity]
 15: 0x0311 [0x55] WAIT_LOAD_SCHEDULER: Wait for scheduler "x00a" with entities [LocalPlayer, LocalPlayer], work=241*
 16: 0x0320 [0x4A] Trion (ID: 17723394/0x010E7002) looks at Rochefogne (ID: 17723589/0x010E70C5)
 17: 0x0329 [0x1C] WAIT(10* ticks)
 18: 0x032C [0x55] WAIT_LOAD_SCHEDULER: Wait for scheduler "x009" with entities [LocalPlayer, LocalPlayer], work=241*
 19: 0x033B [0x45] LOAD_SCHEDULED_TASK: Load scheduler "x010" with entities [LocalPlayer, LocalPlayer], work=[241*, 0*]
 20: 0x034C [0x55] WAIT_LOAD_SCHEDULER: Wait for scheduler "x010" with entities [LocalPlayer, LocalPlayer], work=241*
 21: 0x035B [0x6F] WAIT_FRAME_DELAY: Yield until WaitTime reaches zero
 22: 0x035C [0x76] CHECK_ENTITY_RENDER_FLAGS: Wait until Trion (ID: 17723394/0x010E7002) Render.Flags0 and Render.Flags3 conditions are met
 23: 0x0361 [0x00] END_REQSTACK()
```

### Event 65535.21

#### Metadata

| Field        | Value   |
|--------------|---------|
| Entrypoint   | 0x0362  |
| Data Size    | 6 bytes |
| Instructions | 2       |

```
      00 01 02 03 04 05 06 07  08 09 0A 0B 0C 0D 0E 0F
      -- -- -- -- -- -- -- --  -- -- -- -- -- -- -- --
0360:       5E 69 64 6C 30 00                             ^idl0.        
```

#### Opcodes

```
  0: 0x0362 [0x5E] EventEntity goes idle (kills current action) (animation: "idl0")
  1: 0x0367 [0x00] END_REQSTACK()
```

### Event 65535.22

#### Metadata

| Field        | Value    |
|--------------|----------|
| Entrypoint   | 0x0368   |
| Data Size    | 18 bytes |
| Instructions | 4        |

```
      00 01 02 03 04 05 06 07  08 09 0A 0B 0C 0D 0E 0F
      -- -- -- -- -- -- -- --  -- -- -- -- -- -- -- --
0360:                          2F 00 02 70 0E 01 37 35          /..p..75
0370: 80 36 80 02 80 37 80 22  00 00                    .6...7."..      
```

#### Opcodes

```
  0: 0x0368 [0x2F] Trion (ID: 17723394/0x010E7002)->Render.Flags0 &= ~0x80000 // Bit 19
  1: 0x036E [0x37] UPDATE_EVENT_POSITION_AND_DIR: x=-3.052*, z=-21.400*, y=0.000*, direction=261.3°*
  2: 0x0377 [0x22] ENTITY_HIDE_FLAG(enabled=0x00)
  3: 0x0379 [0x00] END_REQSTACK()
```

### Event 65535.23

#### Metadata

| Field        | Value    |
|--------------|----------|
| Entrypoint   | 0x037A   |
| Data Size    | 19 bytes |
| Instructions | 5        |

```
      00 01 02 03 04 05 06 07  08 09 0A 0B 0C 0D 0E 0F
      -- -- -- -- -- -- -- --  -- -- -- -- -- -- -- --
0370:                                32 08 80 1F 00 38            2....8
0380: 80 39 80 02 80 1F 01 1E  01 70 0E 01 00           .9.......p...   
```

#### Opcodes

```
  0: 0x037A [0x32] ExtData[1]->MainSpeed = 13* * 0.1
  1: 0x037D [0x1F] MOVE_ENTITY: EventEntity moves to X=-4.000*, Z=-14.241*, Y=0.000*
  2: 0x0385 [0x1F] MOVE_ENTITY: Update entity position (mode=1)
  3: 0x0387 [0x1E] EventEntity looks at Nonterene (ID: 17723393/0x010E7001) and starts talking
  4: 0x038C [0x00] END_REQSTACK()
```

### Event 65535.24

#### Metadata

| Field        | Value    |
|--------------|----------|
| Entrypoint   | 0x038D   |
| Data Size    | 19 bytes |
| Instructions | 5        |

```
      00 01 02 03 04 05 06 07  08 09 0A 0B 0C 0D 0E 0F
      -- -- -- -- -- -- -- --  -- -- -- -- -- -- -- --
0380:                                         32 08 80               2..
0390: 1F 00 38 80 3A 80 02 80  1F 01 1E 03 70 0E 01 00  ..8.:.......p...
```

#### Opcodes

```
  0: 0x038D [0x32] ExtData[1]->MainSpeed = 13* * 0.1
  1: 0x0390 [0x1F] MOVE_ENTITY: EventEntity moves to X=-4.000*, Z=-12.185*, Y=0.000*
  2: 0x0398 [0x1F] MOVE_ENTITY: Update entity position (mode=1)
  3: 0x039A [0x1E] EventEntity looks at Pieuje (ID: 17723395/0x010E7003) and starts talking
  4: 0x039F [0x00] END_REQSTACK()
```

### Event 65535.25

#### Metadata

| Field        | Value   |
|--------------|---------|
| Entrypoint   | 0x03A0  |
| Data Size    | 6 bytes |
| Instructions | 2       |

```
      00 01 02 03 04 05 06 07  08 09 0A 0B 0C 0D 0E 0F
      -- -- -- -- -- -- -- --  -- -- -- -- -- -- -- --
03A0: 1E 01 70 0E 01 00                                 ..p...          
```

#### Opcodes

```
  0: 0x03A0 [0x1E] EventEntity looks at Nonterene (ID: 17723393/0x010E7001) and starts talking
  1: 0x03A5 [0x00] END_REQSTACK()
```

### Event 65535.26

#### Metadata

| Field        | Value   |
|--------------|---------|
| Entrypoint   | 0x03A6  |
| Data Size    | 6 bytes |
| Instructions | 2       |

```
      00 01 02 03 04 05 06 07  08 09 0A 0B 0C 0D 0E 0F
      -- -- -- -- -- -- -- --  -- -- -- -- -- -- -- --
03A0:                   1E F0  FF FF 7F 00                    ......    
```

#### Opcodes

```
  0: 0x03A6 [0x1E] EventEntity looks at LocalPlayer and starts talking
  1: 0x03AB [0x00] END_REQSTACK()
```

### Event 65535.27

#### Metadata

| Field        | Value   |
|--------------|---------|
| Entrypoint   | 0x03AC  |
| Data Size    | 6 bytes |
| Instructions | 2       |

```
      00 01 02 03 04 05 06 07  08 09 0A 0B 0C 0D 0E 0F
      -- -- -- -- -- -- -- --  -- -- -- -- -- -- -- --
03A0:                                      1E 03 70 0E              ..p.
03B0: 01 00                                             ..              
```

#### Opcodes

```
  0: 0x03AC [0x1E] EventEntity looks at Pieuje (ID: 17723395/0x010E7003) and starts talking
  1: 0x03B1 [0x00] END_REQSTACK()
```

### Event 65535.28

#### Metadata

| Field        | Value   |
|--------------|---------|
| Entrypoint   | 0x03B2  |
| Data Size    | 9 bytes |
| Instructions | 3       |

```
      00 01 02 03 04 05 06 07  08 09 0A 0B 0C 0D 0E 0F
      -- -- -- -- -- -- -- --  -- -- -- -- -- -- -- --
03B0:       1C 3B 80 1E 01 70  0E 01 00                   .;...p...     
```

#### Opcodes

```
  0: 0x03B2 [0x1C] WAIT(60* ticks)
  1: 0x03B5 [0x1E] EventEntity looks at Nonterene (ID: 17723393/0x010E7001) and starts talking
  2: 0x03BA [0x00] END_REQSTACK()
```

### Event 65535.29

#### Metadata

| Field        | Value   |
|--------------|---------|
| Entrypoint   | 0x03BB  |
| Data Size    | 9 bytes |
| Instructions | 3       |

```
      00 01 02 03 04 05 06 07  08 09 0A 0B 0C 0D 0E 0F
      -- -- -- -- -- -- -- --  -- -- -- -- -- -- -- --
03B0:                                   1C 3B 80 1E F0             .;...
03C0: FF FF 7F 00                                       ....            
```

#### Opcodes

```
  0: 0x03BB [0x1C] WAIT(60* ticks)
  1: 0x03BE [0x1E] EventEntity looks at LocalPlayer and starts talking
  2: 0x03C3 [0x00] END_REQSTACK()
```

### Event 65535.30

#### Metadata

| Field        | Value   |
|--------------|---------|
| Entrypoint   | 0x03C4  |
| Data Size    | 9 bytes |
| Instructions | 3       |

```
      00 01 02 03 04 05 06 07  08 09 0A 0B 0C 0D 0E 0F
      -- -- -- -- -- -- -- --  -- -- -- -- -- -- -- --
03C0:             1C 3B 80 1E  03 70 0E 01 00               .;...p...   
```

#### Opcodes

```
  0: 0x03C4 [0x1C] WAIT(60* ticks)
  1: 0x03C7 [0x1E] EventEntity looks at Pieuje (ID: 17723395/0x010E7003) and starts talking
  2: 0x03CC [0x00] END_REQSTACK()
```

### Event 65535.31

#### Metadata

| Field        | Value    |
|--------------|----------|
| Entrypoint   | 0x03CD   |
| Data Size    | 13 bytes |
| Instructions | 3        |

```
      00 01 02 03 04 05 06 07  08 09 0A 0B 0C 0D 0E 0F
      -- -- -- -- -- -- -- --  -- -- -- -- -- -- -- --
03C0:                                         36 3C 80               6<.
03D0: 3D 80 02 80 1E 03 70 0E  01 00                    =.....p...      
```

#### Opcodes

```
  0: 0x03CD [0x36] SET_ENTITY_EVENT_POSITION(pos_x=-3.000*, pos_z=-12.182*, pos_y=0.000*)
  1: 0x03D4 [0x1E] EventEntity looks at Pieuje (ID: 17723395/0x010E7003) and starts talking
  2: 0x03D9 [0x00] END_REQSTACK()
```

### Event 65535.32

#### Metadata

| Field        | Value    |
|--------------|----------|
| Entrypoint   | 0x03DA   |
| Data Size    | 42 bytes |
| Instructions | 10       |

```
      00 01 02 03 04 05 06 07  08 09 0A 0B 0C 0D 0E 0F
      -- -- -- -- -- -- -- --  -- -- -- -- -- -- -- --
03D0:                                32 08 80 1F 00 24            2....$
03E0: 80 3E 80 02 80 1F 01 1F  00 3F 80 40 80 02 80 1F  .>.......?.@....
03F0: 01 1F 00 41 80 42 80 02  80 1F 01 2F 01 02 70 0E  ...A.B...../..p.
0400: 01 22 01 00                                       ."..            
```

#### Opcodes

```
  0: 0x03DA [0x32] ExtData[1]->MainSpeed = 13* * 0.1
  1: 0x03DD [0x1F] MOVE_ENTITY: EventEntity moves to X=-2.000*, Z=-10.112*, Y=0.000*
  2: 0x03E5 [0x1F] MOVE_ENTITY: Update entity position (mode=1)
  3: 0x03E7 [0x1F] MOVE_ENTITY: EventEntity moves to X=-0.261*, Z=12.505*, Y=0.000*
  4: 0x03EF [0x1F] MOVE_ENTITY: Update entity position (mode=1)
  5: 0x03F1 [0x1F] MOVE_ENTITY: EventEntity moves to X=11.872*, Z=19.705*, Y=0.000*
  6: 0x03F9 [0x1F] MOVE_ENTITY: Update entity position (mode=1)
  7: 0x03FB [0x2F] Trion (ID: 17723394/0x010E7002)->Render.Flags0 |= 0x80000 // Bit 19
  8: 0x0401 [0x22] ENTITY_HIDE_FLAG(enabled=0x01)
  9: 0x0403 [0x00] END_REQSTACK()
```

### Event 49

#### Metadata

| Field        | Value    |
|--------------|----------|
| Entrypoint   | 0x0404   |
| Data Size    | 13 bytes |
| Instructions | 3        |

```
      00 01 02 03 04 05 06 07  08 09 0A 0B 0C 0D 0E 0F
      -- -- -- -- -- -- -- --  -- -- -- -- -- -- -- --
0400:             32 08 80 37  43 80 44 80 2A 80 45 80      2..7C.D.*.E.
0410: 00                                                .               
```

#### Opcodes

```
  0: 0x0404 [0x32] ExtData[1]->MainSpeed = 13* * 0.1
  1: 0x0407 [0x37] UPDATE_EVENT_POSITION_AND_DIR: x=95.448*, z=86.371*, y=1.749*, direction=313.1°*
  2: 0x0410 [0x00] END_REQSTACK()
```

### Event 65535.33

#### Metadata

| Field        | Value    |
|--------------|----------|
| Entrypoint   | 0x0411   |
| Data Size    | 11 bytes |
| Instructions | 3        |

```
      00 01 02 03 04 05 06 07  08 09 0A 0B 0C 0D 0E 0F
      -- -- -- -- -- -- -- --  -- -- -- -- -- -- -- --
0410:    1F 00 46 80 47 80 2A  80 1F 01 00               ..F.G.*....    
```

#### Opcodes

```
  0: 0x0411 [0x1F] MOVE_ENTITY: EventEntity moves to X=98.748*, Z=90.096*, Y=1.749*
  1: 0x0419 [0x1F] MOVE_ENTITY: Update entity position (mode=1)
  2: 0x041B [0x00] END_REQSTACK()
```

### Event 65535.34

#### Metadata

| Field        | Value    |
|--------------|----------|
| Entrypoint   | 0x041C   |
| Data Size    | 11 bytes |
| Instructions | 3        |

```
      00 01 02 03 04 05 06 07  08 09 0A 0B 0C 0D 0E 0F
      -- -- -- -- -- -- -- --  -- -- -- -- -- -- -- --
0410:                                      1F 00 48 80              ..H.
0420: 49 80 2A 80 1F 01 00                              I.*....         
```

#### Opcodes

```
  0: 0x041C [0x1F] MOVE_ENTITY: EventEntity moves to X=99.354*, Z=90.804*, Y=1.749*
  1: 0x0424 [0x1F] MOVE_ENTITY: Update entity position (mode=1)
  2: 0x0426 [0x00] END_REQSTACK()
```

### Event 65535.35

#### Metadata

| Field        | Value    |
|--------------|----------|
| Entrypoint   | 0x0427   |
| Data Size    | 17 bytes |
| Instructions | 4        |

```
      00 01 02 03 04 05 06 07  08 09 0A 0B 0C 0D 0E 0F
      -- -- -- -- -- -- -- --  -- -- -- -- -- -- -- --
0420:                      39  4A 80 79 00 02 70 0E 01         9J.y..p..
0430: B4 70 0E 01 1C 3B 80 00                           .p...;..        
```

#### Opcodes

```
  0: 0x0427 [0x39] SET_ENTITY_DIRECTION(direction=1.5°*)
  1: 0x042A [0x79] Trion (ID: 17723394/0x010E7002) looks at Ferdechiond (ID: 17723572/0x010E70B4) (Basic look)
  2: 0x0434 [0x1C] WAIT(60* ticks)
  3: 0x0437 [0x00] END_REQSTACK()
```

### Event 65535.36

#### Metadata

| Field        | Value    |
|--------------|----------|
| Entrypoint   | 0x0438   |
| Data Size    | 47 bytes |
| Instructions | 8        |

```
      00 01 02 03 04 05 06 07  08 09 0A 0B 0C 0D 0E 0F
      -- -- -- -- -- -- -- --  -- -- -- -- -- -- -- --
0430:                          79 00 F8 FF FF 7F B0 70          y......p
0440: 0E 01 32 32 80 3B B1 70  0E 01 00 00 01 00 02 00  ..22.;.p........
0450: 3A B1 70 0E 01 03 00 31  00 00 00 01 00 02 00 04  :.p....1........
0460: 80 31 01 32 08 80 00                              .1.2...         
```

#### Opcodes

```
  0: 0x0438 [0x79] EventEntity looks at Unnamed NPC (ID: 17723568/0x010E70B0) (Basic look)
  1: 0x0442 [0x32] ExtData[1]->MainSpeed = 40* * 0.1
  2: 0x0445 [0x3B] GET_ENTITY_POSITION(entity=Curilla (ID: 17723569/0x010E70B1), x_destination=ExtData[1]->WorkLocal[0], y_destination=ExtData[1]->WorkLocal[1], z_destination=ExtData[1]->WorkLocal[2])
  3: 0x0450 [0x3A] CONVERT_YAW_TO_BYTE(entity=Curilla (ID: 17723569/0x010E70B1), result_destination=ExtData[1]->WorkLocal[3])
  4: 0x0457 [0x31] UPDATE_ENTITY_POSITION: Set EventEntity goal position to X=ExtData[1]->WorkLocal[0], Z=ExtData[1]->WorkLocal[1], Y=ExtData[1]->WorkLocal[2], Time=10*
  5: 0x0461 [0x31] UPDATE_ENTITY_POSITION: Move EventEntity towards goal position
  6: 0x0463 [0x32] ExtData[1]->MainSpeed = 13* * 0.1
  7: 0x0466 [0x00] END_REQSTACK()
```

### Event 65535.37

#### Metadata

| Field        | Value    |
|--------------|----------|
| Entrypoint   | 0x0467   |
| Data Size    | 17 bytes |
| Instructions | 5        |

```
      00 01 02 03 04 05 06 07  08 09 0A 0B 0C 0D 0E 0F
      -- -- -- -- -- -- -- --  -- -- -- -- -- -- -- --
0460:                      1F  00 4B 80 4C 80 2A 80 1F         ..K.L.*..
0470: 01 6F 1E AF 70 0E 01 00                           .o..p...        
```

#### Opcodes

```
  0: 0x0467 [0x1F] MOVE_ENTITY: EventEntity moves to X=101.187*, Z=92.194*, Y=1.749*
  1: 0x046F [0x1F] MOVE_ENTITY: Update entity position (mode=1)
  2: 0x0471 [0x6F] WAIT_FRAME_DELAY: Yield until WaitTime reaches zero
  3: 0x0472 [0x1E] EventEntity looks at Rainemard (ID: 17723567/0x010E70AF) and starts talking
  4: 0x0477 [0x00] END_REQSTACK()
```

### Event 36

#### Metadata

| Field        | Value    |
|--------------|----------|
| Entrypoint   | 0x0478   |
| Data Size    | 16 bytes |
| Instructions | 3        |

```
      00 01 02 03 04 05 06 07  08 09 0A 0B 0C 0D 0E 0F
      -- -- -- -- -- -- -- --  -- -- -- -- -- -- -- --
0470:                          94 01 F8 FF FF 7F 37 4D          ......7M
0480: 80 4E 80 4F 80 50 80 00                           .N.O.P..        
```

#### Opcodes

```
  0: 0x0478 [0x94] EventEntity->Render.Flags3 ^= 0x01
  1: 0x047E [0x37] UPDATE_EVENT_POSITION_AND_DIR: x=29.680*, z=68.305*, y=1.991*, direction=359.7°*
  2: 0x0487 [0x00] END_REQSTACK()
```

### Event 65535.38

#### Metadata

| Field        | Value    |
|--------------|----------|
| Entrypoint   | 0x0488   |
| Data Size    | 14 bytes |
| Instructions | 4        |

```
      00 01 02 03 04 05 06 07  08 09 0A 0B 0C 0D 0E 0F
      -- -- -- -- -- -- -- --  -- -- -- -- -- -- -- --
0480:                          32 51 80 1F 00 52 80 53          2Q...R.S
0490: 80 4F 80 1F 01 00                                 .O....          
```

#### Opcodes

```
  0: 0x0488 [0x32] ExtData[1]->MainSpeed = 8* * 0.1
  1: 0x048B [0x1F] MOVE_ENTITY: EventEntity moves to X=29.752*, Z=67.053*, Y=1.991*
  2: 0x0493 [0x1F] MOVE_ENTITY: Update entity position (mode=1)
  3: 0x0495 [0x00] END_REQSTACK()
```

### Event 65535.39

#### Metadata

| Field        | Value    |
|--------------|----------|
| Entrypoint   | 0x0496   |
| Data Size    | 14 bytes |
| Instructions | 4        |

```
      00 01 02 03 04 05 06 07  08 09 0A 0B 0C 0D 0E 0F
      -- -- -- -- -- -- -- --  -- -- -- -- -- -- -- --
0490:                   32 08  80 1F 00 54 80 55 80 56        2....T.U.V
04A0: 80 1F 01 00                                       ....            
```

#### Opcodes

```
  0: 0x0496 [0x32] ExtData[1]->MainSpeed = 13* * 0.1
  1: 0x0499 [0x1F] MOVE_ENTITY: EventEntity moves to X=26.236*, Z=64.351*, Y=1.995*
  2: 0x04A1 [0x1F] MOVE_ENTITY: Update entity position (mode=1)
  3: 0x04A3 [0x00] END_REQSTACK()
```

### Event 65535.40

#### Metadata

| Field        | Value    |
|--------------|----------|
| Entrypoint   | 0x04A4   |
| Data Size    | 19 bytes |
| Instructions | 3        |

```
      00 01 02 03 04 05 06 07  08 09 0A 0B 0C 0D 0E 0F
      -- -- -- -- -- -- -- --  -- -- -- -- -- -- -- --
04A0:             5B 34 80 02  70 0E 01 02 70 0E 01 74      [4..p...p..t
04B0: 6C 6B 30 1C 18 80 00                              lk0....         
```

#### Opcodes

```
  0: 0x04A4 [0x5B] LOAD_EXT_SCHEDULER: Load scheduler "tlk0" with entities [Trion (ID: 17723394/0x010E7002), Trion (ID: 17723394/0x010E7002)], work=115*
  1: 0x04B3 [0x1C] WAIT(30* ticks)
  2: 0x04B6 [0x00] END_REQSTACK()
```

### Event 65535.41

#### Metadata

| Field        | Value    |
|--------------|----------|
| Entrypoint   | 0x04B7   |
| Data Size    | 29 bytes |
| Instructions | 3        |

```
      00 01 02 03 04 05 06 07  08 09 0A 0B 0C 0D 0E 0F
      -- -- -- -- -- -- -- --  -- -- -- -- -- -- -- --
04B0:                      5B  34 80 02 70 0E 01 02 70         [4..p...p
04C0: 0E 01 74 6C 6B 31 53 02  70 0E 01 02 70 0E 01 74  ..tlk1S.p...p..t
04D0: 6C 6B 31 00                                       lk1.            
```

#### Opcodes

```
  0: 0x04B7 [0x5B] LOAD_EXT_SCHEDULER: Load scheduler "tlk1" with entities [Trion (ID: 17723394/0x010E7002), Trion (ID: 17723394/0x010E7002)], work=115*
  1: 0x04C6 [0x53] WAIT_SCHEDULER_TASK: Wait for scheduler "tlk1" with entities [Trion (ID: 17723394/0x010E7002), Trion (ID: 17723394/0x010E7002)]
  2: 0x04D3 [0x00] END_REQSTACK()
```

### Event 65535.42

#### Metadata

| Field        | Value    |
|--------------|----------|
| Entrypoint   | 0x04D4   |
| Data Size    | 19 bytes |
| Instructions | 3        |

```
      00 01 02 03 04 05 06 07  08 09 0A 0B 0C 0D 0E 0F
      -- -- -- -- -- -- -- --  -- -- -- -- -- -- -- --
04D0:             5B 34 80 02  70 0E 01 02 70 0E 01 74      [4..p...p..t
04E0: 6C 6B 30 1C 18 80 00                              lk0....         
```

#### Opcodes

```
  0: 0x04D4 [0x5B] LOAD_EXT_SCHEDULER: Load scheduler "tlk0" with entities [Trion (ID: 17723394/0x010E7002), Trion (ID: 17723394/0x010E7002)], work=115*
  1: 0x04E3 [0x1C] WAIT(30* ticks)
  2: 0x04E6 [0x00] END_REQSTACK()
```

### Event 65535.43

#### Metadata

| Field        | Value    |
|--------------|----------|
| Entrypoint   | 0x04E7   |
| Data Size    | 29 bytes |
| Instructions | 3        |

```
      00 01 02 03 04 05 06 07  08 09 0A 0B 0C 0D 0E 0F
      -- -- -- -- -- -- -- --  -- -- -- -- -- -- -- --
04E0:                      5B  34 80 02 70 0E 01 02 70         [4..p...p
04F0: 0E 01 74 6C 6B 31 53 02  70 0E 01 02 70 0E 01 74  ..tlk1S.p...p..t
0500: 6C 6B 31 00                                       lk1.            
```

#### Opcodes

```
  0: 0x04E7 [0x5B] LOAD_EXT_SCHEDULER: Load scheduler "tlk1" with entities [Trion (ID: 17723394/0x010E7002), Trion (ID: 17723394/0x010E7002)], work=115*
  1: 0x04F6 [0x53] WAIT_SCHEDULER_TASK: Wait for scheduler "tlk1" with entities [Trion (ID: 17723394/0x010E7002), Trion (ID: 17723394/0x010E7002)]
  2: 0x0503 [0x00] END_REQSTACK()
```

### Event 65535.44

#### Metadata

| Field        | Value    |
|--------------|----------|
| Entrypoint   | 0x0504   |
| Data Size    | 19 bytes |
| Instructions | 3        |

```
      00 01 02 03 04 05 06 07  08 09 0A 0B 0C 0D 0E 0F
      -- -- -- -- -- -- -- --  -- -- -- -- -- -- -- --
0500:             5B 34 80 02  70 0E 01 02 70 0E 01 61      [4..p...p..a
0510: 72 61 30 1C 18 80 00                              ra0....         
```

#### Opcodes

```
  0: 0x0504 [0x5B] LOAD_EXT_SCHEDULER: Load scheduler "ara0" with entities [Trion (ID: 17723394/0x010E7002), Trion (ID: 17723394/0x010E7002)], work=115*
  1: 0x0513 [0x1C] WAIT(30* ticks)
  2: 0x0516 [0x00] END_REQSTACK()
```

### Event 65535.45

#### Metadata

| Field        | Value    |
|--------------|----------|
| Entrypoint   | 0x0517   |
| Data Size    | 29 bytes |
| Instructions | 3        |

```
      00 01 02 03 04 05 06 07  08 09 0A 0B 0C 0D 0E 0F
      -- -- -- -- -- -- -- --  -- -- -- -- -- -- -- --
0510:                      5B  34 80 02 70 0E 01 02 70         [4..p...p
0520: 0E 01 61 72 61 31 53 02  70 0E 01 02 70 0E 01 61  ..ara1S.p...p..a
0530: 72 61 31 00                                       ra1.            
```

#### Opcodes

```
  0: 0x0517 [0x5B] LOAD_EXT_SCHEDULER: Load scheduler "ara1" with entities [Trion (ID: 17723394/0x010E7002), Trion (ID: 17723394/0x010E7002)], work=115*
  1: 0x0526 [0x53] WAIT_SCHEDULER_TASK: Wait for scheduler "ara1" with entities [Trion (ID: 17723394/0x010E7002), Trion (ID: 17723394/0x010E7002)]
  2: 0x0533 [0x00] END_REQSTACK()
```

### Event 65535.46

#### Metadata

| Field        | Value    |
|--------------|----------|
| Entrypoint   | 0x0534   |
| Data Size    | 29 bytes |
| Instructions | 3        |

```
      00 01 02 03 04 05 06 07  08 09 0A 0B 0C 0D 0E 0F
      -- -- -- -- -- -- -- --  -- -- -- -- -- -- -- --
0530:             5B 57 80 02  70 0E 01 02 70 0E 01 61      [W..p...p..a
0540: 63 74 30 53 02 70 0E 01  02 70 0E 01 61 63 74 30  ct0S.p...p..act0
0550: 00                                                .               
```

#### Opcodes

```
  0: 0x0534 [0x5B] LOAD_EXT_SCHEDULER: Load scheduler "act0" with entities [Trion (ID: 17723394/0x010E7002), Trion (ID: 17723394/0x010E7002)], work=116*
  1: 0x0543 [0x53] WAIT_SCHEDULER_TASK: Wait for scheduler "act0" with entities [Trion (ID: 17723394/0x010E7002), Trion (ID: 17723394/0x010E7002)]
  2: 0x0550 [0x00] END_REQSTACK()
```

### Event 866

#### Metadata

| Field        | Value   |
|--------------|---------|
| Entrypoint   | 0x0551  |
| Data Size    | 1 bytes |
| Instructions | 1       |

```
      00 01 02 03 04 05 06 07  08 09 0A 0B 0C 0D 0E 0F
      -- -- -- -- -- -- -- --  -- -- -- -- -- -- -- --
0550:    00                                              .              
```

#### Opcodes

```
  0: 0x0551 [0x00] END_REQSTACK()
```
