# 17723529 - Mulaujeant

## Common Data

| Field            | Value                         |
|------------------|-------------------------------|
| Zone             | Northern San d'Oria (ID: 231) |
| Block Size       | 820 bytes                     |
| Total Events     | 31                            |
| References Count | 20                            |

## List of Events

| Event ID                   | Entrypoint   |   Size |   Instructions |
|----------------------------|--------------|--------|----------------|
| [65535](#event-65535)      | 0x0000       |      1 |              1 |
| [65535.1](#event-655351)   | 0x0001       |     16 |              2 |
| [65535.2](#event-655352)   | 0x0011       |     22 |              4 |
| [65535.3](#event-655353)   | 0x0027       |     16 |              2 |
| [65535.4](#event-655354)   | 0x0037       |     14 |              2 |
| [65535.5](#event-655355)   | 0x0045       |     16 |              2 |
| [65535.6](#event-655356)   | 0x0055       |     14 |              2 |
| [65535.7](#event-655357)   | 0x0063       |     16 |              2 |
| [65535.8](#event-655358)   | 0x0073       |     14 |              2 |
| [65535.9](#event-655359)   | 0x0081       |     16 |              2 |
| [65535.10](#event-6553510) | 0x0091       |     14 |              2 |
| [65535.11](#event-6553511) | 0x009F       |     16 |              2 |
| [65535.12](#event-6553512) | 0x00AF       |     14 |              2 |
| [65535.13](#event-6553513) | 0x00BD       |     16 |              2 |
| [65535.14](#event-6553514) | 0x00CD       |     14 |              2 |
| [65535.15](#event-6553515) | 0x00DB       |      9 |              3 |
| [697](#event-697)          | 0x00E4       |     29 |             10 |
| [698](#event-698)          | 0x0101       |    156 |             26 |
| [65535.16](#event-6553516) | 0x019D       |      5 |              3 |
| [65535.17](#event-6553517) | 0x01A2       |      5 |              3 |
| [65535.18](#event-6553518) | 0x01A7       |      5 |              3 |
| [65535.19](#event-6553519) | 0x01AC       |      5 |              3 |
| [65535.20](#event-6553520) | 0x01B1       |      5 |              3 |
| [65535.21](#event-6553521) | 0x01B6       |      5 |              3 |
| [699](#event-699)          | 0x01BB       |     22 |              9 |
| [700](#event-700)          | 0x01D1       |     81 |             16 |
| [65535.22](#event-6553522) | 0x0222       |      5 |              3 |
| [65535.23](#event-6553523) | 0x0227       |      5 |              3 |
| [65535.24](#event-6553524) | 0x022C       |      5 |              3 |
| [65535.25](#event-6553525) | 0x0231       |      5 |              3 |
| [701](#event-701)          | 0x0236       |     33 |             12 |

## DAT References (imed_data)

|   Index | Hex Value   |   Dec Value |
|---------|-------------|-------------|
|       0 | 0x0014      |          20 |
|       1 | 0x001E      |          30 |
|       2 | 0x0015      |          21 |
|       3 | 0x2F2B      |       12075 |
|       4 | 0x00C8      |         200 |
|       5 | 0x0000      |           0 |
|       6 | 0x0078      |         120 |
|       7 | 0x2F2C      |       12076 |
|       8 | 0x2F2D      |       12077 |
|       9 | 0x2F2E      |       12078 |
|      10 | 0x2F2F      |       12079 |
|      11 | 0x2F30      |       12080 |
|      12 | 0x2F31      |       12081 |
|      13 | 0x2F32      |       12082 |
|      14 | 0x2F33      |       12083 |
|      15 | 0x2F34      |       12084 |
|      16 | 0x2F35      |       12085 |
|      17 | 0x2F36      |       12086 |
|      18 | 0x2F37      |       12087 |
|      19 | 0x2F38      |       12088 |

## String References

- **12075**: If you seek the Blackmiths' Guild, you will find it right down those stairs. Take your time. You wouldn't want to fall, now, would you?
- **12076**: Hm? You want me to read this letter?
- **12077**: My, what a predicament he has got himself into.
- **12078**: I wondered why I had not seen much of my friend Rauteinot these days, but to think he was traveling around Kazham...
- **12079**: This $1 that he has also sent... Very interesting, it is. It is perfect for carving a statue of the Goddess.
- **12080**: With Rauteinot out in the wilderness risking his life for the cathedral, trying my hand at this statue is the least I could do.
- **12081**: Then let us waste not time and carve a statue worthy of the Goddess.
- **12082**: Patience! Patience! Even one such as I needs time to carve a statue worthy of Altana.
- **12083**: Patience! Patience! Patience is what guided me to carve such a beautiful statue.
- **12084**: However, I still cannot see how me making this sculpture can be of any assistance to my friend Rauteinot...
- **12085**: Here. I entrust this statue to you.
- **12086**: I know not whether you believe in the Goddess of the Dawn, but I trust you will handle her image carefully.
- **12087**: I know not whether you believe in the Goddess of the Dawn, but I trust you will handle her image carefully.
- **12088**: But how can carving some sculpture possibly help Rauteinot?

## Events

### Event 65535

#### Metadata

| Field        | Value   |
|--------------|---------|
| Entrypoint   | 0x0000  |
| Data Size    | 1 bytes |
| Instructions | 1       |

```
      00 01 02 03 04 05 06 07  08 09 0A 0B 0C 0D 0E 0F
      -- -- -- -- -- -- -- --  -- -- -- -- -- -- -- --
0000: 00                                                .               
```

#### Opcodes

```
  0: 0x0000 [0x00] END_REQSTACK()
```

### Event 65535.1

#### Metadata

| Field        | Value    |
|--------------|----------|
| Entrypoint   | 0x0001   |
| Data Size    | 16 bytes |
| Instructions | 2        |

```
      00 01 02 03 04 05 06 07  08 09 0A 0B 0C 0D 0E 0F
      -- -- -- -- -- -- -- --  -- -- -- -- -- -- -- --
0000:    66 00 80 F8 FF FF 7F  F8 FF FF 7F 74 6C 6B 30   f..........tlk0
0010: 00                                                .               
```

#### Opcodes

```
  0: 0x0001 [0x66] LOAD_EXT_SCHEDULER_MAIN: Load scheduler "tlk0" with entities [EventEntity, EventEntity], work=20*
  1: 0x0010 [0x00] END_REQSTACK()
```

### Event 65535.2

#### Metadata

| Field        | Value    |
|--------------|----------|
| Entrypoint   | 0x0011   |
| Data Size    | 22 bytes |
| Instructions | 4        |

```
      00 01 02 03 04 05 06 07  08 09 0A 0B 0C 0D 0E 0F
      -- -- -- -- -- -- -- --  -- -- -- -- -- -- -- --
0010:    53 F8 FF FF 7F F8 FF  FF 7F 74 6C 6B 30 5E 69   S........tlk0^i
0020: 64 6C 30 1C 01 80 00                              dl0....         
```

#### Opcodes

```
  0: 0x0011 [0x53] WAIT_SCHEDULER_TASK: Wait for scheduler "tlk0" with entities [EventEntity, EventEntity]
  1: 0x001E [0x5E] EventEntity goes idle (kills current action) (animation: "idl0")
  2: 0x0023 [0x1C] WAIT(30* ticks)
  3: 0x0026 [0x00] END_REQSTACK()
```

### Event 65535.3

#### Metadata

| Field        | Value    |
|--------------|----------|
| Entrypoint   | 0x0027   |
| Data Size    | 16 bytes |
| Instructions | 2        |

```
      00 01 02 03 04 05 06 07  08 09 0A 0B 0C 0D 0E 0F
      -- -- -- -- -- -- -- --  -- -- -- -- -- -- -- --
0020:                      66  00 80 F8 FF FF 7F F8 FF         f........
0030: FF 7F 74 68 6B 31 00                              ..thk1.         
```

#### Opcodes

```
  0: 0x0027 [0x66] LOAD_EXT_SCHEDULER_MAIN: Load scheduler "thk1" with entities [EventEntity, EventEntity], work=20*
  1: 0x0036 [0x00] END_REQSTACK()
```

### Event 65535.4

#### Metadata

| Field        | Value    |
|--------------|----------|
| Entrypoint   | 0x0037   |
| Data Size    | 14 bytes |
| Instructions | 2        |

```
      00 01 02 03 04 05 06 07  08 09 0A 0B 0C 0D 0E 0F
      -- -- -- -- -- -- -- --  -- -- -- -- -- -- -- --
0030:                      53  F8 FF FF 7F F8 FF FF 7F         S........
0040: 74 68 6B 31 00                                    thk1.           
```

#### Opcodes

```
  0: 0x0037 [0x53] WAIT_SCHEDULER_TASK: Wait for scheduler "thk1" with entities [EventEntity, EventEntity]
  1: 0x0044 [0x00] END_REQSTACK()
```

### Event 65535.5

#### Metadata

| Field        | Value    |
|--------------|----------|
| Entrypoint   | 0x0045   |
| Data Size    | 16 bytes |
| Instructions | 2        |

```
      00 01 02 03 04 05 06 07  08 09 0A 0B 0C 0D 0E 0F
      -- -- -- -- -- -- -- --  -- -- -- -- -- -- -- --
0040:                66 00 80  F8 FF FF 7F F8 FF FF 7F       f..........
0050: 74 68 6B 32 00                                    thk2.           
```

#### Opcodes

```
  0: 0x0045 [0x66] LOAD_EXT_SCHEDULER_MAIN: Load scheduler "thk2" with entities [EventEntity, EventEntity], work=20*
  1: 0x0054 [0x00] END_REQSTACK()
```

### Event 65535.6

#### Metadata

| Field        | Value    |
|--------------|----------|
| Entrypoint   | 0x0055   |
| Data Size    | 14 bytes |
| Instructions | 2        |

```
      00 01 02 03 04 05 06 07  08 09 0A 0B 0C 0D 0E 0F
      -- -- -- -- -- -- -- --  -- -- -- -- -- -- -- --
0050:                53 F8 FF  FF 7F F8 FF FF 7F 74 68       S........th
0060: 6B 32 00                                          k2.             
```

#### Opcodes

```
  0: 0x0055 [0x53] WAIT_SCHEDULER_TASK: Wait for scheduler "thk2" with entities [EventEntity, EventEntity]
  1: 0x0062 [0x00] END_REQSTACK()
```

### Event 65535.7

#### Metadata

| Field        | Value    |
|--------------|----------|
| Entrypoint   | 0x0063   |
| Data Size    | 16 bytes |
| Instructions | 2        |

```
      00 01 02 03 04 05 06 07  08 09 0A 0B 0C 0D 0E 0F
      -- -- -- -- -- -- -- --  -- -- -- -- -- -- -- --
0060:          66 00 80 F8 FF  FF 7F F8 FF FF 7F 70 61     f..........pa
0070: 73 30 00                                          s0.             
```

#### Opcodes

```
  0: 0x0063 [0x66] LOAD_EXT_SCHEDULER_MAIN: Load scheduler "pas0" with entities [EventEntity, EventEntity], work=20*
  1: 0x0072 [0x00] END_REQSTACK()
```

### Event 65535.8

#### Metadata

| Field        | Value    |
|--------------|----------|
| Entrypoint   | 0x0073   |
| Data Size    | 14 bytes |
| Instructions | 2        |

```
      00 01 02 03 04 05 06 07  08 09 0A 0B 0C 0D 0E 0F
      -- -- -- -- -- -- -- --  -- -- -- -- -- -- -- --
0070:          53 F8 FF FF 7F  F8 FF FF 7F 70 61 73 30     S........pas0
0080: 00                                                .               
```

#### Opcodes

```
  0: 0x0073 [0x53] WAIT_SCHEDULER_TASK: Wait for scheduler "pas0" with entities [EventEntity, EventEntity]
  1: 0x0080 [0x00] END_REQSTACK()
```

### Event 65535.9

#### Metadata

| Field        | Value    |
|--------------|----------|
| Entrypoint   | 0x0081   |
| Data Size    | 16 bytes |
| Instructions | 2        |

```
      00 01 02 03 04 05 06 07  08 09 0A 0B 0C 0D 0E 0F
      -- -- -- -- -- -- -- --  -- -- -- -- -- -- -- --
0080:    66 00 80 F8 FF FF 7F  F8 FF FF 7F 70 6F 69 31   f..........poi1
0090: 00                                                .               
```

#### Opcodes

```
  0: 0x0081 [0x66] LOAD_EXT_SCHEDULER_MAIN: Load scheduler "poi1" with entities [EventEntity, EventEntity], work=20*
  1: 0x0090 [0x00] END_REQSTACK()
```

### Event 65535.10

#### Metadata

| Field        | Value    |
|--------------|----------|
| Entrypoint   | 0x0091   |
| Data Size    | 14 bytes |
| Instructions | 2        |

```
      00 01 02 03 04 05 06 07  08 09 0A 0B 0C 0D 0E 0F
      -- -- -- -- -- -- -- --  -- -- -- -- -- -- -- --
0090:    53 F8 FF FF 7F F8 FF  FF 7F 70 6F 69 31 00      S........poi1. 
```

#### Opcodes

```
  0: 0x0091 [0x53] WAIT_SCHEDULER_TASK: Wait for scheduler "poi1" with entities [EventEntity, EventEntity]
  1: 0x009E [0x00] END_REQSTACK()
```

### Event 65535.11

#### Metadata

| Field        | Value    |
|--------------|----------|
| Entrypoint   | 0x009F   |
| Data Size    | 16 bytes |
| Instructions | 2        |

```
      00 01 02 03 04 05 06 07  08 09 0A 0B 0C 0D 0E 0F
      -- -- -- -- -- -- -- --  -- -- -- -- -- -- -- --
0090:                                               66                 f
00A0: 00 80 F8 FF FF 7F F8 FF  FF 7F 70 6F 69 32 00     ..........poi2. 
```

#### Opcodes

```
  0: 0x009F [0x66] LOAD_EXT_SCHEDULER_MAIN: Load scheduler "poi2" with entities [EventEntity, EventEntity], work=20*
  1: 0x00AE [0x00] END_REQSTACK()
```

### Event 65535.12

#### Metadata

| Field        | Value    |
|--------------|----------|
| Entrypoint   | 0x00AF   |
| Data Size    | 14 bytes |
| Instructions | 2        |

```
      00 01 02 03 04 05 06 07  08 09 0A 0B 0C 0D 0E 0F
      -- -- -- -- -- -- -- --  -- -- -- -- -- -- -- --
00A0:                                               53                 S
00B0: F8 FF FF 7F F8 FF FF 7F  70 6F 69 32 00           ........poi2.   
```

#### Opcodes

```
  0: 0x00AF [0x53] WAIT_SCHEDULER_TASK: Wait for scheduler "poi2" with entities [EventEntity, EventEntity]
  1: 0x00BC [0x00] END_REQSTACK()
```

### Event 65535.13

#### Metadata

| Field        | Value    |
|--------------|----------|
| Entrypoint   | 0x00BD   |
| Data Size    | 16 bytes |
| Instructions | 2        |

```
      00 01 02 03 04 05 06 07  08 09 0A 0B 0C 0D 0E 0F
      -- -- -- -- -- -- -- --  -- -- -- -- -- -- -- --
00B0:                                         66 02 80               f..
00C0: F8 FF FF 7F F8 FF FF 7F  64 69 73 30 00           ........dis0.   
```

#### Opcodes

```
  0: 0x00BD [0x66] LOAD_EXT_SCHEDULER_MAIN: Load scheduler "dis0" with entities [EventEntity, EventEntity], work=21*
  1: 0x00CC [0x00] END_REQSTACK()
```

### Event 65535.14

#### Metadata

| Field        | Value    |
|--------------|----------|
| Entrypoint   | 0x00CD   |
| Data Size    | 14 bytes |
| Instructions | 2        |

```
      00 01 02 03 04 05 06 07  08 09 0A 0B 0C 0D 0E 0F
      -- -- -- -- -- -- -- --  -- -- -- -- -- -- -- --
00C0:                                         53 F8 FF               S..
00D0: FF 7F F8 FF FF 7F 64 69  73 30 00                 ......dis0.     
```

#### Opcodes

```
  0: 0x00CD [0x53] WAIT_SCHEDULER_TASK: Wait for scheduler "dis0" with entities [EventEntity, EventEntity]
  1: 0x00DA [0x00] END_REQSTACK()
```

### Event 65535.15

#### Metadata

| Field        | Value   |
|--------------|---------|
| Entrypoint   | 0x00DB  |
| Data Size    | 9 bytes |
| Instructions | 3       |

```
      00 01 02 03 04 05 06 07  08 09 0A 0B 0C 0D 0E 0F
      -- -- -- -- -- -- -- --  -- -- -- -- -- -- -- --
00D0:                                   5E 69 64 6C 30             ^idl0
00E0: 1C 01 80 00                                       ....            
```

#### Opcodes

```
  0: 0x00DB [0x5E] EventEntity goes idle (kills current action) (animation: "idl0")
  1: 0x00E0 [0x1C] WAIT(30* ticks)
  2: 0x00E3 [0x00] END_REQSTACK()
```

### Event 697

#### Metadata

| Field        | Value    |
|--------------|----------|
| Entrypoint   | 0x00E4   |
| Data Size    | 29 bytes |
| Instructions | 10       |

```
      00 01 02 03 04 05 06 07  08 09 0A 0B 0C 0D 0E 0F
      -- -- -- -- -- -- -- --  -- -- -- -- -- -- -- --
00E0:             1E F0 FF FF  7F 6F 70 29 08 89 70 0E      .....op)..p.
00F0: 01 01 1D 03 80 23 29 08  89 70 0E 01 02 20 00 21  .....#)..p... .!
0100: 00                                                .               
```

#### Opcodes

```
  0: 0x00E4 [0x1E] EventEntity looks at LocalPlayer and starts talking
  1: 0x00E9 [0x6F] WAIT_FRAME_DELAY: Yield until WaitTime reaches zero
  2: 0x00EA [0x70] WAIT_ENTITY_RENDER_FLAG: Wait while EventEntity->Render.Flags3 bit 2 is set (cancel turn if not)
  3: 0x00EB [0x29] REQ_SET_WAIT(priority=0x08, entity_id=Mulaujeant (ID: 17723529/0x010E7089), tag_num=0x01)
  4: 0x00F2 [0x1D] PRINT_EVENT_MESSAGE(message_id=12075*)
    → "If you seek the Blackmiths' Guild, you will find it right down those stairs. Take your time. You wouldn't want to fall, now, would you?"
  5: 0x00F5 [0x23] WAIT_FOR_DIALOG_INTERACTION
  6: 0x00F6 [0x29] REQ_SET_WAIT(priority=0x08, entity_id=Mulaujeant (ID: 17723529/0x010E7089), tag_num=0x02)
  7: 0x00FD [0x20] SET_CLI_EVENT_UC_FLAG: Unlock player control
  8: 0x00FF [0x21] END_EVENT
  9: 0x0100 [0x00] END_REQSTACK()
```

### Event 698

#### Metadata

| Field        | Value     |
|--------------|-----------|
| Entrypoint   | 0x0101    |
| Data Size    | 156 bytes |
| Instructions | 26        |

```
      00 01 02 03 04 05 06 07  08 09 0A 0B 0C 0D 0E 0F
      -- -- -- -- -- -- -- --  -- -- -- -- -- -- -- --
0100:    20 01 42 1E F0 FF FF  7F 6F 70 29 08 89 70 0E    .B.....op)..p.
0110: 01 01 29 0B 89 70 0E 01  12 45 04 80 F8 FF FF 7F  ..)..p...E......
0120: F8 FF FF 7F 66 64 6F 31  05 80 1C 06 80 29 08 89  ....fdo1.....)..
0130: 70 0E 01 03 29 08 89 70  0E 01 04 45 04 80 F8 FF  p...)..p...E....
0140: FF 7F F8 FF FF 7F 66 64  69 31 05 80 29 0B 89 70  ......fdi1..)..p
0150: 0E 01 13 29 08 89 70 0E  01 05 29 0B 89 70 0E 01  ...)..p...)..p..
0160: 14 29 08 89 70 0E 01 06  29 08 89 70 0E 01 01 29  .)..p...)..p...)
0170: 0B 89 70 0E 01 15 29 08  89 70 0E 01 02 29 08 89  ..p...)..p...)..
0180: 70 0E 01 01 29 0B 89 70  0E 01 16 29 0B 89 70 0E  p...)..p...)..p.
0190: 01 17 29 08 89 70 0E 01  02 20 00 21 00           ..)..p... .!.   
```

#### Opcodes

```
  0: 0x0101 [0x20] SET_CLI_EVENT_UC_FLAG: Lock player control
  1: 0x0103 [0x42] SET_CLI_EVENT_CANCEL_DATA()
  2: 0x0104 [0x1E] EventEntity looks at LocalPlayer and starts talking
  3: 0x0109 [0x6F] WAIT_FRAME_DELAY: Yield until WaitTime reaches zero
  4: 0x010A [0x70] WAIT_ENTITY_RENDER_FLAG: Wait while EventEntity->Render.Flags3 bit 2 is set (cancel turn if not)
  5: 0x010B [0x29] REQ_SET_WAIT(priority=0x08, entity_id=Mulaujeant (ID: 17723529/0x010E7089), tag_num=0x01)
  6: 0x0112 [0x29] REQ_SET_WAIT(priority=0x0B, entity_id=Mulaujeant (ID: 17723529/0x010E7089), tag_num=0x12)
  7: 0x0119 [0x45] LOAD_SCHEDULED_TASK: Load scheduler "fdo1" with entities [EventEntity, EventEntity], work=[200*, 0*]
  8: 0x012A [0x1C] WAIT(120* ticks)
  9: 0x012D [0x29] REQ_SET_WAIT(priority=0x08, entity_id=Mulaujeant (ID: 17723529/0x010E7089), tag_num=0x03)
 10: 0x0134 [0x29] REQ_SET_WAIT(priority=0x08, entity_id=Mulaujeant (ID: 17723529/0x010E7089), tag_num=0x04)
 11: 0x013B [0x45] LOAD_SCHEDULED_TASK: Load scheduler "fdi1" with entities [EventEntity, EventEntity], work=[200*, 0*]
 12: 0x014C [0x29] REQ_SET_WAIT(priority=0x0B, entity_id=Mulaujeant (ID: 17723529/0x010E7089), tag_num=0x13)
 13: 0x0153 [0x29] REQ_SET_WAIT(priority=0x08, entity_id=Mulaujeant (ID: 17723529/0x010E7089), tag_num=0x05)
 14: 0x015A [0x29] REQ_SET_WAIT(priority=0x0B, entity_id=Mulaujeant (ID: 17723529/0x010E7089), tag_num=0x14)
 15: 0x0161 [0x29] REQ_SET_WAIT(priority=0x08, entity_id=Mulaujeant (ID: 17723529/0x010E7089), tag_num=0x06)
 16: 0x0168 [0x29] REQ_SET_WAIT(priority=0x08, entity_id=Mulaujeant (ID: 17723529/0x010E7089), tag_num=0x01)
 17: 0x016F [0x29] REQ_SET_WAIT(priority=0x0B, entity_id=Mulaujeant (ID: 17723529/0x010E7089), tag_num=0x15)
 18: 0x0176 [0x29] REQ_SET_WAIT(priority=0x08, entity_id=Mulaujeant (ID: 17723529/0x010E7089), tag_num=0x02)
 19: 0x017D [0x29] REQ_SET_WAIT(priority=0x08, entity_id=Mulaujeant (ID: 17723529/0x010E7089), tag_num=0x01)
 20: 0x0184 [0x29] REQ_SET_WAIT(priority=0x0B, entity_id=Mulaujeant (ID: 17723529/0x010E7089), tag_num=0x16)
 21: 0x018B [0x29] REQ_SET_WAIT(priority=0x0B, entity_id=Mulaujeant (ID: 17723529/0x010E7089), tag_num=0x17)
 22: 0x0192 [0x29] REQ_SET_WAIT(priority=0x08, entity_id=Mulaujeant (ID: 17723529/0x010E7089), tag_num=0x02)
 23: 0x0199 [0x20] SET_CLI_EVENT_UC_FLAG: Unlock player control
 24: 0x019B [0x21] END_EVENT
 25: 0x019C [0x00] END_REQSTACK()
```

### Event 65535.16

#### Metadata

| Field        | Value   |
|--------------|---------|
| Entrypoint   | 0x019D  |
| Data Size    | 5 bytes |
| Instructions | 3       |

```
      00 01 02 03 04 05 06 07  08 09 0A 0B 0C 0D 0E 0F
      -- -- -- -- -- -- -- --  -- -- -- -- -- -- -- --
0190:                                         1D 07 80               ...
01A0: 23 00                                             #.              
```

#### Opcodes

```
  0: 0x019D [0x1D] PRINT_EVENT_MESSAGE(message_id=12076*)
    → "Hm? You want me to read this letter?"
  1: 0x01A0 [0x23] WAIT_FOR_DIALOG_INTERACTION
  2: 0x01A1 [0x00] END_REQSTACK()
```

### Event 65535.17

#### Metadata

| Field        | Value   |
|--------------|---------|
| Entrypoint   | 0x01A2  |
| Data Size    | 5 bytes |
| Instructions | 3       |

```
      00 01 02 03 04 05 06 07  08 09 0A 0B 0C 0D 0E 0F
      -- -- -- -- -- -- -- --  -- -- -- -- -- -- -- --
01A0:       1D 08 80 23 00                                ...#.         
```

#### Opcodes

```
  0: 0x01A2 [0x1D] PRINT_EVENT_MESSAGE(message_id=12077*)
    → "My, what a predicament he has got himself into."
  1: 0x01A5 [0x23] WAIT_FOR_DIALOG_INTERACTION
  2: 0x01A6 [0x00] END_REQSTACK()
```

### Event 65535.18

#### Metadata

| Field        | Value   |
|--------------|---------|
| Entrypoint   | 0x01A7  |
| Data Size    | 5 bytes |
| Instructions | 3       |

```
      00 01 02 03 04 05 06 07  08 09 0A 0B 0C 0D 0E 0F
      -- -- -- -- -- -- -- --  -- -- -- -- -- -- -- --
01A0:                      1D  09 80 23 00                     ...#.    
```

#### Opcodes

```
  0: 0x01A7 [0x1D] PRINT_EVENT_MESSAGE(message_id=12078*)
    → "I wondered why I had not seen much of my friend Rauteinot these days, but to think he was traveling around Kazham..."
  1: 0x01AA [0x23] WAIT_FOR_DIALOG_INTERACTION
  2: 0x01AB [0x00] END_REQSTACK()
```

### Event 65535.19

#### Metadata

| Field        | Value   |
|--------------|---------|
| Entrypoint   | 0x01AC  |
| Data Size    | 5 bytes |
| Instructions | 3       |

```
      00 01 02 03 04 05 06 07  08 09 0A 0B 0C 0D 0E 0F
      -- -- -- -- -- -- -- --  -- -- -- -- -- -- -- --
01A0:                                      1D 0A 80 23              ...#
01B0: 00                                                .               
```

#### Opcodes

```
  0: 0x01AC [0x1D] PRINT_EVENT_MESSAGE(message_id=12079*)
    → "This $1 that he has also sent... Very interesting, it is. It is perfect for carving a statue of the Goddess."
  1: 0x01AF [0x23] WAIT_FOR_DIALOG_INTERACTION
  2: 0x01B0 [0x00] END_REQSTACK()
```

### Event 65535.20

#### Metadata

| Field        | Value   |
|--------------|---------|
| Entrypoint   | 0x01B1  |
| Data Size    | 5 bytes |
| Instructions | 3       |

```
      00 01 02 03 04 05 06 07  08 09 0A 0B 0C 0D 0E 0F
      -- -- -- -- -- -- -- --  -- -- -- -- -- -- -- --
01B0:    1D 0B 80 23 00                                  ...#.          
```

#### Opcodes

```
  0: 0x01B1 [0x1D] PRINT_EVENT_MESSAGE(message_id=12080*)
    → "With Rauteinot out in the wilderness risking his life for the cathedral, trying my hand at this statue is the least I could do."
  1: 0x01B4 [0x23] WAIT_FOR_DIALOG_INTERACTION
  2: 0x01B5 [0x00] END_REQSTACK()
```

### Event 65535.21

#### Metadata

| Field        | Value   |
|--------------|---------|
| Entrypoint   | 0x01B6  |
| Data Size    | 5 bytes |
| Instructions | 3       |

```
      00 01 02 03 04 05 06 07  08 09 0A 0B 0C 0D 0E 0F
      -- -- -- -- -- -- -- --  -- -- -- -- -- -- -- --
01B0:                   1D 0C  80 23 00                       ...#.     
```

#### Opcodes

```
  0: 0x01B6 [0x1D] PRINT_EVENT_MESSAGE(message_id=12081*)
    → "Then let us waste not time and carve a statue worthy of the Goddess."
  1: 0x01B9 [0x23] WAIT_FOR_DIALOG_INTERACTION
  2: 0x01BA [0x00] END_REQSTACK()
```

### Event 699

#### Metadata

| Field        | Value    |
|--------------|----------|
| Entrypoint   | 0x01BB   |
| Data Size    | 22 bytes |
| Instructions | 9        |

```
      00 01 02 03 04 05 06 07  08 09 0A 0B 0C 0D 0E 0F
      -- -- -- -- -- -- -- --  -- -- -- -- -- -- -- --
01B0:                                   1E F0 FF FF 7F             .....
01C0: 6F 70 29 08 89 70 0E 01  01 1D 0D 80 23 20 00 21  op)..p......# .!
01D0: 00                                                .               
```

#### Opcodes

```
  0: 0x01BB [0x1E] EventEntity looks at LocalPlayer and starts talking
  1: 0x01C0 [0x6F] WAIT_FRAME_DELAY: Yield until WaitTime reaches zero
  2: 0x01C1 [0x70] WAIT_ENTITY_RENDER_FLAG: Wait while EventEntity->Render.Flags3 bit 2 is set (cancel turn if not)
  3: 0x01C2 [0x29] REQ_SET_WAIT(priority=0x08, entity_id=Mulaujeant (ID: 17723529/0x010E7089), tag_num=0x01)
  4: 0x01C9 [0x1D] PRINT_EVENT_MESSAGE(message_id=12082*)
    → "Patience! Patience! Even one such as I needs time to carve a statue worthy of Altana."
  5: 0x01CC [0x23] WAIT_FOR_DIALOG_INTERACTION
  6: 0x01CD [0x20] SET_CLI_EVENT_UC_FLAG: Unlock player control
  7: 0x01CF [0x21] END_EVENT
  8: 0x01D0 [0x00] END_REQSTACK()
```

### Event 700

#### Metadata

| Field        | Value    |
|--------------|----------|
| Entrypoint   | 0x01D1   |
| Data Size    | 81 bytes |
| Instructions | 16       |

```
      00 01 02 03 04 05 06 07  08 09 0A 0B 0C 0D 0E 0F
      -- -- -- -- -- -- -- --  -- -- -- -- -- -- -- --
01D0:    1E F0 FF FF 7F 6F 70  29 08 89 70 0E 01 03 29   .....op)..p...)
01E0: 0B 89 70 0E 01 1A 29 08  89 70 0E 01 04 29 08 89  ..p...)..p...)..
01F0: 70 0E 01 05 29 0B 89 70  0E 01 1B 29 08 89 70 0E  p...)..p...)..p.
0200: 01 06 29 08 89 70 0E 01  01 29 0B 89 70 0E 01 1C  ..)..p...)..p...
0210: 29 0B 89 70 0E 01 1D 29  08 89 70 0E 01 02 20 00  )..p...)..p... .
0220: 21 00                                             !.              
```

#### Opcodes

```
  0: 0x01D1 [0x1E] EventEntity looks at LocalPlayer and starts talking
  1: 0x01D6 [0x6F] WAIT_FRAME_DELAY: Yield until WaitTime reaches zero
  2: 0x01D7 [0x70] WAIT_ENTITY_RENDER_FLAG: Wait while EventEntity->Render.Flags3 bit 2 is set (cancel turn if not)
  3: 0x01D8 [0x29] REQ_SET_WAIT(priority=0x08, entity_id=Mulaujeant (ID: 17723529/0x010E7089), tag_num=0x03)
  4: 0x01DF [0x29] REQ_SET_WAIT(priority=0x0B, entity_id=Mulaujeant (ID: 17723529/0x010E7089), tag_num=0x1A)
  5: 0x01E6 [0x29] REQ_SET_WAIT(priority=0x08, entity_id=Mulaujeant (ID: 17723529/0x010E7089), tag_num=0x04)
  6: 0x01ED [0x29] REQ_SET_WAIT(priority=0x08, entity_id=Mulaujeant (ID: 17723529/0x010E7089), tag_num=0x05)
  7: 0x01F4 [0x29] REQ_SET_WAIT(priority=0x0B, entity_id=Mulaujeant (ID: 17723529/0x010E7089), tag_num=0x1B)
  8: 0x01FB [0x29] REQ_SET_WAIT(priority=0x08, entity_id=Mulaujeant (ID: 17723529/0x010E7089), tag_num=0x06)
  9: 0x0202 [0x29] REQ_SET_WAIT(priority=0x08, entity_id=Mulaujeant (ID: 17723529/0x010E7089), tag_num=0x01)
 10: 0x0209 [0x29] REQ_SET_WAIT(priority=0x0B, entity_id=Mulaujeant (ID: 17723529/0x010E7089), tag_num=0x1C)
 11: 0x0210 [0x29] REQ_SET_WAIT(priority=0x0B, entity_id=Mulaujeant (ID: 17723529/0x010E7089), tag_num=0x1D)
 12: 0x0217 [0x29] REQ_SET_WAIT(priority=0x08, entity_id=Mulaujeant (ID: 17723529/0x010E7089), tag_num=0x02)
 13: 0x021E [0x20] SET_CLI_EVENT_UC_FLAG: Unlock player control
 14: 0x0220 [0x21] END_EVENT
 15: 0x0221 [0x00] END_REQSTACK()
```

### Event 65535.22

#### Metadata

| Field        | Value   |
|--------------|---------|
| Entrypoint   | 0x0222  |
| Data Size    | 5 bytes |
| Instructions | 3       |

```
      00 01 02 03 04 05 06 07  08 09 0A 0B 0C 0D 0E 0F
      -- -- -- -- -- -- -- --  -- -- -- -- -- -- -- --
0220:       1D 0E 80 23 00                                ...#.         
```

#### Opcodes

```
  0: 0x0222 [0x1D] PRINT_EVENT_MESSAGE(message_id=12083*)
    → "Patience! Patience! Patience is what guided me to carve such a beautiful statue."
  1: 0x0225 [0x23] WAIT_FOR_DIALOG_INTERACTION
  2: 0x0226 [0x00] END_REQSTACK()
```

### Event 65535.23

#### Metadata

| Field        | Value   |
|--------------|---------|
| Entrypoint   | 0x0227  |
| Data Size    | 5 bytes |
| Instructions | 3       |

```
      00 01 02 03 04 05 06 07  08 09 0A 0B 0C 0D 0E 0F
      -- -- -- -- -- -- -- --  -- -- -- -- -- -- -- --
0220:                      1D  0F 80 23 00                     ...#.    
```

#### Opcodes

```
  0: 0x0227 [0x1D] PRINT_EVENT_MESSAGE(message_id=12084*)
    → "However, I still cannot see how me making this sculpture can be of any assistance to my friend Rauteinot..."
  1: 0x022A [0x23] WAIT_FOR_DIALOG_INTERACTION
  2: 0x022B [0x00] END_REQSTACK()
```

### Event 65535.24

#### Metadata

| Field        | Value   |
|--------------|---------|
| Entrypoint   | 0x022C  |
| Data Size    | 5 bytes |
| Instructions | 3       |

```
      00 01 02 03 04 05 06 07  08 09 0A 0B 0C 0D 0E 0F
      -- -- -- -- -- -- -- --  -- -- -- -- -- -- -- --
0220:                                      1D 10 80 23              ...#
0230: 00                                                .               
```

#### Opcodes

```
  0: 0x022C [0x1D] PRINT_EVENT_MESSAGE(message_id=12085*)
    → "Here. I entrust this statue to you."
  1: 0x022F [0x23] WAIT_FOR_DIALOG_INTERACTION
  2: 0x0230 [0x00] END_REQSTACK()
```

### Event 65535.25

#### Metadata

| Field        | Value   |
|--------------|---------|
| Entrypoint   | 0x0231  |
| Data Size    | 5 bytes |
| Instructions | 3       |

```
      00 01 02 03 04 05 06 07  08 09 0A 0B 0C 0D 0E 0F
      -- -- -- -- -- -- -- --  -- -- -- -- -- -- -- --
0230:    1D 11 80 23 00                                  ...#.          
```

#### Opcodes

```
  0: 0x0231 [0x1D] PRINT_EVENT_MESSAGE(message_id=12086*)
    → "I know not whether you believe in the Goddess of the Dawn, but I trust you will handle her image carefully."
  1: 0x0234 [0x23] WAIT_FOR_DIALOG_INTERACTION
  2: 0x0235 [0x00] END_REQSTACK()
```

### Event 701

#### Metadata

| Field        | Value    |
|--------------|----------|
| Entrypoint   | 0x0236   |
| Data Size    | 33 bytes |
| Instructions | 12       |

```
      00 01 02 03 04 05 06 07  08 09 0A 0B 0C 0D 0E 0F
      -- -- -- -- -- -- -- --  -- -- -- -- -- -- -- --
0230:                   1E F0  FF FF 7F 6F 70 29 08 89        .....op)..
0240: 70 0E 01 01 1D 12 80 23  1D 13 80 23 29 08 89 70  p......#...#)..p
0250: 0E 01 02 20 00 21 00                              ... .!.         
```

#### Opcodes

```
  0: 0x0236 [0x1E] EventEntity looks at LocalPlayer and starts talking
  1: 0x023B [0x6F] WAIT_FRAME_DELAY: Yield until WaitTime reaches zero
  2: 0x023C [0x70] WAIT_ENTITY_RENDER_FLAG: Wait while EventEntity->Render.Flags3 bit 2 is set (cancel turn if not)
  3: 0x023D [0x29] REQ_SET_WAIT(priority=0x08, entity_id=Mulaujeant (ID: 17723529/0x010E7089), tag_num=0x01)
  4: 0x0244 [0x1D] PRINT_EVENT_MESSAGE(message_id=12087*)
    → "I know not whether you believe in the Goddess of the Dawn, but I trust you will handle her image carefully."
  5: 0x0247 [0x23] WAIT_FOR_DIALOG_INTERACTION
  6: 0x0248 [0x1D] PRINT_EVENT_MESSAGE(message_id=12088*)
    → "But how can carving some sculpture possibly help Rauteinot?"
  7: 0x024B [0x23] WAIT_FOR_DIALOG_INTERACTION
  8: 0x024C [0x29] REQ_SET_WAIT(priority=0x08, entity_id=Mulaujeant (ID: 17723529/0x010E7089), tag_num=0x02)
  9: 0x0253 [0x20] SET_CLI_EVENT_UC_FLAG: Unlock player control
 10: 0x0255 [0x21] END_EVENT
 11: 0x0256 [0x00] END_REQSTACK()
```
