# 17723440 - Lucretia

## Common Data

| Field            | Value                         |
|------------------|-------------------------------|
| Zone             | Northern San d'Oria (ID: 231) |
| Block Size       | 220 bytes                     |
| Total Events     | 5                             |
| References Count | 20                            |

## List of Events

| Event ID                 | Entrypoint   |   Size |   Instructions |
|--------------------------|--------------|--------|----------------|
| [65535](#event-65535)    | 0x0000       |      1 |              1 |
| [535](#event-535)        | 0x0001       |      1 |              1 |
| [65535.1](#event-655351) | 0x0002       |     43 |              9 |
| [16](#event-16)          | 0x002D       |     28 |              5 |
| [0](#event-0)            | 0x0049       |     28 |              5 |

## DAT References (imed_data)

|   Index | Hex Value   |   Dec Value |
|---------|-------------|-------------|
|       0 | 0x0014      |          20 |
|       1 | 0xFFFDF344  |  4294832964 |
|       2 | 0x2B479     |      177273 |
|       3 | 0x176F      |        5999 |
|       4 | 0x09ED      |        2541 |
|       5 | 0xFFFDD266  |  4294824550 |
|       6 | 0x2D742     |      186178 |
|       7 | 0x2EDF      |       11999 |
|       8 | 0xFFFDC731  |  4294821681 |
|       9 | 0x2D1CA     |      184778 |
|      10 | 0xFFFD9612  |  4294809106 |
|      11 | 0x27F41     |      163649 |
|      12 | 0x12E92     |       77458 |
|      13 | 0x13811     |       79889 |
|      14 | 0x06D5      |        1749 |
|      15 | 0x0EF7      |        3831 |
|      16 | 0x2A96      |       10902 |
|      17 | 0x16F58     |       94040 |
|      18 | 0xFFFFFF39  |  4294967097 |
|      19 | 0x0821      |        2081 |

## Events

### Event 65535

#### Metadata

| Field        | Value   |
|--------------|---------|
| Entrypoint   | 0x0000  |
| Data Size    | 1 bytes |
| Instructions | 1       |

```
      00 01 02 03 04 05 06 07  08 09 0A 0B 0C 0D 0E 0F
      -- -- -- -- -- -- -- --  -- -- -- -- -- -- -- --
0000: 00                                                .               
```

#### Opcodes

```
  0: 0x0000 [0x00] END_REQSTACK()
```

### Event 535

#### Metadata

| Field        | Value   |
|--------------|---------|
| Entrypoint   | 0x0001  |
| Data Size    | 1 bytes |
| Instructions | 1       |

```
      00 01 02 03 04 05 06 07  08 09 0A 0B 0C 0D 0E 0F
      -- -- -- -- -- -- -- --  -- -- -- -- -- -- -- --
0000:    00                                              .              
```

#### Opcodes

```
  0: 0x0001 [0x00] END_REQSTACK()
```

### Event 65535.1

#### Metadata

| Field        | Value    |
|--------------|----------|
| Entrypoint   | 0x0002   |
| Data Size    | 43 bytes |
| Instructions | 9        |

```
      00 01 02 03 04 05 06 07  08 09 0A 0B 0C 0D 0E 0F
      -- -- -- -- -- -- -- --  -- -- -- -- -- -- -- --
0000:       32 00 80 37 01 80  02 80 03 80 04 80 1F 00    2..7..........
0010: 05 80 06 80 07 80 1F 01  1F 00 08 80 09 80 07 80  ................
0020: 1F 01 1F 00 0A 80 0B 80  07 80 1F 01 00           .............   
```

#### Opcodes

```
  0: 0x0002 [0x32] ExtData[1]->MainSpeed = 20* * 0.1
  1: 0x0005 [0x37] UPDATE_EVENT_POSITION_AND_DIR: x=-134.332*, z=177.273*, y=5.999*, direction=223.3°*
  2: 0x000E [0x1F] MOVE_ENTITY: EventEntity moves to X=-142.746*, Z=186.178*, Y=11.999*
  3: 0x0016 [0x1F] MOVE_ENTITY: Update entity position (mode=1)
  4: 0x0018 [0x1F] MOVE_ENTITY: EventEntity moves to X=-145.615*, Z=184.778*, Y=11.999*
  5: 0x0020 [0x1F] MOVE_ENTITY: Update entity position (mode=1)
  6: 0x0022 [0x1F] MOVE_ENTITY: EventEntity moves to X=-158.190*, Z=163.649*, Y=11.999*
  7: 0x002A [0x1F] MOVE_ENTITY: Update entity position (mode=1)
  8: 0x002C [0x00] END_REQSTACK()
```

### Event 16

#### Metadata

| Field        | Value    |
|--------------|----------|
| Entrypoint   | 0x002D   |
| Data Size    | 28 bytes |
| Instructions | 5        |

```
      00 01 02 03 04 05 06 07  08 09 0A 0B 0C 0D 0E 0F
      -- -- -- -- -- -- -- --  -- -- -- -- -- -- -- --
0020:                                         22 00 92               "..
0030: 01 F8 FF FF 7F 37 0C 80  0D 80 0E 80 0F 80 79 00  .....7........y.
0040: F8 FF FF 7F 04 70 0E 01  00                       .....p...       
```

#### Opcodes

```
  0: 0x002D [0x22] ENTITY_HIDE_FLAG(enabled=0x00)
  1: 0x002F [0x92] EventEntity->Render.Flags3 ^= 0x01
  2: 0x0035 [0x37] UPDATE_EVENT_POSITION_AND_DIR: x=77.458*, z=79.889*, y=1.749*, direction=336.7°*
  3: 0x003E [0x79] EventEntity looks at Claidie (ID: 17723396/0x010E7004) (Basic look)
  4: 0x0048 [0x00] END_REQSTACK()
```

### Event 0

#### Metadata

| Field        | Value    |
|--------------|----------|
| Entrypoint   | 0x0049   |
| Data Size    | 28 bytes |
| Instructions | 5        |

```
      00 01 02 03 04 05 06 07  08 09 0A 0B 0C 0D 0E 0F
      -- -- -- -- -- -- -- --  -- -- -- -- -- -- -- --
0040:                             22 00 92 01 F8 FF FF           "......
0050: 7F 37 10 80 11 80 12 80  13 80 79 00 F8 FF FF 7F  .7........y.....
0060: 02 70 0E 01 00                                    .p...           
```

#### Opcodes

```
  0: 0x0049 [0x22] ENTITY_HIDE_FLAG(enabled=0x00)
  1: 0x004B [0x92] EventEntity->Render.Flags3 ^= 0x01
  2: 0x0051 [0x37] UPDATE_EVENT_POSITION_AND_DIR: x=10.902*, z=94.040*, y=-0.199*, direction=182.9°*
  3: 0x005A [0x79] EventEntity looks at Trion (ID: 17723394/0x010E7002) (Basic look)
  4: 0x0064 [0x00] END_REQSTACK()
```
