# 17723459 - Kasaroro

## Common Data

| Field            | Value                         |
|------------------|-------------------------------|
| Zone             | Northern San d'Oria (ID: 231) |
| Block Size       | 984 bytes                     |
| Total Events     | 10                            |
| References Count | 40                            |

## List of Events

| Event ID              | Entrypoint   |   Size |   Instructions |
|-----------------------|--------------|--------|----------------|
| [65535](#event-65535) | 0x0000       |      1 |              1 |
| [548](#event-548)     | 0x0001       |     36 |             10 |
| [546](#event-546)     | 0x0025       |    384 |             68 |
| [549](#event-549)     | 0x01A5       |     36 |             10 |
| [550](#event-550)     | 0x01C9       |     89 |             27 |
| [547](#event-547)     | 0x0222       |     71 |             25 |
| [551](#event-551)     | 0x0269       |     66 |             16 |
| [558](#event-558)     | 0x02AB       |     36 |             10 |
| [604](#event-604)     | 0x02CF       |     36 |             10 |
| [677](#event-677)     | 0x02F3       |     11 |              5 |

## DAT References (imed_data)

|   Index | Hex Value   |   Dec Value |
|---------|-------------|-------------|
|       0 | 0x0028      |          40 |
|       1 | 0x2CBE      |       11454 |
|       2 | 0x001E      |          30 |
|       3 | 0x00C8      |         200 |
|       4 | 0x0000      |           0 |
|       5 | 0x003C      |          60 |
|       6 | 0x0164      |         356 |
|       7 | 0x0083      |         131 |
|       8 | 0x0003      |           3 |
|       9 | 0x00A2      |         162 |
|      10 | 0x2CC6      |       11462 |
|      11 | 0x2CC7      |       11463 |
|      12 | 0x2CC8      |       11464 |
|      13 | 0x2CC9      |       11465 |
|      14 | 0x2CCA      |       11466 |
|      15 | 0x2CCB      |       11467 |
|      16 | 0x2CCC      |       11468 |
|      17 | 0x2CCD      |       11469 |
|      18 | 0x2CCE      |       11470 |
|      19 | 0x006B      |         107 |
|      20 | 0x2CCF      |       11471 |
|      21 | 0x2CD0      |       11472 |
|      22 | 0x2CD1      |       11473 |
|      23 | 0x2CD2      |       11474 |
|      24 | 0x2CD3      |       11475 |
|      25 | 0x2CD4      |       11476 |
|      26 | 0x2CD5      |       11477 |
|      27 | 0x00C9      |         201 |
|      28 | 0x2CD9      |       11481 |
|      29 | 0x2CDA      |       11482 |
|      30 | 0x2CDB      |       11483 |
|      31 | 0x2CDC      |       11484 |
|      32 | 0x2CDD      |       11485 |
|      33 | 0x2CDE      |       11486 |
|      34 | 0x2CDF      |       11487 |
|      35 | 0x0023      |          35 |
|      36 | 0x2CE0      |       11488 |
|      37 | 0x2CE2      |       11490 |
|      38 | 0x2CE3      |       11491 |
|      39 | 0x2D9D      |       11677 |

## String References

- **11454**: Greetings! I am Consul Kasaroro, at your service. How may I help you?
- **11462**: Greetings, <Player>! I am Consul Kasaroro. Let me tell you about current events here in the Kingdom of San d'Oria.
- **11463**: Beastmen known as Orcs steadily grow in number outside San d'Oria.
- **11464**: They have set up a forward base in Ghelsba, northwest of San d'Oria. From here, they plan to launch an invasion!
- **11465**: Orcs love battle-wattle, but they aren't the brightest bunch. There's just one thing...
- **11466**: It seems their armor and weapons have been improving by the day-way! Now they're using traps and bows, too!
- **11467**: I, and a few others, think that there's somebody behind these Orcs, supplying them with the goods, and calling the shots. But there's not enough to go on right now.
- **11468**: If it were up to me, I'd send you to Ghelsba pronto! But this is San d'Oria, and missions are their jurisdiction.
- **11469**: So, first you should talk to Monarlais Halver in Chateau d'Oraguille. He'll give you official orders.
- **11470**: Step right outside, and you'll see a big castle on the left. That's Chateau d'Oraguille. They're a little touchy in there, so mind your manners!
- **11471**: So you've gotten an offer-woffer from Monarlais Halver? Excellent! Take care out there.
- **11472**: Welcome back. I trust you weren't hurtaru?
- **11473**: I heard from the monarlais that you went to fight-wight the great Warchief Vatgit!
- **11474**: A great many adventurers see Ghelsba Outpost on missions, but most turn back at the highland encampmentaru!
- **11475**: You've done swellsy-wellsy! I'm proud to be your consul.
- **11476**: I'll formally request the San d'Orian court to certify you, <Player>, as an official adventurer.
- **11477**: Now all you have to do is get recognition from Bastok. Keep your wits about you, and you'll be finey-shiney!
- **11481**: Why, it's <Player>! I heard about your success from Consul Patt-Pott in Bastok. Sounds like you've done a bang-up job!
- **11482**: That Patt-Pott talks a malm-a-minute, so it was hard to make out what he was saying at firstaru...
- **11483**: But that's neither here nor there-where! The war goes on here in San d'Oria, and the civilians are trying to cope.
- **11484**: I know the Kingdom wants to settle things quickly, but with all the hubbub going on in the royal family, they can't focus on the war!
- **11485**: There's a special mission waiting for you. Even I haven't heard what it's all aboutaru!
- **11486**: You'll have to head to Chateau d'Oraguille and ask Monarlais Halver. He'll fill you in, he will!
- **11487**: I've heard of what you did, and I have to say I'm impressed! You make me proud to be a Windurstian!
- **11488**: I hear you've been officially recognized by San d'Oria, too. The next time you return to the homeland, pick up your $3.
- **11490**: Now, back home you go! I'm sure Lady Kupipi eagerly awaits your return.
- **11491**: <Player>, right? You seem well-swell! Feel free to hang around as long as you like!
- **11677**: Hello there! You're the one with the introduction, eh? I'm bizzy-wizzy right now. Perhaps you'd like to talk to one of the staff?

## Events

### Event 65535

#### Metadata

| Field        | Value   |
|--------------|---------|
| Entrypoint   | 0x0000  |
| Data Size    | 1 bytes |
| Instructions | 1       |

```
      00 01 02 03 04 05 06 07  08 09 0A 0B 0C 0D 0E 0F
      -- -- -- -- -- -- -- --  -- -- -- -- -- -- -- --
0000: 00                                                .               
```

#### Opcodes

```
  0: 0x0000 [0x00] END_REQSTACK()
```

### Event 548

#### Metadata

| Field        | Value    |
|--------------|----------|
| Entrypoint   | 0x0001   |
| Data Size    | 36 bytes |
| Instructions | 10       |

```
      00 01 02 03 04 05 06 07  08 09 0A 0B 0C 0D 0E 0F
      -- -- -- -- -- -- -- --  -- -- -- -- -- -- -- --
0000:    1E F0 FF FF 7F 6F 70  66 00 80 F8 FF FF 7F F8   .....opf.......
0010: FF FF 7F 74 6C 6B 30 1D  01 80 23 5E 69 64 6C 30  ...tlk0...#^idl0
0020: 1C 02 80 21 00                                    ...!.           
```

#### Opcodes

```
  0: 0x0001 [0x1E] EventEntity looks at LocalPlayer and starts talking
  1: 0x0006 [0x6F] WAIT_FRAME_DELAY: Yield until WaitTime reaches zero
  2: 0x0007 [0x70] WAIT_ENTITY_RENDER_FLAG: Wait while EventEntity->Render.Flags3 bit 2 is set (cancel turn if not)
  3: 0x0008 [0x66] LOAD_EXT_SCHEDULER_MAIN: Load scheduler "tlk0" with entities [EventEntity, EventEntity], work=40*
  4: 0x0017 [0x1D] PRINT_EVENT_MESSAGE(message_id=11454*)
    → "Greetings! I am Consul Kasaroro, at your service. How may I help you?"
  5: 0x001A [0x23] WAIT_FOR_DIALOG_INTERACTION
  6: 0x001B [0x5E] EventEntity goes idle (kills current action) (animation: "idl0")
  7: 0x0020 [0x1C] WAIT(30* ticks)
  8: 0x0023 [0x21] END_EVENT
  9: 0x0024 [0x00] END_REQSTACK()
```

### Event 546

#### Metadata

| Field        | Value     |
|--------------|-----------|
| Entrypoint   | 0x0025    |
| Data Size    | 384 bytes |
| Instructions | 68        |

```
      00 01 02 03 04 05 06 07  08 09 0A 0B 0C 0D 0E 0F
      -- -- -- -- -- -- -- --  -- -- -- -- -- -- -- --
0020:                42 46 01  45 03 80 F0 FF FF 7F F0       BF.E.......
0030: FF FF 7F 66 64 6F 31 04  80 1C 05 80 75 00 06 80  ...fdo1.....u...
0040: 75 01 45 07 80 F0 FF FF  7F F0 FF FF 7F 73 30 31  u.E..........s01
0050: 34 04 80 38 08 80 27 64  F0 FF FF 7F 29 5D 04 80  4..8..'d....)]..
0060: 05 80 1C 05 80 5C 00 09  80 5C 01 09 80 45 03 80  .....\...\...E..
0070: F0 FF FF 7F F0 FF FF 7F  66 64 69 31 04 80 55 07  ........fdi1..U.
0080: 80 F0 FF FF 7F F0 FF FF  7F 73 30 31 34 1E F0 FF  .........s014...
0090: FF 7F 6F 70 66 00 80 F8  FF FF 7F F8 FF FF 7F 74  ..opf..........t
00A0: 6C 6B 30 1D 0A 80 23 1C  02 80 45 07 80 F0 FF FF  lk0...#...E.....
00B0: 7F F0 FF FF 7F 73 30 31  35 04 80 1D 0B 80 23 1C  .....s015.....#.
00C0: 02 80 1D 0C 80 23 1C 02  80 1D 0D 80 23 5E 69 64  .....#......#^id
00D0: 6C 30 1C 02 80 45 07 80  F0 FF FF 7F F0 FF FF 7F  l0...E..........
00E0: 73 30 33 33 04 80 66 00  80 F8 FF FF 7F F8 FF FF  s033..f.........
00F0: 7F 74 68 6B 31 1D 0E 80  23 66 00 80 F8 FF FF 7F  .thk1...#f......
0100: F8 FF FF 7F 74 68 6B 32  53 F8 FF FF 7F F8 FF FF  ....thk2S.......
0110: 7F 74 68 6B 32 1C 02 80  66 00 80 F8 FF FF 7F F8  .thk2...f.......
0120: FF FF 7F 74 6C 6B 30 1D  0F 80 23 1C 02 80 55 07  ...tlk0...#...U.
0130: 80 F0 FF FF 7F F0 FF FF  7F 73 30 33 33 1D 10 80  .........s033...
0140: 23 1C 02 80 45 07 80 F0  FF FF 7F F0 FF FF 7F 73  #...E..........s
0150: 30 33 35 04 80 1D 11 80  23 1C 02 80 1D 12 80 23  035.....#......#
0160: 5E 69 64 6C 30 1C 02 80  5D 04 80 05 80 45 03 80  ^idl0...]....E..
0170: F0 FF FF 7F F0 FF FF 7F  66 64 6F 31 04 80 1C 05  ........fdo1....
0180: 80 1C 05 80 5C 00 13 80  5C 01 13 80 46 00 1C 03  ....\...\...F...
0190: 80 45 03 80 F0 FF FF 7F  F0 FF FF 7F 66 64 69 31  .E..........fdi1
01A0: 04 80 2E 21 00                                    ...!.           
```

#### Opcodes

```
  0: 0x0025 [0x42] SET_CLI_EVENT_CANCEL_DATA()
  1: 0x0026 [0x46] CAMERA_CONTROL: Disable user control
  2: 0x0028 [0x45] LOAD_SCHEDULED_TASK: Load scheduler "fdo1" with entities [LocalPlayer, LocalPlayer], work=[200*, 0*]
  3: 0x0039 [0x1C] WAIT(60* ticks)
  4: 0x003C [0x75] LOAD_ROOM(Load indoor room, room=356*)
  5: 0x0040 [0x75] LOAD_ROOM(No action)
  6: 0x0042 [0x45] LOAD_SCHEDULED_TASK: Load scheduler "s014" with entities [LocalPlayer, LocalPlayer], work=[131*, 0*]
  7: 0x0053 [0x38] SET_CLIENT_EVENT_MODE(mode=3*)
  8: 0x0056 [0x27] REQ_SET(priority=0x64, entity_id=LocalPlayer, tag_num=0x29)
  9: 0x005D [0x5D] SET_MUSIC_VOLUME(volume=0*, fade_time=60*)
 10: 0x0062 [0x1C] WAIT(60* ticks)
 11: 0x0065 [0x5C] MUSIC_CONTROL: Set Idle (Day) music to song 162*
 12: 0x0069 [0x5C] MUSIC_CONTROL: Set Idle (Night) music to song 162*
 13: 0x006D [0x45] LOAD_SCHEDULED_TASK: Load scheduler "fdi1" with entities [LocalPlayer, LocalPlayer], work=[200*, 0*]
 14: 0x007E [0x55] WAIT_LOAD_SCHEDULER: Wait for scheduler "s014" with entities [LocalPlayer, LocalPlayer], work=131*
 15: 0x008D [0x1E] EventEntity looks at LocalPlayer and starts talking
 16: 0x0092 [0x6F] WAIT_FRAME_DELAY: Yield until WaitTime reaches zero
 17: 0x0093 [0x70] WAIT_ENTITY_RENDER_FLAG: Wait while EventEntity->Render.Flags3 bit 2 is set (cancel turn if not)
 18: 0x0094 [0x66] LOAD_EXT_SCHEDULER_MAIN: Load scheduler "tlk0" with entities [EventEntity, EventEntity], work=40*
 19: 0x00A3 [0x1D] PRINT_EVENT_MESSAGE(message_id=11462*)
    → "Greetings, <Player>! I am Consul Kasaroro. Let me tell you about current events here in the Kingdom of San d'Oria."
 20: 0x00A6 [0x23] WAIT_FOR_DIALOG_INTERACTION
 21: 0x00A7 [0x1C] WAIT(30* ticks)
 22: 0x00AA [0x45] LOAD_SCHEDULED_TASK: Load scheduler "s015" with entities [LocalPlayer, LocalPlayer], work=[131*, 0*]
 23: 0x00BB [0x1D] PRINT_EVENT_MESSAGE(message_id=11463*)
    → "Beastmen known as Orcs steadily grow in number outside San d'Oria."
 24: 0x00BE [0x23] WAIT_FOR_DIALOG_INTERACTION
 25: 0x00BF [0x1C] WAIT(30* ticks)
 26: 0x00C2 [0x1D] PRINT_EVENT_MESSAGE(message_id=11464*)
    → "They have set up a forward base in Ghelsba, northwest of San d'Oria. From here, they plan to launch an invasion!"
 27: 0x00C5 [0x23] WAIT_FOR_DIALOG_INTERACTION
 28: 0x00C6 [0x1C] WAIT(30* ticks)
 29: 0x00C9 [0x1D] PRINT_EVENT_MESSAGE(message_id=11465*)
    → "Orcs love battle-wattle, but they aren't the brightest bunch. There's just one thing..."
 30: 0x00CC [0x23] WAIT_FOR_DIALOG_INTERACTION
 31: 0x00CD [0x5E] EventEntity goes idle (kills current action) (animation: "idl0")
 32: 0x00D2 [0x1C] WAIT(30* ticks)
 33: 0x00D5 [0x45] LOAD_SCHEDULED_TASK: Load scheduler "s033" with entities [LocalPlayer, LocalPlayer], work=[131*, 0*]
 34: 0x00E6 [0x66] LOAD_EXT_SCHEDULER_MAIN: Load scheduler "thk1" with entities [EventEntity, EventEntity], work=40*
 35: 0x00F5 [0x1D] PRINT_EVENT_MESSAGE(message_id=11466*)
    → "It seems their armor and weapons have been improving by the day-way! Now they're using traps and bows, too!"
 36: 0x00F8 [0x23] WAIT_FOR_DIALOG_INTERACTION
 37: 0x00F9 [0x66] LOAD_EXT_SCHEDULER_MAIN: Load scheduler "thk2" with entities [EventEntity, EventEntity], work=40*
 38: 0x0108 [0x53] WAIT_SCHEDULER_TASK: Wait for scheduler "thk2" with entities [EventEntity, EventEntity]
 39: 0x0115 [0x1C] WAIT(30* ticks)
 40: 0x0118 [0x66] LOAD_EXT_SCHEDULER_MAIN: Load scheduler "tlk0" with entities [EventEntity, EventEntity], work=40*
 41: 0x0127 [0x1D] PRINT_EVENT_MESSAGE(message_id=11467*)
    → "I, and a few others, think that there's somebody behind these Orcs, supplying them with the goods, and calling the shots. But there's not enough to go on right now."
 42: 0x012A [0x23] WAIT_FOR_DIALOG_INTERACTION
 43: 0x012B [0x1C] WAIT(30* ticks)
 44: 0x012E [0x55] WAIT_LOAD_SCHEDULER: Wait for scheduler "s033" with entities [LocalPlayer, LocalPlayer], work=131*
 45: 0x013D [0x1D] PRINT_EVENT_MESSAGE(message_id=11468*)
    → "If it were up to me, I'd send you to Ghelsba pronto! But this is San d'Oria, and missions are their jurisdiction."
 46: 0x0140 [0x23] WAIT_FOR_DIALOG_INTERACTION
 47: 0x0141 [0x1C] WAIT(30* ticks)
 48: 0x0144 [0x45] LOAD_SCHEDULED_TASK: Load scheduler "s035" with entities [LocalPlayer, LocalPlayer], work=[131*, 0*]
 49: 0x0155 [0x1D] PRINT_EVENT_MESSAGE(message_id=11469*)
    → "So, first you should talk to Monarlais Halver in Chateau d'Oraguille. He'll give you official orders."
 50: 0x0158 [0x23] WAIT_FOR_DIALOG_INTERACTION
 51: 0x0159 [0x1C] WAIT(30* ticks)
 52: 0x015C [0x1D] PRINT_EVENT_MESSAGE(message_id=11470*)
    → "Step right outside, and you'll see a big castle on the left. That's Chateau d'Oraguille. They're a little touchy in there, so mind your manners!"
 53: 0x015F [0x23] WAIT_FOR_DIALOG_INTERACTION
 54: 0x0160 [0x5E] EventEntity goes idle (kills current action) (animation: "idl0")
 55: 0x0165 [0x1C] WAIT(30* ticks)
 56: 0x0168 [0x5D] SET_MUSIC_VOLUME(volume=0*, fade_time=60*)
 57: 0x016D [0x45] LOAD_SCHEDULED_TASK: Load scheduler "fdo1" with entities [LocalPlayer, LocalPlayer], work=[200*, 0*]
 58: 0x017E [0x1C] WAIT(60* ticks)
 59: 0x0181 [0x1C] WAIT(60* ticks)
 60: 0x0184 [0x5C] MUSIC_CONTROL: Set Idle (Day) music to song 107*
 61: 0x0188 [0x5C] MUSIC_CONTROL: Set Idle (Night) music to song 107*
 62: 0x018C [0x46] CAMERA_CONTROL: Restore default settings
 63: 0x018E [0x1C] WAIT(200* ticks)
 64: 0x0191 [0x45] LOAD_SCHEDULED_TASK: Load scheduler "fdi1" with entities [LocalPlayer, LocalPlayer], work=[200*, 0*]
 65: 0x01A2 [0x2E] SET_CLI_EVENT_CANCEL_FLAGS()
 66: 0x01A3 [0x21] END_EVENT
 67: 0x01A4 [0x00] END_REQSTACK()
```

### Event 549

#### Metadata

| Field        | Value    |
|--------------|----------|
| Entrypoint   | 0x01A5   |
| Data Size    | 36 bytes |
| Instructions | 10       |

```
      00 01 02 03 04 05 06 07  08 09 0A 0B 0C 0D 0E 0F
      -- -- -- -- -- -- -- --  -- -- -- -- -- -- -- --
01A0:                1E F0 FF  FF 7F 6F 70 66 00 80 F8       .....opf...
01B0: FF FF 7F F8 FF FF 7F 74  6C 6B 30 1D 14 80 23 5E  .......tlk0...#^
01C0: 69 64 6C 30 1C 02 80 21  00                       idl0...!.       
```

#### Opcodes

```
  0: 0x01A5 [0x1E] EventEntity looks at LocalPlayer and starts talking
  1: 0x01AA [0x6F] WAIT_FRAME_DELAY: Yield until WaitTime reaches zero
  2: 0x01AB [0x70] WAIT_ENTITY_RENDER_FLAG: Wait while EventEntity->Render.Flags3 bit 2 is set (cancel turn if not)
  3: 0x01AC [0x66] LOAD_EXT_SCHEDULER_MAIN: Load scheduler "tlk0" with entities [EventEntity, EventEntity], work=40*
  4: 0x01BB [0x1D] PRINT_EVENT_MESSAGE(message_id=11471*)
    → "So you've gotten an offer-woffer from Monarlais Halver? Excellent! Take care out there."
  5: 0x01BE [0x23] WAIT_FOR_DIALOG_INTERACTION
  6: 0x01BF [0x5E] EventEntity goes idle (kills current action) (animation: "idl0")
  7: 0x01C4 [0x1C] WAIT(30* ticks)
  8: 0x01C7 [0x21] END_EVENT
  9: 0x01C8 [0x00] END_REQSTACK()
```

### Event 550

#### Metadata

| Field        | Value    |
|--------------|----------|
| Entrypoint   | 0x01C9   |
| Data Size    | 89 bytes |
| Instructions | 27       |

```
      00 01 02 03 04 05 06 07  08 09 0A 0B 0C 0D 0E 0F
      -- -- -- -- -- -- -- --  -- -- -- -- -- -- -- --
01C0:                             42 1E F0 FF FF 7F 6F           B.....o
01D0: 70 66 00 80 F8 FF FF 7F  F8 FF FF 7F 74 6C 6B 30  pf..........tlk0
01E0: 1D 15 80 23 1C 02 80 1D  16 80 23 1C 02 80 1D 17  ...#......#.....
01F0: 80 23 1C 02 80 1D 18 80  23 1C 02 80 1D 19 80 23  .#......#......#
0200: 1C 02 80 1D 1A 80 23 5E  69 64 6C 30 45 1B 80 F0  ......#^idl0E...
0210: FF FF 7F F0 FF FF 7F 71  73 74 63 04 80 1C 02 80  .......qstc.....
0220: 21 00                                             !.              
```

#### Opcodes

```
  0: 0x01C9 [0x42] SET_CLI_EVENT_CANCEL_DATA()
  1: 0x01CA [0x1E] EventEntity looks at LocalPlayer and starts talking
  2: 0x01CF [0x6F] WAIT_FRAME_DELAY: Yield until WaitTime reaches zero
  3: 0x01D0 [0x70] WAIT_ENTITY_RENDER_FLAG: Wait while EventEntity->Render.Flags3 bit 2 is set (cancel turn if not)
  4: 0x01D1 [0x66] LOAD_EXT_SCHEDULER_MAIN: Load scheduler "tlk0" with entities [EventEntity, EventEntity], work=40*
  5: 0x01E0 [0x1D] PRINT_EVENT_MESSAGE(message_id=11472*)
    → "Welcome back. I trust you weren't hurtaru?"
  6: 0x01E3 [0x23] WAIT_FOR_DIALOG_INTERACTION
  7: 0x01E4 [0x1C] WAIT(30* ticks)
  8: 0x01E7 [0x1D] PRINT_EVENT_MESSAGE(message_id=11473*)
    → "I heard from the monarlais that you went to fight-wight the great Warchief Vatgit!"
  9: 0x01EA [0x23] WAIT_FOR_DIALOG_INTERACTION
 10: 0x01EB [0x1C] WAIT(30* ticks)
 11: 0x01EE [0x1D] PRINT_EVENT_MESSAGE(message_id=11474*)
    → "A great many adventurers see Ghelsba Outpost on missions, but most turn back at the highland encampmentaru!"
 12: 0x01F1 [0x23] WAIT_FOR_DIALOG_INTERACTION
 13: 0x01F2 [0x1C] WAIT(30* ticks)
 14: 0x01F5 [0x1D] PRINT_EVENT_MESSAGE(message_id=11475*)
    → "You've done swellsy-wellsy! I'm proud to be your consul."
 15: 0x01F8 [0x23] WAIT_FOR_DIALOG_INTERACTION
 16: 0x01F9 [0x1C] WAIT(30* ticks)
 17: 0x01FC [0x1D] PRINT_EVENT_MESSAGE(message_id=11476*)
    → "I'll formally request the San d'Orian court to certify you, <Player>, as an official adventurer."
 18: 0x01FF [0x23] WAIT_FOR_DIALOG_INTERACTION
 19: 0x0200 [0x1C] WAIT(30* ticks)
 20: 0x0203 [0x1D] PRINT_EVENT_MESSAGE(message_id=11477*)
    → "Now all you have to do is get recognition from Bastok. Keep your wits about you, and you'll be finey-shiney!"
 21: 0x0206 [0x23] WAIT_FOR_DIALOG_INTERACTION
 22: 0x0207 [0x5E] EventEntity goes idle (kills current action) (animation: "idl0")
 23: 0x020C [0x45] LOAD_SCHEDULED_TASK: Load scheduler "qstc" with entities [LocalPlayer, LocalPlayer], work=[201*, 0*]
 24: 0x021D [0x1C] WAIT(30* ticks)
 25: 0x0220 [0x21] END_EVENT
 26: 0x0221 [0x00] END_REQSTACK()
```

### Event 547

#### Metadata

| Field        | Value    |
|--------------|----------|
| Entrypoint   | 0x0222   |
| Data Size    | 71 bytes |
| Instructions | 25       |

```
      00 01 02 03 04 05 06 07  08 09 0A 0B 0C 0D 0E 0F
      -- -- -- -- -- -- -- --  -- -- -- -- -- -- -- --
0220:       1E F0 FF FF 7F 6F  70 66 00 80 F8 FF FF 7F    .....opf......
0230: F8 FF FF 7F 74 6C 6B 30  1D 1C 80 23 1C 02 80 1D  ....tlk0...#....
0240: 1D 80 23 1C 02 80 1D 1E  80 23 1C 02 80 1D 1F 80  ..#......#......
0250: 23 1C 02 80 1D 20 80 23  1C 02 80 1D 21 80 23 5E  #.... .#....!.#^
0260: 69 64 6C 30 1C 02 80 21  00                       idl0...!.       
```

#### Opcodes

```
  0: 0x0222 [0x1E] EventEntity looks at LocalPlayer and starts talking
  1: 0x0227 [0x6F] WAIT_FRAME_DELAY: Yield until WaitTime reaches zero
  2: 0x0228 [0x70] WAIT_ENTITY_RENDER_FLAG: Wait while EventEntity->Render.Flags3 bit 2 is set (cancel turn if not)
  3: 0x0229 [0x66] LOAD_EXT_SCHEDULER_MAIN: Load scheduler "tlk0" with entities [EventEntity, EventEntity], work=40*
  4: 0x0238 [0x1D] PRINT_EVENT_MESSAGE(message_id=11481*)
    → "Why, it's <Player>! I heard about your success from Consul Patt-Pott in Bastok. Sounds like you've done a bang-up job!"
  5: 0x023B [0x23] WAIT_FOR_DIALOG_INTERACTION
  6: 0x023C [0x1C] WAIT(30* ticks)
  7: 0x023F [0x1D] PRINT_EVENT_MESSAGE(message_id=11482*)
    → "That Patt-Pott talks a malm-a-minute, so it was hard to make out what he was saying at firstaru..."
  8: 0x0242 [0x23] WAIT_FOR_DIALOG_INTERACTION
  9: 0x0243 [0x1C] WAIT(30* ticks)
 10: 0x0246 [0x1D] PRINT_EVENT_MESSAGE(message_id=11483*)
    → "But that's neither here nor there-where! The war goes on here in San d'Oria, and the civilians are trying to cope."
 11: 0x0249 [0x23] WAIT_FOR_DIALOG_INTERACTION
 12: 0x024A [0x1C] WAIT(30* ticks)
 13: 0x024D [0x1D] PRINT_EVENT_MESSAGE(message_id=11484*)
    → "I know the Kingdom wants to settle things quickly, but with all the hubbub going on in the royal family, they can't focus on the war!"
 14: 0x0250 [0x23] WAIT_FOR_DIALOG_INTERACTION
 15: 0x0251 [0x1C] WAIT(30* ticks)
 16: 0x0254 [0x1D] PRINT_EVENT_MESSAGE(message_id=11485*)
    → "There's a special mission waiting for you. Even I haven't heard what it's all aboutaru!"
 17: 0x0257 [0x23] WAIT_FOR_DIALOG_INTERACTION
 18: 0x0258 [0x1C] WAIT(30* ticks)
 19: 0x025B [0x1D] PRINT_EVENT_MESSAGE(message_id=11486*)
    → "You'll have to head to Chateau d'Oraguille and ask Monarlais Halver. He'll fill you in, he will!"
 20: 0x025E [0x23] WAIT_FOR_DIALOG_INTERACTION
 21: 0x025F [0x5E] EventEntity goes idle (kills current action) (animation: "idl0")
 22: 0x0264 [0x1C] WAIT(30* ticks)
 23: 0x0267 [0x21] END_EVENT
 24: 0x0268 [0x00] END_REQSTACK()
```

### Event 551

#### Metadata

| Field        | Value    |
|--------------|----------|
| Entrypoint   | 0x0269   |
| Data Size    | 66 bytes |
| Instructions | 16       |

```
      00 01 02 03 04 05 06 07  08 09 0A 0B 0C 0D 0E 0F
      -- -- -- -- -- -- -- --  -- -- -- -- -- -- -- --
0260:                             42 1E F0 FF FF 7F 6F           B.....o
0270: 70 66 00 80 F8 FF FF 7F  F8 FF FF 7F 74 6C 6B 30  pf..........tlk0
0280: 1D 22 80 23 1C 02 80 03  02 10 23 80 1D 24 80 23  .".#......#..$.#
0290: 5E 69 64 6C 30 45 1B 80  F0 FF FF 7F F0 FF FF 7F  ^idl0E..........
02A0: 71 73 74 63 04 80 1C 02  80 21 00                 qstc.....!.     
```

#### Opcodes

```
  0: 0x0269 [0x42] SET_CLI_EVENT_CANCEL_DATA()
  1: 0x026A [0x1E] EventEntity looks at LocalPlayer and starts talking
  2: 0x026F [0x6F] WAIT_FRAME_DELAY: Yield until WaitTime reaches zero
  3: 0x0270 [0x70] WAIT_ENTITY_RENDER_FLAG: Wait while EventEntity->Render.Flags3 bit 2 is set (cancel turn if not)
  4: 0x0271 [0x66] LOAD_EXT_SCHEDULER_MAIN: Load scheduler "tlk0" with entities [EventEntity, EventEntity], work=40*
  5: 0x0280 [0x1D] PRINT_EVENT_MESSAGE(message_id=11487*)
    → "I've heard of what you did, and I have to say I'm impressed! You make me proud to be a Windurstian!"
  6: 0x0283 [0x23] WAIT_FOR_DIALOG_INTERACTION
  7: 0x0284 [0x1C] WAIT(30* ticks)
  8: 0x0287 [0x03] Work_Zone[2] = 35*
  9: 0x028C [0x1D] PRINT_EVENT_MESSAGE(message_id=11488*)
    → "I hear you've been officially recognized by San d'Oria, too. The next time you return to the homeland, pick up your $3."
 10: 0x028F [0x23] WAIT_FOR_DIALOG_INTERACTION
 11: 0x0290 [0x5E] EventEntity goes idle (kills current action) (animation: "idl0")
 12: 0x0295 [0x45] LOAD_SCHEDULED_TASK: Load scheduler "qstc" with entities [LocalPlayer, LocalPlayer], work=[201*, 0*]
 13: 0x02A6 [0x1C] WAIT(30* ticks)
 14: 0x02A9 [0x21] END_EVENT
 15: 0x02AA [0x00] END_REQSTACK()
```

### Event 558

#### Metadata

| Field        | Value    |
|--------------|----------|
| Entrypoint   | 0x02AB   |
| Data Size    | 36 bytes |
| Instructions | 10       |

```
      00 01 02 03 04 05 06 07  08 09 0A 0B 0C 0D 0E 0F
      -- -- -- -- -- -- -- --  -- -- -- -- -- -- -- --
02A0:                                   1E F0 FF FF 7F             .....
02B0: 6F 70 66 00 80 F8 FF FF  7F F8 FF FF 7F 74 6C 6B  opf..........tlk
02C0: 30 1D 25 80 23 5E 69 64  6C 30 1C 02 80 21 00     0.%.#^idl0...!. 
```

#### Opcodes

```
  0: 0x02AB [0x1E] EventEntity looks at LocalPlayer and starts talking
  1: 0x02B0 [0x6F] WAIT_FRAME_DELAY: Yield until WaitTime reaches zero
  2: 0x02B1 [0x70] WAIT_ENTITY_RENDER_FLAG: Wait while EventEntity->Render.Flags3 bit 2 is set (cancel turn if not)
  3: 0x02B2 [0x66] LOAD_EXT_SCHEDULER_MAIN: Load scheduler "tlk0" with entities [EventEntity, EventEntity], work=40*
  4: 0x02C1 [0x1D] PRINT_EVENT_MESSAGE(message_id=11490*)
    → "Now, back home you go! I'm sure Lady Kupipi eagerly awaits your return."
  5: 0x02C4 [0x23] WAIT_FOR_DIALOG_INTERACTION
  6: 0x02C5 [0x5E] EventEntity goes idle (kills current action) (animation: "idl0")
  7: 0x02CA [0x1C] WAIT(30* ticks)
  8: 0x02CD [0x21] END_EVENT
  9: 0x02CE [0x00] END_REQSTACK()
```

### Event 604

#### Metadata

| Field        | Value    |
|--------------|----------|
| Entrypoint   | 0x02CF   |
| Data Size    | 36 bytes |
| Instructions | 10       |

```
      00 01 02 03 04 05 06 07  08 09 0A 0B 0C 0D 0E 0F
      -- -- -- -- -- -- -- --  -- -- -- -- -- -- -- --
02C0:                                               1E                 .
02D0: F0 FF FF 7F 6F 70 66 00  80 F8 FF FF 7F F8 FF FF  ....opf.........
02E0: 7F 74 6C 6B 30 1D 26 80  23 5E 69 64 6C 30 1C 02  .tlk0.&.#^idl0..
02F0: 80 21 00                                          .!.             
```

#### Opcodes

```
  0: 0x02CF [0x1E] EventEntity looks at LocalPlayer and starts talking
  1: 0x02D4 [0x6F] WAIT_FRAME_DELAY: Yield until WaitTime reaches zero
  2: 0x02D5 [0x70] WAIT_ENTITY_RENDER_FLAG: Wait while EventEntity->Render.Flags3 bit 2 is set (cancel turn if not)
  3: 0x02D6 [0x66] LOAD_EXT_SCHEDULER_MAIN: Load scheduler "tlk0" with entities [EventEntity, EventEntity], work=40*
  4: 0x02E5 [0x1D] PRINT_EVENT_MESSAGE(message_id=11491*)
    → "<Player>, right? You seem well-swell! Feel free to hang around as long as you like!"
  5: 0x02E8 [0x23] WAIT_FOR_DIALOG_INTERACTION
  6: 0x02E9 [0x5E] EventEntity goes idle (kills current action) (animation: "idl0")
  7: 0x02EE [0x1C] WAIT(30* ticks)
  8: 0x02F1 [0x21] END_EVENT
  9: 0x02F2 [0x00] END_REQSTACK()
```

### Event 677

#### Metadata

| Field        | Value    |
|--------------|----------|
| Entrypoint   | 0x02F3   |
| Data Size    | 11 bytes |
| Instructions | 5        |

```
      00 01 02 03 04 05 06 07  08 09 0A 0B 0C 0D 0E 0F
      -- -- -- -- -- -- -- --  -- -- -- -- -- -- -- --
02F0:          1E F0 FF FF 7F  1D 27 80 23 21 00           ......'.#!.  
```

#### Opcodes

```
  0: 0x02F3 [0x1E] EventEntity looks at LocalPlayer and starts talking
  1: 0x02F8 [0x1D] PRINT_EVENT_MESSAGE(message_id=11677*)
    → "Hello there! You're the one with the introduction, eh? I'm bizzy-wizzy right now. Perhaps you'd like to talk to one of the staff?"
  2: 0x02FB [0x23] WAIT_FOR_DIALOG_INTERACTION
  3: 0x02FC [0x21] END_EVENT
  4: 0x02FD [0x00] END_REQSTACK()
```
