# 17723669 - Porter Moogle

## Common Data

| Field            | Value                         |
|------------------|-------------------------------|
| Zone             | Northern San d'Oria (ID: 231) |
| Block Size       | 3024 bytes                    |
| Total Events     | 7                             |
| References Count | 116                           |

## List of Events

| Event ID              | Entrypoint   |   Size |   Instructions |
|-----------------------|--------------|--------|----------------|
| [65535](#event-65535) | 0x0000       |      1 |              1 |
| [872](#event-872)     | 0x0001       |      5 |              3 |
| [873](#event-873)     | 0x0006       |      5 |              3 |
| [874](#event-874)     | 0x000B       |      5 |              3 |
| [875](#event-875)     | 0x0010       |      5 |              3 |
| [876](#event-876)     | 0x0015       |      5 |              3 |
| [919](#event-919)     | 0x001A       |   2487 |            529 |

## DAT References (imed_data)

|   Index | Hex Value   |   Dec Value |
|---------|-------------|-------------|
|       0 | 0x46D4      |       18132 |
|       1 | 0x0001      |           1 |
|       2 | 0x46D5      |       18133 |
|       3 | 0x0000      |           0 |
|       4 | 0x0002      |           2 |
|       5 | 0x40000000  |  1073741824 |
|       6 | 0x46F9      |       18169 |
|       7 | 0x46F8      |       18168 |
|       8 | 0x4701      |       18177 |
|       9 | 0x4702      |       18178 |
|      10 | 0x46F2      |       18162 |
|      11 | 0x46F3      |       18163 |
|      12 | 0x46F7      |       18167 |
|      13 | 0x46FA      |       18170 |
|      14 | 0x46FC      |       18172 |
|      15 | 0x003C      |          60 |
|      16 | 0x46FD      |       18173 |
|      17 | 0x46FE      |       18174 |
|      18 | 0x46D6      |       18134 |
|      19 | 0x46D7      |       18135 |
|      20 | 0x7280      |       29312 |
|      21 | 0x46D8      |       18136 |
|      22 | 0x7283      |       29315 |
|      23 | 0x46D9      |       18137 |
|      24 | 0x728A      |       29322 |
|      25 | 0x46DA      |       18138 |
|      26 | 0x46DB      |       18139 |
|      27 | 0x46DC      |       18140 |
|      28 | 0x46DD      |       18141 |
|      29 | 0x46DE      |       18142 |
|      30 | 0x46DF      |       18143 |
|      31 | 0x46E0      |       18144 |
|      32 | 0x46E1      |       18145 |
|      33 | 0x46E2      |       18146 |
|      34 | 0x46E3      |       18147 |
|      35 | 0x46E4      |       18148 |
|      36 | 0x46E5      |       18149 |
|      37 | 0x46E6      |       18150 |
|      38 | 0x46E7      |       18151 |
|      39 | 0x46E8      |       18152 |
|      40 | 0x0028      |          40 |
|      41 | 0x0010      |          16 |
|      42 | 0x0011      |          17 |
|      43 | 0x46E9      |       18153 |
|      44 | 0x0012      |          18 |
|      45 | 0x46EA      |       18154 |
|      46 | 0x46EB      |       18155 |
|      47 | 0x0003      |           3 |
|      48 | 0x0004      |           4 |
|      49 | 0x0009      |           9 |
|      50 | 0x00C0      |         192 |
|      51 | 0x46F0      |       18160 |
|      52 | 0x1FFFE     |      131070 |
|      53 | 0x0006      |           6 |
|      54 | 0x0020      |          32 |
|      55 | 0x46F4      |       18164 |
|      56 | 0x3F0B      |       16139 |
|      57 | 0x38F3      |       14579 |
|      58 | 0x3A9B      |       15003 |
|      59 | 0x3D2C      |       15660 |
|      60 | 0x3D83      |       15747 |
|      61 | 0x2CD4      |       11476 |
|      62 | 0x2C27      |       11303 |
|      63 | 0x3ABC      |       15036 |
|      64 | 0x3FE6      |       16358 |
|      65 | 0x2C82      |       11394 |
|      66 | 0x6C22      |       27682 |
|      67 | 0x6CB2      |       27826 |
|      68 | 0x6D3A      |       27962 |
|      69 | 0x6DCD      |       28109 |
|      70 | 0x6E52      |       28242 |
|      71 | 0x6C37      |       27703 |
|      72 | 0x6CC7      |       27847 |
|      73 | 0x6D4F      |       27983 |
|      74 | 0x6DE2      |       28130 |
|      75 | 0x6E67      |       28263 |
|      76 | 0x5A13      |       23059 |
|      77 | 0x5A56      |       23126 |
|      78 | 0x5A99      |       23193 |
|      79 | 0x5ADC      |       23260 |
|      80 | 0x5B1F      |       23327 |
|      81 | 0x5B62      |       23394 |
|      82 | 0x5BA5      |       23461 |
|      83 | 0x5BE8      |       23528 |
|      84 | 0x5C2B      |       23595 |
|      85 | 0x5C6E      |       23662 |
|      86 | 0x7281      |       29313 |
|      87 | 0x7282      |       29314 |
|      88 | 0x7284      |       29316 |
|      89 | 0x7285      |       29317 |
|      90 | 0x7286      |       29318 |
|      91 | 0x7287      |       29319 |
|      92 | 0x7288      |       29320 |
|      93 | 0x7289      |       29321 |
|      94 | 0x728B      |       29323 |
|      95 | 0x728C      |       29324 |
|      96 | 0x728D      |       29325 |
|      97 | 0x728E      |       29326 |
|      98 | 0x728F      |       29327 |
|      99 | 0x7290      |       29328 |
|     100 | 0x7291      |       29329 |
|     101 | 0x7292      |       29330 |
|     102 | 0x7293      |       29331 |
|     103 | 0x7294      |       29332 |
|     104 | 0x7295      |       29333 |
|     105 | 0x7296      |       29334 |
|     106 | 0x7297      |       29335 |
|     107 | 0x7298      |       29336 |
|     108 | 0x7299      |       29337 |
|     109 | 0x729A      |       29338 |
|     110 | 0x729B      |       29339 |
|     111 | 0x729C      |       29340 |
|     112 | 0x729D      |       29341 |
|     113 | 0x729E      |       29342 |
|     114 | 0x729F      |       29343 |
|     115 | 0x72A0      |       29344 |

## String References

- **18132**: Welcome to the MHMU's porter service, kupo! Which of your burdensome belongings shall I take off your hands today?
- **18133**: Do something, kupo? [Porter service?/Buy a storage slip./No, thank you.]
- **18134**: Is your gobbiebag splitting at the seams? Mog Safe spilling over? Why, an accomplished adventurer like yourself surely has more stuff than you know what to do with.
- **18135**: That's where I come in, kupo. I'll gladly hold onto your prized possessions, freeing you space to gather up even grander goodies.
- **18136**: To make use of my services, first you'll need to buy one of these storage slips for the low, low fee of $19 gil.
- **18137**: Storage slips come in numerous varieties, kupo, each corresponding to a different type of item.
- **18138**: You'll want to peruse the fine print closely, so you don't end up paying good gil for a scrap of parchment useless for the particular item you wish to store.
- **18139**: Not that we moogles would object to that sort of donation, kupo.
- **18140**: Choose the item you wish to entrust, then trade it to me along with a single storage slip. I will take the item and return the slip to you, marked with an invisible seal.
- **18141**: Invisible to you, at least. It's plain as day to us moogles, so don't even think of trying to pull one over on us, kupo.
- **18142**: When it comes time to retrieve your item, just trade to me a single storage slip--any slip--once again.
- **18143**: I will present you with a list of all the items currently in my care, and you may choose the one you wish to withdraw. Simple as that, kupo!
- **18144**: What's more, no additional transaction fees will be incurred! Pretty generous of us for a change, no?
- **18145**: Now I bet you're wondering what the catch is, kupo. So as not to disappoint you, there are a few!
- **18146**: For one, any signed items will lose their signatures if you store them with me.
- **18147**: Why, you say? Hey, even we moogles aren't perfect! It's better for both of us if you keep your most precious possessions close at hand, kupo.
- **18148**: Now listen up, because there's another catch, and it's a doozy.
- **18149**: If you lose your storage slip, I won't be able to return your item. Ever. No ifs, ands, or buts! No "I'm sorry, Mister Porter Moogle, it'll never happen again!" Rules are rules, kupo, and someone has to keep them.
- **18150**: Last, but not least, I can't accept equipment bearing Magian trial insignia.
- **18151**: If you have such an item that you're simply dying to entrust to me, you'll have to abandon your trial first, kupo.
- **18152**: And that's all there is to it. This humble moogle can hardly wait to serve you!
- **18154**: $32 will cost you $19 gil. Do we have a deal, kupo?
- **18155**: Deal, kupo? (Current gil: $18). [Check storable items./Deal./No deal.]
- **18162**: Is that $3 I see, kupo?
- **18163**: What will you do? [Retrieve an item./Confirm storable items./Nothing.]
- **18167**: Kupo? I'm already taking care of that item for you.
- **18168**: $0, yes? Very well! Your precious property is safe with me, kupo!
- **18169**: $0 [variety/varieties] of item, is it? Very well! Your precious property is safe with me, kupo!
- **18170**: Is that a Magian insignia I see on that $0? You'll have to abandon your trial before I can take it off your hands, kupo.
- **18172**: Curious as to whether I can accept that item? Let me check my annals.
- **18173**: Why, yes I can! % can be stored with $1.
- **18174**: Why, it looks as if you have $1 located in your [inventory/Mog Safe/Mog Safe 2/Mog House storage/Mog Locker/Mog Satchel/Mog Sack/Mog Case/Mog Wardrobe/Mog Wardrobe 2/Mog Wardrobe 3/Mog Wardrobe 4/Mog Wardrobe 5/Mog Wardrobe 6/Mog Wardrobe 7/Mog Wardrobe 8/Recycle Bin]!
- **18177**: 0: $0 1: $1 2: $2 3: $3
- **18178**: 4: $4 5: $5 6: $6 7: $7

## Events

### Event 65535

#### Metadata

| Field        | Value   |
|--------------|---------|
| Entrypoint   | 0x0000  |
| Data Size    | 1 bytes |
| Instructions | 1       |

```
      00 01 02 03 04 05 06 07  08 09 0A 0B 0C 0D 0E 0F
      -- -- -- -- -- -- -- --  -- -- -- -- -- -- -- --
0000: 00                                                .               
```

#### Opcodes

```
  0: 0x0000 [0x00] END_REQSTACK()
```

### Event 872

#### Metadata

| Field        | Value   |
|--------------|---------|
| Entrypoint   | 0x0001  |
| Data Size    | 5 bytes |
| Instructions | 3       |

```
      00 01 02 03 04 05 06 07  08 09 0A 0B 0C 0D 0E 0F
      -- -- -- -- -- -- -- --  -- -- -- -- -- -- -- --
0000:    1A 1F 00 21 00                                  ...!.          
```

#### Opcodes

```
  0: 0x0001 [0x1A] CALL_SUBROUTINE(address=0x001F)
  1: 0x0004 [0x21] END_EVENT
  2: 0x0005 [0x00] END_REQSTACK()
```

### Event 873

#### Metadata

| Field        | Value   |
|--------------|---------|
| Entrypoint   | 0x0006  |
| Data Size    | 5 bytes |
| Instructions | 3       |

```
      00 01 02 03 04 05 06 07  08 09 0A 0B 0C 0D 0E 0F
      -- -- -- -- -- -- -- --  -- -- -- -- -- -- -- --
0000:                   1A 82  00 21 00                       ...!.     
```

#### Opcodes

```
  0: 0x0006 [0x1A] CALL_SUBROUTINE(address=0x0082)
  1: 0x0009 [0x21] END_EVENT
  2: 0x000A [0x00] END_REQSTACK()
```

### Event 874

#### Metadata

| Field        | Value   |
|--------------|---------|
| Entrypoint   | 0x000B  |
| Data Size    | 5 bytes |
| Instructions | 3       |

```
      00 01 02 03 04 05 06 07  08 09 0A 0B 0C 0D 0E 0F
      -- -- -- -- -- -- -- --  -- -- -- -- -- -- -- --
0000:                                   1A 9C 00 21 00             ...!.
```

#### Opcodes

```
  0: 0x000B [0x1A] CALL_SUBROUTINE(address=0x009C)
  1: 0x000E [0x21] END_EVENT
  2: 0x000F [0x00] END_REQSTACK()
```

### Event 875

#### Metadata

| Field        | Value   |
|--------------|---------|
| Entrypoint   | 0x0010  |
| Data Size    | 5 bytes |
| Instructions | 3       |

```
      00 01 02 03 04 05 06 07  08 09 0A 0B 0C 0D 0E 0F
      -- -- -- -- -- -- -- --  -- -- -- -- -- -- -- --
0010: 1A 5B 01 21 00                                    .[.!.           
```

#### Opcodes

```
  0: 0x0010 [0x1A] CALL_SUBROUTINE(address=0x015B)
  1: 0x0013 [0x21] END_EVENT
  2: 0x0014 [0x00] END_REQSTACK()
```

### Event 876

#### Metadata

| Field        | Value   |
|--------------|---------|
| Entrypoint   | 0x0015  |
| Data Size    | 5 bytes |
| Instructions | 3       |

```
      00 01 02 03 04 05 06 07  08 09 0A 0B 0C 0D 0E 0F
      -- -- -- -- -- -- -- --  -- -- -- -- -- -- -- --
0010:                1A 65 01  21 00                         .e.!.      
```

#### Opcodes

```
  0: 0x0015 [0x1A] CALL_SUBROUTINE(address=0x0165)
  1: 0x0018 [0x21] END_EVENT
  2: 0x0019 [0x00] END_REQSTACK()
```

### Event 919

#### Metadata

| Field        | Value      |
|--------------|------------|
| Entrypoint   | 0x001A     |
| Data Size    | 2487 bytes |
| Instructions | 13         |

```
      00 01 02 03 04 05 06 07  08 09 0A 0B 0C 0D 0E 0F
      -- -- -- -- -- -- -- --  -- -- -- -- -- -- -- --
0010:                                1A 6F 01 21 00 03            .o.!..
0020: 06 00 02 10 03 09 00 07  10 03 0A 17 08 10 03 0B  ................
0030: 17 09 10 1E F0 FF FF 7F  1D 00 80 23 05 01 00 02  ...........#....
0040: 01 00 01 80 00 81 00 24  02 80 03 80 03 80 25 02  .......$......%.
0050: 00 10 03 80 00 5D 00 1A  8C 01 01 7E 00 02 00 10  .....].....~....
0060: 01 80 00 6B 00 1A 00 02  01 7E 00 02 00 10 04 80  ...k.....~......
0070: 00 7E 00 06 01 00 03 01  10 05 80 01 7E 00 01 3F  .~..........~..?
0080: 00 1B 1E F0 FF FF 7F 42  02 03 10 01 80 00 97 00  .......B........
0090: 1D 06 80 23 01 9B 00 1D  07 80 23 1B 1E F0 FF FF  ...#......#.....
00A0: 7F 03 0D 00 02 10 03 0E  00 03 10 03 0F 00 04 10  ................
00B0: 03 10 00 05 10 03 11 00  06 10 03 12 00 07 10 03  ................
00C0: 0B 00 09 10 3E 08 10 03  80 D3 00 03 19 00 01 80  ....>...........
00D0: 01 D8 00 03 19 00 03 80  9D 00 51 09 0C 00 0B 00  ..........Q.....
00E0: 02 19 00 01 80 00 F0 00  48 08 80 23 48 09 80 23  ........H..#H..#
00F0: 03 05 10 0C 00 03 18 17  0C 00 1D 0A 80 23 05 01  .............#..
0100: 00 02 01 00 01 80 00 5A  01 03 0A 00 03 80 1A A6  .......Z........
0110: 06 02 15 00 03 80 00 20  01 3C 0A 00 03 80 01 80  ....... .<......
0120: 24 0B 80 03 80 0A 00 25  02 00 10 03 80 00 36 01  $......%......6.
0130: 1A D5 04 01 57 01 02 00  10 01 80 00 44 01 1A 96  ....W.......D...
0140: 03 01 57 01 02 00 10 04  80 00 57 01 03 01 10 05  ..W.......W.....
0150: 80 06 01 00 01 57 01 01  01 01 1B 1E F0 FF FF 7F  .....W..........
0160: 1D 0C 80 23 1B 1E F0 FF  FF 7F 1D 0D 80 23 1B 1E  ...#.........#..
0170: F0 FF FF 7F 1D 0E 80 23  1C 0F 80 1D 10 80 23 02  .......#......#.
0180: 04 10 03 80 04 8B 01 1D  11 80 23 1B 1D 12 80 23  ..........#....#
0190: 1D 13 80 23 CC 01 14 80  03 80 03 80 03 80 1D 15  ...#............
01A0: 80 23 93 03 80 CC 01 16  80 03 80 03 80 03 80 1D  .#..............
01B0: 17 80 23 93 03 80 CC 01  18 80 03 80 03 80 03 80  ..#.............
01C0: 1D 19 80 23 93 03 80 1D  1A 80 23 1D 1B 80 23 1D  ...#......#...#.
01D0: 1C 80 23 1D 1D 80 23 1D  1E 80 23 1D 1F 80 23 1D  ..#...#...#...#.
01E0: 20 80 23 1D 21 80 23 1D  22 80 23 1D 23 80 23 1D   .#.!.#.".#.#.#.
01F0: 24 80 23 1D 25 80 23 1D  26 80 23 1D 27 80 23 1B  $.#.%.#.&.#.'.#.
0200: 05 24 00 03 08 17 01 80  03 09 17 28 80 15 09 17  .$.........(....
0210: 29 80 3F 00 00 28 80 29  80 02 00 00 03 80 01 24  ).?..(.).......$
0220: 02 0B 09 17 03 26 00 09  17 02 24 00 01 80 00 1E  .....&....$.....
0230: 03 03 09 17 26 00 03 0A  00 03 80 02 08 17 01 80  ....&...........
0240: 00 52 02 3C 0A 00 03 80  01 80 03 03 00 29 80 01  .R.<.........)..
0250: 61 02 02 08 17 09 17 00  61 02 3C 0A 00 2A 80 01  a.......a.<..*..
0260: 80 03 02 00 03 80 1A E0  08 02 02 00 29 80 03 C1  ............)...
0270: 02 03 05 00 08 17 0C 05  00 14 05 00 29 80 07 05  ............)...
0280: 00 02 00 9D 00 51 09 00  00 05 00 02 00 00 03 80  .....Q..........
0290: 00 A5 02 03 00 00 02 00  0B 00 00 3C 0A 00 00 00  ...........<....
02A0: 01 80 01 BB 02 03 05 00  02 00 0B 05 00 D4 03 05  ................
02B0: 00 00 00 9D 05 11 09 00  00 02 00 0B 02 00 01 69  ...............i
02C0: 02 D4 02 2B 80 03 80 0A  00 25 02 00 10 03 80 00  ...+.....%......
02D0: D8 02 0C 08 17 01 1B 03  02 00 10 2A 80 00 E6 02  ...........*....
02E0: 0B 08 17 01 1B 03 02 00  10 2C 80 00 F4 02 06 24  .........,.....$
02F0: 00 01 1B 03 03 00 00 08  17 0C 00 00 14 00 00 29  ...............)
0300: 80 07 00 00 00 10 0C 00  00 03 0B 00 00 00 03 25  ...............%
0310: 00 08 17 1A 1F 03 03 08  17 25 00 01 29 02 1B 05  .........%..)...
0320: 28 00 02 28 00 01 80 00  95 03 9D 00 51 09 18 17  (..(........Q...
0330: 0B 00 CC 01 18 17 03 80  03 80 03 80 1D 2D 80 23  .............-.#
0340: 93 03 80 24 2E 80 03 80  03 80 25 02 00 10 03 80  ...$......%.....
0350: 00 59 03 1A 96 03 01 92  03 02 00 10 01 80 00 84  .Y..............
0360: 03 06 28 00 06 24 00 06  01 00 03 01 10 03 80 40  ..(..$.........@
0370: 03 80 2F 80 01 10 01 80  40 30 80 31 80 01 10 0B  ../.....@0.1....
0380: 00 01 92 03 02 00 10 04  80 00 92 03 06 28 00 01  .............(..
0390: 92 03 01 22 03 1B 1A B1  09 03 09 17 17 17 15 09  ..."............
03A0: 17 29 80 3F 00 00 17 17  29 80 02 00 00 03 80 01  .).?....).......
03B0: B5 03 0B 09 17 03 08 17  01 80 03 18 00 03 80 03  ................
03C0: 2A 00 03 80 05 29 00 02  29 00 01 80 00 D4 04 03  *....)..).......
03D0: 0A 00 03 80 1A E0 08 03  02 00 03 80 03 03 00 03  ................
03E0: 80 03 18 00 08 17 0C 18  00 14 18 00 29 80 03 2B  ............)..+
03F0: 00 03 80 02 02 00 32 80  03 3A 04 9D 03 03 80 00  ......2..:......
0400: 00 02 00 02 00 00 03 80  02 34 04 02 2B 00 18 00  .........4..+...
0410: 04 31 04 9D 05 11 09 00  00 03 00 0B 03 00 02 03  .1..............
0420: 00 29 80 04 2B 04 03 02  00 32 80 D4 03 03 00 00  .)..+....2......
0430: 00 0B 2B 00 0B 02 00 01  F3 03 03 02 00 03 80 02  ..+.............
0440: 02 00 29 80 03 6C 04 9D  00 11 09 00 00 02 00 02  ..)..l..........
0450: 00 00 03 80 00 66 04 03  00 00 02 00 0B 00 00 3C  .....f.........<
0460: 0A 00 00 00 01 80 0B 02  00 01 3F 04 02 08 17 01  ..........?.....
0470: 80 00 7B 04 3C 0A 00 03  80 01 80 02 08 17 09 17  ..{.<...........
0480: 00 8A 04 3C 0A 00 2A 80  01 80 D4 02 33 80 2A 00  ...<..*.....3.*.
0490: 0A 00 25 02 00 10 03 80  00 A6 04 0C 08 17 03 2A  ..%............*
04A0: 00 03 80 01 D1 04 02 00  10 2A 80 00 B9 04 0B 08  .........*......
04B0: 17 03 2A 00 03 80 01 D1  04 02 00 10 2C 80 00 CC  ..*.........,...
04C0: 04 06 29 00 03 2A 00 03  80 01 D1 04 03 2A 00 00  ..)..*.......*..
04D0: 10 01 C7 03 1B 1A B1 09  05 2C 00 03 30 00 03 80  .........,..0...
04E0: 03 09 17 15 00 15 09 17  29 80 3F 00 00 15 00 29  ........).?....)
04F0: 80 02 00 00 03 80 01 FC  04 0B 09 17 03 08 17 01  ................
0500: 80 02 2C 00 01 80 00 A5  06 03 0A 00 34 80 03 2D  ..,.........4..-
0510: 00 01 80 03 2E 00 08 17  0C 2E 00 14 2E 00 29 80  ..............).
0520: 03 03 00 03 80 03 2F 00  03 80 1A E0 08 02 03 00  ....../.........
0530: 35 80 03 A7 05 9D 00 31  09 13 00 03 00 03 02 00  5......1........
0540: 03 80 02 02 00 36 80 03  A1 05 02 2D 00 2A 80 03  .....6.....-.*..
0550: 9B 05 3E 13 00 02 00 9B  05 02 2F 00 2E 00 04 98  ..>......./.....
0560: 05 03 00 00 03 00 14 00  00 36 80 07 00 00 02 00  .........6......
0570: 9D 03 03 80 14 00 00 00  03 18 00 2D 00 0C 18 00  ...........-....
0580: 9D 05 11 09 14 00 18 00  3D 0A 00 2D 00 01 80 D4  ........=..-....
0590: 03 2D 00 14 00 0B 2D 00  0B 2F 00 0B 02 00 01 42  .-....-../.....B
05A0: 05 0B 03 00 01 2D 05 02  08 17 01 80 00 B6 05 3C  .....-.........<
05B0: 0A 00 03 80 01 80 02 08  17 09 17 00 C5 05 3C 0A  ..............<.
05C0: 00 2A 80 01 80 D4 02 37  80 30 00 0A 00 25 02 00  .*.....7.0...%..
05D0: 10 03 80 00 E1 05 0C 08  17 03 30 00 03 80 01 A2  ..........0.....
05E0: 06 02 00 10 2A 80 00 F4  05 0B 08 17 03 30 00 03  ....*........0..
05F0: 80 01 A2 06 02 00 10 2C  80 00 07 06 06 2C 00 03  .......,.....,..
0600: 30 00 03 80 01 A2 06 02  00 10 2A 80 03 A2 06 03  0.........*.....
0610: 00 00 08 17 0C 00 00 14  00 00 29 80 07 00 00 00  ..........).....
0620: 10 0C 00 00 03 01 10 00  00 43 00 43 01 02 19 00  .........C.C....
0630: 01 80 00 3D 06 48 08 80  23 48 09 80 23 03 0D 00  ...=.H..#H..#...
0640: 02 10 03 0E 00 03 10 03  0F 00 04 10 03 10 00 05  ................
0650: 10 03 11 00 06 10 03 12  00 07 10 1A A6 06 02 15  ................
0660: 00 03 80 02 9F 06 03 09  17 15 00 15 09 17 29 80  ..............).
0670: 3F 00 00 15 00 29 80 02  00 00 03 80 01 82 06 0B  ?....)..........
0680: 09 17 02 08 17 09 17 02  97 06 03 08 17 09 17 03  ................
0690: 30 00 03 80 01 9C 06 03  30 00 00 10 01 A2 06 06  0.......0.......
06A0: 2C 00 01 01 05 1B 1A B1  09 03 15 00 03 80 03 03  ,...............
06B0: 00 03 80 03 18 00 03 80  02 03 00 35 80 03 FE 06  ...........5....
06C0: 9D 00 31 09 13 00 03 00  03 02 00 03 80 02 02 00  ..1.............
06D0: 36 80 03 F8 06 3E 13 00  02 00 EF 06 9D 03 03 80  6....>..........
06E0: 00 00 18 00 02 00 00 03  80 01 EF 06 0B 15 00 0B  ................
06F0: 02 00 0B 18 00 01 CD 06  0B 03 00 01 B8 06 1B 02  ................
0700: 00 00 38 80 80 0F 07 03  00 00 03 80 01 DF 08 02  ..8.............
0710: 00 00 39 80 80 1F 07 03  00 00 03 80 01 DF 08 02  ..9.............
0720: 00 00 3A 80 80 2F 07 03  00 00 03 80 01 DF 08 02  ..:../..........
0730: 00 00 3B 80 80 3F 07 03  00 00 03 80 01 DF 08 02  ..;..?..........
0740: 00 00 3C 80 80 4F 07 03  00 00 03 80 01 DF 08 02  ..<..O..........
0750: 00 00 3D 80 80 5F 07 03  00 00 03 80 01 DF 08 02  ..=.._..........
0760: 00 00 3E 80 80 6F 07 03  00 00 03 80 01 DF 08 02  ..>..o..........
0770: 00 00 3F 80 80 7F 07 03  00 00 03 80 01 DF 08 02  ..?.............
0780: 00 00 40 80 80 8F 07 03  00 00 03 80 01 DF 08 02  ..@.............
0790: 00 00 41 80 80 9F 07 03  00 00 03 80 01 DF 08 02  ..A.............
07A0: 00 00 42 80 80 AF 07 03  00 00 03 80 01 DF 08 02  ..B.............
07B0: 00 00 43 80 80 BF 07 03  00 00 03 80 01 DF 08 02  ..C.............
07C0: 00 00 44 80 80 CF 07 03  00 00 03 80 01 DF 08 02  ..D.............
07D0: 00 00 45 80 80 DF 07 03  00 00 03 80 01 DF 08 02  ..E.............
07E0: 00 00 46 80 80 EF 07 03  00 00 03 80 01 DF 08 02  ..F.............
07F0: 00 00 47 80 80 FF 07 03  00 00 03 80 01 DF 08 02  ..G.............
0800: 00 00 48 80 80 0F 08 03  00 00 03 80 01 DF 08 02  ..H.............
0810: 00 00 49 80 80 1F 08 03  00 00 03 80 01 DF 08 02  ..I.............
0820: 00 00 4A 80 80 2F 08 03  00 00 03 80 01 DF 08 02  ..J../..........
0830: 00 00 4B 80 80 3F 08 03  00 00 03 80 01 DF 08 02  ..K..?..........
0840: 00 00 4C 80 80 4F 08 03  00 00 03 80 01 DF 08 02  ..L..O..........
0850: 00 00 4D 80 80 5F 08 03  00 00 03 80 01 DF 08 02  ..M.._..........
0860: 00 00 4E 80 80 6F 08 03  00 00 03 80 01 DF 08 02  ..N..o..........
0870: 00 00 4F 80 80 7F 08 03  00 00 03 80 01 DF 08 02  ..O.............
0880: 00 00 50 80 80 8F 08 03  00 00 03 80 01 DF 08 02  ..P.............
0890: 00 00 51 80 80 9F 08 03  00 00 03 80 01 DF 08 02  ..Q.............
08A0: 00 00 52 80 80 AF 08 03  00 00 03 80 01 DF 08 02  ..R.............
08B0: 00 00 53 80 80 BF 08 03  00 00 03 80 01 DF 08 02  ..S.............
08C0: 00 00 54 80 80 CF 08 03  00 00 03 80 01 DF 08 02  ..T.............
08D0: 00 00 55 80 80 DF 08 03  00 00 03 80 01 DF 08 1B  ..U.............
08E0: 06 02 10 06 03 10 06 04  10 06 05 10 06 06 10 06  ................
08F0: 07 10 06 08 10 06 09 10  06 00 17 06 01 17 06 02  ................
0900: 17 06 03 17 06 04 17 06  05 17 06 06 17 06 07 17  ................
0910: 1B 02 10 03 10 04 10 05  10 06 10 07 10 08 10 09  ................
0920: 10 00 17 01 17 02 17 03  17 04 17 05 17 06 17 07  ................
0930: 17 0D 00 0E 00 0F 00 10  00 11 00 12 00 03 80 03  ................
0940: 80 1A 00 1B 00 1C 00 1D  00 1E 00 1F 00 20 00 21  ............. .!
0950: 00 14 80 56 80 57 80 16  80 58 80 59 80 5A 80 5B  ...V.W...X.Y.Z.[
0960: 80 5C 80 5D 80 18 80 5E  80 5F 80 60 80 61 80 62  .\.]...^._.`.a.b
0970: 80 63 80 64 80 65 80 66  80 67 80 68 80 69 80 6A  .c.d.e.f.g.h.i.j
0980: 80 6B 80 6C 80 6D 80 6E  80 6F 80 70 80 71 80 72  .k.l.m.n.o.p.q.r
0990: 80 73 80 03 80 03 80 03  80 03 80 03 80 03 80 03  .s..............
09A0: 80 03 80 03 80 03 80 03  80 03 80 03 80 03 80 03  ................
09B0: 80 03 16 17 0B 00 7A 00  16 71 0E 01 27 0B 16 71  ......z..q..'..q
09C0: 0E 01 05 29 0B 16 71 0E  01 05 2A 0B 16 71 0E 01  ...)..q...*..q..
09D0: 1B                                                .               
```

#### Opcodes

```
  0: 0x001A [0x1A] CALL_SUBROUTINE(address=0x016F)
  1: 0x001D [0x21] END_EVENT
  2: 0x001E [0x00] END_REQSTACK()

SUBROUTINE_016F:
  3: 0x016F [0x1E] EventEntity looks at LocalPlayer and starts talking
  4: 0x0174 [0x1D] PRINT_EVENT_MESSAGE(message_id=18172*)
    → "Curious as to whether I can accept that item? Let me check my annals."
  5: 0x0177 [0x23] WAIT_FOR_DIALOG_INTERACTION
  6: 0x0178 [0x1C] WAIT(60* ticks)
  7: 0x017B [0x1D] PRINT_EVENT_MESSAGE(message_id=18173*)
    → "Why, yes I can! % can be stored with $1."
  8: 0x017E [0x23] WAIT_FOR_DIALOG_INTERACTION
  9: 0x017F [0x02] IF !(Work_Zone[4] < 0*) GOTO 0x018B
 10: 0x0187 [0x1D] PRINT_EVENT_MESSAGE(message_id=18174*)
    → "Why, it looks as if you have $1 located in your [inventory/Mog Safe/Mog Safe 2/Mog House storage/Mog Locker/Mog Satchel/Mog Sack/Mog Case/Mog Wardrobe/Mog Wardrobe 2/Mog Wardrobe 3/Mog Wardrobe 4/Mog Wardrobe 5/Mog Wardrobe 6/Mog Wardrobe 7/Mog Wardrobe 8/Recycle Bin]!"
 11: 0x018A [0x23] WAIT_FOR_DIALOG_INTERACTION
 12: 0x018B [0x1B] RETURN
```

#### Data or dead code:

```
# Dead code (unreachable instructions):
     0x001F [0x03] ExtData[1]->WorkLocal[6] = Work_Zone[2]
     0x0024 [0x03] ExtData[1]->WorkLocal[9] = Work_Zone[7]
     0x0029 [0x03] Work_Zone_1700[10] = Work_Zone[8]
     0x002E [0x03] Work_Zone_1700[11] = Work_Zone[9]
     0x0033 [0x1E] EventEntity looks at LocalPlayer and starts talking
     0x0038 [0x1D] PRINT_EVENT_MESSAGE(message_id=18132*)
    → "Welcome to the MHMU's porter service, kupo! Which of your burdensome belongings shall I take off your hands today?"
     0x003B [0x23] WAIT_FOR_DIALOG_INTERACTION
     0x003C [0x05] ExtData[1]->WorkLocal[1] = 1
     0x003F [0x02] IF !(ExtData[1]->WorkLocal[1] == 1*) GOTO 0x0081
     0x0047 [0x24] CREATE_DIALOG(message_id=18133*, default_option=0*, option_flags=0*)
    → "Do something, kupo? [Porter service?/Buy a storage slip./No, thank you.]"
     0x004E [0x25] WAIT_DIALOG_SELECT()
     0x004F [0x02] IF !(Work_Zone[0] == 0*) GOTO 0x005D
     0x0057 [0x1A] CALL_SUBROUTINE(address=0x018C)
     0x005A [0x01] GOTO 0x007E
     0x005D [0x02] IF !(Work_Zone[0] == 1*) GOTO 0x006B
     0x0065 [0x1A] CALL_SUBROUTINE(address=0x0200)
     0x0068 [0x01] GOTO 0x007E
     0x006B [0x02] IF !(Work_Zone[0] == 2*) GOTO 0x007E
     0x0073 [0x06] ExtData[1]->WorkLocal[1] = 0
     0x0076 [0x03] Work_Zone[1] = 1073741824*
     0x007B [0x01] GOTO 0x007E
     0x007E [0x01] GOTO 0x003F
     0x0081 [0x1B] RETURN
     0x0082 [0x1E] EventEntity looks at LocalPlayer and starts talking
     0x0087 [0x42] SET_CLI_EVENT_CANCEL_DATA()
     0x0088 [0x02] IF !(Work_Zone[3] == 1*) GOTO 0x0097
     0x0090 [0x1D] PRINT_EVENT_MESSAGE(message_id=18169*)
    → "$0 [variety/varieties] of item, is it? Very well! Your precious property is safe with me, kupo!"
     0x0093 [0x23] WAIT_FOR_DIALOG_INTERACTION
     0x0094 [0x01] GOTO 0x009B
     0x0097 [0x1D] PRINT_EVENT_MESSAGE(message_id=18168*)
    → "$0, yes? Very well! Your precious property is safe with me, kupo!"
     0x009A [0x23] WAIT_FOR_DIALOG_INTERACTION
     0x009B [0x1B] RETURN
     0x009C [0x1E] EventEntity looks at LocalPlayer and starts talking
     0x00A1 [0x03] ExtData[1]->WorkLocal[13] = Work_Zone[2]
     0x00A6 [0x03] ExtData[1]->WorkLocal[14] = Work_Zone[3]
     0x00AB [0x03] ExtData[1]->WorkLocal[15] = Work_Zone[4]
     0x00B0 [0x03] ExtData[1]->WorkLocal[16] = Work_Zone[5]
     0x00B5 [0x03] ExtData[1]->WorkLocal[17] = Work_Zone[6]
     0x00BA [0x03] ExtData[1]->WorkLocal[18] = Work_Zone[7]
     0x00BF [0x03] ExtData[1]->WorkLocal[11] = Work_Zone[9]
     0x00C4 [0x3E] IF !(Work_Zone[8] bit 0*) GOTO 0x00D3
     0x00CB [0x03] ExtData[1]->WorkLocal[25] = 1*
     0x00D0 [0x01] GOTO 0x00D8
     0x00D3 [0x03] ExtData[1]->WorkLocal[25] = 0*
     0x00D8 [0x9D] ExtData[1]->WorkLocal[12] = 0x0951[ExtData[1]->WorkLocal[11]] // Read WORD
     0x00E0 [0x02] IF !(ExtData[1]->WorkLocal[25] == 1*) GOTO 0x00F0
     0x00E8 [0x48] [System] [18177*]:
    → "0: $0 1: $1 2: $2 3: $3"
     0x00EB [0x23] WAIT_FOR_DIALOG_INTERACTION
     0x00EC [0x48] [System] [18178*]:
    → "4: $4 5: $5 6: $6 7: $7"
     0x00EF [0x23] WAIT_FOR_DIALOG_INTERACTION
     0x00F0 [0x03] Work_Zone[5] = ExtData[1]->WorkLocal[12]
     0x00F5 [0x03] Work_Zone_1700[24] = ExtData[1]->WorkLocal[12]
     0x00FA [0x1D] PRINT_EVENT_MESSAGE(message_id=18162*)
    → "Is that $3 I see, kupo?"
     0x00FD [0x23] WAIT_FOR_DIALOG_INTERACTION
     0x00FE [0x05] ExtData[1]->WorkLocal[1] = 1
     0x0101 [0x02] IF !(ExtData[1]->WorkLocal[1] == 1*) GOTO 0x015A
     0x0109 [0x03] ExtData[1]->WorkLocal[10] = 0*
     0x010E [0x1A] CALL_SUBROUTINE(address=0x06A6)
     0x0111 [0x02] IF !(ExtData[1]->WorkLocal[21] == 0*) GOTO 0x0120
     0x0119 [0x3C] SET_BIT_FLAG_CONDITIONAL(target_work_offset=ExtData[1]->WorkLocal[10], bit_index_work_offset=0*, condition_work_offset=1*)
     0x0120 [0x24] CREATE_DIALOG(message_id=18163*, default_option=0*, option_flags=ExtData[1]->WorkLocal[10])
    → "What will you do? [Retrieve an item./Confirm storable items./Nothing.]"
     0x0127 [0x25] WAIT_DIALOG_SELECT()
     0x0128 [0x02] IF !(Work_Zone[0] == 0*) GOTO 0x0136
     0x0130 [0x1A] CALL_SUBROUTINE(address=0x04D5)
     0x0133 [0x01] GOTO 0x0157
     0x0136 [0x02] IF !(Work_Zone[0] == 1*) GOTO 0x0144
     0x013E [0x1A] CALL_SUBROUTINE(address=0x0396)
     0x0141 [0x01] GOTO 0x0157
     0x0144 [0x02] IF !(Work_Zone[0] == 2*) GOTO 0x0157
     0x014C [0x03] Work_Zone[1] = 1073741824*
     0x0151 [0x06] ExtData[1]->WorkLocal[1] = 0
     0x0154 [0x01] GOTO 0x0157
     0x0157 [0x01] GOTO 0x0101
     0x015A [0x1B] RETURN
     0x015B [0x1E] EventEntity looks at LocalPlayer and starts talking
     0x0160 [0x1D] PRINT_EVENT_MESSAGE(message_id=18167*)
    → "Kupo? I'm already taking care of that item for you."
     0x0163 [0x23] WAIT_FOR_DIALOG_INTERACTION
     0x0164 [0x1B] RETURN
     0x0165 [0x1E] EventEntity looks at LocalPlayer and starts talking
     0x016A [0x1D] PRINT_EVENT_MESSAGE(message_id=18170*)
    → "Is that a Magian insignia I see on that $0? You'll have to abandon your trial before I can take it off your hands, kupo."
     0x016D [0x23] WAIT_FOR_DIALOG_INTERACTION
     0x016E [0x1B] RETURN
# Dead code (unreachable instructions):
     0x018C [0x1D] PRINT_EVENT_MESSAGE(message_id=18134*)
    → "Is your gobbiebag splitting at the seams? Mog Safe spilling over? Why, an accomplished adventurer like yourself surely has more stuff than you know what to do with."
     0x018F [0x23] WAIT_FOR_DIALOG_INTERACTION
     0x0190 [0x1D] PRINT_EVENT_MESSAGE(message_id=18135*)
    → "That's where I come in, kupo. I'll gladly hold onto your prized possessions, freeing you space to gather up even grander goodies."
     0x0193 [0x23] WAIT_FOR_DIALOG_INTERACTION
     0x0194 [0xCC] ITEM_INFO_WINDOW_HANDLER(case=0x01 - Open item info window (with chase), check_value=29312*, buffer1=0*, buffer2=0*, buffer3=0*)
     0x019E [0x1D] PRINT_EVENT_MESSAGE(message_id=18136*)
    → "To make use of my services, first you'll need to buy one of these storage slips for the low, low fee of $19 gil."
     0x01A1 [0x23] WAIT_FOR_DIALOG_INTERACTION
     0x01A2 [0x93] DISPLAY_ITEM_INFO(item_id=0*)
     0x01A5 [0xCC] ITEM_INFO_WINDOW_HANDLER(case=0x01 - Open item info window (with chase), check_value=29315*, buffer1=0*, buffer2=0*, buffer3=0*)
     0x01AF [0x1D] PRINT_EVENT_MESSAGE(message_id=18137*)
    → "Storage slips come in numerous varieties, kupo, each corresponding to a different type of item."
     0x01B2 [0x23] WAIT_FOR_DIALOG_INTERACTION
     0x01B3 [0x93] DISPLAY_ITEM_INFO(item_id=0*)
     0x01B6 [0xCC] ITEM_INFO_WINDOW_HANDLER(case=0x01 - Open item info window (with chase), check_value=29322*, buffer1=0*, buffer2=0*, buffer3=0*)
     0x01C0 [0x1D] PRINT_EVENT_MESSAGE(message_id=18138*)
    → "You'll want to peruse the fine print closely, so you don't end up paying good gil for a scrap of parchment useless for the particular item you wish to store."
     0x01C3 [0x23] WAIT_FOR_DIALOG_INTERACTION
     0x01C4 [0x93] DISPLAY_ITEM_INFO(item_id=0*)
     0x01C7 [0x1D] PRINT_EVENT_MESSAGE(message_id=18139*)
    → "Not that we moogles would object to that sort of donation, kupo."
     0x01CA [0x23] WAIT_FOR_DIALOG_INTERACTION
     0x01CB [0x1D] PRINT_EVENT_MESSAGE(message_id=18140*)
    → "Choose the item you wish to entrust, then trade it to me along with a single storage slip. I will take the item and return the slip to you, marked with an invisible seal."
     0x01CE [0x23] WAIT_FOR_DIALOG_INTERACTION
     0x01CF [0x1D] PRINT_EVENT_MESSAGE(message_id=18141*)
    → "Invisible to you, at least. It's plain as day to us moogles, so don't even think of trying to pull one over on us, kupo."
     0x01D2 [0x23] WAIT_FOR_DIALOG_INTERACTION
     0x01D3 [0x1D] PRINT_EVENT_MESSAGE(message_id=18142*)
    → "When it comes time to retrieve your item, just trade to me a single storage slip--any slip--once again."
     0x01D6 [0x23] WAIT_FOR_DIALOG_INTERACTION
     0x01D7 [0x1D] PRINT_EVENT_MESSAGE(message_id=18143*)
    → "I will present you with a list of all the items currently in my care, and you may choose the one you wish to withdraw. Simple as that, kupo!"
     0x01DA [0x23] WAIT_FOR_DIALOG_INTERACTION
     0x01DB [0x1D] PRINT_EVENT_MESSAGE(message_id=18144*)
    → "What's more, no additional transaction fees will be incurred! Pretty generous of us for a change, no?"
     0x01DE [0x23] WAIT_FOR_DIALOG_INTERACTION
     0x01DF [0x1D] PRINT_EVENT_MESSAGE(message_id=18145*)
    → "Now I bet you're wondering what the catch is, kupo. So as not to disappoint you, there are a few!"
     0x01E2 [0x23] WAIT_FOR_DIALOG_INTERACTION
     0x01E3 [0x1D] PRINT_EVENT_MESSAGE(message_id=18146*)
    → "For one, any signed items will lose their signatures if you store them with me."
     0x01E6 [0x23] WAIT_FOR_DIALOG_INTERACTION
     0x01E7 [0x1D] PRINT_EVENT_MESSAGE(message_id=18147*)
    → "Why, you say? Hey, even we moogles aren't perfect! It's better for both of us if you keep your most precious possessions close at hand, kupo."
     0x01EA [0x23] WAIT_FOR_DIALOG_INTERACTION
     0x01EB [0x1D] PRINT_EVENT_MESSAGE(message_id=18148*)
    → "Now listen up, because there's another catch, and it's a doozy."
     0x01EE [0x23] WAIT_FOR_DIALOG_INTERACTION
     0x01EF [0x1D] PRINT_EVENT_MESSAGE(message_id=18149*)
    → "If you lose your storage slip, I won't be able to return your item. Ever. No ifs, ands, or buts! No "I'm sorry, Mister Porter Moogle, it'll never happen again!" Rules are rules, kupo, and someone has to keep them."
     0x01F2 [0x23] WAIT_FOR_DIALOG_INTERACTION
     0x01F3 [0x1D] PRINT_EVENT_MESSAGE(message_id=18150*)
    → "Last, but not least, I can't accept equipment bearing Magian trial insignia."
     0x01F6 [0x23] WAIT_FOR_DIALOG_INTERACTION
     0x01F7 [0x1D] PRINT_EVENT_MESSAGE(message_id=18151*)
    → "If you have such an item that you're simply dying to entrust to me, you'll have to abandon your trial first, kupo."
     0x01FA [0x23] WAIT_FOR_DIALOG_INTERACTION
     0x01FB [0x1D] PRINT_EVENT_MESSAGE(message_id=18152*)
    → "And that's all there is to it. This humble moogle can hardly wait to serve you!"
     0x01FE [0x23] WAIT_FOR_DIALOG_INTERACTION
     0x01FF [0x1B] RETURN
     0x0200 [0x05] ExtData[1]->WorkLocal[36] = 1
     0x0203 [0x03] Work_Zone_1700[8] = 1*
     0x0208 [0x03] Work_Zone_1700[9] = 40*
     0x020D [0x15] Work_Zone_1700[9] /= 16*
     0x0212 [0x3F] ExtData[1]->WorkLocal[0] = 40* % 16*
     0x0219 [0x02] IF !(ExtData[1]->WorkLocal[0] == 0*) GOTO 0x0224
     0x0221 [0x0B] Work_Zone_1700[9]++
     0x0224 [0x03] ExtData[1]->WorkLocal[38] = Work_Zone_1700[9]
     0x0229 [0x02] IF !(ExtData[1]->WorkLocal[36] == 1*) GOTO 0x031E
     0x0231 [0x03] Work_Zone_1700[9] = ExtData[1]->WorkLocal[38]
     0x0236 [0x03] ExtData[1]->WorkLocal[10] = 0*
     0x023B [0x02] IF !(Work_Zone_1700[8] == 1*) GOTO 0x0252
     0x0243 [0x3C] SET_BIT_FLAG_CONDITIONAL(target_work_offset=ExtData[1]->WorkLocal[10], bit_index_work_offset=0*, condition_work_offset=1*)
     0x024A [0x03] ExtData[1]->WorkLocal[3] = 16*
     0x024F [0x01] GOTO 0x0261
     0x0252 [0x02] IF !(Work_Zone_1700[8] == Work_Zone_1700[9]) GOTO 0x0261
     0x025A [0x3C] SET_BIT_FLAG_CONDITIONAL(target_work_offset=ExtData[1]->WorkLocal[10], bit_index_work_offset=17*, condition_work_offset=1*)
     0x0261 [0x03] ExtData[1]->WorkLocal[2] = 0*
     0x0266 [0x1A] CALL_SUBROUTINE(address=0x08E0)
     0x0269 [0x02] IF !(ExtData[1]->WorkLocal[2] >= 16*) GOTO 0x02C1
     0x0271 [0x03] ExtData[1]->WorkLocal[5] = Work_Zone_1700[8]
     0x0276 [0x0C] ExtData[1]->WorkLocal[5]--
     0x0279 [0x14] ExtData[1]->WorkLocal[5] *= 16*
     0x027E [0x07] ExtData[1]->WorkLocal[5] += ExtData[1]->WorkLocal[2]
     0x0283 [0x9D] ExtData[1]->WorkLocal[0] = 0x0951[ExtData[1]->WorkLocal[5]] // Read WORD
     0x028B [0x02] IF !(ExtData[1]->WorkLocal[0] == 0*) GOTO 0x02A5
     0x0293 [0x03] ExtData[1]->WorkLocal[0] = ExtData[1]->WorkLocal[2]
     0x0298 [0x0B] ExtData[1]->WorkLocal[0]++
     0x029B [0x3C] SET_BIT_FLAG_CONDITIONAL(target_work_offset=ExtData[1]->WorkLocal[10], bit_index_work_offset=ExtData[1]->WorkLocal[0], condition_work_offset=1*)
     0x02A2 [0x01] GOTO 0x02BB
     0x02A5 [0x03] ExtData[1]->WorkLocal[5] = ExtData[1]->WorkLocal[2]
     0x02AA [0x0B] ExtData[1]->WorkLocal[5]++
     0x02AD [0xD4] MAP_QUERY_WINDOW: Prepare buffer configuration A (buffer=[05 00 00 00 9D 05 11 09...])
     0x02CB [0x00] END_REQSTACK()
     0x02CC [0x10] 0* <<= 0xD800
     0x02D1 [0x02] IF !(0x080C UNKNOWN_COND_11 0x0117) GOTO 0x0203
     0x02D9 [0x00] END_REQSTACK()
     0x02DA [0x10] 17* <<= 0xE600
     0x02DF [0x02] IF !(0x080B UNKNOWN_COND_11 0x0117) GOTO 0x0203
     0x02E7 [0x00] END_REQSTACK()
     0x02E8 [0x10] 18* <<= 0xF400
     0x02ED [0x02] IF !(0x2406 UNKNOWN_COND_11 0x0100) GOTO 0x0303
     0x02F5 [0x00] END_REQSTACK()
     0x02F6 [0x00] END_REQSTACK()
     0x02F7 [0x08] 0x0C17 -= ExtData[1]->WorkLocal[0]
     0x02FC [0x14] ExtData[1]->WorkLocal[0] *= 16*
     0x0301 [0x07] ExtData[1]->WorkLocal[0] += Work_Zone[0]
     0x0306 [0x0C] ExtData[1]->WorkLocal[0]--
     0x0309 [0x03] ExtData[1]->WorkLocal[11] = ExtData[1]->WorkLocal[0]
     0x030E [0x03] ExtData[1]->WorkLocal[37] = Work_Zone_1700[8]
     0x0313 [0x1A] CALL_SUBROUTINE(address=0x031F)
     0x0316 [0x03] Work_Zone_1700[8] = ExtData[1]->WorkLocal[37]
     0x031B [0x01] GOTO 0x0229
     0x031E [0x1B] RETURN
     0x031F [0x05] ExtData[1]->WorkLocal[40] = 1
     0x0322 [0x02] IF !(ExtData[1]->WorkLocal[40] == 1*) GOTO 0x0395
     0x032A [0x9D] Work_Zone_1700[24] = 0x0951[ExtData[1]->WorkLocal[11]] // Read WORD
     0x0332 [0xCC] ITEM_INFO_WINDOW_HANDLER(case=0x01 - Open item info window (with chase), check_value=Work_Zone_1700[24], buffer1=0*, buffer2=0*, buffer3=0*)
     0x033C [0x1D] PRINT_EVENT_MESSAGE(message_id=18154*)
    → "$32 will cost you $19 gil. Do we have a deal, kupo?"
     0x033F [0x23] WAIT_FOR_DIALOG_INTERACTION
     0x0340 [0x93] DISPLAY_ITEM_INFO(item_id=0*)
     0x0343 [0x24] CREATE_DIALOG(message_id=18155*, default_option=0*, option_flags=0*)
    → "Deal, kupo? (Current gil: $18). [Check storable items./Deal./No deal.]"
     0x034A [0x25] WAIT_DIALOG_SELECT()
     0x034B [0x02] IF !(Work_Zone[0] == 0*) GOTO 0x0359
     0x0353 [0x1A] CALL_SUBROUTINE(address=0x0396)
     0x0356 [0x01] GOTO 0x0392
     0x0359 [0x02] IF !(Work_Zone[0] == 1*) GOTO 0x0384
     0x0361 [0x06] ExtData[1]->WorkLocal[40] = 0
     0x0364 [0x06] ExtData[1]->WorkLocal[36] = 0
     0x0367 [0x06] ExtData[1]->WorkLocal[1] = 0
     0x036A [0x03] Work_Zone[1] = 0*
     0x036F [0x40] SET_BIT_WORK_RANGE(start_bit=0*, end_bit=3*, target=Work_Zone[1], source=1*)
     0x0378 [0x40] SET_BIT_WORK_RANGE(start_bit=4*, end_bit=9*, target=Work_Zone[1], source=ExtData[1]->WorkLocal[11])
     0x0381 [0x01] GOTO 0x0392
     0x0384 [0x02] IF !(Work_Zone[0] == 2*) GOTO 0x0392
     0x038C [0x06] ExtData[1]->WorkLocal[40] = 0
     0x038F [0x01] GOTO 0x0392
     0x0392 [0x01] GOTO 0x0322
     0x0395 [0x1B] RETURN
     0x0396 [0x1A] CALL_SUBROUTINE(address=0x09B1)
     0x0399 [0x03] Work_Zone_1700[9] = Work_Zone_1700[23]
     0x039E [0x15] Work_Zone_1700[9] /= 16*
     0x03A3 [0x3F] ExtData[1]->WorkLocal[0] = Work_Zone_1700[23] % 16*
     0x03AA [0x02] IF !(ExtData[1]->WorkLocal[0] == 0*) GOTO 0x03B5
     0x03B2 [0x0B] Work_Zone_1700[9]++
     0x03B5 [0x03] Work_Zone_1700[8] = 1*
     0x03BA [0x03] ExtData[1]->WorkLocal[24] = 0*
     0x03BF [0x03] ExtData[1]->WorkLocal[42] = 0*
     0x03C4 [0x05] ExtData[1]->WorkLocal[41] = 1
     0x03C7 [0x02] IF !(ExtData[1]->WorkLocal[41] == 1*) GOTO 0x04D4
     0x03CF [0x03] ExtData[1]->WorkLocal[10] = 0*
     0x03D4 [0x1A] CALL_SUBROUTINE(address=0x08E0)
     0x03D7 [0x03] ExtData[1]->WorkLocal[2] = 0*
     0x03DC [0x03] ExtData[1]->WorkLocal[3] = 0*
     0x03E1 [0x03] ExtData[1]->WorkLocal[24] = Work_Zone_1700[8]
     0x03E6 [0x0C] ExtData[1]->WorkLocal[24]--
     0x03E9 [0x14] ExtData[1]->WorkLocal[24] *= 16*
     0x03EE [0x03] ExtData[1]->WorkLocal[43] = 0*
     0x03F3 [0x02] IF !(ExtData[1]->WorkLocal[2] >= 192*) GOTO 0x043A
     0x03FB [0x9D] ExtData[1]->WorkLocal[2] = Work_Zone[0*][ExtData[1]->WorkLocal[0]] // Via remapped space
     0x0403 [0x02] IF !(ExtData[1]->WorkLocal[0] <= 0*) GOTO 0x0434
     0x040B [0x02] IF !(ExtData[1]->WorkLocal[43] < ExtData[1]->WorkLocal[24]) GOTO 0x0431
     0x0413 [0x9D] 0x0911[ExtData[1]->WorkLocal[3] * 2] = ExtData[1]->WorkLocal[0] // Write WORD
     0x041B [0x0B] ExtData[1]->WorkLocal[3]++
     0x041E [0x02] IF !(ExtData[1]->WorkLocal[3] < 16*) GOTO 0x042B
     0x0426 [0x03] ExtData[1]->WorkLocal[2] = 192*
     0x042B [0xD4] MAP_QUERY_WINDOW: Prepare buffer configuration A (buffer=[03 00 00 00 0B 2B 00 0B...])
     0x0449 [0x11] ExtData[1]->WorkLocal[9] >>= 0x0200
     0x044E [0x00] END_REQSTACK()
     0x044F [0x02] IF !(ExtData[1]->WorkLocal[0] == 0*) GOTO 0x0466
     0x0457 [0x03] ExtData[1]->WorkLocal[0] = ExtData[1]->WorkLocal[2]
     0x045C [0x0B] ExtData[1]->WorkLocal[0]++
     0x045F [0x3C] SET_BIT_FLAG_CONDITIONAL(target_work_offset=ExtData[1]->WorkLocal[10], bit_index_work_offset=ExtData[1]->WorkLocal[0], condition_work_offset=1*)
     0x0466 [0x0B] ExtData[1]->WorkLocal[2]++
     0x0469 [0x01] GOTO 0x043F
     0x046C [0x02] IF !(Work_Zone_1700[8] == 1*) GOTO 0x047B
     0x0474 [0x3C] SET_BIT_FLAG_CONDITIONAL(target_work_offset=ExtData[1]->WorkLocal[10], bit_index_work_offset=0*, condition_work_offset=1*)
     0x047B [0x02] IF !(Work_Zone_1700[8] == Work_Zone_1700[9]) GOTO 0x048A
     0x0483 [0x3C] SET_BIT_FLAG_CONDITIONAL(target_work_offset=ExtData[1]->WorkLocal[10], bit_index_work_offset=17*, condition_work_offset=1*)
     0x048A [0xD4] MAP_QUERY_WINDOW: Test and open query window (flag=0x33, work=[0x2A80, 0x0A00, 0x2500])
     0x0493 [0x02] IF !(Work_Zone[0] == 0*) GOTO 0x04A6
     0x049B [0x0C] Work_Zone_1700[8]--
     0x049E [0x03] ExtData[1]->WorkLocal[42] = 0*
     0x04A3 [0x01] GOTO 0x04D1
     0x04A6 [0x02] IF !(Work_Zone[0] == 17*) GOTO 0x04B9
     0x04AE [0x0B] Work_Zone_1700[8]++
     0x04B1 [0x03] ExtData[1]->WorkLocal[42] = 0*
     0x04B6 [0x01] GOTO 0x04D1
     0x04B9 [0x02] IF !(Work_Zone[0] == 18*) GOTO 0x04CC
     0x04C1 [0x06] ExtData[1]->WorkLocal[41] = 0
     0x04C4 [0x03] ExtData[1]->WorkLocal[42] = 0*
     0x04C9 [0x01] GOTO 0x04D1
     0x04CC [0x03] ExtData[1]->WorkLocal[42] = Work_Zone[0]
     0x04D1 [0x01] GOTO 0x03C7
     0x04D4 [0x1B] RETURN
     0x04D5 [0x1A] CALL_SUBROUTINE(address=0x09B1)
     0x04D8 [0x05] ExtData[1]->WorkLocal[44] = 1
     0x04DB [0x03] ExtData[1]->WorkLocal[48] = 0*
     0x04E0 [0x03] Work_Zone_1700[9] = ExtData[1]->WorkLocal[21]
     0x04E5 [0x15] Work_Zone_1700[9] /= 16*
     0x04EA [0x3F] ExtData[1]->WorkLocal[0] = ExtData[1]->WorkLocal[21] % 16*
     0x04F1 [0x02] IF !(ExtData[1]->WorkLocal[0] == 0*) GOTO 0x04FC
     0x04F9 [0x0B] Work_Zone_1700[9]++
     0x04FC [0x03] Work_Zone_1700[8] = 1*
     0x0501 [0x02] IF !(ExtData[1]->WorkLocal[44] == 1*) GOTO 0x06A5
     0x0509 [0x03] ExtData[1]->WorkLocal[10] = 131070*
     0x050E [0x03] ExtData[1]->WorkLocal[45] = 1*
     0x0513 [0x03] ExtData[1]->WorkLocal[46] = Work_Zone_1700[8]
     0x0518 [0x0C] ExtData[1]->WorkLocal[46]--
     0x051B [0x14] ExtData[1]->WorkLocal[46] *= 16*
     0x0520 [0x03] ExtData[1]->WorkLocal[3] = 0*
     0x0525 [0x03] ExtData[1]->WorkLocal[47] = 0*
     0x052A [0x1A] CALL_SUBROUTINE(address=0x08E0)
     0x052D [0x02] IF !(ExtData[1]->WorkLocal[3] >= 6*) GOTO 0x05A7
     0x0535 [0x9D] ExtData[1]->WorkLocal[19] = 0x0931[ExtData[1]->WorkLocal[3]] // Read WORD
     0x053D [0x03] ExtData[1]->WorkLocal[2] = 0*
     0x0542 [0x02] IF !(ExtData[1]->WorkLocal[2] >= 32*) GOTO 0x05A1
     0x054A [0x02] IF !(ExtData[1]->WorkLocal[45] >= 17*) GOTO 0x059B
     0x0552 [0x3E] IF !(ExtData[1]->WorkLocal[19] bit ExtData[1]->WorkLocal[2]) GOTO 0x059B
     0x0559 [0x02] IF !(ExtData[1]->WorkLocal[47] < ExtData[1]->WorkLocal[46]) GOTO 0x0598
     0x0561 [0x03] ExtData[1]->WorkLocal[0] = ExtData[1]->WorkLocal[3]
     0x0566 [0x14] ExtData[1]->WorkLocal[0] *= 32*
     0x056B [0x07] ExtData[1]->WorkLocal[0] += ExtData[1]->WorkLocal[2]
     0x0570 [0x9D] ExtData[1]->WorkLocal[0] = Work_Zone[0*][ExtData[1]->WorkLocal[20]] // Via remapped space
     0x0578 [0x03] ExtData[1]->WorkLocal[24] = ExtData[1]->WorkLocal[45]
     0x057D [0x0C] ExtData[1]->WorkLocal[24]--
     0x0580 [0x9D] 0x0911[ExtData[1]->WorkLocal[24] * 2] = ExtData[1]->WorkLocal[20] // Write WORD
     0x0588 [0x3D] CLEAR_BIT_FLAG_CONDITIONAL(target_work_offset=ExtData[1]->WorkLocal[10], bit_index_work_offset=ExtData[1]->WorkLocal[45], condition_work_offset=1*)
     0x058F [0xD4] MAP_QUERY_WINDOW: Prepare buffer configuration A (buffer=[2D 00 14 00 0B 2D 00 0B...])
     0x05AD [0xB6] ENTITY_APPEARANCE_HANDLER(case=Hands, value=0x0A3C)
     0x05B1 [0x00] END_REQSTACK()
     0x05B2 [0x03] 0x0180 = 0x0280
     0x05B7 [0x08] 0x0917 -= ExtData[1]->WorkLocal[23]
     0x05BC [0xC5] LOAD_SCHEDULED_TASK_ALT3: Load scheduler 0x000A0030 for entities [Unknown NPC (ID: 2150236170/0x802A000A), Unknown NPC (ID: 47480833/0x02D48001)], work=0x3C05, param=32823
     0x05CD [0x25] WAIT_DIALOG_SELECT()
     0x05CE [0x02] IF !(Work_Zone[0] == 0*) GOTO 0x05E1
     0x05D6 [0x0C] Work_Zone_1700[8]--
     0x05D9 [0x03] ExtData[1]->WorkLocal[48] = 0*
     0x05DE [0x01] GOTO 0x06A2
     0x05E1 [0x02] IF !(Work_Zone[0] == 17*) GOTO 0x05F4
     0x05E9 [0x0B] Work_Zone_1700[8]++
     0x05EC [0x03] ExtData[1]->WorkLocal[48] = 0*
     0x05F1 [0x01] GOTO 0x06A2
     0x05F4 [0x02] IF !(Work_Zone[0] == 18*) GOTO 0x0607
     0x05FC [0x06] ExtData[1]->WorkLocal[44] = 0
     0x05FF [0x03] ExtData[1]->WorkLocal[48] = 0*
     0x0604 [0x01] GOTO 0x06A2
     0x0607 [0x02] IF !(Work_Zone[0] >= 17*) GOTO 0x06A2
     0x060F [0x03] ExtData[1]->WorkLocal[0] = Work_Zone_1700[8]
     0x0614 [0x0C] ExtData[1]->WorkLocal[0]--
     0x0617 [0x14] ExtData[1]->WorkLocal[0] *= 16*
     0x061C [0x07] ExtData[1]->WorkLocal[0] += Work_Zone[0]
     0x0621 [0x0C] ExtData[1]->WorkLocal[0]--
     0x0624 [0x03] Work_Zone[1] = ExtData[1]->WorkLocal[0]
     0x0629 [0x43] SEND_EVENT_UPDATE: Send pending tag to server (packet 0x005B)
     0x062B [0x43] SEND_EVENT_UPDATE: Check pending flag (skip if not pending)
     0x062D [0x02] IF !(ExtData[1]->WorkLocal[25] == 1*) GOTO 0x063D
     0x0635 [0x48] [System] [18177*]:
    → "0: $0 1: $1 2: $2 3: $3"
     0x0638 [0x23] WAIT_FOR_DIALOG_INTERACTION
     0x0639 [0x48] [System] [18178*]:
    → "4: $4 5: $5 6: $6 7: $7"
     0x063C [0x23] WAIT_FOR_DIALOG_INTERACTION
     0x063D [0x03] ExtData[1]->WorkLocal[13] = Work_Zone[2]
     0x0642 [0x03] ExtData[1]->WorkLocal[14] = Work_Zone[3]
     0x0647 [0x03] ExtData[1]->WorkLocal[15] = Work_Zone[4]
     0x064C [0x03] ExtData[1]->WorkLocal[16] = Work_Zone[5]
     0x0651 [0x03] ExtData[1]->WorkLocal[17] = Work_Zone[6]
     0x0656 [0x03] ExtData[1]->WorkLocal[18] = Work_Zone[7]
     0x065B [0x1A] CALL_SUBROUTINE(address=0x06A6)
     0x065E [0x02] IF !(ExtData[1]->WorkLocal[21] <= 0*) GOTO 0x069F
     0x0666 [0x03] Work_Zone_1700[9] = ExtData[1]->WorkLocal[21]
     0x066B [0x15] Work_Zone_1700[9] /= 16*
     0x0670 [0x3F] ExtData[1]->WorkLocal[0] = ExtData[1]->WorkLocal[21] % 16*
     0x0677 [0x02] IF !(ExtData[1]->WorkLocal[0] == 0*) GOTO 0x0682
     0x067F [0x0B] Work_Zone_1700[9]++
     0x0682 [0x02] IF !(Work_Zone_1700[8] <= Work_Zone_1700[9]) GOTO 0x0697
     0x068A [0x03] Work_Zone_1700[8] = Work_Zone_1700[9]
     0x068F [0x03] ExtData[1]->WorkLocal[48] = 0*
     0x0694 [0x01] GOTO 0x069C
     0x0697 [0x03] ExtData[1]->WorkLocal[48] = Work_Zone[0]
     0x069C [0x01] GOTO 0x06A2
     0x069F [0x06] ExtData[1]->WorkLocal[44] = 0
     0x06A2 [0x01] GOTO 0x0501
     0x06A5 [0x1B] RETURN
     0x06A6 [0x1A] CALL_SUBROUTINE(address=0x09B1)
     0x06A9 [0x03] ExtData[1]->WorkLocal[21] = 0*
     0x06AE [0x03] ExtData[1]->WorkLocal[3] = 0*
     0x06B3 [0x03] ExtData[1]->WorkLocal[24] = 0*
     0x06B8 [0x02] IF !(ExtData[1]->WorkLocal[3] >= 6*) GOTO 0x06FE
     0x06C0 [0x9D] ExtData[1]->WorkLocal[19] = 0x0931[ExtData[1]->WorkLocal[3]] // Read WORD
     0x06C8 [0x03] ExtData[1]->WorkLocal[2] = 0*
     0x06CD [0x02] IF !(ExtData[1]->WorkLocal[2] >= 32*) GOTO 0x06F8
     0x06D5 [0x3E] IF !(ExtData[1]->WorkLocal[19] bit ExtData[1]->WorkLocal[2]) GOTO 0x06EF
     0x06DC [0x9D] ExtData[1]->WorkLocal[24] = Work_Zone[0*][ExtData[1]->WorkLocal[0]] // Via remapped space
     0x06E4 [0x02] IF !(ExtData[1]->WorkLocal[0] == 0*) GOTO 0x06EF
     0x06EC [0x0B] ExtData[1]->WorkLocal[21]++
     0x06EF [0x0B] ExtData[1]->WorkLocal[2]++
     0x06F2 [0x0B] ExtData[1]->WorkLocal[24]++
     0x06F5 [0x01] GOTO 0x06CD
     0x06F8 [0x0B] ExtData[1]->WorkLocal[3]++
     0x06FB [0x01] GOTO 0x06B8
     0x06FE [0x1B] RETURN
     0x06FF [0x02] IF !(ExtData[1]->WorkLocal[0] == 16139*) GOTO 0x070F
     0x0707 [0x03] ExtData[1]->WorkLocal[0] = 0*
     0x070C [0x01] GOTO 0x08DF
     0x070F [0x02] IF !(ExtData[1]->WorkLocal[0] == 14579*) GOTO 0x071F
     0x0717 [0x03] ExtData[1]->WorkLocal[0] = 0*
     0x071C [0x01] GOTO 0x08DF
     0x071F [0x02] IF !(ExtData[1]->WorkLocal[0] == 15003*) GOTO 0x072F
     0x0727 [0x03] ExtData[1]->WorkLocal[0] = 0*
     0x072C [0x01] GOTO 0x08DF
     0x072F [0x02] IF !(ExtData[1]->WorkLocal[0] == 15660*) GOTO 0x073F
     0x0737 [0x03] ExtData[1]->WorkLocal[0] = 0*
     0x073C [0x01] GOTO 0x08DF
     0x073F [0x02] IF !(ExtData[1]->WorkLocal[0] == 15747*) GOTO 0x074F
     0x0747 [0x03] ExtData[1]->WorkLocal[0] = 0*
     0x074C [0x01] GOTO 0x08DF
     0x074F [0x02] IF !(ExtData[1]->WorkLocal[0] == 11476*) GOTO 0x075F
     0x0757 [0x03] ExtData[1]->WorkLocal[0] = 0*
     0x075C [0x01] GOTO 0x08DF
     0x075F [0x02] IF !(ExtData[1]->WorkLocal[0] == 11303*) GOTO 0x076F
     0x0767 [0x03] ExtData[1]->WorkLocal[0] = 0*
     0x076C [0x01] GOTO 0x08DF
     0x076F [0x02] IF !(ExtData[1]->WorkLocal[0] == 15036*) GOTO 0x077F
     0x0777 [0x03] ExtData[1]->WorkLocal[0] = 0*
     0x077C [0x01] GOTO 0x08DF
     0x077F [0x02] IF !(ExtData[1]->WorkLocal[0] == 16358*) GOTO 0x078F
     0x0787 [0x03] ExtData[1]->WorkLocal[0] = 0*
     0x078C [0x01] GOTO 0x08DF
     0x078F [0x02] IF !(ExtData[1]->WorkLocal[0] == 11394*) GOTO 0x079F
     0x0797 [0x03] ExtData[1]->WorkLocal[0] = 0*
     0x079C [0x01] GOTO 0x08DF
     0x079F [0x02] IF !(ExtData[1]->WorkLocal[0] == 27682*) GOTO 0x07AF
     0x07A7 [0x03] ExtData[1]->WorkLocal[0] = 0*
     0x07AC [0x01] GOTO 0x08DF
     0x07AF [0x02] IF !(ExtData[1]->WorkLocal[0] == 27826*) GOTO 0x07BF
     0x07B7 [0x03] ExtData[1]->WorkLocal[0] = 0*
     0x07BC [0x01] GOTO 0x08DF
     0x07BF [0x02] IF !(ExtData[1]->WorkLocal[0] == 27962*) GOTO 0x07CF
     0x07C7 [0x03] ExtData[1]->WorkLocal[0] = 0*
     0x07CC [0x01] GOTO 0x08DF
     0x07CF [0x02] IF !(ExtData[1]->WorkLocal[0] == 28109*) GOTO 0x07DF
     0x07D7 [0x03] ExtData[1]->WorkLocal[0] = 0*
     0x07DC [0x01] GOTO 0x08DF
     0x07DF [0x02] IF !(ExtData[1]->WorkLocal[0] == 28242*) GOTO 0x07EF
     0x07E7 [0x03] ExtData[1]->WorkLocal[0] = 0*
     0x07EC [0x01] GOTO 0x08DF
     0x07EF [0x02] IF !(ExtData[1]->WorkLocal[0] == 27703*) GOTO 0x07FF
     0x07F7 [0x03] ExtData[1]->WorkLocal[0] = 0*
     0x07FC [0x01] GOTO 0x08DF
     0x07FF [0x02] IF !(ExtData[1]->WorkLocal[0] == 27847*) GOTO 0x080F
     0x0807 [0x03] ExtData[1]->WorkLocal[0] = 0*
     0x080C [0x01] GOTO 0x08DF
     0x080F [0x02] IF !(ExtData[1]->WorkLocal[0] == 27983*) GOTO 0x081F
     0x0817 [0x03] ExtData[1]->WorkLocal[0] = 0*
     0x081C [0x01] GOTO 0x08DF
     0x081F [0x02] IF !(ExtData[1]->WorkLocal[0] == 28130*) GOTO 0x082F
     0x0827 [0x03] ExtData[1]->WorkLocal[0] = 0*
     0x082C [0x01] GOTO 0x08DF
     0x082F [0x02] IF !(ExtData[1]->WorkLocal[0] == 28263*) GOTO 0x083F
     0x0837 [0x03] ExtData[1]->WorkLocal[0] = 0*
     0x083C [0x01] GOTO 0x08DF
     0x083F [0x02] IF !(ExtData[1]->WorkLocal[0] == 23059*) GOTO 0x084F
     0x0847 [0x03] ExtData[1]->WorkLocal[0] = 0*
     0x084C [0x01] GOTO 0x08DF
     0x084F [0x02] IF !(ExtData[1]->WorkLocal[0] == 23126*) GOTO 0x085F
     0x0857 [0x03] ExtData[1]->WorkLocal[0] = 0*
     0x085C [0x01] GOTO 0x08DF
     0x085F [0x02] IF !(ExtData[1]->WorkLocal[0] == 23193*) GOTO 0x086F
     0x0867 [0x03] ExtData[1]->WorkLocal[0] = 0*
     0x086C [0x01] GOTO 0x08DF
     0x086F [0x02] IF !(ExtData[1]->WorkLocal[0] == 23260*) GOTO 0x087F
     0x0877 [0x03] ExtData[1]->WorkLocal[0] = 0*
     0x087C [0x01] GOTO 0x08DF
     0x087F [0x02] IF !(ExtData[1]->WorkLocal[0] == 23327*) GOTO 0x088F
     0x0887 [0x03] ExtData[1]->WorkLocal[0] = 0*
     0x088C [0x01] GOTO 0x08DF
     0x088F [0x02] IF !(ExtData[1]->WorkLocal[0] == 23394*) GOTO 0x089F
     0x0897 [0x03] ExtData[1]->WorkLocal[0] = 0*
     0x089C [0x01] GOTO 0x08DF
     0x089F [0x02] IF !(ExtData[1]->WorkLocal[0] == 23461*) GOTO 0x08AF
     0x08A7 [0x03] ExtData[1]->WorkLocal[0] = 0*
     0x08AC [0x01] GOTO 0x08DF
     0x08AF [0x02] IF !(ExtData[1]->WorkLocal[0] == 23528*) GOTO 0x08BF
     0x08B7 [0x03] ExtData[1]->WorkLocal[0] = 0*
     0x08BC [0x01] GOTO 0x08DF
     0x08BF [0x02] IF !(ExtData[1]->WorkLocal[0] == 23595*) GOTO 0x08CF
     0x08C7 [0x03] ExtData[1]->WorkLocal[0] = 0*
     0x08CC [0x01] GOTO 0x08DF
     0x08CF [0x02] IF !(ExtData[1]->WorkLocal[0] == 23662*) GOTO 0x08DF
     0x08D7 [0x03] ExtData[1]->WorkLocal[0] = 0*
     0x08DC [0x01] GOTO 0x08DF
     0x08DF [0x1B] RETURN
     0x08E0 [0x06] Work_Zone[2] = 0
     0x08E3 [0x06] Work_Zone[3] = 0
     0x08E6 [0x06] Work_Zone[4] = 0
     0x08E9 [0x06] Work_Zone[5] = 0
     0x08EC [0x06] Work_Zone[6] = 0
     0x08EF [0x06] Work_Zone[7] = 0
     0x08F2 [0x06] Work_Zone[8] = 0
     0x08F5 [0x06] Work_Zone[9] = 0
     0x08F8 [0x06] Work_Zone_1700[0] = 0
     0x08FB [0x06] Work_Zone_1700[1] = 0
     0x08FE [0x06] Work_Zone_1700[2] = 0
     0x0901 [0x06] Work_Zone_1700[3] = 0
     0x0904 [0x06] Work_Zone_1700[4] = 0
     0x0907 [0x06] Work_Zone_1700[5] = 0
     0x090A [0x06] Work_Zone_1700[6] = 0
     0x090D [0x06] Work_Zone_1700[7] = 0
     0x0910 [0x1B] RETURN
     0x0911 [0x02] IF !(0x0310 == 0x0410) GOTO 0x1005
     0x0919 [0x06] 0x0710 = 0
     0x091C [0x10] Work_Zone[8] <<= Work_Zone[9]
     0x0921 [0x00] END_REQSTACK()
     0x0922 [0x17] Work_Zone_1700[1] = cos(Work_Zone_1700[2]) * Work_Zone_1700[3]
     0x0929 [0x04] DEPRECATED_NOP(unused=0x0517)
     0x092C [0x17] Work_Zone_1700[6] = cos(Work_Zone_1700[7]) * ExtData[1]->WorkLocal[13]
     0x0933 [0x0E] 0x0F00 |= Work_Zone[0]
     0x0938 [0x00] END_REQSTACK()
     0x0939 [0x11] 0x1200 >>= 0x0300
     0x093E [0x80] LOAD_WAIT(entity=Unknown NPC (ID: 1736707/0x001A8003))
     0x0943 [0x1B] RETURN
     0x0944 [0x00] END_REQSTACK()
     0x0945 [0x1C] WAIT(0x1D00 ticks)
     0x0948 [0x00] END_REQSTACK()
     0x0949 [0x1E] EventEntity looks at Unknown NPC (ID: 536878848/0x20001F00) and starts talking
     0x094E [0x00] END_REQSTACK()
     0x094F [0x21] END_EVENT
     0x0950 [0x00] END_REQSTACK()
     0x0951 [0x14] 0x5680 *= 0x5780
     0x0956 [0x80] LOAD_WAIT(entity=Unknown NPC (ID: 2153283606/0x80588016))
     0x095B [0x59] UPDATE_ENTITY_DATA: Unknown mode 128
     0x095F [0x5B] LOAD_EXT_SCHEDULER: Load scheduler 0x61806080 with entities [Unknown NPC (ID: 411065728/0x18805D80), Unknown NPC (ID: 1602248320/0x5F805E80)], work=0x5C80
     0x096E [0x80] LOAD_WAIT(entity=Unknown NPC (ID: 2154004578/0x80638062))
     0x0973 [0x64] CALCULATE_DISTANCE: 0x6580 = distance between point1(0x6680, 0x6780) and point2(0x6880, 0x6980)
     0x097E [0x80] LOAD_WAIT(entity=Unknown NPC (ID: 2154528874/0x806B806A))
     0x0983 [0x6C] FADE_ENTITY_COLOR(entity_id=Unknown NPC (ID: 1853910400/0x6E806D80), end_alpha=0x6F80, fade_time=0x7080)
     0x098C [0x80] LOAD_WAIT(entity=Unknown NPC (ID: 2154987633/0x80728071))
     0x0991 [0x73] Unknown NPC (ID: 58721152/0x03800380) casts magic 0x0380 on Unknown NPC (ID: 58721152/0x03800380)
     0x099C [0x80] LOAD_WAIT(entity=Unknown NPC (ID: 2147713027/0x80038003))
     0x09A1 [0x03] 0x0380 = 0x0380
     0x09A6 [0x80] LOAD_WAIT(entity=Unknown NPC (ID: 2147713027/0x80038003))
     0x09AB [0x03] 0x0380 = 0x0380
     0x09B0 [0x80] LOAD_WAIT(entity=Unknown NPC (ID: 186062339/0x0B171603))
     0x09B5 [0x00] END_REQSTACK()
     0x09B6 [0x7A] VM_CONTROL: Reset VM for Unknown NPC (ID: 17723670/0x010E7116)
     0x09BC [0x27] REQ_SET(priority=0x0B, entity_id=Unknown NPC (ID: 17723670/0x010E7116), tag_num=0x05)
     0x09C3 [0x29] REQ_SET_WAIT(priority=0x0B, entity_id=Unknown NPC (ID: 17723670/0x010E7116), tag_num=0x05)
     0x09CA [0x2A] GET_REQ_LEVEL(level=11, entity_id=Unknown NPC (ID: 17723670/0x010E7116))
     0x09D0 [0x1B] RETURN
```
