# 17723393 - Nonterene

## Common Data

| Field            | Value                         |
|------------------|-------------------------------|
| Zone             | Northern San d'Oria (ID: 231) |
| Block Size       | 768 bytes                     |
| Total Events     | 8                             |
| References Count | 31                            |

## List of Events

| Event ID                 | Entrypoint   |   Size |   Instructions |
|--------------------------|--------------|--------|----------------|
| [65535](#event-65535)    | 0x0000       |      1 |              1 |
| [535](#event-535)        | 0x0001       |      1 |              1 |
| [65535.1](#event-655351) | 0x0002       |      5 |              3 |
| [65535.2](#event-655352) | 0x0007       |      6 |              2 |
| [65535.3](#event-655353) | 0x000D       |     10 |              2 |
| [502](#event-502)        | 0x0017       |      1 |              1 |
| [503](#event-503)        | 0x0018       |    522 |            122 |
| [523](#event-523)        | 0x0222       |     50 |             16 |

## DAT References (imed_data)

|   Index | Hex Value   |   Dec Value |
|---------|-------------|-------------|
|       0 | 0x2B78      |       11128 |
|       1 | 0xFFFFE7C9  |  4294961097 |
|       2 | 0x3982      |       14722 |
|       3 | 0x0000      |           0 |
|       4 | 0x036E      |         878 |
|       5 | 0x0014      |          20 |
|       6 | 0x2B8D      |       11149 |
|       7 | 0x2B8E      |       11150 |
|       8 | 0x0001      |           1 |
|       9 | 0x2B8F      |       11151 |
|      10 | 0x001E      |          30 |
|      11 | 0x2B90      |       11152 |
|      12 | 0x0083      |         131 |
|      13 | 0x2B91      |       11153 |
|      14 | 0x2B92      |       11154 |
|      15 | 0x2B93      |       11155 |
|      16 | 0x2B94      |       11156 |
|      17 | 0x0002      |           2 |
|      18 | 0x2B96      |       11158 |
|      19 | 0x0003      |           3 |
|      20 | 0x2B97      |       11159 |
|      21 | 0x2B99      |       11161 |
|      22 | 0x2B9A      |       11162 |
|      23 | 0x2B9B      |       11163 |
|      24 | 0x2B9C      |       11164 |
|      25 | 0x2B9D      |       11165 |
|      26 | 0x2B9E      |       11166 |
|      27 | 0x2B9F      |       11167 |
|      28 | 0x2BA8      |       11176 |
|      29 | 0x2BA9      |       11177 |
|      30 | 0x2BAA      |       11178 |

## String References

- **11128**: [Cutscene] Never before has [he/she] set foot within the Elvaan capital, but [he/she] is resolved to let nothing stand in [his/her] way.
- **11149**: You seem lost, recruit. Tell me if there's anything you wish to know.
- **11150**: Something you'd like to know? [Nothing in particular./I want to go out and fight!/I want to go shopping./I want to know more about adventuring.]
- **11151**: Just arrived and you're already aching to leave, eh? Listen, the land is wild beyond our gates, filled with fiends and their ilk.
- **11152**: If you must go outside, head through Ranperre Gate. Allow me to explain.
- **11153**: Right now we're on the Parade Grounds. Find the gate to the west.
- **11154**: Step through and pass the furniture store and the inn. Take the gate on the left.
- **11155**: Make another left down the stairs. You'll see Ranperre Gate beyond.
- **11156**: Should you need directions, ask those around you. Our citizens are friendly, for the most part.
- **11158**: For weapons and basic supplies, take a walk through the city and you'll find all that you need.
- **11159**: Recruits... Don't know which way to hold a sword and you think you're ready. Well, what would you like to know?
- **11161**: What would you like to know about? [Helping people./Hunting monsters./Making easy money./Working for my country.]
- **11162**: Ah, a commendable choice! I saw a lady in front of a house on Pikeman's Way who may be in need of assistance.
- **11163**: Novices... Don't know your own limits until a fiend beats it into your head for you. Very well. How about gathering some hides for the Tanners' Guild in Southern San d'Oria?
- **11164**: Southern San d'Oria is just beyond Victory Arch there. Pass through and go west. You'll find the Tanners' Guild soon enough.
- **11165**: Easy money, eh? Typical! I can't promise ease, but check the lumberyard on Laborman's Way. They should have some work for you.
- **11166**: Go through the gate to the west and pass the Phoenix Perch Inn. You should see another gate there to your right. That gate leads to Laborman's Way.
- **11167**: Ah, a commendable choice! Each entrance to the city has a gatehouse. Tell the guards there you wish to work for the glory of the Kingdom!
- **11176**: A gambler? Oh, you mean Varchet. He went strolling through Victory Arch just a while ago.
- **11177**: He's probably at some tavern by now. You'd best stay away from gamblers like him.
- **11178**: He was a knight, once, and always loved games of chance. They say his habit eventually cost him his knighthood.

## Events

### Event 65535

#### Metadata

| Field        | Value   |
|--------------|---------|
| Entrypoint   | 0x0000  |
| Data Size    | 1 bytes |
| Instructions | 1       |

```
      00 01 02 03 04 05 06 07  08 09 0A 0B 0C 0D 0E 0F
      -- -- -- -- -- -- -- --  -- -- -- -- -- -- -- --
0000: 00                                                .               
```

#### Opcodes

```
  0: 0x0000 [0x00] END_REQSTACK()
```

### Event 535

#### Metadata

| Field        | Value   |
|--------------|---------|
| Entrypoint   | 0x0001  |
| Data Size    | 1 bytes |
| Instructions | 1       |

```
      00 01 02 03 04 05 06 07  08 09 0A 0B 0C 0D 0E 0F
      -- -- -- -- -- -- -- --  -- -- -- -- -- -- -- --
0000:    00                                              .              
```

#### Opcodes

```
  0: 0x0001 [0x00] END_REQSTACK()
```

### Event 65535.1

#### Metadata

| Field        | Value   |
|--------------|---------|
| Entrypoint   | 0x0002  |
| Data Size    | 5 bytes |
| Instructions | 3       |

```
      00 01 02 03 04 05 06 07  08 09 0A 0B 0C 0D 0E 0F
      -- -- -- -- -- -- -- --  -- -- -- -- -- -- -- --
0000:       48 00 80 23 00                                H..#.         
```

#### Opcodes

```
  0: 0x0002 [0x48] [System] [11128*]:
    → "[Cutscene] Never before has [he/she] set foot within the Elvaan capital, but [he/she] is resolved to let nothing stand in [his/her] way."
  1: 0x0005 [0x23] WAIT_FOR_DIALOG_INTERACTION
  2: 0x0006 [0x00] END_REQSTACK()
```

### Event 65535.2

#### Metadata

| Field        | Value   |
|--------------|---------|
| Entrypoint   | 0x0007  |
| Data Size    | 6 bytes |
| Instructions | 2       |

```
      00 01 02 03 04 05 06 07  08 09 0A 0B 0C 0D 0E 0F
      -- -- -- -- -- -- -- --  -- -- -- -- -- -- -- --
0000:                      5E  69 64 6C 30 00                  ^idl0.   
```

#### Opcodes

```
  0: 0x0007 [0x5E] EventEntity goes idle (kills current action) (animation: "idl0")
  1: 0x000C [0x00] END_REQSTACK()
```

### Event 65535.3

#### Metadata

| Field        | Value    |
|--------------|----------|
| Entrypoint   | 0x000D   |
| Data Size    | 10 bytes |
| Instructions | 2        |

```
      00 01 02 03 04 05 06 07  08 09 0A 0B 0C 0D 0E 0F
      -- -- -- -- -- -- -- --  -- -- -- -- -- -- -- --
0000:                                         37 01 80               7..
0010: 02 80 03 80 04 80 00                              .......         
```

#### Opcodes

```
  0: 0x000D [0x37] UPDATE_EVENT_POSITION_AND_DIR: x=-6.199*, z=14.722*, y=0.000*, direction=77.2°*
  1: 0x0016 [0x00] END_REQSTACK()
```

### Event 502

#### Metadata

| Field        | Value   |
|--------------|---------|
| Entrypoint   | 0x0017  |
| Data Size    | 1 bytes |
| Instructions | 1       |

```
      00 01 02 03 04 05 06 07  08 09 0A 0B 0C 0D 0E 0F
      -- -- -- -- -- -- -- --  -- -- -- -- -- -- -- --
0010:                      00                                  .        
```

#### Opcodes

```
  0: 0x0017 [0x00] END_REQSTACK()
```

### Event 503

#### Metadata

| Field        | Value     |
|--------------|-----------|
| Entrypoint   | 0x0018    |
| Data Size    | 522 bytes |
| Instructions | 25        |

```
      00 01 02 03 04 05 06 07  08 09 0A 0B 0C 0D 0E 0F
      -- -- -- -- -- -- -- --  -- -- -- -- -- -- -- --
0010:                          1E F0 FF FF 7F 6F 70 66          .....opf
0020: 05 80 01 70 0E 01 01 70  0E 01 74 6C 6B 30 1D 06  ...p...p..tlk0..
0030: 80 23 24 07 80 03 80 03  80 25 02 00 10 03 80 00  .#$......%......
0040: 46 00 21 01 4E 01 02 00  10 08 80 00 F6 00 42 66  F.!.N.........Bf
0050: 05 80 01 70 0E 01 01 70  0E 01 74 6C 6B 30 1D 09  ...p...p..tlk0..
0060: 80 23 1C 0A 80 1D 0B 80  23 1C 0A 80 46 01 45 0C  .#......#...F.E.
0070: 80 F0 FF FF 7F F0 FF FF  7F 73 30 30 38 03 80 1D  .........s008...
0080: 0D 80 23 1C 0A 80 55 0C  80 F0 FF FF 7F F0 FF FF  ..#...U.........
0090: 7F 73 30 30 38 45 0C 80  F0 FF FF 7F F0 FF FF 7F  .s008E..........
00A0: 73 30 30 39 03 80 1D 0E  80 23 1C 0A 80 55 0C 80  s009.....#...U..
00B0: F0 FF FF 7F F0 FF FF 7F  73 30 30 39 45 0C 80 F0  ........s009E...
00C0: FF FF 7F F0 FF FF 7F 73  30 31 30 03 80 1D 0F 80  .......s010.....
00D0: 23 1C 0A 80 55 0C 80 F0  FF FF 7F F0 FF FF 7F 73  #...U..........s
00E0: 30 31 30 46 00 1D 10 80  23 5E 69 64 6C 30 1C 0A  010F....#^idl0..
00F0: 80 21 00 01 4E 01 02 00  10 11 80 00 25 01 66 05  .!..N.......%.f.
0100: 80 01 70 0E 01 01 70 0E  01 74 6C 6B 30 1D 12 80  ..p...p..tlk0...
0110: 23 1C 0A 80 1D 10 80 23  5E 69 64 6C 30 1C 0A 80  #......#^idl0...
0120: 21 00 01 4E 01 02 00 10  13 80 00 4E 01 66 05 80  !..N.......N.f..
0130: 01 70 0E 01 01 70 0E 01  74 6C 6B 30 1D 14 80 23  .p...p..tlk0...#
0140: 5E 69 64 6C 30 1C 0A 80  01 4E 01 01 4E 01 24 15  ^idl0....N..N.$.
0150: 80 03 80 03 80 25 02 00  10 03 80 00 85 01 66 05  .....%........f.
0160: 80 01 70 0E 01 01 70 0E  01 74 6C 6B 30 1D 16 80  ..p...p..tlk0...
0170: 23 1C 0A 80 1D 10 80 23  5E 69 64 6C 30 1C 0A 80  #......#^idl0...
0180: 21 00 01 20 02 02 00 10  08 80 00 BB 01 66 05 80  !.. .........f..
0190: 01 70 0E 01 01 70 0E 01  74 6C 6B 30 1D 17 80 23  .p...p..tlk0...#
01A0: 1C 0A 80 1D 18 80 23 1C  0A 80 1D 10 80 23 5E 69  ......#......#^i
01B0: 64 6C 30 1C 0A 80 21 00  01 20 02 02 00 10 11 80  dl0...!.. ......
01C0: 00 F1 01 66 05 80 01 70  0E 01 01 70 0E 01 74 6C  ...f...p...p..tl
01D0: 6B 30 1D 19 80 23 1C 0A  80 1D 1A 80 23 1C 0A 80  k0...#......#...
01E0: 1D 10 80 23 5E 69 64 6C  30 1C 0A 80 21 00 01 20  ...#^idl0...!.. 
01F0: 02 02 00 10 13 80 00 20  02 66 05 80 01 70 0E 01  ....... .f...p..
0200: 01 70 0E 01 74 6C 6B 30  1D 1B 80 23 1C 0A 80 1D  .p..tlk0...#....
0210: 10 80 23 5E 69 64 6C 30  1C 0A 80 21 00 01 20 02  ..#^idl0...!.. .
0220: 21 00                                             !.              
```

#### Opcodes

```
  0: 0x0018 [0x1E] EventEntity looks at LocalPlayer and starts talking
  1: 0x001D [0x6F] WAIT_FRAME_DELAY: Yield until WaitTime reaches zero
  2: 0x001E [0x70] WAIT_ENTITY_RENDER_FLAG: Wait while EventEntity->Render.Flags3 bit 2 is set (cancel turn if not)
  3: 0x001F [0x66] LOAD_EXT_SCHEDULER_MAIN: Load scheduler "tlk0" with entities [Nonterene (ID: 17723393/0x010E7001), Nonterene (ID: 17723393/0x010E7001)], work=20*
  4: 0x002E [0x1D] PRINT_EVENT_MESSAGE(message_id=11149*)
    → "You seem lost, recruit. Tell me if there's anything you wish to know."
  5: 0x0031 [0x23] WAIT_FOR_DIALOG_INTERACTION
  6: 0x0032 [0x24] CREATE_DIALOG(message_id=11150*, default_option=0*, option_flags=0*)
    → "Something you'd like to know? [Nothing in particular./I want to go out and fight!/I want to go shopping./I want to know more about adventuring.]"
  7: 0x0039 [0x25] WAIT_DIALOG_SELECT()
  8: 0x003A [0x02] IF !(Work_Zone[0] == 0*) GOTO 0x0046
  9: 0x0042 [0x21] END_EVENT

SUBROUTINE_014E:
 10: 0x014E [0x24] CREATE_DIALOG(message_id=11161*, default_option=0*, option_flags=0*)
    → "What would you like to know about? [Helping people./Hunting monsters./Making easy money./Working for my country.]"
 11: 0x0155 [0x25] WAIT_DIALOG_SELECT()
 12: 0x0156 [0x02] IF !(Work_Zone[0] == 0*) GOTO 0x0185
 13: 0x015E [0x66] LOAD_EXT_SCHEDULER_MAIN: Load scheduler "tlk0" with entities [Nonterene (ID: 17723393/0x010E7001), Nonterene (ID: 17723393/0x010E7001)], work=20*
 14: 0x016D [0x1D] PRINT_EVENT_MESSAGE(message_id=11162*)
    → "Ah, a commendable choice! I saw a lady in front of a house on Pikeman's Way who may be in need of assistance."
 15: 0x0170 [0x23] WAIT_FOR_DIALOG_INTERACTION
 16: 0x0171 [0x1C] WAIT(30* ticks)
 17: 0x0174 [0x1D] PRINT_EVENT_MESSAGE(message_id=11156*)
    → "Should you need directions, ask those around you. Our citizens are friendly, for the most part."
 18: 0x0177 [0x23] WAIT_FOR_DIALOG_INTERACTION
 19: 0x0178 [0x5E] EventEntity goes idle (kills current action) (animation: "idl0")
 20: 0x017D [0x1C] WAIT(30* ticks)
 21: 0x0180 [0x21] END_EVENT
 22: 0x0181 [0x00] END_REQSTACK()

SUBROUTINE_0220:
 23: 0x0220 [0x21] END_EVENT
 24: 0x0221 [0x00] END_REQSTACK()
```

#### Data or dead code:

```
# Dead code (unreachable instructions):
     0x0043 [0x01] GOTO 0x014E
     0x00F3 [0x01] GOTO 0x014E
     0x0122 [0x01] GOTO 0x014E
     0x014B [0x01] GOTO 0x014E
# Dead code (unreachable instructions):
     0x0182 [0x01] GOTO 0x0220
     0x01B8 [0x01] GOTO 0x0220
     0x01EE [0x01] GOTO 0x0220
     0x021D [0x01] GOTO 0x0220
```

### Event 523

#### Metadata

| Field        | Value    |
|--------------|----------|
| Entrypoint   | 0x0222   |
| Data Size    | 50 bytes |
| Instructions | 16       |

```
      00 01 02 03 04 05 06 07  08 09 0A 0B 0C 0D 0E 0F
      -- -- -- -- -- -- -- --  -- -- -- -- -- -- -- --
0220:       1E F0 FF FF 7F 6F  70 66 05 80 01 70 0E 01    .....opf...p..
0230: 01 70 0E 01 74 6C 6B 30  1D 1C 80 23 1C 0A 80 1D  .p..tlk0...#....
0240: 1D 80 23 1C 0A 80 1D 1E  80 23 5E 69 64 6C 30 1C  ..#......#^idl0.
0250: 0A 80 21 00                                       ..!.            
```

#### Opcodes

```
  0: 0x0222 [0x1E] EventEntity looks at LocalPlayer and starts talking
  1: 0x0227 [0x6F] WAIT_FRAME_DELAY: Yield until WaitTime reaches zero
  2: 0x0228 [0x70] WAIT_ENTITY_RENDER_FLAG: Wait while EventEntity->Render.Flags3 bit 2 is set (cancel turn if not)
  3: 0x0229 [0x66] LOAD_EXT_SCHEDULER_MAIN: Load scheduler "tlk0" with entities [Nonterene (ID: 17723393/0x010E7001), Nonterene (ID: 17723393/0x010E7001)], work=20*
  4: 0x0238 [0x1D] PRINT_EVENT_MESSAGE(message_id=11176*)
    → "A gambler? Oh, you mean Varchet. He went strolling through Victory Arch just a while ago."
  5: 0x023B [0x23] WAIT_FOR_DIALOG_INTERACTION
  6: 0x023C [0x1C] WAIT(30* ticks)
  7: 0x023F [0x1D] PRINT_EVENT_MESSAGE(message_id=11177*)
    → "He's probably at some tavern by now. You'd best stay away from gamblers like him."
  8: 0x0242 [0x23] WAIT_FOR_DIALOG_INTERACTION
  9: 0x0243 [0x1C] WAIT(30* ticks)
 10: 0x0246 [0x1D] PRINT_EVENT_MESSAGE(message_id=11178*)
    → "He was a knight, once, and always loved games of chance. They say his habit eventually cost him his knighthood."
 11: 0x0249 [0x23] WAIT_FOR_DIALOG_INTERACTION
 12: 0x024A [0x5E] EventEntity goes idle (kills current action) (animation: "idl0")
 13: 0x024F [0x1C] WAIT(30* ticks)
 14: 0x0252 [0x21] END_EVENT
 15: 0x0253 [0x00] END_REQSTACK()
```
