# 17723435 - Mevreauche

## Common Data

| Field            | Value                         |
|------------------|-------------------------------|
| Zone             | Northern San d'Oria (ID: 231) |
| Block Size       | 7640 bytes                    |
| Total Events     | 38                            |
| References Count | 223                           |

## List of Events

| Event ID                 | Entrypoint   |   Size |   Instructions |
|--------------------------|--------------|--------|----------------|
| [65535](#event-65535)    | 0x0000       |      1 |              1 |
| [626](#event-626)        | 0x0001       |   1985 |            475 |
| [627](#event-627)        | 0x07C2       |    277 |             70 |
| [935](#event-935)        | 0x08D7       |    131 |             24 |
| [942](#event-942)        | 0x095A       |    134 |             24 |
| [936](#event-936)        | 0x09E0       |    124 |             33 |
| [937](#event-937)        | 0x0A5C       |    259 |             62 |
| [944](#event-944)        | 0x0B5F       |    225 |             49 |
| [959](#event-959)        | 0x0C40       |    267 |             60 |
| [989](#event-989)        | 0x0D4B       |    122 |             30 |
| [965](#event-965)        | 0x0DC5       |    176 |             39 |
| [964](#event-964)        | 0x0E75       |    235 |             52 |
| [966](#event-966)        | 0x0F60       |     78 |             16 |
| [938](#event-938)        | 0x0FAE       |    174 |             35 |
| [945](#event-945)        | 0x105C       |     95 |             27 |
| [960](#event-960)        | 0x10BB       |    142 |             32 |
| [990](#event-990)        | 0x1149       |    134 |             28 |
| [939](#event-939)        | 0x11CF       |    100 |             24 |
| [991](#event-991)        | 0x1233       |     91 |             15 |
| [949](#event-949)        | 0x128E       |     75 |             17 |
| [941](#event-941)        | 0x12D9       |    158 |             33 |
| [948](#event-948)        | 0x1377       |    127 |             25 |
| [963](#event-963)        | 0x13F6       |    184 |             35 |
| [993](#event-993)        | 0x14AE       |    102 |             20 |
| [994](#event-994)        | 0x1514       |    131 |             27 |
| [940](#event-940)        | 0x1597       |    786 |            146 |
| [16](#event-16)          | 0x18A9       |     28 |              5 |
| [0](#event-0)            | 0x18C5       |     28 |              5 |
| [73](#event-73)          | 0x18E1       |      1 |              1 |
| [65535.1](#event-655351) | 0x18E2       |     44 |              6 |
| [65535.2](#event-655352) | 0x190E       |     29 |              3 |
| [65535.3](#event-655353) | 0x192B       |      9 |              3 |
| [65535.4](#event-655354) | 0x1934       |     29 |              3 |
| [65535.5](#event-655355) | 0x1951       |     29 |              3 |
| [65535.6](#event-655356) | 0x196E       |     29 |              3 |
| [74](#event-74)          | 0x198B       |      1 |              1 |
| [65535.7](#event-655357) | 0x198C       |     26 |              6 |
| [65535.8](#event-655358) | 0x19A6       |     14 |              4 |

## DAT References (imed_data)

|   Index | Hex Value   |   Dec Value |
|---------|-------------|-------------|
|       0 | 0x0009      |           9 |
|       1 | 0x000A      |          10 |
|       2 | 0x0002      |           2 |
|       3 | 0x0000      |           0 |
|       4 | 0x0010      |          16 |
|       5 | 0x0014      |          20 |
|       6 | 0x1C14      |        7188 |
|       7 | 0x1C15      |        7189 |
|       8 | 0x1C16      |        7190 |
|       9 | 0x1C17      |        7191 |
|      10 | 0x1B7F      |        7039 |
|      11 | 0x0001      |           1 |
|      12 | 0x0031      |          49 |
|      13 | 0x0032      |          50 |
|      14 | 0x0015      |          21 |
|      15 | 0x1C18      |        7192 |
|      16 | 0x1C19      |        7193 |
|      17 | 0x0003      |           3 |
|      18 | 0x0033      |          51 |
|      19 | 0x0004      |           4 |
|      20 | 0x0034      |          52 |
|      21 | 0x0005      |           5 |
|      22 | 0x0035      |          53 |
|      23 | 0x0006      |           6 |
|      24 | 0x0036      |          54 |
|      25 | 0x0007      |           7 |
|      26 | 0x0037      |          55 |
|      27 | 0x0008      |           8 |
|      28 | 0x0038      |          56 |
|      29 | 0x1B80      |        7040 |
|      30 | 0x1B81      |        7041 |
|      31 | 0x006E      |         110 |
|      32 | 0x1BD5      |        7125 |
|      33 | 0x0046      |          70 |
|      34 | 0x1C0F      |        7183 |
|      35 | 0x1C10      |        7184 |
|      36 | 0x1C11      |        7185 |
|      37 | 0x1C12      |        7186 |
|      38 | 0x0064      |         100 |
|      39 | 0x4D4C      |       19788 |
|      40 | 0x1C0B      |        7179 |
|      41 | 0x1C0A      |        7178 |
|      42 | 0x07CC      |        1996 |
|      43 | 0x1C08      |        7176 |
|      44 | 0x1C09      |        7177 |
|      45 | 0x1C07      |        7175 |
|      46 | 0x1C05      |        7173 |
|      47 | 0x1C02      |        7170 |
|      48 | 0x1C03      |        7171 |
|      49 | 0x1C04      |        7172 |
|      50 | 0x1C06      |        7174 |
|      51 | 0x000B      |          11 |
|      52 | 0x000C      |          12 |
|      53 | 0x0078      |         120 |
|      54 | 0x000D      |          13 |
|      55 | 0x0082      |         130 |
|      56 | 0x1BD7      |        7127 |
|      57 | 0x1BD8      |        7128 |
|      58 | 0x1BD6      |        7126 |
|      59 | 0x1BCE      |        7118 |
|      60 | 0x1B4B      |        6987 |
|      61 | 0x1BD0      |        7120 |
|      62 | 0x1BD1      |        7121 |
|      63 | 0x1BD2      |        7122 |
|      64 | 0x1BD3      |        7123 |
|      65 | 0x1BD4      |        7124 |
|      66 | 0x1BCF      |        7119 |
|      67 | 0x000E      |          14 |
|      68 | 0x000F      |          15 |
|      69 | 0x008E      |         142 |
|      70 | 0x1B51      |        6993 |
|      71 | 0x1B77      |        7031 |
|      72 | 0x1B55      |        6997 |
|      73 | 0x1B54      |        6996 |
|      74 | 0x1B53      |        6995 |
|      75 | 0x1B52      |        6994 |
|      76 | 0x1BD9      |        7129 |
|      77 | 0x1BDA      |        7130 |
|      78 | 0x1BF6      |        7158 |
|      79 | 0x1BDB      |        7131 |
|      80 | 0x1C13      |        7187 |
|      81 | 0x1BDC      |        7132 |
|      82 | 0x1BDD      |        7133 |
|      83 | 0x1C0C      |        7180 |
|      84 | 0x1C0D      |        7181 |
|      85 | 0x1C0E      |        7182 |
|      86 | 0x00C9      |         201 |
|      87 | 0x1B4E      |        6990 |
|      88 | 0x4A85      |       19077 |
|      89 | 0x4A86      |       19078 |
|      90 | 0x4A95      |       19093 |
|      91 | 0x4A96      |       19094 |
|      92 | 0x4A76      |       19062 |
|      93 | 0x4A77      |       19063 |
|      94 | 0x4A78      |       19064 |
|      95 | 0x4A79      |       19065 |
|      96 | 0x4A7A      |       19066 |
|      97 | 0x4A7B      |       19067 |
|      98 | 0x4A7C      |       19068 |
|      99 | 0x4A7D      |       19069 |
|     100 | 0x4A7E      |       19070 |
|     101 | 0x4A0E      |       18958 |
|     102 | 0x4A0F      |       18959 |
|     103 | 0x4A10      |       18960 |
|     104 | 0x4A11      |       18961 |
|     105 | 0x4A7F      |       19071 |
|     106 | 0x4A80      |       19072 |
|     107 | 0x4A81      |       19073 |
|     108 | 0x4A82      |       19074 |
|     109 | 0x4A83      |       19075 |
|     110 | 0x4A84      |       19076 |
|     111 | 0x4A97      |       19095 |
|     112 | 0x4A98      |       19096 |
|     113 | 0x4A99      |       19097 |
|     114 | 0x4A9A      |       19098 |
|     115 | 0x4A9B      |       19099 |
|     116 | 0x4A9C      |       19100 |
|     117 | 0x4A9D      |       19101 |
|     118 | 0x4A9E      |       19102 |
|     119 | 0x4A9F      |       19103 |
|     120 | 0x4AA0      |       19104 |
|     121 | 0x4AA1      |       19105 |
|     122 | 0x4AAC      |       19116 |
|     123 | 0x4AAD      |       19117 |
|     124 | 0x4AAE      |       19118 |
|     125 | 0x4AAF      |       19119 |
|     126 | 0x4AB0      |       19120 |
|     127 | 0x4AB1      |       19121 |
|     128 | 0x4AB2      |       19122 |
|     129 | 0x4AB3      |       19123 |
|     130 | 0x4AB4      |       19124 |
|     131 | 0x4AB5      |       19125 |
|     132 | 0x4AB6      |       19126 |
|     133 | 0x4AB7      |       19127 |
|     134 | 0x4ABD      |       19133 |
|     135 | 0x4AD0      |       19152 |
|     136 | 0x4AD1      |       19153 |
|     137 | 0x4AD2      |       19154 |
|     138 | 0x4AD3      |       19155 |
|     139 | 0x4AD4      |       19156 |
|     140 | 0x4AD5      |       19157 |
|     141 | 0xFFFFFFFF  |  4294967295 |
|     142 | 0x4AC6      |       19142 |
|     143 | 0x4AC7      |       19143 |
|     144 | 0x4ABE      |       19134 |
|     145 | 0x4ABF      |       19135 |
|     146 | 0x4AC0      |       19136 |
|     147 | 0x4AC1      |       19137 |
|     148 | 0x40000000  |  1073741824 |
|     149 | 0x4AC2      |       19138 |
|     150 | 0x4AC3      |       19139 |
|     151 | 0x4AC4      |       19140 |
|     152 | 0x4AC5      |       19141 |
|     153 | 0x4AC8      |       19144 |
|     154 | 0x4AC9      |       19145 |
|     155 | 0x4ACA      |       19146 |
|     156 | 0x4A87      |       19079 |
|     157 | 0x003C      |          60 |
|     158 | 0x001E      |          30 |
|     159 | 0x4A88      |       19080 |
|     160 | 0x4A89      |       19081 |
|     161 | 0x4A8A      |       19082 |
|     162 | 0x4A8B      |       19083 |
|     163 | 0x4A8C      |       19084 |
|     164 | 0x4AA2      |       19106 |
|     165 | 0x4AA3      |       19107 |
|     166 | 0x4AA4      |       19108 |
|     167 | 0x4AA5      |       19109 |
|     168 | 0x4AA6      |       19110 |
|     169 | 0x4ACB      |       19147 |
|     170 | 0x4AD6      |       19158 |
|     171 | 0x4A8D      |       19085 |
|     172 | 0x4A8E      |       19086 |
|     173 | 0x4A8F      |       19087 |
|     174 | 0x4ADB      |       19163 |
|     175 | 0x4ADC      |       19164 |
|     176 | 0x4AAB      |       19115 |
|     177 | 0x4A90      |       19088 |
|     178 | 0x4A91      |       19089 |
|     179 | 0x4A92      |       19090 |
|     180 | 0x4A93      |       19091 |
|     181 | 0x4A94      |       19092 |
|     182 | 0x4AA7      |       19111 |
|     183 | 0x4AA8      |       19112 |
|     184 | 0x4AA9      |       19113 |
|     185 | 0x4AAA      |       19114 |
|     186 | 0x4ACC      |       19148 |
|     187 | 0x4ACD      |       19149 |
|     188 | 0x4ACE      |       19150 |
|     189 | 0x4ACF      |       19151 |
|     190 | 0x4AD7      |       19159 |
|     191 | 0x4AD8      |       19160 |
|     192 | 0x4AD9      |       19161 |
|     193 | 0x4ADA      |       19162 |
|     194 | 0x4ADD      |       19165 |
|     195 | 0x4ADE      |       19166 |
|     196 | 0x4ADF      |       19167 |
|     197 | 0x4AE0      |       19168 |
|     198 | 0x4AE1      |       19169 |
|     199 | 0x4AB8      |       19128 |
|     200 | 0x4AB9      |       19129 |
|     201 | 0x4ABA      |       19130 |
|     202 | 0x4ABB      |       19131 |
|     203 | 0x4ABC      |       19132 |
|     204 | 0x00C8      |         200 |
|     205 | 0x0013      |          19 |
|     206 | 0x001D      |          29 |
|     207 | 0x0027      |          39 |
|     208 | 0x003B      |          59 |
|     209 | 0x0045      |          69 |
|     210 | 0x1442E     |       82990 |
|     211 | 0x105B3     |       66995 |
|     212 | 0x04E1      |        1249 |
|     213 | 0x0D2D      |        3373 |
|     214 | 0xFFFFE073  |  4294959219 |
|     215 | 0x0487      |        1159 |
|     216 | 0xFFFFFED4  |  4294966996 |
|     217 | 0x00A3      |         163 |
|     218 | 0xFFFD0729  |  4294772521 |
|     219 | 0x23DE8     |      146920 |
|     220 | 0x2AF9      |       11001 |
|     221 | 0xFFFD0AC0  |  4294773440 |
|     222 | 0x228CF     |      141519 |

## String References

- **6987**: Join the [Fishermen's/Carpenters'/Blacksmiths'/Goldsmiths'/Weavers'/Tanners'/Boneworkers'/Alchemists'/Culinarians'] Guild? [Sign up./That's not why you're here.]
- **6990**: You are now recognized as [an amateur/a recruit/an initiate/a novice/an apprentice/a journeyman/a craftsman/an artisan/an adept/a veteran/an expert/an authority/a luminary/a master/a grandmaster/a legend] of the [Fishermen's/Carpenters'/Blacksmiths'/Goldsmiths'/Weavers'/Tanners'/Boneworkers'/Alchemists'/Culinarians'] Guild.
- **6993**: Necessary skills: [Fishing/Woodworking/Smithing/Goldsmithing/Clothcraft/Leatherworking/Bonecraft/Alchemy/Cooking][ /, Woodworking/, Smithing/, Goldsmithing/, Clothcraft/, Leatherworking/, Bonecraft/, Alchemy/, Cooking][ /, Woodworking/, Smithing/, Goldsmithing/, Clothcraft/, Leatherworking/, Bonecraft/, Alchemy/, Cooking][ /, & Woodworking/, & Smithing/, & Goldsmithing/, & Clothcraft/, & Leatherworking/, & Bonecraft/, & Alchemy/, & Cooking] Necessary crystal: $4 Necessary items:
- **6994**: $4 x $0 $5 x $0$0 $6 x $0 $7 x $0$3
- **6995**: $4 x $0 $5 x $0$0 $6 x $0
- **6996**: $4 x $0 $5 x $0$0
- **6997**: $4 x $0
- **7031**: Necessary skills: [Fishing/Woodworking/Smithing/Goldsmithing/Clothcraft/Leatherworking/Bonecraft/Alchemy/Cooking][ /, Woodworking/, Smithing/, Goldsmithing/, Clothcraft/, Leatherworking/, Bonecraft/, Alchemy/, Cooking][ /, Woodworking/, Smithing/, Goldsmithing/, Clothcraft/, Leatherworking/, Bonecraft/, Alchemy/, Cooking][ /, & Woodworking/, & Smithing/, & Goldsmithing/, & Clothcraft/, & Leatherworking/, & Bonecraft/, & Alchemy/, & Cooking] Necessary crystal: $4 Necessary key item: $3 Necessary items:
- **7039**: Renounce your rank at which guild? [None./Carpenters'./Blacksmiths'./Goldsmiths'./Weavers'./Tanners'./Boneworkers'./Alchemists'./Culinarians'.]
- **7040**: If you proceed, your rank in the [Carpenters'/Blacksmiths'/Goldsmiths'/Weavers'/Tanners'/Boneworkers'/Alchemists'/Culinarians'] Guild will return to that of [craftsman/artisan/adept], and your skill value will revert to the maximum for that level. This procedure cannot be undone, so please consider your decision carefully.
- **7041**: Renounce your rank as a [Carpenter/Blacksmith/Goldsmith/Weaver/Tanner/Boneworker/Alchemist/Culinarian]? [No, retain./Yes, renounce.]
- **7118**: This is the Blacksmiths' Guild, where skilled weapon and armorsmiths gather. Without us, a proud knight is but a paper tiger. Well, what is it, then?
- **7119**: Aha! A Bastok spy, are you? Many secrets we hold dear, and pigs will fly before I surrender them!
- **7120**: Bah, another adventurer... Devotion to our craft is in short supply of late. Here!
- **7121**: I'm sure you know, but that is a crystal, filled with incredible energy. No, not like blood; it is more akin to a block of coal.
- **7122**: You can synthesize crystals to make all sorts of things. Focus your will upon it, bring forth the heat, and transform the materials.
- **7123**: But not me! I'm not fond of using them; they're costly, and the process finishes too quickly. Yes, toil is what makes things dear!
- **7124**: Go and ask the others what materials to use. And, though it pains me to say it, you may learn much about smithing by visiting Bastok.
- **7125**: You still have much to learn. Even our newest apprentices are a step ahead of you.
- **7126**: You think you've reached the top? Your head is still in the clouds, young adventurer. Even I am still climbing...
- **7127**: I believe you are ready to move on to the next rank. Craft me $0.
- **7128**: Finish a quality piece, and I will teach you more.
- **7129**: Hmm... Well, not bad. I shall promote you to the rank of [amateur/recruit/initiate/novice/apprentice]. Do not rest, for the road ahead is long.
- **7130**: Yes... This will do. I hereby award you the rank of journeyman. Congratulations. We have high hopes for you.
- **7131**: Why, bless my bellows! A work of art, indeed! You shall henceforth be addressed as artisan. May you live up to that name.
- **7132**: Unbelievable that a mere adventurer like you could forge such fine steel. Reminds me of when I was your age...
- **7133**: I...I'm at a loss for words. You've more than proven yourself as a veteran of the Blacksmiths' Guild! Why, you're almost as good as I was when I was your age...almost.
- **7158**: Impressive! A precious piece of work, indeed! <Player>, I grant you the rank of craftsman. Continue to polish your skills, and there is no telling how far you may go.
- **7170**: You have made admirable progress, this is true. But are you content to remain [a veteran/an expert/an authority/a luminary/a master] forever? There are yet greater heights to strive for, if you so desire.
- **7171**: Strive for greater heights? [Certainly!/Maybe later...]
- **7172**: Excellent. I knew you were not one to rest on your laurels. Seek out Macuillie and obtain yourself a copy of $6.
- **7173**: As you may surmise, this transaction will require a nominal fee in guild points. The duties you perform for our guild shall be the key to further advancement.
- **7174**: A most unfortunate decision, given your aptitude for smithing. And yet perhaps it is for the best, if your heart is not truly in your work.
- **7175**: Seek out Macuillie and obtain yourself a copy of $6.
- **7176**: Your confident mien speaks volumes to me. You have reviewed the contents of $6, yes?
- **7177**: Then your next task is to forge $2. Part of your test is acquiring the necessary materials, which are...
- **7178**: And do not forget to put your name to your work. This is necessary to verify its authenticity, and speaks as well to the pride you take in your craft.
- **7179**: <Sigh>... Your forgetfulness does not bode well for your prospects. Yet I suppose we all have our momentary lapses. The ingredients for $2 are...
- **7180**: Yes...yes, indeed... You have confirmed my greatest hopes--this is truly the work of an expert. Stay devoted to our craft, and it will not be long until I can call you my peer.
- **7181**: What is the meaning of this, <Player>? The work itself is satisfactory, but without your signature engraved, we have no way to ascertain that it is truly yours.
- **7182**: Consider this a chance to outdo yourself and produce a truly transcendent piece of steel. Now, back to the forge with you.
- **7183**: How diligently you've been working of late! Here, make me $0, and I'll judge your handiwork.
- **7184**: Pass this trial, and you will be recognized as [an artisan/an adept/a veteran].
- **7185**: But, beware! Once [an artisan/an adept/a veteran], always [an artisan/an adept/a veteran]! Ever must you uphold the honor of this guild.
- **7186**: Your knowledge of our craft is still in its infancy. Strive to further your skills, lest others trade jokes at our expense.
- **7187**: Maintaining your level of mastery with San d'Orian smithing techniques will requires discipline and devotion. Now that you have reached [artisan/adept/veteran] status in our guild, I would advise against delving too deeply into other crafts.
- **7188**: <Player>. Pray tell me that rumors deceive, and that you have not achieved [artisan/adept/veteran] status at a guild other than our own.
- **7189**: Were you a lesser smith, I might commend this decision to broaden your horizons. At your level of expertise, however, the time has come to devote yourself to a single path.
- **7190**: What say you? Will you relinquish your [artisan/adept/veteran] status in other fields, that you might perfect your blacksmithing skills like finely tempered steel?
- **7191**: You need only say the word, and I will inform any other guildmaster of your decision. Your mind is made up, is it not?
- **7192**: Unfortunate words. And here I thought you were one of us, <Player>.
- **7193**: Words cannot convey my disappointment. And yet, you are a [man/woman] of your own mind, with your own heart to follow. Do as you will.
- **18958**: You can increase Craftsmanship by crafting items that match up with your skill while you have the $0 equipped.
- **18959**: Craftsmanship will increase greatly when you fulfill certain conditions, but crafting the same item over and over again will reduce your gains, so try synthesizing something different if you run into trouble.
- **18960**: In its default state, the shield has the unfortunate tendency to lower the success rate of your crafting, but as its Craftsmanship rises, it mitigates that effect.
- **18961**: You can tell the Craftsmanship rating as well as the crafting success rate by looking at the shield. Good luck to you. Mwahaha...
- **19062**: Oh, greetings, my friend. Ahh, what's that shield you're holding?
- **19063**: Hmm... It looks like you've had an audience with her.
- **19064**: I heard the story of course. Supposedly, the shield can enhance a craftsman's abilities. I don't pretend to fathom how it works though.
- **19065**: Although, if the stories are accurate, then I suppose I should probably try to learn more about it.
- **19066**: I know as well as anybody how skilled you are. So if she chose you for this task, then I suppose you must have what it takes to make this shield.
- **19067**: So then, shall we get started? First, I'll need to tell you the recipe. This is important, so try not to forget it.
- **19068**: So, in order to complete the process, you'll require $1.
- **19069**: Essentially, this enables you to bring the Craftsmanship of the $0 to its maximum value.
- **19070**: I received these writings which cover the topic of Craftsmanship in finer detail. If you will allow me to read them to you...
- **19071**: I hope you were able to comprehend that information to a satisfactory nature.
- **19072**: Once the Craftsmanship rating is high enough, please come show it to me. I'll create the $1 that you require.
- **19073**: Next, you'll require $2 and $3. You will find that you can obtain them from Ore Guzzler.
- **19074**: I believe you have made deliveries for people before, yes? That is essentially what you will need to do here.
- **19075**: You may speak to Ore Guzzler for more information on the subject.
- **19076**: Those are the ingredients you will require. I ask that you show me the shield when it is finished. I am interested to see it with my own eyes.
- **19077**: Are you trying to tell me that you've forgotten the recipe already? Very well. Here is the list again. Please do try to remember it.
- **19078**: I was known for being quite talented in my day, yet even I must admit that you have surpassed me. I have faith that you will be able to complete this task.
- **19079**: I see... With this, I can create the $0 that you require.
- **19080**: So, this is the $0...
- **19081**: The technique used to pour my soul into this shield and form a crystal is quite amazing. It is quite beyond my meager understanding.
- **19082**: Hmm... It would appear that in creating the $0, we seem to have lowered the Craftsmanship of the $1.
- **19083**: That is not a problem if you wish to upgrade the $1, but if you wish to create the $0 again, you will need to raise the Craftsmanship once more.
- **19084**: I know that you of all people would never lose something as important as this though.
- **19085**: Are you trying to tell me that you lost the $0?
- **19086**: Very well. I can make you another $0. Let me see your shield.
- **19087**: You are supposed to be a professional. You must learn to take better care of your ingredients.
- **19088**: It would appear that you have successfully made the upgrade. Do you mind if I take a look?
- **19089**: Hmm... I can tell that it looks different, and can even feel its power. However, it does not seem to be finished yet.
- **19090**: I'm sure you've probably heard, but you'll need to craft it multiple times in order to bring out its true potential.
- **19091**: Oh, I almost forgot. You require some kind of proof that the work on the shield was finished. Please give me a moment.
- **19092**: That should do it.
- **19093**: Show this shield to Mewk Chorosap in Jeuno.
- **19094**: By the way, I am always scheduling deliveries to Ore Guzzler. Please stop by and help out the guild if you get a chance.
- **19095**: I have been waiting for your return. She told me about your task this time.
- **19096**: First, you will need the recipe. This is important, so I do hope you can remember it.
- **19097**: That's the recipe.
- **19098**: The first ingredient you need to obtain is the $1.
- **19099**: Does that name sound familiar? It should, you have used it before. This time, you'll need to craft while equipping the $0.
- **19100**: By doing so, the shield's Craftsmanship will gradually increase, just like last time.
- **19101**: Once it reaches 100%, come bring it to me. We will be able to use the shield to obtain the $1.
- **19102**: The next ingredient on the list is the $3. I hope you haven't forgotten this one either. I have given it along with the $2 to Ore Guzzler.
- **19103**: The final ingredient you'll need is the $4, but for it, I needed to enlist the help of the A.M.A.N. They've prepared some Records of Eminence objectives for you to complete.
- **19104**: You may refer to the Records of Eminence menu for more details. Once you have completed all of the objectives, you can get the $4.
- **19105**: That completes my explanation. Your technique is nearly equal to that of my own. As long as you are not overly confident, I have faith that you can complete this task.
- **19106**: Very well, let's see what you have there.
- **19107**: Yes, quite impressive. Now, I will prepare the $0 for you.
- **19108**: Haha. Once again, it seems we have a rather magnificent crystal on our hands.
- **19109**: Hmm... It appears that like before, the shield's Craftsmanship drops when producing the $0.
- **19110**: It is no easy task to increase the shield's Craftsmanship. That is why I am certain you would never do anything foolish like lose this thing, right?
- **19111**: Yes, this turned out quite impressive. I can see that you approached this task with the utmost seriousness.
- **19112**: In fact, you can feel the increased power from this shield compared to the previous one. I am anxious to see how powerful it can become.
- **19113**: Now, let me get you that marking you require.
- **19114**: There you go. Simply show this marking to Mewk Chorosap and you will be done.
- **19115**: I suppose these things happen. Very well. You can attempt the final objective one more time. Once you clear it, I will give you the $0.
- **19116**: Oh, it's you again. I suppose you are here about the shield.
- **19117**: I can see that you have already heard about the recipe and how to obtain some of the materials.
- **19118**: You just need to learn about the $4 and $5, I suppose. Very well then.
- **19119**: The Blacksmiths' Guild has received a number of orders for various items recently, but the items need to be made in the customer's presence.
- **19120**: It's the customer's personal request, so I suppose it is in order to keep an eye on the final quality. The customers sure are getting picky lately, but that's the cost of doing business.
- **19121**: So they will only accept what they can see you craft. However, an exception is made for items such as those used for repairs. You can simply deliver them directly without any problems.
- **19122**: I also need you to gather the materials needed to make the items. I do not care how you obtain them.
- **19123**: Oh, one more thing. An agreement was recently formed between the guilds enabling you to purchase some items that were previously unavailable, assuming you can afford them that is.
- **19124**: You can speak to the crafting set vendor in each guild to see which items are available. It may prove quite useful in your endeavors.
- **19125**: However, each guild plays by its own rules. You may or may not find what it is you need. Be sure to keep that in mind.
- **19126**: Once you have completed all of the requests, come see me and I will give you the $4 and $5.
- **19127**: This is the [first/next/final] request.
- **19128**: Deliver $1 $0 to Crooked Arrow in $7. You will find him in front of the Auction House.
- **19129**: Deliver $1 $0 to Crooked Arrow in $7. You will find him in front of the Auction House.
- **19130**: Deliver $1 $0 to Naji the Mythril Musketeer in $7.
- **19131**: Deliver $1 $0 to Raibaht in $7. He can usually be found in Cid's Lab.
- **19132**: You can deliver this item directly to the customer.
- **19133**: Report back to me once you have finished the request.
- **19134**: The current request requiring your assistance is...
- **19135**: So, how is the request going?
- **19136**: Everything okay? [Everything's great!/It could be better...]
- **19137**: I knew I had nothing to worry about. Keep up the good work.
- **19138**: What? I always thought you would be the last one to ever give up on something. Are you sure you want to quit?
- **19139**: Will you see this through? [I'll do my best./I've had enough.]
- **19140**: Indeed, this type of work can take a toll on the body. I would hate to see you injure yourself. I guess I will have to find somebody else to assist me.
- **19141**: I am certain I will have work for you again. For now, please get some rest.
- **19142**: Well? Are you rested and ready to get back to work? I can definitely use your help.
- **19143**: Ahh, it seems you have completed the delivery. Thank you for the help.
- **19144**: Ahh, I see you finished the final delivery. I cannot thank you enough for the assistance.
- **19145**: Here you go. This $0 and $1 are for you, just as I promised.
- **19146**: If you ever need more, you can trade guild points for them at any time.
- **19147**: This has gotten to be almost too easy.
- **19148**: Hmm... So this is what the shield is like this time around.
- **19149**: It never ceases to amaze me. It is surprisingly light despite its sheer size. It is rather unfortunate that it isn't designed for use in battle.
- **19150**: She seems to think that the next upgrade will unlock the true power of the shield. I imagine you are looking forward to that just as much as I am.
- **19151**: Oh, wait a moment. Would you like to give this crafting technique a try? I have a feeling that one of your skill can use it to make some new equipment.
- **19152**: It is good to see you. I imagine you are here to learn about the final upgrade for your shield.
- **19153**: First, you will need to learn how to obtain the necessary materials.
- **19154**: In regards to the $2 and $3...
- **19155**: I have left them with Ore Guzzler. You are perhaps the last person that I need to explain this to, but they can be exchanged for crafter points.
- **19156**: As for the $1... It is the same procedure as usual. Please bring me your shield once you have boosted its Craftsmanship to 100%.
- **19157**: That covers the explanation for obtaining the materials. Get out there and start boosting that Craftsmanship rating. I will be waiting here for you when you finish.
- **19158**: Have you heard? It seems Mewk Chorosap is requesting the $0 created by this process. You should take it to her.
- **19159**: Greetings. Can I help you with something?
- **19160**: Hm... That is the item requested by that Tarutaru from Adoulin. It was finished just a little while ago.
- **19161**: However, she wanted it sent to Jeuno once it was complete, so I have already sent it off.
- **19162**: I imagine it must have been delivered to Mewk Chorosap in Port Jeuno by now. You should go there and see for yourself.
- **19163**: Ah, it is you again. I imagine if you are here, it must be in regards to the $0, no? I just noticed it hanging on the wall of the guild recently.
- **19164**: This is what you are looking for, yes? Consider it yours for the taking.
- **19165**: Oh! So this is what the completed shield looks like!
- **19166**: The feeling of quality and weight to it... And you can feel the soul that was poured into creating this emblem... This truly is an immaculate piece.
- **19167**: In fact, just looking at it has inspired me to take on all-new challenges with my work. I feel like I am a young man again. Hahaha!
- **19168**: Yes, you did a fine job indeed. Now, I would like to teach you a new crafting technique.
- **19169**: I want to see you take our craft to all-new levels. I have a feeling that the smithing techniques you develop will be used not just in San d'Oria, but all of Vana'diel as well.

## Events

### Event 65535

#### Metadata

| Field        | Value   |
|--------------|---------|
| Entrypoint   | 0x0000  |
| Data Size    | 1 bytes |
| Instructions | 1       |

```
      00 01 02 03 04 05 06 07  08 09 0A 0B 0C 0D 0E 0F
      -- -- -- -- -- -- -- --  -- -- -- -- -- -- -- --
0000: 00                                                .               
```

#### Opcodes

```
  0: 0x0000 [0x00] END_REQSTACK()
```

### Event 626

#### Metadata

| Field        | Value      |
|--------------|------------|
| Entrypoint   | 0x0001     |
| Data Size    | 1985 bytes |
| Instructions | 351        |

```
      00 01 02 03 04 05 06 07  08 09 0A 0B 0C 0D 0E 0F
      -- -- -- -- -- -- -- --  -- -- -- -- -- -- -- --
0000:    1E F0 FF FF 7F 41 00  80 00 80 06 10 00 00 41   .....A........A
0010: 01 80 01 80 06 10 01 00  41 02 80 02 80 06 10 02  ........A.......
0020: 00 03 03 00 02 80 03 07  00 03 80 03 08 00 04 80  ................
0030: 03 09 00 07 10 03 0A 00  08 10 03 0B 00 09 10 02  ................
0040: 0A 00 02 80 04 FB 01 06  03 10 66 05 80 F8 FF FF  ..........f.....
0050: 7F F0 FF FF 7F 74 6C 6B  30 1D 06 80 23 1D 07 80  .....tlk0...#...
0060: 23 1D 08 80 23 1D 09 80  23 66 05 80 F8 FF FF 7F  #...#...#f......
0070: F0 FF FF 7F 74 6C 6B 31  24 0A 80 03 80 0B 00 25  ....tlk1$......%
0080: 02 00 10 03 80 00 8D 00  21 00 01 BC 01 02 00 10  ........!.......
0090: 0B 80 00 A9 00 03 0C 00  0C 80 03 03 10 03 80 3C  ...............<
00A0: 0B 00 0B 80 0B 80 01 BC  01 02 00 10 02 80 00 14  ................
00B0: 01 03 0C 00 0D 80 03 03  10 0B 80 3C 0B 00 02 80  ...........<....
00C0: 0B 80 66 0E 80 F8 FF FF  7F F0 FF FF 7F 64 69 73  ..f..........dis
00D0: 30 1D 0F 80 23 53 F8 FF  FF 7F F0 FF FF 7F 64 69  0...#S........di
00E0: 73 30 66 0E 80 F8 FF FF  7F F0 FF FF 7F 74 68 6B  s0f..........thk
00F0: 31 1D 10 80 23 53 F8 FF  FF 7F F0 FF FF 7F 74 68  1...#S........th
0100: 6B 31 66 05 80 F8 FF FF  7F F0 FF FF 7F 74 68 6B  k1f..........thk
0110: 32 01 BC 01 02 00 10 11  80 00 30 01 03 0C 00 12  2.........0.....
0120: 80 03 03 10 02 80 3C 0B  00 11 80 0B 80 01 BC 01  ......<.........
0130: 02 00 10 13 80 00 4C 01  03 0C 00 14 80 03 03 10  ......L.........
0140: 11 80 3C 0B 00 13 80 0B  80 01 BC 01 02 00 10 15  ..<.............
0150: 80 00 68 01 03 0C 00 16  80 03 03 10 13 80 3C 0B  ..h...........<.
0160: 00 15 80 0B 80 01 BC 01  02 00 10 17 80 00 84 01  ................
0170: 03 0C 00 18 80 03 03 10  15 80 3C 0B 00 17 80 0B  ..........<.....
0180: 80 01 BC 01 02 00 10 19  80 00 A0 01 03 0C 00 1A  ................
0190: 80 03 03 10 17 80 3C 0B  00 19 80 0B 80 01 BC 01  ......<.........
01A0: 02 00 10 1B 80 00 BC 01  03 0C 00 1C 80 03 03 10  ................
01B0: 19 80 3C 0B 00 1B 80 0B  80 01 BC 01 48 1D 80 23  ..<.........H..#
01C0: 24 1E 80 03 80 03 80 25  02 00 10 03 80 00 D5 01  $......%........
01D0: 21 00 01 EE 01 02 00 10  0B 80 00 EE 01 42 03 01  !............B..
01E0: 10 0C 00 43 00 43 01 0C  0A 00 2E 01 EE 01 02 0A  ...C.C..........
01F0: 00 02 80 04 F9 01 01 78  00 21 00 3E 05 10 02 80  .......x.!.>....
0200: 12 05 02 04 10 1F 80 03  05 05 07 03 10 02 80 02  ................
0210: 03 10 04 10 03 24 02 1A  9F 08 1D 20 80 23 1A B1  .....$..... .#..
0220: 08 01 02 05 03 0D 00 09  00 14 0D 00 01 80 07 0D  ................
0230: 00 21 80 02 04 10 0D 00  00 54 02 1D 22 80 23 1A  .!.......T..".#.
0240: 9F 08 1D 23 80 23 1D 24  80 23 1A B1 08 1D 25 80  ...#.#.$.#....%.
0250: 23 01 02 05 02 04 10 26  80 00 4A 03 02 00 00 0B  #......&..J.....
0260: 80 00 F6 02 02 02 00 0B  80 00 E0 02 02 01 00 0B  ................
0270: 80 00 A2 02 03 04 10 27  80 1A 9F 08 1D 28 80 23  .......'.....(.#
0280: 1A B1 08 03 04 00 26 80  03 05 00 00 80 03 06 00  ......&.........
0290: 27 80 1A 6A 05 1A 9F 08  1D 29 80 23 1A B1 08 01  '..j.....).#....
02A0: DD 02 42 03 03 10 2A 80  1A 9F 08 1D 2B 80 23 03  ..B...*.....+.#.
02B0: 04 10 27 80 1D 2C 80 23  1A B1 08 03 04 00 26 80  ..'..,.#......&.
02C0: 03 05 00 00 80 03 06 00  27 80 1A 6A 05 1A 9F 08  ........'..j....
02D0: 1D 29 80 23 1A B1 08 03  01 10 11 80 2E 01 F3 02  .).#............
02E0: 03 03 10 2A 80 1A 9F 08  1D 2D 80 23 1D 2E 80 23  ...*.....-.#...#
02F0: 1A B1 08 01 47 03 03 02  10 03 80 1A 9F 08 1D 2F  ....G........../
0300: 80 23 1A B1 08 24 30 80  03 80 03 80 25 02 00 10  .#...$0.....%...
0310: 03 80 00 32 03 42 03 03  10 2A 80 1A 9F 08 1D 31  ...2.B...*.....1
0320: 80 23 1D 2E 80 23 1A B1  08 03 01 10 02 80 2E 01  .#...#..........
0330: 47 03 02 00 10 0B 80 00  47 03 1A 9F 08 1D 32 80  G.......G.....2.
0340: 23 1A B1 08 01 47 03 01  02 05 02 04 10 26 80 02  #....G.......&..
0350: F4 04 02 00 00 0B 80 00  10 04 02 02 00 0B 80 00  ................
0360: 0D 04 02 01 00 0B 80 00  0A 04 03 02 10 04 10 08  ................
0370: 02 10 26 80 15 02 10 01  80 02 02 10 0B 80 80 A5  ..&.............
0380: 03 03 04 10 33 80 1A 9F  08 1D 28 80 23 1A B1 08  ....3.....(.#...
0390: 03 04 00 1F 80 03 05 00  01 80 03 06 00 33 80 1A  .............3..
03A0: 6A 05 01 FD 03 02 02 10  02 80 80 D1 03 03 04 10  j...............
03B0: 34 80 1A 9F 08 1D 28 80  23 1A B1 08 03 04 00 35  4.....(.#......5
03C0: 80 03 05 00 33 80 03 06  00 34 80 1A 6A 05 01 FD  ....3....4..j...
03D0: 03 02 02 10 11 80 80 FD  03 03 04 10 36 80 1A 9F  ............6...
03E0: 08 1D 28 80 23 1A B1 08  03 04 00 37 80 03 05 00  ..(.#......7....
03F0: 34 80 03 06 00 36 80 1A  6A 05 01 FD 03 1A 9F 08  4....6..j.......
0400: 1D 29 80 23 1A B1 08 01  0A 04 01 0D 04 01 F1 04  .).#............
0410: 02 02 00 0B 80 00 F1 04  03 02 10 04 10 08 02 10  ................
0420: 26 80 15 02 10 01 80 1A  9F 08 1D 2F 80 23 1A B1  &........../.#..
0430: 08 24 30 80 03 80 03 80  25 02 00 10 03 80 00 D9  .$0.....%.......
0440: 04 42 02 02 10 0B 80 80  6E 04 03 04 10 33 80 1A  .B......n....3..
0450: 9F 08 1D 2C 80 23 1A B1  08 03 04 00 1F 80 03 05  ...,.#..........
0460: 00 01 80 03 06 00 33 80  1A 6A 05 01 C6 04 02 02  ......3..j......
0470: 10 02 80 80 9A 04 03 04  10 34 80 1A 9F 08 1D 2C  .........4.....,
0480: 80 23 1A B1 08 03 04 00  35 80 03 05 00 33 80 03  .#......5....3..
0490: 06 00 34 80 1A 6A 05 01  C6 04 02 02 10 11 80 80  ..4..j..........
04A0: C6 04 03 04 10 36 80 1A  9F 08 1D 2C 80 23 1A B1  .....6.....,.#..
04B0: 08 03 04 00 37 80 03 05  00 34 80 03 06 00 36 80  ....7....4....6.
04C0: 1A 6A 05 01 C6 04 1A 9F  08 1D 29 80 23 1A B1 08  .j........).#...
04D0: 03 01 10 13 80 2E 01 EE  04 02 00 10 0B 80 00 EE  ................
04E0: 04 1A 9F 08 1D 32 80 23  1A B1 08 01 EE 04 01 F1  .....2.#........
04F0: 04 01 02 05 1A 9F 08 1D  38 80 23 1D 39 80 23 1A  ........8.#.9.#.
0500: B1 08 01 0F 05 1A 9F 08  1D 3A 80 23 1A B1 08 01  .........:.#....
0510: 68 05 03 08 10 02 80 1D  3B 80 23 24 3C 80 03 80  h.......;.#$<...
0520: 03 80 25 02 00 10 03 80  00 53 05 1A B7 08 1D 3D  ..%......S.....=
0530: 80 23 1D 3E 80 23 1A C9  08 1A 9F 08 1D 3F 80 23  .#.>.#.......?.#
0540: 1D 40 80 23 1A B1 08 1D  41 80 23 03 01 10 0B 80  .@.#....A.#.....
0550: 01 68 05 02 00 10 0B 80  00 68 05 1A 9F 08 1D 42  .h.......h.....B
0560: 80 23 1A B1 08 01 68 05  21 00 8C 02 03 00 04 00  .#....h.!.......
0570: 05 00 07 00 08 00 8C 01  02 06 00 02 10 C0 8B 05  ................
0580: 03 06 00 03 80 01 BD 06  01 BD 06 02 06 00 03 10  ................
0590: C0 9E 05 03 06 00 0B 80  01 BD 06 01 BD 06 02 06  ................
05A0: 00 04 10 C0 B1 05 03 06  00 02 80 01 BD 06 01 BD  ................
05B0: 06 02 06 00 05 10 C0 C4  05 03 06 00 11 80 01 BD  ................
05C0: 06 01 BD 06 02 06 00 06  10 C0 D7 05 03 06 00 13  ................
05D0: 80 01 BD 06 01 BD 06 02  06 00 07 10 C0 EA 05 03  ................
05E0: 06 00 15 80 01 BD 06 01  BD 06 02 06 00 08 10 C0  ................
05F0: FD 05 03 06 00 17 80 01  BD 06 01 BD 06 02 06 00  ................
0600: 09 10 C0 10 06 03 06 00  19 80 01 BD 06 01 BD 06  ................
0610: 02 06 00 00 17 C0 23 06  03 06 00 1B 80 01 BD 06  ......#.........
0620: 01 BD 06 02 06 00 01 17  C0 36 06 03 06 00 00 80  .........6......
0630: 01 BD 06 01 BD 06 02 06  00 02 17 C0 49 06 03 06  ............I...
0640: 00 01 80 01 BD 06 01 BD  06 02 06 00 03 17 C0 5C  ...............\
0650: 06 03 06 00 33 80 01 BD  06 01 BD 06 02 06 00 04  ....3...........
0660: 17 C0 6F 06 03 06 00 34  80 01 BD 06 01 BD 06 02  ..o....4........
0670: 06 00 05 17 C0 82 06 03  06 00 36 80 01 BD 06 01  ..........6.....
0680: BD 06 02 06 00 06 17 C0  95 06 03 06 00 43 80 01  .............C..
0690: BD 06 01 BD 06 02 06 00  07 17 C0 A8 06 03 06 00  ................
06A0: 44 80 01 BD 06 01 BD 06  02 08 17 03 80 01 BD 06  D...............
06B0: 07 07 00 04 80 07 08 00  04 80 01 6A 05 07 06 00  ...........j....
06C0: 07 00 8C 03 03 00 04 00  05 00 06 00 8C 01 07 44  ...............D
06D0: 10 45 80 03 08 10 03 00  03 03 10 41 10 03 04 10  .E.........A....
06E0: 42 10 03 05 10 43 10 03  06 10 44 10 03 07 10 55  B....C....D....U
06F0: 10 02 07 10 03 80 00 00  07 48 46 80 23 01 04 07  .........HF.#...
0700: 48 47 80 23 03 02 10 45  10 03 03 10 46 10 03 04  HG.#...E....F...
0710: 10 47 10 03 05 10 48 10  03 06 10 4D 10 03 07 10  .G....H....M....
0720: 4E 10 03 08 10 4F 10 03  09 10 50 10 02 07 10 03  N....O....P.....
0730: 80 00 3B 07 48 48 80 23  01 C1 07 02 08 10 03 80  ..;.HH.#........
0740: 00 4A 07 48 49 80 23 01  C1 07 02 09 10 03 80 00  .J.HI.#.........
0750: 59 07 48 4A 80 23 01 C1  07 48 4B 80 23 03 02 10  Y.HJ.#...HK.#...
0760: 49 10 03 03 10 4A 10 03  04 10 4B 10 03 05 10 4C  I....J....K....L
0770: 10 03 06 10 51 10 03 07  10 52 10 03 08 10 53 10  ....Q....R....S.
0780: 03 09 10 54 10 02 06 10  03 80 00 90 07 01 C1 07  ...T............
0790: 02 07 10 03 80 00 9F 07  48 48 80 23 01 C1 07 02  ........HH.#....
07A0: 08 10 03 80 00 AE 07 48  49 80 23 01 C1 07 02 09  .......HI.#.....
07B0: 10 03 80 00 BD 07 48 4A  80 23 01 C1 07 48 4B 80  ......HJ.#...HK.
07C0: 23 1B                                             #.              
```

#### Opcodes

```
  0: 0x0001 [0x1E] EventEntity looks at LocalPlayer and starts talking
  1: 0x0006 [0x41] ExtData[1]->WorkLocal[0] = Work_Zone[6] (bits 9*-9*)
  2: 0x000F [0x41] ExtData[1]->WorkLocal[1] = Work_Zone[6] (bits 10*-10*)
  3: 0x0018 [0x41] ExtData[1]->WorkLocal[2] = Work_Zone[6] (bits 2*-2*)
  4: 0x0021 [0x03] ExtData[1]->WorkLocal[3] = 2*
  5: 0x0026 [0x03] ExtData[1]->WorkLocal[7] = 0*
  6: 0x002B [0x03] ExtData[1]->WorkLocal[8] = 16*
  7: 0x0030 [0x03] ExtData[1]->WorkLocal[9] = Work_Zone[7]
  8: 0x0035 [0x03] ExtData[1]->WorkLocal[10] = Work_Zone[8]
  9: 0x003A [0x03] ExtData[1]->WorkLocal[11] = Work_Zone[9]
 10: 0x003F [0x02] IF !(ExtData[1]->WorkLocal[10] < 2*) GOTO 0x01FB
 11: 0x0047 [0x06] Work_Zone[3] = 0
 12: 0x004A [0x66] LOAD_EXT_SCHEDULER_MAIN: Load scheduler "tlk0" with entities [EventEntity, LocalPlayer], work=20*
 13: 0x0059 [0x1D] PRINT_EVENT_MESSAGE(message_id=7188*)
    → "<Player>. Pray tell me that rumors deceive, and that you have not achieved [artisan/adept/veteran] status at a guild other than our own."
 14: 0x005C [0x23] WAIT_FOR_DIALOG_INTERACTION
 15: 0x005D [0x1D] PRINT_EVENT_MESSAGE(message_id=7189*)
    → "Were you a lesser smith, I might commend this decision to broaden your horizons. At your level of expertise, however, the time has come to devote yourself to a single path."
 16: 0x0060 [0x23] WAIT_FOR_DIALOG_INTERACTION
 17: 0x0061 [0x1D] PRINT_EVENT_MESSAGE(message_id=7190*)
    → "What say you? Will you relinquish your [artisan/adept/veteran] status in other fields, that you might perfect your blacksmithing skills like finely tempered steel?"
 18: 0x0064 [0x23] WAIT_FOR_DIALOG_INTERACTION
 19: 0x0065 [0x1D] PRINT_EVENT_MESSAGE(message_id=7191*)
    → "You need only say the word, and I will inform any other guildmaster of your decision. Your mind is made up, is it not?"
 20: 0x0068 [0x23] WAIT_FOR_DIALOG_INTERACTION
 21: 0x0069 [0x66] LOAD_EXT_SCHEDULER_MAIN: Load scheduler "tlk1" with entities [EventEntity, LocalPlayer], work=20*
 22: 0x0078 [0x24] CREATE_DIALOG(message_id=7039*, default_option=0*, option_flags=ExtData[1]->WorkLocal[11])
    → "Renounce your rank at which guild? [None./Carpenters'./Blacksmiths'./Goldsmiths'./Weavers'./Tanners'./Boneworkers'./Alchemists'./Culinarians'.]"
 23: 0x007F [0x25] WAIT_DIALOG_SELECT()
 24: 0x0080 [0x02] IF !(Work_Zone[0] == 0*) GOTO 0x008D
 25: 0x0088 [0x21] END_EVENT
 26: 0x0089 [0x00] END_REQSTACK()

SUBROUTINE_01BC:
 27: 0x01BC [0x48] [System] [7040*]:
    → "If you proceed, your rank in the [Carpenters'/Blacksmiths'/Goldsmiths'/Weavers'/Tanners'/Boneworkers'/Alchemists'/Culinarians'] Guild will return to that of [craftsman/artisan/adept], and your skill value will revert to the maximum for that level. This procedure cannot be undone, so please consider your decision carefully."
 28: 0x01BF [0x23] WAIT_FOR_DIALOG_INTERACTION
 29: 0x01C0 [0x24] CREATE_DIALOG(message_id=7041*, default_option=0*, option_flags=0*)
    → "Renounce your rank as a [Carpenter/Blacksmith/Goldsmith/Weaver/Tanner/Boneworker/Alchemist/Culinarian]? [No, retain./Yes, renounce.]"
 30: 0x01C7 [0x25] WAIT_DIALOG_SELECT()
 31: 0x01C8 [0x02] IF !(Work_Zone[0] == 0*) GOTO 0x01D5
 32: 0x01D0 [0x21] END_EVENT
 33: 0x01D1 [0x00] END_REQSTACK()

SUBROUTINE_01EE:
 34: 0x01EE [0x02] IF !(ExtData[1]->WorkLocal[10] < 2*) GOTO 0x01F9
 35: 0x01F6 [0x01] GOTO 0x0078
 36: 0x01F9 [0x21] END_EVENT
 37: 0x01FA [0x00] END_REQSTACK()
 38: 0x01FB [0x3E] IF !(Work_Zone[5] bit 2*) GOTO 0x0512
 39: 0x0202 [0x02] IF !(Work_Zone[4] >= 110*) GOTO 0x0505
 40: 0x020A [0x07] Work_Zone[3] += 2*
 41: 0x020F [0x02] IF !(Work_Zone[3] >= Work_Zone[4]) GOTO 0x0224
 42: 0x0217 [0x1A] CALL_SUBROUTINE(address=0x089F)
 43: 0x021A [0x1D] PRINT_EVENT_MESSAGE(message_id=7125*)
    → "You still have much to learn. Even our newest apprentices are a step ahead of you."
 44: 0x021D [0x23] WAIT_FOR_DIALOG_INTERACTION
 45: 0x021E [0x1A] CALL_SUBROUTINE(address=0x08B1)
 46: 0x0221 [0x01] GOTO 0x0502
 47: 0x0224 [0x03] ExtData[1]->WorkLocal[13] = ExtData[1]->WorkLocal[9]
 48: 0x0229 [0x14] ExtData[1]->WorkLocal[13] *= 10*
 49: 0x022E [0x07] ExtData[1]->WorkLocal[13] += 70*
 50: 0x0233 [0x02] IF !(Work_Zone[4] == ExtData[1]->WorkLocal[13]) GOTO 0x0254
 51: 0x023B [0x1D] PRINT_EVENT_MESSAGE(message_id=7183*)
    → "How diligently you've been working of late! Here, make me $0, and I'll judge your handiwork."
 52: 0x023E [0x23] WAIT_FOR_DIALOG_INTERACTION
 53: 0x023F [0x1A] CALL_SUBROUTINE(address=0x089F)
 54: 0x0242 [0x1D] PRINT_EVENT_MESSAGE(message_id=7184*)
    → "Pass this trial, and you will be recognized as [an artisan/an adept/a veteran]."
 55: 0x0245 [0x23] WAIT_FOR_DIALOG_INTERACTION
 56: 0x0246 [0x1D] PRINT_EVENT_MESSAGE(message_id=7185*)
    → "But, beware! Once [an artisan/an adept/a veteran], always [an artisan/an adept/a veteran]! Ever must you uphold the honor of this guild."
 57: 0x0249 [0x23] WAIT_FOR_DIALOG_INTERACTION
 58: 0x024A [0x1A] CALL_SUBROUTINE(address=0x08B1)
 59: 0x024D [0x1D] PRINT_EVENT_MESSAGE(message_id=7186*)
    → "Your knowledge of our craft is still in its infancy. Strive to further your skills, lest others trade jokes at our expense."
 60: 0x0250 [0x23] WAIT_FOR_DIALOG_INTERACTION
 61: 0x0251 [0x01] GOTO 0x0502
 62: 0x0254 [0x02] IF !(Work_Zone[4] == 100*) GOTO 0x034A
 63: 0x025C [0x02] IF !(ExtData[1]->WorkLocal[0] == 1*) GOTO 0x02F6
 64: 0x0264 [0x02] IF !(ExtData[1]->WorkLocal[2] == 1*) GOTO 0x02E0
 65: 0x026C [0x02] IF !(ExtData[1]->WorkLocal[1] == 1*) GOTO 0x02A2
 66: 0x0274 [0x03] Work_Zone[4] = 19788*
 67: 0x0279 [0x1A] CALL_SUBROUTINE(address=0x089F)
 68: 0x027C [0x1D] PRINT_EVENT_MESSAGE(message_id=7179*)
    → "<Sigh>... Your forgetfulness does not bode well for your prospects. Yet I suppose we all have our momentary lapses. The ingredients for $2 are..."
 69: 0x027F [0x23] WAIT_FOR_DIALOG_INTERACTION
 70: 0x0280 [0x1A] CALL_SUBROUTINE(address=0x08B1)
 71: 0x0283 [0x03] ExtData[1]->WorkLocal[4] = 100*
 72: 0x0288 [0x03] ExtData[1]->WorkLocal[5] = 9*
 73: 0x028D [0x03] ExtData[1]->WorkLocal[6] = 19788*
 74: 0x0292 [0x1A] CALL_SUBROUTINE(address=0x056A)
 75: 0x0295 [0x1A] CALL_SUBROUTINE(address=0x089F)
 76: 0x0298 [0x1D] PRINT_EVENT_MESSAGE(message_id=7178*)
    → "And do not forget to put your name to your work. This is necessary to verify its authenticity, and speaks as well to the pride you take in your craft."
 77: 0x029B [0x23] WAIT_FOR_DIALOG_INTERACTION
 78: 0x029C [0x1A] CALL_SUBROUTINE(address=0x08B1)
 79: 0x029F [0x01] GOTO 0x02DD
 80: 0x02A2 [0x42] SET_CLI_EVENT_CANCEL_DATA()
 81: 0x02A3 [0x03] Work_Zone[3] = 1996*
 82: 0x02A8 [0x1A] CALL_SUBROUTINE(address=0x089F)
 83: 0x02AB [0x1D] PRINT_EVENT_MESSAGE(message_id=7176*)
    → "Your confident mien speaks volumes to me. You have reviewed the contents of $6, yes?"
 84: 0x02AE [0x23] WAIT_FOR_DIALOG_INTERACTION
 85: 0x02AF [0x03] Work_Zone[4] = 19788*
 86: 0x02B4 [0x1D] PRINT_EVENT_MESSAGE(message_id=7177*)
    → "Then your next task is to forge $2. Part of your test is acquiring the necessary materials, which are..."
 87: 0x02B7 [0x23] WAIT_FOR_DIALOG_INTERACTION
 88: 0x02B8 [0x1A] CALL_SUBROUTINE(address=0x08B1)
 89: 0x02BB [0x03] ExtData[1]->WorkLocal[4] = 100*
 90: 0x02C0 [0x03] ExtData[1]->WorkLocal[5] = 9*
 91: 0x02C5 [0x03] ExtData[1]->WorkLocal[6] = 19788*
 92: 0x02CA [0x1A] CALL_SUBROUTINE(address=0x056A)
 93: 0x02CD [0x1A] CALL_SUBROUTINE(address=0x089F)
 94: 0x02D0 [0x1D] PRINT_EVENT_MESSAGE(message_id=7178*)
    → "And do not forget to put your name to your work. This is necessary to verify its authenticity, and speaks as well to the pride you take in your craft."
 95: 0x02D3 [0x23] WAIT_FOR_DIALOG_INTERACTION
 96: 0x02D4 [0x1A] CALL_SUBROUTINE(address=0x08B1)
 97: 0x02D7 [0x03] Work_Zone[1] = 3*
 98: 0x02DC [0x2E] SET_CLI_EVENT_CANCEL_FLAGS()

SUBROUTINE_02DD:
 99: 0x02DD [0x01] GOTO 0x02F3
100: 0x02E0 [0x03] Work_Zone[3] = 1996*
101: 0x02E5 [0x1A] CALL_SUBROUTINE(address=0x089F)
102: 0x02E8 [0x1D] PRINT_EVENT_MESSAGE(message_id=7175*)
    → "Seek out Macuillie and obtain yourself a copy of $6."
103: 0x02EB [0x23] WAIT_FOR_DIALOG_INTERACTION
104: 0x02EC [0x1D] PRINT_EVENT_MESSAGE(message_id=7173*)
    → "As you may surmise, this transaction will require a nominal fee in guild points. The duties you perform for our guild shall be the key to further advancement."
105: 0x02EF [0x23] WAIT_FOR_DIALOG_INTERACTION
106: 0x02F0 [0x1A] CALL_SUBROUTINE(address=0x08B1)

SUBROUTINE_02F3:
107: 0x02F3 [0x01] GOTO 0x0347
108: 0x02F6 [0x03] Work_Zone[2] = 0*
109: 0x02FB [0x1A] CALL_SUBROUTINE(address=0x089F)
110: 0x02FE [0x1D] PRINT_EVENT_MESSAGE(message_id=7170*)
    → "You have made admirable progress, this is true. But are you content to remain [a veteran/an expert/an authority/a luminary/a master] forever? There are yet greater heights to strive for, if you so desire."
111: 0x0301 [0x23] WAIT_FOR_DIALOG_INTERACTION
112: 0x0302 [0x1A] CALL_SUBROUTINE(address=0x08B1)
113: 0x0305 [0x24] CREATE_DIALOG(message_id=7171*, default_option=0*, option_flags=0*)
    → "Strive for greater heights? [Certainly!/Maybe later...]"
114: 0x030C [0x25] WAIT_DIALOG_SELECT()
115: 0x030D [0x02] IF !(Work_Zone[0] == 0*) GOTO 0x0332
116: 0x0315 [0x42] SET_CLI_EVENT_CANCEL_DATA()
117: 0x0316 [0x03] Work_Zone[3] = 1996*
118: 0x031B [0x1A] CALL_SUBROUTINE(address=0x089F)
119: 0x031E [0x1D] PRINT_EVENT_MESSAGE(message_id=7172*)
    → "Excellent. I knew you were not one to rest on your laurels. Seek out Macuillie and obtain yourself a copy of $6."
120: 0x0321 [0x23] WAIT_FOR_DIALOG_INTERACTION
121: 0x0322 [0x1D] PRINT_EVENT_MESSAGE(message_id=7173*)
    → "As you may surmise, this transaction will require a nominal fee in guild points. The duties you perform for our guild shall be the key to further advancement."
122: 0x0325 [0x23] WAIT_FOR_DIALOG_INTERACTION
123: 0x0326 [0x1A] CALL_SUBROUTINE(address=0x08B1)
124: 0x0329 [0x03] Work_Zone[1] = 2*
125: 0x032E [0x2E] SET_CLI_EVENT_CANCEL_FLAGS()
126: 0x032F [0x01] GOTO 0x0347
127: 0x0332 [0x02] IF !(Work_Zone[0] == 1*) GOTO 0x0347
128: 0x033A [0x1A] CALL_SUBROUTINE(address=0x089F)
129: 0x033D [0x1D] PRINT_EVENT_MESSAGE(message_id=7174*)
    → "A most unfortunate decision, given your aptitude for smithing. And yet perhaps it is for the best, if your heart is not truly in your work."
130: 0x0340 [0x23] WAIT_FOR_DIALOG_INTERACTION
131: 0x0341 [0x1A] CALL_SUBROUTINE(address=0x08B1)
132: 0x0344 [0x01] GOTO 0x0347

SUBROUTINE_0347:
133: 0x0347 [0x01] GOTO 0x0502
134: 0x034A [0x02] IF !(Work_Zone[4] <= 100*) GOTO 0x04F4
135: 0x0352 [0x02] IF !(ExtData[1]->WorkLocal[0] == 1*) GOTO 0x0410
136: 0x035A [0x02] IF !(ExtData[1]->WorkLocal[2] == 1*) GOTO 0x040D
137: 0x0362 [0x02] IF !(ExtData[1]->WorkLocal[1] == 1*) GOTO 0x040A
138: 0x036A [0x03] Work_Zone[2] = Work_Zone[4]
139: 0x036F [0x08] Work_Zone[2] -= 100*
140: 0x0374 [0x15] Work_Zone[2] /= 10*
141: 0x0379 [0x02] IF !(Work_Zone[2] == 1*) GOTO 0x03A5
142: 0x0381 [0x03] Work_Zone[4] = 11*
143: 0x0386 [0x1A] CALL_SUBROUTINE(address=0x089F)
144: 0x0389 [0x1D] PRINT_EVENT_MESSAGE(message_id=7179*)
    → "<Sigh>... Your forgetfulness does not bode well for your prospects. Yet I suppose we all have our momentary lapses. The ingredients for $2 are..."
145: 0x038C [0x23] WAIT_FOR_DIALOG_INTERACTION
146: 0x038D [0x1A] CALL_SUBROUTINE(address=0x08B1)
147: 0x0390 [0x03] ExtData[1]->WorkLocal[4] = 110*
148: 0x0395 [0x03] ExtData[1]->WorkLocal[5] = 10*
149: 0x039A [0x03] ExtData[1]->WorkLocal[6] = 11*
150: 0x039F [0x1A] CALL_SUBROUTINE(address=0x056A)
151: 0x03A2 [0x01] GOTO 0x03FD
152: 0x03A5 [0x02] IF !(Work_Zone[2] == 2*) GOTO 0x03D1
153: 0x03AD [0x03] Work_Zone[4] = 12*
154: 0x03B2 [0x1A] CALL_SUBROUTINE(address=0x089F)
155: 0x03B5 [0x1D] PRINT_EVENT_MESSAGE(message_id=7179*)
    → "<Sigh>... Your forgetfulness does not bode well for your prospects. Yet I suppose we all have our momentary lapses. The ingredients for $2 are..."
156: 0x03B8 [0x23] WAIT_FOR_DIALOG_INTERACTION
157: 0x03B9 [0x1A] CALL_SUBROUTINE(address=0x08B1)
158: 0x03BC [0x03] ExtData[1]->WorkLocal[4] = 120*
159: 0x03C1 [0x03] ExtData[1]->WorkLocal[5] = 11*
160: 0x03C6 [0x03] ExtData[1]->WorkLocal[6] = 12*
161: 0x03CB [0x1A] CALL_SUBROUTINE(address=0x056A)
162: 0x03CE [0x01] GOTO 0x03FD
163: 0x03D1 [0x02] IF !(Work_Zone[2] == 3*) GOTO 0x03FD
164: 0x03D9 [0x03] Work_Zone[4] = 13*
165: 0x03DE [0x1A] CALL_SUBROUTINE(address=0x089F)
166: 0x03E1 [0x1D] PRINT_EVENT_MESSAGE(message_id=7179*)
    → "<Sigh>... Your forgetfulness does not bode well for your prospects. Yet I suppose we all have our momentary lapses. The ingredients for $2 are..."
167: 0x03E4 [0x23] WAIT_FOR_DIALOG_INTERACTION
168: 0x03E5 [0x1A] CALL_SUBROUTINE(address=0x08B1)
169: 0x03E8 [0x03] ExtData[1]->WorkLocal[4] = 130*
170: 0x03ED [0x03] ExtData[1]->WorkLocal[5] = 12*
171: 0x03F2 [0x03] ExtData[1]->WorkLocal[6] = 13*
172: 0x03F7 [0x1A] CALL_SUBROUTINE(address=0x056A)
173: 0x03FA [0x01] GOTO 0x03FD

SUBROUTINE_03FD:
174: 0x03FD [0x1A] CALL_SUBROUTINE(address=0x089F)
175: 0x0400 [0x1D] PRINT_EVENT_MESSAGE(message_id=7178*)
    → "And do not forget to put your name to your work. This is necessary to verify its authenticity, and speaks as well to the pride you take in your craft."
176: 0x0403 [0x23] WAIT_FOR_DIALOG_INTERACTION
177: 0x0404 [0x1A] CALL_SUBROUTINE(address=0x08B1)
178: 0x0407 [0x01] GOTO 0x040A

SUBROUTINE_040A:
179: 0x040A [0x01] GOTO 0x040D

SUBROUTINE_040D:
180: 0x040D [0x01] GOTO 0x04F1
181: 0x0410 [0x02] IF !(ExtData[1]->WorkLocal[2] == 1*) GOTO 0x04F1
182: 0x0418 [0x03] Work_Zone[2] = Work_Zone[4]
183: 0x041D [0x08] Work_Zone[2] -= 100*
184: 0x0422 [0x15] Work_Zone[2] /= 10*
185: 0x0427 [0x1A] CALL_SUBROUTINE(address=0x089F)
186: 0x042A [0x1D] PRINT_EVENT_MESSAGE(message_id=7170*)
    → "You have made admirable progress, this is true. But are you content to remain [a veteran/an expert/an authority/a luminary/a master] forever? There are yet greater heights to strive for, if you so desire."
187: 0x042D [0x23] WAIT_FOR_DIALOG_INTERACTION
188: 0x042E [0x1A] CALL_SUBROUTINE(address=0x08B1)
189: 0x0431 [0x24] CREATE_DIALOG(message_id=7171*, default_option=0*, option_flags=0*)
    → "Strive for greater heights? [Certainly!/Maybe later...]"
190: 0x0438 [0x25] WAIT_DIALOG_SELECT()
191: 0x0439 [0x02] IF !(Work_Zone[0] == 0*) GOTO 0x04D9
192: 0x0441 [0x42] SET_CLI_EVENT_CANCEL_DATA()
193: 0x0442 [0x02] IF !(Work_Zone[2] == 1*) GOTO 0x046E
194: 0x044A [0x03] Work_Zone[4] = 11*
195: 0x044F [0x1A] CALL_SUBROUTINE(address=0x089F)
196: 0x0452 [0x1D] PRINT_EVENT_MESSAGE(message_id=7177*)
    → "Then your next task is to forge $2. Part of your test is acquiring the necessary materials, which are..."
197: 0x0455 [0x23] WAIT_FOR_DIALOG_INTERACTION
198: 0x0456 [0x1A] CALL_SUBROUTINE(address=0x08B1)
199: 0x0459 [0x03] ExtData[1]->WorkLocal[4] = 110*
200: 0x045E [0x03] ExtData[1]->WorkLocal[5] = 10*
201: 0x0463 [0x03] ExtData[1]->WorkLocal[6] = 11*
202: 0x0468 [0x1A] CALL_SUBROUTINE(address=0x056A)
203: 0x046B [0x01] GOTO 0x04C6
204: 0x046E [0x02] IF !(Work_Zone[2] == 2*) GOTO 0x049A
205: 0x0476 [0x03] Work_Zone[4] = 12*
206: 0x047B [0x1A] CALL_SUBROUTINE(address=0x089F)
207: 0x047E [0x1D] PRINT_EVENT_MESSAGE(message_id=7177*)
    → "Then your next task is to forge $2. Part of your test is acquiring the necessary materials, which are..."
208: 0x0481 [0x23] WAIT_FOR_DIALOG_INTERACTION
209: 0x0482 [0x1A] CALL_SUBROUTINE(address=0x08B1)
210: 0x0485 [0x03] ExtData[1]->WorkLocal[4] = 120*
211: 0x048A [0x03] ExtData[1]->WorkLocal[5] = 11*
212: 0x048F [0x03] ExtData[1]->WorkLocal[6] = 12*
213: 0x0494 [0x1A] CALL_SUBROUTINE(address=0x056A)
214: 0x0497 [0x01] GOTO 0x04C6
215: 0x049A [0x02] IF !(Work_Zone[2] == 3*) GOTO 0x04C6
216: 0x04A2 [0x03] Work_Zone[4] = 13*
217: 0x04A7 [0x1A] CALL_SUBROUTINE(address=0x089F)
218: 0x04AA [0x1D] PRINT_EVENT_MESSAGE(message_id=7177*)
    → "Then your next task is to forge $2. Part of your test is acquiring the necessary materials, which are..."
219: 0x04AD [0x23] WAIT_FOR_DIALOG_INTERACTION
220: 0x04AE [0x1A] CALL_SUBROUTINE(address=0x08B1)
221: 0x04B1 [0x03] ExtData[1]->WorkLocal[4] = 130*
222: 0x04B6 [0x03] ExtData[1]->WorkLocal[5] = 12*
223: 0x04BB [0x03] ExtData[1]->WorkLocal[6] = 13*
224: 0x04C0 [0x1A] CALL_SUBROUTINE(address=0x056A)
225: 0x04C3 [0x01] GOTO 0x04C6

SUBROUTINE_04C6:
226: 0x04C6 [0x1A] CALL_SUBROUTINE(address=0x089F)
227: 0x04C9 [0x1D] PRINT_EVENT_MESSAGE(message_id=7178*)
    → "And do not forget to put your name to your work. This is necessary to verify its authenticity, and speaks as well to the pride you take in your craft."
228: 0x04CC [0x23] WAIT_FOR_DIALOG_INTERACTION
229: 0x04CD [0x1A] CALL_SUBROUTINE(address=0x08B1)
230: 0x04D0 [0x03] Work_Zone[1] = 4*
231: 0x04D5 [0x2E] SET_CLI_EVENT_CANCEL_FLAGS()
232: 0x04D6 [0x01] GOTO 0x04EE
233: 0x04D9 [0x02] IF !(Work_Zone[0] == 1*) GOTO 0x04EE
234: 0x04E1 [0x1A] CALL_SUBROUTINE(address=0x089F)
235: 0x04E4 [0x1D] PRINT_EVENT_MESSAGE(message_id=7174*)
    → "A most unfortunate decision, given your aptitude for smithing. And yet perhaps it is for the best, if your heart is not truly in your work."
236: 0x04E7 [0x23] WAIT_FOR_DIALOG_INTERACTION
237: 0x04E8 [0x1A] CALL_SUBROUTINE(address=0x08B1)
238: 0x04EB [0x01] GOTO 0x04EE

SUBROUTINE_04EE:
239: 0x04EE [0x01] GOTO 0x04F1

SUBROUTINE_04F1:
240: 0x04F1 [0x01] GOTO 0x0502
241: 0x04F4 [0x1A] CALL_SUBROUTINE(address=0x089F)
242: 0x04F7 [0x1D] PRINT_EVENT_MESSAGE(message_id=7127*)
    → "I believe you are ready to move on to the next rank. Craft me $0."
243: 0x04FA [0x23] WAIT_FOR_DIALOG_INTERACTION
244: 0x04FB [0x1D] PRINT_EVENT_MESSAGE(message_id=7128*)
    → "Finish a quality piece, and I will teach you more."
245: 0x04FE [0x23] WAIT_FOR_DIALOG_INTERACTION
246: 0x04FF [0x1A] CALL_SUBROUTINE(address=0x08B1)

SUBROUTINE_0502:
247: 0x0502 [0x01] GOTO 0x050F
248: 0x0505 [0x1A] CALL_SUBROUTINE(address=0x089F)
249: 0x0508 [0x1D] PRINT_EVENT_MESSAGE(message_id=7126*)
    → "You think you've reached the top? Your head is still in the clouds, young adventurer. Even I am still climbing..."
250: 0x050B [0x23] WAIT_FOR_DIALOG_INTERACTION
251: 0x050C [0x1A] CALL_SUBROUTINE(address=0x08B1)

SUBROUTINE_050F:
252: 0x050F [0x01] GOTO 0x0568
253: 0x0512 [0x03] Work_Zone[8] = 2*
254: 0x0517 [0x1D] PRINT_EVENT_MESSAGE(message_id=7118*)
    → "This is the Blacksmiths' Guild, where skilled weapon and armorsmiths gather. Without us, a proud knight is but a paper tiger. Well, what is it, then?"
255: 0x051A [0x23] WAIT_FOR_DIALOG_INTERACTION
256: 0x051B [0x24] CREATE_DIALOG(message_id=6987*, default_option=0*, option_flags=0*)
    → "Join the [Fishermen's/Carpenters'/Blacksmiths'/Goldsmiths'/Weavers'/Tanners'/Boneworkers'/Alchemists'/Culinarians'] Guild? [Sign up./That's not why you're here.]"
257: 0x0522 [0x25] WAIT_DIALOG_SELECT()
258: 0x0523 [0x02] IF !(Work_Zone[0] == 0*) GOTO 0x0553
259: 0x052B [0x1A] CALL_SUBROUTINE(address=0x08B7)
260: 0x052E [0x1D] PRINT_EVENT_MESSAGE(message_id=7120*)
    → "Bah, another adventurer... Devotion to our craft is in short supply of late. Here!"
261: 0x0531 [0x23] WAIT_FOR_DIALOG_INTERACTION
262: 0x0532 [0x1D] PRINT_EVENT_MESSAGE(message_id=7121*)
    → "I'm sure you know, but that is a crystal, filled with incredible energy. No, not like blood; it is more akin to a block of coal."
263: 0x0535 [0x23] WAIT_FOR_DIALOG_INTERACTION
264: 0x0536 [0x1A] CALL_SUBROUTINE(address=0x08C9)
265: 0x0539 [0x1A] CALL_SUBROUTINE(address=0x089F)
266: 0x053C [0x1D] PRINT_EVENT_MESSAGE(message_id=7122*)
    → "You can synthesize crystals to make all sorts of things. Focus your will upon it, bring forth the heat, and transform the materials."
267: 0x053F [0x23] WAIT_FOR_DIALOG_INTERACTION
268: 0x0540 [0x1D] PRINT_EVENT_MESSAGE(message_id=7123*)
    → "But not me! I'm not fond of using them; they're costly, and the process finishes too quickly. Yes, toil is what makes things dear!"
269: 0x0543 [0x23] WAIT_FOR_DIALOG_INTERACTION
270: 0x0544 [0x1A] CALL_SUBROUTINE(address=0x08B1)
271: 0x0547 [0x1D] PRINT_EVENT_MESSAGE(message_id=7124*)
    → "Go and ask the others what materials to use. And, though it pains me to say it, you may learn much about smithing by visiting Bastok."
272: 0x054A [0x23] WAIT_FOR_DIALOG_INTERACTION
273: 0x054B [0x03] Work_Zone[1] = 1*
274: 0x0550 [0x01] GOTO 0x0568
275: 0x0553 [0x02] IF !(Work_Zone[0] == 1*) GOTO 0x0568
276: 0x055B [0x1A] CALL_SUBROUTINE(address=0x089F)
277: 0x055E [0x1D] PRINT_EVENT_MESSAGE(message_id=7119*)
    → "Aha! A Bastok spy, are you? Many secrets we hold dear, and pigs will fly before I surrender them!"
278: 0x0561 [0x23] WAIT_FOR_DIALOG_INTERACTION
279: 0x0562 [0x1A] CALL_SUBROUTINE(address=0x08B1)
280: 0x0565 [0x01] GOTO 0x0568

SUBROUTINE_0568:
281: 0x0568 [0x21] END_EVENT
282: 0x0569 [0x00] END_REQSTACK()

SUBROUTINE_056A:
283: 0x056A [0x8C] CRAFTING_HANDLER(mode=0x02) // Set recipe data
284: 0x0576 [0x8C] CRAFTING_HANDLER(mode=0x01) // End crafting session
285: 0x0578 [0x02] IF !(ExtData[1]->WorkLocal[6] == Work_Zone[2]) GOTO 0x058B
286: 0x0580 [0x03] ExtData[1]->WorkLocal[6] = 0*
287: 0x0585 [0x01] GOTO 0x06BD

SUBROUTINE_06BD:
288: 0x06BD [0x07] ExtData[1]->WorkLocal[6] += ExtData[1]->WorkLocal[7]
289: 0x06C2 [0x8C] CRAFTING_HANDLER(mode=0x03) // Get synthesis recipe
290: 0x06CC [0x8C] CRAFTING_HANDLER(mode=0x01) // End crafting session
291: 0x06CE [0x07] Work_Zone[68] += 142*
292: 0x06D3 [0x03] Work_Zone[8] = ExtData[1]->WorkLocal[3]
293: 0x06D8 [0x03] Work_Zone[3] = Work_Zone[65]
294: 0x06DD [0x03] Work_Zone[4] = Work_Zone[66]
295: 0x06E2 [0x03] Work_Zone[5] = Work_Zone[67]
296: 0x06E7 [0x03] Work_Zone[6] = Work_Zone[68]
297: 0x06EC [0x03] Work_Zone[7] = Work_Zone[85]
298: 0x06F1 [0x02] IF !(Work_Zone[7] == 0*) GOTO 0x0700
299: 0x06F9 [0x48] [System] [6993*]:
    → "Necessary skills: [Fishing/Woodworking/Smithing/Goldsmithing/Clothcraft/Leatherworking/Bonecraft/Alchemy/Cooking][ /, Woodworking/, Smithing/, Goldsmithing/, Clothcraft/, Leatherworking/, Bonecraft/, Alchemy/, Cooking][ /, Woodworking/, Smithing/, Goldsmithing/, Clothcraft/, Leatherworking/, Bonecraft/, Alchemy/, Cooking][ /, & Woodworking/, & Smithing/, & Goldsmithing/, & Clothcraft/, & Leatherworking/, & Bonecraft/, & Alchemy/, & Cooking] Necessary crystal: $4 Necessary items:"
300: 0x06FC [0x23] WAIT_FOR_DIALOG_INTERACTION
301: 0x06FD [0x01] GOTO 0x0704
302: 0x0700 [0x48] [System] [7031*]:
    → "Necessary skills: [Fishing/Woodworking/Smithing/Goldsmithing/Clothcraft/Leatherworking/Bonecraft/Alchemy/Cooking][ /, Woodworking/, Smithing/, Goldsmithing/, Clothcraft/, Leatherworking/, Bonecraft/, Alchemy/, Cooking][ /, Woodworking/, Smithing/, Goldsmithing/, Clothcraft/, Leatherworking/, Bonecraft/, Alchemy/, Cooking][ /, & Woodworking/, & Smithing/, & Goldsmithing/, & Clothcraft/, & Leatherworking/, & Bonecraft/, & Alchemy/, & Cooking] Necessary crystal: $4 Necessary key item: $3 Necessary items:"
303: 0x0703 [0x23] WAIT_FOR_DIALOG_INTERACTION

SUBROUTINE_0704:
304: 0x0704 [0x03] Work_Zone[2] = Work_Zone[69]
305: 0x0709 [0x03] Work_Zone[3] = Work_Zone[70]
306: 0x070E [0x03] Work_Zone[4] = Work_Zone[71]
307: 0x0713 [0x03] Work_Zone[5] = Work_Zone[72]
308: 0x0718 [0x03] Work_Zone[6] = Work_Zone[77]
309: 0x071D [0x03] Work_Zone[7] = Work_Zone[78]
310: 0x0722 [0x03] Work_Zone[8] = Work_Zone[79]
311: 0x0727 [0x03] Work_Zone[9] = Work_Zone[80]
312: 0x072C [0x02] IF !(Work_Zone[7] == 0*) GOTO 0x073B
313: 0x0734 [0x48] [System] [6997*]:
    → "$4 x $0"
314: 0x0737 [0x23] WAIT_FOR_DIALOG_INTERACTION
315: 0x0738 [0x01] GOTO 0x07C1
316: 0x073B [0x02] IF !(Work_Zone[8] == 0*) GOTO 0x074A
317: 0x0743 [0x48] [System] [6996*]:
    → "$4 x $0 $5 x $0$0"
318: 0x0746 [0x23] WAIT_FOR_DIALOG_INTERACTION
319: 0x0747 [0x01] GOTO 0x07C1
320: 0x074A [0x02] IF !(Work_Zone[9] == 0*) GOTO 0x0759
321: 0x0752 [0x48] [System] [6995*]:
    → "$4 x $0 $5 x $0$0 $6 x $0"
322: 0x0755 [0x23] WAIT_FOR_DIALOG_INTERACTION
323: 0x0756 [0x01] GOTO 0x07C1
324: 0x0759 [0x48] [System] [6994*]:
    → "$4 x $0 $5 x $0$0 $6 x $0 $7 x $0$3"
325: 0x075C [0x23] WAIT_FOR_DIALOG_INTERACTION
326: 0x075D [0x03] Work_Zone[2] = Work_Zone[73]
327: 0x0762 [0x03] Work_Zone[3] = Work_Zone[74]
328: 0x0767 [0x03] Work_Zone[4] = Work_Zone[75]
329: 0x076C [0x03] Work_Zone[5] = Work_Zone[76]
330: 0x0771 [0x03] Work_Zone[6] = Work_Zone[81]
331: 0x0776 [0x03] Work_Zone[7] = Work_Zone[82]
332: 0x077B [0x03] Work_Zone[8] = Work_Zone[83]
333: 0x0780 [0x03] Work_Zone[9] = Work_Zone[84]
334: 0x0785 [0x02] IF !(Work_Zone[6] == 0*) GOTO 0x0790
335: 0x078D [0x01] GOTO 0x07C1
336: 0x0790 [0x02] IF !(Work_Zone[7] == 0*) GOTO 0x079F
337: 0x0798 [0x48] [System] [6997*]:
    → "$4 x $0"
338: 0x079B [0x23] WAIT_FOR_DIALOG_INTERACTION
339: 0x079C [0x01] GOTO 0x07C1
340: 0x079F [0x02] IF !(Work_Zone[8] == 0*) GOTO 0x07AE
341: 0x07A7 [0x48] [System] [6996*]:
    → "$4 x $0 $5 x $0$0"
342: 0x07AA [0x23] WAIT_FOR_DIALOG_INTERACTION
343: 0x07AB [0x01] GOTO 0x07C1
344: 0x07AE [0x02] IF !(Work_Zone[9] == 0*) GOTO 0x07BD
345: 0x07B6 [0x48] [System] [6995*]:
    → "$4 x $0 $5 x $0$0 $6 x $0"
346: 0x07B9 [0x23] WAIT_FOR_DIALOG_INTERACTION
347: 0x07BA [0x01] GOTO 0x07C1
348: 0x07BD [0x48] [System] [6994*]:
    → "$4 x $0 $5 x $0$0 $6 x $0 $7 x $0$3"
349: 0x07C0 [0x23] WAIT_FOR_DIALOG_INTERACTION

SUBROUTINE_07C1:
350: 0x07C1 [0x1B] RETURN
```

#### Data or dead code:

```
# Dead code (unreachable instructions):
     0x008A [0x01] GOTO 0x01BC
# Dead code (unreachable instructions):
     0x01D2 [0x01] GOTO 0x01EE
# Dead code (unreachable instructions):
     0x0588 [0x01] GOTO 0x06BD
     0x059B [0x01] GOTO 0x06BD
     0x05AE [0x01] GOTO 0x06BD
     0x05C1 [0x01] GOTO 0x06BD
     0x05D4 [0x01] GOTO 0x06BD
     0x05E7 [0x01] GOTO 0x06BD
     0x05FA [0x01] GOTO 0x06BD
     0x060D [0x01] GOTO 0x06BD
     0x0620 [0x01] GOTO 0x06BD
     0x0633 [0x01] GOTO 0x06BD
     0x0646 [0x01] GOTO 0x06BD
     0x0659 [0x01] GOTO 0x06BD
     0x066C [0x01] GOTO 0x06BD
     0x067F [0x01] GOTO 0x06BD
     0x0692 [0x01] GOTO 0x06BD
     0x06A5 [0x01] GOTO 0x06BD
```

### Event 627

#### Metadata

| Field        | Value     |
|--------------|-----------|
| Entrypoint   | 0x07C2    |
| Data Size    | 277 bytes |
| Instructions | 64        |

```
      00 01 02 03 04 05 06 07  08 09 0A 0B 0C 0D 0E 0F
      -- -- -- -- -- -- -- --  -- -- -- -- -- -- -- --
07C0:       20 01 42 1E F0 FF  FF 7F 1A 9F 08 02 06 10     .B...........
07D0: 03 80 03 DA 07 03 06 10  03 80 03 09 10 06 10 02  ................
07E0: 09 10 13 80 05 EE 07 1D  4C 80 23 01 81 08 02 09  ........L.#.....
07F0: 10 15 80 80 FD 07 1D 4D  80 23 01 81 08 02 09 10  .......M.#......
0800: 17 80 80 0C 08 1D 4E 80  23 01 81 08 02 09 10 19  ......N.#.......
0810: 80 80 27 08 1D 4F 80 23  02 05 10 03 80 00 24 08  ..'..O.#......$.
0820: 1D 50 80 23 01 81 08 02  09 10 1B 80 80 42 08 1D  .P.#.........B..
0830: 51 80 23 02 05 10 0B 80  00 3F 08 1D 50 80 23 01  Q.#......?..P.#.
0840: 81 08 02 09 10 00 80 80  5D 08 1D 52 80 23 02 05  ........]..R.#..
0850: 10 02 80 00 5A 08 1D 50  80 23 01 81 08 02 09 10  ....Z..P.#......
0860: 01 80 80 81 08 02 07 10  0B 80 00 74 08 1D 53 80  ...........t..S.
0870: 23 01 7E 08 1D 54 80 23  1D 55 80 23 21 00 01 81  #.~..T.#.U.#!...
0880: 08 1A B1 08 03 08 10 02  80 45 56 80 F0 FF FF 7F  .........EV.....
0890: F0 FF FF 7F 71 73 74 63  03 80 48 57 80 21 00 6F  ....qstc..HW.!.o
08A0: 70 66 05 80 F8 FF FF 7F  F8 FF FF 7F 74 6C 6B 30  pf..........tlk0
08B0: 1B 5E 69 64 6C 30 1B 6F  70 66 05 80 F8 FF FF 7F  .^idl0.opf......
08C0: F8 FF FF 7F 70 61 73 30  1B 53 F8 FF FF 7F F8 FF  ....pas0.S......
08D0: FF 7F 70 61 73 30 1B                              ..pas0.         
```

#### Opcodes

```
  0: 0x07C2 [0x20] SET_CLI_EVENT_UC_FLAG: Lock player control
  1: 0x07C4 [0x42] SET_CLI_EVENT_CANCEL_DATA()
  2: 0x07C5 [0x1E] EventEntity looks at LocalPlayer and starts talking
  3: 0x07CA [0x1A] CALL_SUBROUTINE(address=0x089F)
  4: 0x07CD [0x02] IF !(Work_Zone[6] >= 0*) GOTO 0x07DA
  5: 0x07D5 [0x03] Work_Zone[6] = 0*
  6: 0x07DA [0x03] Work_Zone[9] = Work_Zone[6]
  7: 0x07DF [0x02] IF !(Work_Zone[9] > 4*) GOTO 0x07EE
  8: 0x07E7 [0x1D] PRINT_EVENT_MESSAGE(message_id=7129*)
    → "Hmm... Well, not bad. I shall promote you to the rank of [amateur/recruit/initiate/novice/apprentice]. Do not rest, for the road ahead is long."
  9: 0x07EA [0x23] WAIT_FOR_DIALOG_INTERACTION
 10: 0x07EB [0x01] GOTO 0x0881
 11: 0x07EE [0x02] IF !(Work_Zone[9] == 5*) GOTO 0x07FD
 12: 0x07F6 [0x1D] PRINT_EVENT_MESSAGE(message_id=7130*)
    → "Yes... This will do. I hereby award you the rank of journeyman. Congratulations. We have high hopes for you."
 13: 0x07F9 [0x23] WAIT_FOR_DIALOG_INTERACTION
 14: 0x07FA [0x01] GOTO 0x0881
 15: 0x07FD [0x02] IF !(Work_Zone[9] == 6*) GOTO 0x080C
 16: 0x0805 [0x1D] PRINT_EVENT_MESSAGE(message_id=7158*)
    → "Impressive! A precious piece of work, indeed! <Player>, I grant you the rank of craftsman. Continue to polish your skills, and there is no telling how far you may go."
 17: 0x0808 [0x23] WAIT_FOR_DIALOG_INTERACTION
 18: 0x0809 [0x01] GOTO 0x0881
 19: 0x080C [0x02] IF !(Work_Zone[9] == 7*) GOTO 0x0827
 20: 0x0814 [0x1D] PRINT_EVENT_MESSAGE(message_id=7131*)
    → "Why, bless my bellows! A work of art, indeed! You shall henceforth be addressed as artisan. May you live up to that name."
 21: 0x0817 [0x23] WAIT_FOR_DIALOG_INTERACTION
 22: 0x0818 [0x02] IF !(Work_Zone[5] == 0*) GOTO 0x0824
 23: 0x0820 [0x1D] PRINT_EVENT_MESSAGE(message_id=7187*)
    → "Maintaining your level of mastery with San d'Orian smithing techniques will requires discipline and devotion. Now that you have reached [artisan/adept/veteran] status in our guild, I would advise against delving too deeply into other crafts."
 24: 0x0823 [0x23] WAIT_FOR_DIALOG_INTERACTION
 25: 0x0824 [0x01] GOTO 0x0881
 26: 0x0827 [0x02] IF !(Work_Zone[9] == 8*) GOTO 0x0842
 27: 0x082F [0x1D] PRINT_EVENT_MESSAGE(message_id=7132*)
    → "Unbelievable that a mere adventurer like you could forge such fine steel. Reminds me of when I was your age..."
 28: 0x0832 [0x23] WAIT_FOR_DIALOG_INTERACTION
 29: 0x0833 [0x02] IF !(Work_Zone[5] == 1*) GOTO 0x083F
 30: 0x083B [0x1D] PRINT_EVENT_MESSAGE(message_id=7187*)
    → "Maintaining your level of mastery with San d'Orian smithing techniques will requires discipline and devotion. Now that you have reached [artisan/adept/veteran] status in our guild, I would advise against delving too deeply into other crafts."
 31: 0x083E [0x23] WAIT_FOR_DIALOG_INTERACTION
 32: 0x083F [0x01] GOTO 0x0881
 33: 0x0842 [0x02] IF !(Work_Zone[9] == 9*) GOTO 0x085D
 34: 0x084A [0x1D] PRINT_EVENT_MESSAGE(message_id=7133*)
    → "I...I'm at a loss for words. You've more than proven yourself as a veteran of the Blacksmiths' Guild! Why, you're almost as good as I was when I was your age...almost."
 35: 0x084D [0x23] WAIT_FOR_DIALOG_INTERACTION
 36: 0x084E [0x02] IF !(Work_Zone[5] == 2*) GOTO 0x085A
 37: 0x0856 [0x1D] PRINT_EVENT_MESSAGE(message_id=7187*)
    → "Maintaining your level of mastery with San d'Orian smithing techniques will requires discipline and devotion. Now that you have reached [artisan/adept/veteran] status in our guild, I would advise against delving too deeply into other crafts."
 38: 0x0859 [0x23] WAIT_FOR_DIALOG_INTERACTION
 39: 0x085A [0x01] GOTO 0x0881
 40: 0x085D [0x02] IF !(Work_Zone[9] == 10*) GOTO 0x0881
 41: 0x0865 [0x02] IF !(Work_Zone[7] == 1*) GOTO 0x0874
 42: 0x086D [0x1D] PRINT_EVENT_MESSAGE(message_id=7180*)
    → "Yes...yes, indeed... You have confirmed my greatest hopes--this is truly the work of an expert. Stay devoted to our craft, and it will not be long until I can call you my peer."
 43: 0x0870 [0x23] WAIT_FOR_DIALOG_INTERACTION
 44: 0x0871 [0x01] GOTO 0x087E
 45: 0x0874 [0x1D] PRINT_EVENT_MESSAGE(message_id=7181*)
    → "What is the meaning of this, <Player>? The work itself is satisfactory, but without your signature engraved, we have no way to ascertain that it is truly yours."
 46: 0x0877 [0x23] WAIT_FOR_DIALOG_INTERACTION
 47: 0x0878 [0x1D] PRINT_EVENT_MESSAGE(message_id=7182*)
    → "Consider this a chance to outdo yourself and produce a truly transcendent piece of steel. Now, back to the forge with you."
 48: 0x087B [0x23] WAIT_FOR_DIALOG_INTERACTION
 49: 0x087C [0x21] END_EVENT
 50: 0x087D [0x00] END_REQSTACK()

SUBROUTINE_087E:
 51: 0x087E [0x01] GOTO 0x0881

SUBROUTINE_0881:
 52: 0x0881 [0x1A] CALL_SUBROUTINE(address=0x08B1)
 53: 0x0884 [0x03] Work_Zone[8] = 2*
 54: 0x0889 [0x45] LOAD_SCHEDULED_TASK: Load scheduler "qstc" with entities [LocalPlayer, LocalPlayer], work=[201*, 0*]
 55: 0x089A [0x48] [System] [6990*]:
    → "You are now recognized as [an amateur/a recruit/an initiate/a novice/an apprentice/a journeyman/a craftsman/an artisan/an adept/a veteran/an expert/an authority/a luminary/a master/a grandmaster/a legend] of the [Fishermen's/Carpenters'/Blacksmiths'/Goldsmiths'/Weavers'/Tanners'/Boneworkers'/Alchemists'/Culinarians'] Guild."
 56: 0x089D [0x21] END_EVENT
 57: 0x089E [0x00] END_REQSTACK()

SUBROUTINE_089F:
 58: 0x089F [0x6F] WAIT_FRAME_DELAY: Yield until WaitTime reaches zero
 59: 0x08A0 [0x70] WAIT_ENTITY_RENDER_FLAG: Wait while EventEntity->Render.Flags3 bit 2 is set (cancel turn if not)
 60: 0x08A1 [0x66] LOAD_EXT_SCHEDULER_MAIN: Load scheduler "tlk0" with entities [EventEntity, EventEntity], work=20*
 61: 0x08B0 [0x1B] RETURN

SUBROUTINE_08B1:
 62: 0x08B1 [0x5E] EventEntity goes idle (kills current action) (animation: "idl0")
 63: 0x08B6 [0x1B] RETURN
```

#### Data or dead code:

```
# Dead code (unreachable instructions):
     0x08B7 [0x6F] WAIT_FRAME_DELAY: Yield until WaitTime reaches zero
     0x08B8 [0x70] WAIT_ENTITY_RENDER_FLAG: Wait while EventEntity->Render.Flags3 bit 2 is set (cancel turn if not)
     0x08B9 [0x66] LOAD_EXT_SCHEDULER_MAIN: Load scheduler "pas0" with entities [EventEntity, EventEntity], work=20*
     0x08C8 [0x1B] RETURN
     0x08C9 [0x53] WAIT_SCHEDULER_TASK: Wait for scheduler "pas0" with entities [EventEntity, EventEntity]
     0x08D6 [0x1B] RETURN
```

### Event 935

#### Metadata

| Field        | Value     |
|--------------|-----------|
| Entrypoint   | 0x08D7    |
| Data Size    | 131 bytes |
| Instructions | 24        |

```
      00 01 02 03 04 05 06 07  08 09 0A 0B 0C 0D 0E 0F
      -- -- -- -- -- -- -- --  -- -- -- -- -- -- -- --
08D0:                      03  0E 00 07 10 03 1A 00 08         .........
08E0: 10 02 0E 00 0B 80 80 58  09 03 11 00 02 10 03 13  .......X........
08F0: 00 03 10 03 14 00 04 10  03 15 00 05 10 03 12 00  ................
0900: 06 10 42 4A F8 FF FF 7F  F0 FF FF 7F 6F 70 66 05  ..BJ........opf.
0910: 80 F8 FF FF 7F F8 FF FF  7F 74 6C 6B 30 1D 58 80  .........tlk0.X.
0920: 23 66 05 80 F8 FF FF 7F  F8 FF FF 7F 74 6C 6B 31  #f..........tlk1
0930: 1A 99 15 66 05 80 F8 FF  FF 7F F8 FF FF 7F 74 6C  ...f..........tl
0940: 6B 30 1D 59 80 23 66 05  80 F8 FF FF 7F F8 FF FF  k0.Y.#f.........
0950: 7F 74 6C 6B 31 01 58 09  21 00                    .tlk1.X.!.      
```

#### Opcodes

```
  0: 0x08D7 [0x03] ExtData[1]->WorkLocal[14] = Work_Zone[7]
  1: 0x08DC [0x03] ExtData[1]->WorkLocal[26] = Work_Zone[8]
  2: 0x08E1 [0x02] IF !(ExtData[1]->WorkLocal[14] == 1*) GOTO 0x0958
  3: 0x08E9 [0x03] ExtData[1]->WorkLocal[17] = Work_Zone[2]
  4: 0x08EE [0x03] ExtData[1]->WorkLocal[19] = Work_Zone[3]
  5: 0x08F3 [0x03] ExtData[1]->WorkLocal[20] = Work_Zone[4]
  6: 0x08F8 [0x03] ExtData[1]->WorkLocal[21] = Work_Zone[5]
  7: 0x08FD [0x03] ExtData[1]->WorkLocal[18] = Work_Zone[6]
  8: 0x0902 [0x42] SET_CLI_EVENT_CANCEL_DATA()
  9: 0x0903 [0x4A] EventEntity looks at LocalPlayer
 10: 0x090C [0x6F] WAIT_FRAME_DELAY: Yield until WaitTime reaches zero
 11: 0x090D [0x70] WAIT_ENTITY_RENDER_FLAG: Wait while EventEntity->Render.Flags3 bit 2 is set (cancel turn if not)
 12: 0x090E [0x66] LOAD_EXT_SCHEDULER_MAIN: Load scheduler "tlk0" with entities [EventEntity, EventEntity], work=20*
 13: 0x091D [0x1D] PRINT_EVENT_MESSAGE(message_id=19077*)
    → "Are you trying to tell me that you've forgotten the recipe already? Very well. Here is the list again. Please do try to remember it."
 14: 0x0920 [0x23] WAIT_FOR_DIALOG_INTERACTION
 15: 0x0921 [0x66] LOAD_EXT_SCHEDULER_MAIN: Load scheduler "tlk1" with entities [EventEntity, EventEntity], work=20*
 16: 0x0930 [0x1A] CALL_SUBROUTINE(address=0x1599)
 17: 0x0933 [0x66] LOAD_EXT_SCHEDULER_MAIN: Load scheduler "tlk0" with entities [EventEntity, EventEntity], work=20*
 18: 0x0942 [0x1D] PRINT_EVENT_MESSAGE(message_id=19078*)
    → "I was known for being quite talented in my day, yet even I must admit that you have surpassed me. I have faith that you will be able to complete this task."
 19: 0x0945 [0x23] WAIT_FOR_DIALOG_INTERACTION
 20: 0x0946 [0x66] LOAD_EXT_SCHEDULER_MAIN: Load scheduler "tlk1" with entities [EventEntity, EventEntity], work=20*
 21: 0x0955 [0x01] GOTO 0x0958

SUBROUTINE_0958:
 22: 0x0958 [0x21] END_EVENT
 23: 0x0959 [0x00] END_REQSTACK()
```

### Event 942

#### Metadata

| Field        | Value     |
|--------------|-----------|
| Entrypoint   | 0x095A    |
| Data Size    | 134 bytes |
| Instructions | 24        |

```
      00 01 02 03 04 05 06 07  08 09 0A 0B 0C 0D 0E 0F
      -- -- -- -- -- -- -- --  -- -- -- -- -- -- -- --
0950:                                03 11 00 02 10 03            ......
0960: 13 00 03 10 03 14 00 04  10 03 15 00 05 10 03 16  ................
0970: 00 06 10 03 12 00 07 10  03 0E 00 08 10 03 1A 00  ................
0980: 09 10 42 4A F8 FF FF 7F  F0 FF FF 7F 4A F0 FF FF  ..BJ........J...
0990: 7F F8 FF FF 7F 6F 70 66  05 80 F8 FF FF 7F F8 FF  .....opf........
09A0: FF 7F 74 6C 6B 30 1D 58  80 23 66 05 80 F8 FF FF  ..tlk0.X.#f.....
09B0: 7F F8 FF FF 7F 74 6C 6B  31 1A E8 15 66 05 80 F8  .....tlk1...f...
09C0: FF FF 7F F8 FF FF 7F 74  6C 6B 30 1D 59 80 23 66  .......tlk0.Y.#f
09D0: 05 80 F8 FF FF 7F F8 FF  FF 7F 74 6C 6B 31 21 00  ..........tlk1!.
```

#### Opcodes

```
  0: 0x095A [0x03] ExtData[1]->WorkLocal[17] = Work_Zone[2]
  1: 0x095F [0x03] ExtData[1]->WorkLocal[19] = Work_Zone[3]
  2: 0x0964 [0x03] ExtData[1]->WorkLocal[20] = Work_Zone[4]
  3: 0x0969 [0x03] ExtData[1]->WorkLocal[21] = Work_Zone[5]
  4: 0x096E [0x03] ExtData[1]->WorkLocal[22] = Work_Zone[6]
  5: 0x0973 [0x03] ExtData[1]->WorkLocal[18] = Work_Zone[7]
  6: 0x0978 [0x03] ExtData[1]->WorkLocal[14] = Work_Zone[8]
  7: 0x097D [0x03] ExtData[1]->WorkLocal[26] = Work_Zone[9]
  8: 0x0982 [0x42] SET_CLI_EVENT_CANCEL_DATA()
  9: 0x0983 [0x4A] EventEntity looks at LocalPlayer
 10: 0x098C [0x4A] LocalPlayer looks at EventEntity
 11: 0x0995 [0x6F] WAIT_FRAME_DELAY: Yield until WaitTime reaches zero
 12: 0x0996 [0x70] WAIT_ENTITY_RENDER_FLAG: Wait while EventEntity->Render.Flags3 bit 2 is set (cancel turn if not)
 13: 0x0997 [0x66] LOAD_EXT_SCHEDULER_MAIN: Load scheduler "tlk0" with entities [EventEntity, EventEntity], work=20*
 14: 0x09A6 [0x1D] PRINT_EVENT_MESSAGE(message_id=19077*)
    → "Are you trying to tell me that you've forgotten the recipe already? Very well. Here is the list again. Please do try to remember it."
 15: 0x09A9 [0x23] WAIT_FOR_DIALOG_INTERACTION
 16: 0x09AA [0x66] LOAD_EXT_SCHEDULER_MAIN: Load scheduler "tlk1" with entities [EventEntity, EventEntity], work=20*
 17: 0x09B9 [0x1A] CALL_SUBROUTINE(address=0x15E8)
 18: 0x09BC [0x66] LOAD_EXT_SCHEDULER_MAIN: Load scheduler "tlk0" with entities [EventEntity, EventEntity], work=20*
 19: 0x09CB [0x1D] PRINT_EVENT_MESSAGE(message_id=19078*)
    → "I was known for being quite talented in my day, yet even I must admit that you have surpassed me. I have faith that you will be able to complete this task."
 20: 0x09CE [0x23] WAIT_FOR_DIALOG_INTERACTION
 21: 0x09CF [0x66] LOAD_EXT_SCHEDULER_MAIN: Load scheduler "tlk1" with entities [EventEntity, EventEntity], work=20*
 22: 0x09DE [0x21] END_EVENT
 23: 0x09DF [0x00] END_REQSTACK()
```

### Event 936

#### Metadata

| Field        | Value     |
|--------------|-----------|
| Entrypoint   | 0x09E0    |
| Data Size    | 124 bytes |
| Instructions | 33        |

```
      00 01 02 03 04 05 06 07  08 09 0A 0B 0C 0D 0E 0F
      -- -- -- -- -- -- -- --  -- -- -- -- -- -- -- --
09E0: 03 0E 00 02 10 02 0E 00  0B 80 80 0C 0A 4A F8 FF  .............J..
09F0: FF 7F F0 FF FF 7F 4A F0  FF FF 7F F8 FF FF 7F 6F  ......J........o
0A00: 70 1D 5A 80 23 1D 5B 80  23 01 5A 0A 02 0E 00 02  p.Z.#.[.#.Z.....
0A10: 80 80 33 0A 4A F8 FF FF  7F F0 FF FF 7F 4A F0 FF  ..3.J........J..
0A20: FF 7F F8 FF FF 7F 6F 70  1D 5A 80 23 1D 5B 80 23  ......op.Z.#.[.#
0A30: 01 5A 0A 02 0E 00 11 80  80 5A 0A 4A F8 FF FF 7F  .Z.......Z.J....
0A40: F0 FF FF 7F 4A F0 FF FF  7F F8 FF FF 7F 6F 70 1D  ....J........op.
0A50: 5A 80 23 1D 5B 80 23 01  5A 0A 21 00              Z.#.[.#.Z.!.    
```

#### Opcodes

```
  0: 0x09E0 [0x03] ExtData[1]->WorkLocal[14] = Work_Zone[2]
  1: 0x09E5 [0x02] IF !(ExtData[1]->WorkLocal[14] == 1*) GOTO 0x0A0C
  2: 0x09ED [0x4A] EventEntity looks at LocalPlayer
  3: 0x09F6 [0x4A] LocalPlayer looks at EventEntity
  4: 0x09FF [0x6F] WAIT_FRAME_DELAY: Yield until WaitTime reaches zero
  5: 0x0A00 [0x70] WAIT_ENTITY_RENDER_FLAG: Wait while EventEntity->Render.Flags3 bit 2 is set (cancel turn if not)
  6: 0x0A01 [0x1D] PRINT_EVENT_MESSAGE(message_id=19093*)
    → "Show this shield to Mewk Chorosap in Jeuno."
  7: 0x0A04 [0x23] WAIT_FOR_DIALOG_INTERACTION
  8: 0x0A05 [0x1D] PRINT_EVENT_MESSAGE(message_id=19094*)
    → "By the way, I am always scheduling deliveries to Ore Guzzler. Please stop by and help out the guild if you get a chance."
  9: 0x0A08 [0x23] WAIT_FOR_DIALOG_INTERACTION
 10: 0x0A09 [0x01] GOTO 0x0A5A
 11: 0x0A0C [0x02] IF !(ExtData[1]->WorkLocal[14] == 2*) GOTO 0x0A33
 12: 0x0A14 [0x4A] EventEntity looks at LocalPlayer
 13: 0x0A1D [0x4A] LocalPlayer looks at EventEntity
 14: 0x0A26 [0x6F] WAIT_FRAME_DELAY: Yield until WaitTime reaches zero
 15: 0x0A27 [0x70] WAIT_ENTITY_RENDER_FLAG: Wait while EventEntity->Render.Flags3 bit 2 is set (cancel turn if not)
 16: 0x0A28 [0x1D] PRINT_EVENT_MESSAGE(message_id=19093*)
    → "Show this shield to Mewk Chorosap in Jeuno."
 17: 0x0A2B [0x23] WAIT_FOR_DIALOG_INTERACTION
 18: 0x0A2C [0x1D] PRINT_EVENT_MESSAGE(message_id=19094*)
    → "By the way, I am always scheduling deliveries to Ore Guzzler. Please stop by and help out the guild if you get a chance."
 19: 0x0A2F [0x23] WAIT_FOR_DIALOG_INTERACTION
 20: 0x0A30 [0x01] GOTO 0x0A5A
 21: 0x0A33 [0x02] IF !(ExtData[1]->WorkLocal[14] == 3*) GOTO 0x0A5A
 22: 0x0A3B [0x4A] EventEntity looks at LocalPlayer
 23: 0x0A44 [0x4A] LocalPlayer looks at EventEntity
 24: 0x0A4D [0x6F] WAIT_FRAME_DELAY: Yield until WaitTime reaches zero
 25: 0x0A4E [0x70] WAIT_ENTITY_RENDER_FLAG: Wait while EventEntity->Render.Flags3 bit 2 is set (cancel turn if not)
 26: 0x0A4F [0x1D] PRINT_EVENT_MESSAGE(message_id=19093*)
    → "Show this shield to Mewk Chorosap in Jeuno."
 27: 0x0A52 [0x23] WAIT_FOR_DIALOG_INTERACTION
 28: 0x0A53 [0x1D] PRINT_EVENT_MESSAGE(message_id=19094*)
    → "By the way, I am always scheduling deliveries to Ore Guzzler. Please stop by and help out the guild if you get a chance."
 29: 0x0A56 [0x23] WAIT_FOR_DIALOG_INTERACTION
 30: 0x0A57 [0x01] GOTO 0x0A5A

SUBROUTINE_0A5A:
 31: 0x0A5A [0x21] END_EVENT
 32: 0x0A5B [0x00] END_REQSTACK()
```

### Event 937

#### Metadata

| Field        | Value     |
|--------------|-----------|
| Entrypoint   | 0x0A5C    |
| Data Size    | 259 bytes |
| Instructions | 62        |

```
      00 01 02 03 04 05 06 07  08 09 0A 0B 0C 0D 0E 0F
      -- -- -- -- -- -- -- --  -- -- -- -- -- -- -- --
0A50:                                      03 11 00 02              ....
0A60: 10 03 13 00 03 10 03 14  00 04 10 03 15 00 05 10  ................
0A70: 03 12 00 06 10 03 0E 00  07 10 03 1A 00 08 10 02  ................
0A80: 0E 00 0B 80 80 5D 0B 42  4A F8 FF FF 7F F0 FF FF  .....].BJ.......
0A90: 7F 6F 70 1D 5C 80 23 66  05 80 F8 FF FF 7F F8 FF  .op.\.#f........
0AA0: FF 7F 74 68 6B 31 1D 5D  80 23 66 05 80 F8 FF FF  ..thk1.].#f.....
0AB0: 7F F8 FF FF 7F 74 68 6B  32 1D 5E 80 23 66 05 80  .....thk2.^.#f..
0AC0: F8 FF FF 7F F8 FF FF 7F  74 6C 6B 30 1D 5F 80 23  ........tlk0._.#
0AD0: 1D 60 80 23 1D 61 80 23  66 05 80 F8 FF FF 7F F8  .`.#.a.#f.......
0AE0: FF FF 7F 74 6C 6B 31 1A  99 15 66 05 80 F8 FF FF  ...tlk1...f.....
0AF0: 7F F8 FF FF 7F 74 6C 6B  30 1D 62 80 23 1D 63 80  .....tlk0.b.#.c.
0B00: 23 1D 64 80 23 66 05 80  F8 FF FF 7F F8 FF FF 7F  #.d.#f..........
0B10: 74 6C 6B 31 48 65 80 23  48 66 80 23 48 67 80 23  tlk1He.#Hf.#Hg.#
0B20: 48 68 80 23 66 05 80 F8  FF FF 7F F8 FF FF 7F 74  Hh.#f..........t
0B30: 6C 6B 30 1D 69 80 23 1D  6A 80 23 1D 6B 80 23 1D  lk0.i.#.j.#.k.#.
0B40: 6C 80 23 1D 6D 80 23 1D  6E 80 23 66 05 80 F8 FF  l.#.m.#.n.#f....
0B50: FF 7F F8 FF FF 7F 74 6C  6B 31 01 5D 0B 21 00     ......tlk1.].!. 
```

#### Opcodes

```
  0: 0x0A5C [0x03] ExtData[1]->WorkLocal[17] = Work_Zone[2]
  1: 0x0A61 [0x03] ExtData[1]->WorkLocal[19] = Work_Zone[3]
  2: 0x0A66 [0x03] ExtData[1]->WorkLocal[20] = Work_Zone[4]
  3: 0x0A6B [0x03] ExtData[1]->WorkLocal[21] = Work_Zone[5]
  4: 0x0A70 [0x03] ExtData[1]->WorkLocal[18] = Work_Zone[6]
  5: 0x0A75 [0x03] ExtData[1]->WorkLocal[14] = Work_Zone[7]
  6: 0x0A7A [0x03] ExtData[1]->WorkLocal[26] = Work_Zone[8]
  7: 0x0A7F [0x02] IF !(ExtData[1]->WorkLocal[14] == 1*) GOTO 0x0B5D
  8: 0x0A87 [0x42] SET_CLI_EVENT_CANCEL_DATA()
  9: 0x0A88 [0x4A] EventEntity looks at LocalPlayer
 10: 0x0A91 [0x6F] WAIT_FRAME_DELAY: Yield until WaitTime reaches zero
 11: 0x0A92 [0x70] WAIT_ENTITY_RENDER_FLAG: Wait while EventEntity->Render.Flags3 bit 2 is set (cancel turn if not)
 12: 0x0A93 [0x1D] PRINT_EVENT_MESSAGE(message_id=19062*)
    → "Oh, greetings, my friend. Ahh, what's that shield you're holding?"
 13: 0x0A96 [0x23] WAIT_FOR_DIALOG_INTERACTION
 14: 0x0A97 [0x66] LOAD_EXT_SCHEDULER_MAIN: Load scheduler "thk1" with entities [EventEntity, EventEntity], work=20*
 15: 0x0AA6 [0x1D] PRINT_EVENT_MESSAGE(message_id=19063*)
    → "Hmm... It looks like you've had an audience with her."
 16: 0x0AA9 [0x23] WAIT_FOR_DIALOG_INTERACTION
 17: 0x0AAA [0x66] LOAD_EXT_SCHEDULER_MAIN: Load scheduler "thk2" with entities [EventEntity, EventEntity], work=20*
 18: 0x0AB9 [0x1D] PRINT_EVENT_MESSAGE(message_id=19064*)
    → "I heard the story of course. Supposedly, the shield can enhance a craftsman's abilities. I don't pretend to fathom how it works though."
 19: 0x0ABC [0x23] WAIT_FOR_DIALOG_INTERACTION
 20: 0x0ABD [0x66] LOAD_EXT_SCHEDULER_MAIN: Load scheduler "tlk0" with entities [EventEntity, EventEntity], work=20*
 21: 0x0ACC [0x1D] PRINT_EVENT_MESSAGE(message_id=19065*)
    → "Although, if the stories are accurate, then I suppose I should probably try to learn more about it."
 22: 0x0ACF [0x23] WAIT_FOR_DIALOG_INTERACTION
 23: 0x0AD0 [0x1D] PRINT_EVENT_MESSAGE(message_id=19066*)
    → "I know as well as anybody how skilled you are. So if she chose you for this task, then I suppose you must have what it takes to make this shield."
 24: 0x0AD3 [0x23] WAIT_FOR_DIALOG_INTERACTION
 25: 0x0AD4 [0x1D] PRINT_EVENT_MESSAGE(message_id=19067*)
    → "So then, shall we get started? First, I'll need to tell you the recipe. This is important, so try not to forget it."
 26: 0x0AD7 [0x23] WAIT_FOR_DIALOG_INTERACTION
 27: 0x0AD8 [0x66] LOAD_EXT_SCHEDULER_MAIN: Load scheduler "tlk1" with entities [EventEntity, EventEntity], work=20*
 28: 0x0AE7 [0x1A] CALL_SUBROUTINE(address=0x1599)
 29: 0x0AEA [0x66] LOAD_EXT_SCHEDULER_MAIN: Load scheduler "tlk0" with entities [EventEntity, EventEntity], work=20*
 30: 0x0AF9 [0x1D] PRINT_EVENT_MESSAGE(message_id=19068*)
    → "So, in order to complete the process, you'll require $1."
 31: 0x0AFC [0x23] WAIT_FOR_DIALOG_INTERACTION
 32: 0x0AFD [0x1D] PRINT_EVENT_MESSAGE(message_id=19069*)
    → "Essentially, this enables you to bring the Craftsmanship of the $0 to its maximum value."
 33: 0x0B00 [0x23] WAIT_FOR_DIALOG_INTERACTION
 34: 0x0B01 [0x1D] PRINT_EVENT_MESSAGE(message_id=19070*)
    → "I received these writings which cover the topic of Craftsmanship in finer detail. If you will allow me to read them to you..."
 35: 0x0B04 [0x23] WAIT_FOR_DIALOG_INTERACTION
 36: 0x0B05 [0x66] LOAD_EXT_SCHEDULER_MAIN: Load scheduler "tlk1" with entities [EventEntity, EventEntity], work=20*
 37: 0x0B14 [0x48] [System] [18958*]:
    → "You can increase Craftsmanship by crafting items that match up with your skill while you have the $0 equipped."
 38: 0x0B17 [0x23] WAIT_FOR_DIALOG_INTERACTION
 39: 0x0B18 [0x48] [System] [18959*]:
    → "Craftsmanship will increase greatly when you fulfill certain conditions, but crafting the same item over and over again will reduce your gains, so try synthesizing something different if you run into trouble."
 40: 0x0B1B [0x23] WAIT_FOR_DIALOG_INTERACTION
 41: 0x0B1C [0x48] [System] [18960*]:
    → "In its default state, the shield has the unfortunate tendency to lower the success rate of your crafting, but as its Craftsmanship rises, it mitigates that effect."
 42: 0x0B1F [0x23] WAIT_FOR_DIALOG_INTERACTION
 43: 0x0B20 [0x48] [System] [18961*]:
    → "You can tell the Craftsmanship rating as well as the crafting success rate by looking at the shield. Good luck to you. Mwahaha..."
 44: 0x0B23 [0x23] WAIT_FOR_DIALOG_INTERACTION
 45: 0x0B24 [0x66] LOAD_EXT_SCHEDULER_MAIN: Load scheduler "tlk0" with entities [EventEntity, EventEntity], work=20*
 46: 0x0B33 [0x1D] PRINT_EVENT_MESSAGE(message_id=19071*)
    → "I hope you were able to comprehend that information to a satisfactory nature."
 47: 0x0B36 [0x23] WAIT_FOR_DIALOG_INTERACTION
 48: 0x0B37 [0x1D] PRINT_EVENT_MESSAGE(message_id=19072*)
    → "Once the Craftsmanship rating is high enough, please come show it to me. I'll create the $1 that you require."
 49: 0x0B3A [0x23] WAIT_FOR_DIALOG_INTERACTION
 50: 0x0B3B [0x1D] PRINT_EVENT_MESSAGE(message_id=19073*)
    → "Next, you'll require $2 and $3. You will find that you can obtain them from Ore Guzzler."
 51: 0x0B3E [0x23] WAIT_FOR_DIALOG_INTERACTION
 52: 0x0B3F [0x1D] PRINT_EVENT_MESSAGE(message_id=19074*)
    → "I believe you have made deliveries for people before, yes? That is essentially what you will need to do here."
 53: 0x0B42 [0x23] WAIT_FOR_DIALOG_INTERACTION
 54: 0x0B43 [0x1D] PRINT_EVENT_MESSAGE(message_id=19075*)
    → "You may speak to Ore Guzzler for more information on the subject."
 55: 0x0B46 [0x23] WAIT_FOR_DIALOG_INTERACTION
 56: 0x0B47 [0x1D] PRINT_EVENT_MESSAGE(message_id=19076*)
    → "Those are the ingredients you will require. I ask that you show me the shield when it is finished. I am interested to see it with my own eyes."
 57: 0x0B4A [0x23] WAIT_FOR_DIALOG_INTERACTION
 58: 0x0B4B [0x66] LOAD_EXT_SCHEDULER_MAIN: Load scheduler "tlk1" with entities [EventEntity, EventEntity], work=20*
 59: 0x0B5A [0x01] GOTO 0x0B5D

SUBROUTINE_0B5D:
 60: 0x0B5D [0x21] END_EVENT
 61: 0x0B5E [0x00] END_REQSTACK()
```

### Event 944

#### Metadata

| Field        | Value     |
|--------------|-----------|
| Entrypoint   | 0x0B5F    |
| Data Size    | 225 bytes |
| Instructions | 49        |

```
      00 01 02 03 04 05 06 07  08 09 0A 0B 0C 0D 0E 0F
      -- -- -- -- -- -- -- --  -- -- -- -- -- -- -- --
0B50:                                               03                 .
0B60: 11 00 02 10 03 13 00 03  10 03 14 00 04 10 03 15  ................
0B70: 00 05 10 03 16 00 06 10  03 12 00 07 10 03 0E 00  ................
0B80: 08 10 03 1A 00 09 10 42  4A F8 FF FF 7F F0 FF FF  .......BJ.......
0B90: 7F 4A F0 FF FF 7F F8 FF  FF 7F 6F 70 66 05 80 F8  .J........opf...
0BA0: FF FF 7F F8 FF FF 7F 74  6C 6B 30 1D 6F 80 23 1D  .......tlk0.o.#.
0BB0: 70 80 23 66 05 80 F8 FF  FF 7F F8 FF FF 7F 74 6C  p.#f..........tl
0BC0: 6B 31 1A E8 15 03 02 10  11 00 03 03 10 13 00 03  k1..............
0BD0: 04 10 14 00 03 05 10 15  00 03 06 10 16 00 1D 71  ...............q
0BE0: 80 23 66 05 80 F8 FF FF  7F F8 FF FF 7F 74 6C 6B  .#f..........tlk
0BF0: 30 1D 72 80 23 1D 73 80  23 1D 74 80 23 66 05 80  0.r.#.s.#.t.#f..
0C00: F8 FF FF 7F F8 FF FF 7F  74 6C 6B 31 1D 75 80 23  ........tlk1.u.#
0C10: 66 05 80 F8 FF FF 7F F8  FF FF 7F 74 6C 6B 30 1D  f..........tlk0.
0C20: 76 80 23 1D 77 80 23 1D  78 80 23 1D 79 80 23 66  v.#.w.#.x.#.y.#f
0C30: 05 80 F8 FF FF 7F F8 FF  FF 7F 74 6C 6B 31 21 00  ..........tlk1!.
```

#### Opcodes

```
  0: 0x0B5F [0x03] ExtData[1]->WorkLocal[17] = Work_Zone[2]
  1: 0x0B64 [0x03] ExtData[1]->WorkLocal[19] = Work_Zone[3]
  2: 0x0B69 [0x03] ExtData[1]->WorkLocal[20] = Work_Zone[4]
  3: 0x0B6E [0x03] ExtData[1]->WorkLocal[21] = Work_Zone[5]
  4: 0x0B73 [0x03] ExtData[1]->WorkLocal[22] = Work_Zone[6]
  5: 0x0B78 [0x03] ExtData[1]->WorkLocal[18] = Work_Zone[7]
  6: 0x0B7D [0x03] ExtData[1]->WorkLocal[14] = Work_Zone[8]
  7: 0x0B82 [0x03] ExtData[1]->WorkLocal[26] = Work_Zone[9]
  8: 0x0B87 [0x42] SET_CLI_EVENT_CANCEL_DATA()
  9: 0x0B88 [0x4A] EventEntity looks at LocalPlayer
 10: 0x0B91 [0x4A] LocalPlayer looks at EventEntity
 11: 0x0B9A [0x6F] WAIT_FRAME_DELAY: Yield until WaitTime reaches zero
 12: 0x0B9B [0x70] WAIT_ENTITY_RENDER_FLAG: Wait while EventEntity->Render.Flags3 bit 2 is set (cancel turn if not)
 13: 0x0B9C [0x66] LOAD_EXT_SCHEDULER_MAIN: Load scheduler "tlk0" with entities [EventEntity, EventEntity], work=20*
 14: 0x0BAB [0x1D] PRINT_EVENT_MESSAGE(message_id=19095*)
    → "I have been waiting for your return. She told me about your task this time."
 15: 0x0BAE [0x23] WAIT_FOR_DIALOG_INTERACTION
 16: 0x0BAF [0x1D] PRINT_EVENT_MESSAGE(message_id=19096*)
    → "First, you will need the recipe. This is important, so I do hope you can remember it."
 17: 0x0BB2 [0x23] WAIT_FOR_DIALOG_INTERACTION
 18: 0x0BB3 [0x66] LOAD_EXT_SCHEDULER_MAIN: Load scheduler "tlk1" with entities [EventEntity, EventEntity], work=20*
 19: 0x0BC2 [0x1A] CALL_SUBROUTINE(address=0x15E8)
 20: 0x0BC5 [0x03] Work_Zone[2] = ExtData[1]->WorkLocal[17]
 21: 0x0BCA [0x03] Work_Zone[3] = ExtData[1]->WorkLocal[19]
 22: 0x0BCF [0x03] Work_Zone[4] = ExtData[1]->WorkLocal[20]
 23: 0x0BD4 [0x03] Work_Zone[5] = ExtData[1]->WorkLocal[21]
 24: 0x0BD9 [0x03] Work_Zone[6] = ExtData[1]->WorkLocal[22]
 25: 0x0BDE [0x1D] PRINT_EVENT_MESSAGE(message_id=19097*)
    → "That's the recipe."
 26: 0x0BE1 [0x23] WAIT_FOR_DIALOG_INTERACTION
 27: 0x0BE2 [0x66] LOAD_EXT_SCHEDULER_MAIN: Load scheduler "tlk0" with entities [EventEntity, EventEntity], work=20*
 28: 0x0BF1 [0x1D] PRINT_EVENT_MESSAGE(message_id=19098*)
    → "The first ingredient you need to obtain is the $1."
 29: 0x0BF4 [0x23] WAIT_FOR_DIALOG_INTERACTION
 30: 0x0BF5 [0x1D] PRINT_EVENT_MESSAGE(message_id=19099*)
    → "Does that name sound familiar? It should, you have used it before. This time, you'll need to craft while equipping the $0."
 31: 0x0BF8 [0x23] WAIT_FOR_DIALOG_INTERACTION
 32: 0x0BF9 [0x1D] PRINT_EVENT_MESSAGE(message_id=19100*)
    → "By doing so, the shield's Craftsmanship will gradually increase, just like last time."
 33: 0x0BFC [0x23] WAIT_FOR_DIALOG_INTERACTION
 34: 0x0BFD [0x66] LOAD_EXT_SCHEDULER_MAIN: Load scheduler "tlk1" with entities [EventEntity, EventEntity], work=20*
 35: 0x0C0C [0x1D] PRINT_EVENT_MESSAGE(message_id=19101*)
    → "Once it reaches 100%, come bring it to me. We will be able to use the shield to obtain the $1."
 36: 0x0C0F [0x23] WAIT_FOR_DIALOG_INTERACTION
 37: 0x0C10 [0x66] LOAD_EXT_SCHEDULER_MAIN: Load scheduler "tlk0" with entities [EventEntity, EventEntity], work=20*
 38: 0x0C1F [0x1D] PRINT_EVENT_MESSAGE(message_id=19102*)
    → "The next ingredient on the list is the $3. I hope you haven't forgotten this one either. I have given it along with the $2 to Ore Guzzler."
 39: 0x0C22 [0x23] WAIT_FOR_DIALOG_INTERACTION
 40: 0x0C23 [0x1D] PRINT_EVENT_MESSAGE(message_id=19103*)
    → "The final ingredient you'll need is the $4, but for it, I needed to enlist the help of the A.M.A.N. They've prepared some Records of Eminence objectives for you to complete."
 41: 0x0C26 [0x23] WAIT_FOR_DIALOG_INTERACTION
 42: 0x0C27 [0x1D] PRINT_EVENT_MESSAGE(message_id=19104*)
    → "You may refer to the Records of Eminence menu for more details. Once you have completed all of the objectives, you can get the $4."
 43: 0x0C2A [0x23] WAIT_FOR_DIALOG_INTERACTION
 44: 0x0C2B [0x1D] PRINT_EVENT_MESSAGE(message_id=19105*)
    → "That completes my explanation. Your technique is nearly equal to that of my own. As long as you are not overly confident, I have faith that you can complete this task."
 45: 0x0C2E [0x23] WAIT_FOR_DIALOG_INTERACTION
 46: 0x0C2F [0x66] LOAD_EXT_SCHEDULER_MAIN: Load scheduler "tlk1" with entities [EventEntity, EventEntity], work=20*
 47: 0x0C3E [0x21] END_EVENT
 48: 0x0C3F [0x00] END_REQSTACK()
```

### Event 959

#### Metadata

| Field        | Value     |
|--------------|-----------|
| Entrypoint   | 0x0C40    |
| Data Size    | 267 bytes |
| Instructions | 60        |

```
      00 01 02 03 04 05 06 07  08 09 0A 0B 0C 0D 0E 0F
      -- -- -- -- -- -- -- --  -- -- -- -- -- -- -- --
0C40: 03 11 00 02 10 03 13 00  06 10 03 14 00 07 10 03  ................
0C50: 0E 00 08 10 03 1A 00 09  10 42 4A F8 FF FF 7F F0  .........BJ.....
0C60: FF FF 7F 4A F0 FF FF 7F  F8 FF FF 7F 6F 70 6E F8  ...J........opn.
0C70: FF FF 7F 19 80 99 F8 FF  FF 7F 1D 7A 80 23 1D 7B  ...........z.#.{
0C80: 80 23 03 06 10 13 00 03  07 10 14 00 66 05 80 F8  .#..........f...
0C90: FF FF 7F F8 FF FF 7F 74  68 6B 31 1D 7C 80 23 66  .......thk1.|.#f
0CA0: 05 80 F8 FF FF 7F F8 FF  FF 7F 74 68 6B 32 53 F8  ..........thk2S.
0CB0: FF FF 7F F8 FF FF 7F 74  68 6B 32 66 05 80 F8 FF  .......thk2f....
0CC0: FF 7F F8 FF FF 7F 74 6C  6B 30 1D 7D 80 23 1D 7E  ......tlk0.}.#.~
