# 17723526 - Vamorcote

## Common Data

| Field            | Value                         |
|------------------|-------------------------------|
| Zone             | Northern San d'Oria (ID: 231) |
| Block Size       | 1024 bytes                    |
| Total Events     | 35                            |
| References Count | 32                            |

## List of Events

| Event ID                   | Entrypoint   |   Size |   Instructions |
|----------------------------|--------------|--------|----------------|
| [65535](#event-65535)      | 0x0000       |      1 |              1 |
| [65535.1](#event-655351)   | 0x0001       |     16 |              2 |
| [65535.2](#event-655352)   | 0x0011       |     22 |              4 |
| [65535.3](#event-655353)   | 0x0027       |     16 |              2 |
| [65535.4](#event-655354)   | 0x0037       |     14 |              2 |
| [65535.5](#event-655355)   | 0x0045       |     16 |              2 |
| [65535.6](#event-655356)   | 0x0055       |     14 |              2 |
| [65535.7](#event-655357)   | 0x0063       |     16 |              2 |
| [65535.8](#event-655358)   | 0x0073       |     14 |              2 |
| [65535.9](#event-655359)   | 0x0081       |     16 |              2 |
| [65535.10](#event-6553510) | 0x0091       |     14 |              2 |
| [65535.11](#event-6553511) | 0x009F       |     16 |              2 |
| [65535.12](#event-6553512) | 0x00AF       |     14 |              2 |
| [65535.13](#event-6553513) | 0x00BD       |     16 |              2 |
| [65535.14](#event-6553514) | 0x00CD       |     14 |              2 |
| [65535.15](#event-6553515) | 0x00DB       |     16 |              2 |
| [65535.16](#event-6553516) | 0x00EB       |     14 |              2 |
| [65535.17](#event-6553517) | 0x00F9       |     16 |              2 |
| [65535.18](#event-6553518) | 0x0109       |     14 |              2 |
| [65535.19](#event-6553519) | 0x0117       |      9 |              3 |
| [651](#event-651)          | 0x0120       |     33 |             12 |
| [65535.20](#event-6553520) | 0x0141       |     14 |              4 |
| [654](#event-654)          | 0x014F       |     93 |             20 |
| [65535.21](#event-6553521) | 0x01AC       |     23 |              7 |
| [65535.22](#event-6553522) | 0x01C3       |     19 |              5 |
| [65535.23](#event-6553523) | 0x01D6       |     19 |              5 |
| [65535.24](#event-6553524) | 0x01E9       |      9 |              5 |
| [65535.25](#event-6553525) | 0x01F2       |      5 |              3 |
| [65535.26](#event-6553526) | 0x01F7       |     19 |              5 |
| [655](#event-655)          | 0x020A       |     19 |             10 |
| [658](#event-658)          | 0x021D       |     92 |             16 |
| [65535.27](#event-6553527) | 0x0279       |     19 |              5 |
| [65535.28](#event-6553528) | 0x028C       |      5 |              3 |
| [65535.29](#event-6553529) | 0x0291       |     37 |              9 |
| [659](#event-659)          | 0x02B6       |     43 |             12 |

## DAT References (imed_data)

|   Index | Hex Value   |   Dec Value |
|---------|-------------|-------------|
|       0 | 0x0014      |          20 |
|       1 | 0x001E      |          30 |
|       2 | 0x0015      |          21 |
|       3 | 0x1C4B      |        7243 |
|       4 | 0x1C4C      |        7244 |
|       5 | 0x000D      |          13 |
|       6 | 0xFFFDE86B  |  4294830187 |
|       7 | 0x26E20     |      159264 |
|       8 | 0x2EDF      |       11999 |
|       9 | 0x1C55      |        7253 |
|      10 | 0x0000      |           0 |
|      11 | 0x0001      |           1 |
|      12 | 0x0002      |           2 |
|      13 | 0x1C4F      |        7247 |
|      14 | 0x1C50      |        7248 |
|      15 | 0x1C51      |        7249 |
|      16 | 0x1C52      |        7250 |
|      17 | 0x1C53      |        7251 |
|      18 | 0x1C54      |        7252 |
|      19 | 0x1C56      |        7254 |
|      20 | 0x1C57      |        7255 |
|      21 | 0x1C58      |        7256 |
|      22 | 0x1C59      |        7257 |
|      23 | 0x00C8      |         200 |
|      24 | 0x0064      |         100 |
|      25 | 0x003C      |          60 |
|      26 | 0x00C9      |         201 |
|      27 | 0x1C5C      |        7260 |
|      28 | 0x1C5D      |        7261 |
|      29 | 0x1C5E      |        7262 |
|      30 | 0x1C5F      |        7263 |
|      31 | 0x1C60      |        7264 |

## String References

- **7243**: We have a Blacksmiths' Guild and a Carpenters' Guild here in Northern San d'Oria.
- **7244**: Their halls are open to the public, but do not interfere with their work.
- **7247**: Hrmm... Have you heard about $1?
- **7248**: Seems the royal family and the church all think I gave up my copy of the floor plans. But I've kept mine safe, I swear it!
- **7249**: Still, these rumors do have me worried. The guild elders have always kept the plans locked away. But we do not possess the key!
- **7250**: Hrrm... You seem a trustworthy adventurer. Might I ask you a favor?
- **7251**: There is a small island to the south of Batallia Downs, surrounded by steep cliffs. I've heard that $2 is buried there.
- **7252**: I would be most grateful if you could bring me that key.
- **7253**: Accept his request? [Of course./Not now.]
- **7254**: It's on the island south of Batallia Downs. Don't ask me how to get there, for I do not know.
- **7255**: What a world! I had little faith in our youth before, but now...
- **7256**: The floor plans should be here, locked inside. We need that $2 to open it and ensure the plans are safe!
- **7257**: Search for the key on the island south of Batallia Downs. I've no idea how to get there, so ask me not!
- **7260**: I wonder if this really is the key to that old box, eh?
- **7261**: Ah! It opened! And inside...?
- **7262**: There it is! Our section of the plans, safe and sound. I smell a rat in the clergy...or perhaps the royal household?
- **7263**: No, forget what I just said. Here is your reward; may it serve you well in your adventures.
- **7264**: Our piece of the plans was safe. I smell a rat in the clergy...or perhaps the royal household?

## Events

### Event 65535

#### Metadata

| Field        | Value   |
|--------------|---------|
| Entrypoint   | 0x0000  |
| Data Size    | 1 bytes |
| Instructions | 1       |

```
      00 01 02 03 04 05 06 07  08 09 0A 0B 0C 0D 0E 0F
      -- -- -- -- -- -- -- --  -- -- -- -- -- -- -- --
0000: 00                                                .               
```

#### Opcodes

```
  0: 0x0000 [0x00] END_REQSTACK()
```

### Event 65535.1

#### Metadata

| Field        | Value    |
|--------------|----------|
| Entrypoint   | 0x0001   |
| Data Size    | 16 bytes |
| Instructions | 2        |

```
      00 01 02 03 04 05 06 07  08 09 0A 0B 0C 0D 0E 0F
      -- -- -- -- -- -- -- --  -- -- -- -- -- -- -- --
0000:    66 00 80 F8 FF FF 7F  F8 FF FF 7F 74 6C 6B 30   f..........tlk0
0010: 00                                                .               
```

#### Opcodes

```
  0: 0x0001 [0x66] LOAD_EXT_SCHEDULER_MAIN: Load scheduler "tlk0" with entities [EventEntity, EventEntity], work=20*
  1: 0x0010 [0x00] END_REQSTACK()
```

### Event 65535.2

#### Metadata

| Field        | Value    |
|--------------|----------|
| Entrypoint   | 0x0011   |
| Data Size    | 22 bytes |
| Instructions | 4        |

```
      00 01 02 03 04 05 06 07  08 09 0A 0B 0C 0D 0E 0F
      -- -- -- -- -- -- -- --  -- -- -- -- -- -- -- --
0010:    53 F8 FF FF 7F F8 FF  FF 7F 74 6C 6B 30 5E 69   S........tlk0^i
0020: 64 6C 30 1C 01 80 00                              dl0....         
```

#### Opcodes

```
  0: 0x0011 [0x53] WAIT_SCHEDULER_TASK: Wait for scheduler "tlk0" with entities [EventEntity, EventEntity]
  1: 0x001E [0x5E] EventEntity goes idle (kills current action) (animation: "idl0")
  2: 0x0023 [0x1C] WAIT(30* ticks)
  3: 0x0026 [0x00] END_REQSTACK()
```

### Event 65535.3

#### Metadata

| Field        | Value    |
|--------------|----------|
| Entrypoint   | 0x0027   |
| Data Size    | 16 bytes |
| Instructions | 2        |

```
      00 01 02 03 04 05 06 07  08 09 0A 0B 0C 0D 0E 0F
      -- -- -- -- -- -- -- --  -- -- -- -- -- -- -- --
0020:                      66  00 80 F8 FF FF 7F F8 FF         f........
0030: FF 7F 74 68 6B 31 00                              ..thk1.         
```

#### Opcodes

```
  0: 0x0027 [0x66] LOAD_EXT_SCHEDULER_MAIN: Load scheduler "thk1" with entities [EventEntity, EventEntity], work=20*
  1: 0x0036 [0x00] END_REQSTACK()
```

### Event 65535.4

#### Metadata

| Field        | Value    |
|--------------|----------|
| Entrypoint   | 0x0037   |
| Data Size    | 14 bytes |
| Instructions | 2        |

```
      00 01 02 03 04 05 06 07  08 09 0A 0B 0C 0D 0E 0F
      -- -- -- -- -- -- -- --  -- -- -- -- -- -- -- --
0030:                      53  F8 FF FF 7F F8 FF FF 7F         S........
0040: 74 68 6B 31 00                                    thk1.           
```

#### Opcodes

```
  0: 0x0037 [0x53] WAIT_SCHEDULER_TASK: Wait for scheduler "thk1" with entities [EventEntity, EventEntity]
  1: 0x0044 [0x00] END_REQSTACK()
```

### Event 65535.5

#### Metadata

| Field        | Value    |
|--------------|----------|
| Entrypoint   | 0x0045   |
| Data Size    | 16 bytes |
| Instructions | 2        |

```
      00 01 02 03 04 05 06 07  08 09 0A 0B 0C 0D 0E 0F
      -- -- -- -- -- -- -- --  -- -- -- -- -- -- -- --
0040:                66 00 80  F8 FF FF 7F F8 FF FF 7F       f..........
0050: 74 68 6B 32 00                                    thk2.           
```

#### Opcodes

```
  0: 0x0045 [0x66] LOAD_EXT_SCHEDULER_MAIN: Load scheduler "thk2" with entities [EventEntity, EventEntity], work=20*
  1: 0x0054 [0x00] END_REQSTACK()
```

### Event 65535.6

#### Metadata

| Field        | Value    |
|--------------|----------|
| Entrypoint   | 0x0055   |
| Data Size    | 14 bytes |
| Instructions | 2        |

```
      00 01 02 03 04 05 06 07  08 09 0A 0B 0C 0D 0E 0F
      -- -- -- -- -- -- -- --  -- -- -- -- -- -- -- --
0050:                53 F8 FF  FF 7F F8 FF FF 7F 74 68       S........th
0060: 6B 32 00                                          k2.             
```

#### Opcodes

```
  0: 0x0055 [0x53] WAIT_SCHEDULER_TASK: Wait for scheduler "thk2" with entities [EventEntity, EventEntity]
  1: 0x0062 [0x00] END_REQSTACK()
```

### Event 65535.7

#### Metadata

| Field        | Value    |
|--------------|----------|
| Entrypoint   | 0x0063   |
| Data Size    | 16 bytes |
| Instructions | 2        |

```
      00 01 02 03 04 05 06 07  08 09 0A 0B 0C 0D 0E 0F
      -- -- -- -- -- -- -- --  -- -- -- -- -- -- -- --
0060:          66 00 80 F8 FF  FF 7F F8 FF FF 7F 70 61     f..........pa
0070: 73 30 00                                          s0.             
```

#### Opcodes

```
  0: 0x0063 [0x66] LOAD_EXT_SCHEDULER_MAIN: Load scheduler "pas0" with entities [EventEntity, EventEntity], work=20*
  1: 0x0072 [0x00] END_REQSTACK()
```

### Event 65535.8

#### Metadata

| Field        | Value    |
|--------------|----------|
| Entrypoint   | 0x0073   |
| Data Size    | 14 bytes |
| Instructions | 2        |

```
      00 01 02 03 04 05 06 07  08 09 0A 0B 0C 0D 0E 0F
      -- -- -- -- -- -- -- --  -- -- -- -- -- -- -- --
0070:          53 F8 FF FF 7F  F8 FF FF 7F 70 61 73 30     S........pas0
0080: 00                                                .               
```

#### Opcodes

```
  0: 0x0073 [0x53] WAIT_SCHEDULER_TASK: Wait for scheduler "pas0" with entities [EventEntity, EventEntity]
  1: 0x0080 [0x00] END_REQSTACK()
```

### Event 65535.9

#### Metadata

| Field        | Value    |
|--------------|----------|
| Entrypoint   | 0x0081   |
| Data Size    | 16 bytes |
| Instructions | 2        |

```
      00 01 02 03 04 05 06 07  08 09 0A 0B 0C 0D 0E 0F
      -- -- -- -- -- -- -- --  -- -- -- -- -- -- -- --
0080:    66 00 80 F8 FF FF 7F  F8 FF FF 7F 70 6F 69 31   f..........poi1
0090: 00                                                .               
```

#### Opcodes

```
  0: 0x0081 [0x66] LOAD_EXT_SCHEDULER_MAIN: Load scheduler "poi1" with entities [EventEntity, EventEntity], work=20*
  1: 0x0090 [0x00] END_REQSTACK()
```

### Event 65535.10

#### Metadata

| Field        | Value    |
|--------------|----------|
| Entrypoint   | 0x0091   |
| Data Size    | 14 bytes |
| Instructions | 2        |

```
      00 01 02 03 04 05 06 07  08 09 0A 0B 0C 0D 0E 0F
      -- -- -- -- -- -- -- --  -- -- -- -- -- -- -- --
0090:    53 F8 FF FF 7F F8 FF  FF 7F 70 6F 69 31 00      S........poi1. 
```

#### Opcodes

```
  0: 0x0091 [0x53] WAIT_SCHEDULER_TASK: Wait for scheduler "poi1" with entities [EventEntity, EventEntity]
  1: 0x009E [0x00] END_REQSTACK()
```

### Event 65535.11

#### Metadata

| Field        | Value    |
|--------------|----------|
| Entrypoint   | 0x009F   |
| Data Size    | 16 bytes |
| Instructions | 2        |

```
      00 01 02 03 04 05 06 07  08 09 0A 0B 0C 0D 0E 0F
      -- -- -- -- -- -- -- --  -- -- -- -- -- -- -- --
0090:                                               66                 f
00A0: 00 80 F8 FF FF 7F F8 FF  FF 7F 70 6F 69 32 00     ..........poi2. 
```

#### Opcodes

```
  0: 0x009F [0x66] LOAD_EXT_SCHEDULER_MAIN: Load scheduler "poi2" with entities [EventEntity, EventEntity], work=20*
  1: 0x00AE [0x00] END_REQSTACK()
```

### Event 65535.12

#### Metadata

| Field        | Value    |
|--------------|----------|
| Entrypoint   | 0x00AF   |
| Data Size    | 14 bytes |
| Instructions | 2        |

```
      00 01 02 03 04 05 06 07  08 09 0A 0B 0C 0D 0E 0F
      -- -- -- -- -- -- -- --  -- -- -- -- -- -- -- --
00A0:                                               53                 S
00B0: F8 FF FF 7F F8 FF FF 7F  70 6F 69 32 00           ........poi2.   
```

#### Opcodes

```
  0: 0x00AF [0x53] WAIT_SCHEDULER_TASK: Wait for scheduler "poi2" with entities [EventEntity, EventEntity]
  1: 0x00BC [0x00] END_REQSTACK()
```

### Event 65535.13

#### Metadata

| Field        | Value    |
|--------------|----------|
| Entrypoint   | 0x00BD   |
| Data Size    | 16 bytes |
| Instructions | 2        |

```
      00 01 02 03 04 05 06 07  08 09 0A 0B 0C 0D 0E 0F
      -- -- -- -- -- -- -- --  -- -- -- -- -- -- -- --
00B0:                                         66 02 80               f..
00C0: F8 FF FF 7F F8 FF FF 7F  70 6F 69 30 00           ........poi0.   
```

#### Opcodes

```
  0: 0x00BD [0x66] LOAD_EXT_SCHEDULER_MAIN: Load scheduler "poi0" with entities [EventEntity, EventEntity], work=21*
  1: 0x00CC [0x00] END_REQSTACK()
```

### Event 65535.14

#### Metadata

| Field        | Value    |
|--------------|----------|
| Entrypoint   | 0x00CD   |
| Data Size    | 14 bytes |
| Instructions | 2        |

```
      00 01 02 03 04 05 06 07  08 09 0A 0B 0C 0D 0E 0F
      -- -- -- -- -- -- -- --  -- -- -- -- -- -- -- --
00C0:                                         53 F8 FF               S..
00D0: FF 7F F8 FF FF 7F 70 6F  69 30 00                 ......poi0.     
```

#### Opcodes

```
  0: 0x00CD [0x53] WAIT_SCHEDULER_TASK: Wait for scheduler "poi0" with entities [EventEntity, EventEntity]
  1: 0x00DA [0x00] END_REQSTACK()
```

### Event 65535.15

#### Metadata

| Field        | Value    |
|--------------|----------|
| Entrypoint   | 0x00DB   |
| Data Size    | 16 bytes |
| Instructions | 2        |

```
      00 01 02 03 04 05 06 07  08 09 0A 0B 0C 0D 0E 0F
      -- -- -- -- -- -- -- --  -- -- -- -- -- -- -- --
00D0:                                   66 02 80 F8 FF             f....
00E0: FF 7F F8 FF FF 7F 70 6F  69 31 00                 ......poi1.     
```

#### Opcodes

```
  0: 0x00DB [0x66] LOAD_EXT_SCHEDULER_MAIN: Load scheduler "poi1" with entities [EventEntity, EventEntity], work=21*
  1: 0x00EA [0x00] END_REQSTACK()
```

### Event 65535.16

#### Metadata

| Field        | Value    |
|--------------|----------|
| Entrypoint   | 0x00EB   |
| Data Size    | 14 bytes |
| Instructions | 2        |

```
      00 01 02 03 04 05 06 07  08 09 0A 0B 0C 0D 0E 0F
      -- -- -- -- -- -- -- --  -- -- -- -- -- -- -- --
00E0:                                   53 F8 FF FF 7F             S....
00F0: F8 FF FF 7F 70 6F 69 31  00                       ....poi1.       
```

#### Opcodes

```
  0: 0x00EB [0x53] WAIT_SCHEDULER_TASK: Wait for scheduler "poi1" with entities [EventEntity, EventEntity]
  1: 0x00F8 [0x00] END_REQSTACK()
```

### Event 65535.17

#### Metadata

| Field        | Value    |
|--------------|----------|
| Entrypoint   | 0x00F9   |
| Data Size    | 16 bytes |
| Instructions | 2        |

```
      00 01 02 03 04 05 06 07  08 09 0A 0B 0C 0D 0E 0F
      -- -- -- -- -- -- -- --  -- -- -- -- -- -- -- --
00F0:                             66 02 80 F8 FF FF 7F           f......
0100: F8 FF FF 7F 64 69 73 30  00                       ....dis0.       
```

#### Opcodes

```
  0: 0x00F9 [0x66] LOAD_EXT_SCHEDULER_MAIN: Load scheduler "dis0" with entities [EventEntity, EventEntity], work=21*
  1: 0x0108 [0x00] END_REQSTACK()
```

### Event 65535.18

#### Metadata

| Field        | Value    |
|--------------|----------|
| Entrypoint   | 0x0109   |
| Data Size    | 14 bytes |
| Instructions | 2        |

```
      00 01 02 03 04 05 06 07  08 09 0A 0B 0C 0D 0E 0F
      -- -- -- -- -- -- -- --  -- -- -- -- -- -- -- --
0100:                             53 F8 FF FF 7F F8 FF           S......
0110: FF 7F 64 69 73 30 00                              ..dis0.         
```

#### Opcodes

```
  0: 0x0109 [0x53] WAIT_SCHEDULER_TASK: Wait for scheduler "dis0" with entities [EventEntity, EventEntity]
  1: 0x0116 [0x00] END_REQSTACK()
```

### Event 65535.19

#### Metadata

| Field        | Value   |
|--------------|---------|
| Entrypoint   | 0x0117  |
| Data Size    | 9 bytes |
| Instructions | 3       |

```
      00 01 02 03 04 05 06 07  08 09 0A 0B 0C 0D 0E 0F
      -- -- -- -- -- -- -- --  -- -- -- -- -- -- -- --
0110:                      5E  69 64 6C 30 1C 01 80 00         ^idl0....
```

#### Opcodes

```
  0: 0x0117 [0x5E] EventEntity goes idle (kills current action) (animation: "idl0")
  1: 0x011C [0x1C] WAIT(30* ticks)
  2: 0x011F [0x00] END_REQSTACK()
```

### Event 651

#### Metadata

| Field        | Value    |
|--------------|----------|
| Entrypoint   | 0x0120   |
| Data Size    | 33 bytes |
| Instructions | 12       |

```
      00 01 02 03 04 05 06 07  08 09 0A 0B 0C 0D 0E 0F
      -- -- -- -- -- -- -- --  -- -- -- -- -- -- -- --
0120: 1E F0 FF FF 7F 6F 70 29  08 86 70 0E 01 01 1D 03  .....op)..p.....
0130: 80 23 1D 04 80 23 29 08  86 70 0E 01 02 20 00 21  .#...#)..p... .!
0140: 00                                                .               
```

#### Opcodes

```
  0: 0x0120 [0x1E] EventEntity looks at LocalPlayer and starts talking
  1: 0x0125 [0x6F] WAIT_FRAME_DELAY: Yield until WaitTime reaches zero
  2: 0x0126 [0x70] WAIT_ENTITY_RENDER_FLAG: Wait while EventEntity->Render.Flags3 bit 2 is set (cancel turn if not)
  3: 0x0127 [0x29] REQ_SET_WAIT(priority=0x08, entity_id=Vamorcote (ID: 17723526/0x010E7086), tag_num=0x01)
  4: 0x012E [0x1D] PRINT_EVENT_MESSAGE(message_id=7243*)
    → "We have a Blacksmiths' Guild and a Carpenters' Guild here in Northern San d'Oria."
  5: 0x0131 [0x23] WAIT_FOR_DIALOG_INTERACTION
  6: 0x0132 [0x1D] PRINT_EVENT_MESSAGE(message_id=7244*)
    → "Their halls are open to the public, but do not interfere with their work."
  7: 0x0135 [0x23] WAIT_FOR_DIALOG_INTERACTION
  8: 0x0136 [0x29] REQ_SET_WAIT(priority=0x08, entity_id=Vamorcote (ID: 17723526/0x010E7086), tag_num=0x02)
  9: 0x013D [0x20] SET_CLI_EVENT_UC_FLAG: Unlock player control
 10: 0x013F [0x21] END_EVENT
 11: 0x0140 [0x00] END_REQSTACK()
```

### Event 65535.20

#### Metadata

| Field        | Value    |
|--------------|----------|
| Entrypoint   | 0x0141   |
| Data Size    | 14 bytes |
| Instructions | 4        |

```
      00 01 02 03 04 05 06 07  08 09 0A 0B 0C 0D 0E 0F
      -- -- -- -- -- -- -- --  -- -- -- -- -- -- -- --
0140:    32 05 80 1F 00 06 80  07 80 08 80 1F 01 00      2............. 
```

#### Opcodes

```
  0: 0x0141 [0x32] ExtData[1]->MainSpeed = 13* * 0.1
  1: 0x0144 [0x1F] MOVE_ENTITY: EventEntity moves to X=-137.109*, Z=159.264*, Y=11.999*
  2: 0x014C [0x1F] MOVE_ENTITY: Update entity position (mode=1)
  3: 0x014E [0x00] END_REQSTACK()
```

### Event 654

#### Metadata

| Field        | Value    |
|--------------|----------|
| Entrypoint   | 0x014F   |
| Data Size    | 93 bytes |
| Instructions | 20       |

```
      00 01 02 03 04 05 06 07  08 09 0A 0B 0C 0D 0E 0F
      -- -- -- -- -- -- -- --  -- -- -- -- -- -- -- --
0140:                                               1E                 .
0150: F0 FF FF 7F 6F 70 29 0B  86 70 0E 01 17 29 0B 86  ....op)..p...)..
0160: 70 0E 01 18 29 0B 86 70  0E 01 19 29 0B 86 70 0E  p...)..p...)..p.
0170: 01 1A 24 09 80 0A 80 0A  80 25 02 00 10 0A 80 00  ..$......%......
0180: 91 01 03 01 10 0B 80 29  0B 86 70 0E 01 1B 01 A8  .......)..p.....
0190: 01 02 00 10 0B 80 00 A8  01 03 01 10 0C 80 29 0B  ..............).
01A0: 86 70 0E 01 1C 01 A8 01  20 00 21 00              .p...... .!.    
```

#### Opcodes

```
  0: 0x014F [0x1E] EventEntity looks at LocalPlayer and starts talking
  1: 0x0154 [0x6F] WAIT_FRAME_DELAY: Yield until WaitTime reaches zero
  2: 0x0155 [0x70] WAIT_ENTITY_RENDER_FLAG: Wait while EventEntity->Render.Flags3 bit 2 is set (cancel turn if not)
  3: 0x0156 [0x29] REQ_SET_WAIT(priority=0x0B, entity_id=Vamorcote (ID: 17723526/0x010E7086), tag_num=0x17)
  4: 0x015D [0x29] REQ_SET_WAIT(priority=0x0B, entity_id=Vamorcote (ID: 17723526/0x010E7086), tag_num=0x18)
  5: 0x0164 [0x29] REQ_SET_WAIT(priority=0x0B, entity_id=Vamorcote (ID: 17723526/0x010E7086), tag_num=0x19)
  6: 0x016B [0x29] REQ_SET_WAIT(priority=0x0B, entity_id=Vamorcote (ID: 17723526/0x010E7086), tag_num=0x1A)
  7: 0x0172 [0x24] CREATE_DIALOG(message_id=7253*, default_option=0*, option_flags=0*)
    → "Accept his request? [Of course./Not now.]"
  8: 0x0179 [0x25] WAIT_DIALOG_SELECT()
  9: 0x017A [0x02] IF !(Work_Zone[0] == 0*) GOTO 0x0191
 10: 0x0182 [0x03] Work_Zone[1] = 1*
 11: 0x0187 [0x29] REQ_SET_WAIT(priority=0x0B, entity_id=Vamorcote (ID: 17723526/0x010E7086), tag_num=0x1B)
 12: 0x018E [0x01] GOTO 0x01A8
 13: 0x0191 [0x02] IF !(Work_Zone[0] == 1*) GOTO 0x01A8
 14: 0x0199 [0x03] Work_Zone[1] = 2*
 15: 0x019E [0x29] REQ_SET_WAIT(priority=0x0B, entity_id=Vamorcote (ID: 17723526/0x010E7086), tag_num=0x1C)
 16: 0x01A5 [0x01] GOTO 0x01A8

SUBROUTINE_01A8:
 17: 0x01A8 [0x20] SET_CLI_EVENT_UC_FLAG: Unlock player control
 18: 0x01AA [0x21] END_EVENT
 19: 0x01AB [0x00] END_REQSTACK()
```

### Event 65535.21

#### Metadata

| Field        | Value    |
|--------------|----------|
| Entrypoint   | 0x01AC   |
| Data Size    | 23 bytes |
| Instructions | 7        |

```
      00 01 02 03 04 05 06 07  08 09 0A 0B 0C 0D 0E 0F
      -- -- -- -- -- -- -- --  -- -- -- -- -- -- -- --
01A0:                                      29 08 86 70              )..p
01B0: 0E 01 03 1D 0D 80 23 1D  0E 80 23 29 08 86 70 0E  ......#...#)..p.
01C0: 01 04 00                                          ...             
```

#### Opcodes

```
  0: 0x01AC [0x29] REQ_SET_WAIT(priority=0x08, entity_id=Vamorcote (ID: 17723526/0x010E7086), tag_num=0x03)
  1: 0x01B3 [0x1D] PRINT_EVENT_MESSAGE(message_id=7247*)
    → "Hrmm... Have you heard about $1?"
  2: 0x01B6 [0x23] WAIT_FOR_DIALOG_INTERACTION
  3: 0x01B7 [0x1D] PRINT_EVENT_MESSAGE(message_id=7248*)
    → "Seems the royal family and the church all think I gave up my copy of the floor plans. But I've kept mine safe, I swear it!"
  4: 0x01BA [0x23] WAIT_FOR_DIALOG_INTERACTION
  5: 0x01BB [0x29] REQ_SET_WAIT(priority=0x08, entity_id=Vamorcote (ID: 17723526/0x010E7086), tag_num=0x04)
  6: 0x01C2 [0x00] END_REQSTACK()
```

### Event 65535.22

#### Metadata

| Field        | Value    |
|--------------|----------|
| Entrypoint   | 0x01C3   |
| Data Size    | 19 bytes |
| Instructions | 5        |

```
      00 01 02 03 04 05 06 07  08 09 0A 0B 0C 0D 0E 0F
      -- -- -- -- -- -- -- --  -- -- -- -- -- -- -- --
01C0:          29 08 86 70 0E  01 05 1D 0F 80 23 29 08     )..p......#).
01D0: 86 70 0E 01 06 00                                 .p....          
```

#### Opcodes

```
  0: 0x01C3 [0x29] REQ_SET_WAIT(priority=0x08, entity_id=Vamorcote (ID: 17723526/0x010E7086), tag_num=0x05)
  1: 0x01CA [0x1D] PRINT_EVENT_MESSAGE(message_id=7249*)
    → "Still, these rumors do have me worried. The guild elders have always kept the plans locked away. But we do not possess the key!"
  2: 0x01CD [0x23] WAIT_FOR_DIALOG_INTERACTION
  3: 0x01CE [0x29] REQ_SET_WAIT(priority=0x08, entity_id=Vamorcote (ID: 17723526/0x010E7086), tag_num=0x06)
  4: 0x01D5 [0x00] END_REQSTACK()
```

### Event 65535.23

#### Metadata

| Field        | Value    |
|--------------|----------|
| Entrypoint   | 0x01D6   |
| Data Size    | 19 bytes |
| Instructions | 5        |

```
      00 01 02 03 04 05 06 07  08 09 0A 0B 0C 0D 0E 0F
      -- -- -- -- -- -- -- --  -- -- -- -- -- -- -- --
01D0:                   29 08  86 70 0E 01 01 1D 10 80        )..p......
01E0: 23 29 08 86 70 0E 01 02  00                       #)..p....       
```

#### Opcodes

```
  0: 0x01D6 [0x29] REQ_SET_WAIT(priority=0x08, entity_id=Vamorcote (ID: 17723526/0x010E7086), tag_num=0x01)
  1: 0x01DD [0x1D] PRINT_EVENT_MESSAGE(message_id=7250*)
    → "Hrrm... You seem a trustworthy adventurer. Might I ask you a favor?"
  2: 0x01E0 [0x23] WAIT_FOR_DIALOG_INTERACTION
  3: 0x01E1 [0x29] REQ_SET_WAIT(priority=0x08, entity_id=Vamorcote (ID: 17723526/0x010E7086), tag_num=0x02)
  4: 0x01E8 [0x00] END_REQSTACK()
```

### Event 65535.24

#### Metadata

| Field        | Value   |
|--------------|---------|
| Entrypoint   | 0x01E9  |
| Data Size    | 9 bytes |
| Instructions | 5       |

```
      00 01 02 03 04 05 06 07  08 09 0A 0B 0C 0D 0E 0F
      -- -- -- -- -- -- -- --  -- -- -- -- -- -- -- --
01E0:                             1D 11 80 23 1D 12 80           ...#...
01F0: 23 00                                             #.              
```

#### Opcodes

```
  0: 0x01E9 [0x1D] PRINT_EVENT_MESSAGE(message_id=7251*)
    → "There is a small island to the south of Batallia Downs, surrounded by steep cliffs. I've heard that $2 is buried there."
  1: 0x01EC [0x23] WAIT_FOR_DIALOG_INTERACTION
  2: 0x01ED [0x1D] PRINT_EVENT_MESSAGE(message_id=7252*)
    → "I would be most grateful if you could bring me that key."
  3: 0x01F0 [0x23] WAIT_FOR_DIALOG_INTERACTION
  4: 0x01F1 [0x00] END_REQSTACK()
```

### Event 65535.25

#### Metadata

| Field        | Value   |
|--------------|---------|
| Entrypoint   | 0x01F2  |
| Data Size    | 5 bytes |
| Instructions | 3       |

```
      00 01 02 03 04 05 06 07  08 09 0A 0B 0C 0D 0E 0F
      -- -- -- -- -- -- -- --  -- -- -- -- -- -- -- --
01F0:       1D 13 80 23 00                                ...#.         
```

#### Opcodes

```
  0: 0x01F2 [0x1D] PRINT_EVENT_MESSAGE(message_id=7254*)
    → "It's on the island south of Batallia Downs. Don't ask me how to get there, for I do not know."
  1: 0x01F5 [0x23] WAIT_FOR_DIALOG_INTERACTION
  2: 0x01F6 [0x00] END_REQSTACK()
```

### Event 65535.26

#### Metadata

| Field        | Value    |
|--------------|----------|
| Entrypoint   | 0x01F7   |
| Data Size    | 19 bytes |
| Instructions | 5        |

```
      00 01 02 03 04 05 06 07  08 09 0A 0B 0C 0D 0E 0F
      -- -- -- -- -- -- -- --  -- -- -- -- -- -- -- --
01F0:                      29  08 86 70 0E 01 11 1D 14         )..p.....
0200: 80 23 29 08 86 70 0E 01  12 00                    .#)..p....      
```

#### Opcodes

```
  0: 0x01F7 [0x29] REQ_SET_WAIT(priority=0x08, entity_id=Vamorcote (ID: 17723526/0x010E7086), tag_num=0x11)
  1: 0x01FE [0x1D] PRINT_EVENT_MESSAGE(message_id=7255*)
    → "What a world! I had little faith in our youth before, but now..."
  2: 0x0201 [0x23] WAIT_FOR_DIALOG_INTERACTION
  3: 0x0202 [0x29] REQ_SET_WAIT(priority=0x08, entity_id=Vamorcote (ID: 17723526/0x010E7086), tag_num=0x12)
  4: 0x0209 [0x00] END_REQSTACK()
```

### Event 655

#### Metadata

| Field        | Value    |
|--------------|----------|
| Entrypoint   | 0x020A   |
| Data Size    | 19 bytes |
| Instructions | 10       |

```
      00 01 02 03 04 05 06 07  08 09 0A 0B 0C 0D 0E 0F
      -- -- -- -- -- -- -- --  -- -- -- -- -- -- -- --
0200:                                1E F0 FF FF 7F 6F            .....o
0210: 70 1D 15 80 23 1D 16 80  23 20 00 21 00           p...#...# .!.   
```

#### Opcodes

```
  0: 0x020A [0x1E] EventEntity looks at LocalPlayer and starts talking
  1: 0x020F [0x6F] WAIT_FRAME_DELAY: Yield until WaitTime reaches zero
  2: 0x0210 [0x70] WAIT_ENTITY_RENDER_FLAG: Wait while EventEntity->Render.Flags3 bit 2 is set (cancel turn if not)
  3: 0x0211 [0x1D] PRINT_EVENT_MESSAGE(message_id=7256*)
    → "The floor plans should be here, locked inside. We need that $2 to open it and ensure the plans are safe!"
  4: 0x0214 [0x23] WAIT_FOR_DIALOG_INTERACTION
  5: 0x0215 [0x1D] PRINT_EVENT_MESSAGE(message_id=7257*)
    → "Search for the key on the island south of Batallia Downs. I've no idea how to get there, so ask me not!"
  6: 0x0218 [0x23] WAIT_FOR_DIALOG_INTERACTION
  7: 0x0219 [0x20] SET_CLI_EVENT_UC_FLAG: Unlock player control
  8: 0x021B [0x21] END_EVENT
  9: 0x021C [0x00] END_REQSTACK()
```

### Event 658

#### Metadata

| Field        | Value    |
|--------------|----------|
| Entrypoint   | 0x021D   |
| Data Size    | 92 bytes |
| Instructions | 16       |

```
      00 01 02 03 04 05 06 07  08 09 0A 0B 0C 0D 0E 0F
      -- -- -- -- -- -- -- --  -- -- -- -- -- -- -- --
0210:                                         20 01 42                .B
0220: 29 0B 86 70 0E 01 1F 45  17 80 F0 FF FF 7F F0 FF  )..p...E........
0230: FF 7F 66 64 6F 31 0A 80  1C 18 80 29 0B 86 70 0E  ..fdo1.....)..p.
0240: 01 20 1E F0 FF FF 7F 6F  70 45 17 80 F0 FF FF 7F  . .....opE......
0250: F0 FF FF 7F 66 64 69 31  0A 80 1C 19 80 29 0B 86  ....fdi1.....)..
0260: 70 0E 01 21 45 1A 80 F0  FF FF 7F F0 FF FF 7F 71  p..!E..........q
0270: 73 74 63 0A 80 20 00 21  00                       stc.. .!.       
```

#### Opcodes

```
  0: 0x021D [0x20] SET_CLI_EVENT_UC_FLAG: Lock player control
  1: 0x021F [0x42] SET_CLI_EVENT_CANCEL_DATA()
  2: 0x0220 [0x29] REQ_SET_WAIT(priority=0x0B, entity_id=Vamorcote (ID: 17723526/0x010E7086), tag_num=0x1F)
  3: 0x0227 [0x45] LOAD_SCHEDULED_TASK: Load scheduler "fdo1" with entities [LocalPlayer, LocalPlayer], work=[200*, 0*]
  4: 0x0238 [0x1C] WAIT(100* ticks)
  5: 0x023B [0x29] REQ_SET_WAIT(priority=0x0B, entity_id=Vamorcote (ID: 17723526/0x010E7086), tag_num=0x20)
  6: 0x0242 [0x1E] EventEntity looks at LocalPlayer and starts talking
  7: 0x0247 [0x6F] WAIT_FRAME_DELAY: Yield until WaitTime reaches zero
  8: 0x0248 [0x70] WAIT_ENTITY_RENDER_FLAG: Wait while EventEntity->Render.Flags3 bit 2 is set (cancel turn if not)
  9: 0x0249 [0x45] LOAD_SCHEDULED_TASK: Load scheduler "fdi1" with entities [LocalPlayer, LocalPlayer], work=[200*, 0*]
 10: 0x025A [0x1C] WAIT(60* ticks)
 11: 0x025D [0x29] REQ_SET_WAIT(priority=0x0B, entity_id=Vamorcote (ID: 17723526/0x010E7086), tag_num=0x21)
 12: 0x0264 [0x45] LOAD_SCHEDULED_TASK: Load scheduler "qstc" with entities [LocalPlayer, LocalPlayer], work=[201*, 0*]
 13: 0x0275 [0x20] SET_CLI_EVENT_UC_FLAG: Unlock player control
 14: 0x0277 [0x21] END_EVENT
 15: 0x0278 [0x00] END_REQSTACK()
```

### Event 65535.27

#### Metadata

| Field        | Value    |
|--------------|----------|
| Entrypoint   | 0x0279   |
| Data Size    | 19 bytes |
| Instructions | 5        |

```
      00 01 02 03 04 05 06 07  08 09 0A 0B 0C 0D 0E 0F
      -- -- -- -- -- -- -- --  -- -- -- -- -- -- -- --
0270:                             29 08 86 70 0E 01 01           )..p...
0280: 1D 1B 80 23 29 08 86 70  0E 01 02 00              ...#)..p....    
```

#### Opcodes

```
  0: 0x0279 [0x29] REQ_SET_WAIT(priority=0x08, entity_id=Vamorcote (ID: 17723526/0x010E7086), tag_num=0x01)
  1: 0x0280 [0x1D] PRINT_EVENT_MESSAGE(message_id=7260*)
    → "I wonder if this really is the key to that old box, eh?"
  2: 0x0283 [0x23] WAIT_FOR_DIALOG_INTERACTION
  3: 0x0284 [0x29] REQ_SET_WAIT(priority=0x08, entity_id=Vamorcote (ID: 17723526/0x010E7086), tag_num=0x02)
  4: 0x028B [0x00] END_REQSTACK()
```

### Event 65535.28

#### Metadata

| Field        | Value   |
|--------------|---------|
| Entrypoint   | 0x028C  |
| Data Size    | 5 bytes |
| Instructions | 3       |

```
      00 01 02 03 04 05 06 07  08 09 0A 0B 0C 0D 0E 0F
      -- -- -- -- -- -- -- --  -- -- -- -- -- -- -- --
0280:                                      1D 1C 80 23              ...#
0290: 00                                                .               
```

#### Opcodes

```
  0: 0x028C [0x1D] PRINT_EVENT_MESSAGE(message_id=7261*)
    → "Ah! It opened! And inside...?"
  1: 0x028F [0x23] WAIT_FOR_DIALOG_INTERACTION
  2: 0x0290 [0x00] END_REQSTACK()
```

### Event 65535.29

#### Metadata

| Field        | Value    |
|--------------|----------|
| Entrypoint   | 0x0291   |
| Data Size    | 37 bytes |
| Instructions | 9        |

```
      00 01 02 03 04 05 06 07  08 09 0A 0B 0C 0D 0E 0F
      -- -- -- -- -- -- -- --  -- -- -- -- -- -- -- --
0290:    29 08 86 70 0E 01 03  1D 1D 80 23 29 08 86 70   )..p......#)..p
02A0: 0E 01 04 29 08 86 70 0E  01 05 1D 1E 80 23 29 08  ...)..p......#).
02B0: 86 70 0E 01 06 00                                 .p....          
```

#### Opcodes

```
  0: 0x0291 [0x29] REQ_SET_WAIT(priority=0x08, entity_id=Vamorcote (ID: 17723526/0x010E7086), tag_num=0x03)
  1: 0x0298 [0x1D] PRINT_EVENT_MESSAGE(message_id=7262*)
    → "There it is! Our section of the plans, safe and sound. I smell a rat in the clergy...or perhaps the royal household?"
  2: 0x029B [0x23] WAIT_FOR_DIALOG_INTERACTION
  3: 0x029C [0x29] REQ_SET_WAIT(priority=0x08, entity_id=Vamorcote (ID: 17723526/0x010E7086), tag_num=0x04)
  4: 0x02A3 [0x29] REQ_SET_WAIT(priority=0x08, entity_id=Vamorcote (ID: 17723526/0x010E7086), tag_num=0x05)
  5: 0x02AA [0x1D] PRINT_EVENT_MESSAGE(message_id=7263*)
    → "No, forget what I just said. Here is your reward; may it serve you well in your adventures."
  6: 0x02AD [0x23] WAIT_FOR_DIALOG_INTERACTION
  7: 0x02AE [0x29] REQ_SET_WAIT(priority=0x08, entity_id=Vamorcote (ID: 17723526/0x010E7086), tag_num=0x06)
  8: 0x02B5 [0x00] END_REQSTACK()
```

### Event 659

#### Metadata

| Field        | Value    |
|--------------|----------|
| Entrypoint   | 0x02B6   |
| Data Size    | 43 bytes |
| Instructions | 12       |

```
      00 01 02 03 04 05 06 07  08 09 0A 0B 0C 0D 0E 0F
      -- -- -- -- -- -- -- --  -- -- -- -- -- -- -- --
02B0:                   1E F0  FF FF 7F 6F 70 29 08 86        .....op)..
02C0: 70 0E 01 03 1D 1F 80 23  29 08 86 70 0E 01 04 29  p......#)..p...)
02D0: 08 86 70 0E 01 05 29 08  86 70 0E 01 06 20 00 21  ..p...)..p... .!
02E0: 00                                                .               
```

#### Opcodes

```
  0: 0x02B6 [0x1E] EventEntity looks at LocalPlayer and starts talking
  1: 0x02BB [0x6F] WAIT_FRAME_DELAY: Yield until WaitTime reaches zero
  2: 0x02BC [0x70] WAIT_ENTITY_RENDER_FLAG: Wait while EventEntity->Render.Flags3 bit 2 is set (cancel turn if not)
  3: 0x02BD [0x29] REQ_SET_WAIT(priority=0x08, entity_id=Vamorcote (ID: 17723526/0x010E7086), tag_num=0x03)
  4: 0x02C4 [0x1D] PRINT_EVENT_MESSAGE(message_id=7264*)
    → "Our piece of the plans was safe. I smell a rat in the clergy...or perhaps the royal household?"
  5: 0x02C7 [0x23] WAIT_FOR_DIALOG_INTERACTION
  6: 0x02C8 [0x29] REQ_SET_WAIT(priority=0x08, entity_id=Vamorcote (ID: 17723526/0x010E7086), tag_num=0x04)
  7: 0x02CF [0x29] REQ_SET_WAIT(priority=0x08, entity_id=Vamorcote (ID: 17723526/0x010E7086), tag_num=0x05)
  8: 0x02D6 [0x29] REQ_SET_WAIT(priority=0x08, entity_id=Vamorcote (ID: 17723526/0x010E7086), tag_num=0x06)
  9: 0x02DD [0x20] SET_CLI_EVENT_UC_FLAG: Unlock player control
 10: 0x02DF [0x21] END_EVENT
 11: 0x02E0 [0x00] END_REQSTACK()
```
