# 17723784 - Charmealaut

## Common Data

| Field            | Value                         |
|------------------|-------------------------------|
| Zone             | Northern San d'Oria (ID: 231) |
| Block Size       | 940 bytes                     |
| Total Events     | 7                             |
| References Count | 48                            |

## List of Events

| Event ID              | Entrypoint   |   Size |   Instructions |
|-----------------------|--------------|--------|----------------|
| [65535](#event-65535) | 0x0000       |      1 |              1 |
| [768](#event-768)     | 0x0001       |     15 |              7 |
| [769](#event-769)     | 0x0010       |    414 |            111 |
| [32742](#event-32742) | 0x01AE       |     23 |             11 |
| [32741](#event-32741) | 0x01C5       |    195 |             51 |
| [32736](#event-32736) | 0x0288       |     30 |             16 |
| [32735](#event-32735) | 0x02A6       |     26 |             14 |

## DAT References (imed_data)

|   Index | Hex Value   |   Dec Value |
|---------|-------------|-------------|
|       0 | 0x347E      |       13438 |
|       1 | 0x347F      |       13439 |
|       2 | 0x3481      |       13441 |
|       3 | 0x06D2      |        1746 |
|       4 | 0x3482      |       13442 |
|       5 | 0x06D3      |        1747 |
|       6 | 0x06D4      |        1748 |
|       7 | 0x3484      |       13444 |
|       8 | 0x3485      |       13445 |
|       9 | 0x0001      |           1 |
|      10 | 0x0000      |           0 |
|      11 | 0x00C8      |         200 |
|      12 | 0x0064      |         100 |
|      13 | 0x3486      |       13446 |
|      14 | 0x0003      |           3 |
|      15 | 0x3487      |       13447 |
|      16 | 0x3488      |       13448 |
|      17 | 0x3489      |       13449 |
|      18 | 0x348A      |       13450 |
|      19 | 0x3483      |       13443 |
|      20 | 0x0006      |           6 |
|      21 | 0x0002      |           2 |
|      22 | 0x0009      |           9 |
|      23 | 0x0004      |           4 |
|      24 | 0x0007      |           7 |
|      25 | 0x0005      |           5 |
|      26 | 0x0008      |           8 |
|      27 | 0x350F      |       13583 |
|      28 | 0x3510      |       13584 |
|      29 | 0x3511      |       13585 |
|      30 | 0x3512      |       13586 |
|      31 | 0x3513      |       13587 |
|      32 | 0x3514      |       13588 |
|      33 | 0x3515      |       13589 |
|      34 | 0x0014      |          20 |
|      35 | 0x3516      |       13590 |
|      36 | 0x0019      |          25 |
|      37 | 0x00B4      |         180 |
|      38 | 0x3517      |       13591 |
|      39 | 0x38FF      |       14591 |
|      40 | 0x3900      |       14592 |
|      41 | 0x3901      |       14593 |
|      42 | 0x3902      |       14594 |
|      43 | 0x3903      |       14595 |
|      44 | 0x3904      |       14596 |
|      45 | 0x3905      |       14597 |
|      46 | 0x3906      |       14598 |
|      47 | 0x3907      |       14599 |

## String References

- **13438**: Ho ho ho! Have you been working hard to bring joy to the wee tykes of Vana'diel?
- **13439**: I believe the children are our future. If we don't nurture them, then all hope will be lost. That's why I've been passing out presents to show them my love. Here, why don't you try it as well?
- **13441**: Ho ho ho! Letters from my fans?
- **13442**: But there isn't a name on this $1... How am I supposed to return the favor if I don't know who to return it to...?
- **13443**: Who sent it? [Artinien./Authere./Auvare./Blendare./Brifalien./Foletta./Leuveret./Maurinne./Miene./Taurette.]
- **13444**: Are you sure [Artinien/Authere/Auvare/Blendare/Brifalien/Foletta/Leuveret/Maurinne/Miene/Taurette], [Artinien/Authere/Auvare/Blendare/Brifalien/Foletta/Leuveret/Maurinne/Miene/Taurette], and [Artinien/Authere/Auvare/Blendare/Brifalien/Foletta/Leuveret/Maurinne/Miene/Taurette] are the ones who gave you the letters?
- **13445**: Positive? [Aboslutely!/Wait a minute...]
- **13446**: <Sigh>... If there isn't a name on this $1, how am I supposed to return the favor?
- **13447**: I knew it! Those little ones have been my favorites since I arrived in San d'Oria.
- **13448**: You know, you ought to try bringing joy to the children of Vana'diel yourself. Here, you can have this hat.
- **13449**: Wear it, and all the kids will know that you're here to deliver love!
- **13450**: Really! Acts of kindness like this always fill my heart up with this feeling...this feeling that I just can't explain. I'll have to go find those children and give 'em an extra-special present!
- **13583**: Let me tell you the key to making the children of Vana'diel happy.
- **13584**: You have to give them presents! That much should be obvious. I won't tell you what to give them, though. You've got to use your head for that!
- **13585**: Oh yeah, before you start handing out gifts, you also have to wear one of these red hats like the one I've got on. That'll prove that you're a smilebringer! No kid will trust you without it!
- **13586**: A while ago, I saw a moogle carrying a huge bag full of hats like this... Maybe they're selling them somewhere. You should find out for yourself! That's all I have to say!
- **13587**: [You haven't brought any happiness to the children!/You've done some good./You've done fairly well./You've made the children very happy!/You've brought lots of smiles!/You have the children bursting with glee!/The children love you!] [What a disappointment./You just need to give a little extra effort!/Keep it up!/You make a good smilebringer./Excellent work!/Stupendous job!/Even I think you're great!]
- **13588**: You can make good use of some of that joy you've brought to transport yourself to another nation. The children in other parts of Vana'diel need smiles, too!
- **13589**: Transport to another nation? [Not now./Go to San d'Oria./Go to Bastok./Go to Windurst.]
- **13590**: Have a nice trip!
- **13591**: Sorry, but it looks like you don't have enough joy and happiness in your life to do that. You can earn some by giving presents to children, though!
- **14591**: Well, that was interesting. Who would have thought that one of our festival trees would just get up and start walking around? I'm just glad that it is all over.
- **14592**: However, there is something that still bothers me... It is like a dark cloud hanging over our fair city...
- **14593**: I've been so busy fighting treants and spreading love to the children, that it wasn't until recently that I heard the rumors of the "other" smilebringers...
- **14594**: I don't know what these imposters are cooking up, but if they are even thinking of laying a finger on the city's innocent children...
- **14595**: I hate to ask this of a stranger, but you look like someone I can trust. Would you please be so kind as to search out the false smilebringer and bring him to me so we can straighten this whole mess out?
- **14596**: You're back! Were you able to find the imposter?
- **14597**: You located him, but he managed to escape? Well, I guess that is better than nothing. Now that he knows we are on to him, perhaps he will cease to prey on the Kingdom's children.
- **14598**: I heard from another kind adventurer that the false smilebringer was passing out strange-looking boxes to the young ones... Why, for all I know, there could be live scorpions hiding in those packages, just waiting to sting the cute little button noses of all my little friends.
- **14599**: You don't know how much your kindness means to me. You're a little old to be my friend, but I'd like you to have this as a token of my appreciation.

## Events

### Event 65535

#### Metadata

| Field        | Value   |
|--------------|---------|
| Entrypoint   | 0x0000  |
| Data Size    | 1 bytes |
| Instructions | 1       |

```
      00 01 02 03 04 05 06 07  08 09 0A 0B 0C 0D 0E 0F
      -- -- -- -- -- -- -- --  -- -- -- -- -- -- -- --
0000: 00                                                .               
```

#### Opcodes

```
  0: 0x0000 [0x00] END_REQSTACK()
```

### Event 768

#### Metadata

| Field        | Value    |
|--------------|----------|
| Entrypoint   | 0x0001   |
| Data Size    | 15 bytes |
| Instructions | 7        |

```
      00 01 02 03 04 05 06 07  08 09 0A 0B 0C 0D 0E 0F
      -- -- -- -- -- -- -- --  -- -- -- -- -- -- -- --
0000:    1E F0 FF FF 7F 1D 00  80 23 1D 01 80 23 21 00   ........#...#!.
```

#### Opcodes

```
  0: 0x0001 [0x1E] EventEntity looks at LocalPlayer and starts talking
  1: 0x0006 [0x1D] PRINT_EVENT_MESSAGE(message_id=13438*)
    → "Ho ho ho! Have you been working hard to bring joy to the wee tykes of Vana'diel?"
  2: 0x0009 [0x23] WAIT_FOR_DIALOG_INTERACTION
  3: 0x000A [0x1D] PRINT_EVENT_MESSAGE(message_id=13439*)
    → "I believe the children are our future. If we don't nurture them, then all hope will be lost. That's why I've been passing out presents to show them my love. Here, why don't you try it as well?"
  4: 0x000D [0x23] WAIT_FOR_DIALOG_INTERACTION
  5: 0x000E [0x21] END_EVENT
  6: 0x000F [0x00] END_REQSTACK()
```

### Event 769

#### Metadata

| Field        | Value     |
|--------------|-----------|
| Entrypoint   | 0x0010    |
| Data Size    | 414 bytes |
| Instructions | 110       |

```
      00 01 02 03 04 05 06 07  08 09 0A 0B 0C 0D 0E 0F
      -- -- -- -- -- -- -- --  -- -- -- -- -- -- -- --
0010: 42 1E F0 FF FF 7F 1D 02  80 23 03 03 10 03 80 1D  B........#......
0020: 04 80 23 1A 05 01 03 00  00 00 10 43 00 43 01 03  ..#........C.C..
0030: 03 10 05 80 1D 04 80 23  1A 05 01 03 01 00 00 10  .......#........
0040: 43 00 43 01 03 03 10 06  80 1D 04 80 23 1A 05 01  C.C.........#...
0050: 03 02 00 00 10 43 00 43  01 03 03 10 00 00 03 04  .....C.C........
0060: 10 01 00 03 05 10 02 00  1D 07 80 23 24 08 80 09  ...........#$...
0070: 80 0A 80 25 02 00 10 0A  80 00 88 00 03 01 10 0B  ...%............
0080: 80 43 00 43 01 01 DE 00  02 00 10 09 80 00 DE 00  .C.C............
0090: 03 01 10 0C 80 43 00 43  01 03 03 10 03 80 1D 0D  .....C.C........
00A0: 80 23 1A 05 01 03 00 00  00 10 43 00 43 01 03 03  .#........C.C...
00B0: 10 05 80 1D 0D 80 23 1A  05 01 03 01 00 00 10 43  ......#........C
00C0: 00 43 01 03 03 10 06 80  1D 0D 80 23 1A 05 01 03  .C.........#....
00D0: 02 00 00 10 43 00 43 01  01 59 00 01 DE 00 02 02  ....C.C..Y......
00E0: 10 0E 80 00 FA 00 1D 0F  80 23 1D 10 80 23 1D 11  .........#...#..
00F0: 80 23 03 01 10 09 80 01  03 01 1D 12 80 23 03 01  .#...........#..
0100: 10 0A 80 21 00 24 13 80  0A 80 0A 80 25 02 00 10  ...!.$......%...
0110: 0A 80 00 1D 01 03 01 10  14 80 01 AD 01 02 00 10  ................
0120: 09 80 00 2D 01 03 01 10  15 80 01 AD 01 02 00 10  ...-............
0130: 15 80 00 3D 01 03 01 10  16 80 01 AD 01 02 00 10  ...=............
0140: 0E 80 00 4D 01 03 01 10  0E 80 01 AD 01 02 00 10  ...M............
0150: 17 80 00 5D 01 03 01 10  18 80 01 AD 01 02 00 10  ...]............
0160: 19 80 00 6D 01 03 01 10  0A 80 01 AD 01 02 00 10  ...m............
0170: 14 80 00 7D 01 03 01 10  09 80 01 AD 01 02 00 10  ...}............
0180: 18 80 00 8D 01 03 01 10  17 80 01 AD 01 02 00 10  ................
0190: 1A 80 00 9D 01 03 01 10  1A 80 01 AD 01 02 00 10  ................
01A0: 16 80 00 AD 01 03 01 10  19 80 01 AD 01 1B        ..............  
```

#### Opcodes

```
  0: 0x0010 [0x42] SET_CLI_EVENT_CANCEL_DATA()
  1: 0x0011 [0x1E] EventEntity looks at LocalPlayer and starts talking
  2: 0x0016 [0x1D] PRINT_EVENT_MESSAGE(message_id=13441*)
    → "Ho ho ho! Letters from my fans?"
  3: 0x0019 [0x23] WAIT_FOR_DIALOG_INTERACTION
  4: 0x001A [0x03] Work_Zone[3] = 1746*
  5: 0x001F [0x1D] PRINT_EVENT_MESSAGE(message_id=13442*)
    → "But there isn't a name on this $1... How am I supposed to return the favor if I don't know who to return it to...?"
  6: 0x0022 [0x23] WAIT_FOR_DIALOG_INTERACTION
  7: 0x0023 [0x1A] CALL_SUBROUTINE(address=0x0105)
  8: 0x0026 [0x03] ExtData[1]->WorkLocal[0] = Work_Zone[0]
  9: 0x002B [0x43] SEND_EVENT_UPDATE: Send pending tag to server (packet 0x005B)
 10: 0x002D [0x43] SEND_EVENT_UPDATE: Check pending flag (skip if not pending)
 11: 0x002F [0x03] Work_Zone[3] = 1747*
 12: 0x0034 [0x1D] PRINT_EVENT_MESSAGE(message_id=13442*)
    → "But there isn't a name on this $1... How am I supposed to return the favor if I don't know who to return it to...?"
 13: 0x0037 [0x23] WAIT_FOR_DIALOG_INTERACTION
 14: 0x0038 [0x1A] CALL_SUBROUTINE(address=0x0105)
 15: 0x003B [0x03] ExtData[1]->WorkLocal[1] = Work_Zone[0]
 16: 0x0040 [0x43] SEND_EVENT_UPDATE: Send pending tag to server (packet 0x005B)
 17: 0x0042 [0x43] SEND_EVENT_UPDATE: Check pending flag (skip if not pending)
 18: 0x0044 [0x03] Work_Zone[3] = 1748*
 19: 0x0049 [0x1D] PRINT_EVENT_MESSAGE(message_id=13442*)
    → "But there isn't a name on this $1... How am I supposed to return the favor if I don't know who to return it to...?"
 20: 0x004C [0x23] WAIT_FOR_DIALOG_INTERACTION
 21: 0x004D [0x1A] CALL_SUBROUTINE(address=0x0105)
 22: 0x0050 [0x03] ExtData[1]->WorkLocal[2] = Work_Zone[0]
 23: 0x0055 [0x43] SEND_EVENT_UPDATE: Send pending tag to server (packet 0x005B)
 24: 0x0057 [0x43] SEND_EVENT_UPDATE: Check pending flag (skip if not pending)
 25: 0x0059 [0x03] Work_Zone[3] = ExtData[1]->WorkLocal[0]
 26: 0x005E [0x03] Work_Zone[4] = ExtData[1]->WorkLocal[1]
 27: 0x0063 [0x03] Work_Zone[5] = ExtData[1]->WorkLocal[2]
 28: 0x0068 [0x1D] PRINT_EVENT_MESSAGE(message_id=13444*)
    → "Are you sure [Artinien/Authere/Auvare/Blendare/Brifalien/Foletta/Leuveret/Maurinne/Miene/Taurette], [Artinien/Authere/Auvare/Blendare/Brifalien/Foletta/Leuveret/Maurinne/Miene/Taurette], and [Artinien/Authere/Auvare/Blendare/Brifalien/Foletta/Leuveret/Maurinne/Miene/Taurette] are the ones who gave you the letters?"
 29: 0x006B [0x23] WAIT_FOR_DIALOG_INTERACTION
 30: 0x006C [0x24] CREATE_DIALOG(message_id=13445*, default_option=1*, option_flags=0*)
    → "Positive? [Aboslutely!/Wait a minute...]"
 31: 0x0073 [0x25] WAIT_DIALOG_SELECT()
 32: 0x0074 [0x02] IF !(Work_Zone[0] == 0*) GOTO 0x0088
 33: 0x007C [0x03] Work_Zone[1] = 200*
 34: 0x0081 [0x43] SEND_EVENT_UPDATE: Send pending tag to server (packet 0x005B)
 35: 0x0083 [0x43] SEND_EVENT_UPDATE: Check pending flag (skip if not pending)
 36: 0x0085 [0x01] GOTO 0x00DE
 37: 0x0088 [0x02] IF !(Work_Zone[0] == 1*) GOTO 0x00DE
 38: 0x0090 [0x03] Work_Zone[1] = 100*
 39: 0x0095 [0x43] SEND_EVENT_UPDATE: Send pending tag to server (packet 0x005B)
 40: 0x0097 [0x43] SEND_EVENT_UPDATE: Check pending flag (skip if not pending)
 41: 0x0099 [0x03] Work_Zone[3] = 1746*
 42: 0x009E [0x1D] PRINT_EVENT_MESSAGE(message_id=13446*)
    → "<Sigh>... If there isn't a name on this $1, how am I supposed to return the favor?"
 43: 0x00A1 [0x23] WAIT_FOR_DIALOG_INTERACTION
 44: 0x00A2 [0x1A] CALL_SUBROUTINE(address=0x0105)
 45: 0x00A5 [0x03] ExtData[1]->WorkLocal[0] = Work_Zone[0]
 46: 0x00AA [0x43] SEND_EVENT_UPDATE: Send pending tag to server (packet 0x005B)
 47: 0x00AC [0x43] SEND_EVENT_UPDATE: Check pending flag (skip if not pending)
 48: 0x00AE [0x03] Work_Zone[3] = 1747*
 49: 0x00B3 [0x1D] PRINT_EVENT_MESSAGE(message_id=13446*)
    → "<Sigh>... If there isn't a name on this $1, how am I supposed to return the favor?"
 50: 0x00B6 [0x23] WAIT_FOR_DIALOG_INTERACTION
 51: 0x00B7 [0x1A] CALL_SUBROUTINE(address=0x0105)
 52: 0x00BA [0x03] ExtData[1]->WorkLocal[1] = Work_Zone[0]
 53: 0x00BF [0x43] SEND_EVENT_UPDATE: Send pending tag to server (packet 0x005B)
 54: 0x00C1 [0x43] SEND_EVENT_UPDATE: Check pending flag (skip if not pending)
 55: 0x00C3 [0x03] Work_Zone[3] = 1748*
 56: 0x00C8 [0x1D] PRINT_EVENT_MESSAGE(message_id=13446*)
    → "<Sigh>... If there isn't a name on this $1, how am I supposed to return the favor?"
 57: 0x00CB [0x23] WAIT_FOR_DIALOG_INTERACTION
 58: 0x00CC [0x1A] CALL_SUBROUTINE(address=0x0105)
 59: 0x00CF [0x03] ExtData[1]->WorkLocal[2] = Work_Zone[0]
 60: 0x00D4 [0x43] SEND_EVENT_UPDATE: Send pending tag to server (packet 0x005B)
 61: 0x00D6 [0x43] SEND_EVENT_UPDATE: Check pending flag (skip if not pending)
 62: 0x00D8 [0x01] GOTO 0x0059

SUBROUTINE_00DE:
 63: 0x00DE [0x02] IF !(Work_Zone[2] == 3*) GOTO 0x00FA
 64: 0x00E6 [0x1D] PRINT_EVENT_MESSAGE(message_id=13447*)
    → "I knew it! Those little ones have been my favorites since I arrived in San d'Oria."
 65: 0x00E9 [0x23] WAIT_FOR_DIALOG_INTERACTION
 66: 0x00EA [0x1D] PRINT_EVENT_MESSAGE(message_id=13448*)
    → "You know, you ought to try bringing joy to the children of Vana'diel yourself. Here, you can have this hat."
 67: 0x00ED [0x23] WAIT_FOR_DIALOG_INTERACTION
 68: 0x00EE [0x1D] PRINT_EVENT_MESSAGE(message_id=13449*)
    → "Wear it, and all the kids will know that you're here to deliver love!"
 69: 0x00F1 [0x23] WAIT_FOR_DIALOG_INTERACTION
 70: 0x00F2 [0x03] Work_Zone[1] = 1*
 71: 0x00F7 [0x01] GOTO 0x0103
 72: 0x00FA [0x1D] PRINT_EVENT_MESSAGE(message_id=13450*)
    → "Really! Acts of kindness like this always fill my heart up with this feeling...this feeling that I just can't explain. I'll have to go find those children and give 'em an extra-special present!"
 73: 0x00FD [0x23] WAIT_FOR_DIALOG_INTERACTION
 74: 0x00FE [0x03] Work_Zone[1] = 0*

SUBROUTINE_0103:
 75: 0x0103 [0x21] END_EVENT
 76: 0x0104 [0x00] END_REQSTACK()

SUBROUTINE_0105:
 77: 0x0105 [0x24] CREATE_DIALOG(message_id=13443*, default_option=0*, option_flags=0*)
    → "Who sent it? [Artinien./Authere./Auvare./Blendare./Brifalien./Foletta./Leuveret./Maurinne./Miene./Taurette.]"
 78: 0x010C [0x25] WAIT_DIALOG_SELECT()
 79: 0x010D [0x02] IF !(Work_Zone[0] == 0*) GOTO 0x011D
 80: 0x0115 [0x03] Work_Zone[1] = 6*
 81: 0x011A [0x01] GOTO 0x01AD
 82: 0x011D [0x02] IF !(Work_Zone[0] == 1*) GOTO 0x012D
 83: 0x0125 [0x03] Work_Zone[1] = 2*
 84: 0x012A [0x01] GOTO 0x01AD
 85: 0x012D [0x02] IF !(Work_Zone[0] == 2*) GOTO 0x013D
 86: 0x0135 [0x03] Work_Zone[1] = 9*
 87: 0x013A [0x01] GOTO 0x01AD
 88: 0x013D [0x02] IF !(Work_Zone[0] == 3*) GOTO 0x014D
 89: 0x0145 [0x03] Work_Zone[1] = 3*
 90: 0x014A [0x01] GOTO 0x01AD
 91: 0x014D [0x02] IF !(Work_Zone[0] == 4*) GOTO 0x015D
 92: 0x0155 [0x03] Work_Zone[1] = 7*
 93: 0x015A [0x01] GOTO 0x01AD
 94: 0x015D [0x02] IF !(Work_Zone[0] == 5*) GOTO 0x016D
 95: 0x0165 [0x03] Work_Zone[1] = 0*
 96: 0x016A [0x01] GOTO 0x01AD
 97: 0x016D [0x02] IF !(Work_Zone[0] == 6*) GOTO 0x017D
 98: 0x0175 [0x03] Work_Zone[1] = 1*
 99: 0x017A [0x01] GOTO 0x01AD
100: 0x017D [0x02] IF !(Work_Zone[0] == 7*) GOTO 0x018D
101: 0x0185 [0x03] Work_Zone[1] = 4*
102: 0x018A [0x01] GOTO 0x01AD
103: 0x018D [0x02] IF !(Work_Zone[0] == 8*) GOTO 0x019D
104: 0x0195 [0x03] Work_Zone[1] = 8*
105: 0x019A [0x01] GOTO 0x01AD
106: 0x019D [0x02] IF !(Work_Zone[0] == 9*) GOTO 0x01AD
107: 0x01A5 [0x03] Work_Zone[1] = 5*
108: 0x01AA [0x01] GOTO 0x01AD

SUBROUTINE_01AD:
109: 0x01AD [0x1B] RETURN
```

#### Data or dead code:

```
# Dead code (unreachable instructions):
     0x00DB [0x01] GOTO 0x00DE
```

### Event 32742

#### Metadata

| Field        | Value    |
|--------------|----------|
| Entrypoint   | 0x01AE   |
| Data Size    | 23 bytes |
| Instructions | 11       |

```
      00 01 02 03 04 05 06 07  08 09 0A 0B 0C 0D 0E 0F
      -- -- -- -- -- -- -- --  -- -- -- -- -- -- -- --
01A0:                                            1E F0                ..
01B0: FF FF 7F 1D 1B 80 23 1D  1C 80 23 1D 1D 80 23 1D  ......#...#...#.
01C0: 1E 80 23 21 00                                    ..#!.           
```

#### Opcodes

```
  0: 0x01AE [0x1E] EventEntity looks at LocalPlayer and starts talking
  1: 0x01B3 [0x1D] PRINT_EVENT_MESSAGE(message_id=13583*)
    → "Let me tell you the key to making the children of Vana'diel happy."
  2: 0x01B6 [0x23] WAIT_FOR_DIALOG_INTERACTION
  3: 0x01B7 [0x1D] PRINT_EVENT_MESSAGE(message_id=13584*)
    → "You have to give them presents! That much should be obvious. I won't tell you what to give them, though. You've got to use your head for that!"
  4: 0x01BA [0x23] WAIT_FOR_DIALOG_INTERACTION
  5: 0x01BB [0x1D] PRINT_EVENT_MESSAGE(message_id=13585*)
    → "Oh yeah, before you start handing out gifts, you also have to wear one of these red hats like the one I've got on. That'll prove that you're a smilebringer! No kid will trust you without it!"
  6: 0x01BE [0x23] WAIT_FOR_DIALOG_INTERACTION
  7: 0x01BF [0x1D] PRINT_EVENT_MESSAGE(message_id=13586*)
    → "A while ago, I saw a moogle carrying a huge bag full of hats like this... Maybe they're selling them somewhere. You should find out for yourself! That's all I have to say!"
  8: 0x01C2 [0x23] WAIT_FOR_DIALOG_INTERACTION
  9: 0x01C3 [0x21] END_EVENT
 10: 0x01C4 [0x00] END_REQSTACK()
```

### Event 32741

#### Metadata

| Field        | Value     |
|--------------|-----------|
| Entrypoint   | 0x01C5    |
| Data Size    | 195 bytes |
| Instructions | 51        |

```
      00 01 02 03 04 05 06 07  08 09 0A 0B 0C 0D 0E 0F
      -- -- -- -- -- -- -- --  -- -- -- -- -- -- -- --
01C0:                1E F0 FF  FF 7F 1D 1F 80 23 1D 20       ........#. 
01D0: 80 23 24 21 80 0A 80 02  10 25 02 00 10 0A 80 00  .#$!.....%......
01E0: EA 01 03 01 10 0A 80 01  86 02 02 00 10 09 80 00  ................
01F0: 1E 02 02 04 10 22 80 04  17 02 42 1D 23 80 23 AD  ....."....B.#.#.
0200: 00 24 80 F8 FF FF 7F F0  FF FF 7F 1C 25 80 30 03  .$..........%.0.
0210: 01 10 09 80 01 1B 02 1D  26 80 23 01 86 02 02 00  ........&.#.....
0220: 10 15 80 00 52 02 02 04  10 22 80 04 4B 02 42 1D  ....R...."..K.B.
0230: 23 80 23 AD 00 24 80 F8  FF FF 7F F0 FF FF 7F 1C  #.#..$..........
0240: 25 80 30 03 01 10 15 80  01 4F 02 1D 26 80 23 01  %.0......O..&.#.
0250: 86 02 02 00 10 0E 80 00  86 02 02 04 10 22 80 04  ............."..
0260: 7F 02 42 1D 23 80 23 AD  00 24 80 F8 FF FF 7F F0  ..B.#.#..$......
0270: FF FF 7F 1C 25 80 30 03  01 10 0E 80 01 83 02 1D  ....%.0.........
0280: 26 80 23 01 86 02 21 00                           &.#...!.        
```

#### Opcodes

```
  0: 0x01C5 [0x1E] EventEntity looks at LocalPlayer and starts talking
  1: 0x01CA [0x1D] PRINT_EVENT_MESSAGE(message_id=13587*)
    → "[You haven't brought any happiness to the children!/You've done some good./You've done fairly well./You've made the children very happy!/You've brought lots of smiles!/You have the children bursting with glee!/The children love you!] [What a disappointment./You just need to give a little extra effort!/Keep it up!/You make a good smilebringer./Excellent work!/Stupendous job!/Even I think you're great!]"
  2: 0x01CD [0x23] WAIT_FOR_DIALOG_INTERACTION
  3: 0x01CE [0x1D] PRINT_EVENT_MESSAGE(message_id=13588*)
    → "You can make good use of some of that joy you've brought to transport yourself to another nation. The children in other parts of Vana'diel need smiles, too!"
  4: 0x01D1 [0x23] WAIT_FOR_DIALOG_INTERACTION
  5: 0x01D2 [0x24] CREATE_DIALOG(message_id=13589*, default_option=0*, option_flags=Work_Zone[2])
    → "Transport to another nation? [Not now./Go to San d'Oria./Go to Bastok./Go to Windurst.]"
  6: 0x01D9 [0x25] WAIT_DIALOG_SELECT()
  7: 0x01DA [0x02] IF !(Work_Zone[0] == 0*) GOTO 0x01EA
  8: 0x01E2 [0x03] Work_Zone[1] = 0*
  9: 0x01E7 [0x01] GOTO 0x0286
 10: 0x01EA [0x02] IF !(Work_Zone[0] == 1*) GOTO 0x021E
 11: 0x01F2 [0x02] IF !(Work_Zone[4] < 20*) GOTO 0x0217
 12: 0x01FA [0x42] SET_CLI_EVENT_CANCEL_DATA()
 13: 0x01FB [0x1D] PRINT_EVENT_MESSAGE(message_id=13590*)
    → "Have a nice trip!"
 14: 0x01FE [0x23] WAIT_FOR_DIALOG_INTERACTION
 15: 0x01FF [0xAD] DUAL_ENTITY_SCHEDULER_HANDLER: Execute sub-case 0 with entities [EventEntity, LocalPlayer], work=25*
 16: 0x020B [0x1C] WAIT(180* ticks)
 17: 0x020E [0x30] SET_UCOFF_CONTINUE_ZERO()
 18: 0x020F [0x03] Work_Zone[1] = 1*
 19: 0x0214 [0x01] GOTO 0x021B
 20: 0x0217 [0x1D] PRINT_EVENT_MESSAGE(message_id=13591*)
    → "Sorry, but it looks like you don't have enough joy and happiness in your life to do that. You can earn some by giving presents to children, though!"
 21: 0x021A [0x23] WAIT_FOR_DIALOG_INTERACTION

SUBROUTINE_021B:
 22: 0x021B [0x01] GOTO 0x0286
 23: 0x021E [0x02] IF !(Work_Zone[0] == 2*) GOTO 0x0252
 24: 0x0226 [0x02] IF !(Work_Zone[4] < 20*) GOTO 0x024B
 25: 0x022E [0x42] SET_CLI_EVENT_CANCEL_DATA()
 26: 0x022F [0x1D] PRINT_EVENT_MESSAGE(message_id=13590*)
    → "Have a nice trip!"
 27: 0x0232 [0x23] WAIT_FOR_DIALOG_INTERACTION
 28: 0x0233 [0xAD] DUAL_ENTITY_SCHEDULER_HANDLER: Execute sub-case 0 with entities [EventEntity, LocalPlayer], work=25*
 29: 0x023F [0x1C] WAIT(180* ticks)
 30: 0x0242 [0x30] SET_UCOFF_CONTINUE_ZERO()
 31: 0x0243 [0x03] Work_Zone[1] = 2*
 32: 0x0248 [0x01] GOTO 0x024F
 33: 0x024B [0x1D] PRINT_EVENT_MESSAGE(message_id=13591*)
    → "Sorry, but it looks like you don't have enough joy and happiness in your life to do that. You can earn some by giving presents to children, though!"
 34: 0x024E [0x23] WAIT_FOR_DIALOG_INTERACTION

SUBROUTINE_024F:
 35: 0x024F [0x01] GOTO 0x0286
 36: 0x0252 [0x02] IF !(Work_Zone[0] == 3*) GOTO 0x0286
 37: 0x025A [0x02] IF !(Work_Zone[4] < 20*) GOTO 0x027F
 38: 0x0262 [0x42] SET_CLI_EVENT_CANCEL_DATA()
 39: 0x0263 [0x1D] PRINT_EVENT_MESSAGE(message_id=13590*)
    → "Have a nice trip!"
 40: 0x0266 [0x23] WAIT_FOR_DIALOG_INTERACTION
 41: 0x0267 [0xAD] DUAL_ENTITY_SCHEDULER_HANDLER: Execute sub-case 0 with entities [EventEntity, LocalPlayer], work=25*
 42: 0x0273 [0x1C] WAIT(180* ticks)
 43: 0x0276 [0x30] SET_UCOFF_CONTINUE_ZERO()
 44: 0x0277 [0x03] Work_Zone[1] = 3*
 45: 0x027C [0x01] GOTO 0x0283
 46: 0x027F [0x1D] PRINT_EVENT_MESSAGE(message_id=13591*)
    → "Sorry, but it looks like you don't have enough joy and happiness in your life to do that. You can earn some by giving presents to children, though!"
 47: 0x0282 [0x23] WAIT_FOR_DIALOG_INTERACTION

SUBROUTINE_0283:
 48: 0x0283 [0x01] GOTO 0x0286

SUBROUTINE_0286:
 49: 0x0286 [0x21] END_EVENT
 50: 0x0287 [0x00] END_REQSTACK()
```

### Event 32736

#### Metadata

| Field        | Value    |
|--------------|----------|
| Entrypoint   | 0x0288   |
| Data Size    | 30 bytes |
| Instructions | 16       |

```
      00 01 02 03 04 05 06 07  08 09 0A 0B 0C 0D 0E 0F
      -- -- -- -- -- -- -- --  -- -- -- -- -- -- -- --
0280:                          42 1E F0 FF FF 7F 6F 70          B.....op
0290: 1D 27 80 23 1D 28 80 23  1D 29 80 23 1D 2A 80 23  .'.#.(.#.).#.*.#
02A0: 1D 2B 80 23 21 00                                 .+.#!.          
```

#### Opcodes

```
  0: 0x0288 [0x42] SET_CLI_EVENT_CANCEL_DATA()
  1: 0x0289 [0x1E] EventEntity looks at LocalPlayer and starts talking
  2: 0x028E [0x6F] WAIT_FRAME_DELAY: Yield until WaitTime reaches zero
  3: 0x028F [0x70] WAIT_ENTITY_RENDER_FLAG: Wait while EventEntity->Render.Flags3 bit 2 is set (cancel turn if not)
  4: 0x0290 [0x1D] PRINT_EVENT_MESSAGE(message_id=14591*)
    → "Well, that was interesting. Who would have thought that one of our festival trees would just get up and start walking around? I'm just glad that it is all over."
  5: 0x0293 [0x23] WAIT_FOR_DIALOG_INTERACTION
  6: 0x0294 [0x1D] PRINT_EVENT_MESSAGE(message_id=14592*)
    → "However, there is something that still bothers me... It is like a dark cloud hanging over our fair city..."
  7: 0x0297 [0x23] WAIT_FOR_DIALOG_INTERACTION
  8: 0x0298 [0x1D] PRINT_EVENT_MESSAGE(message_id=14593*)
    → "I've been so busy fighting treants and spreading love to the children, that it wasn't until recently that I heard the rumors of the "other" smilebringers..."
  9: 0x029B [0x23] WAIT_FOR_DIALOG_INTERACTION
 10: 0x029C [0x1D] PRINT_EVENT_MESSAGE(message_id=14594*)
    → "I don't know what these imposters are cooking up, but if they are even thinking of laying a finger on the city's innocent children..."
 11: 0x029F [0x23] WAIT_FOR_DIALOG_INTERACTION
 12: 0x02A0 [0x1D] PRINT_EVENT_MESSAGE(message_id=14595*)
    → "I hate to ask this of a stranger, but you look like someone I can trust. Would you please be so kind as to search out the false smilebringer and bring him to me so we can straighten this whole mess out?"
 13: 0x02A3 [0x23] WAIT_FOR_DIALOG_INTERACTION
 14: 0x02A4 [0x21] END_EVENT
 15: 0x02A5 [0x00] END_REQSTACK()
```

### Event 32735

#### Metadata

| Field        | Value    |
|--------------|----------|
| Entrypoint   | 0x02A6   |
| Data Size    | 26 bytes |
| Instructions | 14       |

```
      00 01 02 03 04 05 06 07  08 09 0A 0B 0C 0D 0E 0F
      -- -- -- -- -- -- -- --  -- -- -- -- -- -- -- --
02A0:                   42 1E  F0 FF FF 7F 6F 70 1D 2C        B.....op.,
02B0: 80 23 1D 2D 80 23 1D 2E  80 23 1D 2F 80 23 21 00  .#.-.#...#./.#!.
```

#### Opcodes

```
  0: 0x02A6 [0x42] SET_CLI_EVENT_CANCEL_DATA()
  1: 0x02A7 [0x1E] EventEntity looks at LocalPlayer and starts talking
  2: 0x02AC [0x6F] WAIT_FRAME_DELAY: Yield until WaitTime reaches zero
  3: 0x02AD [0x70] WAIT_ENTITY_RENDER_FLAG: Wait while EventEntity->Render.Flags3 bit 2 is set (cancel turn if not)
  4: 0x02AE [0x1D] PRINT_EVENT_MESSAGE(message_id=14596*)
    → "You're back! Were you able to find the imposter?"
  5: 0x02B1 [0x23] WAIT_FOR_DIALOG_INTERACTION
  6: 0x02B2 [0x1D] PRINT_EVENT_MESSAGE(message_id=14597*)
    → "You located him, but he managed to escape? Well, I guess that is better than nothing. Now that he knows we are on to him, perhaps he will cease to prey on the Kingdom's children."
  7: 0x02B5 [0x23] WAIT_FOR_DIALOG_INTERACTION
  8: 0x02B6 [0x1D] PRINT_EVENT_MESSAGE(message_id=14598*)
    → "I heard from another kind adventurer that the false smilebringer was passing out strange-looking boxes to the young ones... Why, for all I know, there could be live scorpions hiding in those packages, just waiting to sting the cute little button noses of all my little friends."
  9: 0x02B9 [0x23] WAIT_FOR_DIALOG_INTERACTION
 10: 0x02BA [0x1D] PRINT_EVENT_MESSAGE(message_id=14599*)
    → "You don't know how much your kindness means to me. You're a little old to be my friend, but I'd like you to have this as a token of my appreciation."
 11: 0x02BD [0x23] WAIT_FOR_DIALOG_INTERACTION
 12: 0x02BE [0x21] END_EVENT
 13: 0x02BF [0x00] END_REQSTACK()
```
