# 17723432 - Chaupire

## Common Data

| Field            | Value                         |
|------------------|-------------------------------|
| Zone             | Northern San d'Oria (ID: 231) |
| Block Size       | 120 bytes                     |
| Total Events     | 3                             |
| References Count | 8                             |

## List of Events

| Event ID              | Entrypoint   |   Size |   Instructions |
|-----------------------|--------------|--------|----------------|
| [65535](#event-65535) | 0x0000       |      1 |              1 |
| [16](#event-16)       | 0x0001       |     28 |              5 |
| [0](#event-0)         | 0x001D       |     28 |              5 |

## DAT References (imed_data)

|   Index | Hex Value   |   Dec Value |
|---------|-------------|-------------|
|       0 | 0x1481B     |       83995 |
|       1 | 0x1528F     |       86671 |
|       2 | 0x06D5      |        1749 |
|       3 | 0x0017      |          23 |
|       4 | 0xFFFFD840  |  4294957120 |
|       5 | 0x118B      |        4491 |
|       6 | 0xFFFFFF39  |  4294967097 |
|       7 | 0x0135      |         309 |

## Events

### Event 65535

#### Metadata

| Field        | Value   |
|--------------|---------|
| Entrypoint   | 0x0000  |
| Data Size    | 1 bytes |
| Instructions | 1       |

```
      00 01 02 03 04 05 06 07  08 09 0A 0B 0C 0D 0E 0F
      -- -- -- -- -- -- -- --  -- -- -- -- -- -- -- --
0000: 00                                                .               
```

#### Opcodes

```
  0: 0x0000 [0x00] END_REQSTACK()
```

### Event 16

#### Metadata

| Field        | Value    |
|--------------|----------|
| Entrypoint   | 0x0001   |
| Data Size    | 28 bytes |
| Instructions | 5        |

```
      00 01 02 03 04 05 06 07  08 09 0A 0B 0C 0D 0E 0F
      -- -- -- -- -- -- -- --  -- -- -- -- -- -- -- --
0000:    22 00 92 01 F8 FF FF  7F 37 00 80 01 80 02 80   ".......7......
0010: 03 80 79 00 F8 FF FF 7F  04 70 0E 01 00           ..y......p...   
```

#### Opcodes

```
  0: 0x0001 [0x22] ENTITY_HIDE_FLAG(enabled=0x00)
  1: 0x0003 [0x92] EventEntity->Render.Flags3 ^= 0x01
  2: 0x0009 [0x37] UPDATE_EVENT_POSITION_AND_DIR: x=83.995*, z=86.671*, y=1.749*, direction=2.0°*
  3: 0x0012 [0x79] EventEntity looks at Claidie (ID: 17723396/0x010E7004) (Basic look)
  4: 0x001C [0x00] END_REQSTACK()
```

### Event 0

#### Metadata

| Field        | Value    |
|--------------|----------|
| Entrypoint   | 0x001D   |
| Data Size    | 28 bytes |
| Instructions | 5        |

```
      00 01 02 03 04 05 06 07  08 09 0A 0B 0C 0D 0E 0F
      -- -- -- -- -- -- -- --  -- -- -- -- -- -- -- --
0010:                                         22 00 92               "..
0020: 01 F8 FF FF 7F 37 04 80  05 80 06 80 07 80 79 00  .....7........y.
0030: F8 FF FF 7F 02 70 0E 01  00                       .....p...       
```

#### Opcodes

```
  0: 0x001D [0x22] ENTITY_HIDE_FLAG(enabled=0x00)
  1: 0x001F [0x92] EventEntity->Render.Flags3 ^= 0x01
  2: 0x0025 [0x37] UPDATE_EVENT_POSITION_AND_DIR: x=-10.176*, z=4.491*, y=-0.199*, direction=27.2°*
  3: 0x002E [0x79] EventEntity looks at Trion (ID: 17723394/0x010E7002) (Basic look)
  4: 0x0038 [0x00] END_REQSTACK()
```
