# 17723586 - Jeronne

## Common Data

| Field            | Value                         |
|------------------|-------------------------------|
| Zone             | Northern San d'Oria (ID: 231) |
| Block Size       | 152 bytes                     |
| Total Events     | 4                             |
| References Count | 12                            |

## List of Events

| Event ID                 | Entrypoint   |   Size |   Instructions |
|--------------------------|--------------|--------|----------------|
| [65535](#event-65535)    | 0x0000       |      1 |              1 |
| [689](#event-689)        | 0x0001       |      1 |              1 |
| [65535.1](#event-655351) | 0x0002       |     46 |             10 |
| [65535.2](#event-655352) | 0x0030       |     22 |              6 |

## DAT References (imed_data)

|   Index | Hex Value   |   Dec Value |
|---------|-------------|-------------|
|       0 | 0x1FB20     |      129824 |
|       1 | 0x1E90B     |      125195 |
|       2 | 0xFFFFD509  |  4294956297 |
|       3 | 0x0A99      |        2713 |
|       4 | 0x000D      |          13 |
|       5 | 0x1F5A8     |      128424 |
|       6 | 0x1EECF     |      126671 |
|       7 | 0x1F586     |      128390 |
|       8 | 0x1F1BE     |      127422 |
|       9 | 0x000A      |          10 |
|      10 | 0x21063     |      135267 |
|      11 | 0x1D428     |      119848 |

## Events

### Event 65535

#### Metadata

| Field        | Value   |
|--------------|---------|
| Entrypoint   | 0x0000  |
| Data Size    | 1 bytes |
| Instructions | 1       |

```
      00 01 02 03 04 05 06 07  08 09 0A 0B 0C 0D 0E 0F
      -- -- -- -- -- -- -- --  -- -- -- -- -- -- -- --
0000: 00                                                .               
```

#### Opcodes

```
  0: 0x0000 [0x00] END_REQSTACK()
```

### Event 689

#### Metadata

| Field        | Value   |
|--------------|---------|
| Entrypoint   | 0x0001  |
| Data Size    | 1 bytes |
| Instructions | 1       |

```
      00 01 02 03 04 05 06 07  08 09 0A 0B 0C 0D 0E 0F
      -- -- -- -- -- -- -- --  -- -- -- -- -- -- -- --
0000:    00                                              .              
```

#### Opcodes

```
  0: 0x0001 [0x00] END_REQSTACK()
```

### Event 65535.1

#### Metadata

| Field        | Value    |
|--------------|----------|
| Entrypoint   | 0x0002   |
| Data Size    | 46 bytes |
| Instructions | 10       |

```
      00 01 02 03 04 05 06 07  08 09 0A 0B 0C 0D 0E 0F
      -- -- -- -- -- -- -- --  -- -- -- -- -- -- -- --
0000:       22 00 37 00 80 01  80 02 80 03 80 32 04 80    ".7........2..
0010: 79 00 F8 FF FF 7F C1 70  0E 01 1F 00 05 80 06 80  y......p........
0020: 02 80 1F 01 1F 00 07 80  08 80 02 80 1F 01 6F 00  ..............o.
```

#### Opcodes

```
  0: 0x0002 [0x22] ENTITY_HIDE_FLAG(enabled=0x00)
  1: 0x0004 [0x37] UPDATE_EVENT_POSITION_AND_DIR: x=129.824*, z=125.195*, y=-10.999*, direction=238.4°*
  2: 0x000D [0x32] ExtData[1]->MainSpeed = 13* * 0.1
  3: 0x0010 [0x79] EventEntity looks at Narcheral (ID: 17723585/0x010E70C1) (Basic look)
  4: 0x001A [0x1F] MOVE_ENTITY: EventEntity moves to X=128.424*, Z=126.671*, Y=-10.999*
  5: 0x0022 [0x1F] MOVE_ENTITY: Update entity position (mode=1)
  6: 0x0024 [0x1F] MOVE_ENTITY: EventEntity moves to X=128.390*, Z=127.422*, Y=-10.999*
  7: 0x002C [0x1F] MOVE_ENTITY: Update entity position (mode=1)
  8: 0x002E [0x6F] WAIT_FRAME_DELAY: Yield until WaitTime reaches zero
  9: 0x002F [0x00] END_REQSTACK()
```

### Event 65535.2

#### Metadata

| Field        | Value    |
|--------------|----------|
| Entrypoint   | 0x0030   |
| Data Size    | 22 bytes |
| Instructions | 6        |

```
      00 01 02 03 04 05 06 07  08 09 0A 0B 0C 0D 0E 0F
      -- -- -- -- -- -- -- --  -- -- -- -- -- -- -- --
0030: 7B F8 FF FF 7F 1C 09 80  32 04 80 1F 00 0A 80 0B  {.......2.......
0040: 80 02 80 1F 01 00                                 ......          
```

#### Opcodes

```
  0: 0x0030 [0x7B] EventEntity stops talking
  1: 0x0035 [0x1C] WAIT(10* ticks)
  2: 0x0038 [0x32] ExtData[1]->MainSpeed = 13* * 0.1
  3: 0x003B [0x1F] MOVE_ENTITY: EventEntity moves to X=135.267*, Z=119.848*, Y=-10.999*
  4: 0x0043 [0x1F] MOVE_ENTITY: Update entity position (mode=1)
  5: 0x0045 [0x00] END_REQSTACK()
```
