# 17723645

## Common Data

| Field            | Value                         |
|------------------|-------------------------------|
| Zone             | Northern San d'Oria (ID: 231) |
| Block Size       | 88 bytes                      |
| Total Events     | 4                             |
| References Count | 6                             |

## List of Events

| Event ID                 | Entrypoint   |   Size |   Instructions |
|--------------------------|--------------|--------|----------------|
| [65535](#event-65535)    | 0x0000       |      1 |              1 |
| [74](#event-74)          | 0x0001       |      1 |              1 |
| [65535.1](#event-655351) | 0x0002       |     12 |              3 |
| [65535.2](#event-655352) | 0x000E       |     16 |              5 |

## DAT References (imed_data)

|   Index | Hex Value   |   Dec Value |
|---------|-------------|-------------|
|       0 | 0x0050      |          80 |
|       1 | 0x003C      |          60 |
|       2 | 0x000D      |          13 |
|       3 | 0xFFFD159C  |  4294776220 |
|       4 | 0x234BC     |      144572 |
|       5 | 0x2AF9      |       11001 |

## Events

### Event 65535

#### Metadata

| Field        | Value   |
|--------------|---------|
| Entrypoint   | 0x0000  |
| Data Size    | 1 bytes |
| Instructions | 1       |

```
      00 01 02 03 04 05 06 07  08 09 0A 0B 0C 0D 0E 0F
      -- -- -- -- -- -- -- --  -- -- -- -- -- -- -- --
0000: 00                                                .               
```

#### Opcodes

```
  0: 0x0000 [0x00] END_REQSTACK()
```

### Event 74

#### Metadata

| Field        | Value   |
|--------------|---------|
| Entrypoint   | 0x0001  |
| Data Size    | 1 bytes |
| Instructions | 1       |

```
      00 01 02 03 04 05 06 07  08 09 0A 0B 0C 0D 0E 0F
      -- -- -- -- -- -- -- --  -- -- -- -- -- -- -- --
0000:    00                                              .              
```

#### Opcodes

```
  0: 0x0001 [0x00] END_REQSTACK()
```

### Event 65535.1

#### Metadata

| Field        | Value    |
|--------------|----------|
| Entrypoint   | 0x0002   |
| Data Size    | 12 bytes |
| Instructions | 3        |

```
      00 01 02 03 04 05 06 07  08 09 0A 0B 0C 0D 0E 0F
      -- -- -- -- -- -- -- --  -- -- -- -- -- -- -- --
0000:       6C FD 70 0E 01 00  80 01 80 A5 01 00          l.p.........  
```

#### Opcodes

```
  0: 0x0002 [0x6C] FADE_ENTITY_COLOR(entity_id=??? (ID: 17723645/0x010E70FD), end_alpha=80*, fade_time=60*)
  1: 0x000B [0xA5] EventEntity->Flags3.BallistaTeam |= 0x08  // Set bit 3 of BallistaTeam
  2: 0x000D [0x00] END_REQSTACK()
```

### Event 65535.2

#### Metadata

| Field        | Value    |
|--------------|----------|
| Entrypoint   | 0x000E   |
| Data Size    | 16 bytes |
| Instructions | 5        |

```
      00 01 02 03 04 05 06 07  08 09 0A 0B 0C 0D 0E 0F
      -- -- -- -- -- -- -- --  -- -- -- -- -- -- -- --
0000:                                            61 00                a.
0010: 32 02 80 1F 00 03 80 04  80 05 80 1F 01 00        2.............  
```

#### Opcodes

```
  0: 0x000E [0x61] EventEntity->Render.Flags2 &= ~0x00000001
  1: 0x0010 [0x32] ExtData[1]->MainSpeed = 13* * 0.1
  2: 0x0013 [0x1F] MOVE_ENTITY: EventEntity moves to X=-191.076*, Z=144.572*, Y=11.001*
  3: 0x001B [0x1F] MOVE_ENTITY: Update entity position (mode=1)
  4: 0x001D [0x00] END_REQSTACK()
```
