# 17723566 - Eperdur

## Common Data

| Field            | Value                         |
|------------------|-------------------------------|
| Zone             | Northern San d'Oria (ID: 231) |
| Block Size       | 1928 bytes                    |
| Total Events     | 15                            |
| References Count | 66                            |

## List of Events

| Event ID                 | Entrypoint   |   Size |   Instructions |
|--------------------------|--------------|--------|----------------|
| [65535](#event-65535)    | 0x0000       |      1 |              1 |
| [1](#event-1)            | 0x0001       |     16 |              3 |
| [65535.1](#event-655351) | 0x0011       |     28 |              8 |
| [678](#event-678)        | 0x002D       |     11 |              5 |
| [679](#event-679)        | 0x0038       |    155 |             23 |
| [680](#event-680)        | 0x00D3       |    155 |             23 |
| [681](#event-681)        | 0x016E       |    171 |             29 |
| [682](#event-682)        | 0x0219       |     30 |              8 |
| [683](#event-683)        | 0x0237       |    655 |             83 |
| [684](#event-684)        | 0x04C6       |     41 |              9 |
| [685](#event-685)        | 0x04EF       |    126 |             24 |
| [686](#event-686)        | 0x056D       |     67 |             13 |
| [687](#event-687)        | 0x05B0       |    104 |             18 |
| [16](#event-16)          | 0x0618       |     18 |              4 |
| [65535.2](#event-655352) | 0x062A       |      9 |              3 |

## DAT References (imed_data)

|   Index | Hex Value   |   Dec Value |
|---------|-------------|-------------|
|       0 | 0x21407     |      136199 |
|       1 | 0x2062E     |      132654 |
|       2 | 0x0000      |           0 |
|       3 | 0x0228      |         552 |
|       4 | 0x000D      |          13 |
|       5 | 0x205BF     |      132543 |
|       6 | 0x20D72     |      134514 |
|       7 | 0x201E7     |      131559 |
|       8 | 0x209CC     |      133580 |
|       9 | 0x0FD2      |        4050 |
|      10 | 0x2F8D      |       12173 |
|      11 | 0x0019      |          25 |
|      12 | 0x2F8E      |       12174 |
|      13 | 0x2F8F      |       12175 |
|      14 | 0x2F90      |       12176 |
|      15 | 0x2F91      |       12177 |
|      16 | 0x00C9      |         201 |
|      17 | 0x2F92      |       12178 |
|      18 | 0x2F93      |       12179 |
|      19 | 0x2F94      |       12180 |
|      20 | 0x00B1      |         177 |
|      21 | 0x2F95      |       12181 |
|      22 | 0x2F96      |       12182 |
|      23 | 0x2F97      |       12183 |
|      24 | 0x2F98      |       12184 |
|      25 | 0x2F99      |       12185 |
|      26 | 0x2F9A      |       12186 |
|      27 | 0x2F9B      |       12187 |
|      28 | 0x2F9C      |       12188 |
|      29 | 0x00C8      |         200 |
|      30 | 0x0003      |           3 |
|      31 | 0x00BE      |         190 |
|      32 | 0x2F9D      |       12189 |
|      33 | 0x2F9E      |       12190 |
|      34 | 0x0005      |           5 |
|      35 | 0x001E      |          30 |
|      36 | 0x2F9F      |       12191 |
|      37 | 0x2FA0      |       12192 |
|      38 | 0x0078      |         120 |
|      39 | 0x2FA1      |       12193 |
|      40 | 0x2FA2      |       12194 |
|      41 | 0x2FA3      |       12195 |
|      42 | 0x2FA4      |       12196 |
|      43 | 0x2FA5      |       12197 |
|      44 | 0x2FA6      |       12198 |
|      45 | 0x2FA7      |       12199 |
|      46 | 0x1F95B     |      129371 |
|      47 | 0x17A04     |       96772 |
|      48 | 0xFFFFE69D  |  4294960797 |
|      49 | 0x2FA8      |       12200 |
|      50 | 0x00B3      |         179 |
|      51 | 0x2FA9      |       12201 |
|      52 | 0x2FAA      |       12202 |
|      53 | 0x2FAB      |       12203 |
|      54 | 0x2FAC      |       12204 |
|      55 | 0x2FAD      |       12205 |
|      56 | 0x2FAE      |       12206 |
|      57 | 0x2FAF      |       12207 |
|      58 | 0x2FB0      |       12208 |
|      59 | 0x2FB1      |       12209 |
|      60 | 0x2FB2      |       12210 |
|      61 | 0x2FB3      |       12211 |
|      62 | 0x1DF41     |      122689 |
|      63 | 0x1AC05     |      109573 |
|      64 | 0x09C9      |        2505 |
|      65 | 0x31BE      |       12734 |

## String References

- **12173**: I watch over our friars on retreat. They journey to the hallowed white spires of every land, to bond with the essence of Altana.
- **12174**: Ah, you have met Virnage? How does he fare? What's that? He wanted you to help restore the statue of the Goddess?
- **12175**: Hah! He has much to learn! A true friar would have the Bastokers rediscover their faith on their own.
- **12176**: But, you have helped...and for that we owe you thanks. I was going to give this to him... But here, I believe you are more deserving.
- **12177**: May Paradise open its gates to you.
- **12178**: You saw Gantineux? Tell me, how does he fare? What is that? He's studying magic, you say?
- **12179**: He has always had a penchant for research, but he relies too much on his head for answers. He must revere Altana with body and soul!
- **12180**: I am sorry for any trouble he may have caused you. Please accept this as an apology.
- **12181**: Ah, the intrepid <Player>. Word of your deeds has reached me. As such, I have a request to make of you...
- **12182**: We friars journey to the hallowed spires of every land. There we touch the heart of Altana.
- **12183**: There is word of a foul wind blowing upon the Crag of Dem in Konschtat Highlands. We believe it comes from Gusgen Mines.
- **12184**: In elder days we put wandering spirits there to rest, sealing a pact of friendship with Bastok.
- **12185**: We placed a seal there to keep the dead from waking, but it weakens. Here, take you this $3.
- **12186**: The seal was placed in a small hut deep within the mines. Attach the $3 to strengthen it.
- **12187**: That land is sacred to those who serve Altana. Should the evil winds persist, surely all of Vana'diel shall suffer.
- **12188**: Please, you would be doing us a great service.
- **12189**: You have returned! Word is that you strengthened the seal with the $3 and protected that sacred land.
- **12190**: Perhaps you feel no difference, but I can sense that the evil on the wind is greatly diminished.
- **12192**: Why, Prince Pieuje! How fares Your Highness?
- **12194**: Your Highness, an evil wind blew forth out from the mines of Gusgen. To seal it off at the source, I prepared $6.
- **12196**: It was by order of the papsque, my prince. Bring Altana's blessing to every land, so that Paradise may open its gates to all... So bade His Holiness.
- **12199**: May it so, Your Highness. Oh, and I must give my thanks to you, my child.
- **12200**: Here, take this. Normally it is given only to the most reverent of friars. You have earned it.
- **12201**: You have performed great services for us in the past. Now even greater peril draws nigh.
- **12202**: In order to extend our influence north, Prince Pieuje has ordered us to research more potent spells of white magic.
- **12203**: Thanks to Chief Cid of Bastok and his research of the Crystal Lines, we have established a new Telepoint in the Northlands.
- **12204**: We have made many copies of a certain scroll of white magic, but it seems we have lost the original.
- **12205**: Without it, we cannot create more copies. We believe that the original was brought out of Fei'Yin long ago.
- **12206**: In the days of the ancients such scrolls were common, so perhaps another can be found there.
- **12207**: Please, do what you can to locate $6.
- **12208**: Huzzah! You found $6. This is fine news, indeed.
- **12209**: I should inform you, though... The scroll was not lost; it was destroyed by one of the excommunicated.
- **12210**: He apparently harbored hatred against San d'Oria and her clergy. Truly lamentable...
- **12211**: At any rate, my friend, you deserve your just reward: a scroll of white magic, upon which is inscribed a new spell. Without your help, we could never have deciphered it.

## Events

### Event 65535

#### Metadata

| Field        | Value   |
|--------------|---------|
| Entrypoint   | 0x0000  |
| Data Size    | 1 bytes |
| Instructions | 1       |

```
      00 01 02 03 04 05 06 07  08 09 0A 0B 0C 0D 0E 0F
      -- -- -- -- -- -- -- --  -- -- -- -- -- -- -- --
0000: 00                                                .               
```

#### Opcodes

```
  0: 0x0000 [0x00] END_REQSTACK()
```

### Event 1

#### Metadata

| Field        | Value    |
|--------------|----------|
| Entrypoint   | 0x0001   |
| Data Size    | 16 bytes |
| Instructions | 3        |

```
      00 01 02 03 04 05 06 07  08 09 0A 0B 0C 0D 0E 0F
      -- -- -- -- -- -- -- --  -- -- -- -- -- -- -- --
0000:    92 01 F8 FF FF 7F 37  00 80 01 80 02 80 03 80   ......7........
0010: 00                                                .               
```

#### Opcodes

```
  0: 0x0001 [0x92] EventEntity->Render.Flags3 ^= 0x01
  1: 0x0007 [0x37] UPDATE_EVENT_POSITION_AND_DIR: x=136.199*, z=132.654*, y=0.000*, direction=48.5°*
  2: 0x0010 [0x00] END_REQSTACK()
```

### Event 65535.1

#### Metadata

| Field        | Value    |
|--------------|----------|
| Entrypoint   | 0x0011   |
| Data Size    | 28 bytes |
| Instructions | 8        |

```
      00 01 02 03 04 05 06 07  08 09 0A 0B 0C 0D 0E 0F
      -- -- -- -- -- -- -- --  -- -- -- -- -- -- -- --
0010:    32 04 80 1F 00 05 80  06 80 02 80 1F 01 1F 00   2..............
0020: 07 80 08 80 02 80 1F 01  6F 39 09 80 00           ........o9...   
```

#### Opcodes

```
  0: 0x0011 [0x32] ExtData[1]->MainSpeed = 13* * 0.1
  1: 0x0014 [0x1F] MOVE_ENTITY: EventEntity moves to X=132.543*, Z=134.514*, Y=0.000*
  2: 0x001C [0x1F] MOVE_ENTITY: Update entity position (mode=1)
  3: 0x001E [0x1F] MOVE_ENTITY: EventEntity moves to X=131.559*, Z=133.580*, Y=0.000*
  4: 0x0026 [0x1F] MOVE_ENTITY: Update entity position (mode=1)
  5: 0x0028 [0x6F] WAIT_FRAME_DELAY: Yield until WaitTime reaches zero
  6: 0x0029 [0x39] SET_ENTITY_DIRECTION(direction=22.2°*)
  7: 0x002C [0x00] END_REQSTACK()
```

### Event 678

#### Metadata

| Field        | Value    |
|--------------|----------|
| Entrypoint   | 0x002D   |
| Data Size    | 11 bytes |
| Instructions | 5        |

```
      00 01 02 03 04 05 06 07  08 09 0A 0B 0C 0D 0E 0F
      -- -- -- -- -- -- -- --  -- -- -- -- -- -- -- --
0020:                                         1E F0 FF               ...
0030: FF 7F 1D 0A 80 23 21 00                           .....#!.        
```

#### Opcodes

```
  0: 0x002D [0x1E] EventEntity looks at LocalPlayer and starts talking
  1: 0x0032 [0x1D] PRINT_EVENT_MESSAGE(message_id=12173*)
    → "I watch over our friars on retreat. They journey to the hallowed white spires of every land, to bond with the essence of Altana."
  2: 0x0035 [0x23] WAIT_FOR_DIALOG_INTERACTION
  3: 0x0036 [0x21] END_EVENT
  4: 0x0037 [0x00] END_REQSTACK()
```

### Event 679

#### Metadata

| Field        | Value     |
|--------------|-----------|
| Entrypoint   | 0x0038    |
| Data Size    | 155 bytes |
| Instructions | 23        |

```
      00 01 02 03 04 05 06 07  08 09 0A 0B 0C 0D 0E 0F
      -- -- -- -- -- -- -- --  -- -- -- -- -- -- -- --
0030:                          42 1E F0 FF FF 7F 6F 70          B.....op
0040: 5B 0B 80 F8 FF FF 7F F8  FF FF 7F 74 6C 6B 30 1D  [..........tlk0.
0050: 0C 80 23 53 F8 FF FF 7F  F8 FF FF 7F 74 6C 6B 30  ..#S........tlk0
0060: 5B 0B 80 F8 FF FF 7F F8  FF FF 7F 74 6C 6B 31 1D  [..........tlk1.
0070: 0D 80 23 53 F8 FF FF 7F  F8 FF FF 7F 74 6C 6B 31  ..#S........tlk1
0080: 5B 0B 80 F8 FF FF 7F F8  FF FF 7F 70 61 73 30 1D  [..........pas0.
0090: 0E 80 23 53 F8 FF FF 7F  F8 FF FF 7F 70 61 73 30  ..#S........pas0
00A0: 5B 0B 80 F8 FF FF 7F F8  FF FF 7F 69 6E 6F 30 1D  [..........ino0.
00B0: 0F 80 23 53 F8 FF FF 7F  F8 FF FF 7F 69 6E 6F 30  ..#S........ino0
00C0: 45 10 80 F0 FF FF 7F F0  FF FF 7F 71 73 74 63 02  E..........qstc.
00D0: 80 21 00                                          .!.             
```

#### Opcodes

```
  0: 0x0038 [0x42] SET_CLI_EVENT_CANCEL_DATA()
  1: 0x0039 [0x1E] EventEntity looks at LocalPlayer and starts talking
  2: 0x003E [0x6F] WAIT_FRAME_DELAY: Yield until WaitTime reaches zero
  3: 0x003F [0x70] WAIT_ENTITY_RENDER_FLAG: Wait while EventEntity->Render.Flags3 bit 2 is set (cancel turn if not)
  4: 0x0040 [0x5B] LOAD_EXT_SCHEDULER: Load scheduler "tlk0" with entities [EventEntity, EventEntity], work=25*
  5: 0x004F [0x1D] PRINT_EVENT_MESSAGE(message_id=12174*)
    → "Ah, you have met Virnage? How does he fare? What's that? He wanted you to help restore the statue of the Goddess?"
  6: 0x0052 [0x23] WAIT_FOR_DIALOG_INTERACTION
  7: 0x0053 [0x53] WAIT_SCHEDULER_TASK: Wait for scheduler "tlk0" with entities [EventEntity, EventEntity]
  8: 0x0060 [0x5B] LOAD_EXT_SCHEDULER: Load scheduler "tlk1" with entities [EventEntity, EventEntity], work=25*
  9: 0x006F [0x1D] PRINT_EVENT_MESSAGE(message_id=12175*)
    → "Hah! He has much to learn! A true friar would have the Bastokers rediscover their faith on their own."
 10: 0x0072 [0x23] WAIT_FOR_DIALOG_INTERACTION
 11: 0x0073 [0x53] WAIT_SCHEDULER_TASK: Wait for scheduler "tlk1" with entities [EventEntity, EventEntity]
 12: 0x0080 [0x5B] LOAD_EXT_SCHEDULER: Load scheduler "pas0" with entities [EventEntity, EventEntity], work=25*
 13: 0x008F [0x1D] PRINT_EVENT_MESSAGE(message_id=12176*)
    → "But, you have helped...and for that we owe you thanks. I was going to give this to him... But here, I believe you are more deserving."
 14: 0x0092 [0x23] WAIT_FOR_DIALOG_INTERACTION
 15: 0x0093 [0x53] WAIT_SCHEDULER_TASK: Wait for scheduler "pas0" with entities [EventEntity, EventEntity]
 16: 0x00A0 [0x5B] LOAD_EXT_SCHEDULER: Load scheduler "ino0" with entities [EventEntity, EventEntity], work=25*
 17: 0x00AF [0x1D] PRINT_EVENT_MESSAGE(message_id=12177*)
    → "May Paradise open its gates to you."
 18: 0x00B2 [0x23] WAIT_FOR_DIALOG_INTERACTION
 19: 0x00B3 [0x53] WAIT_SCHEDULER_TASK: Wait for scheduler "ino0" with entities [EventEntity, EventEntity]
 20: 0x00C0 [0x45] LOAD_SCHEDULED_TASK: Load scheduler "qstc" with entities [LocalPlayer, LocalPlayer], work=[201*, 0*]
 21: 0x00D1 [0x21] END_EVENT
 22: 0x00D2 [0x00] END_REQSTACK()
```

### Event 680

#### Metadata

| Field        | Value     |
|--------------|-----------|
| Entrypoint   | 0x00D3    |
| Data Size    | 155 bytes |
| Instructions | 23        |

```
      00 01 02 03 04 05 06 07  08 09 0A 0B 0C 0D 0E 0F
      -- -- -- -- -- -- -- --  -- -- -- -- -- -- -- --
00D0:          42 1E F0 FF FF  7F 6F 70 5B 0B 80 F8 FF     B.....op[....
00E0: FF 7F F8 FF FF 7F 74 68  6B 31 1D 11 80 23 53 F8  ......thk1...#S.
00F0: FF FF 7F F8 FF FF 7F 74  68 6B 31 5B 0B 80 F8 FF  .......thk1[....
0100: FF 7F F8 FF FF 7F 74 68  6B 32 1D 12 80 23 53 F8  ......thk2...#S.
0110: FF FF 7F F8 FF FF 7F 74  68 6B 32 5B 0B 80 F8 FF  .......thk2[....
0120: FF 7F F8 FF FF 7F 70 61  73 30 1D 13 80 23 53 F8  ......pas0...#S.
0130: FF FF 7F F8 FF FF 7F 70  61 73 30 5B 0B 80 F8 FF  .......pas0[....
0140: FF 7F F8 FF FF 7F 69 6E  6F 30 1D 0F 80 23 53 F8  ......ino0...#S.
0150: FF FF 7F F8 FF FF 7F 69  6E 6F 30 45 10 80 F0 FF  .......ino0E....
0160: FF 7F F0 FF FF 7F 71 73  74 63 02 80 21 00        ......qstc..!.  
```

#### Opcodes

```
  0: 0x00D3 [0x42] SET_CLI_EVENT_CANCEL_DATA()
  1: 0x00D4 [0x1E] EventEntity looks at LocalPlayer and starts talking
  2: 0x00D9 [0x6F] WAIT_FRAME_DELAY: Yield until WaitTime reaches zero
  3: 0x00DA [0x70] WAIT_ENTITY_RENDER_FLAG: Wait while EventEntity->Render.Flags3 bit 2 is set (cancel turn if not)
  4: 0x00DB [0x5B] LOAD_EXT_SCHEDULER: Load scheduler "thk1" with entities [EventEntity, EventEntity], work=25*
  5: 0x00EA [0x1D] PRINT_EVENT_MESSAGE(message_id=12178*)
    → "You saw Gantineux? Tell me, how does he fare? What is that? He's studying magic, you say?"
  6: 0x00ED [0x23] WAIT_FOR_DIALOG_INTERACTION
  7: 0x00EE [0x53] WAIT_SCHEDULER_TASK: Wait for scheduler "thk1" with entities [EventEntity, EventEntity]
  8: 0x00FB [0x5B] LOAD_EXT_SCHEDULER: Load scheduler "thk2" with entities [EventEntity, EventEntity], work=25*
  9: 0x010A [0x1D] PRINT_EVENT_MESSAGE(message_id=12179*)
    → "He has always had a penchant for research, but he relies too much on his head for answers. He must revere Altana with body and soul!"
 10: 0x010D [0x23] WAIT_FOR_DIALOG_INTERACTION
 11: 0x010E [0x53] WAIT_SCHEDULER_TASK: Wait for scheduler "thk2" with entities [EventEntity, EventEntity]
 12: 0x011B [0x5B] LOAD_EXT_SCHEDULER: Load scheduler "pas0" with entities [EventEntity, EventEntity], work=25*
 13: 0x012A [0x1D] PRINT_EVENT_MESSAGE(message_id=12180*)
    → "I am sorry for any trouble he may have caused you. Please accept this as an apology."
 14: 0x012D [0x23] WAIT_FOR_DIALOG_INTERACTION
 15: 0x012E [0x53] WAIT_SCHEDULER_TASK: Wait for scheduler "pas0" with entities [EventEntity, EventEntity]
 16: 0x013B [0x5B] LOAD_EXT_SCHEDULER: Load scheduler "ino0" with entities [EventEntity, EventEntity], work=25*
 17: 0x014A [0x1D] PRINT_EVENT_MESSAGE(message_id=12177*)
    → "May Paradise open its gates to you."
 18: 0x014D [0x23] WAIT_FOR_DIALOG_INTERACTION
 19: 0x014E [0x53] WAIT_SCHEDULER_TASK: Wait for scheduler "ino0" with entities [EventEntity, EventEntity]
 20: 0x015B [0x45] LOAD_SCHEDULED_TASK: Load scheduler "qstc" with entities [LocalPlayer, LocalPlayer], work=[201*, 0*]
 21: 0x016C [0x21] END_EVENT
 22: 0x016D [0x00] END_REQSTACK()
```

### Event 681

#### Metadata

| Field        | Value     |
|--------------|-----------|
| Entrypoint   | 0x016E    |
| Data Size    | 171 bytes |
| Instructions | 29        |

```
      00 01 02 03 04 05 06 07  08 09 0A 0B 0C 0D 0E 0F
      -- -- -- -- -- -- -- --  -- -- -- -- -- -- -- --
0160:                                            1E F0                ..
0170: FF FF 7F 03 09 10 14 80  1D 15 80 23 5B 0B 80 F8  ...........#[...
0180: FF FF 7F F8 FF FF 7F 74  68 6B 31 1D 16 80 23 1D  .......thk1...#.
0190: 17 80 23 53 F8 FF FF 7F  F8 FF FF 7F 74 68 6B 31  ..#S........thk1
01A0: 5B 0B 80 F8 FF FF 7F F8  FF FF 7F 74 68 6B 32 1D  [..........thk2.
01B0: 18 80 23 53 F8 FF FF 7F  F8 FF FF 7F 74 68 6B 32  ..#S........thk2
01C0: 5B 0B 80 F8 FF FF 7F F8  FF FF 7F 70 61 73 30 1D  [..........pas0.
01D0: 19 80 23 1D 1A 80 23 53  F8 FF FF 7F F8 FF FF 7F  ..#...#S........
01E0: 70 61 73 30 5B 0B 80 F8  FF FF 7F F8 FF FF 7F 74  pas0[..........t
01F0: 6C 6B 30 1D 1B 80 23 53  F8 FF FF 7F F8 FF FF 7F  lk0...#S........
0200: 74 6C 6B 30 5B 0B 80 F8  FF FF 7F F8 FF FF 7F 74  tlk0[..........t
0210: 6C 6B 31 1D 1C 80 23 21  00                       lk1...#!.       
```

#### Opcodes

```
  0: 0x016E [0x1E] EventEntity looks at LocalPlayer and starts talking
  1: 0x0173 [0x03] Work_Zone[9] = 177*
  2: 0x0178 [0x1D] PRINT_EVENT_MESSAGE(message_id=12181*)
    → "Ah, the intrepid <Player>. Word of your deeds has reached me. As such, I have a request to make of you..."
  3: 0x017B [0x23] WAIT_FOR_DIALOG_INTERACTION
  4: 0x017C [0x5B] LOAD_EXT_SCHEDULER: Load scheduler "thk1" with entities [EventEntity, EventEntity], work=25*
  5: 0x018B [0x1D] PRINT_EVENT_MESSAGE(message_id=12182*)
    → "We friars journey to the hallowed spires of every land. There we touch the heart of Altana."
  6: 0x018E [0x23] WAIT_FOR_DIALOG_INTERACTION
  7: 0x018F [0x1D] PRINT_EVENT_MESSAGE(message_id=12183*)
    → "There is word of a foul wind blowing upon the Crag of Dem in Konschtat Highlands. We believe it comes from Gusgen Mines."
  8: 0x0192 [0x23] WAIT_FOR_DIALOG_INTERACTION
  9: 0x0193 [0x53] WAIT_SCHEDULER_TASK: Wait for scheduler "thk1" with entities [EventEntity, EventEntity]
 10: 0x01A0 [0x5B] LOAD_EXT_SCHEDULER: Load scheduler "thk2" with entities [EventEntity, EventEntity], work=25*
 11: 0x01AF [0x1D] PRINT_EVENT_MESSAGE(message_id=12184*)
    → "In elder days we put wandering spirits there to rest, sealing a pact of friendship with Bastok."
 12: 0x01B2 [0x23] WAIT_FOR_DIALOG_INTERACTION
 13: 0x01B3 [0x53] WAIT_SCHEDULER_TASK: Wait for scheduler "thk2" with entities [EventEntity, EventEntity]
 14: 0x01C0 [0x5B] LOAD_EXT_SCHEDULER: Load scheduler "pas0" with entities [EventEntity, EventEntity], work=25*
 15: 0x01CF [0x1D] PRINT_EVENT_MESSAGE(message_id=12185*)
    → "We placed a seal there to keep the dead from waking, but it weakens. Here, take you this $3."
 16: 0x01D2 [0x23] WAIT_FOR_DIALOG_INTERACTION
 17: 0x01D3 [0x1D] PRINT_EVENT_MESSAGE(message_id=12186*)
    → "The seal was placed in a small hut deep within the mines. Attach the $3 to strengthen it."
 18: 0x01D6 [0x23] WAIT_FOR_DIALOG_INTERACTION
 19: 0x01D7 [0x53] WAIT_SCHEDULER_TASK: Wait for scheduler "pas0" with entities [EventEntity, EventEntity]
 20: 0x01E4 [0x5B] LOAD_EXT_SCHEDULER: Load scheduler "tlk0" with entities [EventEntity, EventEntity], work=25*
 21: 0x01F3 [0x1D] PRINT_EVENT_MESSAGE(message_id=12187*)
    → "That land is sacred to those who serve Altana. Should the evil winds persist, surely all of Vana'diel shall suffer."
 22: 0x01F6 [0x23] WAIT_FOR_DIALOG_INTERACTION
 23: 0x01F7 [0x53] WAIT_SCHEDULER_TASK: Wait for scheduler "tlk0" with entities [EventEntity, EventEntity]
 24: 0x0204 [0x5B] LOAD_EXT_SCHEDULER: Load scheduler "tlk1" with entities [EventEntity, EventEntity], work=25*
 25: 0x0213 [0x1D] PRINT_EVENT_MESSAGE(message_id=12188*)
    → "Please, you would be doing us a great service."
 26: 0x0216 [0x23] WAIT_FOR_DIALOG_INTERACTION
 27: 0x0217 [0x21] END_EVENT
 28: 0x0218 [0x00] END_REQSTACK()
```

### Event 682

#### Metadata

| Field        | Value    |
|--------------|----------|
| Entrypoint   | 0x0219   |
| Data Size    | 30 bytes |
| Instructions | 8        |

```
      00 01 02 03 04 05 06 07  08 09 0A 0B 0C 0D 0E 0F
      -- -- -- -- -- -- -- --  -- -- -- -- -- -- -- --
0210:                             1E F0 FF FF 7F 1D 1B           .......
0220: 80 23 5B 0B 80 F8 FF FF  7F F8 FF FF 7F 74 6C 6B  .#[..........tlk
0230: 30 1D 1C 80 23 21 00                              0...#!.         
```

#### Opcodes

```
  0: 0x0219 [0x1E] EventEntity looks at LocalPlayer and starts talking
  1: 0x021E [0x1D] PRINT_EVENT_MESSAGE(message_id=12187*)
    → "That land is sacred to those who serve Altana. Should the evil winds persist, surely all of Vana'diel shall suffer."
  2: 0x0221 [0x23] WAIT_FOR_DIALOG_INTERACTION
  3: 0x0222 [0x5B] LOAD_EXT_SCHEDULER: Load scheduler "tlk0" with entities [EventEntity, EventEntity], work=25*
  4: 0x0231 [0x1D] PRINT_EVENT_MESSAGE(message_id=12188*)
    → "Please, you would be doing us a great service."
  5: 0x0234 [0x23] WAIT_FOR_DIALOG_INTERACTION
  6: 0x0235 [0x21] END_EVENT
  7: 0x0236 [0x00] END_REQSTACK()
```

### Event 683

#### Metadata

| Field        | Value     |
|--------------|-----------|
| Entrypoint   | 0x0237    |
| Data Size    | 655 bytes |
| Instructions | 83        |

```
      00 01 02 03 04 05 06 07  08 09 0A 0B 0C 0D 0E 0F
      -- -- -- -- -- -- -- --  -- -- -- -- -- -- -- --
0230:                      42  03 09 10 14 80 45 1D 80         B.....E..
0240: F8 FF FF 7F F8 FF FF 7F  66 64 6F 31 02 80 55 1D  ........fdo1..U.
0250: 80 F8 FF FF 7F F8 FF FF  7F 66 64 6F 31 38 1E 80  .........fdo18..
0260: 46 01 29 0A F0 FF FF 7F  43 45 1F 80 F8 FF FF 7F  F.).....CE......
0270: F8 FF FF 7F 73 30 30 37  02 80 45 1D 80 F8 FF FF  ....s007..E.....
0280: 7F F8 FF FF 7F 66 64 69  31 02 80 5B 0B 80 F8 FF  .....fdi1..[....
0290: FF 7F F8 FF FF 7F 74 6C  6B 30 1D 20 80 23 53 F8  ......tlk0. .#S.
02A0: FF FF 7F F8 FF FF 7F 74  6C 6B 30 5B 0B 80 F8 FF  .......tlk0[....
02B0: FF 7F F8 FF FF 7F 74 6C  6B 31 1D 21 80 23 27 0A  ......tlk1.!.#'.
02C0: 03 70 0E 01 27 1C 22 80  1E 03 70 0E 01 1C 23 80  .p..'."...p...#.
02D0: 45 1F 80 F8 FF FF 7F F8  FF FF 7F 73 30 30 38 02  E..........s008.
02E0: 80 2B 03 70 0E 01 24 80  23 6F 70 5B 0B 80 F8 FF  .+.p..$.#op[....
02F0: FF 7F F8 FF FF 7F 74 68  6B 31 1D 25 80 23 53 F8  ......thk1.%.#S.
0300: FF FF 7F F8 FF FF 7F 74  68 6B 31 5B 0B 80 F8 FF  .......thk1[....
0310: FF 7F F8 FF FF 7F 74 68  6B 32 5B 26 80 03 70 0E  ......thk2[&..p.
0320: 01 03 70 0E 01 74 6C 6B  30 2B 03 70 0E 01 27 80  ..p..tlk0+.p..'.
0330: 23 53 03 70 0E 01 03 70  0E 01 74 6C 6B 30 5B 26  #S.p...p..tlk0[&
0340: 80 03 70 0E 01 03 70 0E  01 74 6C 6B 31 5B 0B 80  ..p...p..tlk1[..
0350: F8 FF FF 7F F8 FF FF 7F  74 6C 6B 30 1D 28 80 23  ........tlk0.(.#
0360: 53 F8 FF FF 7F F8 FF FF  7F 74 6C 6B 30 5B 0B 80  S........tlk0[..
0370: F8 FF FF 7F F8 FF FF 7F  74 6C 6B 31 55 1F 80 F8  ........tlk1U...
0380: FF FF 7F F8 FF FF 7F 73  30 30 38 45 1F 80 F8 FF  .......s008E....
0390: FF 7F F8 FF FF 7F 73 30  30 39 02 80 5B 26 80 03  ......s009..[&..
03A0: 70 0E 01 03 70 0E 01 74  6C 6B 30 2B 03 70 0E 01  p...p..tlk0+.p..
03B0: 29 80 23 53 03 70 0E 01  03 70 0E 01 74 6C 6B 30  ).#S.p...p..tlk0
03C0: 5B 26 80 03 70 0E 01 03  70 0E 01 74 6C 6B 31 1D  [&..p...p..tlk1.
03D0: 2A 80 23 7B 03 70 0E 01  2B 03 70 0E 01 2B 80 23  *.#{.p..+.p..+.#
03E0: 55 1F 80 F8 FF FF 7F F8  FF FF 7F 73 30 30 39 45  U..........s009E
03F0: 1F 80 F8 FF FF 7F F8 FF  FF 7F 73 30 31 30 02 80  ..........s010..
0400: 27 0A 03 70 0E 01 28 2B  03 70 0E 01 2C 80 23 2A  '..p..(+.p..,.#*
0410: 0A 03 70 0E 01 27 0A 03  70 0E 01 29 1C 26 80 1E  ..p..'..p..).&..
0420: 03 70 0E 01 1D 2D 80 23  32 04 80 79 00 F8 FF FF  .p...-.#2..y....
0430: 7F F0 FF FF 7F 1F 00 2E  80 2F 80 30 80 1F 01 6F  ........./.0...o
0440: 5B 0B 80 F8 FF FF 7F F8  FF FF 7F 70 61 73 30 1D  [..........pas0.
0450: 31 80 23 53 F8 FF FF 7F  F8 FF FF 7F 70 61 73 30  1.#S........pas0
0460: 5B 0B 80 F8 FF FF 7F F8  FF FF 7F 69 6E 6F 30 1D  [..........ino0.
0470: 0F 80 23 45 1D 80 F8 FF  FF 7F F8 FF FF 7F 66 64  ..#E..........fd
0480: 6F 31 02 80 55 1D 80 F8  FF FF 7F F8 FF FF 7F 66  o1..U..........f
0490: 64 6F 31 53 F8 FF FF 7F  F8 FF FF 7F 69 6E 6F 30  do1S........ino0
04A0: 46 00 45 10 80 F0 FF FF  7F F0 FF FF 7F 71 73 74  F.E..........qst
04B0: 63 02 80 45 1D 80 F8 FF  FF 7F F8 FF FF 7F 66 64  c..E..........fd
04C0: 69 31 02 80 21 00                                 i1..!.          
```

#### Opcodes

```
  0: 0x0237 [0x42] SET_CLI_EVENT_CANCEL_DATA()
  1: 0x0238 [0x03] Work_Zone[9] = 177*
  2: 0x023D [0x45] LOAD_SCHEDULED_TASK: Load scheduler "fdo1" with entities [EventEntity, EventEntity], work=[200*, 0*]
  3: 0x024E [0x55] WAIT_LOAD_SCHEDULER: Wait for scheduler "fdo1" with entities [EventEntity, EventEntity], work=200*
  4: 0x025D [0x38] SET_CLIENT_EVENT_MODE(mode=3*)
  5: 0x0260 [0x46] CAMERA_CONTROL: Disable user control
  6: 0x0262 [0x29] REQ_SET_WAIT(priority=0x0A, entity_id=LocalPlayer, tag_num=0x43)
  7: 0x0269 [0x45] LOAD_SCHEDULED_TASK: Load scheduler "s007" with entities [EventEntity, EventEntity], work=[190*, 0*]
  8: 0x027A [0x45] LOAD_SCHEDULED_TASK: Load scheduler "fdi1" with entities [EventEntity, EventEntity], work=[200*, 0*]
  9: 0x028B [0x5B] LOAD_EXT_SCHEDULER: Load scheduler "tlk0" with entities [EventEntity, EventEntity], work=25*
 10: 0x029A [0x1D] PRINT_EVENT_MESSAGE(message_id=12189*)
    → "You have returned! Word is that you strengthened the seal with the $3 and protected that sacred land."
 11: 0x029D [0x23] WAIT_FOR_DIALOG_INTERACTION
 12: 0x029E [0x53] WAIT_SCHEDULER_TASK: Wait for scheduler "tlk0" with entities [EventEntity, EventEntity]
 13: 0x02AB [0x5B] LOAD_EXT_SCHEDULER: Load scheduler "tlk1" with entities [EventEntity, EventEntity], work=25*
 14: 0x02BA [0x1D] PRINT_EVENT_MESSAGE(message_id=12190*)
    → "Perhaps you feel no difference, but I can sense that the evil on the wind is greatly diminished."
 15: 0x02BD [0x23] WAIT_FOR_DIALOG_INTERACTION
 16: 0x02BE [0x27] REQ_SET(priority=0x0A, entity_id=Pieuje (ID: 17723395/0x010E7003), tag_num=0x27)
 17: 0x02C5 [0x1C] WAIT(5* ticks)
 18: 0x02C8 [0x1E] EventEntity looks at Pieuje (ID: 17723395/0x010E7003) and starts talking
 19: 0x02CD [0x1C] WAIT(30* ticks)
 20: 0x02D0 [0x45] LOAD_SCHEDULED_TASK: Load scheduler "s008" with entities [EventEntity, EventEntity], work=[190*, 0*]
 21: 0x02E1 [0x2B] Pieuje (ID: 17723395/0x010E7003) [12191*]:
    → "How now, Eperdur? Often do you fraternize with adventurers of late!"
 22: 0x02E8 [0x23] WAIT_FOR_DIALOG_INTERACTION
 23: 0x02E9 [0x6F] WAIT_FRAME_DELAY: Yield until WaitTime reaches zero
 24: 0x02EA [0x70] WAIT_ENTITY_RENDER_FLAG: Wait while EventEntity->Render.Flags3 bit 2 is set (cancel turn if not)
 25: 0x02EB [0x5B] LOAD_EXT_SCHEDULER: Load scheduler "thk1" with entities [EventEntity, EventEntity], work=25*
 26: 0x02FA [0x1D] PRINT_EVENT_MESSAGE(message_id=12192*)
    → "Why, Prince Pieuje! How fares Your Highness?"
 27: 0x02FD [0x23] WAIT_FOR_DIALOG_INTERACTION
 28: 0x02FE [0x53] WAIT_SCHEDULER_TASK: Wait for scheduler "thk1" with entities [EventEntity, EventEntity]
 29: 0x030B [0x5B] LOAD_EXT_SCHEDULER: Load scheduler "thk2" with entities [EventEntity, EventEntity], work=25*
 30: 0x031A [0x5B] LOAD_EXT_SCHEDULER: Load scheduler "tlk0" with entities [Pieuje (ID: 17723395/0x010E7003), Pieuje (ID: 17723395/0x010E7003)], work=120*
 31: 0x0329 [0x2B] Pieuje (ID: 17723395/0x010E7003) [12193*]:
    → "Save the formalities. What did you ask of this adventurer?"
 32: 0x0330 [0x23] WAIT_FOR_DIALOG_INTERACTION
 33: 0x0331 [0x53] WAIT_SCHEDULER_TASK: Wait for scheduler "tlk0" with entities [Pieuje (ID: 17723395/0x010E7003), Pieuje (ID: 17723395/0x010E7003)]
 34: 0x033E [0x5B] LOAD_EXT_SCHEDULER: Load scheduler "tlk1" with entities [Pieuje (ID: 17723395/0x010E7003), Pieuje (ID: 17723395/0x010E7003)], work=120*
 35: 0x034D [0x5B] LOAD_EXT_SCHEDULER: Load scheduler "tlk0" with entities [EventEntity, EventEntity], work=25*
 36: 0x035C [0x1D] PRINT_EVENT_MESSAGE(message_id=12194*)
    → "Your Highness, an evil wind blew forth out from the mines of Gusgen. To seal it off at the source, I prepared $6."
 37: 0x035F [0x23] WAIT_FOR_DIALOG_INTERACTION
 38: 0x0360 [0x53] WAIT_SCHEDULER_TASK: Wait for scheduler "tlk0" with entities [EventEntity, EventEntity]
 39: 0x036D [0x5B] LOAD_EXT_SCHEDULER: Load scheduler "tlk1" with entities [EventEntity, EventEntity], work=25*
 40: 0x037C [0x55] WAIT_LOAD_SCHEDULER: Wait for scheduler "s008" with entities [EventEntity, EventEntity], work=190*
 41: 0x038B [0x45] LOAD_SCHEDULED_TASK: Load scheduler "s009" with entities [EventEntity, EventEntity], work=[190*, 0*]
 42: 0x039C [0x5B] LOAD_EXT_SCHEDULER: Load scheduler "tlk0" with entities [Pieuje (ID: 17723395/0x010E7003), Pieuje (ID: 17723395/0x010E7003)], work=120*
 43: 0x03AB [0x2B] Pieuje (ID: 17723395/0x010E7003) [12195*]:
    → "I see... But should not such things be left to Bastok? I see no need for our clergy to--"
 44: 0x03B2 [0x23] WAIT_FOR_DIALOG_INTERACTION
 45: 0x03B3 [0x53] WAIT_SCHEDULER_TASK: Wait for scheduler "tlk0" with entities [Pieuje (ID: 17723395/0x010E7003), Pieuje (ID: 17723395/0x010E7003)]
 46: 0x03C0 [0x5B] LOAD_EXT_SCHEDULER: Load scheduler "tlk1" with entities [Pieuje (ID: 17723395/0x010E7003), Pieuje (ID: 17723395/0x010E7003)], work=120*
 47: 0x03CF [0x1D] PRINT_EVENT_MESSAGE(message_id=12196*)
    → "It was by order of the papsque, my prince. Bring Altana's blessing to every land, so that Paradise may open its gates to all... So bade His Holiness."
 48: 0x03D2 [0x23] WAIT_FOR_DIALOG_INTERACTION
 49: 0x03D3 [0x7B] Pieuje (ID: 17723395/0x010E7003) stops talking
 50: 0x03D8 [0x2B] Pieuje (ID: 17723395/0x010E7003) [12197*]:
    → "I see. Papsque Shamonde speaks wisdom, as always. Her blessing to every land, indeed..."
 51: 0x03DF [0x23] WAIT_FOR_DIALOG_INTERACTION
 52: 0x03E0 [0x55] WAIT_LOAD_SCHEDULER: Wait for scheduler "s009" with entities [EventEntity, EventEntity], work=190*
 53: 0x03EF [0x45] LOAD_SCHEDULED_TASK: Load scheduler "s010" with entities [EventEntity, EventEntity], work=[190*, 0*]
 54: 0x0400 [0x27] REQ_SET(priority=0x0A, entity_id=Pieuje (ID: 17723395/0x010E7003), tag_num=0x28)
 55: 0x0407 [0x2B] Pieuje (ID: 17723395/0x010E7003) [12198*]:
    → "Farewell. May Paradise open its gates to us both."
 56: 0x040E [0x23] WAIT_FOR_DIALOG_INTERACTION
 57: 0x040F [0x2A] GET_REQ_LEVEL(level=10, entity_id=Pieuje (ID: 17723395/0x010E7003))
 58: 0x0415 [0x27] REQ_SET(priority=0x0A, entity_id=Pieuje (ID: 17723395/0x010E7003), tag_num=0x29)
 59: 0x041C [0x1C] WAIT(120* ticks)
 60: 0x041F [0x1E] EventEntity looks at Pieuje (ID: 17723395/0x010E7003) and starts talking
 61: 0x0424 [0x1D] PRINT_EVENT_MESSAGE(message_id=12199*)
    → "May it so, Your Highness. Oh, and I must give my thanks to you, my child."
 62: 0x0427 [0x23] WAIT_FOR_DIALOG_INTERACTION
 63: 0x0428 [0x32] ExtData[1]->MainSpeed = 13* * 0.1
 64: 0x042B [0x79] EventEntity looks at LocalPlayer (Basic look)
 65: 0x0435 [0x1F] MOVE_ENTITY: EventEntity moves to X=129.371*, Z=96.772*, Y=-6.499*
 66: 0x043D [0x1F] MOVE_ENTITY: Update entity position (mode=1)
 67: 0x043F [0x6F] WAIT_FRAME_DELAY: Yield until WaitTime reaches zero
 68: 0x0440 [0x5B] LOAD_EXT_SCHEDULER: Load scheduler "pas0" with entities [EventEntity, EventEntity], work=25*
 69: 0x044F [0x1D] PRINT_EVENT_MESSAGE(message_id=12200*)
    → "Here, take this. Normally it is given only to the most reverent of friars. You have earned it."
 70: 0x0452 [0x23] WAIT_FOR_DIALOG_INTERACTION
 71: 0x0453 [0x53] WAIT_SCHEDULER_TASK: Wait for scheduler "pas0" with entities [EventEntity, EventEntity]
 72: 0x0460 [0x5B] LOAD_EXT_SCHEDULER: Load scheduler "ino0" with entities [EventEntity, EventEntity], work=25*
 73: 0x046F [0x1D] PRINT_EVENT_MESSAGE(message_id=12177*)
    → "May Paradise open its gates to you."
 74: 0x0472 [0x23] WAIT_FOR_DIALOG_INTERACTION
 75: 0x0473 [0x45] LOAD_SCHEDULED_TASK: Load scheduler "fdo1" with entities [EventEntity, EventEntity], work=[200*, 0*]
 76: 0x0484 [0x55] WAIT_LOAD_SCHEDULER: Wait for scheduler "fdo1" with entities [EventEntity, EventEntity], work=200*
 77: 0x0493 [0x53] WAIT_SCHEDULER_TASK: Wait for scheduler "ino0" with entities [EventEntity, EventEntity]
 78: 0x04A0 [0x46] CAMERA_CONTROL: Restore default settings
 79: 0x04A2 [0x45] LOAD_SCHEDULED_TASK: Load scheduler "qstc" with entities [LocalPlayer, LocalPlayer], work=[201*, 0*]
 80: 0x04B3 [0x45] LOAD_SCHEDULED_TASK: Load scheduler "fdi1" with entities [EventEntity, EventEntity], work=[200*, 0*]
 81: 0x04C4 [0x21] END_EVENT
 82: 0x04C5 [0x00] END_REQSTACK()
```

### Event 684

#### Metadata

| Field        | Value    |
|--------------|----------|
| Entrypoint   | 0x04C6   |
| Data Size    | 41 bytes |
| Instructions | 9        |

```
      00 01 02 03 04 05 06 07  08 09 0A 0B 0C 0D 0E 0F
      -- -- -- -- -- -- -- --  -- -- -- -- -- -- -- --
04C0:                   1E F0  FF FF 7F 6F 70 5B 0B 80        .....op[..
04D0: F8 FF FF 7F F8 FF FF 7F  69 6E 6F 30 1D 0F 80 23  ........ino0...#
04E0: 53 F8 FF FF 7F F8 FF FF  7F 69 6E 6F 30 21 00     S........ino0!. 
```

#### Opcodes

```
  0: 0x04C6 [0x1E] EventEntity looks at LocalPlayer and starts talking
  1: 0x04CB [0x6F] WAIT_FRAME_DELAY: Yield until WaitTime reaches zero
  2: 0x04CC [0x70] WAIT_ENTITY_RENDER_FLAG: Wait while EventEntity->Render.Flags3 bit 2 is set (cancel turn if not)
  3: 0x04CD [0x5B] LOAD_EXT_SCHEDULER: Load scheduler "ino0" with entities [EventEntity, EventEntity], work=25*
  4: 0x04DC [0x1D] PRINT_EVENT_MESSAGE(message_id=12177*)
    → "May Paradise open its gates to you."
  5: 0x04DF [0x23] WAIT_FOR_DIALOG_INTERACTION
  6: 0x04E0 [0x53] WAIT_SCHEDULER_TASK: Wait for scheduler "ino0" with entities [EventEntity, EventEntity]
  7: 0x04ED [0x21] END_EVENT
  8: 0x04EE [0x00] END_REQSTACK()
```

### Event 685

#### Metadata

| Field        | Value     |
|--------------|-----------|
| Entrypoint   | 0x04EF    |
| Data Size    | 126 bytes |
| Instructions | 24        |

```
      00 01 02 03 04 05 06 07  08 09 0A 0B 0C 0D 0E 0F
      -- -- -- -- -- -- -- --  -- -- -- -- -- -- -- --
04E0:                                               03                 .
04F0: 09 10 32 80 1E F0 FF FF  7F 1D 33 80 23 5B 0B 80  ..2.......3.#[..
0500: F8 FF FF 7F F8 FF FF 7F  74 6C 6B 30 1D 34 80 23  ........tlk0.4.#
0510: 1D 35 80 23 53 F8 FF FF  7F F8 FF FF 7F 74 6C 6B  .5.#S........tlk
0520: 30 5B 0B 80 F8 FF FF 7F  F8 FF FF 7F 74 6C 6B 31  0[..........tlk1
0530: 1D 36 80 23 1D 37 80 23  5B 0B 80 F8 FF FF 7F F8  .6.#.7.#[.......
0540: FF FF 7F 74 68 6B 31 1D  38 80 23 53 F8 FF FF 7F  ...thk1.8.#S....
0550: F8 FF FF 7F 74 68 6B 31  5B 0B 80 F8 FF FF 7F F8  ....thk1[.......
0560: FF FF 7F 74 68 6B 32 1D  39 80 23 21 00           ...thk2.9.#!.   
```

#### Opcodes

```
  0: 0x04EF [0x03] Work_Zone[9] = 179*
  1: 0x04F4 [0x1E] EventEntity looks at LocalPlayer and starts talking
  2: 0x04F9 [0x1D] PRINT_EVENT_MESSAGE(message_id=12201*)
    → "You have performed great services for us in the past. Now even greater peril draws nigh."
  3: 0x04FC [0x23] WAIT_FOR_DIALOG_INTERACTION
  4: 0x04FD [0x5B] LOAD_EXT_SCHEDULER: Load scheduler "tlk0" with entities [EventEntity, EventEntity], work=25*
  5: 0x050C [0x1D] PRINT_EVENT_MESSAGE(message_id=12202*)
    → "In order to extend our influence north, Prince Pieuje has ordered us to research more potent spells of white magic."
  6: 0x050F [0x23] WAIT_FOR_DIALOG_INTERACTION
  7: 0x0510 [0x1D] PRINT_EVENT_MESSAGE(message_id=12203*)
    → "Thanks to Chief Cid of Bastok and his research of the Crystal Lines, we have established a new Telepoint in the Northlands."
  8: 0x0513 [0x23] WAIT_FOR_DIALOG_INTERACTION
  9: 0x0514 [0x53] WAIT_SCHEDULER_TASK: Wait for scheduler "tlk0" with entities [EventEntity, EventEntity]
 10: 0x0521 [0x5B] LOAD_EXT_SCHEDULER: Load scheduler "tlk1" with entities [EventEntity, EventEntity], work=25*
 11: 0x0530 [0x1D] PRINT_EVENT_MESSAGE(message_id=12204*)
    → "We have made many copies of a certain scroll of white magic, but it seems we have lost the original."
 12: 0x0533 [0x23] WAIT_FOR_DIALOG_INTERACTION
 13: 0x0534 [0x1D] PRINT_EVENT_MESSAGE(message_id=12205*)
    → "Without it, we cannot create more copies. We believe that the original was brought out of Fei'Yin long ago."
 14: 0x0537 [0x23] WAIT_FOR_DIALOG_INTERACTION
 15: 0x0538 [0x5B] LOAD_EXT_SCHEDULER: Load scheduler "thk1" with entities [EventEntity, EventEntity], work=25*
 16: 0x0547 [0x1D] PRINT_EVENT_MESSAGE(message_id=12206*)
    → "In the days of the ancients such scrolls were common, so perhaps another can be found there."
 17: 0x054A [0x23] WAIT_FOR_DIALOG_INTERACTION
 18: 0x054B [0x53] WAIT_SCHEDULER_TASK: Wait for scheduler "thk1" with entities [EventEntity, EventEntity]
 19: 0x0558 [0x5B] LOAD_EXT_SCHEDULER: Load scheduler "thk2" with entities [EventEntity, EventEntity], work=25*
 20: 0x0567 [0x1D] PRINT_EVENT_MESSAGE(message_id=12207*)
    → "Please, do what you can to locate $6."
 21: 0x056A [0x23] WAIT_FOR_DIALOG_INTERACTION
 22: 0x056B [0x21] END_EVENT
 23: 0x056C [0x00] END_REQSTACK()
```

### Event 686

#### Metadata

| Field        | Value    |
|--------------|----------|
| Entrypoint   | 0x056D   |
| Data Size    | 67 bytes |
| Instructions | 13       |

```
      00 01 02 03 04 05 06 07  08 09 0A 0B 0C 0D 0E 0F
      -- -- -- -- -- -- -- --  -- -- -- -- -- -- -- --
0560:                                         03 09 10               ...
0570: 32 80 1E F0 FF FF 7F 1D  37 80 23 5B 0B 80 F8 FF  2.......7.#[....
0580: FF 7F F8 FF FF 7F 74 68  6B 31 1D 38 80 23 53 F8  ......thk1.8.#S.
0590: FF FF 7F F8 FF FF 7F 74  68 6B 31 5B 0B 80 F8 FF  .......thk1[....
05A0: FF 7F F8 FF FF 7F 74 68  6B 32 1D 39 80 23 21 00  ......thk2.9.#!.
```

#### Opcodes

```
  0: 0x056D [0x03] Work_Zone[9] = 179*
  1: 0x0572 [0x1E] EventEntity looks at LocalPlayer and starts talking
  2: 0x0577 [0x1D] PRINT_EVENT_MESSAGE(message_id=12205*)
    → "Without it, we cannot create more copies. We believe that the original was brought out of Fei'Yin long ago."
  3: 0x057A [0x23] WAIT_FOR_DIALOG_INTERACTION
  4: 0x057B [0x5B] LOAD_EXT_SCHEDULER: Load scheduler "thk1" with entities [EventEntity, EventEntity], work=25*
  5: 0x058A [0x1D] PRINT_EVENT_MESSAGE(message_id=12206*)
    → "In the days of the ancients such scrolls were common, so perhaps another can be found there."
  6: 0x058D [0x23] WAIT_FOR_DIALOG_INTERACTION
  7: 0x058E [0x53] WAIT_SCHEDULER_TASK: Wait for scheduler "thk1" with entities [EventEntity, EventEntity]
  8: 0x059B [0x5B] LOAD_EXT_SCHEDULER: Load scheduler "thk2" with entities [EventEntity, EventEntity], work=25*
  9: 0x05AA [0x1D] PRINT_EVENT_MESSAGE(message_id=12207*)
    → "Please, do what you can to locate $6."
 10: 0x05AD [0x23] WAIT_FOR_DIALOG_INTERACTION
 11: 0x05AE [0x21] END_EVENT
 12: 0x05AF [0x00] END_REQSTACK()
```

### Event 687

#### Metadata

| Field        | Value     |
|--------------|-----------|
| Entrypoint   | 0x05B0    |
| Data Size    | 104 bytes |
| Instructions | 18        |

```
      00 01 02 03 04 05 06 07  08 09 0A 0B 0C 0D 0E 0F
      -- -- -- -- -- -- -- --  -- -- -- -- -- -- -- --
05B0: 42 03 09 10 32 80 1E F0  FF FF 7F 1D 3A 80 23 5B  B...2.......:.#[
05C0: 0B 80 F8 FF FF 7F F8 FF  FF 7F 74 6C 6B 30 1D 3B  ..........tlk0.;
05D0: 80 23 53 F8 FF FF 7F F8  FF FF 7F 74 6C 6B 30 5B  .#S........tlk0[
05E0: 0B 80 F8 FF FF 7F F8 FF  FF 7F 74 6C 6B 31 1D 3C  ..........tlk1.<
05F0: 80 23 5B 0B 80 F8 FF FF  7F F8 FF FF 7F 70 61 73  .#[..........pas
0600: 30 1D 3D 80 23 45 10 80  F0 FF FF 7F F0 FF FF 7F  0.=.#E..........
0610: 71 73 74 63 02 80 21 00                           qstc..!.        
```

#### Opcodes

```
  0: 0x05B0 [0x42] SET_CLI_EVENT_CANCEL_DATA()
  1: 0x05B1 [0x03] Work_Zone[9] = 179*
  2: 0x05B6 [0x1E] EventEntity looks at LocalPlayer and starts talking
  3: 0x05BB [0x1D] PRINT_EVENT_MESSAGE(message_id=12208*)
    → "Huzzah! You found $6. This is fine news, indeed."
  4: 0x05BE [0x23] WAIT_FOR_DIALOG_INTERACTION
  5: 0x05BF [0x5B] LOAD_EXT_SCHEDULER: Load scheduler "tlk0" with entities [EventEntity, EventEntity], work=25*
  6: 0x05CE [0x1D] PRINT_EVENT_MESSAGE(message_id=12209*)
    → "I should inform you, though... The scroll was not lost; it was destroyed by one of the excommunicated."
  7: 0x05D1 [0x23] WAIT_FOR_DIALOG_INTERACTION
  8: 0x05D2 [0x53] WAIT_SCHEDULER_TASK: Wait for scheduler "tlk0" with entities [EventEntity, EventEntity]
  9: 0x05DF [0x5B] LOAD_EXT_SCHEDULER: Load scheduler "tlk1" with entities [EventEntity, EventEntity], work=25*
 10: 0x05EE [0x1D] PRINT_EVENT_MESSAGE(message_id=12210*)
    → "He apparently harbored hatred against San d'Oria and her clergy. Truly lamentable..."
 11: 0x05F1 [0x23] WAIT_FOR_DIALOG_INTERACTION
 12: 0x05F2 [0x5B] LOAD_EXT_SCHEDULER: Load scheduler "pas0" with entities [EventEntity, EventEntity], work=25*
 13: 0x0601 [0x1D] PRINT_EVENT_MESSAGE(message_id=12211*)
    → "At any rate, my friend, you deserve your just reward: a scroll of white magic, upon which is inscribed a new spell. Without your help, we could never have deciphered it."
 14: 0x0604 [0x23] WAIT_FOR_DIALOG_INTERACTION
 15: 0x0605 [0x45] LOAD_SCHEDULED_TASK: Load scheduler "qstc" with entities [LocalPlayer, LocalPlayer], work=[201*, 0*]
 16: 0x0616 [0x21] END_EVENT
 17: 0x0617 [0x00] END_REQSTACK()
```

### Event 16

#### Metadata

| Field        | Value    |
|--------------|----------|
| Entrypoint   | 0x0618   |
| Data Size    | 18 bytes |
| Instructions | 4        |

```
      00 01 02 03 04 05 06 07  08 09 0A 0B 0C 0D 0E 0F
      -- -- -- -- -- -- -- --  -- -- -- -- -- -- -- --
0610:                          22 00 92 01 F8 FF FF 7F          ".......
0620: 37 3E 80 3F 80 02 80 40  80 00                    7>.?...@..      
```

#### Opcodes

```
  0: 0x0618 [0x22] ENTITY_HIDE_FLAG(enabled=0x00)
  1: 0x061A [0x92] EventEntity->Render.Flags3 ^= 0x01
  2: 0x0620 [0x37] UPDATE_EVENT_POSITION_AND_DIR: x=122.689*, z=109.573*, y=0.000*, direction=220.2°*
  3: 0x0629 [0x00] END_REQSTACK()
```

### Event 65535.2

#### Metadata

| Field        | Value   |
|--------------|---------|
| Entrypoint   | 0x062A  |
| Data Size    | 9 bytes |
| Instructions | 3       |

```
      00 01 02 03 04 05 06 07  08 09 0A 0B 0C 0D 0E 0F
      -- -- -- -- -- -- -- --  -- -- -- -- -- -- -- --
0620:                                2B B1 70 0E 01 41            +.p..A
0630: 80 23 00                                          .#.             
```

#### Opcodes

```
  0: 0x062A [0x2B] Curilla (ID: 17723569/0x010E70B1) [12734*]:
    → "After him!"
  1: 0x0631 [0x23] WAIT_FOR_DIALOG_INTERACTION
  2: 0x0632 [0x00] END_REQSTACK()
```
