# 17723576

## Common Data

| Field            | Value                         |
|------------------|-------------------------------|
| Zone             | Northern San d'Oria (ID: 231) |
| Block Size       | 500 bytes                     |
| Total Events     | 13                            |
| References Count | 37                            |

## List of Events

| Event ID                 | Entrypoint   |   Size |   Instructions |
|--------------------------|--------------|--------|----------------|
| [65535](#event-65535)    | 0x0000       |      1 |              1 |
| [1](#event-1)            | 0x0001       |     16 |              3 |
| [65535.1](#event-655351) | 0x0011       |     20 |              6 |
| [65535.2](#event-655352) | 0x0025       |     49 |             11 |
| [65535.3](#event-655353) | 0x0056       |     16 |              2 |
| [65535.4](#event-655354) | 0x0066       |     57 |             10 |
| [0](#event-0)            | 0x009F       |     13 |              3 |
| [65535.5](#event-655355) | 0x00AC       |     13 |              3 |
| [65535.6](#event-655356) | 0x00B9       |     20 |              4 |
| [16](#event-16)          | 0x00CD       |     10 |              2 |
| [65535.7](#event-655357) | 0x00D7       |     16 |              5 |
| [49](#event-49)          | 0x00E7       |     16 |              3 |
| [65535.8](#event-655358) | 0x00F7       |     37 |              9 |

## DAT References (imed_data)

|   Index | Hex Value   |   Dec Value |
|---------|-------------|-------------|
|       0 | 0x1E655     |      124501 |
|       1 | 0x1D830     |      120880 |
|       2 | 0x0000      |           0 |
|       3 | 0x0031      |          49 |
|       4 | 0x0028      |          40 |
|       5 | 0x1ED2A     |      126250 |
|       6 | 0x1D984     |      121220 |
|       7 | 0x1EE3B     |      126523 |
|       8 | 0x1DD52     |      122194 |
|       9 | 0x0018      |          24 |
|      10 | 0x001D      |          29 |
|      11 | 0x001E      |          30 |
|      12 | 0x1ED58     |      126296 |
|      13 | 0x1C8AD     |      116909 |
|      14 | 0x19173     |      102771 |
|      15 | 0x173C6     |       95174 |
|      16 | 0xFFFFFC18  |  4294966296 |
|      17 | 0xFFFFB14B  |  4294947147 |
|      18 | 0x0C0F      |        3087 |
|      19 | 0x000D      |          13 |
|      20 | 0x1E6D      |        7789 |
|      21 | 0x050A      |        1290 |
|      22 | 0x147C8     |       83912 |
|      23 | 0x1D61C     |      120348 |
|      24 | 0xFFFFF830  |  4294965296 |
|      25 | 0x18A85     |      100997 |
|      26 | 0x1545B     |       87131 |
|      27 | 0x06D5      |        1749 |
|      28 | 0x0A25      |        2597 |
|      29 | 0x10801     |       67585 |
|      30 | 0xD66B      |       54891 |
|      31 | 0x15876     |       88182 |
|      32 | 0x13553     |       79187 |
|      33 | 0x0E0A      |        3594 |
|      34 | 0x0014      |          20 |
|      35 | 0x174D8     |       95448 |
|      36 | 0x15163     |       86371 |

## Events

### Event 65535

#### Metadata

| Field        | Value   |
|--------------|---------|
| Entrypoint   | 0x0000  |
| Data Size    | 1 bytes |
| Instructions | 1       |

```
      00 01 02 03 04 05 06 07  08 09 0A 0B 0C 0D 0E 0F
      -- -- -- -- -- -- -- --  -- -- -- -- -- -- -- --
0000: 00                                                .               
```

#### Opcodes

```
  0: 0x0000 [0x00] END_REQSTACK()
```

### Event 1

#### Metadata

| Field        | Value    |
|--------------|----------|
| Entrypoint   | 0x0001   |
| Data Size    | 16 bytes |
| Instructions | 3        |

```
      00 01 02 03 04 05 06 07  08 09 0A 0B 0C 0D 0E 0F
      -- -- -- -- -- -- -- --  -- -- -- -- -- -- -- --
0000:    92 01 F8 FF FF 7F 37  00 80 01 80 02 80 03 80   ......7........
0010: 00                                                .               
```

#### Opcodes

```
  0: 0x0001 [0x92] EventEntity->Render.Flags3 ^= 0x01
  1: 0x0007 [0x37] UPDATE_EVENT_POSITION_AND_DIR: x=124.501*, z=120.880*, y=0.000*, direction=4.3°*
  2: 0x0010 [0x00] END_REQSTACK()
```

### Event 65535.1

#### Metadata

| Field        | Value    |
|--------------|----------|
| Entrypoint   | 0x0011   |
| Data Size    | 20 bytes |
| Instructions | 6        |

```
      00 01 02 03 04 05 06 07  08 09 0A 0B 0C 0D 0E 0F
      -- -- -- -- -- -- -- --  -- -- -- -- -- -- -- --
0010:    32 04 80 1F 00 05 80  06 80 02 80 1F 01 6F 1E   2............o.
0020: CF 70 0E 01 00                                    .p...           
```

#### Opcodes

```
  0: 0x0011 [0x32] ExtData[1]->MainSpeed = 40* * 0.1
  1: 0x0014 [0x1F] MOVE_ENTITY: EventEntity moves to X=126.250*, Z=121.220*, Y=0.000*
  2: 0x001C [0x1F] MOVE_ENTITY: Update entity position (mode=1)
  3: 0x001E [0x6F] WAIT_FRAME_DELAY: Yield until WaitTime reaches zero
  4: 0x001F [0x1E] EventEntity looks at Rochefogne (ID: 17723599/0x010E70CF) and starts talking
  5: 0x0024 [0x00] END_REQSTACK()
```

### Event 65535.2

#### Metadata

| Field        | Value    |
|--------------|----------|
| Entrypoint   | 0x0025   |
| Data Size    | 49 bytes |
| Instructions | 11       |

```
      00 01 02 03 04 05 06 07  08 09 0A 0B 0C 0D 0E 0F
      -- -- -- -- -- -- -- --  -- -- -- -- -- -- -- --
0020:                32 04 80  1F 00 07 80 08 80 02 80       2..........
0030: 1F 01 6F 86 01 F8 FF FF  7F 1E CF 70 0E 01 6F 70  ..o........p..op
0040: 86 00 F8 FF FF 7F 66 09  80 F8 FF FF 7F F8 FF FF  ......f.........
0050: 7F 31 72 64 79 00                                 .1rdy.          
```

#### Opcodes

```
  0: 0x0025 [0x32] ExtData[1]->MainSpeed = 40* * 0.1
  1: 0x0028 [0x1F] MOVE_ENTITY: EventEntity moves to X=126.523*, Z=122.194*, Y=0.000*
  2: 0x0030 [0x1F] MOVE_ENTITY: Update entity position (mode=1)
  3: 0x0032 [0x6F] WAIT_FRAME_DELAY: Yield until WaitTime reaches zero
  4: 0x0033 [0x86] EventEntity->Render.Flags3 ^= 0x01
  5: 0x0039 [0x1E] EventEntity looks at Rochefogne (ID: 17723599/0x010E70CF) and starts talking
  6: 0x003E [0x6F] WAIT_FRAME_DELAY: Yield until WaitTime reaches zero
  7: 0x003F [0x70] WAIT_ENTITY_RENDER_FLAG: Wait while EventEntity->Render.Flags3 bit 2 is set (cancel turn if not)
  8: 0x0040 [0x86] EventEntity->Render.Flags3 = Flags3  // No change (flag=0)
  9: 0x0046 [0x66] LOAD_EXT_SCHEDULER_MAIN: Load scheduler "1rdy" with entities [EventEntity, EventEntity], work=24*
 10: 0x0055 [0x00] END_REQSTACK()
```

### Event 65535.3

#### Metadata

| Field        | Value    |
|--------------|----------|
| Entrypoint   | 0x0056   |
| Data Size    | 16 bytes |
| Instructions | 2        |

```
      00 01 02 03 04 05 06 07  08 09 0A 0B 0C 0D 0E 0F
      -- -- -- -- -- -- -- --  -- -- -- -- -- -- -- --
0050:                   66 0A  80 F8 FF FF 7F F8 FF FF        f.........
0060: 7F 73 68 61 30 00                                 .sha0.          
```

#### Opcodes

```
  0: 0x0056 [0x66] LOAD_EXT_SCHEDULER_MAIN: Load scheduler "sha0" with entities [EventEntity, EventEntity], work=29*
  1: 0x0065 [0x00] END_REQSTACK()
```

### Event 65535.4

#### Metadata

| Field        | Value    |
|--------------|----------|
| Entrypoint   | 0x0066   |
| Data Size    | 57 bytes |
| Instructions | 10       |

```
      00 01 02 03 04 05 06 07  08 09 0A 0B 0C 0D 0E 0F
      -- -- -- -- -- -- -- --  -- -- -- -- -- -- -- --
0060:                   1C 0B  80 66 0A 80 F8 FF FF 7F        ...f......
0070: F8 FF FF 7F 73 68 61 31  53 F8 FF FF 7F F8 FF FF  ....sha1S.......
0080: 7F 73 68 61 31 32 04 80  1F 00 0C 80 0D 80 02 80  .sha12..........
0090: 1F 01 1F 00 0E 80 0F 80  02 80 1F 01 22 01 00     ............".. 
```

#### Opcodes

```
  0: 0x0066 [0x1C] WAIT(30* ticks)
  1: 0x0069 [0x66] LOAD_EXT_SCHEDULER_MAIN: Load scheduler "sha1" with entities [EventEntity, EventEntity], work=29*
  2: 0x0078 [0x53] WAIT_SCHEDULER_TASK: Wait for scheduler "sha1" with entities [EventEntity, EventEntity]
  3: 0x0085 [0x32] ExtData[1]->MainSpeed = 40* * 0.1
  4: 0x0088 [0x1F] MOVE_ENTITY: EventEntity moves to X=126.296*, Z=116.909*, Y=0.000*
  5: 0x0090 [0x1F] MOVE_ENTITY: Update entity position (mode=1)
  6: 0x0092 [0x1F] MOVE_ENTITY: EventEntity moves to X=102.771*, Z=95.174*, Y=0.000*
  7: 0x009A [0x1F] MOVE_ENTITY: Update entity position (mode=1)
  8: 0x009C [0x22] ENTITY_HIDE_FLAG(enabled=0x01)
  9: 0x009E [0x00] END_REQSTACK()
```

### Event 0

#### Metadata

| Field        | Value    |
|--------------|----------|
| Entrypoint   | 0x009F   |
| Data Size    | 13 bytes |
| Instructions | 3        |

```
      00 01 02 03 04 05 06 07  08 09 0A 0B 0C 0D 0E 0F
      -- -- -- -- -- -- -- --  -- -- -- -- -- -- -- --
0090:                                               37                 7
00A0: 10 80 11 80 02 80 12 80  32 13 80 00              ........2...    
```

#### Opcodes

```
  0: 0x009F [0x37] UPDATE_EVENT_POSITION_AND_DIR: x=-1.000*, z=-20.149*, y=0.000*, direction=271.3°*
  1: 0x00A8 [0x32] ExtData[1]->MainSpeed = 13* * 0.1
  2: 0x00AB [0x00] END_REQSTACK()
```

### Event 65535.5

#### Metadata

| Field        | Value    |
|--------------|----------|
| Entrypoint   | 0x00AC   |
| Data Size    | 13 bytes |
| Instructions | 3        |

```
      00 01 02 03 04 05 06 07  08 09 0A 0B 0C 0D 0E 0F
      -- -- -- -- -- -- -- --  -- -- -- -- -- -- -- --
00A0:                                      31 00 10 80              1...
00B0: 14 80 02 80 15 80 31 01  00                       ......1..       
```

#### Opcodes

```
  0: 0x00AC [0x31] UPDATE_ENTITY_POSITION: Set EventEntity goal position to X=-1.000*, Z=7.789*, Y=0.000*, Time=1290*
  1: 0x00B6 [0x31] UPDATE_ENTITY_POSITION: Move EventEntity towards goal position
  2: 0x00B8 [0x00] END_REQSTACK()
```

### Event 65535.6

#### Metadata

| Field        | Value    |
|--------------|----------|
| Entrypoint   | 0x00B9   |
| Data Size    | 20 bytes |
| Instructions | 4        |

```
      00 01 02 03 04 05 06 07  08 09 0A 0B 0C 0D 0E 0F
      -- -- -- -- -- -- -- --  -- -- -- -- -- -- -- --
00B0:                             37 10 80 16 80 02 80           7......
00C0: 12 80 1F 00 10 80 17 80  18 80 1F 01 00           .............   
```

#### Opcodes

```
  0: 0x00B9 [0x37] UPDATE_EVENT_POSITION_AND_DIR: x=-1.000*, z=83.912*, y=0.000*, direction=271.3°*
  1: 0x00C2 [0x1F] MOVE_ENTITY: EventEntity moves to X=-1.000*, Z=120.348*, Y=-2.000*
  2: 0x00CA [0x1F] MOVE_ENTITY: Update entity position (mode=1)
  3: 0x00CC [0x00] END_REQSTACK()
```

### Event 16

#### Metadata

| Field        | Value    |
|--------------|----------|
| Entrypoint   | 0x00CD   |
| Data Size    | 10 bytes |
| Instructions | 2        |

```
      00 01 02 03 04 05 06 07  08 09 0A 0B 0C 0D 0E 0F
      -- -- -- -- -- -- -- --  -- -- -- -- -- -- -- --
00C0:                                         37 19 80               7..
00D0: 1A 80 1B 80 1C 80 00                              .......         
```

#### Opcodes

```
  0: 0x00CD [0x37] UPDATE_EVENT_POSITION_AND_DIR: x=100.997*, z=87.131*, y=1.749*, direction=228.2°*
  1: 0x00D6 [0x00] END_REQSTACK()
```

### Event 65535.7

#### Metadata

| Field        | Value    |
|--------------|----------|
| Entrypoint   | 0x00D7   |
| Data Size    | 16 bytes |
| Instructions | 5        |

```
      00 01 02 03 04 05 06 07  08 09 0A 0B 0C 0D 0E 0F
      -- -- -- -- -- -- -- --  -- -- -- -- -- -- -- --
00D0:                      32  04 80 1F 00 1D 80 1E 80         2........
00E0: 02 80 1F 01 22 01 00                              ...."..         
```

#### Opcodes

```
  0: 0x00D7 [0x32] ExtData[1]->MainSpeed = 40* * 0.1
  1: 0x00DA [0x1F] MOVE_ENTITY: EventEntity moves to X=67.585*, Z=54.891*, Y=0.000*
  2: 0x00E2 [0x1F] MOVE_ENTITY: Update entity position (mode=1)
  3: 0x00E4 [0x22] ENTITY_HIDE_FLAG(enabled=0x01)
  4: 0x00E6 [0x00] END_REQSTACK()
```

### Event 49

#### Metadata

| Field        | Value    |
|--------------|----------|
| Entrypoint   | 0x00E7   |
| Data Size    | 16 bytes |
| Instructions | 3        |

```
      00 01 02 03 04 05 06 07  08 09 0A 0B 0C 0D 0E 0F
      -- -- -- -- -- -- -- --  -- -- -- -- -- -- -- --
00E0:                      92  01 F8 FF FF 7F 37 1F 80         ......7..
00F0: 20 80 1B 80 21 80 00                               ...!..         
```

#### Opcodes

```
  0: 0x00E7 [0x92] EventEntity->Render.Flags3 ^= 0x01
  1: 0x00ED [0x37] UPDATE_EVENT_POSITION_AND_DIR: x=88.182*, z=79.187*, y=1.749*, direction=315.9°*
  2: 0x00F6 [0x00] END_REQSTACK()
```

### Event 65535.8

#### Metadata

| Field        | Value    |
|--------------|----------|
| Entrypoint   | 0x00F7   |
| Data Size    | 37 bytes |
| Instructions | 9        |

```
      00 01 02 03 04 05 06 07  08 09 0A 0B 0C 0D 0E 0F
      -- -- -- -- -- -- -- --  -- -- -- -- -- -- -- --
00F0:                      1C  22 80 1F 00 23 80 24 80         ."...#.$.
0100: 1B 80 1F 01 6F 1E AF 70  0E 01 6F 70 66 09 80 F8  ....o..p..opf...
0110: FF FF 7F F8 FF FF 7F 31  72 64 79 00              .......1rdy.    
```

#### Opcodes

```
  0: 0x00F7 [0x1C] WAIT(20* ticks)
  1: 0x00FA [0x1F] MOVE_ENTITY: EventEntity moves to X=95.448*, Z=86.371*, Y=1.749*
  2: 0x0102 [0x1F] MOVE_ENTITY: Update entity position (mode=1)
  3: 0x0104 [0x6F] WAIT_FRAME_DELAY: Yield until WaitTime reaches zero
  4: 0x0105 [0x1E] EventEntity looks at Rainemard (ID: 17723567/0x010E70AF) and starts talking
  5: 0x010A [0x6F] WAIT_FRAME_DELAY: Yield until WaitTime reaches zero
  6: 0x010B [0x70] WAIT_ENTITY_RENDER_FLAG: Wait while EventEntity->Render.Flags3 bit 2 is set (cancel turn if not)
  7: 0x010C [0x66] LOAD_EXT_SCHEDULER_MAIN: Load scheduler "1rdy" with entities [EventEntity, EventEntity], work=24*
  8: 0x011B [0x00] END_REQSTACK()
```
