# 17723433 - Aurege

## Common Data

| Field            | Value                         |
|------------------|-------------------------------|
| Zone             | Northern San d'Oria (ID: 231) |
| Block Size       | 584 bytes                     |
| Total Events     | 12                            |
| References Count | 26                            |

## List of Events

| Event ID                 | Entrypoint   |   Size |   Instructions |
|--------------------------|--------------|--------|----------------|
| [65535](#event-65535)    | 0x0000       |      1 |              1 |
| [521](#event-521)        | 0x0001       |     99 |             23 |
| [522](#event-522)        | 0x0064       |      1 |              1 |
| [516](#event-516)        | 0x0065       |     61 |             15 |
| [514](#event-514)        | 0x00A2       |     36 |             10 |
| [65535.1](#event-655351) | 0x00C6       |     32 |              8 |
| [65535.2](#event-655352) | 0x00E6       |     32 |              8 |
| [49](#event-49)          | 0x0106       |     21 |              5 |
| [65535.3](#event-655353) | 0x011B       |     31 |              9 |
| [65535.4](#event-655354) | 0x013A       |     45 |              5 |
| [16](#event-16)          | 0x0167       |     28 |              5 |
| [0](#event-0)            | 0x0183       |     28 |              5 |

## DAT References (imed_data)

|   Index | Hex Value   |   Dec Value |
|---------|-------------|-------------|
|       0 | 0x0014      |          20 |
|       1 | 0x2BA3      |       11171 |
|       2 | 0x001E      |          30 |
|       3 | 0x2BA5      |       11173 |
|       4 | 0x2BAB      |       11179 |
|       5 | 0x2BAC      |       11180 |
|       6 | 0x00C9      |         201 |
|       7 | 0x0000      |           0 |
|       8 | 0x2BAE      |       11182 |
|       9 | 0x0028      |          40 |
|      10 | 0x1C7E0     |      116704 |
|      11 | 0x1B216     |      111126 |
|      12 | 0x05F3      |        1523 |
|      13 | 0x1BD58     |      114008 |
|      14 | 0x1A2BE     |      107198 |
|      15 | 0x1ABA9     |      109481 |
|      16 | 0x17BA2     |       97186 |
|      17 | 0x000A      |          10 |
|      18 | 0x142B8     |       82616 |
|      19 | 0x14F6A     |       85866 |
|      20 | 0x06D5      |        1749 |
|      21 | 0x0094      |         148 |
|      22 | 0x20E1      |        8417 |
|      23 | 0x1710D     |       94477 |
|      24 | 0xFFFFFF39  |  4294967097 |
|      25 | 0x0A37      |        2615 |

## String References

- **11171**: Ah, a new recruit! What are you doing in the city? Get out there and slay some fiends! That's where the money is!
- **11173**: You know him. I reckon he's out scouring the Parade Grounds for suckers with gil to wager.
- **11179**: Hey, it's that recruit from before. So you're the one who got Varchet to show up again!
- **11180**: I don't remember asking you to fetch him, but I owe you my thanks anyway. Here, take this!
- **11182**: Varchet? I gave him a proper lashing for what he did, and then he ran off again! He's not to be trusted, that one.

## Events

### Event 65535

#### Metadata

| Field        | Value   |
|--------------|---------|
| Entrypoint   | 0x0000  |
| Data Size    | 1 bytes |
| Instructions | 1       |

```
      00 01 02 03 04 05 06 07  08 09 0A 0B 0C 0D 0E 0F
      -- -- -- -- -- -- -- --  -- -- -- -- -- -- -- --
0000: 00                                                .               
```

#### Opcodes

```
  0: 0x0000 [0x00] END_REQSTACK()
```

### Event 521

#### Metadata

| Field        | Value    |
|--------------|----------|
| Entrypoint   | 0x0001   |
| Data Size    | 99 bytes |
| Instructions | 23       |

```
      00 01 02 03 04 05 06 07  08 09 0A 0B 0C 0D 0E 0F
      -- -- -- -- -- -- -- --  -- -- -- -- -- -- -- --
0000:    1E F0 FF FF 7F 6F 70  66 00 80 F8 FF FF 7F F8   .....opf.......
0010: FF FF 7F 74 6C 6B 30 1D  01 80 23 5E 69 64 6C 30  ...tlk0...#^idl0
0020: 1C 02 80 27 5F 2A 70 0E  01 04 1E 2A 70 0E 01 2A  ...'_*p....*p..*
0030: 5F 2A 70 0E 01 6F 70 66  00 80 F8 FF FF 7F F8 FF  _*p..opf........
0040: FF 7F 74 6C 6B 30 1D 03  80 23 5E 69 64 6C 30 1C  ..tlk0...#^idl0.
0050: 02 80 27 60 2A 70 0E 01  05 2A 60 2A 70 0E 01 1C  ..'`*p...*`*p...
0060: 02 80 21 00                                       ..!.            
```

#### Opcodes

```
  0: 0x0001 [0x1E] EventEntity looks at LocalPlayer and starts talking
  1: 0x0006 [0x6F] WAIT_FRAME_DELAY: Yield until WaitTime reaches zero
  2: 0x0007 [0x70] WAIT_ENTITY_RENDER_FLAG: Wait while EventEntity->Render.Flags3 bit 2 is set (cancel turn if not)
  3: 0x0008 [0x66] LOAD_EXT_SCHEDULER_MAIN: Load scheduler "tlk0" with entities [EventEntity, EventEntity], work=20*
  4: 0x0017 [0x1D] PRINT_EVENT_MESSAGE(message_id=11171*)
    → "Ah, a new recruit! What are you doing in the city? Get out there and slay some fiends! That's where the money is!"
  5: 0x001A [0x23] WAIT_FOR_DIALOG_INTERACTION
  6: 0x001B [0x5E] EventEntity goes idle (kills current action) (animation: "idl0")
  7: 0x0020 [0x1C] WAIT(30* ticks)
  8: 0x0023 [0x27] REQ_SET(priority=0x5F, entity_id=Guilberdrier (ID: 17723434/0x010E702A), tag_num=0x04)
  9: 0x002A [0x1E] EventEntity looks at Guilberdrier (ID: 17723434/0x010E702A) and starts talking
 10: 0x002F [0x2A] GET_REQ_LEVEL(level=95, entity_id=Guilberdrier (ID: 17723434/0x010E702A))
 11: 0x0035 [0x6F] WAIT_FRAME_DELAY: Yield until WaitTime reaches zero
 12: 0x0036 [0x70] WAIT_ENTITY_RENDER_FLAG: Wait while EventEntity->Render.Flags3 bit 2 is set (cancel turn if not)
 13: 0x0037 [0x66] LOAD_EXT_SCHEDULER_MAIN: Load scheduler "tlk0" with entities [EventEntity, EventEntity], work=20*
 14: 0x0046 [0x1D] PRINT_EVENT_MESSAGE(message_id=11173*)
    → "You know him. I reckon he's out scouring the Parade Grounds for suckers with gil to wager."
 15: 0x0049 [0x23] WAIT_FOR_DIALOG_INTERACTION
 16: 0x004A [0x5E] EventEntity goes idle (kills current action) (animation: "idl0")
 17: 0x004F [0x1C] WAIT(30* ticks)
 18: 0x0052 [0x27] REQ_SET(priority=0x60, entity_id=Guilberdrier (ID: 17723434/0x010E702A), tag_num=0x05)
 19: 0x0059 [0x2A] GET_REQ_LEVEL(level=96, entity_id=Guilberdrier (ID: 17723434/0x010E702A))
 20: 0x005F [0x1C] WAIT(30* ticks)
 21: 0x0062 [0x21] END_EVENT
 22: 0x0063 [0x00] END_REQSTACK()
```

### Event 522

#### Metadata

| Field        | Value   |
|--------------|---------|
| Entrypoint   | 0x0064  |
| Data Size    | 1 bytes |
| Instructions | 1       |

```
      00 01 02 03 04 05 06 07  08 09 0A 0B 0C 0D 0E 0F
      -- -- -- -- -- -- -- --  -- -- -- -- -- -- -- --
0060:             00                                        .           
```

#### Opcodes

```
  0: 0x0064 [0x00] END_REQSTACK()
```

### Event 516

#### Metadata

| Field        | Value    |
|--------------|----------|
| Entrypoint   | 0x0065   |
| Data Size    | 61 bytes |
| Instructions | 15       |

```
      00 01 02 03 04 05 06 07  08 09 0A 0B 0C 0D 0E 0F
      -- -- -- -- -- -- -- --  -- -- -- -- -- -- -- --
0060:                42 1E F0  FF FF 7F 6F 70 66 00 80       B.....opf..
0070: F8 FF FF 7F F8 FF FF 7F  74 6C 6B 30 1D 04 80 23  ........tlk0...#
0080: 1C 02 80 1D 05 80 23 5E  69 64 6C 30 45 06 80 F0  ......#^idl0E...
0090: FF FF 7F F0 FF FF 7F 71  73 74 63 07 80 1C 02 80  .......qstc.....
00A0: 21 00                                             !.              
```

#### Opcodes

```
  0: 0x0065 [0x42] SET_CLI_EVENT_CANCEL_DATA()
  1: 0x0066 [0x1E] EventEntity looks at LocalPlayer and starts talking
  2: 0x006B [0x6F] WAIT_FRAME_DELAY: Yield until WaitTime reaches zero
  3: 0x006C [0x70] WAIT_ENTITY_RENDER_FLAG: Wait while EventEntity->Render.Flags3 bit 2 is set (cancel turn if not)
  4: 0x006D [0x66] LOAD_EXT_SCHEDULER_MAIN: Load scheduler "tlk0" with entities [EventEntity, EventEntity], work=20*
  5: 0x007C [0x1D] PRINT_EVENT_MESSAGE(message_id=11179*)
    → "Hey, it's that recruit from before. So you're the one who got Varchet to show up again!"
  6: 0x007F [0x23] WAIT_FOR_DIALOG_INTERACTION
  7: 0x0080 [0x1C] WAIT(30* ticks)
  8: 0x0083 [0x1D] PRINT_EVENT_MESSAGE(message_id=11180*)
    → "I don't remember asking you to fetch him, but I owe you my thanks anyway. Here, take this!"
  9: 0x0086 [0x23] WAIT_FOR_DIALOG_INTERACTION
 10: 0x0087 [0x5E] EventEntity goes idle (kills current action) (animation: "idl0")
 11: 0x008C [0x45] LOAD_SCHEDULED_TASK: Load scheduler "qstc" with entities [LocalPlayer, LocalPlayer], work=[201*, 0*]
 12: 0x009D [0x1C] WAIT(30* ticks)
 13: 0x00A0 [0x21] END_EVENT
 14: 0x00A1 [0x00] END_REQSTACK()
```

### Event 514

#### Metadata

| Field        | Value    |
|--------------|----------|
| Entrypoint   | 0x00A2   |
| Data Size    | 36 bytes |
| Instructions | 10       |

```
      00 01 02 03 04 05 06 07  08 09 0A 0B 0C 0D 0E 0F
      -- -- -- -- -- -- -- --  -- -- -- -- -- -- -- --
00A0:       1E F0 FF FF 7F 6F  70 66 00 80 F8 FF FF 7F    .....opf......
00B0: F8 FF FF 7F 74 6C 6B 30  1D 08 80 23 5E 69 64 6C  ....tlk0...#^idl
00C0: 30 1C 02 80 21 00                                 0...!.          
```

#### Opcodes

```
  0: 0x00A2 [0x1E] EventEntity looks at LocalPlayer and starts talking
  1: 0x00A7 [0x6F] WAIT_FRAME_DELAY: Yield until WaitTime reaches zero
  2: 0x00A8 [0x70] WAIT_ENTITY_RENDER_FLAG: Wait while EventEntity->Render.Flags3 bit 2 is set (cancel turn if not)
  3: 0x00A9 [0x66] LOAD_EXT_SCHEDULER_MAIN: Load scheduler "tlk0" with entities [EventEntity, EventEntity], work=20*
  4: 0x00B8 [0x1D] PRINT_EVENT_MESSAGE(message_id=11182*)
    → "Varchet? I gave him a proper lashing for what he did, and then he ran off again! He's not to be trusted, that one."
  5: 0x00BB [0x23] WAIT_FOR_DIALOG_INTERACTION
  6: 0x00BC [0x5E] EventEntity goes idle (kills current action) (animation: "idl0")
  7: 0x00C1 [0x1C] WAIT(30* ticks)
  8: 0x00C4 [0x21] END_EVENT
  9: 0x00C5 [0x00] END_REQSTACK()
```

### Event 65535.1

#### Metadata

| Field        | Value    |
|--------------|----------|
| Entrypoint   | 0x00C6   |
| Data Size    | 32 bytes |
| Instructions | 8        |

```
      00 01 02 03 04 05 06 07  08 09 0A 0B 0C 0D 0E 0F
      -- -- -- -- -- -- -- --  -- -- -- -- -- -- -- --
00C0:                   1E 2A  70 0E 01 6F 70 66 00 80        .*p..opf..
00D0: F8 FF FF 7F F8 FF FF 7F  74 6C 6B 30 1D 01 80 23  ........tlk0...#
00E0: 5E 69 64 6C 30 00                                 ^idl0.          
```

#### Opcodes

```
  0: 0x00C6 [0x1E] EventEntity looks at Guilberdrier (ID: 17723434/0x010E702A) and starts talking
  1: 0x00CB [0x6F] WAIT_FRAME_DELAY: Yield until WaitTime reaches zero
  2: 0x00CC [0x70] WAIT_ENTITY_RENDER_FLAG: Wait while EventEntity->Render.Flags3 bit 2 is set (cancel turn if not)
  3: 0x00CD [0x66] LOAD_EXT_SCHEDULER_MAIN: Load scheduler "tlk0" with entities [EventEntity, EventEntity], work=20*
  4: 0x00DC [0x1D] PRINT_EVENT_MESSAGE(message_id=11171*)
    → "Ah, a new recruit! What are you doing in the city? Get out there and slay some fiends! That's where the money is!"
  5: 0x00DF [0x23] WAIT_FOR_DIALOG_INTERACTION
  6: 0x00E0 [0x5E] EventEntity goes idle (kills current action) (animation: "idl0")
  7: 0x00E5 [0x00] END_REQSTACK()
```

### Event 65535.2

#### Metadata

| Field        | Value    |
|--------------|----------|
| Entrypoint   | 0x00E6   |
| Data Size    | 32 bytes |
| Instructions | 8        |

```
      00 01 02 03 04 05 06 07  08 09 0A 0B 0C 0D 0E 0F
      -- -- -- -- -- -- -- --  -- -- -- -- -- -- -- --
00E0:                   1E F0  FF FF 7F 6F 70 66 00 80        .....opf..
00F0: F8 FF FF 7F F8 FF FF 7F  74 6C 6B 30 1D 03 80 23  ........tlk0...#
0100: 5E 69 64 6C 30 00                                 ^idl0.          
```

#### Opcodes

```
  0: 0x00E6 [0x1E] EventEntity looks at LocalPlayer and starts talking
  1: 0x00EB [0x6F] WAIT_FRAME_DELAY: Yield until WaitTime reaches zero
  2: 0x00EC [0x70] WAIT_ENTITY_RENDER_FLAG: Wait while EventEntity->Render.Flags3 bit 2 is set (cancel turn if not)
  3: 0x00ED [0x66] LOAD_EXT_SCHEDULER_MAIN: Load scheduler "tlk0" with entities [EventEntity, EventEntity], work=20*
  4: 0x00FC [0x1D] PRINT_EVENT_MESSAGE(message_id=11173*)
    → "You know him. I reckon he's out scouring the Parade Grounds for suckers with gil to wager."
  5: 0x00FF [0x23] WAIT_FOR_DIALOG_INTERACTION
  6: 0x0100 [0x5E] EventEntity goes idle (kills current action) (animation: "idl0")
  7: 0x0105 [0x00] END_REQSTACK()
```

### Event 49

#### Metadata

| Field        | Value    |
|--------------|----------|
| Entrypoint   | 0x0106   |
| Data Size    | 21 bytes |
| Instructions | 5        |

```
      00 01 02 03 04 05 06 07  08 09 0A 0B 0C 0D 0E 0F
      -- -- -- -- -- -- -- --  -- -- -- -- -- -- -- --
0100:                   22 01  92 01 F8 FF FF 7F 32 09        ".......2.
0110: 80 37 0A 80 0B 80 07 80  0C 80 00                 .7.........     
```

#### Opcodes

```
  0: 0x0106 [0x22] ENTITY_HIDE_FLAG(enabled=0x01)
  1: 0x0108 [0x92] EventEntity->Render.Flags3 ^= 0x01
  2: 0x010E [0x32] ExtData[1]->MainSpeed = 40* * 0.1
  3: 0x0111 [0x37] UPDATE_EVENT_POSITION_AND_DIR: x=116.704*, z=111.126*, y=0.000*, direction=133.9°*
  4: 0x011A [0x00] END_REQSTACK()
```

### Event 65535.3

#### Metadata

| Field        | Value    |
|--------------|----------|
| Entrypoint   | 0x011B   |
| Data Size    | 31 bytes |
| Instructions | 9        |

```
      00 01 02 03 04 05 06 07  08 09 0A 0B 0C 0D 0E 0F
      -- -- -- -- -- -- -- --  -- -- -- -- -- -- -- --
0110:                                   1F 00 0D 80 0E             .....
0120: 80 07 80 1F 01 1F 00 0F  80 10 80 07 80 1F 01 1C  ................
0130: 11 80 1E AF 70 0E 01 6F  70 00                    ....p..op.      
```

#### Opcodes

```
  0: 0x011B [0x1F] MOVE_ENTITY: EventEntity moves to X=114.008*, Z=107.198*, Y=0.000*
  1: 0x0123 [0x1F] MOVE_ENTITY: Update entity position (mode=1)
  2: 0x0125 [0x1F] MOVE_ENTITY: EventEntity moves to X=109.481*, Z=97.186*, Y=0.000*
  3: 0x012D [0x1F] MOVE_ENTITY: Update entity position (mode=1)
  4: 0x012F [0x1C] WAIT(10* ticks)
  5: 0x0132 [0x1E] EventEntity looks at Rainemard (ID: 17723567/0x010E70AF) and starts talking
  6: 0x0137 [0x6F] WAIT_FRAME_DELAY: Yield until WaitTime reaches zero
  7: 0x0138 [0x70] WAIT_ENTITY_RENDER_FLAG: Wait while EventEntity->Render.Flags3 bit 2 is set (cancel turn if not)
  8: 0x0139 [0x00] END_REQSTACK()
```

### Event 65535.4

#### Metadata

| Field        | Value    |
|--------------|----------|
| Entrypoint   | 0x013A   |
| Data Size    | 45 bytes |
| Instructions | 5        |

```
      00 01 02 03 04 05 06 07  08 09 0A 0B 0C 0D 0E 0F
      -- -- -- -- -- -- -- --  -- -- -- -- -- -- -- --
0130:                                7B F8 FF FF 7F 2C            {....,
0140: F8 FF FF 7F F8 FF FF 7F  63 68 69 74 2C F8 FF FF  ........chit,...
0150: 7F F8 FF FF 7F 64 65 61  64 53 F8 FF FF 7F F8 FF  .....deadS......
0160: FF 7F 64 65 61 64 00                              ..dead.         
```

#### Opcodes

```
  0: 0x013A [0x7B] EventEntity stops talking
  1: 0x013F [0x2C] CREATE_SCHEDULER_TASK: Create scheduler "chit" with entities [EventEntity, EventEntity]
  2: 0x014C [0x2C] CREATE_SCHEDULER_TASK: Create scheduler "dead" with entities [EventEntity, EventEntity]
  3: 0x0159 [0x53] WAIT_SCHEDULER_TASK: Wait for scheduler "dead" with entities [EventEntity, EventEntity]
  4: 0x0166 [0x00] END_REQSTACK()
```

### Event 16

#### Metadata

| Field        | Value    |
|--------------|----------|
| Entrypoint   | 0x0167   |
| Data Size    | 28 bytes |
| Instructions | 5        |

```
      00 01 02 03 04 05 06 07  08 09 0A 0B 0C 0D 0E 0F
      -- -- -- -- -- -- -- --  -- -- -- -- -- -- -- --
0160:                      22  00 92 01 F8 FF FF 7F 37         ".......7
0170: 12 80 13 80 14 80 15 80  79 00 F8 FF FF 7F 04 70  ........y......p
0180: 0E 01 00                                          ...             
```

#### Opcodes

```
  0: 0x0167 [0x22] ENTITY_HIDE_FLAG(enabled=0x00)
  1: 0x0169 [0x92] EventEntity->Render.Flags3 ^= 0x01
  2: 0x016F [0x37] UPDATE_EVENT_POSITION_AND_DIR: x=82.616*, z=85.866*, y=1.749*, direction=13.0°*
  3: 0x0178 [0x79] EventEntity looks at Claidie (ID: 17723396/0x010E7004) (Basic look)
  4: 0x0182 [0x00] END_REQSTACK()
```

### Event 0

#### Metadata

| Field        | Value    |
|--------------|----------|
| Entrypoint   | 0x0183   |
| Data Size    | 28 bytes |
| Instructions | 5        |

```
      00 01 02 03 04 05 06 07  08 09 0A 0B 0C 0D 0E 0F
      -- -- -- -- -- -- -- --  -- -- -- -- -- -- -- --
0180:          22 00 92 01 F8  FF FF 7F 37 16 80 17 80     ".......7....
0190: 18 80 19 80 79 00 F8 FF  FF 7F 02 70 0E 01 00     ....y......p... 
```

#### Opcodes

```
  0: 0x0183 [0x22] ENTITY_HIDE_FLAG(enabled=0x00)
  1: 0x0185 [0x92] EventEntity->Render.Flags3 ^= 0x01
  2: 0x018B [0x37] UPDATE_EVENT_POSITION_AND_DIR: x=8.417*, z=94.477*, y=-0.199*, direction=229.8°*
  3: 0x0194 [0x79] EventEntity looks at Trion (ID: 17723394/0x010E7002) (Basic look)
  4: 0x019E [0x00] END_REQSTACK()
```
