# 17723503 - Kuu Mohzolhi

## Common Data

| Field            | Value                         |
|------------------|-------------------------------|
| Zone             | Northern San d'Oria (ID: 231) |
| Block Size       | 2708 bytes                    |
| Total Events     | 2                             |
| References Count | 191                           |

## List of Events

| Event ID              | Entrypoint   |   Size |   Instructions |
|-----------------------|--------------|--------|----------------|
| [65535](#event-65535) | 0x0000       |      1 |              1 |
| [605](#event-605)     | 0x0001       |   1919 |            549 |

## DAT References (imed_data)

|   Index | Hex Value   |   Dec Value |
|---------|-------------|-------------|
|       0 | 0x000A      |          10 |
|       1 | 0x00E7      |         231 |
|       2 | 0x00EC      |         236 |
|       3 | 0x00EF      |         239 |
|       4 | 0x00F6      |         246 |
|       5 | 0x00FF      |         255 |
|       6 | 0x2FE6      |       12262 |
|       7 | 0x2FE7      |       12263 |
|       8 | 0x2FE8      |       12264 |
|       9 | 0x2FE9      |       12265 |
|      10 | 0x2FEA      |       12266 |
|      11 | 0x2FEB      |       12267 |
|      12 | 0x2FE4      |       12260 |
|      13 | 0x2FE5      |       12261 |
|      14 | 0x1A30      |        6704 |
|      15 | 0x1A31      |        6705 |
|      16 | 0x0000      |           0 |
|      17 | 0x1A33      |        6707 |
|      18 | 0x0001      |           1 |
|      19 | 0x1A32      |        6706 |
|      20 | 0x1A34      |        6708 |
|      21 | 0x1A35      |        6709 |
|      22 | 0x1A37      |        6711 |
|      23 | 0x1A38      |        6712 |
|      24 | 0x1A39      |        6713 |
|      25 | 0x1A3A      |        6714 |
|      26 | 0x0078      |         120 |
|      27 | 0x1A3B      |        6715 |
|      28 | 0x1A3C      |        6716 |
|      29 | 0x1A3D      |        6717 |
|      30 | 0x1A3E      |        6718 |
|      31 | 0x1A3F      |        6719 |
|      32 | 0x1A40      |        6720 |
|      33 | 0x1A41      |        6721 |
|      34 | 0x0002      |           2 |
|      35 | 0x1A42      |        6722 |
|      36 | 0x1A43      |        6723 |
|      37 | 0x1A44      |        6724 |
|      38 | 0x1A45      |        6725 |
|      39 | 0x1A46      |        6726 |
|      40 | 0x1A47      |        6727 |
|      41 | 0x1A48      |        6728 |
|      42 | 0x0003      |           3 |
|      43 | 0x1A49      |        6729 |
|      44 | 0x1A4A      |        6730 |
|      45 | 0x1A4B      |        6731 |
|      46 | 0x1A4C      |        6732 |
|      47 | 0x1A4D      |        6733 |
|      48 | 0x1A36      |        6710 |
|      49 | 0x03BE      |         958 |
|      50 | 0x3055      |       12373 |
|      51 | 0x3056      |       12374 |
|      52 | 0x3057      |       12375 |
|      53 | 0x3058      |       12376 |
|      54 | 0x3059      |       12377 |
|      55 | 0x305A      |       12378 |
|      56 | 0x0005      |           5 |
|      57 | 0x305D      |       12381 |
|      58 | 0x305E      |       12382 |
|      59 | 0x305F      |       12383 |
|      60 | 0x305C      |       12380 |
|      61 | 0x3060      |       12384 |
|      62 | 0x305B      |       12379 |
|      63 | 0x0014      |          20 |
|      64 | 0x3061      |       12385 |
|      65 | 0x3062      |       12386 |
|      66 | 0x3063      |       12387 |
|      67 | 0x003C      |          60 |
|      68 | 0x3064      |       12388 |
|      69 | 0x3065      |       12389 |
|      70 | 0x3066      |       12390 |
|      71 | 0x00C8      |         200 |
|      72 | 0x3067      |       12391 |
|      73 | 0x3068      |       12392 |
|      74 | 0x306A      |       12394 |
|      75 | 0x306B      |       12395 |
|      76 | 0x306C      |       12396 |
|      77 | 0x03E8      |        1000 |
|      78 | 0x00C9      |         201 |
|      79 | 0x306D      |       12397 |
|      80 | 0x306F      |       12399 |
|      81 | 0x3070      |       12400 |
|      82 | 0x0004      |           4 |
|      83 | 0x306E      |       12398 |
|      84 | 0x03BD      |         957 |
|      85 | 0x3034      |       12340 |
|      86 | 0x3035      |       12341 |
|      87 | 0x3036      |       12342 |
|      88 | 0x3037      |       12343 |
|      89 | 0x3038      |       12344 |
|      90 | 0x3039      |       12345 |
|      91 | 0x303A      |       12346 |
|      92 | 0x303B      |       12347 |
|      93 | 0x303E      |       12350 |
|      94 | 0x303D      |       12349 |
|      95 | 0x303C      |       12348 |
|      96 | 0x303F      |       12351 |
|      97 | 0x3040      |       12352 |
|      98 | 0x3041      |       12353 |
|      99 | 0x3042      |       12354 |
|     100 | 0x3043      |       12355 |
|     101 | 0x3044      |       12356 |
|     102 | 0x3045      |       12357 |
|     103 | 0x3046      |       12358 |
|     104 | 0x3047      |       12359 |
|     105 | 0x3048      |       12360 |
|     106 | 0x3049      |       12361 |
|     107 | 0x304A      |       12362 |
|     108 | 0x304B      |       12363 |
|     109 | 0x304D      |       12365 |
|     110 | 0x07D0      |        2000 |
|     111 | 0x304E      |       12366 |
|     112 | 0x3051      |       12369 |
|     113 | 0x3052      |       12370 |
|     114 | 0x304F      |       12367 |
|     115 | 0x3053      |       12371 |
|     116 | 0x3054      |       12372 |
|     117 | 0x3050      |       12368 |
|     118 | 0x03BC      |         956 |
|     119 | 0x300E      |       12302 |
|     120 | 0x300F      |       12303 |
|     121 | 0x3010      |       12304 |
|     122 | 0x3011      |       12305 |
|     123 | 0x3012      |       12306 |
|     124 | 0x3013      |       12307 |
|     125 | 0x3015      |       12309 |
|     126 | 0x3014      |       12308 |
|     127 | 0x3016      |       12310 |
|     128 | 0x3017      |       12311 |
|     129 | 0x3018      |       12312 |
|     130 | 0x3019      |       12313 |
|     131 | 0x301A      |       12314 |
|     132 | 0x301B      |       12315 |
|     133 | 0x301C      |       12316 |
|     134 | 0x301F      |       12319 |
|     135 | 0x3020      |       12320 |
|     136 | 0x3021      |       12321 |
|     137 | 0x301D      |       12317 |
|     138 | 0x301E      |       12318 |
|     139 | 0x3022      |       12322 |
|     140 | 0x3023      |       12323 |
|     141 | 0x3024      |       12324 |
|     142 | 0x3025      |       12325 |
|     143 | 0x3026      |       12326 |
|     144 | 0x3027      |       12327 |
|     145 | 0x3028      |       12328 |
|     146 | 0x302A      |       12330 |
|     147 | 0x302B      |       12331 |
|     148 | 0x302C      |       12332 |
|     149 | 0x302D      |       12333 |
|     150 | 0x0BB8      |        3000 |
|     151 | 0x302E      |       12334 |
|     152 | 0x3030      |       12336 |
|     153 | 0x3031      |       12337 |
|     154 | 0x302F      |       12335 |
|     155 | 0x3032      |       12338 |
|     156 | 0x3033      |       12339 |
|     157 | 0x0303      |         771 |
|     158 | 0x2FED      |       12269 |
|     159 | 0x2FEE      |       12270 |
|     160 | 0x2FEF      |       12271 |
|     161 | 0x2FF0      |       12272 |
|     162 | 0x2FF1      |       12273 |
|     163 | 0x2FF2      |       12274 |
|     164 | 0x2FF3      |       12275 |
|     165 | 0x2FF5      |       12277 |
|     166 | 0x2FF4      |       12276 |
|     167 | 0x2FF6      |       12278 |
|     168 | 0x2FF7      |       12279 |
|     169 | 0x2FF8      |       12280 |
|     170 | 0x2FF9      |       12281 |
|     171 | 0x2FFB      |       12283 |
|     172 | 0x2FFD      |       12285 |
|     173 | 0x2FFC      |       12284 |
|     174 | 0x2FFE      |       12286 |
|     175 | 0x2FFF      |       12287 |
|     176 | 0x3000      |       12288 |
|     177 | 0x3001      |       12289 |
|     178 | 0x3002      |       12290 |
|     179 | 0x3004      |       12292 |
|     180 | 0x3005      |       12293 |
|     181 | 0x3006      |       12294 |
|     182 | 0x0FA0      |        4000 |
|     183 | 0x3007      |       12295 |
|     184 | 0x3009      |       12297 |
|     185 | 0x300A      |       12298 |
|     186 | 0x300B      |       12299 |
|     187 | 0x3008      |       12296 |
|     188 | 0x300C      |       12300 |
|     189 | 0x300D      |       12301 |
|     190 | 0x0051      |          81 |

## String References

- **6704**: Hey therrre, [mister/miss]! Have you heard? Have you?
- **6705**: Well, have you? [What are you talking about?/Yes, I have!]
- **6706**: Reooow. Well, I guess I don't have to tell you, then.
- **6707**: Do you rrreally wanna know? Really? Really? Listen! I know the secrets of gar-den-ing.
- **6708**: What do you wanna know? What do you wanna know?
- **6709**: What do you want to know? [What is gardening?/What do I need to start?/How do I garden?/Are there any limits?/Bye-bye!]
- **6710**: Meowww...
- **6711**: Take a seed, plant it in a flowerpot, and leave the rest to your moogle! That's garrrdening!
- **6712**: Then, after a while, a prrretty flower blooms!
- **6713**: And then, and then the flower turrrns into fruit, and you can get all kinds of neat stuff!
- **6714**: % stares off into the distance.
- **6715**: Oops! I was just thinking about all that delicious fruit. Purrrrrr...
- **6716**: Um, okay, to start off, you're gonna need a flowerrrpot and some seeds.
- **6717**: You can buy flowerrrpots in town, but you're gonna have to go out and get your seeds from plant-monsterrrs.
- **6718**: And then guess what! Guess! Guess!
- **6719**: Give your plant a crrrystal and its frrruit will change! Really!
- **6720**: % stares off into the distance.
- **6721**: Oh! I was just thinking about all the different kinds of fruit and... Purrrrrr...
- **6722**: You can sit back, relax and do all your garrrdening in your Mog House!t
- **6723**: All you have to do is tell him what to do, and your moogle will do all the worrrk!t
- **6724**: But make sure you check up on your plant sometimes, or it might...
- **6725**: % looks a little sad.
- **6726**: Well, just check up on your plant every now and then, okay? Prrromise?
- **6727**: Even if you're off on an adventurrre somewhere, your moogle will use his special powerrrs to take care of your plant!
- **6728**: Moogles are so cool!
- **6729**: Um, um, I think you can have up to ten plants in yourrr room.
- **6730**: Any morrre and your moogle won't be able to handle it! They're rrreally busy, you know!
- **6731**: And... Oh, yeah! You have to put your seeds and flowerpots in your Mog Safe beforrre you can use 'em!
- **6732**: They need to be in therrre so your moogle can use his magic on 'em!
- **6733**: Moogles are awesome!t
- **12260**: The prrretty yellow rocks go round and round, Round and round, meow meow meow.t
- **12261**: I want a rrrock that's nice and round, And a little yellow.t
- **12262**: I wish that all of San d'Oria was full of pretty flowerrrs...
- **12263**: ...I wonder if everrrybody knows about garrrdening.
- **12264**: (Nobody knows the way to a girrrl's heart anymorrre...)
- **12265**: (Now, if only somebody came along with one of those rrred beauties...)
- **12266**: This is sooo cute...but members of the Star Onion Brrrigade are supposed to do only good deeds...but this is sooo cute.
- **12267**: Meooow... Wouldn't it be grrreat if my whole house was made of flowerrrs?
- **12269**: Reooow? You'rrre giving this to me?
- **12270**: Meooow... But this...meooow...
- **12271**: % looks a little confused.
- **12272**: I only like prrretty flowerrrs and prrretty rocks. Don't need anything else.
- **12273**: Prrretty yellow rocks! That's what I'm collecting!
- **12274**: Wow! What a prrretty flowerrr! It smells sooo good!
- **12275**: Wow! What a prrretty rock! It's sooo smooth!
- **12276**: $3! I'm sooo happy! Purrrrrr...
- **12277**: Now my room will be full of prrretty rocks and flowerrrs! Heh heh!
- **12278**: %looks very happy.
- **12279**: Now, all my collection needs is $3!
- **12280**: Anyway, thanks, [misterrr/miss]t
- **12281**: Meooow! This is the one! This is the one!
- **12283**: This one is grrreat, too! You got all these forrr me?
- **12284**: % looks really happy.
- **12285**: % looks really, REALLY happy.
- **12286**: You're the grrreatest!!
- **12287**: I can't give you anything in returrrn, but I can tell you my secrrret!
- **12288**: Come closerrr...
- **12289**: (Meow meow meow meow...)
- **12290**: (Meow meow meow meow...)
- **12292**: Heh-heh...
- **12293**: % looks extremely happy.
- **12294**: Don't tell anybody I told you that! It'll be our little secrrret!
- **12295**: Wow! Thanks! My house is filled with prrretty flowers!
- **12296**: Wow! More yellow rocks! My house gets prrrettier every day!
- **12297**: But my moogle, my moogle is rrreally upset. She says we don't have any more space in my house!
- **12298**: "You have no more room, kupo!" Reooow... Give me a brrreak!
- **12299**: So, you can have that back! I guess I'll just have to give up on it this time. (Sigh)
- **12300**: Hee-hee. [Misterrr/Miss], I don't need this.
- **12301**: I'd like to keep it, too, but I'm already out of space in my room...
- **12302**: Meow? Is this for me?
- **12303**: I'm happy, but...
- **12304**: % looks a little confused.
- **12305**: But what I rrreally want is a prrretty flower to put in my vase at home...
- **12306**: Thanks for the offerrr, though, [misterrr/miss].
- **12307**: Meow? A prrresent for me? Wow! Purrrrrrr...
- **12308**: $3 prrretty flowerrrs for me? These will look grrreat in my room!
- **12309**: With all these, I won't have to pick any flowerrrs here for my rrroom.
- **12310**: I looove all kinds of flowerrrs. Especially prrretty $3!
- **12311**: % looks very happy.
- **12312**: Thank you, [misterrr/miss]!
- **12313**: ...
- **12314**: Yes?
- **12315**: Do you have anything else to say? [Bye bye!/Don't I get anything else?/...]
- **12316**: By\`e!t
- **12317**: (I wonderrr what's wrong with [him/herrr]..?)
- **12318**: (I alrrready said thank you...mew...)
- **12319**: Umm...anything...umm...else?
- **12320**: Three cheers for <Player>! Yeah! Yeah! Yeah!
- **12321**: (I hope that was enough...)
- **12322**: Is this really--Is this really? $3, forrr me? It's sooo prrretty!
- **12323**: This is my favorrrite flowerrr in the whole wide worrrld! Purrrrrrr...
- **12324**: % looks very, VERY happy.
- **12325**: OK! I'll let you in on a little secrrret...
- **12326**: % starts whispering something in your ear.
- **12327**: (But you have to prrromise not to tell anybody...)
- **12328**: iWhisper...meow...whisper)
- **12330**: Heh-heh... Pretty cool, huh?
- **12331**: % looks pleased with herself.
- **12332**: Don't forrrget, you prrromised not to tell anybody! Not even the other memberrrs of the Star Onion Brigade!
- **12333**: This is just between you and me!
- **12334**: Thank yout Thank yout Thank yout
- **12335**: Thank you for all the prrretty flowerrrs!t
- **12336**: But I've rrrun out of vases to put them in! You can have this back.
- **12337**: It's a prrresent from me to you!
- **12338**: Flowerrrs...purrrrrr...
- **12339**: % can't take her eyes off the flowers in front of her, and pays no attention to your gift.
- **12340**: Meow? For me?
- **12341**: ...
- **12342**: You, you, you...
- **12343**: You can't move the hearrrt of a lady with junk like this!
- **12344**: You'll need something more--more exciting, more excellent, more extrrravagant! Something like flowerrrs...
- **12345**: There aren't many people who can imprrress me.
- **12346**: Herrre. I don't need this, [misterrr/miss].
- **12347**: How beautiful! You really know the way to a lady's hearrrt.
- **12348**: But this is just the basics. You've still got a ways to imprrress me!
- **12349**: This tiny bouquet is cute, but you're still far from imprrressing me!
- **12350**: And a full bouquet! You're starting to catch on, but anyone can brrring me this.
- **12351**: % smiles slyly at you.
- **12352**: If you really want to melt a girls' hearrrt, you should trrry $3.
- **12353**: Well, thanks anyway for the flowerrrs! La la la la lat
- **12354**: What's this...
- **12355**: ...
- **12356**: % looks very happy!
- **12357**: This is it! The colorrr! The shape! The frrragrance! Purrrrr...
- **12358**: I have to admit it. You rrreally know how to imprrress a girl.
- **12359**: % checks the area before approaching you.
- **12360**: (Um...I just, I just wanted to say...)
- **12361**: (You can always come back to visit...if you ever have any extra flowerrrs...)
- **12362**: (Oh yeah, and I'll teach you some of the back alleys...so you can get here easily...)
- **12363**: (You just go down....)
- **12365**: <Giggle> Thank you!
- **12366**: You've rrreally touched my hearrrt.t
- **12367**: Another one! You know that this is my favorrrite! Thank you!t
- **12368**: Meow? Did you already forrrget the way to a girrrl's heart?
- **12369**: If I took all the norrrmal gifts I got from my fans, I wouldn't have any room for the rrreally nice gifts.
- **12370**: You can have this back!
- **12371**: It's tough being adorrred by hundrrreds, but I guess I'll have to get used to it.
- **12372**: You can have this flowerrr back.
- **12373**: Meow? What's this?
- **12374**: For me? Hmm...
- **12375**: % does not look that excited.
- **12376**: I'd rather have a flowerrr like the one in Queen Leaute's garrrden.
- **12377**: Here, you can have this back.
- **12378**: A flowerrr, for me? I have to show this to Mister Chalvatot!
- **12379**: You know--you know--Mister Chalvatot is always rrreally happy when I bring him flowerrrs.t
- **12380**: This little bouquet is just like the lovely bunch of flowers Mister Chalvatot gathered for me one time! Thank you so much!
- **12381**: Someday--someday--I'm gonna be just like Princess Claidie! Chalvatot said if I take rrreal good care of my flowerrrs that I could!
- **12382**: I'm gonna take these and plant them all around San d'Orrria! Thank you!!
- **12383**: If I only had $3...
- **12384**: If I ever get $3, I'm gonna plant it in Queen Leaute's garden!t
- **12385**: Meooow! $3! For me? Yeah!
- **12386**: Now--Now Queen Leaute's garden will be prrrettier than ever!
- **12387**: % looks overwhelmingly pleased.
- **12388**: You've been so nice. I wanna give you something to say thanks...
- **12389**: % has a light bulb over her head.
- **12390**: I got it! I got it! I'll tell you my secrrret!
- **12391**: (Meow meow meow meow...)
- **12392**: (Meow meow meow meow...)
- **12394**: But don't tell anyone, okay?
- **12395**: % looks very happy.
- **12396**: Secrett Secrett It's our little secret!t
- **12397**: Another one? Another one? Forrr me? Yeah!
- **12398**: Wow! I'll take this and plant it in the garden rrright now!
- **12399**: ... Umm, but I don't have anything to give you in returrrn.
- **12400**: I'm sorrry, but I can't take this. Thanks anyway! You will come and see the flowers I planted in the garden, though, won't you? Won't you?

## Events

### Event 65535

#### Metadata

| Field        | Value   |
|--------------|---------|
| Entrypoint   | 0x0000  |
| Data Size    | 1 bytes |
| Instructions | 1       |

```
      00 01 02 03 04 05 06 07  08 09 0A 0B 0C 0D 0E 0F
      -- -- -- -- -- -- -- --  -- -- -- -- -- -- -- --
0000: 00                                                .               
```

#### Opcodes

```
  0: 0x0000 [0x00] END_REQSTACK()
```

### Event 605

#### Metadata

| Field        | Value      |
|--------------|------------|
| Entrypoint   | 0x0001     |
| Data Size    | 1919 bytes |
| Instructions | 549        |

```
      00 01 02 03 04 05 06 07  08 09 0A 0B 0C 0D 0E 0F
      -- -- -- -- -- -- -- --  -- -- -- -- -- -- -- --
0000:    42 03 02 00 02 10 03  00 00 03 10 03 01 00 04   B..............
0010: 10 03 03 00 08 10 03 07  00 09 10 03 06 00 05 10  ................
0020: 03 04 00 06 10 03 05 00  07 10 03 01 00 04 10 03  ................
0030: 01 10 01 00 02 01 00 00  80 00 42 00 1A 7F 00 01  ..........B.....
0040: 7D 00 02 00 00 01 80 80  50 00 1A BF 01 01 7D 00  }.......P.....}.
0050: 02 00 00 02 80 80 5E 00  1A F3 02 01 7D 00 02 00  ......^.....}...
0060: 00 03 80 80 6C 00 1A 30  04 01 7D 00 02 00 00 04  ....l..0..}.....
0070: 80 80 7A 00 1A AA 05 01  7D 00 1A F3 02 21 00 02  ..z.....}....!..
0080: 07 00 05 80 00 8A 00 01  D6 00 02 00 00 01 80 80  ................
0090: 9D 00 1D 06 80 23 1D 07  80 23 01 D6 00 02 00 00  .....#...#......
00A0: 02 80 80 B0 00 1D 08 80  23 1D 09 80 23 01 D6 00  ........#...#...
00B0: 02 00 00 03 80 80 C3 00  1D 0A 80 23 1D 0B 80 23  ...........#...#
00C0: 01 D6 00 02 00 00 04 80  80 D6 00 1D 0C 80 23 1D  ..............#.
00D0: 0D 80 23 01 D6 00 4A F8  FF FF 7F F0 FF FF 7F 1D  ..#...J.........
00E0: 0E 80 23 24 0F 80 10 80  10 80 25 02 00 10 10 80  ..#$......%.....
00F0: 00 FD 00 1D 11 80 23 1A  0D 01 01 0C 01 02 00 10  ......#.........
0100: 12 80 00 0C 01 1D 13 80  23 01 0C 01 1B 03 09 00  ........#.......
0110: 12 80 1D 14 80 23 02 09  00 10 80 02 BE 01 24 15  .....#........$.
0120: 80 10 80 10 80 25 02 00  10 10 80 00 47 01 1D 16  .....%......G...
0130: 80 23 1D 17 80 23 1D 18  80 23 48 19 80 1C 1A 80  .#...#...#H.....
0140: 1D 1B 80 23 01 BB 01 02  00 10 12 80 00 6C 01 1D  ...#.........l..
0150: 1C 80 23 1D 1D 80 23 1D  1E 80 23 1D 1F 80 23 48  ..#...#...#...#H
0160: 20 80 1C 1A 80 1D 21 80  23 01 BB 01 02 00 10 22   .....!.#......"
0170: 80 00 95 01 1D 23 80 23  1D 24 80 23 1D 25 80 23  .....#.#.$.#.%.#
0180: 48 26 80 1C 1A 80 1D 27  80 23 1D 28 80 23 1D 29  H&.....'.#.(.#.)
0190: 80 23 01 BB 01 02 00 10  2A 80 00 B4 01 1D 2B 80  .#......*.....+.
01A0: 23 1D 2C 80 23 1D 2D 80  23 1D 2E 80 23 1D 2F 80  #.,.#.-.#...#./.
01B0: 23 01 BB 01 1D 30 80 23  06 09 00 01 16 01 1B 03  #....0.#........
01C0: 08 00 31 80 03 05 10 08  00 4A F8 FF FF 7F F0 FF  ..1......J......
01D0: FF 7F 02 01 00 10 80 80  F3 01 1D 32 80 23 1D 33  ...........2.#.3
01E0: 80 23 48 34 80 1C 1A 80  1D 35 80 23 1D 36 80 23  .#H4.....5.#.6.#
01F0: 01 F2 02 02 01 00 12 80  80 37 02 1D 37 80 23 1A  .........7..7.#.
0200: 05 07 02 06 00 12 80 01  2C 02 02 06 00 38 80 02  ........,....8..
0210: 21 02 1D 39 80 23 1D 3A  80 23 1D 3B 80 23 01 29  !..9.#.:.#.;.#.)
0220: 02 1D 3C 80 23 1D 3D 80  23 01 34 02 1D 3E 80 23  ..<.#.=.#.4..>.#
0230: 1D 3D 80 23 01 F2 02 02  01 00 22 80 80 C4 02 1C  .=.#......".....
0240: 3F 80 1A 3A 07 1D 40 80  23 1D 41 80 23 1A 05 07  ?..:..@.#.A.#...
0250: 48 42 80 1C 43 80 1D 44  80 23 1A 6F 07 48 45 80  HB..C..D.#.o.HE.
0260: 1C 1A 80 1A 75 07 1D 46  80 23 45 47 80 F0 FF FF  ....u..F.#EG....
0270: 7F F0 FF FF 7F 66 64 6F  31 10 80 1C 43 80 1D 48  .....fdo1...C..H
0280: 80 23 1D 49 80 23 45 47  80 F0 FF FF 7F F0 FF FF  .#.I.#EG........
0290: 7F 66 64 69 31 10 80 1C  43 80 1D 4A 80 23 1A 05  .fdi1...C..J.#..
02A0: 07 48 4B 80 1A 05 07 1D  4C 80 23 07 01 10 4D 80  .HK.....L.#...M.
02B0: 45 4E 80 F0 FF FF 7F F0  FF FF 7F 71 73 74 63 10  EN.........qstc.
02C0: 80 01 F2 02 02 01 00 2A  80 80 DB 02 1D 4F 80 23  .......*.....O.#
02D0: 1D 50 80 23 1D 51 80 23  01 F2 02 02 01 00 52 80  .P.#.Q.#......R.
02E0: 80 F2 02 1D 53 80 23 1D  50 80 23 1D 51 80 23 01  ....S.#.P.#.Q.#.
02F0: F2 02 1B 03 08 00 54 80  03 05 10 08 00 4A F8 FF  ......T......J..
0300: FF 7F F0 FF FF 7F 02 01  00 10 80 80 2F 03 1D 55  ............/..U
0310: 80 23 1D 56 80 23 1D 57  80 23 1D 58 80 1A 05 07  .#.V.#.W.#.X....
0320: 1D 59 80 23 1D 5A 80 23  1D 5B 80 23 01 2F 04 02  .Y.#.Z.#.[.#./..
0330: 01 00 12 80 80 6E 03 1D  5C 80 23 02 06 00 12 80  .....n..\.#.....
0340: 02 59 03 02 06 00 38 80  02 52 03 1D 5D 80 23 01  .Y....8..R..].#.
0350: 56 03 1D 5E 80 23 01 5D  03 1D 5F 80 23 48 60 80  V..^.#.].._.#H`.
0360: 1C 1A 80 1D 61 80 23 1D  62 80 23 01 2F 04 02 01  ....a.#.b.#./...
0370: 00 22 80 80 E6 03 1D 63  80 1A 3A 07 1D 64 80 23  .".....c..:..d.#
0380: 48 65 80 1A 05 07 1D 66  80 23 1D 67 80 23 48 68  He.....f.#.g.#Hh
0390: 80 45 47 80 F0 FF FF 7F  F0 FF FF 7F 66 64 6F 31  .EG.........fdo1
03A0: 10 80 1C 1A 80 1D 69 80  23 1D 6A 80 23 1D 6B 80  ......i.#.j.#.k.
03B0: 23 1D 6C 80 23 45 47 80  F0 FF FF 7F F0 FF FF 7F  #.l.#EG.........
03C0: 66 64 69 31 10 80 1C 43  80 1D 6D 80 23 07 01 10  fdi1...C..m.#...
03D0: 6E 80 45 4E 80 F0 FF FF  7F F0 FF FF 7F 71 73 74  n.EN.........qst
03E0: 63 10 80 01 2F 04 02 01  00 2A 80 80 FD 03 1D 6F  c.../....*.....o
03F0: 80 23 1D 70 80 23 1D 71  80 23 01 2F 04 02 01 00  .#.p.#.q.#./....
0400: 52 80 80 18 04 1D 72 80  23 1D 70 80 23 1D 73 80  R.....r.#.p.#.s.
0410: 23 1D 74 80 23 01 2F 04  02 01 00 38 80 80 2F 04  #.t.#./....8../.
0420: 1D 75 80 23 1D 73 80 23  1D 71 80 23 01 2F 04 1B  .u.#.s.#.q.#./..
0430: 03 08 00 76 80 03 05 10  08 00 4A F8 FF FF 7F F0  ...v......J.....
0440: FF FF 7F 02 01 00 10 80  80 64 04 1D 77 80 23 1D  .........d..w.#.
0450: 78 80 23 48 79 80 1C 1A  80 1D 7A 80 23 1D 7B 80  x.#Hy.....z.#.{.
0460: 23 01 A9 05 02 01 00 12  80 80 F9 04 1D 7C 80 23  #............|.#
0470: 02 06 00 12 80 02 95 04  02 06 00 38 80 02 87 04  ...........8....
0480: 1D 7D 80 23 01 95 04 03  05 10 06 00 1D 7E 80 23  .}.#.........~.#
0490: 03 05 10 08 00 1D 7F 80  23 48 80 80 1C 1A 80 1D  ........#H......
04A0: 81 80 23 1C 43 80 1D 82  80 23 1D 83 80 23 24 84  ..#.C....#...#$.
04B0: 80 10 80 10 80 25 02 00  10 10 80 00 C5 04 1D 85  .....%..........
04C0: 80 23 01 F6 04 02 00 10  12 80 00 DF 04 1D 86 80  .#..............
04D0: 23 1D 87 80 23 1A 05 07  1D 88 80 23 01 F6 04 02  #...#......#....
04E0: 00 10 22 80 00 F2 04 1D  89 80 23 1D 8A 80 23 01  ..".......#...#.
04F0: F6 04 1D 85 80 23 01 A9  05 02 01 00 22 80 80 71  .....#......"..q
0500: 05 1D 8B 80 23 1D 8C 80  23 48 8D 80 1A 05 07 1D  ....#...#H......
0510: 8E 80 23 45 47 80 F0 FF  FF 7F F0 FF FF 7F 66 64  ..#EG.........fd
0520: 6F 31 10 80 48 8F 80 1C  1A 80 1D 90 80 23 1D 91  o1..H........#..
0530: 80 23 45 47 80 F0 FF FF  7F F0 FF FF 7F 66 64 69  .#EG.........fdi
0540: 31 10 80 1C 1A 80 1D 92  80 23 48 93 80 1C 1A 80  1........#H.....
0550: 1D 94 80 23 1D 95 80 23  07 01 10 96 80 45 4E 80  ...#...#.....EN.
0560: F0 FF FF 7F F0 FF FF 7F  71 73 74 63 10 80 01 A9  ........qstc....
0570: 05 02 01 00 2A 80 80 88  05 1D 97 80 23 1D 98 80  ....*.......#...
0580: 23 1D 99 80 23 01 A9 05  02 01 00 52 80 80 9F 05  #...#......R....
0590: 1D 9A 80 23 1D 98 80 23  1D 99 80 23 01 A9 05 1D  ...#...#...#....
05A0: 9B 80 23 48 9C 80 1C 43  80 1B 03 08 00 9D 80 03  ..#H...C........
05B0: 05 10 08 00 4A F8 FF FF  7F F0 FF FF 7F 02 01 00  ....J...........
05C0: 10 80 80 DE 05 1D 9E 80  23 1D 9F 80 23 48 A0 80  ........#...#H..
05D0: 1C 1A 80 1D A1 80 23 1D  A2 80 23 01 04 07 02 01  ......#...#.....
05E0: 00 12 80 80 34 06 02 04  00 10 80 01 F2 05 1D A3  ....4...........
05F0: 80 23 02 05 00 10 80 01  FE 05 1D A4 80 23 02 06  .#...........#..
0600: 00 12 80 02 23 06 02 06  00 38 80 02 15 06 1D A5  ....#....8......
0610: 80 23 01 23 06 03 05 10  06 00 1D A6 80 23 03 05  .#.#.........#..
0620: 10 08 00 48 A7 80 1C 1A  80 1D A8 80 23 1D A9 80  ...H........#...
0630: 23 01 04 07 02 01 00 22  80 80 BB 06 1D AA 80 23  #......".......#
0640: 02 06 00 12 80 02 52 06  1D AB 80 23 48 AC 80 01  ......R....#H...
0650: 55 06 48 AD 80 1A 05 07  1D AE 80 23 1D AF 80 23  U.H........#...#
0660: 45 47 80 F0 FF FF 7F F0  FF FF 7F 66 64 6F 31 10  EG.........fdo1.
0670: 80 1C 1A 80 1D B0 80 23  1D B1 80 23 1D B2 80 23  .......#...#...#
0680: 45 47 80 F0 FF FF 7F F0  FF FF 7F 66 64 69 31 10  EG.........fdi1.
0690: 80 1C 1A 80 1D B3 80 23  48 B4 80 1A 05 07 1D B5  .......#H.......
06A0: 80 23 07 01 10 B6 80 45  4E 80 F0 FF FF 7F F0 FF  .#.....EN.......
06B0: FF 7F 71 73 74 63 10 80  01 04 07 02 01 00 2A 80  ..qstc........*.
06C0: 80 D6 06 1D B7 80 23 1D  B8 80 23 1D B9 80 23 1D  ......#...#...#.
06D0: BA 80 23 01 04 07 02 01  00 52 80 80 F1 06 1D BB  ..#......R......
06E0: 80 23 1D B8 80 23 1D B9  80 23 1D BA 80 23 01 04  .#...#...#...#..
06F0: 07 02 01 00 38 80 80 04  07 1D BC 80 23 1D BD 80  ....8.......#...
0700: 23 01 04 07 1B 7C 00 F8  FF FF 7F 81 00 F8 FF FF  #....|..........
0710: 7F 5B BE 80 F8 FF FF 7F  F8 FF FF 7F 68 61 69 30  .[..........hai0
0720: 53 F8 FF FF 7F F8 FF FF  7F 68 61 69 30 7C 01 F8  S........hai0|..
0730: FF FF 7F 81 01 F8 FF FF  7F 1B 7C 00 F8 FF FF 7F  ..........|.....
0740: 81 00 F8 FF FF 7F 5B BE  80 F8 FF FF 7F F8 FF FF  ......[.........
0750: 7F 62 69 6B 30 53 F8 FF  FF 7F F8 FF FF 7F 62 69  .bik0S........bi
0760: 6B 30 7C 01 F8 FF FF 7F  81 01 F8 FF FF 7F 1B 7B  k0|............{
0770: F8 FF FF 7F 1B 79 00 F8  FF FF 7F F0 FF FF 7F 1B  .....y..........
```

#### Opcodes

```
  0: 0x0001 [0x42] SET_CLI_EVENT_CANCEL_DATA()
  1: 0x0002 [0x03] ExtData[1]->WorkLocal[2] = Work_Zone[2]
  2: 0x0007 [0x03] ExtData[1]->WorkLocal[0] = Work_Zone[3]
  3: 0x000C [0x03] ExtData[1]->WorkLocal[1] = Work_Zone[4]
  4: 0x0011 [0x03] ExtData[1]->WorkLocal[3] = Work_Zone[8]
  5: 0x0016 [0x03] ExtData[1]->WorkLocal[7] = Work_Zone[9]
  6: 0x001B [0x03] ExtData[1]->WorkLocal[6] = Work_Zone[5]
  7: 0x0020 [0x03] ExtData[1]->WorkLocal[4] = Work_Zone[6]
  8: 0x0025 [0x03] ExtData[1]->WorkLocal[5] = Work_Zone[7]
  9: 0x002A [0x03] ExtData[1]->WorkLocal[1] = Work_Zone[4]
 10: 0x002F [0x03] Work_Zone[1] = ExtData[1]->WorkLocal[1]
 11: 0x0034 [0x02] IF !(ExtData[1]->WorkLocal[1] == 10*) GOTO 0x0042
 12: 0x003C [0x1A] CALL_SUBROUTINE(address=0x007F)
 13: 0x003F [0x01] GOTO 0x007D
 14: 0x0042 [0x02] IF !(ExtData[1]->WorkLocal[0] == 231*) GOTO 0x0050
 15: 0x004A [0x1A] CALL_SUBROUTINE(address=0x01BF)
 16: 0x004D [0x01] GOTO 0x007D
 17: 0x0050 [0x02] IF !(ExtData[1]->WorkLocal[0] == 236*) GOTO 0x005E
 18: 0x0058 [0x1A] CALL_SUBROUTINE(address=0x02F3)
 19: 0x005B [0x01] GOTO 0x007D
 20: 0x005E [0x02] IF !(ExtData[1]->WorkLocal[0] == 239*) GOTO 0x006C
 21: 0x0066 [0x1A] CALL_SUBROUTINE(address=0x0430)
 22: 0x0069 [0x01] GOTO 0x007D
 23: 0x006C [0x02] IF !(ExtData[1]->WorkLocal[0] == 246*) GOTO 0x007A
 24: 0x0074 [0x1A] CALL_SUBROUTINE(address=0x05AA)
 25: 0x0077 [0x01] GOTO 0x007D
 26: 0x007A [0x1A] CALL_SUBROUTINE(address=0x02F3)

SUBROUTINE_007D:
 27: 0x007D [0x21] END_EVENT
 28: 0x007E [0x00] END_REQSTACK()

SUBROUTINE_007F:
 29: 0x007F [0x02] IF !(ExtData[1]->WorkLocal[7] == 255*) GOTO 0x008A
 30: 0x0087 [0x01] GOTO 0x00D6
 31: 0x008A [0x02] IF !(ExtData[1]->WorkLocal[0] == 231*) GOTO 0x009D
 32: 0x0092 [0x1D] PRINT_EVENT_MESSAGE(message_id=12262*)
    → "I wish that all of San d'Oria was full of pretty flowerrrs..."
 33: 0x0095 [0x23] WAIT_FOR_DIALOG_INTERACTION
 34: 0x0096 [0x1D] PRINT_EVENT_MESSAGE(message_id=12263*)
    → "...I wonder if everrrybody knows about garrrdening."
 35: 0x0099 [0x23] WAIT_FOR_DIALOG_INTERACTION
 36: 0x009A [0x01] GOTO 0x00D6
 37: 0x009D [0x02] IF !(ExtData[1]->WorkLocal[0] == 236*) GOTO 0x00B0
 38: 0x00A5 [0x1D] PRINT_EVENT_MESSAGE(message_id=12264*)
    → "(Nobody knows the way to a girrrl's heart anymorrre...)"
 39: 0x00A8 [0x23] WAIT_FOR_DIALOG_INTERACTION
 40: 0x00A9 [0x1D] PRINT_EVENT_MESSAGE(message_id=12265*)
    → "(Now, if only somebody came along with one of those rrred beauties...)"
 41: 0x00AC [0x23] WAIT_FOR_DIALOG_INTERACTION
 42: 0x00AD [0x01] GOTO 0x00D6
 43: 0x00B0 [0x02] IF !(ExtData[1]->WorkLocal[0] == 239*) GOTO 0x00C3
 44: 0x00B8 [0x1D] PRINT_EVENT_MESSAGE(message_id=12266*)
    → "This is sooo cute...but members of the Star Onion Brrrigade are supposed to do only good deeds...but this is sooo cute."
 45: 0x00BB [0x23] WAIT_FOR_DIALOG_INTERACTION
 46: 0x00BC [0x1D] PRINT_EVENT_MESSAGE(message_id=12267*)
    → "Meooow... Wouldn't it be grrreat if my whole house was made of flowerrrs?"
 47: 0x00BF [0x23] WAIT_FOR_DIALOG_INTERACTION
 48: 0x00C0 [0x01] GOTO 0x00D6
 49: 0x00C3 [0x02] IF !(ExtData[1]->WorkLocal[0] == 246*) GOTO 0x00D6
 50: 0x00CB [0x1D] PRINT_EVENT_MESSAGE(message_id=12260*)
    → "The prrretty yellow rocks go round and round, Round and round, meow meow meow.t"
 51: 0x00CE [0x23] WAIT_FOR_DIALOG_INTERACTION
 52: 0x00CF [0x1D] PRINT_EVENT_MESSAGE(message_id=12261*)
    → "I want a rrrock that's nice and round, And a little yellow.t"
 53: 0x00D2 [0x23] WAIT_FOR_DIALOG_INTERACTION
 54: 0x00D3 [0x01] GOTO 0x00D6

SUBROUTINE_00D6:
 55: 0x00D6 [0x4A] EventEntity looks at LocalPlayer
 56: 0x00DF [0x1D] PRINT_EVENT_MESSAGE(message_id=6704*)
    → "Hey therrre, [mister/miss]! Have you heard? Have you?"
 57: 0x00E2 [0x23] WAIT_FOR_DIALOG_INTERACTION
 58: 0x00E3 [0x24] CREATE_DIALOG(message_id=6705*, default_option=0*, option_flags=0*)
    → "Well, have you? [What are you talking about?/Yes, I have!]"
 59: 0x00EA [0x25] WAIT_DIALOG_SELECT()
 60: 0x00EB [0x02] IF !(Work_Zone[0] == 0*) GOTO 0x00FD
 61: 0x00F3 [0x1D] PRINT_EVENT_MESSAGE(message_id=6707*)
    → "Do you rrreally wanna know? Really? Really? Listen! I know the secrets of gar-den-ing."
 62: 0x00F6 [0x23] WAIT_FOR_DIALOG_INTERACTION
 63: 0x00F7 [0x1A] CALL_SUBROUTINE(address=0x010D)
 64: 0x00FA [0x01] GOTO 0x010C
 65: 0x00FD [0x02] IF !(Work_Zone[0] == 1*) GOTO 0x010C
 66: 0x0105 [0x1D] PRINT_EVENT_MESSAGE(message_id=6706*)
    → "Reooow. Well, I guess I don't have to tell you, then."
 67: 0x0108 [0x23] WAIT_FOR_DIALOG_INTERACTION
 68: 0x0109 [0x01] GOTO 0x010C

SUBROUTINE_010C:
 69: 0x010C [0x1B] RETURN

SUBROUTINE_010D:
 70: 0x010D [0x03] ExtData[1]->WorkLocal[9] = 1*
 71: 0x0112 [0x1D] PRINT_EVENT_MESSAGE(message_id=6708*)
    → "What do you wanna know? What do you wanna know?"
 72: 0x0115 [0x23] WAIT_FOR_DIALOG_INTERACTION

SUBROUTINE_0116:
 73: 0x0116 [0x02] IF !(ExtData[1]->WorkLocal[9] <= 0*) GOTO 0x01BE
 74: 0x011E [0x24] CREATE_DIALOG(message_id=6709*, default_option=0*, option_flags=0*)
    → "What do you want to know? [What is gardening?/What do I need to start?/How do I garden?/Are there any limits?/Bye-bye!]"
 75: 0x0125 [0x25] WAIT_DIALOG_SELECT()
 76: 0x0126 [0x02] IF !(Work_Zone[0] == 0*) GOTO 0x0147
 77: 0x012E [0x1D] PRINT_EVENT_MESSAGE(message_id=6711*)
    → "Take a seed, plant it in a flowerpot, and leave the rest to your moogle! That's garrrdening!"
 78: 0x0131 [0x23] WAIT_FOR_DIALOG_INTERACTION
 79: 0x0132 [0x1D] PRINT_EVENT_MESSAGE(message_id=6712*)
    → "Then, after a while, a prrretty flower blooms!"
 80: 0x0135 [0x23] WAIT_FOR_DIALOG_INTERACTION
 81: 0x0136 [0x1D] PRINT_EVENT_MESSAGE(message_id=6713*)
    → "And then, and then the flower turrrns into fruit, and you can get all kinds of neat stuff!"
 82: 0x0139 [0x23] WAIT_FOR_DIALOG_INTERACTION
 83: 0x013A [0x48] [System] [6714*]:
    → "% stares off into the distance."
 84: 0x013D [0x1C] WAIT(120* ticks)
 85: 0x0140 [0x1D] PRINT_EVENT_MESSAGE(message_id=6715*)
    → "Oops! I was just thinking about all that delicious fruit. Purrrrrr..."
 86: 0x0143 [0x23] WAIT_FOR_DIALOG_INTERACTION
 87: 0x0144 [0x01] GOTO 0x01BB
 88: 0x0147 [0x02] IF !(Work_Zone[0] == 1*) GOTO 0x016C
 89: 0x014F [0x1D] PRINT_EVENT_MESSAGE(message_id=6716*)
    → "Um, okay, to start off, you're gonna need a flowerrrpot and some seeds."
 90: 0x0152 [0x23] WAIT_FOR_DIALOG_INTERACTION
 91: 0x0153 [0x1D] PRINT_EVENT_MESSAGE(message_id=6717*)
    → "You can buy flowerrrpots in town, but you're gonna have to go out and get your seeds from plant-monsterrrs."
 92: 0x0156 [0x23] WAIT_FOR_DIALOG_INTERACTION
 93: 0x0157 [0x1D] PRINT_EVENT_MESSAGE(message_id=6718*)
    → "And then guess what! Guess! Guess!"
 94: 0x015A [0x23] WAIT_FOR_DIALOG_INTERACTION
 95: 0x015B [0x1D] PRINT_EVENT_MESSAGE(message_id=6719*)
    → "Give your plant a crrrystal and its frrruit will change! Really!"
 96: 0x015E [0x23] WAIT_FOR_DIALOG_INTERACTION
 97: 0x015F [0x48] [System] [6720*]:
    → "% stares off into the distance."
 98: 0x0162 [0x1C] WAIT(120* ticks)
 99: 0x0165 [0x1D] PRINT_EVENT_MESSAGE(message_id=6721*)
    → "Oh! I was just thinking about all the different kinds of fruit and... Purrrrrr..."
100: 0x0168 [0x23] WAIT_FOR_DIALOG_INTERACTION
101: 0x0169 [0x01] GOTO 0x01BB
102: 0x016C [0x02] IF !(Work_Zone[0] == 2*) GOTO 0x0195
103: 0x0174 [0x1D] PRINT_EVENT_MESSAGE(message_id=6722*)
    → "You can sit back, relax and do all your garrrdening in your Mog House!t"
104: 0x0177 [0x23] WAIT_FOR_DIALOG_INTERACTION
105: 0x0178 [0x1D] PRINT_EVENT_MESSAGE(message_id=6723*)
    → "All you have to do is tell him what to do, and your moogle will do all the worrrk!t"
106: 0x017B [0x23] WAIT_FOR_DIALOG_INTERACTION
107: 0x017C [0x1D] PRINT_EVENT_MESSAGE(message_id=6724*)
    → "But make sure you check up on your plant sometimes, or it might..."
108: 0x017F [0x23] WAIT_FOR_DIALOG_INTERACTION
109: 0x0180 [0x48] [System] [6725*]:
    → "% looks a little sad."
110: 0x0183 [0x1C] WAIT(120* ticks)
111: 0x0186 [0x1D] PRINT_EVENT_MESSAGE(message_id=6726*)
    → "Well, just check up on your plant every now and then, okay? Prrromise?"
112: 0x0189 [0x23] WAIT_FOR_DIALOG_INTERACTION
113: 0x018A [0x1D] PRINT_EVENT_MESSAGE(message_id=6727*)
    → "Even if you're off on an adventurrre somewhere, your moogle will use his special powerrrs to take care of your plant!"
114: 0x018D [0x23] WAIT_FOR_DIALOG_INTERACTION
115: 0x018E [0x1D] PRINT_EVENT_MESSAGE(message_id=6728*)
    → "Moogles are so cool!"
116: 0x0191 [0x23] WAIT_FOR_DIALOG_INTERACTION
117: 0x0192 [0x01] GOTO 0x01BB
118: 0x0195 [0x02] IF !(Work_Zone[0] == 3*) GOTO 0x01B4
119: 0x019D [0x1D] PRINT_EVENT_MESSAGE(message_id=6729*)
    → "Um, um, I think you can have up to ten plants in yourrr room."
120: 0x01A0 [0x23] WAIT_FOR_DIALOG_INTERACTION
121: 0x01A1 [0x1D] PRINT_EVENT_MESSAGE(message_id=6730*)
    → "Any morrre and your moogle won't be able to handle it! They're rrreally busy, you know!"
122: 0x01A4 [0x23] WAIT_FOR_DIALOG_INTERACTION
123: 0x01A5 [0x1D] PRINT_EVENT_MESSAGE(message_id=6731*)
    → "And... Oh, yeah! You have to put your seeds and flowerpots in your Mog Safe beforrre you can use 'em!"
124: 0x01A8 [0x23] WAIT_FOR_DIALOG_INTERACTION
125: 0x01A9 [0x1D] PRINT_EVENT_MESSAGE(message_id=6732*)
    → "They need to be in therrre so your moogle can use his magic on 'em!"
126: 0x01AC [0x23] WAIT_FOR_DIALOG_INTERACTION
127: 0x01AD [0x1D] PRINT_EVENT_MESSAGE(message_id=6733*)
    → "Moogles are awesome!t"
128: 0x01B0 [0x23] WAIT_FOR_DIALOG_INTERACTION
129: 0x01B1 [0x01] GOTO 0x01BB
130: 0x01B4 [0x1D] PRINT_EVENT_MESSAGE(message_id=6710*)
    → "Meowww..."
131: 0x01B7 [0x23] WAIT_FOR_DIALOG_INTERACTION
132: 0x01B8 [0x06] ExtData[1]->WorkLocal[9] = 0

SUBROUTINE_01BB:
133: 0x01BB [0x01] GOTO 0x0116
134: 0x01BE [0x1B] RETURN

SUBROUTINE_01BF:
135: 0x01BF [0x03] ExtData[1]->WorkLocal[8] = 958*
136: 0x01C4 [0x03] Work_Zone[5] = ExtData[1]->WorkLocal[8]
137: 0x01C9 [0x4A] EventEntity looks at LocalPlayer
138: 0x01D2 [0x02] IF !(ExtData[1]->WorkLocal[1] == 0*) GOTO 0x01F3
139: 0x01DA [0x1D] PRINT_EVENT_MESSAGE(message_id=12373*)
    → "Meow? What's this?"
140: 0x01DD [0x23] WAIT_FOR_DIALOG_INTERACTION
141: 0x01DE [0x1D] PRINT_EVENT_MESSAGE(message_id=12374*)
    → "For me? Hmm..."
142: 0x01E1 [0x23] WAIT_FOR_DIALOG_INTERACTION
143: 0x01E2 [0x48] [System] [12375*]:
    → "% does not look that excited."
144: 0x01E5 [0x1C] WAIT(120* ticks)
145: 0x01E8 [0x1D] PRINT_EVENT_MESSAGE(message_id=12376*)
    → "I'd rather have a flowerrr like the one in Queen Leaute's garrrden."
146: 0x01EB [0x23] WAIT_FOR_DIALOG_INTERACTION
147: 0x01EC [0x1D] PRINT_EVENT_MESSAGE(message_id=12377*)
    → "Here, you can have this back."
148: 0x01EF [0x23] WAIT_FOR_DIALOG_INTERACTION
149: 0x01F0 [0x01] GOTO 0x02F2
150: 0x01F3 [0x02] IF !(ExtData[1]->WorkLocal[1] == 1*) GOTO 0x0237
151: 0x01FB [0x1D] PRINT_EVENT_MESSAGE(message_id=12378*)
    → "A flowerrr, for me? I have to show this to Mister Chalvatot!"
152: 0x01FE [0x23] WAIT_FOR_DIALOG_INTERACTION
153: 0x01FF [0x1A] CALL_SUBROUTINE(address=0x0705)
154: 0x0202 [0x02] IF !(ExtData[1]->WorkLocal[6] == 1*) GOTO 0x022C
155: 0x020A [0x02] IF !(ExtData[1]->WorkLocal[6] <= 5*) GOTO 0x0221
156: 0x0212 [0x1D] PRINT_EVENT_MESSAGE(message_id=12381*)
    → "Someday--someday--I'm gonna be just like Princess Claidie! Chalvatot said if I take rrreal good care of my flowerrrs that I could!"
157: 0x0215 [0x23] WAIT_FOR_DIALOG_INTERACTION
158: 0x0216 [0x1D] PRINT_EVENT_MESSAGE(message_id=12382*)
    → "I'm gonna take these and plant them all around San d'Orrria! Thank you!!"
159: 0x0219 [0x23] WAIT_FOR_DIALOG_INTERACTION
160: 0x021A [0x1D] PRINT_EVENT_MESSAGE(message_id=12383*)
    → "If I only had $3..."
161: 0x021D [0x23] WAIT_FOR_DIALOG_INTERACTION
162: 0x021E [0x01] GOTO 0x0229
163: 0x0221 [0x1D] PRINT_EVENT_MESSAGE(message_id=12380*)
    → "This little bouquet is just like the lovely bunch of flowers Mister Chalvatot gathered for me one time! Thank you so much!"
164: 0x0224 [0x23] WAIT_FOR_DIALOG_INTERACTION
165: 0x0225 [0x1D] PRINT_EVENT_MESSAGE(message_id=12384*)
    → "If I ever get $3, I'm gonna plant it in Queen Leaute's garden!t"
166: 0x0228 [0x23] WAIT_FOR_DIALOG_INTERACTION

SUBROUTINE_0229:
167: 0x0229 [0x01] GOTO 0x0234
168: 0x022C [0x1D] PRINT_EVENT_MESSAGE(message_id=12379*)
    → "You know--you know--Mister Chalvatot is always rrreally happy when I bring him flowerrrs.t"
169: 0x022F [0x23] WAIT_FOR_DIALOG_INTERACTION
170: 0x0230 [0x1D] PRINT_EVENT_MESSAGE(message_id=12384*)
    → "If I ever get $3, I'm gonna plant it in Queen Leaute's garden!t"
171: 0x0233 [0x23] WAIT_FOR_DIALOG_INTERACTION

SUBROUTINE_0234:
172: 0x0234 [0x01] GOTO 0x02F2
173: 0x0237 [0x02] IF !(ExtData[1]->WorkLocal[1] == 2*) GOTO 0x02C4
174: 0x023F [0x1C] WAIT(20* ticks)
175: 0x0242 [0x1A] CALL_SUBROUTINE(address=0x073A)
176: 0x0245 [0x1D] PRINT_EVENT_MESSAGE(message_id=12385*)
    → "Meooow! $3! For me? Yeah!"
177: 0x0248 [0x23] WAIT_FOR_DIALOG_INTERACTION
178: 0x0249 [0x1D] PRINT_EVENT_MESSAGE(message_id=12386*)
    → "Now--Now Queen Leaute's garden will be prrrettier than ever!"
179: 0x024C [0x23] WAIT_FOR_DIALOG_INTERACTION
180: 0x024D [0x1A] CALL_SUBROUTINE(address=0x0705)
181: 0x0250 [0x48] [System] [12387*]:
    → "% looks overwhelmingly pleased."
182: 0x0253 [0x1C] WAIT(60* ticks)
183: 0x0256 [0x1D] PRINT_EVENT_MESSAGE(message_id=12388*)
    → "You've been so nice. I wanna give you something to say thanks..."
184: 0x0259 [0x23] WAIT_FOR_DIALOG_INTERACTION
185: 0x025A [0x1A] CALL_SUBROUTINE(address=0x076F)
186: 0x025D [0x48] [System] [12389*]:
    → "% has a light bulb over her head."
187: 0x0260 [0x1C] WAIT(120* ticks)
188: 0x0263 [0x1A] CALL_SUBROUTINE(address=0x0775)
189: 0x0266 [0x1D] PRINT_EVENT_MESSAGE(message_id=12390*)
    → "I got it! I got it! I'll tell you my secrrret!"
190: 0x0269 [0x23] WAIT_FOR_DIALOG_INTERACTION
191: 0x026A [0x45] LOAD_SCHEDULED_TASK: Load scheduler "fdo1" with entities [LocalPlayer, LocalPlayer], work=[200*, 0*]
192: 0x027B [0x1C] WAIT(60* ticks)
193: 0x027E [0x1D] PRINT_EVENT_MESSAGE(message_id=12391*)
    → "(Meow meow meow meow...)"
194: 0x0281 [0x23] WAIT_FOR_DIALOG_INTERACTION
195: 0x0282 [0x1D] PRINT_EVENT_MESSAGE(message_id=12392*)
    → "(Meow meow meow meow...)"
196: 0x0285 [0x23] WAIT_FOR_DIALOG_INTERACTION
197: 0x0286 [0x45] LOAD_SCHEDULED_TASK: Load scheduler "fdi1" with entities [LocalPlayer, LocalPlayer], work=[200*, 0*]
198: 0x0297 [0x1C] WAIT(60* ticks)
199: 0x029A [0x1D] PRINT_EVENT_MESSAGE(message_id=12394*)
    → "But don't tell anyone, okay?"
200: 0x029D [0x23] WAIT_FOR_DIALOG_INTERACTION
201: 0x029E [0x1A] CALL_SUBROUTINE(address=0x0705)
202: 0x02A1 [0x48] [System] [12395*]:
    → "% looks very happy."
203: 0x02A4 [0x1A] CALL_SUBROUTINE(address=0x0705)
204: 0x02A7 [0x1D] PRINT_EVENT_MESSAGE(message_id=12396*)
    → "Secrett Secrett It's our little secret!t"
205: 0x02AA [0x23] WAIT_FOR_DIALOG_INTERACTION
206: 0x02AB [0x07] Work_Zone[1] += 1000*
207: 0x02B0 [0x45] LOAD_SCHEDULED_TASK: Load scheduler "qstc" with entities [LocalPlayer, LocalPlayer], work=[201*, 0*]
208: 0x02C1 [0x01] GOTO 0x02F2
209: 0x02C4 [0x02] IF !(ExtData[1]->WorkLocal[1] == 3*) GOTO 0x02DB
210: 0x02CC [0x1D] PRINT_EVENT_MESSAGE(message_id=12397*)
    → "Another one? Another one? Forrr me? Yeah!"
211: 0x02CF [0x23] WAIT_FOR_DIALOG_INTERACTION
212: 0x02D0 [0x1D] PRINT_EVENT_MESSAGE(message_id=12399*)
    → "... Umm, but I don't have anything to give you in returrrn."
213: 0x02D3 [0x23] WAIT_FOR_DIALOG_INTERACTION
214: 0x02D4 [0x1D] PRINT_EVENT_MESSAGE(message_id=12400*)
    → "I'm sorrry, but I can't take this. Thanks anyway! You will come and see the flowers I planted in the garden, though, won't you? Won't you?"
215: 0x02D7 [0x23] WAIT_FOR_DIALOG_INTERACTION
216: 0x02D8 [0x01] GOTO 0x02F2
217: 0x02DB [0x02] IF !(ExtData[1]->WorkLocal[1] == 4*) GOTO 0x02F2
218: 0x02E3 [0x1D] PRINT_EVENT_MESSAGE(message_id=12398*)
    → "Wow! I'll take this and plant it in the garden rrright now!"
219: 0x02E6 [0x23] WAIT_FOR_DIALOG_INTERACTION
220: 0x02E7 [0x1D] PRINT_EVENT_MESSAGE(message_id=12399*)
    → "... Umm, but I don't have anything to give you in returrrn."
221: 0x02EA [0x23] WAIT_FOR_DIALOG_INTERACTION
222: 0x02EB [0x1D] PRINT_EVENT_MESSAGE(message_id=12400*)
    → "I'm sorrry, but I can't take this. Thanks anyway! You will come and see the flowers I planted in the garden, though, won't you? Won't you?"
223: 0x02EE [0x23] WAIT_FOR_DIALOG_INTERACTION
224: 0x02EF [0x01] GOTO 0x02F2

SUBROUTINE_02F2:
225: 0x02F2 [0x1B] RETURN

SUBROUTINE_02F3:
226: 0x02F3 [0x03] ExtData[1]->WorkLocal[8] = 957*
227: 0x02F8 [0x03] Work_Zone[5] = ExtData[1]->WorkLocal[8]
228: 0x02FD [0x4A] EventEntity looks at LocalPlayer
229: 0x0306 [0x02] IF !(ExtData[1]->WorkLocal[1] == 0*) GOTO 0x032F
230: 0x030E [0x1D] PRINT_EVENT_MESSAGE(message_id=12340*)
    → "Meow? For me?"
231: 0x0311 [0x23] WAIT_FOR_DIALOG_INTERACTION
232: 0x0312 [0x1D] PRINT_EVENT_MESSAGE(message_id=12341*)
    → "..."
233: 0x0315 [0x23] WAIT_FOR_DIALOG_INTERACTION
234: 0x0316 [0x1D] PRINT_EVENT_MESSAGE(message_id=12342*)
    → "You, you, you..."
235: 0x0319 [0x23] WAIT_FOR_DIALOG_INTERACTION
236: 0x031A [0x1D] PRINT_EVENT_MESSAGE(message_id=12343*)
    → "You can't move the hearrrt of a lady with junk like this!"
237: 0x031D [0x1A] CALL_SUBROUTINE(address=0x0705)
238: 0x0320 [0x1D] PRINT_EVENT_MESSAGE(message_id=12344*)
    → "You'll need something more--more exciting, more excellent, more extrrravagant! Something like flowerrrs..."
239: 0x0323 [0x23] WAIT_FOR_DIALOG_INTERACTION
240: 0x0324 [0x1D] PRINT_EVENT_MESSAGE(message_id=12345*)
    → "There aren't many people who can imprrress me."
241: 0x0327 [0x23] WAIT_FOR_DIALOG_INTERACTION
242: 0x0328 [0x1D] PRINT_EVENT_MESSAGE(message_id=12346*)
    → "Herrre. I don't need this, [misterrr/miss]."
243: 0x032B [0x23] WAIT_FOR_DIALOG_INTERACTION
244: 0x032C [0x01] GOTO 0x042F
245: 0x032F [0x02] IF !(ExtData[1]->WorkLocal[1] == 1*) GOTO 0x036E
246: 0x0337 [0x1D] PRINT_EVENT_MESSAGE(message_id=12347*)
    → "How beautiful! You really know the way to a lady's hearrrt."
247: 0x033A [0x23] WAIT_FOR_DIALOG_INTERACTION
248: 0x033B [0x02] IF !(ExtData[1]->WorkLocal[6] <= 1*) GOTO 0x0359
249: 0x0343 [0x02] IF !(ExtData[1]->WorkLocal[6] <= 5*) GOTO 0x0352
250: 0x034B [0x1D] PRINT_EVENT_MESSAGE(message_id=12350*)
    → "And a full bouquet! You're starting to catch on, but anyone can brrring me this."
251: 0x034E [0x23] WAIT_FOR_DIALOG_INTERACTION
252: 0x034F [0x01] GOTO 0x0356
253: 0x0352 [0x1D] PRINT_EVENT_MESSAGE(message_id=12349*)
    → "This tiny bouquet is cute, but you're still far from imprrressing me!"
254: 0x0355 [0x23] WAIT_FOR_DIALOG_INTERACTION

SUBROUTINE_0356:
255: 0x0356 [0x01] GOTO 0x035D
256: 0x0359 [0x1D] PRINT_EVENT_MESSAGE(message_id=12348*)
    → "But this is just the basics. You've still got a ways to imprrress me!"
257: 0x035C [0x23] WAIT_FOR_DIALOG_INTERACTION

SUBROUTINE_035D:
258: 0x035D [0x48] [System] [12351*]:
    → "% smiles slyly at you."
259: 0x0360 [0x1C] WAIT(120* ticks)
260: 0x0363 [0x1D] PRINT_EVENT_MESSAGE(message_id=12352*)
    → "If you really want to melt a girls' hearrrt, you should trrry $3."
261: 0x0366 [0x23] WAIT_FOR_DIALOG_INTERACTION
262: 0x0367 [0x1D] PRINT_EVENT_MESSAGE(message_id=12353*)
    → "Well, thanks anyway for the flowerrrs! La la la la lat"
263: 0x036A [0x23] WAIT_FOR_DIALOG_INTERACTION
264: 0x036B [0x01] GOTO 0x042F
265: 0x036E [0x02] IF !(ExtData[1]->WorkLocal[1] == 2*) GOTO 0x03E6
266: 0x0376 [0x1D] PRINT_EVENT_MESSAGE(message_id=12354*)
    → "What's this..."
267: 0x0379 [0x1A] CALL_SUBROUTINE(address=0x073A)
268: 0x037C [0x1D] PRINT_EVENT_MESSAGE(message_id=12355*)
    → "..."
269: 0x037F [0x23] WAIT_FOR_DIALOG_INTERACTION
270: 0x0380 [0x48] [System] [12356*]:
    → "% looks very happy!"
271: 0x0383 [0x1A] CALL_SUBROUTINE(address=0x0705)
272: 0x0386 [0x1D] PRINT_EVENT_MESSAGE(message_id=12357*)
    → "This is it! The colorrr! The shape! The frrragrance! Purrrrr..."
273: 0x0389 [0x23] WAIT_FOR_DIALOG_INTERACTION
274: 0x038A [0x1D] PRINT_EVENT_MESSAGE(message_id=12358*)
    → "I have to admit it. You rrreally know how to imprrress a girl."
275: 0x038D [0x23] WAIT_FOR_DIALOG_INTERACTION
276: 0x038E [0x48] [System] [12359*]:
    → "% checks the area before approaching you."
277: 0x0391 [0x45] LOAD_SCHEDULED_TASK: Load scheduler "fdo1" with entities [LocalPlayer, LocalPlayer], work=[200*, 0*]
278: 0x03A2 [0x1C] WAIT(120* ticks)
279: 0x03A5 [0x1D] PRINT_EVENT_MESSAGE(message_id=12360*)
    → "(Um...I just, I just wanted to say...)"
280: 0x03A8 [0x23] WAIT_FOR_DIALOG_INTERACTION
281: 0x03A9 [0x1D] PRINT_EVENT_MESSAGE(message_id=12361*)
    → "(You can always come back to visit...if you ever have any extra flowerrrs...)"
282: 0x03AC [0x23] WAIT_FOR_DIALOG_INTERACTION
283: 0x03AD [0x1D] PRINT_EVENT_MESSAGE(message_id=12362*)
    → "(Oh yeah, and I'll teach you some of the back alleys...so you can get here easily...)"
284: 0x03B0 [0x23] WAIT_FOR_DIALOG_INTERACTION
285: 0x03B1 [0x1D] PRINT_EVENT_MESSAGE(message_id=12363*)
    → "(You just go down....)"
286: 0x03B4 [0x23] WAIT_FOR_DIALOG_INTERACTION
287: 0x03B5 [0x45] LOAD_SCHEDULED_TASK: Load scheduler "fdi1" with entities [LocalPlayer, LocalPlayer], work=[200*, 0*]
288: 0x03C6 [0x1C] WAIT(60* ticks)
289: 0x03C9 [0x1D] PRINT_EVENT_MESSAGE(message_id=12365*)
    → "<Giggle> Thank you!"
290: 0x03CC [0x23] WAIT_FOR_DIALOG_INTERACTION
291: 0x03CD [0x07] Work_Zone[1] += 2000*
292: 0x03D2 [0x45] LOAD_SCHEDULED_TASK: Load scheduler "qstc" with entities [LocalPlayer, LocalPlayer], work=[201*, 0*]
293: 0x03E3 [0x01] GOTO 0x042F
294: 0x03E6 [0x02] IF !(ExtData[1]->WorkLocal[1] == 3*) GOTO 0x03FD
295: 0x03EE [0x1D] PRINT_EVENT_MESSAGE(message_id=12366*)
    → "You've rrreally touched my hearrrt.t"
296: 0x03F1 [0x23] WAIT_FOR_DIALOG_INTERACTION
297: 0x03F2 [0x1D] PRINT_EVENT_MESSAGE(message_id=12369*)
    → "If I took all the norrrmal gifts I got from my fans, I wouldn't have any room for the rrreally nice gifts."
298: 0x03F5 [0x23] WAIT_FOR_DIALOG_INTERACTION
299: 0x03F6 [0x1D] PRINT_EVENT_MESSAGE(message_id=12370*)
    → "You can have this back!"
300: 0x03F9 [0x23] WAIT_FOR_DIALOG_INTERACTION
301: 0x03FA [0x01] GOTO 0x042F
302: 0x03FD [0x02] IF !(ExtData[1]->WorkLocal[1] == 4*) GOTO 0x0418
303: 0x0405 [0x1D] PRINT_EVENT_MESSAGE(message_id=12367*)
    → "Another one! You know that this is my favorrrite! Thank you!t"
304: 0x0408 [0x23] WAIT_FOR_DIALOG_INTERACTION
305: 0x0409 [0x1D] PRINT_EVENT_MESSAGE(message_id=12369*)
    → "If I took all the norrrmal gifts I got from my fans, I wouldn't have any room for the rrreally nice gifts."
306: 0x040C [0x23] WAIT_FOR_DIALOG_INTERACTION
307: 0x040D [0x1D] PRINT_EVENT_MESSAGE(message_id=12371*)
    → "It's tough being adorrred by hundrrreds, but I guess I'll have to get used to it."
308: 0x0410 [0x23] WAIT_FOR_DIALOG_INTERACTION
309: 0x0411 [0x1D] PRINT_EVENT_MESSAGE(message_id=12372*)
    → "You can have this flowerrr back."
310: 0x0414 [0x23] WAIT_FOR_DIALOG_INTERACTION
311: 0x0415 [0x01] GOTO 0x042F
312: 0x0418 [0x02] IF !(ExtData[1]->WorkLocal[1] == 5*) GOTO 0x042F
313: 0x0420 [0x1D] PRINT_EVENT_MESSAGE(message_id=12368*)
    → "Meow? Did you already forrrget the way to a girrrl's heart?"
314: 0x0423 [0x23] WAIT_FOR_DIALOG_INTERACTION
315: 0x0424 [0x1D] PRINT_EVENT_MESSAGE(message_id=12371*)
    → "It's tough being adorrred by hundrrreds, but I guess I'll have to get used to it."
316: 0x0427 [0x23] WAIT_FOR_DIALOG_INTERACTION
317: 0x0428 [0x1D] PRINT_EVENT_MESSAGE(message_id=12370*)
    → "You can have this back!"
318: 0x042B [0x23] WAIT_FOR_DIALOG_INTERACTION
319: 0x042C [0x01] GOTO 0x042F

SUBROUTINE_042F:
320: 0x042F [0x1B] RETURN

SUBROUTINE_0430:
321: 0x0430 [0x03] ExtData[1]->WorkLocal[8] = 956*
322: 0x0435 [0x03] Work_Zone[5] = ExtData[1]->WorkLocal[8]
323: 0x043A [0x4A] EventEntity looks at LocalPlayer
324: 0x0443 [0x02] IF !(ExtData[1]->WorkLocal[1] == 0*) GOTO 0x0464
325: 0x044B [0x1D] PRINT_EVENT_MESSAGE(message_id=12302*)
    → "Meow? Is this for me?"
326: 0x044E [0x23] WAIT_FOR_DIALOG_INTERACTION
327: 0x044F [0x1D] PRINT_EVENT_MESSAGE(message_id=12303*)
    → "I'm happy, but..."
328: 0x0452 [0x23] WAIT_FOR_DIALOG_INTERACTION
329: 0x0453 [0x48] [System] [12304*]:
    → "% looks a little confused."
330: 0x0456 [0x1C] WAIT(120* ticks)
331: 0x0459 [0x1D] PRINT_EVENT_MESSAGE(message_id=12305*)
    → "But what I rrreally want is a prrretty flower to put in my vase at home..."
332: 0x045C [0x23] WAIT_FOR_DIALOG_INTERACTION
333: 0x045D [0x1D] PRINT_EVENT_MESSAGE(message_id=12306*)
    → "Thanks for the offerrr, though, [misterrr/miss]."
334: 0x0460 [0x23] WAIT_FOR_DIALOG_INTERACTION
335: 0x0461 [0x01] GOTO 0x05A9
336: 0x0464 [0x02] IF !(ExtData[1]->WorkLocal[1] == 1*) GOTO 0x04F9
337: 0x046C [0x1D] PRINT_EVENT_MESSAGE(message_id=12307*)
    → "Meow? A prrresent for me? Wow! Purrrrrrr..."
338: 0x046F [0x23] WAIT_FOR_DIALOG_INTERACTION
339: 0x0470 [0x02] IF !(ExtData[1]->WorkLocal[6] <= 1*) GOTO 0x0495
340: 0x0478 [0x02] IF !(ExtData[1]->WorkLocal[6] <= 5*) GOTO 0x0487
341: 0x0480 [0x1D] PRINT_EVENT_MESSAGE(message_id=12309*)
    → "With all these, I won't have to pick any flowerrrs here for my rrroom."
342: 0x0483 [0x23] WAIT_FOR_DIALOG_INTERACTION
343: 0x0484 [0x01] GOTO 0x0495
344: 0x0487 [0x03] Work_Zone[5] = ExtData[1]->WorkLocal[6]
345: 0x048C [0x1D] PRINT_EVENT_MESSAGE(message_id=12308*)
    → "$3 prrretty flowerrrs for me? These will look grrreat in my room!"
346: 0x048F [0x23] WAIT_FOR_DIALOG_INTERACTION
347: 0x0490 [0x03] Work_Zone[5] = ExtData[1]->WorkLocal[8]

SUBROUTINE_0495:
348: 0x0495 [0x1D] PRINT_EVENT_MESSAGE(message_id=12310*)
    → "I looove all kinds of flowerrrs. Especially prrretty $3!"
349: 0x0498 [0x23] WAIT_FOR_DIALOG_INTERACTION
350: 0x0499 [0x48] [System] [12311*]:
    → "% looks very happy."
351: 0x049C [0x1C] WAIT(120* ticks)
352: 0x049F [0x1D] PRINT_EVENT_MESSAGE(message_id=12312*)
    → "Thank you, [misterrr/miss]!"
353: 0x04A2 [0x23] WAIT_FOR_DIALOG_INTERACTION
354: 0x04A3 [0x1C] WAIT(60* ticks)
355: 0x04A6 [0x1D] PRINT_EVENT_MESSAGE(message_id=12313*)
    → "..."
356: 0x04A9 [0x23] WAIT_FOR_DIALOG_INTERACTION
357: 0x04AA [0x1D] PRINT_EVENT_MESSAGE(message_id=12314*)
    → "Yes?"
358: 0x04AD [0x23] WAIT_FOR_DIALOG_INTERACTION
359: 0x04AE [0x24] CREATE_DIALOG(message_id=12315*, default_option=0*, option_flags=0*)
    → "Do you have anything else to say? [Bye bye!/Don't I get anything else?/...]"
360: 0x04B5 [0x25] WAIT_DIALOG_SELECT()
361: 0x04B6 [0x02] IF !(Work_Zone[0] == 0*) GOTO 0x04C5
362: 0x04BE [0x1D] PRINT_EVENT_MESSAGE(message_id=12316*)
    → "By`e!t"
363: 0x04C1 [0x23] WAIT_FOR_DIALOG_INTERACTION
364: 0x04C2 [0x01] GOTO 0x04F6
365: 0x04C5 [0x02] IF !(Work_Zone[0] == 1*) GOTO 0x04DF
366: 0x04CD [0x1D] PRINT_EVENT_MESSAGE(message_id=12319*)
    → "Umm...anything...umm...else?"
367: 0x04D0 [0x23] WAIT_FOR_DIALOG_INTERACTION
368: 0x04D1 [0x1D] PRINT_EVENT_MESSAGE(message_id=12320*)
    → "Three cheers for <Player>! Yeah! Yeah! Yeah!"
369: 0x04D4 [0x23] WAIT_FOR_DIALOG_INTERACTION
370: 0x04D5 [0x1A] CALL_SUBROUTINE(address=0x0705)
371: 0x04D8 [0x1D] PRINT_EVENT_MESSAGE(message_id=12321*)
    → "(I hope that was enough...)"
372: 0x04DB [0x23] WAIT_FOR_DIALOG_INTERACTION
373: 0x04DC [0x01] GOTO 0x04F6
374: 0x04DF [0x02] IF !(Work_Zone[0] == 2*) GOTO 0x04F2
375: 0x04E7 [0x1D] PRINT_EVENT_MESSAGE(message_id=12317*)
    → "(I wonderrr what's wrong with [him/herrr]..?)"
376: 0x04EA [0x23] WAIT_FOR_DIALOG_INTERACTION
377: 0x04EB [0x1D] PRINT_EVENT_MESSAGE(message_id=12318*)
    → "(I alrrready said thank you...mew...)"
378: 0x04EE [0x23] WAIT_FOR_DIALOG_INTERACTION
379: 0x04EF [0x01] GOTO 0x04F6
380: 0x04F2 [0x1D] PRINT_EVENT_MESSAGE(message_id=12316*)
    → "By`e!t"
381: 0x04F5 [0x23] WAIT_FOR_DIALOG_INTERACTION

SUBROUTINE_04F6:
382: 0x04F6 [0x01] GOTO 0x05A9
383: 0x04F9 [0x02] IF !(ExtData[1]->WorkLocal[1] == 2*) GOTO 0x0571
384: 0x0501 [0x1D] PRINT_EVENT_MESSAGE(message_id=12322*)
    → "Is this really--Is this really? $3, forrr me? It's sooo prrretty!"
385: 0x0504 [0x23] WAIT_FOR_DIALOG_INTERACTION
386: 0x0505 [0x1D] PRINT_EVENT_MESSAGE(message_id=12323*)
    → "This is my favorrrite flowerrr in the whole wide worrrld! Purrrrrrr..."
387: 0x0508 [0x23] WAIT_FOR_DIALOG_INTERACTION
388: 0x0509 [0x48] [System] [12324*]:
    → "% looks very, VERY happy."
389: 0x050C [0x1A] CALL_SUBROUTINE(address=0x0705)
390: 0x050F [0x1D] PRINT_EVENT_MESSAGE(message_id=12325*)
    → "OK! I'll let you in on a little secrrret..."
391: 0x0512 [0x23] WAIT_FOR_DIALOG_INTERACTION
392: 0x0513 [0x45] LOAD_SCHEDULED_TASK: Load scheduler "fdo1" with entities [LocalPlayer, LocalPlayer], work=[200*, 0*]
393: 0x0524 [0x48] [System] [12326*]:
    → "% starts whispering something in your ear."
394: 0x0527 [0x1C] WAIT(120* ticks)
395: 0x052A [0x1D] PRINT_EVENT_MESSAGE(message_id=12327*)
    → "(But you have to prrromise not to tell anybody...)"
396: 0x052D [0x23] WAIT_FOR_DIALOG_INTERACTION
397: 0x052E [0x1D] PRINT_EVENT_MESSAGE(message_id=12328*)
    → "iWhisper...meow...whisper)"
398: 0x0531 [0x23] WAIT_FOR_DIALOG_INTERACTION
399: 0x0532 [0x45] LOAD_SCHEDULED_TASK: Load scheduler "fdi1" with entities [LocalPlayer, LocalPlayer], work=[200*, 0*]
400: 0x0543 [0x1C] WAIT(120* ticks)
401: 0x0546 [0x1D] PRINT_EVENT_MESSAGE(message_id=12330*)
    → "Heh-heh... Pretty cool, huh?"
402: 0x0549 [0x23] WAIT_FOR_DIALOG_INTERACTION
403: 0x054A [0x48] [System] [12331*]:
    → "% looks pleased with herself."
404: 0x054D [0x1C] WAIT(120* ticks)
405: 0x0550 [0x1D] PRINT_EVENT_MESSAGE(message_id=12332*)
    → "Don't forrrget, you prrromised not to tell anybody! Not even the other memberrrs of the Star Onion Brigade!"
406: 0x0553 [0x23] WAIT_FOR_DIALOG_INTERACTION
407: 0x0554 [0x1D] PRINT_EVENT_MESSAGE(message_id=12333*)
    → "This is just between you and me!"
408: 0x0557 [0x23] WAIT_FOR_DIALOG_INTERACTION
409: 0x0558 [0x07] Work_Zone[1] += 3000*
410: 0x055D [0x45] LOAD_SCHEDULED_TASK: Load scheduler "qstc" with entities [LocalPlayer, LocalPlayer], work=[201*, 0*]
411: 0x056E [0x01] GOTO 0x05A9
412: 0x0571 [0x02] IF !(ExtData[1]->WorkLocal[1] == 3*) GOTO 0x0588
413: 0x0579 [0x1D] PRINT_EVENT_MESSAGE(message_id=12334*)
    → "Thank yout Thank yout Thank yout"
414: 0x057C [0x23] WAIT_FOR_DIALOG_INTERACTION
415: 0x057D [0x1D] PRINT_EVENT_MESSAGE(message_id=12336*)
    → "But I've rrrun out of vases to put them in! You can have this back."
416: 0x0580 [0x23] WAIT_FOR_DIALOG_INTERACTION
417: 0x0581 [0x1D] PRINT_EVENT_MESSAGE(message_id=12337*)
    → "It's a prrresent from me to you!"
418: 0x0584 [0x23] WAIT_FOR_DIALOG_INTERACTION
419: 0x0585 [0x01] GOTO 0x05A9
420: 0x0588 [0x02] IF !(ExtData[1]->WorkLocal[1] == 4*) GOTO 0x059F
421: 0x0590 [0x1D] PRINT_EVENT_MESSAGE(message_id=12335*)
    → "Thank you for all the prrretty flowerrrs!t"
422: 0x0593 [0x23] WAIT_FOR_DIALOG_INTERACTION
423: 0x0594 [0x1D] PRINT_EVENT_MESSAGE(message_id=12336*)
    → "But I've rrrun out of vases to put them in! You can have this back."
424: 0x0597 [0x23] WAIT_FOR_DIALOG_INTERACTION
425: 0x0598 [0x1D] PRINT_EVENT_MESSAGE(message_id=12337*)
    → "It's a prrresent from me to you!"
426: 0x059B [0x23] WAIT_FOR_DIALOG_INTERACTION
427: 0x059C [0x01] GOTO 0x05A9
428: 0x059F [0x1D] PRINT_EVENT_MESSAGE(message_id=12338*)
    → "Flowerrrs...purrrrrr..."
429: 0x05A2 [0x23] WAIT_FOR_DIALOG_INTERACTION
430: 0x05A3 [0x48] [System] [12339*]:
    → "% can't take her eyes off the flowers in front of her, and pays no attention to your gift."
431: 0x05A6 [0x1C] WAIT(60* ticks)

SUBROUTINE_05A9:
432: 0x05A9 [0x1B] RETURN

SUBROUTINE_05AA:
433: 0x05AA [0x03] ExtData[1]->WorkLocal[8] = 771*
434: 0x05AF [0x03] Work_Zone[5] = ExtData[1]->WorkLocal[8]
435: 0x05B4 [0x4A] EventEntity looks at LocalPlayer
436: 0x05BD [0x02] IF !(ExtData[1]->WorkLocal[1] == 0*) GOTO 0x05DE
437: 0x05C5 [0x1D] PRINT_EVENT_MESSAGE(message_id=12269*)
    → "Reooow? You'rrre giving this to me?"
438: 0x05C8 [0x23] WAIT_FOR_DIALOG_INTERACTION
439: 0x05C9 [0x1D] PRINT_EVENT_MESSAGE(message_id=12270*)
    → "Meooow... But this...meooow..."
440: 0x05CC [0x23] WAIT_FOR_DIALOG_INTERACTION
441: 0x05CD [0x48] [System] [12271*]:
    → "% looks a little confused."
442: 0x05D0 [0x1C] WAIT(120* ticks)
443: 0x05D3 [0x1D] PRINT_EVENT_MESSAGE(message_id=12272*)
    → "I only like prrretty flowerrrs and prrretty rocks. Don't need anything else."
444: 0x05D6 [0x23] WAIT_FOR_DIALOG_INTERACTION
445: 0x05D7 [0x1D] PRINT_EVENT_MESSAGE(message_id=12273*)
    → "Prrretty yellow rocks! That's what I'm collecting!"
446: 0x05DA [0x23] WAIT_FOR_DIALOG_INTERACTION
447: 0x05DB [0x01] GOTO 0x0704
448: 0x05DE [0x02] IF !(ExtData[1]->WorkLocal[1] == 1*) GOTO 0x0634
449: 0x05E6 [0x02] IF !(ExtData[1]->WorkLocal[4] == 0*) GOTO 0x05F2
450: 0x05EE [0x1D] PRINT_EVENT_MESSAGE(message_id=12274*)
    → "Wow! What a prrretty flowerrr! It smells sooo good!"
451: 0x05F1 [0x23] WAIT_FOR_DIALOG_INTERACTION
452: 0x05F2 [0x02] IF !(ExtData[1]->WorkLocal[5] == 0*) GOTO 0x05FE
453: 0x05FA [0x1D] PRINT_EVENT_MESSAGE(message_id=12275*)
    → "Wow! What a prrretty rock! It's sooo smooth!"
454: 0x05FD [0x23] WAIT_FOR_DIALOG_INTERACTION
455: 0x05FE [0x02] IF !(ExtData[1]->WorkLocal[6] <= 1*) GOTO 0x0623
456: 0x0606 [0x02] IF !(ExtData[1]->WorkLocal[6] <= 5*) GOTO 0x0615
457: 0x060E [0x1D] PRINT_EVENT_MESSAGE(message_id=12277*)
    → "Now my room will be full of prrretty rocks and flowerrrs! Heh heh!"
458: 0x0611 [0x23] WAIT_FOR_DIALOG_INTERACTION
459: 0x0612 [0x01] GOTO 0x0623
460: 0x0615 [0x03] Work_Zone[5] = ExtData[1]->WorkLocal[6]
461: 0x061A [0x1D] PRINT_EVENT_MESSAGE(message_id=12276*)
    → "$3! I'm sooo happy! Purrrrrr..."
462: 0x061D [0x23] WAIT_FOR_DIALOG_INTERACTION
463: 0x061E [0x03] Work_Zone[5] = ExtData[1]->WorkLocal[8]

SUBROUTINE_0623:
464: 0x0623 [0x48] [System] [12278*]:
    → "%looks very happy."
465: 0x0626 [0x1C] WAIT(120* ticks)
466: 0x0629 [0x1D] PRINT_EVENT_MESSAGE(message_id=12279*)
    → "Now, all my collection needs is $3!"
467: 0x062C [0x23] WAIT_FOR_DIALOG_INTERACTION
468: 0x062D [0x1D] PRINT_EVENT_MESSAGE(message_id=12280*)
    → "Anyway, thanks, [misterrr/miss]t"
469: 0x0630 [0x23] WAIT_FOR_DIALOG_INTERACTION
470: 0x0631 [0x01] GOTO 0x0704
471: 0x0634 [0x02] IF !(ExtData[1]->WorkLocal[1] == 2*) GOTO 0x06BB
472: 0x063C [0x1D] PRINT_EVENT_MESSAGE(message_id=12281*)
    → "Meooow! This is the one! This is the one!"
473: 0x063F [0x23] WAIT_FOR_DIALOG_INTERACTION
474: 0x0640 [0x02] IF !(ExtData[1]->WorkLocal[6] <= 1*) GOTO 0x0652
475: 0x0648 [0x1D] PRINT_EVENT_MESSAGE(message_id=12283*)
    → "This one is grrreat, too! You got all these forrr me?"
476: 0x064B [0x23] WAIT_FOR_DIALOG_INTERACTION
477: 0x064C [0x48] [System] [12285*]:
    → "% looks really, REALLY happy."
478: 0x064F [0x01] GOTO 0x0655
479: 0x0652 [0x48] [System] [12284*]:
    → "% looks really happy."

SUBROUTINE_0655:
480: 0x0655 [0x1A] CALL_SUBROUTINE(address=0x0705)
481: 0x0658 [0x1D] PRINT_EVENT_MESSAGE(message_id=12286*)
    → "You're the grrreatest!!"
482: 0x065B [0x23] WAIT_FOR_DIALOG_INTERACTION
483: 0x065C [0x1D] PRINT_EVENT_MESSAGE(message_id=12287*)
    → "I can't give you anything in returrrn, but I can tell you my secrrret!"
484: 0x065F [0x23] WAIT_FOR_DIALOG_INTERACTION
485: 0x0660 [0x45] LOAD_SCHEDULED_TASK: Load scheduler "fdo1" with entities [LocalPlayer, LocalPlayer], work=[200*, 0*]
486: 0x0671 [0x1C] WAIT(120* ticks)
487: 0x0674 [0x1D] PRINT_EVENT_MESSAGE(message_id=12288*)
    → "Come closerrr..."
488: 0x0677 [0x23] WAIT_FOR_DIALOG_INTERACTION
489: 0x0678 [0x1D] PRINT_EVENT_MESSAGE(message_id=12289*)
    → "(Meow meow meow meow...)"
490: 0x067B [0x23] WAIT_FOR_DIALOG_INTERACTION
491: 0x067C [0x1D] PRINT_EVENT_MESSAGE(message_id=12290*)
    → "(Meow meow meow meow...)"
492: 0x067F [0x23] WAIT_FOR_DIALOG_INTERACTION
493: 0x0680 [0x45] LOAD_SCHEDULED_TASK: Load scheduler "fdi1" with entities [LocalPlayer, LocalPlayer], work=[200*, 0*]
494: 0x0691 [0x1C] WAIT(120* ticks)
495: 0x0694 [0x1D] PRINT_EVENT_MESSAGE(message_id=12292*)
    → "Heh-heh..."
496: 0x0697 [0x23] WAIT_FOR_DIALOG_INTERACTION
497: 0x0698 [0x48] [System] [12293*]:
    → "% looks extremely happy."
498: 0x069B [0x1A] CALL_SUBROUTINE(address=0x0705)
499: 0x069E [0x1D] PRINT_EVENT_MESSAGE(message_id=12294*)
    → "Don't tell anybody I told you that! It'll be our little secrrret!"
500: 0x06A1 [0x23] WAIT_FOR_DIALOG_INTERACTION
501: 0x06A2 [0x07] Work_Zone[1] += 4000*
502: 0x06A7 [0x45] LOAD_SCHEDULED_TASK: Load scheduler "qstc" with entities [LocalPlayer, LocalPlayer], work=[201*, 0*]
503: 0x06B8 [0x01] GOTO 0x0704
504: 0x06BB [0x02] IF !(ExtData[1]->WorkLocal[1] == 3*) GOTO 0x06D6
505: 0x06C3 [0x1D] PRINT_EVENT_MESSAGE(message_id=12295*)
    → "Wow! Thanks! My house is filled with prrretty flowers!"
506: 0x06C6 [0x23] WAIT_FOR_DIALOG_INTERACTION
507: 0x06C7 [0x1D] PRINT_EVENT_MESSAGE(message_id=12297*)
    → "But my moogle, my moogle is rrreally upset. She says we don't have any more space in my house!"
508: 0x06CA [0x23] WAIT_FOR_DIALOG_INTERACTION
509: 0x06CB [0x1D] PRINT_EVENT_MESSAGE(message_id=12298*)
    → ""You have no more room, kupo!" Reooow... Give me a brrreak!"
510: 0x06CE [0x23] WAIT_FOR_DIALOG_INTERACTION
511: 0x06CF [0x1D] PRINT_EVENT_MESSAGE(message_id=12299*)
    → "So, you can have that back! I guess I'll just have to give up on it this time. (Sigh)"
512: 0x06D2 [0x23] WAIT_FOR_DIALOG_INTERACTION
513: 0x06D3 [0x01] GOTO 0x0704
514: 0x06D6 [0x02] IF !(ExtData[1]->WorkLocal[1] == 4*) GOTO 0x06F1
515: 0x06DE [0x1D] PRINT_EVENT_MESSAGE(message_id=12296*)
    → "Wow! More yellow rocks! My house gets prrrettier every day!"
516: 0x06E1 [0x23] WAIT_FOR_DIALOG_INTERACTION
517: 0x06E2 [0x1D] PRINT_EVENT_MESSAGE(message_id=12297*)
    → "But my moogle, my moogle is rrreally upset. She says we don't have any more space in my house!"
518: 0x06E5 [0x23] WAIT_FOR_DIALOG_INTERACTION
519: 0x06E6 [0x1D] PRINT_EVENT_MESSAGE(message_id=12298*)
    → ""You have no more room, kupo!" Reooow... Give me a brrreak!"
520: 0x06E9 [0x23] WAIT_FOR_DIALOG_INTERACTION
521: 0x06EA [0x1D] PRINT_EVENT_MESSAGE(message_id=12299*)
    → "So, you can have that back! I guess I'll just have to give up on it this time. (Sigh)"
522: 0x06ED [0x23] WAIT_FOR_DIALOG_INTERACTION
523: 0x06EE [0x01] GOTO 0x0704
524: 0x06F1 [0x02] IF !(ExtData[1]->WorkLocal[1] == 5*) GOTO 0x0704
525: 0x06F9 [0x1D] PRINT_EVENT_MESSAGE(message_id=12300*)
    → "Hee-hee. [Misterrr/Miss], I don't need this."
526: 0x06FC [0x23] WAIT_FOR_DIALOG_INTERACTION
527: 0x06FD [0x1D] PRINT_EVENT_MESSAGE(message_id=12301*)
    → "I'd like to keep it, too, but I'm already out of space in my room..."
528: 0x0700 [0x23] WAIT_FOR_DIALOG_INTERACTION
529: 0x0701 [0x01] GOTO 0x0704

SUBROUTINE_0704:
530: 0x0704 [0x1B] RETURN

SUBROUTINE_0705:
531: 0x0705 [0x7C] EventEntity->Render.Flags2 |= 0x00
532: 0x070B [0x81] SET_ENTITY_BLINKING(blink_flag=0x00, entity=EventEntity)
533: 0x0711 [0x5B] LOAD_EXT_SCHEDULER: Load scheduler "hai0" with entities [EventEntity, EventEntity], work=81*
534: 0x0720 [0x53] WAIT_SCHEDULER_TASK: Wait for scheduler "hai0" with entities [EventEntity, EventEntity]
535: 0x072D [0x7C] EventEntity->Render.Flags2 |= 0x01
536: 0x0733 [0x81] SET_ENTITY_BLINKING(blink_flag=0x01, entity=EventEntity)
537: 0x0739 [0x1B] RETURN

SUBROUTINE_073A:
538: 0x073A [0x7C] EventEntity->Render.Flags2 |= 0x00
539: 0x0740 [0x81] SET_ENTITY_BLINKING(blink_flag=0x00, entity=EventEntity)
540: 0x0746 [0x5B] LOAD_EXT_SCHEDULER: Load scheduler "bik0" with entities [EventEntity, EventEntity], work=81*
541: 0x0755 [0x53] WAIT_SCHEDULER_TASK: Wait for scheduler "bik0" with entities [EventEntity, EventEntity]
542: 0x0762 [0x7C] EventEntity->Render.Flags2 |= 0x01
543: 0x0768 [0x81] SET_ENTITY_BLINKING(blink_flag=0x01, entity=EventEntity)
544: 0x076E [0x1B] RETURN

SUBROUTINE_076F:
545: 0x076F [0x7B] EventEntity stops talking
546: 0x0774 [0x1B] RETURN

SUBROUTINE_0775:
547: 0x0775 [0x79] EventEntity looks at LocalPlayer (Basic look)
548: 0x077F [0x1B] RETURN
```
