# Event 65535

## Metadata

| Field           | Value    |
|-----------------|----------|
| Event Index     | 104/140  |
| Offset          | 0xEF55   |
| Data Size       | 50 bytes |
| Calculated Size | 50 bytes |
| Instructions    | 12       |

```
      00 01 02 03 04 05 06 07  08 09 0A 0B 0C 0D 0E 0F
      -- -- -- -- -- -- -- --  -- -- -- -- -- -- -- --
EF50:                32 00 80  1F 00 BC 85 BD 85 BE 85       2..........
EF60: 1F 01 1E 0D 50 0F 01 1F  00 BF 85 C0 85 BE 85 1F  ....P...........
EF70: 01 1E 0D 50 0F 01 1F 00  C1 85 C2 85 BE 85 1F 01  ...P............
EF80: 6F 1E 0D 50 0F 01 00                              o..P...         
```

## Opcodes

```
  0: 0xEF55 [0x32] ExtData[1]->MainSpeed = 13* * 0.1
  1: 0xEF58 [0x1F] MOVE_ENTITY: EventEntity moves to X=39.990*, Z=-17.921*, Y=-0.101*
  2: 0xEF60 [0x1F] MOVE_ENTITY: Update entity position (mode=1)
  3: 0xEF62 [0x1E] EventEntity looks at Harnek (ID: 17780749/0x010F500D) and starts talking
  4: 0xEF67 [0x1F] MOVE_ENTITY: EventEntity moves to X=41.424*, Z=-19.077*, Y=-0.101*
  5: 0xEF6F [0x1F] MOVE_ENTITY: Update entity position (mode=1)
  6: 0xEF71 [0x1E] EventEntity looks at Harnek (ID: 17780749/0x010F500D) and starts talking
  7: 0xEF76 [0x1F] MOVE_ENTITY: EventEntity moves to X=43.335*, Z=-20.268*, Y=-0.101*
  8: 0xEF7E [0x1F] MOVE_ENTITY: Update entity position (mode=1)
  9: 0xEF80 [0x6F] WAIT_FRAME_DELAY: Yield until WaitTime reaches zero
 10: 0xEF81 [0x1E] EventEntity looks at Harnek (ID: 17780749/0x010F500D) and starts talking
 11: 0xEF86 [0x00] END_REQSTACK()
```
