# Event 65535

## Metadata

| Field           | Value    |
|-----------------|----------|
| Event Index     | 96/140   |
| Offset          | 0xED91   |
| Data Size       | 41 bytes |
| Calculated Size | 41 bytes |
| Instructions    | 10       |

```
      00 01 02 03 04 05 06 07  08 09 0A 0B 0C 0D 0E 0F
      -- -- -- -- -- -- -- --  -- -- -- -- -- -- -- --
ED90:    03 1E 00 AF 85 06 1F  00 B4 0A 1E 00 02 1E 00   ...............
EDA0: 03 80 02 AC ED B4 0C 1E  00 01 9D ED B4 0B 02 1F  ................
EDB0: 00 03 80 00 B9 ED B4 06  00 00                    ..........      
```

## Opcodes

```
  0: 0xED91 [0x03] ExtData[1]->WorkLocal[30] = 3600*
  1: 0xED96 [0x06] ExtData[1]->WorkLocal[31] = 0
  2: 0xED99 [0xB4] UI_WINDOW_STRING_HANDLER(case=0x0A - Open event time window, work_offset=ExtData[1]->WorkLocal[30])
  3: 0xED9D [0x02] IF !(ExtData[1]->WorkLocal[30] <= 0*) GOTO 0xEDAC
  4: 0xEDA5 [0xB4] UI_WINDOW_STRING_HANDLER(case=0x0C - Get event time count value, work_offset=ExtData[1]->WorkLocal[30])
  5: 0xEDA9 [0x01] GOTO 0xED9D
  6: 0xEDAC [0xB4] UI_WINDOW_STRING_HANDLER(case=0x0B - Destroy event time window)
  7: 0xEDAE [0x02] IF !(ExtData[1]->WorkLocal[31] == 0*) GOTO 0xEDB9
  8: 0xEDB6 [0xB4] UI_WINDOW_STRING_HANDLER(case=0x06 - Toggle query message flag, flag_value=0x00)
  9: 0xEDB9 [0x00] END_REQSTACK()
```
