# Event 65535

## Metadata

| Field           | Value    |
|-----------------|----------|
| Event Index     | 17/40    |
| Offset          | 0x0285   |
| Data Size       | 37 bytes |
| Calculated Size | 37 bytes |
| Instructions    | 9        |

```
      00 01 02 03 04 05 06 07  08 09 0A 0B 0C 0D 0E 0F
      -- -- -- -- -- -- -- --  -- -- -- -- -- -- -- --
0280:                29 08 25  10 0F 01 03 1D 12 80 23       ).%.......#
0290: 29 08 25 10 0F 01 04 29  08 25 10 0F 01 05 1D 13  ).%....).%......
02A0: 80 23 29 08 25 10 0F 01  06 00                    .#).%.....      
```

## Opcodes

```
  0: 0x0285 [0x29] REQ_SET_WAIT(priority=0x08, entity_id=Mourices (ID: 17764389/0x010F1025), tag_num=0x03)
  1: 0x028C [0x1D] PRINT_EVENT_MESSAGE(message_id=8587*)
    → "However, the Windurstians have grown too complacent and show their love of pacifism--even if it is nothing more than a one-sided fa\u0008gade--by forming amicable relations with the Yagudo beastmen.\u007F1\u0000\u0007"
  2: 0x028F [0x23] WAIT_FOR_DIALOG_INTERACTION
  3: 0x0290 [0x29] REQ_SET_WAIT(priority=0x08, entity_id=Mourices (ID: 17764389/0x010F1025), tag_num=0x04)
  4: 0x0297 [0x29] REQ_SET_WAIT(priority=0x08, entity_id=Mourices (ID: 17764389/0x010F1025), tag_num=0x05)
  5: 0x029E [0x1D] PRINT_EVENT_MESSAGE(message_id=8588*)
    → "And now they dare ask us proud San d'Orians to carry a tribute to a pack of beastmen. It would almost be laughable if it wasn't such a slap in the face.\u007F1\u0000\u0007"
  6: 0x02A1 [0x23] WAIT_FOR_DIALOG_INTERACTION
  7: 0x02A2 [0x29] REQ_SET_WAIT(priority=0x08, entity_id=Mourices (ID: 17764389/0x010F1025), tag_num=0x06)
  8: 0x02A9 [0x00] END_REQSTACK()
```
