# Event 65535

## Metadata

| Field           | Value    |
|-----------------|----------|
| Event Index     | 26/40    |
| Offset          | 0x0414   |
| Data Size       | 37 bytes |
| Calculated Size | 37 bytes |
| Instructions    | 9        |

```
      00 01 02 03 04 05 06 07  08 09 0A 0B 0C 0D 0E 0F
      -- -- -- -- -- -- -- --  -- -- -- -- -- -- -- --
0410:             29 08 25 10  0F 01 03 1D 1E 80 23 1D      ).%.......#.
0420: 1F 80 23 29 08 25 10 0F  01 04 29 08 25 10 0F 01  ..#).%....).%...
0430: 05 29 08 25 10 0F 01 06  00                       .).%.....       
```

## Opcodes

```
  0: 0x0414 [0x29] REQ_SET_WAIT(priority=0x08, entity_id=Mourices (ID: 17764389/0x010F1025), tag_num=0x03)
  1: 0x041B [0x1D] PRINT_EVENT_MESSAGE(message_id=8604*)
    → "You are now to head to the Consulate of San d'Oria in Bastok.\u007F1\u0000\u0007"
  2: 0x041E [0x23] WAIT_FOR_DIALOG_INTERACTION
  3: 0x041F [0x1D] PRINT_EVENT_MESSAGE(message_id=8605*)
    → "Do you know the way to Bastok from here? You can travel by sea from Mhaura back to Selbina. From there, you have to cross the highlands to the south.\u007F1\u0000\u0007"
  4: 0x0422 [0x23] WAIT_FOR_DIALOG_INTERACTION
  5: 0x0423 [0x29] REQ_SET_WAIT(priority=0x08, entity_id=Mourices (ID: 17764389/0x010F1025), tag_num=0x04)
  6: 0x042A [0x29] REQ_SET_WAIT(priority=0x08, entity_id=Mourices (ID: 17764389/0x010F1025), tag_num=0x05)
  7: 0x0431 [0x29] REQ_SET_WAIT(priority=0x08, entity_id=Mourices (ID: 17764389/0x010F1025), tag_num=0x06)
  8: 0x0438 [0x00] END_REQSTACK()
```
