# Event 65535

## Metadata

| Field           | Value    |
|-----------------|----------|
| Event Index     | 38/40    |
| Offset          | 0x07B8   |
| Data Size       | 37 bytes |
| Calculated Size | 37 bytes |
| Instructions    | 9        |

```
      00 01 02 03 04 05 06 07  08 09 0A 0B 0C 0D 0E 0F
      -- -- -- -- -- -- -- --  -- -- -- -- -- -- -- --
07B0:                          29 08 25 10 0F 01 03 1D          ).%.....
07C0: 30 80 23 29 08 25 10 0F  01 04 29 08 25 10 0F 01  0.#).%....).%...
07D0: 05 1D 31 80 23 29 08 25  10 0F 01 06 00           ..1.#).%.....   
```

## Opcodes

```
  0: 0x07B8 [0x29] REQ_SET_WAIT(priority=0x08, entity_id=Mourices (ID: 17764389/0x010F1025), tag_num=0x03)
  1: 0x07BF [0x1D] PRINT_EVENT_MESSAGE(message_id=8634*)
    → "This cannot be!\u0007We'll have to report this to the royal family!\u007F1\u0000\u0007"
  2: 0x07C2 [0x23] WAIT_FOR_DIALOG_INTERACTION
  3: 0x07C3 [0x29] REQ_SET_WAIT(priority=0x08, entity_id=Mourices (ID: 17764389/0x010F1025), tag_num=0x04)
  4: 0x07CA [0x29] REQ_SET_WAIT(priority=0x08, entity_id=Mourices (ID: 17764389/0x010F1025), tag_num=0x05)
  5: 0x07D1 [0x1D] PRINT_EVENT_MESSAGE(message_id=8635*)
    → "I shall write an epistle. I will need you to deliver it posthaste to Monarlais Halver back in the motherland.\u007F1\u0000\u0007"
  6: 0x07D4 [0x23] WAIT_FOR_DIALOG_INTERACTION
  7: 0x07D5 [0x29] REQ_SET_WAIT(priority=0x08, entity_id=Mourices (ID: 17764389/0x010F1025), tag_num=0x06)
  8: 0x07DC [0x00] END_REQSTACK()
```
