# Event 356

## Metadata

| Field           | Value    |
|-----------------|----------|
| Event Index     | 4/4      |
| Offset          | 0x0071   |
| Data Size       | 39 bytes |
| Calculated Size | 39 bytes |
| Instructions    | 11       |

```
      00 01 02 03 04 05 06 07  08 09 0A 0B 0C 0D 0E 0F
      -- -- -- -- -- -- -- --  -- -- -- -- -- -- -- --
0070:    1E F0 FF FF 7F 1D 04  80 23 5B 02 80 1A D0 0E   ........#[.....
0080: 01 1A D0 0E 01 74 6C 6B  30 1D 06 80 23 5E 69 64  .....tlk0...#^id
0090: 6C 30 1D 07 80 23 21 00                           l0...#!.        
```

## Opcodes

```
  0: 0x0071 [0x1E] EventEntity looks at LocalPlayer and starts talking
  1: 0x0076 [0x1D] PRINT_EVENT_MESSAGE(message_id=7753*)
    → "Why are you still here?\u0007The Musketeers are usually charged with giving out missions, and frankly, I find this kind of work tedious...\u007F1\u0000\u0007"
  2: 0x0079 [0x23] WAIT_FOR_DIALOG_INTERACTION
  3: 0x007A [0x5B] LOAD_EXT_SCHEDULER(work_offset=238*, entity1=Pius (ID: 17747994/0x010ED01A), entity2=Pius (ID: 17747994/0x010ED01A), action="tlk0")
  4: 0x0089 [0x1D] PRINT_EVENT_MESSAGE(message_id=7755*)
    → "Then again, you're going willingly into that Quadav-ridden place, so I can't complain, even if you do turn out to be a spy.\u007F1\u0000\u0007"
  5: 0x008C [0x23] WAIT_FOR_DIALOG_INTERACTION
  6: 0x008D [0x5E] EventEntity goes idle (kills current action) (animation: "idl0")
  7: 0x0092 [0x1D] PRINT_EVENT_MESSAGE(message_id=7756*)
    → "Well, anyway... You want to speak to Grohm, in the Metalworks eatery.\u0007Good luck to you.\u007F1\u0000\u0007"
  8: 0x0095 [0x23] WAIT_FOR_DIALOG_INTERACTION
  9: 0x0096 [0x21] END_EVENT
 10: 0x0097 [0x00] END_REQSTACK()
```
