# 17335124 - Lilisette

## Common Data

| Field            | Value                            |
|------------------|----------------------------------|
| Zone             | Beaucedine Glacier [S] (ID: 136) |
| Block Size       | 2500 bytes                       |
| Total Events     | 58                               |
| References Count | 94                               |

## List of Events

| Event ID                   | Entrypoint   |   Size |   Instructions |
|----------------------------|--------------|--------|----------------|
| [65535](#event-65535)      | 0x0000       |      1 |              1 |
| [65535.1](#event-655351)   | 0x0001       |      1 |              1 |
| [65535.2](#event-655352)   | 0x0002       |     18 |              4 |
| [65535.3](#event-655353)   | 0x0014       |     10 |              2 |
| [65535.4](#event-655354)   | 0x001E       |      9 |              3 |
| [65535.5](#event-655355)   | 0x0027       |      9 |              3 |
| [65535.6](#event-655356)   | 0x0030       |     10 |              2 |
| [65535.7](#event-655357)   | 0x003A       |     10 |              2 |
| [15](#event-15)            | 0x0044       |      1 |              1 |
| [65535.8](#event-655358)   | 0x0045       |      4 |              2 |
| [65535.9](#event-655359)   | 0x0049       |      4 |              2 |
| [65535.10](#event-6553510) | 0x004D       |     30 |              6 |
| [65535.11](#event-6553511) | 0x006B       |     46 |              6 |
| [65535.12](#event-6553512) | 0x0099       |     32 |              6 |
| [65535.13](#event-6553513) | 0x00B9       |     10 |              2 |
| [65535.14](#event-6553514) | 0x00C3       |     10 |              2 |
| [13](#event-13)            | 0x00CD       |      1 |              1 |
| [29](#event-29)            | 0x00CE       |      1 |              1 |
| [65535.15](#event-6553515) | 0x00CF       |     59 |              9 |
| [65535.16](#event-6553516) | 0x010A       |     81 |             11 |
| [65535.17](#event-6553517) | 0x015B       |     19 |              3 |
| [65535.18](#event-6553518) | 0x016E       |     15 |              5 |
| [65535.19](#event-6553519) | 0x017D       |     24 |              6 |
| [65535.20](#event-6553520) | 0x0195       |     34 |              4 |
| [65535.21](#event-6553521) | 0x01B7       |     57 |              7 |
| [65535.22](#event-6553522) | 0x01F0       |     10 |              2 |
| [65535.23](#event-6553523) | 0x01FA       |     10 |              2 |
| [16](#event-16)            | 0x0204       |      1 |              1 |
| [19](#event-19)            | 0x0205       |      1 |              1 |
| [65535.24](#event-6553524) | 0x0206       |      3 |              2 |
| [65535.25](#event-6553525) | 0x0209       |      3 |              2 |
| [65535.26](#event-6553526) | 0x020C       |      3 |              2 |
| [65535.27](#event-6553527) | 0x020F       |      3 |              2 |
| [65535.28](#event-6553528) | 0x0212       |     62 |              6 |
| [8](#event-8)              | 0x0250       |      7 |              2 |
| [65535.29](#event-6553529) | 0x0257       |    316 |             42 |
| [9](#event-9)              | 0x0393       |      7 |              2 |
| [65535.30](#event-6553530) | 0x039A       |     45 |              8 |
| [65535.31](#event-6553531) | 0x03C7       |      6 |              2 |
| [65535.32](#event-6553532) | 0x03CD       |    706 |            143 |
| [10](#event-10)            | 0x068F       |      7 |              2 |
| [65535.33](#event-6553533) | 0x0696       |     12 |              3 |
| [11](#event-11)            | 0x06A2       |      7 |              2 |
| [65535.34](#event-6553534) | 0x06A9       |     17 |              5 |
| [12](#event-12)            | 0x06BA       |      7 |              2 |
| [65535.35](#event-6553535) | 0x06C1       |     43 |             11 |
| [14](#event-14)            | 0x06EC       |      7 |              2 |
| [65535.36](#event-6553536) | 0x06F3       |     14 |              4 |
| [65535.37](#event-6553537) | 0x0701       |      5 |              2 |
| [65535.38](#event-6553538) | 0x0706       |      5 |              2 |
| [18](#event-18)            | 0x070B       |      7 |              2 |
| [65535.39](#event-6553539) | 0x0712       |     27 |              7 |
| [65535.40](#event-6553540) | 0x072D       |      4 |              2 |
| [17](#event-17)            | 0x0731       |      1 |              1 |
| [65535.41](#event-6553541) | 0x0732       |     11 |              3 |
| [65535.42](#event-6553542) | 0x073D       |     11 |              3 |
| [65535.43](#event-6553543) | 0x0748       |     11 |              3 |
| [30](#event-30)            | 0x0753       |      1 |              1 |

## DAT References (imed_data)

|   Index | Hex Value   |   Dec Value |
|---------|-------------|-------------|
|       0 | 0x0000      |           0 |
|       1 | 0x0001      |           1 |
|       2 | 0x0080      |         128 |
|       3 | 0x0857      |        2135 |
|       4 | 0x0028      |          40 |
|       5 | 0x001E      |          30 |
|       6 | 0x0064      |         100 |
|       7 | 0x0E10      |        3600 |
|       8 | 0x000A      |          10 |
|       9 | 0x000D      |          13 |
|      10 | 0xEE04      |       60932 |
|      11 | 0xFFF8CF0F  |  4294496015 |
|      12 | 0x00AC      |         172 |
|      13 | 0x01F5      |         501 |
|      14 | 0xF01A      |       61466 |
|      15 | 0xFFF8D681  |  4294497921 |
|      16 | 0xFFFFFFF0  |  4294967280 |
|      17 | 0x0855      |        2133 |
|      18 | 0x00B4      |         180 |
|      19 | 0x0ADE      |        2782 |
|      20 | 0x005A      |          90 |
|      21 | 0xE871      |       59505 |
|      22 | 0xFFF8C255  |  4294492757 |
|      23 | 0x0101      |         257 |
|      24 | 0xEA65      |       60005 |
|      25 | 0xFFF90013  |  4294508563 |
|      26 | 0xFFFFFF84  |  4294967172 |
|      27 | 0xE313      |       58131 |
|      28 | 0xFFF9218A  |  4294517130 |
|      29 | 0xFFFFFF51  |  4294967121 |
|      30 | 0x0096      |         150 |
|      31 | 0x09E9      |        2537 |
|      32 | 0x0854      |        2132 |
|      33 | 0x009C      |         156 |
|      34 | 0x00C8      |         200 |
|      35 | 0x01E2      |         482 |
|      36 | 0x0192      |         402 |
|      37 | 0x0002      |           2 |
|      38 | 0x0003      |           3 |
|      39 | 0x0004      |           4 |
|      40 | 0x0005      |           5 |
|      41 | 0x0006      |           6 |
|      42 | 0x0007      |           7 |
|      43 | 0x0008      |           8 |
|      44 | 0x0009      |           9 |
|      45 | 0x09E4      |        2532 |
|      46 | 0xFFFFAEF6  |  4294946550 |
|      47 | 0xFFFF3419  |  4294915097 |
|      48 | 0xFFFF2126  |  4294910246 |
|      49 | 0xFFFFAF71  |  4294946673 |
|      50 | 0xFFFF30DD  |  4294914269 |
|      51 | 0xFFFF1F97  |  4294909847 |
|      52 | 0xFFFFAF46  |  4294946630 |
|      53 | 0xFFFF3769  |  4294915945 |
|      54 | 0xFFFF22B8  |  4294910648 |
|      55 | 0xFFFFAF35  |  4294946613 |
|      56 | 0xFFFF3A4C  |  4294916684 |
|      57 | 0xFFFF2447  |  4294911047 |
|      58 | 0xFFFFAF48  |  4294946632 |
|      59 | 0xFFFF3D3C  |  4294917436 |
|      60 | 0xFFFF25D5  |  4294911445 |
|      61 | 0xFFFFAF55  |  4294946645 |
|      62 | 0xFFFF4081  |  4294918273 |
|      63 | 0xFFFF2767  |  4294911847 |
|      64 | 0xFFFFAF07  |  4294946567 |
|      65 | 0xFFFF43CA  |  4294919114 |
|      66 | 0xFFFF28F6  |  4294912246 |
|      67 | 0xFFFFAF66  |  4294946662 |
|      68 | 0xFFFF46D6  |  4294919894 |
|      69 | 0xFFFF2A88  |  4294912648 |
|      70 | 0xFFFFAF58  |  4294946648 |
|      71 | 0xFFFF4A0A  |  4294920714 |
|      72 | 0xFFFF2C16  |  4294913046 |
|      73 | 0xFFFFAF11  |  4294946577 |
|      74 | 0xFFFF4DAD  |  4294921645 |
|      75 | 0xFFFF2DA5  |  4294913445 |
|      76 | 0x000F      |          15 |
|      77 | 0xCB2E      |       52014 |
|      78 | 0xFFFB05A2  |  4294641058 |
|      79 | 0x011E      |         286 |
|      80 | 0x0915      |        2325 |
|      81 | 0x08E7      |        2279 |
|      82 | 0x6177B     |      399227 |
|      83 | 0xFFF9134C  |  4294513484 |
|      84 | 0x05DB      |        1499 |
|      85 | 0xFFFE3BF9  |  4294851577 |
|      86 | 0x1A791     |      108433 |
|      87 | 0xFFFFF064  |  4294963300 |
|      88 | 0xFFF99F53  |  4294549331 |
|      89 | 0xFFFE2583  |  4294845827 |
|      90 | 0x03E7      |         999 |
|      91 | 0xFFF9C215  |  4294558229 |
|      92 | 0xFFFE1ACB  |  4294843083 |
|      93 | 0x019D      |         413 |

## Events

### Event 65535

#### Metadata

| Field        | Value   |
|--------------|---------|
| Entrypoint   | 0x0000  |
| Data Size    | 1 bytes |
| Instructions | 1       |

```
      00 01 02 03 04 05 06 07  08 09 0A 0B 0C 0D 0E 0F
      -- -- -- -- -- -- -- --  -- -- -- -- -- -- -- --
0000: 00                                                .               
```

#### Opcodes

```
  0: 0x0000 [0x00] END_REQSTACK()
```

### Event 65535.1

#### Metadata

| Field        | Value   |
|--------------|---------|
| Entrypoint   | 0x0001  |
| Data Size    | 1 bytes |
| Instructions | 1       |

```
      00 01 02 03 04 05 06 07  08 09 0A 0B 0C 0D 0E 0F
      -- -- -- -- -- -- -- --  -- -- -- -- -- -- -- --
0000:    00                                              .              
```

#### Opcodes

```
  0: 0x0001 [0x00] END_REQSTACK()
```

### Event 65535.2

#### Metadata

| Field        | Value    |
|--------------|----------|
| Entrypoint   | 0x0002   |
| Data Size    | 18 bytes |
| Instructions | 4        |

```
      00 01 02 03 04 05 06 07  08 09 0A 0B 0C 0D 0E 0F
      -- -- -- -- -- -- -- --  -- -- -- -- -- -- -- --
0000:       22 00 2F 00 F8 FF  FF 7F 6C F8 FF FF 7F 00    "./.....l.....
0010: 80 01 80 00                                       ....            
```

#### Opcodes

```
  0: 0x0002 [0x22] ENTITY_HIDE_FLAG(enabled=0x00)
  1: 0x0004 [0x2F] EventEntity->Render.Flags0 &= ~0x80000 // Bit 19
  2: 0x000A [0x6C] FADE_ENTITY_COLOR(entity_id=EventEntity, end_alpha=0*, fade_time=1*)
  3: 0x0013 [0x00] END_REQSTACK()
```

### Event 65535.3

#### Metadata

| Field        | Value    |
|--------------|----------|
| Entrypoint   | 0x0014   |
| Data Size    | 10 bytes |
| Instructions | 2        |

```
      00 01 02 03 04 05 06 07  08 09 0A 0B 0C 0D 0E 0F
      -- -- -- -- -- -- -- --  -- -- -- -- -- -- -- --
0010:             6C F8 FF FF  7F 02 80 01 80 00            l.........  
```

#### Opcodes

```
  0: 0x0014 [0x6C] FADE_ENTITY_COLOR(entity_id=EventEntity, end_alpha=128*, fade_time=1*)
  1: 0x001D [0x00] END_REQSTACK()
```

### Event 65535.4

#### Metadata

| Field        | Value   |
|--------------|---------|
| Entrypoint   | 0x001E  |
| Data Size    | 9 bytes |
| Instructions | 3       |

```
      00 01 02 03 04 05 06 07  08 09 0A 0B 0C 0D 0E 0F
      -- -- -- -- -- -- -- --  -- -- -- -- -- -- -- --
0010:                                            22 00                ".
0020: 2F 00 F8 FF FF 7F 00                              /......         
```

#### Opcodes

```
  0: 0x001E [0x22] ENTITY_HIDE_FLAG(enabled=0x00)
  1: 0x0020 [0x2F] EventEntity->Render.Flags0 &= ~0x80000 // Bit 19
  2: 0x0026 [0x00] END_REQSTACK()
```

### Event 65535.5

#### Metadata

| Field        | Value   |
|--------------|---------|
| Entrypoint   | 0x0027  |
| Data Size    | 9 bytes |
| Instructions | 3       |

```
      00 01 02 03 04 05 06 07  08 09 0A 0B 0C 0D 0E 0F
      -- -- -- -- -- -- -- --  -- -- -- -- -- -- -- --
0020:                      22  01 2F 01 F8 FF FF 7F 00         "./......
```

#### Opcodes

```
  0: 0x0027 [0x22] ENTITY_HIDE_FLAG(enabled=0x01)
  1: 0x0029 [0x2F] EventEntity->Render.Flags0 |= 0x80000 // Bit 19
  2: 0x002F [0x00] END_REQSTACK()
```

### Event 65535.6

#### Metadata

| Field        | Value    |
|--------------|----------|
| Entrypoint   | 0x0030   |
| Data Size    | 10 bytes |
| Instructions | 2        |

```
      00 01 02 03 04 05 06 07  08 09 0A 0B 0C 0D 0E 0F
      -- -- -- -- -- -- -- --  -- -- -- -- -- -- -- --
0030: 6C F8 FF FF 7F 00 80 01  80 00                    l.........      
```

#### Opcodes

```
  0: 0x0030 [0x6C] FADE_ENTITY_COLOR(entity_id=EventEntity, end_alpha=0*, fade_time=1*)
  1: 0x0039 [0x00] END_REQSTACK()
```

### Event 65535.7

#### Metadata

| Field        | Value    |
|--------------|----------|
| Entrypoint   | 0x003A   |
| Data Size    | 10 bytes |
| Instructions | 2        |

```
      00 01 02 03 04 05 06 07  08 09 0A 0B 0C 0D 0E 0F
      -- -- -- -- -- -- -- --  -- -- -- -- -- -- -- --
0030:                                6C F8 FF FF 7F 02            l.....
0040: 80 01 80 00                                       ....            
```

#### Opcodes

```
  0: 0x003A [0x6C] FADE_ENTITY_COLOR(entity_id=EventEntity, end_alpha=128*, fade_time=1*)
  1: 0x0043 [0x00] END_REQSTACK()
```

### Event 15

#### Metadata

| Field        | Value   |
|--------------|---------|
| Entrypoint   | 0x0044  |
| Data Size    | 1 bytes |
| Instructions | 1       |

```
      00 01 02 03 04 05 06 07  08 09 0A 0B 0C 0D 0E 0F
      -- -- -- -- -- -- -- --  -- -- -- -- -- -- -- --
0040:             00                                        .           
```

#### Opcodes

```
  0: 0x0044 [0x00] END_REQSTACK()
```

### Event 65535.8

#### Metadata

| Field        | Value   |
|--------------|---------|
| Entrypoint   | 0x0045  |
| Data Size    | 4 bytes |
| Instructions | 2       |

```
      00 01 02 03 04 05 06 07  08 09 0A 0B 0C 0D 0E 0F
      -- -- -- -- -- -- -- --  -- -- -- -- -- -- -- --
0040:                C0 01 80  00                            ....       
```

#### Opcodes

```
  0: 0x0045 [0xC0] EventEntity->Render.Flags3 |= 0x1000 // Set bit 12 (from 1*)
  1: 0x0048 [0x00] END_REQSTACK()
```

### Event 65535.9

#### Metadata

| Field        | Value   |
|--------------|---------|
| Entrypoint   | 0x0049  |
| Data Size    | 4 bytes |
| Instructions | 2       |

```
      00 01 02 03 04 05 06 07  08 09 0A 0B 0C 0D 0E 0F
      -- -- -- -- -- -- -- --  -- -- -- -- -- -- -- --
0040:                             C0 00 80 00                    ....   
```

#### Opcodes

```
  0: 0x0049 [0xC0] EventEntity->Render.Flags3 &= ~0x1000 // Clear bit 12 (from 0*)
  1: 0x004C [0x00] END_REQSTACK()
```

### Event 65535.10

#### Metadata

| Field        | Value    |
|--------------|----------|
| Entrypoint   | 0x004D   |
| Data Size    | 30 bytes |
| Instructions | 6        |

```
      00 01 02 03 04 05 06 07  08 09 0A 0B 0C 0D 0E 0F
      -- -- -- -- -- -- -- --  -- -- -- -- -- -- -- --
0040:                                         59 05 F8               Y..
0050: FF FF 7F 00 5E 69 64 6C  30 7B F8 FF FF 7F 7C 01  ....^idl0{....|.
0060: F8 FF FF 7F 81 01 F8 FF  FF 7F 00                 ...........     
```

#### Opcodes

```
  0: 0x004D [0x59] UPDATE_ENTITY_DATA: EventEntity->Render.Flags0 &= ~0x200000
  1: 0x0054 [0x5E] EventEntity goes idle (kills current action) (animation: "idl0")
  2: 0x0059 [0x7B] EventEntity stops talking
  3: 0x005E [0x7C] EventEntity->Render.Flags2 |= 0x01
  4: 0x0064 [0x81] SET_ENTITY_BLINKING(blink_flag=0x01, entity=EventEntity)
  5: 0x006A [0x00] END_REQSTACK()
```

### Event 65535.11

#### Metadata

| Field        | Value    |
|--------------|----------|
| Entrypoint   | 0x006B   |
| Data Size    | 46 bytes |
| Instructions | 6        |

```
      00 01 02 03 04 05 06 07  08 09 0A 0B 0C 0D 0E 0F
      -- -- -- -- -- -- -- --  -- -- -- -- -- -- -- --
0060:                                   81 00 F8 FF FF             .....
0070: 7F 7C 00 F8 FF FF 7F 5B  03 80 54 83 08 01 54 83  .|.....[..T...T.
0080: 08 01 66 6A 30 31 1C 04  80 5B 03 80 54 83 08 01  ..fj01...[..T...
0090: 54 83 08 01 66 6A 30 30  00                       T...fj00.       
```

#### Opcodes

```
  0: 0x006B [0x81] SET_ENTITY_BLINKING(blink_flag=0x00, entity=EventEntity)
  1: 0x0071 [0x7C] EventEntity->Render.Flags2 |= 0x00
  2: 0x0077 [0x5B] LOAD_EXT_SCHEDULER: Load scheduler "fj01" with entities [Lilisette (ID: 17335124/0x01088354), Lilisette (ID: 17335124/0x01088354)], work=2135*
  3: 0x0086 [0x1C] WAIT(40* ticks)
  4: 0x0089 [0x5B] LOAD_EXT_SCHEDULER: Load scheduler "fj00" with entities [Lilisette (ID: 17335124/0x01088354), Lilisette (ID: 17335124/0x01088354)], work=2135*
  5: 0x0098 [0x00] END_REQSTACK()
```

### Event 65535.12

#### Metadata

| Field        | Value    |
|--------------|----------|
| Entrypoint   | 0x0099   |
| Data Size    | 32 bytes |
| Instructions | 6        |

```
      00 01 02 03 04 05 06 07  08 09 0A 0B 0C 0D 0E 0F
      -- -- -- -- -- -- -- --  -- -- -- -- -- -- -- --
0090:                             1C 05 80 59 01 F8 FF           ...Y...
00A0: FF 7F 06 80 4B F8 FF FF  7F 07 80 79 00 F8 FF FF  ....K......y....
00B0: 7F 55 83 08 01 1C 08 80  00                       .U.......       
```

#### Opcodes

```
  0: 0x0099 [0x1C] WAIT(30* ticks)
  1: 0x009C [0x59] UPDATE_ENTITY_DATA: Set EventEntity turn speed = 100*
  2: 0x00A4 [0x4B] UPDATE_ENTITY_YAW(entity=EventEntity, yaw=19.8°*)
  3: 0x00AB [0x79] EventEntity looks at Portia (ID: 17335125/0x01088355) (Basic look)
  4: 0x00B5 [0x1C] WAIT(10* ticks)
  5: 0x00B8 [0x00] END_REQSTACK()
```

### Event 65535.13

#### Metadata

| Field        | Value    |
|--------------|----------|
| Entrypoint   | 0x00B9   |
| Data Size    | 10 bytes |
| Instructions | 2        |

```
      00 01 02 03 04 05 06 07  08 09 0A 0B 0C 0D 0E 0F
      -- -- -- -- -- -- -- --  -- -- -- -- -- -- -- --
00B0:                             6C 54 83 08 01 00 80           lT.....
00C0: 01 80 00                                          ...             
```

#### Opcodes

```
  0: 0x00B9 [0x6C] FADE_ENTITY_COLOR(entity_id=Lilisette (ID: 17335124/0x01088354), end_alpha=0*, fade_time=1*)
  1: 0x00C2 [0x00] END_REQSTACK()
```

### Event 65535.14

#### Metadata

| Field        | Value    |
|--------------|----------|
| Entrypoint   | 0x00C3   |
| Data Size    | 10 bytes |
| Instructions | 2        |

```
      00 01 02 03 04 05 06 07  08 09 0A 0B 0C 0D 0E 0F
      -- -- -- -- -- -- -- --  -- -- -- -- -- -- -- --
00C0:          6C 54 83 08 01  02 80 01 80 00              lT........   
```

#### Opcodes

```
  0: 0x00C3 [0x6C] FADE_ENTITY_COLOR(entity_id=Lilisette (ID: 17335124/0x01088354), end_alpha=128*, fade_time=1*)
  1: 0x00CC [0x00] END_REQSTACK()
```

### Event 13

#### Metadata

| Field        | Value   |
|--------------|---------|
| Entrypoint   | 0x00CD  |
| Data Size    | 1 bytes |
| Instructions | 1       |

```
      00 01 02 03 04 05 06 07  08 09 0A 0B 0C 0D 0E 0F
      -- -- -- -- -- -- -- --  -- -- -- -- -- -- -- --
00C0:                                         00                     .  
```

#### Opcodes

```
  0: 0x00CD [0x00] END_REQSTACK()
```

### Event 29

#### Metadata

| Field        | Value   |
|--------------|---------|
| Entrypoint   | 0x00CE  |
| Data Size    | 1 bytes |
| Instructions | 1       |

```
      00 01 02 03 04 05 06 07  08 09 0A 0B 0C 0D 0E 0F
      -- -- -- -- -- -- -- --  -- -- -- -- -- -- -- --
00C0:                                            00                   . 
```

#### Opcodes

```
  0: 0x00CE [0x00] END_REQSTACK()
```

### Event 65535.15

#### Metadata

| Field        | Value    |
|--------------|----------|
| Entrypoint   | 0x00CF   |
| Data Size    | 59 bytes |
| Instructions | 9        |

```
      00 01 02 03 04 05 06 07  08 09 0A 0B 0C 0D 0E 0F
      -- -- -- -- -- -- -- --  -- -- -- -- -- -- -- --
00C0:                                               32                 2
00D0: 09 80 1F 00 0A 80 0B 80  0C 80 1F 01 6F 52 0D 80  ............oR..
00E0: F0 FF FF 7F F0 FF FF 7F  30 30 30 31 45 0D 80 F0  ........0001E...
00F0: FF FF 7F F0 FF FF 7F 30  30 32 37 00 80 1C 05 80  .......0027.....
0100: 4A 54 83 08 01 F0 FF FF  7F 00                    JT........      
```

#### Opcodes

```
  0: 0x00CF [0x32] ExtData[1]->MainSpeed = 13* * 0.1
  1: 0x00D2 [0x1F] MOVE_ENTITY: EventEntity moves to X=60.932*, Z=-471.281*, Y=0.172*
  2: 0x00DA [0x1F] MOVE_ENTITY: Update entity position (mode=1)
  3: 0x00DC [0x6F] WAIT_FRAME_DELAY: Yield until WaitTime reaches zero
  4: 0x00DD [0x52] END_LOAD_SCHEDULER: End scheduler "0001" with entities [LocalPlayer, LocalPlayer], work=501*
  5: 0x00EC [0x45] LOAD_SCHEDULED_TASK: Load scheduler "0027" with entities [LocalPlayer, LocalPlayer], work=[501*, 0*]
  6: 0x00FD [0x1C] WAIT(30* ticks)
  7: 0x0100 [0x4A] Lilisette (ID: 17335124/0x01088354) looks at LocalPlayer
  8: 0x0109 [0x00] END_REQSTACK()
```

### Event 65535.16

#### Metadata

| Field        | Value    |
|--------------|----------|
| Entrypoint   | 0x010A   |
| Data Size    | 81 bytes |
| Instructions | 11       |

```
      00 01 02 03 04 05 06 07  08 09 0A 0B 0C 0D 0E 0F
      -- -- -- -- -- -- -- --  -- -- -- -- -- -- -- --
0100:                                32 09 80 1F 00 0E            2.....
0110: 80 0F 80 10 80 1F 01 6F  5B 03 80 54 83 08 01 54  .......o[..T...T
0120: 83 08 01 66 63 30 31 5B  11 80 54 83 08 01 54 83  ...fc01[..T...T.
0130: 08 01 74 68 62 30 1C 12  80 5B 03 80 54 83 08 01  ..thb0...[..T...
0140: 54 83 08 01 66 30 30 30  5B 13 80 54 83 08 01 54  T...f000[..T...T
0150: 83 08 01 34 33 30 30 1C  12 80 00                 ...4300....     
```

#### Opcodes

```
  0: 0x010A [0x32] ExtData[1]->MainSpeed = 13* * 0.1
  1: 0x010D [0x1F] MOVE_ENTITY: EventEntity moves to X=61.466*, Z=-469.375*, Y=-0.016*
  2: 0x0115 [0x1F] MOVE_ENTITY: Update entity position (mode=1)
  3: 0x0117 [0x6F] WAIT_FRAME_DELAY: Yield until WaitTime reaches zero
  4: 0x0118 [0x5B] LOAD_EXT_SCHEDULER: Load scheduler "fc01" with entities [Lilisette (ID: 17335124/0x01088354), Lilisette (ID: 17335124/0x01088354)], work=2135*
  5: 0x0127 [0x5B] LOAD_EXT_SCHEDULER: Load scheduler "thb0" with entities [Lilisette (ID: 17335124/0x01088354), Lilisette (ID: 17335124/0x01088354)], work=2133*
  6: 0x0136 [0x1C] WAIT(180* ticks)
  7: 0x0139 [0x5B] LOAD_EXT_SCHEDULER: Load scheduler "f000" with entities [Lilisette (ID: 17335124/0x01088354), Lilisette (ID: 17335124/0x01088354)], work=2135*
  8: 0x0148 [0x5B] LOAD_EXT_SCHEDULER: Load scheduler "4300" with entities [Lilisette (ID: 17335124/0x01088354), Lilisette (ID: 17335124/0x01088354)], work=2782*
  9: 0x0157 [0x1C] WAIT(180* ticks)
 10: 0x015A [0x00] END_REQSTACK()
```

### Event 65535.17

#### Metadata

| Field        | Value    |
|--------------|----------|
| Entrypoint   | 0x015B   |
| Data Size    | 19 bytes |
| Instructions | 3        |

```
      00 01 02 03 04 05 06 07  08 09 0A 0B 0C 0D 0E 0F
      -- -- -- -- -- -- -- --  -- -- -- -- -- -- -- --
0150:                                   1C 14 80 5B 11             ...[.
0160: 80 54 83 08 01 54 83 08  01 74 68 62 30 00        .T...T...thb0.  
```

#### Opcodes

```
  0: 0x015B [0x1C] WAIT(90* ticks)
  1: 0x015E [0x5B] LOAD_EXT_SCHEDULER: Load scheduler "thb0" with entities [Lilisette (ID: 17335124/0x01088354), Lilisette (ID: 17335124/0x01088354)], work=2133*
  2: 0x016D [0x00] END_REQSTACK()
```

### Event 65535.18

#### Metadata

| Field        | Value    |
|--------------|----------|
| Entrypoint   | 0x016E   |
| Data Size    | 15 bytes |
| Instructions | 5        |

```
      00 01 02 03 04 05 06 07  08 09 0A 0B 0C 0D 0E 0F
      -- -- -- -- -- -- -- --  -- -- -- -- -- -- -- --
0160:                                            32 09                2.
0170: 80 1F 00 15 80 16 80 17  80 1F 01 6F 00           ...........o.   
```

#### Opcodes

```
  0: 0x016E [0x32] ExtData[1]->MainSpeed = 13* * 0.1
  1: 0x0171 [0x1F] MOVE_ENTITY: EventEntity moves to X=59.505*, Z=-474.539*, Y=0.257*
  2: 0x0179 [0x1F] MOVE_ENTITY: Update entity position (mode=1)
  3: 0x017B [0x6F] WAIT_FRAME_DELAY: Yield until WaitTime reaches zero
  4: 0x017C [0x00] END_REQSTACK()
```

### Event 65535.19

#### Metadata

| Field        | Value    |
|--------------|----------|
| Entrypoint   | 0x017D   |
| Data Size    | 24 bytes |
| Instructions | 6        |

```
      00 01 02 03 04 05 06 07  08 09 0A 0B 0C 0D 0E 0F
      -- -- -- -- -- -- -- --  -- -- -- -- -- -- -- --
0170:                                         32 09 80               2..
0180: 1F 00 18 80 19 80 1A 80  1F 01 1F 00 1B 80 1C 80  ................
0190: 1D 80 1F 01 00                                    .....           
```

#### Opcodes

```
  0: 0x017D [0x32] ExtData[1]->MainSpeed = 13* * 0.1
  1: 0x0180 [0x1F] MOVE_ENTITY: EventEntity moves to X=60.005*, Z=-458.733*, Y=-0.124*
  2: 0x0188 [0x1F] MOVE_ENTITY: Update entity position (mode=1)
  3: 0x018A [0x1F] MOVE_ENTITY: EventEntity moves to X=58.131*, Z=-450.166*, Y=-0.175*
  4: 0x0192 [0x1F] MOVE_ENTITY: Update entity position (mode=1)
  5: 0x0194 [0x00] END_REQSTACK()
```

### Event 65535.20

#### Metadata

| Field        | Value    |
|--------------|----------|
| Entrypoint   | 0x0195   |
| Data Size    | 34 bytes |
| Instructions | 4        |

```
      00 01 02 03 04 05 06 07  08 09 0A 0B 0C 0D 0E 0F
      -- -- -- -- -- -- -- --  -- -- -- -- -- -- -- --
0190:                5B 11 80  54 83 08 01 54 83 08 01       [..T...T...
01A0: 74 68 62 31 1C 1E 80 5B  1F 80 54 83 08 01 54 83  thb1...[..T...T.
01B0: 08 01 69 72 61 31 00                              ..ira1.         
```

#### Opcodes

```
  0: 0x0195 [0x5B] LOAD_EXT_SCHEDULER: Load scheduler "thb1" with entities [Lilisette (ID: 17335124/0x01088354), Lilisette (ID: 17335124/0x01088354)], work=2133*
  1: 0x01A4 [0x1C] WAIT(150* ticks)
  2: 0x01A7 [0x5B] LOAD_EXT_SCHEDULER: Load scheduler "ira1" with entities [Lilisette (ID: 17335124/0x01088354), Lilisette (ID: 17335124/0x01088354)], work=2537*
  3: 0x01B6 [0x00] END_REQSTACK()
```

### Event 65535.21

#### Metadata

| Field        | Value    |
|--------------|----------|
| Entrypoint   | 0x01B7   |
| Data Size    | 57 bytes |
| Instructions | 7        |

```
      00 01 02 03 04 05 06 07  08 09 0A 0B 0C 0D 0E 0F
      -- -- -- -- -- -- -- --  -- -- -- -- -- -- -- --
01B0:                      1E  F0 FF FF 7F 5B 03 80 54         .....[..T
01C0: 83 08 01 54 83 08 01 66  32 30 31 1C 05 80 5B 20  ...T...f201...[ 
01D0: 80 54 83 08 01 54 83 08  01 74 6C 65 30 1C 1E 80  .T...T...tle0...
01E0: 5B 03 80 54 83 08 01 54  83 08 01 66 32 30 30 00  [..T...T...f200.
```

#### Opcodes

```
  0: 0x01B7 [0x1E] EventEntity looks at LocalPlayer and starts talking
  1: 0x01BC [0x5B] LOAD_EXT_SCHEDULER: Load scheduler "f201" with entities [Lilisette (ID: 17335124/0x01088354), Lilisette (ID: 17335124/0x01088354)], work=2135*
  2: 0x01CB [0x1C] WAIT(30* ticks)
  3: 0x01CE [0x5B] LOAD_EXT_SCHEDULER: Load scheduler "tle0" with entities [Lilisette (ID: 17335124/0x01088354), Lilisette (ID: 17335124/0x01088354)], work=2132*
  4: 0x01DD [0x1C] WAIT(150* ticks)
  5: 0x01E0 [0x5B] LOAD_EXT_SCHEDULER: Load scheduler "f200" with entities [Lilisette (ID: 17335124/0x01088354), Lilisette (ID: 17335124/0x01088354)], work=2135*
  6: 0x01EF [0x00] END_REQSTACK()
```

### Event 65535.22

#### Metadata

| Field        | Value    |
|--------------|----------|
| Entrypoint   | 0x01F0   |
| Data Size    | 10 bytes |
| Instructions | 2        |

```
      00 01 02 03 04 05 06 07  08 09 0A 0B 0C 0D 0E 0F
      -- -- -- -- -- -- -- --  -- -- -- -- -- -- -- --
01F0: 6C 54 83 08 01 02 80 01  80 00                    lT........      
```

#### Opcodes

```
  0: 0x01F0 [0x6C] FADE_ENTITY_COLOR(entity_id=Lilisette (ID: 17335124/0x01088354), end_alpha=128*, fade_time=1*)
  1: 0x01F9 [0x00] END_REQSTACK()
```

### Event 65535.23

#### Metadata

| Field        | Value    |
|--------------|----------|
| Entrypoint   | 0x01FA   |
| Data Size    | 10 bytes |
| Instructions | 2        |

```
      00 01 02 03 04 05 06 07  08 09 0A 0B 0C 0D 0E 0F
      -- -- -- -- -- -- -- --  -- -- -- -- -- -- -- --
01F0:                                6C 54 83 08 01 00            lT....
0200: 80 01 80 00                                       ....            
```

#### Opcodes

```
  0: 0x01FA [0x6C] FADE_ENTITY_COLOR(entity_id=Lilisette (ID: 17335124/0x01088354), end_alpha=0*, fade_time=1*)
  1: 0x0203 [0x00] END_REQSTACK()
```

### Event 16

#### Metadata

| Field        | Value   |
|--------------|---------|
| Entrypoint   | 0x0204  |
| Data Size    | 1 bytes |
| Instructions | 1       |

```
      00 01 02 03 04 05 06 07  08 09 0A 0B 0C 0D 0E 0F
      -- -- -- -- -- -- -- --  -- -- -- -- -- -- -- --
0200:             00                                        .           
```

#### Opcodes

```
  0: 0x0204 [0x00] END_REQSTACK()
```

### Event 19

#### Metadata

| Field        | Value   |
|--------------|---------|
| Entrypoint   | 0x0205  |
| Data Size    | 1 bytes |
| Instructions | 1       |

```
      00 01 02 03 04 05 06 07  08 09 0A 0B 0C 0D 0E 0F
      -- -- -- -- -- -- -- --  -- -- -- -- -- -- -- --
0200:                00                                      .          
```

#### Opcodes

```
  0: 0x0205 [0x00] END_REQSTACK()
```

### Event 65535.24

#### Metadata

| Field        | Value   |
|--------------|---------|
| Entrypoint   | 0x0206  |
| Data Size    | 3 bytes |
| Instructions | 2       |

```
      00 01 02 03 04 05 06 07  08 09 0A 0B 0C 0D 0E 0F
      -- -- -- -- -- -- -- --  -- -- -- -- -- -- -- --
0200:                   A4 01  00                             ...       
```

#### Opcodes

```
  0: 0x0206 [0xA4] EventEntity->Flags3.unknown_3_2 = 1
  1: 0x0208 [0x00] END_REQSTACK()
```

### Event 65535.25

#### Metadata

| Field        | Value   |
|--------------|---------|
| Entrypoint   | 0x0209  |
| Data Size    | 3 bytes |
| Instructions | 2       |

```
      00 01 02 03 04 05 06 07  08 09 0A 0B 0C 0D 0E 0F
      -- -- -- -- -- -- -- --  -- -- -- -- -- -- -- --
0200:                             A4 00 00                       ...    
```

#### Opcodes

```
  0: 0x0209 [0xA4] EventEntity->Flags3.unknown_3_2 = 0
  1: 0x020B [0x00] END_REQSTACK()
```

### Event 65535.26

#### Metadata

| Field        | Value   |
|--------------|---------|
| Entrypoint   | 0x020C  |
| Data Size    | 3 bytes |
| Instructions | 2       |

```
      00 01 02 03 04 05 06 07  08 09 0A 0B 0C 0D 0E 0F
      -- -- -- -- -- -- -- --  -- -- -- -- -- -- -- --
0200:                                      AB 08 00                 ... 
```

#### Opcodes

```
  0: 0x020C [0xAB] EventEntity->Render.Flags2 |= 0x02 // Set bit 1
  1: 0x020E [0x00] END_REQSTACK()
```

### Event 65535.27

#### Metadata

| Field        | Value   |
|--------------|---------|
| Entrypoint   | 0x020F  |
| Data Size    | 3 bytes |
| Instructions | 2       |

```
      00 01 02 03 04 05 06 07  08 09 0A 0B 0C 0D 0E 0F
      -- -- -- -- -- -- -- --  -- -- -- -- -- -- -- --
0200:                                               AB                 .
0210: 07 00                                             ..              
```

#### Opcodes

```
  0: 0x020F [0xAB] EventEntity->Render.Flags2 |= 0x01 // Set bit 0
  1: 0x0211 [0x00] END_REQSTACK()
```

### Event 65535.28

#### Metadata

| Field        | Value    |
|--------------|----------|
| Entrypoint   | 0x0212   |
| Data Size    | 62 bytes |
| Instructions | 6        |

```
      00 01 02 03 04 05 06 07  08 09 0A 0B 0C 0D 0E 0F
      -- -- -- -- -- -- -- --  -- -- -- -- -- -- -- --
0210:       BB 21 80 0C 83 08  01 0C 83 08 01 73 74 30    .!.........st0
0220: 31 00 80 1C 22 80 BB 21  80 0C 83 08 01 0C 83 08  1..."..!........
0230: 01 73 74 30 32 00 80 27  10 CC 82 08 01 0D 45 23  .st02..'......E#
0240: 80 F8 FF FF 7F F8 FF FF  7F 64 62 6E 30 00 80 00  .........dbn0...
```

#### Opcodes

```
  0: 0x0212 [0xBB] LOAD_EVENT_SCHEDULER_ALT: Load scheduler "st01" with entities [Unnamed NPC (ID: 17335052/0x0108830C), Unnamed NPC (ID: 17335052/0x0108830C)], work=[156*, 0*]
  1: 0x0223 [0x1C] WAIT(200* ticks)
  2: 0x0226 [0xBB] LOAD_EVENT_SCHEDULER_ALT: Load scheduler "st02" with entities [Unnamed NPC (ID: 17335052/0x0108830C), Unnamed NPC (ID: 17335052/0x0108830C)], work=[156*, 0*]
  3: 0x0237 [0x27] REQ_SET(priority=0x10, entity_id=??? (ID: 17334988/0x010882CC), tag_num=0x0D)
  4: 0x023E [0x45] LOAD_SCHEDULED_TASK: Load scheduler "dbn0" with entities [EventEntity, EventEntity], work=[482*, 0*]
  5: 0x024F [0x00] END_REQSTACK()
```

### Event 8

#### Metadata

| Field        | Value   |
|--------------|---------|
| Entrypoint   | 0x0250  |
| Data Size    | 7 bytes |
| Instructions | 2       |

```
      00 01 02 03 04 05 06 07  08 09 0A 0B 0C 0D 0E 0F
      -- -- -- -- -- -- -- --  -- -- -- -- -- -- -- --
0250: 92 01 F8 FF FF 7F 00                              .......         
```

#### Opcodes

```
  0: 0x0250 [0x92] EventEntity->Render.Flags3 ^= 0x01
  1: 0x0256 [0x00] END_REQSTACK()
```

### Event 65535.29

#### Metadata

| Field        | Value     |
|--------------|-----------|
| Entrypoint   | 0x0257    |
| Data Size    | 316 bytes |
| Instructions | 42        |

```
      00 01 02 03 04 05 06 07  08 09 0A 0B 0C 0D 0E 0F
      -- -- -- -- -- -- -- --  -- -- -- -- -- -- -- --
0250:                      02  01 00 00 80 80 76 02 55         ......v.U
0260: 24 80 F0 FF FF 7F F0 FF  FF 7F 73 30 39 30 07 01  $.........s090..
0270: 00 01 80 01 8D 03 02 01  00 01 80 80 95 02 55 24  ..............U$
0280: 80 F0 FF FF 7F F0 FF FF  7F 73 30 38 39 07 01 00  .........s089...
0290: 01 80 01 8D 03 02 01 00  25 80 80 B4 02 55 24 80  ........%....U$.
02A0: F0 FF FF 7F F0 FF FF 7F  73 30 38 38 07 01 00 01  ........s088....
02B0: 80 01 8D 03 02 01 00 26  80 80 D3 02 55 24 80 F0  .......&....U$..
02C0: FF FF 7F F0 FF FF 7F 73  30 38 37 07 01 00 01 80  .......s087.....
02D0: 01 8D 03 02 01 00 27 80  80 F2 02 55 24 80 F0 FF  ......'....U$...
02E0: FF 7F F0 FF FF 7F 73 30  38 36 07 01 00 01 80 01  ......s086......
02F0: 8D 03 02 01 00 28 80 80  11 03 55 24 80 F0 FF FF  .....(....U$....
0300: 7F F0 FF FF 7F 73 30 38  35 07 01 00 01 80 01 8D  .....s085.......
0310: 03 02 01 00 29 80 80 30  03 55 24 80 F0 FF FF 7F  ....)..0.U$.....
0320: F0 FF FF 7F 73 30 38 34  07 01 00 01 80 01 8D 03  ....s084........
0330: 02 01 00 2A 80 80 4F 03  55 24 80 F0 FF FF 7F F0  ...*..O.U$......
0340: FF FF 7F 73 30 38 33 07  01 00 01 80 01 8D 03 02  ...s083.........
0350: 01 00 2B 80 80 6E 03 55  24 80 F0 FF FF 7F F0 FF  ..+..n.U$.......
0360: FF 7F 73 30 38 32 07 01  00 01 80 01 8D 03 02 01  ..s082..........
0370: 00 2C 80 80 8D 03 55 24  80 F0 FF FF 7F F0 FF FF  .,....U$........
0380: 7F 73 30 38 31 07 01 00  01 80 01 8D 03 03 28 10  .s081.........(.
0390: 01 80 00                                          ...             
```

#### Opcodes

```
  0: 0x0257 [0x02] IF !(ExtData[1]->WorkLocal[1] == 0*) GOTO 0x0276
  1: 0x025F [0x55] WAIT_LOAD_SCHEDULER: Wait for scheduler "s090" with entities [LocalPlayer, LocalPlayer], work=402*
  2: 0x026E [0x07] ExtData[1]->WorkLocal[1] += 1*
  3: 0x0273 [0x01] GOTO 0x038D
  4: 0x0276 [0x02] IF !(ExtData[1]->WorkLocal[1] == 1*) GOTO 0x0295
  5: 0x027E [0x55] WAIT_LOAD_SCHEDULER: Wait for scheduler "s089" with entities [LocalPlayer, LocalPlayer], work=402*
  6: 0x028D [0x07] ExtData[1]->WorkLocal[1] += 1*
  7: 0x0292 [0x01] GOTO 0x038D
  8: 0x0295 [0x02] IF !(ExtData[1]->WorkLocal[1] == 2*) GOTO 0x02B4
  9: 0x029D [0x55] WAIT_LOAD_SCHEDULER: Wait for scheduler "s088" with entities [LocalPlayer, LocalPlayer], work=402*
 10: 0x02AC [0x07] ExtData[1]->WorkLocal[1] += 1*
 11: 0x02B1 [0x01] GOTO 0x038D
 12: 0x02B4 [0x02] IF !(ExtData[1]->WorkLocal[1] == 3*) GOTO 0x02D3
 13: 0x02BC [0x55] WAIT_LOAD_SCHEDULER: Wait for scheduler "s087" with entities [LocalPlayer, LocalPlayer], work=402*
 14: 0x02CB [0x07] ExtData[1]->WorkLocal[1] += 1*
 15: 0x02D0 [0x01] GOTO 0x038D
 16: 0x02D3 [0x02] IF !(ExtData[1]->WorkLocal[1] == 4*) GOTO 0x02F2
 17: 0x02DB [0x55] WAIT_LOAD_SCHEDULER: Wait for scheduler "s086" with entities [LocalPlayer, LocalPlayer], work=402*
 18: 0x02EA [0x07] ExtData[1]->WorkLocal[1] += 1*
 19: 0x02EF [0x01] GOTO 0x038D
 20: 0x02F2 [0x02] IF !(ExtData[1]->WorkLocal[1] == 5*) GOTO 0x0311
 21: 0x02FA [0x55] WAIT_LOAD_SCHEDULER: Wait for scheduler "s085" with entities [LocalPlayer, LocalPlayer], work=402*
 22: 0x0309 [0x07] ExtData[1]->WorkLocal[1] += 1*
 23: 0x030E [0x01] GOTO 0x038D
 24: 0x0311 [0x02] IF !(ExtData[1]->WorkLocal[1] == 6*) GOTO 0x0330
 25: 0x0319 [0x55] WAIT_LOAD_SCHEDULER: Wait for scheduler "s084" with entities [LocalPlayer, LocalPlayer], work=402*
 26: 0x0328 [0x07] ExtData[1]->WorkLocal[1] += 1*
 27: 0x032D [0x01] GOTO 0x038D
 28: 0x0330 [0x02] IF !(ExtData[1]->WorkLocal[1] == 7*) GOTO 0x034F
 29: 0x0338 [0x55] WAIT_LOAD_SCHEDULER: Wait for scheduler "s083" with entities [LocalPlayer, LocalPlayer], work=402*
 30: 0x0347 [0x07] ExtData[1]->WorkLocal[1] += 1*
 31: 0x034C [0x01] GOTO 0x038D
 32: 0x034F [0x02] IF !(ExtData[1]->WorkLocal[1] == 8*) GOTO 0x036E
 33: 0x0357 [0x55] WAIT_LOAD_SCHEDULER: Wait for scheduler "s082" with entities [LocalPlayer, LocalPlayer], work=402*
 34: 0x0366 [0x07] ExtData[1]->WorkLocal[1] += 1*
 35: 0x036B [0x01] GOTO 0x038D
 36: 0x036E [0x02] IF !(ExtData[1]->WorkLocal[1] == 9*) GOTO 0x038D
 37: 0x0376 [0x55] WAIT_LOAD_SCHEDULER: Wait for scheduler "s081" with entities [LocalPlayer, LocalPlayer], work=402*
 38: 0x0385 [0x07] ExtData[1]->WorkLocal[1] += 1*
 39: 0x038A [0x01] GOTO 0x038D

SUBROUTINE_038D:
 40: 0x038D [0x03] Work_Zone[40] = 1*
 41: 0x0392 [0x00] END_REQSTACK()
```

### Event 9

#### Metadata

| Field        | Value   |
|--------------|---------|
| Entrypoint   | 0x0393  |
| Data Size    | 7 bytes |
| Instructions | 2       |

```
      00 01 02 03 04 05 06 07  08 09 0A 0B 0C 0D 0E 0F
      -- -- -- -- -- -- -- --  -- -- -- -- -- -- -- --
0390:          92 01 F8 FF FF  7F 00                       .......      
```

#### Opcodes

```
  0: 0x0393 [0x92] EventEntity->Render.Flags3 ^= 0x01
  1: 0x0399 [0x00] END_REQSTACK()
```

### Event 65535.30

#### Metadata

| Field        | Value    |
|--------------|----------|
| Entrypoint   | 0x039A   |
| Data Size    | 45 bytes |
| Instructions | 8        |

```
      00 01 02 03 04 05 06 07  08 09 0A 0B 0C 0D 0E 0F
      -- -- -- -- -- -- -- --  -- -- -- -- -- -- -- --
0390:                                03 00 00 00 80 13            ......
03A0: 02 00 26 80 02 02 00 00  80 80 C6 03 5B 2D 80 54  ..&.........[-.T
03B0: 83 08 01 54 83 08 01 69  72 61 30 03 00 00 01 80  ...T...ira0.....
03C0: 1C 14 80 01 C6 03 00                              .......         
```

#### Opcodes

```
  0: 0x039A [0x03] ExtData[1]->WorkLocal[0] = 0*
  1: 0x039F [0x13] ExtData[1]->WorkLocal[2] = rand() % 3*
  2: 0x03A4 [0x02] IF !(ExtData[1]->WorkLocal[2] == 0*) GOTO 0x03C6
  3: 0x03AC [0x5B] LOAD_EXT_SCHEDULER: Load scheduler "ira0" with entities [Lilisette (ID: 17335124/0x01088354), Lilisette (ID: 17335124/0x01088354)], work=2532*
  4: 0x03BB [0x03] ExtData[1]->WorkLocal[0] = 1*
  5: 0x03C0 [0x1C] WAIT(90* ticks)
  6: 0x03C3 [0x01] GOTO 0x03C6

SUBROUTINE_03C6:
  7: 0x03C6 [0x00] END_REQSTACK()
```

### Event 65535.31

#### Metadata

| Field        | Value   |
|--------------|---------|
| Entrypoint   | 0x03C7  |
| Data Size    | 6 bytes |
| Instructions | 2       |

```
      00 01 02 03 04 05 06 07  08 09 0A 0B 0C 0D 0E 0F
      -- -- -- -- -- -- -- --  -- -- -- -- -- -- -- --
03C0:                      03  01 00 00 80 00                  ......   
```

#### Opcodes

```
  0: 0x03C7 [0x03] ExtData[1]->WorkLocal[1] = 0*
  1: 0x03CC [0x00] END_REQSTACK()
```

### Event 65535.32

#### Metadata

| Field        | Value     |
|--------------|-----------|
| Entrypoint   | 0x03CD    |
| Data Size    | 706 bytes |
| Instructions | 143       |

```
      00 01 02 03 04 05 06 07  08 09 0A 0B 0C 0D 0E 0F
      -- -- -- -- -- -- -- --  -- -- -- -- -- -- -- --
03C0:                                         02 01 00               ...
03D0: 00 80 80 18 04 02 00 00  01 80 00 02 04 5B 2D 80  .............[-.
03E0: 54 83 08 01 54 83 08 01  69 72 61 31 32 09 80 1F  T...T...ira12...
03F0: 00 2E 80 2F 80 30 80 1F  01 6F 03 01 00 25 80 01  .../.0...o...%..
0400: 15 04 32 09 80 1F 00 31  80 32 80 33 80 1F 01 6F  ..2....1.2.3...o
0410: 03 01 00 01 80 01 8E 06  02 01 00 01 80 80 63 04  ..............c.
0420: 02 00 00 01 80 00 4D 04  5B 2D 80 54 83 08 01 54  ......M.[-.T...T
0430: 83 08 01 69 72 61 31 32  09 80 1F 00 34 80 35 80  ...ira12....4.5.
0440: 36 80 1F 01 6F 03 01 00  26 80 01 60 04 32 09 80  6...o...&..`.2..
0450: 1F 00 2E 80 2F 80 30 80  1F 01 6F 03 01 00 25 80  ..../.0...o...%.
0460: 01 8E 06 02 01 00 25 80  80 AE 04 02 00 00 01 80  ......%.........
0470: 00 98 04 5B 2D 80 54 83  08 01 54 83 08 01 69 72  ...[-.T...T...ir
0480: 61 31 32 09 80 1F 00 37  80 38 80 39 80 1F 01 6F  a12....7.8.9...o
0490: 03 01 00 27 80 01 AB 04  32 09 80 1F 00 34 80 35  ...'....2....4.5
04A0: 80 36 80 1F 01 6F 03 01  00 26 80 01 8E 06 02 01  .6...o...&......
04B0: 00 26 80 80 F9 04 02 00  00 01 80 00 E3 04 5B 2D  .&............[-
04C0: 80 54 83 08 01 54 83 08  01 69 72 61 31 32 09 80  .T...T...ira12..
04D0: 1F 00 3A 80 3B 80 3C 80  1F 01 6F 03 01 00 28 80  ..:.;.<...o...(.
04E0: 01 F6 04 32 09 80 1F 00  37 80 38 80 39 80 1F 01  ...2....7.8.9...
04F0: 6F 03 01 00 27 80 01 8E  06 02 01 00 27 80 80 44  o...'.......'..D
0500: 05 02 00 00 01 80 00 2E  05 5B 2D 80 54 83 08 01  .........[-.T...
0510: 54 83 08 01 69 72 61 31  32 09 80 1F 00 3D 80 3E  T...ira12....=.>
0520: 80 3F 80 1F 01 6F 03 01  00 29 80 01 41 05 32 09  .?...o...)..A.2.
0530: 80 1F 00 3A 80 3B 80 3C  80 1F 01 6F 03 01 00 28  ...:.;.<...o...(
0540: 80 01 8E 06 02 01 00 28  80 80 8F 05 02 00 00 01  .......(........
0550: 80 00 79 05 5B 2D 80 54  83 08 01 54 83 08 01 69  ..y.[-.T...T...i
0560: 72 61 31 32 09 80 1F 00  40 80 41 80 42 80 1F 01  ra12....@.A.B...
0570: 6F 03 01 00 2A 80 01 8C  05 32 09 80 1F 00 3D 80  o...*....2....=.
0580: 3E 80 3F 80 1F 01 6F 03  01 00 29 80 01 8E 06 02  >.?...o...).....
0590: 01 00 29 80 80 DA 05 02  00 00 01 80 00 C4 05 5B  ..)............[
05A0: 2D 80 54 83 08 01 54 83  08 01 69 72 61 31 32 09  -.T...T...ira12.
05B0: 80 1F 00 43 80 44 80 45  80 1F 01 6F 03 01 00 2B  ...C.D.E...o...+
05C0: 80 01 D7 05 32 09 80 1F  00 40 80 41 80 42 80 1F  ....2....@.A.B..
05D0: 01 6F 03 01 00 2A 80 01  8E 06 02 01 00 2A 80 80  .o...*.......*..
05E0: 25 06 02 00 00 01 80 00  0F 06 5B 2D 80 54 83 08  %.........[-.T..
05F0: 01 54 83 08 01 69 72 61  31 32 09 80 1F 00 46 80  .T...ira12....F.
0600: 47 80 48 80 1F 01 6F 03  01 00 2C 80 01 22 06 32  G.H...o...,..".2
0610: 09 80 1F 00 43 80 44 80  45 80 1F 01 6F 03 01 00  ....C.D.E...o...
0620: 2B 80 01 8E 06 02 01 00  2B 80 80 70 06 02 00 00  +.......+..p....
0630: 01 80 00 5A 06 5B 2D 80  54 83 08 01 54 83 08 01  ...Z.[-.T...T...
0640: 69 72 61 31 32 09 80 1F  00 49 80 4A 80 4B 80 1F  ira12....I.J.K..
0650: 01 6F 03 25 10 01 80 01  6D 06 32 09 80 1F 00 46  .o.%....m.2....F
0660: 80 47 80 48 80 1F 01 6F  03 01 00 2C 80 01 8E 06  .G.H...o...,....
0670: 02 01 00 2C 80 80 8E 06  32 09 80 1F 00 49 80 4A  ...,....2....I.J
0680: 80 4B 80 1F 01 6F 03 25  10 01 80 01 8E 06 00     .K...o.%....... 
```

#### Opcodes

```
  0: 0x03CD [0x02] IF !(ExtData[1]->WorkLocal[1] == 0*) GOTO 0x0418
  1: 0x03D5 [0x02] IF !(ExtData[1]->WorkLocal[0] == 1*) GOTO 0x0402
  2: 0x03DD [0x5B] LOAD_EXT_SCHEDULER: Load scheduler "ira1" with entities [Lilisette (ID: 17335124/0x01088354), Lilisette (ID: 17335124/0x01088354)], work=2532*
  3: 0x03EC [0x32] ExtData[1]->MainSpeed = 13* * 0.1
  4: 0x03EF [0x1F] MOVE_ENTITY: EventEntity moves to X=-20.746*, Z=-52.199*, Y=-57.050*
  5: 0x03F7 [0x1F] MOVE_ENTITY: Update entity position (mode=1)
  6: 0x03F9 [0x6F] WAIT_FRAME_DELAY: Yield until WaitTime reaches zero
  7: 0x03FA [0x03] ExtData[1]->WorkLocal[1] = 2*
  8: 0x03FF [0x01] GOTO 0x0415
  9: 0x0402 [0x32] ExtData[1]->MainSpeed = 13* * 0.1
 10: 0x0405 [0x1F] MOVE_ENTITY: EventEntity moves to X=-20.623*, Z=-53.027*, Y=-57.449*
 11: 0x040D [0x1F] MOVE_ENTITY: Update entity position (mode=1)
 12: 0x040F [0x6F] WAIT_FRAME_DELAY: Yield until WaitTime reaches zero
 13: 0x0410 [0x03] ExtData[1]->WorkLocal[1] = 1*

SUBROUTINE_0415:
 14: 0x0415 [0x01] GOTO 0x068E
 15: 0x0418 [0x02] IF !(ExtData[1]->WorkLocal[1] == 1*) GOTO 0x0463
 16: 0x0420 [0x02] IF !(ExtData[1]->WorkLocal[0] == 1*) GOTO 0x044D
 17: 0x0428 [0x5B] LOAD_EXT_SCHEDULER: Load scheduler "ira1" with entities [Lilisette (ID: 17335124/0x01088354), Lilisette (ID: 17335124/0x01088354)], work=2532*
 18: 0x0437 [0x32] ExtData[1]->MainSpeed = 13* * 0.1
 19: 0x043A [0x1F] MOVE_ENTITY: EventEntity moves to X=-20.666*, Z=-51.351*, Y=-56.648*
 20: 0x0442 [0x1F] MOVE_ENTITY: Update entity position (mode=1)
 21: 0x0444 [0x6F] WAIT_FRAME_DELAY: Yield until WaitTime reaches zero
 22: 0x0445 [0x03] ExtData[1]->WorkLocal[1] = 3*
 23: 0x044A [0x01] GOTO 0x0460
 24: 0x044D [0x32] ExtData[1]->MainSpeed = 13* * 0.1
 25: 0x0450 [0x1F] MOVE_ENTITY: EventEntity moves to X=-20.746*, Z=-52.199*, Y=-57.050*
 26: 0x0458 [0x1F] MOVE_ENTITY: Update entity position (mode=1)
 27: 0x045A [0x6F] WAIT_FRAME_DELAY: Yield until WaitTime reaches zero
 28: 0x045B [0x03] ExtData[1]->WorkLocal[1] = 2*

SUBROUTINE_0460:
 29: 0x0460 [0x01] GOTO 0x068E
 30: 0x0463 [0x02] IF !(ExtData[1]->WorkLocal[1] == 2*) GOTO 0x04AE
 31: 0x046B [0x02] IF !(ExtData[1]->WorkLocal[0] == 1*) GOTO 0x0498
 32: 0x0473 [0x5B] LOAD_EXT_SCHEDULER: Load scheduler "ira1" with entities [Lilisette (ID: 17335124/0x01088354), Lilisette (ID: 17335124/0x01088354)], work=2532*
 33: 0x0482 [0x32] ExtData[1]->MainSpeed = 13* * 0.1
 34: 0x0485 [0x1F] MOVE_ENTITY: EventEntity moves to X=-20.683*, Z=-50.612*, Y=-56.249*
 35: 0x048D [0x1F] MOVE_ENTITY: Update entity position (mode=1)
 36: 0x048F [0x6F] WAIT_FRAME_DELAY: Yield until WaitTime reaches zero
 37: 0x0490 [0x03] ExtData[1]->WorkLocal[1] = 4*
 38: 0x0495 [0x01] GOTO 0x04AB
 39: 0x0498 [0x32] ExtData[1]->MainSpeed = 13* * 0.1
 40: 0x049B [0x1F] MOVE_ENTITY: EventEntity moves to X=-20.666*, Z=-51.351*, Y=-56.648*
 41: 0x04A3 [0x1F] MOVE_ENTITY: Update entity position (mode=1)
 42: 0x04A5 [0x6F] WAIT_FRAME_DELAY: Yield until WaitTime reaches zero
 43: 0x04A6 [0x03] ExtData[1]->WorkLocal[1] = 3*

SUBROUTINE_04AB:
 44: 0x04AB [0x01] GOTO 0x068E
 45: 0x04AE [0x02] IF !(ExtData[1]->WorkLocal[1] == 3*) GOTO 0x04F9
 46: 0x04B6 [0x02] IF !(ExtData[1]->WorkLocal[0] == 1*) GOTO 0x04E3
 47: 0x04BE [0x5B] LOAD_EXT_SCHEDULER: Load scheduler "ira1" with entities [Lilisette (ID: 17335124/0x01088354), Lilisette (ID: 17335124/0x01088354)], work=2532*
 48: 0x04CD [0x32] ExtData[1]->MainSpeed = 13* * 0.1
 49: 0x04D0 [0x1F] MOVE_ENTITY: EventEntity moves to X=-20.664*, Z=-49.860*, Y=-55.851*
 50: 0x04D8 [0x1F] MOVE_ENTITY: Update entity position (mode=1)
 51: 0x04DA [0x6F] WAIT_FRAME_DELAY: Yield until WaitTime reaches zero
 52: 0x04DB [0x03] ExtData[1]->WorkLocal[1] = 5*
 53: 0x04E0 [0x01] GOTO 0x04F6
 54: 0x04E3 [0x32] ExtData[1]->MainSpeed = 13* * 0.1
 55: 0x04E6 [0x1F] MOVE_ENTITY: EventEntity moves to X=-20.683*, Z=-50.612*, Y=-56.249*
 56: 0x04EE [0x1F] MOVE_ENTITY: Update entity position (mode=1)
 57: 0x04F0 [0x6F] WAIT_FRAME_DELAY: Yield until WaitTime reaches zero
 58: 0x04F1 [0x03] ExtData[1]->WorkLocal[1] = 4*

SUBROUTINE_04F6:
 59: 0x04F6 [0x01] GOTO 0x068E
 60: 0x04F9 [0x02] IF !(ExtData[1]->WorkLocal[1] == 4*) GOTO 0x0544
 61: 0x0501 [0x02] IF !(ExtData[1]->WorkLocal[0] == 1*) GOTO 0x052E
 62: 0x0509 [0x5B] LOAD_EXT_SCHEDULER: Load scheduler "ira1" with entities [Lilisette (ID: 17335124/0x01088354), Lilisette (ID: 17335124/0x01088354)], work=2532*
 63: 0x0518 [0x32] ExtData[1]->MainSpeed = 13* * 0.1
 64: 0x051B [0x1F] MOVE_ENTITY: EventEntity moves to X=-20.651*, Z=-49.023*, Y=-55.449*
 65: 0x0523 [0x1F] MOVE_ENTITY: Update entity position (mode=1)
 66: 0x0525 [0x6F] WAIT_FRAME_DELAY: Yield until WaitTime reaches zero
 67: 0x0526 [0x03] ExtData[1]->WorkLocal[1] = 6*
 68: 0x052B [0x01] GOTO 0x0541
 69: 0x052E [0x32] ExtData[1]->MainSpeed = 13* * 0.1
 70: 0x0531 [0x1F] MOVE_ENTITY: EventEntity moves to X=-20.664*, Z=-49.860*, Y=-55.851*
 71: 0x0539 [0x1F] MOVE_ENTITY: Update entity position (mode=1)
 72: 0x053B [0x6F] WAIT_FRAME_DELAY: Yield until WaitTime reaches zero
 73: 0x053C [0x03] ExtData[1]->WorkLocal[1] = 5*

SUBROUTINE_0541:
 74: 0x0541 [0x01] GOTO 0x068E
 75: 0x0544 [0x02] IF !(ExtData[1]->WorkLocal[1] == 5*) GOTO 0x058F
 76: 0x054C [0x02] IF !(ExtData[1]->WorkLocal[0] == 1*) GOTO 0x0579
 77: 0x0554 [0x5B] LOAD_EXT_SCHEDULER: Load scheduler "ira1" with entities [Lilisette (ID: 17335124/0x01088354), Lilisette (ID: 17335124/0x01088354)], work=2532*
 78: 0x0563 [0x32] ExtData[1]->MainSpeed = 13* * 0.1
 79: 0x0566 [0x1F] MOVE_ENTITY: EventEntity moves to X=-20.729*, Z=-48.182*, Y=-55.050*
 80: 0x056E [0x1F] MOVE_ENTITY: Update entity position (mode=1)
 81: 0x0570 [0x6F] WAIT_FRAME_DELAY: Yield until WaitTime reaches zero
 82: 0x0571 [0x03] ExtData[1]->WorkLocal[1] = 7*
 83: 0x0576 [0x01] GOTO 0x058C
 84: 0x0579 [0x32] ExtData[1]->MainSpeed = 13* * 0.1
 85: 0x057C [0x1F] MOVE_ENTITY: EventEntity moves to X=-20.651*, Z=-49.023*, Y=-55.449*
 86: 0x0584 [0x1F] MOVE_ENTITY: Update entity position (mode=1)
 87: 0x0586 [0x6F] WAIT_FRAME_DELAY: Yield until WaitTime reaches zero
 88: 0x0587 [0x03] ExtData[1]->WorkLocal[1] = 6*

SUBROUTINE_058C:
 89: 0x058C [0x01] GOTO 0x068E
 90: 0x058F [0x02] IF !(ExtData[1]->WorkLocal[1] == 6*) GOTO 0x05DA
 91: 0x0597 [0x02] IF !(ExtData[1]->WorkLocal[0] == 1*) GOTO 0x05C4
 92: 0x059F [0x5B] LOAD_EXT_SCHEDULER: Load scheduler "ira1" with entities [Lilisette (ID: 17335124/0x01088354), Lilisette (ID: 17335124/0x01088354)], work=2532*
 93: 0x05AE [0x32] ExtData[1]->MainSpeed = 13* * 0.1
 94: 0x05B1 [0x1F] MOVE_ENTITY: EventEntity moves to X=-20.634*, Z=-47.402*, Y=-54.648*
 95: 0x05B9 [0x1F] MOVE_ENTITY: Update entity position (mode=1)
 96: 0x05BB [0x6F] WAIT_FRAME_DELAY: Yield until WaitTime reaches zero
 97: 0x05BC [0x03] ExtData[1]->WorkLocal[1] = 8*
 98: 0x05C1 [0x01] GOTO 0x05D7
 99: 0x05C4 [0x32] ExtData[1]->MainSpeed = 13* * 0.1
100: 0x05C7 [0x1F] MOVE_ENTITY: EventEntity moves to X=-20.729*, Z=-48.182*, Y=-55.050*
101: 0x05CF [0x1F] MOVE_ENTITY: Update entity position (mode=1)
102: 0x05D1 [0x6F] WAIT_FRAME_DELAY: Yield until WaitTime reaches zero
103: 0x05D2 [0x03] ExtData[1]->WorkLocal[1] = 7*

SUBROUTINE_05D7:
104: 0x05D7 [0x01] GOTO 0x068E
105: 0x05DA [0x02] IF !(ExtData[1]->WorkLocal[1] == 7*) GOTO 0x0625
106: 0x05E2 [0x02] IF !(ExtData[1]->WorkLocal[0] == 1*) GOTO 0x060F
107: 0x05EA [0x5B] LOAD_EXT_SCHEDULER: Load scheduler "ira1" with entities [Lilisette (ID: 17335124/0x01088354), Lilisette (ID: 17335124/0x01088354)], work=2532*
108: 0x05F9 [0x32] ExtData[1]->MainSpeed = 13* * 0.1
109: 0x05FC [0x1F] MOVE_ENTITY: EventEntity moves to X=-20.648*, Z=-46.582*, Y=-54.250*
110: 0x0604 [0x1F] MOVE_ENTITY: Update entity position (mode=1)
111: 0x0606 [0x6F] WAIT_FRAME_DELAY: Yield until WaitTime reaches zero
112: 0x0607 [0x03] ExtData[1]->WorkLocal[1] = 9*
113: 0x060C [0x01] GOTO 0x0622
114: 0x060F [0x32] ExtData[1]->MainSpeed = 13* * 0.1
115: 0x0612 [0x1F] MOVE_ENTITY: EventEntity moves to X=-20.634*, Z=-47.402*, Y=-54.648*
116: 0x061A [0x1F] MOVE_ENTITY: Update entity position (mode=1)
117: 0x061C [0x6F] WAIT_FRAME_DELAY: Yield until WaitTime reaches zero
118: 0x061D [0x03] ExtData[1]->WorkLocal[1] = 8*

SUBROUTINE_0622:
119: 0x0622 [0x01] GOTO 0x068E
120: 0x0625 [0x02] IF !(ExtData[1]->WorkLocal[1] == 8*) GOTO 0x0670
121: 0x062D [0x02] IF !(ExtData[1]->WorkLocal[0] == 1*) GOTO 0x065A
122: 0x0635 [0x5B] LOAD_EXT_SCHEDULER: Load scheduler "ira1" with entities [Lilisette (ID: 17335124/0x01088354), Lilisette (ID: 17335124/0x01088354)], work=2532*
123: 0x0644 [0x32] ExtData[1]->MainSpeed = 13* * 0.1
124: 0x0647 [0x1F] MOVE_ENTITY: EventEntity moves to X=-20.719*, Z=-45.651*, Y=-53.851*
125: 0x064F [0x1F] MOVE_ENTITY: Update entity position (mode=1)
126: 0x0651 [0x6F] WAIT_FRAME_DELAY: Yield until WaitTime reaches zero
127: 0x0652 [0x03] Work_Zone[37] = 1*
128: 0x0657 [0x01] GOTO 0x066D
129: 0x065A [0x32] ExtData[1]->MainSpeed = 13* * 0.1
130: 0x065D [0x1F] MOVE_ENTITY: EventEntity moves to X=-20.648*, Z=-46.582*, Y=-54.250*
131: 0x0665 [0x1F] MOVE_ENTITY: Update entity position (mode=1)
132: 0x0667 [0x6F] WAIT_FRAME_DELAY: Yield until WaitTime reaches zero
133: 0x0668 [0x03] ExtData[1]->WorkLocal[1] = 9*

SUBROUTINE_066D:
134: 0x066D [0x01] GOTO 0x068E
135: 0x0670 [0x02] IF !(ExtData[1]->WorkLocal[1] == 9*) GOTO 0x068E
136: 0x0678 [0x32] ExtData[1]->MainSpeed = 13* * 0.1
137: 0x067B [0x1F] MOVE_ENTITY: EventEntity moves to X=-20.719*, Z=-45.651*, Y=-53.851*
138: 0x0683 [0x1F] MOVE_ENTITY: Update entity position (mode=1)
139: 0x0685 [0x6F] WAIT_FRAME_DELAY: Yield until WaitTime reaches zero
140: 0x0686 [0x03] Work_Zone[37] = 1*
141: 0x068B [0x01] GOTO 0x068E

SUBROUTINE_068E:
142: 0x068E [0x00] END_REQSTACK()
```

### Event 10

#### Metadata

| Field        | Value   |
|--------------|---------|
| Entrypoint   | 0x068F  |
| Data Size    | 7 bytes |
| Instructions | 2       |

```
      00 01 02 03 04 05 06 07  08 09 0A 0B 0C 0D 0E 0F
      -- -- -- -- -- -- -- --  -- -- -- -- -- -- -- --
0680:                                               92                 .
0690: 01 F8 FF FF 7F 00                                 ......          
```

#### Opcodes

```
  0: 0x068F [0x92] EventEntity->Render.Flags3 ^= 0x01
  1: 0x0695 [0x00] END_REQSTACK()
```

### Event 65535.33

#### Metadata

| Field        | Value    |
|--------------|----------|
| Entrypoint   | 0x0696   |
| Data Size    | 12 bytes |
| Instructions | 3        |

```
      00 01 02 03 04 05 06 07  08 09 0A 0B 0C 0D 0E 0F
      -- -- -- -- -- -- -- --  -- -- -- -- -- -- -- --
0690:                   2A 05  55 83 08 01 03 28 10 01        *.U....(..
06A0: 80 00                                             ..              
```

#### Opcodes

```
  0: 0x0696 [0x2A] GET_REQ_LEVEL(level=5, entity_id=Portia (ID: 17335125/0x01088355))
  1: 0x069C [0x03] Work_Zone[40] = 1*
  2: 0x06A1 [0x00] END_REQSTACK()
```

### Event 11

#### Metadata

| Field        | Value   |
|--------------|---------|
| Entrypoint   | 0x06A2  |
| Data Size    | 7 bytes |
| Instructions | 2       |

```
      00 01 02 03 04 05 06 07  08 09 0A 0B 0C 0D 0E 0F
      -- -- -- -- -- -- -- --  -- -- -- -- -- -- -- --
06A0:       92 01 F8 FF FF 7F  00                         .......       
```

#### Opcodes

```
  0: 0x06A2 [0x92] EventEntity->Render.Flags3 ^= 0x01
  1: 0x06A8 [0x00] END_REQSTACK()
```

### Event 65535.34

#### Metadata

| Field        | Value    |
|--------------|----------|
| Entrypoint   | 0x06A9   |
| Data Size    | 17 bytes |
| Instructions | 5        |

```
      00 01 02 03 04 05 06 07  08 09 0A 0B 0C 0D 0E 0F
      -- -- -- -- -- -- -- --  -- -- -- -- -- -- -- --
06A0:                             1C 4C 80 03 27 10 01           .L..'..
06B0: 80 1C 05 80 03 27 10 00  80 00                    .....'....      
```

#### Opcodes

```
  0: 0x06A9 [0x1C] WAIT(15* ticks)
  1: 0x06AC [0x03] Work_Zone[39] = 1*
  2: 0x06B1 [0x1C] WAIT(30* ticks)
  3: 0x06B4 [0x03] Work_Zone[39] = 0*
  4: 0x06B9 [0x00] END_REQSTACK()
```

### Event 12

#### Metadata

| Field        | Value   |
|--------------|---------|
| Entrypoint   | 0x06BA  |
| Data Size    | 7 bytes |
| Instructions | 2       |

```
      00 01 02 03 04 05 06 07  08 09 0A 0B 0C 0D 0E 0F
      -- -- -- -- -- -- -- --  -- -- -- -- -- -- -- --
06B0:                                92 01 F8 FF FF 7F            ......
06C0: 00                                                .               
```

#### Opcodes

```
  0: 0x06BA [0x92] EventEntity->Render.Flags3 ^= 0x01
  1: 0x06C0 [0x00] END_REQSTACK()
```

### Event 65535.35

#### Metadata

| Field        | Value    |
|--------------|----------|
| Entrypoint   | 0x06C1   |
| Data Size    | 43 bytes |
| Instructions | 11       |

```
      00 01 02 03 04 05 06 07  08 09 0A 0B 0C 0D 0E 0F
      -- -- -- -- -- -- -- --  -- -- -- -- -- -- -- --
06C0:    B4 0A 07 80 03 02 00  07 80 02 02 00 00 80 02   ...............
06D0: DC 06 B4 0C 02 00 1C 28  80 01 CA 06 B4 0B 03 25  .......(.......%
06E0: 10 01 80 03 26 10 01 80  B4 06 00 00              ....&.......    
```

#### Opcodes

```
  0: 0x06C1 [0xB4] UI_WINDOW_STRING_HANDLER(case=0x0A - Open event time window, work_offset=3600*)
  1: 0x06C5 [0x03] ExtData[1]->WorkLocal[2] = 3600*
  2: 0x06CA [0x02] IF !(ExtData[1]->WorkLocal[2] <= 0*) GOTO 0x06DC
  3: 0x06D2 [0xB4] UI_WINDOW_STRING_HANDLER(case=0x0C - Get event time count value, work_offset=ExtData[1]->WorkLocal[2])
  4: 0x06D6 [0x1C] WAIT(5* ticks)
  5: 0x06D9 [0x01] GOTO 0x06CA
  6: 0x06DC [0xB4] UI_WINDOW_STRING_HANDLER(case=0x0B - Destroy event time window)
  7: 0x06DE [0x03] Work_Zone[37] = 1*
  8: 0x06E3 [0x03] Work_Zone[38] = 1*
  9: 0x06E8 [0xB4] UI_WINDOW_STRING_HANDLER(case=0x06 - Toggle query message flag, flag_value=0x00)
 10: 0x06EB [0x00] END_REQSTACK()
```

### Event 14

#### Metadata

| Field        | Value   |
|--------------|---------|
| Entrypoint   | 0x06EC  |
| Data Size    | 7 bytes |
| Instructions | 2       |

```
      00 01 02 03 04 05 06 07  08 09 0A 0B 0C 0D 0E 0F
      -- -- -- -- -- -- -- --  -- -- -- -- -- -- -- --
06E0:                                      92 01 F8 FF              ....
06F0: FF 7F 00                                          ...             
```

#### Opcodes

```
  0: 0x06EC [0x92] EventEntity->Render.Flags3 ^= 0x01
  1: 0x06F2 [0x00] END_REQSTACK()
```

### Event 65535.36

#### Metadata

| Field        | Value    |
|--------------|----------|
| Entrypoint   | 0x06F3   |
| Data Size    | 14 bytes |
| Instructions | 4        |

```
      00 01 02 03 04 05 06 07  08 09 0A 0B 0C 0D 0E 0F
      -- -- -- -- -- -- -- --  -- -- -- -- -- -- -- --
06F0:          32 09 80 1F 00  4D 80 4E 80 4F 80 1F 01     2....M.N.O...
0700: 00                                                .               
```

#### Opcodes

```
  0: 0x06F3 [0x32] ExtData[1]->MainSpeed = 13* * 0.1
  1: 0x06F6 [0x1F] MOVE_ENTITY: EventEntity moves to X=52.014*, Z=-326.238*, Y=0.286*
  2: 0x06FE [0x1F] MOVE_ENTITY: Update entity position (mode=1)
  3: 0x0700 [0x00] END_REQSTACK()
```

### Event 65535.37

#### Metadata

| Field        | Value   |
|--------------|---------|
| Entrypoint   | 0x0701  |
| Data Size    | 5 bytes |
| Instructions | 2       |

```
      00 01 02 03 04 05 06 07  08 09 0A 0B 0C 0D 0E 0F
      -- -- -- -- -- -- -- --  -- -- -- -- -- -- -- --
0700:    B6 00 50 80 00                                  ..P..          
```

#### Opcodes

```
  0: 0x0701 [0xB6] ENTITY_APPEARANCE_HANDLER(case=Hair style, value=2325*)
  1: 0x0705 [0x00] END_REQSTACK()
```

### Event 65535.38

#### Metadata

| Field        | Value   |
|--------------|---------|
| Entrypoint   | 0x0706  |
| Data Size    | 5 bytes |
| Instructions | 2       |

```
      00 01 02 03 04 05 06 07  08 09 0A 0B 0C 0D 0E 0F
      -- -- -- -- -- -- -- --  -- -- -- -- -- -- -- --
0700:                   B6 00  51 80 00                       ..Q..     
```

#### Opcodes

```
  0: 0x0706 [0xB6] ENTITY_APPEARANCE_HANDLER(case=Hair style, value=2279*)
  1: 0x070A [0x00] END_REQSTACK()
```

### Event 18

#### Metadata

| Field        | Value   |
|--------------|---------|
| Entrypoint   | 0x070B  |
| Data Size    | 7 bytes |
| Instructions | 2       |

```
      00 01 02 03 04 05 06 07  08 09 0A 0B 0C 0D 0E 0F
      -- -- -- -- -- -- -- --  -- -- -- -- -- -- -- --
0700:                                   92 01 F8 FF FF             .....
0710: 7F 00                                             ..              
```

#### Opcodes

```
  0: 0x070B [0x92] EventEntity->Render.Flags3 ^= 0x01
  1: 0x0711 [0x00] END_REQSTACK()
```

### Event 65535.39

#### Metadata

| Field        | Value    |
|--------------|----------|
| Entrypoint   | 0x0712   |
| Data Size    | 27 bytes |
| Instructions | 7        |

```
      00 01 02 03 04 05 06 07  08 09 0A 0B 0C 0D 0E 0F
      -- -- -- -- -- -- -- --  -- -- -- -- -- -- -- --
0710:       32 09 80 1F 00 52  80 53 80 54 80 1F 01 1E    2....R.S.T....
0720: 59 83 08 01 7B F8 FF FF  7F 1C 05 80 00           Y...{........   
```

#### Opcodes

```
  0: 0x0712 [0x32] ExtData[1]->MainSpeed = 13* * 0.1
  1: 0x0715 [0x1F] MOVE_ENTITY: EventEntity moves to X=399.227*, Z=-453.812*, Y=1.499*
  2: 0x071D [0x1F] MOVE_ENTITY: Update entity position (mode=1)
  3: 0x071F [0x1E] EventEntity looks at Cait Sith Ceithir (ID: 17335129/0x01088359) and starts talking
  4: 0x0724 [0x7B] EventEntity stops talking
  5: 0x0729 [0x1C] WAIT(30* ticks)
  6: 0x072C [0x00] END_REQSTACK()
```

### Event 65535.40

#### Metadata

| Field        | Value   |
|--------------|---------|
| Entrypoint   | 0x072D  |
| Data Size    | 4 bytes |
| Instructions | 2       |

```
      00 01 02 03 04 05 06 07  08 09 0A 0B 0C 0D 0E 0F
      -- -- -- -- -- -- -- --  -- -- -- -- -- -- -- --
0720:                                         C0 01 80               ...
0730: 00                                                .               
```

#### Opcodes

```
  0: 0x072D [0xC0] EventEntity->Render.Flags3 |= 0x1000 // Set bit 12 (from 1*)
  1: 0x0730 [0x00] END_REQSTACK()
```

### Event 17

#### Metadata

| Field        | Value   |
|--------------|---------|
| Entrypoint   | 0x0731  |
| Data Size    | 1 bytes |
| Instructions | 1       |

```
      00 01 02 03 04 05 06 07  08 09 0A 0B 0C 0D 0E 0F
      -- -- -- -- -- -- -- --  -- -- -- -- -- -- -- --
0730:    00                                              .              
```

#### Opcodes

```
  0: 0x0731 [0x00] END_REQSTACK()
```

### Event 65535.41

#### Metadata

| Field        | Value    |
|--------------|----------|
| Entrypoint   | 0x0732   |
| Data Size    | 11 bytes |
| Instructions | 3        |

```
      00 01 02 03 04 05 06 07  08 09 0A 0B 0C 0D 0E 0F
      -- -- -- -- -- -- -- --  -- -- -- -- -- -- -- --
0730:       1F 00 55 80 56 80  57 80 1F 01 00             ..U.V.W....   
```

#### Opcodes

```
  0: 0x0732 [0x1F] MOVE_ENTITY: EventEntity moves to X=-115.719*, Z=108.433*, Y=-3.996*
  1: 0x073A [0x1F] MOVE_ENTITY: Update entity position (mode=1)
  2: 0x073C [0x00] END_REQSTACK()
```

### Event 65535.42

#### Metadata

| Field        | Value    |
|--------------|----------|
| Entrypoint   | 0x073D   |
| Data Size    | 11 bytes |
| Instructions | 3        |

```
      00 01 02 03 04 05 06 07  08 09 0A 0B 0C 0D 0E 0F
      -- -- -- -- -- -- -- --  -- -- -- -- -- -- -- --
0730:                                         1F 00 58               ..X
0740: 80 59 80 5A 80 1F 01 00                           .Y.Z....        
```

#### Opcodes

```
  0: 0x073D [0x1F] MOVE_ENTITY: EventEntity moves to X=-417.965*, Z=-121.469*, Y=0.999*
  1: 0x0745 [0x1F] MOVE_ENTITY: Update entity position (mode=1)
  2: 0x0747 [0x00] END_REQSTACK()
```

### Event 65535.43

#### Metadata

| Field        | Value    |
|--------------|----------|
| Entrypoint   | 0x0748   |
| Data Size    | 11 bytes |
| Instructions | 3        |

```
      00 01 02 03 04 05 06 07  08 09 0A 0B 0C 0D 0E 0F
      -- -- -- -- -- -- -- --  -- -- -- -- -- -- -- --
0740:                          1F 00 5B 80 5C 80 5D 80          ..[.\.].
0750: 1F 01 00                                          ...             
```

#### Opcodes

```
  0: 0x0748 [0x1F] MOVE_ENTITY: EventEntity moves to X=-409.067*, Z=-124.213*, Y=0.413*
  1: 0x0750 [0x1F] MOVE_ENTITY: Update entity position (mode=1)
  2: 0x0752 [0x00] END_REQSTACK()
```

### Event 30

#### Metadata

| Field        | Value   |
|--------------|---------|
| Entrypoint   | 0x0753  |
| Data Size    | 1 bytes |
| Instructions | 1       |

```
      00 01 02 03 04 05 06 07  08 09 0A 0B 0C 0D 0E 0F
      -- -- -- -- -- -- -- --  -- -- -- -- -- -- -- --
0750:          00                                          .            
```

#### Opcodes

```
  0: 0x0753 [0x00] END_REQSTACK()
```
