# 17335073

## Common Data

| Field            | Value                            |
|------------------|----------------------------------|
| Zone             | Beaucedine Glacier [S] (ID: 136) |
| Block Size       | 14848 bytes                      |
| Total Events     | 3                                |
| References Count | 525                              |

## List of Events

| Event ID              | Entrypoint   |   Size |   Instructions |
|-----------------------|--------------|--------|----------------|
| [65535](#event-65535) | 0x0000       |      1 |              1 |
| [13](#event-13)       | 0x0001       |   7680 |            828 |
| [29](#event-29)       | 0x1E01       |   5037 |            514 |

## DAT References (imed_data)

|   Index | Hex Value   |   Dec Value |
|---------|-------------|-------------|
|       0 | 0x0013      |          19 |
|       1 | 0x00FF      |         255 |
|       2 | 0x000C      |          12 |
|       3 | 0x0001      |           1 |
|       4 | 0xE9A5      |       59813 |
|       5 | 0xFFF8071F  |  4294444831 |
|       6 | 0xFFFFF9D5  |  4294965717 |
|       7 | 0x0C14      |        3092 |
|       8 | 0xED19      |       60697 |
|       9 | 0xFFF8C268  |  4294492776 |
|      10 | 0x00F5      |         245 |
|      11 | 0x0C91      |        3217 |
|      12 | 0xF179      |       61817 |
|      13 | 0xFFF8C7DD  |  4294494173 |
|      14 | 0x00A1      |         161 |
|      15 | 0x0C1F      |        3103 |
|      16 | 0xD203      |       53763 |
|      17 | 0xFFF8974C  |  4294481740 |
|      18 | 0xFFFFFDC4  |  4294966724 |
|      19 | 0xED7A      |       60794 |
|      20 | 0xFFF8C166  |  4294492518 |
|      21 | 0x00EE      |         238 |
|      22 | 0x0442      |        1090 |
|      23 | 0xEDB5      |       60853 |
|      24 | 0xFFF8F21C  |  4294504988 |
|      25 | 0xFFFFBC4B  |  4294949963 |
|      26 | 0x0406      |        1030 |
|      27 | 0xEE75      |       61045 |
|      28 | 0xFFF8D4CE  |  4294497486 |
|      29 | 0x0034      |          52 |
|      30 | 0x0000      |           0 |
|      31 | 0x003C      |          60 |
|      32 | 0x000F      |          15 |
|      33 | 0x01F5      |         501 |
|      34 | 0x00D2      |         210 |
|      35 | 0xEA12      |       59922 |
|      36 | 0xFFF885F2  |  4294477298 |
|      37 | 0x0124      |         292 |
|      38 | 0x0C0E      |        3086 |
|      39 | 0x08C2      |        2242 |
|      40 | 0x1F80      |        8064 |
|      41 | 0x0096      |         150 |
|      42 | 0x001E      |          30 |
|      43 | 0xF14D      |       61773 |
|      44 | 0xFFF8D2E1  |  4294496993 |
|      45 | 0x0023      |          35 |
|      46 | 0xF1C1      |       61889 |
|      47 | 0xFFF8D5CF  |  4294497743 |
|      48 | 0xFFFFFFD8  |  4294967256 |
|      49 | 0x00B4      |         180 |
|      50 | 0x1F81      |        8065 |
|      51 | 0xEDA5      |       60837 |
|      52 | 0xFFF8E7E1  |  4294502369 |
|      53 | 0xFFFFFFA4  |  4294967204 |
|      54 | 0x0C1E      |        3102 |
|      55 | 0x0856      |        2134 |
|      56 | 0x1F82      |        8066 |
|      57 | 0x0016      |          22 |
|      58 | 0x005A      |          90 |
|      59 | 0x0002      |           2 |
|      60 | 0x0003      |           3 |
|      61 | 0x0004      |           4 |
|      62 | 0x0005      |           5 |
|      63 | 0x0006      |           6 |
|      64 | 0x0007      |           7 |
|      65 | 0x0008      |           8 |
|      66 | 0x0857      |        2135 |
|      67 | 0x0078      |         120 |
|      68 | 0x1F83      |        8067 |
|      69 | 0xEC3E      |       60478 |
|      70 | 0xFFF8D836  |  4294498358 |
|      71 | 0x0C93      |        3219 |
|      72 | 0xF0AC      |       61612 |
|      73 | 0xFFF8C9A6  |  4294494630 |
|      74 | 0x00B1      |         177 |
|      75 | 0x0C92      |        3218 |
|      76 | 0x002B      |          43 |
|      77 | 0x0ADE      |        2782 |
|      78 | 0x1F84      |        8068 |
|      79 | 0x0583      |        1411 |
|      80 | 0xEC59      |       60505 |
|      81 | 0xFFF8D62F  |  4294497839 |
|      82 | 0x0042      |          66 |
|      83 | 0x0BB8      |        3000 |
|      84 | 0x0050      |          80 |
|      85 | 0x003B      |          59 |
|      86 | 0x1F85      |        8069 |
|      87 | 0x005E      |          94 |
|      88 | 0x00A5      |         165 |
|      89 | 0xF1BC      |       61884 |
|      90 | 0xFFF8D549  |  4294497609 |
|      91 | 0xFFFFFFE5  |  4294967269 |
|      92 | 0x0875      |        2165 |
|      93 | 0x0014      |          20 |
|      94 | 0x0019      |          25 |
|      95 | 0x0037      |          55 |
|      96 | 0x009D      |         157 |
|      97 | 0xEC16      |       60438 |
|      98 | 0xFFF8CC0A  |  4294495242 |
|      99 | 0x0109      |         265 |
|     100 | 0x04B0      |        1200 |
|     101 | 0x09D7      |        2519 |
|     102 | 0x00A0      |         160 |
|     103 | 0xDCF6      |       56566 |
|     104 | 0xFFF8D506  |  4294497542 |
|     105 | 0xFFFFFC7D  |  4294966397 |
|     106 | 0x07D0      |        2000 |
|     107 | 0xF1B3      |       61875 |
|     108 | 0xFFF8F8CF  |  4294506703 |
|     109 | 0xFFFFFF8E  |  4294967182 |
|     110 | 0xF763      |       63331 |
|     111 | 0xFFF8D4F2  |  4294497522 |
|     112 | 0xFFFFFF5E  |  4294967134 |
|     113 | 0x0C44      |        3140 |
|     114 | 0x0032      |          50 |
|     115 | 0x002D      |          45 |
|     116 | 0xE32C      |       58156 |
|     117 | 0xFFF8D78D  |  4294498189 |
|     118 | 0xFFFFFE3F  |  4294966847 |
|     119 | 0x0ADF      |        2783 |
|     120 | 0xEE34      |       60980 |
|     121 | 0xFFF8D04A  |  4294496330 |
|     122 | 0x0091      |         145 |
|     123 | 0xF4F5      |       62709 |
|     124 | 0xFFF8D50B  |  4294497547 |
|     125 | 0xFFFFFF99  |  4294967193 |
|     126 | 0x1F86      |        8070 |
|     127 | 0xF47D      |       62589 |
|     128 | 0xFFF8D198  |  4294496664 |
|     129 | 0xFFFFFFFD  |  4294967293 |
|     130 | 0x035E      |         862 |
|     131 | 0xEE36      |       60982 |
|     132 | 0xFFF8D41E  |  4294497310 |
|     133 | 0x0047      |          71 |
|     134 | 0xEAD5      |       60117 |
|     135 | 0xFFF8D62C  |  4294497836 |
|     136 | 0x0060      |          96 |
|     137 | 0x04D5      |        1237 |
|     138 | 0xECF8      |       60664 |
|     139 | 0xFFF8BB6A  |  4294490986 |
|     140 | 0x00F8      |         248 |
|     141 | 0x0029      |          41 |
|     142 | 0x0064      |         100 |
|     143 | 0x1F87      |        8071 |
|     144 | 0x1F88      |        8072 |
|     145 | 0xEC20      |       60448 |
|     146 | 0xFFF8C341  |  4294492993 |
|     147 | 0x0108      |         264 |
|     148 | 0x0C1C      |        3100 |
|     149 | 0x0028      |          40 |
|     150 | 0x1F89      |        8073 |
|     151 | 0x1F8A      |        8074 |
|     152 | 0x09D8      |        2520 |
|     153 | 0x1F8B      |        8075 |
|     154 | 0x1F8C      |        8076 |
|     155 | 0x1F8D      |        8077 |
|     156 | 0x1F8E      |        8078 |
|     157 | 0x1F8F      |        8079 |
|     158 | 0xEC45      |       60485 |
|     159 | 0xFFF8C5C0  |  4294493632 |
|     160 | 0x0106      |         262 |
|     161 | 0x1F90      |        8080 |
|     162 | 0x00F0      |         240 |
|     163 | 0x012C      |         300 |
|     164 | 0x1F91      |        8081 |
|     165 | 0x1F92      |        8082 |
|     166 | 0x1F93      |        8083 |
|     167 | 0xECF6      |       60662 |
|     168 | 0xFFF8C903  |  4294494467 |
|     169 | 0x08C9      |        2249 |
|     170 | 0x1F94      |        8084 |
|     171 | 0x0015      |          21 |
|     172 | 0x1F95      |        8085 |
|     173 | 0x007F      |         127 |
|     174 | 0xED1C      |       60700 |
|     175 | 0xFFF8CB7F  |  4294495103 |
|     176 | 0x1F96      |        8086 |
|     177 | 0x1F97      |        8087 |
|     178 | 0x1F98      |        8088 |
|     179 | 0x051F      |        1311 |
|     180 | 0x1F99      |        8089 |
|     181 | 0x1F9A      |        8090 |
|     182 | 0x0850      |        2128 |
|     183 | 0x1F9B      |        8091 |
|     184 | 0x09E9      |        2537 |
|     185 | 0x1F9C      |        8092 |
|     186 | 0x1F9D      |        8093 |
|     187 | 0x0C80      |        3200 |
|     188 | 0x1F9E      |        8094 |
|     189 | 0x1F9F      |        8095 |
|     190 | 0x1FA0      |        8096 |
|     191 | 0x1FA1      |        8097 |
|     192 | 0x1FA2      |        8098 |
|     193 | 0x1FA3      |        8099 |
|     194 | 0x0854      |        2132 |
|     195 | 0x1FA4      |        8100 |
|     196 | 0x1FA5      |        8101 |
|     197 | 0x051E      |        1310 |
|     198 | 0x1FA6      |        8102 |
|     199 | 0x1FA7      |        8103 |
|     200 | 0x0855      |        2133 |
|     201 | 0x1FA8      |        8104 |
|     202 | 0x1FA9      |        8105 |
|     203 | 0x1FAA      |        8106 |
|     204 | 0x1FAB      |        8107 |
|     205 | 0x1FAC      |        8108 |
|     206 | 0xEB63      |       60259 |
|     207 | 0xFFF8D0E6  |  4294496486 |
|     208 | 0x00BB      |         187 |
|     209 | 0x015E      |         350 |
|     210 | 0x08F5      |        2293 |
|     211 | 0x1FAD      |        8109 |
|     212 | 0x1FAE      |        8110 |
|     213 | 0x0584      |        1412 |
|     214 | 0x1FAF      |        8111 |
|     215 | 0x0E10      |        3600 |
|     216 | 0x1FB0      |        8112 |
|     217 | 0x1FB1      |        8113 |
|     218 | 0x1FB2      |        8114 |
|     219 | 0x1FB3      |        8115 |
|     220 | 0x1FB4      |        8116 |
|     221 | 0x1FB5      |        8117 |
|     222 | 0x1FB6      |        8118 |
|     223 | 0x1FB7      |        8119 |
|     224 | 0x1FB8      |        8120 |
|     225 | 0x00A7      |         167 |
|     226 | 0x1FB9      |        8121 |
|     227 | 0x0468      |        1128 |
|     228 | 0x1FBA      |        8122 |
|     229 | 0x1FBB      |        8123 |
|     230 | 0x1FBC      |        8124 |
|     231 | 0x1FBD      |        8125 |
|     232 | 0x0586      |        1414 |
|     233 | 0x00C3      |         195 |
|     234 | 0xE89F      |       59551 |
|     235 | 0xFFF8D12E  |  4294496558 |
|     236 | 0x0051      |          81 |
|     237 | 0xE83C      |       59452 |
|     238 | 0xFFF82943  |  4294453571 |
|     239 | 0xFFFF8AD0  |  4294937296 |
|     240 | 0x0C0F      |        3087 |
|     241 | 0xEFB2      |       61362 |
|     242 | 0xFFF8C323  |  4294492963 |
|     243 | 0x00C4      |         196 |
|     244 | 0x03E8      |        1000 |
|     245 | 0x1FBE      |        8126 |
|     246 | 0x1FBF      |        8127 |
|     247 | 0x0024      |          36 |
|     248 | 0x0585      |        1413 |
|     249 | 0x0168      |         360 |
|     250 | 0x1FC0      |        8128 |
|     251 | 0x1FC1      |        8129 |
|     252 | 0x1FC2      |        8130 |
|     253 | 0x1FC3      |        8131 |
|     254 | 0x00C8      |         200 |
|     255 | 0xFFFEED23  |  4294896931 |
|     256 | 0xFFFD06AE  |  4294772398 |
|     257 | 0xFFFF64A0  |  4294927520 |
|     258 | 0x0C66      |        3174 |
|     259 | 0x0228      |         552 |
|     260 | 0xFFFF4740  |  4294920000 |
|     261 | 0xFFFCE832  |  4294764594 |
|     262 | 0xFFFF6464  |  4294927460 |
|     263 | 0x084D      |        2125 |
|     264 | 0xFFFF5492  |  4294923410 |
|     265 | 0xFFFCE348  |  4294763336 |
|     266 | 0xFFFF63BA  |  4294927290 |
|     267 | 0x0820      |        2080 |
|     268 | 0xFFFF4DFA  |  4294921722 |
|     269 | 0xFFFCDF0C  |  4294762252 |
|     270 | 0xFFFF6441  |  4294927425 |
|     271 | 0xFFFF28E7  |  4294912231 |
|     272 | 0xFFFD1037  |  4294774839 |
|     273 | 0xFFFF5330  |  4294923056 |
|     274 | 0x01FF      |         511 |
|     275 | 0xFFFF27D4  |  4294911956 |
|     276 | 0xFFFD08C5  |  4294772933 |
|     277 | 0xFFFF5335  |  4294923061 |
|     278 | 0x0092      |         146 |
|     279 | 0xFFFB23A0  |  4294648736 |
|     280 | 0xFFFD5482  |  4294792322 |
|     281 | 0xFFFF622B  |  4294926891 |
|     282 | 0x06B9      |        1721 |
|     283 | 0xFFFB2411  |  4294648849 |
|     284 | 0xFFFD4554  |  4294788436 |
|     285 | 0xFFFF6496  |  4294927510 |
|     286 | 0x0924      |        2340 |
|     287 | 0xFFFB0027  |  4294639655 |
|     288 | 0xFFFD399C  |  4294785436 |
|     289 | 0xFFFF6434  |  4294927412 |
|     290 | 0x0435      |        1077 |
|     291 | 0xFFFACCB9  |  4294626489 |
|     292 | 0xFFFD31E3  |  4294783459 |
|     293 | 0xFFFF63C0  |  4294927296 |
|     294 | 0x0676      |        1654 |
|     295 | 0xFFFB2E42  |  4294651458 |
|     296 | 0xFFFD3626  |  4294784550 |
|     297 | 0xFFFF641D  |  4294927389 |
|     298 | 0x08AB      |        2219 |
|     299 | 0xFFFB16A1  |  4294645409 |
|     300 | 0xFFFD4CFE  |  4294790398 |
|     301 | 0xFFFF6402  |  4294927362 |
|     302 | 0x0FA0      |        4000 |
|     303 | 0xFFFB1AB4  |  4294646452 |
|     304 | 0xFFFD38E3  |  4294785251 |
|     305 | 0xFFFF6451  |  4294927441 |
|     306 | 0x0052      |          82 |
|     307 | 0xFFFAC0F5  |  4294623477 |
|     308 | 0xFFFD2426  |  4294779942 |
|     309 | 0x0EBE      |        3774 |
|     310 | 0xFFFAD76D  |  4294629229 |
|     311 | 0xFFFD3D17  |  4294786327 |
|     312 | 0xFFFF63F1  |  4294927345 |
|     313 | 0x0F0F      |        3855 |
|     314 | 0xFFFAA05A  |  4294615130 |
|     315 | 0xFFFD1CAE  |  4294778030 |
|     316 | 0xFFFF61ED  |  4294926829 |
|     317 | 0x0F67      |        3943 |
|     318 | 0xFFFA8D73  |  4294610291 |
|     319 | 0xFFFD049E  |  4294771870 |
|     320 | 0xFFFF63A3  |  4294927267 |
|     321 | 0x0436      |        1078 |
|     322 | 0xFFFAB2E9  |  4294619881 |
|     323 | 0xFFFD355F  |  4294784351 |
|     324 | 0xFFFF6116  |  4294926614 |
|     325 | 0xFFFF5FD8  |  4294926296 |
|     326 | 0xFFFB091C  |  4294641948 |
|     327 | 0xFFFD697A  |  4294797690 |
|     328 | 0xFFFF1911  |  4294908177 |
|     329 | 0x0370      |         880 |
|     330 | 0xFFFAFFEA  |  4294639594 |
|     331 | 0xFFFD6964  |  4294797668 |
|     332 | 0xFFFF1914  |  4294908180 |
|     333 | 0x0516      |        1302 |
|     334 | 0x0599      |        1433 |
|     335 | 0x000A      |          10 |
|     336 | 0x04E8      |        1256 |
|     337 | 0x0045      |          69 |
|     338 | 0x00C7      |         199 |
|     339 | 0x09E4      |        2532 |
|     340 | 0x08F6      |        2294 |
|     341 | 0x09DF      |        2527 |
|     342 | 0x0B01      |        2817 |
|     343 | 0x00FA      |         250 |
|     344 | 0x018B      |         395 |
|     345 | 0xFFFF2E2E  |  4294913582 |
|     346 | 0xFFFCF270  |  4294767216 |
|     347 | 0xFFFF65F8  |  4294927864 |
|     348 | 0x0093      |         147 |
|     349 | 0xFFFB0557  |  4294640983 |
|     350 | 0xFFFD7405  |  4294800389 |
|     351 | 0xFFFF1732  |  4294907698 |
|     352 | 0x05CD      |        1485 |
|     353 | 0x0499      |        1177 |
|     354 | 0x08B4      |        2228 |
|     355 | 0x0065      |         101 |
|     356 | 0x10D80     |       68992 |
|     357 | 0x10701     |       67329 |
|     358 | 0xFFFF63FE  |  4294927358 |
|     359 | 0x0398      |         920 |
|     360 | 0xF82A      |       63530 |
|     361 | 0xE32E      |       58158 |
|     362 | 0xFFFF6432  |  4294927410 |
|     363 | 0x056A      |        1386 |
|     364 | 0x10367     |       66407 |
|     365 | 0xE635      |       58933 |
|     366 | 0xFFFF64AD  |  4294927533 |
|     367 | 0x0579      |        1401 |
|     368 | 0xE842      |       59458 |
|     369 | 0x147DB     |       83931 |
|     370 | 0xFFFF678D  |  4294928269 |
|     371 | 0x0CDF      |        3295 |
|     372 | 0xE1B2      |       57778 |
|     373 | 0x15899     |       88217 |
|     374 | 0xFFFF6525  |  4294927653 |
|     375 | 0x0336      |         822 |
|     376 | 0xB721      |       46881 |
|     377 | 0x14F4B     |       85835 |
|     378 | 0xFFFF6395  |  4294927253 |
|     379 | 0x0E74      |        3700 |
|     380 | 0xD262      |       53858 |
|     381 | 0x144CD     |       83149 |
|     382 | 0xFFFF6607  |  4294927879 |
|     383 | 0x0958      |        2392 |
|     384 | 0x10DAC     |       69036 |
|     385 | 0x112C1     |       70337 |
|     386 | 0xFFFF63C1  |  4294927297 |
|     387 | 0x068E      |        1678 |
|     388 | 0xE967      |       59751 |
|     389 | 0xF74F      |       63311 |
|     390 | 0xFFFF6493  |  4294927507 |
|     391 | 0x0CDE      |        3294 |
|     392 | 0xE64B      |       58955 |
|     393 | 0x11731     |       71473 |
|     394 | 0xFFFF6691  |  4294928017 |
|     395 | 0xC1FF      |       49663 |
|     396 | 0x11F66     |       73574 |
|     397 | 0xFFFF6577  |  4294927735 |
|     398 | 0x11780     |       71552 |
|     399 | 0x13033     |       77875 |
|     400 | 0xFFFF6885  |  4294928517 |
|     401 | 0xDA0C      |       55820 |
|     402 | 0x152D2     |       86738 |
|     403 | 0xFFFF6570  |  4294927728 |
|     404 | 0x131B2     |       78258 |
|     405 | 0x13666     |       79462 |
|     406 | 0x0B05      |        2821 |
|     407 | 0x0063      |          99 |
|     408 | 0x050D      |        1293 |
|     409 | 0x055B      |        1371 |
|     410 | 0xBE6F      |       48751 |
|     411 | 0x10B8B     |       68491 |
|     412 | 0xFFFF661A  |  4294927898 |
|     413 | 0x0F2D      |        3885 |
|     414 | 0xF503      |       62723 |
|     415 | 0xDB7E      |       56190 |
|     416 | 0xFFFF643D  |  4294927421 |
|     417 | 0x0ED1      |        3793 |
|     418 | 0x10165     |       65893 |
|     419 | 0xDD39      |       56633 |
|     420 | 0xFFFF64C5  |  4294927557 |
|     421 | 0x0AAE      |        2734 |
|     422 | 0xFB4E      |       64334 |
|     423 | 0xEB1C      |       60188 |
|     424 | 0xFFFF63D3  |  4294927315 |
|     425 | 0x104F8     |       66808 |
|     426 | 0xEADA      |       60122 |
|     427 | 0xFFFF64D4  |  4294927572 |
|     428 | 0xD4AF      |       54447 |
|     429 | 0x11F5F     |       73567 |
|     430 | 0xFFFF65C8  |  4294927816 |
|     431 | 0x0349      |         841 |
|     432 | 0xD381      |       54145 |
|     433 | 0x104D8     |       66776 |
|     434 | 0xFFFF65DB  |  4294927835 |
|     435 | 0x04D7      |        1239 |
|     436 | 0xCD2B      |       52523 |
|     437 | 0x108D8     |       67800 |
|     438 | 0xFFFF660F  |  4294927887 |
|     439 | 0xC749      |       51017 |
|     440 | 0x13E33     |       81459 |
|     441 | 0xFFFF651D  |  4294927645 |
|     442 | 0x0AE9      |        2793 |
|     443 | 0x10AD2     |       68306 |
|     444 | 0x12421     |       74785 |
|     445 | 0xFFFF64B6  |  4294927542 |
|     446 | 0x0536      |        1334 |
|     447 | 0xEC0F      |       60431 |
|     448 | 0x12BFC     |       76796 |
|     449 | 0xFFFF6792  |  4294928274 |
|     450 | 0x0FA2      |        4002 |
|     451 | 0xC172      |       49522 |
|     452 | 0x1123A     |       70202 |
|     453 | 0x10FBB     |       69563 |
|     454 | 0x147F5     |       83957 |
|     455 | 0xFFFF6500  |  4294927616 |
|     456 | 0x02BE      |         702 |
|     457 | 0xDA0D      |       55821 |
|     458 | 0x14B11     |       84753 |
|     459 | 0xFFFF6A50  |  4294928976 |
|     460 | 0x08DB      |        2267 |
|     461 | 0x001D      |          29 |
|     462 | 0xC944      |       51524 |
|     463 | 0xFFFB090B  |  4294641931 |
|     464 | 0xFFFF3CB0  |  4294917296 |
|     465 | 0x0550      |        1360 |
|     466 | 0x00AC      |         172 |
|     467 | 0xFFFF8057  |  4294934615 |
|     468 | 0xFFFCE1E2  |  4294762978 |
|     469 | 0xFFFF6465  |  4294927461 |
|     470 | 0x0911      |        2321 |
|     471 | 0xFFFF8188  |  4294934920 |
|     472 | 0xFFFCE8B1  |  4294764721 |
|     473 | 0xFFFF6474  |  4294927476 |
|     474 | 0x08FC      |        2300 |
|     475 | 0xFFFF7C9F  |  4294933663 |
|     476 | 0xFFFCE892  |  4294764690 |
|     477 | 0xFFFF6436  |  4294927414 |
|     478 | 0x0821      |        2081 |
|     479 | 0xFFFF7C0A  |  4294933514 |
|     480 | 0xFFFCE5B0  |  4294763952 |
|     481 | 0xFFFF642E  |  4294927406 |
|     482 | 0xFFFF6BAF  |  4294929327 |
|     483 | 0xFFFCE9E6  |  4294765030 |
|     484 | 0xFFFF69C9  |  4294928841 |
|     485 | 0xFFFCEE1A  |  4294766106 |
|     486 | 0x08B0      |        2224 |
|     487 | 0xFFFF52BD  |  4294922941 |
|     488 | 0xFFFCE34B  |  4294763339 |
|     489 | 0xFFFF63CE  |  4294927310 |
|     490 | 0x0FD2      |        4050 |
|     491 | 0xFFFF5A13  |  4294924819 |
|     492 | 0xFFFCCEA0  |  4294758048 |
|     493 | 0x006E      |         110 |
|     494 | 0x0708      |        1800 |
|     495 | 0x06A4      |        1700 |
|     496 | 0x0640      |        1600 |
|     497 | 0xFFFF5F05  |  4294926085 |
|     498 | 0xFFFCDB25  |  4294761253 |
|     499 | 0xFFFF6425  |  4294927397 |
|     500 | 0x0F0A      |        3850 |
|     501 | 0x00AD      |         173 |
|     502 | 0xC46F      |       50287 |
|     503 | 0xFFFB1193  |  4294644115 |
|     504 | 0xFFFF4480  |  4294919296 |
|     505 | 0x02EB      |         747 |
|     506 | 0xCC99      |       52377 |
|     507 | 0xFFFB03BF  |  4294640575 |
|     508 | 0x0FF9      |        4089 |
|     509 | 0xC249      |       49737 |
|     510 | 0xFFFB0846  |  4294641734 |
|     511 | 0xFFFF4098  |  4294918296 |
|     512 | 0x0F5E      |        3934 |
|     513 | 0xCFE3      |       53219 |
|     514 | 0xFFFB0C92  |  4294642834 |
|     515 | 0x04F5      |        1269 |
|     516 | 0xCBD8      |       52184 |
|     517 | 0xFFFAEDBC  |  4294634940 |
|     518 | 0xFFFF13C1  |  4294906817 |
|     519 | 0x04F4      |        1268 |
|     520 | 0x0EB7      |        3767 |
|     521 | 0x0861      |        2145 |
|     522 | 0x0AD6      |        2774 |
|     523 | 0x00C9      |         201 |
|     524 | 0x00D7      |         215 |

## String References

- **8113**: Trust Cait Sith Naoi? [We've got nothing to lose./She's yet to earn our trust.]

## Events

### Event 65535

#### Metadata

| Field        | Value   |
|--------------|---------|
| Entrypoint   | 0x0000  |
| Data Size    | 1 bytes |
| Instructions | 1       |

```
      00 01 02 03 04 05 06 07  08 09 0A 0B 0C 0D 0E 0F
      -- -- -- -- -- -- -- --  -- -- -- -- -- -- -- --
0000: 00                                                .               
```

#### Opcodes

```
  0: 0x0000 [0x00] END_REQSTACK()
```

### Event 13

#### Metadata

| Field        | Value      |
|--------------|------------|
| Entrypoint   | 0x0001     |
| Data Size    | 7680 bytes |
| Instructions | 828        |

```
      00 01 02 03 04 05 06 07  08 09 0A 0B 0C 0D 0E 0F
      -- -- -- -- -- -- -- --  -- -- -- -- -- -- -- --
0000:    42 1A 80 2F 46 01 38  00 80 4E 00 F0 FF FF 7F   B../F.8..N.....
0010: 77 01 80 02 80 1C 03 80  AB 09 27 10 54 83 08 01  w.........'.T...
0020: 04 2F 00 55 83 08 01 2F  00 56 83 08 01 2F 00 59  ./.U.../.V.../.Y
0030: 83 08 01 2F 00 22 83 08  01 4E 00 55 83 08 01 4E  .../."...N.U...N
0040: 00 22 83 08 01 4E 00 56  83 08 01 4E 00 59 83 08  ."...N.V...N.Y..
0050: 01 92 01 54 83 08 01 92  01 55 83 08 01 92 01 56  ...T.....U.....V
0060: 83 08 01 92 01 59 83 08  01 92 01 22 83 08 01 94  .....Y....."....
0070: 01 F0 FF FF 7F 94 01 54  83 08 01 94 01 55 83 08  .......T.....U..
0080: 01 94 01 56 83 08 01 94  01 59 83 08 01 94 01 22  ...V.....Y....."
0090: 83 08 01 BA F0 FF FF 7F  04 80 05 80 06 80 07 80  ................
00A0: BA 54 83 08 01 08 80 09  80 0A 80 0B 80 BA 55 83  .T............U.
00B0: 08 01 0C 80 0D 80 0E 80  0F 80 BA 56 83 08 01 10  ...........V....
00C0: 80 11 80 12 80 0B 80 BA  59 83 08 01 13 80 14 80  ........Y.......
00D0: 15 80 16 80 59 05 56 83  08 01 01 BA 56 83 08 01  ....Y.V.....V...
00E0: 17 80 18 80 19 80 1A 80  27 10 56 83 08 01 1D 27  ........'.V....'
00F0: 10 59 83 08 01 23 BA 22  83 08 01 1B 80 1C 80 1D  .Y...#."........
0100: 80 1E 80 80 F0 FF FF 7F  80 54 83 08 01 80 55 83  .........T....U.
0110: 08 01 80 56 83 08 01 80  59 83 08 01 29 10 56 83  ...V....Y...).V.
0120: 08 01 4A 81 01 54 83 08  01 81 01 55 83 08 01 81  ..J..T.....U....
0130: 01 56 83 08 01 81 00 59  83 08 01 7C 01 54 83 08  .V.....Y...|.T..
0140: 01 7C 01 55 83 08 01 7C  01 56 83 08 01 7C 00 59  .|.U...|.V...|.Y
0150: 83 08 01 5D 1E 80 1F 80  1C 20 80 45 21 80 F0 FF  ...]..... .E!...
0160: FF 7F F0 FF FF 7F 30 30  30 30 1E 80 1A 5F 2F 27  ......0000..._/'
0170: 10 F0 FF FF 7F 35 1C 22  80 52 21 80 F0 FF FF 7F  .....5.".R!.....
0180: F0 FF FF 7F 30 30 30 30  45 21 80 F0 FF FF 7F F0  ....0000E!......
0190: FF FF 7F 30 30 30 31 1E  80 27 10 55 83 08 01 12  ...0001..'.U....
01A0: 29 10 54 83 08 01 12 1C  1F 80 7A 00 F0 FF FF 7F  ).T.......z.....
01B0: BA F0 FF FF 7F 23 80 24  80 25 80 26 80 5B 27 80  .....#.$.%.&.['.
01C0: 54 83 08 01 54 83 08 01  68 64 63 30 2B 54 83 08  T...T...hdc0+T..
01D0: 01 28 80 1C 29 80 23 27  10 F0 FF FF 7F 36 1C 2A  .(..).#'.....6.*
01E0: 80 7A 00 55 83 08 01 BA  55 83 08 01 2B 80 2C 80  .z.U....U...+.,.
01F0: 2D 80 0B 80 52 21 80 F0  FF FF 7F F0 FF FF 7F 30  -...R!.........0
0200: 30 32 37 45 21 80 F0 FF  FF 7F F0 FF FF 7F 30 30  027E!.........00
0210: 30 32 1E 80 5B 27 80 54  83 08 01 54 83 08 01 68  02..['.T...T...h
0220: 64 63 31 27 10 55 83 08  01 13 1C 29 80 BA 55 83  dc1'.U.....)..U.
0230: 08 01 2E 80 2F 80 30 80  0B 80 7A 00 55 83 08 01  ..../.0...z.U...
0240: 27 10 55 83 08 01 14 52  21 80 F0 FF FF 7F F0 FF  '.U....R!.......
0250: FF 7F 30 30 30 32 45 21  80 F0 FF FF 7F F0 FF FF  ..0002E!........
0260: 7F 30 30 32 36 1E 80 4A  54 83 08 01 F0 FF FF 7F  .0026..JT.......
0270: 1C 31 80 52 21 80 F0 FF  FF 7F F0 FF FF 7F 30 30  .1.R!.........00
0280: 32 36 45 21 80 F0 FF FF  7F F0 FF FF 7F 30 30 32  26E!.........002
0290: 39 1E 80 1C 1F 80 2B 55  83 08 01 32 80 23 52 21  9.....+U...2.#R!
02A0: 80 F0 FF FF 7F F0 FF FF  7F 30 30 32 39 45 21 80  .........0029E!.
02B0: F0 FF FF 7F F0 FF FF 7F  30 30 30 33 1E 80 BA 55  ........0003...U
02C0: 83 08 01 33 80 34 80 35  80 36 80 5B 37 80 54 83  ...3.4.5.6.[7.T.
02D0: 08 01 54 83 08 01 74 68  61 30 2B 54 83 08 01 38  ..T...tha0+T...8
02E0: 80 23 6E F0 FF FF 7F 39  80 99 F0 FF FF 7F 1C 3A  .#n....9.......:
02F0: 80 5B 37 80 54 83 08 01  54 83 08 01 74 68 61 31  .[7.T...T...tha1
0300: 1C 1F 80 52 21 80 F0 FF  FF 7F F0 FF FF 7F 30 30  ...R!.........00
0310: 30 33 29 10 F0 FF FF 7F  02 02 02 10 03 80 80 35  03)............5
0320: 03 45 21 80 F0 FF FF 7F  F0 FF FF 7F 30 6D 64 30  .E!.........0md0
0330: 1E 80 01 F9 03 02 02 10  3B 80 80 51 03 45 21 80  ........;..Q.E!.
0340: F0 FF FF 7F F0 FF FF 7F  30 6D 64 30 1E 80 01 F9  ........0md0....
0350: 03 02 02 10 3C 80 80 6D  03 45 21 80 F0 FF FF 7F  ....<..m.E!.....
0360: F0 FF FF 7F 30 68 69 30  1E 80 01 F9 03 02 02 10  ....0hi0........
0370: 3D 80 80 89 03 45 21 80  F0 FF FF 7F F0 FF FF 7F  =....E!.........
0380: 30 68 69 30 1E 80 01 F9  03 02 02 10 3E 80 80 A5  0hi0........>...
0390: 03 45 21 80 F0 FF FF 7F  F0 FF FF 7F 30 73 68 30  .E!.........0sh0
03A0: 1E 80 01 F9 03 02 02 10  3F 80 80 C1 03 45 21 80  ........?....E!.
03B0: F0 FF FF 7F F0 FF FF 7F  30 73 68 30 1E 80 01 F9  ........0sh0....
03C0: 03 02 02 10 40 80 80 DD  03 45 21 80 F0 FF FF 7F  ....@....E!.....
03D0: F0 FF FF 7F 30 6D 64 30  1E 80 01 F9 03 02 02 10  ....0md0........
03E0: 41 80 80 F9 03 45 21 80  F0 FF FF 7F F0 FF FF 7F  A....E!.........
03F0: 30 68 69 30 1E 80 01 F9  03 1C 2A 80 81 00 54 83  0hi0......*...T.
0400: 08 01 7C 00 54 83 08 01  5B 42 80 54 83 08 01 54  ..|.T...[B.T...T
0410: 83 08 01 66 63 30 30 27  10 54 83 08 01 13 1C 43  ...fc00'.T.....C
0420: 80 2B 54 83 08 01 44 80  23 2A 10 54 83 08 01 BA  .+T...D.#*.T....
0430: 54 83 08 01 45 80 46 80  2A 80 47 80 BA F0 FF FF  T...E.F.*.G.....
0440: 7F 48 80 49 80 4A 80 4B  80 52 21 80 F0 FF FF 7F  .H.I.J.K.R!.....
0450: F0 FF FF 7F 30 68 69 30  52 21 80 F0 FF FF 7F F0  ....0hi0R!......
0460: FF FF 7F 30 6D 64 30 52  21 80 F0 FF FF 7F F0 FF  ...0md0R!.......
0470: FF 7F 30 73 68 30 45 21  80 F0 FF FF 7F F0 FF FF  ..0sh0E!........
0480: 7F 30 30 30 35 1E 80 27  10 F0 FF FF 7F 37 1C 43  .0005..'.....7.C
0490: 80 4B 55 83 08 01 1A 80  1C 43 80 81 00 56 83 08  .KU......C...V..
04A0: 01 7C 00 56 83 08 01 C5  4C 80 56 83 08 01 56 83  .|.V....L.V...V.
04B0: 08 01 73 74 30 31 1E 80  1C 43 80 52 21 80 F0 FF  ..st01...C.R!...
04C0: FF 7F F0 FF FF 7F 30 30  30 35 45 21 80 F0 FF FF  ......0005E!....
04D0: 7F F0 FF FF 7F 30 30 31  73 1E 80 27 10 56 83 08  .....001s..'.V..
04E0: 01 1C 5B 4D 80 54 83 08  01 54 83 08 01 34 33 30  ..[M.T...T...430
04F0: 31 2B 54 83 08 01 4E 80  1C 43 80 23 5B 4F 80 56  1+T...N..C.#[O.V
0500: 83 08 01 56 83 08 01 6E  79 70 30 1C 03 80 52 21  ...V...nyp0...R!
0510: 80 F0 FF FF 7F F0 FF FF  7F 30 30 31 73 45 21 80  .........001sE!.
0520: F0 FF FF 7F F0 FF FF 7F  30 30 32 33 1E 80 BA 54  ........0023...T
0530: 83 08 01 50 80 51 80 52  80 53 80 1C 54 80 52 21  ...P.Q.R.S..T.R!
0540: 80 F0 FF FF 7F F0 FF FF  7F 30 30 32 33 45 21 80  .........0023E!.
0550: F0 FF FF 7F F0 FF FF 7F  30 30 32 66 1E 80 1C 55  ........002f...U
0560: 80 2B 54 83 08 01 56 80  BA 54 83 08 01 50 80 51  .+T...V..T...P.Q
0570: 80 52 80 57 80 27 10 F0  FF FF 7F 3C C5 58 80 54  .R.W.'.....<.X.T
0580: 83 08 01 54 83 08 01 73  30 30 30 1E 80 52 21 80  ...T...s000..R!.
0590: F0 FF FF 7F F0 FF FF 7F  30 30 32 66 45 21 80 F0  ........002fE!..
05A0: FF FF 7F F0 FF FF 7F 30  30 32 61 1E 80 BA 56 83  .......002a...V.
05B0: 08 01 1B 80 1C 80 1D 80  1A 80 59 05 56 83 08 01  ..........Y.V...
05C0: 00 BA F0 FF FF 7F 59 80  5A 80 5B 80 5C 80 7B F0  ......Y.Z.[.\.{.
05D0: FF FF 7F 81 01 54 83 08  01 7C 01 54 83 08 01 5B  .....T...|.T...[
05E0: 4F 80 56 83 08 01 56 83  08 01 6E 79 70 30 1C 5D  O.V...V...nyp0.]
05F0: 80 52 21 80 F0 FF FF 7F  F0 FF FF 7F 30 30 32 61  .R!.........002a
0600: 45 21 80 F0 FF FF 7F F0  FF FF 7F 30 30 31 75 1E  E!.........001u.
0610: 80 1C 5D 80 27 10 F0 FF  FF 7F 39 1C 5E 80 27 10  ..].'.....9.^.'.
0620: F0 FF FF 7F 3B 52 21 80  F0 FF FF 7F F0 FF FF 7F  ....;R!.........
0630: 30 30 31 75 45 21 80 F0  FF FF 7F F0 FF FF 7F 30  001uE!.........0
0640: 30 31 76 1E 80 1C 5F 80  C5 60 80 22 83 08 01 22  01v..._..`."..."
0650: 83 08 01 73 30 30 30 1E  80 52 21 80 F0 FF FF 7F  ...s000..R!.....
0660: F0 FF FF 7F 30 30 31 76  45 21 80 F0 FF FF 7F F0  ....001vE!......
0670: FF FF 7F 30 30 31 77 1E  80 27 10 56 83 08 01 1D  ...001w..'.V....
0680: BA 56 83 08 01 61 80 62  80 63 80 64 80 1C 03 80  .V...a.b.c.d....
0690: 5B 65 80 56 83 08 01 56  83 08 01 34 33 30 31 C5  [e.V...V...4301.
06A0: 66 80 56 83 08 01 56 83  08 01 73 30 30 30 1E 80  f.V...V...s000..
06B0: 1C 3E 80 27 10 56 83 08  01 1C 1C 5F 80 BA 54 83  .>.'.V....._..T.
06C0: 08 01 67 80 68 80 69 80  6A 80 BA 55 83 08 01 6B  ..g.h.i.j..U...k
06D0: 80 6C 80 6D 80 1A 80 BA  F0 FF FF 7F 6E 80 6F 80  .l.m........n.o.
06E0: 70 80 71 80 27 10 F0 FF  FF 7F 3A 66 00 80 55 83  p.q.'.....:f..U.
06F0: 08 01 55 83 08 01 73 68  61 30 C5 58 80 54 83 08  ..U...sha0.X.T..
0700: 01 54 83 08 01 73 30 30  31 1E 80 C5 66 80 56 83  .T...s001...f.V.
0710: 08 01 56 83 08 01 6B 69  6C 30 1E 80 52 21 80 F0  ..V...kil0..R!..
0720: FF FF 7F F0 FF FF 7F 30  30 31 77 45 21 80 F0 FF  .......001wE!...
0730: FF 7F F0 FF FF 7F 30 30  32 63 1E 80 1C 72 80 52  ......002c...r.R
0740: 21 80 F0 FF FF 7F F0 FF  FF 7F 30 30 32 63 45 21  !.........002cE!
0750: 80 F0 FF FF 7F F0 FF FF  7F 30 30 31 78 1E 80 1C  .........001x...
0760: 73 80 BA 56 83 08 01 13  80 14 80 15 80 16 80 C5  s..V............
0770: 66 80 56 83 08 01 56 83  08 01 73 30 30 31 1E 80  f.V...V...s001..
0780: 52 21 80 F0 FF FF 7F F0  FF FF 7F 30 30 31 78 45  R!.........001xE
0790: 21 80 F0 FF FF 7F F0 FF  FF 7F 30 30 31 79 1E 80  !.........001y..
07A0: 1C 73 80 BA 54 83 08 01  74 80 75 80 76 80 6A 80  .s..T...t.u.v.j.
07B0: 52 21 80 F0 FF FF 7F F0  FF FF 7F 30 30 31 79 45  R!.........001yE
07C0: 21 80 F0 FF FF 7F F0 FF  FF 7F 30 30 31 7A 1E 80  !.........001z..
07D0: 45 21 80 F0 FF FF 7F F0  FF FF 7F 67 6F 72 6F 1E  E!.........goro.
07E0: 80 1C 54 80 C5 66 80 59  83 08 01 59 83 08 01 73  ..T..f.Y...Y...s
07F0: 30 30 32 1E 80 52 21 80  F0 FF FF 7F F0 FF FF 7F  002..R!.........
0800: 30 30 31 7A 45 21 80 F0  FF FF 7F F0 FF FF 7F 30  001zE!.........0
0810: 30 32 30 1E 80 C5 66 80  56 83 08 01 56 83 08 01  020...f.V...V...
0820: 6B 69 6C 31 1E 80 27 10  56 83 08 01 1D 27 10 59  kil1..'.V....'.Y
0830: 83 08 01 22 1C 31 80 52  21 80 F0 FF FF 7F F0 FF  ...".1.R!.......
0840: FF 7F 30 30 32 30 45 21  80 F0 FF FF 7F F0 FF FF  ..0020E!........
0850: 7F 30 30 32 31 1E 80 1C  31 80 23 52 21 80 F0 FF  .0021...1.#R!...
0860: FF 7F F0 FF FF 7F 30 30  32 31 45 21 80 F0 FF FF  ......0021E!....
0870: 7F F0 FF FF 7F 30 30 31  74 1E 80 5B 77 80 54 83  .....001t..[w.T.
0880: 08 01 54 83 08 01 34 33  30 34 BA 59 83 08 01 78  ..T...4304.Y...x
0890: 80 79 80 7A 80 16 80 BA  F0 FF FF 7F 7B 80 7C 80  .y.z........{.|.
08A0: 7D 80 71 80 27 10 F0 FF  FF 7F 3A 2B 54 83 08 01  }.q.'.....:+T...
08B0: 7E 80 1C 43 80 23 52 21  80 F0 FF FF 7F F0 FF FF  ~..C.#R!........
08C0: 7F 30 30 31 74 45 21 80  F0 FF FF 7F F0 FF FF 7F  .001tE!.........
08D0: 30 30 32 38 1E 80 66 00  80 55 83 08 01 55 83 08  0028..f..U...U..
08E0: 01 73 68 61 31 1C 22 80  52 21 80 F0 FF FF 7F F0  .sha1.".R!......
08F0: FF FF 7F 30 30 32 38 45  21 80 F0 FF FF 7F F0 FF  ...0028E!.......
0900: FF 7F 30 30 32 32 1E 80  1C 31 80 1A 80 2F 52 21  ..0022...1.../R!
0910: 80 F0 FF FF 7F F0 FF FF  7F 30 30 32 32 BA F0 FF  .........0022...
0920: FF 7F 7F 80 80 80 81 80  82 80 BA 54 83 08 01 83  ...........T....
0930: 80 84 80 85 80 4B 80 BA  55 83 08 01 86 80 87 80  .....K..U.......
0940: 88 80 89 80 59 05 56 83  08 01 00 BA 56 83 08 01  ....Y.V.....V...
0950: 8A 80 8B 80 8C 80 4B 80  27 10 56 83 08 01 1C 27  ......K.'.V....'
0960: 10 59 83 08 01 23 1C 2A  80 4A F0 FF FF 7F 54 83  .Y...#.*.J....T.
0970: 08 01 4A 54 83 08 01 F0  FF FF 7F 4A 55 83 08 01  ..JT.......JU...
0980: F0 FF FF 7F 4A 56 83 08  01 54 83 08 01 6B 69 64  ....JV...T...kid
0990: 6C 30 54 83 08 01 81 00  56 83 08 01 7C 01 56 83  l0T.....V...|.V.
09A0: 08 01 5B 42 80 54 83 08  01 54 83 08 01 66 30 30  ..[B.T...T...f00
09B0: 30 81 00 54 83 08 01 7C  00 54 83 08 01 1C 2A 80  0..T...|.T....*.
09C0: 27 10 F0 FF FF 7F 04 1C  43 80 45 21 80 F0 FF FF  '.......C.E!....
09D0: 7F F0 FF FF 7F 30 30 30  37 1E 80 5B 65 80 56 83  .....0007..[e.V.
09E0: 08 01 56 83 08 01 34 33  30 35 1A 5F 2F 1C 43 80  ..V...4305._/.C.
09F0: 27 10 F0 FF FF 7F 05 1C  43 80 52 21 80 F0 FF FF  '.......C.R!....
0A00: 7F F0 FF FF 7F 30 30 30  37 45 21 80 F0 FF FF 7F  .....0007E!.....
0A10: F0 FF FF 7F 30 30 30 36  1E 80 5C 80 8D 80 8E 80  ....0006..\.....
0A20: 5C 81 8D 80 8E 80 4A F0  FF FF 7F 56 83 08 01 1C  \.....J....V....
0A30: 1F 80 4A 54 83 08 01 56  83 08 01 1C 2A 80 4A 55  ..JT...V....*.JU
0A40: 83 08 01 56 83 08 01 1C  1F 80 2B 56 83 08 01 8F  ...V......+V....
0A50: 80 23 52 21 80 F0 FF FF  7F F0 FF FF 7F 30 30 30  .#R!.........000
0A60: 36 45 21 80 F0 FF FF 7F  F0 FF FF 7F 30 30 30 38  6E!.........0008
0A70: 1E 80 2B 54 83 08 01 90  80 1C 2A 80 5B 42 80 54  ..+T......*.[B.T
0A80: 83 08 01 54 83 08 01 66  69 30 31 1C 1F 80 5B 42  ...T...fi01...[B
0A90: 80 54 83 08 01 54 83 08  01 66 69 30 30 23 BA 56  .T...T...fi00#.V
0AA0: 83 08 01 91 80 92 80 93  80 94 80 52 21 80 F0 FF  ...........R!...
0AB0: FF 7F F0 FF FF 7F 30 30  30 38 45 21 80 F0 FF FF  ......0008E!....
0AC0: 7F F0 FF FF 7F 30 30 30  39 1E 80 5B 42 80 54 83  .....0009..[B.T.
0AD0: 08 01 54 83 08 01 66 30  30 30 5B 65 80 56 83 08  ..T...f000[e.V..
0AE0: 01 56 83 08 01 34 33 73  36 C5 0E 80 56 83 08 01  .V...43s6...V...
0AF0: 56 83 08 01 73 30 30 33  1E 80 1C 95 80 52 21 80  V...s003.....R!.
0B00: F0 FF FF 7F F0 FF FF 7F  30 30 30 39 45 21 80 F0  ........0009E!..
0B10: FF FF 7F F0 FF FF 7F 30  30 30 34 1E 80 1C 2A 80  .......0004...*.
0B20: 52 21 80 F0 FF FF 7F F0  FF FF 7F 30 30 30 34 45  R!.........0004E
0B30: 21 80 F0 FF FF 7F F0 FF  FF 7F 30 30 30 61 1E 80  !.........000a..
0B40: 2B 56 83 08 01 96 80 1C  3A 80 23 27 10 CD 82 08  +V......:.#'....
0B50: 01 10 2B 56 83 08 01 97  80 23 BA 54 83 08 01 91  ..+V.....#.T....
0B60: 80 92 80 93 80 94 80 5B  98 80 56 83 08 01 56 83  .......[..V...V.
0B70: 08 01 34 33 73 37 C5 0E  80 56 83 08 01 56 83 08  ..43s7...V...V..
0B80: 01 73 30 30 34 1E 80 52  21 80 F0 FF FF 7F F0 FF  .s004..R!.......
0B90: FF 7F 30 30 30 61 45 21  80 F0 FF FF 7F F0 FF FF  ..000aE!........
0BA0: 7F 30 30 30 64 1E 80 1C  3C 80 5B 42 80 54 83 08  .000d...<.[B.T..
0BB0: 01 54 83 08 01 66 69 30  31 5B 77 80 54 83 08 01  .T...fi01[w.T...
0BC0: 54 83 08 01 34 33 73 37  C5 58 80 54 83 08 01 54  T...43s7.X.T...T
0BD0: 83 08 01 73 30 30 32 1E  80 1C 3B 80 27 10 CD 82  ...s002...;.'...
0BE0: 08 01 11 2B 54 83 08 01  99 80 1C 29 80 23 52 21  ...+T......).#R!
0BF0: 80 F0 FF FF 7F F0 FF FF  7F 30 30 30 64 45 21 80  .........000dE!.
0C00: F0 FF FF 7F F0 FF FF 7F  30 30 30 62 1E 80 5B 42  ........000b..[B
0C10: 80 54 83 08 01 54 83 08  01 66 69 30 30 2B 56 83  .T...T...fi00+V.
0C20: 08 01 9A 80 23 52 21 80  F0 FF FF 7F F0 FF FF 7F  ....#R!.........
0C30: 30 30 30 62 45 21 80 F0  FF FF 7F F0 FF FF 7F 30  000bE!.........0
0C40: 30 30 63 1E 80 7C 00 56  83 08 01 5B 42 80 54 83  00c..|.V...[B.T.
0C50: 08 01 54 83 08 01 66 69  30 31 2B 54 83 08 01 9B  ..T...fi01+T....
0C60: 80 23 81 00 54 83 08 01  7C 00 54 83 08 01 27 10  .#..T...|.T...'.
0C70: 54 83 08 01 1A 52 21 80  F0 FF FF 7F F0 FF FF 7F  T....R!.........
0C80: 30 30 30 63 45 21 80 F0  FF FF 7F F0 FF FF 7F 30  000cE!.........0
0C90: 30 30 65 1E 80 5B 42 80  54 83 08 01 54 83 08 01  00e..[B.T...T...
0CA0: 66 69 30 30 2B 56 83 08  01 9C 80 23 7C 01 56 83  fi00+V.....#|.V.
0CB0: 08 01 81 01 54 83 08 01  27 10 54 83 08 01 19 52  ....T...'.T....R
0CC0: 21 80 F0 FF FF 7F F0 FF  FF 7F 30 30 30 65 45 21  !.........000eE!
0CD0: 80 F0 FF FF 7F F0 FF FF  7F 30 30 30 66 1E 80 5B  .........000f..[
0CE0: 42 80 54 83 08 01 54 83  08 01 66 69 30 31 5B 77  B.T...T...fi01[w
0CF0: 80 54 83 08 01 54 83 08  01 34 33 30 38 2B 54 83  .T...T...4308+T.
0D00: 08 01 9D 80 1C 3A 80 23  81 00 54 83 08 01 BA 54  .....:.#..T....T
0D10: 83 08 01 9E 80 9F 80 A0  80 94 80 BA 56 83 08 01  ............V...
0D20: 8A 80 8B 80 8C 80 4B 80  52 21 80 F0 FF FF 7F F0  ......K.R!......
0D30: FF FF 7F 30 30 30 66 45  21 80 F0 FF FF 7F F0 FF  ...000fE!.......
0D40: FF 7F 30 30 30 67 1E 80  5B 77 80 54 83 08 01 54  ..000g..[w.T...T
0D50: 83 08 01 34 33 30 39 6B  69 64 6C 30 56 83 08 01  ...4309kidl0V...
0D60: 2B 54 83 08 01 A1 80 1C  A2 80 23 BA 56 83 08 01  +T........#.V...
0D70: 91 80 92 80 93 80 94 80  27 10 56 83 08 01 1C 52  ........'.V....R
0D80: 21 80 F0 FF FF 7F F0 FF  FF 7F 30 30 30 67 45 21  !.........000gE!
0D90: 80 F0 FF FF 7F F0 FF FF  7F 62 6C 6F 66 1E 80 45  .........blof..E
0DA0: 21 80 F0 FF FF 7F F0 FF  FF 7F 30 30 30 68 1E 80  !.........000h..
0DB0: 5B 42 80 54 83 08 01 54  83 08 01 66 69 30 30 5D  [B.T...T...fi00]
0DC0: 1E 80 A3 80 2B 56 83 08  01 A4 80 23 52 21 80 F0  ....+V.....#R!..
0DD0: FF FF 7F F0 FF FF 7F 30  30 30 68 45 21 80 F0 FF  .......000hE!...
0DE0: FF 7F F0 FF FF 7F 30 30  30 69 1E 80 5B 42 80 54  ......000i..[B.T
0DF0: 83 08 01 54 83 08 01 66  69 30 31 2B 54 83 08 01  ...T...fi01+T...
0E00: A5 80 23 7C 00 56 83 08  01 5B 98 80 56 83 08 01  ..#|.V...[..V...
0E10: 56 83 08 01 34 33 30 38  1C 2A 80 52 21 80 F0 FF  V...4308.*.R!...
0E20: FF 7F F0 FF FF 7F 30 30  30 69 45 21 80 F0 FF FF  ......000iE!....
0E30: 7F F0 FF FF 7F 30 30 30  6A 1E 80 5B 42 80 54 83  .....000j..[B.T.
0E40: 08 01 54 83 08 01 66 30  30 30 2B 56 83 08 01 A6  ..T...f000+V....
0E50: 80 23 27 10 CD 82 08 01  10 BA 54 83 08 01 A7 80  .#'.......T.....
0E60: A8 80 8C 80 82 80 52 21  80 F0 FF FF 7F F0 FF FF  ......R!........
0E70: 7F 30 30 30 6A 45 21 80  F0 FF FF 7F F0 FF FF 7F  .000jE!.........
0E80: 30 30 31 65 1E 80 1C 20  80 6B 69 64 6C 30 54 83  001e... .kidl0T.
0E90: 08 01 5B 98 80 56 83 08  01 56 83 08 01 34 33 30  ..[..V...V...430
0EA0: 39 1C 66 80 52 21 80 F0  FF FF 7F F0 FF FF 7F 30  9.f.R!.........0
0EB0: 30 31 65 45 21 80 F0 FF  FF 7F F0 FF FF 7F 30 30  01eE!.........00
0EC0: 30 6B 1E 80 5B A9 80 54  83 08 01 54 83 08 01 75  0k..[..T...T...u
0ED0: 77 61 31 27 10 CD 82 08  01 11 2B 56 83 08 01 AA  wa1'......+V....
0EE0: 80 23 6E 55 83 08 01 AB  80 99 55 83 08 01 6E F0  .#nU......U...n.
0EF0: FF FF 7F AB 80 99 F0 FF  FF 7F 1C 31 80 52 21 80  ...........1.R!.
0F00: F0 FF FF 7F F0 FF FF 7F  30 30 30 6B 45 21 80 F0  ........000kE!..
0F10: FF FF 7F F0 FF FF 7F 62  6C 6F 66 1E 80 45 21 80  .......blof..E!.
0F20: F0 FF FF 7F F0 FF FF 7F  30 30 31 68 1E 80 2B 54  ........001h..+T
0F30: 83 08 01 AC 80 1C 3A 80  5C 00 AD 80 5C 01 AD 80  ......:.\...\...
0F40: 9A 5D 8E 80 43 80 1C 2A  80 52 21 80 F0 FF FF 7F  .]..C..*.R!.....
0F50: F0 FF FF 7F 30 30 31 68  45 21 80 F0 FF FF 7F F0  ....001hE!......
0F60: FF FF 7F 30 30 30 6C 1E  80 BA 54 83 08 01 AE 80  ...000l...T.....
0F70: AF 80 0A 80 82 80 7C 01  56 83 08 01 5B 98 80 56  ......|.V...[..V
0F80: 83 08 01 56 83 08 01 34  33 31 30 2B 56 83 08 01  ...V...4310+V...
0F90: B0 80 1C 1F 80 23 5B 42  80 54 83 08 01 54 83 08  .....#[B.T...T..
0FA0: 01 66 63 30 30 6B 69 64  6C 30 54 83 08 01 2B 56  .fc00kidl0T...+V
0FB0: 83 08 01 B1 80 1C 1F 80  23 52 21 80 F0 FF FF 7F  ........#R!.....
0FC0: F0 FF FF 7F 30 30 30 6C  45 21 80 F0 FF FF 7F F0  ....000lE!......
0FD0: FF FF 7F 30 30 30 6D 1E  80 6B 69 64 6C 30 56 83  ...000m..kidl0V.
0FE0: 08 01 27 10 55 83 08 01  15 79 00 55 83 08 01 54  ..'.U....y.U...T
0FF0: 83 08 01 2B 55 83 08 01  B2 80 23 2A 10 55 83 08  ...+U.....#*.U..
1000: 01 52 21 80 F0 FF FF 7F  F0 FF FF 7F 30 30 30 6D  .R!.........000m
1010: 52 21 80 F0 FF FF 7F F0  FF FF 7F 30 30 32 62 45  R!.........002bE
1020: 21 80 F0 FF FF 7F F0 FF  FF 7F 30 30 30 6E 1E 80  !.........000n..
1030: 79 00 55 83 08 01 56 83  08 01 5B 37 80 54 83 08  y.U...V...[7.T..
1040: 01 54 83 08 01 74 6C 61  30 5B B3 80 56 83 08 01  .T...tla0[..V...
1050: 56 83 08 01 66 30 30 30  2B 54 83 08 01 B4 80 1C  V...f000+T......
1060: 1F 80 23 52 21 80 F0 FF  FF 7F F0 FF FF 7F 30 30  ..#R!.........00
1070: 30 6E 45 21 80 F0 FF FF  7F F0 FF FF 7F 30 30 30  0nE!.........000
1080: 6F 1E 80 5B 37 80 54 83  08 01 54 83 08 01 74 6C  o..[7.T...T...tl
1090: 61 31 2B 56 83 08 01 B5  80 23 5B 42 80 54 83 08  a1+V.....#[B.T..
10A0: 01 54 83 08 01 66 64 30  31 5B B6 80 54 83 08 01  .T...fd01[..T...
10B0: 54 83 08 01 68 64 62 30  1C 20 80 52 21 80 F0 FF  T...hdb0. .R!...
10C0: FF 7F F0 FF FF 7F 30 30  30 6F 45 21 80 F0 FF FF  ......000oE!....
10D0: 7F F0 FF FF 7F 30 30 30  70 1E 80 2B 54 83 08 01  .....000p..+T...
10E0: B7 80 1C 1F 80 23 52 21  80 F0 FF FF 7F F0 FF FF  .....#R!........
10F0: 7F 30 30 30 70 45 21 80  F0 FF FF 7F F0 FF FF 7F  .000pE!.........
1100: 30 30 30 71 1E 80 5B B8  80 54 83 08 01 54 83 08  000q..[..T...T..
1110: 01 69 72 61 30 5B 42 80  54 83 08 01 54 83 08 01  .ira0[B.T...T...
1120: 66 64 30 30 2B 56 83 08  01 B9 80 23 52 21 80 F0  fd00+V.....#R!..
1130: FF FF 7F F0 FF FF 7F 30  30 30 71 45 21 80 F0 FF  .......000qE!...
1140: FF 7F F0 FF FF 7F 30 30  30 73 1E 80 2B 54 83 08  ......000s..+T..
1150: 01 BA 80 1C 20 80 5B 42  80 54 83 08 01 54 83 08  .... .[B.T...T..
1160: 01 66 69 30 30 1C 73 80  23 4B 56 83 08 01 BB 80  .fi00.s.#KV.....
1170: 52 21 80 F0 FF FF 7F F0  FF FF 7F 30 30 30 73 45  R!.........000sE
1180: 21 80 F0 FF FF 7F F0 FF  FF 7F 30 30 30 72 1E 80  !.........000r..
1190: 1C 1F 80 5B 42 80 54 83  08 01 54 83 08 01 66 69  ...[B.T...T...fi
11A0: 30 31 2B 54 83 08 01 BC  80 23 52 21 80 F0 FF FF  01+T.....#R!....
11B0: 7F F0 FF FF 7F 30 30 30  72 45 21 80 F0 FF FF 7F  .....000rE!.....
11C0: F0 FF FF 7F 30 30 32 35  1E 80 2B 54 83 08 01 BD  ....0025..+T....
11D0: 80 1C 1F 80 5B B8 80 54  83 08 01 54 83 08 01 69  ....[..T...T...i
11E0: 72 73 31 1C 29 80 23 2B  54 83 08 01 BE 80 5B B8  rs1.).#+T.....[.
11F0: 80 54 83 08 01 54 83 08  01 69 72 61 32 1C 3A 80  .T...T...ira2.:.
1200: 23 5B B3 80 56 83 08 01  56 83 08 01 61 72 61 30  #[..V...V...ara0
1210: 1C 3E 80 52 21 80 F0 FF  FF 7F F0 FF FF 7F 30 30  .>.R!.........00
1220: 32 35 45 21 80 F0 FF FF  7F F0 FF FF 7F 30 30 30  25E!.........000
1230: 77 1E 80 7A 00 54 83 08  01 5B B8 80 54 83 08 01  w..z.T...[..T...
1240: 54 83 08 01 69 72 61 30  2B 56 83 08 01 BF 80 1C  T...ira0+V......
1250: 3A 80 23 52 21 80 F0 FF  FF 7F F0 FF FF 7F 30 30  :.#R!.........00
1260: 30 77 45 21 80 F0 FF FF  7F F0 FF FF 7F 62 6C 6F  0wE!.........blo
1270: 66 1E 80 29 10 F0 FF FF  7F 02 02 02 10 03 80 80  f..)............
1280: 96 12 45 21 80 F0 FF FF  7F F0 FF FF 7F 30 6D 64  ..E!.........0md
1290: 31 1E 80 01 5A 13 02 02  10 3B 80 80 B2 12 45 21  1...Z....;....E!
12A0: 80 F0 FF FF 7F F0 FF FF  7F 30 6D 64 31 1E 80 01  .........0md1...
12B0: 5A 13 02 02 10 3C 80 80  CE 12 45 21 80 F0 FF FF  Z....<....E!....
12C0: 7F F0 FF FF 7F 30 68 69  31 1E 80 01 5A 13 02 02  .....0hi1...Z...
12D0: 10 3D 80 80 EA 12 45 21  80 F0 FF FF 7F F0 FF FF  .=....E!........
12E0: 7F 30 68 69 31 1E 80 01  5A 13 02 02 10 3E 80 80  .0hi1...Z....>..
12F0: 06 13 45 21 80 F0 FF FF  7F F0 FF FF 7F 30 73 68  ..E!.........0sh
1300: 31 1E 80 01 5A 13 02 02  10 3F 80 80 22 13 45 21  1...Z....?..".E!
1310: 80 F0 FF FF 7F F0 FF FF  7F 30 73 68 31 1E 80 01  .........0sh1...
1320: 5A 13 02 02 10 40 80 80  3E 13 45 21 80 F0 FF FF  Z....@..>.E!....
1330: 7F F0 FF FF 7F 30 6D 64  31 1E 80 01 5A 13 02 02  .....0md1...Z...
1340: 10 41 80 80 5A 13 45 21  80 F0 FF FF 7F F0 FF FF  .A..Z.E!........
1350: 7F 30 68 69 31 1E 80 01  5A 13 2B 54 83 08 01 C0  .0hi1...Z.+T....
1360: 80 23 52 21 80 F0 FF FF  7F F0 FF FF 7F 30 68 69  .#R!.........0hi
1370: 31 52 21 80 F0 FF FF 7F  F0 FF FF 7F 30 6D 64 31  1R!.........0md1
1380: 52 21 80 F0 FF FF 7F F0  FF FF 7F 30 73 68 31 29  R!.........0sh1)
1390: 10 F0 FF FF 7F 02 02 02  10 03 80 80 B2 13 45 21  ..............E!
13A0: 80 F0 FF FF 7F F0 FF FF  7F 30 6D 64 32 1E 80 01  .........0md2...
13B0: 76 14 02 02 10 3B 80 80  CE 13 45 21 80 F0 FF FF  v....;....E!....
13C0: 7F F0 FF FF 7F 30 6D 64  32 1E 80 01 76 14 02 02  .....0md2...v...
13D0: 10 3C 80 80 EA 13 45 21  80 F0 FF FF 7F F0 FF FF  .<....E!........
13E0: 7F 30 68 69 32 1E 80 01  76 14 02 02 10 3D 80 80  .0hi2...v....=..
13F0: 06 14 45 21 80 F0 FF FF  7F F0 FF FF 7F 30 68 69  ..E!.........0hi
1400: 32 1E 80 01 76 14 02 02  10 3E 80 80 22 14 45 21  2...v....>..".E!
1410: 80 F0 FF FF 7F F0 FF FF  7F 30 73 68 32 1E 80 01  .........0sh2...
1420: 76 14 02 02 10 3F 80 80  3E 14 45 21 80 F0 FF FF  v....?..>.E!....
1430: 7F F0 FF FF 7F 30 73 68  32 1E 80 01 76 14 02 02  .....0sh2...v...
1440: 10 40 80 80 5A 14 45 21  80 F0 FF FF 7F F0 FF FF  .@..Z.E!........
1450: 7F 30 6D 64 32 1E 80 01  76 14 02 02 10 41 80 80  .0md2...v....A..
1460: 76 14 45 21 80 F0 FF FF  7F F0 FF FF 7F 30 68 69  v.E!.........0hi
1470: 32 1E 80 01 76 14 27 10  54 83 08 01 18 2B 54 83  2...v.'.T....+T.
1480: 08 01 C1 80 23 2A 10 54  83 08 01 7A 00 54 83 08  ....#*.T...z.T..
1490: 01 5B 42 80 54 83 08 01  54 83 08 01 66 69 30 31  .[B.T...T...fi01
14A0: 5B C2 80 54 83 08 01 54  83 08 01 74 6C 65 31 4A  [..T...T...tle1J
14B0: 54 83 08 01 56 83 08 01  4A F0 FF FF 7F 56 83 08  T...V...J....V..
14C0: 01 52 21 80 F0 FF FF 7F  F0 FF FF 7F 30 68 69 32  .R!.........0hi2
14D0: 52 21 80 F0 FF FF 7F F0  FF FF 7F 30 6D 64 32 52  R!.........0md2R
14E0: 21 80 F0 FF FF 7F F0 FF  FF 7F 30 73 68 32 45 21  !.........0sh2E!
14F0: 80 F0 FF FF 7F F0 FF FF  7F 30 30 30 76 1E 80 79  .........000v..y
1500: 00 54 83 08 01 56 83 08  01 2B 54 83 08 01 C3 80  .T...V...+T.....
1510: 23 5B 42 80 54 83 08 01  54 83 08 01 66 69 30 30  #[B.T...T...fi00
1520: 2B 56 83 08 01 C4 80 5B  C5 80 56 83 08 01 56 83  +V.....[..V...V.
1530: 08 01 74 68 6B 30 1C 1F  80 23 52 21 80 F0 FF FF  ..thk0...#R!....
1540: 7F F0 FF FF 7F 30 30 30  76 45 21 80 F0 FF FF 7F  .....000vE!.....
1550: F0 FF FF 7F 30 30 30 78  1E 80 27 10 54 83 08 01  ....000x..'.T...
1560: 14 2B 56 83 08 01 C6 80  23 2B 56 83 08 01 C7 80  .+V.....#+V.....
1570: 23 7A 00 54 83 08 01 52  21 80 F0 FF FF 7F F0 FF  #z.T...R!.......
1580: FF 7F 30 30 30 78 45 21  80 F0 FF FF 7F F0 FF FF  ..000xE!........
1590: 7F 30 30 30 79 1E 80 5B  C5 80 56 83 08 01 56 83  .000y..[..V...V.
15A0: 08 01 74 68 6B 31 5B C8  80 54 83 08 01 54 83 08  ..thk1[..T...T..
15B0: 01 74 68 62 31 2B 56 83  08 01 C9 80 1C 3A 80 23  .thb1+V......:.#
15C0: 52 21 80 F0 FF FF 7F F0  FF FF 7F 30 30 30 79 45  R!.........000yE
15D0: 21 80 F0 FF FF 7F F0 FF  FF 7F 30 30 32 64 1E 80  !.........002d..
15E0: 5B C5 80 56 83 08 01 56  83 08 01 74 6C 6B 30 2B  [..V...V...tlk0+
15F0: 56 83 08 01 CA 80 1C 3A  80 23 52 21 80 F0 FF FF  V......:.#R!....
1600: 7F F0 FF FF 7F 30 30 32  64 45 21 80 F0 FF FF 7F  .....002dE!.....
1610: F0 FF FF 7F 30 30 31 64  1E 80 5B 42 80 54 83 08  ....001d..[B.T..
1620: 01 54 83 08 01 66 63 30  30 2B 54 83 08 01 CB 80  .T...fc00+T.....
1630: 23 52 21 80 F0 FF FF 7F  F0 FF FF 7F 30 30 31 64  #R!.........001d
1640: 45 21 80 F0 FF FF 7F F0  FF FF 7F 30 30 31 33 1E  E!.........0013.
1650: 80 27 10 56 83 08 01 1B  2B 56 83 08 01 CC 80 23  .'.V....+V.....#
1660: 7A 00 56 83 08 01 7C 01  56 83 08 01 52 21 80 F0  z.V...|.V...R!..
1670: FF FF 7F F0 FF FF 7F 30  30 31 33 52 21 80 F0 FF  .......0013R!...
1680: FF 7F F0 FF FF 7F 30 30  31 34 45 21 80 F0 FF FF  ......0014E!....
1690: 7F F0 FF FF 7F 30 30 31  35 1E 80 6B 69 64 6C 30  .....0015..kidl0
16A0: 56 83 08 01 2B 54 83 08  01 CD 80 23 7B 55 83 08  V...+T.....#{U..
16B0: 01 BA 55 83 08 01 CE 80  CF 80 D0 80 D1 80 52 21  ..U...........R!
16C0: 80 F0 FF FF 7F F0 FF FF  7F 30 30 31 35 45 21 80  .........0015E!.
16D0: F0 FF FF 7F F0 FF FF 7F  62 6C 6F 66 1E 80 45 21  ........blof..E!
16E0: 80 F0 FF FF 7F F0 FF FF  7F 30 30 31 31 1E 80 5B  .........0011..[
16F0: D2 80 55 83 08 01 55 83  08 01 6B 79 6F 30 2B 55  ..U...U...kyo0+U
1700: 83 08 01 D3 80 23 52 21  80 F0 FF FF 7F F0 FF FF  .....#R!........
1710: 7F 30 30 31 31 45 21 80  F0 FF FF 7F F0 FF FF 7F  .0011E!.........
1720: 30 30 30 75 1E 80 5B D2  80 55 83 08 01 55 83 08  000u..[..U...U..
1730: 01 6B 79 6F 31 4A 55 83  08 01 56 83 08 01 4A 56  .kyo1JU...V...JV
1740: 83 08 01 55 83 08 01 2B  55 83 08 01 D4 80 23 79  ...U...+U.....#y
1750: 00 56 83 08 01 54 83 08  01 5B D5 80 56 83 08 01  .V...T...[..V...
1760: 56 83 08 01 74 6C 61 30  2B 56 83 08 01 D6 80 23  V...tla0+V.....#
1770: 7B 54 83 08 01 4B 54 83  08 01 D7 80 52 21 80 F0  {T...KT.....R!..
1780: FF FF 7F F0 FF FF 7F 30  30 30 75 45 21 80 F0 FF  .......000uE!...
1790: FF 7F F0 FF FF 7F 30 30  31 36 1E 80 5B 42 80 54  ......0016..[B.T
17A0: 83 08 01 54 83 08 01 66  63 30 31 4A 56 83 08 01  ...T...fc01JV...
17B0: 54 83 08 01 4A F0 FF FF  7F 54 83 08 01 2B 54 83  T...J....T...+T.
17C0: 08 01 D8 80 23 52 21 80  F0 FF FF 7F F0 FF FF 7F  ....#R!.........
17D0: 30 30 31 36 45 21 80 F0  FF FF 7F F0 FF FF 7F 30  0016E!.........0
17E0: 30 32 65 1E 80 5B 42 80  54 83 08 01 54 83 08 01  02e..[B.T...T...
17F0: 66 63 30 30 24 D9 80 1E  80 1E 80 25 02 00 10 1E  fc00$......%....
1800: 80 00 19 18 1C 1F 80 6E  F0 FF FF 7F 40 80 99 F0  .......n....@...
1810: FF FF 7F 1C 3A 80 01 7D  18 02 00 10 03 80 00 7D  ....:..}.......}
1820: 18 1C 1F 80 6E F0 FF FF  7F 3F 80 99 F0 FF FF 7F  ....n....?......
1830: 1C 3A 80 5B 42 80 54 83  08 01 54 83 08 01 66 63  .:.[B.T...T...fc
1840: 30 31 5B 37 80 54 83 08  01 54 83 08 01 74 6C 61  01[7.T...T...tla
1850: 30 2B 54 83 08 01 DA 80  1C 3A 80 23 5B 42 80 54  0+T......:.#[B.T
1860: 83 08 01 54 83 08 01 66  63 30 30 5B 37 80 54 83  ...T...fc00[7.T.
1870: 08 01 54 83 08 01 74 6C  61 31 01 7D 18 52 21 80  ..T...tla1.}.R!.
1880: F0 FF FF 7F F0 FF FF 7F  30 30 32 65 45 21 80 F0  ........002eE!..
1890: FF FF 7F F0 FF FF 7F 30  30 31 32 1E 80 4A 54 83  .......0012..JT.
18A0: 08 01 56 83 08 01 4A F0  FF FF 7F 56 83 08 01 5B  ..V...J....V...[
18B0: B3 80 56 83 08 01 56 83  08 01 66 63 30 30 2B 56  ..V...V...fc00+V
18C0: 83 08 01 DB 80 1C 3A 80  23 5B B3 80 56 83 08 01  ......:.#[..V...
18D0: 56 83 08 01 66 30 30 30  52 21 80 F0 FF FF 7F F0  V...f000R!......
18E0: FF FF 7F 30 30 31 32 45  21 80 F0 FF FF 7F F0 FF  ...0012E!.......
18F0: FF 7F 30 30 31 63 1E 80  2B 56 83 08 01 DC 80 23  ..001c..+V.....#
1900: 5B 37 80 54 83 08 01 54  83 08 01 74 68 61 30 2B  [7.T...T...tha0+
1910: 54 83 08 01 DD 80 1C 3A  80 23 52 21 80 F0 FF FF  T......:.#R!....
1920: 7F F0 FF FF 7F 30 30 31  63 45 21 80 F0 FF FF 7F  .....001cE!.....
1930: F0 FF FF 7F 30 30 31 37  1E 80 5B 37 80 54 83 08  ....0017..[7.T..
1940: 01 54 83 08 01 74 68 61  31 2B 56 83 08 01 DE 80  .T...tha1+V.....
1950: 23 52 21 80 F0 FF FF 7F  F0 FF FF 7F 30 30 31 37  #R!.........0017
1960: 45 21 80 F0 FF FF 7F F0  FF FF 7F 30 30 30 7A 1E  E!.........000z.
1970: 80 2B 56 83 08 01 DF 80  23 52 21 80 F0 FF FF 7F  .+V.....#R!.....
1980: F0 FF FF 7F 30 30 30 7A  45 21 80 F0 FF FF 7F F0  ....000zE!......
1990: FF FF 7F 30 30 31 38 1E  80 2B 56 83 08 01 E0 80  ...0018..+V.....
19A0: 29 10 56 83 08 01 18 23  1C 1F 80 C5 E1 80 56 83  ).V....#......V.
19B0: 08 01 56 83 08 01 73 74  30 30 1E 80 52 21 80 F0  ..V...st00..R!..
19C0: FF FF 7F F0 FF FF 7F 30  30 31 39 45 21 80 F0 FF  .......0019E!...
19D0: FF 7F F0 FF FF 7F 30 30  31 61 1E 80 5B 37 80 54  ......001a..[7.T
19E0: 83 08 01 54 83 08 01 74  68 61 30 2B 54 83 08 01  ...T...tha0+T...
19F0: E2 80 29 10 56 83 08 01  1A 1C 3A 80 23 BA 56 83  ..).V.....:.#.V.
1A00: 08 01 91 80 92 80 93 80  94 80 52 21 80 F0 FF FF  ..........R!....
1A10: 7F F0 FF FF 7F 30 30 31  61 45 21 80 F0 FF FF 7F  .....001aE!.....
1A20: F0 FF FF 7F 30 30 31 30  1E 80 03 02 10 E3 80 2B  ....0010.......+
1A30: 56 83 08 01 E4 80 23 52  21 80 F0 FF FF 7F F0 FF  V.....#R!.......
1A40: FF 7F 30 30 31 30 45 21  80 F0 FF FF 7F F0 FF FF  ..0010E!........
1A50: 7F 30 30 32 34 1E 80 5B  D5 80 56 83 08 01 56 83  .0024..[..V...V.
1A60: 08 01 74 6C 61 30 2B 56  83 08 01 E5 80 1C 3A 80  ..tla0+V......:.
1A70: 23 5B D5 80 56 83 08 01  56 83 08 01 74 6C 61 31  #[..V...V...tla1
1A80: 5B 37 80 54 83 08 01 54  83 08 01 74 68 61 31 2B  [7.T...T...tha1+
1A90: 54 83 08 01 E6 80 1C 3A  80 23 52 21 80 F0 FF FF  T......:.#R!....
1AA0: 7F F0 FF FF 7F 30 30 32  34 45 21 80 F0 FF FF 7F  .....0024E!.....
1AB0: F0 FF FF 7F 30 30 31 6D  1E 80 5D 1E 80 43 80 2B  ....001m..]..C.+
1AC0: 56 83 08 01 E7 80 23 52  21 80 F0 FF FF 7F F0 FF  V.....#R!.......
1AD0: FF 7F 30 30 31 6D 45 21  80 F0 FF FF 7F F0 FF FF  ..001mE!........
1AE0: 7F 30 30 31 62 1E 80 5B  E8 80 56 83 08 01 56 83  .001b..[..V...V.
1AF0: 08 01 77 72 70 30 BB E9  80 56 83 08 01 56 83 08  ..wrp0...V...V..
1B00: 01 73 74 30 31 1E 80 1C  31 80 52 21 80 F0 FF FF  .st01...1.R!....
1B10: 7F F0 FF FF 7F 30 30 31  62 45 21 80 F0 FF FF 7F  .....001bE!.....
1B20: F0 FF FF 7F 30 30 31 66  1E 80 BA 54 83 08 01 EA  ....001f...T....
1B30: 80 EB 80 EC 80 82 80 1C  29 80 52 21 80 F0 FF FF  ........).R!....
1B40: 7F F0 FF FF 7F 30 30 31  66 45 21 80 F0 FF FF 7F  .....001fE!.....
1B50: F0 FF FF 7F 30 30 31 67  1E 80 1C 2A 80 BB E9 80  ....001g...*....
1B60: 56 83 08 01 56 83 08 01  73 74 30 32 1E 80 5B 42  V...V...st02..[B
1B70: 80 54 83 08 01 54 83 08  01 66 30 30 30 7C 01 54  .T...T...f000|.T
1B80: 83 08 01 29 10 54 83 08  01 15 59 05 56 83 08 01  ...).T....Y.V...
1B90: 01 BA 56 83 08 01 ED 80  EE 80 EF 80 F0 80 1C A2  ..V.............
1BA0: 80 BA 54 83 08 01 F1 80  F2 80 F3 80 F4 80 4B 54  ..T...........KT
1BB0: 83 08 01 94 80 52 21 80  F0 FF FF 7F F0 FF FF 7F  .....R!.........
1BC0: 30 30 31 67 45 21 80 F0  FF FF 7F F0 FF FF 7F 30  001gE!.........0
1BD0: 30 31 6E 1E 80 7B 54 83  08 01 2B 54 83 08 01 F5  01n..{T...+T....
1BE0: 80 1C 1F 80 79 00 F0 FF  FF 7F 54 83 08 01 79 00  ....y.....T...y.
1BF0: 55 83 08 01 54 83 08 01  23 52 21 80 F0 FF FF 7F  U...T...#R!.....
1C00: F0 FF FF 7F 30 30 31 6E  45 21 80 F0 FF FF 7F F0  ....001nE!......
1C10: FF FF 7F 30 30 31 6F 1E  80 5B 37 80 54 83 08 01  ...001o..[7.T...
1C20: 54 83 08 01 74 6C 61 30  2B 54 83 08 01 F6 80 23  T...tla0+T.....#
1C30: 5B 37 80 54 83 08 01 54  83 08 01 74 6C 61 31 52  [7.T...T...tla1R
1C40: 21 80 F0 FF FF 7F F0 FF  FF 7F 30 30 31 6F 45 21  !.........001oE!
1C50: 80 F0 FF FF 7F F0 FF FF  7F 30 30 31 70 1E 80 1C  .........001p...
1C60: 2A 80 6E 55 83 08 01 40  80 99 55 83 08 01 6E F0  *.nU...@..U...n.
1C70: FF FF 7F F7 80 99 F0 FF  FF 7F 1C 1F 80 27 10 54  .............'.T
1C80: 83 08 01 16 1C 29 80 4A  55 83 08 01 54 83 08 01  .....).JU...T...
1C90: 4A F0 FF FF 7F 54 83 08  01 1C 1F 80 27 10 55 83  J....T......'.U.
1CA0: 08 01 16 7B 55 83 08 01  1C 1F 80 27 10 F0 FF FF  ...{U......'....
1CB0: 7F 38 7B F0 FF FF 7F 1C  1F 80 52 21 80 F0 FF FF  .8{.......R!....
1CC0: 7F F0 FF FF 7F 30 30 31  70 45 21 80 F0 FF FF 7F  .....001pE!.....
1CD0: F0 FF FF 7F 30 30 31 71  1E 80 1C 43 80 27 10 56  ....001q...C.'.V
1CE0: 83 08 01 1C 5B F8 80 56  83 08 01 56 83 08 01 63  ....[..V...V...c
1CF0: 6F 6E 30 52 21 80 F0 FF  FF 7F F0 FF FF 7F 30 30  on0R!.........00
1D00: 31 71 45 21 80 F0 FF FF  7F F0 FF FF 7F 30 30 31  1qE!.........001
1D10: 69 1E 80 5C 00 95 80 5C  01 95 80 5D 8E 80 43 80  i..\...\...]..C.
1D20: 1C F9 80 52 21 80 F0 FF  FF 7F F0 FF FF 7F 30 30  ...R!.........00
1D30: 31 69 45 21 80 F0 FF FF  7F F0 FF FF 7F 30 30 31  1iE!.........001
1D40: 72 1E 80 2B 56 83 08 01  FA 80 23 52 21 80 F0 FF  r..+V.....#R!...
1D50: FF 7F F0 FF FF 7F 30 30  31 72 45 21 80 F0 FF FF  ......001rE!....
1D60: 7F F0 FF FF 7F 30 30 31  6A 1E 80 2B 56 83 08 01  .....001j..+V...
1D70: FB 80 23 52 21 80 F0 FF  FF 7F F0 FF FF 7F 30 30  ..#R!.........00
1D80: 31 6A 45 21 80 F0 FF FF  7F F0 FF FF 7F 30 30 31  1jE!.........001
1D90: 6B 1E 80 2B 56 83 08 01  FC 80 23 52 21 80 F0 FF  k..+V.....#R!...
1DA0: FF 7F F0 FF FF 7F 30 30  31 6B 45 21 80 F0 FF FF  ......001kE!....
1DB0: 7F F0 FF FF 7F 30 30 31  6C 1E 80 2B 56 83 08 01  .....001l..+V...
1DC0: FD 80 23 1A 80 2F 59 05  56 83 08 01 00 1C 2A 80  ..#../Y.V.....*.
1DD0: 29 10 56 83 08 01 2B 52  21 80 F0 FF FF 7F F0 FF  ).V...+R!.......
1DE0: FF 7F 30 30 31 6C 78 1C  03 80 AB 0A 46 00 45 FE  ..001lx.....F.E.
1DF0: 80 F0 FF FF 7F F0 FF FF  7F 66 64 69 32 1E 80 21  .........fdi2..!
1E00: 00                                                .               
```

#### Opcodes

```
  0: 0x0001 [0x42] SET_CLI_EVENT_CANCEL_DATA()
  1: 0x0002 [0x1A] CALL_SUBROUTINE(address=0x2F80)
  2: 0x0005 [0x46] CAMERA_CONTROL: Disable user control
  3: 0x0007 [0x38] SET_CLIENT_EVENT_MODE(mode=19*)
  4: 0x000A [0x4E] SET_ENTITY_HIDE_FLAG: Show LocalPlayer
  5: 0x0010 [0x77] SET_EVENT_TIME_WEATHER(hour=255*, weather=12*)
  6: 0x0015 [0x1C] WAIT(1* ticks)
  7: 0x0018 [0xAB] EventEntity->UnknownFlag = 1 // Enable unknown flag
  8: 0x001A [0x27] REQ_SET(priority=0x10, entity_id=Lilisette (ID: 17335124/0x01088354), tag_num=0x04)
  9: 0x0021 [0x2F] Portia (ID: 17335125/0x01088355)->Render.Flags0 &= ~0x80000 // Bit 19
 10: 0x0027 [0x2F] Unnamed NPC (ID: 17335126/0x01088356)->Render.Flags0 &= ~0x80000 // Bit 19
 11: 0x002D [0x2F] Cait Sith Ceithir (ID: 17335129/0x01088359)->Render.Flags0 &= ~0x80000 // Bit 19
 12: 0x0033 [0x2F] Unnamed NPC (ID: 17335074/0x01088322)->Render.Flags0 &= ~0x80000 // Bit 19
 13: 0x0039 [0x4E] SET_ENTITY_HIDE_FLAG: Show Portia (ID: 17335125/0x01088355)
 14: 0x003F [0x4E] SET_ENTITY_HIDE_FLAG: Show Unnamed NPC (ID: 17335074/0x01088322)
 15: 0x0045 [0x4E] SET_ENTITY_HIDE_FLAG: Show Unnamed NPC (ID: 17335126/0x01088356)
 16: 0x004B [0x4E] SET_ENTITY_HIDE_FLAG: Show Cait Sith Ceithir (ID: 17335129/0x01088359)
 17: 0x0051 [0x92] Lilisette (ID: 17335124/0x01088354)->Render.Flags3 ^= 0x01
 18: 0x0057 [0x92] Portia (ID: 17335125/0x01088355)->Render.Flags3 ^= 0x01
 19: 0x005D [0x92] Unnamed NPC (ID: 17335126/0x01088356)->Render.Flags3 ^= 0x01
 20: 0x0063 [0x92] Cait Sith Ceithir (ID: 17335129/0x01088359)->Render.Flags3 ^= 0x01
 21: 0x0069 [0x92] Unnamed NPC (ID: 17335074/0x01088322)->Render.Flags3 ^= 0x01
 22: 0x006F [0x94] LocalPlayer->Render.Flags3 ^= 0x01
 23: 0x0075 [0x94] Lilisette (ID: 17335124/0x01088354)->Render.Flags3 ^= 0x01
 24: 0x007B [0x94] Portia (ID: 17335125/0x01088355)->Render.Flags3 ^= 0x01
 25: 0x0081 [0x94] Unnamed NPC (ID: 17335126/0x01088356)->Render.Flags3 ^= 0x01
 26: 0x0087 [0x94] Cait Sith Ceithir (ID: 17335129/0x01088359)->Render.Flags3 ^= 0x01
 27: 0x008D [0x94] Unnamed NPC (ID: 17335074/0x01088322)->Render.Flags3 ^= 0x01
 28: 0x0093 [0xBA] SET_ENTITY_POSITION(entity_id=LocalPlayer, pos_x=59.813*, pos_z=-522.465*, pos_y=-1.579*, direction=271.7*)
 29: 0x00A0 [0xBA] SET_ENTITY_POSITION(entity_id=Lilisette (ID: 17335124/0x01088354), pos_x=60.697*, pos_z=-474.520*, pos_y=0.245*, direction=282.7*)
 30: 0x00AD [0xBA] SET_ENTITY_POSITION(entity_id=Portia (ID: 17335125/0x01088355), pos_x=61.817*, pos_z=-473.123*, pos_y=0.161*, direction=272.7*)
 31: 0x00BA [0xBA] SET_ENTITY_POSITION(entity_id=Unnamed NPC (ID: 17335126/0x01088356), pos_x=53.763*, pos_z=-485.556*, pos_y=-0.572*, direction=282.7*)
 32: 0x00C7 [0xBA] SET_ENTITY_POSITION(entity_id=Cait Sith Ceithir (ID: 17335129/0x01088359), pos_x=60.794*, pos_z=-474.778*, pos_y=0.238*, direction=95.8*)
 33: 0x00D4 [0x59] UPDATE_ENTITY_DATA: Unnamed NPC (ID: 17335126/0x01088356)->Render.Flags0 |= 0x200000
 34: 0x00DB [0xBA] SET_ENTITY_POSITION(entity_id=Unnamed NPC (ID: 17335126/0x01088356), pos_x=60.853*, pos_z=-462.308*, pos_y=-17.333*, direction=90.5*)
 35: 0x00E8 [0x27] REQ_SET(priority=0x10, entity_id=Unnamed NPC (ID: 17335126/0x01088356), tag_num=0x1D)
 36: 0x00EF [0x27] REQ_SET(priority=0x10, entity_id=Cait Sith Ceithir (ID: 17335129/0x01088359), tag_num=0x23)
 37: 0x00F6 [0xBA] SET_ENTITY_POSITION(entity_id=Unnamed NPC (ID: 17335074/0x01088322), pos_x=61.045*, pos_z=-469.810*, pos_y=0.052*, direction=0.0*)
 38: 0x0103 [0x80] LOAD_WAIT(entity=LocalPlayer)
 39: 0x0108 [0x80] LOAD_WAIT(entity=Lilisette (ID: 17335124/0x01088354))
 40: 0x010D [0x80] LOAD_WAIT(entity=Portia (ID: 17335125/0x01088355))
 41: 0x0112 [0x80] LOAD_WAIT(entity=Unnamed NPC (ID: 17335126/0x01088356))
 42: 0x0117 [0x80] LOAD_WAIT(entity=Cait Sith Ceithir (ID: 17335129/0x01088359))
 43: 0x011C [0x29] REQ_SET_WAIT(priority=0x10, entity_id=Unnamed NPC (ID: 17335126/0x01088356), tag_num=0x4A)
 44: 0x0123 [0x81] SET_ENTITY_BLINKING(blink_flag=0x01, entity=Lilisette (ID: 17335124/0x01088354))
 45: 0x0129 [0x81] SET_ENTITY_BLINKING(blink_flag=0x01, entity=Portia (ID: 17335125/0x01088355))
 46: 0x012F [0x81] SET_ENTITY_BLINKING(blink_flag=0x01, entity=Unnamed NPC (ID: 17335126/0x01088356))
 47: 0x0135 [0x81] SET_ENTITY_BLINKING(blink_flag=0x00, entity=Cait Sith Ceithir (ID: 17335129/0x01088359))
 48: 0x013B [0x7C] Lilisette (ID: 17335124/0x01088354)->Render.Flags2 |= 0x01
 49: 0x0141 [0x7C] Portia (ID: 17335125/0x01088355)->Render.Flags2 |= 0x01
 50: 0x0147 [0x7C] Unnamed NPC (ID: 17335126/0x01088356)->Render.Flags2 |= 0x01
 51: 0x014D [0x7C] Cait Sith Ceithir (ID: 17335129/0x01088359)->Render.Flags2 |= 0x00
 52: 0x0153 [0x5D] SET_MUSIC_VOLUME(volume=0*, fade_time=60*)
 53: 0x0158 [0x1C] WAIT(15* ticks)
 54: 0x015B [0x45] LOAD_SCHEDULED_TASK: Load scheduler "0000" with entities [LocalPlayer, LocalPlayer], work=[501*, 0*]
 55: 0x016C [0x1A] CALL_SUBROUTINE(address=0x2F5F)
 56: 0x016F [0x27] REQ_SET(priority=0x10, entity_id=LocalPlayer, tag_num=0x35)
 57: 0x0176 [0x1C] WAIT(210* ticks)
 58: 0x0179 [0x52] END_LOAD_SCHEDULER: End scheduler "0000" with entities [LocalPlayer, LocalPlayer], work=501*
 59: 0x0188 [0x45] LOAD_SCHEDULED_TASK: Load scheduler "0001" with entities [LocalPlayer, LocalPlayer], work=[501*, 0*]
 60: 0x0199 [0x27] REQ_SET(priority=0x10, entity_id=Portia (ID: 17335125/0x01088355), tag_num=0x12)
 61: 0x01A0 [0x29] REQ_SET_WAIT(priority=0x10, entity_id=Lilisette (ID: 17335124/0x01088354), tag_num=0x12)
 62: 0x01A7 [0x1C] WAIT(60* ticks)
 63: 0x01AA [0x7A] VM_CONTROL: Reset VM for LocalPlayer
 64: 0x01B0 [0xBA] SET_ENTITY_POSITION(entity_id=LocalPlayer, pos_x=59.922*, pos_z=-489.998*, pos_y=0.292*, direction=271.2*)
 65: 0x01BD [0x5B] LOAD_EXT_SCHEDULER: Load scheduler "hdc0" with entities [Lilisette (ID: 17335124/0x01088354), Lilisette (ID: 17335124/0x01088354)], work=2242*
 66: 0x01CC [0x2B] Lilisette (ID: 17335124/0x01088354) [8064*]:
     "<Player>! Over here!"
 67: 0x01D3 [0x1C] WAIT(150* ticks)
 68: 0x01D6 [0x23] WAIT_FOR_DIALOG_INTERACTION
 69: 0x01D7 [0x27] REQ_SET(priority=0x10, entity_id=LocalPlayer, tag_num=0x36)
 70: 0x01DE [0x1C] WAIT(30* ticks)
 71: 0x01E1 [0x7A] VM_CONTROL: Reset VM for Portia (ID: 17335125/0x01088355)
 72: 0x01E7 [0xBA] SET_ENTITY_POSITION(entity_id=Portia (ID: 17335125/0x01088355), pos_x=61.773*, pos_z=-470.303*, pos_y=0.035*, direction=282.7*)
 73: 0x01F4 [0x52] END_LOAD_SCHEDULER: End scheduler "0027" with entities [LocalPlayer, LocalPlayer], work=501*
 74: 0x0203 [0x45] LOAD_SCHEDULED_TASK: Load scheduler "0002" with entities [LocalPlayer, LocalPlayer], work=[501*, 0*]
 75: 0x0214 [0x5B] LOAD_EXT_SCHEDULER: Load scheduler "hdc1" with entities [Lilisette (ID: 17335124/0x01088354), Lilisette (ID: 17335124/0x01088354)], work=2242*
 76: 0x0223 [0x27] REQ_SET(priority=0x10, entity_id=Portia (ID: 17335125/0x01088355), tag_num=0x13)
 77: 0x022A [0x1C] WAIT(150* ticks)
 78: 0x022D [0xBA] SET_ENTITY_POSITION(entity_id=Portia (ID: 17335125/0x01088355), pos_x=61.889*, pos_z=-469.553*, pos_y=-0.040*, direction=282.7*)
 79: 0x023A [0x7A] VM_CONTROL: Reset VM for Portia (ID: 17335125/0x01088355)
 80: 0x0240 [0x27] REQ_SET(priority=0x10, entity_id=Portia (ID: 17335125/0x01088355), tag_num=0x14)
 81: 0x0247 [0x52] END_LOAD_SCHEDULER: End scheduler "0002" with entities [LocalPlayer, LocalPlayer], work=501*
 82: 0x0256 [0x45] LOAD_SCHEDULED_TASK: Load scheduler "0026" with entities [LocalPlayer, LocalPlayer], work=[501*, 0*]
 83: 0x0267 [0x4A] Lilisette (ID: 17335124/0x01088354) looks at LocalPlayer
 84: 0x0270 [0x1C] WAIT(180* ticks)
 85: 0x0273 [0x52] END_LOAD_SCHEDULER: End scheduler "0026" with entities [LocalPlayer, LocalPlayer], work=501*
 86: 0x0282 [0x45] LOAD_SCHEDULED_TASK: Load scheduler "0029" with entities [LocalPlayer, LocalPlayer], work=[501*, 0*]
 87: 0x0293 [0x1C] WAIT(60* ticks)
 88: 0x0296 [0x2B] Portia (ID: 17335125/0x01088355) [8065*]:
     "Such a bleak, desolate place..."
 89: 0x029D [0x23] WAIT_FOR_DIALOG_INTERACTION
 90: 0x029E [0x52] END_LOAD_SCHEDULER: End scheduler "0029" with entities [LocalPlayer, LocalPlayer], work=501*
 91: 0x02AD [0x45] LOAD_SCHEDULED_TASK: Load scheduler "0003" with entities [LocalPlayer, LocalPlayer], work=[501*, 0*]
 92: 0x02BE [0xBA] SET_ENTITY_POSITION(entity_id=Portia (ID: 17335125/0x01088355), pos_x=60.837*, pos_z=-464.927*, pos_y=-0.092*, direction=272.6*)
 93: 0x02CB [0x5B] LOAD_EXT_SCHEDULER: Load scheduler "tha0" with entities [Lilisette (ID: 17335124/0x01088354), Lilisette (ID: 17335124/0x01088354)], work=2134*
 94: 0x02DA [0x2B] Lilisette (ID: 17335124/0x01088354) [8066*]:
     "Are you familiar with this region, <Player>?"
 95: 0x02E1 [0x23] WAIT_FOR_DIALOG_INTERACTION
 96: 0x02E2 [0x6E] LocalPlayer uses emote 22*
 97: 0x02E9 [0x99] Wait for LocalPlayer animation to complete
 98: 0x02EE [0x1C] WAIT(90* ticks)
 99: 0x02F1 [0x5B] LOAD_EXT_SCHEDULER: Load scheduler "tha1" with entities [Lilisette (ID: 17335124/0x01088354), Lilisette (ID: 17335124/0x01088354)], work=2134*
100: 0x0300 [0x1C] WAIT(60* ticks)
101: 0x0303 [0x52] END_LOAD_SCHEDULER: End scheduler "0003" with entities [LocalPlayer, LocalPlayer], work=501*
102: 0x0312 [0x29] REQ_SET_WAIT(priority=0x10, entity_id=LocalPlayer, tag_num=0x02)
103: 0x0319 [0x02] IF !(Work_Zone[2] == 1*) GOTO 0x0335
104: 0x0321 [0x45] LOAD_SCHEDULED_TASK: Load scheduler "0md0" with entities [LocalPlayer, LocalPlayer], work=[501*, 0*]
105: 0x0332 [0x01] GOTO 0x03F9
106: 0x0335 [0x02] IF !(Work_Zone[2] == 2*) GOTO 0x0351
107: 0x033D [0x45] LOAD_SCHEDULED_TASK: Load scheduler "0md0" with entities [LocalPlayer, LocalPlayer], work=[501*, 0*]
108: 0x034E [0x01] GOTO 0x03F9
109: 0x0351 [0x02] IF !(Work_Zone[2] == 3*) GOTO 0x036D
110: 0x0359 [0x45] LOAD_SCHEDULED_TASK: Load scheduler "0hi0" with entities [LocalPlayer, LocalPlayer], work=[501*, 0*]
111: 0x036A [0x01] GOTO 0x03F9
112: 0x036D [0x02] IF !(Work_Zone[2] == 4*) GOTO 0x0389
113: 0x0375 [0x45] LOAD_SCHEDULED_TASK: Load scheduler "0hi0" with entities [LocalPlayer, LocalPlayer], work=[501*, 0*]
114: 0x0386 [0x01] GOTO 0x03F9
115: 0x0389 [0x02] IF !(Work_Zone[2] == 5*) GOTO 0x03A5
116: 0x0391 [0x45] LOAD_SCHEDULED_TASK: Load scheduler "0sh0" with entities [LocalPlayer, LocalPlayer], work=[501*, 0*]
117: 0x03A2 [0x01] GOTO 0x03F9
118: 0x03A5 [0x02] IF !(Work_Zone[2] == 6*) GOTO 0x03C1
119: 0x03AD [0x45] LOAD_SCHEDULED_TASK: Load scheduler "0sh0" with entities [LocalPlayer, LocalPlayer], work=[501*, 0*]
120: 0x03BE [0x01] GOTO 0x03F9
121: 0x03C1 [0x02] IF !(Work_Zone[2] == 7*) GOTO 0x03DD
122: 0x03C9 [0x45] LOAD_SCHEDULED_TASK: Load scheduler "0md0" with entities [LocalPlayer, LocalPlayer], work=[501*, 0*]
123: 0x03DA [0x01] GOTO 0x03F9
124: 0x03DD [0x02] IF !(Work_Zone[2] == 8*) GOTO 0x03F9
125: 0x03E5 [0x45] LOAD_SCHEDULED_TASK: Load scheduler "0hi0" with entities [LocalPlayer, LocalPlayer], work=[501*, 0*]
126: 0x03F6 [0x01] GOTO 0x03F9

SUBROUTINE_03F9:
127: 0x03F9 [0x1C] WAIT(30* ticks)
128: 0x03FC [0x81] SET_ENTITY_BLINKING(blink_flag=0x00, entity=Lilisette (ID: 17335124/0x01088354))
129: 0x0402 [0x7C] Lilisette (ID: 17335124/0x01088354)->Render.Flags2 |= 0x00
130: 0x0408 [0x5B] LOAD_EXT_SCHEDULER: Load scheduler "fc00" with entities [Lilisette (ID: 17335124/0x01088354), Lilisette (ID: 17335124/0x01088354)], work=2135*
131: 0x0417 [0x27] REQ_SET(priority=0x10, entity_id=Lilisette (ID: 17335124/0x01088354), tag_num=0x13)
132: 0x041E [0x1C] WAIT(120* ticks)
133: 0x0421 [0x2B] Lilisette (ID: 17335124/0x01088354) [8067*]:
     "Considering how expansive the glacier is, it wouldn't be feasible to wander around aimlessly, hoping to stumble upon a clue. I say we first investigate each of the magic towers scattered about here and--"
134: 0x0428 [0x23] WAIT_FOR_DIALOG_INTERACTION
135: 0x0429 [0x2A] GET_REQ_LEVEL(level=16, entity_id=Lilisette (ID: 17335124/0x01088354))
136: 0x042F [0xBA] SET_ENTITY_POSITION(entity_id=Lilisette (ID: 17335124/0x01088354), pos_x=60.478*, pos_z=-468.938*, pos_y=0.030*, direction=282.9*)
137: 0x043C [0xBA] SET_ENTITY_POSITION(entity_id=LocalPlayer, pos_x=61.612*, pos_z=-472.666*, pos_y=0.177*, direction=282.8*)
138: 0x0449 [0x52] END_LOAD_SCHEDULER: End scheduler "0hi0" with entities [LocalPlayer, LocalPlayer], work=501*
139: 0x0458 [0x52] END_LOAD_SCHEDULER: End scheduler "0md0" with entities [LocalPlayer, LocalPlayer], work=501*
140: 0x0467 [0x52] END_LOAD_SCHEDULER: End scheduler "0sh0" with entities [LocalPlayer, LocalPlayer], work=501*
141: 0x0476 [0x45] LOAD_SCHEDULED_TASK: Load scheduler "0005" with entities [LocalPlayer, LocalPlayer], work=[501*, 0*]
142: 0x0487 [0x27] REQ_SET(priority=0x10, entity_id=LocalPlayer, tag_num=0x37)
143: 0x048E [0x1C] WAIT(120* ticks)
144: 0x0491 [0x4B] UPDATE_ENTITY_YAW(entity=Portia (ID: 17335125/0x01088355), yaw=5.7*)
145: 0x0498 [0x1C] WAIT(120* ticks)
146: 0x049B [0x81] SET_ENTITY_BLINKING(blink_flag=0x00, entity=Unnamed NPC (ID: 17335126/0x01088356))
147: 0x04A1 [0x7C] Unnamed NPC (ID: 17335126/0x01088356)->Render.Flags2 |= 0x00
148: 0x04A7 [0xC5] LOAD_SCHEDULED_TASK_ALT3: Load scheduler 0x801E3130 for entities [Unnamed NPC (ID: 17335126/0x01088356), Unnamed NPC (ID: 17335126/0x01088356)], work=43*, param=29811
149: 0x04B8 [0x1C] WAIT(120* ticks)
150: 0x04BB [0x52] END_LOAD_SCHEDULER: End scheduler "0005" with entities [LocalPlayer, LocalPlayer], work=501*
151: 0x04CA [0x45] LOAD_SCHEDULED_TASK: Load scheduler "001s" with entities [LocalPlayer, LocalPlayer], work=[501*, 0*]
152: 0x04DB [0x27] REQ_SET(priority=0x10, entity_id=Unnamed NPC (ID: 17335126/0x01088356), tag_num=0x1C)
153: 0x04E2 [0x5B] LOAD_EXT_SCHEDULER: Load scheduler "4301" with entities [Lilisette (ID: 17335124/0x01088354), Lilisette (ID: 17335124/0x01088354)], work=2782*
154: 0x04F1 [0x2B] Lilisette (ID: 17335124/0x01088354) [8068*]:
     "What in the--!?"
155: 0x04F8 [0x1C] WAIT(120* ticks)
156: 0x04FB [0x23] WAIT_FOR_DIALOG_INTERACTION
157: 0x04FC [0x5B] LOAD_EXT_SCHEDULER: Load scheduler "nyp0" with entities [Unnamed NPC (ID: 17335126/0x01088356), Unnamed NPC (ID: 17335126/0x01088356)], work=1411*
158: 0x050B [0x1C] WAIT(1* ticks)
159: 0x050E [0x52] END_LOAD_SCHEDULER: End scheduler "001s" with entities [LocalPlayer, LocalPlayer], work=501*
160: 0x051D [0x45] LOAD_SCHEDULED_TASK: Load scheduler "0023" with entities [LocalPlayer, LocalPlayer], work=[501*, 0*]
161: 0x052E [0xBA] SET_ENTITY_POSITION(entity_id=Lilisette (ID: 17335124/0x01088354), pos_x=60.505*, pos_z=-469.457*, pos_y=0.066*, direction=263.7*)
162: 0x053B [0x1C] WAIT(80* ticks)
163: 0x053E [0x52] END_LOAD_SCHEDULER: End scheduler "0023" with entities [LocalPlayer, LocalPlayer], work=501*
164: 0x054D [0x45] LOAD_SCHEDULED_TASK: Load scheduler "002f" with entities [LocalPlayer, LocalPlayer], work=[501*, 0*]
165: 0x055E [0x1C] WAIT(59* ticks)
166: 0x0561 [0x2B] Lilisette (ID: 17335124/0x01088354) [8069*]:
     "Watch out!"
167: 0x0568 [0xBA] SET_ENTITY_POSITION(entity_id=Lilisette (ID: 17335124/0x01088354), pos_x=60.505*, pos_z=-469.457*, pos_y=0.066*, direction=8.3*)
168: 0x0575 [0x27] REQ_SET(priority=0x10, entity_id=LocalPlayer, tag_num=0x3C)
169: 0x057C [0xC5] LOAD_SCHEDULED_TASK_ALT3: Load scheduler 0x801E3030 for entities [Lilisette (ID: 17335124/0x01088354), Lilisette (ID: 17335124/0x01088354)], work=165*, param=12403
170: 0x058D [0x52] END_LOAD_SCHEDULER: End scheduler "002f" with entities [LocalPlayer, LocalPlayer], work=501*
171: 0x059C [0x45] LOAD_SCHEDULED_TASK: Load scheduler "002a" with entities [LocalPlayer, LocalPlayer], work=[501*, 0*]
172: 0x05AD [0xBA] SET_ENTITY_POSITION(entity_id=Unnamed NPC (ID: 17335126/0x01088356), pos_x=61.045*, pos_z=-469.810*, pos_y=0.052*, direction=90.5*)
173: 0x05BA [0x59] UPDATE_ENTITY_DATA: Unnamed NPC (ID: 17335126/0x01088356)->Render.Flags0 &= ~0x200000
174: 0x05C1 [0xBA] SET_ENTITY_POSITION(entity_id=LocalPlayer, pos_x=61.884*, pos_z=-469.687*, pos_y=-0.027*, direction=190.3*)
175: 0x05CE [0x7B] LocalPlayer stops talking
176: 0x05D3 [0x81] SET_ENTITY_BLINKING(blink_flag=0x01, entity=Lilisette (ID: 17335124/0x01088354))
177: 0x05D9 [0x7C] Lilisette (ID: 17335124/0x01088354)->Render.Flags2 |= 0x01
178: 0x05DF [0x5B] LOAD_EXT_SCHEDULER: Load scheduler "nyp0" with entities [Unnamed NPC (ID: 17335126/0x01088356), Unnamed NPC (ID: 17335126/0x01088356)], work=1411*
179: 0x05EE [0x1C] WAIT(20* ticks)
180: 0x05F1 [0x52] END_LOAD_SCHEDULER: End scheduler "002a" with entities [LocalPlayer, LocalPlayer], work=501*
181: 0x0600 [0x45] LOAD_SCHEDULED_TASK: Load scheduler "001u" with entities [LocalPlayer, LocalPlayer], work=[501*, 0*]
182: 0x0611 [0x1C] WAIT(20* ticks)
183: 0x0614 [0x27] REQ_SET(priority=0x10, entity_id=LocalPlayer, tag_num=0x39)
184: 0x061B [0x1C] WAIT(25* ticks)
185: 0x061E [0x27] REQ_SET(priority=0x10, entity_id=LocalPlayer, tag_num=0x3B)
186: 0x0625 [0x52] END_LOAD_SCHEDULER: End scheduler "001u" with entities [LocalPlayer, LocalPlayer], work=501*
187: 0x0634 [0x45] LOAD_SCHEDULED_TASK: Load scheduler "001v" with entities [LocalPlayer, LocalPlayer], work=[501*, 0*]
188: 0x0645 [0x1C] WAIT(55* ticks)
189: 0x0648 [0xC5] LOAD_SCHEDULED_TASK_ALT3: Load scheduler 0x801E3030 for entities [Unnamed NPC (ID: 17335074/0x01088322), Unnamed NPC (ID: 17335074/0x01088322)], work=157*, param=12403
190: 0x0659 [0x52] END_LOAD_SCHEDULER: End scheduler "001v" with entities [LocalPlayer, LocalPlayer], work=501*
191: 0x0668 [0x45] LOAD_SCHEDULED_TASK: Load scheduler "001w" with entities [LocalPlayer, LocalPlayer], work=[501*, 0*]
192: 0x0679 [0x27] REQ_SET(priority=0x10, entity_id=Unnamed NPC (ID: 17335126/0x01088356), tag_num=0x1D)
193: 0x0680 [0xBA] SET_ENTITY_POSITION(entity_id=Unnamed NPC (ID: 17335126/0x01088356), pos_x=60.438*, pos_z=-472.054*, pos_y=0.265*, direction=105.5*)
194: 0x068D [0x1C] WAIT(1* ticks)
195: 0x0690 [0x5B] LOAD_EXT_SCHEDULER: Load scheduler "4301" with entities [Unnamed NPC (ID: 17335126/0x01088356), Unnamed NPC (ID: 17335126/0x01088356)], work=2519*
196: 0x069F [0xC5] LOAD_SCHEDULED_TASK_ALT3: Load scheduler 0x801E3030 for entities [Unnamed NPC (ID: 17335126/0x01088356), Unnamed NPC (ID: 17335126/0x01088356)], work=160*, param=12403
197: 0x06B0 [0x1C] WAIT(5* ticks)
198: 0x06B3 [0x27] REQ_SET(priority=0x10, entity_id=Unnamed NPC (ID: 17335126/0x01088356), tag_num=0x1C)
199: 0x06BA [0x1C] WAIT(55* ticks)
200: 0x06BD [0xBA] SET_ENTITY_POSITION(entity_id=Lilisette (ID: 17335124/0x01088354), pos_x=56.566*, pos_z=-469.754*, pos_y=-0.899*, direction=175.8*)
201: 0x06CA [0xBA] SET_ENTITY_POSITION(entity_id=Portia (ID: 17335125/0x01088355), pos_x=61.875*, pos_z=-460.593*, pos_y=-0.114*, direction=90.5*)
202: 0x06D7 [0xBA] SET_ENTITY_POSITION(entity_id=LocalPlayer, pos_x=63.331*, pos_z=-469.774*, pos_y=-0.162*, direction=276.0*)
203: 0x06E4 [0x27] REQ_SET(priority=0x10, entity_id=LocalPlayer, tag_num=0x3A)
204: 0x06EB [0x66] LOAD_EXT_SCHEDULER_MAIN: Load scheduler "sha0" with entities [Portia (ID: 17335125/0x01088355), Portia (ID: 17335125/0x01088355)], work=19*
205: 0x06FA [0xC5] LOAD_SCHEDULED_TASK_ALT3: Load scheduler 0x801E3130 for entities [Lilisette (ID: 17335124/0x01088354), Lilisette (ID: 17335124/0x01088354)], work=165*, param=12403
206: 0x070B [0xC5] LOAD_SCHEDULED_TASK_ALT3: Load scheduler 0x801E306C for entities [Unnamed NPC (ID: 17335126/0x01088356), Unnamed NPC (ID: 17335126/0x01088356)], work=160*, param=26987
207: 0x071C [0x52] END_LOAD_SCHEDULER: End scheduler "001w" with entities [LocalPlayer, LocalPlayer], work=501*
208: 0x072B [0x45] LOAD_SCHEDULED_TASK: Load scheduler "002c" with entities [LocalPlayer, LocalPlayer], work=[501*, 0*]
209: 0x073C [0x1C] WAIT(50* ticks)
210: 0x073F [0x52] END_LOAD_SCHEDULER: End scheduler "002c" with entities [LocalPlayer, LocalPlayer], work=501*
211: 0x074E [0x45] LOAD_SCHEDULED_TASK: Load scheduler "001x" with entities [LocalPlayer, LocalPlayer], work=[501*, 0*]
212: 0x075F [0x1C] WAIT(45* ticks)
213: 0x0762 [0xBA] SET_ENTITY_POSITION(entity_id=Unnamed NPC (ID: 17335126/0x01088356), pos_x=60.794*, pos_z=-474.778*, pos_y=0.238*, direction=95.8*)
214: 0x076F [0xC5] LOAD_SCHEDULED_TASK_ALT3: Load scheduler 0x801E3130 for entities [Unnamed NPC (ID: 17335126/0x01088356), Unnamed NPC (ID: 17335126/0x01088356)], work=160*, param=12403
215: 0x0780 [0x52] END_LOAD_SCHEDULER: End scheduler "001x" with entities [LocalPlayer, LocalPlayer], work=501*
216: 0x078F [0x45] LOAD_SCHEDULED_TASK: Load scheduler "001y" with entities [LocalPlayer, LocalPlayer], work=[501*, 0*]
217: 0x07A0 [0x1C] WAIT(45* ticks)
218: 0x07A3 [0xBA] SET_ENTITY_POSITION(entity_id=Lilisette (ID: 17335124/0x01088354), pos_x=58.156*, pos_z=-469.107*, pos_y=-0.449*, direction=175.8*)
219: 0x07B0 [0x52] END_LOAD_SCHEDULER: End scheduler "001y" with entities [LocalPlayer, LocalPlayer], work=501*
220: 0x07BF [0x45] LOAD_SCHEDULED_TASK: Load scheduler "001z" with entities [LocalPlayer, LocalPlayer], work=[501*, 0*]
221: 0x07D0 [0x45] LOAD_SCHEDULED_TASK: Load scheduler "goro" with entities [LocalPlayer, LocalPlayer], work=[501*, 0*]
222: 0x07E1 [0x1C] WAIT(80* ticks)
223: 0x07E4 [0xC5] LOAD_SCHEDULED_TASK_ALT3: Load scheduler 0x801E3230 for entities [Cait Sith Ceithir (ID: 17335129/0x01088359), Cait Sith Ceithir (ID: 17335129/0x01088359)], work=160*, param=12403
224: 0x07F5 [0x52] END_LOAD_SCHEDULER: End scheduler "001z" with entities [LocalPlayer, LocalPlayer], work=501*
225: 0x0804 [0x45] LOAD_SCHEDULED_TASK: Load scheduler "0020" with entities [LocalPlayer, LocalPlayer], work=[501*, 0*]
226: 0x0815 [0xC5] LOAD_SCHEDULED_TASK_ALT3: Load scheduler 0x801E316C for entities [Unnamed NPC (ID: 17335126/0x01088356), Unnamed NPC (ID: 17335126/0x01088356)], work=160*, param=26987
227: 0x0826 [0x27] REQ_SET(priority=0x10, entity_id=Unnamed NPC (ID: 17335126/0x01088356), tag_num=0x1D)
228: 0x082D [0x27] REQ_SET(priority=0x10, entity_id=Cait Sith Ceithir (ID: 17335129/0x01088359), tag_num=0x22)
229: 0x0834 [0x1C] WAIT(180* ticks)
230: 0x0837 [0x52] END_LOAD_SCHEDULER: End scheduler "0020" with entities [LocalPlayer, LocalPlayer], work=501*
231: 0x0846 [0x45] LOAD_SCHEDULED_TASK: Load scheduler "0021" with entities [LocalPlayer, LocalPlayer], work=[501*, 0*]
232: 0x0857 [0x1C] WAIT(180* ticks)
233: 0x085A [0x23] WAIT_FOR_DIALOG_INTERACTION
234: 0x085B [0x52] END_LOAD_SCHEDULER: End scheduler "0021" with entities [LocalPlayer, LocalPlayer], work=501*
235: 0x086A [0x45] LOAD_SCHEDULED_TASK: Load scheduler "001t" with entities [LocalPlayer, LocalPlayer], work=[501*, 0*]
236: 0x087B [0x5B] LOAD_EXT_SCHEDULER: Load scheduler "4304" with entities [Lilisette (ID: 17335124/0x01088354), Lilisette (ID: 17335124/0x01088354)], work=2783*
237: 0x088A [0xBA] SET_ENTITY_POSITION(entity_id=Cait Sith Ceithir (ID: 17335129/0x01088359), pos_x=60.980*, pos_z=-470.966*, pos_y=0.145*, direction=95.8*)
238: 0x0897 [0xBA] SET_ENTITY_POSITION(entity_id=LocalPlayer, pos_x=62.709*, pos_z=-469.749*, pos_y=-0.103*, direction=276.0*)
239: 0x08A4 [0x27] REQ_SET(priority=0x10, entity_id=LocalPlayer, tag_num=0x3A)
240: 0x08AB [0x2B] Lilisette (ID: 17335124/0x01088354) [8070*]:
     "Phew... That was a close call. You owe me lunch for that, <Player>."
241: 0x08B2 [0x1C] WAIT(120* ticks)
242: 0x08B5 [0x23] WAIT_FOR_DIALOG_INTERACTION
243: 0x08B6 [0x52] END_LOAD_SCHEDULER: End scheduler "001t" with entities [LocalPlayer, LocalPlayer], work=501*
244: 0x08C5 [0x45] LOAD_SCHEDULED_TASK: Load scheduler "0028" with entities [LocalPlayer, LocalPlayer], work=[501*, 0*]
245: 0x08D6 [0x66] LOAD_EXT_SCHEDULER_MAIN: Load scheduler "sha1" with entities [Portia (ID: 17335125/0x01088355), Portia (ID: 17335125/0x01088355)], work=19*
246: 0x08E5 [0x1C] WAIT(210* ticks)
247: 0x08E8 [0x52] END_LOAD_SCHEDULER: End scheduler "0028" with entities [LocalPlayer, LocalPlayer], work=501*
248: 0x08F7 [0x45] LOAD_SCHEDULED_TASK: Load scheduler "0022" with entities [LocalPlayer, LocalPlayer], work=[501*, 0*]
249: 0x0908 [0x1C] WAIT(180* ticks)
250: 0x090B [0x1A] CALL_SUBROUTINE(address=0x2F80)
251: 0x090E [0x52] END_LOAD_SCHEDULER: End scheduler "0022" with entities [LocalPlayer, LocalPlayer], work=501*
252: 0x091D [0xBA] SET_ENTITY_POSITION(entity_id=LocalPlayer, pos_x=62.589*, pos_z=-470.632*, pos_y=-0.003*, direction=75.8*)
253: 0x092A [0xBA] SET_ENTITY_POSITION(entity_id=Lilisette (ID: 17335124/0x01088354), pos_x=60.982*, pos_z=-469.986*, pos_y=0.071*, direction=282.8*)
254: 0x0937 [0xBA] SET_ENTITY_POSITION(entity_id=Portia (ID: 17335125/0x01088355), pos_x=60.117*, pos_z=-469.460*, pos_y=0.096*, direction=108.7*)
255: 0x0944 [0x59] UPDATE_ENTITY_DATA: Unnamed NPC (ID: 17335126/0x01088356)->Render.Flags0 &= ~0x200000
256: 0x094B [0xBA] SET_ENTITY_POSITION(entity_id=Unnamed NPC (ID: 17335126/0x01088356), pos_x=60.664*, pos_z=-476.310*, pos_y=0.248*, direction=282.8*)
257: 0x0958 [0x27] REQ_SET(priority=0x10, entity_id=Unnamed NPC (ID: 17335126/0x01088356), tag_num=0x1C)
258: 0x095F [0x27] REQ_SET(priority=0x10, entity_id=Cait Sith Ceithir (ID: 17335129/0x01088359), tag_num=0x23)
259: 0x0966 [0x1C] WAIT(30* ticks)
260: 0x0969 [0x4A] LocalPlayer looks at Lilisette (ID: 17335124/0x01088354)
261: 0x0972 [0x4A] Lilisette (ID: 17335124/0x01088354) looks at LocalPlayer
262: 0x097B [0x4A] Portia (ID: 17335125/0x01088355) looks at LocalPlayer
263: 0x0984 [0x4A] Unnamed NPC (ID: 17335126/0x01088356) looks at Lilisette (ID: 17335124/0x01088354)
264: 0x098D [0x6B] STOP_AND_IDLE: Lilisette (ID: 17335124/0x01088354) stops current action and resets to idle (animation="idl0")
265: 0x0996 [0x81] SET_ENTITY_BLINKING(blink_flag=0x00, entity=Unnamed NPC (ID: 17335126/0x01088356))
266: 0x099C [0x7C] Unnamed NPC (ID: 17335126/0x01088356)->Render.Flags2 |= 0x01
267: 0x09A2 [0x5B] LOAD_EXT_SCHEDULER: Load scheduler "f000" with entities [Lilisette (ID: 17335124/0x01088354), Lilisette (ID: 17335124/0x01088354)], work=2135*
268: 0x09B1 [0x81] SET_ENTITY_BLINKING(blink_flag=0x00, entity=Lilisette (ID: 17335124/0x01088354))
269: 0x09B7 [0x7C] Lilisette (ID: 17335124/0x01088354)->Render.Flags2 |= 0x00
270: 0x09BD [0x1C] WAIT(30* ticks)
271: 0x09C0 [0x27] REQ_SET(priority=0x10, entity_id=LocalPlayer, tag_num=0x04)
272: 0x09C7 [0x1C] WAIT(120* ticks)
273: 0x09CA [0x45] LOAD_SCHEDULED_TASK: Load scheduler "0007" with entities [LocalPlayer, LocalPlayer], work=[501*, 0*]
274: 0x09DB [0x5B] LOAD_EXT_SCHEDULER: Load scheduler "4305" with entities [Unnamed NPC (ID: 17335126/0x01088356), Unnamed NPC (ID: 17335126/0x01088356)], work=2519*
275: 0x09EA [0x1A] CALL_SUBROUTINE(address=0x2F5F)
276: 0x09ED [0x1C] WAIT(120* ticks)
277: 0x09F0 [0x27] REQ_SET(priority=0x10, entity_id=LocalPlayer, tag_num=0x05)
278: 0x09F7 [0x1C] WAIT(120* ticks)
279: 0x09FA [0x52] END_LOAD_SCHEDULER: End scheduler "0007" with entities [LocalPlayer, LocalPlayer], work=501*
280: 0x0A09 [0x45] LOAD_SCHEDULED_TASK: Load scheduler "0006" with entities [LocalPlayer, LocalPlayer], work=[501*, 0*]
281: 0x0A1A [0x5C] MUSIC_CONTROL: Set Idle (Day) music to song 41*, volume=100*
282: 0x0A20 [0x5C] MUSIC_CONTROL: Set Idle (Night) music to song 41*, volume=100*
283: 0x0A26 [0x4A] LocalPlayer looks at Unnamed NPC (ID: 17335126/0x01088356)
284: 0x0A2F [0x1C] WAIT(60* ticks)
285: 0x0A32 [0x4A] Lilisette (ID: 17335124/0x01088354) looks at Unnamed NPC (ID: 17335126/0x01088356)
286: 0x0A3B [0x1C] WAIT(30* ticks)
287: 0x0A3E [0x4A] Portia (ID: 17335125/0x01088355) looks at Unnamed NPC (ID: 17335126/0x01088356)
288: 0x0A47 [0x1C] WAIT(60* ticks)
289: 0x0A4A [0x2B] Unnamed NPC (ID: 17335126/0x01088356) [8071*]:
     "Meow-ow-ow-ow-ow!"
290: 0x0A51 [0x23] WAIT_FOR_DIALOG_INTERACTION
291: 0x0A52 [0x52] END_LOAD_SCHEDULER: End scheduler "0006" with entities [LocalPlayer, LocalPlayer], work=501*
292: 0x0A61 [0x45] LOAD_SCHEDULED_TASK: Load scheduler "0008" with entities [LocalPlayer, LocalPlayer], work=[501*, 0*]
293: 0x0A72 [0x2B] Lilisette (ID: 17335124/0x01088354) [8072*]:
     "Ah! You!"
294: 0x0A79 [0x1C] WAIT(30* ticks)
295: 0x0A7C [0x5B] LOAD_EXT_SCHEDULER: Load scheduler "fi01" with entities [Lilisette (ID: 17335124/0x01088354), Lilisette (ID: 17335124/0x01088354)], work=2135*
296: 0x0A8B [0x1C] WAIT(60* ticks)
297: 0x0A8E [0x5B] LOAD_EXT_SCHEDULER: Load scheduler "fi00" with entities [Lilisette (ID: 17335124/0x01088354), Lilisette (ID: 17335124/0x01088354)], work=2135*
298: 0x0A9D [0x23] WAIT_FOR_DIALOG_INTERACTION
299: 0x0A9E [0xBA] SET_ENTITY_POSITION(entity_id=Unnamed NPC (ID: 17335126/0x01088356), pos_x=60.448*, pos_z=-474.303*, pos_y=0.264*, direction=272.5*)
300: 0x0AAB [0x52] END_LOAD_SCHEDULER: End scheduler "0008" with entities [LocalPlayer, LocalPlayer], work=501*
301: 0x0ABA [0x45] LOAD_SCHEDULED_TASK: Load scheduler "0009" with entities [LocalPlayer, LocalPlayer], work=[501*, 0*]
302: 0x0ACB [0x5B] LOAD_EXT_SCHEDULER: Load scheduler "f000" with entities [Lilisette (ID: 17335124/0x01088354), Lilisette (ID: 17335124/0x01088354)], work=2135*
303: 0x0ADA [0x5B] LOAD_EXT_SCHEDULER: Load scheduler "43s6" with entities [Unnamed NPC (ID: 17335126/0x01088356), Unnamed NPC (ID: 17335126/0x01088356)], work=2519*
304: 0x0AE9 [0xC5] LOAD_SCHEDULED_TASK_ALT3: Load scheduler 0x801E3330 for entities [Unnamed NPC (ID: 17335126/0x01088356), Unnamed NPC (ID: 17335126/0x01088356)], work=161*, param=12403
305: 0x0AFA [0x1C] WAIT(40* ticks)
306: 0x0AFD [0x52] END_LOAD_SCHEDULER: End scheduler "0009" with entities [LocalPlayer, LocalPlayer], work=501*
307: 0x0B0C [0x45] LOAD_SCHEDULED_TASK: Load scheduler "0004" with entities [LocalPlayer, LocalPlayer], work=[501*, 0*]
308: 0x0B1D [0x1C] WAIT(30* ticks)
309: 0x0B20 [0x52] END_LOAD_SCHEDULER: End scheduler "0004" with entities [LocalPlayer, LocalPlayer], work=501*
310: 0x0B2F [0x45] LOAD_SCHEDULED_TASK: Load scheduler "000a" with entities [LocalPlayer, LocalPlayer], work=[501*, 0*]
311: 0x0B40 [0x2B] Unnamed NPC (ID: 17335126/0x01088356) [8073*]:
     "The prancing prima donna and her posse! Searched for you for the longest time, I have! On your elusive trail!"
312: 0x0B47 [0x1C] WAIT(90* ticks)
313: 0x0B4A [0x23] WAIT_FOR_DIALOG_INTERACTION
314: 0x0B4B [0x27] REQ_SET(priority=0x10, entity_id=Unnamed NPC (ID: 17334989/0x010882CD), tag_num=0x10)
315: 0x0B52 [0x2B] Unnamed NPC (ID: 17335126/0x01088356) [8074*]:
     "I have a request of utmost urgency. Need you to do--"
316: 0x0B59 [0x23] WAIT_FOR_DIALOG_INTERACTION
317: 0x0B5A [0xBA] SET_ENTITY_POSITION(entity_id=Lilisette (ID: 17335124/0x01088354), pos_x=60.448*, pos_z=-474.303*, pos_y=0.264*, direction=272.5*)
318: 0x0B67 [0x5B] LOAD_EXT_SCHEDULER: Load scheduler "43s7" with entities [Unnamed NPC (ID: 17335126/0x01088356), Unnamed NPC (ID: 17335126/0x01088356)], work=2520*
319: 0x0B76 [0xC5] LOAD_SCHEDULED_TASK_ALT3: Load scheduler 0x801E3430 for entities [Unnamed NPC (ID: 17335126/0x01088356), Unnamed NPC (ID: 17335126/0x01088356)], work=161*, param=12403
320: 0x0B87 [0x52] END_LOAD_SCHEDULER: End scheduler "000a" with entities [LocalPlayer, LocalPlayer], work=501*
321: 0x0B96 [0x45] LOAD_SCHEDULED_TASK: Load scheduler "000d" with entities [LocalPlayer, LocalPlayer], work=[501*, 0*]
322: 0x0BA7 [0x1C] WAIT(3* ticks)
323: 0x0BAA [0x5B] LOAD_EXT_SCHEDULER: Load scheduler "fi01" with entities [Lilisette (ID: 17335124/0x01088354), Lilisette (ID: 17335124/0x01088354)], work=2135*
324: 0x0BB9 [0x5B] LOAD_EXT_SCHEDULER: Load scheduler "43s7" with entities [Lilisette (ID: 17335124/0x01088354), Lilisette (ID: 17335124/0x01088354)], work=2783*
325: 0x0BC8 [0xC5] LOAD_SCHEDULED_TASK_ALT3: Load scheduler 0x801E3230 for entities [Lilisette (ID: 17335124/0x01088354), Lilisette (ID: 17335124/0x01088354)], work=165*, param=12403
326: 0x0BD9 [0x1C] WAIT(2* ticks)
327: 0x0BDC [0x27] REQ_SET(priority=0x10, entity_id=Unnamed NPC (ID: 17334989/0x010882CD), tag_num=0x11)
328: 0x0BE3 [0x2B] Lilisette (ID: 17335124/0x01088354) [8075*]:
     "Hold your chocobos, there! Before I let you say any more, you'll have to answer my question first."
329: 0x0BEA [0x1C] WAIT(150* ticks)
330: 0x0BED [0x23] WAIT_FOR_DIALOG_INTERACTION
331: 0x0BEE [0x52] END_LOAD_SCHEDULER: End scheduler "000d" with entities [LocalPlayer, LocalPlayer], work=501*
332: 0x0BFD [0x45] LOAD_SCHEDULED_TASK: Load scheduler "000b" with entities [LocalPlayer, LocalPlayer], work=[501*, 0*]
333: 0x0C0E [0x5B] LOAD_EXT_SCHEDULER: Load scheduler "fi00" with entities [Lilisette (ID: 17335124/0x01088354), Lilisette (ID: 17335124/0x01088354)], work=2135*
334: 0x0C1D [0x2B] Unnamed NPC (ID: 17335126/0x01088356) [8076*]:
     "<Splutter> Wh-what!?"
335: 0x0C24 [0x23] WAIT_FOR_DIALOG_INTERACTION
336: 0x0C25 [0x52] END_LOAD_SCHEDULER: End scheduler "000b" with entities [LocalPlayer, LocalPlayer], work=501*
337: 0x0C34 [0x45] LOAD_SCHEDULED_TASK: Load scheduler "000c" with entities [LocalPlayer, LocalPlayer], work=[501*, 0*]
338: 0x0C45 [0x7C] Unnamed NPC (ID: 17335126/0x01088356)->Render.Flags2 |= 0x00
339: 0x0C4B [0x5B] LOAD_EXT_SCHEDULER: Load scheduler "fi01" with entities [Lilisette (ID: 17335124/0x01088354), Lilisette (ID: 17335124/0x01088354)], work=2135*
340: 0x0C5A [0x2B] Lilisette (ID: 17335124/0x01088354) [8077*]:
     "My fellow dance troupe members--Tanja, Raina, and Judith--they all seem to have forgotten who I am! They're acting as though we never met!"
341: 0x0C61 [0x23] WAIT_FOR_DIALOG_INTERACTION
342: 0x0C62 [0x81] SET_ENTITY_BLINKING(blink_flag=0x00, entity=Lilisette (ID: 17335124/0x01088354))
343: 0x0C68 [0x7C] Lilisette (ID: 17335124/0x01088354)->Render.Flags2 |= 0x00
344: 0x0C6E [0x27] REQ_SET(priority=0x10, entity_id=Lilisette (ID: 17335124/0x01088354), tag_num=0x1A)
345: 0x0C75 [0x52] END_LOAD_SCHEDULER: End scheduler "000c" with entities [LocalPlayer, LocalPlayer], work=501*
346: 0x0C84 [0x45] LOAD_SCHEDULED_TASK: Load scheduler "000e" with entities [LocalPlayer, LocalPlayer], work=[501*, 0*]
347: 0x0C95 [0x5B] LOAD_EXT_SCHEDULER: Load scheduler "fi00" with entities [Lilisette (ID: 17335124/0x01088354), Lilisette (ID: 17335124/0x01088354)], work=2135*
348: 0x0CA4 [0x2B] Unnamed NPC (ID: 17335126/0x01088356) [8078*]:
     "!?"
349: 0x0CAB [0x23] WAIT_FOR_DIALOG_INTERACTION
350: 0x0CAC [0x7C] Unnamed NPC (ID: 17335126/0x01088356)->Render.Flags2 |= 0x01
351: 0x0CB2 [0x81] SET_ENTITY_BLINKING(blink_flag=0x01, entity=Lilisette (ID: 17335124/0x01088354))
352: 0x0CB8 [0x27] REQ_SET(priority=0x10, entity_id=Lilisette (ID: 17335124/0x01088354), tag_num=0x19)
353: 0x0CBF [0x52] END_LOAD_SCHEDULER: End scheduler "000e" with entities [LocalPlayer, LocalPlayer], work=501*
354: 0x0CCE [0x45] LOAD_SCHEDULED_TASK: Load scheduler "000f" with entities [LocalPlayer, LocalPlayer], work=[501*, 0*]
355: 0x0CDF [0x5B] LOAD_EXT_SCHEDULER: Load scheduler "fi01" with entities [Lilisette (ID: 17335124/0x01088354), Lilisette (ID: 17335124/0x01088354)], work=2135*
356: 0x0CEE [0x5B] LOAD_EXT_SCHEDULER: Load scheduler "4308" with entities [Lilisette (ID: 17335124/0x01088354), Lilisette (ID: 17335124/0x01088354)], work=2783*
357: 0x0CFD [0x2B] Lilisette (ID: 17335124/0x01088354) [8079*]:
     "At La Vaule, and then the Battle of Jeuno... We've been toiling away, doing exactly as you tell us in order to reduce the tears of the world."
358: 0x0D04 [0x1C] WAIT(90* ticks)
359: 0x0D07 [0x23] WAIT_FOR_DIALOG_INTERACTION
360: 0x0D08 [0x81] SET_ENTITY_BLINKING(blink_flag=0x00, entity=Lilisette (ID: 17335124/0x01088354))
361: 0x0D0E [0xBA] SET_ENTITY_POSITION(entity_id=Lilisette (ID: 17335124/0x01088354), pos_x=60.485*, pos_z=-473.664*, pos_y=0.262*, direction=272.5*)
362: 0x0D1B [0xBA] SET_ENTITY_POSITION(entity_id=Unnamed NPC (ID: 17335126/0x01088356), pos_x=60.664*, pos_z=-476.310*, pos_y=0.248*, direction=282.8*)
363: 0x0D28 [0x52] END_LOAD_SCHEDULER: End scheduler "000f" with entities [LocalPlayer, LocalPlayer], work=501*
364: 0x0D37 [0x45] LOAD_SCHEDULED_TASK: Load scheduler "000g" with entities [LocalPlayer, LocalPlayer], work=[501*, 0*]
365: 0x0D48 [0x5B] LOAD_EXT_SCHEDULER: Load scheduler "4309" with entities [Lilisette (ID: 17335124/0x01088354), Lilisette (ID: 17335124/0x01088354)], work=2783*
366: 0x0D57 [0x6B] STOP_AND_IDLE: Unnamed NPC (ID: 17335126/0x01088356) stops current action and resets to idle (animation="idl0")
367: 0x0D60 [0x2B] Lilisette (ID: 17335124/0x01088354) [8080*]:
     "So why is something like this happening? What's the meaning of all this?"
368: 0x0D67 [0x1C] WAIT(240* ticks)
369: 0x0D6A [0x23] WAIT_FOR_DIALOG_INTERACTION
370: 0x0D6B [0xBA] SET_ENTITY_POSITION(entity_id=Unnamed NPC (ID: 17335126/0x01088356), pos_x=60.448*, pos_z=-474.303*, pos_y=0.264*, direction=272.5*)
371: 0x0D78 [0x27] REQ_SET(priority=0x10, entity_id=Unnamed NPC (ID: 17335126/0x01088356), tag_num=0x1C)
372: 0x0D7F [0x52] END_LOAD_SCHEDULER: End scheduler "000g" with entities [LocalPlayer, LocalPlayer], work=501*
373: 0x0D8E [0x45] LOAD_SCHEDULED_TASK: Load scheduler "blof" with entities [LocalPlayer, LocalPlayer], work=[501*, 0*]
374: 0x0D9F [0x45] LOAD_SCHEDULED_TASK: Load scheduler "000h" with entities [LocalPlayer, LocalPlayer], work=[501*, 0*]
375: 0x0DB0 [0x5B] LOAD_EXT_SCHEDULER: Load scheduler "fi00" with entities [Lilisette (ID: 17335124/0x01088354), Lilisette (ID: 17335124/0x01088354)], work=2135*
376: 0x0DBF [0x5D] SET_MUSIC_VOLUME(volume=0*, fade_time=300*)
377: 0x0DC4 [0x2B] Unnamed NPC (ID: 17335126/0x01088356) [8081*]:
     "You say you've been...forgotten? Your existence wiped from their memories?"
378: 0x0DCB [0x23] WAIT_FOR_DIALOG_INTERACTION
379: 0x0DCC [0x52] END_LOAD_SCHEDULER: End scheduler "000h" with entities [LocalPlayer, LocalPlayer], work=501*
380: 0x0DDB [0x45] LOAD_SCHEDULED_TASK: Load scheduler "000i" with entities [LocalPlayer, LocalPlayer], work=[501*, 0*]
381: 0x0DEC [0x5B] LOAD_EXT_SCHEDULER: Load scheduler "fi01" with entities [Lilisette (ID: 17335124/0x01088354), Lilisette (ID: 17335124/0x01088354)], work=2135*
382: 0x0DFB [0x2B] Lilisette (ID: 17335124/0x01088354) [8082*]:
     "That's exactly what I'm saying!"
383: 0x0E02 [0x23] WAIT_FOR_DIALOG_INTERACTION
384: 0x0E03 [0x7C] Unnamed NPC (ID: 17335126/0x01088356)->Render.Flags2 |= 0x00
385: 0x0E09 [0x5B] LOAD_EXT_SCHEDULER: Load scheduler "4308" with entities [Unnamed NPC (ID: 17335126/0x01088356), Unnamed NPC (ID: 17335126/0x01088356)], work=2520*
386: 0x0E18 [0x1C] WAIT(30* ticks)
387: 0x0E1B [0x52] END_LOAD_SCHEDULER: End scheduler "000i" with entities [LocalPlayer, LocalPlayer], work=501*
388: 0x0E2A [0x45] LOAD_SCHEDULED_TASK: Load scheduler "000j" with entities [LocalPlayer, LocalPlayer], work=[501*, 0*]
389: 0x0E3B [0x5B] LOAD_EXT_SCHEDULER: Load scheduler "f000" with entities [Lilisette (ID: 17335124/0x01088354), Lilisette (ID: 17335124/0x01088354)], work=2135*
390: 0x0E4A [0x2B] Unnamed NPC (ID: 17335126/0x01088356) [8083*]:
     "Hrmmm... Hrmmmmmm..."
391: 0x0E51 [0x23] WAIT_FOR_DIALOG_INTERACTION
392: 0x0E52 [0x27] REQ_SET(priority=0x10, entity_id=Unnamed NPC (ID: 17334989/0x010882CD), tag_num=0x10)
393: 0x0E59 [0xBA] SET_ENTITY_POSITION(entity_id=Lilisette (ID: 17335124/0x01088354), pos_x=60.662*, pos_z=-472.829*, pos_y=0.248*, direction=75.8*)
394: 0x0E66 [0x52] END_LOAD_SCHEDULER: End scheduler "000j" with entities [LocalPlayer, LocalPlayer], work=501*
395: 0x0E75 [0x45] LOAD_SCHEDULED_TASK: Load scheduler "001e" with entities [LocalPlayer, LocalPlayer], work=[501*, 0*]
396: 0x0E86 [0x1C] WAIT(15* ticks)
397: 0x0E89 [0x6B] STOP_AND_IDLE: Lilisette (ID: 17335124/0x01088354) stops current action and resets to idle (animation="idl0")
398: 0x0E92 [0x5B] LOAD_EXT_SCHEDULER: Load scheduler "4309" with entities [Unnamed NPC (ID: 17335126/0x01088356), Unnamed NPC (ID: 17335126/0x01088356)], work=2520*
399: 0x0EA1 [0x1C] WAIT(160* ticks)
400: 0x0EA4 [0x52] END_LOAD_SCHEDULER: End scheduler "001e" with entities [LocalPlayer, LocalPlayer], work=501*
401: 0x0EB3 [0x45] LOAD_SCHEDULED_TASK: Load scheduler "000k" with entities [LocalPlayer, LocalPlayer], work=[501*, 0*]
402: 0x0EC4 [0x5B] LOAD_EXT_SCHEDULER: Load scheduler "uwa1" with entities [Lilisette (ID: 17335124/0x01088354), Lilisette (ID: 17335124/0x01088354)], work=2249*
403: 0x0ED3 [0x27] REQ_SET(priority=0x10, entity_id=Unnamed NPC (ID: 17334989/0x010882CD), tag_num=0x11)
404: 0x0EDA [0x2B] Unnamed NPC (ID: 17335126/0x01088356) [8084*]:
     "Nyaaah!"
405: 0x0EE1 [0x23] WAIT_FOR_DIALOG_INTERACTION
406: 0x0EE2 [0x6E] Portia (ID: 17335125/0x01088355) uses emote 21*
407: 0x0EE9 [0x99] Wait for Portia (ID: 17335125/0x01088355) animation to complete
408: 0x0EEE [0x6E] LocalPlayer uses emote 21*
409: 0x0EF5 [0x99] Wait for LocalPlayer animation to complete
410: 0x0EFA [0x1C] WAIT(180* ticks)
411: 0x0EFD [0x52] END_LOAD_SCHEDULER: End scheduler "000k" with entities [LocalPlayer, LocalPlayer], work=501*
412: 0x0F0C [0x45] LOAD_SCHEDULED_TASK: Load scheduler "blof" with entities [LocalPlayer, LocalPlayer], work=[501*, 0*]
413: 0x0F1D [0x45] LOAD_SCHEDULED_TASK: Load scheduler "001h" with entities [LocalPlayer, LocalPlayer], work=[501*, 0*]
414: 0x0F2E [0x2B] Lilisette (ID: 17335124/0x01088354) [8085*]:
     "!!!"
415: 0x0F35 [0x1C] WAIT(90* ticks)
416: 0x0F38 [0x5C] MUSIC_CONTROL: Set Idle (Day) music to song 127*
417: 0x0F3C [0x5C] MUSIC_CONTROL: Set Idle (Night) music to song 127*
418: 0x0F40 [0x9A] WAIT_MUSIC_SERVER()
419: 0x0F41 [0x5D] SET_MUSIC_VOLUME(volume=100*, fade_time=120*)
420: 0x0F46 [0x1C] WAIT(30* ticks)
421: 0x0F49 [0x52] END_LOAD_SCHEDULER: End scheduler "001h" with entities [LocalPlayer, LocalPlayer], work=501*
422: 0x0F58 [0x45] LOAD_SCHEDULED_TASK: Load scheduler "000l" with entities [LocalPlayer, LocalPlayer], work=[501*, 0*]
423: 0x0F69 [0xBA] SET_ENTITY_POSITION(entity_id=Lilisette (ID: 17335124/0x01088354), pos_x=60.700*, pos_z=-472.193*, pos_y=0.245*, direction=75.8*)
424: 0x0F76 [0x7C] Unnamed NPC (ID: 17335126/0x01088356)->Render.Flags2 |= 0x01
425: 0x0F7C [0x5B] LOAD_EXT_SCHEDULER: Load scheduler "4310" with entities [Unnamed NPC (ID: 17335126/0x01088356), Unnamed NPC (ID: 17335126/0x01088356)], work=2520*
426: 0x0F8B [0x2B] Unnamed NPC (ID: 17335126/0x01088356) [8086*]:
     "Shock, horror! The situation we had feared!"
427: 0x0F92 [0x1C] WAIT(60* ticks)
428: 0x0F95 [0x23] WAIT_FOR_DIALOG_INTERACTION
429: 0x0F96 [0x5B] LOAD_EXT_SCHEDULER: Load scheduler "fc00" with entities [Lilisette (ID: 17335124/0x01088354), Lilisette (ID: 17335124/0x01088354)], work=2135*
