# 17335116

## Common Data

| Field            | Value                            |
|------------------|----------------------------------|
| Zone             | Beaucedine Glacier [S] (ID: 136) |
| Block Size       | 34840 bytes                      |
| Total Events     | 10                               |
| References Count | 687                              |

## List of Events

| Event ID              | Entrypoint   |   Size |   Instructions |
|-----------------------|--------------|--------|----------------|
| [65535](#event-65535) | 0x0000       |      1 |              1 |
| [12](#event-12)       | 0x0001       |   3441 |            433 |
| [11](#event-11)       | 0x0D72       |   1426 |            169 |
| [8](#event-8)         | 0x1304       |   2121 |            254 |
| [9](#event-9)         | 0x1B4D       |   1565 |            195 |
| [10](#event-10)       | 0x216A       |   1705 |            208 |
| [14](#event-14)       | 0x2813       |   6080 |            637 |
| [20](#event-20)       | 0x3FD3       |   1570 |            183 |
| [21](#event-21)       | 0x45F5       |    556 |             68 |
| [18](#event-18)       | 0x4821       |  13569 |           1353 |

## DAT References (imed_data)

|   Index | Hex Value   |   Dec Value |
|---------|-------------|-------------|
|       0 | 0x0001      |           1 |
|       1 | 0x1EEE      |        7918 |
|       2 | 0x0000      |           0 |
|       3 | 0x0078      |         120 |
|       4 | 0x00C8      |         200 |
|       5 | 0x001B      |          27 |
|       6 | 0xFFFB0B51  |  4294642513 |
|       7 | 0x2494D     |      149837 |
|       8 | 0xFFFE78C3  |  4294867139 |
|       9 | 0x034B      |         843 |
|      10 | 0xFFFB0394  |  4294640532 |
|      11 | 0x24DA4     |      150948 |
|      12 | 0xFFFE79B6  |  4294867382 |
|      13 | 0x01AB      |         427 |
|      14 | 0xFFFB0981  |  4294642049 |
|      15 | 0x250DF     |      151775 |
|      16 | 0xFFFE7A01  |  4294867457 |
|      17 | 0x0246      |         582 |
|      18 | 0xFFFB14F8  |  4294644984 |
|      19 | 0x1FAC9     |      129737 |
|      20 | 0xFFFE7A7D  |  4294867581 |
|      21 | 0x0747      |        1863 |
|      22 | 0x0029      |          41 |
|      23 | 0x0192      |         402 |
|      24 | 0x1F1C      |        7964 |
|      25 | 0x1F1D      |        7965 |
|      26 | 0x001E      |          30 |
|      27 | 0x1F1E      |        7966 |
|      28 | 0x1F1F      |        7967 |
|      29 | 0x0856      |        2134 |
|      30 | 0x1F20      |        7968 |
|      31 | 0x0A1B      |        2587 |
|      32 | 0x1F21      |        7969 |
|      33 | 0x09E3      |        2531 |
|      34 | 0x3F91      |       16273 |
|      35 | 0x1F22      |        7970 |
|      36 | 0x005A      |          90 |
|      37 | 0x0013      |          19 |
|      38 | 0x1F23      |        7971 |
|      39 | 0x1F24      |        7972 |
|      40 | 0x1F25      |        7973 |
|      41 | 0x1F26      |        7974 |
|      42 | 0x1F27      |        7975 |
|      43 | 0x1F28      |        7976 |
|      44 | 0x1F29      |        7977 |
|      45 | 0xFFFB32C1  |  4294652609 |
|      46 | 0x204DA     |      132314 |
|      47 | 0xFFFE7A83  |  4294867587 |
|      48 | 0x0720      |        1824 |
|      49 | 0x00A3      |         163 |
|      50 | 0x0368      |         872 |
|      51 | 0x00E0      |         224 |
|      52 | 0x0004      |           4 |
|      53 | 0x1F2A      |        7978 |
|      54 | 0x0002      |           2 |
|      55 | 0x051F      |        1311 |
|      56 | 0x1F2D      |        7981 |
|      57 | 0x0855      |        2133 |
|      58 | 0x1F30      |        7984 |
|      59 | 0x1F31      |        7985 |
|      60 | 0x0003      |           3 |
|      61 | 0x1F2F      |        7983 |
|      62 | 0x0735      |        1845 |
|      63 | 0x0F15      |        3861 |
|      64 | 0x003C      |          60 |
|      65 | 0x005E      |          94 |
|      66 | 0x002D      |          45 |
|      67 | 0xFFFB2FF8  |  4294651896 |
|      68 | 0x209ED     |      133613 |
|      69 | 0xFFFE7B1B  |  4294867739 |
|      70 | 0x04CB      |        1227 |
|      71 | 0xFFFB2D47  |  4294651207 |
|      72 | 0x203DB     |      132059 |
|      73 | 0xFFFE7AC9  |  4294867657 |
|      74 | 0x09E9      |        2537 |
|      75 | 0x000F      |          15 |
|      76 | 0x00A5      |         165 |
|      77 | 0x00A1      |         161 |
|      78 | 0x09AA      |        2474 |
|      79 | 0x00D2      |         210 |
|      80 | 0x1F32      |        7986 |
|      81 | 0x1F33      |        7987 |
|      82 | 0x1F34      |        7988 |
|      83 | 0x0096      |         150 |
|      84 | 0x00A7      |         167 |
|      85 | 0x0468      |        1128 |
|      86 | 0x1F35      |        7989 |
|      87 | 0x1F36      |        7990 |
|      88 | 0x0007      |           7 |
|      89 | 0x1F2B      |        7979 |
|      90 | 0x0EE8      |        3816 |
|      91 | 0x1F2C      |        7980 |
|      92 | 0x433DF     |      275423 |
|      93 | 0xFFFF9A92  |  4294941330 |
|      94 | 0x017D      |         381 |
|      95 | 0x0A6B      |        2667 |
|      96 | 0x43C19     |      277529 |
|      97 | 0xFFFF9905  |  4294940933 |
|      98 | 0x022E      |         558 |
|      99 | 0x0987      |        2439 |
|     100 | 0x4360E     |      275982 |
|     101 | 0xFFFF9385  |  4294939525 |
|     102 | 0x017A      |         378 |
|     103 | 0x09ED      |        2541 |
|     104 | 0x405BF     |      263615 |
|     105 | 0xFFFFD9A4  |  4294957476 |
|     106 | 0xFFFFB1E0  |  4294947296 |
|     107 | 0x0577      |        1399 |
|     108 | 0x1F0F      |        7951 |
|     109 | 0x1F10      |        7952 |
|     110 | 0x1F11      |        7953 |
|     111 | 0x1F12      |        7954 |
|     112 | 0x1F13      |        7955 |
|     113 | 0x1F15      |        7957 |
|     114 | 0x402C2     |      262850 |
|     115 | 0xFFFFD7A9  |  4294956969 |
|     116 | 0xFFFFAD29  |  4294946089 |
|     117 | 0x05E6      |        1510 |
|     118 | 0x406C4     |      263876 |
|     119 | 0xFFFFDB59  |  4294957913 |
|     120 | 0xFFFFAF24  |  4294946596 |
|     121 | 0x054A      |        1354 |
|     122 | 0x1F16      |        7958 |
|     123 | 0x40721     |      263969 |
|     124 | 0xFFFFCAD5  |  4294953685 |
|     125 | 0x0B3D      |        2877 |
|     126 | 0x0184      |         388 |
|     127 | 0x1F17      |        7959 |
|     128 | 0x0857      |        2135 |
|     129 | 0x1F19      |        7961 |
|     130 | 0x085B      |        2139 |
|     131 | 0x1F18      |        7960 |
|     132 | 0xFFFFA8C2  |  4294944962 |
|     133 | 0xFFFF1408  |  4294906888 |
|     134 | 0xFFFF14A7  |  4294907047 |
|     135 | 0x0CDE      |        3294 |
|     136 | 0xFFFFA408  |  4294943752 |
|     137 | 0xFFFF0D9F  |  4294905247 |
|     138 | 0x0DA9      |        3497 |
|     139 | 0xFFFF9F80  |  4294942592 |
|     140 | 0xFFFF163C  |  4294907452 |
|     141 | 0x0161      |         353 |
|     142 | 0xFFFFB28F  |  4294947471 |
|     143 | 0xFFFF562D  |  4294923821 |
|     144 | 0xFFFF30C6  |  4294914246 |
|     145 | 0x0BF0      |        3056 |
|     146 | 0x1EEF      |        7919 |
|     147 | 0x1EF0      |        7920 |
|     148 | 0x1EF1      |        7921 |
|     149 | 0x0854      |        2132 |
|     150 | 0x1EF2      |        7922 |
|     151 | 0x1EF3      |        7923 |
|     152 | 0x1EF4      |        7924 |
|     153 | 0x1EF5      |        7925 |
|     154 | 0x0015      |          21 |
|     155 | 0x1EF6      |        7926 |
|     156 | 0x000C      |          12 |
|     157 | 0x1EF7      |        7927 |
|     158 | 0x0005      |           5 |
|     159 | 0x0006      |           6 |
|     160 | 0x0008      |           8 |
|     161 | 0x0009      |           9 |
|     162 | 0x1EFB      |        7931 |
|     163 | 0xFFFFA74D  |  4294944589 |
|     164 | 0xFFFF1284  |  4294906500 |
|     165 | 0xFFFF14A6  |  4294907046 |
|     166 | 0x0A1A      |        2586 |
|     167 | 0x03C1      |         961 |
|     168 | 0x0584      |        1412 |
|     169 | 0x1EF8      |        7928 |
|     170 | 0x1EFA      |        7930 |
|     171 | 0x1EF9      |        7929 |
|     172 | 0x1EFC      |        7932 |
|     173 | 0x1EFD      |        7933 |
|     174 | 0x1EFE      |        7934 |
|     175 | 0x1EFF      |        7935 |
|     176 | 0x1F00      |        7936 |
|     177 | 0x1F01      |        7937 |
|     178 | 0xFFFFAF41  |  4294946625 |
|     179 | 0xFFFF2DC1  |  4294913473 |
|     180 | 0xFFFF1E05  |  4294909445 |
|     181 | 0x1F02      |        7938 |
|     182 | 0x0050      |          80 |
|     183 | 0x1F04      |        7940 |
|     184 | 0x1F03      |        7939 |
|     185 | 0x1F05      |        7941 |
|     186 | 0x1F06      |        7942 |
|     187 | 0x1F07      |        7943 |
|     188 | 0x1F08      |        7944 |
|     189 | 0x1F09      |        7945 |
|     190 | 0x1F0A      |        7946 |
|     191 | 0x1F0B      |        7947 |
|     192 | 0x1F0C      |        7948 |
|     193 | 0x1F0E      |        7950 |
|     194 | 0x1F0D      |        7949 |
|     195 | 0xD5F9      |       54777 |
|     196 | 0xFFFB1761  |  4294645601 |
|     197 | 0x02A1      |         673 |
|     198 | 0x0512      |        1298 |
|     199 | 0xCF38      |       53048 |
|     200 | 0xFFFB134B  |  4294644555 |
|     201 | 0x01F3      |         499 |
|     202 | 0x04A5      |        1189 |
|     203 | 0xCCC9      |       52425 |
|     204 | 0xFFFB1B19  |  4294646553 |
|     205 | 0x01B4      |         436 |
|     206 | 0x0506      |        1286 |
|     207 | 0xC60C      |       50700 |
|     208 | 0xFFFAF6F0  |  4294637296 |
|     209 | 0xFFFFFF7D  |  4294967165 |
|     210 | 0x0D0C      |        3340 |
|     211 | 0xFFFF2F36  |  4294913846 |
|     212 | 0xC80F      |       51215 |
|     213 | 0xFFFAFD84  |  4294638980 |
|     214 | 0x005F      |          95 |
|     215 | 0x00C4      |         196 |
|     216 | 0x000A      |          10 |
|     217 | 0x0193      |         403 |
|     218 | 0x1FC4      |        8132 |
|     219 | 0x1FC5      |        8133 |
|     220 | 0x1FC6      |        8134 |
|     221 | 0x1FC7      |        8135 |
|     222 | 0x1FC8      |        8136 |
|     223 | 0x0585      |        1413 |
|     224 | 0x00C5      |         197 |
|     225 | 0xC517      |       50455 |
|     226 | 0xFFFB07F1  |  4294641649 |
|     227 | 0x00ED      |         237 |
|     228 | 0x0327      |         807 |
|     229 | 0x1FC9      |        8137 |
|     230 | 0x1FCA      |        8138 |
|     231 | 0x1FCB      |        8139 |
|     232 | 0x1FCC      |        8140 |
|     233 | 0x1FCD      |        8141 |
|     234 | 0x1FCE      |        8142 |
|     235 | 0x1FCF      |        8143 |
|     236 | 0x051E      |        1310 |
|     237 | 0x1FD0      |        8144 |
|     238 | 0x00FF      |         255 |
|     239 | 0x5AE02     |      372226 |
|     240 | 0xFFFC9644  |  4294743620 |
|     241 | 0x2417      |        9239 |
|     242 | 0x05FA      |        1530 |
|     243 | 0x59FE4     |      368612 |
|     244 | 0xFFFC8753  |  4294739795 |
|     245 | 0x2279      |        8825 |
|     246 | 0x0E08      |        3592 |
|     247 | 0x00B4      |         180 |
|     248 | 0x0098      |         152 |
|     249 | 0x012C      |         300 |
|     250 | 0x007F      |         127 |
|     251 | 0x0028      |          40 |
|     252 | 0x0099      |         153 |
|     253 | 0x00D7      |         215 |
|     254 | 0x1FD1      |        8145 |
|     255 | 0x00B6      |         182 |
|     256 | 0xFFF99F71  |  4294549361 |
|     257 | 0xFFFCBB88  |  4294753160 |
|     258 | 0x4E1F      |       19999 |
|     259 | 0x0F08      |        3848 |
|     260 | 0xFFF997FF  |  4294547455 |
|     261 | 0xFFFCCD8F  |  4294757775 |
|     262 | 0x0B7F      |        2943 |
|     263 | 0x017B      |         379 |
|     264 | 0x0520      |        1312 |
|     265 | 0x1FD2      |        8146 |
|     266 | 0x1FD3      |        8147 |
|     267 | 0x0088      |         136 |
|     268 | 0xCB2E      |       52014 |
|     269 | 0xFFFB05A2  |  4294641058 |
|     270 | 0x011E      |         286 |
|     271 | 0x04DA      |        1242 |
|     272 | 0xCFE3      |       53219 |
|     273 | 0xFFFB0C92  |  4294642834 |
|     274 | 0x0180      |         384 |
|     275 | 0x04F5      |        1269 |
|     276 | 0x03E7      |         999 |
|     277 | 0x1FD4      |        8148 |
|     278 | 0x1FD5      |        8149 |
|     279 | 0x1FD6      |        8150 |
|     280 | 0x00C9      |         201 |
|     281 | 0xC46F      |       50287 |
|     282 | 0xFFFB1193  |  4294644115 |
|     283 | 0xFFFF4480  |  4294919296 |
|     284 | 0x02EB      |         747 |
|     285 | 0xCC99      |       52377 |
|     286 | 0xFFFB03BF  |  4294640575 |
|     287 | 0x0FF9      |        4089 |
|     288 | 0xC944      |       51524 |
|     289 | 0xFFFB090B  |  4294641931 |
|     290 | 0xFFFF3CB0  |  4294917296 |
|     291 | 0x0550      |        1360 |
|     292 | 0xC249      |       49737 |
|     293 | 0xFFFB0846  |  4294641734 |
|     294 | 0xFFFF4098  |  4294918296 |
|     295 | 0x0F5E      |        3934 |
|     296 | 0xCBD8      |       52184 |
|     297 | 0xFFFAEDBC  |  4294634940 |
|     298 | 0xFFFF13C1  |  4294906817 |
|     299 | 0x04F4      |        1268 |
|     300 | 0x0EB7      |        3767 |
|     301 | 0x00AC      |         172 |
|     302 | 0x00AD      |         173 |
|     303 | 0x0861      |        2145 |
|     304 | 0x001D      |          29 |
|     305 | 0x1FD7      |        8151 |
|     306 | 0x1FD8      |        8152 |
|     307 | 0x0AD6      |        2774 |
|     308 | 0x1FD9      |        8153 |
|     309 | 0x1FDA      |        8154 |
|     310 | 0x1FDB      |        8155 |
|     311 | 0x1FDC      |        8156 |
|     312 | 0xC8CB      |       51403 |
|     313 | 0xFFFB0D1A  |  4294642970 |
|     314 | 0x015E      |         350 |
|     315 | 0x04C6      |        1222 |
|     316 | 0x1FDD      |        8157 |
|     317 | 0x1FDE      |        8158 |
|     318 | 0x1FDF      |        8159 |
|     319 | 0x1FE0      |        8160 |
|     320 | 0xCD87      |       52615 |
|     321 | 0xFFFB0CC5  |  4294642885 |
|     322 | 0x0182      |         386 |
|     323 | 0x0427      |        1063 |
|     324 | 0xFFFD0B07  |  4294773511 |
|     325 | 0xFFFCD0DA  |  4294758618 |
|     326 | 0xFFFF6469  |  4294927465 |
|     327 | 0x0A18      |        2584 |
|     328 | 0x0D4B      |        3403 |
|     329 | 0x062C      |        1580 |
|     330 | 0x1FE1      |        8161 |
|     331 | 0x1FE2      |        8162 |
|     332 | 0x1FE3      |        8163 |
|     333 | 0x1FE4      |        8164 |
|     334 | 0x1FE5      |        8165 |
|     335 | 0x1FE6      |        8166 |
|     336 | 0x1FE7      |        8167 |
|     337 | 0x1FE8      |        8168 |
|     338 | 0x1FE9      |        8169 |
|     339 | 0x1FEA      |        8170 |
|     340 | 0x1FEB      |        8171 |
|     341 | 0x1FEC      |        8172 |
|     342 | 0x1FED      |        8173 |
|     343 | 0x1FEE      |        8174 |
|     344 | 0x1FEF      |        8175 |
|     345 | 0x0024      |          36 |
|     346 | 0x0056      |          86 |
|     347 | 0x3CDCD     |      249293 |
|     348 | 0xFFFF3649  |  4294915657 |
|     349 | 0x4F05      |       20229 |
|     350 | 0x0ED8      |        3800 |
|     351 | 0x3CB63     |      248675 |
|     352 | 0xFFFF30AB  |  4294914219 |
|     353 | 0x4EA6      |       20134 |
|     354 | 0x0E73      |        3699 |
|     355 | 0x3DBB1     |      252849 |
|     356 | 0xFFFF3E1B  |  4294917659 |
|     357 | 0x4E83      |       20099 |
|     358 | 0x0EF6      |        3830 |
|     359 | 0x20B4      |        8372 |
|     360 | 0x20B5      |        8373 |
|     361 | 0x0AC8      |        2760 |
|     362 | 0x20B6      |        8374 |
|     363 | 0x20B7      |        8375 |
|     364 | 0x006E      |         110 |
|     365 | 0x20B8      |        8376 |
|     366 | 0x20B9      |        8377 |
|     367 | 0x00D8      |         216 |
|     368 | 0x20BA      |        8378 |
|     369 | 0x20BB      |        8379 |
|     370 | 0x0075      |         117 |
|     371 | 0x20BC      |        8380 |
|     372 | 0x20BD      |        8381 |
|     373 | 0x20BE      |        8382 |
|     374 | 0x20BF      |        8383 |
|     375 | 0x20C0      |        8384 |
|     376 | 0x20C1      |        8385 |
|     377 | 0x20C2      |        8386 |
|     378 | 0x20C3      |        8387 |
|     379 | 0x496A6     |      300710 |
|     380 | 0xFFFFEB28  |  4294961960 |
|     381 | 0x2C8B      |       11403 |
|     382 | 0x0C52      |        3154 |
|     383 | 0x49116     |      299286 |
|     384 | 0xFFFFEBB5  |  4294962101 |
|     385 | 0x2B84      |       11140 |
|     386 | 0x0C53      |        3155 |
|     387 | 0x498F0     |      301296 |
|     388 | 0xFFFFF5AB  |  4294964651 |
|     389 | 0x27E6      |       10214 |
|     390 | 0x00FD      |         253 |
|     391 | 0x20C4      |        8388 |
|     392 | 0x20C5      |        8389 |
|     393 | 0x03B3      |         947 |
|     394 | 0x20C6      |        8390 |
|     395 | 0x20C7      |        8391 |
|     396 | 0x20C8      |        8392 |
|     397 | 0x20C9      |        8393 |
|     398 | 0x020B      |         523 |
|     399 | 0x005D      |          93 |
|     400 | 0x5BFC8     |      376776 |
|     401 | 0xFFF8FBDB  |  4294507483 |
|     402 | 0x040E      |        1038 |
|     403 | 0x5BA35     |      375349 |
|     404 | 0xFFF900D7  |  4294508759 |
|     405 | 0x030B      |         779 |
|     406 | 0x612FE     |      398078 |
|     407 | 0xFFF8F776  |  4294506358 |
|     408 | 0x06D5      |        1749 |
|     409 | 0x08C1      |        2241 |
|     410 | 0x616D6     |      399062 |
|     411 | 0xFFF8F898  |  4294506648 |
|     412 | 0x0AF2      |        2802 |
|     413 | 0x61A94     |      400020 |
|     414 | 0xFFF90265  |  4294509157 |
|     415 | 0x03BE      |         958 |
|     416 | 0x61B36     |      400182 |
|     417 | 0xFFF91FEC  |  4294516716 |
|     418 | 0x0524      |        1316 |
|     419 | 0x04E6      |        1254 |
|     420 | 0x614C4     |      398532 |
|     421 | 0xFFF8F747  |  4294506311 |
|     422 | 0x0100      |         256 |
|     423 | 0x0AE2      |        2786 |
|     424 | 0x08F9      |        2297 |
|     425 | 0x0093      |         147 |
|     426 | 0x0094      |         148 |
|     427 | 0x0064      |         100 |
|     428 | 0x5F4B5     |      390325 |
|     429 | 0xFFF90071  |  4294508657 |
|     430 | 0x0426      |        1062 |
|     431 | 0x0101      |         257 |
|     432 | 0x5F229     |      389673 |
|     433 | 0xFFF9074C  |  4294510412 |
|     434 | 0x03D0      |         976 |
|     435 | 0x20CA      |        8394 |
|     436 | 0x20CB      |        8395 |
|     437 | 0x6096B     |      395627 |
|     438 | 0xFFF901CD  |  4294509005 |
|     439 | 0x0601      |        1537 |
|     440 | 0x01EA      |         490 |
|     441 | 0x20CC      |        8396 |
|     442 | 0x20CD      |        8397 |
|     443 | 0x0058      |          88 |
|     444 | 0x0092      |         146 |
|     445 | 0x09D9      |        2521 |
|     446 | 0x60C10     |      396304 |
|     447 | 0xFFF8F9F6  |  4294506998 |
|     448 | 0x0641      |        1601 |
|     449 | 0x0D57      |        3415 |
|     450 | 0x20CE      |        8398 |
|     451 | 0x20CF      |        8399 |
|     452 | 0x20D0      |        8400 |
|     453 | 0x09DB      |        2523 |
|     454 | 0x20D1      |        8401 |
|     455 | 0x004B      |          75 |
|     456 | 0x5F592     |      390546 |
|     457 | 0xFFF9259C  |  4294518172 |
|     458 | 0x0488      |        1160 |
|     459 | 0x0404      |        1028 |
|     460 | 0x5F548     |      390472 |
|     461 | 0xFFF92295  |  4294517397 |
|     462 | 0x0485      |        1157 |
|     463 | 0x0C0B      |        3083 |
|     464 | 0x6161A     |      398874 |
|     465 | 0xFFF910CA  |  4294512842 |
|     466 | 0x05DB      |        1499 |
|     467 | 0x61704     |      399108 |
|     468 | 0xFFF91385  |  4294513541 |
|     469 | 0x04E0      |        1248 |
|     470 | 0x20D2      |        8402 |
|     471 | 0x6120E     |      397838 |
|     472 | 0xFFF90AAE  |  4294511278 |
|     473 | 0x05D2      |        1490 |
|     474 | 0x20D3      |        8403 |
|     475 | 0x09E4      |        2532 |
|     476 | 0x20D4      |        8404 |
|     477 | 0x20D5      |        8405 |
|     478 | 0x20D6      |        8406 |
|     479 | 0x0046      |          70 |
|     480 | 0x61C5C     |      400476 |
|     481 | 0xFFF90A0F  |  4294511119 |
|     482 | 0x61839     |      399417 |
|     483 | 0xFFF90AC3  |  4294511299 |
|     484 | 0x05D5      |        1493 |
|     485 | 0x61038     |      397368 |
|     486 | 0xFFF90D58  |  4294511960 |
|     487 | 0x05C7      |        1479 |
|     488 | 0x60C9A     |      396442 |
|     489 | 0xFFF90F4C  |  4294512460 |
|     490 | 0x05AA      |        1450 |
|     491 | 0x615E5     |      398821 |
|     492 | 0xFFF9106A  |  4294512746 |
|     493 | 0x619D7     |      399831 |
|     494 | 0xFFF91A9A  |  4294515354 |
|     495 | 0x05CE      |        1486 |
|     496 | 0x20D7      |        8407 |
|     497 | 0x0014      |          20 |
|     498 | 0x0437      |        1079 |
|     499 | 0x20D8      |        8408 |
|     500 | 0x20D9      |        8409 |
|     501 | 0x61229     |      397865 |
|     502 | 0xFFF91061  |  4294512737 |
|     503 | 0x05D7      |        1495 |
|     504 | 0x61167     |      397671 |
|     505 | 0xFFF8F98D  |  4294506893 |
|     506 | 0x06B6      |        1718 |
|     507 | 0x0CF8      |        3320 |
|     508 | 0x20DA      |        8410 |
|     509 | 0x20DB      |        8411 |
|     510 | 0x20DC      |        8412 |
|     511 | 0x621C7     |      401863 |
|     512 | 0xFFF90861  |  4294510689 |
|     513 | 0x0621      |        1569 |
|     514 | 0x0C10      |        3088 |
|     515 | 0x61E5D     |      400989 |
|     516 | 0xFFF908EF  |  4294510831 |
|     517 | 0x060F      |        1551 |
|     518 | 0x0B9D      |        2973 |
|     519 | 0x20DD      |        8413 |
|     520 | 0x20DE      |        8414 |
|     521 | 0x615DD     |      398813 |
|     522 | 0xFFF90E8F  |  4294512271 |
|     523 | 0x61A23     |      399907 |
|     524 | 0xFFF8F9F4  |  4294506996 |
|     525 | 0x0C71      |        3185 |
|     526 | 0x61442     |      398402 |
|     527 | 0xFFF90E5F  |  4294512223 |
|     528 | 0x20DF      |        8415 |
|     529 | 0x20E0      |        8416 |
|     530 | 0x20E1      |        8417 |
|     531 | 0x20E2      |        8418 |
|     532 | 0x20E3      |        8419 |
|     533 | 0x61871     |      399473 |
|     534 | 0xFFF92230  |  4294517296 |
|     535 | 0x04DB      |        1243 |
|     536 | 0x03FF      |        1023 |
|     537 | 0x20E4      |        8420 |
|     538 | 0x20E5      |        8421 |
|     539 | 0x20E6      |        8422 |
|     540 | 0x20E7      |        8423 |
|     541 | 0x619D3     |      399827 |
|     542 | 0xFFF905AA  |  4294509994 |
|     543 | 0x0678      |        1656 |
|     544 | 0x6205E     |      401502 |
|     545 | 0xFFF8F56F  |  4294505839 |
|     546 | 0x61C79     |      400505 |
|     547 | 0xFFF8F5B2  |  4294505906 |
|     548 | 0x610AD     |      397485 |
|     549 | 0xFFF8F568  |  4294505832 |
|     550 | 0x06A6      |        1702 |
|     551 | 0x0C72      |        3186 |
|     552 | 0x60C01     |      396289 |
|     553 | 0xFFF8F5B5  |  4294505909 |
|     554 | 0x0649      |        1609 |
|     555 | 0x615FB     |      398843 |
|     556 | 0xFFF8F236  |  4294505014 |
|     557 | 0x06AC      |        1708 |
|     558 | 0x20E8      |        8424 |
|     559 | 0x20E9      |        8425 |
|     560 | 0x20EA      |        8426 |
|     561 | 0x0079      |         121 |
|     562 | 0x20EB      |        8427 |
|     563 | 0x20EC      |        8428 |
|     564 | 0x20ED      |        8429 |
|     565 | 0x09D6      |        2518 |
|     566 | 0x20EE      |        8430 |
|     567 | 0x616BB     |      399035 |
|     568 | 0xFFF8E446  |  4294501446 |
|     569 | 0x61D83     |      400771 |
|     570 | 0x05DC      |        1500 |
|     571 | 0x0B9F      |        2975 |
|     572 | 0x61943     |      399683 |
|     573 | 0xFFF8E7C3  |  4294502339 |
|     574 | 0x20EF      |        8431 |
|     575 | 0x61A9E     |      400030 |
|     576 | 0xFFF8F51C  |  4294505756 |
|     577 | 0x20F0      |        8432 |
|     578 | 0x20F1      |        8433 |
|     579 | 0x20F2      |        8434 |
|     580 | 0x20F3      |        8435 |
|     581 | 0x61A20     |      399904 |
|     582 | 0xFFF8E3E7  |  4294501351 |
|     583 | 0x0BFB      |        3067 |
|     584 | 0x05B4      |        1460 |
|     585 | 0x00A6      |         166 |
|     586 | 0x61AAC     |      400044 |
|     587 | 0xFFF8E3D9  |  4294501337 |
|     588 | 0x00A0      |         160 |
|     589 | 0x009C      |         156 |
|     590 | 0x00CE      |         206 |
|     591 | 0x0B01      |        2817 |
|     592 | 0x0AF0      |        2800 |
|     593 | 0x08FA      |        2298 |
|     594 | 0x0523      |        1315 |
|     595 | 0x009F      |         159 |
|     596 | 0x20F4      |        8436 |
|     597 | 0x00F0      |         240 |
|     598 | 0x20F5      |        8437 |
|     599 | 0x09DE      |        2526 |
|     600 | 0x00A2      |         162 |
|     601 | 0x61AEE     |      400110 |
|     602 | 0xFFF8FC4B  |  4294507595 |
|     603 | 0xFFFFE0A0  |  4294959264 |
|     604 | 0x20F6      |        8438 |
|     605 | 0x20F7      |        8439 |
|     606 | 0x20F8      |        8440 |
|     607 | 0x0B02      |        2818 |
|     608 | 0x20F9      |        8441 |
|     609 | 0x20FA      |        8442 |
|     610 | 0x20FB      |        8443 |
|     611 | 0x20FC      |        8444 |
|     612 | 0x20FD      |        8445 |
|     613 | 0x20FE      |        8446 |
|     614 | 0x00AE      |         174 |
|     615 | 0x20FF      |        8447 |
|     616 | 0x2100      |        8448 |
|     617 | 0x2101      |        8449 |
|     618 | 0x2102      |        8450 |
|     619 | 0xFFFFE294  |  4294959764 |
|     620 | 0x2103      |        8451 |
|     621 | 0x2104      |        8452 |
|     622 | 0x2105      |        8453 |
|     623 | 0x0B03      |        2819 |
|     624 | 0x0B25      |        2853 |
|     625 | 0x007A      |         122 |
|     626 | 0x2106      |        8454 |
|     627 | 0x0AFF      |        2815 |
|     628 | 0x0B00      |        2816 |
|     629 | 0x0B04      |        2820 |
|     630 | 0x61A17     |      399895 |
|     631 | 0xFFF8E260  |  4294500960 |
|     632 | 0x2107      |        8455 |
|     633 | 0x2108      |        8456 |
|     634 | 0x2109      |        8457 |
|     635 | 0x210A      |        8458 |
|     636 | 0x210B      |        8459 |
|     637 | 0x0AE6      |        2790 |
|     638 | 0x210C      |        8460 |
|     639 | 0x210D      |        8461 |
|     640 | 0x210E      |        8462 |
|     641 | 0x210F      |        8463 |
|     642 | 0x2110      |        8464 |
|     643 | 0x2111      |        8465 |
|     644 | 0x2112      |        8466 |
|     645 | 0x00FA      |         250 |
|     646 | 0x0B10      |        2832 |
|     647 | 0x0032      |          50 |
|     648 | 0x00B2      |         178 |
|     649 | 0x0B24      |        2852 |
|     650 | 0x0525      |        1317 |
|     651 | 0x00DC      |         220 |
|     652 | 0x2114      |        8468 |
|     653 | 0x00D9      |         217 |
|     654 | 0x2117      |        8471 |
|     655 | 0x00CC      |         204 |
|     656 | 0x2118      |        8472 |
|     657 | 0x61A31     |      399921 |
|     658 | 0xFFF8EAF9  |  4294503161 |
|     659 | 0x05C5      |        1477 |
|     660 | 0x0C73      |        3187 |
|     661 | 0x00B3      |         179 |
|     662 | 0x00E6      |         230 |
|     663 | 0x2119      |        8473 |
|     664 | 0x211A      |        8474 |
|     665 | 0x61CD6     |      400598 |
|     666 | 0xFFF8E2E1  |  4294501089 |
|     667 | 0x0BCF      |        3023 |
|     668 | 0x6148E     |      398478 |
|     669 | 0xFFF90668  |  4294510184 |
|     670 | 0xFFFFF5FB  |  4294964731 |
|     671 | 0x211B      |        8475 |
|     672 | 0x211C      |        8476 |
|     673 | 0x211D      |        8477 |
|     674 | 0x0582      |        1410 |
|     675 | 0x211E      |        8478 |
|     676 | 0x0AFB      |        2811 |
|     677 | 0x211F      |        8479 |
|     678 | 0x2120      |        8480 |
|     679 | 0x2121      |        8481 |
|     680 | 0x2122      |        8482 |
|     681 | 0x2123      |        8483 |
|     682 | 0x0489      |        1161 |
|     683 | 0x2124      |        8484 |
|     684 | 0x2125      |        8485 |
|     685 | 0x09DF      |        2527 |
|     686 | 0x2126      |        8486 |

## String References

- **7918**: Investigate the tower? [Yes./Later.]
- **7927**: Edge closer to Cait Sith? [Yes.]
- **7931**: You attach $6 to Cait Sith Aon!
- **7938**: Signal to Lilisette... [Now!]
- **7940**: Lilisette attaches $6 to Cait Sith Seachd!
- **7948**: Signal to Portia... [Now!]
- **7950**: Portia attaches $6 to Cait Sith Ceithir!
- **7958**: Shoot the blowpipe... [Now!]
- **7959**: You attach $6 to Cait Sith Coig!
- **7970**: Lilisette produces $0 from her pocket!
- **7973**: <Player> transforms into an irresistibly cute chocobo chick!
- **7978**: What will you do? [Chirp spiritedly./Expose your back./Stun it silly!]
- **7979**: The transformation enchantment runs out!
- **7988**: Cait Sith Tri faints from shock!
- **7989**: You attach $6 to Cait Sith Tri!
- **8388**: An extremely sturdy wall of rock blocks your path...

## Events

### Event 65535

#### Metadata

| Field        | Value   |
|--------------|---------|
| Entrypoint   | 0x0000  |
| Data Size    | 1 bytes |
| Instructions | 1       |

```
      00 01 02 03 04 05 06 07  08 09 0A 0B 0C 0D 0E 0F
      -- -- -- -- -- -- -- --  -- -- -- -- -- -- -- --
0000: 00                                                .               
```

#### Opcodes

```
  0: 0x0000 [0x00] END_REQSTACK()
```

### Event 12

#### Metadata

| Field        | Value      |
|--------------|------------|
| Entrypoint   | 0x0001     |
| Data Size    | 3441 bytes |
| Instructions | 432        |

```
      00 01 02 03 04 05 06 07  08 09 0A 0B 0C 0D 0E 0F
      -- -- -- -- -- -- -- --  -- -- -- -- -- -- -- --
0000:    02 09 10 00 80 00 0C  00 01 35 00 24 01 80 02   .........5.$...
0010: 80 02 80 25 02 00 10 02  80 00 28 00 03 01 10 00  ...%......(.....
0020: 80 43 00 43 01 01 35 00  02 00 10 00 80 00 35 00  .C.C..5.......5.
0030: 21 00 01 35 00 42 03 04  00 02 80 03 01 10 02 80  !..5.B..........
0040: 5D 02 80 03 80 45 04 80  F8 FF FF 7F F8 FF FF 7F  ]....E..........
0050: 66 64 6F 31 02 80 55 04  80 F8 FF FF 7F F8 FF FF  fdo1..U.........
0060: 7F 66 64 6F 31 46 01 38  05 80 03 00 00 02 10 2F  .fdo1F.8......./
0070: 00 54 83 08 01 2F 00 55  83 08 01 2F 00 56 83 08  .T.../.U.../.V..
0080: 01 2F 00 57 83 08 01 4E  00 54 83 08 01 4E 00 55  ./.W...N.T...N.U
0090: 83 08 01 4E 00 56 83 08  01 4E 00 57 83 08 01 27  ...N.V...N.W...'
00A0: 05 57 83 08 01 02 BA 54  83 08 01 06 80 07 80 08  .W.....T........
00B0: 80 09 80 BA 55 83 08 01  0A 80 0B 80 0C 80 0D 80  ....U...........
00C0: BA F0 FF FF 7F 0E 80 0F  80 10 80 11 80 BA 57 83  ..............W.
00D0: 08 01 0E 80 0F 80 10 80  11 80 BA 56 83 08 01 12  ...........V....
00E0: 80 13 80 14 80 15 80 80  54 83 08 01 80 55 83 08  ........T....U..
00F0: 01 80 F0 FF FF 7F 80 56  83 08 01 4A F0 FF FF 7F  .......V...J....
0100: 54 83 08 01 4A 57 83 08  01 54 83 08 01 5C 00 16  T...JW...T...\..
0110: 80 5C 01 16 80 9A 45 17  80 F8 FF FF 7F F8 FF FF  .\....E.........
0120: 7F 73 31 31 32 02 80 45  04 80 F8 FF FF 7F F8 FF  .s112..E........
0130: FF 7F 66 64 69 31 02 80  55 04 80 F8 FF FF 7F F8  ..fdi1..U.......
0140: FF FF 7F 66 64 69 31 2B  56 83 08 01 18 80 23 52  ...fdi1+V.....#R
0150: 17 80 F8 FF FF 7F F8 FF  FF 7F 73 31 31 32 45 17  ..........s112E.
0160: 80 F8 FF FF 7F F8 FF FF  7F 73 31 31 33 02 80 2B  .........s113..+
0170: 56 83 08 01 19 80 23 52  17 80 F8 FF FF 7F F8 FF  V.....#R........
0180: FF 7F 73 31 31 33 45 17  80 F8 FF FF 7F F8 FF FF  ..s113E.........
0190: 7F 73 31 31 34 02 80 55  17 80 F8 FF FF 7F F8 FF  .s114..U........
01A0: FF 7F 73 31 31 34 1C 1A  80 45 17 80 F8 FF FF 7F  ..s114...E......
01B0: F8 FF FF 7F 73 31 31 35  02 80 2B 54 83 08 01 1B  ....s115..+T....
01C0: 80 23 2B 55 83 08 01 1C  80 23 52 17 80 F8 FF FF  .#+U.....#R.....
01D0: 7F F8 FF FF 7F 73 31 31  35 45 17 80 F8 FF FF 7F  .....s115E......
01E0: F8 FF FF 7F 73 31 31 36  02 80 5B 1D 80 54 83 08  ....s116..[..T..
01F0: 01 54 83 08 01 74 68 61  30 2B 54 83 08 01 1E 80  .T...tha0+T.....
0200: 23 53 54 83 08 01 54 83  08 01 74 68 61 30 52 17  #ST...T...tha0R.
0210: 80 F8 FF FF 7F F8 FF FF  7F 73 31 31 36 45 17 80  .........s116E..
0220: F8 FF FF 7F F8 FF FF 7F  73 31 31 37 02 80 5B 1D  ........s117..[.
0230: 80 54 83 08 01 54 83 08  01 74 68 61 31 53 54 83  .T...T...tha1ST.
0240: 08 01 54 83 08 01 74 68  61 31 4B 54 83 08 01 1F  ..T...tha1KT....
0250: 80 1C 1A 80 2B 54 83 08  01 20 80 23 52 17 80 F8  ....+T... .#R...
0260: FF FF 7F F8 FF FF 7F 73  31 31 37 45 17 80 F8 FF  .......s117E....
0270: FF 7F F8 FF FF 7F 73 31  31 38 02 80 5B 21 80 54  ......s118..[!.T
0280: 83 08 01 54 83 08 01 70  6E 74 30 93 22 80 03 02  ...T...pnt0."...
0290: 10 22 80 48 23 80 1C 24  80 53 54 83 08 01 54 83  .".H#..$.ST...T.
02A0: 08 01 70 6E 74 30 93 02  80 52 17 80 F8 FF FF 7F  ..pnt0...R......
02B0: F8 FF FF 7F 73 31 31 38  45 17 80 F8 FF FF 7F F8  ....s118E.......
02C0: FF FF 7F 73 31 31 39 02  80 66 25 80 55 83 08 01  ...s119..f%.U...
02D0: 55 83 08 01 74 68 6B 31  2B 55 83 08 01 26 80 23  U...thk1+U...&.#
02E0: 5B 1D 80 54 83 08 01 54  83 08 01 74 6C 61 30 2B  [..T...T...tla0+
02F0: 54 83 08 01 27 80 23 5B  1D 80 54 83 08 01 54 83  T...'.#[..T...T.
0300: 08 01 74 6C 61 31 53 54  83 08 01 54 83 08 01 74  ..tla1ST...T...t
0310: 6C 61 31 52 17 80 F8 FF  FF 7F F8 FF FF 7F 73 31  la1R..........s1
0320: 31 39 45 17 80 F8 FF FF  7F F8 FF FF 7F 73 31 32  19E..........s12
0330: 30 02 80 66 25 80 55 83  08 01 55 83 08 01 74 68  0..f%.U...U...th
0340: 6B 32 4A 54 83 08 01 F0  FF FF 7F 7B 54 83 08 01  k2JT.......{T...
0350: 1C 1A 80 5B 21 80 54 83  08 01 54 83 08 01 70 6E  ...[!.T...T...pn
0360: 74 30 1C 03 80 27 05 F0  FF FF 7F 08 45 04 80 F0  t0...'......E...
0370: FF FF 7F F0 FF FF 7F 6F  76 6C 31 02 80 52 17 80  .......ovl1..R..
0380: F8 FF FF 7F F8 FF FF 7F  73 31 32 30 45 17 80 F8  ........s120E...
0390: FF FF 7F F8 FF FF 7F 73  31 32 31 02 80 27 05 57  .......s121..'.W
03A0: 83 08 01 03 48 28 80 1C  03 80 52 17 80 F8 FF FF  ....H(....R.....
03B0: 7F F8 FF FF 7F 73 31 32  31 45 17 80 F8 FF FF 7F  .....s121E......
03C0: F8 FF FF 7F 73 31 32 32  02 80 5B 1D 80 54 83 08  ....s122..[..T..
03D0: 01 54 83 08 01 74 6C 61  30 2B 54 83 08 01 29 80  .T...tla0+T...).
03E0: 23 2B 54 83 08 01 2A 80  23 52 17 80 F8 FF FF 7F  #+T...*.#R......
03F0: F8 FF FF 7F 73 31 32 32  45 17 80 F8 FF FF 7F F8  ....s122E.......
0400: FF FF 7F 73 31 33 30 02  80 2B 54 83 08 01 2B 80  ...s130..+T...+.
0410: 23 52 17 80 F8 FF FF 7F  F8 FF FF 7F 73 31 33 30  #R..........s130
0420: 45 17 80 F8 FF FF 7F F8  FF FF 7F 73 31 32 33 02  E..........s123.
0430: 80 2B 54 83 08 01 2C 80  23 5B 1D 80 54 83 08 01  .+T...,.#[..T...
0440: 54 83 08 01 74 6C 61 31  5D 02 80 03 80 45 04 80  T...tla1]....E..
0450: F8 FF FF 7F F8 FF FF 7F  66 64 6F 31 02 80 55 04  ........fdo1..U.
0460: 80 F8 FF FF 7F F8 FF FF  7F 66 64 6F 31 52 17 80  .........fdo1R..
0470: F8 FF FF 7F F8 FF FF 7F  73 31 32 33 BA F0 FF FF  ........s123....
0480: 7F 2D 80 2E 80 2F 80 30  80 5C 00 31 80 5C 01 31  .-.../.0.\.1.\.1
0490: 80 9A BA 56 83 08 01 12  80 13 80 14 80 15 80 BA  ...V............
04A0: 57 83 08 01 2D 80 2E 80  2F 80 30 80 80 56 83 08  W...-.../.0..V..
04B0: 01 80 57 83 08 01 4A 55  83 08 01 54 83 08 01 4A  ..W...JU...T...J
04C0: 54 83 08 01 57 83 08 01  7B 54 83 08 01 27 05 56  T...W...{T...'.V
04D0: 83 08 01 32 5B 32 80 57  83 08 01 57 83 08 01 00  ...2[2.W...W....
04E0: FE FE FE 5B 33 80 57 83  08 01 57 83 08 01 00 FE  ...[3.W...W.....
04F0: FE FE 45 17 80 F8 FF FF  7F F8 FF FF 7F 73 30 39  ..E..........s09
0500: 33 02 80 45 04 80 F8 FF  FF 7F F8 FF FF 7F 66 64  3..E..........fd
0510: 69 31 02 80 55 04 80 F8  FF FF 7F F8 FF FF 7F 66  i1..U..........f
0520: 64 69 31 03 01 00 34 80  03 25 10 02 80 03 27 10  di1...4..%....'.
0530: 02 80 03 02 00 02 80 03  06 00 02 80 03 03 00 02  ................
0540: 80 1C 1A 80 27 05 54 83  08 01 2D 03 26 10 02 80  ....'.T...-.&...
0550: 02 25 10 02 80 00 B5 0B  02 27 10 00 80 00 65 05  .%.......'....e.
0560: 03 01 00 02 80 24 35 80  02 80 01 00 25 02 00 10  .....$5.....%...
0570: 02 80 00 60 07 02 26 10  02 80 00 5D 07 5B 32 80  ...`..&....].[2.
0580: 57 83 08 01 57 83 08 01  68 69 30 37 1C 1A 80 5B  W...W...hi07...[
0590: 33 80 57 83 08 01 57 83  08 01 31 30 30 35 1C 1A  3.W...W...1005..
05A0: 80 02 27 10 00 80 00 A8  06 B4 0B 03 26 10 00 80  ..'.........&...
05B0: B4 06 00 03 01 10 36 80  43 00 43 01 5B 37 80 56  ......6.C.C.[7.V
05C0: 83 08 01 56 83 08 01 62  69 6B 30 2B 56 83 08 01  ...V...bik0+V...
05D0: 38 80 23 5B 39 80 54 83  08 01 54 83 08 01 74 68  8.#[9.T...T...th
05E0: 62 30 1C 1A 80 02 04 00  36 80 00 45 06 45 17 80  b0......6..E.E..
05F0: F8 FF FF 7F F8 FF FF 7F  73 31 33 32 02 80 2B 54  ........s132..+T
0600: 83 08 01 3A 80 23 52 17  80 F8 FF FF 7F F8 FF FF  ...:.#R.........
0610: 7F 73 31 33 32 45 17 80  F8 FF FF 7F F8 FF FF 7F  .s132E..........
0620: 73 31 33 33 02 80 66 25  80 55 83 08 01 55 83 08  s133..f%.U...U..
0630: 01 74 6C 6B 30 2B 55 83  08 01 3B 80 23 03 25 10  .tlk0+U...;.#.%.
0640: 3C 80 01 A5 06 45 17 80  F8 FF FF 7F F8 FF FF 7F  <....E..........
0650: 73 31 33 31 02 80 2B 54  83 08 01 3D 80 23 07 04  s131..+T...=.#..
0660: 00 00 80 45 04 80 F8 FF  FF 7F F8 FF FF 7F 66 64  ...E..........fd
0670: 6F 31 02 80 55 04 80 F8  FF FF 7F F8 FF FF 7F 66  o1..U..........f
0680: 64 6F 31 52 17 80 F8 FF  FF 7F F8 FF FF 7F 73 31  do1R..........s1
0690: 33 31 53 56 83 08 01 56  83 08 01 62 69 6B 30 B4  31SV...V...bik0.
06A0: 06 01 01 92 04 01 5D 07  07 03 00 00 80 02 03 00  ......].........
06B0: 34 80 04 C7 06 4B 56 83  08 01 3E 80 1C 1A 80 03  4....KV...>.....
06C0: 06 00 02 80 01 5D 07 02  06 00 02 80 80 E1 06 4B  .....].........K
06D0: 56 83 08 01 3F 80 1C 40  80 03 06 00 00 80 01 5D  V...?..@.......]
06E0: 07 02 06 00 00 80 80 5D  07 02 02 00 02 80 00 3B  .......].......;
06F0: 07 13 05 00 36 80 02 05  00 02 80 80 13 07 27 05  ....6.........'.
0700: 56 83 08 01 33 2A 05 56  83 08 01 03 02 00 00 80  V...3*.V........
0710: 01 38 07 02 05 00 00 80  80 1E 07 01 38 07 02 05  .8..........8...
0720: 00 36 80 80 38 07 4B 56  83 08 01 3E 80 1C 1A 80  .6..8.KV...>....
0730: 03 06 00 02 80 01 38 07  01 5A 07 27 05 56 83 08  ......8..Z.'.V..
0740: 01 33 2A 05 56 83 08 01  07 02 00 00 80 02 02 00  .3*.V...........
0750: 3C 80 00 5A 07 03 02 00  02 80 01 5D 07 01 B2 0B  <..Z.......]....
0760: 02 00 10 00 80 00 0F 09  02 26 10 02 80 00 0C 09  .........&......
0770: 4B 57 83 08 01 41 80 1C  42 80 02 27 10 00 80 00  KW...A..B..'....
0780: 81 08 B4 0B 03 26 10 00  80 B4 06 00 03 01 10 36  .....&.........6
0790: 80 43 00 43 01 5B 37 80  56 83 08 01 56 83 08 01  .C.C.[7.V...V...
07A0: 62 69 6B 30 2B 56 83 08  01 38 80 23 5B 39 80 54  bik0+V...8.#[9.T
07B0: 83 08 01 54 83 08 01 74  68 62 30 1C 1A 80 02 04  ...T...thb0.....
07C0: 00 36 80 00 1E 08 45 17  80 F8 FF FF 7F F8 FF FF  .6....E.........
07D0: 7F 73 31 33 32 02 80 2B  54 83 08 01 3A 80 23 52  .s132..+T...:.#R
07E0: 17 80 F8 FF FF 7F F8 FF  FF 7F 73 31 33 32 45 17  ..........s132E.
07F0: 80 F8 FF FF 7F F8 FF FF  7F 73 31 33 33 02 80 66  .........s133..f
0800: 25 80 55 83 08 01 55 83  08 01 74 6C 6B 30 2B 55  %.U...U...tlk0+U
0810: 83 08 01 3B 80 23 03 25  10 3C 80 01 7E 08 45 17  ...;.#.%.<..~.E.
0820: 80 F8 FF FF 7F F8 FF FF  7F 73 31 33 31 02 80 2B  .........s131..+
0830: 54 83 08 01 3D 80 23 07  04 00 00 80 45 04 80 F8  T...=.#.....E...
0840: FF FF 7F F8 FF FF 7F 66  64 6F 31 02 80 55 04 80  .......fdo1..U..
0850: F8 FF FF 7F F8 FF FF 7F  66 64 6F 31 52 17 80 F8  ........fdo1R...
0860: FF FF 7F F8 FF FF 7F 73  31 33 31 53 56 83 08 01  .......s131SV...
0870: 56 83 08 01 62 69 6B 30  B4 06 01 01 92 04 01 0C  V...bik0........
0880: 09 03 02 00 02 80 02 03  00 34 80 04 A0 08 4B 56  .........4....KV
0890: 83 08 01 3F 80 1C 40 80  03 06 00 00 80 01 FD 08  ...?..@.........
08A0: 02 06 00 02 80 80 AB 08  01 FD 08 02 06 00 00 80  ................
08B0: 80 FD 08 13 05 00 36 80  02 05 00 02 80 80 D5 08  ......6.........
08C0: 27 05 56 83 08 01 33 2A  05 56 83 08 01 03 02 00  '.V...3*.V......
08D0: 00 80 01 FA 08 02 05 00  00 80 80 E0 08 01 FA 08  ................
08E0: 02 05 00 36 80 80 FA 08  4B 56 83 08 01 3E 80 1C  ...6....KV...>..
08F0: 1A 80 03 06 00 02 80 01  FA 08 01 FD 08 03 03 00  ................
0900: 02 80 4B 57 83 08 01 30  80 1C 1A 80 01 B2 0B 02  ..KW...0........
0910: 00 10 36 80 00 B2 0B 02  26 10 02 80 00 AF 0B 7A  ..6.....&......z
0920: 00 F0 FF FF 7F B4 0B 03  26 10 00 80 B4 06 00 5D  ........&......]
0930: 02 80 03 80 45 04 80 F8  FF FF 7F F8 FF FF 7F 66  ....E..........f
0940: 64 6F 31 02 80 55 04 80  F8 FF FF 7F F8 FF FF 7F  do1..U..........
0950: 66 64 6F 31 52 17 80 F8  FF FF 7F F8 FF FF 7F 73  fdo1R..........s
0960: 30 39 33 7B F0 FF FF 7F  59 05 54 83 08 01 01 59  093{....Y.T....Y
0970: 05 56 83 08 01 01 BA 54  83 08 01 43 80 44 80 45  .V.....T...C.D.E
0980: 80 46 80 BA F0 FF FF 7F  2D 80 2E 80 2F 80 30 80  .F......-.../.0.
0990: BA 56 83 08 01 47 80 48  80 49 80 3F 80 80 54 83  .V...G.H.I.?..T.
09A0: 08 01 80 56 83 08 01 4A  F0 FF FF 7F 56 83 08 01  ...V...J....V...
09B0: 1C 40 80 5B 4A 80 54 83  08 01 54 83 08 01 6E 64  .@.[J.T...T...nd
09C0: 6D 6C 45 17 80 F8 FF FF  7F F8 FF FF 7F 73 31 33  mlE..........s13
09D0: 34 02 80 1C 4B 80 45 04  80 F8 FF FF 7F F8 FF FF  4...K.E.........
09E0: 7F 66 64 69 31 02 80 55  04 80 F8 FF FF 7F F8 FF  .fdi1..U........
09F0: FF 7F 66 64 69 31 1C 03  80 81 00 56 83 08 01 7C  ..fdi1.....V...|
0A00: 00 56 83 08 01 52 17 80  F8 FF FF 7F F8 FF FF 7F  .V...R..........
0A10: 73 31 33 34 45 17 80 F8  FF FF 7F F8 FF FF 7F 73  s134E..........s
0A20: 31 33 35 02 80 C5 4C 80  54 83 08 01 54 83 08 01  135...L.T...T...
0A30: 73 30 30 33 02 80 5B 4A  80 54 83 08 01 54 83 08  s003..[J.T...T..
0A40: 01 6E 64 73 30 C5 4D 80  56 83 08 01 56 83 08 01  .nds0.M.V...V...
0A50: 73 30 30 35 02 80 5B 4E  80 56 83 08 01 56 83 08  s005..[N.V...V..
0A60: 01 6E 64 6D 73 03 02 10  4F 80 27 10 CC 82 08 01  .ndms...O.'.....
0A70: 01 2B 54 83 08 01 50 80  1C 40 80 2B 56 83 08 01  .+T...P..@.+V...
0A80: 51 80 23 2A 10 CC 82 08  01 52 17 80 F8 FF FF 7F  Q.#*.....R......
0A90: F8 FF FF 7F 73 31 33 35  45 17 80 F8 FF FF 7F F8  ....s135E.......
0AA0: FF FF 7F 73 31 33 36 02  80 1C 1A 80 6B 69 64 6C  ...s136.....kidl
0AB0: 30 54 83 08 01 48 52 80  1C 24 80 52 17 80 F8 FF  0T...HR..$.R....
0AC0: FF 7F F8 FF FF 7F 73 31  33 36 45 17 80 F8 FF FF  ......s136E.....
0AD0: 7F F8 FF FF 7F 73 31 33  37 02 80 27 05 57 83 08  .....s137..'.W..
0AE0: 01 02 27 05 F0 FF FF 7F  09 1C 53 80 52 17 80 F8  ..'.......S.R...
0AF0: FF FF 7F F8 FF FF 7F 73  31 33 37 45 17 80 F8 FF  .......s137E....
0B00: FF 7F F8 FF FF 7F 73 31  33 38 02 80 29 05 F0 FF  ......s138..)...
0B10: FF 7F 04 C5 54 80 56 83  08 01 56 83 08 01 73 30  ....T.V...V...s0
0B20: 30 31 02 80 03 02 10 55  80 48 56 80 1C 03 80 03  01.....U.HV.....
0B30: 01 10 00 80 03 25 10 36  80 02 00 00 00 80 00 AF  .....%.6........
0B40: 0B 52 17 80 F8 FF FF 7F  F8 FF FF 7F 73 31 33 38  .R..........s138
0B50: 45 17 80 F8 FF FF 7F F8  FF FF 7F 73 31 33 39 02  E..........s139.
0B60: 80 27 05 F0 FF FF 7F 1C  4A 54 83 08 01 F0 FF FF  .'......JT......
0B70: 7F 1C 1A 80 5B 1D 80 54  83 08 01 54 83 08 01 74  ....[..T...T...t
0B80: 6C 61 30 2B 54 83 08 01  57 80 23 5B 1D 80 54 83  la0+T...W.#[..T.
0B90: 08 01 54 83 08 01 74 6C  61 31 2A 05 F0 FF FF 7F  ..T...tla1*.....
0BA0: 6E F0 FF FF 7F 58 80 99  F0 FF FF 7F 1C 24 80 01  n....X.......$..
0BB0: B2 0B 01 50 05 02 25 10  00 80 00 D9 0C 7A 00 56  ...P..%......z.V
0BC0: 83 08 01 27 05 57 83 08  01 02 27 05 F0 FF FF 7F  ...'.W....'.....
0BD0: 09 03 01 10 36 80 43 00  43 01 48 59 80 23 4B 56  ....6.C.C.HY.#KV
0BE0: 83 08 01 5A 80 1C 1A 80  5B 37 80 56 83 08 01 56  ...Z....[7.V...V
0BF0: 83 08 01 62 69 6B 30 2B  56 83 08 01 5B 80 23 5B  ...bik0+V...[.#[
0C00: 39 80 54 83 08 01 54 83  08 01 74 68 62 30 1C 1A  9.T...T...thb0..
0C10: 80 02 04 00 36 80 00 6C  0C 45 17 80 F8 FF FF 7F  ....6..l.E......
0C20: F8 FF FF 7F 73 31 33 32  02 80 2B 54 83 08 01 3A  ....s132..+T...:
0C30: 80 23 52 17 80 F8 FF FF  7F F8 FF FF 7F 73 31 33  .#R..........s13
0C40: 32 45 17 80 F8 FF FF 7F  F8 FF FF 7F 73 31 33 33  2E..........s133
0C50: 02 80 66 25 80 55 83 08  01 55 83 08 01 74 6C 6B  ..f%.U...U...tlk
0C60: 30 2B 55 83 08 01 3B 80  23 01 D9 0C 45 17 80 F8  0+U...;.#...E...
0C70: FF FF 7F F8 FF FF 7F 73  31 33 31 02 80 2B 54 83  .......s131..+T.
0C80: 08 01 3D 80 23 07 04 00  00 80 45 04 80 F8 FF FF  ..=.#.....E.....
0C90: 7F F8 FF FF 7F 66 64 6F  31 02 80 55 04 80 F8 FF  .....fdo1..U....
0CA0: FF 7F F8 FF FF 7F 66 64  6F 31 52 17 80 F8 FF FF  ......fdo1R.....
0CB0: 7F F8 FF FF 7F 73 31 33  31 B4 06 01 6B 69 64 6C  .....s131...kidl
0CC0: 30 54 83 08 01 27 05 57  83 08 01 03 27 05 F0 FF  0T...'.W....'...
0CD0: FF 7F 08 1C 40 80 01 92  04 5D 02 80 03 80 45 04  ....@....]....E.
0CE0: 80 F8 FF FF 7F F8 FF FF  7F 66 64 6F 31 02 80 55  .........fdo1..U
0CF0: 04 80 F8 FF FF 7F F8 FF  FF 7F 66 64 6F 31 52 17  ..........fdo1R.
0D00: 80 F8 FF FF 7F F8 FF FF  7F 73 31 33 33 52 17 80  .........s133R..
0D10: F8 FF FF 7F F8 FF FF 7F  73 31 33 38 52 17 80 F8  ........s138R...
0D20: FF FF 7F F8 FF FF 7F 73  31 33 39 C5 54 80 56 83  .......s139.T.V.
0D30: 08 01 56 83 08 01 73 74  30 31 02 80 C5 4D 80 56  ..V...st01...M.V
0D40: 83 08 01 56 83 08 01 73  74 30 35 02 80 27 05 F0  ...V...st05..'..
0D50: FF FF 7F 09 5C 00 02 80  5C 01 02 80 9A 46 00 45  ....\...\....F.E
0D60: 04 80 F0 FF FF 7F F0 FF  FF 7F 66 64 69 32 02 80  ..........fdi2..
0D70: 21 00                                             !.              
```

#### Opcodes

```
  0: 0x0001 [0x02] IF !(Work_Zone[9] == 1*) GOTO 0x000C
  1: 0x0009 [0x01] GOTO 0x0035
  2: 0x000C [0x24] CREATE_DIALOG(message_id=7918*, default_option=0*, option_flags=0*)
    → "Investigate the tower? [Yes./Later.]"
  3: 0x0013 [0x25] WAIT_DIALOG_SELECT()
  4: 0x0014 [0x02] IF !(Work_Zone[0] == 0*) GOTO 0x0028
  5: 0x001C [0x03] Work_Zone[1] = 1*
  6: 0x0021 [0x43] SEND_EVENT_UPDATE: Send pending tag to server (packet 0x005B)
  7: 0x0023 [0x43] SEND_EVENT_UPDATE: Check pending flag (skip if not pending)
  8: 0x0025 [0x01] GOTO 0x0035
  9: 0x0028 [0x02] IF !(Work_Zone[0] == 1*) GOTO 0x0035
 10: 0x0030 [0x21] END_EVENT
 11: 0x0031 [0x00] END_REQSTACK()

SUBROUTINE_0035:
 12: 0x0035 [0x42] SET_CLI_EVENT_CANCEL_DATA()
 13: 0x0036 [0x03] ExtData[1]->WorkLocal[4] = 0*
 14: 0x003B [0x03] Work_Zone[1] = 0*
 15: 0x0040 [0x5D] SET_MUSIC_VOLUME(volume=0*, fade_time=120*)
 16: 0x0045 [0x45] LOAD_SCHEDULED_TASK: Load scheduler "fdo1" with entities [EventEntity, EventEntity], work=[200*, 0*]
 17: 0x0056 [0x55] WAIT_LOAD_SCHEDULER: Wait for scheduler "fdo1" with entities [EventEntity, EventEntity], work=200*
 18: 0x0065 [0x46] CAMERA_CONTROL: Disable user control
 19: 0x0067 [0x38] SET_CLIENT_EVENT_MODE(mode=27*)
 20: 0x006A [0x03] ExtData[1]->WorkLocal[0] = Work_Zone[2]
 21: 0x006F [0x2F] Lilisette (ID: 17335124/0x01088354)->Render.Flags0 &= ~0x80000 // Bit 19
 22: 0x0075 [0x2F] Portia (ID: 17335125/0x01088355)->Render.Flags0 &= ~0x80000 // Bit 19
 23: 0x007B [0x2F] Unnamed NPC (ID: 17335126/0x01088356)->Render.Flags0 &= ~0x80000 // Bit 19
 24: 0x0081 [0x2F] Unnamed NPC (ID: 17335127/0x01088357)->Render.Flags0 &= ~0x80000 // Bit 19
 25: 0x0087 [0x4E] SET_ENTITY_HIDE_FLAG: Show Lilisette (ID: 17335124/0x01088354)
 26: 0x008D [0x4E] SET_ENTITY_HIDE_FLAG: Show Portia (ID: 17335125/0x01088355)
 27: 0x0093 [0x4E] SET_ENTITY_HIDE_FLAG: Show Unnamed NPC (ID: 17335126/0x01088356)
 28: 0x0099 [0x4E] SET_ENTITY_HIDE_FLAG: Show Unnamed NPC (ID: 17335127/0x01088357)
 29: 0x009F [0x27] REQ_SET(priority=0x05, entity_id=Unnamed NPC (ID: 17335127/0x01088357), tag_num=0x02)
 30: 0x00A6 [0xBA] SET_ENTITY_POSITION(entity_id=Lilisette (ID: 17335124/0x01088354), pos_x=-324.783*, pos_z=149.837*, pos_y=-100.157*, direction=74.1°*)
 31: 0x00B3 [0xBA] SET_ENTITY_POSITION(entity_id=Portia (ID: 17335125/0x01088355), pos_x=-326.764*, pos_z=150.948*, pos_y=-99.914*, direction=37.5°*)
 32: 0x00C0 [0xBA] SET_ENTITY_POSITION(entity_id=LocalPlayer, pos_x=-325.247*, pos_z=151.775*, pos_y=-99.839*, direction=51.2°*)
 33: 0x00CD [0xBA] SET_ENTITY_POSITION(entity_id=Unnamed NPC (ID: 17335127/0x01088357), pos_x=-325.247*, pos_z=151.775*, pos_y=-99.839*, direction=51.2°*)
 34: 0x00DA [0xBA] SET_ENTITY_POSITION(entity_id=Unnamed NPC (ID: 17335126/0x01088356), pos_x=-322.312*, pos_z=129.737*, pos_y=-99.715*, direction=163.7°*)
 35: 0x00E7 [0x80] LOAD_WAIT(entity=Lilisette (ID: 17335124/0x01088354))
 36: 0x00EC [0x80] LOAD_WAIT(entity=Portia (ID: 17335125/0x01088355))
 37: 0x00F1 [0x80] LOAD_WAIT(entity=LocalPlayer)
 38: 0x00F6 [0x80] LOAD_WAIT(entity=Unnamed NPC (ID: 17335126/0x01088356))
 39: 0x00FB [0x4A] LocalPlayer looks at Lilisette (ID: 17335124/0x01088354)
 40: 0x0104 [0x4A] Unnamed NPC (ID: 17335127/0x01088357) looks at Lilisette (ID: 17335124/0x01088354)
 41: 0x010D [0x5C] MUSIC_CONTROL: Set Idle (Day) music to song 41*
 42: 0x0111 [0x5C] MUSIC_CONTROL: Set Idle (Night) music to song 41*
 43: 0x0115 [0x9A] WAIT_MUSIC_SERVER()
 44: 0x0116 [0x45] LOAD_SCHEDULED_TASK: Load scheduler "s112" with entities [EventEntity, EventEntity], work=[402*, 0*]
 45: 0x0127 [0x45] LOAD_SCHEDULED_TASK: Load scheduler "fdi1" with entities [EventEntity, EventEntity], work=[200*, 0*]
 46: 0x0138 [0x55] WAIT_LOAD_SCHEDULER: Wait for scheduler "fdi1" with entities [EventEntity, EventEntity], work=200*
 47: 0x0147 [0x2B] Unnamed NPC (ID: 17335126/0x01088356) [7964*]:
    → "Nya na na na na`t"
 48: 0x014E [0x23] WAIT_FOR_DIALOG_INTERACTION
 49: 0x014F [0x52] END_LOAD_SCHEDULER: End scheduler "s112" with entities [EventEntity, EventEntity], work=402*
 50: 0x015E [0x45] LOAD_SCHEDULED_TASK: Load scheduler "s113" with entities [EventEntity, EventEntity], work=[402*, 0*]
 51: 0x016F [0x2B] Unnamed NPC (ID: 17335126/0x01088356) [7965*]:
    → "The eternal night is end...t"
 52: 0x0176 [0x23] WAIT_FOR_DIALOG_INTERACTION
 53: 0x0177 [0x52] END_LOAD_SCHEDULER: End scheduler "s113" with entities [EventEntity, EventEntity], work=402*
 54: 0x0186 [0x45] LOAD_SCHEDULED_TASK: Load scheduler "s114" with entities [EventEntity, EventEntity], work=[402*, 0*]
 55: 0x0197 [0x55] WAIT_LOAD_SCHEDULER: Wait for scheduler "s114" with entities [EventEntity, EventEntity], work=402*
 56: 0x01A6 [0x1C] WAIT(30* ticks)
 57: 0x01A9 [0x45] LOAD_SCHEDULED_TASK: Load scheduler "s115" with entities [EventEntity, EventEntity], work=[402*, 0*]
 58: 0x01BA [0x2B] Lilisette (ID: 17335124/0x01088354) [7966*]:
    → "Geesh, this one isn't showing any sign of movement. It might as well be a statue."
 59: 0x01C1 [0x23] WAIT_FOR_DIALOG_INTERACTION
 60: 0x01C2 [0x2B] Portia (ID: 17335125/0x01088355) [7967*]:
    → "It certainly seems more vigilant than the others."
 61: 0x01C9 [0x23] WAIT_FOR_DIALOG_INTERACTION
 62: 0x01CA [0x52] END_LOAD_SCHEDULER: End scheduler "s115" with entities [EventEntity, EventEntity], work=402*
 63: 0x01D9 [0x45] LOAD_SCHEDULED_TASK: Load scheduler "s116" with entities [EventEntity, EventEntity], work=[402*, 0*]
 64: 0x01EA [0x5B] LOAD_EXT_SCHEDULER: Load scheduler "tha0" with entities [Lilisette (ID: 17335124/0x01088354), Lilisette (ID: 17335124/0x01088354)], work=2134*
 65: 0x01F9 [0x2B] Lilisette (ID: 17335124/0x01088354) [7968*]:
    → "If only we had a way to draw its attention..."
 66: 0x0200 [0x23] WAIT_FOR_DIALOG_INTERACTION
 67: 0x0201 [0x53] WAIT_SCHEDULER_TASK: Wait for scheduler "tha0" with entities [Lilisette (ID: 17335124/0x01088354), Lilisette (ID: 17335124/0x01088354)]
 68: 0x020E [0x52] END_LOAD_SCHEDULER: End scheduler "s116" with entities [EventEntity, EventEntity], work=402*
 69: 0x021D [0x45] LOAD_SCHEDULED_TASK: Load scheduler "s117" with entities [EventEntity, EventEntity], work=[402*, 0*]
 70: 0x022E [0x5B] LOAD_EXT_SCHEDULER: Load scheduler "tha1" with entities [Lilisette (ID: 17335124/0x01088354), Lilisette (ID: 17335124/0x01088354)], work=2134*
 71: 0x023D [0x53] WAIT_SCHEDULER_TASK: Wait for scheduler "tha1" with entities [Lilisette (ID: 17335124/0x01088354), Lilisette (ID: 17335124/0x01088354)]
 72: 0x024A [0x4B] UPDATE_ENTITY_YAW(entity=Lilisette (ID: 17335124/0x01088354), yaw=14.2°*)
 73: 0x0251 [0x1C] WAIT(30* ticks)
 74: 0x0254 [0x2B] Lilisette (ID: 17335124/0x01088354) [7969*]:
    → "Hmmm... How about...this?"
 75: 0x025B [0x23] WAIT_FOR_DIALOG_INTERACTION
 76: 0x025C [0x52] END_LOAD_SCHEDULER: End scheduler "s117" with entities [EventEntity, EventEntity], work=402*
 77: 0x026B [0x45] LOAD_SCHEDULED_TASK: Load scheduler "s118" with entities [EventEntity, EventEntity], work=[402*, 0*]
 78: 0x027C [0x5B] LOAD_EXT_SCHEDULER: Load scheduler "pnt0" with entities [Lilisette (ID: 17335124/0x01088354), Lilisette (ID: 17335124/0x01088354)], work=2531*
 79: 0x028B [0x93] DISPLAY_ITEM_INFO(item_id=16273*)
 80: 0x028E [0x03] Work_Zone[2] = 16273*
 81: 0x0293 [0x48] [System] [7970*]:
    → "Lilisette produces $0 from her pocket!"
 82: 0x0296 [0x1C] WAIT(90* ticks)
 83: 0x0299 [0x53] WAIT_SCHEDULER_TASK: Wait for scheduler "pnt0" with entities [Lilisette (ID: 17335124/0x01088354), Lilisette (ID: 17335124/0x01088354)]
 84: 0x02A6 [0x93] DISPLAY_ITEM_INFO(item_id=0*)
 85: 0x02A9 [0x52] END_LOAD_SCHEDULER: End scheduler "s118" with entities [EventEntity, EventEntity], work=402*
 86: 0x02B8 [0x45] LOAD_SCHEDULED_TASK: Load scheduler "s119" with entities [EventEntity, EventEntity], work=[402*, 0*]
 87: 0x02C9 [0x66] LOAD_EXT_SCHEDULER_MAIN: Load scheduler "thk1" with entities [Portia (ID: 17335125/0x01088355), Portia (ID: 17335125/0x01088355)], work=19*
 88: 0x02D8 [0x2B] Portia (ID: 17335125/0x01088355) [7971*]:
    → "What is it? What does it do?"
 89: 0x02DF [0x23] WAIT_FOR_DIALOG_INTERACTION
 90: 0x02E0 [0x5B] LOAD_EXT_SCHEDULER: Load scheduler "tla0" with entities [Lilisette (ID: 17335124/0x01088354), Lilisette (ID: 17335124/0x01088354)], work=2134*
 91: 0x02EF [0x2B] Lilisette (ID: 17335124/0x01088354) [7972*]:
    → "It's an enchanted item that gives its wearer the power to transform into a cuddly, chirping chocobo chick at will!"
 92: 0x02F6 [0x23] WAIT_FOR_DIALOG_INTERACTION
 93: 0x02F7 [0x5B] LOAD_EXT_SCHEDULER: Load scheduler "tla1" with entities [Lilisette (ID: 17335124/0x01088354), Lilisette (ID: 17335124/0x01088354)], work=2134*
 94: 0x0306 [0x53] WAIT_SCHEDULER_TASK: Wait for scheduler "tla1" with entities [Lilisette (ID: 17335124/0x01088354), Lilisette (ID: 17335124/0x01088354)]
 95: 0x0313 [0x52] END_LOAD_SCHEDULER: End scheduler "s119" with entities [EventEntity, EventEntity], work=402*
 96: 0x0322 [0x45] LOAD_SCHEDULED_TASK: Load scheduler "s120" with entities [EventEntity, EventEntity], work=[402*, 0*]
 97: 0x0333 [0x66] LOAD_EXT_SCHEDULER_MAIN: Load scheduler "thk2" with entities [Portia (ID: 17335125/0x01088355), Portia (ID: 17335125/0x01088355)], work=19*
 98: 0x0342 [0x4A] Lilisette (ID: 17335124/0x01088354) looks at LocalPlayer
 99: 0x034B [0x7B] Lilisette (ID: 17335124/0x01088354) stops talking
100: 0x0350 [0x1C] WAIT(30* ticks)
101: 0x0353 [0x5B] LOAD_EXT_SCHEDULER: Load scheduler "pnt0" with entities [Lilisette (ID: 17335124/0x01088354), Lilisette (ID: 17335124/0x01088354)], work=2531*
102: 0x0362 [0x1C] WAIT(120* ticks)
103: 0x0365 [0x27] REQ_SET(priority=0x05, entity_id=LocalPlayer, tag_num=0x08)
104: 0x036C [0x45] LOAD_SCHEDULED_TASK: Load scheduler "ovl1" with entities [LocalPlayer, LocalPlayer], work=[200*, 0*]
105: 0x037D [0x52] END_LOAD_SCHEDULER: End scheduler "s120" with entities [EventEntity, EventEntity], work=402*
106: 0x038C [0x45] LOAD_SCHEDULED_TASK: Load scheduler "s121" with entities [EventEntity, EventEntity], work=[402*, 0*]
107: 0x039D [0x27] REQ_SET(priority=0x05, entity_id=Unnamed NPC (ID: 17335127/0x01088357), tag_num=0x03)
108: 0x03A4 [0x48] [System] [7973*]:
    → "<Player> transforms into an irresistibly cute chocobo chick!"
109: 0x03A7 [0x1C] WAIT(120* ticks)
110: 0x03AA [0x52] END_LOAD_SCHEDULER: End scheduler "s121" with entities [EventEntity, EventEntity], work=402*
111: 0x03B9 [0x45] LOAD_SCHEDULED_TASK: Load scheduler "s122" with entities [EventEntity, EventEntity], work=[402*, 0*]
112: 0x03CA [0x5B] LOAD_EXT_SCHEDULER: Load scheduler "tla0" with entities [Lilisette (ID: 17335124/0x01088354), Lilisette (ID: 17335124/0x01088354)], work=2134*
113: 0x03D9 [0x2B] Lilisette (ID: 17335124/0x01088354) [7974*]:
    → "The high-pitched chirping of a chocobo chick will surely draw Cait Sith's attention. After all, no self-respecting feline could possibly resist such delectable bait!"
114: 0x03E0 [0x23] WAIT_FOR_DIALOG_INTERACTION
115: 0x03E1 [0x2B] Lilisette (ID: 17335124/0x01088354) [7975*]:
    → "But chirping alone is bound to get old. Be sure to mix things up a bit to keep our target on the hook."
116: 0x03E8 [0x23] WAIT_FOR_DIALOG_INTERACTION
117: 0x03E9 [0x52] END_LOAD_SCHEDULER: End scheduler "s122" with entities [EventEntity, EventEntity], work=402*
118: 0x03F8 [0x45] LOAD_SCHEDULED_TASK: Load scheduler "s130" with entities [EventEntity, EventEntity], work=[402*, 0*]
119: 0x0409 [0x2B] Lilisette (ID: 17335124/0x01088354) [7976*]:
    → "Keep in mind, though, that the enchantment lasts only for a short duration."
120: 0x0410 [0x23] WAIT_FOR_DIALOG_INTERACTION
121: 0x0411 [0x52] END_LOAD_SCHEDULER: End scheduler "s130" with entities [EventEntity, EventEntity], work=402*
122: 0x0420 [0x45] LOAD_SCHEDULED_TASK: Load scheduler "s123" with entities [EventEntity, EventEntity], work=[402*, 0*]
123: 0x0431 [0x2B] Lilisette (ID: 17335124/0x01088354) [7977*]:
    → "Once you've lured Cait Sith close enough, I'll stun it silly! We only have one chance at this! Failure is not an option!"
124: 0x0438 [0x23] WAIT_FOR_DIALOG_INTERACTION
125: 0x0439 [0x5B] LOAD_EXT_SCHEDULER: Load scheduler "tla1" with entities [Lilisette (ID: 17335124/0x01088354), Lilisette (ID: 17335124/0x01088354)], work=2134*
126: 0x0448 [0x5D] SET_MUSIC_VOLUME(volume=0*, fade_time=120*)
127: 0x044D [0x45] LOAD_SCHEDULED_TASK: Load scheduler "fdo1" with entities [EventEntity, EventEntity], work=[200*, 0*]
128: 0x045E [0x55] WAIT_LOAD_SCHEDULER: Wait for scheduler "fdo1" with entities [EventEntity, EventEntity], work=200*
129: 0x046D [0x52] END_LOAD_SCHEDULER: End scheduler "s123" with entities [EventEntity, EventEntity], work=402*
130: 0x047C [0xBA] SET_ENTITY_POSITION(entity_id=LocalPlayer, pos_x=-314.687*, pos_z=132.314*, pos_y=-99.709*, direction=160.3°*)
131: 0x0489 [0x5C] MUSIC_CONTROL: Set Idle (Day) music to song 163*
132: 0x048D [0x5C] MUSIC_CONTROL: Set Idle (Night) music to song 163*
133: 0x0491 [0x9A] WAIT_MUSIC_SERVER()

SUBROUTINE_0492:
134: 0x0492 [0xBA] SET_ENTITY_POSITION(entity_id=Unnamed NPC (ID: 17335126/0x01088356), pos_x=-322.312*, pos_z=129.737*, pos_y=-99.715*, direction=163.7°*)
135: 0x049F [0xBA] SET_ENTITY_POSITION(entity_id=Unnamed NPC (ID: 17335127/0x01088357), pos_x=-314.687*, pos_z=132.314*, pos_y=-99.709*, direction=160.3°*)
136: 0x04AC [0x80] LOAD_WAIT(entity=Unnamed NPC (ID: 17335126/0x01088356))
137: 0x04B1 [0x80] LOAD_WAIT(entity=Unnamed NPC (ID: 17335127/0x01088357))
138: 0x04B6 [0x4A] Portia (ID: 17335125/0x01088355) looks at Lilisette (ID: 17335124/0x01088354)
139: 0x04BF [0x4A] Lilisette (ID: 17335124/0x01088354) looks at Unnamed NPC (ID: 17335127/0x01088357)
140: 0x04C8 [0x7B] Lilisette (ID: 17335124/0x01088354) stops talking
141: 0x04CD [0x27] REQ_SET(priority=0x05, entity_id=Unnamed NPC (ID: 17335126/0x01088356), tag_num=0x32)
142: 0x04D4 [0x5B] LOAD_EXT_SCHEDULER: Load scheduler 0xFEFEFE00 with entities [Unnamed NPC (ID: 17335127/0x01088357), Unnamed NPC (ID: 17335127/0x01088357)], work=872*
143: 0x04E3 [0x5B] LOAD_EXT_SCHEDULER: Load scheduler 0xFEFEFE00 with entities [Unnamed NPC (ID: 17335127/0x01088357), Unnamed NPC (ID: 17335127/0x01088357)], work=224*
144: 0x04F2 [0x45] LOAD_SCHEDULED_TASK: Load scheduler "s093" with entities [EventEntity, EventEntity], work=[402*, 0*]
145: 0x0503 [0x45] LOAD_SCHEDULED_TASK: Load scheduler "fdi1" with entities [EventEntity, EventEntity], work=[200*, 0*]
146: 0x0514 [0x55] WAIT_LOAD_SCHEDULER: Wait for scheduler "fdi1" with entities [EventEntity, EventEntity], work=200*
147: 0x0523 [0x03] ExtData[1]->WorkLocal[1] = 4*
148: 0x0528 [0x03] Work_Zone[37] = 0*
149: 0x052D [0x03] Work_Zone[39] = 0*
150: 0x0532 [0x03] ExtData[1]->WorkLocal[2] = 0*
151: 0x0537 [0x03] ExtData[1]->WorkLocal[6] = 0*
152: 0x053C [0x03] ExtData[1]->WorkLocal[3] = 0*
153: 0x0541 [0x1C] WAIT(30* ticks)
154: 0x0544 [0x27] REQ_SET(priority=0x05, entity_id=Lilisette (ID: 17335124/0x01088354), tag_num=0x2D)
155: 0x054B [0x03] Work_Zone[38] = 0*

SUBROUTINE_0550:
156: 0x0550 [0x02] IF !(Work_Zone[37] == 0*) GOTO 0x0BB5
157: 0x0558 [0x02] IF !(Work_Zone[39] == 1*) GOTO 0x0565
158: 0x0560 [0x03] ExtData[1]->WorkLocal[1] = 0*
159: 0x0565 [0x24] CREATE_DIALOG(message_id=7978*, default_option=0*, option_flags=ExtData[1]->WorkLocal[1])
    → "What will you do? [Chirp spiritedly./Expose your back./Stun it silly!]"
160: 0x056C [0x25] WAIT_DIALOG_SELECT()
161: 0x056D [0x02] IF !(Work_Zone[0] == 0*) GOTO 0x0760
162: 0x0575 [0x02] IF !(Work_Zone[38] == 0*) GOTO 0x075D
163: 0x057D [0x5B] LOAD_EXT_SCHEDULER: Load scheduler "hi07" with entities [Unnamed NPC (ID: 17335127/0x01088357), Unnamed NPC (ID: 17335127/0x01088357)], work=872*
164: 0x058C [0x1C] WAIT(30* ticks)
165: 0x058F [0x5B] LOAD_EXT_SCHEDULER: Load scheduler "1005" with entities [Unnamed NPC (ID: 17335127/0x01088357), Unnamed NPC (ID: 17335127/0x01088357)], work=224*
166: 0x059E [0x1C] WAIT(30* ticks)
167: 0x05A1 [0x02] IF !(Work_Zone[39] == 1*) GOTO 0x06A8
168: 0x05A9 [0xB4] UI_WINDOW_STRING_HANDLER(case=0x0B - Destroy event time window)
169: 0x05AB [0x03] Work_Zone[38] = 1*
170: 0x05B0 [0xB4] UI_WINDOW_STRING_HANDLER(case=0x06 - Toggle query message flag, flag_value=0x00)
171: 0x05B3 [0x03] Work_Zone[1] = 2*
172: 0x05B8 [0x43] SEND_EVENT_UPDATE: Send pending tag to server (packet 0x005B)
173: 0x05BA [0x43] SEND_EVENT_UPDATE: Check pending flag (skip if not pending)
174: 0x05BC [0x5B] LOAD_EXT_SCHEDULER: Load scheduler "bik0" with entities [Unnamed NPC (ID: 17335126/0x01088356), Unnamed NPC (ID: 17335126/0x01088356)], work=1311*
175: 0x05CB [0x2B] Unnamed NPC (ID: 17335126/0x01088356) [7981*]:
    → "Meow meow meow!? Wh-what am I doing, straying away from my hiding place? Wandering about?"
176: 0x05D2 [0x23] WAIT_FOR_DIALOG_INTERACTION
177: 0x05D3 [0x5B] LOAD_EXT_SCHEDULER: Load scheduler "thb0" with entities [Lilisette (ID: 17335124/0x01088354), Lilisette (ID: 17335124/0x01088354)], work=2133*
178: 0x05E2 [0x1C] WAIT(30* ticks)
179: 0x05E5 [0x02] IF !(ExtData[1]->WorkLocal[4] == 2*) GOTO 0x0645
180: 0x05ED [0x45] LOAD_SCHEDULED_TASK: Load scheduler "s132" with entities [EventEntity, EventEntity], work=[402*, 0*]
181: 0x05FE [0x2B] Lilisette (ID: 17335124/0x01088354) [7984*]:
    → "This is giving me a splitting headache..."
182: 0x0605 [0x23] WAIT_FOR_DIALOG_INTERACTION
183: 0x0606 [0x52] END_LOAD_SCHEDULER: End scheduler "s132" with entities [EventEntity, EventEntity], work=402*
184: 0x0615 [0x45] LOAD_SCHEDULED_TASK: Load scheduler "s133" with entities [EventEntity, EventEntity], work=[402*, 0*]
185: 0x0626 [0x66] LOAD_EXT_SCHEDULER_MAIN: Load scheduler "tlk0" with entities [Portia (ID: 17335125/0x01088355), Portia (ID: 17335125/0x01088355)], work=19*
186: 0x0635 [0x2B] Portia (ID: 17335125/0x01088355) [7985*]:
    → "Looks like we've gone and made it wary. We'll have to wait awhile until it grows complacent again."
187: 0x063C [0x23] WAIT_FOR_DIALOG_INTERACTION
188: 0x063D [0x03] Work_Zone[37] = 3*
189: 0x0642 [0x01] GOTO 0x06A5
190: 0x0645 [0x45] LOAD_SCHEDULED_TASK: Load scheduler "s131" with entities [EventEntity, EventEntity], work=[402*, 0*]
191: 0x0656 [0x2B] Lilisette (ID: 17335124/0x01088354) [7983*]:
    → "Awww, you almost had it, <Player>! Pull up your socks and let's try again!"
192: 0x065D [0x23] WAIT_FOR_DIALOG_INTERACTION
193: 0x065E [0x07] ExtData[1]->WorkLocal[4] += 1*
194: 0x0663 [0x45] LOAD_SCHEDULED_TASK: Load scheduler "fdo1" with entities [EventEntity, EventEntity], work=[200*, 0*]
195: 0x0674 [0x55] WAIT_LOAD_SCHEDULER: Wait for scheduler "fdo1" with entities [EventEntity, EventEntity], work=200*
196: 0x0683 [0x52] END_LOAD_SCHEDULER: End scheduler "s131" with entities [EventEntity, EventEntity], work=402*
197: 0x0692 [0x53] WAIT_SCHEDULER_TASK: Wait for scheduler "bik0" with entities [Unnamed NPC (ID: 17335126/0x01088356), Unnamed NPC (ID: 17335126/0x01088356)]
198: 0x069F [0xB4] UI_WINDOW_STRING_HANDLER(case=0x06 - Toggle query message flag, flag_value=0x01)
199: 0x06A2 [0x01] GOTO 0x0492

SUBROUTINE_06A5:
200: 0x06A5 [0x01] GOTO 0x075D
201: 0x06A8 [0x07] ExtData[1]->WorkLocal[3] += 1*
202: 0x06AD [0x02] IF !(ExtData[1]->WorkLocal[3] < 4*) GOTO 0x06C7
203: 0x06B5 [0x4B] UPDATE_ENTITY_YAW(entity=Unnamed NPC (ID: 17335126/0x01088356), yaw=10.1°*)
204: 0x06BC [0x1C] WAIT(30* ticks)
205: 0x06BF [0x03] ExtData[1]->WorkLocal[6] = 0*
206: 0x06C4 [0x01] GOTO 0x075D
207: 0x06C7 [0x02] IF !(ExtData[1]->WorkLocal[6] == 0*) GOTO 0x06E1
208: 0x06CF [0x4B] UPDATE_ENTITY_YAW(entity=Unnamed NPC (ID: 17335126/0x01088356), yaw=21.2°*)
209: 0x06D6 [0x1C] WAIT(60* ticks)
210: 0x06D9 [0x03] ExtData[1]->WorkLocal[6] = 1*
211: 0x06DE [0x01] GOTO 0x075D
212: 0x06E1 [0x02] IF !(ExtData[1]->WorkLocal[6] == 1*) GOTO 0x075D
213: 0x06E9 [0x02] IF !(ExtData[1]->WorkLocal[2] == 0*) GOTO 0x073B
214: 0x06F1 [0x13] ExtData[1]->WorkLocal[5] = rand() % 2*
215: 0x06F6 [0x02] IF !(ExtData[1]->WorkLocal[5] == 0*) GOTO 0x0713
216: 0x06FE [0x27] REQ_SET(priority=0x05, entity_id=Unnamed NPC (ID: 17335126/0x01088356), tag_num=0x33)
217: 0x0705 [0x2A] GET_REQ_LEVEL(level=5, entity_id=Unnamed NPC (ID: 17335126/0x01088356))
218: 0x070B [0x03] ExtData[1]->WorkLocal[2] = 1*
219: 0x0710 [0x01] GOTO 0x0738
220: 0x0713 [0x02] IF !(ExtData[1]->WorkLocal[5] == 1*) GOTO 0x071E
221: 0x071B [0x01] GOTO 0x0738
222: 0x071E [0x02] IF !(ExtData[1]->WorkLocal[5] == 2*) GOTO 0x0738
223: 0x0726 [0x4B] UPDATE_ENTITY_YAW(entity=Unnamed NPC (ID: 17335126/0x01088356), yaw=10.1°*)
224: 0x072D [0x1C] WAIT(30* ticks)
225: 0x0730 [0x03] ExtData[1]->WorkLocal[6] = 0*
226: 0x0735 [0x01] GOTO 0x0738

SUBROUTINE_0738:
227: 0x0738 [0x01] GOTO 0x075A
228: 0x073B [0x27] REQ_SET(priority=0x05, entity_id=Unnamed NPC (ID: 17335126/0x01088356), tag_num=0x33)
229: 0x0742 [0x2A] GET_REQ_LEVEL(level=5, entity_id=Unnamed NPC (ID: 17335126/0x01088356))
230: 0x0748 [0x07] ExtData[1]->WorkLocal[2] += 1*
231: 0x074D [0x02] IF !(ExtData[1]->WorkLocal[2] == 3*) GOTO 0x075A
232: 0x0755 [0x03] ExtData[1]->WorkLocal[2] = 0*

SUBROUTINE_075A:
233: 0x075A [0x01] GOTO 0x075D

SUBROUTINE_075D:
234: 0x075D [0x01] GOTO 0x0BB2
235: 0x0760 [0x02] IF !(Work_Zone[0] == 1*) GOTO 0x090F
236: 0x0768 [0x02] IF !(Work_Zone[38] == 0*) GOTO 0x090C
237: 0x0770 [0x4B] UPDATE_ENTITY_YAW(entity=Unnamed NPC (ID: 17335127/0x01088357), yaw=0.5°*)
238: 0x0777 [0x1C] WAIT(45* ticks)
239: 0x077A [0x02] IF !(Work_Zone[39] == 1*) GOTO 0x0881
240: 0x0782 [0xB4] UI_WINDOW_STRING_HANDLER(case=0x0B - Destroy event time window)
241: 0x0784 [0x03] Work_Zone[38] = 1*
242: 0x0789 [0xB4] UI_WINDOW_STRING_HANDLER(case=0x06 - Toggle query message flag, flag_value=0x00)
243: 0x078C [0x03] Work_Zone[1] = 2*
244: 0x0791 [0x43] SEND_EVENT_UPDATE: Send pending tag to server (packet 0x005B)
245: 0x0793 [0x43] SEND_EVENT_UPDATE: Check pending flag (skip if not pending)
246: 0x0795 [0x5B] LOAD_EXT_SCHEDULER: Load scheduler "bik0" with entities [Unnamed NPC (ID: 17335126/0x01088356), Unnamed NPC (ID: 17335126/0x01088356)], work=1311*
247: 0x07A4 [0x2B] Unnamed NPC (ID: 17335126/0x01088356) [7981*]:
    → "Meow meow meow!? Wh-what am I doing, straying away from my hiding place? Wandering about?"
248: 0x07AB [0x23] WAIT_FOR_DIALOG_INTERACTION
249: 0x07AC [0x5B] LOAD_EXT_SCHEDULER: Load scheduler "thb0" with entities [Lilisette (ID: 17335124/0x01088354), Lilisette (ID: 17335124/0x01088354)], work=2133*
250: 0x07BB [0x1C] WAIT(30* ticks)
251: 0x07BE [0x02] IF !(ExtData[1]->WorkLocal[4] == 2*) GOTO 0x081E
252: 0x07C6 [0x45] LOAD_SCHEDULED_TASK: Load scheduler "s132" with entities [EventEntity, EventEntity], work=[402*, 0*]
253: 0x07D7 [0x2B] Lilisette (ID: 17335124/0x01088354) [7984*]:
    → "This is giving me a splitting headache..."
254: 0x07DE [0x23] WAIT_FOR_DIALOG_INTERACTION
255: 0x07DF [0x52] END_LOAD_SCHEDULER: End scheduler "s132" with entities [EventEntity, EventEntity], work=402*
256: 0x07EE [0x45] LOAD_SCHEDULED_TASK: Load scheduler "s133" with entities [EventEntity, EventEntity], work=[402*, 0*]
257: 0x07FF [0x66] LOAD_EXT_SCHEDULER_MAIN: Load scheduler "tlk0" with entities [Portia (ID: 17335125/0x01088355), Portia (ID: 17335125/0x01088355)], work=19*
258: 0x080E [0x2B] Portia (ID: 17335125/0x01088355) [7985*]:
    → "Looks like we've gone and made it wary. We'll have to wait awhile until it grows complacent again."
259: 0x0815 [0x23] WAIT_FOR_DIALOG_INTERACTION
260: 0x0816 [0x03] Work_Zone[37] = 3*
261: 0x081B [0x01] GOTO 0x087E
262: 0x081E [0x45] LOAD_SCHEDULED_TASK: Load scheduler "s131" with entities [EventEntity, EventEntity], work=[402*, 0*]
263: 0x082F [0x2B] Lilisette (ID: 17335124/0x01088354) [7983*]:
    → "Awww, you almost had it, <Player>! Pull up your socks and let's try again!"
264: 0x0836 [0x23] WAIT_FOR_DIALOG_INTERACTION
265: 0x0837 [0x07] ExtData[1]->WorkLocal[4] += 1*
266: 0x083C [0x45] LOAD_SCHEDULED_TASK: Load scheduler "fdo1" with entities [EventEntity, EventEntity], work=[200*, 0*]
267: 0x084D [0x55] WAIT_LOAD_SCHEDULER: Wait for scheduler "fdo1" with entities [EventEntity, EventEntity], work=200*
268: 0x085C [0x52] END_LOAD_SCHEDULER: End scheduler "s131" with entities [EventEntity, EventEntity], work=402*
269: 0x086B [0x53] WAIT_SCHEDULER_TASK: Wait for scheduler "bik0" with entities [Unnamed NPC (ID: 17335126/0x01088356), Unnamed NPC (ID: 17335126/0x01088356)]
270: 0x0878 [0xB4] UI_WINDOW_STRING_HANDLER(case=0x06 - Toggle query message flag, flag_value=0x01)
271: 0x087B [0x01] GOTO 0x0492

SUBROUTINE_087E:
272: 0x087E [0x01] GOTO 0x090C
273: 0x0881 [0x03] ExtData[1]->WorkLocal[2] = 0*
274: 0x0886 [0x02] IF !(ExtData[1]->WorkLocal[3] < 4*) GOTO 0x08A0
275: 0x088E [0x4B] UPDATE_ENTITY_YAW(entity=Unnamed NPC (ID: 17335126/0x01088356), yaw=21.2°*)
276: 0x0895 [0x1C] WAIT(60* ticks)
277: 0x0898 [0x03] ExtData[1]->WorkLocal[6] = 1*
278: 0x089D [0x01] GOTO 0x08FD
279: 0x08A0 [0x02] IF !(ExtData[1]->WorkLocal[6] == 0*) GOTO 0x08AB
280: 0x08A8 [0x01] GOTO 0x08FD
281: 0x08AB [0x02] IF !(ExtData[1]->WorkLocal[6] == 1*) GOTO 0x08FD
282: 0x08B3 [0x13] ExtData[1]->WorkLocal[5] = rand() % 2*
283: 0x08B8 [0x02] IF !(ExtData[1]->WorkLocal[5] == 0*) GOTO 0x08D5
284: 0x08C0 [0x27] REQ_SET(priority=0x05, entity_id=Unnamed NPC (ID: 17335126/0x01088356), tag_num=0x33)
285: 0x08C7 [0x2A] GET_REQ_LEVEL(level=5, entity_id=Unnamed NPC (ID: 17335126/0x01088356))
286: 0x08CD [0x03] ExtData[1]->WorkLocal[2] = 1*
287: 0x08D2 [0x01] GOTO 0x08FA
288: 0x08D5 [0x02] IF !(ExtData[1]->WorkLocal[5] == 1*) GOTO 0x08E0
289: 0x08DD [0x01] GOTO 0x08FA
290: 0x08E0 [0x02] IF !(ExtData[1]->WorkLocal[5] == 2*) GOTO 0x08FA
291: 0x08E8 [0x4B] UPDATE_ENTITY_YAW(entity=Unnamed NPC (ID: 17335126/0x01088356), yaw=10.1°*)
292: 0x08EF [0x1C] WAIT(30* ticks)
293: 0x08F2 [0x03] ExtData[1]->WorkLocal[6] = 0*
294: 0x08F7 [0x01] GOTO 0x08FA

SUBROUTINE_08FA:
295: 0x08FA [0x01] GOTO 0x08FD

SUBROUTINE_08FD:
296: 0x08FD [0x03] ExtData[1]->WorkLocal[3] = 0*
297: 0x0902 [0x4B] UPDATE_ENTITY_YAW(entity=Unnamed NPC (ID: 17335127/0x01088357), yaw=10.0°*)
298: 0x0909 [0x1C] WAIT(30* ticks)

SUBROUTINE_090C:
299: 0x090C [0x01] GOTO 0x0BB2
300: 0x090F [0x02] IF !(Work_Zone[0] == 2*) GOTO 0x0BB2
301: 0x0917 [0x02] IF !(Work_Zone[38] == 0*) GOTO 0x0BAF
302: 0x091F [0x7A] VM_CONTROL: Reset VM for LocalPlayer
303: 0x0925 [0xB4] UI_WINDOW_STRING_HANDLER(case=0x0B - Destroy event time window)
304: 0x0927 [0x03] Work_Zone[38] = 1*
305: 0x092C [0xB4] UI_WINDOW_STRING_HANDLER(case=0x06 - Toggle query message flag, flag_value=0x00)
306: 0x092F [0x5D] SET_MUSIC_VOLUME(volume=0*, fade_time=120*)
307: 0x0934 [0x45] LOAD_SCHEDULED_TASK: Load scheduler "fdo1" with entities [EventEntity, EventEntity], work=[200*, 0*]
308: 0x0945 [0x55] WAIT_LOAD_SCHEDULER: Wait for scheduler "fdo1" with entities [EventEntity, EventEntity], work=200*
309: 0x0954 [0x52] END_LOAD_SCHEDULER: End scheduler "s093" with entities [EventEntity, EventEntity], work=402*
310: 0x0963 [0x7B] LocalPlayer stops talking
311: 0x0968 [0x59] UPDATE_ENTITY_DATA: Lilisette (ID: 17335124/0x01088354)->Render.Flags0 |= 0x200000
312: 0x096F [0x59] UPDATE_ENTITY_DATA: Unnamed NPC (ID: 17335126/0x01088356)->Render.Flags0 |= 0x200000
313: 0x0976 [0xBA] SET_ENTITY_POSITION(entity_id=Lilisette (ID: 17335124/0x01088354), pos_x=-315.400*, pos_z=133.613*, pos_y=-99.557*, direction=107.8°*)
314: 0x0983 [0xBA] SET_ENTITY_POSITION(entity_id=LocalPlayer, pos_x=-314.687*, pos_z=132.314*, pos_y=-99.709*, direction=160.3°*)
315: 0x0990 [0xBA] SET_ENTITY_POSITION(entity_id=Unnamed NPC (ID: 17335126/0x01088356), pos_x=-316.089*, pos_z=132.059*, pos_y=-99.639*, direction=339.3°*)
316: 0x099D [0x80] LOAD_WAIT(entity=Lilisette (ID: 17335124/0x01088354))
317: 0x09A2 [0x80] LOAD_WAIT(entity=Unnamed NPC (ID: 17335126/0x01088356))
318: 0x09A7 [0x4A] LocalPlayer looks at Unnamed NPC (ID: 17335126/0x01088356)
319: 0x09B0 [0x1C] WAIT(60* ticks)
320: 0x09B3 [0x5B] LOAD_EXT_SCHEDULER: Load scheduler "ndml" with entities [Lilisette (ID: 17335124/0x01088354), Lilisette (ID: 17335124/0x01088354)], work=2537*
321: 0x09C2 [0x45] LOAD_SCHEDULED_TASK: Load scheduler "s134" with entities [EventEntity, EventEntity], work=[402*, 0*]
322: 0x09D3 [0x1C] WAIT(15* ticks)
323: 0x09D6 [0x45] LOAD_SCHEDULED_TASK: Load scheduler "fdi1" with entities [EventEntity, EventEntity], work=[200*, 0*]
324: 0x09E7 [0x55] WAIT_LOAD_SCHEDULER: Wait for scheduler "fdi1" with entities [EventEntity, EventEntity], work=200*
325: 0x09F6 [0x1C] WAIT(120* ticks)
326: 0x09F9 [0x81] SET_ENTITY_BLINKING(blink_flag=0x00, entity=Unnamed NPC (ID: 17335126/0x01088356))
327: 0x09FF [0x7C] Unnamed NPC (ID: 17335126/0x01088356)->Render.Flags2 |= 0x00
328: 0x0A05 [0x52] END_LOAD_SCHEDULER: End scheduler "s134" with entities [EventEntity, EventEntity], work=402*
329: 0x0A14 [0x45] LOAD_SCHEDULED_TASK: Load scheduler "s135" with entities [EventEntity, EventEntity], work=[402*, 0*]
330: 0x0A25 [0xC5] LOAD_SCHEDULED_TASK_ALT3: Load scheduler 0x80023330 for entities [Lilisette (ID: 17335124/0x01088354), Lilisette (ID: 17335124/0x01088354)], work=165*, param=12403
331: 0x0A36 [0x5B] LOAD_EXT_SCHEDULER: Load scheduler "nds0" with entities [Lilisette (ID: 17335124/0x01088354), Lilisette (ID: 17335124/0x01088354)], work=2537*
332: 0x0A45 [0xC5] LOAD_SCHEDULED_TASK_ALT3: Load scheduler 0x80023530 for entities [Unnamed NPC (ID: 17335126/0x01088356), Unnamed NPC (ID: 17335126/0x01088356)], work=161*, param=12403
333: 0x0A56 [0x5B] LOAD_EXT_SCHEDULER: Load scheduler "ndms" with entities [Unnamed NPC (ID: 17335126/0x01088356), Unnamed NPC (ID: 17335126/0x01088356)], work=2474*
334: 0x0A65 [0x03] Work_Zone[2] = 210*
335: 0x0A6A [0x27] REQ_SET(priority=0x10, entity_id=??? (ID: 17334988/0x010882CC), tag_num=0x01)
336: 0x0A71 [0x2B] Lilisette (ID: 17335124/0x01088354) [7986*]:
    → "Boo!!!"
337: 0x0A78 [0x1C] WAIT(60* ticks)
338: 0x0A7B [0x2B] Unnamed NPC (ID: 17335126/0x01088356) [7987*]:
    → "Nyaaaaaah!?"
339: 0x0A82 [0x23] WAIT_FOR_DIALOG_INTERACTION
340: 0x0A83 [0x2A] GET_REQ_LEVEL(level=16, entity_id=??? (ID: 17334988/0x010882CC))
341: 0x0A89 [0x52] END_LOAD_SCHEDULER: End scheduler "s135" with entities [EventEntity, EventEntity], work=402*
342: 0x0A98 [0x45] LOAD_SCHEDULED_TASK: Load scheduler "s136" with entities [EventEntity, EventEntity], work=[402*, 0*]
343: 0x0AA9 [0x1C] WAIT(30* ticks)
344: 0x0AAC [0x6B] STOP_AND_IDLE: Lilisette (ID: 17335124/0x01088354) stops current action and resets to idle (animation="idl0")
345: 0x0AB5 [0x48] [System] [7988*]:
    → "Cait Sith Tri faints from shock!"
346: 0x0AB8 [0x1C] WAIT(90* ticks)
347: 0x0ABB [0x52] END_LOAD_SCHEDULER: End scheduler "s136" with entities [EventEntity, EventEntity], work=402*
348: 0x0ACA [0x45] LOAD_SCHEDULED_TASK: Load scheduler "s137" with entities [EventEntity, EventEntity], work=[402*, 0*]
349: 0x0ADB [0x27] REQ_SET(priority=0x05, entity_id=Unnamed NPC (ID: 17335127/0x01088357), tag_num=0x02)
350: 0x0AE2 [0x27] REQ_SET(priority=0x05, entity_id=LocalPlayer, tag_num=0x09)
351: 0x0AE9 [0x1C] WAIT(150* ticks)
352: 0x0AEC [0x52] END_LOAD_SCHEDULER: End scheduler "s137" with entities [EventEntity, EventEntity], work=402*
353: 0x0AFB [0x45] LOAD_SCHEDULED_TASK: Load scheduler "s138" with entities [EventEntity, EventEntity], work=[402*, 0*]
354: 0x0B0C [0x29] REQ_SET_WAIT(priority=0x05, entity_id=LocalPlayer, tag_num=0x04)
355: 0x0B13 [0xC5] LOAD_SCHEDULED_TASK_ALT3: Load scheduler 0x80023130 for entities [Unnamed NPC (ID: 17335126/0x01088356), Unnamed NPC (ID: 17335126/0x01088356)], work=167*, param=12403
356: 0x0B24 [0x03] Work_Zone[2] = 1128*
357: 0x0B29 [0x48] [System] [7989*]:
    → "You attach $6 to Cait Sith Tri!"
358: 0x0B2C [0x1C] WAIT(120* ticks)
359: 0x0B2F [0x03] Work_Zone[1] = 1*
360: 0x0B34 [0x03] Work_Zone[37] = 2*
361: 0x0B39 [0x02] IF !(ExtData[1]->WorkLocal[0] == 1*) GOTO 0x0BAF
362: 0x0B41 [0x52] END_LOAD_SCHEDULER: End scheduler "s138" with entities [EventEntity, EventEntity], work=402*
363: 0x0B50 [0x45] LOAD_SCHEDULED_TASK: Load scheduler "s139" with entities [EventEntity, EventEntity], work=[402*, 0*]
364: 0x0B61 [0x27] REQ_SET(priority=0x05, entity_id=LocalPlayer, tag_num=0x1C)
365: 0x0B68 [0x4A] Lilisette (ID: 17335124/0x01088354) looks at LocalPlayer
366: 0x0B71 [0x1C] WAIT(30* ticks)
367: 0x0B74 [0x5B] LOAD_EXT_SCHEDULER: Load scheduler "tla0" with entities [Lilisette (ID: 17335124/0x01088354), Lilisette (ID: 17335124/0x01088354)], work=2134*
368: 0x0B83 [0x2B] Lilisette (ID: 17335124/0x01088354) [7990*]:
    → "Good work, people! We've tagged every single one of them! Let's hurry and report back to Naoi!"
369: 0x0B8A [0x23] WAIT_FOR_DIALOG_INTERACTION
370: 0x0B8B [0x5B] LOAD_EXT_SCHEDULER: Load scheduler "tla1" with entities [Lilisette (ID: 17335124/0x01088354), Lilisette (ID: 17335124/0x01088354)], work=2134*
371: 0x0B9A [0x2A] GET_REQ_LEVEL(level=5, entity_id=LocalPlayer)
372: 0x0BA0 [0x6E] LocalPlayer uses emote 7*
373: 0x0BA7 [0x99] Wait for LocalPlayer animation to complete
374: 0x0BAC [0x1C] WAIT(90* ticks)
375: 0x0BAF [0x01] GOTO 0x0BB2

SUBROUTINE_0BB2:
376: 0x0BB2 [0x01] GOTO 0x0550
377: 0x0BB5 [0x02] IF !(Work_Zone[37] == 1*) GOTO 0x0CD9
378: 0x0BBD [0x7A] VM_CONTROL: Reset VM for Unnamed NPC (ID: 17335126/0x01088356)
379: 0x0BC3 [0x27] REQ_SET(priority=0x05, entity_id=Unnamed NPC (ID: 17335127/0x01088357), tag_num=0x02)
380: 0x0BCA [0x27] REQ_SET(priority=0x05, entity_id=LocalPlayer, tag_num=0x09)
381: 0x0BD1 [0x03] Work_Zone[1] = 2*
382: 0x0BD6 [0x43] SEND_EVENT_UPDATE: Send pending tag to server (packet 0x005B)
383: 0x0BD8 [0x43] SEND_EVENT_UPDATE: Check pending flag (skip if not pending)
384: 0x0BDA [0x48] [System] [7979*]:
    → "The transformation enchantment runs out!"
385: 0x0BDD [0x23] WAIT_FOR_DIALOG_INTERACTION
386: 0x0BDE [0x4B] UPDATE_ENTITY_YAW(entity=Unnamed NPC (ID: 17335126/0x01088356), yaw=21.0°*)
387: 0x0BE5 [0x1C] WAIT(30* ticks)
388: 0x0BE8 [0x5B] LOAD_EXT_SCHEDULER: Load scheduler "bik0" with entities [Unnamed NPC (ID: 17335126/0x01088356), Unnamed NPC (ID: 17335126/0x01088356)], work=1311*
389: 0x0BF7 [0x2B] Unnamed NPC (ID: 17335126/0x01088356) [7980*]:
    → "Oh? How peculiar... I was certain I spied a chocobo chick over there. Thereabouts."
390: 0x0BFE [0x23] WAIT_FOR_DIALOG_INTERACTION
391: 0x0BFF [0x5B] LOAD_EXT_SCHEDULER: Load scheduler "thb0" with entities [Lilisette (ID: 17335124/0x01088354), Lilisette (ID: 17335124/0x01088354)], work=2133*
392: 0x0C0E [0x1C] WAIT(30* ticks)
393: 0x0C11 [0x02] IF !(ExtData[1]->WorkLocal[4] == 2*) GOTO 0x0C6C
394: 0x0C19 [0x45] LOAD_SCHEDULED_TASK: Load scheduler "s132" with entities [EventEntity, EventEntity], work=[402*, 0*]
395: 0x0C2A [0x2B] Lilisette (ID: 17335124/0x01088354) [7984*]:
    → "This is giving me a splitting headache..."
396: 0x0C31 [0x23] WAIT_FOR_DIALOG_INTERACTION
397: 0x0C32 [0x52] END_LOAD_SCHEDULER: End scheduler "s132" with entities [EventEntity, EventEntity], work=402*
398: 0x0C41 [0x45] LOAD_SCHEDULED_TASK: Load scheduler "s133" with entities [EventEntity, EventEntity], work=[402*, 0*]
399: 0x0C52 [0x66] LOAD_EXT_SCHEDULER_MAIN: Load scheduler "tlk0" with entities [Portia (ID: 17335125/0x01088355), Portia (ID: 17335125/0x01088355)], work=19*
400: 0x0C61 [0x2B] Portia (ID: 17335125/0x01088355) [7985*]:
    → "Looks like we've gone and made it wary. We'll have to wait awhile until it grows complacent again."
401: 0x0C68 [0x23] WAIT_FOR_DIALOG_INTERACTION
402: 0x0C69 [0x01] GOTO 0x0CD9
403: 0x0C6C [0x45] LOAD_SCHEDULED_TASK: Load scheduler "s131" with entities [EventEntity, EventEntity], work=[402*, 0*]
404: 0x0C7D [0x2B] Lilisette (ID: 17335124/0x01088354) [7983*]:
    → "Awww, you almost had it, <Player>! Pull up your socks and let's try again!"
405: 0x0C84 [0x23] WAIT_FOR_DIALOG_INTERACTION
406: 0x0C85 [0x07] ExtData[1]->WorkLocal[4] += 1*
407: 0x0C8A [0x45] LOAD_SCHEDULED_TASK: Load scheduler "fdo1" with entities [EventEntity, EventEntity], work=[200*, 0*]
408: 0x0C9B [0x55] WAIT_LOAD_SCHEDULER: Wait for scheduler "fdo1" with entities [EventEntity, EventEntity], work=200*
409: 0x0CAA [0x52] END_LOAD_SCHEDULER: End scheduler "s131" with entities [EventEntity, EventEntity], work=402*
410: 0x0CB9 [0xB4] UI_WINDOW_STRING_HANDLER(case=0x06 - Toggle query message flag, flag_value=0x01)
411: 0x0CBC [0x6B] STOP_AND_IDLE: Lilisette (ID: 17335124/0x01088354) stops current action and resets to idle (animation="idl0")
412: 0x0CC5 [0x27] REQ_SET(priority=0x05, entity_id=Unnamed NPC (ID: 17335127/0x01088357), tag_num=0x03)
413: 0x0CCC [0x27] REQ_SET(priority=0x05, entity_id=LocalPlayer, tag_num=0x08)
414: 0x0CD3 [0x1C] WAIT(60* ticks)
415: 0x0CD6 [0x01] GOTO 0x0492

SUBROUTINE_0CD9:
416: 0x0CD9 [0x5D] SET_MUSIC_VOLUME(volume=0*, fade_time=120*)
417: 0x0CDE [0x45] LOAD_SCHEDULED_TASK: Load scheduler "fdo1" with entities [EventEntity, EventEntity], work=[200*, 0*]
418: 0x0CEF [0x55] WAIT_LOAD_SCHEDULER: Wait for scheduler "fdo1" with entities [EventEntity, EventEntity], work=200*
419: 0x0CFE [0x52] END_LOAD_SCHEDULER: End scheduler "s133" with entities [EventEntity, EventEntity], work=402*
420: 0x0D0D [0x52] END_LOAD_SCHEDULER: End scheduler "s138" with entities [EventEntity, EventEntity], work=402*
421: 0x0D1C [0x52] END_LOAD_SCHEDULER: End scheduler "s139" with entities [EventEntity, EventEntity], work=402*
422: 0x0D2B [0xC5] LOAD_SCHEDULED_TASK_ALT3: Load scheduler 0x80023130 for entities [Unnamed NPC (ID: 17335126/0x01088356), Unnamed NPC (ID: 17335126/0x01088356)], work=167*, param=29811
423: 0x0D3C [0xC5] LOAD_SCHEDULED_TASK_ALT3: Load scheduler 0x80023530 for entities [Unnamed NPC (ID: 17335126/0x01088356), Unnamed NPC (ID: 17335126/0x01088356)], work=161*, param=29811
424: 0x0D4D [0x27] REQ_SET(priority=0x05, entity_id=LocalPlayer, tag_num=0x09)
425: 0x0D54 [0x5C] MUSIC_CONTROL: Set Idle (Day) music to song 0*
426: 0x0D58 [0x5C] MUSIC_CONTROL: Set Idle (Night) music to song 0*
427: 0x0D5C [0x9A] WAIT_MUSIC_SERVER()
428: 0x0D5D [0x46] CAMERA_CONTROL: Restore default settings
429: 0x0D5F [0x45] LOAD_SCHEDULED_TASK: Load scheduler "fdi2" with entities [LocalPlayer, LocalPlayer], work=[200*, 0*]
430: 0x0D70 [0x21] END_EVENT
431: 0x0D71 [0x00] END_REQSTACK()
```

#### Data or dead code:

```
# Dead code (unreachable instructions):
     0x0032 [0x01] GOTO 0x0035
```

### Event 11

#### Metadata

| Field        | Value      |
|--------------|------------|
| Entrypoint   | 0x0D72     |
| Data Size    | 1426 bytes |
| Instructions | 168        |

```
      00 01 02 03 04 05 06 07  08 09 0A 0B 0C 0D 0E 0F
      -- -- -- -- -- -- -- --  -- -- -- -- -- -- -- --
0D70:       02 09 10 00 80 00  7D 0D 01 A6 0D 24 01 80    ......}....$..
0D80: 02 80 02 80 25 02 00 10  02 80 00 99 0D 03 01 10  ....%...........
0D90: 00 80 43 00 43 01 01 A6  0D 02 00 10 00 80 00 A6  ..C.C...........
0DA0: 0D 21 00 01 A6 0D 42 03  04 00 02 80 03 01 10 02  .!....B.........
0DB0: 80 5D 02 80 03 80 45 04  80 F8 FF FF 7F F8 FF FF  .]....E.........
0DC0: 7F 66 64 6F 31 02 80 55  04 80 F8 FF FF 7F F8 FF  .fdo1..U........
0DD0: FF 7F 66 64 6F 31 46 01  38 05 80 03 00 00 02 10  ..fdo1F.8.......
0DE0: 2F 00 54 83 08 01 2F 00  55 83 08 01 2F 00 56 83  /.T.../.U.../.V.
0DF0: 08 01 4E 00 54 83 08 01  4E 00 55 83 08 01 4E 00  ..N.T...N.U...N.
0E00: 56 83 08 01 BA 54 83 08  01 5C 80 5D 80 5E 80 5F  V....T...\.].^._
0E10: 80 BA 55 83 08 01 60 80  61 80 62 80 63 80 BA F0  ..U...`.a.b.c...
0E20: FF FF 7F 64 80 65 80 66  80 67 80 59 05 56 83 08  ...d.e.f.g.Y.V..
0E30: 01 01 BA 56 83 08 01 68  80 69 80 6A 80 6B 80 80  ...V...h.i.j.k..
0E40: 54 83 08 01 80 55 83 08  01 80 56 83 08 01 4A F0  T....U....V...J.
0E50: FF FF 7F 54 83 08 01 5C  00 16 80 5C 01 16 80 9A  ...T...\...\....
0E60: 27 05 56 83 08 01 2E 45  17 80 F8 FF FF 7F F8 FF  '.V....E........
0E70: FF 7F 73 31 30 32 02 80  45 04 80 F8 FF FF 7F F8  ..s102..E.......
0E80: FF FF 7F 66 64 69 31 02  80 55 04 80 F8 FF FF 7F  ...fdi1..U......
0E90: F8 FF FF 7F 66 64 69 31  2B 56 83 08 01 6C 80 23  ....fdi1+V...l.#
0EA0: 2A 05 56 83 08 01 52 17  80 F8 FF FF 7F F8 FF FF  *.V...R.........
0EB0: 7F 73 31 30 32 45 17 80  F8 FF FF 7F F8 FF FF 7F  .s102E..........
0EC0: 73 31 30 33 02 80 27 05  56 83 08 01 2F 2B 56 83  s103..'.V.../+V.
0ED0: 08 01 6D 80 23 2A 05 56  83 08 01 52 17 80 F8 FF  ..m.#*.V...R....
0EE0: FF 7F F8 FF FF 7F 73 31  30 33 45 17 80 F8 FF FF  ......s103E.....
0EF0: 7F F8 FF FF 7F 73 31 30  34 02 80 2B 54 83 08 01  .....s104..+T...
0F00: 6E 80 23 52 17 80 F8 FF  FF 7F F8 FF FF 7F 73 31  n.#R..........s1
0F10: 30 34 45 17 80 F8 FF FF  7F F8 FF FF 7F 73 31 30  04E..........s10
0F20: 35 02 80 66 25 80 55 83  08 01 55 83 08 01 74 68  5..f%.U...U...th
0F30: 6B 31 2B 55 83 08 01 6F  80 23 52 17 80 F8 FF FF  k1+U...o.#R.....
0F40: 7F F8 FF FF 7F 73 31 30  35 45 17 80 F8 FF FF 7F  .....s105E......
0F50: F8 FF FF 7F 73 31 30 36  02 80 66 25 80 55 83 08  ....s106..f%.U..
0F60: 01 55 83 08 01 74 68 6B  32 2B 54 83 08 01 70 80  .U...thk2+T...p.
0F70: 23 52 17 80 F8 FF FF 7F  F8 FF FF 7F 73 31 30 36  #R..........s106
0F80: 45 17 80 F8 FF FF 7F F8  FF FF 7F 73 31 30 38 02  E..........s108.
0F90: 80 4A 54 83 08 01 F0 FF  FF 7F 7B 54 83 08 01 1C  .JT.......{T....
0FA0: 1A 80 5B 21 80 54 83 08  01 54 83 08 01 70 6E 74  ..[!.T...T...pnt
0FB0: 30 03 02 10 55 80 2B 54  83 08 01 71 80 23 5D 02  0...U.+T...q.#].
0FC0: 80 03 80 45 04 80 F8 FF  FF 7F F8 FF FF 7F 66 64  ...E..........fd
0FD0: 6F 31 02 80 55 04 80 F8  FF FF 7F F8 FF FF 7F 66  o1..U..........f
0FE0: 64 6F 31 52 17 80 F8 FF  FF 7F F8 FF FF 7F 73 31  do1R..........s1
0FF0: 30 38 4A 55 83 08 01 54  83 08 01 22 00 33 01 37  08JU...T...".3.7
1000: 72 80 73 80 74 80 75 80  80 F8 FF FF 7F 5C 00 31  r.s.t.u......\.1
1010: 80 5C 01 31 80 9A BA 56  83 08 01 76 80 77 80 78  .\.1...V...v.w.x
1020: 80 79 80 80 56 83 08 01  45 17 80 F8 FF FF 7F F8  .y..V...E.......
1030: FF FF 7F 73 30 39 32 02  80 45 04 80 F8 FF FF 7F  ...s092..E......
1040: F8 FF FF 7F 66 64 69 31  02 80 55 04 80 F8 FF FF  ....fdi1..U.....
1050: 7F F8 FF FF 7F 66 64 69  31 27 05 56 83 08 01 30  .....fdi1'.V...0
1060: 24 7A 80 02 80 02 80 25  02 00 10 02 80 00 83 12  $z.....%........
1070: 1C 40 80 02 27 10 00 80  00 68 11 7A 00 56 83 08  .@..'....h.z.V..
1080: 01 27 03 56 83 08 01 2D  5D 02 80 03 80 45 04 80  .'.V...-]....E..
1090: F8 FF FF 7F F8 FF FF 7F  66 64 6F 30 02 80 55 04  ........fdo0..U.
10A0: 80 F8 FF FF 7F F8 FF FF  7F 66 64 6F 30 52 17 80  .........fdo0R..
10B0: F8 FF FF 7F F8 FF FF 7F  73 30 39 32 BA 56 83 08  ........s092.V..
10C0: 01 7B 80 7C 80 6A 80 7D  80 BA 54 83 08 01 5C 80  .{.|.j.}..T...\.
10D0: 5D 80 5E 80 7E 80 80 54  83 08 01 80 56 83 08 01  ].^.~..T....V...
10E0: 45 17 80 F8 FF FF 7F F8  FF FF 7F 73 31 34 32 02  E..........s142.
10F0: 80 1C 4B 80 45 04 80 F8  FF FF 7F F8 FF FF 7F 66  ..K.E..........f
1100: 64 69 30 02 80 C5 54 80  56 83 08 01 56 83 08 01  di0...T.V...V...
1110: 73 30 30 31 02 80 55 17  80 F8 FF FF 7F F8 FF FF  s001..U.........
1120: 7F 73 31 34 32 03 02 10  55 80 48 7F 80 1C 03 80  .s142...U.H.....
1130: 03 01 10 00 80 02 00 00  00 80 00 65 11 45 17 80  ...........e.E..
1140: F8 FF FF 7F F8 FF FF 7F  73 31 32 36 02 80 5B 1D  ........s126..[.
1150: 80 54 83 08 01 54 83 08  01 74 6C 61 30 2B 54 83  .T...T...tla0+T.
1160: 08 01 57 80 23 01 80 12  7A 00 56 83 08 01 27 03  ..W.#...z.V...'.
1170: 56 83 08 01 2D 27 02 56  83 08 01 31 03 01 10 36  V...-'.V...1...6
1180: 80 43 00 43 01 62 3C 80  F8 FF FF 7F F8 FF FF 7F  .C.C.b<.........
1190: 6D 61 69 6E 02 80 1C 03  80 52 17 80 F8 FF FF 7F  main.....R......
11A0: F8 FF FF 7F 73 30 39 32  02 04 00 36 80 00 21 12  ....s092...6..!.
11B0: 45 17 80 F8 FF FF 7F F8  FF FF 7F 73 31 30 39 02  E..........s109.
11C0: 80 5B 80 80 54 83 08 01  54 83 08 01 66 61 30 30  .[..T...T...fa00
11D0: 2B 54 83 08 01 81 80 23  52 17 80 F8 FF FF 7F F8  +T.....#R.......
11E0: FF FF 7F 73 31 30 39 45  17 80 F8 FF FF 7F F8 FF  ...s109E........
11F0: FF 7F 73 31 31 30 02 80  66 25 80 55 83 08 01 55  ..s110..f%.U...U
1200: 83 08 01 74 6C 6B 30 2B  55 83 08 01 3B 80 23 66  ...tlk0+U...;.#f
1210: 25 80 55 83 08 01 55 83  08 01 74 6C 6B 31 01 80  %.U...U...tlk1..
1220: 12 45 17 80 F8 FF FF 7F  F8 FF FF 7F 73 31 32 39  .E..........s129
1230: 02 80 5B 82 80 54 83 08  01 54 83 08 01 6E 6F 30  ..[..T...T...no0
1240: 30 2B 54 83 08 01 83 80  23 07 04 00 00 80 45 04  0+T.....#.....E.
1250: 80 F8 FF FF 7F F8 FF FF  7F 66 64 6F 31 02 80 55  .........fdo1..U
1260: 04 80 F8 FF FF 7F F8 FF  FF 7F 66 64 6F 31 52 17  ..........fdo1R.
1270: 80 F8 FF FF 7F F8 FF FF  7F 73 31 32 39 01 16 10  .........s129...
1280: 01 83 12 5D 02 80 03 80  45 04 80 F8 FF FF 7F F8  ...]....E.......
1290: FF FF 7F 66 64 6F 31 02  80 55 04 80 F8 FF FF 7F  ...fdo1..U......
12A0: F8 FF FF 7F 66 64 6F 31  52 17 80 F8 FF FF 7F F8  ....fdo1R.......
12B0: FF FF 7F 73 31 34 32 52  17 80 F8 FF FF 7F F8 FF  ...s142R........
12C0: FF 7F 73 31 31 30 52 17  80 F8 FF FF 7F F8 FF FF  ..s110R.........
12D0: 7F 73 31 32 36 C5 54 80  56 83 08 01 56 83 08 01  .s126.T.V...V...
12E0: 73 74 30 31 02 80 5C 00  02 80 5C 01 02 80 9A 46  st01..\...\....F
12F0: 00 45 04 80 F0 FF FF 7F  F0 FF FF 7F 66 64 69 32  .E..........fdi2
1300: 02 80 21 00                                       ..!.            
```

#### Opcodes

```
  0: 0x0D72 [0x02] IF !(Work_Zone[9] == 1*) GOTO 0x0D7D
  1: 0x0D7A [0x01] GOTO 0x0DA6
  2: 0x0D7D [0x24] CREATE_DIALOG(message_id=7918*, default_option=0*, option_flags=0*)
    → "Investigate the tower? [Yes./Later.]"
  3: 0x0D84 [0x25] WAIT_DIALOG_SELECT()
  4: 0x0D85 [0x02] IF !(Work_Zone[0] == 0*) GOTO 0x0D99
  5: 0x0D8D [0x03] Work_Zone[1] = 1*
  6: 0x0D92 [0x43] SEND_EVENT_UPDATE: Send pending tag to server (packet 0x005B)
  7: 0x0D94 [0x43] SEND_EVENT_UPDATE: Check pending flag (skip if not pending)
  8: 0x0D96 [0x01] GOTO 0x0DA6
  9: 0x0D99 [0x02] IF !(Work_Zone[0] == 1*) GOTO 0x0DA6
 10: 0x0DA1 [0x21] END_EVENT
 11: 0x0DA2 [0x00] END_REQSTACK()

SUBROUTINE_0DA6:
 12: 0x0DA6 [0x42] SET_CLI_EVENT_CANCEL_DATA()
 13: 0x0DA7 [0x03] ExtData[1]->WorkLocal[4] = 0*
 14: 0x0DAC [0x03] Work_Zone[1] = 0*
 15: 0x0DB1 [0x5D] SET_MUSIC_VOLUME(volume=0*, fade_time=120*)
 16: 0x0DB6 [0x45] LOAD_SCHEDULED_TASK: Load scheduler "fdo1" with entities [EventEntity, EventEntity], work=[200*, 0*]
 17: 0x0DC7 [0x55] WAIT_LOAD_SCHEDULER: Wait for scheduler "fdo1" with entities [EventEntity, EventEntity], work=200*
 18: 0x0DD6 [0x46] CAMERA_CONTROL: Disable user control
 19: 0x0DD8 [0x38] SET_CLIENT_EVENT_MODE(mode=27*)
 20: 0x0DDB [0x03] ExtData[1]->WorkLocal[0] = Work_Zone[2]
 21: 0x0DE0 [0x2F] Lilisette (ID: 17335124/0x01088354)->Render.Flags0 &= ~0x80000 // Bit 19
 22: 0x0DE6 [0x2F] Portia (ID: 17335125/0x01088355)->Render.Flags0 &= ~0x80000 // Bit 19
 23: 0x0DEC [0x2F] Unnamed NPC (ID: 17335126/0x01088356)->Render.Flags0 &= ~0x80000 // Bit 19
 24: 0x0DF2 [0x4E] SET_ENTITY_HIDE_FLAG: Show Lilisette (ID: 17335124/0x01088354)
 25: 0x0DF8 [0x4E] SET_ENTITY_HIDE_FLAG: Show Portia (ID: 17335125/0x01088355)
 26: 0x0DFE [0x4E] SET_ENTITY_HIDE_FLAG: Show Unnamed NPC (ID: 17335126/0x01088356)
 27: 0x0E04 [0xBA] SET_ENTITY_POSITION(entity_id=Lilisette (ID: 17335124/0x01088354), pos_x=275.423*, pos_z=-25.966*, pos_y=0.381*, direction=234.4°*)
 28: 0x0E11 [0xBA] SET_ENTITY_POSITION(entity_id=Portia (ID: 17335125/0x01088355), pos_x=277.529*, pos_z=-26.363*, pos_y=0.558*, direction=214.4°*)
 29: 0x0E1E [0xBA] SET_ENTITY_POSITION(entity_id=LocalPlayer, pos_x=275.982*, pos_z=-27.771*, pos_y=0.378*, direction=223.3°*)
 30: 0x0E2B [0x59] UPDATE_ENTITY_DATA: Unnamed NPC (ID: 17335126/0x01088356)->Render.Flags0 |= 0x200000
 31: 0x0E32 [0xBA] SET_ENTITY_POSITION(entity_id=Unnamed NPC (ID: 17335126/0x01088356), pos_x=263.615*, pos_z=-9.820*, pos_y=-20.000*, direction=123.0°*)
 32: 0x0E3F [0x80] LOAD_WAIT(entity=Lilisette (ID: 17335124/0x01088354))
 33: 0x0E44 [0x80] LOAD_WAIT(entity=Portia (ID: 17335125/0x01088355))
 34: 0x0E49 [0x80] LOAD_WAIT(entity=Unnamed NPC (ID: 17335126/0x01088356))
 35: 0x0E4E [0x4A] LocalPlayer looks at Lilisette (ID: 17335124/0x01088354)
 36: 0x0E57 [0x5C] MUSIC_CONTROL: Set Idle (Day) music to song 41*
 37: 0x0E5B [0x5C] MUSIC_CONTROL: Set Idle (Night) music to song 41*
 38: 0x0E5F [0x9A] WAIT_MUSIC_SERVER()
 39: 0x0E60 [0x27] REQ_SET(priority=0x05, entity_id=Unnamed NPC (ID: 17335126/0x01088356), tag_num=0x2E)
 40: 0x0E67 [0x45] LOAD_SCHEDULED_TASK: Load scheduler "s102" with entities [EventEntity, EventEntity], work=[402*, 0*]
 41: 0x0E78 [0x45] LOAD_SCHEDULED_TASK: Load scheduler "fdi1" with entities [EventEntity, EventEntity], work=[200*, 0*]
 42: 0x0E89 [0x55] WAIT_LOAD_SCHEDULER: Wait for scheduler "fdi1" with entities [EventEntity, EventEntity], work=200*
 43: 0x0E98 [0x2B] Unnamed NPC (ID: 17335126/0x01088356) [7951*]:
    → "Do re mi fa so`t"
 44: 0x0E9F [0x23] WAIT_FOR_DIALOG_INTERACTION
 45: 0x0EA0 [0x2A] GET_REQ_LEVEL(level=5, entity_id=Unnamed NPC (ID: 17335126/0x01088356))
 46: 0x0EA6 [0x52] END_LOAD_SCHEDULER: End scheduler "s102" with entities [EventEntity, EventEntity], work=402*
 47: 0x0EB5 [0x45] LOAD_SCHEDULED_TASK: Load scheduler "s103" with entities [EventEntity, EventEntity], work=[402*, 0*]
 48: 0x0EC6 [0x27] REQ_SET(priority=0x05, entity_id=Unnamed NPC (ID: 17335126/0x01088356), tag_num=0x2F)
 49: 0x0ECD [0x2B] Unnamed NPC (ID: 17335126/0x01088356) [7952*]:
    → "In radiance blessed...t"
 50: 0x0ED4 [0x23] WAIT_FOR_DIALOG_INTERACTION
 51: 0x0ED5 [0x2A] GET_REQ_LEVEL(level=5, entity_id=Unnamed NPC (ID: 17335126/0x01088356))
 52: 0x0EDB [0x52] END_LOAD_SCHEDULER: End scheduler "s103" with entities [EventEntity, EventEntity], work=402*
 53: 0x0EEA [0x45] LOAD_SCHEDULED_TASK: Load scheduler "s104" with entities [EventEntity, EventEntity], work=[402*, 0*]
 54: 0x0EFB [0x2B] Lilisette (ID: 17335124/0x01088354) [7953*]:
    → "Ah! Over there!"
 55: 0x0F02 [0x23] WAIT_FOR_DIALOG_INTERACTION
 56: 0x0F03 [0x52] END_LOAD_SCHEDULER: End scheduler "s104" with entities [EventEntity, EventEntity], work=402*
 57: 0x0F12 [0x45] LOAD_SCHEDULED_TASK: Load scheduler "s105" with entities [EventEntity, EventEntity], work=[402*, 0*]
 58: 0x0F23 [0x66] LOAD_EXT_SCHEDULER_MAIN: Load scheduler "thk1" with entities [Portia (ID: 17335125/0x01088355), Portia (ID: 17335125/0x01088355)], work=19*
 59: 0x0F32 [0x2B] Portia (ID: 17335125/0x01088355) [7954*]:
    → "Oh my, this one's going to be tricky... How are we supposed to even get close?"
 60: 0x0F39 [0x23] WAIT_FOR_DIALOG_INTERACTION
 61: 0x0F3A [0x52] END_LOAD_SCHEDULER: End scheduler "s105" with entities [EventEntity, EventEntity], work=402*
 62: 0x0F49 [0x45] LOAD_SCHEDULED_TASK: Load scheduler "s106" with entities [EventEntity, EventEntity], work=[402*, 0*]
 63: 0x0F5A [0x66] LOAD_EXT_SCHEDULER_MAIN: Load scheduler "thk2" with entities [Portia (ID: 17335125/0x01088355), Portia (ID: 17335125/0x01088355)], work=19*
 64: 0x0F69 [0x2B] Lilisette (ID: 17335124/0x01088354) [7955*]:
    → "Hehehehehe... I knew a situation like this might arise, so I came prepared!"
 65: 0x0F70 [0x23] WAIT_FOR_DIALOG_INTERACTION
 66: 0x0F71 [0x52] END_LOAD_SCHEDULER: End scheduler "s106" with entities [EventEntity, EventEntity], work=402*
 67: 0x0F80 [0x45] LOAD_SCHEDULED_TASK: Load scheduler "s108" with entities [EventEntity, EventEntity], work=[402*, 0*]
 68: 0x0F91 [0x4A] Lilisette (ID: 17335124/0x01088354) looks at LocalPlayer
 69: 0x0F9A [0x7B] Lilisette (ID: 17335124/0x01088354) stops talking
 70: 0x0F9F [0x1C] WAIT(30* ticks)
 71: 0x0FA2 [0x5B] LOAD_EXT_SCHEDULER: Load scheduler "pnt0" with entities [Lilisette (ID: 17335124/0x01088354), Lilisette (ID: 17335124/0x01088354)], work=2531*
 72: 0x0FB1 [0x03] Work_Zone[2] = 1128*
 73: 0x0FB6 [0x2B] Lilisette (ID: 17335124/0x01088354) [7957*]:
    → "Listen up, <Player>. When you think you've got a clear shot at Cait Sith, use this blowpipe to shoot the $3 at her."
 74: 0x0FBD [0x23] WAIT_FOR_DIALOG_INTERACTION
 75: 0x0FBE [0x5D] SET_MUSIC_VOLUME(volume=0*, fade_time=120*)
 76: 0x0FC3 [0x45] LOAD_SCHEDULED_TASK: Load scheduler "fdo1" with entities [EventEntity, EventEntity], work=[200*, 0*]
 77: 0x0FD4 [0x55] WAIT_LOAD_SCHEDULER: Wait for scheduler "fdo1" with entities [EventEntity, EventEntity], work=200*
 78: 0x0FE3 [0x52] END_LOAD_SCHEDULER: End scheduler "s108" with entities [EventEntity, EventEntity], work=402*
 79: 0x0FF2 [0x4A] Portia (ID: 17335125/0x01088355) looks at Lilisette (ID: 17335124/0x01088354)
 80: 0x0FFB [0x22] ENTITY_HIDE_FLAG(enabled=0x00)
 81: 0x0FFD [0x33] EventEntity->Render.Flags0 |= 0x200000 // Bit 21 (flag=0x01)
 82: 0x0FFF [0x37] UPDATE_EVENT_POSITION_AND_DIR: x=262.850*, z=-10.327*, y=-21.207*, direction=132.7°*
 83: 0x1008 [0x80] LOAD_WAIT(entity=EventEntity)
 84: 0x100D [0x5C] MUSIC_CONTROL: Set Idle (Day) music to song 163*
 85: 0x1011 [0x5C] MUSIC_CONTROL: Set Idle (Night) music to song 163*
 86: 0x1015 [0x9A] WAIT_MUSIC_SERVER()

SUBROUTINE_1016:
 87: 0x1016 [0xBA] SET_ENTITY_POSITION(entity_id=Unnamed NPC (ID: 17335126/0x01088356), pos_x=263.876*, pos_z=-9.383*, pos_y=-20.700*, direction=119.0°*)
 88: 0x1023 [0x80] LOAD_WAIT(entity=Unnamed NPC (ID: 17335126/0x01088356))
 89: 0x1028 [0x45] LOAD_SCHEDULED_TASK: Load scheduler "s092" with entities [EventEntity, EventEntity], work=[402*, 0*]
 90: 0x1039 [0x45] LOAD_SCHEDULED_TASK: Load scheduler "fdi1" with entities [EventEntity, EventEntity], work=[200*, 0*]
 91: 0x104A [0x55] WAIT_LOAD_SCHEDULER: Wait for scheduler "fdi1" with entities [EventEntity, EventEntity], work=200*
 92: 0x1059 [0x27] REQ_SET(priority=0x05, entity_id=Unnamed NPC (ID: 17335126/0x01088356), tag_num=0x30)
 93: 0x1060 [0x24] CREATE_DIALOG(message_id=7958*, default_option=0*, option_flags=0*)
    → "Shoot the blowpipe... [Now!]"
 94: 0x1067 [0x25] WAIT_DIALOG_SELECT()
 95: 0x1068 [0x02] IF !(Work_Zone[0] == 0*) GOTO 0x1283
 96: 0x1070 [0x1C] WAIT(60* ticks)
 97: 0x1073 [0x02] IF !(Work_Zone[39] == 1*) GOTO 0x1168
 98: 0x107B [0x7A] VM_CONTROL: Reset VM for Unnamed NPC (ID: 17335126/0x01088356)
 99: 0x1081 [0x27] REQ_SET(priority=0x03, entity_id=Unnamed NPC (ID: 17335126/0x01088356), tag_num=0x2D)
100: 0x1088 [0x5D] SET_MUSIC_VOLUME(volume=0*, fade_time=120*)
