# 17335125 - Portia

## Common Data

| Field            | Value                            |
|------------------|----------------------------------|
| Zone             | Beaucedine Glacier [S] (ID: 136) |
| Block Size       | 1768 bytes                       |
| Total Events     | 54                               |
| References Count | 91                               |

## List of Events

| Event ID                   | Entrypoint   |   Size |   Instructions |
|----------------------------|--------------|--------|----------------|
| [65535](#event-65535)      | 0x0000       |      1 |              1 |
| [65535.1](#event-655351)   | 0x0001       |      1 |              1 |
| [65535.2](#event-655352)   | 0x0002       |     18 |              4 |
| [65535.3](#event-655353)   | 0x0014       |     10 |              2 |
| [65535.4](#event-655354)   | 0x001E       |      9 |              3 |
| [65535.5](#event-655355)   | 0x0027       |      9 |              3 |
| [65535.6](#event-655356)   | 0x0030       |     10 |              2 |
| [65535.7](#event-655357)   | 0x003A       |     10 |              2 |
| [15](#event-15)            | 0x0044       |      1 |              1 |
| [65535.8](#event-655358)   | 0x0045       |     30 |              6 |
| [65535.9](#event-655359)   | 0x0063       |     32 |              5 |
| [65535.10](#event-6553510) | 0x0083       |     13 |              3 |
| [65535.11](#event-6553511) | 0x0090       |     10 |              2 |
| [65535.12](#event-6553512) | 0x009A       |     10 |              2 |
| [65535.13](#event-6553513) | 0x00A4       |      4 |              2 |
| [65535.14](#event-6553514) | 0x00A8       |      4 |              2 |
| [13](#event-13)            | 0x00AC       |      1 |              1 |
| [29](#event-29)            | 0x00AD       |      1 |              1 |
| [65535.15](#event-6553515) | 0x00AE       |     15 |              5 |
| [65535.16](#event-6553516) | 0x00BD       |     15 |              5 |
| [65535.17](#event-6553517) | 0x00CC       |     51 |              9 |
| [65535.18](#event-6553518) | 0x00FF       |     25 |              6 |
| [65535.19](#event-6553519) | 0x0118       |     25 |              7 |
| [65535.20](#event-6553520) | 0x0131       |     21 |              2 |
| [65535.21](#event-6553521) | 0x0146       |     21 |              2 |
| [16](#event-16)            | 0x015B       |      1 |              1 |
| [19](#event-19)            | 0x015C       |      1 |              1 |
| [65535.22](#event-6553522) | 0x015D       |     21 |              2 |
| [65535.23](#event-6553523) | 0x0172       |     21 |              2 |
| [65535.24](#event-6553524) | 0x0187       |     21 |              2 |
| [65535.25](#event-6553525) | 0x019C       |      3 |              2 |
| [65535.26](#event-6553526) | 0x019F       |      3 |              2 |
| [8](#event-8)              | 0x01A2       |      7 |              2 |
| [9](#event-9)              | 0x01A9       |      7 |              2 |
| [65535.27](#event-6553527) | 0x01B0       |     12 |              3 |
| [10](#event-10)            | 0x01BC       |      7 |              2 |
| [65535.28](#event-6553528) | 0x01C3       |     37 |              6 |
| [65535.29](#event-6553529) | 0x01E8       |      6 |              2 |
| [65535.30](#event-6553530) | 0x01EE       |    322 |             65 |
| [11](#event-11)            | 0x0330       |      7 |              2 |
| [65535.31](#event-6553531) | 0x0337       |     17 |              5 |
| [12](#event-12)            | 0x0348       |      7 |              2 |
| [14](#event-14)            | 0x034F       |      7 |              2 |
| [65535.32](#event-6553532) | 0x0356       |     14 |              4 |
| [18](#event-18)            | 0x0364       |      7 |              2 |
| [65535.33](#event-6553533) | 0x036B       |     27 |              7 |
| [65535.34](#event-6553534) | 0x0386       |      4 |              2 |
| [17](#event-17)            | 0x038A       |      1 |              1 |
| [65535.35](#event-6553535) | 0x038B       |     11 |              3 |
| [65535.36](#event-6553536) | 0x0396       |     11 |              3 |
| [65535.37](#event-6553537) | 0x03A1       |     11 |              3 |
| [65535.38](#event-6553538) | 0x03AC       |     11 |              3 |
| [65535.39](#event-6553539) | 0x03B7       |    218 |             22 |
| [30](#event-30)            | 0x0491       |      1 |              1 |

## DAT References (imed_data)

|   Index | Hex Value   |   Dec Value |
|---------|-------------|-------------|
|       0 | 0x0000      |           0 |
|       1 | 0x0001      |           1 |
|       2 | 0x0080      |         128 |
|       3 | 0x001E      |          30 |
|       4 | 0x0058      |          88 |
|       5 | 0x0028      |          40 |
|       6 | 0x0015      |          21 |
|       7 | 0x000D      |          13 |
|       8 | 0xF3CF      |       62415 |
|       9 | 0xFFF8E7AE  |  4294502318 |
|      10 | 0xFFFFFF78  |  4294967160 |
|      11 | 0x000A      |          10 |
|      12 | 0xF1A3      |       61859 |
|      13 | 0xFFF8DD9E  |  4294499742 |
|      14 | 0xFFFFFF43  |  4294967107 |
|      15 | 0x005A      |          90 |
|      16 | 0x08F5      |        2293 |
|      17 | 0x00B4      |         180 |
|      18 | 0xEB63      |       60259 |
|      19 | 0xFFF8D0E6  |  4294496486 |
|      20 | 0x00BB      |         187 |
|      21 | 0xE641      |       58945 |
|      22 | 0xFFF8FDA4  |  4294507940 |
|      23 | 0xFFFFFE62  |  4294966882 |
|      24 | 0xDD2D      |       56621 |
|      25 | 0xFFF930CE  |  4294521038 |
|      26 | 0xFFFFFFF0  |  4294967280 |
|      27 | 0x0004      |           4 |
|      28 | 0x0005      |           5 |
|      29 | 0x0097      |         151 |
|      30 | 0x015C      |         348 |
|      31 | 0x0002      |           2 |
|      32 | 0x001B      |          27 |
|      33 | 0x00D3      |         211 |
|      34 | 0x017B      |         379 |
|      35 | 0x0060      |          96 |
|      36 | 0x0003      |           3 |
|      37 | 0xFFFFAF71  |  4294946673 |
|      38 | 0xFFFF30DD  |  4294914269 |
|      39 | 0xFFFF1F97  |  4294909847 |
|      40 | 0xFFFFAEF6  |  4294946550 |
|      41 | 0xFFFF3419  |  4294915097 |
|      42 | 0xFFFF2126  |  4294910246 |
|      43 | 0xFFFFAF46  |  4294946630 |
|      44 | 0xFFFF3769  |  4294915945 |
|      45 | 0xFFFF22B8  |  4294910648 |
|      46 | 0xFFFFAF35  |  4294946613 |
|      47 | 0xFFFF3A4C  |  4294916684 |
|      48 | 0xFFFF2447  |  4294911047 |
|      49 | 0xFFFFAF48  |  4294946632 |
|      50 | 0xFFFF3D3C  |  4294917436 |
|      51 | 0xFFFF25D5  |  4294911445 |
|      52 | 0xFFFFAF55  |  4294946645 |
|      53 | 0xFFFF4081  |  4294918273 |
|      54 | 0xFFFF2767  |  4294911847 |
|      55 | 0x0006      |           6 |
|      56 | 0xFFFFAF07  |  4294946567 |
|      57 | 0xFFFF43CA  |  4294919114 |
|      58 | 0xFFFF28F6  |  4294912246 |
|      59 | 0x0007      |           7 |
|      60 | 0xFFFFAF66  |  4294946662 |
|      61 | 0xFFFF46D6  |  4294919894 |
|      62 | 0xFFFF2A88  |  4294912648 |
|      63 | 0x0008      |           8 |
|      64 | 0xFFFFAF58  |  4294946648 |
|      65 | 0xFFFF4A0A  |  4294920714 |
|      66 | 0xFFFF2C16  |  4294913046 |
|      67 | 0x0009      |           9 |
|      68 | 0xFFFFAF11  |  4294946577 |
|      69 | 0xFFFF4DAD  |  4294921645 |
|      70 | 0xFFFF2DA5  |  4294913445 |
|      71 | 0x000F      |          15 |
|      72 | 0xC8CB      |       51403 |
|      73 | 0xFFFB0D1A  |  4294642970 |
|      74 | 0x015E      |         350 |
|      75 | 0x61B96     |      400278 |
|      76 | 0xFFF90E2F  |  4294512175 |
|      77 | 0x05DB      |        1499 |
|      78 | 0xFFFE3636  |  4294850102 |
|      79 | 0x1AF24     |      110372 |
|      80 | 0xFFFFF02F  |  4294963247 |
|      81 | 0xFFF99F53  |  4294549331 |
|      82 | 0xFFFE2583  |  4294845827 |
|      83 | 0x03E7      |         999 |
|      84 | 0xFFF9AF7F  |  4294553471 |
|      85 | 0xFFFE28CB  |  4294846667 |
|      86 | 0xFFF9A6D6  |  4294551254 |
|      87 | 0xFFFE2704  |  4294846212 |
|      88 | 0x0050      |          80 |
|      89 | 0x0094      |         148 |
|      90 | 0x00FA      |         250 |

## Events

### Event 65535

#### Metadata

| Field        | Value   |
|--------------|---------|
| Entrypoint   | 0x0000  |
| Data Size    | 1 bytes |
| Instructions | 1       |

```
      00 01 02 03 04 05 06 07  08 09 0A 0B 0C 0D 0E 0F
      -- -- -- -- -- -- -- --  -- -- -- -- -- -- -- --
0000: 00                                                .               
```

#### Opcodes

```
  0: 0x0000 [0x00] END_REQSTACK()
```

### Event 65535.1

#### Metadata

| Field        | Value   |
|--------------|---------|
| Entrypoint   | 0x0001  |
| Data Size    | 1 bytes |
| Instructions | 1       |

```
      00 01 02 03 04 05 06 07  08 09 0A 0B 0C 0D 0E 0F
      -- -- -- -- -- -- -- --  -- -- -- -- -- -- -- --
0000:    00                                              .              
```

#### Opcodes

```
  0: 0x0001 [0x00] END_REQSTACK()
```

### Event 65535.2

#### Metadata

| Field        | Value    |
|--------------|----------|
| Entrypoint   | 0x0002   |
| Data Size    | 18 bytes |
| Instructions | 4        |

```
      00 01 02 03 04 05 06 07  08 09 0A 0B 0C 0D 0E 0F
      -- -- -- -- -- -- -- --  -- -- -- -- -- -- -- --
0000:       22 00 2F 00 F8 FF  FF 7F 6C F8 FF FF 7F 00    "./.....l.....
0010: 80 01 80 00                                       ....            
```

#### Opcodes

```
  0: 0x0002 [0x22] ENTITY_HIDE_FLAG(enabled=0x00)
  1: 0x0004 [0x2F] EventEntity->Render.Flags0 &= ~0x80000 // Bit 19
  2: 0x000A [0x6C] FADE_ENTITY_COLOR(entity_id=EventEntity, end_alpha=0*, fade_time=1*)
  3: 0x0013 [0x00] END_REQSTACK()
```

### Event 65535.3

#### Metadata

| Field        | Value    |
|--------------|----------|
| Entrypoint   | 0x0014   |
| Data Size    | 10 bytes |
| Instructions | 2        |

```
      00 01 02 03 04 05 06 07  08 09 0A 0B 0C 0D 0E 0F
      -- -- -- -- -- -- -- --  -- -- -- -- -- -- -- --
0010:             6C F8 FF FF  7F 02 80 01 80 00            l.........  
```

#### Opcodes

```
  0: 0x0014 [0x6C] FADE_ENTITY_COLOR(entity_id=EventEntity, end_alpha=128*, fade_time=1*)
  1: 0x001D [0x00] END_REQSTACK()
```

### Event 65535.4

#### Metadata

| Field        | Value   |
|--------------|---------|
| Entrypoint   | 0x001E  |
| Data Size    | 9 bytes |
| Instructions | 3       |

```
      00 01 02 03 04 05 06 07  08 09 0A 0B 0C 0D 0E 0F
      -- -- -- -- -- -- -- --  -- -- -- -- -- -- -- --
0010:                                            22 00                ".
0020: 2F 00 F8 FF FF 7F 00                              /......         
```

#### Opcodes

```
  0: 0x001E [0x22] ENTITY_HIDE_FLAG(enabled=0x00)
  1: 0x0020 [0x2F] EventEntity->Render.Flags0 &= ~0x80000 // Bit 19
  2: 0x0026 [0x00] END_REQSTACK()
```

### Event 65535.5

#### Metadata

| Field        | Value   |
|--------------|---------|
| Entrypoint   | 0x0027  |
| Data Size    | 9 bytes |
| Instructions | 3       |

```
      00 01 02 03 04 05 06 07  08 09 0A 0B 0C 0D 0E 0F
      -- -- -- -- -- -- -- --  -- -- -- -- -- -- -- --
0020:                      22  01 2F 01 F8 FF FF 7F 00         "./......
```

#### Opcodes

```
  0: 0x0027 [0x22] ENTITY_HIDE_FLAG(enabled=0x01)
  1: 0x0029 [0x2F] EventEntity->Render.Flags0 |= 0x80000 // Bit 19
  2: 0x002F [0x00] END_REQSTACK()
```

### Event 65535.6

#### Metadata

| Field        | Value    |
|--------------|----------|
| Entrypoint   | 0x0030   |
| Data Size    | 10 bytes |
| Instructions | 2        |

```
      00 01 02 03 04 05 06 07  08 09 0A 0B 0C 0D 0E 0F
      -- -- -- -- -- -- -- --  -- -- -- -- -- -- -- --
0030: 6C F8 FF FF 7F 00 80 01  80 00                    l.........      
```

#### Opcodes

```
  0: 0x0030 [0x6C] FADE_ENTITY_COLOR(entity_id=EventEntity, end_alpha=0*, fade_time=1*)
  1: 0x0039 [0x00] END_REQSTACK()
```

### Event 65535.7

#### Metadata

| Field        | Value    |
|--------------|----------|
| Entrypoint   | 0x003A   |
| Data Size    | 10 bytes |
| Instructions | 2        |

```
      00 01 02 03 04 05 06 07  08 09 0A 0B 0C 0D 0E 0F
      -- -- -- -- -- -- -- --  -- -- -- -- -- -- -- --
0030:                                6C F8 FF FF 7F 02            l.....
0040: 80 01 80 00                                       ....            
```

#### Opcodes

```
  0: 0x003A [0x6C] FADE_ENTITY_COLOR(entity_id=EventEntity, end_alpha=128*, fade_time=1*)
  1: 0x0043 [0x00] END_REQSTACK()
```

### Event 15

#### Metadata

| Field        | Value   |
|--------------|---------|
| Entrypoint   | 0x0044  |
| Data Size    | 1 bytes |
| Instructions | 1       |

```
      00 01 02 03 04 05 06 07  08 09 0A 0B 0C 0D 0E 0F
      -- -- -- -- -- -- -- --  -- -- -- -- -- -- -- --
0040:             00                                        .           
```

#### Opcodes

```
  0: 0x0044 [0x00] END_REQSTACK()
```

### Event 65535.8

#### Metadata

| Field        | Value    |
|--------------|----------|
| Entrypoint   | 0x0045   |
| Data Size    | 30 bytes |
| Instructions | 6        |

```
      00 01 02 03 04 05 06 07  08 09 0A 0B 0C 0D 0E 0F
      -- -- -- -- -- -- -- --  -- -- -- -- -- -- -- --
0040:                59 05 F8  FF FF 7F 00 5E 69 64 6C       Y......^idl
0050: 30 7C 01 F8 FF FF 7F 81  01 F8 FF FF 7F 7B F8 FF  0|...........{..
0060: FF 7F 00                                          ...             
```

#### Opcodes

```
  0: 0x0045 [0x59] UPDATE_ENTITY_DATA: EventEntity->Render.Flags0 &= ~0x200000
  1: 0x004C [0x5E] EventEntity goes idle (kills current action) (animation: "idl0")
  2: 0x0051 [0x7C] EventEntity->Render.Flags2 |= 0x01
  3: 0x0057 [0x81] SET_ENTITY_BLINKING(blink_flag=0x01, entity=EventEntity)
  4: 0x005D [0x7B] EventEntity stops talking
  5: 0x0062 [0x00] END_REQSTACK()
```

### Event 65535.9

#### Metadata

| Field        | Value    |
|--------------|----------|
| Entrypoint   | 0x0063   |
| Data Size    | 32 bytes |
| Instructions | 5        |

```
      00 01 02 03 04 05 06 07  08 09 0A 0B 0C 0D 0E 0F
      -- -- -- -- -- -- -- --  -- -- -- -- -- -- -- --
0060:          79 00 F8 FF FF  7F 54 83 08 01 1C 03 80     y.....T......
0070: 66 04 80 55 83 08 01 55  83 08 01 73 69 6E 31 1C  f..U...U...sin1.
0080: 05 80 00                                          ...             
```

#### Opcodes

```
  0: 0x0063 [0x79] EventEntity looks at Lilisette (ID: 17335124/0x01088354) (Basic look)
  1: 0x006D [0x1C] WAIT(30* ticks)
  2: 0x0070 [0x66] LOAD_EXT_SCHEDULER_MAIN: Load scheduler "sin1" with entities [Portia (ID: 17335125/0x01088355), Portia (ID: 17335125/0x01088355)], work=88*
  3: 0x007F [0x1C] WAIT(40* ticks)
  4: 0x0082 [0x00] END_REQSTACK()
```

### Event 65535.10

#### Metadata

| Field        | Value    |
|--------------|----------|
| Entrypoint   | 0x0083   |
| Data Size    | 13 bytes |
| Instructions | 3        |

```
      00 01 02 03 04 05 06 07  08 09 0A 0B 0C 0D 0E 0F
      -- -- -- -- -- -- -- --  -- -- -- -- -- -- -- --
0080:          6E F8 FF FF 7F  06 80 99 F8 FF FF 7F 00     n............
```

#### Opcodes

```
  0: 0x0083 [0x6E] EventEntity uses emote 21*
  1: 0x008A [0x99] Wait for EventEntity animation to complete
  2: 0x008F [0x00] END_REQSTACK()
```

### Event 65535.11

#### Metadata

| Field        | Value    |
|--------------|----------|
| Entrypoint   | 0x0090   |
| Data Size    | 10 bytes |
| Instructions | 2        |

```
      00 01 02 03 04 05 06 07  08 09 0A 0B 0C 0D 0E 0F
      -- -- -- -- -- -- -- --  -- -- -- -- -- -- -- --
0090: 6C 55 83 08 01 00 80 01  80 00                    lU........      
```

#### Opcodes

```
  0: 0x0090 [0x6C] FADE_ENTITY_COLOR(entity_id=Portia (ID: 17335125/0x01088355), end_alpha=0*, fade_time=1*)
  1: 0x0099 [0x00] END_REQSTACK()
```

### Event 65535.12

#### Metadata

| Field        | Value    |
|--------------|----------|
| Entrypoint   | 0x009A   |
| Data Size    | 10 bytes |
| Instructions | 2        |

```
      00 01 02 03 04 05 06 07  08 09 0A 0B 0C 0D 0E 0F
      -- -- -- -- -- -- -- --  -- -- -- -- -- -- -- --
0090:                                6C 55 83 08 01 02            lU....
00A0: 80 01 80 00                                       ....            
```

#### Opcodes

```
  0: 0x009A [0x6C] FADE_ENTITY_COLOR(entity_id=Portia (ID: 17335125/0x01088355), end_alpha=128*, fade_time=1*)
  1: 0x00A3 [0x00] END_REQSTACK()
```

### Event 65535.13

#### Metadata

| Field        | Value   |
|--------------|---------|
| Entrypoint   | 0x00A4  |
| Data Size    | 4 bytes |
| Instructions | 2       |

```
      00 01 02 03 04 05 06 07  08 09 0A 0B 0C 0D 0E 0F
      -- -- -- -- -- -- -- --  -- -- -- -- -- -- -- --
00A0:             C0 01 80 00                               ....        
```

#### Opcodes

```
  0: 0x00A4 [0xC0] EventEntity->Render.Flags3 |= 0x1000 // Set bit 12 (from 1*)
  1: 0x00A7 [0x00] END_REQSTACK()
```

### Event 65535.14

#### Metadata

| Field        | Value   |
|--------------|---------|
| Entrypoint   | 0x00A8  |
| Data Size    | 4 bytes |
| Instructions | 2       |

```
      00 01 02 03 04 05 06 07  08 09 0A 0B 0C 0D 0E 0F
      -- -- -- -- -- -- -- --  -- -- -- -- -- -- -- --
00A0:                          C0 00 80 00                      ....    
```

#### Opcodes

```
  0: 0x00A8 [0xC0] EventEntity->Render.Flags3 &= ~0x1000 // Clear bit 12 (from 0*)
  1: 0x00AB [0x00] END_REQSTACK()
```

### Event 13

#### Metadata

| Field        | Value   |
|--------------|---------|
| Entrypoint   | 0x00AC  |
| Data Size    | 1 bytes |
| Instructions | 1       |

```
      00 01 02 03 04 05 06 07  08 09 0A 0B 0C 0D 0E 0F
      -- -- -- -- -- -- -- --  -- -- -- -- -- -- -- --
00A0:                                      00                       .   
```

#### Opcodes

```
  0: 0x00AC [0x00] END_REQSTACK()
```

### Event 29

#### Metadata

| Field        | Value   |
|--------------|---------|
| Entrypoint   | 0x00AD  |
| Data Size    | 1 bytes |
| Instructions | 1       |

```
      00 01 02 03 04 05 06 07  08 09 0A 0B 0C 0D 0E 0F
      -- -- -- -- -- -- -- --  -- -- -- -- -- -- -- --
00A0:                                         00                     .  
```

#### Opcodes

```
  0: 0x00AD [0x00] END_REQSTACK()
```

### Event 65535.15

#### Metadata

| Field        | Value    |
|--------------|----------|
| Entrypoint   | 0x00AE   |
| Data Size    | 15 bytes |
| Instructions | 5        |

```
      00 01 02 03 04 05 06 07  08 09 0A 0B 0C 0D 0E 0F
      -- -- -- -- -- -- -- --  -- -- -- -- -- -- -- --
00A0:                                            32 07                2.
00B0: 80 1F 00 08 80 09 80 0A  80 1F 01 6F 00           ...........o.   
```

#### Opcodes

```
  0: 0x00AE [0x32] ExtData[1]->MainSpeed = 13* * 0.1
  1: 0x00B1 [0x1F] MOVE_ENTITY: EventEntity moves to X=62.415*, Z=-464.978*, Y=-0.136*
  2: 0x00B9 [0x1F] MOVE_ENTITY: Update entity position (mode=1)
  3: 0x00BB [0x6F] WAIT_FRAME_DELAY: Yield until WaitTime reaches zero
  4: 0x00BC [0x00] END_REQSTACK()
```

### Event 65535.16

#### Metadata

| Field        | Value    |
|--------------|----------|
| Entrypoint   | 0x00BD   |
| Data Size    | 15 bytes |
| Instructions | 5        |

```
      00 01 02 03 04 05 06 07  08 09 0A 0B 0C 0D 0E 0F
      -- -- -- -- -- -- -- --  -- -- -- -- -- -- -- --
00B0:                                         32 0B 80               2..
00C0: 1F 00 0C 80 0D 80 0E 80  1F 01 6F 00              ..........o.    
```

#### Opcodes

```
  0: 0x00BD [0x32] ExtData[1]->MainSpeed = 10* * 0.1
  1: 0x00C0 [0x1F] MOVE_ENTITY: EventEntity moves to X=61.859*, Z=-467.554*, Y=-0.189*
  2: 0x00C8 [0x1F] MOVE_ENTITY: Update entity position (mode=1)
  3: 0x00CA [0x6F] WAIT_FRAME_DELAY: Yield until WaitTime reaches zero
  4: 0x00CB [0x00] END_REQSTACK()
```

### Event 65535.17

#### Metadata

| Field        | Value    |
|--------------|----------|
| Entrypoint   | 0x00CC   |
| Data Size    | 51 bytes |
| Instructions | 9        |

```
      00 01 02 03 04 05 06 07  08 09 0A 0B 0C 0D 0E 0F
      -- -- -- -- -- -- -- --  -- -- -- -- -- -- -- --
00C0:                                      32 0B 80 1F              2...
00D0: 00 0C 80 0D 80 0E 80 1F  01 6F 1C 0F 80 5B 10 80  .........o...[..
00E0: 55 83 08 01 55 83 08 01  6B 79 6F 30 1C 11 80 5B  U...U...kyo0...[
00F0: 10 80 55 83 08 01 55 83  08 01 6B 79 6F 31 00     ..U...U...kyo1. 
```

#### Opcodes

```
  0: 0x00CC [0x32] ExtData[1]->MainSpeed = 10* * 0.1
  1: 0x00CF [0x1F] MOVE_ENTITY: EventEntity moves to X=61.859*, Z=-467.554*, Y=-0.189*
  2: 0x00D7 [0x1F] MOVE_ENTITY: Update entity position (mode=1)
  3: 0x00D9 [0x6F] WAIT_FRAME_DELAY: Yield until WaitTime reaches zero
  4: 0x00DA [0x1C] WAIT(90* ticks)
  5: 0x00DD [0x5B] LOAD_EXT_SCHEDULER: Load scheduler "kyo0" with entities [Portia (ID: 17335125/0x01088355), Portia (ID: 17335125/0x01088355)], work=2293*
  6: 0x00EC [0x1C] WAIT(180* ticks)
  7: 0x00EF [0x5B] LOAD_EXT_SCHEDULER: Load scheduler "kyo1" with entities [Portia (ID: 17335125/0x01088355), Portia (ID: 17335125/0x01088355)], work=2293*
  8: 0x00FE [0x00] END_REQSTACK()
```

### Event 65535.18

#### Metadata

| Field        | Value    |
|--------------|----------|
| Entrypoint   | 0x00FF   |
| Data Size    | 25 bytes |
| Instructions | 6        |

```
      00 01 02 03 04 05 06 07  08 09 0A 0B 0C 0D 0E 0F
      -- -- -- -- -- -- -- --  -- -- -- -- -- -- -- --
00F0:                                               32                 2
0100: 07 80 1F 00 12 80 13 80  14 80 1F 01 6F 79 00 55  ............oy.U
0110: 83 08 01 56 83 08 01 00                           ...V....        
```

#### Opcodes

```
  0: 0x00FF [0x32] ExtData[1]->MainSpeed = 13* * 0.1
  1: 0x0102 [0x1F] MOVE_ENTITY: EventEntity moves to X=60.259*, Z=-470.810*, Y=0.187*
  2: 0x010A [0x1F] MOVE_ENTITY: Update entity position (mode=1)
  3: 0x010C [0x6F] WAIT_FRAME_DELAY: Yield until WaitTime reaches zero
  4: 0x010D [0x79] Portia (ID: 17335125/0x01088355) looks at Unnamed NPC (ID: 17335126/0x01088356) (Basic look)
  5: 0x0117 [0x00] END_REQSTACK()
```

### Event 65535.19

#### Metadata

| Field        | Value    |
|--------------|----------|
| Entrypoint   | 0x0118   |
| Data Size    | 25 bytes |
| Instructions | 7        |

```
      00 01 02 03 04 05 06 07  08 09 0A 0B 0C 0D 0E 0F
      -- -- -- -- -- -- -- --  -- -- -- -- -- -- -- --
0110:                          32 07 80 1F 00 15 80 16          2.......
0120: 80 17 80 1F 01 1F 00 18  80 19 80 1A 80 1F 01 6F  ...............o
0130: 00                                                .               
```

#### Opcodes

```
  0: 0x0118 [0x32] ExtData[1]->MainSpeed = 13* * 0.1
  1: 0x011B [0x1F] MOVE_ENTITY: EventEntity moves to X=58.945*, Z=-459.356*, Y=-0.414*
  2: 0x0123 [0x1F] MOVE_ENTITY: Update entity position (mode=1)
  3: 0x0125 [0x1F] MOVE_ENTITY: EventEntity moves to X=56.621*, Z=-446.258*, Y=-0.016*
  4: 0x012D [0x1F] MOVE_ENTITY: Update entity position (mode=1)
  5: 0x012F [0x6F] WAIT_FRAME_DELAY: Yield until WaitTime reaches zero
  6: 0x0130 [0x00] END_REQSTACK()
```

### Event 65535.20

#### Metadata

| Field        | Value    |
|--------------|----------|
| Entrypoint   | 0x0131   |
| Data Size    | 21 bytes |
| Instructions | 2        |

```
      00 01 02 03 04 05 06 07  08 09 0A 0B 0C 0D 0E 0F
      -- -- -- -- -- -- -- --  -- -- -- -- -- -- -- --
0130:    B6 0B 1B 80 1C 80 1D  80 05 80 1D 80 1D 80 1D   ...............
0140: 80 1E 80 00 80 00                                 ......          
```

#### Opcodes

```
  0: 0x0131 [0xB6] ENTITY_APPEARANCE_HANDLER(case=Full entity look, race=4*, hair=5*, head=151*, body=40*, hands=151*, legs=151*, feet=151*, main=348*, sub=0*)
  1: 0x0145 [0x00] END_REQSTACK()
```

### Event 65535.21

#### Metadata

| Field        | Value    |
|--------------|----------|
| Entrypoint   | 0x0146   |
| Data Size    | 21 bytes |
| Instructions | 2        |

```
      00 01 02 03 04 05 06 07  08 09 0A 0B 0C 0D 0E 0F
      -- -- -- -- -- -- -- --  -- -- -- -- -- -- -- --
0140:                   B6 0B  1F 80 20 80 00 80 21 80        .... ...!.
0150: 21 80 21 80 21 80 22 80  00 80 00                 !.!.!."....     
```

#### Opcodes

```
  0: 0x0146 [0xB6] ENTITY_APPEARANCE_HANDLER(case=Full entity look, race=2*, hair=27*, head=0*, body=211*, hands=211*, legs=211*, feet=211*, main=379*, sub=0*)
  1: 0x015A [0x00] END_REQSTACK()
```

### Event 16

#### Metadata

| Field        | Value   |
|--------------|---------|
| Entrypoint   | 0x015B  |
| Data Size    | 1 bytes |
| Instructions | 1       |

```
      00 01 02 03 04 05 06 07  08 09 0A 0B 0C 0D 0E 0F
      -- -- -- -- -- -- -- --  -- -- -- -- -- -- -- --
0150:                                   00                         .    
```

#### Opcodes

```
  0: 0x015B [0x00] END_REQSTACK()
```

### Event 19

#### Metadata

| Field        | Value   |
|--------------|---------|
| Entrypoint   | 0x015C  |
| Data Size    | 1 bytes |
| Instructions | 1       |

```
      00 01 02 03 04 05 06 07  08 09 0A 0B 0C 0D 0E 0F
      -- -- -- -- -- -- -- --  -- -- -- -- -- -- -- --
0150:                                      00                       .   
```

#### Opcodes

```
  0: 0x015C [0x00] END_REQSTACK()
```

### Event 65535.22

#### Metadata

| Field        | Value    |
|--------------|----------|
| Entrypoint   | 0x015D   |
| Data Size    | 21 bytes |
| Instructions | 2        |

```
      00 01 02 03 04 05 06 07  08 09 0A 0B 0C 0D 0E 0F
      -- -- -- -- -- -- -- --  -- -- -- -- -- -- -- --
0150:                                         B6 0B 1F               ...
0160: 80 20 80 00 80 23 80 21  80 21 80 21 80 00 80 00  . ...#.!.!.!....
0170: 80 00                                             ..              
```

#### Opcodes

```
  0: 0x015D [0xB6] ENTITY_APPEARANCE_HANDLER(case=Full entity look, race=2*, hair=27*, head=0*, body=96*, hands=211*, legs=211*, feet=211*, main=0*, sub=0*)
  1: 0x0171 [0x00] END_REQSTACK()
```

### Event 65535.23

#### Metadata

| Field        | Value    |
|--------------|----------|
| Entrypoint   | 0x0172   |
| Data Size    | 21 bytes |
| Instructions | 2        |

```
      00 01 02 03 04 05 06 07  08 09 0A 0B 0C 0D 0E 0F
      -- -- -- -- -- -- -- --  -- -- -- -- -- -- -- --
0170:       B6 0B 1F 80 20 80  00 80 21 80 21 80 21 80    .... ...!.!.!.
0180: 21 80 22 80 00 80 00                              !."....         
```

#### Opcodes

```
  0: 0x0172 [0xB6] ENTITY_APPEARANCE_HANDLER(case=Full entity look, race=2*, hair=27*, head=0*, body=211*, hands=211*, legs=211*, feet=211*, main=379*, sub=0*)
  1: 0x0186 [0x00] END_REQSTACK()
```

### Event 65535.24

#### Metadata

| Field        | Value    |
|--------------|----------|
| Entrypoint   | 0x0187   |
| Data Size    | 21 bytes |
| Instructions | 2        |

```
      00 01 02 03 04 05 06 07  08 09 0A 0B 0C 0D 0E 0F
      -- -- -- -- -- -- -- --  -- -- -- -- -- -- -- --
0180:                      B6  0B 1F 80 20 80 00 80 21         .... ...!
0190: 80 21 80 21 80 21 80 22  80 22 80 00              .!.!.!."."..    
```

#### Opcodes

```
  0: 0x0187 [0xB6] ENTITY_APPEARANCE_HANDLER(case=Full entity look, race=2*, hair=27*, head=0*, body=211*, hands=211*, legs=211*, feet=211*, main=379*, sub=379*)
  1: 0x019B [0x00] END_REQSTACK()
```

### Event 65535.25

#### Metadata

| Field        | Value   |
|--------------|---------|
| Entrypoint   | 0x019C  |
| Data Size    | 3 bytes |
| Instructions | 2       |

```
      00 01 02 03 04 05 06 07  08 09 0A 0B 0C 0D 0E 0F
      -- -- -- -- -- -- -- --  -- -- -- -- -- -- -- --
0190:                                      AB 08 00                 ... 
```

#### Opcodes

```
  0: 0x019C [0xAB] EventEntity->Render.Flags2 |= 0x02 // Set bit 1
  1: 0x019E [0x00] END_REQSTACK()
```

### Event 65535.26

#### Metadata

| Field        | Value   |
|--------------|---------|
| Entrypoint   | 0x019F  |
| Data Size    | 3 bytes |
| Instructions | 2       |

```
      00 01 02 03 04 05 06 07  08 09 0A 0B 0C 0D 0E 0F
      -- -- -- -- -- -- -- --  -- -- -- -- -- -- -- --
0190:                                               AB                 .
01A0: 07 00                                             ..              
```

#### Opcodes

```
  0: 0x019F [0xAB] EventEntity->Render.Flags2 |= 0x01 // Set bit 0
  1: 0x01A1 [0x00] END_REQSTACK()
```

### Event 8

#### Metadata

| Field        | Value   |
|--------------|---------|
| Entrypoint   | 0x01A2  |
| Data Size    | 7 bytes |
| Instructions | 2       |

```
      00 01 02 03 04 05 06 07  08 09 0A 0B 0C 0D 0E 0F
      -- -- -- -- -- -- -- --  -- -- -- -- -- -- -- --
01A0:       92 01 F8 FF FF 7F  00                         .......       
```

#### Opcodes

```
  0: 0x01A2 [0x92] EventEntity->Render.Flags3 ^= 0x01
  1: 0x01A8 [0x00] END_REQSTACK()
```

### Event 9

#### Metadata

| Field        | Value   |
|--------------|---------|
| Entrypoint   | 0x01A9  |
| Data Size    | 7 bytes |
| Instructions | 2       |

```
      00 01 02 03 04 05 06 07  08 09 0A 0B 0C 0D 0E 0F
      -- -- -- -- -- -- -- --  -- -- -- -- -- -- -- --
01A0:                             92 01 F8 FF FF 7F 00           .......
```

#### Opcodes

```
  0: 0x01A9 [0x92] EventEntity->Render.Flags3 ^= 0x01
  1: 0x01AF [0x00] END_REQSTACK()
```

### Event 65535.27

#### Metadata

| Field        | Value    |
|--------------|----------|
| Entrypoint   | 0x01B0   |
| Data Size    | 12 bytes |
| Instructions | 3        |

```
      00 01 02 03 04 05 06 07  08 09 0A 0B 0C 0D 0E 0F
      -- -- -- -- -- -- -- --  -- -- -- -- -- -- -- --
01B0: 2A 05 54 83 08 01 03 28  10 01 80 00              *.T....(....    
```

#### Opcodes

```
  0: 0x01B0 [0x2A] GET_REQ_LEVEL(level=5, entity_id=Lilisette (ID: 17335124/0x01088354))
  1: 0x01B6 [0x03] Work_Zone[40] = 1*
  2: 0x01BB [0x00] END_REQSTACK()
```

### Event 10

#### Metadata

| Field        | Value   |
|--------------|---------|
| Entrypoint   | 0x01BC  |
| Data Size    | 7 bytes |
| Instructions | 2       |

```
      00 01 02 03 04 05 06 07  08 09 0A 0B 0C 0D 0E 0F
      -- -- -- -- -- -- -- --  -- -- -- -- -- -- -- --
01B0:                                      92 01 F8 FF              ....
01C0: FF 7F 00                                          ...             
```

#### Opcodes

```
  0: 0x01BC [0x92] EventEntity->Render.Flags3 ^= 0x01
  1: 0x01C2 [0x00] END_REQSTACK()
```

### Event 65535.28

#### Metadata

| Field        | Value    |
|--------------|----------|
| Entrypoint   | 0x01C3   |
| Data Size    | 37 bytes |
| Instructions | 6        |

```
      00 01 02 03 04 05 06 07  08 09 0A 0B 0C 0D 0E 0F
      -- -- -- -- -- -- -- --  -- -- -- -- -- -- -- --
01C0:          13 00 00 24 80  02 00 00 00 80 80 E7 01     ...$.........
01D0: 5B 10 80 55 83 08 01 55  83 08 01 6B 79 6F 30 03  [..U...U...kyo0.
01E0: 29 10 01 80 01 E7 01 00                           ).......        
```

#### Opcodes

```
  0: 0x01C3 [0x13] ExtData[1]->WorkLocal[0] = rand() % 3*
  1: 0x01C8 [0x02] IF !(ExtData[1]->WorkLocal[0] == 0*) GOTO 0x01E7
  2: 0x01D0 [0x5B] LOAD_EXT_SCHEDULER: Load scheduler "kyo0" with entities [Portia (ID: 17335125/0x01088355), Portia (ID: 17335125/0x01088355)], work=2293*
  3: 0x01DF [0x03] Work_Zone[41] = 1*
  4: 0x01E4 [0x01] GOTO 0x01E7

SUBROUTINE_01E7:
  5: 0x01E7 [0x00] END_REQSTACK()
```

### Event 65535.29

#### Metadata

| Field        | Value   |
|--------------|---------|
| Entrypoint   | 0x01E8  |
| Data Size    | 6 bytes |
| Instructions | 2       |

```
      00 01 02 03 04 05 06 07  08 09 0A 0B 0C 0D 0E 0F
      -- -- -- -- -- -- -- --  -- -- -- -- -- -- -- --
01E0:                          03 01 00 00 80 00                ......  
```

#### Opcodes

```
  0: 0x01E8 [0x03] ExtData[1]->WorkLocal[1] = 0*
  1: 0x01ED [0x00] END_REQSTACK()
```

### Event 65535.30

#### Metadata

| Field        | Value     |
|--------------|-----------|
| Entrypoint   | 0x01EE    |
| Data Size    | 322 bytes |
| Instructions | 65        |

```
      00 01 02 03 04 05 06 07  08 09 0A 0B 0C 0D 0E 0F
      -- -- -- -- -- -- -- --  -- -- -- -- -- -- -- --
01E0:                                            02 29                .)
01F0: 10 01 80 00 0D 02 5B 10  80 55 83 08 01 55 83 08  ......[..U...U..
0200: 01 6B 79 6F 31 1C 0F 80  03 29 10 00 80 02 01 00  .kyo1....)......
0210: 00 80 80 2A 02 32 07 80  1F 00 25 80 26 80 27 80  ...*.2....%.&.'.
0220: 1F 01 03 01 00 01 80 01  2F 03 02 01 00 01 80 80  ......../.......
0230: 47 02 32 07 80 1F 00 28  80 29 80 2A 80 1F 01 03  G.2....(.).*....
0240: 01 00 1F 80 01 2F 03 02  01 00 1F 80 80 64 02 32  ...../.......d.2
0250: 07 80 1F 00 2B 80 2C 80  2D 80 1F 01 03 01 00 24  ....+.,.-......$
0260: 80 01 2F 03 02 01 00 24  80 80 81 02 32 07 80 1F  ../....$....2...
0270: 00 2E 80 2F 80 30 80 1F  01 03 01 00 1B 80 01 2F  .../.0........./
0280: 03 02 01 00 1B 80 80 9E  02 32 07 80 1F 00 31 80  .........2....1.
0290: 32 80 33 80 1F 01 03 01  00 1C 80 01 2F 03 02 01  2.3........./...
02A0: 00 1C 80 80 BB 02 32 07  80 1F 00 34 80 35 80 36  ......2....4.5.6
02B0: 80 1F 01 03 01 00 37 80  01 2F 03 02 01 00 37 80  ......7../....7.
02C0: 80 D8 02 32 07 80 1F 00  38 80 39 80 3A 80 1F 01  ...2....8.9.:...
02D0: 03 01 00 3B 80 01 2F 03  02 01 00 3B 80 80 F5 02  ...;../....;....
02E0: 32 07 80 1F 00 3C 80 3D  80 3E 80 1F 01 03 01 00  2....<.=.>......
02F0: 3F 80 01 2F 03 02 01 00  3F 80 80 12 03 32 07 80  ?../....?....2..
0300: 1F 00 40 80 41 80 42 80  1F 01 03 01 00 43 80 01  ..@.A.B......C..
0310: 2F 03 02 01 00 43 80 80  2F 03 32 07 80 1F 00 44  /....C../.2....D
0320: 80 45 80 46 80 1F 01 03  25 10 01 80 01 2F 03 00  .E.F....%..../..
```

#### Opcodes

```
  0: 0x01EE [0x02] IF !(Work_Zone[41] == 1*) GOTO 0x020D
  1: 0x01F6 [0x5B] LOAD_EXT_SCHEDULER: Load scheduler "kyo1" with entities [Portia (ID: 17335125/0x01088355), Portia (ID: 17335125/0x01088355)], work=2293*
  2: 0x0205 [0x1C] WAIT(90* ticks)
  3: 0x0208 [0x03] Work_Zone[41] = 0*
  4: 0x020D [0x02] IF !(ExtData[1]->WorkLocal[1] == 0*) GOTO 0x022A
  5: 0x0215 [0x32] ExtData[1]->MainSpeed = 13* * 0.1
  6: 0x0218 [0x1F] MOVE_ENTITY: EventEntity moves to X=-20.623*, Z=-53.027*, Y=-57.449*
  7: 0x0220 [0x1F] MOVE_ENTITY: Update entity position (mode=1)
  8: 0x0222 [0x03] ExtData[1]->WorkLocal[1] = 1*
  9: 0x0227 [0x01] GOTO 0x032F
 10: 0x022A [0x02] IF !(ExtData[1]->WorkLocal[1] == 1*) GOTO 0x0247
 11: 0x0232 [0x32] ExtData[1]->MainSpeed = 13* * 0.1
 12: 0x0235 [0x1F] MOVE_ENTITY: EventEntity moves to X=-20.746*, Z=-52.199*, Y=-57.050*
 13: 0x023D [0x1F] MOVE_ENTITY: Update entity position (mode=1)
 14: 0x023F [0x03] ExtData[1]->WorkLocal[1] = 2*
 15: 0x0244 [0x01] GOTO 0x032F
 16: 0x0247 [0x02] IF !(ExtData[1]->WorkLocal[1] == 2*) GOTO 0x0264
 17: 0x024F [0x32] ExtData[1]->MainSpeed = 13* * 0.1
 18: 0x0252 [0x1F] MOVE_ENTITY: EventEntity moves to X=-20.666*, Z=-51.351*, Y=-56.648*
 19: 0x025A [0x1F] MOVE_ENTITY: Update entity position (mode=1)
 20: 0x025C [0x03] ExtData[1]->WorkLocal[1] = 3*
 21: 0x0261 [0x01] GOTO 0x032F
 22: 0x0264 [0x02] IF !(ExtData[1]->WorkLocal[1] == 3*) GOTO 0x0281
 23: 0x026C [0x32] ExtData[1]->MainSpeed = 13* * 0.1
 24: 0x026F [0x1F] MOVE_ENTITY: EventEntity moves to X=-20.683*, Z=-50.612*, Y=-56.249*
 25: 0x0277 [0x1F] MOVE_ENTITY: Update entity position (mode=1)
 26: 0x0279 [0x03] ExtData[1]->WorkLocal[1] = 4*
 27: 0x027E [0x01] GOTO 0x032F
 28: 0x0281 [0x02] IF !(ExtData[1]->WorkLocal[1] == 4*) GOTO 0x029E
 29: 0x0289 [0x32] ExtData[1]->MainSpeed = 13* * 0.1
 30: 0x028C [0x1F] MOVE_ENTITY: EventEntity moves to X=-20.664*, Z=-49.860*, Y=-55.851*
 31: 0x0294 [0x1F] MOVE_ENTITY: Update entity position (mode=1)
 32: 0x0296 [0x03] ExtData[1]->WorkLocal[1] = 5*
 33: 0x029B [0x01] GOTO 0x032F
 34: 0x029E [0x02] IF !(ExtData[1]->WorkLocal[1] == 5*) GOTO 0x02BB
 35: 0x02A6 [0x32] ExtData[1]->MainSpeed = 13* * 0.1
 36: 0x02A9 [0x1F] MOVE_ENTITY: EventEntity moves to X=-20.651*, Z=-49.023*, Y=-55.449*
 37: 0x02B1 [0x1F] MOVE_ENTITY: Update entity position (mode=1)
 38: 0x02B3 [0x03] ExtData[1]->WorkLocal[1] = 6*
 39: 0x02B8 [0x01] GOTO 0x032F
 40: 0x02BB [0x02] IF !(ExtData[1]->WorkLocal[1] == 6*) GOTO 0x02D8
 41: 0x02C3 [0x32] ExtData[1]->MainSpeed = 13* * 0.1
 42: 0x02C6 [0x1F] MOVE_ENTITY: EventEntity moves to X=-20.729*, Z=-48.182*, Y=-55.050*
 43: 0x02CE [0x1F] MOVE_ENTITY: Update entity position (mode=1)
 44: 0x02D0 [0x03] ExtData[1]->WorkLocal[1] = 7*
 45: 0x02D5 [0x01] GOTO 0x032F
 46: 0x02D8 [0x02] IF !(ExtData[1]->WorkLocal[1] == 7*) GOTO 0x02F5
 47: 0x02E0 [0x32] ExtData[1]->MainSpeed = 13* * 0.1
 48: 0x02E3 [0x1F] MOVE_ENTITY: EventEntity moves to X=-20.634*, Z=-47.402*, Y=-54.648*
 49: 0x02EB [0x1F] MOVE_ENTITY: Update entity position (mode=1)
 50: 0x02ED [0x03] ExtData[1]->WorkLocal[1] = 8*
 51: 0x02F2 [0x01] GOTO 0x032F
 52: 0x02F5 [0x02] IF !(ExtData[1]->WorkLocal[1] == 8*) GOTO 0x0312
 53: 0x02FD [0x32] ExtData[1]->MainSpeed = 13* * 0.1
 54: 0x0300 [0x1F] MOVE_ENTITY: EventEntity moves to X=-20.648*, Z=-46.582*, Y=-54.250*
 55: 0x0308 [0x1F] MOVE_ENTITY: Update entity position (mode=1)
 56: 0x030A [0x03] ExtData[1]->WorkLocal[1] = 9*
 57: 0x030F [0x01] GOTO 0x032F
 58: 0x0312 [0x02] IF !(ExtData[1]->WorkLocal[1] == 9*) GOTO 0x032F
 59: 0x031A [0x32] ExtData[1]->MainSpeed = 13* * 0.1
 60: 0x031D [0x1F] MOVE_ENTITY: EventEntity moves to X=-20.719*, Z=-45.651*, Y=-53.851*
 61: 0x0325 [0x1F] MOVE_ENTITY: Update entity position (mode=1)
 62: 0x0327 [0x03] Work_Zone[37] = 1*
 63: 0x032C [0x01] GOTO 0x032F

SUBROUTINE_032F:
 64: 0x032F [0x00] END_REQSTACK()
```

### Event 11

#### Metadata

| Field        | Value   |
|--------------|---------|
| Entrypoint   | 0x0330  |
| Data Size    | 7 bytes |
| Instructions | 2       |

```
      00 01 02 03 04 05 06 07  08 09 0A 0B 0C 0D 0E 0F
      -- -- -- -- -- -- -- --  -- -- -- -- -- -- -- --
0330: 92 01 F8 FF FF 7F 00                              .......         
```

#### Opcodes

```
  0: 0x0330 [0x92] EventEntity->Render.Flags3 ^= 0x01
  1: 0x0336 [0x00] END_REQSTACK()
```

### Event 65535.31

#### Metadata

| Field        | Value    |
|--------------|----------|
| Entrypoint   | 0x0337   |
| Data Size    | 17 bytes |
| Instructions | 5        |

```
      00 01 02 03 04 05 06 07  08 09 0A 0B 0C 0D 0E 0F
      -- -- -- -- -- -- -- --  -- -- -- -- -- -- -- --
0330:                      1C  47 80 03 27 10 01 80 1C         .G..'....
0340: 05 80 03 27 10 00 80 00                           ...'....        
```

#### Opcodes

```
  0: 0x0337 [0x1C] WAIT(15* ticks)
  1: 0x033A [0x03] Work_Zone[39] = 1*
  2: 0x033F [0x1C] WAIT(40* ticks)
  3: 0x0342 [0x03] Work_Zone[39] = 0*
  4: 0x0347 [0x00] END_REQSTACK()
```

### Event 12

#### Metadata

| Field        | Value   |
|--------------|---------|
| Entrypoint   | 0x0348  |
| Data Size    | 7 bytes |
| Instructions | 2       |

```
      00 01 02 03 04 05 06 07  08 09 0A 0B 0C 0D 0E 0F
      -- -- -- -- -- -- -- --  -- -- -- -- -- -- -- --
0340:                          92 01 F8 FF FF 7F 00             ....... 
```

#### Opcodes

```
  0: 0x0348 [0x92] EventEntity->Render.Flags3 ^= 0x01
  1: 0x034E [0x00] END_REQSTACK()
```

### Event 14

#### Metadata

| Field        | Value   |
|--------------|---------|
| Entrypoint   | 0x034F  |
| Data Size    | 7 bytes |
| Instructions | 2       |

```
      00 01 02 03 04 05 06 07  08 09 0A 0B 0C 0D 0E 0F
      -- -- -- -- -- -- -- --  -- -- -- -- -- -- -- --
0340:                                               92                 .
0350: 01 F8 FF FF 7F 00                                 ......          
```

#### Opcodes

```
  0: 0x034F [0x92] EventEntity->Render.Flags3 ^= 0x01
  1: 0x0355 [0x00] END_REQSTACK()
```

### Event 65535.32

#### Metadata

| Field        | Value    |
|--------------|----------|
| Entrypoint   | 0x0356   |
| Data Size    | 14 bytes |
| Instructions | 4        |

```
      00 01 02 03 04 05 06 07  08 09 0A 0B 0C 0D 0E 0F
      -- -- -- -- -- -- -- --  -- -- -- -- -- -- -- --
0350:                   32 07  80 1F 00 48 80 49 80 4A        2....H.I.J
0360: 80 1F 01 00                                       ....            
```

#### Opcodes

```
  0: 0x0356 [0x32] ExtData[1]->MainSpeed = 13* * 0.1
  1: 0x0359 [0x1F] MOVE_ENTITY: EventEntity moves to X=51.403*, Z=-324.326*, Y=0.350*
  2: 0x0361 [0x1F] MOVE_ENTITY: Update entity position (mode=1)
  3: 0x0363 [0x00] END_REQSTACK()
```

### Event 18

#### Metadata

| Field        | Value   |
|--------------|---------|
| Entrypoint   | 0x0364  |
| Data Size    | 7 bytes |
| Instructions | 2       |

```
      00 01 02 03 04 05 06 07  08 09 0A 0B 0C 0D 0E 0F
      -- -- -- -- -- -- -- --  -- -- -- -- -- -- -- --
0360:             92 01 F8 FF  FF 7F 00                     .......     
```

#### Opcodes

```
  0: 0x0364 [0x92] EventEntity->Render.Flags3 ^= 0x01
  1: 0x036A [0x00] END_REQSTACK()
```

### Event 65535.33

#### Metadata

| Field        | Value    |
|--------------|----------|
| Entrypoint   | 0x036B   |
| Data Size    | 27 bytes |
| Instructions | 7        |

```
      00 01 02 03 04 05 06 07  08 09 0A 0B 0C 0D 0E 0F
      -- -- -- -- -- -- -- --  -- -- -- -- -- -- -- --
0360:                                   32 05 80 1F 00             2....
0370: 4B 80 4C 80 4D 80 1F 01  1E 59 83 08 01 7B F8 FF  K.L.M....Y...{..
0380: FF 7F 1C 03 80 00                                 ......          
```

#### Opcodes

```
  0: 0x036B [0x32] ExtData[1]->MainSpeed = 40* * 0.1
  1: 0x036E [0x1F] MOVE_ENTITY: EventEntity moves to X=400.278*, Z=-455.121*, Y=1.499*
  2: 0x0376 [0x1F] MOVE_ENTITY: Update entity position (mode=1)
  3: 0x0378 [0x1E] EventEntity looks at Cait Sith Ceithir (ID: 17335129/0x01088359) and starts talking
  4: 0x037D [0x7B] EventEntity stops talking
  5: 0x0382 [0x1C] WAIT(30* ticks)
  6: 0x0385 [0x00] END_REQSTACK()
```

### Event 65535.34

#### Metadata

| Field        | Value   |
|--------------|---------|
| Entrypoint   | 0x0386  |
| Data Size    | 4 bytes |
| Instructions | 2       |

```
      00 01 02 03 04 05 06 07  08 09 0A 0B 0C 0D 0E 0F
      -- -- -- -- -- -- -- --  -- -- -- -- -- -- -- --
0380:                   C0 01  80 00                          ....      
```

#### Opcodes

```
  0: 0x0386 [0xC0] EventEntity->Render.Flags3 |= 0x1000 // Set bit 12 (from 1*)
  1: 0x0389 [0x00] END_REQSTACK()
```

### Event 17

#### Metadata

| Field        | Value   |
|--------------|---------|
| Entrypoint   | 0x038A  |
| Data Size    | 1 bytes |
| Instructions | 1       |

```
      00 01 02 03 04 05 06 07  08 09 0A 0B 0C 0D 0E 0F
      -- -- -- -- -- -- -- --  -- -- -- -- -- -- -- --
0380:                                00                           .     
```

#### Opcodes

```
  0: 0x038A [0x00] END_REQSTACK()
```

### Event 65535.35

#### Metadata

| Field        | Value    |
|--------------|----------|
| Entrypoint   | 0x038B   |
| Data Size    | 11 bytes |
| Instructions | 3        |

```
      00 01 02 03 04 05 06 07  08 09 0A 0B 0C 0D 0E 0F
      -- -- -- -- -- -- -- --  -- -- -- -- -- -- -- --
0380:                                   1F 00 4E 80 4F             ..N.O
0390: 80 50 80 1F 01 00                                 .P....          
```

#### Opcodes

```
  0: 0x038B [0x1F] MOVE_ENTITY: EventEntity moves to X=-117.194*, Z=110.372*, Y=-4.049*
  1: 0x0393 [0x1F] MOVE_ENTITY: Update entity position (mode=1)
  2: 0x0395 [0x00] END_REQSTACK()
```

### Event 65535.36

#### Metadata

| Field        | Value    |
|--------------|----------|
| Entrypoint   | 0x0396   |
| Data Size    | 11 bytes |
| Instructions | 3        |

```
      00 01 02 03 04 05 06 07  08 09 0A 0B 0C 0D 0E 0F
      -- -- -- -- -- -- -- --  -- -- -- -- -- -- -- --
0390:                   1F 00  51 80 52 80 53 80 1F 01        ..Q.R.S...
03A0: 00                                                .               
```

#### Opcodes

```
  0: 0x0396 [0x1F] MOVE_ENTITY: EventEntity moves to X=-417.965*, Z=-121.469*, Y=0.999*
  1: 0x039E [0x1F] MOVE_ENTITY: Update entity position (mode=1)
  2: 0x03A0 [0x00] END_REQSTACK()
```

### Event 65535.37

#### Metadata

| Field        | Value    |
|--------------|----------|
| Entrypoint   | 0x03A1   |
| Data Size    | 11 bytes |
| Instructions | 3        |

```
      00 01 02 03 04 05 06 07  08 09 0A 0B 0C 0D 0E 0F
      -- -- -- -- -- -- -- --  -- -- -- -- -- -- -- --
03A0:    1F 00 54 80 55 80 53  80 1F 01 00               ..T.U.S....    
```

#### Opcodes

```
  0: 0x03A1 [0x1F] MOVE_ENTITY: EventEntity moves to X=-413.825*, Z=-120.629*, Y=0.999*
  1: 0x03A9 [0x1F] MOVE_ENTITY: Update entity position (mode=1)
  2: 0x03AB [0x00] END_REQSTACK()
```

### Event 65535.38

#### Metadata

| Field        | Value    |
|--------------|----------|
| Entrypoint   | 0x03AC   |
| Data Size    | 11 bytes |
| Instructions | 3        |

```
      00 01 02 03 04 05 06 07  08 09 0A 0B 0C 0D 0E 0F
      -- -- -- -- -- -- -- --  -- -- -- -- -- -- -- --
03A0:                                      1F 00 56 80              ..V.
03B0: 57 80 53 80 1F 01 00                              W.S....         
```

#### Opcodes

```
  0: 0x03AC [0x1F] MOVE_ENTITY: EventEntity moves to X=-416.042*, Z=-121.084*, Y=0.999*
  1: 0x03B4 [0x1F] MOVE_ENTITY: Update entity position (mode=1)
  2: 0x03B6 [0x00] END_REQSTACK()
```

### Event 65535.39

#### Metadata

| Field        | Value     |
|--------------|-----------|
| Entrypoint   | 0x03B7    |
| Data Size    | 218 bytes |
| Instructions | 22        |

```
      00 01 02 03 04 05 06 07  08 09 0A 0B 0C 0D 0E 0F
      -- -- -- -- -- -- -- --  -- -- -- -- -- -- -- --
03B0:                      1C  58 80 C5 59 80 55 83 08         .X..Y.U..
03C0: 01 55 83 08 01 73 74 30  37 00 80 C5 59 80 55 83  .U...st07...Y.U.
03D0: 08 01 55 83 08 01 73 65  30 30 00 80 1C 5A 80 C5  ..U...se00...Z..
03E0: 59 80 55 83 08 01 55 83  08 01 73 74 30 37 00 80  Y.U...U...st07..
03F0: 1C 5A 80 C5 59 80 55 83  08 01 55 83 08 01 73 74  .Z..Y.U...U...st
0400: 30 37 00 80 1C 5A 80 C5  59 80 55 83 08 01 55 83  07...Z..Y.U...U.
0410: 08 01 73 74 30 37 00 80  1C 5A 80 C5 59 80 55 83  ..st07...Z..Y.U.
0420: 08 01 55 83 08 01 73 74  30 37 00 80 1C 5A 80 C5  ..U...st07...Z..
0430: 59 80 55 83 08 01 55 83  08 01 73 74 30 37 00 80  Y.U...U...st07..
0440: 1C 5A 80 C5 59 80 55 83  08 01 55 83 08 01 73 74  .Z..Y.U...U...st
0450: 30 37 00 80 1C 5A 80 C5  59 80 55 83 08 01 55 83  07...Z..Y.U...U.
0460: 08 01 73 74 30 37 00 80  1C 5A 80 C5 59 80 55 83  ..st07...Z..Y.U.
0470: 08 01 55 83 08 01 73 74  30 37 00 80 1C 5A 80 C5  ..U...st07...Z..
0480: 59 80 55 83 08 01 55 83  08 01 73 74 30 37 00 80  Y.U...U...st07..
0490: 00                                                .               
```

#### Opcodes

```
  0: 0x03B7 [0x1C] WAIT(80* ticks)
  1: 0x03BA [0xC5] LOAD_SCHEDULED_TASK_ALT3: Load scheduler 0x80003730 for entities [Portia (ID: 17335125/0x01088355), Portia (ID: 17335125/0x01088355)], work=148*, param=29811
  2: 0x03CB [0xC5] LOAD_SCHEDULED_TASK_ALT3: Load scheduler 0x80003030 for entities [Portia (ID: 17335125/0x01088355), Portia (ID: 17335125/0x01088355)], work=148*, param=25971
  3: 0x03DC [0x1C] WAIT(250* ticks)
  4: 0x03DF [0xC5] LOAD_SCHEDULED_TASK_ALT3: Load scheduler 0x80003730 for entities [Portia (ID: 17335125/0x01088355), Portia (ID: 17335125/0x01088355)], work=148*, param=29811
  5: 0x03F0 [0x1C] WAIT(250* ticks)
  6: 0x03F3 [0xC5] LOAD_SCHEDULED_TASK_ALT3: Load scheduler 0x80003730 for entities [Portia (ID: 17335125/0x01088355), Portia (ID: 17335125/0x01088355)], work=148*, param=29811
  7: 0x0404 [0x1C] WAIT(250* ticks)
  8: 0x0407 [0xC5] LOAD_SCHEDULED_TASK_ALT3: Load scheduler 0x80003730 for entities [Portia (ID: 17335125/0x01088355), Portia (ID: 17335125/0x01088355)], work=148*, param=29811
  9: 0x0418 [0x1C] WAIT(250* ticks)
 10: 0x041B [0xC5] LOAD_SCHEDULED_TASK_ALT3: Load scheduler 0x80003730 for entities [Portia (ID: 17335125/0x01088355), Portia (ID: 17335125/0x01088355)], work=148*, param=29811
 11: 0x042C [0x1C] WAIT(250* ticks)
 12: 0x042F [0xC5] LOAD_SCHEDULED_TASK_ALT3: Load scheduler 0x80003730 for entities [Portia (ID: 17335125/0x01088355), Portia (ID: 17335125/0x01088355)], work=148*, param=29811
 13: 0x0440 [0x1C] WAIT(250* ticks)
 14: 0x0443 [0xC5] LOAD_SCHEDULED_TASK_ALT3: Load scheduler 0x80003730 for entities [Portia (ID: 17335125/0x01088355), Portia (ID: 17335125/0x01088355)], work=148*, param=29811
 15: 0x0454 [0x1C] WAIT(250* ticks)
 16: 0x0457 [0xC5] LOAD_SCHEDULED_TASK_ALT3: Load scheduler 0x80003730 for entities [Portia (ID: 17335125/0x01088355), Portia (ID: 17335125/0x01088355)], work=148*, param=29811
 17: 0x0468 [0x1C] WAIT(250* ticks)
 18: 0x046B [0xC5] LOAD_SCHEDULED_TASK_ALT3: Load scheduler 0x80003730 for entities [Portia (ID: 17335125/0x01088355), Portia (ID: 17335125/0x01088355)], work=148*, param=29811
 19: 0x047C [0x1C] WAIT(250* ticks)
 20: 0x047F [0xC5] LOAD_SCHEDULED_TASK_ALT3: Load scheduler 0x80003730 for entities [Portia (ID: 17335125/0x01088355), Portia (ID: 17335125/0x01088355)], work=148*, param=29811
 21: 0x0490 [0x00] END_REQSTACK()
```

### Event 30

#### Metadata

| Field        | Value   |
|--------------|---------|
| Entrypoint   | 0x0491  |
| Data Size    | 1 bytes |
| Instructions | 1       |

```
      00 01 02 03 04 05 06 07  08 09 0A 0B 0C 0D 0E 0F
      -- -- -- -- -- -- -- --  -- -- -- -- -- -- -- --
0490:    00                                              .              
```

#### Opcodes

```
  0: 0x0491 [0x00] END_REQSTACK()
```
