# 17335126

## Common Data

| Field            | Value                            |
|------------------|----------------------------------|
| Zone             | Beaucedine Glacier [S] (ID: 136) |
| Block Size       | 3204 bytes                       |
| Total Events     | 76                               |
| References Count | 136                              |

## List of Events

| Event ID                   | Entrypoint   |   Size |   Instructions |
|----------------------------|--------------|--------|----------------|
| [65535](#event-65535)      | 0x0000       |      1 |              1 |
| [65535.1](#event-655351)   | 0x0001       |      1 |              1 |
| [65535.2](#event-655352)   | 0x0002       |     18 |              4 |
| [65535.3](#event-655353)   | 0x0014       |     10 |              2 |
| [65535.4](#event-655354)   | 0x001E       |      9 |              3 |
| [65535.5](#event-655355)   | 0x0027       |      9 |              3 |
| [65535.6](#event-655356)   | 0x0030       |     10 |              2 |
| [65535.7](#event-655357)   | 0x003A       |     10 |              2 |
| [15](#event-15)            | 0x0044       |      1 |              1 |
| [65535.8](#event-655358)   | 0x0045       |      4 |              2 |
| [65535.9](#event-655359)   | 0x0049       |      4 |              2 |
| [65535.10](#event-6553510) | 0x004D       |     13 |              3 |
| [65535.11](#event-6553511) | 0x005A       |     30 |              6 |
| [65535.12](#event-6553512) | 0x0078       |     55 |              6 |
| [65535.13](#event-6553513) | 0x00AF       |     11 |              3 |
| [65535.14](#event-6553514) | 0x00BA       |     14 |              4 |
| [65535.15](#event-6553515) | 0x00C8       |     14 |              4 |
| [65535.16](#event-6553516) | 0x00D6       |     11 |              3 |
| [65535.17](#event-6553517) | 0x00E1       |     24 |              6 |
| [65535.18](#event-6553518) | 0x00F9       |     14 |              4 |
| [65535.19](#event-6553519) | 0x0107       |     24 |              6 |
| [13](#event-13)            | 0x011F       |      1 |              1 |
| [29](#event-29)            | 0x0120       |      1 |              1 |
| [65535.20](#event-6553520) | 0x0121       |     64 |              6 |
| [65535.21](#event-6553521) | 0x0161       |     85 |             11 |
| [65535.22](#event-6553522) | 0x01B6       |     85 |             11 |
| [65535.23](#event-6553523) | 0x020B       |     41 |              7 |
| [65535.24](#event-6553524) | 0x0234       |     51 |              5 |
| [65535.25](#event-6553525) | 0x0267       |     10 |              2 |
| [65535.26](#event-6553526) | 0x0271       |     10 |              2 |
| [16](#event-16)            | 0x027B       |      1 |              1 |
| [19](#event-19)            | 0x027C       |      1 |              1 |
| [25](#event-25)            | 0x027D       |      1 |              1 |
| [65535.27](#event-6553527) | 0x027E       |      9 |              3 |
| [65535.28](#event-6553528) | 0x0287       |      5 |              2 |
| [65535.29](#event-6553529) | 0x028C       |     56 |             11 |
| [65535.30](#event-6553530) | 0x02C4       |      6 |              3 |
| [65535.31](#event-6553531) | 0x02CA       |     29 |              9 |
| [65535.32](#event-6553532) | 0x02E7       |     15 |              5 |
| [65535.33](#event-6553533) | 0x02F6       |     62 |              6 |
| [8](#event-8)              | 0x0334       |     31 |              4 |
| [11](#event-11)            | 0x0353       |     31 |              4 |
| [12](#event-12)            | 0x0372       |     31 |              4 |
| [65535.34](#event-6553534) | 0x0391       |     25 |              3 |
| [65535.35](#event-6553535) | 0x03AA       |    258 |             45 |
| [65535.36](#event-6553536) | 0x04AC       |      6 |              2 |
| [65535.37](#event-6553537) | 0x04B2       |     14 |              4 |
| [65535.38](#event-6553538) | 0x04C0       |     14 |              4 |
| [65535.39](#event-6553539) | 0x04CE       |    553 |            117 |
| [65535.40](#event-6553540) | 0x06F7       |     14 |              4 |
| [65535.41](#event-6553541) | 0x0705       |      6 |              2 |
| [65535.42](#event-6553542) | 0x070B       |    121 |             29 |
| [14](#event-14)            | 0x0784       |     31 |              4 |
| [65535.43](#event-6553543) | 0x07A3       |     57 |              7 |
| [65535.44](#event-6553544) | 0x07DC       |     14 |              4 |
| [18](#event-18)            | 0x07EA       |     33 |              5 |
| [65535.45](#event-6553545) | 0x080B       |     31 |              4 |
| [20](#event-20)            | 0x082A       |     31 |              4 |
| [65535.46](#event-6553546) | 0x0849       |     15 |              5 |
| [21](#event-21)            | 0x0858       |     31 |              4 |
| [65535.47](#event-6553547) | 0x0877       |     14 |              4 |
| [65535.48](#event-6553548) | 0x0885       |     10 |              2 |
| [65535.49](#event-6553549) | 0x088F       |     10 |              2 |
| [65535.50](#event-6553550) | 0x0899       |     15 |              5 |
| [65535.51](#event-6553551) | 0x08A8       |     15 |              5 |
| [65535.52](#event-6553552) | 0x08B7       |      5 |              3 |
| [65535.53](#event-6553553) | 0x08BC       |      3 |              2 |
| [65535.54](#event-6553554) | 0x08BF       |      3 |              2 |
| [65535.55](#event-6553555) | 0x08C2       |      3 |              2 |
| [65535.56](#event-6553556) | 0x08C5       |     21 |              3 |
| [17](#event-17)            | 0x08DA       |      1 |              1 |
| [65535.57](#event-6553557) | 0x08DB       |     21 |              5 |
| [65535.58](#event-6553558) | 0x08F0       |     12 |              4 |
| [65535.59](#event-6553559) | 0x08FC       |     11 |              3 |
| [65535.60](#event-6553560) | 0x0907       |     25 |              3 |
| [30](#event-30)            | 0x0920       |      1 |              1 |

## DAT References (imed_data)

|   Index | Hex Value   |   Dec Value |
|---------|-------------|-------------|
|       0 | 0x0000      |           0 |
|       1 | 0x0001      |           1 |
|       2 | 0x0080      |         128 |
|       3 | 0x001E      |          30 |
|       4 | 0x051F      |        1311 |
|       5 | 0x0586      |        1414 |
|       6 | 0x002D      |          45 |
|       7 | 0xFFFF79AE  |  4294932910 |
|       8 | 0xFFFCE61C  |  4294764060 |
|       9 | 0xFFFF6410  |  4294927376 |
|      10 | 0x0028      |          40 |
|      11 | 0xFFFF4A44  |  4294920772 |
|      12 | 0xFFFCE0D5  |  4294762709 |
|      13 | 0xFFFF645A  |  4294927450 |
|      14 | 0x000C      |          12 |
|      15 | 0xFFFF9BFF  |  4294941695 |
|      16 | 0xFFFCF81B  |  4294768667 |
|      17 | 0xFFFF663D  |  4294927933 |
|      18 | 0xFFFF9BF1  |  4294941681 |
|      19 | 0xFFFCE959  |  4294764889 |
|      20 | 0xFFFF663B  |  4294927931 |
|      21 | 0xFFFF9CD8  |  4294941912 |
|      22 | 0xFFFCE436  |  4294763574 |
|      23 | 0xFFFF6653  |  4294927955 |
|      24 | 0x000D      |          13 |
|      25 | 0xFFFFAB47  |  4294945607 |
|      26 | 0xFFFCE820  |  4294764576 |
|      27 | 0xFFFF6753  |  4294928211 |
|      28 | 0x0012      |          18 |
|      29 | 0xFFFFB405  |  4294947845 |
|      30 | 0xFFFCED10  |  4294765840 |
|      31 | 0xFFFF678C  |  4294928268 |
|      32 | 0x1932      |        6450 |
|      33 | 0xFFFCDC08  |  4294761480 |
|      34 | 0xFFFF64C9  |  4294927561 |
|      35 | 0x09D7      |        2519 |
|      36 | 0x00B4      |         180 |
|      37 | 0xEC20      |       60448 |
|      38 | 0xFFF8C341  |  4294492993 |
|      39 | 0x0108      |         264 |
|      40 | 0x0C1C      |        3100 |
|      41 | 0x01F5      |         501 |
|      42 | 0xEC8D      |       60557 |
|      43 | 0xFFF8C82D  |  4294494253 |
|      44 | 0x0100      |         256 |
|      45 | 0x09AA      |        2474 |
|      46 | 0x0096      |         150 |
|      47 | 0x00A7      |         167 |
|      48 | 0x0078      |         120 |
|      49 | 0x018B      |         395 |
|      50 | 0x003C      |          60 |
|      51 | 0xEBC3      |       60355 |
|      52 | 0xFFF8BD01  |  4294491393 |
|      53 | 0x010F      |         271 |
|      54 | 0x00D2      |         210 |
|      55 | 0x051E      |        1310 |
|      56 | 0x08E2      |        2274 |
|      57 | 0x0032      |          50 |
|      58 | 0x08CF      |        2255 |
|      59 | 0x0005      |           5 |
|      60 | 0x0040      |          64 |
|      61 | 0x0800      |        2048 |
|      62 | 0x0064      |         100 |
|      63 | 0x000A      |          10 |
|      64 | 0xC370      |       50032 |
|      65 | 0xFFFB7440  |  4294669376 |
|      66 | 0x0250      |         592 |
|      67 | 0xC82F      |       51247 |
|      68 | 0xFFFB72DD  |  4294669021 |
|      69 | 0x01D6      |         470 |
|      70 | 0xCD6F      |       52591 |
|      71 | 0xFFFB77ED  |  4294670317 |
|      72 | 0x015C      |         348 |
|      73 | 0x009C      |         156 |
|      74 | 0x01E2      |         482 |
|      75 | 0x0002      |           2 |
|      76 | 0x00F0      |         240 |
|      77 | 0x0003      |           3 |
|      78 | 0x0DAC      |        3500 |
|      79 | 0x00ED      |         237 |
|      80 | 0x03C1      |         961 |
|      81 | 0x000F      |          15 |
|      82 | 0x0BF0      |        3056 |
|      83 | 0x3FFAC     |      262060 |
|      84 | 0xFFFFCDB2  |  4294954418 |
|      85 | 0xFFFFB1E0  |  4294947296 |
|      86 | 0x400BB     |      262331 |
|      87 | 0xFFFFD26E  |  4294955630 |
|      88 | 0x0014      |          20 |
|      89 | 0x402C2     |      262850 |
|      90 | 0xFFFFD7A9  |  4294956969 |
|      91 | 0xFFFFAF1D  |  4294946589 |
|      92 | 0x3FC5D     |      261213 |
|      93 | 0xFFFFCDA2  |  4294954402 |
|      94 | 0xFFFFAF24  |  4294946596 |
|      95 | 0x005A      |          90 |
|      96 | 0x406C4     |      263876 |
|      97 | 0xFFFFDDA0  |  4294958496 |
|      98 | 0xFFFB1E1E  |  4294647326 |
|      99 | 0x1FE33     |      130611 |
|     100 | 0xFFFE7AA9  |  4294867625 |
|     101 | 0xFFFB247A  |  4294648954 |
|     102 | 0x200EB     |      131307 |
|     103 | 0xFFFE7ACB  |  4294867659 |
|     104 | 0xFFFB2A4C  |  4294650444 |
|     105 | 0x202C3     |      131779 |
|     106 | 0xFFFE7AD5  |  4294867669 |
|     107 | 0xFFFB2D47  |  4294651207 |
|     108 | 0x203DB     |      132059 |
|     109 | 0xFFFE7AF1  |  4294867697 |
|     110 | 0x0854      |        2132 |
|     111 | 0x00C4      |         196 |
|     112 | 0xAFAE      |       44974 |
|     113 | 0xFFFB1DAF  |  4294647215 |
|     114 | 0xFFFFFFE0  |  4294967264 |
|     115 | 0x3F018     |      258072 |
|     116 | 0xFFFF5000  |  4294922240 |
|     117 | 0x4E7C      |       20092 |
|     118 | 0x497E8     |      301032 |
|     119 | 0xFFFFF0FD  |  4294963453 |
|     120 | 0x2A28      |       10792 |
|     121 | 0x5DA63     |      383587 |
|     122 | 0xFFF900CF  |  4294508751 |
|     123 | 0x0473      |        1139 |
|     124 | 0x6096B     |      395627 |
|     125 | 0xFFF901CD  |  4294509005 |
|     126 | 0x0601      |        1537 |
|     127 | 0xFFFBB6E0  |  4294686432 |
|     128 | 0xFFFD66AA  |  4294796970 |
|     129 | 0xFFFF5F90  |  4294926224 |
|     130 | 0xF6F6      |       63222 |
|     131 | 0xD199      |       53657 |
|     132 | 0xFFFF64D5  |  4294927573 |
|     133 | 0xFFFBAAC4  |  4294683332 |
|     134 | 0xFFFD6051  |  4294795345 |
|     135 | 0xFFFF5CAF  |  4294925487 |

## Events

### Event 65535

#### Metadata

| Field        | Value   |
|--------------|---------|
| Entrypoint   | 0x0000  |
| Data Size    | 1 bytes |
| Instructions | 1       |

```
      00 01 02 03 04 05 06 07  08 09 0A 0B 0C 0D 0E 0F
      -- -- -- -- -- -- -- --  -- -- -- -- -- -- -- --
0000: 00                                                .               
```

#### Opcodes

```
  0: 0x0000 [0x00] END_REQSTACK()
```

### Event 65535.1

#### Metadata

| Field        | Value   |
|--------------|---------|
| Entrypoint   | 0x0001  |
| Data Size    | 1 bytes |
| Instructions | 1       |

```
      00 01 02 03 04 05 06 07  08 09 0A 0B 0C 0D 0E 0F
      -- -- -- -- -- -- -- --  -- -- -- -- -- -- -- --
0000:    00                                              .              
```

#### Opcodes

```
  0: 0x0001 [0x00] END_REQSTACK()
```

### Event 65535.2

#### Metadata

| Field        | Value    |
|--------------|----------|
| Entrypoint   | 0x0002   |
| Data Size    | 18 bytes |
| Instructions | 4        |

```
      00 01 02 03 04 05 06 07  08 09 0A 0B 0C 0D 0E 0F
      -- -- -- -- -- -- -- --  -- -- -- -- -- -- -- --
0000:       22 00 2F 00 F8 FF  FF 7F 6C F8 FF FF 7F 00    "./.....l.....
0010: 80 01 80 00                                       ....            
```

#### Opcodes

```
  0: 0x0002 [0x22] ENTITY_HIDE_FLAG(enabled=0x00)
  1: 0x0004 [0x2F] EventEntity->Render.Flags0 &= ~0x80000 // Bit 19
  2: 0x000A [0x6C] FADE_ENTITY_COLOR(entity_id=EventEntity, end_alpha=0*, fade_time=1*)
  3: 0x0013 [0x00] END_REQSTACK()
```

### Event 65535.3

#### Metadata

| Field        | Value    |
|--------------|----------|
| Entrypoint   | 0x0014   |
| Data Size    | 10 bytes |
| Instructions | 2        |

```
      00 01 02 03 04 05 06 07  08 09 0A 0B 0C 0D 0E 0F
      -- -- -- -- -- -- -- --  -- -- -- -- -- -- -- --
0010:             6C F8 FF FF  7F 02 80 01 80 00            l.........  
```

#### Opcodes

```
  0: 0x0014 [0x6C] FADE_ENTITY_COLOR(entity_id=EventEntity, end_alpha=128*, fade_time=1*)
  1: 0x001D [0x00] END_REQSTACK()
```

### Event 65535.4

#### Metadata

| Field        | Value   |
|--------------|---------|
| Entrypoint   | 0x001E  |
| Data Size    | 9 bytes |
| Instructions | 3       |

```
      00 01 02 03 04 05 06 07  08 09 0A 0B 0C 0D 0E 0F
      -- -- -- -- -- -- -- --  -- -- -- -- -- -- -- --
0010:                                            22 00                ".
0020: 2F 00 F8 FF FF 7F 00                              /......         
```

#### Opcodes

```
  0: 0x001E [0x22] ENTITY_HIDE_FLAG(enabled=0x00)
  1: 0x0020 [0x2F] EventEntity->Render.Flags0 &= ~0x80000 // Bit 19
  2: 0x0026 [0x00] END_REQSTACK()
```

### Event 65535.5

#### Metadata

| Field        | Value   |
|--------------|---------|
| Entrypoint   | 0x0027  |
| Data Size    | 9 bytes |
| Instructions | 3       |

```
      00 01 02 03 04 05 06 07  08 09 0A 0B 0C 0D 0E 0F
      -- -- -- -- -- -- -- --  -- -- -- -- -- -- -- --
0020:                      22  01 2F 01 F8 FF FF 7F 00         "./......
```

#### Opcodes

```
  0: 0x0027 [0x22] ENTITY_HIDE_FLAG(enabled=0x01)
  1: 0x0029 [0x2F] EventEntity->Render.Flags0 |= 0x80000 // Bit 19
  2: 0x002F [0x00] END_REQSTACK()
```

### Event 65535.6

#### Metadata

| Field        | Value    |
|--------------|----------|
| Entrypoint   | 0x0030   |
| Data Size    | 10 bytes |
| Instructions | 2        |

```
      00 01 02 03 04 05 06 07  08 09 0A 0B 0C 0D 0E 0F
      -- -- -- -- -- -- -- --  -- -- -- -- -- -- -- --
0030: 6C F8 FF FF 7F 00 80 01  80 00                    l.........      
```

#### Opcodes

```
  0: 0x0030 [0x6C] FADE_ENTITY_COLOR(entity_id=EventEntity, end_alpha=0*, fade_time=1*)
  1: 0x0039 [0x00] END_REQSTACK()
```

### Event 65535.7

#### Metadata

| Field        | Value    |
|--------------|----------|
| Entrypoint   | 0x003A   |
| Data Size    | 10 bytes |
| Instructions | 2        |

```
      00 01 02 03 04 05 06 07  08 09 0A 0B 0C 0D 0E 0F
      -- -- -- -- -- -- -- --  -- -- -- -- -- -- -- --
0030:                                6C F8 FF FF 7F 02            l.....
0040: 80 01 80 00                                       ....            
```

#### Opcodes

```
  0: 0x003A [0x6C] FADE_ENTITY_COLOR(entity_id=EventEntity, end_alpha=128*, fade_time=1*)
  1: 0x0043 [0x00] END_REQSTACK()
```

### Event 15

#### Metadata

| Field        | Value   |
|--------------|---------|
| Entrypoint   | 0x0044  |
| Data Size    | 1 bytes |
| Instructions | 1       |

```
      00 01 02 03 04 05 06 07  08 09 0A 0B 0C 0D 0E 0F
      -- -- -- -- -- -- -- --  -- -- -- -- -- -- -- --
0040:             00                                        .           
```

#### Opcodes

```
  0: 0x0044 [0x00] END_REQSTACK()
```

### Event 65535.8

#### Metadata

| Field        | Value   |
|--------------|---------|
| Entrypoint   | 0x0045  |
| Data Size    | 4 bytes |
| Instructions | 2       |

```
      00 01 02 03 04 05 06 07  08 09 0A 0B 0C 0D 0E 0F
      -- -- -- -- -- -- -- --  -- -- -- -- -- -- -- --
0040:                C0 01 80  00                            ....       
```

#### Opcodes

```
  0: 0x0045 [0xC0] EventEntity->Render.Flags3 |= 0x1000 // Set bit 12 (from 1*)
  1: 0x0048 [0x00] END_REQSTACK()
```

### Event 65535.9

#### Metadata

| Field        | Value   |
|--------------|---------|
| Entrypoint   | 0x0049  |
| Data Size    | 4 bytes |
| Instructions | 2       |

```
      00 01 02 03 04 05 06 07  08 09 0A 0B 0C 0D 0E 0F
      -- -- -- -- -- -- -- --  -- -- -- -- -- -- -- --
0040:                             C0 00 80 00                    ....   
```

#### Opcodes

```
  0: 0x0049 [0xC0] EventEntity->Render.Flags3 &= ~0x1000 // Clear bit 12 (from 0*)
  1: 0x004C [0x00] END_REQSTACK()
```

### Event 65535.10

#### Metadata

| Field        | Value    |
|--------------|----------|
| Entrypoint   | 0x004D   |
| Data Size    | 13 bytes |
| Instructions | 3        |

```
      00 01 02 03 04 05 06 07  08 09 0A 0B 0C 0D 0E 0F
      -- -- -- -- -- -- -- --  -- -- -- -- -- -- -- --
0040:                                         1C 03 80               ...
0050: 4A F8 FF FF 7F 59 83 08  01 00                    J....Y....      
```

#### Opcodes

```
  0: 0x004D [0x1C] WAIT(30* ticks)
  1: 0x0050 [0x4A] EventEntity looks at Cait Sith Ceithir (ID: 17335129/0x01088359)
  2: 0x0059 [0x00] END_REQSTACK()
```

### Event 65535.11

#### Metadata

| Field        | Value    |
|--------------|----------|
| Entrypoint   | 0x005A   |
| Data Size    | 30 bytes |
| Instructions | 6        |

```
      00 01 02 03 04 05 06 07  08 09 0A 0B 0C 0D 0E 0F
      -- -- -- -- -- -- -- --  -- -- -- -- -- -- -- --
0050:                                59 05 F8 FF FF 7F            Y.....
0060: 00 5E 69 64 6C 30 7B F8  FF FF 7F 7C 01 F8 FF FF  .^idl0{....|....
0070: 7F 81 01 F8 FF FF 7F 00                           ........        
```

#### Opcodes

```
  0: 0x005A [0x59] UPDATE_ENTITY_DATA: EventEntity->Render.Flags0 &= ~0x200000
  1: 0x0061 [0x5E] EventEntity goes idle (kills current action) (animation: "idl0")
  2: 0x0066 [0x7B] EventEntity stops talking
  3: 0x006B [0x7C] EventEntity->Render.Flags2 |= 0x01
  4: 0x0071 [0x81] SET_ENTITY_BLINKING(blink_flag=0x01, entity=EventEntity)
  5: 0x0077 [0x00] END_REQSTACK()
```

### Event 65535.12

#### Metadata

| Field        | Value    |
|--------------|----------|
| Entrypoint   | 0x0078   |
| Data Size    | 55 bytes |
| Instructions | 6        |

```
      00 01 02 03 04 05 06 07  08 09 0A 0B 0C 0D 0E 0F
      -- -- -- -- -- -- -- --  -- -- -- -- -- -- -- --
0070:                          81 00 56 83 08 01 5B 04          ..V...[.
0080: 80 56 83 08 01 56 83 08  01 66 64 30 30 5B 05 80  .V...V...fd00[..
0090: 56 83 08 01 56 83 08 01  74 73 62 30 1C 06 80 5B  V...V...tsb0...[
00A0: 05 80 56 83 08 01 56 83  08 01 74 6C 62 32 00     ..V...V...tlb2. 
```

#### Opcodes

```
  0: 0x0078 [0x81] SET_ENTITY_BLINKING(blink_flag=0x00, entity=Unnamed NPC (ID: 17335126/0x01088356))
  1: 0x007E [0x5B] LOAD_EXT_SCHEDULER: Load scheduler "fd00" with entities [Unnamed NPC (ID: 17335126/0x01088356), Unnamed NPC (ID: 17335126/0x01088356)], work=1311*
  2: 0x008D [0x5B] LOAD_EXT_SCHEDULER: Load scheduler "tsb0" with entities [Unnamed NPC (ID: 17335126/0x01088356), Unnamed NPC (ID: 17335126/0x01088356)], work=1414*
  3: 0x009C [0x1C] WAIT(45* ticks)
  4: 0x009F [0x5B] LOAD_EXT_SCHEDULER: Load scheduler "tlb2" with entities [Unnamed NPC (ID: 17335126/0x01088356), Unnamed NPC (ID: 17335126/0x01088356)], work=1414*
  5: 0x00AE [0x00] END_REQSTACK()
```

### Event 65535.13

#### Metadata

| Field        | Value    |
|--------------|----------|
| Entrypoint   | 0x00AF   |
| Data Size    | 11 bytes |
| Instructions | 3        |

```
      00 01 02 03 04 05 06 07  08 09 0A 0B 0C 0D 0E 0F
      -- -- -- -- -- -- -- --  -- -- -- -- -- -- -- --
00A0:                                               1F                 .
00B0: 00 07 80 08 80 09 80 1F  01 00                    ..........      
```

#### Opcodes

```
  0: 0x00AF [0x1F] MOVE_ENTITY: EventEntity moves to X=-34.386*, Z=-203.236*, Y=-39.920*
  1: 0x00B7 [0x1F] MOVE_ENTITY: Update entity position (mode=1)
  2: 0x00B9 [0x00] END_REQSTACK()
```

### Event 65535.14

#### Metadata

| Field        | Value    |
|--------------|----------|
| Entrypoint   | 0x00BA   |
| Data Size    | 14 bytes |
| Instructions | 4        |

```
      00 01 02 03 04 05 06 07  08 09 0A 0B 0C 0D 0E 0F
      -- -- -- -- -- -- -- --  -- -- -- -- -- -- -- --
00B0:                                32 0A 80 1F 00 0B            2.....
00C0: 80 0C 80 0D 80 1F 01 00                           ........        
```

#### Opcodes

```
  0: 0x00BA [0x32] ExtData[1]->MainSpeed = 40* * 0.1
  1: 0x00BD [0x1F] MOVE_ENTITY: EventEntity moves to X=-46.524*, Z=-204.587*, Y=-39.846*
  2: 0x00C5 [0x1F] MOVE_ENTITY: Update entity position (mode=1)
  3: 0x00C7 [0x00] END_REQSTACK()
```

### Event 65535.15

#### Metadata

| Field        | Value    |
|--------------|----------|
| Entrypoint   | 0x00C8   |
| Data Size    | 14 bytes |
| Instructions | 4        |

```
      00 01 02 03 04 05 06 07  08 09 0A 0B 0C 0D 0E 0F
      -- -- -- -- -- -- -- --  -- -- -- -- -- -- -- --
00C0:                          32 0E 80 1F 00 0F 80 10          2.......
00D0: 80 11 80 1F 01 00                                 ......          
```

#### Opcodes

```
  0: 0x00C8 [0x32] ExtData[1]->MainSpeed = 12* * 0.1
  1: 0x00CB [0x1F] MOVE_ENTITY: EventEntity moves to X=-25.601*, Z=-198.629*, Y=-39.363*
  2: 0x00D3 [0x1F] MOVE_ENTITY: Update entity position (mode=1)
  3: 0x00D5 [0x00] END_REQSTACK()
```

### Event 65535.16

#### Metadata

| Field        | Value    |
|--------------|----------|
| Entrypoint   | 0x00D6   |
| Data Size    | 11 bytes |
| Instructions | 3        |

```
      00 01 02 03 04 05 06 07  08 09 0A 0B 0C 0D 0E 0F
      -- -- -- -- -- -- -- --  -- -- -- -- -- -- -- --
00D0:                   1F 00  12 80 13 80 14 80 1F 01        ..........
00E0: 00                                                .               
```

#### Opcodes

```
  0: 0x00D6 [0x1F] MOVE_ENTITY: EventEntity moves to X=-25.615*, Z=-202.407*, Y=-39.365*
  1: 0x00DE [0x1F] MOVE_ENTITY: Update entity position (mode=1)
  2: 0x00E0 [0x00] END_REQSTACK()
```

### Event 65535.17

#### Metadata

| Field        | Value    |
|--------------|----------|
| Entrypoint   | 0x00E1   |
| Data Size    | 24 bytes |
| Instructions | 6        |

```
      00 01 02 03 04 05 06 07  08 09 0A 0B 0C 0D 0E 0F
      -- -- -- -- -- -- -- --  -- -- -- -- -- -- -- --
00E0:    1F 00 15 80 16 80 17  80 1F 01 1C 03 80 1F 00   ...............
00F0: 12 80 13 80 14 80 1F 01  00                       .........       
```

#### Opcodes

```
  0: 0x00E1 [0x1F] MOVE_ENTITY: EventEntity moves to X=-25.384*, Z=-203.722*, Y=-39.341*
  1: 0x00E9 [0x1F] MOVE_ENTITY: Update entity position (mode=1)
  2: 0x00EB [0x1C] WAIT(30* ticks)
  3: 0x00EE [0x1F] MOVE_ENTITY: EventEntity moves to X=-25.615*, Z=-202.407*, Y=-39.365*
  4: 0x00F6 [0x1F] MOVE_ENTITY: Update entity position (mode=1)
  5: 0x00F8 [0x00] END_REQSTACK()
```

### Event 65535.18

#### Metadata

| Field        | Value    |
|--------------|----------|
| Entrypoint   | 0x00F9   |
| Data Size    | 14 bytes |
| Instructions | 4        |

```
      00 01 02 03 04 05 06 07  08 09 0A 0B 0C 0D 0E 0F
      -- -- -- -- -- -- -- --  -- -- -- -- -- -- -- --
00F0:                             32 18 80 1F 00 19 80           2......
0100: 1A 80 1B 80 1F 01 00                              .......         
```

#### Opcodes

```
  0: 0x00F9 [0x32] ExtData[1]->MainSpeed = 13* * 0.1
  1: 0x00FC [0x1F] MOVE_ENTITY: EventEntity moves to X=-21.689*, Z=-202.720*, Y=-39.085*
  2: 0x0104 [0x1F] MOVE_ENTITY: Update entity position (mode=1)
  3: 0x0106 [0x00] END_REQSTACK()
```

### Event 65535.19

#### Metadata

| Field        | Value    |
|--------------|----------|
| Entrypoint   | 0x0107   |
| Data Size    | 24 bytes |
| Instructions | 6        |

```
      00 01 02 03 04 05 06 07  08 09 0A 0B 0C 0D 0E 0F
      -- -- -- -- -- -- -- --  -- -- -- -- -- -- -- --
0100:                      32  1C 80 1F 00 1D 80 1E 80         2........
0110: 1F 80 1F 01 1F 00 20 80  21 80 22 80 1F 01 00     ...... .!.".... 
```

#### Opcodes

```
  0: 0x0107 [0x32] ExtData[1]->MainSpeed = 18* * 0.1
  1: 0x010A [0x1F] MOVE_ENTITY: EventEntity moves to X=-19.451*, Z=-201.456*, Y=-39.028*
  2: 0x0112 [0x1F] MOVE_ENTITY: Update entity position (mode=1)
  3: 0x0114 [0x1F] MOVE_ENTITY: EventEntity moves to X=6.450*, Z=-205.816*, Y=-39.735*
  4: 0x011C [0x1F] MOVE_ENTITY: Update entity position (mode=1)
  5: 0x011E [0x00] END_REQSTACK()
```

### Event 13

#### Metadata

| Field        | Value   |
|--------------|---------|
| Entrypoint   | 0x011F  |
| Data Size    | 1 bytes |
| Instructions | 1       |

```
      00 01 02 03 04 05 06 07  08 09 0A 0B 0C 0D 0E 0F
      -- -- -- -- -- -- -- --  -- -- -- -- -- -- -- --
0110:                                               00                 .
```

#### Opcodes

```
  0: 0x011F [0x00] END_REQSTACK()
```

### Event 29

#### Metadata

| Field        | Value   |
|--------------|---------|
| Entrypoint   | 0x0120  |
| Data Size    | 1 bytes |
| Instructions | 1       |

```
      00 01 02 03 04 05 06 07  08 09 0A 0B 0C 0D 0E 0F
      -- -- -- -- -- -- -- --  -- -- -- -- -- -- -- --
0120: 00                                                .               
```

#### Opcodes

```
  0: 0x0120 [0x00] END_REQSTACK()
```

### Event 65535.20

#### Metadata

| Field        | Value    |
|--------------|----------|
| Entrypoint   | 0x0121   |
| Data Size    | 64 bytes |
| Instructions | 6        |

```
      00 01 02 03 04 05 06 07  08 09 0A 0B 0C 0D 0E 0F
      -- -- -- -- -- -- -- --  -- -- -- -- -- -- -- --
0120:    5B 23 80 56 83 08 01  56 83 08 01 34 33 30 36   [#.V...V...4306
0130: 1C 24 80 BA 56 83 08 01  25 80 26 80 27 80 28 80  .$..V...%.&.'.(.
0140: 52 29 80 F0 FF FF 7F F0  FF FF 7F 30 30 30 39 45  R).........0009E
0150: 29 80 F0 FF FF 7F F0 FF  FF 7F 30 30 30 61 00 80  ).........000a..
0160: 00                                                .               
```

#### Opcodes

```
  0: 0x0121 [0x5B] LOAD_EXT_SCHEDULER: Load scheduler "4306" with entities [Unnamed NPC (ID: 17335126/0x01088356), Unnamed NPC (ID: 17335126/0x01088356)], work=2519*
  1: 0x0130 [0x1C] WAIT(180* ticks)
  2: 0x0133 [0xBA] SET_ENTITY_POSITION(entity_id=Unnamed NPC (ID: 17335126/0x01088356), pos_x=60.448*, pos_z=-474.303*, pos_y=0.264*, direction=272.5째*)
  3: 0x0140 [0x52] END_LOAD_SCHEDULER: End scheduler "0009" with entities [LocalPlayer, LocalPlayer], work=501*
  4: 0x014F [0x45] LOAD_SCHEDULED_TASK: Load scheduler "000a" with entities [LocalPlayer, LocalPlayer], work=[501*, 0*]
  5: 0x0160 [0x00] END_REQSTACK()
```

### Event 65535.21

#### Metadata

| Field        | Value    |
|--------------|----------|
| Entrypoint   | 0x0161   |
| Data Size    | 85 bytes |
| Instructions | 11       |

```
      00 01 02 03 04 05 06 07  08 09 0A 0B 0C 0D 0E 0F
      -- -- -- -- -- -- -- --  -- -- -- -- -- -- -- --
0160:    32 18 80 1F 00 2A 80  2B 80 2C 80 1F 01 6F 5B   2....*.+.,...o[
0170: 2D 80 56 83 08 01 56 83  08 01 70 61 73 30 52 29  -.V...V...pas0R)
0180: 80 F0 FF FF 7F F0 FF FF  7F 30 30 31 38 45 29 80  .........0018E).
0190: F0 FF FF 7F F0 FF FF 7F  30 30 31 39 00 80 1C 2E  ........0019....
01A0: 80 C5 2F 80 56 83 08 01  56 83 08 01 73 30 30 30  ../.V...V...s000
01B0: 00 80 1C 30 80 00                                 ...0..          
```

#### Opcodes

```
  0: 0x0161 [0x32] ExtData[1]->MainSpeed = 13* * 0.1
  1: 0x0164 [0x1F] MOVE_ENTITY: EventEntity moves to X=60.557*, Z=-473.043*, Y=0.256*
  2: 0x016C [0x1F] MOVE_ENTITY: Update entity position (mode=1)
  3: 0x016E [0x6F] WAIT_FRAME_DELAY: Yield until WaitTime reaches zero
  4: 0x016F [0x5B] LOAD_EXT_SCHEDULER: Load scheduler "pas0" with entities [Unnamed NPC (ID: 17335126/0x01088356), Unnamed NPC (ID: 17335126/0x01088356)], work=2474*
  5: 0x017E [0x52] END_LOAD_SCHEDULER: End scheduler "0018" with entities [LocalPlayer, LocalPlayer], work=501*
  6: 0x018D [0x45] LOAD_SCHEDULED_TASK: Load scheduler "0019" with entities [LocalPlayer, LocalPlayer], work=[501*, 0*]
  7: 0x019E [0x1C] WAIT(150* ticks)
  8: 0x01A1 [0xC5] LOAD_SCHEDULED_TASK_ALT3: Load scheduler 0x80003030 for entities [Unnamed NPC (ID: 17335126/0x01088356), Unnamed NPC (ID: 17335126/0x01088356)], work=167*, param=12403
  9: 0x01B2 [0x1C] WAIT(120* ticks)
 10: 0x01B5 [0x00] END_REQSTACK()
```

### Event 65535.22

#### Metadata

| Field        | Value    |
|--------------|----------|
| Entrypoint   | 0x01B6   |
| Data Size    | 85 bytes |
| Instructions | 11       |

```
      00 01 02 03 04 05 06 07  08 09 0A 0B 0C 0D 0E 0F
      -- -- -- -- -- -- -- --  -- -- -- -- -- -- -- --
01B0:                   32 18  80 1F 00 2A 80 2B 80 2C        2....*.+.,
01C0: 80 1F 01 6F 5B 2D 80 56  83 08 01 56 83 08 01 70  ...o[-.V...V...p
01D0: 61 73 30 52 31 80 F0 FF  FF 7F F0 FF FF 7F 30 30  as0R1.........00
01E0: 31 38 45 31 80 F0 FF FF  7F F0 FF FF 7F 30 30 31  18E1.........001
01F0: 39 00 80 1C 2E 80 C5 2F  80 56 83 08 01 56 83 08  9....../.V...V..
0200: 01 73 30 30 30 00 80 1C  30 80 00                 .s000...0..     
```

#### Opcodes

```
  0: 0x01B6 [0x32] ExtData[1]->MainSpeed = 13* * 0.1
  1: 0x01B9 [0x1F] MOVE_ENTITY: EventEntity moves to X=60.557*, Z=-473.043*, Y=0.256*
  2: 0x01C1 [0x1F] MOVE_ENTITY: Update entity position (mode=1)
  3: 0x01C3 [0x6F] WAIT_FRAME_DELAY: Yield until WaitTime reaches zero
  4: 0x01C4 [0x5B] LOAD_EXT_SCHEDULER: Load scheduler "pas0" with entities [Unnamed NPC (ID: 17335126/0x01088356), Unnamed NPC (ID: 17335126/0x01088356)], work=2474*
  5: 0x01D3 [0x52] END_LOAD_SCHEDULER: End scheduler "0018" with entities [LocalPlayer, LocalPlayer], work=395*
  6: 0x01E2 [0x45] LOAD_SCHEDULED_TASK: Load scheduler "0019" with entities [LocalPlayer, LocalPlayer], work=[395*, 0*]
  7: 0x01F3 [0x1C] WAIT(150* ticks)
  8: 0x01F6 [0xC5] LOAD_SCHEDULED_TASK_ALT3: Load scheduler 0x80003030 for entities [Unnamed NPC (ID: 17335126/0x01088356), Unnamed NPC (ID: 17335126/0x01088356)], work=167*, param=12403
  9: 0x0207 [0x1C] WAIT(120* ticks)
 10: 0x020A [0x00] END_REQSTACK()
```

### Event 65535.23

#### Metadata

| Field        | Value    |
|--------------|----------|
| Entrypoint   | 0x020B   |
| Data Size    | 41 bytes |
| Instructions | 7        |

```
      00 01 02 03 04 05 06 07  08 09 0A 0B 0C 0D 0E 0F
      -- -- -- -- -- -- -- --  -- -- -- -- -- -- -- --
0200:                                   5B 2D 80 56 83             [-.V.
0210: 08 01 56 83 08 01 70 61  73 31 1C 32 80 32 18 80  ..V...pas1.2.2..
0220: 1F 00 33 80 34 80 35 80  1F 01 4A 56 83 08 01 54  ..3.4.5...JV...T
0230: 83 08 01 00                                       ....            
```

#### Opcodes

```
  0: 0x020B [0x5B] LOAD_EXT_SCHEDULER: Load scheduler "pas1" with entities [Unnamed NPC (ID: 17335126/0x01088356), Unnamed NPC (ID: 17335126/0x01088356)], work=2474*
  1: 0x021A [0x1C] WAIT(60* ticks)
  2: 0x021D [0x32] ExtData[1]->MainSpeed = 13* * 0.1
  3: 0x0220 [0x1F] MOVE_ENTITY: EventEntity moves to X=60.355*, Z=-475.903*, Y=0.271*
  4: 0x0228 [0x1F] MOVE_ENTITY: Update entity position (mode=1)
  5: 0x022A [0x4A] Unnamed NPC (ID: 17335126/0x01088356) looks at Lilisette (ID: 17335124/0x01088354)
  6: 0x0233 [0x00] END_REQSTACK()
```

### Event 65535.24

#### Metadata

| Field        | Value    |
|--------------|----------|
| Entrypoint   | 0x0234   |
| Data Size    | 51 bytes |
| Instructions | 5        |

```
      00 01 02 03 04 05 06 07  08 09 0A 0B 0C 0D 0E 0F
      -- -- -- -- -- -- -- --  -- -- -- -- -- -- -- --
0230:             1C 36 80 52  29 80 F0 FF FF 7F F0 FF      .6.R).......
0240: FF 7F 30 30 31 33 45 29  80 F0 FF FF 7F F0 FF FF  ..0013E)........
0250: 7F 30 30 31 34 00 80 5B  37 80 56 83 08 01 56 83  .0014..[7.V...V.
0260: 08 01 74 6C 6B 31 00                              ..tlk1.         
```

#### Opcodes

```
  0: 0x0234 [0x1C] WAIT(210* ticks)
  1: 0x0237 [0x52] END_LOAD_SCHEDULER: End scheduler "0013" with entities [LocalPlayer, LocalPlayer], work=501*
  2: 0x0246 [0x45] LOAD_SCHEDULED_TASK: Load scheduler "0014" with entities [LocalPlayer, LocalPlayer], work=[501*, 0*]
  3: 0x0257 [0x5B] LOAD_EXT_SCHEDULER: Load scheduler "tlk1" with entities [Unnamed NPC (ID: 17335126/0x01088356), Unnamed NPC (ID: 17335126/0x01088356)], work=1310*
  4: 0x0266 [0x00] END_REQSTACK()
```

### Event 65535.25

#### Metadata

| Field        | Value    |
|--------------|----------|
| Entrypoint   | 0x0267   |
| Data Size    | 10 bytes |
| Instructions | 2        |

```
      00 01 02 03 04 05 06 07  08 09 0A 0B 0C 0D 0E 0F
      -- -- -- -- -- -- -- --  -- -- -- -- -- -- -- --
0260:                      6C  56 83 08 01 02 80 01 80         lV.......
0270: 00                                                .               
```

#### Opcodes

```
  0: 0x0267 [0x6C] FADE_ENTITY_COLOR(entity_id=Unnamed NPC (ID: 17335126/0x01088356), end_alpha=128*, fade_time=1*)
  1: 0x0270 [0x00] END_REQSTACK()
```

### Event 65535.26

#### Metadata

| Field        | Value    |
|--------------|----------|
| Entrypoint   | 0x0271   |
| Data Size    | 10 bytes |
| Instructions | 2        |

```
      00 01 02 03 04 05 06 07  08 09 0A 0B 0C 0D 0E 0F
      -- -- -- -- -- -- -- --  -- -- -- -- -- -- -- --
0270:    6C 56 83 08 01 00 80  01 80 00                  lV........     
```

#### Opcodes

```
  0: 0x0271 [0x6C] FADE_ENTITY_COLOR(entity_id=Unnamed NPC (ID: 17335126/0x01088356), end_alpha=0*, fade_time=1*)
  1: 0x027A [0x00] END_REQSTACK()
```

### Event 16

#### Metadata

| Field        | Value   |
|--------------|---------|
| Entrypoint   | 0x027B  |
| Data Size    | 1 bytes |
| Instructions | 1       |

```
      00 01 02 03 04 05 06 07  08 09 0A 0B 0C 0D 0E 0F
      -- -- -- -- -- -- -- --  -- -- -- -- -- -- -- --
0270:                                   00                         .    
```

#### Opcodes

```
  0: 0x027B [0x00] END_REQSTACK()
```

### Event 19

#### Metadata

| Field        | Value   |
|--------------|---------|
| Entrypoint   | 0x027C  |
| Data Size    | 1 bytes |
| Instructions | 1       |

```
      00 01 02 03 04 05 06 07  08 09 0A 0B 0C 0D 0E 0F
      -- -- -- -- -- -- -- --  -- -- -- -- -- -- -- --
0270:                                      00                       .   
```

#### Opcodes

```
  0: 0x027C [0x00] END_REQSTACK()
```

### Event 25

#### Metadata

| Field        | Value   |
|--------------|---------|
| Entrypoint   | 0x027D  |
| Data Size    | 1 bytes |
| Instructions | 1       |

```
      00 01 02 03 04 05 06 07  08 09 0A 0B 0C 0D 0E 0F
      -- -- -- -- -- -- -- --  -- -- -- -- -- -- -- --
0270:                                         00                     .  
```

#### Opcodes

```
  0: 0x027D [0x00] END_REQSTACK()
```

### Event 65535.27

#### Metadata

| Field        | Value   |
|--------------|---------|
| Entrypoint   | 0x027E  |
| Data Size    | 9 bytes |
| Instructions | 3       |

```
      00 01 02 03 04 05 06 07  08 09 0A 0B 0C 0D 0E 0F
      -- -- -- -- -- -- -- --  -- -- -- -- -- -- -- --
0270:                                            B6 00                ..
0280: 38 80 B6 0F 39 80 00                              8...9..         
```

#### Opcodes

```
  0: 0x027E [0xB6] ENTITY_APPEARANCE_HANDLER(case=Hair style, value=2274*)
  1: 0x0282 [0xB6] ENTITY_APPEARANCE_HANDLER(case=Model size, value=50*)
  2: 0x0286 [0x00] END_REQSTACK()
```

### Event 65535.28

#### Metadata

| Field        | Value   |
|--------------|---------|
| Entrypoint   | 0x0287  |
| Data Size    | 5 bytes |
| Instructions | 2       |

```
      00 01 02 03 04 05 06 07  08 09 0A 0B 0C 0D 0E 0F
      -- -- -- -- -- -- -- --  -- -- -- -- -- -- -- --
0280:                      B6  00 3A 80 00                     ..:..    
```

#### Opcodes

```
  0: 0x0287 [0xB6] ENTITY_APPEARANCE_HANDLER(case=Hair style, value=2255*)
  1: 0x028B [0x00] END_REQSTACK()
```

### Event 65535.29

#### Metadata

| Field        | Value    |
|--------------|----------|
| Entrypoint   | 0x028C   |
| Data Size    | 56 bytes |
| Instructions | 8        |

```
      00 01 02 03 04 05 06 07  08 09 0A 0B 0C 0D 0E 0F
      -- -- -- -- -- -- -- --  -- -- -- -- -- -- -- --
0280:                                      3B F8 FF FF              ;...
0290: 7F 03 00 04 00 05 00 06  08 00 16 07 00 08 00 3B  ...............;
02A0: 80 07 05 00 07 00 36 03  00 04 00 05 00 07 08 00  ......6.........
02B0: 3C 80 1C 01 80 01 9A 02  02 08 00 3D 80 04 C3 02  <..........=....
02C0: 06 08 00 00                                       ....            
```

#### Opcodes

```
  0: 0x028C [0x3B] GET_ENTITY_POSITION(entity=EventEntity, x_destination=ExtData[1]->WorkLocal[3], y_destination=ExtData[1]->WorkLocal[4], z_destination=ExtData[1]->WorkLocal[5])
  1: 0x0297 [0x06] ExtData[1]->WorkLocal[8] = 0
  2: 0x029A [0x16] ExtData[1]->WorkLocal[7] = sin(ExtData[1]->WorkLocal[8]) * 5*
  3: 0x02A1 [0x07] ExtData[1]->WorkLocal[5] += ExtData[1]->WorkLocal[7]
  4: 0x02A6 [0x36] SET_ENTITY_EVENT_POSITION(pos_x=ExtData[1]->WorkLocal[3], pos_z=ExtData[1]->WorkLocal[4], pos_y=ExtData[1]->WorkLocal[5])
  5: 0x02AD [0x07] ExtData[1]->WorkLocal[8] += 64*
  6: 0x02B2 [0x1C] WAIT(1* ticks)
  7: 0x02B5 [0x01] GOTO 0x029A
```

#### Data or dead code:

```
# Dead code (unreachable instructions):
     0x02B8 [0x02] IF !(ExtData[1]->WorkLocal[8] < 2048*) GOTO 0x02C3
     0x02C0 [0x06] ExtData[1]->WorkLocal[8] = 0
     0x02C3 [0x00] END_REQSTACK()
```

### Event 65535.30

#### Metadata

| Field        | Value   |
|--------------|---------|
| Entrypoint   | 0x02C4  |
| Data Size    | 6 bytes |
| Instructions | 3       |

```
      00 01 02 03 04 05 06 07  08 09 0A 0B 0C 0D 0E 0F
      -- -- -- -- -- -- -- --  -- -- -- -- -- -- -- --
02C0:             84 B6 0F 3E  80 00                        ...>..      
```

#### Opcodes

```
  0: 0x02C4 [0x84] ADJUST_RENDER_FLAGS3_BIT0()
  1: 0x02C5 [0xB6] ENTITY_APPEARANCE_HANDLER(case=Model size, value=100*)
  2: 0x02C9 [0x00] END_REQSTACK()
```

### Event 65535.31

#### Metadata

| Field        | Value    |
|--------------|----------|
| Entrypoint   | 0x02CA   |
| Data Size    | 29 bytes |
| Instructions | 9        |

```
      00 01 02 03 04 05 06 07  08 09 0A 0B 0C 0D 0E 0F
      -- -- -- -- -- -- -- --  -- -- -- -- -- -- -- --
02C0:                                32 3F 80 1F 00 40            2?...@
02D0: 80 41 80 42 80 1F 01 6F  1C 03 80 1F 00 43 80 44  .A.B...o.....C.D
02E0: 80 45 80 1F 01 6F 00                              .E...o.         
```

#### Opcodes

```
  0: 0x02CA [0x32] ExtData[1]->MainSpeed = 10* * 0.1
  1: 0x02CD [0x1F] MOVE_ENTITY: EventEntity moves to X=50.032*, Z=-297.920*, Y=0.592*
  2: 0x02D5 [0x1F] MOVE_ENTITY: Update entity position (mode=1)
  3: 0x02D7 [0x6F] WAIT_FRAME_DELAY: Yield until WaitTime reaches zero
  4: 0x02D8 [0x1C] WAIT(30* ticks)
  5: 0x02DB [0x1F] MOVE_ENTITY: EventEntity moves to X=51.247*, Z=-298.275*, Y=0.470*
  6: 0x02E3 [0x1F] MOVE_ENTITY: Update entity position (mode=1)
  7: 0x02E5 [0x6F] WAIT_FRAME_DELAY: Yield until WaitTime reaches zero
  8: 0x02E6 [0x00] END_REQSTACK()
```

### Event 65535.32

#### Metadata

| Field        | Value    |
|--------------|----------|
| Entrypoint   | 0x02E7   |
| Data Size    | 15 bytes |
| Instructions | 5        |

```
      00 01 02 03 04 05 06 07  08 09 0A 0B 0C 0D 0E 0F
      -- -- -- -- -- -- -- --  -- -- -- -- -- -- -- --
02E0:                      32  0A 80 1F 00 46 80 47 80         2....F.G.
02F0: 48 80 1F 01 6F 00                                 H...o.          
```

#### Opcodes

```
  0: 0x02E7 [0x32] ExtData[1]->MainSpeed = 40* * 0.1
  1: 0x02EA [0x1F] MOVE_ENTITY: EventEntity moves to X=52.591*, Z=-296.979*, Y=0.348*
  2: 0x02F2 [0x1F] MOVE_ENTITY: Update entity position (mode=1)
  3: 0x02F4 [0x6F] WAIT_FRAME_DELAY: Yield until WaitTime reaches zero
  4: 0x02F5 [0x00] END_REQSTACK()
```

### Event 65535.33

#### Metadata

| Field        | Value    |
|--------------|----------|
| Entrypoint   | 0x02F6   |
| Data Size    | 62 bytes |
| Instructions | 6        |

```
      00 01 02 03 04 05 06 07  08 09 0A 0B 0C 0D 0E 0F
      -- -- -- -- -- -- -- --  -- -- -- -- -- -- -- --
02F0:                   BB 49  80 0B 83 08 01 0B 83 08        .I........
0300: 01 73 74 30 31 00 80 1C  24 80 BB 49 80 0B 83 08  .st01...$..I....
0310: 01 0B 83 08 01 73 74 30  32 00 80 27 10 CD 82 08  .....st02..'....
0320: 01 0A 45 4A 80 F8 FF FF  7F F8 FF FF 7F 64 62 6E  ..EJ.........dbn
0330: 30 00 80 00                                       0...            
```

#### Opcodes

```
  0: 0x02F6 [0xBB] LOAD_EVENT_SCHEDULER_ALT: Load scheduler "st01" with entities [Unnamed NPC (ID: 17335051/0x0108830B), Unnamed NPC (ID: 17335051/0x0108830B)], work=[156*, 0*]
  1: 0x0307 [0x1C] WAIT(180* ticks)
  2: 0x030A [0xBB] LOAD_EVENT_SCHEDULER_ALT: Load scheduler "st02" with entities [Unnamed NPC (ID: 17335051/0x0108830B), Unnamed NPC (ID: 17335051/0x0108830B)], work=[156*, 0*]
  3: 0x031B [0x27] REQ_SET(priority=0x10, entity_id=Unnamed NPC (ID: 17334989/0x010882CD), tag_num=0x0A)
  4: 0x0322 [0x45] LOAD_SCHEDULED_TASK: Load scheduler "dbn0" with entities [EventEntity, EventEntity], work=[482*, 0*]
  5: 0x0333 [0x00] END_REQSTACK()
```

### Event 8

#### Metadata

| Field        | Value    |
|--------------|----------|
| Entrypoint   | 0x0334   |
| Data Size    | 31 bytes |
| Instructions | 4        |

```
      00 01 02 03 04 05 06 07  08 09 0A 0B 0C 0D 0E 0F
      -- -- -- -- -- -- -- --  -- -- -- -- -- -- -- --
0330:             92 01 F8 FF  FF 7F B4 13 02 00 43 61      ..........Ca
0340: 69 74 40 53 69 74 68 40  41 6F 6E 00 00 00 B5 00  it@Sith@Aon.....
0350: 02 00 00                                          ...             
```

#### Opcodes

```
  0: 0x0334 [0x92] EventEntity->Render.Flags3 ^= 0x01
  1: 0x033A [0xB4] UI_WINDOW_STRING_HANDLER(case=0x13 - Copy string and replace @ with space, work_offset=ExtData[1]->WorkLocal[2], string="Cait@Sith@Aon")
  2: 0x034E [0xB5] SET_EVENT_ENTITY_NAME: Change EventEntity name to ExtData[1]->WorkLocal[2]
  3: 0x0352 [0x00] END_REQSTACK()
```

### Event 11

#### Metadata

| Field        | Value    |
|--------------|----------|
| Entrypoint   | 0x0353   |
| Data Size    | 31 bytes |
| Instructions | 4        |

```
      00 01 02 03 04 05 06 07  08 09 0A 0B 0C 0D 0E 0F
      -- -- -- -- -- -- -- --  -- -- -- -- -- -- -- --
0350:          92 01 F8 FF FF  7F B4 13 02 00 43 61 69     ..........Cai
0360: 74 40 53 69 74 68 40 43  6F 69 67 00 00 B5 00 02  t@Sith@Coig.....
0370: 00 00                                             ..              
```

#### Opcodes

```
  0: 0x0353 [0x92] EventEntity->Render.Flags3 ^= 0x01
  1: 0x0359 [0xB4] UI_WINDOW_STRING_HANDLER(case=0x13 - Copy string and replace @ with space, work_offset=ExtData[1]->WorkLocal[2], string="Cait@Sith@Coig")
  2: 0x036D [0xB5] SET_EVENT_ENTITY_NAME: Change EventEntity name to ExtData[1]->WorkLocal[2]
  3: 0x0371 [0x00] END_REQSTACK()
```

### Event 12

#### Metadata

| Field        | Value    |
|--------------|----------|
| Entrypoint   | 0x0372   |
| Data Size    | 31 bytes |
| Instructions | 4        |

```
      00 01 02 03 04 05 06 07  08 09 0A 0B 0C 0D 0E 0F
      -- -- -- -- -- -- -- --  -- -- -- -- -- -- -- --
0370:       92 01 F8 FF FF 7F  B4 13 02 00 43 61 69 74    ..........Cait
0380: 40 53 69 74 68 40 54 72  69 00 00 00 B5 00 02 00  @Sith@Tri.......
0390: 00                                                .               
```

#### Opcodes

```
  0: 0x0372 [0x92] EventEntity->Render.Flags3 ^= 0x01
  1: 0x0378 [0xB4] UI_WINDOW_STRING_HANDLER(case=0x13 - Copy string and replace @ with space, work_offset=ExtData[1]->WorkLocal[2], string="Cait@Sith@Tri")
  2: 0x038C [0xB5] SET_EVENT_ENTITY_NAME: Change EventEntity name to ExtData[1]->WorkLocal[2]
  3: 0x0390 [0x00] END_REQSTACK()
```

### Event 65535.34

#### Metadata

| Field        | Value    |
|--------------|----------|
| Entrypoint   | 0x0391   |
| Data Size    | 25 bytes |
| Instructions | 3        |

```
      00 01 02 03 04 05 06 07  08 09 0A 0B 0C 0D 0E 0F
      -- -- -- -- -- -- -- --  -- -- -- -- -- -- -- --
0390:    B4 00 02 00 00 00 00  00 00 00 00 00 00 00 00   ...............
03A0: 00 00 00 00 00 B5 00 02  00 00                    ..........      
```

#### Opcodes

```
  0: 0x0391 [0xB4] UI_WINDOW_STRING_HANDLER(case=0x00 - Copy string from opcode, work_offset=ExtData[1]->WorkLocal[2], string="")
  1: 0x03A5 [0xB5] SET_EVENT_ENTITY_NAME: Change EventEntity name to ExtData[1]->WorkLocal[2]
  2: 0x03A9 [0x00] END_REQSTACK()
```

### Event 65535.35

#### Metadata

| Field        | Value     |
|--------------|-----------|
| Entrypoint   | 0x03AA    |
| Data Size    | 258 bytes |
| Instructions | 45        |

```
      00 01 02 03 04 05 06 07  08 09 0A 0B 0C 0D 0E 0F
      -- -- -- -- -- -- -- --  -- -- -- -- -- -- -- --
03A0:                                03 0A 00 00 80 03            ......
03B0: 01 00 00 80 02 01 00 00  80 00 AB 04 13 00 00 4B  ...............K
03C0: 80 02 00 00 00 80 80 DF  03 02 0A 00 3B 80 04 D7  ............;...
03D0: 03 1C 30 80 01 DC 03 07  0A 00 01 80 01 FB 03 02  ..0.............
03E0: 00 00 01 80 80 ED 03 1C  30 80 01 FB 03 02 00 00  ........0.......
03F0: 4B 80 80 FB 03 1C 4C 80  01 FB 03 13 00 00 4D 80  K.....L.......M.
0400: 02 00 00 00 80 80 26 04  4B F8 FF FF 7F 4E 80 CD  ......&.K....N..
0410: 4F 80 F8 FF FF 7F F8 FF  FF 7F 6F 6E 6D 79 00 80  O.........onmy..
0420: 1C 03 80 01 38 04 4B F8  FF FF 7F 50 80 1C 51 80  ....8.K....P..Q.
0430: 03 27 10 01 80 1C 51 80  13 00 00 4B 80 02 00 00  .'....Q....K....
0440: 00 80 80 4B 04 1C 03 80  01 67 04 02 00 00 01 80  ...K.....g......
0450: 80 59 04 1C 30 80 01 67  04 02 00 00 4B 80 80 67  .Y..0..g....K..g
0460: 04 1C 4C 80 01 67 04 CE  4F 80 F8 FF FF 7F F8 FF  ..L..g..O.......
0470: FF 7F 6F 6E 6D 79 CD 4F  80 F8 FF FF 7F F8 FF FF  ..onmy.O........
0480: 7F 6F 66 6D 79 00 80 CE  4F 80 F8 FF FF 7F F8 FF  .ofmy...O.......
0490: FF 7F 6F 66 6D 79 4B F8  FF FF 7F 52 80 1C 51 80  ..ofmyK....R..Q.
04A0: 03 27 10 00 80 1C 51 80  01 B4 03 00              .'....Q.....    
```

#### Opcodes

```
  0: 0x03AA [0x03] ExtData[1]->WorkLocal[10] = 0*
  1: 0x03AF [0x03] ExtData[1]->WorkLocal[1] = 0*
  2: 0x03B4 [0x02] IF !(ExtData[1]->WorkLocal[1] == 0*) GOTO 0x04AB
  3: 0x03BC [0x13] ExtData[1]->WorkLocal[0] = rand() % 2*
  4: 0x03C1 [0x02] IF !(ExtData[1]->WorkLocal[0] == 0*) GOTO 0x03DF
  5: 0x03C9 [0x02] IF !(ExtData[1]->WorkLocal[10] < 5*) GOTO 0x03D7
  6: 0x03D1 [0x1C] WAIT(120* ticks)
  7: 0x03D4 [0x01] GOTO 0x03DC
  8: 0x03D7 [0x07] ExtData[1]->WorkLocal[10] += 1*

SUBROUTINE_03DC:
  9: 0x03DC [0x01] GOTO 0x03FB
 10: 0x03DF [0x02] IF !(ExtData[1]->WorkLocal[0] == 1*) GOTO 0x03ED
 11: 0x03E7 [0x1C] WAIT(120* ticks)
 12: 0x03EA [0x01] GOTO 0x03FB
 13: 0x03ED [0x02] IF !(ExtData[1]->WorkLocal[0] == 2*) GOTO 0x03FB
 14: 0x03F5 [0x1C] WAIT(240* ticks)
 15: 0x03F8 [0x01] GOTO 0x03FB

SUBROUTINE_03FB:
 16: 0x03FB [0x13] ExtData[1]->WorkLocal[0] = rand() % 3*
 17: 0x0400 [0x02] IF !(ExtData[1]->WorkLocal[0] == 0*) GOTO 0x0426
 18: 0x0408 [0x4B] UPDATE_ENTITY_YAW(entity=EventEntity, yaw=19.2째*)
 19: 0x040F [0xCD] LOAD_SCHEDULED_TASK_ALT4: Load scheduler "onmy" with entities [EventEntity, EventEntity], work=[237*, 0*]
 20: 0x0420 [0x1C] WAIT(30* ticks)
 21: 0x0423 [0x01] GOTO 0x0438
 22: 0x0426 [0x4B] UPDATE_ENTITY_YAW(entity=EventEntity, yaw=5.3째*)
 23: 0x042D [0x1C] WAIT(15* ticks)
 24: 0x0430 [0x03] Work_Zone[39] = 1*
 25: 0x0435 [0x1C] WAIT(15* ticks)

SUBROUTINE_0438:
 26: 0x0438 [0x13] ExtData[1]->WorkLocal[0] = rand() % 2*
 27: 0x043D [0x02] IF !(ExtData[1]->WorkLocal[0] == 0*) GOTO 0x044B
 28: 0x0445 [0x1C] WAIT(30* ticks)
 29: 0x0448 [0x01] GOTO 0x0467
 30: 0x044B [0x02] IF !(ExtData[1]->WorkLocal[0] == 1*) GOTO 0x0459
 31: 0x0453 [0x1C] WAIT(120* ticks)
 32: 0x0456 [0x01] GOTO 0x0467
 33: 0x0459 [0x02] IF !(ExtData[1]->WorkLocal[0] == 2*) GOTO 0x0467
 34: 0x0461 [0x1C] WAIT(240* ticks)
 35: 0x0464 [0x01] GOTO 0x0467

SUBROUTINE_0467:
 36: 0x0467 [0xCE] WAIT_LOAD_SCHEDULER_ALT4: Wait for scheduler "onmy" with entities [EventEntity, EventEntity], work=237*
 37: 0x0476 [0xCD] LOAD_SCHEDULED_TASK_ALT4: Load scheduler "ofmy" with entities [EventEntity, EventEntity], work=[237*, 0*]
 38: 0x0487 [0xCE] WAIT_LOAD_SCHEDULER_ALT4: Wait for scheduler "ofmy" with entities [EventEntity, EventEntity], work=237*
 39: 0x0496 [0x4B] UPDATE_ENTITY_YAW(entity=EventEntity, yaw=16.8째*)
 40: 0x049D [0x1C] WAIT(15* ticks)
 41: 0x04A0 [0x03] Work_Zone[39] = 0*
 42: 0x04A5 [0x1C] WAIT(15* ticks)
 43: 0x04A8 [0x01] GOTO 0x03B4
 44: 0x04AB [0x00] END_REQSTACK()
```

### Event 65535.36

#### Metadata

| Field        | Value   |
|--------------|---------|
| Entrypoint   | 0x04AC  |
| Data Size    | 6 bytes |
| Instructions | 2       |

```
      00 01 02 03 04 05 06 07  08 09 0A 0B 0C 0D 0E 0F
      -- -- -- -- -- -- -- --  -- -- -- -- -- -- -- --
04A0:                                      03 01 00 01              ....
04B0: 80 00                                             ..              
```

#### Opcodes

```
  0: 0x04AC [0x03] ExtData[1]->WorkLocal[1] = 1*
  1: 0x04B1 [0x00] END_REQSTACK()
```

### Event 65535.37

#### Metadata

| Field        | Value    |
|--------------|----------|
| Entrypoint   | 0x04B2   |
| Data Size    | 14 bytes |
| Instructions | 4        |

```
      00 01 02 03 04 05 06 07  08 09 0A 0B 0C 0D 0E 0F
      -- -- -- -- -- -- -- --  -- -- -- -- -- -- -- --
04B0:       32 18 80 1F 00 53  80 54 80 55 80 1F 01 00    2....S.T.U....
```

#### Opcodes

```
  0: 0x04B2 [0x32] ExtData[1]->MainSpeed = 13* * 0.1
  1: 0x04B5 [0x1F] MOVE_ENTITY: EventEntity moves to X=262.060*, Z=-12.878*, Y=-20.000*
  2: 0x04BD [0x1F] MOVE_ENTITY: Update entity position (mode=1)
  3: 0x04BF [0x00] END_REQSTACK()
```

### Event 65535.38

#### Metadata

| Field        | Value    |
|--------------|----------|
| Entrypoint   | 0x04C0   |
| Data Size    | 14 bytes |
| Instructions | 4        |

```
      00 01 02 03 04 05 06 07  08 09 0A 0B 0C 0D 0E 0F
      -- -- -- -- -- -- -- --  -- -- -- -- -- -- -- --
04C0: 32 18 80 1F 00 56 80 57  80 55 80 1F 01 00        2....V.W.U....  
```

#### Opcodes

```
  0: 0x04C0 [0x32] ExtData[1]->MainSpeed = 13* * 0.1
  1: 0x04C3 [0x1F] MOVE_ENTITY: EventEntity moves to X=262.331*, Z=-11.666*, Y=-20.000*
  2: 0x04CB [0x1F] MOVE_ENTITY: Update entity position (mode=1)
  3: 0x04CD [0x00] END_REQSTACK()
```

### Event 65535.39

#### Metadata

| Field        | Value     |
|--------------|-----------|
| Entrypoint   | 0x04CE    |
| Data Size    | 553 bytes |
| Instructions | 117       |

```
      00 01 02 03 04 05 06 07  08 09 0A 0B 0C 0D 0E 0F
      -- -- -- -- -- -- -- --  -- -- -- -- -- -- -- --
04C0:                                            03 09                ..
04D0: 00 00 80 03 0A 00 00 80  03 01 00 00 80 03 27 10  ..............'.
04E0: 00 80 13 00 00 4B 80 02  00 00 00 80 80 F5 04 32  .....K.........2
04F0: 58 80 01 11 05 02 00 00  01 80 80 03 05 32 0A 80  X............2..
0500: 01 11 05 02 00 00 4B 80  80 11 05 32 32 80 01 11  ......K....22...
0510: 05 13 00 00 01 80 02 00  00 00 80 80 36 05 1F 00  ............6...
0520: 59 80 5A 80 5B 80 1F 01  6F 03 09 00 01 80 03 27  Y.Z.[...o......'
0530: 10 01 80 01 51 05 02 00  00 01 80 80 51 05 1F 00  ....Q.......Q...
0540: 5C 80 5D 80 5E 80 1F 01  6F 03 09 00 4B 80 01 51  \.].^...o...K..Q
0550: 05 02 01 00 00 80 00 F6  06 02 09 00 01 80 00 E3  ................
0560: 05 02 0A 00 00 80 80 AA  05 13 00 00 4B 80 02 00  ............K...
0570: 00 00 80 80 81 05 1C 03  80 03 0A 00 01 80 01 A7  ................
0580: 05 02 00 00 01 80 80 94  05 1C 32 80 03 0A 00 4B  ..........2....K
0590: 80 01 A7 05 02 00 00 4B  80 80 A7 05 1C 5F 80 03  .......K....._..
05A0: 0A 00 4D 80 01 A7 05 01  E3 05 02 0A 00 01 80 80  ..M.............
05B0: BD 05 1C 32 80 03 0A 00  4B 80 01 E3 05 02 0A 00  ...2....K.......
05C0: 4B 80 80 D0 05 1C 5F 80  03 0A 00 4D 80 01 E3 05  K....._....M....
05D0: 02 0A 00 4D 80 80 E3 05  1C 03 80 03 0A 00 01 80  ...M............
05E0: 01 E3 05 03 27 10 00 80  13 00 00 4B 80 02 00 00  ....'......K....
05F0: 00 80 80 FB 05 32 58 80  01 17 06 02 00 00 01 80  .....2X.........
0600: 80 09 06 32 0A 80 01 17  06 02 00 00 4B 80 80 17  ...2........K...
0610: 06 32 32 80 01 17 06 02  09 00 00 80 80 62 06 13  .22..........b..
0620: 00 00 01 80 02 00 00 00  80 80 44 06 1F 00 59 80  ..........D...Y.
0630: 5A 80 5B 80 1F 01 6F 03  09 00 01 80 03 27 10 01  Z.[...o......'..
0640: 80 01 5F 06 02 00 00 01  80 80 5F 06 1F 00 5C 80  .._......._...\.
0650: 5D 80 5E 80 1F 01 6F 03  09 00 4B 80 01 5F 06 01  ].^...o...K.._..
0660: F3 06 02 09 00 01 80 80  A8 06 13 00 00 01 80 02  ................
0670: 00 00 00 80 80 8A 06 1F  00 5C 80 5D 80 5E 80 1F  .........\.].^..
0680: 01 6F 03 09 00 4B 80 01  A5 06 02 00 00 01 80 80  .o...K..........
0690: A5 06 1F 00 60 80 61 80  5E 80 1F 01 6F 03 09 00  ....`.a.^...o...
06A0: 00 80 01 A5 06 01 F3 06  02 09 00 4B 80 80 F3 06  ...........K....
06B0: 13 00 00 01 80 02 00 00  00 80 80 D5 06 1F 00 59  ...............Y
06C0: 80 5A 80 5B 80 1F 01 6F  03 09 00 01 80 03 27 10  .Z.[...o......'.
06D0: 01 80 01 F0 06 02 00 00  01 80 80 F0 06 1F 00 60  ...............`
06E0: 80 61 80 5E 80 1F 01 6F  03 09 00 00 80 01 F0 06  .a.^...o........
06F0: 01 F3 06 01 51 05 00                              ....Q..         
```

#### Opcodes

```
  0: 0x04CE [0x03] ExtData[1]->WorkLocal[9] = 0*
  1: 0x04D3 [0x03] ExtData[1]->WorkLocal[10] = 0*
  2: 0x04D8 [0x03] ExtData[1]->WorkLocal[1] = 0*
  3: 0x04DD [0x03] Work_Zone[39] = 0*
  4: 0x04E2 [0x13] ExtData[1]->WorkLocal[0] = rand() % 2*
  5: 0x04E7 [0x02] IF !(ExtData[1]->WorkLocal[0] == 0*) GOTO 0x04F5
  6: 0x04EF [0x32] ExtData[1]->MainSpeed = 20* * 0.1
  7: 0x04F2 [0x01] GOTO 0x0511
  8: 0x04F5 [0x02] IF !(ExtData[1]->WorkLocal[0] == 1*) GOTO 0x0503
  9: 0x04FD [0x32] ExtData[1]->MainSpeed = 40* * 0.1
 10: 0x0500 [0x01] GOTO 0x0511
 11: 0x0503 [0x02] IF !(ExtData[1]->WorkLocal[0] == 2*) GOTO 0x0511
 12: 0x050B [0x32] ExtData[1]->MainSpeed = 60* * 0.1
 13: 0x050E [0x01] GOTO 0x0511

SUBROUTINE_0511:
 14: 0x0511 [0x13] ExtData[1]->WorkLocal[0] = rand() % 1*
 15: 0x0516 [0x02] IF !(ExtData[1]->WorkLocal[0] == 0*) GOTO 0x0536
 16: 0x051E [0x1F] MOVE_ENTITY: EventEntity moves to X=262.850*, Z=-10.327*, Y=-20.707*
 17: 0x0526 [0x1F] MOVE_ENTITY: Update entity position (mode=1)
 18: 0x0528 [0x6F] WAIT_FRAME_DELAY: Yield until WaitTime reaches zero
 19: 0x0529 [0x03] ExtData[1]->WorkLocal[9] = 1*
 20: 0x052E [0x03] Work_Zone[39] = 1*
 21: 0x0533 [0x01] GOTO 0x0551
 22: 0x0536 [0x02] IF !(ExtData[1]->WorkLocal[0] == 1*) GOTO 0x0551
 23: 0x053E [0x1F] MOVE_ENTITY: EventEntity moves to X=261.213*, Z=-12.894*, Y=-20.700*
 24: 0x0546 [0x1F] MOVE_ENTITY: Update entity position (mode=1)
 25: 0x0548 [0x6F] WAIT_FRAME_DELAY: Yield until WaitTime reaches zero
 26: 0x0549 [0x03] ExtData[1]->WorkLocal[9] = 2*
 27: 0x054E [0x01] GOTO 0x0551

SUBROUTINE_0551:
 28: 0x0551 [0x02] IF !(ExtData[1]->WorkLocal[1] == 0*) GOTO 0x06F6
 29: 0x0559 [0x02] IF !(ExtData[1]->WorkLocal[9] == 1*) GOTO 0x05E3
 30: 0x0561 [0x02] IF !(ExtData[1]->WorkLocal[10] == 0*) GOTO 0x05AA
 31: 0x0569 [0x13] ExtData[1]->WorkLocal[0] = rand() % 2*
 32: 0x056E [0x02] IF !(ExtData[1]->WorkLocal[0] == 0*) GOTO 0x0581
 33: 0x0576 [0x1C] WAIT(30* ticks)
 34: 0x0579 [0x03] ExtData[1]->WorkLocal[10] = 1*
 35: 0x057E [0x01] GOTO 0x05A7
 36: 0x0581 [0x02] IF !(ExtData[1]->WorkLocal[0] == 1*) GOTO 0x0594
 37: 0x0589 [0x1C] WAIT(60* ticks)
 38: 0x058C [0x03] ExtData[1]->WorkLocal[10] = 2*
 39: 0x0591 [0x01] GOTO 0x05A7
 40: 0x0594 [0x02] IF !(ExtData[1]->WorkLocal[0] == 2*) GOTO 0x05A7
 41: 0x059C [0x1C] WAIT(90* ticks)
 42: 0x059F [0x03] ExtData[1]->WorkLocal[10] = 3*
 43: 0x05A4 [0x01] GOTO 0x05A7

SUBROUTINE_05A7:
 44: 0x05A7 [0x01] GOTO 0x05E3
 45: 0x05AA [0x02] IF !(ExtData[1]->WorkLocal[10] == 1*) GOTO 0x05BD
 46: 0x05B2 [0x1C] WAIT(60* ticks)
 47: 0x05B5 [0x03] ExtData[1]->WorkLocal[10] = 2*
 48: 0x05BA [0x01] GOTO 0x05E3
 49: 0x05BD [0x02] IF !(ExtData[1]->WorkLocal[10] == 2*) GOTO 0x05D0
 50: 0x05C5 [0x1C] WAIT(90* ticks)
 51: 0x05C8 [0x03] ExtData[1]->WorkLocal[10] = 3*
 52: 0x05CD [0x01] GOTO 0x05E3
 53: 0x05D0 [0x02] IF !(ExtData[1]->WorkLocal[10] == 3*) GOTO 0x05E3
 54: 0x05D8 [0x1C] WAIT(30* ticks)
 55: 0x05DB [0x03] ExtData[1]->WorkLocal[10] = 1*
 56: 0x05E0 [0x01] GOTO 0x05E3

SUBROUTINE_05E3:
 57: 0x05E3 [0x03] Work_Zone[39] = 0*
 58: 0x05E8 [0x13] ExtData[1]->WorkLocal[0] = rand() % 2*
 59: 0x05ED [0x02] IF !(ExtData[1]->WorkLocal[0] == 0*) GOTO 0x05FB
 60: 0x05F5 [0x32] ExtData[1]->MainSpeed = 20* * 0.1
 61: 0x05F8 [0x01] GOTO 0x0617
 62: 0x05FB [0x02] IF !(ExtData[1]->WorkLocal[0] == 1*) GOTO 0x0609
 63: 0x0603 [0x32] ExtData[1]->MainSpeed = 40* * 0.1
 64: 0x0606 [0x01] GOTO 0x0617
 65: 0x0609 [0x02] IF !(ExtData[1]->WorkLocal[0] == 2*) GOTO 0x0617
 66: 0x0611 [0x32] ExtData[1]->MainSpeed = 60* * 0.1
 67: 0x0614 [0x01] GOTO 0x0617

SUBROUTINE_0617:
 68: 0x0617 [0x02] IF !(ExtData[1]->WorkLocal[9] == 0*) GOTO 0x0662
 69: 0x061F [0x13] ExtData[1]->WorkLocal[0] = rand() % 1*
 70: 0x0624 [0x02] IF !(ExtData[1]->WorkLocal[0] == 0*) GOTO 0x0644
 71: 0x062C [0x1F] MOVE_ENTITY: EventEntity moves to X=262.850*, Z=-10.327*, Y=-20.707*
 72: 0x0634 [0x1F] MOVE_ENTITY: Update entity position (mode=1)
 73: 0x0636 [0x6F] WAIT_FRAME_DELAY: Yield until WaitTime reaches zero
 74: 0x0637 [0x03] ExtData[1]->WorkLocal[9] = 1*
 75: 0x063C [0x03] Work_Zone[39] = 1*
 76: 0x0641 [0x01] GOTO 0x065F
 77: 0x0644 [0x02] IF !(ExtData[1]->WorkLocal[0] == 1*) GOTO 0x065F
 78: 0x064C [0x1F] MOVE_ENTITY: EventEntity moves to X=261.213*, Z=-12.894*, Y=-20.700*
 79: 0x0654 [0x1F] MOVE_ENTITY: Update entity position (mode=1)
 80: 0x0656 [0x6F] WAIT_FRAME_DELAY: Yield until WaitTime reaches zero
 81: 0x0657 [0x03] ExtData[1]->WorkLocal[9] = 2*
 82: 0x065C [0x01] GOTO 0x065F

SUBROUTINE_065F:
 83: 0x065F [0x01] GOTO 0x06F3
 84: 0x0662 [0x02] IF !(ExtData[1]->WorkLocal[9] == 1*) GOTO 0x06A8
 85: 0x066A [0x13] ExtData[1]->WorkLocal[0] = rand() % 1*
 86: 0x066F [0x02] IF !(ExtData[1]->WorkLocal[0] == 0*) GOTO 0x068A
 87: 0x0677 [0x1F] MOVE_ENTITY: EventEntity moves to X=261.213*, Z=-12.894*, Y=-20.700*
 88: 0x067F [0x1F] MOVE_ENTITY: Update entity position (mode=1)
 89: 0x0681 [0x6F] WAIT_FRAME_DELAY: Yield until WaitTime reaches zero
 90: 0x0682 [0x03] ExtData[1]->WorkLocal[9] = 2*
 91: 0x0687 [0x01] GOTO 0x06A5
 92: 0x068A [0x02] IF !(ExtData[1]->WorkLocal[0] == 1*) GOTO 0x06A5
 93: 0x0692 [0x1F] MOVE_ENTITY: EventEntity moves to X=263.876*, Z=-8.800*, Y=-20.700*
 94: 0x069A [0x1F] MOVE_ENTITY: Update entity position (mode=1)
 95: 0x069C [0x6F] WAIT_FRAME_DELAY: Yield until WaitTime reaches zero
 96: 0x069D [0x03] ExtData[1]->WorkLocal[9] = 0*
 97: 0x06A2 [0x01] GOTO 0x06A5

SUBROUTINE_06A5:
 98: 0x06A5 [0x01] GOTO 0x06F3
 99: 0x06A8 [0x02] IF !(ExtData[1]->WorkLocal[9] == 2*) GOTO 0x06F3
100: 0x06B0 [0x13] ExtData[1]->WorkLocal[0] = rand() % 1*
101: 0x06B5 [0x02] IF !(ExtData[1]->WorkLocal[0] == 0*) GOTO 0x06D5
102: 0x06BD [0x1F] MOVE_ENTITY: EventEntity moves to X=262.850*, Z=-10.327*, Y=-20.707*
103: 0x06C5 [0x1F] MOVE_ENTITY: Update entity position (mode=1)
104: 0x06C7 [0x6F] WAIT_FRAME_DELAY: Yield until WaitTime reaches zero
105: 0x06C8 [0x03] ExtData[1]->WorkLocal[9] = 1*
106: 0x06CD [0x03] Work_Zone[39] = 1*
107: 0x06D2 [0x01] GOTO 0x06F0
108: 0x06D5 [0x02] IF !(ExtData[1]->WorkLocal[0] == 1*) GOTO 0x06F0
109: 0x06DD [0x1F] MOVE_ENTITY: EventEntity moves to X=263.876*, Z=-8.800*, Y=-20.700*
110: 0x06E5 [0x1F] MOVE_ENTITY: Update entity position (mode=1)
111: 0x06E7 [0x6F] WAIT_FRAME_DELAY: Yield until WaitTime reaches zero
112: 0x06E8 [0x03] ExtData[1]->WorkLocal[9] = 0*
113: 0x06ED [0x01] GOTO 0x06F0

SUBROUTINE_06F0:
114: 0x06F0 [0x01] GOTO 0x06F3

SUBROUTINE_06F3:
115: 0x06F3 [0x01] GOTO 0x0551
116: 0x06F6 [0x00] END_REQSTACK()
```

### Event 65535.40

#### Metadata

| Field        | Value    |
|--------------|----------|
| Entrypoint   | 0x06F7   |
| Data Size    | 14 bytes |
| Instructions | 4        |

```
      00 01 02 03 04 05 06 07  08 09 0A 0B 0C 0D 0E 0F
      -- -- -- -- -- -- -- --  -- -- -- -- -- -- -- --
06F0:                      32  32 80 1F 00 5C 80 5D 80         22...\.].
0700: 5E 80 1F 01 00                                    ^....           
```

#### Opcodes

```
  0: 0x06F7 [0x32] ExtData[1]->MainSpeed = 60* * 0.1
  1: 0x06FA [0x1F] MOVE_ENTITY: EventEntity moves to X=261.213*, Z=-12.894*, Y=-20.700*
  2: 0x0702 [0x1F] MOVE_ENTITY: Update entity position (mode=1)
  3: 0x0704 [0x00] END_REQSTACK()
```

### Event 65535.41

#### Metadata

| Field        | Value   |
|--------------|---------|
| Entrypoint   | 0x0705  |
| Data Size    | 6 bytes |
| Instructions | 2       |

```
      00 01 02 03 04 05 06 07  08 09 0A 0B 0C 0D 0E 0F
      -- -- -- -- -- -- -- --  -- -- -- -- -- -- -- --
0700:                03 00 00  00 80 00                      ......     
```

#### Opcodes

```
  0: 0x0705 [0x03] ExtData[1]->WorkLocal[0] = 0*
  1: 0x070A [0x00] END_REQSTACK()
```

### Event 65535.42

#### Metadata

| Field        | Value     |
|--------------|-----------|
| Entrypoint   | 0x070B    |
| Data Size    | 121 bytes |
| Instructions | 29        |

```
      00 01 02 03 04 05 06 07  08 09 0A 0B 0C 0D 0E 0F
      -- -- -- -- -- -- -- --  -- -- -- -- -- -- -- --
0700:                                   02 00 00 00 80             .....
0710: 80 29 07 32 18 80 1F 00  62 80 63 80 64 80 1F 01  .).2....b.c.d...
0720: 6F 03 00 00 01 80 01 83  07 02 00 00 01 80 80 47  o..............G
0730: 07 32 18 80 1F 00 65 80  66 80 67 80 1F 01 6F 03  .2....e.f.g...o.
0740: 00 00 4B 80 01 83 07 02  00 00 4B 80 80 65 07 32  ..K.......K..e.2
0750: 18 80 1F 00 68 80 69 80  6A 80 1F 01 6F 03 00 00  ....h.i.j...o...
0760: 4D 80 01 83 07 02 00 00  4D 80 80 83 07 32 18 80  M.......M....2..
0770: 1F 00 6B 80 6C 80 6D 80  1F 01 6F 03 27 10 01 80  ..k.l.m...o.'...
0780: 01 83 07 00                                       ....            
```

#### Opcodes

```
  0: 0x070B [0x02] IF !(ExtData[1]->WorkLocal[0] == 0*) GOTO 0x0729
  1: 0x0713 [0x32] ExtData[1]->MainSpeed = 13* * 0.1
  2: 0x0716 [0x1F] MOVE_ENTITY: EventEntity moves to X=-319.970*, Z=130.611*, Y=-99.671*
  3: 0x071E [0x1F] MOVE_ENTITY: Update entity position (mode=1)
  4: 0x0720 [0x6F] WAIT_FRAME_DELAY: Yield until WaitTime reaches zero
  5: 0x0721 [0x03] ExtData[1]->WorkLocal[0] = 1*
  6: 0x0726 [0x01] GOTO 0x0783
  7: 0x0729 [0x02] IF !(ExtData[1]->WorkLocal[0] == 1*) GOTO 0x0747
  8: 0x0731 [0x32] ExtData[1]->MainSpeed = 13* * 0.1
  9: 0x0734 [0x1F] MOVE_ENTITY: EventEntity moves to X=-318.342*, Z=131.307*, Y=-99.637*
 10: 0x073C [0x1F] MOVE_ENTITY: Update entity position (mode=1)
 11: 0x073E [0x6F] WAIT_FRAME_DELAY: Yield until WaitTime reaches zero
 12: 0x073F [0x03] ExtData[1]->WorkLocal[0] = 2*
 13: 0x0744 [0x01] GOTO 0x0783
 14: 0x0747 [0x02] IF !(ExtData[1]->WorkLocal[0] == 2*) GOTO 0x0765
 15: 0x074F [0x32] ExtData[1]->MainSpeed = 13* * 0.1
 16: 0x0752 [0x1F] MOVE_ENTITY: EventEntity moves to X=-316.852*, Z=131.779*, Y=-99.627*
 17: 0x075A [0x1F] MOVE_ENTITY: Update entity position (mode=1)
 18: 0x075C [0x6F] WAIT_FRAME_DELAY: Yield until WaitTime reaches zero
 19: 0x075D [0x03] ExtData[1]->WorkLocal[0] = 3*
 20: 0x0762 [0x01] GOTO 0x0783
 21: 0x0765 [0x02] IF !(ExtData[1]->WorkLocal[0] == 3*) GOTO 0x0783
 22: 0x076D [0x32] ExtData[1]->MainSpeed = 13* * 0.1
 23: 0x0770 [0x1F] MOVE_ENTITY: EventEntity moves to X=-316.089*, Z=132.059*, Y=-99.599*
 24: 0x0778 [0x1F] MOVE_ENTITY: Update entity position (mode=1)
 25: 0x077A [0x6F] WAIT_FRAME_DELAY: Yield until WaitTime reaches zero
 26: 0x077B [0x03] Work_Zone[39] = 1*
 27: 0x0780 [0x01] GOTO 0x0783

SUBROUTINE_0783:
 28: 0x0783 [0x00] END_REQSTACK()
```

### Event 14

#### Metadata

| Field        | Value    |
|--------------|----------|
| Entrypoint   | 0x0784   |
| Data Size    | 31 bytes |
| Instructions | 4        |

```
      00 01 02 03 04 05 06 07  08 09 0A 0B 0C 0D 0E 0F
      -- -- -- -- -- -- -- --  -- -- -- -- -- -- -- --
0780:             92 01 F8 FF  FF 7F B4 13 02 00 43 61      ..........Ca
0790: 69 74 40 53 69 74 68 40  4E 61 6F 69 00 00 B5 00  it@Sith@Naoi....
07A0: 02 00 00                                          ...             
```

#### Opcodes

```
  0: 0x0784 [0x92] EventEntity->Render.Flags3 ^= 0x01
  1: 0x078A [0xB4] UI_WINDOW_STRING_HANDLER(case=0x13 - Copy string and replace @ with space, work_offset=ExtData[1]->WorkLocal[2], string="Cait@Sith@Naoi")
  2: 0x079E [0xB5] SET_EVENT_ENTITY_NAME: Change EventEntity name to ExtData[1]->WorkLocal[2]
  3: 0x07A2 [0x00] END_REQSTACK()
```

### Event 65535.43

#### Metadata

| Field        | Value    |
|--------------|----------|
| Entrypoint   | 0x07A3   |
| Data Size    | 57 bytes |
| Instructions | 7        |

```
      00 01 02 03 04 05 06 07  08 09 0A 0B 0C 0D 0E 0F
      -- -- -- -- -- -- -- --  -- -- -- -- -- -- -- --
07A0:          5B 2D 80 56 83  08 01 56 83 08 01 6D 72     [-.V...V...mr
07B0: 72 30 1C 32 80 5B 6E 80  54 83 08 01 54 83 08 01  r0.2.[n.T...T...
07C0: 74 6C 63 31 1C 32 80 BB  6F 80 CD 82 08 01 CD 82  tlc1.2..o.......
07D0: 08 01 73 30 30 39 00 80  1C 4C 80 00              ..s009...L..    
```

#### Opcodes

```
  0: 0x07A3 [0x5B] LOAD_EXT_SCHEDULER: Load scheduler "mrr0" with entities [Unnamed NPC (ID: 17335126/0x01088356), Unnamed NPC (ID: 17335126/0x01088356)], work=2474*
  1: 0x07B2 [0x1C] WAIT(60* ticks)
  2: 0x07B5 [0x5B] LOAD_EXT_SCHEDULER: Load scheduler "tlc1" with entities [Lilisette (ID: 17335124/0x01088354), Lilisette (ID: 17335124/0x01088354)], work=2132*
  3: 0x07C4 [0x1C] WAIT(60* ticks)
  4: 0x07C7 [0xBB] LOAD_EVENT_SCHEDULER_ALT: Load scheduler "s009" with entities [Unnamed NPC (ID: 17334989/0x010882CD), Unnamed NPC (ID: 17334989/0x010882CD)], work=[196*, 0*]
  5: 0x07D8 [0x1C] WAIT(240* ticks)
  6: 0x07DB [0x00] END_REQSTACK()
```

### Event 65535.44

#### Metadata

| Field        | Value    |
|--------------|----------|
| Entrypoint   | 0x07DC   |
| Data Size    | 14 bytes |
| Instructions | 4        |

```
      00 01 02 03 04 05 06 07  08 09 0A 0B 0C 0D 0E 0F
      -- -- -- -- -- -- -- --  -- -- -- -- -- -- -- --
07D0:                                      32 18 80 1F              2...
07E0: 00 70 80 71 80 72 80 1F  01 00                    .p.q.r....      
```

#### Opcodes

```
  0: 0x07DC [0x32] ExtData[1]->MainSpeed = 13* * 0.1
  1: 0x07DF [0x1F] MOVE_ENTITY: EventEntity moves to X=44.974*, Z=-320.081*, Y=-0.032*
  2: 0x07E7 [0x1F] MOVE_ENTITY: Update entity position (mode=1)
  3: 0x07E9 [0x00] END_REQSTACK()
```

### Event 18

#### Metadata

| Field        | Value    |
|--------------|----------|
| Entrypoint   | 0x07EA   |
| Data Size    | 33 bytes |
| Instructions | 5        |

```
      00 01 02 03 04 05 06 07  08 09 0A 0B 0C 0D 0E 0F
      -- -- -- -- -- -- -- --  -- -- -- -- -- -- -- --
07E0:                                A4 01 92 01 F8 FF            ......
07F0: FF 7F B4 13 02 00 43 61  69 74 40 53 69 74 68 40  ......Cait@Sith@
0800: 4E 61 6F 69 00 00 B5 00  02 00 00                 Naoi.......     
```

#### Opcodes

```
  0: 0x07EA [0xA4] EventEntity->Flags3.unknown_3_2 = 1
  1: 0x07EC [0x92] EventEntity->Render.Flags3 ^= 0x01
  2: 0x07F2 [0xB4] UI_WINDOW_STRING_HANDLER(case=0x13 - Copy string and replace @ with space, work_offset=ExtData[1]->WorkLocal[2], string="Cait@Sith@Naoi")
  3: 0x0806 [0xB5] SET_EVENT_ENTITY_NAME: Change EventEntity name to ExtData[1]->WorkLocal[2]
  4: 0x080A [0x00] END_REQSTACK()
```

### Event 65535.45

#### Metadata

| Field        | Value    |
|--------------|----------|
| Entrypoint   | 0x080B   |
| Data Size    | 31 bytes |
| Instructions | 4        |

```
      00 01 02 03 04 05 06 07  08 09 0A 0B 0C 0D 0E 0F
      -- -- -- -- -- -- -- --  -- -- -- -- -- -- -- --
0800:                                   92 01 F8 FF FF             .....
0810: 7F B4 13 02 00 43 61 69  74 40 53 69 74 68 00 00  .....Cait@Sith..
0820: 00 00 00 00 00 B5 00 02  00 00                    ..........      
```

#### Opcodes

```
  0: 0x080B [0x92] EventEntity->Render.Flags3 ^= 0x01
  1: 0x0811 [0xB4] UI_WINDOW_STRING_HANDLER(case=0x13 - Copy string and replace @ with space, work_offset=ExtData[1]->WorkLocal[2], string="Cait@Sith")
  2: 0x0825 [0xB5] SET_EVENT_ENTITY_NAME: Change EventEntity name to ExtData[1]->WorkLocal[2]
  3: 0x0829 [0x00] END_REQSTACK()
```

### Event 20

#### Metadata

| Field        | Value    |
|--------------|----------|
| Entrypoint   | 0x082A   |
| Data Size    | 31 bytes |
| Instructions | 4        |

```
      00 01 02 03 04 05 06 07  08 09 0A 0B 0C 0D 0E 0F
      -- -- -- -- -- -- -- --  -- -- -- -- -- -- -- --
0820:                                92 01 F8 FF FF 7F            ......
0830: B4 13 02 00 43 61 69 74  40 53 69 74 68 40 4E 61  ....Cait@Sith@Na
0840: 6F 69 00 00 B5 00 02 00  00                       oi.......       
```

#### Opcodes

```
  0: 0x082A [0x92] EventEntity->Render.Flags3 ^= 0x01
  1: 0x0830 [0xB4] UI_WINDOW_STRING_HANDLER(case=0x13 - Copy string and replace @ with space, work_offset=ExtData[1]->WorkLocal[2], string="Cait@Sith@Naoi")
  2: 0x0844 [0xB5] SET_EVENT_ENTITY_NAME: Change EventEntity name to ExtData[1]->WorkLocal[2]
  3: 0x0848 [0x00] END_REQSTACK()
```

### Event 65535.46

#### Metadata

| Field        | Value    |
|--------------|----------|
| Entrypoint   | 0x0849   |
| Data Size    | 15 bytes |
| Instructions | 5        |

```
      00 01 02 03 04 05 06 07  08 09 0A 0B 0C 0D 0E 0F
      -- -- -- -- -- -- -- --  -- -- -- -- -- -- -- --
0840:                             32 0A 80 1F 00 73 80           2....s.
0850: 74 80 75 80 1F 01 6F 00                           t.u...o.        
```

#### Opcodes

```
  0: 0x0849 [0x32] ExtData[1]->MainSpeed = 40* * 0.1
  1: 0x084C [0x1F] MOVE_ENTITY: EventEntity moves to X=258.072*, Z=-45.056*, Y=20.092*
  2: 0x0854 [0x1F] MOVE_ENTITY: Update entity position (mode=1)
  3: 0x0856 [0x6F] WAIT_FRAME_DELAY: Yield until WaitTime reaches zero
  4: 0x0857 [0x00] END_REQSTACK()
```

### Event 21

#### Metadata

| Field        | Value    |
|--------------|----------|
| Entrypoint   | 0x0858   |
| Data Size    | 31 bytes |
| Instructions | 4        |

```
      00 01 02 03 04 05 06 07  08 09 0A 0B 0C 0D 0E 0F
      -- -- -- -- -- -- -- --  -- -- -- -- -- -- -- --
0850:                          92 01 F8 FF FF 7F B4 13          ........
0860: 02 00 43 61 69 74 40 53  69 74 68 40 4E 61 6F 69  ..Cait@Sith@Naoi
0870: 00 00 B5 00 02 00 00                              .......         
```

#### Opcodes

```
  0: 0x0858 [0x92] EventEntity->Render.Flags3 ^= 0x01
  1: 0x085E [0xB4] UI_WINDOW_STRING_HANDLER(case=0x13 - Copy string and replace @ with space, work_offset=ExtData[1]->WorkLocal[2], string="Cait@Sith@Naoi")
  2: 0x0872 [0xB5] SET_EVENT_ENTITY_NAME: Change EventEntity name to ExtData[1]->WorkLocal[2]
  3: 0x0876 [0x00] END_REQSTACK()
```

### Event 65535.47

#### Metadata

| Field        | Value    |
|--------------|----------|
| Entrypoint   | 0x0877   |
| Data Size    | 14 bytes |
| Instructions | 4        |

```
      00 01 02 03 04 05 06 07  08 09 0A 0B 0C 0D 0E 0F
      -- -- -- -- -- -- -- --  -- -- -- -- -- -- -- --
0870:                      32  18 80 1F 00 76 80 77 80         2....v.w.
0880: 78 80 1F 01 00                                    x....           
```

#### Opcodes

```
  0: 0x0877 [0x32] ExtData[1]->MainSpeed = 13* * 0.1
  1: 0x087A [0x1F] MOVE_ENTITY: EventEntity moves to X=301.032*, Z=-3.843*, Y=10.792*
  2: 0x0882 [0x1F] MOVE_ENTITY: Update entity position (mode=1)
  3: 0x0884 [0x00] END_REQSTACK()
```

### Event 65535.48

#### Metadata

| Field        | Value    |
|--------------|----------|
| Entrypoint   | 0x0885   |
| Data Size    | 10 bytes |
| Instructions | 2        |

```
      00 01 02 03 04 05 06 07  08 09 0A 0B 0C 0D 0E 0F
      -- -- -- -- -- -- -- --  -- -- -- -- -- -- -- --
0880:                6C F8 FF  FF 7F 00 80 30 80 00          l......0.. 
```

#### Opcodes

```
  0: 0x0885 [0x6C] FADE_ENTITY_COLOR(entity_id=EventEntity, end_alpha=0*, fade_time=120*)
  1: 0x088E [0x00] END_REQSTACK()
```

### Event 65535.49

#### Metadata

| Field        | Value    |
|--------------|----------|
| Entrypoint   | 0x088F   |
| Data Size    | 10 bytes |
| Instructions | 2        |

```
      00 01 02 03 04 05 06 07  08 09 0A 0B 0C 0D 0E 0F
      -- -- -- -- -- -- -- --  -- -- -- -- -- -- -- --
0880:                                               6C                 l
0890: F8 FF FF 7F 02 80 30 80  00                       ......0..       
```

#### Opcodes

```
  0: 0x088F [0x6C] FADE_ENTITY_COLOR(entity_id=EventEntity, end_alpha=128*, fade_time=120*)
  1: 0x0898 [0x00] END_REQSTACK()
```

### Event 65535.50

#### Metadata

| Field        | Value    |
|--------------|----------|
| Entrypoint   | 0x0899   |
| Data Size    | 15 bytes |
| Instructions | 5        |

```
      00 01 02 03 04 05 06 07  08 09 0A 0B 0C 0D 0E 0F
      -- -- -- -- -- -- -- --  -- -- -- -- -- -- -- --
0890:                             32 0A 80 1F 00 79 80           2....y.
08A0: 7A 80 7B 80 1F 01 6F 00                           z.{...o.        
```

#### Opcodes

```
  0: 0x0899 [0x32] ExtData[1]->MainSpeed = 40* * 0.1
  1: 0x089C [0x1F] MOVE_ENTITY: EventEntity moves to X=383.587*, Z=-458.545*, Y=1.139*
  2: 0x08A4 [0x1F] MOVE_ENTITY: Update entity position (mode=1)
  3: 0x08A6 [0x6F] WAIT_FRAME_DELAY: Yield until WaitTime reaches zero
  4: 0x08A7 [0x00] END_REQSTACK()
```

### Event 65535.51

#### Metadata

| Field        | Value    |
|--------------|----------|
| Entrypoint   | 0x08A8   |
| Data Size    | 15 bytes |
| Instructions | 5        |

```
      00 01 02 03 04 05 06 07  08 09 0A 0B 0C 0D 0E 0F
      -- -- -- -- -- -- -- --  -- -- -- -- -- -- -- --
08A0:                          32 0A 80 1F 00 7C 80 7D          2....|.}
08B0: 80 7E 80 1F 01 6F 00                              .~...o.         
```

#### Opcodes

```
  0: 0x08A8 [0x32] ExtData[1]->MainSpeed = 40* * 0.1
  1: 0x08AB [0x1F] MOVE_ENTITY: EventEntity moves to X=395.627*, Z=-458.291*, Y=1.537*
  2: 0x08B3 [0x1F] MOVE_ENTITY: Update entity position (mode=1)
  3: 0x08B5 [0x6F] WAIT_FRAME_DELAY: Yield until WaitTime reaches zero
  4: 0x08B6 [0x00] END_REQSTACK()
```

### Event 65535.52

#### Metadata

| Field        | Value   |
|--------------|---------|
| Entrypoint   | 0x08B7  |
| Data Size    | 5 bytes |
| Instructions | 3       |

```
      00 01 02 03 04 05 06 07  08 09 0A 0B 0C 0D 0E 0F
      -- -- -- -- -- -- -- --  -- -- -- -- -- -- -- --
08B0:                      84  C0 01 80 00                     .....    
```

#### Opcodes

```
  0: 0x08B7 [0x84] ADJUST_RENDER_FLAGS3_BIT0()
  1: 0x08B8 [0xC0] EventEntity->Render.Flags3 |= 0x1000 // Set bit 12 (from 1*)
  2: 0x08BB [0x00] END_REQSTACK()
```

### Event 65535.53

#### Metadata

| Field        | Value   |
|--------------|---------|
| Entrypoint   | 0x08BC  |
| Data Size    | 3 bytes |
| Instructions | 2       |

```
      00 01 02 03 04 05 06 07  08 09 0A 0B 0C 0D 0E 0F
      -- -- -- -- -- -- -- --  -- -- -- -- -- -- -- --
08B0:                                      AB 08 00                 ... 
```

#### Opcodes

```
  0: 0x08BC [0xAB] EventEntity->Render.Flags2 |= 0x02 // Set bit 1
  1: 0x08BE [0x00] END_REQSTACK()
```

### Event 65535.54

#### Metadata

| Field        | Value   |
|--------------|---------|
| Entrypoint   | 0x08BF  |
| Data Size    | 3 bytes |
| Instructions | 2       |

```
      00 01 02 03 04 05 06 07  08 09 0A 0B 0C 0D 0E 0F
      -- -- -- -- -- -- -- --  -- -- -- -- -- -- -- --
08B0:                                               AB                 .
08C0: 07 00                                             ..              
```

#### Opcodes

```
  0: 0x08BF [0xAB] EventEntity->Render.Flags2 |= 0x01 // Set bit 0
  1: 0x08C1 [0x00] END_REQSTACK()
```

### Event 65535.55

#### Metadata

| Field        | Value   |
|--------------|---------|
| Entrypoint   | 0x08C2  |
| Data Size    | 3 bytes |
| Instructions | 2       |

```
      00 01 02 03 04 05 06 07  08 09 0A 0B 0C 0D 0E 0F
      -- -- -- -- -- -- -- --  -- -- -- -- -- -- -- --
08C0:       A4 00 00                                      ...           
```

#### Opcodes

```
  0: 0x08C2 [0xA4] EventEntity->Flags3.unknown_3_2 = 0
  1: 0x08C4 [0x00] END_REQSTACK()
```

### Event 65535.56

#### Metadata

| Field        | Value    |
|--------------|----------|
| Entrypoint   | 0x08C5   |
| Data Size    | 21 bytes |
| Instructions | 3        |

```
      00 01 02 03 04 05 06 07  08 09 0A 0B 0C 0D 0E 0F
      -- -- -- -- -- -- -- --  -- -- -- -- -- -- -- --
08C0:                1C 32 80  C5 2F 80 56 83 08 01 56       .2../.V...V
08D0: 83 08 01 73 30 30 30 00  80 00                    ...s000...      
```

#### Opcodes

```
  0: 0x08C5 [0x1C] WAIT(60* ticks)
  1: 0x08C8 [0xC5] LOAD_SCHEDULED_TASK_ALT3: Load scheduler 0x80003030 for entities [Unnamed NPC (ID: 17335126/0x01088356), Unnamed NPC (ID: 17335126/0x01088356)], work=167*, param=12403
  2: 0x08D9 [0x00] END_REQSTACK()
```

### Event 17

#### Metadata

| Field        | Value   |
|--------------|---------|
| Entrypoint   | 0x08DA  |
| Data Size    | 1 bytes |
| Instructions | 1       |

```
      00 01 02 03 04 05 06 07  08 09 0A 0B 0C 0D 0E 0F
      -- -- -- -- -- -- -- --  -- -- -- -- -- -- -- --
08D0:                                00                           .     
```

#### Opcodes

```
  0: 0x08DA [0x00] END_REQSTACK()
```

### Event 65535.57

#### Metadata

| Field        | Value    |
|--------------|----------|
| Entrypoint   | 0x08DB   |
| Data Size    | 21 bytes |
| Instructions | 5        |

```
      00 01 02 03 04 05 06 07  08 09 0A 0B 0C 0D 0E 0F
      -- -- -- -- -- -- -- --  -- -- -- -- -- -- -- --
08D0:                                   1F 00 7F 80 80             .....
08E0: 80 81 80 1F 01 6F 4A 56  83 08 01 F0 FF FF 7F 00  .....oJV........
```

#### Opcodes

```
  0: 0x08DB [0x1F] MOVE_ENTITY: EventEntity moves to X=-280.864*, Z=-170.326*, Y=-41.072*
  1: 0x08E3 [0x1F] MOVE_ENTITY: Update entity position (mode=1)
  2: 0x08E5 [0x6F] WAIT_FRAME_DELAY: Yield until WaitTime reaches zero
  3: 0x08E6 [0x4A] Unnamed NPC (ID: 17335126/0x01088356) looks at LocalPlayer
  4: 0x08EF [0x00] END_REQSTACK()
```

### Event 65535.58

#### Metadata

| Field        | Value    |
|--------------|----------|
| Entrypoint   | 0x08F0   |
| Data Size    | 12 bytes |
| Instructions | 4        |

```
      00 01 02 03 04 05 06 07  08 09 0A 0B 0C 0D 0E 0F
      -- -- -- -- -- -- -- --  -- -- -- -- -- -- -- --
08F0: 1F 00 82 80 83 80 84 80  1F 01 6F 00              ..........o.    
```

#### Opcodes

```
  0: 0x08F0 [0x1F] MOVE_ENTITY: EventEntity moves to X=63.222*, Z=53.657*, Y=-39.723*
  1: 0x08F8 [0x1F] MOVE_ENTITY: Update entity position (mode=1)
  2: 0x08FA [0x6F] WAIT_FRAME_DELAY: Yield until WaitTime reaches zero
  3: 0x08FB [0x00] END_REQSTACK()
```

### Event 65535.59

#### Metadata

| Field        | Value    |
|--------------|----------|
| Entrypoint   | 0x08FC   |
| Data Size    | 11 bytes |
| Instructions | 3        |

```
      00 01 02 03 04 05 06 07  08 09 0A 0B 0C 0D 0E 0F
      -- -- -- -- -- -- -- --  -- -- -- -- -- -- -- --
08F0:                                      1F 00 85 80              ....
0900: 86 80 87 80 1F 01 00                              .......         
```

#### Opcodes

```
  0: 0x08FC [0x1F] MOVE_ENTITY: EventEntity moves to X=-283.964*, Z=-171.951*, Y=-41.809*
  1: 0x0904 [0x1F] MOVE_ENTITY: Update entity position (mode=1)
  2: 0x0906 [0x00] END_REQSTACK()
```

### Event 65535.60

#### Metadata

| Field        | Value    |
|--------------|----------|
| Entrypoint   | 0x0907   |
| Data Size    | 25 bytes |
| Instructions | 3        |

```
      00 01 02 03 04 05 06 07  08 09 0A 0B 0C 0D 0E 0F
      -- -- -- -- -- -- -- --  -- -- -- -- -- -- -- --
0900:                      B4  13 02 00 43 61 69 74 40         ....Cait@
0910: 53 69 74 68 40 4E 61 6F  69 00 00 B5 00 02 00 00  Sith@Naoi.......
```

#### Opcodes

```
  0: 0x0907 [0xB4] UI_WINDOW_STRING_HANDLER(case=0x13 - Copy string and replace @ with space, work_offset=ExtData[1]->WorkLocal[2], string="Cait@Sith@Naoi")
  1: 0x091B [0xB5] SET_EVENT_ENTITY_NAME: Change EventEntity name to ExtData[1]->WorkLocal[2]
  2: 0x091F [0x00] END_REQSTACK()
```

### Event 30

#### Metadata

| Field        | Value   |
|--------------|---------|
| Entrypoint   | 0x0920  |
| Data Size    | 1 bytes |
| Instructions | 1       |

```
      00 01 02 03 04 05 06 07  08 09 0A 0B 0C 0D 0E 0F
      -- -- -- -- -- -- -- --  -- -- -- -- -- -- -- --
0920: 00                                                .               
```

#### Opcodes

```
  0: 0x0920 [0x00] END_REQSTACK()
```
