# 17335092 - Altennia

## Common Data

| Field            | Value                            |
|------------------|----------------------------------|
| Zone             | Beaucedine Glacier [S] (ID: 136) |
| Block Size       | 524 bytes                        |
| Total Events     | 22                               |
| References Count | 33                               |

## List of Events

| Event ID                   | Entrypoint   |   Size |   Instructions |
|----------------------------|--------------|--------|----------------|
| [65535](#event-65535)      | 0x0000       |      1 |              1 |
| [1](#event-1)              | 0x0001       |      1 |              1 |
| [65535.1](#event-655351)   | 0x0002       |     29 |              7 |
| [65535.2](#event-655352)   | 0x001F       |     66 |             10 |
| [65535.3](#event-655353)   | 0x0061       |     38 |              8 |
| [65535.4](#event-655354)   | 0x0087       |      1 |              1 |
| [65535.5](#event-655355)   | 0x0088       |     19 |              4 |
| [65535.6](#event-655356)   | 0x009B       |      1 |              1 |
| [65535.7](#event-655357)   | 0x009C       |     18 |              4 |
| [65535.8](#event-655358)   | 0x00AE       |     10 |              2 |
| [65535.9](#event-655359)   | 0x00B8       |      9 |              3 |
| [65535.10](#event-6553510) | 0x00C1       |      9 |              3 |
| [65535.11](#event-6553511) | 0x00CA       |     10 |              2 |
| [65535.12](#event-6553512) | 0x00D4       |     10 |              2 |
| [6](#event-6)              | 0x00DE       |      1 |              1 |
| [65535.13](#event-6553513) | 0x00DF       |     11 |              3 |
| [65535.14](#event-6553514) | 0x00EA       |     11 |              3 |
| [65535.15](#event-6553515) | 0x00F5       |     11 |              3 |
| [65535.16](#event-6553516) | 0x0100       |      4 |              2 |
| [65535.17](#event-6553517) | 0x0104       |      4 |              2 |
| [65535.18](#event-6553518) | 0x0108       |     11 |              3 |
| [65535.19](#event-6553519) | 0x0113       |     10 |              2 |

## DAT References (imed_data)

|   Index | Hex Value   |   Dec Value |
|---------|-------------|-------------|
|       0 | 0x000C      |          12 |
|       1 | 0xE38D      |       58253 |
|       2 | 0xFFF87A57  |  4294474327 |
|       3 | 0xFFFFFFE0  |  4294967264 |
|       4 | 0x0025      |          37 |
|       5 | 0xE4C9      |       58569 |
|       6 | 0xFFF88BE4  |  4294478820 |
|       7 | 0x00BF      |         191 |
|       8 | 0xDEB3      |       57011 |
|       9 | 0xFFF8915E  |  4294480222 |
|      10 | 0x0049      |          73 |
|      11 | 0x0BB8      |        3000 |
|      12 | 0x000F      |          15 |
|      13 | 0x0536      |        1334 |
|      14 | 0x0032      |          50 |
|      15 | 0x0028      |          40 |
|      16 | 0x001B      |          27 |
|      17 | 0x0834      |        2100 |
|      18 | 0x0000      |           0 |
|      19 | 0x0001      |           1 |
|      20 | 0x0080      |         128 |
|      21 | 0x3900A     |      233482 |
|      22 | 0xFFFD0358  |  4294771544 |
|      23 | 0x0060      |          96 |
|      24 | 0x1E29C     |      123548 |
|      25 | 0xFFFCFE0B  |  4294770187 |
|      26 | 0xFFFFB1E0  |  4294947296 |
|      27 | 0x1EC41     |      126017 |
|      28 | 0xFFFCE9B9  |  4294764985 |
|      29 | 0x0002      |           2 |
|      30 | 0x24B49     |      150345 |
|      31 | 0xFFFD3790  |  4294784912 |
|      32 | 0x0137      |         311 |

## Events

### Event 65535

#### Metadata

| Field        | Value   |
|--------------|---------|
| Entrypoint   | 0x0000  |
| Data Size    | 1 bytes |
| Instructions | 1       |

```
      00 01 02 03 04 05 06 07  08 09 0A 0B 0C 0D 0E 0F
      -- -- -- -- -- -- -- --  -- -- -- -- -- -- -- --
0000: 00                                                .               
```

#### Opcodes

```
  0: 0x0000 [0x00] END_REQSTACK()
```

### Event 1

#### Metadata

| Field        | Value   |
|--------------|---------|
| Entrypoint   | 0x0001  |
| Data Size    | 1 bytes |
| Instructions | 1       |

```
      00 01 02 03 04 05 06 07  08 09 0A 0B 0C 0D 0E 0F
      -- -- -- -- -- -- -- --  -- -- -- -- -- -- -- --
0000:    00                                              .              
```

#### Opcodes

```
  0: 0x0001 [0x00] END_REQSTACK()
```

### Event 65535.1

#### Metadata

| Field        | Value    |
|--------------|----------|
| Entrypoint   | 0x0002   |
| Data Size    | 29 bytes |
| Instructions | 7        |

```
      00 01 02 03 04 05 06 07  08 09 0A 0B 0C 0D 0E 0F
      -- -- -- -- -- -- -- --  -- -- -- -- -- -- -- --
0000:       32 00 80 1F 00 01  80 02 80 03 80 1F 01 6F    2............o
0010: 4A F8 FF FF 7F F0 FF FF  7F 7B F8 FF FF 7F 00     J........{..... 
```

#### Opcodes

```
  0: 0x0002 [0x32] ExtData[1]->MainSpeed = 12* * 0.1
  1: 0x0005 [0x1F] MOVE_ENTITY: EventEntity moves to X=58.253*, Z=-492.969*, Y=-0.032*
  2: 0x000D [0x1F] MOVE_ENTITY: Update entity position (mode=1)
  3: 0x000F [0x6F] WAIT_FRAME_DELAY: Yield until WaitTime reaches zero
  4: 0x0010 [0x4A] EventEntity looks at LocalPlayer
  5: 0x0019 [0x7B] EventEntity stops talking
  6: 0x001E [0x00] END_REQSTACK()
```

### Event 65535.2

#### Metadata

| Field        | Value    |
|--------------|----------|
| Entrypoint   | 0x001F   |
| Data Size    | 66 bytes |
| Instructions | 10       |

```
      00 01 02 03 04 05 06 07  08 09 0A 0B 0C 0D 0E 0F
      -- -- -- -- -- -- -- --  -- -- -- -- -- -- -- --
0010:                                               32                 2
0020: 04 80 1F 00 05 80 06 80  07 80 1F 01 BA F8 FF FF  ................
0030: 7F 08 80 09 80 0A 80 0B  80 4A F0 FF FF 7F 34 83  .........J....4.
0040: 08 01 4A F8 FF FF 7F F0  FF FF 7F 1C 0C 80 5B 0D  ..J...........[.
0050: 80 34 83 08 01 34 83 08  01 74 6C 6B 30 1C 0E 80  .4...4...tlk0...
0060: 00                                                .               
```

#### Opcodes

```
  0: 0x001F [0x32] ExtData[1]->MainSpeed = 37* * 0.1
  1: 0x0022 [0x1F] MOVE_ENTITY: EventEntity moves to X=58.569*, Z=-488.476*, Y=0.191*
  2: 0x002A [0x1F] MOVE_ENTITY: Update entity position (mode=1)
  3: 0x002C [0xBA] SET_ENTITY_POSITION(entity_id=EventEntity, pos_x=57.011*, pos_z=-487.074*, pos_y=0.073*, direction=263.7°*)
  4: 0x0039 [0x4A] LocalPlayer looks at Altennia (ID: 17335092/0x01088334)
  5: 0x0042 [0x4A] EventEntity looks at LocalPlayer
  6: 0x004B [0x1C] WAIT(15* ticks)
  7: 0x004E [0x5B] LOAD_EXT_SCHEDULER: Load scheduler "tlk0" with entities [Altennia (ID: 17335092/0x01088334), Altennia (ID: 17335092/0x01088334)], work=1334*
  8: 0x005D [0x1C] WAIT(50* ticks)
  9: 0x0060 [0x00] END_REQSTACK()
```

### Event 65535.3

#### Metadata

| Field        | Value    |
|--------------|----------|
| Entrypoint   | 0x0061   |
| Data Size    | 38 bytes |
| Instructions | 8        |

```
      00 01 02 03 04 05 06 07  08 09 0A 0B 0C 0D 0E 0F
      -- -- -- -- -- -- -- --  -- -- -- -- -- -- -- --
0060:    4A F8 FF FF 7F 35 83  08 01 1C 0F 80 32 00 80   J....5......2..
0070: 1F 00 08 80 09 80 0A 80  1F 01 1C 0C 80 4A F8 FF  .............J..
0080: FF 7F F0 FF FF 7F 00                              .......         
```

#### Opcodes

```
  0: 0x0061 [0x4A] EventEntity looks at Phillieulais (ID: 17335093/0x01088335)
  1: 0x006A [0x1C] WAIT(40* ticks)
  2: 0x006D [0x32] ExtData[1]->MainSpeed = 12* * 0.1
  3: 0x0070 [0x1F] MOVE_ENTITY: EventEntity moves to X=57.011*, Z=-487.074*, Y=0.073*
  4: 0x0078 [0x1F] MOVE_ENTITY: Update entity position (mode=1)
  5: 0x007A [0x1C] WAIT(15* ticks)
  6: 0x007D [0x4A] EventEntity looks at LocalPlayer
  7: 0x0086 [0x00] END_REQSTACK()
```

### Event 65535.4

#### Metadata

| Field        | Value   |
|--------------|---------|
| Entrypoint   | 0x0087  |
| Data Size    | 1 bytes |
| Instructions | 1       |

```
      00 01 02 03 04 05 06 07  08 09 0A 0B 0C 0D 0E 0F
      -- -- -- -- -- -- -- --  -- -- -- -- -- -- -- --
0080:                      00                                  .        
```

#### Opcodes

```
  0: 0x0087 [0x00] END_REQSTACK()
```

### Event 65535.5

#### Metadata

| Field        | Value    |
|--------------|----------|
| Entrypoint   | 0x0088   |
| Data Size    | 19 bytes |
| Instructions | 4        |

```
      00 01 02 03 04 05 06 07  08 09 0A 0B 0C 0D 0E 0F
      -- -- -- -- -- -- -- --  -- -- -- -- -- -- -- --
0080:                          1C 10 80 59 01 F8 FF FF          ...Y....
0090: 7F 0E 80 4B F8 FF FF 7F  11 80 00                 ...K.......     
```

#### Opcodes

```
  0: 0x0088 [0x1C] WAIT(27* ticks)
  1: 0x008B [0x59] UPDATE_ENTITY_DATA: Set EventEntity turn speed = 50*
  2: 0x0093 [0x4B] UPDATE_ENTITY_YAW(entity=EventEntity, yaw=11.5°*)
  3: 0x009A [0x00] END_REQSTACK()
```

### Event 65535.6

#### Metadata

| Field        | Value   |
|--------------|---------|
| Entrypoint   | 0x009B  |
| Data Size    | 1 bytes |
| Instructions | 1       |

```
      00 01 02 03 04 05 06 07  08 09 0A 0B 0C 0D 0E 0F
      -- -- -- -- -- -- -- --  -- -- -- -- -- -- -- --
0090:                                   00                         .    
```

#### Opcodes

```
  0: 0x009B [0x00] END_REQSTACK()
```

### Event 65535.7

#### Metadata

| Field        | Value    |
|--------------|----------|
| Entrypoint   | 0x009C   |
| Data Size    | 18 bytes |
| Instructions | 4        |

```
      00 01 02 03 04 05 06 07  08 09 0A 0B 0C 0D 0E 0F
      -- -- -- -- -- -- -- --  -- -- -- -- -- -- -- --
0090:                                      22 00 2F 00              "./.
00A0: F8 FF FF 7F 6C F8 FF FF  7F 12 80 13 80 00        ....l.........  
```

#### Opcodes

```
  0: 0x009C [0x22] ENTITY_HIDE_FLAG(enabled=0x00)
  1: 0x009E [0x2F] EventEntity->Render.Flags0 &= ~0x80000 // Bit 19
  2: 0x00A4 [0x6C] FADE_ENTITY_COLOR(entity_id=EventEntity, end_alpha=0*, fade_time=1*)
  3: 0x00AD [0x00] END_REQSTACK()
```

### Event 65535.8

#### Metadata

| Field        | Value    |
|--------------|----------|
| Entrypoint   | 0x00AE   |
| Data Size    | 10 bytes |
| Instructions | 2        |

```
      00 01 02 03 04 05 06 07  08 09 0A 0B 0C 0D 0E 0F
      -- -- -- -- -- -- -- --  -- -- -- -- -- -- -- --
00A0:                                            6C F8                l.
00B0: FF FF 7F 14 80 13 80 00                           ........        
```

#### Opcodes

```
  0: 0x00AE [0x6C] FADE_ENTITY_COLOR(entity_id=EventEntity, end_alpha=128*, fade_time=1*)
  1: 0x00B7 [0x00] END_REQSTACK()
```

### Event 65535.9

#### Metadata

| Field        | Value   |
|--------------|---------|
| Entrypoint   | 0x00B8  |
| Data Size    | 9 bytes |
| Instructions | 3       |

```
      00 01 02 03 04 05 06 07  08 09 0A 0B 0C 0D 0E 0F
      -- -- -- -- -- -- -- --  -- -- -- -- -- -- -- --
00B0:                          22 00 2F 00 F8 FF FF 7F          "./.....
00C0: 00                                                .               
```

#### Opcodes

```
  0: 0x00B8 [0x22] ENTITY_HIDE_FLAG(enabled=0x00)
  1: 0x00BA [0x2F] EventEntity->Render.Flags0 &= ~0x80000 // Bit 19
  2: 0x00C0 [0x00] END_REQSTACK()
```

### Event 65535.10

#### Metadata

| Field        | Value   |
|--------------|---------|
| Entrypoint   | 0x00C1  |
| Data Size    | 9 bytes |
| Instructions | 3       |

```
      00 01 02 03 04 05 06 07  08 09 0A 0B 0C 0D 0E 0F
      -- -- -- -- -- -- -- --  -- -- -- -- -- -- -- --
00C0:    22 01 2F 01 F8 FF FF  7F 00                     "./......      
```

#### Opcodes

```
  0: 0x00C1 [0x22] ENTITY_HIDE_FLAG(enabled=0x01)
  1: 0x00C3 [0x2F] EventEntity->Render.Flags0 |= 0x80000 // Bit 19
  2: 0x00C9 [0x00] END_REQSTACK()
```

### Event 65535.11

#### Metadata

| Field        | Value    |
|--------------|----------|
| Entrypoint   | 0x00CA   |
| Data Size    | 10 bytes |
| Instructions | 2        |

```
      00 01 02 03 04 05 06 07  08 09 0A 0B 0C 0D 0E 0F
      -- -- -- -- -- -- -- --  -- -- -- -- -- -- -- --
00C0:                                6C F8 FF FF 7F 12            l.....
00D0: 80 13 80 00                                       ....            
```

#### Opcodes

```
  0: 0x00CA [0x6C] FADE_ENTITY_COLOR(entity_id=EventEntity, end_alpha=0*, fade_time=1*)
  1: 0x00D3 [0x00] END_REQSTACK()
```

### Event 65535.12

#### Metadata

| Field        | Value    |
|--------------|----------|
| Entrypoint   | 0x00D4   |
| Data Size    | 10 bytes |
| Instructions | 2        |

```
      00 01 02 03 04 05 06 07  08 09 0A 0B 0C 0D 0E 0F
      -- -- -- -- -- -- -- --  -- -- -- -- -- -- -- --
00D0:             6C F8 FF FF  7F 14 80 13 80 00            l.........  
```

#### Opcodes

```
  0: 0x00D4 [0x6C] FADE_ENTITY_COLOR(entity_id=EventEntity, end_alpha=128*, fade_time=1*)
  1: 0x00DD [0x00] END_REQSTACK()
```

### Event 6

#### Metadata

| Field        | Value   |
|--------------|---------|
| Entrypoint   | 0x00DE  |
| Data Size    | 1 bytes |
| Instructions | 1       |

```
      00 01 02 03 04 05 06 07  08 09 0A 0B 0C 0D 0E 0F
      -- -- -- -- -- -- -- --  -- -- -- -- -- -- -- --
00D0:                                            00                   . 
```

#### Opcodes

```
  0: 0x00DE [0x00] END_REQSTACK()
```

### Event 65535.13

#### Metadata

| Field        | Value    |
|--------------|----------|
| Entrypoint   | 0x00DF   |
| Data Size    | 11 bytes |
| Instructions | 3        |

```
      00 01 02 03 04 05 06 07  08 09 0A 0B 0C 0D 0E 0F
      -- -- -- -- -- -- -- --  -- -- -- -- -- -- -- --
00D0:                                               1F                 .
00E0: 00 15 80 16 80 17 80 1F  01 00                    ..........      
```

#### Opcodes

```
  0: 0x00DF [0x1F] MOVE_ENTITY: EventEntity moves to X=233.482*, Z=-195.752*, Y=0.096*
  1: 0x00E7 [0x1F] MOVE_ENTITY: Update entity position (mode=1)
  2: 0x00E9 [0x00] END_REQSTACK()
```

### Event 65535.14

#### Metadata

| Field        | Value    |
|--------------|----------|
| Entrypoint   | 0x00EA   |
| Data Size    | 11 bytes |
| Instructions | 3        |

```
      00 01 02 03 04 05 06 07  08 09 0A 0B 0C 0D 0E 0F
      -- -- -- -- -- -- -- --  -- -- -- -- -- -- -- --
00E0:                                1F 00 18 80 19 80            ......
00F0: 1A 80 1F 01 00                                    .....           
```

#### Opcodes

```
  0: 0x00EA [0x1F] MOVE_ENTITY: EventEntity moves to X=123.548*, Z=-197.109*, Y=-20.000*
  1: 0x00F2 [0x1F] MOVE_ENTITY: Update entity position (mode=1)
  2: 0x00F4 [0x00] END_REQSTACK()
```

### Event 65535.15

#### Metadata

| Field        | Value    |
|--------------|----------|
| Entrypoint   | 0x00F5   |
| Data Size    | 11 bytes |
| Instructions | 3        |

```
      00 01 02 03 04 05 06 07  08 09 0A 0B 0C 0D 0E 0F
      -- -- -- -- -- -- -- --  -- -- -- -- -- -- -- --
00F0:                1F 00 1B  80 1C 80 1A 80 1F 01 00       ...........
```

#### Opcodes

```
  0: 0x00F5 [0x1F] MOVE_ENTITY: EventEntity moves to X=126.017*, Z=-202.311*, Y=-20.000*
  1: 0x00FD [0x1F] MOVE_ENTITY: Update entity position (mode=1)
  2: 0x00FF [0x00] END_REQSTACK()
```

### Event 65535.16

#### Metadata

| Field        | Value   |
|--------------|---------|
| Entrypoint   | 0x0100  |
| Data Size    | 4 bytes |
| Instructions | 2       |

```
      00 01 02 03 04 05 06 07  08 09 0A 0B 0C 0D 0E 0F
      -- -- -- -- -- -- -- --  -- -- -- -- -- -- -- --
0100: 95 1D 80 00                                       ....            
```

#### Opcodes

```
  0: 0x0100 [0x95] SETUP_EVENT_NPC: Prepare NPC for event (Render.Flags3 = 2*)
  1: 0x0103 [0x00] END_REQSTACK()
```

### Event 65535.17

#### Metadata

| Field        | Value   |
|--------------|---------|
| Entrypoint   | 0x0104  |
| Data Size    | 4 bytes |
| Instructions | 2       |

```
      00 01 02 03 04 05 06 07  08 09 0A 0B 0C 0D 0E 0F
      -- -- -- -- -- -- -- --  -- -- -- -- -- -- -- --
0100:             95 13 80 00                               ....        
```

#### Opcodes

```
  0: 0x0104 [0x95] SETUP_EVENT_NPC: Prepare NPC for event (Render.Flags3 = 1*)
  1: 0x0107 [0x00] END_REQSTACK()
```

### Event 65535.18

#### Metadata

| Field        | Value    |
|--------------|----------|
| Entrypoint   | 0x0108   |
| Data Size    | 11 bytes |
| Instructions | 3        |

```
      00 01 02 03 04 05 06 07  08 09 0A 0B 0C 0D 0E 0F
      -- -- -- -- -- -- -- --  -- -- -- -- -- -- -- --
0100:                          1F 00 1E 80 1F 80 20 80          ...... .
0110: 1F 01 00                                          ...             
```

#### Opcodes

```
  0: 0x0108 [0x1F] MOVE_ENTITY: EventEntity moves to X=150.345*, Z=-182.384*, Y=0.311*
  1: 0x0110 [0x1F] MOVE_ENTITY: Update entity position (mode=1)
  2: 0x0112 [0x00] END_REQSTACK()
```

### Event 65535.19

#### Metadata

| Field        | Value    |
|--------------|----------|
| Entrypoint   | 0x0113   |
| Data Size    | 10 bytes |
| Instructions | 2        |

```
      00 01 02 03 04 05 06 07  08 09 0A 0B 0C 0D 0E 0F
      -- -- -- -- -- -- -- --  -- -- -- -- -- -- -- --
0110:          6C 34 83 08 01  12 80 13 80 00              l4........   
```

#### Opcodes

```
  0: 0x0113 [0x6C] FADE_ENTITY_COLOR(entity_id=Altennia (ID: 17335092/0x01088334), end_alpha=0*, fade_time=1*)
  1: 0x011C [0x00] END_REQSTACK()
```
