# 17335088

## Common Data

| Field            | Value                            |
|------------------|----------------------------------|
| Zone             | Beaucedine Glacier [S] (ID: 136) |
| Block Size       | 156 bytes                        |
| Total Events     | 9                                |
| References Count | 8                                |

## List of Events

| Event ID                 | Entrypoint   |   Size |   Instructions |
|--------------------------|--------------|--------|----------------|
| [29](#event-29)          | 0x0000       |      1 |              1 |
| [65535](#event-65535)    | 0x0001       |     10 |              3 |
| [65535.1](#event-655351) | 0x000B       |     10 |              3 |
| [65535.2](#event-655352) | 0x0015       |     10 |              3 |
| [65535.3](#event-655353) | 0x001F       |     10 |              3 |
| [65535.4](#event-655354) | 0x0029       |     10 |              3 |
| [65535.5](#event-655355) | 0x0033       |     10 |              2 |
| [65535.6](#event-655356) | 0x003D       |     10 |              2 |

## DAT References (imed_data)

|   Index | Hex Value   |   Dec Value |
|---------|-------------|-------------|
|       0 | 0x0417      |        1047 |
|       1 | 0x0419      |        1049 |
|       2 | 0x02F0      |         752 |
|       3 | 0x08AB      |        2219 |
|       4 | 0x08FB      |        2299 |
|       5 | 0x0080      |         128 |
|       6 | 0x0001      |           1 |
|       7 | 0x0000      |           0 |

## Events

### Event 29

#### Metadata

| Field        | Value   |
|--------------|---------|
| Entrypoint   | 0x0000  |
| Data Size    | 1 bytes |
| Instructions | 1       |

```
      00 01 02 03 04 05 06 07  08 09 0A 0B 0C 0D 0E 0F
      -- -- -- -- -- -- -- --  -- -- -- -- -- -- -- --
0000: 00                                                .               
```

#### Opcodes

```
  0: 0x0000 [0x00] END_REQSTACK()
```

### Event 65535

#### Metadata

| Field        | Value    |
|--------------|----------|
| Entrypoint   | 0x0001   |
| Data Size    | 10 bytes |
| Instructions | 3        |

```
      00 01 02 03 04 05 06 07  08 09 0A 0B 0C 0D 0E 0F
      -- -- -- -- -- -- -- --  -- -- -- -- -- -- -- --
0000:    B6 00 00 80 80 30 83  08 01 00                  .....0....     
```

#### Opcodes

```
  0: 0x0001 [0xB6] ENTITY_APPEARANCE_HANDLER(case=Hair style, value=1047*)
  1: 0x0005 [0x80] LOAD_WAIT(entity=Unnamed NPC (ID: 17335088/0x01088330))
  2: 0x000A [0x00] END_REQSTACK()
```

### Event 65535.1

#### Metadata

| Field        | Value    |
|--------------|----------|
| Entrypoint   | 0x000B   |
| Data Size    | 10 bytes |
| Instructions | 3        |

```
      00 01 02 03 04 05 06 07  08 09 0A 0B 0C 0D 0E 0F
      -- -- -- -- -- -- -- --  -- -- -- -- -- -- -- --
0000:                                   B6 00 01 80 80             .....
0010: 30 83 08 01 00                                    0....           
```

#### Opcodes

```
  0: 0x000B [0xB6] ENTITY_APPEARANCE_HANDLER(case=Hair style, value=1049*)
  1: 0x000F [0x80] LOAD_WAIT(entity=Unnamed NPC (ID: 17335088/0x01088330))
  2: 0x0014 [0x00] END_REQSTACK()
```

### Event 65535.2

#### Metadata

| Field        | Value    |
|--------------|----------|
| Entrypoint   | 0x0015   |
| Data Size    | 10 bytes |
| Instructions | 3        |

```
      00 01 02 03 04 05 06 07  08 09 0A 0B 0C 0D 0E 0F
      -- -- -- -- -- -- -- --  -- -- -- -- -- -- -- --
0010:                B6 00 02  80 80 30 83 08 01 00          .....0.... 
```

#### Opcodes

```
  0: 0x0015 [0xB6] ENTITY_APPEARANCE_HANDLER(case=Hair style, value=752*)
  1: 0x0019 [0x80] LOAD_WAIT(entity=Unnamed NPC (ID: 17335088/0x01088330))
  2: 0x001E [0x00] END_REQSTACK()
```

### Event 65535.3

#### Metadata

| Field        | Value    |
|--------------|----------|
| Entrypoint   | 0x001F   |
| Data Size    | 10 bytes |
| Instructions | 3        |

```
      00 01 02 03 04 05 06 07  08 09 0A 0B 0C 0D 0E 0F
      -- -- -- -- -- -- -- --  -- -- -- -- -- -- -- --
0010:                                               B6                 .
0020: 00 03 80 80 30 83 08 01  00                       ....0....       
```

#### Opcodes

```
  0: 0x001F [0xB6] ENTITY_APPEARANCE_HANDLER(case=Hair style, value=2219*)
  1: 0x0023 [0x80] LOAD_WAIT(entity=Unnamed NPC (ID: 17335088/0x01088330))
  2: 0x0028 [0x00] END_REQSTACK()
```

### Event 65535.4

#### Metadata

| Field        | Value    |
|--------------|----------|
| Entrypoint   | 0x0029   |
| Data Size    | 10 bytes |
| Instructions | 3        |

```
      00 01 02 03 04 05 06 07  08 09 0A 0B 0C 0D 0E 0F
      -- -- -- -- -- -- -- --  -- -- -- -- -- -- -- --
0020:                             B6 00 04 80 80 30 83           .....0.
0030: 08 01 00                                          ...             
```

#### Opcodes

```
  0: 0x0029 [0xB6] ENTITY_APPEARANCE_HANDLER(case=Hair style, value=2299*)
  1: 0x002D [0x80] LOAD_WAIT(entity=Unnamed NPC (ID: 17335088/0x01088330))
  2: 0x0032 [0x00] END_REQSTACK()
```

### Event 65535.5

#### Metadata

| Field        | Value    |
|--------------|----------|
| Entrypoint   | 0x0033   |
| Data Size    | 10 bytes |
| Instructions | 2        |

```
      00 01 02 03 04 05 06 07  08 09 0A 0B 0C 0D 0E 0F
      -- -- -- -- -- -- -- --  -- -- -- -- -- -- -- --
0030:          6C 30 83 08 01  05 80 06 80 00              l0........   
```

#### Opcodes

```
  0: 0x0033 [0x6C] FADE_ENTITY_COLOR(entity_id=Unnamed NPC (ID: 17335088/0x01088330), end_alpha=128*, fade_time=1*)
  1: 0x003C [0x00] END_REQSTACK()
```

### Event 65535.6

#### Metadata

| Field        | Value    |
|--------------|----------|
| Entrypoint   | 0x003D   |
| Data Size    | 10 bytes |
| Instructions | 2        |

```
      00 01 02 03 04 05 06 07  08 09 0A 0B 0C 0D 0E 0F
      -- -- -- -- -- -- -- --  -- -- -- -- -- -- -- --
0030:                                         6C 30 83               l0.
0040: 08 01 07 80 06 80 00                              .......         
```

#### Opcodes

```
  0: 0x003D [0x6C] FADE_ENTITY_COLOR(entity_id=Unnamed NPC (ID: 17335088/0x01088330), end_alpha=0*, fade_time=1*)
  1: 0x0046 [0x00] END_REQSTACK()
```
