# 17334989

## Common Data

| Field            | Value                            |
|------------------|----------------------------------|
| Zone             | Beaucedine Glacier [S] (ID: 136) |
| Block Size       | 660 bytes                        |
| Total Events     | 29                               |
| References Count | 16                               |

## List of Events

| Event ID                   | Entrypoint   |   Size |   Instructions |
|----------------------------|--------------|--------|----------------|
| [65535](#event-65535)      | 0x0000       |      1 |              1 |
| [13](#event-13)            | 0x0001       |      1 |              1 |
| [14](#event-14)            | 0x0002       |      1 |              1 |
| [16](#event-16)            | 0x0003       |      1 |              1 |
| [30](#event-30)            | 0x0004       |      1 |              1 |
| [18](#event-18)            | 0x0005       |      1 |              1 |
| [19](#event-19)            | 0x0006       |      1 |              1 |
| [17](#event-17)            | 0x0007       |      1 |              1 |
| [25](#event-25)            | 0x0008       |      1 |              1 |
| [26](#event-26)            | 0x0009       |      1 |              1 |
| [65535.1](#event-655351)   | 0x000A       |     10 |              2 |
| [65535.2](#event-655352)   | 0x0014       |     10 |              2 |
| [65535.3](#event-655353)   | 0x001E       |     10 |              2 |
| [65535.4](#event-655354)   | 0x0028       |     10 |              2 |
| [65535.5](#event-655355)   | 0x0032       |     10 |              2 |
| [65535.6](#event-655356)   | 0x003C       |     10 |              2 |
| [65535.7](#event-655357)   | 0x0046       |     10 |              2 |
| [65535.8](#event-655358)   | 0x0050       |     10 |              2 |
| [65535.9](#event-655359)   | 0x005A       |     18 |              2 |
| [65535.10](#event-6553510) | 0x006C       |     18 |              2 |
| [65535.11](#event-6553511) | 0x007E       |     38 |              4 |
| [65535.12](#event-6553512) | 0x00A4       |     38 |              4 |
| [65535.13](#event-6553513) | 0x00CA       |     21 |              3 |
| [65535.14](#event-6553514) | 0x00DF       |     21 |              3 |
| [65535.15](#event-6553515) | 0x00F4       |     38 |              4 |
| [65535.16](#event-6553516) | 0x011A       |     13 |              3 |
| [65535.17](#event-6553517) | 0x0127       |     41 |              5 |
| [65535.18](#event-6553518) | 0x0150       |     10 |              2 |
| [65535.19](#event-6553519) | 0x015A       |    118 |             12 |

## DAT References (imed_data)

|   Index | Hex Value   |   Dec Value |
|---------|-------------|-------------|
|       0 | 0x0000      |           0 |
|       1 | 0x0078      |         120 |
|       2 | 0x007F      |         127 |
|       3 | 0x003C      |          60 |
|       4 | 0x0001      |           1 |
|       5 | 0x0094      |         148 |
|       6 | 0x001E      |          30 |
|       7 | 0x00B4      |         180 |
|       8 | 0x0073      |         115 |
|       9 | 0x0050      |          80 |
|      10 | 0x00AC      |         172 |
|      11 | 0x0096      |         150 |
|      12 | 0x000F      |          15 |
|      13 | 0x002D      |          45 |
|      14 | 0x0005      |           5 |
|      15 | 0x0014      |          20 |

## Events

### Event 65535

#### Metadata

| Field        | Value   |
|--------------|---------|
| Entrypoint   | 0x0000  |
| Data Size    | 1 bytes |
| Instructions | 1       |

```
      00 01 02 03 04 05 06 07  08 09 0A 0B 0C 0D 0E 0F
      -- -- -- -- -- -- -- --  -- -- -- -- -- -- -- --
0000: 00                                                .               
```

#### Opcodes

```
  0: 0x0000 [0x00] END_REQSTACK()
```

### Event 13

#### Metadata

| Field        | Value   |
|--------------|---------|
| Entrypoint   | 0x0001  |
| Data Size    | 1 bytes |
| Instructions | 1       |

```
      00 01 02 03 04 05 06 07  08 09 0A 0B 0C 0D 0E 0F
      -- -- -- -- -- -- -- --  -- -- -- -- -- -- -- --
0000:    00                                              .              
```

#### Opcodes

```
  0: 0x0001 [0x00] END_REQSTACK()
```

### Event 14

#### Metadata

| Field        | Value   |
|--------------|---------|
| Entrypoint   | 0x0002  |
| Data Size    | 1 bytes |
| Instructions | 1       |

```
      00 01 02 03 04 05 06 07  08 09 0A 0B 0C 0D 0E 0F
      -- -- -- -- -- -- -- --  -- -- -- -- -- -- -- --
0000:       00                                            .             
```

#### Opcodes

```
  0: 0x0002 [0x00] END_REQSTACK()
```

### Event 16

#### Metadata

| Field        | Value   |
|--------------|---------|
| Entrypoint   | 0x0003  |
| Data Size    | 1 bytes |
| Instructions | 1       |

```
      00 01 02 03 04 05 06 07  08 09 0A 0B 0C 0D 0E 0F
      -- -- -- -- -- -- -- --  -- -- -- -- -- -- -- --
0000:          00                                          .            
```

#### Opcodes

```
  0: 0x0003 [0x00] END_REQSTACK()
```

### Event 30

#### Metadata

| Field        | Value   |
|--------------|---------|
| Entrypoint   | 0x0004  |
| Data Size    | 1 bytes |
| Instructions | 1       |

```
      00 01 02 03 04 05 06 07  08 09 0A 0B 0C 0D 0E 0F
      -- -- -- -- -- -- -- --  -- -- -- -- -- -- -- --
0000:             00                                        .           
```

#### Opcodes

```
  0: 0x0004 [0x00] END_REQSTACK()
```

### Event 18

#### Metadata

| Field        | Value   |
|--------------|---------|
| Entrypoint   | 0x0005  |
| Data Size    | 1 bytes |
| Instructions | 1       |

```
      00 01 02 03 04 05 06 07  08 09 0A 0B 0C 0D 0E 0F
      -- -- -- -- -- -- -- --  -- -- -- -- -- -- -- --
0000:                00                                      .          
```

#### Opcodes

```
  0: 0x0005 [0x00] END_REQSTACK()
```

### Event 19

#### Metadata

| Field        | Value   |
|--------------|---------|
| Entrypoint   | 0x0006  |
| Data Size    | 1 bytes |
| Instructions | 1       |

```
      00 01 02 03 04 05 06 07  08 09 0A 0B 0C 0D 0E 0F
      -- -- -- -- -- -- -- --  -- -- -- -- -- -- -- --
0000:                   00                                    .         
```

#### Opcodes

```
  0: 0x0006 [0x00] END_REQSTACK()
```

### Event 17

#### Metadata

| Field        | Value   |
|--------------|---------|
| Entrypoint   | 0x0007  |
| Data Size    | 1 bytes |
| Instructions | 1       |

```
      00 01 02 03 04 05 06 07  08 09 0A 0B 0C 0D 0E 0F
      -- -- -- -- -- -- -- --  -- -- -- -- -- -- -- --
0000:                      00                                  .        
```

#### Opcodes

```
  0: 0x0007 [0x00] END_REQSTACK()
```

### Event 25

#### Metadata

| Field        | Value   |
|--------------|---------|
| Entrypoint   | 0x0008  |
| Data Size    | 1 bytes |
| Instructions | 1       |

```
      00 01 02 03 04 05 06 07  08 09 0A 0B 0C 0D 0E 0F
      -- -- -- -- -- -- -- --  -- -- -- -- -- -- -- --
0000:                          00                               .       
```

#### Opcodes

```
  0: 0x0008 [0x00] END_REQSTACK()
```

### Event 26

#### Metadata

| Field        | Value   |
|--------------|---------|
| Entrypoint   | 0x0009  |
| Data Size    | 1 bytes |
| Instructions | 1       |

```
      00 01 02 03 04 05 06 07  08 09 0A 0B 0C 0D 0E 0F
      -- -- -- -- -- -- -- --  -- -- -- -- -- -- -- --
0000:                             00                             .      
```

#### Opcodes

```
  0: 0x0009 [0x00] END_REQSTACK()
```

### Event 65535.1

#### Metadata

| Field        | Value    |
|--------------|----------|
| Entrypoint   | 0x000A   |
| Data Size    | 10 bytes |
| Instructions | 2        |

```
      00 01 02 03 04 05 06 07  08 09 0A 0B 0C 0D 0E 0F
      -- -- -- -- -- -- -- --  -- -- -- -- -- -- -- --
0000:                                6C 56 83 08 01 00            lV....
0010: 80 01 80 00                                       ....            
```

#### Opcodes

```
  0: 0x000A [0x6C] FADE_ENTITY_COLOR(entity_id=Unnamed NPC (ID: 17335126/0x01088356), end_alpha=0*, fade_time=120*)
  1: 0x0013 [0x00] END_REQSTACK()
```

### Event 65535.2

#### Metadata

| Field        | Value    |
|--------------|----------|
| Entrypoint   | 0x0014   |
| Data Size    | 10 bytes |
| Instructions | 2        |

```
      00 01 02 03 04 05 06 07  08 09 0A 0B 0C 0D 0E 0F
      -- -- -- -- -- -- -- --  -- -- -- -- -- -- -- --
0010:             6C 56 83 08  01 02 80 03 80 00            lV........  
```

#### Opcodes

```
  0: 0x0014 [0x6C] FADE_ENTITY_COLOR(entity_id=Unnamed NPC (ID: 17335126/0x01088356), end_alpha=127*, fade_time=60*)
  1: 0x001D [0x00] END_REQSTACK()
```

### Event 65535.3

#### Metadata

| Field        | Value    |
|--------------|----------|
| Entrypoint   | 0x001E   |
| Data Size    | 10 bytes |
| Instructions | 2        |

```
      00 01 02 03 04 05 06 07  08 09 0A 0B 0C 0D 0E 0F
      -- -- -- -- -- -- -- --  -- -- -- -- -- -- -- --
0010:                                            6C 5A                lZ
0020: 83 08 01 00 80 04 80 00                           ........        
```

#### Opcodes

```
  0: 0x001E [0x6C] FADE_ENTITY_COLOR(entity_id=Portentous Woman (ID: 17335130/0x0108835A), end_alpha=0*, fade_time=1*)
  1: 0x0027 [0x00] END_REQSTACK()
```

### Event 65535.4

#### Metadata

| Field        | Value    |
|--------------|----------|
| Entrypoint   | 0x0028   |
| Data Size    | 10 bytes |
| Instructions | 2        |

```
      00 01 02 03 04 05 06 07  08 09 0A 0B 0C 0D 0E 0F
      -- -- -- -- -- -- -- --  -- -- -- -- -- -- -- --
0020:                          6C 5A 83 08 01 02 80 04          lZ......
0030: 80 00                                             ..              
```

#### Opcodes

```
  0: 0x0028 [0x6C] FADE_ENTITY_COLOR(entity_id=Portentous Woman (ID: 17335130/0x0108835A), end_alpha=127*, fade_time=1*)
  1: 0x0031 [0x00] END_REQSTACK()
```

### Event 65535.5

#### Metadata

| Field        | Value    |
|--------------|----------|
| Entrypoint   | 0x0032   |
| Data Size    | 10 bytes |
| Instructions | 2        |

```
      00 01 02 03 04 05 06 07  08 09 0A 0B 0C 0D 0E 0F
      -- -- -- -- -- -- -- --  -- -- -- -- -- -- -- --
0030:       6C 70 83 08 01 00  80 04 80 00                lp........    
```

#### Opcodes

```
  0: 0x0032 [0x6C] FADE_ENTITY_COLOR(entity_id=Lady Lilith (ID: 17335152/0x01088370), end_alpha=0*, fade_time=1*)
  1: 0x003B [0x00] END_REQSTACK()
```

### Event 65535.6

#### Metadata

| Field        | Value    |
|--------------|----------|
| Entrypoint   | 0x003C   |
| Data Size    | 10 bytes |
| Instructions | 2        |

```
      00 01 02 03 04 05 06 07  08 09 0A 0B 0C 0D 0E 0F
      -- -- -- -- -- -- -- --  -- -- -- -- -- -- -- --
0030:                                      6C 70 83 08              lp..
0040: 01 02 80 04 80 00                                 ......          
```

#### Opcodes

```
  0: 0x003C [0x6C] FADE_ENTITY_COLOR(entity_id=Lady Lilith (ID: 17335152/0x01088370), end_alpha=127*, fade_time=1*)
  1: 0x0045 [0x00] END_REQSTACK()
```

### Event 65535.7

#### Metadata

| Field        | Value    |
|--------------|----------|
| Entrypoint   | 0x0046   |
| Data Size    | 10 bytes |
| Instructions | 2        |

```
      00 01 02 03 04 05 06 07  08 09 0A 0B 0C 0D 0E 0F
      -- -- -- -- -- -- -- --  -- -- -- -- -- -- -- --
0040:                   6C 54  83 08 01 00 80 04 80 00        lT........
```

#### Opcodes

```
  0: 0x0046 [0x6C] FADE_ENTITY_COLOR(entity_id=Lilisette (ID: 17335124/0x01088354), end_alpha=0*, fade_time=1*)
  1: 0x004F [0x00] END_REQSTACK()
```

### Event 65535.8

#### Metadata

| Field        | Value    |
|--------------|----------|
| Entrypoint   | 0x0050   |
| Data Size    | 10 bytes |
| Instructions | 2        |

```
      00 01 02 03 04 05 06 07  08 09 0A 0B 0C 0D 0E 0F
      -- -- -- -- -- -- -- --  -- -- -- -- -- -- -- --
0050: 6C 54 83 08 01 02 80 04  80 00                    lT........      
```

#### Opcodes

```
  0: 0x0050 [0x6C] FADE_ENTITY_COLOR(entity_id=Lilisette (ID: 17335124/0x01088354), end_alpha=127*, fade_time=1*)
  1: 0x0059 [0x00] END_REQSTACK()
```

### Event 65535.9

#### Metadata

| Field        | Value    |
|--------------|----------|
| Entrypoint   | 0x005A   |
| Data Size    | 18 bytes |
| Instructions | 2        |

```
      00 01 02 03 04 05 06 07  08 09 0A 0B 0C 0D 0E 0F
      -- -- -- -- -- -- -- --  -- -- -- -- -- -- -- --
0050:                                C5 05 80 54 83 08            ...T..
0060: 01 54 83 08 01 73 74 30  31 00 80 00              .T...st01...    
```

#### Opcodes

```
  0: 0x005A [0xC5] LOAD_SCHEDULED_TASK_ALT3: Load scheduler 0x80003130 for entities [Lilisette (ID: 17335124/0x01088354), Lilisette (ID: 17335124/0x01088354)], work=148*, param=29811
  1: 0x006B [0x00] END_REQSTACK()
```

### Event 65535.10

#### Metadata

| Field        | Value    |
|--------------|----------|
| Entrypoint   | 0x006C   |
| Data Size    | 18 bytes |
| Instructions | 2        |

```
      00 01 02 03 04 05 06 07  08 09 0A 0B 0C 0D 0E 0F
      -- -- -- -- -- -- -- --  -- -- -- -- -- -- -- --
0060:                                      C5 05 80 55              ...U
0070: 83 08 01 55 83 08 01 73  74 30 36 00 80 00        ...U...st06...  
```

#### Opcodes

```
  0: 0x006C [0xC5] LOAD_SCHEDULED_TASK_ALT3: Load scheduler 0x80003630 for entities [Portia (ID: 17335125/0x01088355), Portia (ID: 17335125/0x01088355)], work=148*, param=29811
  1: 0x007D [0x00] END_REQSTACK()
```

### Event 65535.11

#### Metadata

| Field        | Value    |
|--------------|----------|
| Entrypoint   | 0x007E   |
| Data Size    | 38 bytes |
| Instructions | 4        |

```
      00 01 02 03 04 05 06 07  08 09 0A 0B 0C 0D 0E 0F
      -- -- -- -- -- -- -- --  -- -- -- -- -- -- -- --
0070:                                            C5 05                ..
0080: 80 54 83 08 01 54 83 08  01 73 74 30 31 00 80 1C  .T...T...st01...
0090: 06 80 C5 05 80 55 83 08  01 55 83 08 01 73 74 30  .....U...U...st0
00A0: 36 00 80 00                                       6...            
```

#### Opcodes

```
  0: 0x007E [0xC5] LOAD_SCHEDULED_TASK_ALT3: Load scheduler 0x80003130 for entities [Lilisette (ID: 17335124/0x01088354), Lilisette (ID: 17335124/0x01088354)], work=148*, param=29811
  1: 0x008F [0x1C] WAIT(30* ticks)
  2: 0x0092 [0xC5] LOAD_SCHEDULED_TASK_ALT3: Load scheduler 0x80003630 for entities [Portia (ID: 17335125/0x01088355), Portia (ID: 17335125/0x01088355)], work=148*, param=29811
  3: 0x00A3 [0x00] END_REQSTACK()
```

### Event 65535.12

#### Metadata

| Field        | Value    |
|--------------|----------|
| Entrypoint   | 0x00A4   |
| Data Size    | 38 bytes |
| Instructions | 4        |

```
      00 01 02 03 04 05 06 07  08 09 0A 0B 0C 0D 0E 0F
      -- -- -- -- -- -- -- --  -- -- -- -- -- -- -- --
00A0:             1C 07 80 C5  05 80 54 83 08 01 54 83      ......T...T.
00B0: 08 01 73 74 30 32 00 80  C5 05 80 54 83 08 01 54  ..st02.....T...T
00C0: 83 08 01 73 65 30 30 00  80 00                    ...se00...      
```

#### Opcodes

```
  0: 0x00A4 [0x1C] WAIT(180* ticks)
  1: 0x00A7 [0xC5] LOAD_SCHEDULED_TASK_ALT3: Load scheduler 0x80003230 for entities [Lilisette (ID: 17335124/0x01088354), Lilisette (ID: 17335124/0x01088354)], work=148*, param=29811
  2: 0x00B8 [0xC5] LOAD_SCHEDULED_TASK_ALT3: Load scheduler 0x80003030 for entities [Lilisette (ID: 17335124/0x01088354), Lilisette (ID: 17335124/0x01088354)], work=148*, param=25971
  3: 0x00C9 [0x00] END_REQSTACK()
```

### Event 65535.13

#### Metadata

| Field        | Value    |
|--------------|----------|
| Entrypoint   | 0x00CA   |
| Data Size    | 21 bytes |
| Instructions | 3        |

```
      00 01 02 03 04 05 06 07  08 09 0A 0B 0C 0D 0E 0F
      -- -- -- -- -- -- -- --  -- -- -- -- -- -- -- --
00C0:                                1C 08 80 C5 05 80            ......
00D0: 54 83 08 01 54 83 08 01  73 74 30 33 00 80 00     T...T...st03... 
```

#### Opcodes

```
  0: 0x00CA [0x1C] WAIT(115* ticks)
  1: 0x00CD [0xC5] LOAD_SCHEDULED_TASK_ALT3: Load scheduler 0x80003330 for entities [Lilisette (ID: 17335124/0x01088354), Lilisette (ID: 17335124/0x01088354)], work=148*, param=29811
  2: 0x00DE [0x00] END_REQSTACK()
```

### Event 65535.14

#### Metadata

| Field        | Value    |
|--------------|----------|
| Entrypoint   | 0x00DF   |
| Data Size    | 21 bytes |
| Instructions | 3        |

```
      00 01 02 03 04 05 06 07  08 09 0A 0B 0C 0D 0E 0F
      -- -- -- -- -- -- -- --  -- -- -- -- -- -- -- --
00D0:                                               1C                 .
00E0: 09 80 C5 05 80 54 83 08  01 54 83 08 01 73 74 30  .....T...T...st0
00F0: 34 00 80 00                                       4...            
```

#### Opcodes

```
  0: 0x00DF [0x1C] WAIT(80* ticks)
  1: 0x00E2 [0xC5] LOAD_SCHEDULED_TASK_ALT3: Load scheduler 0x80003430 for entities [Lilisette (ID: 17335124/0x01088354), Lilisette (ID: 17335124/0x01088354)], work=148*, param=29811
  2: 0x00F3 [0x00] END_REQSTACK()
```

### Event 65535.15

#### Metadata

| Field        | Value    |
|--------------|----------|
| Entrypoint   | 0x00F4   |
| Data Size    | 38 bytes |
| Instructions | 4        |

```
      00 01 02 03 04 05 06 07  08 09 0A 0B 0C 0D 0E 0F
      -- -- -- -- -- -- -- --  -- -- -- -- -- -- -- --
00F0:             1C 0A 80 C5  05 80 54 83 08 01 54 83      ......T...T.
0100: 08 01 73 74 30 35 00 80  C5 05 80 54 83 08 01 54  ..st05.....T...T
0110: 83 08 01 73 65 30 30 00  80 00                    ...se00...      
```

#### Opcodes

```
  0: 0x00F4 [0x1C] WAIT(172* ticks)
  1: 0x00F7 [0xC5] LOAD_SCHEDULED_TASK_ALT3: Load scheduler 0x80003530 for entities [Lilisette (ID: 17335124/0x01088354), Lilisette (ID: 17335124/0x01088354)], work=148*, param=29811
  2: 0x0108 [0xC5] LOAD_SCHEDULED_TASK_ALT3: Load scheduler 0x80003030 for entities [Lilisette (ID: 17335124/0x01088354), Lilisette (ID: 17335124/0x01088354)], work=148*, param=25971
  3: 0x0119 [0x00] END_REQSTACK()
```

### Event 65535.16

#### Metadata

| Field        | Value    |
|--------------|----------|
| Entrypoint   | 0x011A   |
| Data Size    | 13 bytes |
| Instructions | 3        |

```
      00 01 02 03 04 05 06 07  08 09 0A 0B 0C 0D 0E 0F
      -- -- -- -- -- -- -- --  -- -- -- -- -- -- -- --
0110:                                1C 09 80 6C 59 83            ...lY.
0120: 08 01 00 80 04 80 00                              .......         
```

#### Opcodes

```
  0: 0x011A [0x1C] WAIT(80* ticks)
  1: 0x011D [0x6C] FADE_ENTITY_COLOR(entity_id=Cait Sith Ceithir (ID: 17335129/0x01088359), end_alpha=0*, fade_time=1*)
  2: 0x0126 [0x00] END_REQSTACK()
```

### Event 65535.17

#### Metadata

| Field        | Value    |
|--------------|----------|
| Entrypoint   | 0x0127   |
| Data Size    | 41 bytes |
| Instructions | 5        |

```
      00 01 02 03 04 05 06 07  08 09 0A 0B 0C 0D 0E 0F
      -- -- -- -- -- -- -- --  -- -- -- -- -- -- -- --
0120:                      1C  0B 80 9F 02 80 F8 FF FF         .........
0130: 7F F8 FF FF 7F 73 74 72  30 00 80 1C 03 80 9F 02  .....str0.......
0140: 80 F8 FF FF 7F F8 FF FF  7F 6B 69 6C 6C 00 80 00  .........kill...
```

#### Opcodes

```
  0: 0x0127 [0x1C] WAIT(150* ticks)
  1: 0x012A [0x9F] LOAD_SCHEDULED_TASK_ALT: Load scheduler "str0" with entities [EventEntity, EventEntity], work=[127*, 0*]
  2: 0x013B [0x1C] WAIT(60* ticks)
  3: 0x013E [0x9F] LOAD_SCHEDULED_TASK_ALT: Load scheduler "kill" with entities [EventEntity, EventEntity], work=[127*, 0*]
  4: 0x014F [0x00] END_REQSTACK()
```

### Event 65535.18

#### Metadata

| Field        | Value    |
|--------------|----------|
| Entrypoint   | 0x0150   |
| Data Size    | 10 bytes |
| Instructions | 2        |

```
      00 01 02 03 04 05 06 07  08 09 0A 0B 0C 0D 0E 0F
      -- -- -- -- -- -- -- --  -- -- -- -- -- -- -- --
0150: 6C F0 FF FF 7F 00 80 01  80 00                    l.........      
```

#### Opcodes

```
  0: 0x0150 [0x6C] FADE_ENTITY_COLOR(entity_id=LocalPlayer, end_alpha=0*, fade_time=120*)
  1: 0x0159 [0x00] END_REQSTACK()
```

### Event 65535.19

#### Metadata

| Field        | Value     |
|--------------|-----------|
| Entrypoint   | 0x015A    |
| Data Size    | 118 bytes |
| Instructions | 12        |

```
      00 01 02 03 04 05 06 07  08 09 0A 0B 0C 0D 0E 0F
      -- -- -- -- -- -- -- --  -- -- -- -- -- -- -- --
0150:                                9F 02 80 F8 FF FF            ......
0160: 7F F8 FF FF 7F 73 74 72  30 00 80 1C 06 80 9F 02  .....str0.......
0170: 80 F8 FF FF 7F F8 FF FF  7F 6B 69 6C 6C 00 80 1C  .........kill...
0180: 0C 80 9F 02 80 F8 FF FF  7F F8 FF FF 7F 73 74 72  .............str
0190: 30 00 80 1C 0D 80 9F 02  80 F8 FF FF 7F F8 FF FF  0...............
01A0: 7F 6B 69 6C 6C 00 80 1C  0E 80 9F 02 80 F8 FF FF  .kill...........
01B0: 7F F8 FF FF 7F 73 74 72  30 00 80 1C 0F 80 9F 02  .....str0.......
01C0: 80 F8 FF FF 7F F8 FF FF  7F 6B 69 6C 6C 00 80 00  .........kill...
```

#### Opcodes

```
  0: 0x015A [0x9F] LOAD_SCHEDULED_TASK_ALT: Load scheduler "str0" with entities [EventEntity, EventEntity], work=[127*, 0*]
  1: 0x016B [0x1C] WAIT(30* ticks)
  2: 0x016E [0x9F] LOAD_SCHEDULED_TASK_ALT: Load scheduler "kill" with entities [EventEntity, EventEntity], work=[127*, 0*]
  3: 0x017F [0x1C] WAIT(15* ticks)
  4: 0x0182 [0x9F] LOAD_SCHEDULED_TASK_ALT: Load scheduler "str0" with entities [EventEntity, EventEntity], work=[127*, 0*]
  5: 0x0193 [0x1C] WAIT(45* ticks)
  6: 0x0196 [0x9F] LOAD_SCHEDULED_TASK_ALT: Load scheduler "kill" with entities [EventEntity, EventEntity], work=[127*, 0*]
  7: 0x01A7 [0x1C] WAIT(5* ticks)
  8: 0x01AA [0x9F] LOAD_SCHEDULED_TASK_ALT: Load scheduler "str0" with entities [EventEntity, EventEntity], work=[127*, 0*]
  9: 0x01BB [0x1C] WAIT(20* ticks)
 10: 0x01BE [0x9F] LOAD_SCHEDULED_TASK_ALT: Load scheduler "kill" with entities [EventEntity, EventEntity], work=[127*, 0*]
 11: 0x01CF [0x00] END_REQSTACK()
```
