# 17335011

## Common Data

| Field            | Value                            |
|------------------|----------------------------------|
| Zone             | Beaucedine Glacier [S] (ID: 136) |
| Block Size       | 100 bytes                        |
| Total Events     | 5                                |
| References Count | 7                                |

## List of Events

| Event ID                 | Entrypoint   |   Size |   Instructions |
|--------------------------|--------------|--------|----------------|
| [65535](#event-65535)    | 0x0000       |      1 |              1 |
| [7](#event-7)            | 0x0001       |      1 |              1 |
| [65535.1](#event-655351) | 0x0002       |     22 |              6 |
| [65535.2](#event-655352) | 0x0018       |      7 |              3 |
| [65535.3](#event-655353) | 0x001F       |      5 |              2 |

## DAT References (imed_data)

|   Index | Hex Value   |   Dec Value |
|---------|-------------|-------------|
|       0 | 0x0028      |          40 |
|       1 | 0xFFFBD690  |  4294694544 |
|       2 | 0xFFFB4499  |  4294657177 |
|       3 | 0xFFFF6470  |  4294927472 |
|       4 | 0x001E      |          30 |
|       5 | 0x004A      |          74 |
|       6 | 0x0000      |           0 |

## Events

### Event 65535

#### Metadata

| Field        | Value   |
|--------------|---------|
| Entrypoint   | 0x0000  |
| Data Size    | 1 bytes |
| Instructions | 1       |

```
      00 01 02 03 04 05 06 07  08 09 0A 0B 0C 0D 0E 0F
      -- -- -- -- -- -- -- --  -- -- -- -- -- -- -- --
0000: 00                                                .               
```

#### Opcodes

```
  0: 0x0000 [0x00] END_REQSTACK()
```

### Event 7

#### Metadata

| Field        | Value   |
|--------------|---------|
| Entrypoint   | 0x0001  |
| Data Size    | 1 bytes |
| Instructions | 1       |

```
      00 01 02 03 04 05 06 07  08 09 0A 0B 0C 0D 0E 0F
      -- -- -- -- -- -- -- --  -- -- -- -- -- -- -- --
0000:    00                                              .              
```

#### Opcodes

```
  0: 0x0001 [0x00] END_REQSTACK()
```

### Event 65535.1

#### Metadata

| Field        | Value    |
|--------------|----------|
| Entrypoint   | 0x0002   |
| Data Size    | 22 bytes |
| Instructions | 6        |

```
      00 01 02 03 04 05 06 07  08 09 0A 0B 0C 0D 0E 0F
      -- -- -- -- -- -- -- --  -- -- -- -- -- -- -- --
0000:       32 00 80 1F 00 01  80 02 80 03 80 1F 01 1E    2.............
0010: DD 82 08 01 1C 04 80 00                           ........        
```

#### Opcodes

```
  0: 0x0002 [0x32] ExtData[1]->MainSpeed = 40* * 0.1
  1: 0x0005 [0x1F] MOVE_ENTITY: EventEntity moves to X=-272.752*, Z=-310.119*, Y=-39.824*
  2: 0x000D [0x1F] MOVE_ENTITY: Update entity position (mode=1)
  3: 0x000F [0x1E] EventEntity looks at Zeid (ID: 17335005/0x010882DD) and starts talking
  4: 0x0014 [0x1C] WAIT(30* ticks)
  5: 0x0017 [0x00] END_REQSTACK()
```

### Event 65535.2

#### Metadata

| Field        | Value   |
|--------------|---------|
| Entrypoint   | 0x0018  |
| Data Size    | 7 bytes |
| Instructions | 3       |

```
      00 01 02 03 04 05 06 07  08 09 0A 0B 0C 0D 0E 0F
      -- -- -- -- -- -- -- --  -- -- -- -- -- -- -- --
0010:                          B6 08 05 80 A5 01 00             ....... 
```

#### Opcodes

```
  0: 0x0018 [0xB6] ENTITY_APPEARANCE_HANDLER(case=Main, value=74*)
  1: 0x001C [0xA5] EventEntity->Flags3.BallistaTeam |= 0x08  // Set bit 3 of BallistaTeam
  2: 0x001E [0x00] END_REQSTACK()
```

### Event 65535.3

#### Metadata

| Field        | Value   |
|--------------|---------|
| Entrypoint   | 0x001F  |
| Data Size    | 5 bytes |
| Instructions | 2       |

```
      00 01 02 03 04 05 06 07  08 09 0A 0B 0C 0D 0E 0F
      -- -- -- -- -- -- -- --  -- -- -- -- -- -- -- --
0010:                                               B6                 .
0020: 08 06 80 00                                       ....            
```

#### Opcodes

```
  0: 0x001F [0xB6] ENTITY_APPEARANCE_HANDLER(case=Main, value=0*)
  1: 0x0023 [0x00] END_REQSTACK()
```
