# 17335080

## Common Data

| Field            | Value                            |
|------------------|----------------------------------|
| Zone             | Beaucedine Glacier [S] (ID: 136) |
| Block Size       | 160 bytes                        |
| Total Events     | 6                                |
| References Count | 14                               |

## List of Events

| Event ID                 | Entrypoint   |   Size |   Instructions |
|--------------------------|--------------|--------|----------------|
| [29](#event-29)          | 0x0000       |      1 |              1 |
| [65535](#event-65535)    | 0x0001       |     10 |              2 |
| [65535.1](#event-655351) | 0x000B       |     10 |              2 |
| [65535.2](#event-655352) | 0x0015       |     21 |              2 |
| [65535.3](#event-655353) | 0x002A       |     21 |              2 |

## DAT References (imed_data)

|   Index | Hex Value   |   Dec Value |
|---------|-------------|-------------|
|       0 | 0x0080      |         128 |
|       1 | 0x0001      |           1 |
|       2 | 0x0000      |           0 |
|       3 | 0x0004      |           4 |
|       4 | 0x0005      |           5 |
|       5 | 0x0097      |         151 |
|       6 | 0x0028      |          40 |
|       7 | 0x015C      |         348 |
|       8 | 0x0003      |           3 |
|       9 | 0x000D      |          13 |
|      10 | 0x00DD      |         221 |
|      11 | 0x000C      |          12 |
|      12 | 0x00FB      |         251 |
|      13 | 0x001B      |          27 |

## Events

### Event 29

#### Metadata

| Field        | Value   |
|--------------|---------|
| Entrypoint   | 0x0000  |
| Data Size    | 1 bytes |
| Instructions | 1       |

```
      00 01 02 03 04 05 06 07  08 09 0A 0B 0C 0D 0E 0F
      -- -- -- -- -- -- -- --  -- -- -- -- -- -- -- --
0000: 00                                                .               
```

#### Opcodes

```
  0: 0x0000 [0x00] END_REQSTACK()
```

### Event 65535

#### Metadata

| Field        | Value    |
|--------------|----------|
| Entrypoint   | 0x0001   |
| Data Size    | 10 bytes |
| Instructions | 2        |

```
      00 01 02 03 04 05 06 07  08 09 0A 0B 0C 0D 0E 0F
      -- -- -- -- -- -- -- --  -- -- -- -- -- -- -- --
0000:    6C 28 83 08 01 00 80  01 80 00                  l(........     
```

#### Opcodes

```
  0: 0x0001 [0x6C] FADE_ENTITY_COLOR(entity_id=Unnamed NPC (ID: 17335080/0x01088328), end_alpha=128*, fade_time=1*)
  1: 0x000A [0x00] END_REQSTACK()
```

### Event 65535.1

#### Metadata

| Field        | Value    |
|--------------|----------|
| Entrypoint   | 0x000B   |
| Data Size    | 10 bytes |
| Instructions | 2        |

```
      00 01 02 03 04 05 06 07  08 09 0A 0B 0C 0D 0E 0F
      -- -- -- -- -- -- -- --  -- -- -- -- -- -- -- --
0000:                                   6C 28 83 08 01             l(...
0010: 02 80 01 80 00                                    .....           
```

#### Opcodes

```
  0: 0x000B [0x6C] FADE_ENTITY_COLOR(entity_id=Unnamed NPC (ID: 17335080/0x01088328), end_alpha=0*, fade_time=1*)
  1: 0x0014 [0x00] END_REQSTACK()
```

### Event 65535.2

#### Metadata

| Field        | Value    |
|--------------|----------|
| Entrypoint   | 0x0015   |
| Data Size    | 21 bytes |
| Instructions | 2        |

```
      00 01 02 03 04 05 06 07  08 09 0A 0B 0C 0D 0E 0F
      -- -- -- -- -- -- -- --  -- -- -- -- -- -- -- --
0010:                B6 0B 03  80 04 80 05 80 06 80 05       ...........
0020: 80 05 80 05 80 07 80 02  80 00                    ..........      
```

#### Opcodes

```
  0: 0x0015 [0xB6] ENTITY_APPEARANCE_HANDLER(case=Full entity look, race=4*, hair=5*, head=151*, body=40*, hands=151*, legs=151*, feet=151*, main=348*, sub=0*)
  1: 0x0029 [0x00] END_REQSTACK()
```

### Event 65535.3

#### Metadata

| Field        | Value    |
|--------------|----------|
| Entrypoint   | 0x002A   |
| Data Size    | 21 bytes |
| Instructions | 2        |

```
      00 01 02 03 04 05 06 07  08 09 0A 0B 0C 0D 0E 0F
      -- -- -- -- -- -- -- --  -- -- -- -- -- -- -- --
0020:                                B6 0B 08 80 03 80            ......
0030: 09 80 0A 80 09 80 0B 80  0A 80 0C 80 0D 80 00     ............... 
```

#### Opcodes

```
  0: 0x002A [0xB6] ENTITY_APPEARANCE_HANDLER(case=Full entity look, race=3*, hair=4*, head=13*, body=221*, hands=13*, legs=12*, feet=221*, main=251*, sub=27*)
  1: 0x003E [0x00] END_REQSTACK()
```
