# 17335017

## Common Data

| Field            | Value                            |
|------------------|----------------------------------|
| Zone             | Beaucedine Glacier [S] (ID: 136) |
| Block Size       | 1768 bytes                       |
| Total Events     | 24                               |
| References Count | 105                              |

## List of Events

| Event ID                   | Entrypoint   |   Size |   Instructions |
|----------------------------|--------------|--------|----------------|
| [65535](#event-65535)      | 0x0000       |      1 |              1 |
| [65535.1](#event-655351)   | 0x0001       |      1 |              1 |
| [65535.2](#event-655352)   | 0x0002       |     18 |              4 |
| [65535.3](#event-655353)   | 0x0014       |     10 |              2 |
| [65535.4](#event-655354)   | 0x001E       |      9 |              3 |
| [65535.5](#event-655355)   | 0x0027       |      9 |              3 |
| [65535.6](#event-655356)   | 0x0030       |     10 |              2 |
| [65535.7](#event-655357)   | 0x003A       |     10 |              2 |
| [2](#event-2)              | 0x0044       |      1 |              1 |
| [65535.8](#event-655358)   | 0x0045       |     38 |              4 |
| [17](#event-17)            | 0x006B       |      1 |              1 |
| [65535.9](#event-655359)   | 0x006C       |      3 |              2 |
| [65535.10](#event-6553510) | 0x006F       |      3 |              2 |
| [65535.11](#event-6553511) | 0x0072       |    124 |             14 |
| [19](#event-19)            | 0x00EE       |      1 |              1 |
| [65535.12](#event-6553512) | 0x00EF       |    170 |             14 |
| [65535.13](#event-6553513) | 0x0199       |    196 |             16 |
| [65535.14](#event-6553514) | 0x025D       |      4 |              2 |
| [6](#event-6)              | 0x0261       |      1 |              1 |
| [65535.15](#event-6553515) | 0x0262       |     81 |              9 |
| [65535.16](#event-6553516) | 0x02B3       |    138 |             12 |
| [65535.17](#event-6553517) | 0x033D       |    138 |             12 |
| [65535.18](#event-6553518) | 0x03C7       |    136 |             14 |
| [65535.19](#event-6553519) | 0x044F       |    130 |             12 |

## DAT References (imed_data)

|   Index | Hex Value   |   Dec Value |
|---------|-------------|-------------|
|       0 | 0x0000      |           0 |
|       1 | 0x0001      |           1 |
|       2 | 0x0080      |         128 |
|       3 | 0x007F      |         127 |
|       4 | 0x003C      |          60 |
|       5 | 0x0962      |        2402 |
|       6 | 0x000A      |          10 |
|       7 | 0x0005      |           5 |
|       8 | 0xE842      |       59458 |
|       9 | 0x147DB     |       83931 |
|      10 | 0xFFFF678D  |  4294928269 |
|      11 | 0x0CDF      |        3295 |
|      12 | 0x10AD2     |       68306 |
|      13 | 0x12421     |       74785 |
|      14 | 0xFFFF64B6  |  4294927542 |
|      15 | 0x0536      |        1334 |
|      16 | 0xEC0F      |       60431 |
|      17 | 0x12BFC     |       76796 |
|      18 | 0xFFFF6792  |  4294928274 |
|      19 | 0x0FA2      |        4002 |
|      20 | 0xD262      |       53858 |
|      21 | 0x144CD     |       83149 |
|      22 | 0xFFFF6607  |  4294927879 |
|      23 | 0x0958      |        2392 |
|      24 | 0x10DAC     |       69036 |
|      25 | 0x112C1     |       70337 |
|      26 | 0xFFFF63C1  |  4294927297 |
|      27 | 0x068E      |        1678 |
|      28 | 0xC172      |       49522 |
|      29 | 0x1123A     |       70202 |
|      30 | 0xFFFF661A  |  4294927898 |
|      31 | 0x0F2D      |        3885 |
|      32 | 0x10D80     |       68992 |
|      33 | 0x10701     |       67329 |
|      34 | 0xFFFF63FE  |  4294927358 |
|      35 | 0x0398      |         920 |
|      36 | 0xE967      |       59751 |
|      37 | 0xF74F      |       63311 |
|      38 | 0xFFFF6493  |  4294927507 |
|      39 | 0x0CDE      |        3294 |
|      40 | 0xE64B      |       58955 |
|      41 | 0x11731     |       71473 |
|      42 | 0xFFFF6691  |  4294928017 |
|      43 | 0x10FBB     |       69563 |
|      44 | 0x147F5     |       83957 |
|      45 | 0xFFFF6500  |  4294927616 |
|      46 | 0x11780     |       71552 |
|      47 | 0x13033     |       77875 |
|      48 | 0xFFFF6885  |  4294928517 |
|      49 | 0x02BE      |         702 |
|      50 | 0xDA0D      |       55821 |
|      51 | 0x14B11     |       84753 |
|      52 | 0xFFFF6A50  |  4294928976 |
|      53 | 0x07D0      |        2000 |
|      54 | 0x131B2     |       78258 |
|      55 | 0x13666     |       79462 |
|      56 | 0x08DB      |        2267 |
|      57 | 0xFB4E      |       64334 |
|      58 | 0xEB1C      |       60188 |
|      59 | 0xFFFF63D3  |  4294927315 |
|      60 | 0x056A      |        1386 |
|      61 | 0x104F8     |       66808 |
|      62 | 0xEADA      |       60122 |
|      63 | 0xFFFF64D4  |  4294927572 |
|      64 | 0x0579      |        1401 |
|      65 | 0xE1B2      |       57778 |
|      66 | 0x15899     |       88217 |
|      67 | 0xFFFF6525  |  4294927653 |
|      68 | 0x0336      |         822 |
|      69 | 0xB721      |       46881 |
|      70 | 0x14F4B     |       85835 |
|      71 | 0xFFFF6395  |  4294927253 |
|      72 | 0x0E74      |        3700 |
|      73 | 0xD4AF      |       54447 |
|      74 | 0x11F5F     |       73567 |
|      75 | 0xFFFF65C8  |  4294927816 |
|      76 | 0x0349      |         841 |
|      77 | 0xBE6F      |       48751 |
|      78 | 0x10B8B     |       68491 |
|      79 | 0xD381      |       54145 |
|      80 | 0x104D8     |       66776 |
|      81 | 0xFFFF65DB  |  4294927835 |
|      82 | 0x04D7      |        1239 |
|      83 | 0xC1FF      |       49663 |
|      84 | 0x11F66     |       73574 |
|      85 | 0xFFFF6577  |  4294927735 |
|      86 | 0x0584      |        1412 |
|      87 | 0xCD2B      |       52523 |
|      88 | 0x108D8     |       67800 |
|      89 | 0xFFFF660F  |  4294927887 |
|      90 | 0x0ED1      |        3793 |
|      91 | 0xDA0C      |       55820 |
|      92 | 0x152D2     |       86738 |
|      93 | 0xFFFF6570  |  4294927728 |
|      94 | 0xC749      |       51017 |
|      95 | 0x13E33     |       81459 |
|      96 | 0xFFFF651D  |  4294927645 |
|      97 | 0x00C1      |         193 |
|      98 | 0x00D9      |         217 |
|      99 | 0x0014      |          20 |
|     100 | 0x0948      |        2376 |
|     101 | 0x0B4D      |        2893 |
|     102 | 0x0599      |        1433 |
|     103 | 0x0B49      |        2889 |
|     104 | 0x0A34      |        2612 |

## Events

### Event 65535

#### Metadata

| Field        | Value   |
|--------------|---------|
| Entrypoint   | 0x0000  |
| Data Size    | 1 bytes |
| Instructions | 1       |

```
      00 01 02 03 04 05 06 07  08 09 0A 0B 0C 0D 0E 0F
      -- -- -- -- -- -- -- --  -- -- -- -- -- -- -- --
0000: 00                                                .               
```

#### Opcodes

```
  0: 0x0000 [0x00] END_REQSTACK()
```

### Event 65535.1

#### Metadata

| Field        | Value   |
|--------------|---------|
| Entrypoint   | 0x0001  |
| Data Size    | 1 bytes |
| Instructions | 1       |

```
      00 01 02 03 04 05 06 07  08 09 0A 0B 0C 0D 0E 0F
      -- -- -- -- -- -- -- --  -- -- -- -- -- -- -- --
0000:    00                                              .              
```

#### Opcodes

```
  0: 0x0001 [0x00] END_REQSTACK()
```

### Event 65535.2

#### Metadata

| Field        | Value    |
|--------------|----------|
| Entrypoint   | 0x0002   |
| Data Size    | 18 bytes |
| Instructions | 4        |

```
      00 01 02 03 04 05 06 07  08 09 0A 0B 0C 0D 0E 0F
      -- -- -- -- -- -- -- --  -- -- -- -- -- -- -- --
0000:       22 00 2F 00 F8 FF  FF 7F 6C F8 FF FF 7F 00    "./.....l.....
0010: 80 01 80 00                                       ....            
```

#### Opcodes

```
  0: 0x0002 [0x22] ENTITY_HIDE_FLAG(enabled=0x00)
  1: 0x0004 [0x2F] EventEntity->Render.Flags0 &= ~0x80000 // Bit 19
  2: 0x000A [0x6C] FADE_ENTITY_COLOR(entity_id=EventEntity, end_alpha=0*, fade_time=1*)
  3: 0x0013 [0x00] END_REQSTACK()
```

### Event 65535.3

#### Metadata

| Field        | Value    |
|--------------|----------|
| Entrypoint   | 0x0014   |
| Data Size    | 10 bytes |
| Instructions | 2        |

```
      00 01 02 03 04 05 06 07  08 09 0A 0B 0C 0D 0E 0F
      -- -- -- -- -- -- -- --  -- -- -- -- -- -- -- --
0010:             6C F8 FF FF  7F 02 80 01 80 00            l.........  
```

#### Opcodes

```
  0: 0x0014 [0x6C] FADE_ENTITY_COLOR(entity_id=EventEntity, end_alpha=128*, fade_time=1*)
  1: 0x001D [0x00] END_REQSTACK()
```

### Event 65535.4

#### Metadata

| Field        | Value   |
|--------------|---------|
| Entrypoint   | 0x001E  |
| Data Size    | 9 bytes |
| Instructions | 3       |

```
      00 01 02 03 04 05 06 07  08 09 0A 0B 0C 0D 0E 0F
      -- -- -- -- -- -- -- --  -- -- -- -- -- -- -- --
0010:                                            22 00                ".
0020: 2F 00 F8 FF FF 7F 00                              /......         
```

#### Opcodes

```
  0: 0x001E [0x22] ENTITY_HIDE_FLAG(enabled=0x00)
  1: 0x0020 [0x2F] EventEntity->Render.Flags0 &= ~0x80000 // Bit 19
  2: 0x0026 [0x00] END_REQSTACK()
```

### Event 65535.5

#### Metadata

| Field        | Value   |
|--------------|---------|
| Entrypoint   | 0x0027  |
| Data Size    | 9 bytes |
| Instructions | 3       |

```
      00 01 02 03 04 05 06 07  08 09 0A 0B 0C 0D 0E 0F
      -- -- -- -- -- -- -- --  -- -- -- -- -- -- -- --
0020:                      22  01 2F 01 F8 FF FF 7F 00         "./......
```

#### Opcodes

```
  0: 0x0027 [0x22] ENTITY_HIDE_FLAG(enabled=0x01)
  1: 0x0029 [0x2F] EventEntity->Render.Flags0 |= 0x80000 // Bit 19
  2: 0x002F [0x00] END_REQSTACK()
```

### Event 65535.6

#### Metadata

| Field        | Value    |
|--------------|----------|
| Entrypoint   | 0x0030   |
| Data Size    | 10 bytes |
| Instructions | 2        |

```
      00 01 02 03 04 05 06 07  08 09 0A 0B 0C 0D 0E 0F
      -- -- -- -- -- -- -- --  -- -- -- -- -- -- -- --
0030: 6C F8 FF FF 7F 00 80 01  80 00                    l.........      
```

#### Opcodes

```
  0: 0x0030 [0x6C] FADE_ENTITY_COLOR(entity_id=EventEntity, end_alpha=0*, fade_time=1*)
  1: 0x0039 [0x00] END_REQSTACK()
```

### Event 65535.7

#### Metadata

| Field        | Value    |
|--------------|----------|
| Entrypoint   | 0x003A   |
| Data Size    | 10 bytes |
| Instructions | 2        |

```
      00 01 02 03 04 05 06 07  08 09 0A 0B 0C 0D 0E 0F
      -- -- -- -- -- -- -- --  -- -- -- -- -- -- -- --
0030:                                6C F8 FF FF 7F 02            l.....
0040: 80 01 80 00                                       ....            
```

#### Opcodes

```
  0: 0x003A [0x6C] FADE_ENTITY_COLOR(entity_id=EventEntity, end_alpha=128*, fade_time=1*)
  1: 0x0043 [0x00] END_REQSTACK()
```

### Event 2

#### Metadata

| Field        | Value   |
|--------------|---------|
| Entrypoint   | 0x0044  |
| Data Size    | 1 bytes |
| Instructions | 1       |

```
      00 01 02 03 04 05 06 07  08 09 0A 0B 0C 0D 0E 0F
      -- -- -- -- -- -- -- --  -- -- -- -- -- -- -- --
0040:             00                                        .           
```

#### Opcodes

```
  0: 0x0044 [0x00] END_REQSTACK()
```

### Event 65535.8

#### Metadata

| Field        | Value    |
|--------------|----------|
| Entrypoint   | 0x0045   |
| Data Size    | 38 bytes |
| Instructions | 4        |

```
      00 01 02 03 04 05 06 07  08 09 0A 0B 0C 0D 0E 0F
      -- -- -- -- -- -- -- --  -- -- -- -- -- -- -- --
0040:                9F 03 80  F8 FF FF 7F F8 FF FF 7F       ...........
0050: 73 74 72 30 00 80 1C 04  80 9F 03 80 F8 FF FF 7F  str0............
0060: F8 FF FF 7F 6B 69 6C 6C  00 80 00                 ....kill...     
```

#### Opcodes

```
  0: 0x0045 [0x9F] LOAD_SCHEDULED_TASK_ALT: Load scheduler "str0" with entities [EventEntity, EventEntity], work=[127*, 0*]
  1: 0x0056 [0x1C] WAIT(60* ticks)
  2: 0x0059 [0x9F] LOAD_SCHEDULED_TASK_ALT: Load scheduler "kill" with entities [EventEntity, EventEntity], work=[127*, 0*]
  3: 0x006A [0x00] END_REQSTACK()
```

### Event 17

#### Metadata

| Field        | Value   |
|--------------|---------|
| Entrypoint   | 0x006B  |
| Data Size    | 1 bytes |
| Instructions | 1       |

```
      00 01 02 03 04 05 06 07  08 09 0A 0B 0C 0D 0E 0F
      -- -- -- -- -- -- -- --  -- -- -- -- -- -- -- --
0060:                                   00                         .    
```

#### Opcodes

```
  0: 0x006B [0x00] END_REQSTACK()
```

### Event 65535.9

#### Metadata

| Field        | Value   |
|--------------|---------|
| Entrypoint   | 0x006C  |
| Data Size    | 3 bytes |
| Instructions | 2       |

```
      00 01 02 03 04 05 06 07  08 09 0A 0B 0C 0D 0E 0F
      -- -- -- -- -- -- -- --  -- -- -- -- -- -- -- --
0060:                                      33 01 00                 3.. 
```

#### Opcodes

```
  0: 0x006C [0x33] EventEntity->Render.Flags0 |= 0x200000 // Bit 21 (flag=0x01)
  1: 0x006E [0x00] END_REQSTACK()
```

### Event 65535.10

#### Metadata

| Field        | Value   |
|--------------|---------|
| Entrypoint   | 0x006F  |
| Data Size    | 3 bytes |
| Instructions | 2       |

```
      00 01 02 03 04 05 06 07  08 09 0A 0B 0C 0D 0E 0F
      -- -- -- -- -- -- -- --  -- -- -- -- -- -- -- --
0060:                                               33                 3
0070: 00 00                                             ..              
```

#### Opcodes

```
  0: 0x006F [0x33] EventEntity->Render.Flags0 &= ~ 0x200000 // Bit 21 (flag=0x00)
  1: 0x0071 [0x00] END_REQSTACK()
```

### Event 65535.11

#### Metadata

| Field        | Value     |
|--------------|-----------|
| Entrypoint   | 0x0072    |
| Data Size    | 124 bytes |
| Instructions | 14        |

```
      00 01 02 03 04 05 06 07  08 09 0A 0B 0C 0D 0E 0F
      -- -- -- -- -- -- -- --  -- -- -- -- -- -- -- --
0070:       5B 05 80 F2 82 08  01 F2 82 08 01 6F 73 74    [..........ost
0080: 31 1C 06 80 5B 05 80 F3  82 08 01 F3 82 08 01 6F  1...[..........o
0090: 73 74 31 1C 07 80 5B 05  80 F4 82 08 01 F4 82 08  st1...[.........
00A0: 01 6F 73 74 31 1C 06 80  5B 05 80 F5 82 08 01 F5  .ost1...[.......
00B0: 82 08 01 6F 73 74 31 1C  07 80 5B 05 80 F6 82 08  ...ost1...[.....
00C0: 01 F6 82 08 01 6F 73 74  31 1C 06 80 5B 05 80 F7  .....ost1...[...
00D0: 82 08 01 F7 82 08 01 6F  73 74 31 1C 07 80 5B 05  .......ost1...[.
00E0: 80 F8 82 08 01 F8 82 08  01 6F 73 74 31 00        .........ost1.  
```

#### Opcodes

```
  0: 0x0072 [0x5B] LOAD_EXT_SCHEDULER: Load scheduler "ost1" with entities [hei09 (ID: 17335026/0x010882F2), hei09 (ID: 17335026/0x010882F2)], work=2402*
  1: 0x0081 [0x1C] WAIT(10* ticks)
  2: 0x0084 [0x5B] LOAD_EXT_SCHEDULER: Load scheduler "ost1" with entities [hei10 (ID: 17335027/0x010882F3), hei10 (ID: 17335027/0x010882F3)], work=2402*
  3: 0x0093 [0x1C] WAIT(5* ticks)
  4: 0x0096 [0x5B] LOAD_EXT_SCHEDULER: Load scheduler "ost1" with entities [hei11 (ID: 17335028/0x010882F4), hei11 (ID: 17335028/0x010882F4)], work=2402*
  5: 0x00A5 [0x1C] WAIT(10* ticks)
  6: 0x00A8 [0x5B] LOAD_EXT_SCHEDULER: Load scheduler "ost1" with entities [hei12 (ID: 17335029/0x010882F5), hei12 (ID: 17335029/0x010882F5)], work=2402*
  7: 0x00B7 [0x1C] WAIT(5* ticks)
  8: 0x00BA [0x5B] LOAD_EXT_SCHEDULER: Load scheduler "ost1" with entities [hei13 (ID: 17335030/0x010882F6), hei13 (ID: 17335030/0x010882F6)], work=2402*
  9: 0x00C9 [0x1C] WAIT(10* ticks)
 10: 0x00CC [0x5B] LOAD_EXT_SCHEDULER: Load scheduler "ost1" with entities [hei14 (ID: 17335031/0x010882F7), hei14 (ID: 17335031/0x010882F7)], work=2402*
 11: 0x00DB [0x1C] WAIT(5* ticks)
 12: 0x00DE [0x5B] LOAD_EXT_SCHEDULER: Load scheduler "ost1" with entities [hei15 (ID: 17335032/0x010882F8), hei15 (ID: 17335032/0x010882F8)], work=2402*
 13: 0x00ED [0x00] END_REQSTACK()
```

### Event 19

#### Metadata

| Field        | Value   |
|--------------|---------|
| Entrypoint   | 0x00EE  |
| Data Size    | 1 bytes |
| Instructions | 1       |

```
      00 01 02 03 04 05 06 07  08 09 0A 0B 0C 0D 0E 0F
      -- -- -- -- -- -- -- --  -- -- -- -- -- -- -- --
00E0:                                            00                   . 
```

#### Opcodes

```
  0: 0x00EE [0x00] END_REQSTACK()
```

### Event 65535.12

#### Metadata

| Field        | Value     |
|--------------|-----------|
| Entrypoint   | 0x00EF    |
| Data Size    | 170 bytes |
| Instructions | 14        |

```
      00 01 02 03 04 05 06 07  08 09 0A 0B 0C 0D 0E 0F
      -- -- -- -- -- -- -- --  -- -- -- -- -- -- -- --
00E0:                                               BA                 .
00F0: EA 82 08 01 08 80 09 80  0A 80 0B 80 BA EB 82 08  ................
0100: 01 0C 80 0D 80 0E 80 0F  80 BA EC 82 08 01 10 80  ................
0110: 11 80 12 80 13 80 BA 0D  83 08 01 14 80 15 80 16  ................
0120: 80 17 80 BA 0E 83 08 01  18 80 19 80 1A 80 1B 80  ................
0130: BA 0F 83 08 01 1C 80 1D  80 1E 80 1F 80 BA F9 82  ................
0140: 08 01 20 80 21 80 22 80  23 80 BA FA 82 08 01 24  .. .!.".#......$
0150: 80 25 80 26 80 27 80 BA  FD 82 08 01 28 80 29 80  .%.&.'......(.).
0160: 2A 80 0B 80 BA FE 82 08  01 2B 80 2C 80 2D 80 0B  *........+.,.-..
0170: 80 BA E9 82 08 01 2E 80  2F 80 30 80 31 80 BA 08  ......../.0.1...
0180: 83 08 01 32 80 33 80 34  80 35 80 BA 09 83 08 01  ...2.3.4.5......
0190: 36 80 37 80 1A 80 38 80  00                       6.7...8..       
```

#### Opcodes

```
  0: 0x00EF [0xBA] SET_ENTITY_POSITION(entity_id=Louvairausse (ID: 17335018/0x010882EA), pos_x=59.458*, pos_z=83.931*, pos_y=-39.027*, direction=289.6°*)
  1: 0x00FC [0xBA] SET_ENTITY_POSITION(entity_id=hei02 (ID: 17335019/0x010882EB), pos_x=68.306*, pos_z=74.785*, pos_y=-39.754*, direction=117.2°*)
  2: 0x0109 [0xBA] SET_ENTITY_POSITION(entity_id=hei03 (ID: 17335020/0x010882EC), pos_x=60.431*, pos_z=76.796*, pos_y=-39.022*, direction=351.7°*)
  3: 0x0116 [0xBA] SET_ENTITY_POSITION(entity_id=nohei01 (ID: 17335053/0x0108830D), pos_x=53.858*, pos_z=83.149*, pos_y=-39.417*, direction=210.2°*)
  4: 0x0123 [0xBA] SET_ENTITY_POSITION(entity_id=nohei02 (ID: 17335054/0x0108830E), pos_x=69.036*, pos_z=70.337*, pos_y=-39.999*, direction=147.5°*)
  5: 0x0130 [0xBA] SET_ENTITY_POSITION(entity_id=nohei03 (ID: 17335055/0x0108830F), pos_x=49.522*, pos_z=70.202*, pos_y=-39.398*, direction=341.4°*)
  6: 0x013D [0xBA] SET_ENTITY_POSITION(entity_id=onoA (ID: 17335033/0x010882F9), pos_x=68.992*, pos_z=67.329*, pos_y=-39.938*, direction=80.9°*)
  7: 0x014A [0xBA] SET_ENTITY_POSITION(entity_id=onoB (ID: 17335034/0x010882FA), pos_x=59.751*, pos_z=63.311*, pos_y=-39.789*, direction=289.5°*)
  8: 0x0157 [0xBA] SET_ENTITY_POSITION(entity_id=tueA (ID: 17335037/0x010882FD), pos_x=58.955*, pos_z=71.473*, pos_y=-39.279*, direction=289.6°*)
  9: 0x0164 [0xBA] SET_ENTITY_POSITION(entity_id=tueB (ID: 17335038/0x010882FE), pos_x=69.563*, pos_z=83.957*, pos_y=-39.680*, direction=289.6°*)
 10: 0x0171 [0xBA] SET_ENTITY_POSITION(entity_id=??? (ID: 17335017/0x010882E9), pos_x=71.552*, pos_z=77.875*, pos_y=-38.779*, direction=61.7°*)
 11: 0x017E [0xBA] SET_ENTITY_POSITION(entity_id=??? (ID: 17335048/0x01088308), pos_x=55.821*, pos_z=84.753*, pos_y=-38.320*, direction=175.8°*)
 12: 0x018B [0xBA] SET_ENTITY_POSITION(entity_id=??? (ID: 17335049/0x01088309), pos_x=78.258*, pos_z=79.462*, pos_y=-39.999*, direction=199.2°*)
 13: 0x0198 [0x00] END_REQSTACK()
```

### Event 65535.13

#### Metadata

| Field        | Value     |
|--------------|-----------|
| Entrypoint   | 0x0199    |
| Data Size    | 196 bytes |
| Instructions | 16        |

```
      00 01 02 03 04 05 06 07  08 09 0A 0B 0C 0D 0E 0F
      -- -- -- -- -- -- -- --  -- -- -- -- -- -- -- --
0190:                             BA 5D 83 08 01 39 80           .]...9.
01A0: 3A 80 3B 80 3C 80 BA 5E  83 08 01 3D 80 3E 80 3F  :.;.<..^...=.>.?
01B0: 80 40 80 BA EA 82 08 01  08 80 09 80 0A 80 0B 80  .@..............
01C0: BA EB 82 08 01 41 80 42  80 43 80 44 80 BA EC 82  .....A.B.C.D....
01D0: 08 01 45 80 46 80 47 80  48 80 BA 0D 83 08 01 14  ..E.F.G.H.......
01E0: 80 15 80 16 80 17 80 BA  0E 83 08 01 49 80 4A 80  ............I.J.
01F0: 4B 80 4C 80 BA 0F 83 08  01 4D 80 4E 80 1E 80 1F  K.L......M.N....
0200: 80 BA F9 82 08 01 4F 80  50 80 51 80 52 80 BA FA  ......O.P.Q.R...
0210: 82 08 01 24 80 25 80 26  80 27 80 BA FD 82 08 01  ...$.%.&.'......
0220: 28 80 29 80 2A 80 0B 80  BA FE 82 08 01 53 80 54  (.).*........S.T
0230: 80 55 80 56 80 BA E9 82  08 01 57 80 58 80 59 80  .U.V......W.X.Y.
0240: 5A 80 BA 08 83 08 01 5B  80 5C 80 5D 80 35 80 BA  Z......[.\.].5..
0250: 09 83 08 01 5E 80 5F 80  60 80 61 80 00           ....^._.`.a..   
```

#### Opcodes

```
  0: 0x0199 [0xBA] SET_ENTITY_POSITION(entity_id=Vestillet (ID: 17335133/0x0108835D), pos_x=64.334*, pos_z=60.188*, pos_y=-39.981*, direction=121.8°*)
  1: 0x01A6 [0xBA] SET_ENTITY_POSITION(entity_id=Noillurie (ID: 17335134/0x0108835E), pos_x=66.808*, pos_z=60.122*, pos_y=-39.724*, direction=123.1°*)
  2: 0x01B3 [0xBA] SET_ENTITY_POSITION(entity_id=Louvairausse (ID: 17335018/0x010882EA), pos_x=59.458*, pos_z=83.931*, pos_y=-39.027*, direction=289.6°*)
  3: 0x01C0 [0xBA] SET_ENTITY_POSITION(entity_id=hei02 (ID: 17335019/0x010882EB), pos_x=57.778*, pos_z=88.217*, pos_y=-39.643*, direction=72.2°*)
  4: 0x01CD [0xBA] SET_ENTITY_POSITION(entity_id=hei03 (ID: 17335020/0x010882EC), pos_x=46.881*, pos_z=85.835*, pos_y=-40.043*, direction=325.2°*)
  5: 0x01DA [0xBA] SET_ENTITY_POSITION(entity_id=nohei01 (ID: 17335053/0x0108830D), pos_x=53.858*, pos_z=83.149*, pos_y=-39.417*, direction=210.2°*)
  6: 0x01E7 [0xBA] SET_ENTITY_POSITION(entity_id=nohei02 (ID: 17335054/0x0108830E), pos_x=54.447*, pos_z=73.567*, pos_y=-39.480*, direction=73.9°*)
  7: 0x01F4 [0xBA] SET_ENTITY_POSITION(entity_id=nohei03 (ID: 17335055/0x0108830F), pos_x=48.751*, pos_z=68.491*, pos_y=-39.398*, direction=341.4°*)
  8: 0x0201 [0xBA] SET_ENTITY_POSITION(entity_id=onoA (ID: 17335033/0x010882F9), pos_x=54.145*, pos_z=66.776*, pos_y=-39.461*, direction=108.9°*)
  9: 0x020E [0xBA] SET_ENTITY_POSITION(entity_id=onoB (ID: 17335034/0x010882FA), pos_x=59.751*, pos_z=63.311*, pos_y=-39.789*, direction=289.5°*)
 10: 0x021B [0xBA] SET_ENTITY_POSITION(entity_id=tueA (ID: 17335037/0x010882FD), pos_x=58.955*, pos_z=71.473*, pos_y=-39.279*, direction=289.6°*)
 11: 0x0228 [0xBA] SET_ENTITY_POSITION(entity_id=tueB (ID: 17335038/0x010882FE), pos_x=49.663*, pos_z=73.574*, pos_y=-39.561*, direction=124.1°*)
 12: 0x0235 [0xBA] SET_ENTITY_POSITION(entity_id=??? (ID: 17335017/0x010882E9), pos_x=52.523*, pos_z=67.800*, pos_y=-39.409*, direction=333.4°*)
 13: 0x0242 [0xBA] SET_ENTITY_POSITION(entity_id=??? (ID: 17335048/0x01088308), pos_x=55.820*, pos_z=86.738*, pos_y=-39.568*, direction=175.8°*)
 14: 0x024F [0xBA] SET_ENTITY_POSITION(entity_id=??? (ID: 17335049/0x01088309), pos_x=51.017*, pos_z=81.459*, pos_y=-39.651*, direction=17.0°*)
 15: 0x025C [0x00] END_REQSTACK()
```

### Event 65535.14

#### Metadata

| Field        | Value   |
|--------------|---------|
| Entrypoint   | 0x025D  |
| Data Size    | 4 bytes |
| Instructions | 2       |

```
      00 01 02 03 04 05 06 07  08 09 0A 0B 0C 0D 0E 0F
      -- -- -- -- -- -- -- --  -- -- -- -- -- -- -- --
0250:                                         1C 02 10               ...
0260: 00                                                .               
```

#### Opcodes

```
  0: 0x025D [0x1C] WAIT(Work_Zone[2] ticks)
  1: 0x0260 [0x00] END_REQSTACK()
```

### Event 6

#### Metadata

| Field        | Value   |
|--------------|---------|
| Entrypoint   | 0x0261  |
| Data Size    | 1 bytes |
| Instructions | 1       |

```
      00 01 02 03 04 05 06 07  08 09 0A 0B 0C 0D 0E 0F
      -- -- -- -- -- -- -- --  -- -- -- -- -- -- -- --
0260:    00                                              .              
```

#### Opcodes

```
  0: 0x0261 [0x00] END_REQSTACK()
```

### Event 65535.15

#### Metadata

| Field        | Value    |
|--------------|----------|
| Entrypoint   | 0x0262   |
| Data Size    | 81 bytes |
| Instructions | 9        |

```
      00 01 02 03 04 05 06 07  08 09 0A 0B 0C 0D 0E 0F
      -- -- -- -- -- -- -- --  -- -- -- -- -- -- -- --
0260:       C5 62 80 E5 82 08  01 E5 82 08 01 73 30 30    .b.........s00
0270: 30 00 80 1C 06 80 C5 62  80 E6 82 08 01 E6 82 08  0......b........
0280: 01 73 30 30 30 00 80 1C  63 80 C5 62 80 E7 82 08  .s000...c..b....
0290: 01 E7 82 08 01 73 30 30  30 00 80 1C 06 80 C5 62  .....s000......b
02A0: 80 E8 82 08 01 E8 82 08  01 73 30 30 30 00 80 1C  .........s000...
02B0: 06 80 00                                          ...             
```

#### Opcodes

```
  0: 0x0262 [0xC5] LOAD_SCHEDULED_TASK_ALT3: Load scheduler 0x80003030 for entities [Scraggy Gigas (ID: 17335013/0x010882E5), Scraggy Gigas (ID: 17335013/0x010882E5)], work=217*, param=12403
  1: 0x0273 [0x1C] WAIT(10* ticks)
  2: 0x0276 [0xC5] LOAD_SCHEDULED_TASK_ALT3: Load scheduler 0x80003030 for entities [gian02 (ID: 17335014/0x010882E6), gian02 (ID: 17335014/0x010882E6)], work=217*, param=12403
  3: 0x0287 [0x1C] WAIT(20* ticks)
  4: 0x028A [0xC5] LOAD_SCHEDULED_TASK_ALT3: Load scheduler 0x80003030 for entities [gian03 (ID: 17335015/0x010882E7), gian03 (ID: 17335015/0x010882E7)], work=217*, param=12403
  5: 0x029B [0x1C] WAIT(10* ticks)
  6: 0x029E [0xC5] LOAD_SCHEDULED_TASK_ALT3: Load scheduler 0x80003030 for entities [gian04 (ID: 17335016/0x010882E8), gian04 (ID: 17335016/0x010882E8)], work=217*, param=12403
  7: 0x02AF [0x1C] WAIT(10* ticks)
  8: 0x02B2 [0x00] END_REQSTACK()
```

### Event 65535.16

#### Metadata

| Field        | Value     |
|--------------|-----------|
| Entrypoint   | 0x02B3    |
| Data Size    | 138 bytes |
| Instructions | 12        |

```
      00 01 02 03 04 05 06 07  08 09 0A 0B 0C 0D 0E 0F
      -- -- -- -- -- -- -- --  -- -- -- -- -- -- -- --
02B0:          C5 62 80 E5 82  08 01 E5 82 08 01 73 30     .b.........s0
02C0: 30 31 00 80 5B 64 80 E5  82 08 01 E5 82 08 01 73  01..[d.........s
02D0: 65 30 31 1C 06 80 C5 62  80 E6 82 08 01 E6 82 08  e01....b........
02E0: 01 73 30 30 31 00 80 5B  64 80 E6 82 08 01 E6 82  .s001..[d.......
02F0: 08 01 73 65 30 31 1C 63  80 C5 62 80 E7 82 08 01  ..se01.c..b.....
0300: E7 82 08 01 73 30 30 31  00 80 5B 64 80 E7 82 08  ....s001..[d....
0310: 01 E7 82 08 01 73 65 30  31 1C 06 80 C5 62 80 E8  .....se01....b..
0320: 82 08 01 E8 82 08 01 73  30 30 31 00 80 5B 64 80  .......s001..[d.
0330: E8 82 08 01 E8 82 08 01  73 65 30 31 00           ........se01.   
```

#### Opcodes

```
  0: 0x02B3 [0xC5] LOAD_SCHEDULED_TASK_ALT3: Load scheduler 0x80003130 for entities [Scraggy Gigas (ID: 17335013/0x010882E5), Scraggy Gigas (ID: 17335013/0x010882E5)], work=217*, param=12403
  1: 0x02C4 [0x5B] LOAD_EXT_SCHEDULER: Load scheduler "se01" with entities [Scraggy Gigas (ID: 17335013/0x010882E5), Scraggy Gigas (ID: 17335013/0x010882E5)], work=2376*
  2: 0x02D3 [0x1C] WAIT(10* ticks)
  3: 0x02D6 [0xC5] LOAD_SCHEDULED_TASK_ALT3: Load scheduler 0x80003130 for entities [gian02 (ID: 17335014/0x010882E6), gian02 (ID: 17335014/0x010882E6)], work=217*, param=12403
  4: 0x02E7 [0x5B] LOAD_EXT_SCHEDULER: Load scheduler "se01" with entities [gian02 (ID: 17335014/0x010882E6), gian02 (ID: 17335014/0x010882E6)], work=2376*
  5: 0x02F6 [0x1C] WAIT(20* ticks)
  6: 0x02F9 [0xC5] LOAD_SCHEDULED_TASK_ALT3: Load scheduler 0x80003130 for entities [gian03 (ID: 17335015/0x010882E7), gian03 (ID: 17335015/0x010882E7)], work=217*, param=12403
  7: 0x030A [0x5B] LOAD_EXT_SCHEDULER: Load scheduler "se01" with entities [gian03 (ID: 17335015/0x010882E7), gian03 (ID: 17335015/0x010882E7)], work=2376*
  8: 0x0319 [0x1C] WAIT(10* ticks)
  9: 0x031C [0xC5] LOAD_SCHEDULED_TASK_ALT3: Load scheduler 0x80003130 for entities [gian04 (ID: 17335016/0x010882E8), gian04 (ID: 17335016/0x010882E8)], work=217*, param=12403
 10: 0x032D [0x5B] LOAD_EXT_SCHEDULER: Load scheduler "se01" with entities [gian04 (ID: 17335016/0x010882E8), gian04 (ID: 17335016/0x010882E8)], work=2376*
 11: 0x033C [0x00] END_REQSTACK()
```

### Event 65535.17

#### Metadata

| Field        | Value     |
|--------------|-----------|
| Entrypoint   | 0x033D    |
| Data Size    | 138 bytes |
| Instructions | 12        |

```
      00 01 02 03 04 05 06 07  08 09 0A 0B 0C 0D 0E 0F
      -- -- -- -- -- -- -- --  -- -- -- -- -- -- -- --
0330:                                         C5 62 80               .b.
0340: E5 82 08 01 E5 82 08 01  73 30 30 32 00 80 5B 64  ........s002..[d
0350: 80 E5 82 08 01 E5 82 08  01 73 65 30 32 1C 06 80  .........se02...
0360: C5 62 80 E6 82 08 01 E6  82 08 01 73 30 30 32 00  .b.........s002.
0370: 80 5B 64 80 E6 82 08 01  E6 82 08 01 73 65 30 32  .[d.........se02
0380: 1C 63 80 C5 62 80 E7 82  08 01 E7 82 08 01 73 30  .c..b.........s0
0390: 30 32 00 80 5B 64 80 E7  82 08 01 E7 82 08 01 73  02..[d.........s
03A0: 65 30 32 1C 06 80 C5 62  80 E8 82 08 01 E8 82 08  e02....b........
03B0: 01 73 30 30 32 00 80 5B  64 80 E8 82 08 01 E8 82  .s002..[d.......
03C0: 08 01 73 65 30 32 00                              ..se02.         
```

#### Opcodes

```
  0: 0x033D [0xC5] LOAD_SCHEDULED_TASK_ALT3: Load scheduler 0x80003230 for entities [Scraggy Gigas (ID: 17335013/0x010882E5), Scraggy Gigas (ID: 17335013/0x010882E5)], work=217*, param=12403
  1: 0x034E [0x5B] LOAD_EXT_SCHEDULER: Load scheduler "se02" with entities [Scraggy Gigas (ID: 17335013/0x010882E5), Scraggy Gigas (ID: 17335013/0x010882E5)], work=2376*
  2: 0x035D [0x1C] WAIT(10* ticks)
  3: 0x0360 [0xC5] LOAD_SCHEDULED_TASK_ALT3: Load scheduler 0x80003230 for entities [gian02 (ID: 17335014/0x010882E6), gian02 (ID: 17335014/0x010882E6)], work=217*, param=12403
  4: 0x0371 [0x5B] LOAD_EXT_SCHEDULER: Load scheduler "se02" with entities [gian02 (ID: 17335014/0x010882E6), gian02 (ID: 17335014/0x010882E6)], work=2376*
  5: 0x0380 [0x1C] WAIT(20* ticks)
  6: 0x0383 [0xC5] LOAD_SCHEDULED_TASK_ALT3: Load scheduler 0x80003230 for entities [gian03 (ID: 17335015/0x010882E7), gian03 (ID: 17335015/0x010882E7)], work=217*, param=12403
  7: 0x0394 [0x5B] LOAD_EXT_SCHEDULER: Load scheduler "se02" with entities [gian03 (ID: 17335015/0x010882E7), gian03 (ID: 17335015/0x010882E7)], work=2376*
  8: 0x03A3 [0x1C] WAIT(10* ticks)
  9: 0x03A6 [0xC5] LOAD_SCHEDULED_TASK_ALT3: Load scheduler 0x80003230 for entities [gian04 (ID: 17335016/0x010882E8), gian04 (ID: 17335016/0x010882E8)], work=217*, param=12403
 10: 0x03B7 [0x5B] LOAD_EXT_SCHEDULER: Load scheduler "se02" with entities [gian04 (ID: 17335016/0x010882E8), gian04 (ID: 17335016/0x010882E8)], work=2376*
 11: 0x03C6 [0x00] END_REQSTACK()
```

### Event 65535.18

#### Metadata

| Field        | Value     |
|--------------|-----------|
| Entrypoint   | 0x03C7    |
| Data Size    | 136 bytes |
| Instructions | 14        |

```
      00 01 02 03 04 05 06 07  08 09 0A 0B 0C 0D 0E 0F
      -- -- -- -- -- -- -- --  -- -- -- -- -- -- -- --
03C0:                      5B  65 80 1D 83 08 01 1D 83         [e.......
03D0: 08 01 76 73 62 30 5B 66  80 FF 82 08 01 FF 82 08  ..vsb0[f........
03E0: 01 63 6F 6D 30 1C 07 80  5B 66 80 FB 82 08 01 FB  .com0...[f......
03F0: 82 08 01 63 6F 6D 30 1C  06 80 5B 66 80 FA 82 08  ...com0...[f....
0400: 01 FA 82 08 01 63 6F 6D  30 1C 07 80 5B 67 80 1C  .....com0...[g..
0410: 83 08 01 1C 83 08 01 6C  62 74 30 5B 66 80 F9 82  .......lbt0[f...
0420: 08 01 F9 82 08 01 63 6F  6D 30 1C 07 80 5B 67 80  ......com0...[g.
0430: 12 83 08 01 12 83 08 01  6C 62 74 30 1C 07 80 5B  ........lbt0...[
0440: 66 80 FE 82 08 01 FE 82  08 01 63 6F 6D 30 00     f.........com0. 
```

#### Opcodes

```
  0: 0x03C7 [0x5B] LOAD_EXT_SCHEDULER: Load scheduler "vsb0" with entities [Gsibou4 (ID: 17335069/0x0108831D), Gsibou4 (ID: 17335069/0x0108831D)], work=2893*
  1: 0x03D6 [0x5B] LOAD_EXT_SCHEDULER: Load scheduler "com0" with entities [tueC (ID: 17335039/0x010882FF), tueC (ID: 17335039/0x010882FF)], work=1433*
  2: 0x03E5 [0x1C] WAIT(5* ticks)
  3: 0x03E8 [0x5B] LOAD_EXT_SCHEDULER: Load scheduler "com0" with entities [onoC (ID: 17335035/0x010882FB), onoC (ID: 17335035/0x010882FB)], work=1433*
  4: 0x03F7 [0x1C] WAIT(10* ticks)
  5: 0x03FA [0x5B] LOAD_EXT_SCHEDULER: Load scheduler "com0" with entities [onoB (ID: 17335034/0x010882FA), onoB (ID: 17335034/0x010882FA)], work=1433*
  6: 0x0409 [0x1C] WAIT(5* ticks)
  7: 0x040C [0x5B] LOAD_EXT_SCHEDULER: Load scheduler "lbt0" with entities [Gsibou3 (ID: 17335068/0x0108831C), Gsibou3 (ID: 17335068/0x0108831C)], work=2889*
  8: 0x041B [0x5B] LOAD_EXT_SCHEDULER: Load scheduler "com0" with entities [onoA (ID: 17335033/0x010882F9), onoA (ID: 17335033/0x010882F9)], work=1433*
  9: 0x042A [0x1C] WAIT(5* ticks)
 10: 0x042D [0x5B] LOAD_EXT_SCHEDULER: Load scheduler "lbt0" with entities [Gyari3 (ID: 17335058/0x01088312), Gyari3 (ID: 17335058/0x01088312)], work=2889*
 11: 0x043C [0x1C] WAIT(5* ticks)
 12: 0x043F [0x5B] LOAD_EXT_SCHEDULER: Load scheduler "com0" with entities [tueB (ID: 17335038/0x010882FE), tueB (ID: 17335038/0x010882FE)], work=1433*
 13: 0x044E [0x00] END_REQSTACK()
```

### Event 65535.19

#### Metadata

| Field        | Value     |
|--------------|-----------|
| Entrypoint   | 0x044F    |
| Data Size    | 130 bytes |
| Instructions | 12        |

```
      00 01 02 03 04 05 06 07  08 09 0A 0B 0C 0D 0E 0F
      -- -- -- -- -- -- -- --  -- -- -- -- -- -- -- --
0440:                                               5B                 [
0450: 68 80 F9 82 08 01 F9 82  08 01 65 64 30 30 1C 07  h.........ed00..
0460: 80 5B 68 80 FA 82 08 01  FA 82 08 01 65 64 30 30  .[h.........ed00
0470: 5B 68 80 FC 82 08 01 FC  82 08 01 65 64 30 30 1C  [h.........ed00.
0480: 07 80 5B 68 80 FD 82 08  01 FD 82 08 01 65 64 30  ..[h.........ed0
0490: 30 5B 68 80 FB 82 08 01  FB 82 08 01 65 64 30 30  0[h.........ed00
04A0: 5B 68 80 FE 82 08 01 FE  82 08 01 65 64 30 30 1C  [h.........ed00.
04B0: 07 80 5B 68 80 FF 82 08  01 FF 82 08 01 65 64 30  ..[h.........ed0
04C0: 30 5B 68 80 00 83 08 01  00 83 08 01 65 64 30 30  0[h.........ed00
04D0: 00                                                .               
```

#### Opcodes

```
  0: 0x044F [0x5B] LOAD_EXT_SCHEDULER: Load scheduler "ed00" with entities [onoA (ID: 17335033/0x010882F9), onoA (ID: 17335033/0x010882F9)], work=2612*
  1: 0x045E [0x1C] WAIT(5* ticks)
  2: 0x0461 [0x5B] LOAD_EXT_SCHEDULER: Load scheduler "ed00" with entities [onoB (ID: 17335034/0x010882FA), onoB (ID: 17335034/0x010882FA)], work=2612*
  3: 0x0470 [0x5B] LOAD_EXT_SCHEDULER: Load scheduler "ed00" with entities [onoD (ID: 17335036/0x010882FC), onoD (ID: 17335036/0x010882FC)], work=2612*
  4: 0x047F [0x1C] WAIT(5* ticks)
  5: 0x0482 [0x5B] LOAD_EXT_SCHEDULER: Load scheduler "ed00" with entities [tueA (ID: 17335037/0x010882FD), tueA (ID: 17335037/0x010882FD)], work=2612*
  6: 0x0491 [0x5B] LOAD_EXT_SCHEDULER: Load scheduler "ed00" with entities [onoC (ID: 17335035/0x010882FB), onoC (ID: 17335035/0x010882FB)], work=2612*
  7: 0x04A0 [0x5B] LOAD_EXT_SCHEDULER: Load scheduler "ed00" with entities [tueB (ID: 17335038/0x010882FE), tueB (ID: 17335038/0x010882FE)], work=2612*
  8: 0x04AF [0x1C] WAIT(5* ticks)
  9: 0x04B2 [0x5B] LOAD_EXT_SCHEDULER: Load scheduler "ed00" with entities [tueC (ID: 17335039/0x010882FF), tueC (ID: 17335039/0x010882FF)], work=2612*
 10: 0x04C1 [0x5B] LOAD_EXT_SCHEDULER: Load scheduler "ed00" with entities [tueD (ID: 17335040/0x01088300), tueD (ID: 17335040/0x01088300)], work=2612*
 11: 0x04D0 [0x00] END_REQSTACK()
```
