# 17334990

## Common Data

| Field            | Value                            |
|------------------|----------------------------------|
| Zone             | Beaucedine Glacier [S] (ID: 136) |
| Block Size       | 38888 bytes                      |
| Total Events     | 6                                |
| References Count | 783                              |

## List of Events

| Event ID              | Entrypoint   |   Size |   Instructions |
|-----------------------|--------------|--------|----------------|
| [65535](#event-65535) | 0x0000       |      1 |              1 |
| [16](#event-16)       | 0x0001       |  13427 |           1474 |
| [30](#event-30)       | 0x3474       |   6279 |            714 |
| [19](#event-19)       | 0x4CFB       |  14653 |           1566 |
| [25](#event-25)       | 0x8638       |    481 |             65 |
| [26](#event-26)       | 0x8819       |    875 |             93 |

## DAT References (imed_data)

|   Index | Hex Value   |   Dec Value |
|---------|-------------|-------------|
|       0 | 0x0013      |          19 |
|       1 | 0x0000      |           0 |
|       2 | 0x0078      |         120 |
|       3 | 0xFFFF4740  |  4294920000 |
|       4 | 0xFFFCE832  |  4294764594 |
|       5 | 0xFFFF6464  |  4294927460 |
|       6 | 0x084D      |        2125 |
|       7 | 0xFFFF5492  |  4294923410 |
|       8 | 0xFFFCE348  |  4294763336 |
|       9 | 0xFFFF63BA  |  4294927290 |
|      10 | 0x0820      |        2080 |
|      11 | 0xFFFF4DFA  |  4294921722 |
|      12 | 0xFFFCDF0C  |  4294762252 |
|      13 | 0xFFFF6441  |  4294927425 |
|      14 | 0x08C2      |        2242 |
|      15 | 0xFFFF28E7  |  4294912231 |
|      16 | 0xFFFD1037  |  4294774839 |
|      17 | 0xFFFF5330  |  4294923056 |
|      18 | 0x01FF      |         511 |
|      19 | 0xFFFF27D4  |  4294911956 |
|      20 | 0xFFFD08C5  |  4294772933 |
|      21 | 0xFFFF5335  |  4294923061 |
|      22 | 0x0092      |         146 |
|      23 | 0xFFFF2E2E  |  4294913582 |
|      24 | 0xFFFCF270  |  4294767216 |
|      25 | 0xFFFF65F8  |  4294927864 |
|      26 | 0xFFFF31CD  |  4294914509 |
|      27 | 0xFFFCEFA5  |  4294766501 |
|      28 | 0xFFFF659B  |  4294927771 |
|      29 | 0x084E      |        2126 |
|      30 | 0xFFFF2CBC  |  4294913212 |
|      31 | 0xFFFCF4C6  |  4294767814 |
|      32 | 0xFFFF6424  |  4294927396 |
|      33 | 0x0096      |         150 |
|      34 | 0xFFFF185A  |  4294907994 |
|      35 | 0xFFFD0842  |  4294772802 |
|      36 | 0xFFFF66EB  |  4294928107 |
|      37 | 0x001E      |          30 |
|      38 | 0x00D9      |         217 |
|      39 | 0x09E4      |        2532 |
|      40 | 0x08F6      |        2294 |
|      41 | 0x09DF      |        2527 |
|      42 | 0x0B01      |        2817 |
|      43 | 0x00A7      |         167 |
|      44 | 0x08B4      |        2228 |
|      45 | 0x0001      |           1 |
|      46 | 0x05B4      |        1460 |
|      47 | 0x0065      |         101 |
|      48 | 0x0203      |         515 |
|      49 | 0x0003      |           3 |
|      50 | 0x0008      |           8 |
|      51 | 0x0005      |           5 |
|      52 | 0x0006      |           6 |
|      53 | 0x0007      |           7 |
|      54 | 0x003C      |          60 |
|      55 | 0x2013      |        8211 |
|      56 | 0x00A0      |         160 |
|      57 | 0x00B1      |         177 |
|      58 | 0x0136      |         310 |
|      59 | 0xFFFF4B5A  |  4294921050 |
|      60 | 0xFFFCDD1D  |  4294761757 |
|      61 | 0xFFFF647B  |  4294927483 |
|      62 | 0x00BE      |         190 |
|      63 | 0x00C8      |         200 |
|      64 | 0x0050      |          80 |
|      65 | 0x2014      |        8212 |
|      66 | 0x005A      |          90 |
|      67 | 0x2015      |        8213 |
|      68 | 0x0028      |          40 |
|      69 | 0x0B05      |        2821 |
|      70 | 0x2016      |        8214 |
|      71 | 0x0032      |          50 |
|      72 | 0x0023      |          35 |
|      73 | 0x2017      |        8215 |
|      74 | 0x2018      |        8216 |
|      75 | 0x0004      |           4 |
|      76 | 0x00AB      |         171 |
|      77 | 0x000F      |          15 |
|      78 | 0x00E1      |         225 |
|      79 | 0x2019      |        8217 |
|      80 | 0x051F      |        1311 |
|      81 | 0x00C3      |         195 |
|      82 | 0x0064      |         100 |
|      83 | 0x201A      |        8218 |
|      84 | 0xFFFF1421  |  4294906913 |
|      85 | 0xFFFD9E63  |  4294811235 |
|      86 | 0xFFFF4AED  |  4294920941 |
|      87 | 0x0DAC      |        3500 |
|      88 | 0x006E      |         110 |
|      89 | 0x005F      |          95 |
|      90 | 0x00DF      |         223 |
|      91 | 0x201B      |        8219 |
|      92 | 0x09E5      |        2533 |
|      93 | 0x0014      |          20 |
|      94 | 0x201C      |        8220 |
|      95 | 0x0046      |          70 |
|      96 | 0xFFFF1DEA  |  4294909418 |
|      97 | 0xFFFD168E  |  4294776462 |
|      98 | 0xFFFF6571  |  4294927729 |
|      99 | 0x09C6      |        2502 |
|     100 | 0xFFFF195C  |  4294908252 |
|     101 | 0xFFFD0CA6  |  4294773926 |
|     102 | 0xFFFF666E  |  4294927982 |
|     103 | 0x201D      |        8221 |
|     104 | 0x000A      |          10 |
|     105 | 0x0015      |          21 |
|     106 | 0x0258      |         600 |
|     107 | 0x014A      |         330 |
|     108 | 0xFFFF563C  |  4294923836 |
|     109 | 0xFFFCE883  |  4294764675 |
|     110 | 0xFFFF5254  |  4294922836 |
|     111 | 0x02BC      |         700 |
|     112 | 0xFFFEA06A  |  4294877290 |
|     113 | 0x0093      |         147 |
|     114 | 0xFFFF438D  |  4294919053 |
|     115 | 0xFFFCD690  |  4294760080 |
|     116 | 0xFFFF6488  |  4294927496 |
|     117 | 0x0898      |        2200 |
|     118 | 0xFFFF5444  |  4294923332 |
|     119 | 0xFFFCE214  |  4294763028 |
|     120 | 0x05FD      |        1533 |
|     121 | 0x08F7      |        2295 |
|     122 | 0x09E7      |        2535 |
|     123 | 0xFFFF8F0F  |  4294938383 |
|     124 | 0xFFFCD88D  |  4294760589 |
|     125 | 0xFFFF658C  |  4294927756 |
|     126 | 0x0002      |           2 |
|     127 | 0xFFFF6564  |  4294927716 |
|     128 | 0xFFFF6639  |  4294927929 |
|     129 | 0xFFFF6607  |  4294927879 |
|     130 | 0xFFFF64D8  |  4294927576 |
|     131 | 0xFFFF6672  |  4294927986 |
|     132 | 0xFFFF9BF1  |  4294941681 |
|     133 | 0xFFFCE959  |  4294764889 |
|     134 | 0xFFFF663B  |  4294927931 |
|     135 | 0x0853      |        2131 |
|     136 | 0x0091      |         145 |
|     137 | 0x09DA      |        2522 |
|     138 | 0xFFFF5DA1  |  4294925729 |
|     139 | 0xFFFF82C8  |  4294935240 |
|     140 | 0xFFFCD4E0  |  4294759648 |
|     141 | 0xFFFF6023  |  4294926371 |
|     142 | 0x01F4      |         500 |
|     143 | 0xFFFF7F14  |  4294934292 |
|     144 | 0xFFFCE58F  |  4294763919 |
|     145 | 0xFFFF61E6  |  4294926822 |
|     146 | 0x07D0      |        2000 |
|     147 | 0x0090      |         144 |
|     148 | 0x0122      |         290 |
|     149 | 0x010E      |         270 |
|     150 | 0x00EF      |         239 |
|     151 | 0x0080      |         128 |
|     152 | 0x00B4      |         180 |
|     153 | 0x0186      |         390 |
|     154 | 0x008C      |         140 |
|     155 | 0x201E      |        8222 |
|     156 | 0x0082      |         130 |
|     157 | 0x0154      |         340 |
|     158 | 0x0104      |         260 |
|     159 | 0x201F      |        8223 |
|     160 | 0x2020      |        8224 |
|     161 | 0x00FA      |         250 |
|     162 | 0x000E      |          14 |
|     163 | 0x09E6      |        2534 |
|     164 | 0xFFFF4E6C  |  4294921836 |
|     165 | 0x0140      |         320 |
|     166 | 0xFFFF4419  |  4294919193 |
|     167 | 0xFFFCDB2A  |  4294761258 |
|     168 | 0xFFFF4BBB  |  4294921147 |
|     169 | 0x00B2      |         178 |
|     170 | 0x2021      |        8225 |
|     171 | 0x012C      |         300 |
|     172 | 0x00F0      |         240 |
|     173 | 0x2022      |        8226 |
|     174 | 0x019A      |         410 |
|     175 | 0x001A      |          26 |
|     176 | 0x0118      |         280 |
|     177 | 0x2023      |        8227 |
|     178 | 0x00F7      |         247 |
|     179 | 0xFFFF6190  |  4294926736 |
|     180 | 0x0BB8      |        3000 |
|     181 | 0xFFFF61ED  |  4294926829 |
|     182 | 0x2024      |        8228 |
|     183 | 0x00B9      |         185 |
|     184 | 0x2025      |        8229 |
|     185 | 0x2026      |        8230 |
|     186 | 0x2027      |        8231 |
|     187 | 0x006F      |         111 |
|     188 | 0xFFFFB383  |  4294947715 |
|     189 | 0xFFFCE43F  |  4294763583 |
|     190 | 0xFFFF6294  |  4294926996 |
|     191 | 0x08E3      |        2275 |
|     192 | 0xFFFFA73A  |  4294944570 |
|     193 | 0xFFFCED77  |  4294765943 |
|     194 | 0xFFFF6720  |  4294928160 |
|     195 | 0x0A8C      |        2700 |
|     196 | 0x002C      |          44 |
|     197 | 0x1E1C      |        7708 |
|     198 | 0x2028      |        8232 |
|     199 | 0x0087      |         135 |
|     200 | 0x0FD2      |        4050 |
|     201 | 0x0586      |        1414 |
|     202 | 0x2029      |        8233 |
|     203 | 0x202A      |        8234 |
|     204 | 0xFFFF9BFF  |  4294941695 |
|     205 | 0xFFFCF81B  |  4294768667 |
|     206 | 0xFFFF663D  |  4294927933 |
|     207 | 0x09AB      |        2475 |
|     208 | 0x202B      |        8235 |
|     209 | 0x202C      |        8236 |
|     210 | 0x00D2      |         210 |
|     211 | 0x01A7      |         423 |
|     212 | 0x00B6      |         182 |
|     213 | 0x00FF      |         255 |
|     214 | 0xFFF55435  |  4294267957 |
|     215 | 0xFFFB4FD4  |  4294660052 |
|     216 | 0xFFFFB9B0  |  4294949296 |
|     217 | 0x0C00      |        3072 |
|     218 | 0xFFF551C5  |  4294267333 |
|     219 | 0xFFFB4D2B  |  4294659371 |
|     220 | 0xFFF55065  |  4294266981 |
|     221 | 0xFFFB5576  |  4294661494 |
|     222 | 0x0C47      |        3143 |
|     223 | 0x0AE2      |        2786 |
|     224 | 0x08F9      |        2297 |
|     225 | 0x00C5      |         197 |
|     226 | 0x0B06      |        2822 |
|     227 | 0x202D      |        8237 |
|     228 | 0xFFF54E49  |  4294266441 |
|     229 | 0xFFFF1D0B  |  4294909195 |
|     230 | 0xFFFF9DDC  |  4294942172 |
|     231 | 0x0400      |        1024 |
|     232 | 0xFFF551A0  |  4294267296 |
|     233 | 0xFFFF1FF6  |  4294909942 |
|     234 | 0xFFF558FF  |  4294269183 |
|     235 | 0xFFFF0FB8  |  4294905784 |
|     236 | 0x0AB1      |        2737 |
|     237 | 0xFFFE738E  |  4294865806 |
|     238 | 0xFFFF9224  |  4294939172 |
|     239 | 0xFFF5648D  |  4294272141 |
|     240 | 0xFFFE8048  |  4294869064 |
|     241 | 0x0A59      |        2649 |
|     242 | 0xFFF54770  |  4294264688 |
|     243 | 0xFFFE797F  |  4294867327 |
|     244 | 0x0C44      |        3140 |
|     245 | 0xFFF54CEC  |  4294266092 |
|     246 | 0xFFFE766E  |  4294866542 |
|     247 | 0xFFFF8AD0  |  4294937296 |
|     248 | 0x0800      |        2048 |
|     249 | 0x09C7      |        2503 |
|     250 | 0x05B2      |        1458 |
|     251 | 0x0095      |         149 |
|     252 | 0x202E      |        8238 |
|     253 | 0x202F      |        8239 |
|     254 | 0x0094      |         148 |
|     255 | 0xFFF54EE6  |  4294266598 |
|     256 | 0xFFFE9028  |  4294873128 |
|     257 | 0xFFFF9DDB  |  4294942171 |
|     258 | 0xFFFE939D  |  4294874013 |
|     259 | 0xFFF559D7  |  4294269399 |
|     260 | 0xFFFE97B9  |  4294875065 |
|     261 | 0x043D      |        1085 |
|     262 | 0x002B      |          43 |
|     263 | 0x2030      |        8240 |
|     264 | 0x09C8      |        2504 |
|     265 | 0x2031      |        8241 |
|     266 | 0x2032      |        8242 |
|     267 | 0x2033      |        8243 |
|     268 | 0x09C9      |        2505 |
|     269 | 0x2034      |        8244 |
|     270 | 0x2035      |        8245 |
|     271 | 0x2036      |        8246 |
|     272 | 0x09CA      |        2506 |
|     273 | 0x00E6      |         230 |
|     274 | 0xFFF553CF  |  4294267855 |
|     275 | 0xFFFE9091  |  4294873233 |
|     276 | 0x2037      |        8247 |
|     277 | 0x2038      |        8248 |
|     278 | 0x01A4      |         420 |
|     279 | 0x2039      |        8249 |
|     280 | 0x00EA      |         234 |
|     281 | 0x203A      |        8250 |
|     282 | 0x09CB      |        2507 |
|     283 | 0x203B      |        8251 |
|     284 | 0x0AE3      |        2787 |
|     285 | 0x015E      |         350 |
|     286 | 0x203C      |        8252 |
|     287 | 0x203D      |        8253 |
|     288 | 0x0A79      |        2681 |
|     289 | 0x00A8      |         168 |
|     290 | 0x203E      |        8254 |
|     291 | 0x0AE4      |        2788 |
|     292 | 0xFFF544C6  |  4294264006 |
|     293 | 0xFFFE8799  |  4294870937 |
|     294 | 0x02C0      |         704 |
|     295 | 0x203F      |        8255 |
|     296 | 0x0097      |         151 |
|     297 | 0x2040      |        8256 |
|     298 | 0x205A      |        8282 |
|     299 | 0xFFFE8BE9  |  4294872041 |
|     300 | 0x09CD      |        2509 |
|     301 | 0x0857      |        2135 |
|     302 | 0xFFF53747  |  4294260551 |
|     303 | 0xFFFEA179  |  4294877561 |
|     304 | 0x09CC      |        2508 |
|     305 | 0x2041      |        8257 |
|     306 | 0x2042      |        8258 |
|     307 | 0x2043      |        8259 |
|     308 | 0x0088      |         136 |
|     309 | 0x0A05      |        2565 |
|     310 | 0xFFFFA638  |  4294944312 |
|     311 | 0xFFFCEE8B  |  4294766219 |
|     312 | 0xFFFF6713  |  4294928147 |
|     313 | 0x06A4      |        1700 |
|     314 | 0x051E      |        1310 |
|     315 | 0x007B      |         123 |
|     316 | 0x2044      |        8260 |
|     317 | 0x2045      |        8261 |
|     318 | 0x2046      |        8262 |
|     319 | 0x0F23      |        3875 |
|     320 | 0x2047      |        8263 |
|     321 | 0x2048      |        8264 |
|     322 | 0x0380      |         896 |
|     323 | 0xFFF54931  |  4294265137 |
|     324 | 0xFFFE99FD  |  4294875645 |
|     325 | 0xFFF556FB  |  4294268667 |
|     326 | 0xFFFE94A2  |  4294874274 |
|     327 | 0xFFF54A9E  |  4294265502 |
|     328 | 0xFFFE758E  |  4294866318 |
|     329 | 0xFFFF9D90  |  4294942096 |
|     330 | 0x0C35      |        3125 |
|     331 | 0xFFF56097  |  4294271127 |
|     332 | 0xFFFE8F36  |  4294872886 |
|     333 | 0xFFFF9B38  |  4294941496 |
|     334 | 0x0B1B      |        2843 |
|     335 | 0x0AF4      |        2804 |
|     336 | 0x088B      |        2187 |
|     337 | 0x2049      |        8265 |
|     338 | 0x204A      |        8266 |
|     339 | 0x204B      |        8267 |
|     340 | 0x204C      |        8268 |
|     341 | 0x204D      |        8269 |
|     342 | 0x204E      |        8270 |
|     343 | 0x204F      |        8271 |
|     344 | 0x0B12      |        2834 |
|     345 | 0x0041      |          65 |
|     346 | 0x2050      |        8272 |
|     347 | 0x09D4      |        2516 |
|     348 | 0x2051      |        8273 |
|     349 | 0x09AA      |        2474 |
|     350 | 0x00C4      |         196 |
|     351 | 0x00F4      |         244 |
|     352 | 0x01BE      |         446 |
|     353 | 0xFFFF3F69  |  4294917993 |
|     354 | 0xFFFFECAB  |  4294962347 |
|     355 | 0xFFFFFE0C  |  4294966796 |
|     356 | 0x02A8      |         680 |
|     357 | 0x0AF3      |        2803 |
|     358 | 0x0A9D      |        2717 |
|     359 | 0x2052      |        8274 |
|     360 | 0x2053      |        8275 |
|     361 | 0xFFF54CD3  |  4294266067 |
|     362 | 0xFFFE8B8B  |  4294871947 |
|     363 | 0x2054      |        8276 |
|     364 | 0x2055      |        8277 |
|     365 | 0x2056      |        8278 |
|     366 | 0x01C7      |         455 |
|     367 | 0x2057      |        8279 |
|     368 | 0x0D73      |        3443 |
|     369 | 0x2058      |        8280 |
|     370 | 0xFFF55050  |  4294266960 |
|     371 | 0xFFFE9A74  |  4294875764 |
|     372 | 0xFFFF9DDD  |  4294942173 |
|     373 | 0x0960      |        2400 |
|     374 | 0x09F1      |        2545 |
|     375 | 0x2059      |        8281 |
|     376 | 0x002D      |          45 |
|     377 | 0xFFF53AE9  |  4294261481 |
|     378 | 0xFFFE9E67  |  4294876775 |
|     379 | 0x09CE      |        2510 |
|     380 | 0x205B      |        8283 |
|     381 | 0x205C      |        8284 |
|     382 | 0x0B13      |        2835 |
|     383 | 0xFFF554AB  |  4294268075 |
|     384 | 0xFFFE9325  |  4294873893 |
|     385 | 0x088C      |        2188 |
|     386 | 0x205D      |        8285 |
|     387 | 0x0B14      |        2836 |
|     388 | 0x205E      |        8286 |
|     389 | 0x205F      |        8287 |
|     390 | 0x09D5      |        2517 |
|     391 | 0x2060      |        8288 |
|     392 | 0x2061      |        8289 |
|     393 | 0x2062      |        8290 |
|     394 | 0x2063      |        8291 |
|     395 | 0x2064      |        8292 |
|     396 | 0x2065      |        8293 |
|     397 | 0x2066      |        8294 |
|     398 | 0x2067      |        8295 |
|     399 | 0x2068      |        8296 |
|     400 | 0x0B15      |        2837 |
|     401 | 0x0B1A      |        2842 |
|     402 | 0x0890      |        2192 |
|     403 | 0x2069      |        8297 |
|     404 | 0x206A      |        8298 |
|     405 | 0x206B      |        8299 |
|     406 | 0x206C      |        8300 |
|     407 | 0x206D      |        8301 |
|     408 | 0xFFF546FF  |  4294264575 |
|     409 | 0xFFFE947B  |  4294874235 |
|     410 | 0x030F      |         783 |
|     411 | 0x206E      |        8302 |
|     412 | 0x206F      |        8303 |
|     413 | 0x2070      |        8304 |
|     414 | 0x2071      |        8305 |
|     415 | 0x0F3C      |        3900 |
|     416 | 0x0708      |        1800 |
|     417 | 0x2073      |        8307 |
|     418 | 0x2074      |        8308 |
|     419 | 0x0584      |        1412 |
|     420 | 0x2075      |        8309 |
|     421 | 0x0E42      |        3650 |
|     422 | 0x2076      |        8310 |
|     423 | 0x005D      |          93 |
|     424 | 0x14DC5     |       85445 |
|     425 | 0x6BA94     |      440980 |
|     426 | 0x03E7      |         999 |
|     427 | 0x09F9      |        2553 |
|     428 | 0x1439E     |       82846 |
|     429 | 0x6AD96     |      437654 |
|     430 | 0x09F8      |        2552 |
|     431 | 0x14361     |       82785 |
|     432 | 0x6B8A3     |      440483 |
|     433 | 0x09F7      |        2551 |
|     434 | 0x13959     |       80217 |
|     435 | 0x6C49A     |      443546 |
|     436 | 0x122F8     |       74488 |
|     437 | 0x6DAED     |      449261 |
|     438 | 0x0411      |        1041 |
|     439 | 0x1457C     |       83324 |
|     440 | 0x6B64D     |      439885 |
|     441 | 0x0AF0      |        2800 |
|     442 | 0x09DE      |        2526 |
|     443 | 0x01EC      |         492 |
|     444 | 0x2129      |        8489 |
|     445 | 0x0523      |        1315 |
|     446 | 0x009F      |         159 |
|     447 | 0x212A      |        8490 |
|     448 | 0x007F      |         127 |
|     449 | 0x13BE4     |       80868 |
|     450 | 0x6C32C     |      443180 |
|     451 | 0x04E2      |        1250 |
|     452 | 0x09F6      |        2550 |
|     453 | 0x00A3      |         163 |
|     454 | 0x0B02      |        2818 |
|     455 | 0x212B      |        8491 |
|     456 | 0x212C      |        8492 |
|     457 | 0x212D      |        8493 |
|     458 | 0x0524      |        1316 |
|     459 | 0x0AFF      |        2815 |
|     460 | 0x212E      |        8494 |
|     461 | 0x212F      |        8495 |
|     462 | 0x2130      |        8496 |
|     463 | 0x2131      |        8497 |
|     464 | 0x00AE      |         174 |
|     465 | 0x0099      |         153 |
|     466 | 0xFFF9AF6D  |  4294553453 |
|     467 | 0xFFFD6899  |  4294797465 |
|     468 | 0x36AF      |       13999 |
|     469 | 0x0494      |        1172 |
|     470 | 0xFFF9A2F9  |  4294550265 |
|     471 | 0xFFFD5A76  |  4294793846 |
|     472 | 0x07BE      |        1982 |
|     473 | 0xFFF9AF53  |  4294553427 |
|     474 | 0xFFFD5AD4  |  4294793940 |
|     475 | 0x0A92      |        2706 |
|     476 | 0xFFF98F01  |  4294545153 |
|     477 | 0xFFFD5503  |  4294792451 |
|     478 | 0x0784      |        1924 |
|     479 | 0xFFF970F2  |  4294537458 |
|     480 | 0xFFFD4E60  |  4294790752 |
|     481 | 0x0F69      |        3945 |
|     482 | 0xFFF97223  |  4294537763 |
|     483 | 0xFFFD44EF  |  4294788335 |
|     484 | 0x0E82      |        3714 |
|     485 | 0xFFF94FA0  |  4294528928 |
|     486 | 0xFFFD4017  |  4294787095 |
|     487 | 0x0F1A      |        3866 |
|     488 | 0xFFF9737A  |  4294538106 |
|     489 | 0xFFFD59D3  |  4294793683 |
|     490 | 0x0019      |          25 |
|     491 | 0xFFF95A29  |  4294531625 |
|     492 | 0xFFFD2514  |  4294780180 |
|     493 | 0x332C      |       13100 |
|     494 | 0x0AE9      |        2793 |
|     495 | 0x0AFE      |        2814 |
|     496 | 0x0AF1      |        2801 |
|     497 | 0x0B08      |        2824 |
|     498 | 0x01E1      |         481 |
|     499 | 0x0208      |         520 |
|     500 | 0x2132      |        8498 |
|     501 | 0x0AFC      |        2812 |
|     502 | 0x00AA      |         170 |
|     503 | 0x0FBE      |        4030 |
|     504 | 0x0ADF      |        2783 |
|     505 | 0x2133      |        8499 |
|     506 | 0x09D7      |        2519 |
|     507 | 0x2134      |        8500 |
|     508 | 0xFFF978D2  |  4294539474 |
|     509 | 0xFFFD5012  |  4294791186 |
|     510 | 0x0897      |        2199 |
|     511 | 0x2135      |        8501 |
|     512 | 0x009E      |         158 |
|     513 | 0x2136      |        8502 |
|     514 | 0x2137      |        8503 |
|     515 | 0x2138      |        8504 |
|     516 | 0x213A      |        8506 |
|     517 | 0x09CF      |        2511 |
|     518 | 0x0AFD      |        2813 |
|     519 | 0x0212      |         530 |
|     520 | 0x2139      |        8505 |
|     521 | 0xFFFD53FA  |  4294792186 |
|     522 | 0xFFFD4107  |  4294787335 |
|     523 | 0x00A9      |         169 |
|     524 | 0x09D0      |        2512 |
|     525 | 0x01C2      |         450 |
|     526 | 0x213B      |        8507 |
|     527 | 0xFFF96BE5  |  4294536165 |
|     528 | 0xFFFD45FF  |  4294788607 |
|     529 | 0x213C      |        8508 |
|     530 | 0x213D      |        8509 |
|     531 | 0x0200      |         512 |
|     532 | 0x213E      |        8510 |
|     533 | 0x213F      |        8511 |
|     534 | 0x0D69      |        3433 |
|     535 | 0x2140      |        8512 |
|     536 | 0x0AEA      |        2794 |
|     537 | 0x2141      |        8513 |
|     538 | 0x2142      |        8514 |
|     539 | 0xFFF9718B  |  4294537611 |
|     540 | 0xFFFD45B5  |  4294788533 |
|     541 | 0x0700      |        1792 |
|     542 | 0xFFF970F8  |  4294537464 |
|     543 | 0xFFFD41A5  |  4294787493 |
|     544 | 0x0E04      |        3588 |
|     545 | 0xFFF97036  |  4294537270 |
|     546 | 0xFFFD55DA  |  4294792666 |
|     547 | 0x0AF2      |        2802 |
|     548 | 0x2143      |        8515 |
|     549 | 0x2144      |        8516 |
|     550 | 0xFFF9AF34  |  4294553396 |
|     551 | 0xFFFD6457  |  4294796375 |
|     552 | 0x06EC      |        1772 |
|     553 | 0x2145      |        8517 |
|     554 | 0x2146      |        8518 |
|     555 | 0xFFF95FD7  |  4294533079 |
|     556 | 0xFFFD28BB  |  4294781115 |
|     557 | 0x32FA      |       13050 |
|     558 | 0x0E33      |        3635 |
|     559 | 0xFFF97CBF  |  4294540479 |
|     560 | 0xFFFD556E  |  4294792558 |
|     561 | 0x2147      |        8519 |
|     562 | 0x2148      |        8520 |
|     563 | 0x2149      |        8521 |
|     564 | 0x214A      |        8522 |
|     565 | 0x214B      |        8523 |
|     566 | 0x214C      |        8524 |
|     567 | 0x214D      |        8525 |
|     568 | 0x214E      |        8526 |
|     569 | 0x0896      |        2198 |
|     570 | 0x09D1      |        2513 |
|     571 | 0x214F      |        8527 |
|     572 | 0x2150      |        8528 |
|     573 | 0x2151      |        8529 |
|     574 | 0x2152      |        8530 |
|     575 | 0x2153      |        8531 |
|     576 | 0x09D2      |        2514 |
|     577 | 0x2154      |        8532 |
|     578 | 0xFFF9CAF1  |  4294560497 |
|     579 | 0xFFFD6807  |  4294797319 |
|     580 | 0x364B      |       13899 |
|     581 | 0x01E0      |         480 |
|     582 | 0x0AEF      |        2799 |
|     583 | 0x2155      |        8533 |
|     584 | 0x2156      |        8534 |
|     585 | 0x2157      |        8535 |
|     586 | 0xFFF9AC34  |  4294552628 |
|     587 | 0xFFFD614E  |  4294795598 |
|     588 | 0x0719      |        1817 |
|     589 | 0xFFF9AA31  |  4294552113 |
|     590 | 0xFFFD56D9  |  4294792921 |
|     591 | 0x07A8      |        1960 |
|     592 | 0xFFF9575B  |  4294530907 |
|     593 | 0xFFFD2529  |  4294780201 |
|     594 | 0x3264      |       12900 |
|     595 | 0x000C      |          12 |
|     596 | 0x2158      |        8536 |
|     597 | 0x0AEB      |        2795 |
|     598 | 0x2159      |        8537 |
|     599 | 0x215A      |        8538 |
|     600 | 0x215B      |        8539 |
|     601 | 0x215C      |        8540 |
|     602 | 0x0856      |        2134 |
|     603 | 0x215D      |        8541 |
|     604 | 0x215E      |        8542 |
|     605 | 0x215F      |        8543 |
|     606 | 0x2160      |        8544 |
|     607 | 0x2161      |        8545 |
|     608 | 0x09D8      |        2520 |
|     609 | 0x2162      |        8546 |
|     610 | 0x2163      |        8547 |
|     611 | 0xFFF972BE  |  4294537918 |
|     612 | 0xFFFD5492  |  4294792338 |
|     613 | 0x0011      |          17 |
|     614 | 0x2164      |        8548 |
|     615 | 0x2165      |        8549 |
|     616 | 0x2166      |        8550 |
|     617 | 0x2167      |        8551 |
|     618 | 0x2168      |        8552 |
|     619 | 0x00A4      |         164 |
|     620 | 0xFFF96E6D  |  4294536813 |
|     621 | 0xFFFD48E2  |  4294789346 |
|     622 | 0x061D      |        1565 |
|     623 | 0x2169      |        8553 |
|     624 | 0x0F00      |        3840 |
|     625 | 0x216A      |        8554 |
|     626 | 0x216B      |        8555 |
|     627 | 0x01E2      |         482 |
|     628 | 0xFFF986B4  |  4294543028 |
|     629 | 0xFFFD4EC6  |  4294790854 |
|     630 | 0x070E      |        1806 |
|     631 | 0x216C      |        8556 |
|     632 | 0x216D      |        8557 |
|     633 | 0xFFF95AF1  |  4294531825 |
|     634 | 0xFFFD2010  |  4294778896 |
|     635 | 0x0D00      |        3328 |
|     636 | 0x216E      |        8558 |
|     637 | 0x216F      |        8559 |
|     638 | 0xFFF9AED0  |  4294553296 |
|     639 | 0xFFFD48B0  |  4294789296 |
|     640 | 0x09D3      |        2515 |
|     641 | 0x2170      |        8560 |
|     642 | 0x2171      |        8561 |
|     643 | 0x06E5      |        1765 |
|     644 | 0x2172      |        8562 |
|     645 | 0x0AEC      |        2796 |
|     646 | 0x2173      |        8563 |
|     647 | 0xFFF96880  |  4294535296 |
|     648 | 0xFFFD40E0  |  4294787296 |
|     649 | 0x0B09      |        2825 |
|     650 | 0x2174      |        8564 |
|     651 | 0x0B1C      |        2844 |
|     652 | 0x08B7      |        2231 |
|     653 | 0x0B07      |        2823 |
|     654 | 0xFFF959B7  |  4294531511 |
|     655 | 0xFFFD2D1F  |  4294782239 |
|     656 | 0x026D      |         621 |
|     657 | 0xFFF958E9  |  4294531305 |
|     658 | 0xFFFD2F3D  |  4294782781 |
|     659 | 0x2175      |        8565 |
|     660 | 0xFFF9B6A0  |  4294555296 |
|     661 | 0xFFFD5080  |  4294791296 |
|     662 | 0x32C8      |       13000 |
|     663 | 0xFFF95B89  |  4294531977 |
|     664 | 0xFFFD2764  |  4294780772 |
|     665 | 0xFFF95F1F  |  4294532895 |
|     666 | 0xFFFD224B  |  4294779467 |
|     667 | 0xFFF95E58  |  4294532696 |
|     668 | 0xFFFD274F  |  4294780751 |
|     669 | 0x2176      |        8566 |
|     670 | 0x0AED      |        2797 |
|     671 | 0x2177      |        8567 |
|     672 | 0x2178      |        8568 |
|     673 | 0x0AEE      |        2798 |
|     674 | 0x2179      |        8569 |
|     675 | 0x217A      |        8570 |
|     676 | 0x217B      |        8571 |
|     677 | 0xFFF9656D  |  4294534509 |
|     678 | 0xFFFD2E72  |  4294782578 |
|     679 | 0x0DF8      |        3576 |
|     680 | 0xFFFA5D8F  |  4294598031 |
|     681 | 0xFFFD7E74  |  4294803060 |
|     682 | 0x36B0      |       14000 |
|     683 | 0x0745      |        1861 |
|     684 | 0x0B16      |        2838 |
|     685 | 0x0B26      |        2854 |
|     686 | 0xFFFA5DD0  |  4294598096 |
|     687 | 0xFFFD7E99  |  4294803097 |
|     688 | 0x55F0      |       22000 |
|     689 | 0xFFFA5EE1  |  4294598369 |
|     690 | 0xFFFD8399  |  4294804377 |
|     691 | 0x6978      |       27000 |
|     692 | 0xFFFA6113  |  4294598931 |
|     693 | 0xFFFD7BD1  |  4294802385 |
|     694 | 0x84D0      |       34000 |
|     695 | 0x0744      |        1860 |
|     696 | 0x0168      |         360 |
|     697 | 0xF503      |       62723 |
|     698 | 0xDB7E      |       56190 |
|     699 | 0xFFFF643D  |  4294927421 |
|     700 | 0x0ED1      |        3793 |
|     701 | 0x10165     |       65893 |
|     702 | 0xDD39      |       56633 |
|     703 | 0xFFFF64C5  |  4294927557 |
|     704 | 0x0AAE      |        2734 |
|     705 | 0xF82A      |       63530 |
|     706 | 0xE32E      |       58158 |
|     707 | 0xFFFF6432  |  4294927410 |
|     708 | 0x056A      |        1386 |
|     709 | 0xEB50      |       60240 |
|     710 | 0xBC1F      |       48159 |
|     711 | 0xFFFF66B3  |  4294928051 |
|     712 | 0x0D2F      |        3375 |
|     713 | 0x10367     |       66407 |
|     714 | 0xE635      |       58933 |
|     715 | 0xFFFF64AD  |  4294927533 |
|     716 | 0x0579      |        1401 |
|     717 | 0x0063      |          99 |
|     718 | 0x050D      |        1293 |
|     719 | 0x055B      |        1371 |
|     720 | 0x0045      |          69 |
|     721 | 0x00C7      |         199 |
|     722 | 0x217D      |        8573 |
|     723 | 0x217E      |        8574 |
|     724 | 0x00DB      |         219 |
|     725 | 0x217F      |        8575 |
|     726 | 0xF5DF      |       62943 |
|     727 | 0xDBCA      |       56266 |
|     728 | 0xFFFF6444  |  4294927428 |
|     729 | 0x2180      |        8576 |
|     730 | 0x2181      |        8577 |
|     731 | 0x2182      |        8578 |
|     732 | 0x001D      |          29 |
|     733 | 0x2183      |        8579 |
|     734 | 0x0964      |        2404 |
|     735 | 0x2184      |        8580 |
|     736 | 0x0D06      |        3334 |
|     737 | 0x2185      |        8581 |
|     738 | 0x0968      |        2408 |
|     739 | 0x2186      |        8582 |
|     740 | 0x2187      |        8583 |
|     741 | 0x2188      |        8584 |
|     742 | 0x2189      |        8585 |
|     743 | 0x218A      |        8586 |
|     744 | 0x000D      |          13 |
|     745 | 0x0029      |          41 |
|     746 | 0x218B      |        8587 |
|     747 | 0xEF0D      |       61197 |
|     748 | 0xC328      |       49960 |
|     749 | 0xFFFF6575  |  4294927733 |
|     750 | 0x0E10      |        3600 |
|     751 | 0x218C      |        8588 |
|     752 | 0x218D      |        8589 |
|     753 | 0x218E      |        8590 |
|     754 | 0x218F      |        8591 |
|     755 | 0x0859      |        2137 |
|     756 | 0x2190      |        8592 |
|     757 | 0x2191      |        8593 |
|     758 | 0xCF79      |       53113 |
|     759 | 0xFFFB6C3C  |  4294667324 |
|     760 | 0x0155      |         341 |
|     761 | 0x0A9C      |        2716 |
|     762 | 0xCE7E      |       52862 |
|     763 | 0xFFFB75F1  |  4294669809 |
|     764 | 0x0162      |         354 |
|     765 | 0x0051      |          81 |
|     766 | 0xCEBE      |       52926 |
|     767 | 0xFFFB78F4  |  4294670580 |
|     768 | 0x015F      |         351 |
|     769 | 0x0F30      |        3888 |
|     770 | 0x01A2      |         418 |
|     771 | 0x0488      |        1160 |
|     772 | 0x20B1      |        8369 |
|     773 | 0x20B2      |        8370 |
|     774 | 0x20B3      |        8371 |
|     775 | 0x0024      |          36 |
|     776 | 0xCD39      |       52537 |
|     777 | 0xFFFB6DC6  |  4294667718 |
|     778 | 0x0172      |         370 |
|     779 | 0x0489      |        1161 |
|     780 | 0x2127      |        8487 |
|     781 | 0x00C9      |         201 |
|     782 | 0x00D7      |         215 |

## String References

- **7708**: @@
- **8487**: You obtain $6!

## Events

### Event 65535

#### Metadata

| Field        | Value   |
|--------------|---------|
| Entrypoint   | 0x0000  |
| Data Size    | 1 bytes |
| Instructions | 1       |

```
      00 01 02 03 04 05 06 07  08 09 0A 0B 0C 0D 0E 0F
      -- -- -- -- -- -- -- --  -- -- -- -- -- -- -- --
0000: 00                                                .               
```

#### Opcodes

```
  0: 0x0000 [0x00] END_REQSTACK()
```

### Event 16

#### Metadata

| Field        | Value       |
|--------------|-------------|
| Entrypoint   | 0x0001      |
| Data Size    | 13427 bytes |
| Instructions | 1474        |

```
      00 01 02 03 04 05 06 07  08 09 0A 0B 0C 0D 0E 0F
      -- -- -- -- -- -- -- --  -- -- -- -- -- -- -- --
0000:    42 1A 56 89 46 01 03  00 00 02 10 38 00 80 5D   B.V.F......8..]
0010: 01 80 02 80 27 10 54 83  08 01 04 27 10 55 83 08  ....'.T....'.U..
0020: 01 04 27 10 56 83 08 01  04 27 10 58 83 08 01 04  ..'.V....'.X....
0030: 27 10 59 83 08 01 04 27  10 61 83 08 01 02 27 10  '.Y....'.a....'.
0040: 66 83 08 01 04 27 10 67  83 08 01 04 27 10 69 83  f....'.g....'.i.
0050: 08 01 0A 2F 00 6C 83 08  01 2F 00 6D 83 08 01 2F  .../.l.../.m.../
0060: 00 6E 83 08 01 4E 00 6C  83 08 01 4E 00 6D 83 08  .n...N.l...N.m..
0070: 01 4E 00 6E 83 08 01 92  01 54 83 08 01 92 01 55  .N.n.....T.....U
0080: 83 08 01 92 01 56 83 08  01 92 01 58 83 08 01 92  .....V.....X....
0090: 01 59 83 08 01 92 01 66  83 08 01 92 01 67 83 08  .Y.....f.....g..
00A0: 01 92 01 69 83 08 01 92  01 6C 83 08 01 92 01 6D  ...i.....l.....m
00B0: 83 08 01 92 01 6E 83 08  01 92 01 61 83 08 01 94  .....n.....a....
00C0: 01 F0 FF FF 7F 94 01 54  83 08 01 94 01 55 83 08  .......T.....U..
00D0: 01 94 01 56 83 08 01 94  01 58 83 08 01 94 01 59  ...V.....X.....Y
00E0: 83 08 01 94 01 61 83 08  01 94 01 66 83 08 01 94  .....a.....f....
00F0: 01 67 83 08 01 94 01 69  83 08 01 94 01 6C 83 08  .g.....i.....l..
0100: 01 94 01 6D 83 08 01 94  01 6E 83 08 01 BA F0 FF  ...m.....n......
0110: FF 7F 03 80 04 80 05 80  06 80 BA 54 83 08 01 07  ...........T....
0120: 80 08 80 09 80 0A 80 BA  55 83 08 01 07 80 08 80  ........U.......
0130: 09 80 0A 80 BA 56 83 08  01 0B 80 0C 80 0D 80 0E  .....V..........
0140: 80 59 05 58 83 08 01 01  59 05 59 83 08 01 01 BA  .Y.X....Y.Y.....
0150: 58 83 08 01 0F 80 10 80  11 80 12 80 BA 59 83 08  X............Y..
0160: 01 13 80 14 80 15 80 16  80 BA 69 83 08 01 17 80  ..........i.....
0170: 18 80 19 80 16 80 BA 66  83 08 01 1A 80 1B 80 1C  .......f........
0180: 80 1D 80 BA 67 83 08 01  1A 80 1B 80 1C 80 1D 80  ....g...........
0190: 59 05 6C 83 08 01 01 BA  61 83 08 01 07 80 08 80  Y.l.....a.......
01A0: 09 80 0A 80 BA 6C 83 08  01 1E 80 1F 80 20 80 21  .....l....... .!
01B0: 80 BA 6D 83 08 01 22 80  23 80 24 80 1D 80 80 F0  ..m...".#.$.....
01C0: FF FF 7F 80 54 83 08 01  80 55 83 08 01 80 56 83  ....T....U....V.
01D0: 08 01 80 58 83 08 01 80  59 83 08 01 80 61 83 08  ...X....Y....a..
01E0: 01 80 66 83 08 01 80 67  83 08 01 80 69 83 08 01  ..f....g....i...
01F0: 80 6C 83 08 01 80 6D 83  08 01 80 6E 83 08 01 29  .l....m....n...)
0200: 10 56 83 08 01 4A 1C 25  80 5C 00 26 80 5C 01 26  .V...J.%.\.&.\.&
0210: 80 5C 02 26 80 5C 03 26  80 9A 27 10 F0 FF FF 7F  .\.&.\.&..'.....
0220: 06 5B 27 80 54 83 08 01  54 83 08 01 6E 64 61 30  .['.T...T...nda0
0230: 5B 28 80 55 83 08 01 55  83 08 01 6E 64 61 30 5B  [(.U...U...nda0[
0240: 29 80 56 83 08 01 56 83  08 01 6B 61 6D 30 81 00  ).V...V...kam0..
0250: 59 83 08 01 5B 2A 80 59  83 08 01 59 83 08 01 61  Y...[*.Y...Y...a
0260: 74 6D 35 C5 2B 80 59 83  08 01 59 83 08 01 73 30  tm5.+.Y...Y...s0
0270: 30 32 01 80 5B 2C 80 69  83 08 01 69 83 08 01 63  02..[,.i...i...c
0280: 72 67 33 5B 27 80 66 83  08 01 66 83 08 01 6E 64  rg3['.f...f...nd
0290: 61 31 5B 28 80 67 83 08  01 67 83 08 01 6E 64 61  a1[(.g...g...nda
02A0: 61 27 10 66 83 08 01 09  27 10 67 83 08 01 09 29  a'.f....'.g....)
02B0: 10 69 83 08 01 04 29 10  58 83 08 01 10 29 10 6C  .i....).X....).l
02C0: 83 08 01 03 27 10 54 83  08 01 09 27 10 55 83 08  ....'.T....'.U..
02D0: 01 0E 27 10 66 83 08 01  0B 27 10 67 83 08 01 0B  ..'.f....'.g....
02E0: 4E 01 61 83 08 01 6C 6C  83 08 01 01 80 2D 80 5B  N.a...ll.....-.[
02F0: 2E 80 6C 83 08 01 6C 83  08 01 66 6C 79 6C 59 05  ..l...l...flylY.
0300: 58 83 08 01 01 59 05 59  83 08 01 01 BA 58 83 08  X....Y.Y.....X..
0310: 01 0F 80 10 80 11 80 12  80 BA 59 83 08 01 13 80  ..........Y.....
0320: 14 80 15 80 16 80 5B 2C  80 69 83 08 01 69 83 08  ......[,.i...i..
0330: 01 63 72 67 34 C5 2F 80  69 83 08 01 69 83 08 01  .crg4./.i...i...
0340: 73 30 30 30 01 80 45 30  80 69 83 08 01 69 83 08  s000..E0.i...i..
0350: 01 73 65 30 31 01 80 45  30 80 F0 FF FF 7F F0 FF  .se01..E0.......
0360: FF 7F 7A 30 30 34 01 80  1A 35 89 1C 02 80 29 10  ..z004...5....).
0370: F0 FF FF 7F 02 52 30 80  F0 FF FF 7F F0 FF FF 7F  .....R0.........
0380: 7A 30 30 34 02 02 10 31  80 80 A0 03 45 30 80 F0  z004...1....E0..
0390: FF FF 7F F0 FF FF 7F 7A  67 30 30 01 80 01 21 04  .......zg00...!.
03A0: 02 02 10 32 80 80 BC 03  45 30 80 F0 FF FF 7F F0  ...2....E0......
03B0: FF FF 7F 7A 67 30 30 01  80 01 21 04 02 02 10 33  ...zg00...!....3
03C0: 80 80 D8 03 45 30 80 F0  FF FF 7F F0 FF FF 7F 7A  ....E0.........z
03D0: 74 30 30 01 80 01 21 04  02 02 10 34 80 80 F4 03  t00...!....4....
03E0: 45 30 80 F0 FF FF 7F F0  FF FF 7F 7A 74 30 30 01  E0.........zt00.
03F0: 80 01 21 04 02 02 10 35  80 80 10 04 45 30 80 F0  ..!....5....E0..
0400: FF FF 7F F0 FF FF 7F 7A  74 30 30 01 80 01 21 04  .......zt00...!.
0410: 45 30 80 F0 FF FF 7F F0  FF FF 7F 7A 30 30 30 01  E0.........z000.
0420: 80 1C 36 80 03 02 10 02  80 27 10 F0 FF FF 7F 4C  ..6......'.....L
0430: 2B 54 83 08 01 37 80 23  2A 10 F0 FF FF 7F 29 10  +T...7.#*.....).
0440: F0 FF FF 7F 02 52 30 80  F0 FF FF 7F F0 FF FF 7F  .....R0.........
0450: 7A 30 30 30 52 30 80 F0  FF FF 7F F0 FF FF 7F 7A  z000R0.........z
0460: 67 30 30 52 30 80 F0 FF  FF 7F F0 FF FF 7F 7A 74  g00R0.........zt
0470: 30 30 02 02 10 33 80 80  8E 04 45 30 80 F0 FF FF  00...3....E0....
0480: 7F F0 FF FF 7F 7A 74 30  31 01 80 01 D7 04 02 02  .....zt01.......
0490: 10 34 80 80 AA 04 45 30  80 F0 FF FF 7F F0 FF FF  .4....E0........
04A0: 7F 7A 74 30 31 01 80 01  D7 04 02 02 10 35 80 80  .zt01........5..
04B0: C6 04 45 30 80 F0 FF FF  7F F0 FF FF 7F 7A 74 30  ..E0.........zt0
04C0: 31 01 80 01 D7 04 45 30  80 F0 FF FF 7F F0 FF FF  1.....E0........
04D0: 7F 7A 30 30 31 01 80 1C  38 80 52 30 80 F0 FF FF  .z001...8.R0....
04E0: 7F F0 FF FF 7F 7A 74 30  31 52 30 80 F0 FF FF 7F  .....zt01R0.....
04F0: F0 FF FF 7F 7A 30 30 31  45 30 80 F0 FF FF 7F F0  ....z001E0......
0500: FF FF 7F 7A 30 30 35 01  80 1C 21 80 C5 39 80 6C  ...z005...!..9.l
0510: 83 08 01 6C 83 08 01 73  30 30 32 01 80 1C 3A 80  ...l...s002...:.
0520: BA 56 83 08 01 3B 80 3C  80 3D 80 0E 80 52 30 80  .V...;.<.=...R0.
0530: F0 FF FF 7F F0 FF FF 7F  7A 30 30 35 45 30 80 F0  ........z005E0..
0540: FF FF 7F F0 FF FF 7F 7A  30 30 36 01 80 1C 3E 80  .......z006...>.
0550: 29 10 F0 FF FF 7F 02 52  30 80 F0 FF FF 7F F0 FF  )......R0.......
0560: FF 7F 7A 30 30 36 02 02  10 33 80 80 82 05 45 30  ..z006...3....E0
0570: 80 F0 FF FF 7F F0 FF FF  7F 7A 74 30 37 01 80 01  .........zt07...
0580: AF 05 02 02 10 34 80 80  9E 05 45 30 80 F0 FF FF  .....4....E0....
0590: 7F F0 FF FF 7F 7A 74 30  37 01 80 01 AF 05 45 30  .....zt07.....E0
05A0: 80 F0 FF FF 7F F0 FF FF  7F 7A 30 30 37 01 80 1C  .........z007...
05B0: 3F 80 52 30 80 F0 FF FF  7F F0 FF FF 7F 7A 30 30  ?.R0.........z00
05C0: 37 52 30 80 F0 FF FF 7F  F0 FF FF 7F 7A 74 30 37  7R0.........zt07
05D0: 45 30 80 F0 FF FF 7F F0  FF FF 7F 7A 30 30 38 01  E0.........z008.
05E0: 80 1C 40 80 03 02 10 40  80 27 10 F0 FF FF 7F 4C  ..@....@.'.....L
05F0: 7C 00 56 83 08 01 2B 56  83 08 01 41 80 23 7C 01  |.V...+V...A.#|.
0600: 56 83 08 01 2A 10 F0 FF  FF 7F 52 30 80 F0 FF FF  V...*.....R0....
0610: 7F F0 FF FF 7F 7A 30 30  38 45 30 80 F0 FF FF 7F  .....z008E0.....
0620: F0 FF FF 7F 77 30 30 36  01 80 1C 02 80 C5 2B 80  ....w006......+.
0630: 59 83 08 01 59 83 08 01  6B 69 6C 31 01 80 52 30  Y...Y...kil1..R0
0640: 80 F0 FF FF 7F F0 FF FF  7F 77 30 30 36 45 30 80  .........w006E0.
0650: F0 FF FF 7F F0 FF FF 7F  77 30 30 38 01 80 1C 42  ........w008...B
0660: 80 2B 58 83 08 01 43 80  23 1C 44 80 52 30 80 F0  .+X...C.#.D.R0..
0670: FF FF 7F F0 FF FF 7F 77  30 30 38 45 30 80 F0 FF  .......w008E0...
0680: FF 7F F0 FF FF 7F 77 30  30 35 01 80 C7 39 80 6C  ......w005...9.l
0690: 83 08 01 6C 83 08 01 73  30 30 32 27 10 6C 83 08  ...l...s002'.l..
06A0: 01 05 BA 56 83 08 01 0B  80 0C 80 0D 80 0E 80 5B  ...V...........[
06B0: 45 80 58 83 08 01 58 83  08 01 74 6C 61 30 29 10  E.X...X...tla0).
06C0: 58 83 08 01 11 1C 25 80  2B 58 83 08 01 46 80 23  X.....%.+X...F.#
06D0: 5B 45 80 58 83 08 01 58  83 08 01 74 6C 61 31 1C  [E.X...X...tla1.
06E0: 40 80 59 01 58 83 08 01  47 80 4A 58 83 08 01 F0  @.Y.X...G.JX....
06F0: FF FF 7F 1C 25 80 52 30  80 F0 FF FF 7F F0 FF FF  ....%.R0........
0700: 7F 77 30 30 35 45 30 80  F0 FF FF 7F F0 FF FF 7F  .w005E0.........
0710: 77 30 30 34 01 80 1C 48  80 2B 58 83 08 01 49 80  w004...H.+X...I.
0720: 23 2B 58 83 08 01 4A 80  23 29 10 F0 FF FF 7F 02  #+X...J.#)......
0730: 52 30 80 F0 FF FF 7F F0  FF FF 7F 77 30 30 34 02  R0.........w004.
0740: 02 10 31 80 80 5B 07 45  30 80 F0 FF FF 7F F0 FF  ..1..[.E0.......
0750: FF 7F 7A 65 30 32 01 80  01 DC 07 02 02 10 4B 80  ..ze02........K.
0760: 80 77 07 45 30 80 F0 FF  FF 7F F0 FF FF 7F 7A 65  .w.E0.........ze
0770: 30 32 01 80 01 DC 07 02  02 10 33 80 80 93 07 45  02........3....E
0780: 30 80 F0 FF FF 7F F0 FF  FF 7F 7A 74 30 32 01 80  0.........zt02..
0790: 01 DC 07 02 02 10 34 80  80 AF 07 45 30 80 F0 FF  ......4....E0...
07A0: FF 7F F0 FF FF 7F 7A 74  30 32 01 80 01 DC 07 02  ......zt02......
07B0: 02 10 32 80 80 CB 07 45  30 80 F0 FF FF 7F F0 FF  ..2....E0.......
07C0: FF 7F 7A 67 30 32 01 80  01 DC 07 45 30 80 F0 FF  ..zg02.....E0...
07D0: FF 7F F0 FF FF 7F 7A 30  30 32 01 80 1C 44 80 C5  ......z002...D..
07E0: 4C 80 F8 FF FF 7F F8 FF  FF 7F 73 30 30 30 01 80  L.........s000..
07F0: 45 30 80 6D 83 08 01 6D  83 08 01 73 65 30 30 01  E0.m...m...se00.
0800: 80 1C 44 80 27 10 F0 FF  FF 7F 07 4E 01 69 83 08  ..D.'......N.i..
0810: 01 1C 42 80 5B 27 80 54  83 08 01 54 83 08 01 6E  ..B.['.T...T...n
0820: 64 61 61 1C 4D 80 52 30  80 F0 FF FF 7F F0 FF FF  daa.M.R0........
0830: 7F 7A 30 30 32 52 30 80  F0 FF FF 7F F0 FF FF 7F  .z002R0.........
0840: 7A 65 30 32 52 30 80 F0  FF FF 7F F0 FF FF 7F 7A  ze02R0.........z
0850: 74 30 32 52 30 80 F0 FF  FF 7F F0 FF FF 7F 7A 67  t02R0.........zg
0860: 30 32 45 30 80 F0 FF FF  7F F0 FF FF 7F 7A 30 30  02E0.........z00
0870: 33 01 80 5B 28 80 55 83  08 01 55 83 08 01 6E 64  3..[(.U...U...nd
0880: 61 61 03 02 10 4E 80 27  10 CC 82 08 01 01 1C 44  aa...N.'.......D
0890: 80 2B 54 83 08 01 4F 80  23 2A 10 CC 82 08 01 C5  .+T...O.#*......
08A0: 4C 80 F8 FF FF 7F F8 FF  FF 7F 73 30 30 30 01 80  L.........s000..
08B0: 45 30 80 6D 83 08 01 6D  83 08 01 73 65 30 30 01  E0.m...m...se00.
08C0: 80 6B 69 64 6C 30 56 83  08 01 C5 2B 80 59 83 08  .kidl0V....+.Y..
08D0: 01 59 83 08 01 73 30 30  32 01 80 1C 25 80 52 30  .Y...s002...%.R0
08E0: 80 F0 FF FF 7F F0 FF FF  7F 7A 30 30 33 45 30 80  .........z003E0.
08F0: F0 FF FF 7F F0 FF FF 7F  77 30 30 33 01 80 1C 44  ........w003...D
0900: 80 81 00 56 83 08 01 5B  50 80 56 83 08 01 56 83  ...V...[P.V...V.
0910: 08 01 66 64 30 30 BB 51  80 59 83 08 01 59 83 08  ..fd00.Q.Y...Y..
0920: 01 73 74 30 33 01 80 1C  40 80 C5 2B 80 59 83 08  .st03...@..+.Y..
0930: 01 59 83 08 01 73 74 30  31 01 80 4A 56 83 08 01  .Y...st01..JV...
0940: 59 83 08 01 1C 52 80 52  30 80 F0 FF FF 7F F0 FF  Y....R.R0.......
0950: FF 7F 77 30 30 33 45 30  80 F0 FF FF 7F F0 FF FF  ..w003E0........
0960: 7F 77 31 30 33 01 80 27  10 56 83 08 01 0F 1C 47  .w103..'.V.....G
0970: 80 2B 56 83 08 01 53 80  23 C5 4C 80 F8 FF FF 7F  .+V...S.#.L.....
0980: F8 FF FF 7F 73 30 30 30  01 80 45 30 80 6D 83 08  ....s000..E0.m..
0990: 01 6D 83 08 01 73 65 30  30 01 80 1C 25 80 BA 6D  .m...se00...%..m
09A0: 83 08 01 54 80 55 80 56  80 57 80 52 30 80 F0 FF  ...T.U.V.W.R0...
09B0: FF 7F F0 FF FF 7F 77 31  30 33 45 30 80 F0 FF FF  ......w103E0....
09C0: 7F F0 FF FF 7F 77 30 30  30 01 80 1C 52 80 7B 56  .....w000...R.{V
09D0: 83 08 01 81 00 56 83 08  01 5B 50 80 56 83 08 01  .....V...[P.V...
09E0: 56 83 08 01 66 30 30 30  C5 4C 80 F8 FF FF 7F F8  V...f000.L......
09F0: FF FF 7F 73 30 30 30 01  80 52 30 80 F0 FF FF 7F  ...s000..R0.....
0A00: F0 FF FF 7F 77 30 30 30  45 30 80 F0 FF FF 7F F0  ....w000E0......
0A10: FF FF 7F 77 30 30 31 01  80 45 30 80 6D 83 08 01  ...w001..E0.m...
0A20: 6D 83 08 01 73 65 30 32  01 80 1C 36 80 C5 4C 80  m...se02...6..L.
0A30: F8 FF FF 7F F8 FF FF 7F  73 30 30 31 01 80 1C 58  ........s001...X
0A40: 80 52 30 80 F0 FF FF 7F  F0 FF FF 7F 77 30 30 31  .R0.........w001
0A50: 45 30 80 F0 FF FF 7F F0  FF FF 7F 78 30 30 31 01  E0.........x001.
0A60: 80 1C 38 80 C5 4C 80 F8  FF FF 7F F8 FF FF 7F 73  ..8..L.........s
0A70: 30 30 33 01 80 52 30 80  F0 FF FF 7F F0 FF FF 7F  003..R0.........
0A80: 78 30 30 31 45 30 80 F0  FF FF 7F F0 FF FF 7F 77  x001E0.........w
0A90: 30 30 37 01 80 27 10 F0  FF FF 7F 02 1C 58 80 52  007..'.......X.R
0AA0: 30 80 F0 FF FF 7F F0 FF  FF 7F 77 30 30 37 C5 4C  0.........w007.L
0AB0: 80 F8 FF FF 7F F8 FF FF  7F 6B 69 6C 61 01 80 02  .........kila...
0AC0: 02 10 33 80 80 DB 0A 45  30 80 F0 FF FF 7F F0 FF  ..3....E0.......
0AD0: FF 7F 78 74 30 32 01 80  01 08 0B 02 02 10 34 80  ..xt02........4.
0AE0: 80 F7 0A 45 30 80 F0 FF  FF 7F F0 FF FF 7F 78 74  ...E0.........xt
0AF0: 30 32 01 80 01 08 0B 45  30 80 F0 FF FF 7F F0 FF  02.....E0.......
0B00: FF 7F 78 30 30 32 01 80  C5 4C 80 F8 FF FF 7F F8  ..x002...L......
0B10: FF FF 7F 73 30 30 33 01  80 BA 6D 83 08 01 22 80  ...s003...m...".
0B20: 23 80 24 80 1D 80 1C 59  80 45 30 80 6D 83 08 01  #.$....Y.E0.m...
0B30: 6D 83 08 01 73 65 30 33  01 80 BB 5A 80 58 83 08  m...se03...Z.X..
0B40: 01 58 83 08 01 69 6E 30  30 01 80 BB 51 80 59 83  .X...in00...Q.Y.
0B50: 08 01 59 83 08 01 73 74  30 32 01 80 C5 2B 80 59  ..Y...st02...+.Y
0B60: 83 08 01 59 83 08 01 73  74 30 31 01 80 1C 44 80  ...Y...st01...D.
0B70: 5B 27 80 54 83 08 01 54  83 08 01 6E 64 61 31 03  ['.T...T...nda1.
0B80: 02 10 02 80 27 10 F0 FF  FF 7F 4C 1C 25 80 52 30  ....'.....L.%.R0
0B90: 80 F0 FF FF 7F F0 FF FF  7F 78 74 30 32 52 30 80  .........xt02R0.
0BA0: F0 FF FF 7F F0 FF FF 7F  78 30 30 32 45 30 80 F0  ........x002E0..
0BB0: FF FF 7F F0 FF FF 7F 78  30 30 33 01 80 1C 2D 80  .......x003...-.
0BC0: C5 4C 80 F8 FF FF 7F F8  FF FF 7F 6B 69 6C 61 01  .L.........kila.
0BD0: 80 81 00 54 83 08 01 7C  00 54 83 08 01 2B 54 83  ...T...|.T...+T.
0BE0: 08 01 5B 80 1C 47 80 29  10 F0 FF FF 7F 02 52 30  ..[..G.)......R0
0BF0: 80 F0 FF FF 7F F0 FF FF  7F 78 30 30 33 45 30 80  .........x003E0.
0C00: F0 FF FF 7F F0 FF FF 7F  77 30 30 32 01 80 C5 4C  ........w002...L
0C10: 80 F8 FF FF 7F F8 FF FF  7F 73 30 30 30 01 80 1C  .........s000...
0C20: 44 80 C5 4C 80 F8 FF FF  7F F8 FF FF 7F 73 30 30  D..L.........s00
0C30: 33 01 80 2A 10 F0 FF FF  7F 5B 5C 80 54 83 08 01  3..*.....[\.T...
0C40: 54 83 08 01 6E 64 61 32  5B 28 80 55 83 08 01 55  T...nda2[(.U...U
0C50: 83 08 01 6E 64 61 32 5B  5C 80 66 83 08 01 66 83  ...nda2[\.f...f.
0C60: 08 01 6E 64 61 32 5B 28  80 67 83 08 01 67 83 08  ..nda2[(.g...g..
0C70: 01 6E 64 61 32 52 30 80  F0 FF FF 7F F0 FF FF 7F  .nda2R0.........
0C80: 77 30 30 32 45 30 80 F0  FF FF 7F F0 FF FF 7F 78  w002E0.........x
0C90: 31 30 33 01 80 1C 5D 80  27 10 66 83 08 01 0A 27  103...].'.f....'
0CA0: 10 67 83 08 01 0A 2B 55  83 08 01 5E 80 1C 5F 80  .g....+U...^.._.
0CB0: 52 30 80 F0 FF FF 7F F0  FF FF 7F 78 31 30 33 45  R0.........x103E
0CC0: 30 80 F0 FF FF 7F F0 FF  FF 7F 78 64 30 34 01 80  0.........xd04..
0CD0: 1C 5D 80 BA F0 FF FF 7F  60 80 61 80 62 80 63 80  .]......`.a.b.c.
0CE0: BA 56 83 08 01 64 80 65  80 66 80 63 80 2B 55 83  .V...d.e.f.c.+U.
0CF0: 08 01 67 80 1C 44 80 52  30 80 F0 FF FF 7F F0 FF  ..g..D.R0.......
0D00: FF 7F 78 64 30 34 C5 4C  80 F8 FF FF 7F F8 FF FF  ..xd04.L........
0D10: 7F 6B 69 6C 61 01 80 02  02 10 31 80 80 33 0D 45  .kila.....1..3.E
0D20: 30 80 F0 FF FF 7F F0 FF  FF 7F 79 65 30 33 01 80  0.........ye03..
0D30: 01 B4 0D 02 02 10 4B 80  80 4F 0D 45 30 80 F0 FF  ......K..O.E0...
0D40: FF 7F F0 FF FF 7F 79 65  30 33 01 80 01 B4 0D 02  ......ye03......
0D50: 02 10 33 80 80 6B 0D 45  30 80 F0 FF FF 7F F0 FF  ..3..k.E0.......
0D60: FF 7F 79 74 30 33 01 80  01 B4 0D 02 02 10 34 80  ..yt03........4.
0D70: 80 87 0D 45 30 80 F0 FF  FF 7F F0 FF FF 7F 79 74  ...E0.........yt
0D80: 30 33 01 80 01 B4 0D 02  02 10 32 80 80 A3 0D 45  03........2....E
0D90: 30 80 F0 FF FF 7F F0 FF  FF 7F 79 67 30 33 01 80  0.........yg03..
0DA0: 01 B4 0D 45 30 80 F0 FF  FF 7F F0 FF FF 7F 79 30  ...E0.........y0
0DB0: 30 33 01 80 1C 68 80 4E  01 54 83 08 01 4E 01 55  03...h.N.T...N.U
0DC0: 83 08 01 4E 01 66 83 08  01 4E 01 67 83 08 01 C5  ...N.f...N.g....
0DD0: 4C 80 F8 FF FF 7F F8 FF  FF 7F 73 30 30 33 01 80  L.........s003..
0DE0: C5 4C 80 F8 FF FF 7F F8  FF FF 7F 73 30 30 32 01  .L.........s002.
0DF0: 80 1C 68 80 5B 50 80 56  83 08 01 56 83 08 01 62  ..h.[P.V...V...b
0E00: 69 6B 30 6E F0 FF FF 7F  69 80 99 F0 FF FF 7F 1C  ik0n....i.......
0E10: 42 80 52 30 80 F0 FF FF  7F F0 FF FF 7F 79 65 30  B.R0.........ye0
0E20: 33 52 30 80 F0 FF FF 7F  F0 FF FF 7F 79 74 30 33  3R0.........yt03
0E30: 52 30 80 F0 FF FF 7F F0  FF FF 7F 79 67 30 33 52  R0.........yg03R
0E40: 30 80 F0 FF FF 7F F0 FF  FF 7F 79 30 30 33 45 30  0.........y003E0
0E50: 80 F0 FF FF 7F F0 FF FF  7F 79 31 30 34 01 80 4E  .........y104..N
0E60: 01 F0 FF FF 7F 4E 01 56  83 08 01 5D 01 80 6A 80  .....N.V...]..j.
0E70: 1C 6B 80 1A 56 89 1C 25  80 45 30 80 6D 83 08 01  .k..V..%.E0.m...
0E80: 6D 83 08 01 6E 61 64 6B  01 80 52 30 80 F0 FF FF  m...nadk..R0....
0E90: 7F F0 FF FF 7F 79 31 30  34 7B 58 83 08 01 7B 59  .....y104{X...{Y
0EA0: 83 08 01 4E 01 58 83 08  01 4E 01 59 83 08 01 4E  ...N.X...N.Y...N
0EB0: 00 69 83 08 01 4E 00 54  83 08 01 4E 00 55 83 08  .i...N.T...N.U..
0EC0: 01 4E 00 66 83 08 01 4E  00 67 83 08 01 4E 00 56  .N.f...N.g...N.V
0ED0: 83 08 01 4E 00 F0 FF FF  7F 4E 00 61 83 08 01 1C  ...N.....N.a....
0EE0: 2D 80 29 10 56 83 08 01  41 80 F0 FF FF 7F 80 54  -.).V...A......T
0EF0: 83 08 01 80 55 83 08 01  80 56 83 08 01 80 66 83  ....U....V....f.
0F00: 08 01 80 67 83 08 01 80  69 83 08 01 80 61 83 08  ...g....i....a..
0F10: 01 80 6C 83 08 01 80 6D  83 08 01 80 6E 83 08 01  ..l....m....n...
0F20: 29 10 69 83 08 01 03 80  69 83 08 01 59 05 69 83  ).i.....i...Y.i.
0F30: 08 01 01 BA 69 83 08 01  6C 80 6D 80 6E 80 6F 80  ....i...l.m.n.o.
0F40: 6C 69 83 08 01 01 80 2D  80 29 10 61 83 08 01 08  li.....-.).a....
0F50: 80 61 83 08 01 59 05 61  83 08 01 01 BA 61 83 08  .a...Y.a.....a..
0F60: 01 07 80 08 80 70 80 0A  80 C5 71 80 55 83 08 01  .....p....q.U...
0F70: 55 83 08 01 73 74 30 31  01 80 59 05 66 83 08 01  U...st01..Y.f...
0F80: 01 BA 66 83 08 01 72 80  73 80 74 80 75 80 BA 67  ..f...r.s.t.u..g
0F90: 83 08 01 76 80 77 80 09  80 0A 80 5B 78 80 69 83  ...v.w.....[x.i.
0FA0: 08 01 69 83 08 01 6D 67  62 30 5B 79 80 61 83 08  ..i...mgb0[y.a..
0FB0: 01 61 83 08 01 6E 64 61  35 5B 7A 80 66 83 08 01  .a...nda5[z.f...
0FC0: 66 83 08 01 6E 64 61 38  27 10 67 83 08 01 09 27  f...nda8'.g....'
0FD0: 10 66 83 08 01 09 59 05  F0 FF FF 7F 01 59 05 6C  .f....Y......Y.l
0FE0: 83 08 01 01 59 05 6D 83  08 01 01 59 05 6E 83 08  ....Y.m....Y.n..
0FF0: 01 01 29 10 F0 FF FF 7F  02 02 02 10 2D 80 80 11  ..).........-...
1000: 10 BA F0 FF FF 7F 7B 80  7C 80 7D 80 57 80 01 B9  ......{.|.}.W...
1010: 10 02 02 10 7E 80 80 29  10 BA F0 FF FF 7F 7B 80  ....~..)......{.
1020: 7C 80 7F 80 57 80 01 B9  10 02 02 10 31 80 80 41  |...W.......1..A
1030: 10 BA F0 FF FF 7F 7B 80  7C 80 80 80 57 80 01 B9  ......{.|...W...
1040: 10 02 02 10 4B 80 80 59  10 BA F0 FF FF 7F 7B 80  ....K..Y......{.
1050: 7C 80 81 80 57 80 01 B9  10 02 02 10 33 80 80 71  |...W.......3..q
1060: 10 BA F0 FF FF 7F 7B 80  7C 80 20 80 57 80 01 B9  ......{.|. .W...
1070: 10 02 02 10 34 80 80 89  10 BA F0 FF FF 7F 7B 80  ....4.........{.
1080: 7C 80 20 80 57 80 01 B9  10 02 02 10 35 80 80 A1  |. .W.......5...
1090: 10 BA F0 FF FF 7F 7B 80  7C 80 82 80 57 80 01 B9  ......{.|...W...
10A0: 10 02 02 10 32 80 80 B9  10 BA F0 FF FF 7F 7B 80  ....2.........{.
10B0: 7C 80 83 80 57 80 01 B9  10 29 10 F0 FF FF 7F 4B  |...W....).....K
10C0: 1C 4D 80 92 01 F0 FF FF  7F 4E 01 F0 FF FF 7F BA  .M.......N......
10D0: 56 83 08 01 84 80 85 80  86 80 87 80 C5 88 80 56  V..............V
10E0: 83 08 01 56 83 08 01 73  30 30 30 01 80 81 00 56  ...V...s000....V
10F0: 83 08 01 7C 00 56 83 08  01 5B 89 80 56 83 08 01  ...|.V...[..V...
1100: 56 83 08 01 7A 62 6F 30  BA 6C 83 08 01 7B 80 7C  V...zbo0.l...{.|
1110: 80 8A 80 57 80 BA 6D 83  08 01 8B 80 8C 80 8D 80  ...W..m.........
1120: 8E 80 BA 6E 83 08 01 8F  80 90 80 91 80 92 80 C5  ...n............
1130: 93 80 6C 83 08 01 6C 83  08 01 73 30 30 32 01 80  ..l...l...s002..
1140: C5 93 80 6D 83 08 01 6D  83 08 01 73 30 30 32 01  ...m...m...s002.
1150: 80 C5 93 80 6E 83 08 01  6E 83 08 01 73 30 30 32  ....n...n...s002
1160: 01 80 1C 02 80 45 30 80  F0 FF FF 7F F0 FF FF 7F  .....E0.........
1170: 79 30 30 35 01 80 1A 35  89 C5 4C 80 F8 FF FF 7F  y005...5..L.....
1180: F8 FF FF 7F 73 30 30 34  01 80 1C 94 80 52 30 80  ....s004.....R0.
1190: F0 FF FF 7F F0 FF FF 7F  79 30 30 35 45 30 80 F0  ........y005E0..
11A0: FF FF 7F F0 FF FF 7F 79  30 30 36 01 80 1C 95 80  .......y006.....
11B0: 52 30 80 F0 FF FF 7F F0  FF FF 7F 79 30 30 36 45  R0.........y006E
11C0: 30 80 F0 FF FF 7F F0 FF  FF 7F 78 32 30 35 01 80  0.........x205..
11D0: 81 00 55 83 08 01 1C 96  80 6C 69 83 08 01 97 80  ..U......li.....
11E0: 2D 80 52 30 80 F0 FF FF  7F F0 FF FF 7F 78 32 30  -.R0.........x20
11F0: 35 45 30 80 F0 FF FF 7F  F0 FF FF 7F 78 31 30 35  5E0.........x105
1200: 01 80 1C 98 80 52 30 80  F0 FF FF 7F F0 FF FF 7F  .....R0.........
1210: 78 31 30 35 45 30 80 F0  FF FF 7F F0 FF FF 7F 78  x105E0.........x
1220: 33 30 35 01 80 1C 42 80  5B 5C 80 54 83 08 01 54  305...B.[\.T...T
1230: 83 08 01 6E 64 61 33 5B  28 80 55 83 08 01 55 83  ...nda3[(.U...U.
1240: 08 01 6E 64 61 33 5B 28  80 67 83 08 01 67 83 08  ..nda3[(.g...g..
1250: 01 6E 64 61 33 03 02 10  99 80 27 10 F0 FF FF 7F  .nda3.....'.....
1260: 4C 1C 9A 80 52 30 80 F0  FF FF 7F F0 FF FF 7F 78  L...R0.........x
1270: 33 30 35 45 30 80 F0 FF  FF 7F F0 FF FF 7F 78 30  305E0.........x0
1280: 30 35 01 80 1C 9A 80 2B  54 83 08 01 9B 80 23 52  05.....+T.....#R
1290: 30 80 F0 FF FF 7F F0 FF  FF 7F 78 30 30 35 45 30  0.........x005E0
12A0: 80 F0 FF FF 7F F0 FF FF  7F 78 30 30 37 01 80 1C  .........x007...
12B0: 9C 80 C5 71 80 54 83 08  01 54 83 08 01 73 74 30  ...q.T...T...st0
12C0: 34 01 80 52 30 80 F0 FF  FF 7F F0 FF FF 7F 78 30  4..R0.........x0
12D0: 30 37 45 30 80 F0 FF FF  7F F0 FF FF 7F 78 30 30  07E0.........x00
12E0: 36 01 80 03 02 10 9D 80  27 10 F0 FF FF 7F 4C 1C  6.......'.....L.
12F0: 9E 80 2B 54 83 08 01 9F  80 23 2A 10 F0 FF FF 7F  ..+T.....#*.....
1300: 52 30 80 F0 FF FF 7F F0  FF FF 7F 78 30 30 36 45  R0.........x006E
1310: 30 80 F0 FF FF 7F F0 FF  FF 7F 7A 30 30 39 01 80  0.........z009..
1320: 45 30 80 69 83 08 01 69  83 08 01 73 65 61 30 01  E0.i...i...sea0.
1330: 80 1C 38 80 52 30 80 F0  FF FF 7F F0 FF FF 7F 7A  ..8.R0.........z
1340: 30 30 39 45 30 80 F0 FF  FF 7F F0 FF FF 7F 7A 30  009E0.........z0
1350: 31 30 01 80 03 02 10 40  80 27 10 F0 FF FF 7F 4C  10.....@.'.....L
1360: 1C 47 80 C5 71 80 55 83  08 01 55 83 08 01 6B 69  .G..q.U...U...ki
1370: 6C 61 01 80 C5 71 80 67  83 08 01 67 83 08 01 73  la...q.g...g...s
1380: 74 30 33 01 80 2B 55 83  08 01 A0 80 23 5C 00 A1  t03..+U.....#\..
1390: 80 5C 01 A1 80 5C 02 A1  80 5C 03 A1 80 9A 2A 10  .\...\...\....*.
13A0: F0 FF FF 7F 62 A2 80 69  83 08 01 69 83 08 01 6D  ....b..i...i...m
13B0: 61 69 6E 01 80 1C 58 80  5B A3 80 54 83 08 01 54  ain...X.[..T...T
13C0: 83 08 01 6E 64 61 35 5B  79 80 67 83 08 01 67 83  ...nda5[y.g...g.
13D0: 08 01 6E 64 61 35 5B 79  80 55 83 08 01 55 83 08  ..nda5[y.U...U..
13E0: 01 6E 64 61 35 52 30 80  F0 FF FF 7F F0 FF FF 7F  .nda5R0.........
13F0: 7A 30 31 30 45 30 80 F0  FF FF 7F F0 FF FF 7F 78  z010E0.........x
1400: 30 30 38 01 80 45 30 80  69 83 08 01 69 83 08 01  008..E0.i...i...
1410: 73 65 61 6B 01 80 BA 69  83 08 01 6C 80 6D 80 A4  seak...i...l.m..
1420: 80 6F 80 03 02 10 A5 80  27 10 F0 FF FF 7F 4C 1C  .o......'.....L.
1430: 98 80 52 30 80 F0 FF FF  7F F0 FF FF 7F 78 30 30  ..R0.........x00
1440: 38 45 30 80 F0 FF FF 7F  F0 FF FF 7F 78 30 30 39  8E0.........x009
1450: 01 80 6B 69 64 6C 30 69  83 08 01 1C 52 80 1C 40  ..kidl0i....R..@
1460: 80 2A 10 F0 FF FF 7F 52  30 80 F0 FF FF 7F F0 FF  .*.....R0.......
1470: FF 7F 78 30 30 39 45 30  80 F0 FF FF 7F F0 FF FF  ..x009E0........
1480: 7F 78 30 31 30 01 80 27  10 66 83 08 01 0A 5B 7A  .x010..'.f....[z
1490: 80 54 83 08 01 54 83 08  01 6E 64 61 36 BA 69 83  .T...T...nda6.i.
14A0: 08 01 6C 80 6D 80 6E 80  6F 80 1C 98 80 52 30 80  ..l.m.n.o....R0.
14B0: F0 FF FF 7F F0 FF FF 7F  78 30 31 30 45 30 80 F0  ........x010E0..
14C0: FF FF 7F F0 FF FF 7F 78  31 31 31 01 80 45 30 80  .......x111..E0.
14D0: 69 83 08 01 69 83 08 01  73 65 61 30 01 80 1C 68  i...i...sea0...h
14E0: 80 4B 69 83 08 01 75 80  1C 47 80 27 10 69 83 08  .Ki...u..G.'.i..
14F0: 01 05 1C 47 80 52 30 80  F0 FF FF 7F F0 FF FF 7F  ...G.R0.........
1500: 78 31 31 31 45 30 80 F0  FF FF 7F F0 FF FF 7F 78  x111E0.........x
1510: 30 31 32 01 80 45 30 80  69 83 08 01 69 83 08 01  012..E0.i...i...
1520: 73 65 61 6B 01 80 BA 69  83 08 01 A6 80 A7 80 A8  seak...i........
1530: 80 75 80 7A 00 69 83 08  01 5B 7A 80 54 83 08 01  .u.z.i...[z.T...
1540: 54 83 08 01 6E 64 61 37  5B 79 80 55 83 08 01 55  T...nda7[y.U...U
1550: 83 08 01 6E 64 61 37 5B  79 80 67 83 08 01 67 83  ...nda7[y.g...g.
1560: 08 01 6E 64 61 37 1C 9A  80 52 30 80 F0 FF FF 7F  ..nda7...R0.....
1570: F0 FF FF 7F 78 30 31 32  BA 61 83 08 01 07 80 08  ....x012.a......
1580: 80 09 80 0A 80 C5 71 80  61 83 08 01 61 83 08 01  ......q.a...a...
1590: 73 74 30 33 01 80 45 30  80 F0 FF FF 7F F0 FF FF  st03..E0........
15A0: 7F 78 31 31 32 01 80 5B  79 80 61 83 08 01 61 83  .x112..[y.a...a.
15B0: 08 01 6E 64 61 37 C5 71  80 67 83 08 01 67 83 08  ..nda7.q.g...g..
15C0: 01 6B 69 6C 61 01 80 1C  2D 80 6B 64 6C 30 00 67  .kila...-.kdl0.g
15D0: 83 08 01 59 05 67 83 08  01 01 BA 67 83 08 01 72  ...Y.g.....g...r
15E0: 80 73 80 74 80 75 80 1C  2D 80 5B 79 80 67 83 08  .s.t.u..-.[y.g..
15F0: 01 67 83 08 01 6E 64 61  38 27 10 54 83 08 01 0E  .g...nda8'.T....
1600: 27 10 55 83 08 01 0C 27  10 67 83 08 01 0A 1C A9  '.U....'.g......
1610: 80 5B 7A 80 66 83 08 01  66 83 08 01 6E 64 61 39  .[z.f...f...nda9
1620: 5B 79 80 67 83 08 01 67  83 08 01 6E 64 61 39 C5  [y.g...g...nda9.
1630: 71 80 67 83 08 01 67 83  08 01 73 74 30 33 01 80  q.g...g...st03..
1640: 27 10 69 83 08 01 06 1C  2D 80 52 30 80 F0 FF FF  '.i.....-.R0....
1650: 7F F0 FF FF 7F 78 31 31  32 45 30 80 F0 FF FF 7F  .....x112E0.....
1660: F0 FF FF 7F 78 30 31 33  01 80 1C 2D 80 C5 71 80  ....x013...-..q.
1670: 61 83 08 01 61 83 08 01  6B 69 6C 61 01 80 4E 01  a...a...kila..N.
1680: 54 83 08 01 4E 01 55 83  08 01 4E 01 61 83 08 01  T...N.U...N.a...
1690: 2B 54 83 08 01 AA 80 5D  01 80 AB 80 1C 21 80 C5  +T.....].....!..
16A0: 71 80 67 83 08 01 67 83  08 01 73 74 30 32 01 80  q.g...g...st02..
16B0: 1C AC 80 52 30 80 F0 FF  FF 7F F0 FF FF 7F 78 30  ...R0.........x0
16C0: 31 33 45 30 80 F0 FF FF  7F F0 FF FF 7F 78 30 31  13E0.........x01
16D0: 34 01 80 1C 5F 80 4E 01  66 83 08 01 4E 01 67 83  4..._.N.f...N.g.
16E0: 08 01 4E 01 69 83 08 01  C5 71 80 67 83 08 01 67  ..N.i....q.g...g
16F0: 83 08 01 6B 69 6C 61 01  80 C5 88 80 56 83 08 01  ...kila.....V...
1700: 56 83 08 01 73 30 30 31  01 80 5B 89 80 56 83 08  V...s001..[..V..
1710: 01 56 83 08 01 7A 62 6F  31 2B 56 83 08 01 AD 80  .V...zbo1+V.....
1720: 1C AE 80 52 30 80 F0 FF  FF 7F F0 FF FF 7F 78 30  ...R0.........x0
1730: 31 34 45 30 80 F0 FF FF  7F F0 FF FF 7F 78 30 31  14E0.........x01
1740: 35 01 80 1C AF 80 C5 88  80 56 83 08 01 56 83 08  5........V...V..
1750: 01 73 30 30 32 01 80 5B  89 80 56 83 08 01 56 83  .s002..[..V...V.
1760: 08 01 7A 62 6F 32 03 02  10 B0 80 27 10 F0 FF FF  ..zbo2.....'....
1770: 7F 4C 2B 56 83 08 01 B1  80 23 2A 10 F0 FF FF 7F  .L+V.....#*.....
1780: 29 10 F0 FF FF 7F 02 5C  00 B2 80 5C 01 B2 80 5C  )......\...\...\
1790: 02 B2 80 5C 03 B2 80 9A  52 30 80 F0 FF FF 7F F0  ...\....R0......
17A0: FF FF 7F 78 30 31 35 45  30 80 F0 FF FF 7F F0 FF  ...x015E0.......
17B0: FF 7F 78 30 31 37 01 80  1C 40 80 02 02 10 32 80  ..x017...@....2.
17C0: 80 D3 17 BA 6C 83 08 01  7B 80 7C 80 B3 80 B4 80  ....l...{.|.....
17D0: 01 E0 17 BA 6C 83 08 01  7B 80 7C 80 B5 80 B4 80  ....l...{.|.....
17E0: 4E 00 F0 FF FF 7F 92 00  F0 FF FF 7F 2B 56 83 08  N...........+V..
17F0: 01 B6 80 1C 40 80 23 C5  88 80 56 83 08 01 56 83  ....@.#...V...V.
1800: 08 01 73 30 30 33 01 80  5B 89 80 56 83 08 01 56  ..s003..[..V...V
1810: 83 08 01 7A 62 6F 33 03  02 10 B7 80 27 10 F0 FF  ...zbo3.....'...
1820: FF 7F 4C 1C 44 80 52 30  80 F0 FF FF 7F F0 FF FF  ..L.D.R0........
1830: 7F 78 30 31 37 45 30 80  F0 FF FF 7F F0 FF FF 7F  .x017E0.........
1840: 78 30 31 38 01 80 2B 56  83 08 01 B8 80 23 2A 10  x018..+V.....#*.
1850: F0 FF FF 7F C5 88 80 56  83 08 01 56 83 08 01 73  .......V...V...s
1860: 30 30 34 01 80 5B 89 80  56 83 08 01 56 83 08 01  004..[..V...V...
1870: 7A 62 6F 34 03 02 10 98  80 27 10 F0 FF FF 7F 4C  zbo4.....'.....L
1880: 2B 56 83 08 01 B9 80 23  2A 10 F0 FF FF 7F 52 30  +V.....#*.....R0
1890: 80 F0 FF FF 7F F0 FF FF  7F 78 30 31 38 45 30 80  .........x018E0.
18A0: F0 FF FF 7F F0 FF FF 7F  78 30 31 39 01 80 C5 88  ........x019....
18B0: 80 56 83 08 01 56 83 08  01 73 30 30 35 01 80 5B  .V...V...s005..[
18C0: 89 80 56 83 08 01 56 83  08 01 7A 62 6F 35 03 02  ..V...V...zbo5..
18D0: 10 A1 80 27 10 F0 FF FF  7F 4C 45 30 80 F0 FF FF  ...'.....LE0....
18E0: 7F F0 FF FF 7F 73 65 30  34 01 80 1C 40 80 2B 56  .....se04...@.+V
18F0: 83 08 01 BA 80 5D 01 80  36 80 2A 10 F0 FF FF 7F  .....]..6.*.....
1900: 52 30 80 F0 FF FF 7F F0  FF FF 7F 78 30 31 39 45  R0.........x019E
1910: 30 80 F0 FF FF 7F F0 FF  FF 7F 78 68 6D 31 01 80  0.........xhm1..
1920: 1C 5F 80 52 30 80 F0 FF  FF 7F F0 FF FF 7F 78 68  ._.R0.........xh
1930: 6D 31 45 30 80 F0 FF FF  7F F0 FF FF 7F 78 68 6D  m1E0.........xhm
1940: 32 01 80 5C 00 BB 80 5C  01 BB 80 5C 02 BB 80 5C  2..\...\...\...\
1950: 03 BB 80 9A 1C B0 80 23  1A 56 89 1C 25 80 52 30  .......#.V..%.R0
1960: 80 F0 FF FF 7F F0 FF FF  7F 78 30 31 39 C5 88 80  .........x019...
1970: 56 83 08 01 56 83 08 01  6B 69 6C 30 01 80 BA 6C  V...V...kil0...l
1980: 83 08 01 BC 80 BD 80 BE  80 BF 80 59 05 F0 FF FF  ...........Y....
1990: 7F 00 6B 69 64 6C 30 56  83 08 01 6B 69 64 6C 30  ..kidl0V...kidl0
19A0: F0 FF FF 7F 4E 00 61 83  08 01 4E 00 69 83 08 01  ....N.a...N.i...
19B0: 29 10 61 83 08 01 09 29  10 69 83 08 01 04 80 61  ).a....).i.....a
19C0: 83 08 01 80 69 83 08 01  4E 01 61 83 08 01 4E 01  ....i...N.a...N.
19D0: 69 83 08 01 BA F0 FF FF  7F C0 80 C1 80 C2 80 C3  i...............
19E0: 80 BA 56 83 08 01 84 80  85 80 86 80 B4 80 81 01  ..V.............
19F0: 56 83 08 01 7C 01 56 83  08 01 81 00 56 83 08 01  V...|.V.....V...
1A00: 5B 50 80 56 83 08 01 56  83 08 01 66 65 30 30 29  [P.V...V...fe00)
1A10: 10 F0 FF FF 7F 04 5D 01  80 02 80 1C 9C 80 5C 00  ......].......\.
1A20: C4 80 5C 01 C4 80 5C 02  C4 80 5C 03 C4 80 9A 48  ..\...\...\....H
1A30: C5 80 23 45 30 80 F0 FF  FF 7F F0 FF FF 7F 79 31  ..#E0.........y1
1A40: 30 31 01 80 1A 35 89 1C  98 80 29 10 F0 FF FF 7F  01...5....).....
1A50: 02 52 30 80 F0 FF FF 7F  F0 FF FF 7F 79 31 30 31  .R0.........y101
1A60: 02 02 10 31 80 80 7C 1A  45 30 80 F0 FF FF 7F F0  ...1..|.E0......
1A70: FF FF 7F 79 67 30 31 01  80 01 FD 1A 02 02 10 4B  ...yg01........K
1A80: 80 80 98 1A 45 30 80 F0  FF FF 7F F0 FF FF 7F 79  ....E0.........y
1A90: 67 30 31 01 80 01 FD 1A  02 02 10 32 80 80 B4 1A  g01........2....
1AA0: 45 30 80 F0 FF FF 7F F0  FF FF 7F 79 67 30 31 01  E0.........yg01.
1AB0: 80 01 FD 1A 02 02 10 33  80 80 D0 1A 45 30 80 F0  .......3....E0..
1AC0: FF FF 7F F0 FF FF 7F 79  74 30 31 01 80 01 FD 1A  .......yt01.....
1AD0: 02 02 10 34 80 80 EC 1A  45 30 80 F0 FF FF 7F F0  ...4....E0......
1AE0: FF FF 7F 79 74 30 31 01  80 01 FD 1A 45 30 80 F0  ...yt01.....E0..
1AF0: FF FF 7F F0 FF FF 7F 79  30 30 31 01 80 1C 47 80  .......y001...G.
1B00: 29 10 F0 FF FF 7F 05 1C  47 80 4B F0 FF FF 7F 75  ).......G.K....u
1B10: 80 79 00 F0 FF FF 7F 56  83 08 01 27 10 56 83 08  .y.....V...'.V..
1B20: 01 10 1C 44 80 52 30 80  F0 FF FF 7F F0 FF FF 7F  ...D.R0.........
1B30: 79 74 30 31 52 30 80 F0  FF FF 7F F0 FF FF 7F 79  yt01R0.........y
1B40: 67 30 31 52 30 80 F0 FF  FF 7F F0 FF FF 7F 79 30  g01R0.........y0
1B50: 30 31 02 02 10 33 80 80  6E 1B 45 30 80 F0 FF FF  01...3..n.E0....
1B60: 7F F0 FF FF 7F 79 74 30  32 01 80 01 9B 1B 02 02  .....yt02.......
1B70: 10 34 80 80 8A 1B 45 30  80 F0 FF FF 7F F0 FF FF  .4....E0........
1B80: 7F 79 74 30 32 01 80 01  9B 1B 45 30 80 F0 FF FF  .yt02.....E0....
1B90: 7F F0 FF FF 7F 79 30 30  32 01 80 1C 25 80 2A 10  .....y002...%.*.
1BA0: 56 83 08 01 1C 33 80 27  10 56 83 08 01 11 2A 10  V....3.'.V....*.
1BB0: 56 83 08 01 2B 56 83 08  01 C6 80 27 10 56 83 08  V...+V.....'.V..
1BC0: 01 12 52 30 80 F0 FF FF  7F F0 FF FF 7F 79 74 30  ..R0.........yt0
1BD0: 32 52 30 80 F0 FF FF 7F  F0 FF FF 7F 79 30 30 32  2R0.........y002
1BE0: 02 02 10 33 80 80 FC 1B  45 30 80 F0 FF FF 7F F0  ...3....E0......
1BF0: FF FF 7F 78 74 32 31 01  80 01 29 1C 02 02 10 34  ...xt21...)....4
1C00: 80 80 18 1C 45 30 80 F0  FF FF 7F F0 FF FF 7F 78  ....E0.........x
1C10: 74 32 31 01 80 01 29 1C  45 30 80 F0 FF FF 7F F0  t21...).E0......
1C20: FF FF 7F 78 30 32 31 01  80 1C C7 80 52 30 80 F0  ...x021.....R0..
1C30: FF FF 7F F0 FF FF 7F 78  74 32 31 52 30 80 F0 FF  .......xt21R0...
1C40: FF 7F F0 FF FF 7F 78 30  32 31 45 30 80 F0 FF FF  ......x021E0....
1C50: 7F F0 FF FF 7F 78 30 32  32 01 80 2A 10 56 83 08  .....x022..*.V..
1C60: 01 1C 44 80 23 4B 56 83  08 01 C8 80 1C 25 80 5B  ..D.#KV......%.[
1C70: C9 80 56 83 08 01 56 83  08 01 74 73 62 30 1C 25  ..V...V...tsb0.%
1C80: 80 BA F0 FF FF 7F C0 80  C1 80 C2 80 92 80 2B 56  ..............+V
1C90: 83 08 01 CA 80 23 5B C9  80 56 83 08 01 56 83 08  .....#[..V...V..
1CA0: 01 74 73 62 31 1C 5D 80  29 10 F0 FF FF 7F 02 52  .tsb1.].)......R
1CB0: 30 80 F0 FF FF 7F F0 FF  FF 7F 78 30 32 32 02 02  0.........x022..
1CC0: 10 33 80 80 DA 1C 45 30  80 F0 FF FF 7F F0 FF FF  .3....E0........
1CD0: 7F 78 74 32 33 01 80 01  07 1D 02 02 10 34 80 80  .xt23........4..
1CE0: F6 1C 45 30 80 F0 FF FF  7F F0 FF FF 7F 78 74 32  ..E0.........xt2
1CF0: 33 01 80 01 07 1D 45 30  80 F0 FF FF 7F F0 FF FF  3.....E0........
1D00: 7F 78 30 32 33 01 80 1C  5F 80 4B 56 83 08 01 B4  .x023..._.KV....
1D10: 80 1C 25 80 2B 56 83 08  01 CB 80 23 27 10 56 83  ..%.+V.....#'.V.
1D20: 08 01 10 1C 36 80 27 10  F0 FF FF 7F 49 1C 36 80  ....6.'.....I.6.
1D30: 29 10 F0 FF FF 7F 02 52  30 80 F0 FF FF 7F F0 FF  )......R0.......
1D40: FF 7F 78 74 32 33 52 30  80 F0 FF FF 7F F0 FF FF  ..xt23R0........
1D50: 7F 78 30 32 33 02 02 10  31 80 80 71 1D 45 30 80  .x023...1..q.E0.
1D60: F0 FF FF 7F F0 FF FF 7F  78 65 34 30 01 80 01 0E  ........xe40....
1D70: 1E 02 02 10 4B 80 80 8D  1D 45 30 80 F0 FF FF 7F  ....K....E0.....
1D80: F0 FF FF 7F 78 65 34 30  01 80 01 0E 1E 02 02 10  ....xe40........
1D90: 33 80 80 A9 1D 45 30 80  F0 FF FF 7F F0 FF FF 7F  3....E0.........
1DA0: 78 74 34 30 01 80 01 0E  1E 02 02 10 34 80 80 C5  xt40........4...
1DB0: 1D 45 30 80 F0 FF FF 7F  F0 FF FF 7F 78 74 34 30  .E0.........xt40
1DC0: 01 80 01 0E 1E 02 02 10  35 80 80 E1 1D 45 30 80  ........5....E0.
1DD0: F0 FF FF 7F F0 FF FF 7F  78 6D 34 30 01 80 01 0E  ........xm40....
1DE0: 1E 02 02 10 32 80 80 FD  1D 45 30 80 F0 FF FF 7F  ....2....E0.....
1DF0: F0 FF FF 7F 78 67 34 30  01 80 01 0E 1E 45 30 80  ....xg40.....E0.
1E00: F0 FF FF 7F F0 FF FF 7F  78 30 34 30 01 80 2A 10  ........x040..*.
1E10: 56 83 08 01 BA 56 83 08  01 CC 80 CD 80 CE 80 92  V....V..........
1E20: 80 81 00 56 83 08 01 5B  50 80 56 83 08 01 56 83  ...V...[P.V...V.
1E30: 08 01 66 30 30 30 1C 47  80 5B CF 80 56 83 08 01  ..f000.G.[..V...
1E40: 56 83 08 01 79 6F 79 6C  1C 47 80 52 30 80 F0 FF  V...yoyl.G.R0...
1E50: FF 7F F0 FF FF 7F 78 67  34 30 52 30 80 F0 FF FF  ......xg40R0....
1E60: 7F F0 FF FF 7F 78 65 34  30 52 30 80 F0 FF FF 7F  .....xe40R0.....
1E70: F0 FF FF 7F 78 74 34 30  52 30 80 F0 FF FF 7F F0  ....xt40R0......
1E80: FF FF 7F 78 30 34 30 45  30 80 F0 FF FF 7F F0 FF  ...x040E0.......
1E90: FF 7F 78 30 32 34 01 80  1C 9A 80 03 02 10 38 80  ..x024........8.
1EA0: 27 10 F0 FF FF 7F 4C 5B  CF 80 56 83 08 01 56 83  '.....L[..V...V.
1EB0: 08 01 79 6F 79 31 2B 56  83 08 01 D0 80 23 2A 10  ..yoy1+V.....#*.
1EC0: F0 FF FF 7F 52 30 80 F0  FF FF 7F F0 FF FF 7F 78  ....R0.........x
1ED0: 30 32 34 45 30 80 F0 FF  FF 7F F0 FF FF 7F 78 30  024E0.........x0
1EE0: 32 36 01 80 2B 56 83 08  01 D1 80 1C 02 80 5B CF  26..+V........[.
1EF0: 80 56 83 08 01 56 83 08  01 79 6F 79 32 1C 3F 80  .V...V...yoy2.?.
1F00: 52 30 80 F0 FF FF 7F F0  FF FF 7F 78 30 32 36 45  R0.........x026E
1F10: 30 80 F0 FF FF 7F F0 FF  FF 7F 78 30 34 31 01 80  0.........x041..
1F20: 1C 98 80 52 30 80 F0 FF  FF 7F F0 FF FF 7F 78 30  ...R0.........x0
1F30: 34 31 45 30 80 F0 FF FF  7F F0 FF FF 7F 78 30 32  41E0.........x02
1F40: 37 01 80 5D 01 80 AB 80  1C D2 80 23 1A 56 89 1C  7..].......#.V..
1F50: 25 80 C5 93 80 6C 83 08  01 6C 83 08 01 6B 6C 30  %....l...l...kl0
1F60: 32 01 80 C5 93 80 6D 83  08 01 6D 83 08 01 6B 6C  2.....m...m...kl
1F70: 30 32 01 80 C5 93 80 6E  83 08 01 6E 83 08 01 6B  02.....n...n...k
1F80: 6C 30 32 01 80 4E 01 6C  83 08 01 4E 01 6D 83 08  l02..N.l...N.m..
1F90: 01 4E 01 6E 83 08 01 4E  00 54 83 08 01 4E 00 55  .N.n...N.T...N.U
1FA0: 83 08 01 4E 00 58 83 08  01 4E 00 59 83 08 01 80  ...N.X...N.Y....
1FB0: 54 83 08 01 80 55 83 08  01 27 10 54 83 08 01 0F  T....U...'.T....
1FC0: 27 10 55 83 08 01 0D 7B  54 83 08 01 7B 55 83 08  '.U....{T...{U..
1FD0: 01 27 10 54 83 08 01 0A  27 10 55 83 08 01 0F 52  .'.T....'.U....R
1FE0: 30 80 F0 FF FF 7F F0 FF  FF 7F 78 30 32 37 5D 01  0.........x027].
1FF0: 80 02 80 45 D3 80 F0 FF  FF 7F F0 FF FF 7F 30 62  ...E..........0b
2000: 6C 66 01 80 34 D4 80 77  D5 80 00 80 1C 2D 80 AB  lf..4..w.....-..
2010: 09 2D F0 FF FF 7F F0 FF  FF 7F 73 74 61 31 2D F0  .-........sta1-.
2020: FF FF 7F F0 FF FF 7F 73  74 61 32 2D F0 FF FF 7F  .......sta2-....
2030: F0 FF FF 7F 73 74 61 33  2D F0 FF FF 7F F0 FF FF  ....sta3-.......
2040: 7F 73 74 61 34 1C 2D 80  92 01 F0 FF FF 7F BA 55  .sta4.-........U
2050: 83 08 01 D6 80 D7 80 D8  80 D9 80 BA 54 83 08 01  ............T...
2060: DA 80 DB 80 D8 80 D9 80  BA 58 83 08 01 DA 80 DB  .........X......
2070: 80 D8 80 D9 80 BA 59 83  08 01 DC 80 DD 80 D8 80  ......Y.........
2080: DE 80 80 54 83 08 01 80  55 83 08 01 80 58 83 08  ...T....U....X..
2090: 01 80 59 83 08 01 1C 25  80 2C 54 83 08 01 54 83  ..Y....%.,T...T.
20A0: 08 01 77 70 6F 66 5B DF  80 54 83 08 01 54 83 08  ..wpof[..T...T..
20B0: 01 6C 6C 30 31 5B E0 80  55 83 08 01 55 83 08 01  .ll01[..U...U...
20C0: 6C 6C 30 30 BB E1 80 F8  FF FF 7F F8 FF FF 7F 73  ll00...........s
20D0: 30 30 31 01 80 48 C5 80  23 45 D3 80 F0 FF FF 7F  001..H..#E......
20E0: F0 FF FF 7F 6C 30 30 30  01 80 1A 35 89 1C 21 80  ....l000...5..!.
20F0: 52 D3 80 F0 FF FF 7F F0  FF FF 7F 6C 30 30 30 45  R..........l000E
2100: D3 80 F0 FF FF 7F F0 FF  FF 7F 6C 30 30 31 01 80  ..........l001..
2110: 1C 02 80 27 10 CD 82 08  01 14 27 10 6F 83 08 01  ...'......'.o...
2120: 02 45 D3 80 F0 FF FF 7F  F0 FF FF 7F 64 6F 70 30  .E..........dop0
2130: 01 80 1C 25 80 52 D3 80  F0 FF FF 7F F0 FF FF 7F  ...%.R..........
2140: 6C 30 30 31 45 D3 80 F0  FF FF 7F F0 FF FF 7F 6C  l001E..........l
2150: 30 30 32 01 80 1C 02 80  27 10 59 83 08 01 11 1C  002.....'.Y.....
2160: 25 80 5B DF 80 54 83 08  01 54 83 08 01 6C 6C 30  %.[..T...T...ll0
2170: 32 5B E2 80 58 83 08 01  58 83 08 01 6C 6C 30 32  2[..X...X...ll02
2180: 03 02 10 3E 80 27 10 CC  82 08 01 01 27 10 CD 82  ...>.'......'...
2190: 08 01 13 1C 25 80 2B 58  83 08 01 E3 80 1C 36 80  ....%.+X......6.
21A0: 52 D3 80 F0 FF FF 7F F0  FF FF 7F 6C 30 30 32 45  R..........l002E
21B0: D3 80 F0 FF FF 7F F0 FF  FF 7F 6C 30 30 33 01 80  ..........l003..
21C0: 7A 00 59 83 08 01 1C 02  80 27 10 6F 83 08 01 03  z.Y......'.o....
21D0: 1C 42 80 1A 56 89 1C 25  80 45 D3 80 F0 FF FF 7F  .B..V..%.E......
21E0: F0 FF FF 7F 6B 30 32 31  01 80 2A 10 CC 82 08 01  ....k021..*.....
21F0: 52 D3 80 F0 FF FF 7F F0  FF FF 7F 6C 30 30 33 27  R..........l003'
2200: 10 5A 83 08 01 04 27 10  5B 83 08 01 04 27 10 5C  .Z....'.[....'.\
2210: 83 08 01 04 29 10 56 83  08 01 21 80 56 83 08 01  ....).V...!.V...
2220: 92 01 5A 83 08 01 92 01  5B 83 08 01 92 01 5C 83  ..Z.....[.....\.
2230: 08 01 94 01 5A 83 08 01  94 01 5B 83 08 01 94 01  ....Z.....[.....
2240: 5C 83 08 01 BA 55 83 08  01 E4 80 E5 80 E6 80 E7  \....U..........
2250: 80 BA 54 83 08 01 E8 80  E9 80 E6 80 E7 80 BA 58  ..T............X
2260: 83 08 01 E8 80 E9 80 E6  80 E7 80 BA 59 83 08 01  ............Y...
2270: EA 80 EB 80 E6 80 EC 80  59 05 5A 83 08 01 01 BA  ........Y.Z.....
2280: 5A 83 08 01 E8 80 ED 80  EE 80 D9 80 BA 5B 83 08  Z............[..
2290: 01 EF 80 F0 80 E6 80 F1  80 BA 5C 83 08 01 F2 80  ..........\.....
22A0: F3 80 E6 80 F4 80 59 05  56 83 08 01 01 BA 56 83  ......Y.V.....V.
22B0: 08 01 F5 80 F6 80 F7 80  F8 80 80 5A 83 08 01 80  ...........Z....
22C0: 5B 83 08 01 80 5C 83 08  01 80 56 83 08 01 1C 25  [....\....V....%
22D0: 80 5B DF 80 54 83 08 01  54 83 08 01 6C 6C 30 31  .[..T...T...ll01
22E0: 5B F9 80 5A 83 08 01 5A  83 08 01 6C 6C 30 30 5B  [..Z...Z...ll00[
22F0: 50 80 59 83 08 01 59 83  08 01 66 61 30 30 5B FA  P.Y...Y...fa00[.
2300: 80 56 83 08 01 56 83 08  01 6C 6C 30 32 27 10 56  .V...V...ll02'.V
2310: 83 08 01 23 81 00 59 83  08 01 45 D3 80 5A 83 08  ...#..Y...E..Z..
2320: 01 5A 83 08 01 36 61 32  31 01 80 45 D3 80 F0 FF  .Z...6a21..E....
2330: FF 7F F0 FF FF 7F 6C 30  30 34 01 80 1A 35 89 1C  ......l004...5..
2340: 36 80 52 D3 80 F0 FF FF  7F F0 FF FF 7F 6C 30 30  6.R..........l00
2350: 34 45 D3 80 F0 FF FF 7F  F0 FF FF 7F 6C 30 30 35  4E..........l005
2360: 01 80 55 D3 80 F0 FF FF  7F F0 FF FF 7F 6C 30 30  ..U..........l00
2370: 35 45 D3 80 F0 FF FF 7F  F0 FF FF 7F 6C 30 30 36  5E..........l006
2380: 01 80 1C 02 80 1A 56 89  1C 25 80 45 D3 80 5A 83  ......V..%.E..Z.
2390: 08 01 5A 83 08 01 6B 61  32 31 01 80 81 00 5A 83  ..Z...ka21....Z.
23A0: 08 01 5B F9 80 5A 83 08  01 5A 83 08 01 6C 6C 30  ..[..Z...Z...ll0
23B0: 31 C5 FB 80 5A 83 08 01  5A 83 08 01 73 74 30 31  1...Z...Z...st01
23C0: 01 80 BB E1 80 F8 FF FF  7F F8 FF FF 7F 6B 69 6C  .............kil
23D0: 30 01 80 48 C5 80 23 52  D3 80 F0 FF FF 7F F0 FF  0..H..#R........
23E0: FF 7F 6C 30 30 36 45 D3  80 F0 FF FF 7F F0 FF FF  ..l006E.........
23F0: 7F 6C 31 30 30 01 80 1C  68 80 1A 35 89 1C 42 80  .l100...h..5..B.
2400: 52 D3 80 F0 FF FF 7F F0  FF FF 7F 6C 31 30 30 45  R..........l100E
2410: D3 80 58 83 08 01 58 83  08 01 6C 31 30 31 01 80  ..X...X...l101..
2420: 81 00 54 83 08 01 7C 00  54 83 08 01 5B DF 80 54  ..T...|.T...[..T
2430: 83 08 01 54 83 08 01 6C  6C 30 32 5B E2 80 58 83  ...T...ll02[..X.
2440: 08 01 58 83 08 01 6C 6C  30 32 27 10 CD 82 08 01  ..X...ll02'.....
2450: 15 03 02 10 AC 80 27 10  CC 82 08 01 01 2A 10 CC  ......'......*..
2460: 82 08 01 52 D3 80 58 83  08 01 58 83 08 01 6C 31  ...R..X...X...l1
2470: 30 31 45 D3 80 F0 FF FF  7F F0 FF FF 7F 6C 31 30  01E..........l10
2480: 33 01 80 5B 45 80 58 83  08 01 58 83 08 01 74 6C  3..[E.X...X...tl
2490: 61 30 1C 25 80 2B 58 83  08 01 FC 80 23 5B 45 80  a0.%.+X.....#[E.
24A0: 58 83 08 01 58 83 08 01  74 6C 61 31 2B 54 83 08  X...X...tla1+T..
24B0: 01 FD 80 5B DF 80 54 83  08 01 54 83 08 01 6C 6C  ...[..T...T...ll
24C0: 30 33 27 10 CD 82 08 01  16 1C 42 80 52 D3 80 F0  03'.......B.R...
24D0: FF FF 7F F0 FF FF 7F 6C  31 30 33 45 D3 80 F0 FF  .......l103E....
24E0: FF 7F F0 FF FF 7F 6C 31  30 34 01 80 1C 36 80 23  ......l104...6.#
24F0: 52 D3 80 F0 FF FF 7F F0  FF FF 7F 6C 31 30 34 45  R..........l104E
2500: D3 80 F0 FF FF 7F F0 FF  FF 7F 6C 31 30 35 01 80  ..........l105..
2510: 27 10 CD 82 08 01 12 C5  FE 80 54 83 08 01 54 83  '.........T...T.
2520: 08 01 73 65 30 30 01 80  1C 02 80 1A 56 89 1C 25  ..se00......V..%
2530: 80 BA 55 83 08 01 FF 80  00 81 01 81 E7 80 BA 54  ..U............T
2540: 83 08 01 E8 80 02 81 E6  80 E7 80 BA 58 83 08 01  ............X...
2550: E8 80 02 81 E6 80 E7 80  BA 59 83 08 01 03 81 04  .........Y......
2560: 81 01 81 05 81 5B DF 80  54 83 08 01 54 83 08 01  .....[..T...T...
2570: 6C 6C 30 31 5C 00 06 81  5C 01 06 81 9A 48 C5 80  ll01\...\....H..
2580: 23 52 D3 80 F0 FF FF 7F  F0 FF FF 7F 6C 31 30 35  #R..........l105
2590: 45 D3 80 F0 FF FF 7F F0  FF FF 7F 6C 32 30 30 01  E..........l200.
25A0: 80 1A 35 89 1C 36 80 27  10 CD 82 08 01 14 1C 36  ..5..6.'.......6
25B0: 80 52 D3 80 F0 FF FF 7F  F0 FF FF 7F 6C 32 30 30  .R..........l200
25C0: 45 D3 80 F0 FF FF 7F F0  FF FF 7F 6C 31 30 36 01  E..........l106.
25D0: 80 1C 98 80 52 D3 80 F0  FF FF 7F F0 FF FF 7F 6C  ....R..........l
25E0: 31 30 36 45 D3 80 F0 FF  FF 7F F0 FF FF 7F 6C 31  106E..........l1
25F0: 30 37 01 80 1C 25 80 5B  45 80 58 83 08 01 58 83  07...%.[E.X...X.
2600: 08 01 6C 75 70 30 1C 02  80 52 D3 80 F0 FF FF 7F  ..lup0...R......
2610: F0 FF FF 7F 6C 32 30 30  45 D3 80 F0 FF FF 7F F0  ....l200E.......
2620: FF FF 7F 6C 32 30 31 01  80 1C 02 80 2B 58 83 08  ...l201.....+X..
2630: 01 07 81 23 52 D3 80 F0  FF FF 7F F0 FF FF 7F 6C  ...#R..........l
2640: 32 30 31 45 D3 80 F0 FF  FF 7F F0 FF FF 7F 6C 32  201E..........l2
2650: 30 32 01 80 1C 25 80 6B  69 64 6C 30 58 83 08 01  02...%.kidl0X...
2660: 5B F9 80 5A 83 08 01 5A  83 08 01 6C 6C 30 32 1C  [..Z...Z...ll02.
2670: AC 80 5B 08 81 5A 83 08  01 5A 83 08 01 6C 6C 30  ..[..Z...Z...ll0
2680: 33 03 02 10 3F 80 27 10  CC 82 08 01 01 1C 36 80  3...?.'.......6.
2690: 52 D3 80 F0 FF FF 7F F0  FF FF 7F 6C 32 30 32 45  R..........l202E
26A0: D3 80 F0 FF FF 7F F0 FF  FF 7F 6C 32 30 33 01 80  ..........l203..
26B0: 1C 42 80 C5 21 80 56 83  08 01 56 83 08 01 73 74  .B..!.V...V...st
26C0: 30 31 01 80 5B FA 80 56  83 08 01 56 83 08 01 6C  01..[..V...V...l
26D0: 6C 32 6B 7A 00 56 83 08  01 2B 5A 83 08 01 09 81  l2kz.V...+Z.....
26E0: 23 2A 10 CC 82 08 01 52  D3 80 F0 FF FF 7F F0 FF  #*.....R........
26F0: FF 7F 6C 32 30 33 45 D3  80 F0 FF FF 7F F0 FF FF  ..l203E.........
2700: 7F 6C 32 30 35 01 80 5B  45 80 58 83 08 01 58 83  .l205..[E.X...X.
2710: 08 01 74 68 61 30 1C 25  80 5B F9 80 5A 83 08 01  ..tha0.%.[..Z...
2720: 5A 83 08 01 6C 6C 6C 32  BA 56 83 08 01 E8 80 ED  Z...lll2.V......
2730: 80 EE 80 D9 80 29 10 56  83 08 01 24 80 56 83 08  .....).V...$.V..
2740: 01 6C 56 83 08 01 01 80  2D 80 5B FA 80 56 83 08  .lV.....-.[..V..
2750: 01 56 83 08 01 6C 6C 6C  39 27 10 CD 82 08 01 14  .V...lll9'......
2760: 2B 58 83 08 01 0A 81 23  52 D3 80 F0 FF FF 7F F0  +X.....#R.......
2770: FF FF 7F 6C 32 30 35 45  D3 80 F0 FF FF 7F F0 FF  ...l205E........
2780: FF 7F 6C 32 30 36 01 80  7C 00 5A 83 08 01 2B 5A  ..l206..|.Z...+Z
2790: 83 08 01 0B 81 1C 25 80  6B 69 64 6C 30 58 83 08  ......%.kidl0X..
27A0: 01 5B 08 81 5A 83 08 01  5A 83 08 01 6C 6C 30 34  .[..Z...Z...ll04
27B0: 1C 21 80 52 D3 80 F0 FF  FF 7F F0 FF FF 7F 6C 32  .!.R..........l2
27C0: 30 36 45 D3 80 F0 FF FF  7F F0 FF FF 7F 6C 32 30  06E..........l20
27D0: 37 01 80 1C 21 80 23 52  D3 80 F0 FF FF 7F F0 FF  7...!.#R........
27E0: FF 7F 6C 32 30 37 45 D3  80 F0 FF FF 7F F0 FF FF  ..l207E.........
27F0: 7F 6C 32 30 38 01 80 27  10 CD 82 08 01 13 C5 FE  .l208..'........
2800: 80 55 83 08 01 55 83 08  01 73 65 30 30 01 80 1C  .U...U...se00...
2810: 42 80 52 D3 80 F0 FF FF  7F F0 FF FF 7F 6C 32 30  B.R..........l20
2820: 38 45 D3 80 F0 FF FF 7F  F0 FF FF 7F 6C 32 30 39  8E..........l209
2830: 01 80 27 10 CD 82 08 01  12 C5 FE 80 54 83 08 01  ..'.........T...
2840: 54 83 08 01 73 65 30 30  01 80 1C 42 80 5B 0C 81  T...se00...B.[..
2850: 5A 83 08 01 5A 83 08 01  6C 6C 30 35 1C 68 80 52  Z...Z...ll05.h.R
2860: D3 80 F0 FF FF 7F F0 FF  FF 7F 6C 32 30 39 45 D3  ..........l209E.
2870: 80 F0 FF FF 7F F0 FF FF  7F 6C 32 39 38 01 80 1C  .........l298...
2880: 36 80 52 D3 80 F0 FF FF  7F F0 FF FF 7F 6C 32 39  6.R..........l29
2890: 38 45 D3 80 F0 FF FF 7F  F0 FF FF 7F 6C 32 31 30  8E..........l210
28A0: 01 80 C5 FB 80 5A 83 08  01 5A 83 08 01 6B 69 6C  .....Z...Z...kil
28B0: 61 01 80 1C 02 80 52 D3  80 F0 FF FF 7F F0 FF FF  a.....R.........
28C0: 7F 6C 32 31 30 45 D3 80  F0 FF FF 7F F0 FF FF 7F  .l210E..........
28D0: 6C 32 31 31 01 80 27 10  CD 82 08 01 14 1C 4D 80  l211..'.......M.
28E0: 5B E2 80 58 83 08 01 58  83 08 01 6C 6B 72 30 1C  [..X...X...lkr0.
28F0: 25 80 C5 FB 80 5A 83 08  01 5A 83 08 01 73 74 30  %....Z...Z...st0
2900: 31 01 80 5B F9 80 5A 83  08 01 5A 83 08 01 6C 6C  1..[..Z...Z...ll
2910: 6C 32 2B 58 83 08 01 0D  81 23 52 D3 80 F0 FF FF  l2+X.....#R.....
2920: 7F F0 FF FF 7F 6C 32 31  31 45 D3 80 F0 FF FF 7F  .....l211E......
2930: F0 FF FF 7F 6C 32 31 32  01 80 1C 25 80 6B 69 64  ....l212...%.kid
2940: 6C 30 58 83 08 01 C5 FB  80 5A 83 08 01 5A 83 08  l0X......Z...Z..
2950: 01 73 74 30 32 01 80 5B  0C 81 5A 83 08 01 5A 83  .st02..[..Z...Z.
2960: 08 01 6C 6C 73 36 03 02  10 AC 80 27 10 CC 82 08  ..lls6.....'....
2970: 01 01 1C D2 80 52 D3 80  F0 FF FF 7F F0 FF FF 7F  .....R..........
2980: 6C 32 31 32 45 D3 80 F0  FF FF 7F F0 FF FF 7F 6C  l212E..........l
2990: 32 31 33 01 80 1C 36 80  2B 5A 83 08 01 0E 81 23  213...6.+Z.....#
29A0: 2A 10 CC 82 08 01 52 D3  80 F0 FF FF 7F F0 FF FF  *.....R.........
29B0: 7F 6C 32 31 33 45 D3 80  F0 FF FF 7F F0 FF FF 7F  .l213E..........
29C0: 6C 32 31 34 01 80 27 10  CD 82 08 01 12 1C 52 80  l214..'.......R.
29D0: 7C 01 54 83 08 01 2B 54  83 08 01 0F 81 23 52 D3  |.T...+T.....#R.
29E0: 80 F0 FF FF 7F F0 FF FF  7F 6C 32 31 34 45 D3 80  .........l214E..
29F0: F0 FF FF 7F F0 FF FF 7F  6C 32 31 36 01 80 C5 FB  ........l216....
2A00: 80 5A 83 08 01 5A 83 08  01 73 74 30 33 01 80 5B  .Z...Z...st03..[
2A10: 10 81 5A 83 08 01 5A 83  08 01 6C 6C 30 37 03 02  ..Z...Z...ll07..
2A20: 10 11 81 27 10 CC 82 08  01 01 1C 21 80 BA 54 83  ...'.......!..T.
2A30: 08 01 12 81 13 81 E6 80  E7 80 5B DF 80 54 83 08  ..........[..T..
2A40: 01 54 83 08 01 6C 6C 30  30 2B 5A 83 08 01 14 81  .T...ll00+Z.....
2A50: 23 7C 01 5A 83 08 01 2B  5A 83 08 01 15 81 23 2A  #|.Z...+Z.....#*
2A60: 10 CC 82 08 01 52 D3 80  F0 FF FF 7F F0 FF FF 7F  .....R..........
2A70: 6C 32 31 36 45 D3 80 F0  FF FF 7F F0 FF FF 7F 6C  l216E..........l
2A80: 32 31 38 01 80 5B 10 81  5A 83 08 01 5A 83 08 01  218..[..Z...Z...
2A90: 6C 6C 30 38 03 02 10 16  81 27 10 CC 82 08 01 01  ll08.....'......
2AA0: 1C 42 80 2B 5A 83 08 01  17 81 1C 18 81 C5 FB 80  .B.+Z...........
2AB0: 5A 83 08 01 5A 83 08 01  73 74 30 34 01 80 23 2A  Z...Z...st04..#*
2AC0: 10 CC 82 08 01 52 D3 80  F0 FF FF 7F F0 FF FF 7F  .....R..........
2AD0: 6C 32 31 38 45 D3 80 F0  FF FF 7F F0 FF FF 7F 6C  l218E..........l
2AE0: 32 32 30 01 80 5B DF 80  54 83 08 01 54 83 08 01  220..[..T...T...
2AF0: 6C 6C 61 31 27 10 CD 82  08 01 17 03 02 10 02 80  lla1'...........
2B00: 27 10 CC 82 08 01 01 1C  25 80 5B 0C 81 5A 83 08  '.......%.[..Z..
2B10: 01 5A 83 08 01 6C 6C 6C  36 2B 54 83 08 01 19 81  .Z...lll6+T.....
2B20: 23 2A 10 CC 82 08 01 7C  00 5A 83 08 01 52 D3 80  #*.....|.Z...R..
2B30: F0 FF FF 7F F0 FF FF 7F  6C 32 32 30 45 D3 80 F0  ........l220E...
2B40: FF FF 7F F0 FF FF 7F 6C  32 32 31 01 80 45 D3 80  .......l221..E..
2B50: 5A 83 08 01 5A 83 08 01  73 38 30 30 01 80 5B FA  Z...Z...s800..[.
2B60: 80 56 83 08 01 56 83 08  01 6C 6C 30 39 5B 1A 81  .V...V...ll09[..
2B70: 5A 83 08 01 5A 83 08 01  6C 6C 30 39 03 02 10 9D  Z...Z...ll09....
2B80: 80 27 10 CC 82 08 01 01  1C 25 80 27 10 CD 82 08  .'.......%.'....
2B90: 01 0B 1C 02 80 BA 54 83  08 01 E8 80 02 81 E6 80  ......T.........
2BA0: E7 80 5B DF 80 54 83 08  01 54 83 08 01 6C 6C 30  ..[..T...T...ll0
2BB0: 31 2B 5A 83 08 01 1B 81  23 2A 10 CC 82 08 01 52  1+Z.....#*.....R
2BC0: D3 80 F0 FF FF 7F F0 FF  FF 7F 6C 32 32 31 45 D3  ..........l221E.
2BD0: 80 F0 FF FF 7F F0 FF FF  7F 6C 32 32 32 01 80 45  .........l222..E
2BE0: D3 80 5A 83 08 01 5A 83  08 01 73 38 30 31 01 80  ..Z...Z...s801..
2BF0: 5B FA 80 56 83 08 01 56  83 08 01 6C 6C 31 30 5B  [..V...V...ll10[
2C00: 1A 81 5A 83 08 01 5A 83  08 01 6C 6C 31 30 1C D2  ..Z...Z...ll10..
2C10: 80 5B 1C 81 54 83 08 01  54 83 08 01 6C 6C 30 34  .[..T...T...ll04
2C20: 5B E2 80 58 83 08 01 58  83 08 01 6C 6C 30 34 03  [..X...X...ll04.
2C30: 02 10 1D 81 27 10 CC 82  08 01 01 4E 01 55 83 08  ....'......N.U..
2C40: 01 1C 68 80 52 D3 80 F0  FF FF 7F F0 FF FF 7F 6C  ..h.R..........l
2C50: 32 32 32 45 D3 80 F0 FF  FF 7F F0 FF FF 7F 6C 32  222E..........l2
2C60: 32 34 01 80 2B 58 83 08  01 1E 81 27 10 CD 82 08  24..+X.....'....
2C70: 01 0A 1C 98 80 2B 54 83  08 01 1F 81 1C 25 80 C5  .....+T......%..
2C80: FB 80 5A 83 08 01 5A 83  08 01 6B 69 6C 61 01 80  ..Z...Z...kila..
2C90: 59 05 5A 83 08 01 00 BA  5A 83 08 01 E8 80 ED 80  Y.Z.....Z.......
2CA0: E6 80 20 81 6B 69 64 6C  30 5A 83 08 01 23 2A 10  .. .kidl0Z...#*.
2CB0: CC 82 08 01 C5 21 81 5A  83 08 01 5A 83 08 01 00  .....!.Z...Z....
2CC0: FE FE FE 01 80 5B 1C 81  54 83 08 01 54 83 08 01  .....[..T...T...
2CD0: 6C 6C 30 35 03 02 10 38  80 27 10 CC 82 08 01 01  ll05...8.'......
2CE0: 1C 25 80 52 D3 80 F0 FF  FF 7F F0 FF FF 7F 6C 32  .%.R..........l2
2CF0: 32 34 45 D3 80 F0 FF FF  7F F0 FF FF 7F 6C 32 34  24E..........l24
2D00: 30 01 80 1C 4D 80 2B 54  83 08 01 22 81 23 2A 10  0...M.+T...".#*.
2D10: CC 82 08 01 C5 21 81 5A  83 08 01 5A 83 08 01 73  .....!.Z...Z...s
2D20: 30 30 30 01 80 1C 2D 80  52 D3 80 F0 FF FF 7F F0  000...-.R.......
2D30: FF FF 7F 6C 32 34 30 45  D3 80 F0 FF FF 7F F0 FF  ...l240E........
2D40: FF 7F 6C 32 32 37 01 80  45 D3 80 5A 83 08 01 5A  ..l227..E..Z...Z
2D50: 83 08 01 73 38 30 32 01  80 4E 00 55 83 08 01 5B  ...s802..N.U...[
2D60: 23 81 54 83 08 01 54 83  08 01 6C 6C 30 36 BA 54  #.T...T...ll06.T
2D70: 83 08 01 24 81 25 81 E6  80 26 81 2B 5A 83 08 01  ...$.%...&.+Z...
2D80: 27 81 1C 44 80 C5 21 81  5A 83 08 01 5A 83 08 01  '..D..!.Z...Z...
2D90: 6B 69 6C 30 01 80 52 D3  80 F0 FF FF 7F F0 FF FF  kil0..R.........
2DA0: 7F 6C 32 32 37 45 D3 80  F0 FF FF 7F F0 FF FF 7F  .l227E..........
2DB0: 6C 32 32 38 01 80 C5 21  81 5A 83 08 01 5A 83 08  l228...!.Z...Z..
2DC0: 01 73 30 30 30 01 80 C5  28 81 54 83 08 01 54 83  .s000...(.T...T.
2DD0: 08 01 73 74 30 31 01 80  27 10 CD 82 08 01 18 03  ..st01..'.......
2DE0: 02 10 AC 80 27 10 CC 82  08 01 01 1C 47 80 2B 54  ....'.......G.+T
2DF0: 83 08 01 29 81 52 D3 80  F0 FF FF 7F F0 FF FF 7F  ...).R..........
2E00: 6C 32 32 38 45 D3 80 F0  FF FF 7F F0 FF FF 7F 6C  l228E..........l
2E10: 32 32 39 01 80 5B E0 80  55 83 08 01 55 83 08 01  229..[..U...U...
2E20: 6C 6C 30 31 27 10 CD 82  08 01 13 2A 10 CC 82 08  ll01'......*....
2E30: 01 81 00 55 83 08 01 7C  00 55 83 08 01 52 D3 80  ...U...|.U...R..
2E40: F0 FF FF 7F F0 FF FF 7F  6C 32 32 39 45 D3 80 F0  ........l229E...
2E50: FF FF 7F F0 FF FF 7F 6C  32 33 31 01 80 5B E0 80  .......l231..[..
2E60: 55 83 08 01 55 83 08 01  6C 6C 30 32 03 02 10 42  U...U...ll02...B
2E70: 80 27 10 CC 82 08 01 01  2B 55 83 08 01 2A 81 23  .'......+U...*.#
2E80: 2A 10 CC 82 08 01 52 D3  80 F0 FF FF 7F F0 FF FF  *.....R.........
2E90: 7F 6C 32 33 31 45 D3 80  F0 FF FF 7F F0 FF FF 7F  .l231E..........
2EA0: 6C 32 33 32 01 80 1C 25  80 27 10 CD 82 08 01 0C  l232...%.'......
2EB0: 6B 69 64 6C 30 5A 83 08  01 BA 5A 83 08 01 FF 80  kidl0Z....Z.....
2EC0: 2B 81 E6 80 D9 80 1C 25  80 5B 2C 81 5A 83 08 01  +......%.[,.Z...
2ED0: 5A 83 08 01 77 6C 6B 64  03 02 10 11 81 27 10 CC  Z...wlkd.....'..
2EE0: 82 08 01 01 1C 68 80 27  10 CD 82 08 01 0D 52 D3  .....h.'......R.
2EF0: 80 F0 FF FF 7F F0 FF FF  7F 6C 32 33 32 45 D3 80  .........l232E..
2F00: F0 FF FF 7F F0 FF FF 7F  6C 32 33 33 01 80 1C 36  ........l233...6
2F10: 80 5B E0 80 55 83 08 01  55 83 08 01 6C 6C 30 33  .[..U...U...ll03
2F20: 1C 25 80 52 D3 80 F0 FF  FF 7F F0 FF FF 7F 6C 32  .%.R..........l2
2F30: 33 33 45 D3 80 F0 FF FF  7F F0 FF FF 7F 6C 32 33  33E..........l23
2F40: 34 01 80 2A 10 CC 82 08  01 27 10 CD 82 08 01 13  4..*.....'......
2F50: C5 FE 80 55 83 08 01 55  83 08 01 73 65 30 30 01  ...U...U...se00.
2F60: 80 1C 02 80 5B 2D 81 54  83 08 01 54 83 08 01 66  ....[-.T...T...f
2F70: 65 30 30 5B 23 81 54 83  08 01 54 83 08 01 6C 6C  e00[#.T...T...ll
2F80: 30 38 BA 54 83 08 01 2E  81 2F 81 E6 80 E7 80 52  08.T...../.....R
2F90: D3 80 F0 FF FF 7F F0 FF  FF 7F 6C 32 33 34 45 D3  ..........l234E.
2FA0: 80 F0 FF FF 7F F0 FF FF  7F 6C 32 33 35 01 80 5B  .........l235..[
2FB0: 30 81 5A 83 08 01 5A 83  08 01 77 65 6C 30 03 02  0.Z...Z...wel0..
2FC0: 10 52 80 27 10 CC 82 08  01 01 2B 5A 83 08 01 31  .R.'......+Z...1
2FD0: 81 23 2A 10 CC 82 08 01  52 D3 80 F0 FF FF 7F F0  .#*.....R.......
2FE0: FF FF 7F 6C 32 33 35 45  D3 80 F0 FF FF 7F F0 FF  ...l235E........
2FF0: FF 7F 6C 32 33 36 01 80  1C 25 80 2B 55 83 08 01  ..l236...%.+U...
3000: 32 81 23 52 D3 80 F0 FF  FF 7F F0 FF FF 7F 6C 32  2.#R..........l2
3010: 33 36 45 D3 80 F0 FF FF  7F F0 FF FF 7F 6C 32 33  36E..........l23
3020: 37 01 80 27 10 CD 82 08  01 13 1C 21 80 52 D3 80  7..'.......!.R..
3030: F0 FF FF 7F F0 FF FF 7F  6C 32 33 37 45 D3 80 F0  ........l237E...
3040: FF FF 7F F0 FF FF 7F 6C  32 33 38 01 80 1C 25 80  .......l238...%.
3050: 5B 2D 81 54 83 08 01 54  83 08 01 66 65 30 31 2B  [-.T...T...fe01+
3060: 54 83 08 01 33 81 23 5B  2D 81 54 83 08 01 54 83  T...3.#[-.T...T.
3070: 08 01 66 65 30 30 5D 01  80 02 80 1A 56 89 1C 25  ..fe00].....V..%
3080: 80 92 00 F0 FF FF 7F 52  D3 80 F0 FF FF 7F F0 FF  .......R........
3090: FF 7F 6C 32 33 38 2D F0  FF FF 7F F0 FF FF 7F 6B  ..l238-........k
30A0: 69 6C 31 2D F0 FF FF 7F  F0 FF FF 7F 6B 69 6C 32  il1-........kil2
30B0: 2D F0 FF FF 7F F0 FF FF  7F 6B 69 6C 33 2D F0 FF  -........kil3-..
30C0: FF 7F F0 FF FF 7F 6B 69  6C 34 53 5A 83 08 01 5A  ......kil4SZ...Z
30D0: 83 08 01 77 65 6C 30 45  D3 80 F0 FF FF 7F F0 FF  ...wel0E........
30E0: FF 7F 30 62 6C 66 01 80  59 05 56 83 08 01 00 29  ..0blf..Y.V....)
30F0: 10 56 83 08 01 22 80 56  83 08 01 1C 25 80 4E 01  .V...".V....%.N.
3100: 54 83 08 01 4E 01 55 83  08 01 4E 01 58 83 08 01  T...N.U...N.X...
3110: 4E 01 59 83 08 01 4E 01  5A 83 08 01 4E 01 5B 83  N.Y...N.Z...N.[.
3120: 08 01 4E 01 5C 83 08 01  4E 01 69 83 08 01 4E 01  ..N.\...N.i...N.
3130: 61 83 08 01 4E 00 56 83  08 01 35 34 81 78 1C 2D  a...N.V...54.x.-
3140: 80 AB 0A BA 56 83 08 01  84 80 85 80 86 80 35 81  ....V.........5.
3150: BA F0 FF FF 7F 36 81 37  81 38 81 39 81 80 56 83  .....6.7.8.9..V.
3160: 08 01 80 F0 FF FF 7F 5B  3A 81 56 83 08 01 56 83  .......[:.V...V.
3170: 08 01 74 68 6C 30 53 56  83 08 01 56 83 08 01 74  ..thl0SV...V...t
3180: 68 6C 30 5C 00 3B 81 5C  01 3B 81 5C 02 3B 81 5C  hl0\.;.\.;.\.;.\
3190: 03 3B 81 9A 45 30 80 F0  FF FF 7F F0 FF FF 7F 79  .;..E0.........y
31A0: 30 30 30 01 80 48 C5 80  23 1A 35 89 1C 98 80 29  000..H..#.5....)
31B0: 10 F0 FF FF 7F 02 52 30  80 F0 FF FF 7F F0 FF FF  ......R0........
31C0: 7F 79 30 30 30 02 02 10  31 80 80 E1 31 45 30 80  .y000...1...1E0.
31D0: F0 FF FF 7F F0 FF FF 7F  78 67 32 38 01 80 01 46  ........xg28...F
31E0: 32 02 02 10 33 80 80 FD  31 45 30 80 F0 FF FF 7F  2...3...1E0.....
31F0: F0 FF FF 7F 78 74 32 38  01 80 01 46 32 02 02 10  ....xt28...F2...
3200: 34 80 80 19 32 45 30 80  F0 FF FF 7F F0 FF FF 7F  4...2E0.........
3210: 78 74 32 38 01 80 01 46  32 02 02 10 32 80 80 35  xt28...F2...2..5
3220: 32 45 30 80 F0 FF FF 7F  F0 FF FF 7F 78 67 32 38  2E0.........xg28
3230: 01 80 01 46 32 45 30 80  F0 FF FF 7F F0 FF FF 7F  ...F2E0.........
3240: 78 30 32 38 01 80 1C 36  80 2B 56 83 08 01 3C 81  x028...6.+V...<.
3250: 23 2B 56 83 08 01 3D 81  23 52 30 80 F0 FF FF 7F  #+V...=.#R0.....
3260: F0 FF FF 7F 78 30 32 38  52 30 80 F0 FF FF 7F F0  ....x028R0......
3270: FF FF 7F 78 67 32 38 52  30 80 F0 FF FF 7F F0 FF  ...xg28R0.......
3280: FF 7F 78 74 32 38 45 30  80 F0 FF FF 7F F0 FF FF  ..xt28E0........
3290: 7F 78 30 32 39 01 80 03  02 10 98 80 27 10 CC 82  .x029.......'...
32A0: 08 01 01 1C 47 80 7C 00  56 83 08 01 2B 56 83 08  ....G.|.V...+V..
32B0: 01 3E 81 23 7C 01 56 83  08 01 2A 10 CC 82 08 01  .>.#|.V...*.....
32C0: 5B 3A 81 56 83 08 01 56  83 08 01 74 68 6B 31 1C  [:.V...V...thk1.
32D0: 40 80 29 10 F0 FF FF 7F  02 52 30 80 F0 FF FF 7F  @.)......R0.....
32E0: F0 FF FF 7F 78 30 32 39  02 02 10 7E 80 80 04 33  ....x029...~...3
32F0: 45 30 80 F0 FF FF 7F F0  FF FF 7F 78 6D 33 30 01  E0.........xm30.
3300: 80 01 A1 33 02 02 10 31  80 80 20 33 45 30 80 F0  ...3...1.. 3E0..
3310: FF FF 7F F0 FF FF 7F 78  67 33 30 01 80 01 A1 33  .......xg30....3
3320: 02 02 10 33 80 80 3C 33  45 30 80 F0 FF FF 7F F0  ...3..<3E0......
3330: FF FF 7F 78 74 33 30 01  80 01 A1 33 02 02 10 34  ...xt30....3...4
3340: 80 80 58 33 45 30 80 F0  FF FF 7F F0 FF FF 7F 78  ..X3E0.........x
3350: 74 33 30 01 80 01 A1 33  02 02 10 35 80 80 74 33  t30....3...5..t3
3360: 45 30 80 F0 FF FF 7F F0  FF FF 7F 78 6D 33 30 01  E0.........xm30.
3370: 80 01 A1 33 02 02 10 32  80 80 90 33 45 30 80 F0  ...3...2...3E0..
3380: FF FF 7F F0 FF FF 7F 78  67 33 30 01 80 01 A1 33  .......xg30....3
3390: 45 30 80 F0 FF FF 7F F0  FF FF 7F 78 30 33 30 01  E0.........x030.
33A0: 80 1C 44 80 59 01 56 83  08 01 40 80 4B 56 83 08  ..D.Y.V...@.KV..
33B0: 01 3F 81 1C 44 80 2B 56  83 08 01 40 81 23 52 30  .?..D.+V...@.#R0
33C0: 80 F0 FF FF 7F F0 FF FF  7F 78 30 33 30 52 30 80  .........x030R0.
33D0: F0 FF FF 7F F0 FF FF 7F  78 6D 33 30 52 30 80 F0  ........xm30R0..
33E0: FF FF 7F F0 FF FF 7F 78  74 33 30 52 30 80 F0 FF  .......xt30R0...
33F0: FF 7F F0 FF FF 7F 78 67  33 30 45 30 80 F0 FF FF  ......xg30E0....
3400: 7F F0 FF FF 7F 78 30 33  31 01 80 1C 36 80 03 02  .....x031...6...
3410: 10 A1 80 27 10 CC 82 08  01 01 2B 56 83 08 01 41  ...'......+V...A
3420: 81 23 2A 10 CC 82 08 01  5D 01 80 AC 80 59 01 56  .#*.....]....Y.V
3430: 83 08 01 52 80 1A 56 89  1C 25 80 52 30 80 F0 FF  ...R..V..%.R0...
3440: FF 7F F0 FF FF 7F 78 30  33 31 1C 4D 80 AB 11 01  ......x031.M....
3450: 80 1C 2D 80 02 00 00 01  80 00 5F 34 30 21 00 46  ..-......._40!.F
3460: 00 45 3F 80 F0 FF FF 7F  F0 FF FF 7F 66 64 69 32  .E?.........fdi2
3470: 01 80 21 00                                       ..!.            
```

#### Opcodes

```
  0: 0x0001 [0x42] SET_CLI_EVENT_CANCEL_DATA()
  1: 0x0002 [0x1A] CALL_SUBROUTINE(address=0x8956)
  2: 0x0005 [0x46] CAMERA_CONTROL: Disable user control
  3: 0x0007 [0x03] ExtData[1]->WorkLocal[0] = Work_Zone[2]
  4: 0x000C [0x38] SET_CLIENT_EVENT_MODE(mode=19*)
  5: 0x000F [0x5D] SET_MUSIC_VOLUME(volume=0*, fade_time=120*)
  6: 0x0014 [0x27] REQ_SET(priority=0x10, entity_id=Lilisette (ID: 17335124/0x01088354), tag_num=0x04)
  7: 0x001B [0x27] REQ_SET(priority=0x10, entity_id=Portia (ID: 17335125/0x01088355), tag_num=0x04)
  8: 0x0022 [0x27] REQ_SET(priority=0x10, entity_id=Unnamed NPC (ID: 17335126/0x01088356), tag_num=0x04)
  9: 0x0029 [0x27] REQ_SET(priority=0x10, entity_id=Larzos (ID: 17335128/0x01088358), tag_num=0x04)
 10: 0x0030 [0x27] REQ_SET(priority=0x10, entity_id=Cait Sith Ceithir (ID: 17335129/0x01088359), tag_num=0x04)
 11: 0x0037 [0x27] REQ_SET(priority=0x10, entity_id=1 (ID: 17335137/0x01088361), tag_num=0x02)
 12: 0x003E [0x27] REQ_SET(priority=0x10, entity_id=Lilisette (ID: 17335142/0x01088366), tag_num=0x04)
 13: 0x0045 [0x27] REQ_SET(priority=0x10, entity_id=Portia (ID: 17335143/0x01088367), tag_num=0x04)
 14: 0x004C [0x27] REQ_SET(priority=0x10, entity_id=Akadaemon (ID: 17335145/0x01088369), tag_num=0x0A)
 15: 0x0053 [0x2F] P1 (ID: 17335148/0x0108836C)->Render.Flags0 &= ~0x80000 // Bit 19
 16: 0x0059 [0x2F] P2 (ID: 17335149/0x0108836D)->Render.Flags0 &= ~0x80000 // Bit 19
 17: 0x005F [0x2F] P3 (ID: 17335150/0x0108836E)->Render.Flags0 &= ~0x80000 // Bit 19
 18: 0x0065 [0x4E] SET_ENTITY_HIDE_FLAG: Show P1 (ID: 17335148/0x0108836C)
 19: 0x006B [0x4E] SET_ENTITY_HIDE_FLAG: Show P2 (ID: 17335149/0x0108836D)
 20: 0x0071 [0x4E] SET_ENTITY_HIDE_FLAG: Show P3 (ID: 17335150/0x0108836E)
 21: 0x0077 [0x92] Lilisette (ID: 17335124/0x01088354)->Render.Flags3 ^= 0x01
 22: 0x007D [0x92] Portia (ID: 17335125/0x01088355)->Render.Flags3 ^= 0x01
 23: 0x0083 [0x92] Unnamed NPC (ID: 17335126/0x01088356)->Render.Flags3 ^= 0x01
 24: 0x0089 [0x92] Larzos (ID: 17335128/0x01088358)->Render.Flags3 ^= 0x01
 25: 0x008F [0x92] Cait Sith Ceithir (ID: 17335129/0x01088359)->Render.Flags3 ^= 0x01
 26: 0x0095 [0x92] Lilisette (ID: 17335142/0x01088366)->Render.Flags3 ^= 0x01
 27: 0x009B [0x92] Portia (ID: 17335143/0x01088367)->Render.Flags3 ^= 0x01
 28: 0x00A1 [0x92] Akadaemon (ID: 17335145/0x01088369)->Render.Flags3 ^= 0x01
 29: 0x00A7 [0x92] P1 (ID: 17335148/0x0108836C)->Render.Flags3 ^= 0x01
 30: 0x00AD [0x92] P2 (ID: 17335149/0x0108836D)->Render.Flags3 ^= 0x01
 31: 0x00B3 [0x92] P3 (ID: 17335150/0x0108836E)->Render.Flags3 ^= 0x01
 32: 0x00B9 [0x92] 1 (ID: 17335137/0x01088361)->Render.Flags3 ^= 0x01
 33: 0x00BF [0x94] LocalPlayer->Render.Flags3 ^= 0x01
 34: 0x00C5 [0x94] Lilisette (ID: 17335124/0x01088354)->Render.Flags3 ^= 0x01
 35: 0x00CB [0x94] Portia (ID: 17335125/0x01088355)->Render.Flags3 ^= 0x01
 36: 0x00D1 [0x94] Unnamed NPC (ID: 17335126/0x01088356)->Render.Flags3 ^= 0x01
 37: 0x00D7 [0x94] Larzos (ID: 17335128/0x01088358)->Render.Flags3 ^= 0x01
 38: 0x00DD [0x94] Cait Sith Ceithir (ID: 17335129/0x01088359)->Render.Flags3 ^= 0x01
 39: 0x00E3 [0x94] 1 (ID: 17335137/0x01088361)->Render.Flags3 ^= 0x01
 40: 0x00E9 [0x94] Lilisette (ID: 17335142/0x01088366)->Render.Flags3 ^= 0x01
 41: 0x00EF [0x94] Portia (ID: 17335143/0x01088367)->Render.Flags3 ^= 0x01
 42: 0x00F5 [0x94] Akadaemon (ID: 17335145/0x01088369)->Render.Flags3 ^= 0x01
 43: 0x00FB [0x94] P1 (ID: 17335148/0x0108836C)->Render.Flags3 ^= 0x01
 44: 0x0101 [0x94] P2 (ID: 17335149/0x0108836D)->Render.Flags3 ^= 0x01
 45: 0x0107 [0x94] P3 (ID: 17335150/0x0108836E)->Render.Flags3 ^= 0x01
 46: 0x010D [0xBA] SET_ENTITY_POSITION(entity_id=LocalPlayer, pos_x=-47.296*, pos_z=-202.702*, pos_y=-39.836*, direction=186.8*)
 47: 0x011A [0xBA] SET_ENTITY_POSITION(entity_id=Lilisette (ID: 17335124/0x01088354), pos_x=-43.886*, pos_z=-203.960*, pos_y=-40.006*, direction=182.8*)
 48: 0x0127 [0xBA] SET_ENTITY_POSITION(entity_id=Portia (ID: 17335125/0x01088355), pos_x=-43.886*, pos_z=-203.960*, pos_y=-40.006*, direction=182.8*)
 49: 0x0134 [0xBA] SET_ENTITY_POSITION(entity_id=Unnamed NPC (ID: 17335126/0x01088356), pos_x=-45.574*, pos_z=-205.044*, pos_y=-39.871*, direction=197.0*)
 50: 0x0141 [0x59] UPDATE_ENTITY_DATA: Larzos (ID: 17335128/0x01088358)->Render.Flags0 |= 0x200000
 51: 0x0148 [0x59] UPDATE_ENTITY_DATA: Cait Sith Ceithir (ID: 17335129/0x01088359)->Render.Flags0 |= 0x200000
 52: 0x014F [0xBA] SET_ENTITY_POSITION(entity_id=Larzos (ID: 17335128/0x01088358), pos_x=-55.065*, pos_z=-192.457*, pos_y=-44.240*, direction=44.9*)
 53: 0x015C [0xBA] SET_ENTITY_POSITION(entity_id=Cait Sith Ceithir (ID: 17335129/0x01088359), pos_x=-55.340*, pos_z=-194.363*, pos_y=-44.235*, direction=12.8*)
 54: 0x0169 [0xBA] SET_ENTITY_POSITION(entity_id=Akadaemon (ID: 17335145/0x01088369), pos_x=-53.714*, pos_z=-200.080*, pos_y=-39.432*, direction=12.8*)
 55: 0x0176 [0xBA] SET_ENTITY_POSITION(entity_id=Lilisette (ID: 17335142/0x01088366), pos_x=-52.787*, pos_z=-200.795*, pos_y=-39.525*, direction=186.8*)
 56: 0x0183 [0xBA] SET_ENTITY_POSITION(entity_id=Portia (ID: 17335143/0x01088367), pos_x=-52.787*, pos_z=-200.795*, pos_y=-39.525*, direction=186.8*)
 57: 0x0190 [0x59] UPDATE_ENTITY_DATA: P1 (ID: 17335148/0x0108836C)->Render.Flags0 |= 0x200000
 58: 0x0197 [0xBA] SET_ENTITY_POSITION(entity_id=1 (ID: 17335137/0x01088361), pos_x=-43.886*, pos_z=-203.960*, pos_y=-40.006*, direction=182.8*)
