# 17335091

## Common Data

| Field            | Value                            |
|------------------|----------------------------------|
| Zone             | Beaucedine Glacier [S] (ID: 136) |
| Block Size       | 49408 bytes                      |
| Total Events     | 10                               |
| References Count | 1529                             |

## List of Events

| Event ID              | Entrypoint   |   Size |   Instructions |
|-----------------------|--------------|--------|----------------|
| [65535](#event-65535) | 0x0000       |      1 |              1 |
| [1](#event-1)         | 0x0001       |   4480 |            523 |
| [2](#event-2)         | 0x1181       |   5499 |            610 |
| [3](#event-3)         | 0x26FC       |   1963 |            218 |
| [4](#event-4)         | 0x2EA7       |   1972 |            235 |
| [5](#event-5)         | 0x365B       |   1816 |            198 |
| [27](#event-27)       | 0x3D73       |    222 |             37 |
| [6](#event-6)         | 0x3E51       |  20143 |           1977 |
| [31](#event-31)       | 0x8D00       |     38 |              8 |
| [7](#event-7)         | 0x8D26       |   7099 |            773 |

## DAT References (imed_data)

|   Index | Hex Value   |   Dec Value |
|---------|-------------|-------------|
|       0 | 0x0013      |          19 |
|       1 | 0xE8B1      |       59569 |
|       2 | 0xFFF87DC6  |  4294475206 |
|       3 | 0x00CC      |         204 |
|       4 | 0x0C2F      |        3119 |
|       5 | 0xEA26      |       59942 |
|       6 | 0xFFF86230  |  4294468144 |
|       7 | 0xFFFFFEA7  |  4294966951 |
|       8 | 0x0BD0      |        3024 |
|       9 | 0xE513      |       58643 |
|      10 | 0xFFF85D37  |  4294466871 |
|      11 | 0xFFFFFD8B  |  4294966667 |
|      12 | 0xEDFB      |       60923 |
|      13 | 0xFFF85D40  |  4294466880 |
|      14 | 0xFFFFFD8D  |  4294966669 |
|      15 | 0xEE55      |       61013 |
|      16 | 0xFFF840E2  |  4294459618 |
|      17 | 0xFFFFFA99  |  4294965913 |
|      18 | 0x0320      |         800 |
|      19 | 0xE677      |       58999 |
|      20 | 0xFFF83ECE  |  4294459086 |
|      21 | 0xFFFFFA7E  |  4294965886 |
|      22 | 0x031F      |         799 |
|      23 | 0xEDE2      |       60898 |
|      24 | 0xFFF83798  |  4294457240 |
|      25 | 0xFFFFFA21  |  4294965793 |
|      26 | 0x0319      |         793 |
|      27 | 0xE3D7      |       58327 |
|      28 | 0xFFF83413  |  4294456339 |
|      29 | 0xFFFFFA24  |  4294965796 |
|      30 | 0xEA02      |       59906 |
|      31 | 0xFFF82B07  |  4294454023 |
|      32 | 0xE119      |       57625 |
|      33 | 0xFFF8292D  |  4294453549 |
|      34 | 0x0000      |           0 |
|      35 | 0x0005      |           5 |
|      36 | 0x002C      |          44 |
|      37 | 0x000F      |          15 |
|      38 | 0x0200      |         512 |
|      39 | 0x0096      |         150 |
|      40 | 0x000A      |          10 |
|      41 | 0x0032      |          50 |
|      42 | 0x1E1D      |        7709 |
|      43 | 0x008C      |         140 |
|      44 | 0x0028      |          40 |
|      45 | 0x0064      |         100 |
|      46 | 0x0050      |          80 |
|      47 | 0x001D      |          29 |
|      48 | 0x1E1E      |        7710 |
|      49 | 0x0536      |        1334 |
|      50 | 0x0001      |           1 |
|      51 | 0xECF8      |       60664 |
|      52 | 0xFFF878E9  |  4294473961 |
|      53 | 0x00F8      |         248 |
|      54 | 0x0AF0      |        2800 |
|      55 | 0x1E1F      |        7711 |
|      56 | 0x0037      |          55 |
|      57 | 0x0046      |          70 |
|      58 | 0xEC50      |       60496 |
|      59 | 0xFFF8641C  |  4294468636 |
|      60 | 0xFFFFFF09  |  4294967049 |
|      61 | 0x0BE6      |        3046 |
|      62 | 0xF4AA      |       62634 |
|      63 | 0xFFF85E71  |  4294467185 |
|      64 | 0xFFFFFDD9  |  4294966745 |
|      65 | 0xE84E      |       59470 |
|      66 | 0xFFF85AA2  |  4294466210 |
|      67 | 0xFFFFFCE5  |  4294966501 |
|      68 | 0xDFD6      |       57302 |
|      69 | 0xFFF85E45  |  4294467141 |
|      70 | 0xFFFFFDCE  |  4294966734 |
|      71 | 0x1E20      |        7712 |
|      72 | 0x0006      |           6 |
|      73 | 0x0003      |           3 |
|      74 | 0x0004      |           4 |
|      75 | 0x0008      |           8 |
|      76 | 0x0B4A      |        2890 |
|      77 | 0x003C      |          60 |
|      78 | 0x1E21      |        7713 |
|      79 | 0x001E      |          30 |
|      80 | 0xE3FB      |       58363 |
|      81 | 0xFFF884DA  |  4294477018 |
|      82 | 0x00AF      |         175 |
|      83 | 0x0BB8      |        3000 |
|      84 | 0x0014      |          20 |
|      85 | 0x0024      |          36 |
|      86 | 0x00A0      |         160 |
|      87 | 0x0044      |          68 |
|      88 | 0x00B4      |         180 |
|      89 | 0x1E22      |        7714 |
|      90 | 0x1E23      |        7715 |
|      91 | 0x0058      |          88 |
|      92 | 0xE254      |       57940 |
|      93 | 0xFFF894DB  |  4294481115 |
|      94 | 0x008F      |         143 |
|      95 | 0x0384      |         900 |
|      96 | 0x0007      |           7 |
|      97 | 0x1E24      |        7716 |
|      98 | 0x0027      |          39 |
|      99 | 0x1E25      |        7717 |
|     100 | 0x1E26      |        7718 |
|     101 | 0xE87B      |       59515 |
|     102 | 0xFFF86BB3  |  4294470579 |
|     103 | 0x0E10      |        3600 |
|     104 | 0x0078      |         120 |
|     105 | 0xDF8C      |       57228 |
|     106 | 0xFFF8917D  |  4294480253 |
|     107 | 0x005A      |          90 |
|     108 | 0x028A      |         650 |
|     109 | 0xEA67      |       60007 |
|     110 | 0xFFF88D23  |  4294479139 |
|     111 | 0x0129      |         297 |
|     112 | 0x05E4      |        1508 |
|     113 | 0x1E27      |        7719 |
|     114 | 0x0C80      |        3200 |
|     115 | 0x0023      |          35 |
|     116 | 0x1E28      |        7720 |
|     117 | 0x00D2      |         210 |
|     118 | 0x0002      |           2 |
|     119 | 0x006E      |         110 |
|     120 | 0x000B      |          11 |
|     121 | 0xE1E8      |       57832 |
|     122 | 0xFFF87756  |  4294473558 |
|     123 | 0xFFFFFF92  |  4294967186 |
|     124 | 0x0351      |         849 |
|     125 | 0xEE17      |       60951 |
|     126 | 0xFFF88138  |  4294476088 |
|     127 | 0x00E0      |         224 |
|     128 | 0x06F4      |        1780 |
|     129 | 0xE642      |       58946 |
|     130 | 0xFFF8879B  |  4294477723 |
|     131 | 0x00DB      |         219 |
|     132 | 0x05AA      |        1450 |
|     133 | 0xF509      |       62729 |
|     134 | 0xFFF88477  |  4294476919 |
|     135 | 0x0057      |          87 |
|     136 | 0x0672      |        1650 |
|     137 | 0xEF59      |       61273 |
|     138 | 0xFFF86BD8  |  4294470616 |
|     139 | 0x0070      |         112 |
|     140 | 0x0A28      |        2600 |
|     141 | 0xE82F      |       59439 |
|     142 | 0xFFF866A0  |  4294469280 |
|     143 | 0xFFFFFF8B  |  4294967179 |
|     144 | 0xED7B      |       60795 |
|     145 | 0xFFF8631C  |  4294468380 |
|     146 | 0xFFFFFED6  |  4294966998 |
|     147 | 0xE7C5      |       59333 |
|     148 | 0xFFF85D29  |  4294466857 |
|     149 | 0xFFFFFD87  |  4294966663 |
|     150 | 0x1E29      |        7721 |
|     151 | 0x0CE4      |        3300 |
|     152 | 0x05E5      |        1509 |
|     153 | 0x1E2A      |        7722 |
|     154 | 0x1E2B      |        7723 |
|     155 | 0x00C8      |         200 |
|     156 | 0x1B740     |      112448 |
|     157 | 0x1CCA1     |      117921 |
|     158 | 0xFFFFB290  |  4294947472 |
|     159 | 0x096B      |        2411 |
|     160 | 0x1A5FC     |      108028 |
|     161 | 0x1CC53     |      117843 |
|     162 | 0xFFFFB368  |  4294947688 |
|     163 | 0x17BCF     |       97231 |
|     164 | 0x1A3E2     |      107490 |
|     165 | 0xFFFFACAA  |  4294945962 |
|     166 | 0x08E2      |        2274 |
|     167 | 0x17BF6     |       97270 |
|     168 | 0x1AF2A     |      110378 |
|     169 | 0xFFFFAC4C  |  4294945868 |
|     170 | 0x174FF     |       95487 |
|     171 | 0x19D41     |      105793 |
|     172 | 0xFFFFABAE  |  4294945710 |
|     173 | 0x0090      |         144 |
|     174 | 0x000D      |          13 |
|     175 | 0x01C5      |         453 |
|     176 | 0x1E2C      |        7724 |
|     177 | 0x0959      |        2393 |
|     178 | 0x1E2D      |        7725 |
|     179 | 0x0009      |           9 |
|     180 | 0x0031      |          49 |
|     181 | 0x003B      |          59 |
|     182 | 0x0045      |          69 |
|     183 | 0x1E2E      |        7726 |
|     184 | 0x1E2F      |        7727 |
|     185 | 0x1E30      |        7728 |
|     186 | 0x1E31      |        7729 |
|     187 | 0x1E32      |        7730 |
|     188 | 0x1E33      |        7731 |
|     189 | 0x1E34      |        7732 |
|     190 | 0x1C8F1     |      116977 |
|     191 | 0x202DE     |      131806 |
|     192 | 0xFFFFB287  |  4294947463 |
|     193 | 0x0511      |        1297 |
|     194 | 0x168EF     |       92399 |
|     195 | 0x1AC1A     |      109594 |
|     196 | 0xFFFFAF6D  |  4294946669 |
|     197 | 0x008B      |         139 |
|     198 | 0x0B5C      |        2908 |
|     199 | 0x00F0      |         240 |
|     200 | 0x00AA      |         170 |
|     201 | 0x1C310     |      115472 |
|     202 | 0x20D3B     |      134459 |
|     203 | 0xFFFFB29B  |  4294947483 |
|     204 | 0x0080      |         128 |
|     205 | 0x1E35      |        7733 |
|     206 | 0x1E36      |        7734 |
|     207 | 0x00FA      |         250 |
|     208 | 0x1E37      |        7735 |
|     209 | 0x1CA44     |      117316 |
|     210 | 0x20D90     |      134544 |
|     211 | 0xFFFFB46B  |  4294947947 |
|     212 | 0x024D      |         589 |
|     213 | 0x16F8F     |       94095 |
|     214 | 0x1DE07     |      122375 |
|     215 | 0xFFFFB43E  |  4294947902 |
|     216 | 0x025B      |         603 |
|     217 | 0x19E70     |      106096 |
|     218 | 0x1D9C3     |      121283 |
|     219 | 0xFFFFB42A  |  4294947882 |
|     220 | 0x024C      |         588 |
|     221 | 0x057E      |        1406 |
|     222 | 0x186F0     |      100080 |
|     223 | 0x1E69F     |      124575 |
|     224 | 0xFFFF9E23  |  4294942243 |
|     225 | 0x03E8      |        1000 |
|     226 | 0x1E38      |        7736 |
|     227 | 0x1E39      |        7737 |
|     228 | 0x00F6      |         246 |
|     229 | 0x17158     |       94552 |
|     230 | 0x1CE86     |      118406 |
|     231 | 0xFFFFB46C  |  4294947948 |
|     232 | 0x0FF0      |        4080 |
|     233 | 0x19DCF     |      105935 |
|     234 | 0x1DF31     |      122673 |
|     235 | 0xFFFFB43B  |  4294947899 |
|     236 | 0x07D0      |        2000 |
|     237 | 0x1E3A      |        7738 |
|     238 | 0x17A8D     |       96909 |
|     239 | 0x1D3AF     |      119727 |
|     240 | 0xFFFFB52E  |  4294948142 |
|     241 | 0x0D24      |        3364 |
|     242 | 0x18307     |       99079 |
|     243 | 0x1CAF1     |      117489 |
|     244 | 0xFFFFB599  |  4294948249 |
|     245 | 0x0D7A      |        3450 |
|     246 | 0x092F      |        2351 |
|     247 | 0x1E3B      |        7739 |
|     248 | 0x1E3C      |        7740 |
|     249 | 0x04F9      |        1273 |
|     250 | 0x1E3D      |        7741 |
|     251 | 0x1E3E      |        7742 |
|     252 | 0x1E3F      |        7743 |
|     253 | 0x1E40      |        7744 |
|     254 | 0x0A64      |        2660 |
|     255 | 0x184FD     |       99581 |
|     256 | 0x1DF98     |      122776 |
|     257 | 0xFFFFB4C1  |  4294948033 |
|     258 | 0x1E41      |        7745 |
|     259 | 0x04F8      |        1272 |
|     260 | 0x1E42      |        7746 |
|     261 | 0x1E43      |        7747 |
|     262 | 0x1E44      |        7748 |
|     263 | 0x1E45      |        7749 |
|     264 | 0x1E46      |        7750 |
|     265 | 0x1E47      |        7751 |
|     266 | 0x1E48      |        7752 |
|     267 | 0x1E49      |        7753 |
|     268 | 0x1E4A      |        7754 |
|     269 | 0x1E4B      |        7755 |
|     270 | 0x0515      |        1301 |
|     271 | 0x098A      |        2442 |
|     272 | 0x1E4C      |        7756 |
|     273 | 0x1E4D      |        7757 |
|     274 | 0x0513      |        1299 |
|     275 | 0x1E4E      |        7758 |
|     276 | 0x00F7      |         247 |
|     277 | 0x1E4F      |        7759 |
|     278 | 0x1C820     |      116768 |
|     279 | 0x189B6     |      100790 |
|     280 | 0xFFFFB5A0  |  4294948256 |
|     281 | 0x0C40      |        3136 |
|     282 | 0x1D844     |      120900 |
|     283 | 0x18DAB     |      101803 |
|     284 | 0xFFFFB56E  |  4294948206 |
|     285 | 0x1E2AB     |      123563 |
|     286 | 0x1609D     |       90269 |
|     287 | 0xFFFFB318  |  4294947608 |
|     288 | 0x2008E     |      131214 |
|     289 | 0x15BA3     |       88995 |
|     290 | 0xFFFFB1E0  |  4294947296 |
|     291 | 0x1F8B7     |      129207 |
|     292 | 0x18F58     |      102232 |
|     293 | 0xFFFFB04F  |  4294946895 |
|     294 | 0x000C      |          12 |
|     295 | 0x1730B     |       94987 |
|     296 | 0x209BB     |      133563 |
|     297 | 0xFFFFB0E6  |  4294947046 |
|     298 | 0x0821      |        2081 |
|     299 | 0x17A6C     |       96876 |
|     300 | 0x20362     |      131938 |
|     301 | 0xFFFFB0E7  |  4294947047 |
|     302 | 0x0946      |        2374 |
|     303 | 0x1E50      |        7760 |
|     304 | 0x05AD      |        1453 |
|     305 | 0x00A3      |         163 |
|     306 | 0x1E51      |        7761 |
|     307 | 0x1E52      |        7762 |
|     308 | 0x1E53      |        7763 |
|     309 | 0x1E54      |        7764 |
|     310 | 0x1E55      |        7765 |
|     311 | 0x049D      |        1181 |
|     312 | 0x049E      |        1182 |
|     313 | 0x049F      |        1183 |
|     314 | 0x1E56      |        7766 |
|     315 | 0x1E57      |        7767 |
|     316 | 0x4272      |       17010 |
|     317 | 0x1E58      |        7768 |
|     318 | 0x057F      |        1407 |
|     319 | 0x1E59      |        7769 |
|     320 | 0x1A677     |      108151 |
|     321 | 0x1D4E3     |      120035 |
|     322 | 0xFFFFB35C  |  4294947676 |
|     323 | 0x0E58      |        3672 |
|     324 | 0x1C080     |      114816 |
|     325 | 0x1FBC7     |      129991 |
|     326 | 0xFFFFB12E  |  4294947118 |
|     327 | 0x0D8D      |        3469 |
|     328 | 0x1B52D     |      111917 |
|     329 | 0x1F508     |      128264 |
|     330 | 0xFFFFB1AD  |  4294947245 |
|     331 | 0x0898      |        2200 |
|     332 | 0x19654     |      104020 |
|     333 | 0x1F270     |      127600 |
|     334 | 0xFFFFB232  |  4294947378 |
|     335 | 0x012C      |         300 |
|     336 | 0x05E0      |        1504 |
|     337 | 0x1E5B      |        7771 |
|     338 | 0x1A688     |      108168 |
|     339 | 0x1EBD2     |      125906 |
|     340 | 0xFFFFB306  |  4294947590 |
|     341 | 0x05DC      |        1500 |
|     342 | 0x19EAB     |      106155 |
|     343 | 0x1E27C     |      123516 |
|     344 | 0xFFFFB3C1  |  4294947777 |
|     345 | 0x0D66      |        3430 |
|     346 | 0x1E5C      |        7772 |
|     347 | 0x0A63      |        2659 |
|     348 | 0x1E5D      |        7773 |
|     349 | 0x1E5E      |        7774 |
|     350 | 0x1E5F      |        7775 |
|     351 | 0x0DAC      |        3500 |
|     352 | 0x1E60      |        7776 |
|     353 | 0x1E61      |        7777 |
|     354 | 0x092D      |        2349 |
|     355 | 0x1E62      |        7778 |
|     356 | 0x016D      |         365 |
|     357 | 0x00DC      |         220 |
|     358 | 0x1E63      |        7779 |
|     359 | 0x0300      |         768 |
|     360 | 0x1E64      |        7780 |
|     361 | 0x1E65      |        7781 |
|     362 | 0x1E66      |        7782 |
|     363 | 0x0098      |         152 |
|     364 | 0x1E67      |        7783 |
|     365 | 0x1E6B7     |      124599 |
|     366 | 0x2FA09     |      195081 |
|     367 | 0xFFFF1648  |  4294907464 |
|     368 | 0x1E425     |      123941 |
|     369 | 0x2F588     |      193928 |
|     370 | 0xFFFF16BE  |  4294907582 |
|     371 | 0x0B54      |        2900 |
|     372 | 0x1BFE1     |      114657 |
|     373 | 0x287A1     |      165793 |
|     374 | 0xFFFFB1C8  |  4294947272 |
|     375 | 0x0E59      |        3673 |
|     376 | 0x1DBF7     |      121847 |
|     377 | 0x24D5C     |      150876 |
|     378 | 0xFFFFB2DF  |  4294947551 |
|     379 | 0x1F0F2     |      127218 |
|     380 | 0x2547B     |      152699 |
|     381 | 0xFFFFB228  |  4294947368 |
|     382 | 0x09C4      |        2500 |
|     383 | 0x1C9F6     |      117238 |
|     384 | 0x264F0     |      156912 |
|     385 | 0x1E520     |      124192 |
|     386 | 0x2F936     |      194870 |
|     387 | 0xFFFF164F  |  4294907471 |
|     388 | 0x00CE      |         206 |
|     389 | 0x1E68      |        7784 |
|     390 | 0x1E69      |        7785 |
|     391 | 0x01EA      |         490 |
|     392 | 0x1DAC1     |      121537 |
|     393 | 0x30161     |      196961 |
|     394 | 0xFFFF15A1  |  4294907297 |
|     395 | 0x0385      |         901 |
|     396 | 0x1DBFA     |      121850 |
|     397 | 0x2FD40     |      195904 |
|     398 | 0xFFFF15A0  |  4294907296 |
|     399 | 0x030C      |         780 |
|     400 | 0x1E6A      |        7786 |
|     401 | 0x1E6B      |        7787 |
|     402 | 0x11F8      |        4600 |
|     403 | 0x052A      |        1322 |
|     404 | 0x1E6C      |        7788 |
|     405 | 0x1D25B     |      119387 |
|     406 | 0x26C58     |      158808 |
|     407 | 0x1E6D      |        7789 |
|     408 | 0x007F      |         127 |
|     409 | 0x0FA0      |        4000 |
|     410 | 0x002D      |          45 |
|     411 | 0x0E74      |        3700 |
|     412 | 0x1E6E      |        7790 |
|     413 | 0x00D8      |         216 |
|     414 | 0x0948      |        2376 |
|     415 | 0x00B0      |         176 |
|     416 | 0x1E6F      |        7791 |
|     417 | 0x186F7     |      100087 |
|     418 | 0x264A7     |      156839 |
|     419 | 0xFFFFAA73  |  4294945395 |
|     420 | 0x0EA8      |        3752 |
|     421 | 0x1E70      |        7792 |
|     422 | 0x0041      |          65 |
|     423 | 0x0053      |          83 |
|     424 | 0x1E1C      |        7708 |
|     425 | 0x1E71      |        7793 |
|     426 | 0xBCEF      |       48367 |
|     427 | 0xFFFB0A70  |  4294642288 |
|     428 | 0x00A5      |         165 |
|     429 | 0x0755      |        1877 |
|     430 | 0xA316      |       41750 |
|     431 | 0xFFFAB6F9  |  4294620921 |
|     432 | 0x022D      |         557 |
|     433 | 0x0708      |        1800 |
|     434 | 0x9839      |       38969 |
|     435 | 0xFFFAB2D5  |  4294619861 |
|     436 | 0x02EF      |         751 |
|     437 | 0x010E      |         270 |
|     438 | 0x9070      |       36976 |
|     439 | 0xFFFAEB0F  |  4294634255 |
|     440 | 0x01F3      |         499 |
|     441 | 0x82FC      |       33532 |
|     442 | 0xFFFAC75B  |  4294625115 |
|     443 | 0x027E      |         638 |
|     444 | 0x03AC      |         940 |
|     445 | 0x0018      |          24 |
|     446 | 0x00C7      |         199 |
|     447 | 0xAB7A      |       43898 |
|     448 | 0xFFFA9B5E  |  4294613854 |
|     449 | 0x007E      |         126 |
|     450 | 0x075E      |        1886 |
|     451 | 0x0015      |          21 |
|     452 | 0x09A0      |        2464 |
|     453 | 0xA5EF      |       42479 |
|     454 | 0xFFFAF456  |  4294636630 |
|     455 | 0x014B      |         331 |
|     456 | 0xB42F      |       46127 |
|     457 | 0xFFFA7BE5  |  4294605797 |
|     458 | 0x0069      |         105 |
|     459 | 0x03AB      |         939 |
|     460 | 0x0082      |         130 |
|     461 | 0x0226      |         550 |
|     462 | 0x1E73      |        7795 |
|     463 | 0xA357      |       41815 |
|     464 | 0xFFFB0710  |  4294641424 |
|     465 | 0x005C      |          92 |
|     466 | 0x0671      |        1649 |
|     467 | 0x0BAC      |        2988 |
|     468 | 0x0587      |        1415 |
|     469 | 0x1E74      |        7796 |
|     470 | 0x148B4     |       84148 |
|     471 | 0xFFFA7AA9  |  4294605481 |
|     472 | 0xFFFFFFF8  |  4294967288 |
|     473 | 0x128DF     |       75999 |
|     474 | 0xFFFC5A69  |  4294728297 |
|     475 | 0x00C1      |         193 |
|     476 | 0x3AC43     |      240707 |
|     477 | 0xFFFD0F1E  |  4294774558 |
|     478 | 0xFFFFFF5D  |  4294967133 |
|     479 | 0x0FE2      |        4066 |
|     480 | 0x38DD0     |      232912 |
|     481 | 0xFFFCFB1E  |  4294769438 |
|     482 | 0x07C2      |        1986 |
|     483 | 0x143E2     |       82914 |
|     484 | 0xFFFA826F  |  4294607471 |
|     485 | 0x1F8F7     |      129271 |
|     486 | 0x17EDA     |       98010 |
|     487 | 0xFFFFB215  |  4294947349 |
|     488 | 0x14536     |       83254 |
|     489 | 0x1BFF0     |      114672 |
|     490 | 0xFFFFADB5  |  4294946229 |
|     491 | 0x08DE      |        2270 |
|     492 | 0x123A7     |       74663 |
|     493 | 0xFFFAA321  |  4294615841 |
|     494 | 0x096C      |        2412 |
|     495 | 0x1302F     |       77871 |
|     496 | 0xFFFA87AC  |  4294608812 |
|     497 | 0x03F4      |        1012 |
|     498 | 0x10324     |       66340 |
|     499 | 0xFFFA959E  |  4294612382 |
|     500 | 0x0174      |         372 |
|     501 | 0x019B      |         411 |
|     502 | 0x13592     |       79250 |
|     503 | 0xFFFAB075  |  4294619253 |
|     504 | 0x0186      |         390 |
|     505 | 0x08EE      |        2286 |
|     506 | 0x1157C     |       71036 |
|     507 | 0xFFFAA019  |  4294615065 |
|     508 | 0x0125      |         293 |
|     509 | 0x133B7     |       78775 |
|     510 | 0xFFFA9672  |  4294612594 |
|     511 | 0x003F      |          63 |
|     512 | 0x133EA     |       78826 |
|     513 | 0xFFFAC91C  |  4294625564 |
|     514 | 0x0390      |         912 |
|     515 | 0x096F      |        2415 |
|     516 | 0x117C6     |       71622 |
|     517 | 0xFFFA951A  |  4294612250 |
|     518 | 0x00D7      |         215 |
|     519 | 0x0AFC      |        2812 |
|     520 | 0x126CD     |       75469 |
|     521 | 0xFFFA93CF  |  4294611919 |
|     522 | 0x055E      |        1374 |
|     523 | 0x051E      |        1310 |
|     524 | 0x01ED      |         493 |
|     525 | 0x1E75      |        7797 |
|     526 | 0x1E76      |        7798 |
|     527 | 0x1E77      |        7799 |
|     528 | 0x3CA1A     |      248346 |
|     529 | 0xFFFCFE7F  |  4294770303 |
|     530 | 0x00BA      |         186 |
|     531 | 0x3D841     |      251969 |
|     532 | 0xFFFCEFFE  |  4294766590 |
|     533 | 0x0187      |         391 |
|     534 | 0x0230      |         560 |
|     535 | 0x4F365     |      324453 |
|     536 | 0xFFFDD7FE  |  4294825982 |
|     537 | 0x0374      |         884 |
|     538 | 0x0C97      |        3223 |
|     539 | 0x4E8CA     |      321738 |
|     540 | 0xFFFD8FAA  |  4294807466 |
|     541 | 0x0BDD      |        3037 |
|     542 | 0x3FE10     |      261648 |
|     543 | 0xFFFD0E0E  |  4294774286 |
|     544 | 0x0130      |         304 |
|     545 | 0x3FD62     |      261474 |
|     546 | 0xFFFCFFF6  |  4294770678 |
|     547 | 0x039D      |         925 |
|     548 | 0x08E3      |        2275 |
|     549 | 0x3BC76     |      244854 |
|     550 | 0xFFFD0FA8  |  4294774696 |
|     551 | 0xFFFFFF56  |  4294967126 |
|     552 | 0x403A7     |      263079 |
|     553 | 0xFFFCE567  |  4294763879 |
|     554 | 0x034D      |         845 |
|     555 | 0x0834      |        2100 |
|     556 | 0x4F6EA     |      325354 |
|     557 | 0xFFFE1B02  |  4294843138 |
|     558 | 0x0038      |          56 |
|     559 | 0x03C7      |         967 |
|     560 | 0x3E5F9     |      255481 |
|     561 | 0xFFFD16A5  |  4294776485 |
|     562 | 0xFFFFFEEF  |  4294967023 |
|     563 | 0x0250      |         592 |
|     564 | 0x39ED4     |      237268 |
|     565 | 0xFFFD12E7  |  4294775527 |
|     566 | 0xFFFFFEEA  |  4294967018 |
|     567 | 0x0251      |         593 |
|     568 | 0x3D340     |      250688 |
|     569 | 0xFFFD14F7  |  4294776055 |
|     570 | 0xFFFFFF29  |  4294967081 |
|     571 | 0x3F012     |      258066 |
|     572 | 0xFFFD031B  |  4294771483 |
|     573 | 0x0354      |         852 |
|     574 | 0x0072      |         114 |
|     575 | 0x0B48      |        2888 |
|     576 | 0x055B      |        1371 |
|     577 | 0x0B4D      |        2893 |
|     578 | 0x0599      |        1433 |
|     579 | 0x0A26      |        2598 |
|     580 | 0x04EC      |        1260 |
|     581 | 0x4F1F5     |      324085 |
|     582 | 0xFFFDB552  |  4294817106 |
|     583 | 0x011B      |         283 |
|     584 | 0x4FB08     |      326408 |
|     585 | 0xFFFDC4CB  |  4294821067 |
|     586 | 0x0149      |         329 |
|     587 | 0x4D473     |      316531 |
|     588 | 0xFFFDAE08  |  4294815240 |
|     589 | 0x00C3      |         195 |
|     590 | 0x4F713     |      325395 |
|     591 | 0xFFFDE4EC  |  4294829292 |
|     592 | 0x05F9      |        1529 |
|     593 | 0x4F062     |      323682 |
|     594 | 0xFFFDE344  |  4294828868 |
|     595 | 0x0398      |         920 |
|     596 | 0x3ED46     |      257350 |
|     597 | 0xFFFD062C  |  4294772268 |
|     598 | 0x0293      |         659 |
|     599 | 0x01B4      |         436 |
|     600 | 0x05E6      |        1510 |
|     601 | 0x00D3      |         211 |
|     602 | 0x38FDC     |      233436 |
|     603 | 0xFFFD1538  |  4294776120 |
|     604 | 0xFFFFFF39  |  4294967097 |
|     605 | 0x39A7B     |      236155 |
|     606 | 0xFFFCF3D7  |  4294767575 |
|     607 | 0x3AB0F     |      240399 |
|     608 | 0xFFFCDA21  |  4294760993 |
|     609 | 0xFFFFFF8D  |  4294967181 |
|     610 | 0x3AA76     |      240246 |
|     611 | 0xFFFD001C  |  4294770716 |
|     612 | 0x3B1FE     |      242174 |
|     613 | 0xFFFD0F79  |  4294774649 |
|     614 | 0xFFFFFF59  |  4294967129 |
|     615 | 0x0FE3      |        4067 |
|     616 | 0x370DA     |      225498 |
|     617 | 0xFFFD1CA9  |  4294778025 |
|     618 | 0xFFFFFE7F  |  4294966911 |
|     619 | 0x3900A     |      233482 |
|     620 | 0xFFFD0358  |  4294771544 |
|     621 | 0x0060      |          96 |
|     622 | 0x0640      |        1600 |
|     623 | 0x1E78      |        7800 |
|     624 | 0x1E79      |        7801 |
|     625 | 0x1E7A      |        7802 |
|     626 | 0x1E7B      |        7803 |
|     627 | 0x1E7C      |        7804 |
|     628 | 0x38DEB     |      232939 |
|     629 | 0xFFFCFF27  |  4294770471 |
|     630 | 0x0097      |         151 |
|     631 | 0x38C6B     |      232555 |
|     632 | 0xFFFCF7A9  |  4294768553 |
|     633 | 0x004C      |          76 |
|     634 | 0x3B7AB     |      243627 |
|     635 | 0xFFFD031C  |  4294771484 |
|     636 | 0xFFFFFFF6  |  4294967286 |
|     637 | 0x36E70     |      224880 |
|     638 | 0xFFFCF2DB  |  4294767323 |
|     639 | 0x02C4      |         708 |
|     640 | 0x00B2      |         178 |
|     641 | 0x3E98C     |      256396 |
|     642 | 0xFFFCFC8A  |  4294769802 |
|     643 | 0x0333      |         819 |
|     644 | 0xFFFFFFF7  |  4294967287 |
|     645 | 0x034E      |         846 |
|     646 | 0x0F06      |        3846 |
|     647 | 0x37DF6     |      228854 |
|     648 | 0xFFFD0F64  |  4294774628 |
|     649 | 0xFFFFFF6B  |  4294967147 |
|     650 | 0x00B7      |         183 |
|     651 | 0x37CBD     |      228541 |
|     652 | 0xFFFD1A1E  |  4294777374 |
|     653 | 0xFFFFFD9C  |  4294966684 |
|     654 | 0x00AB      |         171 |
|     655 | 0xFFFFFFFD  |  4294967293 |
|     656 | 0xFFFFFF7E  |  4294967166 |
|     657 | 0x018B      |         395 |
|     658 | 0x3F774     |      259956 |
|     659 | 0xFFFCFC47  |  4294769735 |
|     660 | 0x03E4      |         996 |
|     661 | 0x0801      |        2049 |
|     662 | 0x410C4     |      266436 |
|     663 | 0xFFFCEC6A  |  4294765674 |
|     664 | 0x0228      |         552 |
|     665 | 0x06FC      |        1788 |
|     666 | 0x3FFF1     |      262129 |
|     667 | 0xFFFCCA2C  |  4294756908 |
|     668 | 0xFFFFFF41  |  4294967105 |
|     669 | 0x0986      |        2438 |
|     670 | 0xFFFFFFFC  |  4294967292 |
|     671 | 0xFFFFFFFF  |  4294967295 |
|     672 | 0xFFFFFF07  |  4294967047 |
|     673 | 0x025F      |         607 |
|     674 | 0x3EC7B     |      257147 |
|     675 | 0xFFFD076F  |  4294772591 |
|     676 | 0x0249      |         585 |
|     677 | 0x04BA      |        1210 |
|     678 | 0x40A9E     |      264862 |
|     679 | 0xFFFCDB4D  |  4294761293 |
|     680 | 0x02E5      |         741 |
|     681 | 0x0A6E      |        2670 |
|     682 | 0x4386A     |      276586 |
|     683 | 0xFFFD0611  |  4294772241 |
|     684 | 0xFFFFFFD1  |  4294967249 |
|     685 | 0x0732      |        1842 |
|     686 | 0x41711     |      268049 |
|     687 | 0xFFFD08FB  |  4294772987 |
|     688 | 0x00D9      |         217 |
|     689 | 0x42CB9     |      273593 |
|     690 | 0xFFFCF29C  |  4294767260 |
|     691 | 0x0076      |         118 |
|     692 | 0x03D1      |         977 |
|     693 | 0x3D43E     |      250942 |
|     694 | 0xFFFCF88B  |  4294768779 |
|     695 | 0x0158      |         344 |
|     696 | 0x41AB7     |      268983 |
|     697 | 0xFFFCF9AF  |  4294769071 |
|     698 | 0x015C      |         348 |
|     699 | 0x3E32F     |      254767 |
|     700 | 0xFFFCE77D  |  4294764413 |
|     701 | 0x02A1      |         673 |
|     702 | 0x3F612     |      259602 |
|     703 | 0xFFFCD0DF  |  4294758623 |
|     704 | 0x4039B     |      263067 |
|     705 | 0xFFFCE669  |  4294764137 |
|     706 | 0x0B47      |        2887 |
|     707 | 0x4291E     |      272670 |
|     708 | 0xFFFCDF3E  |  4294762302 |
|     709 | 0x41136     |      266550 |
|     710 | 0xFFFCC7F0  |  4294756336 |
|     711 | 0x0A23      |        2595 |
|     712 | 0x3B77F     |      243583 |
|     713 | 0xFFFD07E9  |  4294772713 |
|     714 | 0xFFFFFFB9  |  4294967225 |
|     715 | 0x377C6     |      227270 |
|     716 | 0xFFFCE5D1  |  4294763985 |
|     717 | 0x01D4      |         468 |
|     718 | 0x00B1      |         177 |
|     719 | 0x4682F     |      288815 |
|     720 | 0xFFFCDFD1  |  4294762449 |
|     721 | 0x0899      |        2201 |
|     722 | 0x47DED     |      294381 |
|     723 | 0xFFFCDB11  |  4294761233 |
|     724 | 0x0213      |         531 |
|     725 | 0x0029      |          41 |
|     726 | 0x00FC      |         252 |
|     727 | 0x3B96A     |      244074 |
|     728 | 0xFFFCEFE0  |  4294766560 |
|     729 | 0x3C389     |      246665 |
|     730 | 0xFFFCE305  |  4294763269 |
|     731 | 0x007D      |         125 |
|     732 | 0x3C348     |      246600 |
|     733 | 0xFFFCEFE7  |  4294766567 |
|     734 | 0x0061      |          97 |
|     735 | 0x3AE14     |      241172 |
|     736 | 0xFFFCFDAD  |  4294770093 |
|     737 | 0x3B889     |      243849 |
|     738 | 0xFFFCFC6A  |  4294769770 |
|     739 | 0x0258      |         600 |
|     740 | 0x0A22      |        2594 |
|     741 | 0x3B1CC     |      242124 |
|     742 | 0xFFFCE34D  |  4294763341 |
|     743 | 0x3AD9C     |      241052 |
|     744 | 0xFFFCEC5E  |  4294765662 |
|     745 | 0x0244      |         580 |
|     746 | 0x3B7E9     |      243689 |
|     747 | 0xFFFCFA6B  |  4294769259 |
|     748 | 0xFFFFFFF0  |  4294967280 |
|     749 | 0x0C5B      |        3163 |
|     750 | 0x3BF7E     |      245630 |
|     751 | 0xFFFCF348  |  4294767432 |
|     752 | 0x0E84      |        3716 |
|     753 | 0x40B5B     |      265051 |
|     754 | 0xFFFD0365  |  4294771557 |
|     755 | 0x0296      |         662 |
|     756 | 0x42419     |      271385 |
|     757 | 0xFFFCFA10  |  4294769168 |
|     758 | 0x00E5      |         229 |
|     759 | 0x41467     |      267367 |
|     760 | 0xFFFCE94E  |  4294764878 |
|     761 | 0x01CA      |         458 |
|     762 | 0x4473A     |      280378 |
|     763 | 0xFFFCFC70  |  4294769776 |
|     764 | 0x41613     |      267795 |
|     765 | 0xFFFCDAC5  |  4294761157 |
|     766 | 0x0196      |         406 |
|     767 | 0x43A53     |      277075 |
|     768 | 0xFFFCD423  |  4294759459 |
|     769 | 0x00BE      |         190 |
|     770 | 0x448E7     |      280807 |
|     771 | 0xFFFCCCF1  |  4294757617 |
|     772 | 0x011A      |         282 |
|     773 | 0x38308     |      230152 |
|     774 | 0xFFFCED69  |  4294765929 |
|     775 | 0x0122      |         290 |
|     776 | 0x0091      |         145 |
|     777 | 0x369DD     |      223709 |
|     778 | 0xFFFCF981  |  4294769025 |
|     779 | 0x032E      |         814 |
|     780 | 0x3D33D     |      250685 |
|     781 | 0xFFFD14F9  |  4294776057 |
|     782 | 0xFFFFFF2A  |  4294967082 |
|     783 | 0x36544     |      222532 |
|     784 | 0xFFFD0B69  |  4294773609 |
|     785 | 0x00C6      |         198 |
|     786 | 0x34D93     |      216467 |
|     787 | 0xFFFCE8A3  |  4294764707 |
|     788 | 0x0337      |         823 |
|     789 | 0x050D      |        1293 |
|     790 | 0x217C2     |      137154 |
|     791 | 0xFFFD8DE5  |  4294807013 |
|     792 | 0xFFFFB078  |  4294946936 |
|     793 | 0x0F29      |        3881 |
|     794 | 0x21C91     |      138385 |
|     795 | 0xFFFD946C  |  4294808684 |
|     796 | 0xFFFFB111  |  4294947089 |
|     797 | 0x1FB25     |      129829 |
|     798 | 0xFFFD45BD  |  4294788541 |
|     799 | 0xFFFFF663  |  4294964835 |
|     800 | 0x1EFC8     |      126920 |
|     801 | 0xFFFD3FBB  |  4294787003 |
|     802 | 0xFFFFF492  |  4294964370 |
|     803 | 0x002F      |          47 |
|     804 | 0x2B2B1     |      176817 |
|     805 | 0xFFFD33D1  |  4294783953 |
|     806 | 0x001F      |          31 |
|     807 | 0x088C      |        2188 |
|     808 | 0x21E09     |      138761 |
|     809 | 0xFFFD3C3F  |  4294786111 |
|     810 | 0xFFFFFD6C  |  4294966636 |
|     811 | 0x0F2B      |        3883 |
|     812 | 0x210A5     |      135333 |
|     813 | 0xFFFD35BF  |  4294784447 |
|     814 | 0xFFFFFB5B  |  4294966107 |
|     815 | 0x0F5F      |        3935 |
|     816 | 0x2224E     |      139854 |
|     817 | 0xFFFD4389  |  4294787977 |
|     818 | 0xFFFFFBF5  |  4294966261 |
|     819 | 0xFFFFE36E  |  4294959982 |
|     820 | 0x20BEB     |      134123 |
|     821 | 0xFFFD4671  |  4294788721 |
|     822 | 0xFFFFF950  |  4294965584 |
|     823 | 0x20237     |      131639 |
|     824 | 0xFFFD3A81  |  4294785665 |
|     825 | 0xFFFFF5B4  |  4294964660 |
|     826 | 0xFFFFE20D  |  4294959629 |
|     827 | 0xFFFFE0D5  |  4294959317 |
|     828 | 0x284EE     |      165102 |
|     829 | 0xFFFD323C  |  4294783548 |
|     830 | 0x02F4      |         756 |
|     831 | 0x088B      |        2187 |
|     832 | 0x2B307     |      176903 |
|     833 | 0xFFFD216C  |  4294779244 |
|     834 | 0x0884      |        2180 |
|     835 | 0x298CB     |      170187 |
|     836 | 0xFFFD5635  |  4294792757 |
|     837 | 0x01D7      |         471 |
|     838 | 0x08E7      |        2279 |
|     839 | 0x2D59A     |      185754 |
|     840 | 0xFFFD507B  |  4294791291 |
|     841 | 0x011C      |         284 |
|     842 | 0x08A3      |        2211 |
|     843 | 0x2B26E     |      176750 |
|     844 | 0xFFFD189A  |  4294776986 |
|     845 | 0x012A      |         298 |
|     846 | 0x0935      |        2357 |
|     847 | 0x2F02E     |      192558 |
|     848 | 0xFFFD3908  |  4294785288 |
|     849 | 0x0288      |         648 |
|     850 | 0x2A16D     |      172397 |
|     851 | 0xFFFD3DFB  |  4294786555 |
|     852 | 0x0154      |         340 |
|     853 | 0x08B2      |        2226 |
|     854 | 0x2C002     |      180226 |
|     855 | 0xFFFD27A3  |  4294780835 |
|     856 | 0x088A      |        2186 |
|     857 | 0x25E05     |      155141 |
|     858 | 0xFFFD3FD8  |  4294787032 |
|     859 | 0x0380      |         896 |
|     860 | 0x088E      |        2190 |
|     861 | 0x20108     |      131336 |
|     862 | 0xFFFCBDF1  |  4294753777 |
|     863 | 0xFFFFAD9B  |  4294946203 |
|     864 | 0x00C0      |         192 |
|     865 | 0x2A030     |      172080 |
|     866 | 0xFFFD36A3  |  4294784675 |
|     867 | 0x0183      |         387 |
|     868 | 0x2D725     |      186149 |
|     869 | 0xFFFD304B  |  4294783051 |
|     870 | 0x0115      |         277 |
|     871 | 0x0835      |        2101 |
|     872 | 0x1281B     |       75803 |
|     873 | 0xFFFABF82  |  4294623106 |
|     874 | 0x0271      |         625 |
|     875 | 0x1E7D      |        7805 |
|     876 | 0x1E7E      |        7806 |
|     877 | 0x1E7F      |        7807 |
|     878 | 0x1E80      |        7808 |
|     879 | 0x18C59     |      101465 |
|     880 | 0xFFFD4B4B  |  4294789963 |
|     881 | 0x18D0F     |      101647 |
|     882 | 0xFFFD3286  |  4294783622 |
|     883 | 0x18718     |      100120 |
|     884 | 0xFFFD31F2  |  4294783474 |
|     885 | 0x202B3     |      131763 |
|     886 | 0xFFFD3EED  |  4294786797 |
|     887 | 0xFFFFF6FD  |  4294964989 |
|     888 | 0x1F07A     |      127098 |
|     889 | 0xFFFD3E72  |  4294786674 |
|     890 | 0xFFFFF49C  |  4294964380 |
|     891 | 0x0F26      |        3878 |
|     892 | 0x22941     |      141633 |
|     893 | 0xFFFD39E6  |  4294785510 |
|     894 | 0xFFFFFED3  |  4294966995 |
|     895 | 0x21C39     |      138297 |
|     896 | 0xFFFD3B34  |  4294785844 |
|     897 | 0xFFFFFD32  |  4294966578 |
|     898 | 0x20D29     |      134441 |
|     899 | 0xFFFD3D5D  |  4294786397 |
|     900 | 0x2616F     |      156015 |
|     901 | 0xFFFDDCF4  |  4294827252 |
|     902 | 0x0371      |         881 |
|     903 | 0x216DF     |      136927 |
|     904 | 0xFFFD3586  |  4294784390 |
|     905 | 0xFFFFFC87  |  4294966407 |
|     906 | 0x20DD8     |      134616 |
|     907 | 0xFFFD33E6  |  4294783974 |
|     908 | 0xFFFFF941  |  4294965569 |
|     909 | 0x2150F     |      136463 |
|     910 | 0xFFFD45AB  |  4294788523 |
|     911 | 0xFFFFFA8F  |  4294965903 |
|     912 | 0x20903     |      133379 |
|     913 | 0xFFFD4D8E  |  4294790542 |
|     914 | 0xFFFFF7BF  |  4294965183 |
|     915 | 0x0B4C      |        2892 |
|     916 | 0x1E81      |        7809 |
|     917 | 0x1E82      |        7810 |
|     918 | 0x19C92     |      105618 |
|     919 | 0xFFFE4D6D  |  4294856045 |
|     920 | 0xFFFFAEB7  |  4294946487 |
|     921 | 0x26DCE     |      159182 |
|     922 | 0xFFFD38A6  |  4294785190 |
|     923 | 0x037E      |         894 |
|     924 | 0x0859      |        2137 |
|     925 | 0x28117     |      164119 |
|     926 | 0xFFFD1BD6  |  4294777814 |
|     927 | 0x0134      |         308 |
|     928 | 0x27BE3     |      162787 |
|     929 | 0xFFFD4A81  |  4294789761 |
|     930 | 0x036C      |         876 |
|     931 | 0x07C0      |        1984 |
|     932 | 0x0A25      |        2597 |
|     933 | 0x1E83      |        7811 |
|     934 | 0x1E84      |        7812 |
|     935 | 0x22257     |      139863 |
|     936 | 0xFFFD1120  |  4294775072 |
|     937 | 0xFFFFB48C  |  4294947980 |
|     938 | 0x1E85      |        7813 |
|     939 | 0x1E86      |        7814 |
|     940 | 0x1E87      |        7815 |
|     941 | 0x1E88      |        7816 |
|     942 | 0x22B48     |      142152 |
|     943 | 0xFFFD0140  |  4294771008 |
|     944 | 0xFFFFB34F  |  4294947663 |
|     945 | 0x227A0     |      141216 |
|     946 | 0xFFFCC8BB  |  4294756539 |
|     947 | 0xFFFFB0CA  |  4294947018 |
|     948 | 0x22096     |      139414 |
|     949 | 0xFFFCD688  |  4294760072 |
|     950 | 0xFFFFB17A  |  4294947194 |
|     951 | 0x20FE6     |      135142 |
|     952 | 0xFFFCF047  |  4294766663 |
|     953 | 0xFFFFAFEC  |  4294946796 |
|     954 | 0x205E5     |      132581 |
|     955 | 0xFFFCFF86  |  4294770566 |
|     956 | 0x1E89      |        7817 |
|     957 | 0x0010      |          16 |
|     958 | 0x227AB     |      141227 |
|     959 | 0xFFFCFF44  |  4294770500 |
|     960 | 0xFFFFB249  |  4294947401 |
|     961 | 0x0DF4      |        3572 |
|     962 | 0x1E8A      |        7818 |
|     963 | 0x258D5     |      153813 |
|     964 | 0xFFFDD23F  |  4294824511 |
|     965 | 0xFFFFB2B0  |  4294947504 |
|     966 | 0x26E87     |      159367 |
|     967 | 0xFFFDD789  |  4294825865 |
|     968 | 0xFFFFB28E  |  4294947470 |
|     969 | 0x0947      |        2375 |
|     970 | 0x0AA8      |        2728 |
|     971 | 0x20C19     |      134169 |
|     972 | 0xFFFCEB41  |  4294765377 |
|     973 | 0x23A64     |      146020 |
|     974 | 0xFFFDD2FA  |  4294824698 |
|     975 | 0xFFFFB052  |  4294946898 |
|     976 | 0x0E73      |        3699 |
|     977 | 0x22D90     |      142736 |
|     978 | 0xFFFCDDB7  |  4294761911 |
|     979 | 0xFFFFB2AC  |  4294947500 |
|     980 | 0x0CFD      |        3325 |
|     981 | 0x091C      |        2332 |
|     982 | 0x23FC6     |      147398 |
|     983 | 0xFFFCD684  |  4294760068 |
|     984 | 0xFFFFB5F9  |  4294948345 |
|     985 | 0x230A6     |      143526 |
|     986 | 0xFFFCE9AE  |  4294764974 |
|     987 | 0xFFFFB389  |  4294947721 |
|     988 | 0x2164A     |      136778 |
|     989 | 0xFFFD0B02  |  4294773506 |
|     990 | 0xFFFFB1F5  |  4294947317 |
|     991 | 0x20A4C     |      133708 |
|     992 | 0xFFFD1C0C  |  4294777868 |
|     993 | 0xFFFFB536  |  4294948150 |
|     994 | 0x1E8B      |        7819 |
|     995 | 0x1E61F     |      124447 |
|     996 | 0xFFFCDE70  |  4294762096 |
|     997 | 0xFFFFB1D0  |  4294947280 |
|     998 | 0x1DDAB     |      122283 |
|     999 | 0xFFFCC985  |  4294756741 |
|    1000 | 0xFFFFB326  |  4294947622 |
|    1001 | 0x00D0      |         208 |
|    1002 | 0x201C0     |      131520 |
|    1003 | 0xFFFCEA7D  |  4294765181 |
|    1004 | 0xFFFFB023  |  4294946851 |
|    1005 | 0x20E17     |      134679 |
|    1006 | 0xFFFCD92F  |  4294760751 |
|    1007 | 0xFFFFB166  |  4294947174 |
|    1008 | 0x1E8C      |        7820 |
|    1009 | 0x1E8D      |        7821 |
|    1010 | 0x28CAB     |      167083 |
|    1011 | 0xFFFD2A6D  |  4294781549 |
|    1012 | 0x01D3      |         467 |
|    1013 | 0x0645      |        1605 |
|    1014 | 0x2AAEC     |      174828 |
|    1015 | 0xFFFD57C8  |  4294793160 |
|    1016 | 0x01EC      |         492 |
|    1017 | 0x2B636     |      177718 |
|    1018 | 0xFFFD5828  |  4294793256 |
|    1019 | 0x0188      |         392 |
|    1020 | 0x06F9      |        1785 |
|    1021 | 0x28109     |      164105 |
|    1022 | 0xFFFD1EA9  |  4294778537 |
|    1023 | 0x0156      |         342 |
|    1024 | 0x0660      |        1632 |
|    1025 | 0x004D      |          77 |
|    1026 | 0xFFFFFFFE  |  4294967294 |
|    1027 | 0x01C0      |         448 |
|    1028 | 0x0184      |         388 |
|    1029 | 0x001C      |          28 |
|    1030 | 0xFFFFFFFB  |  4294967291 |
|    1031 | 0x015A      |         346 |
|    1032 | 0xFFFFFFFA  |  4294967290 |
|    1033 | 0x1E8E      |        7822 |
|    1034 | 0x2B75B     |      178011 |
|    1035 | 0xFFFD53BA  |  4294792122 |
|    1036 | 0x0152      |         338 |
|    1037 | 0x0591      |        1425 |
|    1038 | 0x27D9B     |      163227 |
|    1039 | 0xFFFD15F3  |  4294776307 |
|    1040 | 0x29D69     |      171369 |
|    1041 | 0xFFFD1E6A  |  4294778474 |
|    1042 | 0x00BF      |         191 |
|    1043 | 0x282B6     |      164534 |
|    1044 | 0xFFFD356D  |  4294784365 |
|    1045 | 0x033A      |         826 |
|    1046 | 0x29EBE     |      171710 |
|    1047 | 0xFFFD2F1C  |  4294782748 |
|    1048 | 0x28CA2     |      167074 |
|    1049 | 0xFFFD360F  |  4294784527 |
|    1050 | 0x02C3      |         707 |
|    1051 | 0x26DAF     |      159151 |
|    1052 | 0xFFFD385D  |  4294785117 |
|    1053 | 0x037A      |         890 |
|    1054 | 0x00BD      |         189 |
|    1055 | 0x28D7D     |      167293 |
|    1056 | 0xFFFD46DC  |  4294788828 |
|    1057 | 0x28C75     |      167029 |
|    1058 | 0xFFFD22E6  |  4294779622 |
|    1059 | 0x0113      |         275 |
|    1060 | 0x009B      |         155 |
|    1061 | 0x2799A     |      162202 |
|    1062 | 0xFFFD3593  |  4294784403 |
|    1063 | 0x0357      |         855 |
|    1064 | 0x2A19E     |      172446 |
|    1065 | 0xFFFD28D6  |  4294781142 |
|    1066 | 0x28EAB     |      167595 |
|    1067 | 0xFFFD55E6  |  4294792678 |
|    1068 | 0x027B      |         635 |
|    1069 | 0x2DD03     |      187651 |
|    1070 | 0xFFFD560F  |  4294792719 |
|    1071 | 0x00FD      |         253 |
|    1072 | 0x06C9      |        1737 |
|    1073 | 0x1E8F      |        7823 |
|    1074 | 0x1E90      |        7824 |
|    1075 | 0x23BB8     |      146360 |
|    1076 | 0xFFFD13CF  |  4294775759 |
|    1077 | 0xFFFFC578  |  4294952312 |
|    1078 | 0x0CD5      |        3285 |
|    1079 | 0x00F5      |         245 |
|    1080 | 0x2DC26     |      187430 |
|    1081 | 0xFFFD11E6  |  4294775270 |
|    1082 | 0x0827      |        2087 |
|    1083 | 0x30566     |      197990 |
|    1084 | 0xFFFD309F  |  4294783135 |
|    1085 | 0x030D      |         781 |
|    1086 | 0x2EA0F     |      190991 |
|    1087 | 0xFFFD188D  |  4294776973 |
|    1088 | 0x07F3      |        2035 |
|    1089 | 0x2D413     |      185363 |
|    1090 | 0xFFFD147D  |  4294775933 |
|    1091 | 0x0163      |         355 |
|    1092 | 0x05CF      |        1487 |
|    1093 | 0x1E91      |        7825 |
|    1094 | 0x27170     |      160112 |
|    1095 | 0xFFFD41BB  |  4294787515 |
|    1096 | 0x03DC      |         988 |
|    1097 | 0x082D      |        2093 |
|    1098 | 0x27CFE     |      163070 |
|    1099 | 0xFFFD1C75  |  4294777973 |
|    1100 | 0x0844      |        2116 |
|    1101 | 0x2AE08     |      175624 |
|    1102 | 0xFFFD0705  |  4294772485 |
|    1103 | 0x027C      |         636 |
|    1104 | 0x06D2      |        1746 |
|    1105 | 0x2AAD9     |      174809 |
|    1106 | 0xFFFD3AE5  |  4294785765 |
|    1107 | 0x00B5      |         181 |
|    1108 | 0x01F4      |         500 |
|    1109 | 0x29B32     |      170802 |
|    1110 | 0xFFFD619C  |  4294795676 |
|    1111 | 0x0259      |         601 |
|    1112 | 0x06DF      |        1759 |
|    1113 | 0x29A4E     |      170574 |
|    1114 | 0xFFFD4A57  |  4294789719 |
|    1115 | 0x021A      |         538 |
|    1116 | 0x0706      |        1798 |
|    1117 | 0x2C60F     |      181775 |
|    1118 | 0xFFFD1BC4  |  4294777796 |
|    1119 | 0x014F      |         335 |
|    1120 | 0x070F      |        1807 |
|    1121 | 0x2C981     |      182657 |
|    1122 | 0xFFFD5B51  |  4294794065 |
|    1123 | 0x0193      |         403 |
|    1124 | 0x2B496     |      177302 |
|    1125 | 0xFFFD4DA4  |  4294790564 |
|    1126 | 0x014C      |         332 |
|    1127 | 0x26AE9     |      158441 |
|    1128 | 0xFFFD3B63  |  4294785891 |
|    1129 | 0x03A1      |         929 |
|    1130 | 0x0E0B      |        3595 |
|    1131 | 0x26A46     |      158278 |
|    1132 | 0x03A9      |         937 |
|    1133 | 0x0FD2      |        4050 |
|    1134 | 0x01EF      |         495 |
|    1135 | 0x029B      |         667 |
|    1136 | 0x0B49      |        2889 |
|    1137 | 0x0026      |          38 |
|    1138 | 0x002A      |          42 |
|    1139 | 0x25818     |      153624 |
|    1140 | 0xFFFD2F38  |  4294782776 |
|    1141 | 0x01F8      |         504 |
|    1142 | 0x27202     |      160258 |
|    1143 | 0xFFFD1DDD  |  4294778333 |
|    1144 | 0x015D      |         349 |
|    1145 | 0x29DD9     |      171481 |
|    1146 | 0xFFFD23B6  |  4294779830 |
|    1147 | 0x004B      |          75 |
|    1148 | 0x2D4A5     |      185509 |
|    1149 | 0xFFFD12D6  |  4294775510 |
|    1150 | 0x2B9B5     |      178613 |
|    1151 | 0xFFFD5918  |  4294793496 |
|    1152 | 0x01A1      |         417 |
|    1153 | 0x0780      |        1920 |
|    1154 | 0x0588      |        1416 |
|    1155 | 0x1E92      |        7826 |
|    1156 | 0x1E93      |        7827 |
|    1157 | 0x2B118     |      176408 |
|    1158 | 0xFFFD455F  |  4294788447 |
|    1159 | 0x00FF      |         255 |
|    1160 | 0x076D      |        1901 |
|    1161 | 0x2E287     |      189063 |
|    1162 | 0xFFFD0B3D  |  4294773565 |
|    1163 | 0x0073      |         115 |
|    1164 | 0x2D57D     |      185725 |
|    1165 | 0xFFFD331C  |  4294783772 |
|    1166 | 0xFFFFEEA4  |  4294962852 |
|    1167 | 0x1E94      |        7828 |
|    1168 | 0x00F2      |         242 |
|    1169 | 0x276FF     |      161535 |
|    1170 | 0xFFFD4594  |  4294788500 |
|    1171 | 0x05A2      |        1442 |
|    1172 | 0x2C540     |      181568 |
|    1173 | 0xFFFD0B5E  |  4294773598 |
|    1174 | 0x0325      |         805 |
|    1175 | 0x297A6     |      169894 |
|    1176 | 0xFFFD3677  |  4294784631 |
|    1177 | 0x023A      |         570 |
|    1178 | 0x0816      |        2070 |
|    1179 | 0x0597      |        1431 |
|    1180 | 0x22D6C     |      142700 |
|    1181 | 0xFFFCF55F  |  4294767967 |
|    1182 | 0xFFFFB32D  |  4294947629 |
|    1183 | 0x0E96      |        3734 |
|    1184 | 0x00DA      |         218 |
|    1185 | 0x1E95      |        7829 |
|    1186 | 0x30527     |      197927 |
|    1187 | 0xFFFD3253  |  4294783571 |
|    1188 | 0x032D      |         813 |
|    1189 | 0x2FF73     |      196467 |
|    1190 | 0xFFFD1AA8  |  4294777512 |
|    1191 | 0x30A00     |      199168 |
|    1192 | 0xFFFD2404  |  4294779908 |
|    1193 | 0x01C6      |         454 |
|    1194 | 0x2F4B9     |      193721 |
|    1195 | 0xFFFD2664  |  4294780516 |
|    1196 | 0x011F      |         287 |
|    1197 | 0x31EC0     |      204480 |
|    1198 | 0xFFFD2A99  |  4294781593 |
|    1199 | 0x023E      |         574 |
|    1200 | 0x2ECB6     |      191670 |
|    1201 | 0xFFFD369C  |  4294784668 |
|    1202 | 0x33979     |      211321 |
|    1203 | 0xFFFD1204  |  4294775300 |
|    1204 | 0x0169      |         361 |
|    1205 | 0x2BF6E     |      180078 |
|    1206 | 0xFFFC8886  |  4294740102 |
|    1207 | 0x03AE      |         942 |
|    1208 | 0x2BD4B     |      179531 |
|    1209 | 0xFFFC544B  |  4294726731 |
|    1210 | 0x0107      |         263 |
|    1211 | 0x1BC83     |      113795 |
|    1212 | 0xFFFB6EF2  |  4294668018 |
|    1213 | 0x2BCB5     |      179381 |
|    1214 | 0xFFFC42F5  |  4294722293 |
|    1215 | 0x009C      |         156 |
|    1216 | 0x2B998     |      178584 |
|    1217 | 0xFFFC9A07  |  4294744583 |
|    1218 | 0x2AED3     |      175827 |
|    1219 | 0xFFFC450E  |  4294722830 |
|    1220 | 0xFFFFFF96  |  4294967190 |
|    1221 | 0x2C134     |      180532 |
|    1222 | 0xFFFCA236  |  4294746678 |
|    1223 | 0xFFFFFF68  |  4294967144 |
|    1224 | 0x0A21      |        2593 |
|    1225 | 0x1E96      |        7830 |
|    1226 | 0x1E97      |        7831 |
|    1227 | 0x30B60     |      199520 |
|    1228 | 0xFFFCD16F  |  4294758767 |
|    1229 | 0xFFFFFEA0  |  4294966944 |
|    1230 | 0x0A80      |        2688 |
|    1231 | 0x2BDE5     |      179685 |
|    1232 | 0xFFFC4FE9  |  4294725609 |
|    1233 | 0x0112      |         274 |
|    1234 | 0x0C71      |        3185 |
|    1235 | 0x1E98      |        7832 |
|    1236 | 0x1E9A7     |      125351 |
|    1237 | 0xFFFD0EAE  |  4294774446 |
|    1238 | 0xFFFFB3E8  |  4294947816 |
|    1239 | 0x02FF      |         767 |
|    1240 | 0x1F045     |      127045 |
|    1241 | 0xFFFCFBF0  |  4294769648 |
|    1242 | 0x1E3EB     |      123883 |
|    1243 | 0xFFFD06B2  |  4294772402 |
|    1244 | 0xFFFFB256  |  4294947414 |
|    1245 | 0x206BE     |      132798 |
|    1246 | 0xFFFCFB41  |  4294769473 |
|    1247 | 0x21A08     |      137736 |
|    1248 | 0xFFFD0837  |  4294772791 |
|    1249 | 0xFFFFB1DA  |  4294947290 |
|    1250 | 0x089A      |        2202 |
|    1251 | 0x21594     |      136596 |
|    1252 | 0xFFFCF40C  |  4294767628 |
|    1253 | 0xFFFFB031  |  4294946865 |
|    1254 | 0x20506     |      132358 |
|    1255 | 0xFFFCE548  |  4294763848 |
|    1256 | 0x1FE67     |      130663 |
|    1257 | 0xFFFCDE18  |  4294762008 |
|    1258 | 0xFFFFAFA1  |  4294946721 |
|    1259 | 0x1FC22     |      130082 |
|    1260 | 0xFFFCD2BB  |  4294759099 |
|    1261 | 0xFFFFAEE8  |  4294946536 |
|    1262 | 0x0A06      |        2566 |
|    1263 | 0x1DCA2     |      122018 |
|    1264 | 0xFFFCC59C  |  4294755740 |
|    1265 | 0xFFFFB358  |  4294947672 |
|    1266 | 0x016A      |         362 |
|    1267 | 0x1D12A     |      119082 |
|    1268 | 0xFFFCC259  |  4294754905 |
|    1269 | 0xFFFFB382  |  4294947714 |
|    1270 | 0x1E99      |        7833 |
|    1271 | 0x1E9A      |        7834 |
|    1272 | 0x1E9B      |        7835 |
|    1273 | 0x1E9C      |        7836 |
|    1274 | 0x1E9D      |        7837 |
|    1275 | 0x1E9E      |        7838 |
|    1276 | 0x1E9F      |        7839 |
|    1277 | 0x1D685     |      120453 |
|    1278 | 0xFFFCFE08  |  4294770184 |
|    1279 | 0x0012      |          18 |
|    1280 | 0x0016      |          22 |
|    1281 | 0x1EA0      |        7840 |
|    1282 | 0x1EA1      |        7841 |
|    1283 | 0x1EA2      |        7842 |
|    1284 | 0x1EA3      |        7843 |
|    1285 | 0x1EA4      |        7844 |
|    1286 | 0x214AF     |      136367 |
|    1287 | 0xFFFCDC3B  |  4294761531 |
|    1288 | 0xFFFFB0C4  |  4294947012 |
|    1289 | 0x1EA5      |        7845 |
|    1290 | 0x1EA6      |        7846 |
|    1291 | 0x005B      |          91 |
|    1292 | 0x000E      |          14 |
|    1293 | 0x1EA7      |        7847 |
|    1294 | 0x1EA8      |        7848 |
|    1295 | 0x1EA9      |        7849 |
|    1296 | 0x23BAB     |      146347 |
|    1297 | 0xFFFC9AFA  |  4294744826 |
|    1298 | 0xFFFFADAA  |  4294946218 |
|    1299 | 0x09FA      |        2554 |
|    1300 | 0x1EAA      |        7850 |
|    1301 | 0x1EAB      |        7851 |
|    1302 | 0x1EAC      |        7852 |
|    1303 | 0x1EAD      |        7853 |
|    1304 | 0x1EAE      |        7854 |
|    1305 | 0x1EAF      |        7855 |
|    1306 | 0x098D      |        2445 |
|    1307 | 0x0811      |        2065 |
|    1308 | 0x20EC4     |      134852 |
|    1309 | 0xFFFCA1E9  |  4294746601 |
|    1310 | 0xFFFFAE93  |  4294946451 |
|    1311 | 0x03B6      |         950 |
|    1312 | 0x090E      |        2318 |
|    1313 | 0x0AA9      |        2729 |
|    1314 | 0x21DA1     |      138657 |
|    1315 | 0xFFFCD4C8  |  4294759624 |
|    1316 | 0xFFFFB1B2  |  4294947250 |
|    1317 | 0x036B      |         875 |
|    1318 | 0x1EB0      |        7856 |
|    1319 | 0x0A9F      |        2719 |
|    1320 | 0x1DCC5     |      122053 |
|    1321 | 0xFFFCF14D  |  4294766925 |
|    1322 | 0x1EB1      |        7857 |
|    1323 | 0x1EB2      |        7858 |
|    1324 | 0x1EB3      |        7859 |
|    1325 | 0x1EB4      |        7860 |
|    1326 | 0x1EB5      |        7861 |
|    1327 | 0x00C9      |         201 |
|    1328 | 0xFFFBF607  |  4294702599 |
|    1329 | 0xFFFB01DF  |  4294640095 |
|    1330 | 0xFFFF65F0  |  4294927856 |
|    1331 | 0x0AF3      |        2803 |
|    1332 | 0xFFFBEEA5  |  4294700709 |
|    1333 | 0xFFFB1CD8  |  4294647000 |
|    1334 | 0xFFFF65D9  |  4294927833 |
|    1335 | 0x09DB      |        2523 |
|    1336 | 0xFFFC08D3  |  4294707411 |
|    1337 | 0xFFFB0864  |  4294641764 |
|    1338 | 0xFFFF674C  |  4294928204 |
|    1339 | 0x07F9      |        2041 |
|    1340 | 0xFFFBFB38  |  4294703928 |
|    1341 | 0xFFFB156A  |  4294645098 |
|    1342 | 0xFFFF6700  |  4294928128 |
|    1343 | 0x0481      |        1153 |
|    1344 | 0xFFFBE692  |  4294698642 |
|    1345 | 0xFFFB0E72  |  4294643314 |
|    1346 | 0xFFFF652C  |  4294927660 |
|    1347 | 0x0227      |         551 |
|    1348 | 0xFFFBE38C  |  4294697868 |
|    1349 | 0xFFFAFB3E  |  4294638398 |
|    1350 | 0xFFFF661A  |  4294927898 |
|    1351 | 0x0F13      |        3859 |
|    1352 | 0xFFFBB4B8  |  4294685880 |
|    1353 | 0xFFFB632D  |  4294665005 |
|    1354 | 0xFFFF6735  |  4294928181 |
|    1355 | 0x02AB      |         683 |
|    1356 | 0xFFFBB3A7  |  4294685607 |
|    1357 | 0xFFFB6DBC  |  4294667708 |
|    1358 | 0xFFFF6793  |  4294928275 |
|    1359 | 0xFFFBF10B  |  4294701323 |
|    1360 | 0xFFFB42DE  |  4294656734 |
|    1361 | 0xFFFF6260  |  4294926944 |
|    1362 | 0x043A      |        1082 |
|    1363 | 0xFFFBA906  |  4294682886 |
|    1364 | 0xFFFB6B96  |  4294667158 |
|    1365 | 0xFFFF6774  |  4294928244 |
|    1366 | 0x0914      |        2324 |
|    1367 | 0x091B      |        2331 |
|    1368 | 0x091D      |        2333 |
|    1369 | 0x020C      |         524 |
|    1370 | 0x1EB6      |        7862 |
|    1371 | 0x0546      |        1350 |
|    1372 | 0x0544      |        1348 |
|    1373 | 0x1EB7      |        7863 |
|    1374 | 0xFFFBE060  |  4294697056 |
|    1375 | 0xFFFB28D4  |  4294650068 |
|    1376 | 0xFFFF64DE  |  4294927582 |
|    1377 | 0x0EF2      |        3826 |
|    1378 | 0x1EB8      |        7864 |
|    1379 | 0x1EB9      |        7865 |
|    1380 | 0x0954      |        2388 |
|    1381 | 0x1EBA      |        7866 |
|    1382 | 0x1EBB      |        7867 |
|    1383 | 0x1EBC      |        7868 |
|    1384 | 0x1EBD      |        7869 |
|    1385 | 0x00F4      |         244 |
|    1386 | 0x1EBE      |        7870 |
|    1387 | 0x1EBF      |        7871 |
|    1388 | 0x1EC0      |        7872 |
|    1389 | 0x1EC1      |        7873 |
|    1390 | 0x0542      |        1346 |
|    1391 | 0x1EC2      |        7874 |
|    1392 | 0x1EC3      |        7875 |
|    1393 | 0xFFFBD8DD  |  4294695133 |
|    1394 | 0xFFFB3179  |  4294652281 |
|    1395 | 0xFFFF647F  |  4294927487 |
|    1396 | 0x1EC4      |        7876 |
|    1397 | 0x1EC5      |        7877 |
|    1398 | 0x1EC6      |        7878 |
|    1399 | 0x1EC7      |        7879 |
|    1400 | 0xFFFBEE67  |  4294700647 |
|    1401 | 0xFFFB1A54  |  4294646356 |
|    1402 | 0xFFFF65D3  |  4294927827 |
|    1403 | 0x0C3B      |        3131 |
|    1404 | 0x1EC8      |        7880 |
|    1405 | 0x0955      |        2389 |
|    1406 | 0x1EC9      |        7881 |
|    1407 | 0x1ECA      |        7882 |
|    1408 | 0x1ECB      |        7883 |
|    1409 | 0x1ECC      |        7884 |
|    1410 | 0x1ECD      |        7885 |
|    1411 | 0x1ECE      |        7886 |
|    1412 | 0x1ECF      |        7887 |
|    1413 | 0x0A7B      |        2683 |
|    1414 | 0xFFFBEABE  |  4294699710 |
|    1415 | 0xFFFB2388  |  4294648712 |
|    1416 | 0xFFFF6575  |  4294927733 |
|    1417 | 0x0C1E      |        3102 |
|    1418 | 0x1ED0      |        7888 |
|    1419 | 0x1ED1      |        7889 |
|    1420 | 0x1ED2      |        7890 |
|    1421 | 0xFFFBE1C4  |  4294697412 |
|    1422 | 0xFFFB22F8  |  4294648568 |
|    1423 | 0xFFFF64F0  |  4294927600 |
|    1424 | 0x0175      |         373 |
|    1425 | 0xFFFBEB68  |  4294699880 |
|    1426 | 0xFFFB24BE  |  4294649022 |
|    1427 | 0xFFFF6585  |  4294927749 |
|    1428 | 0x02B9      |         697 |
|    1429 | 0xFFFBDBD3  |  4294695891 |
|    1430 | 0xFFFB2D6C  |  4294651244 |
|    1431 | 0xFFFF64A4  |  4294927524 |
|    1432 | 0x01C2      |         450 |
|    1433 | 0x1ED3      |        7891 |
|    1434 | 0x0912      |        2322 |
|    1435 | 0x0087      |         135 |
|    1436 | 0x1ED4      |        7892 |
|    1437 | 0x1ED5      |        7893 |
|    1438 | 0x00A1      |         161 |
|    1439 | 0x1ED6      |        7894 |
|    1440 | 0x1ED7      |        7895 |
|    1441 | 0x1ED8      |        7896 |
|    1442 | 0x1ED9      |        7897 |
|    1443 | 0x1EDA      |        7898 |
|    1444 | 0x1EDB      |        7899 |
|    1445 | 0x1EDC      |        7900 |
|    1446 | 0x1EDD      |        7901 |
|    1447 | 0x1EDE      |        7902 |
|    1448 | 0x0913      |        2323 |
|    1449 | 0x1EDF      |        7903 |
|    1450 | 0xFFFBAEB5  |  4294684341 |
|    1451 | 0xFFFB692F  |  4294666543 |
|    1452 | 0xFFFF6782  |  4294928258 |
|    1453 | 0x0248      |         584 |
|    1454 | 0xFFFBC920  |  4294691104 |
|    1455 | 0xFFFB4BD6  |  4294659030 |
|    1456 | 0xFFFF6541  |  4294927681 |
|    1457 | 0x00EF      |         239 |
|    1458 | 0xFFFBAD63  |  4294684003 |
|    1459 | 0xFFFB5767  |  4294661991 |
|    1460 | 0xFFFF665A  |  4294927962 |
|    1461 | 0x0EF7      |        3831 |
|    1462 | 0xFFFBC731  |  4294690609 |
|    1463 | 0xFFFB5FBD  |  4294664125 |
|    1464 | 0xFFFF6709  |  4294928137 |
|    1465 | 0x0A90      |        2704 |
|    1466 | 0xFFFBA421  |  4294681633 |
|    1467 | 0xFFFB46CE  |  4294657742 |
|    1468 | 0xFFFF63FF  |  4294927359 |
|    1469 | 0xFFFB9001  |  4294676481 |
|    1470 | 0xFFFB5DC1  |  4294663617 |
|    1471 | 0xFFFF5FC6  |  4294926278 |
|    1472 | 0x0915      |        2325 |
|    1473 | 0x1EE0      |        7904 |
|    1474 | 0x0916      |        2326 |
|    1475 | 0x1EE1      |        7905 |
|    1476 | 0xFFFBC341  |  4294689601 |
|    1477 | 0xFFFB5905  |  4294662405 |
|    1478 | 0xFFFF6684  |  4294928004 |
|    1479 | 0x0272      |         626 |
|    1480 | 0xFFFBC595  |  4294690197 |
|    1481 | 0xFFFB5EA4  |  4294663844 |
|    1482 | 0xFFFF66FC  |  4294928124 |
|    1483 | 0xFFFBBD8C  |  4294688140 |
|    1484 | 0xFFFB5A00  |  4294662656 |
|    1485 | 0xFFFF669E  |  4294928030 |
|    1486 | 0xFFFBB7D6  |  4294686678 |
|    1487 | 0xFFFB5B67  |  4294663015 |
|    1488 | 0xFFFF66C1  |  4294928065 |
|    1489 | 0x01C1      |         449 |
|    1490 | 0x1EE2      |        7906 |
|    1491 | 0x1EE3      |        7907 |
|    1492 | 0x1EE4      |        7908 |
|    1493 | 0x1EE5      |        7909 |
|    1494 | 0x1EE6      |        7910 |
|    1495 | 0x0035      |          53 |
|    1496 | 0x1EE7      |        7911 |
|    1497 | 0x035E      |         862 |
|    1498 | 0x1EE8      |        7912 |
|    1499 | 0x09C5      |        2501 |
|    1500 | 0xFFFBE987  |  4294699399 |
|    1501 | 0xFFFB2DBC  |  4294651324 |
|    1502 | 0xFFFF6553  |  4294927699 |
|    1503 | 0x085A      |        2138 |
|    1504 | 0xFFFBE08B  |  4294697099 |
|    1505 | 0xFFFB33EE  |  4294652910 |
|    1506 | 0xFFFF64E1  |  4294927585 |
|    1507 | 0x04FC      |        1276 |
|    1508 | 0xFFFBD7D4  |  4294694868 |
|    1509 | 0xFFFB2DA7  |  4294651303 |
|    1510 | 0xFFFF6471  |  4294927473 |
|    1511 | 0x09FB      |        2555 |
|    1512 | 0xFFFBDCA9  |  4294696105 |
|    1513 | 0xFFFB270F  |  4294649615 |
|    1514 | 0xFFFF64AF  |  4294927535 |
|    1515 | 0xFFFBD4D1  |  4294694097 |
|    1516 | 0xFFFB3595  |  4294653333 |
|    1517 | 0xFFFF6488  |  4294927496 |
|    1518 | 0xFFFBCFBB  |  4294692795 |
|    1519 | 0xFFFB3109  |  4294652169 |
|    1520 | 0xFFFF6435  |  4294927413 |
|    1521 | 0x097E      |        2430 |
|    1522 | 0x0347      |         839 |
|    1523 | 0x1EE9      |        7913 |
|    1524 | 0x1EEA      |        7914 |
|    1525 | 0x0047      |          71 |
|    1526 | 0x1EEB      |        7915 |
|    1527 | 0x1EEC      |        7916 |
|    1528 | 0x1EED      |        7917 |

## String References

- **7708**: @@
- **7784**: <Player> kindles a fire with $0 and grills the $3, $3, and $3 to mouth-watering perfection.
- **7785**: An aromatic plume of smoke unfurls into the air...
- **7793**: Best you hasten back and rejoin the Carmine Swallows.

## Events

### Event 65535

#### Metadata

| Field        | Value   |
|--------------|---------|
| Entrypoint   | 0x0000  |
| Data Size    | 1 bytes |
| Instructions | 1       |

```
      00 01 02 03 04 05 06 07  08 09 0A 0B 0C 0D 0E 0F
      -- -- -- -- -- -- -- --  -- -- -- -- -- -- -- --
0000: 00                                                .               
```

#### Opcodes

```
  0: 0x0000 [0x00] END_REQSTACK()
```

### Event 1

#### Metadata

| Field        | Value      |
|--------------|------------|
| Entrypoint   | 0x0001     |
| Data Size    | 4480 bytes |
| Instructions | 523        |

```
      00 01 02 03 04 05 06 07  08 09 0A 0B 0C 0D 0E 0F
      -- -- -- -- -- -- -- --  -- -- -- -- -- -- -- --
0000:    42 1A B3 A6 46 01 38  00 80 4E 00 F0 FF FF 7F   B...F.8..N.....
0010: 4E 00 34 83 08 01 4E 00  35 83 08 01 4E 00 36 83  N.4...N.5...N.6.
0020: 08 01 4E 00 37 83 08 01  4E 00 38 83 08 01 4E 00  ..N.7...N.8...N.
0030: 39 83 08 01 4E 00 3A 83  08 01 4E 00 3B 83 08 01  9...N.:...N.;...
0040: 4E 00 3C 83 08 01 4E 00  32 83 08 01 2F 00 34 83  N.<...N.2.../.4.
0050: 08 01 2F 00 35 83 08 01  2F 00 36 83 08 01 2F 00  ../.5.../.6.../.
0060: 37 83 08 01 2F 00 38 83  08 01 2F 00 39 83 08 01  7.../.8.../.9...
0070: 2F 00 3A 83 08 01 2F 00  3B 83 08 01 2F 00 3C 83  /.:.../.;.../.<.
0080: 08 01 2F 00 32 83 08 01  92 01 34 83 08 01 92 01  ../.2.....4.....
0090: 35 83 08 01 92 01 36 83  08 01 92 01 37 83 08 01  5.....6.....7...
00A0: 92 01 38 83 08 01 92 01  39 83 08 01 92 01 3A 83  ..8.....9.....:.
00B0: 08 01 92 01 3B 83 08 01  92 01 3C 83 08 01 92 01  ....;.....<.....
00C0: 32 83 08 01 94 01 F0 FF  FF 7F 94 01 34 83 08 01  2...........4...
00D0: 94 01 35 83 08 01 94 01  36 83 08 01 94 01 37 83  ..5.....6.....7.
00E0: 08 01 94 01 38 83 08 01  94 01 39 83 08 01 94 01  ....8.....9.....
00F0: 3A 83 08 01 94 01 3B 83  08 01 94 01 3C 83 08 01  :.....;.....<...
0100: 94 01 32 83 08 01 BA F0  FF FF 7F 01 80 02 80 03  ..2.............
0110: 80 04 80 BA 35 83 08 01  05 80 06 80 07 80 08 80  ....5...........
0120: BA 34 83 08 01 09 80 0A  80 0B 80 08 80 BA 36 83  .4............6.
0130: 08 01 0C 80 0D 80 0E 80  08 80 BA 37 83 08 01 0F  ...........7....
0140: 80 10 80 11 80 12 80 BA  38 83 08 01 13 80 14 80  ........8.......
0150: 15 80 16 80 BA 39 83 08  01 17 80 18 80 19 80 1A  .....9..........
0160: 80 BA 3A 83 08 01 1B 80  1C 80 1D 80 12 80 BA 3B  ..:............;
0170: 83 08 01 1E 80 1F 80 1D  80 16 80 BA 3C 83 08 01  ............<...
0180: 20 80 21 80 1D 80 12 80  BA 32 83 08 01 22 80 22   .!......2..."."
0190: 80 22 80 22 80 80 F0 FF  FF 7F 80 34 83 08 01 80  .".".......4....
01A0: 35 83 08 01 80 36 83 08  01 80 37 83 08 01 80 38  5....6....7....8
01B0: 83 08 01 80 39 83 08 01  80 3A 83 08 01 80 3B 83  ....9....:....;.
01C0: 08 01 80 3C 83 08 01 29  10 F0 FF FF 7F 02 1C 23  ...<...).......#
01D0: 80 03 01 00 02 10 5C 00  24 80 5C 01 24 80 9A 1C  ......\.$.\.$...
01E0: 25 80 27 10 F0 FF FF 7F  3D 45 26 80 F0 FF FF 7F  %.'.....=E&.....
01F0: F0 FF FF 7F 73 30 30 30  22 80 1A 92 A6 1C 27 80  ....s000".....'.
0200: 27 10 35 83 08 01 03 1C  28 80 27 10 34 83 08 01  '.5.....(.'.4...
0210: 02 1C 28 80 27 10 36 83  08 01 02 1C 28 80 52 26  ..(.'.6.....(.R&
0220: 80 F0 FF FF 7F F0 FF FF  7F 73 30 30 30 45 26 80  .........s000E&.
0230: F0 FF FF 7F F0 FF FF 7F  73 30 30 31 22 80 27 10  ........s001".'.
0240: 37 83 08 01 02 1C 28 80  27 10 38 83 08 01 02 1C  7.....(.'.8.....
0250: 23 80 27 10 39 83 08 01  02 1C 28 80 27 10 3A 83  #.'.9.....(.'.:.
0260: 08 01 02 1C 25 80 27 10  3B 83 08 01 09 1C 28 80  ....%.'.;.....(.
0270: 27 10 3C 83 08 01 09 1C  29 80 2B 35 83 08 01 2A  '.<.....).+5...*
0280: 80 5D 22 80 2B 80 1C 2C  80 52 26 80 F0 FF FF 7F  .]".+..,.R&.....
0290: F0 FF FF 7F 73 30 30 31  45 26 80 F0 FF FF 7F F0  ....s001E&......
02A0: FF FF 7F 73 30 30 32 22  80 2A 10 F0 FF FF 7F 4B  ...s002".*.....K
02B0: F0 FF FF 7F 12 80 1C 2D  80 52 26 80 F0 FF FF 7F  .......-.R&.....
02C0: F0 FF FF 7F 73 30 30 32  45 26 80 F0 FF FF 7F F0  ....s002E&......
02D0: FF FF 7F 6F 76 34 30 22  80 45 26 80 F0 FF FF 7F  ...ov40".E&.....
02E0: F0 FF FF 7F 73 30 30 33  22 80 5C 80 2B 80 2E 80  ....s003".\.+...
02F0: 5C 81 2B 80 2E 80 7B 35  83 08 01 1C 2E 80 9A 2A  \.+...{5.......*
0300: 10 35 83 08 01 66 2F 80  35 83 08 01 35 83 08 01  .5...f/.5...5...
0310: 74 77 62 30 2B 35 83 08  01 30 80 2A 10 34 83 08  twb0+5...0.*.4..
0320: 01 23 5B 31 80 34 83 08  01 34 83 08 01 74 6C 6B  .#[1.4...4...tlk
0330: 30 52 26 80 F0 FF FF 7F  F0 FF FF 7F 73 30 30 33  0R&.........s003
0340: 45 26 80 F0 FF FF 7F F0  FF FF 7F 6F 76 34 30 22  E&.........ov40"
0350: 80 45 26 80 F0 FF FF 7F  F0 FF FF 7F 73 30 30 34  .E&.........s004
0360: 22 80 4A F0 FF FF 7F 34  83 08 01 1C 32 80 BA 36  ".J....4....2..6
0370: 83 08 01 33 80 34 80 35  80 36 80 2B 34 83 08 01  ...3.4.5.6.+4...
0380: 37 80 23 5B 31 80 34 83  08 01 34 83 08 01 74 6C  7.#[1.4...4...tl
0390: 6B 31 1C 38 80 52 26 80  F0 FF FF 7F F0 FF FF 7F  k1.8.R&.........
03A0: 73 30 30 34 45 26 80 F0  FF FF 7F F0 FF FF 7F 73  s004E&.........s
03B0: 30 30 35 22 80 1C 39 80  27 10 34 83 08 01 03 66  005"..9.'.4....f
03C0: 2F 80 35 83 08 01 35 83  08 01 74 77 62 31 1C 2D  /.5...5...twb1.-
03D0: 80 27 10 35 83 08 01 04  1C 25 80 27 10 36 83 08  .'.5.....%.'.6..
03E0: 01 03 27 10 37 83 08 01  03 27 10 38 83 08 01 03  ..'.7....'.8....
03F0: 2A 10 34 83 08 01 52 26  80 F0 FF FF 7F F0 FF FF  *.4...R&........
0400: 7F 73 30 30 35 45 26 80  F0 FF FF 7F F0 FF FF 7F  .s005E&.........
0410: 6F 76 34 30 22 80 45 26  80 F0 FF FF 7F F0 FF FF  ov40".E&........
0420: 7F 73 30 30 36 22 80 1C  2D 80 BA 39 83 08 01 3A  .s006"..-..9...:
0430: 80 3B 80 3C 80 3D 80 BA  3A 83 08 01 3E 80 3F 80  .;.<.=..:...>.?.
0440: 40 80 3D 80 BA 3B 83 08  01 41 80 42 80 43 80 3D  @.=..;...A.B.C.=
0450: 80 BA 3C 83 08 01 44 80  45 80 46 80 3D 80 4A 39  ..<...D.E.F.=.J9
0460: 83 08 01 35 83 08 01 4A  3A 83 08 01 35 83 08 01  ...5...J:...5...
0470: 4A 3B 83 08 01 35 83 08  01 4A 3C 83 08 01 35 83  J;...5...J<...5.
0480: 08 01 2B 35 83 08 01 47  80 4A F0 FF FF 7F 35 83  ..+5...G.J....5.
0490: 08 01 2A 10 35 83 08 01  6E 35 83 08 01 48 80 99  ..*.5...n5...H..
04A0: 35 83 08 01 2A 10 36 83  08 01 23 02 01 00 49 80  5...*.6...#...I.
04B0: 80 D6 04 52 26 80 F0 FF  FF 7F F0 FF FF 7F 73 30  ...R&.........s0
04C0: 30 36 45 26 80 F0 FF FF  7F F0 FF FF 7F 73 67 30  06E&.........sg0
04D0: 37 22 80 01 A2 05 02 01  00 4A 80 80 01 05 52 26  7".......J....R&
04E0: 80 F0 FF FF 7F F0 FF FF  7F 73 30 30 36 45 26 80  .........s006E&.
04F0: F0 FF FF 7F F0 FF FF 7F  73 67 30 37 22 80 01 A2  ........sg07"...
0500: 05 02 01 00 23 80 80 2C  05 52 26 80 F0 FF FF 7F  ....#..,.R&.....
0510: F0 FF FF 7F 73 30 30 36  45 26 80 F0 FF FF 7F F0  ....s006E&......
0520: FF FF 7F 73 74 30 37 22  80 01 A2 05 02 01 00 48  ...st07".......H
0530: 80 80 57 05 52 26 80 F0  FF FF 7F F0 FF FF 7F 73  ..W.R&.........s
0540: 30 30 36 45 26 80 F0 FF  FF 7F F0 FF FF 7F 73 74  006E&.........st
0550: 30 37 22 80 01 A2 05 02  01 00 4B 80 80 82 05 52  07".......K....R
0560: 26 80 F0 FF FF 7F F0 FF  FF 7F 73 30 30 36 45 26  &.........s006E&
0570: 80 F0 FF FF 7F F0 FF FF  7F 73 67 30 37 22 80 01  .........sg07"..
0580: A2 05 52 26 80 F0 FF FF  7F F0 FF FF 7F 73 30 30  ..R&.........s00
0590: 36 45 26 80 F0 FF FF 7F  F0 FF FF 7F 73 30 30 37  6E&.........s007
05A0: 22 80 5B 4C 80 36 83 08  01 36 83 08 01 67 74 6B  ".[L.6...6...gtk
05B0: 30 1C 4D 80 4A 35 83 08  01 F0 FF FF 7F 7B 35 83  0.M.J5.......{5.
05C0: 08 01 4A F0 FF FF 7F 36  83 08 01 5B 31 80 34 83  ..J....6...[1.4.
05D0: 08 01 34 83 08 01 74 6C  6B 31 2B 36 83 08 01 4E  ..4...tlk1+6...N
05E0: 80 1C 4F 80 52 26 80 F0  FF FF 7F F0 FF FF 7F 73  ..O.R&.........s
05F0: 30 30 37 52 26 80 F0 FF  FF 7F F0 FF FF 7F 73 67  007R&.........sg
0600: 30 37 52 26 80 F0 FF FF  7F F0 FF FF 7F 73 74 30  07R&.........st0
0610: 37 45 26 80 F0 FF FF 7F  F0 FF FF 7F 6F 76 34 30  7E&.........ov40
0620: 22 80 45 26 80 F0 FF FF  7F F0 FF FF 7F 73 30 30  ".E&.........s00
0630: 38 22 80 1C 2E 80 BA 35  83 08 01 50 80 51 80 52  8".....5...P.Q.R
0640: 80 53 80 1C 54 80 23 5B  4C 80 36 83 08 01 36 83  .S..T.#[L.6...6.
0650: 08 01 67 74 6B 31 02 01  00 23 80 80 81 06 52 26  ..gtk1...#....R&
0660: 80 F0 FF FF 7F F0 FF FF  7F 73 30 30 38 45 26 80  .........s008E&.
0670: F0 FF FF 7F F0 FF FF 7F  73 74 30 39 22 80 01 CC  ........st09"...
0680: 06 02 01 00 48 80 80 AC  06 52 26 80 F0 FF FF 7F  ....H....R&.....
0690: F0 FF FF 7F 73 30 30 38  45 26 80 F0 FF FF 7F F0  ....s008E&......
06A0: FF FF 7F 73 74 30 39 22  80 01 CC 06 52 26 80 F0  ...st09"....R&..
06B0: FF FF 7F F0 FF FF 7F 73  30 30 38 45 26 80 F0 FF  .......s008E&...
06C0: FF 7F F0 FF FF 7F 73 30  30 39 22 80 4A 3A 83 08  ......s009".J:..
06D0: 01 39 83 08 01 6E F0 FF  FF 7F 55 80 99 F0 FF FF  .9...n....U.....
06E0: 7F 59 01 37 83 08 01 4D  80 59 01 38 83 08 01 4D  .Y.7...M.Y.8...M
06F0: 80 59 01 39 83 08 01 4D  80 59 01 3A 83 08 01 4D  .Y.9...M.Y.:...M
0700: 80 59 01 3B 83 08 01 4D  80 59 01 3C 83 08 01 4D  .Y.;...M.Y.<...M
0710: 80 1C 56 80 52 26 80 F0  FF FF 7F F0 FF FF 7F 73  ..V.R&.........s
0720: 30 30 39 52 26 80 F0 FF  FF 7F F0 FF FF 7F 73 74  009R&.........st
0730: 30 39 45 26 80 F0 FF FF  7F F0 FF FF 7F 73 30 31  09E&.........s01
0740: 30 22 80 5D 57 80 58 80  59 01 35 83 08 01 29 80  0".]W.X.Y.5...).
0750: 4A 35 83 08 01 36 83 08  01 1C 2C 80 4A F0 FF FF  J5...6....,.J...
0760: 7F 35 83 08 01 4A 34 83  08 01 35 83 08 01 2B 35  .5...J4...5...+5
0770: 83 08 01 59 80 1C 4F 80  59 01 36 83 08 01 29 80  ...Y..O.Y.6...).
0780: 4A 36 83 08 01 35 83 08  01 1C 54 80 4A F0 FF FF  J6...5....T.J...
0790: 7F 35 83 08 01 66 2F 80  35 83 08 01 35 83 08 01  .5...f/.5...5...
07A0: 74 77 61 30 52 26 80 F0  FF FF 7F F0 FF FF 7F 73  twa0R&.........s
07B0: 30 31 30 45 26 80 F0 FF  FF 7F F0 FF FF 7F 6F 76  010E&.........ov
07C0: 34 30 22 80 45 26 80 F0  FF FF 7F F0 FF FF 7F 73  40".E&.........s
07D0: 30 31 31 22 80 1C 2E 80  23 66 2F 80 35 83 08 01  011"....#f/.5...
07E0: 35 83 08 01 74 77 61 31  5B 4C 80 36 83 08 01 36  5...twa1[L.6...6
07F0: 83 08 01 67 74 6B 30 7B  35 83 08 01 2B 36 83 08  ...gtk0{5...+6..
0800: 01 5A 80 23 5B 4C 80 36  83 08 01 36 83 08 01 67  .Z.#[L.6...6...g
0810: 74 6B 31 03 02 10 5B 80  27 10 F0 FF FF 7F 4C 52  tk1...[.'.....LR
0820: 26 80 F0 FF FF 7F F0 FF  FF 7F 73 30 31 31 45 26  &.........s011E&
0830: 80 F0 FF FF 7F F0 FF FF  7F 73 30 31 32 22 80 BA  .........s012"..
0840: 34 83 08 01 5C 80 5D 80  5E 80 5F 80 6E 35 83 08  4...\.].^._.n5..
0850: 01 60 80 99 35 83 08 01  2B 35 83 08 01 61 80 23  .`..5...+5...a.#
0860: 2A 10 F0 FF FF 7F 52 26  80 F0 FF FF 7F F0 FF FF  *.....R&........
0870: 7F 73 30 31 32 45 26 80  F0 FF FF 7F F0 FF FF 7F  .s012E&.........
0880: 6F 76 34 30 22 80 45 26  80 F0 FF FF 7F F0 FF FF  ov40".E&........
0890: 7F 73 30 31 37 22 80 1C  4D 80 66 62 80 3A 83 08  .s017"..M.fb.:..
08A0: 01 3A 83 08 01 74 6C 6B  30 66 2F 80 35 83 08 01  .:...tlk0f/.5...
08B0: 35 83 08 01 74 77 62 30  2B 35 83 08 01 63 80 23  5...twb0+5...c.#
08C0: 66 2F 80 35 83 08 01 35  83 08 01 74 77 62 31 5B  f/.5...5...twb1[
08D0: 4C 80 36 83 08 01 36 83  08 01 67 6B 65 69 52 26  L.6...6...gkeiR&
08E0: 80 F0 FF FF 7F F0 FF FF  7F 73 30 31 37 45 26 80  .........s017E&.
08F0: F0 FF FF 7F F0 FF FF 7F  73 30 31 38 22 80 7B 35  ........s018".{5
0900: 83 08 01 2B 36 83 08 01  64 80 1C 23 80 03 03 10  ...+6...d..#....
0910: 28 80 27 10 35 83 08 01  06 1C 2C 80 BA 38 83 08  (.'.5.....,..8..
0920: 01 65 80 66 80 2B 80 67  80 1C 68 80 53 35 83 08  .e.f.+.g..h.S5..
0930: 01 35 83 08 01 74 68 6B  32 23 52 26 80 F0 FF FF  .5...thk2#R&....
0940: 7F F0 FF FF 7F 73 30 31  38 45 26 80 F0 FF FF 7F  .....s018E&.....
0950: F0 FF FF 7F 73 30 31 39  22 80 66 62 80 3A 83 08  ....s019".fb.:..
0960: 01 3A 83 08 01 74 6C 6B  31 4B 35 83 08 01 12 80  .:...tlk1K5.....
0970: 1C 4F 80 4A 38 83 08 01  35 83 08 01 BA 34 83 08  .O.J8...5....4..
0980: 01 69 80 6A 80 6B 80 6C  80 BA 36 83 08 01 6D 80  .i.j.k.l..6...m.
0990: 6E 80 6F 80 70 80 6E 35  83 08 01 22 80 99 35 83  n.o.p.n5..."..5.
09A0: 08 01 4A 37 83 08 01 35  83 08 01 2B 35 83 08 01  ..J7...5...+5...
09B0: 71 80 23 27 10 37 83 08  01 05 1C 2C 80 27 10 38  q.#'.7.....,.'.8
09C0: 83 08 01 05 1C 2B 80 4B  35 83 08 01 72 80 52 26  .....+.K5...r.R&
09D0: 80 F0 FF FF 7F F0 FF FF  7F 73 30 31 39 45 26 80  .........s019E&.
09E0: F0 FF FF 7F F0 FF FF 7F  73 32 31 39 22 80 1C 54  ........s219"..T
09F0: 80 4A F0 FF FF 7F 35 83  08 01 1C 25 80 4A 3C 83  .J....5....%.J<.
0A00: 08 01 F0 FF FF 7F 6F 76  35 83 08 01 79 00 35 83  ......ov5...y.5.
0A10: 08 01 F0 FF FF 7F 66 2F  80 35 83 08 01 35 83 08  ......f/.5...5..
0A20: 01 74 77 61 30 1C 73 80  2B 35 83 08 01 74 80 1C  .twa0.s.+5...t..
0A30: 2E 80 52 26 80 F0 FF FF  7F F0 FF FF 7F 73 32 31  ..R&.........s21
0A40: 39 45 26 80 F0 FF FF 7F  F0 FF FF 7F 6F 76 36 30  9E&.........ov60
0A50: 22 80 45 26 80 F0 FF FF  7F F0 FF FF 7F 73 31 31  ".E&.........s11
0A60: 39 22 80 1C 75 80 23 02  01 00 32 80 80 A3 0A 52  9"..u.#...2....R
0A70: 26 80 F0 FF FF 7F F0 FF  FF 7F 73 31 31 39 45 26  &.........s119E&
0A80: 80 F0 FF FF 7F F0 FF FF  7F 6F 76 36 30 22 80 45  .........ov60".E
0A90: 26 80 F0 FF FF 7F F0 FF  FF 7F 73 30 32 30 22 80  &.........s020".
0AA0: 01 47 0C 02 01 00 76 80  80 DF 0A 52 26 80 F0 FF  .G....v....R&...
0AB0: FF 7F F0 FF FF 7F 73 31  31 39 45 26 80 F0 FF FF  ......s119E&....
0AC0: 7F F0 FF FF 7F 6F 76 36  30 22 80 45 26 80 F0 FF  .....ov60".E&...
0AD0: FF 7F F0 FF FF 7F 73 6D  32 30 22 80 01 47 0C 02  ......sm20"..G..
0AE0: 01 00 49 80 80 1B 0B 52  26 80 F0 FF FF 7F F0 FF  ..I....R&.......
0AF0: FF 7F 73 31 31 39 45 26  80 F0 FF FF 7F F0 FF FF  ..s119E&........
0B00: 7F 6F 76 36 30 22 80 45  26 80 F0 FF FF 7F F0 FF  .ov60".E&.......
0B10: FF 7F 73 67 32 30 22 80  01 47 0C 02 01 00 4A 80  ..sg20"..G....J.
0B20: 80 57 0B 52 26 80 F0 FF  FF 7F F0 FF FF 7F 73 31  .W.R&.........s1
0B30: 31 39 45 26 80 F0 FF FF  7F F0 FF FF 7F 6F 76 36  19E&.........ov6
0B40: 30 22 80 45 26 80 F0 FF  FF 7F F0 FF FF 7F 73 30  0".E&.........s0
0B50: 32 30 22 80 01 47 0C 02  01 00 23 80 80 93 0B 52  20"..G....#....R
0B60: 26 80 F0 FF FF 7F F0 FF  FF 7F 73 31 31 39 45 26  &.........s119E&
0B70: 80 F0 FF FF 7F F0 FF FF  7F 6F 76 36 30 22 80 45  .........ov60".E
0B80: 26 80 F0 FF FF 7F F0 FF  FF 7F 73 74 32 30 22 80  &.........st20".
0B90: 01 47 0C 02 01 00 48 80  80 CF 0B 52 26 80 F0 FF  .G....H....R&...
0BA0: FF 7F F0 FF FF 7F 73 31  31 39 45 26 80 F0 FF FF  ......s119E&....
0BB0: 7F F0 FF FF 7F 6F 76 36  30 22 80 45 26 80 F0 FF  .....ov60".E&...
0BC0: FF 7F F0 FF FF 7F 73 74  32 30 22 80 01 47 0C 02  ......st20"..G..
0BD0: 01 00 60 80 80 0B 0C 52  26 80 F0 FF FF 7F F0 FF  ..`....R&.......
0BE0: FF 7F 73 31 31 39 45 26  80 F0 FF FF 7F F0 FF FF  ..s119E&........
0BF0: 7F 6F 76 36 30 22 80 45  26 80 F0 FF FF 7F F0 FF  .ov60".E&.......
0C00: FF 7F 73 6D 32 30 22 80  01 47 0C 02 01 00 4B 80  ..sm20"..G....K.
0C10: 80 47 0C 52 26 80 F0 FF  FF 7F F0 FF FF 7F 73 31  .G.R&.........s1
0C20: 31 39 45 26 80 F0 FF FF  7F F0 FF FF 7F 6F 76 36  19E&.........ov6
0C30: 30 22 80 45 26 80 F0 FF  FF 7F F0 FF FF 7F 73 67  0".E&.........sg
0C40: 32 30 22 80 01 47 0C 1C  4F 80 66 2F 80 35 83 08  20"..G..O.f/.5..
0C50: 01 35 83 08 01 74 77 61  31 6F 76 F0 FF FF 7F 6E  .5...twa1ov....n
0C60: F0 FF FF 7F 60 80 99 F0  FF FF 7F 1C 2B 80 1A B3  ....`.......+...
0C70: A6 5D 22 80 77 80 1C 4F  80 52 26 80 F0 FF FF 7F  .]".w..O.R&.....
0C80: F0 FF FF 7F 73 30 32 30  52 26 80 F0 FF FF 7F F0  ....s020R&......
0C90: FF FF 7F 73 74 32 30 52  26 80 F0 FF FF 7F F0 FF  ...st20R&.......
0CA0: FF 7F 73 6D 32 30 52 26  80 F0 FF FF 7F F0 FF FF  ..sm20R&........
0CB0: 7F 73 67 32 30 03 01 10  78 80 43 00 43 01 03 00  .sg20...x.C.C...
0CC0: 00 09 10 1C 2E 80 5C 00  24 80 5C 01 24 80 6B 69  ......\.$.\.$.ki
0CD0: 64 6C 30 34 83 08 01 7B  34 83 08 01 7B 36 83 08  dl04...{4...{6..
0CE0: 01 7B 35 83 08 01 BA 35  83 08 01 79 80 7A 80 7B  .{5....5...y.z.{
0CF0: 80 7C 80 BA 36 83 08 01  7D 80 7E 80 7F 80 80 80  .|..6...}.~.....
0D00: BA 34 83 08 01 81 80 82  80 83 80 84 80 BA F0 FF  .4..............
0D10: FF 7F 85 80 86 80 87 80  88 80 BA 37 83 08 01 89  ...........7....
0D20: 80 8A 80 8B 80 8C 80 BA  38 83 08 01 8D 80 8E 80  ........8.......
0D30: 8F 80 36 80 BA 39 83 08  01 90 80 91 80 92 80 36  ..6..9.........6
0D40: 80 BA 3B 83 08 01 93 80  94 80 95 80 36 80 4A 3A  ..;.........6.J:
0D50: 83 08 01 35 83 08 01 7B  37 83 08 01 7B 38 83 08  ...5...{7...{8..
0D60: 01 7B 39 83 08 01 7B 3A  83 08 01 7B 3B 83 08 01  .{9...{:...{;...
0D70: 7B 3C 83 08 01 1C 32 80  4A F0 FF FF 7F 35 83 08  {<....2.J....5..
0D80: 01 66 2F 80 35 83 08 01  35 83 08 01 74 77 62 30  .f/.5...5...twb0
0D90: 9A 1C 4F 80 45 26 80 F0  FF FF 7F F0 FF FF 7F 73  ..O.E&.........s
0DA0: 30 32 31 22 80 1A 92 A6  1C 2C 80 2B 35 83 08 01  021".....,.+5...
0DB0: 96 80 1C 2C 80 1C 2C 80  52 26 80 F0 FF FF 7F F0  ...,..,.R&......
0DC0: FF FF 7F 73 30 32 31 45  26 80 F0 FF FF 7F F0 FF  ...s021E&.......
0DD0: FF 7F 6F 76 34 30 22 80  45 26 80 F0 FF FF 7F F0  ..ov40".E&......
0DE0: FF FF 7F 73 30 32 32 22  80 23 66 2F 80 35 83 08  ...s022".#f/.5..
0DF0: 01 35 83 08 01 74 77 62  31 27 10 38 83 08 01 05  .5...twb1'.8....
0E00: 1C 23 80 27 10 37 83 08  01 05 1C 28 80 27 10 3C  .#.'.7.....(.'.<
0E10: 83 08 01 0C 1C 28 80 27  10 39 83 08 01 05 1C 54  .....(.'.9.....T
0E20: 80 27 10 3B 83 08 01 0C  1C 23 80 27 10 3A 83 08  .'.;.....#.'.:..
0E30: 01 05 1C 2B 80 59 01 35  83 08 01 4D 80 4B 35 83  ...+.Y.5...M.K5.
0E40: 08 01 97 80 1C 4D 80 02  01 00 76 80 80 72 0E 52  .....M....v..r.R
0E50: 26 80 F0 FF FF 7F F0 FF  FF 7F 73 30 32 32 45 26  &.........s022E&
0E60: 80 F0 FF FF 7F F0 FF FF  7F 73 74 32 33 22 80 01  .........st23"..
0E70: 13 0F 02 01 00 23 80 80  9D 0E 52 26 80 F0 FF FF  .....#....R&....
0E80: 7F F0 FF FF 7F 73 30 32  32 45 26 80 F0 FF FF 7F  .....s022E&.....
0E90: F0 FF FF 7F 73 74 32 33  22 80 01 13 0F 02 01 00  ....st23".......
0EA0: 48 80 80 C8 0E 52 26 80  F0 FF FF 7F F0 FF FF 7F  H....R&.........
0EB0: 73 30 32 32 45 26 80 F0  FF FF 7F F0 FF FF 7F 73  s022E&.........s
0EC0: 74 32 33 22 80 01 13 0F  02 01 00 60 80 80 F3 0E  t23".......`....
0ED0: 52 26 80 F0 FF FF 7F F0  FF FF 7F 73 30 32 32 45  R&.........s022E
0EE0: 26 80 F0 FF FF 7F F0 FF  FF 7F 73 74 32 33 22 80  &.........st23".
0EF0: 01 13 0F 52 26 80 F0 FF  FF 7F F0 FF FF 7F 73 30  ...R&.........s0
0F00: 32 32 45 26 80 F0 FF FF  7F F0 FF FF 7F 73 30 32  22E&.........s02
0F10: 33 22 80 1C 4F 80 5B 4C  80 36 83 08 01 36 83 08  3"..O.[L.6...6..
0F20: 01 67 6B 65 69 1C 28 80  5B 98 80 34 83 08 01 34  .gkei.(.[..4...4
0F30: 83 08 01 6B 65 69 30 02  00 00 32 80 80 4E 0F 6E  ...kei0...2..N.n
0F40: F0 FF FF 7F 76 80 99 F0  FF FF 7F 01 5A 0F 6E F0  ....v.......Z.n.
0F50: FF FF 7F 60 80 99 F0 FF  FF 7F 7B 35 83 08 01 5D  ...`......{5...]
0F60: 22 80 68 80 1C 6B 80 52  26 80 F0 FF FF 7F F0 FF  ".h..k.R&.......
0F70: FF 7F 73 30 32 33 52 26  80 F0 FF FF 7F F0 FF FF  ..s023R&........
0F80: 7F 73 74 32 33 45 26 80  F0 FF FF 7F F0 FF FF 7F  .st23E&.........
0F90: 6F 76 34 30 22 80 45 26  80 F0 FF FF 7F F0 FF FF  ov40".E&........
0FA0: 7F 73 30 32 34 22 80 1C  68 80 52 26 80 F0 FF FF  .s024"..h.R&....
0FB0: 7F F0 FF FF 7F 73 30 32  34 45 26 80 F0 FF FF 7F  .....s024E&.....
0FC0: F0 FF FF 7F 6F 76 34 30  22 80 45 26 80 F0 FF FF  ....ov40".E&....
0FD0: 7F F0 FF FF 7F 73 30 32  35 22 80 1C 4F 80 6E 35  .....s025"..O.n5
0FE0: 83 08 01 60 80 99 35 83  08 01 1C 2D 80 5C 00 68  ...`..5....-.\.h
0FF0: 80 5C 01 68 80 9A 59 01  35 83 08 01 29 80 4B 35  .\.h..Y.5...).K5
1000: 83 08 01 22 80 6F 76 35  83 08 01 27 10 35 83 08  ...".ov5...'.5..
1010: 01 07 1C 54 80 52 26 80  F0 FF FF 7F F0 FF FF 7F  ...T.R&.........
1020: 73 30 32 35 45 26 80 F0  FF FF 7F F0 FF FF 7F 73  s025E&.........s
1030: 30 32 36 22 80 1C 4F 80  2B 35 83 08 01 99 80 23  026"..O.+5.....#
1040: 2A 10 35 83 08 01 4A 38  83 08 01 35 83 08 01 4A  *.5...J8...5...J
1050: 39 83 08 01 35 83 08 01  4A 3B 83 08 01 35 83 08  9...5...J;...5..
1060: 01 4A 3C 83 08 01 35 83  08 01 4A 34 83 08 01 35  .J<...5...J4...5
1070: 83 08 01 4A 36 83 08 01  35 83 08 01 4A F0 FF FF  ...J6...5...J...
1080: 7F 35 83 08 01 52 26 80  F0 FF FF 7F F0 FF FF 7F  .5...R&.........
1090: 73 30 32 36 45 26 80 F0  FF FF 7F F0 FF FF 7F 6F  s026E&.........o
10A0: 76 34 30 22 80 45 26 80  F0 FF FF 7F F0 FF FF 7F  v40".E&.........
10B0: 73 30 32 37 22 80 2B 35  83 08 01 9A 80 1C 68 80  s027".+5......h.
10C0: 52 26 80 F0 FF FF 7F F0  FF FF 7F 73 30 32 37 45  R&.........s027E
10D0: 26 80 F0 FF FF 7F F0 FF  FF 7F 6F 76 34 30 22 80  &.........ov40".
10E0: 45 26 80 F0 FF FF 7F F0  FF FF 7F 73 30 32 38 22  E&.........s028"
10F0: 80 1C 4F 80 27 10 37 83  08 01 04 1C 25 80 27 10  ..O.'.7.....%.'.
1100: 36 83 08 01 04 27 10 38  83 08 01 04 1C 23 80 27  6....'.8.....#.'
1110: 10 39 83 08 01 04 1C 28  80 27 10 3A 83 08 01 04  .9.....(.'.:....
1120: 1C 25 80 27 10 3B 83 08  01 0B 27 10 3C 83 08 01  .%.'.;....'.<...
1130: 0B 1C 2E 80 52 26 80 F0  FF FF 7F F0 FF FF 7F 73  ....R&.........s
1140: 30 32 38 45 26 80 F0 FF  FF 7F F0 FF FF 7F 73 30  028E&.........s0
1150: 32 39 22 80 1C 58 80 1A  B3 A6 1C 4F 80 52 26 80  29"..X.....O.R&.
1160: F0 FF FF 7F F0 FF FF 7F  73 30 32 39 46 00 45 9B  ........s029F.E.
1170: 80 F0 FF FF 7F F0 FF FF  7F 66 64 69 32 22 80 21  .........fdi2".!
1180: 00                                                .               
```

#### Opcodes

```
  0: 0x0001 [0x42] SET_CLI_EVENT_CANCEL_DATA()
  1: 0x0002 [0x1A] CALL_SUBROUTINE(address=0xA6B3)
  2: 0x0005 [0x46] CAMERA_CONTROL: Disable user control
  3: 0x0007 [0x38] SET_CLIENT_EVENT_MODE(mode=19*)
  4: 0x000A [0x4E] SET_ENTITY_HIDE_FLAG: Show LocalPlayer
  5: 0x0010 [0x4E] SET_ENTITY_HIDE_FLAG: Show Altennia (ID: 17335092/0x01088334)
  6: 0x0016 [0x4E] SET_ENTITY_HIDE_FLAG: Show Phillieulais (ID: 17335093/0x01088335)
  7: 0x001C [0x4E] SET_ENTITY_HIDE_FLAG: Show Gissenne (ID: 17335094/0x01088336)
  8: 0x0022 [0x4E] SET_ENTITY_HIDE_FLAG: Show 01 (ID: 17335095/0x01088337)
  9: 0x0028 [0x4E] SET_ENTITY_HIDE_FLAG: Show 02 (ID: 17335096/0x01088338)
 10: 0x002E [0x4E] SET_ENTITY_HIDE_FLAG: Show 03 (ID: 17335097/0x01088339)
 11: 0x0034 [0x4E] SET_ENTITY_HIDE_FLAG: Show 04 (ID: 17335098/0x0108833A)
 12: 0x003A [0x4E] SET_ENTITY_HIDE_FLAG: Show 03 (ID: 17335099/0x0108833B)
 13: 0x0040 [0x4E] SET_ENTITY_HIDE_FLAG: Show 04 (ID: 17335100/0x0108833C)
 14: 0x0046 [0x4E] SET_ENTITY_HIDE_FLAG: Show Unnamed NPC (ID: 17335090/0x01088332)
 15: 0x004C [0x2F] Altennia (ID: 17335092/0x01088334)->Render.Flags0 &= ~0x80000 // Bit 19
 16: 0x0052 [0x2F] Phillieulais (ID: 17335093/0x01088335)->Render.Flags0 &= ~0x80000 // Bit 19
 17: 0x0058 [0x2F] Gissenne (ID: 17335094/0x01088336)->Render.Flags0 &= ~0x80000 // Bit 19
 18: 0x005E [0x2F] 01 (ID: 17335095/0x01088337)->Render.Flags0 &= ~0x80000 // Bit 19
 19: 0x0064 [0x2F] 02 (ID: 17335096/0x01088338)->Render.Flags0 &= ~0x80000 // Bit 19
 20: 0x006A [0x2F] 03 (ID: 17335097/0x01088339)->Render.Flags0 &= ~0x80000 // Bit 19
 21: 0x0070 [0x2F] 04 (ID: 17335098/0x0108833A)->Render.Flags0 &= ~0x80000 // Bit 19
 22: 0x0076 [0x2F] 03 (ID: 17335099/0x0108833B)->Render.Flags0 &= ~0x80000 // Bit 19
 23: 0x007C [0x2F] 04 (ID: 17335100/0x0108833C)->Render.Flags0 &= ~0x80000 // Bit 19
 24: 0x0082 [0x2F] Unnamed NPC (ID: 17335090/0x01088332)->Render.Flags0 &= ~0x80000 // Bit 19
 25: 0x0088 [0x92] Altennia (ID: 17335092/0x01088334)->Render.Flags3 ^= 0x01
 26: 0x008E [0x92] Phillieulais (ID: 17335093/0x01088335)->Render.Flags3 ^= 0x01
 27: 0x0094 [0x92] Gissenne (ID: 17335094/0x01088336)->Render.Flags3 ^= 0x01
 28: 0x009A [0x92] 01 (ID: 17335095/0x01088337)->Render.Flags3 ^= 0x01
 29: 0x00A0 [0x92] 02 (ID: 17335096/0x01088338)->Render.Flags3 ^= 0x01
 30: 0x00A6 [0x92] 03 (ID: 17335097/0x01088339)->Render.Flags3 ^= 0x01
 31: 0x00AC [0x92] 04 (ID: 17335098/0x0108833A)->Render.Flags3 ^= 0x01
 32: 0x00B2 [0x92] 03 (ID: 17335099/0x0108833B)->Render.Flags3 ^= 0x01
 33: 0x00B8 [0x92] 04 (ID: 17335100/0x0108833C)->Render.Flags3 ^= 0x01
 34: 0x00BE [0x92] Unnamed NPC (ID: 17335090/0x01088332)->Render.Flags3 ^= 0x01
 35: 0x00C4 [0x94] LocalPlayer->Render.Flags3 ^= 0x01
 36: 0x00CA [0x94] Altennia (ID: 17335092/0x01088334)->Render.Flags3 ^= 0x01
 37: 0x00D0 [0x94] Phillieulais (ID: 17335093/0x01088335)->Render.Flags3 ^= 0x01
 38: 0x00D6 [0x94] Gissenne (ID: 17335094/0x01088336)->Render.Flags3 ^= 0x01
 39: 0x00DC [0x94] 01 (ID: 17335095/0x01088337)->Render.Flags3 ^= 0x01
 40: 0x00E2 [0x94] 02 (ID: 17335096/0x01088338)->Render.Flags3 ^= 0x01
 41: 0x00E8 [0x94] 03 (ID: 17335097/0x01088339)->Render.Flags3 ^= 0x01
 42: 0x00EE [0x94] 04 (ID: 17335098/0x0108833A)->Render.Flags3 ^= 0x01
 43: 0x00F4 [0x94] 03 (ID: 17335099/0x0108833B)->Render.Flags3 ^= 0x01
 44: 0x00FA [0x94] 04 (ID: 17335100/0x0108833C)->Render.Flags3 ^= 0x01
 45: 0x0100 [0x94] Unnamed NPC (ID: 17335090/0x01088332)->Render.Flags3 ^= 0x01
 46: 0x0106 [0xBA] SET_ENTITY_POSITION(entity_id=LocalPlayer, pos_x=59.569*, pos_z=-492.090*, pos_y=0.204*, direction=274.1*)
 47: 0x0113 [0xBA] SET_ENTITY_POSITION(entity_id=Phillieulais (ID: 17335093/0x01088335), pos_x=59.942*, pos_z=-499.152*, pos_y=-0.345*, direction=265.8*)
 48: 0x0120 [0xBA] SET_ENTITY_POSITION(entity_id=Altennia (ID: 17335092/0x01088334), pos_x=58.643*, pos_z=-500.425*, pos_y=-0.629*, direction=265.8*)
 49: 0x012D [0xBA] SET_ENTITY_POSITION(entity_id=Gissenne (ID: 17335094/0x01088336), pos_x=60.923*, pos_z=-500.416*, pos_y=-0.627*, direction=265.8*)
 50: 0x013A [0xBA] SET_ENTITY_POSITION(entity_id=01 (ID: 17335095/0x01088337), pos_x=61.013*, pos_z=-507.678*, pos_y=-1.383*, direction=70.3*)
 51: 0x0147 [0xBA] SET_ENTITY_POSITION(entity_id=02 (ID: 17335096/0x01088338), pos_x=58.999*, pos_z=-508.210*, pos_y=-1.410*, direction=70.2*)
 52: 0x0154 [0xBA] SET_ENTITY_POSITION(entity_id=03 (ID: 17335097/0x01088339), pos_x=60.898*, pos_z=-510.056*, pos_y=-1.503*, direction=69.7*)
 53: 0x0161 [0xBA] SET_ENTITY_POSITION(entity_id=04 (ID: 17335098/0x0108833A), pos_x=58.327*, pos_z=-510.957*, pos_y=-1.500*, direction=70.3*)
 54: 0x016E [0xBA] SET_ENTITY_POSITION(entity_id=03 (ID: 17335099/0x0108833B), pos_x=59.906*, pos_z=-513.273*, pos_y=-1.500*, direction=70.2*)
 55: 0x017B [0xBA] SET_ENTITY_POSITION(entity_id=04 (ID: 17335100/0x0108833C), pos_x=57.625*, pos_z=-513.747*, pos_y=-1.500*, direction=70.3*)
 56: 0x0188 [0xBA] SET_ENTITY_POSITION(entity_id=Unnamed NPC (ID: 17335090/0x01088332), pos_x=0.000*, pos_z=0.000*, pos_y=0.000*, direction=0.0*)
 57: 0x0195 [0x80] LOAD_WAIT(entity=LocalPlayer)
 58: 0x019A [0x80] LOAD_WAIT(entity=Altennia (ID: 17335092/0x01088334))
 59: 0x019F [0x80] LOAD_WAIT(entity=Phillieulais (ID: 17335093/0x01088335))
 60: 0x01A4 [0x80] LOAD_WAIT(entity=Gissenne (ID: 17335094/0x01088336))
 61: 0x01A9 [0x80] LOAD_WAIT(entity=01 (ID: 17335095/0x01088337))
 62: 0x01AE [0x80] LOAD_WAIT(entity=02 (ID: 17335096/0x01088338))
 63: 0x01B3 [0x80] LOAD_WAIT(entity=03 (ID: 17335097/0x01088339))
 64: 0x01B8 [0x80] LOAD_WAIT(entity=04 (ID: 17335098/0x0108833A))
 65: 0x01BD [0x80] LOAD_WAIT(entity=03 (ID: 17335099/0x0108833B))
 66: 0x01C2 [0x80] LOAD_WAIT(entity=04 (ID: 17335100/0x0108833C))
 67: 0x01C7 [0x29] REQ_SET_WAIT(priority=0x10, entity_id=LocalPlayer, tag_num=0x02)
 68: 0x01CE [0x1C] WAIT(5* ticks)
 69: 0x01D1 [0x03] ExtData[1]->WorkLocal[1] = Work_Zone[2]
 70: 0x01D6 [0x5C] MUSIC_CONTROL: Set Idle (Day) music to song 44*
 71: 0x01DA [0x5C] MUSIC_CONTROL: Set Idle (Night) music to song 44*
 72: 0x01DE [0x9A] WAIT_MUSIC_SERVER()
 73: 0x01DF [0x1C] WAIT(15* ticks)
 74: 0x01E2 [0x27] REQ_SET(priority=0x10, entity_id=LocalPlayer, tag_num=0x3D)
 75: 0x01E9 [0x45] LOAD_SCHEDULED_TASK: Load scheduler "s000" with entities [LocalPlayer, LocalPlayer], work=[512*, 0*]
 76: 0x01FA [0x1A] CALL_SUBROUTINE(address=0xA692)
 77: 0x01FD [0x1C] WAIT(150* ticks)
 78: 0x0200 [0x27] REQ_SET(priority=0x10, entity_id=Phillieulais (ID: 17335093/0x01088335), tag_num=0x03)
 79: 0x0207 [0x1C] WAIT(10* ticks)
 80: 0x020A [0x27] REQ_SET(priority=0x10, entity_id=Altennia (ID: 17335092/0x01088334), tag_num=0x02)
 81: 0x0211 [0x1C] WAIT(10* ticks)
 82: 0x0214 [0x27] REQ_SET(priority=0x10, entity_id=Gissenne (ID: 17335094/0x01088336), tag_num=0x02)
 83: 0x021B [0x1C] WAIT(10* ticks)
 84: 0x021E [0x52] END_LOAD_SCHEDULER: End scheduler "s000" with entities [LocalPlayer, LocalPlayer], work=512*
 85: 0x022D [0x45] LOAD_SCHEDULED_TASK: Load scheduler "s001" with entities [LocalPlayer, LocalPlayer], work=[512*, 0*]
 86: 0x023E [0x27] REQ_SET(priority=0x10, entity_id=01 (ID: 17335095/0x01088337), tag_num=0x02)
 87: 0x0245 [0x1C] WAIT(10* ticks)
 88: 0x0248 [0x27] REQ_SET(priority=0x10, entity_id=02 (ID: 17335096/0x01088338), tag_num=0x02)
 89: 0x024F [0x1C] WAIT(5* ticks)
 90: 0x0252 [0x27] REQ_SET(priority=0x10, entity_id=03 (ID: 17335097/0x01088339), tag_num=0x02)
 91: 0x0259 [0x1C] WAIT(10* ticks)
 92: 0x025C [0x27] REQ_SET(priority=0x10, entity_id=04 (ID: 17335098/0x0108833A), tag_num=0x02)
 93: 0x0263 [0x1C] WAIT(15* ticks)
 94: 0x0266 [0x27] REQ_SET(priority=0x10, entity_id=03 (ID: 17335099/0x0108833B), tag_num=0x09)
 95: 0x026D [0x1C] WAIT(10* ticks)
 96: 0x0270 [0x27] REQ_SET(priority=0x10, entity_id=04 (ID: 17335100/0x0108833C), tag_num=0x09)
 97: 0x0277 [0x1C] WAIT(50* ticks)
 98: 0x027A [0x2B] Phillieulais (ID: 17335093/0x01088335) [7709*]:
     "Hm?"
 99: 0x0281 [0x5D] SET_MUSIC_VOLUME(volume=0*, fade_time=140*)
100: 0x0286 [0x1C] WAIT(40* ticks)
101: 0x0289 [0x52] END_LOAD_SCHEDULER: End scheduler "s001" with entities [LocalPlayer, LocalPlayer], work=512*
102: 0x0298 [0x45] LOAD_SCHEDULED_TASK: Load scheduler "s002" with entities [LocalPlayer, LocalPlayer], work=[512*, 0*]
103: 0x02A9 [0x2A] GET_REQ_LEVEL(level=16, entity_id=LocalPlayer)
104: 0x02AF [0x4B] UPDATE_ENTITY_YAW(entity=LocalPlayer, yaw=4.4*)
105: 0x02B6 [0x1C] WAIT(100* ticks)
106: 0x02B9 [0x52] END_LOAD_SCHEDULER: End scheduler "s002" with entities [LocalPlayer, LocalPlayer], work=512*
107: 0x02C8 [0x45] LOAD_SCHEDULED_TASK: Load scheduler "ov40" with entities [LocalPlayer, LocalPlayer], work=[512*, 0*]
108: 0x02D9 [0x45] LOAD_SCHEDULED_TASK: Load scheduler "s003" with entities [LocalPlayer, LocalPlayer], work=[512*, 0*]
109: 0x02EA [0x5C] MUSIC_CONTROL: Set Idle (Day) music to song 140*, volume=80*
110: 0x02F0 [0x5C] MUSIC_CONTROL: Set Idle (Night) music to song 140*, volume=80*
111: 0x02F6 [0x7B] Phillieulais (ID: 17335093/0x01088335) stops talking
112: 0x02FB [0x1C] WAIT(80* ticks)
113: 0x02FE [0x9A] WAIT_MUSIC_SERVER()
114: 0x02FF [0x2A] GET_REQ_LEVEL(level=16, entity_id=Phillieulais (ID: 17335093/0x01088335))
115: 0x0305 [0x66] LOAD_EXT_SCHEDULER_MAIN: Load scheduler "twb0" with entities [Phillieulais (ID: 17335093/0x01088335), Phillieulais (ID: 17335093/0x01088335)], work=29*
116: 0x0314 [0x2B] Phillieulais (ID: 17335093/0x01088335) [7710*]:
     "Hahaha. It would seem that <Player> is always one step ahead of us, Altennia."
117: 0x031B [0x2A] GET_REQ_LEVEL(level=16, entity_id=Altennia (ID: 17335092/0x01088334))
118: 0x0321 [0x23] WAIT_FOR_DIALOG_INTERACTION
119: 0x0322 [0x5B] LOAD_EXT_SCHEDULER: Load scheduler "tlk0" with entities [Altennia (ID: 17335092/0x01088334), Altennia (ID: 17335092/0x01088334)], work=1334*
120: 0x0331 [0x52] END_LOAD_SCHEDULER: End scheduler "s003" with entities [LocalPlayer, LocalPlayer], work=512*
121: 0x0340 [0x45] LOAD_SCHEDULED_TASK: Load scheduler "ov40" with entities [LocalPlayer, LocalPlayer], work=[512*, 0*]
122: 0x0351 [0x45] LOAD_SCHEDULED_TASK: Load scheduler "s004" with entities [LocalPlayer, LocalPlayer], work=[512*, 0*]
123: 0x0362 [0x4A] LocalPlayer looks at Altennia (ID: 17335092/0x01088334)
124: 0x036B [0x1C] WAIT(1* ticks)
125: 0x036E [0xBA] SET_ENTITY_POSITION(entity_id=Gissenne (ID: 17335094/0x01088336), pos_x=60.664*, pos_z=-493.335*, pos_y=0.248*, direction=246.1*)
126: 0x037B [0x2B] Altennia (ID: 17335092/0x01088334) [7711*]:
     "I believed in my heart that you would come, <Player>. Thank you."
127: 0x0382 [0x23] WAIT_FOR_DIALOG_INTERACTION
128: 0x0383 [0x5B] LOAD_EXT_SCHEDULER: Load scheduler "tlk1" with entities [Altennia (ID: 17335092/0x01088334), Altennia (ID: 17335092/0x01088334)], work=1334*
129: 0x0392 [0x1C] WAIT(55* ticks)
130: 0x0395 [0x52] END_LOAD_SCHEDULER: End scheduler "s004" with entities [LocalPlayer, LocalPlayer], work=512*
131: 0x03A4 [0x45] LOAD_SCHEDULED_TASK: Load scheduler "s005" with entities [LocalPlayer, LocalPlayer], work=[512*, 0*]
132: 0x03B5 [0x1C] WAIT(70* ticks)
133: 0x03B8 [0x27] REQ_SET(priority=0x10, entity_id=Altennia (ID: 17335092/0x01088334), tag_num=0x03)
134: 0x03BF [0x66] LOAD_EXT_SCHEDULER_MAIN: Load scheduler "twb1" with entities [Phillieulais (ID: 17335093/0x01088335), Phillieulais (ID: 17335093/0x01088335)], work=29*
135: 0x03CE [0x1C] WAIT(100* ticks)
136: 0x03D1 [0x27] REQ_SET(priority=0x10, entity_id=Phillieulais (ID: 17335093/0x01088335), tag_num=0x04)
137: 0x03D8 [0x1C] WAIT(15* ticks)
138: 0x03DB [0x27] REQ_SET(priority=0x10, entity_id=Gissenne (ID: 17335094/0x01088336), tag_num=0x03)
139: 0x03E2 [0x27] REQ_SET(priority=0x10, entity_id=01 (ID: 17335095/0x01088337), tag_num=0x03)
140: 0x03E9 [0x27] REQ_SET(priority=0x10, entity_id=02 (ID: 17335096/0x01088338), tag_num=0x03)
141: 0x03F0 [0x2A] GET_REQ_LEVEL(level=16, entity_id=Altennia (ID: 17335092/0x01088334))
142: 0x03F6 [0x52] END_LOAD_SCHEDULER: End scheduler "s005" with entities [LocalPlayer, LocalPlayer], work=512*
143: 0x0405 [0x45] LOAD_SCHEDULED_TASK: Load scheduler "ov40" with entities [LocalPlayer, LocalPlayer], work=[512*, 0*]
144: 0x0416 [0x45] LOAD_SCHEDULED_TASK: Load scheduler "s006" with entities [LocalPlayer, LocalPlayer], work=[512*, 0*]
145: 0x0427 [0x1C] WAIT(100* ticks)
146: 0x042A [0xBA] SET_ENTITY_POSITION(entity_id=03 (ID: 17335097/0x01088339), pos_x=60.496*, pos_z=-498.660*, pos_y=-0.247*, direction=267.7*)
147: 0x0437 [0xBA] SET_ENTITY_POSITION(entity_id=04 (ID: 17335098/0x0108833A), pos_x=62.634*, pos_z=-500.111*, pos_y=-0.551*, direction=267.7*)
148: 0x0444 [0xBA] SET_ENTITY_POSITION(entity_id=03 (ID: 17335099/0x0108833B), pos_x=59.470*, pos_z=-501.086*, pos_y=-0.795*, direction=267.7*)
149: 0x0451 [0xBA] SET_ENTITY_POSITION(entity_id=04 (ID: 17335100/0x0108833C), pos_x=57.302*, pos_z=-500.155*, pos_y=-0.562*, direction=267.7*)
150: 0x045E [0x4A] 03 (ID: 17335097/0x01088339) looks at Phillieulais (ID: 17335093/0x01088335)
151: 0x0467 [0x4A] 04 (ID: 17335098/0x0108833A) looks at Phillieulais (ID: 17335093/0x01088335)
152: 0x0470 [0x4A] 03 (ID: 17335099/0x0108833B) looks at Phillieulais (ID: 17335093/0x01088335)
153: 0x0479 [0x4A] 04 (ID: 17335100/0x0108833C) looks at Phillieulais (ID: 17335093/0x01088335)
154: 0x0482 [0x2B] Phillieulais (ID: 17335093/0x01088335) [7712*]:
     "Hastily though we prepared for departure, it shames me to think that we were left in your wake yet again."
155: 0x0489 [0x4A] LocalPlayer looks at Phillieulais (ID: 17335093/0x01088335)
156: 0x0492 [0x2A] GET_REQ_LEVEL(level=16, entity_id=Phillieulais (ID: 17335093/0x01088335))
157: 0x0498 [0x6E] Phillieulais (ID: 17335093/0x01088335) uses emote 6*
158: 0x049F [0x99] Wait for Phillieulais (ID: 17335093/0x01088335) animation to complete
159: 0x04A4 [0x2A] GET_REQ_LEVEL(level=16, entity_id=Gissenne (ID: 17335094/0x01088336))
160: 0x04AA [0x23] WAIT_FOR_DIALOG_INTERACTION
161: 0x04AB [0x02] IF !(ExtData[1]->WorkLocal[1] == 3*) GOTO 0x04D6
162: 0x04B3 [0x52] END_LOAD_SCHEDULER: End scheduler "s006" with entities [LocalPlayer, LocalPlayer], work=512*
163: 0x04C2 [0x45] LOAD_SCHEDULED_TASK: Load scheduler "sg07" with entities [LocalPlayer, LocalPlayer], work=[512*, 0*]
164: 0x04D3 [0x01] GOTO 0x05A2
165: 0x04D6 [0x02] IF !(ExtData[1]->WorkLocal[1] == 4*) GOTO 0x0501
166: 0x04DE [0x52] END_LOAD_SCHEDULER: End scheduler "s006" with entities [LocalPlayer, LocalPlayer], work=512*
167: 0x04ED [0x45] LOAD_SCHEDULED_TASK: Load scheduler "sg07" with entities [LocalPlayer, LocalPlayer], work=[512*, 0*]
168: 0x04FE [0x01] GOTO 0x05A2
169: 0x0501 [0x02] IF !(ExtData[1]->WorkLocal[1] == 5*) GOTO 0x052C
170: 0x0509 [0x52] END_LOAD_SCHEDULER: End scheduler "s006" with entities [LocalPlayer, LocalPlayer], work=512*
171: 0x0518 [0x45] LOAD_SCHEDULED_TASK: Load scheduler "st07" with entities [LocalPlayer, LocalPlayer], work=[512*, 0*]
172: 0x0529 [0x01] GOTO 0x05A2
173: 0x052C [0x02] IF !(ExtData[1]->WorkLocal[1] == 6*) GOTO 0x0557
174: 0x0534 [0x52] END_LOAD_SCHEDULER: End scheduler "s006" with entities [LocalPlayer, LocalPlayer], work=512*
175: 0x0543 [0x45] LOAD_SCHEDULED_TASK: Load scheduler "st07" with entities [LocalPlayer, LocalPlayer], work=[512*, 0*]
176: 0x0554 [0x01] GOTO 0x05A2
177: 0x0557 [0x02] IF !(ExtData[1]->WorkLocal[1] == 8*) GOTO 0x0582
178: 0x055F [0x52] END_LOAD_SCHEDULER: End scheduler "s006" with entities [LocalPlayer, LocalPlayer], work=512*
179: 0x056E [0x45] LOAD_SCHEDULED_TASK: Load scheduler "sg07" with entities [LocalPlayer, LocalPlayer], work=[512*, 0*]
180: 0x057F [0x01] GOTO 0x05A2
181: 0x0582 [0x52] END_LOAD_SCHEDULER: End scheduler "s006" with entities [LocalPlayer, LocalPlayer], work=512*
182: 0x0591 [0x45] LOAD_SCHEDULED_TASK: Load scheduler "s007" with entities [LocalPlayer, LocalPlayer], work=[512*, 0*]

SUBROUTINE_05A2:
183: 0x05A2 [0x5B] LOAD_EXT_SCHEDULER: Load scheduler "gtk0" with entities [Gissenne (ID: 17335094/0x01088336), Gissenne (ID: 17335094/0x01088336)], work=2890*
184: 0x05B1 [0x1C] WAIT(60* ticks)
