# 0x7FFFFFF0 - Zone Events

## Common Data

| Field            | Value                            |
|------------------|----------------------------------|
| Zone             | Beaucedine Glacier [S] (ID: 136) |
| Block Size       | 2784 bytes                       |
| Total Events     | 79                               |
| References Count | 135                              |

## List of Events

| Event ID                   | Entrypoint   |   Size |   Instructions |
|----------------------------|--------------|--------|----------------|
| [65535](#event-65535)      | 0x0000       |      1 |              1 |
| [65534](#event-65534)      | 0x0001       |      1 |              1 |
| [65535.1](#event-655351)   | 0x0002       |      6 |              2 |
| [65535.2](#event-655352)   | 0x0008       |      6 |              2 |
| [65535.3](#event-655353)   | 0x000E       |     37 |              5 |
| [65535.4](#event-655354)   | 0x0033       |     37 |              5 |
| [65535.5](#event-655355)   | 0x0058       |      7 |              3 |
| [65535.6](#event-655356)   | 0x005F       |      7 |              3 |
| [65535.7](#event-655357)   | 0x0066       |     10 |              2 |
| [65535.8](#event-655358)   | 0x0070       |    158 |             34 |
| [65535.9](#event-655359)   | 0x010E       |     24 |              4 |
| [65535.10](#event-6553510) | 0x0126       |     24 |              4 |
| [65535.11](#event-6553511) | 0x013E       |     38 |              5 |
| [65535.12](#event-6553512) | 0x0164       |     38 |              5 |
| [65535.13](#event-6553513) | 0x018A       |     38 |              5 |
| [65535.14](#event-6553514) | 0x01B0       |     37 |              5 |
| [65535.15](#event-6553515) | 0x01D5       |     37 |              5 |
| [65535.16](#event-6553516) | 0x01FA       |     42 |              6 |
| [65535.17](#event-6553517) | 0x0224       |     20 |              6 |
| [65535.18](#event-6553518) | 0x0238       |     42 |              6 |
| [65535.19](#event-6553519) | 0x0262       |     42 |              6 |
| [65535.20](#event-6553520) | 0x028C       |     42 |              6 |
| [65535.21](#event-6553521) | 0x02B6       |     42 |              6 |
| [65535.22](#event-6553522) | 0x02E0       |     31 |              6 |
| [65535.23](#event-6553523) | 0x02FF       |     29 |              5 |
| [65535.24](#event-6553524) | 0x031C       |     20 |              6 |
| [65535.25](#event-6553525) | 0x0330       |     24 |              4 |
| [65535.26](#event-6553526) | 0x0348       |     62 |              6 |
| [65535.27](#event-6553527) | 0x0386       |     45 |              7 |
| [65535.28](#event-6553528) | 0x03B3       |     14 |              4 |
| [65535.29](#event-6553529) | 0x03C1       |     29 |              5 |
| [65535.30](#event-6553530) | 0x03DE       |     27 |              5 |
| [65535.31](#event-6553531) | 0x03F9       |     14 |              4 |
| [65535.32](#event-6553532) | 0x0407       |     14 |              4 |
| [65535.33](#event-6553533) | 0x0415       |     14 |              4 |
| [65535.34](#event-6553534) | 0x0423       |     37 |              9 |
| [65535.35](#event-6553535) | 0x0448       |     14 |              4 |
| [65535.36](#event-6553536) | 0x0456       |     11 |              3 |
| [65535.37](#event-6553537) | 0x0461       |     19 |              5 |
| [65535.38](#event-6553538) | 0x0474       |     11 |              3 |
| [65535.39](#event-6553539) | 0x047F       |     11 |              3 |
| [65535.40](#event-6553540) | 0x048A       |     24 |              6 |
| [65535.41](#event-6553541) | 0x04A2       |     21 |              5 |
| [65535.42](#event-6553542) | 0x04B7       |     11 |              3 |
| [65535.43](#event-6553543) | 0x04C2       |     41 |              7 |
| [65535.44](#event-6553544) | 0x04EB       |     21 |              5 |
| [65535.45](#event-6553545) | 0x0500       |     24 |              4 |
| [65535.46](#event-6553546) | 0x0518       |     11 |              3 |
| [65535.47](#event-6553547) | 0x0523       |     21 |              5 |
| [65535.48](#event-6553548) | 0x0538       |     38 |              6 |
| [65535.49](#event-6553549) | 0x055E       |     12 |              4 |
| [65535.50](#event-6553550) | 0x056A       |     12 |              4 |
| [65535.51](#event-6553551) | 0x0576       |     12 |              4 |
| [65535.52](#event-6553552) | 0x0582       |     15 |              5 |
| [65535.53](#event-6553553) | 0x0591       |     19 |              5 |
| [65535.54](#event-6553554) | 0x05A4       |     15 |              5 |
| [65535.55](#event-6553555) | 0x05B3       |     25 |              7 |
| [65535.56](#event-6553556) | 0x05CC       |     24 |              4 |
| [65535.57](#event-6553557) | 0x05E4       |     24 |              4 |
| [65535.58](#event-6553558) | 0x05FC       |     10 |              2 |
| [65535.59](#event-6553559) | 0x0606       |     10 |              2 |
| [65535.60](#event-6553560) | 0x0610       |     17 |              5 |
| [65535.61](#event-6553561) | 0x0621       |     24 |              5 |
| [65535.62](#event-6553562) | 0x0639       |     29 |              7 |
| [65535.63](#event-6553563) | 0x0656       |     15 |              5 |
| [65535.64](#event-6553564) | 0x0665       |     11 |              3 |
| [65535.65](#event-6553565) | 0x0670       |      4 |              2 |
| [65535.66](#event-6553566) | 0x0674       |     10 |              2 |
| [65535.67](#event-6553567) | 0x067E       |     10 |              2 |
| [65535.68](#event-6553568) | 0x0688       |     13 |              3 |
| [15](#event-15)            | 0x0695       |      1 |              1 |
| [65535.69](#event-6553569) | 0x0696       |     11 |              3 |
| [65535.70](#event-6553570) | 0x06A1       |     13 |              3 |
| [65535.71](#event-6553571) | 0x06AE       |     10 |              2 |
| [65535.72](#event-6553572) | 0x06B8       |     14 |              4 |
| [65535.73](#event-6553573) | 0x06C6       |     29 |              5 |
| [65535.74](#event-6553574) | 0x06E3       |      4 |              2 |
| [65535.75](#event-6553575) | 0x06E7       |     38 |              4 |
| [22](#event-22)            | 0x070D       |    107 |             16 |

## DAT References (imed_data)

|   Index | Hex Value   |   Dec Value |
|---------|-------------|-------------|
|       0 | 0x0001      |           1 |
|       1 | 0x0000      |           0 |
|       2 | 0x003C      |          60 |
|       3 | 0x0080      |         128 |
|       4 | 0x0005      |           5 |
|       5 | 0x0002      |           2 |
|       6 | 0x000A      |          10 |
|       7 | 0x0009      |           9 |
|       8 | 0x0046      |          70 |
|       9 | 0x008C      |         140 |
|      10 | 0x00D2      |         210 |
|      11 | 0x0008      |           8 |
|      12 | 0x0007      |           7 |
|      13 | 0x0091      |         145 |
|      14 | 0x004F      |          79 |
|      15 | 0x004C      |          76 |
|      16 | 0x00C9      |         201 |
|      17 | 0x0018      |          24 |
|      18 | 0x0020      |          32 |
|      19 | 0x0030      |          48 |
|      20 | 0x0040      |          64 |
|      21 | 0x000B      |          11 |
|      22 | 0xCE76      |       52854 |
|      23 | 0xFFFB7457  |  4294669399 |
|      24 | 0x0162      |         354 |
|      25 | 0x0028      |          40 |
|      26 | 0xFFF97CA3  |  4294540451 |
|      27 | 0xFFFD4B2F  |  4294789935 |
|      28 | 0x36AF      |       13999 |
|      29 | 0x009C      |         156 |
|      30 | 0x00B4      |         180 |
|      31 | 0x01E2      |         482 |
|      32 | 0x001E      |          30 |
|      33 | 0x000D      |          13 |
|      34 | 0xCFE3      |       53219 |
|      35 | 0xFFFB0C92  |  4294642834 |
|      36 | 0x0180      |         384 |
|      37 | 0x012C      |         300 |
|      38 | 0x3E763     |      255843 |
|      39 | 0xFFFF45C9  |  4294919625 |
|      40 | 0x4E69      |       20073 |
|      41 | 0x5DE42     |      384578 |
|      42 | 0xFFF8FBEA  |  4294507498 |
|      43 | 0x04C1      |        1217 |
|      44 | 0x606C3     |      394947 |
|      45 | 0xFFF8FC9D  |  4294507677 |
|      46 | 0x05BF      |        1471 |
|      47 | 0x61661     |      398945 |
|      48 | 0xFFF906C3  |  4294510275 |
|      49 | 0x0655      |        1621 |
|      50 | 0x0078      |         120 |
|      51 | 0xFFFBCCFD  |  4294692093 |
|      52 | 0xFFFB3301  |  4294652673 |
|      53 | 0xFFFF642B  |  4294927403 |
|      54 | 0x18FB6     |      102326 |
|      55 | 0x1DA89     |      121481 |
|      56 | 0xFFFFB554  |  4294948180 |
|      57 | 0x18C89     |      101513 |
|      58 | 0x1DA4D     |      121421 |
|      59 | 0xFFFFB57C  |  4294948220 |
|      60 | 0x1BC52     |      113746 |
|      61 | 0x1EBDC     |      125916 |
|      62 | 0xFFFFB1CE  |  4294947278 |
|      63 | 0x1BC60     |      113760 |
|      64 | 0x1E9A7     |      125351 |
|      65 | 0xFFFFB20B  |  4294947339 |
|      66 | 0x18B2A     |      101162 |
|      67 | 0x1DAD8     |      121560 |
|      68 | 0xFFFFB58E  |  4294948238 |
|      69 | 0x0015      |          21 |
|      70 | 0x17A8D     |       96909 |
|      71 | 0x1D3AF     |      119727 |
|      72 | 0xFFFFB52E  |  4294948142 |
|      73 | 0x18B9F     |      101279 |
|      74 | 0x1F62E     |      128558 |
|      75 | 0xFFFFB12B  |  4294947115 |
|      76 | 0x0064      |         100 |
|      77 | 0xFFFAF758  |  4294637400 |
|      78 | 0xFFFD39C4  |  4294785476 |
|      79 | 0xFFFF62F9  |  4294927097 |
|      80 | 0xFFFBBA1B  |  4294687259 |
|      81 | 0xFFFD7503  |  4294800643 |
|      82 | 0xFFFF633B  |  4294927163 |
|      83 | 0xFFFBD23D  |  4294693437 |
|      84 | 0xFFFD7E6F  |  4294803055 |
|      85 | 0xFFFF640E  |  4294927374 |
|      86 | 0xFFFBC882  |  4294690946 |
|      87 | 0xFFFD85E6  |  4294804966 |
|      88 | 0xFFFF63C0  |  4294927296 |
|      89 | 0x13E0C     |       81420 |
|      90 | 0xFFFA7D6D  |  4294606189 |
|      91 | 0x156BF     |       87743 |
|      92 | 0xFFFABB11  |  4294621969 |
|      93 | 0x0025      |          37 |
|      94 | 0x22E9D     |      143005 |
|      95 | 0xFFFD86D7  |  4294805207 |
|      96 | 0xFFFFB352  |  4294947666 |
|      97 | 0xE8FB      |       59643 |
|      98 | 0xFFF8B016  |  4294488086 |
|      99 | 0x010F      |         271 |
|     100 | 0xF0DB      |       61659 |
|     101 | 0xFFF8CA4D  |  4294494797 |
|     102 | 0x00AD      |         173 |
|     103 | 0xF0C7      |       61639 |
|     104 | 0xFFF8D439  |  4294497337 |
|     105 | 0x0013      |          19 |
|     106 | 0xEF93      |       61331 |
|     107 | 0xFFF8FD07  |  4294507783 |
|     108 | 0xFFFFFF74  |  4294967156 |
|     109 | 0xE96B      |       59755 |
|     110 | 0xFFF9227C  |  4294517372 |
|     111 | 0xFFFFFF3C  |  4294967100 |
|     112 | 0xE69A      |       59034 |
|     113 | 0xFFF8998B  |  4294482315 |
|     114 | 0x00E1      |         225 |
|     115 | 0x000C      |          12 |
|     116 | 0x1B1FF     |      111103 |
|     117 | 0x1EBBA     |      125882 |
|     118 | 0xFFFFB275  |  4294947445 |
|     119 | 0x005A      |          90 |
|     120 | 0x1B909     |      112905 |
|     121 | 0x1F72C     |      128812 |
|     122 | 0xFFFFB1E5  |  4294947301 |
|     123 | 0xA752      |       42834 |
|     124 | 0xFFFB0D84  |  4294643076 |
|     125 | 0xA316      |       41750 |
|     126 | 0xFFFAB6F9  |  4294620921 |
|     127 | 0x022D      |         557 |
|     128 | 0x002B      |          43 |
|     129 | 0x1932      |        6450 |
|     130 | 0xFFFCDC08  |  4294761480 |
|     131 | 0xFFFF64C9  |  4294927561 |
|     132 | 0x007F      |         127 |
|     133 | 0x21A4      |        8612 |
|     134 | 0x00C8      |         200 |

## String References

- **8612**: The order has been given by your party leader to enter [Everbloom Hollow/the Ruhotz Silvermines/Ghoyu's Reverie].

## Events

### Event 65535

#### Metadata

| Field        | Value   |
|--------------|---------|
| Entrypoint   | 0x0000  |
| Data Size    | 1 bytes |
| Instructions | 1       |

```
      00 01 02 03 04 05 06 07  08 09 0A 0B 0C 0D 0E 0F
      -- -- -- -- -- -- -- --  -- -- -- -- -- -- -- --
0000: 00                                                .               
```

#### Opcodes

```
  0: 0x0000 [0x00] END_REQSTACK()
```

### Event 65534

#### Metadata

| Field        | Value   |
|--------------|---------|
| Entrypoint   | 0x0001  |
| Data Size    | 1 bytes |
| Instructions | 1       |

```
      00 01 02 03 04 05 06 07  08 09 0A 0B 0C 0D 0E 0F
      -- -- -- -- -- -- -- --  -- -- -- -- -- -- -- --
0000:    00                                              .              
```

#### Opcodes

```
  0: 0x0001 [0x00] END_REQSTACK()
```

### Event 65535.1

#### Metadata

| Field        | Value   |
|--------------|---------|
| Entrypoint   | 0x0002  |
| Data Size    | 6 bytes |
| Instructions | 2       |

```
      00 01 02 03 04 05 06 07  08 09 0A 0B 0C 0D 0E 0F
      -- -- -- -- -- -- -- --  -- -- -- -- -- -- -- --
0000:       03 02 10 07 7F 00                             ......        
```

#### Opcodes

```
  0: 0x0002 [0x03] Work_Zone[2] = Entity->Race
  1: 0x0007 [0x00] END_REQSTACK()
```

### Event 65535.2

#### Metadata

| Field        | Value   |
|--------------|---------|
| Entrypoint   | 0x0008  |
| Data Size    | 6 bytes |
| Instructions | 2       |

```
      00 01 02 03 04 05 06 07  08 09 0A 0B 0C 0D 0E 0F
      -- -- -- -- -- -- -- --  -- -- -- -- -- -- -- --
0000:                          03 02 10 0B 7F 00                ......  
```

#### Opcodes

```
  0: 0x0008 [0x03] Work_Zone[2] = (Entity->Render.Flags01 >> 25) & 1
  1: 0x000D [0x00] END_REQSTACK()
```

### Event 65535.3

#### Metadata

| Field        | Value    |
|--------------|----------|
| Entrypoint   | 0x000E   |
| Data Size    | 37 bytes |
| Instructions | 5        |

```
      00 01 02 03 04 05 06 07  08 09 0A 0B 0C 0D 0E 0F
      -- -- -- -- -- -- -- --  -- -- -- -- -- -- -- --
0000:                                            03 00                ..
0010: 00 07 7F 1A 7A 00 66 01  00 F8 FF FF 7F F8 FF FF  ....z.f.........
0020: 7F 73 68 61 30 53 F8 FF  FF 7F F8 FF FF 7F 73 68  .sha0S........sh
0030: 61 30 00                                          a0.             
```

#### Opcodes

```
  0: 0x000E [0x03] ExtData[1]->WorkLocal[0] = Entity->Race
  1: 0x0013 [0x1A] CALL_SUBROUTINE(address=0x007A)
  2: 0x0016 [0x66] LOAD_EXT_SCHEDULER_MAIN: Load scheduler "sha0" with entities [EventEntity, EventEntity], work=ExtData[1]->WorkLocal[1]
  3: 0x0025 [0x53] WAIT_SCHEDULER_TASK: Wait for scheduler "sha0" with entities [EventEntity, EventEntity]
  4: 0x0032 [0x00] END_REQSTACK()
```

### Event 65535.4

#### Metadata

| Field        | Value    |
|--------------|----------|
| Entrypoint   | 0x0033   |
| Data Size    | 37 bytes |
| Instructions | 5        |

```
      00 01 02 03 04 05 06 07  08 09 0A 0B 0C 0D 0E 0F
      -- -- -- -- -- -- -- --  -- -- -- -- -- -- -- --
0030:          03 00 00 07 7F  1A 7A 00 66 01 00 F8 FF     ......z.f....
0040: FF 7F F8 FF FF 7F 73 68  61 31 53 F8 FF FF 7F F8  ......sha1S.....
0050: FF FF 7F 73 68 61 31 00                           ...sha1.        
```

#### Opcodes

```
  0: 0x0033 [0x03] ExtData[1]->WorkLocal[0] = Entity->Race
  1: 0x0038 [0x1A] CALL_SUBROUTINE(address=0x007A)
  2: 0x003B [0x66] LOAD_EXT_SCHEDULER_MAIN: Load scheduler "sha1" with entities [EventEntity, EventEntity], work=ExtData[1]->WorkLocal[1]
  3: 0x004A [0x53] WAIT_SCHEDULER_TASK: Wait for scheduler "sha1" with entities [EventEntity, EventEntity]
  4: 0x0057 [0x00] END_REQSTACK()
```

### Event 65535.5

#### Metadata

| Field        | Value   |
|--------------|---------|
| Entrypoint   | 0x0058  |
| Data Size    | 7 bytes |
| Instructions | 3       |

```
      00 01 02 03 04 05 06 07  08 09 0A 0B 0C 0D 0E 0F
      -- -- -- -- -- -- -- --  -- -- -- -- -- -- -- --
0050:                          AB 03 AC 01 00 80 00             ....... 
```

#### Opcodes

```
  0: 0x0058 [0xAB] EventEntity->Render.Flags0 ^= 0x20000 // Toggle bit 17
  1: 0x005A [0xAC] EventEntity->StatusEvent = 1*
  2: 0x005E [0x00] END_REQSTACK()
```

### Event 65535.6

#### Metadata

| Field        | Value   |
|--------------|---------|
| Entrypoint   | 0x005F  |
| Data Size    | 7 bytes |
| Instructions | 3       |

```
      00 01 02 03 04 05 06 07  08 09 0A 0B 0C 0D 0E 0F
      -- -- -- -- -- -- -- --  -- -- -- -- -- -- -- --
0050:                                               AC                 .
0060: 01 01 80 AB 04 00                                 ......          
```

#### Opcodes

```
  0: 0x005F [0xAC] EventEntity->StatusEvent = 0*
  1: 0x0063 [0xAB] EventEntity->Render.Flags0 |= 0x40000 // Set bit 18
  2: 0x0065 [0x00] END_REQSTACK()
```

### Event 65535.7

#### Metadata

| Field        | Value    |
|--------------|----------|
| Entrypoint   | 0x0066   |
| Data Size    | 10 bytes |
| Instructions | 2        |

```
      00 01 02 03 04 05 06 07  08 09 0A 0B 0C 0D 0E 0F
      -- -- -- -- -- -- -- --  -- -- -- -- -- -- -- --
0060:                   6C F8  FF FF 7F 01 80 02 80 00        l.........
```

#### Opcodes

```
  0: 0x0066 [0x6C] FADE_ENTITY_COLOR(entity_id=EventEntity, end_alpha=0*, fade_time=60*)
  1: 0x006F [0x00] END_REQSTACK()
```

### Event 65535.8

#### Metadata

| Field        | Value     |
|--------------|-----------|
| Entrypoint   | 0x0070    |
| Data Size    | 158 bytes |
| Instructions | 2         |

```
      00 01 02 03 04 05 06 07  08 09 0A 0B 0C 0D 0E 0F
      -- -- -- -- -- -- -- --  -- -- -- -- -- -- -- --
0070: 6C F8 FF FF 7F 03 80 02  80 00 03 01 00 00 00 02  l...............
0080: 01 00 04 80 05 8F 00 08  01 00 00 80 01 94 00 08  ................
0090: 01 00 05 80 14 01 00 06  80 07 01 00 07 80 1B 03  ................
00A0: 01 00 00 00 02 01 00 04  80 05 B4 00 08 01 00 00  ................
00B0: 80 01 B9 00 08 01 00 05  80 14 01 00 06 80 07 01  ................
00C0: 00 08 80 1B 03 01 00 00  00 02 01 00 04 80 05 D9  ................
00D0: 00 08 01 00 00 80 01 DE  00 08 01 00 05 80 14 01  ................
00E0: 00 06 80 07 01 00 09 80  1B 03 01 00 00 00 02 01  ................
00F0: 00 04 80 05 FE 00 08 01  00 00 80 01 03 01 08 01  ................
0100: 00 05 80 14 01 00 06 80  07 01 00 0A 80 1B        ..............  
```

#### Opcodes

```
  0: 0x0070 [0x6C] FADE_ENTITY_COLOR(entity_id=EventEntity, end_alpha=128*, fade_time=60*)
  1: 0x0079 [0x00] END_REQSTACK()
```

#### Data or dead code:

```
# Dead code (unreachable instructions):
     0x007A [0x03] ExtData[1]->WorkLocal[1] = ExtData[1]->WorkLocal[0]
     0x007F [0x02] IF !(ExtData[1]->WorkLocal[1] > 5*) GOTO 0x008F
     0x0087 [0x08] ExtData[1]->WorkLocal[1] -= 1*
     0x008C [0x01] GOTO 0x0094
     0x008F [0x08] ExtData[1]->WorkLocal[1] -= 2*
     0x0094 [0x14] ExtData[1]->WorkLocal[1] *= 10*
     0x0099 [0x07] ExtData[1]->WorkLocal[1] += 9*
     0x009E [0x1B] RETURN
     0x009F [0x03] ExtData[1]->WorkLocal[1] = ExtData[1]->WorkLocal[0]
     0x00A4 [0x02] IF !(ExtData[1]->WorkLocal[1] > 5*) GOTO 0x00B4
     0x00AC [0x08] ExtData[1]->WorkLocal[1] -= 1*
     0x00B1 [0x01] GOTO 0x00B9
     0x00B4 [0x08] ExtData[1]->WorkLocal[1] -= 2*
     0x00B9 [0x14] ExtData[1]->WorkLocal[1] *= 10*
     0x00BE [0x07] ExtData[1]->WorkLocal[1] += 70*
     0x00C3 [0x1B] RETURN
     0x00C4 [0x03] ExtData[1]->WorkLocal[1] = ExtData[1]->WorkLocal[0]
     0x00C9 [0x02] IF !(ExtData[1]->WorkLocal[1] > 5*) GOTO 0x00D9
     0x00D1 [0x08] ExtData[1]->WorkLocal[1] -= 1*
     0x00D6 [0x01] GOTO 0x00DE
     0x00D9 [0x08] ExtData[1]->WorkLocal[1] -= 2*
     0x00DE [0x14] ExtData[1]->WorkLocal[1] *= 10*
     0x00E3 [0x07] ExtData[1]->WorkLocal[1] += 140*
     0x00E8 [0x1B] RETURN
     0x00E9 [0x03] ExtData[1]->WorkLocal[1] = ExtData[1]->WorkLocal[0]
     0x00EE [0x02] IF !(ExtData[1]->WorkLocal[1] > 5*) GOTO 0x00FE
     0x00F6 [0x08] ExtData[1]->WorkLocal[1] -= 1*
     0x00FB [0x01] GOTO 0x0103
     0x00FE [0x08] ExtData[1]->WorkLocal[1] -= 2*
     0x0103 [0x14] ExtData[1]->WorkLocal[1] *= 10*
     0x0108 [0x07] ExtData[1]->WorkLocal[1] += 210*
     0x010D [0x1B] RETURN
```

### Event 65535.9

#### Metadata

| Field        | Value    |
|--------------|----------|
| Entrypoint   | 0x010E   |
| Data Size    | 24 bytes |
| Instructions | 4        |

```
      00 01 02 03 04 05 06 07  08 09 0A 0B 0C 0D 0E 0F
      -- -- -- -- -- -- -- --  -- -- -- -- -- -- -- --
0100:                                            03 00                ..
0110: 00 07 7F 1A 7A 00 66 01  00 F8 FF FF 7F F8 FF FF  ....z.f.........
0120: 7F 74 6C 6B 30 00                                 .tlk0.          
```

#### Opcodes

```
  0: 0x010E [0x03] ExtData[1]->WorkLocal[0] = Entity->Race
  1: 0x0113 [0x1A] CALL_SUBROUTINE(address=0x007A)
  2: 0x0116 [0x66] LOAD_EXT_SCHEDULER_MAIN: Load scheduler "tlk0" with entities [EventEntity, EventEntity], work=ExtData[1]->WorkLocal[1]
  3: 0x0125 [0x00] END_REQSTACK()
```

### Event 65535.10

#### Metadata

| Field        | Value    |
|--------------|----------|
| Entrypoint   | 0x0126   |
| Data Size    | 24 bytes |
| Instructions | 4        |

```
      00 01 02 03 04 05 06 07  08 09 0A 0B 0C 0D 0E 0F
      -- -- -- -- -- -- -- --  -- -- -- -- -- -- -- --
0120:                   03 00  00 07 7F 1A 7A 00 66 01        ......z.f.
0130: 00 F8 FF FF 7F F8 FF FF  7F 74 6C 6B 31 00        .........tlk1.  
```

#### Opcodes

```
  0: 0x0126 [0x03] ExtData[1]->WorkLocal[0] = Entity->Race
  1: 0x012B [0x1A] CALL_SUBROUTINE(address=0x007A)
  2: 0x012E [0x66] LOAD_EXT_SCHEDULER_MAIN: Load scheduler "tlk1" with entities [EventEntity, EventEntity], work=ExtData[1]->WorkLocal[1]
  3: 0x013D [0x00] END_REQSTACK()
```

### Event 65535.11

#### Metadata

| Field        | Value    |
|--------------|----------|
| Entrypoint   | 0x013E   |
| Data Size    | 38 bytes |
| Instructions | 5        |

```
      00 01 02 03 04 05 06 07  08 09 0A 0B 0C 0D 0E 0F
      -- -- -- -- -- -- -- --  -- -- -- -- -- -- -- --
0130:                                            22 00                ".
0140: 2F 00 F8 FF FF 7F B6 0B  0B 80 0C 80 0D 80 0E 80  /...............
0150: 0F 80 0F 80 0F 80 10 80  11 80 6C F8 FF FF 7F 12  ..........l.....
0160: 80 00 80 00                                       ....            
```

#### Opcodes

```
  0: 0x013E [0x22] ENTITY_HIDE_FLAG(enabled=0x00)
  1: 0x0140 [0x2F] EventEntity->Render.Flags0 &= ~0x80000 // Bit 19
  2: 0x0146 [0xB6] ENTITY_APPEARANCE_HANDLER(case=Full entity look, race=8*, hair=7*, head=145*, body=79*, hands=76*, legs=76*, feet=76*, main=201*, sub=24*)
  3: 0x015A [0x6C] FADE_ENTITY_COLOR(entity_id=EventEntity, end_alpha=32*, fade_time=1*)
  4: 0x0163 [0x00] END_REQSTACK()
```

### Event 65535.12

#### Metadata

| Field        | Value    |
|--------------|----------|
| Entrypoint   | 0x0164   |
| Data Size    | 38 bytes |
| Instructions | 5        |

```
      00 01 02 03 04 05 06 07  08 09 0A 0B 0C 0D 0E 0F
      -- -- -- -- -- -- -- --  -- -- -- -- -- -- -- --
0160:             22 00 2F 00  F8 FF FF 7F B6 0B 0C 80      "./.........
0170: 0C 80 0D 80 0E 80 0F 80  0F 80 0F 80 10 80 11 80  ................
0180: 6C F8 FF FF 7F 13 80 00  80 00                    l.........      
```

#### Opcodes

```
  0: 0x0164 [0x22] ENTITY_HIDE_FLAG(enabled=0x00)
  1: 0x0166 [0x2F] EventEntity->Render.Flags0 &= ~0x80000 // Bit 19
  2: 0x016C [0xB6] ENTITY_APPEARANCE_HANDLER(case=Full entity look, race=7*, hair=7*, head=145*, body=79*, hands=76*, legs=76*, feet=76*, main=201*, sub=24*)
  3: 0x0180 [0x6C] FADE_ENTITY_COLOR(entity_id=EventEntity, end_alpha=48*, fade_time=1*)
  4: 0x0189 [0x00] END_REQSTACK()
```

### Event 65535.13

#### Metadata

| Field        | Value    |
|--------------|----------|
| Entrypoint   | 0x018A   |
| Data Size    | 38 bytes |
| Instructions | 5        |

```
      00 01 02 03 04 05 06 07  08 09 0A 0B 0C 0D 0E 0F
      -- -- -- -- -- -- -- --  -- -- -- -- -- -- -- --
0180:                                22 00 2F 00 F8 FF            "./...
0190: FF 7F B6 0B 04 80 0C 80  0D 80 0E 80 0F 80 0F 80  ................
01A0: 0F 80 10 80 11 80 6C F8  FF FF 7F 14 80 00 80 00  ......l.........
```

#### Opcodes

```
  0: 0x018A [0x22] ENTITY_HIDE_FLAG(enabled=0x00)
  1: 0x018C [0x2F] EventEntity->Render.Flags0 &= ~0x80000 // Bit 19
  2: 0x0192 [0xB6] ENTITY_APPEARANCE_HANDLER(case=Full entity look, race=5*, hair=7*, head=145*, body=79*, hands=76*, legs=76*, feet=76*, main=201*, sub=24*)
  3: 0x01A6 [0x6C] FADE_ENTITY_COLOR(entity_id=EventEntity, end_alpha=64*, fade_time=1*)
  4: 0x01AF [0x00] END_REQSTACK()
```

### Event 65535.14

#### Metadata

| Field        | Value    |
|--------------|----------|
| Entrypoint   | 0x01B0   |
| Data Size    | 37 bytes |
| Instructions | 5        |

```
      00 01 02 03 04 05 06 07  08 09 0A 0B 0C 0D 0E 0F
      -- -- -- -- -- -- -- --  -- -- -- -- -- -- -- --
01B0: 03 00 00 07 7F 1A 7A 00  66 01 00 F8 FF FF 7F F8  ......z.f.......
01C0: FF FF 7F 73 69 74 30 53  F8 FF FF 7F F8 FF FF 7F  ...sit0S........
01D0: 73 69 74 30 00                                    sit0.           
```

#### Opcodes

```
  0: 0x01B0 [0x03] ExtData[1]->WorkLocal[0] = Entity->Race
  1: 0x01B5 [0x1A] CALL_SUBROUTINE(address=0x007A)
  2: 0x01B8 [0x66] LOAD_EXT_SCHEDULER_MAIN: Load scheduler "sit0" with entities [EventEntity, EventEntity], work=ExtData[1]->WorkLocal[1]
  3: 0x01C7 [0x53] WAIT_SCHEDULER_TASK: Wait for scheduler "sit0" with entities [EventEntity, EventEntity]
  4: 0x01D4 [0x00] END_REQSTACK()
```

### Event 65535.15

#### Metadata

| Field        | Value    |
|--------------|----------|
| Entrypoint   | 0x01D5   |
| Data Size    | 37 bytes |
| Instructions | 5        |

```
      00 01 02 03 04 05 06 07  08 09 0A 0B 0C 0D 0E 0F
      -- -- -- -- -- -- -- --  -- -- -- -- -- -- -- --
01D0:                03 00 00  07 7F 1A 7A 00 66 01 00       ......z.f..
01E0: F8 FF FF 7F F8 FF FF 7F  73 69 74 31 53 F8 FF FF  ........sit1S...
01F0: 7F F8 FF FF 7F 73 69 74  31 00                    .....sit1.      
```

#### Opcodes

```
  0: 0x01D5 [0x03] ExtData[1]->WorkLocal[0] = Entity->Race
  1: 0x01DA [0x1A] CALL_SUBROUTINE(address=0x007A)
  2: 0x01DD [0x66] LOAD_EXT_SCHEDULER_MAIN: Load scheduler "sit1" with entities [EventEntity, EventEntity], work=ExtData[1]->WorkLocal[1]
  3: 0x01EC [0x53] WAIT_SCHEDULER_TASK: Wait for scheduler "sit1" with entities [EventEntity, EventEntity]
  4: 0x01F9 [0x00] END_REQSTACK()
```

### Event 65535.16

#### Metadata

| Field        | Value    |
|--------------|----------|
| Entrypoint   | 0x01FA   |
| Data Size    | 42 bytes |
| Instructions | 6        |

```
      00 01 02 03 04 05 06 07  08 09 0A 0B 0C 0D 0E 0F
      -- -- -- -- -- -- -- --  -- -- -- -- -- -- -- --
01F0:                                03 00 00 07 7F 1A            ......
0200: 7A 00 66 01 00 F8 FF FF  7F F8 FF FF 7F 74 6C 6B  z.f..........tlk
0210: 30 1C 02 80 66 01 00 F8  FF FF 7F F8 FF FF 7F 74  0...f..........t
0220: 6C 6B 31 00                                       lk1.            
```

#### Opcodes

```
  0: 0x01FA [0x03] ExtData[1]->WorkLocal[0] = Entity->Race
  1: 0x01FF [0x1A] CALL_SUBROUTINE(address=0x007A)
  2: 0x0202 [0x66] LOAD_EXT_SCHEDULER_MAIN: Load scheduler "tlk0" with entities [EventEntity, EventEntity], work=ExtData[1]->WorkLocal[1]
  3: 0x0211 [0x1C] WAIT(60* ticks)
  4: 0x0214 [0x66] LOAD_EXT_SCHEDULER_MAIN: Load scheduler "tlk1" with entities [EventEntity, EventEntity], work=ExtData[1]->WorkLocal[1]
  5: 0x0223 [0x00] END_REQSTACK()
```

### Event 65535.17

#### Metadata

| Field        | Value    |
|--------------|----------|
| Entrypoint   | 0x0224   |
| Data Size    | 20 bytes |
| Instructions | 6        |

```
      00 01 02 03 04 05 06 07  08 09 0A 0B 0C 0D 0E 0F
      -- -- -- -- -- -- -- --  -- -- -- -- -- -- -- --
0220:             32 15 80 1F  00 16 80 17 80 18 80 1F      2...........
0230: 01 6F 1E CD 82 08 01 00                           .o......        
```

#### Opcodes

```
  0: 0x0224 [0x32] ExtData[1]->MainSpeed = 11* * 0.1
  1: 0x0227 [0x1F] MOVE_ENTITY: EventEntity moves to X=52.854*, Z=-297.897*, Y=0.354*
  2: 0x022F [0x1F] MOVE_ENTITY: Update entity position (mode=1)
  3: 0x0231 [0x6F] WAIT_FRAME_DELAY: Yield until WaitTime reaches zero
  4: 0x0232 [0x1E] EventEntity looks at Unnamed NPC (ID: 17334989/0x010882CD) and starts talking
  5: 0x0237 [0x00] END_REQSTACK()
```

### Event 65535.18

#### Metadata

| Field        | Value    |
|--------------|----------|
| Entrypoint   | 0x0238   |
| Data Size    | 42 bytes |
| Instructions | 6        |

```
      00 01 02 03 04 05 06 07  08 09 0A 0B 0C 0D 0E 0F
      -- -- -- -- -- -- -- --  -- -- -- -- -- -- -- --
0230:                          03 00 00 07 7F 1A 9F 00          ........
0240: 07 01 00 00 80 66 01 00  F8 FF FF 7F F8 FF FF 7F  .....f..........
0250: 6C 6C 7A 30 53 F8 FF FF  7F F8 FF FF 7F 6C 6C 7A  llz0S........llz
0260: 30 00                                             0.              
```

#### Opcodes

```
  0: 0x0238 [0x03] ExtData[1]->WorkLocal[0] = Entity->Race
  1: 0x023D [0x1A] CALL_SUBROUTINE(address=0x009F)
  2: 0x0240 [0x07] ExtData[1]->WorkLocal[1] += 1*
  3: 0x0245 [0x66] LOAD_EXT_SCHEDULER_MAIN: Load scheduler "llz0" with entities [EventEntity, EventEntity], work=ExtData[1]->WorkLocal[1]
  4: 0x0254 [0x53] WAIT_SCHEDULER_TASK: Wait for scheduler "llz0" with entities [EventEntity, EventEntity]
  5: 0x0261 [0x00] END_REQSTACK()
```

### Event 65535.19

#### Metadata

| Field        | Value    |
|--------------|----------|
| Entrypoint   | 0x0262   |
| Data Size    | 42 bytes |
| Instructions | 6        |

```
      00 01 02 03 04 05 06 07  08 09 0A 0B 0C 0D 0E 0F
      -- -- -- -- -- -- -- --  -- -- -- -- -- -- -- --
0260:       03 00 00 07 7F 1A  9F 00 07 01 00 00 80 66    .............f
0270: 01 00 F8 FF FF 7F F8 FF  FF 7F 6C 6C 7A 31 53 F8  ..........llz1S.
0280: FF FF 7F F8 FF FF 7F 6C  6C 7A 31 00              .......llz1.    
```

#### Opcodes

```
  0: 0x0262 [0x03] ExtData[1]->WorkLocal[0] = Entity->Race
  1: 0x0267 [0x1A] CALL_SUBROUTINE(address=0x009F)
  2: 0x026A [0x07] ExtData[1]->WorkLocal[1] += 1*
  3: 0x026F [0x66] LOAD_EXT_SCHEDULER_MAIN: Load scheduler "llz1" with entities [EventEntity, EventEntity], work=ExtData[1]->WorkLocal[1]
  4: 0x027E [0x53] WAIT_SCHEDULER_TASK: Wait for scheduler "llz1" with entities [EventEntity, EventEntity]
  5: 0x028B [0x00] END_REQSTACK()
```

### Event 65535.20

#### Metadata

| Field        | Value    |
|--------------|----------|
| Entrypoint   | 0x028C   |
| Data Size    | 42 bytes |
| Instructions | 6        |

```
      00 01 02 03 04 05 06 07  08 09 0A 0B 0C 0D 0E 0F
      -- -- -- -- -- -- -- --  -- -- -- -- -- -- -- --
0280:                                      03 00 00 07              ....
0290: 7F 1A 9F 00 07 01 00 00  80 66 01 00 F8 FF FF 7F  .........f......
02A0: F8 FF FF 7F 6C 6C 36 31  53 F8 FF FF 7F F8 FF FF  ....ll61S.......
02B0: 7F 6C 6C 36 31 00                                 .ll61.          
```

#### Opcodes

```
  0: 0x028C [0x03] ExtData[1]->WorkLocal[0] = Entity->Race
  1: 0x0291 [0x1A] CALL_SUBROUTINE(address=0x009F)
  2: 0x0294 [0x07] ExtData[1]->WorkLocal[1] += 1*
  3: 0x0299 [0x66] LOAD_EXT_SCHEDULER_MAIN: Load scheduler "ll61" with entities [EventEntity, EventEntity], work=ExtData[1]->WorkLocal[1]
  4: 0x02A8 [0x53] WAIT_SCHEDULER_TASK: Wait for scheduler "ll61" with entities [EventEntity, EventEntity]
  5: 0x02B5 [0x00] END_REQSTACK()
```

### Event 65535.21

#### Metadata

| Field        | Value    |
|--------------|----------|
| Entrypoint   | 0x02B6   |
| Data Size    | 42 bytes |
| Instructions | 6        |

```
      00 01 02 03 04 05 06 07  08 09 0A 0B 0C 0D 0E 0F
      -- -- -- -- -- -- -- --  -- -- -- -- -- -- -- --
02B0:                   03 00  00 07 7F 1A 9F 00 07 01        ..........
02C0: 00 00 80 66 01 00 F8 FF  FF 7F F8 FF FF 7F 6C 6C  ...f..........ll
02D0: 32 31 53 F8 FF FF 7F F8  FF FF 7F 6C 6C 32 31 00  21S........ll21.
```

#### Opcodes

```
  0: 0x02B6 [0x03] ExtData[1]->WorkLocal[0] = Entity->Race
  1: 0x02BB [0x1A] CALL_SUBROUTINE(address=0x009F)
  2: 0x02BE [0x07] ExtData[1]->WorkLocal[1] += 1*
  3: 0x02C3 [0x66] LOAD_EXT_SCHEDULER_MAIN: Load scheduler "ll21" with entities [EventEntity, EventEntity], work=ExtData[1]->WorkLocal[1]
  4: 0x02D2 [0x53] WAIT_SCHEDULER_TASK: Wait for scheduler "ll21" with entities [EventEntity, EventEntity]
  5: 0x02DF [0x00] END_REQSTACK()
```

### Event 65535.22

#### Metadata

| Field        | Value    |
|--------------|----------|
| Entrypoint   | 0x02E0   |
| Data Size    | 31 bytes |
| Instructions | 6        |

```
      00 01 02 03 04 05 06 07  08 09 0A 0B 0C 0D 0E 0F
      -- -- -- -- -- -- -- --  -- -- -- -- -- -- -- --
02E0: 33 01 03 00 00 07 7F 1A  9F 00 07 01 00 05 80 66  3..............f
02F0: 01 00 F8 FF FF 7F F8 FF  FF 7F 65 63 61 30 00     ..........eca0. 
```

#### Opcodes

```
  0: 0x02E0 [0x33] EventEntity->Render.Flags0 |= 0x200000 // Bit 21 (flag=0x01)
  1: 0x02E2 [0x03] ExtData[1]->WorkLocal[0] = Entity->Race
  2: 0x02E7 [0x1A] CALL_SUBROUTINE(address=0x009F)
  3: 0x02EA [0x07] ExtData[1]->WorkLocal[1] += 2*
  4: 0x02EF [0x66] LOAD_EXT_SCHEDULER_MAIN: Load scheduler "eca0" with entities [EventEntity, EventEntity], work=ExtData[1]->WorkLocal[1]
  5: 0x02FE [0x00] END_REQSTACK()
```

### Event 65535.23

#### Metadata

| Field        | Value    |
|--------------|----------|
| Entrypoint   | 0x02FF   |
| Data Size    | 29 bytes |
| Instructions | 5        |

```
      00 01 02 03 04 05 06 07  08 09 0A 0B 0C 0D 0E 0F
      -- -- -- -- -- -- -- --  -- -- -- -- -- -- -- --
02F0:                                               03                 .
0300: 00 00 07 7F 1A 9F 00 07  01 00 05 80 66 01 00 F8  ............f...
0310: FF FF 7F F8 FF FF 7F 65  63 61 31 00              .......eca1.    
```

#### Opcodes

```
  0: 0x02FF [0x03] ExtData[1]->WorkLocal[0] = Entity->Race
  1: 0x0304 [0x1A] CALL_SUBROUTINE(address=0x009F)
  2: 0x0307 [0x07] ExtData[1]->WorkLocal[1] += 2*
  3: 0x030C [0x66] LOAD_EXT_SCHEDULER_MAIN: Load scheduler "eca1" with entities [EventEntity, EventEntity], work=ExtData[1]->WorkLocal[1]
  4: 0x031B [0x00] END_REQSTACK()
```

### Event 65535.24

#### Metadata

| Field        | Value    |
|--------------|----------|
| Entrypoint   | 0x031C   |
| Data Size    | 20 bytes |
| Instructions | 6        |

```
      00 01 02 03 04 05 06 07  08 09 0A 0B 0C 0D 0E 0F
      -- -- -- -- -- -- -- --  -- -- -- -- -- -- -- --
0310:                                      7B F8 FF FF              {...
0320: 7F 32 19 80 1F 00 1A 80  1B 80 1C 80 1F 01 6F 00  .2............o.
```

#### Opcodes

```
  0: 0x031C [0x7B] EventEntity stops talking
  1: 0x0321 [0x32] ExtData[1]->MainSpeed = 40* * 0.1
  2: 0x0324 [0x1F] MOVE_ENTITY: EventEntity moves to X=-426.845*, Z=-177.361*, Y=13.999*
  3: 0x032C [0x1F] MOVE_ENTITY: Update entity position (mode=1)
  4: 0x032E [0x6F] WAIT_FRAME_DELAY: Yield until WaitTime reaches zero
  5: 0x032F [0x00] END_REQSTACK()
```

### Event 65535.25

#### Metadata

| Field        | Value    |
|--------------|----------|
| Entrypoint   | 0x0330   |
| Data Size    | 24 bytes |
| Instructions | 4        |

```
      00 01 02 03 04 05 06 07  08 09 0A 0B 0C 0D 0E 0F
      -- -- -- -- -- -- -- --  -- -- -- -- -- -- -- --
0330: 03 00 00 07 7F 1A 9F 00  66 01 00 F8 FF FF 7F F8  ........f.......
0340: FF FF 7F 61 74 70 31 00                           ...atp1.        
```

#### Opcodes

```
  0: 0x0330 [0x03] ExtData[1]->WorkLocal[0] = Entity->Race
  1: 0x0335 [0x1A] CALL_SUBROUTINE(address=0x009F)
  2: 0x0338 [0x66] LOAD_EXT_SCHEDULER_MAIN: Load scheduler "atp1" with entities [EventEntity, EventEntity], work=ExtData[1]->WorkLocal[1]
  3: 0x0347 [0x00] END_REQSTACK()
```

### Event 65535.26

#### Metadata

| Field        | Value    |
|--------------|----------|
| Entrypoint   | 0x0348   |
| Data Size    | 62 bytes |
| Instructions | 6        |

```
      00 01 02 03 04 05 06 07  08 09 0A 0B 0C 0D 0E 0F
      -- -- -- -- -- -- -- --  -- -- -- -- -- -- -- --
0340:                          BB 1D 80 0A 83 08 01 0A          ........
0350: 83 08 01 73 74 30 31 01  80 1C 1E 80 BB 1D 80 0A  ...st01.........
0360: 83 08 01 0A 83 08 01 73  74 30 32 01 80 27 10 CD  .......st02..'..
0370: 82 08 01 1B 45 1F 80 F0  FF FF 7F F0 FF FF 7F 64  ....E..........d
0380: 62 6E 30 01 80 00                                 bn0...          
```

#### Opcodes

```
  0: 0x0348 [0xBB] LOAD_EVENT_SCHEDULER_ALT: Load scheduler "st01" with entities [Unnamed NPC (ID: 17335050/0x0108830A), Unnamed NPC (ID: 17335050/0x0108830A)], work=[156*, 0*]
  1: 0x0359 [0x1C] WAIT(180* ticks)
  2: 0x035C [0xBB] LOAD_EVENT_SCHEDULER_ALT: Load scheduler "st02" with entities [Unnamed NPC (ID: 17335050/0x0108830A), Unnamed NPC (ID: 17335050/0x0108830A)], work=[156*, 0*]
  3: 0x036D [0x27] REQ_SET(priority=0x10, entity_id=Unnamed NPC (ID: 17334989/0x010882CD), tag_num=0x1B)
  4: 0x0374 [0x45] LOAD_SCHEDULED_TASK: Load scheduler "dbn0" with entities [LocalPlayer, LocalPlayer], work=[482*, 0*]
  5: 0x0385 [0x00] END_REQSTACK()
```

### Event 65535.27

#### Metadata

| Field        | Value    |
|--------------|----------|
| Entrypoint   | 0x0386   |
| Data Size    | 45 bytes |
| Instructions | 7        |

```
      00 01 02 03 04 05 06 07  08 09 0A 0B 0C 0D 0E 0F
      -- -- -- -- -- -- -- --  -- -- -- -- -- -- -- --
0380:                   03 00  00 07 7F 1A 7A 00 66 01        ......z.f.
0390: 00 F8 FF FF 7F F8 FF FF  7F 73 68 61 31 53 F8 FF  .........sha1S..
03A0: FF 7F F8 FF FF 7F 73 68  61 31 1E 54 83 08 01 1C  ......sha1.T....
03B0: 20 80 00                                           ..             
```

#### Opcodes

```
  0: 0x0386 [0x03] ExtData[1]->WorkLocal[0] = Entity->Race
  1: 0x038B [0x1A] CALL_SUBROUTINE(address=0x007A)
  2: 0x038E [0x66] LOAD_EXT_SCHEDULER_MAIN: Load scheduler "sha1" with entities [EventEntity, EventEntity], work=ExtData[1]->WorkLocal[1]
  3: 0x039D [0x53] WAIT_SCHEDULER_TASK: Wait for scheduler "sha1" with entities [EventEntity, EventEntity]
  4: 0x03AA [0x1E] EventEntity looks at Lilisette (ID: 17335124/0x01088354) and starts talking
  5: 0x03AF [0x1C] WAIT(30* ticks)
  6: 0x03B2 [0x00] END_REQSTACK()
```

### Event 65535.28

#### Metadata

| Field        | Value    |
|--------------|----------|
| Entrypoint   | 0x03B3   |
| Data Size    | 14 bytes |
| Instructions | 4        |

```
      00 01 02 03 04 05 06 07  08 09 0A 0B 0C 0D 0E 0F
      -- -- -- -- -- -- -- --  -- -- -- -- -- -- -- --
03B0:          32 21 80 1F 00  22 80 23 80 24 80 1F 01     2!...".#.$...
03C0: 00                                                .               
```

#### Opcodes

```
  0: 0x03B3 [0x32] ExtData[1]->MainSpeed = 13* * 0.1
  1: 0x03B6 [0x1F] MOVE_ENTITY: EventEntity moves to X=53.219*, Z=-324.462*, Y=0.384*
  2: 0x03BE [0x1F] MOVE_ENTITY: Update entity position (mode=1)
  3: 0x03C0 [0x00] END_REQSTACK()
```

### Event 65535.29

#### Metadata

| Field        | Value    |
|--------------|----------|
| Entrypoint   | 0x03C1   |
| Data Size    | 29 bytes |
| Instructions | 5        |

```
      00 01 02 03 04 05 06 07  08 09 0A 0B 0C 0D 0E 0F
      -- -- -- -- -- -- -- --  -- -- -- -- -- -- -- --
03C0:    7B F8 FF FF 7F 03 00  00 07 7F 1A 9F 00 66 01   {............f.
03D0: 00 F8 FF FF 7F F8 FF FF  7F 61 74 70 30 00        .........atp0.  
```

#### Opcodes

```
  0: 0x03C1 [0x7B] EventEntity stops talking
  1: 0x03C6 [0x03] ExtData[1]->WorkLocal[0] = Entity->Race
  2: 0x03CB [0x1A] CALL_SUBROUTINE(address=0x009F)
  3: 0x03CE [0x66] LOAD_EXT_SCHEDULER_MAIN: Load scheduler "atp0" with entities [EventEntity, EventEntity], work=ExtData[1]->WorkLocal[1]
  4: 0x03DD [0x00] END_REQSTACK()
```

### Event 65535.30

#### Metadata

| Field        | Value    |
|--------------|----------|
| Entrypoint   | 0x03DE   |
| Data Size    | 27 bytes |
| Instructions | 5        |

```
      00 01 02 03 04 05 06 07  08 09 0A 0B 0C 0D 0E 0F
      -- -- -- -- -- -- -- --  -- -- -- -- -- -- -- --
03D0:                                            03 00                ..
03E0: 00 07 7F 1A 9F 00 66 01  00 F8 FF FF 7F F8 FF FF  ......f.........
03F0: 7F 61 74 70 31 1C 25 80  00                       .atp1.%..       
```

#### Opcodes

```
  0: 0x03DE [0x03] ExtData[1]->WorkLocal[0] = Entity->Race
  1: 0x03E3 [0x1A] CALL_SUBROUTINE(address=0x009F)
  2: 0x03E6 [0x66] LOAD_EXT_SCHEDULER_MAIN: Load scheduler "atp1" with entities [EventEntity, EventEntity], work=ExtData[1]->WorkLocal[1]
  3: 0x03F5 [0x1C] WAIT(300* ticks)
  4: 0x03F8 [0x00] END_REQSTACK()
```

### Event 65535.31

#### Metadata

| Field        | Value    |
|--------------|----------|
| Entrypoint   | 0x03F9   |
| Data Size    | 14 bytes |
| Instructions | 4        |

```
      00 01 02 03 04 05 06 07  08 09 0A 0B 0C 0D 0E 0F
      -- -- -- -- -- -- -- --  -- -- -- -- -- -- -- --
03F0:                             32 19 80 1F 00 26 80           2....&.
0400: 27 80 28 80 1F 01 00                              '.(....         
```

#### Opcodes

```
  0: 0x03F9 [0x32] ExtData[1]->MainSpeed = 40* * 0.1
  1: 0x03FC [0x1F] MOVE_ENTITY: EventEntity moves to X=255.843*, Z=-47.671*, Y=20.073*
  2: 0x0404 [0x1F] MOVE_ENTITY: Update entity position (mode=1)
  3: 0x0406 [0x00] END_REQSTACK()
```

### Event 65535.32

#### Metadata

| Field        | Value    |
|--------------|----------|
| Entrypoint   | 0x0407   |
| Data Size    | 14 bytes |
| Instructions | 4        |

```
      00 01 02 03 04 05 06 07  08 09 0A 0B 0C 0D 0E 0F
      -- -- -- -- -- -- -- --  -- -- -- -- -- -- -- --
0400:                      32  19 80 1F 00 29 80 2A 80         2....).*.
0410: 2B 80 1F 01 00                                    +....           
```

#### Opcodes

```
  0: 0x0407 [0x32] ExtData[1]->MainSpeed = 40* * 0.1
  1: 0x040A [0x1F] MOVE_ENTITY: EventEntity moves to X=384.578*, Z=-459.798*, Y=1.217*
  2: 0x0412 [0x1F] MOVE_ENTITY: Update entity position (mode=1)
  3: 0x0414 [0x00] END_REQSTACK()
```

### Event 65535.33

#### Metadata

| Field        | Value    |
|--------------|----------|
| Entrypoint   | 0x0415   |
| Data Size    | 14 bytes |
| Instructions | 4        |

```
      00 01 02 03 04 05 06 07  08 09 0A 0B 0C 0D 0E 0F
      -- -- -- -- -- -- -- --  -- -- -- -- -- -- -- --
0410:                32 19 80  1F 00 2C 80 2D 80 2E 80       2....,.-...
0420: 1F 01 00                                          ...             
```

#### Opcodes

```
  0: 0x0415 [0x32] ExtData[1]->MainSpeed = 40* * 0.1
  1: 0x0418 [0x1F] MOVE_ENTITY: EventEntity moves to X=394.947*, Z=-459.619*, Y=1.471*
  2: 0x0420 [0x1F] MOVE_ENTITY: Update entity position (mode=1)
  3: 0x0422 [0x00] END_REQSTACK()
```

### Event 65535.34

#### Metadata

| Field        | Value    |
|--------------|----------|
| Entrypoint   | 0x0423   |
| Data Size    | 37 bytes |
| Instructions | 9        |

```
      00 01 02 03 04 05 06 07  08 09 0A 0B 0C 0D 0E 0F
      -- -- -- -- -- -- -- --  -- -- -- -- -- -- -- --
0420:          32 19 80 1F 00  2F 80 30 80 31 80 1F 01     2..../.0.1...
0430: 1E 59 83 08 01 1C 20 80  6E F8 FF FF 7F 0C 80 99  .Y.... .n.......
0440: F8 FF FF 7F 1C 32 80 00                           .....2..        
```

#### Opcodes

```
  0: 0x0423 [0x32] ExtData[1]->MainSpeed = 40* * 0.1
  1: 0x0426 [0x1F] MOVE_ENTITY: EventEntity moves to X=398.945*, Z=-457.021*, Y=1.621*
  2: 0x042E [0x1F] MOVE_ENTITY: Update entity position (mode=1)
  3: 0x0430 [0x1E] EventEntity looks at Cait Sith Ceithir (ID: 17335129/0x01088359) and starts talking
  4: 0x0435 [0x1C] WAIT(30* ticks)
  5: 0x0438 [0x6E] EventEntity uses emote 7*
  6: 0x043F [0x99] Wait for EventEntity animation to complete
  7: 0x0444 [0x1C] WAIT(120* ticks)
  8: 0x0447 [0x00] END_REQSTACK()
```

### Event 65535.35

#### Metadata

| Field        | Value    |
|--------------|----------|
| Entrypoint   | 0x0448   |
| Data Size    | 14 bytes |
| Instructions | 4        |

```
      00 01 02 03 04 05 06 07  08 09 0A 0B 0C 0D 0E 0F
      -- -- -- -- -- -- -- --  -- -- -- -- -- -- -- --
0440:                          32 19 80 1F 00 33 80 34          2....3.4
0450: 80 35 80 1F 01 00                                 .5....          
```

#### Opcodes

```
  0: 0x0448 [0x32] ExtData[1]->MainSpeed = 40* * 0.1
  1: 0x044B [0x1F] MOVE_ENTITY: EventEntity moves to X=-275.203*, Z=-314.623*, Y=-39.893*
  2: 0x0453 [0x1F] MOVE_ENTITY: Update entity position (mode=1)
  3: 0x0455 [0x00] END_REQSTACK()
```

### Event 65535.36

#### Metadata

| Field        | Value    |
|--------------|----------|
| Entrypoint   | 0x0456   |
| Data Size    | 11 bytes |
| Instructions | 3        |

```
      00 01 02 03 04 05 06 07  08 09 0A 0B 0C 0D 0E 0F
      -- -- -- -- -- -- -- --  -- -- -- -- -- -- -- --
0450:                   1F 00  36 80 37 80 38 80 1F 01        ..6.7.8...
0460: 00                                                .               
```

#### Opcodes

```
  0: 0x0456 [0x1F] MOVE_ENTITY: EventEntity moves to X=102.326*, Z=121.481*, Y=-19.116*
  1: 0x045E [0x1F] MOVE_ENTITY: Update entity position (mode=1)
  2: 0x0460 [0x00] END_REQSTACK()
```

### Event 65535.37

#### Metadata

| Field        | Value    |
|--------------|----------|
| Entrypoint   | 0x0461   |
| Data Size    | 19 bytes |
| Instructions | 5        |

```
      00 01 02 03 04 05 06 07  08 09 0A 0B 0C 0D 0E 0F
      -- -- -- -- -- -- -- --  -- -- -- -- -- -- -- --
0460:    1F 00 39 80 3A 80 3B  80 1F 01 6F 27 10 F0 FF   ..9.:.;...o'...
0470: FF 7F 04 00                                       ....            
```

#### Opcodes

```
  0: 0x0461 [0x1F] MOVE_ENTITY: EventEntity moves to X=101.513*, Z=121.421*, Y=-19.076*
  1: 0x0469 [0x1F] MOVE_ENTITY: Update entity position (mode=1)
  2: 0x046B [0x6F] WAIT_FRAME_DELAY: Yield until WaitTime reaches zero
  3: 0x046C [0x27] REQ_SET(priority=0x10, entity_id=LocalPlayer, tag_num=0x04)
  4: 0x0473 [0x00] END_REQSTACK()
```

### Event 65535.38

#### Metadata

| Field        | Value    |
|--------------|----------|
| Entrypoint   | 0x0474   |
| Data Size    | 11 bytes |
| Instructions | 3        |

```
      00 01 02 03 04 05 06 07  08 09 0A 0B 0C 0D 0E 0F
      -- -- -- -- -- -- -- --  -- -- -- -- -- -- -- --
0470:             1F 00 3C 80  3D 80 3E 80 1F 01 00         ..<.=.>.... 
```

#### Opcodes

```
  0: 0x0474 [0x1F] MOVE_ENTITY: EventEntity moves to X=113.746*, Z=125.916*, Y=-20.018*
  1: 0x047C [0x1F] MOVE_ENTITY: Update entity position (mode=1)
  2: 0x047E [0x00] END_REQSTACK()
```

### Event 65535.39

#### Metadata

| Field        | Value    |
|--------------|----------|
| Entrypoint   | 0x047F   |
| Data Size    | 11 bytes |
| Instructions | 3        |

```
      00 01 02 03 04 05 06 07  08 09 0A 0B 0C 0D 0E 0F
      -- -- -- -- -- -- -- --  -- -- -- -- -- -- -- --
0470:                                               1F                 .
0480: 00 3F 80 40 80 41 80 1F  01 00                    .?.@.A....      
```

#### Opcodes

```
  0: 0x047F [0x1F] MOVE_ENTITY: EventEntity moves to X=113.760*, Z=125.351*, Y=-19.957*
  1: 0x0487 [0x1F] MOVE_ENTITY: Update entity position (mode=1)
  2: 0x0489 [0x00] END_REQSTACK()
```

### Event 65535.40

#### Metadata

| Field        | Value    |
|--------------|----------|
| Entrypoint   | 0x048A   |
| Data Size    | 24 bytes |
| Instructions | 6        |

```
      00 01 02 03 04 05 06 07  08 09 0A 0B 0C 0D 0E 0F
      -- -- -- -- -- -- -- --  -- -- -- -- -- -- -- --
0480:                                1F 00 42 80 43 80            ..B.C.
0490: 44 80 1F 01 6F 6E F0 FF  FF 7F 45 80 99 F0 FF FF  D...on....E.....
04A0: 7F 00                                             ..              
```

#### Opcodes

```
  0: 0x048A [0x1F] MOVE_ENTITY: EventEntity moves to X=101.162*, Z=121.560*, Y=-19.058*
  1: 0x0492 [0x1F] MOVE_ENTITY: Update entity position (mode=1)
  2: 0x0494 [0x6F] WAIT_FRAME_DELAY: Yield until WaitTime reaches zero
  3: 0x0495 [0x6E] LocalPlayer uses emote 21*
  4: 0x049C [0x99] Wait for LocalPlayer animation to complete
  5: 0x04A1 [0x00] END_REQSTACK()
```

### Event 65535.41

#### Metadata

| Field        | Value    |
|--------------|----------|
| Entrypoint   | 0x04A2   |
| Data Size    | 21 bytes |
| Instructions | 5        |

```
      00 01 02 03 04 05 06 07  08 09 0A 0B 0C 0D 0E 0F
      -- -- -- -- -- -- -- --  -- -- -- -- -- -- -- --
04A0:       1F 00 46 80 47 80  48 80 1F 01 6F 4A F0 FF    ..F.G.H...oJ..
04B0: FF 7F 3D 83 08 01 00                              ..=....         
```

#### Opcodes

```
  0: 0x04A2 [0x1F] MOVE_ENTITY: EventEntity moves to X=96.909*, Z=119.727*, Y=-19.154*
  1: 0x04AA [0x1F] MOVE_ENTITY: Update entity position (mode=1)
  2: 0x04AC [0x6F] WAIT_FRAME_DELAY: Yield until WaitTime reaches zero
  3: 0x04AD [0x4A] LocalPlayer looks at Excenmille (ID: 17335101/0x0108833D)
  4: 0x04B6 [0x00] END_REQSTACK()
```

### Event 65535.42

#### Metadata

| Field        | Value    |
|--------------|----------|
| Entrypoint   | 0x04B7   |
| Data Size    | 11 bytes |
| Instructions | 3        |

```
      00 01 02 03 04 05 06 07  08 09 0A 0B 0C 0D 0E 0F
      -- -- -- -- -- -- -- --  -- -- -- -- -- -- -- --
04B0:                      1F  00 49 80 4A 80 4B 80 1F         ..I.J.K..
04C0: 01 00                                             ..              
```

#### Opcodes

```
  0: 0x04B7 [0x1F] MOVE_ENTITY: EventEntity moves to X=101.279*, Z=128.558*, Y=-20.181*
  1: 0x04BF [0x1F] MOVE_ENTITY: Update entity position (mode=1)
  2: 0x04C1 [0x00] END_REQSTACK()
```

### Event 65535.43

#### Metadata

| Field        | Value    |
|--------------|----------|
| Entrypoint   | 0x04C2   |
| Data Size    | 41 bytes |
| Instructions | 7        |

```
      00 01 02 03 04 05 06 07  08 09 0A 0B 0C 0D 0E 0F
      -- -- -- -- -- -- -- --  -- -- -- -- -- -- -- --
04C0:       C4 01 01 80 F0 FF  FF 7F FA 82 08 01 1C 02    ..............
04D0: 80 C4 01 01 80 F0 FF FF  7F FA 82 08 01 1C 4C 80  ..............L.
04E0: 1F 00 4D 80 4E 80 4F 80  1F 01 00                 ..M.N.O....     
```

#### Opcodes

```
  0: 0x04C2 [0xC4] SCHEDULE_MAGIC_CASTING_ALT (arg=17): LocalPlayer casts magic 0* on onoB (ID: 17335034/0x010882FA)
  1: 0x04CE [0x1C] WAIT(60* ticks)
  2: 0x04D1 [0xC4] SCHEDULE_MAGIC_CASTING_ALT (arg=17): LocalPlayer casts magic 0* on onoB (ID: 17335034/0x010882FA)
  3: 0x04DD [0x1C] WAIT(100* ticks)
  4: 0x04E0 [0x1F] MOVE_ENTITY: EventEntity moves to X=-329.896*, Z=-181.820*, Y=-40.199*
  5: 0x04E8 [0x1F] MOVE_ENTITY: Update entity position (mode=1)
  6: 0x04EA [0x00] END_REQSTACK()
```

### Event 65535.44

#### Metadata

| Field        | Value    |
|--------------|----------|
| Entrypoint   | 0x04EB   |
| Data Size    | 21 bytes |
| Instructions | 5        |

```
      00 01 02 03 04 05 06 07  08 09 0A 0B 0C 0D 0E 0F
      -- -- -- -- -- -- -- --  -- -- -- -- -- -- -- --
04E0:                                   1F 00 50 80 51             ..P.Q
04F0: 80 52 80 1F 01 6F 4A F0  FF FF 7F 5D 83 08 01 00  .R...oJ....]....
```

#### Opcodes

```
  0: 0x04EB [0x1F] MOVE_ENTITY: EventEntity moves to X=-280.037*, Z=-166.653*, Y=-40.133*
  1: 0x04F3 [0x1F] MOVE_ENTITY: Update entity position (mode=1)
  2: 0x04F5 [0x6F] WAIT_FRAME_DELAY: Yield until WaitTime reaches zero
  3: 0x04F6 [0x4A] LocalPlayer looks at Vestillet (ID: 17335133/0x0108835D)
  4: 0x04FF [0x00] END_REQSTACK()
```

### Event 65535.45

#### Metadata

| Field        | Value    |
|--------------|----------|
| Entrypoint   | 0x0500   |
| Data Size    | 24 bytes |
| Instructions | 4        |

```
      00 01 02 03 04 05 06 07  08 09 0A 0B 0C 0D 0E 0F
      -- -- -- -- -- -- -- --  -- -- -- -- -- -- -- --
0500: 03 00 00 07 7F 1A 9F 00  66 01 00 F8 FF FF 7F F8  ........f.......
0510: FF FF 7F 61 74 70 30 00                           ...atp0.        
```

#### Opcodes

```
  0: 0x0500 [0x03] ExtData[1]->WorkLocal[0] = Entity->Race
  1: 0x0505 [0x1A] CALL_SUBROUTINE(address=0x009F)
  2: 0x0508 [0x66] LOAD_EXT_SCHEDULER_MAIN: Load scheduler "atp0" with entities [EventEntity, EventEntity], work=ExtData[1]->WorkLocal[1]
  3: 0x0517 [0x00] END_REQSTACK()
```

### Event 65535.46

#### Metadata

| Field        | Value    |
|--------------|----------|
| Entrypoint   | 0x0518   |
| Data Size    | 11 bytes |
| Instructions | 3        |

```
      00 01 02 03 04 05 06 07  08 09 0A 0B 0C 0D 0E 0F
      -- -- -- -- -- -- -- --  -- -- -- -- -- -- -- --
0510:                          1F 00 53 80 54 80 55 80          ..S.T.U.
0520: 1F 01 00                                          ...             
```

#### Opcodes

```
  0: 0x0518 [0x1F] MOVE_ENTITY: EventEntity moves to X=-273.859*, Z=-164.241*, Y=-39.922*
  1: 0x0520 [0x1F] MOVE_ENTITY: Update entity position (mode=1)
  2: 0x0522 [0x00] END_REQSTACK()
```

### Event 65535.47

#### Metadata

| Field        | Value    |
|--------------|----------|
| Entrypoint   | 0x0523   |
| Data Size    | 21 bytes |
| Instructions | 5        |

```
      00 01 02 03 04 05 06 07  08 09 0A 0B 0C 0D 0E 0F
      -- -- -- -- -- -- -- --  -- -- -- -- -- -- -- --
0520:          1F 00 56 80 57  80 58 80 1F 01 6F 4A F0     ..V.W.X...oJ.
0530: FF FF 7F 56 83 08 01 00                           ...V....        
```

#### Opcodes

```
  0: 0x0523 [0x1F] MOVE_ENTITY: EventEntity moves to X=-276.350*, Z=-162.330*, Y=-40.000*
  1: 0x052B [0x1F] MOVE_ENTITY: Update entity position (mode=1)
  2: 0x052D [0x6F] WAIT_FRAME_DELAY: Yield until WaitTime reaches zero
  3: 0x052E [0x4A] LocalPlayer looks at Unnamed NPC (ID: 17335126/0x01088356)
  4: 0x0537 [0x00] END_REQSTACK()
```

### Event 65535.48

#### Metadata

| Field        | Value    |
|--------------|----------|
| Entrypoint   | 0x0538   |
| Data Size    | 38 bytes |
| Instructions | 6        |

```
      00 01 02 03 04 05 06 07  08 09 0A 0B 0C 0D 0E 0F
      -- -- -- -- -- -- -- --  -- -- -- -- -- -- -- --
0530:                          C4 01 01 80 F0 FF FF 7F          ........
0540: FA 82 08 01 1C 02 80 C4  01 01 80 F0 FF FF 7F FA  ................
0550: 82 08 01 1C 4C 80 27 10  F0 FF FF 7F 07 00        ....L.'.......  
```

#### Opcodes

```
  0: 0x0538 [0xC4] SCHEDULE_MAGIC_CASTING_ALT (arg=17): LocalPlayer casts magic 0* on onoB (ID: 17335034/0x010882FA)
  1: 0x0544 [0x1C] WAIT(60* ticks)
  2: 0x0547 [0xC4] SCHEDULE_MAGIC_CASTING_ALT (arg=17): LocalPlayer casts magic 0* on onoB (ID: 17335034/0x010882FA)
  3: 0x0553 [0x1C] WAIT(100* ticks)
  4: 0x0556 [0x27] REQ_SET(priority=0x10, entity_id=LocalPlayer, tag_num=0x07)
  5: 0x055D [0x00] END_REQSTACK()
```

### Event 65535.49

#### Metadata

| Field        | Value    |
|--------------|----------|
| Entrypoint   | 0x055E   |
| Data Size    | 12 bytes |
| Instructions | 4        |

```
      00 01 02 03 04 05 06 07  08 09 0A 0B 0C 0D 0E 0F
      -- -- -- -- -- -- -- --  -- -- -- -- -- -- -- --
0550:                                            1F 00                ..
0560: 59 80 5A 80 01 80 1F 01  6F 00                    Y.Z.....o.      
```

#### Opcodes

```
  0: 0x055E [0x1F] MOVE_ENTITY: EventEntity moves to X=81.420*, Z=-361.107*, Y=0.000*
  1: 0x0566 [0x1F] MOVE_ENTITY: Update entity position (mode=1)
  2: 0x0568 [0x6F] WAIT_FRAME_DELAY: Yield until WaitTime reaches zero
  3: 0x0569 [0x00] END_REQSTACK()
```

### Event 65535.50

#### Metadata

| Field        | Value    |
|--------------|----------|
| Entrypoint   | 0x056A   |
| Data Size    | 12 bytes |
| Instructions | 4        |

```
      00 01 02 03 04 05 06 07  08 09 0A 0B 0C 0D 0E 0F
      -- -- -- -- -- -- -- --  -- -- -- -- -- -- -- --
0560:                                1F 00 5B 80 5C 80            ..[.\.
0570: 5D 80 1F 01 6F 00                                 ]...o.          
```

#### Opcodes

```
  0: 0x056A [0x1F] MOVE_ENTITY: EventEntity moves to X=87.743*, Z=-345.327*, Y=0.037*
  1: 0x0572 [0x1F] MOVE_ENTITY: Update entity position (mode=1)
  2: 0x0574 [0x6F] WAIT_FRAME_DELAY: Yield until WaitTime reaches zero
  3: 0x0575 [0x00] END_REQSTACK()
```

### Event 65535.51

#### Metadata

| Field        | Value    |
|--------------|----------|
| Entrypoint   | 0x0576   |
| Data Size    | 12 bytes |
| Instructions | 4        |

```
      00 01 02 03 04 05 06 07  08 09 0A 0B 0C 0D 0E 0F
      -- -- -- -- -- -- -- --  -- -- -- -- -- -- -- --
0570:                   1F 00  5E 80 5F 80 60 80 1F 01        ..^._.`...
0580: 6F 00                                             o.              
```

#### Opcodes

```
  0: 0x0576 [0x1F] MOVE_ENTITY: EventEntity moves to X=143.005*, Z=-162.089*, Y=-19.630*
  1: 0x057E [0x1F] MOVE_ENTITY: Update entity position (mode=1)
  2: 0x0580 [0x6F] WAIT_FRAME_DELAY: Yield until WaitTime reaches zero
  3: 0x0581 [0x00] END_REQSTACK()
```

### Event 65535.52

#### Metadata

| Field        | Value    |
|--------------|----------|
| Entrypoint   | 0x0582   |
| Data Size    | 15 bytes |
| Instructions | 5        |

```
      00 01 02 03 04 05 06 07  08 09 0A 0B 0C 0D 0E 0F
      -- -- -- -- -- -- -- --  -- -- -- -- -- -- -- --
0580:       32 19 80 1F 00 61  80 62 80 63 80 1F 01 6F    2....a.b.c...o
0590: 00                                                .               
```

#### Opcodes

```
  0: 0x0582 [0x32] ExtData[1]->MainSpeed = 40* * 0.1
  1: 0x0585 [0x1F] MOVE_ENTITY: EventEntity moves to X=59.643*, Z=-479.210*, Y=0.271*
  2: 0x058D [0x1F] MOVE_ENTITY: Update entity position (mode=1)
  3: 0x058F [0x6F] WAIT_FRAME_DELAY: Yield until WaitTime reaches zero
  4: 0x0590 [0x00] END_REQSTACK()
```

### Event 65535.53

#### Metadata

| Field        | Value    |
|--------------|----------|
| Entrypoint   | 0x0591   |
| Data Size    | 19 bytes |
| Instructions | 5        |

```
      00 01 02 03 04 05 06 07  08 09 0A 0B 0C 0D 0E 0F
      -- -- -- -- -- -- -- --  -- -- -- -- -- -- -- --
0590:    32 19 80 1F 00 64 80  65 80 66 80 1F 01 1E 54   2....d.e.f....T
05A0: 83 08 01 00                                       ....            
```

#### Opcodes

```
  0: 0x0591 [0x32] ExtData[1]->MainSpeed = 40* * 0.1
  1: 0x0594 [0x1F] MOVE_ENTITY: EventEntity moves to X=61.659*, Z=-472.499*, Y=0.173*
  2: 0x059C [0x1F] MOVE_ENTITY: Update entity position (mode=1)
  3: 0x059E [0x1E] EventEntity looks at Lilisette (ID: 17335124/0x01088354) and starts talking
  4: 0x05A3 [0x00] END_REQSTACK()
```

### Event 65535.54

#### Metadata

| Field        | Value    |
|--------------|----------|
| Entrypoint   | 0x05A4   |
| Data Size    | 15 bytes |
| Instructions | 5        |

```
      00 01 02 03 04 05 06 07  08 09 0A 0B 0C 0D 0E 0F
      -- -- -- -- -- -- -- --  -- -- -- -- -- -- -- --
05A0:             32 21 80 1F  00 67 80 68 80 69 80 1F      2!...g.h.i..
05B0: 01 6F 00                                          .o.             
```

#### Opcodes

```
  0: 0x05A4 [0x32] ExtData[1]->MainSpeed = 13* * 0.1
  1: 0x05A7 [0x1F] MOVE_ENTITY: EventEntity moves to X=61.639*, Z=-469.959*, Y=0.019*
  2: 0x05AF [0x1F] MOVE_ENTITY: Update entity position (mode=1)
  3: 0x05B1 [0x6F] WAIT_FRAME_DELAY: Yield until WaitTime reaches zero
  4: 0x05B2 [0x00] END_REQSTACK()
```

### Event 65535.55

#### Metadata

| Field        | Value    |
|--------------|----------|
| Entrypoint   | 0x05B3   |
| Data Size    | 25 bytes |
| Instructions | 7        |

```
      00 01 02 03 04 05 06 07  08 09 0A 0B 0C 0D 0E 0F
      -- -- -- -- -- -- -- --  -- -- -- -- -- -- -- --
05B0:          32 21 80 1F 00  6A 80 6B 80 6C 80 1F 01     2!...j.k.l...
05C0: 1F 00 6D 80 6E 80 6F 80  1F 01 6F 00              ..m.n.o...o.    
```

#### Opcodes

```
  0: 0x05B3 [0x32] ExtData[1]->MainSpeed = 13* * 0.1
  1: 0x05B6 [0x1F] MOVE_ENTITY: EventEntity moves to X=61.331*, Z=-459.513*, Y=-0.140*
  2: 0x05BE [0x1F] MOVE_ENTITY: Update entity position (mode=1)
  3: 0x05C0 [0x1F] MOVE_ENTITY: EventEntity moves to X=59.755*, Z=-449.924*, Y=-0.196*
  4: 0x05C8 [0x1F] MOVE_ENTITY: Update entity position (mode=1)
  5: 0x05CA [0x6F] WAIT_FRAME_DELAY: Yield until WaitTime reaches zero
  6: 0x05CB [0x00] END_REQSTACK()
```

### Event 65535.56

#### Metadata

| Field        | Value    |
|--------------|----------|
| Entrypoint   | 0x05CC   |
| Data Size    | 24 bytes |
| Instructions | 4        |

```
      00 01 02 03 04 05 06 07  08 09 0A 0B 0C 0D 0E 0F
      -- -- -- -- -- -- -- --  -- -- -- -- -- -- -- --
05C0:                                      03 00 00 07              ....
05D0: 7F 1A 9F 00 66 01 00 F8  FF FF 7F F8 FF FF 7F 65  ....f..........e
05E0: 63 30 31 00                                       c01.            
```

#### Opcodes

```
  0: 0x05CC [0x03] ExtData[1]->WorkLocal[0] = Entity->Race
  1: 0x05D1 [0x1A] CALL_SUBROUTINE(address=0x009F)
  2: 0x05D4 [0x66] LOAD_EXT_SCHEDULER_MAIN: Load scheduler "ec01" with entities [EventEntity, EventEntity], work=ExtData[1]->WorkLocal[1]
  3: 0x05E3 [0x00] END_REQSTACK()
```

### Event 65535.57

#### Metadata

| Field        | Value    |
|--------------|----------|
| Entrypoint   | 0x05E4   |
| Data Size    | 24 bytes |
| Instructions | 4        |

```
      00 01 02 03 04 05 06 07  08 09 0A 0B 0C 0D 0E 0F
      -- -- -- -- -- -- -- --  -- -- -- -- -- -- -- --
05E0:             03 00 00 07  7F 1A 9F 00 66 01 00 F8      ........f...
05F0: FF FF 7F F8 FF FF 7F 63  6F 72 70 00              .......corp.    
```

#### Opcodes

```
  0: 0x05E4 [0x03] ExtData[1]->WorkLocal[0] = Entity->Race
  1: 0x05E9 [0x1A] CALL_SUBROUTINE(address=0x009F)
  2: 0x05EC [0x66] LOAD_EXT_SCHEDULER_MAIN: Load scheduler "corp" with entities [EventEntity, EventEntity], work=ExtData[1]->WorkLocal[1]
  3: 0x05FB [0x00] END_REQSTACK()
```

### Event 65535.58

#### Metadata

| Field        | Value    |
|--------------|----------|
| Entrypoint   | 0x05FC   |
| Data Size    | 10 bytes |
| Instructions | 2        |

```
      00 01 02 03 04 05 06 07  08 09 0A 0B 0C 0D 0E 0F
      -- -- -- -- -- -- -- --  -- -- -- -- -- -- -- --
05F0:                                      6C F0 FF FF              l...
0600: 7F 03 80 00 80 00                                 ......          
```

#### Opcodes

```
  0: 0x05FC [0x6C] FADE_ENTITY_COLOR(entity_id=LocalPlayer, end_alpha=128*, fade_time=1*)
  1: 0x0605 [0x00] END_REQSTACK()
```

### Event 65535.59

#### Metadata

| Field        | Value    |
|--------------|----------|
| Entrypoint   | 0x0606   |
| Data Size    | 10 bytes |
| Instructions | 2        |

```
      00 01 02 03 04 05 06 07  08 09 0A 0B 0C 0D 0E 0F
      -- -- -- -- -- -- -- --  -- -- -- -- -- -- -- --
0600:                   6C F0  FF FF 7F 01 80 00 80 00        l.........
```

#### Opcodes

```
  0: 0x0606 [0x6C] FADE_ENTITY_COLOR(entity_id=LocalPlayer, end_alpha=0*, fade_time=1*)
  1: 0x060F [0x00] END_REQSTACK()
```

### Event 65535.60

#### Metadata

| Field        | Value    |
|--------------|----------|
| Entrypoint   | 0x0610   |
| Data Size    | 17 bytes |
| Instructions | 5        |

```
      00 01 02 03 04 05 06 07  08 09 0A 0B 0C 0D 0E 0F
      -- -- -- -- -- -- -- --  -- -- -- -- -- -- -- --
0610: 32 21 80 1F 00 70 80 71  80 72 80 1F 01 32 19 80  2!...p.q.r...2..
0620: 00                                                .               
```

#### Opcodes

```
  0: 0x0610 [0x32] ExtData[1]->MainSpeed = 13* * 0.1
  1: 0x0613 [0x1F] MOVE_ENTITY: EventEntity moves to X=59.034*, Z=-484.981*, Y=0.225*
  2: 0x061B [0x1F] MOVE_ENTITY: Update entity position (mode=1)
  3: 0x061D [0x32] ExtData[1]->MainSpeed = 40* * 0.1
  4: 0x0620 [0x00] END_REQSTACK()
```

### Event 65535.61

#### Metadata

| Field        | Value    |
|--------------|----------|
| Entrypoint   | 0x0621   |
| Data Size    | 24 bytes |
| Instructions | 5        |

```
      00 01 02 03 04 05 06 07  08 09 0A 0B 0C 0D 0E 0F
      -- -- -- -- -- -- -- --  -- -- -- -- -- -- -- --
0620:    79 00 F8 FF FF 7F 3D  83 08 01 32 73 80 1F 00   y.....=...2s...
0630: 74 80 75 80 76 80 1F 01  00                       t.u.v....       
```

#### Opcodes

```
  0: 0x0621 [0x79] EventEntity looks at Excenmille (ID: 17335101/0x0108833D) (Basic look)
  1: 0x062B [0x32] ExtData[1]->MainSpeed = 12* * 0.1
  2: 0x062E [0x1F] MOVE_ENTITY: EventEntity moves to X=111.103*, Z=125.882*, Y=-19.851*
  3: 0x0636 [0x1F] MOVE_ENTITY: Update entity position (mode=1)
  4: 0x0638 [0x00] END_REQSTACK()
```

### Event 65535.62

#### Metadata

| Field        | Value    |
|--------------|----------|
| Entrypoint   | 0x0639   |
| Data Size    | 29 bytes |
| Instructions | 7        |

```
      00 01 02 03 04 05 06 07  08 09 0A 0B 0C 0D 0E 0F
      -- -- -- -- -- -- -- --  -- -- -- -- -- -- -- --
0630:                             6E F0 FF FF 7F 0C 80           n......
0640: 99 F0 FF FF 7F 1C 77 80  32 73 80 1F 00 78 80 79  ......w.2s...x.y
0650: 80 7A 80 1F 01 00                                 .z....          
```

#### Opcodes

```
  0: 0x0639 [0x6E] LocalPlayer uses emote 7*
  1: 0x0640 [0x99] Wait for LocalPlayer animation to complete
  2: 0x0645 [0x1C] WAIT(90* ticks)
  3: 0x0648 [0x32] ExtData[1]->MainSpeed = 12* * 0.1
  4: 0x064B [0x1F] MOVE_ENTITY: EventEntity moves to X=112.905*, Z=128.812*, Y=-19.995*
  5: 0x0653 [0x1F] MOVE_ENTITY: Update entity position (mode=1)
  6: 0x0655 [0x00] END_REQSTACK()
```

### Event 65535.63

#### Metadata

| Field        | Value    |
|--------------|----------|
| Entrypoint   | 0x0656   |
| Data Size    | 15 bytes |
| Instructions | 5        |

```
      00 01 02 03 04 05 06 07  08 09 0A 0B 0C 0D 0E 0F
      -- -- -- -- -- -- -- --  -- -- -- -- -- -- -- --
0650:                   32 21  80 1F 00 7B 80 7C 80 01        2!...{.|..
0660: 80 1F 01 6F 00                                    ...o.           
```

#### Opcodes

```
  0: 0x0656 [0x32] ExtData[1]->MainSpeed = 13* * 0.1
  1: 0x0659 [0x1F] MOVE_ENTITY: EventEntity moves to X=42.834*, Z=-324.220*, Y=0.000*
  2: 0x0661 [0x1F] MOVE_ENTITY: Update entity position (mode=1)
  3: 0x0663 [0x6F] WAIT_FRAME_DELAY: Yield until WaitTime reaches zero
  4: 0x0664 [0x00] END_REQSTACK()
```

### Event 65535.64

#### Metadata

| Field        | Value    |
|--------------|----------|
| Entrypoint   | 0x0665   |
| Data Size    | 11 bytes |
| Instructions | 3        |

```
      00 01 02 03 04 05 06 07  08 09 0A 0B 0C 0D 0E 0F
      -- -- -- -- -- -- -- --  -- -- -- -- -- -- -- --
0660:                1F 00 7D  80 7E 80 7F 80 1F 01 00       ..}.~......
```

#### Opcodes

```
  0: 0x0665 [0x1F] MOVE_ENTITY: EventEntity moves to X=41.750*, Z=-346.375*, Y=0.557*
  1: 0x066D [0x1F] MOVE_ENTITY: Update entity position (mode=1)
  2: 0x066F [0x00] END_REQSTACK()
```

### Event 65535.65

#### Metadata

| Field        | Value   |
|--------------|---------|
| Entrypoint   | 0x0670  |
| Data Size    | 4 bytes |
| Instructions | 2       |

```
      00 01 02 03 04 05 06 07  08 09 0A 0B 0C 0D 0E 0F
      -- -- -- -- -- -- -- --  -- -- -- -- -- -- -- --
0670: 1C 02 10 00                                       ....            
```

#### Opcodes

```
  0: 0x0670 [0x1C] WAIT(Work_Zone[2] ticks)
  1: 0x0673 [0x00] END_REQSTACK()
```

### Event 65535.66

#### Metadata

| Field        | Value    |
|--------------|----------|
| Entrypoint   | 0x0674   |
| Data Size    | 10 bytes |
| Instructions | 2        |

```
      00 01 02 03 04 05 06 07  08 09 0A 0B 0C 0D 0E 0F
      -- -- -- -- -- -- -- --  -- -- -- -- -- -- -- --
0670:             6C 36 83 08  01 01 80 00 80 00            l6........  
```

#### Opcodes

```
  0: 0x0674 [0x6C] FADE_ENTITY_COLOR(entity_id=Gissenne (ID: 17335094/0x01088336), end_alpha=0*, fade_time=1*)
  1: 0x067D [0x00] END_REQSTACK()
```

### Event 65535.67

#### Metadata

| Field        | Value    |
|--------------|----------|
| Entrypoint   | 0x067E   |
| Data Size    | 10 bytes |
| Instructions | 2        |

```
      00 01 02 03 04 05 06 07  08 09 0A 0B 0C 0D 0E 0F
      -- -- -- -- -- -- -- --  -- -- -- -- -- -- -- --
0670:                                            6C 36                l6
0680: 83 08 01 03 80 00 80 00                           ........        
```

#### Opcodes

```
  0: 0x067E [0x6C] FADE_ENTITY_COLOR(entity_id=Gissenne (ID: 17335094/0x01088336), end_alpha=128*, fade_time=1*)
  1: 0x0687 [0x00] END_REQSTACK()
```

### Event 65535.68

#### Metadata

| Field        | Value    |
|--------------|----------|
| Entrypoint   | 0x0688   |
| Data Size    | 13 bytes |
| Instructions | 3        |

```
      00 01 02 03 04 05 06 07  08 09 0A 0B 0C 0D 0E 0F
      -- -- -- -- -- -- -- --  -- -- -- -- -- -- -- --
0680:                          6E F0 FF FF 7F 80 80 99          n.......
0690: F0 FF FF 7F 00                                    .....           
```

#### Opcodes

```
  0: 0x0688 [0x6E] LocalPlayer uses emote 43*
  1: 0x068F [0x99] Wait for LocalPlayer animation to complete
  2: 0x0694 [0x00] END_REQSTACK()
```

### Event 15

#### Metadata

| Field        | Value   |
|--------------|---------|
| Entrypoint   | 0x0695  |
| Data Size    | 1 bytes |
| Instructions | 1       |

```
      00 01 02 03 04 05 06 07  08 09 0A 0B 0C 0D 0E 0F
      -- -- -- -- -- -- -- --  -- -- -- -- -- -- -- --
0690:                00                                      .          
```

#### Opcodes

```
  0: 0x0695 [0x00] END_REQSTACK()
```

### Event 65535.69

#### Metadata

| Field        | Value    |
|--------------|----------|
| Entrypoint   | 0x0696   |
| Data Size    | 11 bytes |
| Instructions | 3        |

```
      00 01 02 03 04 05 06 07  08 09 0A 0B 0C 0D 0E 0F
      -- -- -- -- -- -- -- --  -- -- -- -- -- -- -- --
0690:                   5E 69  64 6C 30 7B F8 FF FF 7F        ^idl0{....
06A0: 00                                                .               
```

#### Opcodes

```
  0: 0x0696 [0x5E] EventEntity goes idle (kills current action) (animation: "idl0")
  1: 0x069B [0x7B] EventEntity stops talking
  2: 0x06A0 [0x00] END_REQSTACK()
```

### Event 65535.70

#### Metadata

| Field        | Value    |
|--------------|----------|
| Entrypoint   | 0x06A1   |
| Data Size    | 13 bytes |
| Instructions | 3        |

```
      00 01 02 03 04 05 06 07  08 09 0A 0B 0C 0D 0E 0F
      -- -- -- -- -- -- -- --  -- -- -- -- -- -- -- --
06A0:    6E F8 FF FF 7F 45 80  99 F8 FF FF 7F 00         n....E.......  
```

#### Opcodes

```
  0: 0x06A1 [0x6E] EventEntity uses emote 21*
  1: 0x06A8 [0x99] Wait for EventEntity animation to complete
  2: 0x06AD [0x00] END_REQSTACK()
```

### Event 65535.71

#### Metadata

| Field        | Value    |
|--------------|----------|
| Entrypoint   | 0x06AE   |
| Data Size    | 10 bytes |
| Instructions | 2        |

```
      00 01 02 03 04 05 06 07  08 09 0A 0B 0C 0D 0E 0F
      -- -- -- -- -- -- -- --  -- -- -- -- -- -- -- --
06A0:                                            4A F0                J.
06B0: FF FF 7F 56 83 08 01 00                           ...V....        
```

#### Opcodes

```
  0: 0x06AE [0x4A] LocalPlayer looks at Unnamed NPC (ID: 17335126/0x01088356)
  1: 0x06B7 [0x00] END_REQSTACK()
```

### Event 65535.72

#### Metadata

| Field        | Value    |
|--------------|----------|
| Entrypoint   | 0x06B8   |
| Data Size    | 14 bytes |
| Instructions | 4        |

```
      00 01 02 03 04 05 06 07  08 09 0A 0B 0C 0D 0E 0F
      -- -- -- -- -- -- -- --  -- -- -- -- -- -- -- --
06B0:                          32 21 80 1F 00 81 80 82          2!......
06C0: 80 83 80 1F 01 00                                 ......          
```

#### Opcodes

```
  0: 0x06B8 [0x32] ExtData[1]->MainSpeed = 13* * 0.1
  1: 0x06BB [0x1F] MOVE_ENTITY: EventEntity moves to X=6.450*, Z=-205.816*, Y=-39.735*
  2: 0x06C3 [0x1F] MOVE_ENTITY: Update entity position (mode=1)
  3: 0x06C5 [0x00] END_REQSTACK()
```

### Event 65535.73

#### Metadata

| Field        | Value    |
|--------------|----------|
| Entrypoint   | 0x06C6   |
| Data Size    | 29 bytes |
| Instructions | 5        |

```
      00 01 02 03 04 05 06 07  08 09 0A 0B 0C 0D 0E 0F
      -- -- -- -- -- -- -- --  -- -- -- -- -- -- -- --
06C0:                   03 00  00 07 7F 1A 9F 00 07 01        ..........
06D0: 00 00 80 66 01 00 F8 FF  FF 7F F8 FF FF 7F 69 6E  ...f..........in
06E0: 75 30 00                                          u0.             
```

#### Opcodes

```
  0: 0x06C6 [0x03] ExtData[1]->WorkLocal[0] = Entity->Race
  1: 0x06CB [0x1A] CALL_SUBROUTINE(address=0x009F)
  2: 0x06CE [0x07] ExtData[1]->WorkLocal[1] += 1*
  3: 0x06D3 [0x66] LOAD_EXT_SCHEDULER_MAIN: Load scheduler "inu0" with entities [EventEntity, EventEntity], work=ExtData[1]->WorkLocal[1]
  4: 0x06E2 [0x00] END_REQSTACK()
```

### Event 65535.74

#### Metadata

| Field        | Value   |
|--------------|---------|
| Entrypoint   | 0x06E3  |
| Data Size    | 4 bytes |
| Instructions | 2       |

```
      00 01 02 03 04 05 06 07  08 09 0A 0B 0C 0D 0E 0F
      -- -- -- -- -- -- -- --  -- -- -- -- -- -- -- --
06E0:          1C 02 10 00                                 ....         
```

#### Opcodes

```
  0: 0x06E3 [0x1C] WAIT(Work_Zone[2] ticks)
  1: 0x06E6 [0x00] END_REQSTACK()
```

### Event 65535.75

#### Metadata

| Field        | Value    |
|--------------|----------|
| Entrypoint   | 0x06E7   |
| Data Size    | 38 bytes |
| Instructions | 4        |

```
      00 01 02 03 04 05 06 07  08 09 0A 0B 0C 0D 0E 0F
      -- -- -- -- -- -- -- --  -- -- -- -- -- -- -- --
06E0:                      9F  84 80 F8 FF FF 7F F8 FF         .........
06F0: FF 7F 73 74 72 30 01 80  1C 02 10 9F 84 80 F8 FF  ..str0..........
0700: FF 7F F8 FF FF 7F 6B 69  6C 6C 01 80 00           ......kill...   
```

#### Opcodes

```
  0: 0x06E7 [0x9F] LOAD_SCHEDULED_TASK_ALT: Load scheduler "str0" with entities [EventEntity, EventEntity], work=[127*, 0*]
  1: 0x06F8 [0x1C] WAIT(Work_Zone[2] ticks)
  2: 0x06FB [0x9F] LOAD_SCHEDULED_TASK_ALT: Load scheduler "kill" with entities [EventEntity, EventEntity], work=[127*, 0*]
  3: 0x070C [0x00] END_REQSTACK()
```

### Event 22

#### Metadata

| Field        | Value     |
|--------------|-----------|
| Entrypoint   | 0x070D    |
| Data Size    | 107 bytes |
| Instructions | 16        |

```
      00 01 02 03 04 05 06 07  08 09 0A 0B 0C 0D 0E 0F
      -- -- -- -- -- -- -- --  -- -- -- -- -- -- -- --
0700:                                         42 48 85               BH.
0710: 80 45 86 80 F0 FF FF 7F  F0 FF FF 7F 66 64 6F 31  .E..........fdo1
0720: 01 80 02 03 10 01 80 00  3E 07 62 00 80 F0 FF FF  ........>.b.....
0730: 7F F0 FF FF 7F 6D 61 69  6E 01 80 1C 77 80 1C 02  .....main...w...
0740: 80 83 1E 17 AA 1E 17 1E  17 1E 17 1E 17 1E 17 1F  ................
0750: 17 1E 17 1E 17 03 02 00  01 80 03 02 00 05 80 77  ...............w
0760: 1F 17 02 00 78 45 10 80  F0 FF FF 7F F0 FF FF 7F  ....xE..........
0770: 77 68 69 31 01 80 21 00                           whi1..!.        
```

#### Opcodes

```
  0: 0x070D [0x42] SET_CLI_EVENT_CANCEL_DATA()
  1: 0x070E [0x48] [System] [8612*]:
     "The order has been given by your party leader to enter [Everbloom Hollow/the Ruhotz Silvermines/Ghoyu's Reverie]."
  2: 0x0711 [0x45] LOAD_SCHEDULED_TASK: Load scheduler "fdo1" with entities [LocalPlayer, LocalPlayer], work=[200*, 0*]
  3: 0x0722 [0x02] IF !(Work_Zone[3] == 0*) GOTO 0x073E
  4: 0x072A [0x62] LOAD_EVENT_SCHEDULER: Load scheduler "main" with entities [LocalPlayer, LocalPlayer], work=[1*, 0*]
  5: 0x073B [0x1C] WAIT(90* ticks)
  6: 0x073E [0x1C] WAIT(60* ticks)
  7: 0x0741 [0x83] Work_Zone_1700[30] = GetGameTime()
  8: 0x0744 [0xAA] VANA_DIEL_TIMESTAMP_CONVERTER(timestamp=Work_Zone_1700[30], year=Work_Zone_1700[30], month=Work_Zone_1700[30], day=Work_Zone_1700[30], weekday=Work_Zone_1700[30], hour=Work_Zone_1700[31], minute=Work_Zone_1700[30], moon=Work_Zone_1700[30])
  9: 0x0755 [0x03] ExtData[1]->WorkLocal[2] = 0*
 10: 0x075A [0x03] ExtData[1]->WorkLocal[2] = 2*
 11: 0x075F [0x77] SET_EVENT_TIME_WEATHER(hour=Work_Zone_1700[31], weather=ExtData[1]->WorkLocal[2])
 12: 0x0764 [0x78] ENABLE_GAME_TIMER_RESET_WEATHER()
 13: 0x0765 [0x45] LOAD_SCHEDULED_TASK: Load scheduler "whi1" with entities [LocalPlayer, LocalPlayer], work=[201*, 0*]
 14: 0x0776 [0x21] END_EVENT
 15: 0x0777 [0x00] END_REQSTACK()
```
