# Event 120

## Metadata

| Field           | Value    |
|-----------------|----------|
| Event Index     | 4/18     |
| Offset          | 0x0012   |
| Data Size       | 19 bytes |
| Calculated Size | 19 bytes |
| Instructions    | 9        |

```
      00 01 02 03 04 05 06 07  08 09 0A 0B 0C 0D 0E 0F
      -- -- -- -- -- -- -- --  -- -- -- -- -- -- -- --
0010:       1E F0 FF FF 7F 1D  02 80 23 1D 03 80 23 1D    ........#...#.
0020: 04 80 23 21 00                                    ..#!.           
```

## Opcodes

```
  0: 0x0012 [0x1E] EventEntity looks at LocalPlayer and starts talking
  1: 0x0017 [0x1D] PRINT_EVENT_MESSAGE(message_id=7386*)
    → "Me, a pickpocket? Is this the way of adventurers today, chasing down and accusing ladies of crimes? And without proof, I might add!\u007F1\u0000 \u0007"
  2: 0x001A [0x23] WAIT_FOR_DIALOG_INTERACTION
  3: 0x001B [0x1D] PRINT_EVENT_MESSAGE(message_id=7387*)
    → "Just who do you think you are? Look, let's just forget this little meeting ever happened. Good day!\u007F1\u0000\u0007"
  4: 0x001E [0x23] WAIT_FOR_DIALOG_INTERACTION
  5: 0x001F [0x1D] PRINT_EVENT_MESSAGE(message_id=7388*)
    → "What!? If you insist on playing the sheriff, I suggest you bring evidence!\u007F1\u0000\u0007"
  6: 0x0022 [0x23] WAIT_FOR_DIALOG_INTERACTION
  7: 0x0023 [0x21] END_EVENT
  8: 0x0024 [0x00] END_REQSTACK()
```
