# Event 121

## Metadata

| Field           | Value    |
|-----------------|----------|
| Event Index     | 5/18     |
| Offset          | 0x0025   |
| Data Size       | 35 bytes |
| Calculated Size | 35 bytes |
| Instructions    | 14       |

```
      00 01 02 03 04 05 06 07  08 09 0A 0B 0C 0D 0E 0F
      -- -- -- -- -- -- -- --  -- -- -- -- -- -- -- --
0020:                42 20 01  1E F0 FF FF 7F 03 02 10       B .........
0030: 05 80 1D 06 80 23 1C 07  80 1D 08 80 23 03 03 10  .....#......#...
0040: 09 80 1D 0A 80 23 21 00                           .....#!.        
```

## Opcodes

```
  0: 0x0025 [0x42] SET_CLI_EVENT_CANCEL_DATA()
  1: 0x0026 [0x20] SET_CLI_EVENT_UC_FLAG: Lock player control
  2: 0x0028 [0x1E] EventEntity looks at LocalPlayer and starts talking
  3: 0x002D [0x03] Work_Zone[2] = 578*
  4: 0x0032 [0x1D] PRINT_EVENT_MESSAGE(message_id=7389*)
    → "What's that? Say, that \u0001\u0005#\u0002\u0000\u0000\u0000, that's mine! I must have dropped it when I ran into you at the dock...\u007F1\u0000\u0007"
  5: 0x0035 [0x23] WAIT_FOR_DIALOG_INTERACTION
  6: 0x0036 [0x1C] WAIT(60* ticks)
  7: 0x0039 [0x1D] PRINT_EVENT_MESSAGE(message_id=7390*)
    → "Whoops, I've gone and said it now.\u007F1\u0000\u0007"
  8: 0x003C [0x23] WAIT_FOR_DIALOG_INTERACTION
  9: 0x003D [0x03] Work_Zone[3] = 579*
 10: 0x0042 [0x1D] PRINT_EVENT_MESSAGE(message_id=7391*)
    → "Fine. Here's those worthless \u0001\u0005#\u0002\u0001\u0000\u0000 back. Satisfied? Good. Now off with you!\u007F1\u0000\u0007"
 11: 0x0045 [0x23] WAIT_FOR_DIALOG_INTERACTION
 12: 0x0046 [0x21] END_EVENT
 13: 0x0047 [0x00] END_REQSTACK()
```
