# Event 65535

## Metadata

| Field           | Value    |
|-----------------|----------|
| Event Index     | 10/11    |
| Offset          | 0x0037   |
| Data Size       | 58 bytes |
| Calculated Size | 58 bytes |
| Instructions    | 9        |

```
      00 01 02 03 04 05 06 07  08 09 0A 0B 0C 0D 0E 0F
      -- -- -- -- -- -- -- --  -- -- -- -- -- -- -- --
0030:                      66  08 80 0D D0 0E 01 0D D0         f........
0040: 0E 01 73 6C 30 30 7B F8  FF FF 7F 53 0D D0 0E 01  ..sl00{....S....
0050: 0D D0 0E 01 73 6C 30 30  32 09 80 1F 00 0A 80 0B  ....sl002.......
0060: 80 0C 80 1F 01 6F 79 00  F8 FF FF 7F F0 FF FF 7F  .....oy.........
0070: 00                                                .               
```

## Opcodes

```
  0: 0x0037 [0x66] LOAD_EXT_SCHEDULER_MAIN: Load scheduler "sl00" with entities [Riault (ID: 17747981/0x010ED00D), Riault (ID: 17747981/0x010ED00D)], work=21*
  1: 0x0046 [0x7B] EventEntity stops talking
  2: 0x004B [0x53] WAIT_SCHEDULER_TASK: Wait for scheduler "sl00" with entities [Riault (ID: 17747981/0x010ED00D), Riault (ID: 17747981/0x010ED00D)]
  3: 0x0058 [0x32] ExtData[1]->MainSpeed = 13* * 0.1
  4: 0x005B [0x1F] MOVE_ENTITY: EventEntity moves to X=26.263*, Z=-40.766*, Y=-16.407*
  5: 0x0063 [0x1F] MOVE_ENTITY: Update entity position (mode=1)
  6: 0x0065 [0x6F] WAIT_FRAME_DELAY: Yield until WaitTime reaches zero
  7: 0x0066 [0x79] EventEntity looks at LocalPlayer (Basic look)
  8: 0x0070 [0x00] END_REQSTACK()
```
