# 17399828 - DIRECTOR

## Common Data

| Field            | Value                |
|------------------|----------------------|
| Zone             | Altar Room (ID: 152) |
| Block Size       | 392 bytes            |
| Total Events     | 12                   |
| References Count | 20                   |

## List of Events

| Event ID                 | Entrypoint   |   Size |   Instructions |
|--------------------------|--------------|--------|----------------|
| [65535](#event-65535)    | 0x0000       |      1 |              1 |
| [2](#event-2)            | 0x0001       |      1 |              1 |
| [1](#event-1)            | 0x0002       |     70 |             15 |
| [65535.1](#event-655351) | 0x0048       |     48 |             11 |
| [65535.2](#event-655352) | 0x0078       |     46 |             11 |
| [65535.3](#event-655353) | 0x00A6       |     39 |             10 |
| [65535.4](#event-655354) | 0x00CD       |      9 |              4 |
| [65535.5](#event-655355) | 0x00D6       |      1 |              1 |
| [44](#event-44)          | 0x00D7       |      1 |              1 |
| [65535.6](#event-655356) | 0x00D8       |     10 |              2 |
| [65535.7](#event-655357) | 0x00E2       |     10 |              2 |
| [65535.8](#event-655358) | 0x00EC       |     10 |              2 |

## DAT References (imed_data)

|   Index | Hex Value   |   Dec Value |
|---------|-------------|-------------|
|       0 | 0x1BB2      |        7090 |
|       1 | 0x0000      |           0 |
|       2 | 0x0001      |           1 |
|       3 | 0x0002      |           2 |
|       4 | 0x0003      |           3 |
|       5 | 0x1BB5      |        7093 |
|       6 | 0x1BB3      |        7091 |
|       7 | 0x000B      |          11 |
|       8 | 0x1BB4      |        7092 |
|       9 | 0x0064      |         100 |
|      10 | 0xFFFE5EBA  |  4294860474 |
|      11 | 0x15D5B     |       89435 |
|      12 | 0xFFFEE6C0  |  4294895296 |
|      13 | 0x0C8E      |        3214 |
|      14 | 0xFFFE45BE  |  4294854078 |
|      15 | 0x17B96     |       97174 |
|      16 | 0x0FAF      |        4015 |
|      17 | 0xFFFE6EAF  |  4294864559 |
|      18 | 0x19447     |      103495 |
|      19 | 0x03C0      |         960 |

## String References

- **7090**: What now? [(Empty)/Event/(Empty)/Warp/Went out of Zone/Flag Reset]
- **7091**: Which event? [fs001:/Been out of zone at least once./Reset quest flags only.]
- **7092**: Well, then. [OK/Reset quest flags only.]
- **7093**: Warp where? [Magicite/???]

## Events

### Event 65535

#### Metadata

| Field        | Value   |
|--------------|---------|
| Entrypoint   | 0x0000  |
| Data Size    | 1 bytes |
| Instructions | 1       |

```
      00 01 02 03 04 05 06 07  08 09 0A 0B 0C 0D 0E 0F
      -- -- -- -- -- -- -- --  -- -- -- -- -- -- -- --
0000: 00                                                .               
```

#### Opcodes

```
  0: 0x0000 [0x00] END_REQSTACK()
```

### Event 2

#### Metadata

| Field        | Value   |
|--------------|---------|
| Entrypoint   | 0x0001  |
| Data Size    | 1 bytes |
| Instructions | 1       |

```
      00 01 02 03 04 05 06 07  08 09 0A 0B 0C 0D 0E 0F
      -- -- -- -- -- -- -- --  -- -- -- -- -- -- -- --
0000:    00                                              .              
```

#### Opcodes

```
  0: 0x0001 [0x00] END_REQSTACK()
```

### Event 1

#### Metadata

| Field        | Value    |
|--------------|----------|
| Entrypoint   | 0x0002   |
| Data Size    | 70 bytes |
| Instructions | 15       |

```
      00 01 02 03 04 05 06 07  08 09 0A 0B 0C 0D 0E 0F
      -- -- -- -- -- -- -- --  -- -- -- -- -- -- -- --
0000:       24 00 80 01 80 01  80 25 02 00 10 01 80 00    $......%......
0010: 15 00 01 44 00 02 00 10  02 80 00 27 00 29 0D 14  ...D.......'.)..
0020: 80 09 01 04 01 44 00 02  00 10 03 80 00 32 00 01  .....D.......2..
0030: 44 00 02 00 10 04 80 00  44 00 29 0D 14 80 09 01  D.......D.).....
0040: 03 01 44 00 20 00 21 00                           ..D. .!.        
```

#### Opcodes

```
  0: 0x0002 [0x24] CREATE_DIALOG(message_id=7090*, default_option=0*, option_flags=0*)
    → "What now? [(Empty)/Event/(Empty)/Warp/Went out of Zone/Flag Reset]"
  1: 0x0009 [0x25] WAIT_DIALOG_SELECT()
  2: 0x000A [0x02] IF !(Work_Zone[0] == 0*) GOTO 0x0015
  3: 0x0012 [0x01] GOTO 0x0044
  4: 0x0015 [0x02] IF !(Work_Zone[0] == 1*) GOTO 0x0027
  5: 0x001D [0x29] REQ_SET_WAIT(priority=0x0D, entity_id=DIRECTOR (ID: 17399828/0x01098014), tag_num=0x04)
  6: 0x0024 [0x01] GOTO 0x0044
  7: 0x0027 [0x02] IF !(Work_Zone[0] == 2*) GOTO 0x0032
  8: 0x002F [0x01] GOTO 0x0044
  9: 0x0032 [0x02] IF !(Work_Zone[0] == 3*) GOTO 0x0044
 10: 0x003A [0x29] REQ_SET_WAIT(priority=0x0D, entity_id=DIRECTOR (ID: 17399828/0x01098014), tag_num=0x03)
 11: 0x0041 [0x01] GOTO 0x0044

SUBROUTINE_0044:
 12: 0x0044 [0x20] SET_CLI_EVENT_UC_FLAG: Unlock player control
 13: 0x0046 [0x21] END_EVENT
 14: 0x0047 [0x00] END_REQSTACK()
```

### Event 65535.1

#### Metadata

| Field        | Value    |
|--------------|----------|
| Entrypoint   | 0x0048   |
| Data Size    | 48 bytes |
| Instructions | 11       |

```
      00 01 02 03 04 05 06 07  08 09 0A 0B 0C 0D 0E 0F
      -- -- -- -- -- -- -- --  -- -- -- -- -- -- -- --
0040:                          24 05 80 01 80 01 80 25          $......%
0050: 02 00 10 01 80 00 62 00  29 09 F0 FF FF 7F 04 01  ......b.).......
0060: 74 00 02 00 10 02 80 00  74 00 29 09 F0 FF FF 7F  t.......t.).....
0070: 05 01 74 00 20 00 21 00                           ..t. .!.        
```

#### Opcodes

```
  0: 0x0048 [0x24] CREATE_DIALOG(message_id=7093*, default_option=0*, option_flags=0*)
    → "Warp where? [Magicite/???]"
  1: 0x004F [0x25] WAIT_DIALOG_SELECT()
  2: 0x0050 [0x02] IF !(Work_Zone[0] == 0*) GOTO 0x0062
  3: 0x0058 [0x29] REQ_SET_WAIT(priority=0x09, entity_id=LocalPlayer, tag_num=0x04)
  4: 0x005F [0x01] GOTO 0x0074
  5: 0x0062 [0x02] IF !(Work_Zone[0] == 1*) GOTO 0x0074
  6: 0x006A [0x29] REQ_SET_WAIT(priority=0x09, entity_id=LocalPlayer, tag_num=0x05)
  7: 0x0071 [0x01] GOTO 0x0074

SUBROUTINE_0074:
  8: 0x0074 [0x20] SET_CLI_EVENT_UC_FLAG: Unlock player control
  9: 0x0076 [0x21] END_EVENT
 10: 0x0077 [0x00] END_REQSTACK()
```

### Event 65535.2

#### Metadata

| Field        | Value    |
|--------------|----------|
| Entrypoint   | 0x0078   |
| Data Size    | 46 bytes |
| Instructions | 11       |

```
      00 01 02 03 04 05 06 07  08 09 0A 0B 0C 0D 0E 0F
      -- -- -- -- -- -- -- --  -- -- -- -- -- -- -- --
0070:                          24 06 80 01 80 01 80 25          $......%
0080: 02 00 10 01 80 00 97 00  29 09 F0 FF FF 7F 04 03  ........).......
0090: 01 10 07 80 01 A2 00 02  00 10 02 80 00 A2 00 01  ................
00A0: A2 00 20 00 21 00                                 .. .!.          
```

#### Opcodes

```
  0: 0x0078 [0x24] CREATE_DIALOG(message_id=7091*, default_option=0*, option_flags=0*)
    → "Which event? [fs001:/Been out of zone at least once./Reset quest flags only.]"
  1: 0x007F [0x25] WAIT_DIALOG_SELECT()
  2: 0x0080 [0x02] IF !(Work_Zone[0] == 0*) GOTO 0x0097
  3: 0x0088 [0x29] REQ_SET_WAIT(priority=0x09, entity_id=LocalPlayer, tag_num=0x04)
  4: 0x008F [0x03] Work_Zone[1] = 11*
  5: 0x0094 [0x01] GOTO 0x00A2
  6: 0x0097 [0x02] IF !(Work_Zone[0] == 1*) GOTO 0x00A2
  7: 0x009F [0x01] GOTO 0x00A2

SUBROUTINE_00A2:
  8: 0x00A2 [0x20] SET_CLI_EVENT_UC_FLAG: Unlock player control
  9: 0x00A4 [0x21] END_EVENT
 10: 0x00A5 [0x00] END_REQSTACK()
```

### Event 65535.3

#### Metadata

| Field        | Value    |
|--------------|----------|
| Entrypoint   | 0x00A6   |
| Data Size    | 39 bytes |
| Instructions | 10       |

```
      00 01 02 03 04 05 06 07  08 09 0A 0B 0C 0D 0E 0F
      -- -- -- -- -- -- -- --  -- -- -- -- -- -- -- --
00A0:                   24 08  80 01 80 01 80 25 02 00        $......%..
00B0: 10 01 80 00 B9 00 01 C9  00 02 00 10 02 80 00 C9  ................
00C0: 00 03 01 10 09 80 01 C9  00 20 00 21 00           ......... .!.   
```

#### Opcodes

```
  0: 0x00A6 [0x24] CREATE_DIALOG(message_id=7092*, default_option=0*, option_flags=0*)
    → "Well, then. [OK/Reset quest flags only.]"
  1: 0x00AD [0x25] WAIT_DIALOG_SELECT()
  2: 0x00AE [0x02] IF !(Work_Zone[0] == 0*) GOTO 0x00B9
  3: 0x00B6 [0x01] GOTO 0x00C9
  4: 0x00B9 [0x02] IF !(Work_Zone[0] == 1*) GOTO 0x00C9
  5: 0x00C1 [0x03] Work_Zone[1] = 100*
  6: 0x00C6 [0x01] GOTO 0x00C9

SUBROUTINE_00C9:
  7: 0x00C9 [0x20] SET_CLI_EVENT_UC_FLAG: Unlock player control
  8: 0x00CB [0x21] END_EVENT
  9: 0x00CC [0x00] END_REQSTACK()
```

### Event 65535.4

#### Metadata

| Field        | Value   |
|--------------|---------|
| Entrypoint   | 0x00CD  |
| Data Size    | 9 bytes |
| Instructions | 4       |

```
      00 01 02 03 04 05 06 07  08 09 0A 0B 0C 0D 0E 0F
      -- -- -- -- -- -- -- --  -- -- -- -- -- -- -- --
00C0:                                         03 01 10               ...
00D0: 09 80 20 00 21 00                                 .. .!.          
```

#### Opcodes

```
  0: 0x00CD [0x03] Work_Zone[1] = 100*
  1: 0x00D2 [0x20] SET_CLI_EVENT_UC_FLAG: Unlock player control
  2: 0x00D4 [0x21] END_EVENT
  3: 0x00D5 [0x00] END_REQSTACK()
```

### Event 65535.5

#### Metadata

| Field        | Value   |
|--------------|---------|
| Entrypoint   | 0x00D6  |
| Data Size    | 1 bytes |
| Instructions | 1       |

```
      00 01 02 03 04 05 06 07  08 09 0A 0B 0C 0D 0E 0F
      -- -- -- -- -- -- -- --  -- -- -- -- -- -- -- --
00D0:                   00                                    .         
```

#### Opcodes

```
  0: 0x00D6 [0x00] END_REQSTACK()
```

### Event 44

#### Metadata

| Field        | Value   |
|--------------|---------|
| Entrypoint   | 0x00D7  |
| Data Size    | 1 bytes |
| Instructions | 1       |

```
      00 01 02 03 04 05 06 07  08 09 0A 0B 0C 0D 0E 0F
      -- -- -- -- -- -- -- --  -- -- -- -- -- -- -- --
00D0:                      00                                  .        
```

#### Opcodes

```
  0: 0x00D7 [0x00] END_REQSTACK()
```

### Event 65535.6

#### Metadata

| Field        | Value    |
|--------------|----------|
| Entrypoint   | 0x00D8   |
| Data Size    | 10 bytes |
| Instructions | 2        |

```
      00 01 02 03 04 05 06 07  08 09 0A 0B 0C 0D 0E 0F
      -- -- -- -- -- -- -- --  -- -- -- -- -- -- -- --
00D0:                          37 0A 80 0B 80 0C 80 0D          7.......
00E0: 80 00                                             ..              
```

#### Opcodes

```
  0: 0x00D8 [0x37] UPDATE_EVENT_POSITION_AND_DIR: x=-106.822*, z=89.435*, y=-72.000*, direction=282.5°*
  1: 0x00E1 [0x00] END_REQSTACK()
```

### Event 65535.7

#### Metadata

| Field        | Value    |
|--------------|----------|
| Entrypoint   | 0x00E2   |
| Data Size    | 10 bytes |
| Instructions | 2        |

```
      00 01 02 03 04 05 06 07  08 09 0A 0B 0C 0D 0E 0F
      -- -- -- -- -- -- -- --  -- -- -- -- -- -- -- --
00E0:       37 0E 80 0F 80 0C  80 10 80 00                7.........    
```

#### Opcodes

```
  0: 0x00E2 [0x37] UPDATE_EVENT_POSITION_AND_DIR: x=-113.218*, z=97.174*, y=-72.000*, direction=352.9°*
  1: 0x00EB [0x00] END_REQSTACK()
```

### Event 65535.8

#### Metadata

| Field        | Value    |
|--------------|----------|
| Entrypoint   | 0x00EC   |
| Data Size    | 10 bytes |
| Instructions | 2        |

```
      00 01 02 03 04 05 06 07  08 09 0A 0B 0C 0D 0E 0F
      -- -- -- -- -- -- -- --  -- -- -- -- -- -- -- --
00E0:                                      37 11 80 12              7...
00F0: 80 0C 80 13 80 00                                 ......          
```

#### Opcodes

```
  0: 0x00EC [0x37] UPDATE_EVENT_POSITION_AND_DIR: x=-102.737*, z=103.495*, y=-72.000*, direction=84.4°*
  1: 0x00F5 [0x00] END_REQSTACK()
```
