# 17399826 - Fickblix

## Common Data

| Field            | Value                |
|------------------|----------------------|
| Zone             | Altar Room (ID: 152) |
| Block Size       | 176 bytes            |
| Total Events     | 8                    |
| References Count | 2                    |

## List of Events

| Event ID                 | Entrypoint   |   Size |   Instructions |
|--------------------------|--------------|--------|----------------|
| [65535](#event-65535)    | 0x0000       |      3 |              2 |
| [10000](#event-10000)    | 0x0003       |      1 |              1 |
| [65535.1](#event-655351) | 0x0004       |     29 |              3 |
| [65535.2](#event-655352) | 0x0021       |     16 |              2 |
| [65535.3](#event-655353) | 0x0031       |     29 |              3 |
| [65535.4](#event-655354) | 0x004E       |     19 |              3 |
| [65535.5](#event-655355) | 0x0061       |     19 |              3 |
| [65535.6](#event-655356) | 0x0074       |      1 |              1 |

## DAT References (imed_data)

|   Index | Hex Value   |   Dec Value |
|---------|-------------|-------------|
|       0 | 0x00D7      |         215 |
|       1 | 0x001E      |          30 |

## Events

### Event 65535

#### Metadata

| Field        | Value   |
|--------------|---------|
| Entrypoint   | 0x0000  |
| Data Size    | 3 bytes |
| Instructions | 2       |

```
      00 01 02 03 04 05 06 07  08 09 0A 0B 0C 0D 0E 0F
      -- -- -- -- -- -- -- --  -- -- -- -- -- -- -- --
0000: 22 01 00                                          "..             
```

#### Opcodes

```
  0: 0x0000 [0x22] ENTITY_HIDE_FLAG(enabled=0x01)
  1: 0x0002 [0x00] END_REQSTACK()
```

### Event 10000

#### Metadata

| Field        | Value   |
|--------------|---------|
| Entrypoint   | 0x0003  |
| Data Size    | 1 bytes |
| Instructions | 1       |

```
      00 01 02 03 04 05 06 07  08 09 0A 0B 0C 0D 0E 0F
      -- -- -- -- -- -- -- --  -- -- -- -- -- -- -- --
0000:          00                                          .            
```

#### Opcodes

```
  0: 0x0003 [0x00] END_REQSTACK()
```

### Event 65535.1

#### Metadata

| Field        | Value    |
|--------------|----------|
| Entrypoint   | 0x0004   |
| Data Size    | 29 bytes |
| Instructions | 3        |

```
      00 01 02 03 04 05 06 07  08 09 0A 0B 0C 0D 0E 0F
      -- -- -- -- -- -- -- --  -- -- -- -- -- -- -- --
0000:             5B 00 80 F8  FF FF 7F F8 FF FF 7F 63      [..........c
0010: 6F 72 30 53 F8 FF FF 7F  F8 FF FF 7F 63 6F 72 30  or0S........cor0
0020: 00                                                .               
```

#### Opcodes

```
  0: 0x0004 [0x5B] LOAD_EXT_SCHEDULER: Load scheduler "cor0" with entities [EventEntity, EventEntity], work=215*
  1: 0x0013 [0x53] WAIT_SCHEDULER_TASK: Wait for scheduler "cor0" with entities [EventEntity, EventEntity]
  2: 0x0020 [0x00] END_REQSTACK()
```

### Event 65535.2

#### Metadata

| Field        | Value    |
|--------------|----------|
| Entrypoint   | 0x0021   |
| Data Size    | 16 bytes |
| Instructions | 2        |

```
      00 01 02 03 04 05 06 07  08 09 0A 0B 0C 0D 0E 0F
      -- -- -- -- -- -- -- --  -- -- -- -- -- -- -- --
0020:    5B 00 80 F8 FF FF 7F  F8 FF FF 7F 63 6F 72 30   [..........cor0
0030: 00                                                .               
```

#### Opcodes

```
  0: 0x0021 [0x5B] LOAD_EXT_SCHEDULER: Load scheduler "cor0" with entities [EventEntity, EventEntity], work=215*
  1: 0x0030 [0x00] END_REQSTACK()
```

### Event 65535.3

#### Metadata

| Field        | Value    |
|--------------|----------|
| Entrypoint   | 0x0031   |
| Data Size    | 29 bytes |
| Instructions | 3        |

```
      00 01 02 03 04 05 06 07  08 09 0A 0B 0C 0D 0E 0F
      -- -- -- -- -- -- -- --  -- -- -- -- -- -- -- --
0030:    5B 00 80 F8 FF FF 7F  F8 FF FF 7F 6F 6B 69 30   [..........oki0
0040: 53 F8 FF FF 7F F8 FF FF  7F 6F 6B 69 30 00        S........oki0.  
```

#### Opcodes

```
  0: 0x0031 [0x5B] LOAD_EXT_SCHEDULER: Load scheduler "oki0" with entities [EventEntity, EventEntity], work=215*
  1: 0x0040 [0x53] WAIT_SCHEDULER_TASK: Wait for scheduler "oki0" with entities [EventEntity, EventEntity]
  2: 0x004D [0x00] END_REQSTACK()
```

### Event 65535.4

#### Metadata

| Field        | Value    |
|--------------|----------|
| Entrypoint   | 0x004E   |
| Data Size    | 19 bytes |
| Instructions | 3        |

```
      00 01 02 03 04 05 06 07  08 09 0A 0B 0C 0D 0E 0F
      -- -- -- -- -- -- -- --  -- -- -- -- -- -- -- --
0040:                                            5B 00                [.
0050: 80 F8 FF FF 7F F8 FF FF  7F 74 69 64 30 1C 01 80  .........tid0...
0060: 00                                                .               
```

#### Opcodes

```
  0: 0x004E [0x5B] LOAD_EXT_SCHEDULER: Load scheduler "tid0" with entities [EventEntity, EventEntity], work=215*
  1: 0x005D [0x1C] WAIT(30* ticks)
  2: 0x0060 [0x00] END_REQSTACK()
```

### Event 65535.5

#### Metadata

| Field        | Value    |
|--------------|----------|
| Entrypoint   | 0x0061   |
| Data Size    | 19 bytes |
| Instructions | 3        |

```
      00 01 02 03 04 05 06 07  08 09 0A 0B 0C 0D 0E 0F
      -- -- -- -- -- -- -- --  -- -- -- -- -- -- -- --
0060:    5B 00 80 F8 FF FF 7F  F8 FF FF 7F 74 6C 6B 32   [..........tlk2
0070: 1C 01 80 00                                       ....            
```

#### Opcodes

```
  0: 0x0061 [0x5B] LOAD_EXT_SCHEDULER: Load scheduler "tlk2" with entities [EventEntity, EventEntity], work=215*
  1: 0x0070 [0x1C] WAIT(30* ticks)
  2: 0x0073 [0x00] END_REQSTACK()
```

### Event 65535.6

#### Metadata

| Field        | Value   |
|--------------|---------|
| Entrypoint   | 0x0074  |
| Data Size    | 1 bytes |
| Instructions | 1       |

```
      00 01 02 03 04 05 06 07  08 09 0A 0B 0C 0D 0E 0F
      -- -- -- -- -- -- -- --  -- -- -- -- -- -- -- --
0070:             00                                        .           
```

#### Opcodes

```
  0: 0x0074 [0x00] END_REQSTACK()
```
