# 17399840 - Magicite

## Common Data

| Field            | Value                |
|------------------|----------------------|
| Zone             | Altar Room (ID: 152) |
| Block Size       | 4020 bytes           |
| Total Events     | 5                    |
| References Count | 57                   |

## List of Events

| Event ID                 | Entrypoint   |   Size |   Instructions |
|--------------------------|--------------|--------|----------------|
| [65535](#event-65535)    | 0x0000       |      1 |              1 |
| [44](#event-44)          | 0x0001       |    710 |             90 |
| [65535.1](#event-655351) | 0x02C7       |   1569 |            179 |
| [65535.2](#event-655352) | 0x08E8       |    493 |             56 |
| [42](#event-42)          | 0x0AD5       |    983 |            117 |

## DAT References (imed_data)

|   Index | Hex Value   |   Dec Value |
|---------|-------------|-------------|
|       0 | 0x0006      |           6 |
|       1 | 0x0000      |           0 |
|       2 | 0x0064      |         100 |
|       3 | 0x00C8      |         200 |
|       4 | 0x00C9      |         201 |
|       5 | 0x003C      |          60 |
|       6 | 0x0013      |          19 |
|       7 | 0x00A9      |         169 |
|       8 | 0x00A2      |         162 |
|       9 | 0x000C      |          12 |
|      10 | 0x0045      |          69 |
|      11 | 0x1BBB      |        7099 |
|      12 | 0x0BB8      |        3000 |
|      13 | 0x1BBF      |        7103 |
|      14 | 0x0226      |         550 |
|      15 | 0x1BC0      |        7104 |
|      16 | 0x0097      |         151 |
|      17 | 0x00F2      |         242 |
|      18 | 0x0001      |           1 |
|      19 | 0x01AB      |         427 |
|      20 | 0x0098      |         152 |
|      21 | 0x0003      |           3 |
|      22 | 0x007F      |         127 |
|      23 | 0x0002      |           2 |
|      24 | 0x00A0      |         160 |
|      25 | 0x0008      |           8 |
|      26 | 0x0033      |          51 |
|      27 | 0x0032      |          50 |
|      28 | 0x1C71      |        7281 |
|      29 | 0x001E      |          30 |
|      30 | 0x000A      |          10 |
|      31 | 0x0C00      |        3072 |
|      32 | 0x1C73      |        7283 |
|      33 | 0x1C75      |        7285 |
|      34 | 0x0078      |         120 |
|      35 | 0x1C79      |        7289 |
|      36 | 0x1C7A      |        7290 |
|      37 | 0x0C4C      |        3148 |
|      38 | 0x1C83      |        7299 |
|      39 | 0x009F      |         159 |
|      40 | 0xFFFFFFF2  |  4294967282 |
|      41 | 0x0029      |          41 |
|      42 | 0xFFFF50B1  |  4294922417 |
|      43 | 0x0D88      |        3464 |
|      44 | 0x008E      |         142 |
|      45 | 0x1BC2      |        7106 |
|      46 | 0x1BC3      |        7107 |
|      47 | 0x0034      |          52 |
|      48 | 0x1BC4      |        7108 |
|      49 | 0x1BC6      |        7110 |
|      50 | 0x0048      |          72 |
|      51 | 0x000F      |          15 |
|      52 | 0x1BC7      |        7111 |
|      53 | 0x0079      |         121 |
|      54 | 0x1BCF      |        7119 |
|      55 | 0x1BD0      |        7120 |
|      56 | 0x012C      |         300 |

## Events

### Event 65535

#### Metadata

| Field        | Value   |
|--------------|---------|
| Entrypoint   | 0x0000  |
| Data Size    | 1 bytes |
| Instructions | 1       |

```
      00 01 02 03 04 05 06 07  08 09 0A 0B 0C 0D 0E 0F
      -- -- -- -- -- -- -- --  -- -- -- -- -- -- -- --
0000: 00                                                .               
```

#### Opcodes

```
  0: 0x0000 [0x00] END_REQSTACK()
```

### Event 44

#### Metadata

| Field        | Value     |
|--------------|-----------|
| Entrypoint   | 0x0001    |
| Data Size    | 710 bytes |
| Instructions | 90        |

```
      00 01 02 03 04 05 06 07  08 09 0A 0B 0C 0D 0E 0F
      -- -- -- -- -- -- -- --  -- -- -- -- -- -- -- --
0000:    20 01 46 01 42 62 00  80 F8 FF FF 7F F8 FF FF    .F.Bb.........
0010: 7F 6D 61 69 6E 01 80 1C  02 80 62 00 80 F8 FF FF  .main.....b.....
0020: 7F F8 FF FF 7F 73 74 6D  33 01 80 45 03 80 15 80  .....stm3..E....
0030: 09 01 15 80 09 01 62 6C  6F 6E 01 80 45 04 80 F0  ......blon..E...
0040: FF FF 7F F0 FF FF 7F 62  6C 6F 6E 01 80 45 04 80  .......blon..E..
0050: F0 FF FF 7F F0 FF FF 7F  77 68 6F 31 01 80 1C 05  ........who1....
0060: 80 38 06 80 34 07 80 22  01 5C 00 08 80 5C 01 08  .8..4..".\...\..
0070: 80 80 16 80 09 01 80 15  80 09 01 4E 00 16 80 09  ...........N....
0080: 01 4E 00 15 80 09 01 77  09 80 01 80 45 0A 80 F8  .N.....w....E...
0090: FF FF 7F F8 FF FF 7F 73  30 30 30 01 80 45 03 80  .......s000..E..
00A0: F8 FF FF 7F F8 FF FF 7F  66 64 69 31 01 80 45 04  ........fdi1..E.
00B0: 80 F0 FF FF 7F F0 FF FF  7F 77 68 69 31 01 80 55  .........whi1..U
00C0: 0A 80 F8 FF FF 7F F8 FF  FF 7F 73 30 30 30 45 0A  ..........s000E.
00D0: 80 F8 FF FF 7F F8 FF FF  7F 73 30 30 36 01 80 55  .........s006..U
00E0: 0A 80 F8 FF FF 7F F8 FF  FF 7F 73 30 30 36 29 0B  ..........s006).
00F0: 15 80 09 01 19 45 0A 80  F8 FF FF 7F F8 FF FF 7F  .....E..........
0100: 73 30 30 35 01 80 4A 16  80 09 01 15 80 09 01 4A  s005..J........J
0110: 15 80 09 01 16 80 09 01  29 0B 16 80 09 01 04 29  ........)......)
0120: 0B 16 80 09 01 05 52 0A  80 F8 FF FF 7F F8 FF FF  ......R.........
0130: 7F 73 30 30 35 45 0A 80  F8 FF FF 7F F8 FF FF 7F  .s005E..........
0140: 73 30 30 33 01 80 29 0B  16 80 09 01 03 29 0B 16  s003..)......)..
0150: 80 09 01 06 29 0B 15 80  09 01 1A 52 0A 80 F8 FF  ....)......R....
0160: FF 7F F8 FF FF 7F 73 30  30 33 45 0A 80 F8 FF FF  ......s003E.....
0170: 7F F8 FF FF 7F 73 30 30  37 01 80 2B 16 80 09 01  .....s007..+....
0180: 0B 80 23 29 0B 15 80 09  01 1B 52 0A 80 F8 FF FF  ..#)......R.....
0190: 7F F8 FF FF 7F 73 30 30  37 45 0A 80 F8 FF FF 7F  .....s007E......
01A0: F8 FF FF 7F 73 30 30 32  01 80 4B 15 80 09 01 0C  ....s002..K.....
01B0: 80 29 0B 15 80 09 01 1C  29 0B 15 80 09 01 1D 52  .)......)......R
01C0: 0A 80 F8 FF FF 7F F8 FF  FF 7F 73 30 30 32 45 0A  ..........s002E.
01D0: 80 F8 FF FF 7F F8 FF FF  7F 73 30 30 38 01 80 27  .........s008..'
01E0: 0B 16 80 09 01 02 2B 16  80 09 01 0D 80 23 2A 0B  ......+......#*.
01F0: 16 80 09 01 52 0A 80 F8  FF FF 7F F8 FF FF 7F 73  ....R..........s
0200: 30 30 38 45 0A 80 F8 FF  FF 7F F8 FF FF 7F 73 30  008E..........s0
0210: 30 34 01 80 4B 16 80 09  01 0E 80 2B 16 80 09 01  04..K......+....
0220: 0F 80 23 29 0B 16 80 09  01 0A 45 03 80 15 80 09  ..#)......E.....
0230: 01 15 80 09 01 62 6C 6F  6E 01 80 45 04 80 F0 FF  .....blon..E....
0240: FF 7F F0 FF FF 7F 62 6C  6F 6E 01 80 45 04 80 F0  ......blon..E...
0250: FF FF 7F F0 FF FF 7F 77  68 6F 31 01 80 1C 05 80  .......who1.....
0260: 34 10 80 78 29 0D 20 80  09 01 02 34 11 80 1C 12  4..x). ....4....
0270: 80 75 00 13 80 75 01 78  29 0D 20 80 09 01 03 35  .u...u.x). ....5
0280: 14 80 78 02 03 10 15 80  00 9D 02 29 0D 20 80 09  ..x........). ..
0290: 01 04 1C 05 80 46 00 1C  05 80 01 C3 02 1C 05 80  .....F..........
02A0: 5C 00 01 80 5C 01 01 80  5D 16 80 12 80 46 00 1C  \...\...]....F..
02B0: 17 80 45 04 80 F0 FF FF  7F F0 FF FF 7F 77 68 69  ..E..........whi
02C0: 31 01 80 20 00 21 00                              1.. .!.         
```

#### Opcodes

```
  0: 0x0001 [0x20] SET_CLI_EVENT_UC_FLAG: Lock player control
  1: 0x0003 [0x46] CAMERA_CONTROL: Disable user control
  2: 0x0005 [0x42] SET_CLI_EVENT_CANCEL_DATA()
  3: 0x0006 [0x62] LOAD_EVENT_SCHEDULER: Load scheduler "main" with entities [EventEntity, EventEntity], work=[6*, 0*]
  4: 0x0017 [0x1C] WAIT(100* ticks)
  5: 0x001A [0x62] LOAD_EVENT_SCHEDULER: Load scheduler "stm3" with entities [EventEntity, EventEntity], work=[6*, 0*]
  6: 0x002B [0x45] LOAD_SCHEDULED_TASK: Load scheduler "blon" with entities [Star Sibyl (ID: 17399829/0x01098015), Star Sibyl (ID: 17399829/0x01098015)], work=[200*, 0*]
  7: 0x003C [0x45] LOAD_SCHEDULED_TASK: Load scheduler "blon" with entities [LocalPlayer, LocalPlayer], work=[201*, 0*]
  8: 0x004D [0x45] LOAD_SCHEDULED_TASK: Load scheduler "who1" with entities [LocalPlayer, LocalPlayer], work=[201*, 0*]
  9: 0x005E [0x1C] WAIT(60* ticks)
 10: 0x0061 [0x38] SET_CLIENT_EVENT_MODE(mode=19*)
 11: 0x0064 [0x34] LOAD_UNLOAD_ZONE(zone_id=169*)
 12: 0x0067 [0x22] ENTITY_HIDE_FLAG(enabled=0x01)
 13: 0x0069 [0x5C] MUSIC_CONTROL: Set Idle (Day) music to song 162*
 14: 0x006D [0x5C] MUSIC_CONTROL: Set Idle (Night) music to song 162*
 15: 0x0071 [0x80] LOAD_WAIT(entity=Karaha-Baruha (ID: 17399830/0x01098016))
 16: 0x0076 [0x80] LOAD_WAIT(entity=Star Sibyl (ID: 17399829/0x01098015))
 17: 0x007B [0x4E] SET_ENTITY_HIDE_FLAG: Show Karaha-Baruha (ID: 17399830/0x01098016)
 18: 0x0081 [0x4E] SET_ENTITY_HIDE_FLAG: Show Star Sibyl (ID: 17399829/0x01098015)
 19: 0x0087 [0x77] SET_EVENT_TIME_WEATHER(hour=12*, weather=0*)
 20: 0x008C [0x45] LOAD_SCHEDULED_TASK: Load scheduler "s000" with entities [EventEntity, EventEntity], work=[69*, 0*]
 21: 0x009D [0x45] LOAD_SCHEDULED_TASK: Load scheduler "fdi1" with entities [EventEntity, EventEntity], work=[200*, 0*]
 22: 0x00AE [0x45] LOAD_SCHEDULED_TASK: Load scheduler "whi1" with entities [LocalPlayer, LocalPlayer], work=[201*, 0*]
 23: 0x00BF [0x55] WAIT_LOAD_SCHEDULER: Wait for scheduler "s000" with entities [EventEntity, EventEntity], work=69*
 24: 0x00CE [0x45] LOAD_SCHEDULED_TASK: Load scheduler "s006" with entities [EventEntity, EventEntity], work=[69*, 0*]
 25: 0x00DF [0x55] WAIT_LOAD_SCHEDULER: Wait for scheduler "s006" with entities [EventEntity, EventEntity], work=69*
 26: 0x00EE [0x29] REQ_SET_WAIT(priority=0x0B, entity_id=Star Sibyl (ID: 17399829/0x01098015), tag_num=0x19)
 27: 0x00F5 [0x45] LOAD_SCHEDULED_TASK: Load scheduler "s005" with entities [EventEntity, EventEntity], work=[69*, 0*]
 28: 0x0106 [0x4A] Karaha-Baruha (ID: 17399830/0x01098016) looks at Star Sibyl (ID: 17399829/0x01098015)
 29: 0x010F [0x4A] Star Sibyl (ID: 17399829/0x01098015) looks at Karaha-Baruha (ID: 17399830/0x01098016)
 30: 0x0118 [0x29] REQ_SET_WAIT(priority=0x0B, entity_id=Karaha-Baruha (ID: 17399830/0x01098016), tag_num=0x04)
 31: 0x011F [0x29] REQ_SET_WAIT(priority=0x0B, entity_id=Karaha-Baruha (ID: 17399830/0x01098016), tag_num=0x05)
 32: 0x0126 [0x52] END_LOAD_SCHEDULER: End scheduler "s005" with entities [EventEntity, EventEntity], work=69*
 33: 0x0135 [0x45] LOAD_SCHEDULED_TASK: Load scheduler "s003" with entities [EventEntity, EventEntity], work=[69*, 0*]
 34: 0x0146 [0x29] REQ_SET_WAIT(priority=0x0B, entity_id=Karaha-Baruha (ID: 17399830/0x01098016), tag_num=0x03)
 35: 0x014D [0x29] REQ_SET_WAIT(priority=0x0B, entity_id=Karaha-Baruha (ID: 17399830/0x01098016), tag_num=0x06)
 36: 0x0154 [0x29] REQ_SET_WAIT(priority=0x0B, entity_id=Star Sibyl (ID: 17399829/0x01098015), tag_num=0x1A)
 37: 0x015B [0x52] END_LOAD_SCHEDULER: End scheduler "s003" with entities [EventEntity, EventEntity], work=69*
 38: 0x016A [0x45] LOAD_SCHEDULED_TASK: Load scheduler "s007" with entities [EventEntity, EventEntity], work=[69*, 0*]
 39: 0x017B [0x2B] Karaha-Baruha (ID: 17399830/0x01098016) [7099*]:
    → "Are you uneasy, Your Holiness?"
 40: 0x0182 [0x23] WAIT_FOR_DIALOG_INTERACTION
 41: 0x0183 [0x29] REQ_SET_WAIT(priority=0x0B, entity_id=Star Sibyl (ID: 17399829/0x01098015), tag_num=0x1B)
 42: 0x018A [0x52] END_LOAD_SCHEDULER: End scheduler "s007" with entities [EventEntity, EventEntity], work=69*
 43: 0x0199 [0x45] LOAD_SCHEDULED_TASK: Load scheduler "s002" with entities [EventEntity, EventEntity], work=[69*, 0*]
 44: 0x01AA [0x4B] UPDATE_ENTITY_YAW(entity=Star Sibyl (ID: 17399829/0x01098015), yaw=16.5°*)
 45: 0x01B1 [0x29] REQ_SET_WAIT(priority=0x0B, entity_id=Star Sibyl (ID: 17399829/0x01098015), tag_num=0x1C)
 46: 0x01B8 [0x29] REQ_SET_WAIT(priority=0x0B, entity_id=Star Sibyl (ID: 17399829/0x01098015), tag_num=0x1D)
 47: 0x01BF [0x52] END_LOAD_SCHEDULER: End scheduler "s002" with entities [EventEntity, EventEntity], work=69*
 48: 0x01CE [0x45] LOAD_SCHEDULED_TASK: Load scheduler "s008" with entities [EventEntity, EventEntity], work=[69*, 0*]
 49: 0x01DF [0x27] REQ_SET(priority=0x0B, entity_id=Karaha-Baruha (ID: 17399830/0x01098016), tag_num=0x02)
 50: 0x01E6 [0x2B] Karaha-Baruha (ID: 17399830/0x01098016) [7103*]:
    → "Place your trust in me, Your Holiness. Windurst shall escape its fate of ruin."
 51: 0x01ED [0x23] WAIT_FOR_DIALOG_INTERACTION
 52: 0x01EE [0x2A] GET_REQ_LEVEL(level=11, entity_id=Karaha-Baruha (ID: 17399830/0x01098016))
 53: 0x01F4 [0x52] END_LOAD_SCHEDULER: End scheduler "s008" with entities [EventEntity, EventEntity], work=69*
 54: 0x0203 [0x45] LOAD_SCHEDULED_TASK: Load scheduler "s004" with entities [EventEntity, EventEntity], work=[69*, 0*]
 55: 0x0214 [0x4B] UPDATE_ENTITY_YAW(entity=Karaha-Baruha (ID: 17399830/0x01098016), yaw=3.0°*)
 56: 0x021B [0x2B] Karaha-Baruha (ID: 17399830/0x01098016) [7104*]:
    → "The Book of the Gods has taught me everything."
 57: 0x0222 [0x23] WAIT_FOR_DIALOG_INTERACTION
 58: 0x0223 [0x29] REQ_SET_WAIT(priority=0x0B, entity_id=Karaha-Baruha (ID: 17399830/0x01098016), tag_num=0x0A)
 59: 0x022A [0x45] LOAD_SCHEDULED_TASK: Load scheduler "blon" with entities [Star Sibyl (ID: 17399829/0x01098015), Star Sibyl (ID: 17399829/0x01098015)], work=[200*, 0*]
 60: 0x023B [0x45] LOAD_SCHEDULED_TASK: Load scheduler "blon" with entities [LocalPlayer, LocalPlayer], work=[201*, 0*]
 61: 0x024C [0x45] LOAD_SCHEDULED_TASK: Load scheduler "who1" with entities [LocalPlayer, LocalPlayer], work=[201*, 0*]
 62: 0x025D [0x1C] WAIT(60* ticks)
 63: 0x0260 [0x34] LOAD_UNLOAD_ZONE(zone_id=151*)
 64: 0x0263 [0x78] ENABLE_GAME_TIMER_RESET_WEATHER()
 65: 0x0264 [0x29] REQ_SET_WAIT(priority=0x0D, entity_id=Magicite (ID: 17399840/0x01098020), tag_num=0x02)
 66: 0x026B [0x34] LOAD_UNLOAD_ZONE(zone_id=242*)
 67: 0x026E [0x1C] WAIT(1* ticks)
 68: 0x0271 [0x75] LOAD_ROOM(Load indoor room, room=427*)
 69: 0x0275 [0x75] LOAD_ROOM(No action)
 70: 0x0277 [0x78] ENABLE_GAME_TIMER_RESET_WEATHER()
 71: 0x0278 [0x29] REQ_SET_WAIT(priority=0x0D, entity_id=Magicite (ID: 17399840/0x01098020), tag_num=0x03)
 72: 0x027F [0x35] LOAD_ZONE_NO_CLOSE(zone_id=152*)
 73: 0x0282 [0x78] ENABLE_GAME_TIMER_RESET_WEATHER()
 74: 0x0283 [0x02] IF !(Work_Zone[3] == 3*) GOTO 0x029D
 75: 0x028B [0x29] REQ_SET_WAIT(priority=0x0D, entity_id=Magicite (ID: 17399840/0x01098020), tag_num=0x04)
 76: 0x0292 [0x1C] WAIT(60* ticks)
 77: 0x0295 [0x46] CAMERA_CONTROL: Restore default settings
 78: 0x0297 [0x1C] WAIT(60* ticks)
 79: 0x029A [0x01] GOTO 0x02C3
 80: 0x029D [0x1C] WAIT(60* ticks)
 81: 0x02A0 [0x5C] MUSIC_CONTROL: Set Idle (Day) music to song 0*
 82: 0x02A4 [0x5C] MUSIC_CONTROL: Set Idle (Night) music to song 0*
 83: 0x02A8 [0x5D] SET_MUSIC_VOLUME(volume=127*, fade_time=1*)
 84: 0x02AD [0x46] CAMERA_CONTROL: Restore default settings
 85: 0x02AF [0x1C] WAIT(2* ticks)
 86: 0x02B2 [0x45] LOAD_SCHEDULED_TASK: Load scheduler "whi1" with entities [LocalPlayer, LocalPlayer], work=[201*, 0*]

SUBROUTINE_02C3:
 87: 0x02C3 [0x20] SET_CLI_EVENT_UC_FLAG: Unlock player control
 88: 0x02C5 [0x21] END_EVENT
 89: 0x02C6 [0x00] END_REQSTACK()
```

### Event 65535.1

#### Metadata

| Field        | Value      |
|--------------|------------|
| Entrypoint   | 0x02C7     |
| Data Size    | 1569 bytes |
| Instructions | 179        |

```
      00 01 02 03 04 05 06 07  08 09 0A 0B 0C 0D 0E 0F
      -- -- -- -- -- -- -- --  -- -- -- -- -- -- -- --
02C0:                      46  01 45 03 80 15 80 09 01         F.E......
02D0: 15 80 09 01 62 6C 6F 66  01 80 5C 00 18 80 5C 01  ....blof..\...\.
02E0: 18 80 77 09 80 19 80 4E  00 1E 80 09 01 4E 00 17  ..w....N.....N..
02F0: 80 09 01 4E 00 1A 80 09  01 4E 00 1C 80 09 01 4E  ...N.....N.....N
0300: 00 1B 80 09 01 4E 00 1D  80 09 01 4E 00 19 80 09  .....N.....N....
0310: 01 4E 00 18 80 09 01 4E  00 14 80 09 01 80 1E 80  .N.....N........
0320: 09 01 80 17 80 09 01 80  1A 80 09 01 80 1C 80 09  ................
0330: 01 80 1B 80 09 01 80 1D  80 09 01 80 19 80 09 01  ................
0340: 80 18 80 09 01 4E 01 F0  FF FF 7F 2C 1E 80 09 01  .....N.....,....
0350: 1E 80 09 01 77 6F 66 34  29 08 14 80 09 01 09 29  ....wof4)......)
0360: 0B 1E 80 09 01 0D 27 0B  1E 80 09 01 0F 45 1A 80  ......'......E..
0370: F8 FF FF 7F F8 FF FF 7F  73 30 32 33 01 80 45 04  ........s023..E.
0380: 80 F8 FF FF 7F F8 FF FF  7F 77 68 69 31 01 80 1C  .........whi1...
0390: 1B 80 4A 1C 80 09 01 1E  80 09 01 2B 1E 80 09 01  ..J........+....
03A0: 1C 80 23 1C 1D 80 4A 19  80 09 01 1E 80 09 01 4A  ..#...J........J
03B0: 18 80 09 01 1E 80 09 01  27 0B 1C 80 09 01 05 27  ........'......'
03C0: 0B 17 80 09 01 05 1C 1D  80 55 1A 80 F8 FF FF 7F  .........U......
03D0: F8 FF FF 7F 73 30 32 33  45 1A 80 F8 FF FF 7F F8  ....s023E.......
03E0: FF FF 7F 73 30 32 34 01  80 27 0B 1A 80 09 01 05  ...s024..'......
03F0: 4A 19 80 09 01 1E 80 09  01 4A 18 80 09 01 1E 80  J........J......
0400: 09 01 1C 1D 80 4A 19 80  09 01 1E 80 09 01 4A 18  .....J........J.
0410: 80 09 01 1E 80 09 01 27  0B 17 80 09 01 06 79 00  .......'......y.
0420: 1E 80 09 01 17 80 09 01  1C 1B 80 27 0B 1C 80 09  ...........'....
0430: 01 06 55 1A 80 F8 FF FF  7F F8 FF FF 7F 73 30 32  ..U..........s02
0440: 34 45 1A 80 F8 FF FF 7F  F8 FF FF 7F 73 30 32 35  4E..........s025
0450: 01 80 29 08 14 80 09 01  0A 79 00 17 80 09 01 1E  ..)......y......
0460: 80 09 01 4A 19 80 09 01  1E 80 09 01 4A 18 80 09  ...J........J...
0470: 01 1E 80 09 01 79 00 19  80 09 01 1E 80 09 01 79  .....y.........y
0480: 00 18 80 09 01 1E 80 09  01 27 0B 1D 80 09 01 05  .........'......
0490: 4A 19 80 09 01 1E 80 09  01 4A 18 80 09 01 1E 80  J........J......
04A0: 09 01 1C 1B 80 27 0B 1B  80 09 01 05 27 0B 17 80  .....'......'...
04B0: 09 01 07 4A 19 80 09 01  1E 80 09 01 4A 18 80 09  ...J........J...
04C0: 01 1E 80 09 01 1C 1D 80  4A 19 80 09 01 1E 80 09  ........J.......
04D0: 01 4A 18 80 09 01 1E 80  09 01 1C 1D 80 4A 19 80  .J...........J..
04E0: 09 01 1E 80 09 01 4A 18  80 09 01 1E 80 09 01 1C  ......J.........
04F0: 1D 80 4A 19 80 09 01 1E  80 09 01 4A 18 80 09 01  ..J........J....
0500: 1E 80 09 01 1C 1E 80 52  1A 80 F8 FF FF 7F F8 FF  .......R........
0510: FF 7F 73 30 32 35 45 1A  80 F8 FF FF 7F F8 FF FF  ..s025E.........
0520: 7F 73 30 31 32 01 80 29  08 14 80 09 01 0B 4A 19  .s012..)......J.
0530: 80 09 01 1E 80 09 01 4A  18 80 09 01 1E 80 09 01  .......J........
0540: 4B 1E 80 09 01 1F 80 55  1A 80 F8 FF FF 7F F8 FF  K......U........
0550: FF 7F 73 30 31 32 2A 0B  1C 80 09 01 2A 0B 1B 80  ..s012*.....*...
0560: 09 01 2A 0B 1E 80 09 01  2A 0B 1C 80 09 01 2A 0B  ..*.....*.....*.
0570: 17 80 09 01 2A 0B 1A 80  09 01 2A 0B 17 80 09 01  ....*.....*.....
0580: 2A 0B 1D 80 09 01 2A 0B  17 80 09 01 4E 01 14 80  *.....*.....N...
0590: 09 01 45 1A 80 F8 FF FF  7F F8 FF FF 7F 73 30 31  ..E..........s01
05A0: 31 01 80 55 1A 80 F8 FF  FF 7F F8 FF FF 7F 73 30  1..U..........s0
05B0: 31 31 29 0B 17 80 09 01  08 79 00 1A 80 09 01 17  11)......y......
05C0: 80 09 01 79 00 1B 80 09  01 17 80 09 01 79 00 1C  ...y.........y..
05D0: 80 09 01 17 80 09 01 79  00 1D 80 09 01 17 80 09  .......y........
05E0: 01 2B 17 80 09 01 20 80  23 45 1A 80 F8 FF FF 7F  .+.... .#E......
05F0: F8 FF FF 7F 73 30 31 33  01 80 29 0B 18 80 09 01  ....s013..).....
0600: 04 52 1A 80 F8 FF FF 7F  F8 FF FF 7F 73 30 31 33  .R..........s013
0610: 45 1A 80 F8 FF FF 7F F8  FF FF 7F 73 30 32 36 01  E..........s026.
0620: 80 2B 19 80 09 01 21 80  23 79 00 17 80 09 01 19  .+....!.#y......
0630: 80 09 01 29 0B 17 80 09  01 09 52 1A 80 F8 FF FF  ...)......R.....
0640: 7F F8 FF FF 7F 73 30 32  36 45 03 80 F8 FF FF 7F  .....s026E......
0650: F8 FF FF 7F 66 64 6F 31  01 80 1C 22 80 7B 17 80  ....fdo1...".{..
0660: 09 01 29 0B 1A 80 09 01  04 29 0B 1B 80 09 01 04  ..)......)......
0670: 29 0B 1C 80 09 01 04 29  0B 1D 80 09 01 04 29 0B  )......)......).
0680: 19 80 09 01 05 29 0B 1E  80 09 01 0E 4A 1E 80 09  .....)......J...
0690: 01 17 80 09 01 4A 1A 80  09 01 1E 80 09 01 4A 1B  .....J........J.
06A0: 80 09 01 1E 80 09 01 4A  1C 80 09 01 1E 80 09 01  .......J........
06B0: 4A 1D 80 09 01 1E 80 09  01 1C 22 80 45 1A 80 F8  J.........".E...
06C0: FF FF 7F F8 FF FF 7F 73  30 31 35 01 80 45 03 80  .......s015..E..
06D0: F8 FF FF 7F F8 FF FF 7F  66 64 69 31 01 80 55 1A  ........fdi1..U.
06E0: 80 F8 FF FF 7F F8 FF FF  7F 73 30 31 35 45 1A 80  .........s015E..
06F0: F8 FF FF 7F F8 FF FF 7F  73 30 31 36 01 80 1C 1B  ........s016....
0700: 80 29 0B 17 80 09 01 0A  52 1A 80 F8 FF FF 7F F8  .)......R.......
0710: FF FF 7F 73 30 31 36 45  1A 80 F8 FF FF 7F F8 FF  ...s016E........
0720: FF 7F 73 30 31 31 01 80  29 0B 17 80 09 01 0B 45  ..s011..)......E
0730: 03 80 F8 FF FF 7F F8 FF  FF 7F 66 64 6F 31 01 80  ..........fdo1..
0740: 1C 05 80 52 1A 80 F8 FF  FF 7F F8 FF FF 7F 73 30  ...R..........s0
0750: 31 31 45 1A 80 F8 FF FF  7F F8 FF FF 7F 73 30 31  11E..........s01
0760: 37 01 80 27 0B 17 80 09  01 04 45 03 80 F8 FF FF  7..'......E.....
0770: 7F F8 FF FF 7F 66 64 69  31 01 80 2B 17 80 09 01  .....fdi1..+....
0780: 23 80 23 2B 17 80 09 01  24 80 23 2A 0B 17 80 09  #.#+....$.#*....
0790: 01 52 1A 80 F8 FF FF 7F  F8 FF FF 7F 73 30 31 37  .R..........s017
07A0: 45 1A 80 F8 FF FF 7F F8  FF FF 7F 73 30 32 37 01  E..........s027.
07B0: 80 29 0B 17 80 09 01 0D  52 1A 80 F8 FF FF 7F F8  .)......R.......
07C0: FF FF 7F 73 30 32 37 45  1A 80 F8 FF FF 7F F8 FF  ...s027E........
07D0: FF 7F 73 30 31 39 01 80  29 0B 1E 80 09 01 11 29  ..s019..)......)
07E0: 0B 1E 80 09 01 12 52 1A  80 F8 FF FF 7F F8 FF FF  ......R.........
07F0: 7F 73 30 31 39 45 1A 80  1E 80 09 01 1E 80 09 01  .s019E..........
0800: 73 30 32 30 01 80 4B 17  80 09 01 25 80 55 1A 80  s020..K....%.U..
0810: 1E 80 09 01 1E 80 09 01  73 30 32 30 29 0B 17 80  ........s020)...
0820: 09 01 0F 29 0B 17 80 09  01 10 29 0B 17 80 09 01  ...)......).....
0830: 11 45 03 80 F8 FF FF 7F  F8 FF FF 7F 66 64 6F 31  .E..........fdo1
0840: 01 80 1C 05 80 4A 17 80  09 01 1E 80 09 01 29 0B  .....J........).
0850: 17 80 09 01 12 45 1A 80  F8 FF FF 7F F8 FF FF 7F  .....E..........
0860: 73 30 32 32 01 80 45 03  80 F8 FF FF 7F F8 FF FF  s022..E.........
0870: 7F 66 64 69 31 01 80 29  0B 17 80 09 01 13 2B 17  .fdi1..)......+.
0880: 80 09 01 26 80 23 52 1A  80 F8 FF FF 7F F8 FF FF  ...&.#R.........
0890: 7F 73 30 32 32 45 1A 80  F8 FF FF 7F F8 FF FF 7F  .s022E..........
08A0: 73 30 32 31 01 80 5D 01  80 03 80 45 03 80 F8 FF  s021..]....E....
08B0: FF 7F F8 FF FF 7F 62 6C  6F 6E 01 80 45 04 80 F8  ......blon..E...
08C0: FF FF 7F F8 FF FF 7F 62  6C 6F 6E 01 80 45 04 80  .......blon..E..
08D0: F8 FF FF 7F F8 FF FF 7F  77 68 6F 31 01 80 1C 05  ........who1....
08E0: 80 4E 00 F0 FF FF 7F 00                           .N......        
```

#### Opcodes

```
  0: 0x02C7 [0x46] CAMERA_CONTROL: Disable user control
  1: 0x02C9 [0x45] LOAD_SCHEDULED_TASK: Load scheduler "blof" with entities [Star Sibyl (ID: 17399829/0x01098015), Star Sibyl (ID: 17399829/0x01098015)], work=[200*, 0*]
  2: 0x02DA [0x5C] MUSIC_CONTROL: Set Idle (Day) music to song 160*
  3: 0x02DE [0x5C] MUSIC_CONTROL: Set Idle (Night) music to song 160*
  4: 0x02E2 [0x77] SET_EVENT_TIME_WEATHER(hour=12*, weather=8*)
  5: 0x02E7 [0x4E] SET_ENTITY_HIDE_FLAG: Show Ajido-Marujido (ID: 17399838/0x0109801E)
  6: 0x02ED [0x4E] SET_ENTITY_HIDE_FLAG: Show Yagudo Avatar (ID: 17399831/0x01098017)
  7: 0x02F3 [0x4E] SET_ENTITY_HIDE_FLAG: Show Yagudo High Priest (ID: 17399834/0x0109801A)
  8: 0x02F9 [0x4E] SET_ENTITY_HIDE_FLAG: Show Yagudo High Priest (ID: 17399836/0x0109801C)
  9: 0x02FF [0x4E] SET_ENTITY_HIDE_FLAG: Show Yagudo High Priest (ID: 17399835/0x0109801B)
 10: 0x0305 [0x4E] SET_ENTITY_HIDE_FLAG: Show Yagudo High Priest (ID: 17399837/0x0109801D)
 11: 0x030B [0x4E] SET_ENTITY_HIDE_FLAG: Show Yagudo Templar (ID: 17399833/0x01098019)
 12: 0x0311 [0x4E] SET_ENTITY_HIDE_FLAG: Show Yagudo Templar (ID: 17399832/0x01098018)
 13: 0x0317 [0x4E] SET_ENTITY_HIDE_FLAG: Show DIRECTOR (ID: 17399828/0x01098014)
 14: 0x031D [0x80] LOAD_WAIT(entity=Ajido-Marujido (ID: 17399838/0x0109801E))
 15: 0x0322 [0x80] LOAD_WAIT(entity=Yagudo Avatar (ID: 17399831/0x01098017))
 16: 0x0327 [0x80] LOAD_WAIT(entity=Yagudo High Priest (ID: 17399834/0x0109801A))
 17: 0x032C [0x80] LOAD_WAIT(entity=Yagudo High Priest (ID: 17399836/0x0109801C))
 18: 0x0331 [0x80] LOAD_WAIT(entity=Yagudo High Priest (ID: 17399835/0x0109801B))
 19: 0x0336 [0x80] LOAD_WAIT(entity=Yagudo High Priest (ID: 17399837/0x0109801D))
 20: 0x033B [0x80] LOAD_WAIT(entity=Yagudo Templar (ID: 17399833/0x01098019))
 21: 0x0340 [0x80] LOAD_WAIT(entity=Yagudo Templar (ID: 17399832/0x01098018))
 22: 0x0345 [0x4E] SET_ENTITY_HIDE_FLAG: Hide LocalPlayer
 23: 0x034B [0x2C] CREATE_SCHEDULER_TASK: Create scheduler "wof4" with entities [Ajido-Marujido (ID: 17399838/0x0109801E), Ajido-Marujido (ID: 17399838/0x0109801E)]
 24: 0x0358 [0x29] REQ_SET_WAIT(priority=0x08, entity_id=DIRECTOR (ID: 17399828/0x01098014), tag_num=0x09)
 25: 0x035F [0x29] REQ_SET_WAIT(priority=0x0B, entity_id=Ajido-Marujido (ID: 17399838/0x0109801E), tag_num=0x0D)
 26: 0x0366 [0x27] REQ_SET(priority=0x0B, entity_id=Ajido-Marujido (ID: 17399838/0x0109801E), tag_num=0x0F)
 27: 0x036D [0x45] LOAD_SCHEDULED_TASK: Load scheduler "s023" with entities [EventEntity, EventEntity], work=[51*, 0*]
 28: 0x037E [0x45] LOAD_SCHEDULED_TASK: Load scheduler "whi1" with entities [EventEntity, EventEntity], work=[201*, 0*]
 29: 0x038F [0x1C] WAIT(50* ticks)
 30: 0x0392 [0x4A] Yagudo High Priest (ID: 17399836/0x0109801C) looks at Ajido-Marujido (ID: 17399838/0x0109801E)
 31: 0x039B [0x2B] Ajido-Marujido (ID: 17399838/0x0109801E) [7281*]:
    → "Shoo! Shoo! Keep your grimy claws off of Windurst Orastery minister, Ajido-Marujido!"
 32: 0x03A2 [0x23] WAIT_FOR_DIALOG_INTERACTION
 33: 0x03A3 [0x1C] WAIT(30* ticks)
 34: 0x03A6 [0x4A] Yagudo Templar (ID: 17399833/0x01098019) looks at Ajido-Marujido (ID: 17399838/0x0109801E)
 35: 0x03AF [0x4A] Yagudo Templar (ID: 17399832/0x01098018) looks at Ajido-Marujido (ID: 17399838/0x0109801E)
 36: 0x03B8 [0x27] REQ_SET(priority=0x0B, entity_id=Yagudo High Priest (ID: 17399836/0x0109801C), tag_num=0x05)
 37: 0x03BF [0x27] REQ_SET(priority=0x0B, entity_id=Yagudo Avatar (ID: 17399831/0x01098017), tag_num=0x05)
 38: 0x03C6 [0x1C] WAIT(30* ticks)
 39: 0x03C9 [0x55] WAIT_LOAD_SCHEDULER: Wait for scheduler "s023" with entities [EventEntity, EventEntity], work=51*
 40: 0x03D8 [0x45] LOAD_SCHEDULED_TASK: Load scheduler "s024" with entities [EventEntity, EventEntity], work=[51*, 0*]
 41: 0x03E9 [0x27] REQ_SET(priority=0x0B, entity_id=Yagudo High Priest (ID: 17399834/0x0109801A), tag_num=0x05)
 42: 0x03F0 [0x4A] Yagudo Templar (ID: 17399833/0x01098019) looks at Ajido-Marujido (ID: 17399838/0x0109801E)
 43: 0x03F9 [0x4A] Yagudo Templar (ID: 17399832/0x01098018) looks at Ajido-Marujido (ID: 17399838/0x0109801E)
 44: 0x0402 [0x1C] WAIT(30* ticks)
 45: 0x0405 [0x4A] Yagudo Templar (ID: 17399833/0x01098019) looks at Ajido-Marujido (ID: 17399838/0x0109801E)
 46: 0x040E [0x4A] Yagudo Templar (ID: 17399832/0x01098018) looks at Ajido-Marujido (ID: 17399838/0x0109801E)
 47: 0x0417 [0x27] REQ_SET(priority=0x0B, entity_id=Yagudo Avatar (ID: 17399831/0x01098017), tag_num=0x06)
 48: 0x041E [0x79] Ajido-Marujido (ID: 17399838/0x0109801E) looks at Yagudo Avatar (ID: 17399831/0x01098017) (Basic look)
 49: 0x0428 [0x1C] WAIT(50* ticks)
 50: 0x042B [0x27] REQ_SET(priority=0x0B, entity_id=Yagudo High Priest (ID: 17399836/0x0109801C), tag_num=0x06)
 51: 0x0432 [0x55] WAIT_LOAD_SCHEDULER: Wait for scheduler "s024" with entities [EventEntity, EventEntity], work=51*
 52: 0x0441 [0x45] LOAD_SCHEDULED_TASK: Load scheduler "s025" with entities [EventEntity, EventEntity], work=[51*, 0*]
 53: 0x0452 [0x29] REQ_SET_WAIT(priority=0x08, entity_id=DIRECTOR (ID: 17399828/0x01098014), tag_num=0x0A)
 54: 0x0459 [0x79] Yagudo Avatar (ID: 17399831/0x01098017) looks at Ajido-Marujido (ID: 17399838/0x0109801E) (Basic look)
 55: 0x0463 [0x4A] Yagudo Templar (ID: 17399833/0x01098019) looks at Ajido-Marujido (ID: 17399838/0x0109801E)
 56: 0x046C [0x4A] Yagudo Templar (ID: 17399832/0x01098018) looks at Ajido-Marujido (ID: 17399838/0x0109801E)
 57: 0x0475 [0x79] Yagudo Templar (ID: 17399833/0x01098019) looks at Ajido-Marujido (ID: 17399838/0x0109801E) (Basic look)
 58: 0x047F [0x79] Yagudo Templar (ID: 17399832/0x01098018) looks at Ajido-Marujido (ID: 17399838/0x0109801E) (Basic look)
 59: 0x0489 [0x27] REQ_SET(priority=0x0B, entity_id=Yagudo High Priest (ID: 17399837/0x0109801D), tag_num=0x05)
 60: 0x0490 [0x4A] Yagudo Templar (ID: 17399833/0x01098019) looks at Ajido-Marujido (ID: 17399838/0x0109801E)
 61: 0x0499 [0x4A] Yagudo Templar (ID: 17399832/0x01098018) looks at Ajido-Marujido (ID: 17399838/0x0109801E)
 62: 0x04A2 [0x1C] WAIT(50* ticks)
 63: 0x04A5 [0x27] REQ_SET(priority=0x0B, entity_id=Yagudo High Priest (ID: 17399835/0x0109801B), tag_num=0x05)
 64: 0x04AC [0x27] REQ_SET(priority=0x0B, entity_id=Yagudo Avatar (ID: 17399831/0x01098017), tag_num=0x07)
 65: 0x04B3 [0x4A] Yagudo Templar (ID: 17399833/0x01098019) looks at Ajido-Marujido (ID: 17399838/0x0109801E)
 66: 0x04BC [0x4A] Yagudo Templar (ID: 17399832/0x01098018) looks at Ajido-Marujido (ID: 17399838/0x0109801E)
 67: 0x04C5 [0x1C] WAIT(30* ticks)
 68: 0x04C8 [0x4A] Yagudo Templar (ID: 17399833/0x01098019) looks at Ajido-Marujido (ID: 17399838/0x0109801E)
 69: 0x04D1 [0x4A] Yagudo Templar (ID: 17399832/0x01098018) looks at Ajido-Marujido (ID: 17399838/0x0109801E)
 70: 0x04DA [0x1C] WAIT(30* ticks)
 71: 0x04DD [0x4A] Yagudo Templar (ID: 17399833/0x01098019) looks at Ajido-Marujido (ID: 17399838/0x0109801E)
 72: 0x04E6 [0x4A] Yagudo Templar (ID: 17399832/0x01098018) looks at Ajido-Marujido (ID: 17399838/0x0109801E)
 73: 0x04EF [0x1C] WAIT(30* ticks)
 74: 0x04F2 [0x4A] Yagudo Templar (ID: 17399833/0x01098019) looks at Ajido-Marujido (ID: 17399838/0x0109801E)
 75: 0x04FB [0x4A] Yagudo Templar (ID: 17399832/0x01098018) looks at Ajido-Marujido (ID: 17399838/0x0109801E)
 76: 0x0504 [0x1C] WAIT(10* ticks)
 77: 0x0507 [0x52] END_LOAD_SCHEDULER: End scheduler "s025" with entities [EventEntity, EventEntity], work=51*
 78: 0x0516 [0x45] LOAD_SCHEDULED_TASK: Load scheduler "s012" with entities [EventEntity, EventEntity], work=[51*, 0*]
 79: 0x0527 [0x29] REQ_SET_WAIT(priority=0x08, entity_id=DIRECTOR (ID: 17399828/0x01098014), tag_num=0x0B)
 80: 0x052E [0x4A] Yagudo Templar (ID: 17399833/0x01098019) looks at Ajido-Marujido (ID: 17399838/0x0109801E)
 81: 0x0537 [0x4A] Yagudo Templar (ID: 17399832/0x01098018) looks at Ajido-Marujido (ID: 17399838/0x0109801E)
 82: 0x0540 [0x4B] UPDATE_ENTITY_YAW(entity=Ajido-Marujido (ID: 17399838/0x0109801E), yaw=16.9°*)
 83: 0x0547 [0x55] WAIT_LOAD_SCHEDULER: Wait for scheduler "s012" with entities [EventEntity, EventEntity], work=51*
 84: 0x0556 [0x2A] GET_REQ_LEVEL(level=11, entity_id=Yagudo High Priest (ID: 17399836/0x0109801C))
 85: 0x055C [0x2A] GET_REQ_LEVEL(level=11, entity_id=Yagudo High Priest (ID: 17399835/0x0109801B))
 86: 0x0562 [0x2A] GET_REQ_LEVEL(level=11, entity_id=Ajido-Marujido (ID: 17399838/0x0109801E))
 87: 0x0568 [0x2A] GET_REQ_LEVEL(level=11, entity_id=Yagudo High Priest (ID: 17399836/0x0109801C))
 88: 0x056E [0x2A] GET_REQ_LEVEL(level=11, entity_id=Yagudo Avatar (ID: 17399831/0x01098017))
 89: 0x0574 [0x2A] GET_REQ_LEVEL(level=11, entity_id=Yagudo High Priest (ID: 17399834/0x0109801A))
 90: 0x057A [0x2A] GET_REQ_LEVEL(level=11, entity_id=Yagudo Avatar (ID: 17399831/0x01098017))
 91: 0x0580 [0x2A] GET_REQ_LEVEL(level=11, entity_id=Yagudo High Priest (ID: 17399837/0x0109801D))
 92: 0x0586 [0x2A] GET_REQ_LEVEL(level=11, entity_id=Yagudo Avatar (ID: 17399831/0x01098017))
 93: 0x058C [0x4E] SET_ENTITY_HIDE_FLAG: Hide DIRECTOR (ID: 17399828/0x01098014)
 94: 0x0592 [0x45] LOAD_SCHEDULED_TASK: Load scheduler "s011" with entities [EventEntity, EventEntity], work=[51*, 0*]
 95: 0x05A3 [0x55] WAIT_LOAD_SCHEDULER: Wait for scheduler "s011" with entities [EventEntity, EventEntity], work=51*
 96: 0x05B2 [0x29] REQ_SET_WAIT(priority=0x0B, entity_id=Yagudo Avatar (ID: 17399831/0x01098017), tag_num=0x08)
 97: 0x05B9 [0x79] Yagudo High Priest (ID: 17399834/0x0109801A) looks at Yagudo Avatar (ID: 17399831/0x01098017) (Basic look)
 98: 0x05C3 [0x79] Yagudo High Priest (ID: 17399835/0x0109801B) looks at Yagudo Avatar (ID: 17399831/0x01098017) (Basic look)
 99: 0x05CD [0x79] Yagudo High Priest (ID: 17399836/0x0109801C) looks at Yagudo Avatar (ID: 17399831/0x01098017) (Basic look)
100: 0x05D7 [0x79] Yagudo High Priest (ID: 17399837/0x0109801D) looks at Yagudo Avatar (ID: 17399831/0x01098017) (Basic look)
101: 0x05E1 [0x2B] Yagudo Avatar (ID: 17399831/0x01098017) [7283*]:
    → "You say you are the Windurst Orastery minister, Ajido-Marujido?"
102: 0x05E8 [0x23] WAIT_FOR_DIALOG_INTERACTION
103: 0x05E9 [0x45] LOAD_SCHEDULED_TASK: Load scheduler "s013" with entities [EventEntity, EventEntity], work=[51*, 0*]
104: 0x05FA [0x29] REQ_SET_WAIT(priority=0x0B, entity_id=Yagudo Templar (ID: 17399832/0x01098018), tag_num=0x04)
105: 0x0601 [0x52] END_LOAD_SCHEDULER: End scheduler "s013" with entities [EventEntity, EventEntity], work=51*
106: 0x0610 [0x45] LOAD_SCHEDULED_TASK: Load scheduler "s026" with entities [EventEntity, EventEntity], work=[51*, 0*]
107: 0x0621 [0x2B] Yagudo Templar (ID: 17399833/0x01098019) [7285*]:
    → "I should cut you up and send you to Heavens Tower! Gawk! Gawk!"
108: 0x0628 [0x23] WAIT_FOR_DIALOG_INTERACTION
109: 0x0629 [0x79] Yagudo Avatar (ID: 17399831/0x01098017) looks at Yagudo Templar (ID: 17399833/0x01098019) (Basic look)
110: 0x0633 [0x29] REQ_SET_WAIT(priority=0x0B, entity_id=Yagudo Avatar (ID: 17399831/0x01098017), tag_num=0x09)
111: 0x063A [0x52] END_LOAD_SCHEDULER: End scheduler "s026" with entities [EventEntity, EventEntity], work=51*
112: 0x0649 [0x45] LOAD_SCHEDULED_TASK: Load scheduler "fdo1" with entities [EventEntity, EventEntity], work=[200*, 0*]
113: 0x065A [0x1C] WAIT(120* ticks)
114: 0x065D [0x7B] Yagudo Avatar (ID: 17399831/0x01098017) stops talking
115: 0x0662 [0x29] REQ_SET_WAIT(priority=0x0B, entity_id=Yagudo High Priest (ID: 17399834/0x0109801A), tag_num=0x04)
116: 0x0669 [0x29] REQ_SET_WAIT(priority=0x0B, entity_id=Yagudo High Priest (ID: 17399835/0x0109801B), tag_num=0x04)
117: 0x0670 [0x29] REQ_SET_WAIT(priority=0x0B, entity_id=Yagudo High Priest (ID: 17399836/0x0109801C), tag_num=0x04)
118: 0x0677 [0x29] REQ_SET_WAIT(priority=0x0B, entity_id=Yagudo High Priest (ID: 17399837/0x0109801D), tag_num=0x04)
119: 0x067E [0x29] REQ_SET_WAIT(priority=0x0B, entity_id=Yagudo Templar (ID: 17399833/0x01098019), tag_num=0x05)
120: 0x0685 [0x29] REQ_SET_WAIT(priority=0x0B, entity_id=Ajido-Marujido (ID: 17399838/0x0109801E), tag_num=0x0E)
121: 0x068C [0x4A] Ajido-Marujido (ID: 17399838/0x0109801E) looks at Yagudo Avatar (ID: 17399831/0x01098017)
122: 0x0695 [0x4A] Yagudo High Priest (ID: 17399834/0x0109801A) looks at Ajido-Marujido (ID: 17399838/0x0109801E)
123: 0x069E [0x4A] Yagudo High Priest (ID: 17399835/0x0109801B) looks at Ajido-Marujido (ID: 17399838/0x0109801E)
124: 0x06A7 [0x4A] Yagudo High Priest (ID: 17399836/0x0109801C) looks at Ajido-Marujido (ID: 17399838/0x0109801E)
125: 0x06B0 [0x4A] Yagudo High Priest (ID: 17399837/0x0109801D) looks at Ajido-Marujido (ID: 17399838/0x0109801E)
126: 0x06B9 [0x1C] WAIT(120* ticks)
127: 0x06BC [0x45] LOAD_SCHEDULED_TASK: Load scheduler "s015" with entities [EventEntity, EventEntity], work=[51*, 0*]
128: 0x06CD [0x45] LOAD_SCHEDULED_TASK: Load scheduler "fdi1" with entities [EventEntity, EventEntity], work=[200*, 0*]
129: 0x06DE [0x55] WAIT_LOAD_SCHEDULER: Wait for scheduler "s015" with entities [EventEntity, EventEntity], work=51*
130: 0x06ED [0x45] LOAD_SCHEDULED_TASK: Load scheduler "s016" with entities [EventEntity, EventEntity], work=[51*, 0*]
131: 0x06FE [0x1C] WAIT(50* ticks)
132: 0x0701 [0x29] REQ_SET_WAIT(priority=0x0B, entity_id=Yagudo Avatar (ID: 17399831/0x01098017), tag_num=0x0A)
133: 0x0708 [0x52] END_LOAD_SCHEDULER: End scheduler "s016" with entities [EventEntity, EventEntity], work=51*
134: 0x0717 [0x45] LOAD_SCHEDULED_TASK: Load scheduler "s011" with entities [EventEntity, EventEntity], work=[51*, 0*]
135: 0x0728 [0x29] REQ_SET_WAIT(priority=0x0B, entity_id=Yagudo Avatar (ID: 17399831/0x01098017), tag_num=0x0B)
136: 0x072F [0x45] LOAD_SCHEDULED_TASK: Load scheduler "fdo1" with entities [EventEntity, EventEntity], work=[200*, 0*]
137: 0x0740 [0x1C] WAIT(60* ticks)
138: 0x0743 [0x52] END_LOAD_SCHEDULER: End scheduler "s011" with entities [EventEntity, EventEntity], work=51*
139: 0x0752 [0x45] LOAD_SCHEDULED_TASK: Load scheduler "s017" with entities [EventEntity, EventEntity], work=[51*, 0*]
140: 0x0763 [0x27] REQ_SET(priority=0x0B, entity_id=Yagudo Avatar (ID: 17399831/0x01098017), tag_num=0x04)
141: 0x076A [0x45] LOAD_SCHEDULED_TASK: Load scheduler "fdi1" with entities [EventEntity, EventEntity], work=[200*, 0*]
142: 0x077B [0x2B] Yagudo Avatar (ID: 17399831/0x01098017) [7289*]:
    → "Those ruins are evil."
143: 0x0782 [0x23] WAIT_FOR_DIALOG_INTERACTION
144: 0x0783 [0x2B] Yagudo Avatar (ID: 17399831/0x01098017) [7290*]:
    → "The towers sponge dry the areas around Sarutabaruta of all their magic."
145: 0x078A [0x23] WAIT_FOR_DIALOG_INTERACTION
146: 0x078B [0x2A] GET_REQ_LEVEL(level=11, entity_id=Yagudo Avatar (ID: 17399831/0x01098017))
147: 0x0791 [0x52] END_LOAD_SCHEDULER: End scheduler "s017" with entities [EventEntity, EventEntity], work=51*
148: 0x07A0 [0x45] LOAD_SCHEDULED_TASK: Load scheduler "s027" with entities [EventEntity, EventEntity], work=[51*, 0*]
149: 0x07B1 [0x29] REQ_SET_WAIT(priority=0x0B, entity_id=Yagudo Avatar (ID: 17399831/0x01098017), tag_num=0x0D)
150: 0x07B8 [0x52] END_LOAD_SCHEDULER: End scheduler "s027" with entities [EventEntity, EventEntity], work=51*
151: 0x07C7 [0x45] LOAD_SCHEDULED_TASK: Load scheduler "s019" with entities [EventEntity, EventEntity], work=[51*, 0*]
152: 0x07D8 [0x29] REQ_SET_WAIT(priority=0x0B, entity_id=Ajido-Marujido (ID: 17399838/0x0109801E), tag_num=0x11)
153: 0x07DF [0x29] REQ_SET_WAIT(priority=0x0B, entity_id=Ajido-Marujido (ID: 17399838/0x0109801E), tag_num=0x12)
154: 0x07E6 [0x52] END_LOAD_SCHEDULER: End scheduler "s019" with entities [EventEntity, EventEntity], work=51*
155: 0x07F5 [0x45] LOAD_SCHEDULED_TASK: Load scheduler "s020" with entities [Ajido-Marujido (ID: 17399838/0x0109801E), Ajido-Marujido (ID: 17399838/0x0109801E)], work=[51*, 0*]
156: 0x0806 [0x4B] UPDATE_ENTITY_YAW(entity=Yagudo Avatar (ID: 17399831/0x01098017), yaw=17.3°*)
157: 0x080D [0x55] WAIT_LOAD_SCHEDULER: Wait for scheduler "s020" with entities [Ajido-Marujido (ID: 17399838/0x0109801E), Ajido-Marujido (ID: 17399838/0x0109801E)], work=51*
158: 0x081C [0x29] REQ_SET_WAIT(priority=0x0B, entity_id=Yagudo Avatar (ID: 17399831/0x01098017), tag_num=0x0F)
159: 0x0823 [0x29] REQ_SET_WAIT(priority=0x0B, entity_id=Yagudo Avatar (ID: 17399831/0x01098017), tag_num=0x10)
160: 0x082A [0x29] REQ_SET_WAIT(priority=0x0B, entity_id=Yagudo Avatar (ID: 17399831/0x01098017), tag_num=0x11)
161: 0x0831 [0x45] LOAD_SCHEDULED_TASK: Load scheduler "fdo1" with entities [EventEntity, EventEntity], work=[200*, 0*]
162: 0x0842 [0x1C] WAIT(60* ticks)
163: 0x0845 [0x4A] Yagudo Avatar (ID: 17399831/0x01098017) looks at Ajido-Marujido (ID: 17399838/0x0109801E)
164: 0x084E [0x29] REQ_SET_WAIT(priority=0x0B, entity_id=Yagudo Avatar (ID: 17399831/0x01098017), tag_num=0x12)
165: 0x0855 [0x45] LOAD_SCHEDULED_TASK: Load scheduler "s022" with entities [EventEntity, EventEntity], work=[51*, 0*]
166: 0x0866 [0x45] LOAD_SCHEDULED_TASK: Load scheduler "fdi1" with entities [EventEntity, EventEntity], work=[200*, 0*]
167: 0x0877 [0x29] REQ_SET_WAIT(priority=0x0B, entity_id=Yagudo Avatar (ID: 17399831/0x01098017), tag_num=0x13)
168: 0x087E [0x2B] Yagudo Avatar (ID: 17399831/0x01098017) [7299*]:
    → "The moon and the stars no longer smile upon Windurst. Now, the world shall kneel before the Yagudo!"
169: 0x0885 [0x23] WAIT_FOR_DIALOG_INTERACTION
170: 0x0886 [0x52] END_LOAD_SCHEDULER: End scheduler "s022" with entities [EventEntity, EventEntity], work=51*
171: 0x0895 [0x45] LOAD_SCHEDULED_TASK: Load scheduler "s021" with entities [EventEntity, EventEntity], work=[51*, 0*]
172: 0x08A6 [0x5D] SET_MUSIC_VOLUME(volume=0*, fade_time=200*)
173: 0x08AB [0x45] LOAD_SCHEDULED_TASK: Load scheduler "blon" with entities [EventEntity, EventEntity], work=[200*, 0*]
174: 0x08BC [0x45] LOAD_SCHEDULED_TASK: Load scheduler "blon" with entities [EventEntity, EventEntity], work=[201*, 0*]
175: 0x08CD [0x45] LOAD_SCHEDULED_TASK: Load scheduler "who1" with entities [EventEntity, EventEntity], work=[201*, 0*]
176: 0x08DE [0x1C] WAIT(60* ticks)
177: 0x08E1 [0x4E] SET_ENTITY_HIDE_FLAG: Show LocalPlayer
178: 0x08E7 [0x00] END_REQSTACK()
```

### Event 65535.2

#### Metadata

| Field        | Value     |
|--------------|-----------|
| Entrypoint   | 0x08E8    |
| Data Size    | 493 bytes |
| Instructions | 56        |

```
      00 01 02 03 04 05 06 07  08 09 0A 0B 0C 0D 0E 0F
      -- -- -- -- -- -- -- --  -- -- -- -- -- -- -- --
08E0:                          46 01 1C 22 80 33 01 5C          F..".3.\
08F0: 00 27 80 5C 01 27 80 5D  16 80 17 80 33 01 37 28  .'.\.'.]....3.7(
0900: 80 29 80 2A 80 2B 80 75  00 13 80 75 01 4E 00 15  .).*.+.u...u.N..
0910: 80 09 01 4E 01 1F 80 09  01 4E 01 F0 FF FF 7F 77  ...N.....N.....w
0920: 09 80 01 80 29 0B 15 80  09 01 21 27 0B 15 80 09  ....).....!'....
0930: 01 24 45 2C 80 F8 FF FF  7F F8 FF FF 7F 73 30 38  .$E,.........s08
0940: 31 01 80 45 03 80 15 80  09 01 15 80 09 01 62 6C  1..E..........bl
0950: 6F 66 01 80 45 04 80 F0  FF FF 7F F0 FF FF 7F 77  of..E..........w
0960: 68 69 31 01 80 55 2C 80  F8 FF FF 7F F8 FF FF 7F  hi1..U,.........
0970: 73 30 38 31 2A 0B 15 80  09 01 45 2C 80 F8 FF FF  s081*.....E,....
0980: 7F F8 FF FF 7F 73 30 39  35 01 80 4E 00 F8 FF FF  .....s095..N....
0990: 7F 29 08 15 80 09 01 0B  2B 15 80 09 01 2D 80 23  .)......+....-.#
09A0: 29 08 15 80 09 01 0C 29  08 15 80 09 01 09 2B 15  )......)......+.
09B0: 80 09 01 2E 80 23 29 08  15 80 09 01 0A 52 2C 80  .....#)......R,.
09C0: F8 FF FF 7F F8 FF FF 7F  73 30 39 35 62 09 80 F8  ........s095b...
09D0: FF FF 7F F8 FF FF 7F 6D  61 69 6E 01 80 45 2C 80  .......main..E,.
09E0: F8 FF FF 7F F8 FF FF 7F  73 30 38 34 01 80 55 2C  ........s084..U,
09F0: 80 F8 FF FF 7F F8 FF FF  7F 73 30 38 34 45 2C 80  .........s084E,.
0A00: F8 FF FF 7F F8 FF FF 7F  73 30 38 32 01 80 5D 01  ........s082..].
0A10: 80 05 80 62 09 80 F8 FF  FF 7F F8 FF FF 7F 6E 65  ...b..........ne
0A20: 78 74 01 80 1C 02 80 29  08 15 80 09 01 13 1C 05  xt.....)........
0A30: 80 55 2C 80 F8 FF FF 7F  F8 FF FF 7F 73 30 38 32  .U,.........s082
0A40: 45 2C 80 F8 FF FF 7F F8  FF FF 7F 73 30 38 35 01  E,.........s085.
0A50: 80 45 03 80 15 80 09 01  15 80 09 01 62 6C 6F 6E  .E..........blon
0A60: 01 80 45 04 80 F0 FF FF  7F F0 FF FF 7F 62 6C 6F  ..E..........blo
0A70: 6E 01 80 4E 00 1F 80 09  01 29 08 15 80 09 01 14  n..N.....)......
0A80: 27 0B 1F 80 09 01 03 55  2C 80 F8 FF FF 7F F8 FF  '......U,.......
0A90: FF 7F 73 30 38 35 45 04  80 F0 FF FF 7F F0 FF FF  ..s085E.........
0AA0: 7F 77 68 6F 31 01 80 45  03 80 15 80 09 01 15 80  .who1..E........
0AB0: 09 01 62 6C 6F 66 01 80  62 09 80 F8 FF FF 7F F8  ..blof..b.......
0AC0: FF FF 7F 73 74 6F 70 01  80 1C 02 80 46 00 4E 01  ...stop.....F.N.
0AD0: F8 FF FF 7F 00                                    .....           
```

#### Opcodes

```
  0: 0x08E8 [0x46] CAMERA_CONTROL: Disable user control
  1: 0x08EA [0x1C] WAIT(120* ticks)
  2: 0x08ED [0x33] EventEntity->Render.Flags0 |= 0x200000 // Bit 21 (flag=0x01)
  3: 0x08EF [0x5C] MUSIC_CONTROL: Set Idle (Day) music to song 159*
  4: 0x08F3 [0x5C] MUSIC_CONTROL: Set Idle (Night) music to song 159*
  5: 0x08F7 [0x5D] SET_MUSIC_VOLUME(volume=127*, fade_time=2*)
  6: 0x08FC [0x33] EventEntity->Render.Flags0 |= 0x200000 // Bit 21 (flag=0x01)
  7: 0x08FE [0x37] UPDATE_EVENT_POSITION_AND_DIR: x=-0.014*, z=0.041*, y=-44.879*, direction=304.4°*
  8: 0x0907 [0x75] LOAD_ROOM(Load indoor room, room=427*)
  9: 0x090B [0x75] LOAD_ROOM(No action)
 10: 0x090D [0x4E] SET_ENTITY_HIDE_FLAG: Show Star Sibyl (ID: 17399829/0x01098015)
 11: 0x0913 [0x4E] SET_ENTITY_HIDE_FLAG: Hide Unnamed NPC (ID: 17399839/0x0109801F)
 12: 0x0919 [0x4E] SET_ENTITY_HIDE_FLAG: Hide LocalPlayer
 13: 0x091F [0x77] SET_EVENT_TIME_WEATHER(hour=12*, weather=0*)
 14: 0x0924 [0x29] REQ_SET_WAIT(priority=0x0B, entity_id=Star Sibyl (ID: 17399829/0x01098015), tag_num=0x21)
 15: 0x092B [0x27] REQ_SET(priority=0x0B, entity_id=Star Sibyl (ID: 17399829/0x01098015), tag_num=0x24)
 16: 0x0932 [0x45] LOAD_SCHEDULED_TASK: Load scheduler "s081" with entities [EventEntity, EventEntity], work=[142*, 0*]
 17: 0x0943 [0x45] LOAD_SCHEDULED_TASK: Load scheduler "blof" with entities [Star Sibyl (ID: 17399829/0x01098015), Star Sibyl (ID: 17399829/0x01098015)], work=[200*, 0*]
 18: 0x0954 [0x45] LOAD_SCHEDULED_TASK: Load scheduler "whi1" with entities [LocalPlayer, LocalPlayer], work=[201*, 0*]
 19: 0x0965 [0x55] WAIT_LOAD_SCHEDULER: Wait for scheduler "s081" with entities [EventEntity, EventEntity], work=142*
 20: 0x0974 [0x2A] GET_REQ_LEVEL(level=11, entity_id=Star Sibyl (ID: 17399829/0x01098015))
 21: 0x097A [0x45] LOAD_SCHEDULED_TASK: Load scheduler "s095" with entities [EventEntity, EventEntity], work=[142*, 0*]
 22: 0x098B [0x4E] SET_ENTITY_HIDE_FLAG: Show EventEntity
 23: 0x0991 [0x29] REQ_SET_WAIT(priority=0x08, entity_id=Star Sibyl (ID: 17399829/0x01098015), tag_num=0x0B)
 24: 0x0998 [0x2B] Star Sibyl (ID: 17399829/0x01098015) [7106*]:
    → "Stars of the heavens, tell me what to do!"
 25: 0x099F [0x23] WAIT_FOR_DIALOG_INTERACTION
 26: 0x09A0 [0x29] REQ_SET_WAIT(priority=0x08, entity_id=Star Sibyl (ID: 17399829/0x01098015), tag_num=0x0C)
 27: 0x09A7 [0x29] REQ_SET_WAIT(priority=0x08, entity_id=Star Sibyl (ID: 17399829/0x01098015), tag_num=0x09)
 28: 0x09AE [0x2B] Star Sibyl (ID: 17399829/0x01098015) [7107*]:
    → "Tell me, Karaha-Baruha! Help me!"
 29: 0x09B5 [0x23] WAIT_FOR_DIALOG_INTERACTION
 30: 0x09B6 [0x29] REQ_SET_WAIT(priority=0x08, entity_id=Star Sibyl (ID: 17399829/0x01098015), tag_num=0x0A)
 31: 0x09BD [0x52] END_LOAD_SCHEDULER: End scheduler "s095" with entities [EventEntity, EventEntity], work=142*
 32: 0x09CC [0x62] LOAD_EVENT_SCHEDULER: Load scheduler "main" with entities [EventEntity, EventEntity], work=[12*, 0*]
 33: 0x09DD [0x45] LOAD_SCHEDULED_TASK: Load scheduler "s084" with entities [EventEntity, EventEntity], work=[142*, 0*]
 34: 0x09EE [0x55] WAIT_LOAD_SCHEDULER: Wait for scheduler "s084" with entities [EventEntity, EventEntity], work=142*
 35: 0x09FD [0x45] LOAD_SCHEDULED_TASK: Load scheduler "s082" with entities [EventEntity, EventEntity], work=[142*, 0*]
 36: 0x0A0E [0x5D] SET_MUSIC_VOLUME(volume=0*, fade_time=60*)
 37: 0x0A13 [0x62] LOAD_EVENT_SCHEDULER: Load scheduler "next" with entities [EventEntity, EventEntity], work=[12*, 0*]
 38: 0x0A24 [0x1C] WAIT(100* ticks)
 39: 0x0A27 [0x29] REQ_SET_WAIT(priority=0x08, entity_id=Star Sibyl (ID: 17399829/0x01098015), tag_num=0x13)
 40: 0x0A2E [0x1C] WAIT(60* ticks)
 41: 0x0A31 [0x55] WAIT_LOAD_SCHEDULER: Wait for scheduler "s082" with entities [EventEntity, EventEntity], work=142*
 42: 0x0A40 [0x45] LOAD_SCHEDULED_TASK: Load scheduler "s085" with entities [EventEntity, EventEntity], work=[142*, 0*]
 43: 0x0A51 [0x45] LOAD_SCHEDULED_TASK: Load scheduler "blon" with entities [Star Sibyl (ID: 17399829/0x01098015), Star Sibyl (ID: 17399829/0x01098015)], work=[200*, 0*]
 44: 0x0A62 [0x45] LOAD_SCHEDULED_TASK: Load scheduler "blon" with entities [LocalPlayer, LocalPlayer], work=[201*, 0*]
 45: 0x0A73 [0x4E] SET_ENTITY_HIDE_FLAG: Show Unnamed NPC (ID: 17399839/0x0109801F)
 46: 0x0A79 [0x29] REQ_SET_WAIT(priority=0x08, entity_id=Star Sibyl (ID: 17399829/0x01098015), tag_num=0x14)
 47: 0x0A80 [0x27] REQ_SET(priority=0x0B, entity_id=Unnamed NPC (ID: 17399839/0x0109801F), tag_num=0x03)
 48: 0x0A87 [0x55] WAIT_LOAD_SCHEDULER: Wait for scheduler "s085" with entities [EventEntity, EventEntity], work=142*
 49: 0x0A96 [0x45] LOAD_SCHEDULED_TASK: Load scheduler "who1" with entities [LocalPlayer, LocalPlayer], work=[201*, 0*]
 50: 0x0AA7 [0x45] LOAD_SCHEDULED_TASK: Load scheduler "blof" with entities [Star Sibyl (ID: 17399829/0x01098015), Star Sibyl (ID: 17399829/0x01098015)], work=[200*, 0*]
 51: 0x0AB8 [0x62] LOAD_EVENT_SCHEDULER: Load scheduler "stop" with entities [EventEntity, EventEntity], work=[12*, 0*]
 52: 0x0AC9 [0x1C] WAIT(100* ticks)
 53: 0x0ACC [0x46] CAMERA_CONTROL: Restore default settings
 54: 0x0ACE [0x4E] SET_ENTITY_HIDE_FLAG: Hide EventEntity
 55: 0x0AD4 [0x00] END_REQSTACK()
```

### Event 42

#### Metadata

| Field        | Value     |
|--------------|-----------|
| Entrypoint   | 0x0AD5    |
| Data Size    | 983 bytes |
| Instructions | 117       |

```
      00 01 02 03 04 05 06 07  08 09 0A 0B 0C 0D 0E 0F
      -- -- -- -- -- -- -- --  -- -- -- -- -- -- -- --
0AD0:                46 01 42  5C 00 01 80 5C 01 01 80       F.B\...\...
0AE0: 5D 16 80 05 80 4E 00 F0  FF FF 7F 80 F0 FF FF 7F  ]....N..........
0AF0: 29 0B F0 FF FF 7F 06 45  2F 80 F0 FF FF 7F F0 FF  )......E/.......
0B00: FF 7F 73 30 30 30 01 80  45 04 80 F0 FF FF 7F F0  ..s000..E.......
0B10: FF FF 7F 77 68 69 31 01  80 1C 05 80 55 2F 80 F0  ...whi1.....U/..
0B20: FF FF 7F F0 FF FF 7F 73  30 30 30 2B 21 80 09 01  .......s000+!...
0B30: 30 80 23 27 0B 21 80 09  01 10 1C 1E 80 4A F0 FF  0.#'.!.......J..
0B40: FF 7F 21 80 09 01 45 2F  80 F0 FF FF 7F F0 FF FF  ..!...E/........
0B50: 7F 73 30 30 31 01 80 29  0B 21 80 09 01 14 2B 21  .s001..).!....+!
0B60: 80 09 01 31 80 23 2A 0B  21 80 09 01 1C 1D 80 52  ...1.#*.!......R
0B70: 2F 80 F0 FF FF 7F F0 FF  FF 7F 73 30 30 31 45 2F  /.........s001E/
0B80: 80 F0 FF FF 7F F0 FF FF  7F 73 30 30 32 01 80 52  .........s002..R
0B90: 2F 80 F0 FF FF 7F F0 FF  FF 7F 73 30 30 32 4E 00  /.........s002N.
0BA0: 22 80 09 01 2C 22 80 09  01 22 80 09 01 69 6E 69  "...,"..."...ini
0BB0: 74 6C 22 80 09 01 32 80  12 80 5D 01 80 02 80 45  tl"...2...]....E
0BC0: 03 80 F0 FF FF 7F F0 FF  FF 7F 62 6C 6F 6E 01 80  ..........blon..
0BD0: 45 04 80 F0 FF FF 7F F0  FF FF 7F 62 6C 6F 6E 01  E..........blon.
0BE0: 80 45 2F 80 F0 FF FF 7F  F0 FF FF 7F 73 30 30 33  .E/.........s003
0BF0: 01 80 1C 33 80 4A F0 FF  FF 7F 22 80 09 01 1C 33  ...3.J...."....3
0C00: 80 4A 21 80 09 01 22 80  09 01 27 0B 21 80 09 01  .J!..."...'.!...
0C10: 11 2B 21 80 09 01 34 80  23 55 2F 80 F0 FF FF 7F  .+!...4.#U/.....
0C20: F0 FF FF 7F 73 30 30 33  45 04 80 F0 FF FF 7F F0  ....s003E.......
0C30: FF FF 7F 77 68 6F 31 01  80 1C 05 80 5C 00 35 80  ...who1.....\.5.
0C40: 5C 01 35 80 5D 16 80 02  80 1C 03 80 2A 0B 21 80  \.5.].......*.!.
0C50: 09 01 45 2F 80 F0 FF FF  7F F0 FF FF 7F 73 30 30  ..E/.........s00
0C60: 34 01 80 45 04 80 F0 FF  FF 7F F0 FF FF 7F 77 68  4..E..........wh
0C70: 69 31 01 80 27 0B F0 FF  FF 7F 08 29 0B 22 80 09  i1..'......)."..
0C80: 01 0E 52 2F 80 F0 FF FF  7F F0 FF FF 7F 73 30 30  ..R/.........s00
0C90: 34 2A 0B F0 FF FF 7F 45  2F 80 F0 FF FF 7F F0 FF  4*.....E/.......
0CA0: FF 7F 73 30 30 35 01 80  27 0B F0 FF FF 7F 08 29  ..s005..'......)
0CB0: 08 22 80 09 01 03 29 0B  22 80 09 01 0F 52 2F 80  ."....)."....R/.
0CC0: F0 FF FF 7F F0 FF FF 7F  73 30 30 35 2A 0B F0 FF  ........s005*...
0CD0: FF 7F 45 2F 80 F0 FF FF  7F F0 FF FF 7F 73 30 30  ..E/.........s00
0CE0: 36 01 80 29 08 21 80 09  01 01 29 0B 21 80 09 01  6..).!....).!...
0CF0: 16 52 2F 80 F0 FF FF 7F  F0 FF FF 7F 73 30 30 36  .R/.........s006
0D00: 45 2F 80 F0 FF FF 7F F0  FF FF 7F 73 30 30 37 01  E/.........s007.
0D10: 80 27 0B F0 FF FF 7F 08  29 08 21 80 09 01 03 29  .'......).!....)
0D20: 0B 22 80 09 01 10 29 08  22 80 09 01 04 29 08 21  ."....)."....).!
0D30: 80 09 01 04 52 2F 80 F0  FF FF 7F F0 FF FF 7F 73  ....R/.........s
0D40: 30 30 37 2A 0B F0 FF FF  7F 45 2F 80 F0 FF FF 7F  007*.....E/.....
0D50: F0 FF FF 7F 73 30 31 30  01 80 27 0B F0 FF FF 7F  ....s010..'.....
0D60: 08 29 08 22 80 09 01 09  29 0B 22 80 09 01 11 55  .)."....)."....U
0D70: 2F 80 F0 FF FF 7F F0 FF  FF 7F 73 30 31 30 1C 1D  /.........s010..
0D80: 80 45 03 80 F8 FF FF 7F  F8 FF FF 7F 66 64 6F 31  .E..........fdo1
0D90: 01 80 29 0B F0 FF FF 7F  07 1C 02 80 29 08 22 80  ..).........).".
0DA0: 09 01 0A 4E 01 22 80 09  01 1C 03 80 2A 0B F0 FF  ...N."......*...
0DB0: FF 7F 45 2F 80 F0 FF FF  7F F0 FF FF 7F 73 30 30  ..E/.........s00
0DC0: 38 01 80 45 03 80 F8 FF  FF 7F F8 FF FF 7F 66 64  8..E..........fd
0DD0: 69 31 01 80 29 0B 21 80  09 01 17 27 0B 21 80 09  i1..).!....'.!..
0DE0: 01 12 1C 1E 80 52 2F 80  F0 FF FF 7F F0 FF FF 7F  .....R/.........
0DF0: 73 30 30 38 45 2F 80 F0  FF FF 7F F0 FF FF 7F 73  s008E/.........s
0E00: 30 30 39 01 80 2B 21 80  09 01 36 80 23 2A 0B 21  009..+!...6.#*.!
0E10: 80 09 01 52 2F 80 F0 FF  FF 7F F0 FF FF 7F 73 30  ...R/.........s0
0E20: 30 39 79 00 21 80 09 01  F0 FF FF 7F 2B 21 80 09  09y.!.......+!..
0E30: 01 37 80 23 7B 21 80 09  01 5D 01 80 03 80 45 2F  .7.#{!...]....E/
0E40: 80 F0 FF FF 7F F0 FF FF  7F 73 30 30 38 01 80 27  .........s008..'
0E50: 0B 21 80 09 01 13 1C 02  80 45 03 80 F8 FF FF 7F  .!.......E......
0E60: F8 FF FF 7F 66 64 6F 31  01 80 1C 38 80 52 2F 80  ....fdo1...8.R/.
0E70: F0 FF FF 7F F0 FF FF 7F  73 30 30 38 5C 00 01 80  ........s008\...
0E80: 5C 01 01 80 5D 16 80 12  80 2A 0B 21 80 09 01 4E  \...]....*.!...N
0E90: 00 F0 FF FF 7F 46 00 45  03 80 F8 FF FF 7F F8 FF  .....F.E........
0EA0: FF 7F 66 64 69 31 01 80  20 00 21 00              ..fdi1.. .!.    
```

#### Opcodes

```
  0: 0x0AD5 [0x46] CAMERA_CONTROL: Disable user control
  1: 0x0AD7 [0x42] SET_CLI_EVENT_CANCEL_DATA()
  2: 0x0AD8 [0x5C] MUSIC_CONTROL: Set Idle (Day) music to song 0*
  3: 0x0ADC [0x5C] MUSIC_CONTROL: Set Idle (Night) music to song 0*
  4: 0x0AE0 [0x5D] SET_MUSIC_VOLUME(volume=127*, fade_time=60*)
  5: 0x0AE5 [0x4E] SET_ENTITY_HIDE_FLAG: Show LocalPlayer
  6: 0x0AEB [0x80] LOAD_WAIT(entity=LocalPlayer)
  7: 0x0AF0 [0x29] REQ_SET_WAIT(priority=0x0B, entity_id=LocalPlayer, tag_num=0x06)
  8: 0x0AF7 [0x45] LOAD_SCHEDULED_TASK: Load scheduler "s000" with entities [LocalPlayer, LocalPlayer], work=[52*, 0*]
  9: 0x0B08 [0x45] LOAD_SCHEDULED_TASK: Load scheduler "whi1" with entities [LocalPlayer, LocalPlayer], work=[201*, 0*]
 10: 0x0B19 [0x1C] WAIT(60* ticks)
 11: 0x0B1C [0x55] WAIT_LOAD_SCHEDULER: Wait for scheduler "s000" with entities [LocalPlayer, LocalPlayer], work=52*
 12: 0x0B2B [0x2B] Lion (ID: 17399841/0x01098021) [7108*]:
    → "What happened? Are you all right?"
 13: 0x0B32 [0x23] WAIT_FOR_DIALOG_INTERACTION
 14: 0x0B33 [0x27] REQ_SET(priority=0x0B, entity_id=Lion (ID: 17399841/0x01098021), tag_num=0x10)
 15: 0x0B3A [0x1C] WAIT(10* ticks)
 16: 0x0B3D [0x4A] LocalPlayer looks at Lion (ID: 17399841/0x01098021)
 17: 0x0B46 [0x45] LOAD_SCHEDULED_TASK: Load scheduler "s001" with entities [LocalPlayer, LocalPlayer], work=[52*, 0*]
 18: 0x0B57 [0x29] REQ_SET_WAIT(priority=0x0B, entity_id=Lion (ID: 17399841/0x01098021), tag_num=0x14)
 19: 0x0B5E [0x2B] Lion (ID: 17399841/0x01098021) [7110*]:
    → "What could they possibly want with it?"
 20: 0x0B65 [0x23] WAIT_FOR_DIALOG_INTERACTION
 21: 0x0B66 [0x2A] GET_REQ_LEVEL(level=11, entity_id=Lion (ID: 17399841/0x01098021))
 22: 0x0B6C [0x1C] WAIT(30* ticks)
 23: 0x0B6F [0x52] END_LOAD_SCHEDULER: End scheduler "s001" with entities [LocalPlayer, LocalPlayer], work=52*
 24: 0x0B7E [0x45] LOAD_SCHEDULED_TASK: Load scheduler "s002" with entities [LocalPlayer, LocalPlayer], work=[52*, 0*]
 25: 0x0B8F [0x52] END_LOAD_SCHEDULER: End scheduler "s002" with entities [LocalPlayer, LocalPlayer], work=52*
 26: 0x0B9E [0x4E] SET_ENTITY_HIDE_FLAG: Show Shadow of Darkness (ID: 17399842/0x01098022)
 27: 0x0BA4 [0x2C] CREATE_SCHEDULER_TASK: Create scheduler "init" with entities [Shadow of Darkness (ID: 17399842/0x01098022), Shadow of Darkness (ID: 17399842/0x01098022)]
 28: 0x0BB1 [0x6C] FADE_ENTITY_COLOR(entity_id=Shadow of Darkness (ID: 17399842/0x01098022), end_alpha=72*, fade_time=1*)
 29: 0x0BBA [0x5D] SET_MUSIC_VOLUME(volume=0*, fade_time=100*)
 30: 0x0BBF [0x45] LOAD_SCHEDULED_TASK: Load scheduler "blon" with entities [LocalPlayer, LocalPlayer], work=[200*, 0*]
 31: 0x0BD0 [0x45] LOAD_SCHEDULED_TASK: Load scheduler "blon" with entities [LocalPlayer, LocalPlayer], work=[201*, 0*]
 32: 0x0BE1 [0x45] LOAD_SCHEDULED_TASK: Load scheduler "s003" with entities [LocalPlayer, LocalPlayer], work=[52*, 0*]
 33: 0x0BF2 [0x1C] WAIT(15* ticks)
 34: 0x0BF5 [0x4A] LocalPlayer looks at Shadow of Darkness (ID: 17399842/0x01098022)
 35: 0x0BFE [0x1C] WAIT(15* ticks)
 36: 0x0C01 [0x4A] Lion (ID: 17399841/0x01098021) looks at Shadow of Darkness (ID: 17399842/0x01098022)
 37: 0x0C0A [0x27] REQ_SET(priority=0x0B, entity_id=Lion (ID: 17399841/0x01098021), tag_num=0x11)
 38: 0x0C11 [0x2B] Lion (ID: 17399841/0x01098021) [7111*]:
    → "What the...!?"
 39: 0x0C18 [0x23] WAIT_FOR_DIALOG_INTERACTION
 40: 0x0C19 [0x55] WAIT_LOAD_SCHEDULER: Wait for scheduler "s003" with entities [LocalPlayer, LocalPlayer], work=52*
 41: 0x0C28 [0x45] LOAD_SCHEDULED_TASK: Load scheduler "who1" with entities [LocalPlayer, LocalPlayer], work=[201*, 0*]
 42: 0x0C39 [0x1C] WAIT(60* ticks)
 43: 0x0C3C [0x5C] MUSIC_CONTROL: Set Idle (Day) music to song 121*
 44: 0x0C40 [0x5C] MUSIC_CONTROL: Set Idle (Night) music to song 121*
 45: 0x0C44 [0x5D] SET_MUSIC_VOLUME(volume=127*, fade_time=100*)
 46: 0x0C49 [0x1C] WAIT(200* ticks)
 47: 0x0C4C [0x2A] GET_REQ_LEVEL(level=11, entity_id=Lion (ID: 17399841/0x01098021))
 48: 0x0C52 [0x45] LOAD_SCHEDULED_TASK: Load scheduler "s004" with entities [LocalPlayer, LocalPlayer], work=[52*, 0*]
 49: 0x0C63 [0x45] LOAD_SCHEDULED_TASK: Load scheduler "whi1" with entities [LocalPlayer, LocalPlayer], work=[201*, 0*]
 50: 0x0C74 [0x27] REQ_SET(priority=0x0B, entity_id=LocalPlayer, tag_num=0x08)
 51: 0x0C7B [0x29] REQ_SET_WAIT(priority=0x0B, entity_id=Shadow of Darkness (ID: 17399842/0x01098022), tag_num=0x0E)
 52: 0x0C82 [0x52] END_LOAD_SCHEDULER: End scheduler "s004" with entities [LocalPlayer, LocalPlayer], work=52*
 53: 0x0C91 [0x2A] GET_REQ_LEVEL(level=11, entity_id=LocalPlayer)
 54: 0x0C97 [0x45] LOAD_SCHEDULED_TASK: Load scheduler "s005" with entities [LocalPlayer, LocalPlayer], work=[52*, 0*]
 55: 0x0CA8 [0x27] REQ_SET(priority=0x0B, entity_id=LocalPlayer, tag_num=0x08)
 56: 0x0CAF [0x29] REQ_SET_WAIT(priority=0x08, entity_id=Shadow of Darkness (ID: 17399842/0x01098022), tag_num=0x03)
 57: 0x0CB6 [0x29] REQ_SET_WAIT(priority=0x0B, entity_id=Shadow of Darkness (ID: 17399842/0x01098022), tag_num=0x0F)
 58: 0x0CBD [0x52] END_LOAD_SCHEDULER: End scheduler "s005" with entities [LocalPlayer, LocalPlayer], work=52*
 59: 0x0CCC [0x2A] GET_REQ_LEVEL(level=11, entity_id=LocalPlayer)
 60: 0x0CD2 [0x45] LOAD_SCHEDULED_TASK: Load scheduler "s006" with entities [LocalPlayer, LocalPlayer], work=[52*, 0*]
 61: 0x0CE3 [0x29] REQ_SET_WAIT(priority=0x08, entity_id=Lion (ID: 17399841/0x01098021), tag_num=0x01)
 62: 0x0CEA [0x29] REQ_SET_WAIT(priority=0x0B, entity_id=Lion (ID: 17399841/0x01098021), tag_num=0x16)
 63: 0x0CF1 [0x52] END_LOAD_SCHEDULER: End scheduler "s006" with entities [LocalPlayer, LocalPlayer], work=52*
 64: 0x0D00 [0x45] LOAD_SCHEDULED_TASK: Load scheduler "s007" with entities [LocalPlayer, LocalPlayer], work=[52*, 0*]
 65: 0x0D11 [0x27] REQ_SET(priority=0x0B, entity_id=LocalPlayer, tag_num=0x08)
 66: 0x0D18 [0x29] REQ_SET_WAIT(priority=0x08, entity_id=Lion (ID: 17399841/0x01098021), tag_num=0x03)
 67: 0x0D1F [0x29] REQ_SET_WAIT(priority=0x0B, entity_id=Shadow of Darkness (ID: 17399842/0x01098022), tag_num=0x10)
 68: 0x0D26 [0x29] REQ_SET_WAIT(priority=0x08, entity_id=Shadow of Darkness (ID: 17399842/0x01098022), tag_num=0x04)
 69: 0x0D2D [0x29] REQ_SET_WAIT(priority=0x08, entity_id=Lion (ID: 17399841/0x01098021), tag_num=0x04)
 70: 0x0D34 [0x52] END_LOAD_SCHEDULER: End scheduler "s007" with entities [LocalPlayer, LocalPlayer], work=52*
 71: 0x0D43 [0x2A] GET_REQ_LEVEL(level=11, entity_id=LocalPlayer)
 72: 0x0D49 [0x45] LOAD_SCHEDULED_TASK: Load scheduler "s010" with entities [LocalPlayer, LocalPlayer], work=[52*, 0*]
 73: 0x0D5A [0x27] REQ_SET(priority=0x0B, entity_id=LocalPlayer, tag_num=0x08)
 74: 0x0D61 [0x29] REQ_SET_WAIT(priority=0x08, entity_id=Shadow of Darkness (ID: 17399842/0x01098022), tag_num=0x09)
 75: 0x0D68 [0x29] REQ_SET_WAIT(priority=0x0B, entity_id=Shadow of Darkness (ID: 17399842/0x01098022), tag_num=0x11)
 76: 0x0D6F [0x55] WAIT_LOAD_SCHEDULER: Wait for scheduler "s010" with entities [LocalPlayer, LocalPlayer], work=52*
 77: 0x0D7E [0x1C] WAIT(30* ticks)
 78: 0x0D81 [0x45] LOAD_SCHEDULED_TASK: Load scheduler "fdo1" with entities [EventEntity, EventEntity], work=[200*, 0*]
 79: 0x0D92 [0x29] REQ_SET_WAIT(priority=0x0B, entity_id=LocalPlayer, tag_num=0x07)
 80: 0x0D99 [0x1C] WAIT(100* ticks)
 81: 0x0D9C [0x29] REQ_SET_WAIT(priority=0x08, entity_id=Shadow of Darkness (ID: 17399842/0x01098022), tag_num=0x0A)
 82: 0x0DA3 [0x4E] SET_ENTITY_HIDE_FLAG: Hide Shadow of Darkness (ID: 17399842/0x01098022)
 83: 0x0DA9 [0x1C] WAIT(200* ticks)
 84: 0x0DAC [0x2A] GET_REQ_LEVEL(level=11, entity_id=LocalPlayer)
 85: 0x0DB2 [0x45] LOAD_SCHEDULED_TASK: Load scheduler "s008" with entities [LocalPlayer, LocalPlayer], work=[52*, 0*]
 86: 0x0DC3 [0x45] LOAD_SCHEDULED_TASK: Load scheduler "fdi1" with entities [EventEntity, EventEntity], work=[200*, 0*]
 87: 0x0DD4 [0x29] REQ_SET_WAIT(priority=0x0B, entity_id=Lion (ID: 17399841/0x01098021), tag_num=0x17)
 88: 0x0DDB [0x27] REQ_SET(priority=0x0B, entity_id=Lion (ID: 17399841/0x01098021), tag_num=0x12)
 89: 0x0DE2 [0x1C] WAIT(10* ticks)
 90: 0x0DE5 [0x52] END_LOAD_SCHEDULER: End scheduler "s008" with entities [LocalPlayer, LocalPlayer], work=52*
 91: 0x0DF4 [0x45] LOAD_SCHEDULED_TASK: Load scheduler "s009" with entities [LocalPlayer, LocalPlayer], work=[52*, 0*]
 92: 0x0E05 [0x2B] Lion (ID: 17399841/0x01098021) [7119*]:
    → "Then it is true. The beastmen are trying to bring the Shadow Lord back."
 93: 0x0E0C [0x23] WAIT_FOR_DIALOG_INTERACTION
 94: 0x0E0D [0x2A] GET_REQ_LEVEL(level=11, entity_id=Lion (ID: 17399841/0x01098021))
 95: 0x0E13 [0x52] END_LOAD_SCHEDULER: End scheduler "s009" with entities [LocalPlayer, LocalPlayer], work=52*
 96: 0x0E22 [0x79] Lion (ID: 17399841/0x01098021) looks at LocalPlayer (Basic look)
 97: 0x0E2C [0x2B] Lion (ID: 17399841/0x01098021) [7120*]:
    → "You be careful, too."
 98: 0x0E33 [0x23] WAIT_FOR_DIALOG_INTERACTION
 99: 0x0E34 [0x7B] Lion (ID: 17399841/0x01098021) stops talking
100: 0x0E39 [0x5D] SET_MUSIC_VOLUME(volume=0*, fade_time=200*)
101: 0x0E3E [0x45] LOAD_SCHEDULED_TASK: Load scheduler "s008" with entities [LocalPlayer, LocalPlayer], work=[52*, 0*]
102: 0x0E4F [0x27] REQ_SET(priority=0x0B, entity_id=Lion (ID: 17399841/0x01098021), tag_num=0x13)
103: 0x0E56 [0x1C] WAIT(100* ticks)
104: 0x0E59 [0x45] LOAD_SCHEDULED_TASK: Load scheduler "fdo1" with entities [EventEntity, EventEntity], work=[200*, 0*]
105: 0x0E6A [0x1C] WAIT(300* ticks)
106: 0x0E6D [0x52] END_LOAD_SCHEDULER: End scheduler "s008" with entities [LocalPlayer, LocalPlayer], work=52*
107: 0x0E7C [0x5C] MUSIC_CONTROL: Set Idle (Day) music to song 0*
108: 0x0E80 [0x5C] MUSIC_CONTROL: Set Idle (Night) music to song 0*
109: 0x0E84 [0x5D] SET_MUSIC_VOLUME(volume=127*, fade_time=1*)
110: 0x0E89 [0x2A] GET_REQ_LEVEL(level=11, entity_id=Lion (ID: 17399841/0x01098021))
111: 0x0E8F [0x4E] SET_ENTITY_HIDE_FLAG: Show LocalPlayer
112: 0x0E95 [0x46] CAMERA_CONTROL: Restore default settings
113: 0x0E97 [0x45] LOAD_SCHEDULED_TASK: Load scheduler "fdi1" with entities [EventEntity, EventEntity], work=[200*, 0*]
114: 0x0EA8 [0x20] SET_CLI_EVENT_UC_FLAG: Unlock player control
115: 0x0EAA [0x21] END_EVENT
116: 0x0EAB [0x00] END_REQSTACK()
```
