# 17399827 - Verena

## Common Data

| Field            | Value                |
|------------------|----------------------|
| Zone             | Altar Room (ID: 152) |
| Block Size       | 448 bytes            |
| Total Events     | 16                   |
| References Count | 14                   |

## List of Events

| Event ID                   | Entrypoint   |   Size |   Instructions |
|----------------------------|--------------|--------|----------------|
| [65535](#event-65535)      | 0x0000       |      6 |              3 |
| [10000](#event-10000)      | 0x0006       |     10 |              2 |
| [65535.1](#event-655351)   | 0x0010       |     33 |              7 |
| [65535.2](#event-655352)   | 0x0031       |     11 |              3 |
| [65535.3](#event-655353)   | 0x003C       |     19 |              3 |
| [65535.4](#event-655354)   | 0x004F       |     29 |              3 |
| [65535.5](#event-655355)   | 0x006C       |     19 |              3 |
| [65535.6](#event-655356)   | 0x007F       |     29 |              3 |
| [65535.7](#event-655357)   | 0x009C       |     19 |              3 |
| [65535.8](#event-655358)   | 0x00AF       |     29 |              3 |
| [65535.9](#event-655359)   | 0x00CC       |     19 |              3 |
| [65535.10](#event-6553510) | 0x00DF       |     29 |              3 |
| [65535.11](#event-6553511) | 0x00FC       |     19 |              3 |
| [65535.12](#event-6553512) | 0x010F       |     29 |              3 |
| [65535.13](#event-6553513) | 0x012C       |      9 |              3 |
| [65535.14](#event-6553514) | 0x0135       |      1 |              1 |

## DAT References (imed_data)

|   Index | Hex Value   |   Dec Value |
|---------|-------------|-------------|
|       0 | 0x0008      |           8 |
|       1 | 0xFFFC0CF9  |  4294708473 |
|       2 | 0xFFFE7B83  |  4294867843 |
|       3 | 0x366E      |       13934 |
|       4 | 0x0862      |        2146 |
|       5 | 0x0017      |          23 |
|       6 | 0xFFFBF9EC  |  4294703596 |
|       7 | 0xFFFE7D48  |  4294868296 |
|       8 | 0x3561      |       13665 |
|       9 | 0x00BE      |         190 |
|      10 | 0xFFFC0C53  |  4294708307 |
|      11 | 0xFFFE7BF8  |  4294867960 |
|      12 | 0x3673      |       13939 |
|      13 | 0x003C      |          60 |

## Events

### Event 65535

#### Metadata

| Field        | Value   |
|--------------|---------|
| Entrypoint   | 0x0000  |
| Data Size    | 6 bytes |
| Instructions | 3       |

```
      00 01 02 03 04 05 06 07  08 09 0A 0B 0C 0D 0E 0F
      -- -- -- -- -- -- -- --  -- -- -- -- -- -- -- --
0000: 22 01 32 00 80 00                                 ".2...          
```

#### Opcodes

```
  0: 0x0000 [0x22] ENTITY_HIDE_FLAG(enabled=0x01)
  1: 0x0002 [0x32] ExtData[1]->MainSpeed = 8* * 0.1
  2: 0x0005 [0x00] END_REQSTACK()
```

### Event 10000

#### Metadata

| Field        | Value    |
|--------------|----------|
| Entrypoint   | 0x0006   |
| Data Size    | 10 bytes |
| Instructions | 2        |

```
      00 01 02 03 04 05 06 07  08 09 0A 0B 0C 0D 0E 0F
      -- -- -- -- -- -- -- --  -- -- -- -- -- -- -- --
0000:                   37 01  80 02 80 03 80 04 80 00        7.........
```

#### Opcodes

```
  0: 0x0006 [0x37] UPDATE_EVENT_POSITION_AND_DIR: x=-258.823*, z=-99.453*, y=13.934*, direction=188.6°*
  1: 0x000F [0x00] END_REQSTACK()
```

### Event 65535.1

#### Metadata

| Field        | Value    |
|--------------|----------|
| Entrypoint   | 0x0010   |
| Data Size    | 33 bytes |
| Instructions | 7        |

```
      00 01 02 03 04 05 06 07  08 09 0A 0B 0C 0D 0E 0F
      -- -- -- -- -- -- -- --  -- -- -- -- -- -- -- --
0010: 32 05 80 1F 00 06 80 07  80 08 80 1F 01 6F 5B 09  2............o[.
0020: 80 F8 FF FF 7F F8 FF FF  7F 73 69 74 30 32 00 80  .........sit02..
0030: 00                                                .               
```

#### Opcodes

```
  0: 0x0010 [0x32] ExtData[1]->MainSpeed = 23* * 0.1
  1: 0x0013 [0x1F] MOVE_ENTITY: EventEntity moves to X=-263.700*, Z=-99.000*, Y=13.665*
  2: 0x001B [0x1F] MOVE_ENTITY: Update entity position (mode=1)
  3: 0x001D [0x6F] WAIT_FRAME_DELAY: Yield until WaitTime reaches zero
  4: 0x001E [0x5B] LOAD_EXT_SCHEDULER: Load scheduler "sit0" with entities [EventEntity, EventEntity], work=190*
  5: 0x002D [0x32] ExtData[1]->MainSpeed = 8* * 0.1
  6: 0x0030 [0x00] END_REQSTACK()
```

### Event 65535.2

#### Metadata

| Field        | Value    |
|--------------|----------|
| Entrypoint   | 0x0031   |
| Data Size    | 11 bytes |
| Instructions | 3        |

```
      00 01 02 03 04 05 06 07  08 09 0A 0B 0C 0D 0E 0F
      -- -- -- -- -- -- -- --  -- -- -- -- -- -- -- --
0030:    1F 00 0A 80 0B 80 0C  80 1F 01 00               ...........    
```

#### Opcodes

```
  0: 0x0031 [0x1F] MOVE_ENTITY: EventEntity moves to X=-258.989*, Z=-99.336*, Y=13.939*
  1: 0x0039 [0x1F] MOVE_ENTITY: Update entity position (mode=1)
  2: 0x003B [0x00] END_REQSTACK()
```

### Event 65535.3

#### Metadata

| Field        | Value    |
|--------------|----------|
| Entrypoint   | 0x003C   |
| Data Size    | 19 bytes |
| Instructions | 3        |

```
      00 01 02 03 04 05 06 07  08 09 0A 0B 0C 0D 0E 0F
      -- -- -- -- -- -- -- --  -- -- -- -- -- -- -- --
0030:                                      5B 09 80 F8              [...
0040: FF FF 7F F8 FF FF 7F 74  6C 6B 30 1C 0D 80 00     .......tlk0.... 
```

#### Opcodes

```
  0: 0x003C [0x5B] LOAD_EXT_SCHEDULER: Load scheduler "tlk0" with entities [EventEntity, EventEntity], work=190*
  1: 0x004B [0x1C] WAIT(60* ticks)
  2: 0x004E [0x00] END_REQSTACK()
```

### Event 65535.4

#### Metadata

| Field        | Value    |
|--------------|----------|
| Entrypoint   | 0x004F   |
| Data Size    | 29 bytes |
| Instructions | 3        |

```
      00 01 02 03 04 05 06 07  08 09 0A 0B 0C 0D 0E 0F
      -- -- -- -- -- -- -- --  -- -- -- -- -- -- -- --
0040:                                               5B                 [
0050: 09 80 F8 FF FF 7F F8 FF  FF 7F 74 6C 6B 31 53 F8  ..........tlk1S.
0060: FF FF 7F F8 FF FF 7F 74  6C 6B 31 00              .......tlk1.    
```

#### Opcodes

```
  0: 0x004F [0x5B] LOAD_EXT_SCHEDULER: Load scheduler "tlk1" with entities [EventEntity, EventEntity], work=190*
  1: 0x005E [0x53] WAIT_SCHEDULER_TASK: Wait for scheduler "tlk1" with entities [EventEntity, EventEntity]
  2: 0x006B [0x00] END_REQSTACK()
```

### Event 65535.5

#### Metadata

| Field        | Value    |
|--------------|----------|
| Entrypoint   | 0x006C   |
| Data Size    | 19 bytes |
| Instructions | 3        |

```
      00 01 02 03 04 05 06 07  08 09 0A 0B 0C 0D 0E 0F
      -- -- -- -- -- -- -- --  -- -- -- -- -- -- -- --
0060:                                      5B 09 80 F8              [...
0070: FF FF 7F F8 FF FF 7F 74  68 6B 31 1C 0D 80 00     .......thk1.... 
```

#### Opcodes

```
  0: 0x006C [0x5B] LOAD_EXT_SCHEDULER: Load scheduler "thk1" with entities [EventEntity, EventEntity], work=190*
  1: 0x007B [0x1C] WAIT(60* ticks)
  2: 0x007E [0x00] END_REQSTACK()
```

### Event 65535.6

#### Metadata

| Field        | Value    |
|--------------|----------|
| Entrypoint   | 0x007F   |
| Data Size    | 29 bytes |
| Instructions | 3        |

```
      00 01 02 03 04 05 06 07  08 09 0A 0B 0C 0D 0E 0F
      -- -- -- -- -- -- -- --  -- -- -- -- -- -- -- --
0070:                                               5B                 [
0080: 09 80 F8 FF FF 7F F8 FF  FF 7F 74 68 6B 32 53 F8  ..........thk2S.
0090: FF FF 7F F8 FF FF 7F 74  68 6B 32 00              .......thk2.    
```

#### Opcodes

```
  0: 0x007F [0x5B] LOAD_EXT_SCHEDULER: Load scheduler "thk2" with entities [EventEntity, EventEntity], work=190*
  1: 0x008E [0x53] WAIT_SCHEDULER_TASK: Wait for scheduler "thk2" with entities [EventEntity, EventEntity]
  2: 0x009B [0x00] END_REQSTACK()
```

### Event 65535.7

#### Metadata

| Field        | Value    |
|--------------|----------|
| Entrypoint   | 0x009C   |
| Data Size    | 19 bytes |
| Instructions | 3        |

```
      00 01 02 03 04 05 06 07  08 09 0A 0B 0C 0D 0E 0F
      -- -- -- -- -- -- -- --  -- -- -- -- -- -- -- --
0090:                                      5B 09 80 F8              [...
00A0: FF FF 7F F8 FF FF 7F 75  74 73 30 1C 0D 80 00     .......uts0.... 
```

#### Opcodes

```
  0: 0x009C [0x5B] LOAD_EXT_SCHEDULER: Load scheduler "uts0" with entities [EventEntity, EventEntity], work=190*
  1: 0x00AB [0x1C] WAIT(60* ticks)
  2: 0x00AE [0x00] END_REQSTACK()
```

### Event 65535.8

#### Metadata

| Field        | Value    |
|--------------|----------|
| Entrypoint   | 0x00AF   |
| Data Size    | 29 bytes |
| Instructions | 3        |

```
      00 01 02 03 04 05 06 07  08 09 0A 0B 0C 0D 0E 0F
      -- -- -- -- -- -- -- --  -- -- -- -- -- -- -- --
00A0:                                               5B                 [
00B0: 09 80 F8 FF FF 7F F8 FF  FF 7F 75 74 73 31 53 F8  ..........uts1S.
00C0: FF FF 7F F8 FF FF 7F 75  74 73 31 00              .......uts1.    
```

#### Opcodes

```
  0: 0x00AF [0x5B] LOAD_EXT_SCHEDULER: Load scheduler "uts1" with entities [EventEntity, EventEntity], work=190*
  1: 0x00BE [0x53] WAIT_SCHEDULER_TASK: Wait for scheduler "uts1" with entities [EventEntity, EventEntity]
  2: 0x00CB [0x00] END_REQSTACK()
```

### Event 65535.9

#### Metadata

| Field        | Value    |
|--------------|----------|
| Entrypoint   | 0x00CC   |
| Data Size    | 19 bytes |
| Instructions | 3        |

```
      00 01 02 03 04 05 06 07  08 09 0A 0B 0C 0D 0E 0F
      -- -- -- -- -- -- -- --  -- -- -- -- -- -- -- --
00C0:                                      5B 09 80 F8              [...
00D0: FF FF 7F F8 FF FF 7F 73  69 74 30 1C 0D 80 00     .......sit0.... 
```

#### Opcodes

```
  0: 0x00CC [0x5B] LOAD_EXT_SCHEDULER: Load scheduler "sit0" with entities [EventEntity, EventEntity], work=190*
  1: 0x00DB [0x1C] WAIT(60* ticks)
  2: 0x00DE [0x00] END_REQSTACK()
```

### Event 65535.10

#### Metadata

| Field        | Value    |
|--------------|----------|
| Entrypoint   | 0x00DF   |
| Data Size    | 29 bytes |
| Instructions | 3        |

```
      00 01 02 03 04 05 06 07  08 09 0A 0B 0C 0D 0E 0F
      -- -- -- -- -- -- -- --  -- -- -- -- -- -- -- --
00D0:                                               5B                 [
00E0: 09 80 F8 FF FF 7F F8 FF  FF 7F 73 69 74 31 53 F8  ..........sit1S.
00F0: FF FF 7F F8 FF FF 7F 73  69 74 31 00              .......sit1.    
```

#### Opcodes

```
  0: 0x00DF [0x5B] LOAD_EXT_SCHEDULER: Load scheduler "sit1" with entities [EventEntity, EventEntity], work=190*
  1: 0x00EE [0x53] WAIT_SCHEDULER_TASK: Wait for scheduler "sit1" with entities [EventEntity, EventEntity]
  2: 0x00FB [0x00] END_REQSTACK()
```

### Event 65535.11

#### Metadata

| Field        | Value    |
|--------------|----------|
| Entrypoint   | 0x00FC   |
| Data Size    | 19 bytes |
| Instructions | 3        |

```
      00 01 02 03 04 05 06 07  08 09 0A 0B 0C 0D 0E 0F
      -- -- -- -- -- -- -- --  -- -- -- -- -- -- -- --
00F0:                                      5B 09 80 F8              [...
0100: FF FF 7F F8 FF FF 7F 73  74 65 30 1C 0D 80 00     .......ste0.... 
```

#### Opcodes

```
  0: 0x00FC [0x5B] LOAD_EXT_SCHEDULER: Load scheduler "ste0" with entities [EventEntity, EventEntity], work=190*
  1: 0x010B [0x1C] WAIT(60* ticks)
  2: 0x010E [0x00] END_REQSTACK()
```

### Event 65535.12

#### Metadata

| Field        | Value    |
|--------------|----------|
| Entrypoint   | 0x010F   |
| Data Size    | 29 bytes |
| Instructions | 3        |

```
      00 01 02 03 04 05 06 07  08 09 0A 0B 0C 0D 0E 0F
      -- -- -- -- -- -- -- --  -- -- -- -- -- -- -- --
0100:                                               5B                 [
0110: 09 80 F8 FF FF 7F F8 FF  FF 7F 73 74 65 31 53 F8  ..........ste1S.
0120: FF FF 7F F8 FF FF 7F 73  74 65 31 00              .......ste1.    
```

#### Opcodes

```
  0: 0x010F [0x5B] LOAD_EXT_SCHEDULER: Load scheduler "ste1" with entities [EventEntity, EventEntity], work=190*
  1: 0x011E [0x53] WAIT_SCHEDULER_TASK: Wait for scheduler "ste1" with entities [EventEntity, EventEntity]
  2: 0x012B [0x00] END_REQSTACK()
```

### Event 65535.13

#### Metadata

| Field        | Value   |
|--------------|---------|
| Entrypoint   | 0x012C  |
| Data Size    | 9 bytes |
| Instructions | 3       |

```
      00 01 02 03 04 05 06 07  08 09 0A 0B 0C 0D 0E 0F
      -- -- -- -- -- -- -- --  -- -- -- -- -- -- -- --
0120:                                      5E 69 64 6C              ^idl
0130: 30 1C 0D 80 00                                    0....           
```

#### Opcodes

```
  0: 0x012C [0x5E] EventEntity goes idle (kills current action) (animation: "idl0")
  1: 0x0131 [0x1C] WAIT(60* ticks)
  2: 0x0134 [0x00] END_REQSTACK()
```

### Event 65535.14

#### Metadata

| Field        | Value   |
|--------------|---------|
| Entrypoint   | 0x0135  |
| Data Size    | 1 bytes |
| Instructions | 1       |

```
      00 01 02 03 04 05 06 07  08 09 0A 0B 0C 0D 0E 0F
      -- -- -- -- -- -- -- --  -- -- -- -- -- -- -- --
0130:                00                                      .          
```

#### Opcodes

```
  0: 0x0135 [0x00] END_REQSTACK()
```
