# 0x7FFFFFF0 - Zone Events

## Common Data

| Field            | Value                |
|------------------|----------------------|
| Zone             | Altar Room (ID: 152) |
| Block Size       | 5484 bytes           |
| Total Events     | 15                   |
| References Count | 163                  |

## List of Events

| Event ID                 | Entrypoint   |   Size |   Instructions |
|--------------------------|--------------|--------|----------------|
| [65535](#event-65535)    | 0x0000       |      1 |              1 |
| [65534](#event-65534)    | 0x0001       |      1 |              1 |
| [10000](#event-10000)    | 0x0002       |    823 |            127 |
| [65535.1](#event-655351) | 0x0339       |     13 |              3 |
| [65535.2](#event-655352) | 0x0346       |     13 |              3 |
| [65535.3](#event-655353) | 0x0353       |     13 |              3 |
| [65535.4](#event-655354) | 0x0360       |     10 |              2 |
| [65535.5](#event-655355) | 0x036A       |     10 |              2 |
| [65535.6](#event-655356) | 0x0374       |     55 |              5 |
| [46](#event-46)          | 0x03AB       |   1002 |            130 |
| [47](#event-47)          | 0x0795       |    482 |             57 |
| [48](#event-48)          | 0x0977       |    280 |             31 |
| [49](#event-49)          | 0x0A8F       |    797 |             86 |
| [50](#event-50)          | 0x0DAC       |    746 |             89 |
| [51](#event-51)          | 0x1096       |    508 |             63 |

## DAT References (imed_data)

|   Index | Hex Value   |   Dec Value |
|---------|-------------|-------------|
|       0 | 0xFFFEFFC7  |  4294901703 |
|       1 | 0x0092      |         146 |
|       2 | 0x0000      |           0 |
|       3 | 0x0013      |          19 |
|       4 | 0xFFFBFCAA  |  4294704298 |
|       5 | 0xFFFE7970  |  4294867312 |
|       6 | 0x35D2      |       13778 |
|       7 | 0x0887      |        2183 |
|       8 | 0x003C      |          60 |
|       9 | 0x00C8      |         200 |
|      10 | 0x1C84      |        7300 |
|      11 | 0x009F      |         159 |
|      12 | 0x1C85      |        7301 |
|      13 | 0x001E      |          30 |
|      14 | 0x1C86      |        7302 |
|      15 | 0x1C87      |        7303 |
|      16 | 0x1C88      |        7304 |
|      17 | 0x1C89      |        7305 |
|      18 | 0x000A      |          10 |
|      19 | 0x1C8A      |        7306 |
|      20 | 0x1C8B      |        7307 |
|      21 | 0x1C8C      |        7308 |
|      22 | 0x1C8D      |        7309 |
|      23 | 0x1C8E      |        7310 |
|      24 | 0x1C8F      |        7311 |
|      25 | 0x1C90      |        7312 |
|      26 | 0x1C91      |        7313 |
|      27 | 0x1C92      |        7314 |
|      28 | 0x0078      |         120 |
|      29 | 0x1C93      |        7315 |
|      30 | 0x0258      |         600 |
|      31 | 0x0064      |         100 |
|      32 | 0x005A      |          90 |
|      33 | 0x1C94      |        7316 |
|      34 | 0x1C95      |        7317 |
|      35 | 0x1C96      |        7318 |
|      36 | 0x1C97      |        7319 |
|      37 | 0x0028      |          40 |
|      38 | 0x40000000  |  1073741824 |
|      39 | 0x420B      |       16907 |
|      40 | 0xFFFFB5A8  |  4294948264 |
|      41 | 0x00FA      |         250 |
|      42 | 0x0ACF      |        2767 |
|      43 | 0xFFFAC0AE  |  4294623406 |
|      44 | 0xA82B      |       43051 |
|      45 | 0x62A1      |       25249 |
|      46 | 0x0B27      |        2855 |
|      47 | 0xFFFE9A04  |  4294875652 |
|      48 | 0x1698D     |       92557 |
|      49 | 0xFFFEE6C0  |  4294895296 |
|      50 | 0x0879      |        2169 |
|      51 | 0xFFFAC146  |  4294623558 |
|      52 | 0xA912      |       43282 |
|      53 | 0x0A82      |        2690 |
|      54 | 0xFFFAC5D5  |  4294624725 |
|      55 | 0xA181      |       41345 |
|      56 | 0x0794      |        1940 |
|      57 | 0x00C9      |         201 |
|      58 | 0x00A3      |         163 |
|      59 | 0xFFFC00E6  |  4294705382 |
|      60 | 0xFFFE7C38  |  4294868024 |
|      61 | 0x362E      |       13870 |
|      62 | 0x0839      |        2105 |
|      63 | 0x0005      |           5 |
|      64 | 0x0825      |        2085 |
|      65 | 0x00D8      |         216 |
|      66 | 0x1CA9      |        7337 |
|      67 | 0x000D      |          13 |
|      68 | 0xFFFBF2A2  |  4294701730 |
|      69 | 0xFFFE7ED7  |  4294868695 |
|      70 | 0x350B      |       13579 |
|      71 | 0x1CE4      |        7396 |
|      72 | 0x1CAA      |        7338 |
|      73 | 0x1CAB      |        7339 |
|      74 | 0x00D7      |         215 |
|      75 | 0x1CAC      |        7340 |
|      76 | 0x1CAD      |        7341 |
|      77 | 0x1CAE      |        7342 |
|      78 | 0x1CAF      |        7343 |
|      79 | 0x1CB0      |        7344 |
|      80 | 0x1CB1      |        7345 |
|      81 | 0x1CB2      |        7346 |
|      82 | 0x0001      |           1 |
|      83 | 0x1CB3      |        7347 |
|      84 | 0x1CB4      |        7348 |
|      85 | 0x1CB5      |        7349 |
|      86 | 0x1CB6      |        7350 |
|      87 | 0x1CB7      |        7351 |
|      88 | 0x1CB8      |        7352 |
|      89 | 0x1CB9      |        7353 |
|      90 | 0x1CBA      |        7354 |
|      91 | 0x1CBB      |        7355 |
|      92 | 0x1CBC      |        7356 |
|      93 | 0x1CBD      |        7357 |
|      94 | 0x0857      |        2135 |
|      95 | 0x1CBE      |        7358 |
|      96 | 0x1CBF      |        7359 |
|      97 | 0x1CC0      |        7360 |
|      98 | 0x1CC1      |        7361 |
|      99 | 0x1CC2      |        7362 |
|     100 | 0x1CC3      |        7363 |
|     101 | 0x1CC4      |        7364 |
|     102 | 0xFFFB2C6B  |  4294650987 |
|     103 | 0x212E      |        8494 |
|     104 | 0x60AC      |       24748 |
|     105 | 0x0C77      |        3191 |
|     106 | 0x0027      |          39 |
|     107 | 0x1CC7      |        7367 |
|     108 | 0x000F      |          15 |
|     109 | 0x1CC8      |        7368 |
|     110 | 0x0032      |          50 |
|     111 | 0x00A1      |         161 |
|     112 | 0xFFFB2C45  |  4294650949 |
|     113 | 0x1E69      |        7785 |
|     114 | 0x5FDF      |       24543 |
|     115 | 0x0533      |        1331 |
|     116 | 0x1CC9      |        7369 |
|     117 | 0x1CCA      |        7370 |
|     118 | 0x1CCB      |        7371 |
|     119 | 0x00FE      |         254 |
|     120 | 0x1CCC      |        7372 |
|     121 | 0x1CCD      |        7373 |
|     122 | 0x1CCE      |        7374 |
|     123 | 0x1CCF      |        7375 |
|     124 | 0x1CD0      |        7376 |
|     125 | 0x1CD1      |        7377 |
|     126 | 0x1CD2      |        7378 |
|     127 | 0x1CD3      |        7379 |
|     128 | 0x1CD4      |        7380 |
|     129 | 0x1CD5      |        7381 |
|     130 | 0x009D      |         157 |
|     131 | 0x0014      |          20 |
|     132 | 0x1CD6      |        7382 |
|     133 | 0x1CD7      |        7383 |
|     134 | 0x1CD8      |        7384 |
|     135 | 0x1CD9      |        7385 |
|     136 | 0x0FFF      |        4095 |
|     137 | 0x1CDA      |        7386 |
|     138 | 0x0E10      |        3600 |
|     139 | 0x1CDB      |        7387 |
|     140 | 0x1CDC      |        7388 |
|     141 | 0x1CDD      |        7389 |
|     142 | 0x1CDE      |        7390 |
|     143 | 0x01F5      |         501 |
|     144 | 0x00F0      |         240 |
|     145 | 0xFFFB2DB8  |  4294651320 |
|     146 | 0x1D70      |        7536 |
|     147 | 0x6036      |       24630 |
|     148 | 0x0735      |        1845 |
|     149 | 0x1CDF      |        7391 |
|     150 | 0x1CE0      |        7392 |
|     151 | 0x0708      |        1800 |
|     152 | 0x1CE1      |        7393 |
|     153 | 0x1CE2      |        7394 |
|     154 | 0x1CE3      |        7395 |
|     155 | 0x1CE5      |        7397 |
|     156 | 0x1CE6      |        7398 |
|     157 | 0x1CE7      |        7399 |
|     158 | 0x1CE8      |        7400 |
|     159 | 0x1CE9      |        7401 |
|     160 | 0x1CEA      |        7402 |
|     161 | 0x002D      |          45 |
|     162 | 0x1CEB      |        7403 |

## String References

- **7346**: Come on, it'll be fun! [Alright! I'm in!/I'll wear goggles to bed.]
- **7352**: Sound fair? [Fair enough!/I need to talk to my manager.]

## Events

### Event 65535

#### Metadata

| Field        | Value   |
|--------------|---------|
| Entrypoint   | 0x0000  |
| Data Size    | 1 bytes |
| Instructions | 1       |

```
      00 01 02 03 04 05 06 07  08 09 0A 0B 0C 0D 0E 0F
      -- -- -- -- -- -- -- --  -- -- -- -- -- -- -- --
0000: 00                                                .               
```

#### Opcodes

```
  0: 0x0000 [0x00] END_REQSTACK()
```

### Event 65534

#### Metadata

| Field        | Value   |
|--------------|---------|
| Entrypoint   | 0x0001  |
| Data Size    | 1 bytes |
| Instructions | 1       |

```
      00 01 02 03 04 05 06 07  08 09 0A 0B 0C 0D 0E 0F
      -- -- -- -- -- -- -- --  -- -- -- -- -- -- -- --
0000:    00                                              .              
```

#### Opcodes

```
  0: 0x0001 [0x00] END_REQSTACK()
```

### Event 10000

#### Metadata

| Field        | Value     |
|--------------|-----------|
| Entrypoint   | 0x0002    |
| Data Size    | 823 bytes |
| Instructions | 127       |

```
      00 01 02 03 04 05 06 07  08 09 0A 0B 0C 0D 0E 0F
      -- -- -- -- -- -- -- --  -- -- -- -- -- -- -- --
0000:       20 01 42 3B F0 FF  FF 7F 00 00 01 00 02 00     .B;..........
0010: 02 01 00 00 80 05 12 03  46 01 45 01 80 F8 FF FF  ........F.E.....
0020: 7F F8 FF FF 7F 63 6D 30  30 02 80 55 01 80 F8 FF  .....cm00..U....
0030: FF 7F F8 FF FF 7F 63 6D  30 30 38 03 80 37 04 80  ......cm008..7..
0040: 05 80 06 80 07 80 22 00  4E 00 12 80 09 01 80 12  ......".N.......
0050: 80 09 01 29 04 12 80 09  01 02 1C 08 80 45 09 80  ...).........E..
0060: F0 FF FF 7F F0 FF FF 7F  66 64 69 32 02 80 55 09  ........fdi2..U.
0070: 80 F0 FF FF 7F F0 FF FF  7F 66 64 69 32 2B 12 80  .........fdi2+..
0080: 09 01 0A 80 23 4E 00 13  80 09 01 5C 00 0B 80 5C  ....#N.....\...\
0090: 01 0B 80 2B 13 80 09 01  0C 80 27 03 13 80 09 01  ...+......'.....
00A0: 02 1C 0D 80 45 01 80 F8  FF FF 7F F8 FF FF 7F 63  ....E..........c
00B0: 6D 30 31 02 80 55 01 80  F8 FF FF 7F F8 FF FF 7F  m01..U..........
00C0: 63 6D 30 31 2A 03 13 80  09 01 4A F0 FF FF 7F 13  cm01*.....J.....
00D0: 80 09 01 23 2B 13 80 09  01 0E 80 23 29 03 12 80  ...#+......#)...
00E0: 09 01 04 27 04 12 80 09  01 05 2B 12 80 09 01 0F  ...'......+.....
00F0: 80 23 2B 13 80 09 01 10  80 23 27 05 12 80 09 01  .#+......#'.....
0100: 06 2B 12 80 09 01 11 80  23 29 06 12 80 09 01 05  .+......#)......
0110: 27 03 13 80 09 01 0C 1C  12 80 45 01 80 F8 FF FF  '.........E.....
0120: 7F F8 FF FF 7F 63 6D 30  32 02 80 55 01 80 F8 FF  .....cm02..U....
0130: FF 7F F8 FF FF 7F 63 6D  30 32 2B 13 80 09 01 13  ......cm02+.....
0140: 80 23 2B 13 80 09 01 14  80 23 27 05 12 80 09 01  .#+......#'.....
0150: 06 2B 12 80 09 01 15 80  23 29 06 12 80 09 01 05  .+......#)......
0160: 2B 13 80 09 01 16 80 23  27 05 12 80 09 01 06 2B  +......#'......+
0170: 12 80 09 01 17 80 23 29  06 12 80 09 01 05 2B 13  ......#)......+.
0180: 80 09 01 18 80 23 27 05  12 80 09 01 06 2B 12 80  .....#'......+..
0190: 09 01 19 80 23 29 06 12  80 09 01 05 27 04 13 80  ....#)......'...
01A0: 09 01 0D 1C 0D 80 45 01  80 F8 FF FF 7F F8 FF FF  ......E.........
01B0: 7F 63 6D 30 35 02 80 2B  13 80 09 01 1A 80 23 2B  .cm05..+......#+
01C0: 12 80 09 01 1B 80 23 29  05 12 80 09 01 03 4A F0  ......#)......J.
01D0: FF FF 7F 12 80 09 01 1C  1C 80 2B 13 80 09 01 1D  ..........+.....
01E0: 80 23 45 01 80 F8 FF FF  7F F8 FF FF 7F 63 6D 30  .#E..........cm0
01F0: 33 02 80 1C 08 80 62 12  80 12 80 09 01 12 80 09  3.....b.........
0200: 01 6D 61 69 6E 02 80 1C  1E 80 4E 01 12 80 09 01  .main.....N.....
0210: 1C 1F 80 55 01 80 F8 FF  FF 7F F8 FF FF 7F 63 6D  ...U..........cm
0220: 30 33 1C 20 80 29 04 13  80 09 01 0B 4A F0 FF FF  03. .)......J...
0230: 7F 13 80 09 01 29 05 13  80 09 01 08 2B 13 80 09  .....)......+...
0240: 01 21 80 23 2B 13 80 09  01 22 80 23 29 06 13 80  .!.#+....".#)...
0250: 09 01 09 1C 1C 80 4A 13  80 09 01 F0 FF FF 7F 6F  ......J........o
0260: 76 13 80 09 01 45 01 80  F8 FF FF 7F F8 FF FF 7F  v....E..........
0270: 63 6D 30 34 02 80 55 01  80 F8 FF FF 7F F8 FF FF  cm04..U.........
0280: 7F 63 6D 30 34 1C 0D 80  27 03 13 80 09 01 04 2B  .cm04...'......+
0290: 13 80 09 01 23 80 23 2B  13 80 09 01 24 80 23 29  ....#.#+....$.#)
02A0: 03 13 80 09 01 05 7B 13  80 09 01 1C 08 80 27 04  ......{.......'.
02B0: 13 80 09 01 03 06 03 00  02 03 00 1C 80 05 D4 02  ................
02C0: 4A F0 FF FF 7F 13 80 09  01 1C 25 80 07 03 00 25  J.........%....%
02D0: 80 01 B8 02 45 09 80 F0  FF FF 7F F0 FF FF 7F 66  ....E..........f
02E0: 64 6F 32 02 80 55 09 80  F0 FF FF 7F F0 FF FF 7F  do2..U..........
02F0: 66 64 6F 32 5C 00 02 80  5C 01 02 80 46 00 45 09  fdo2\...\...F.E.
0300: 80 F0 FF FF 7F F0 FF FF  7F 66 64 69 32 02 80 01  .........fdi2...
0310: 37 03 45 09 80 F0 FF FF  7F F0 FF FF 7F 66 64 69  7.E..........fdi
0320: 32 02 80 55 09 80 F0 FF  FF 7F F0 FF FF 7F 66 64  2..U..........fd
0330: 69 32 03 01 10 26 80 21  00                       i2...&.!.       
```

#### Opcodes

```
  0: 0x0002 [0x20] SET_CLI_EVENT_UC_FLAG: Lock player control
  1: 0x0004 [0x42] SET_CLI_EVENT_CANCEL_DATA()
  2: 0x0005 [0x3B] GET_ENTITY_POSITION(entity=LocalPlayer, x_destination=ExtData[1]->WorkLocal[0], y_destination=ExtData[1]->WorkLocal[1], z_destination=ExtData[1]->WorkLocal[2])
  3: 0x0010 [0x02] IF !(ExtData[1]->WorkLocal[1] > 4294901703*) GOTO 0x0312
  4: 0x0018 [0x46] CAMERA_CONTROL: Disable user control
  5: 0x001A [0x45] LOAD_SCHEDULED_TASK: Load scheduler "cm00" with entities [EventEntity, EventEntity], work=[146*, 0*]
  6: 0x002B [0x55] WAIT_LOAD_SCHEDULER: Wait for scheduler "cm00" with entities [EventEntity, EventEntity], work=146*
  7: 0x003A [0x38] SET_CLIENT_EVENT_MODE(mode=19*)
  8: 0x003D [0x37] UPDATE_EVENT_POSITION_AND_DIR: x=-262.998*, z=-99.984*, y=13.778*, direction=191.9°*
  9: 0x0046 [0x22] ENTITY_HIDE_FLAG(enabled=0x00)
 10: 0x0048 [0x4E] SET_ENTITY_HIDE_FLAG: Show Fickblix (ID: 17399826/0x01098012)
 11: 0x004E [0x80] LOAD_WAIT(entity=Fickblix (ID: 17399826/0x01098012))
 12: 0x0053 [0x29] REQ_SET_WAIT(priority=0x04, entity_id=Fickblix (ID: 17399826/0x01098012), tag_num=0x02)
 13: 0x005A [0x1C] WAIT(60* ticks)
 14: 0x005D [0x45] LOAD_SCHEDULED_TASK: Load scheduler "fdi2" with entities [LocalPlayer, LocalPlayer], work=[200*, 0*]
 15: 0x006E [0x55] WAIT_LOAD_SCHEDULER: Wait for scheduler "fdi2" with entities [LocalPlayer, LocalPlayer], work=200*
 16: 0x007D [0x2B] Fickblix (ID: 17399826/0x01098012) [7300*]:
    → "Ungh..."
 17: 0x0084 [0x23] WAIT_FOR_DIALOG_INTERACTION
 18: 0x0085 [0x4E] SET_ENTITY_HIDE_FLAG: Show Verena (ID: 17399827/0x01098013)
 19: 0x008B [0x5C] MUSIC_CONTROL: Set Idle (Day) music to song 159*
 20: 0x008F [0x5C] MUSIC_CONTROL: Set Idle (Night) music to song 159*
 21: 0x0093 [0x2B] Verena (ID: 17399827/0x01098013) [7301*]:
    → "Fickblix!"
 22: 0x009A [0x27] REQ_SET(priority=0x03, entity_id=Verena (ID: 17399827/0x01098013), tag_num=0x02)
 23: 0x00A1 [0x1C] WAIT(30* ticks)
 24: 0x00A4 [0x45] LOAD_SCHEDULED_TASK: Load scheduler "cm01" with entities [EventEntity, EventEntity], work=[146*, 0*]
 25: 0x00B5 [0x55] WAIT_LOAD_SCHEDULER: Wait for scheduler "cm01" with entities [EventEntity, EventEntity], work=146*
 26: 0x00C4 [0x2A] GET_REQ_LEVEL(level=3, entity_id=Verena (ID: 17399827/0x01098013))
 27: 0x00CA [0x4A] LocalPlayer looks at Verena (ID: 17399827/0x01098013)
 28: 0x00D3 [0x23] WAIT_FOR_DIALOG_INTERACTION
 29: 0x00D4 [0x2B] Verena (ID: 17399827/0x01098013) [7302*]:
    → "Fickblix? What happened? Are you all right?"
 30: 0x00DB [0x23] WAIT_FOR_DIALOG_INTERACTION
 31: 0x00DC [0x29] REQ_SET_WAIT(priority=0x03, entity_id=Fickblix (ID: 17399826/0x01098012), tag_num=0x04)
 32: 0x00E3 [0x27] REQ_SET(priority=0x04, entity_id=Fickblix (ID: 17399826/0x01098012), tag_num=0x05)
 33: 0x00EA [0x2B] Fickblix (ID: 17399826/0x01098012) [7303*]:
    → "Oh... Verena..."
 34: 0x00F1 [0x23] WAIT_FOR_DIALOG_INTERACTION
 35: 0x00F2 [0x2B] Verena (ID: 17399827/0x01098013) [7304*]:
    → "What has happened here? Who did this to you? Tell me who!"
 36: 0x00F9 [0x23] WAIT_FOR_DIALOG_INTERACTION
 37: 0x00FA [0x27] REQ_SET(priority=0x05, entity_id=Fickblix (ID: 17399826/0x01098012), tag_num=0x06)
 38: 0x0101 [0x2B] Fickblix (ID: 17399826/0x01098012) [7305*]:
    → "Nobody... Verena... Don't hate...them..."
 39: 0x0108 [0x23] WAIT_FOR_DIALOG_INTERACTION
 40: 0x0109 [0x29] REQ_SET_WAIT(priority=0x06, entity_id=Fickblix (ID: 17399826/0x01098012), tag_num=0x05)
 41: 0x0110 [0x27] REQ_SET(priority=0x03, entity_id=Verena (ID: 17399827/0x01098013), tag_num=0x0C)
 42: 0x0117 [0x1C] WAIT(10* ticks)
 43: 0x011A [0x45] LOAD_SCHEDULED_TASK: Load scheduler "cm02" with entities [EventEntity, EventEntity], work=[146*, 0*]
 44: 0x012B [0x55] WAIT_LOAD_SCHEDULER: Wait for scheduler "cm02" with entities [EventEntity, EventEntity], work=146*
 45: 0x013A [0x2B] Verena (ID: 17399827/0x01098013) [7306*]:
    → "I know! I know! Hate will get us nowhere."
 46: 0x0141 [0x23] WAIT_FOR_DIALOG_INTERACTION
 47: 0x0142 [0x2B] Verena (ID: 17399827/0x01098013) [7307*]:
    → "I understand how you feel. If only we all could. Then...then there'd be no more fighting."
 48: 0x0149 [0x23] WAIT_FOR_DIALOG_INTERACTION
 49: 0x014A [0x27] REQ_SET(priority=0x05, entity_id=Fickblix (ID: 17399826/0x01098012), tag_num=0x06)
 50: 0x0151 [0x2B] Fickblix (ID: 17399826/0x01098012) [7308*]:
    → "Verena... Don't cry..."
 51: 0x0158 [0x23] WAIT_FOR_DIALOG_INTERACTION
 52: 0x0159 [0x29] REQ_SET_WAIT(priority=0x06, entity_id=Fickblix (ID: 17399826/0x01098012), tag_num=0x05)
 53: 0x0160 [0x2B] Verena (ID: 17399827/0x01098013) [7309*]:
    → "It's okay, Fickblix. You don't have to worry. I'll be...I'll be all right."
 54: 0x0167 [0x23] WAIT_FOR_DIALOG_INTERACTION
 55: 0x0168 [0x27] REQ_SET(priority=0x05, entity_id=Fickblix (ID: 17399826/0x01098012), tag_num=0x06)
 56: 0x016F [0x2B] Fickblix (ID: 17399826/0x01098012) [7310*]:
    → "Yeah..."
 57: 0x0176 [0x23] WAIT_FOR_DIALOG_INTERACTION
 58: 0x0177 [0x29] REQ_SET_WAIT(priority=0x06, entity_id=Fickblix (ID: 17399826/0x01098012), tag_num=0x05)
 59: 0x017E [0x2B] Verena (ID: 17399827/0x01098013) [7311*]:
    → "Shhh. Your courage needs no words. Even now I can feel the warmth of your heart. Just...just hang in there."
 60: 0x0185 [0x23] WAIT_FOR_DIALOG_INTERACTION
 61: 0x0186 [0x27] REQ_SET(priority=0x05, entity_id=Fickblix (ID: 17399826/0x01098012), tag_num=0x06)
 62: 0x018D [0x2B] Fickblix (ID: 17399826/0x01098012) [7312*]:
    → "Something else..."
 63: 0x0194 [0x23] WAIT_FOR_DIALOG_INTERACTION
 64: 0x0195 [0x29] REQ_SET_WAIT(priority=0x06, entity_id=Fickblix (ID: 17399826/0x01098012), tag_num=0x05)
 65: 0x019C [0x27] REQ_SET(priority=0x04, entity_id=Verena (ID: 17399827/0x01098013), tag_num=0x0D)
 66: 0x01A3 [0x1C] WAIT(30* ticks)
 67: 0x01A6 [0x45] LOAD_SCHEDULED_TASK: Load scheduler "cm05" with entities [EventEntity, EventEntity], work=[146*, 0*]
 68: 0x01B7 [0x2B] Verena (ID: 17399827/0x01098013) [7313*]:
    → "Yes, Fickie, what is it?"
 69: 0x01BE [0x23] WAIT_FOR_DIALOG_INTERACTION
 70: 0x01BF [0x2B] Fickblix (ID: 17399826/0x01098012) [7314*]:
    → "Thank...you..."
 71: 0x01C6 [0x23] WAIT_FOR_DIALOG_INTERACTION
 72: 0x01C7 [0x29] REQ_SET_WAIT(priority=0x05, entity_id=Fickblix (ID: 17399826/0x01098012), tag_num=0x03)
 73: 0x01CE [0x4A] LocalPlayer looks at Fickblix (ID: 17399826/0x01098012)
 74: 0x01D7 [0x1C] WAIT(120* ticks)
 75: 0x01DA [0x2B] Verena (ID: 17399827/0x01098013) [7315*]:
    → "No, Fickie. Thank you. You've shown us our mistakes."
 76: 0x01E1 [0x23] WAIT_FOR_DIALOG_INTERACTION
 77: 0x01E2 [0x45] LOAD_SCHEDULED_TASK: Load scheduler "cm03" with entities [EventEntity, EventEntity], work=[146*, 0*]
 78: 0x01F3 [0x1C] WAIT(60* ticks)
 79: 0x01F6 [0x62] LOAD_EVENT_SCHEDULER: Load scheduler "main" with entities [Fickblix (ID: 17399826/0x01098012), Fickblix (ID: 17399826/0x01098012)], work=[10*, 0*]
 80: 0x0207 [0x1C] WAIT(600* ticks)
 81: 0x020A [0x4E] SET_ENTITY_HIDE_FLAG: Hide Fickblix (ID: 17399826/0x01098012)
 82: 0x0210 [0x1C] WAIT(100* ticks)
 83: 0x0213 [0x55] WAIT_LOAD_SCHEDULER: Wait for scheduler "cm03" with entities [EventEntity, EventEntity], work=146*
 84: 0x0222 [0x1C] WAIT(90* ticks)
 85: 0x0225 [0x29] REQ_SET_WAIT(priority=0x04, entity_id=Verena (ID: 17399827/0x01098013), tag_num=0x0B)
 86: 0x022C [0x4A] LocalPlayer looks at Verena (ID: 17399827/0x01098013)
 87: 0x0235 [0x29] REQ_SET_WAIT(priority=0x05, entity_id=Verena (ID: 17399827/0x01098013), tag_num=0x08)
 88: 0x023C [0x2B] Verena (ID: 17399827/0x01098013) [7316*]:
    → "Fickblix always told us that someday people and beastmen would get along."
 89: 0x0243 [0x23] WAIT_FOR_DIALOG_INTERACTION
 90: 0x0244 [0x2B] Verena (ID: 17399827/0x01098013) [7317*]:
    → "I suppose you'll keep on hating them. No, not just hating, actually fighting them."
 91: 0x024B [0x23] WAIT_FOR_DIALOG_INTERACTION
 92: 0x024C [0x29] REQ_SET_WAIT(priority=0x06, entity_id=Verena (ID: 17399827/0x01098013), tag_num=0x09)
 93: 0x0253 [0x1C] WAIT(120* ticks)
 94: 0x0256 [0x4A] Verena (ID: 17399827/0x01098013) looks at LocalPlayer
 95: 0x025F [0x6F] WAIT_FRAME_DELAY: Yield until WaitTime reaches zero
 96: 0x0260 [0x76] CHECK_ENTITY_RENDER_FLAGS: Wait until Verena (ID: 17399827/0x01098013) Render.Flags0 and Render.Flags3 conditions are met
 97: 0x0265 [0x45] LOAD_SCHEDULED_TASK: Load scheduler "cm04" with entities [EventEntity, EventEntity], work=[146*, 0*]
 98: 0x0276 [0x55] WAIT_LOAD_SCHEDULER: Wait for scheduler "cm04" with entities [EventEntity, EventEntity], work=146*
 99: 0x0285 [0x1C] WAIT(30* ticks)
100: 0x0288 [0x27] REQ_SET(priority=0x03, entity_id=Verena (ID: 17399827/0x01098013), tag_num=0x04)
101: 0x028F [0x2B] Verena (ID: 17399827/0x01098013) [7318*]:
    → "But just remember this one thing. Some beastmen think like Fickblix did."
102: 0x0296 [0x23] WAIT_FOR_DIALOG_INTERACTION
103: 0x0297 [0x2B] Verena (ID: 17399827/0x01098013) [7319*]:
    → "There's more to life than what you see in front of you. We are all flowing on the river of life, not just watching from the banks."
104: 0x029E [0x23] WAIT_FOR_DIALOG_INTERACTION
105: 0x029F [0x29] REQ_SET_WAIT(priority=0x03, entity_id=Verena (ID: 17399827/0x01098013), tag_num=0x05)
106: 0x02A6 [0x7B] Verena (ID: 17399827/0x01098013) stops talking
107: 0x02AB [0x1C] WAIT(60* ticks)
108: 0x02AE [0x27] REQ_SET(priority=0x04, entity_id=Verena (ID: 17399827/0x01098013), tag_num=0x03)
109: 0x02B5 [0x06] ExtData[1]->WorkLocal[3] = 0
110: 0x02B8 [0x02] IF !(ExtData[1]->WorkLocal[3] > 120*) GOTO 0x02D4
111: 0x02C0 [0x4A] LocalPlayer looks at Verena (ID: 17399827/0x01098013)
112: 0x02C9 [0x1C] WAIT(40* ticks)
113: 0x02CC [0x07] ExtData[1]->WorkLocal[3] += 40*
114: 0x02D1 [0x01] GOTO 0x02B8
115: 0x02D4 [0x45] LOAD_SCHEDULED_TASK: Load scheduler "fdo2" with entities [LocalPlayer, LocalPlayer], work=[200*, 0*]
116: 0x02E5 [0x55] WAIT_LOAD_SCHEDULER: Wait for scheduler "fdo2" with entities [LocalPlayer, LocalPlayer], work=200*
117: 0x02F4 [0x5C] MUSIC_CONTROL: Set Idle (Day) music to song 0*
118: 0x02F8 [0x5C] MUSIC_CONTROL: Set Idle (Night) music to song 0*
119: 0x02FC [0x46] CAMERA_CONTROL: Restore default settings
120: 0x02FE [0x45] LOAD_SCHEDULED_TASK: Load scheduler "fdi2" with entities [LocalPlayer, LocalPlayer], work=[200*, 0*]
121: 0x030F [0x01] GOTO 0x0337
122: 0x0312 [0x45] LOAD_SCHEDULED_TASK: Load scheduler "fdi2" with entities [LocalPlayer, LocalPlayer], work=[200*, 0*]
123: 0x0323 [0x55] WAIT_LOAD_SCHEDULER: Wait for scheduler "fdi2" with entities [LocalPlayer, LocalPlayer], work=200*
124: 0x0332 [0x03] Work_Zone[1] = 1073741824*

SUBROUTINE_0337:
125: 0x0337 [0x21] END_EVENT
126: 0x0338 [0x00] END_REQSTACK()
```

### Event 65535.1

#### Metadata

| Field        | Value    |
|--------------|----------|
| Entrypoint   | 0x0339   |
| Data Size    | 13 bytes |
| Instructions | 3        |

```
      00 01 02 03 04 05 06 07  08 09 0A 0B 0C 0D 0E 0F
      -- -- -- -- -- -- -- --  -- -- -- -- -- -- -- --
0330:                             47 00 27 80 28 80 29           G.'.(.)
0340: 80 2A 80 47 01 00                                 .*.G..          
```

#### Opcodes

```
  0: 0x0339 [0x47] UPDATE_PLAYER_POS(16.907*, -19.032*, 0.250*, yaw=243.2°*)
  1: 0x0343 [0x47] WAIT_PLAYER_POS_UPDATE
  2: 0x0345 [0x00] END_REQSTACK()
```

### Event 65535.2

#### Metadata

| Field        | Value    |
|--------------|----------|
| Entrypoint   | 0x0346   |
| Data Size    | 13 bytes |
| Instructions | 3        |

```
      00 01 02 03 04 05 06 07  08 09 0A 0B 0C 0D 0E 0F
      -- -- -- -- -- -- -- --  -- -- -- -- -- -- -- --
0340:                   47 00  2B 80 2C 80 2D 80 2E 80        G.+.,.-...
0350: 47 01 00                                          G..             
```

#### Opcodes

```
  0: 0x0346 [0x47] UPDATE_PLAYER_POS(-343.890*, 43.051*, 25.249*, yaw=250.9°*)
  1: 0x0350 [0x47] WAIT_PLAYER_POS_UPDATE
  2: 0x0352 [0x00] END_REQSTACK()
```

### Event 65535.3

#### Metadata

| Field        | Value    |
|--------------|----------|
| Entrypoint   | 0x0353   |
| Data Size    | 13 bytes |
| Instructions | 3        |

```
      00 01 02 03 04 05 06 07  08 09 0A 0B 0C 0D 0E 0F
      -- -- -- -- -- -- -- --  -- -- -- -- -- -- -- --
0350:          47 00 2F 80 30  80 31 80 32 80 47 01 00     G./.0.1.2.G..
```

#### Opcodes

```
  0: 0x0353 [0x47] UPDATE_PLAYER_POS(-91.644*, 92.557*, -72.000*, yaw=190.6°*)
  1: 0x035D [0x47] WAIT_PLAYER_POS_UPDATE
  2: 0x035F [0x00] END_REQSTACK()
```

### Event 65535.4

#### Metadata

| Field        | Value    |
|--------------|----------|
| Entrypoint   | 0x0360   |
| Data Size    | 10 bytes |
| Instructions | 2        |

```
      00 01 02 03 04 05 06 07  08 09 0A 0B 0C 0D 0E 0F
      -- -- -- -- -- -- -- --  -- -- -- -- -- -- -- --
0360: 37 33 80 34 80 2D 80 35  80 00                    73.4.-.5..      
```

#### Opcodes

```
  0: 0x0360 [0x37] UPDATE_EVENT_POSITION_AND_DIR: x=-343.738*, z=43.282*, y=25.249*, direction=236.4°*
  1: 0x0369 [0x00] END_REQSTACK()
```

### Event 65535.5

#### Metadata

| Field        | Value    |
|--------------|----------|
| Entrypoint   | 0x036A   |
| Data Size    | 10 bytes |
| Instructions | 2        |

```
      00 01 02 03 04 05 06 07  08 09 0A 0B 0C 0D 0E 0F
      -- -- -- -- -- -- -- --  -- -- -- -- -- -- -- --
0360:                                37 36 80 37 80 2D            76.7.-
0370: 80 38 80 00                                       .8..            
```

#### Opcodes

```
  0: 0x036A [0x37] UPDATE_EVENT_POSITION_AND_DIR: x=-342.571*, z=41.345*, y=25.249*, direction=170.5°*
  1: 0x0373 [0x00] END_REQSTACK()
```

### Event 65535.6

#### Metadata

| Field        | Value    |
|--------------|----------|
| Entrypoint   | 0x0374   |
| Data Size    | 55 bytes |
| Instructions | 5        |

```
      00 01 02 03 04 05 06 07  08 09 0A 0B 0C 0D 0E 0F
      -- -- -- -- -- -- -- --  -- -- -- -- -- -- -- --
0370:             45 09 80 15  80 09 01 15 80 09 01 62      E..........b
0380: 6C 6F 6E 02 80 45 39 80  F0 FF FF 7F F0 FF FF 7F  lon..E9.........
0390: 62 6C 6F 6E 02 80 1C 1F  80 45 09 80 15 80 09 01  blon.....E......
03A0: 15 80 09 01 62 6C 6F 66  02 80 00                 ....blof...     
```

#### Opcodes

```
  0: 0x0374 [0x45] LOAD_SCHEDULED_TASK: Load scheduler "blon" with entities [Star Sibyl (ID: 17399829/0x01098015), Star Sibyl (ID: 17399829/0x01098015)], work=[200*, 0*]
  1: 0x0385 [0x45] LOAD_SCHEDULED_TASK: Load scheduler "blon" with entities [LocalPlayer, LocalPlayer], work=[201*, 0*]
  2: 0x0396 [0x1C] WAIT(100* ticks)
  3: 0x0399 [0x45] LOAD_SCHEDULED_TASK: Load scheduler "blof" with entities [Star Sibyl (ID: 17399829/0x01098015), Star Sibyl (ID: 17399829/0x01098015)], work=[200*, 0*]
  4: 0x03AA [0x00] END_REQSTACK()
```

### Event 46

#### Metadata

| Field        | Value      |
|--------------|------------|
| Entrypoint   | 0x03AB     |
| Data Size    | 1002 bytes |
| Instructions | 128        |

```
      00 01 02 03 04 05 06 07  08 09 0A 0B 0C 0D 0E 0F
      -- -- -- -- -- -- -- --  -- -- -- -- -- -- -- --
03A0:                                   42 46 01 5D 02             BF.].
03B0: 80 08 80 45 09 80 F0 FF  FF 7F F0 FF FF 7F 66 64  ...E..........fd
03C0: 6F 31 02 80 55 09 80 F0  FF FF 7F F0 FF FF 7F 66  o1..U..........f
03D0: 64 6F 31 5C 00 3A 80 5C  01 3A 80 38 03 80 4E 00  do1\.:.\.:.8..N.
03E0: 2E 80 09 01 37 3B 80 3C  80 3D 80 3E 80 22 00 79  ....7;.<.=.>.".y
03F0: 00 F0 FF FF 7F 2E 80 09  01 27 0A 2E 80 09 01 02  .........'......
0400: 45 3F 80 F0 FF FF 7F F0  FF FF 7F 73 30 34 33 02  E?.........s043.
0410: 80 45 09 80 F0 FF FF 7F  F0 FF FF 7F 66 64 69 31  .E..........fdi1
0420: 02 80 2A 0A 2E 80 09 01  55 3F 80 F0 FF FF 7F F0  ..*.....U?......
0430: FF FF 7F 73 30 34 33 45  3F 80 F0 FF FF 7F F0 FF  ...s043E?.......
0440: FF 7F 73 30 34 34 02 80  4B 2E 80 09 01 40 80 5B  ..s044..K....@.[
0450: 41 80 2E 80 09 01 2E 80  09 01 61 6E 67 30 2B 2E  A.........ang0+.
0460: 80 09 01 42 80 32 43 80  1F 00 44 80 45 80 46 80  ...B.2C...D.E.F.
0470: 1F 01 6F 23 5B 41 80 2E  80 09 01 2E 80 09 01 61  ..o#[A.........a
0480: 6E 67 31 2B 2E 80 09 01  47 80 23 4A 2E 80 09 01  ng1+....G.#J....
0490: F0 FF FF 7F 1C 3F 80 52  3F 80 F0 FF FF 7F F0 FF  .....?.R?.......
04A0: FF 7F 73 30 34 34 45 3F  80 F0 FF FF 7F F0 FF FF  ..s044E?........
04B0: 7F 73 30 34 35 02 80 1C  12 80 5B 41 80 2E 80 09  .s045.....[A....
04C0: 01 2E 80 09 01 62 69 6B  30 2B 2E 80 09 01 48 80  .....bik0+....H.
04D0: 23 5B 41 80 2E 80 09 01  2E 80 09 01 62 69 6B 31  #[A.........bik1
04E0: 2B 2E 80 09 01 49 80 23  5B 4A 80 2E 80 09 01 2E  +....I.#[J......
04F0: 80 09 01 74 6C 6B 30 2B  2E 80 09 01 4B 80 23 52  ...tlk0+....K.#R
0500: 3F 80 F0 FF FF 7F F0 FF  FF 7F 73 30 34 35 45 3F  ?.........s045E?
0510: 80 F0 FF FF 7F F0 FF FF  7F 73 30 34 36 02 80 2B  .........s046..+
0520: 2E 80 09 01 4C 80 23 5B  4A 80 2E 80 09 01 2E 80  ....L.#[J.......
0530: 09 01 74 6C 6B 31 2B 2E  80 09 01 4D 80 23 6B 69  ..tlk1+....M.#ki
0540: 64 6C 30 2E 80 09 01 2B  2E 80 09 01 4E 80 23 52  dl0....+....N.#R
0550: 3F 80 F0 FF FF 7F F0 FF  FF 7F 73 30 34 36 45 3F  ?.........s046E?
0560: 80 F0 FF FF 7F F0 FF FF  7F 73 30 34 37 02 80 5B  .........s047..[
0570: 4A 80 2E 80 09 01 2E 80  09 01 74 6C 6B 30 2B 2E  J.........tlk0+.
0580: 80 09 01 4F 80 23 6B 69  64 6C 30 2E 80 09 01 2B  ...O.#kidl0....+
0590: 2E 80 09 01 50 80 23 24  51 80 02 80 02 80 25 02  ....P.#$Q.....%.
05A0: 00 10 52 80 00 EC 05 27  0A 2E 80 09 01 03 52 3F  ..R....'......R?
05B0: 80 F0 FF FF 7F F0 FF FF  7F 73 30 34 37 45 3F 80  .........s047E?.
05C0: F0 FF FF 7F F0 FF FF 7F  73 30 34 38 02 80 2B 2E  ........s048..+.
05D0: 80 09 01 53 80 23 2A 0A  2E 80 09 01 27 0A 2E 80  ...S.#*.....'...
05E0: 09 01 04 05 01 10 01 26  07 01 EC 05 27 0A 2E 80  .......&....'...
05F0: 09 01 03 52 3F 80 F0 FF  FF 7F F0 FF FF 7F 73 30  ...R?.........s0
0600: 34 37 45 3F 80 F0 FF FF  7F F0 FF FF 7F 73 30 34  47E?.........s04
0610: 38 02 80 2B 2E 80 09 01  54 80 23 2B 2E 80 09 01  8..+....T.#+....
0620: 55 80 23 2A 0A 2E 80 09  01 5B 4A 80 2E 80 09 01  U.#*.....[J.....
0630: 2E 80 09 01 74 6C 6B 30  2B 2E 80 09 01 56 80 23  ....tlk0+....V.#
0640: 6B 69 64 6C 30 2E 80 09  01 52 3F 80 F0 FF FF 7F  kidl0....R?.....
0650: F0 FF FF 7F 73 30 34 38  45 3F 80 F0 FF FF 7F F0  ....s048E?......
0660: FF FF 7F 73 30 34 39 02  80 4A 2E 80 09 01 F0 FF  ...s049..J......
0670: FF 7F 2B 2E 80 09 01 57  80 23 1E 2E 80 09 01 24  ..+....W.#.....$
0680: 58 80 02 80 02 80 25 02  00 10 52 80 00 AE 06 4B  X.....%...R....K
0690: 2E 80 09 01 02 80 2B 2E  80 09 01 59 80 23 05 01  ......+....Y.#..
06A0: 10 27 0A 2E 80 09 01 04  01 26 07 01 AE 06 5B 4A  .'.......&....[J
06B0: 80 2E 80 09 01 2E 80 09  01 74 6C 6B 30 2B 2E 80  .........tlk0+..
06C0: 09 01 5A 80 23 52 3F 80  F0 FF FF 7F F0 FF FF 7F  ..Z.#R?.........
06D0: 73 30 34 39 45 3F 80 F0  FF FF 7F F0 FF FF 7F 73  s049E?.........s
06E0: 30 35 30 02 80 5B 4A 80  2E 80 09 01 2E 80 09 01  050..[J.........
06F0: 74 6C 6B 31 2B 2E 80 09  01 5B 80 23 6B 69 64 6C  tlk1+....[.#kidl
0700: 30 2E 80 09 01 2B 2E 80  09 01 5C 80 23 4B 2E 80  0....+....\.#K..
0710: 09 01 02 80 2B 2E 80 09  01 5D 80 23 06 01 10 27  ....+....].#...'
0720: 0A 2E 80 09 01 04 5D 02  80 1C 80 45 09 80 F0 FF  ......]....E....
0730: FF 7F F0 FF FF 7F 66 64  6F 32 02 80 55 09 80 F0  ......fdo2..U...
0740: FF FF 7F F0 FF FF 7F 66  64 6F 32 52 3F 80 F0 FF  .......fdo2R?...
0750: FF 7F F0 FF FF 7F 73 30  34 38 52 3F 80 F0 FF FF  ......s048R?....
0760: 7F F0 FF FF 7F 73 30 34  39 52 3F 80 F0 FF FF 7F  .....s049R?.....
0770: F0 FF FF 7F 73 30 35 30  5C 00 02 80 5C 01 02 80  ....s050\...\...
0780: 46 00 45 09 80 F0 FF FF  7F F0 FF FF 7F 66 64 69  F.E..........fdi
0790: 31 02 80 21 00                                    1..!.           
```

#### Opcodes

```
  0: 0x03AB [0x42] SET_CLI_EVENT_CANCEL_DATA()
  1: 0x03AC [0x46] CAMERA_CONTROL: Disable user control
  2: 0x03AE [0x5D] SET_MUSIC_VOLUME(volume=0*, fade_time=60*)
  3: 0x03B3 [0x45] LOAD_SCHEDULED_TASK: Load scheduler "fdo1" with entities [LocalPlayer, LocalPlayer], work=[200*, 0*]
  4: 0x03C4 [0x55] WAIT_LOAD_SCHEDULER: Wait for scheduler "fdo1" with entities [LocalPlayer, LocalPlayer], work=200*
  5: 0x03D3 [0x5C] MUSIC_CONTROL: Set Idle (Day) music to song 163*
  6: 0x03D7 [0x5C] MUSIC_CONTROL: Set Idle (Night) music to song 163*
  7: 0x03DB [0x38] SET_CLIENT_EVENT_MODE(mode=19*)
  8: 0x03DE [0x4E] SET_ENTITY_HIDE_FLAG: Show Hooknox (ID: 17399854/0x0109802E)
  9: 0x03E4 [0x37] UPDATE_EVENT_POSITION_AND_DIR: x=-261.914*, z=-99.272*, y=13.870*, direction=185.0°*
 10: 0x03ED [0x22] ENTITY_HIDE_FLAG(enabled=0x00)
 11: 0x03EF [0x79] LocalPlayer looks at Hooknox (ID: 17399854/0x0109802E) (Basic look)
 12: 0x03F9 [0x27] REQ_SET(priority=0x0A, entity_id=Hooknox (ID: 17399854/0x0109802E), tag_num=0x02)
 13: 0x0400 [0x45] LOAD_SCHEDULED_TASK: Load scheduler "s043" with entities [LocalPlayer, LocalPlayer], work=[5*, 0*]
 14: 0x0411 [0x45] LOAD_SCHEDULED_TASK: Load scheduler "fdi1" with entities [LocalPlayer, LocalPlayer], work=[200*, 0*]
 15: 0x0422 [0x2A] GET_REQ_LEVEL(level=10, entity_id=Hooknox (ID: 17399854/0x0109802E))
 16: 0x0428 [0x55] WAIT_LOAD_SCHEDULER: Wait for scheduler "s043" with entities [LocalPlayer, LocalPlayer], work=5*
 17: 0x0437 [0x45] LOAD_SCHEDULED_TASK: Load scheduler "s044" with entities [LocalPlayer, LocalPlayer], work=[5*, 0*]
 18: 0x0448 [0x4B] UPDATE_ENTITY_YAW(entity=Hooknox (ID: 17399854/0x0109802E), yaw=11.5°*)
 19: 0x044F [0x5B] LOAD_EXT_SCHEDULER: Load scheduler "ang0" with entities [Hooknox (ID: 17399854/0x0109802E), Hooknox (ID: 17399854/0x0109802E)], work=216*
 20: 0x045E [0x2B] Hooknox (ID: 17399854/0x0109802E) [7337*]:
    → "I can't believe this happened! If anybody were to find out, poor Hooknox would never be able to show her pretty Gobbie face in public agai--"
 21: 0x0465 [0x32] ExtData[1]->MainSpeed = 13* * 0.1
 22: 0x0468 [0x1F] MOVE_ENTITY: EventEntity moves to X=-265.566*, Z=-98.601*, Y=13.579*
 23: 0x0470 [0x1F] MOVE_ENTITY: Update entity position (mode=1)
 24: 0x0472 [0x6F] WAIT_FRAME_DELAY: Yield until WaitTime reaches zero
 25: 0x0473 [0x23] WAIT_FOR_DIALOG_INTERACTION
 26: 0x0474 [0x5B] LOAD_EXT_SCHEDULER: Load scheduler "ang1" with entities [Hooknox (ID: 17399854/0x0109802E), Hooknox (ID: 17399854/0x0109802E)], work=216*
 27: 0x0483 [0x2B] Hooknox (ID: 17399854/0x0109802E) [7396*]:
    → "........."
 28: 0x048A [0x23] WAIT_FOR_DIALOG_INTERACTION
 29: 0x048B [0x4A] Hooknox (ID: 17399854/0x0109802E) looks at LocalPlayer
 30: 0x0494 [0x1C] WAIT(5* ticks)
 31: 0x0497 [0x52] END_LOAD_SCHEDULER: End scheduler "s044" with entities [LocalPlayer, LocalPlayer], work=5*
 32: 0x04A6 [0x45] LOAD_SCHEDULED_TASK: Load scheduler "s045" with entities [LocalPlayer, LocalPlayer], work=[5*, 0*]
 33: 0x04B7 [0x1C] WAIT(10* ticks)
 34: 0x04BA [0x5B] LOAD_EXT_SCHEDULER: Load scheduler "bik0" with entities [Hooknox (ID: 17399854/0x0109802E), Hooknox (ID: 17399854/0x0109802E)], work=216*
 35: 0x04C9 [0x2B] Hooknox (ID: 17399854/0x0109802E) [7338*]:
    → "Ahhh! Adventurer! How long have you been standing there!? You heard nothing, right? You hear something, Hooknox cut out your tongue and feed it to pet coeurl, Miffie."
 36: 0x04D0 [0x23] WAIT_FOR_DIALOG_INTERACTION
 37: 0x04D1 [0x5B] LOAD_EXT_SCHEDULER: Load scheduler "bik1" with entities [Hooknox (ID: 17399854/0x0109802E), Hooknox (ID: 17399854/0x0109802E)], work=216*
 38: 0x04E0 [0x2B] Hooknox (ID: 17399854/0x0109802E) [7339*]:
    → "Hah hah hah! Just kidding! Coeurl's name is Brutus, not Miffie. Hah hah hah! Just kidding! Hooknox won't hurt you."
 39: 0x04E7 [0x23] WAIT_FOR_DIALOG_INTERACTION
 40: 0x04E8 [0x5B] LOAD_EXT_SCHEDULER: Load scheduler "tlk0" with entities [Hooknox (ID: 17399854/0x0109802E), Hooknox (ID: 17399854/0x0109802E)], work=215*
 41: 0x04F7 [0x2B] Hooknox (ID: 17399854/0x0109802E) [7340*]:
    → "I'm adventurer, just like you...only lot cuter! You can call me Nox if Hooknox is too hard to pronounce with that funny-shaped mouth of yours."
 42: 0x04FE [0x23] WAIT_FOR_DIALOG_INTERACTION
 43: 0x04FF [0x52] END_LOAD_SCHEDULER: End scheduler "s045" with entities [LocalPlayer, LocalPlayer], work=5*
 44: 0x050E [0x45] LOAD_SCHEDULED_TASK: Load scheduler "s046" with entities [LocalPlayer, LocalPlayer], work=[5*, 0*]
 45: 0x051F [0x2B] Hooknox (ID: 17399854/0x0109802E) [7341*]:
    → "Eh? What is Hooknox doing here? Well, I guess I can tell you... Just last week, yours truly got her hands on some juicy info about huge shipment of riches sent to head honcho of this place from some bigwig in East."
 46: 0x0526 [0x23] WAIT_FOR_DIALOG_INTERACTION
 47: 0x0527 [0x5B] LOAD_EXT_SCHEDULER: Load scheduler "tlk1" with entities [Hooknox (ID: 17399854/0x0109802E), Hooknox (ID: 17399854/0x0109802E)], work=215*
 48: 0x0536 [0x2B] Hooknox (ID: 17399854/0x0109802E) [7342*]:
    → "Hey, we've all heard stories of Eastern Empire's solid jade futons, ruby chandeliers, and gold-laden chamber pots. And I'd bet my baby Brutus's collar that this Yagudo treasure is just as tasty!"
 49: 0x053D [0x23] WAIT_FOR_DIALOG_INTERACTION
 50: 0x053E [0x6B] STOP_AND_IDLE: Hooknox (ID: 17399854/0x0109802E) stops current action and resets to idle (animation="idl0")
 51: 0x0547 [0x2B] Hooknox (ID: 17399854/0x0109802E) [7343*]:
    → "So, I rushed down to local auction house and bought all Yagudo feathers on sale. Then I use Old Muckvix's world-famous super-adhesive animal glue (now safe for children!) to stick all feathers to Hooknox's pretty figure. I looked just like one of those overgrown crows...or is that undergrown chocobos?"
 52: 0x054E [0x23] WAIT_FOR_DIALOG_INTERACTION
 53: 0x054F [0x52] END_LOAD_SCHEDULER: End scheduler "s046" with entities [LocalPlayer, LocalPlayer], work=5*
 54: 0x055E [0x45] LOAD_SCHEDULED_TASK: Load scheduler "s047" with entities [LocalPlayer, LocalPlayer], work=[5*, 0*]
 55: 0x056F [0x5B] LOAD_EXT_SCHEDULER: Load scheduler "tlk0" with entities [Hooknox (ID: 17399854/0x0109802E), Hooknox (ID: 17399854/0x0109802E)], work=215*
 56: 0x057E [0x2B] Hooknox (ID: 17399854/0x0109802E) [7344*]:
    → "Anyway, Hooknox made it in here, no sweat. But once I got in...that's when I started to sweat. And that's when Yagudo disguise started getting all itchy and scratchy. Hooknox couldn't take it anymore, so I ripped off feathers and...and that's when adventurer walked in."
 57: 0x0585 [0x23] WAIT_FOR_DIALOG_INTERACTION
 58: 0x0586 [0x6B] STOP_AND_IDLE: Hooknox (ID: 17399854/0x0109802E) stops current action and resets to idle (animation="idl0")
 59: 0x058F [0x2B] Hooknox (ID: 17399854/0x0109802E) [7345*]:
    → "So, what do you say? Feel like teaming up with cute Gobbie on quest for fame and riches? What? You don't feel good about stealing from crazy Yagudo? But just think of consequences. If Yagudo sell treasure, they get gil to buy sharp knives and pointy swords--then they take knives and swords and use them to poke out your eyes while you sleep!"
 60: 0x0596 [0x23] WAIT_FOR_DIALOG_INTERACTION
 61: 0x0597 [0x24] CREATE_DIALOG(message_id=7346*, default_option=0*, option_flags=0*)
    → "Come on, it'll be fun! [Alright! I'm in!/I'll wear goggles to bed.]"
 62: 0x059E [0x25] WAIT_DIALOG_SELECT()
 63: 0x059F [0x02] IF !(Work_Zone[0] == 1*) GOTO 0x05EC
 64: 0x05A7 [0x27] REQ_SET(priority=0x0A, entity_id=Hooknox (ID: 17399854/0x0109802E), tag_num=0x03)
 65: 0x05AE [0x52] END_LOAD_SCHEDULER: End scheduler "s047" with entities [LocalPlayer, LocalPlayer], work=5*
 66: 0x05BD [0x45] LOAD_SCHEDULED_TASK: Load scheduler "s048" with entities [LocalPlayer, LocalPlayer], work=[5*, 0*]
 67: 0x05CE [0x2B] Hooknox (ID: 17399854/0x0109802E) [7347*]:
    → "Hmph... Then I guess I'll just have to spend all those riches myself!"
 68: 0x05D5 [0x23] WAIT_FOR_DIALOG_INTERACTION
 69: 0x05D6 [0x2A] GET_REQ_LEVEL(level=10, entity_id=Hooknox (ID: 17399854/0x0109802E))
 70: 0x05DC [0x27] REQ_SET(priority=0x0A, entity_id=Hooknox (ID: 17399854/0x0109802E), tag_num=0x04)
 71: 0x05E3 [0x05] Work_Zone[1] = 1
 72: 0x05E6 [0x01] GOTO 0x0726

SUBROUTINE_05EC:
 73: 0x05EC [0x27] REQ_SET(priority=0x0A, entity_id=Hooknox (ID: 17399854/0x0109802E), tag_num=0x03)
 74: 0x05F3 [0x52] END_LOAD_SCHEDULER: End scheduler "s047" with entities [LocalPlayer, LocalPlayer], work=5*
 75: 0x0602 [0x45] LOAD_SCHEDULED_TASK: Load scheduler "s048" with entities [LocalPlayer, LocalPlayer], work=[5*, 0*]
 76: 0x0613 [0x2B] Hooknox (ID: 17399854/0x0109802E) [7348*]:
    → "Heh heh... Spoken like true sucker... Huh? You didn't hear that, right? Brutus! Brutus!"
 77: 0x061A [0x23] WAIT_FOR_DIALOG_INTERACTION
 78: 0x061B [0x2B] Hooknox (ID: 17399854/0x0109802E) [7349*]:
    → "Ahem! Here's plan... You sneak into Yagudo head honcho treasure vault. Then, you steal treasure."
 79: 0x0622 [0x23] WAIT_FOR_DIALOG_INTERACTION
 80: 0x0623 [0x2A] GET_REQ_LEVEL(level=10, entity_id=Hooknox (ID: 17399854/0x0109802E))
 81: 0x0629 [0x5B] LOAD_EXT_SCHEDULER: Load scheduler "tlk0" with entities [Hooknox (ID: 17399854/0x0109802E), Hooknox (ID: 17399854/0x0109802E)], work=215*
 82: 0x0638 [0x2B] Hooknox (ID: 17399854/0x0109802E) [7350*]:
    → "Get all that? Oh yeah, there's tricky lock on giant stone coffer, but yours truly already swiped key! Hm? How'd Hooknox manage that? Well, after I scaled 5000-yalm cliff and fought off army of bloodsucking..."
 83: 0x063F [0x23] WAIT_FOR_DIALOG_INTERACTION
 84: 0x0640 [0x6B] STOP_AND_IDLE: Hooknox (ID: 17399854/0x0109802E) stops current action and resets to idle (animation="idl0")
 85: 0x0649 [0x52] END_LOAD_SCHEDULER: End scheduler "s048" with entities [LocalPlayer, LocalPlayer], work=5*
 86: 0x0658 [0x45] LOAD_SCHEDULED_TASK: Load scheduler "s049" with entities [LocalPlayer, LocalPlayer], work=[5*, 0*]
 87: 0x0669 [0x4A] Hooknox (ID: 17399854/0x0109802E) looks at LocalPlayer
 88: 0x0672 [0x2B] Hooknox (ID: 17399854/0x0109802E) [7351*]:
    → "Wait! First things first. Now, once you get treasure, you come straight back here. If treasure is gold and jewels, Hooknox keep and give you half its value in gil. If treasure is super weapon, you keep and give me half its value in gil."
 89: 0x0679 [0x23] WAIT_FOR_DIALOG_INTERACTION
 90: 0x067A [0x1E] EventEntity looks at Hooknox (ID: 17399854/0x0109802E) and starts talking
 91: 0x067F [0x24] CREATE_DIALOG(message_id=7352*, default_option=0*, option_flags=0*)
    → "Sound fair? [Fair enough!/I need to talk to my manager.]"
 92: 0x0686 [0x25] WAIT_DIALOG_SELECT()
 93: 0x0687 [0x02] IF !(Work_Zone[0] == 1*) GOTO 0x06AE
 94: 0x068F [0x4B] UPDATE_ENTITY_YAW(entity=Hooknox (ID: 17399854/0x0109802E), yaw=0.0°*)
 95: 0x0696 [0x2B] Hooknox (ID: 17399854/0x0109802E) [7353*]:
    → "Oh well, I'll send you postcard from summer home I buy on Purgonorgo Isle! Adios!"
 96: 0x069D [0x23] WAIT_FOR_DIALOG_INTERACTION
 97: 0x069E [0x05] Work_Zone[1] = 1
 98: 0x06A1 [0x27] REQ_SET(priority=0x0A, entity_id=Hooknox (ID: 17399854/0x0109802E), tag_num=0x04)
 99: 0x06A8 [0x01] GOTO 0x0726

SUBROUTINE_06AE:
100: 0x06AE [0x5B] LOAD_EXT_SCHEDULER: Load scheduler "tlk0" with entities [Hooknox (ID: 17399854/0x0109802E), Hooknox (ID: 17399854/0x0109802E)], work=215*
101: 0x06BD [0x2B] Hooknox (ID: 17399854/0x0109802E) [7354*]:
    → "Alright! Now let's get mov... Ummm... You're not thinking of waltzing into head honcho's private quarters looking like that, are you?"
102: 0x06C4 [0x23] WAIT_FOR_DIALOG_INTERACTION
103: 0x06C5 [0x52] END_LOAD_SCHEDULER: End scheduler "s049" with entities [LocalPlayer, LocalPlayer], work=5*
104: 0x06D4 [0x45] LOAD_SCHEDULED_TASK: Load scheduler "s050" with entities [LocalPlayer, LocalPlayer], work=[5*, 0*]
105: 0x06E5 [0x5B] LOAD_EXT_SCHEDULER: Load scheduler "tlk1" with entities [Hooknox (ID: 17399854/0x0109802E), Hooknox (ID: 17399854/0x0109802E)], work=215*
106: 0x06F4 [0x2B] Hooknox (ID: 17399854/0x0109802E) [7355*]:
    → "You need disguise, just like Hooknox's (only maybe not as scratchy)."
107: 0x06FB [0x23] WAIT_FOR_DIALOG_INTERACTION
108: 0x06FC [0x6B] STOP_AND_IDLE: Hooknox (ID: 17399854/0x0109802E) stops current action and resets to idle (animation="idl0")
109: 0x0705 [0x2B] Hooknox (ID: 17399854/0x0109802E) [7356*]:
    → "I know! Why not ask funny Tarutaru lady at Weavemeister Guild in Windurst?"
110: 0x070C [0x23] WAIT_FOR_DIALOG_INTERACTION
111: 0x070D [0x4B] UPDATE_ENTITY_YAW(entity=Hooknox (ID: 17399854/0x0109802E), yaw=0.0°*)
112: 0x0714 [0x2B] Hooknox (ID: 17399854/0x0109802E) [7357*]:
    → "Hooknox will wait for you here, but hurry up! We wouldn't want some other Gobbie putting her grimy hands on my...our treasure!"
113: 0x071B [0x23] WAIT_FOR_DIALOG_INTERACTION
114: 0x071C [0x06] Work_Zone[1] = 0
115: 0x071F [0x27] REQ_SET(priority=0x0A, entity_id=Hooknox (ID: 17399854/0x0109802E), tag_num=0x04)

SUBROUTINE_0726:
116: 0x0726 [0x5D] SET_MUSIC_VOLUME(volume=0*, fade_time=120*)
117: 0x072B [0x45] LOAD_SCHEDULED_TASK: Load scheduler "fdo2" with entities [LocalPlayer, LocalPlayer], work=[200*, 0*]
118: 0x073C [0x55] WAIT_LOAD_SCHEDULER: Wait for scheduler "fdo2" with entities [LocalPlayer, LocalPlayer], work=200*
119: 0x074B [0x52] END_LOAD_SCHEDULER: End scheduler "s048" with entities [LocalPlayer, LocalPlayer], work=5*
120: 0x075A [0x52] END_LOAD_SCHEDULER: End scheduler "s049" with entities [LocalPlayer, LocalPlayer], work=5*
121: 0x0769 [0x52] END_LOAD_SCHEDULER: End scheduler "s050" with entities [LocalPlayer, LocalPlayer], work=5*
122: 0x0778 [0x5C] MUSIC_CONTROL: Set Idle (Day) music to song 0*
123: 0x077C [0x5C] MUSIC_CONTROL: Set Idle (Night) music to song 0*
124: 0x0780 [0x46] CAMERA_CONTROL: Restore default settings
125: 0x0782 [0x45] LOAD_SCHEDULED_TASK: Load scheduler "fdi1" with entities [LocalPlayer, LocalPlayer], work=[200*, 0*]
126: 0x0793 [0x21] END_EVENT
127: 0x0794 [0x00] END_REQSTACK()
```

#### Data or dead code:

```
# Dead code (unreachable instructions):
     0x05E9 [0x01] GOTO 0x05EC
# Dead code (unreachable instructions):
     0x06AB [0x01] GOTO 0x06AE
```

### Event 47

#### Metadata

| Field        | Value     |
|--------------|-----------|
| Entrypoint   | 0x0795    |
| Data Size    | 482 bytes |
| Instructions | 57        |

```
      00 01 02 03 04 05 06 07  08 09 0A 0B 0C 0D 0E 0F
      -- -- -- -- -- -- -- --  -- -- -- -- -- -- -- --
0790:                42 46 01  5D 02 80 08 80 45 09 80       BF.]....E..
07A0: F0 FF FF 7F F0 FF FF 7F  66 64 6F 31 02 80 55 09  ........fdo1..U.
07B0: 80 F0 FF FF 7F F0 FF FF  7F 66 64 6F 31 5C 00 3A  .........fdo1\.:
07C0: 80 5C 01 3A 80 38 03 80  45 3F 80 F0 FF FF 7F F0  .\.:.8..E?......
07D0: FF FF 7F 73 30 35 31 02  80 37 44 80 45 80 46 80  ...s051..7D.E.F.
07E0: 5E 80 22 00 4E 00 2E 80  09 01 45 09 80 F0 FF FF  ^.".N.....E.....
07F0: 7F F0 FF FF 7F 66 64 69  31 02 80 4A 2E 80 09 01  .....fdi1..J....
0800: F0 FF FF 7F 2B 2E 80 09  01 5F 80 23 45 09 80 F0  ....+...._.#E...
0810: FF FF 7F F0 FF FF 7F 66  64 6F 31 02 80 55 09 80  .......fdo1..U..
0820: F0 FF FF 7F F0 FF FF 7F  66 64 6F 31 52 3F 80 F0  ........fdo1R?..
0830: FF FF 7F F0 FF FF 7F 73  30 35 31 45 3F 80 F0 FF  .......s051E?...
0840: FF 7F F0 FF FF 7F 73 30  35 32 02 80 45 09 80 F0  ......s052..E...
0850: FF FF 7F F0 FF FF 7F 66  64 69 31 02 80 1C 08 80  .......fdi1.....
0860: 5B 41 80 2E 80 09 01 2E  80 09 01 66 75 6D 30 2B  [A.........fum0+
0870: 2E 80 09 01 60 80 23 2B  2E 80 09 01 61 80 23 5B  ....`.#+....a.#[
0880: 41 80 2E 80 09 01 2E 80  09 01 66 75 6D 31 27 0A  A.........fum1'.
0890: 2E 80 09 01 06 1C 0D 80  2B 2E 80 09 01 62 80 2A  ........+....b.*
08A0: 0A 2E 80 09 01 5B 4A 80  2E 80 09 01 2E 80 09 01  .....[J.........
08B0: 70 61 73 30 1C 0D 80 23  52 3F 80 F0 FF FF 7F F0  pas0...#R?......
08C0: FF FF 7F 73 30 35 32 45  3F 80 F0 FF FF 7F F0 FF  ...s052E?.......
08D0: FF 7F 73 30 35 33 02 80  2B 2E 80 09 01 63 80 23  ..s053..+....c.#
08E0: 5B 4A 80 2E 80 09 01 2E  80 09 01 74 6C 6B 30 2B  [J.........tlk0+
08F0: 2E 80 09 01 64 80 23 52  3F 80 F0 FF FF 7F F0 FF  ....d.#R?.......
0900: FF 7F 73 30 35 33 45 3F  80 F0 FF FF 7F F0 FF FF  ..s053E?........
0910: 7F 73 30 35 34 02 80 5B  4A 80 2E 80 09 01 2E 80  .s054..[J.......
0920: 09 01 74 6C 6B 31 2B 2E  80 09 01 65 80 23 27 0A  ..tlk1+....e.#'.
0930: 2E 80 09 01 07 5D 02 80  1C 80 45 09 80 F0 FF FF  .....]....E.....
0940: 7F F0 FF FF 7F 66 64 6F  32 02 80 55 09 80 F0 FF  .....fdo2..U....
0950: FF 7F F0 FF FF 7F 66 64  6F 32 5C 00 02 80 5C 01  ......fdo2\...\.
0960: 02 80 46 00 45 09 80 F0  FF FF 7F F0 FF FF 7F 66  ..F.E..........f
0970: 64 69 31 02 80 21 00                              di1..!.         
```

#### Opcodes

```
  0: 0x0795 [0x42] SET_CLI_EVENT_CANCEL_DATA()
  1: 0x0796 [0x46] CAMERA_CONTROL: Disable user control
  2: 0x0798 [0x5D] SET_MUSIC_VOLUME(volume=0*, fade_time=60*)
  3: 0x079D [0x45] LOAD_SCHEDULED_TASK: Load scheduler "fdo1" with entities [LocalPlayer, LocalPlayer], work=[200*, 0*]
  4: 0x07AE [0x55] WAIT_LOAD_SCHEDULER: Wait for scheduler "fdo1" with entities [LocalPlayer, LocalPlayer], work=200*
  5: 0x07BD [0x5C] MUSIC_CONTROL: Set Idle (Day) music to song 163*
  6: 0x07C1 [0x5C] MUSIC_CONTROL: Set Idle (Night) music to song 163*
  7: 0x07C5 [0x38] SET_CLIENT_EVENT_MODE(mode=19*)
  8: 0x07C8 [0x45] LOAD_SCHEDULED_TASK: Load scheduler "s051" with entities [LocalPlayer, LocalPlayer], work=[5*, 0*]
  9: 0x07D9 [0x37] UPDATE_EVENT_POSITION_AND_DIR: x=-265.566*, z=-98.601*, y=13.579*, direction=187.6°*
 10: 0x07E2 [0x22] ENTITY_HIDE_FLAG(enabled=0x00)
 11: 0x07E4 [0x4E] SET_ENTITY_HIDE_FLAG: Show Hooknox (ID: 17399854/0x0109802E)
 12: 0x07EA [0x45] LOAD_SCHEDULED_TASK: Load scheduler "fdi1" with entities [LocalPlayer, LocalPlayer], work=[200*, 0*]
 13: 0x07FB [0x4A] Hooknox (ID: 17399854/0x0109802E) looks at LocalPlayer
 14: 0x0804 [0x2B] Hooknox (ID: 17399854/0x0109802E) [7358*]:
    → "It's about time! Didn't your mother tell you it's rude to keep lady waiting?"
 15: 0x080B [0x23] WAIT_FOR_DIALOG_INTERACTION
 16: 0x080C [0x45] LOAD_SCHEDULED_TASK: Load scheduler "fdo1" with entities [LocalPlayer, LocalPlayer], work=[200*, 0*]
 17: 0x081D [0x55] WAIT_LOAD_SCHEDULER: Wait for scheduler "fdo1" with entities [LocalPlayer, LocalPlayer], work=200*
 18: 0x082C [0x52] END_LOAD_SCHEDULER: End scheduler "s051" with entities [LocalPlayer, LocalPlayer], work=5*
 19: 0x083B [0x45] LOAD_SCHEDULED_TASK: Load scheduler "s052" with entities [LocalPlayer, LocalPlayer], work=[5*, 0*]
 20: 0x084C [0x45] LOAD_SCHEDULED_TASK: Load scheduler "fdi1" with entities [LocalPlayer, LocalPlayer], work=[200*, 0*]
 21: 0x085D [0x1C] WAIT(60* ticks)
 22: 0x0860 [0x5B] LOAD_EXT_SCHEDULER: Load scheduler "fum0" with entities [Hooknox (ID: 17399854/0x0109802E), Hooknox (ID: 17399854/0x0109802E)], work=216*
 23: 0x086F [0x2B] Hooknox (ID: 17399854/0x0109802E) [7359*]:
    → "[.........?/Wait, you're lady, too! Hooknox couldn't tell with that thing on your.........]"
 24: 0x0876 [0x23] WAIT_FOR_DIALOG_INTERACTION
 25: 0x0877 [0x2B] Hooknox (ID: 17399854/0x0109802E) [7360*]:
    → "Wah hah hah hah! Nice hat! Hooknox loves funny jokes. Let Hooknox tell next one. Moblin, Orc, and gigantobugard walk into Steaming Sheep Restaurant..."
 26: 0x087E [0x23] WAIT_FOR_DIALOG_INTERACTION
 27: 0x087F [0x5B] LOAD_EXT_SCHEDULER: Load scheduler "fum1" with entities [Hooknox (ID: 17399854/0x0109802E), Hooknox (ID: 17399854/0x0109802E)], work=216*
 28: 0x088E [0x27] REQ_SET(priority=0x0A, entity_id=Hooknox (ID: 17399854/0x0109802E), tag_num=0x06)
 29: 0x0895 [0x1C] WAIT(30* ticks)
 30: 0x0898 [0x2B] Hooknox (ID: 17399854/0x0109802E) [7361*]:
    → "Hm? Funny hat is not joke? Oh... Well... I guess Hooknox just has to cross fingers on both hands. Here, take vault key."
 31: 0x089F [0x2A] GET_REQ_LEVEL(level=10, entity_id=Hooknox (ID: 17399854/0x0109802E))
 32: 0x08A5 [0x5B] LOAD_EXT_SCHEDULER: Load scheduler "pas0" with entities [Hooknox (ID: 17399854/0x0109802E), Hooknox (ID: 17399854/0x0109802E)], work=215*
 33: 0x08B4 [0x1C] WAIT(30* ticks)
 34: 0x08B7 [0x23] WAIT_FOR_DIALOG_INTERACTION
 35: 0x08B8 [0x52] END_LOAD_SCHEDULER: End scheduler "s052" with entities [LocalPlayer, LocalPlayer], work=5*
 36: 0x08C7 [0x45] LOAD_SCHEDULED_TASK: Load scheduler "s053" with entities [LocalPlayer, LocalPlayer], work=[5*, 0*]
 37: 0x08D8 [0x2B] Hooknox (ID: 17399854/0x0109802E) [7362*]:
    → "I know it doesn't look much like key, but trust me, it'll work!"
 38: 0x08DF [0x23] WAIT_FOR_DIALOG_INTERACTION
 39: 0x08E0 [0x5B] LOAD_EXT_SCHEDULER: Load scheduler "tlk0" with entities [Hooknox (ID: 17399854/0x0109802E), Hooknox (ID: 17399854/0x0109802E)], work=215*
 40: 0x08EF [0x2B] Hooknox (ID: 17399854/0x0109802E) [7363*]:
    → "Now get going! I'll be guarding entrance to make sure Yagudo don't try to sneak treasure out."
 41: 0x08F6 [0x23] WAIT_FOR_DIALOG_INTERACTION
 42: 0x08F7 [0x52] END_LOAD_SCHEDULER: End scheduler "s053" with entities [LocalPlayer, LocalPlayer], work=5*
 43: 0x0906 [0x45] LOAD_SCHEDULED_TASK: Load scheduler "s054" with entities [LocalPlayer, LocalPlayer], work=[5*, 0*]
 44: 0x0917 [0x5B] LOAD_EXT_SCHEDULER: Load scheduler "tlk1" with entities [Hooknox (ID: 17399854/0x0109802E), Hooknox (ID: 17399854/0x0109802E)], work=215*
 45: 0x0926 [0x2B] Hooknox (ID: 17399854/0x0109802E) [7364*]:
    → "What? It could happen!"
 46: 0x092D [0x23] WAIT_FOR_DIALOG_INTERACTION
 47: 0x092E [0x27] REQ_SET(priority=0x0A, entity_id=Hooknox (ID: 17399854/0x0109802E), tag_num=0x07)
 48: 0x0935 [0x5D] SET_MUSIC_VOLUME(volume=0*, fade_time=120*)
 49: 0x093A [0x45] LOAD_SCHEDULED_TASK: Load scheduler "fdo2" with entities [LocalPlayer, LocalPlayer], work=[200*, 0*]
 50: 0x094B [0x55] WAIT_LOAD_SCHEDULER: Wait for scheduler "fdo2" with entities [LocalPlayer, LocalPlayer], work=200*
 51: 0x095A [0x5C] MUSIC_CONTROL: Set Idle (Day) music to song 0*
 52: 0x095E [0x5C] MUSIC_CONTROL: Set Idle (Night) music to song 0*
 53: 0x0962 [0x46] CAMERA_CONTROL: Restore default settings
 54: 0x0964 [0x45] LOAD_SCHEDULED_TASK: Load scheduler "fdi1" with entities [LocalPlayer, LocalPlayer], work=[200*, 0*]
 55: 0x0975 [0x21] END_EVENT
 56: 0x0976 [0x00] END_REQSTACK()
```

### Event 48

#### Metadata

| Field        | Value     |
|--------------|-----------|
| Entrypoint   | 0x0977    |
| Data Size    | 280 bytes |
| Instructions | 31        |

```
      00 01 02 03 04 05 06 07  08 09 0A 0B 0C 0D 0E 0F
      -- -- -- -- -- -- -- --  -- -- -- -- -- -- -- --
0970:                      42  46 01 45 09 80 F0 FF FF         BF.E.....
0980: 7F F0 FF FF 7F 66 64 6F  31 02 80 55 09 80 F0 FF  .....fdo1..U....
0990: FF 7F F0 FF FF 7F 66 64  6F 31 38 03 80 37 66 80  ......fdo18..7f.
09A0: 67 80 68 80 69 80 4E 00  30 80 09 01 6B 62 74 6C  g.h.i.N.0...kbtl
09B0: 30 30 80 09 01 4A 30 80  09 01 F0 FF FF 7F 45 3F  00...J0.......E?
09C0: 80 F0 FF FF 7F F0 FF FF  7F 73 30 35 37 02 80 45  .........s057..E
09D0: 09 80 F0 FF FF 7F F0 FF  FF 7F 66 64 69 31 02 80  ..........fdi1..
09E0: 6E F0 FF FF 7F 6A 80 99  F0 FF FF 7F 2B 2F 80 09  n....j......+/..
09F0: 01 6B 80 1C 6C 80 1E 30  80 09 01 23 52 3F 80 F0  .k..l..0...#R?..
0A00: FF FF 7F F0 FF FF 7F 73  30 35 37 45 3F 80 F0 FF  .......s057E?...
0A10: FF 7F F0 FF FF 7F 73 30  35 38 02 80 45 09 80 F0  ......s058..E...
0A20: FF FF 7F F0 FF FF 7F 62  6C 6F 6E 02 80 45 39 80  .......blon..E9.
0A30: F0 FF FF 7F F0 FF FF 7F  62 6C 6F 6E 02 80 2B 30  ........blon..+0
0A40: 80 09 01 6D 80 1C 6E 80  45 09 80 F0 FF FF 7F F0  ...m..n.E.......
0A50: FF FF 7F 62 6C 6F 66 02  80 23 45 09 80 F0 FF FF  ...blof..#E.....
0A60: 7F F0 FF FF 7F 66 64 6F  31 02 80 55 09 80 F0 FF  .....fdo1..U....
0A70: FF 7F F0 FF FF 7F 66 64  6F 31 46 00 45 09 80 F0  ......fdo1F.E...
0A80: FF FF 7F F0 FF FF 7F 66  64 69 31 02 80 21 00     .......fdi1..!. 
```

#### Opcodes

```
  0: 0x0977 [0x42] SET_CLI_EVENT_CANCEL_DATA()
  1: 0x0978 [0x46] CAMERA_CONTROL: Disable user control
  2: 0x097A [0x45] LOAD_SCHEDULED_TASK: Load scheduler "fdo1" with entities [LocalPlayer, LocalPlayer], work=[200*, 0*]
  3: 0x098B [0x55] WAIT_LOAD_SCHEDULER: Wait for scheduler "fdo1" with entities [LocalPlayer, LocalPlayer], work=200*
  4: 0x099A [0x38] SET_CLIENT_EVENT_MODE(mode=19*)
  5: 0x099D [0x37] UPDATE_EVENT_POSITION_AND_DIR: x=-316.309*, z=8.494*, y=24.748*, direction=280.5°*
  6: 0x09A6 [0x4E] SET_ENTITY_HIDE_FLAG: Show Yagudo Avatar (ID: 17399856/0x01098030)
  7: 0x09AC [0x6B] STOP_AND_IDLE: Yagudo Avatar (ID: 17399856/0x01098030) stops current action and resets to idle (animation="btl0")
  8: 0x09B5 [0x4A] Yagudo Avatar (ID: 17399856/0x01098030) looks at LocalPlayer
  9: 0x09BE [0x45] LOAD_SCHEDULED_TASK: Load scheduler "s057" with entities [LocalPlayer, LocalPlayer], work=[5*, 0*]
 10: 0x09CF [0x45] LOAD_SCHEDULED_TASK: Load scheduler "fdi1" with entities [LocalPlayer, LocalPlayer], work=[200*, 0*]
 11: 0x09E0 [0x6E] LocalPlayer uses emote 39*
 12: 0x09E7 [0x99] Wait for LocalPlayer animation to complete
 13: 0x09EC [0x2B] ??? (ID: 17399855/0x0109802F) [7367*]:
    → "Kahk-ka-ka-ka! You fell into our trap like the filthy rat you are!"
 14: 0x09F3 [0x1C] WAIT(15* ticks)
 15: 0x09F6 [0x1E] EventEntity looks at Yagudo Avatar (ID: 17399856/0x01098030) and starts talking
 16: 0x09FB [0x23] WAIT_FOR_DIALOG_INTERACTION
 17: 0x09FC [0x52] END_LOAD_SCHEDULER: End scheduler "s057" with entities [LocalPlayer, LocalPlayer], work=5*
 18: 0x0A0B [0x45] LOAD_SCHEDULED_TASK: Load scheduler "s058" with entities [LocalPlayer, LocalPlayer], work=[5*, 0*]
 19: 0x0A1C [0x45] LOAD_SCHEDULED_TASK: Load scheduler "blon" with entities [LocalPlayer, LocalPlayer], work=[200*, 0*]
 20: 0x0A2D [0x45] LOAD_SCHEDULED_TASK: Load scheduler "blon" with entities [LocalPlayer, LocalPlayer], work=[201*, 0*]
 21: 0x0A3E [0x2B] Yagudo Avatar (ID: 17399856/0x01098030) [7368*]:
    → "We have been waiting for you the moment we realized our key was lost. You have committed a grave offense by setting foot on this soil, heretic! Now it is time you pay for your heinous crime!"
 22: 0x0A45 [0x1C] WAIT(50* ticks)
 23: 0x0A48 [0x45] LOAD_SCHEDULED_TASK: Load scheduler "blof" with entities [LocalPlayer, LocalPlayer], work=[200*, 0*]
 24: 0x0A59 [0x23] WAIT_FOR_DIALOG_INTERACTION
 25: 0x0A5A [0x45] LOAD_SCHEDULED_TASK: Load scheduler "fdo1" with entities [LocalPlayer, LocalPlayer], work=[200*, 0*]
 26: 0x0A6B [0x55] WAIT_LOAD_SCHEDULER: Wait for scheduler "fdo1" with entities [LocalPlayer, LocalPlayer], work=200*
 27: 0x0A7A [0x46] CAMERA_CONTROL: Restore default settings
 28: 0x0A7C [0x45] LOAD_SCHEDULED_TASK: Load scheduler "fdi1" with entities [LocalPlayer, LocalPlayer], work=[200*, 0*]
 29: 0x0A8D [0x21] END_EVENT
 30: 0x0A8E [0x00] END_REQSTACK()
```

### Event 49

#### Metadata

| Field        | Value     |
|--------------|-----------|
| Entrypoint   | 0x0A8F    |
| Data Size    | 797 bytes |
| Instructions | 86        |

```
      00 01 02 03 04 05 06 07  08 09 0A 0B 0C 0D 0E 0F
      -- -- -- -- -- -- -- --  -- -- -- -- -- -- -- --
0A80:                                               42                 B
0A90: 46 01 5D 02 80 08 80 45  09 80 F0 FF FF 7F F0 FF  F.]....E........
0AA0: FF 7F 66 64 6F 31 02 80  55 09 80 F0 FF FF 7F F0  ..fdo1..U.......
0AB0: FF FF 7F 66 64 6F 31 5C  00 6F 80 5C 01 6F 80 38  ...fdo1\.o.\.o.8
0AC0: 03 80 92 01 30 80 09 01  37 70 80 71 80 72 80 73  ....0...7p.q.r.s
0AD0: 80 4E 00 30 80 09 01 1E  30 80 09 01 45 3F 80 F0  .N.0....0...E?..
0AE0: FF FF 7F F0 FF FF 7F 73  30 35 39 02 80 45 09 80  .......s059..E..
0AF0: F0 FF FF 7F F0 FF FF 7F  66 64 69 31 02 80 2C 30  ........fdi1..,0
0B00: 80 09 01 30 80 09 01 64  65 61 64 53 30 80 09 01  ...0...deadS0...
0B10: 30 80 09 01 64 65 61 64  4E 00 31 80 09 01 4A 31  0...deadN.1...J1
0B20: 80 09 01 F0 FF FF 7F 2B  2F 80 09 01 74 80 1C 6C  .......+/...t..l
0B30: 80 79 00 F0 FF FF 7F 31  80 09 01 23 52 3F 80 F0  .y.....1...#R?..
0B40: FF FF 7F F0 FF FF 7F 73  30 35 39 45 3F 80 F0 FF  .......s059E?...
0B50: FF 7F F0 FF FF 7F 73 30  36 30 02 80 27 0A 31 80  ......s060..'.1.
0B60: 09 01 02 1C 08 80 2B 31  80 09 01 75 80 23 2A 0A  ......+1...u.#*.
0B70: 31 80 09 01 45 09 80 F0  FF FF 7F F0 FF FF 7F 66  1...E..........f
0B80: 64 6F 32 02 80 55 09 80  F0 FF FF 7F F0 FF FF 7F  do2..U..........
0B90: 66 64 6F 32 52 3F 80 F0  FF FF 7F F0 FF FF 7F 73  fdo2R?.........s
0BA0: 30 36 30 45 3F 80 F0 FF  FF 7F F0 FF FF 7F 73 30  060E?.........s0
0BB0: 36 31 02 80 45 09 80 F0  FF FF 7F F0 FF FF 7F 66  61..E..........f
0BC0: 64 69 31 02 80 2B 31 80  09 01 76 80 23 5B 77 80  di1..+1...v.#[w.
0BD0: 31 80 09 01 31 80 09 01  74 6C 6B 30 2B 31 80 09  1...1...tlk0+1..
0BE0: 01 78 80 23 5B 77 80 31  80 09 01 31 80 09 01 74  .x.#[w.1...1...t
0BF0: 6C 6B 31 2B 31 80 09 01  79 80 23 45 09 80 F0 FF  lk1+1...y.#E....
0C00: FF 7F F0 FF FF 7F 66 64  6F 31 02 80 55 09 80 F0  ......fdo1..U...
0C10: FF FF 7F F0 FF FF 7F 66  64 6F 31 52 3F 80 F0 FF  .......fdo1R?...
0C20: FF 7F F0 FF FF 7F 73 30  36 31 45 3F 80 F0 FF FF  ......s061E?....
0C30: 7F F0 FF FF 7F 73 30 36  32 02 80 45 09 80 F0 FF  .....s062..E....
0C40: FF 7F F0 FF FF 7F 66 64  69 32 02 80 2B 31 80 09  ......fdi2..+1..
0C50: 01 7A 80 23 5B 77 80 31  80 09 01 31 80 09 01 74  .z.#[w.1...1...t
0C60: 6C 6B 30 2B 31 80 09 01  7B 80 23 5B 77 80 31 80  lk0+1...{.#[w.1.
0C70: 09 01 31 80 09 01 74 6C  6B 31 2B 31 80 09 01 7C  ..1...tlk1+1...|
0C80: 80 23 45 09 80 F0 FF FF  7F F0 FF FF 7F 6F 76 6C  .#E..........ovl
0C90: 31 02 80 52 3F 80 F0 FF  FF 7F F0 FF FF 7F 73 30  1..R?.........s0
0CA0: 36 32 45 3F 80 F0 FF FF  7F F0 FF FF 7F 73 30 36  62E?.........s06
0CB0: 33 02 80 2B 31 80 09 01  7D 80 23 2B 31 80 09 01  3..+1...}.#+1...
0CC0: 7E 80 23 45 09 80 F0 FF  FF 7F F0 FF FF 7F 66 64  ~.#E..........fd
0CD0: 6F 31 02 80 55 09 80 F0  FF FF 7F F0 FF FF 7F 66  o1..U..........f
0CE0: 64 6F 31 52 3F 80 F0 FF  FF 7F F0 FF FF 7F 73 30  do1R?.........s0
0CF0: 36 33 45 3F 80 F0 FF FF  7F F0 FF FF 7F 73 30 36  63E?.........s06
0D00: 34 02 80 45 09 80 F0 FF  FF 7F F0 FF FF 7F 66 64  4..E..........fd
0D10: 69 31 02 80 2B 31 80 09  01 7F 80 23 5B 77 80 31  i1..+1.....#[w.1
0D20: 80 09 01 31 80 09 01 74  6C 6B 30 2B 31 80 09 01  ...1...tlk0+1...
0D30: 80 80 23 5B 77 80 31 80  09 01 31 80 09 01 74 6C  ..#[w.1...1...tl
0D40: 6B 31 52 3F 80 F0 FF FF  7F F0 FF FF 7F 73 30 36  k1R?.........s06
0D50: 34 45 3F 80 F0 FF FF 7F  F0 FF FF 7F 73 30 36 35  4E?.........s065
0D60: 02 80 2B 31 80 09 01 81  80 23 5D 02 80 08 80 45  ..+1.....#]....E
0D70: 09 80 F0 FF FF 7F F0 FF  FF 7F 66 64 6F 31 02 80  ..........fdo1..
0D80: 55 09 80 F0 FF FF 7F F0  FF FF 7F 66 64 6F 31 5C  U..........fdo1\
0D90: 00 02 80 5C 01 02 80 46  00 45 09 80 F0 FF FF 7F  ...\...F.E......
0DA0: F0 FF FF 7F 66 64 69 31  02 80 21 00              ....fdi1..!.    
```

#### Opcodes

```
  0: 0x0A8F [0x42] SET_CLI_EVENT_CANCEL_DATA()
  1: 0x0A90 [0x46] CAMERA_CONTROL: Disable user control
  2: 0x0A92 [0x5D] SET_MUSIC_VOLUME(volume=0*, fade_time=60*)
  3: 0x0A97 [0x45] LOAD_SCHEDULED_TASK: Load scheduler "fdo1" with entities [LocalPlayer, LocalPlayer], work=[200*, 0*]
  4: 0x0AA8 [0x55] WAIT_LOAD_SCHEDULER: Wait for scheduler "fdo1" with entities [LocalPlayer, LocalPlayer], work=200*
  5: 0x0AB7 [0x5C] MUSIC_CONTROL: Set Idle (Day) music to song 161*
  6: 0x0ABB [0x5C] MUSIC_CONTROL: Set Idle (Night) music to song 161*
  7: 0x0ABF [0x38] SET_CLIENT_EVENT_MODE(mode=19*)
  8: 0x0AC2 [0x92] Yagudo Avatar (ID: 17399856/0x01098030)->Render.Flags3 ^= 0x01
  9: 0x0AC8 [0x37] UPDATE_EVENT_POSITION_AND_DIR: x=-316.347*, z=7.785*, y=24.543*, direction=117.0°*
 10: 0x0AD1 [0x4E] SET_ENTITY_HIDE_FLAG: Show Yagudo Avatar (ID: 17399856/0x01098030)
 11: 0x0AD7 [0x1E] EventEntity looks at Yagudo Avatar (ID: 17399856/0x01098030) and starts talking
 12: 0x0ADC [0x45] LOAD_SCHEDULED_TASK: Load scheduler "s059" with entities [LocalPlayer, LocalPlayer], work=[5*, 0*]
 13: 0x0AED [0x45] LOAD_SCHEDULED_TASK: Load scheduler "fdi1" with entities [LocalPlayer, LocalPlayer], work=[200*, 0*]
 14: 0x0AFE [0x2C] CREATE_SCHEDULER_TASK: Create scheduler "dead" with entities [Yagudo Avatar (ID: 17399856/0x01098030), Yagudo Avatar (ID: 17399856/0x01098030)]
 15: 0x0B0B [0x53] WAIT_SCHEDULER_TASK: Wait for scheduler "dead" with entities [Yagudo Avatar (ID: 17399856/0x01098030), Yagudo Avatar (ID: 17399856/0x01098030)]
 16: 0x0B18 [0x4E] SET_ENTITY_HIDE_FLAG: Show Tzee Xicu the Manifest (ID: 17399857/0x01098031)
 17: 0x0B1E [0x4A] Tzee Xicu the Manifest (ID: 17399857/0x01098031) looks at LocalPlayer
 18: 0x0B27 [0x2B] ??? (ID: 17399855/0x0109802F) [7369*]:
    → "Kwah! Hahhmoyarham! Shalmi khoporahi?"
 19: 0x0B2E [0x1C] WAIT(15* ticks)
 20: 0x0B31 [0x79] LocalPlayer looks at Tzee Xicu the Manifest (ID: 17399857/0x01098031) (Basic look)
 21: 0x0B3B [0x23] WAIT_FOR_DIALOG_INTERACTION
 22: 0x0B3C [0x52] END_LOAD_SCHEDULER: End scheduler "s059" with entities [LocalPlayer, LocalPlayer], work=5*
 23: 0x0B4B [0x45] LOAD_SCHEDULED_TASK: Load scheduler "s060" with entities [LocalPlayer, LocalPlayer], work=[5*, 0*]
 24: 0x0B5C [0x27] REQ_SET(priority=0x0A, entity_id=Tzee Xicu the Manifest (ID: 17399857/0x01098031), tag_num=0x02)
 25: 0x0B63 [0x1C] WAIT(60* ticks)
 26: 0x0B66 [0x2B] Tzee Xicu the Manifest (ID: 17399857/0x01098031) [7370*]:
    → "Ah, one of Altana's children... You come into my sacred abode, steal my treasures, fell my loyal servants... Now here you stand, a quivering fool in the presence of the almighty. Is there something you wish to say before I tear your heart from your chest and drink the blood from its chambers?"
 27: 0x0B6D [0x23] WAIT_FOR_DIALOG_INTERACTION
 28: 0x0B6E [0x2A] GET_REQ_LEVEL(level=10, entity_id=Tzee Xicu the Manifest (ID: 17399857/0x01098031))
 29: 0x0B74 [0x45] LOAD_SCHEDULED_TASK: Load scheduler "fdo2" with entities [LocalPlayer, LocalPlayer], work=[200*, 0*]
 30: 0x0B85 [0x55] WAIT_LOAD_SCHEDULER: Wait for scheduler "fdo2" with entities [LocalPlayer, LocalPlayer], work=200*
 31: 0x0B94 [0x52] END_LOAD_SCHEDULER: End scheduler "s060" with entities [LocalPlayer, LocalPlayer], work=5*
 32: 0x0BA3 [0x45] LOAD_SCHEDULED_TASK: Load scheduler "s061" with entities [LocalPlayer, LocalPlayer], work=[5*, 0*]
 33: 0x0BB4 [0x45] LOAD_SCHEDULED_TASK: Load scheduler "fdi1" with entities [LocalPlayer, LocalPlayer], work=[200*, 0*]
 34: 0x0BC5 [0x2B] Tzee Xicu the Manifest (ID: 17399857/0x01098031) [7371*]:
    → "........."
 35: 0x0BCC [0x23] WAIT_FOR_DIALOG_INTERACTION
 36: 0x0BCD [0x5B] LOAD_EXT_SCHEDULER: Load scheduler "tlk0" with entities [Tzee Xicu the Manifest (ID: 17399857/0x01098031), Tzee Xicu the Manifest (ID: 17399857/0x01098031)], work=254*
 37: 0x0BDC [0x2B] Tzee Xicu the Manifest (ID: 17399857/0x01098031) [7372*]:
    → "An amusing tale... I see you know little of the grave situation that currently faces the heretics of the East."
 38: 0x0BE3 [0x23] WAIT_FOR_DIALOG_INTERACTION
 39: 0x0BE4 [0x5B] LOAD_EXT_SCHEDULER: Load scheduler "tlk1" with entities [Tzee Xicu the Manifest (ID: 17399857/0x01098031), Tzee Xicu the Manifest (ID: 17399857/0x01098031)], work=254*
 40: 0x0BF3 [0x2B] Tzee Xicu the Manifest (ID: 17399857/0x01098031) [7373*]:
    → "However, I cannot have foolish rumors staining the reputation of the Theomilitary. While my instincts advise against it, I will enlighten you unto our current state of affairs so you may rightfully inform those who may doubt the motives of Tzee Xicu the almighty."
 41: 0x0BFA [0x23] WAIT_FOR_DIALOG_INTERACTION
 42: 0x0BFB [0x45] LOAD_SCHEDULED_TASK: Load scheduler "fdo1" with entities [LocalPlayer, LocalPlayer], work=[200*, 0*]
 43: 0x0C0C [0x55] WAIT_LOAD_SCHEDULER: Wait for scheduler "fdo1" with entities [LocalPlayer, LocalPlayer], work=200*
 44: 0x0C1B [0x52] END_LOAD_SCHEDULER: End scheduler "s061" with entities [LocalPlayer, LocalPlayer], work=5*
 45: 0x0C2A [0x45] LOAD_SCHEDULED_TASK: Load scheduler "s062" with entities [LocalPlayer, LocalPlayer], work=[5*, 0*]
 46: 0x0C3B [0x45] LOAD_SCHEDULED_TASK: Load scheduler "fdi2" with entities [LocalPlayer, LocalPlayer], work=[200*, 0*]
 47: 0x0C4C [0x2B] Tzee Xicu the Manifest (ID: 17399857/0x01098031) [7374*]:
    → "For many generations, the Yagudo have had peaceful relations with the Empire of the East. There have even been men among our ranks who crossed the vast oceans and have chosen to serve under the foreign emperor."
 48: 0x0C53 [0x23] WAIT_FOR_DIALOG_INTERACTION
 49: 0x0C54 [0x5B] LOAD_EXT_SCHEDULER: Load scheduler "tlk0" with entities [Tzee Xicu the Manifest (ID: 17399857/0x01098031), Tzee Xicu the Manifest (ID: 17399857/0x01098031)], work=254*
 50: 0x0C63 [0x2B] Tzee Xicu the Manifest (ID: 17399857/0x01098031) [7375*]:
    → "It was one of these men, now a messenger for the Empire, who sought my audience not more than a few moons ago. He bore an urgent missive--a request for help, signed by the emperor himself."
 51: 0x0C6A [0x23] WAIT_FOR_DIALOG_INTERACTION
 52: 0x0C6B [0x5B] LOAD_EXT_SCHEDULER: Load scheduler "tlk1" with entities [Tzee Xicu the Manifest (ID: 17399857/0x01098031), Tzee Xicu the Manifest (ID: 17399857/0x01098031)], work=254*
 53: 0x0C7A [0x2B] Tzee Xicu the Manifest (ID: 17399857/0x01098031) [7376*]:
    → "It seems that the Empire is under attack. A recent decaying of the land caused by an unknown phenomenon has left the nation in ruin and devastated the spirits of its people. The hostile tribes that make their homes on the Empire's borders have sensed this weakness, and have chosen to take advantage of it by launching a series of offensives."
 54: 0x0C81 [0x23] WAIT_FOR_DIALOG_INTERACTION
 55: 0x0C82 [0x45] LOAD_SCHEDULED_TASK: Load scheduler "ovl1" with entities [LocalPlayer, LocalPlayer], work=[200*, 0*]
 56: 0x0C93 [0x52] END_LOAD_SCHEDULER: End scheduler "s062" with entities [LocalPlayer, LocalPlayer], work=5*
 57: 0x0CA2 [0x45] LOAD_SCHEDULED_TASK: Load scheduler "s063" with entities [LocalPlayer, LocalPlayer], work=[5*, 0*]
 58: 0x0CB3 [0x2B] Tzee Xicu the Manifest (ID: 17399857/0x01098031) [7377*]:
    → "After reading forth the message, my Yagudo son presented me with an ornate blade forged by the Empire's finest craftsman and begged that I send reinforcements to aid the emperor in his current predicament."
 59: 0x0CBA [0x23] WAIT_FOR_DIALOG_INTERACTION
 60: 0x0CBB [0x2B] Tzee Xicu the Manifest (ID: 17399857/0x01098031) [7378*]:
    → "While it pains me to turn my back on one of my children, the Theomilitary's situation on Mindartia prevented me from providing the service of any more than a handful of loyal men. This most certainly did not warrant the acceptance of such a fine offering, so I sent the messenger back to his leader carrying the blade he brought with him...and my deepest apologies."
 61: 0x0CC2 [0x23] WAIT_FOR_DIALOG_INTERACTION
 62: 0x0CC3 [0x45] LOAD_SCHEDULED_TASK: Load scheduler "fdo1" with entities [LocalPlayer, LocalPlayer], work=[200*, 0*]
 63: 0x0CD4 [0x55] WAIT_LOAD_SCHEDULER: Wait for scheduler "fdo1" with entities [LocalPlayer, LocalPlayer], work=200*
 64: 0x0CE3 [0x52] END_LOAD_SCHEDULER: End scheduler "s063" with entities [LocalPlayer, LocalPlayer], work=5*
 65: 0x0CF2 [0x45] LOAD_SCHEDULED_TASK: Load scheduler "s064" with entities [LocalPlayer, LocalPlayer], work=[5*, 0*]
 66: 0x0D03 [0x45] LOAD_SCHEDULED_TASK: Load scheduler "fdi1" with entities [LocalPlayer, LocalPlayer], work=[200*, 0*]
 67: 0x0D14 [0x2B] Tzee Xicu the Manifest (ID: 17399857/0x01098031) [7379*]:
    → "So now do you see? There is no treasure in my vaults. There never was."
 68: 0x0D1B [0x23] WAIT_FOR_DIALOG_INTERACTION
 69: 0x0D1C [0x5B] LOAD_EXT_SCHEDULER: Load scheduler "tlk0" with entities [Tzee Xicu the Manifest (ID: 17399857/0x01098031), Tzee Xicu the Manifest (ID: 17399857/0x01098031)], work=254*
 70: 0x0D2B [0x2B] Tzee Xicu the Manifest (ID: 17399857/0x01098031) [7380*]:
    → "However, I must commend you on your stealth and ingenuity for making it this deep into my lair. You are a fine warrior, and for that I will spare your insignificant life."
 71: 0x0D32 [0x23] WAIT_FOR_DIALOG_INTERACTION
 72: 0x0D33 [0x5B] LOAD_EXT_SCHEDULER: Load scheduler "tlk1" with entities [Tzee Xicu the Manifest (ID: 17399857/0x01098031), Tzee Xicu the Manifest (ID: 17399857/0x01098031)], work=254*
 73: 0x0D42 [0x52] END_LOAD_SCHEDULER: End scheduler "s064" with entities [LocalPlayer, LocalPlayer], work=5*
 74: 0x0D51 [0x45] LOAD_SCHEDULED_TASK: Load scheduler "s065" with entities [LocalPlayer, LocalPlayer], work=[5*, 0*]
 75: 0x0D62 [0x2B] Tzee Xicu the Manifest (ID: 17399857/0x01098031) [7381*]:
    → "I shall even offer you a token of admiration. Place that headpiece you carry on the stone tile and I will grant it my blessing."
 76: 0x0D69 [0x23] WAIT_FOR_DIALOG_INTERACTION
 77: 0x0D6A [0x5D] SET_MUSIC_VOLUME(volume=0*, fade_time=60*)
 78: 0x0D6F [0x45] LOAD_SCHEDULED_TASK: Load scheduler "fdo1" with entities [LocalPlayer, LocalPlayer], work=[200*, 0*]
 79: 0x0D80 [0x55] WAIT_LOAD_SCHEDULER: Wait for scheduler "fdo1" with entities [LocalPlayer, LocalPlayer], work=200*
 80: 0x0D8F [0x5C] MUSIC_CONTROL: Set Idle (Day) music to song 0*
 81: 0x0D93 [0x5C] MUSIC_CONTROL: Set Idle (Night) music to song 0*
 82: 0x0D97 [0x46] CAMERA_CONTROL: Restore default settings
 83: 0x0D99 [0x45] LOAD_SCHEDULED_TASK: Load scheduler "fdi1" with entities [LocalPlayer, LocalPlayer], work=[200*, 0*]
 84: 0x0DAA [0x21] END_EVENT
 85: 0x0DAB [0x00] END_REQSTACK()
```

### Event 50

#### Metadata

| Field        | Value     |
|--------------|-----------|
| Entrypoint   | 0x0DAC    |
| Data Size    | 746 bytes |
| Instructions | 89        |

```
      00 01 02 03 04 05 06 07  08 09 0A 0B 0C 0D 0E 0F
      -- -- -- -- -- -- -- --  -- -- -- -- -- -- -- --
0DA0:                                      42 46 01 5D              BF.]
0DB0: 02 80 08 80 45 09 80 F0  FF FF 7F F0 FF FF 7F 66  ....E..........f
0DC0: 64 6F 31 02 80 55 09 80  F0 FF FF 7F F0 FF FF 7F  do1..U..........
0DD0: 66 64 6F 31 5C 00 82 80  5C 01 82 80 38 03 80 45  fdo1\...\...8..E
0DE0: 3F 80 F0 FF FF 7F F0 FF  FF 7F 73 30 36 36 02 80  ?.........s066..
0DF0: 37 66 80 67 80 68 80 69  80 4E 00 31 80 09 01 4A  7f.g.h.i.N.1...J
0E00: 31 80 09 01 F0 FF FF 7F  45 09 80 F0 FF FF 7F F0  1.......E.......
0E10: FF FF 7F 66 64 69 31 02  80 6E F0 FF FF 7F 6A 80  ...fdi1..n....j.
0E20: 99 F0 FF FF 7F 1C 83 80  5B 77 80 31 80 09 01 31  ........[w.1...1
0E30: 80 09 01 74 6C 6B 30 2B  31 80 09 01 84 80 23 5B  ...tlk0+1.....#[
0E40: 77 80 31 80 09 01 31 80  09 01 74 6C 6B 31 52 3F  w.1...1...tlk1R?
0E50: 80 F0 FF FF 7F F0 FF FF  7F 73 30 36 36 45 3F 80  .........s066E?.
0E60: F0 FF FF 7F F0 FF FF 7F  73 30 36 37 02 80 2B 31  ........s067..+1
0E70: 80 09 01 85 80 1C 0D 80  4E 00 32 80 09 01 29 0A  ........N.2...).
0E80: 32 80 09 01 02 23 2B 32  80 09 01 86 80 23 2B 31  2....#+2.....#+1
0E90: 80 09 01 87 80 23 4B 32  80 09 01 88 80 2B 32 80  .....#K2.....+2.
0EA0: 09 01 89 80 23 52 3F 80  F0 FF FF 7F F0 FF FF 7F  ....#R?.........
0EB0: 73 30 36 37 45 3F 80 F0  FF FF 7F F0 FF FF 7F 73  s067E?.........s
0EC0: 30 36 38 02 80 4B 31 80  09 01 8A 80 2B 31 80 09  068..K1.....+1..
0ED0: 01 8B 80 23 5B 77 80 32  80 09 01 32 80 09 01 74  ...#[w.2...2...t
0EE0: 6C 6B 30 2B 32 80 09 01  8C 80 23 5B 77 80 32 80  lk0+2.....#[w.2.
0EF0: 09 01 32 80 09 01 74 6C  6B 31 45 09 80 F0 FF FF  ..2...tlk1E.....
0F00: 7F F0 FF FF 7F 6F 76 6C  31 02 80 52 3F 80 F0 FF  .....ovl1..R?...
0F10: FF 7F F0 FF FF 7F 73 30  36 38 45 3F 80 F0 FF FF  ......s068E?....
0F20: 7F F0 FF FF 7F 73 30 36  39 02 80 2B 31 80 09 01  .....s069..+1...
0F30: 8D 80 23 5B 77 80 32 80  09 01 32 80 09 01 74 6C  ..#[w.2...2...tl
0F40: 6B 30 2B 32 80 09 01 8E  80 23 73 8F 80 32 80 09  k0+2.....#s..2..
0F50: 01 32 80 09 01 1C 90 80  45 09 80 F0 FF FF 7F F0  .2......E.......
0F60: FF FF 7F 66 64 6F 32 02  80 55 09 80 F0 FF FF 7F  ...fdo2..U......
0F70: F0 FF FF 7F 66 64 6F 32  52 3F 80 F0 FF FF 7F F0  ....fdo2R?......
0F80: FF FF 7F 73 30 36 39 45  3F 80 F0 FF FF 7F F0 FF  ...s069E?.......
0F90: FF 7F 73 30 37 30 02 80  4E 01 32 80 09 01 37 91  ..s070..N.2...7.
0FA0: 80 92 80 93 80 94 80 27  0A 31 80 09 01 04 1E 31  .......'.1.....1
0FB0: 80 09 01 79 00 31 80 09  01 F0 FF FF 7F 45 09 80  ...y.1.......E..
0FC0: F0 FF FF 7F F0 FF FF 7F  66 64 69 31 02 80 1C 08  ........fdi1....
0FD0: 80 2B 31 80 09 01 95 80  23 2B 31 80 09 01 96 80  .+1.....#+1.....
0FE0: 23 2A 0A 31 80 09 01 52  3F 80 F0 FF FF 7F F0 FF  #*.1...R?.......
0FF0: FF 7F 73 30 37 30 45 3F  80 F0 FF FF 7F F0 FF FF  ..s070E?........
1000: 7F 73 30 37 31 02 80 4B  31 80 09 01 97 80 2B 31  .s071..K1.....+1
1010: 80 09 01 98 80 23 5B 77  80 31 80 09 01 31 80 09  .....#[w.1...1..
1020: 01 74 6C 6B 30 2B 31 80  09 01 99 80 23 5B 77 80  .tlk0+1.....#[w.
1030: 31 80 09 01 31 80 09 01  74 6C 6B 31 27 0A 31 80  1...1...tlk1'.1.
1040: 09 01 05 5D 02 80 1C 80  45 09 80 F0 FF FF 7F F0  ...]....E.......
1050: FF FF 7F 66 64 6F 32 02  80 55 09 80 F0 FF FF 7F  ...fdo2..U......
1060: F0 FF FF 7F 66 64 6F 32  5C 00 02 80 5C 01 02 80  ....fdo2\...\...
1070: 46 00 45 39 80 F0 FF FF  7F F0 FF FF 7F 71 73 74  F.E9.........qst
1080: 63 02 80 45 09 80 F0 FF  FF 7F F0 FF FF 7F 66 64  c..E..........fd
1090: 69 32 02 80 21 00                                 i2..!.          
```

#### Opcodes

```
  0: 0x0DAC [0x42] SET_CLI_EVENT_CANCEL_DATA()
  1: 0x0DAD [0x46] CAMERA_CONTROL: Disable user control
  2: 0x0DAF [0x5D] SET_MUSIC_VOLUME(volume=0*, fade_time=60*)
  3: 0x0DB4 [0x45] LOAD_SCHEDULED_TASK: Load scheduler "fdo1" with entities [LocalPlayer, LocalPlayer], work=[200*, 0*]
  4: 0x0DC5 [0x55] WAIT_LOAD_SCHEDULER: Wait for scheduler "fdo1" with entities [LocalPlayer, LocalPlayer], work=200*
  5: 0x0DD4 [0x5C] MUSIC_CONTROL: Set Idle (Day) music to song 157*
  6: 0x0DD8 [0x5C] MUSIC_CONTROL: Set Idle (Night) music to song 157*
  7: 0x0DDC [0x38] SET_CLIENT_EVENT_MODE(mode=19*)
  8: 0x0DDF [0x45] LOAD_SCHEDULED_TASK: Load scheduler "s066" with entities [LocalPlayer, LocalPlayer], work=[5*, 0*]
  9: 0x0DF0 [0x37] UPDATE_EVENT_POSITION_AND_DIR: x=-316.309*, z=8.494*, y=24.748*, direction=280.5°*
 10: 0x0DF9 [0x4E] SET_ENTITY_HIDE_FLAG: Show Tzee Xicu the Manifest (ID: 17399857/0x01098031)
 11: 0x0DFF [0x4A] Tzee Xicu the Manifest (ID: 17399857/0x01098031) looks at LocalPlayer
 12: 0x0E08 [0x45] LOAD_SCHEDULED_TASK: Load scheduler "fdi1" with entities [LocalPlayer, LocalPlayer], work=[200*, 0*]
 13: 0x0E19 [0x6E] LocalPlayer uses emote 39*
 14: 0x0E20 [0x99] Wait for LocalPlayer animation to complete
 15: 0x0E25 [0x1C] WAIT(20* ticks)
 16: 0x0E28 [0x5B] LOAD_EXT_SCHEDULER: Load scheduler "tlk0" with entities [Tzee Xicu the Manifest (ID: 17399857/0x01098031), Tzee Xicu the Manifest (ID: 17399857/0x01098031)], work=254*
 17: 0x0E37 [0x2B] Tzee Xicu the Manifest (ID: 17399857/0x01098031) [7382*]:
    → "Trust in thine enemy... You children of Altana do not cease to amaze me. You would make a fine member of the Theomilitary."
 18: 0x0E3E [0x23] WAIT_FOR_DIALOG_INTERACTION
 19: 0x0E3F [0x5B] LOAD_EXT_SCHEDULER: Load scheduler "tlk1" with entities [Tzee Xicu the Manifest (ID: 17399857/0x01098031), Tzee Xicu the Manifest (ID: 17399857/0x01098031)], work=254*
 20: 0x0E4E [0x52] END_LOAD_SCHEDULER: End scheduler "s066" with entities [LocalPlayer, LocalPlayer], work=5*
 21: 0x0E5D [0x45] LOAD_SCHEDULED_TASK: Load scheduler "s067" with entities [LocalPlayer, LocalPlayer], work=[5*, 0*]
 22: 0x0E6E [0x2B] Tzee Xicu the Manifest (ID: 17399857/0x01098031) [7383*]:
    → "Tsoo Haja! Approach!"
 23: 0x0E75 [0x1C] WAIT(30* ticks)
 24: 0x0E78 [0x4E] SET_ENTITY_HIDE_FLAG: Show Tsoo Haja the Umbra (ID: 17399858/0x01098032)
 25: 0x0E7E [0x29] REQ_SET_WAIT(priority=0x0A, entity_id=Tsoo Haja the Umbra (ID: 17399858/0x01098032), tag_num=0x02)
 26: 0x0E85 [0x23] WAIT_FOR_DIALOG_INTERACTION
 27: 0x0E86 [0x2B] Tsoo Haja the Umbra (ID: 17399858/0x01098032) [7384*]:
    → "You called, my lord."
 28: 0x0E8D [0x23] WAIT_FOR_DIALOG_INTERACTION
 29: 0x0E8E [0x2B] Tzee Xicu the Manifest (ID: 17399857/0x01098031) [7385*]:
    → "Tsoo Haja the Umbra. From this day forth, you are to serve this adventurer as you would serve me."
 30: 0x0E95 [0x23] WAIT_FOR_DIALOG_INTERACTION
 31: 0x0E96 [0x4B] UPDATE_ENTITY_YAW(entity=Tsoo Haja the Umbra (ID: 17399858/0x01098032), yaw=22.5°*)
 32: 0x0E9D [0x2B] Tsoo Haja the Umbra (ID: 17399858/0x01098032) [7386*]:
    → "Kwakwah! But my lord, [he/she] is a filthy heretic..."
 33: 0x0EA4 [0x23] WAIT_FOR_DIALOG_INTERACTION
 34: 0x0EA5 [0x52] END_LOAD_SCHEDULER: End scheduler "s067" with entities [LocalPlayer, LocalPlayer], work=5*
 35: 0x0EB4 [0x45] LOAD_SCHEDULED_TASK: Load scheduler "s068" with entities [LocalPlayer, LocalPlayer], work=[5*, 0*]
 36: 0x0EC5 [0x4B] UPDATE_ENTITY_YAW(entity=Tzee Xicu the Manifest (ID: 17399857/0x01098031), yaw=19.8°*)
 37: 0x0ECC [0x2B] Tzee Xicu the Manifest (ID: 17399857/0x01098031) [7387*]:
    → "Do you defy my will, Tsoo Haja!? Or perhaps you think you are more powerful than the almighty Tzee Xicu!?"
 38: 0x0ED3 [0x23] WAIT_FOR_DIALOG_INTERACTION
 39: 0x0ED4 [0x5B] LOAD_EXT_SCHEDULER: Load scheduler "tlk0" with entities [Tsoo Haja the Umbra (ID: 17399858/0x01098032), Tsoo Haja the Umbra (ID: 17399858/0x01098032)], work=254*
 40: 0x0EE3 [0x2B] Tsoo Haja the Umbra (ID: 17399858/0x01098032) [7388*]:
    → "No, my lord! My apologies... However, what if [he/she] were to ask me to..."
 41: 0x0EEA [0x23] WAIT_FOR_DIALOG_INTERACTION
 42: 0x0EEB [0x5B] LOAD_EXT_SCHEDULER: Load scheduler "tlk1" with entities [Tsoo Haja the Umbra (ID: 17399858/0x01098032), Tsoo Haja the Umbra (ID: 17399858/0x01098032)], work=254*
 43: 0x0EFA [0x45] LOAD_SCHEDULED_TASK: Load scheduler "ovl1" with entities [LocalPlayer, LocalPlayer], work=[200*, 0*]
 44: 0x0F0B [0x52] END_LOAD_SCHEDULER: End scheduler "s068" with entities [LocalPlayer, LocalPlayer], work=5*
 45: 0x0F1A [0x45] LOAD_SCHEDULED_TASK: Load scheduler "s069" with entities [LocalPlayer, LocalPlayer], work=[5*, 0*]
 46: 0x0F2B [0x2B] Tzee Xicu the Manifest (ID: 17399857/0x01098031) [7389*]:
    → "If [he/she] were to order you to attack me? Insolent fool! I am Tzee Xicu the Manifest! Even if my blood were to spill upon the red sands of Aragoneu, the flame of my immortal soul would only burn brighter."
 47: 0x0F32 [0x23] WAIT_FOR_DIALOG_INTERACTION
 48: 0x0F33 [0x5B] LOAD_EXT_SCHEDULER: Load scheduler "tlk0" with entities [Tsoo Haja the Umbra (ID: 17399858/0x01098032), Tsoo Haja the Umbra (ID: 17399858/0x01098032)], work=254*
 49: 0x0F42 [0x2B] Tsoo Haja the Umbra (ID: 17399858/0x01098032) [7390*]:
    → "Yes, my lord!"
 50: 0x0F49 [0x23] WAIT_FOR_DIALOG_INTERACTION
 51: 0x0F4A [0x73] Tsoo Haja the Umbra (ID: 17399858/0x01098032) casts magic 501* on Tsoo Haja the Umbra (ID: 17399858/0x01098032)
 52: 0x0F55 [0x1C] WAIT(240* ticks)
 53: 0x0F58 [0x45] LOAD_SCHEDULED_TASK: Load scheduler "fdo2" with entities [LocalPlayer, LocalPlayer], work=[200*, 0*]
 54: 0x0F69 [0x55] WAIT_LOAD_SCHEDULER: Wait for scheduler "fdo2" with entities [LocalPlayer, LocalPlayer], work=200*
 55: 0x0F78 [0x52] END_LOAD_SCHEDULER: End scheduler "s069" with entities [LocalPlayer, LocalPlayer], work=5*
 56: 0x0F87 [0x45] LOAD_SCHEDULED_TASK: Load scheduler "s070" with entities [LocalPlayer, LocalPlayer], work=[5*, 0*]
 57: 0x0F98 [0x4E] SET_ENTITY_HIDE_FLAG: Hide Tsoo Haja the Umbra (ID: 17399858/0x01098032)
 58: 0x0F9E [0x37] UPDATE_EVENT_POSITION_AND_DIR: x=-315.976*, z=7.536*, y=24.630*, direction=162.2°*
 59: 0x0FA7 [0x27] REQ_SET(priority=0x0A, entity_id=Tzee Xicu the Manifest (ID: 17399857/0x01098031), tag_num=0x04)
 60: 0x0FAE [0x1E] EventEntity looks at Tzee Xicu the Manifest (ID: 17399857/0x01098031) and starts talking
 61: 0x0FB3 [0x79] Tzee Xicu the Manifest (ID: 17399857/0x01098031) looks at LocalPlayer (Basic look)
 62: 0x0FBD [0x45] LOAD_SCHEDULED_TASK: Load scheduler "fdi1" with entities [LocalPlayer, LocalPlayer], work=[200*, 0*]
 63: 0x0FCE [0x1C] WAIT(60* ticks)
 64: 0x0FD1 [0x2B] Tzee Xicu the Manifest (ID: 17399857/0x01098031) [7391*]:
    → "Let me return your headpiece."
 65: 0x0FD8 [0x23] WAIT_FOR_DIALOG_INTERACTION
 66: 0x0FD9 [0x2B] Tzee Xicu the Manifest (ID: 17399857/0x01098031) [7392*]:
    → "You may use it to call forth Tsoo Haja. While quite stubborn at times, he is one of my most skilled ninjas. He will serve you loyally for as long as I request it."
 67: 0x0FE0 [0x23] WAIT_FOR_DIALOG_INTERACTION
 68: 0x0FE1 [0x2A] GET_REQ_LEVEL(level=10, entity_id=Tzee Xicu the Manifest (ID: 17399857/0x01098031))
 69: 0x0FE7 [0x52] END_LOAD_SCHEDULER: End scheduler "s070" with entities [LocalPlayer, LocalPlayer], work=5*
 70: 0x0FF6 [0x45] LOAD_SCHEDULED_TASK: Load scheduler "s071" with entities [LocalPlayer, LocalPlayer], work=[5*, 0*]
 71: 0x1007 [0x4B] UPDATE_ENTITY_YAW(entity=Tzee Xicu the Manifest (ID: 17399857/0x01098031), yaw=9.9°*)
 72: 0x100E [0x2B] Tzee Xicu the Manifest (ID: 17399857/0x01098031) [7393*]:
    → "Now begone from my citadel, child of Altana."
 73: 0x1015 [0x23] WAIT_FOR_DIALOG_INTERACTION
 74: 0x1016 [0x5B] LOAD_EXT_SCHEDULER: Load scheduler "tlk0" with entities [Tzee Xicu the Manifest (ID: 17399857/0x01098031), Tzee Xicu the Manifest (ID: 17399857/0x01098031)], work=254*
 75: 0x1025 [0x2B] Tzee Xicu the Manifest (ID: 17399857/0x01098031) [7394*]:
    → "Inform the world that there is no hidden treasure in my vaults, but tell no one of our meeting. And remember that Tzee Xicu the Manifest will not be so forgiving the next time a heretic sets foot on this holy soil."
 76: 0x102C [0x23] WAIT_FOR_DIALOG_INTERACTION
 77: 0x102D [0x5B] LOAD_EXT_SCHEDULER: Load scheduler "tlk1" with entities [Tzee Xicu the Manifest (ID: 17399857/0x01098031), Tzee Xicu the Manifest (ID: 17399857/0x01098031)], work=254*
 78: 0x103C [0x27] REQ_SET(priority=0x0A, entity_id=Tzee Xicu the Manifest (ID: 17399857/0x01098031), tag_num=0x05)
 79: 0x1043 [0x5D] SET_MUSIC_VOLUME(volume=0*, fade_time=120*)
 80: 0x1048 [0x45] LOAD_SCHEDULED_TASK: Load scheduler "fdo2" with entities [LocalPlayer, LocalPlayer], work=[200*, 0*]
 81: 0x1059 [0x55] WAIT_LOAD_SCHEDULER: Wait for scheduler "fdo2" with entities [LocalPlayer, LocalPlayer], work=200*
 82: 0x1068 [0x5C] MUSIC_CONTROL: Set Idle (Day) music to song 0*
 83: 0x106C [0x5C] MUSIC_CONTROL: Set Idle (Night) music to song 0*
 84: 0x1070 [0x46] CAMERA_CONTROL: Restore default settings
 85: 0x1072 [0x45] LOAD_SCHEDULED_TASK: Load scheduler "qstc" with entities [LocalPlayer, LocalPlayer], work=[201*, 0*]
 86: 0x1083 [0x45] LOAD_SCHEDULED_TASK: Load scheduler "fdi2" with entities [LocalPlayer, LocalPlayer], work=[200*, 0*]
 87: 0x1094 [0x21] END_EVENT
 88: 0x1095 [0x00] END_REQSTACK()
```

### Event 51

#### Metadata

| Field        | Value     |
|--------------|-----------|
| Entrypoint   | 0x1096    |
| Data Size    | 508 bytes |
| Instructions | 63        |

```
      00 01 02 03 04 05 06 07  08 09 0A 0B 0C 0D 0E 0F
      -- -- -- -- -- -- -- --  -- -- -- -- -- -- -- --
1090:                   42 46  01 5D 02 80 08 80 45 09        BF.]....E.
10A0: 80 F0 FF FF 7F F0 FF FF  7F 66 64 6F 31 02 80 55  .........fdo1..U
10B0: 09 80 F0 FF FF 7F F0 FF  FF 7F 66 64 6F 31 5C 00  ..........fdo1\.
10C0: 3A 80 5C 01 3A 80 38 03  80 45 3F 80 F0 FF FF 7F  :.\.:.8..E?.....
10D0: F0 FF FF 7F 73 30 35 35  02 80 37 44 80 45 80 46  ....s055..7D.E.F
10E0: 80 5E 80 22 00 4E 00 2E  80 09 01 45 09 80 F0 FF  .^.".N.....E....
10F0: FF 7F F0 FF FF 7F 66 64  69 31 02 80 4A 2E 80 09  ......fdi1..J...
1100: 01 F0 FF FF 7F 5B 4A 80  2E 80 09 01 2E 80 09 01  .....[J.........
1110: 74 6C 6B 30 2B 2E 80 09  01 9A 80 23 6B 69 64 6C  tlk0+......#kidl
1120: 30 2E 80 09 01 2B 2E 80  09 01 47 80 23 52 3F 80  0....+....G.#R?.
1130: F0 FF FF 7F F0 FF FF 7F  73 30 35 35 45 3F 80 F0  ........s055E?..
1140: FF FF 7F F0 FF FF 7F 73  30 34 35 02 80 5B 41 80  .......s045..[A.
1150: 2E 80 09 01 2E 80 09 01  61 6E 67 30 2B 2E 80 09  ........ang0+...
1160: 01 9B 80 23 5B 41 80 2E  80 09 01 2E 80 09 01 61  ...#[A.........a
1170: 6E 67 31 2B 2E 80 09 01  9C 80 23 52 3F 80 F0 FF  ng1+......#R?...
1180: FF 7F F0 FF FF 7F 73 30  34 35 45 3F 80 F0 FF FF  ......s045E?....
1190: 7F F0 FF FF 7F 73 30 35  32 02 80 27 0A 2E 80 09  .....s052..'....
11A0: 01 06 1C 0D 80 2B 2E 80  09 01 9D 80 2A 0A 2E 80  .....+......*...
11B0: 09 01 5B 4A 80 2E 80 09  01 2E 80 09 01 70 61 73  ..[J.........pas
11C0: 30 23 2B 2E 80 09 01 9E  80 23 5B 4A 80 2E 80 09  0#+......#[J....
11D0: 01 2E 80 09 01 74 6C 6B  30 2B 2E 80 09 01 9F 80  .....tlk0+......
11E0: 23 6B 69 64 6C 30 2E 80  09 01 52 3F 80 F0 FF FF  #kidl0....R?....
11F0: 7F F0 FF FF 7F 73 30 35  32 45 3F 80 F0 FF FF 7F  .....s052E?.....
1200: F0 FF FF 7F 73 30 35 36  02 80 27 0A 2E 80 09 01  ....s056..'.....
1210: 03 2B 2E 80 09 01 A0 80  1C A1 80 1E 2E 80 09 01  .+..............
1220: 23 2B 2E 80 09 01 A2 80  23 27 0A 2E 80 09 01 07  #+......#'......
1230: 5D 02 80 1C 80 45 09 80  F0 FF FF 7F F0 FF FF 7F  ]....E..........
1240: 66 64 6F 32 02 80 55 09  80 F0 FF FF 7F F0 FF FF  fdo2..U.........
1250: 7F 66 64 6F 32 5C 00 02  80 5C 01 02 80 52 3F 80  .fdo2\...\...R?.
1260: F0 FF FF 7F F0 FF FF 7F  73 30 35 36 46 00 45 39  ........s056F.E9
1270: 80 F0 FF FF 7F F0 FF FF  7F 71 73 74 63 02 80 45  .........qstc..E
1280: 09 80 F0 FF FF 7F F0 FF  FF 7F 66 64 69 32 02 80  ..........fdi2..
1290: 21 00                                             !.              
```

#### Opcodes

```
  0: 0x1096 [0x42] SET_CLI_EVENT_CANCEL_DATA()
  1: 0x1097 [0x46] CAMERA_CONTROL: Disable user control
  2: 0x1099 [0x5D] SET_MUSIC_VOLUME(volume=0*, fade_time=60*)
  3: 0x109E [0x45] LOAD_SCHEDULED_TASK: Load scheduler "fdo1" with entities [LocalPlayer, LocalPlayer], work=[200*, 0*]
  4: 0x10AF [0x55] WAIT_LOAD_SCHEDULER: Wait for scheduler "fdo1" with entities [LocalPlayer, LocalPlayer], work=200*
  5: 0x10BE [0x5C] MUSIC_CONTROL: Set Idle (Day) music to song 163*
  6: 0x10C2 [0x5C] MUSIC_CONTROL: Set Idle (Night) music to song 163*
  7: 0x10C6 [0x38] SET_CLIENT_EVENT_MODE(mode=19*)
  8: 0x10C9 [0x45] LOAD_SCHEDULED_TASK: Load scheduler "s055" with entities [LocalPlayer, LocalPlayer], work=[5*, 0*]
  9: 0x10DA [0x37] UPDATE_EVENT_POSITION_AND_DIR: x=-265.566*, z=-98.601*, y=13.579*, direction=187.6°*
 10: 0x10E3 [0x22] ENTITY_HIDE_FLAG(enabled=0x00)
 11: 0x10E5 [0x4E] SET_ENTITY_HIDE_FLAG: Show Hooknox (ID: 17399854/0x0109802E)
 12: 0x10EB [0x45] LOAD_SCHEDULED_TASK: Load scheduler "fdi1" with entities [LocalPlayer, LocalPlayer], work=[200*, 0*]
 13: 0x10FC [0x4A] Hooknox (ID: 17399854/0x0109802E) looks at LocalPlayer
 14: 0x1105 [0x5B] LOAD_EXT_SCHEDULER: Load scheduler "tlk0" with entities [Hooknox (ID: 17399854/0x0109802E), Hooknox (ID: 17399854/0x0109802E)], work=215*
 15: 0x1114 [0x2B] Hooknox (ID: 17399854/0x0109802E) [7395*]:
    → "That took long enough! What were you doing in there, having cup of San d'Orian tea with Manifest? Anyway, where's riches?"
 16: 0x111B [0x23] WAIT_FOR_DIALOG_INTERACTION
 17: 0x111C [0x6B] STOP_AND_IDLE: Hooknox (ID: 17399854/0x0109802E) stops current action and resets to idle (animation="idl0")
 18: 0x1125 [0x2B] Hooknox (ID: 17399854/0x0109802E) [7396*]:
    → "........."
 19: 0x112C [0x23] WAIT_FOR_DIALOG_INTERACTION
 20: 0x112D [0x52] END_LOAD_SCHEDULER: End scheduler "s055" with entities [LocalPlayer, LocalPlayer], work=5*
 21: 0x113C [0x45] LOAD_SCHEDULED_TASK: Load scheduler "s045" with entities [LocalPlayer, LocalPlayer], work=[5*, 0*]
 22: 0x114D [0x5B] LOAD_EXT_SCHEDULER: Load scheduler "ang0" with entities [Hooknox (ID: 17399854/0x0109802E), Hooknox (ID: 17399854/0x0109802E)], work=216*
 23: 0x115C [0x2B] Hooknox (ID: 17399854/0x0109802E) [7397*]:
    → "Eh? Eh? I didn't catch that. ......... Eh? Eh? I didn't catch th..."
 24: 0x1163 [0x23] WAIT_FOR_DIALOG_INTERACTION
 25: 0x1164 [0x5B] LOAD_EXT_SCHEDULER: Load scheduler "ang1" with entities [Hooknox (ID: 17399854/0x0109802E), Hooknox (ID: 17399854/0x0109802E)], work=216*
 26: 0x1173 [0x2B] Hooknox (ID: 17399854/0x0109802E) [7398*]:
    → "No riches!? No riches!? You're pulling Hooknox's ear now, aren't you? You're not... Oh..."
 27: 0x117A [0x23] WAIT_FOR_DIALOG_INTERACTION
 28: 0x117B [0x52] END_LOAD_SCHEDULER: End scheduler "s045" with entities [LocalPlayer, LocalPlayer], work=5*
 29: 0x118A [0x45] LOAD_SCHEDULED_TASK: Load scheduler "s052" with entities [LocalPlayer, LocalPlayer], work=[5*, 0*]
 30: 0x119B [0x27] REQ_SET(priority=0x0A, entity_id=Hooknox (ID: 17399854/0x0109802E), tag_num=0x06)
 31: 0x11A2 [0x1C] WAIT(30* ticks)
 32: 0x11A5 [0x2B] Hooknox (ID: 17399854/0x0109802E) [7399*]:
    → "Oh well... I guess my summer home on Purgonorgo Isle will just have to wait while longer. Here. You can have this."
 33: 0x11AC [0x2A] GET_REQ_LEVEL(level=10, entity_id=Hooknox (ID: 17399854/0x0109802E))
 34: 0x11B2 [0x5B] LOAD_EXT_SCHEDULER: Load scheduler "pas0" with entities [Hooknox (ID: 17399854/0x0109802E), Hooknox (ID: 17399854/0x0109802E)], work=215*
 35: 0x11C1 [0x23] WAIT_FOR_DIALOG_INTERACTION
 36: 0x11C2 [0x2B] Hooknox (ID: 17399854/0x0109802E) [7400*]:
    → "Thanks for holding up your end of bargain."
 37: 0x11C9 [0x23] WAIT_FOR_DIALOG_INTERACTION
 38: 0x11CA [0x5B] LOAD_EXT_SCHEDULER: Load scheduler "tlk0" with entities [Hooknox (ID: 17399854/0x0109802E), Hooknox (ID: 17399854/0x0109802E)], work=215*
 39: 0x11D9 [0x2B] Hooknox (ID: 17399854/0x0109802E) [7401*]:
    → "What are you so surprised at? We Gobbies believe in stuff like honor, justice...even [love/friendship]... Sometimes..."
 40: 0x11E0 [0x23] WAIT_FOR_DIALOG_INTERACTION
 41: 0x11E1 [0x6B] STOP_AND_IDLE: Hooknox (ID: 17399854/0x0109802E) stops current action and resets to idle (animation="idl0")
 42: 0x11EA [0x52] END_LOAD_SCHEDULER: End scheduler "s052" with entities [LocalPlayer, LocalPlayer], work=5*
 43: 0x11F9 [0x45] LOAD_SCHEDULED_TASK: Load scheduler "s056" with entities [LocalPlayer, LocalPlayer], work=[5*, 0*]
 44: 0x120A [0x27] REQ_SET(priority=0x0A, entity_id=Hooknox (ID: 17399854/0x0109802E), tag_num=0x03)
 45: 0x1211 [0x2B] Hooknox (ID: 17399854/0x0109802E) [7402*]:
    → "Anyway... I guess I'll be seeing you around...or maybe not."
 46: 0x1218 [0x1C] WAIT(45* ticks)
 47: 0x121B [0x1E] EventEntity looks at Hooknox (ID: 17399854/0x0109802E) and starts talking
 48: 0x1220 [0x23] WAIT_FOR_DIALOG_INTERACTION
 49: 0x1221 [0x2B] Hooknox (ID: 17399854/0x0109802E) [7403*]:
    → "But if we do meet up in some dungeon somewhere...do you think you'd want to team up again? For old times' sake? Think about it!"
 50: 0x1228 [0x23] WAIT_FOR_DIALOG_INTERACTION
 51: 0x1229 [0x27] REQ_SET(priority=0x0A, entity_id=Hooknox (ID: 17399854/0x0109802E), tag_num=0x07)
 52: 0x1230 [0x5D] SET_MUSIC_VOLUME(volume=0*, fade_time=120*)
 53: 0x1235 [0x45] LOAD_SCHEDULED_TASK: Load scheduler "fdo2" with entities [LocalPlayer, LocalPlayer], work=[200*, 0*]
 54: 0x1246 [0x55] WAIT_LOAD_SCHEDULER: Wait for scheduler "fdo2" with entities [LocalPlayer, LocalPlayer], work=200*
 55: 0x1255 [0x5C] MUSIC_CONTROL: Set Idle (Day) music to song 0*
 56: 0x1259 [0x5C] MUSIC_CONTROL: Set Idle (Night) music to song 0*
 57: 0x125D [0x52] END_LOAD_SCHEDULER: End scheduler "s056" with entities [LocalPlayer, LocalPlayer], work=5*
 58: 0x126C [0x46] CAMERA_CONTROL: Restore default settings
 59: 0x126E [0x45] LOAD_SCHEDULED_TASK: Load scheduler "qstc" with entities [LocalPlayer, LocalPlayer], work=[201*, 0*]
 60: 0x127F [0x45] LOAD_SCHEDULED_TASK: Load scheduler "fdi2" with entities [LocalPlayer, LocalPlayer], work=[200*, 0*]
 61: 0x1290 [0x21] END_EVENT
 62: 0x1291 [0x00] END_REQSTACK()
```
