# Event 162

## Metadata

| Field           | Value    |
|-----------------|----------|
| Event Index     | 6/7      |
| Offset          | 0x0065   |
| Data Size       | 47 bytes |
| Calculated Size | 47 bytes |
| Instructions    | 11       |

```
      00 01 02 03 04 05 06 07  08 09 0A 0B 0C 0D 0E 0F
      -- -- -- -- -- -- -- --  -- -- -- -- -- -- -- --
0060:                1E F0 FF  FF 7F 6F 70 66 00 80 F8       .....opf...
0070: FF FF 7F F8 FF FF 7F 74  6C 6B 30 1D 06 80 23 1D  .......tlk0...#.
0080: 07 80 23 66 00 80 F8 FF  FF 7F F8 FF FF 7F 74 6C  ..#f..........tl
0090: 6B 31 21 00                                       k1!.            
```

## Opcodes

```
  0: 0x0065 [0x1E] EventEntity looks at LocalPlayer and starts talking
  1: 0x006A [0x6F] WAIT_FRAME_DELAY: Yield until WaitTime reaches zero
  2: 0x006B [0x70] WAIT_ENTITY_RENDER_FLAG: Wait while EventEntity->Render.Flags3 bit 2 is set (cancel turn if not)
  3: 0x006C [0x66] LOAD_EXT_SCHEDULER_MAIN(work_offset=60*, entity1=EventEntity, entity2=EventEntity, action="tlk0")
  4: 0x007B [0x1D] PRINT_EVENT_MESSAGE(message_id=9040*)
    → "Sorry to drag you into this, \u0008, but could you possibly head to the waterfront and check on how things are going?\u007F1\u0000\u0007"
  5: 0x007E [0x23] WAIT_FOR_DIALOG_INTERACTION
  6: 0x007F [0x1D] PRINT_EVENT_MESSAGE(message_id=9041*)
    → "I'm sure it's all topsy-turvy over there, but maybe you can find which end is up.\u007F1\u0000\u0007"
  7: 0x0082 [0x23] WAIT_FOR_DIALOG_INTERACTION
  8: 0x0083 [0x66] LOAD_EXT_SCHEDULER_MAIN(work_offset=60*, entity1=EventEntity, entity2=EventEntity, action="tlk1")
  9: 0x0092 [0x21] END_EVENT
 10: 0x0093 [0x00] END_REQSTACK()
```
