# Event 65535

## Metadata

| Field           | Value    |
|-----------------|----------|
| Event Index     | 22/26    |
| Offset          | 0x01C1   |
| Data Size       | 67 bytes |
| Calculated Size | 67 bytes |
| Instructions    | 15       |

```
      00 01 02 03 04 05 06 07  08 09 0A 0B 0C 0D 0E 0F
      -- -- -- -- -- -- -- --  -- -- -- -- -- -- -- --
01C0:    32 47 80 1F 00 48 80  49 80 4A 80 1F 01 4B 9A   2G...H.I.J...K.
01D0: A0 0E 01 4B 80 1C 4C 80  1F 00 4D 80 4E 80 4F 80  ...K..L...M.N.O.
01E0: 1F 01 4B 9A A0 0E 01 50  80 1C 51 80 1F 00 52 80  ..K....P..Q...R.
01F0: 53 80 54 80 1F 01 1C 40  80 4B 9A A0 0E 01 55 80  S.T....@.K....U.
0200: 1C 4C 80 00                                       .L..            
```

## Opcodes

```
  0: 0x01C1 [0x32] ExtData[1]->MainSpeed = 45* * 0.1
  1: 0x01C4 [0x1F] MOVE_ENTITY: EventEntity moves to X=-599.295*, Z=590.678*, Y=0.264*
  2: 0x01CC [0x1F] MOVE_ENTITY: Update entity position (mode=1)
  3: 0x01CE [0x4B] UPDATE_ENTITY_YAW(entity=Unnamed NPC (ID: 17735834/0x010EA09A), yaw=5.27°*)
  4: 0x01D5 [0x1C] WAIT(60* ticks)
  5: 0x01D8 [0x1F] MOVE_ENTITY: EventEntity moves to X=-604.353*, Z=586.292*, Y=0.138*
  6: 0x01E0 [0x1F] MOVE_ENTITY: Update entity position (mode=1)
  7: 0x01E2 [0x4B] UPDATE_ENTITY_YAW(entity=Unnamed NPC (ID: 17735834/0x010EA09A), yaw=0.20°*)
  8: 0x01E9 [0x1C] WAIT(240* ticks)
  9: 0x01EC [0x1F] MOVE_ENTITY: EventEntity moves to X=-600.328*, Z=582.410*, Y=0.802*
 10: 0x01F4 [0x1F] MOVE_ENTITY: Update entity position (mode=1)
 11: 0x01F6 [0x1C] WAIT(30* ticks)
 12: 0x01F9 [0x4B] UPDATE_ENTITY_YAW(entity=Unnamed NPC (ID: 17735834/0x010EA09A), yaw=16.63°*)
 13: 0x0200 [0x1C] WAIT(60* ticks)
 14: 0x0203 [0x00] END_REQSTACK()
```
