# Event 65535

## Metadata

| Field           | Value    |
|-----------------|----------|
| Event Index     | 12/12    |
| Offset          | 0x00DD   |
| Data Size       | 50 bytes |
| Calculated Size | 50 bytes |
| Instructions    | 10       |

```
      00 01 02 03 04 05 06 07  08 09 0A 0B 0C 0D 0E 0F
      -- -- -- -- -- -- -- --  -- -- -- -- -- -- -- --
00D0:                                         32 05 80               2..
00E0: 1F 00 13 80 14 80 15 80  1F 01 6F 4A 20 42 0A 01  ..........oJ B..
00F0: 45 42 0A 01 7B 20 42 0A  01 6F 76 20 42 0A 01 5B  EB..{ B..ov B..[
0100: 16 80 20 42 0A 01 20 42  0A 01 6C 62 74 30 00     .. B.. B..lbt0. 
```

## Opcodes

```
  0: 0x00DD [0x32] ExtData[1]->MainSpeed = 40* * 0.1
  1: 0x00E0 [0x1F] MOVE_ENTITY: EventEntity moves to X=-9.729*, Z=-280.316*, Y=0.414*
  2: 0x00E8 [0x1F] MOVE_ENTITY: Update entity position (mode=1)
  3: 0x00EA [0x6F] WAIT_FRAME_DELAY: Yield until WaitTime reaches zero
  4: 0x00EB [0x4A] Routandeault (ID: 17449504/0x010A4220) looks at D (ID: 17449541/0x010A4245)
  5: 0x00F4 [0x7B] Routandeault (ID: 17449504/0x010A4220) stops talking
  6: 0x00F9 [0x6F] WAIT_FRAME_DELAY: Yield until WaitTime reaches zero
  7: 0x00FA [0x76] CHECK_ENTITY_RENDER_FLAGS: Wait until Routandeault (ID: 17449504/0x010A4220) Render.Flags0 and Render.Flags3 conditions are met
  8: 0x00FF [0x5B] LOAD_EXT_SCHEDULER: Load scheduler "lbt0" with entities [Routandeault (ID: 17449504/0x010A4220), Routandeault (ID: 17449504/0x010A4220)], work=1302*
  9: 0x010E [0x00] END_REQSTACK()
```
