# 16912915

## Common Data

| Field            | Value             |
|------------------|-------------------|
| Zone             | Al'Taieu (ID: 33) |
| Block Size       | 452 bytes         |
| Total Events     | 11                |
| References Count | 13                |

## List of Events

| Event ID                 | Entrypoint   |   Size |   Instructions |
|--------------------------|--------------|--------|----------------|
| [65535](#event-65535)    | 0x0000       |      1 |              1 |
| [65534](#event-65534)    | 0x0001       |      1 |              1 |
| [65535.1](#event-655351) | 0x0002       |     13 |              3 |
| [65535.2](#event-655352) | 0x000F       |     40 |              7 |
| [65535.3](#event-655353) | 0x0037       |     64 |              7 |
| [65535.4](#event-655354) | 0x0077       |     40 |              7 |
| [65535.5](#event-655355) | 0x009F       |     40 |              7 |
| [65535.6](#event-655356) | 0x00C7       |     46 |              6 |
| [65535.7](#event-655357) | 0x00F5       |     45 |              5 |
| [65535.8](#event-655358) | 0x0122       |     16 |              4 |
| [65535.9](#event-655359) | 0x0132       |     34 |              4 |

## DAT References (imed_data)

|   Index | Hex Value   |   Dec Value |
|---------|-------------|-------------|
|       0 | 0x001E      |          30 |
|       1 | 0x0080      |         128 |
|       2 | 0x00B4      |         180 |
|       3 | 0x01BC      |         444 |
|       4 | 0x01B2      |         434 |
|       5 | 0x012C      |         300 |
|       6 | 0x0001      |           1 |
|       7 | 0x00B1      |         177 |
|       8 | 0x0000      |           0 |
|       9 | 0x005A      |          90 |
|      10 | 0x0096      |         150 |
|      11 | 0x000F      |          15 |
|      12 | 0x02B4      |         692 |

## Events

### Event 65535

#### Metadata

| Field        | Value   |
|--------------|---------|
| Entrypoint   | 0x0000  |
| Data Size    | 1 bytes |
| Instructions | 1       |

```
      00 01 02 03 04 05 06 07  08 09 0A 0B 0C 0D 0E 0F
      -- -- -- -- -- -- -- --  -- -- -- -- -- -- -- --
0000: 00                                                .               
```

#### Opcodes

```
  0: 0x0000 [0x00] END_REQSTACK()
```

### Event 65534

#### Metadata

| Field        | Value   |
|--------------|---------|
| Entrypoint   | 0x0001  |
| Data Size    | 1 bytes |
| Instructions | 1       |

```
      00 01 02 03 04 05 06 07  08 09 0A 0B 0C 0D 0E 0F
      -- -- -- -- -- -- -- --  -- -- -- -- -- -- -- --
0000:    00                                              .              
```

#### Opcodes

```
  0: 0x0001 [0x00] END_REQSTACK()
```

### Event 65535.1

#### Metadata

| Field        | Value    |
|--------------|----------|
| Entrypoint   | 0x0002   |
| Data Size    | 13 bytes |
| Instructions | 3        |

```
      00 01 02 03 04 05 06 07  08 09 0A 0B 0C 0D 0E 0F
      -- -- -- -- -- -- -- --  -- -- -- -- -- -- -- --
0000:       1C 00 80 6C 17 12  02 01 01 80 02 80 00       ...l......... 
```

#### Opcodes

```
  0: 0x0002 [0x1C] WAIT(30* ticks)
  1: 0x0005 [0x6C] FADE_ENTITY_COLOR(entity_id=Selh'teus (ID: 16912919/0x01021217), end_alpha=128*, fade_time=180*)
  2: 0x000E [0x00] END_REQSTACK()
```

### Event 65535.2

#### Metadata

| Field        | Value    |
|--------------|----------|
| Entrypoint   | 0x000F   |
| Data Size    | 40 bytes |
| Instructions | 7        |

```
      00 01 02 03 04 05 06 07  08 09 0A 0B 0C 0D 0E 0F
      -- -- -- -- -- -- -- --  -- -- -- -- -- -- -- --
0000:                                               27                 '
0010: 10 1E 12 02 01 0A 27 10  1F 12 02 01 0A 27 10 20  ......'......'. 
0020: 12 02 01 0A 2A 10 1E 12  02 01 2A 10 1F 12 02 01  ....*.....*.....
0030: 2A 10 20 12 02 01 00                              *. ....         
```

#### Opcodes

```
  0: 0x000F [0x27] REQ_SET(priority=0x10, entity_id=Makki-Chebukki (ID: 16912926/0x0102121E), tag_num=0x0A)
  1: 0x0016 [0x27] REQ_SET(priority=0x10, entity_id=Kukki-Chebukki (ID: 16912927/0x0102121F), tag_num=0x0A)
  2: 0x001D [0x27] REQ_SET(priority=0x10, entity_id=Cherukiki (ID: 16912928/0x01021220), tag_num=0x0A)
  3: 0x0024 [0x2A] GET_REQ_LEVEL(level=16, entity_id=Makki-Chebukki (ID: 16912926/0x0102121E))
  4: 0x002A [0x2A] GET_REQ_LEVEL(level=16, entity_id=Kukki-Chebukki (ID: 16912927/0x0102121F))
  5: 0x0030 [0x2A] GET_REQ_LEVEL(level=16, entity_id=Cherukiki (ID: 16912928/0x01021220))
  6: 0x0036 [0x00] END_REQSTACK()
```

### Event 65535.3

#### Metadata

| Field        | Value    |
|--------------|----------|
| Entrypoint   | 0x0037   |
| Data Size    | 64 bytes |
| Instructions | 7        |

```
      00 01 02 03 04 05 06 07  08 09 0A 0B 0C 0D 0E 0F
      -- -- -- -- -- -- -- --  -- -- -- -- -- -- -- --
0030:                      81  00 1E 12 02 01 81 00 1F         .........
0040: 12 02 01 81 00 20 12 02  01 5B 03 80 1E 12 02 01  ..... ...[......
0050: 1E 12 02 01 63 79 30 31  5B 03 80 1F 12 02 01 1F  ....cy01[.......
0060: 12 02 01 63 79 30 31 5B  04 80 20 12 02 01 20 12  ...cy01[.. ... .
0070: 02 01 63 79 30 31 00                              ..cy01.         
```

#### Opcodes

```
  0: 0x0037 [0x81] SET_ENTITY_BLINKING(blink_flag=0x00, entity=Makki-Chebukki (ID: 16912926/0x0102121E))
  1: 0x003D [0x81] SET_ENTITY_BLINKING(blink_flag=0x00, entity=Kukki-Chebukki (ID: 16912927/0x0102121F))
  2: 0x0043 [0x81] SET_ENTITY_BLINKING(blink_flag=0x00, entity=Cherukiki (ID: 16912928/0x01021220))
  3: 0x0049 [0x5B] LOAD_EXT_SCHEDULER: Load scheduler "cy01" with entities [Makki-Chebukki (ID: 16912926/0x0102121E), Makki-Chebukki (ID: 16912926/0x0102121E)], work=444*
  4: 0x0058 [0x5B] LOAD_EXT_SCHEDULER: Load scheduler "cy01" with entities [Kukki-Chebukki (ID: 16912927/0x0102121F), Kukki-Chebukki (ID: 16912927/0x0102121F)], work=444*
  5: 0x0067 [0x5B] LOAD_EXT_SCHEDULER: Load scheduler "cy01" with entities [Cherukiki (ID: 16912928/0x01021220), Cherukiki (ID: 16912928/0x01021220)], work=434*
  6: 0x0076 [0x00] END_REQSTACK()
```

### Event 65535.4

#### Metadata

| Field        | Value    |
|--------------|----------|
| Entrypoint   | 0x0077   |
| Data Size    | 40 bytes |
| Instructions | 7        |

```
      00 01 02 03 04 05 06 07  08 09 0A 0B 0C 0D 0E 0F
      -- -- -- -- -- -- -- --  -- -- -- -- -- -- -- --
0070:                      27  10 1E 12 02 01 0D 27 10         '......'.
0080: 1F 12 02 01 0D 27 10 20  12 02 01 0D 2A 10 1E 12  .....'. ....*...
0090: 02 01 2A 10 1F 12 02 01  2A 10 20 12 02 01 00     ..*.....*. .... 
```

#### Opcodes

```
  0: 0x0077 [0x27] REQ_SET(priority=0x10, entity_id=Makki-Chebukki (ID: 16912926/0x0102121E), tag_num=0x0D)
  1: 0x007E [0x27] REQ_SET(priority=0x10, entity_id=Kukki-Chebukki (ID: 16912927/0x0102121F), tag_num=0x0D)
  2: 0x0085 [0x27] REQ_SET(priority=0x10, entity_id=Cherukiki (ID: 16912928/0x01021220), tag_num=0x0D)
  3: 0x008C [0x2A] GET_REQ_LEVEL(level=16, entity_id=Makki-Chebukki (ID: 16912926/0x0102121E))
  4: 0x0092 [0x2A] GET_REQ_LEVEL(level=16, entity_id=Kukki-Chebukki (ID: 16912927/0x0102121F))
  5: 0x0098 [0x2A] GET_REQ_LEVEL(level=16, entity_id=Cherukiki (ID: 16912928/0x01021220))
  6: 0x009E [0x00] END_REQSTACK()
```

### Event 65535.5

#### Metadata

| Field        | Value    |
|--------------|----------|
| Entrypoint   | 0x009F   |
| Data Size    | 40 bytes |
| Instructions | 7        |

```
      00 01 02 03 04 05 06 07  08 09 0A 0B 0C 0D 0E 0F
      -- -- -- -- -- -- -- --  -- -- -- -- -- -- -- --
0090:                                               27                 '
00A0: 10 1E 12 02 01 0F 27 10  1F 12 02 01 0F 27 10 20  ......'......'. 
00B0: 12 02 01 0F 2A 10 1E 12  02 01 2A 10 1F 12 02 01  ....*.....*.....
00C0: 2A 10 20 12 02 01 00                              *. ....         
```

#### Opcodes

```
  0: 0x009F [0x27] REQ_SET(priority=0x10, entity_id=Makki-Chebukki (ID: 16912926/0x0102121E), tag_num=0x0F)
  1: 0x00A6 [0x27] REQ_SET(priority=0x10, entity_id=Kukki-Chebukki (ID: 16912927/0x0102121F), tag_num=0x0F)
  2: 0x00AD [0x27] REQ_SET(priority=0x10, entity_id=Cherukiki (ID: 16912928/0x01021220), tag_num=0x0F)
  3: 0x00B4 [0x2A] GET_REQ_LEVEL(level=16, entity_id=Makki-Chebukki (ID: 16912926/0x0102121E))
  4: 0x00BA [0x2A] GET_REQ_LEVEL(level=16, entity_id=Kukki-Chebukki (ID: 16912927/0x0102121F))
  5: 0x00C0 [0x2A] GET_REQ_LEVEL(level=16, entity_id=Cherukiki (ID: 16912928/0x01021220))
  6: 0x00C6 [0x00] END_REQSTACK()
```

### Event 65535.6

#### Metadata

| Field        | Value    |
|--------------|----------|
| Entrypoint   | 0x00C7   |
| Data Size    | 46 bytes |
| Instructions | 6        |

```
      00 01 02 03 04 05 06 07  08 09 0A 0B 0C 0D 0E 0F
      -- -- -- -- -- -- -- --  -- -- -- -- -- -- -- --
00C0:                      6B  69 64 6C 30 18 12 02 01         kidl0....
00D0: 6B 69 64 6C 30 1C 12 02  01 6B 69 64 6C 30 1E 12  kidl0....kidl0..
00E0: 02 01 6B 69 64 6C 30 1F  12 02 01 6B 69 64 6C 30  ..kidl0....kidl0
00F0: 20 12 02 01 00                                     ....           
```

#### Opcodes

```
  0: 0x00C7 [0x6B] STOP_AND_IDLE: Ulmia (ID: 16912920/0x01021218) stops current action and resets to idle (animation="idl0")
  1: 0x00D0 [0x6B] STOP_AND_IDLE: Louverance (ID: 16912924/0x0102121C) stops current action and resets to idle (animation="idl0")
  2: 0x00D9 [0x6B] STOP_AND_IDLE: Makki-Chebukki (ID: 16912926/0x0102121E) stops current action and resets to idle (animation="idl0")
  3: 0x00E2 [0x6B] STOP_AND_IDLE: Kukki-Chebukki (ID: 16912927/0x0102121F) stops current action and resets to idle (animation="idl0")
  4: 0x00EB [0x6B] STOP_AND_IDLE: Cherukiki (ID: 16912928/0x01021220) stops current action and resets to idle (animation="idl0")
  5: 0x00F4 [0x00] END_REQSTACK()
```

### Event 65535.7

#### Metadata

| Field        | Value    |
|--------------|----------|
| Entrypoint   | 0x00F5   |
| Data Size    | 45 bytes |
| Instructions | 5        |

```
      00 01 02 03 04 05 06 07  08 09 0A 0B 0C 0D 0E 0F
      -- -- -- -- -- -- -- --  -- -- -- -- -- -- -- --
00F0:                1C 05 80  6C 17 12 02 01 01 80 06       ...l.......
0100: 80 52 07 80 F0 FF FF 7F  F0 FF FF 7F 63 35 34 37  .R..........c547
0110: 45 07 80 F0 FF FF 7F F0  FF FF 7F 63 35 34 38 08  E..........c548.
0120: 80 00                                             ..              
```

#### Opcodes

```
  0: 0x00F5 [0x1C] WAIT(300* ticks)
  1: 0x00F8 [0x6C] FADE_ENTITY_COLOR(entity_id=Selh'teus (ID: 16912919/0x01021217), end_alpha=128*, fade_time=1*)
  2: 0x0101 [0x52] END_LOAD_SCHEDULER: End scheduler "c547" with entities [LocalPlayer, LocalPlayer], work=177*
  3: 0x0110 [0x45] LOAD_SCHEDULED_TASK: Load scheduler "c548" with entities [LocalPlayer, LocalPlayer], work=[177*, 0*]
  4: 0x0121 [0x00] END_REQSTACK()
```

### Event 65535.8

#### Metadata

| Field        | Value    |
|--------------|----------|
| Entrypoint   | 0x0122   |
| Data Size    | 16 bytes |
| Instructions | 4        |

```
      00 01 02 03 04 05 06 07  08 09 0A 0B 0C 0D 0E 0F
      -- -- -- -- -- -- -- --  -- -- -- -- -- -- -- --
0120:       1C 09 80 5D 08 80  0A 80 6A 08 80 05 80 0B    ...]....j.....
0130: 80 00                                             ..              
```

#### Opcodes

```
  0: 0x0122 [0x1C] WAIT(90* ticks)
  1: 0x0125 [0x5D] SET_MUSIC_VOLUME(volume=0*, fade_time=150*)
  2: 0x012A [0x6A] CHANGE_SOUND_VOLUME: Set (Effects/System/Zone/Master)* volume to 0*, fade_time=300*
  3: 0x0131 [0x00] END_REQSTACK()
```

### Event 65535.9

#### Metadata

| Field        | Value    |
|--------------|----------|
| Entrypoint   | 0x0132   |
| Data Size    | 34 bytes |
| Instructions | 4        |

```
      00 01 02 03 04 05 06 07  08 09 0A 0B 0C 0D 0E 0F
      -- -- -- -- -- -- -- --  -- -- -- -- -- -- -- --
0130:       6C 16 12 02 01 01  80 06 80 6C 25 12 02 01    l........l%...
0140: 08 80 06 80 5B 0C 80 16  12 02 01 16 12 02 01 70  ....[..........p
0150: 61 30 30 00                                       a00.            
```

#### Opcodes

```
  0: 0x0132 [0x6C] FADE_ENTITY_COLOR(entity_id=Prishe (ID: 16912918/0x01021216), end_alpha=128*, fade_time=1*)
  1: 0x013B [0x6C] FADE_ENTITY_COLOR(entity_id=Prishe (ID: 16912933/0x01021225), end_alpha=0*, fade_time=1*)
  2: 0x0144 [0x5B] LOAD_EXT_SCHEDULER: Load scheduler "pa00" with entities [Prishe (ID: 16912918/0x01021216), Prishe (ID: 16912918/0x01021216)], work=692*
  3: 0x0153 [0x00] END_REQSTACK()
```
