# 16912916

## Common Data

| Field            | Value             |
|------------------|-------------------|
| Zone             | Al'Taieu (ID: 33) |
| Block Size       | 332 bytes         |
| Total Events     | 8                 |
| References Count | 6                 |

## List of Events

| Event ID                 | Entrypoint   |   Size |   Instructions |
|--------------------------|--------------|--------|----------------|
| [65535](#event-65535)    | 0x0000       |      1 |              1 |
| [65534](#event-65534)    | 0x0001       |      1 |              1 |
| [65535.1](#event-655351) | 0x0002       |     37 |              5 |
| [65535.2](#event-655352) | 0x0027       |     46 |              4 |
| [65535.3](#event-655353) | 0x0055       |     61 |              5 |
| [65535.4](#event-655354) | 0x0092       |     22 |              4 |
| [65535.5](#event-655355) | 0x00A8       |     46 |              4 |
| [65535.6](#event-655356) | 0x00D6       |     46 |              6 |

## DAT References (imed_data)

|   Index | Hex Value   |   Dec Value |
|---------|-------------|-------------|
|       0 | 0x0291      |         657 |
|       1 | 0x029B      |         667 |
|       2 | 0x01ED      |         493 |
|       3 | 0x0279      |         633 |
|       4 | 0x01A2      |         418 |
|       5 | 0x0299      |         665 |

## Events

### Event 65535

#### Metadata

| Field        | Value   |
|--------------|---------|
| Entrypoint   | 0x0000  |
| Data Size    | 1 bytes |
| Instructions | 1       |

```
      00 01 02 03 04 05 06 07  08 09 0A 0B 0C 0D 0E 0F
      -- -- -- -- -- -- -- --  -- -- -- -- -- -- -- --
0000: 00                                                .               
```

#### Opcodes

```
  0: 0x0000 [0x00] END_REQSTACK()
```

### Event 65534

#### Metadata

| Field        | Value   |
|--------------|---------|
| Entrypoint   | 0x0001  |
| Data Size    | 1 bytes |
| Instructions | 1       |

```
      00 01 02 03 04 05 06 07  08 09 0A 0B 0C 0D 0E 0F
      -- -- -- -- -- -- -- --  -- -- -- -- -- -- -- --
0000:    00                                              .              
```

#### Opcodes

```
  0: 0x0001 [0x00] END_REQSTACK()
```

### Event 65535.1

#### Metadata

| Field        | Value    |
|--------------|----------|
| Entrypoint   | 0x0002   |
| Data Size    | 37 bytes |
| Instructions | 5        |

```
      00 01 02 03 04 05 06 07  08 09 0A 0B 0C 0D 0E 0F
      -- -- -- -- -- -- -- --  -- -- -- -- -- -- -- --
0000:       6B 69 64 6C 30 1C  12 02 01 6B 69 64 6C 30    kidl0....kidl0
0010: 18 12 02 01 6B 69 64 6C  30 1B 12 02 01 6B 69 64  ....kidl0....kid
0020: 6C 30 1A 12 02 01 00                              l0.....         
```

#### Opcodes

```
  0: 0x0002 [0x6B] STOP_AND_IDLE: Louverance (ID: 16912924/0x0102121C) stops current action and resets to idle (animation="idl0")
  1: 0x000B [0x6B] STOP_AND_IDLE: Ulmia (ID: 16912920/0x01021218) stops current action and resets to idle (animation="idl0")
  2: 0x0014 [0x6B] STOP_AND_IDLE: Shikaree Z (ID: 16912923/0x0102121B) stops current action and resets to idle (animation="idl0")
  3: 0x001D [0x6B] STOP_AND_IDLE: Jabbos (ID: 16912922/0x0102121A) stops current action and resets to idle (animation="idl0")
  4: 0x0026 [0x00] END_REQSTACK()
```

### Event 65535.2

#### Metadata

| Field        | Value    |
|--------------|----------|
| Entrypoint   | 0x0027   |
| Data Size    | 46 bytes |
| Instructions | 4        |

```
      00 01 02 03 04 05 06 07  08 09 0A 0B 0C 0D 0E 0F
      -- -- -- -- -- -- -- --  -- -- -- -- -- -- -- --
0020:                      5B  00 80 1C 12 02 01 1C 12         [........
0030: 02 01 63 79 30 33 5B 01  80 1B 12 02 01 1B 12 02  ..cy03[.........
0040: 01 63 79 30 33 5B 02 80  1A 12 02 01 1A 12 02 01  .cy03[..........
0050: 63 79 30 31 00                                    cy01.           
```

#### Opcodes

```
  0: 0x0027 [0x5B] LOAD_EXT_SCHEDULER: Load scheduler "cy03" with entities [Louverance (ID: 16912924/0x0102121C), Louverance (ID: 16912924/0x0102121C)], work=657*
  1: 0x0036 [0x5B] LOAD_EXT_SCHEDULER: Load scheduler "cy03" with entities [Shikaree Z (ID: 16912923/0x0102121B), Shikaree Z (ID: 16912923/0x0102121B)], work=667*
  2: 0x0045 [0x5B] LOAD_EXT_SCHEDULER: Load scheduler "cy01" with entities [Jabbos (ID: 16912922/0x0102121A), Jabbos (ID: 16912922/0x0102121A)], work=493*
  3: 0x0054 [0x00] END_REQSTACK()
```

### Event 65535.3

#### Metadata

| Field        | Value    |
|--------------|----------|
| Entrypoint   | 0x0055   |
| Data Size    | 61 bytes |
| Instructions | 5        |

```
      00 01 02 03 04 05 06 07  08 09 0A 0B 0C 0D 0E 0F
      -- -- -- -- -- -- -- --  -- -- -- -- -- -- -- --
0050:                5B 03 80  18 12 02 01 18 12 02 01       [..........
0060: 6B 7A 65 30 5B 04 80 1C  12 02 01 1C 12 02 01 6B  kze0[..........k
0070: 7A 65 30 5B 01 80 1B 12  02 01 1B 12 02 01 63 79  ze0[..........cy
0080: 30 35 5B 02 80 1A 12 02  01 1A 12 02 01 63 79 30  05[..........cy0
0090: 32 00                                             2.              
```

#### Opcodes

```
  0: 0x0055 [0x5B] LOAD_EXT_SCHEDULER: Load scheduler "kze0" with entities [Ulmia (ID: 16912920/0x01021218), Ulmia (ID: 16912920/0x01021218)], work=633*
  1: 0x0064 [0x5B] LOAD_EXT_SCHEDULER: Load scheduler "kze0" with entities [Louverance (ID: 16912924/0x0102121C), Louverance (ID: 16912924/0x0102121C)], work=418*
  2: 0x0073 [0x5B] LOAD_EXT_SCHEDULER: Load scheduler "cy05" with entities [Shikaree Z (ID: 16912923/0x0102121B), Shikaree Z (ID: 16912923/0x0102121B)], work=667*
  3: 0x0082 [0x5B] LOAD_EXT_SCHEDULER: Load scheduler "cy02" with entities [Jabbos (ID: 16912922/0x0102121A), Jabbos (ID: 16912922/0x0102121A)], work=493*
  4: 0x0091 [0x00] END_REQSTACK()
```

### Event 65535.4

#### Metadata

| Field        | Value    |
|--------------|----------|
| Entrypoint   | 0x0092   |
| Data Size    | 22 bytes |
| Instructions | 4        |

```
      00 01 02 03 04 05 06 07  08 09 0A 0B 0C 0D 0E 0F
      -- -- -- -- -- -- -- --  -- -- -- -- -- -- -- --
0090:       27 10 1A 12 02 01  0B 27 10 1B 12 02 01 0A    '......'......
00A0: 27 10 1C 12 02 01 0A 00                           '.......        
```

#### Opcodes

```
  0: 0x0092 [0x27] REQ_SET(priority=0x10, entity_id=Jabbos (ID: 16912922/0x0102121A), tag_num=0x0B)
  1: 0x0099 [0x27] REQ_SET(priority=0x10, entity_id=Shikaree Z (ID: 16912923/0x0102121B), tag_num=0x0A)
  2: 0x00A0 [0x27] REQ_SET(priority=0x10, entity_id=Louverance (ID: 16912924/0x0102121C), tag_num=0x0A)
  3: 0x00A7 [0x00] END_REQSTACK()
```

### Event 65535.5

#### Metadata

| Field        | Value    |
|--------------|----------|
| Entrypoint   | 0x00A8   |
| Data Size    | 46 bytes |
| Instructions | 4        |

```
      00 01 02 03 04 05 06 07  08 09 0A 0B 0C 0D 0E 0F
      -- -- -- -- -- -- -- --  -- -- -- -- -- -- -- --
00A0:                          5B 04 80 1C 12 02 01 1C          [.......
00B0: 12 02 01 6B 65 69 30 5B  05 80 1B 12 02 01 1B 12  ...kei0[........
00C0: 02 01 61 74 6C 30 5B 02  80 1A 12 02 01 1A 12 02  ..atl0[.........
00D0: 01 61 74 6C 30 00                                 .atl0.          
```

#### Opcodes

```
  0: 0x00A8 [0x5B] LOAD_EXT_SCHEDULER: Load scheduler "kei0" with entities [Louverance (ID: 16912924/0x0102121C), Louverance (ID: 16912924/0x0102121C)], work=418*
  1: 0x00B7 [0x5B] LOAD_EXT_SCHEDULER: Load scheduler "atl0" with entities [Shikaree Z (ID: 16912923/0x0102121B), Shikaree Z (ID: 16912923/0x0102121B)], work=665*
  2: 0x00C6 [0x5B] LOAD_EXT_SCHEDULER: Load scheduler "atl0" with entities [Jabbos (ID: 16912922/0x0102121A), Jabbos (ID: 16912922/0x0102121A)], work=493*
  3: 0x00D5 [0x00] END_REQSTACK()
```

### Event 65535.6

#### Metadata

| Field        | Value    |
|--------------|----------|
| Entrypoint   | 0x00D6   |
| Data Size    | 46 bytes |
| Instructions | 6        |

```
      00 01 02 03 04 05 06 07  08 09 0A 0B 0C 0D 0E 0F
      -- -- -- -- -- -- -- --  -- -- -- -- -- -- -- --
00D0:                   4A 1C  12 02 01 1D 12 02 01 4A        J........J
00E0: 18 12 02 01 1D 12 02 01  4A 1B 12 02 01 1D 12 02  ........J.......
00F0: 01 4A 1A 12 02 01 1D 12  02 01 4A 19 12 02 01 1D  .J........J.....
0100: 12 02 01 00                                       ....            
```

#### Opcodes

```
  0: 0x00D6 [0x4A] Louverance (ID: 16912924/0x0102121C) looks at Nag'molada (ID: 16912925/0x0102121D)
  1: 0x00DF [0x4A] Ulmia (ID: 16912920/0x01021218) looks at Nag'molada (ID: 16912925/0x0102121D)
  2: 0x00E8 [0x4A] Shikaree Z (ID: 16912923/0x0102121B) looks at Nag'molada (ID: 16912925/0x0102121D)
  3: 0x00F1 [0x4A] Jabbos (ID: 16912922/0x0102121A) looks at Nag'molada (ID: 16912925/0x0102121D)
  4: 0x00FA [0x4A] Tenzen (ID: 16912921/0x01021219) looks at Nag'molada (ID: 16912925/0x0102121D)
  5: 0x0103 [0x00] END_REQSTACK()
```
