# 16912929

## Common Data

| Field            | Value             |
|------------------|-------------------|
| Zone             | Al'Taieu (ID: 33) |
| Block Size       | 16552 bytes       |
| Total Events     | 8                 |
| References Count | 210               |

## List of Events

| Event ID              | Entrypoint   |   Size |   Instructions |
|-----------------------|--------------|--------|----------------|
| [65535](#event-65535) | 0x0000       |      1 |              1 |
| [65534](#event-65534) | 0x0001       |      1 |              1 |
| [1](#event-1)         | 0x0002       |   6040 |            658 |
| [2](#event-2)         | 0x179A       |   1403 |            163 |
| [165](#event-165)     | 0x1D15       |    533 |             66 |
| [166](#event-166)     | 0x1F2A       |    527 |             65 |
| [167](#event-167)     | 0x2139       |   4592 |            584 |
| [7](#event-7)         | 0x3329       |   2564 |            315 |

## DAT References (imed_data)

|   Index | Hex Value   |   Dec Value |
|---------|-------------|-------------|
|       0 | 0x0013      |          19 |
|       1 | 0x021D      |         541 |
|       2 | 0x000C      |          12 |
|       3 | 0x000A      |          10 |
|       4 | 0x001E      |          30 |
|       5 | 0x0000      |           0 |
|       6 | 0x027B      |         635 |
|       7 | 0x0291      |         657 |
|       8 | 0x029B      |         667 |
|       9 | 0x00B1      |         177 |
|      10 | 0x1CA6      |        7334 |
|      11 | 0x00B4      |         180 |
|      12 | 0x005A      |          90 |
|      13 | 0x0078      |         120 |
|      14 | 0x1CA7      |        7335 |
|      15 | 0x1CA8      |        7336 |
|      16 | 0x002D      |          45 |
|      17 | 0x003C      |          60 |
|      18 | 0x1CA9      |        7337 |
|      19 | 0x1CAA      |        7338 |
|      20 | 0x012C      |         300 |
|      21 | 0x1CAB      |        7339 |
|      22 | 0x003D      |          61 |
|      23 | 0x000F      |          15 |
|      24 | 0x00F4      |         244 |
|      25 | 0x1CAC      |        7340 |
|      26 | 0x0096      |         150 |
|      27 | 0x1CAD      |        7341 |
|      28 | 0x01CE      |         462 |
|      29 | 0x1CAE      |        7342 |
|      30 | 0x1CAF      |        7343 |
|      31 | 0x1CB0      |        7344 |
|      32 | 0x01DB      |         475 |
|      33 | 0x1CB1      |        7345 |
|      34 | 0x1CB2      |        7346 |
|      35 | 0x1CB3      |        7347 |
|      36 | 0x02B1      |         689 |
|      37 | 0x1CB4      |        7348 |
|      38 | 0x1CB5      |        7349 |
|      39 | 0x00ED      |         237 |
|      40 | 0x1CB6      |        7350 |
|      41 | 0x1CB7      |        7351 |
|      42 | 0x1CB8      |        7352 |
|      43 | 0x01CF      |         463 |
|      44 | 0x1CB9      |        7353 |
|      45 | 0x1CBA      |        7354 |
|      46 | 0x1CBB      |        7355 |
|      47 | 0x0001      |           1 |
|      48 | 0x0002      |           2 |
|      49 | 0x0003      |           3 |
|      50 | 0x0004      |           4 |
|      51 | 0x0005      |           5 |
|      52 | 0x0006      |           6 |
|      53 | 0x0007      |           7 |
|      54 | 0x0008      |           8 |
|      55 | 0x1CBC      |        7356 |
|      56 | 0x1CBD      |        7357 |
|      57 | 0x01A9      |         425 |
|      58 | 0x1CBE      |        7358 |
|      59 | 0x1CBF      |        7359 |
|      60 | 0x01A3      |         419 |
|      61 | 0x01A4      |         420 |
|      62 | 0x1CC1      |        7361 |
|      63 | 0x1CC2      |        7362 |
|      64 | 0x1CC3      |        7363 |
|      65 | 0x1D5B      |        7515 |
|      66 | 0x1CC4      |        7364 |
|      67 | 0x0080      |         128 |
|      68 | 0x02AE      |         686 |
|      69 | 0x1CC5      |        7365 |
|      70 | 0x03E7      |         999 |
|      71 | 0x0099      |         153 |
|      72 | 0x1CC6      |        7366 |
|      73 | 0x0282      |         642 |
|      74 | 0x1CC7      |        7367 |
|      75 | 0x1CC8      |        7368 |
|      76 | 0x1CC9      |        7369 |
|      77 | 0x02AF      |         687 |
|      78 | 0x1CCA      |        7370 |
|      79 | 0x1CCB      |        7371 |
|      80 | 0x1CCC      |        7372 |
|      81 | 0x1CCD      |        7373 |
|      82 | 0x1CCE      |        7374 |
|      83 | 0x01E0      |         480 |
|      84 | 0x004B      |          75 |
|      85 | 0x00D3      |         211 |
|      86 | 0x0082      |         130 |
|      87 | 0x0286      |         646 |
|      88 | 0x02B0      |         688 |
|      89 | 0x00C9      |         201 |
|      90 | 0x01A8      |         424 |
|      91 | 0x00E0      |         224 |
|      92 | 0x1CCF      |        7375 |
|      93 | 0x1CD0      |        7376 |
|      94 | 0x1CD1      |        7377 |
|      95 | 0x010E      |         270 |
|      96 | 0x1CD2      |        7378 |
|      97 | 0x1CD3      |        7379 |
|      98 | 0x1CD4      |        7380 |
|      99 | 0x1CD5      |        7381 |
|     100 | 0x0079      |         121 |
|     101 | 0x0077      |         119 |
|     102 | 0x00D2      |         210 |
|     103 | 0x1CD6      |        7382 |
|     104 | 0x007A      |         122 |
|     105 | 0x02B2      |         690 |
|     106 | 0x0064      |         100 |
|     107 | 0x0063      |          99 |
|     108 | 0x0021      |          33 |
|     109 | 0x00E9      |         233 |
|     110 | 0x0065      |         101 |
|     111 | 0x00DB      |         219 |
|     112 | 0x00C8      |         200 |
|     113 | 0x1D02      |        7426 |
|     114 | 0x0284      |         644 |
|     115 | 0x1D03      |        7427 |
|     116 | 0x1D04      |        7428 |
|     117 | 0x1D05      |        7429 |
|     118 | 0x1D06      |        7430 |
|     119 | 0x1D07      |        7431 |
|     120 | 0x1D08      |        7432 |
|     121 | 0x0285      |         645 |
|     122 | 0x1D09      |        7433 |
|     123 | 0x1D0A      |        7434 |
|     124 | 0x1D0B      |        7435 |
|     125 | 0x1D0C      |        7436 |
|     126 | 0x0035      |          53 |
|     127 | 0x004F      |          79 |
|     128 | 0x0047      |          71 |
|     129 | 0x0190      |         400 |
|     130 | 0x009D      |         157 |
|     131 | 0x0060      |          96 |
|     132 | 0x02EF      |         751 |
|     133 | 0x001D      |          29 |
|     134 | 0x01E2      |         482 |
|     135 | 0x01E1      |         481 |
|     136 | 0x1D5F      |        7519 |
|     137 | 0x1D60      |        7520 |
|     138 | 0x1D61      |        7521 |
|     139 | 0x1D62      |        7522 |
|     140 | 0x01BA      |         442 |
|     141 | 0x1D63      |        7523 |
|     142 | 0x00F0      |         240 |
|     143 | 0x02B4      |         692 |
|     144 | 0x007F      |         127 |
|     145 | 0x1D64      |        7524 |
|     146 | 0x1D65      |        7525 |
|     147 | 0x1D66      |        7526 |
|     148 | 0x1D67      |        7527 |
|     149 | 0x02F6      |         758 |
|     150 | 0x1D68      |        7528 |
|     151 | 0x0090      |         144 |
|     152 | 0x1D69      |        7529 |
|     153 | 0x0091      |         145 |
|     154 | 0x0023      |          35 |
|     155 | 0x0092      |         146 |
|     156 | 0x008F      |         143 |
|     157 | 0x02D5      |         725 |
|     158 | 0x1D6A      |        7530 |
|     159 | 0x01B0      |         432 |
|     160 | 0x1D6B      |        7531 |
|     161 | 0x0270      |         624 |
|     162 | 0x1D6C      |        7532 |
|     163 | 0x01B1      |         433 |
|     164 | 0x1D6D      |        7533 |
|     165 | 0x1D6E      |        7534 |
|     166 | 0x01B9      |         441 |
|     167 | 0x1D6F      |        7535 |
|     168 | 0x0150      |         336 |
|     169 | 0x1D70      |        7536 |
|     170 | 0x1D71      |        7537 |
|     171 | 0x1D72      |        7538 |
|     172 | 0x1D73      |        7539 |
|     173 | 0x0040      |          64 |
|     174 | 0x1D74      |        7540 |
|     175 | 0x1D75      |        7541 |
|     176 | 0x00D7      |         215 |
|     177 | 0x00AE      |         174 |
|     178 | 0x01F4      |         500 |
|     179 | 0x1CED      |        7405 |
|     180 | 0x1CEE      |        7406 |
|     181 | 0x1CEF      |        7407 |
|     182 | 0xFFF95288  |  4294529672 |
|     183 | 0x61AA3     |      400035 |
|     184 | 0xFFFFB565  |  4294948197 |
|     185 | 0xFFFFF856  |  4294965334 |
|     186 | 0x1CF0      |        7408 |
|     187 | 0x1CF1      |        7409 |
|     188 | 0x1CF2      |        7410 |
|     189 | 0x021C      |         540 |
|     190 | 0x1CF3      |        7411 |
|     191 | 0x1CF4      |        7412 |
|     192 | 0x1CF5      |        7413 |
|     193 | 0x1CF6      |        7414 |
|     194 | 0x1CF7      |        7415 |
|     195 | 0x0400      |        1024 |
|     196 | 0x1CF8      |        7416 |
|     197 | 0x1CF9      |        7417 |
|     198 | 0x1CFA      |        7418 |
|     199 | 0x0220      |         544 |
|     200 | 0x0074      |         116 |
|     201 | 0x006E      |         110 |
|     202 | 0x00A0      |         160 |
|     203 | 0x1CFB      |        7419 |
|     204 | 0x1CFC      |        7420 |
|     205 | 0x1CFD      |        7421 |
|     206 | 0x1CFE      |        7422 |
|     207 | 0x1CFF      |        7423 |
|     208 | 0x1D00      |        7424 |
|     209 | 0x1D01      |        7425 |

## String References

- **7364**: (Your death is the only way to save both Vana'diel and her people...)
- **7515**: 

## Events

### Event 65535

#### Metadata

| Field        | Value   |
|--------------|---------|
| Entrypoint   | 0x0000  |
| Data Size    | 1 bytes |
| Instructions | 1       |

```
      00 01 02 03 04 05 06 07  08 09 0A 0B 0C 0D 0E 0F
      -- -- -- -- -- -- -- --  -- -- -- -- -- -- -- --
0000: 00                                                .               
```

#### Opcodes

```
  0: 0x0000 [0x00] END_REQSTACK()
```

### Event 65534

#### Metadata

| Field        | Value   |
|--------------|---------|
| Entrypoint   | 0x0001  |
| Data Size    | 1 bytes |
| Instructions | 1       |

```
      00 01 02 03 04 05 06 07  08 09 0A 0B 0C 0D 0E 0F
      -- -- -- -- -- -- -- --  -- -- -- -- -- -- -- --
0000:    00                                              .              
```

#### Opcodes

```
  0: 0x0001 [0x00] END_REQSTACK()
```

### Event 1

#### Metadata

| Field        | Value      |
|--------------|------------|
| Entrypoint   | 0x0002     |
| Data Size    | 6040 bytes |
| Instructions | 658        |

```
      00 01 02 03 04 05 06 07  08 09 0A 0B 0C 0D 0E 0F
      -- -- -- -- -- -- -- --  -- -- -- -- -- -- -- --
0000:       42 1A FB 30 46 01  38 00 80 03 02 00 02 10    B..0F.8.......
0010: 34 01 80 77 02 80 03 80  1C 04 80 AB 09 79 00 F0  4..w.........y..
0020: FF FF 7F F0 FF FF 7F 4E  00 F0 FF FF 7F 27 10 16  .......N.....'..
0030: 12 02 01 04 27 10 18 12  02 01 04 27 10 1B 12 02  ....'......'....
0040: 01 04 27 10 1A 12 02 01  04 27 10 1C 12 02 01 04  ..'......'......
0050: 27 10 19 12 02 01 02 27  10 1E 12 02 01 02 27 10  '......'......'.
0060: 1F 12 02 01 02 27 10 20  12 02 01 02 27 10 17 12  .....'. ....'...
0070: 02 01 02 27 10 1D 12 02  01 02 27 10 23 12 02 01  ...'......'.#...
0080: 02 92 01 16 12 02 01 92  01 18 12 02 01 92 01 1B  ................
0090: 12 02 01 92 01 1A 12 02  01 92 01 1C 12 02 01 92  ................
00A0: 01 19 12 02 01 92 01 1E  12 02 01 92 01 1F 12 02  ................
00B0: 01 92 01 20 12 02 01 92  01 17 12 02 01 92 01 1D  ... ............
00C0: 12 02 01 94 01 F0 FF FF  7F 94 01 16 12 02 01 94  ................
00D0: 01 18 12 02 01 94 01 1B  12 02 01 94 01 1A 12 02  ................
00E0: 01 94 01 1C 12 02 01 94  01 19 12 02 01 94 01 1E  ................
00F0: 12 02 01 94 01 1F 12 02  01 94 01 20 12 02 01 94  ........... ....
0100: 01 17 12 02 01 94 01 1D  12 02 01 94 01 23 12 02  .............#..
0110: 01 29 10 16 12 02 01 09  29 10 18 12 02 01 09 29  .)......)......)
0120: 10 1B 12 02 01 09 29 10  1A 12 02 01 09 29 10 1C  ......)......)..
0130: 12 02 01 09 29 10 19 12  02 01 09 29 10 1E 12 02  ....)......)....
0140: 01 09 29 10 1F 12 02 01  09 29 10 20 12 02 01 09  ..)......). ....
0150: 29 10 17 12 02 01 09 29  10 1D 12 02 01 0A 29 10  )......)......).
0160: F0 FF FF 7F 12 80 18 12  02 01 80 1B 12 02 01 80  ................
0170: 1C 12 02 01 80 F0 FF FF  7F 1C 04 80 5C 00 05 80  ............\...
0180: 5C 01 05 80 9A 2D F8 FF  FF 7F F8 FF FF 7F 6B 69  \....-........ki
0190: 6C 36 2D F8 FF FF 7F F8  FF FF 7F 73 63 69 31 2D  l6-........sci1-
01A0: F8 FF FF 7F F8 FF FF 7F  73 63 69 32 2D F8 FF FF  ........sci2-...
01B0: 7F F8 FF FF 7F 73 63 69  33 2D F8 FF FF 7F F8 FF  .....sci3-......
01C0: FF 7F 73 63 69 34 5B 06  80 18 12 02 01 18 12 02  ..sci4[.........
01D0: 01 63 79 6C 31 5B 07 80  1C 12 02 01 1C 12 02 01  .cyl1[..........
01E0: 63 79 30 31 5B 08 80 1B  12 02 01 1B 12 02 01 63  cy01[..........c
01F0: 79 30 31 7B F0 FF FF 7F  45 09 80 F0 FF FF 7F F0  y01{....E.......
0200: FF FF 7F 63 35 30 31 05  80 1A DA 30 55 09 80 F0  ...c501....0U...
0210: FF FF 7F F0 FF FF 7F 63  35 30 31 2B 1C 12 02 01  .......c501+....
0220: 0A 80 23 5B 07 80 1C 12  02 01 1C 12 02 01 63 79  ..#[..........cy
0230: 30 32 45 09 80 F0 FF FF  7F F0 FF FF 7F 30 31 73  02E..........01s
0240: 65 05 80 1C 0B 80 45 09  80 F0 FF FF 7F F0 FF FF  e.....E.........
0250: 7F 63 35 30 32 05 80 5B  08 80 1B 12 02 01 1B 12  .c502..[........
0260: 02 01 63 79 30 32 1C 0C  80 79 00 1C 12 02 01 1B  ..cy02...y......
0270: 12 02 01 45 09 80 F0 FF  FF 7F F0 FF FF 7F 30 32  ...E..........02
0280: 73 65 05 80 1C 0D 80 7B  1C 12 02 01 2B 1B 12 02  se.....{....+...
0290: 01 0E 80 23 27 10 1A 12  02 01 0A 52 09 80 F0 FF  ...#'......R....
02A0: FF 7F F0 FF FF 7F 63 35  30 32 45 09 80 F0 FF FF  ......c502E.....
02B0: 7F F0 FF FF 7F 63 35 30  34 05 80 2A 10 1A 12 02  .....c504..*....
02C0: 01 55 09 80 F0 FF FF 7F  F0 FF FF 7F 63 35 30 34  .U..........c504
02D0: 45 09 80 F0 FF FF 7F F0  FF FF 7F 63 35 30 35 05  E..........c505.
02E0: 80 2B 1A 12 02 01 0F 80  23 52 09 80 F0 FF FF 7F  .+......#R......
02F0: F0 FF FF 7F 63 35 30 35  45 09 80 F0 FF FF 7F F0  ....c505E.......
0300: FF FF 7F 63 35 30 36 05  80 1C 10 80 5B 06 80 18  ...c506.....[...
0310: 12 02 01 18 12 02 01 63  79 30 31 1C 11 80 2B 18  .......cy01...+.
0320: 12 02 01 12 80 23 52 09  80 F0 FF FF 7F F0 FF FF  .....#R.........
0330: 7F 63 35 30 36 45 09 80  F0 FF FF 7F F0 FF FF 7F  .c506E..........
0340: 63 35 30 37 05 80 5B 06  80 18 12 02 01 18 12 02  c507..[.........
0350: 01 63 79 30 32 1C 04 80  2B 18 12 02 01 13 80 23  .cy02...+......#
0360: 52 09 80 F0 FF FF 7F F0  FF FF 7F 63 35 30 37 45  R..........c507E
0370: 09 80 F0 FF FF 7F F0 FF  FF 7F 63 35 30 38 05 80  ..........c508..
0380: 1C 14 80 2B 14 12 02 01  15 80 23 45 09 80 F0 FF  ...+......#E....
0390: FF 7F F0 FF FF 7F 35 73  30 35 05 80 2D F8 FF FF  ......5s05..-...
03A0: 7F F8 FF FF 7F 6C 6F 70  36 27 10 14 12 02 01 03  .....lop6'......
03B0: 1A 4E 32 1C 04 80 52 09  80 F0 FF FF 7F F0 FF FF  .N2...R.........
03C0: 7F 63 35 30 38 45 09 80  F0 FF FF 7F F0 FF FF 7F  .c508E..........
03D0: 63 35 30 39 05 80 1A 2D  32 9F 16 80 F0 FF FF 7F  c509...-2.......
03E0: F0 FF FF 7F 73 74 72 30  05 80 55 09 80 F0 FF FF  ....str0..U.....
03F0: 7F F0 FF FF 7F 63 35 30  39 5B 06 80 18 12 02 01  .....c509[......
0400: 18 12 02 01 63 79 30 33  45 09 80 F0 FF FF 7F F0  ....cy03E.......
0410: FF FF 7F 63 35 31 30 05  80 1C 0D 80 1A 4E 32 1C  ...c510......N2.
0420: 17 80 52 09 80 F0 FF FF  7F F0 FF FF 7F 63 35 31  ..R..........c51
0430: 30 45 09 80 F0 FF FF 7F  F0 FF FF 7F 63 35 31 31  0E..........c511
0440: 05 80 1A 2D 32 5B 08 80  1B 12 02 01 1B 12 02 01  ...-2[..........
0450: 63 79 30 34 5C 00 18 80  5C 01 18 80 9A 55 09 80  cy04\...\....U..
0460: F0 FF FF 7F F0 FF FF 7F  63 35 31 31 45 09 80 F0  ........c511E...
0470: FF FF 7F F0 FF FF 7F 63  35 31 32 05 80 9F 16 80  .......c512.....
0480: F0 FF FF 7F F0 FF FF 7F  6B 69 6C 6C 05 80 7C 00  ........kill..|.
0490: 17 12 02 01 27 10 15 12  02 01 02 27 10 17 12 02  ....'......'....
04A0: 01 0A 27 10 13 12 02 01  02 1C 11 80 2B 17 12 02  ..'.........+...
04B0: 01 19 80 1C 1A 80 55 09  80 F0 FF FF 7F F0 FF FF  ......U.........
04C0: 7F 63 35 31 32 45 09 80  F0 FF FF 7F F0 FF FF 7F  .c512E..........
04D0: 63 35 31 33 05 80 2B 17  12 02 01 1B 80 55 09 80  c513..+......U..
04E0: F0 FF FF 7F F0 FF FF 7F  63 35 31 33 45 09 80 F0  ........c513E...
04F0: FF FF 7F F0 FF FF 7F 63  35 31 34 05 80 2A 10 17  .......c514..*..
0500: 12 02 01 27 10 14 12 02  01 02 55 09 80 F0 FF FF  ...'......U.....
0510: 7F F0 FF FF 7F 63 35 31  34 1C 11 80 81 00 17 12  .....c514.......
0520: 02 01 45 09 80 F0 FF FF  7F F0 FF FF 7F 63 35 31  ..E..........c51
0530: 35 05 80 5B 1C 80 17 12  02 01 17 12 02 01 63 35  5..[..........c5
0540: 30 32 2B 17 12 02 01 1D  80 23 52 09 80 F0 FF FF  02+......#R.....
0550: 7F F0 FF FF 7F 63 35 31  35 45 09 80 F0 FF FF 7F  .....c515E......
0560: F0 FF FF 7F 63 35 31 36  05 80 5B 1C 80 17 12 02  ....c516..[.....
0570: 01 17 12 02 01 63 35 30  33 2B 17 12 02 01 1E 80  .....c503+......
0580: 23 52 09 80 F0 FF FF 7F  F0 FF FF 7F 63 35 31 36  #R..........c516
0590: 45 09 80 F0 FF FF 7F F0  FF FF 7F 63 35 31 37 05  E..........c517.
05A0: 80 2B 17 12 02 01 1F 80  23 52 09 80 F0 FF FF 7F  .+......#R......
05B0: F0 FF FF 7F 63 35 31 37  45 09 80 F0 FF FF 7F F0  ....c517E.......
05C0: FF FF 7F 63 35 31 38 05  80 5B 20 80 16 12 02 01  ...c518..[ .....
05D0: 16 12 02 01 74 6C 62 30  2B 16 12 02 01 21 80 23  ....tlb0+....!.#
05E0: 1C 04 80 5B 20 80 16 12  02 01 16 12 02 01 74 6C  ...[ .........tl
05F0: 62 31 52 09 80 F0 FF FF  7F F0 FF FF 7F 63 35 31  b1R..........c51
0600: 38 45 09 80 F0 FF FF 7F  F0 FF FF 7F 63 35 31 39  8E..........c519
0610: 05 80 1C 11 80 2B 1C 12  02 01 22 80 23 52 09 80  .....+....".#R..
0620: F0 FF FF 7F F0 FF FF 7F  63 35 31 39 45 09 80 F0  ........c519E...
0630: FF FF 7F F0 FF FF 7F 63  35 32 30 05 80 2B 1B 12  .......c520..+..
0640: 02 01 23 80 23 52 09 80  F0 FF FF 7F F0 FF FF 7F  ..#.#R..........
0650: 63 35 32 30 45 09 80 F0  FF FF 7F F0 FF FF 7F 63  c520E..........c
0660: 35 32 31 05 80 5B 24 80  16 12 02 01 16 12 02 01  521..[$.........
0670: 63 35 31 33 1C 04 80 2B  16 12 02 01 25 80 23 52  c513...+....%.#R
0680: 09 80 F0 FF FF 7F F0 FF  FF 7F 63 35 32 31 45 09  ..........c521E.
0690: 80 F0 FF FF 7F F0 FF FF  7F 63 35 32 32 05 80 5D  .........c522..]
06A0: 05 80 0D 80 1C 10 80 2B  1A 12 02 01 26 80 23 5C  .......+....&.#\
06B0: 00 27 80 5C 01 27 80 9A  52 09 80 F0 FF FF 7F F0  .'.\.'..R.......
06C0: FF FF 7F 63 35 32 32 45  09 80 F0 FF FF 7F F0 FF  ...c522E........
06D0: FF 7F 63 35 32 33 05 80  27 10 18 12 02 01 0A 27  ..c523..'......'
06E0: 10 19 12 02 01 0A 55 09  80 F0 FF FF 7F F0 FF FF  ......U.........
06F0: 7F 63 35 32 33 45 09 80  F0 FF FF 7F F0 FF FF 7F  .c523E..........
0700: 63 35 32 34 05 80 27 10  14 12 02 01 05 27 10 13  c524..'......'..
0710: 12 02 01 03 6B 69 64 6C  30 16 12 02 01 2B 19 12  ....kidl0....+..
0720: 02 01 28 80 23 55 09 80  F0 FF FF 7F F0 FF FF 7F  ..(.#U..........
0730: 63 35 32 34 45 09 80 F0  FF FF 7F F0 FF FF 7F 63  c524E..........c
0740: 35 32 35 05 80 79 00 19  12 02 01 17 12 02 01 79  525..y.........y
0750: 00 F0 FF FF 7F 19 12 02  01 2B 19 12 02 01 29 80  .........+....).
0760: 23 27 10 19 12 02 01 0B  52 09 80 F0 FF FF 7F F0  #'......R.......
0770: FF FF 7F 63 35 32 35 45  09 80 F0 FF FF 7F F0 FF  ...c525E........
0780: FF 7F 63 35 32 36 05 80  1C 04 80 5B 1C 80 17 12  ..c526.....[....
0790: 02 01 17 12 02 01 63 35  30 34 2B 19 12 02 01 2A  ......c504+....*
07A0: 80 23 2A 10 19 12 02 01  53 17 12 02 01 17 12 02  .#*.....S.......
07B0: 01 63 35 30 34 5B 2B 80  17 12 02 01 17 12 02 01  .c504[+.........
07C0: 63 35 31 38 52 09 80 F0  FF FF 7F F0 FF FF 7F 63  c518R..........c
07D0: 35 32 36 45 09 80 F0 FF  FF 7F F0 FF FF 7F 63 35  526E..........c5
07E0: 32 37 05 80 1C 11 80 2B  19 12 02 01 2C 80 23 52  27.....+....,.#R
07F0: 09 80 F0 FF FF 7F F0 FF  FF 7F 63 35 32 37 45 09  ..........c527E.
0800: 80 F0 FF FF 7F F0 FF FF  7F 63 35 32 38 05 80 5B  .........c528..[
0810: 2B 80 17 12 02 01 17 12  02 01 63 35 6E 36 1C 10  +.........c5n6..
0820: 80 79 00 F0 FF FF 7F 17  12 02 01 2B 17 12 02 01  .y.........+....
0830: 2D 80 23 52 09 80 F0 FF  FF 7F F0 FF FF 7F 63 35  -.#R..........c5
0840: 32 38 45 09 80 F0 FF FF  7F F0 FF FF 7F 63 35 32  28E..........c52
0850: 39 05 80 5B 2B 80 17 12  02 01 17 12 02 01 63 35  9..[+.........c5
0860: 6E 37 1C 11 80 2B 17 12  02 01 2E 80 23 5B 24 80  n7...+......#[$.
0870: 16 12 02 01 16 12 02 01  63 35 31 35 29 10 F0 FF  ........c515)...
0880: FF 7F 15 03 00 00 02 10  52 09 80 F0 FF FF 7F F0  ........R.......
0890: FF FF 7F 63 35 32 39 02  00 00 2F 80 80 C2 08 45  ...c529.../....E
08A0: 09 80 F0 FF FF 7F F0 FF  FF 7F 32 39 68 6D 05 80  ..........29hm..
08B0: 55 09 80 F0 FF FF 7F F0  FF FF 7F 32 39 68 6D 01  U..........29hm.
08C0: EF 09 02 00 00 30 80 80  ED 08 45 09 80 F0 FF FF  .....0....E.....
08D0: 7F F0 FF FF 7F 32 39 68  66 05 80 55 09 80 F0 FF  .....29hf..U....
08E0: FF 7F F0 FF FF 7F 32 39  68 66 01 EF 09 02 00 00  ......29hf......
08F0: 31 80 80 18 09 45 09 80  F0 FF FF 7F F0 FF FF 7F  1....E..........
0900: 32 39 65 6D 05 80 55 09  80 F0 FF FF 7F F0 FF FF  29em..U.........
0910: 7F 32 39 65 6D 01 EF 09  02 00 00 32 80 80 43 09  .29em......2..C.
0920: 45 09 80 F0 FF FF 7F F0  FF FF 7F 32 39 65 66 05  E..........29ef.
0930: 80 55 09 80 F0 FF FF 7F  F0 FF FF 7F 32 39 65 66  .U..........29ef
0940: 01 EF 09 02 00 00 33 80  80 6E 09 45 09 80 F0 FF  ......3..n.E....
0950: FF 7F F0 FF FF 7F 32 39  74 72 05 80 55 09 80 F0  ......29tr..U...
0960: FF FF 7F F0 FF FF 7F 32  39 74 72 01 EF 09 02 00  .......29tr.....
0970: 00 34 80 80 99 09 45 09  80 F0 FF FF 7F F0 FF FF  .4....E.........
0980: 7F 32 39 74 72 05 80 55  09 80 F0 FF FF 7F F0 FF  .29tr..U........
0990: FF 7F 32 39 74 72 01 EF  09 02 00 00 35 80 80 C4  ..29tr......5...
09A0: 09 45 09 80 F0 FF FF 7F  F0 FF FF 7F 32 39 6D 74  .E..........29mt
09B0: 05 80 55 09 80 F0 FF FF  7F F0 FF FF 7F 32 39 6D  ..U..........29m
09C0: 74 01 EF 09 02 00 00 36  80 80 EF 09 45 09 80 F0  t......6....E...
09D0: FF FF 7F F0 FF FF 7F 32  39 67 6C 05 80 55 09 80  .......29gl..U..
09E0: F0 FF FF 7F F0 FF FF 7F  32 39 67 6C 01 EF 09 1A  ........29gl....
09F0: 4E 32 1C 17 80 4A F0 FF  FF 7F 16 12 02 01 45 09  N2...J........E.
0A00: 80 F0 FF FF 7F F0 FF FF  7F 63 35 33 30 05 80 1A  .........c530...
0A10: 2D 32 55 09 80 F0 FF FF  7F F0 FF FF 7F 63 35 33  -2U..........c53
0A20: 30 2B 16 12 02 01 37 80  23 45 09 80 F0 FF FF 7F  0+....7.#E......
0A30: F0 FF FF 7F 63 35 33 32  05 80 2B 16 12 02 01 38  ....c532..+....8
0A40: 80 23 52 09 80 F0 FF FF  7F F0 FF FF 7F 63 35 33  .#R..........c53
0A50: 32 45 09 80 F0 FF FF 7F  F0 FF FF 7F 63 35 33 33  2E..........c533
0A60: 05 80 4A F0 FF FF 7F 17  12 02 01 4A 18 12 02 01  ..J........J....
0A70: F0 FF FF 7F 4A 1B 12 02  01 F0 FF FF 7F 4A 1A 12  ....J........J..
0A80: 02 01 F0 FF FF 7F 4A 1C  12 02 01 F0 FF FF 7F 79  ......J........y
0A90: 00 19 12 02 01 F0 FF FF  7F 5B 39 80 19 12 02 01  .........[9.....
0AA0: 19 12 02 01 74 6C 62 30  2B 19 12 02 01 3A 80 23  ....tlb0+....:.#
0AB0: 5B 39 80 19 12 02 01 19  12 02 01 74 6C 62 31 53  [9.........tlb1S
0AC0: 19 12 02 01 19 12 02 01  74 6C 62 31 52 09 80 F0  ........tlb1R...
0AD0: FF FF 7F F0 FF FF 7F 63  35 33 33 45 09 80 F0 FF  .......c533E....
0AE0: FF 7F F0 FF FF 7F 63 35  33 34 05 80 2B 19 12 02  ......c534..+...
0AF0: 01 3B 80 23 5B 3C 80 1C  12 02 01 1C 12 02 01 67  .;.#[<.........g
0B00: 62 30 30 5B 3D 80 18 12  02 01 18 12 02 01 62 69  b00[=.........bi
0B10: 6B 30 52 09 80 F0 FF FF  7F F0 FF FF 7F 63 35 33  k0R..........c53
0B20: 34 45 09 80 F0 FF FF 7F  F0 FF FF 7F 63 35 33 35  4E..........c535
0B30: 05 80 55 09 80 F0 FF FF  7F F0 FF FF 7F 63 35 33  ..U..........c53
0B40: 35 1A 4E 32 1C 17 80 27  10 13 12 02 01 05 45 09  5.N2...'......E.
0B50: 80 F0 FF FF 7F F0 FF FF  7F 63 35 33 36 05 80 1A  .........c536...
0B60: 2D 32 55 09 80 F0 FF FF  7F F0 FF FF 7F 63 35 33  -2U..........c53
0B70: 36 1A 4E 32 1C 17 80 45  09 80 F0 FF FF 7F F0 FF  6.N2...E........
0B80: FF 7F 63 35 33 37 05 80  1A 2D 32 55 09 80 F0 FF  ..c537...-2U....
0B90: FF 7F F0 FF FF 7F 63 35  33 37 1A 4E 32 1C 17 80  ......c537.N2...
0BA0: 27 10 13 12 02 01 07 6C  F0 FF FF 7F 05 80 2F 80  '......l....../.
0BB0: 29 10 17 12 02 01 0B 5B  1C 80 17 12 02 01 17 12  )......[........
0BC0: 02 01 63 35 30 37 45 09  80 F0 FF FF 7F F0 FF FF  ..c507E.........
0BD0: 7F 63 35 33 38 05 80 1A  2D 32 2B 17 12 02 01 3E  .c538...-2+....>
0BE0: 80 23 2B 17 12 02 01 3F  80 23 53 17 12 02 01 17  .#+....?.#S.....
0BF0: 12 02 01 63 35 30 37 27  10 17 12 02 01 11 5B 1C  ...c507'......[.
0C00: 80 17 12 02 01 17 12 02  01 63 35 30 39 45 09 80  .........c509E..
0C10: F0 FF FF 7F F0 FF FF 7F  30 33 73 65 05 80 1C 10  ........03se....
0C20: 80 2B 17 12 02 01 40 80  23 55 09 80 F0 FF FF 7F  .+....@.#U......
0C30: F0 FF FF 7F 63 35 33 38  27 10 13 12 02 01 09 45  ....c538'......E
0C40: 09 80 F0 FF FF 7F F0 FF  FF 7F 62 6C 6F 75 05 80  ..........blou..
0C50: 55 09 80 F0 FF FF 7F F0  FF FF 7F 62 6C 6F 75 1C  U..........blou.
0C60: 0B 80 48 41 80 23 48 42  80 23 48 41 80 23 27 10  ..HA.#HB.#HA.#'.
0C70: 22 12 02 01 02 4A 19 12  02 01 16 12 02 01 6C F0  "....J........l.
0C80: FF FF 7F 43 80 2F 80 29  10 F0 FF FF 7F 18 29 10  ...C./.)......).
0C90: 22 12 02 01 09 5B 2B 80  17 12 02 01 17 12 02 01  "....[+.........
0CA0: 63 35 31 30 29 10 16 12  02 01 0A 5B 44 80 16 12  c510)......[D...
0CB0: 02 01 16 12 02 01 63 35  30 31 53 16 12 02 01 16  ......c501S.....
0CC0: 12 02 01 63 35 30 31 2B  14 12 02 01 45 80 23 6A  ...c501+....E.#j
0CD0: 46 80 2F 80 17 80 45 09  80 F0 FF FF 7F F0 FF FF  F./...E.........
0CE0: 7F 63 35 34 30 05 80 1C  17 80 1A DA 30 55 09 80  .c540.......0U..
0CF0: F0 FF FF 7F F0 FF FF 7F  63 35 34 30 5C 00 47 80  ........c540\.G.
0D00: 5C 01 47 80 9A 45 09 80  F0 FF FF 7F F0 FF FF 7F  \.G..E..........
0D10: 63 35 34 31 05 80 55 09  80 F0 FF FF 7F F0 FF FF  c541..U.........
0D20: 7F 63 35 34 31 45 09 80  F0 FF FF 7F F0 FF FF 7F  .c541E..........
0D30: 63 35 34 32 05 80 5B 44  80 16 12 02 01 16 12 02  c542..[D........
0D40: 01 63 35 30 32 1C 04 80  2B 16 12 02 01 48 80 23  .c502...+....H.#
0D50: 52 09 80 F0 FF FF 7F F0  FF FF 7F 63 35 34 32 45  R..........c542E
0D60: 09 80 F0 FF FF 7F F0 FF  FF 7F 63 35 34 33 05 80  ..........c543..
0D70: 55 09 80 F0 FF FF 7F F0  FF FF 7F 63 35 34 33 7B  U..........c543{
0D80: 19 12 02 01 5B 49 80 19  12 02 01 19 12 02 01 63  ....[I.........c
0D90: 79 30 30 45 09 80 F0 FF  FF 7F F0 FF FF 7F 63 35  y00E..........c5
0DA0: 34 34 05 80 5B 44 80 16  12 02 01 16 12 02 01 63  44..[D.........c
0DB0: 35 30 33 2B 16 12 02 01  4A 80 23 52 09 80 F0 FF  503+....J.#R....
0DC0: FF 7F F0 FF FF 7F 63 35  34 34 45 09 80 F0 FF FF  ......c544E.....
0DD0: 7F F0 FF FF 7F 63 35 34  35 05 80 2B 16 12 02 01  .....c545..+....
0DE0: 4B 80 23 52 09 80 F0 FF  FF 7F F0 FF FF 7F 63 35  K.#R..........c5
0DF0: 34 35 45 09 80 F0 FF FF  7F F0 FF FF 7F 63 35 34  45E..........c54
0E00: 36 05 80 5B 49 80 19 12  02 01 19 12 02 01 63 79  6..[I.........cy
0E10: 30 31 55 09 80 F0 FF FF  7F F0 FF FF 7F 63 35 34  01U..........c54
0E20: 36 6C 17 12 02 01 05 80  2F 80 45 09 80 F0 FF FF  6l....../.E.....
0E30: 7F F0 FF FF 7F 63 35 34  37 05 80 27 10 13 12 02  .....c547..'....
0E40: 01 08 27 10 17 12 02 01  0C 81 00 16 12 02 01 45  ..'............E
0E50: 09 80 F0 FF FF 7F F0 FF  FF 7F 30 34 73 65 05 80  ..........04se..
0E60: 5B 44 80 16 12 02 01 16  12 02 01 63 35 30 34 2B  [D.........c504+
0E70: 16 12 02 01 4C 80 23 53  16 12 02 01 16 12 02 01  ....L.#S........
0E80: 63 35 30 34 55 09 80 F0  FF FF 7F F0 FF FF 7F 63  c504U..........c
0E90: 35 34 38 5B 4D 80 16 12  02 01 16 12 02 01 63 35  548[M.........c5
0EA0: 30 35 1C 04 80 45 09 80  F0 FF FF 7F F0 FF FF 7F  05...E..........
0EB0: 63 35 34 39 05 80 2B 16  12 02 01 4E 80 23 52 09  c549..+....N.#R.
0EC0: 80 F0 FF FF 7F F0 FF FF  7F 63 35 34 39 45 09 80  .........c549E..
0ED0: F0 FF FF 7F F0 FF FF 7F  63 35 35 30 05 80 2B 16  ........c550..+.
0EE0: 12 02 01 4F 80 23 2B 16  12 02 01 50 80 23 5B 4D  ...O.#+....P.#[M
0EF0: 80 16 12 02 01 16 12 02  01 63 35 30 36 52 09 80  .........c506R..
0F00: F0 FF FF 7F F0 FF FF 7F  63 35 35 30 45 09 80 F0  ........c550E...
0F10: FF FF 7F F0 FF FF 7F 63  35 35 32 05 80 2B 16 12  .......c552..+..
0F20: 02 01 51 80 23 5B 4D 80  16 12 02 01 16 12 02 01  ..Q.#[M.........
0F30: 63 35 30 37 45 09 80 F0  FF FF 7F F0 FF FF 7F 30  c507E..........0
0F40: 35 73 65 05 80 2B 16 12  02 01 52 80 23 27 10 14  5se..+....R.#'..
0F50: 12 02 01 07 52 09 80 F0  FF FF 7F F0 FF FF 7F 63  ....R..........c
0F60: 35 35 32 45 09 80 F0 FF  FF 7F F0 FF FF 7F 63 35  552E..........c5
0F70: 35 33 05 80 55 09 80 F0  FF FF 7F F0 FF FF 7F 63  53..U..........c
0F80: 35 35 33 45 09 80 F0 FF  FF 7F F0 FF FF 7F 63 35  553E..........c5
0F90: 35 34 05 80 1C 53 80 5B  2B 80 17 12 02 01 17 12  54...S.[+.......
0FA0: 02 01 63 35 31 32 45 09  80 F0 FF FF 7F F0 FF FF  ..c512E.........
0FB0: 7F 30 36 73 65 05 80 1C  1A 80 45 09 80 F0 FF FF  .06se.....E.....
0FC0: 7F F0 FF FF 7F 35 73 30  35 05 80 2D F8 FF FF 7F  .....5s05..-....
0FD0: F8 FF FF 7F 6C 6F 70 36  1C 54 80 1A 4E 32 1C 17  ....lop6.T..N2..
0FE0: 80 52 09 80 F0 FF FF 7F  F0 FF FF 7F 63 35 35 34  .R..........c554
0FF0: 9F 16 80 F0 FF FF 7F F0  FF FF 7F 73 74 72 30 05  ...........str0.
1000: 80 45 09 80 F0 FF FF 7F  F0 FF FF 7F 63 35 35 35  .E..........c555
1010: 05 80 1A 2D 32 55 09 80  F0 FF FF 7F F0 FF FF 7F  ...-2U..........
1020: 63 35 35 35 1A 4E 32 1C  17 80 5B 4D 80 16 12 02  c555.N2...[M....
1030: 01 16 12 02 01 63 35 30  38 45 09 80 F0 FF FF 7F  .....c508E......
1040: F0 FF FF 7F 7A 30 30 34  05 80 1A 2D 32 5D 05 80  ....z004...-2]..
1050: 0D 80 73 55 80 22 12 02  01 22 12 02 01 1C 04 80  ..sU."..."......
1060: 52 09 80 F0 FF FF 7F F0  FF FF 7F 7A 30 30 34 45  R..........z004E
1070: 09 80 F0 FF FF 7F F0 FF  FF 7F 63 35 35 36 05 80  ..........c556..
1080: 1C 56 80 1A 3D 31 1C 04  80 6B 69 64 6C 30 19 12  .V..=1...kidl0..
1090: 02 01 6B 69 64 6C 30 17  12 02 01 27 10 14 12 02  ..kidl0....'....
10A0: 01 06 27 10 16 12 02 01  0B 27 10 17 12 02 01 0D  ..'......'......
10B0: 29 10 F0 FF FF 7F 17 7B  F0 FF FF 7F 27 10 1D 12  )......{....'...
10C0: 02 01 13 6C 1D 12 02 01  43 80 2F 80 5B 57 80 1D  ...l....C./.[W..
10D0: 12 02 01 1D 12 02 01 63  35 30 31 5B 58 80 16 12  .......c501[X...
10E0: 02 01 16 12 02 01 63 35  30 39 1C 17 80 55 09 80  ......c509...U..
10F0: F0 FF FF 7F F0 FF FF 7F  63 35 35 36 45 09 80 F0  ........c556E...
1100: FF FF 7F F0 FF FF 7F 7A  30 30 31 05 80 5B 58 80  .......z001..[X.
1110: 16 12 02 01 16 12 02 01  63 35 31 30 45 59 80 F0  ........c510EY..
1120: FF FF 7F F0 FF FF 7F 77  68 69 31 05 80 55 09 80  .......whi1..U..
1130: F0 FF FF 7F F0 FF FF 7F  7A 30 30 31 1C 04 80 5B  ........z001...[
1140: 5A 80 18 12 02 01 18 12  02 01 63 34 30 30 45 09  Z.........c400E.
1150: 80 F0 FF FF 7F F0 FF FF  7F 63 35 35 38 05 80 55  .........c558..U
1160: 09 80 F0 FF FF 7F F0 FF  FF 7F 63 35 35 38 1A 4E  ..........c558.N
1170: 32 45 09 80 F0 FF FF 7F  F0 FF FF 7F 35 73 33 37  2E..........5s37
1180: 05 80 1C 17 80 9F 16 80  F0 FF FF 7F F0 FF FF 7F  ................
1190: 6B 69 6C 6C 05 80 5B 2B  80 17 12 02 01 17 12 02  kill..[+........
11A0: 01 63 35 31 33 45 09 80  F0 FF FF 7F F0 FF FF 7F  .c513E..........
11B0: 63 35 35 39 05 80 1A 2D  32 27 10 15 12 02 01 02  c559...-2'......
11C0: 55 09 80 F0 FF FF 7F F0  FF FF 7F 63 35 35 39 45  U..........c559E
11D0: 09 80 F0 FF FF 7F F0 FF  FF 7F 63 35 36 31 05 80  ..........c561..
11E0: 27 10 17 12 02 01 0E 27  10 19 12 02 01 0C 5B 49  '......'......[I
11F0: 80 19 12 02 01 19 12 02  01 63 79 30 30 5B 2B 80  .........cy00[+.
1200: 17 12 02 01 17 12 02 01  63 35 31 34 55 09 80 F0  ........c514U...
1210: FF FF 7F F0 FF FF 7F 63  35 36 31 5C 00 5B 80 5C  .......c561\.[.\
1220: 01 5B 80 9A 5B 58 80 16  12 02 01 16 12 02 01 63  .[..[X.........c
1230: 35 31 34 27 10 1D 12 02  01 0B 5B 57 80 1D 12 02  514'......[W....
1240: 01 1D 12 02 01 63 35 30  32 45 09 80 F0 FF FF 7F  .....c502E......
1250: F0 FF FF 7F 63 35 36 32  05 80 55 09 80 F0 FF FF  ....c562..U.....
1260: 7F F0 FF FF 7F 63 35 36  32 45 09 80 F0 FF FF 7F  .....c562E......
1270: F0 FF FF 7F 63 35 36 34  05 80 5B 57 80 1D 12 02  ....c564..[W....
1280: 01 1D 12 02 01 63 35 30  33 1C 1A 80 52 09 80 F0  .....c503...R...
1290: FF FF 7F F0 FF FF 7F 63  35 36 34 45 09 80 F0 FF  .......c564E....
12A0: FF 7F F0 FF FF 7F 63 35  36 35 05 80 1C 10 80 2B  ......c565.....+
12B0: 1D 12 02 01 5C 80 23 7B  19 12 02 01 52 09 80 F0  ....\.#{....R...
12C0: FF FF 7F F0 FF FF 7F 63  35 36 35 27 10 13 12 02  .......c565'....
12D0: 01 06 5B 49 80 19 12 02  01 19 12 02 01 63 79 30  ..[I.........cy0
12E0: 32 45 09 80 F0 FF FF 7F  F0 FF FF 7F 63 35 36 36  2E..........c566
12F0: 05 80 1C 04 80 2B 19 12  02 01 5D 80 23 27 10 1D  .....+....].#'..
1300: 12 02 01 0C 5B 57 80 1D  12 02 01 1D 12 02 01 63  ....[W.........c
1310: 35 30 34 52 09 80 F0 FF  FF 7F F0 FF FF 7F 63 35  504R..........c5
1320: 36 36 45 09 80 F0 FF FF  7F F0 FF FF 7F 63 35 36  66E..........c56
1330: 37 05 80 27 10 19 12 02  01 0D 27 10 17 12 02 01  7..'......'.....
1340: 0F 27 10 18 12 02 01 0B  27 10 1B 12 02 01 0B 27  .'......'......'
1350: 10 1A 12 02 01 0C 27 10  1C 12 02 01 0B 29 10 22  ......'......)."
1360: 12 02 01 0A 1C 0C 80 2B  1D 12 02 01 5E 80 1C 5F  .......+....^.._
1370: 80 2B 1D 12 02 01 60 80  23 53 1D 12 02 01 1D 12  .+....`.#S......
1380: 02 01 63 35 30 34 52 09  80 F0 FF FF 7F F0 FF FF  ..c504R.........
1390: 7F 63 35 36 37 45 09 80  F0 FF FF 7F F0 FF FF 7F  .c567E..........
13A0: 63 35 37 30 05 80 5B 57  80 1D 12 02 01 1D 12 02  c570..[W........
13B0: 01 63 35 30 35 1C 04 80  29 10 F0 FF FF 7F 16 2B  .c505...)......+
13C0: 1D 12 02 01 61 80 23 52  09 80 F0 FF FF 7F F0 FF  ....a.#R........
13D0: FF 7F 63 35 37 30 45 09  80 F0 FF FF 7F F0 FF FF  ..c570E.........
13E0: 7F 63 35 37 32 05 80 5B  58 80 16 12 02 01 16 12  .c572..[X.......
13F0: 02 01 63 35 31 31 5B 57  80 1D 12 02 01 1D 12 02  ..c511[W........
1400: 01 63 35 30 36 1C 04 80  2B 1D 12 02 01 62 80 23  .c506...+....b.#
1410: 55 09 80 F0 FF FF 7F F0  FF FF 7F 63 35 37 32 45  U..........c572E
1420: 09 80 F0 FF FF 7F F0 FF  FF 7F 63 35 37 38 05 80  ..........c578..
1430: 27 10 23 12 02 01 09 27  10 19 12 02 01 0E 27 10  '.#....'......'.
1440: 17 12 02 01 10 27 10 1E  12 02 01 0E 27 10 1F 12  .....'......'...
1450: 02 01 0E 27 10 20 12 02  01 0E 27 10 13 12 02 01  ...'. ....'.....
1460: 04 27 10 14 12 02 01 04  5B 57 80 1D 12 02 01 1D  .'......[W......
1470: 12 02 01 63 35 30 37 1C  11 80 52 09 80 F0 FF FF  ...c507...R.....
1480: 7F F0 FF FF 7F 63 35 37  38 45 09 80 F0 FF FF 7F  .....c578E......
1490: F0 FF FF 7F 63 35 37 34  05 80 2B 1D 12 02 01 63  ....c574..+....c
14A0: 80 1C 10 80 45 09 80 F0  FF FF 7F F0 FF FF 7F 67  ....E..........g
14B0: 31 30 35 05 80 9F 64 80  1D 12 02 01 1D 12 02 01  105...d.........
14C0: 73 74 72 30 05 80 1C 04  80 52 09 80 F0 FF FF 7F  str0.....R......
14D0: F0 FF FF 7F 63 35 37 34  45 09 80 F0 FF FF 7F F0  ....c574E.......
14E0: FF FF 7F 61 6D 30 31 05  80 9F 0D 80 F0 FF FF 7F  ...am01.........
14F0: F0 FF FF 7F 73 74 72 30  05 80 1C 11 80 9F 65 80  ....str0......e.
1500: 22 12 02 01 22 12 02 01  73 74 72 30 05 80 1C 66  "..."...str0...f
1510: 80 52 09 80 F0 FF FF 7F  F0 FF FF 7F 61 6D 30 31  .R..........am01
1520: 45 09 80 F0 FF FF 7F F0  FF FF 7F 63 35 37 35 05  E..........c575.
1530: 80 5B 58 80 16 12 02 01  16 12 02 01 63 35 31 32  .[X.........c512
1540: 1C 17 80 2B 16 12 02 01  67 80 55 09 80 F0 FF FF  ...+....g.U.....
1550: 7F F0 FF FF 7F 63 35 37  35 45 09 80 F0 FF FF 7F  .....c575E......
1560: F0 FF FF 7F 30 66 37 30  05 80 55 09 80 F0 FF FF  ....0f70..U.....
1570: 7F F0 FF FF 7F 30 66 37  30 45 09 80 F0 FF FF 7F  .....0f70E......
1580: F0 FF FF 7F 30 66 37 31  05 80 55 09 80 F0 FF FF  ....0f71..U.....
1590: 7F F0 FF FF 7F 30 66 37  31 45 09 80 F0 FF FF 7F  .....0f71E......
15A0: F0 FF FF 7F 63 35 37 36  05 80 5B 49 80 19 12 02  ....c576..[I....
15B0: 01 19 12 02 01 63 79 30  33 1C 54 80 52 09 80 F0  .....cy03.T.R...
15C0: FF FF 7F F0 FF FF 7F 63  35 37 36 6C 19 12 02 01  .......c576l....
15D0: 05 80 2F 80 45 09 80 F0  FF FF 7F F0 FF FF 7F 63  ../.E..........c
15E0: 35 37 37 05 80 5B 2B 80  17 12 02 01 17 12 02 01  577..[+.........
15F0: 63 35 31 35 1C 11 80 45  09 80 F0 FF FF 7F F0 FF  c515...E........
1600: FF 7F 35 73 30 35 05 80  2D F8 FF FF 7F F8 FF FF  ..5s05..-.......
1610: 7F 6C 6F 70 36 1A 4E 32  1C 17 80 45 09 80 F0 FF  .lop6.N2...E....
1620: FF 7F F0 FF FF 7F 63 35  30 39 05 80 1A 2D 32 9F  ......c509...-2.
1630: 16 80 F0 FF FF 7F F0 FF  FF 7F 73 74 72 30 05 80  ..........str0..
1640: 1C 1A 80 5D 05 80 0D 80  45 09 80 F0 FF FF 7F F0  ...]....E.......
1650: FF FF 7F 6B 31 38 32 05  80 45 09 80 F0 FF FF 7F  ...k182..E......
1660: F0 FF FF 7F 6B 31 30 35  05 80 27 10 15 12 02 01  ....k105..'.....
1670: 03 1A 3D 31 1C 04 80 9F  16 80 F0 FF FF 7F F0 FF  ..=1............
1680: FF 7F 6B 69 6C 6C 05 80  9F 64 80 1D 12 02 01 1D  ..kill...d......
1690: 12 02 01 6B 69 6C 6C 05  80 9F 0D 80 F0 FF FF 7F  ...kill.........
16A0: F0 FF FF 7F 6B 69 6C 6C  05 80 9F 65 80 22 12 02  ....kill...e."..
16B0: 01 22 12 02 01 6B 69 6C  6C 05 80 45 09 80 F0 FF  ."...kill..E....
16C0: FF 7F F0 FF FF 7F 30 62  6F 66 05 80 6C 23 12 02  ......0bof..l#..
16D0: 01 43 80 2F 80 9F 68 80  23 12 02 01 23 12 02 01  .C./..h.#...#...
16E0: 73 74 72 30 05 80 52 09  80 F0 FF FF 7F F0 FF FF  str0..R.........
16F0: 7F 63 35 30 39 45 09 80  F0 FF FF 7F F0 FF FF 7F  .c509E..........
1700: 63 30 30 30 05 80 1A 1C  31 1C 69 80 45 09 80 F0  c000....1.i.E...
1710: FF FF 7F F0 FF FF 7F 30  30 77 68 05 80 55 09 80  .......00wh..U..
1720: F0 FF FF 7F F0 FF FF 7F  30 30 77 68 1A FB 30 1A  ........00wh..0.
1730: 1C 31 1C 04 80 AB 0A 1C  17 80 02 02 00 6A 80 01  .1...........j..
1740: 6D 17 03 01 10 2F 80 43  00 43 01 1C 17 80 03 02  m..../.C.C......
1750: 10 6B 80 1A 29 33 03 01  10 30 80 43 00 43 01 1C  .k..)3...0.C.C..
1760: 17 80 03 02 10 6B 80 1A  9A 17 01 74 17 35 6C 80  .....k.....t.5l.
1770: 78 1C 04 80 5C 00 6D 80  5C 01 6D 80 5C 02 6E 80  x...\.m.\.m.\.n.
1780: 5C 03 6F 80 9A 46 00 45  70 80 F0 FF FF 7F F0 FF  \.o..F.Ep.......
1790: FF 7F 66 64 69 32 05 80  21 00                    ..fdi2..!.      
```

#### Opcodes

```
  0: 0x0002 [0x42] SET_CLI_EVENT_CANCEL_DATA()
  1: 0x0003 [0x1A] CALL_SUBROUTINE(address=0x30FB)
  2: 0x0006 [0x46] CAMERA_CONTROL: Disable user control
  3: 0x0008 [0x38] SET_CLIENT_EVENT_MODE(mode=19*)
  4: 0x000B [0x03] ExtData[1]->WorkLocal[2] = Work_Zone[2]
  5: 0x0010 [0x34] LOAD_UNLOAD_ZONE(zone_id=541*)
  6: 0x0013 [0x77] SET_EVENT_TIME_WEATHER(hour=12*, weather=10*)
  7: 0x0018 [0x1C] WAIT(30* ticks)
  8: 0x001B [0xAB] EventEntity->UnknownFlag = 1 // Enable unknown flag
  9: 0x001D [0x79] LocalPlayer looks at LocalPlayer (Basic look)
 10: 0x0027 [0x4E] SET_ENTITY_HIDE_FLAG: Show LocalPlayer
 11: 0x002D [0x27] REQ_SET(priority=0x10, entity_id=Prishe (ID: 16912918/0x01021216), tag_num=0x04)
 12: 0x0034 [0x27] REQ_SET(priority=0x10, entity_id=Ulmia (ID: 16912920/0x01021218), tag_num=0x04)
 13: 0x003B [0x27] REQ_SET(priority=0x10, entity_id=Shikaree Z (ID: 16912923/0x0102121B), tag_num=0x04)
 14: 0x0042 [0x27] REQ_SET(priority=0x10, entity_id=Jabbos (ID: 16912922/0x0102121A), tag_num=0x04)
 15: 0x0049 [0x27] REQ_SET(priority=0x10, entity_id=Louverance (ID: 16912924/0x0102121C), tag_num=0x04)
 16: 0x0050 [0x27] REQ_SET(priority=0x10, entity_id=Tenzen (ID: 16912921/0x01021219), tag_num=0x02)
 17: 0x0057 [0x27] REQ_SET(priority=0x10, entity_id=Makki-Chebukki (ID: 16912926/0x0102121E), tag_num=0x02)
 18: 0x005E [0x27] REQ_SET(priority=0x10, entity_id=Kukki-Chebukki (ID: 16912927/0x0102121F), tag_num=0x02)
 19: 0x0065 [0x27] REQ_SET(priority=0x10, entity_id=Cherukiki (ID: 16912928/0x01021220), tag_num=0x02)
 20: 0x006C [0x27] REQ_SET(priority=0x10, entity_id=Selh'teus (ID: 16912919/0x01021217), tag_num=0x02)
 21: 0x0073 [0x27] REQ_SET(priority=0x10, entity_id=Nag'molada (ID: 16912925/0x0102121D), tag_num=0x02)
 22: 0x007A [0x27] REQ_SET(priority=0x10, entity_id=Unnamed NPC (ID: 16912931/0x01021223), tag_num=0x02)
 23: 0x0081 [0x92] Prishe (ID: 16912918/0x01021216)->Render.Flags3 ^= 0x01
 24: 0x0087 [0x92] Ulmia (ID: 16912920/0x01021218)->Render.Flags3 ^= 0x01
 25: 0x008D [0x92] Shikaree Z (ID: 16912923/0x0102121B)->Render.Flags3 ^= 0x01
 26: 0x0093 [0x92] Jabbos (ID: 16912922/0x0102121A)->Render.Flags3 ^= 0x01
 27: 0x0099 [0x92] Louverance (ID: 16912924/0x0102121C)->Render.Flags3 ^= 0x01
 28: 0x009F [0x92] Tenzen (ID: 16912921/0x01021219)->Render.Flags3 ^= 0x01
 29: 0x00A5 [0x92] Makki-Chebukki (ID: 16912926/0x0102121E)->Render.Flags3 ^= 0x01
 30: 0x00AB [0x92] Kukki-Chebukki (ID: 16912927/0x0102121F)->Render.Flags3 ^= 0x01
 31: 0x00B1 [0x92] Cherukiki (ID: 16912928/0x01021220)->Render.Flags3 ^= 0x01
 32: 0x00B7 [0x92] Selh'teus (ID: 16912919/0x01021217)->Render.Flags3 ^= 0x01
 33: 0x00BD [0x92] Nag'molada (ID: 16912925/0x0102121D)->Render.Flags3 ^= 0x01
 34: 0x00C3 [0x94] LocalPlayer->Render.Flags3 ^= 0x01
 35: 0x00C9 [0x94] Prishe (ID: 16912918/0x01021216)->Render.Flags3 ^= 0x01
 36: 0x00CF [0x94] Ulmia (ID: 16912920/0x01021218)->Render.Flags3 ^= 0x01
 37: 0x00D5 [0x94] Shikaree Z (ID: 16912923/0x0102121B)->Render.Flags3 ^= 0x01
 38: 0x00DB [0x94] Jabbos (ID: 16912922/0x0102121A)->Render.Flags3 ^= 0x01
 39: 0x00E1 [0x94] Louverance (ID: 16912924/0x0102121C)->Render.Flags3 ^= 0x01
 40: 0x00E7 [0x94] Tenzen (ID: 16912921/0x01021219)->Render.Flags3 ^= 0x01
 41: 0x00ED [0x94] Makki-Chebukki (ID: 16912926/0x0102121E)->Render.Flags3 ^= 0x01
 42: 0x00F3 [0x94] Kukki-Chebukki (ID: 16912927/0x0102121F)->Render.Flags3 ^= 0x01
 43: 0x00F9 [0x94] Cherukiki (ID: 16912928/0x01021220)->Render.Flags3 ^= 0x01
 44: 0x00FF [0x94] Selh'teus (ID: 16912919/0x01021217)->Render.Flags3 ^= 0x01
 45: 0x0105 [0x94] Nag'molada (ID: 16912925/0x0102121D)->Render.Flags3 ^= 0x01
 46: 0x010B [0x94] Unnamed NPC (ID: 16912931/0x01021223)->Render.Flags3 ^= 0x01
 47: 0x0111 [0x29] REQ_SET_WAIT(priority=0x10, entity_id=Prishe (ID: 16912918/0x01021216), tag_num=0x09)
 48: 0x0118 [0x29] REQ_SET_WAIT(priority=0x10, entity_id=Ulmia (ID: 16912920/0x01021218), tag_num=0x09)
 49: 0x011F [0x29] REQ_SET_WAIT(priority=0x10, entity_id=Shikaree Z (ID: 16912923/0x0102121B), tag_num=0x09)
 50: 0x0126 [0x29] REQ_SET_WAIT(priority=0x10, entity_id=Jabbos (ID: 16912922/0x0102121A), tag_num=0x09)
 51: 0x012D [0x29] REQ_SET_WAIT(priority=0x10, entity_id=Louverance (ID: 16912924/0x0102121C), tag_num=0x09)
 52: 0x0134 [0x29] REQ_SET_WAIT(priority=0x10, entity_id=Tenzen (ID: 16912921/0x01021219), tag_num=0x09)
 53: 0x013B [0x29] REQ_SET_WAIT(priority=0x10, entity_id=Makki-Chebukki (ID: 16912926/0x0102121E), tag_num=0x09)
 54: 0x0142 [0x29] REQ_SET_WAIT(priority=0x10, entity_id=Kukki-Chebukki (ID: 16912927/0x0102121F), tag_num=0x09)
 55: 0x0149 [0x29] REQ_SET_WAIT(priority=0x10, entity_id=Cherukiki (ID: 16912928/0x01021220), tag_num=0x09)
 56: 0x0150 [0x29] REQ_SET_WAIT(priority=0x10, entity_id=Selh'teus (ID: 16912919/0x01021217), tag_num=0x09)
 57: 0x0157 [0x29] REQ_SET_WAIT(priority=0x10, entity_id=Nag'molada (ID: 16912925/0x0102121D), tag_num=0x0A)
 58: 0x015E [0x29] REQ_SET_WAIT(priority=0x10, entity_id=LocalPlayer, tag_num=0x12)
 59: 0x0165 [0x80] LOAD_WAIT(entity=Ulmia (ID: 16912920/0x01021218))
 60: 0x016A [0x80] LOAD_WAIT(entity=Shikaree Z (ID: 16912923/0x0102121B))
 61: 0x016F [0x80] LOAD_WAIT(entity=Louverance (ID: 16912924/0x0102121C))
 62: 0x0174 [0x80] LOAD_WAIT(entity=LocalPlayer)
 63: 0x0179 [0x1C] WAIT(30* ticks)
 64: 0x017C [0x5C] MUSIC_CONTROL: Set Idle (Day) music to song 0*
 65: 0x0180 [0x5C] MUSIC_CONTROL: Set Idle (Night) music to song 0*
 66: 0x0184 [0x9A] WAIT_MUSIC_SERVER()
 67: 0x0185 [0x2D] CREATE_ZONE_SCHEDULER_TASK: Create scheduler "kil6" with entities [EventEntity, EventEntity]
 68: 0x0192 [0x2D] CREATE_ZONE_SCHEDULER_TASK: Create scheduler "sci1" with entities [EventEntity, EventEntity]
 69: 0x019F [0x2D] CREATE_ZONE_SCHEDULER_TASK: Create scheduler "sci2" with entities [EventEntity, EventEntity]
 70: 0x01AC [0x2D] CREATE_ZONE_SCHEDULER_TASK: Create scheduler "sci3" with entities [EventEntity, EventEntity]
 71: 0x01B9 [0x2D] CREATE_ZONE_SCHEDULER_TASK: Create scheduler "sci4" with entities [EventEntity, EventEntity]
 72: 0x01C6 [0x5B] LOAD_EXT_SCHEDULER: Load scheduler "cyl1" with entities [Ulmia (ID: 16912920/0x01021218), Ulmia (ID: 16912920/0x01021218)], work=635*
 73: 0x01D5 [0x5B] LOAD_EXT_SCHEDULER: Load scheduler "cy01" with entities [Louverance (ID: 16912924/0x0102121C), Louverance (ID: 16912924/0x0102121C)], work=657*
 74: 0x01E4 [0x5B] LOAD_EXT_SCHEDULER: Load scheduler "cy01" with entities [Shikaree Z (ID: 16912923/0x0102121B), Shikaree Z (ID: 16912923/0x0102121B)], work=667*
 75: 0x01F3 [0x7B] LocalPlayer stops talking
 76: 0x01F8 [0x45] LOAD_SCHEDULED_TASK: Load scheduler "c501" with entities [LocalPlayer, LocalPlayer], work=[177*, 0*]
 77: 0x0209 [0x1A] CALL_SUBROUTINE(address=0x30DA)
 78: 0x020C [0x55] WAIT_LOAD_SCHEDULER: Wait for scheduler "c501" with entities [LocalPlayer, LocalPlayer], work=177*
 79: 0x021B [0x2B] Louverance (ID: 16912924/0x0102121C) [7334*]:
    → "What happened...?"
 80: 0x0222 [0x23] WAIT_FOR_DIALOG_INTERACTION
 81: 0x0223 [0x5B] LOAD_EXT_SCHEDULER: Load scheduler "cy02" with entities [Louverance (ID: 16912924/0x0102121C), Louverance (ID: 16912924/0x0102121C)], work=657*
 82: 0x0232 [0x45] LOAD_SCHEDULED_TASK: Load scheduler "01se" with entities [LocalPlayer, LocalPlayer], work=[177*, 0*]
 83: 0x0243 [0x1C] WAIT(180* ticks)
 84: 0x0246 [0x45] LOAD_SCHEDULED_TASK: Load scheduler "c502" with entities [LocalPlayer, LocalPlayer], work=[177*, 0*]
 85: 0x0257 [0x5B] LOAD_EXT_SCHEDULER: Load scheduler "cy02" with entities [Shikaree Z (ID: 16912923/0x0102121B), Shikaree Z (ID: 16912923/0x0102121B)], work=667*
 86: 0x0266 [0x1C] WAIT(90* ticks)
 87: 0x0269 [0x79] Louverance (ID: 16912924/0x0102121C) looks at Shikaree Z (ID: 16912923/0x0102121B) (Basic look)
 88: 0x0273 [0x45] LOAD_SCHEDULED_TASK: Load scheduler "02se" with entities [LocalPlayer, LocalPlayer], work=[177*, 0*]
 89: 0x0284 [0x1C] WAIT(120* ticks)
 90: 0x0287 [0x7B] Louverance (ID: 16912924/0x0102121C) stops talking
 91: 0x028C [0x2B] Shikaree Z (ID: 16912923/0x0102121B) [7335*]:
    → "This place...!"
 92: 0x0293 [0x23] WAIT_FOR_DIALOG_INTERACTION
 93: 0x0294 [0x27] REQ_SET(priority=0x10, entity_id=Jabbos (ID: 16912922/0x0102121A), tag_num=0x0A)
 94: 0x029B [0x52] END_LOAD_SCHEDULER: End scheduler "c502" with entities [LocalPlayer, LocalPlayer], work=177*
 95: 0x02AA [0x45] LOAD_SCHEDULED_TASK: Load scheduler "c504" with entities [LocalPlayer, LocalPlayer], work=[177*, 0*]
 96: 0x02BB [0x2A] GET_REQ_LEVEL(level=16, entity_id=Jabbos (ID: 16912922/0x0102121A))
 97: 0x02C1 [0x55] WAIT_LOAD_SCHEDULER: Wait for scheduler "c504" with entities [LocalPlayer, LocalPlayer], work=177*
 98: 0x02D0 [0x45] LOAD_SCHEDULED_TASK: Load scheduler "c505" with entities [LocalPlayer, LocalPlayer], work=[177*, 0*]
 99: 0x02E1 [0x2B] Jabbos (ID: 16912922/0x0102121A) [7336*]:
    → "This is...the...fifth...?"
100: 0x02E8 [0x23] WAIT_FOR_DIALOG_INTERACTION
101: 0x02E9 [0x52] END_LOAD_SCHEDULER: End scheduler "c505" with entities [LocalPlayer, LocalPlayer], work=177*
102: 0x02F8 [0x45] LOAD_SCHEDULED_TASK: Load scheduler "c506" with entities [LocalPlayer, LocalPlayer], work=[177*, 0*]
103: 0x0309 [0x1C] WAIT(45* ticks)
104: 0x030C [0x5B] LOAD_EXT_SCHEDULER: Load scheduler "cy01" with entities [Ulmia (ID: 16912920/0x01021218), Ulmia (ID: 16912920/0x01021218)], work=635*
105: 0x031B [0x1C] WAIT(60* ticks)
106: 0x031E [0x2B] Ulmia (ID: 16912920/0x01021218) [7337*]:
    → "But why does only this crystal glow with such a strange incandescence...?"
107: 0x0325 [0x23] WAIT_FOR_DIALOG_INTERACTION
108: 0x0326 [0x52] END_LOAD_SCHEDULER: End scheduler "c506" with entities [LocalPlayer, LocalPlayer], work=177*
109: 0x0335 [0x45] LOAD_SCHEDULED_TASK: Load scheduler "c507" with entities [LocalPlayer, LocalPlayer], work=[177*, 0*]
110: 0x0346 [0x5B] LOAD_EXT_SCHEDULER: Load scheduler "cy02" with entities [Ulmia (ID: 16912920/0x01021218), Ulmia (ID: 16912920/0x01021218)], work=635*
111: 0x0355 [0x1C] WAIT(30* ticks)
112: 0x0358 [0x2B] Ulmia (ID: 16912920/0x01021218) [7338*]:
    → "The air here is so chilly. The other crystals exuded such a sense of warmth and peace..."
113: 0x035F [0x23] WAIT_FOR_DIALOG_INTERACTION
114: 0x0360 [0x52] END_LOAD_SCHEDULER: End scheduler "c507" with entities [LocalPlayer, LocalPlayer], work=177*
115: 0x036F [0x45] LOAD_SCHEDULED_TASK: Load scheduler "c508" with entities [LocalPlayer, LocalPlayer], work=[177*, 0*]
116: 0x0380 [0x1C] WAIT(300* ticks)
117: 0x0383 [0x2B] ??? (ID: 16912916/0x01021214) [7339*]:
    → "(This crystal is not a part of Vana'diel.)"
118: 0x038A [0x23] WAIT_FOR_DIALOG_INTERACTION
119: 0x038B [0x45] LOAD_SCHEDULED_TASK: Load scheduler "5s05" with entities [LocalPlayer, LocalPlayer], work=[177*, 0*]
120: 0x039C [0x2D] CREATE_ZONE_SCHEDULER_TASK: Create scheduler "lop6" with entities [EventEntity, EventEntity]
121: 0x03A9 [0x27] REQ_SET(priority=0x10, entity_id=??? (ID: 16912916/0x01021214), tag_num=0x03)
122: 0x03B0 [0x1A] CALL_SUBROUTINE(address=0x324E)
123: 0x03B3 [0x1C] WAIT(30* ticks)
124: 0x03B6 [0x52] END_LOAD_SCHEDULER: End scheduler "c508" with entities [LocalPlayer, LocalPlayer], work=177*
125: 0x03C5 [0x45] LOAD_SCHEDULED_TASK: Load scheduler "c509" with entities [LocalPlayer, LocalPlayer], work=[177*, 0*]
126: 0x03D6 [0x1A] CALL_SUBROUTINE(address=0x322D)
127: 0x03D9 [0x9F] LOAD_SCHEDULED_TASK_ALT: Load scheduler "str0" with entities [LocalPlayer, LocalPlayer], work=[61*, 0*]
128: 0x03EA [0x55] WAIT_LOAD_SCHEDULER: Wait for scheduler "c509" with entities [LocalPlayer, LocalPlayer], work=177*
129: 0x03F9 [0x5B] LOAD_EXT_SCHEDULER: Load scheduler "cy03" with entities [Ulmia (ID: 16912920/0x01021218), Ulmia (ID: 16912920/0x01021218)], work=635*
130: 0x0408 [0x45] LOAD_SCHEDULED_TASK: Load scheduler "c510" with entities [LocalPlayer, LocalPlayer], work=[177*, 0*]
131: 0x0419 [0x1C] WAIT(120* ticks)
132: 0x041C [0x1A] CALL_SUBROUTINE(address=0x324E)
133: 0x041F [0x1C] WAIT(15* ticks)
134: 0x0422 [0x52] END_LOAD_SCHEDULER: End scheduler "c510" with entities [LocalPlayer, LocalPlayer], work=177*
135: 0x0431 [0x45] LOAD_SCHEDULED_TASK: Load scheduler "c511" with entities [LocalPlayer, LocalPlayer], work=[177*, 0*]
136: 0x0442 [0x1A] CALL_SUBROUTINE(address=0x322D)
137: 0x0445 [0x5B] LOAD_EXT_SCHEDULER: Load scheduler "cy04" with entities [Shikaree Z (ID: 16912923/0x0102121B), Shikaree Z (ID: 16912923/0x0102121B)], work=667*
138: 0x0454 [0x5C] MUSIC_CONTROL: Set Idle (Day) music to song 244*
139: 0x0458 [0x5C] MUSIC_CONTROL: Set Idle (Night) music to song 244*
140: 0x045C [0x9A] WAIT_MUSIC_SERVER()
141: 0x045D [0x55] WAIT_LOAD_SCHEDULER: Wait for scheduler "c511" with entities [LocalPlayer, LocalPlayer], work=177*
142: 0x046C [0x45] LOAD_SCHEDULED_TASK: Load scheduler "c512" with entities [LocalPlayer, LocalPlayer], work=[177*, 0*]
143: 0x047D [0x9F] LOAD_SCHEDULED_TASK_ALT: Load scheduler "kill" with entities [LocalPlayer, LocalPlayer], work=[61*, 0*]
144: 0x048E [0x7C] Selh'teus (ID: 16912919/0x01021217)->Render.Flags2 |= 0x00
145: 0x0494 [0x27] REQ_SET(priority=0x10, entity_id=Unnamed NPC (ID: 16912917/0x01021215), tag_num=0x02)
146: 0x049B [0x27] REQ_SET(priority=0x10, entity_id=Selh'teus (ID: 16912919/0x01021217), tag_num=0x0A)
147: 0x04A2 [0x27] REQ_SET(priority=0x10, entity_id=Unnamed NPC (ID: 16912915/0x01021213), tag_num=0x02)
148: 0x04A9 [0x1C] WAIT(60* ticks)
149: 0x04AC [0x2B] Selh'teus (ID: 16912919/0x01021217) [7340*]:
    → "(This crystal was submerged beneath the city of Al'Taieu ten thousand years ago.)"
150: 0x04B3 [0x1C] WAIT(150* ticks)
151: 0x04B6 [0x55] WAIT_LOAD_SCHEDULER: Wait for scheduler "c512" with entities [LocalPlayer, LocalPlayer], work=177*
152: 0x04C5 [0x45] LOAD_SCHEDULED_TASK: Load scheduler "c513" with entities [LocalPlayer, LocalPlayer], work=[177*, 0*]
153: 0x04D6 [0x2B] Selh'teus (ID: 16912919/0x01021217) [7341*]:
    → "(When the celestial capital was torn from our world, the crystal was also lost.)"
154: 0x04DD [0x55] WAIT_LOAD_SCHEDULER: Wait for scheduler "c513" with entities [LocalPlayer, LocalPlayer], work=177*
155: 0x04EC [0x45] LOAD_SCHEDULED_TASK: Load scheduler "c514" with entities [LocalPlayer, LocalPlayer], work=[177*, 0*]
156: 0x04FD [0x2A] GET_REQ_LEVEL(level=16, entity_id=Selh'teus (ID: 16912919/0x01021217))
157: 0x0503 [0x27] REQ_SET(priority=0x10, entity_id=??? (ID: 16912916/0x01021214), tag_num=0x02)
158: 0x050A [0x55] WAIT_LOAD_SCHEDULER: Wait for scheduler "c514" with entities [LocalPlayer, LocalPlayer], work=177*
159: 0x0519 [0x1C] WAIT(60* ticks)
160: 0x051C [0x81] SET_ENTITY_BLINKING(blink_flag=0x00, entity=Selh'teus (ID: 16912919/0x01021217))
161: 0x0522 [0x45] LOAD_SCHEDULED_TASK: Load scheduler "c515" with entities [LocalPlayer, LocalPlayer], work=[177*, 0*]
162: 0x0533 [0x5B] LOAD_EXT_SCHEDULER: Load scheduler "c502" with entities [Selh'teus (ID: 16912919/0x01021217), Selh'teus (ID: 16912919/0x01021217)], work=462*
163: 0x0542 [0x2B] Selh'teus (ID: 16912919/0x01021217) [7342*]:
    → "(But it was not a complete separation.)"
164: 0x0549 [0x23] WAIT_FOR_DIALOG_INTERACTION
165: 0x054A [0x52] END_LOAD_SCHEDULER: End scheduler "c515" with entities [LocalPlayer, LocalPlayer], work=177*
166: 0x0559 [0x45] LOAD_SCHEDULED_TASK: Load scheduler "c516" with entities [LocalPlayer, LocalPlayer], work=[177*, 0*]
167: 0x056A [0x5B] LOAD_EXT_SCHEDULER: Load scheduler "c503" with entities [Selh'teus (ID: 16912919/0x01021217), Selh'teus (ID: 16912919/0x01021217)], work=462*
168: 0x0579 [0x2B] Selh'teus (ID: 16912919/0x01021217) [7343*]:
    → "(After the Crystal Line was reactivated, energy was siphoned from the fifth mothercrystal...)"
169: 0x0580 [0x23] WAIT_FOR_DIALOG_INTERACTION
170: 0x0581 [0x52] END_LOAD_SCHEDULER: End scheduler "c516" with entities [LocalPlayer, LocalPlayer], work=177*
171: 0x0590 [0x45] LOAD_SCHEDULED_TASK: Load scheduler "c517" with entities [LocalPlayer, LocalPlayer], work=[177*, 0*]
172: 0x05A1 [0x2B] Selh'teus (ID: 16912919/0x01021217) [7344*]:
    → "(Drawing it and the city of Al'Taieu back to Vana'diel.)"
173: 0x05A8 [0x23] WAIT_FOR_DIALOG_INTERACTION
174: 0x05A9 [0x52] END_LOAD_SCHEDULER: End scheduler "c517" with entities [LocalPlayer, LocalPlayer], work=177*
175: 0x05B8 [0x45] LOAD_SCHEDULED_TASK: Load scheduler "c518" with entities [LocalPlayer, LocalPlayer], work=[177*, 0*]
176: 0x05C9 [0x5B] LOAD_EXT_SCHEDULER: Load scheduler "tlb0" with entities [Prishe (ID: 16912918/0x01021216), Prishe (ID: 16912918/0x01021216)], work=475*
177: 0x05D8 [0x2B] Prishe (ID: 16912918/0x01021216) [7345*]:
    → "In other words, the crystal was losing the power it needed to sustain Al'Taieu in the other dimension."
178: 0x05DF [0x23] WAIT_FOR_DIALOG_INTERACTION
179: 0x05E0 [0x1C] WAIT(30* ticks)
180: 0x05E3 [0x5B] LOAD_EXT_SCHEDULER: Load scheduler "tlb1" with entities [Prishe (ID: 16912918/0x01021216), Prishe (ID: 16912918/0x01021216)], work=475*
181: 0x05F2 [0x52] END_LOAD_SCHEDULER: End scheduler "c518" with entities [LocalPlayer, LocalPlayer], work=177*
182: 0x0601 [0x45] LOAD_SCHEDULED_TASK: Load scheduler "c519" with entities [LocalPlayer, LocalPlayer], work=[177*, 0*]
183: 0x0612 [0x1C] WAIT(60* ticks)
184: 0x0615 [0x2B] Louverance (ID: 16912924/0x0102121C) [7346*]:
    → "Sustain Al'Taieu?"
185: 0x061C [0x23] WAIT_FOR_DIALOG_INTERACTION
186: 0x061D [0x52] END_LOAD_SCHEDULER: End scheduler "c519" with entities [LocalPlayer, LocalPlayer], work=177*
187: 0x062C [0x45] LOAD_SCHEDULED_TASK: Load scheduler "c520" with entities [LocalPlayer, LocalPlayer], work=[177*, 0*]
188: 0x063D [0x2B] Shikaree Z (ID: 16912923/0x0102121B) [7347*]:
    → "This is the crystal that the Wyrmking spoke of?"
189: 0x0644 [0x23] WAIT_FOR_DIALOG_INTERACTION
190: 0x0645 [0x52] END_LOAD_SCHEDULER: End scheduler "c520" with entities [LocalPlayer, LocalPlayer], work=177*
191: 0x0654 [0x45] LOAD_SCHEDULED_TASK: Load scheduler "c521" with entities [LocalPlayer, LocalPlayer], work=[177*, 0*]
192: 0x0665 [0x5B] LOAD_EXT_SCHEDULER: Load scheduler "c513" with entities [Prishe (ID: 16912918/0x01021216), Prishe (ID: 16912918/0x01021216)], work=689*
193: 0x0674 [0x1C] WAIT(30* ticks)
194: 0x0677 [0x2B] Prishe (ID: 16912918/0x01021216) [7348*]:
    → "Yep. The weakened state of this overgrown quartz is the reason that the Keeper of the Apocalypse is threatening to descend upon Vana'diel."
195: 0x067E [0x23] WAIT_FOR_DIALOG_INTERACTION
196: 0x067F [0x52] END_LOAD_SCHEDULER: End scheduler "c521" with entities [LocalPlayer, LocalPlayer], work=177*
197: 0x068E [0x45] LOAD_SCHEDULED_TASK: Load scheduler "c522" with entities [LocalPlayer, LocalPlayer], work=[177*, 0*]
198: 0x069F [0x5D] SET_MUSIC_VOLUME(volume=0*, fade_time=120*)
199: 0x06A4 [0x1C] WAIT(45* ticks)
200: 0x06A7 [0x2B] Jabbos (ID: 16912922/0x0102121A) [7349*]:
    → "So if...the power...of the crystal...is restored...!"
201: 0x06AE [0x23] WAIT_FOR_DIALOG_INTERACTION
202: 0x06AF [0x5C] MUSIC_CONTROL: Set Idle (Day) music to song 237*
203: 0x06B3 [0x5C] MUSIC_CONTROL: Set Idle (Night) music to song 237*
204: 0x06B7 [0x9A] WAIT_MUSIC_SERVER()
205: 0x06B8 [0x52] END_LOAD_SCHEDULER: End scheduler "c522" with entities [LocalPlayer, LocalPlayer], work=177*
206: 0x06C7 [0x45] LOAD_SCHEDULED_TASK: Load scheduler "c523" with entities [LocalPlayer, LocalPlayer], work=[177*, 0*]
207: 0x06D8 [0x27] REQ_SET(priority=0x10, entity_id=Ulmia (ID: 16912920/0x01021218), tag_num=0x0A)
208: 0x06DF [0x27] REQ_SET(priority=0x10, entity_id=Tenzen (ID: 16912921/0x01021219), tag_num=0x0A)
209: 0x06E6 [0x55] WAIT_LOAD_SCHEDULER: Wait for scheduler "c523" with entities [LocalPlayer, LocalPlayer], work=177*
210: 0x06F5 [0x45] LOAD_SCHEDULED_TASK: Load scheduler "c524" with entities [LocalPlayer, LocalPlayer], work=[177*, 0*]
211: 0x0706 [0x27] REQ_SET(priority=0x10, entity_id=??? (ID: 16912916/0x01021214), tag_num=0x05)
212: 0x070D [0x27] REQ_SET(priority=0x10, entity_id=Unnamed NPC (ID: 16912915/0x01021213), tag_num=0x03)
213: 0x0714 [0x6B] STOP_AND_IDLE: Prishe (ID: 16912918/0x01021216) stops current action and resets to idle (animation="idl0")
214: 0x071D [0x2B] Tenzen (ID: 16912921/0x01021219) [7350*]:
    → "The return of Al'Taieu and the arrival of the keeper will be prevented."
215: 0x0724 [0x23] WAIT_FOR_DIALOG_INTERACTION
216: 0x0725 [0x55] WAIT_LOAD_SCHEDULER: Wait for scheduler "c524" with entities [LocalPlayer, LocalPlayer], work=177*
217: 0x0734 [0x45] LOAD_SCHEDULED_TASK: Load scheduler "c525" with entities [LocalPlayer, LocalPlayer], work=[177*, 0*]
218: 0x0745 [0x79] Tenzen (ID: 16912921/0x01021219) looks at Selh'teus (ID: 16912919/0x01021217) (Basic look)
219: 0x074F [0x79] LocalPlayer looks at Tenzen (ID: 16912921/0x01021219) (Basic look)
220: 0x0759 [0x2B] Tenzen (ID: 16912921/0x01021219) [7351*]:
    → "This solution was discovered by the boy Selh'teus--and by Phoenix, the fiery bird of rebirth."
221: 0x0760 [0x23] WAIT_FOR_DIALOG_INTERACTION
222: 0x0761 [0x27] REQ_SET(priority=0x10, entity_id=Tenzen (ID: 16912921/0x01021219), tag_num=0x0B)
223: 0x0768 [0x52] END_LOAD_SCHEDULER: End scheduler "c525" with entities [LocalPlayer, LocalPlayer], work=177*
224: 0x0777 [0x45] LOAD_SCHEDULED_TASK: Load scheduler "c526" with entities [LocalPlayer, LocalPlayer], work=[177*, 0*]
225: 0x0788 [0x1C] WAIT(30* ticks)
226: 0x078B [0x5B] LOAD_EXT_SCHEDULER: Load scheduler "c504" with entities [Selh'teus (ID: 16912919/0x01021217), Selh'teus (ID: 16912919/0x01021217)], work=462*
227: 0x079A [0x2B] Tenzen (ID: 16912921/0x01021219) [7352*]:
    → "That is why he has visited each of the remaining crystals in turn: To relieve them of their light and power..."
228: 0x07A1 [0x23] WAIT_FOR_DIALOG_INTERACTION
229: 0x07A2 [0x2A] GET_REQ_LEVEL(level=16, entity_id=Tenzen (ID: 16912921/0x01021219))
230: 0x07A8 [0x53] WAIT_SCHEDULER_TASK: Wait for scheduler "c504" with entities [Selh'teus (ID: 16912919/0x01021217), Selh'teus (ID: 16912919/0x01021217)]
231: 0x07B5 [0x5B] LOAD_EXT_SCHEDULER: Load scheduler "c518" with entities [Selh'teus (ID: 16912919/0x01021217), Selh'teus (ID: 16912919/0x01021217)], work=463*
232: 0x07C4 [0x52] END_LOAD_SCHEDULER: End scheduler "c526" with entities [LocalPlayer, LocalPlayer], work=177*
233: 0x07D3 [0x45] LOAD_SCHEDULED_TASK: Load scheduler "c527" with entities [LocalPlayer, LocalPlayer], work=[177*, 0*]
234: 0x07E4 [0x1C] WAIT(60* ticks)
235: 0x07E7 [0x2B] Tenzen (ID: 16912921/0x01021219) [7353*]:
    → "And to pour that energy into the crystal that lies before us."
236: 0x07EE [0x23] WAIT_FOR_DIALOG_INTERACTION
237: 0x07EF [0x52] END_LOAD_SCHEDULER: End scheduler "c527" with entities [LocalPlayer, LocalPlayer], work=177*
238: 0x07FE [0x45] LOAD_SCHEDULED_TASK: Load scheduler "c528" with entities [LocalPlayer, LocalPlayer], work=[177*, 0*]
239: 0x080F [0x5B] LOAD_EXT_SCHEDULER: Load scheduler "c5n6" with entities [Selh'teus (ID: 16912919/0x01021217), Selh'teus (ID: 16912919/0x01021217)], work=463*
240: 0x081E [0x1C] WAIT(45* ticks)
241: 0x0821 [0x79] LocalPlayer looks at Selh'teus (ID: 16912919/0x01021217) (Basic look)
242: 0x082B [0x2B] Selh'teus (ID: 16912919/0x01021217) [7354*]:
    → "(However, I am a child of darkness. I could never be the bearer of light.)"
243: 0x0832 [0x23] WAIT_FOR_DIALOG_INTERACTION
244: 0x0833 [0x52] END_LOAD_SCHEDULER: End scheduler "c528" with entities [LocalPlayer, LocalPlayer], work=177*
245: 0x0842 [0x45] LOAD_SCHEDULED_TASK: Load scheduler "c529" with entities [LocalPlayer, LocalPlayer], work=[177*, 0*]
246: 0x0853 [0x5B] LOAD_EXT_SCHEDULER: Load scheduler "c5n7" with entities [Selh'teus (ID: 16912919/0x01021217), Selh'teus (ID: 16912919/0x01021217)], work=463*
247: 0x0862 [0x1C] WAIT(60* ticks)
248: 0x0865 [0x2B] Selh'teus (ID: 16912919/0x01021217) [7355*]:
    → "(I needed a worthy receptacle for that power. I needed you.)"
249: 0x086C [0x23] WAIT_FOR_DIALOG_INTERACTION
250: 0x086D [0x5B] LOAD_EXT_SCHEDULER: Load scheduler "c515" with entities [Prishe (ID: 16912918/0x01021216), Prishe (ID: 16912918/0x01021216)], work=689*
251: 0x087C [0x29] REQ_SET_WAIT(priority=0x10, entity_id=LocalPlayer, tag_num=0x15)
252: 0x0883 [0x03] ExtData[1]->WorkLocal[0] = Work_Zone[2]
253: 0x0888 [0x52] END_LOAD_SCHEDULER: End scheduler "c529" with entities [LocalPlayer, LocalPlayer], work=177*
254: 0x0897 [0x02] IF !(ExtData[1]->WorkLocal[0] == 1*) GOTO 0x08C2
255: 0x089F [0x45] LOAD_SCHEDULED_TASK: Load scheduler "29hm" with entities [LocalPlayer, LocalPlayer], work=[177*, 0*]
256: 0x08B0 [0x55] WAIT_LOAD_SCHEDULER: Wait for scheduler "29hm" with entities [LocalPlayer, LocalPlayer], work=177*
257: 0x08BF [0x01] GOTO 0x09EF
258: 0x08C2 [0x02] IF !(ExtData[1]->WorkLocal[0] == 2*) GOTO 0x08ED
259: 0x08CA [0x45] LOAD_SCHEDULED_TASK: Load scheduler "29hf" with entities [LocalPlayer, LocalPlayer], work=[177*, 0*]
260: 0x08DB [0x55] WAIT_LOAD_SCHEDULER: Wait for scheduler "29hf" with entities [LocalPlayer, LocalPlayer], work=177*
261: 0x08EA [0x01] GOTO 0x09EF
262: 0x08ED [0x02] IF !(ExtData[1]->WorkLocal[0] == 3*) GOTO 0x0918
263: 0x08F5 [0x45] LOAD_SCHEDULED_TASK: Load scheduler "29em" with entities [LocalPlayer, LocalPlayer], work=[177*, 0*]
264: 0x0906 [0x55] WAIT_LOAD_SCHEDULER: Wait for scheduler "29em" with entities [LocalPlayer, LocalPlayer], work=177*
265: 0x0915 [0x01] GOTO 0x09EF
266: 0x0918 [0x02] IF !(ExtData[1]->WorkLocal[0] == 4*) GOTO 0x0943
267: 0x0920 [0x45] LOAD_SCHEDULED_TASK: Load scheduler "29ef" with entities [LocalPlayer, LocalPlayer], work=[177*, 0*]
268: 0x0931 [0x55] WAIT_LOAD_SCHEDULER: Wait for scheduler "29ef" with entities [LocalPlayer, LocalPlayer], work=177*
269: 0x0940 [0x01] GOTO 0x09EF
270: 0x0943 [0x02] IF !(ExtData[1]->WorkLocal[0] == 5*) GOTO 0x096E
271: 0x094B [0x45] LOAD_SCHEDULED_TASK: Load scheduler "29tr" with entities [LocalPlayer, LocalPlayer], work=[177*, 0*]
272: 0x095C [0x55] WAIT_LOAD_SCHEDULER: Wait for scheduler "29tr" with entities [LocalPlayer, LocalPlayer], work=177*
273: 0x096B [0x01] GOTO 0x09EF
274: 0x096E [0x02] IF !(ExtData[1]->WorkLocal[0] == 6*) GOTO 0x0999
275: 0x0976 [0x45] LOAD_SCHEDULED_TASK: Load scheduler "29tr" with entities [LocalPlayer, LocalPlayer], work=[177*, 0*]
276: 0x0987 [0x55] WAIT_LOAD_SCHEDULER: Wait for scheduler "29tr" with entities [LocalPlayer, LocalPlayer], work=177*
277: 0x0996 [0x01] GOTO 0x09EF
278: 0x0999 [0x02] IF !(ExtData[1]->WorkLocal[0] == 7*) GOTO 0x09C4
279: 0x09A1 [0x45] LOAD_SCHEDULED_TASK: Load scheduler "29mt" with entities [LocalPlayer, LocalPlayer], work=[177*, 0*]
280: 0x09B2 [0x55] WAIT_LOAD_SCHEDULER: Wait for scheduler "29mt" with entities [LocalPlayer, LocalPlayer], work=177*
281: 0x09C1 [0x01] GOTO 0x09EF
282: 0x09C4 [0x02] IF !(ExtData[1]->WorkLocal[0] == 8*) GOTO 0x09EF
283: 0x09CC [0x45] LOAD_SCHEDULED_TASK: Load scheduler "29gl" with entities [LocalPlayer, LocalPlayer], work=[177*, 0*]
284: 0x09DD [0x55] WAIT_LOAD_SCHEDULER: Wait for scheduler "29gl" with entities [LocalPlayer, LocalPlayer], work=177*
285: 0x09EC [0x01] GOTO 0x09EF

SUBROUTINE_09EF:
286: 0x09EF [0x1A] CALL_SUBROUTINE(address=0x324E)
287: 0x09F2 [0x1C] WAIT(15* ticks)
288: 0x09F5 [0x4A] LocalPlayer looks at Prishe (ID: 16912918/0x01021216)
289: 0x09FE [0x45] LOAD_SCHEDULED_TASK: Load scheduler "c530" with entities [LocalPlayer, LocalPlayer], work=[177*, 0*]
290: 0x0A0F [0x1A] CALL_SUBROUTINE(address=0x322D)
291: 0x0A12 [0x55] WAIT_LOAD_SCHEDULER: Wait for scheduler "c530" with entities [LocalPlayer, LocalPlayer], work=177*
292: 0x0A21 [0x2B] Prishe (ID: 16912918/0x01021216) [7356*]:
    → "I'm sure you've noticed it by now, <Player>. Your ability to hear the whisper of the soul..."
293: 0x0A28 [0x23] WAIT_FOR_DIALOG_INTERACTION
294: 0x0A29 [0x45] LOAD_SCHEDULED_TASK: Load scheduler "c532" with entities [LocalPlayer, LocalPlayer], work=[177*, 0*]
295: 0x0A3A [0x2B] Prishe (ID: 16912918/0x01021216) [7357*]:
    → "Passed through the medium of the amulet, the light gathered from the four crystals has changed you."
296: 0x0A41 [0x23] WAIT_FOR_DIALOG_INTERACTION
297: 0x0A42 [0x52] END_LOAD_SCHEDULER: End scheduler "c532" with entities [LocalPlayer, LocalPlayer], work=177*
298: 0x0A51 [0x45] LOAD_SCHEDULED_TASK: Load scheduler "c533" with entities [LocalPlayer, LocalPlayer], work=[177*, 0*]
299: 0x0A62 [0x4A] LocalPlayer looks at Selh'teus (ID: 16912919/0x01021217)
300: 0x0A6B [0x4A] Ulmia (ID: 16912920/0x01021218) looks at LocalPlayer
301: 0x0A74 [0x4A] Shikaree Z (ID: 16912923/0x0102121B) looks at LocalPlayer
302: 0x0A7D [0x4A] Jabbos (ID: 16912922/0x0102121A) looks at LocalPlayer
303: 0x0A86 [0x4A] Louverance (ID: 16912924/0x0102121C) looks at LocalPlayer
304: 0x0A8F [0x79] Tenzen (ID: 16912921/0x01021219) looks at LocalPlayer (Basic look)
305: 0x0A99 [0x5B] LOAD_EXT_SCHEDULER: Load scheduler "tlb0" with entities [Tenzen (ID: 16912921/0x01021219), Tenzen (ID: 16912921/0x01021219)], work=425*
306: 0x0AA8 [0x2B] Tenzen (ID: 16912921/0x01021219) [7358*]:
    → "Phoenix referred to you as the "Vessel of Light.""
307: 0x0AAF [0x23] WAIT_FOR_DIALOG_INTERACTION
308: 0x0AB0 [0x5B] LOAD_EXT_SCHEDULER: Load scheduler "tlb1" with entities [Tenzen (ID: 16912921/0x01021219), Tenzen (ID: 16912921/0x01021219)], work=425*
309: 0x0ABF [0x53] WAIT_SCHEDULER_TASK: Wait for scheduler "tlb1" with entities [Tenzen (ID: 16912921/0x01021219), Tenzen (ID: 16912921/0x01021219)]
310: 0x0ACC [0x52] END_LOAD_SCHEDULER: End scheduler "c533" with entities [LocalPlayer, LocalPlayer], work=177*
311: 0x0ADB [0x45] LOAD_SCHEDULED_TASK: Load scheduler "c534" with entities [LocalPlayer, LocalPlayer], work=[177*, 0*]
312: 0x0AEC [0x2B] Tenzen (ID: 16912921/0x01021219) [7359*]:
    → "Fated to be smashed open before the fifth mothercrystal..."
313: 0x0AF3 [0x23] WAIT_FOR_DIALOG_INTERACTION
314: 0x0AF4 [0x5B] LOAD_EXT_SCHEDULER: Load scheduler "gb00" with entities [Louverance (ID: 16912924/0x0102121C), Louverance (ID: 16912924/0x0102121C)], work=419*
315: 0x0B03 [0x5B] LOAD_EXT_SCHEDULER: Load scheduler "bik0" with entities [Ulmia (ID: 16912920/0x01021218), Ulmia (ID: 16912920/0x01021218)], work=420*
316: 0x0B12 [0x52] END_LOAD_SCHEDULER: End scheduler "c534" with entities [LocalPlayer, LocalPlayer], work=177*
317: 0x0B21 [0x45] LOAD_SCHEDULED_TASK: Load scheduler "c535" with entities [LocalPlayer, LocalPlayer], work=[177*, 0*]
318: 0x0B32 [0x55] WAIT_LOAD_SCHEDULER: Wait for scheduler "c535" with entities [LocalPlayer, LocalPlayer], work=177*
319: 0x0B41 [0x1A] CALL_SUBROUTINE(address=0x324E)
320: 0x0B44 [0x1C] WAIT(15* ticks)
321: 0x0B47 [0x27] REQ_SET(priority=0x10, entity_id=Unnamed NPC (ID: 16912915/0x01021213), tag_num=0x05)
322: 0x0B4E [0x45] LOAD_SCHEDULED_TASK: Load scheduler "c536" with entities [LocalPlayer, LocalPlayer], work=[177*, 0*]
323: 0x0B5F [0x1A] CALL_SUBROUTINE(address=0x322D)
324: 0x0B62 [0x55] WAIT_LOAD_SCHEDULER: Wait for scheduler "c536" with entities [LocalPlayer, LocalPlayer], work=177*
325: 0x0B71 [0x1A] CALL_SUBROUTINE(address=0x324E)
326: 0x0B74 [0x1C] WAIT(15* ticks)
327: 0x0B77 [0x45] LOAD_SCHEDULED_TASK: Load scheduler "c537" with entities [LocalPlayer, LocalPlayer], work=[177*, 0*]
328: 0x0B88 [0x1A] CALL_SUBROUTINE(address=0x322D)
329: 0x0B8B [0x55] WAIT_LOAD_SCHEDULER: Wait for scheduler "c537" with entities [LocalPlayer, LocalPlayer], work=177*
330: 0x0B9A [0x1A] CALL_SUBROUTINE(address=0x324E)
331: 0x0B9D [0x1C] WAIT(15* ticks)
332: 0x0BA0 [0x27] REQ_SET(priority=0x10, entity_id=Unnamed NPC (ID: 16912915/0x01021213), tag_num=0x07)
333: 0x0BA7 [0x6C] FADE_ENTITY_COLOR(entity_id=LocalPlayer, end_alpha=0*, fade_time=1*)
334: 0x0BB0 [0x29] REQ_SET_WAIT(priority=0x10, entity_id=Selh'teus (ID: 16912919/0x01021217), tag_num=0x0B)
335: 0x0BB7 [0x5B] LOAD_EXT_SCHEDULER: Load scheduler "c507" with entities [Selh'teus (ID: 16912919/0x01021217), Selh'teus (ID: 16912919/0x01021217)], work=462*
336: 0x0BC6 [0x45] LOAD_SCHEDULED_TASK: Load scheduler "c538" with entities [LocalPlayer, LocalPlayer], work=[177*, 0*]
337: 0x0BD7 [0x1A] CALL_SUBROUTINE(address=0x322D)
338: 0x0BDA [0x2B] Selh'teus (ID: 16912919/0x01021217) [7361*]:
    → "(Your journey has been for the sake of the crystal.)"
339: 0x0BE1 [0x23] WAIT_FOR_DIALOG_INTERACTION
340: 0x0BE2 [0x2B] Selh'teus (ID: 16912919/0x01021217) [7362*]:
    → "(Your adventure is now at an end.)"
341: 0x0BE9 [0x23] WAIT_FOR_DIALOG_INTERACTION
342: 0x0BEA [0x53] WAIT_SCHEDULER_TASK: Wait for scheduler "c507" with entities [Selh'teus (ID: 16912919/0x01021217), Selh'teus (ID: 16912919/0x01021217)]
343: 0x0BF7 [0x27] REQ_SET(priority=0x10, entity_id=Selh'teus (ID: 16912919/0x01021217), tag_num=0x11)
344: 0x0BFE [0x5B] LOAD_EXT_SCHEDULER: Load scheduler "c509" with entities [Selh'teus (ID: 16912919/0x01021217), Selh'teus (ID: 16912919/0x01021217)], work=462*
345: 0x0C0D [0x45] LOAD_SCHEDULED_TASK: Load scheduler "03se" with entities [LocalPlayer, LocalPlayer], work=[177*, 0*]
346: 0x0C1E [0x1C] WAIT(45* ticks)
347: 0x0C21 [0x2B] Selh'teus (ID: 16912919/0x01021217) [7363*]:
    → "(Return, <Player>. Return to the light of the crystal.)"
348: 0x0C28 [0x23] WAIT_FOR_DIALOG_INTERACTION
349: 0x0C29 [0x55] WAIT_LOAD_SCHEDULER: Wait for scheduler "c538" with entities [LocalPlayer, LocalPlayer], work=177*
350: 0x0C38 [0x27] REQ_SET(priority=0x10, entity_id=Unnamed NPC (ID: 16912915/0x01021213), tag_num=0x09)
351: 0x0C3F [0x45] LOAD_SCHEDULED_TASK: Load scheduler "blou" with entities [LocalPlayer, LocalPlayer], work=[177*, 0*]
352: 0x0C50 [0x55] WAIT_LOAD_SCHEDULER: Wait for scheduler "blou" with entities [LocalPlayer, LocalPlayer], work=177*
353: 0x0C5F [0x1C] WAIT(180* ticks)
354: 0x0C62 [0x48] [System] [7515*]:
    → ""
355: 0x0C65 [0x23] WAIT_FOR_DIALOG_INTERACTION
356: 0x0C66 [0x48] [System] [7364*]:
    → "(Your death is the only way to save both Vana'diel and her people...)"
357: 0x0C69 [0x23] WAIT_FOR_DIALOG_INTERACTION
358: 0x0C6A [0x48] [System] [7515*]:
    → ""
359: 0x0C6D [0x23] WAIT_FOR_DIALOG_INTERACTION
360: 0x0C6E [0x27] REQ_SET(priority=0x10, entity_id=Unnamed NPC (ID: 16912930/0x01021222), tag_num=0x02)
361: 0x0C75 [0x4A] Tenzen (ID: 16912921/0x01021219) looks at Prishe (ID: 16912918/0x01021216)
362: 0x0C7E [0x6C] FADE_ENTITY_COLOR(entity_id=LocalPlayer, end_alpha=128*, fade_time=1*)
363: 0x0C87 [0x29] REQ_SET_WAIT(priority=0x10, entity_id=LocalPlayer, tag_num=0x18)
364: 0x0C8E [0x29] REQ_SET_WAIT(priority=0x10, entity_id=Unnamed NPC (ID: 16912930/0x01021222), tag_num=0x09)
365: 0x0C95 [0x5B] LOAD_EXT_SCHEDULER: Load scheduler "c510" with entities [Selh'teus (ID: 16912919/0x01021217), Selh'teus (ID: 16912919/0x01021217)], work=463*
366: 0x0CA4 [0x29] REQ_SET_WAIT(priority=0x10, entity_id=Prishe (ID: 16912918/0x01021216), tag_num=0x0A)
367: 0x0CAB [0x5B] LOAD_EXT_SCHEDULER: Load scheduler "c501" with entities [Prishe (ID: 16912918/0x01021216), Prishe (ID: 16912918/0x01021216)], work=686*
368: 0x0CBA [0x53] WAIT_SCHEDULER_TASK: Wait for scheduler "c501" with entities [Prishe (ID: 16912918/0x01021216), Prishe (ID: 16912918/0x01021216)]
369: 0x0CC7 [0x2B] ??? (ID: 16912916/0x01021214) [7365*]:
    → "Like hell!"
370: 0x0CCE [0x23] WAIT_FOR_DIALOG_INTERACTION
371: 0x0CCF [0x6A] CHANGE_SOUND_VOLUME: Set (Effects/System/Zone/Master)* volume to 999*, fade_time=1*
372: 0x0CD6 [0x45] LOAD_SCHEDULED_TASK: Load scheduler "c540" with entities [LocalPlayer, LocalPlayer], work=[177*, 0*]
373: 0x0CE7 [0x1C] WAIT(15* ticks)
374: 0x0CEA [0x1A] CALL_SUBROUTINE(address=0x30DA)
375: 0x0CED [0x55] WAIT_LOAD_SCHEDULER: Wait for scheduler "c540" with entities [LocalPlayer, LocalPlayer], work=177*
376: 0x0CFC [0x5C] MUSIC_CONTROL: Set Idle (Day) music to song 153*
377: 0x0D00 [0x5C] MUSIC_CONTROL: Set Idle (Night) music to song 153*
378: 0x0D04 [0x9A] WAIT_MUSIC_SERVER()
379: 0x0D05 [0x45] LOAD_SCHEDULED_TASK: Load scheduler "c541" with entities [LocalPlayer, LocalPlayer], work=[177*, 0*]
380: 0x0D16 [0x55] WAIT_LOAD_SCHEDULER: Wait for scheduler "c541" with entities [LocalPlayer, LocalPlayer], work=177*
381: 0x0D25 [0x45] LOAD_SCHEDULED_TASK: Load scheduler "c542" with entities [LocalPlayer, LocalPlayer], work=[177*, 0*]
382: 0x0D36 [0x5B] LOAD_EXT_SCHEDULER: Load scheduler "c502" with entities [Prishe (ID: 16912918/0x01021216), Prishe (ID: 16912918/0x01021216)], work=686*
383: 0x0D45 [0x1C] WAIT(30* ticks)
384: 0x0D48 [0x2B] Prishe (ID: 16912918/0x01021216) [7366*]:
    → "Selh'teus! If you mean to save both the world and everyone in it, then someone inhuman like you or me should be sacrificed!"
385: 0x0D4F [0x23] WAIT_FOR_DIALOG_INTERACTION
386: 0x0D50 [0x52] END_LOAD_SCHEDULER: End scheduler "c542" with entities [LocalPlayer, LocalPlayer], work=177*
387: 0x0D5F [0x45] LOAD_SCHEDULED_TASK: Load scheduler "c543" with entities [LocalPlayer, LocalPlayer], work=[177*, 0*]
388: 0x0D70 [0x55] WAIT_LOAD_SCHEDULER: Wait for scheduler "c543" with entities [LocalPlayer, LocalPlayer], work=177*
389: 0x0D7F [0x7B] Tenzen (ID: 16912921/0x01021219) stops talking
390: 0x0D84 [0x5B] LOAD_EXT_SCHEDULER: Load scheduler "cy00" with entities [Tenzen (ID: 16912921/0x01021219), Tenzen (ID: 16912921/0x01021219)], work=642*
391: 0x0D93 [0x45] LOAD_SCHEDULED_TASK: Load scheduler "c544" with entities [LocalPlayer, LocalPlayer], work=[177*, 0*]
392: 0x0DA4 [0x5B] LOAD_EXT_SCHEDULER: Load scheduler "c503" with entities [Prishe (ID: 16912918/0x01021216), Prishe (ID: 16912918/0x01021216)], work=686*
393: 0x0DB3 [0x2B] Prishe (ID: 16912918/0x01021216) [7367*]:
    → "And you, Tenzen! Phoenix, the avatar of rebirth, can't have led you this far just to snuff out <Player>'s life!"
394: 0x0DBA [0x23] WAIT_FOR_DIALOG_INTERACTION
395: 0x0DBB [0x52] END_LOAD_SCHEDULER: End scheduler "c544" with entities [LocalPlayer, LocalPlayer], work=177*
396: 0x0DCA [0x45] LOAD_SCHEDULED_TASK: Load scheduler "c545" with entities [LocalPlayer, LocalPlayer], work=[177*, 0*]
397: 0x0DDB [0x2B] Prishe (ID: 16912918/0x01021216) [7368*]:
    → "Surely she meant to resurrect the shattered pieces of <Player>'s spirit using her own lifeforce!"
398: 0x0DE2 [0x23] WAIT_FOR_DIALOG_INTERACTION
399: 0x0DE3 [0x52] END_LOAD_SCHEDULER: End scheduler "c545" with entities [LocalPlayer, LocalPlayer], work=177*
400: 0x0DF2 [0x45] LOAD_SCHEDULED_TASK: Load scheduler "c546" with entities [LocalPlayer, LocalPlayer], work=[177*, 0*]
401: 0x0E03 [0x5B] LOAD_EXT_SCHEDULER: Load scheduler "cy01" with entities [Tenzen (ID: 16912921/0x01021219), Tenzen (ID: 16912921/0x01021219)], work=642*
402: 0x0E12 [0x55] WAIT_LOAD_SCHEDULER: Wait for scheduler "c546" with entities [LocalPlayer, LocalPlayer], work=177*
403: 0x0E21 [0x6C] FADE_ENTITY_COLOR(entity_id=Selh'teus (ID: 16912919/0x01021217), end_alpha=0*, fade_time=1*)
404: 0x0E2A [0x45] LOAD_SCHEDULED_TASK: Load scheduler "c547" with entities [LocalPlayer, LocalPlayer], work=[177*, 0*]
405: 0x0E3B [0x27] REQ_SET(priority=0x10, entity_id=Unnamed NPC (ID: 16912915/0x01021213), tag_num=0x08)
406: 0x0E42 [0x27] REQ_SET(priority=0x10, entity_id=Selh'teus (ID: 16912919/0x01021217), tag_num=0x0C)
407: 0x0E49 [0x81] SET_ENTITY_BLINKING(blink_flag=0x00, entity=Prishe (ID: 16912918/0x01021216))
408: 0x0E4F [0x45] LOAD_SCHEDULED_TASK: Load scheduler "04se" with entities [LocalPlayer, LocalPlayer], work=[177*, 0*]
409: 0x0E60 [0x5B] LOAD_EXT_SCHEDULER: Load scheduler "c504" with entities [Prishe (ID: 16912918/0x01021216), Prishe (ID: 16912918/0x01021216)], work=686*
410: 0x0E6F [0x2B] Prishe (ID: 16912918/0x01021216) [7369*]:
    → "I was the Keeper of the Apocalypse once. I know only too well the fear and horror that await us."
411: 0x0E76 [0x23] WAIT_FOR_DIALOG_INTERACTION
412: 0x0E77 [0x53] WAIT_SCHEDULER_TASK: Wait for scheduler "c504" with entities [Prishe (ID: 16912918/0x01021216), Prishe (ID: 16912918/0x01021216)]
413: 0x0E84 [0x55] WAIT_LOAD_SCHEDULER: Wait for scheduler "c548" with entities [LocalPlayer, LocalPlayer], work=177*
414: 0x0E93 [0x5B] LOAD_EXT_SCHEDULER: Load scheduler "c505" with entities [Prishe (ID: 16912918/0x01021216), Prishe (ID: 16912918/0x01021216)], work=687*
415: 0x0EA2 [0x1C] WAIT(30* ticks)
416: 0x0EA5 [0x45] LOAD_SCHEDULED_TASK: Load scheduler "c549" with entities [LocalPlayer, LocalPlayer], work=[177*, 0*]
417: 0x0EB6 [0x2B] Prishe (ID: 16912918/0x01021216) [7370*]:
    → "But you gotta listen to me, Selh'teus! Pour the energy of the fifth mothercrystal into <Player>!"
418: 0x0EBD [0x23] WAIT_FOR_DIALOG_INTERACTION
419: 0x0EBE [0x52] END_LOAD_SCHEDULER: End scheduler "c549" with entities [LocalPlayer, LocalPlayer], work=177*
420: 0x0ECD [0x45] LOAD_SCHEDULED_TASK: Load scheduler "c550" with entities [LocalPlayer, LocalPlayer], work=[177*, 0*]
421: 0x0EDE [0x2B] Prishe (ID: 16912918/0x01021216) [7371*]:
    → "[His/Her] victories against the Emptiness and everything else we've faced have not been won through the power of the four crystals alone."
422: 0x0EE5 [0x23] WAIT_FOR_DIALOG_INTERACTION
423: 0x0EE6 [0x2B] Prishe (ID: 16912918/0x01021216) [7372*]:
    → "<Player> has an inner strength. A spirit that loves this world and those who dwell upon it."
424: 0x0EED [0x23] WAIT_FOR_DIALOG_INTERACTION
425: 0x0EEE [0x5B] LOAD_EXT_SCHEDULER: Load scheduler "c506" with entities [Prishe (ID: 16912918/0x01021216), Prishe (ID: 16912918/0x01021216)], work=687*
426: 0x0EFD [0x52] END_LOAD_SCHEDULER: End scheduler "c550" with entities [LocalPlayer, LocalPlayer], work=177*
427: 0x0F0C [0x45] LOAD_SCHEDULED_TASK: Load scheduler "c552" with entities [LocalPlayer, LocalPlayer], work=[177*, 0*]
428: 0x0F1D [0x2B] Prishe (ID: 16912918/0x01021216) [7373*]:
    → "That's why I believe [he/she] will prevail against the keeper!"
429: 0x0F24 [0x23] WAIT_FOR_DIALOG_INTERACTION
430: 0x0F25 [0x5B] LOAD_EXT_SCHEDULER: Load scheduler "c507" with entities [Prishe (ID: 16912918/0x01021216), Prishe (ID: 16912918/0x01021216)], work=687*
431: 0x0F34 [0x45] LOAD_SCHEDULED_TASK: Load scheduler "05se" with entities [LocalPlayer, LocalPlayer], work=[177*, 0*]
432: 0x0F45 [0x2B] Prishe (ID: 16912918/0x01021216) [7374*]:
    → "Selh'teus! Open the way to Al'Taieu!"
433: 0x0F4C [0x23] WAIT_FOR_DIALOG_INTERACTION
434: 0x0F4D [0x27] REQ_SET(priority=0x10, entity_id=??? (ID: 16912916/0x01021214), tag_num=0x07)
435: 0x0F54 [0x52] END_LOAD_SCHEDULER: End scheduler "c552" with entities [LocalPlayer, LocalPlayer], work=177*
436: 0x0F63 [0x45] LOAD_SCHEDULED_TASK: Load scheduler "c553" with entities [LocalPlayer, LocalPlayer], work=[177*, 0*]
437: 0x0F74 [0x55] WAIT_LOAD_SCHEDULER: Wait for scheduler "c553" with entities [LocalPlayer, LocalPlayer], work=177*
438: 0x0F83 [0x45] LOAD_SCHEDULED_TASK: Load scheduler "c554" with entities [LocalPlayer, LocalPlayer], work=[177*, 0*]
439: 0x0F94 [0x1C] WAIT(480* ticks)
440: 0x0F97 [0x5B] LOAD_EXT_SCHEDULER: Load scheduler "c512" with entities [Selh'teus (ID: 16912919/0x01021217), Selh'teus (ID: 16912919/0x01021217)], work=463*
441: 0x0FA6 [0x45] LOAD_SCHEDULED_TASK: Load scheduler "06se" with entities [LocalPlayer, LocalPlayer], work=[177*, 0*]
442: 0x0FB7 [0x1C] WAIT(150* ticks)
443: 0x0FBA [0x45] LOAD_SCHEDULED_TASK: Load scheduler "5s05" with entities [LocalPlayer, LocalPlayer], work=[177*, 0*]
444: 0x0FCB [0x2D] CREATE_ZONE_SCHEDULER_TASK: Create scheduler "lop6" with entities [EventEntity, EventEntity]
445: 0x0FD8 [0x1C] WAIT(75* ticks)
446: 0x0FDB [0x1A] CALL_SUBROUTINE(address=0x324E)
447: 0x0FDE [0x1C] WAIT(15* ticks)
448: 0x0FE1 [0x52] END_LOAD_SCHEDULER: End scheduler "c554" with entities [LocalPlayer, LocalPlayer], work=177*
449: 0x0FF0 [0x9F] LOAD_SCHEDULED_TASK_ALT: Load scheduler "str0" with entities [LocalPlayer, LocalPlayer], work=[61*, 0*]
450: 0x1001 [0x45] LOAD_SCHEDULED_TASK: Load scheduler "c555" with entities [LocalPlayer, LocalPlayer], work=[177*, 0*]
451: 0x1012 [0x1A] CALL_SUBROUTINE(address=0x322D)
452: 0x1015 [0x55] WAIT_LOAD_SCHEDULER: Wait for scheduler "c555" with entities [LocalPlayer, LocalPlayer], work=177*
453: 0x1024 [0x1A] CALL_SUBROUTINE(address=0x324E)
454: 0x1027 [0x1C] WAIT(15* ticks)
455: 0x102A [0x5B] LOAD_EXT_SCHEDULER: Load scheduler "c508" with entities [Prishe (ID: 16912918/0x01021216), Prishe (ID: 16912918/0x01021216)], work=687*
456: 0x1039 [0x45] LOAD_SCHEDULED_TASK: Load scheduler "z004" with entities [LocalPlayer, LocalPlayer], work=[177*, 0*]
457: 0x104A [0x1A] CALL_SUBROUTINE(address=0x322D)
458: 0x104D [0x5D] SET_MUSIC_VOLUME(volume=0*, fade_time=120*)
459: 0x1052 [0x73] Unnamed NPC (ID: 16912930/0x01021222) casts magic 211* on Unnamed NPC (ID: 16912930/0x01021222)
460: 0x105D [0x1C] WAIT(30* ticks)
461: 0x1060 [0x52] END_LOAD_SCHEDULER: End scheduler "z004" with entities [LocalPlayer, LocalPlayer], work=177*
462: 0x106F [0x45] LOAD_SCHEDULED_TASK: Load scheduler "c556" with entities [LocalPlayer, LocalPlayer], work=[177*, 0*]
463: 0x1080 [0x1C] WAIT(130* ticks)
464: 0x1083 [0x1A] CALL_SUBROUTINE(address=0x313D)
465: 0x1086 [0x1C] WAIT(30* ticks)
466: 0x1089 [0x6B] STOP_AND_IDLE: Tenzen (ID: 16912921/0x01021219) stops current action and resets to idle (animation="idl0")
467: 0x1092 [0x6B] STOP_AND_IDLE: Selh'teus (ID: 16912919/0x01021217) stops current action and resets to idle (animation="idl0")
468: 0x109B [0x27] REQ_SET(priority=0x10, entity_id=??? (ID: 16912916/0x01021214), tag_num=0x06)
469: 0x10A2 [0x27] REQ_SET(priority=0x10, entity_id=Prishe (ID: 16912918/0x01021216), tag_num=0x0B)
470: 0x10A9 [0x27] REQ_SET(priority=0x10, entity_id=Selh'teus (ID: 16912919/0x01021217), tag_num=0x0D)
471: 0x10B0 [0x29] REQ_SET_WAIT(priority=0x10, entity_id=LocalPlayer, tag_num=0x17)
472: 0x10B7 [0x7B] LocalPlayer stops talking
473: 0x10BC [0x27] REQ_SET(priority=0x10, entity_id=Nag'molada (ID: 16912925/0x0102121D), tag_num=0x13)
474: 0x10C3 [0x6C] FADE_ENTITY_COLOR(entity_id=Nag'molada (ID: 16912925/0x0102121D), end_alpha=128*, fade_time=1*)
475: 0x10CC [0x5B] LOAD_EXT_SCHEDULER: Load scheduler "c501" with entities [Nag'molada (ID: 16912925/0x0102121D), Nag'molada (ID: 16912925/0x0102121D)], work=646*
476: 0x10DB [0x5B] LOAD_EXT_SCHEDULER: Load scheduler "c509" with entities [Prishe (ID: 16912918/0x01021216), Prishe (ID: 16912918/0x01021216)], work=688*
477: 0x10EA [0x1C] WAIT(15* ticks)
478: 0x10ED [0x55] WAIT_LOAD_SCHEDULER: Wait for scheduler "c556" with entities [LocalPlayer, LocalPlayer], work=177*
479: 0x10FC [0x45] LOAD_SCHEDULED_TASK: Load scheduler "z001" with entities [LocalPlayer, LocalPlayer], work=[177*, 0*]
480: 0x110D [0x5B] LOAD_EXT_SCHEDULER: Load scheduler "c510" with entities [Prishe (ID: 16912918/0x01021216), Prishe (ID: 16912918/0x01021216)], work=688*
481: 0x111C [0x45] LOAD_SCHEDULED_TASK: Load scheduler "whi1" with entities [LocalPlayer, LocalPlayer], work=[201*, 0*]
482: 0x112D [0x55] WAIT_LOAD_SCHEDULER: Wait for scheduler "z001" with entities [LocalPlayer, LocalPlayer], work=177*
483: 0x113C [0x1C] WAIT(30* ticks)
484: 0x113F [0x5B] LOAD_EXT_SCHEDULER: Load scheduler "c400" with entities [Ulmia (ID: 16912920/0x01021218), Ulmia (ID: 16912920/0x01021218)], work=424*
485: 0x114E [0x45] LOAD_SCHEDULED_TASK: Load scheduler "c558" with entities [LocalPlayer, LocalPlayer], work=[177*, 0*]
486: 0x115F [0x55] WAIT_LOAD_SCHEDULER: Wait for scheduler "c558" with entities [LocalPlayer, LocalPlayer], work=177*
487: 0x116E [0x1A] CALL_SUBROUTINE(address=0x324E)
488: 0x1171 [0x45] LOAD_SCHEDULED_TASK: Load scheduler "5s37" with entities [LocalPlayer, LocalPlayer], work=[177*, 0*]
489: 0x1182 [0x1C] WAIT(15* ticks)
490: 0x1185 [0x9F] LOAD_SCHEDULED_TASK_ALT: Load scheduler "kill" with entities [LocalPlayer, LocalPlayer], work=[61*, 0*]
491: 0x1196 [0x5B] LOAD_EXT_SCHEDULER: Load scheduler "c513" with entities [Selh'teus (ID: 16912919/0x01021217), Selh'teus (ID: 16912919/0x01021217)], work=463*
492: 0x11A5 [0x45] LOAD_SCHEDULED_TASK: Load scheduler "c559" with entities [LocalPlayer, LocalPlayer], work=[177*, 0*]
493: 0x11B6 [0x1A] CALL_SUBROUTINE(address=0x322D)
494: 0x11B9 [0x27] REQ_SET(priority=0x10, entity_id=Unnamed NPC (ID: 16912917/0x01021215), tag_num=0x02)
495: 0x11C0 [0x55] WAIT_LOAD_SCHEDULER: Wait for scheduler "c559" with entities [LocalPlayer, LocalPlayer], work=177*
496: 0x11CF [0x45] LOAD_SCHEDULED_TASK: Load scheduler "c561" with entities [LocalPlayer, LocalPlayer], work=[177*, 0*]
497: 0x11E0 [0x27] REQ_SET(priority=0x10, entity_id=Selh'teus (ID: 16912919/0x01021217), tag_num=0x0E)
498: 0x11E7 [0x27] REQ_SET(priority=0x10, entity_id=Tenzen (ID: 16912921/0x01021219), tag_num=0x0C)
499: 0x11EE [0x5B] LOAD_EXT_SCHEDULER: Load scheduler "cy00" with entities [Tenzen (ID: 16912921/0x01021219), Tenzen (ID: 16912921/0x01021219)], work=642*
500: 0x11FD [0x5B] LOAD_EXT_SCHEDULER: Load scheduler "c514" with entities [Selh'teus (ID: 16912919/0x01021217), Selh'teus (ID: 16912919/0x01021217)], work=463*
501: 0x120C [0x55] WAIT_LOAD_SCHEDULER: Wait for scheduler "c561" with entities [LocalPlayer, LocalPlayer], work=177*
502: 0x121B [0x5C] MUSIC_CONTROL: Set Idle (Day) music to song 224*
503: 0x121F [0x5C] MUSIC_CONTROL: Set Idle (Night) music to song 224*
504: 0x1223 [0x9A] WAIT_MUSIC_SERVER()
505: 0x1224 [0x5B] LOAD_EXT_SCHEDULER: Load scheduler "c514" with entities [Prishe (ID: 16912918/0x01021216), Prishe (ID: 16912918/0x01021216)], work=688*
506: 0x1233 [0x27] REQ_SET(priority=0x10, entity_id=Nag'molada (ID: 16912925/0x0102121D), tag_num=0x0B)
507: 0x123A [0x5B] LOAD_EXT_SCHEDULER: Load scheduler "c502" with entities [Nag'molada (ID: 16912925/0x0102121D), Nag'molada (ID: 16912925/0x0102121D)], work=646*
508: 0x1249 [0x45] LOAD_SCHEDULED_TASK: Load scheduler "c562" with entities [LocalPlayer, LocalPlayer], work=[177*, 0*]
509: 0x125A [0x55] WAIT_LOAD_SCHEDULER: Wait for scheduler "c562" with entities [LocalPlayer, LocalPlayer], work=177*
510: 0x1269 [0x45] LOAD_SCHEDULED_TASK: Load scheduler "c564" with entities [LocalPlayer, LocalPlayer], work=[177*, 0*]
511: 0x127A [0x5B] LOAD_EXT_SCHEDULER: Load scheduler "c503" with entities [Nag'molada (ID: 16912925/0x0102121D), Nag'molada (ID: 16912925/0x0102121D)], work=646*
512: 0x1289 [0x1C] WAIT(150* ticks)
513: 0x128C [0x52] END_LOAD_SCHEDULER: End scheduler "c564" with entities [LocalPlayer, LocalPlayer], work=177*
514: 0x129B [0x45] LOAD_SCHEDULED_TASK: Load scheduler "c565" with entities [LocalPlayer, LocalPlayer], work=[177*, 0*]
515: 0x12AC [0x1C] WAIT(45* ticks)
516: 0x12AF [0x2B] Nag'molada (ID: 16912925/0x0102121D) [7375*]:
    → "I, too, wish for the way to be opened."
517: 0x12B6 [0x23] WAIT_FOR_DIALOG_INTERACTION
518: 0x12B7 [0x7B] Tenzen (ID: 16912921/0x01021219) stops talking
519: 0x12BC [0x52] END_LOAD_SCHEDULER: End scheduler "c565" with entities [LocalPlayer, LocalPlayer], work=177*
520: 0x12CB [0x27] REQ_SET(priority=0x10, entity_id=Unnamed NPC (ID: 16912915/0x01021213), tag_num=0x06)
521: 0x12D2 [0x5B] LOAD_EXT_SCHEDULER: Load scheduler "cy02" with entities [Tenzen (ID: 16912921/0x01021219), Tenzen (ID: 16912921/0x01021219)], work=642*
522: 0x12E1 [0x45] LOAD_SCHEDULED_TASK: Load scheduler "c566" with entities [LocalPlayer, LocalPlayer], work=[177*, 0*]
523: 0x12F2 [0x1C] WAIT(30* ticks)
524: 0x12F5 [0x2B] Tenzen (ID: 16912921/0x01021219) [7376*]:
    → "Nag'molada!?"
525: 0x12FC [0x23] WAIT_FOR_DIALOG_INTERACTION
526: 0x12FD [0x27] REQ_SET(priority=0x10, entity_id=Nag'molada (ID: 16912925/0x0102121D), tag_num=0x0C)
527: 0x1304 [0x5B] LOAD_EXT_SCHEDULER: Load scheduler "c504" with entities [Nag'molada (ID: 16912925/0x0102121D), Nag'molada (ID: 16912925/0x0102121D)], work=646*
528: 0x1313 [0x52] END_LOAD_SCHEDULER: End scheduler "c566" with entities [LocalPlayer, LocalPlayer], work=177*
529: 0x1322 [0x45] LOAD_SCHEDULED_TASK: Load scheduler "c567" with entities [LocalPlayer, LocalPlayer], work=[177*, 0*]
530: 0x1333 [0x27] REQ_SET(priority=0x10, entity_id=Tenzen (ID: 16912921/0x01021219), tag_num=0x0D)
531: 0x133A [0x27] REQ_SET(priority=0x10, entity_id=Selh'teus (ID: 16912919/0x01021217), tag_num=0x0F)
532: 0x1341 [0x27] REQ_SET(priority=0x10, entity_id=Ulmia (ID: 16912920/0x01021218), tag_num=0x0B)
533: 0x1348 [0x27] REQ_SET(priority=0x10, entity_id=Shikaree Z (ID: 16912923/0x0102121B), tag_num=0x0B)
534: 0x134F [0x27] REQ_SET(priority=0x10, entity_id=Jabbos (ID: 16912922/0x0102121A), tag_num=0x0C)
535: 0x1356 [0x27] REQ_SET(priority=0x10, entity_id=Louverance (ID: 16912924/0x0102121C), tag_num=0x0B)
536: 0x135D [0x29] REQ_SET_WAIT(priority=0x10, entity_id=Unnamed NPC (ID: 16912930/0x01021222), tag_num=0x0A)
537: 0x1364 [0x1C] WAIT(90* ticks)
538: 0x1367 [0x2B] Nag'molada (ID: 16912925/0x0102121D) [7377*]:
    → "Didn't you once say the same thing, Selh'teus?"
539: 0x136E [0x1C] WAIT(270* ticks)
540: 0x1371 [0x2B] Nag'molada (ID: 16912925/0x0102121D) [7378*]:
    → ""I will prevail against the deity that dwells beyond the Gate of the Gods. Open the way to Al'Taieu." Weren't those the words you used?"
541: 0x1378 [0x23] WAIT_FOR_DIALOG_INTERACTION
542: 0x1379 [0x53] WAIT_SCHEDULER_TASK: Wait for scheduler "c504" with entities [Nag'molada (ID: 16912925/0x0102121D), Nag'molada (ID: 16912925/0x0102121D)]
543: 0x1386 [0x52] END_LOAD_SCHEDULER: End scheduler "c567" with entities [LocalPlayer, LocalPlayer], work=177*
544: 0x1395 [0x45] LOAD_SCHEDULED_TASK: Load scheduler "c570" with entities [LocalPlayer, LocalPlayer], work=[177*, 0*]
545: 0x13A6 [0x5B] LOAD_EXT_SCHEDULER: Load scheduler "c505" with entities [Nag'molada (ID: 16912925/0x0102121D), Nag'molada (ID: 16912925/0x0102121D)], work=646*
546: 0x13B5 [0x1C] WAIT(30* ticks)
547: 0x13B8 [0x29] REQ_SET_WAIT(priority=0x10, entity_id=LocalPlayer, tag_num=0x16)
548: 0x13BF [0x2B] Nag'molada (ID: 16912925/0x0102121D) [7379*]:
    → "Do you not find it unfair that only [she/he] should bear the sins of people?"
549: 0x13C6 [0x23] WAIT_FOR_DIALOG_INTERACTION
550: 0x13C7 [0x52] END_LOAD_SCHEDULER: End scheduler "c570" with entities [LocalPlayer, LocalPlayer], work=177*
551: 0x13D6 [0x45] LOAD_SCHEDULED_TASK: Load scheduler "c572" with entities [LocalPlayer, LocalPlayer], work=[177*, 0*]
552: 0x13E7 [0x5B] LOAD_EXT_SCHEDULER: Load scheduler "c511" with entities [Prishe (ID: 16912918/0x01021216), Prishe (ID: 16912918/0x01021216)], work=688*
553: 0x13F6 [0x5B] LOAD_EXT_SCHEDULER: Load scheduler "c506" with entities [Nag'molada (ID: 16912925/0x0102121D), Nag'molada (ID: 16912925/0x0102121D)], work=646*
554: 0x1405 [0x1C] WAIT(30* ticks)
555: 0x1408 [0x2B] Nag'molada (ID: 16912925/0x0102121D) [7380*]:
    → "We ancients are all responsible for these events. I shall shoulder my part of the burden."
556: 0x140F [0x23] WAIT_FOR_DIALOG_INTERACTION
557: 0x1410 [0x55] WAIT_LOAD_SCHEDULER: Wait for scheduler "c572" with entities [LocalPlayer, LocalPlayer], work=177*
558: 0x141F [0x45] LOAD_SCHEDULED_TASK: Load scheduler "c578" with entities [LocalPlayer, LocalPlayer], work=[177*, 0*]
559: 0x1430 [0x27] REQ_SET(priority=0x10, entity_id=Unnamed NPC (ID: 16912931/0x01021223), tag_num=0x09)
560: 0x1437 [0x27] REQ_SET(priority=0x10, entity_id=Tenzen (ID: 16912921/0x01021219), tag_num=0x0E)
561: 0x143E [0x27] REQ_SET(priority=0x10, entity_id=Selh'teus (ID: 16912919/0x01021217), tag_num=0x10)
562: 0x1445 [0x27] REQ_SET(priority=0x10, entity_id=Makki-Chebukki (ID: 16912926/0x0102121E), tag_num=0x0E)
563: 0x144C [0x27] REQ_SET(priority=0x10, entity_id=Kukki-Chebukki (ID: 16912927/0x0102121F), tag_num=0x0E)
564: 0x1453 [0x27] REQ_SET(priority=0x10, entity_id=Cherukiki (ID: 16912928/0x01021220), tag_num=0x0E)
565: 0x145A [0x27] REQ_SET(priority=0x10, entity_id=Unnamed NPC (ID: 16912915/0x01021213), tag_num=0x04)
566: 0x1461 [0x27] REQ_SET(priority=0x10, entity_id=??? (ID: 16912916/0x01021214), tag_num=0x04)
567: 0x1468 [0x5B] LOAD_EXT_SCHEDULER: Load scheduler "c507" with entities [Nag'molada (ID: 16912925/0x0102121D), Nag'molada (ID: 16912925/0x0102121D)], work=646*
568: 0x1477 [0x1C] WAIT(60* ticks)
569: 0x147A [0x52] END_LOAD_SCHEDULER: End scheduler "c578" with entities [LocalPlayer, LocalPlayer], work=177*
570: 0x1489 [0x45] LOAD_SCHEDULED_TASK: Load scheduler "c574" with entities [LocalPlayer, LocalPlayer], work=[177*, 0*]
571: 0x149A [0x2B] Nag'molada (ID: 16912925/0x0102121D) [7381*]:
    → "And the power that comes with it..."
572: 0x14A1 [0x1C] WAIT(45* ticks)
573: 0x14A4 [0x45] LOAD_SCHEDULED_TASK: Load scheduler "g105" with entities [LocalPlayer, LocalPlayer], work=[177*, 0*]
574: 0x14B5 [0x9F] LOAD_SCHEDULED_TASK_ALT: Load scheduler "str0" with entities [Nag'molada (ID: 16912925/0x0102121D), Nag'molada (ID: 16912925/0x0102121D)], work=[121*, 0*]
575: 0x14C6 [0x1C] WAIT(30* ticks)
576: 0x14C9 [0x52] END_LOAD_SCHEDULER: End scheduler "c574" with entities [LocalPlayer, LocalPlayer], work=177*
577: 0x14D8 [0x45] LOAD_SCHEDULED_TASK: Load scheduler "am01" with entities [LocalPlayer, LocalPlayer], work=[177*, 0*]
578: 0x14E9 [0x9F] LOAD_SCHEDULED_TASK_ALT: Load scheduler "str0" with entities [LocalPlayer, LocalPlayer], work=[120*, 0*]
579: 0x14FA [0x1C] WAIT(60* ticks)
580: 0x14FD [0x9F] LOAD_SCHEDULED_TASK_ALT: Load scheduler "str0" with entities [Unnamed NPC (ID: 16912930/0x01021222), Unnamed NPC (ID: 16912930/0x01021222)], work=[119*, 0*]
581: 0x150E [0x1C] WAIT(210* ticks)
582: 0x1511 [0x52] END_LOAD_SCHEDULER: End scheduler "am01" with entities [LocalPlayer, LocalPlayer], work=177*
583: 0x1520 [0x45] LOAD_SCHEDULED_TASK: Load scheduler "c575" with entities [LocalPlayer, LocalPlayer], work=[177*, 0*]
584: 0x1531 [0x5B] LOAD_EXT_SCHEDULER: Load scheduler "c512" with entities [Prishe (ID: 16912918/0x01021216), Prishe (ID: 16912918/0x01021216)], work=688*
585: 0x1540 [0x1C] WAIT(15* ticks)
586: 0x1543 [0x2B] Prishe (ID: 16912918/0x01021216) [7382*]:
    → "Nag'molada! No...!"
587: 0x154A [0x55] WAIT_LOAD_SCHEDULER: Wait for scheduler "c575" with entities [LocalPlayer, LocalPlayer], work=177*
588: 0x1559 [0x45] LOAD_SCHEDULED_TASK: Load scheduler "0f70" with entities [LocalPlayer, LocalPlayer], work=[177*, 0*]
589: 0x156A [0x55] WAIT_LOAD_SCHEDULER: Wait for scheduler "0f70" with entities [LocalPlayer, LocalPlayer], work=177*
590: 0x1579 [0x45] LOAD_SCHEDULED_TASK: Load scheduler "0f71" with entities [LocalPlayer, LocalPlayer], work=[177*, 0*]
591: 0x158A [0x55] WAIT_LOAD_SCHEDULER: Wait for scheduler "0f71" with entities [LocalPlayer, LocalPlayer], work=177*
592: 0x1599 [0x45] LOAD_SCHEDULED_TASK: Load scheduler "c576" with entities [LocalPlayer, LocalPlayer], work=[177*, 0*]
593: 0x15AA [0x5B] LOAD_EXT_SCHEDULER: Load scheduler "cy03" with entities [Tenzen (ID: 16912921/0x01021219), Tenzen (ID: 16912921/0x01021219)], work=642*
594: 0x15B9 [0x1C] WAIT(75* ticks)
595: 0x15BC [0x52] END_LOAD_SCHEDULER: End scheduler "c576" with entities [LocalPlayer, LocalPlayer], work=177*
596: 0x15CB [0x6C] FADE_ENTITY_COLOR(entity_id=Tenzen (ID: 16912921/0x01021219), end_alpha=0*, fade_time=1*)
597: 0x15D4 [0x45] LOAD_SCHEDULED_TASK: Load scheduler "c577" with entities [LocalPlayer, LocalPlayer], work=[177*, 0*]
598: 0x15E5 [0x5B] LOAD_EXT_SCHEDULER: Load scheduler "c515" with entities [Selh'teus (ID: 16912919/0x01021217), Selh'teus (ID: 16912919/0x01021217)], work=463*
599: 0x15F4 [0x1C] WAIT(60* ticks)
600: 0x15F7 [0x45] LOAD_SCHEDULED_TASK: Load scheduler "5s05" with entities [LocalPlayer, LocalPlayer], work=[177*, 0*]
601: 0x1608 [0x2D] CREATE_ZONE_SCHEDULER_TASK: Create scheduler "lop6" with entities [EventEntity, EventEntity]
602: 0x1615 [0x1A] CALL_SUBROUTINE(address=0x324E)
603: 0x1618 [0x1C] WAIT(15* ticks)
604: 0x161B [0x45] LOAD_SCHEDULED_TASK: Load scheduler "c509" with entities [LocalPlayer, LocalPlayer], work=[177*, 0*]
605: 0x162C [0x1A] CALL_SUBROUTINE(address=0x322D)
606: 0x162F [0x9F] LOAD_SCHEDULED_TASK_ALT: Load scheduler "str0" with entities [LocalPlayer, LocalPlayer], work=[61*, 0*]
607: 0x1640 [0x1C] WAIT(150* ticks)
608: 0x1643 [0x5D] SET_MUSIC_VOLUME(volume=0*, fade_time=120*)
609: 0x1648 [0x45] LOAD_SCHEDULED_TASK: Load scheduler "k182" with entities [LocalPlayer, LocalPlayer], work=[177*, 0*]
610: 0x1659 [0x45] LOAD_SCHEDULED_TASK: Load scheduler "k105" with entities [LocalPlayer, LocalPlayer], work=[177*, 0*]
611: 0x166A [0x27] REQ_SET(priority=0x10, entity_id=Unnamed NPC (ID: 16912917/0x01021215), tag_num=0x03)
612: 0x1671 [0x1A] CALL_SUBROUTINE(address=0x313D)
613: 0x1674 [0x1C] WAIT(30* ticks)
614: 0x1677 [0x9F] LOAD_SCHEDULED_TASK_ALT: Load scheduler "kill" with entities [LocalPlayer, LocalPlayer], work=[61*, 0*]
615: 0x1688 [0x9F] LOAD_SCHEDULED_TASK_ALT: Load scheduler "kill" with entities [Nag'molada (ID: 16912925/0x0102121D), Nag'molada (ID: 16912925/0x0102121D)], work=[121*, 0*]
616: 0x1699 [0x9F] LOAD_SCHEDULED_TASK_ALT: Load scheduler "kill" with entities [LocalPlayer, LocalPlayer], work=[120*, 0*]
617: 0x16AA [0x9F] LOAD_SCHEDULED_TASK_ALT: Load scheduler "kill" with entities [Unnamed NPC (ID: 16912930/0x01021222), Unnamed NPC (ID: 16912930/0x01021222)], work=[119*, 0*]
618: 0x16BB [0x45] LOAD_SCHEDULED_TASK: Load scheduler "0bof" with entities [LocalPlayer, LocalPlayer], work=[177*, 0*]
619: 0x16CC [0x6C] FADE_ENTITY_COLOR(entity_id=Unnamed NPC (ID: 16912931/0x01021223), end_alpha=128*, fade_time=1*)
620: 0x16D5 [0x9F] LOAD_SCHEDULED_TASK_ALT: Load scheduler "str0" with entities [Unnamed NPC (ID: 16912931/0x01021223), Unnamed NPC (ID: 16912931/0x01021223)], work=[122*, 0*]
621: 0x16E6 [0x52] END_LOAD_SCHEDULER: End scheduler "c509" with entities [LocalPlayer, LocalPlayer], work=177*
622: 0x16F5 [0x45] LOAD_SCHEDULED_TASK: Load scheduler "c000" with entities [LocalPlayer, LocalPlayer], work=[177*, 0*]
623: 0x1706 [0x1A] CALL_SUBROUTINE(address=0x311C)
624: 0x1709 [0x1C] WAIT(690* ticks)
625: 0x170C [0x45] LOAD_SCHEDULED_TASK: Load scheduler "00wh" with entities [LocalPlayer, LocalPlayer], work=[177*, 0*]
626: 0x171D [0x55] WAIT_LOAD_SCHEDULER: Wait for scheduler "00wh" with entities [LocalPlayer, LocalPlayer], work=177*
627: 0x172C [0x1A] CALL_SUBROUTINE(address=0x30FB)
628: 0x172F [0x1A] CALL_SUBROUTINE(address=0x311C)
629: 0x1732 [0x1C] WAIT(30* ticks)
630: 0x1735 [0xAB] EventEntity->UnknownFlag = 0 // Disable unknown flag
