# 16912917

## Common Data

| Field            | Value             |
|------------------|-------------------|
| Zone             | Al'Taieu (ID: 33) |
| Block Size       | 172 bytes         |
| Total Events     | 4                 |
| References Count | 4                 |

## List of Events

| Event ID                 | Entrypoint   |   Size |   Instructions |
|--------------------------|--------------|--------|----------------|
| [65535](#event-65535)    | 0x0000       |      1 |              1 |
| [65534](#event-65534)    | 0x0001       |      1 |              1 |
| [65535.1](#event-655351) | 0x0002       |     31 |              3 |
| [65535.2](#event-655352) | 0x0021       |     88 |              8 |

## DAT References (imed_data)

|   Index | Hex Value   |   Dec Value |
|---------|-------------|-------------|
|       0 | 0x00B1      |         177 |
|       1 | 0x0000      |           0 |
|       2 | 0x000C      |          12 |
|       3 | 0x0001      |           1 |

## Events

### Event 65535

#### Metadata

| Field        | Value   |
|--------------|---------|
| Entrypoint   | 0x0000  |
| Data Size    | 1 bytes |
| Instructions | 1       |

```
      00 01 02 03 04 05 06 07  08 09 0A 0B 0C 0D 0E 0F
      -- -- -- -- -- -- -- --  -- -- -- -- -- -- -- --
0000: 00                                                .               
```

#### Opcodes

```
  0: 0x0000 [0x00] END_REQSTACK()
```

### Event 65534

#### Metadata

| Field        | Value   |
|--------------|---------|
| Entrypoint   | 0x0001  |
| Data Size    | 1 bytes |
| Instructions | 1       |

```
      00 01 02 03 04 05 06 07  08 09 0A 0B 0C 0D 0E 0F
      -- -- -- -- -- -- -- --  -- -- -- -- -- -- -- --
0000:    00                                              .              
```

#### Opcodes

```
  0: 0x0001 [0x00] END_REQSTACK()
```

### Event 65535.1

#### Metadata

| Field        | Value    |
|--------------|----------|
| Entrypoint   | 0x0002   |
| Data Size    | 31 bytes |
| Instructions | 3        |

```
      00 01 02 03 04 05 06 07  08 09 0A 0B 0C 0D 0E 0F
      -- -- -- -- -- -- -- --  -- -- -- -- -- -- -- --
0000:       45 00 80 F0 FF FF  7F F0 FF FF 7F 6B 31 38    E..........k18
0010: 32 01 80 2D F8 FF FF 7F  F8 FF FF 7F 6B 69 6C 36  2..-........kil6
0020: 00                                                .               
```

#### Opcodes

```
  0: 0x0002 [0x45] LOAD_SCHEDULED_TASK: Load scheduler "k182" with entities [LocalPlayer, LocalPlayer], work=[177*, 0*]
  1: 0x0013 [0x2D] CREATE_ZONE_SCHEDULER_TASK: Create scheduler "kil6" with entities [EventEntity, EventEntity]
  2: 0x0020 [0x00] END_REQSTACK()
```

### Event 65535.2

#### Metadata

| Field        | Value    |
|--------------|----------|
| Entrypoint   | 0x0021   |
| Data Size    | 88 bytes |
| Instructions | 8        |

```
      00 01 02 03 04 05 06 07  08 09 0A 0B 0C 0D 0E 0F
      -- -- -- -- -- -- -- --  -- -- -- -- -- -- -- --
0020:    45 00 80 F0 FF FF 7F  F0 FF FF 7F 6B 31 38 32   E..........k182
0030: 01 80 2D F8 FF FF 7F F8  FF FF 7F 6B 69 6C 36 2D  ..-........kil6-
0040: F8 FF FF 7F F8 FF FF 7F  6B 63 69 31 2D F8 FF FF  ........kci1-...
0050: 7F F8 FF FF 7F 6B 63 69  32 2D F8 FF FF 7F F8 FF  .....kci2-......
0060: FF 7F 6B 63 69 33 2D F8  FF FF 7F F8 FF FF 7F 6B  ..kci3-........k
0070: 63 69 34 77 02 80 03 80  00                       ci4w.....       
```

#### Opcodes

```
  0: 0x0021 [0x45] LOAD_SCHEDULED_TASK: Load scheduler "k182" with entities [LocalPlayer, LocalPlayer], work=[177*, 0*]
  1: 0x0032 [0x2D] CREATE_ZONE_SCHEDULER_TASK: Create scheduler "kil6" with entities [EventEntity, EventEntity]
  2: 0x003F [0x2D] CREATE_ZONE_SCHEDULER_TASK: Create scheduler "kci1" with entities [EventEntity, EventEntity]
  3: 0x004C [0x2D] CREATE_ZONE_SCHEDULER_TASK: Create scheduler "kci2" with entities [EventEntity, EventEntity]
  4: 0x0059 [0x2D] CREATE_ZONE_SCHEDULER_TASK: Create scheduler "kci3" with entities [EventEntity, EventEntity]
  5: 0x0066 [0x2D] CREATE_ZONE_SCHEDULER_TASK: Create scheduler "kci4" with entities [EventEntity, EventEntity]
  6: 0x0073 [0x77] SET_EVENT_TIME_WEATHER(hour=12*, weather=1*)
  7: 0x0078 [0x00] END_REQSTACK()
```
