# 0x7FFFFFF0 - Zone Events

## Common Data

| Field            | Value             |
|------------------|-------------------|
| Zone             | Al'Taieu (ID: 33) |
| Block Size       | 5840 bytes        |
| Total Events     | 31                |
| References Count | 166               |

## List of Events

| Event ID                   | Entrypoint   |   Size |   Instructions |
|----------------------------|--------------|--------|----------------|
| [65535](#event-65535)      | 0x0000       |      1 |              1 |
| [65534](#event-65534)      | 0x0001       |      1 |              1 |
| [65535.1](#event-655351)   | 0x0002       |      6 |              2 |
| [65535.2](#event-655352)   | 0x0008       |      6 |              2 |
| [65535.3](#event-655353)   | 0x000E       |      6 |              2 |
| [164](#event-164)          | 0x0014       |   2108 |            250 |
| [161](#event-161)          | 0x0850       |    713 |             83 |
| [162](#event-162)          | 0x0B19       |    514 |             65 |
| [163](#event-163)          | 0x0D1B       |   1137 |            124 |
| [50](#event-50)            | 0x118C       |     41 |              5 |
| [51](#event-51)            | 0x11B5       |     38 |              4 |
| [52](#event-52)            | 0x11DB       |     41 |              5 |
| [53](#event-53)            | 0x1204       |     38 |              4 |
| [60](#event-60)            | 0x122A       |     10 |              2 |
| [61](#event-61)            | 0x1234       |     14 |              4 |
| [104](#event-104)          | 0x1242       |     10 |              2 |
| [105](#event-105)          | 0x124C       |     10 |              2 |
| [106](#event-106)          | 0x1256       |     10 |              2 |
| [65535.4](#event-655354)   | 0x1260       |     10 |              2 |
| [65535.5](#event-655355)   | 0x126A       |     10 |              2 |
| [65535.6](#event-655356)   | 0x1274       |     10 |              2 |
| [65535.7](#event-655357)   | 0x127E       |      6 |              2 |
| [65535.8](#event-655358)   | 0x1284       |      6 |              2 |
| [65535.9](#event-655359)   | 0x128A       |     10 |              2 |
| [65535.10](#event-6553510) | 0x1294       |     37 |              5 |
| [65535.11](#event-6553511) | 0x12B9       |    185 |             37 |
| [65535.12](#event-6553512) | 0x1372       |     10 |              2 |
| [65535.13](#event-6553513) | 0x137C       |     10 |              2 |
| [65535.14](#event-6553514) | 0x1386       |     10 |              2 |
| [65535.15](#event-6553515) | 0x1390       |     10 |              2 |
| [65535.16](#event-6553516) | 0x139A       |     15 |              5 |

## DAT References (imed_data)

|   Index | Hex Value   |   Dec Value |
|---------|-------------|-------------|
|       0 | 0x0013      |          19 |
|       1 | 0x00A3      |         163 |
|       2 | 0x0000      |           0 |
|       3 | 0xFFFFFED4  |  4294966996 |
|       4 | 0xFFF8F20E  |  4294504974 |
|       5 | 0xFFFFD8F1  |  4294957297 |
|       6 | 0x0CAA      |        3242 |
|       7 | 0x00C8      |         200 |
|       8 | 0x001E      |          30 |
|       9 | 0x1D0D      |        7437 |
|      10 | 0x01A4      |         420 |
|      11 | 0x1D0E      |        7438 |
|      12 | 0x1D0F      |        7439 |
|      13 | 0x0014      |          20 |
|      14 | 0x000A      |          10 |
|      15 | 0x003C      |          60 |
|      16 | 0x0032      |          50 |
|      17 | 0x0291      |         657 |
|      18 | 0x1D10      |        7440 |
|      19 | 0x01EC      |         492 |
|      20 | 0x1D11      |        7441 |
|      21 | 0x1D12      |        7442 |
|      22 | 0x1D13      |        7443 |
|      23 | 0x00E6      |         230 |
|      24 | 0x0046      |          70 |
|      25 | 0x01A0      |         416 |
|      26 | 0x1D14      |        7444 |
|      27 | 0x1D15      |        7445 |
|      28 | 0x01A6      |         422 |
|      29 | 0x1D16      |        7446 |
|      30 | 0x003B      |          59 |
|      31 | 0x1D17      |        7447 |
|      32 | 0x1D18      |        7448 |
|      33 | 0x0045      |          69 |
|      34 | 0x1D19      |        7449 |
|      35 | 0x004B      |          75 |
|      36 | 0x044F      |        1103 |
|      37 | 0x1D1A      |        7450 |
|      38 | 0x001D      |          29 |
|      39 | 0x1D1B      |        7451 |
|      40 | 0x08C8      |        2248 |
|      41 | 0x1D1C      |        7452 |
|      42 | 0x0F82      |        3970 |
|      43 | 0x1D1D      |        7453 |
|      44 | 0x1D1E      |        7454 |
|      45 | 0x1D1F      |        7455 |
|      46 | 0x1D20      |        7456 |
|      47 | 0x1D21      |        7457 |
|      48 | 0x1D22      |        7458 |
|      49 | 0x0001      |           1 |
|      50 | 0x1D23      |        7459 |
|      51 | 0x1D24      |        7460 |
|      52 | 0x0006      |           6 |
|      53 | 0x1D25      |        7461 |
|      54 | 0x1D26      |        7462 |
|      55 | 0x1D27      |        7463 |
|      56 | 0x0400      |        1024 |
|      57 | 0x0738      |        1848 |
|      58 | 0x1D28      |        7464 |
|      59 | 0x0004      |           4 |
|      60 | 0xFFF4C363  |  4294230883 |
|      61 | 0xFFFFF059  |  4294963289 |
|      62 | 0x043B      |        1083 |
|      63 | 0x01B9      |         441 |
|      64 | 0x1D2A      |        7466 |
|      65 | 0x000D      |          13 |
|      66 | 0xFFF4CA12  |  4294232594 |
|      67 | 0xFFFFF153  |  4294963539 |
|      68 | 0x1D2B      |        7467 |
|      69 | 0x01BB      |         443 |
|      70 | 0x1D2C      |        7468 |
|      71 | 0x0150      |         336 |
|      72 | 0x1D2D      |        7469 |
|      73 | 0x1D2E      |        7470 |
|      74 | 0x1D2F      |        7471 |
|      75 | 0x01AF      |         431 |
|      76 | 0x1D30      |        7472 |
|      77 | 0x1D31      |        7473 |
|      78 | 0x1D32      |        7474 |
|      79 | 0x1D33      |        7475 |
|      80 | 0x1D34      |        7476 |
|      81 | 0x000F      |          15 |
|      82 | 0x0113      |         275 |
|      83 | 0xFFF4C020  |  4294230048 |
|      84 | 0x0508      |        1288 |
|      85 | 0x1D35      |        7477 |
|      86 | 0x1D36      |        7478 |
|      87 | 0x1D37      |        7479 |
|      88 | 0x1D38      |        7480 |
|      89 | 0x1D39      |        7481 |
|      90 | 0x01BA      |         442 |
|      91 | 0x1D3A      |        7482 |
|      92 | 0x1D3B      |        7483 |
|      93 | 0x1D3C      |        7484 |
|      94 | 0xFFFFFEE5  |  4294967013 |
|      95 | 0xFFF4BE34  |  4294229556 |
|      96 | 0x0309      |         777 |
|      97 | 0x0005      |           5 |
|      98 | 0x1D3D      |        7485 |
|      99 | 0x01AE      |         430 |
|     100 | 0x01B1      |         433 |
|     101 | 0x1D3E      |        7486 |
|     102 | 0x01B0      |         432 |
|     103 | 0x1D3F      |        7487 |
|     104 | 0x0153      |         339 |
|     105 | 0x1D40      |        7488 |
|     106 | 0x1D41      |        7489 |
|     107 | 0x0078      |         120 |
|     108 | 0x0050      |          80 |
|     109 | 0x00A0      |         160 |
|     110 | 0x0172      |         370 |
|     111 | 0x0514      |        1300 |
|     112 | 0x00F0      |         240 |
|     113 | 0x0190      |         400 |
|     114 | 0x00B4      |         180 |
|     115 | 0x1D42      |        7490 |
|     116 | 0x1D43      |        7491 |
|     117 | 0x1D44      |        7492 |
|     118 | 0x1D45      |        7493 |
|     119 | 0x0096      |         150 |
|     120 | 0x008C      |         140 |
|     121 | 0x004C      |          76 |
|     122 | 0x00AA      |         170 |
|     123 | 0x0049      |          73 |
|     124 | 0x004A      |          74 |
|     125 | 0xFFF8F1A3  |  4294504867 |
|     126 | 0xFFFFD8F0  |  4294957296 |
|     127 | 0x0BFE      |        3070 |
|     128 | 0xFFF93E8E  |  4294524558 |
|     129 | 0xFFF4C074  |  4294230132 |
|     130 | 0x03F5      |        1013 |
|     131 | 0xFFF59758  |  4294285144 |
|     132 | 0xFFFC9E0A  |  4294745610 |
|     133 | 0x0768      |        1896 |
|     134 | 0xA687C     |      682108 |
|     135 | 0xFFFC9EA0  |  4294745760 |
|     136 | 0x00D0      |         208 |
|     137 | 0x61A71     |      399985 |
|     138 | 0xFFF90EA4  |  4294512292 |
|     139 | 0xFFFFB565  |  4294948197 |
|     140 | 0x0BF5      |        3061 |
|     141 | 0xFFF9959D  |  4294546845 |
|     142 | 0xFFF7E70B  |  4294436619 |
|     143 | 0x0148      |         328 |
|     144 | 0x0E1B      |        3611 |
|     145 | 0x6175E     |      399198 |
|     146 | 0xFFF90814  |  4294510612 |
|     147 | 0x0DF6      |        3574 |
|     148 | 0x0002      |           2 |
|     149 | 0x0009      |           9 |
|     150 | 0x00D2      |         210 |
|     151 | 0xFFFF85BC  |  4294935996 |
|     152 | 0xFFF69443  |  4294349891 |
|     153 | 0x0BE5      |        3045 |
|     154 | 0x00B9      |         185 |
|     155 | 0xFFF8DB93  |  4294499219 |
|     156 | 0x03E6      |         998 |
|     157 | 0xFFFFB1AF  |  4294947247 |
|     158 | 0xFFF8DBBE  |  4294499262 |
|     159 | 0x0321      |         801 |
|     160 | 0xFFFFFD0C  |  4294966540 |
|     161 | 0xFFF7854C  |  4294411596 |
|     162 | 0x0C00      |        3072 |
|     163 | 0x0028      |          40 |
|     164 | 0x009D      |         157 |
|     165 | 0xFFF8D1CC  |  4294496716 |

## String References

- **7456**: Was the light taken from you? [Yes, it is gone./No, the light remains.]
- **7467**: Mete out some punishment? [Time for payback.../Let's be civilized...]
- **7493**: Here we come, Royal Daddy!

## Events

### Event 65535

#### Metadata

| Field        | Value   |
|--------------|---------|
| Entrypoint   | 0x0000  |
| Data Size    | 1 bytes |
| Instructions | 1       |

```
      00 01 02 03 04 05 06 07  08 09 0A 0B 0C 0D 0E 0F
      -- -- -- -- -- -- -- --  -- -- -- -- -- -- -- --
0000: 00                                                .               
```

#### Opcodes

```
  0: 0x0000 [0x00] END_REQSTACK()
```

### Event 65534

#### Metadata

| Field        | Value   |
|--------------|---------|
| Entrypoint   | 0x0001  |
| Data Size    | 1 bytes |
| Instructions | 1       |

```
      00 01 02 03 04 05 06 07  08 09 0A 0B 0C 0D 0E 0F
      -- -- -- -- -- -- -- --  -- -- -- -- -- -- -- --
0000:    00                                              .              
```

#### Opcodes

```
  0: 0x0001 [0x00] END_REQSTACK()
```

### Event 65535.1

#### Metadata

| Field        | Value   |
|--------------|---------|
| Entrypoint   | 0x0002  |
| Data Size    | 6 bytes |
| Instructions | 2       |

```
      00 01 02 03 04 05 06 07  08 09 0A 0B 0C 0D 0E 0F
      -- -- -- -- -- -- -- --  -- -- -- -- -- -- -- --
0000:       03 02 10 0B 7F 00                             ......        
```

#### Opcodes

```
  0: 0x0002 [0x03] Work_Zone[2] = (Entity->Render.Flags01 >> 25) & 1
  1: 0x0007 [0x00] END_REQSTACK()
```

### Event 65535.2

#### Metadata

| Field        | Value   |
|--------------|---------|
| Entrypoint   | 0x0008  |
| Data Size    | 6 bytes |
| Instructions | 2       |

```
      00 01 02 03 04 05 06 07  08 09 0A 0B 0C 0D 0E 0F
      -- -- -- -- -- -- -- --  -- -- -- -- -- -- -- --
0000:                          03 09 10 07 7F 00                ......  
```

#### Opcodes

```
  0: 0x0008 [0x03] Work_Zone[9] = Entity->Race
  1: 0x000D [0x00] END_REQSTACK()
```

### Event 65535.3

#### Metadata

| Field        | Value   |
|--------------|---------|
| Entrypoint   | 0x000E  |
| Data Size    | 6 bytes |
| Instructions | 2       |

```
      00 01 02 03 04 05 06 07  08 09 0A 0B 0C 0D 0E 0F
      -- -- -- -- -- -- -- --  -- -- -- -- -- -- -- --
0000:                                            03 02                ..
0010: 10 06 7F 00                                       ....            
```

#### Opcodes

```
  0: 0x000E [0x03] Work_Zone[2] = Entity->JobId (if LocalPlayer)
  1: 0x0013 [0x00] END_REQSTACK()
```

### Event 164

#### Metadata

| Field        | Value      |
|--------------|------------|
| Entrypoint   | 0x0014     |
| Data Size    | 2108 bytes |
| Instructions | 250        |

```
      00 01 02 03 04 05 06 07  08 09 0A 0B 0C 0D 0E 0F
      -- -- -- -- -- -- -- --  -- -- -- -- -- -- -- --
0010:             42 1A 26 11  46 01 38 00 80 4E 00 2F      B.&.F.8..N./
0020: 12 02 01 4E 00 33 12 02  01 4E 00 34 12 02 01 4E  ...N.3...N.4...N
0030: 00 35 12 02 01 80 2F 12  02 01 80 33 12 02 01 80  .5..../....3....
0040: 34 12 02 01 80 35 12 02  01 27 0A 2F 12 02 01 02  4....5...'./....
0050: 27 0A 33 12 02 01 02 27  0A 34 12 02 01 02 27 0A  '.3....'.4....'.
0060: 35 12 02 01 02 45 01 80  F0 FF FF 7F F0 FF FF 7F  5....E..........
0070: 73 30 32 36 02 80 37 03  80 04 80 05 80 06 80 1A  s026..7.........
0080: 47 11 55 01 80 F0 FF FF  7F F0 FF FF 7F 73 30 32  G.U..........s02
0090: 36 45 07 80 F0 FF FF 7F  F0 FF FF 7F 6F 76 6C 31  6E..........ovl1
00A0: 02 80 45 01 80 F0 FF FF  7F F0 FF FF 7F 73 30 32  ..E..........s02
00B0: 37 02 80 79 00 2F 12 02  01 F0 FF FF 7F 79 00 33  7..y./.......y.3
00C0: 12 02 01 F0 FF FF 7F 79  00 34 12 02 01 F0 FF FF  .......y.4......
00D0: 7F 79 00 35 12 02 01 F0  FF FF 7F 1C 08 80 2B 2F  .y.5..........+/
00E0: 12 02 01 09 80 1C 08 80  1E 2F 12 02 01 23 2A 0A  ........./...#*.
00F0: 2F 12 02 01 52 01 80 F0  FF FF 7F F0 FF FF 7F 73  /...R..........s
0100: 30 32 37 45 01 80 F0 FF  FF 7F F0 FF FF 7F 73 30  027E..........s0
0110: 32 38 02 80 5B 0A 80 2F  12 02 01 2F 12 02 01 74  28..[../.../...t
0120: 6C 61 30 2B 2F 12 02 01  0B 80 23 5B 0A 80 2F 12  la0+/.....#[../.
0130: 02 01 2F 12 02 01 74 61  62 30 2B 2F 12 02 01 0C  ../...tab0+/....
0140: 80 1C 0D 80 7B 35 12 02  01 1C 0E 80 23 5B 0A 80  ....{5......#[..
0150: 2F 12 02 01 2F 12 02 01  74 6C 62 31 27 0A 35 12  /.../...tlb1'.5.
0160: 02 01 03 1C 0F 80 79 00  2F 12 02 01 35 12 02 01  ......y./...5...
0170: 1C 10 80 1E 35 12 02 01  1C 08 80 52 01 80 F0 FF  ....5......R....
0180: FF 7F F0 FF FF 7F 73 30  32 38 45 01 80 F0 FF FF  ......s028E.....
0190: 7F F0 FF FF 7F 73 30 32  39 02 80 2A 0A 35 12 02  .....s029..*.5..
01A0: 01 5B 11 80 35 12 02 01  35 12 02 01 73 69 30 31  .[..5...5...si01
01B0: 55 01 80 F0 FF FF 7F F0  FF FF 7F 73 30 32 39 45  U..........s029E
01C0: 07 80 F0 FF FF 7F F0 FF  FF 7F 6F 76 6C 31 02 80  ..........ovl1..
01D0: 22 01 45 01 80 F0 FF FF  7F F0 FF FF 7F 73 30 33  ".E..........s03
01E0: 30 02 80 1C 08 80 2B 35  12 02 01 12 80 23 52 01  0.....+5.....#R.
01F0: 80 F0 FF FF 7F F0 FF FF  7F 73 30 33 30 45 07 80  .........s030E..
0200: F0 FF FF 7F F0 FF FF 7F  6F 76 6C 31 02 80 22 00  ........ovl1..".
0210: 45 01 80 F0 FF FF 7F F0  FF FF 7F 73 30 33 31 02  E..........s031.
0220: 80 5B 13 80 33 12 02 01  33 12 02 01 67 62 61 30  .[..3...3...gba0
0230: 2B 33 12 02 01 14 80 23  52 01 80 F0 FF FF 7F F0  +3.....#R.......
0240: FF FF 7F 73 30 33 31 45  01 80 F0 FF FF 7F F0 FF  ...s031E........
0250: FF 7F 73 30 33 32 02 80  6B 69 64 6C 30 33 12 02  ..s032..kidl03..
0260: 01 2B 35 12 02 01 15 80  23 5B 11 80 35 12 02 01  .+5.....#[..5...
0270: 35 12 02 01 73 69 30 32  53 35 12 02 01 35 12 02  5...si02S5...5..
0280: 01 73 69 30 32 52 01 80  F0 FF FF 7F F0 FF FF 7F  .si02R..........
0290: 73 30 33 32 45 01 80 F0  FF FF 7F F0 FF FF 7F 73  s032E..........s
02A0: 30 33 33 02 80 4A 35 12  02 01 F0 FF FF 7F 2B 35  033..J5.......+5
02B0: 12 02 01 16 80 23 1A 59  11 7B 35 12 02 01 1C 17  .....#.Y.{5.....
02C0: 80 22 01 52 01 80 F0 FF  FF 7F F0 FF FF 7F 73 30  .".R..........s0
02D0: 33 33 45 01 80 F0 FF FF  7F F0 FF FF 7F 73 30 33  33E..........s03
02E0: 34 02 80 1A 7A 11 1C 18  80 5B 19 80 35 12 02 01  4...z....[..5...
02F0: 35 12 02 01 75 74 61 6E  2B 35 12 02 01 1A 80 23  5...utan+5.....#
0300: 22 00 52 01 80 F0 FF FF  7F F0 FF FF 7F 73 30 33  ".R..........s03
0310: 34 45 01 80 F0 FF FF 7F  F0 FF FF 7F 73 30 33 35  4E..........s035
0320: 02 80 5B 0A 80 2F 12 02  01 2F 12 02 01 74 6C 63  ..[../.../...tlc
0330: 30 2B 2F 12 02 01 1B 80  1C 08 80 79 00 F0 FF FF  0+/........y....
0340: 7F 2F 12 02 01 23 45 07  80 F0 FF FF 7F F0 FF FF  ./...#E.........
0350: 7F 6F 76 6C 31 02 80 52  01 80 F0 FF FF 7F F0 FF  .ovl1..R........
0360: FF 7F 73 30 33 35 45 01  80 F0 FF FF 7F F0 FF FF  ..s035E.........
0370: 7F 73 30 33 36 02 80 7B  2F 12 02 01 5B 0A 80 2F  .s036..{/...[../
0380: 12 02 01 2F 12 02 01 74  6C 63 31 1C 08 80 5B 1C  .../...tlc1...[.
0390: 80 2F 12 02 01 2F 12 02  01 6E 6F 30 30 7B 34 12  ./.../...no00{4.
03A0: 02 01 2B 2F 12 02 01 1D  80 23 52 01 80 F0 FF FF  ..+/.....#R.....
03B0: 7F F0 FF FF 7F 73 30 33  36 45 01 80 F0 FF FF 7F  .....s036E......
03C0: F0 FF FF 7F 73 30 33 37  02 80 66 1E 80 34 12 02  ....s037..f..4..
03D0: 01 34 12 02 01 74 68 6B  31 5B 1C 80 2F 12 02 01  .4...thk1[../...
03E0: 2F 12 02 01 6E 6F 30 31  2B 34 12 02 01 1F 80 23  /...no01+4.....#
03F0: 1C 08 80 4A 2F 12 02 01  34 12 02 01 23 6F 70 5B  ...J/...4...#op[
0400: 0A 80 2F 12 02 01 2F 12  02 01 74 6C 61 30 2B 2F  ../.../...tla0+/
0410: 12 02 01 20 80 23 5B 0A  80 2F 12 02 01 2F 12 02  ... .#[../.../..
0420: 01 74 6C 61 31 66 1E 80  34 12 02 01 34 12 02 01  .tla1f..4...4...
0430: 74 68 6B 32 52 01 80 F0  FF FF 7F F0 FF FF 7F 73  thk2R..........s
0440: 30 33 37 7B 33 12 02 01  45 01 80 F0 FF FF 7F F0  037{3...E.......
0450: FF FF 7F 73 30 33 38 02  80 66 21 80 33 12 02 01  ...s038..f!.3...
0460: 33 12 02 01 74 77 62 30  2B 33 12 02 01 22 80 1C  3...twb0+3..."..
0470: 23 80 66 21 80 33 12 02  01 33 12 02 01 74 77 62  #.f!.3...3...twb
0480: 31 23 53 33 12 02 01 33  12 02 01 74 77 62 31 52  1#S3...3...twb1R
0490: 01 80 F0 FF FF 7F F0 FF  FF 7F 73 30 33 38 45 01  ..........s038E.
04A0: 80 F0 FF FF 7F F0 FF FF  7F 73 30 33 39 02 80 4B  .........s039..K
04B0: 33 12 02 01 24 80 2B 33  12 02 01 25 80 1C 08 80  3...$.+3...%....
04C0: 4A 2F 12 02 01 33 12 02  01 23 66 26 80 35 12 02  J/...3...#f&.5..
04D0: 01 35 12 02 01 74 68 6B  31 2B 35 12 02 01 27 80  .5...thk1+5...'.
04E0: 27 0A 33 12 02 01 03 1C  0E 80 27 0A 2F 12 02 01  '.3.......'./...
04F0: 03 2A 0A 2F 12 02 01 1C  0E 80 4B 2F 12 02 01 28  .*./......K/...(
0500: 80 79 00 F0 FF FF 7F 35  12 02 01 79 00 2F 12 02  .y.....5...y./..
0510: 01 35 12 02 01 23 52 01  80 F0 FF FF 7F F0 FF FF  .5...#R.........
0520: 7F 73 30 33 39 45 01 80  F0 FF FF 7F F0 FF FF 7F  .s039E..........
0530: 73 30 34 30 02 80 79 00  2F 12 02 01 35 12 02 01  s040..y./...5...
0540: 2B 35 12 02 01 29 80 23  52 01 80 F0 FF FF 7F F0  +5...).#R.......
0550: FF FF 7F 73 30 34 30 45  01 80 F0 FF FF 7F F0 FF  ...s040E........
0560: FF 7F 73 30 34 31 02 80  4B 33 12 02 01 2A 80 79  ..s041..K3...*.y
0570: 00 33 12 02 01 35 12 02  01 2B 33 12 02 01 2B 80  .3...5...+3...+.
0580: 23 52 01 80 F0 FF FF 7F  F0 FF FF 7F 73 30 34 31  #R..........s041
0590: 45 01 80 F0 FF FF 7F F0  FF FF 7F 73 30 34 32 02  E..........s042.
05A0: 80 79 00 35 12 02 01 F0  FF FF 7F 66 26 80 35 12  .y.5.......f&.5.
05B0: 02 01 35 12 02 01 74 68  6B 32 2B 35 12 02 01 2C  ..5...thk2+5...,
05C0: 80 23 66 26 80 35 12 02  01 35 12 02 01 74 77 61  .#f&.5...5...twa
05D0: 30 2B 35 12 02 01 2D 80  23 66 26 80 35 12 02 01  0+5...-.#f&.5...
05E0: 35 12 02 01 74 77 61 31  24 2E 80 02 80 02 80 25  5...twa1$......%
05F0: 02 00 10 02 80 00 5B 06  52 01 80 F0 FF FF 7F F0  ......[.R.......
0600: FF FF 7F 73 30 34 32 45  01 80 F0 FF FF 7F F0 FF  ...s042E........
0610: FF 7F 73 30 34 33 02 80  79 00 2F 12 02 01 F0 FF  ..s043..y./.....
0620: FF 7F 79 00 F0 FF FF 7F  2F 12 02 01 27 0A 2F 12  ..y...../...'./.
0630: 02 01 04 2B 2F 12 02 01  2F 80 23 2A 0A 2F 12 02  ...+/.../.#*./..
0640: 01 5B 0A 80 2F 12 02 01  2F 12 02 01 74 6C 61 30  .[../.../...tla0
0650: 2B 2F 12 02 01 30 80 23  01 C6 06 02 00 10 31 80  +/...0.#......1.
0660: 00 C6 06 52 01 80 F0 FF  FF 7F F0 FF FF 7F 73 30  ...R..........s0
0670: 34 32 45 01 80 F0 FF FF  7F F0 FF FF 7F 73 30 34  42E..........s04
0680: 33 02 80 79 00 2F 12 02  01 F0 FF FF 7F 79 00 F0  3..y./.......y..
0690: FF FF 7F 2F 12 02 01 27  0A 2F 12 02 01 04 2B 2F  .../...'./....+/
06A0: 12 02 01 32 80 23 2A 0A  2F 12 02 01 5B 0A 80 2F  ...2.#*./...[../
06B0: 12 02 01 2F 12 02 01 74  6C 61 30 2B 2F 12 02 01  .../...tla0+/...
06C0: 33 80 23 01 C6 06 5B 0A  80 2F 12 02 01 2F 12 02  3.#...[../.../..
06D0: 01 74 6C 61 31 52 01 80  F0 FF FF 7F F0 FF FF 7F  .tla1R..........
06E0: 73 30 34 33 45 01 80 F0  FF FF 7F F0 FF FF 7F 73  s043E..........s
06F0: 30 34 34 02 80 66 1E 80  34 12 02 01 34 12 02 01  044..f..4...4...
0700: 74 68 6B 31 7B 33 12 02  01 7B 35 12 02 01 6E 33  thk1{3...{5...n3
0710: 12 02 01 34 80 99 33 12  02 01 2B 33 12 02 01 35  ...4..3...+3...5
0720: 80 23 52 01 80 F0 FF FF  7F F0 FF FF 7F 73 30 34  .#R..........s04
0730: 34 45 01 80 F0 FF FF 7F  F0 FF FF 7F 73 30 34 35  4E..........s045
0740: 02 80 66 26 80 35 12 02  01 35 12 02 01 74 77 61  ..f&.5...5...twa
0750: 30 2B 35 12 02 01 36 80  1C 08 80 79 00 F0 FF FF  0+5...6....y....
0760: 7F 35 12 02 01 79 00 35  12 02 01 F0 FF FF 7F 23  .5...y.5.......#
0770: 66 26 80 35 12 02 01 35  12 02 01 74 77 61 31 52  f&.5...5...twa1R
0780: 01 80 F0 FF FF 7F F0 FF  FF 7F 73 30 34 35 45 01  ..........s045E.
0790: 80 F0 FF FF 7F F0 FF FF  7F 73 30 34 37 02 80 2B  .........s047..+
07A0: 2F 12 02 01 37 80 23 66  1E 80 34 12 02 01 34 12  /...7.#f..4...4.
07B0: 02 01 74 68 6B 32 53 34  12 02 01 34 12 02 01 74  ..thk2S4...4...t
07C0: 68 6B 32 4B 34 12 02 01  38 80 1E 34 12 02 01 79  hk2K4...8..4...y
07D0: 00 33 12 02 01 34 12 02  01 4B 33 12 02 01 39 80  .3...4...K3...9.
07E0: 2B 34 12 02 01 3A 80 23  27 0A 34 12 02 01 03 1C  +4...:.#'.4.....
07F0: 08 80 52 01 80 F0 FF FF  7F F0 FF FF 7F 73 30 34  ..R..........s04
0800: 37 45 01 80 F0 FF FF 7F  F0 FF FF 7F 73 30 34 38  7E..........s048
0810: 02 80 79 00 35 12 02 01  34 12 02 01 4A 2F 12 02  ..y.5...4...J/..
0820: 01 34 12 02 01 1C 18 80  27 0A 33 12 02 01 04 1C  .4......'.3.....
0830: 18 80 27 0A 2F 12 02 01  05 1C 0F 80 27 0A 35 12  ..'./.......'.5.
0840: 02 01 04 1A 59 11 1C 08  80 46 00 1A 7A 11 21 00  ....Y....F..z.!.
```

#### Opcodes

```
  0: 0x0014 [0x42] SET_CLI_EVENT_CANCEL_DATA()
  1: 0x0015 [0x1A] CALL_SUBROUTINE(address=0x1126)
  2: 0x0018 [0x46] CAMERA_CONTROL: Disable user control
  3: 0x001A [0x38] SET_CLIENT_EVENT_MODE(mode=19*)
  4: 0x001D [0x4E] SET_ENTITY_HIDE_FLAG: Show Ulmia (ID: 16912943/0x0102122F)
  5: 0x0023 [0x4E] SET_ENTITY_HIDE_FLAG: Show Jabbos (ID: 16912947/0x01021233)
  6: 0x0029 [0x4E] SET_ENTITY_HIDE_FLAG: Show Shikaree Z (ID: 16912948/0x01021234)
  7: 0x002F [0x4E] SET_ENTITY_HIDE_FLAG: Show Louverance (ID: 16912949/0x01021235)
  8: 0x0035 [0x80] LOAD_WAIT(entity=Ulmia (ID: 16912943/0x0102122F))
  9: 0x003A [0x80] LOAD_WAIT(entity=Jabbos (ID: 16912947/0x01021233))
 10: 0x003F [0x80] LOAD_WAIT(entity=Shikaree Z (ID: 16912948/0x01021234))
 11: 0x0044 [0x80] LOAD_WAIT(entity=Louverance (ID: 16912949/0x01021235))
 12: 0x0049 [0x27] REQ_SET(priority=0x0A, entity_id=Ulmia (ID: 16912943/0x0102122F), tag_num=0x02)
 13: 0x0050 [0x27] REQ_SET(priority=0x0A, entity_id=Jabbos (ID: 16912947/0x01021233), tag_num=0x02)
 14: 0x0057 [0x27] REQ_SET(priority=0x0A, entity_id=Shikaree Z (ID: 16912948/0x01021234), tag_num=0x02)
 15: 0x005E [0x27] REQ_SET(priority=0x0A, entity_id=Louverance (ID: 16912949/0x01021235), tag_num=0x02)
 16: 0x0065 [0x45] LOAD_SCHEDULED_TASK: Load scheduler "s026" with entities [LocalPlayer, LocalPlayer], work=[163*, 0*]
 17: 0x0076 [0x37] UPDATE_EVENT_POSITION_AND_DIR: x=-0.300*, z=-462.322*, y=-9.999*, direction=284.9°*
 18: 0x007F [0x1A] CALL_SUBROUTINE(address=0x1147)
 19: 0x0082 [0x55] WAIT_LOAD_SCHEDULER: Wait for scheduler "s026" with entities [LocalPlayer, LocalPlayer], work=163*
 20: 0x0091 [0x45] LOAD_SCHEDULED_TASK: Load scheduler "ovl1" with entities [LocalPlayer, LocalPlayer], work=[200*, 0*]
 21: 0x00A2 [0x45] LOAD_SCHEDULED_TASK: Load scheduler "s027" with entities [LocalPlayer, LocalPlayer], work=[163*, 0*]
 22: 0x00B3 [0x79] Ulmia (ID: 16912943/0x0102122F) looks at LocalPlayer (Basic look)
 23: 0x00BD [0x79] Jabbos (ID: 16912947/0x01021233) looks at LocalPlayer (Basic look)
 24: 0x00C7 [0x79] Shikaree Z (ID: 16912948/0x01021234) looks at LocalPlayer (Basic look)
 25: 0x00D1 [0x79] Louverance (ID: 16912949/0x01021235) looks at LocalPlayer (Basic look)
 26: 0x00DB [0x1C] WAIT(30* ticks)
 27: 0x00DE [0x2B] Ulmia (ID: 16912943/0x0102122F) [7437*]:
    → "<Player>!"
 28: 0x00E5 [0x1C] WAIT(30* ticks)
 29: 0x00E8 [0x1E] EventEntity looks at Ulmia (ID: 16912943/0x0102122F) and starts talking
 30: 0x00ED [0x23] WAIT_FOR_DIALOG_INTERACTION
 31: 0x00EE [0x2A] GET_REQ_LEVEL(level=10, entity_id=Ulmia (ID: 16912943/0x0102122F))
 32: 0x00F4 [0x52] END_LOAD_SCHEDULER: End scheduler "s027" with entities [LocalPlayer, LocalPlayer], work=163*
 33: 0x0103 [0x45] LOAD_SCHEDULED_TASK: Load scheduler "s028" with entities [LocalPlayer, LocalPlayer], work=[163*, 0*]
 34: 0x0114 [0x5B] LOAD_EXT_SCHEDULER: Load scheduler "tla0" with entities [Ulmia (ID: 16912943/0x0102122F), Ulmia (ID: 16912943/0x0102122F)], work=420*
 35: 0x0123 [0x2B] Ulmia (ID: 16912943/0x0102122F) [7438*]:
    → "You were brought to this peculiar realm as well?"
 36: 0x012A [0x23] WAIT_FOR_DIALOG_INTERACTION
 37: 0x012B [0x5B] LOAD_EXT_SCHEDULER: Load scheduler "tab0" with entities [Ulmia (ID: 16912943/0x0102122F), Ulmia (ID: 16912943/0x0102122F)], work=420*
 38: 0x013A [0x2B] Ulmia (ID: 16912943/0x0102122F) [7439*]:
    → "Are you injured? You have been treated terribly..."
 39: 0x0141 [0x1C] WAIT(20* ticks)
 40: 0x0144 [0x7B] Louverance (ID: 16912949/0x01021235) stops talking
 41: 0x0149 [0x1C] WAIT(10* ticks)
 42: 0x014C [0x23] WAIT_FOR_DIALOG_INTERACTION
 43: 0x014D [0x5B] LOAD_EXT_SCHEDULER: Load scheduler "tlb1" with entities [Ulmia (ID: 16912943/0x0102122F), Ulmia (ID: 16912943/0x0102122F)], work=420*
 44: 0x015C [0x27] REQ_SET(priority=0x0A, entity_id=Louverance (ID: 16912949/0x01021235), tag_num=0x03)
 45: 0x0163 [0x1C] WAIT(60* ticks)
 46: 0x0166 [0x79] Ulmia (ID: 16912943/0x0102122F) looks at Louverance (ID: 16912949/0x01021235) (Basic look)
 47: 0x0170 [0x1C] WAIT(50* ticks)
 48: 0x0173 [0x1E] EventEntity looks at Louverance (ID: 16912949/0x01021235) and starts talking
 49: 0x0178 [0x1C] WAIT(30* ticks)
 50: 0x017B [0x52] END_LOAD_SCHEDULER: End scheduler "s028" with entities [LocalPlayer, LocalPlayer], work=163*
 51: 0x018A [0x45] LOAD_SCHEDULED_TASK: Load scheduler "s029" with entities [LocalPlayer, LocalPlayer], work=[163*, 0*]
 52: 0x019B [0x2A] GET_REQ_LEVEL(level=10, entity_id=Louverance (ID: 16912949/0x01021235))
 53: 0x01A1 [0x5B] LOAD_EXT_SCHEDULER: Load scheduler "si01" with entities [Louverance (ID: 16912949/0x01021235), Louverance (ID: 16912949/0x01021235)], work=657*
 54: 0x01B0 [0x55] WAIT_LOAD_SCHEDULER: Wait for scheduler "s029" with entities [LocalPlayer, LocalPlayer], work=163*
 55: 0x01BF [0x45] LOAD_SCHEDULED_TASK: Load scheduler "ovl1" with entities [LocalPlayer, LocalPlayer], work=[200*, 0*]
 56: 0x01D0 [0x22] ENTITY_HIDE_FLAG(enabled=0x01)
 57: 0x01D2 [0x45] LOAD_SCHEDULED_TASK: Load scheduler "s030" with entities [LocalPlayer, LocalPlayer], work=[163*, 0*]
 58: 0x01E3 [0x1C] WAIT(30* ticks)
 59: 0x01E6 [0x2B] Louverance (ID: 16912949/0x01021235) [7440*]:
    → "I hear a voice calling to me..."
 60: 0x01ED [0x23] WAIT_FOR_DIALOG_INTERACTION
 61: 0x01EE [0x52] END_LOAD_SCHEDULER: End scheduler "s030" with entities [LocalPlayer, LocalPlayer], work=163*
 62: 0x01FD [0x45] LOAD_SCHEDULED_TASK: Load scheduler "ovl1" with entities [LocalPlayer, LocalPlayer], work=[200*, 0*]
 63: 0x020E [0x22] ENTITY_HIDE_FLAG(enabled=0x00)
 64: 0x0210 [0x45] LOAD_SCHEDULED_TASK: Load scheduler "s031" with entities [LocalPlayer, LocalPlayer], work=[163*, 0*]
 65: 0x0221 [0x5B] LOAD_EXT_SCHEDULER: Load scheduler "gba0" with entities [Jabbos (ID: 16912947/0x01021233), Jabbos (ID: 16912947/0x01021233)], work=492*
 66: 0x0230 [0x2B] Jabbos (ID: 16912947/0x01021233) [7441*]:
    → "It seems...to be coming...from beyond...the gate..."
 67: 0x0237 [0x23] WAIT_FOR_DIALOG_INTERACTION
 68: 0x0238 [0x52] END_LOAD_SCHEDULER: End scheduler "s031" with entities [LocalPlayer, LocalPlayer], work=163*
 69: 0x0247 [0x45] LOAD_SCHEDULED_TASK: Load scheduler "s032" with entities [LocalPlayer, LocalPlayer], work=[163*, 0*]
 70: 0x0258 [0x6B] STOP_AND_IDLE: Jabbos (ID: 16912947/0x01021233) stops current action and resets to idle (animation="idl0")
 71: 0x0261 [0x2B] Louverance (ID: 16912949/0x01021235) [7442*]:
    → "The portal appears to be locked. If we are to believe the talk of those beings, this path leads to the palace of the Zilartian king."
 72: 0x0268 [0x23] WAIT_FOR_DIALOG_INTERACTION
 73: 0x0269 [0x5B] LOAD_EXT_SCHEDULER: Load scheduler "si02" with entities [Louverance (ID: 16912949/0x01021235), Louverance (ID: 16912949/0x01021235)], work=657*
 74: 0x0278 [0x53] WAIT_SCHEDULER_TASK: Wait for scheduler "si02" with entities [Louverance (ID: 16912949/0x01021235), Louverance (ID: 16912949/0x01021235)]
 75: 0x0285 [0x52] END_LOAD_SCHEDULER: End scheduler "s032" with entities [LocalPlayer, LocalPlayer], work=163*
 76: 0x0294 [0x45] LOAD_SCHEDULED_TASK: Load scheduler "s033" with entities [LocalPlayer, LocalPlayer], work=[163*, 0*]
 77: 0x02A5 [0x4A] Louverance (ID: 16912949/0x01021235) looks at LocalPlayer
 78: 0x02AE [0x2B] Louverance (ID: 16912949/0x01021235) [7443*]:
    → "One of the inhabitants here spoke of a girl matching Prishe's description heading this way. If we can gain an audience with the king, we should learn exactly what's going on here."
 79: 0x02B5 [0x23] WAIT_FOR_DIALOG_INTERACTION
 80: 0x02B6 [0x1A] CALL_SUBROUTINE(address=0x1159)
 81: 0x02B9 [0x7B] Louverance (ID: 16912949/0x01021235) stops talking
 82: 0x02BE [0x1C] WAIT(230* ticks)
 83: 0x02C1 [0x22] ENTITY_HIDE_FLAG(enabled=0x01)
 84: 0x02C3 [0x52] END_LOAD_SCHEDULER: End scheduler "s033" with entities [LocalPlayer, LocalPlayer], work=163*
 85: 0x02D2 [0x45] LOAD_SCHEDULED_TASK: Load scheduler "s034" with entities [LocalPlayer, LocalPlayer], work=[163*, 0*]
 86: 0x02E3 [0x1A] CALL_SUBROUTINE(address=0x117A)
 87: 0x02E6 [0x1C] WAIT(70* ticks)
 88: 0x02E9 [0x5B] LOAD_EXT_SCHEDULER: Load scheduler "utan" with entities [Louverance (ID: 16912949/0x01021235), Louverance (ID: 16912949/0x01021235)], work=416*
 89: 0x02F8 [0x2B] Louverance (ID: 16912949/0x01021235) [7444*]:
    → "!? This place lies beyond the Gate of the Gods? Did the ancients truly cross that legendary border!?"
 90: 0x02FF [0x23] WAIT_FOR_DIALOG_INTERACTION
 91: 0x0300 [0x22] ENTITY_HIDE_FLAG(enabled=0x00)
 92: 0x0302 [0x52] END_LOAD_SCHEDULER: End scheduler "s034" with entities [LocalPlayer, LocalPlayer], work=163*
 93: 0x0311 [0x45] LOAD_SCHEDULED_TASK: Load scheduler "s035" with entities [LocalPlayer, LocalPlayer], work=[163*, 0*]
 94: 0x0322 [0x5B] LOAD_EXT_SCHEDULER: Load scheduler "tlc0" with entities [Ulmia (ID: 16912943/0x0102122F), Ulmia (ID: 16912943/0x0102122F)], work=420*
 95: 0x0331 [0x2B] Ulmia (ID: 16912943/0x0102122F) [7445*]:
    → "Let us not be so hasty in our assumptions. This is indeed a beautiful land..."
 96: 0x0338 [0x1C] WAIT(30* ticks)
 97: 0x033B [0x79] LocalPlayer looks at Ulmia (ID: 16912943/0x0102122F) (Basic look)
 98: 0x0345 [0x23] WAIT_FOR_DIALOG_INTERACTION
 99: 0x0346 [0x45] LOAD_SCHEDULED_TASK: Load scheduler "ovl1" with entities [LocalPlayer, LocalPlayer], work=[200*, 0*]
100: 0x0357 [0x52] END_LOAD_SCHEDULER: End scheduler "s035" with entities [LocalPlayer, LocalPlayer], work=163*
101: 0x0366 [0x45] LOAD_SCHEDULED_TASK: Load scheduler "s036" with entities [LocalPlayer, LocalPlayer], work=[163*, 0*]
102: 0x0377 [0x7B] Ulmia (ID: 16912943/0x0102122F) stops talking
103: 0x037C [0x5B] LOAD_EXT_SCHEDULER: Load scheduler "tlc1" with entities [Ulmia (ID: 16912943/0x0102122F), Ulmia (ID: 16912943/0x0102122F)], work=420*
104: 0x038B [0x1C] WAIT(30* ticks)
105: 0x038E [0x5B] LOAD_EXT_SCHEDULER: Load scheduler "no00" with entities [Ulmia (ID: 16912943/0x0102122F), Ulmia (ID: 16912943/0x0102122F)], work=422*
106: 0x039D [0x7B] Shikaree Z (ID: 16912948/0x01021234) stops talking
107: 0x03A2 [0x2B] Ulmia (ID: 16912943/0x0102122F) [7446*]:
    → "However, I cannot believe this is the Paradise of peace and love spoken of in legend. We have already been set upon by vicious beasts."
108: 0x03A9 [0x23] WAIT_FOR_DIALOG_INTERACTION
109: 0x03AA [0x52] END_LOAD_SCHEDULER: End scheduler "s036" with entities [LocalPlayer, LocalPlayer], work=163*
110: 0x03B9 [0x45] LOAD_SCHEDULED_TASK: Load scheduler "s037" with entities [LocalPlayer, LocalPlayer], work=[163*, 0*]
111: 0x03CA [0x66] LOAD_EXT_SCHEDULER_MAIN: Load scheduler "thk1" with entities [Shikaree Z (ID: 16912948/0x01021234), Shikaree Z (ID: 16912948/0x01021234)], work=59*
112: 0x03D9 [0x5B] LOAD_EXT_SCHEDULER: Load scheduler "no01" with entities [Ulmia (ID: 16912943/0x0102122F), Ulmia (ID: 16912943/0x0102122F)], work=422*
113: 0x03E8 [0x2B] Shikaree Z (ID: 16912948/0x01021234) [7447*]:
    → "And if what Bahamut says is true, the Keeper of the Apocalypse lurks somewhere in this rrrealm."
114: 0x03EF [0x23] WAIT_FOR_DIALOG_INTERACTION
115: 0x03F0 [0x1C] WAIT(30* ticks)
116: 0x03F3 [0x4A] Ulmia (ID: 16912943/0x0102122F) looks at Shikaree Z (ID: 16912948/0x01021234)
117: 0x03FC [0x23] WAIT_FOR_DIALOG_INTERACTION
118: 0x03FD [0x6F] WAIT_FRAME_DELAY: Yield until WaitTime reaches zero
119: 0x03FE [0x70] WAIT_ENTITY_RENDER_FLAG: Wait while EventEntity->Render.Flags3 bit 2 is set (cancel turn if not)
120: 0x03FF [0x5B] LOAD_EXT_SCHEDULER: Load scheduler "tla0" with entities [Ulmia (ID: 16912943/0x0102122F), Ulmia (ID: 16912943/0x0102122F)], work=420*
121: 0x040E [0x2B] Ulmia (ID: 16912943/0x0102122F) [7448*]:
    → "If Prishe was so intent on gaining entry to the palace, then the keeper will most likely be found inside..."
122: 0x0415 [0x23] WAIT_FOR_DIALOG_INTERACTION
123: 0x0416 [0x5B] LOAD_EXT_SCHEDULER: Load scheduler "tla1" with entities [Ulmia (ID: 16912943/0x0102122F), Ulmia (ID: 16912943/0x0102122F)], work=420*
124: 0x0425 [0x66] LOAD_EXT_SCHEDULER_MAIN: Load scheduler "thk2" with entities [Shikaree Z (ID: 16912948/0x01021234), Shikaree Z (ID: 16912948/0x01021234)], work=59*
125: 0x0434 [0x52] END_LOAD_SCHEDULER: End scheduler "s037" with entities [LocalPlayer, LocalPlayer], work=163*
126: 0x0443 [0x7B] Jabbos (ID: 16912947/0x01021233) stops talking
127: 0x0448 [0x45] LOAD_SCHEDULED_TASK: Load scheduler "s038" with entities [LocalPlayer, LocalPlayer], work=[163*, 0*]
128: 0x0459 [0x66] LOAD_EXT_SCHEDULER_MAIN: Load scheduler "twb0" with entities [Jabbos (ID: 16912947/0x01021233), Jabbos (ID: 16912947/0x01021233)], work=69*
129: 0x0468 [0x2B] Jabbos (ID: 16912947/0x01021233) [7449*]:
    → "Nag'molada...has also...entered the...palace... We have...no choice...but...to proceed..."
130: 0x046F [0x1C] WAIT(75* ticks)
131: 0x0472 [0x66] LOAD_EXT_SCHEDULER_MAIN: Load scheduler "twb1" with entities [Jabbos (ID: 16912947/0x01021233), Jabbos (ID: 16912947/0x01021233)], work=69*
132: 0x0481 [0x23] WAIT_FOR_DIALOG_INTERACTION
133: 0x0482 [0x53] WAIT_SCHEDULER_TASK: Wait for scheduler "twb1" with entities [Jabbos (ID: 16912947/0x01021233), Jabbos (ID: 16912947/0x01021233)]
134: 0x048F [0x52] END_LOAD_SCHEDULER: End scheduler "s038" with entities [LocalPlayer, LocalPlayer], work=163*
135: 0x049E [0x45] LOAD_SCHEDULED_TASK: Load scheduler "s039" with entities [LocalPlayer, LocalPlayer], work=[163*, 0*]
136: 0x04AF [0x4B] UPDATE_ENTITY_YAW(entity=Jabbos (ID: 16912947/0x01021233), yaw=6.1°*)
137: 0x04B6 [0x2B] Jabbos (ID: 16912947/0x01021233) [7450*]:
    → "This...gate...must have...an opening...mechanism... We...should...look around..."
138: 0x04BD [0x1C] WAIT(30* ticks)
139: 0x04C0 [0x4A] Ulmia (ID: 16912943/0x0102122F) looks at Jabbos (ID: 16912947/0x01021233)
140: 0x04C9 [0x23] WAIT_FOR_DIALOG_INTERACTION
141: 0x04CA [0x66] LOAD_EXT_SCHEDULER_MAIN: Load scheduler "thk1" with entities [Louverance (ID: 16912949/0x01021235), Louverance (ID: 16912949/0x01021235)], work=29*
142: 0x04D9 [0x2B] Louverance (ID: 16912949/0x01021235) [7451*]:
    → "Only..."
143: 0x04E0 [0x27] REQ_SET(priority=0x0A, entity_id=Jabbos (ID: 16912947/0x01021233), tag_num=0x03)
144: 0x04E7 [0x1C] WAIT(10* ticks)
145: 0x04EA [0x27] REQ_SET(priority=0x0A, entity_id=Ulmia (ID: 16912943/0x0102122F), tag_num=0x03)
146: 0x04F1 [0x2A] GET_REQ_LEVEL(level=10, entity_id=Ulmia (ID: 16912943/0x0102122F))
147: 0x04F7 [0x1C] WAIT(10* ticks)
148: 0x04FA [0x4B] UPDATE_ENTITY_YAW(entity=Ulmia (ID: 16912943/0x0102122F), yaw=12.3°*)
149: 0x0501 [0x79] LocalPlayer looks at Louverance (ID: 16912949/0x01021235) (Basic look)
150: 0x050B [0x79] Ulmia (ID: 16912943/0x0102122F) looks at Louverance (ID: 16912949/0x01021235) (Basic look)
151: 0x0515 [0x23] WAIT_FOR_DIALOG_INTERACTION
152: 0x0516 [0x52] END_LOAD_SCHEDULER: End scheduler "s039" with entities [LocalPlayer, LocalPlayer], work=163*
153: 0x0525 [0x45] LOAD_SCHEDULED_TASK: Load scheduler "s040" with entities [LocalPlayer, LocalPlayer], work=[163*, 0*]
154: 0x0536 [0x79] Ulmia (ID: 16912943/0x0102122F) looks at Louverance (ID: 16912949/0x01021235) (Basic look)
155: 0x0540 [0x2B] Louverance (ID: 16912949/0x01021235) [7452*]:
    → "I worry that the Keeper of the Apocalypse will be beyond our ability."
156: 0x0547 [0x23] WAIT_FOR_DIALOG_INTERACTION
157: 0x0548 [0x52] END_LOAD_SCHEDULER: End scheduler "s040" with entities [LocalPlayer, LocalPlayer], work=163*
158: 0x0557 [0x45] LOAD_SCHEDULED_TASK: Load scheduler "s041" with entities [LocalPlayer, LocalPlayer], work=[163*, 0*]
159: 0x0568 [0x4B] UPDATE_ENTITY_YAW(entity=Jabbos (ID: 16912947/0x01021233), yaw=21.8°*)
160: 0x056F [0x79] Jabbos (ID: 16912947/0x01021233) looks at Louverance (ID: 16912949/0x01021235) (Basic look)
161: 0x0579 [0x2B] Jabbos (ID: 16912947/0x01021233) [7453*]:
    → "What...do you mean...?"
162: 0x0580 [0x23] WAIT_FOR_DIALOG_INTERACTION
163: 0x0581 [0x52] END_LOAD_SCHEDULER: End scheduler "s041" with entities [LocalPlayer, LocalPlayer], work=163*
164: 0x0590 [0x45] LOAD_SCHEDULED_TASK: Load scheduler "s042" with entities [LocalPlayer, LocalPlayer], work=[163*, 0*]
165: 0x05A1 [0x79] Louverance (ID: 16912949/0x01021235) looks at LocalPlayer (Basic look)
166: 0x05AB [0x66] LOAD_EXT_SCHEDULER_MAIN: Load scheduler "thk2" with entities [Louverance (ID: 16912949/0x01021235), Louverance (ID: 16912949/0x01021235)], work=29*
167: 0x05BA [0x2B] Louverance (ID: 16912949/0x01021235) [7454*]:
    → "<Player>. The four sources of light you acquired..."
168: 0x05C1 [0x23] WAIT_FOR_DIALOG_INTERACTION
169: 0x05C2 [0x66] LOAD_EXT_SCHEDULER_MAIN: Load scheduler "twa0" with entities [Louverance (ID: 16912949/0x01021235), Louverance (ID: 16912949/0x01021235)], work=29*
170: 0x05D1 [0x2B] Louverance (ID: 16912949/0x01021235) [7455*]:
    → "Were they not all taken from you by that blackheart, Nag'molada?"
171: 0x05D8 [0x23] WAIT_FOR_DIALOG_INTERACTION
172: 0x05D9 [0x66] LOAD_EXT_SCHEDULER_MAIN: Load scheduler "twa1" with entities [Louverance (ID: 16912949/0x01021235), Louverance (ID: 16912949/0x01021235)], work=29*
173: 0x05E8 [0x24] CREATE_DIALOG(message_id=7456*, default_option=0*, option_flags=0*)
    → "Was the light taken from you? [Yes, it is gone./No, the light remains.]"
174: 0x05EF [0x25] WAIT_DIALOG_SELECT()
175: 0x05F0 [0x02] IF !(Work_Zone[0] == 0*) GOTO 0x065B
176: 0x05F8 [0x52] END_LOAD_SCHEDULER: End scheduler "s042" with entities [LocalPlayer, LocalPlayer], work=163*
177: 0x0607 [0x45] LOAD_SCHEDULED_TASK: Load scheduler "s043" with entities [LocalPlayer, LocalPlayer], work=[163*, 0*]
178: 0x0618 [0x79] Ulmia (ID: 16912943/0x0102122F) looks at LocalPlayer (Basic look)
179: 0x0622 [0x79] LocalPlayer looks at Ulmia (ID: 16912943/0x0102122F) (Basic look)
180: 0x062C [0x27] REQ_SET(priority=0x0A, entity_id=Ulmia (ID: 16912943/0x0102122F), tag_num=0x04)
181: 0x0633 [0x2B] Ulmia (ID: 16912943/0x0102122F) [7457*]:
    → "Are you certain? I feel that the light has not abandoned us."
182: 0x063A [0x23] WAIT_FOR_DIALOG_INTERACTION
183: 0x063B [0x2A] GET_REQ_LEVEL(level=10, entity_id=Ulmia (ID: 16912943/0x0102122F))
184: 0x0641 [0x5B] LOAD_EXT_SCHEDULER: Load scheduler "tla0" with entities [Ulmia (ID: 16912943/0x0102122F), Ulmia (ID: 16912943/0x0102122F)], work=420*
185: 0x0650 [0x2B] Ulmia (ID: 16912943/0x0102122F) [7458*]:
    → "If we all stand together in body and spirit, there may still be a chance..."
186: 0x0657 [0x23] WAIT_FOR_DIALOG_INTERACTION
187: 0x0658 [0x01] GOTO 0x06C6
188: 0x065B [0x02] IF !(Work_Zone[0] == 1*) GOTO 0x06C6
189: 0x0663 [0x52] END_LOAD_SCHEDULER: End scheduler "s042" with entities [LocalPlayer, LocalPlayer], work=163*
190: 0x0672 [0x45] LOAD_SCHEDULED_TASK: Load scheduler "s043" with entities [LocalPlayer, LocalPlayer], work=[163*, 0*]
191: 0x0683 [0x79] Ulmia (ID: 16912943/0x0102122F) looks at LocalPlayer (Basic look)
192: 0x068D [0x79] LocalPlayer looks at Ulmia (ID: 16912943/0x0102122F) (Basic look)
193: 0x0697 [0x27] REQ_SET(priority=0x0A, entity_id=Ulmia (ID: 16912943/0x0102122F), tag_num=0x04)
194: 0x069E [0x2B] Ulmia (ID: 16912943/0x0102122F) [7459*]:
    → "You mean to say that the light has not left us completely?"
195: 0x06A5 [0x23] WAIT_FOR_DIALOG_INTERACTION
196: 0x06A6 [0x2A] GET_REQ_LEVEL(level=10, entity_id=Ulmia (ID: 16912943/0x0102122F))
197: 0x06AC [0x5B] LOAD_EXT_SCHEDULER: Load scheduler "tla0" with entities [Ulmia (ID: 16912943/0x0102122F), Ulmia (ID: 16912943/0x0102122F)], work=420*
198: 0x06BB [0x2B] Ulmia (ID: 16912943/0x0102122F) [7460*]:
    → "Then if we all stand together in body and spirit, perhaps there is a way..."
199: 0x06C2 [0x23] WAIT_FOR_DIALOG_INTERACTION
200: 0x06C3 [0x01] GOTO 0x06C6

SUBROUTINE_06C6:
201: 0x06C6 [0x5B] LOAD_EXT_SCHEDULER: Load scheduler "tla1" with entities [Ulmia (ID: 16912943/0x0102122F), Ulmia (ID: 16912943/0x0102122F)], work=420*
202: 0x06D5 [0x52] END_LOAD_SCHEDULER: End scheduler "s043" with entities [LocalPlayer, LocalPlayer], work=163*
203: 0x06E4 [0x45] LOAD_SCHEDULED_TASK: Load scheduler "s044" with entities [LocalPlayer, LocalPlayer], work=[163*, 0*]
204: 0x06F5 [0x66] LOAD_EXT_SCHEDULER_MAIN: Load scheduler "thk1" with entities [Shikaree Z (ID: 16912948/0x01021234), Shikaree Z (ID: 16912948/0x01021234)], work=59*
205: 0x0704 [0x7B] Jabbos (ID: 16912947/0x01021233) stops talking
206: 0x0709 [0x7B] Louverance (ID: 16912949/0x01021235) stops talking
207: 0x070E [0x6E] Jabbos (ID: 16912947/0x01021233) uses emote 6*
208: 0x0715 [0x99] Wait for Jabbos (ID: 16912947/0x01021233) animation to complete
209: 0x071A [0x2B] Jabbos (ID: 16912947/0x01021233) [7461*]:
    → "I have...no intention...of joining forces...with Nag'molada..."
210: 0x0721 [0x23] WAIT_FOR_DIALOG_INTERACTION
211: 0x0722 [0x52] END_LOAD_SCHEDULER: End scheduler "s044" with entities [LocalPlayer, LocalPlayer], work=163*
212: 0x0731 [0x45] LOAD_SCHEDULED_TASK: Load scheduler "s045" with entities [LocalPlayer, LocalPlayer], work=[163*, 0*]
213: 0x0742 [0x66] LOAD_EXT_SCHEDULER_MAIN: Load scheduler "twa0" with entities [Louverance (ID: 16912949/0x01021235), Louverance (ID: 16912949/0x01021235)], work=29*
214: 0x0751 [0x2B] Louverance (ID: 16912949/0x01021235) [7462*]:
    → "And I would prefer to keep some distance from Lord Tenzen. Do you not agree, [Sir/Lady] <Player>?"
215: 0x0758 [0x1C] WAIT(30* ticks)
216: 0x075B [0x79] LocalPlayer looks at Louverance (ID: 16912949/0x01021235) (Basic look)
217: 0x0765 [0x79] Louverance (ID: 16912949/0x01021235) looks at LocalPlayer (Basic look)
218: 0x076F [0x23] WAIT_FOR_DIALOG_INTERACTION
219: 0x0770 [0x66] LOAD_EXT_SCHEDULER_MAIN: Load scheduler "twa1" with entities [Louverance (ID: 16912949/0x01021235), Louverance (ID: 16912949/0x01021235)], work=29*
220: 0x077F [0x52] END_LOAD_SCHEDULER: End scheduler "s045" with entities [LocalPlayer, LocalPlayer], work=163*
221: 0x078E [0x45] LOAD_SCHEDULED_TASK: Load scheduler "s047" with entities [LocalPlayer, LocalPlayer], work=[163*, 0*]
222: 0x079F [0x2B] Ulmia (ID: 16912943/0x0102122F) [7463*]:
    → "..."
223: 0x07A6 [0x23] WAIT_FOR_DIALOG_INTERACTION
224: 0x07A7 [0x66] LOAD_EXT_SCHEDULER_MAIN: Load scheduler "thk2" with entities [Shikaree Z (ID: 16912948/0x01021234), Shikaree Z (ID: 16912948/0x01021234)], work=59*
225: 0x07B6 [0x53] WAIT_SCHEDULER_TASK: Wait for scheduler "thk2" with entities [Shikaree Z (ID: 16912948/0x01021234), Shikaree Z (ID: 16912948/0x01021234)]
226: 0x07C3 [0x4B] UPDATE_ENTITY_YAW(entity=Shikaree Z (ID: 16912948/0x01021234), yaw=5.6°*)
227: 0x07CA [0x1E] EventEntity looks at Shikaree Z (ID: 16912948/0x01021234) and starts talking
228: 0x07CF [0x79] Jabbos (ID: 16912947/0x01021233) looks at Shikaree Z (ID: 16912948/0x01021234) (Basic look)
229: 0x07D9 [0x4B] UPDATE_ENTITY_YAW(entity=Jabbos (ID: 16912947/0x01021233), yaw=10.2°*)
230: 0x07E0 [0x2B] Shikaree Z (ID: 16912948/0x01021234) [7464*]:
    → "First we have to find a way to open this gate. Let's get moving."
231: 0x07E7 [0x23] WAIT_FOR_DIALOG_INTERACTION
232: 0x07E8 [0x27] REQ_SET(priority=0x0A, entity_id=Shikaree Z (ID: 16912948/0x01021234), tag_num=0x03)
233: 0x07EF [0x1C] WAIT(30* ticks)
234: 0x07F2 [0x52] END_LOAD_SCHEDULER: End scheduler "s047" with entities [LocalPlayer, LocalPlayer], work=163*
235: 0x0801 [0x45] LOAD_SCHEDULED_TASK: Load scheduler "s048" with entities [LocalPlayer, LocalPlayer], work=[163*, 0*]
236: 0x0812 [0x79] Louverance (ID: 16912949/0x01021235) looks at Shikaree Z (ID: 16912948/0x01021234) (Basic look)
237: 0x081C [0x4A] Ulmia (ID: 16912943/0x0102122F) looks at Shikaree Z (ID: 16912948/0x01021234)
238: 0x0825 [0x1C] WAIT(70* ticks)
239: 0x0828 [0x27] REQ_SET(priority=0x0A, entity_id=Jabbos (ID: 16912947/0x01021233), tag_num=0x04)
240: 0x082F [0x1C] WAIT(70* ticks)
241: 0x0832 [0x27] REQ_SET(priority=0x0A, entity_id=Ulmia (ID: 16912943/0x0102122F), tag_num=0x05)
242: 0x0839 [0x1C] WAIT(60* ticks)
243: 0x083C [0x27] REQ_SET(priority=0x0A, entity_id=Louverance (ID: 16912949/0x01021235), tag_num=0x04)
244: 0x0843 [0x1A] CALL_SUBROUTINE(address=0x1159)
245: 0x0846 [0x1C] WAIT(30* ticks)
246: 0x0849 [0x46] CAMERA_CONTROL: Restore default settings
247: 0x084B [0x1A] CALL_SUBROUTINE(address=0x117A)
248: 0x084E [0x21] END_EVENT
249: 0x084F [0x00] END_REQSTACK()
```

### Event 161

#### Metadata

| Field        | Value     |
|--------------|-----------|
| Entrypoint   | 0x0850    |
| Data Size    | 713 bytes |
| Instructions | 83        |

```
      00 01 02 03 04 05 06 07  08 09 0A 0B 0C 0D 0E 0F
      -- -- -- -- -- -- -- --  -- -- -- -- -- -- -- --
0850: 42 1A 26 11 46 01 38 00  80 37 3B 80 3C 80 3D 80  B.&.F.8..7;.<.=.
0860: 3E 80 4E 00 30 12 02 01  45 01 80 F0 FF FF 7F F0  >.N.0...E.......
0870: FF FF 7F 73 30 30 30 02  80 1A 47 11 79 00 30 12  ...s000...G.y.0.
0880: 02 01 F0 FF FF 7F 27 0A  30 12 02 01 02 55 01 80  ......'.0....U..
0890: F0 FF FF 7F F0 FF FF 7F  73 30 30 30 45 01 80 F0  ........s000E...
08A0: FF FF 7F F0 FF FF 7F 73  30 30 31 02 80 2A 0A 30  .......s001..*.0
08B0: 12 02 01 5B 3F 80 30 12  02 01 30 12 02 01 64 66  ...[?.0...0...df
08C0: 6B 30 2B 30 12 02 01 40  80 23 32 41 80 5B 3F 80  k0+0...@.#2A.[?.
08D0: 30 12 02 01 30 12 02 01  64 66 6B 31 52 01 80 F0  0...0...dfk1R...
08E0: FF FF 7F F0 FF FF 7F 73  30 30 31 45 01 80 F0 FF  .......s001E....
08F0: FF 7F F0 FF FF 7F 73 30  30 32 02 80 1F 00 02 80  ......s002......
0900: 42 80 43 80 1F 01 24 44  80 02 80 02 80 25 02 00  B.C...$D.....%..
0910: 10 02 80 00 19 09 01 19  09 52 01 80 F0 FF FF 7F  .........R......
0920: F0 FF FF 7F 73 30 30 32  45 01 80 F0 FF FF 7F F0  ....s002E.......
0930: FF FF 7F 73 30 30 33 02  80 5B 45 80 30 12 02 01  ...s003..[E.0...
0940: 30 12 02 01 74 6E 6D 30  2B 30 12 02 01 46 80 23  0...tnm0+0...F.#
0950: 53 30 12 02 01 30 12 02  01 74 6E 6D 30 5B 47 80  S0...0...tnm0[G.
0960: 30 12 02 01 30 12 02 01  6D 6F 6A 30 7B 30 12 02  0...0...moj0{0..
0970: 01 2B 30 12 02 01 48 80  23 52 01 80 F0 FF FF 7F  .+0...H.#R......
0980: F0 FF FF 7F 73 30 30 33  45 01 80 F0 FF FF 7F F0  ....s003E.......
0990: FF FF 7F 73 30 30 34 02  80 45 07 80 F0 FF FF 7F  ...s004..E......
09A0: F0 FF FF 7F 6F 76 6C 31  02 80 2B 30 12 02 01 49  ....ovl1..+0...I
09B0: 80 23 79 00 30 12 02 01  F0 FF FF 7F 2B 30 12 02  .#y.0.......+0..
09C0: 01 4A 80 23 52 01 80 F0  FF FF 7F F0 FF FF 7F 73  .J.#R..........s
09D0: 30 30 34 45 01 80 F0 FF  FF 7F F0 FF FF 7F 73 30  004E..........s0
09E0: 30 35 02 80 22 01 5B 4B  80 30 12 02 01 30 12 02  05..".[K.0...0..
09F0: 01 64 66 63 30 2B 30 12  02 01 4C 80 23 7B 30 12  .dfc0+0...L.#{0.
0A00: 02 01 5B 45 80 30 12 02  01 30 12 02 01 6C 73 61  ..[E.0...0...lsa
0A10: 30 2B 30 12 02 01 4D 80  23 5B 45 80 30 12 02 01  0+0...M.#[E.0...
0A20: 30 12 02 01 6C 73 61 31  22 00 52 01 80 F0 FF FF  0...lsa1".R.....
0A30: 7F F0 FF FF 7F 73 30 30  35 45 01 80 F0 FF FF 7F  .....s005E......
0A40: F0 FF FF 7F 73 30 30 36  02 80 79 00 30 12 02 01  ....s006..y.0...
0A50: F0 FF FF 7F 5B 47 80 30  12 02 01 30 12 02 01 74  ....[G.0...0...t
0A60: 6C 6B 30 2B 30 12 02 01  4E 80 23 52 01 80 F0 FF  lk0+0...N.#R....
0A70: FF 7F F0 FF FF 7F 73 30  30 36 45 01 80 F0 FF FF  ......s006E.....
0A80: 7F F0 FF FF 7F 73 30 30  38 02 80 5B 47 80 30 12  .....s008..[G.0.
0A90: 02 01 30 12 02 01 69 72  6F 30 2B 30 12 02 01 4F  ..0...iro0+0...O
0AA0: 80 23 52 01 80 F0 FF FF  7F F0 FF FF 7F 73 30 30  .#R..........s00
0AB0: 38 45 01 80 F0 FF FF 7F  F0 FF FF 7F 73 30 30 37  8E..........s007
0AC0: 02 80 2B 30 12 02 01 50  80 23 53 30 12 02 01 30  ..+0...P.#S0...0
0AD0: 12 02 01 69 72 6F 30 5B  47 80 30 12 02 01 30 12  ...iro0[G.0...0.
0AE0: 02 01 77 61 76 30 53 30  12 02 01 30 12 02 01 77  ..wav0S0...0...w
0AF0: 61 76 30 1C 51 80 27 0A  30 12 02 01 03 1C 0F 80  av0.Q.'.0.......
0B00: 1A 59 11 52 01 80 F0 FF  FF 7F F0 FF FF 7F 73 30  .Y.R..........s0
0B10: 30 37 46 00 1A 7A 11 21  00                       07F..z.!.       
```

#### Opcodes

```
  0: 0x0850 [0x42] SET_CLI_EVENT_CANCEL_DATA()
  1: 0x0851 [0x1A] CALL_SUBROUTINE(address=0x1126)
  2: 0x0854 [0x46] CAMERA_CONTROL: Disable user control
  3: 0x0856 [0x38] SET_CLIENT_EVENT_MODE(mode=19*)
  4: 0x0859 [0x37] UPDATE_EVENT_POSITION_AND_DIR: x=0.004*, z=-736.413*, y=-4.007*, direction=95.2°*
  5: 0x0862 [0x4E] SET_ENTITY_HIDE_FLAG: Show Makki-Chebukki (ID: 16912944/0x01021230)
  6: 0x0868 [0x45] LOAD_SCHEDULED_TASK: Load scheduler "s000" with entities [LocalPlayer, LocalPlayer], work=[163*, 0*]
  7: 0x0879 [0x1A] CALL_SUBROUTINE(address=0x1147)
  8: 0x087C [0x79] Makki-Chebukki (ID: 16912944/0x01021230) looks at LocalPlayer (Basic look)
  9: 0x0886 [0x27] REQ_SET(priority=0x0A, entity_id=Makki-Chebukki (ID: 16912944/0x01021230), tag_num=0x02)
 10: 0x088D [0x55] WAIT_LOAD_SCHEDULER: Wait for scheduler "s000" with entities [LocalPlayer, LocalPlayer], work=163*
 11: 0x089C [0x45] LOAD_SCHEDULED_TASK: Load scheduler "s001" with entities [LocalPlayer, LocalPlayer], work=[163*, 0*]
 12: 0x08AD [0x2A] GET_REQ_LEVEL(level=10, entity_id=Makki-Chebukki (ID: 16912944/0x01021230))
 13: 0x08B3 [0x5B] LOAD_EXT_SCHEDULER: Load scheduler "dfk0" with entities [Makki-Chebukki (ID: 16912944/0x01021230), Makki-Chebukki (ID: 16912944/0x01021230)], work=441*
 14: 0x08C2 [0x2B] Makki-Chebukki (ID: 16912944/0x01021230) [7466*]:
    → "You! Have you come to punish us!?"
 15: 0x08C9 [0x23] WAIT_FOR_DIALOG_INTERACTION
 16: 0x08CA [0x32] ExtData[1]->MainSpeed = 13* * 0.1
 17: 0x08CD [0x5B] LOAD_EXT_SCHEDULER: Load scheduler "dfk1" with entities [Makki-Chebukki (ID: 16912944/0x01021230), Makki-Chebukki (ID: 16912944/0x01021230)], work=441*
 18: 0x08DC [0x52] END_LOAD_SCHEDULER: End scheduler "s001" with entities [LocalPlayer, LocalPlayer], work=163*
 19: 0x08EB [0x45] LOAD_SCHEDULED_TASK: Load scheduler "s002" with entities [LocalPlayer, LocalPlayer], work=[163*, 0*]
 20: 0x08FC [0x1F] MOVE_ENTITY: EventEntity moves to X=0.000*, Z=-734.702*, Y=-3.757*
 21: 0x0904 [0x1F] MOVE_ENTITY: Update entity position (mode=1)
 22: 0x0906 [0x24] CREATE_DIALOG(message_id=7467*, default_option=0*, option_flags=0*)
    → "Mete out some punishment? [Time for payback.../Let's be civilized...]"
 23: 0x090D [0x25] WAIT_DIALOG_SELECT()
 24: 0x090E [0x02] IF !(Work_Zone[0] == 0*) GOTO 0x0919
 25: 0x0916 [0x01] GOTO 0x0919

SUBROUTINE_0919:
 26: 0x0919 [0x52] END_LOAD_SCHEDULER: End scheduler "s002" with entities [LocalPlayer, LocalPlayer], work=163*
 27: 0x0928 [0x45] LOAD_SCHEDULED_TASK: Load scheduler "s003" with entities [LocalPlayer, LocalPlayer], work=[163*, 0*]
 28: 0x0939 [0x5B] LOAD_EXT_SCHEDULER: Load scheduler "tnm0" with entities [Makki-Chebukki (ID: 16912944/0x01021230), Makki-Chebukki (ID: 16912944/0x01021230)], work=443*
 29: 0x0948 [0x2B] Makki-Chebukki (ID: 16912944/0x01021230) [7468*]:
    → "H-h-hold on a second! Time out! Time out!"
 30: 0x094F [0x23] WAIT_FOR_DIALOG_INTERACTION
 31: 0x0950 [0x53] WAIT_SCHEDULER_TASK: Wait for scheduler "tnm0" with entities [Makki-Chebukki (ID: 16912944/0x01021230), Makki-Chebukki (ID: 16912944/0x01021230)]
 32: 0x095D [0x5B] LOAD_EXT_SCHEDULER: Load scheduler "moj0" with entities [Makki-Chebukki (ID: 16912944/0x01021230), Makki-Chebukki (ID: 16912944/0x01021230)], work=336*
 33: 0x096C [0x7B] Makki-Chebukki (ID: 16912944/0x01021230) stops talking
 34: 0x0971 [0x2B] Makki-Chebukki (ID: 16912944/0x01021230) [7469*]:
    → "It's not our fault! Lord Tenzen lied to us!"
 35: 0x0978 [0x23] WAIT_FOR_DIALOG_INTERACTION
 36: 0x0979 [0x52] END_LOAD_SCHEDULER: End scheduler "s003" with entities [LocalPlayer, LocalPlayer], work=163*
 37: 0x0988 [0x45] LOAD_SCHEDULED_TASK: Load scheduler "s004" with entities [LocalPlayer, LocalPlayer], work=[163*, 0*]
 38: 0x0999 [0x45] LOAD_SCHEDULED_TASK: Load scheduler "ovl1" with entities [LocalPlayer, LocalPlayer], work=[200*, 0*]
 39: 0x09AA [0x2B] Makki-Chebukki (ID: 16912944/0x01021230) [7470*]:
    → "And if you don't follow your samurai master's orders, you have to commit ritual suicide. It's true! I read it in a book somewhere!"
 40: 0x09B1 [0x23] WAIT_FOR_DIALOG_INTERACTION
 41: 0x09B2 [0x79] Makki-Chebukki (ID: 16912944/0x01021230) looks at LocalPlayer (Basic look)
 42: 0x09BC [0x2B] Makki-Chebukki (ID: 16912944/0x01021230) [7471*]:
    → "So..."
 43: 0x09C3 [0x23] WAIT_FOR_DIALOG_INTERACTION
 44: 0x09C4 [0x52] END_LOAD_SCHEDULER: End scheduler "s004" with entities [LocalPlayer, LocalPlayer], work=163*
 45: 0x09D3 [0x45] LOAD_SCHEDULED_TASK: Load scheduler "s005" with entities [LocalPlayer, LocalPlayer], work=[163*, 0*]
 46: 0x09E4 [0x22] ENTITY_HIDE_FLAG(enabled=0x01)
 47: 0x09E6 [0x5B] LOAD_EXT_SCHEDULER: Load scheduler "dfc0" with entities [Makki-Chebukki (ID: 16912944/0x01021230), Makki-Chebukki (ID: 16912944/0x01021230)], work=431*
 48: 0x09F5 [0x2B] Makki-Chebukki (ID: 16912944/0x01021230) [7472*]:
    → "I suppose you want to get into the palace, huh?"
 49: 0x09FC [0x23] WAIT_FOR_DIALOG_INTERACTION
 50: 0x09FD [0x7B] Makki-Chebukki (ID: 16912944/0x01021230) stops talking
 51: 0x0A02 [0x5B] LOAD_EXT_SCHEDULER: Load scheduler "lsa0" with entities [Makki-Chebukki (ID: 16912944/0x01021230), Makki-Chebukki (ID: 16912944/0x01021230)], work=443*
 52: 0x0A11 [0x2B] Makki-Chebukki (ID: 16912944/0x01021230) [7473*]:
    → "Well, we want to get in there, too. This voice in my head is driving me crazy!"
 53: 0x0A18 [0x23] WAIT_FOR_DIALOG_INTERACTION
 54: 0x0A19 [0x5B] LOAD_EXT_SCHEDULER: Load scheduler "lsa1" with entities [Makki-Chebukki (ID: 16912944/0x01021230), Makki-Chebukki (ID: 16912944/0x01021230)], work=443*
 55: 0x0A28 [0x22] ENTITY_HIDE_FLAG(enabled=0x00)
 56: 0x0A2A [0x52] END_LOAD_SCHEDULER: End scheduler "s005" with entities [LocalPlayer, LocalPlayer], work=163*
 57: 0x0A39 [0x45] LOAD_SCHEDULED_TASK: Load scheduler "s006" with entities [LocalPlayer, LocalPlayer], work=[163*, 0*]
 58: 0x0A4A [0x79] Makki-Chebukki (ID: 16912944/0x01021230) looks at LocalPlayer (Basic look)
 59: 0x0A54 [0x5B] LOAD_EXT_SCHEDULER: Load scheduler "tlk0" with entities [Makki-Chebukki (ID: 16912944/0x01021230), Makki-Chebukki (ID: 16912944/0x01021230)], work=336*
 60: 0x0A63 [0x2B] Makki-Chebukki (ID: 16912944/0x01021230) [7474*]:
    → "Let's let bygones be bygones and work together, okay? We've ditched the samurai life, anyway."
 61: 0x0A6A [0x23] WAIT_FOR_DIALOG_INTERACTION
 62: 0x0A6B [0x52] END_LOAD_SCHEDULER: End scheduler "s006" with entities [LocalPlayer, LocalPlayer], work=163*
 63: 0x0A7A [0x45] LOAD_SCHEDULED_TASK: Load scheduler "s008" with entities [LocalPlayer, LocalPlayer], work=[163*, 0*]
 64: 0x0A8B [0x5B] LOAD_EXT_SCHEDULER: Load scheduler "iro0" with entities [Makki-Chebukki (ID: 16912944/0x01021230), Makki-Chebukki (ID: 16912944/0x01021230)], work=336*
 65: 0x0A9A [0x2B] Makki-Chebukki (ID: 16912944/0x01021230) [7475*]:
    → "Getting past that gate is more complicated than just releasing the lock on this [southern/eastern/western] tower."
 66: 0x0AA1 [0x23] WAIT_FOR_DIALOG_INTERACTION
 67: 0x0AA2 [0x52] END_LOAD_SCHEDULER: End scheduler "s008" with entities [LocalPlayer, LocalPlayer], work=163*
 68: 0x0AB1 [0x45] LOAD_SCHEDULED_TASK: Load scheduler "s007" with entities [LocalPlayer, LocalPlayer], work=[163*, 0*]
 69: 0x0AC2 [0x2B] Makki-Chebukki (ID: 16912944/0x01021230) [7476*]:
    → "If you really want to know how to open the gate, you better take a look at the other towers as well."
 70: 0x0AC9 [0x23] WAIT_FOR_DIALOG_INTERACTION
 71: 0x0ACA [0x53] WAIT_SCHEDULER_TASK: Wait for scheduler "iro0" with entities [Makki-Chebukki (ID: 16912944/0x01021230), Makki-Chebukki (ID: 16912944/0x01021230)]
 72: 0x0AD7 [0x5B] LOAD_EXT_SCHEDULER: Load scheduler "wav0" with entities [Makki-Chebukki (ID: 16912944/0x01021230), Makki-Chebukki (ID: 16912944/0x01021230)], work=336*
 73: 0x0AE6 [0x53] WAIT_SCHEDULER_TASK: Wait for scheduler "wav0" with entities [Makki-Chebukki (ID: 16912944/0x01021230), Makki-Chebukki (ID: 16912944/0x01021230)]
 74: 0x0AF3 [0x1C] WAIT(15* ticks)
 75: 0x0AF6 [0x27] REQ_SET(priority=0x0A, entity_id=Makki-Chebukki (ID: 16912944/0x01021230), tag_num=0x03)
 76: 0x0AFD [0x1C] WAIT(60* ticks)
 77: 0x0B00 [0x1A] CALL_SUBROUTINE(address=0x1159)
 78: 0x0B03 [0x52] END_LOAD_SCHEDULER: End scheduler "s007" with entities [LocalPlayer, LocalPlayer], work=163*
 79: 0x0B12 [0x46] CAMERA_CONTROL: Restore default settings
 80: 0x0B14 [0x1A] CALL_SUBROUTINE(address=0x117A)
 81: 0x0B17 [0x21] END_EVENT
 82: 0x0B18 [0x00] END_REQSTACK()
```

### Event 162

#### Metadata

| Field        | Value     |
|--------------|-----------|
| Entrypoint   | 0x0B19    |
| Data Size    | 514 bytes |
| Instructions | 65        |

```
      00 01 02 03 04 05 06 07  08 09 0A 0B 0C 0D 0E 0F
      -- -- -- -- -- -- -- --  -- -- -- -- -- -- -- --
0B10:                             42 1A 26 11 46 01 38           B.&.F.8
0B20: 00 80 37 52 80 53 80 3D  80 54 80 45 01 80 F0 FF  ..7R.S.=.T.E....
0B30: FF 7F F0 FF FF 7F 73 30  30 39 02 80 79 00 31 12  ......s009..y.1.
0B40: 02 01 F0 FF FF 7F 1A 47  11 4E 00 31 12 02 01 27  .......G.N.1...'
0B50: 0A 31 12 02 01 02 4A F0  FF FF 7F 31 12 02 01 2B  .1....J....1...+
0B60: 31 12 02 01 55 80 1C 08  80 1E 31 12 02 01 23 2A  1...U.....1...#*
0B70: 0A 31 12 02 01 52 01 80  F0 FF FF 7F F0 FF FF 7F  .1...R..........
0B80: 73 30 30 39 45 01 80 F0  FF FF 7F F0 FF FF 7F 73  s009E..........s
0B90: 30 31 30 02 80 27 0A 31  12 02 01 03 2B 31 12 02  010..'.1....+1..
0BA0: 01 56 80 23 2A 0A 31 12  02 01 5B 3F 80 31 12 02  .V.#*.1...[?.1..
0BB0: 01 31 12 02 01 64 66 6B  30 52 01 80 F0 FF FF 7F  .1...dfk0R......
0BC0: F0 FF FF 7F 73 30 31 30  45 01 80 F0 FF FF 7F F0  ....s010E.......
0BD0: FF FF 7F 73 30 31 31 02  80 2B 31 12 02 01 57 80  ...s011..+1...W.
0BE0: 23 5B 3F 80 31 12 02 01  31 12 02 01 64 66 6B 31  #[?.1...1...dfk1
0BF0: 53 31 12 02 01 31 12 02  01 64 66 6B 31 52 01 80  S1...1...dfk1R..
0C00: F0 FF FF 7F F0 FF FF 7F  73 30 31 31 45 01 80 F0  ........s011E...
0C10: FF FF 7F F0 FF FF 7F 73  30 31 32 02 80 27 0A 31  .......s012..'.1
0C20: 12 02 01 04 7B 31 12 02  01 2B 31 12 02 01 58 80  ....{1...+1...X.
0C30: 1C 08 80 4A F0 FF FF 7F  31 12 02 01 23 2A 0A 31  ...J....1...#*.1
0C40: 12 02 01 4A 31 12 02 01  F0 FF FF 7F 2B 31 12 02  ...J1.......+1..
0C50: 01 59 80 23 52 01 80 F0  FF FF 7F F0 FF FF 7F 73  .Y.#R..........s
0C60: 30 31 32 45 01 80 F0 FF  FF 7F F0 FF FF 7F 73 30  012E..........s0
0C70: 31 33 02 80 5B 5A 80 31  12 02 01 31 12 02 01 6A  13..[Z.1...1...j
0C80: 6F 79 30 2B 31 12 02 01  5B 80 23 53 31 12 02 01  oy0+1...[.#S1...
0C90: 31 12 02 01 6A 6F 79 30  52 01 80 F0 FF FF 7F F0  1...joy0R.......
0CA0: FF FF 7F 73 30 31 33 45  07 80 F0 FF FF 7F F0 FF  ...s013E........
0CB0: FF 7F 6F 76 6C 31 02 80  45 01 80 F0 FF FF 7F F0  ..ovl1..E.......
0CC0: FF FF 7F 73 30 31 34 02  80 2B 31 12 02 01 5C 80  ...s014..+1...\.
0CD0: 23 5B 47 80 31 12 02 01  31 12 02 01 77 61 76 30  #[G.1...1...wav0
0CE0: 2B 31 12 02 01 5D 80 23  53 30 12 02 01 30 12 02  +1...].#S0...0..
0CF0: 01 77 61 76 30 1C 0E 80  27 0A 31 12 02 01 05 1C  .wav0...'.1.....
0D00: 0F 80 1A 59 11 52 01 80  F0 FF FF 7F F0 FF FF 7F  ...Y.R..........
0D10: 73 30 31 34 46 00 1A 7A  11 21 00                 s014F..z.!.     
```

#### Opcodes

```
  0: 0x0B19 [0x42] SET_CLI_EVENT_CANCEL_DATA()
  1: 0x0B1A [0x1A] CALL_SUBROUTINE(address=0x1126)
  2: 0x0B1D [0x46] CAMERA_CONTROL: Disable user control
  3: 0x0B1F [0x38] SET_CLIENT_EVENT_MODE(mode=19*)
  4: 0x0B22 [0x37] UPDATE_EVENT_POSITION_AND_DIR: x=0.275*, z=-737.248*, y=-4.007*, direction=113.2°*
  5: 0x0B2B [0x45] LOAD_SCHEDULED_TASK: Load scheduler "s009" with entities [LocalPlayer, LocalPlayer], work=[163*, 0*]
  6: 0x0B3C [0x79] Kukki-Chebukki (ID: 16912945/0x01021231) looks at LocalPlayer (Basic look)
  7: 0x0B46 [0x1A] CALL_SUBROUTINE(address=0x1147)
  8: 0x0B49 [0x4E] SET_ENTITY_HIDE_FLAG: Show Kukki-Chebukki (ID: 16912945/0x01021231)
  9: 0x0B4F [0x27] REQ_SET(priority=0x0A, entity_id=Kukki-Chebukki (ID: 16912945/0x01021231), tag_num=0x02)
 10: 0x0B56 [0x4A] LocalPlayer looks at Kukki-Chebukki (ID: 16912945/0x01021231)
 11: 0x0B5F [0x2B] Kukki-Chebukki (ID: 16912945/0x01021231) [7477*]:
    → "Well done!"
 12: 0x0B66 [0x1C] WAIT(30* ticks)
 13: 0x0B69 [0x1E] EventEntity looks at Kukki-Chebukki (ID: 16912945/0x01021231) and starts talking
 14: 0x0B6E [0x23] WAIT_FOR_DIALOG_INTERACTION
 15: 0x0B6F [0x2A] GET_REQ_LEVEL(level=10, entity_id=Kukki-Chebukki (ID: 16912945/0x01021231))
 16: 0x0B75 [0x52] END_LOAD_SCHEDULER: End scheduler "s009" with entities [LocalPlayer, LocalPlayer], work=163*
 17: 0x0B84 [0x45] LOAD_SCHEDULED_TASK: Load scheduler "s010" with entities [LocalPlayer, LocalPlayer], work=[163*, 0*]
 18: 0x0B95 [0x27] REQ_SET(priority=0x0A, entity_id=Kukki-Chebukki (ID: 16912945/0x01021231), tag_num=0x03)
 19: 0x0B9C [0x2B] Kukki-Chebukki (ID: 16912945/0x01021231) [7478*]:
    → "Makki told me all about our deal! You wanna get in to see the king, right?"
 20: 0x0BA3 [0x23] WAIT_FOR_DIALOG_INTERACTION
 21: 0x0BA4 [0x2A] GET_REQ_LEVEL(level=10, entity_id=Kukki-Chebukki (ID: 16912945/0x01021231))
 22: 0x0BAA [0x5B] LOAD_EXT_SCHEDULER: Load scheduler "dfk0" with entities [Kukki-Chebukki (ID: 16912945/0x01021231), Kukki-Chebukki (ID: 16912945/0x01021231)], work=441*
 23: 0x0BB9 [0x52] END_LOAD_SCHEDULER: End scheduler "s010" with entities [LocalPlayer, LocalPlayer], work=163*
 24: 0x0BC8 [0x45] LOAD_SCHEDULED_TASK: Load scheduler "s011" with entities [LocalPlayer, LocalPlayer], work=[163*, 0*]
 25: 0x0BD9 [0x2B] Kukki-Chebukki (ID: 16912945/0x01021231) [7479*]:
    → "Just so's you know, the positions of princes and princess have already been filled!"
 26: 0x0BE0 [0x23] WAIT_FOR_DIALOG_INTERACTION
 27: 0x0BE1 [0x5B] LOAD_EXT_SCHEDULER: Load scheduler "dfk1" with entities [Kukki-Chebukki (ID: 16912945/0x01021231), Kukki-Chebukki (ID: 16912945/0x01021231)], work=441*
 28: 0x0BF0 [0x53] WAIT_SCHEDULER_TASK: Wait for scheduler "dfk1" with entities [Kukki-Chebukki (ID: 16912945/0x01021231), Kukki-Chebukki (ID: 16912945/0x01021231)]
 29: 0x0BFD [0x52] END_LOAD_SCHEDULER: End scheduler "s011" with entities [LocalPlayer, LocalPlayer], work=163*
 30: 0x0C0C [0x45] LOAD_SCHEDULED_TASK: Load scheduler "s012" with entities [LocalPlayer, LocalPlayer], work=[163*, 0*]
 31: 0x0C1D [0x27] REQ_SET(priority=0x0A, entity_id=Kukki-Chebukki (ID: 16912945/0x01021231), tag_num=0x04)
 32: 0x0C24 [0x7B] Kukki-Chebukki (ID: 16912945/0x01021231) stops talking
 33: 0x0C29 [0x2B] Kukki-Chebukki (ID: 16912945/0x01021231) [7480*]:
    → "Didn't you know? The Zilartian king used to have two sons and a daughter."
 34: 0x0C30 [0x1C] WAIT(30* ticks)
 35: 0x0C33 [0x4A] LocalPlayer looks at Kukki-Chebukki (ID: 16912945/0x01021231)
 36: 0x0C3C [0x23] WAIT_FOR_DIALOG_INTERACTION
 37: 0x0C3D [0x2A] GET_REQ_LEVEL(level=10, entity_id=Kukki-Chebukki (ID: 16912945/0x01021231))
 38: 0x0C43 [0x4A] Kukki-Chebukki (ID: 16912945/0x01021231) looks at LocalPlayer
 39: 0x0C4C [0x2B] Kukki-Chebukki (ID: 16912945/0x01021231) [7481*]:
    → "They've been out of the picture for ten thousand years now, so he must be feeling pretty lonely."
 40: 0x0C53 [0x23] WAIT_FOR_DIALOG_INTERACTION
 41: 0x0C54 [0x52] END_LOAD_SCHEDULER: End scheduler "s012" with entities [LocalPlayer, LocalPlayer], work=163*
 42: 0x0C63 [0x45] LOAD_SCHEDULED_TASK: Load scheduler "s013" with entities [LocalPlayer, LocalPlayer], work=[163*, 0*]
 43: 0x0C74 [0x5B] LOAD_EXT_SCHEDULER: Load scheduler "joy0" with entities [Kukki-Chebukki (ID: 16912945/0x01021231), Kukki-Chebukki (ID: 16912945/0x01021231)], work=442*
 44: 0x0C83 [0x2B] Kukki-Chebukki (ID: 16912945/0x01021231) [7482*]:
    → "After all that time, he's probably a few jewels short of a crown, too, if you know what I mean. I doubt the king'll notice if we're a little shorter than he remembers."
 45: 0x0C8A [0x23] WAIT_FOR_DIALOG_INTERACTION
 46: 0x0C8B [0x53] WAIT_SCHEDULER_TASK: Wait for scheduler "joy0" with entities [Kukki-Chebukki (ID: 16912945/0x01021231), Kukki-Chebukki (ID: 16912945/0x01021231)]
 47: 0x0C98 [0x52] END_LOAD_SCHEDULER: End scheduler "s013" with entities [LocalPlayer, LocalPlayer], work=163*
 48: 0x0CA7 [0x45] LOAD_SCHEDULED_TASK: Load scheduler "ovl1" with entities [LocalPlayer, LocalPlayer], work=[200*, 0*]
 49: 0x0CB8 [0x45] LOAD_SCHEDULED_TASK: Load scheduler "s014" with entities [LocalPlayer, LocalPlayer], work=[163*, 0*]
 50: 0x0CC9 [0x2B] Kukki-Chebukki (ID: 16912945/0x01021231) [7483*]:
    → "We might even take you on as a servant if you're lucky! C'mon, time's a wastin'! Off to the [southern/eastern/western] tower!"
 51: 0x0CD0 [0x23] WAIT_FOR_DIALOG_INTERACTION
 52: 0x0CD1 [0x5B] LOAD_EXT_SCHEDULER: Load scheduler "wav0" with entities [Kukki-Chebukki (ID: 16912945/0x01021231), Kukki-Chebukki (ID: 16912945/0x01021231)], work=336*
 53: 0x0CE0 [0x2B] Kukki-Chebukki (ID: 16912945/0x01021231) [7484*]:
    → "Mind your manners around the future princess!"
 54: 0x0CE7 [0x23] WAIT_FOR_DIALOG_INTERACTION
 55: 0x0CE8 [0x53] WAIT_SCHEDULER_TASK: Wait for scheduler "wav0" with entities [Makki-Chebukki (ID: 16912944/0x01021230), Makki-Chebukki (ID: 16912944/0x01021230)]
 56: 0x0CF5 [0x1C] WAIT(10* ticks)
 57: 0x0CF8 [0x27] REQ_SET(priority=0x0A, entity_id=Kukki-Chebukki (ID: 16912945/0x01021231), tag_num=0x05)
 58: 0x0CFF [0x1C] WAIT(60* ticks)
 59: 0x0D02 [0x1A] CALL_SUBROUTINE(address=0x1159)
 60: 0x0D05 [0x52] END_LOAD_SCHEDULER: End scheduler "s014" with entities [LocalPlayer, LocalPlayer], work=163*
 61: 0x0D14 [0x46] CAMERA_CONTROL: Restore default settings
 62: 0x0D16 [0x1A] CALL_SUBROUTINE(address=0x117A)
 63: 0x0D19 [0x21] END_EVENT
 64: 0x0D1A [0x00] END_REQSTACK()
```

### Event 163

#### Metadata

| Field        | Value      |
|--------------|------------|
| Entrypoint   | 0x0D1B     |
| Data Size    | 1137 bytes |
| Instructions | 120        |

```
      00 01 02 03 04 05 06 07  08 09 0A 0B 0C 0D 0E 0F
      -- -- -- -- -- -- -- --  -- -- -- -- -- -- -- --
0D10:                                   42 1A 26 11 46             B.&.F
0D20: 01 38 00 80 37 5E 80 5F  80 3D 80 60 80 45 01 80  .8..7^._.=.`.E..
0D30: F0 FF FF 7F F0 FF FF 7F  73 30 31 35 02 80 4E 00  ........s015..N.
0D40: 32 12 02 01 1E 32 12 02  01 80 32 12 02 01 1C 61  2....2....2....a
0D50: 80 2C 32 12 02 01 32 12  02 01 63 6F 72 70 1A 47  .,2...2...corp.G
0D60: 11 1C 0F 80 2B 32 12 02  01 62 80 23 5B 63 80 32  ....+2...b.#[c.2
0D70: 12 02 01 32 12 02 01 6F  6B 69 72 1C 08 80 52 01  ...2...okir...R.
0D80: 80 F0 FF FF 7F F0 FF FF  7F 73 30 31 35 45 01 80  .........s015E..
0D90: F0 FF FF 7F F0 FF FF 7F  73 30 31 36 02 80 53 32  ........s016..S2
0DA0: 12 02 01 32 12 02 01 6F  6B 69 72 5B 64 80 32 12  ...2...okir[d.2.
0DB0: 02 01 32 12 02 01 68 6F  68 30 2B 32 12 02 01 65  ..2...hoh0+2...e
0DC0: 80 23 52 01 80 F0 FF FF  7F F0 FF FF 7F 73 30 31  .#R..........s01
0DD0: 36 45 01 80 F0 FF FF 7F  F0 FF FF 7F 73 30 31 37  6E..........s017
0DE0: 02 80 5B 66 80 32 12 02  01 32 12 02 01 6A 6F 79  ..[f.2...2...joy
0DF0: 30 2B 32 12 02 01 67 80  23 5B 68 80 32 12 02 01  0+2...g.#[h.2...
0E00: 32 12 02 01 65 68 6E 30  2B 32 12 02 01 69 80 23  2...ehn0+2...i.#
0E10: 5B 64 80 32 12 02 01 32  12 02 01 6C 73 61 30 52  [d.2...2...lsa0R
0E20: 01 80 F0 FF FF 7F F0 FF  FF 7F 73 30 31 37 45 01  ..........s017E.
0E30: 80 F0 FF FF 7F F0 FF FF  7F 73 30 31 38 02 80 2B  .........s018..+
0E40: 32 12 02 01 6A 80 23 1A  59 11 5B 64 80 32 12 02  2...j.#.Y.[d.2..
0E50: 01 32 12 02 01 6C 73 61  31 52 01 80 F0 FF FF 7F  .2...lsa1R......
0E60: F0 FF FF 7F 73 30 31 38  4E 00 30 12 02 01 4E 00  ....s018N.0...N.
0E70: 31 12 02 01 45 01 80 F0  FF FF 7F F0 FF FF 7F 73  1...E..........s
0E80: 30 31 39 02 80 1A 7A 11  1C 6B 80 27 0A 05 12 02  019...z..k.'....
0E90: 01 02 55 01 80 F0 FF FF  7F F0 FF FF 7F 73 30 31  ..U..........s01
0EA0: 39 45 07 80 F0 FF FF 7F  F0 FF FF 7F 6F 76 6C 32  9E..........ovl2
0EB0: 02 80 45 01 80 F0 FF FF  7F F0 FF FF 7F 73 30 32  ..E..........s02
0EC0: 30 02 80 1C 10 80 27 0A  06 12 02 01 02 1C 6C 80  0.....'.......l.
0ED0: 4A 31 12 02 01 06 12 02  01 55 01 80 F0 FF FF 7F  J1.......U......
0EE0: F0 FF FF 7F 73 30 32 30  45 07 80 F0 FF FF 7F F0  ....s020E.......
0EF0: FF FF 7F 6F 76 6C 32 02  80 45 6D 80 F0 FF FF 7F  ...ovl2..Em.....
0F00: F0 FF FF 7F 73 74 77 31  02 80 45 07 80 F0 FF FF  ....stw1..E.....
0F10: 7F F0 FF FF 7F 66 64 69  31 02 80 1C 6B 80 2D 04  .....fdi1...k.-.
0F20: 12 02 01 04 12 02 01 31  74 6F 77 1E 04 12 02 01  .......1tow.....
0F30: 4A 32 12 02 01 04 12 02  01 1C 6E 80 27 0A 04 12  J2........n.'...
0F40: 02 01 02 1C 6F 80 45 07  80 F0 FF FF 7F F0 FF FF  ....o.E.........
0F50: 7F 6F 76 6C 32 02 80 45  6D 80 F0 FF FF 7F F0 FF  .ovl2..Em.......
0F60: FF 7F 67 61 74 30 02 80  45 07 80 F0 FF FF 7F F0  ..gat0..E.......
0F70: FF FF 7F 66 64 69 31 02  80 1C 70 80 45 07 80 F0  ...fdi1...p.E...
0F80: FF FF 7F F0 FF FF 7F 6F  76 6C 31 02 80 45 6D 80  .......ovl1..Em.
0F90: F0 FF FF 7F F0 FF FF 7F  67 61 74 31 02 80 2D F8  ........gat1..-.
0FA0: FF FF 7F F8 FF FF 7F 6F  6F 66 66 1C 71 80 27 0A  .......ooff.q.'.
0FB0: 03 12 02 01 02 45 07 80  F0 FF FF 7F F0 FF FF 7F  .....E..........
0FC0: 6F 76 6C 31 02 80 45 6D  80 F0 FF FF 7F F0 FF FF  ovl1..Em........
0FD0: 7F 67 61 74 32 02 80 1C  72 80 4A 30 12 02 01 03  .gat2...r.J0....
0FE0: 12 02 01 4A 31 12 02 01  03 12 02 01 4A 32 12 02  ...J1.......J2..
0FF0: 01 03 12 02 01 1E 03 12  02 01 1A 59 11 52 6D 80  ...........Y.Rm.
1000: F0 FF FF 7F F0 FF FF 7F  67 61 74 32 45 01 80 F0  ........gat2E...
1010: FF FF 7F F0 FF FF 7F 73  30 32 32 02 80 1A 14 11  .......s022.....
1020: 5B 3F 80 30 12 02 01 30  12 02 01 64 66 6D 30 2B  [?.0...0...dfm0+
1030: 30 12 02 01 73 80 23 55  01 80 F0 FF FF 7F F0 FF  0...s.#U........
1040: FF 7F 73 30 32 32 45 01  80 F0 FF FF 7F F0 FF FF  ..s022E.........
1050: 7F 73 30 32 33 02 80 5B  3F 80 31 12 02 01 31 12  .s023..[?.1...1.
1060: 02 01 64 66 6B 30 2B 31  12 02 01 74 80 23 55 01  ..dfk0+1...t.#U.
1070: 80 F0 FF FF 7F F0 FF FF  7F 73 30 32 33 45 01 80  .........s023E..
1080: F0 FF FF 7F F0 FF FF 7F  73 30 32 34 02 80 5B 4B  ........s024..[K
1090: 80 32 12 02 01 32 12 02  01 64 66 63 30 2B 32 12  .2...2...dfc0+2.
10A0: 02 01 75 80 23 55 01 80  F0 FF FF 7F F0 FF FF 7F  ..u.#U..........
10B0: 73 30 32 34 45 01 80 F0  FF FF 7F F0 FF FF 7F 73  s024E..........s
10C0: 30 32 35 02 80 48 76 80  1C 77 80 23 1A 59 11 2D  025..Hv..w.#.Y.-
10D0: F8 FF FF 7F F8 FF FF 7F  6F 6E 6F 6E 52 01 80 F0  ........ononR...
10E0: FF FF 7F F0 FF FF 7F 73  30 32 35 46 00 1A 7A 11  .......s025F..z.
10F0: 21 00 45 07 80 F0 FF FF  7F F0 FF FF 7F 66 64 6F  !.E..........fdo
1100: 30 02 80 55 07 80 F0 FF  FF 7F F0 FF FF 7F 66 64  0..U..........fd
1110: 6F 30 1B 1B 45 07 80 F0  FF FF 7F F0 FF FF 7F 66  o0..E..........f
1120: 64 69 30 02 80 1B 45 07  80 F0 FF FF 7F F0 FF FF  di0...E.........
1130: 7F 66 64 6F 31 02 80 55  07 80 F0 FF FF 7F F0 FF  .fdo1..U........
1140: FF 7F 66 64 6F 31 1B 45  07 80 F0 FF FF 7F F0 FF  ..fdo1.E........
1150: FF 7F 66 64 69 31 02 80  1B 45 07 80 F0 FF FF 7F  ..fdi1...E......
1160: F0 FF FF 7F 66 64 6F 32  02 80 55 07 80 F0 FF FF  ....fdo2..U.....
1170: 7F F0 FF FF 7F 66 64 6F  32 1B 45 07 80 F0 FF FF  .....fdo2.E.....
1180: 7F F0 FF FF 7F 66 64 69  32 02 80 1B              .....fdi2...    
```

#### Opcodes

```
  0: 0x0D1B [0x42] SET_CLI_EVENT_CANCEL_DATA()
  1: 0x0D1C [0x1A] CALL_SUBROUTINE(address=0x1126)
  2: 0x0D1F [0x46] CAMERA_CONTROL: Disable user control
  3: 0x0D21 [0x38] SET_CLIENT_EVENT_MODE(mode=19*)
  4: 0x0D24 [0x37] UPDATE_EVENT_POSITION_AND_DIR: x=-0.283*, z=-737.740*, y=-4.007*, direction=68.3°*
  5: 0x0D2D [0x45] LOAD_SCHEDULED_TASK: Load scheduler "s015" with entities [LocalPlayer, LocalPlayer], work=[163*, 0*]
  6: 0x0D3E [0x4E] SET_ENTITY_HIDE_FLAG: Show Cherukiki (ID: 16912946/0x01021232)
  7: 0x0D44 [0x1E] EventEntity looks at Cherukiki (ID: 16912946/0x01021232) and starts talking
  8: 0x0D49 [0x80] LOAD_WAIT(entity=Cherukiki (ID: 16912946/0x01021232))
  9: 0x0D4E [0x1C] WAIT(5* ticks)
 10: 0x0D51 [0x2C] CREATE_SCHEDULER_TASK: Create scheduler "corp" with entities [Cherukiki (ID: 16912946/0x01021232), Cherukiki (ID: 16912946/0x01021232)]
 11: 0x0D5E [0x1A] CALL_SUBROUTINE(address=0x1147)
 12: 0x0D61 [0x1C] WAIT(60* ticks)
 13: 0x0D64 [0x2B] Cherukiki (ID: 16912946/0x01021232) [7485*]:
    → "I thought minced Tarutaru was back on the menu for a second there..."
 14: 0x0D6B [0x23] WAIT_FOR_DIALOG_INTERACTION
 15: 0x0D6C [0x5B] LOAD_EXT_SCHEDULER: Load scheduler "okir" with entities [Cherukiki (ID: 16912946/0x01021232), Cherukiki (ID: 16912946/0x01021232)], work=430*
 16: 0x0D7B [0x1C] WAIT(30* ticks)
 17: 0x0D7E [0x52] END_LOAD_SCHEDULER: End scheduler "s015" with entities [LocalPlayer, LocalPlayer], work=163*
 18: 0x0D8D [0x45] LOAD_SCHEDULED_TASK: Load scheduler "s016" with entities [LocalPlayer, LocalPlayer], work=[163*, 0*]
 19: 0x0D9E [0x53] WAIT_SCHEDULER_TASK: Wait for scheduler "okir" with entities [Cherukiki (ID: 16912946/0x01021232), Cherukiki (ID: 16912946/0x01021232)]
 20: 0x0DAB [0x5B] LOAD_EXT_SCHEDULER: Load scheduler "hoh0" with entities [Cherukiki (ID: 16912946/0x01021232), Cherukiki (ID: 16912946/0x01021232)], work=433*
 21: 0x0DBA [0x2B] Cherukiki (ID: 16912946/0x01021232) [7486*]:
    → "You have our royal gratitude."
 22: 0x0DC1 [0x23] WAIT_FOR_DIALOG_INTERACTION
 23: 0x0DC2 [0x52] END_LOAD_SCHEDULER: End scheduler "s016" with entities [LocalPlayer, LocalPlayer], work=163*
 24: 0x0DD1 [0x45] LOAD_SCHEDULED_TASK: Load scheduler "s017" with entities [LocalPlayer, LocalPlayer], work=[163*, 0*]
 25: 0x0DE2 [0x5B] LOAD_EXT_SCHEDULER: Load scheduler "joy0" with entities [Cherukiki (ID: 16912946/0x01021232), Cherukiki (ID: 16912946/0x01021232)], work=432*
 26: 0x0DF1 [0x2B] Cherukiki (ID: 16912946/0x01021232) [7487*]:
    → "Prince Kukki has informed me of the situation, and I commend you on your wise decision."
 27: 0x0DF8 [0x23] WAIT_FOR_DIALOG_INTERACTION
 28: 0x0DF9 [0x5B] LOAD_EXT_SCHEDULER: Load scheduler "ehn0" with entities [Cherukiki (ID: 16912946/0x01021232), Cherukiki (ID: 16912946/0x01021232)], work=339*
 29: 0x0E08 [0x2B] Cherukiki (ID: 16912946/0x01021232) [7488*]:
    → "We shall be sure to put in a good word for you with His Majesty."
 30: 0x0E0F [0x23] WAIT_FOR_DIALOG_INTERACTION
 31: 0x0E10 [0x5B] LOAD_EXT_SCHEDULER: Load scheduler "lsa0" with entities [Cherukiki (ID: 16912946/0x01021232), Cherukiki (ID: 16912946/0x01021232)], work=433*
 32: 0x0E1F [0x52] END_LOAD_SCHEDULER: End scheduler "s017" with entities [LocalPlayer, LocalPlayer], work=163*
 33: 0x0E2E [0x45] LOAD_SCHEDULED_TASK: Load scheduler "s018" with entities [LocalPlayer, LocalPlayer], work=[163*, 0*]
 34: 0x0E3F [0x2B] Cherukiki (ID: 16912946/0x01021232) [7489*]:
    → "I have my brothers on standby. Once I give the word, we'll hit all the buttons at the same time!"
 35: 0x0E46 [0x23] WAIT_FOR_DIALOG_INTERACTION
 36: 0x0E47 [0x1A] CALL_SUBROUTINE(address=0x1159)
 37: 0x0E4A [0x5B] LOAD_EXT_SCHEDULER: Load scheduler "lsa1" with entities [Cherukiki (ID: 16912946/0x01021232), Cherukiki (ID: 16912946/0x01021232)], work=433*
 38: 0x0E59 [0x52] END_LOAD_SCHEDULER: End scheduler "s018" with entities [LocalPlayer, LocalPlayer], work=163*
 39: 0x0E68 [0x4E] SET_ENTITY_HIDE_FLAG: Show Makki-Chebukki (ID: 16912944/0x01021230)
 40: 0x0E6E [0x4E] SET_ENTITY_HIDE_FLAG: Show Kukki-Chebukki (ID: 16912945/0x01021231)
 41: 0x0E74 [0x45] LOAD_SCHEDULED_TASK: Load scheduler "s019" with entities [LocalPlayer, LocalPlayer], work=[163*, 0*]
 42: 0x0E85 [0x1A] CALL_SUBROUTINE(address=0x117A)
 43: 0x0E88 [0x1C] WAIT(120* ticks)
 44: 0x0E8B [0x27] REQ_SET(priority=0x0A, entity_id=Rubious Crystal (ID: 16912901/0x01021205), tag_num=0x02)
 45: 0x0E92 [0x55] WAIT_LOAD_SCHEDULER: Wait for scheduler "s019" with entities [LocalPlayer, LocalPlayer], work=163*
 46: 0x0EA1 [0x45] LOAD_SCHEDULED_TASK: Load scheduler "ovl2" with entities [LocalPlayer, LocalPlayer], work=[200*, 0*]
 47: 0x0EB2 [0x45] LOAD_SCHEDULED_TASK: Load scheduler "s020" with entities [LocalPlayer, LocalPlayer], work=[163*, 0*]
 48: 0x0EC3 [0x1C] WAIT(50* ticks)
 49: 0x0EC6 [0x27] REQ_SET(priority=0x0A, entity_id=Rubious Crystal (ID: 16912902/0x01021206), tag_num=0x02)
 50: 0x0ECD [0x1C] WAIT(80* ticks)
 51: 0x0ED0 [0x4A] Kukki-Chebukki (ID: 16912945/0x01021231) looks at Rubious Crystal (ID: 16912902/0x01021206)
 52: 0x0ED9 [0x55] WAIT_LOAD_SCHEDULER: Wait for scheduler "s020" with entities [LocalPlayer, LocalPlayer], work=163*
 53: 0x0EE8 [0x45] LOAD_SCHEDULED_TASK: Load scheduler "ovl2" with entities [LocalPlayer, LocalPlayer], work=[200*, 0*]
 54: 0x0EF9 [0x45] LOAD_SCHEDULED_TASK: Load scheduler "stw1" with entities [LocalPlayer, LocalPlayer], work=[160*, 0*]
 55: 0x0F0A [0x45] LOAD_SCHEDULED_TASK: Load scheduler "fdi1" with entities [LocalPlayer, LocalPlayer], work=[200*, 0*]
 56: 0x0F1B [0x1C] WAIT(120* ticks)
 57: 0x0F1E [0x2D] CREATE_ZONE_SCHEDULER_TASK: Create scheduler "1tow" with entities [Rubious Crystal (ID: 16912900/0x01021204), Rubious Crystal (ID: 16912900/0x01021204)]
 58: 0x0F2B [0x1E] EventEntity looks at Rubious Crystal (ID: 16912900/0x01021204) and starts talking
 59: 0x0F30 [0x4A] Cherukiki (ID: 16912946/0x01021232) looks at Rubious Crystal (ID: 16912900/0x01021204)
 60: 0x0F39 [0x1C] WAIT(370* ticks)
 61: 0x0F3C [0x27] REQ_SET(priority=0x0A, entity_id=Rubious Crystal (ID: 16912900/0x01021204), tag_num=0x02)
 62: 0x0F43 [0x1C] WAIT(1300* ticks)
 63: 0x0F46 [0x45] LOAD_SCHEDULED_TASK: Load scheduler "ovl2" with entities [LocalPlayer, LocalPlayer], work=[200*, 0*]
 64: 0x0F57 [0x45] LOAD_SCHEDULED_TASK: Load scheduler "gat0" with entities [LocalPlayer, LocalPlayer], work=[160*, 0*]
 65: 0x0F68 [0x45] LOAD_SCHEDULED_TASK: Load scheduler "fdi1" with entities [LocalPlayer, LocalPlayer], work=[200*, 0*]
 66: 0x0F79 [0x1C] WAIT(240* ticks)
 67: 0x0F7C [0x45] LOAD_SCHEDULED_TASK: Load scheduler "ovl1" with entities [LocalPlayer, LocalPlayer], work=[200*, 0*]
 68: 0x0F8D [0x45] LOAD_SCHEDULED_TASK: Load scheduler "gat1" with entities [LocalPlayer, LocalPlayer], work=[160*, 0*]
 69: 0x0F9E [0x2D] CREATE_ZONE_SCHEDULER_TASK: Create scheduler "ooff" with entities [EventEntity, EventEntity]
 70: 0x0FAB [0x1C] WAIT(400* ticks)
 71: 0x0FAE [0x27] REQ_SET(priority=0x0A, entity_id=Crystalline Field (ID: 16912899/0x01021203), tag_num=0x02)
 72: 0x0FB5 [0x45] LOAD_SCHEDULED_TASK: Load scheduler "ovl1" with entities [LocalPlayer, LocalPlayer], work=[200*, 0*]
 73: 0x0FC6 [0x45] LOAD_SCHEDULED_TASK: Load scheduler "gat2" with entities [LocalPlayer, LocalPlayer], work=[160*, 0*]
 74: 0x0FD7 [0x1C] WAIT(180* ticks)
 75: 0x0FDA [0x4A] Makki-Chebukki (ID: 16912944/0x01021230) looks at Crystalline Field (ID: 16912899/0x01021203)
 76: 0x0FE3 [0x4A] Kukki-Chebukki (ID: 16912945/0x01021231) looks at Crystalline Field (ID: 16912899/0x01021203)
 77: 0x0FEC [0x4A] Cherukiki (ID: 16912946/0x01021232) looks at Crystalline Field (ID: 16912899/0x01021203)
 78: 0x0FF5 [0x1E] EventEntity looks at Crystalline Field (ID: 16912899/0x01021203) and starts talking
 79: 0x0FFA [0x1A] CALL_SUBROUTINE(address=0x1159)
 80: 0x0FFD [0x52] END_LOAD_SCHEDULER: End scheduler "gat2" with entities [LocalPlayer, LocalPlayer], work=160*
 81: 0x100C [0x45] LOAD_SCHEDULED_TASK: Load scheduler "s022" with entities [LocalPlayer, LocalPlayer], work=[163*, 0*]
 82: 0x101D [0x1A] CALL_SUBROUTINE(address=0x1114)
 83: 0x1020 [0x5B] LOAD_EXT_SCHEDULER: Load scheduler "dfm0" with entities [Makki-Chebukki (ID: 16912944/0x01021230), Makki-Chebukki (ID: 16912944/0x01021230)], work=441*
 84: 0x102F [0x2B] Makki-Chebukki (ID: 16912944/0x01021230) [7490*]:
    → "Did we do it!?"
 85: 0x1036 [0x23] WAIT_FOR_DIALOG_INTERACTION
 86: 0x1037 [0x55] WAIT_LOAD_SCHEDULER: Wait for scheduler "s022" with entities [LocalPlayer, LocalPlayer], work=163*
 87: 0x1046 [0x45] LOAD_SCHEDULED_TASK: Load scheduler "s023" with entities [LocalPlayer, LocalPlayer], work=[163*, 0*]
 88: 0x1057 [0x5B] LOAD_EXT_SCHEDULER: Load scheduler "dfk0" with entities [Kukki-Chebukki (ID: 16912945/0x01021231), Kukki-Chebukki (ID: 16912945/0x01021231)], work=441*
 89: 0x1066 [0x2B] Kukki-Chebukki (ID: 16912945/0x01021231) [7491*]:
    → "Is it open!?"
 90: 0x106D [0x23] WAIT_FOR_DIALOG_INTERACTION
 91: 0x106E [0x55] WAIT_LOAD_SCHEDULER: Wait for scheduler "s023" with entities [LocalPlayer, LocalPlayer], work=163*
 92: 0x107D [0x45] LOAD_SCHEDULED_TASK: Load scheduler "s024" with entities [LocalPlayer, LocalPlayer], work=[163*, 0*]
 93: 0x108E [0x5B] LOAD_EXT_SCHEDULER: Load scheduler "dfc0" with entities [Cherukiki (ID: 16912946/0x01021232), Cherukiki (ID: 16912946/0x01021232)], work=431*
 94: 0x109D [0x2B] Cherukiki (ID: 16912946/0x01021232) [7492*]:
    → "I think it opened!"
 95: 0x10A4 [0x23] WAIT_FOR_DIALOG_INTERACTION
 96: 0x10A5 [0x55] WAIT_LOAD_SCHEDULER: Wait for scheduler "s024" with entities [LocalPlayer, LocalPlayer], work=163*
 97: 0x10B4 [0x45] LOAD_SCHEDULED_TASK: Load scheduler "s025" with entities [LocalPlayer, LocalPlayer], work=[163*, 0*]
 98: 0x10C5 [0x48] [System] [7493*]:
    → "Here we come, Royal Daddy!"
 99: 0x10C8 [0x1C] WAIT(150* ticks)
100: 0x10CB [0x23] WAIT_FOR_DIALOG_INTERACTION
101: 0x10CC [0x1A] CALL_SUBROUTINE(address=0x1159)
102: 0x10CF [0x2D] CREATE_ZONE_SCHEDULER_TASK: Create scheduler "onon" with entities [EventEntity, EventEntity]
103: 0x10DC [0x52] END_LOAD_SCHEDULER: End scheduler "s025" with entities [LocalPlayer, LocalPlayer], work=163*
104: 0x10EB [0x46] CAMERA_CONTROL: Restore default settings
105: 0x10ED [0x1A] CALL_SUBROUTINE(address=0x117A)
106: 0x10F0 [0x21] END_EVENT
107: 0x10F1 [0x00] END_REQSTACK()

SUBROUTINE_1114:
108: 0x1114 [0x45] LOAD_SCHEDULED_TASK: Load scheduler "fdi0" with entities [LocalPlayer, LocalPlayer], work=[200*, 0*]
109: 0x1125 [0x1B] RETURN

SUBROUTINE_1126:
110: 0x1126 [0x45] LOAD_SCHEDULED_TASK: Load scheduler "fdo1" with entities [LocalPlayer, LocalPlayer], work=[200*, 0*]
111: 0x1137 [0x55] WAIT_LOAD_SCHEDULER: Wait for scheduler "fdo1" with entities [LocalPlayer, LocalPlayer], work=200*
112: 0x1146 [0x1B] RETURN

SUBROUTINE_1147:
113: 0x1147 [0x45] LOAD_SCHEDULED_TASK: Load scheduler "fdi1" with entities [LocalPlayer, LocalPlayer], work=[200*, 0*]
114: 0x1158 [0x1B] RETURN

SUBROUTINE_1159:
115: 0x1159 [0x45] LOAD_SCHEDULED_TASK: Load scheduler "fdo2" with entities [LocalPlayer, LocalPlayer], work=[200*, 0*]
116: 0x116A [0x55] WAIT_LOAD_SCHEDULER: Wait for scheduler "fdo2" with entities [LocalPlayer, LocalPlayer], work=200*
117: 0x1179 [0x1B] RETURN

SUBROUTINE_117A:
118: 0x117A [0x45] LOAD_SCHEDULED_TASK: Load scheduler "fdi2" with entities [LocalPlayer, LocalPlayer], work=[200*, 0*]
119: 0x118B [0x1B] RETURN
```

#### Data or dead code:

```
# Dead code (unreachable instructions):
     0x10F2 [0x45] LOAD_SCHEDULED_TASK: Load scheduler "fdo0" with entities [LocalPlayer, LocalPlayer], work=[200*, 0*]
     0x1103 [0x55] WAIT_LOAD_SCHEDULER: Wait for scheduler "fdo0" with entities [LocalPlayer, LocalPlayer], work=200*
     0x1112 [0x1B] RETURN
     0x1113 [0x1B] RETURN
```

### Event 50

#### Metadata

| Field        | Value    |
|--------------|----------|
| Entrypoint   | 0x118C   |
| Data Size    | 41 bytes |
| Instructions | 5        |

```
      00 01 02 03 04 05 06 07  08 09 0A 0B 0C 0D 0E 0F
      -- -- -- -- -- -- -- --  -- -- -- -- -- -- -- --
1180:                                      9F 23 80 F0              .#..
1190: FF FF 7F F0 FF FF 7F 6D  61 69 6E 02 80 1C 78 80  .......main...x.
11A0: 45 07 80 F0 FF FF 7F F0  FF FF 7F 66 64 6F 31 02  E..........fdo1.
11B0: 80 1C 0F 80 00                                    .....           
```

#### Opcodes

```
  0: 0x118C [0x9F] LOAD_SCHEDULED_TASK_ALT: Load scheduler "main" with entities [LocalPlayer, LocalPlayer], work=[75*, 0*]
  1: 0x119D [0x1C] WAIT(140* ticks)
  2: 0x11A0 [0x45] LOAD_SCHEDULED_TASK: Load scheduler "fdo1" with entities [LocalPlayer, LocalPlayer], work=[200*, 0*]
  3: 0x11B1 [0x1C] WAIT(60* ticks)
  4: 0x11B4 [0x00] END_REQSTACK()
```

### Event 51

#### Metadata

| Field        | Value    |
|--------------|----------|
| Entrypoint   | 0x11B5   |
| Data Size    | 38 bytes |
| Instructions | 4        |

```
      00 01 02 03 04 05 06 07  08 09 0A 0B 0C 0D 0E 0F
      -- -- -- -- -- -- -- --  -- -- -- -- -- -- -- --
11B0:                45 07 80  F0 FF FF 7F F0 FF FF 7F       E..........
11C0: 66 64 69 31 02 80 9F 79  80 F0 FF FF 7F F0 FF FF  fdi1...y........
11D0: 7F 6D 61 69 6E 02 80 1C  7A 80 00                 .main...z..     
```

#### Opcodes

```
  0: 0x11B5 [0x45] LOAD_SCHEDULED_TASK: Load scheduler "fdi1" with entities [LocalPlayer, LocalPlayer], work=[200*, 0*]
  1: 0x11C6 [0x9F] LOAD_SCHEDULED_TASK_ALT: Load scheduler "main" with entities [LocalPlayer, LocalPlayer], work=[76*, 0*]
  2: 0x11D7 [0x1C] WAIT(170* ticks)
  3: 0x11DA [0x00] END_REQSTACK()
```

### Event 52

#### Metadata

| Field        | Value    |
|--------------|----------|
| Entrypoint   | 0x11DB   |
| Data Size    | 41 bytes |
| Instructions | 5        |

```
      00 01 02 03 04 05 06 07  08 09 0A 0B 0C 0D 0E 0F
      -- -- -- -- -- -- -- --  -- -- -- -- -- -- -- --
11D0:                                   9F 7B 80 F0 FF             .{...
11E0: FF 7F F0 FF FF 7F 6D 61  69 6E 02 80 1C 78 80 45  ......main...x.E
11F0: 07 80 F0 FF FF 7F F0 FF  FF 7F 66 64 6F 31 02 80  ..........fdo1..
1200: 1C 0F 80 00                                       ....            
```

#### Opcodes

```
  0: 0x11DB [0x9F] LOAD_SCHEDULED_TASK_ALT: Load scheduler "main" with entities [LocalPlayer, LocalPlayer], work=[73*, 0*]
  1: 0x11EC [0x1C] WAIT(140* ticks)
  2: 0x11EF [0x45] LOAD_SCHEDULED_TASK: Load scheduler "fdo1" with entities [LocalPlayer, LocalPlayer], work=[200*, 0*]
  3: 0x1200 [0x1C] WAIT(60* ticks)
  4: 0x1203 [0x00] END_REQSTACK()
```

### Event 53

#### Metadata

| Field        | Value    |
|--------------|----------|
| Entrypoint   | 0x1204   |
| Data Size    | 38 bytes |
| Instructions | 4        |

```
      00 01 02 03 04 05 06 07  08 09 0A 0B 0C 0D 0E 0F
      -- -- -- -- -- -- -- --  -- -- -- -- -- -- -- --
1200:             45 07 80 F0  FF FF 7F F0 FF FF 7F 66      E..........f
1210: 64 69 31 02 80 9F 7C 80  F0 FF FF 7F F0 FF FF 7F  di1...|.........
1220: 6D 61 69 6E 02 80 1C 7A  80 00                    main...z..      
```

#### Opcodes

```
  0: 0x1204 [0x45] LOAD_SCHEDULED_TASK: Load scheduler "fdi1" with entities [LocalPlayer, LocalPlayer], work=[200*, 0*]
  1: 0x1215 [0x9F] LOAD_SCHEDULED_TASK_ALT: Load scheduler "main" with entities [LocalPlayer, LocalPlayer], work=[74*, 0*]
  2: 0x1226 [0x1C] WAIT(170* ticks)
  3: 0x1229 [0x00] END_REQSTACK()
```

### Event 60

#### Metadata

| Field        | Value    |
|--------------|----------|
| Entrypoint   | 0x122A   |
| Data Size    | 10 bytes |
| Instructions | 2        |

```
      00 01 02 03 04 05 06 07  08 09 0A 0B 0C 0D 0E 0F
      -- -- -- -- -- -- -- --  -- -- -- -- -- -- -- --
1220:                                37 02 80 7D 80 7E            7..}.~
1230: 80 7F 80 00                                       ....            
```

#### Opcodes

```
  0: 0x122A [0x37] UPDATE_EVENT_POSITION_AND_DIR: x=0.000*, z=-462.429*, y=-10.000*, direction=269.8°*
  1: 0x1233 [0x00] END_REQSTACK()
```

### Event 61

#### Metadata

| Field        | Value    |
|--------------|----------|
| Entrypoint   | 0x1234   |
| Data Size    | 14 bytes |
| Instructions | 4        |

```
      00 01 02 03 04 05 06 07  08 09 0A 0B 0C 0D 0E 0F
      -- -- -- -- -- -- -- --  -- -- -- -- -- -- -- --
1230:             32 41 80 1F  00 02 80 80 80 7E 80 1F      2A.......~..
1240: 01 00                                             ..              
```

#### Opcodes

```
  0: 0x1234 [0x32] ExtData[1]->MainSpeed = 13* * 0.1
  1: 0x1237 [0x1F] MOVE_ENTITY: EventEntity moves to X=0.000*, Z=-442.738*, Y=-10.000*
  2: 0x123F [0x1F] MOVE_ENTITY: Update entity position (mode=1)
  3: 0x1241 [0x00] END_REQSTACK()
```

### Event 104

#### Metadata

| Field        | Value    |
|--------------|----------|
| Entrypoint   | 0x1242   |
| Data Size    | 10 bytes |
| Instructions | 2        |

```
      00 01 02 03 04 05 06 07  08 09 0A 0B 0C 0D 0E 0F
      -- -- -- -- -- -- -- --  -- -- -- -- -- -- -- --
1240:       37 02 80 81 80 3D  80 82 80 00                7....=....    
```

#### Opcodes

```
  0: 0x1242 [0x37] UPDATE_EVENT_POSITION_AND_DIR: x=0.000*, z=-737.164*, y=-4.007*, direction=89.0°*
  1: 0x124B [0x00] END_REQSTACK()
```

### Event 105

#### Metadata

| Field        | Value    |
|--------------|----------|
| Entrypoint   | 0x124C   |
| Data Size    | 10 bytes |
| Instructions | 2        |

```
      00 01 02 03 04 05 06 07  08 09 0A 0B 0C 0D 0E 0F
      -- -- -- -- -- -- -- --  -- -- -- -- -- -- -- --
1240:                                      37 83 80 84              7...
1250: 80 3D 80 85 80 00                                 .=....          
```

#### Opcodes

```
  0: 0x124C [0x37] UPDATE_EVENT_POSITION_AND_DIR: x=-682.152*, z=-221.686*, y=-4.007*, direction=166.6°*
  1: 0x1255 [0x00] END_REQSTACK()
```

### Event 106

#### Metadata

| Field        | Value    |
|--------------|----------|
| Entrypoint   | 0x1256   |
| Data Size    | 10 bytes |
| Instructions | 2        |

```
      00 01 02 03 04 05 06 07  08 09 0A 0B 0C 0D 0E 0F
      -- -- -- -- -- -- -- --  -- -- -- -- -- -- -- --
1250:                   37 86  80 87 80 3D 80 88 80 00        7....=....
```

#### Opcodes

```
  0: 0x1256 [0x37] UPDATE_EVENT_POSITION_AND_DIR: x=682.108*, z=-221.536*, y=-4.007*, direction=18.3°*
  1: 0x125F [0x00] END_REQSTACK()
```

### Event 65535.4

#### Metadata

| Field        | Value    |
|--------------|----------|
| Entrypoint   | 0x1260   |
| Data Size    | 10 bytes |
| Instructions | 2        |

```
      00 01 02 03 04 05 06 07  08 09 0A 0B 0C 0D 0E 0F
      -- -- -- -- -- -- -- --  -- -- -- -- -- -- -- --
1260: 37 89 80 8A 80 8B 80 8C  80 00                    7.........      
```

#### Opcodes

```
  0: 0x1260 [0x37] UPDATE_EVENT_POSITION_AND_DIR: x=399.985*, z=-455.004*, y=-19.099*, direction=269.0°*
  1: 0x1269 [0x00] END_REQSTACK()
```

### Event 65535.5

#### Metadata

| Field        | Value    |
|--------------|----------|
| Entrypoint   | 0x126A   |
| Data Size    | 10 bytes |
| Instructions | 2        |

```
      00 01 02 03 04 05 06 07  08 09 0A 0B 0C 0D 0E 0F
      -- -- -- -- -- -- -- --  -- -- -- -- -- -- -- --
1260:                                37 8D 80 8E 80 02            7.....
1270: 80 8F 80 00                                       ....            
```

#### Opcodes

```
  0: 0x126A [0x37] UPDATE_EVENT_POSITION_AND_DIR: x=-420.451*, z=-530.677*, y=0.000*, direction=28.8°*
  1: 0x1273 [0x00] END_REQSTACK()
```

### Event 65535.6

#### Metadata

| Field        | Value    |
|--------------|----------|
| Entrypoint   | 0x1274   |
| Data Size    | 10 bytes |
| Instructions | 2        |

```
      00 01 02 03 04 05 06 07  08 09 0A 0B 0C 0D 0E 0F
      -- -- -- -- -- -- -- --  -- -- -- -- -- -- -- --
1270:             37 8D 80 8E  80 02 80 90 80 00            7.........  
```

#### Opcodes

```
  0: 0x1274 [0x37] UPDATE_EVENT_POSITION_AND_DIR: x=-420.451*, z=-530.677*, y=0.000*, direction=317.4°*
  1: 0x127D [0x00] END_REQSTACK()
```

### Event 65535.7

#### Metadata

| Field        | Value   |
|--------------|---------|
| Entrypoint   | 0x127E  |
| Data Size    | 6 bytes |
| Instructions | 2       |

```
      00 01 02 03 04 05 06 07  08 09 0A 0B 0C 0D 0E 0F
      -- -- -- -- -- -- -- --  -- -- -- -- -- -- -- --
1270:                                            03 02                ..
1280: 10 07 7F 00                                       ....            
```

#### Opcodes

```
  0: 0x127E [0x03] Work_Zone[2] = Entity->Race
  1: 0x1283 [0x00] END_REQSTACK()
```

### Event 65535.8

#### Metadata

| Field        | Value   |
|--------------|---------|
| Entrypoint   | 0x1284  |
| Data Size    | 6 bytes |
| Instructions | 2       |

```
      00 01 02 03 04 05 06 07  08 09 0A 0B 0C 0D 0E 0F
      -- -- -- -- -- -- -- --  -- -- -- -- -- -- -- --
1280:             03 02 10 0B  7F 00                        ......      
```

#### Opcodes

```
  0: 0x1284 [0x03] Work_Zone[2] = (Entity->Render.Flags01 >> 25) & 1
  1: 0x1289 [0x00] END_REQSTACK()
```

### Event 65535.9

#### Metadata

| Field        | Value    |
|--------------|----------|
| Entrypoint   | 0x128A   |
| Data Size    | 10 bytes |
| Instructions | 2        |

```
      00 01 02 03 04 05 06 07  08 09 0A 0B 0C 0D 0E 0F
      -- -- -- -- -- -- -- --  -- -- -- -- -- -- -- --
1280:                                37 91 80 92 80 8B            7.....
1290: 80 93 80 00                                       ....            
```

#### Opcodes

```
  0: 0x128A [0x37] UPDATE_EVENT_POSITION_AND_DIR: x=399.198*, z=-456.684*, y=-19.099*, direction=314.1°*
  1: 0x1293 [0x00] END_REQSTACK()
```

### Event 65535.10

#### Metadata

| Field        | Value    |
|--------------|----------|
| Entrypoint   | 0x1294   |
| Data Size    | 37 bytes |
| Instructions | 5        |

```
      00 01 02 03 04 05 06 07  08 09 0A 0B 0C 0D 0E 0F
      -- -- -- -- -- -- -- --  -- -- -- -- -- -- -- --
1290:             03 00 00 07  7F 1A DE 12 66 01 00 F8      ........f...
12A0: FF FF 7F F8 FF FF 7F 73  68 61 30 53 F8 FF FF 7F  .......sha0S....
12B0: F8 FF FF 7F 73 68 61 30  00                       ....sha0.       
```

#### Opcodes

```
  0: 0x1294 [0x03] ExtData[1]->WorkLocal[0] = Entity->Race
  1: 0x1299 [0x1A] CALL_SUBROUTINE(address=0x12DE)
  2: 0x129C [0x66] LOAD_EXT_SCHEDULER_MAIN: Load scheduler "sha0" with entities [EventEntity, EventEntity], work=ExtData[1]->WorkLocal[1]
  3: 0x12AB [0x53] WAIT_SCHEDULER_TASK: Wait for scheduler "sha0" with entities [EventEntity, EventEntity]
  4: 0x12B8 [0x00] END_REQSTACK()
```

### Event 65535.11

#### Metadata

| Field        | Value     |
|--------------|-----------|
| Entrypoint   | 0x12B9    |
| Data Size    | 185 bytes |
| Instructions | 13        |

```
      00 01 02 03 04 05 06 07  08 09 0A 0B 0C 0D 0E 0F
      -- -- -- -- -- -- -- --  -- -- -- -- -- -- -- --
12B0:                             03 00 00 07 7F 1A DE           .......
12C0: 12 66 01 00 F8 FF FF 7F  F8 FF FF 7F 73 68 61 31  .f..........sha1
12D0: 53 F8 FF FF 7F F8 FF FF  7F 73 68 61 31 00 03 01  S........sha1...
12E0: 00 00 00 02 01 00 61 80  05 F3 12 08 01 00 31 80  ......a.......1.
12F0: 01 F8 12 08 01 00 94 80  14 01 00 0E 80 07 01 00  ................
1300: 95 80 1B 03 01 00 00 00  02 01 00 61 80 05 18 13  ...........a....
1310: 08 01 00 31 80 01 1D 13  08 01 00 94 80 14 01 00  ...1............
1320: 0E 80 07 01 00 18 80 1B  03 01 00 00 00 02 01 00  ................
1330: 61 80 05 3D 13 08 01 00  31 80 01 42 13 08 01 00  a..=....1..B....
1340: 94 80 14 01 00 0E 80 07  01 00 78 80 1B 03 01 00  ..........x.....
1350: 00 00 02 01 00 61 80 05  62 13 08 01 00 31 80 01  .....a..b....1..
1360: 67 13 08 01 00 94 80 14  01 00 0E 80 07 01 00 96  g...............
1370: 80 1B                                             ..              
```

#### Opcodes

```
  0: 0x12B9 [0x03] ExtData[1]->WorkLocal[0] = Entity->Race
  1: 0x12BE [0x1A] CALL_SUBROUTINE(address=0x12DE)
  2: 0x12C1 [0x66] LOAD_EXT_SCHEDULER_MAIN: Load scheduler "sha1" with entities [EventEntity, EventEntity], work=ExtData[1]->WorkLocal[1]
  3: 0x12D0 [0x53] WAIT_SCHEDULER_TASK: Wait for scheduler "sha1" with entities [EventEntity, EventEntity]
  4: 0x12DD [0x00] END_REQSTACK()

SUBROUTINE_12DE:
  5: 0x12DE [0x03] ExtData[1]->WorkLocal[1] = ExtData[1]->WorkLocal[0]
  6: 0x12E3 [0x02] IF !(ExtData[1]->WorkLocal[1] > 5*) GOTO 0x12F3
  7: 0x12EB [0x08] ExtData[1]->WorkLocal[1] -= 1*
  8: 0x12F0 [0x01] GOTO 0x12F8
  9: 0x12F3 [0x08] ExtData[1]->WorkLocal[1] -= 2*

SUBROUTINE_12F8:
 10: 0x12F8 [0x14] ExtData[1]->WorkLocal[1] *= 10*
 11: 0x12FD [0x07] ExtData[1]->WorkLocal[1] += 9*
 12: 0x1302 [0x1B] RETURN
```

#### Data or dead code:

```
# Dead code (unreachable instructions):
     0x1303 [0x03] ExtData[1]->WorkLocal[1] = ExtData[1]->WorkLocal[0]
     0x1308 [0x02] IF !(ExtData[1]->WorkLocal[1] > 5*) GOTO 0x1318
     0x1310 [0x08] ExtData[1]->WorkLocal[1] -= 1*
     0x1315 [0x01] GOTO 0x131D
     0x1318 [0x08] ExtData[1]->WorkLocal[1] -= 2*
     0x131D [0x14] ExtData[1]->WorkLocal[1] *= 10*
     0x1322 [0x07] ExtData[1]->WorkLocal[1] += 70*
     0x1327 [0x1B] RETURN
     0x1328 [0x03] ExtData[1]->WorkLocal[1] = ExtData[1]->WorkLocal[0]
     0x132D [0x02] IF !(ExtData[1]->WorkLocal[1] > 5*) GOTO 0x133D
     0x1335 [0x08] ExtData[1]->WorkLocal[1] -= 1*
     0x133A [0x01] GOTO 0x1342
     0x133D [0x08] ExtData[1]->WorkLocal[1] -= 2*
     0x1342 [0x14] ExtData[1]->WorkLocal[1] *= 10*
     0x1347 [0x07] ExtData[1]->WorkLocal[1] += 140*
     0x134C [0x1B] RETURN
     0x134D [0x03] ExtData[1]->WorkLocal[1] = ExtData[1]->WorkLocal[0]
     0x1352 [0x02] IF !(ExtData[1]->WorkLocal[1] > 5*) GOTO 0x1362
     0x135A [0x08] ExtData[1]->WorkLocal[1] -= 1*
     0x135F [0x01] GOTO 0x1367
     0x1362 [0x08] ExtData[1]->WorkLocal[1] -= 2*
     0x1367 [0x14] ExtData[1]->WorkLocal[1] *= 10*
     0x136C [0x07] ExtData[1]->WorkLocal[1] += 210*
     0x1371 [0x1B] RETURN
```

### Event 65535.12

#### Metadata

| Field        | Value    |
|--------------|----------|
| Entrypoint   | 0x1372   |
| Data Size    | 10 bytes |
| Instructions | 2        |

```
      00 01 02 03 04 05 06 07  08 09 0A 0B 0C 0D 0E 0F
      -- -- -- -- -- -- -- --  -- -- -- -- -- -- -- --
1370:       37 97 80 98 80 02  80 99 80 00                7.........    
```

#### Opcodes

```
  0: 0x1372 [0x37] UPDATE_EVENT_POSITION_AND_DIR: x=-31.300*, z=-617.405*, y=0.000*, direction=267.6°*
  1: 0x137B [0x00] END_REQSTACK()
```

### Event 65535.13

#### Metadata

| Field        | Value    |
|--------------|----------|
| Entrypoint   | 0x137C   |
| Data Size    | 10 bytes |
| Instructions | 2        |

```
      00 01 02 03 04 05 06 07  08 09 0A 0B 0C 0D 0E 0F
      -- -- -- -- -- -- -- --  -- -- -- -- -- -- -- --
1370:                                      37 9A 80 9B              7...
1380: 80 7E 80 9C 80 00                                 .~....          
```

#### Opcodes

```
  0: 0x137C [0x37] UPDATE_EVENT_POSITION_AND_DIR: x=0.185*, z=-468.077*, y=-10.000*, direction=87.7°*
  1: 0x1385 [0x00] END_REQSTACK()
```

### Event 65535.14

#### Metadata

| Field        | Value    |
|--------------|----------|
| Entrypoint   | 0x1386   |
| Data Size    | 10 bytes |
| Instructions | 2        |

```
      00 01 02 03 04 05 06 07  08 09 0A 0B 0C 0D 0E 0F
