# Event 65535

## Metadata

| Field           | Value    |
|-----------------|----------|
| Event Index     | 20/39    |
| Offset          | 0x03C4   |
| Data Size       | 38 bytes |
| Calculated Size | 38 bytes |
| Instructions    | 9        |

```
      00 01 02 03 04 05 06 07  08 09 0A 0B 0C 0D 0E 0F
      -- -- -- -- -- -- -- --  -- -- -- -- -- -- -- --
03C0:             59 04 F8 FF  FF 7F 60 80 1F 00 61 80      Y.....`...a.
03D0: 62 80 63 80 1F 01 1F 00  64 80 65 80 58 80 1F 01  b.c.....d.e.X...
03E0: 6F 22 01 2F 01 F8 FF FF  7F 00                    o"./......      
```

## Opcodes

```
  0: 0x03C4 [0x59] UPDATE_ENTITY_DATA: Set EventEntity main speed = 27* * 0.1
  1: 0x03CC [0x1F] MOVE_ENTITY: EventEntity moves to X=-30.382*, Z=74.601*, Y=-3.574*
  2: 0x03D4 [0x1F] MOVE_ENTITY: Update entity position (mode=1)
  3: 0x03D6 [0x1F] MOVE_ENTITY: EventEntity moves to X=-54.461*, Z=69.456*, Y=-3.500*
  4: 0x03DE [0x1F] MOVE_ENTITY: Update entity position (mode=1)
  5: 0x03E0 [0x6F] WAIT_FRAME_DELAY: Yield until WaitTime reaches zero
  6: 0x03E1 [0x22] ENTITY_HIDE_FLAG(enabled=0x01)
  7: 0x03E3 [0x2F] EventEntity->Render.Flags0 |= 0x80000 // Bit 19
  8: 0x03E9 [0x00] END_REQSTACK()
```
