# 0x7FFFFFF0 - Zone Events

## Common Data

| Field            | Value            |
|------------------|------------------|
| Zone             | Halvung (ID: 62) |
| Block Size       | 5252 bytes       |
| Total Events     | 19               |
| References Count | 139              |

## List of Events

| Event ID              | Entrypoint   |   Size |   Instructions |
|-----------------------|--------------|--------|----------------|
| [65535](#event-65535) | 0x0000       |      1 |              1 |
| [65534](#event-65534) | 0x0001       |      1 |              1 |
| [2](#event-2)         | 0x0002       |    719 |             85 |
| [208](#event-208)     | 0x02D1       |      6 |              4 |
| [209](#event-209)     | 0x02D7       |      6 |              4 |
| [200](#event-200)     | 0x02DD       |     10 |              2 |
| [201](#event-201)     | 0x02E7       |     14 |              4 |
| [202](#event-202)     | 0x02F5       |     13 |              3 |
| [203](#event-203)     | 0x0302       |     10 |              2 |
| [204](#event-204)     | 0x030C       |     14 |              4 |
| [205](#event-205)     | 0x031A       |     13 |              3 |
| [212](#event-212)     | 0x0327       |     10 |              2 |
| [213](#event-213)     | 0x0331       |     14 |              4 |
| [214](#event-214)     | 0x033F       |     13 |              3 |
| [32000](#event-32000) | 0x034C       |   1769 |            333 |
| [32002](#event-32002) | 0x0A35       |    183 |             29 |
| [32001](#event-32001) | 0x0AEC       |    515 |             81 |
| [32003](#event-32003) | 0x0CEF       |    435 |             77 |
| [32004](#event-32004) | 0x0EA2       |    857 |            142 |

## DAT References (imed_data)

|   Index | Hex Value   |   Dec Value |
|---------|-------------|-------------|
|       0 | 0x1EE8      |        7912 |
|       1 | 0x00C8      |         200 |
|       2 | 0x0000      |           0 |
|       3 | 0x001B      |          27 |
|       4 | 0x00FD      |         253 |
|       5 | 0x003C      |          60 |
|       6 | 0x1EE9      |        7913 |
|       7 | 0x1EEA      |        7914 |
|       8 | 0x1EEB      |        7915 |
|       9 | 0x1EEC      |        7916 |
|      10 | 0x0001      |           1 |
|      11 | 0x0078      |         120 |
|      12 | 0x00FE      |         254 |
|      13 | 0x1EED      |        7917 |
|      14 | 0x0002      |           2 |
|      15 | 0x1EEE      |        7918 |
|      16 | 0x0003      |           3 |
|      17 | 0x1EEF      |        7919 |
|      18 | 0x1EF0      |        7920 |
|      19 | 0x1EF1      |        7921 |
|      20 | 0x5763A     |      357946 |
|      21 | 0x49391     |      299921 |
|      22 | 0x1000      |        4096 |
|      23 | 0x000D      |          13 |
|      24 | 0x58619     |      362009 |
|      25 | 0x4939D     |      299933 |
|      26 | 0xFFFFFFF3  |  4294967283 |
|      27 | 0x9CF94     |      642964 |
|      28 | 0x2BF09     |      179977 |
|      29 | 0x00A7      |         167 |
|      30 | 0x9CC65     |      642149 |
|      31 | 0x2BF35     |      180021 |
|      32 | 0x0800      |        2048 |
|      33 | 0x9BA10     |      637456 |
|      34 | 0x2BED2     |      179922 |
|      35 | 0x0011      |          17 |
|      36 | 0x5733B     |      357179 |
|      37 | 0x493DD     |      299997 |
|      38 | 0x493E5     |      300005 |
|      39 | 0xFFF9EC3C  |  4294569020 |
|      40 | 0x4E1F      |       19999 |
|      41 | 0x0400      |        1024 |
|      42 | 0x493D5     |      299989 |
|      43 | 0xFFF9D7D9  |  4294563801 |
|      44 | 0x000F      |          15 |
|      45 | 0x0010      |          16 |
|      46 | 0x001F      |          31 |
|      47 | 0xFFFFFFFF  |  4294967295 |
|      48 | 0x1EE4      |        7908 |
|      49 | 0x1D19      |        7449 |
|      50 | 0x00FF      |         255 |
|      51 | 0x0013      |          19 |
|      52 | 0x0004      |           4 |
|      53 | 0x0008      |           8 |
|      54 | 0x493E0     |      300000 |
|      55 | 0xFFF9CE10  |  4294561296 |
|      56 | 0x4C90      |       19600 |
|      57 | 0x1D24      |        7460 |
|      58 | 0x0005      |           5 |
|      59 | 0x1D4B      |        7499 |
|      60 | 0x0006      |           6 |
|      61 | 0x0007      |           7 |
|      62 | 0x0009      |           9 |
|      63 | 0x000A      |          10 |
|      64 | 0x000B      |          11 |
|      65 | 0x000C      |          12 |
|      66 | 0x000E      |          14 |
|      67 | 0x0012      |          18 |
|      68 | 0x0014      |          20 |
|      69 | 0x0015      |          21 |
|      70 | 0x0016      |          22 |
|      71 | 0x0017      |          23 |
|      72 | 0x0018      |          24 |
|      73 | 0x0019      |          25 |
|      74 | 0x001A      |          26 |
|      75 | 0x001C      |          28 |
|      76 | 0x001D      |          29 |
|      77 | 0x001E      |          30 |
|      78 | 0x1E80      |        7808 |
|      79 | 0x0064      |         100 |
|      80 | 0x1E6C      |        7788 |
|      81 | 0x008F      |         143 |
|      82 | 0x1D1C      |        7452 |
|      83 | 0x00C9      |         201 |
|      84 | 0xFFFA2BD0  |  4294585296 |
|      85 | 0x49D4      |       18900 |
|      86 | 0x0C00      |        3072 |
|      87 | 0x03E7      |         999 |
|      88 | 0x00B4      |         180 |
|      89 | 0x012C      |         300 |
|      90 | 0x0080      |         128 |
|      91 | 0xFFF6C42B  |  4294362155 |
|      92 | 0x752B9     |      479929 |
|      93 | 0xFFFFA767  |  4294944615 |
|      94 | 0x03E0      |         992 |
|      95 | 0xFFFBFE43  |  4294704707 |
|      96 | 0x5C401     |      377857 |
|      97 | 0xFFFDE79F  |  4294829983 |
|      98 | 0x0D92      |        3474 |
|      99 | 0x47AC      |       18348 |
|     100 | 0x76E1C     |      486940 |
|     101 | 0xFFFC93B2  |  4294742962 |
|     102 | 0x00C2      |         194 |
|     103 | 0x388A9     |      231593 |
|     104 | 0x57E9E     |      360094 |
|     105 | 0xFFFD59FC  |  4294793724 |
|     106 | 0x0726      |        1830 |
|     107 | 0x872C0     |      553664 |
|     108 | 0x7FEA3     |      523939 |
|     109 | 0xFFFF6AC3  |  4294929091 |
|     110 | 0x0A65      |        2661 |
|     111 | 0xFFF2A593  |  4294092179 |
|     112 | 0xFFFF548C  |  4294923404 |
|     113 | 0xFFFF442C  |  4294919212 |
|     114 | 0x0201      |         513 |
|     115 | 0xFFF478D5  |  4294211797 |
|     116 | 0x89AEB     |      563947 |
|     117 | 0xFFFE4A5D  |  4294855261 |
|     118 | 0x0DEF      |        3567 |
|     119 | 0x1E173     |      123251 |
|     120 | 0xB8221     |      754209 |
|     121 | 0xFFFD5FA4  |  4294795172 |
|     122 | 0x01B8      |         440 |
|     123 | 0xFFF81ECC  |  4294450892 |
|     124 | 0xFFF3BE05  |  4294163973 |
|     125 | 0x5E8E      |       24206 |
|     126 | 0x01B5      |         437 |
|     127 | 0x00D9      |         217 |
|     128 | 0x1EE6      |        7910 |
|     129 | 0x005A      |          90 |
|     130 | 0x0321      |         801 |
|     131 | 0x0322      |         802 |
|     132 | 0x1EE7      |        7911 |
|     133 | 0x006C      |         108 |
|     134 | 0x0073      |         115 |
|     135 | 0x008B      |         139 |
|     136 | 0x1D1A      |        7450 |
|     137 | 0xFFF9D5E0  |  4294563296 |
|     138 | 0x4C2C      |       19500 |

## String References

- **7449**: Enter the battlefield? [Enter./Decline.]
- **7450**: Leave the battlefield? [Run away./Stay.]
- **7452**: You cannot enter the battlefield at present. Please wait a little longer.
- **7460**: You are cleared to enter the battlefield, but you cannot while party members are engaged in combat.
- **7499**: You do not meet the requirements to enter the battlefield. Access is denied.
- **7788**: Skip the event? [Yes./No.]
- **7808**: Only $3 [member/members] have clearance to enter the battlefield. This room has reached its maximum capacity.
- **7908**: Which battlefield will you enter? [None./Halvung Invasion././././././././././././././././././././././././././././././]
- **7910**: You rap on the gate using the pattern you see on the two musical scores. After a time, you hear the creaking sound of a heavy bar being lifted on the other side of the gate...
- **7911**: The pictographs on the $3 and $3 fade away without a trace...
- **7912**: Choose a picture to take.
- **7913**: First scene.
- **7914**: Second scene.
- **7915**: Third scene.
- **7916**: Which picture will you take? [Show me again./First scene./Second scene./Third scene.]
- **7917**: <Player> records the first scene.
- **7918**: <Player> records the second scene.
- **7919**: <Player> records the third scene.
- **7920**: <Player> takes in the surrounding scenery. ...The view is breathtaking.
- **7921**: <Player> thinks back on Balakaf's words. ...Perhaps this is not the best time to record a picture.

## Events

### Event 65535

#### Metadata

| Field        | Value   |
|--------------|---------|
| Entrypoint   | 0x0000  |
| Data Size    | 1 bytes |
| Instructions | 1       |

```
      00 01 02 03 04 05 06 07  08 09 0A 0B 0C 0D 0E 0F
      -- -- -- -- -- -- -- --  -- -- -- -- -- -- -- --
0000: 00                                                .               
```

#### Opcodes

```
  0: 0x0000 [0x00] END_REQSTACK()
```

### Event 65534

#### Metadata

| Field        | Value   |
|--------------|---------|
| Entrypoint   | 0x0001  |
| Data Size    | 1 bytes |
| Instructions | 1       |

```
      00 01 02 03 04 05 06 07  08 09 0A 0B 0C 0D 0E 0F
      -- -- -- -- -- -- -- --  -- -- -- -- -- -- -- --
0000:    00                                              .              
```

#### Opcodes

```
  0: 0x0001 [0x00] END_REQSTACK()
```

### Event 2

#### Metadata

| Field        | Value     |
|--------------|-----------|
| Entrypoint   | 0x0002    |
| Data Size    | 719 bytes |
| Instructions | 85        |

```
      00 01 02 03 04 05 06 07  08 09 0A 0B 0C 0D 0E 0F
      -- -- -- -- -- -- -- --  -- -- -- -- -- -- -- --
0000:       42 48 00 80 23 45  01 80 F8 FF FF 7F F8 FF    BH..#E........
0010: FF 7F 66 64 6F 31 02 80  55 01 80 F8 FF FF 7F F8  ..fdo1..U.......
0020: FF FF 7F 66 64 6F 31 46  01 38 03 80 4E 01 F0 FF  ...fdo1F.8..N...
0030: FF 7F 03 00 00 02 80 02  00 00 02 80 00 B9 02 45  ...............E
0040: 04 80 F8 FF FF 7F F8 FF  FF 7F 73 30 37 31 02 80  ..........s071..
0050: 1C 05 80 45 01 80 F8 FF  FF 7F F8 FF FF 7F 66 64  ...E..........fd
0060: 69 31 02 80 1C 05 80 48  06 80 23 45 01 80 F8 FF  i1.....H..#E....
0070: FF 7F F8 FF FF 7F 66 64  6F 31 02 80 55 01 80 F8  ......fdo1..U...
0080: FF FF 7F F8 FF FF 7F 66  64 6F 31 52 04 80 F8 FF  .......fdo1R....
0090: FF 7F F8 FF FF 7F 73 30  37 31 45 04 80 F8 FF FF  ......s071E.....
00A0: 7F F8 FF FF 7F 73 30 37  32 02 80 1C 05 80 45 01  .....s072.....E.
00B0: 80 F8 FF FF 7F F8 FF FF  7F 66 64 69 31 02 80 1C  .........fdi1...
00C0: 05 80 48 07 80 23 45 01  80 F8 FF FF 7F F8 FF FF  ..H..#E.........
00D0: 7F 66 64 6F 31 02 80 55  01 80 F8 FF FF 7F F8 FF  .fdo1..U........
00E0: FF 7F 66 64 6F 31 52 04  80 F8 FF FF 7F F8 FF FF  ..fdo1R.........
00F0: 7F 73 30 37 32 45 04 80  F8 FF FF 7F F8 FF FF 7F  .s072E..........
0100: 73 30 37 33 02 80 1C 05  80 45 01 80 F8 FF FF 7F  s073.....E......
0110: F8 FF FF 7F 66 64 69 31  02 80 1C 05 80 48 08 80  ....fdi1.....H..
0120: 23 24 09 80 02 80 02 80  25 02 00 10 02 80 00 34  #$......%......4
0130: 01 01 69 02 02 00 10 0A  80 00 B7 01 45 01 80 F8  ..i.........E...
0140: FF FF 7F F8 FF FF 7F 66  64 6F 31 02 80 55 01 80  .......fdo1..U..
0150: F8 FF FF 7F F8 FF FF 7F  66 64 6F 31 52 04 80 F8  ........fdo1R...
0160: FF FF 7F F8 FF FF 7F 73  30 37 33 45 04 80 F8 FF  .......s073E....
0170: FF 7F F8 FF FF 7F 73 30  37 31 02 80 1C 05 80 45  ......s071.....E
0180: 01 80 F8 FF FF 7F F8 FF  FF 7F 66 64 69 31 02 80  ..........fdi1..
0190: 1C 0B 80 45 0C 80 F8 FF  FF 7F F8 FF FF 7F 73 30  ...E..........s0
01A0: 34 37 02 80 1C 0B 80 48  0D 80 03 00 00 0A 80 03  47.....H........
01B0: 01 10 0A 80 01 69 02 02  00 10 0E 80 00 3A 02 45  .....i.......:.E
01C0: 01 80 F8 FF FF 7F F8 FF  FF 7F 66 64 6F 31 02 80  ..........fdo1..
01D0: 55 01 80 F8 FF FF 7F F8  FF FF 7F 66 64 6F 31 52  U..........fdo1R
01E0: 04 80 F8 FF FF 7F F8 FF  FF 7F 73 30 37 33 45 04  ..........s073E.
01F0: 80 F8 FF FF 7F F8 FF FF  7F 73 30 37 32 02 80 1C  .........s072...
0200: 05 80 45 01 80 F8 FF FF  7F F8 FF FF 7F 66 64 69  ..E..........fdi
0210: 31 02 80 1C 0B 80 45 0C  80 F8 FF FF 7F F8 FF FF  1.....E.........
0220: 7F 73 30 34 37 02 80 1C  0B 80 48 0F 80 03 00 00  .s047.....H.....
0230: 0A 80 03 01 10 0E 80 01  69 02 02 00 10 10 80 00  ........i.......
0240: 69 02 1C 0B 80 45 0C 80  F8 FF FF 7F F8 FF FF 7F  i....E..........
0250: 73 30 34 37 02 80 1C 0B  80 48 11 80 03 00 00 0A  s047.....H......
0260: 80 03 01 10 10 80 01 69  02 45 01 80 F8 FF FF 7F  .......i.E......
0270: F8 FF FF 7F 66 64 6F 31  02 80 55 01 80 F8 FF FF  ....fdo1..U.....
0280: 7F F8 FF FF 7F 66 64 6F  31 52 04 80 F8 FF FF 7F  .....fdo1R......
0290: F8 FF FF 7F 73 30 37 31  52 04 80 F8 FF FF 7F F8  ....s071R.......
02A0: FF FF 7F 73 30 37 32 52  04 80 F8 FF FF 7F F8 FF  ...s072R........
02B0: FF 7F 73 30 37 33 01 37  00 46 00 1C 05 80 45 01  ..s073.7.F....E.
02C0: 80 F8 FF FF 7F F8 FF FF  7F 66 64 69 31 02 80 21  .........fdi1..!
02D0: 00                                                .               
```

#### Opcodes

```
  0: 0x0002 [0x42] SET_CLI_EVENT_CANCEL_DATA()
  1: 0x0003 [0x48] [System] [7912*]:
    → "Choose a picture to take."
  2: 0x0006 [0x23] WAIT_FOR_DIALOG_INTERACTION
  3: 0x0007 [0x45] LOAD_SCHEDULED_TASK: Load scheduler "fdo1" with entities [EventEntity, EventEntity], work=[200*, 0*]
  4: 0x0018 [0x55] WAIT_LOAD_SCHEDULER: Wait for scheduler "fdo1" with entities [EventEntity, EventEntity], work=200*
  5: 0x0027 [0x46] CAMERA_CONTROL: Disable user control
  6: 0x0029 [0x38] SET_CLIENT_EVENT_MODE(mode=27*)
  7: 0x002C [0x4E] SET_ENTITY_HIDE_FLAG: Hide LocalPlayer
  8: 0x0032 [0x03] ExtData[1]->WorkLocal[0] = 0*
  9: 0x0037 [0x02] IF !(ExtData[1]->WorkLocal[0] == 0*) GOTO 0x02B9
 10: 0x003F [0x45] LOAD_SCHEDULED_TASK: Load scheduler "s071" with entities [EventEntity, EventEntity], work=[253*, 0*]
 11: 0x0050 [0x1C] WAIT(60* ticks)
 12: 0x0053 [0x45] LOAD_SCHEDULED_TASK: Load scheduler "fdi1" with entities [EventEntity, EventEntity], work=[200*, 0*]
 13: 0x0064 [0x1C] WAIT(60* ticks)
 14: 0x0067 [0x48] [System] [7913*]:
    → "First scene."
 15: 0x006A [0x23] WAIT_FOR_DIALOG_INTERACTION
 16: 0x006B [0x45] LOAD_SCHEDULED_TASK: Load scheduler "fdo1" with entities [EventEntity, EventEntity], work=[200*, 0*]
 17: 0x007C [0x55] WAIT_LOAD_SCHEDULER: Wait for scheduler "fdo1" with entities [EventEntity, EventEntity], work=200*
 18: 0x008B [0x52] END_LOAD_SCHEDULER: End scheduler "s071" with entities [EventEntity, EventEntity], work=253*
 19: 0x009A [0x45] LOAD_SCHEDULED_TASK: Load scheduler "s072" with entities [EventEntity, EventEntity], work=[253*, 0*]
 20: 0x00AB [0x1C] WAIT(60* ticks)
 21: 0x00AE [0x45] LOAD_SCHEDULED_TASK: Load scheduler "fdi1" with entities [EventEntity, EventEntity], work=[200*, 0*]
 22: 0x00BF [0x1C] WAIT(60* ticks)
 23: 0x00C2 [0x48] [System] [7914*]:
    → "Second scene."
 24: 0x00C5 [0x23] WAIT_FOR_DIALOG_INTERACTION
 25: 0x00C6 [0x45] LOAD_SCHEDULED_TASK: Load scheduler "fdo1" with entities [EventEntity, EventEntity], work=[200*, 0*]
 26: 0x00D7 [0x55] WAIT_LOAD_SCHEDULER: Wait for scheduler "fdo1" with entities [EventEntity, EventEntity], work=200*
 27: 0x00E6 [0x52] END_LOAD_SCHEDULER: End scheduler "s072" with entities [EventEntity, EventEntity], work=253*
 28: 0x00F5 [0x45] LOAD_SCHEDULED_TASK: Load scheduler "s073" with entities [EventEntity, EventEntity], work=[253*, 0*]
 29: 0x0106 [0x1C] WAIT(60* ticks)
 30: 0x0109 [0x45] LOAD_SCHEDULED_TASK: Load scheduler "fdi1" with entities [EventEntity, EventEntity], work=[200*, 0*]
 31: 0x011A [0x1C] WAIT(60* ticks)
 32: 0x011D [0x48] [System] [7915*]:
    → "Third scene."
 33: 0x0120 [0x23] WAIT_FOR_DIALOG_INTERACTION
 34: 0x0121 [0x24] CREATE_DIALOG(message_id=7916*, default_option=0*, option_flags=0*)
    → "Which picture will you take? [Show me again./First scene./Second scene./Third scene.]"
 35: 0x0128 [0x25] WAIT_DIALOG_SELECT()
 36: 0x0129 [0x02] IF !(Work_Zone[0] == 0*) GOTO 0x0134
 37: 0x0131 [0x01] GOTO 0x0269
 38: 0x0134 [0x02] IF !(Work_Zone[0] == 1*) GOTO 0x01B7
 39: 0x013C [0x45] LOAD_SCHEDULED_TASK: Load scheduler "fdo1" with entities [EventEntity, EventEntity], work=[200*, 0*]
 40: 0x014D [0x55] WAIT_LOAD_SCHEDULER: Wait for scheduler "fdo1" with entities [EventEntity, EventEntity], work=200*
 41: 0x015C [0x52] END_LOAD_SCHEDULER: End scheduler "s073" with entities [EventEntity, EventEntity], work=253*
 42: 0x016B [0x45] LOAD_SCHEDULED_TASK: Load scheduler "s071" with entities [EventEntity, EventEntity], work=[253*, 0*]
 43: 0x017C [0x1C] WAIT(60* ticks)
 44: 0x017F [0x45] LOAD_SCHEDULED_TASK: Load scheduler "fdi1" with entities [EventEntity, EventEntity], work=[200*, 0*]
 45: 0x0190 [0x1C] WAIT(120* ticks)
 46: 0x0193 [0x45] LOAD_SCHEDULED_TASK: Load scheduler "s047" with entities [EventEntity, EventEntity], work=[254*, 0*]
 47: 0x01A4 [0x1C] WAIT(120* ticks)
 48: 0x01A7 [0x48] [System] [7917*]:
    → "<Player> records the first scene."
 49: 0x01AA [0x03] ExtData[1]->WorkLocal[0] = 1*
 50: 0x01AF [0x03] Work_Zone[1] = 1*
 51: 0x01B4 [0x01] GOTO 0x0269
 52: 0x01B7 [0x02] IF !(Work_Zone[0] == 2*) GOTO 0x023A
 53: 0x01BF [0x45] LOAD_SCHEDULED_TASK: Load scheduler "fdo1" with entities [EventEntity, EventEntity], work=[200*, 0*]
 54: 0x01D0 [0x55] WAIT_LOAD_SCHEDULER: Wait for scheduler "fdo1" with entities [EventEntity, EventEntity], work=200*
 55: 0x01DF [0x52] END_LOAD_SCHEDULER: End scheduler "s073" with entities [EventEntity, EventEntity], work=253*
 56: 0x01EE [0x45] LOAD_SCHEDULED_TASK: Load scheduler "s072" with entities [EventEntity, EventEntity], work=[253*, 0*]
 57: 0x01FF [0x1C] WAIT(60* ticks)
 58: 0x0202 [0x45] LOAD_SCHEDULED_TASK: Load scheduler "fdi1" with entities [EventEntity, EventEntity], work=[200*, 0*]
 59: 0x0213 [0x1C] WAIT(120* ticks)
 60: 0x0216 [0x45] LOAD_SCHEDULED_TASK: Load scheduler "s047" with entities [EventEntity, EventEntity], work=[254*, 0*]
 61: 0x0227 [0x1C] WAIT(120* ticks)
 62: 0x022A [0x48] [System] [7918*]:
    → "<Player> records the second scene."
 63: 0x022D [0x03] ExtData[1]->WorkLocal[0] = 1*
 64: 0x0232 [0x03] Work_Zone[1] = 2*
 65: 0x0237 [0x01] GOTO 0x0269
 66: 0x023A [0x02] IF !(Work_Zone[0] == 3*) GOTO 0x0269
 67: 0x0242 [0x1C] WAIT(120* ticks)
 68: 0x0245 [0x45] LOAD_SCHEDULED_TASK: Load scheduler "s047" with entities [EventEntity, EventEntity], work=[254*, 0*]
 69: 0x0256 [0x1C] WAIT(120* ticks)
 70: 0x0259 [0x48] [System] [7919*]:
    → "<Player> records the third scene."
 71: 0x025C [0x03] ExtData[1]->WorkLocal[0] = 1*
 72: 0x0261 [0x03] Work_Zone[1] = 3*
 73: 0x0266 [0x01] GOTO 0x0269

SUBROUTINE_0269:
 74: 0x0269 [0x45] LOAD_SCHEDULED_TASK: Load scheduler "fdo1" with entities [EventEntity, EventEntity], work=[200*, 0*]
 75: 0x027A [0x55] WAIT_LOAD_SCHEDULER: Wait for scheduler "fdo1" with entities [EventEntity, EventEntity], work=200*
 76: 0x0289 [0x52] END_LOAD_SCHEDULER: End scheduler "s071" with entities [EventEntity, EventEntity], work=253*
 77: 0x0298 [0x52] END_LOAD_SCHEDULER: End scheduler "s072" with entities [EventEntity, EventEntity], work=253*
 78: 0x02A7 [0x52] END_LOAD_SCHEDULER: End scheduler "s073" with entities [EventEntity, EventEntity], work=253*
 79: 0x02B6 [0x01] GOTO 0x0037
 80: 0x02B9 [0x46] CAMERA_CONTROL: Restore default settings
 81: 0x02BB [0x1C] WAIT(60* ticks)
 82: 0x02BE [0x45] LOAD_SCHEDULED_TASK: Load scheduler "fdi1" with entities [EventEntity, EventEntity], work=[200*, 0*]
 83: 0x02CF [0x21] END_EVENT
 84: 0x02D0 [0x00] END_REQSTACK()
```

### Event 208

#### Metadata

| Field        | Value   |
|--------------|---------|
| Entrypoint   | 0x02D1  |
| Data Size    | 6 bytes |
| Instructions | 4       |

```
      00 01 02 03 04 05 06 07  08 09 0A 0B 0C 0D 0E 0F
      -- -- -- -- -- -- -- --  -- -- -- -- -- -- -- --
02D0:    48 12 80 23 21 00                               H..#!.         
```

#### Opcodes

```
  0: 0x02D1 [0x48] [System] [7920*]:
    → "<Player> takes in the surrounding scenery. ...The view is breathtaking."
  1: 0x02D4 [0x23] WAIT_FOR_DIALOG_INTERACTION
  2: 0x02D5 [0x21] END_EVENT
  3: 0x02D6 [0x00] END_REQSTACK()
```

### Event 209

#### Metadata

| Field        | Value   |
|--------------|---------|
| Entrypoint   | 0x02D7  |
| Data Size    | 6 bytes |
| Instructions | 4       |

```
      00 01 02 03 04 05 06 07  08 09 0A 0B 0C 0D 0E 0F
      -- -- -- -- -- -- -- --  -- -- -- -- -- -- -- --
02D0:                      48  13 80 23 21 00                  H..#!.   
```

#### Opcodes

```
  0: 0x02D7 [0x48] [System] [7921*]:
    → "<Player> thinks back on Balakaf's words. ...Perhaps this is not the best time to record a picture."
  1: 0x02DA [0x23] WAIT_FOR_DIALOG_INTERACTION
  2: 0x02DB [0x21] END_EVENT
  3: 0x02DC [0x00] END_REQSTACK()
```

### Event 200

#### Metadata

| Field        | Value    |
|--------------|----------|
| Entrypoint   | 0x02DD   |
| Data Size    | 10 bytes |
| Instructions | 2        |

```
      00 01 02 03 04 05 06 07  08 09 0A 0B 0C 0D 0E 0F
      -- -- -- -- -- -- -- --  -- -- -- -- -- -- -- --
02D0:                                         37 14 80               7..
02E0: 15 80 02 80 16 80 00                              .......         
```

#### Opcodes

```
  0: 0x02DD [0x37] UPDATE_EVENT_POSITION_AND_DIR: x=357.946*, z=299.921*, y=0.000*, direction=360.0°*
  1: 0x02E6 [0x00] END_REQSTACK()
```

### Event 201

#### Metadata

| Field        | Value    |
|--------------|----------|
| Entrypoint   | 0x02E7   |
| Data Size    | 14 bytes |
| Instructions | 4        |

```
      00 01 02 03 04 05 06 07  08 09 0A 0B 0C 0D 0E 0F
      -- -- -- -- -- -- -- --  -- -- -- -- -- -- -- --
02E0:                      32  17 80 1F 00 18 80 19 80         2........
02F0: 1A 80 1F 01 00                                    .....           
```

#### Opcodes

```
  0: 0x02E7 [0x32] ExtData[1]->MainSpeed = 13* * 0.1
  1: 0x02EA [0x1F] MOVE_ENTITY: EventEntity moves to X=362.009*, Z=299.933*, Y=-0.013*
  2: 0x02F2 [0x1F] MOVE_ENTITY: Update entity position (mode=1)
  3: 0x02F4 [0x00] END_REQSTACK()
```

### Event 202

#### Metadata

| Field        | Value    |
|--------------|----------|
| Entrypoint   | 0x02F5   |
| Data Size    | 13 bytes |
| Instructions | 3        |

```
      00 01 02 03 04 05 06 07  08 09 0A 0B 0C 0D 0E 0F
      -- -- -- -- -- -- -- --  -- -- -- -- -- -- -- --
02F0:                47 00 1B  80 1C 80 1D 80 16 80 47       G.........G
0300: 01 00                                             ..              
```

#### Opcodes

```
  0: 0x02F5 [0x47] UPDATE_PLAYER_POS(642.964*, 179.977*, 0.167*, yaw=360.0°*)
  1: 0x02FF [0x47] WAIT_PLAYER_POS_UPDATE
  2: 0x0301 [0x00] END_REQSTACK()
```

### Event 203

#### Metadata

| Field        | Value    |
|--------------|----------|
| Entrypoint   | 0x0302   |
| Data Size    | 10 bytes |
| Instructions | 2        |

```
      00 01 02 03 04 05 06 07  08 09 0A 0B 0C 0D 0E 0F
      -- -- -- -- -- -- -- --  -- -- -- -- -- -- -- --
0300:       37 1E 80 1F 80 02  80 20 80 00                7...... ..    
```

#### Opcodes

```
  0: 0x0302 [0x37] UPDATE_EVENT_POSITION_AND_DIR: x=642.149*, z=180.021*, y=0.000*, direction=180.0°*
  1: 0x030B [0x00] END_REQSTACK()
```

### Event 204

#### Metadata

| Field        | Value    |
|--------------|----------|
| Entrypoint   | 0x030C   |
| Data Size    | 14 bytes |
| Instructions | 4        |

```
      00 01 02 03 04 05 06 07  08 09 0A 0B 0C 0D 0E 0F
      -- -- -- -- -- -- -- --  -- -- -- -- -- -- -- --
0300:                                      32 17 80 1F              2...
0310: 00 21 80 22 80 23 80 1F  01 00                    .!.".#....      
```

#### Opcodes

```
  0: 0x030C [0x32] ExtData[1]->MainSpeed = 13* * 0.1
  1: 0x030F [0x1F] MOVE_ENTITY: EventEntity moves to X=637.456*, Z=179.922*, Y=0.017*
  2: 0x0317 [0x1F] MOVE_ENTITY: Update entity position (mode=1)
  3: 0x0319 [0x00] END_REQSTACK()
```

### Event 205

#### Metadata

| Field        | Value    |
|--------------|----------|
| Entrypoint   | 0x031A   |
| Data Size    | 13 bytes |
| Instructions | 3        |

```
      00 01 02 03 04 05 06 07  08 09 0A 0B 0C 0D 0E 0F
      -- -- -- -- -- -- -- --  -- -- -- -- -- -- -- --
0310:                                47 00 24 80 25 80            G.$.%.
0320: 03 80 20 80 47 01 00                              .. .G..         
```

#### Opcodes

```
  0: 0x031A [0x47] UPDATE_PLAYER_POS(357.179*, 299.997*, 0.027*, yaw=180.0°*)
  1: 0x0324 [0x47] WAIT_PLAYER_POS_UPDATE
  2: 0x0326 [0x00] END_REQSTACK()
```

### Event 212

#### Metadata

| Field        | Value    |
|--------------|----------|
| Entrypoint   | 0x0327   |
| Data Size    | 10 bytes |
| Instructions | 2        |

```
      00 01 02 03 04 05 06 07  08 09 0A 0B 0C 0D 0E 0F
      -- -- -- -- -- -- -- --  -- -- -- -- -- -- -- --
0320:                      37  26 80 27 80 28 80 29 80         7&.'.(.).
0330: 00                                                .               
```

#### Opcodes

```
  0: 0x0327 [0x37] UPDATE_EVENT_POSITION_AND_DIR: x=300.005*, z=-398.276*, y=19.999*, direction=90.0°*
  1: 0x0330 [0x00] END_REQSTACK()
```

### Event 213

#### Metadata

| Field        | Value    |
|--------------|----------|
| Entrypoint   | 0x0331   |
| Data Size    | 14 bytes |
| Instructions | 4        |

```
      00 01 02 03 04 05 06 07  08 09 0A 0B 0C 0D 0E 0F
      -- -- -- -- -- -- -- --  -- -- -- -- -- -- -- --
0330:    32 17 80 1F 00 2A 80  2B 80 28 80 1F 01 00      2....*.+.(.... 
```

#### Opcodes

```
  0: 0x0331 [0x32] ExtData[1]->MainSpeed = 13* * 0.1
  1: 0x0334 [0x1F] MOVE_ENTITY: EventEntity moves to X=299.989*, Z=-403.495*, Y=19.999*
  2: 0x033C [0x1F] MOVE_ENTITY: Update entity position (mode=1)
  3: 0x033E [0x00] END_REQSTACK()
```

### Event 214

#### Metadata

| Field        | Value    |
|--------------|----------|
| Entrypoint   | 0x033F   |
| Data Size    | 13 bytes |
| Instructions | 3        |

```
      00 01 02 03 04 05 06 07  08 09 0A 0B 0C 0D 0E 0F
      -- -- -- -- -- -- -- --  -- -- -- -- -- -- -- --
0330:                                               47                 G
0340: 00 2A 80 2B 80 28 80 29  80 47 01 00              .*.+.(.).G..    
```

#### Opcodes

```
  0: 0x033F [0x47] UPDATE_PLAYER_POS(299.989*, -403.495*, 19.999*, yaw=90.0°*)
  1: 0x0349 [0x47] WAIT_PLAYER_POS_UPDATE
  2: 0x034B [0x00] END_REQSTACK()
```

### Event 32000

#### Metadata

| Field        | Value      |
|--------------|------------|
| Entrypoint   | 0x034C     |
| Data Size    | 1769 bytes |
| Instructions | 208        |

```
      00 01 02 03 04 05 06 07  08 09 0A 0B 0C 0D 0E 0F
      -- -- -- -- -- -- -- --  -- -- -- -- -- -- -- --
0340:                                      20 01 79 00               .y.
0350: F0 FF FF 7F F0 FF FF 7F  03 03 00 02 10 03 04 00  ................
0360: 03 10 03 06 00 04 10 03  07 00 05 10 41 02 80 2C  ............A..,
0370: 80 09 10 08 00 41 2D 80  2E 80 09 10 06 10 06 02  .....A-.........
0380: 00 02 08 00 02 80 00 DA  03 03 09 00 2F 80 0F 09  ............/...
0390: 00 07 00 10 09 00 0A 80  24 30 80 02 80 09 00 25  ........$0.....%
03A0: 02 00 10 02 80 00 AE 03  01 1A 0A 01 DA 03 03 04  ................
03B0: 00 00 10 0C 04 00 06 13  00 1A 34 0A 02 13 00 0A  ..........4.....
03C0: 80 00 DA 03 24 31 80 0A  80 02 80 25 02 00 10 0A  ....$1.....%....
03D0: 80 00 DA 03 01 1A 0A 01  DA 03 42 03 01 10 32 80  ..........B...2.
03E0: 43 00 43 01 06 01 10 45  01 80 F0 FF FF 7F F0 FF  C.C....E........
03F0: FF 7F 66 64 6F 31 02 80  55 01 80 F0 FF FF 7F F0  ..fdo1..U.......
0400: FF FF 7F 66 64 6F 31 3B  F0 FF FF 7F 20 10 21 10  ...fdo1;.... .!.
0410: 22 10 38 33 80 02 08 00  0A 80 00 34 04 03 01 00  ".83.......4....
0420: 0A 80 03 05 00 04 00 03  03 00 02 80 03 19 00 02  ................
0430: 80 01 4E 07 03 01 00 0A  80 02 01 00 0A 80 05 E3  ..N.............
0440: 09 02 02 80 0A 80 00 4E  04 03 01 00 06 00 40 02  .......N......@.
0450: 80 10 80 01 10 01 00 40  34 80 35 80 01 10 04 00  .......@4.5.....
0460: 06 02 10 06 03 10 06 04  10 02 01 00 0A 80 80 88  ................
0470: 04 03 0A 00 36 80 03 0B  00 37 80 03 0C 00 38 80  ....6....7....8.
0480: 03 0D 00 29 80 01 88 04  47 00 0A 00 0B 00 0C 00  ...)....G.......
0490: 0D 00 47 01 03 05 00 03  10 03 03 00 04 10 03 17  ..G.............
04A0: 00 05 10 03 0E 00 06 10  03 0F 00 07 10 03 19 00  ................
04B0: 09 10 02 02 10 0A 80 80  BD 04 01 D0 09 02 02 10  ................
04C0: 34 80 80 DA 04 02 01 00  0A 80 80 D4 04 48 39 80  4............H9.
04D0: 23 01 D4 04 01 E7 09 01  D0 09 02 02 10 3A 80 80  #............:..
04E0: EC 04 48 3B 80 23 01 E7  09 01 D0 09 02 02 10 3C  ..H;.#.........<
04F0: 80 80 EE 06 02 05 00 02  80 80 04 05 03 05 10 3C  ...............<
0500: 80 01 E4 06 02 05 00 0A  80 80 14 05 03 05 10 02  ................
0510: 80 01 E4 06 02 05 00 0E  80 80 24 05 03 05 10 02  ..........$.....
0520: 80 01 E4 06 02 05 00 10  80 80 34 05 03 05 10 02  ..........4.....
0530: 80 01 E4 06 02 05 00 34  80 80 44 05 03 05 10 02  .......4..D.....
0540: 80 01 E4 06 02 05 00 3A  80 80 54 05 03 05 10 02  .......:..T.....
0550: 80 01 E4 06 02 05 00 3C  80 80 64 05 03 05 10 02  .......<..d.....
0560: 80 01 E4 06 02 05 00 3D  80 80 74 05 03 05 10 02  .......=..t.....
0570: 80 01 E4 06 02 05 00 35  80 80 84 05 03 05 10 02  .......5........
0580: 80 01 E4 06 02 05 00 3E  80 80 94 05 03 05 10 02  .......>........
0590: 80 01 E4 06 02 05 00 3F  80 80 A4 05 03 05 10 02  .......?........
05A0: 80 01 E4 06 02 05 00 40  80 80 B4 05 03 05 10 02  .......@........
05B0: 80 01 E4 06 02 05 00 41  80 80 C4 05 03 05 10 02  .......A........
05C0: 80 01 E4 06 02 05 00 17  80 80 D4 05 03 05 10 02  ................
05D0: 80 01 E4 06 02 05 00 42  80 80 E4 05 03 05 10 02  .......B........
05E0: 80 01 E4 06 02 05 00 2C  80 80 F4 05 03 05 10 02  .......,........
05F0: 80 01 E4 06 02 05 00 2D  80 80 04 06 03 05 10 02  .......-........
0600: 80 01 E4 06 02 05 00 23  80 80 14 06 03 05 10 02  .......#........
0610: 80 01 E4 06 02 05 00 43  80 80 24 06 03 05 10 02  .......C..$.....
0620: 80 01 E4 06 02 05 00 33  80 80 34 06 03 05 10 02  .......3..4.....
0630: 80 01 E4 06 02 05 00 44  80 80 44 06 03 05 10 02  .......D..D.....
0640: 80 01 E4 06 02 05 00 45  80 80 54 06 03 05 10 02  .......E..T.....
0650: 80 01 E4 06 02 05 00 46  80 80 64 06 03 05 10 02  .......F..d.....
0660: 80 01 E4 06 02 05 00 47  80 80 74 06 03 05 10 02  .......G..t.....
0670: 80 01 E4 06 02 05 00 48  80 80 84 06 03 05 10 02  .......H........
0680: 80 01 E4 06 02 05 00 49  80 80 94 06 03 05 10 02  .......I........
0690: 80 01 E4 06 02 05 00 4A  80 80 A4 06 03 05 10 02  .......J........
06A0: 80 01 E4 06 02 05 00 03  80 80 B4 06 03 05 10 02  ................
06B0: 80 01 E4 06 02 05 00 4B  80 80 C4 06 03 05 10 02  .......K........
06C0: 80 01 E4 06 02 05 00 4C  80 80 D4 06 03 05 10 02  .......L........
06D0: 80 01 E4 06 02 05 00 4D  80 80 E4 06 03 05 10 02  .......M........
06E0: 80 01 E4 06 48 4E 80 23  01 E7 09 01 D0 09 02 02  ....HN.#........
06F0: 10 10 80 80 FC 06 01 34  04 01 D0 09 02 02 10 0E  .......4........
0700: 80 80 D0 09 03 04 00 05  00 03 11 00 4F 80 07 11  ............O...
0710: 00 04 00 02 03 00 11 00  00 23 07 03 03 00 0A 80  .........#......
0720: 01 28 07 03 03 00 02 80  02 03 00 02 80 00 4E 07  .(............N.
0730: 02 0F 00 0A 80 00 4E 07  24 50 80 0A 80 02 80 25  ......N.$P.....%
0740: 02 00 10 02 80 00 4E 07  05 03 00 01 4E 07 06 12  ......N.....N...
0750: 00 02 05 00 02 80 80 61  07 03 12 00 02 80 01 46  .......a.......F
0760: 09 02 05 00 0A 80 80 71  07 03 12 00 02 80 01 46  .......q.......F
0770: 09 02 05 00 0E 80 80 81  07 03 12 00 02 80 01 46  ...............F
0780: 09 02 05 00 10 80 80 91  07 03 12 00 02 80 01 46  ...............F
0790: 09 02 05 00 34 80 80 A1  07 03 12 00 02 80 01 46  ....4..........F
07A0: 09 02 05 00 3A 80 80 B1  07 03 12 00 02 80 01 46  ....:..........F
07B0: 09 02 05 00 3C 80 80 C1  07 03 12 00 02 80 01 46  ....<..........F
07C0: 09 02 05 00 3D 80 80 D1  07 03 12 00 02 80 01 46  ....=..........F
07D0: 09 02 05 00 35 80 80 E1  07 03 12 00 02 80 01 46  ....5..........F
07E0: 09 02 05 00 3E 80 80 F1  07 03 12 00 02 80 01 46  ....>..........F
07F0: 09 02 05 00 3F 80 80 01  08 03 12 00 02 80 01 46  ....?..........F
0800: 09 02 05 00 40 80 80 11  08 03 12 00 02 80 01 46  ....@..........F
0810: 09 02 05 00 41 80 80 21  08 03 12 00 02 80 01 46  ....A..!.......F
0820: 09 02 05 00 17 80 80 31  08 03 12 00 02 80 01 46  .......1.......F
0830: 09 02 05 00 42 80 80 41  08 03 12 00 02 80 01 46  ....B..A.......F
0840: 09 02 05 00 2C 80 80 51  08 03 12 00 02 80 01 46  ....,..Q.......F
0850: 09 02 05 00 2D 80 80 61  08 03 12 00 02 80 01 46  ....-..a.......F
0860: 09 02 05 00 23 80 80 71  08 03 12 00 02 80 01 46  ....#..q.......F
0870: 09 02 05 00 43 80 80 81  08 03 12 00 02 80 01 46  ....C..........F
0880: 09 02 05 00 33 80 80 91  08 03 12 00 02 80 01 46  ....3..........F
0890: 09 02 05 00 44 80 80 A1  08 03 12 00 02 80 01 46  ....D..........F
08A0: 09 02 05 00 45 80 80 B1  08 03 12 00 02 80 01 46  ....E..........F
08B0: 09 02 05 00 46 80 80 C1  08 03 12 00 02 80 01 46  ....F..........F
08C0: 09 02 05 00 47 80 80 D1  08 03 12 00 02 80 01 46  ....G..........F
08D0: 09 02 05 00 48 80 80 E1  08 03 12 00 02 80 01 46  ....H..........F
08E0: 09 02 05 00 49 80 80 F1  08 03 12 00 02 80 01 46  ....I..........F
08F0: 09 02 05 00 4A 80 80 01  09 03 12 00 02 80 01 46  ....J..........F
0900: 09 02 05 00 03 80 80 11  09 03 12 00 02 80 01 46  ...............F
0910: 09 02 05 00 4B 80 80 21  09 03 12 00 02 80 01 46  ....K..!.......F
0920: 09 02 05 00 4C 80 80 31  09 03 12 00 02 80 01 46  ....L..1.......F
0930: 09 02 05 00 4D 80 80 41  09 03 12 00 02 80 01 46  ....M..A.......F
0940: 09 03 12 00 02 80 02 03  00 0A 80 00 61 09 5C 00  ............a.\.
0950: 51 80 5C 01 51 80 5C 02  51 80 5C 03 51 80 01 79  Q.\.Q.\.Q.\.Q..y
0960: 09 02 12 00 02 80 00 79  09 5C 00 51 80 5C 01 51  .......y.\.Q.\.Q
0970: 80 5C 02 51 80 5C 03 51  80 02 03 00 02 80 00 87  .\.Q.\.Q........
0980: 09 1A BB 0E 01 C0 09 6C  F0 FF FF 7F 02 80 0A 80  .......l........
0990: 62 0E 80 F0 FF FF 7F F0  FF FF 7F 6D 61 69 6E 02  b..........main.
09A0: 80 45 01 80 F0 FF FF 7F  F0 FF FF 7F 6F 76 6C 31  .E..........ovl1
09B0: 02 80 46 02 10 00 02 10  00 02 80 00 C0 09 46 00  ..F...........F.
09C0: 03 01 10 4F 80 07 01 10  04 00 01 E7 09 01 D0 09  ...O............
09D0: 0B 01 00 02 02 80 0A 80  00 E0 09 03 01 00 0E 80  ................
09E0: 01 39 04 48 52 80 23 45  53 80 F0 FF FF 7F F0 FF  .9.HR.#ES.......
09F0: FF 7F 77 68 69 31 02 80  45 01 80 F0 FF FF 7F F0  ..whi1..E.......
0A00: FF FF 7F 62 6C 6F 66 02  80 45 01 80 F0 FF FF 7F  ...blof..E......
0A10: F0 FF FF 7F 66 64 69 30  02 80 02 08 00 0A 80 00  ....fdi0........
0A20: 32 0A 5C 00 02 80 5C 01  02 80 5C 02 51 80 5C 03  2.\...\...\.Q.\.
0A30: 51 80 21 00 1B                                    Q.!..           
```

#### Opcodes

```
  0: 0x034C [0x20] SET_CLI_EVENT_UC_FLAG: Lock player control
  1: 0x034E [0x79] LocalPlayer looks at LocalPlayer (Basic look)
  2: 0x0358 [0x03] ExtData[1]->WorkLocal[3] = Work_Zone[2]
  3: 0x035D [0x03] ExtData[1]->WorkLocal[4] = Work_Zone[3]
  4: 0x0362 [0x03] ExtData[1]->WorkLocal[6] = Work_Zone[4]
  5: 0x0367 [0x03] ExtData[1]->WorkLocal[7] = Work_Zone[5]
  6: 0x036C [0x41] ExtData[1]->WorkLocal[8] = Work_Zone[9] (bits 0*-15*)
  7: 0x0375 [0x41] Work_Zone[6] = Work_Zone[9] (bits 16*-31*)
  8: 0x037E [0x06] ExtData[1]->WorkLocal[2] = 0
  9: 0x0381 [0x02] IF !(ExtData[1]->WorkLocal[8] == 0*) GOTO 0x03DA
 10: 0x0389 [0x03] ExtData[1]->WorkLocal[9] = 4294967295*
 11: 0x038E [0x0F] ExtData[1]->WorkLocal[9] ^= ExtData[1]->WorkLocal[7]
 12: 0x0393 [0x10] ExtData[1]->WorkLocal[9] <<= 1*
 13: 0x0398 [0x24] CREATE_DIALOG(message_id=7908*, default_option=0*, option_flags=ExtData[1]->WorkLocal[9])
    → "Which battlefield will you enter? [None./Halvung Invasion././././././././././././././././././././././././././././././]"
 14: 0x039F [0x25] WAIT_DIALOG_SELECT()
 15: 0x03A0 [0x02] IF !(Work_Zone[0] == 0*) GOTO 0x03AE
 16: 0x03A8 [0x01] GOTO 0x0A1A

SUBROUTINE_03DA:
 17: 0x03DA [0x42] SET_CLI_EVENT_CANCEL_DATA()
 18: 0x03DB [0x03] Work_Zone[1] = 255*
 19: 0x03E0 [0x43] SEND_EVENT_UPDATE: Send pending tag to server (packet 0x005B)
 20: 0x03E2 [0x43] SEND_EVENT_UPDATE: Check pending flag (skip if not pending)
 21: 0x03E4 [0x06] Work_Zone[1] = 0
 22: 0x03E7 [0x45] LOAD_SCHEDULED_TASK: Load scheduler "fdo1" with entities [LocalPlayer, LocalPlayer], work=[200*, 0*]
 23: 0x03F8 [0x55] WAIT_LOAD_SCHEDULER: Wait for scheduler "fdo1" with entities [LocalPlayer, LocalPlayer], work=200*
 24: 0x0407 [0x3B] GET_ENTITY_POSITION(entity=LocalPlayer, x_destination=Work_Zone[32], y_destination=Work_Zone[33], z_destination=Work_Zone[34])
 25: 0x0412 [0x38] SET_CLIENT_EVENT_MODE(mode=19*)
 26: 0x0415 [0x02] IF !(ExtData[1]->WorkLocal[8] == 1*) GOTO 0x0434
 27: 0x041D [0x03] ExtData[1]->WorkLocal[1] = 1*
 28: 0x0422 [0x03] ExtData[1]->WorkLocal[5] = ExtData[1]->WorkLocal[4]
 29: 0x0427 [0x03] ExtData[1]->WorkLocal[3] = 0*
 30: 0x042C [0x03] ExtData[1]->WorkLocal[25] = 0*
 31: 0x0431 [0x01] GOTO 0x074E

SUBROUTINE_0434:
 32: 0x0434 [0x03] ExtData[1]->WorkLocal[1] = 1*

SUBROUTINE_0439:
 33: 0x0439 [0x02] IF !(ExtData[1]->WorkLocal[1] > 1*) GOTO 0x09E3
 34: 0x0441 [0x02] IF !(0* == 1*) GOTO 0x044E
 35: 0x0449 [0x03] ExtData[1]->WorkLocal[1] = ExtData[1]->WorkLocal[6]
 36: 0x044E [0x40] SET_BIT_WORK_RANGE(start_bit=0*, end_bit=3*, target=Work_Zone[1], source=ExtData[1]->WorkLocal[1])
 37: 0x0457 [0x40] SET_BIT_WORK_RANGE(start_bit=4*, end_bit=8*, target=Work_Zone[1], source=ExtData[1]->WorkLocal[4])
 38: 0x0460 [0x06] Work_Zone[2] = 0
 39: 0x0463 [0x06] Work_Zone[3] = 0
 40: 0x0466 [0x06] Work_Zone[4] = 0
 41: 0x0469 [0x02] IF !(ExtData[1]->WorkLocal[1] == 1*) GOTO 0x0488
 42: 0x0471 [0x03] ExtData[1]->WorkLocal[10] = 300000*
 43: 0x0476 [0x03] ExtData[1]->WorkLocal[11] = 4294561296*
 44: 0x047B [0x03] ExtData[1]->WorkLocal[12] = 19600*
 45: 0x0480 [0x03] ExtData[1]->WorkLocal[13] = 1024*
 46: 0x0485 [0x01] GOTO 0x0488

SUBROUTINE_0488:
 47: 0x0488 [0x47] UPDATE_PLAYER_POS(ExtData[1]->WorkLocal[10], ExtData[1]->WorkLocal[11], ExtData[1]->WorkLocal[12], yaw=ExtData[1]->WorkLocal[13])
 48: 0x0492 [0x47] WAIT_PLAYER_POS_UPDATE
 49: 0x0494 [0x03] ExtData[1]->WorkLocal[5] = Work_Zone[3]
 50: 0x0499 [0x03] ExtData[1]->WorkLocal[3] = Work_Zone[4]
 51: 0x049E [0x03] ExtData[1]->WorkLocal[23] = Work_Zone[5]
 52: 0x04A3 [0x03] ExtData[1]->WorkLocal[14] = Work_Zone[6]
 53: 0x04A8 [0x03] ExtData[1]->WorkLocal[15] = Work_Zone[7]
 54: 0x04AD [0x03] ExtData[1]->WorkLocal[25] = Work_Zone[9]
 55: 0x04B2 [0x02] IF !(Work_Zone[2] == 1*) GOTO 0x04BD
 56: 0x04BA [0x01] GOTO 0x09D0
 57: 0x04BD [0x02] IF !(Work_Zone[2] == 4*) GOTO 0x04DA
 58: 0x04C5 [0x02] IF !(ExtData[1]->WorkLocal[1] == 1*) GOTO 0x04D4
 59: 0x04CD [0x48] [System] [7460*]:
    → "You are cleared to enter the battlefield, but you cannot while party members are engaged in combat."
 60: 0x04D0 [0x23] WAIT_FOR_DIALOG_INTERACTION
 61: 0x04D1 [0x01] GOTO 0x04D4

SUBROUTINE_04D4:
 62: 0x04D4 [0x01] GOTO 0x09E7

SUBROUTINE_06E4:
 63: 0x06E4 [0x48] [System] [7808*]:
    → "Only $3 [member/members] have clearance to enter the battlefield. This room has reached its maximum capacity."
 64: 0x06E7 [0x23] WAIT_FOR_DIALOG_INTERACTION
 65: 0x06E8 [0x01] GOTO 0x09E7

SUBROUTINE_0728:
 66: 0x0728 [0x02] IF !(ExtData[1]->WorkLocal[3] == 0*) GOTO 0x074E
 67: 0x0730 [0x02] IF !(ExtData[1]->WorkLocal[15] == 1*) GOTO 0x074E
 68: 0x0738 [0x24] CREATE_DIALOG(message_id=7788*, default_option=1*, option_flags=0*)
    → "Skip the event? [Yes./No.]"
 69: 0x073F [0x25] WAIT_DIALOG_SELECT()
 70: 0x0740 [0x02] IF !(Work_Zone[0] == 0*) GOTO 0x074E
 71: 0x0748 [0x05] ExtData[1]->WorkLocal[3] = 1
 72: 0x074B [0x01] GOTO 0x074E

SUBROUTINE_074E:
 73: 0x074E [0x06] ExtData[1]->WorkLocal[18] = 0
 74: 0x0751 [0x02] IF !(ExtData[1]->WorkLocal[5] == 0*) GOTO 0x0761
 75: 0x0759 [0x03] ExtData[1]->WorkLocal[18] = 0*
 76: 0x075E [0x01] GOTO 0x0946
 77: 0x0761 [0x02] IF !(ExtData[1]->WorkLocal[5] == 1*) GOTO 0x0771
 78: 0x0769 [0x03] ExtData[1]->WorkLocal[18] = 0*
 79: 0x076E [0x01] GOTO 0x0946
 80: 0x0771 [0x02] IF !(ExtData[1]->WorkLocal[5] == 2*) GOTO 0x0781
 81: 0x0779 [0x03] ExtData[1]->WorkLocal[18] = 0*
 82: 0x077E [0x01] GOTO 0x0946
 83: 0x0781 [0x02] IF !(ExtData[1]->WorkLocal[5] == 3*) GOTO 0x0791
 84: 0x0789 [0x03] ExtData[1]->WorkLocal[18] = 0*
 85: 0x078E [0x01] GOTO 0x0946
 86: 0x0791 [0x02] IF !(ExtData[1]->WorkLocal[5] == 4*) GOTO 0x07A1
 87: 0x0799 [0x03] ExtData[1]->WorkLocal[18] = 0*
 88: 0x079E [0x01] GOTO 0x0946
 89: 0x07A1 [0x02] IF !(ExtData[1]->WorkLocal[5] == 5*) GOTO 0x07B1
 90: 0x07A9 [0x03] ExtData[1]->WorkLocal[18] = 0*
 91: 0x07AE [0x01] GOTO 0x0946
 92: 0x07B1 [0x02] IF !(ExtData[1]->WorkLocal[5] == 6*) GOTO 0x07C1
 93: 0x07B9 [0x03] ExtData[1]->WorkLocal[18] = 0*
 94: 0x07BE [0x01] GOTO 0x0946
 95: 0x07C1 [0x02] IF !(ExtData[1]->WorkLocal[5] == 7*) GOTO 0x07D1
 96: 0x07C9 [0x03] ExtData[1]->WorkLocal[18] = 0*
 97: 0x07CE [0x01] GOTO 0x0946
 98: 0x07D1 [0x02] IF !(ExtData[1]->WorkLocal[5] == 8*) GOTO 0x07E1
 99: 0x07D9 [0x03] ExtData[1]->WorkLocal[18] = 0*
100: 0x07DE [0x01] GOTO 0x0946
101: 0x07E1 [0x02] IF !(ExtData[1]->WorkLocal[5] == 9*) GOTO 0x07F1
102: 0x07E9 [0x03] ExtData[1]->WorkLocal[18] = 0*
103: 0x07EE [0x01] GOTO 0x0946
104: 0x07F1 [0x02] IF !(ExtData[1]->WorkLocal[5] == 10*) GOTO 0x0801
105: 0x07F9 [0x03] ExtData[1]->WorkLocal[18] = 0*
106: 0x07FE [0x01] GOTO 0x0946
107: 0x0801 [0x02] IF !(ExtData[1]->WorkLocal[5] == 11*) GOTO 0x0811
108: 0x0809 [0x03] ExtData[1]->WorkLocal[18] = 0*
109: 0x080E [0x01] GOTO 0x0946
110: 0x0811 [0x02] IF !(ExtData[1]->WorkLocal[5] == 12*) GOTO 0x0821
111: 0x0819 [0x03] ExtData[1]->WorkLocal[18] = 0*
112: 0x081E [0x01] GOTO 0x0946
113: 0x0821 [0x02] IF !(ExtData[1]->WorkLocal[5] == 13*) GOTO 0x0831
114: 0x0829 [0x03] ExtData[1]->WorkLocal[18] = 0*
115: 0x082E [0x01] GOTO 0x0946
116: 0x0831 [0x02] IF !(ExtData[1]->WorkLocal[5] == 14*) GOTO 0x0841
117: 0x0839 [0x03] ExtData[1]->WorkLocal[18] = 0*
118: 0x083E [0x01] GOTO 0x0946
119: 0x0841 [0x02] IF !(ExtData[1]->WorkLocal[5] == 15*) GOTO 0x0851
120: 0x0849 [0x03] ExtData[1]->WorkLocal[18] = 0*
121: 0x084E [0x01] GOTO 0x0946
122: 0x0851 [0x02] IF !(ExtData[1]->WorkLocal[5] == 16*) GOTO 0x0861
123: 0x0859 [0x03] ExtData[1]->WorkLocal[18] = 0*
124: 0x085E [0x01] GOTO 0x0946
125: 0x0861 [0x02] IF !(ExtData[1]->WorkLocal[5] == 17*) GOTO 0x0871
126: 0x0869 [0x03] ExtData[1]->WorkLocal[18] = 0*
127: 0x086E [0x01] GOTO 0x0946
128: 0x0871 [0x02] IF !(ExtData[1]->WorkLocal[5] == 18*) GOTO 0x0881
129: 0x0879 [0x03] ExtData[1]->WorkLocal[18] = 0*
130: 0x087E [0x01] GOTO 0x0946
131: 0x0881 [0x02] IF !(ExtData[1]->WorkLocal[5] == 19*) GOTO 0x0891
132: 0x0889 [0x03] ExtData[1]->WorkLocal[18] = 0*
133: 0x088E [0x01] GOTO 0x0946
134: 0x0891 [0x02] IF !(ExtData[1]->WorkLocal[5] == 20*) GOTO 0x08A1
135: 0x0899 [0x03] ExtData[1]->WorkLocal[18] = 0*
136: 0x089E [0x01] GOTO 0x0946
137: 0x08A1 [0x02] IF !(ExtData[1]->WorkLocal[5] == 21*) GOTO 0x08B1
138: 0x08A9 [0x03] ExtData[1]->WorkLocal[18] = 0*
139: 0x08AE [0x01] GOTO 0x0946
140: 0x08B1 [0x02] IF !(ExtData[1]->WorkLocal[5] == 22*) GOTO 0x08C1
141: 0x08B9 [0x03] ExtData[1]->WorkLocal[18] = 0*
142: 0x08BE [0x01] GOTO 0x0946
143: 0x08C1 [0x02] IF !(ExtData[1]->WorkLocal[5] == 23*) GOTO 0x08D1
144: 0x08C9 [0x03] ExtData[1]->WorkLocal[18] = 0*
145: 0x08CE [0x01] GOTO 0x0946
146: 0x08D1 [0x02] IF !(ExtData[1]->WorkLocal[5] == 24*) GOTO 0x08E1
147: 0x08D9 [0x03] ExtData[1]->WorkLocal[18] = 0*
148: 0x08DE [0x01] GOTO 0x0946
149: 0x08E1 [0x02] IF !(ExtData[1]->WorkLocal[5] == 25*) GOTO 0x08F1
150: 0x08E9 [0x03] ExtData[1]->WorkLocal[18] = 0*
151: 0x08EE [0x01] GOTO 0x0946
152: 0x08F1 [0x02] IF !(ExtData[1]->WorkLocal[5] == 26*) GOTO 0x0901
153: 0x08F9 [0x03] ExtData[1]->WorkLocal[18] = 0*
154: 0x08FE [0x01] GOTO 0x0946
155: 0x0901 [0x02] IF !(ExtData[1]->WorkLocal[5] == 27*) GOTO 0x0911
156: 0x0909 [0x03] ExtData[1]->WorkLocal[18] = 0*
157: 0x090E [0x01] GOTO 0x0946
158: 0x0911 [0x02] IF !(ExtData[1]->WorkLocal[5] == 28*) GOTO 0x0921
159: 0x0919 [0x03] ExtData[1]->WorkLocal[18] = 0*
160: 0x091E [0x01] GOTO 0x0946
161: 0x0921 [0x02] IF !(ExtData[1]->WorkLocal[5] == 29*) GOTO 0x0931
162: 0x0929 [0x03] ExtData[1]->WorkLocal[18] = 0*
163: 0x092E [0x01] GOTO 0x0946
164: 0x0931 [0x02] IF !(ExtData[1]->WorkLocal[5] == 30*) GOTO 0x0941
165: 0x0939 [0x03] ExtData[1]->WorkLocal[18] = 0*
166: 0x093E [0x01] GOTO 0x0946
167: 0x0941 [0x03] ExtData[1]->WorkLocal[18] = 0*

SUBROUTINE_0946:
168: 0x0946 [0x02] IF !(ExtData[1]->WorkLocal[3] == 1*) GOTO 0x0961
169: 0x094E [0x5C] MUSIC_CONTROL: Set Idle (Day) music to song 143*
170: 0x0952 [0x5C] MUSIC_CONTROL: Set Idle (Night) music to song 143*
171: 0x0956 [0x5C] MUSIC_CONTROL: Set Combat (Solo) music to song 143*
172: 0x095A [0x5C] MUSIC_CONTROL: Set Combat (Party) music to song 143*
173: 0x095E [0x01] GOTO 0x0979
174: 0x0961 [0x02] IF !(ExtData[1]->WorkLocal[18] == 0*) GOTO 0x0979
175: 0x0969 [0x5C] MUSIC_CONTROL: Set Idle (Day) music to song 143*
176: 0x096D [0x5C] MUSIC_CONTROL: Set Idle (Night) music to song 143*
177: 0x0971 [0x5C] MUSIC_CONTROL: Set Combat (Solo) music to song 143*
178: 0x0975 [0x5C] MUSIC_CONTROL: Set Combat (Party) music to song 143*

SUBROUTINE_0979:
179: 0x0979 [0x02] IF !(ExtData[1]->WorkLocal[3] == 0*) GOTO 0x0987
180: 0x0981 [0x1A] CALL_SUBROUTINE(address=0x0EBB)
181: 0x0984 [0x01] GOTO 0x09C0
182: 0x0987 [0x6C] FADE_ENTITY_COLOR(entity_id=LocalPlayer, end_alpha=0*, fade_time=1*)
183: 0x0990 [0x62] LOAD_EVENT_SCHEDULER: Load scheduler "main" with entities [LocalPlayer, LocalPlayer], work=[2*, 0*]
184: 0x09A1 [0x45] LOAD_SCHEDULED_TASK: Load scheduler "ovl1" with entities [LocalPlayer, LocalPlayer], work=[200*, 0*]
185: 0x09B2 [0x46] CAMERA_CONTROL: Query status
186: 0x09B4 [0x10] 0x0200 <<= ExtData[1]->WorkLocal[16]
187: 0x09B9 [0x02] IF !(0x80 & 0x09C0) GOTO 0x0300
188: 0x09C1 [0x01] GOTO 0x4F10
189: 0x09C4 [0x80] LOAD_WAIT(entity=Unknown NPC (ID: 68157703/0x04100107))
190: 0x09C9 [0x00] END_REQSTACK()

SUBROUTINE_09D0:
191: 0x09D0 [0x0B] ExtData[1]->WorkLocal[1]++
192: 0x09D3 [0x02] IF !(0* == 1*) GOTO 0x09E0
193: 0x09DB [0x03] ExtData[1]->WorkLocal[1] = 2*
194: 0x09E0 [0x01] GOTO 0x0439
195: 0x09E3 [0x48] [System] [7452*]:
    → "You cannot enter the battlefield at present. Please wait a little longer."
196: 0x09E6 [0x23] WAIT_FOR_DIALOG_INTERACTION

SUBROUTINE_09E7:
197: 0x09E7 [0x45] LOAD_SCHEDULED_TASK: Load scheduler "whi1" with entities [LocalPlayer, LocalPlayer], work=[201*, 0*]
198: 0x09F8 [0x45] LOAD_SCHEDULED_TASK: Load scheduler "blof" with entities [LocalPlayer, LocalPlayer], work=[200*, 0*]
199: 0x0A09 [0x45] LOAD_SCHEDULED_TASK: Load scheduler "fdi0" with entities [LocalPlayer, LocalPlayer], work=[200*, 0*]

SUBROUTINE_0A1A:
200: 0x0A1A [0x02] IF !(ExtData[1]->WorkLocal[8] == 1*) GOTO 0x0A32
201: 0x0A22 [0x5C] MUSIC_CONTROL: Set Idle (Day) music to song 0*
202: 0x0A26 [0x5C] MUSIC_CONTROL: Set Idle (Night) music to song 0*
203: 0x0A2A [0x5C] MUSIC_CONTROL: Set Combat (Solo) music to song 143*
204: 0x0A2E [0x5C] MUSIC_CONTROL: Set Combat (Party) music to song 143*
205: 0x0A32 [0x21] END_EVENT
206: 0x0A33 [0x00] END_REQSTACK()

SUBROUTINE_0A34:
207: 0x0A34 [0x1B] RETURN
```

#### Data or dead code:

```
# Dead code (unreachable instructions):
     0x03AB [0x01] GOTO 0x03DA
     0x03D7 [0x01] GOTO 0x03DA
# Dead code (unreachable instructions):
     0x04D7 [0x01] GOTO 0x09D0
     0x04E9 [0x01] GOTO 0x09D0
# Dead code (unreachable instructions):
     0x06EB [0x01] GOTO 0x09D0
     0x06F9 [0x01] GOTO 0x09D0
# Dead code (unreachable instructions):
     0x09CA [0x01] GOTO 0x09E7
     0x09CD [0x01] GOTO 0x09D0
```

### Event 32002

#### Metadata

| Field        | Value     |
|--------------|-----------|
| Entrypoint   | 0x0A35    |
| Data Size    | 183 bytes |
| Instructions | 29        |

```
      00 01 02 03 04 05 06 07  08 09 0A 0B 0C 0D 0E 0F
      -- -- -- -- -- -- -- --  -- -- -- -- -- -- -- --
0A30:                03 06 00  06 10 03 1E 00 07 10 03       ...........
0A40: 1D 00 08 10 20 01 42 3B  F0 FF FF 7F 20 10 21 10  .... .B;.... .!.
0A50: 22 10 3A F0 FF FF 7F 23  10 45 01 80 F0 FF FF 7F  ".:....#.E......
0A60: F0 FF FF 7F 66 64 6F 31  02 80 55 01 80 F0 FF FF  ....fdo1..U.....
0A70: 7F F0 FF FF 7F 66 64 6F  31 02 02 80 0A 80 00 9B  .....fdo1.......
0A80: 0A 02 06 00 0A 80 80 98  0A 47 00 36 80 54 80 55  .........G.6.T.U
0A90: 80 56 80 47 01 01 98 0A  01 B2 0A 02 1D 00 57 80  .V.G..........W.
0AA0: 80 A6 0A 01 B2 0A 47 00  36 80 54 80 55 80 56 80  ......G.6.T.U.V.
0AB0: 47 01 38 33 80 1A E3 10  45 53 80 F0 FF FF 7F F0  G.83....ES......
0AC0: FF FF 7F 77 68 69 31 02  80 45 01 80 F0 FF FF 7F  ...whi1..E......
0AD0: F0 FF FF 7F 62 6C 6F 66  02 80 5C 00 02 80 5C 01  ....blof..\...\.
0AE0: 02 80 5C 02 51 80 5C 03  51 80 21 00              ..\.Q.\.Q.!.    
```

#### Opcodes

```
  0: 0x0A35 [0x03] ExtData[1]->WorkLocal[6] = Work_Zone[6]
  1: 0x0A3A [0x03] ExtData[1]->WorkLocal[30] = Work_Zone[7]
  2: 0x0A3F [0x03] ExtData[1]->WorkLocal[29] = Work_Zone[8]
  3: 0x0A44 [0x20] SET_CLI_EVENT_UC_FLAG: Lock player control
  4: 0x0A46 [0x42] SET_CLI_EVENT_CANCEL_DATA()
  5: 0x0A47 [0x3B] GET_ENTITY_POSITION(entity=LocalPlayer, x_destination=Work_Zone[32], y_destination=Work_Zone[33], z_destination=Work_Zone[34])
  6: 0x0A52 [0x3A] CONVERT_YAW_TO_BYTE(entity=LocalPlayer, result_destination=Work_Zone[35])
  7: 0x0A59 [0x45] LOAD_SCHEDULED_TASK: Load scheduler "fdo1" with entities [LocalPlayer, LocalPlayer], work=[200*, 0*]
  8: 0x0A6A [0x55] WAIT_LOAD_SCHEDULER: Wait for scheduler "fdo1" with entities [LocalPlayer, LocalPlayer], work=200*
  9: 0x0A79 [0x02] IF !(0* == 1*) GOTO 0x0A9B
 10: 0x0A81 [0x02] IF !(ExtData[1]->WorkLocal[6] == 1*) GOTO 0x0A98
 11: 0x0A89 [0x47] UPDATE_PLAYER_POS(300.000*, -382.000*, 18.900*, yaw=270.0°*)
 12: 0x0A93 [0x47] WAIT_PLAYER_POS_UPDATE
 13: 0x0A95 [0x01] GOTO 0x0A98

SUBROUTINE_0A98:
 14: 0x0A98 [0x01] GOTO 0x0AB2
 15: 0x0A9B [0x02] IF !(ExtData[1]->WorkLocal[29] == 999*) GOTO 0x0AA6
 16: 0x0AA3 [0x01] GOTO 0x0AB2
 17: 0x0AA6 [0x47] UPDATE_PLAYER_POS(300.000*, -382.000*, 18.900*, yaw=270.0°*)
 18: 0x0AB0 [0x47] WAIT_PLAYER_POS_UPDATE

SUBROUTINE_0AB2:
 19: 0x0AB2 [0x38] SET_CLIENT_EVENT_MODE(mode=19*)
 20: 0x0AB5 [0x1A] CALL_SUBROUTINE(address=0x10E3)
 21: 0x0AB8 [0x45] LOAD_SCHEDULED_TASK: Load scheduler "whi1" with entities [LocalPlayer, LocalPlayer], work=[201*, 0*]
 22: 0x0AC9 [0x45] LOAD_SCHEDULED_TASK: Load scheduler "blof" with entities [LocalPlayer, LocalPlayer], work=[200*, 0*]
 23: 0x0ADA [0x5C] MUSIC_CONTROL: Set Idle (Day) music to song 0*
 24: 0x0ADE [0x5C] MUSIC_CONTROL: Set Idle (Night) music to song 0*
 25: 0x0AE2 [0x5C] MUSIC_CONTROL: Set Combat (Solo) music to song 143*
 26: 0x0AE6 [0x5C] MUSIC_CONTROL: Set Combat (Party) music to song 143*
 27: 0x0AEA [0x21] END_EVENT
 28: 0x0AEB [0x00] END_REQSTACK()
```

### Event 32001

#### Metadata

| Field        | Value     |
|--------------|-----------|
| Entrypoint   | 0x0AEC    |
| Data Size    | 515 bytes |
| Instructions | 81        |

```
      00 01 02 03 04 05 06 07  08 09 0A 0B 0C 0D 0E 0F
      -- -- -- -- -- -- -- --  -- -- -- -- -- -- -- --
0AE0:                                      79 00 F0 FF              y...
0AF0: FF 7F F0 FF FF 7F 03 1E  00 02 10 03 17 00 03 10  ................
0B00: 03 18 00 05 10 03 1D 00  06 10 03 16 00 07 10 03  ................
0B10: 14 00 08 10 03 19 00 09  10 20 01 42 3B F0 FF FF  ......... .B;...
0B20: 7F 20 10 21 10 22 10 3A  F0 FF FF 7F 23 10 02 1D  . .!.".:....#...
0B30: 00 58 80 01 39 0B 1C 59  80 45 53 80 F0 FF FF 7F  .X..9..Y.ES.....
0B40: F0 FF FF 7F 77 68 69 31  02 80 45 01 80 F0 FF FF  ....whi1..E.....
0B50: 7F F0 FF FF 7F 62 6C 6F  66 02 80 45 01 80 F0 FF  .....blof..E....
0B60: FF 7F F0 FF FF 7F 66 64  6F 31 02 80 55 01 80 F0  ......fdo1..U...
0B70: FF FF 7F F0 FF FF 7F 66  64 6F 31 6C F0 FF FF 7F  .......fdo1l....
0B80: 5A 80 0A 80 06 01 10 02  14 00 02 80 03 92 0B 01  Z...............
0B90: A9 0B 02 1D 00 57 80 80  9D 0B 01 A9 0B 47 00 36  .....W.......G.6
0BA0: 80 54 80 55 80 56 80 47  01 38 33 80 02 14 00 0A  .T.U.V.G.83.....
0BB0: 80 00 0B 0C 1C 2C 80 24  50 80 0A 80 02 80 25 02  .....,.$P.....%.
0BC0: 00 10 02 80 00 0B 0C 37  36 80 54 80 55 80 56 80  .......76.T.U.V.
0BD0: 80 F0 FF FF 7F 62 0E 80  F0 FF FF 7F F0 FF FF 7F  .....b..........
0BE0: 6D 61 69 6E 02 80 45 01  80 F0 FF FF 7F F0 FF FF  main..E.........
0BF0: 7F 66 64 69 32 02 80 46  02 10 00 02 10 00 02 80  .fdi2..F........
0C00: 00 05 0C 46 00 01 32 0C  01 0B 0C 02 14 00 2F 80  ...F..2......./.
0C10: 04 24 0C 5C 00 51 80 5C  01 51 80 5C 02 51 80 5C  .$.\.Q.\.Q.\.Q.\
0C20: 03 51 80 9A 1A 8E 0F 02  14 00 02 80 03 32 0C 01  .Q...........2..
0C30: 87 0C 03 05 10 18 00 02  05 10 02 80 02 87 0C 02  ................
0C40: 05 10 05 80 04 56 0C 3F  04 10 05 10 05 80 15 05  .....V.?........
0C50: 10 05 80 01 56 0C 02 18  00 17 00 05 66 0C 03 07  ....V.......f...
0C60: 10 16 00 01 87 0C 02 17  00 05 80 04 82 0C 03 05  ................
0C70: 10 17 00 3F 04 10 05 10  05 80 15 05 10 05 80 01  ...?............
0C80: 87 0C 03 05 10 17 00 02  15 00 02 80 00 9F 0C 5C  ...............\
0C90: 00 02 80 5C 01 02 80 5C  02 51 80 5C 03 51 80 02  ...\...\.Q.\.Q..
0CA0: 14 00 02 80 03 C8 0C 45  01 80 F0 FF FF 7F F0 FF  .......E........
0CB0: FF 7F 66 64 69 32 02 80  5C 00 02 80 5C 01 02 80  ..fdi2..\...\...
0CC0: 5C 02 51 80 5C 03 51 80  06 15 00 45 53 80 F0 FF  \.Q.\.Q....ES...
0CD0: FF 7F F0 FF FF 7F 77 68  69 31 02 80 45 01 80 F0  ......whi1..E...
0CE0: FF FF 7F F0 FF FF 7F 62  6C 6F 66 02 80 21 00     .......blof..!. 
```

#### Opcodes

```
  0: 0x0AEC [0x79] LocalPlayer looks at LocalPlayer (Basic look)
  1: 0x0AF6 [0x03] ExtData[1]->WorkLocal[30] = Work_Zone[2]
  2: 0x0AFB [0x03] ExtData[1]->WorkLocal[23] = Work_Zone[3]
  3: 0x0B00 [0x03] ExtData[1]->WorkLocal[24] = Work_Zone[5]
  4: 0x0B05 [0x03] ExtData[1]->WorkLocal[29] = Work_Zone[6]
  5: 0x0B0A [0x03] ExtData[1]->WorkLocal[22] = Work_Zone[7]
  6: 0x0B0F [0x03] ExtData[1]->WorkLocal[20] = Work_Zone[8]
  7: 0x0B14 [0x03] ExtData[1]->WorkLocal[25] = Work_Zone[9]
  8: 0x0B19 [0x20] SET_CLI_EVENT_UC_FLAG: Lock player control
  9: 0x0B1B [0x42] SET_CLI_EVENT_CANCEL_DATA()
 10: 0x0B1C [0x3B] GET_ENTITY_POSITION(entity=LocalPlayer, x_destination=Work_Zone[32], y_destination=Work_Zone[33], z_destination=Work_Zone[34])
 11: 0x0B27 [0x3A] CONVERT_YAW_TO_BYTE(entity=LocalPlayer, result_destination=Work_Zone[35])
 12: 0x0B2E [0x02] IF !(ExtData[1]->WorkLocal[29] == 180*) GOTO 0x0B39
 13: 0x0B36 [0x1C] WAIT(300* ticks)
 14: 0x0B39 [0x45] LOAD_SCHEDULED_TASK: Load scheduler "whi1" with entities [LocalPlayer, LocalPlayer], work=[201*, 0*]
 15: 0x0B4A [0x45] LOAD_SCHEDULED_TASK: Load scheduler "blof" with entities [LocalPlayer, LocalPlayer], work=[200*, 0*]
 16: 0x0B5B [0x45] LOAD_SCHEDULED_TASK: Load scheduler "fdo1" with entities [LocalPlayer, LocalPlayer], work=[200*, 0*]
 17: 0x0B6C [0x55] WAIT_LOAD_SCHEDULER: Wait for scheduler "fdo1" with entities [LocalPlayer, LocalPlayer], work=200*
 18: 0x0B7B [0x6C] FADE_ENTITY_COLOR(entity_id=LocalPlayer, end_alpha=128*, fade_time=1*)
 19: 0x0B84 [0x06] Work_Zone[1] = 0
 20: 0x0B87 [0x02] IF !(ExtData[1]->WorkLocal[20] >= 0*) GOTO 0x0B92
 21: 0x0B8F [0x01] GOTO 0x0BA9
 22: 0x0B92 [0x02] IF !(ExtData[1]->WorkLocal[29] == 999*) GOTO 0x0B9D
 23: 0x0B9A [0x01] GOTO 0x0BA9
 24: 0x0B9D [0x47] UPDATE_PLAYER_POS(300.000*, -382.000*, 18.900*, yaw=270.0°*)
 25: 0x0BA7 [0x47] WAIT_PLAYER_POS_UPDATE

SUBROUTINE_0BA9:
 26: 0x0BA9 [0x38] SET_CLIENT_EVENT_MODE(mode=19*)
 27: 0x0BAC [0x02] IF !(ExtData[1]->WorkLocal[20] == 1*) GOTO 0x0C0B
 28: 0x0BB4 [0x1C] WAIT(15* ticks)
 29: 0x0BB7 [0x24] CREATE_DIALOG(message_id=7788*, default_option=1*, option_flags=0*)
    → "Skip the event? [Yes./No.]"
 30: 0x0BBE [0x25] WAIT_DIALOG_SELECT()
 31: 0x0BBF [0x02] IF !(Work_Zone[0] == 0*) GOTO 0x0C0B
 32: 0x0BC7 [0x37] UPDATE_EVENT_POSITION_AND_DIR: x=300.000*, z=-382.000*, y=18.900*, direction=270.0°*
 33: 0x0BD0 [0x80] LOAD_WAIT(entity=LocalPlayer)
 34: 0x0BD5 [0x62] LOAD_EVENT_SCHEDULER: Load scheduler "main" with entities [LocalPlayer, LocalPlayer], work=[2*, 0*]
 35: 0x0BE6 [0x45] LOAD_SCHEDULED_TASK: Load scheduler "fdi2" with entities [LocalPlayer, LocalPlayer], work=[200*, 0*]
 36: 0x0BF7 [0x46] CAMERA_CONTROL: Query status
 37: 0x0BF9 [0x10] 0x0200 <<= ExtData[1]->WorkLocal[16]
 38: 0x0BFE [0x02] IF !(0x80 & 0x0C05) GOTO 0x0100
 39: 0x0C06 [0x32] ExtData[1]->MainSpeed = 0x010C * 0.1
 40: 0x0C09 [0x0B] 0x020C++
 41: 0x0C0C [0x14] 0x2F00 *= 0x0480
 42: 0x0C11 [0x24] CREATE_DIALOG(message_id=0x5C0C, default_option=0x5100, option_flags=0x5C80)
 43: 0x0C18 [0x01] GOTO 0x8051
 44: 0x0C1B [0x5C] MUSIC_CONTROL: Set Combat (Solo) music to song 143*
 45: 0x0C1F [0x5C] MUSIC_CONTROL: Set Combat (Party) music to song 143*
 46: 0x0C23 [0x9A] WAIT_MUSIC_SERVER()
 47: 0x0C24 [0x1A] CALL_SUBROUTINE(address=0x0F8E)
 48: 0x0C27 [0x02] IF !(ExtData[1]->WorkLocal[20] >= 0*) GOTO 0x0C32
 49: 0x0C2F [0x01] GOTO 0x0C87
 50: 0x0C32 [0x03] Work_Zone[5] = ExtData[1]->WorkLocal[24]
 51: 0x0C37 [0x02] IF !(Work_Zone[5] <= 0*) GOTO 0x0C87
 52: 0x0C3F [0x02] IF !(Work_Zone[5] < 60*) GOTO 0x0C56
 53: 0x0C47 [0x3F] Work_Zone[4] = Work_Zone[5] % 60*
 54: 0x0C4E [0x15] Work_Zone[5] /= 60*
 55: 0x0C53 [0x01] GOTO 0x0C56

SUBROUTINE_0C56:
 56: 0x0C56 [0x02] IF !(ExtData[1]->WorkLocal[24] > ExtData[1]->WorkLocal[23]) GOTO 0x0C66
 57: 0x0C5E [0x03] Work_Zone[7] = ExtData[1]->WorkLocal[22]
 58: 0x0C63 [0x01] GOTO 0x0C87
 59: 0x0C66 [0x02] IF !(ExtData[1]->WorkLocal[23] < 60*) GOTO 0x0C82
 60: 0x0C6E [0x03] Work_Zone[5] = ExtData[1]->WorkLocal[23]
 61: 0x0C73 [0x3F] Work_Zone[4] = Work_Zone[5] % 60*
 62: 0x0C7A [0x15] Work_Zone[5] /= 60*
 63: 0x0C7F [0x01] GOTO 0x0C87
 64: 0x0C82 [0x03] Work_Zone[5] = ExtData[1]->WorkLocal[23]

SUBROUTINE_0C87:
 65: 0x0C87 [0x02] IF !(ExtData[1]->WorkLocal[21] == 0*) GOTO 0x0C9F
 66: 0x0C8F [0x5C] MUSIC_CONTROL: Set Idle (Day) music to song 0*
 67: 0x0C93 [0x5C] MUSIC_CONTROL: Set Idle (Night) music to song 0*
 68: 0x0C97 [0x5C] MUSIC_CONTROL: Set Combat (Solo) music to song 143*
 69: 0x0C9B [0x5C] MUSIC_CONTROL: Set Combat (Party) music to song 143*
 70: 0x0C9F [0x02] IF !(ExtData[1]->WorkLocal[20] >= 0*) GOTO 0x0CC8
 71: 0x0CA7 [0x45] LOAD_SCHEDULED_TASK: Load scheduler "fdi2" with entities [LocalPlayer, LocalPlayer], work=[200*, 0*]
 72: 0x0CB8 [0x5C] MUSIC_CONTROL: Set Idle (Day) music to song 0*
 73: 0x0CBC [0x5C] MUSIC_CONTROL: Set Idle (Night) music to song 0*
 74: 0x0CC0 [0x5C] MUSIC_CONTROL: Set Combat (Solo) music to song 143*
 75: 0x0CC4 [0x5C] MUSIC_CONTROL: Set Combat (Party) music to song 143*
 76: 0x0CC8 [0x06] ExtData[1]->WorkLocal[21] = 0
 77: 0x0CCB [0x45] LOAD_SCHEDULED_TASK: Load scheduler "whi1" with entities [LocalPlayer, LocalPlayer], work=[201*, 0*]
 78: 0x0CDC [0x45] LOAD_SCHEDULED_TASK: Load scheduler "blof" with entities [LocalPlayer, LocalPlayer], work=[200*, 0*]
 79: 0x0CED [0x21] END_EVENT
 80: 0x0CEE [0x00] END_REQSTACK()
```

### Event 32003

#### Metadata

| Field        | Value     |
|--------------|-----------|
| Entrypoint   | 0x0CEF    |
| Data Size    | 435 bytes |
| Instructions | 77        |

```
      00 01 02 03 04 05 06 07  08 09 0A 0B 0C 0D 0E 0F
      -- -- -- -- -- -- -- --  -- -- -- -- -- -- -- --
0CE0:                                               06                 .
0CF0: 1A 00 06 1B 00 03 1E 00  06 10 03 1D 00 07 10 03  ................
0D00: 1C 00 08 10 06 01 10 1A  18 10 02 1A 00 0A 80 00  ................
0D10: A0 0E 42 03 01 10 0E 80  43 00 43 01 03 01 10 10  ..B.....C.C.....
0D20: 80 43 00 43 01 1A 2F 10  02 1B 00 0A 80 00 A0 0E  .C.C../.........
0D30: 45 01 80 F0 FF FF 7F F0  FF FF 7F 66 64 6F 31 02  E..........fdo1.
0D40: 80 55 01 80 F0 FF FF 7F  F0 FF FF 7F 66 64 6F 31  .U..........fdo1
0D50: 03 01 10 34 80 02 1D 00  58 80 80 DF 0D 02 1E 00  ...4....X.......
0D60: 02 80 80 74 0D 47 00 5B  80 5C 80 5D 80 5E 80 47  ...t.G.[.\.].^.G
0D70: 01 01 DC 0D 02 1E 00 0A  80 80 8B 0D 47 00 5F 80  ............G._.
0D80: 60 80 61 80 62 80 47 01  01 DC 0D 02 1E 00 0E 80  `.a.b.G.........
0D90: 80 A2 0D 47 00 63 80 64  80 65 80 66 80 47 01 01  ...G.c.d.e.f.G..
0DA0: DC 0D 02 1E 00 10 80 80  B9 0D 47 00 67 80 68 80  ..........G.g.h.
0DB0: 69 80 6A 80 47 01 01 DC  0D 02 1E 00 34 80 80 D0  i.j.G.......4...
0DC0: 0D 47 00 6B 80 6C 80 6D  80 6E 80 47 01 01 DC 0D  .G.k.l.m.n.G....
0DD0: 47 00 36 80 54 80 55 80  56 80 47 01 01 5E 0E 02  G.6.T.U.V.G..^..
0DE0: 1D 00 3C 80 80 52 0E 02  1C 00 0A 80 80 FE 0D 47  ..<..R.........G
0DF0: 00 6F 80 70 80 71 80 72  80 47 01 01 4F 0E 02 1C  .o.p.q.r.G..O...
0E00: 00 0E 80 80 15 0E 47 00  73 80 74 80 75 80 76 80  ......G.s.t.u.v.
0E10: 47 01 01 4F 0E 02 1C 00  10 80 80 2C 0E 47 00 77  G..O.......,.G.w
0E20: 80 78 80 79 80 7A 80 47  01 01 4F 0E 02 1C 00 34  .x.y.z.G..O....4
0E30: 80 80 43 0E 47 00 7B 80  7C 80 7D 80 7E 80 47 01  ..C.G.{.|.}.~.G.
0E40: 01 4F 0E 47 00 36 80 54  80 55 80 56 80 47 01 01  .O.G.6.T.U.V.G..
0E50: 5E 0E 47 00 36 80 54 80  55 80 56 80 47 01 38 33  ^.G.6.T.U.V.G.83
0E60: 80 79 00 F0 FF FF 7F F0  FF FF 7F 1A 33 10 45 53  .y..........3.ES
0E70: 80 F0 FF FF 7F F0 FF FF  7F 77 68 69 31 02 80 45  .........whi1..E
0E80: 01 80 F0 FF FF 7F F0 FF  FF 7F 62 6C 6F 66 02 80  ..........blof..
0E90: 5C 00 02 80 5C 01 02 80  5C 02 51 80 5C 03 51 80  \...\...\.Q.\.Q.
0EA0: 21 00                                             !.              
```

#### Opcodes

```
  0: 0x0CEF [0x06] ExtData[1]->WorkLocal[26] = 0
  1: 0x0CF2 [0x06] ExtData[1]->WorkLocal[27] = 0
  2: 0x0CF5 [0x03] ExtData[1]->WorkLocal[30] = Work_Zone[6]
  3: 0x0CFA [0x03] ExtData[1]->WorkLocal[29] = Work_Zone[7]
  4: 0x0CFF [0x03] ExtData[1]->WorkLocal[28] = Work_Zone[8]
  5: 0x0D04 [0x06] Work_Zone[1] = 0
  6: 0x0D07 [0x1A] CALL_SUBROUTINE(address=0x1018)
  7: 0x0D0A [0x02] IF !(ExtData[1]->WorkLocal[26] == 1*) GOTO 0x0EA0
  8: 0x0D12 [0x42] SET_CLI_EVENT_CANCEL_DATA()
  9: 0x0D13 [0x03] Work_Zone[1] = 2*
 10: 0x0D18 [0x43] SEND_EVENT_UPDATE: Send pending tag to server (packet 0x005B)
 11: 0x0D1A [0x43] SEND_EVENT_UPDATE: Check pending flag (skip if not pending)
 12: 0x0D1C [0x03] Work_Zone[1] = 3*
 13: 0x0D21 [0x43] SEND_EVENT_UPDATE: Send pending tag to server (packet 0x005B)
 14: 0x0D23 [0x43] SEND_EVENT_UPDATE: Check pending flag (skip if not pending)
 15: 0x0D25 [0x1A] CALL_SUBROUTINE(address=0x102F)
 16: 0x0D28 [0x02] IF !(ExtData[1]->WorkLocal[27] == 1*) GOTO 0x0EA0
 17: 0x0D30 [0x45] LOAD_SCHEDULED_TASK: Load scheduler "fdo1" with entities [LocalPlayer, LocalPlayer], work=[200*, 0*]
 18: 0x0D41 [0x55] WAIT_LOAD_SCHEDULER: Wait for scheduler "fdo1" with entities [LocalPlayer, LocalPlayer], work=200*
 19: 0x0D50 [0x03] Work_Zone[1] = 4*
 20: 0x0D55 [0x02] IF !(ExtData[1]->WorkLocal[29] == 180*) GOTO 0x0DDF
 21: 0x0D5D [0x02] IF !(ExtData[1]->WorkLocal[30] == 0*) GOTO 0x0D74
 22: 0x0D65 [0x47] UPDATE_PLAYER_POS(-605.141*, 479.929*, -22.681*, yaw=87.2°*)
 23: 0x0D6F [0x47] WAIT_PLAYER_POS_UPDATE
 24: 0x0D71 [0x01] GOTO 0x0DDC
 25: 0x0D74 [0x02] IF !(ExtData[1]->WorkLocal[30] == 1*) GOTO 0x0D8B
 26: 0x0D7C [0x47] UPDATE_PLAYER_POS(-262.589*, 377.857*, -137.313*, yaw=305.3°*)
 27: 0x0D86 [0x47] WAIT_PLAYER_POS_UPDATE
 28: 0x0D88 [0x01] GOTO 0x0DDC
 29: 0x0D8B [0x02] IF !(ExtData[1]->WorkLocal[30] == 2*) GOTO 0x0DA2
 30: 0x0D93 [0x47] UPDATE_PLAYER_POS(18.348*, 486.940*, -224.334*, yaw=17.1°*)
 31: 0x0D9D [0x47] WAIT_PLAYER_POS_UPDATE
 32: 0x0D9F [0x01] GOTO 0x0DDC
 33: 0x0DA2 [0x02] IF !(ExtData[1]->WorkLocal[30] == 3*) GOTO 0x0DB9
 34: 0x0DAA [0x47] UPDATE_PLAYER_POS(231.593*, 360.094*, -173.572*, yaw=160.8°*)
 35: 0x0DB4 [0x47] WAIT_PLAYER_POS_UPDATE
 36: 0x0DB6 [0x01] GOTO 0x0DDC
 37: 0x0DB9 [0x02] IF !(ExtData[1]->WorkLocal[30] == 4*) GOTO 0x0DD0
 38: 0x0DC1 [0x47] UPDATE_PLAYER_POS(553.664*, 523.939*, -38.205*, yaw=233.9°*)
 39: 0x0DCB [0x47] WAIT_PLAYER_POS_UPDATE
 40: 0x0DCD [0x01] GOTO 0x0DDC
 41: 0x0DD0 [0x47] UPDATE_PLAYER_POS(300.000*, -382.000*, 18.900*, yaw=270.0°*)
 42: 0x0DDA [0x47] WAIT_PLAYER_POS_UPDATE

SUBROUTINE_0DDC:
 43: 0x0DDC [0x01] GOTO 0x0E5E
 44: 0x0DDF [0x02] IF !(ExtData[1]->WorkLocal[29] == 6*) GOTO 0x0E52
 45: 0x0DE7 [0x02] IF !(ExtData[1]->WorkLocal[28] == 1*) GOTO 0x0DFE
 46: 0x0DEF [0x47] UPDATE_PLAYER_POS(-875.117*, -43.892*, -48.084*, yaw=45.1°*)
 47: 0x0DF9 [0x47] WAIT_PLAYER_POS_UPDATE
 48: 0x0DFB [0x01] GOTO 0x0E4F
 49: 0x0DFE [0x02] IF !(ExtData[1]->WorkLocal[28] == 2*) GOTO 0x0E15
 50: 0x0E06 [0x47] UPDATE_PLAYER_POS(-755.499*, 563.947*, -112.035*, yaw=313.5°*)
 51: 0x0E10 [0x47] WAIT_PLAYER_POS_UPDATE
 52: 0x0E12 [0x01] GOTO 0x0E4F
 53: 0x0E15 [0x02] IF !(ExtData[1]->WorkLocal[28] == 3*) GOTO 0x0E2C
 54: 0x0E1D [0x47] UPDATE_PLAYER_POS(123.251*, 754.209*, -172.124*, yaw=38.7°*)
 55: 0x0E27 [0x47] WAIT_PLAYER_POS_UPDATE
 56: 0x0E29 [0x01] GOTO 0x0E4F
 57: 0x0E2C [0x02] IF !(ExtData[1]->WorkLocal[28] == 4*) GOTO 0x0E43
 58: 0x0E34 [0x47] UPDATE_PLAYER_POS(-516.404*, -803.323*, 24.206*, yaw=38.4°*)
 59: 0x0E3E [0x47] WAIT_PLAYER_POS_UPDATE
 60: 0x0E40 [0x01] GOTO 0x0E4F
 61: 0x0E43 [0x47] UPDATE_PLAYER_POS(300.000*, -382.000*, 18.900*, yaw=270.0°*)
 62: 0x0E4D [0x47] WAIT_PLAYER_POS_UPDATE

SUBROUTINE_0E4F:
 63: 0x0E4F [0x01] GOTO 0x0E5E
 64: 0x0E52 [0x47] UPDATE_PLAYER_POS(300.000*, -382.000*, 18.900*, yaw=270.0°*)
 65: 0x0E5C [0x47] WAIT_PLAYER_POS_UPDATE

SUBROUTINE_0E5E:
 66: 0x0E5E [0x38] SET_CLIENT_EVENT_MODE(mode=19*)
 67: 0x0E61 [0x79] LocalPlayer looks at LocalPlayer (Basic look)
 68: 0x0E6B [0x1A] CALL_SUBROUTINE(address=0x1033)
 69: 0x0E6E [0x45] LOAD_SCHEDULED_TASK: Load scheduler "whi1" with entities [LocalPlayer, LocalPlayer], work=[201*, 0*]
 70: 0x0E7F [0x45] LOAD_SCHEDULED_TASK: Load scheduler "blof" with entities [LocalPlayer, LocalPlayer], work=[200*, 0*]
 71: 0x0E90 [0x5C] MUSIC_CONTROL: Set Idle (Day) music to song 0*
 72: 0x0E94 [0x5C] MUSIC_CONTROL: Set Idle (Night) music to song 0*
 73: 0x0E98 [0x5C] MUSIC_CONTROL: Set Combat (Solo) music to song 143*
 74: 0x0E9C [0x5C] MUSIC_CONTROL: Set Combat (Party) music to song 143*
 75: 0x0EA0 [0x21] END_EVENT
 76: 0x0EA1 [0x00] END_REQSTACK()
```

### Event 32004

#### Metadata

| Field        | Value     |
|--------------|-----------|
| Entrypoint   | 0x0EA2    |
| Data Size    | 857 bytes |
| Instructions | 2         |

```
      00 01 02 03 04 05 06 07  08 09 0A 0B 0C 0D 0E 0F
      -- -- -- -- -- -- -- --  -- -- -- -- -- -- -- --
0EA0:       21 00 24 31 80 0A  80 02 80 25 02 00 10 02    !.$1.....%....
0EB0: 80 00 BA 0E 05 02 00 01  BA 0E 1B 02 04 00 2E 80  ................
0EC0: 80 C6 0E 01 8D 0F 79 00  F0 FF FF 7F F0 FF FF 7F  ......y.........
0ED0: 42 46 01 37 26 80 27 80  28 80 29 80 1C 3F 80 45  BF.7&.'.(.)..?.E
0EE0: 7F 80 F0 FF FF 7F F0 FF  FF 7F 62 63 36 32 02 80  ..........bc62..
0EF0: 1C 3F 80 45 01 80 F0 FF  FF 7F F0 FF FF 7F 66 64  .?.E..........fd
0F00: 69 31 02 80 48 80 80 23  27 03 0D E2 03 01 03 1C  i1..H..#'.......
0F10: 81 80 27 04 0D E2 03 01  04 32 17 80 1F 00 2A 80  ..'......2....*.
0F20: 2B 80 28 80 1F 01 2A 04  0D E2 03 01 03 02 10 82  +.(...*.........
0F30: 80 03 03 10 83 80 48 84  80 23 92 01 F0 FF FF 7F  ......H..#......
0F40: 02 01 00 0A 80 80 54 0F  37 36 80 37 80 38 80 29  ......T.76.7.8.)
0F50: 80 01 54 0F 45 85 80 F0  FF FF 7F F0 FF FF 7F 62  ..T.E..........b
0F60: 61 63 6B 02 80 45 01 80  F0 FF FF 7F F0 FF FF 7F  ack..E..........
0F70: 66 64 69 31 02 80 55 01  80 F0 FF FF 7F F0 FF FF  fdi1..U.........
0F80: 7F 66 64 69 31 92 00 F0  FF FF 7F 46 00 1B 02 16  .fdi1......F....
0F90: 00 2E 80 80 99 0F 01 17  10 46 01 45 01 80 F0 FF  .........F.E....
0FA0: FF 7F F0 FF FF 7F 66 64  6F 32 02 80 55 01 80 F0  ......fdo2..U...
0FB0: FF FF 7F F0 FF FF 7F 66  64 6F 32 92 01 F0 FF FF  .......fdo2.....
0FC0: 7F 37 36 80 54 80 55 80  56 80 1A 54 11 1C 3F 80  .76.T.U.V..T..?.
0FD0: 5C 00 02 80 5C 01 02 80  5C 02 86 80 5C 03 87 80  \...\...\...\...
0FE0: 9A 45 01 80 F0 FF FF 7F  F0 FF FF 7F 66 64 69 31  .E..........fdi1
0FF0: 02 80 55 01 80 F0 FF FF  7F F0 FF FF 7F 66 64 69  ..U..........fdi
1000: 31 62 0E 80 F0 FF FF 7F  F0 FF FF 7F 6D 61 69 6E  1b..........main
1010: 02 80 1C 0B 80 46 00 1B  24 88 80 0A 80 02 80 25  .....F..$......%
1020: 02 00 10 02 80 00 2E 10  05 1A 00 01 2E 10 1B 05  ................
1030: 1B 00 1B 46 01 37 36 80  89 80 8A 80 56 80 1A 54  ...F.76.....V..T
1040: 11 1C 0A 80 45 01 80 F0  FF FF 7F F0 FF FF 7F 66  ....E..........f
1050: 64 69 31 02 80 62 0A 80  F0 FF FF 7F F0 FF FF 7F  di1..b..........
1060: 6D 61 69 6E 02 80 1C 05  80 45 01 80 F0 FF FF 7F  main.....E......
1070: F0 FF FF 7F 66 64 6F 32  02 80 55 01 80 F0 FF FF  ....fdo2..U.....
1080: 7F F0 FF FF 7F 66 64 6F  32 92 01 F0 FF FF 7F 37  .....fdo2......7
1090: 36 80 54 80 55 80 56 80  1A 54 11 5C 00 02 80 5C  6.T.U.V..T.\...\
10A0: 01 02 80 5C 02 86 80 5C  03 87 80 9A 45 01 80 F0  ...\...\....E...
10B0: FF FF 7F F0 FF FF 7F 66  64 69 31 02 80 55 01 80  .......fdi1..U..
10C0: F0 FF FF 7F F0 FF FF 7F  66 64 69 31 62 0E 80 F0  ........fdi1b...
10D0: FF FF 7F F0 FF FF 7F 6D  61 69 6E 02 80 1C 0B 80  .......main.....
10E0: 46 00 1B 6C F0 FF FF 7F  02 80 0A 80 46 01 92 01  F..l........F...
10F0: F0 FF FF 7F 37 36 80 54  80 55 80 56 80 1A 54 11  ....76.T.U.V..T.
1100: 5C 00 02 80 5C 01 02 80  5C 02 86 80 5C 03 87 80  \...\...\...\...
1110: 9A 45 01 80 F0 FF FF 7F  F0 FF FF 7F 66 64 69 31  .E..........fdi1
1120: 02 80 55 01 80 F0 FF FF  7F F0 FF FF 7F 66 64 69  ..U..........fdi
1130: 31 62 0E 80 F0 FF FF 7F  F0 FF FF 7F 6D 61 69 6E  1b..........main
1140: 02 80 1C 0B 80 46 00 1B  02 04 00 02 80 80 53 11  .....F........S.
1150: 01 53 11 1B 6C F0 FF FF  7F 5A 80 0A 80 1C 0A 80  .S..l....Z......
1160: 45 85 80 F0 FF FF 7F F0  FF FF 7F 62 61 63 6B 02  E..........back.
1170: 80 1C 0A 80 6C F0 FF FF  7F 02 80 0A 80 1B 02 01  ....l...........
1180: 00 0A 80 80 9D 11 03 0A  00 36 80 03 0B 00 37 80  .........6....7.
1190: 03 0C 00 38 80 03 0D 00  29 80 01 FA 11 02 01 00  ...8....).......
11A0: 0E 80 80 BC 11 03 0A 00  02 80 03 0B 00 02 80 03  ................
11B0: 0C 00 02 80 03 0D 00 02  80 01 FA 11 02 01 00 10  ................
11C0: 80 80 DB 11 03 0A 00 02  80 03 0B 00 02 80 03 0C  ................
11D0: 00 02 80 03 0D 00 02 80  01 FA 11 02 01 00 34 80  ..............4.
11E0: 80 FA 11 03 0A 00 02 80  03 0B 00 02 80 03 0C 00  ................
11F0: 02 80 03 0D 00 02 80 01  FA 11 1B                 ...........     
```

#### Opcodes

```
  0: 0x0EA2 [0x21] END_EVENT
  1: 0x0EA3 [0x00] END_REQSTACK()
```

#### Data or dead code:

```
# Dead code (unreachable instructions):
     0x0EA4 [0x24] CREATE_DIALOG(message_id=7449*, default_option=1*, option_flags=0*)
    → "Enter the battlefield? [Enter./Decline.]"
     0x0EAB [0x25] WAIT_DIALOG_SELECT()
     0x0EAC [0x02] IF !(Work_Zone[0] == 0*) GOTO 0x0EBA
     0x0EB4 [0x05] ExtData[1]->WorkLocal[2] = 1
     0x0EB7 [0x01] GOTO 0x0EBA
     0x0EBA [0x1B] RETURN
     0x0EBB [0x02] IF !(ExtData[1]->WorkLocal[4] == 31*) GOTO 0x0EC6
     0x0EC3 [0x01] GOTO 0x0F8D
     0x0EC6 [0x79] LocalPlayer looks at LocalPlayer (Basic look)
     0x0ED0 [0x42] SET_CLI_EVENT_CANCEL_DATA()
     0x0ED1 [0x46] CAMERA_CONTROL: Disable user control
     0x0ED3 [0x37] UPDATE_EVENT_POSITION_AND_DIR: x=300.005*, z=-398.276*, y=19.999*, direction=90.0°*
     0x0EDC [0x1C] WAIT(10* ticks)
     0x0EDF [0x45] LOAD_SCHEDULED_TASK: Load scheduler "bc62" with entities [LocalPlayer, LocalPlayer], work=[217*, 0*]
     0x0EF0 [0x1C] WAIT(10* ticks)
     0x0EF3 [0x45] LOAD_SCHEDULED_TASK: Load scheduler "fdi1" with entities [LocalPlayer, LocalPlayer], work=[200*, 0*]
     0x0F04 [0x48] [System] [7910*]:
    → "You rap on the gate using the pattern you see on the two musical scores. After a time, you hear the creaking sound of a heavy bar being lifted on the other side of the gate..."
     0x0F07 [0x23] WAIT_FOR_DIALOG_INTERACTION
     0x0F08 [0x27] REQ_SET(priority=0x03, entity_id=Decorative Bronze Gate (ID: 17031693/0x0103E20D), tag_num=0x03)
     0x0F0F [0x1C] WAIT(90* ticks)
     0x0F12 [0x27] REQ_SET(priority=0x04, entity_id=Decorative Bronze Gate (ID: 17031693/0x0103E20D), tag_num=0x04)
     0x0F19 [0x32] ExtData[1]->MainSpeed = 13* * 0.1
     0x0F1C [0x1F] MOVE_ENTITY: EventEntity moves to X=299.989*, Z=-403.495*, Y=19.999*
     0x0F24 [0x1F] MOVE_ENTITY: Update entity position (mode=1)
     0x0F26 [0x2A] GET_REQ_LEVEL(level=4, entity_id=Decorative Bronze Gate (ID: 17031693/0x0103E20D))
     0x0F2C [0x03] Work_Zone[2] = 801*
     0x0F31 [0x03] Work_Zone[3] = 802*
     0x0F36 [0x48] [System] [7911*]:
    → "The pictographs on the $3 and $3 fade away without a trace..."
     0x0F39 [0x23] WAIT_FOR_DIALOG_INTERACTION
     0x0F3A [0x92] LocalPlayer->Render.Flags3 ^= 0x01
     0x0F40 [0x02] IF !(ExtData[1]->WorkLocal[1] == 1*) GOTO 0x0F54
     0x0F48 [0x37] UPDATE_EVENT_POSITION_AND_DIR: x=300.000*, z=-406.000*, y=19.600*, direction=90.0°*
     0x0F51 [0x01] GOTO 0x0F54
     0x0F54 [0x45] LOAD_SCHEDULED_TASK: Load scheduler "back" with entities [LocalPlayer, LocalPlayer], work=[108*, 0*]
     0x0F65 [0x45] LOAD_SCHEDULED_TASK: Load scheduler "fdi1" with entities [LocalPlayer, LocalPlayer], work=[200*, 0*]
     0x0F76 [0x55] WAIT_LOAD_SCHEDULER: Wait for scheduler "fdi1" with entities [LocalPlayer, LocalPlayer], work=200*
     0x0F85 [0x92] LocalPlayer->Render.Flags3 = Flags3  // No change (flag=0)
     0x0F8B [0x46] CAMERA_CONTROL: Restore default settings
     0x0F8D [0x1B] RETURN
     0x0F8E [0x02] IF !(ExtData[1]->WorkLocal[22] == 31*) GOTO 0x0F99
     0x0F96 [0x01] GOTO 0x1017
     0x0F99 [0x46] CAMERA_CONTROL: Disable user control
     0x0F9B [0x45] LOAD_SCHEDULED_TASK: Load scheduler "fdo2" with entities [LocalPlayer, LocalPlayer], work=[200*, 0*]
     0x0FAC [0x55] WAIT_LOAD_SCHEDULER: Wait for scheduler "fdo2" with entities [LocalPlayer, LocalPlayer], work=200*
     0x0FBB [0x92] LocalPlayer->Render.Flags3 ^= 0x01
     0x0FC1 [0x37] UPDATE_EVENT_POSITION_AND_DIR: x=300.000*, z=-382.000*, y=18.900*, direction=270.0°*
     0x0FCA [0x1A] CALL_SUBROUTINE(address=0x1154)
     0x0FCD [0x1C] WAIT(10* ticks)
     0x0FD0 [0x5C] MUSIC_CONTROL: Set Idle (Day) music to song 0*
     0x0FD4 [0x5C] MUSIC_CONTROL: Set Idle (Night) music to song 0*
     0x0FD8 [0x5C] MUSIC_CONTROL: Set Combat (Solo) music to song 115*
     0x0FDC [0x5C] MUSIC_CONTROL: Set Combat (Party) music to song 139*
     0x0FE0 [0x9A] WAIT_MUSIC_SERVER()
     0x0FE1 [0x45] LOAD_SCHEDULED_TASK: Load scheduler "fdi1" with entities [LocalPlayer, LocalPlayer], work=[200*, 0*]
     0x0FF2 [0x55] WAIT_LOAD_SCHEDULER: Wait for scheduler "fdi1" with entities [LocalPlayer, LocalPlayer], work=200*
     0x1001 [0x62] LOAD_EVENT_SCHEDULER: Load scheduler "main" with entities [LocalPlayer, LocalPlayer], work=[2*, 0*]
     0x1012 [0x1C] WAIT(120* ticks)
     0x1015 [0x46] CAMERA_CONTROL: Restore default settings
     0x1017 [0x1B] RETURN
     0x1018 [0x24] CREATE_DIALOG(message_id=7450*, default_option=1*, option_flags=0*)
    → "Leave the battlefield? [Run away./Stay.]"
     0x101F [0x25] WAIT_DIALOG_SELECT()
     0x1020 [0x02] IF !(Work_Zone[0] == 0*) GOTO 0x102E
     0x1028 [0x05] ExtData[1]->WorkLocal[26] = 1
     0x102B [0x01] GOTO 0x102E
     0x102E [0x1B] RETURN
     0x102F [0x05] ExtData[1]->WorkLocal[27] = 1
     0x1032 [0x1B] RETURN
     0x1033 [0x46] CAMERA_CONTROL: Disable user control
     0x1035 [0x37] UPDATE_EVENT_POSITION_AND_DIR: x=300.000*, z=-404.000*, y=19.500*, direction=270.0°*
     0x103E [0x1A] CALL_SUBROUTINE(address=0x1154)
     0x1041 [0x1C] WAIT(1* ticks)
     0x1044 [0x45] LOAD_SCHEDULED_TASK: Load scheduler "fdi1" with entities [LocalPlayer, LocalPlayer], work=[200*, 0*]
     0x1055 [0x62] LOAD_EVENT_SCHEDULER: Load scheduler "main" with entities [LocalPlayer, LocalPlayer], work=[1*, 0*]
     0x1066 [0x1C] WAIT(60* ticks)
     0x1069 [0x45] LOAD_SCHEDULED_TASK: Load scheduler "fdo2" with entities [LocalPlayer, LocalPlayer], work=[200*, 0*]
     0x107A [0x55] WAIT_LOAD_SCHEDULER: Wait for scheduler "fdo2" with entities [LocalPlayer, LocalPlayer], work=200*
     0x1089 [0x92] LocalPlayer->Render.Flags3 ^= 0x01
     0x108F [0x37] UPDATE_EVENT_POSITION_AND_DIR: x=300.000*, z=-382.000*, y=18.900*, direction=270.0°*
     0x1098 [0x1A] CALL_SUBROUTINE(address=0x1154)
     0x109B [0x5C] MUSIC_CONTROL: Set Idle (Day) music to song 0*
     0x109F [0x5C] MUSIC_CONTROL: Set Idle (Night) music to song 0*
     0x10A3 [0x5C] MUSIC_CONTROL: Set Combat (Solo) music to song 115*
     0x10A7 [0x5C] MUSIC_CONTROL: Set Combat (Party) music to song 139*
     0x10AB [0x9A] WAIT_MUSIC_SERVER()
     0x10AC [0x45] LOAD_SCHEDULED_TASK: Load scheduler "fdi1" with entities [LocalPlayer, LocalPlayer], work=[200*, 0*]
     0x10BD [0x55] WAIT_LOAD_SCHEDULER: Wait for scheduler "fdi1" with entities [LocalPlayer, LocalPlayer], work=200*
     0x10CC [0x62] LOAD_EVENT_SCHEDULER: Load scheduler "main" with entities [LocalPlayer, LocalPlayer], work=[2*, 0*]
     0x10DD [0x1C] WAIT(120* ticks)
     0x10E0 [0x46] CAMERA_CONTROL: Restore default settings
     0x10E2 [0x1B] RETURN
     0x10E3 [0x6C] FADE_ENTITY_COLOR(entity_id=LocalPlayer, end_alpha=0*, fade_time=1*)
     0x10EC [0x46] CAMERA_CONTROL: Disable user control
     0x10EE [0x92] LocalPlayer->Render.Flags3 ^= 0x01
     0x10F4 [0x37] UPDATE_EVENT_POSITION_AND_DIR: x=300.000*, z=-382.000*, y=18.900*, direction=270.0°*
     0x10FD [0x1A] CALL_SUBROUTINE(address=0x1154)
     0x1100 [0x5C] MUSIC_CONTROL: Set Idle (Day) music to song 0*
     0x1104 [0x5C] MUSIC_CONTROL: Set Idle (Night) music to song 0*
     0x1108 [0x5C] MUSIC_CONTROL: Set Combat (Solo) music to song 115*
     0x110C [0x5C] MUSIC_CONTROL: Set Combat (Party) music to song 139*
     0x1110 [0x9A] WAIT_MUSIC_SERVER()
     0x1111 [0x45] LOAD_SCHEDULED_TASK: Load scheduler "fdi1" with entities [LocalPlayer, LocalPlayer], work=[200*, 0*]
     0x1122 [0x55] WAIT_LOAD_SCHEDULER: Wait for scheduler "fdi1" with entities [LocalPlayer, LocalPlayer], work=200*
     0x1131 [0x62] LOAD_EVENT_SCHEDULER: Load scheduler "main" with entities [LocalPlayer, LocalPlayer], work=[2*, 0*]
     0x1142 [0x1C] WAIT(120* ticks)
     0x1145 [0x46] CAMERA_CONTROL: Restore default settings
     0x1147 [0x1B] RETURN
     0x1148 [0x02] IF !(ExtData[1]->WorkLocal[4] == 0*) GOTO 0x1153
     0x1150 [0x01] GOTO 0x1153
     0x1153 [0x1B] RETURN
     0x1154 [0x6C] FADE_ENTITY_COLOR(entity_id=LocalPlayer, end_alpha=128*, fade_time=1*)
     0x115D [0x1C] WAIT(1* ticks)
     0x1160 [0x45] LOAD_SCHEDULED_TASK: Load scheduler "back" with entities [LocalPlayer, LocalPlayer], work=[108*, 0*]
     0x1171 [0x1C] WAIT(1* ticks)
     0x1174 [0x6C] FADE_ENTITY_COLOR(entity_id=LocalPlayer, end_alpha=0*, fade_time=1*)
     0x117D [0x1B] RETURN
     0x117E [0x02] IF !(ExtData[1]->WorkLocal[1] == 1*) GOTO 0x119D
     0x1186 [0x03] ExtData[1]->WorkLocal[10] = 300000*
     0x118B [0x03] ExtData[1]->WorkLocal[11] = 4294561296*
     0x1190 [0x03] ExtData[1]->WorkLocal[12] = 19600*
     0x1195 [0x03] ExtData[1]->WorkLocal[13] = 1024*
     0x119A [0x01] GOTO 0x11FA
     0x119D [0x02] IF !(ExtData[1]->WorkLocal[1] == 2*) GOTO 0x11BC
     0x11A5 [0x03] ExtData[1]->WorkLocal[10] = 0*
     0x11AA [0x03] ExtData[1]->WorkLocal[11] = 0*
     0x11AF [0x03] ExtData[1]->WorkLocal[12] = 0*
     0x11B4 [0x03] ExtData[1]->WorkLocal[13] = 0*
     0x11B9 [0x01] GOTO 0x11FA
     0x11BC [0x02] IF !(ExtData[1]->WorkLocal[1] == 3*) GOTO 0x11DB
     0x11C4 [0x03] ExtData[1]->WorkLocal[10] = 0*
     0x11C9 [0x03] ExtData[1]->WorkLocal[11] = 0*
     0x11CE [0x03] ExtData[1]->WorkLocal[12] = 0*
     0x11D3 [0x03] ExtData[1]->WorkLocal[13] = 0*
     0x11D8 [0x01] GOTO 0x11FA
     0x11DB [0x02] IF !(ExtData[1]->WorkLocal[1] == 4*) GOTO 0x11FA
     0x11E3 [0x03] ExtData[1]->WorkLocal[10] = 0*
     0x11E8 [0x03] ExtData[1]->WorkLocal[11] = 0*
     0x11ED [0x03] ExtData[1]->WorkLocal[12] = 0*
     0x11F2 [0x03] ExtData[1]->WorkLocal[13] = 0*
     0x11F7 [0x01] GOTO 0x11FA
     0x11FA [0x1B] RETURN
```
