# Event 3514

## Metadata

| Field           | Value    |
|-----------------|----------|
| Event Index     | 8/9      |
| Offset          | 0x19C9   |
| Data Size       | 38 bytes |
| Calculated Size | 38 bytes |
| Instructions    | 9        |

```
      00 01 02 03 04 05 06 07  08 09 0A 0B 0C 0D 0E 0F
      -- -- -- -- -- -- -- --  -- -- -- -- -- -- -- --
19C0:                             4A A1 62 0E 01 F0 FF           J.b....
19D0: FF 7F 02 02 10 56 80 00  E5 19 2B A1 62 0E 01 7A  .....V....+.b..z
19E0: 80 23 01 ED 19 2B A1 62  0E 01 7B 80 23 21 00     .#...+.b..{.#!. 
```

## Opcodes

```
  0: 0x19C9 [0x4A] Spriggan Graverobber (ID: 17719969/0x010E62A1) looks at LocalPlayer
  1: 0x19D2 [0x02] IF !(Work_Zone[2] == 1*) GOTO 0x19E5
  2: 0x19DA [0x2B] Spriggan Graverobber (ID: 17719969/0x010E62A1) [15371*]:
    → "Give shiny rock! Shiiiny. Shiiiiiiny!\u007F1\u0000\u0007"
  3: 0x19E1 [0x23] WAIT_FOR_DIALOG_INTERACTION
  4: 0x19E2 [0x01] GOTO 0x19ED

SUBROUTINE_19E5:
  5: 0x19E5 [0x2B] Spriggan Graverobber (ID: 17719969/0x010E62A1) [15370*]:
    → "Here where?\u007F1\u0000\u0007"
  6: 0x19EC [0x23] WAIT_FOR_DIALOG_INTERACTION
  7: 0x19ED [0x21] END_EVENT
  8: 0x19EE [0x00] END_REQSTACK()
```
