# Event 65535

## Metadata

| Field           | Value    |
|-----------------|----------|
| Event Index     | 32/35    |
| Offset          | 0x0205   |
| Data Size       | 50 bytes |
| Calculated Size | 50 bytes |
| Instructions    | 11       |

```
      00 01 02 03 04 05 06 07  08 09 0A 0B 0C 0D 0E 0F
      -- -- -- -- -- -- -- --  -- -- -- -- -- -- -- --
0200:                59 04 F8  FF FF 7F 34 80 1F 00 35       Y.....4...5
0210: 80 36 80 2A 80 1F 01 1F  00 37 80 38 80 2A 80 1F  .6.*.....7.8.*..
0220: 01 1F 00 39 80 3A 80 2A  80 1F 01 1F 00 3B 80 3C  ...9.:.*.....;.<
0230: 80 2A 80 1F 01 6F 00                              .*...o.         
```

## Opcodes

```
  0: 0x0205 [0x59] UPDATE_ENTITY_DATA: Set EventEntity main speed = 13* * 0.1
  1: 0x020D [0x1F] MOVE_ENTITY: EventEntity moves to X=-52.265*, Z=43.584*, Y=-3.499*
  2: 0x0215 [0x1F] MOVE_ENTITY: Update entity position (mode=1)
  3: 0x0217 [0x1F] MOVE_ENTITY: EventEntity moves to X=-53.224*, Z=46.410*, Y=-3.499*
  4: 0x021F [0x1F] MOVE_ENTITY: Update entity position (mode=1)
  5: 0x0221 [0x1F] MOVE_ENTITY: EventEntity moves to X=-51.390*, Z=49.730*, Y=-3.499*
  6: 0x0229 [0x1F] MOVE_ENTITY: Update entity position (mode=1)
  7: 0x022B [0x1F] MOVE_ENTITY: EventEntity moves to X=-50.650*, Z=51.920*, Y=-3.499*
  8: 0x0233 [0x1F] MOVE_ENTITY: Update entity position (mode=1)
  9: 0x0235 [0x6F] WAIT_FRAME_DELAY: Yield until WaitTime reaches zero
 10: 0x0236 [0x00] END_REQSTACK()
```
