# Event 65535

## Metadata

| Field           | Value    |
|-----------------|----------|
| Event Index     | 44/99    |
| Offset          | 0x079F   |
| Data Size       | 46 bytes |
| Calculated Size | 46 bytes |
| Instructions    | 12       |

```
      00 01 02 03 04 05 06 07  08 09 0A 0B 0C 0D 0E 0F
      -- -- -- -- -- -- -- --  -- -- -- -- -- -- -- --
0790:                                               32                 2
07A0: 0F 80 1F 00 5D 80 5E 80  5F 80 1F 01 32 60 80 1F  ....].^._...2`..
07B0: 00 61 80 62 80 63 80 1F  01 32 56 80 1F 00 64 80  .a.b.c...2V...d.
07C0: 65 80 66 80 1F 01 6F 1E  F0 22 06 01 00           e.f...o.."...   
```

## Opcodes

```
  0: 0x079F [0x32] ExtData[1]->MainSpeed = 13* * 0.1
  1: 0x07A2 [0x1F] MOVE_ENTITY: EventEntity moves to X=-410.641*, Z=227.610*, Y=0.035*
  2: 0x07AA [0x1F] MOVE_ENTITY: Update entity position (mode=1)
  3: 0x07AC [0x32] ExtData[1]->MainSpeed = 36* * 0.1
  4: 0x07AF [0x1F] MOVE_ENTITY: EventEntity moves to X=-407.250*, Z=235.771*, Y=0.160*
  5: 0x07B7 [0x1F] MOVE_ENTITY: Update entity position (mode=1)
  6: 0x07B9 [0x32] ExtData[1]->MainSpeed = 11* * 0.1
  7: 0x07BC [0x1F] MOVE_ENTITY: EventEntity moves to X=-406.410*, Z=237.643*, Y=0.119*
  8: 0x07C4 [0x1F] MOVE_ENTITY: Update entity position (mode=1)
  9: 0x07C6 [0x6F] WAIT_FRAME_DELAY: Yield until WaitTime reaches zero
 10: 0x07C7 [0x1E] EventEntity looks at Ulbrecht (ID: 17179376/0x010622F0) and starts talking
 11: 0x07CC [0x00] END_REQSTACK()
```
