# Event 65535

## Metadata

| Field           | Value    |
|-----------------|----------|
| Event Index     | 35/99    |
| Offset          | 0x06BE   |
| Data Size       | 48 bytes |
| Calculated Size | 48 bytes |
| Instructions    | 9        |

```
      00 01 02 03 04 05 06 07  08 09 0A 0B 0C 0D 0E 0F
      -- -- -- -- -- -- -- --  -- -- -- -- -- -- -- --
06B0:                                            03 01                ..
06C0: 00 4E 80 03 02 00 4F 80  02 02 00 02 80 04 ED 06  .N....O.........
06D0: BA F0 FF FF 7F 50 80 51  80 01 00 52 80 08 02 00  .....P.Q...R....
06E0: 2C 80 07 01 00 41 80 1C  03 80 01 C8 06 00        ,....A........  
```

## Opcodes

```
  0: 0x06BE [0x03] ExtData[1]->WorkLocal[1] = 4294966296*
  1: 0x06C3 [0x03] ExtData[1]->WorkLocal[2] = 3000*
  2: 0x06C8 [0x02] IF !(ExtData[1]->WorkLocal[2] < 0*) GOTO 0x06ED
  3: 0x06D0 [0xBA] SET_ENTITY_POSITION(entity_id=LocalPlayer, pos_x=529.460*, pos_z=-372.789*, pos_y=ExtData[1]->WorkLocal[1], direction=342.5°*)
  4: 0x06DD [0x08] ExtData[1]->WorkLocal[2] -= 10*
  5: 0x06E2 [0x07] ExtData[1]->WorkLocal[1] += 100*
  6: 0x06E7 [0x1C] WAIT(1* ticks)
  7: 0x06EA [0x01] GOTO 0x06C8
  8: 0x06ED [0x00] END_REQSTACK()
```
