# Event 65535

## Metadata

| Field           | Value    |
|-----------------|----------|
| Event Index     | 75/99    |
| Offset          | 0x09C7   |
| Data Size       | 70 bytes |
| Calculated Size | 70 bytes |
| Instructions    | 15       |

```
      00 01 02 03 04 05 06 07  08 09 0A 0B 0C 0D 0E 0F
      -- -- -- -- -- -- -- --  -- -- -- -- -- -- -- --
09C0:                      03  02 10 07 7F 02 02 10 3C         ........<
09D0: 80 80 DB 09 B6 0F B6 80  01 0C 0A 02 02 10 43 80  ..............C.
09E0: 80 EA 09 B6 0F B6 80 01  0C 0A 02 02 10 33 80 80  .............3..
09F0: F9 09 B6 0F 49 80 01 0C  0A 02 02 10 45 80 80 08  ....I.......E...
0A00: 0A B6 0F B7 80 01 0C 0A  B6 0F 41 80 00           ..........A..   
```

## Opcodes

```
  0: 0x09C7 [0x03] Work_Zone[2] = Entity->Race
  1: 0x09CC [0x02] IF !(Work_Zone[2] == 5*) GOTO 0x09DB
  2: 0x09D4 [0xB6] ENTITY_APPEARANCE_HANDLER(case=Model size, value=87*)
  3: 0x09D8 [0x01] GOTO 0x0A0C
  4: 0x09DB [0x02] IF !(Work_Zone[2] == 6*) GOTO 0x09EA
  5: 0x09E3 [0xB6] ENTITY_APPEARANCE_HANDLER(case=Model size, value=87*)
  6: 0x09E7 [0x01] GOTO 0x0A0C
  7: 0x09EA [0x02] IF !(Work_Zone[2] == 7*) GOTO 0x09F9
  8: 0x09F2 [0xB6] ENTITY_APPEARANCE_HANDLER(case=Model size, value=93*)
  9: 0x09F6 [0x01] GOTO 0x0A0C
 10: 0x09F9 [0x02] IF !(Work_Zone[2] == 8*) GOTO 0x0A08
 11: 0x0A01 [0xB6] ENTITY_APPEARANCE_HANDLER(case=Model size, value=96*)
 12: 0x0A05 [0x01] GOTO 0x0A0C
 13: 0x0A08 [0xB6] ENTITY_APPEARANCE_HANDLER(case=Model size, value=100*)

SUBROUTINE_0A0C:
 14: 0x0A0C [0x00] END_REQSTACK()
```
