# 17617232

## Common Data

| Field            | Value                      |
|------------------|----------------------------|
| Zone             | Ifrit's Cauldron (ID: 205) |
| Block Size       | 4928 bytes                 |
| Total Events     | 15                         |
| References Count | 167                        |

## List of Events

| Event ID              | Entrypoint   |   Size |   Instructions |
|-----------------------|--------------|--------|----------------|
| [65535](#event-65535) | 0x0000       |      1 |              1 |
| [21](#event-21)       | 0x0001       |    246 |             44 |
| [22](#event-22)       | 0x00F7       |    246 |             44 |
| [23](#event-23)       | 0x01ED       |    246 |             44 |
| [24](#event-24)       | 0x02E3       |    246 |             44 |
| [25](#event-25)       | 0x03D9       |    246 |             44 |
| [26](#event-26)       | 0x04CF       |    246 |             44 |
| [27](#event-27)       | 0x05C5       |    246 |             44 |
| [28](#event-28)       | 0x06BB       |    246 |             44 |
| [29](#event-29)       | 0x07B1       |    246 |             44 |
| [30](#event-30)       | 0x08A7       |    255 |             45 |
| [32](#event-32)       | 0x09A6       |    246 |             44 |
| [33](#event-33)       | 0x0A9C       |    246 |             44 |
| [34](#event-34)       | 0x0B92       |    252 |             46 |
| [35](#event-35)       | 0x0C8E       |    967 |            119 |

## DAT References (imed_data)

|   Index | Hex Value   |   Dec Value |
|---------|-------------|-------------|
|       0 | 0x1C7C      |        7292 |
|       1 | 0x001B      |          27 |
|       2 | 0x0000      |           0 |
|       3 | 0x00C8      |         200 |
|       4 | 0x1C7E      |        7294 |
|       5 | 0x1C7F      |        7295 |
|       6 | 0x1C80      |        7296 |
|       7 | 0x1C81      |        7297 |
|       8 | 0x1C82      |        7298 |
|       9 | 0x1C83      |        7299 |
|      10 | 0x1C84      |        7300 |
|      11 | 0x1C85      |        7301 |
|      12 | 0x1C86      |        7302 |
|      13 | 0x1C87      |        7303 |
|      14 | 0x1C88      |        7304 |
|      15 | 0x1C89      |        7305 |
|      16 | 0x1C8A      |        7306 |
|      17 | 0x1C8B      |        7307 |
|      18 | 0x1C8C      |        7308 |
|      19 | 0x1C8D      |        7309 |
|      20 | 0x1C8E      |        7310 |
|      21 | 0x1C8F      |        7311 |
|      22 | 0x1C90      |        7312 |
|      23 | 0x1C91      |        7313 |
|      24 | 0x1C92      |        7314 |
|      25 | 0x1C93      |        7315 |
|      26 | 0x1C94      |        7316 |
|      27 | 0x1C95      |        7317 |
|      28 | 0x1C96      |        7318 |
|      29 | 0x1C97      |        7319 |
|      30 | 0x1C98      |        7320 |
|      31 | 0x1C99      |        7321 |
|      32 | 0x1C9A      |        7322 |
|      33 | 0x1C9B      |        7323 |
|      34 | 0x1C9C      |        7324 |
|      35 | 0x1C9D      |        7325 |
|      36 | 0x1C9E      |        7326 |
|      37 | 0x1C9F      |        7327 |
|      38 | 0x1CA0      |        7328 |
|      39 | 0x1CA1      |        7329 |
|      40 | 0x1CA2      |        7330 |
|      41 | 0x1CA3      |        7331 |
|      42 | 0x1CA4      |        7332 |
|      43 | 0x1CA5      |        7333 |
|      44 | 0x1CA6      |        7334 |
|      45 | 0x1CA7      |        7335 |
|      46 | 0x1CA8      |        7336 |
|      47 | 0x1CA9      |        7337 |
|      48 | 0x1CAA      |        7338 |
|      49 | 0x1CAB      |        7339 |
|      50 | 0x1CAC      |        7340 |
|      51 | 0x1CAD      |        7341 |
|      52 | 0x1CAE      |        7342 |
|      53 | 0x1CAF      |        7343 |
|      54 | 0x1CB0      |        7344 |
|      55 | 0x1CB1      |        7345 |
|      56 | 0x1CB2      |        7346 |
|      57 | 0x1CB3      |        7347 |
|      58 | 0x1CB4      |        7348 |
|      59 | 0x1CB5      |        7349 |
|      60 | 0x1CB6      |        7350 |
|      61 | 0x1CB7      |        7351 |
|      62 | 0x1CB8      |        7352 |
|      63 | 0x1CB9      |        7353 |
|      64 | 0x1CBA      |        7354 |
|      65 | 0x1CBB      |        7355 |
|      66 | 0x1CBC      |        7356 |
|      67 | 0x1CBD      |        7357 |
|      68 | 0x1CBE      |        7358 |
|      69 | 0x1CBF      |        7359 |
|      70 | 0x1CC0      |        7360 |
|      71 | 0x1CC1      |        7361 |
|      72 | 0x1CC2      |        7362 |
|      73 | 0x1CC3      |        7363 |
|      74 | 0x1CC4      |        7364 |
|      75 | 0x1CC5      |        7365 |
|      76 | 0x1CC6      |        7366 |
|      77 | 0x1CC7      |        7367 |
|      78 | 0x1CC8      |        7368 |
|      79 | 0x1CC9      |        7369 |
|      80 | 0x1CCA      |        7370 |
|      81 | 0x1CCB      |        7371 |
|      82 | 0x1CCC      |        7372 |
|      83 | 0x1CCD      |        7373 |
|      84 | 0x1CCE      |        7374 |
|      85 | 0x1CCF      |        7375 |
|      86 | 0x1CD0      |        7376 |
|      87 | 0x1CD1      |        7377 |
|      88 | 0x1CD2      |        7378 |
|      89 | 0x1CD3      |        7379 |
|      90 | 0x1CD4      |        7380 |
|      91 | 0x1CD5      |        7381 |
|      92 | 0x1CD6      |        7382 |
|      93 | 0x1CD7      |        7383 |
|      94 | 0x1CD8      |        7384 |
|      95 | 0x1CD9      |        7385 |
|      96 | 0x1CDA      |        7386 |
|      97 | 0x1CDB      |        7387 |
|      98 | 0x1CDC      |        7388 |
|      99 | 0x1CDD      |        7389 |
|     100 | 0x1CDE      |        7390 |
|     101 | 0x1CDF      |        7391 |
|     102 | 0x1CE0      |        7392 |
|     103 | 0x1CE1      |        7393 |
|     104 | 0x1CE2      |        7394 |
|     105 | 0x1CE3      |        7395 |
|     106 | 0x1CE4      |        7396 |
|     107 | 0x1CE5      |        7397 |
|     108 | 0x1CE6      |        7398 |
|     109 | 0x1CE7      |        7399 |
|     110 | 0x1CE8      |        7400 |
|     111 | 0x1CE9      |        7401 |
|     112 | 0x1CEA      |        7402 |
|     113 | 0x1CEB      |        7403 |
|     114 | 0x1CF7      |        7415 |
|     115 | 0x1CF8      |        7416 |
|     116 | 0x1CF9      |        7417 |
|     117 | 0x1CFA      |        7418 |
|     118 | 0x1CFB      |        7419 |
|     119 | 0x1CFC      |        7420 |
|     120 | 0x1CFD      |        7421 |
|     121 | 0x1CFE      |        7422 |
|     122 | 0x1CFF      |        7423 |
|     123 | 0x1D00      |        7424 |
|     124 | 0x1D01      |        7425 |
|     125 | 0x1D02      |        7426 |
|     126 | 0x1D03      |        7427 |
|     127 | 0x1D04      |        7428 |
|     128 | 0x1D05      |        7429 |
|     129 | 0x1D06      |        7430 |
|     130 | 0x1D07      |        7431 |
|     131 | 0x1D08      |        7432 |
|     132 | 0x1D09      |        7433 |
|     133 | 0x1D0A      |        7434 |
|     134 | 0x1D0B      |        7435 |
|     135 | 0x1D0C      |        7436 |
|     136 | 0x0127      |         295 |
|     137 | 0x1D0D      |        7437 |
|     138 | 0x1D0E      |        7438 |
|     139 | 0x1D0F      |        7439 |
|     140 | 0x1D10      |        7440 |
|     141 | 0x1D11      |        7441 |
|     142 | 0x1D12      |        7442 |
|     143 | 0x1D13      |        7443 |
|     144 | 0x1D14      |        7444 |
|     145 | 0x1D15      |        7445 |
|     146 | 0x1D16      |        7446 |
|     147 | 0x1D17      |        7447 |
|     148 | 0x1D18      |        7448 |
|     149 | 0x1D19      |        7449 |
|     150 | 0x1D1A      |        7450 |
|     151 | 0x1D1B      |        7451 |
|     152 | 0x1D1C      |        7452 |
|     153 | 0x1D1D      |        7453 |
|     154 | 0x1D1E      |        7454 |
|     155 | 0x1D1F      |        7455 |
|     156 | 0x1D20      |        7456 |
|     157 | 0x1D21      |        7457 |
|     158 | 0x1D22      |        7458 |
|     159 | 0x0013      |          19 |
|     160 | 0x002D      |          45 |
|     161 | 0x000F      |          15 |
|     162 | 0x00C9      |         201 |
|     163 | 0x0001      |           1 |
|     164 | 0x0002      |           2 |
|     165 | 0x001E      |          30 |
|     166 | 0x00D7      |         215 |

## String References

- **7292**: You hear a voice from out of nowhere...

## Events

### Event 65535

#### Metadata

| Field        | Value   |
|--------------|---------|
| Entrypoint   | 0x0000  |
| Data Size    | 1 bytes |
| Instructions | 1       |

```
      00 01 02 03 04 05 06 07  08 09 0A 0B 0C 0D 0E 0F
      -- -- -- -- -- -- -- --  -- -- -- -- -- -- -- --
0000: 00                                                .               
```

#### Opcodes

```
  0: 0x0000 [0x00] END_REQSTACK()
```

### Event 21

#### Metadata

| Field        | Value     |
|--------------|-----------|
| Entrypoint   | 0x0001    |
| Data Size    | 246 bytes |
| Instructions | 44        |

```
      00 01 02 03 04 05 06 07  08 09 0A 0B 0C 0D 0E 0F
      -- -- -- -- -- -- -- --  -- -- -- -- -- -- -- --
0000:    1A 84 0D 27 10 F0 FF  FF 7F 02 29 10 51 D1 0C   ...'......).Q..
0010: 01 03 29 10 51 D1 0C 01  02 80 51 D1 0C 01 4A F0  ..).Q.....Q...J.
0020: FF FF 7F 51 D1 0C 01 48  00 80 23 45 01 80 F0 FF  ...Q...H..#E....
0030: FF 7F F0 FF FF 7F 63 6C  30 31 02 80 45 03 80 F0  ......cl01..E...
0040: FF FF 7F F0 FF FF 7F 66  64 69 32 02 80 2B 5F D1  .......fdi2..+_.
0050: 0C 01 04 80 23 2B 5F D1  0C 01 05 80 23 2B 5F D1  ....#+_.....#+_.
0060: 0C 01 06 80 23 1A 27 0E  27 10 51 D1 0C 01 04 45  ....#.'.'.Q....E
0070: 03 80 F0 FF FF 7F F0 FF  FF 7F 66 64 69 32 02 80  ..........fdi2..
0080: 2B 51 D1 0C 01 07 80 23  2B 51 D1 0C 01 08 80 23  +Q.....#+Q.....#
0090: 03 02 10 00 00 2B 51 D1  0C 01 09 80 23 2B 51 D1  .....+Q.....#+Q.
00A0: 0C 01 0A 80 23 2B 51 D1  0C 01 0B 80 23 1A 27 0E  ....#+Q.....#.'.
00B0: 27 10 51 D1 0C 01 05 45  03 80 F0 FF FF 7F F0 FF  '.Q....E........
00C0: FF 7F 66 64 69 32 02 80  2B 5F D1 0C 01 0C 80 23  ..fdi2..+_.....#
00D0: 2B 5F D1 0C 01 0D 80 23  2B 5F D1 0C 01 0E 80 23  +_.....#+_.....#
00E0: 1A 69 0E 52 01 80 F0 FF  FF 7F F0 FF FF 7F 63 6C  .i.R..........cl
00F0: 30 31 1A 93 0D 21 00                              01...!.         
```

#### Opcodes

```
  0: 0x0001 [0x1A] CALL_SUBROUTINE(address=0x0D84)
  1: 0x0004 [0x27] REQ_SET(priority=0x10, entity_id=LocalPlayer, tag_num=0x02)
  2: 0x000B [0x29] REQ_SET_WAIT(priority=0x10, entity_id=Capacucu (ID: 17617233/0x010CD151), tag_num=0x03)
  3: 0x0012 [0x29] REQ_SET_WAIT(priority=0x10, entity_id=Capacucu (ID: 17617233/0x010CD151), tag_num=0x02)
  4: 0x0019 [0x80] LOAD_WAIT(entity=Capacucu (ID: 17617233/0x010CD151))
  5: 0x001E [0x4A] LocalPlayer looks at Capacucu (ID: 17617233/0x010CD151)
  6: 0x0027 [0x48] [System] [7292*]:
    → "You hear a voice from out of nowhere..."
  7: 0x002A [0x23] WAIT_FOR_DIALOG_INTERACTION
  8: 0x002B [0x45] LOAD_SCHEDULED_TASK: Load scheduler "cl01" with entities [LocalPlayer, LocalPlayer], work=[27*, 0*]
  9: 0x003C [0x45] LOAD_SCHEDULED_TASK: Load scheduler "fdi2" with entities [LocalPlayer, LocalPlayer], work=[200*, 0*]
 10: 0x004D [0x2B] ??? (ID: 17617247/0x010CD15F) [7294*]:
    → "... At last we meet."
 11: 0x0054 [0x23] WAIT_FOR_DIALOG_INTERACTION
 12: 0x0055 [0x2B] ??? (ID: 17617247/0x010CD15F) [7295*]:
    → "I have been freed from my prison and can soak up the sweat and blood of this world once more."
 13: 0x005C [0x23] WAIT_FOR_DIALOG_INTERACTION
 14: 0x005D [0x2B] ??? (ID: 17617247/0x010CD15F) [7296*]:
    → "Wait, there is something I must..."
 15: 0x0064 [0x23] WAIT_FOR_DIALOG_INTERACTION
 16: 0x0065 [0x1A] CALL_SUBROUTINE(address=0x0E27)
 17: 0x0068 [0x27] REQ_SET(priority=0x10, entity_id=Capacucu (ID: 17617233/0x010CD151), tag_num=0x04)
 18: 0x006F [0x45] LOAD_SCHEDULED_TASK: Load scheduler "fdi2" with entities [LocalPlayer, LocalPlayer], work=[200*, 0*]
 19: 0x0080 [0x2B] Capacucu (ID: 17617233/0x010CD151) [7297*]:
    → "This place is...?"
 20: 0x0087 [0x23] WAIT_FOR_DIALOG_INTERACTION
 21: 0x0088 [0x2B] Capacucu (ID: 17617233/0x010CD151) [7298*]:
    → "I see... You must be the new wielder for these."
 22: 0x008F [0x23] WAIT_FOR_DIALOG_INTERACTION
 23: 0x0090 [0x03] Work_Zone[2] = ExtData[1]->WorkLocal[0]
 24: 0x0095 [0x2B] Capacucu (ID: 17617233/0x010CD151) [7299*]:
    → "Yes, with your fighting spirit I believe you will be able to master the $0."
 25: 0x009C [0x23] WAIT_FOR_DIALOG_INTERACTION
 26: 0x009D [0x2B] Capacucu (ID: 17617233/0x010CD151) [7300*]:
    → "The $0 have long accompanied me, along both rough and gentle paths. It is not easy to give them up, but...here."
 27: 0x00A4 [0x23] WAIT_FOR_DIALOG_INTERACTION
 28: 0x00A5 [0x2B] Capacucu (ID: 17617233/0x010CD151) [7301*]:
    → "They belong to you now. I ask that you consider my... Ah, but that is past now. I bid you farewell...."
 29: 0x00AC [0x23] WAIT_FOR_DIALOG_INTERACTION
 30: 0x00AD [0x1A] CALL_SUBROUTINE(address=0x0E27)
 31: 0x00B0 [0x27] REQ_SET(priority=0x10, entity_id=Capacucu (ID: 17617233/0x010CD151), tag_num=0x05)
 32: 0x00B7 [0x45] LOAD_SCHEDULED_TASK: Load scheduler "fdi2" with entities [LocalPlayer, LocalPlayer], work=[200*, 0*]
 33: 0x00C8 [0x2B] ??? (ID: 17617247/0x010CD15F) [7302*]:
    → "..."
 34: 0x00CF [0x23] WAIT_FOR_DIALOG_INTERACTION
 35: 0x00D0 [0x2B] ??? (ID: 17617247/0x010CD15F) [7303*]:
    → "I hope you don't think this is the end."
 36: 0x00D7 [0x23] WAIT_FOR_DIALOG_INTERACTION
 37: 0x00D8 [0x2B] ??? (ID: 17617247/0x010CD15F) [7304*]:
    → "Your real life as a martial artist is just beginning. Time to start your training anew!"
 38: 0x00DF [0x23] WAIT_FOR_DIALOG_INTERACTION
 39: 0x00E0 [0x1A] CALL_SUBROUTINE(address=0x0E69)
 40: 0x00E3 [0x52] END_LOAD_SCHEDULER: End scheduler "cl01" with entities [LocalPlayer, LocalPlayer], work=27*
 41: 0x00F2 [0x1A] CALL_SUBROUTINE(address=0x0D93)
 42: 0x00F5 [0x21] END_EVENT
 43: 0x00F6 [0x00] END_REQSTACK()
```

### Event 22

#### Metadata

| Field        | Value     |
|--------------|-----------|
| Entrypoint   | 0x00F7    |
| Data Size    | 246 bytes |
| Instructions | 44        |

```
      00 01 02 03 04 05 06 07  08 09 0A 0B 0C 0D 0E 0F
      -- -- -- -- -- -- -- --  -- -- -- -- -- -- -- --
00F0:                      1A  84 0D 27 10 F0 FF FF 7F         ...'.....
0100: 03 29 10 52 D1 0C 01 03  29 10 52 D1 0C 01 02 80  .).R....).R.....
0110: 52 D1 0C 01 4A F0 FF FF  7F 52 D1 0C 01 48 00 80  R...J....R...H..
0120: 23 45 01 80 F0 FF FF 7F  F0 FF FF 7F 64 67 30 31  #E..........dg01
0130: 02 80 45 03 80 F0 FF FF  7F F0 FF FF 7F 66 64 69  ..E..........fdi
0140: 32 02 80 2B 5F D1 0C 01  0F 80 23 2B 5F D1 0C 01  2..+_.....#+_...
0150: 10 80 23 2B 5F D1 0C 01  11 80 23 1A 27 0E 27 10  ..#+_.....#.'.'.
0160: 52 D1 0C 01 04 45 03 80  F0 FF FF 7F F0 FF FF 7F  R....E..........
0170: 66 64 69 32 02 80 2B 52  D1 0C 01 12 80 23 2B 52  fdi2..+R.....#+R
0180: D1 0C 01 13 80 23 03 02  10 00 00 2B 52 D1 0C 01  .....#.....+R...
0190: 14 80 23 2B 52 D1 0C 01  15 80 23 2B 52 D1 0C 01  ..#+R.....#+R...
01A0: 16 80 23 1A 27 0E 27 10  52 D1 0C 01 05 45 03 80  ..#.'.'.R....E..
01B0: F0 FF FF 7F F0 FF FF 7F  66 64 69 32 02 80 2B 5F  ........fdi2..+_
01C0: D1 0C 01 17 80 23 2B 5F  D1 0C 01 18 80 23 2B 5F  .....#+_.....#+_
01D0: D1 0C 01 19 80 23 1A 69  0E 52 01 80 F0 FF FF 7F  .....#.i.R......
01E0: F0 FF FF 7F 64 67 30 31  1A 93 0D 21 00           ....dg01...!.   
```

#### Opcodes

```
  0: 0x00F7 [0x1A] CALL_SUBROUTINE(address=0x0D84)
  1: 0x00FA [0x27] REQ_SET(priority=0x10, entity_id=LocalPlayer, tag_num=0x03)
  2: 0x0101 [0x29] REQ_SET_WAIT(priority=0x10, entity_id=Putori-Tutori (ID: 17617234/0x010CD152), tag_num=0x03)
  3: 0x0108 [0x29] REQ_SET_WAIT(priority=0x10, entity_id=Putori-Tutori (ID: 17617234/0x010CD152), tag_num=0x02)
  4: 0x010F [0x80] LOAD_WAIT(entity=Putori-Tutori (ID: 17617234/0x010CD152))
  5: 0x0114 [0x4A] LocalPlayer looks at Putori-Tutori (ID: 17617234/0x010CD152)
  6: 0x011D [0x48] [System] [7292*]:
    → "You hear a voice from out of nowhere..."
  7: 0x0120 [0x23] WAIT_FOR_DIALOG_INTERACTION
  8: 0x0121 [0x45] LOAD_SCHEDULED_TASK: Load scheduler "dg01" with entities [LocalPlayer, LocalPlayer], work=[27*, 0*]
  9: 0x0132 [0x45] LOAD_SCHEDULED_TASK: Load scheduler "fdi2" with entities [LocalPlayer, LocalPlayer], work=[200*, 0*]
 10: 0x0143 [0x2B] ??? (ID: 17617247/0x010CD15F) [7305*]:
    → "... Finally! We finally meet face to face!"
 11: 0x014A [0x23] WAIT_FOR_DIALOG_INTERACTION
 12: 0x014B [0x2B] ??? (ID: 17617247/0x010CD15F) [7306*]:
    → "I have a presence in this world again! What an exhilarating feeling!"
 13: 0x0152 [0x23] WAIT_FOR_DIALOG_INTERACTION
 14: 0x0153 [0x2B] ??? (ID: 17617247/0x010CD15F) [7307*]:
    → "Ah yes, there is one more thing..."
 15: 0x015A [0x23] WAIT_FOR_DIALOG_INTERACTION
 16: 0x015B [0x1A] CALL_SUBROUTINE(address=0x0E27)
 17: 0x015E [0x27] REQ_SET(priority=0x10, entity_id=Putori-Tutori (ID: 17617234/0x010CD152), tag_num=0x04)
 18: 0x0165 [0x45] LOAD_SCHEDULED_TASK: Load scheduler "fdi2" with entities [LocalPlayer, LocalPlayer], work=[200*, 0*]
 19: 0x0176 [0x2B] Putori-Tutori (ID: 17617234/0x010CD152) [7308*]:
    → "Eh? What?"
 20: 0x017D [0x23] WAIT_FOR_DIALOG_INTERACTION
 21: 0x017E [0x2B] Putori-Tutori (ID: 17617234/0x010CD152) [7309*]:
    → "Oh. You must be this one's new owner."
 22: 0x0185 [0x23] WAIT_FOR_DIALOG_INTERACTION
 23: 0x0186 [0x03] Work_Zone[2] = ExtData[1]->WorkLocal[0]
 24: 0x018B [0x2B] Putori-Tutori (ID: 17617234/0x010CD152) [7310*]:
    → "With your dagger skills, you'll make a perfect wielder for the $0."
 25: 0x0192 [0x23] WAIT_FOR_DIALOG_INTERACTION
 26: 0x0193 [0x2B] Putori-Tutori (ID: 17617234/0x010CD152) [7311*]:
    → "It is most difficult to give up a weapon that has seen me through so many tight spots, but you have earned it."
 27: 0x019A [0x23] WAIT_FOR_DIALOG_INTERACTION
 28: 0x019B [0x2B] Putori-Tutori (ID: 17617234/0x010CD152) [7312*]:
    → "Treat her well..."
 29: 0x01A2 [0x23] WAIT_FOR_DIALOG_INTERACTION
 30: 0x01A3 [0x1A] CALL_SUBROUTINE(address=0x0E27)
 31: 0x01A6 [0x27] REQ_SET(priority=0x10, entity_id=Putori-Tutori (ID: 17617234/0x010CD152), tag_num=0x05)
 32: 0x01AD [0x45] LOAD_SCHEDULED_TASK: Load scheduler "fdi2" with entities [LocalPlayer, LocalPlayer], work=[200*, 0*]
 33: 0x01BE [0x2B] ??? (ID: 17617247/0x010CD15F) [7313*]:
    → "..."
 34: 0x01C5 [0x23] WAIT_FOR_DIALOG_INTERACTION
 35: 0x01C6 [0x2B] ??? (ID: 17617247/0x010CD15F) [7314*]:
    → "Splendid! From this day forth, I belong to you."
 36: 0x01CD [0x23] WAIT_FOR_DIALOG_INTERACTION
 37: 0x01CE [0x2B] ??? (ID: 17617247/0x010CD15F) [7315*]:
    → "So, what kind of games shall we play? And where shall we go to play them? Who are we going to kill when we get there? It's all just too exciting...!"
 38: 0x01D5 [0x23] WAIT_FOR_DIALOG_INTERACTION
 39: 0x01D6 [0x1A] CALL_SUBROUTINE(address=0x0E69)
 40: 0x01D9 [0x52] END_LOAD_SCHEDULER: End scheduler "dg01" with entities [LocalPlayer, LocalPlayer], work=27*
 41: 0x01E8 [0x1A] CALL_SUBROUTINE(address=0x0D93)
 42: 0x01EB [0x21] END_EVENT
 43: 0x01EC [0x00] END_REQSTACK()
```

### Event 23

#### Metadata

| Field        | Value     |
|--------------|-----------|
| Entrypoint   | 0x01ED    |
| Data Size    | 246 bytes |
| Instructions | 44        |

```
      00 01 02 03 04 05 06 07  08 09 0A 0B 0C 0D 0E 0F
      -- -- -- -- -- -- -- --  -- -- -- -- -- -- -- --
01E0:                                         1A 84 0D               ...
01F0: 27 10 F0 FF FF 7F 04 29  10 53 D1 0C 01 03 29 10  '......).S....).
0200: 53 D1 0C 01 02 80 53 D1  0C 01 4A F0 FF FF 7F 53  S.....S...J....S
0210: D1 0C 01 48 00 80 23 45  01 80 F0 FF FF 7F F0 FF  ...H..#E........
0220: FF 7F 31 73 30 31 02 80  45 03 80 F0 FF FF 7F F0  ..1s01..E.......
0230: FF FF 7F 66 64 69 32 02  80 2B 5F D1 0C 01 1A 80  ...fdi2..+_.....
0240: 23 2B 5F D1 0C 01 1B 80  23 2B 5F D1 0C 01 1C 80  #+_.....#+_.....
0250: 23 1A 27 0E 27 10 53 D1  0C 01 04 45 03 80 F0 FF  #.'.'.S....E....
0260: FF 7F F0 FF FF 7F 66 64  69 32 02 80 2B 53 D1 0C  ......fdi2..+S..
0270: 01 1D 80 23 2B 53 D1 0C  01 1E 80 23 03 02 10 00  ...#+S.....#....
0280: 00 2B 53 D1 0C 01 1F 80  23 2B 53 D1 0C 01 20 80  .+S.....#+S... .
0290: 23 2B 53 D1 0C 01 21 80  23 1A 27 0E 27 10 53 D1  #+S...!.#.'.'.S.
02A0: 0C 01 05 45 03 80 F0 FF  FF 7F F0 FF FF 7F 66 64  ...E..........fd
02B0: 69 32 02 80 2B 5F D1 0C  01 22 80 23 2B 5F D1 0C  i2..+_...".#+_..
02C0: 01 23 80 23 2B 5F D1 0C  01 24 80 23 1A 69 0E 52  .#.#+_...$.#.i.R
02D0: 01 80 F0 FF FF 7F F0 FF  FF 7F 31 73 30 31 1A 93  ..........1s01..
02E0: 0D 21 00                                          .!.             
```

#### Opcodes

```
  0: 0x01ED [0x1A] CALL_SUBROUTINE(address=0x0D84)
  1: 0x01F0 [0x27] REQ_SET(priority=0x10, entity_id=LocalPlayer, tag_num=0x04)
  2: 0x01F7 [0x29] REQ_SET_WAIT(priority=0x10, entity_id=Kilhwch (ID: 17617235/0x010CD153), tag_num=0x03)
  3: 0x01FE [0x29] REQ_SET_WAIT(priority=0x10, entity_id=Kilhwch (ID: 17617235/0x010CD153), tag_num=0x02)
  4: 0x0205 [0x80] LOAD_WAIT(entity=Kilhwch (ID: 17617235/0x010CD153))
  5: 0x020A [0x4A] LocalPlayer looks at Kilhwch (ID: 17617235/0x010CD153)
  6: 0x0213 [0x48] [System] [7292*]:
    → "You hear a voice from out of nowhere..."
  7: 0x0216 [0x23] WAIT_FOR_DIALOG_INTERACTION
  8: 0x0217 [0x45] LOAD_SCHEDULED_TASK: Load scheduler "1s01" with entities [LocalPlayer, LocalPlayer], work=[27*, 0*]
  9: 0x0228 [0x45] LOAD_SCHEDULED_TASK: Load scheduler "fdi2" with entities [LocalPlayer, LocalPlayer], work=[200*, 0*]
 10: 0x0239 [0x2B] ??? (ID: 17617247/0x010CD15F) [7316*]:
    → "... Thou hast found me."
 11: 0x0240 [0x23] WAIT_FOR_DIALOG_INTERACTION
 12: 0x0241 [0x2B] ??? (ID: 17617247/0x010CD15F) [7317*]:
    → "I have now thrice shown my true form in this world."
 13: 0x0248 [0x23] WAIT_FOR_DIALOG_INTERACTION
 14: 0x0249 [0x2B] ??? (ID: 17617247/0x010CD15F) [7318*]:
    → "A moment..."
 15: 0x0250 [0x23] WAIT_FOR_DIALOG_INTERACTION
 16: 0x0251 [0x1A] CALL_SUBROUTINE(address=0x0E27)
 17: 0x0254 [0x27] REQ_SET(priority=0x10, entity_id=Kilhwch (ID: 17617235/0x010CD153), tag_num=0x04)
 18: 0x025B [0x45] LOAD_SCHEDULED_TASK: Load scheduler "fdi2" with entities [LocalPlayer, LocalPlayer], work=[200*, 0*]
 19: 0x026C [0x2B] Kilhwch (ID: 17617235/0x010CD153) [7319*]:
    → "... What has happened to me?"
 20: 0x0273 [0x23] WAIT_FOR_DIALOG_INTERACTION
 21: 0x0274 [0x2B] Kilhwch (ID: 17617235/0x010CD153) [7320*]:
    → "I see, you are the sword's new owner?"
 22: 0x027B [0x23] WAIT_FOR_DIALOG_INTERACTION
 23: 0x027C [0x03] Work_Zone[2] = ExtData[1]->WorkLocal[0]
 24: 0x0281 [0x2B] Kilhwch (ID: 17617235/0x010CD153) [7321*]:
    → "Well, this is most encouraging! A master of swordplay such as yourself should have no trouble wielding $0."
 25: 0x0288 [0x23] WAIT_FOR_DIALOG_INTERACTION
 26: 0x0289 [0x2B] Kilhwch (ID: 17617235/0x010CD153) [7322*]:
    → "When the world lies in chaos, this blade appears before the one meant to wield it. It is yours... Restore order to Vana'diel!"
 27: 0x0290 [0x23] WAIT_FOR_DIALOG_INTERACTION
 28: 0x0291 [0x2B] Kilhwch (ID: 17617235/0x010CD153) [7323*]:
    → "And now I, too, can rest unburdened..."
 29: 0x0298 [0x23] WAIT_FOR_DIALOG_INTERACTION
 30: 0x0299 [0x1A] CALL_SUBROUTINE(address=0x0E27)
 31: 0x029C [0x27] REQ_SET(priority=0x10, entity_id=Kilhwch (ID: 17617235/0x010CD153), tag_num=0x05)
 32: 0x02A3 [0x45] LOAD_SCHEDULED_TASK: Load scheduler "fdi2" with entities [LocalPlayer, LocalPlayer], work=[200*, 0*]
 33: 0x02B4 [0x2B] ??? (ID: 17617247/0x010CD15F) [7324*]:
    → "..."
 34: 0x02BB [0x23] WAIT_FOR_DIALOG_INTERACTION
 35: 0x02BC [0x2B] ??? (ID: 17617247/0x010CD15F) [7325*]:
    → "Thou art blessed this day."
 36: 0x02C3 [0x23] WAIT_FOR_DIALOG_INTERACTION
 37: 0x02C4 [0x2B] ??? (ID: 17617247/0x010CD15F) [7326*]:
    → "Henceforth, I shall be thy blade. For the sake of thy companions, for justice in this world, wield my power in the name of honor..."
 38: 0x02CB [0x23] WAIT_FOR_DIALOG_INTERACTION
 39: 0x02CC [0x1A] CALL_SUBROUTINE(address=0x0E69)
 40: 0x02CF [0x52] END_LOAD_SCHEDULER: End scheduler "1s01" with entities [LocalPlayer, LocalPlayer], work=27*
 41: 0x02DE [0x1A] CALL_SUBROUTINE(address=0x0D93)
 42: 0x02E1 [0x21] END_EVENT
 43: 0x02E2 [0x00] END_REQSTACK()
```

### Event 24

#### Metadata

| Field        | Value     |
|--------------|-----------|
| Entrypoint   | 0x02E3    |
| Data Size    | 246 bytes |
| Instructions | 44        |

```
      00 01 02 03 04 05 06 07  08 09 0A 0B 0C 0D 0E 0F
      -- -- -- -- -- -- -- --  -- -- -- -- -- -- -- --
02E0:          1A 84 0D 27 10  F0 FF FF 7F 05 29 10 54     ...'......).T
02F0: D1 0C 01 03 29 10 54 D1  0C 01 02 80 54 D1 0C 01  ....).T.....T...
0300: 4A F0 FF FF 7F 54 D1 0C  01 48 00 80 23 45 01 80  J....T...H..#E..
0310: F0 FF FF 7F F0 FF FF 7F  32 73 30 31 02 80 45 03  ........2s01..E.
0320: 80 F0 FF FF 7F F0 FF FF  7F 66 64 69 32 02 80 2B  .........fdi2..+
0330: 5F D1 0C 01 25 80 23 2B  5F D1 0C 01 26 80 23 2B  _...%.#+_...&.#+
0340: 5F D1 0C 01 27 80 23 1A  27 0E 27 10 54 D1 0C 01  _...'.#.'.'.T...
0350: 04 45 03 80 F0 FF FF 7F  F0 FF FF 7F 66 64 69 32  .E..........fdi2
0360: 02 80 2B 54 D1 0C 01 28  80 23 2B 54 D1 0C 01 29  ..+T...(.#+T...)
0370: 80 23 03 02 10 00 00 2B  54 D1 0C 01 2A 80 23 2B  .#.....+T...*.#+
0380: 54 D1 0C 01 2B 80 23 2B  54 D1 0C 01 2C 80 23 1A  T...+.#+T...,.#.
0390: 27 0E 27 10 54 D1 0C 01  05 45 03 80 F0 FF FF 7F  '.'.T....E......
03A0: F0 FF FF 7F 66 64 69 32  02 80 2B 5F D1 0C 01 2D  ....fdi2..+_...-
03B0: 80 23 2B 5F D1 0C 01 2E  80 23 2B 5F D1 0C 01 2F  .#+_.....#+_.../
03C0: 80 23 1A 69 0E 52 01 80  F0 FF FF 7F F0 FF FF 7F  .#.i.R..........
03D0: 32 73 30 31 1A 93 0D 21  00                       2s01...!.       
```

#### Opcodes

```
  0: 0x02E3 [0x1A] CALL_SUBROUTINE(address=0x0D84)
  1: 0x02E6 [0x27] REQ_SET(priority=0x10, entity_id=LocalPlayer, tag_num=0x05)
  2: 0x02ED [0x29] REQ_SET_WAIT(priority=0x10, entity_id=Mieuseloir (ID: 17617236/0x010CD154), tag_num=0x03)
  3: 0x02F4 [0x29] REQ_SET_WAIT(priority=0x10, entity_id=Mieuseloir (ID: 17617236/0x010CD154), tag_num=0x02)
  4: 0x02FB [0x80] LOAD_WAIT(entity=Mieuseloir (ID: 17617236/0x010CD154))
  5: 0x0300 [0x4A] LocalPlayer looks at Mieuseloir (ID: 17617236/0x010CD154)
  6: 0x0309 [0x48] [System] [7292*]:
    → "You hear a voice from out of nowhere..."
  7: 0x030C [0x23] WAIT_FOR_DIALOG_INTERACTION
  8: 0x030D [0x45] LOAD_SCHEDULED_TASK: Load scheduler "2s01" with entities [LocalPlayer, LocalPlayer], work=[27*, 0*]
  9: 0x031E [0x45] LOAD_SCHEDULED_TASK: Load scheduler "fdi2" with entities [LocalPlayer, LocalPlayer], work=[200*, 0*]
 10: 0x032F [0x2B] ??? (ID: 17617247/0x010CD15F) [7327*]:
    → "... You have found me."
 11: 0x0336 [0x23] WAIT_FOR_DIALOG_INTERACTION
 12: 0x0337 [0x2B] ??? (ID: 17617247/0x010CD15F) [7328*]:
    → "Allow me to show my respect. You who have gained the strength of so many must be a true hero."
 13: 0x033E [0x23] WAIT_FOR_DIALOG_INTERACTION
 14: 0x033F [0x2B] ??? (ID: 17617247/0x010CD15F) [7329*]:
    → "But first..."
 15: 0x0346 [0x23] WAIT_FOR_DIALOG_INTERACTION
 16: 0x0347 [0x1A] CALL_SUBROUTINE(address=0x0E27)
 17: 0x034A [0x27] REQ_SET(priority=0x10, entity_id=Mieuseloir (ID: 17617236/0x010CD154), tag_num=0x04)
 18: 0x0351 [0x45] LOAD_SCHEDULED_TASK: Load scheduler "fdi2" with entities [LocalPlayer, LocalPlayer], work=[200*, 0*]
 19: 0x0362 [0x2B] Mieuseloir (ID: 17617236/0x010CD154) [7330*]:
    → "Who are you?"
 20: 0x0369 [0x23] WAIT_FOR_DIALOG_INTERACTION
 21: 0x036A [0x2B] Mieuseloir (ID: 17617236/0x010CD154) [7331*]:
    → "This must be some sort of joke. You are the new wielder of this weapon?"
 22: 0x0371 [0x23] WAIT_FOR_DIALOG_INTERACTION
 23: 0x0372 [0x03] Work_Zone[2] = ExtData[1]->WorkLocal[0]
 24: 0x0377 [0x2B] Mieuseloir (ID: 17617236/0x010CD154) [7332*]:
    → "Hmmm, perhaps I have misjudged you. With your level of skill, you may be able to handle this beastly blade, and have the will to control its awesome power."
 25: 0x037E [0x23] WAIT_FOR_DIALOG_INTERACTION
 26: 0x037F [0x2B] Mieuseloir (ID: 17617236/0x010CD154) [7333*]:
    → "However, this is a magical blade. It is a sword that calls upon destruction. Its malice will gnaw away at your body and soul even as you topple enemies with its strength."
 27: 0x0386 [0x23] WAIT_FOR_DIALOG_INTERACTION
 28: 0x0387 [0x2B] Mieuseloir (ID: 17617236/0x010CD154) [7334*]:
    → "Do not forget this truth! Keep it always in your mind. My regards go with you, stranger..."
 29: 0x038E [0x23] WAIT_FOR_DIALOG_INTERACTION
 30: 0x038F [0x1A] CALL_SUBROUTINE(address=0x0E27)
 31: 0x0392 [0x27] REQ_SET(priority=0x10, entity_id=Mieuseloir (ID: 17617236/0x010CD154), tag_num=0x05)
 32: 0x0399 [0x45] LOAD_SCHEDULED_TASK: Load scheduler "fdi2" with entities [LocalPlayer, LocalPlayer], work=[200*, 0*]
 33: 0x03AA [0x2B] ??? (ID: 17617247/0x010CD15F) [7335*]:
    → "..."
 34: 0x03B1 [0x23] WAIT_FOR_DIALOG_INTERACTION
 35: 0x03B2 [0x2B] ??? (ID: 17617247/0x010CD15F) [7336*]:
    → "Now, my heroic master..."
 36: 0x03B9 [0x23] WAIT_FOR_DIALOG_INTERACTION
 37: 0x03BA [0x2B] ??? (ID: 17617247/0x010CD15F) [7337*]:
    → "For what purpose will you wield my power? The choices before you are without limit. Will you become the ruler of this world? Or perhaps..."
 38: 0x03C1 [0x23] WAIT_FOR_DIALOG_INTERACTION
 39: 0x03C2 [0x1A] CALL_SUBROUTINE(address=0x0E69)
 40: 0x03C5 [0x52] END_LOAD_SCHEDULER: End scheduler "2s01" with entities [LocalPlayer, LocalPlayer], work=27*
 41: 0x03D4 [0x1A] CALL_SUBROUTINE(address=0x0D93)
 42: 0x03D7 [0x21] END_EVENT
 43: 0x03D8 [0x00] END_REQSTACK()
```

### Event 25

#### Metadata

| Field        | Value     |
|--------------|-----------|
| Entrypoint   | 0x03D9    |
| Data Size    | 246 bytes |
| Instructions | 44        |

```
      00 01 02 03 04 05 06 07  08 09 0A 0B 0C 0D 0E 0F
      -- -- -- -- -- -- -- --  -- -- -- -- -- -- -- --
03D0:                             1A 84 0D 27 10 F0 FF           ...'...
03E0: FF 7F 06 29 10 55 D1 0C  01 03 29 10 55 D1 0C 01  ...).U....).U...
03F0: 02 80 55 D1 0C 01 4A F0  FF FF 7F 55 D1 0C 01 48  ..U...J....U...H
0400: 00 80 23 45 01 80 F0 FF  FF 7F F0 FF FF 7F 31 61  ..#E..........1a
0410: 30 31 02 80 45 03 80 F0  FF FF 7F F0 FF FF 7F 66  01..E..........f
0420: 64 69 32 02 80 2B 5F D1  0C 01 30 80 23 2B 5F D1  di2..+_...0.#+_.
0430: 0C 01 31 80 23 2B 5F D1  0C 01 32 80 23 1A 27 0E  ..1.#+_...2.#.'.
0440: 27 10 55 D1 0C 01 04 45  03 80 F0 FF FF 7F F0 FF  '.U....E........
0450: FF 7F 66 64 69 32 02 80  2B 55 D1 0C 01 33 80 23  ..fdi2..+U...3.#
0460: 2B 55 D1 0C 01 34 80 23  03 02 10 00 00 2B 55 D1  +U...4.#.....+U.
0470: 0C 01 35 80 23 2B 55 D1  0C 01 36 80 23 2B 55 D1  ..5.#+U...6.#+U.
0480: 0C 01 37 80 23 1A 27 0E  27 10 55 D1 0C 01 05 45  ..7.#.'.'.U....E
0490: 03 80 F0 FF FF 7F F0 FF  FF 7F 66 64 69 32 02 80  ..........fdi2..
04A0: 2B 5F D1 0C 01 38 80 23  2B 5F D1 0C 01 39 80 23  +_...8.#+_...9.#
04B0: 2B 5F D1 0C 01 3A 80 23  1A 69 0E 52 01 80 F0 FF  +_...:.#.i.R....
04C0: FF 7F F0 FF FF 7F 31 61  30 31 1A 93 0D 21 00     ......1a01...!. 
```

#### Opcodes

```
  0: 0x03D9 [0x1A] CALL_SUBROUTINE(address=0x0D84)
  1: 0x03DC [0x27] REQ_SET(priority=0x10, entity_id=LocalPlayer, tag_num=0x06)
  2: 0x03E3 [0x29] REQ_SET_WAIT(priority=0x10, entity_id=Lhu Mhakaracca (ID: 17617237/0x010CD155), tag_num=0x03)
  3: 0x03EA [0x29] REQ_SET_WAIT(priority=0x10, entity_id=Lhu Mhakaracca (ID: 17617237/0x010CD155), tag_num=0x02)
  4: 0x03F1 [0x80] LOAD_WAIT(entity=Lhu Mhakaracca (ID: 17617237/0x010CD155))
  5: 0x03F6 [0x4A] LocalPlayer looks at Lhu Mhakaracca (ID: 17617237/0x010CD155)
  6: 0x03FF [0x48] [System] [7292*]:
    → "You hear a voice from out of nowhere..."
  7: 0x0402 [0x23] WAIT_FOR_DIALOG_INTERACTION
  8: 0x0403 [0x45] LOAD_SCHEDULED_TASK: Load scheduler "1a01" with entities [LocalPlayer, LocalPlayer], work=[27*, 0*]
  9: 0x0414 [0x45] LOAD_SCHEDULED_TASK: Load scheduler "fdi2" with entities [LocalPlayer, LocalPlayer], work=[200*, 0*]
 10: 0x0425 [0x2B] ??? (ID: 17617247/0x010CD15F) [7338*]:
    → "... You...me, meet."
 11: 0x042C [0x23] WAIT_FOR_DIALOG_INTERACTION
 12: 0x042D [0x2B] ??? (ID: 17617247/0x010CD15F) [7339*]:
    → "Me...free... Thanks to you. Me, your..."
 13: 0x0434 [0x23] WAIT_FOR_DIALOG_INTERACTION
 14: 0x0435 [0x2B] ??? (ID: 17617247/0x010CD15F) [7340*]:
    → "Wait..."
 15: 0x043C [0x23] WAIT_FOR_DIALOG_INTERACTION
 16: 0x043D [0x1A] CALL_SUBROUTINE(address=0x0E27)
 17: 0x0440 [0x27] REQ_SET(priority=0x10, entity_id=Lhu Mhakaracca (ID: 17617237/0x010CD155), tag_num=0x04)
 18: 0x0447 [0x45] LOAD_SCHEDULED_TASK: Load scheduler "fdi2" with entities [LocalPlayer, LocalPlayer], work=[200*, 0*]
 19: 0x0458 [0x2B] Lhu Mhakaracca (ID: 17617237/0x010CD155) [7341*]:
    → "What the...?"
 20: 0x045F [0x23] WAIT_FOR_DIALOG_INTERACTION
 21: 0x0460 [0x2B] Lhu Mhakaracca (ID: 17617237/0x010CD155) [7342*]:
    → "Ah, now I see. The wheel has turned."
 22: 0x0467 [0x23] WAIT_FOR_DIALOG_INTERACTION
 23: 0x0468 [0x03] Work_Zone[2] = ExtData[1]->WorkLocal[0]
 24: 0x046D [0x2B] Lhu Mhakaracca (ID: 17617237/0x010CD155) [7343*]:
    → "Truthfully spoken, I am thankful. # is a splendid axe, but ever does it hunger."
 25: 0x0474 [0x23] WAIT_FOR_DIALOG_INTERACTION
 26: 0x0475 [0x2B] Lhu Mhakaracca (ID: 17617237/0x010CD155) [7344*]:
    → "I have taken many lives to sate its need, and have reached the end of my strength."
 27: 0x047C [0x23] WAIT_FOR_DIALOG_INTERACTION
 28: 0x047D [0x2B] Lhu Mhakaracca (ID: 17617237/0x010CD155) [7345*]:
    → "You have my gratitude. You have freed me from my nightmare, and now I can sleep with a tranquil spirit..."
 29: 0x0484 [0x23] WAIT_FOR_DIALOG_INTERACTION
 30: 0x0485 [0x1A] CALL_SUBROUTINE(address=0x0E27)
 31: 0x0488 [0x27] REQ_SET(priority=0x10, entity_id=Lhu Mhakaracca (ID: 17617237/0x010CD155), tag_num=0x05)
 32: 0x048F [0x45] LOAD_SCHEDULED_TASK: Load scheduler "fdi2" with entities [LocalPlayer, LocalPlayer], work=[200*, 0*]
 33: 0x04A0 [0x2B] ??? (ID: 17617247/0x010CD15F) [7346*]:
    → "..."
 34: 0x04A7 [0x23] WAIT_FOR_DIALOG_INTERACTION
 35: 0x04A8 [0x2B] ??? (ID: 17617247/0x010CD15F) [7347*]:
    → "You, master, me. Good, work. Me, thank, you."
 36: 0x04AF [0x23] WAIT_FOR_DIALOG_INTERACTION
 37: 0x04B0 [0x2B] ??? (ID: 17617247/0x010CD15F) [7348*]:
    → "Master, me, hunger. Go, hunt? Find, prey? Me, cut, flesh. Break, bone. Drink, blood. Master, me, hunger..."
 38: 0x04B7 [0x23] WAIT_FOR_DIALOG_INTERACTION
 39: 0x04B8 [0x1A] CALL_SUBROUTINE(address=0x0E69)
 40: 0x04BB [0x52] END_LOAD_SCHEDULER: End scheduler "1a01" with entities [LocalPlayer, LocalPlayer], work=27*
 41: 0x04CA [0x1A] CALL_SUBROUTINE(address=0x0D93)
 42: 0x04CD [0x21] END_EVENT
 43: 0x04CE [0x00] END_REQSTACK()
```

### Event 26

#### Metadata

| Field        | Value     |
|--------------|-----------|
| Entrypoint   | 0x04CF    |
| Data Size    | 246 bytes |
| Instructions | 44        |

```
      00 01 02 03 04 05 06 07  08 09 0A 0B 0C 0D 0E 0F
      -- -- -- -- -- -- -- --  -- -- -- -- -- -- -- --
04C0:                                               1A                 .
04D0: 84 0D 27 10 F0 FF FF 7F  07 29 10 56 D1 0C 01 03  ..'......).V....
04E0: 29 10 56 D1 0C 01 02 80  56 D1 0C 01 4A F0 FF FF  ).V.....V...J...
04F0: 7F 56 D1 0C 01 48 00 80  23 45 01 80 F0 FF FF 7F  .V...H..#E......
0500: F0 FF FF 7F 32 61 30 31  02 80 45 03 80 F0 FF FF  ....2a01..E.....
0510: 7F F0 FF FF 7F 66 64 69  32 02 80 2B 5F D1 0C 01  .....fdi2..+_...
0520: 3B 80 23 2B 5F D1 0C 01  3C 80 23 2B 5F D1 0C 01  ;.#+_...<.#+_...
0530: 3D 80 23 1A 27 0E 27 10  56 D1 0C 01 04 45 03 80  =.#.'.'.V....E..
0540: F0 FF FF 7F F0 FF FF 7F  66 64 69 32 02 80 2B 56  ........fdi2..+V
0550: D1 0C 01 3E 80 23 2B 56  D1 0C 01 3F 80 23 03 02  ...>.#+V...?.#..
0560: 10 00 00 2B 56 D1 0C 01  40 80 23 2B 56 D1 0C 01  ...+V...@.#+V...
0570: 41 80 23 2B 56 D1 0C 01  42 80 23 1A 27 0E 27 10  A.#+V...B.#.'.'.
0580: 56 D1 0C 01 05 45 03 80  F0 FF FF 7F F0 FF FF 7F  V....E..........
0590: 66 64 69 32 02 80 2B 5F  D1 0C 01 43 80 23 2B 5F  fdi2..+_...C.#+_
05A0: D1 0C 01 44 80 23 2B 5F  D1 0C 01 45 80 23 1A 69  ...D.#+_...E.#.i
05B0: 0E 52 01 80 F0 FF FF 7F  F0 FF FF 7F 32 61 30 31  .R..........2a01
05C0: 1A 93 0D 21 00                                    ...!.           
```

#### Opcodes

```
  0: 0x04CF [0x1A] CALL_SUBROUTINE(address=0x0D84)
  1: 0x04D2 [0x27] REQ_SET(priority=0x10, entity_id=LocalPlayer, tag_num=0x07)
  2: 0x04D9 [0x29] REQ_SET_WAIT(priority=0x10, entity_id=Xonia (ID: 17617238/0x010CD156), tag_num=0x03)
  3: 0x04E0 [0x29] REQ_SET_WAIT(priority=0x10, entity_id=Xonia (ID: 17617238/0x010CD156), tag_num=0x02)
  4: 0x04E7 [0x80] LOAD_WAIT(entity=Xonia (ID: 17617238/0x010CD156))
  5: 0x04EC [0x4A] LocalPlayer looks at Xonia (ID: 17617238/0x010CD156)
  6: 0x04F5 [0x48] [System] [7292*]:
    → "You hear a voice from out of nowhere..."
  7: 0x04F8 [0x23] WAIT_FOR_DIALOG_INTERACTION
  8: 0x04F9 [0x45] LOAD_SCHEDULED_TASK: Load scheduler "2a01" with entities [LocalPlayer, LocalPlayer], work=[27*, 0*]
  9: 0x050A [0x45] LOAD_SCHEDULED_TASK: Load scheduler "fdi2" with entities [LocalPlayer, LocalPlayer], work=[200*, 0*]
 10: 0x051B [0x2B] ??? (ID: 17617247/0x010CD15F) [7349*]:
    → "... Ah, you found me!"
 11: 0x0522 [0x23] WAIT_FOR_DIALOG_INTERACTION
 12: 0x0523 [0x2B] ??? (ID: 17617247/0x010CD15F) [7350*]:
    → "I have been freed from a world where life and death, reality and illusion are impossible to tell apart. I am truly grateful."
 13: 0x052A [0x23] WAIT_FOR_DIALOG_INTERACTION
 14: 0x052B [0x2B] ??? (ID: 17617247/0x010CD15F) [7351*]:
    → "One moment..."
 15: 0x0532 [0x23] WAIT_FOR_DIALOG_INTERACTION
 16: 0x0533 [0x1A] CALL_SUBROUTINE(address=0x0E27)
 17: 0x0536 [0x27] REQ_SET(priority=0x10, entity_id=Xonia (ID: 17617238/0x010CD156), tag_num=0x04)
 18: 0x053D [0x45] LOAD_SCHEDULED_TASK: Load scheduler "fdi2" with entities [LocalPlayer, LocalPlayer], work=[200*, 0*]
 19: 0x054E [0x2B] Xonia (ID: 17617238/0x010CD156) [7352*]:
    → "... This is...Jeuno!? Have I finally returned?"
 20: 0x0555 [0x23] WAIT_FOR_DIALOG_INTERACTION
 21: 0x0556 [0x2B] Xonia (ID: 17617238/0x010CD156) [7353*]:
    → "I... Nobody can see me. This is merely a reflection of reality. Which means you are the one to inherit the axe."
 22: 0x055D [0x23] WAIT_FOR_DIALOG_INTERACTION
 23: 0x055E [0x03] Work_Zone[2] = ExtData[1]->WorkLocal[0]
 24: 0x0563 [0x2B] Xonia (ID: 17617238/0x010CD156) [7354*]:
    → "Hmm. With your polished skills, you will make a fine master for $0."
 25: 0x056A [0x23] WAIT_FOR_DIALOG_INTERACTION
 26: 0x056B [0x2B] Xonia (ID: 17617238/0x010CD156) [7355*]:
    → "The one who wields this axe must also be beautiful to look upon. Apparently, I was a suitable candidate. Do you not agree?"
 27: 0x0572 [0x23] WAIT_FOR_DIALOG_INTERACTION
 28: 0x0573 [0x2B] Xonia (ID: 17617238/0x010CD156) [7356*]:
    → "Congratulations. I expect you to perform great deeds from this day onwards. I also ask that someday you use $0 to avenge the Hydra Corps..."
 29: 0x057A [0x23] WAIT_FOR_DIALOG_INTERACTION
 30: 0x057B [0x1A] CALL_SUBROUTINE(address=0x0E27)
 31: 0x057E [0x27] REQ_SET(priority=0x10, entity_id=Xonia (ID: 17617238/0x010CD156), tag_num=0x05)
 32: 0x0585 [0x45] LOAD_SCHEDULED_TASK: Load scheduler "fdi2" with entities [LocalPlayer, LocalPlayer], work=[200*, 0*]
 33: 0x0596 [0x2B] ??? (ID: 17617247/0x010CD15F) [7357*]:
    → "..."
 34: 0x059D [0x23] WAIT_FOR_DIALOG_INTERACTION
 35: 0x059E [0x2B] ??? (ID: 17617247/0x010CD15F) [7358*]:
    → "I congratulate you also...my new master."
 36: 0x05A5 [0x23] WAIT_FOR_DIALOG_INTERACTION
 37: 0x05A6 [0x2B] ??? (ID: 17617247/0x010CD15F) [7359*]:
    → "Now hold me high and let my blade glint in the sunlight! Let your friends, as well as your enemies, feast upon my glorious beauty!"
 38: 0x05AD [0x23] WAIT_FOR_DIALOG_INTERACTION
 39: 0x05AE [0x1A] CALL_SUBROUTINE(address=0x0E69)
 40: 0x05B1 [0x52] END_LOAD_SCHEDULER: End scheduler "2a01" with entities [LocalPlayer, LocalPlayer], work=27*
 41: 0x05C0 [0x1A] CALL_SUBROUTINE(address=0x0D93)
 42: 0x05C3 [0x21] END_EVENT
 43: 0x05C4 [0x00] END_REQSTACK()
```

### Event 27

#### Metadata

| Field        | Value     |
|--------------|-----------|
| Entrypoint   | 0x05C5    |
| Data Size    | 246 bytes |
| Instructions | 44        |

```
      00 01 02 03 04 05 06 07  08 09 0A 0B 0C 0D 0E 0F
      -- -- -- -- -- -- -- --  -- -- -- -- -- -- -- --
05C0:                1A 84 0D  27 10 F0 FF FF 7F 08 29       ...'......)
05D0: 10 57 D1 0C 01 03 29 10  57 D1 0C 01 02 80 57 D1  .W....).W.....W.
05E0: 0C 01 4A F0 FF FF 7F 57  D1 0C 01 48 00 80 23 45  ..J....W...H..#E
05F0: 01 80 F0 FF FF 7F F0 FF  FF 7F 73 79 30 31 02 80  ..........sy01..
0600: 45 03 80 F0 FF FF 7F F0  FF FF 7F 66 64 69 32 02  E..........fdi2.
0610: 80 2B 5F D1 0C 01 46 80  23 2B 5F D1 0C 01 47 80  .+_...F.#+_...G.
0620: 23 2B 5F D1 0C 01 48 80  23 1A 27 0E 27 10 57 D1  #+_...H.#.'.'.W.
0630: 0C 01 04 45 03 80 F0 FF  FF 7F F0 FF FF 7F 66 64  ...E..........fd
0640: 69 32 02 80 2B 57 D1 0C  01 49 80 23 2B 57 D1 0C  i2..+W...I.#+W..
0650: 01 4A 80 23 03 02 10 00  00 2B 57 D1 0C 01 4B 80  .J.#.....+W...K.
0660: 23 2B 57 D1 0C 01 4C 80  23 2B 57 D1 0C 01 4D 80  #+W...L.#+W...M.
0670: 23 1A 27 0E 27 10 57 D1  0C 01 05 45 03 80 F0 FF  #.'.'.W....E....
0680: FF 7F F0 FF FF 7F 66 64  69 32 02 80 2B 5F D1 0C  ......fdi2..+_..
0690: 01 4E 80 23 2B 5F D1 0C  01 4F 80 23 2B 5F D1 0C  .N.#+_...O.#+_..
06A0: 01 50 80 23 1A 69 0E 52  01 80 F0 FF FF 7F F0 FF  .P.#.i.R........
06B0: FF 7F 73 79 30 31 1A 93  0D 21 00                 ..sy01...!.     
```

#### Opcodes

```
  0: 0x05C5 [0x1A] CALL_SUBROUTINE(address=0x0D84)
  1: 0x05C8 [0x27] REQ_SET(priority=0x10, entity_id=LocalPlayer, tag_num=0x08)
  2: 0x05CF [0x29] REQ_SET_WAIT(priority=0x10, entity_id=Fonove (ID: 17617239/0x010CD157), tag_num=0x03)
  3: 0x05D6 [0x29] REQ_SET_WAIT(priority=0x10, entity_id=Fonove (ID: 17617239/0x010CD157), tag_num=0x02)
  4: 0x05DD [0x80] LOAD_WAIT(entity=Fonove (ID: 17617239/0x010CD157))
  5: 0x05E2 [0x4A] LocalPlayer looks at Fonove (ID: 17617239/0x010CD157)
  6: 0x05EB [0x48] [System] [7292*]:
    → "You hear a voice from out of nowhere..."
  7: 0x05EE [0x23] WAIT_FOR_DIALOG_INTERACTION
  8: 0x05EF [0x45] LOAD_SCHEDULED_TASK: Load scheduler "sy01" with entities [LocalPlayer, LocalPlayer], work=[27*, 0*]
  9: 0x0600 [0x45] LOAD_SCHEDULED_TASK: Load scheduler "fdi2" with entities [LocalPlayer, LocalPlayer], work=[200*, 0*]
 10: 0x0611 [0x2B] ??? (ID: 17617247/0x010CD15F) [7360*]:
    → "... You have found me."
 11: 0x0618 [0x23] WAIT_FOR_DIALOG_INTERACTION
 12: 0x0619 [0x2B] ??? (ID: 17617247/0x010CD15F) [7361*]:
    → "My forbidden power is now yours, and I am liberated from my prison."
 13: 0x0620 [0x23] WAIT_FOR_DIALOG_INTERACTION
 14: 0x0621 [0x2B] ??? (ID: 17617247/0x010CD15F) [7362*]:
    → "You have but to gain her respect..."
 15: 0x0628 [0x23] WAIT_FOR_DIALOG_INTERACTION
 16: 0x0629 [0x1A] CALL_SUBROUTINE(address=0x0E27)
 17: 0x062C [0x27] REQ_SET(priority=0x10, entity_id=Fonove (ID: 17617239/0x010CD157), tag_num=0x04)
 18: 0x0633 [0x45] LOAD_SCHEDULED_TASK: Load scheduler "fdi2" with entities [LocalPlayer, LocalPlayer], work=[200*, 0*]
 19: 0x0644 [0x2B] Fonove (ID: 17617239/0x010CD157) [7363*]:
    → "Such a long dream I was having..."
 20: 0x064B [0x23] WAIT_FOR_DIALOG_INTERACTION
 21: 0x064C [0x2B] Fonove (ID: 17617239/0x010CD157) [7364*]:
    → "It was a dream held captive by a shrouded world. No. I must accept that it was no dream."
 22: 0x0653 [0x23] WAIT_FOR_DIALOG_INTERACTION
 23: 0x0654 [0x03] Work_Zone[2] = ExtData[1]->WorkLocal[0]
 24: 0x0659 [0x2B] Fonove (ID: 17617239/0x010CD157) [7365*]:
    → "And you? Do you seek the same darkness that I did... It seems you have already found your way to $0."
 25: 0x0660 [0x23] WAIT_FOR_DIALOG_INTERACTION
 26: 0x0661 [0x2B] Fonove (ID: 17617239/0x010CD157) [7366*]:
    → "Very well, I will pass it on to you. But do not forget how much blood your companions spilled in your search for its unholy strength."
 27: 0x0668 [0x23] WAIT_FOR_DIALOG_INTERACTION
 28: 0x0669 [0x2B] Fonove (ID: 17617239/0x010CD157) [7367*]:
    → "And think long and hard on whether or not this power should be used. Do not end up like me..."
 29: 0x0670 [0x23] WAIT_FOR_DIALOG_INTERACTION
 30: 0x0671 [0x1A] CALL_SUBROUTINE(address=0x0E27)
 31: 0x0674 [0x27] REQ_SET(priority=0x10, entity_id=Fonove (ID: 17617239/0x010CD157), tag_num=0x05)
 32: 0x067B [0x45] LOAD_SCHEDULED_TASK: Load scheduler "fdi2" with entities [LocalPlayer, LocalPlayer], work=[200*, 0*]
 33: 0x068C [0x2B] ??? (ID: 17617247/0x010CD15F) [7368*]:
    → "..."
 34: 0x0693 [0x23] WAIT_FOR_DIALOG_INTERACTION
 35: 0x0694 [0x2B] ??? (ID: 17617247/0x010CD15F) [7369*]:
    → "Heh. Heh heh. Hahahahahahaha!"
 36: 0x069B [0x23] WAIT_FOR_DIALOG_INTERACTION
 37: 0x069C [0x2B] ??? (ID: 17617247/0x010CD15F) [7370*]:
    → "Well, my new master, is it not time to begin the journey for ever greater power? There are enemies yet to fell, and blood yet to spill..."
 38: 0x06A3 [0x23] WAIT_FOR_DIALOG_INTERACTION
 39: 0x06A4 [0x1A] CALL_SUBROUTINE(address=0x0E69)
 40: 0x06A7 [0x52] END_LOAD_SCHEDULER: End scheduler "sy01" with entities [LocalPlayer, LocalPlayer], work=27*
 41: 0x06B6 [0x1A] CALL_SUBROUTINE(address=0x0D93)
 42: 0x06B9 [0x21] END_EVENT
 43: 0x06BA [0x00] END_REQSTACK()
```

### Event 28

#### Metadata

| Field        | Value     |
|--------------|-----------|
| Entrypoint   | 0x06BB    |
| Data Size    | 246 bytes |
| Instructions | 44        |

```
      00 01 02 03 04 05 06 07  08 09 0A 0B 0C 0D 0E 0F
      -- -- -- -- -- -- -- --  -- -- -- -- -- -- -- --
06B0:                                   1A 84 0D 27 10             ...'.
06C0: F0 FF FF 7F 09 29 10 58  D1 0C 01 03 29 10 58 D1  .....).X....).X.
06D0: 0C 01 02 80 58 D1 0C 01  4A F0 FF FF 7F 58 D1 0C  ....X...J....X..
06E0: 01 48 00 80 23 45 01 80  F0 FF FF 7F F0 FF FF 7F  .H..#E..........
06F0: 6C 6E 30 31 02 80 45 03  80 F0 FF FF 7F F0 FF FF  ln01..E.........
0700: 7F 66 64 69 32 02 80 2B  5F D1 0C 01 51 80 23 2B  .fdi2..+_...Q.#+
0710: 5F D1 0C 01 52 80 23 2B  5F D1 0C 01 53 80 23 1A  _...R.#+_...S.#.
0720: 27 0E 27 10 58 D1 0C 01  04 45 03 80 F0 FF FF 7F  '.'.X....E......
0730: F0 FF FF 7F 66 64 69 32  02 80 2B 58 D1 0C 01 54  ....fdi2..+X...T
0740: 80 23 2B 58 D1 0C 01 55  80 23 03 02 10 00 00 2B  .#+X...U.#.....+
0750: 58 D1 0C 01 56 80 23 2B  58 D1 0C 01 57 80 23 2B  X...V.#+X...W.#+
0760: 58 D1 0C 01 58 80 23 1A  27 0E 27 10 58 D1 0C 01  X...X.#.'.'.X...
0770: 05 45 03 80 F0 FF FF 7F  F0 FF FF 7F 66 64 69 32  .E..........fdi2
0780: 02 80 2B 5F D1 0C 01 59  80 23 2B 5F D1 0C 01 5A  ..+_...Y.#+_...Z
0790: 80 23 2B 5F D1 0C 01 5B  80 23 1A 69 0E 52 01 80  .#+_...[.#.i.R..
07A0: F0 FF FF 7F F0 FF FF 7F  6C 6E 30 31 1A 93 0D 21  ........ln01...!
07B0: 00                                                .               
```

#### Opcodes

```
  0: 0x06BB [0x1A] CALL_SUBROUTINE(address=0x0D84)
  1: 0x06BE [0x27] REQ_SET(priority=0x10, entity_id=LocalPlayer, tag_num=0x09)
  2: 0x06C5 [0x29] REQ_SET_WAIT(priority=0x10, entity_id=Dzhau Yaam (ID: 17617240/0x010CD158), tag_num=0x03)
  3: 0x06CC [0x29] REQ_SET_WAIT(priority=0x10, entity_id=Dzhau Yaam (ID: 17617240/0x010CD158), tag_num=0x02)
  4: 0x06D3 [0x80] LOAD_WAIT(entity=Dzhau Yaam (ID: 17617240/0x010CD158))
  5: 0x06D8 [0x4A] LocalPlayer looks at Dzhau Yaam (ID: 17617240/0x010CD158)
  6: 0x06E1 [0x48] [System] [7292*]:
    → "You hear a voice from out of nowhere..."
  7: 0x06E4 [0x23] WAIT_FOR_DIALOG_INTERACTION
  8: 0x06E5 [0x45] LOAD_SCHEDULED_TASK: Load scheduler "ln01" with entities [LocalPlayer, LocalPlayer], work=[27*, 0*]
  9: 0x06F6 [0x45] LOAD_SCHEDULED_TASK: Load scheduler "fdi2" with entities [LocalPlayer, LocalPlayer], work=[200*, 0*]
 10: 0x0707 [0x2B] ??? (ID: 17617247/0x010CD15F) [7371*]:
    → "... You have unearthed me at last."
 11: 0x070E [0x23] WAIT_FOR_DIALOG_INTERACTION
 12: 0x070F [0x2B] ??? (ID: 17617247/0x010CD15F) [7372*]:
    → "I am free from Dynamis, free to fly through the heavens once more."
 13: 0x0716 [0x23] WAIT_FOR_DIALOG_INTERACTION
 14: 0x0717 [0x2B] ??? (ID: 17617247/0x010CD15F) [7373*]:
    → "All that remains is..."
 15: 0x071E [0x23] WAIT_FOR_DIALOG_INTERACTION
 16: 0x071F [0x1A] CALL_SUBROUTINE(address=0x0E27)
 17: 0x0722 [0x27] REQ_SET(priority=0x10, entity_id=Dzhau Yaam (ID: 17617240/0x010CD158), tag_num=0x04)
 18: 0x0729 [0x45] LOAD_SCHEDULED_TASK: Load scheduler "fdi2" with entities [LocalPlayer, LocalPlayer], work=[200*, 0*]
 19: 0x073A [0x2B] Dzhau Yaam (ID: 17617240/0x010CD158) [7374*]:
    → "Hello? Is it possible that I..."
 20: 0x0741 [0x23] WAIT_FOR_DIALOG_INTERACTION
 21: 0x0742 [0x2B] Dzhau Yaam (ID: 17617240/0x010CD158) [7375*]:
    → "But, no. I have not returned to this realm... You. You are to be my successor?"
 22: 0x0749 [0x23] WAIT_FOR_DIALOG_INTERACTION
 23: 0x074A [0x03] Work_Zone[2] = ExtData[1]->WorkLocal[0]
 24: 0x074F [0x2B] Dzhau Yaam (ID: 17617240/0x010CD158) [7376*]:
    → "You certainly seem to have the required skill with the lance. Enough to convince $0 to lend you its power, at any rate."
 25: 0x0756 [0x23] WAIT_FOR_DIALOG_INTERACTION
 26: 0x0757 [0x2B] Dzhau Yaam (ID: 17617240/0x010CD158) [7377*]:
    → "Having this spear on the battlefield makes you a match for almost any opponent."
 27: 0x075E [0x23] WAIT_FOR_DIALOG_INTERACTION
 28: 0x075F [0x2B] Dzhau Yaam (ID: 17617240/0x010CD158) [7378*]:
    → "Think well on what this means, and on how a weapon like this should be used. You have my admiration, adventurer. You have done well..."
 29: 0x0766 [0x23] WAIT_FOR_DIALOG_INTERACTION
 30: 0x0767 [0x1A] CALL_SUBROUTINE(address=0x0E27)
 31: 0x076A [0x27] REQ_SET(priority=0x10, entity_id=Dzhau Yaam (ID: 17617240/0x010CD158), tag_num=0x05)
 32: 0x0771 [0x45] LOAD_SCHEDULED_TASK: Load scheduler "fdi2" with entities [LocalPlayer, LocalPlayer], work=[200*, 0*]
 33: 0x0782 [0x2B] ??? (ID: 17617247/0x010CD15F) [7379*]:
    → "..."
 34: 0x0789 [0x23] WAIT_FOR_DIALOG_INTERACTION
 35: 0x078A [0x2B] ??? (ID: 17617247/0x010CD15F) [7380*]:
    → "The ceremony of inheritance is complete."
 36: 0x0791 [0x23] WAIT_FOR_DIALOG_INTERACTION
 37: 0x0792 [0x2B] ??? (ID: 17617247/0x010CD15F) [7381*]:
    → "It is time for you to go forth and experience my overwhelming strength..."
 38: 0x0799 [0x23] WAIT_FOR_DIALOG_INTERACTION
 39: 0x079A [0x1A] CALL_SUBROUTINE(address=0x0E69)
 40: 0x079D [0x52] END_LOAD_SCHEDULER: End scheduler "ln01" with entities [LocalPlayer, LocalPlayer], work=27*
 41: 0x07AC [0x1A] CALL_SUBROUTINE(address=0x0D93)
 42: 0x07AF [0x21] END_EVENT
 43: 0x07B0 [0x00] END_REQSTACK()
```

### Event 29

#### Metadata

| Field        | Value     |
|--------------|-----------|
| Entrypoint   | 0x07B1    |
| Data Size    | 246 bytes |
| Instructions | 44        |

```
      00 01 02 03 04 05 06 07  08 09 0A 0B 0C 0D 0E 0F
      -- -- -- -- -- -- -- --  -- -- -- -- -- -- -- --
07B0:    1A 84 0D 27 10 F0 FF  FF 7F 0A 29 10 59 D1 0C   ...'......).Y..
07C0: 01 03 29 10 59 D1 0C 01  02 80 59 D1 0C 01 4A F0  ..).Y.....Y...J.
07D0: FF FF 7F 59 D1 0C 01 48  00 80 23 45 01 80 F0 FF  ...Y...H..#E....
07E0: FF 7F F0 FF FF 7F 31 6B  30 31 02 80 45 03 80 F0  ......1k01..E...
07F0: FF FF 7F F0 FF FF 7F 66  64 69 32 02 80 2B 5F D1  .......fdi2..+_.
0800: 0C 01 5C 80 23 2B 5F D1  0C 01 5D 80 23 2B 5F D1  ..\.#+_...].#+_.
0810: 0C 01 5E 80 23 1A 27 0E  27 10 59 D1 0C 01 04 45  ..^.#.'.'.Y....E
0820: 03 80 F0 FF FF 7F F0 FF  FF 7F 66 64 69 32 02 80  ..........fdi2..
0830: 2B 59 D1 0C 01 5F 80 23  2B 59 D1 0C 01 60 80 23  +Y..._.#+Y...`.#
0840: 03 02 10 00 00 2B 59 D1  0C 01 61 80 23 2B 59 D1  .....+Y...a.#+Y.
0850: 0C 01 62 80 23 2B 59 D1  0C 01 63 80 23 1A 27 0E  ..b.#+Y...c.#.'.
0860: 27 10 59 D1 0C 01 05 45  03 80 F0 FF FF 7F F0 FF  '.Y....E........
0870: FF 7F 66 64 69 32 02 80  2B 5F D1 0C 01 64 80 23  ..fdi2..+_...d.#
0880: 2B 5F D1 0C 01 65 80 23  2B 5F D1 0C 01 66 80 23  +_...e.#+_...f.#
0890: 1A 69 0E 52 01 80 F0 FF  FF 7F F0 FF FF 7F 31 6B  .i.R..........1k
08A0: 30 31 1A 93 0D 21 00                              01...!.         
```

#### Opcodes

```
  0: 0x07B1 [0x1A] CALL_SUBROUTINE(address=0x0D84)
  1: 0x07B4 [0x27] REQ_SET(priority=0x10, entity_id=LocalPlayer, tag_num=0x0A)
  2: 0x07BB [0x29] REQ_SET_WAIT(priority=0x10, entity_id=Kupalu-Harupalu (ID: 17617241/0x010CD159), tag_num=0x03)
  3: 0x07C2 [0x29] REQ_SET_WAIT(priority=0x10, entity_id=Kupalu-Harupalu (ID: 17617241/0x010CD159), tag_num=0x02)
  4: 0x07C9 [0x80] LOAD_WAIT(entity=Kupalu-Harupalu (ID: 17617241/0x010CD159))
  5: 0x07CE [0x4A] LocalPlayer looks at Kupalu-Harupalu (ID: 17617241/0x010CD159)
  6: 0x07D7 [0x48] [System] [7292*]:
    → "You hear a voice from out of nowhere..."
  7: 0x07DA [0x23] WAIT_FOR_DIALOG_INTERACTION
  8: 0x07DB [0x45] LOAD_SCHEDULED_TASK: Load scheduler "1k01" with entities [LocalPlayer, LocalPlayer], work=[27*, 0*]
  9: 0x07EC [0x45] LOAD_SCHEDULED_TASK: Load scheduler "fdi2" with entities [LocalPlayer, LocalPlayer], work=[200*, 0*]
 10: 0x07FD [0x2B] ??? (ID: 17617247/0x010CD15F) [7382*]:
    → "... I have been rediscovered at last."
 11: 0x0804 [0x23] WAIT_FOR_DIALOG_INTERACTION
 12: 0x0805 [0x2B] ??? (ID: 17617247/0x010CD15F) [7383*]:
    → "Thanks to you, I have made my escape from the shrouded land."
 13: 0x080C [0x23] WAIT_FOR_DIALOG_INTERACTION
 14: 0x080D [0x2B] ??? (ID: 17617247/0x010CD15F) [7384*]:
    → "You must now gain the sanction of my master..."
 15: 0x0814 [0x23] WAIT_FOR_DIALOG_INTERACTION
 16: 0x0815 [0x1A] CALL_SUBROUTINE(address=0x0E27)
 17: 0x0818 [0x27] REQ_SET(priority=0x10, entity_id=Kupalu-Harupalu (ID: 17617241/0x010CD159), tag_num=0x04)
 18: 0x081F [0x45] LOAD_SCHEDULED_TASK: Load scheduler "fdi2" with entities [LocalPlayer, LocalPlayer], work=[200*, 0*]
 19: 0x0830 [0x2B] Kupalu-Harupalu (ID: 17617241/0x010CD159) [7385*]:
    → "It is a pity, indeed."
 20: 0x0837 [0x23] WAIT_FOR_DIALOG_INTERACTION
 21: 0x0838 [0x2B] Kupalu-Harupalu (ID: 17617241/0x010CD159) [7386*]:
    → "This day has come far too soon for my liking."
 22: 0x083F [0x23] WAIT_FOR_DIALOG_INTERACTION
 23: 0x0840 [0x03] Work_Zone[2] = ExtData[1]->WorkLocal[0]
 24: 0x0845 [0x2B] Kupalu-Harupalu (ID: 17617241/0x010CD159) [7387*]:
    → "However, you are a master of the ninja trade. I concede that you will make a fitting wielder of the $0."
 25: 0x084C [0x23] WAIT_FOR_DIALOG_INTERACTION
 26: 0x084D [0x2B] Kupalu-Harupalu (ID: 17617241/0x010CD159) [7388*]:
    → "Take this blade as your own. Travel far down the path of the ninja."
 27: 0x0854 [0x23] WAIT_FOR_DIALOG_INTERACTION
 28: 0x0855 [0x2B] Kupalu-Harupalu (ID: 17617241/0x010CD159) [7389*]:
    → "I will be watching you from the shadows..."
 29: 0x085C [0x23] WAIT_FOR_DIALOG_INTERACTION
 30: 0x085D [0x1A] CALL_SUBROUTINE(address=0x0E27)
 31: 0x0860 [0x27] REQ_SET(priority=0x10, entity_id=Kupalu-Harupalu (ID: 17617241/0x010CD159), tag_num=0x05)
 32: 0x0867 [0x45] LOAD_SCHEDULED_TASK: Load scheduler "fdi2" with entities [LocalPlayer, LocalPlayer], work=[200*, 0*]
 33: 0x0878 [0x2B] ??? (ID: 17617247/0x010CD15F) [7390*]:
    → "..."
 34: 0x087F [0x23] WAIT_FOR_DIALOG_INTERACTION
 35: 0x0880 [0x2B] ??? (ID: 17617247/0x010CD15F) [7391*]:
    → "A fine master..."
 36: 0x0887 [0x23] WAIT_FOR_DIALOG_INTERACTION
 37: 0x0888 [0x2B] ??? (ID: 17617247/0x010CD15F) [7392*]:
    → "My keen edge is now yours to wield. A sharpness said to make even demons wail..."
 38: 0x088F [0x23] WAIT_FOR_DIALOG_INTERACTION
 39: 0x0890 [0x1A] CALL_SUBROUTINE(address=0x0E69)
 40: 0x0893 [0x52] END_LOAD_SCHEDULER: End scheduler "1k01" with entities [LocalPlayer, LocalPlayer], work=27*
 41: 0x08A2 [0x1A] CALL_SUBROUTINE(address=0x0D93)
 42: 0x08A5 [0x21] END_EVENT
 43: 0x08A6 [0x00] END_REQSTACK()
```

### Event 30

#### Metadata

| Field        | Value     |
|--------------|-----------|
| Entrypoint   | 0x08A7    |
| Data Size    | 255 bytes |
| Instructions | 45        |

```
      00 01 02 03 04 05 06 07  08 09 0A 0B 0C 0D 0E 0F
      -- -- -- -- -- -- -- --  -- -- -- -- -- -- -- --
08A0:                      1A  84 0D 27 10 F0 FF FF 7F         ...'.....
08B0: 0B 29 10 5A D1 0C 01 03  29 10 5A D1 0C 01 02 80  .).Z....).Z.....
08C0: 5A D1 0C 01 4A F0 FF FF  7F 5A D1 0C 01 4A 5A D1  Z...J....Z...JZ.
08D0: 0C 01 F0 FF FF 7F 48 00  80 23 45 01 80 F0 FF FF  ......H..#E.....
08E0: 7F F0 FF FF 7F 32 6B 30  31 02 80 45 03 80 F0 FF  .....2k01..E....
08F0: FF 7F F0 FF FF 7F 66 64  69 32 02 80 2B 5F D1 0C  ......fdi2..+_..
0900: 01 67 80 23 2B 5F D1 0C  01 68 80 23 2B 5F D1 0C  .g.#+_...h.#+_..
0910: 01 69 80 23 1A 27 0E 27  10 5A D1 0C 01 04 45 03  .i.#.'.'.Z....E.
0920: 80 F0 FF FF 7F F0 FF FF  7F 66 64 69 32 02 80 2B  .........fdi2..+
0930: 5A D1 0C 01 6A 80 23 2B  5A D1 0C 01 6B 80 23 03  Z...j.#+Z...k.#.
0940: 02 10 00 00 2B 5A D1 0C  01 6C 80 23 2B 5A D1 0C  ....+Z...l.#+Z..
0950: 01 6D 80 23 2B 5A D1 0C  01 6E 80 23 1A 27 0E 27  .m.#+Z...n.#.'.'
0960: 10 5A D1 0C 01 05 45 03  80 F0 FF FF 7F F0 FF FF  .Z....E.........
0970: 7F 66 64 69 32 02 80 2B  5F D1 0C 01 6F 80 23 2B  .fdi2..+_...o.#+
0980: 5F D1 0C 01 70 80 23 2B  5F D1 0C 01 71 80 23 1A  _...p.#+_...q.#.
0990: 69 0E 52 01 80 F0 FF FF  7F F0 FF FF 7F 32 6B 30  i.R..........2k0
09A0: 31 1A 93 0D 21 00                                 1...!.          
```

#### Opcodes

```
  0: 0x08A7 [0x1A] CALL_SUBROUTINE(address=0x0D84)
  1: 0x08AA [0x27] REQ_SET(priority=0x10, entity_id=LocalPlayer, tag_num=0x0B)
  2: 0x08B1 [0x29] REQ_SET_WAIT(priority=0x10, entity_id=Noillurie (ID: 17617242/0x010CD15A), tag_num=0x03)
  3: 0x08B8 [0x29] REQ_SET_WAIT(priority=0x10, entity_id=Noillurie (ID: 17617242/0x010CD15A), tag_num=0x02)
  4: 0x08BF [0x80] LOAD_WAIT(entity=Noillurie (ID: 17617242/0x010CD15A))
  5: 0x08C4 [0x4A] LocalPlayer looks at Noillurie (ID: 17617242/0x010CD15A)
  6: 0x08CD [0x4A] Noillurie (ID: 17617242/0x010CD15A) looks at LocalPlayer
  7: 0x08D6 [0x48] [System] [7292*]:
    → "You hear a voice from out of nowhere..."
  8: 0x08D9 [0x23] WAIT_FOR_DIALOG_INTERACTION
  9: 0x08DA [0x45] LOAD_SCHEDULED_TASK: Load scheduler "2k01" with entities [LocalPlayer, LocalPlayer], work=[27*, 0*]
 10: 0x08EB [0x45] LOAD_SCHEDULED_TASK: Load scheduler "fdi2" with entities [LocalPlayer, LocalPlayer], work=[200*, 0*]
 11: 0x08FC [0x2B] ??? (ID: 17617247/0x010CD15F) [7393*]:
    → "... This day has finally come."
 12: 0x0903 [0x23] WAIT_FOR_DIALOG_INTERACTION
 13: 0x0904 [0x2B] ??? (ID: 17617247/0x010CD15F) [7394*]:
    → "I am to be released to this world for the first time in an age. Is this reason to celebrate, or despair...?"
 14: 0x090B [0x23] WAIT_FOR_DIALOG_INTERACTION
 15: 0x090C [0x2B] ??? (ID: 17617247/0x010CD15F) [7395*]:
    → "In any event..."
 16: 0x0913 [0x23] WAIT_FOR_DIALOG_INTERACTION
 17: 0x0914 [0x1A] CALL_SUBROUTINE(address=0x0E27)
 18: 0x0917 [0x27] REQ_SET(priority=0x10, entity_id=Noillurie (ID: 17617242/0x010CD15A), tag_num=0x04)
 19: 0x091E [0x45] LOAD_SCHEDULED_TASK: Load scheduler "fdi2" with entities [LocalPlayer, LocalPlayer], work=[200*, 0*]
 20: 0x092F [0x2B] Noillurie (ID: 17617242/0x010CD15A) [7396*]:
    → "What is going on here?"
 21: 0x0936 [0x23] WAIT_FOR_DIALOG_INTERACTION
 22: 0x0937 [0x2B] Noillurie (ID: 17617242/0x010CD15A) [7397*]:
    → "Ah, my successor has come."
 23: 0x093E [0x23] WAIT_FOR_DIALOG_INTERACTION
 24: 0x093F [0x03] Work_Zone[2] = ExtData[1]->WorkLocal[0]
 25: 0x0944 [0x2B] Noillurie (ID: 17617242/0x010CD15A) [7398*]:
    → "I sought to master the way of the samurai, and traveled to the Far East for training. By the time I had gained the $0 and returned to my home, the Great War had begun."
 26: 0x094B [0x23] WAIT_FOR_DIALOG_INTERACTION
 27: 0x094C [0x2B] Noillurie (ID: 17617242/0x010CD15A) [7399*]:
    → "When I think on it, my life has been a long road of trials. But to see the arrival of my successor makes me feel that all has not been in vain."
 28: 0x0953 [0x23] WAIT_FOR_DIALOG_INTERACTION
 29: 0x0954 [0x2B] Noillurie (ID: 17617242/0x010CD15A) [7400*]:
    → "You have my gratitude. Farewell, $0..."
 30: 0x095B [0x23] WAIT_FOR_DIALOG_INTERACTION
 31: 0x095C [0x1A] CALL_SUBROUTINE(address=0x0E27)
 32: 0x095F [0x27] REQ_SET(priority=0x10, entity_id=Noillurie (ID: 17617242/0x010CD15A), tag_num=0x05)
 33: 0x0966 [0x45] LOAD_SCHEDULED_TASK: Load scheduler "fdi2" with entities [LocalPlayer, LocalPlayer], work=[200*, 0*]
 34: 0x0977 [0x2B] ??? (ID: 17617247/0x010CD15F) [7401*]:
    → "..."
 35: 0x097E [0x23] WAIT_FOR_DIALOG_INTERACTION
 36: 0x097F [0x2B] ??? (ID: 17617247/0x010CD15F) [7402*]:
    → "It has been a hard path to reach this point."
 37: 0x0986 [0x23] WAIT_FOR_DIALOG_INTERACTION
 38: 0x0987 [0x2B] ??? (ID: 17617247/0x010CD15F) [7403*]:
    → "But your journey in the way of the samurai has just begun. You have yet to attain perfection. Let us continue your training..."
 39: 0x098E [0x23] WAIT_FOR_DIALOG_INTERACTION
 40: 0x098F [0x1A] CALL_SUBROUTINE(address=0x0E69)
 41: 0x0992 [0x52] END_LOAD_SCHEDULER: End scheduler "2k01" with entities [LocalPlayer, LocalPlayer], work=27*
 42: 0x09A1 [0x1A] CALL_SUBROUTINE(address=0x0D93)
 43: 0x09A4 [0x21] END_EVENT
 44: 0x09A5 [0x00] END_REQSTACK()
```

### Event 32

#### Metadata

| Field        | Value     |
|--------------|-----------|
| Entrypoint   | 0x09A6    |
| Data Size    | 246 bytes |
| Instructions | 44        |

```
      00 01 02 03 04 05 06 07  08 09 0A 0B 0C 0D 0E 0F
      -- -- -- -- -- -- -- --  -- -- -- -- -- -- -- --
09A0:                   1A 84  0D 27 10 F0 FF FF 7F 0D        ...'......
09B0: 29 10 5B D1 0C 01 03 29  10 5B D1 0C 01 02 80 5B  ).[....).[.....[
09C0: D1 0C 01 4A F0 FF FF 7F  5B D1 0C 01 48 00 80 23  ...J....[...H..#
09D0: 45 01 80 F0 FF FF 7F F0  FF FF 7F 73 74 30 31 02  E..........st01.
09E0: 80 45 03 80 F0 FF FF 7F  F0 FF FF 7F 66 64 69 32  .E..........fdi2
09F0: 02 80 2B 5F D1 0C 01 72  80 23 2B 5F D1 0C 01 73  ..+_...r.#+_...s
0A00: 80 23 2B 5F D1 0C 01 74  80 23 1A 27 0E 27 10 5B  .#+_...t.#.'.'.[
0A10: D1 0C 01 04 45 03 80 F0  FF FF 7F F0 FF FF 7F 66  ....E..........f
0A20: 64 69 32 02 80 2B 5B D1  0C 01 75 80 23 2B 5B D1  di2..+[...u.#+[.
0A30: 0C 01 76 80 23 03 02 10  00 00 2B 5B D1 0C 01 77  ..v.#.....+[...w
0A40: 80 23 2B 5B D1 0C 01 78  80 23 2B 5B D1 0C 01 79  .#+[...x.#+[...y
0A50: 80 23 1A 27 0E 27 10 5B  D1 0C 01 05 45 03 80 F0  .#.'.'.[....E...
0A60: FF FF 7F F0 FF FF 7F 66  64 69 32 02 80 2B 5F D1  .......fdi2..+_.
0A70: 0C 01 7A 80 23 2B 5F D1  0C 01 7B 80 23 2B 5F D1  ..z.#+_...{.#+_.
0A80: 0C 01 7C 80 23 1A 69 0E  52 01 80 F0 FF FF 7F F0  ..|.#.i.R.......
0A90: FF FF 7F 73 74 30 31 1A  93 0D 21 00              ...st01...!.    
```

#### Opcodes

```
  0: 0x09A6 [0x1A] CALL_SUBROUTINE(address=0x0D84)
  1: 0x09A9 [0x27] REQ_SET(priority=0x10, entity_id=LocalPlayer, tag_num=0x0D)
  2: 0x09B0 [0x29] REQ_SET_WAIT(priority=0x10, entity_id=Umon-Paumon (ID: 17617243/0x010CD15B), tag_num=0x03)
  3: 0x09B7 [0x29] REQ_SET_WAIT(priority=0x10, entity_id=Umon-Paumon (ID: 17617243/0x010CD15B), tag_num=0x02)
  4: 0x09BE [0x80] LOAD_WAIT(entity=Umon-Paumon (ID: 17617243/0x010CD15B))
  5: 0x09C3 [0x4A] LocalPlayer looks at Umon-Paumon (ID: 17617243/0x010CD15B)
  6: 0x09CC [0x48] [System] [7292*]:
    → "You hear a voice from out of nowhere..."
  7: 0x09CF [0x23] WAIT_FOR_DIALOG_INTERACTION
  8: 0x09D0 [0x45] LOAD_SCHEDULED_TASK: Load scheduler "st01" with entities [LocalPlayer, LocalPlayer], work=[27*, 0*]
  9: 0x09E1 [0x45] LOAD_SCHEDULED_TASK: Load scheduler "fdi2" with entities [LocalPlayer, LocalPlayer], work=[200*, 0*]
 10: 0x09F2 [0x2B] ??? (ID: 17617247/0x010CD15F) [7415*]:
    → "... So, you have found me."
 11: 0x09F9 [0x23] WAIT_FOR_DIALOG_INTERACTION
 12: 0x09FA [0x2B] ??? (ID: 17617247/0x010CD15F) [7416*]:
    → "I must give you my thanks. I have been freed from the hell of Dynamis and can regain my true power once again."
 13: 0x0A01 [0x23] WAIT_FOR_DIALOG_INTERACTION
 14: 0x0A02 [0x2B] ??? (ID: 17617247/0x010CD15F) [7417*]:
    → "And now..."
 15: 0x0A09 [0x23] WAIT_FOR_DIALOG_INTERACTION
 16: 0x0A0A [0x1A] CALL_SUBROUTINE(address=0x0E27)
 17: 0x0A0D [0x27] REQ_SET(priority=0x10, entity_id=Umon-Paumon (ID: 17617243/0x010CD15B), tag_num=0x04)
 18: 0x0A14 [0x45] LOAD_SCHEDULED_TASK: Load scheduler "fdi2" with entities [LocalPlayer, LocalPlayer], work=[200*, 0*]
 19: 0x0A25 [0x2B] Umon-Paumon (ID: 17617243/0x010CD15B) [7418*]:
    → "Hwaah!"
 20: 0x0A2C [0x23] WAIT_FOR_DIALOG_INTERACTION
 21: 0x0A2D [0x2B] Umon-Paumon (ID: 17617243/0x010CD15B) [7419*]:
    → "Just when I thought I had finally returned to this world, I find you standing here, ready to snatch my precious staff away."
 22: 0x0A34 [0x23] WAIT_FOR_DIALOG_INTERACTION
 23: 0x0A35 [0x03] Work_Zone[2] = ExtData[1]->WorkLocal[0]
 24: 0x0A3A [0x2B] Umon-Paumon (ID: 17617243/0x010CD15B) [7420*]:
    → "Well, it's for the best, I suppose. In my current state, $0 is nothing more than an ornament, its power going to waste."
 25: 0x0A41 [0x23] WAIT_FOR_DIALOG_INTERACTION
 26: 0x0A42 [0x2B] Umon-Paumon (ID: 17617243/0x010CD15B) [7421*]:
    → "I entrust this staff to you! Take up $0, <Player>, and bind it to you in a contract of blood!"
 27: 0x0A49 [0x23] WAIT_FOR_DIALOG_INTERACTION
 28: 0x0A4A [0x2B] Umon-Paumon (ID: 17617243/0x010CD15B) [7422*]:
    → "I take my leave of you now. I only wish that I was able to stay a little longer..."
 29: 0x0A51 [0x23] WAIT_FOR_DIALOG_INTERACTION
 30: 0x0A52 [0x1A] CALL_SUBROUTINE(address=0x0E27)
 31: 0x0A55 [0x27] REQ_SET(priority=0x10, entity_id=Umon-Paumon (ID: 17617243/0x010CD15B), tag_num=0x05)
 32: 0x0A5C [0x45] LOAD_SCHEDULED_TASK: Load scheduler "fdi2" with entities [LocalPlayer, LocalPlayer], work=[200*, 0*]
 33: 0x0A6D [0x2B] ??? (ID: 17617247/0x010CD15F) [7423*]:
    → "..."
 34: 0x0A74 [0x23] WAIT_FOR_DIALOG_INTERACTION
 35: 0x0A75 [0x2B] ??? (ID: 17617247/0x010CD15F) [7424*]:
    → "I am yours to wield."
 36: 0x0A7C [0x23] WAIT_FOR_DIALOG_INTERACTION
 37: 0x0A7D [0x2B] ??? (ID: 17617247/0x010CD15F) [7425*]:
    → "But you are not yet my master. By watching your actions from this time onwards, I will decide if you are worthy of the title..."
 38: 0x0A84 [0x23] WAIT_FOR_DIALOG_INTERACTION
 39: 0x0A85 [0x1A] CALL_SUBROUTINE(address=0x0E69)
 40: 0x0A88 [0x52] END_LOAD_SCHEDULER: End scheduler "st01" with entities [LocalPlayer, LocalPlayer], work=27*
 41: 0x0A97 [0x1A] CALL_SUBROUTINE(address=0x0D93)
 42: 0x0A9A [0x21] END_EVENT
 43: 0x0A9B [0x00] END_REQSTACK()
```

### Event 33

#### Metadata

| Field        | Value     |
|--------------|-----------|
| Entrypoint   | 0x0A9C    |
| Data Size    | 246 bytes |
| Instructions | 44        |

```
      00 01 02 03 04 05 06 07  08 09 0A 0B 0C 0D 0E 0F
      -- -- -- -- -- -- -- --  -- -- -- -- -- -- -- --
0A90:                                      1A 84 0D 27              ...'
0AA0: 10 F0 FF FF 7F 0E 29 10  5C D1 0C 01 03 29 10 5C  ......).\....).\
0AB0: D1 0C 01 02 80 5C D1 0C  01 4A F0 FF FF 7F 5C D1  .....\...J....\.
0AC0: 0C 01 48 00 80 23 45 01  80 F0 FF FF 7F F0 FF FF  ..H..#E.........
0AD0: 7F 62 6F 30 31 02 80 45  03 80 F0 FF FF 7F F0 FF  .bo01..E........
0AE0: FF 7F 66 64 69 32 02 80  2B 5F D1 0C 01 7D 80 23  ..fdi2..+_...}.#
0AF0: 2B 5F D1 0C 01 7E 80 23  2B 5F D1 0C 01 7F 80 23  +_...~.#+_.....#
0B00: 1A 27 0E 27 10 5C D1 0C  01 04 45 03 80 F0 FF FF  .'.'.\....E.....
0B10: 7F F0 FF FF 7F 66 64 69  32 02 80 2B 5C D1 0C 01  .....fdi2..+\...
0B20: 80 80 23 2B 5C D1 0C 01  81 80 23 03 02 10 00 00  ..#+\.....#.....
0B30: 2B 5C D1 0C 01 82 80 23  2B 5C D1 0C 01 83 80 23  +\.....#+\.....#
0B40: 2B 5C D1 0C 01 84 80 23  1A 27 0E 27 10 5C D1 0C  +\.....#.'.'.\..
0B50: 01 05 45 03 80 F0 FF FF  7F F0 FF FF 7F 66 64 69  ..E..........fdi
0B60: 32 02 80 2B 5F D1 0C 01  85 80 23 2B 5F D1 0C 01  2..+_.....#+_...
0B70: 86 80 23 2B 5F D1 0C 01  87 80 23 1A 69 0E 52 01  ..#+_.....#.i.R.
0B80: 80 F0 FF FF 7F F0 FF FF  7F 62 6F 30 31 1A 93 0D  .........bo01...
0B90: 21 00                                             !.              
```

#### Opcodes

```
  0: 0x0A9C [0x1A] CALL_SUBROUTINE(address=0x0D84)
  1: 0x0A9F [0x27] REQ_SET(priority=0x10, entity_id=LocalPlayer, tag_num=0x0E)
  2: 0x0AA6 [0x29] REQ_SET_WAIT(priority=0x10, entity_id=Ghebben (ID: 17617244/0x010CD15C), tag_num=0x03)
  3: 0x0AAD [0x29] REQ_SET_WAIT(priority=0x10, entity_id=Ghebben (ID: 17617244/0x010CD15C), tag_num=0x02)
  4: 0x0AB4 [0x80] LOAD_WAIT(entity=Ghebben (ID: 17617244/0x010CD15C))
  5: 0x0AB9 [0x4A] LocalPlayer looks at Ghebben (ID: 17617244/0x010CD15C)
  6: 0x0AC2 [0x48] [System] [7292*]:
    → "You hear a voice from out of nowhere..."
  7: 0x0AC5 [0x23] WAIT_FOR_DIALOG_INTERACTION
  8: 0x0AC6 [0x45] LOAD_SCHEDULED_TASK: Load scheduler "bo01" with entities [LocalPlayer, LocalPlayer], work=[27*, 0*]
  9: 0x0AD7 [0x45] LOAD_SCHEDULED_TASK: Load scheduler "fdi2" with entities [LocalPlayer, LocalPlayer], work=[200*, 0*]
 10: 0x0AE8 [0x2B] ??? (ID: 17617247/0x010CD15F) [7426*]:
    → "... You have discovered my resting place."
 11: 0x0AEF [0x23] WAIT_FOR_DIALOG_INTERACTION
 12: 0x0AF0 [0x2B] ??? (ID: 17617247/0x010CD15F) [7427*]:
    → "The prison of souls has let loose its shackles, and I am free to loose arrows in this world once more. My thanks."
 13: 0x0AF7 [0x23] WAIT_FOR_DIALOG_INTERACTION
 14: 0x0AF8 [0x2B] ??? (ID: 17617247/0x010CD15F) [7428*]:
    → "Ah, one more test of your patience..."
 15: 0x0AFF [0x23] WAIT_FOR_DIALOG_INTERACTION
 16: 0x0B00 [0x1A] CALL_SUBROUTINE(address=0x0E27)
 17: 0x0B03 [0x27] REQ_SET(priority=0x10, entity_id=Ghebben (ID: 17617244/0x010CD15C), tag_num=0x04)
 18: 0x0B0A [0x45] LOAD_SCHEDULED_TASK: Load scheduler "fdi2" with entities [LocalPlayer, LocalPlayer], work=[200*, 0*]
 19: 0x0B1B [0x2B] Ghebben (ID: 17617244/0x010CD15C) [7429*]:
    → "Where is this place?"
 20: 0x0B22 [0x23] WAIT_FOR_DIALOG_INTERACTION
 21: 0x0B23 [0x2B] Ghebben (ID: 17617244/0x010CD15C) [7430*]:
    → "Of course. How could I forget. I am Ghebben. I was entrusted with this bow by a warrior of the Far East."
 22: 0x0B2A [0x23] WAIT_FOR_DIALOG_INTERACTION
 23: 0x0B2B [0x03] Work_Zone[2] = ExtData[1]->WorkLocal[0]
 24: 0x0B30 [0x2B] Ghebben (ID: 17617244/0x010CD15C) [7431*]:
    → "Your hands tell me that your skill in archery is far from ordinary. $0 will fit snugly into your sure grasp."
 25: 0x0B37 [0x23] WAIT_FOR_DIALOG_INTERACTION
 26: 0x0B38 [0x2B] Ghebben (ID: 17617244/0x010CD15C) [7432*]:
    → "However, this bow belongs to Sir Nasu, the warrior of whom I spoke. You must remember that you are merely its keeper for a time."
 27: 0x0B3F [0x23] WAIT_FOR_DIALOG_INTERACTION
 28: 0x0B40 [0x2B] Ghebben (ID: 17617244/0x010CD15C) [7433*]:
    → "Farewell..."
 29: 0x0B47 [0x23] WAIT_FOR_DIALOG_INTERACTION
 30: 0x0B48 [0x1A] CALL_SUBROUTINE(address=0x0E27)
 31: 0x0B4B [0x27] REQ_SET(priority=0x10, entity_id=Ghebben (ID: 17617244/0x010CD15C), tag_num=0x05)
 32: 0x0B52 [0x45] LOAD_SCHEDULED_TASK: Load scheduler "fdi2" with entities [LocalPlayer, LocalPlayer], work=[200*, 0*]
 33: 0x0B63 [0x2B] ??? (ID: 17617247/0x010CD15F) [7434*]:
    → "..."
 34: 0x0B6A [0x23] WAIT_FOR_DIALOG_INTERACTION
 35: 0x0B6B [0x2B] ??? (ID: 17617247/0x010CD15F) [7435*]:
    → "It is an honor to be owned by a just master. Sir Ghebben was a truly splendid archer."
 36: 0x0B72 [0x23] WAIT_FOR_DIALOG_INTERACTION
 37: 0x0B73 [0x2B] ??? (ID: 17617247/0x010CD15F) [7436*]:
    → "You are now the one to draw me in battle. I will be at your side on any road you choose to travel, along with the destructive power of my arrows."
 38: 0x0B7A [0x23] WAIT_FOR_DIALOG_INTERACTION
 39: 0x0B7B [0x1A] CALL_SUBROUTINE(address=0x0E69)
 40: 0x0B7E [0x52] END_LOAD_SCHEDULER: End scheduler "bo01" with entities [LocalPlayer, LocalPlayer], work=27*
 41: 0x0B8D [0x1A] CALL_SUBROUTINE(address=0x0D93)
 42: 0x0B90 [0x21] END_EVENT
 43: 0x0B91 [0x00] END_REQSTACK()
```

### Event 34

#### Metadata

| Field        | Value     |
|--------------|-----------|
| Entrypoint   | 0x0B92    |
| Data Size    | 252 bytes |
| Instructions | 46        |

```
      00 01 02 03 04 05 06 07  08 09 0A 0B 0C 0D 0E 0F
      -- -- -- -- -- -- -- --  -- -- -- -- -- -- -- --
0B90:       1A 84 0D 75 00 88  80 75 01 27 10 F0 FF FF    ...u...u.'....
0BA0: 7F 0F 29 10 5D D1 0C 01  03 29 10 5D D1 0C 01 02  ..).]....).]....
0BB0: 80 5D D1 0C 01 4A F0 FF  FF 7F 5D D1 0C 01 48 00  .]...J....]...H.
0BC0: 80 23 45 01 80 F0 FF FF  7F F0 FF FF 7F 73 68 30  .#E..........sh0
0BD0: 31 02 80 45 03 80 F0 FF  FF 7F F0 FF FF 7F 66 64  1..E..........fd
0BE0: 69 32 02 80 2B 5F D1 0C  01 89 80 23 2B 5F D1 0C  i2..+_.....#+_..
0BF0: 01 8A 80 23 2B 5F D1 0C  01 8B 80 23 1A 27 0E 27  ...#+_.....#.'.'
0C00: 10 5D D1 0C 01 04 45 03  80 F0 FF FF 7F F0 FF FF  .]....E.........
0C10: 7F 66 64 69 32 02 80 2B  5D D1 0C 01 8C 80 23 2B  .fdi2..+].....#+
0C20: 5D D1 0C 01 8D 80 23 03  02 10 00 00 2B 5D D1 0C  ].....#.....+]..
0C30: 01 8E 80 23 2B 5D D1 0C  01 8F 80 23 2B 5D D1 0C  ...#+].....#+]..
0C40: 01 90 80 23 1A 27 0E 27  10 5D D1 0C 01 05 45 03  ...#.'.'.]....E.
0C50: 80 F0 FF FF 7F F0 FF FF  7F 66 64 69 32 02 80 2B  .........fdi2..+
0C60: 5F D1 0C 01 91 80 23 2B  5F D1 0C 01 92 80 23 2B  _.....#+_.....#+
0C70: 5F D1 0C 01 93 80 23 1A  69 0E 52 01 80 F0 FF FF  _.....#.i.R.....
0C80: 7F F0 FF FF 7F 73 68 30  31 1A 93 0D 21 00        .....sh01...!.  
```

#### Opcodes

```
  0: 0x0B92 [0x1A] CALL_SUBROUTINE(address=0x0D84)
  1: 0x0B95 [0x75] LOAD_ROOM(Load indoor room, room=295*)
  2: 0x0B99 [0x75] LOAD_ROOM(No action)
  3: 0x0B9B [0x27] REQ_SET(priority=0x10, entity_id=LocalPlayer, tag_num=0x0F)
  4: 0x0BA2 [0x29] REQ_SET_WAIT(priority=0x10, entity_id=Elrica (ID: 17617245/0x010CD15D), tag_num=0x03)
  5: 0x0BA9 [0x29] REQ_SET_WAIT(priority=0x10, entity_id=Elrica (ID: 17617245/0x010CD15D), tag_num=0x02)
  6: 0x0BB0 [0x80] LOAD_WAIT(entity=Elrica (ID: 17617245/0x010CD15D))
  7: 0x0BB5 [0x4A] LocalPlayer looks at Elrica (ID: 17617245/0x010CD15D)
  8: 0x0BBE [0x48] [System] [7292*]:
    → "You hear a voice from out of nowhere..."
  9: 0x0BC1 [0x23] WAIT_FOR_DIALOG_INTERACTION
 10: 0x0BC2 [0x45] LOAD_SCHEDULED_TASK: Load scheduler "sh01" with entities [LocalPlayer, LocalPlayer], work=[27*, 0*]
 11: 0x0BD3 [0x45] LOAD_SCHEDULED_TASK: Load scheduler "fdi2" with entities [LocalPlayer, LocalPlayer], work=[200*, 0*]
 12: 0x0BE4 [0x2B] ??? (ID: 17617247/0x010CD15F) [7437*]:
    → "... We finally meet."
 13: 0x0BEB [0x23] WAIT_FOR_DIALOG_INTERACTION
 14: 0x0BEC [0x2B] ??? (ID: 17617247/0x010CD15F) [7438*]:
    → "I am now free from the pit of Dynamis to spit fire in this world once again."
 15: 0x0BF3 [0x23] WAIT_FOR_DIALOG_INTERACTION
 16: 0x0BF4 [0x2B] ??? (ID: 17617247/0x010CD15F) [7439*]:
    → "But I must ask you to wait before taking me into your possession..."
 17: 0x0BFB [0x23] WAIT_FOR_DIALOG_INTERACTION
 18: 0x0BFC [0x1A] CALL_SUBROUTINE(address=0x0E27)
 19: 0x0BFF [0x27] REQ_SET(priority=0x10, entity_id=Elrica (ID: 17617245/0x010CD15D), tag_num=0x04)
 20: 0x0C06 [0x45] LOAD_SCHEDULED_TASK: Load scheduler "fdi2" with entities [LocalPlayer, LocalPlayer], work=[200*, 0*]
 21: 0x0C17 [0x2B] Elrica (ID: 17617245/0x010CD15D) [7440*]:
    → "Why'd you have to go and wake me up? I was having the most relaxing sleep. Oh, this place looks familiar..."
 22: 0x0C1E [0x23] WAIT_FOR_DIALOG_INTERACTION
 23: 0x0C1F [0x2B] Elrica (ID: 17617245/0x010CD15D) [7441*]:
    → "Hm? You think you're the one who's going to take up my gun?"
 24: 0x0C26 [0x23] WAIT_FOR_DIALOG_INTERACTION
 25: 0x0C27 [0x03] Work_Zone[2] = ExtData[1]->WorkLocal[0]
 26: 0x0C2C [0x2B] Elrica (ID: 17617245/0x010CD15D) [7442*]:
    → "You do seem to have a fair eye for marksmanship. And $0 would look perfect nestled in the crook of your arm..."
 27: 0x0C33 [0x23] WAIT_FOR_DIALOG_INTERACTION
 28: 0x0C34 [0x2B] Elrica (ID: 17617245/0x010CD15D) [7443*]:
    → "Well, I have no more use for this weapon, so I guess you can have it. But there is one thing I want you to remember."
 29: 0x0C3B [0x23] WAIT_FOR_DIALOG_INTERACTION
 30: 0x0C3C [0x2B] Elrica (ID: 17617245/0x010CD15D) [7444*]:
    → "This gun is a fearsome weapon that unleashes a blast upon your enemies many thousands of times greater in strength than the tiny effort it takes you to pull the trigger. Needless to say, be careful who you aim it at..."
 31: 0x0C43 [0x23] WAIT_FOR_DIALOG_INTERACTION
 32: 0x0C44 [0x1A] CALL_SUBROUTINE(address=0x0E27)
 33: 0x0C47 [0x27] REQ_SET(priority=0x10, entity_id=Elrica (ID: 17617245/0x010CD15D), tag_num=0x05)
 34: 0x0C4E [0x45] LOAD_SCHEDULED_TASK: Load scheduler "fdi2" with entities [LocalPlayer, LocalPlayer], work=[200*, 0*]
 35: 0x0C5F [0x2B] ??? (ID: 17617247/0x010CD15F) [7445*]:
    → "..."
 36: 0x0C66 [0x23] WAIT_FOR_DIALOG_INTERACTION
 37: 0x0C67 [0x2B] ??? (ID: 17617247/0x010CD15F) [7446*]:
    → "A weapon has no will of its own. But it was made for a purpose."
 38: 0x0C6E [0x23] WAIT_FOR_DIALOG_INTERACTION
 39: 0x0C6F [0x2B] ??? (ID: 17617247/0x010CD15F) [7447*]:
    → "Take me to a new battlefield, a new arena for the hunt..."
 40: 0x0C76 [0x23] WAIT_FOR_DIALOG_INTERACTION
 41: 0x0C77 [0x1A] CALL_SUBROUTINE(address=0x0E69)
 42: 0x0C7A [0x52] END_LOAD_SCHEDULER: End scheduler "sh01" with entities [LocalPlayer, LocalPlayer], work=27*
 43: 0x0C89 [0x1A] CALL_SUBROUTINE(address=0x0D93)
 44: 0x0C8C [0x21] END_EVENT
 45: 0x0C8D [0x00] END_REQSTACK()
```

### Event 35

#### Metadata

| Field        | Value     |
|--------------|-----------|
| Entrypoint   | 0x0C8E    |
| Data Size    | 967 bytes |
| Instructions | 67        |

```
      00 01 02 03 04 05 06 07  08 09 0A 0B 0C 0D 0E 0F
      -- -- -- -- -- -- -- --  -- -- -- -- -- -- -- --
0C80:                                            1A 84                ..
0C90: 0D 27 10 F0 FF FF 7F 10  29 10 5E D1 0C 01 03 29  .'......).^....)
0CA0: 10 5E D1 0C 01 02 80 5E  D1 0C 01 4A F0 FF FF 7F  .^.....^...J....
0CB0: 5E D1 0C 01 48 00 80 23  45 01 80 F0 FF FF 7F F0  ^...H..#E.......
0CC0: FF FF 7F 69 6E 30 31 02  80 45 03 80 F0 FF FF 7F  ...in01..E......
0CD0: F0 FF FF 7F 66 64 69 32  02 80 2B 5F D1 0C 01 94  ....fdi2..+_....
0CE0: 80 23 2B 5F D1 0C 01 95  80 23 2B 5F D1 0C 01 96  .#+_.....#+_....
0CF0: 80 23 1A 27 0E 27 10 5E  D1 0C 01 04 45 03 80 F0  .#.'.'.^....E...
0D00: FF FF 7F F0 FF FF 7F 66  64 69 32 02 80 2B 5E D1  .......fdi2..+^.
0D10: 0C 01 97 80 23 2B 5E D1  0C 01 98 80 23 03 02 10  ....#+^.....#...
0D20: 00 00 2B 5E D1 0C 01 99  80 23 2B 5E D1 0C 01 9A  ..+^.....#+^....
0D30: 80 23 2B 5E D1 0C 01 9B  80 23 1A 27 0E 27 10 5E  .#+^.....#.'.'.^
0D40: D1 0C 01 05 45 03 80 F0  FF FF 7F F0 FF FF 7F 66  ....E..........f
0D50: 64 69 32 02 80 2B 5F D1  0C 01 9C 80 23 2B 5F D1  di2..+_.....#+_.
0D60: 0C 01 9D 80 23 2B 5F D1  0C 01 9E 80 23 1A 69 0E  ....#+_.....#.i.
0D70: 52 01 80 F0 FF FF 7F F0  FF FF 7F 69 6E 30 31 1A  R..........in01.
0D80: 93 0D 21 00 03 00 00 02  10 42 1A 27 0E 46 01 38  ..!......B.'.F.8
0D90: 9F 80 1B 1C A0 80 1A 27  0E 1A 48 0E 1C A1 80 46  .......'..H....F
0DA0: 00 45 03 80 F0 FF FF 7F  F0 FF FF 7F 66 64 69 32  .E..........fdi2
0DB0: 02 80 45 A2 80 F0 FF FF  7F F0 FF FF 7F 71 73 74  ..E..........qst
0DC0: 63 02 80 1B 45 03 80 F0  FF FF 7F F0 FF FF 7F 66  c...E..........f
0DD0: 64 69 30 02 80 55 03 80  F0 FF FF 7F F0 FF FF 7F  di0..U..........
0DE0: 66 64 69 30 1B 45 03 80  F0 FF FF 7F F0 FF FF 7F  fdi0.E..........
0DF0: 66 64 6F 30 02 80 55 03  80 F0 FF FF 7F F0 FF FF  fdo0..U.........
0E00: 7F 66 64 6F 30 1B 45 03  80 F0 FF FF 7F F0 FF FF  .fdo0.E.........
0E10: 7F 66 64 69 31 02 80 55  03 80 F0 FF FF 7F F0 FF  .fdi1..U........
0E20: FF 7F 66 64 69 31 1B 45  03 80 F0 FF FF 7F F0 FF  ..fdi1.E........
0E30: FF 7F 66 64 6F 31 02 80  55 03 80 F0 FF FF 7F F0  ..fdo1..U.......
0E40: FF FF 7F 66 64 6F 31 1B  45 A2 80 F0 FF FF 7F F0  ...fdo1.E.......
0E50: FF FF 7F 77 68 69 31 02  80 55 A2 80 F0 FF FF 7F  ...whi1..U......
0E60: F0 FF FF 7F 77 68 69 31  1B 45 A2 80 F0 FF FF 7F  ....whi1.E......
0E70: F0 FF FF 7F 77 68 6F 31  02 80 55 A2 80 F0 FF FF  ....who1..U.....
0E80: 7F F0 FF FF 7F 77 68 6F  31 1B 45 A2 80 F0 FF FF  .....who1.E.....
0E90: 7F F0 FF FF 7F 77 68 6F  32 02 80 55 A2 80 F0 FF  .....who2..U....
0EA0: FF 7F F0 FF FF 7F 77 68  6F 32 1B 45 A2 80 F0 FF  ......who2.E....
0EB0: FF 7F F0 FF FF 7F 77 68  6F 33 02 80 55 A2 80 F0  ......who3..U...
0EC0: FF FF 7F F0 FF FF 7F 77  68 6F 33 1B 62 A3 80 F0  .......who3.b...
0ED0: FF FF 7F F0 FF FF 7F 6D  61 69 6E 02 80 1C A0 80  .......main.....
0EE0: 45 03 80 F0 FF FF 7F F0  FF FF 7F 66 64 6F 31 02  E..........fdo1.
0EF0: 80 55 03 80 F0 FF FF 7F  F0 FF FF 7F 66 64 6F 31  .U..........fdo1
0F00: 1B 45 03 80 F0 FF FF 7F  F0 FF FF 7F 66 64 69 31  .E..........fdi1
0F10: 02 80 62 A4 80 F0 FF FF  7F F0 FF FF 7F 6D 61 69  ..b..........mai
0F20: 6E 02 80 1C A5 80 55 03  80 F0 FF FF 7F F0 FF FF  n.....U.........
0F30: 7F 66 64 69 31 1B 45 03  80 F0 FF FF 7F F0 FF FF  .fdi1.E.........
0F40: 7F 62 6C 6F 6E 02 80 45  A2 80 F0 FF FF 7F F0 FF  .blon..E........
0F50: FF 7F 62 6C 6F 6E 02 80  1B 45 A2 80 F0 FF FF 7F  ..blon...E......
0F60: F0 FF FF 7F 77 68 69 30  02 80 55 A2 80 F0 FF FF  ....whi0..U.....
0F70: 7F F0 FF FF 7F 77 68 69  30 1B 45 A2 80 F0 FF FF  .....whi0.E.....
0F80: 7F F0 FF FF 7F 77 68 6F  30 02 80 55 A2 80 F0 FF  .....who0..U....
0F90: FF 7F F0 FF FF 7F 77 68  6F 30 1B 45 A6 80 F0 FF  ......who0.E....
0FA0: FF 7F F0 FF FF 7F 65 66  6F 6E 02 80 55 A6 80 F0  ......efon..U...
0FB0: FF FF 7F F0 FF FF 7F 65  66 6F 6E 1B 45 03 80 F0  .......efon.E...
0FC0: FF FF 7F F0 FF FF 7F 66  64 69 73 02 80 1B 45 03  .......fdis...E.
0FD0: 80 F0 FF FF 7F F0 FF FF  7F 66 64 6F 73 02 80 55  .........fdos..U
0FE0: 03 80 F0 FF FF 7F F0 FF  FF 7F 66 64 6F 73 1B 45  ..........fdos.E
0FF0: 03 80 F0 FF FF 7F F0 FF  FF 7F 66 64 69 66 02 80  ..........fdif..
1000: 1B 45 03 80 F0 FF FF 7F  F0 FF FF 7F 66 64 6F 66  .E..........fdof
1010: 02 80 55 03 80 F0 FF FF  7F F0 FF FF 7F 66 64 6F  ..U..........fdo
1020: 66 1B 45 03 80 F0 FF FF  7F F0 FF FF 7F 66 64 69  f.E..........fdi
1030: 70 02 80 1B 45 03 80 F0  FF FF 7F F0 FF FF 7F 66  p...E..........f
1040: 64 6F 70 02 80 55 03 80  F0 FF FF 7F F0 FF FF 7F  dop..U..........
1050: 66 64 6F 70 1B                                    fdop.           
```

#### Opcodes

```
  0: 0x0C8E [0x1A] CALL_SUBROUTINE(address=0x0D84)
  1: 0x0C91 [0x27] REQ_SET(priority=0x10, entity_id=LocalPlayer, tag_num=0x10)
  2: 0x0C98 [0x29] REQ_SET_WAIT(priority=0x10, entity_id=Terounalivet (ID: 17617246/0x010CD15E), tag_num=0x03)
  3: 0x0C9F [0x29] REQ_SET_WAIT(priority=0x10, entity_id=Terounalivet (ID: 17617246/0x010CD15E), tag_num=0x02)
  4: 0x0CA6 [0x80] LOAD_WAIT(entity=Terounalivet (ID: 17617246/0x010CD15E))
  5: 0x0CAB [0x4A] LocalPlayer looks at Terounalivet (ID: 17617246/0x010CD15E)
  6: 0x0CB4 [0x48] [System] [7292*]:
    → "You hear a voice from out of nowhere..."
  7: 0x0CB7 [0x23] WAIT_FOR_DIALOG_INTERACTION
  8: 0x0CB8 [0x45] LOAD_SCHEDULED_TASK: Load scheduler "in01" with entities [LocalPlayer, LocalPlayer], work=[27*, 0*]
  9: 0x0CC9 [0x45] LOAD_SCHEDULED_TASK: Load scheduler "fdi2" with entities [LocalPlayer, LocalPlayer], work=[200*, 0*]
 10: 0x0CDA [0x2B] ??? (ID: 17617247/0x010CD15F) [7448*]:
    → "... I am saved."
 11: 0x0CE1 [0x23] WAIT_FOR_DIALOG_INTERACTION
 12: 0x0CE2 [0x2B] ??? (ID: 17617247/0x010CD15F) [7449*]:
    → "Silenced for too long in the prison of Dynamis, I can once again let my brazen call echo through this land!"
 13: 0x0CE9 [0x23] WAIT_FOR_DIALOG_INTERACTION
 14: 0x0CEA [0x2B] ??? (ID: 17617247/0x010CD15F) [7450*]:
    → "A few more moments, if you please..."
 15: 0x0CF1 [0x23] WAIT_FOR_DIALOG_INTERACTION
 16: 0x0CF2 [0x1A] CALL_SUBROUTINE(address=0x0E27)
 17: 0x0CF5 [0x27] REQ_SET(priority=0x10, entity_id=Terounalivet (ID: 17617246/0x010CD15E), tag_num=0x04)
 18: 0x0CFC [0x45] LOAD_SCHEDULED_TASK: Load scheduler "fdi2" with entities [LocalPlayer, LocalPlayer], work=[200*, 0*]
 19: 0x0D0D [0x2B] Terounalivet (ID: 17617246/0x010CD15E) [7451*]:
    → "Hello there. I am Terounalivet, a military musician of the Hydra Corps."
 20: 0x0D14 [0x23] WAIT_FOR_DIALOG_INTERACTION
 21: 0x0D15 [0x2B] Terounalivet (ID: 17617246/0x010CD15E) [7452*]:
    → "You've never heard of me? Before joining the army I was quite the famous bard, mobbed by fans in every town I passed through."
 22: 0x0D1C [0x23] WAIT_FOR_DIALOG_INTERACTION
 23: 0x0D1D [0x03] Work_Zone[2] = ExtData[1]->WorkLocal[0]
 24: 0x0D22 [0x2B] Terounalivet (ID: 17617246/0x010CD15E) [7453*]:
    → "To be completely truthful, I am heartbroken to be giving up the $0, the most famous of instruments, even to a fellow bard."
 25: 0x0D29 [0x23] WAIT_FOR_DIALOG_INTERACTION
 26: 0x0D2A [0x2B] Terounalivet (ID: 17617246/0x010CD15E) [7454*]:
    → "But an instrument only shows its true worth when being played. This horn should be delighted to be passed on to such a talent as yourself."
 27: 0x0D31 [0x23] WAIT_FOR_DIALOG_INTERACTION
 28: 0x0D32 [0x2B] Terounalivet (ID: 17617246/0x010CD15E) [7455*]:
    → "She has a capricious soul, but do treat her well. And do not forget that even without a raging battle, you can still play a tune for the simple enjoyment of those around you..."
 29: 0x0D39 [0x23] WAIT_FOR_DIALOG_INTERACTION
 30: 0x0D3A [0x1A] CALL_SUBROUTINE(address=0x0E27)
 31: 0x0D3D [0x27] REQ_SET(priority=0x10, entity_id=Terounalivet (ID: 17617246/0x010CD15E), tag_num=0x05)
 32: 0x0D44 [0x45] LOAD_SCHEDULED_TASK: Load scheduler "fdi2" with entities [LocalPlayer, LocalPlayer], work=[200*, 0*]
 33: 0x0D55 [0x2B] ??? (ID: 17617247/0x010CD15F) [7456*]:
    → "..."
 34: 0x0D5C [0x23] WAIT_FOR_DIALOG_INTERACTION
 35: 0x0D5D [0x2B] ??? (ID: 17617247/0x010CD15F) [7457*]:
    → "He was a wonderful performer."
 36: 0x0D64 [0x23] WAIT_FOR_DIALOG_INTERACTION
 37: 0x0D65 [0x2B] ??? (ID: 17617247/0x010CD15F) [7458*]:
    → "Let us be on our way. Our tour of the world has only just begun..."
 38: 0x0D6C [0x23] WAIT_FOR_DIALOG_INTERACTION
 39: 0x0D6D [0x1A] CALL_SUBROUTINE(address=0x0E69)
 40: 0x0D70 [0x52] END_LOAD_SCHEDULER: End scheduler "in01" with entities [LocalPlayer, LocalPlayer], work=27*
 41: 0x0D7F [0x1A] CALL_SUBROUTINE(address=0x0D93)
 42: 0x0D82 [0x21] END_EVENT
 43: 0x0D83 [0x00] END_REQSTACK()

SUBROUTINE_0D84:
 44: 0x0D84 [0x03] ExtData[1]->WorkLocal[0] = Work_Zone[2]
 45: 0x0D89 [0x42] SET_CLI_EVENT_CANCEL_DATA()
 46: 0x0D8A [0x1A] CALL_SUBROUTINE(address=0x0E27)
 47: 0x0D8D [0x46] CAMERA_CONTROL: Disable user control
 48: 0x0D8F [0x38] SET_CLIENT_EVENT_MODE(mode=19*)
 49: 0x0D92 [0x1B] RETURN

SUBROUTINE_0D93:
 50: 0x0D93 [0x1C] WAIT(45* ticks)
 51: 0x0D96 [0x1A] CALL_SUBROUTINE(address=0x0E27)
 52: 0x0D99 [0x1A] CALL_SUBROUTINE(address=0x0E48)
 53: 0x0D9C [0x1C] WAIT(15* ticks)
 54: 0x0D9F [0x46] CAMERA_CONTROL: Restore default settings
 55: 0x0DA1 [0x45] LOAD_SCHEDULED_TASK: Load scheduler "fdi2" with entities [LocalPlayer, LocalPlayer], work=[200*, 0*]
 56: 0x0DB2 [0x45] LOAD_SCHEDULED_TASK: Load scheduler "qstc" with entities [LocalPlayer, LocalPlayer], work=[201*, 0*]
 57: 0x0DC3 [0x1B] RETURN

SUBROUTINE_0E27:
 58: 0x0E27 [0x45] LOAD_SCHEDULED_TASK: Load scheduler "fdo1" with entities [LocalPlayer, LocalPlayer], work=[200*, 0*]
 59: 0x0E38 [0x55] WAIT_LOAD_SCHEDULER: Wait for scheduler "fdo1" with entities [LocalPlayer, LocalPlayer], work=200*
 60: 0x0E47 [0x1B] RETURN

SUBROUTINE_0E48:
 61: 0x0E48 [0x45] LOAD_SCHEDULED_TASK: Load scheduler "whi1" with entities [LocalPlayer, LocalPlayer], work=[201*, 0*]
 62: 0x0E59 [0x55] WAIT_LOAD_SCHEDULER: Wait for scheduler "whi1" with entities [LocalPlayer, LocalPlayer], work=201*
 63: 0x0E68 [0x1B] RETURN

SUBROUTINE_0E69:
 64: 0x0E69 [0x45] LOAD_SCHEDULED_TASK: Load scheduler "who1" with entities [LocalPlayer, LocalPlayer], work=[201*, 0*]
 65: 0x0E7A [0x55] WAIT_LOAD_SCHEDULER: Wait for scheduler "who1" with entities [LocalPlayer, LocalPlayer], work=201*
 66: 0x0E89 [0x1B] RETURN
```

#### Data or dead code:

```
# Dead code (unreachable instructions):
     0x0DC4 [0x45] LOAD_SCHEDULED_TASK: Load scheduler "fdi0" with entities [LocalPlayer, LocalPlayer], work=[200*, 0*]
     0x0DD5 [0x55] WAIT_LOAD_SCHEDULER: Wait for scheduler "fdi0" with entities [LocalPlayer, LocalPlayer], work=200*
     0x0DE4 [0x1B] RETURN
     0x0DE5 [0x45] LOAD_SCHEDULED_TASK: Load scheduler "fdo0" with entities [LocalPlayer, LocalPlayer], work=[200*, 0*]
     0x0DF6 [0x55] WAIT_LOAD_SCHEDULER: Wait for scheduler "fdo0" with entities [LocalPlayer, LocalPlayer], work=200*
     0x0E05 [0x1B] RETURN
     0x0E06 [0x45] LOAD_SCHEDULED_TASK: Load scheduler "fdi1" with entities [LocalPlayer, LocalPlayer], work=[200*, 0*]
     0x0E17 [0x55] WAIT_LOAD_SCHEDULER: Wait for scheduler "fdi1" with entities [LocalPlayer, LocalPlayer], work=200*
     0x0E26 [0x1B] RETURN
# Dead code (unreachable instructions):
     0x0E8A [0x45] LOAD_SCHEDULED_TASK: Load scheduler "who2" with entities [LocalPlayer, LocalPlayer], work=[201*, 0*]
     0x0E9B [0x55] WAIT_LOAD_SCHEDULER: Wait for scheduler "who2" with entities [LocalPlayer, LocalPlayer], work=201*
     0x0EAA [0x1B] RETURN
     0x0EAB [0x45] LOAD_SCHEDULED_TASK: Load scheduler "who3" with entities [LocalPlayer, LocalPlayer], work=[201*, 0*]
     0x0EBC [0x55] WAIT_LOAD_SCHEDULER: Wait for scheduler "who3" with entities [LocalPlayer, LocalPlayer], work=201*
     0x0ECB [0x1B] RETURN
     0x0ECC [0x62] LOAD_EVENT_SCHEDULER: Load scheduler "main" with entities [LocalPlayer, LocalPlayer], work=[1*, 0*]
     0x0EDD [0x1C] WAIT(45* ticks)
     0x0EE0 [0x45] LOAD_SCHEDULED_TASK: Load scheduler "fdo1" with entities [LocalPlayer, LocalPlayer], work=[200*, 0*]
     0x0EF1 [0x55] WAIT_LOAD_SCHEDULER: Wait for scheduler "fdo1" with entities [LocalPlayer, LocalPlayer], work=200*
     0x0F00 [0x1B] RETURN
     0x0F01 [0x45] LOAD_SCHEDULED_TASK: Load scheduler "fdi1" with entities [LocalPlayer, LocalPlayer], work=[200*, 0*]
     0x0F12 [0x62] LOAD_EVENT_SCHEDULER: Load scheduler "main" with entities [LocalPlayer, LocalPlayer], work=[2*, 0*]
     0x0F23 [0x1C] WAIT(30* ticks)
     0x0F26 [0x55] WAIT_LOAD_SCHEDULER: Wait for scheduler "fdi1" with entities [LocalPlayer, LocalPlayer], work=200*
     0x0F35 [0x1B] RETURN
     0x0F36 [0x45] LOAD_SCHEDULED_TASK: Load scheduler "blon" with entities [LocalPlayer, LocalPlayer], work=[200*, 0*]
     0x0F47 [0x45] LOAD_SCHEDULED_TASK: Load scheduler "blon" with entities [LocalPlayer, LocalPlayer], work=[201*, 0*]
     0x0F58 [0x1B] RETURN
     0x0F59 [0x45] LOAD_SCHEDULED_TASK: Load scheduler "whi0" with entities [LocalPlayer, LocalPlayer], work=[201*, 0*]
     0x0F6A [0x55] WAIT_LOAD_SCHEDULER: Wait for scheduler "whi0" with entities [LocalPlayer, LocalPlayer], work=201*
     0x0F79 [0x1B] RETURN
     0x0F7A [0x45] LOAD_SCHEDULED_TASK: Load scheduler "who0" with entities [LocalPlayer, LocalPlayer], work=[201*, 0*]
     0x0F8B [0x55] WAIT_LOAD_SCHEDULER: Wait for scheduler "who0" with entities [LocalPlayer, LocalPlayer], work=201*
     0x0F9A [0x1B] RETURN
     0x0F9B [0x45] LOAD_SCHEDULED_TASK: Load scheduler "efon" with entities [LocalPlayer, LocalPlayer], work=[215*, 0*]
     0x0FAC [0x55] WAIT_LOAD_SCHEDULER: Wait for scheduler "efon" with entities [LocalPlayer, LocalPlayer], work=215*
     0x0FBB [0x1B] RETURN
     0x0FBC [0x45] LOAD_SCHEDULED_TASK: Load scheduler "fdis" with entities [LocalPlayer, LocalPlayer], work=[200*, 0*]
     0x0FCD [0x1B] RETURN
     0x0FCE [0x45] LOAD_SCHEDULED_TASK: Load scheduler "fdos" with entities [LocalPlayer, LocalPlayer], work=[200*, 0*]
     0x0FDF [0x55] WAIT_LOAD_SCHEDULER: Wait for scheduler "fdos" with entities [LocalPlayer, LocalPlayer], work=200*
     0x0FEE [0x1B] RETURN
     0x0FEF [0x45] LOAD_SCHEDULED_TASK: Load scheduler "fdif" with entities [LocalPlayer, LocalPlayer], work=[200*, 0*]
     0x1000 [0x1B] RETURN
     0x1001 [0x45] LOAD_SCHEDULED_TASK: Load scheduler "fdof" with entities [LocalPlayer, LocalPlayer], work=[200*, 0*]
     0x1012 [0x55] WAIT_LOAD_SCHEDULER: Wait for scheduler "fdof" with entities [LocalPlayer, LocalPlayer], work=200*
     0x1021 [0x1B] RETURN
     0x1022 [0x45] LOAD_SCHEDULED_TASK: Load scheduler "fdip" with entities [LocalPlayer, LocalPlayer], work=[200*, 0*]
     0x1033 [0x1B] RETURN
     0x1034 [0x45] LOAD_SCHEDULED_TASK: Load scheduler "fdop" with entities [LocalPlayer, LocalPlayer], work=[200*, 0*]
     0x1045 [0x55] WAIT_LOAD_SCHEDULER: Wait for scheduler "fdop" with entities [LocalPlayer, LocalPlayer], work=200*
     0x1054 [0x1B] RETURN
```
