# Event 65535

## Metadata

| Field           | Value    |
|-----------------|----------|
| Event Index     | 46/59    |
| Offset          | 0x5E6C   |
| Data Size       | 41 bytes |
| Calculated Size | 41 bytes |
| Instructions    | 10       |

```
      00 01 02 03 04 05 06 07  08 09 0A 0B 0C 0D 0E 0F
      -- -- -- -- -- -- -- --  -- -- -- -- -- -- -- --
5E60:                                      03 1C 00 C3              ....
5E70: 81 06 1D 00 B4 0A 1C 00  02 1C 00 02 80 02 87 5E  ...............^
5E80: B4 0C 1C 00 01 78 5E B4  0B 02 1D 00 02 80 00 94  .....x^.........
5E90: 5E B4 06 00 00                                    ^....           
```

## Opcodes

```
  0: 0x5E6C [0x03] ExtData[1]->WorkLocal[28] = 3600*
  1: 0x5E71 [0x06] ExtData[1]->WorkLocal[29] = 0
  2: 0x5E74 [0xB4] UI_WINDOW_STRING_HANDLER(case=0x0A - Open event time window, work_offset=ExtData[1]->WorkLocal[28])
  3: 0x5E78 [0x02] IF !(ExtData[1]->WorkLocal[28] <= 0*) GOTO 0x5E87
  4: 0x5E80 [0xB4] UI_WINDOW_STRING_HANDLER(case=0x0C - Get event time count value, work_offset=ExtData[1]->WorkLocal[28])
  5: 0x5E84 [0x01] GOTO 0x5E78

SUBROUTINE_5E87:
  6: 0x5E87 [0xB4] UI_WINDOW_STRING_HANDLER(case=0x0B - Destroy event time window)
  7: 0x5E89 [0x02] IF !(ExtData[1]->WorkLocal[29] == 0*) GOTO 0x5E94
  8: 0x5E91 [0xB4] UI_WINDOW_STRING_HANDLER(case=0x06 - Toggle query message flag, flag_value=0x00)
  9: 0x5E94 [0x00] END_REQSTACK()
```
