# Event 65535

## Metadata

| Field           | Value    |
|-----------------|----------|
| Event Index     | 57/59    |
| Offset          | 0x6436   |
| Data Size       | 54 bytes |
| Calculated Size | 54 bytes |
| Instructions    | 12       |

```
      00 01 02 03 04 05 06 07  08 09 0A 0B 0C 0D 0E 0F
      -- -- -- -- -- -- -- --  -- -- -- -- -- -- -- --
6430:                   32 04  80 1F 00 CD 81 CE 81 02        2.........
6440: 80 1F 01 1F 00 CF 81 D0  81 02 80 1F 01 1F 00 D1  ................
6450: 81 D2 81 02 80 1F 01 1F  00 D3 81 D4 81 D5 81 1F  ................
6460: 01 1F 00 D6 81 D7 81 D5  81 1F 01 00              ............    
```

## Opcodes

```
  0: 0x6436 [0x32] ExtData[1]->MainSpeed = 13* * 0.1
  1: 0x6439 [0x1F] MOVE_ENTITY: EventEntity moves to X=-125.500*, Z=-0.100*, Y=0.000*
  2: 0x6441 [0x1F] MOVE_ENTITY: Update entity position (mode=1)
  3: 0x6443 [0x1F] MOVE_ENTITY: EventEntity moves to X=-130.300*, Z=4.650*, Y=0.000*
  4: 0x644B [0x1F] MOVE_ENTITY: Update entity position (mode=1)
  5: 0x644D [0x1F] MOVE_ENTITY: EventEntity moves to X=-133.150*, Z=7.720*, Y=0.000*
  6: 0x6455 [0x1F] MOVE_ENTITY: Update entity position (mode=1)
  7: 0x6457 [0x1F] MOVE_ENTITY: EventEntity moves to X=-136.420*, Z=7.600*, Y=-1.000*
  8: 0x645F [0x1F] MOVE_ENTITY: Update entity position (mode=1)
  9: 0x6461 [0x1F] MOVE_ENTITY: EventEntity moves to X=-140.740*, Z=1.020*, Y=-1.000*
 10: 0x6469 [0x1F] MOVE_ENTITY: Update entity position (mode=1)
 11: 0x646B [0x00] END_REQSTACK()
```
