# 17261215 - Reinhard

## Common Data

| Field            | Value                        |
|------------------|------------------------------|
| Zone             | Buburimu Peninsula (ID: 118) |
| Block Size       | 684 bytes                    |
| Total Events     | 19                           |
| References Count | 23                           |

## List of Events

| Event ID                   | Entrypoint   |   Size |   Instructions |
|----------------------------|--------------|--------|----------------|
| [65535](#event-65535)      | 0x0000       |      1 |              1 |
| [65535.1](#event-655351)   | 0x0001       |      1 |              1 |
| [65535.2](#event-655352)   | 0x0002       |     18 |              4 |
| [65535.3](#event-655353)   | 0x0014       |     10 |              2 |
| [65535.4](#event-655354)   | 0x001E       |      9 |              3 |
| [65535.5](#event-655355)   | 0x0027       |      9 |              3 |
| [65535.6](#event-655356)   | 0x0030       |     10 |              2 |
| [65535.7](#event-655357)   | 0x003A       |     10 |              2 |
| [62](#event-62)            | 0x0044       |      1 |              1 |
| [63](#event-63)            | 0x0045       |      1 |              1 |
| [65535.8](#event-655358)   | 0x0046       |     25 |              3 |
| [65535.9](#event-655359)   | 0x005F       |     25 |              3 |
| [65535.10](#event-6553510) | 0x0078       |     37 |              5 |
| [65535.11](#event-6553511) | 0x009D       |     37 |              5 |
| [65535.12](#event-6553512) | 0x00C2       |     37 |              5 |
| [65535.13](#event-6553513) | 0x00E7       |    185 |             37 |
| [65535.14](#event-6553514) | 0x01A0       |     25 |              6 |
| [65535.15](#event-6553515) | 0x01B9       |     39 |              9 |
| [65535.16](#event-6553516) | 0x01E0       |     20 |              6 |

## DAT References (imed_data)

|   Index | Hex Value   |   Dec Value |
|---------|-------------|-------------|
|       0 | 0x0000      |           0 |
|       1 | 0x0001      |           1 |
|       2 | 0x0080      |         128 |
|       3 | 0x0005      |           5 |
|       4 | 0x0002      |           2 |
|       5 | 0x000A      |          10 |
|       6 | 0x0009      |           9 |
|       7 | 0x0046      |          70 |
|       8 | 0x008C      |         140 |
|       9 | 0x00D2      |         210 |
|      10 | 0x000D      |          13 |
|      11 | 0xFFFACEF0  |  4294627056 |
|      12 | 0xCF58      |       53080 |
|      13 | 0xFFFFA0C9  |  4294942921 |
|      14 | 0xFFFAC90F  |  4294625551 |
|      15 | 0xBAF3      |       47859 |
|      16 | 0xFFFFA4DE  |  4294943966 |
|      17 | 0x001E      |          30 |
|      18 | 0x003C      |          60 |
|      19 | 0x000B      |          11 |
|      20 | 0xFFFAC555  |  4294624597 |
|      21 | 0xC4FE      |       50430 |
|      22 | 0xFFFFA19E  |  4294943134 |

## Events

### Event 65535

#### Metadata

| Field        | Value   |
|--------------|---------|
| Entrypoint   | 0x0000  |
| Data Size    | 1 bytes |
| Instructions | 1       |

```
      00 01 02 03 04 05 06 07  08 09 0A 0B 0C 0D 0E 0F
      -- -- -- -- -- -- -- --  -- -- -- -- -- -- -- --
0000: 00                                                .               
```

#### Opcodes

```
  0: 0x0000 [0x00] END_REQSTACK()
```

### Event 65535.1

#### Metadata

| Field        | Value   |
|--------------|---------|
| Entrypoint   | 0x0001  |
| Data Size    | 1 bytes |
| Instructions | 1       |

```
      00 01 02 03 04 05 06 07  08 09 0A 0B 0C 0D 0E 0F
      -- -- -- -- -- -- -- --  -- -- -- -- -- -- -- --
0000:    00                                              .              
```

#### Opcodes

```
  0: 0x0001 [0x00] END_REQSTACK()
```

### Event 65535.2

#### Metadata

| Field        | Value    |
|--------------|----------|
| Entrypoint   | 0x0002   |
| Data Size    | 18 bytes |
| Instructions | 4        |

```
      00 01 02 03 04 05 06 07  08 09 0A 0B 0C 0D 0E 0F
      -- -- -- -- -- -- -- --  -- -- -- -- -- -- -- --
0000:       22 00 2F 00 F8 FF  FF 7F 6C F8 FF FF 7F 00    "./.....l.....
0010: 80 01 80 00                                       ....            
```

#### Opcodes

```
  0: 0x0002 [0x22] ENTITY_HIDE_FLAG(enabled=0x00)
  1: 0x0004 [0x2F] EventEntity->Render.Flags0 &= ~0x80000 // Bit 19
  2: 0x000A [0x6C] FADE_ENTITY_COLOR(entity_id=EventEntity, end_alpha=0*, fade_time=1*)
  3: 0x0013 [0x00] END_REQSTACK()
```

### Event 65535.3

#### Metadata

| Field        | Value    |
|--------------|----------|
| Entrypoint   | 0x0014   |
| Data Size    | 10 bytes |
| Instructions | 2        |

```
      00 01 02 03 04 05 06 07  08 09 0A 0B 0C 0D 0E 0F
      -- -- -- -- -- -- -- --  -- -- -- -- -- -- -- --
0010:             6C F8 FF FF  7F 02 80 01 80 00            l.........  
```

#### Opcodes

```
  0: 0x0014 [0x6C] FADE_ENTITY_COLOR(entity_id=EventEntity, end_alpha=128*, fade_time=1*)
  1: 0x001D [0x00] END_REQSTACK()
```

### Event 65535.4

#### Metadata

| Field        | Value   |
|--------------|---------|
| Entrypoint   | 0x001E  |
| Data Size    | 9 bytes |
| Instructions | 3       |

```
      00 01 02 03 04 05 06 07  08 09 0A 0B 0C 0D 0E 0F
      -- -- -- -- -- -- -- --  -- -- -- -- -- -- -- --
0010:                                            22 00                ".
0020: 2F 00 F8 FF FF 7F 00                              /......         
```

#### Opcodes

```
  0: 0x001E [0x22] ENTITY_HIDE_FLAG(enabled=0x00)
  1: 0x0020 [0x2F] EventEntity->Render.Flags0 &= ~0x80000 // Bit 19
  2: 0x0026 [0x00] END_REQSTACK()
```

### Event 65535.5

#### Metadata

| Field        | Value   |
|--------------|---------|
| Entrypoint   | 0x0027  |
| Data Size    | 9 bytes |
| Instructions | 3       |

```
      00 01 02 03 04 05 06 07  08 09 0A 0B 0C 0D 0E 0F
      -- -- -- -- -- -- -- --  -- -- -- -- -- -- -- --
0020:                      22  01 2F 01 F8 FF FF 7F 00         "./......
```

#### Opcodes

```
  0: 0x0027 [0x22] ENTITY_HIDE_FLAG(enabled=0x01)
  1: 0x0029 [0x2F] EventEntity->Render.Flags0 |= 0x80000 // Bit 19
  2: 0x002F [0x00] END_REQSTACK()
```

### Event 65535.6

#### Metadata

| Field        | Value    |
|--------------|----------|
| Entrypoint   | 0x0030   |
| Data Size    | 10 bytes |
| Instructions | 2        |

```
      00 01 02 03 04 05 06 07  08 09 0A 0B 0C 0D 0E 0F
      -- -- -- -- -- -- -- --  -- -- -- -- -- -- -- --
0030: 6C F8 FF FF 7F 00 80 01  80 00                    l.........      
```

#### Opcodes

```
  0: 0x0030 [0x6C] FADE_ENTITY_COLOR(entity_id=EventEntity, end_alpha=0*, fade_time=1*)
  1: 0x0039 [0x00] END_REQSTACK()
```

### Event 65535.7

#### Metadata

| Field        | Value    |
|--------------|----------|
| Entrypoint   | 0x003A   |
| Data Size    | 10 bytes |
| Instructions | 2        |

```
      00 01 02 03 04 05 06 07  08 09 0A 0B 0C 0D 0E 0F
      -- -- -- -- -- -- -- --  -- -- -- -- -- -- -- --
0030:                                6C F8 FF FF 7F 02            l.....
0040: 80 01 80 00                                       ....            
```

#### Opcodes

```
  0: 0x003A [0x6C] FADE_ENTITY_COLOR(entity_id=EventEntity, end_alpha=128*, fade_time=1*)
  1: 0x0043 [0x00] END_REQSTACK()
```

### Event 62

#### Metadata

| Field        | Value   |
|--------------|---------|
| Entrypoint   | 0x0044  |
| Data Size    | 1 bytes |
| Instructions | 1       |

```
      00 01 02 03 04 05 06 07  08 09 0A 0B 0C 0D 0E 0F
      -- -- -- -- -- -- -- --  -- -- -- -- -- -- -- --
0040:             00                                        .           
```

#### Opcodes

```
  0: 0x0044 [0x00] END_REQSTACK()
```

### Event 63

#### Metadata

| Field        | Value   |
|--------------|---------|
| Entrypoint   | 0x0045  |
| Data Size    | 1 bytes |
| Instructions | 1       |

```
      00 01 02 03 04 05 06 07  08 09 0A 0B 0C 0D 0E 0F
      -- -- -- -- -- -- -- --  -- -- -- -- -- -- -- --
0040:                00                                      .          
```

#### Opcodes

```
  0: 0x0045 [0x00] END_REQSTACK()
```

### Event 65535.8

#### Metadata

| Field        | Value    |
|--------------|----------|
| Entrypoint   | 0x0046   |
| Data Size    | 25 bytes |
| Instructions | 3        |

```
      00 01 02 03 04 05 06 07  08 09 0A 0B 0C 0D 0E 0F
      -- -- -- -- -- -- -- --  -- -- -- -- -- -- -- --
0040:                   B4 00  00 00 3F 3F 3F 00 00 00        ....???...
0050: 00 00 00 00 00 00 00 00  00 00 B5 00 00 00 00     ............... 
```

#### Opcodes

```
  0: 0x0046 [0xB4] UI_WINDOW_STRING_HANDLER(case=0x00 - Copy string from opcode, work_offset=ExtData[1]->WorkLocal[0], string="???")
  1: 0x005A [0xB5] SET_EVENT_ENTITY_NAME: Change EventEntity name to ExtData[1]->WorkLocal[0]
  2: 0x005E [0x00] END_REQSTACK()
```

### Event 65535.9

#### Metadata

| Field        | Value    |
|--------------|----------|
| Entrypoint   | 0x005F   |
| Data Size    | 25 bytes |
| Instructions | 3        |

```
      00 01 02 03 04 05 06 07  08 09 0A 0B 0C 0D 0E 0F
      -- -- -- -- -- -- -- --  -- -- -- -- -- -- -- --
0050:                                               B4                 .
0060: 00 00 00 52 65 69 6E 68  61 72 64 00 00 00 00 00  ...Reinhard.....
0070: 00 00 00 B5 00 00 00 00                           ........        
```

#### Opcodes

```
  0: 0x005F [0xB4] UI_WINDOW_STRING_HANDLER(case=0x00 - Copy string from opcode, work_offset=ExtData[1]->WorkLocal[0], string="Reinhard")
  1: 0x0073 [0xB5] SET_EVENT_ENTITY_NAME: Change EventEntity name to ExtData[1]->WorkLocal[0]
  2: 0x0077 [0x00] END_REQSTACK()
```

### Event 65535.10

#### Metadata

| Field        | Value    |
|--------------|----------|
| Entrypoint   | 0x0078   |
| Data Size    | 37 bytes |
| Instructions | 5        |

```
      00 01 02 03 04 05 06 07  08 09 0A 0B 0C 0D 0E 0F
      -- -- -- -- -- -- -- --  -- -- -- -- -- -- -- --
0070:                          03 01 00 07 7F 1A 0C 01          ........
0080: 66 02 00 F8 FF FF 7F F8  FF FF 7F 73 68 61 30 53  f..........sha0S
0090: F8 FF FF 7F F8 FF FF 7F  73 68 61 30 00           ........sha0.   
```

#### Opcodes

```
  0: 0x0078 [0x03] ExtData[1]->WorkLocal[1] = Entity->Race
  1: 0x007D [0x1A] CALL_SUBROUTINE(address=0x010C)
  2: 0x0080 [0x66] LOAD_EXT_SCHEDULER_MAIN: Load scheduler "sha0" with entities [EventEntity, EventEntity], work=ExtData[1]->WorkLocal[2]
  3: 0x008F [0x53] WAIT_SCHEDULER_TASK: Wait for scheduler "sha0" with entities [EventEntity, EventEntity]
  4: 0x009C [0x00] END_REQSTACK()
```

### Event 65535.11

#### Metadata

| Field        | Value    |
|--------------|----------|
| Entrypoint   | 0x009D   |
| Data Size    | 37 bytes |
| Instructions | 5        |

```
      00 01 02 03 04 05 06 07  08 09 0A 0B 0C 0D 0E 0F
      -- -- -- -- -- -- -- --  -- -- -- -- -- -- -- --
0090:                                         03 01 00               ...
00A0: 07 7F 1A 0C 01 66 02 00  F8 FF FF 7F F8 FF FF 7F  .....f..........
00B0: 73 68 61 31 53 F8 FF FF  7F F8 FF FF 7F 73 68 61  sha1S........sha
00C0: 31 00                                             1.              
```

#### Opcodes

```
  0: 0x009D [0x03] ExtData[1]->WorkLocal[1] = Entity->Race
  1: 0x00A2 [0x1A] CALL_SUBROUTINE(address=0x010C)
  2: 0x00A5 [0x66] LOAD_EXT_SCHEDULER_MAIN: Load scheduler "sha1" with entities [EventEntity, EventEntity], work=ExtData[1]->WorkLocal[2]
  3: 0x00B4 [0x53] WAIT_SCHEDULER_TASK: Wait for scheduler "sha1" with entities [EventEntity, EventEntity]
  4: 0x00C1 [0x00] END_REQSTACK()
```

### Event 65535.12

#### Metadata

| Field        | Value    |
|--------------|----------|
| Entrypoint   | 0x00C2   |
| Data Size    | 37 bytes |
| Instructions | 5        |

```
      00 01 02 03 04 05 06 07  08 09 0A 0B 0C 0D 0E 0F
      -- -- -- -- -- -- -- --  -- -- -- -- -- -- -- --
00C0:       03 01 00 07 7F 1A  0C 01 66 02 00 F8 FF FF    ........f.....
00D0: 7F F8 FF FF 7F 73 69 74  30 53 F8 FF FF 7F F8 FF  .....sit0S......
00E0: FF 7F 73 69 74 30 00                              ..sit0.         
```

#### Opcodes

```
  0: 0x00C2 [0x03] ExtData[1]->WorkLocal[1] = Entity->Race
  1: 0x00C7 [0x1A] CALL_SUBROUTINE(address=0x010C)
  2: 0x00CA [0x66] LOAD_EXT_SCHEDULER_MAIN: Load scheduler "sit0" with entities [EventEntity, EventEntity], work=ExtData[1]->WorkLocal[2]
  3: 0x00D9 [0x53] WAIT_SCHEDULER_TASK: Wait for scheduler "sit0" with entities [EventEntity, EventEntity]
  4: 0x00E6 [0x00] END_REQSTACK()
```

### Event 65535.13

#### Metadata

| Field        | Value     |
|--------------|-----------|
| Entrypoint   | 0x00E7    |
| Data Size    | 185 bytes |
| Instructions | 13        |

```
      00 01 02 03 04 05 06 07  08 09 0A 0B 0C 0D 0E 0F
      -- -- -- -- -- -- -- --  -- -- -- -- -- -- -- --
00E0:                      03  01 00 07 7F 1A 0C 01 66         ........f
00F0: 02 00 F8 FF FF 7F F8 FF  FF 7F 73 69 74 31 53 F8  ..........sit1S.
0100: FF FF 7F F8 FF FF 7F 73  69 74 31 00 03 02 00 01  .......sit1.....
0110: 00 02 02 00 03 80 05 21  01 08 02 00 01 80 01 26  .......!.......&
0120: 01 08 02 00 04 80 14 02  00 05 80 07 02 00 06 80  ................
0130: 1B 03 02 00 01 00 02 02  00 03 80 05 46 01 08 02  ............F...
0140: 00 01 80 01 4B 01 08 02  00 04 80 14 02 00 05 80  ....K...........
0150: 07 02 00 07 80 1B 03 02  00 01 00 02 02 00 03 80  ................
0160: 05 6B 01 08 02 00 01 80  01 70 01 08 02 00 04 80  .k.......p......
0170: 14 02 00 05 80 07 02 00  08 80 1B 03 02 00 01 00  ................
0180: 02 02 00 03 80 05 90 01  08 02 00 01 80 01 95 01  ................
0190: 08 02 00 04 80 14 02 00  05 80 07 02 00 09 80 1B  ................
```

#### Opcodes

```
  0: 0x00E7 [0x03] ExtData[1]->WorkLocal[1] = Entity->Race
  1: 0x00EC [0x1A] CALL_SUBROUTINE(address=0x010C)
  2: 0x00EF [0x66] LOAD_EXT_SCHEDULER_MAIN: Load scheduler "sit1" with entities [EventEntity, EventEntity], work=ExtData[1]->WorkLocal[2]
  3: 0x00FE [0x53] WAIT_SCHEDULER_TASK: Wait for scheduler "sit1" with entities [EventEntity, EventEntity]
  4: 0x010B [0x00] END_REQSTACK()

SUBROUTINE_010C:
  5: 0x010C [0x03] ExtData[1]->WorkLocal[2] = ExtData[1]->WorkLocal[1]
  6: 0x0111 [0x02] IF !(ExtData[1]->WorkLocal[2] > 5*) GOTO 0x0121
  7: 0x0119 [0x08] ExtData[1]->WorkLocal[2] -= 1*
  8: 0x011E [0x01] GOTO 0x0126
  9: 0x0121 [0x08] ExtData[1]->WorkLocal[2] -= 2*

SUBROUTINE_0126:
 10: 0x0126 [0x14] ExtData[1]->WorkLocal[2] *= 10*
 11: 0x012B [0x07] ExtData[1]->WorkLocal[2] += 9*
 12: 0x0130 [0x1B] RETURN
```

#### Data or dead code:

```
# Dead code (unreachable instructions):
     0x0131 [0x03] ExtData[1]->WorkLocal[2] = ExtData[1]->WorkLocal[1]
     0x0136 [0x02] IF !(ExtData[1]->WorkLocal[2] > 5*) GOTO 0x0146
     0x013E [0x08] ExtData[1]->WorkLocal[2] -= 1*
     0x0143 [0x01] GOTO 0x014B
     0x0146 [0x08] ExtData[1]->WorkLocal[2] -= 2*
     0x014B [0x14] ExtData[1]->WorkLocal[2] *= 10*
     0x0150 [0x07] ExtData[1]->WorkLocal[2] += 70*
     0x0155 [0x1B] RETURN
     0x0156 [0x03] ExtData[1]->WorkLocal[2] = ExtData[1]->WorkLocal[1]
     0x015B [0x02] IF !(ExtData[1]->WorkLocal[2] > 5*) GOTO 0x016B
     0x0163 [0x08] ExtData[1]->WorkLocal[2] -= 1*
     0x0168 [0x01] GOTO 0x0170
     0x016B [0x08] ExtData[1]->WorkLocal[2] -= 2*
     0x0170 [0x14] ExtData[1]->WorkLocal[2] *= 10*
     0x0175 [0x07] ExtData[1]->WorkLocal[2] += 140*
     0x017A [0x1B] RETURN
     0x017B [0x03] ExtData[1]->WorkLocal[2] = ExtData[1]->WorkLocal[1]
     0x0180 [0x02] IF !(ExtData[1]->WorkLocal[2] > 5*) GOTO 0x0190
     0x0188 [0x08] ExtData[1]->WorkLocal[2] -= 1*
     0x018D [0x01] GOTO 0x0195
     0x0190 [0x08] ExtData[1]->WorkLocal[2] -= 2*
     0x0195 [0x14] ExtData[1]->WorkLocal[2] *= 10*
     0x019A [0x07] ExtData[1]->WorkLocal[2] += 210*
     0x019F [0x1B] RETURN
```

### Event 65535.14

#### Metadata

| Field        | Value    |
|--------------|----------|
| Entrypoint   | 0x01A0   |
| Data Size    | 25 bytes |
| Instructions | 6        |

```
      00 01 02 03 04 05 06 07  08 09 0A 0B 0C 0D 0E 0F
      -- -- -- -- -- -- -- --  -- -- -- -- -- -- -- --
01A0: 79 00 F8 FF FF 7F 9D 62  07 01 32 0A 80 1F 00 0B  y......b..2.....
01B0: 80 0C 80 0D 80 1F 01 6F  00                       .......o.       
```

#### Opcodes

```
  0: 0x01A0 [0x79] EventEntity looks at Cavernous Maw (ID: 17261213/0x0107629D) (Basic look)
  1: 0x01AA [0x32] ExtData[1]->MainSpeed = 13* * 0.1
  2: 0x01AD [0x1F] MOVE_ENTITY: EventEntity moves to X=-340.240*, Z=53.080*, Y=-24.375*
  3: 0x01B5 [0x1F] MOVE_ENTITY: Update entity position (mode=1)
  4: 0x01B7 [0x6F] WAIT_FRAME_DELAY: Yield until WaitTime reaches zero
  5: 0x01B8 [0x00] END_REQSTACK()
```

### Event 65535.15

#### Metadata

| Field        | Value    |
|--------------|----------|
| Entrypoint   | 0x01B9   |
| Data Size    | 39 bytes |
| Instructions | 9        |

```
      00 01 02 03 04 05 06 07  08 09 0A 0B 0C 0D 0E 0F
      -- -- -- -- -- -- -- --  -- -- -- -- -- -- -- --
01B0:                             7B F8 FF FF 7F 32 0A           {....2.
01C0: 80 1F 00 0E 80 0F 80 10  80 1F 01 4A F0 FF FF 7F  ...........J....
01D0: 9F 62 07 01 1C 11 80 1E  F0 FF FF 7F 1C 12 80 00  .b..............
```

#### Opcodes

```
  0: 0x01B9 [0x7B] EventEntity stops talking
  1: 0x01BE [0x32] ExtData[1]->MainSpeed = 13* * 0.1
  2: 0x01C1 [0x1F] MOVE_ENTITY: EventEntity moves to X=-341.745*, Z=47.859*, Y=-23.330*
  3: 0x01C9 [0x1F] MOVE_ENTITY: Update entity position (mode=1)
  4: 0x01CB [0x4A] LocalPlayer looks at Reinhard (ID: 17261215/0x0107629F)
  5: 0x01D4 [0x1C] WAIT(30* ticks)
  6: 0x01D7 [0x1E] EventEntity looks at LocalPlayer and starts talking
  7: 0x01DC [0x1C] WAIT(60* ticks)
  8: 0x01DF [0x00] END_REQSTACK()
```

### Event 65535.16

#### Metadata

| Field        | Value    |
|--------------|----------|
| Entrypoint   | 0x01E0   |
| Data Size    | 20 bytes |
| Instructions | 6        |

```
      00 01 02 03 04 05 06 07  08 09 0A 0B 0C 0D 0E 0F
      -- -- -- -- -- -- -- --  -- -- -- -- -- -- -- --
01E0: 7B F8 FF FF 7F 32 13 80  1F 00 14 80 15 80 16 80  {....2..........
01F0: 1F 01 6F 00                                       ..o.            
```

#### Opcodes

```
  0: 0x01E0 [0x7B] EventEntity stops talking
  1: 0x01E5 [0x32] ExtData[1]->MainSpeed = 11* * 0.1
  2: 0x01E8 [0x1F] MOVE_ENTITY: EventEntity moves to X=-342.699*, Z=50.430*, Y=-24.162*
  3: 0x01F0 [0x1F] MOVE_ENTITY: Update entity position (mode=1)
  4: 0x01F2 [0x6F] WAIT_FRAME_DELAY: Yield until WaitTime reaches zero
  5: 0x01F3 [0x00] END_REQSTACK()
```
