# 17261215

## Common Data

| Field            | Value                        |
|------------------|------------------------------|
| Zone             | Buburimu Peninsula (ID: 118) |
| Block Size       | 3308 bytes                   |
| Total Events     | 3                            |
| References Count | 84                           |

## List of Events

| Event ID              | Entrypoint   |   Size |   Instructions |
|-----------------------|--------------|--------|----------------|
| [65535](#event-65535) | 0x0000       |      1 |              1 |
| [62](#event-62)       | 0x0001       |   1223 |            156 |
| [63](#event-63)       | 0x04C8       |   1720 |            205 |

## DAT References (imed_data)

|   Index | Hex Value   |   Dec Value |
|---------|-------------|-------------|
|       0 | 0x0013      |          19 |
|       1 | 0xFFFAC9EC  |  4294625772 |
|       2 | 0xC1BF      |       49599 |
|       3 | 0xFFFFA2F0  |  4294943472 |
|       4 | 0x0A19      |        2585 |
|       5 | 0xFFFAD4D6  |  4294628566 |
|       6 | 0xE9EB      |       59883 |
|       7 | 0xFFFF9E58  |  4294942296 |
|       8 | 0x04AB      |        1195 |
|       9 | 0xFFF76C5F  |  4294405215 |
|      10 | 0x9BEBD     |      638653 |
|      11 | 0x0000      |           0 |
|      12 | 0x01F1      |         497 |
|      13 | 0xFFFF1E20  |  4294909472 |
|      14 | 0x001E      |          30 |
|      15 | 0x01E9      |         489 |
|      16 | 0x0078      |         120 |
|      17 | 0x00DF      |         223 |
|      18 | 0x2CA0      |       11424 |
|      19 | 0x0009      |           9 |
|      20 | 0x2CA1      |       11425 |
|      21 | 0x2CA2      |       11426 |
|      22 | 0x2CA3      |       11427 |
|      23 | 0x2CA4      |       11428 |
|      24 | 0x2CA5      |       11429 |
|      25 | 0x04F7      |        1271 |
|      26 | 0x2CA6      |       11430 |
|      27 | 0x2CA7      |       11431 |
|      28 | 0x0033      |          51 |
|      29 | 0x2CA8      |       11432 |
|      30 | 0x2CA9      |       11433 |
|      31 | 0x2CAA      |       11434 |
|      32 | 0x2CAB      |       11435 |
|      33 | 0x003C      |          60 |
|      34 | 0x2CAC      |       11436 |
|      35 | 0x2CAD      |       11437 |
|      36 | 0x0006      |           6 |
|      37 | 0x2CAE      |       11438 |
|      38 | 0x00D5      |         213 |
|      39 | 0x2CAF      |       11439 |
|      40 | 0x00FF      |         255 |
|      41 | 0x0001      |           1 |
|      42 | 0x2CB0      |       11440 |
|      43 | 0x2CB1      |       11441 |
|      44 | 0x2CB2      |       11442 |
|      45 | 0x005A      |          90 |
|      46 | 0x0007      |           7 |
|      47 | 0x2CB3      |       11443 |
|      48 | 0x012C      |         300 |
|      49 | 0x004F      |          79 |
|      50 | 0x00D2      |         210 |
|      51 | 0x00C8      |         200 |
|      52 | 0xFFFACFF5  |  4294627317 |
|      53 | 0xBD6D      |       48493 |
|      54 | 0xFFFFA4B6  |  4294943926 |
|      55 | 0x01F3      |         499 |
|      56 | 0xFFFABA82  |  4294621826 |
|      57 | 0xC7AD      |       51117 |
|      58 | 0xFFFF9FD1  |  4294942673 |
|      59 | 0x0166      |         358 |
|      60 | 0xFFF76224  |  4294402596 |
|      61 | 0x9D1F8     |      643576 |
|      62 | 0x0021      |          33 |
|      63 | 0x019A      |         410 |
|      64 | 0x0050      |          80 |
|      65 | 0x2CB4      |       11444 |
|      66 | 0x000F      |          15 |
|      67 | 0x2CB5      |       11445 |
|      68 | 0x00C7      |         199 |
|      69 | 0x2CB6      |       11446 |
|      70 | 0x2CB7      |       11447 |
|      71 | 0x2CB8      |       11448 |
|      72 | 0x0047      |          71 |
|      73 | 0x2CB9      |       11449 |
|      74 | 0x2CBA      |       11450 |
|      75 | 0x2CBB      |       11451 |
|      76 | 0x2CBC      |       11452 |
|      77 | 0x2CBD      |       11453 |
|      78 | 0x2CBE      |       11454 |
|      79 | 0x2CBF      |       11455 |
|      80 | 0x00C9      |         201 |
|      81 | 0x002D      |          45 |
|      82 | 0x0002      |           2 |
|      83 | 0x00D7      |         215 |

## Events

### Event 65535

#### Metadata

| Field        | Value   |
|--------------|---------|
| Entrypoint   | 0x0000  |
| Data Size    | 1 bytes |
| Instructions | 1       |

```
      00 01 02 03 04 05 06 07  08 09 0A 0B 0C 0D 0E 0F
      -- -- -- -- -- -- -- --  -- -- -- -- -- -- -- --
0000: 00                                                .               
```

#### Opcodes

```
  0: 0x0000 [0x00] END_REQSTACK()
```

### Event 62

#### Metadata

| Field        | Value      |
|--------------|------------|
| Entrypoint   | 0x0001     |
| Data Size    | 1223 bytes |
| Instructions | 156        |

```
      00 01 02 03 04 05 06 07  08 09 0A 0B 0C 0D 0E 0F
      -- -- -- -- -- -- -- --  -- -- -- -- -- -- -- --
0000:    42 1A 52 09 46 01 38  00 80 27 10 A0 62 07 01   B.R.F.8..'..b..
0010: 02 27 10 A1 62 07 01 04  4E 00 A3 62 07 01 4E 00  .'..b...N..b..N.
0020: A2 62 07 01 92 01 A0 62  07 01 94 01 F0 FF FF 7F  .b.....b........
0030: 94 01 A0 62 07 01 94 01  9E 62 07 01 94 01 A3 62  ...b.....b.....b
0040: 07 01 94 01 A2 62 07 01  94 01 A1 62 07 01 BA F0  .....b.....b....
0050: FF FF 7F 01 80 02 80 03  80 04 80 BA A0 62 07 01  .............b..
0060: 05 80 06 80 07 80 08 80  BA A3 62 07 01 09 80 0A  ..........b.....
0070: 80 0B 80 0C 80 59 05 A2  62 07 01 01 BA A2 62 07  .....Y..b.....b.
0080: 01 01 80 02 80 0D 80 04  80 59 05 A1 62 07 01 01  .........Y..b...
0090: BA A1 62 07 01 01 80 02  80 0D 80 04 80 29 10 A1  ..b..........)..
00A0: 62 07 01 0A 29 10 A0 62  07 01 0A 80 F0 FF FF 7F  b...)..b........
00B0: 80 A0 62 07 01 80 9E 62  07 01 80 A1 62 07 01 1C  ..b....b....b...
00C0: 0E 80 45 0F 80 F0 FF FF  7F F0 FF FF 7F 37 34 30  ..E..........740
00D0: 30 0B 80 1A 31 09 1C 10  80 52 0F 80 F0 FF FF 7F  0...1....R......
00E0: F0 FF FF 7F 37 34 30 30  45 0F 80 F0 FF FF 7F F0  ....7400E.......
00F0: FF FF 7F 37 34 30 31 0B  80 1C 0E 80 79 00 F0 FF  ...7401.....y...
0100: FF 7F 9E 62 07 01 1C 10  80 52 0F 80 F0 FF FF 7F  ...b.....R......
0110: F0 FF FF 7F 37 34 30 31  45 0F 80 F0 FF FF 7F F0  ....7401E.......
0120: FF FF 7F 37 34 30 32 0B  80 BB 11 80 A0 62 07 01  ...7402......b..
0130: A0 62 07 01 6F 75 74 30  0B 80 1C 0E 80 79 00 F0  .b..out0.....y..
0140: FF FF 7F A0 62 07 01 2B  A0 62 07 01 12 80 23 52  ....b..+.b....#R
0150: 0F 80 F0 FF FF 7F F0 FF  FF 7F 37 34 30 32 45 0F  ..........7402E.
0160: 80 F0 FF FF 7F F0 FF FF  7F 37 34 30 33 0B 80 66  .........7403..f
0170: 13 80 A0 62 07 01 A0 62  07 01 74 77 61 30 29 10  ...b...b..twa0).
0180: A0 62 07 01 0B 2B A0 62  07 01 14 80 23 66 13 80  .b...+.b....#f..
0190: A0 62 07 01 A0 62 07 01  74 77 61 31 2B A0 62 07  .b...b..twa1+.b.
01A0: 01 15 80 23 27 10 A0 62  07 01 10 1C 0E 80 52 0F  ...#'..b......R.
01B0: 80 F0 FF FF 7F F0 FF FF  7F 37 34 30 33 45 0F 80  .........7403E..
01C0: F0 FF FF 7F F0 FF FF 7F  37 34 30 34 0B 80 4A F0  ........7404..J.
01D0: FF FF 7F A0 62 07 01 2B  A0 62 07 01 16 80 1C 10  ....b..+.b......
01E0: 80 23 79 00 A0 62 07 01  F0 FF FF 7F 52 0F 80 F0  .#y..b......R...
01F0: FF FF 7F F0 FF FF 7F 37  34 30 34 45 0F 80 F0 FF  .......7404E....
0200: FF 7F F0 FF FF 7F 37 34  30 35 0B 80 2B A0 62 07  ......7405..+.b.
0210: 01 17 80 23 2A 10 A0 62  07 01 2B A0 62 07 01 18  ...#*..b..+.b...
0220: 80 23 52 0F 80 F0 FF FF  7F F0 FF FF 7F 37 34 30  .#R..........740
0230: 35 45 0F 80 F0 FF FF 7F  F0 FF FF 7F 37 34 30 36  5E..........7406
0240: 0B 80 66 13 80 A0 62 07  01 A0 62 07 01 74 77 62  ..f...b...b..twb
0250: 30 03 02 10 19 80 2B A0  62 07 01 1A 80 23 2B A0  0.....+.b....#+.
0260: 62 07 01 1B 80 23 5C 00  1C 80 5C 01 1C 80 9A 52  b....#\...\....R
0270: 0F 80 F0 FF FF 7F F0 FF  FF 7F 37 34 30 36 45 0F  ..........7406E.
0280: 80 F0 FF FF 7F F0 FF FF  7F 37 34 30 37 0B 80 66  .........7407..f
0290: 13 80 A0 62 07 01 A0 62  07 01 74 77 62 31 2B A0  ...b...b..twb1+.
02A0: 62 07 01 1D 80 23 2B A0  62 07 01 1E 80 23 29 10  b....#+.b....#).
02B0: F0 FF FF 7F 1F 52 0F 80  F0 FF FF 7F F0 FF FF 7F  .....R..........
02C0: 37 34 30 37 45 0F 80 F0  FF FF 7F F0 FF FF 7F 37  7407E..........7
02D0: 34 30 38 0B 80 7B A0 62  07 01 66 13 80 A0 62 07  408..{.b..f...b.
02E0: 01 A0 62 07 01 74 68 6B  31 2B A0 62 07 01 1F 80  ..b..thk1+.b....
02F0: 23 2B A0 62 07 01 20 80  23 79 00 A0 62 07 01 F0  #+.b.. .#y..b...
0300: FF FF 7F 52 0F 80 F0 FF  FF 7F F0 FF FF 7F 37 34  ...R..........74
0310: 30 38 45 0F 80 F0 FF FF  7F F0 FF FF 7F 37 34 30  08E..........740
0320: 39 0B 80 66 13 80 A0 62  07 01 A0 62 07 01 74 68  9..f...b...b..th
0330: 6B 32 1C 21 80 2B A0 62  07 01 22 80 23 2B A0 62  k2.!.+.b..".#+.b
0340: 07 01 23 80 23 52 0F 80  F0 FF FF 7F F0 FF FF 7F  ..#.#R..........
0350: 37 34 30 39 45 0F 80 F0  FF FF 7F F0 FF FF 7F 37  7409E..........7
0360: 34 31 30 0B 80 6E A0 62  07 01 24 80 99 A0 62 07  410..n.b..$...b.
0370: 01 2B A0 62 07 01 25 80  23 C5 26 80 A2 62 07 01  .+.b..%.#.&..b..
0380: A2 62 07 01 73 30 30 30  0B 80 2B A0 62 07 01 27  .b..s000..+.b..'
0390: 80 23 52 0F 80 F0 FF FF  7F F0 FF FF 7F 37 34 31  .#R..........741
03A0: 30 45 0F 80 F0 FF FF 7F  F0 FF FF 7F 37 34 31 31  0E..........7411
03B0: 0B 80 77 28 80 29 80 AB  09 1C 21 80 2B A0 62 07  ..w(.)....!.+.b.
03C0: 01 2A 80 23 52 0F 80 F0  FF FF 7F F0 FF FF 7F 37  .*.#R..........7
03D0: 34 31 31 45 0F 80 F0 FF  FF 7F F0 FF FF 7F 37 34  411E..........74
03E0: 31 32 0B 80 1C 21 80 2B  A0 62 07 01 2B 80 23 52  12...!.+.b..+.#R
03F0: 0F 80 F0 FF FF 7F F0 FF  FF 7F 37 34 31 32 45 0F  ..........7412E.
0400: 80 F0 FF FF 7F F0 FF FF  7F 37 34 31 33 0B 80 AB  .........7413...
0410: 0A 78 1C 21 80 C5 26 80  A2 62 07 01 A2 62 07 01  .x.!..&..b...b..
0420: 6B 69 6C 30 0B 80 4E 01  A1 62 07 01 2B A0 62 07  kil0..N..b..+.b.
0430: 01 2C 80 1C 2D 80 23 52  0F 80 F0 FF FF 7F F0 FF  .,..-.#R........
0440: FF 7F 37 34 31 33 45 0F  80 F0 FF FF 7F F0 FF FF  ..7413E.........
0450: 7F 37 34 31 34 0B 80 6E  A0 62 07 01 2E 80 99 A0  .7414..n.b......
0460: 62 07 01 2B A0 62 07 01  2F 80 23 5D 0B 80 30 80  b..+.b../.#]..0.
0470: CD 31 80 A0 62 07 01 A0  62 07 01 6D 61 69 6E 0B  .1..b...b..main.
0480: 80 1C 32 80 1A 52 09 1C  0E 80 52 0F 80 F0 FF FF  ..2..R....R.....
0490: 7F F0 FF FF 7F 37 34 31  34 45 0F 80 F0 FF FF 7F  .....7414E......
04A0: F0 FF FF 7F 30 62 6C 66  0B 80 5C 00 0B 80 5C 01  ....0blf..\...\.
04B0: 0B 80 9A 46 00 45 33 80  F0 FF FF 7F F0 FF FF 7F  ...F.E3.........
04C0: 66 64 69 32 0B 80 21 00                           fdi2..!.        
```

#### Opcodes

```
  0: 0x0001 [0x42] SET_CLI_EVENT_CANCEL_DATA()
  1: 0x0002 [0x1A] CALL_SUBROUTINE(address=0x0952)
  2: 0x0005 [0x46] CAMERA_CONTROL: Disable user control
  3: 0x0007 [0x38] SET_CLIENT_EVENT_MODE(mode=19*)
  4: 0x000A [0x27] REQ_SET(priority=0x10, entity_id=Reinhard (ID: 17261216/0x010762A0), tag_num=0x02)
  5: 0x0011 [0x27] REQ_SET(priority=0x10, entity_id=Unnamed NPC (ID: 17261217/0x010762A1), tag_num=0x04)
  6: 0x0018 [0x4E] SET_ENTITY_HIDE_FLAG: Show Unnamed NPC (ID: 17261219/0x010762A3)
  7: 0x001E [0x4E] SET_ENTITY_HIDE_FLAG: Show ??? (ID: 17261218/0x010762A2)
  8: 0x0024 [0x92] Reinhard (ID: 17261216/0x010762A0)->Render.Flags3 ^= 0x01
  9: 0x002A [0x94] LocalPlayer->Render.Flags3 ^= 0x01
 10: 0x0030 [0x94] Reinhard (ID: 17261216/0x010762A0)->Render.Flags3 ^= 0x01
 11: 0x0036 [0x94] Cavernous Maw (ID: 17261214/0x0107629E)->Render.Flags3 ^= 0x01
 12: 0x003C [0x94] Unnamed NPC (ID: 17261219/0x010762A3)->Render.Flags3 ^= 0x01
 13: 0x0042 [0x94] ??? (ID: 17261218/0x010762A2)->Render.Flags3 ^= 0x01
 14: 0x0048 [0x94] Unnamed NPC (ID: 17261217/0x010762A1)->Render.Flags3 ^= 0x01
 15: 0x004E [0xBA] SET_ENTITY_POSITION(entity_id=LocalPlayer, pos_x=-341.524*, pos_z=49.599*, pos_y=-23.824*, direction=227.2°*)
 16: 0x005B [0xBA] SET_ENTITY_POSITION(entity_id=Reinhard (ID: 17261216/0x010762A0), pos_x=-338.730*, pos_z=59.883*, pos_y=-25.000*, direction=105.0°*)
 17: 0x0068 [0xBA] SET_ENTITY_POSITION(entity_id=Unnamed NPC (ID: 17261219/0x010762A3), pos_x=-562.081*, pos_z=638.653*, pos_y=0.000*, direction=43.7°*)
 18: 0x0075 [0x59] UPDATE_ENTITY_DATA: ??? (ID: 17261218/0x010762A2)->Render.Flags0 |= 0x200000
 19: 0x007C [0xBA] SET_ENTITY_POSITION(entity_id=??? (ID: 17261218/0x010762A2), pos_x=-341.524*, pos_z=49.599*, pos_y=-57.824*, direction=227.2°*)
 20: 0x0089 [0x59] UPDATE_ENTITY_DATA: Unnamed NPC (ID: 17261217/0x010762A1)->Render.Flags0 |= 0x200000
 21: 0x0090 [0xBA] SET_ENTITY_POSITION(entity_id=Unnamed NPC (ID: 17261217/0x010762A1), pos_x=-341.524*, pos_z=49.599*, pos_y=-57.824*, direction=227.2°*)
 22: 0x009D [0x29] REQ_SET_WAIT(priority=0x10, entity_id=Unnamed NPC (ID: 17261217/0x010762A1), tag_num=0x0A)
 23: 0x00A4 [0x29] REQ_SET_WAIT(priority=0x10, entity_id=Reinhard (ID: 17261216/0x010762A0), tag_num=0x0A)
 24: 0x00AB [0x80] LOAD_WAIT(entity=LocalPlayer)
 25: 0x00B0 [0x80] LOAD_WAIT(entity=Reinhard (ID: 17261216/0x010762A0))
 26: 0x00B5 [0x80] LOAD_WAIT(entity=Cavernous Maw (ID: 17261214/0x0107629E))
 27: 0x00BA [0x80] LOAD_WAIT(entity=Unnamed NPC (ID: 17261217/0x010762A1))
 28: 0x00BF [0x1C] WAIT(30* ticks)
 29: 0x00C2 [0x45] LOAD_SCHEDULED_TASK: Load scheduler "7400" with entities [LocalPlayer, LocalPlayer], work=[489*, 0*]
 30: 0x00D3 [0x1A] CALL_SUBROUTINE(address=0x0931)
 31: 0x00D6 [0x1C] WAIT(120* ticks)
 32: 0x00D9 [0x52] END_LOAD_SCHEDULER: End scheduler "7400" with entities [LocalPlayer, LocalPlayer], work=489*
 33: 0x00E8 [0x45] LOAD_SCHEDULED_TASK: Load scheduler "7401" with entities [LocalPlayer, LocalPlayer], work=[489*, 0*]
 34: 0x00F9 [0x1C] WAIT(30* ticks)
 35: 0x00FC [0x79] LocalPlayer looks at Cavernous Maw (ID: 17261214/0x0107629E) (Basic look)
 36: 0x0106 [0x1C] WAIT(120* ticks)
 37: 0x0109 [0x52] END_LOAD_SCHEDULER: End scheduler "7401" with entities [LocalPlayer, LocalPlayer], work=489*
 38: 0x0118 [0x45] LOAD_SCHEDULED_TASK: Load scheduler "7402" with entities [LocalPlayer, LocalPlayer], work=[489*, 0*]
 39: 0x0129 [0xBB] LOAD_EVENT_SCHEDULER_ALT: Load scheduler "out0" with entities [Reinhard (ID: 17261216/0x010762A0), Reinhard (ID: 17261216/0x010762A0)], work=[223*, 0*]
 40: 0x013A [0x1C] WAIT(30* ticks)
 41: 0x013D [0x79] LocalPlayer looks at Reinhard (ID: 17261216/0x010762A0) (Basic look)
 42: 0x0147 [0x2B] Reinhard (ID: 17261216/0x010762A0) [11424*]:
    → "Ho, there. <Player>, I presume."
 43: 0x014E [0x23] WAIT_FOR_DIALOG_INTERACTION
 44: 0x014F [0x52] END_LOAD_SCHEDULER: End scheduler "7402" with entities [LocalPlayer, LocalPlayer], work=489*
 45: 0x015E [0x45] LOAD_SCHEDULED_TASK: Load scheduler "7403" with entities [LocalPlayer, LocalPlayer], work=[489*, 0*]
 46: 0x016F [0x66] LOAD_EXT_SCHEDULER_MAIN: Load scheduler "twa0" with entities [Reinhard (ID: 17261216/0x010762A0), Reinhard (ID: 17261216/0x010762A0)], work=9*
 47: 0x017E [0x29] REQ_SET_WAIT(priority=0x10, entity_id=Reinhard (ID: 17261216/0x010762A0), tag_num=0x0B)
 48: 0x0185 [0x2B] Reinhard (ID: 17261216/0x010762A0) [11425*]:
    → "Allow me to introduce myself. My name's Reinhard, and I'm a friend of Joachim's."
 49: 0x018C [0x23] WAIT_FOR_DIALOG_INTERACTION
 50: 0x018D [0x66] LOAD_EXT_SCHEDULER_MAIN: Load scheduler "twa1" with entities [Reinhard (ID: 17261216/0x010762A0), Reinhard (ID: 17261216/0x010762A0)], work=9*
 51: 0x019C [0x2B] Reinhard (ID: 17261216/0x010762A0) [11426*]:
    → "You see the cavernous maw here? I'll wager that you think it'll take you to the Buburimu Peninsula of Abyssea."
 52: 0x01A3 [0x23] WAIT_FOR_DIALOG_INTERACTION
 53: 0x01A4 [0x27] REQ_SET(priority=0x10, entity_id=Reinhard (ID: 17261216/0x010762A0), tag_num=0x10)
 54: 0x01AB [0x1C] WAIT(30* ticks)
 55: 0x01AE [0x52] END_LOAD_SCHEDULER: End scheduler "7403" with entities [LocalPlayer, LocalPlayer], work=489*
 56: 0x01BD [0x45] LOAD_SCHEDULED_TASK: Load scheduler "7404" with entities [LocalPlayer, LocalPlayer], work=[489*, 0*]
 57: 0x01CE [0x4A] LocalPlayer looks at Reinhard (ID: 17261216/0x010762A0)
 58: 0x01D7 [0x2B] Reinhard (ID: 17261216/0x010762A0) [11427*]:
    → "But if you step through expecting sandy beaches, you're bound to be disappointed, for it's a chasm that awaits you. The Attohwa Chasm, to be precise."
 59: 0x01DE [0x1C] WAIT(120* ticks)
 60: 0x01E1 [0x23] WAIT_FOR_DIALOG_INTERACTION
 61: 0x01E2 [0x79] Reinhard (ID: 17261216/0x010762A0) looks at LocalPlayer (Basic look)
 62: 0x01EC [0x52] END_LOAD_SCHEDULER: End scheduler "7404" with entities [LocalPlayer, LocalPlayer], work=489*
 63: 0x01FB [0x45] LOAD_SCHEDULED_TASK: Load scheduler "7405" with entities [LocalPlayer, LocalPlayer], work=[489*, 0*]
 64: 0x020C [0x2B] Reinhard (ID: 17261216/0x010762A0) [11428*]:
    → "The academic types among us suspect a dimensional misalignment to be behind this strange phenomenon. The theory's beyond my comprehension, so I'd thank you not to ask for an explanation."
 65: 0x0213 [0x23] WAIT_FOR_DIALOG_INTERACTION
 66: 0x0214 [0x2A] GET_REQ_LEVEL(level=16, entity_id=Reinhard (ID: 17261216/0x010762A0))
 67: 0x021A [0x2B] Reinhard (ID: 17261216/0x010762A0) [11429*]:
    → "But I can guarantee you this: it's no less safe to use this cavernous maw than any other. I'm living, walking proof of that. <Cough, cough>... Don't mind my sore throat."
 68: 0x0221 [0x23] WAIT_FOR_DIALOG_INTERACTION
 69: 0x0222 [0x52] END_LOAD_SCHEDULER: End scheduler "7405" with entities [LocalPlayer, LocalPlayer], work=489*
 70: 0x0231 [0x45] LOAD_SCHEDULED_TASK: Load scheduler "7406" with entities [LocalPlayer, LocalPlayer], work=[489*, 0*]
 71: 0x0242 [0x66] LOAD_EXT_SCHEDULER_MAIN: Load scheduler "twb0" with entities [Reinhard (ID: 17261216/0x010762A0), Reinhard (ID: 17261216/0x010762A0)], work=9*
 72: 0x0251 [0x03] Work_Zone[2] = 1271*
 73: 0x0256 [0x2B] Reinhard (ID: 17261216/0x010762A0) [11430*]:
    → "I see you've got $6 with you. Good."
 74: 0x025D [0x23] WAIT_FOR_DIALOG_INTERACTION
 75: 0x025E [0x2B] Reinhard (ID: 17261216/0x010762A0) [11431*]:
    → "I don't think I need to remind you how important these stones are to our cause. See that you don't ever misplace them."
 76: 0x0265 [0x23] WAIT_FOR_DIALOG_INTERACTION
 77: 0x0266 [0x5C] MUSIC_CONTROL: Set Idle (Day) music to song 51*
 78: 0x026A [0x5C] MUSIC_CONTROL: Set Idle (Night) music to song 51*
 79: 0x026E [0x9A] WAIT_MUSIC_SERVER()
 80: 0x026F [0x52] END_LOAD_SCHEDULER: End scheduler "7406" with entities [LocalPlayer, LocalPlayer], work=489*
 81: 0x027E [0x45] LOAD_SCHEDULED_TASK: Load scheduler "7407" with entities [LocalPlayer, LocalPlayer], work=[489*, 0*]
 82: 0x028F [0x66] LOAD_EXT_SCHEDULER_MAIN: Load scheduler "twb1" with entities [Reinhard (ID: 17261216/0x010762A0), Reinhard (ID: 17261216/0x010762A0)], work=9*
 83: 0x029E [0x2B] Reinhard (ID: 17261216/0x010762A0) [11432*]:
    → "Now then, let us talk about more pertinent issues."
 84: 0x02A5 [0x23] WAIT_FOR_DIALOG_INTERACTION
 85: 0x02A6 [0x2B] Reinhard (ID: 17261216/0x010762A0) [11433*]:
    → "I understand you're no stranger to Abyssea, but it would serve you to learn of how things stand in the Attohwa Chasm."
 86: 0x02AD [0x23] WAIT_FOR_DIALOG_INTERACTION
 87: 0x02AE [0x29] REQ_SET_WAIT(priority=0x10, entity_id=LocalPlayer, tag_num=0x1F)
 88: 0x02B5 [0x52] END_LOAD_SCHEDULER: End scheduler "7407" with entities [LocalPlayer, LocalPlayer], work=489*
 89: 0x02C4 [0x45] LOAD_SCHEDULED_TASK: Load scheduler "7408" with entities [LocalPlayer, LocalPlayer], work=[489*, 0*]
 90: 0x02D5 [0x7B] Reinhard (ID: 17261216/0x010762A0) stops talking
 91: 0x02DA [0x66] LOAD_EXT_SCHEDULER_MAIN: Load scheduler "thk1" with entities [Reinhard (ID: 17261216/0x010762A0), Reinhard (ID: 17261216/0x010762A0)], work=9*
 92: 0x02E9 [0x2B] Reinhard (ID: 17261216/0x010762A0) [11434*]:
    → "Like Vunkerl and Misareaux, early model martellos are deployed there, forming the heart of the resistance effort."
 93: 0x02F0 [0x23] WAIT_FOR_DIALOG_INTERACTION
 94: 0x02F1 [0x2B] Reinhard (ID: 17261216/0x010762A0) [11435*]:
    → "Being older machines, however, they lack the power of their newer counterparts. For this reason, we've been augmenting their deficiencies via a mother unit called the "pulse martello," which is located in a dedicated outpost."
 95: 0x02F8 [0x23] WAIT_FOR_DIALOG_INTERACTION
 96: 0x02F9 [0x79] Reinhard (ID: 17261216/0x010762A0) looks at LocalPlayer (Basic look)
 97: 0x0303 [0x52] END_LOAD_SCHEDULER: End scheduler "7408" with entities [LocalPlayer, LocalPlayer], work=489*
 98: 0x0312 [0x45] LOAD_SCHEDULED_TASK: Load scheduler "7409" with entities [LocalPlayer, LocalPlayer], work=[489*, 0*]
 99: 0x0323 [0x66] LOAD_EXT_SCHEDULER_MAIN: Load scheduler "thk2" with entities [Reinhard (ID: 17261216/0x010762A0), Reinhard (ID: 17261216/0x010762A0)], work=9*
100: 0x0332 [0x1C] WAIT(60* ticks)
101: 0x0335 [0x2B] Reinhard (ID: 17261216/0x010762A0) [11436*]:
    → "But the Abyssean fiends have somehow learned of the pulse martello's significance, and now seek to destroy it at every turn."
102: 0x033C [0x23] WAIT_FOR_DIALOG_INTERACTION
103: 0x033D [0x2B] Reinhard (ID: 17261216/0x010762A0) [11437*]:
    → "Each punishing wave of attack thins down our defenses. At this rate, it won't be long before they break through."
104: 0x0344 [0x23] WAIT_FOR_DIALOG_INTERACTION
105: 0x0345 [0x52] END_LOAD_SCHEDULER: End scheduler "7409" with entities [LocalPlayer, LocalPlayer], work=489*
106: 0x0354 [0x45] LOAD_SCHEDULED_TASK: Load scheduler "7410" with entities [LocalPlayer, LocalPlayer], work=[489*, 0*]
107: 0x0365 [0x6E] Reinhard (ID: 17261216/0x010762A0) uses emote 6*
108: 0x036C [0x99] Wait for Reinhard (ID: 17261216/0x010762A0) animation to complete
109: 0x0371 [0x2B] Reinhard (ID: 17261216/0x010762A0) [11438*]:
    → "If the pulse martello were to be put out of commission, the effectiveness of all machines in the area will be severely compromised. This outcome is unthinkable, and must be averted at all costs."
110: 0x0378 [0x23] WAIT_FOR_DIALOG_INTERACTION
111: 0x0379 [0xC5] LOAD_SCHEDULED_TASK_ALT3: Load scheduler 0x800B3030 for entities [??? (ID: 17261218/0x010762A2), ??? (ID: 17261218/0x010762A2)], work=213*, param=12403
112: 0x038A [0x2B] Reinhard (ID: 17261216/0x010762A0) [11439*]:
    → "We're in dire need of more capable people to aid in the outpost's defense. I beg you, <Player>, help us repel the Abyssean hordes!"
113: 0x0391 [0x23] WAIT_FOR_DIALOG_INTERACTION
114: 0x0392 [0x52] END_LOAD_SCHEDULER: End scheduler "7410" with entities [LocalPlayer, LocalPlayer], work=489*
115: 0x03A1 [0x45] LOAD_SCHEDULED_TASK: Load scheduler "7411" with entities [LocalPlayer, LocalPlayer], work=[489*, 0*]
116: 0x03B2 [0x77] SET_EVENT_TIME_WEATHER(hour=255*, weather=1*)
117: 0x03B7 [0xAB] EventEntity->UnknownFlag = 1 // Enable unknown flag
118: 0x03B9 [0x1C] WAIT(60* ticks)
119: 0x03BC [0x2B] Reinhard (ID: 17261216/0x010762A0) [11440*]:
    → "There's one more thing you should know before you venture forth. There's a creature that has been wreaking havoc on those who've taken refuge within the chasm."
120: 0x03C3 [0x23] WAIT_FOR_DIALOG_INTERACTION
121: 0x03C4 [0x52] END_LOAD_SCHEDULER: End scheduler "7411" with entities [LocalPlayer, LocalPlayer], work=489*
122: 0x03D3 [0x45] LOAD_SCHEDULED_TASK: Load scheduler "7412" with entities [LocalPlayer, LocalPlayer], work=[489*, 0*]
123: 0x03E4 [0x1C] WAIT(60* ticks)
124: 0x03E7 [0x2B] Reinhard (ID: 17261216/0x010762A0) [11441*]:
    → "It's believed to be a wamoura of some description, a vermin native to the Near East. Nobody knows how it has come to be there, but all agree that it's a dangerous menace."
125: 0x03EE [0x23] WAIT_FOR_DIALOG_INTERACTION
126: 0x03EF [0x52] END_LOAD_SCHEDULER: End scheduler "7412" with entities [LocalPlayer, LocalPlayer], work=489*
127: 0x03FE [0x45] LOAD_SCHEDULED_TASK: Load scheduler "7413" with entities [LocalPlayer, LocalPlayer], work=[489*, 0*]
128: 0x040F [0xAB] EventEntity->UnknownFlag = 0 // Disable unknown flag
129: 0x0411 [0x78] ENABLE_GAME_TIMER_RESET_WEATHER()
130: 0x0412 [0x1C] WAIT(60* ticks)
131: 0x0415 [0xC5] LOAD_SCHEDULED_TASK_ALT3: Load scheduler 0x800B306C for entities [??? (ID: 17261218/0x010762A2), ??? (ID: 17261218/0x010762A2)], work=213*, param=26987
132: 0x0426 [0x4E] SET_ENTITY_HIDE_FLAG: Hide Unnamed NPC (ID: 17261217/0x010762A1)
133: 0x042C [0x2B] Reinhard (ID: 17261216/0x010762A0) [11442*]:
    → "I've already lost more comrades to this winged fiend than I care to count. Should you have the ill luck of crossing paths with it, don't try to play the hero. Not all things are worth giving up your life for."
134: 0x0433 [0x1C] WAIT(90* ticks)
135: 0x0436 [0x23] WAIT_FOR_DIALOG_INTERACTION
136: 0x0437 [0x52] END_LOAD_SCHEDULER: End scheduler "7413" with entities [LocalPlayer, LocalPlayer], work=489*
137: 0x0446 [0x45] LOAD_SCHEDULED_TASK: Load scheduler "7414" with entities [LocalPlayer, LocalPlayer], work=[489*, 0*]
138: 0x0457 [0x6E] Reinhard (ID: 17261216/0x010762A0) uses emote 7*
139: 0x045E [0x99] Wait for Reinhard (ID: 17261216/0x010762A0) animation to complete
140: 0x0463 [0x2B] Reinhard (ID: 17261216/0x010762A0) [11443*]:
    → "Be safe in your travels, <Player>."
141: 0x046A [0x23] WAIT_FOR_DIALOG_INTERACTION
142: 0x046B [0x5D] SET_MUSIC_VOLUME(volume=0*, fade_time=300*)
143: 0x0470 [0xCD] LOAD_SCHEDULED_TASK_ALT4: Load scheduler "main" with entities [Reinhard (ID: 17261216/0x010762A0), Reinhard (ID: 17261216/0x010762A0)], work=[79*, 0*]
144: 0x0481 [0x1C] WAIT(210* ticks)
145: 0x0484 [0x1A] CALL_SUBROUTINE(address=0x0952)
146: 0x0487 [0x1C] WAIT(30* ticks)
147: 0x048A [0x52] END_LOAD_SCHEDULER: End scheduler "7414" with entities [LocalPlayer, LocalPlayer], work=489*
148: 0x0499 [0x45] LOAD_SCHEDULED_TASK: Load scheduler "0blf" with entities [LocalPlayer, LocalPlayer], work=[489*, 0*]
149: 0x04AA [0x5C] MUSIC_CONTROL: Set Idle (Day) music to song 0*
150: 0x04AE [0x5C] MUSIC_CONTROL: Set Idle (Night) music to song 0*
151: 0x04B2 [0x9A] WAIT_MUSIC_SERVER()
152: 0x04B3 [0x46] CAMERA_CONTROL: Restore default settings
153: 0x04B5 [0x45] LOAD_SCHEDULED_TASK: Load scheduler "fdi2" with entities [LocalPlayer, LocalPlayer], work=[200*, 0*]
154: 0x04C6 [0x21] END_EVENT
155: 0x04C7 [0x00] END_REQSTACK()
```

### Event 63

#### Metadata

| Field        | Value      |
|--------------|------------|
| Entrypoint   | 0x04C8     |
| Data Size    | 1720 bytes |
| Instructions | 150        |

```
      00 01 02 03 04 05 06 07  08 09 0A 0B 0C 0D 0E 0F
      -- -- -- -- -- -- -- --  -- -- -- -- -- -- -- --
04C0:                          42 1A 52 09 46 01 38 00          B.R.F.8.
04D0: 80 4E 00 F0 FF FF 7F 27  10 A0 62 07 01 04 27 10  .N.....'..b...'.
04E0: A1 62 07 01 04 4E 00 A3  62 07 01 4E 00 A2 62 07  .b...N..b..N..b.
04F0: 01 92 01 A0 62 07 01 94  01 F0 FF FF 7F 94 01 A0  ....b...........
0500: 62 07 01 94 01 9E 62 07  01 94 01 A3 62 07 01 94  b.....b.....b...
0510: 01 A2 62 07 01 94 01 A1  62 07 01 BA F0 FF FF 7F  ..b.....b.......
0520: 34 80 35 80 36 80 37 80  BA A0 62 07 01 38 80 39  4.5.6.7...b..8.9
0530: 80 3A 80 3B 80 BA A3 62  07 01 3C 80 3D 80 3E 80  .:.;...b..<.=.>.
0540: 3F 80 59 05 A2 62 07 01  01 BA A2 62 07 01 01 80  ?.Y..b.....b....
0550: 02 80 0D 80 04 80 59 05  A1 62 07 01 01 BA A1 62  ......Y..b.....b
0560: 07 01 01 80 02 80 0D 80  04 80 29 10 A1 62 07 01  ..........)..b..
0570: 0B 80 F0 FF FF 7F 80 A0  62 07 01 80 9E 62 07 01  ........b....b..
0580: 80 A1 62 07 01 1C 0E 80  79 00 F0 FF FF 7F A3 62  ..b.....y......b
0590: 07 01 29 10 F0 FF FF 7F  19 29 10 A0 62 07 01 0E  ..)......)..b...
05A0: 6C F0 FF FF 7F 0B 80 29  80 92 01 F0 FF FF 7F CD  l......)........
05B0: 40 80 F0 FF FF 7F F0 FF  FF 7F 6D 61 69 6E 0B 80  @.........main..
05C0: 45 0F 80 F0 FF FF 7F F0  FF FF 7F 37 34 32 30 0B  E..........7420.
05D0: 80 1A 31 09 1C 10 80 92  00 F0 FF FF 7F 1C 21 80  ..1...........!.
05E0: 29 10 F0 FF FF 7F 1A 52  0F 80 F0 FF FF 7F F0 FF  )......R........
05F0: FF 7F 37 34 32 30 45 0F  80 F0 FF FF 7F F0 FF FF  ..7420E.........
0600: 7F 37 34 32 31 0B 80 2B  A0 62 07 01 41 80 1C 42  .7421..+.b..A..B
0610: 80 4A F0 FF FF 7F A0 62  07 01 23 79 00 A0 62 07  .J.....b..#y..b.
0620: 01 F0 FF FF 7F 27 10 A0  62 07 01 0F 1C 21 80 52  .....'..b....!.R
0630: 0F 80 F0 FF FF 7F F0 FF  FF 7F 37 34 32 31 45 0F  ..........7421E.
0640: 80 F0 FF FF 7F F0 FF FF  7F 37 34 32 32 0B 80 1C  .........7422...
0650: 0E 80 2B A0 62 07 01 43  80 5C 00 44 80 5C 01 44  ..+.b..C.\.D.\.D
0660: 80 9A 2A 10 A0 62 07 01  1C 21 80 23 27 10 A0 62  ..*..b...!.#'..b
0670: 07 01 11 1C 0E 80 52 0F  80 F0 FF FF 7F F0 FF FF  ......R.........
0680: 7F 37 34 32 32 45 0F 80  F0 FF FF 7F F0 FF FF 7F  .7422E..........
0690: 37 34 32 33 0B 80 1C 2D  80 2B A0 62 07 01 45 80  7423...-.+.b..E.
06A0: 23 2A 10 A0 62 07 01 52  0F 80 F0 FF FF 7F F0 FF  #*..b..R........
06B0: FF 7F 37 34 32 33 45 0F  80 F0 FF FF 7F F0 FF FF  ..7423E.........
06C0: 7F 37 34 32 34 0B 80 6E  A0 62 07 01 24 80 99 A0  .7424..n.b..$...
06D0: 62 07 01 2B A0 62 07 01  46 80 1C 21 80 6E A0 62  b..+.b..F..!.n.b
06E0: 07 01 2E 80 99 A0 62 07  01 1C 21 80 23 52 0F 80  ......b...!.#R..
06F0: F0 FF FF 7F F0 FF FF 7F  37 34 32 34 45 0F 80 F0  ........7424E...
0700: FF FF 7F F0 FF FF 7F 37  34 32 35 0B 80 2B A0 62  .......7425..+.b
0710: 07 01 47 80 23 66 48 80  A0 62 07 01 A0 62 07 01  ..G.#fH..b...b..
0720: 70 61 73 30 53 A0 62 07  01 A0 62 07 01 70 61 73  pas0S.b...b..pas
0730: 30 03 01 10 29 80 43 00  43 01 52 0F 80 F0 FF FF  0...).C.C.R.....
0740: 7F F0 FF FF 7F 37 34 32  35 45 0F 80 F0 FF FF 7F  .....7425E......
0750: F0 FF FF 7F 37 34 32 36  0B 80 5D 0B 80 10 80 66  ....7426..]....f
0760: 13 80 A0 62 07 01 A0 62  07 01 74 77 61 30 2B A0  ...b...b..twa0+.
0770: 62 07 01 49 80 23 2B A0  62 07 01 4A 80 23 C5 26  b..I.#+.b..J.#.&
0780: 80 A2 62 07 01 A2 62 07  01 73 30 30 30 0B 80 66  ..b...b..s000..f
0790: 13 80 A0 62 07 01 A0 62  07 01 74 77 61 31 53 A0  ...b...b..twa1S.
07A0: 62 07 01 A0 62 07 01 74  77 61 31 5C 00 33 80 5C  b...b..twa1\.3.\
07B0: 01 33 80 9A 52 0F 80 F0  FF FF 7F F0 FF FF 7F 37  .3..R..........7
07C0: 34 32 36 45 0F 80 F0 FF  FF 7F F0 FF FF 7F 37 34  426E..........74
07D0: 32 37 0B 80 1C 0E 80 2B  A0 62 07 01 4B 80 23 52  27.....+.b..K.#R
07E0: 0F 80 F0 FF FF 7F F0 FF  FF 7F 37 34 32 37 45 0F  ..........7427E.
07F0: 80 F0 FF FF 7F F0 FF FF  7F 37 34 32 38 0B 80 77  .........7428..w
0800: 28 80 29 80 AB 09 1C 21  80 2B A0 62 07 01 4C 80  (.)....!.+.b..L.
0810: 23 52 0F 80 F0 FF FF 7F  F0 FF FF 7F 37 34 32 38  #R..........7428
0820: 45 0F 80 F0 FF FF 7F F0  FF FF 7F 37 34 32 39 0B  E..........7429.
0830: 80 1C 21 80 2B A0 62 07  01 4D 80 23 52 0F 80 F0  ..!.+.b..M.#R...
0840: FF FF 7F F0 FF FF 7F 37  34 32 39 45 0F 80 F0 FF  .......7429E....
0850: FF 7F F0 FF FF 7F 37 34  33 30 0B 80 AB 0A 78 1C  ......7430....x.
0860: 21 80 C5 26 80 A2 62 07  01 A2 62 07 01 6B 69 6C  !..&..b...b..kil
0870: 30 0B 80 4E 01 A1 62 07  01 2B A0 62 07 01 4E 80  0..N..b..+.b..N.
0880: 23 6E A0 62 07 01 2E 80  99 A0 62 07 01 2B A0 62  #n.b......b..+.b
0890: 07 01 4F 80 23 5D 0B 80  10 80 1A 52 09 1C 0E 80  ..O.#].....R....
08A0: 52 0F 80 F0 FF FF 7F F0  FF FF 7F 37 34 33 30 45  R..........7430E
08B0: 0F 80 F0 FF FF 7F F0 FF  FF 7F 30 62 6C 66 0B 80  ..........0blf..
08C0: 5C 00 0B 80 5C 01 0B 80  9A 46 00 45 50 80 F8 FF  \...\....F.EP...
08D0: FF 7F F8 FF FF 7F 71 73  74 63 0B 80 45 33 80 F0  ......qstc..E3..
08E0: FF FF 7F F0 FF FF 7F 66  64 69 32 0B 80 21 00 45  .......fdi2..!.E
08F0: 33 80 F0 FF FF 7F F0 FF  FF 7F 66 64 69 30 0B 80  3.........fdi0..
0900: 55 33 80 F0 FF FF 7F F0  FF FF 7F 66 64 69 30 1B  U3.........fdi0.
0910: 45 33 80 F0 FF FF 7F F0  FF FF 7F 66 64 6F 30 0B  E3.........fdo0.
0920: 80 55 33 80 F0 FF FF 7F  F0 FF FF 7F 66 64 6F 30  .U3.........fdo0
0930: 1B 45 33 80 F0 FF FF 7F  F0 FF FF 7F 66 64 69 31  .E3.........fdi1
0940: 0B 80 55 33 80 F0 FF FF  7F F0 FF FF 7F 66 64 69  ..U3.........fdi
0950: 31 1B 45 33 80 F0 FF FF  7F F0 FF FF 7F 66 64 6F  1.E3.........fdo
0960: 31 0B 80 55 33 80 F0 FF  FF 7F F0 FF FF 7F 66 64  1..U3.........fd
0970: 6F 31 1B 45 50 80 F0 FF  FF 7F F0 FF FF 7F 77 68  o1.EP.........wh
0980: 69 31 0B 80 55 50 80 F0  FF FF 7F F0 FF FF 7F 77  i1..UP.........w
0990: 68 69 31 1B 45 50 80 F0  FF FF 7F F0 FF FF 7F 77  hi1.EP.........w
09A0: 68 6F 31 0B 80 55 50 80  F0 FF FF 7F F0 FF FF 7F  ho1..UP.........
09B0: 77 68 6F 31 1B 45 50 80  F0 FF FF 7F F0 FF FF 7F  who1.EP.........
09C0: 77 68 6F 32 0B 80 55 50  80 F0 FF FF 7F F0 FF FF  who2..UP........
09D0: 7F 77 68 6F 32 1B 45 50  80 F0 FF FF 7F F0 FF FF  .who2.EP........
09E0: 7F 77 68 6F 33 0B 80 55  50 80 F0 FF FF 7F F0 FF  .who3..UP.......
09F0: FF 7F 77 68 6F 33 1B 62  29 80 F0 FF FF 7F F0 FF  ..who3.b).......
0A00: FF 7F 6D 61 69 6E 0B 80  1C 51 80 45 33 80 F0 FF  ..main...Q.E3...
0A10: FF 7F F0 FF FF 7F 66 64  6F 31 0B 80 55 33 80 F0  ......fdo1..U3..
0A20: FF FF 7F F0 FF FF 7F 66  64 6F 31 1B 45 33 80 F0  .......fdo1.E3..
0A30: FF FF 7F F0 FF FF 7F 66  64 69 31 0B 80 62 52 80  .......fdi1..bR.
0A40: F0 FF FF 7F F0 FF FF 7F  6D 61 69 6E 0B 80 1C 0E  ........main....
0A50: 80 55 33 80 F0 FF FF 7F  F0 FF FF 7F 66 64 69 31  .U3.........fdi1
0A60: 1B 45 33 80 F0 FF FF 7F  F0 FF FF 7F 62 6C 6F 6E  .E3.........blon
0A70: 0B 80 45 50 80 F0 FF FF  7F F0 FF FF 7F 62 6C 6F  ..EP.........blo
0A80: 6E 0B 80 1B 45 50 80 F0  FF FF 7F F0 FF FF 7F 77  n...EP.........w
0A90: 68 69 30 0B 80 55 50 80  F0 FF FF 7F F0 FF FF 7F  hi0..UP.........
0AA0: 77 68 69 30 1B 45 50 80  F0 FF FF 7F F0 FF FF 7F  whi0.EP.........
0AB0: 77 68 6F 30 0B 80 55 50  80 F0 FF FF 7F F0 FF FF  who0..UP........
0AC0: 7F 77 68 6F 30 1B 45 53  80 F0 FF FF 7F F0 FF FF  .who0.ES........
0AD0: 7F 65 66 6F 6E 0B 80 55  53 80 F0 FF FF 7F F0 FF  .efon..US.......
0AE0: FF 7F 65 66 6F 6E 1B 45  33 80 F0 FF FF 7F F0 FF  ..efon.E3.......
0AF0: FF 7F 66 64 69 73 0B 80  1B 45 33 80 F0 FF FF 7F  ..fdis...E3.....
0B00: F0 FF FF 7F 66 64 6F 73  0B 80 55 33 80 F0 FF FF  ....fdos..U3....
0B10: 7F F0 FF FF 7F 66 64 6F  73 1B 45 33 80 F0 FF FF  .....fdos.E3....
0B20: 7F F0 FF FF 7F 66 64 69  66 0B 80 1B 45 33 80 F0  .....fdif...E3..
0B30: FF FF 7F F0 FF FF 7F 66  64 6F 66 0B 80 55 33 80  .......fdof..U3.
0B40: F0 FF FF 7F F0 FF FF 7F  66 64 6F 66 1B 45 33 80  ........fdof.E3.
0B50: F0 FF FF 7F F0 FF FF 7F  66 64 69 70 0B 80 1B 45  ........fdip...E
0B60: 33 80 F0 FF FF 7F F0 FF  FF 7F 66 64 6F 70 0B 80  3.........fdop..
0B70: 55 33 80 F0 FF FF 7F F0  FF FF 7F 66 64 6F 70 1B  U3.........fdop.
```

#### Opcodes

```
  0: 0x04C8 [0x42] SET_CLI_EVENT_CANCEL_DATA()
  1: 0x04C9 [0x1A] CALL_SUBROUTINE(address=0x0952)
  2: 0x04CC [0x46] CAMERA_CONTROL: Disable user control
  3: 0x04CE [0x38] SET_CLIENT_EVENT_MODE(mode=19*)
  4: 0x04D1 [0x4E] SET_ENTITY_HIDE_FLAG: Show LocalPlayer
  5: 0x04D7 [0x27] REQ_SET(priority=0x10, entity_id=Reinhard (ID: 17261216/0x010762A0), tag_num=0x04)
  6: 0x04DE [0x27] REQ_SET(priority=0x10, entity_id=Unnamed NPC (ID: 17261217/0x010762A1), tag_num=0x04)
  7: 0x04E5 [0x4E] SET_ENTITY_HIDE_FLAG: Show Unnamed NPC (ID: 17261219/0x010762A3)
  8: 0x04EB [0x4E] SET_ENTITY_HIDE_FLAG: Show ??? (ID: 17261218/0x010762A2)
  9: 0x04F1 [0x92] Reinhard (ID: 17261216/0x010762A0)->Render.Flags3 ^= 0x01
 10: 0x04F7 [0x94] LocalPlayer->Render.Flags3 ^= 0x01
 11: 0x04FD [0x94] Reinhard (ID: 17261216/0x010762A0)->Render.Flags3 ^= 0x01
 12: 0x0503 [0x94] Cavernous Maw (ID: 17261214/0x0107629E)->Render.Flags3 ^= 0x01
 13: 0x0509 [0x94] Unnamed NPC (ID: 17261219/0x010762A3)->Render.Flags3 ^= 0x01
 14: 0x050F [0x94] ??? (ID: 17261218/0x010762A2)->Render.Flags3 ^= 0x01
 15: 0x0515 [0x94] Unnamed NPC (ID: 17261217/0x010762A1)->Render.Flags3 ^= 0x01
 16: 0x051B [0xBA] SET_ENTITY_POSITION(entity_id=LocalPlayer, pos_x=-339.979*, pos_z=48.493*, pos_y=-23.370*, direction=43.9°*)
 17: 0x0528 [0xBA] SET_ENTITY_POSITION(entity_id=Reinhard (ID: 17261216/0x010762A0), pos_x=-345.470*, pos_z=51.117*, pos_y=-24.623*, direction=31.5°*)
 18: 0x0535 [0xBA] SET_ENTITY_POSITION(entity_id=Unnamed NPC (ID: 17261219/0x010762A3), pos_x=-564.700*, pos_z=643.576*, pos_y=0.033*, direction=36.0°*)
 19: 0x0542 [0x59] UPDATE_ENTITY_DATA: ??? (ID: 17261218/0x010762A2)->Render.Flags0 |= 0x200000
 20: 0x0549 [0xBA] SET_ENTITY_POSITION(entity_id=??? (ID: 17261218/0x010762A2), pos_x=-341.524*, pos_z=49.599*, pos_y=-57.824*, direction=227.2°*)
 21: 0x0556 [0x59] UPDATE_ENTITY_DATA: Unnamed NPC (ID: 17261217/0x010762A1)->Render.Flags0 |= 0x200000
 22: 0x055D [0xBA] SET_ENTITY_POSITION(entity_id=Unnamed NPC (ID: 17261217/0x010762A1), pos_x=-341.524*, pos_z=49.599*, pos_y=-57.824*, direction=227.2°*)
 23: 0x056A [0x29] REQ_SET_WAIT(priority=0x10, entity_id=Unnamed NPC (ID: 17261217/0x010762A1), tag_num=0x0B)
 24: 0x0571 [0x80] LOAD_WAIT(entity=LocalPlayer)
 25: 0x0576 [0x80] LOAD_WAIT(entity=Reinhard (ID: 17261216/0x010762A0))
 26: 0x057B [0x80] LOAD_WAIT(entity=Cavernous Maw (ID: 17261214/0x0107629E))
 27: 0x0580 [0x80] LOAD_WAIT(entity=Unnamed NPC (ID: 17261217/0x010762A1))
 28: 0x0585 [0x1C] WAIT(30* ticks)
 29: 0x0588 [0x79] LocalPlayer looks at Unnamed NPC (ID: 17261219/0x010762A3) (Basic look)
 30: 0x0592 [0x29] REQ_SET_WAIT(priority=0x10, entity_id=LocalPlayer, tag_num=0x19)
 31: 0x0599 [0x29] REQ_SET_WAIT(priority=0x10, entity_id=Reinhard (ID: 17261216/0x010762A0), tag_num=0x0E)
 32: 0x05A0 [0x6C] FADE_ENTITY_COLOR(entity_id=LocalPlayer, end_alpha=0*, fade_time=1*)
 33: 0x05A9 [0x92] LocalPlayer->Render.Flags3 ^= 0x01
 34: 0x05AF [0xCD] LOAD_SCHEDULED_TASK_ALT4: Load scheduler "main" with entities [LocalPlayer, LocalPlayer], work=[80*, 0*]
 35: 0x05C0 [0x45] LOAD_SCHEDULED_TASK: Load scheduler "7420" with entities [LocalPlayer, LocalPlayer], work=[489*, 0*]
 36: 0x05D1 [0x1A] CALL_SUBROUTINE(address=0x0931)
 37: 0x05D4 [0x1C] WAIT(120* ticks)
 38: 0x05D7 [0x92] LocalPlayer->Render.Flags3 = Flags3  // No change (flag=0)
 39: 0x05DD [0x1C] WAIT(60* ticks)
 40: 0x05E0 [0x29] REQ_SET_WAIT(priority=0x10, entity_id=LocalPlayer, tag_num=0x1A)
 41: 0x05E7 [0x52] END_LOAD_SCHEDULER: End scheduler "7420" with entities [LocalPlayer, LocalPlayer], work=489*
 42: 0x05F6 [0x45] LOAD_SCHEDULED_TASK: Load scheduler "7421" with entities [LocalPlayer, LocalPlayer], work=[489*, 0*]
 43: 0x0607 [0x2B] Reinhard (ID: 17261216/0x010762A0) [11444*]:
    → "<Player>. I was wondering when you might arrive."
 44: 0x060E [0x1C] WAIT(15* ticks)
 45: 0x0611 [0x4A] LocalPlayer looks at Reinhard (ID: 17261216/0x010762A0)
 46: 0x061A [0x23] WAIT_FOR_DIALOG_INTERACTION
 47: 0x061B [0x79] Reinhard (ID: 17261216/0x010762A0) looks at LocalPlayer (Basic look)
 48: 0x0625 [0x27] REQ_SET(priority=0x10, entity_id=Reinhard (ID: 17261216/0x010762A0), tag_num=0x0F)
 49: 0x062C [0x1C] WAIT(60* ticks)
 50: 0x062F [0x52] END_LOAD_SCHEDULER: End scheduler "7421" with entities [LocalPlayer, LocalPlayer], work=489*
 51: 0x063E [0x45] LOAD_SCHEDULED_TASK: Load scheduler "7422" with entities [LocalPlayer, LocalPlayer], work=[489*, 0*]
 52: 0x064F [0x1C] WAIT(30* ticks)
 53: 0x0652 [0x2B] Reinhard (ID: 17261216/0x010762A0) [11445*]:
    → "When we first talked, I gave you what I regarded as due warning about the killer wamoura. It's obvious now, though, that it wasn't at all necessary."
 54: 0x0659 [0x5C] MUSIC_CONTROL: Set Idle (Day) music to song 199*
 55: 0x065D [0x5C] MUSIC_CONTROL: Set Idle (Night) music to song 199*
 56: 0x0661 [0x9A] WAIT_MUSIC_SERVER()
 57: 0x0662 [0x2A] GET_REQ_LEVEL(level=16, entity_id=Reinhard (ID: 17261216/0x010762A0))
 58: 0x0668 [0x1C] WAIT(60* ticks)
 59: 0x066B [0x23] WAIT_FOR_DIALOG_INTERACTION
 60: 0x066C [0x27] REQ_SET(priority=0x10, entity_id=Reinhard (ID: 17261216/0x010762A0), tag_num=0x11)
 61: 0x0673 [0x1C] WAIT(30* ticks)
 62: 0x0676 [0x52] END_LOAD_SCHEDULER: End scheduler "7422" with entities [LocalPlayer, LocalPlayer], work=489*
 63: 0x0685 [0x45] LOAD_SCHEDULED_TASK: Load scheduler "7423" with entities [LocalPlayer, LocalPlayer], work=[489*, 0*]
 64: 0x0696 [0x1C] WAIT(90* ticks)
 65: 0x0699 [0x2B] Reinhard (ID: 17261216/0x010762A0) [11446*]:
    → "That was an amazing thing you did, slaying the menace that had tormented the folk of Attohwa for so long."
 66: 0x06A0 [0x23] WAIT_FOR_DIALOG_INTERACTION
 67: 0x06A1 [0x2A] GET_REQ_LEVEL(level=16, entity_id=Reinhard (ID: 17261216/0x010762A0))
 68: 0x06A7 [0x52] END_LOAD_SCHEDULER: End scheduler "7423" with entities [LocalPlayer, LocalPlayer], work=489*
 69: 0x06B6 [0x45] LOAD_SCHEDULED_TASK: Load scheduler "7424" with entities [LocalPlayer, LocalPlayer], work=[489*, 0*]
 70: 0x06C7 [0x6E] Reinhard (ID: 17261216/0x010762A0) uses emote 6*
 71: 0x06CE [0x99] Wait for Reinhard (ID: 17261216/0x010762A0) animation to complete
 72: 0x06D3 [0x2B] Reinhard (ID: 17261216/0x010762A0) [11447*]:
    → "Now the souls of my fallen comrades can rest easier. You have my thanks, <Player>."
 73: 0x06DA [0x1C] WAIT(60* ticks)
 74: 0x06DD [0x6E] Reinhard (ID: 17261216/0x010762A0) uses emote 7*
 75: 0x06E4 [0x99] Wait for Reinhard (ID: 17261216/0x010762A0) animation to complete
 76: 0x06E9 [0x1C] WAIT(60* ticks)
 77: 0x06EC [0x23] WAIT_FOR_DIALOG_INTERACTION
 78: 0x06ED [0x52] END_LOAD_SCHEDULER: End scheduler "7424" with entities [LocalPlayer, LocalPlayer], work=489*
 79: 0x06FC [0x45] LOAD_SCHEDULED_TASK: Load scheduler "7425" with entities [LocalPlayer, LocalPlayer], work=[489*, 0*]
 80: 0x070D [0x2B] Reinhard (ID: 17261216/0x010762A0) [11448*]:
    → "As a token of my appreciation, I'd like you to accept this."
 81: 0x0714 [0x23] WAIT_FOR_DIALOG_INTERACTION
 82: 0x0715 [0x66] LOAD_EXT_SCHEDULER_MAIN: Load scheduler "pas0" with entities [Reinhard (ID: 17261216/0x010762A0), Reinhard (ID: 17261216/0x010762A0)], work=71*
 83: 0x0724 [0x53] WAIT_SCHEDULER_TASK: Wait for scheduler "pas0" with entities [Reinhard (ID: 17261216/0x010762A0), Reinhard (ID: 17261216/0x010762A0)]
 84: 0x0731 [0x03] Work_Zone[1] = 1*
 85: 0x0736 [0x43] SEND_EVENT_UPDATE: Send pending tag to server (packet 0x005B)
 86: 0x0738 [0x43] SEND_EVENT_UPDATE: Check pending flag (skip if not pending)
 87: 0x073A [0x52] END_LOAD_SCHEDULER: End scheduler "7425" with entities [LocalPlayer, LocalPlayer], work=489*
 88: 0x0749 [0x45] LOAD_SCHEDULED_TASK: Load scheduler "7426" with entities [LocalPlayer, LocalPlayer], work=[489*, 0*]
 89: 0x075A [0x5D] SET_MUSIC_VOLUME(volume=0*, fade_time=120*)
 90: 0x075F [0x66] LOAD_EXT_SCHEDULER_MAIN: Load scheduler "twa0" with entities [Reinhard (ID: 17261216/0x010762A0), Reinhard (ID: 17261216/0x010762A0)], work=9*
 91: 0x076E [0x2B] Reinhard (ID: 17261216/0x010762A0) [11449*]:
    → "It's $6, a rare variety of the stone."
 92: 0x0775 [0x23] WAIT_FOR_DIALOG_INTERACTION
 93: 0x0776 [0x2B] Reinhard (ID: 17261216/0x010762A0) [11450*]:
    → "It's known to be most effective when used by one of your world. It should serve you well in the battles to come."
 94: 0x077D [0x23] WAIT_FOR_DIALOG_INTERACTION
 95: 0x077E [0xC5] LOAD_SCHEDULED_TASK_ALT3: Load scheduler 0x800B3030 for entities [??? (ID: 17261218/0x010762A2), ??? (ID: 17261218/0x010762A2)], work=213*, param=12403
 96: 0x078F [0x66] LOAD_EXT_SCHEDULER_MAIN: Load scheduler "twa1" with entities [Reinhard (ID: 17261216/0x010762A0), Reinhard (ID: 17261216/0x010762A0)], work=9*
 97: 0x079E [0x53] WAIT_SCHEDULER_TASK: Wait for scheduler "twa1" with entities [Reinhard (ID: 17261216/0x010762A0), Reinhard (ID: 17261216/0x010762A0)]
 98: 0x07AB [0x5C] MUSIC_CONTROL: Set Idle (Day) music to song 200*
 99: 0x07AF [0x5C] MUSIC_CONTROL: Set Idle (Night) music to song 200*
100: 0x07B3 [0x9A] WAIT_MUSIC_SERVER()
101: 0x07B4 [0x52] END_LOAD_SCHEDULER: End scheduler "7426" with entities [LocalPlayer, LocalPlayer], work=489*
102: 0x07C3 [0x45] LOAD_SCHEDULED_TASK: Load scheduler "7427" with entities [LocalPlayer, LocalPlayer], work=[489*, 0*]
103: 0x07D4 [0x1C] WAIT(30* ticks)
104: 0x07D7 [0x2B] Reinhard (ID: 17261216/0x010762A0) [11451*]:
    → "<Player>, a moment."
105: 0x07DE [0x23] WAIT_FOR_DIALOG_INTERACTION
106: 0x07DF [0x52] END_LOAD_SCHEDULER: End scheduler "7427" with entities [LocalPlayer, LocalPlayer], work=489*
107: 0x07EE [0x45] LOAD_SCHEDULED_TASK: Load scheduler "7428" with entities [LocalPlayer, LocalPlayer], work=[489*, 0*]
108: 0x07FF [0x77] SET_EVENT_TIME_WEATHER(hour=255*, weather=1*)
109: 0x0804 [0xAB] EventEntity->UnknownFlag = 1 // Enable unknown flag
110: 0x0806 [0x1C] WAIT(60* ticks)
111: 0x0809 [0x2B] Reinhard (ID: 17261216/0x010762A0) [11452*]:
    → "Do you know of the enigmatic family of beings known as the Caturae? Their freakish appearance bears no resemblance to anything I've ever seen...but that's not all."
112: 0x0810 [0x23] WAIT_FOR_DIALOG_INTERACTION
113: 0x0811 [0x52] END_LOAD_SCHEDULER: End scheduler "7428" with entities [LocalPlayer, LocalPlayer], work=489*
114: 0x0820 [0x45] LOAD_SCHEDULED_TASK: Load scheduler "7429" with entities [LocalPlayer, LocalPlayer], work=[489*, 0*]
115: 0x0831 [0x1C] WAIT(60* ticks)
116: 0x0834 [0x2B] Reinhard (ID: 17261216/0x010762A0) [11453*]:
    → "There's something unnatural about them--even among the twisted creatures that emerged during the cataclysm--though I can't exactly say what. The one time I had the ill luck of crossing paths with one, I found myself stricken with terror, unable to think or act."
117: 0x083B [0x23] WAIT_FOR_DIALOG_INTERACTION
118: 0x083C [0x52] END_LOAD_SCHEDULER: End scheduler "7429" with entities [LocalPlayer, LocalPlayer], work=489*
119: 0x084B [0x45] LOAD_SCHEDULED_TASK: Load scheduler "7430" with entities [LocalPlayer, LocalPlayer], work=[489*, 0*]
120: 0x085C [0xAB] EventEntity->UnknownFlag = 0 // Disable unknown flag
121: 0x085E [0x78] ENABLE_GAME_TIMER_RESET_WEATHER()
122: 0x085F [0x1C] WAIT(60* ticks)
123: 0x0862 [0xC5] LOAD_SCHEDULED_TASK_ALT3: Load scheduler 0x800B306C for entities [??? (ID: 17261218/0x010762A2), ??? (ID: 17261218/0x010762A2)], work=213*, param=26987
124: 0x0873 [0x4E] SET_ENTITY_HIDE_FLAG: Hide Unnamed NPC (ID: 17261217/0x010762A1)
125: 0x0879 [0x2B] Reinhard (ID: 17261216/0x010762A0) [11454*]:
    → "Somehow I managed to find my legs and escaped, but others haven't been as fortunate. For your sake, I hope you never have to deal with the creature."
126: 0x0880 [0x23] WAIT_FOR_DIALOG_INTERACTION
127: 0x0881 [0x6E] Reinhard (ID: 17261216/0x010762A0) uses emote 7*
128: 0x0888 [0x99] Wait for Reinhard (ID: 17261216/0x010762A0) animation to complete
129: 0x088D [0x2B] Reinhard (ID: 17261216/0x010762A0) [11455*]:
    → "Be safe, now, <Player>."
130: 0x0894 [0x23] WAIT_FOR_DIALOG_INTERACTION
131: 0x0895 [0x5D] SET_MUSIC_VOLUME(volume=0*, fade_time=120*)
132: 0x089A [0x1A] CALL_SUBROUTINE(address=0x0952)
133: 0x089D [0x1C] WAIT(30* ticks)
134: 0x08A0 [0x52] END_LOAD_SCHEDULER: End scheduler "7430" with entities [LocalPlayer, LocalPlayer], work=489*
135: 0x08AF [0x45] LOAD_SCHEDULED_TASK: Load scheduler "0blf" with entities [LocalPlayer, LocalPlayer], work=[489*, 0*]
136: 0x08C0 [0x5C] MUSIC_CONTROL: Set Idle (Day) music to song 0*
137: 0x08C4 [0x5C] MUSIC_CONTROL: Set Idle (Night) music to song 0*
138: 0x08C8 [0x9A] WAIT_MUSIC_SERVER()
139: 0x08C9 [0x46] CAMERA_CONTROL: Restore default settings
140: 0x08CB [0x45] LOAD_SCHEDULED_TASK: Load scheduler "qstc" with entities [EventEntity, EventEntity], work=[201*, 0*]
141: 0x08DC [0x45] LOAD_SCHEDULED_TASK: Load scheduler "fdi2" with entities [LocalPlayer, LocalPlayer], work=[200*, 0*]
142: 0x08ED [0x21] END_EVENT
143: 0x08EE [0x00] END_REQSTACK()

SUBROUTINE_0931:
144: 0x0931 [0x45] LOAD_SCHEDULED_TASK: Load scheduler "fdi1" with entities [LocalPlayer, LocalPlayer], work=[200*, 0*]
145: 0x0942 [0x55] WAIT_LOAD_SCHEDULER: Wait for scheduler "fdi1" with entities [LocalPlayer, LocalPlayer], work=200*
146: 0x0951 [0x1B] RETURN

SUBROUTINE_0952:
147: 0x0952 [0x45] LOAD_SCHEDULED_TASK: Load scheduler "fdo1" with entities [LocalPlayer, LocalPlayer], work=[200*, 0*]
148: 0x0963 [0x55] WAIT_LOAD_SCHEDULER: Wait for scheduler "fdo1" with entities [LocalPlayer, LocalPlayer], work=200*
149: 0x0972 [0x1B] RETURN
```

#### Data or dead code:

```
# Dead code (unreachable instructions):
     0x08EF [0x45] LOAD_SCHEDULED_TASK: Load scheduler "fdi0" with entities [LocalPlayer, LocalPlayer], work=[200*, 0*]
     0x0900 [0x55] WAIT_LOAD_SCHEDULER: Wait for scheduler "fdi0" with entities [LocalPlayer, LocalPlayer], work=200*
     0x090F [0x1B] RETURN
     0x0910 [0x45] LOAD_SCHEDULED_TASK: Load scheduler "fdo0" with entities [LocalPlayer, LocalPlayer], work=[200*, 0*]
     0x0921 [0x55] WAIT_LOAD_SCHEDULER: Wait for scheduler "fdo0" with entities [LocalPlayer, LocalPlayer], work=200*
     0x0930 [0x1B] RETURN
# Dead code (unreachable instructions):
     0x0973 [0x45] LOAD_SCHEDULED_TASK: Load scheduler "whi1" with entities [LocalPlayer, LocalPlayer], work=[201*, 0*]
     0x0984 [0x55] WAIT_LOAD_SCHEDULER: Wait for scheduler "whi1" with entities [LocalPlayer, LocalPlayer], work=201*
     0x0993 [0x1B] RETURN
     0x0994 [0x45] LOAD_SCHEDULED_TASK: Load scheduler "who1" with entities [LocalPlayer, LocalPlayer], work=[201*, 0*]
     0x09A5 [0x55] WAIT_LOAD_SCHEDULER: Wait for scheduler "who1" with entities [LocalPlayer, LocalPlayer], work=201*
     0x09B4 [0x1B] RETURN
     0x09B5 [0x45] LOAD_SCHEDULED_TASK: Load scheduler "who2" with entities [LocalPlayer, LocalPlayer], work=[201*, 0*]
     0x09C6 [0x55] WAIT_LOAD_SCHEDULER: Wait for scheduler "who2" with entities [LocalPlayer, LocalPlayer], work=201*
     0x09D5 [0x1B] RETURN
     0x09D6 [0x45] LOAD_SCHEDULED_TASK: Load scheduler "who3" with entities [LocalPlayer, LocalPlayer], work=[201*, 0*]
     0x09E7 [0x55] WAIT_LOAD_SCHEDULER: Wait for scheduler "who3" with entities [LocalPlayer, LocalPlayer], work=201*
     0x09F6 [0x1B] RETURN
     0x09F7 [0x62] LOAD_EVENT_SCHEDULER: Load scheduler "main" with entities [LocalPlayer, LocalPlayer], work=[1*, 0*]
     0x0A08 [0x1C] WAIT(45* ticks)
     0x0A0B [0x45] LOAD_SCHEDULED_TASK: Load scheduler "fdo1" with entities [LocalPlayer, LocalPlayer], work=[200*, 0*]
     0x0A1C [0x55] WAIT_LOAD_SCHEDULER: Wait for scheduler "fdo1" with entities [LocalPlayer, LocalPlayer], work=200*
     0x0A2B [0x1B] RETURN
     0x0A2C [0x45] LOAD_SCHEDULED_TASK: Load scheduler "fdi1" with entities [LocalPlayer, LocalPlayer], work=[200*, 0*]
     0x0A3D [0x62] LOAD_EVENT_SCHEDULER: Load scheduler "main" with entities [LocalPlayer, LocalPlayer], work=[2*, 0*]
     0x0A4E [0x1C] WAIT(30* ticks)
     0x0A51 [0x55] WAIT_LOAD_SCHEDULER: Wait for scheduler "fdi1" with entities [LocalPlayer, LocalPlayer], work=200*
     0x0A60 [0x1B] RETURN
     0x0A61 [0x45] LOAD_SCHEDULED_TASK: Load scheduler "blon" with entities [LocalPlayer, LocalPlayer], work=[200*, 0*]
     0x0A72 [0x45] LOAD_SCHEDULED_TASK: Load scheduler "blon" with entities [LocalPlayer, LocalPlayer], work=[201*, 0*]
     0x0A83 [0x1B] RETURN
     0x0A84 [0x45] LOAD_SCHEDULED_TASK: Load scheduler "whi0" with entities [LocalPlayer, LocalPlayer], work=[201*, 0*]
     0x0A95 [0x55] WAIT_LOAD_SCHEDULER: Wait for scheduler "whi0" with entities [LocalPlayer, LocalPlayer], work=201*
     0x0AA4 [0x1B] RETURN
     0x0AA5 [0x45] LOAD_SCHEDULED_TASK: Load scheduler "who0" with entities [LocalPlayer, LocalPlayer], work=[201*, 0*]
     0x0AB6 [0x55] WAIT_LOAD_SCHEDULER: Wait for scheduler "who0" with entities [LocalPlayer, LocalPlayer], work=201*
     0x0AC5 [0x1B] RETURN
     0x0AC6 [0x45] LOAD_SCHEDULED_TASK: Load scheduler "efon" with entities [LocalPlayer, LocalPlayer], work=[215*, 0*]
     0x0AD7 [0x55] WAIT_LOAD_SCHEDULER: Wait for scheduler "efon" with entities [LocalPlayer, LocalPlayer], work=215*
     0x0AE6 [0x1B] RETURN
     0x0AE7 [0x45] LOAD_SCHEDULED_TASK: Load scheduler "fdis" with entities [LocalPlayer, LocalPlayer], work=[200*, 0*]
     0x0AF8 [0x1B] RETURN
     0x0AF9 [0x45] LOAD_SCHEDULED_TASK: Load scheduler "fdos" with entities [LocalPlayer, LocalPlayer], work=[200*, 0*]
     0x0B0A [0x55] WAIT_LOAD_SCHEDULER: Wait for scheduler "fdos" with entities [LocalPlayer, LocalPlayer], work=200*
     0x0B19 [0x1B] RETURN
     0x0B1A [0x45] LOAD_SCHEDULED_TASK: Load scheduler "fdif" with entities [LocalPlayer, LocalPlayer], work=[200*, 0*]
     0x0B2B [0x1B] RETURN
     0x0B2C [0x45] LOAD_SCHEDULED_TASK: Load scheduler "fdof" with entities [LocalPlayer, LocalPlayer], work=[200*, 0*]
     0x0B3D [0x55] WAIT_LOAD_SCHEDULER: Wait for scheduler "fdof" with entities [LocalPlayer, LocalPlayer], work=200*
     0x0B4C [0x1B] RETURN
     0x0B4D [0x45] LOAD_SCHEDULED_TASK: Load scheduler "fdip" with entities [LocalPlayer, LocalPlayer], work=[200*, 0*]
     0x0B5E [0x1B] RETURN
     0x0B5F [0x45] LOAD_SCHEDULED_TASK: Load scheduler "fdop" with entities [LocalPlayer, LocalPlayer], work=[200*, 0*]
     0x0B70 [0x55] WAIT_LOAD_SCHEDULER: Wait for scheduler "fdop" with entities [LocalPlayer, LocalPlayer], work=200*
     0x0B7F [0x1B] RETURN
```
