# 17261173 - z024_Warp

## Common Data

| Field            | Value                        |
|------------------|------------------------------|
| Zone             | Buburimu Peninsula (ID: 118) |
| Block Size       | 148 bytes                    |
| Total Events     | 2                            |
| References Count | 8                            |

## List of Events

| Event ID              | Entrypoint   |   Size |   Instructions |
|-----------------------|--------------|--------|----------------|
| [65535](#event-65535) | 0x0000       |      1 |              1 |
| [20](#event-20)       | 0x0001       |     88 |             19 |

## DAT References (imed_data)

|   Index | Hex Value   |   Dec Value |
|---------|-------------|-------------|
|       0 | 0x1E77      |        7799 |
|       1 | 0x1E78      |        7800 |
|       2 | 0x0001      |           1 |
|       3 | 0x0000      |           0 |
|       4 | 0x0049      |          73 |
|       5 | 0x008C      |         140 |
|       6 | 0x00C8      |         200 |
|       7 | 0x003C      |          60 |

## String References

- **7799**: An empty light swirls about the cave, eating away at the surroundings...
- **7800**: Enter the vortex? [Yes./No.]

## Events

### Event 65535

#### Metadata

| Field        | Value   |
|--------------|---------|
| Entrypoint   | 0x0000  |
| Data Size    | 1 bytes |
| Instructions | 1       |

```
      00 01 02 03 04 05 06 07  08 09 0A 0B 0C 0D 0E 0F
      -- -- -- -- -- -- -- --  -- -- -- -- -- -- -- --
0000: 00                                                .               
```

#### Opcodes

```
  0: 0x0000 [0x00] END_REQSTACK()
```

### Event 20

#### Metadata

| Field        | Value    |
|--------------|----------|
| Entrypoint   | 0x0001   |
| Data Size    | 88 bytes |
| Instructions | 19       |

```
      00 01 02 03 04 05 06 07  08 09 0A 0B 0C 0D 0E 0F
      -- -- -- -- -- -- -- --  -- -- -- -- -- -- -- --
0000:    20 01 48 00 80 23 24  01 80 02 80 03 80 25 02    .H..#$......%.
0010: 00 10 03 80 00 4C 00 42  43 00 43 01 03 01 10 02  .....L.BC.C.....
0020: 80 9F 04 80 F0 FF FF 7F  F0 FF FF 7F 6D 61 69 6E  ............main
0030: 03 80 1C 05 80 45 06 80  F0 FF FF 7F F0 FF FF 7F  .....E..........
0040: 66 64 6F 31 03 80 1C 07  80 01 57 00 02 00 10 02  fdo1......W.....
0050: 80 00 57 00 01 57 00 21  00                       ..W..W.!.       
```

#### Opcodes

```
  0: 0x0001 [0x20] SET_CLI_EVENT_UC_FLAG: Lock player control
  1: 0x0003 [0x48] [System] [7799*]:
    → "An empty light swirls about the cave, eating away at the surroundings..."
  2: 0x0006 [0x23] WAIT_FOR_DIALOG_INTERACTION
  3: 0x0007 [0x24] CREATE_DIALOG(message_id=7800*, default_option=1*, option_flags=0*)
    → "Enter the vortex? [Yes./No.]"
  4: 0x000E [0x25] WAIT_DIALOG_SELECT()
  5: 0x000F [0x02] IF !(Work_Zone[0] == 0*) GOTO 0x004C
  6: 0x0017 [0x42] SET_CLI_EVENT_CANCEL_DATA()
  7: 0x0018 [0x43] SEND_EVENT_UPDATE: Send pending tag to server (packet 0x005B)
  8: 0x001A [0x43] SEND_EVENT_UPDATE: Check pending flag (skip if not pending)
  9: 0x001C [0x03] Work_Zone[1] = 1*
 10: 0x0021 [0x9F] LOAD_SCHEDULED_TASK_ALT: Load scheduler "main" with entities [LocalPlayer, LocalPlayer], work=[73*, 0*]
 11: 0x0032 [0x1C] WAIT(140* ticks)
 12: 0x0035 [0x45] LOAD_SCHEDULED_TASK: Load scheduler "fdo1" with entities [LocalPlayer, LocalPlayer], work=[200*, 0*]
 13: 0x0046 [0x1C] WAIT(60* ticks)
 14: 0x0049 [0x01] GOTO 0x0057
 15: 0x004C [0x02] IF !(Work_Zone[0] == 1*) GOTO 0x0057
 16: 0x0054 [0x01] GOTO 0x0057

SUBROUTINE_0057:
 17: 0x0057 [0x21] END_EVENT
 18: 0x0058 [0x00] END_REQSTACK()
```
