# 17261188

## Common Data

| Field            | Value                        |
|------------------|------------------------------|
| Zone             | Buburimu Peninsula (ID: 118) |
| Block Size       | 216 bytes                    |
| Total Events     | 2                            |
| References Count | 13                           |

## List of Events

| Event ID              | Entrypoint   |   Size |   Instructions |
|-----------------------|--------------|--------|----------------|
| [65535](#event-65535) | 0x0000       |      1 |              1 |
| [902](#event-902)     | 0x0001       |    136 |             35 |

## DAT References (imed_data)

|   Index | Hex Value   |   Dec Value |
|---------|-------------|-------------|
|       0 | 0x0014      |          20 |
|       1 | 0x1EC7      |        7879 |
|       2 | 0x1EC9      |        7881 |
|       3 | 0x0001      |           1 |
|       4 | 0x0000      |           0 |
|       5 | 0x40000000  |  1073741824 |
|       6 | 0x03E5      |         997 |
|       7 | 0x1EA6      |        7846 |
|       8 | 0x0078      |         120 |
|       9 | 0x1EA7      |        7847 |
|      10 | 0x1EA8      |        7848 |
|      11 | 0x1EA9      |        7849 |
|      12 | 0x1EAA      |        7850 |

## String References

- **7846**: ...
- **7847**: ??? gazes out over the ocean.
- **7848**: I must...hurry... I must...hurry and...pull it...up...
- **7849**: I can see it glimmering there... But there are sharks everywhere...
- **7850**: I know... I should still be able to fish it up. But...I don't have a rod or bait...
- **7879**: Your level will be restricted to $0. You must have a fishing rod and bait. No one else may participate.
- **7881**: Continue? [Yes. Let's go!/I'm not ready.]

## Events

### Event 65535

#### Metadata

| Field        | Value   |
|--------------|---------|
| Entrypoint   | 0x0000  |
| Data Size    | 1 bytes |
| Instructions | 1       |

```
      00 01 02 03 04 05 06 07  08 09 0A 0B 0C 0D 0E 0F
      -- -- -- -- -- -- -- --  -- -- -- -- -- -- -- --
0000: 00                                                .               
```

#### Opcodes

```
  0: 0x0000 [0x00] END_REQSTACK()
```

### Event 902

#### Metadata

| Field        | Value     |
|--------------|-----------|
| Entrypoint   | 0x0001    |
| Data Size    | 136 bytes |
| Instructions | 26        |

```
      00 01 02 03 04 05 06 07  08 09 0A 0B 0C 0D 0E 0F
      -- -- -- -- -- -- -- --  -- -- -- -- -- -- -- --
0000:    42 27 80 85 62 07 01  03 03 02 10 00 80 48 01   B'..b........H.
0010: 80 24 02 80 03 80 04 80  25 02 00 10 03 80 00 2B  .$......%......+
0020: 00 03 01 10 05 80 21 00  01 49 00 02 00 10 04 80  ......!..I......
0030: 00 49 00 43 00 43 01 02  09 10 04 80 01 46 00 03  .I.C.C.......F..
0040: 01 10 06 80 21 00 01 49  00 4E 00 85 62 07 01 4E  ....!..I.N..b..N
0050: 00 86 62 07 01 27 80 85  62 07 01 02 1D 07 80 1C  ..b..'..b.......
0060: 08 80 48 09 80 1C 08 80  1D 0A 80 2C 86 62 07 01  ..H........,.b..
0070: 86 62 07 01 65 66 6F 6E  1C 08 80 1D 0B 80 1C 08  .b..efon........
0080: 80 1D 0C 80 1C 08 80 21  00                       .......!.       
```

#### Opcodes

```
  0: 0x0001 [0x42] SET_CLI_EVENT_CANCEL_DATA()
  1: 0x0002 [0x27] REQ_SET(priority=0x80, entity_id=Unnamed NPC (ID: 17261189/0x01076285), tag_num=0x03)
  2: 0x0009 [0x03] Work_Zone[2] = 20*
  3: 0x000E [0x48] [System] [7879*]:
    → "Your level will be restricted to $0. You must have a fishing rod and bait. No one else may participate."
  4: 0x0011 [0x24] CREATE_DIALOG(message_id=7881*, default_option=1*, option_flags=0*)
    → "Continue? [Yes. Let's go!/I'm not ready.]"
  5: 0x0018 [0x25] WAIT_DIALOG_SELECT()
  6: 0x0019 [0x02] IF !(Work_Zone[0] == 1*) GOTO 0x002B
  7: 0x0021 [0x03] Work_Zone[1] = 1073741824*
  8: 0x0026 [0x21] END_EVENT
  9: 0x0027 [0x00] END_REQSTACK()

SUBROUTINE_0049:
 10: 0x0049 [0x4E] SET_ENTITY_HIDE_FLAG: Show Unnamed NPC (ID: 17261189/0x01076285)
 11: 0x004F [0x4E] SET_ENTITY_HIDE_FLAG: Show Unnamed NPC (ID: 17261190/0x01076286)
 12: 0x0055 [0x27] REQ_SET(priority=0x80, entity_id=Unnamed NPC (ID: 17261189/0x01076285), tag_num=0x02)
 13: 0x005C [0x1D] PRINT_EVENT_MESSAGE(message_id=7846*)
    → "..."
 14: 0x005F [0x1C] WAIT(120* ticks)
 15: 0x0062 [0x48] [System] [7847*]:
    → "??? gazes out over the ocean."
 16: 0x0065 [0x1C] WAIT(120* ticks)
 17: 0x0068 [0x1D] PRINT_EVENT_MESSAGE(message_id=7848*)
    → "I must...hurry... I must...hurry and...pull it...up..."
 18: 0x006B [0x2C] CREATE_SCHEDULER_TASK: Create scheduler "efon" with entities [Unnamed NPC (ID: 17261190/0x01076286), Unnamed NPC (ID: 17261190/0x01076286)]
 19: 0x0078 [0x1C] WAIT(120* ticks)
 20: 0x007B [0x1D] PRINT_EVENT_MESSAGE(message_id=7849*)
    → "I can see it glimmering there... But there are sharks everywhere..."
 21: 0x007E [0x1C] WAIT(120* ticks)
 22: 0x0081 [0x1D] PRINT_EVENT_MESSAGE(message_id=7850*)
    → "I know... I should still be able to fish it up. But...I don't have a rod or bait..."
 23: 0x0084 [0x1C] WAIT(120* ticks)
 24: 0x0087 [0x21] END_EVENT
 25: 0x0088 [0x00] END_REQSTACK()
```

#### Data or dead code:

```
# Dead code (unreachable instructions):
     0x0028 [0x01] GOTO 0x0049
```
