# 0x7FFFFFF0 - Zone Events

## Common Data

| Field            | Value                        |
|------------------|------------------------------|
| Zone             | Buburimu Peninsula (ID: 118) |
| Block Size       | 2028 bytes                   |
| Total Events     | 35                           |
| References Count | 127                          |

## List of Events

| Event ID                   | Entrypoint   |   Size |   Instructions |
|----------------------------|--------------|--------|----------------|
| [65535](#event-65535)      | 0x0000       |      1 |              1 |
| [65534](#event-65534)      | 0x0001       |      1 |              1 |
| [0](#event-0)              | 0x0002       |    562 |             83 |
| [65535.1](#event-655351)   | 0x0234       |     10 |              2 |
| [65535.2](#event-655352)   | 0x023E       |     10 |              2 |
| [65535.3](#event-655353)   | 0x0248       |     10 |              2 |
| [65535.4](#event-655354)   | 0x0252       |     10 |              2 |
| [65535.5](#event-655355)   | 0x025C       |     10 |              2 |
| [65535.6](#event-655356)   | 0x0266       |     10 |              2 |
| [65535.7](#event-655357)   | 0x0270       |     10 |              2 |
| [65535.8](#event-655358)   | 0x027A       |     10 |              2 |
| [65535.9](#event-655359)   | 0x0284       |     10 |              2 |
| [65535.10](#event-6553510) | 0x028E       |     10 |              2 |
| [65535.11](#event-6553511) | 0x0298       |     10 |              2 |
| [65535.12](#event-6553512) | 0x02A2       |     10 |              2 |
| [65535.13](#event-6553513) | 0x02AC       |     10 |              2 |
| [65535.14](#event-6553514) | 0x02B6       |     10 |              2 |
| [65535.15](#event-6553515) | 0x02C0       |     10 |              2 |
| [65535.16](#event-6553516) | 0x02CA       |     10 |              2 |
| [65535.17](#event-6553517) | 0x02D4       |     10 |              2 |
| [65535.18](#event-6553518) | 0x02DE       |     10 |              2 |
| [65535.19](#event-6553519) | 0x02E8       |     10 |              2 |
| [65535.20](#event-6553520) | 0x02F2       |     10 |              2 |
| [65535.21](#event-6553521) | 0x02FC       |     12 |              3 |
| [65535.22](#event-6553522) | 0x0308       |     10 |              2 |
| [65535.23](#event-6553523) | 0x0312       |     37 |              5 |
| [65535.24](#event-6553524) | 0x0337       |    185 |             37 |
| [65535.25](#event-6553525) | 0x03F0       |     24 |              4 |
| [65535.26](#event-6553526) | 0x0408       |     24 |              4 |
| [65535.27](#event-6553527) | 0x0420       |     37 |              5 |
| [65535.28](#event-6553528) | 0x0445       |     37 |              5 |
| [65535.29](#event-6553529) | 0x046A       |     42 |              6 |
| [65535.30](#event-6553530) | 0x0494       |     16 |              3 |
| [65535.31](#event-6553531) | 0x04A4       |     41 |              5 |
| [50](#event-50)            | 0x04CD       |    135 |             31 |

## DAT References (imed_data)

|   Index | Hex Value   |   Dec Value |
|---------|-------------|-------------|
|       0 | 0x00C8      |         200 |
|       1 | 0x0000      |           0 |
|       2 | 0x0013      |          19 |
|       3 | 0xFFFC4477  |  4294722679 |
|       4 | 0xFFFBBDA5  |  4294688165 |
|       5 | 0x3E7F      |       15999 |
|       6 | 0x07A5      |        1957 |
|       7 | 0x0092      |         146 |
|       8 | 0x1CDD      |        7389 |
|       9 | 0x1CDE      |        7390 |
|      10 | 0x003C      |          60 |
|      11 | 0x1CDF      |        7391 |
|      12 | 0x007C      |         124 |
|      13 | 0x1CE0      |        7392 |
|      14 | 0x1CE1      |        7393 |
|      15 | 0x1CE2      |        7394 |
|      16 | 0x1CE3      |        7395 |
|      17 | 0x1CE4      |        7396 |
|      18 | 0x1CE5      |        7397 |
|      19 | 0x1CE6      |        7398 |
|      20 | 0x1CE7      |        7399 |
|      21 | 0x000F      |          15 |
|      22 | 0x1CE8      |        7400 |
|      23 | 0x1CE9      |        7401 |
|      24 | 0x005A      |          90 |
|      25 | 0x21D4A     |      138570 |
|      26 | 0x1DC79     |      121977 |
|      27 | 0xFFFFF830  |  4294965296 |
|      28 | 0x086F      |        2159 |
|      29 | 0x1807D     |       98429 |
|      30 | 0xFFFEFF25  |  4294901541 |
|      31 | 0x03E4      |         996 |
|      32 | 0x04E3      |        1251 |
|      33 | 0xFFFCB26E  |  4294750830 |
|      34 | 0xFFFE9627  |  4294874663 |
|      35 | 0xFFFFFF0B  |  4294967051 |
|      36 | 0x09F7      |        2551 |
|      37 | 0x8B2F      |       35631 |
|      38 | 0xFFFF3AAD  |  4294916781 |
|      39 | 0x2329      |        9001 |
|      40 | 0x09EC      |        2540 |
|      41 | 0x27692     |      161426 |
|      42 | 0x274F7     |      161015 |
|      43 | 0x05F8      |        1528 |
|      44 | 0x1C843     |      116803 |
|      45 | 0xFFFEE69B  |  4294895259 |
|      46 | 0x07F9      |        2041 |
|      47 | 0xFFFC8339  |  4294738745 |
|      48 | 0xFFFE2B86  |  4294847366 |
|      49 | 0xFFFFFF07  |  4294967047 |
|      50 | 0x0FFD      |        4093 |
|      51 | 0xBF7E      |       49022 |
|      52 | 0xFFFEE2B4  |  4294894260 |
|      53 | 0x2712      |       10002 |
|      54 | 0x0C0F      |        3087 |
|      55 | 0x185ED     |       99821 |
|      56 | 0xFFFEFF9F  |  4294901663 |
|      57 | 0x0312      |         786 |
|      58 | 0x21BAA     |      138154 |
|      59 | 0x1D514     |      120084 |
|      60 | 0x0E96      |        3734 |
|      61 | 0xFFFCB3AF  |  4294751151 |
|      62 | 0xFFFE90C0  |  4294873280 |
|      63 | 0xFFFFFF72  |  4294967154 |
|      64 | 0x084B      |        2123 |
|      65 | 0x8B65      |       35685 |
|      66 | 0xFFFF3C2F  |  4294917167 |
|      67 | 0x065B      |        1627 |
|      68 | 0xFFFBBF41  |  4294688577 |
|      69 | 0xFFF9A232  |  4294550066 |
|      70 | 0xFFFF641B  |  4294927387 |
|      71 | 0x0AA6      |        2726 |
|      72 | 0x8B7BE     |      571326 |
|      73 | 0xFFFBD923  |  4294695203 |
|      74 | 0xFFFFFEA3  |  4294966947 |
|      75 | 0x01A6      |         422 |
|      76 | 0xFFFBB61F  |  4294686239 |
|      77 | 0xFFF9928F  |  4294546063 |
|      78 | 0xFFFF648E  |  4294927502 |
|      79 | 0x0704      |        1796 |
|      80 | 0x88F90     |      561040 |
|      81 | 0xFFFBC607  |  4294690311 |
|      82 | 0x06C5      |        1733 |
|      83 | 0xFFFA88AC  |  4294609068 |
|      84 | 0x4DDD      |       19933 |
|      85 | 0xFFFF7744  |  4294932292 |
|      86 | 0x0831      |        2097 |
|      87 | 0x1DA71     |      121457 |
|      88 | 0x1C391     |      115601 |
|      89 | 0xFFFFE0D3  |  4294959315 |
|      90 | 0x0DA9      |        3497 |
|      91 | 0x25BC9     |      154569 |
|      92 | 0xFFFD5734  |  4294793012 |
|      93 | 0x0227      |         551 |
|      94 | 0x091C      |        2332 |
|      95 | 0xFFFFC3F3  |  4294951923 |
|      96 | 0x19656     |      104022 |
|      97 | 0xFFFFBC6C  |  4294949996 |
|      98 | 0x0379      |         889 |
|      99 | 0x0286      |         646 |
|     100 | 0xFFFF97B9  |  4294940601 |
|     101 | 0xFFFFE43B  |  4294960187 |
|     102 | 0x0689      |        1673 |
|     103 | 0xFFFFFFD1  |  4294967249 |
|     104 | 0xFFFF80F7  |  4294934775 |
|     105 | 0xFFFFA435  |  4294943797 |
|     106 | 0x03FD      |        1021 |
|     107 | 0x0005      |           5 |
|     108 | 0x0001      |           1 |
|     109 | 0x0002      |           2 |
|     110 | 0x000A      |          10 |
|     111 | 0x0009      |           9 |
|     112 | 0x0046      |          70 |
|     113 | 0x008C      |         140 |
|     114 | 0x00D2      |         210 |
|     115 | 0xFFFAC9EC  |  4294625772 |
|     116 | 0xC1BF      |       49599 |
|     117 | 0xFFFFA2F0  |  4294943472 |
|     118 | 0x0A19      |        2585 |
|     119 | 0x0094      |         148 |
|     120 | 0x00F0      |         240 |
|     121 | 0x00C9      |         201 |
|     122 | 0x1FA5      |        8101 |
|     123 | 0x0090      |         144 |
|     124 | 0x1FB1      |        8113 |
|     125 | 0x0063      |          99 |
|     126 | 0x1FB2      |        8114 |

## String References

- **8101**: There is treasure somewhere in the vicinity of this marker...
- **8113**: Your chocobo seems especially sharp today!
- **8114**: Your chocobo seems especially energetic today!

## Events

### Event 65535

#### Metadata

| Field        | Value   |
|--------------|---------|
| Entrypoint   | 0x0000  |
| Data Size    | 1 bytes |
| Instructions | 1       |

```
      00 01 02 03 04 05 06 07  08 09 0A 0B 0C 0D 0E 0F
      -- -- -- -- -- -- -- --  -- -- -- -- -- -- -- --
0000: 00                                                .               
```

#### Opcodes

```
  0: 0x0000 [0x00] END_REQSTACK()
```

### Event 65534

#### Metadata

| Field        | Value   |
|--------------|---------|
| Entrypoint   | 0x0001  |
| Data Size    | 1 bytes |
| Instructions | 1       |

```
      00 01 02 03 04 05 06 07  08 09 0A 0B 0C 0D 0E 0F
      -- -- -- -- -- -- -- --  -- -- -- -- -- -- -- --
0000:    00                                              .              
```

#### Opcodes

```
  0: 0x0001 [0x00] END_REQSTACK()
```

### Event 0

#### Metadata

| Field        | Value     |
|--------------|-----------|
| Entrypoint   | 0x0002    |
| Data Size    | 562 bytes |
| Instructions | 83        |

```
      00 01 02 03 04 05 06 07  08 09 0A 0B 0C 0D 0E 0F
      -- -- -- -- -- -- -- --  -- -- -- -- -- -- -- --
0000:       20 01 46 01 42 45  00 80 F0 FF FF 7F F0 FF     .F.BE........
0010: FF 7F 66 64 6F 31 01 80  55 00 80 F0 FF FF 7F F0  ..fdo1..U.......
0020: FF FF 7F 66 64 6F 31 38  02 80 37 03 80 04 80 05  ...fdo18..7.....
0030: 80 06 80 45 07 80 F8 FF  FF 7F F8 FF FF 7F 63 6D  ...E..........cm
0040: 31 30 01 80 55 07 80 F8  FF FF 7F F8 FF FF 7F 63  10..U..........c
0050: 6D 31 30 4E 00 53 62 07  01 45 00 80 F0 FF FF 7F  m10N.Sb..E......
0060: F0 FF FF 7F 66 64 69 31  01 80 55 00 80 F0 FF FF  ....fdi1..U.....
0070: 7F F0 FF FF 7F 66 64 69  31 2B 53 62 07 01 08 80  .....fdi1+Sb....
0080: 23 4A F0 FF FF 7F 53 62  07 01 6F 76 F0 FF FF 7F  #J....Sb..ov....
0090: 45 07 80 F8 FF FF 7F F8  FF FF 7F 63 6D 31 31 01  E..........cm11.
00A0: 80 55 07 80 F8 FF FF 7F  F8 FF FF 7F 63 6D 31 31  .U..........cm11
00B0: 2B 53 62 07 01 09 80 23  27 03 53 62 07 01 02 1C  +Sb....#'.Sb....
00C0: 0A 80 4A F0 FF FF 7F 53  62 07 01 1C 0A 80 4A F0  ..J....Sb.....J.
00D0: FF FF 7F 53 62 07 01 29  04 53 62 07 01 08 4A F0  ...Sb..).Sb...J.
00E0: FF FF 7F 53 62 07 01 2B  53 62 07 01 0B 80 23 5C  ...Sb..+Sb....#\
00F0: 00 0C 80 5C 01 0C 80 27  03 53 62 07 01 04 45 07  ...\...'.Sb...E.
0100: 80 F8 FF FF 7F F8 FF FF  7F 63 6D 31 32 01 80 55  .........cm12..U
0110: 07 80 F8 FF FF 7F F8 FF  FF 7F 63 6D 31 32 2B 53  ..........cm12+S
0120: 62 07 01 0D 80 23 2B 53  62 07 01 0E 80 23 2B 53  b....#+Sb....#+S
0130: 62 07 01 0F 80 23 27 03  52 62 07 01 03 2B 53 62  b....#'.Rb...+Sb
0140: 07 01 10 80 23 2B 53 62  07 01 11 80 23 2B 53 62  ....#+Sb....#+Sb
0150: 07 01 12 80 23 29 04 52  62 07 01 04 29 04 53 62  ....#).Rb...).Sb
0160: 07 01 05 4A 53 62 07 01  F0 FF FF 7F 1C 0A 80 27  ...JSb.........'
0170: 03 53 62 07 01 06 2B 53  62 07 01 13 80 23 2B 53  .Sb...+Sb....#+S
0180: 62 07 01 14 80 23 27 04  53 62 07 01 07 1C 15 80  b....#'.Sb......
0190: 45 07 80 F8 FF FF 7F F8  FF FF 7F 63 6D 31 34 01  E..........cm14.
01A0: 80 55 07 80 F8 FF FF 7F  F8 FF FF 7F 63 6D 31 34  .U..........cm14
01B0: 29 05 53 62 07 01 08 2B  53 62 07 01 16 80 23 2B  ).Sb...+Sb....#+
01C0: 53 62 07 01 17 80 23 7B  53 62 07 01 1C 0A 80 27  Sb....#{Sb.....'
01D0: 05 53 62 07 01 03 1C 0A  80 4A F0 FF FF 7F 53 62  .Sb......J....Sb
01E0: 07 01 1C 0A 80 4A F0 FF  FF 7F 53 62 07 01 1C 18  .....J....Sb....
01F0: 80 45 00 80 F0 FF FF 7F  F0 FF FF 7F 66 64 6F 32  .E..........fdo2
0200: 01 80 55 00 80 F0 FF FF  7F F0 FF FF 7F 66 64 6F  ..U..........fdo
0210: 32 5C 00 01 80 5C 01 01  80 4E 01 53 62 07 01 46  2\...\...N.Sb..F
0220: 00 45 00 80 F0 FF FF 7F  F0 FF FF 7F 66 64 69 32  .E..........fdi2
0230: 01 80 21 00                                       ..!.            
```

#### Opcodes

```
  0: 0x0002 [0x20] SET_CLI_EVENT_UC_FLAG: Lock player control
  1: 0x0004 [0x46] CAMERA_CONTROL: Disable user control
  2: 0x0006 [0x42] SET_CLI_EVENT_CANCEL_DATA()
  3: 0x0007 [0x45] LOAD_SCHEDULED_TASK: Load scheduler "fdo1" with entities [LocalPlayer, LocalPlayer], work=[200*, 0*]
  4: 0x0018 [0x55] WAIT_LOAD_SCHEDULER: Wait for scheduler "fdo1" with entities [LocalPlayer, LocalPlayer], work=200*
  5: 0x0027 [0x38] SET_CLIENT_EVENT_MODE(mode=19*)
  6: 0x002A [0x37] UPDATE_EVENT_POSITION_AND_DIR: x=-244.617*, z=-279.131*, y=15.999*, direction=172.0°*
  7: 0x0033 [0x45] LOAD_SCHEDULED_TASK: Load scheduler "cm10" with entities [EventEntity, EventEntity], work=[146*, 0*]
  8: 0x0044 [0x55] WAIT_LOAD_SCHEDULER: Wait for scheduler "cm10" with entities [EventEntity, EventEntity], work=146*
  9: 0x0053 [0x4E] SET_ENTITY_HIDE_FLAG: Show Lewenhart (ID: 17261139/0x01076253)
 10: 0x0059 [0x45] LOAD_SCHEDULED_TASK: Load scheduler "fdi1" with entities [LocalPlayer, LocalPlayer], work=[200*, 0*]
 11: 0x006A [0x55] WAIT_LOAD_SCHEDULER: Wait for scheduler "fdi1" with entities [LocalPlayer, LocalPlayer], work=200*
 12: 0x0079 [0x2B] Lewenhart (ID: 17261139/0x01076253) [7389*]:
    → "Oh, it's a rare day I see anybody around here."
 13: 0x0080 [0x23] WAIT_FOR_DIALOG_INTERACTION
 14: 0x0081 [0x4A] LocalPlayer looks at Lewenhart (ID: 17261139/0x01076253)
 15: 0x008A [0x6F] WAIT_FRAME_DELAY: Yield until WaitTime reaches zero
 16: 0x008B [0x76] CHECK_ENTITY_RENDER_FLAGS: Wait until LocalPlayer Render.Flags0 and Render.Flags3 conditions are met
 17: 0x0090 [0x45] LOAD_SCHEDULED_TASK: Load scheduler "cm11" with entities [EventEntity, EventEntity], work=[146*, 0*]
 18: 0x00A1 [0x55] WAIT_LOAD_SCHEDULER: Wait for scheduler "cm11" with entities [EventEntity, EventEntity], work=146*
 19: 0x00B0 [0x2B] Lewenhart (ID: 17261139/0x01076253) [7390*]:
    → "Oh, forgive me... I am a simple minstrel. I travel from one tavern to another, caring little whence my daily bread may come."
 20: 0x00B7 [0x23] WAIT_FOR_DIALOG_INTERACTION
 21: 0x00B8 [0x27] REQ_SET(priority=0x03, entity_id=Lewenhart (ID: 17261139/0x01076253), tag_num=0x02)
 22: 0x00BF [0x1C] WAIT(60* ticks)
 23: 0x00C2 [0x4A] LocalPlayer looks at Lewenhart (ID: 17261139/0x01076253)
 24: 0x00CB [0x1C] WAIT(60* ticks)
 25: 0x00CE [0x4A] LocalPlayer looks at Lewenhart (ID: 17261139/0x01076253)
 26: 0x00D7 [0x29] REQ_SET_WAIT(priority=0x04, entity_id=Lewenhart (ID: 17261139/0x01076253), tag_num=0x08)
 27: 0x00DE [0x4A] LocalPlayer looks at Lewenhart (ID: 17261139/0x01076253)
 28: 0x00E7 [0x2B] Lewenhart (ID: 17261139/0x01076253) [7391*]:
    → "Every time I walk this road, I make a point of visiting this place. And it's good to see a kindred spirit here."
 29: 0x00EE [0x23] WAIT_FOR_DIALOG_INTERACTION
 30: 0x00EF [0x5C] MUSIC_CONTROL: Set Idle (Day) music to song 124*
 31: 0x00F3 [0x5C] MUSIC_CONTROL: Set Idle (Night) music to song 124*
 32: 0x00F7 [0x27] REQ_SET(priority=0x03, entity_id=Lewenhart (ID: 17261139/0x01076253), tag_num=0x04)
 33: 0x00FE [0x45] LOAD_SCHEDULED_TASK: Load scheduler "cm12" with entities [EventEntity, EventEntity], work=[146*, 0*]
 34: 0x010F [0x55] WAIT_LOAD_SCHEDULER: Wait for scheduler "cm12" with entities [EventEntity, EventEntity], work=146*
 35: 0x011E [0x2B] Lewenhart (ID: 17261139/0x01076253) [7392*]:
    → "The lyrics here have an endless charm, don't they? The story of two lovers torn apart, each hearing the crashing of waves from opposite shores..."
 36: 0x0125 [0x23] WAIT_FOR_DIALOG_INTERACTION
 37: 0x0126 [0x2B] Lewenhart (ID: 17261139/0x01076253) [7393*]:
    → "This is how emotions live on, my friend. Even those of broken dreams and failed romances..."
 38: 0x012D [0x23] WAIT_FOR_DIALOG_INTERACTION
 39: 0x012E [0x2B] Lewenhart (ID: 17261139/0x01076253) [7394*]:
    → "Our duty as minstrels is to take these shattered desires, give them shape, and pass them to others."
 40: 0x0135 [0x23] WAIT_FOR_DIALOG_INTERACTION
 41: 0x0136 [0x27] REQ_SET(priority=0x03, entity_id=Song Runes (ID: 17261138/0x01076252), tag_num=0x03)
 42: 0x013D [0x2B] Lewenhart (ID: 17261139/0x01076253) [7395*]:
    → "I know that dreams and emotions are often difficult to grasp."
 43: 0x0144 [0x23] WAIT_FOR_DIALOG_INTERACTION
 44: 0x0145 [0x2B] Lewenhart (ID: 17261139/0x01076253) [7396*]:
    → "But sometimes, in a moment of brilliance, our songs can stir even the loneliest heart."
 45: 0x014C [0x23] WAIT_FOR_DIALOG_INTERACTION
 46: 0x014D [0x2B] Lewenhart (ID: 17261139/0x01076253) [7397*]:
    → "My friend, moments like that are what keep us minstrels singing."
 47: 0x0154 [0x23] WAIT_FOR_DIALOG_INTERACTION
 48: 0x0155 [0x29] REQ_SET_WAIT(priority=0x04, entity_id=Song Runes (ID: 17261138/0x01076252), tag_num=0x04)
 49: 0x015C [0x29] REQ_SET_WAIT(priority=0x04, entity_id=Lewenhart (ID: 17261139/0x01076253), tag_num=0x05)
 50: 0x0163 [0x4A] Lewenhart (ID: 17261139/0x01076253) looks at LocalPlayer
 51: 0x016C [0x1C] WAIT(60* ticks)
 52: 0x016F [0x27] REQ_SET(priority=0x03, entity_id=Lewenhart (ID: 17261139/0x01076253), tag_num=0x06)
 53: 0x0176 [0x2B] Lewenhart (ID: 17261139/0x01076253) [7398*]:
    → "Can you not feel the powerful emotions of the narrator here, who could not help but put these feelings to verse?"
 54: 0x017D [0x23] WAIT_FOR_DIALOG_INTERACTION
 55: 0x017E [0x2B] Lewenhart (ID: 17261139/0x01076253) [7399*]:
    → "Even those who forgot how to sing through the toils of life should be moved, made to sing by the lyrics herein."
 56: 0x0185 [0x23] WAIT_FOR_DIALOG_INTERACTION
 57: 0x0186 [0x27] REQ_SET(priority=0x04, entity_id=Lewenhart (ID: 17261139/0x01076253), tag_num=0x07)
 58: 0x018D [0x1C] WAIT(15* ticks)
 59: 0x0190 [0x45] LOAD_SCHEDULED_TASK: Load scheduler "cm14" with entities [EventEntity, EventEntity], work=[146*, 0*]
 60: 0x01A1 [0x55] WAIT_LOAD_SCHEDULER: Wait for scheduler "cm14" with entities [EventEntity, EventEntity], work=146*
 61: 0x01B0 [0x29] REQ_SET_WAIT(priority=0x05, entity_id=Lewenhart (ID: 17261139/0x01076253), tag_num=0x08)
 62: 0x01B7 [0x2B] Lewenhart (ID: 17261139/0x01076253) [7400*]:
    → "Oh, it seems I've rambled quite a bit. My words fall to riddles whenever I'm here, I'm afraid."
 63: 0x01BE [0x23] WAIT_FOR_DIALOG_INTERACTION
 64: 0x01BF [0x2B] Lewenhart (ID: 17261139/0x01076253) [7401*]:
    → "Well, I shan't keep you any longer. I hope we may meet again in the bustle of a warm tavern. Farewell!"
 65: 0x01C6 [0x23] WAIT_FOR_DIALOG_INTERACTION
 66: 0x01C7 [0x7B] Lewenhart (ID: 17261139/0x01076253) stops talking
 67: 0x01CC [0x1C] WAIT(60* ticks)
 68: 0x01CF [0x27] REQ_SET(priority=0x05, entity_id=Lewenhart (ID: 17261139/0x01076253), tag_num=0x03)
 69: 0x01D6 [0x1C] WAIT(60* ticks)
 70: 0x01D9 [0x4A] LocalPlayer looks at Lewenhart (ID: 17261139/0x01076253)
 71: 0x01E2 [0x1C] WAIT(60* ticks)
 72: 0x01E5 [0x4A] LocalPlayer looks at Lewenhart (ID: 17261139/0x01076253)
 73: 0x01EE [0x1C] WAIT(90* ticks)
 74: 0x01F1 [0x45] LOAD_SCHEDULED_TASK: Load scheduler "fdo2" with entities [LocalPlayer, LocalPlayer], work=[200*, 0*]
 75: 0x0202 [0x55] WAIT_LOAD_SCHEDULER: Wait for scheduler "fdo2" with entities [LocalPlayer, LocalPlayer], work=200*
 76: 0x0211 [0x5C] MUSIC_CONTROL: Set Idle (Day) music to song 0*
 77: 0x0215 [0x5C] MUSIC_CONTROL: Set Idle (Night) music to song 0*
 78: 0x0219 [0x4E] SET_ENTITY_HIDE_FLAG: Hide Lewenhart (ID: 17261139/0x01076253)
 79: 0x021F [0x46] CAMERA_CONTROL: Restore default settings
 80: 0x0221 [0x45] LOAD_SCHEDULED_TASK: Load scheduler "fdi2" with entities [LocalPlayer, LocalPlayer], work=[200*, 0*]
 81: 0x0232 [0x21] END_EVENT
 82: 0x0233 [0x00] END_REQSTACK()
```

### Event 65535.1

#### Metadata

| Field        | Value    |
|--------------|----------|
| Entrypoint   | 0x0234   |
| Data Size    | 10 bytes |
| Instructions | 2        |

```
      00 01 02 03 04 05 06 07  08 09 0A 0B 0C 0D 0E 0F
      -- -- -- -- -- -- -- --  -- -- -- -- -- -- -- --
0230:             37 19 80 1A  80 1B 80 1C 80 00            7.........  
```

#### Opcodes

```
  0: 0x0234 [0x37] UPDATE_EVENT_POSITION_AND_DIR: x=138.570*, z=121.977*, y=-2.000*, direction=189.8°*
  1: 0x023D [0x00] END_REQSTACK()
```

### Event 65535.2

#### Metadata

| Field        | Value    |
|--------------|----------|
| Entrypoint   | 0x023E   |
| Data Size    | 10 bytes |
| Instructions | 2        |

```
      00 01 02 03 04 05 06 07  08 09 0A 0B 0C 0D 0E 0F
      -- -- -- -- -- -- -- --  -- -- -- -- -- -- -- --
0230:                                            37 1D                7.
0240: 80 1E 80 1F 80 20 80 00                           ..... ..        
```

#### Opcodes

```
  0: 0x023E [0x37] UPDATE_EVENT_POSITION_AND_DIR: x=98.429*, z=-65.755*, y=0.996*, direction=109.9°*
  1: 0x0247 [0x00] END_REQSTACK()
```

### Event 65535.3

#### Metadata

| Field        | Value    |
|--------------|----------|
| Entrypoint   | 0x0248   |
| Data Size    | 10 bytes |
| Instructions | 2        |

```
      00 01 02 03 04 05 06 07  08 09 0A 0B 0C 0D 0E 0F
      -- -- -- -- -- -- -- --  -- -- -- -- -- -- -- --
0240:                          37 21 80 22 80 23 80 24          7!.".#.$
0250: 80 00                                             ..              
```

#### Opcodes

```
  0: 0x0248 [0x37] UPDATE_EVENT_POSITION_AND_DIR: x=-216.466*, z=-92.633*, y=-0.245*, direction=224.2°*
  1: 0x0251 [0x00] END_REQSTACK()
```

### Event 65535.4

#### Metadata

| Field        | Value    |
|--------------|----------|
| Entrypoint   | 0x0252   |
| Data Size    | 10 bytes |
| Instructions | 2        |

```
      00 01 02 03 04 05 06 07  08 09 0A 0B 0C 0D 0E 0F
      -- -- -- -- -- -- -- --  -- -- -- -- -- -- -- --
0250:       37 25 80 26 80 27  80 28 80 00                7%.&.'.(..    
```

#### Opcodes

```
  0: 0x0252 [0x37] UPDATE_EVENT_POSITION_AND_DIR: x=35.631*, z=-50.515*, y=9.001*, direction=223.2°*
  1: 0x025B [0x00] END_REQSTACK()
```

### Event 65535.5

#### Metadata

| Field        | Value    |
|--------------|----------|
| Entrypoint   | 0x025C   |
| Data Size    | 10 bytes |
| Instructions | 2        |

```
      00 01 02 03 04 05 06 07  08 09 0A 0B 0C 0D 0E 0F
      -- -- -- -- -- -- -- --  -- -- -- -- -- -- -- --
0250:                                      37 29 80 2A              7).*
0260: 80 1B 80 2B 80 00                                 ...+..          
```

#### Opcodes

```
  0: 0x025C [0x37] UPDATE_EVENT_POSITION_AND_DIR: x=161.426*, z=161.015*, y=-2.000*, direction=134.3°*
  1: 0x0265 [0x00] END_REQSTACK()
```

### Event 65535.6

#### Metadata

| Field        | Value    |
|--------------|----------|
| Entrypoint   | 0x0266   |
| Data Size    | 10 bytes |
| Instructions | 2        |

```
      00 01 02 03 04 05 06 07  08 09 0A 0B 0C 0D 0E 0F
      -- -- -- -- -- -- -- --  -- -- -- -- -- -- -- --
0260:                   37 2C  80 2D 80 1F 80 2E 80 00        7,.-......
```

#### Opcodes

```
  0: 0x0266 [0x37] UPDATE_EVENT_POSITION_AND_DIR: x=116.803*, z=-72.037*, y=0.996*, direction=179.4°*
  1: 0x026F [0x00] END_REQSTACK()
```

### Event 65535.7

#### Metadata

| Field        | Value    |
|--------------|----------|
| Entrypoint   | 0x0270   |
| Data Size    | 10 bytes |
| Instructions | 2        |

```
      00 01 02 03 04 05 06 07  08 09 0A 0B 0C 0D 0E 0F
      -- -- -- -- -- -- -- --  -- -- -- -- -- -- -- --
0270: 37 2F 80 30 80 31 80 32  80 00                    7/.0.1.2..      
```

#### Opcodes

```
  0: 0x0270 [0x37] UPDATE_EVENT_POSITION_AND_DIR: x=-228.551*, z=-119.930*, y=-0.249*, direction=359.7°*
  1: 0x0279 [0x00] END_REQSTACK()
```

### Event 65535.8

#### Metadata

| Field        | Value    |
|--------------|----------|
| Entrypoint   | 0x027A   |
| Data Size    | 10 bytes |
| Instructions | 2        |

```
      00 01 02 03 04 05 06 07  08 09 0A 0B 0C 0D 0E 0F
      -- -- -- -- -- -- -- --  -- -- -- -- -- -- -- --
0270:                                37 33 80 34 80 35            73.4.5
0280: 80 36 80 00                                       .6..            
```

#### Opcodes

```
  0: 0x027A [0x37] UPDATE_EVENT_POSITION_AND_DIR: x=49.022*, z=-73.036*, y=10.002*, direction=271.3°*
  1: 0x0283 [0x00] END_REQSTACK()
```

### Event 65535.9

#### Metadata

| Field        | Value    |
|--------------|----------|
| Entrypoint   | 0x0284   |
| Data Size    | 10 bytes |
| Instructions | 2        |

```
      00 01 02 03 04 05 06 07  08 09 0A 0B 0C 0D 0E 0F
      -- -- -- -- -- -- -- --  -- -- -- -- -- -- -- --
0280:             37 37 80 38  80 1F 80 39 80 00            77.8...9..  
```

#### Opcodes

```
  0: 0x0284 [0x37] UPDATE_EVENT_POSITION_AND_DIR: x=99.821*, z=-65.633*, y=0.996*, direction=69.1°*
  1: 0x028D [0x00] END_REQSTACK()
```

### Event 65535.10

#### Metadata

| Field        | Value    |
|--------------|----------|
| Entrypoint   | 0x028E   |
| Data Size    | 10 bytes |
| Instructions | 2        |

```
      00 01 02 03 04 05 06 07  08 09 0A 0B 0C 0D 0E 0F
      -- -- -- -- -- -- -- --  -- -- -- -- -- -- -- --
0280:                                            37 3A                7:
0290: 80 3B 80 1B 80 3C 80 00                           .;...<..        
```

#### Opcodes

```
  0: 0x028E [0x37] UPDATE_EVENT_POSITION_AND_DIR: x=138.154*, z=120.084*, y=-2.000*, direction=328.2°*
  1: 0x0297 [0x00] END_REQSTACK()
```

### Event 65535.11

#### Metadata

| Field        | Value    |
|--------------|----------|
| Entrypoint   | 0x0298   |
| Data Size    | 10 bytes |
| Instructions | 2        |

```
      00 01 02 03 04 05 06 07  08 09 0A 0B 0C 0D 0E 0F
      -- -- -- -- -- -- -- --  -- -- -- -- -- -- -- --
0290:                          37 3D 80 3E 80 3F 80 40          7=.>.?.@
02A0: 80 00                                             ..              
```

#### Opcodes

```
  0: 0x0298 [0x37] UPDATE_EVENT_POSITION_AND_DIR: x=-216.145*, z=-94.016*, y=-0.142*, direction=186.6°*
  1: 0x02A1 [0x00] END_REQSTACK()
```

### Event 65535.12

#### Metadata

| Field        | Value    |
|--------------|----------|
| Entrypoint   | 0x02A2   |
| Data Size    | 10 bytes |
| Instructions | 2        |

```
      00 01 02 03 04 05 06 07  08 09 0A 0B 0C 0D 0E 0F
      -- -- -- -- -- -- -- --  -- -- -- -- -- -- -- --
02A0:       37 41 80 42 80 27  80 43 80 00                7A.B.'.C..    
```

#### Opcodes

```
  0: 0x02A2 [0x37] UPDATE_EVENT_POSITION_AND_DIR: x=35.685*, z=-50.129*, y=9.001*, direction=143.0°*
  1: 0x02AB [0x00] END_REQSTACK()
```

### Event 65535.13

#### Metadata

| Field        | Value    |
|--------------|----------|
| Entrypoint   | 0x02AC   |
| Data Size    | 10 bytes |
| Instructions | 2        |

```
      00 01 02 03 04 05 06 07  08 09 0A 0B 0C 0D 0E 0F
      -- -- -- -- -- -- -- --  -- -- -- -- -- -- -- --
02A0:                                      37 44 80 45              7D.E
02B0: 80 46 80 47 80 00                                 .F.G..          
```

#### Opcodes

```
  0: 0x02AC [0x37] UPDATE_EVENT_POSITION_AND_DIR: x=-278.719*, z=-417.230*, y=-39.909*, direction=239.6°*
  1: 0x02B5 [0x00] END_REQSTACK()
```

### Event 65535.14

#### Metadata

| Field        | Value    |
|--------------|----------|
| Entrypoint   | 0x02B6   |
| Data Size    | 10 bytes |
| Instructions | 2        |

```
      00 01 02 03 04 05 06 07  08 09 0A 0B 0C 0D 0E 0F
      -- -- -- -- -- -- -- --  -- -- -- -- -- -- -- --
02B0:                   37 48  80 49 80 4A 80 4B 80 00        7H.I.J.K..
```

#### Opcodes

```
  0: 0x02B6 [0x37] UPDATE_EVENT_POSITION_AND_DIR: x=571.326*, z=-272.093*, y=-0.349*, direction=37.1°*
  1: 0x02BF [0x00] END_REQSTACK()
```

### Event 65535.15

#### Metadata

| Field        | Value    |
|--------------|----------|
| Entrypoint   | 0x02C0   |
| Data Size    | 10 bytes |
| Instructions | 2        |

```
      00 01 02 03 04 05 06 07  08 09 0A 0B 0C 0D 0E 0F
      -- -- -- -- -- -- -- --  -- -- -- -- -- -- -- --
02C0: 37 4C 80 4D 80 4E 80 4F  80 00                    7L.M.N.O..      
```

#### Opcodes

```
  0: 0x02C0 [0x37] UPDATE_EVENT_POSITION_AND_DIR: x=-281.057*, z=-421.233*, y=-39.794*, direction=157.8°*
  1: 0x02C9 [0x00] END_REQSTACK()
```

### Event 65535.16

#### Metadata

| Field        | Value    |
|--------------|----------|
| Entrypoint   | 0x02CA   |
| Data Size    | 10 bytes |
| Instructions | 2        |

```
      00 01 02 03 04 05 06 07  08 09 0A 0B 0C 0D 0E 0F
      -- -- -- -- -- -- -- --  -- -- -- -- -- -- -- --
02C0:                                37 50 80 51 80 01            7P.Q..
02D0: 80 52 80 00                                       .R..            
```

#### Opcodes

```
  0: 0x02CA [0x37] UPDATE_EVENT_POSITION_AND_DIR: x=561.040*, z=-276.985*, y=0.000*, direction=152.3°*
  1: 0x02D3 [0x00] END_REQSTACK()
```

### Event 65535.17

#### Metadata

| Field        | Value    |
|--------------|----------|
| Entrypoint   | 0x02D4   |
| Data Size    | 10 bytes |
| Instructions | 2        |

```
      00 01 02 03 04 05 06 07  08 09 0A 0B 0C 0D 0E 0F
      -- -- -- -- -- -- -- --  -- -- -- -- -- -- -- --
02D0:             37 53 80 54  80 55 80 56 80 00            7S.T.U.V..  
```

#### Opcodes

```
  0: 0x02D4 [0x37] UPDATE_EVENT_POSITION_AND_DIR: x=-358.228*, z=19.933*, y=-35.004*, direction=184.3°*
  1: 0x02DD [0x00] END_REQSTACK()
```

### Event 65535.18

#### Metadata

| Field        | Value    |
|--------------|----------|
| Entrypoint   | 0x02DE   |
| Data Size    | 10 bytes |
| Instructions | 2        |

```
      00 01 02 03 04 05 06 07  08 09 0A 0B 0C 0D 0E 0F
      -- -- -- -- -- -- -- --  -- -- -- -- -- -- -- --
02D0:                                            37 57                7W
02E0: 80 58 80 59 80 5A 80 00                           .X.Y.Z..        
```

#### Opcodes

```
  0: 0x02DE [0x37] UPDATE_EVENT_POSITION_AND_DIR: x=121.457*, z=115.601*, y=-7.981*, direction=307.3°*
  1: 0x02E7 [0x00] END_REQSTACK()
```

### Event 65535.19

#### Metadata

| Field        | Value    |
|--------------|----------|
| Entrypoint   | 0x02E8   |
| Data Size    | 10 bytes |
| Instructions | 2        |

```
      00 01 02 03 04 05 06 07  08 09 0A 0B 0C 0D 0E 0F
      -- -- -- -- -- -- -- --  -- -- -- -- -- -- -- --
02E0:                          37 5B 80 5C 80 5D 80 5E          7[.\.].^
02F0: 80 00                                             ..              
```

#### Opcodes

```
  0: 0x02E8 [0x37] UPDATE_EVENT_POSITION_AND_DIR: x=154.569*, z=-174.284*, y=0.551*, direction=205.0°*
  1: 0x02F1 [0x00] END_REQSTACK()
```

### Event 65535.20

#### Metadata

| Field        | Value    |
|--------------|----------|
| Entrypoint   | 0x02F2   |
| Data Size    | 10 bytes |
| Instructions | 2        |

```
      00 01 02 03 04 05 06 07  08 09 0A 0B 0C 0D 0E 0F
      -- -- -- -- -- -- -- --  -- -- -- -- -- -- -- --
02F0:       37 5F 80 60 80 61  80 62 80 00                7_.`.a.b..    
```

#### Opcodes

```
  0: 0x02F2 [0x37] UPDATE_EVENT_POSITION_AND_DIR: x=-15.373*, z=104.022*, y=-17.300*, direction=78.1°*
  1: 0x02FB [0x00] END_REQSTACK()
```

### Event 65535.21

#### Metadata

| Field        | Value    |
|--------------|----------|
| Entrypoint   | 0x02FC   |
| Data Size    | 12 bytes |
| Instructions | 3        |

```
      00 01 02 03 04 05 06 07  08 09 0A 0B 0C 0D 0E 0F
      -- -- -- -- -- -- -- --  -- -- -- -- -- -- -- --
02F0:                                      33 01 37 63              3.7c
0300: 80 64 80 65 80 66 80 00                           .d.e.f..        
```

#### Opcodes

```
  0: 0x02FC [0x33] EventEntity->Render.Flags0 |= 0x200000 // Bit 21 (flag=0x01)
  1: 0x02FE [0x37] UPDATE_EVENT_POSITION_AND_DIR: x=0.646*, z=-26.695*, y=-7.109*, direction=147.0°*
  2: 0x0307 [0x00] END_REQSTACK()
```

### Event 65535.22

#### Metadata

| Field        | Value    |
|--------------|----------|
| Entrypoint   | 0x0308   |
| Data Size    | 10 bytes |
| Instructions | 2        |

```
      00 01 02 03 04 05 06 07  08 09 0A 0B 0C 0D 0E 0F
      -- -- -- -- -- -- -- --  -- -- -- -- -- -- -- --
0300:                          37 67 80 68 80 69 80 6A          7g.h.i.j
0310: 80 00                                             ..              
```

#### Opcodes

```
  0: 0x0308 [0x37] UPDATE_EVENT_POSITION_AND_DIR: x=-0.047*, z=-32.521*, y=-23.499*, direction=89.7°*
  1: 0x0311 [0x00] END_REQSTACK()
```

### Event 65535.23

#### Metadata

| Field        | Value    |
|--------------|----------|
| Entrypoint   | 0x0312   |
| Data Size    | 37 bytes |
| Instructions | 5        |

```
      00 01 02 03 04 05 06 07  08 09 0A 0B 0C 0D 0E 0F
      -- -- -- -- -- -- -- --  -- -- -- -- -- -- -- --
0310:       03 00 00 07 7F 1A  5C 03 66 01 00 F8 FF FF    ......\.f.....
0320: 7F F8 FF FF 7F 73 68 61  30 53 F8 FF FF 7F F8 FF  .....sha0S......
0330: FF 7F 73 68 61 30 00                              ..sha0.         
```

#### Opcodes

```
  0: 0x0312 [0x03] ExtData[1]->WorkLocal[0] = Entity->Race
  1: 0x0317 [0x1A] CALL_SUBROUTINE(address=0x035C)
  2: 0x031A [0x66] LOAD_EXT_SCHEDULER_MAIN: Load scheduler "sha0" with entities [EventEntity, EventEntity], work=ExtData[1]->WorkLocal[1]
  3: 0x0329 [0x53] WAIT_SCHEDULER_TASK: Wait for scheduler "sha0" with entities [EventEntity, EventEntity]
  4: 0x0336 [0x00] END_REQSTACK()
```

### Event 65535.24

#### Metadata

| Field        | Value     |
|--------------|-----------|
| Entrypoint   | 0x0337    |
| Data Size    | 185 bytes |
| Instructions | 13        |

```
      00 01 02 03 04 05 06 07  08 09 0A 0B 0C 0D 0E 0F
      -- -- -- -- -- -- -- --  -- -- -- -- -- -- -- --
0330:                      03  00 00 07 7F 1A 5C 03 66         ......\.f
0340: 01 00 F8 FF FF 7F F8 FF  FF 7F 73 68 61 31 53 F8  ..........sha1S.
0350: FF FF 7F F8 FF FF 7F 73  68 61 31 00 03 01 00 00  .......sha1.....
0360: 00 02 01 00 6B 80 05 71  03 08 01 00 6C 80 01 76  ....k..q....l..v
0370: 03 08 01 00 6D 80 14 01  00 6E 80 07 01 00 6F 80  ....m....n....o.
0380: 1B 03 01 00 00 00 02 01  00 6B 80 05 96 03 08 01  .........k......
0390: 00 6C 80 01 9B 03 08 01  00 6D 80 14 01 00 6E 80  .l.......m....n.
03A0: 07 01 00 70 80 1B 03 01  00 00 00 02 01 00 6B 80  ...p..........k.
03B0: 05 BB 03 08 01 00 6C 80  01 C0 03 08 01 00 6D 80  ......l.......m.
03C0: 14 01 00 6E 80 07 01 00  71 80 1B 03 01 00 00 00  ...n....q.......
03D0: 02 01 00 6B 80 05 E0 03  08 01 00 6C 80 01 E5 03  ...k.......l....
03E0: 08 01 00 6D 80 14 01 00  6E 80 07 01 00 72 80 1B  ...m....n....r..
```

#### Opcodes

```
  0: 0x0337 [0x03] ExtData[1]->WorkLocal[0] = Entity->Race
  1: 0x033C [0x1A] CALL_SUBROUTINE(address=0x035C)
  2: 0x033F [0x66] LOAD_EXT_SCHEDULER_MAIN: Load scheduler "sha1" with entities [EventEntity, EventEntity], work=ExtData[1]->WorkLocal[1]
  3: 0x034E [0x53] WAIT_SCHEDULER_TASK: Wait for scheduler "sha1" with entities [EventEntity, EventEntity]
  4: 0x035B [0x00] END_REQSTACK()

SUBROUTINE_035C:
  5: 0x035C [0x03] ExtData[1]->WorkLocal[1] = ExtData[1]->WorkLocal[0]
  6: 0x0361 [0x02] IF !(ExtData[1]->WorkLocal[1] > 5*) GOTO 0x0371
  7: 0x0369 [0x08] ExtData[1]->WorkLocal[1] -= 1*
  8: 0x036E [0x01] GOTO 0x0376
  9: 0x0371 [0x08] ExtData[1]->WorkLocal[1] -= 2*

SUBROUTINE_0376:
 10: 0x0376 [0x14] ExtData[1]->WorkLocal[1] *= 10*
 11: 0x037B [0x07] ExtData[1]->WorkLocal[1] += 9*
 12: 0x0380 [0x1B] RETURN
```

#### Data or dead code:

```
# Dead code (unreachable instructions):
     0x0381 [0x03] ExtData[1]->WorkLocal[1] = ExtData[1]->WorkLocal[0]
     0x0386 [0x02] IF !(ExtData[1]->WorkLocal[1] > 5*) GOTO 0x0396
     0x038E [0x08] ExtData[1]->WorkLocal[1] -= 1*
     0x0393 [0x01] GOTO 0x039B
     0x0396 [0x08] ExtData[1]->WorkLocal[1] -= 2*
     0x039B [0x14] ExtData[1]->WorkLocal[1] *= 10*
     0x03A0 [0x07] ExtData[1]->WorkLocal[1] += 70*
     0x03A5 [0x1B] RETURN
     0x03A6 [0x03] ExtData[1]->WorkLocal[1] = ExtData[1]->WorkLocal[0]
     0x03AB [0x02] IF !(ExtData[1]->WorkLocal[1] > 5*) GOTO 0x03BB
     0x03B3 [0x08] ExtData[1]->WorkLocal[1] -= 1*
     0x03B8 [0x01] GOTO 0x03C0
     0x03BB [0x08] ExtData[1]->WorkLocal[1] -= 2*
     0x03C0 [0x14] ExtData[1]->WorkLocal[1] *= 10*
     0x03C5 [0x07] ExtData[1]->WorkLocal[1] += 140*
     0x03CA [0x1B] RETURN
     0x03CB [0x03] ExtData[1]->WorkLocal[1] = ExtData[1]->WorkLocal[0]
     0x03D0 [0x02] IF !(ExtData[1]->WorkLocal[1] > 5*) GOTO 0x03E0
     0x03D8 [0x08] ExtData[1]->WorkLocal[1] -= 1*
     0x03DD [0x01] GOTO 0x03E5
     0x03E0 [0x08] ExtData[1]->WorkLocal[1] -= 2*
     0x03E5 [0x14] ExtData[1]->WorkLocal[1] *= 10*
     0x03EA [0x07] ExtData[1]->WorkLocal[1] += 210*
     0x03EF [0x1B] RETURN
```

### Event 65535.25

#### Metadata

| Field        | Value    |
|--------------|----------|
| Entrypoint   | 0x03F0   |
| Data Size    | 24 bytes |
| Instructions | 4        |

```
      00 01 02 03 04 05 06 07  08 09 0A 0B 0C 0D 0E 0F
      -- -- -- -- -- -- -- --  -- -- -- -- -- -- -- --
03F0: 03 00 00 07 7F 1A 5C 03  66 01 00 F8 FF FF 7F F8  ......\.f.......
0400: FF FF 7F 74 6C 6B 30 00                           ...tlk0.        
```

#### Opcodes

```
  0: 0x03F0 [0x03] ExtData[1]->WorkLocal[0] = Entity->Race
  1: 0x03F5 [0x1A] CALL_SUBROUTINE(address=0x035C)
  2: 0x03F8 [0x66] LOAD_EXT_SCHEDULER_MAIN: Load scheduler "tlk0" with entities [EventEntity, EventEntity], work=ExtData[1]->WorkLocal[1]
  3: 0x0407 [0x00] END_REQSTACK()
```

### Event 65535.26

#### Metadata

| Field        | Value    |
|--------------|----------|
| Entrypoint   | 0x0408   |
| Data Size    | 24 bytes |
| Instructions | 4        |

```
      00 01 02 03 04 05 06 07  08 09 0A 0B 0C 0D 0E 0F
      -- -- -- -- -- -- -- --  -- -- -- -- -- -- -- --
0400:                          03 00 00 07 7F 1A 5C 03          ......\.
0410: 66 01 00 F8 FF FF 7F F8  FF FF 7F 74 6C 6B 31 00  f..........tlk1.
```

#### Opcodes

```
  0: 0x0408 [0x03] ExtData[1]->WorkLocal[0] = Entity->Race
  1: 0x040D [0x1A] CALL_SUBROUTINE(address=0x035C)
  2: 0x0410 [0x66] LOAD_EXT_SCHEDULER_MAIN: Load scheduler "tlk1" with entities [EventEntity, EventEntity], work=ExtData[1]->WorkLocal[1]
  3: 0x041F [0x00] END_REQSTACK()
```

### Event 65535.27

#### Metadata

| Field        | Value    |
|--------------|----------|
| Entrypoint   | 0x0420   |
| Data Size    | 37 bytes |
| Instructions | 5        |

```
      00 01 02 03 04 05 06 07  08 09 0A 0B 0C 0D 0E 0F
      -- -- -- -- -- -- -- --  -- -- -- -- -- -- -- --
0420: 03 00 00 07 7F 1A 5C 03  66 01 00 F8 FF FF 7F F8  ......\.f.......
0430: FF FF 7F 73 69 74 30 53  F8 FF FF 7F F8 FF FF 7F  ...sit0S........
0440: 73 69 74 30 00                                    sit0.           
```

#### Opcodes

```
  0: 0x0420 [0x03] ExtData[1]->WorkLocal[0] = Entity->Race
  1: 0x0425 [0x1A] CALL_SUBROUTINE(address=0x035C)
  2: 0x0428 [0x66] LOAD_EXT_SCHEDULER_MAIN: Load scheduler "sit0" with entities [EventEntity, EventEntity], work=ExtData[1]->WorkLocal[1]
  3: 0x0437 [0x53] WAIT_SCHEDULER_TASK: Wait for scheduler "sit0" with entities [EventEntity, EventEntity]
  4: 0x0444 [0x00] END_REQSTACK()
```

### Event 65535.28

#### Metadata

| Field        | Value    |
|--------------|----------|
| Entrypoint   | 0x0445   |
| Data Size    | 37 bytes |
| Instructions | 5        |

```
      00 01 02 03 04 05 06 07  08 09 0A 0B 0C 0D 0E 0F
      -- -- -- -- -- -- -- --  -- -- -- -- -- -- -- --
0440:                03 00 00  07 7F 1A 5C 03 66 01 00       ......\.f..
0450: F8 FF FF 7F F8 FF FF 7F  73 69 74 31 53 F8 FF FF  ........sit1S...
0460: 7F F8 FF FF 7F 73 69 74  31 00                    .....sit1.      
```

#### Opcodes

```
  0: 0x0445 [0x03] ExtData[1]->WorkLocal[0] = Entity->Race
  1: 0x044A [0x1A] CALL_SUBROUTINE(address=0x035C)
  2: 0x044D [0x66] LOAD_EXT_SCHEDULER_MAIN: Load scheduler "sit1" with entities [EventEntity, EventEntity], work=ExtData[1]->WorkLocal[1]
  3: 0x045C [0x53] WAIT_SCHEDULER_TASK: Wait for scheduler "sit1" with entities [EventEntity, EventEntity]
  4: 0x0469 [0x00] END_REQSTACK()
```

### Event 65535.29

#### Metadata

| Field        | Value    |
|--------------|----------|
| Entrypoint   | 0x046A   |
| Data Size    | 42 bytes |
| Instructions | 6        |

```
      00 01 02 03 04 05 06 07  08 09 0A 0B 0C 0D 0E 0F
      -- -- -- -- -- -- -- --  -- -- -- -- -- -- -- --
0460:                                03 00 00 07 7F 1A            ......
0470: 5C 03 66 01 00 F8 FF FF  7F F8 FF FF 7F 74 6C 6B  \.f..........tlk
0480: 30 1C 0A 80 66 01 00 F8  FF FF 7F F8 FF FF 7F 74  0...f..........t
0490: 6C 6B 31 00                                       lk1.            
```

#### Opcodes

```
  0: 0x046A [0x03] ExtData[1]->WorkLocal[0] = Entity->Race
  1: 0x046F [0x1A] CALL_SUBROUTINE(address=0x035C)
  2: 0x0472 [0x66] LOAD_EXT_SCHEDULER_MAIN: Load scheduler "tlk0" with entities [EventEntity, EventEntity], work=ExtData[1]->WorkLocal[1]
  3: 0x0481 [0x1C] WAIT(60* ticks)
  4: 0x0484 [0x66] LOAD_EXT_SCHEDULER_MAIN: Load scheduler "tlk1" with entities [EventEntity, EventEntity], work=ExtData[1]->WorkLocal[1]
  5: 0x0493 [0x00] END_REQSTACK()
```

### Event 65535.30

#### Metadata

| Field        | Value    |
|--------------|----------|
| Entrypoint   | 0x0494   |
| Data Size    | 16 bytes |
| Instructions | 3        |

```
      00 01 02 03 04 05 06 07  08 09 0A 0B 0C 0D 0E 0F
      -- -- -- -- -- -- -- --  -- -- -- -- -- -- -- --
0490:             92 01 F0 FF  FF 7F 37 73 80 74 80 75      ......7s.t.u
04A0: 80 76 80 00                                       .v..            
```

#### Opcodes

```
  0: 0x0494 [0x92] LocalPlayer->Render.Flags3 ^= 0x01
  1: 0x049A [0x37] UPDATE_EVENT_POSITION_AND_DIR: x=-341.524*, z=49.599*, y=-23.824*, direction=227.2°*
  2: 0x04A3 [0x00] END_REQSTACK()
```

### Event 65535.31

#### Metadata

| Field        | Value    |
|--------------|----------|
| Entrypoint   | 0x04A4   |
| Data Size    | 41 bytes |
| Instructions | 5        |

```
      00 01 02 03 04 05 06 07  08 09 0A 0B 0C 0D 0E 0F
      -- -- -- -- -- -- -- --  -- -- -- -- -- -- -- --
04A0:             BB 77 80 F0  FF FF 7F 9E 62 07 01 6D      .w......b..m
04B0: 61 69 6E 01 80 1C 78 80  45 00 80 F0 FF FF 7F F0  ain...x.E.......
04C0: FF FF 7F 66 64 6F 31 01  80 1C 0A 80 00           ...fdo1......   
```

#### Opcodes

```
  0: 0x04A4 [0xBB] LOAD_EVENT_SCHEDULER_ALT: Load scheduler "main" with entities [LocalPlayer, Cavernous Maw (ID: 17261214/0x0107629E)], work=[148*, 0*]
  1: 0x04B5 [0x1C] WAIT(240* ticks)
  2: 0x04B8 [0x45] LOAD_SCHEDULED_TASK: Load scheduler "fdo1" with entities [LocalPlayer, LocalPlayer], work=[200*, 0*]
  3: 0x04C9 [0x1C] WAIT(60* ticks)
  4: 0x04CC [0x00] END_REQSTACK()
```

### Event 50

#### Metadata

| Field        | Value     |
|--------------|-----------|
| Entrypoint   | 0x04CD    |
| Data Size    | 135 bytes |
| Instructions | 9         |

```
      00 01 02 03 04 05 06 07  08 09 0A 0B 0C 0D 0E 0F
      -- -- -- -- -- -- -- --  -- -- -- -- -- -- -- --
04C0:                                         42 5D 01               B].
04D0: 80 0A 80 02 05 10 01 80  00 E4 04 A8 00 04 10 6C  ...............l
04E0: 80 1C 15 80 89 04 10 8B  04 10 05 10 02 10 03 10  ................
04F0: 3F 3F 3F 00 00 00 00 00  00 00 00 00 00 00 00 00  ???.............
0500: 45 79 80 F8 FF FF 7F F8  FF FF 7F 63 68 63 6F 01  Ey.........chco.
0510: 80 48 7A 80 23 02 06 10  6C 80 00 32 05 45 7B 80  .Hz.#...l..2.E{.
0520: F8 FF FF 7F F8 FF FF 7F  6E 61 6B 31 01 80 48 7C  ........nak1..H|
0530: 80 23 02 07 10 7D 80 00  4F 05 45 7B 80 F8 FF FF  .#...}..O.E{....
0540: 7F F8 FF FF 7F 6E 61 6B  32 01 80 48 7E 80 23 1C  .....nak2..H~.#.
0550: 6C 80 21 00                                       l.!.            
```

#### Opcodes

```
  0: 0x04CD [0x42] SET_CLI_EVENT_CANCEL_DATA()
  1: 0x04CE [0x5D] SET_MUSIC_VOLUME(volume=0*, fade_time=60*)
  2: 0x04D3 [0x02] IF !(Work_Zone[5] == 0*) GOTO 0x04E4
  3: 0x04DB [0xA8] MAP_MARKER_CONTROL: Reset/unlock markers (no map display), zone=Work_Zone[4], marker=1*
  4: 0x04E1 [0x1C] WAIT(15* ticks)
  5: 0x04E4 [0x89] OPEN_MAP(map_id=0x00001004)
  6: 0x04E7 [0x8B] SET_EVENT_MARK: Add/update map marker on map Work_Zone[4] at (Work_Zone[2], Work_Zone[3]), index=Work_Zone[5], name=(no name)
  7: 0x04F0 [0x3F] 0x3F3F = ExtData[1]->WorkLocal[0] % ExtData[1]->WorkLocal[0]
  8: 0x04F7 [0x00] END_REQSTACK()
```

#### Data or dead code:

```
# Dead code (unreachable instructions):
     0x04F8 [0x00] END_REQSTACK()
     0x04F9 [0x00] END_REQSTACK()
     0x04FA [0x00] END_REQSTACK()
     0x04FB [0x00] END_REQSTACK()
     0x04FC [0x00] END_REQSTACK()
     0x04FD [0x00] END_REQSTACK()
     0x04FE [0x00] END_REQSTACK()
     0x04FF [0x00] END_REQSTACK()
     0x0500 [0x45] LOAD_SCHEDULED_TASK: Load scheduler "chco" with entities [EventEntity, EventEntity], work=[201*, 0*]
     0x0511 [0x48] [System] [8101*]:
    → "There is treasure somewhere in the vicinity of this marker..."
     0x0514 [0x23] WAIT_FOR_DIALOG_INTERACTION
     0x0515 [0x02] IF !(Work_Zone[6] == 1*) GOTO 0x0532
     0x051D [0x45] LOAD_SCHEDULED_TASK: Load scheduler "nak1" with entities [EventEntity, EventEntity], work=[144*, 0*]
     0x052E [0x48] [System] [8113*]:
    → "Your chocobo seems especially sharp today!"
     0x0531 [0x23] WAIT_FOR_DIALOG_INTERACTION
     0x0532 [0x02] IF !(Work_Zone[7] == 99*) GOTO 0x054F
     0x053A [0x45] LOAD_SCHEDULED_TASK: Load scheduler "nak2" with entities [EventEntity, EventEntity], work=[144*, 0*]
     0x054B [0x48] [System] [8114*]:
    → "Your chocobo seems especially energetic today!"
     0x054E [0x23] WAIT_FOR_DIALOG_INTERACTION
     0x054F [0x1C] WAIT(1* ticks)
     0x0552 [0x21] END_EVENT
     0x0553 [0x00] END_REQSTACK()
```
