# Event 1113

## Metadata

| Field           | Value    |
|-----------------|----------|
| Event Index     | 5/17     |
| Offset          | 0x1A00   |
| Data Size       | 32 bytes |
| Calculated Size | 32 bytes |
| Instructions    | 10       |

```
      00 01 02 03 04 05 06 07  08 09 0A 0B 0C 0D 0E 0F
      -- -- -- -- -- -- -- --  -- -- -- -- -- -- -- --
1A00: 1E F0 FF FF 7F 6F 70 66  06 80 F8 FF FF 7F F8 FF  .....opf........
1A10: FF 7F 74 6C 6B 30 1D B7  80 23 1D B8 80 23 21 00  ..tlk0...#...#!.
```

## Opcodes

```
  0: 0x1A00 [0x1E] EventEntity looks at LocalPlayer and starts talking
  1: 0x1A05 [0x6F] WAIT_FRAME_DELAY: Yield until WaitTime reaches zero
  2: 0x1A06 [0x70] WAIT_ENTITY_RENDER_FLAG: Wait while EventEntity->Render.Flags3 bit 2 is set (cancel turn if not)
  3: 0x1A07 [0x66] LOAD_EXT_SCHEDULER_MAIN: Load scheduler "tlk0" with entities [EventEntity, EventEntity], work=238*
  4: 0x1A16 [0x1D] PRINT_EVENT_MESSAGE(message_id=7578*)
    → "Oh, it's you again. The old man's name is Umberto, and you should be able to find him in Bastok.\u007F1\u0000\u0007"
  5: 0x1A19 [0x23] WAIT_FOR_DIALOG_INTERACTION
  6: 0x1A1A [0x1D] PRINT_EVENT_MESSAGE(message_id=7579*)
    → "If you don't hurry, the delivery date is going to come and go! Now get out there, already!\u007F1\u0000\u0007"
  7: 0x1A1D [0x23] WAIT_FOR_DIALOG_INTERACTION
  8: 0x1A1E [0x21] END_EVENT
  9: 0x1A1F [0x00] END_REQSTACK()
```
