# Event 773

## Metadata

| Field           | Value    |
|-----------------|----------|
| Event Index     | 53/58    |
| Offset          | 0x0A11   |
| Data Size       | 36 bytes |
| Calculated Size | 36 bytes |
| Instructions    | 9        |

```
      00 01 02 03 04 05 06 07  08 09 0A 0B 0C 0D 0E 0F
      -- -- -- -- -- -- -- --  -- -- -- -- -- -- -- --
0A10:    29 08 59 E0 0E 01 07  1D 60 80 23 29 08 59 E0   ).Y.....`.#).Y.
0A20: 0E 01 08 29 08 59 E0 0E  01 04 29 08 59 E0 0E 01  ...).Y....).Y...
0A30: 05 20 00 21 00                                    . .!.           
```

## Opcodes

```
  0: 0x0A11 [0x29] REQ_SET_WAIT(priority=0x08, entity_id=Angelica (ID: 17752153/0x010EE059), tag_num=0x07)
  1: 0x0A18 [0x1D] PRINT_EVENT_MESSAGE(message_id=9824*)
    → "I'm not gonna throw away my dream!\u0007I'm gonna paint the canvas with my ambition!\u0007Hand me my brushes! Bring on the inspiration!\u007F1\u0000\u0007"
  2: 0x0A1B [0x23] WAIT_FOR_DIALOG_INTERACTION
  3: 0x0A1C [0x29] REQ_SET_WAIT(priority=0x08, entity_id=Angelica (ID: 17752153/0x010EE059), tag_num=0x08)
  4: 0x0A23 [0x29] REQ_SET_WAIT(priority=0x08, entity_id=Angelica (ID: 17752153/0x010EE059), tag_num=0x04)
  5: 0x0A2A [0x29] REQ_SET_WAIT(priority=0x08, entity_id=Angelica (ID: 17752153/0x010EE059), tag_num=0x05)
  6: 0x0A31 [0x20] SET_CLI_EVENT_UC_FLAG: Unlock player control
  7: 0x0A33 [0x21] END_EVENT
  8: 0x0A34 [0x00] END_REQSTACK()
```
