# Event 65535

## Metadata

| Field           | Value    |
|-----------------|----------|
| Event Index     | 6/6      |
| Offset          | 0x02F6   |
| Data Size       | 38 bytes |
| Calculated Size | 38 bytes |
| Instructions    | 8        |

```
      00 01 02 03 04 05 06 07  08 09 0A 0B 0C 0D 0E 0F
      -- -- -- -- -- -- -- --  -- -- -- -- -- -- -- --
02F0:                   27 10  80 81 01 01 0C 1C 07 80        '.........
0300: 27 10 7F 81 01 01 0D 1C  05 80 27 10 81 81 01 01  '.........'.....
0310: 0C 1C 08 80 27 10 83 81  01 01 0E 00              ....'.......    
```

## Opcodes

```
  0: 0x02F6 [0x27] REQ_SET(priority=0x10, entity_id=Jabbos (ID: 16875904/0x01018180), tag_num=0x0C)
  1: 0x02FD [0x1C] WAIT(2* ticks)
  2: 0x0300 [0x27] REQ_SET(priority=0x10, entity_id=Tenzen (ID: 16875903/0x0101817F), tag_num=0x0D)
  3: 0x0307 [0x1C] WAIT(1* ticks)
  4: 0x030A [0x27] REQ_SET(priority=0x10, entity_id=Shikaree Z (ID: 16875905/0x01018181), tag_num=0x0C)
  5: 0x0311 [0x1C] WAIT(3* ticks)
  6: 0x0314 [0x27] REQ_SET(priority=0x10, entity_id=Louverance (ID: 16875907/0x01018183), tag_num=0x0E)
  7: 0x031B [0x00] END_REQSTACK()
```
