# Event 211

## Metadata

| Field           | Value    |
|-----------------|----------|
| Event Index     | 21/24    |
| Offset          | 0x0492   |
| Data Size       | 46 bytes |
| Calculated Size | 46 bytes |
| Instructions    | 14       |

```
      00 01 02 03 04 05 06 07  08 09 0A 0B 0C 0D 0E 0F
      -- -- -- -- -- -- -- --  -- -- -- -- -- -- -- --
0490:       20 01 24 0A 80 0B  80 01 80 25 02 00 10 01     .$......%....
04A0: 80 00 B1 04 42 43 00 43  01 03 01 10 0B 80 01 BC  ....BC.C........
04B0: 04 02 00 10 0B 80 00 BC  04 01 BC 04 20 00 21 00  ............ .!.
```

## Opcodes

```
  0: 0x0492 [0x20] SET_CLI_EVENT_UC_FLAG: Lock player control
  1: 0x0494 [0x24] CREATE_DIALOG(message_id=7475*, default_option=1*, option_flags=0*)
    → "Use the device?\u0007\u000BYes.\u0007No.\u007F1\u0000\u0007"
  2: 0x049B [0x25] WAIT_DIALOG_SELECT()
  3: 0x049C [0x02] IF !(Work_Zone[0] == 0*) GOTO 0x04B1
  4: 0x04A4 [0x42] SET_CLI_EVENT_CANCEL_DATA()
  5: 0x04A5 [0x43] SEND_EVENT_UPDATE: Send pending tag to server (packet 0x005B)
  6: 0x04A7 [0x43] SEND_EVENT_UPDATE: Check pending flag (skip if not pending)
  7: 0x04A9 [0x03] Work_Zone[1] = 1*
  8: 0x04AE [0x01] GOTO 0x04BC

SUBROUTINE_04B1:
  9: 0x04B1 [0x02] IF !(Work_Zone[0] == 1*) GOTO 0x04BC
 10: 0x04B9 [0x01] GOTO 0x04BC

SUBROUTINE_04BC:
 11: 0x04BC [0x20] SET_CLI_EVENT_UC_FLAG: Unlock player control
 12: 0x04BE [0x21] END_EVENT
 13: 0x04BF [0x00] END_REQSTACK()
```
