# Event 300

## Metadata

| Field           | Value    |
|-----------------|----------|
| Event Index     | 23/24    |
| Offset          | 0x050F   |
| Data Size       | 31 bytes |
| Calculated Size | 31 bytes |
| Instructions    | 10       |

```
      00 01 02 03 04 05 06 07  08 09 0A 0B 0C 0D 0E 0F
      -- -- -- -- -- -- -- --  -- -- -- -- -- -- -- --
0500:                                               20                  
0510: 01 24 20 80 0B 80 01 80  25 02 00 10 01 80 00 2A  .$ .....%......*
0520: 05 42 03 01 10 0B 80 01  2A 05 20 00 21 00        .B......*. .!.  
```

## Opcodes

```
  0: 0x050F [0x20] SET_CLI_EVENT_UC_FLAG: Lock player control
  1: 0x0511 [0x24] CREATE_DIALOG(message_id=7477*, default_option=1*, option_flags=0*)
    → "Open the door?\u0007\u000BYes.\u0007No.\u007F1\u0000\u0007"
  2: 0x0518 [0x25] WAIT_DIALOG_SELECT()
  3: 0x0519 [0x02] IF !(Work_Zone[0] == 0*) GOTO 0x052A
  4: 0x0521 [0x42] SET_CLI_EVENT_CANCEL_DATA()
  5: 0x0522 [0x03] Work_Zone[1] = 1*
  6: 0x0527 [0x01] GOTO 0x052A

SUBROUTINE_052A:
  7: 0x052A [0x20] SET_CLI_EVENT_UC_FLAG: Unlock player control
  8: 0x052C [0x21] END_EVENT
  9: 0x052D [0x00] END_REQSTACK()
```
