# Event 82

## Metadata

| Field           | Value    |
|-----------------|----------|
| Event Index     | 5/5      |
| Offset          | 0x00AE   |
| Data Size       | 60 bytes |
| Calculated Size | 60 bytes |
| Instructions    | 13       |

```
      00 01 02 03 04 05 06 07  08 09 0A 0B 0C 0D 0E 0F
      -- -- -- -- -- -- -- --  -- -- -- -- -- -- -- --
00A0:                                            03 09                ..
00B0: 10 0F 80 42 20 01 1E F0  FF FF 7F 03 09 10 0F 80  ...B ...........
00C0: 1D 1A 80 23 5B 11 80 F8  FF FF 7F F8 FF FF 7F 70  ...#[..........p
00D0: 61 73 30 1D 1B 80 23 45  1C 80 F0 FF FF 7F F0 FF  as0...#E........
00E0: FF 7F 71 73 74 63 02 80  21 00                    ..qstc..!.      
```

## Opcodes

```
  0: 0x00AE [0x03] Work_Zone[9] = 576*
  1: 0x00B3 [0x42] SET_CLI_EVENT_CANCEL_DATA()
  2: 0x00B4 [0x20] SET_CLI_EVENT_UC_FLAG: Lock player control
  3: 0x00B6 [0x1E] EventEntity looks at LocalPlayer and starts talking
  4: 0x00BB [0x03] Work_Zone[9] = 576*
  5: 0x00C0 [0x1D] PRINT_EVENT_MESSAGE(message_id=10719*)
    → "Oh-ho! \u007F\u0000\u0001\u0001\u0001\u0001 \u0001\u0005$\u0002\u0007\u0000\u0000!\u0007Good work!\u007F1\u0000\u0007"
  6: 0x00C3 [0x23] WAIT_FOR_DIALOG_INTERACTION
  7: 0x00C4 [0x5B] LOAD_EXT_SCHEDULER: Load scheduler "pas0" with entities [EventEntity, EventEntity], work=65*
  8: 0x00D3 [0x1D] PRINT_EVENT_MESSAGE(message_id=10720*)
    → "Yes, yes! Look how it glitters! Marvelous, simply marvelous!\u0007If you find any more, come to me and I will reward you handsomely!\u007F1\u0000\u0007"
  9: 0x00D6 [0x23] WAIT_FOR_DIALOG_INTERACTION
 10: 0x00D7 [0x45] LOAD_SCHEDULED_TASK: Load scheduler "qstc" with entities [LocalPlayer, LocalPlayer], work=[201*, 0*]
 11: 0x00E8 [0x21] END_EVENT
 12: 0x00E9 [0x00] END_REQSTACK()
```
